{"abi":[{"inputs":[{"internalType":"address","name":"liquidateAccount","type":"address"},{"internalType":"uint16","name":"localCurrency","type":"uint16"},{"internalType":"uint16","name":"fCashCurrency","type":"uint16"},{"internalType":"uint256[]","name":"fCashMaturities","type":"uint256[]"},{"internalType":"uint256[]","name":"maxfCashLiquidateAmounts","type":"uint256[]"}],"name":"calculatefCashCrossCurrencyLiquidation","outputs":[{"internalType":"int256[]","name":"","type":"int256[]"},{"internalType":"int256","name":"","type":"int256"}],"stateMutability":"nonpayable","type":"function"},{"inputs":[{"internalType":"address","name":"liquidateAccount","type":"address"},{"internalType":"uint16","name":"localCurrency","type":"uint16"},{"internalType":"uint256[]","name":"fCashMaturities","type":"uint256[]"},{"internalType":"uint256[]","name":"maxfCashLiquidateAmounts","type":"uint256[]"}],"name":"calculatefCashLocalLiquidation","outputs":[{"internalType":"int256[]","name":"","type":"int256[]"},{"internalType":"int256","name":"","type":"int256"}],"stateMutability":"nonpayable","type":"function"},{"inputs":[],"name":"getLibInfo","outputs":[{"internalType":"address","name":"","type":"address"},{"internalType":"address","name":"","type":"address"}],"stateMutability":"pure","type":"function"},{"inputs":[{"internalType":"address","name":"liquidateAccount","type":"address"},{"internalType":"uint16","name":"localCurrency","type":"uint16"},{"internalType":"uint16","name":"fCashCurrency","type":"uint16"},{"internalType":"uint256[]","name":"fCashMaturities","type":"uint256[]"},{"internalType":"uint256[]","name":"maxfCashLiquidateAmounts","type":"uint256[]"}],"name":"liquidatefCashCrossCurrency","outputs":[{"internalType":"int256[]","name":"","type":"int256[]"},{"internalType":"int256","name":"","type":"int256"}],"stateMutability":"payable","type":"function"},{"inputs":[{"internalType":"address","name":"liquidateAccount","type":"address"},{"internalType":"uint16","name":"localCurrency","type":"uint16"},{"internalType":"uint256[]","name":"fCashMaturities","type":"uint256[]"},{"internalType":"uint256[]","name":"maxfCashLiquidateAmounts","type":"uint256[]"}],"name":"liquidatefCashLocal","outputs":[{"internalType":"int256[]","name":"","type":"int256[]"},{"internalType":"int256","name":"","type":"int256"}],"stateMutability":"payable","type":"function"},{"inputs":[],"name":"owner","outputs":[{"internalType":"address","name":"","type":"address"}],"stateMutability":"view","type":"function"},{"inputs":[],"name":"pauseGuardian","outputs":[{"internalType":"address","name":"","type":"address"}],"stateMutability":"view","type":"function"},{"inputs":[],"name":"pauseRouter","outputs":[{"internalType":"address","name":"","type":"address"}],"stateMutability":"view","type":"function"}],"bytecode":"608060405234801561001057600080fd5b506153ed806100206000396000f3fe60806040526004361061007b5760003560e01c80638da5cb5b1161004e5780638da5cb5b14610101578063c4c96dae14610116578063e816469d14610139578063fa37e3951461014c5761007b565b80630fb281d91461008057806324a3d622146100b75780637fdebbf4146100d957806382463367146100ec575b600080fd5b34801561008c57600080fd5b506100a061009b366004614d46565b61016c565b6040516100ae9291906151d9565b60405180910390f35b3480156100c357600080fd5b506100cc6101d4565b6040516100ae9190615086565b6100a06100e7366004614d46565b6101e3565b3480156100f857600080fd5b506100cc61025e565b34801561010d57600080fd5b506100cc61026d565b34801561012257600080fd5b5061012b610284565b6040516100ae92919061509a565b6100a0610147366004614dd7565b6102b2565b34801561015857600080fd5b506100a0610167366004614dd7565b61032f565b606060006002600a54141561019c5760405162461bcd60e51b815260040161019390615277565b60405180910390fd5b6002600a554260006101b38a8a8a8a8a8a88610390565b60e081015160a0909101516001600a55909b909a5098505050505050505050565b6002546001600160a01b031681565b606060006002600a54141561020a5760405162461bcd60e51b815260040161019390615277565b6002600a558461021957600080fd5b42600061022b8a8a8a8a8a8a88610390565b905061023c8a338b8c8c8c87610462565b505060e081015160a0909101516001600a55909a909950975050505050505050565b6001546001600160a01b031681565b60005464010000000090046001600160a01b031681565b73__FreeCollateralExternal________________73__SettleAssetsExternal__________________9091565b606060006002600a5414156102d95760405162461bcd60e51b815260040161019390615277565b6002600a55846102e857600080fd5b4260006102fb8b8b8b8b8b8b8b8961066d565b905061030c8b338c8c8c8c87610462565b505060e081015160a0909101516001600a55909b909a5098505050505050505050565b606060006002600a5414156103565760405162461bcd60e51b815260040161019390615277565b6002600a5542600061036e8b8b8b8b8b8b8b8961066d565b60e081015160a0909101516001600a55909c909b509950505050505050505050565b6103986146e9565b8483146103a457600080fd5b6103ac6146e9565b6103b889896000610707565b60408401526020830181905290825261010001516000906103dc908b908b90610863565b505050602083015161010001519091506103f6908261091d565b6060830152866001600160401b038111801561041157600080fd5b5060405190808252806020026020018201604052801561043b578160200160208202803683370190505b5060e08301526104558a61ffff8b168a8a8a8a888b610958565b5098975050505050505050565b60606000806104748861ffff16610c6b565b905060006104818a610c86565b60a086015190915060006104948b610d34565b9050836020015180156104a75750600082135b156104f25760208301516001600160f81b031916156104d85760405162461bcd60e51b81526004016101939061529f565b6104ed8c848d6104e786610d46565b85610d54565b61051e565b600082131561050f576105098c8c84846000610e00565b5061051e565b61051e8c848d6104e786610d46565b61052a8c8e8d85610e60565b61053b8d88600001518d8585610d54565b600061054c8e8e868e8e8e8e610f06565b80955081925050508c6001600160a01b03168e6001600160a01b03167f1f20e4ccba6c78861ee4c638fecd0b6a53b1232adb96ca3a0065b9bb12d6214d8e8e8c60a001518f8f8f60e001516040516105a9969594939291906152e3565b60405180910390a36105bb848e610fcb565b87516105c7908f610fcb565b8080156105e1575060208401516001600160f81b03191615155b1561064e5773__FreeCollateralExternal________________636ccc642f8e6040518263ffffffff1660e01b815260040161061d9190615086565b60006040518083038186803b15801561063557600080fd5b505af4158015610649573d6000803e3d6000fd5b505050505b8760e001518860a0015196509650505050505097509795505050505050565b6106756146e9565b84831461068157600080fd5b6106896146e9565b6106948a8a8a610707565b604084015260208301528152856001600160401b03811180156106b657600080fd5b506040519080825280602002602001820160405280156106e0578160200160208202803683370190505b5060e08201526106fa8a61ffff8a1689898989878a6110e8565b9998505050505050505050565b61070f614740565b610717614775565b61071f6147fa565b336001600160a01b038716141561073557600080fd5b61ffff851661074357600080fd5b8461ffff168461ffff16141561075857600080fd5b600080600073__FreeCollateralExternal________________63451d958f8a8a8a6040518463ffffffff1660e01b8152600401610798939291906151b4565b60006040518083038186803b1580156107b057600080fd5b505af41580156107c4573d6000803e3d6000fd5b505050506040513d6000823e601f3d908101601f191682016040526107ec9190810190614eb0565b919450925090506107fd838a610fcb565b60408051608081018252828152815160008082526020828101909452928201908361083e565b61082b614822565b8152602001906001900390816108235790505b5081526000602082015292516040909301929092525091989097509095509350505050565b6000806000806000610873611242565b6001600160a01b03891660009081526020828152604080832061ffff8c168452909152902080546001600160501b0381169650600160501b900463ffffffff16945090915083156108e05780546108d990600160701b900466ffffffffffffff1661124f565b92506108f5565b8054600160701b900466ffffffffffffff1692505b8054610910908890600160a81b9004600a90810b900b61125d565b9550505093509350935093565b600061094f6ec097ce7bc90715b34b9f100000000061094985600001518561128b90919063ffffffff16565b906112d9565b90505b92915050565b60208201516040015161096a57600080fd5b61098d826020015160400151836020015160200151846020015160c0015161130a565b608083015260005b85811015610c405780156109d6578686828181106109af57fe5b905060200201358787600184038181106109c557fe5b90506020020135116109d657600080fd5b60006109f68a858b8b8b878181106109ea57fe5b90506020020135611361565b90506000811215610a1357600084606001511215610a1357600080fd5b80610a1e5750610c38565b600080610a4686602001518b8b87818110610a3557fe5b905060200201358760008713611405565b9092509050610a6b610a60610a5b83856114cb565b6114e1565b608088015190611502565b8660e001518581518110610a7b57fe5b602002602001018181525050610acb8660e001518581518110610a9a57fe5b6020026020010151610aab856114e1565b610ac68b8b89818110610aba57fe5b9050602002013561151b565b611535565b8660e001518581518110610adb57fe5b6020026020010181815250506000610b13828860e001518781518110610afd57fe5b602002602001015161157f90919063ffffffff16565b90506000841215610bc6578660600151811315610b7e57610b5c8161094989606001518a60e001518981518110610b4657fe5b602002602001015161128b90919063ffffffff16565b8760e001518681518110610b6c57fe5b60209081029190910101525060608601515b610b9e8760e001518681518110610b9157fe5b6020026020010151610d46565b8760e001518681518110610bae57fe5b602002602001018181525050610bc381610d46565b90505b60a0870151610bd59082611598565b60a08801526060870151610be99082611598565b6060880152610c1c610c11610a5b610c0185876114cb565b8a60e001518981518110610afd57fe5b6080890151906114cb565b60808801819052600012610c335750505050610c40565b505050505b600101610995565b5060a082015160208301516101000151610c59916115ae565b60a09092019190915250505050505050565b610c73614866565b610c7e8260016115d0565b90505b919050565b610c8e614740565b6000610c9861166a565b6001600160a01b03841660009081526020918252604090819020815160c081018352905464ffffffffff811682526001600160f81b0319600160281b820460f81b169382019390935260ff600160301b840481169282019290925261ffff600160381b84041660608201526001600160701b0319600160481b840460701b166080820152600160d81b90920416151560a0820152915050919050565b610d3c614895565b610c7e8242611677565b6000610c7e6000198361128b565b600080600080610d65898887610863565b929650909450925090506000610d7b8588611598565b90506000811215610dbf5760008713610da65760405162461bcd60e51b8152600401610193906152c1565b602089018051600160f91b176001600160f81b03191690525b600081151580610dce57508415155b9050610de48a61ffff8b1683600160fe1b61173d565b610df38b8a848888888d61194d565b5050505050505050505050565b600083610e0f57506000610e57565b60008413610e1c57600080fd5b6000610e2b8661ffff16610c6b565b90506000610e4282610e3d878961091d565b611a88565b9050610e518888838888611ac3565b50925050505b95945050505050565b6000610e6a611b80565b61ffff8416600090815260209190915260408120546001600160a01b03169150821215610e95579293925b806001600160a01b03166323de66518686610eaf866114e1565b6040518463ffffffff1660e01b8152600401610ecd93929190615177565b600060405180830381600087803b158015610ee757600080fd5b505af1158015610efb573d6000803e3d6000fd5b505050505050505050565b6000610f10614740565b600080610f238888888860e00151611b8d565b865160405163ca25415360e01b815292945090925073__SettleAssetsExternal__________________9163ca25415391610f68918f918f918f9089906004016150b4565b6101806040518083038186803b158015610f8157600080fd5b505af4158015610f95573d6000803e3d6000fd5b505050506040513d601f19601f82011682018060405250810190610fb99190614e7b565b95529a93995092975050505050505050565b6000610fd561166a565b6001600160a01b03831660008181526020838152604080832088518154938a01518a84015160608c015160808d015160a08e015164ffffffffff1990981664ffffffffff9095169490941765ff00000000001916600160281b60f89490941c939093029290921766ff0000000000001916600160301b60ff909216919091021768ffff000000000000001916600160381b61ffff90921691909102177affffffffffffffffffffffffffffffffffff0000000000000000001916600160481b60709290921c919091021760ff60d81b1916600160d81b93151593909302929092179091555192935090917f6bd4b121bca854a191536a2ca891155c42ee2fb23f307fb34e8bc65cfcb5412e9190a2505050565b6000826020015160400151126110fd57600080fd5b60008260200151606001511361111257600080fd5b61111f8260200151611c8f565b60c08401526080830181905260208301516101200151604001516111429161091d565b608083015260005b85811015610efb57801561118b5786868281811061116457fe5b9050602002013587876001840381811061117a57fe5b905060200201351161118b57600080fd5b600061119f8a858b8b8b878181106109ea57fe5b9050806111ac575061123a565b600081136111b957600080fd5b6111e6848989858181106111c957fe5b90506020020135856111e08a8a88818110610aba57fe5b85611ce3565b8460e0015183815181106111f657fe5b6020026020010181815250506000846080015113158061121c5750602084015160600151155b8061122d5750602084015160400151155b156112385750610efb565b505b60010161114a565b6000806109526006611df0565b600881901c60ff9091161b90565b600080821261126d575080610952565b82516020840151611284919061094990859061128b565b9050610952565b8181026000198314156112bb578115806112ad5750828282816112aa57fe5b05145b6112b657600080fd5b610952565b8215806112d05750818382816112cd57fe5b05145b61095257600080fd5b6000816000191480156112ef5750600160ff1b83145b156112f957600080fd5b81838161130257fe5b059392505050565b6000806000851361131f578260400151611325565b82606001515b90506000811361133457600080fd5b61135681610949606461135061134989610d46565b8890611e09565b9061128b565b9150505b9392505050565b82516060015160009061ffff1683141561138757611380858484611e2b565b90506113fd565b60408401515180515b600019810190156113f65760008282815181106113a957fe5b6020026020010151905085816000015161ffff161480156113ce575060408101516001145b80156113dd5750848160200151145b156113f0576060015192506113fd915050565b50611390565b5060009150505b949350505050565b60008060006114248686896101200151611e709092919063ffffffff16565b9050831561146f5761143c8761012001518787611f59565b925061146861144b8787611fa0565b61146361145c8a6101200151611fb5565b8490611fc2565b611fd4565b91506114c1565b61147f8761012001518787612047565b9250600061149188610120015161207d565b90506114bd6114a08888611fa0565b8284106114b6576114b18484611fa0565b611463565b6000611fd4565b9250505b5094509492505050565b8082038281131560008312151461095257600080fd5b6000808212156114fb576114f482610d46565b9050610c81565b5080610c81565b600061094f61151584633b9aca0061128b565b836112d9565b60006001600160ff1b0382111561153157600080fd5b5090565b600080611548606461094986602861128b565b905084848113156115565750835b818612156115615750805b60008413801561157057508381135b15611356575091949350505050565b600061094f61158e848461128b565b633b9aca006112d9565b8181018281121560008312151461095257600080fd5b815160009061094f90610949846ec097ce7bc90715b34b9f100000000061128b565b6115d8614866565b60006115e261208a565b6000858152602082815260408083208715158452825291829020825160a08101845281546001600160a01b038116825260ff600160a01b82048116151594830194909452600160b01b81048416600a0a9482019490945293945092916060830191600160a81b90910416600581111561165757fe5b8152600060209091015295945050505050565b6000806109526001611df0565b61167f614895565b600061168a84612097565b905082816000015110156116c9576000806116a48661215f565b90506116b2868483886121dc565b90935091506116c28683856122dd565b50506116d6565b805183146116d657600080fd5b60405180606001604052806117046116ff8460a001518560c0015161251190919063ffffffff16565b61151b565b81526020016117276116ff8460a001518560e0015161251190919063ffffffff16565b8152602001826060015181525091505092915050565b82600010801561174f5750613fff8311155b61175857600080fd5b81801561176c575082846060015161ffff16145b1561177657611947565b6080840151600090815b6001600160701b03198216156119015760f082901c613fff1686811480156117a55750855b156117dd57506080870180516001600160f01b0319861660109093029290921c919091176001600160701b0319169052506119479050565b86811480156117ea575085155b15611846576001600160f01b03198516199290921691600360fe1b8316611824576010836dffffffffffffffffffffffffffff1916901b92505b506001600160701b031991821660109091021c91909117166080850152611947565b86811180156118525750855b156118ac576080888101516001600160f01b031960f08a901b88178116601086021c9690961795911b161561188657600080fd5b506001600160701b03199182166001919091016010021c91909117166080850152611947565b86811180156118b9575085155b156118c75750505050611947565b506001600160f01b0319821660108281029190911c93909317929190911b6fffffffffffffffffffffffffffffffff191690600101611780565b8461190e57505050611947565b6009811061191b57600080fd5b6001600160f01b031960f087901b85171660109091021c919091176001600160701b0319166080860152505b50505050565b6000611957611242565b6001600160a01b03891660009081526020828152604080832061ffff8c1684529091529020909150846119bf5766ffffffffffffff84111561199857600080fd5b805466ffffffffffffff60701b1916600160701b66ffffffffffffff8616021781556119d9565b8054600160501b900463ffffffff1685146119d957600080fd5b6119e285612538565b815463ffffffff91909116600160501b0263ffffffff60501b19909116178155611a13611a0e8761254b565b61255a565b815469ffffffffffffffffffff19166001600160501b039190911617808255611a5990611a549085908c908c90600160a81b9004600a90810b900b8c612570565b612593565b8154600a9190910b6001600160581b0316600160a81b026001600160a81b039091161790555050505050505050565b60006305f5e10083604001511215611aaf576112846001611aa985856125c5565b90611598565b61094f83611abe846001611598565b6125c5565b6000806000611ad18661254b565b905080611ae5576000809250925050611b76565b6000611af48861ffff16610c6b565b9050600381606001516005811115611b0857fe5b1415611b4f5734821015611b2857611b2389833403876125fd565b611b47565b348214611b475760405162461bcd60e51b81526004016101939061522b565b869350611b64565b611b616116ff82600001518b856126ca565b93505b611b71898986848a612852565b925050505b9550959350505050565b6000806109526021611df0565b80516060906000908414611ba057600080fd5b6000846001600160401b0381118015611bb857600080fd5b50604051908082528060200260200182016040528015611bf257816020015b611bdf614822565b815260200190600190039081611bd75790505b5090506000805b86811015611c81576000838281518110611c0f57fe5b602090810291909101015161ffff8b168152600160408201528751909150879083908110611c3957fe5b6020026020010151816060018181525050888883818110611c5657fe5b90506020020135816020018181525050600081606001511215611c7857600192505b50600101611bf9565b509097909650945050505050565b600080611cc0611cb0611ca58560200151610d46565b60e086015190611e09565b61012085015160400151906115ae565b9150611cdc8360e00151608001518460c0015160800151612899565b9050915091565b6000806000611cf9886020015188886001611405565b91509150600080611d3e8a6020015160e0015160600151611d388c60c0015161094960648f6020015160c001516040015161128b90919063ffffffff16565b906114cb565b9050611d4f6064610949858461128b565b90506000611d5d84866114cb565b9050611d698183611598565b925050506000611d86828b6080015161150290919063ffffffff16565b9050611d93818789611535565b90506000611da38b8587856128af565b90925090506000611db4838561157f565b60808d0151909150611dc690826114cb565b60808d015260a08c0151611dda9083611598565b60a08d0152509094505050505095945050505050565b6000620f4240826026811115611e0257fe5b0192915050565b6000806113fd846020015161094986600001518661128b90919063ffffffff16565b600080611e3661299f565b6001600160a01b03861660009081526020918252604080822087835283528082208683529092522054600f90810b900b9150509392505050565b6000806000611e84866020015186866129ac565b915091506000611e9387612a34565b905081611eb3578651611eac9061ffff16878388612a48565b9350611f4f565b6000611ebe86612ae7565b90506000611ed5611ece86612b05565b8390611fc2565b90506000611eed8a6000015161ffff1683868b612a48565b90506000808760011415611f0b5750506040808b0151015188611f3a565b611f21611f1a60018a03612b05565b8690611fc2565b9050611f378c6000015161ffff1682888d612a48565b91505b611f47818584868f612ba9565b985050505050505b5050509392505050565b600080611f67858585612c0d565b9050611f7c611f768585611fa0565b82611fd4565b91506000611f8986612c52565b905082811215611f97578092505b50509392505050565b600082821115611faf57600080fd5b50900390565b6000610c7e826038612c6d565b60008282018381101561094f57600080fd5b600080611ff7611ff26301da9c00611fec8688612511565b90612c80565b612c9f565b905061200981621dcd6560491b612cbd565b905061201c61201782612d10565b612d32565b905061202e81621dcd6560491b612d87565b9050600061203b82612dbd565b60070b95945050505050565b600080612055858585612dc6565b9050801561206f5761206a611f768585611fa0565b611356565b633b9aca0095945050505050565b6000610c7e826040612c6d565b6000806109526007611df0565b61209f6148b6565b60006120a9612e16565b61ffff93841660009081526020918252604090819020805464ffffffffff81168652600160281b81046001600160581b03908116948701949094526001820154841692860192909252600160d81b820463ffffffff166060860152600160801b9091049091166080840152600201546001600160501b0380821660a0850152600160501b8204811660c0850152600160a01b82041660e0840152600160f01b900460ff1661012c02909216610100820152919050565b60008061216b83612e23565b6001600160a01b031663ef81f2166040518163ffffffff1660e01b81526004016040805180830381600087803b1580156121a457600080fd5b505af11580156121b8573d6000803e3d6000fd5b505050506040513d601f19601f820116820180604052508101906113fd9190614fce565b6121e46148b6565b60008060006121f4888689612e53565b60c08b019290925260e08a0192909252602089015191935091506122189083611fc2565b60208801526080870151600090156122465760808801516122439061223d8982611fa0565b90612f5e565b90505b61226661225b670de0b6b3a764000083611fc2565b60a08a015190612f7b565b60a08901525060808701869052600061227d612f98565b61ffff8a1660009081526020919091526040902054885163ffffffff600160a01b909204821692506122c8916122b79085908590611fc216565b8a606001518b61010001518a612fa5565b60608901525050928552509294909350915050565b60006122e7612e16565b60008561ffff168152602001908152602001600020905061230b8260000151613020565b815464ffffffffff191664ffffffffff9190911617815560a08201516123309061255a565b60028201805469ffffffffffffffffffff19166001600160501b039290921691909117905560c08201516123639061255a565b81600201600a6101000a8154816001600160501b0302191690836001600160501b031602179055506123988260e0015161255a565b8160020160146101000a8154816001600160501b0302191690836001600160501b031602179055506123cd8260200151613034565b81546001600160581b0391909116600160281b026fffffffffffffffffffffff000000000019909116178155604082015161240790613034565b6001820180546affffffffffffffffffffff19166001600160581b0392909216919091179055608082015161243b90613034565b81546001600160581b0391909116600160801b026affffffffffffffffffffff60801b19909116178155606082015161247390612538565b815463ffffffff91909116600160d81b0263ffffffff60d81b1990911617815582156124bf5760006124a48461151b565b90506124b0858261304a565b6124bd610fee8683613081565b505b8361ffff167fef25641e225e493886510ca1ad6584fa7b442b9fea820a29d1de3ce27d270fd28360a001518460c001518560e0015160405161250393929190615356565b60405180910390a250505050565b60008261252057506000610952565b8282028284828161252d57fe5b041461094f57600080fd5b600063ffffffff82111561153157600080fd5b60008082121561153157600080fd5b60006001600160501b0382111561153157600080fd5b600061257c868361310b565b9050610e5786868661258e8786613144565b6131cb565b60006a7fffffffffffffffffffff1982128015906125bc57506a7fffffffffffffffffffff8213155b61153157600080fd5b60006305f5e100836040015114156125de575080610952565b61094f6305f5e10061094985604001518561128b90919063ffffffff16565b801561268f577382af49447d8a07e3bd95bd0d56f35241523fbab16001600160a01b031663d0e30db0836040518263ffffffff1660e01b81526004016000604051808303818588803b15801561265257600080fd5b505af1158015612666573d6000803e3d6000fd5b505050505061268a7382af49447d8a07e3bd95bd0d56f35241523fbab184846131ff565b6126c5565b6040516001600160a01b0384169083156108fc029084906000818181858888f19350505050158015611947573d6000803e3d6000fd5b505050565b600080846001600160a01b03166370a08231306040518263ffffffff1660e01b815260040180826001600160a01b0316815260200191505060206040518083038186803b15801561271a57600080fd5b505afa15801561272e573d6000803e3d6000fd5b505050506040513d602081101561274457600080fd5b5051604080516323b872dd60e01b81526001600160a01b038781166004830152306024830152604482018790529151929350908716916323b872dd9160648082019260009290919082900301818387803b1580156127a157600080fd5b505af11580156127b5573d6000803e3d6000fd5b505050506127c1613272565b6000856001600160a01b03166370a08231306040518263ffffffff1660e01b815260040180826001600160a01b0316815260200191505060206040518083038186803b15801561281057600080fd5b505afa158015612824573d6000803e3d6000fd5b505050506040513d602081101561283a57600080fd5b505190506128488183611fa0565b9695505050505050565b60008061285f84866132e3565b905061286b83826115ae565b9150612878878784613081565b612883868383613313565b835161288f9086613406565b5095945050505050565b60008183136128a8578161094f565b5090919050565b600080806128bd848761157f565b905060006128cb858761157f565b6020890151606081015161012090910151604001519192506000916128ef9161091d565b905080821315612915576129038188611502565b9550905080612912868961157f565b92505b600061292b8a602001518b60c00151868a613460565b60208c0151610120015160400151919850915061295b9061294c90856115ae565b60208c015160600151906134ed565b60208b015160600152600081121561297257600080fd5b60208a0151604001516129859082611598565b60208b015160400152869550935050505094509492505050565b600080610952600c611df0565b600080600085116129bc57600080fd5b60078511156129ca57600080fd5b60006129d584612ae7565b905060015b868111612a265760006129ef61145c83612b05565b905086811415612a075750925060009150612a2c9050565b86811115612a1d5750925060019150612a2c9050565b506001016129da565b50600080fd5b935093915050565b6060015161012c60089190911c60ff160290565b600080612a53613509565b905060006276a700612a6485612ae7565b6000898152602085815260408083208b84528252808320949093018083529390522080549192509063ffffffff600160a01b8204811691600160c01b8104821691600160e01b9091041681612acb5760405162461bcd60e51b8152600401610193906151fb565b612ad88184848c8c612fa5565b9b9a5050505050505050505050565b60006276a700821015612af957600080fd5b506276a7008106900390565b60008160011415612b1a57506276a700610c81565b8160021415612b2d575062ed4e00610c81565b8160031415612b4157506301da9c00610c81565b8160041415612b5557506303b53800610c81565b8160051415612b6957506309450c00610c81565b8160061415612b7d575063128a1800610c81565b8160071415612b9157506325143000610c81565b60405162461bcd60e51b815260040161019390615250565b6000818610612bb757600080fd5b848210612bc357600080fd5b838310612bef57612be884612be2888803611fec8388038b8803612511565b90611fc2565b9050610e57565b612be8612c06878703611fec8688038a8703612511565b8590611fa0565b6000612c1a848484611e70565b9050612c2f612c2885613516565b8290611fc2565b90506000612c3c85613523565b905080821015612c4a578091505b509392505050565b606001516207a12060109190911c60ff1602633b9aca000390565b60609091015160ff911c16622625a00290565b6000808211612c8e57600080fd5b818381612c9757fe5b049392505050565b6000677fffffffffffffff821115612cb657600080fd5b5060401b90565b600081600f0b60001415612cd057600080fd5b600082600f0b604085600f0b901b81612ce557fe5b05905060016001607f1b03198112801590612d07575060016001607f1b038113155b61094f57600080fd5b6000600f82900b60016001607f1b03191415612d2b57600080fd5b5060000390565b6000600160461b82600f0b12612d4757600080fd5b683fffffffffffffffff1982600f0b1215612d6457506000610c81565b610c7e608083600f0b700171547652b82fe1777d0ffda0d23a7d1202901d613530565b6000600f83810b9083900b0260401d60016001607f1b03198112801590612d07575060016001607f1b0381131561094f57600080fd5b600f0b60401d90565b6000612dd3848484611e70565b90506000612de085613fe0565b9050808211612df357600091505061135a565b80820391506000612e0386613fed565b905082811015611f975795945050505050565b600080610952601d611df0565b600080612e2e613ffa565b61ffff939093166000908152602093909352505060409020546001600160a01b031690565b600080600080600080612e668988614007565b89519095509193509150600090612e8d90612e82908b90611fa0565b633b9aca0090612511565b9050612ec7612ebc6301da9c00612ea48585612511565b81612eab57fe5b670de0b6b3a7640000919004611fc2565b60e08a015190612f7b565b9650612ee9612ede6301da9c00612ea48785612511565b60c08a015190612f7b565b955081831415612f00575060009350612f55915050565b6000612f22612f176301da9c00612ea48786612511565b60e08b015190612f7b565b90506000612f308983611fa0565b9050612f4d88611fec838d6040015161251190919063ffffffff16565b965050505050505b93509350935093565b600061094f612f7584670de0b6b3a7640000612511565b83612c80565b600061094f612f8a8484612511565b670de0b6b3a7640000612c80565b6000806109526025611df0565b6000808311612fb357600080fd5b81861115612fc2575083610e57565b6000612fce8388611fa0565b905083811115612fe15785915050610e57565b6000612fed82866140a2565b90506000612fff633b9aca0083611fa0565b90506106fa633b9aca00611fec6130168a85612511565b612be28c87612511565b600064ffffffffff82111561153157600080fd5b60006001600160581b0382111561153157600080fd5b600081121561305857600080fd5b6000613066610fee846140b5565b90506130728183611598565b90506126c5610fee848361410e565b600061308b611b80565b61ffff8416600090815260209190915260409081902054905163ad1c095d60e01b81526001600160a01b039091169150819063ad1c095d906130d3908790869060040161519b565b600060405180830381600087803b1580156130ed57600080fd5b505af1158015613101573d6000803e3d6000fd5b5050505050505050565b60008082121561313e576131396001611d38856020015161094987600001518761128b90919063ffffffff16565b61094f565b50919050565b600081831480613161575060008312158015613161575060008212155b1561316e57506000610952565b6000831315801561317f5750816000125b1561318b575081610952565b6000821315801561319c5750826000125b156131aa5761128482610d46565b600083131580156131bc575060008213155b1561007b5761128483836114cb565b801561194757835160208501516000916131ea9161094990859061128b565b90506131f884848484614182565b5050505050565b826001600160a01b031663a9059cbb83836040518363ffffffff1660e01b815260040180836001600160a01b0316815260200182815260200192505050600060405180830381600087803b15801561325657600080fd5b505af115801561326a573d6000803e3d6000fd5b505050506126c55b600061327c614902565b3d8015613290576020811461329957600080fd5b600192506132a4565b60206000833e815192505b50816132df576040805162461bcd60e51b8152602060048201526005602482015264045524332360dc1b604482015290519081900360640190fd5b5050565b60006305f5e100836040015114156132fc575080610952565b604083015161094f90610949846305f5e10061128b565b600061331d612e16565b61ffff8516600090815260209190915260409020805490915064ffffffffff16421461334857600080fd5b805460009061336790600160281b90046001600160581b031685611598565b825490915060009061338990600160801b90046001600160581b031685611598565b905061339c6133978261254b565b613034565b83546001600160581b0391909116600160801b026affffffffffffffffffffff60801b199091161783556133d26133978361254b565b83546001600160581b0391909116600160281b026fffffffffffffffffffffff000000000019909116179092555050505050565b60006134106142bf565b6001600160a01b03841660009081526020829052604090205490915061343e6134398285611598565b61254b565b6001600160a01b03909416600090815260209290925250604090209190915550565b60008060006134938661094961347e8a60c001518b60e001516142cc565b60c08b015151610949906113508b606461128b565b905060006134af828961010001516115ae90919063ffffffff16565b905060006134c08960400151610d46565b9050808213156134de576134d882610949888461128b565b95508091505b50939793965092945050505050565b60006134f983836114cb565b9050600081121561095257600080fd5b600080610952600a611df0565b6000610c7e826028612c6d565b6000610c7e826030612c6d565b6000600160461b82600f0b1261354557600080fd5b683fffffffffffffffff1982600f0b121561356257506000610c81565b6001607f1b60006780000000000000008416600f0b13156135945770016a09e667f3bcc908b2fb1366ea957d3e0260801c5b60008367400000000000000016600f0b13156135c1577001306fe0a31b7152de8d5a46305c85edec0260801c5b60008367200000000000000016600f0b13156135ee577001172b83c7d517adcdf7c8c50eb14a791f0260801c5b60008367100000000000000016600f0b131561361b5770010b5586cf9890f6298b92b71842a983630260801c5b60008367080000000000000016600f0b1315613648577001059b0d31585743ae7c548eb68ca417fd0260801c5b60008367040000000000000016600f0b131561367557700102c9a3e778060ee6f7caca4f7a29bde80260801c5b60008367020000000000000016600f0b13156136a25770010163da9fb33356d84a66ae336dcdfa3f0260801c5b600083600160381b16600f0b13156136cb57700100b1afa5abcbed6129ab13ec11dc95430260801c5b600083668000000000000016600f0b13156136f75770010058c86da1c09ea1ff19d294cf2f679b0260801c5b600083664000000000000016600f0b1315613723577001002c605e2e8cec506d21bfc89a23a00f0260801c5b600083662000000000000016600f0b131561374f57700100162f3904051fa128bca9c55c31e5df0260801c5b600083661000000000000016600f0b131561377b577001000b175effdc76ba38e31671ca9397250260801c5b600083660800000000000016600f0b13156137a757700100058ba01fb9f96d6cacd4b180917c3d0260801c5b600083660400000000000016600f0b13156137d35770010002c5cc37da9491d0985c348c68e7b30260801c5b600083660200000000000016600f0b13156137ff577001000162e525ee054754457d59952920260260801c5b600083600160301b16600f0b13156138285770010000b17255775c040618bf4a4ade83fc0260801c5b6000836580000000000016600f0b1315613853577001000058b91b5bc9ae2eed81e9b7d4cfab0260801c5b6000836540000000000016600f0b131561387e57700100002c5c89d5ec6ca4d7c8acc017b7c90260801c5b6000836520000000000016600f0b13156138a95770010000162e43f4f831060e02d839a9d16d0260801c5b6000836510000000000016600f0b13156138d457700100000b1721bcfc99d9f890ea069117630260801c5b6000836508000000000016600f0b13156138ff5770010000058b90cf1e6d97f9ca14dbcc16280260801c5b6000836504000000000016600f0b131561392a577001000002c5c863b73f016468f6bac5ca2b0260801c5b6000836502000000000016600f0b131561395557700100000162e430e5a18f6119e3c02282a50260801c5b600083600160281b16600f0b131561397e577001000000b1721835514b86e6d96efd1bfe0260801c5b60008364800000000016600f0b13156139a857700100000058b90c0b48c6be5df846c5b2ef0260801c5b60008364400000000016600f0b13156139d25770010000002c5c8601cc6b9e94213c72737a0260801c5b60008364200000000016600f0b13156139fc577001000000162e42fff037df38aa2b219f060260801c5b60008364100000000016600f0b1315613a265770010000000b17217fba9c739aa5819f44f90260801c5b60008364080000000016600f0b1315613a50577001000000058b90bfcdee5acd3c1cedc8230260801c5b60008364040000000016600f0b1315613a7a57700100000002c5c85fe31f35a6a30da1be500260801c5b60008364020000000016600f0b1315613aa45770010000000162e42ff0999ce3541b9fffcf0260801c5b60008364010000000016600f0b1315613ace57700100000000b17217f80f4ef5aadda455540260801c5b600083638000000016600f0b1315613af75770010000000058b90bfbf8479bd5a81b51ad0260801c5b600083634000000016600f0b1315613b20577001000000002c5c85fdf84bd62ae30a74cc0260801c5b600083632000000016600f0b1315613b4957700100000000162e42fefb2fed257559bdaa0260801c5b600083631000000016600f0b1315613b72577001000000000b17217f7d5a7716bba4a9ae0260801c5b600083630800000016600f0b1315613b9b57700100000000058b90bfbe9ddbac5e109cce0260801c5b600083630400000016600f0b1315613bc45770010000000002c5c85fdf4b15de6f17eb0d0260801c5b600083630200000016600f0b1315613bed577001000000000162e42fefa494f1478fde050260801c5b600083630100000016600f0b1315613c165770010000000000b17217f7d20cf927c8e94c0260801c5b6000836280000016600f0b1315613c3e577001000000000058b90bfbe8f71cb4e4b33d0260801c5b6000836240000016600f0b1315613c6657700100000000002c5c85fdf477b662b269450260801c5b6000836220000016600f0b1315613c8e5770010000000000162e42fefa3ae53369388c0260801c5b6000836210000016600f0b1315613cb657700100000000000b17217f7d1d351a389d400260801c5b6000836208000016600f0b1315613cde5770010000000000058b90bfbe8e8b2d3d4ede0260801c5b6000836204000016600f0b1315613d06577001000000000002c5c85fdf4741bea6e77e0260801c5b6000836202000016600f0b1315613d2e57700100000000000162e42fefa39fe95583c20260801c5b6000836201000016600f0b1315613d56577001000000000000b17217f7d1cfb72b45e10260801c5b60008361800016600f0b1315613d7d57700100000000000058b90bfbe8e7cc35c3f00260801c5b60008361400016600f0b1315613da45770010000000000002c5c85fdf473e242ea380260801c5b60008361200016600f0b1315613dcb577001000000000000162e42fefa39f02b772c0260801c5b60008361100016600f0b1315613df25770010000000000000b17217f7d1cf7d83c1a0260801c5b60008361080016600f0b1315613e19577001000000000000058b90bfbe8e7bdcbe2e0260801c5b60008361040016600f0b1315613e4057700100000000000002c5c85fdf473dea871f0260801c5b60008361020016600f0b1315613e675770010000000000000162e42fefa39ef44d910260801c5b60008361010016600f0b1315613e8e57700100000000000000b17217f7d1cf79e9490260801c5b600083608016600f0b1315613eb45770010000000000000058b90bfbe8e7bce5440260801c5b600083604016600f0b1315613eda577001000000000000002c5c85fdf473de6eca0260801c5b600083602016600f0b1315613f0057700100000000000000162e42fefa39ef366f0260801c5b600083601016600f0b1315613f26577001000000000000000b17217f7d1cf79afa0260801c5b600083600816600f0b1315613f4c57700100000000000000058b90bfbe8e7bcd6d0260801c5b600083600416600f0b1315613f725770010000000000000002c5c85fdf473de6b20260801c5b600083600216600f0b1315613f98577001000000000000000162e42fefa39ef3580260801c5b600083600116600f0b1315613fbe5770010000000000000000b17217f7d1cf79ab0260801c5b600f83810b60401d603f03900b1c60016001607f1b03811115610c7e57600080fd5b6000610c7e826020612c6d565b6000610c7e826048612c6d565b600080610952601f611df0565b600080600080600085602001511115614054576140516140388660c00151876020015161251190919063ffffffff16565b60e0870151604088015161404b91612511565b906140a2565b90505b600061405f876142f1565b905061406b8183614324565b945081156140825761407f818660016143d7565b93505b60208601511561409957614096858361444f565b92505b50509250925092565b600061094f612f7584633b9aca00612511565b6000806140c0611242565b6001600160a01b03851660009081526020828152604080832061ffff8816845290915281208054600160a81b9004600a90810b900b945091925083121561410657600080fd5b505092915050565b600081121561411c57600080fd5b6000614126611242565b6001600160a01b03851660009081526020828152604080832061ffff88168452909152902090915061415783612593565b8154600a9190910b6001600160581b0316600160a81b026001600160a81b0390911617905550505050565b600061418c612e16565b61ffff8516600090815260209190915260409020805490915064ffffffffff1642146141b757600080fd5b8054600160f81b900460ff166141cc57600080fd5b60018101546000906141e7906001600160581b031685611598565b825490915060009061420990600160281b90046001600160581b031685611598565b90508160091912801561421c5750600082125b1561422657600091505b806009191280156142375750600081125b15614240575060005b61424c6133978361254b565b6001840180546affffffffffffffffffffff19166001600160581b039290921691909117905561427e6133978261254b565b83546001600160581b0391909116600160281b026fffffffffffffffffffffff0000000000199091161783556142b687878688614468565b50505050505050565b6000806109526026611df0565b600061094f82602001516109498460000151866020015161128b90919063ffffffff16565b6142f9614920565b600061430361457c565b61ffff841660009081526020919091526040812054915061135a9082614589565b60008083608001511161433657600080fd5b633b9aca0082111561434757600080fd5b8251821161436657825160408401516112849190611fec908590612511565b8260200151821161439e5760408301518351602085015160608601516112849392612be29281900391611fec91880390859003612511565b61094f8360600151612be28560200151633b9aca0003611fec87606001518860800151038860200151880361251190919063ffffffff16565b6000806143f66064611fec8760e001518761251190919063ffffffff16565b90508460a0015181101561440b575060a08401515b8460c0015181111561441e575060c08401515b82156144355761442e8482611fc2565b9150612c4a565b83811161444457808403611356565b506000949350505050565b600061094f61445e8484612511565b633b9aca00612c80565b6000614472611b80565b61ffff8516600090815260209190915260408120546001600160a01b0316915061449a6146a8565b61ffff8616600090815260209190915260409081902054905163ad1c095d60e01b81526001600160a01b039091169150819063ad1c095d906144e2908990879060040161519b565b600060405180830381600087803b1580156144fc57600080fd5b505af1158015614510573d6000803e3d6000fd5b505060405163ad1c095d60e01b81526001600160a01b038516925063ad1c095d9150614542908990889060040161519b565b600060405180830381600087803b15801561455c57600080fd5b505af1158015614570573d6000803e3d6000fd5b50505050505050505050565b600080610952601b611df0565b614591614920565b6064633b9aca008360ff8616602081106145a757fe5b1a02816145b057fe5b0481526064633b9aca008360ff8616600101602081106145cc57fe5b1a02816145d557fe5b048160200181815250506145fa8260028560ff1601602081106145f457fe5b1a6146b5565b60808201819052610100908360ff86166003016020811061461757fe5b1a028161462057fe5b0460408201526080810151610100908360ff86166004016020811061464157fe5b1a028161464a57fe5b0460608201526207a1208260ff85166005016020811061466657fe5b1a0260a0820152622625a08260ff85166006016020811061468357fe5b1a0260c08201528160ff84166007016020811061469c57fe5b1a60e082015292915050565b6000806109526022611df0565b60008160ff166096106146d05760ff8216622625a002610c7e565b5060951960ff919091160162e4e1c00263165a0bc00190565b6040518061010001604052806146fd614740565b815260200161470a614775565b81526020016147176147fa565b815260200160008152602001600081526020016000815260200160008152602001606081525090565b6040805160c081018252600080825260208201819052918101829052606081018290526080810182905260a081019190915290565b60405180610160016040528060006001600160a01b031681526020016000815260200160008152602001600081526020016000815260200160006001600160d01b03191681526020016147c6614965565b81526020016147d3614965565b81526020016147e0614895565b81526020016147ed614994565b8152600060209091015290565b6040518060800160405280606081526020016060815260200160008152602001600081525090565b6040518060c00160405280600061ffff168152602001600081526020016000815260200160008152602001600081526020016000600381111561486157fe5b905290565b6040805160a0810182526000808252602082018190529181018290529060608201908152602001600081525090565b60405180606001604052806000815260200160008152602001600081525090565b6040518061012001604052806000815260200160008152602001600081526020016000815260200160008152602001600081526020016000815260200160008152602001600081525090565b60405180602001604052806001906020820280368337509192915050565b60405180610100016040528060008152602001600081526020016000815260200160008152602001600081526020016000815260200160008152602001600081525090565b6040518060a0016040528060008152602001600081526020016000815260200160008152602001600081525090565b60408051608081018252600080825260208201529081016147ed614895565b8051610c818161538f565b600082601f8301126149ce578081fd5b815160206001600160401b03808311156149e457fe5b6149f1828385020161536c565b8381528281019086840160c0808702890186018a1015614a0f578788fd5b875b87811015614a995781838c031215614a27578889fd5b604080518381018181108982111715614a3c57fe5b82528451614a49816153a7565b815284890151898201528185015191810191909152606080850151908201526080808501519082015260a090614a80828601614b48565b9181019190915285529386019391810191600101614a11565b50919998505050505050505050565b60008083601f840112614ab9578182fd5b5081356001600160401b03811115614acf578182fd5b6020830191508360208083028501011115614ae957600080fd5b9250929050565b80518015158114610c8157600080fd5b80516001600160701b031981168114610c8157600080fd5b80516001600160f81b031981168114610c8157600080fd5b80516001600160d01b031981168114610c8157600080fd5b805160048110610c8157600080fd5b600060c08284031215614b68578081fd5b60405160c081018181106001600160401b0382111715614b8457fe5b8060405250809150825164ffffffffff81168114614ba157600080fd5b8152614baf60208401614b18565b6020820152614bc060408401614d35565b6040820152614bd160608401614d2a565b6060820152614be260808401614b00565b6080820152614bf360a08401614af0565b60a08201525092915050565b600060c08284031215614c10578081fd5b604051608081018181106001600160401b0382111715614c2c57fe5b80604052508091508251614c3f816153a7565b815260208381015190820152614c588460408501614cd6565b604082015260a083015160608201525092915050565b600060a08284031215614c7f578081fd5b60405160a081018181106001600160401b0382111715614c9b57fe5b806040525080915082518152602083015160208201526040830151604082015260608301516060820152608083015160808201525092915050565b600060608284031215614ce7578081fd5b604051606081018181106001600160401b0382111715614d0357fe5b80604052508091508251815260208301516020820152604083015160408201525092915050565b8051610c81816153a7565b805160ff81168114610c8157600080fd5b60008060008060008060808789031215614d5e578182fd5b8635614d698161538f565b95506020870135614d79816153a7565b945060408701356001600160401b0380821115614d94578384fd5b614da08a838b01614aa8565b90965094506060890135915080821115614db8578384fd5b50614dc589828a01614aa8565b979a9699509497509295939492505050565b600080600080600080600060a0888a031215614df1578485fd5b8735614dfc8161538f565b96506020880135614e0c816153a7565b95506040880135614e1c816153a7565b945060608801356001600160401b0380821115614e37578283fd5b614e438b838c01614aa8565b909650945060808a0135915080821115614e5b578283fd5b50614e688a828b01614aa8565b989b979a50959850939692959293505050565b6000806101808385031215614e8e578182fd5b614e988484614b57565b9150614ea78460c08501614b57565b90509250929050565b6000806000838503610420811215614ec6578182fd5b614ed08686614b57565b935061034060bf1982011215614ee4578182fd5b50610160614ef18161536c565b614efd60c087016149b3565b815260e08601516020820152610100808701516040830152610120808801516060840152610140808901516080850152614f38858a01614b30565b60a0850152614f4b8a6101808b01614c6e565b60c0850152614f5e8a6102208b01614c6e565b60e0850152614f718a6102c08b01614cd6565b83850152614f838a6103208b01614bff565b82850152614f946103e08a01614af0565b90840152505061040086015190935090506001600160401b03811115614fb8578182fd5b614fc4868287016149be565b9150509250925092565b60008060408385031215614fe0578182fd5b505080516020909101519092909150565b6000815180845260208085019450808401835b8381101561502057815187529582019590820190600101615004565b509495945050505050565b805164ffffffffff1682526020808201516001600160f81b0319169083015260408082015160ff169083015260608082015161ffff16908301526080808201516001600160701b0319169083015260a0908101511515910152565b6001600160a01b0391909116815260200190565b6001600160a01b0392831681529116602082015260400190565b60006101e080830160018060a01b03808a1685526020818a1681870152604091506150e18287018a61502b565b6150ef61010087018961502b565b6101c086019390935285519182905261020085019280870192855b81811015615166578451805161ffff16875283810151848801528481015185880152606080820151908801526080808201519088015260a090810151906004821061515157fe5b87015260c0909501949382019360010161510a565b50939b9a5050505050505050505050565b6001600160a01b039384168152919092166020820152604081019190915260600190565b6001600160a01b03929092168252602082015260400190565b6001600160a01b0393909316835261ffff918216602084015216604082015260600190565b6000604082526151ec6040830185614ff1565b90508260208301529392505050565b60208082526016908201527513585c9ad95d081b9bdd081a5b9a5d1a585b1a5e995960521b604082015260600190565b6020808252600b908201526a4554482042616c616e636560a81b604082015260600190565b6020808252600d908201526c092dcecc2d8d2c840d2dcc8caf609b1b604082015260600190565b6020808252600e908201526d1499595b9d1c985b9d0818d85b1b60921b604082015260600190565b60208082526008908201526712185cc81919589d60c21b604082015260600190565b60208082526008908201526709ccace4086c2e6d60c31b604082015260600190565b61ffff8781168252861660208201526040810185905260a060608201819052810183905260006001600160fb1b0384111561531c578081fd5b60208402808660c0850137808301905060c0810182815260c08483030160808501526153488186614ff1565b9a9950505050505050505050565b9283526020830191909152604082015260600190565b6040518181016001600160401b038111828210171561538757fe5b604052919050565b6001600160a01b03811681146153a457600080fd5b50565b61ffff811681146153a457600080fdfea2646970667358221220202bd8d9c061036604768c208018cdd96cb43b4ecb46fcba48590ab450aef5f864736f6c63430007060033","bytecodeSha1":"63d877a4dff81e876cdb97e821f45b22adbc3aa5","compiler":{"evm_version":"istanbul","optimizer":{"enabled":true,"runs":200},"version":"0.7.6+commit.7338295f"},"contractName":"LiquidatefCashAction","deployedBytecode":"60806040526004361061007b5760003560e01c80638da5cb5b1161004e5780638da5cb5b14610101578063c4c96dae14610116578063e816469d14610139578063fa37e3951461014c5761007b565b80630fb281d91461008057806324a3d622146100b75780637fdebbf4146100d957806382463367146100ec575b600080fd5b34801561008c57600080fd5b506100a061009b366004614d46565b61016c565b6040516100ae9291906151d9565b60405180910390f35b3480156100c357600080fd5b506100cc6101d4565b6040516100ae9190615086565b6100a06100e7366004614d46565b6101e3565b3480156100f857600080fd5b506100cc61025e565b34801561010d57600080fd5b506100cc61026d565b34801561012257600080fd5b5061012b610284565b6040516100ae92919061509a565b6100a0610147366004614dd7565b6102b2565b34801561015857600080fd5b506100a0610167366004614dd7565b61032f565b606060006002600a54141561019c5760405162461bcd60e51b815260040161019390615277565b60405180910390fd5b6002600a554260006101b38a8a8a8a8a8a88610390565b60e081015160a0909101516001600a55909b909a5098505050505050505050565b6002546001600160a01b031681565b606060006002600a54141561020a5760405162461bcd60e51b815260040161019390615277565b6002600a558461021957600080fd5b42600061022b8a8a8a8a8a8a88610390565b905061023c8a338b8c8c8c87610462565b505060e081015160a0909101516001600a55909a909950975050505050505050565b6001546001600160a01b031681565b60005464010000000090046001600160a01b031681565b73__$841fddfe32830bb6dbc3a02d7f16c53722$__73__$f6541b0d362a0c7d99a2a29cd3d373d61b$__9091565b606060006002600a5414156102d95760405162461bcd60e51b815260040161019390615277565b6002600a55846102e857600080fd5b4260006102fb8b8b8b8b8b8b8b8961066d565b905061030c8b338c8c8c8c87610462565b505060e081015160a0909101516001600a55909b909a5098505050505050505050565b606060006002600a5414156103565760405162461bcd60e51b815260040161019390615277565b6002600a5542600061036e8b8b8b8b8b8b8b8961066d565b60e081015160a0909101516001600a55909c909b509950505050505050505050565b6103986146e9565b8483146103a457600080fd5b6103ac6146e9565b6103b889896000610707565b60408401526020830181905290825261010001516000906103dc908b908b90610863565b505050602083015161010001519091506103f6908261091d565b6060830152866001600160401b038111801561041157600080fd5b5060405190808252806020026020018201604052801561043b578160200160208202803683370190505b5060e08301526104558a61ffff8b168a8a8a8a888b610958565b5098975050505050505050565b60606000806104748861ffff16610c6b565b905060006104818a610c86565b60a086015190915060006104948b610d34565b9050836020015180156104a75750600082135b156104f25760208301516001600160f81b031916156104d85760405162461bcd60e51b81526004016101939061529f565b6104ed8c848d6104e786610d46565b85610d54565b61051e565b600082131561050f576105098c8c84846000610e00565b5061051e565b61051e8c848d6104e786610d46565b61052a8c8e8d85610e60565b61053b8d88600001518d8585610d54565b600061054c8e8e868e8e8e8e610f06565b80955081925050508c6001600160a01b03168e6001600160a01b03167f1f20e4ccba6c78861ee4c638fecd0b6a53b1232adb96ca3a0065b9bb12d6214d8e8e8c60a001518f8f8f60e001516040516105a9969594939291906152e3565b60405180910390a36105bb848e610fcb565b87516105c7908f610fcb565b8080156105e1575060208401516001600160f81b03191615155b1561064e5773__$841fddfe32830bb6dbc3a02d7f16c53722$__636ccc642f8e6040518263ffffffff1660e01b815260040161061d9190615086565b60006040518083038186803b15801561063557600080fd5b505af4158015610649573d6000803e3d6000fd5b505050505b8760e001518860a0015196509650505050505097509795505050505050565b6106756146e9565b84831461068157600080fd5b6106896146e9565b6106948a8a8a610707565b604084015260208301528152856001600160401b03811180156106b657600080fd5b506040519080825280602002602001820160405280156106e0578160200160208202803683370190505b5060e08201526106fa8a61ffff8a1689898989878a6110e8565b9998505050505050505050565b61070f614740565b610717614775565b61071f6147fa565b336001600160a01b038716141561073557600080fd5b61ffff851661074357600080fd5b8461ffff168461ffff16141561075857600080fd5b600080600073__$841fddfe32830bb6dbc3a02d7f16c53722$__63451d958f8a8a8a6040518463ffffffff1660e01b8152600401610798939291906151b4565b60006040518083038186803b1580156107b057600080fd5b505af41580156107c4573d6000803e3d6000fd5b505050506040513d6000823e601f3d908101601f191682016040526107ec9190810190614eb0565b919450925090506107fd838a610fcb565b60408051608081018252828152815160008082526020828101909452928201908361083e565b61082b614822565b8152602001906001900390816108235790505b5081526000602082015292516040909301929092525091989097509095509350505050565b6000806000806000610873611242565b6001600160a01b03891660009081526020828152604080832061ffff8c168452909152902080546001600160501b0381169650600160501b900463ffffffff16945090915083156108e05780546108d990600160701b900466ffffffffffffff1661124f565b92506108f5565b8054600160701b900466ffffffffffffff1692505b8054610910908890600160a81b9004600a90810b900b61125d565b9550505093509350935093565b600061094f6ec097ce7bc90715b34b9f100000000061094985600001518561128b90919063ffffffff16565b906112d9565b90505b92915050565b60208201516040015161096a57600080fd5b61098d826020015160400151836020015160200151846020015160c0015161130a565b608083015260005b85811015610c405780156109d6578686828181106109af57fe5b905060200201358787600184038181106109c557fe5b90506020020135116109d657600080fd5b60006109f68a858b8b8b878181106109ea57fe5b90506020020135611361565b90506000811215610a1357600084606001511215610a1357600080fd5b80610a1e5750610c38565b600080610a4686602001518b8b87818110610a3557fe5b905060200201358760008713611405565b9092509050610a6b610a60610a5b83856114cb565b6114e1565b608088015190611502565b8660e001518581518110610a7b57fe5b602002602001018181525050610acb8660e001518581518110610a9a57fe5b6020026020010151610aab856114e1565b610ac68b8b89818110610aba57fe5b9050602002013561151b565b611535565b8660e001518581518110610adb57fe5b6020026020010181815250506000610b13828860e001518781518110610afd57fe5b602002602001015161157f90919063ffffffff16565b90506000841215610bc6578660600151811315610b7e57610b5c8161094989606001518a60e001518981518110610b4657fe5b602002602001015161128b90919063ffffffff16565b8760e001518681518110610b6c57fe5b60209081029190910101525060608601515b610b9e8760e001518681518110610b9157fe5b6020026020010151610d46565b8760e001518681518110610bae57fe5b602002602001018181525050610bc381610d46565b90505b60a0870151610bd59082611598565b60a08801526060870151610be99082611598565b6060880152610c1c610c11610a5b610c0185876114cb565b8a60e001518981518110610afd57fe5b6080890151906114cb565b60808801819052600012610c335750505050610c40565b505050505b600101610995565b5060a082015160208301516101000151610c59916115ae565b60a09092019190915250505050505050565b610c73614866565b610c7e8260016115d0565b90505b919050565b610c8e614740565b6000610c9861166a565b6001600160a01b03841660009081526020918252604090819020815160c081018352905464ffffffffff811682526001600160f81b0319600160281b820460f81b169382019390935260ff600160301b840481169282019290925261ffff600160381b84041660608201526001600160701b0319600160481b840460701b166080820152600160d81b90920416151560a0820152915050919050565b610d3c614895565b610c7e8242611677565b6000610c7e6000198361128b565b600080600080610d65898887610863565b929650909450925090506000610d7b8588611598565b90506000811215610dbf5760008713610da65760405162461bcd60e51b8152600401610193906152c1565b602089018051600160f91b176001600160f81b03191690525b600081151580610dce57508415155b9050610de48a61ffff8b1683600160fe1b61173d565b610df38b8a848888888d61194d565b5050505050505050505050565b600083610e0f57506000610e57565b60008413610e1c57600080fd5b6000610e2b8661ffff16610c6b565b90506000610e4282610e3d878961091d565b611a88565b9050610e518888838888611ac3565b50925050505b95945050505050565b6000610e6a611b80565b61ffff8416600090815260209190915260408120546001600160a01b03169150821215610e95579293925b806001600160a01b03166323de66518686610eaf866114e1565b6040518463ffffffff1660e01b8152600401610ecd93929190615177565b600060405180830381600087803b158015610ee757600080fd5b505af1158015610efb573d6000803e3d6000fd5b505050505050505050565b6000610f10614740565b600080610f238888888860e00151611b8d565b865160405163ca25415360e01b815292945090925073__$f6541b0d362a0c7d99a2a29cd3d373d61b$__9163ca25415391610f68918f918f918f9089906004016150b4565b6101806040518083038186803b158015610f8157600080fd5b505af4158015610f95573d6000803e3d6000fd5b505050506040513d601f19601f82011682018060405250810190610fb99190614e7b565b95529a93995092975050505050505050565b6000610fd561166a565b6001600160a01b03831660008181526020838152604080832088518154938a01518a84015160608c015160808d015160a08e015164ffffffffff1990981664ffffffffff9095169490941765ff00000000001916600160281b60f89490941c939093029290921766ff0000000000001916600160301b60ff909216919091021768ffff000000000000001916600160381b61ffff90921691909102177affffffffffffffffffffffffffffffffffff0000000000000000001916600160481b60709290921c919091021760ff60d81b1916600160d81b93151593909302929092179091555192935090917f6bd4b121bca854a191536a2ca891155c42ee2fb23f307fb34e8bc65cfcb5412e9190a2505050565b6000826020015160400151126110fd57600080fd5b60008260200151606001511361111257600080fd5b61111f8260200151611c8f565b60c08401526080830181905260208301516101200151604001516111429161091d565b608083015260005b85811015610efb57801561118b5786868281811061116457fe5b9050602002013587876001840381811061117a57fe5b905060200201351161118b57600080fd5b600061119f8a858b8b8b878181106109ea57fe5b9050806111ac575061123a565b600081136111b957600080fd5b6111e6848989858181106111c957fe5b90506020020135856111e08a8a88818110610aba57fe5b85611ce3565b8460e0015183815181106111f657fe5b6020026020010181815250506000846080015113158061121c5750602084015160600151155b8061122d5750602084015160400151155b156112385750610efb565b505b60010161114a565b6000806109526006611df0565b600881901c60ff9091161b90565b600080821261126d575080610952565b82516020840151611284919061094990859061128b565b9050610952565b8181026000198314156112bb578115806112ad5750828282816112aa57fe5b05145b6112b657600080fd5b610952565b8215806112d05750818382816112cd57fe5b05145b61095257600080fd5b6000816000191480156112ef5750600160ff1b83145b156112f957600080fd5b81838161130257fe5b059392505050565b6000806000851361131f578260400151611325565b82606001515b90506000811361133457600080fd5b61135681610949606461135061134989610d46565b8890611e09565b9061128b565b9150505b9392505050565b82516060015160009061ffff1683141561138757611380858484611e2b565b90506113fd565b60408401515180515b600019810190156113f65760008282815181106113a957fe5b6020026020010151905085816000015161ffff161480156113ce575060408101516001145b80156113dd5750848160200151145b156113f0576060015192506113fd915050565b50611390565b5060009150505b949350505050565b60008060006114248686896101200151611e709092919063ffffffff16565b9050831561146f5761143c8761012001518787611f59565b925061146861144b8787611fa0565b61146361145c8a6101200151611fb5565b8490611fc2565b611fd4565b91506114c1565b61147f8761012001518787612047565b9250600061149188610120015161207d565b90506114bd6114a08888611fa0565b8284106114b6576114b18484611fa0565b611463565b6000611fd4565b9250505b5094509492505050565b8082038281131560008312151461095257600080fd5b6000808212156114fb576114f482610d46565b9050610c81565b5080610c81565b600061094f61151584633b9aca0061128b565b836112d9565b60006001600160ff1b0382111561153157600080fd5b5090565b600080611548606461094986602861128b565b905084848113156115565750835b818612156115615750805b60008413801561157057508381135b15611356575091949350505050565b600061094f61158e848461128b565b633b9aca006112d9565b8181018281121560008312151461095257600080fd5b815160009061094f90610949846ec097ce7bc90715b34b9f100000000061128b565b6115d8614866565b60006115e261208a565b6000858152602082815260408083208715158452825291829020825160a08101845281546001600160a01b038116825260ff600160a01b82048116151594830194909452600160b01b81048416600a0a9482019490945293945092916060830191600160a81b90910416600581111561165757fe5b8152600060209091015295945050505050565b6000806109526001611df0565b61167f614895565b600061168a84612097565b905082816000015110156116c9576000806116a48661215f565b90506116b2868483886121dc565b90935091506116c28683856122dd565b50506116d6565b805183146116d657600080fd5b60405180606001604052806117046116ff8460a001518560c0015161251190919063ffffffff16565b61151b565b81526020016117276116ff8460a001518560e0015161251190919063ffffffff16565b8152602001826060015181525091505092915050565b82600010801561174f5750613fff8311155b61175857600080fd5b81801561176c575082846060015161ffff16145b1561177657611947565b6080840151600090815b6001600160701b03198216156119015760f082901c613fff1686811480156117a55750855b156117dd57506080870180516001600160f01b0319861660109093029290921c919091176001600160701b0319169052506119479050565b86811480156117ea575085155b15611846576001600160f01b03198516199290921691600360fe1b8316611824576010836dffffffffffffffffffffffffffff1916901b92505b506001600160701b031991821660109091021c91909117166080850152611947565b86811180156118525750855b156118ac576080888101516001600160f01b031960f08a901b88178116601086021c9690961795911b161561188657600080fd5b506001600160701b03199182166001919091016010021c91909117166080850152611947565b86811180156118b9575085155b156118c75750505050611947565b506001600160f01b0319821660108281029190911c93909317929190911b6fffffffffffffffffffffffffffffffff191690600101611780565b8461190e57505050611947565b6009811061191b57600080fd5b6001600160f01b031960f087901b85171660109091021c919091176001600160701b0319166080860152505b50505050565b6000611957611242565b6001600160a01b03891660009081526020828152604080832061ffff8c1684529091529020909150846119bf5766ffffffffffffff84111561199857600080fd5b805466ffffffffffffff60701b1916600160701b66ffffffffffffff8616021781556119d9565b8054600160501b900463ffffffff1685146119d957600080fd5b6119e285612538565b815463ffffffff91909116600160501b0263ffffffff60501b19909116178155611a13611a0e8761254b565b61255a565b815469ffffffffffffffffffff19166001600160501b039190911617808255611a5990611a549085908c908c90600160a81b9004600a90810b900b8c612570565b612593565b8154600a9190910b6001600160581b0316600160a81b026001600160a81b039091161790555050505050505050565b60006305f5e10083604001511215611aaf576112846001611aa985856125c5565b90611598565b61094f83611abe846001611598565b6125c5565b6000806000611ad18661254b565b905080611ae5576000809250925050611b76565b6000611af48861ffff16610c6b565b9050600381606001516005811115611b0857fe5b1415611b4f5734821015611b2857611b2389833403876125fd565b611b47565b348214611b475760405162461bcd60e51b81526004016101939061522b565b869350611b64565b611b616116ff82600001518b856126ca565b93505b611b71898986848a612852565b925050505b9550959350505050565b6000806109526021611df0565b80516060906000908414611ba057600080fd5b6000846001600160401b0381118015611bb857600080fd5b50604051908082528060200260200182016040528015611bf257816020015b611bdf614822565b815260200190600190039081611bd75790505b5090506000805b86811015611c81576000838281518110611c0f57fe5b602090810291909101015161ffff8b168152600160408201528751909150879083908110611c3957fe5b6020026020010151816060018181525050888883818110611c5657fe5b90506020020135816020018181525050600081606001511215611c7857600192505b50600101611bf9565b509097909650945050505050565b600080611cc0611cb0611ca58560200151610d46565b60e086015190611e09565b61012085015160400151906115ae565b9150611cdc8360e00151608001518460c0015160800151612899565b9050915091565b6000806000611cf9886020015188886001611405565b91509150600080611d3e8a6020015160e0015160600151611d388c60c0015161094960648f6020015160c001516040015161128b90919063ffffffff16565b906114cb565b9050611d4f6064610949858461128b565b90506000611d5d84866114cb565b9050611d698183611598565b925050506000611d86828b6080015161150290919063ffffffff16565b9050611d93818789611535565b90506000611da38b8587856128af565b90925090506000611db4838561157f565b60808d0151909150611dc690826114cb565b60808d015260a08c0151611dda9083611598565b60a08d0152509094505050505095945050505050565b6000620f4240826026811115611e0257fe5b0192915050565b6000806113fd846020015161094986600001518661128b90919063ffffffff16565b600080611e3661299f565b6001600160a01b03861660009081526020918252604080822087835283528082208683529092522054600f90810b900b9150509392505050565b6000806000611e84866020015186866129ac565b915091506000611e9387612a34565b905081611eb3578651611eac9061ffff16878388612a48565b9350611f4f565b6000611ebe86612ae7565b90506000611ed5611ece86612b05565b8390611fc2565b90506000611eed8a6000015161ffff1683868b612a48565b90506000808760011415611f0b5750506040808b0151015188611f3a565b611f21611f1a60018a03612b05565b8690611fc2565b9050611f378c6000015161ffff1682888d612a48565b91505b611f47818584868f612ba9565b985050505050505b5050509392505050565b600080611f67858585612c0d565b9050611f7c611f768585611fa0565b82611fd4565b91506000611f8986612c52565b905082811215611f97578092505b50509392505050565b600082821115611faf57600080fd5b50900390565b6000610c7e826038612c6d565b60008282018381101561094f57600080fd5b600080611ff7611ff26301da9c00611fec8688612511565b90612c80565b612c9f565b905061200981621dcd6560491b612cbd565b905061201c61201782612d10565b612d32565b905061202e81621dcd6560491b612d87565b9050600061203b82612dbd565b60070b95945050505050565b600080612055858585612dc6565b9050801561206f5761206a611f768585611fa0565b611356565b633b9aca0095945050505050565b6000610c7e826040612c6d565b6000806109526007611df0565b61209f6148b6565b60006120a9612e16565b61ffff93841660009081526020918252604090819020805464ffffffffff81168652600160281b81046001600160581b03908116948701949094526001820154841692860192909252600160d81b820463ffffffff166060860152600160801b9091049091166080840152600201546001600160501b0380821660a0850152600160501b8204811660c0850152600160a01b82041660e0840152600160f01b900460ff1661012c02909216610100820152919050565b60008061216b83612e23565b6001600160a01b031663ef81f2166040518163ffffffff1660e01b81526004016040805180830381600087803b1580156121a457600080fd5b505af11580156121b8573d6000803e3d6000fd5b505050506040513d601f19601f820116820180604052508101906113fd9190614fce565b6121e46148b6565b60008060006121f4888689612e53565b60c08b019290925260e08a0192909252602089015191935091506122189083611fc2565b60208801526080870151600090156122465760808801516122439061223d8982611fa0565b90612f5e565b90505b61226661225b670de0b6b3a764000083611fc2565b60a08a015190612f7b565b60a08901525060808701869052600061227d612f98565b61ffff8a1660009081526020919091526040902054885163ffffffff600160a01b909204821692506122c8916122b79085908590611fc216565b8a606001518b61010001518a612fa5565b60608901525050928552509294909350915050565b60006122e7612e16565b60008561ffff168152602001908152602001600020905061230b8260000151613020565b815464ffffffffff191664ffffffffff9190911617815560a08201516123309061255a565b60028201805469ffffffffffffffffffff19166001600160501b039290921691909117905560c08201516123639061255a565b81600201600a6101000a8154816001600160501b0302191690836001600160501b031602179055506123988260e0015161255a565b8160020160146101000a8154816001600160501b0302191690836001600160501b031602179055506123cd8260200151613034565b81546001600160581b0391909116600160281b026fffffffffffffffffffffff000000000019909116178155604082015161240790613034565b6001820180546affffffffffffffffffffff19166001600160581b0392909216919091179055608082015161243b90613034565b81546001600160581b0391909116600160801b026affffffffffffffffffffff60801b19909116178155606082015161247390612538565b815463ffffffff91909116600160d81b0263ffffffff60d81b1990911617815582156124bf5760006124a48461151b565b90506124b0858261304a565b6124bd610fee8683613081565b505b8361ffff167fef25641e225e493886510ca1ad6584fa7b442b9fea820a29d1de3ce27d270fd28360a001518460c001518560e0015160405161250393929190615356565b60405180910390a250505050565b60008261252057506000610952565b8282028284828161252d57fe5b041461094f57600080fd5b600063ffffffff82111561153157600080fd5b60008082121561153157600080fd5b60006001600160501b0382111561153157600080fd5b600061257c868361310b565b9050610e5786868661258e8786613144565b6131cb565b60006a7fffffffffffffffffffff1982128015906125bc57506a7fffffffffffffffffffff8213155b61153157600080fd5b60006305f5e100836040015114156125de575080610952565b61094f6305f5e10061094985604001518561128b90919063ffffffff16565b801561268f577382af49447d8a07e3bd95bd0d56f35241523fbab16001600160a01b031663d0e30db0836040518263ffffffff1660e01b81526004016000604051808303818588803b15801561265257600080fd5b505af1158015612666573d6000803e3d6000fd5b505050505061268a7382af49447d8a07e3bd95bd0d56f35241523fbab184846131ff565b6126c5565b6040516001600160a01b0384169083156108fc029084906000818181858888f19350505050158015611947573d6000803e3d6000fd5b505050565b600080846001600160a01b03166370a08231306040518263ffffffff1660e01b815260040180826001600160a01b0316815260200191505060206040518083038186803b15801561271a57600080fd5b505afa15801561272e573d6000803e3d6000fd5b505050506040513d602081101561274457600080fd5b5051604080516323b872dd60e01b81526001600160a01b038781166004830152306024830152604482018790529151929350908716916323b872dd9160648082019260009290919082900301818387803b1580156127a157600080fd5b505af11580156127b5573d6000803e3d6000fd5b505050506127c1613272565b6000856001600160a01b03166370a08231306040518263ffffffff1660e01b815260040180826001600160a01b0316815260200191505060206040518083038186803b15801561281057600080fd5b505afa158015612824573d6000803e3d6000fd5b505050506040513d602081101561283a57600080fd5b505190506128488183611fa0565b9695505050505050565b60008061285f84866132e3565b905061286b83826115ae565b9150612878878784613081565b612883868383613313565b835161288f9086613406565b5095945050505050565b60008183136128a8578161094f565b5090919050565b600080806128bd848761157f565b905060006128cb858761157f565b6020890151606081015161012090910151604001519192506000916128ef9161091d565b905080821315612915576129038188611502565b9550905080612912868961157f565b92505b600061292b8a602001518b60c00151868a613460565b60208c0151610120015160400151919850915061295b9061294c90856115ae565b60208c015160600151906134ed565b60208b015160600152600081121561297257600080fd5b60208a0151604001516129859082611598565b60208b015160400152869550935050505094509492505050565b600080610952600c611df0565b600080600085116129bc57600080fd5b60078511156129ca57600080fd5b60006129d584612ae7565b905060015b868111612a265760006129ef61145c83612b05565b905086811415612a075750925060009150612a2c9050565b86811115612a1d5750925060019150612a2c9050565b506001016129da565b50600080fd5b935093915050565b6060015161012c60089190911c60ff160290565b600080612a53613509565b905060006276a700612a6485612ae7565b6000898152602085815260408083208b84528252808320949093018083529390522080549192509063ffffffff600160a01b8204811691600160c01b8104821691600160e01b9091041681612acb5760405162461bcd60e51b8152600401610193906151fb565b612ad88184848c8c612fa5565b9b9a5050505050505050505050565b60006276a700821015612af957600080fd5b506276a7008106900390565b60008160011415612b1a57506276a700610c81565b8160021415612b2d575062ed4e00610c81565b8160031415612b4157506301da9c00610c81565b8160041415612b5557506303b53800610c81565b8160051415612b6957506309450c00610c81565b8160061415612b7d575063128a1800610c81565b8160071415612b9157506325143000610c81565b60405162461bcd60e51b815260040161019390615250565b6000818610612bb757600080fd5b848210612bc357600080fd5b838310612bef57612be884612be2888803611fec8388038b8803612511565b90611fc2565b9050610e57565b612be8612c06878703611fec8688038a8703612511565b8590611fa0565b6000612c1a848484611e70565b9050612c2f612c2885613516565b8290611fc2565b90506000612c3c85613523565b905080821015612c4a578091505b509392505050565b606001516207a12060109190911c60ff1602633b9aca000390565b60609091015160ff911c16622625a00290565b6000808211612c8e57600080fd5b818381612c9757fe5b049392505050565b6000677fffffffffffffff821115612cb657600080fd5b5060401b90565b600081600f0b60001415612cd057600080fd5b600082600f0b604085600f0b901b81612ce557fe5b05905060016001607f1b03198112801590612d07575060016001607f1b038113155b61094f57600080fd5b6000600f82900b60016001607f1b03191415612d2b57600080fd5b5060000390565b6000600160461b82600f0b12612d4757600080fd5b683fffffffffffffffff1982600f0b1215612d6457506000610c81565b610c7e608083600f0b700171547652b82fe1777d0ffda0d23a7d1202901d613530565b6000600f83810b9083900b0260401d60016001607f1b03198112801590612d07575060016001607f1b0381131561094f57600080fd5b600f0b60401d90565b6000612dd3848484611e70565b90506000612de085613fe0565b9050808211612df357600091505061135a565b80820391506000612e0386613fed565b905082811015611f975795945050505050565b600080610952601d611df0565b600080612e2e613ffa565b61ffff939093166000908152602093909352505060409020546001600160a01b031690565b600080600080600080612e668988614007565b89519095509193509150600090612e8d90612e82908b90611fa0565b633b9aca0090612511565b9050612ec7612ebc6301da9c00612ea48585612511565b81612eab57fe5b670de0b6b3a7640000919004611fc2565b60e08a015190612f7b565b9650612ee9612ede6301da9c00612ea48785612511565b60c08a015190612f7b565b955081831415612f00575060009350612f55915050565b6000612f22612f176301da9c00612ea48786612511565b60e08b015190612f7b565b90506000612f308983611fa0565b9050612f4d88611fec838d6040015161251190919063ffffffff16565b965050505050505b93509350935093565b600061094f612f7584670de0b6b3a7640000612511565b83612c80565b600061094f612f8a8484612511565b670de0b6b3a7640000612c80565b6000806109526025611df0565b6000808311612fb357600080fd5b81861115612fc2575083610e57565b6000612fce8388611fa0565b905083811115612fe15785915050610e57565b6000612fed82866140a2565b90506000612fff633b9aca0083611fa0565b90506106fa633b9aca00611fec6130168a85612511565b612be28c87612511565b600064ffffffffff82111561153157600080fd5b60006001600160581b0382111561153157600080fd5b600081121561305857600080fd5b6000613066610fee846140b5565b90506130728183611598565b90506126c5610fee848361410e565b600061308b611b80565b61ffff8416600090815260209190915260409081902054905163ad1c095d60e01b81526001600160a01b039091169150819063ad1c095d906130d3908790869060040161519b565b600060405180830381600087803b1580156130ed57600080fd5b505af1158015613101573d6000803e3d6000fd5b5050505050505050565b60008082121561313e576131396001611d38856020015161094987600001518761128b90919063ffffffff16565b61094f565b50919050565b600081831480613161575060008312158015613161575060008212155b1561316e57506000610952565b6000831315801561317f5750816000125b1561318b575081610952565b6000821315801561319c5750826000125b156131aa5761128482610d46565b600083131580156131bc575060008213155b1561007b5761128483836114cb565b801561194757835160208501516000916131ea9161094990859061128b565b90506131f884848484614182565b5050505050565b826001600160a01b031663a9059cbb83836040518363ffffffff1660e01b815260040180836001600160a01b0316815260200182815260200192505050600060405180830381600087803b15801561325657600080fd5b505af115801561326a573d6000803e3d6000fd5b505050506126c55b600061327c614902565b3d8015613290576020811461329957600080fd5b600192506132a4565b60206000833e815192505b50816132df576040805162461bcd60e51b8152602060048201526005602482015264045524332360dc1b604482015290519081900360640190fd5b5050565b60006305f5e100836040015114156132fc575080610952565b604083015161094f90610949846305f5e10061128b565b600061331d612e16565b61ffff8516600090815260209190915260409020805490915064ffffffffff16421461334857600080fd5b805460009061336790600160281b90046001600160581b031685611598565b825490915060009061338990600160801b90046001600160581b031685611598565b905061339c6133978261254b565b613034565b83546001600160581b0391909116600160801b026affffffffffffffffffffff60801b199091161783556133d26133978361254b565b83546001600160581b0391909116600160281b026fffffffffffffffffffffff000000000019909116179092555050505050565b60006134106142bf565b6001600160a01b03841660009081526020829052604090205490915061343e6134398285611598565b61254b565b6001600160a01b03909416600090815260209290925250604090209190915550565b60008060006134938661094961347e8a60c001518b60e001516142cc565b60c08b015151610949906113508b606461128b565b905060006134af828961010001516115ae90919063ffffffff16565b905060006134c08960400151610d46565b9050808213156134de576134d882610949888461128b565b95508091505b50939793965092945050505050565b60006134f983836114cb565b9050600081121561095257600080fd5b600080610952600a611df0565b6000610c7e826028612c6d565b6000610c7e826030612c6d565b6000600160461b82600f0b1261354557600080fd5b683fffffffffffffffff1982600f0b121561356257506000610c81565b6001607f1b60006780000000000000008416600f0b13156135945770016a09e667f3bcc908b2fb1366ea957d3e0260801c5b60008367400000000000000016600f0b13156135c1577001306fe0a31b7152de8d5a46305c85edec0260801c5b60008367200000000000000016600f0b13156135ee577001172b83c7d517adcdf7c8c50eb14a791f0260801c5b60008367100000000000000016600f0b131561361b5770010b5586cf9890f6298b92b71842a983630260801c5b60008367080000000000000016600f0b1315613648577001059b0d31585743ae7c548eb68ca417fd0260801c5b60008367040000000000000016600f0b131561367557700102c9a3e778060ee6f7caca4f7a29bde80260801c5b60008367020000000000000016600f0b13156136a25770010163da9fb33356d84a66ae336dcdfa3f0260801c5b600083600160381b16600f0b13156136cb57700100b1afa5abcbed6129ab13ec11dc95430260801c5b600083668000000000000016600f0b13156136f75770010058c86da1c09ea1ff19d294cf2f679b0260801c5b600083664000000000000016600f0b1315613723577001002c605e2e8cec506d21bfc89a23a00f0260801c5b600083662000000000000016600f0b131561374f57700100162f3904051fa128bca9c55c31e5df0260801c5b600083661000000000000016600f0b131561377b577001000b175effdc76ba38e31671ca9397250260801c5b600083660800000000000016600f0b13156137a757700100058ba01fb9f96d6cacd4b180917c3d0260801c5b600083660400000000000016600f0b13156137d35770010002c5cc37da9491d0985c348c68e7b30260801c5b600083660200000000000016600f0b13156137ff577001000162e525ee054754457d59952920260260801c5b600083600160301b16600f0b13156138285770010000b17255775c040618bf4a4ade83fc0260801c5b6000836580000000000016600f0b1315613853577001000058b91b5bc9ae2eed81e9b7d4cfab0260801c5b6000836540000000000016600f0b131561387e57700100002c5c89d5ec6ca4d7c8acc017b7c90260801c5b6000836520000000000016600f0b13156138a95770010000162e43f4f831060e02d839a9d16d0260801c5b6000836510000000000016600f0b13156138d457700100000b1721bcfc99d9f890ea069117630260801c5b6000836508000000000016600f0b13156138ff5770010000058b90cf1e6d97f9ca14dbcc16280260801c5b6000836504000000000016600f0b131561392a577001000002c5c863b73f016468f6bac5ca2b0260801c5b6000836502000000000016600f0b131561395557700100000162e430e5a18f6119e3c02282a50260801c5b600083600160281b16600f0b131561397e577001000000b1721835514b86e6d96efd1bfe0260801c5b60008364800000000016600f0b13156139a857700100000058b90c0b48c6be5df846c5b2ef0260801c5b60008364400000000016600f0b13156139d25770010000002c5c8601cc6b9e94213c72737a0260801c5b60008364200000000016600f0b13156139fc577001000000162e42fff037df38aa2b219f060260801c5b60008364100000000016600f0b1315613a265770010000000b17217fba9c739aa5819f44f90260801c5b60008364080000000016600f0b1315613a50577001000000058b90bfcdee5acd3c1cedc8230260801c5b60008364040000000016600f0b1315613a7a57700100000002c5c85fe31f35a6a30da1be500260801c5b60008364020000000016600f0b1315613aa45770010000000162e42ff0999ce3541b9fffcf0260801c5b60008364010000000016600f0b1315613ace57700100000000b17217f80f4ef5aadda455540260801c5b600083638000000016600f0b1315613af75770010000000058b90bfbf8479bd5a81b51ad0260801c5b600083634000000016600f0b1315613b20577001000000002c5c85fdf84bd62ae30a74cc0260801c5b600083632000000016600f0b1315613b4957700100000000162e42fefb2fed257559bdaa0260801c5b600083631000000016600f0b1315613b72577001000000000b17217f7d5a7716bba4a9ae0260801c5b600083630800000016600f0b1315613b9b57700100000000058b90bfbe9ddbac5e109cce0260801c5b600083630400000016600f0b1315613bc45770010000000002c5c85fdf4b15de6f17eb0d0260801c5b600083630200000016600f0b1315613bed577001000000000162e42fefa494f1478fde050260801c5b600083630100000016600f0b1315613c165770010000000000b17217f7d20cf927c8e94c0260801c5b6000836280000016600f0b1315613c3e577001000000000058b90bfbe8f71cb4e4b33d0260801c5b6000836240000016600f0b1315613c6657700100000000002c5c85fdf477b662b269450260801c5b6000836220000016600f0b1315613c8e5770010000000000162e42fefa3ae53369388c0260801c5b6000836210000016600f0b1315613cb657700100000000000b17217f7d1d351a389d400260801c5b6000836208000016600f0b1315613cde5770010000000000058b90bfbe8e8b2d3d4ede0260801c5b6000836204000016600f0b1315613d06577001000000000002c5c85fdf4741bea6e77e0260801c5b6000836202000016600f0b1315613d2e57700100000000000162e42fefa39fe95583c20260801c5b6000836201000016600f0b1315613d56577001000000000000b17217f7d1cfb72b45e10260801c5b60008361800016600f0b1315613d7d57700100000000000058b90bfbe8e7cc35c3f00260801c5b60008361400016600f0b1315613da45770010000000000002c5c85fdf473e242ea380260801c5b60008361200016600f0b1315613dcb577001000000000000162e42fefa39f02b772c0260801c5b60008361100016600f0b1315613df25770010000000000000b17217f7d1cf7d83c1a0260801c5b60008361080016600f0b1315613e19577001000000000000058b90bfbe8e7bdcbe2e0260801c5b60008361040016600f0b1315613e4057700100000000000002c5c85fdf473dea871f0260801c5b60008361020016600f0b1315613e675770010000000000000162e42fefa39ef44d910260801c5b60008361010016600f0b1315613e8e57700100000000000000b17217f7d1cf79e9490260801c5b600083608016600f0b1315613eb45770010000000000000058b90bfbe8e7bce5440260801c5b600083604016600f0b1315613eda577001000000000000002c5c85fdf473de6eca0260801c5b600083602016600f0b1315613f0057700100000000000000162e42fefa39ef366f0260801c5b600083601016600f0b1315613f26577001000000000000000b17217f7d1cf79afa0260801c5b600083600816600f0b1315613f4c57700100000000000000058b90bfbe8e7bcd6d0260801c5b600083600416600f0b1315613f725770010000000000000002c5c85fdf473de6b20260801c5b600083600216600f0b1315613f98577001000000000000000162e42fefa39ef3580260801c5b600083600116600f0b1315613fbe5770010000000000000000b17217f7d1cf79ab0260801c5b600f83810b60401d603f03900b1c60016001607f1b03811115610c7e57600080fd5b6000610c7e826020612c6d565b6000610c7e826048612c6d565b600080610952601f611df0565b600080600080600085602001511115614054576140516140388660c00151876020015161251190919063ffffffff16565b60e0870151604088015161404b91612511565b906140a2565b90505b600061405f876142f1565b905061406b8183614324565b945081156140825761407f818660016143d7565b93505b60208601511561409957614096858361444f565b92505b50509250925092565b600061094f612f7584633b9aca00612511565b6000806140c0611242565b6001600160a01b03851660009081526020828152604080832061ffff8816845290915281208054600160a81b9004600a90810b900b945091925083121561410657600080fd5b505092915050565b600081121561411c57600080fd5b6000614126611242565b6001600160a01b03851660009081526020828152604080832061ffff88168452909152902090915061415783612593565b8154600a9190910b6001600160581b0316600160a81b026001600160a81b0390911617905550505050565b600061418c612e16565b61ffff8516600090815260209190915260409020805490915064ffffffffff1642146141b757600080fd5b8054600160f81b900460ff166141cc57600080fd5b60018101546000906141e7906001600160581b031685611598565b825490915060009061420990600160281b90046001600160581b031685611598565b90508160091912801561421c5750600082125b1561422657600091505b806009191280156142375750600081125b15614240575060005b61424c6133978361254b565b6001840180546affffffffffffffffffffff19166001600160581b039290921691909117905561427e6133978261254b565b83546001600160581b0391909116600160281b026fffffffffffffffffffffff0000000000199091161783556142b687878688614468565b50505050505050565b6000806109526026611df0565b600061094f82602001516109498460000151866020015161128b90919063ffffffff16565b6142f9614920565b600061430361457c565b61ffff841660009081526020919091526040812054915061135a9082614589565b60008083608001511161433657600080fd5b633b9aca0082111561434757600080fd5b8251821161436657825160408401516112849190611fec908590612511565b8260200151821161439e5760408301518351602085015160608601516112849392612be29281900391611fec91880390859003612511565b61094f8360600151612be28560200151633b9aca0003611fec87606001518860800151038860200151880361251190919063ffffffff16565b6000806143f66064611fec8760e001518761251190919063ffffffff16565b90508460a0015181101561440b575060a08401515b8460c0015181111561441e575060c08401515b82156144355761442e8482611fc2565b9150612c4a565b83811161444457808403611356565b506000949350505050565b600061094f61445e8484612511565b633b9aca00612c80565b6000614472611b80565b61ffff8516600090815260209190915260408120546001600160a01b0316915061449a6146a8565b61ffff8616600090815260209190915260409081902054905163ad1c095d60e01b81526001600160a01b039091169150819063ad1c095d906144e2908990879060040161519b565b600060405180830381600087803b1580156144fc57600080fd5b505af1158015614510573d6000803e3d6000fd5b505060405163ad1c095d60e01b81526001600160a01b038516925063ad1c095d9150614542908990889060040161519b565b600060405180830381600087803b15801561455c57600080fd5b505af1158015614570573d6000803e3d6000fd5b50505050505050505050565b600080610952601b611df0565b614591614920565b6064633b9aca008360ff8616602081106145a757fe5b1a02816145b057fe5b0481526064633b9aca008360ff8616600101602081106145cc57fe5b1a02816145d557fe5b048160200181815250506145fa8260028560ff1601602081106145f457fe5b1a6146b5565b60808201819052610100908360ff86166003016020811061461757fe5b1a028161462057fe5b0460408201526080810151610100908360ff86166004016020811061464157fe5b1a028161464a57fe5b0460608201526207a1208260ff85166005016020811061466657fe5b1a0260a0820152622625a08260ff85166006016020811061468357fe5b1a0260c08201528160ff84166007016020811061469c57fe5b1a60e082015292915050565b6000806109526022611df0565b60008160ff166096106146d05760ff8216622625a002610c7e565b5060951960ff919091160162e4e1c00263165a0bc00190565b6040518061010001604052806146fd614740565b815260200161470a614775565b81526020016147176147fa565b815260200160008152602001600081526020016000815260200160008152602001606081525090565b6040805160c081018252600080825260208201819052918101829052606081018290526080810182905260a081019190915290565b60405180610160016040528060006001600160a01b031681526020016000815260200160008152602001600081526020016000815260200160006001600160d01b03191681526020016147c6614965565b81526020016147d3614965565b81526020016147e0614895565b81526020016147ed614994565b8152600060209091015290565b6040518060800160405280606081526020016060815260200160008152602001600081525090565b6040518060c00160405280600061ffff168152602001600081526020016000815260200160008152602001600081526020016000600381111561486157fe5b905290565b6040805160a0810182526000808252602082018190529181018290529060608201908152602001600081525090565b60405180606001604052806000815260200160008152602001600081525090565b6040518061012001604052806000815260200160008152602001600081526020016000815260200160008152602001600081526020016000815260200160008152602001600081525090565b60405180602001604052806001906020820280368337509192915050565b60405180610100016040528060008152602001600081526020016000815260200160008152602001600081526020016000815260200160008152602001600081525090565b6040518060a0016040528060008152602001600081526020016000815260200160008152602001600081525090565b60408051608081018252600080825260208201529081016147ed614895565b8051610c818161538f565b600082601f8301126149ce578081fd5b815160206001600160401b03808311156149e457fe5b6149f1828385020161536c565b8381528281019086840160c0808702890186018a1015614a0f578788fd5b875b87811015614a995781838c031215614a27578889fd5b604080518381018181108982111715614a3c57fe5b82528451614a49816153a7565b815284890151898201528185015191810191909152606080850151908201526080808501519082015260a090614a80828601614b48565b9181019190915285529386019391810191600101614a11565b50919998505050505050505050565b60008083601f840112614ab9578182fd5b5081356001600160401b03811115614acf578182fd5b6020830191508360208083028501011115614ae957600080fd5b9250929050565b80518015158114610c8157600080fd5b80516001600160701b031981168114610c8157600080fd5b80516001600160f81b031981168114610c8157600080fd5b80516001600160d01b031981168114610c8157600080fd5b805160048110610c8157600080fd5b600060c08284031215614b68578081fd5b60405160c081018181106001600160401b0382111715614b8457fe5b8060405250809150825164ffffffffff81168114614ba157600080fd5b8152614baf60208401614b18565b6020820152614bc060408401614d35565b6040820152614bd160608401614d2a565b6060820152614be260808401614b00565b6080820152614bf360a08401614af0565b60a08201525092915050565b600060c08284031215614c10578081fd5b604051608081018181106001600160401b0382111715614c2c57fe5b80604052508091508251614c3f816153a7565b815260208381015190820152614c588460408501614cd6565b604082015260a083015160608201525092915050565b600060a08284031215614c7f578081fd5b60405160a081018181106001600160401b0382111715614c9b57fe5b806040525080915082518152602083015160208201526040830151604082015260608301516060820152608083015160808201525092915050565b600060608284031215614ce7578081fd5b604051606081018181106001600160401b0382111715614d0357fe5b80604052508091508251815260208301516020820152604083015160408201525092915050565b8051610c81816153a7565b805160ff81168114610c8157600080fd5b60008060008060008060808789031215614d5e578182fd5b8635614d698161538f565b95506020870135614d79816153a7565b945060408701356001600160401b0380821115614d94578384fd5b614da08a838b01614aa8565b90965094506060890135915080821115614db8578384fd5b50614dc589828a01614aa8565b979a9699509497509295939492505050565b600080600080600080600060a0888a031215614df1578485fd5b8735614dfc8161538f565b96506020880135614e0c816153a7565b95506040880135614e1c816153a7565b945060608801356001600160401b0380821115614e37578283fd5b614e438b838c01614aa8565b909650945060808a0135915080821115614e5b578283fd5b50614e688a828b01614aa8565b989b979a50959850939692959293505050565b6000806101808385031215614e8e578182fd5b614e988484614b57565b9150614ea78460c08501614b57565b90509250929050565b6000806000838503610420811215614ec6578182fd5b614ed08686614b57565b935061034060bf1982011215614ee4578182fd5b50610160614ef18161536c565b614efd60c087016149b3565b815260e08601516020820152610100808701516040830152610120808801516060840152610140808901516080850152614f38858a01614b30565b60a0850152614f4b8a6101808b01614c6e565b60c0850152614f5e8a6102208b01614c6e565b60e0850152614f718a6102c08b01614cd6565b83850152614f838a6103208b01614bff565b82850152614f946103e08a01614af0565b90840152505061040086015190935090506001600160401b03811115614fb8578182fd5b614fc4868287016149be565b9150509250925092565b60008060408385031215614fe0578182fd5b505080516020909101519092909150565b6000815180845260208085019450808401835b8381101561502057815187529582019590820190600101615004565b509495945050505050565b805164ffffffffff1682526020808201516001600160f81b0319169083015260408082015160ff169083015260608082015161ffff16908301526080808201516001600160701b0319169083015260a0908101511515910152565b6001600160a01b0391909116815260200190565b6001600160a01b0392831681529116602082015260400190565b60006101e080830160018060a01b03808a1685526020818a1681870152604091506150e18287018a61502b565b6150ef61010087018961502b565b6101c086019390935285519182905261020085019280870192855b81811015615166578451805161ffff16875283810151848801528481015185880152606080820151908801526080808201519088015260a090810151906004821061515157fe5b87015260c0909501949382019360010161510a565b50939b9a5050505050505050505050565b6001600160a01b039384168152919092166020820152604081019190915260600190565b6001600160a01b03929092168252602082015260400190565b6001600160a01b0393909316835261ffff918216602084015216604082015260600190565b6000604082526151ec6040830185614ff1565b90508260208301529392505050565b60208082526016908201527513585c9ad95d081b9bdd081a5b9a5d1a585b1a5e995960521b604082015260600190565b6020808252600b908201526a4554482042616c616e636560a81b604082015260600190565b6020808252600d908201526c092dcecc2d8d2c840d2dcc8caf609b1b604082015260600190565b6020808252600e908201526d1499595b9d1c985b9d0818d85b1b60921b604082015260600190565b60208082526008908201526712185cc81919589d60c21b604082015260600190565b60208082526008908201526709ccace4086c2e6d60c31b604082015260600190565b61ffff8781168252861660208201526040810185905260a060608201819052810183905260006001600160fb1b0384111561531c578081fd5b60208402808660c0850137808301905060c0810182815260c08483030160808501526153488186614ff1565b9a9950505050505050505050565b9283526020830191909152604082015260600190565b6040518181016001600160401b038111828210171561538757fe5b604052919050565b6001600160a01b03811681146153a457600080fd5b50565b61ffff811681146153a457600080fdfea2646970667358221220202bd8d9c061036604768c208018cdd96cb43b4ecb46fcba48590ab450aef5f864736f6c63430007060033","language":"Solidity","natspec":{"kind":"dev","methods":{"calculatefCashCrossCurrencyLiquidation(address,uint16,uint16,uint256[],uint256[])":{"notice":"Calculates fCash cross currency liquidation, can be called via staticcall off chain","params":{"fCashCurrency":"currency of fCash to purchase","fCashMaturities":"array of fCash maturities in the local currency to purchase, must be ordered descending","liquidateAccount":"account to liquidate","localCurrency":"local currency to liquidate","maxfCashLiquidateAmounts":"max notional of fCash to liquidate in corresponding maturity, zero will represent no maximum"},"returns":{"_0":"an array of the notional amounts of fCash to transfer, corresponding to fCashMaturities","_1":"amount of local currency required from the liquidator"}},"calculatefCashLocalLiquidation(address,uint16,uint256[],uint256[])":{"params":{"fCashMaturities":"array of fCash maturities in the local currency to purchase, must be ordered descending","liquidateAccount":"account to liquidate","localCurrency":"local currency to liquidate","maxfCashLiquidateAmounts":"max notional of fCash to liquidate in corresponding maturity, zero will represent no maximum"},"returns":{"_0":"an array of the notional amounts of fCash to transfer, corresponding to fCashMaturities","_1":"amount of local currency required from the liquidator"}},"getLibInfo()":{"notice":"Get a list of deployed library addresses (sorted by library name)"},"liquidatefCashCrossCurrency(address,uint16,uint16,uint256[],uint256[])":{"notice":"Liquidates fCash across local to collateral currency","params":{"fCashCurrency":"currency of fCash to purchase","fCashMaturities":"array of fCash maturities in the local currency to purchase, must be ordered descending","liquidateAccount":"account to liquidate","localCurrency":"local currency to liquidate","maxfCashLiquidateAmounts":"max notional of fCash to liquidate in corresponding maturity, zero will represent no maximum"},"returns":{"_0":"an array of the notional amounts of fCash to transfer, corresponding to fCashMaturities","_1":"amount of local currency required from the liquidator"}},"liquidatefCashLocal(address,uint16,uint256[],uint256[])":{"notice":"Liquidates fCash using local currency","params":{"fCashMaturities":"array of fCash maturities in the local currency to purchase, must be ordered descending","liquidateAccount":"account to liquidate","localCurrency":"local currency to liquidate","maxfCashLiquidateAmounts":"max notional of fCash to liquidate in corresponding maturity, zero will represent no maximum"},"returns":{"_0":"an array of the notional amounts of fCash to transfer, corresponding to fCashMaturities","_1":"amount of local currency required from the liquidator"}}},"version":1},"opcodes":"PUSH1 0x80 PUSH1 0x40 MSTORE PUSH1 0x4 CALLDATASIZE LT PUSH2 0x7B JUMPI PUSH1 0x0 CALLDATALOAD PUSH1 0xE0 SHR DUP1 PUSH4 0x8DA5CB5B GT PUSH2 0x4E JUMPI DUP1 PUSH4 0x8DA5CB5B EQ PUSH2 0x101 JUMPI DUP1 PUSH4 0xC4C96DAE EQ PUSH2 0x116 JUMPI DUP1 PUSH4 0xE816469D EQ PUSH2 0x139 JUMPI DUP1 PUSH4 0xFA37E395 EQ PUSH2 0x14C JUMPI PUSH2 0x7B JUMP JUMPDEST DUP1 PUSH4 0xFB281D9 EQ PUSH2 0x80 JUMPI DUP1 PUSH4 0x24A3D622 EQ PUSH2 0xB7 JUMPI DUP1 PUSH4 0x7FDEBBF4 EQ PUSH2 0xD9 JUMPI DUP1 PUSH4 0x82463367 EQ PUSH2 0xEC JUMPI JUMPDEST PUSH1 0x0 DUP1 REVERT JUMPDEST CALLVALUE DUP1 ISZERO PUSH2 0x8C JUMPI PUSH1 0x0 DUP1 REVERT JUMPDEST POP PUSH2 0xA0 PUSH2 0x9B CALLDATASIZE PUSH1 0x4 PUSH2 0x4D46 JUMP JUMPDEST PUSH2 0x16C JUMP JUMPDEST PUSH1 0x40 MLOAD PUSH2 0xAE SWAP3 SWAP2 SWAP1 PUSH2 0x51D9 JUMP JUMPDEST PUSH1 0x40 MLOAD DUP1 SWAP2 SUB SWAP1 RETURN JUMPDEST CALLVALUE DUP1 ISZERO PUSH2 0xC3 JUMPI PUSH1 0x0 DUP1 REVERT JUMPDEST POP PUSH2 0xCC PUSH2 0x1D4 JUMP JUMPDEST PUSH1 0x40 MLOAD PUSH2 0xAE SWAP2 SWAP1 PUSH2 0x5086 JUMP JUMPDEST PUSH2 0xA0 PUSH2 0xE7 CALLDATASIZE PUSH1 0x4 PUSH2 0x4D46 JUMP JUMPDEST PUSH2 0x1E3 JUMP JUMPDEST CALLVALUE DUP1 ISZERO PUSH2 0xF8 JUMPI PUSH1 0x0 DUP1 REVERT JUMPDEST POP PUSH2 0xCC PUSH2 0x25E JUMP JUMPDEST CALLVALUE DUP1 ISZERO PUSH2 0x10D JUMPI PUSH1 0x0 DUP1 REVERT JUMPDEST POP PUSH2 0xCC PUSH2 0x26D JUMP JUMPDEST CALLVALUE DUP1 ISZERO PUSH2 0x122 JUMPI PUSH1 0x0 DUP1 REVERT JUMPDEST POP PUSH2 0x12B PUSH2 0x284 JUMP JUMPDEST PUSH1 0x40 MLOAD PUSH2 0xAE SWAP3 SWAP2 SWAP1 PUSH2 0x509A JUMP JUMPDEST PUSH2 0xA0 PUSH2 0x147 CALLDATASIZE PUSH1 0x4 PUSH2 0x4DD7 JUMP JUMPDEST PUSH2 0x2B2 JUMP JUMPDEST CALLVALUE DUP1 ISZERO PUSH2 0x158 JUMPI PUSH1 0x0 DUP1 REVERT JUMPDEST POP PUSH2 0xA0 PUSH2 0x167 CALLDATASIZE PUSH1 0x4 PUSH2 0x4DD7 JUMP JUMPDEST PUSH2 0x32F JUMP JUMPDEST PUSH1 0x60 PUSH1 0x0 PUSH1 0x2 PUSH1 0xA SLOAD EQ ISZERO PUSH2 0x19C JUMPI PUSH1 0x40 MLOAD PUSH3 0x461BCD PUSH1 0xE5 SHL DUP2 MSTORE PUSH1 0x4 ADD PUSH2 0x193 SWAP1 PUSH2 0x5277 JUMP JUMPDEST PUSH1 0x40 MLOAD DUP1 SWAP2 SUB SWAP1 REVERT JUMPDEST PUSH1 0x2 PUSH1 0xA SSTORE TIMESTAMP PUSH1 0x0 PUSH2 0x1B3 DUP11 DUP11 DUP11 DUP11 DUP11 DUP11 DUP9 PUSH2 0x390 JUMP JUMPDEST PUSH1 0xE0 DUP2 ADD MLOAD PUSH1 0xA0 SWAP1 SWAP2 ADD MLOAD PUSH1 0x1 PUSH1 0xA SSTORE SWAP1 SWAP12 SWAP1 SWAP11 POP SWAP9 POP POP POP POP POP POP POP POP POP JUMP JUMPDEST PUSH1 0x2 SLOAD PUSH1 0x1 PUSH1 0x1 PUSH1 0xA0 SHL SUB AND DUP2 JUMP JUMPDEST PUSH1 0x60 PUSH1 0x0 PUSH1 0x2 PUSH1 0xA SLOAD EQ ISZERO PUSH2 0x20A JUMPI PUSH1 0x40 MLOAD PUSH3 0x461BCD PUSH1 0xE5 SHL DUP2 MSTORE PUSH1 0x4 ADD PUSH2 0x193 SWAP1 PUSH2 0x5277 JUMP JUMPDEST PUSH1 0x2 PUSH1 0xA SSTORE DUP5 PUSH2 0x219 JUMPI PUSH1 0x0 DUP1 REVERT JUMPDEST TIMESTAMP PUSH1 0x0 PUSH2 0x22B DUP11 DUP11 DUP11 DUP11 DUP11 DUP11 DUP9 PUSH2 0x390 JUMP JUMPDEST SWAP1 POP PUSH2 0x23C DUP11 CALLER DUP12 DUP13 DUP13 DUP13 DUP8 PUSH2 0x462 JUMP JUMPDEST POP POP PUSH1 0xE0 DUP2 ADD MLOAD PUSH1 0xA0 SWAP1 SWAP2 ADD MLOAD PUSH1 0x1 PUSH1 0xA SSTORE SWAP1 SWAP11 SWAP1 SWAP10 POP SWAP8 POP POP POP POP POP POP POP POP JUMP JUMPDEST PUSH1 0x1 SLOAD PUSH1 0x1 PUSH1 0x1 PUSH1 0xA0 SHL SUB AND DUP2 JUMP JUMPDEST PUSH1 0x0 SLOAD PUSH5 0x100000000 SWAP1 DIV PUSH1 0x1 PUSH1 0x1 PUSH1 0xA0 SHL SUB AND DUP2 JUMP JUMPDEST PUSH20 0x0 PUSH20 0x0 SWAP1 SWAP2 JUMP JUMPDEST PUSH1 0x60 PUSH1 0x0 PUSH1 0x2 PUSH1 0xA SLOAD EQ ISZERO PUSH2 0x2D9 JUMPI PUSH1 0x40 MLOAD PUSH3 0x461BCD PUSH1 0xE5 SHL DUP2 MSTORE PUSH1 0x4 ADD PUSH2 0x193 SWAP1 PUSH2 0x5277 JUMP JUMPDEST PUSH1 0x2 PUSH1 0xA SSTORE DUP5 PUSH2 0x2E8 JUMPI PUSH1 0x0 DUP1 REVERT JUMPDEST TIMESTAMP PUSH1 0x0 PUSH2 0x2FB DUP12 DUP12 DUP12 DUP12 DUP12 DUP12 DUP12 DUP10 PUSH2 0x66D JUMP JUMPDEST SWAP1 POP PUSH2 0x30C DUP12 CALLER DUP13 DUP13 DUP13 DUP13 DUP8 PUSH2 0x462 JUMP JUMPDEST POP POP PUSH1 0xE0 DUP2 ADD MLOAD PUSH1 0xA0 SWAP1 SWAP2 ADD MLOAD PUSH1 0x1 PUSH1 0xA SSTORE SWAP1 SWAP12 SWAP1 SWAP11 POP SWAP9 POP POP POP POP POP POP POP POP POP JUMP JUMPDEST PUSH1 0x60 PUSH1 0x0 PUSH1 0x2 PUSH1 0xA SLOAD EQ ISZERO PUSH2 0x356 JUMPI PUSH1 0x40 MLOAD PUSH3 0x461BCD PUSH1 0xE5 SHL DUP2 MSTORE PUSH1 0x4 ADD PUSH2 0x193 SWAP1 PUSH2 0x5277 JUMP JUMPDEST PUSH1 0x2 PUSH1 0xA SSTORE TIMESTAMP PUSH1 0x0 PUSH2 0x36E DUP12 DUP12 DUP12 DUP12 DUP12 DUP12 DUP12 DUP10 PUSH2 0x66D JUMP JUMPDEST PUSH1 0xE0 DUP2 ADD MLOAD PUSH1 0xA0 SWAP1 SWAP2 ADD MLOAD PUSH1 0x1 PUSH1 0xA SSTORE SWAP1 SWAP13 SWAP1 SWAP12 POP SWAP10 POP POP POP POP POP POP POP POP POP POP JUMP JUMPDEST PUSH2 0x398 PUSH2 0x46E9 JUMP JUMPDEST DUP5 DUP4 EQ PUSH2 0x3A4 JUMPI PUSH1 0x0 DUP1 REVERT JUMPDEST PUSH2 0x3AC PUSH2 0x46E9 JUMP JUMPDEST PUSH2 0x3B8 DUP10 DUP10 PUSH1 0x0 PUSH2 0x707 JUMP JUMPDEST PUSH1 0x40 DUP5 ADD MSTORE PUSH1 0x20 DUP4 ADD DUP2 SWAP1 MSTORE SWAP1 DUP3 MSTORE PUSH2 0x100 ADD MLOAD PUSH1 0x0 SWAP1 PUSH2 0x3DC SWAP1 DUP12 SWAP1 DUP12 SWAP1 PUSH2 0x863 JUMP JUMPDEST POP POP POP PUSH1 0x20 DUP4 ADD MLOAD PUSH2 0x100 ADD MLOAD SWAP1 SWAP2 POP PUSH2 0x3F6 SWAP1 DUP3 PUSH2 0x91D JUMP JUMPDEST PUSH1 0x60 DUP4 ADD MSTORE DUP7 PUSH1 0x1 PUSH1 0x1 PUSH1 0x40 SHL SUB DUP2 GT DUP1 ISZERO PUSH2 0x411 JUMPI PUSH1 0x0 DUP1 REVERT JUMPDEST POP PUSH1 0x40 MLOAD SWAP1 DUP1 DUP3 MSTORE DUP1 PUSH1 0x20 MUL PUSH1 0x20 ADD DUP3 ADD PUSH1 0x40 MSTORE DUP1 ISZERO PUSH2 0x43B JUMPI DUP2 PUSH1 0x20 ADD PUSH1 0x20 DUP3 MUL DUP1 CALLDATASIZE DUP4 CALLDATACOPY ADD SWAP1 POP JUMPDEST POP PUSH1 0xE0 DUP4 ADD MSTORE PUSH2 0x455 DUP11 PUSH2 0xFFFF DUP12 AND DUP11 DUP11 DUP11 DUP11 DUP9 DUP12 PUSH2 0x958 JUMP JUMPDEST POP SWAP9 SWAP8 POP POP POP POP POP POP POP POP JUMP JUMPDEST PUSH1 0x60 PUSH1 0x0 DUP1 PUSH2 0x474 DUP9 PUSH2 0xFFFF AND PUSH2 0xC6B JUMP JUMPDEST SWAP1 POP PUSH1 0x0 PUSH2 0x481 DUP11 PUSH2 0xC86 JUMP JUMPDEST PUSH1 0xA0 DUP7 ADD MLOAD SWAP1 SWAP2 POP PUSH1 0x0 PUSH2 0x494 DUP12 PUSH2 0xD34 JUMP JUMPDEST SWAP1 POP DUP4 PUSH1 0x20 ADD MLOAD DUP1 ISZERO PUSH2 0x4A7 JUMPI POP PUSH1 0x0 DUP3 SGT JUMPDEST ISZERO PUSH2 0x4F2 JUMPI PUSH1 0x20 DUP4 ADD MLOAD PUSH1 0x1 PUSH1 0x1 PUSH1 0xF8 SHL SUB NOT AND ISZERO PUSH2 0x4D8 JUMPI PUSH1 0x40 MLOAD PUSH3 0x461BCD PUSH1 0xE5 SHL DUP2 MSTORE PUSH1 0x4 ADD PUSH2 0x193 SWAP1 PUSH2 0x529F JUMP JUMPDEST PUSH2 0x4ED DUP13 DUP5 DUP14 PUSH2 0x4E7 DUP7 PUSH2 0xD46 JUMP JUMPDEST DUP6 PUSH2 0xD54 JUMP JUMPDEST PUSH2 0x51E JUMP JUMPDEST PUSH1 0x0 DUP3 SGT ISZERO PUSH2 0x50F JUMPI PUSH2 0x509 DUP13 DUP13 DUP5 DUP5 PUSH1 0x0 PUSH2 0xE00 JUMP JUMPDEST POP PUSH2 0x51E JUMP JUMPDEST PUSH2 0x51E DUP13 DUP5 DUP14 PUSH2 0x4E7 DUP7 PUSH2 0xD46 JUMP JUMPDEST PUSH2 0x52A DUP13 DUP15 DUP14 DUP6 PUSH2 0xE60 JUMP JUMPDEST PUSH2 0x53B DUP14 DUP9 PUSH1 0x0 ADD MLOAD DUP14 DUP6 DUP6 PUSH2 0xD54 JUMP JUMPDEST PUSH1 0x0 PUSH2 0x54C DUP15 DUP15 DUP7 DUP15 DUP15 DUP15 DUP15 PUSH2 0xF06 JUMP JUMPDEST DUP1 SWAP6 POP DUP2 SWAP3 POP POP POP DUP13 PUSH1 0x1 PUSH1 0x1 PUSH1 0xA0 SHL SUB AND DUP15 PUSH1 0x1 PUSH1 0x1 PUSH1 0xA0 SHL SUB AND PUSH32 0x1F20E4CCBA6C78861EE4C638FECD0B6A53B1232ADB96CA3A0065B9BB12D6214D DUP15 DUP15 DUP13 PUSH1 0xA0 ADD MLOAD DUP16 DUP16 DUP16 PUSH1 0xE0 ADD MLOAD PUSH1 0x40 MLOAD PUSH2 0x5A9 SWAP7 SWAP6 SWAP5 SWAP4 SWAP3 SWAP2 SWAP1 PUSH2 0x52E3 JUMP JUMPDEST PUSH1 0x40 MLOAD DUP1 SWAP2 SUB SWAP1 LOG3 PUSH2 0x5BB DUP5 DUP15 PUSH2 0xFCB JUMP JUMPDEST DUP8 MLOAD PUSH2 0x5C7 SWAP1 DUP16 PUSH2 0xFCB JUMP JUMPDEST DUP1 DUP1 ISZERO PUSH2 0x5E1 JUMPI POP PUSH1 0x20 DUP5 ADD MLOAD PUSH1 0x1 PUSH1 0x1 PUSH1 0xF8 SHL SUB NOT AND ISZERO ISZERO JUMPDEST ISZERO PUSH2 0x64E JUMPI PUSH20 0x0 PUSH4 0x6CCC642F DUP15 PUSH1 0x40 MLOAD DUP3 PUSH4 0xFFFFFFFF AND PUSH1 0xE0 SHL DUP2 MSTORE PUSH1 0x4 ADD PUSH2 0x61D SWAP2 SWAP1 PUSH2 0x5086 JUMP JUMPDEST PUSH1 0x0 PUSH1 0x40 MLOAD DUP1 DUP4 SUB DUP2 DUP7 DUP1 EXTCODESIZE ISZERO DUP1 ISZERO PUSH2 0x635 JUMPI PUSH1 0x0 DUP1 REVERT JUMPDEST POP GAS DELEGATECALL ISZERO DUP1 ISZERO PUSH2 0x649 JUMPI RETURNDATASIZE PUSH1 0x0 DUP1 RETURNDATACOPY RETURNDATASIZE PUSH1 0x0 REVERT JUMPDEST POP POP POP POP JUMPDEST DUP8 PUSH1 0xE0 ADD MLOAD DUP9 PUSH1 0xA0 ADD MLOAD SWAP7 POP SWAP7 POP POP POP POP POP POP SWAP8 POP SWAP8 SWAP6 POP POP POP POP POP POP JUMP JUMPDEST PUSH2 0x675 PUSH2 0x46E9 JUMP JUMPDEST DUP5 DUP4 EQ PUSH2 0x681 JUMPI PUSH1 0x0 DUP1 REVERT JUMPDEST PUSH2 0x689 PUSH2 0x46E9 JUMP JUMPDEST PUSH2 0x694 DUP11 DUP11 DUP11 PUSH2 0x707 JUMP JUMPDEST PUSH1 0x40 DUP5 ADD MSTORE PUSH1 0x20 DUP4 ADD MSTORE DUP2 MSTORE DUP6 PUSH1 0x1 PUSH1 0x1 PUSH1 0x40 SHL SUB DUP2 GT DUP1 ISZERO PUSH2 0x6B6 JUMPI PUSH1 0x0 DUP1 REVERT JUMPDEST POP PUSH1 0x40 MLOAD SWAP1 DUP1 DUP3 MSTORE DUP1 PUSH1 0x20 MUL PUSH1 0x20 ADD DUP3 ADD PUSH1 0x40 MSTORE DUP1 ISZERO PUSH2 0x6E0 JUMPI DUP2 PUSH1 0x20 ADD PUSH1 0x20 DUP3 MUL DUP1 CALLDATASIZE DUP4 CALLDATACOPY ADD SWAP1 POP JUMPDEST POP PUSH1 0xE0 DUP3 ADD MSTORE PUSH2 0x6FA DUP11 PUSH2 0xFFFF DUP11 AND DUP10 DUP10 DUP10 DUP10 DUP8 DUP11 PUSH2 0x10E8 JUMP JUMPDEST SWAP10 SWAP9 POP POP POP POP POP POP POP POP POP JUMP JUMPDEST PUSH2 0x70F PUSH2 0x4740 JUMP JUMPDEST PUSH2 0x717 PUSH2 0x4775 JUMP JUMPDEST PUSH2 0x71F PUSH2 0x47FA JUMP JUMPDEST CALLER PUSH1 0x1 PUSH1 0x1 PUSH1 0xA0 SHL SUB DUP8 AND EQ ISZERO PUSH2 0x735 JUMPI PUSH1 0x0 DUP1 REVERT JUMPDEST PUSH2 0xFFFF DUP6 AND PUSH2 0x743 JUMPI PUSH1 0x0 DUP1 REVERT JUMPDEST DUP5 PUSH2 0xFFFF AND DUP5 PUSH2 0xFFFF AND EQ ISZERO PUSH2 0x758 JUMPI PUSH1 0x0 DUP1 REVERT JUMPDEST PUSH1 0x0 DUP1 PUSH1 0x0 PUSH20 0x0 PUSH4 0x451D958F DUP11 DUP11 DUP11 PUSH1 0x40 MLOAD DUP5 PUSH4 0xFFFFFFFF AND PUSH1 0xE0 SHL DUP2 MSTORE PUSH1 0x4 ADD PUSH2 0x798 SWAP4 SWAP3 SWAP2 SWAP1 PUSH2 0x51B4 JUMP JUMPDEST PUSH1 0x0 PUSH1 0x40 MLOAD DUP1 DUP4 SUB DUP2 DUP7 DUP1 EXTCODESIZE ISZERO DUP1 ISZERO PUSH2 0x7B0 JUMPI PUSH1 0x0 DUP1 REVERT JUMPDEST POP GAS DELEGATECALL ISZERO DUP1 ISZERO PUSH2 0x7C4 JUMPI RETURNDATASIZE PUSH1 0x0 DUP1 RETURNDATACOPY RETURNDATASIZE PUSH1 0x0 REVERT JUMPDEST POP POP POP POP PUSH1 0x40 MLOAD RETURNDATASIZE PUSH1 0x0 DUP3 RETURNDATACOPY PUSH1 0x1F RETURNDATASIZE SWAP1 DUP2 ADD PUSH1 0x1F NOT AND DUP3 ADD PUSH1 0x40 MSTORE PUSH2 0x7EC SWAP2 SWAP1 DUP2 ADD SWAP1 PUSH2 0x4EB0 JUMP JUMPDEST SWAP2 SWAP5 POP SWAP3 POP SWAP1 POP PUSH2 0x7FD DUP4 DUP11 PUSH2 0xFCB JUMP JUMPDEST PUSH1 0x40 DUP1 MLOAD PUSH1 0x80 DUP2 ADD DUP3 MSTORE DUP3 DUP2 MSTORE DUP2 MLOAD PUSH1 0x0 DUP1 DUP3 MSTORE PUSH1 0x20 DUP3 DUP2 ADD SWAP1 SWAP5 MSTORE SWAP3 DUP3 ADD SWAP1 DUP4 PUSH2 0x83E JUMP JUMPDEST PUSH2 0x82B PUSH2 0x4822 JUMP JUMPDEST DUP2 MSTORE PUSH1 0x20 ADD SWAP1 PUSH1 0x1 SWAP1 SUB SWAP1 DUP2 PUSH2 0x823 JUMPI SWAP1 POP JUMPDEST POP DUP2 MSTORE PUSH1 0x0 PUSH1 0x20 DUP3 ADD MSTORE SWAP3 MLOAD PUSH1 0x40 SWAP1 SWAP4 ADD SWAP3 SWAP1 SWAP3 MSTORE POP SWAP2 SWAP9 SWAP1 SWAP8 POP SWAP1 SWAP6 POP SWAP4 POP POP POP POP JUMP JUMPDEST PUSH1 0x0 DUP1 PUSH1 0x0 DUP1 PUSH1 0x0 PUSH2 0x873 PUSH2 0x1242 JUMP JUMPDEST PUSH1 0x1 PUSH1 0x1 PUSH1 0xA0 SHL SUB DUP10 AND PUSH1 0x0 SWAP1 DUP2 MSTORE PUSH1 0x20 DUP3 DUP2 MSTORE PUSH1 0x40 DUP1 DUP4 KECCAK256 PUSH2 0xFFFF DUP13 AND DUP5 MSTORE SWAP1 SWAP2 MSTORE SWAP1 KECCAK256 DUP1 SLOAD PUSH1 0x1 PUSH1 0x1 PUSH1 0x50 SHL SUB DUP2 AND SWAP7 POP PUSH1 0x1 PUSH1 0x50 SHL SWAP1 DIV PUSH4 0xFFFFFFFF AND SWAP5 POP SWAP1 SWAP2 POP DUP4 ISZERO PUSH2 0x8E0 JUMPI DUP1 SLOAD PUSH2 0x8D9 SWAP1 PUSH1 0x1 PUSH1 0x70 SHL SWAP1 DIV PUSH7 0xFFFFFFFFFFFFFF AND PUSH2 0x124F JUMP JUMPDEST SWAP3 POP PUSH2 0x8F5 JUMP JUMPDEST DUP1 SLOAD PUSH1 0x1 PUSH1 0x70 SHL SWAP1 DIV PUSH7 0xFFFFFFFFFFFFFF AND SWAP3 POP JUMPDEST DUP1 SLOAD PUSH2 0x910 SWAP1 DUP9 SWAP1 PUSH1 0x1 PUSH1 0xA8 SHL SWAP1 DIV PUSH1 0xA SWAP1 DUP2 SIGNEXTEND SWAP1 SIGNEXTEND PUSH2 0x125D JUMP JUMPDEST SWAP6 POP POP POP SWAP4 POP SWAP4 POP SWAP4 POP SWAP4 JUMP JUMPDEST PUSH1 0x0 PUSH2 0x94F PUSH15 0xC097CE7BC90715B34B9F1000000000 PUSH2 0x949 DUP6 PUSH1 0x0 ADD MLOAD DUP6 PUSH2 0x128B SWAP1 SWAP2 SWAP1 PUSH4 0xFFFFFFFF AND JUMP JUMPDEST SWAP1 PUSH2 0x12D9 JUMP JUMPDEST SWAP1 POP JUMPDEST SWAP3 SWAP2 POP POP JUMP JUMPDEST PUSH1 0x20 DUP3 ADD MLOAD PUSH1 0x40 ADD MLOAD PUSH2 0x96A JUMPI PUSH1 0x0 DUP1 REVERT JUMPDEST PUSH2 0x98D DUP3 PUSH1 0x20 ADD MLOAD PUSH1 0x40 ADD MLOAD DUP4 PUSH1 0x20 ADD MLOAD PUSH1 0x20 ADD MLOAD DUP5 PUSH1 0x20 ADD MLOAD PUSH1 0xC0 ADD MLOAD PUSH2 0x130A JUMP JUMPDEST PUSH1 0x80 DUP4 ADD MSTORE PUSH1 0x0 JUMPDEST DUP6 DUP2 LT ISZERO PUSH2 0xC40 JUMPI DUP1 ISZERO PUSH2 0x9D6 JUMPI DUP7 DUP7 DUP3 DUP2 DUP2 LT PUSH2 0x9AF JUMPI INVALID JUMPDEST SWAP1 POP PUSH1 0x20 MUL ADD CALLDATALOAD DUP8 DUP8 PUSH1 0x1 DUP5 SUB DUP2 DUP2 LT PUSH2 0x9C5 JUMPI INVALID JUMPDEST SWAP1 POP PUSH1 0x20 MUL ADD CALLDATALOAD GT PUSH2 0x9D6 JUMPI PUSH1 0x0 DUP1 REVERT JUMPDEST PUSH1 0x0 PUSH2 0x9F6 DUP11 DUP6 DUP12 DUP12 DUP12 DUP8 DUP2 DUP2 LT PUSH2 0x9EA JUMPI INVALID JUMPDEST SWAP1 POP PUSH1 0x20 MUL ADD CALLDATALOAD PUSH2 0x1361 JUMP JUMPDEST SWAP1 POP PUSH1 0x0 DUP2 SLT ISZERO PUSH2 0xA13 JUMPI PUSH1 0x0 DUP5 PUSH1 0x60 ADD MLOAD SLT ISZERO PUSH2 0xA13 JUMPI PUSH1 0x0 DUP1 REVERT JUMPDEST DUP1 PUSH2 0xA1E JUMPI POP PUSH2 0xC38 JUMP JUMPDEST PUSH1 0x0 DUP1 PUSH2 0xA46 DUP7 PUSH1 0x20 ADD MLOAD DUP12 DUP12 DUP8 DUP2 DUP2 LT PUSH2 0xA35 JUMPI INVALID JUMPDEST SWAP1 POP PUSH1 0x20 MUL ADD CALLDATALOAD DUP8 PUSH1 0x0 DUP8 SGT PUSH2 0x1405 JUMP JUMPDEST SWAP1 SWAP3 POP SWAP1 POP PUSH2 0xA6B PUSH2 0xA60 PUSH2 0xA5B DUP4 DUP6 PUSH2 0x14CB JUMP JUMPDEST PUSH2 0x14E1 JUMP JUMPDEST PUSH1 0x80 DUP9 ADD MLOAD SWAP1 PUSH2 0x1502 JUMP JUMPDEST DUP7 PUSH1 0xE0 ADD MLOAD DUP6 DUP2 MLOAD DUP2 LT PUSH2 0xA7B JUMPI INVALID JUMPDEST PUSH1 0x20 MUL PUSH1 0x20 ADD ADD DUP2 DUP2 MSTORE POP POP PUSH2 0xACB DUP7 PUSH1 0xE0 ADD MLOAD DUP6 DUP2 MLOAD DUP2 LT PUSH2 0xA9A JUMPI INVALID JUMPDEST PUSH1 0x20 MUL PUSH1 0x20 ADD ADD MLOAD PUSH2 0xAAB DUP6 PUSH2 0x14E1 JUMP JUMPDEST PUSH2 0xAC6 DUP12 DUP12 DUP10 DUP2 DUP2 LT PUSH2 0xABA JUMPI INVALID JUMPDEST SWAP1 POP PUSH1 0x20 MUL ADD CALLDATALOAD PUSH2 0x151B JUMP JUMPDEST PUSH2 0x1535 JUMP JUMPDEST DUP7 PUSH1 0xE0 ADD MLOAD DUP6 DUP2 MLOAD DUP2 LT PUSH2 0xADB JUMPI INVALID JUMPDEST PUSH1 0x20 MUL PUSH1 0x20 ADD ADD DUP2 DUP2 MSTORE POP POP PUSH1 0x0 PUSH2 0xB13 DUP3 DUP9 PUSH1 0xE0 ADD MLOAD DUP8 DUP2 MLOAD DUP2 LT PUSH2 0xAFD JUMPI INVALID JUMPDEST PUSH1 0x20 MUL PUSH1 0x20 ADD ADD MLOAD PUSH2 0x157F SWAP1 SWAP2 SWAP1 PUSH4 0xFFFFFFFF AND JUMP JUMPDEST SWAP1 POP PUSH1 0x0 DUP5 SLT ISZERO PUSH2 0xBC6 JUMPI DUP7 PUSH1 0x60 ADD MLOAD DUP2 SGT ISZERO PUSH2 0xB7E JUMPI PUSH2 0xB5C DUP2 PUSH2 0x949 DUP10 PUSH1 0x60 ADD MLOAD DUP11 PUSH1 0xE0 ADD MLOAD DUP10 DUP2 MLOAD DUP2 LT PUSH2 0xB46 JUMPI INVALID JUMPDEST PUSH1 0x20 MUL PUSH1 0x20 ADD ADD MLOAD PUSH2 0x128B SWAP1 SWAP2 SWAP1 PUSH4 0xFFFFFFFF AND JUMP JUMPDEST DUP8 PUSH1 0xE0 ADD MLOAD DUP7 DUP2 MLOAD DUP2 LT PUSH2 0xB6C JUMPI INVALID JUMPDEST PUSH1 0x20 SWAP1 DUP2 MUL SWAP2 SWAP1 SWAP2 ADD ADD MSTORE POP PUSH1 0x60 DUP7 ADD MLOAD JUMPDEST PUSH2 0xB9E DUP8 PUSH1 0xE0 ADD MLOAD DUP7 DUP2 MLOAD DUP2 LT PUSH2 0xB91 JUMPI INVALID JUMPDEST PUSH1 0x20 MUL PUSH1 0x20 ADD ADD MLOAD PUSH2 0xD46 JUMP JUMPDEST DUP8 PUSH1 0xE0 ADD MLOAD DUP7 DUP2 MLOAD DUP2 LT PUSH2 0xBAE JUMPI INVALID JUMPDEST PUSH1 0x20 MUL PUSH1 0x20 ADD ADD DUP2 DUP2 MSTORE POP POP PUSH2 0xBC3 DUP2 PUSH2 0xD46 JUMP JUMPDEST SWAP1 POP JUMPDEST PUSH1 0xA0 DUP8 ADD MLOAD PUSH2 0xBD5 SWAP1 DUP3 PUSH2 0x1598 JUMP JUMPDEST PUSH1 0xA0 DUP9 ADD MSTORE PUSH1 0x60 DUP8 ADD MLOAD PUSH2 0xBE9 SWAP1 DUP3 PUSH2 0x1598 JUMP JUMPDEST PUSH1 0x60 DUP9 ADD MSTORE PUSH2 0xC1C PUSH2 0xC11 PUSH2 0xA5B PUSH2 0xC01 DUP6 DUP8 PUSH2 0x14CB JUMP JUMPDEST DUP11 PUSH1 0xE0 ADD MLOAD DUP10 DUP2 MLOAD DUP2 LT PUSH2 0xAFD JUMPI INVALID JUMPDEST PUSH1 0x80 DUP10 ADD MLOAD SWAP1 PUSH2 0x14CB JUMP JUMPDEST PUSH1 0x80 DUP9 ADD DUP2 SWAP1 MSTORE PUSH1 0x0 SLT PUSH2 0xC33 JUMPI POP POP POP POP PUSH2 0xC40 JUMP JUMPDEST POP POP POP POP JUMPDEST PUSH1 0x1 ADD PUSH2 0x995 JUMP JUMPDEST POP PUSH1 0xA0 DUP3 ADD MLOAD PUSH1 0x20 DUP4 ADD MLOAD PUSH2 0x100 ADD MLOAD PUSH2 0xC59 SWAP2 PUSH2 0x15AE JUMP JUMPDEST PUSH1 0xA0 SWAP1 SWAP3 ADD SWAP2 SWAP1 SWAP2 MSTORE POP POP POP POP POP POP POP JUMP JUMPDEST PUSH2 0xC73 PUSH2 0x4866 JUMP JUMPDEST PUSH2 0xC7E DUP3 PUSH1 0x1 PUSH2 0x15D0 JUMP JUMPDEST SWAP1 POP JUMPDEST SWAP2 SWAP1 POP JUMP JUMPDEST PUSH2 0xC8E PUSH2 0x4740 JUMP JUMPDEST PUSH1 0x0 PUSH2 0xC98 PUSH2 0x166A JUMP JUMPDEST PUSH1 0x1 PUSH1 0x1 PUSH1 0xA0 SHL SUB DUP5 AND PUSH1 0x0 SWAP1 DUP2 MSTORE PUSH1 0x20 SWAP2 DUP3 MSTORE PUSH1 0x40 SWAP1 DUP2 SWAP1 KECCAK256 DUP2 MLOAD PUSH1 0xC0 DUP2 ADD DUP4 MSTORE SWAP1 SLOAD PUSH5 0xFFFFFFFFFF DUP2 AND DUP3 MSTORE PUSH1 0x1 PUSH1 0x1 PUSH1 0xF8 SHL SUB NOT PUSH1 0x1 PUSH1 0x28 SHL DUP3 DIV PUSH1 0xF8 SHL AND SWAP4 DUP3 ADD SWAP4 SWAP1 SWAP4 MSTORE PUSH1 0xFF PUSH1 0x1 PUSH1 0x30 SHL DUP5 DIV DUP2 AND SWAP3 DUP3 ADD SWAP3 SWAP1 SWAP3 MSTORE PUSH2 0xFFFF PUSH1 0x1 PUSH1 0x38 SHL DUP5 DIV AND PUSH1 0x60 DUP3 ADD MSTORE PUSH1 0x1 PUSH1 0x1 PUSH1 0x70 SHL SUB NOT PUSH1 0x1 PUSH1 0x48 SHL DUP5 DIV PUSH1 0x70 SHL AND PUSH1 0x80 DUP3 ADD MSTORE PUSH1 0x1 PUSH1 0xD8 SHL SWAP1 SWAP3 DIV AND ISZERO ISZERO PUSH1 0xA0 DUP3 ADD MSTORE SWAP2 POP POP SWAP2 SWAP1 POP JUMP JUMPDEST PUSH2 0xD3C PUSH2 0x4895 JUMP JUMPDEST PUSH2 0xC7E DUP3 TIMESTAMP PUSH2 0x1677 JUMP JUMPDEST PUSH1 0x0 PUSH2 0xC7E PUSH1 0x0 NOT DUP4 PUSH2 0x128B JUMP JUMPDEST PUSH1 0x0 DUP1 PUSH1 0x0 DUP1 PUSH2 0xD65 DUP10 DUP9 DUP8 PUSH2 0x863 JUMP JUMPDEST SWAP3 SWAP7 POP SWAP1 SWAP5 POP SWAP3 POP SWAP1 POP PUSH1 0x0 PUSH2 0xD7B DUP6 DUP9 PUSH2 0x1598 JUMP JUMPDEST SWAP1 POP PUSH1 0x0 DUP2 SLT ISZERO PUSH2 0xDBF JUMPI PUSH1 0x0 DUP8 SGT PUSH2 0xDA6 JUMPI PUSH1 0x40 MLOAD PUSH3 0x461BCD PUSH1 0xE5 SHL DUP2 MSTORE PUSH1 0x4 ADD PUSH2 0x193 SWAP1 PUSH2 0x52C1 JUMP JUMPDEST PUSH1 0x20 DUP10 ADD DUP1 MLOAD PUSH1 0x1 PUSH1 0xF9 SHL OR PUSH1 0x1 PUSH1 0x1 PUSH1 0xF8 SHL SUB NOT AND SWAP1 MSTORE JUMPDEST PUSH1 0x0 DUP2 ISZERO ISZERO DUP1 PUSH2 0xDCE JUMPI POP DUP5 ISZERO ISZERO JUMPDEST SWAP1 POP PUSH2 0xDE4 DUP11 PUSH2 0xFFFF DUP12 AND DUP4 PUSH1 0x1 PUSH1 0xFE SHL PUSH2 0x173D JUMP JUMPDEST PUSH2 0xDF3 DUP12 DUP11 DUP5 DUP9 DUP9 DUP9 DUP14 PUSH2 0x194D JUMP JUMPDEST POP POP POP POP POP POP POP POP POP POP POP JUMP JUMPDEST PUSH1 0x0 DUP4 PUSH2 0xE0F JUMPI POP PUSH1 0x0 PUSH2 0xE57 JUMP JUMPDEST PUSH1 0x0 DUP5 SGT PUSH2 0xE1C JUMPI PUSH1 0x0 DUP1 REVERT JUMPDEST PUSH1 0x0 PUSH2 0xE2B DUP7 PUSH2 0xFFFF AND PUSH2 0xC6B JUMP JUMPDEST SWAP1 POP PUSH1 0x0 PUSH2 0xE42 DUP3 PUSH2 0xE3D DUP8 DUP10 PUSH2 0x91D JUMP JUMPDEST PUSH2 0x1A88 JUMP JUMPDEST SWAP1 POP PUSH2 0xE51 DUP9 DUP9 DUP4 DUP9 DUP9 PUSH2 0x1AC3 JUMP JUMPDEST POP SWAP3 POP POP POP JUMPDEST SWAP6 SWAP5 POP POP POP POP POP JUMP JUMPDEST PUSH1 0x0 PUSH2 0xE6A PUSH2 0x1B80 JUMP JUMPDEST PUSH2 0xFFFF DUP5 AND PUSH1 0x0 SWAP1 DUP2 MSTORE PUSH1 0x20 SWAP2 SWAP1 SWAP2 MSTORE PUSH1 0x40 DUP2 KECCAK256 SLOAD PUSH1 0x1 PUSH1 0x1 PUSH1 0xA0 SHL SUB AND SWAP2 POP DUP3 SLT ISZERO PUSH2 0xE95 JUMPI SWAP3 SWAP4 SWAP3 JUMPDEST DUP1 PUSH1 0x1 PUSH1 0x1 PUSH1 0xA0 SHL SUB AND PUSH4 0x23DE6651 DUP7 DUP7 PUSH2 0xEAF DUP7 PUSH2 0x14E1 JUMP JUMPDEST PUSH1 0x40 MLOAD DUP5 PUSH4 0xFFFFFFFF AND PUSH1 0xE0 SHL DUP2 MSTORE PUSH1 0x4 ADD PUSH2 0xECD SWAP4 SWAP3 SWAP2 SWAP1 PUSH2 0x5177 JUMP JUMPDEST PUSH1 0x0 PUSH1 0x40 MLOAD DUP1 DUP4 SUB DUP2 PUSH1 0x0 DUP8 DUP1 EXTCODESIZE ISZERO DUP1 ISZERO PUSH2 0xEE7 JUMPI PUSH1 0x0 DUP1 REVERT JUMPDEST POP GAS CALL ISZERO DUP1 ISZERO PUSH2 0xEFB JUMPI RETURNDATASIZE PUSH1 0x0 DUP1 RETURNDATACOPY RETURNDATASIZE PUSH1 0x0 REVERT JUMPDEST POP POP POP POP POP POP POP POP POP JUMP JUMPDEST PUSH1 0x0 PUSH2 0xF10 PUSH2 0x4740 JUMP JUMPDEST PUSH1 0x0 DUP1 PUSH2 0xF23 DUP9 DUP9 DUP9 DUP9 PUSH1 0xE0 ADD MLOAD PUSH2 0x1B8D JUMP JUMPDEST DUP7 MLOAD PUSH1 0x40 MLOAD PUSH4 0xCA254153 PUSH1 0xE0 SHL DUP2 MSTORE SWAP3 SWAP5 POP SWAP1 SWAP3 POP PUSH20 0x0 SWAP2 PUSH4 0xCA254153 SWAP2 PUSH2 0xF68 SWAP2 DUP16 SWAP2 DUP16 SWAP2 DUP16 SWAP1 DUP10 SWAP1 PUSH1 0x4 ADD PUSH2 0x50B4 JUMP JUMPDEST PUSH2 0x180 PUSH1 0x40 MLOAD DUP1 DUP4 SUB DUP2 DUP7 DUP1 EXTCODESIZE ISZERO DUP1 ISZERO PUSH2 0xF81 JUMPI PUSH1 0x0 DUP1 REVERT JUMPDEST POP GAS DELEGATECALL ISZERO DUP1 ISZERO PUSH2 0xF95 JUMPI RETURNDATASIZE PUSH1 0x0 DUP1 RETURNDATACOPY RETURNDATASIZE PUSH1 0x0 REVERT JUMPDEST POP POP POP POP PUSH1 0x40 MLOAD RETURNDATASIZE PUSH1 0x1F NOT PUSH1 0x1F DUP3 ADD AND DUP3 ADD DUP1 PUSH1 0x40 MSTORE POP DUP2 ADD SWAP1 PUSH2 0xFB9 SWAP2 SWAP1 PUSH2 0x4E7B JUMP JUMPDEST SWAP6 MSTORE SWAP11 SWAP4 SWAP10 POP SWAP3 SWAP8 POP POP POP POP POP POP POP POP JUMP JUMPDEST PUSH1 0x0 PUSH2 0xFD5 PUSH2 0x166A JUMP JUMPDEST PUSH1 0x1 PUSH1 0x1 PUSH1 0xA0 SHL SUB DUP4 AND PUSH1 0x0 DUP2 DUP2 MSTORE PUSH1 0x20 DUP4 DUP2 MSTORE PUSH1 0x40 DUP1 DUP4 KECCAK256 DUP9 MLOAD DUP2 SLOAD SWAP4 DUP11 ADD MLOAD DUP11 DUP5 ADD MLOAD PUSH1 0x60 DUP13 ADD MLOAD PUSH1 0x80 DUP14 ADD MLOAD PUSH1 0xA0 DUP15 ADD MLOAD PUSH5 0xFFFFFFFFFF NOT SWAP1 SWAP9 AND PUSH5 0xFFFFFFFFFF SWAP1 SWAP6 AND SWAP5 SWAP1 SWAP5 OR PUSH6 0xFF0000000000 NOT AND PUSH1 0x1 PUSH1 0x28 SHL PUSH1 0xF8 SWAP5 SWAP1 SWAP5 SHR SWAP4 SWAP1 SWAP4 MUL SWAP3 SWAP1 SWAP3 OR PUSH7 0xFF000000000000 NOT AND PUSH1 0x1 PUSH1 0x30 SHL PUSH1 0xFF SWAP1 SWAP3 AND SWAP2 SWAP1 SWAP2 MUL OR PUSH9 0xFFFF00000000000000 NOT AND PUSH1 0x1 PUSH1 0x38 SHL PUSH2 0xFFFF SWAP1 SWAP3 AND SWAP2 SWAP1 SWAP2 MUL OR PUSH27 0xFFFFFFFFFFFFFFFFFFFFFFFFFFFFFFFFFFFF000000000000000000 NOT AND PUSH1 0x1 PUSH1 0x48 SHL PUSH1 0x70 SWAP3 SWAP1 SWAP3 SHR SWAP2 SWAP1 SWAP2 MUL OR PUSH1 0xFF PUSH1 0xD8 SHL NOT AND PUSH1 0x1 PUSH1 0xD8 SHL SWAP4 ISZERO ISZERO SWAP4 SWAP1 SWAP4 MUL SWAP3 SWAP1 SWAP3 OR SWAP1 SWAP2 SSTORE MLOAD SWAP3 SWAP4 POP SWAP1 SWAP2 PUSH32 0x6BD4B121BCA854A191536A2CA891155C42EE2FB23F307FB34E8BC65CFCB5412E SWAP2 SWAP1 LOG2 POP POP POP JUMP JUMPDEST PUSH1 0x0 DUP3 PUSH1 0x20 ADD MLOAD PUSH1 0x40 ADD MLOAD SLT PUSH2 0x10FD JUMPI PUSH1 0x0 DUP1 REVERT JUMPDEST PUSH1 0x0 DUP3 PUSH1 0x20 ADD MLOAD PUSH1 0x60 ADD MLOAD SGT PUSH2 0x1112 JUMPI PUSH1 0x0 DUP1 REVERT JUMPDEST PUSH2 0x111F DUP3 PUSH1 0x20 ADD MLOAD PUSH2 0x1C8F JUMP JUMPDEST PUSH1 0xC0 DUP5 ADD MSTORE PUSH1 0x80 DUP4 ADD DUP2 SWAP1 MSTORE PUSH1 0x20 DUP4 ADD MLOAD PUSH2 0x120 ADD MLOAD PUSH1 0x40 ADD MLOAD PUSH2 0x1142 SWAP2 PUSH2 0x91D JUMP JUMPDEST PUSH1 0x80 DUP4 ADD MSTORE PUSH1 0x0 JUMPDEST DUP6 DUP2 LT ISZERO PUSH2 0xEFB JUMPI DUP1 ISZERO PUSH2 0x118B JUMPI DUP7 DUP7 DUP3 DUP2 DUP2 LT PUSH2 0x1164 JUMPI INVALID JUMPDEST SWAP1 POP PUSH1 0x20 MUL ADD CALLDATALOAD DUP8 DUP8 PUSH1 0x1 DUP5 SUB DUP2 DUP2 LT PUSH2 0x117A JUMPI INVALID JUMPDEST SWAP1 POP PUSH1 0x20 MUL ADD CALLDATALOAD GT PUSH2 0x118B JUMPI PUSH1 0x0 DUP1 REVERT JUMPDEST PUSH1 0x0 PUSH2 0x119F DUP11 DUP6 DUP12 DUP12 DUP12 DUP8 DUP2 DUP2 LT PUSH2 0x9EA JUMPI INVALID JUMPDEST SWAP1 POP DUP1 PUSH2 0x11AC JUMPI POP PUSH2 0x123A JUMP JUMPDEST PUSH1 0x0 DUP2 SGT PUSH2 0x11B9 JUMPI PUSH1 0x0 DUP1 REVERT JUMPDEST PUSH2 0x11E6 DUP5 DUP10 DUP10 DUP6 DUP2 DUP2 LT PUSH2 0x11C9 JUMPI INVALID JUMPDEST SWAP1 POP PUSH1 0x20 MUL ADD CALLDATALOAD DUP6 PUSH2 0x11E0 DUP11 DUP11 DUP9 DUP2 DUP2 LT PUSH2 0xABA JUMPI INVALID JUMPDEST DUP6 PUSH2 0x1CE3 JUMP JUMPDEST DUP5 PUSH1 0xE0 ADD MLOAD DUP4 DUP2 MLOAD DUP2 LT PUSH2 0x11F6 JUMPI INVALID JUMPDEST PUSH1 0x20 MUL PUSH1 0x20 ADD ADD DUP2 DUP2 MSTORE POP POP PUSH1 0x0 DUP5 PUSH1 0x80 ADD MLOAD SGT ISZERO DUP1 PUSH2 0x121C JUMPI POP PUSH1 0x20 DUP5 ADD MLOAD PUSH1 0x60 ADD MLOAD ISZERO JUMPDEST DUP1 PUSH2 0x122D JUMPI POP PUSH1 0x20 DUP5 ADD MLOAD PUSH1 0x40 ADD MLOAD ISZERO JUMPDEST ISZERO PUSH2 0x1238 JUMPI POP PUSH2 0xEFB JUMP JUMPDEST POP JUMPDEST PUSH1 0x1 ADD PUSH2 0x114A JUMP JUMPDEST PUSH1 0x0 DUP1 PUSH2 0x952 PUSH1 0x6 PUSH2 0x1DF0 JUMP JUMPDEST PUSH1 0x8 DUP2 SWAP1 SHR PUSH1 0xFF SWAP1 SWAP2 AND SHL SWAP1 JUMP JUMPDEST PUSH1 0x0 DUP1 DUP3 SLT PUSH2 0x126D JUMPI POP DUP1 PUSH2 0x952 JUMP JUMPDEST DUP3 MLOAD PUSH1 0x20 DUP5 ADD MLOAD PUSH2 0x1284 SWAP2 SWAP1 PUSH2 0x949 SWAP1 DUP6 SWAP1 PUSH2 0x128B JUMP JUMPDEST SWAP1 POP PUSH2 0x952 JUMP JUMPDEST DUP2 DUP2 MUL PUSH1 0x0 NOT DUP4 EQ ISZERO PUSH2 0x12BB JUMPI DUP2 ISZERO DUP1 PUSH2 0x12AD JUMPI POP DUP3 DUP3 DUP3 DUP2 PUSH2 0x12AA JUMPI INVALID JUMPDEST SDIV EQ JUMPDEST PUSH2 0x12B6 JUMPI PUSH1 0x0 DUP1 REVERT JUMPDEST PUSH2 0x952 JUMP JUMPDEST DUP3 ISZERO DUP1 PUSH2 0x12D0 JUMPI POP DUP2 DUP4 DUP3 DUP2 PUSH2 0x12CD JUMPI INVALID JUMPDEST SDIV EQ JUMPDEST PUSH2 0x952 JUMPI PUSH1 0x0 DUP1 REVERT JUMPDEST PUSH1 0x0 DUP2 PUSH1 0x0 NOT EQ DUP1 ISZERO PUSH2 0x12EF JUMPI POP PUSH1 0x1 PUSH1 0xFF SHL DUP4 EQ JUMPDEST ISZERO PUSH2 0x12F9 JUMPI PUSH1 0x0 DUP1 REVERT JUMPDEST DUP2 DUP4 DUP2 PUSH2 0x1302 JUMPI INVALID JUMPDEST SDIV SWAP4 SWAP3 POP POP POP JUMP JUMPDEST PUSH1 0x0 DUP1 PUSH1 0x0 DUP6 SGT PUSH2 0x131F JUMPI DUP3 PUSH1 0x40 ADD MLOAD PUSH2 0x1325 JUMP JUMPDEST DUP3 PUSH1 0x60 ADD MLOAD JUMPDEST SWAP1 POP PUSH1 0x0 DUP2 SGT PUSH2 0x1334 JUMPI PUSH1 0x0 DUP1 REVERT JUMPDEST PUSH2 0x1356 DUP2 PUSH2 0x949 PUSH1 0x64 PUSH2 0x1350 PUSH2 0x1349 DUP10 PUSH2 0xD46 JUMP JUMPDEST DUP9 SWAP1 PUSH2 0x1E09 JUMP JUMPDEST SWAP1 PUSH2 0x128B JUMP JUMPDEST SWAP2 POP POP JUMPDEST SWAP4 SWAP3 POP POP POP JUMP JUMPDEST DUP3 MLOAD PUSH1 0x60 ADD MLOAD PUSH1 0x0 SWAP1 PUSH2 0xFFFF AND DUP4 EQ ISZERO PUSH2 0x1387 JUMPI PUSH2 0x1380 DUP6 DUP5 DUP5 PUSH2 0x1E2B JUMP JUMPDEST SWAP1 POP PUSH2 0x13FD JUMP JUMPDEST PUSH1 0x40 DUP5 ADD MLOAD MLOAD DUP1 MLOAD JUMPDEST PUSH1 0x0 NOT DUP2 ADD SWAP1 ISZERO PUSH2 0x13F6 JUMPI PUSH1 0x0 DUP3 DUP3 DUP2 MLOAD DUP2 LT PUSH2 0x13A9 JUMPI INVALID JUMPDEST PUSH1 0x20 MUL PUSH1 0x20 ADD ADD MLOAD SWAP1 POP DUP6 DUP2 PUSH1 0x0 ADD MLOAD PUSH2 0xFFFF AND EQ DUP1 ISZERO PUSH2 0x13CE JUMPI POP PUSH1 0x40 DUP2 ADD MLOAD PUSH1 0x1 EQ JUMPDEST DUP1 ISZERO PUSH2 0x13DD JUMPI POP DUP5 DUP2 PUSH1 0x20 ADD MLOAD EQ JUMPDEST ISZERO PUSH2 0x13F0 JUMPI PUSH1 0x60 ADD MLOAD SWAP3 POP PUSH2 0x13FD SWAP2 POP POP JUMP JUMPDEST POP PUSH2 0x1390 JUMP JUMPDEST POP PUSH1 0x0 SWAP2 POP POP JUMPDEST SWAP5 SWAP4 POP POP POP POP JUMP JUMPDEST PUSH1 0x0 DUP1 PUSH1 0x0 PUSH2 0x1424 DUP7 DUP7 DUP10 PUSH2 0x120 ADD MLOAD PUSH2 0x1E70 SWAP1 SWAP3 SWAP2 SWAP1 PUSH4 0xFFFFFFFF AND JUMP JUMPDEST SWAP1 POP DUP4 ISZERO PUSH2 0x146F JUMPI PUSH2 0x143C DUP8 PUSH2 0x120 ADD MLOAD DUP8 DUP8 PUSH2 0x1F59 JUMP JUMPDEST SWAP3 POP PUSH2 0x1468 PUSH2 0x144B DUP8 DUP8 PUSH2 0x1FA0 JUMP JUMPDEST PUSH2 0x1463 PUSH2 0x145C DUP11 PUSH2 0x120 ADD MLOAD PUSH2 0x1FB5 JUMP JUMPDEST DUP5 SWAP1 PUSH2 0x1FC2 JUMP JUMPDEST PUSH2 0x1FD4 JUMP JUMPDEST SWAP2 POP PUSH2 0x14C1 JUMP JUMPDEST PUSH2 0x147F DUP8 PUSH2 0x120 ADD MLOAD DUP8 DUP8 PUSH2 0x2047 JUMP JUMPDEST SWAP3 POP PUSH1 0x0 PUSH2 0x1491 DUP9 PUSH2 0x120 ADD MLOAD PUSH2 0x207D JUMP JUMPDEST SWAP1 POP PUSH2 0x14BD PUSH2 0x14A0 DUP9 DUP9 PUSH2 0x1FA0 JUMP JUMPDEST DUP3 DUP5 LT PUSH2 0x14B6 JUMPI PUSH2 0x14B1 DUP5 DUP5 PUSH2 0x1FA0 JUMP JUMPDEST PUSH2 0x1463 JUMP JUMPDEST PUSH1 0x0 PUSH2 0x1FD4 JUMP JUMPDEST SWAP3 POP POP JUMPDEST POP SWAP5 POP SWAP5 SWAP3 POP POP POP JUMP JUMPDEST DUP1 DUP3 SUB DUP3 DUP2 SGT ISZERO PUSH1 0x0 DUP4 SLT ISZERO EQ PUSH2 0x952 JUMPI PUSH1 0x0 DUP1 REVERT JUMPDEST PUSH1 0x0 DUP1 DUP3 SLT ISZERO PUSH2 0x14FB JUMPI PUSH2 0x14F4 DUP3 PUSH2 0xD46 JUMP JUMPDEST SWAP1 POP PUSH2 0xC81 JUMP JUMPDEST POP DUP1 PUSH2 0xC81 JUMP JUMPDEST PUSH1 0x0 PUSH2 0x94F PUSH2 0x1515 DUP5 PUSH4 0x3B9ACA00 PUSH2 0x128B JUMP JUMPDEST DUP4 PUSH2 0x12D9 JUMP JUMPDEST PUSH1 0x0 PUSH1 0x1 PUSH1 0x1 PUSH1 0xFF SHL SUB DUP3 GT ISZERO PUSH2 0x1531 JUMPI PUSH1 0x0 DUP1 REVERT JUMPDEST POP SWAP1 JUMP JUMPDEST PUSH1 0x0 DUP1 PUSH2 0x1548 PUSH1 0x64 PUSH2 0x949 DUP7 PUSH1 0x28 PUSH2 0x128B JUMP JUMPDEST SWAP1 POP DUP5 DUP5 DUP2 SGT ISZERO PUSH2 0x1556 JUMPI POP DUP4 JUMPDEST DUP2 DUP7 SLT ISZERO PUSH2 0x1561 JUMPI POP DUP1 JUMPDEST PUSH1 0x0 DUP5 SGT DUP1 ISZERO PUSH2 0x1570 JUMPI POP DUP4 DUP2 SGT JUMPDEST ISZERO PUSH2 0x1356 JUMPI POP SWAP2 SWAP5 SWAP4 POP POP POP POP JUMP JUMPDEST PUSH1 0x0 PUSH2 0x94F PUSH2 0x158E DUP5 DUP5 PUSH2 0x128B JUMP JUMPDEST PUSH4 0x3B9ACA00 PUSH2 0x12D9 JUMP JUMPDEST DUP2 DUP2 ADD DUP3 DUP2 SLT ISZERO PUSH1 0x0 DUP4 SLT ISZERO EQ PUSH2 0x952 JUMPI PUSH1 0x0 DUP1 REVERT JUMPDEST DUP2 MLOAD PUSH1 0x0 SWAP1 PUSH2 0x94F SWAP1 PUSH2 0x949 DUP5 PUSH15 0xC097CE7BC90715B34B9F1000000000 PUSH2 0x128B JUMP JUMPDEST PUSH2 0x15D8 PUSH2 0x4866 JUMP JUMPDEST PUSH1 0x0 PUSH2 0x15E2 PUSH2 0x208A JUMP JUMPDEST PUSH1 0x0 DUP6 DUP2 MSTORE PUSH1 0x20 DUP3 DUP2 MSTORE PUSH1 0x40 DUP1 DUP4 KECCAK256 DUP8 ISZERO ISZERO DUP5 MSTORE DUP3 MSTORE SWAP2 DUP3 SWAP1 KECCAK256 DUP3 MLOAD PUSH1 0xA0 DUP2 ADD DUP5 MSTORE DUP2 SLOAD PUSH1 0x1 PUSH1 0x1 PUSH1 0xA0 SHL SUB DUP2 AND DUP3 MSTORE PUSH1 0xFF PUSH1 0x1 PUSH1 0xA0 SHL DUP3 DIV DUP2 AND ISZERO ISZERO SWAP5 DUP4 ADD SWAP5 SWAP1 SWAP5 MSTORE PUSH1 0x1 PUSH1 0xB0 SHL DUP2 DIV DUP5 AND PUSH1 0xA EXP SWAP5 DUP3 ADD SWAP5 SWAP1 SWAP5 MSTORE SWAP4 SWAP5 POP SWAP3 SWAP2 PUSH1 0x60 DUP4 ADD SWAP2 PUSH1 0x1 PUSH1 0xA8 SHL SWAP1 SWAP2 DIV AND PUSH1 0x5 DUP2 GT ISZERO PUSH2 0x1657 JUMPI INVALID JUMPDEST DUP2 MSTORE PUSH1 0x0 PUSH1 0x20 SWAP1 SWAP2 ADD MSTORE SWAP6 SWAP5 POP POP POP POP POP JUMP JUMPDEST PUSH1 0x0 DUP1 PUSH2 0x952 PUSH1 0x1 PUSH2 0x1DF0 JUMP JUMPDEST PUSH2 0x167F PUSH2 0x4895 JUMP JUMPDEST PUSH1 0x0 PUSH2 0x168A DUP5 PUSH2 0x2097 JUMP JUMPDEST SWAP1 POP DUP3 DUP2 PUSH1 0x0 ADD MLOAD LT ISZERO PUSH2 0x16C9 JUMPI PUSH1 0x0 DUP1 PUSH2 0x16A4 DUP7 PUSH2 0x215F JUMP JUMPDEST SWAP1 POP PUSH2 0x16B2 DUP7 DUP5 DUP4 DUP9 PUSH2 0x21DC JUMP JUMPDEST SWAP1 SWAP4 POP SWAP2 POP PUSH2 0x16C2 DUP7 DUP4 DUP6 PUSH2 0x22DD JUMP JUMPDEST POP POP PUSH2 0x16D6 JUMP JUMPDEST DUP1 MLOAD DUP4 EQ PUSH2 0x16D6 JUMPI PUSH1 0x0 DUP1 REVERT JUMPDEST PUSH1 0x40 MLOAD DUP1 PUSH1 0x60 ADD PUSH1 0x40 MSTORE DUP1 PUSH2 0x1704 PUSH2 0x16FF DUP5 PUSH1 0xA0 ADD MLOAD DUP6 PUSH1 0xC0 ADD MLOAD PUSH2 0x2511 SWAP1 SWAP2 SWAP1 PUSH4 0xFFFFFFFF AND JUMP JUMPDEST PUSH2 0x151B JUMP JUMPDEST DUP2 MSTORE PUSH1 0x20 ADD PUSH2 0x1727 PUSH2 0x16FF DUP5 PUSH1 0xA0 ADD MLOAD DUP6 PUSH1 0xE0 ADD MLOAD PUSH2 0x2511 SWAP1 SWAP2 SWAP1 PUSH4 0xFFFFFFFF AND JUMP JUMPDEST DUP2 MSTORE PUSH1 0x20 ADD DUP3 PUSH1 0x60 ADD MLOAD DUP2 MSTORE POP SWAP2 POP POP SWAP3 SWAP2 POP POP JUMP JUMPDEST DUP3 PUSH1 0x0 LT DUP1 ISZERO PUSH2 0x174F JUMPI POP PUSH2 0x3FFF DUP4 GT ISZERO JUMPDEST PUSH2 0x1758 JUMPI PUSH1 0x0 DUP1 REVERT JUMPDEST DUP2 DUP1 ISZERO PUSH2 0x176C JUMPI POP DUP3 DUP5 PUSH1 0x60 ADD MLOAD PUSH2 0xFFFF AND EQ JUMPDEST ISZERO PUSH2 0x1776 JUMPI PUSH2 0x1947 JUMP JUMPDEST PUSH1 0x80 DUP5 ADD MLOAD PUSH1 0x0 SWAP1 DUP2 JUMPDEST PUSH1 0x1 PUSH1 0x1 PUSH1 0x70 SHL SUB NOT DUP3 AND ISZERO PUSH2 0x1901 JUMPI PUSH1 0xF0 DUP3 SWAP1 SHR PUSH2 0x3FFF AND DUP7 DUP2 EQ DUP1 ISZERO PUSH2 0x17A5 JUMPI POP DUP6 JUMPDEST ISZERO PUSH2 0x17DD JUMPI POP PUSH1 0x80 DUP8 ADD DUP1 MLOAD PUSH1 0x1 PUSH1 0x1 PUSH1 0xF0 SHL SUB NOT DUP7 AND PUSH1 0x10 SWAP1 SWAP4 MUL SWAP3 SWAP1 SWAP3 SHR SWAP2 SWAP1 SWAP2 OR PUSH1 0x1 PUSH1 0x1 PUSH1 0x70 SHL SUB NOT AND SWAP1 MSTORE POP PUSH2 0x1947 SWAP1 POP JUMP JUMPDEST DUP7 DUP2 EQ DUP1 ISZERO PUSH2 0x17EA JUMPI POP DUP6 ISZERO JUMPDEST ISZERO PUSH2 0x1846 JUMPI PUSH1 0x1 PUSH1 0x1 PUSH1 0xF0 SHL SUB NOT DUP6 AND NOT SWAP3 SWAP1 SWAP3 AND SWAP2 PUSH1 0x3 PUSH1 0xFE SHL DUP4 AND PUSH2 0x1824 JUMPI PUSH1 0x10 DUP4 PUSH14 0xFFFFFFFFFFFFFFFFFFFFFFFFFFFF NOT AND SWAP1 SHL SWAP3 POP JUMPDEST POP PUSH1 0x1 PUSH1 0x1 PUSH1 0x70 SHL SUB NOT SWAP2 DUP3 AND PUSH1 0x10 SWAP1 SWAP2 MUL SHR SWAP2 SWAP1 SWAP2 OR AND PUSH1 0x80 DUP6 ADD MSTORE PUSH2 0x1947 JUMP JUMPDEST DUP7 DUP2 GT DUP1 ISZERO PUSH2 0x1852 JUMPI POP DUP6 JUMPDEST ISZERO PUSH2 0x18AC JUMPI PUSH1 0x80 DUP9 DUP2 ADD MLOAD PUSH1 0x1 PUSH1 0x1 PUSH1 0xF0 SHL SUB NOT PUSH1 0xF0 DUP11 SWAP1 SHL DUP9 OR DUP2 AND PUSH1 0x10 DUP7 MUL SHR SWAP7 SWAP1 SWAP7 OR SWAP6 SWAP2 SHL AND ISZERO PUSH2 0x1886 JUMPI PUSH1 0x0 DUP1 REVERT JUMPDEST POP PUSH1 0x1 PUSH1 0x1 PUSH1 0x70 SHL SUB NOT SWAP2 DUP3 AND PUSH1 0x1 SWAP2 SWAP1 SWAP2 ADD PUSH1 0x10 MUL SHR SWAP2 SWAP1 SWAP2 OR AND PUSH1 0x80 DUP6 ADD MSTORE PUSH2 0x1947 JUMP JUMPDEST DUP7 DUP2 GT DUP1 ISZERO PUSH2 0x18B9 JUMPI POP DUP6 ISZERO JUMPDEST ISZERO PUSH2 0x18C7 JUMPI POP POP POP POP PUSH2 0x1947 JUMP JUMPDEST POP PUSH1 0x1 PUSH1 0x1 PUSH1 0xF0 SHL SUB NOT DUP3 AND PUSH1 0x10 DUP3 DUP2 MUL SWAP2 SWAP1 SWAP2 SHR SWAP4 SWAP1 SWAP4 OR SWAP3 SWAP2 SWAP1 SWAP2 SHL PUSH16 0xFFFFFFFFFFFFFFFFFFFFFFFFFFFFFFFF NOT AND SWAP1 PUSH1 0x1 ADD PUSH2 0x1780 JUMP JUMPDEST DUP5 PUSH2 0x190E JUMPI POP POP POP PUSH2 0x1947 JUMP JUMPDEST PUSH1 0x9 DUP2 LT PUSH2 0x191B JUMPI PUSH1 0x0 DUP1 REVERT JUMPDEST PUSH1 0x1 PUSH1 0x1 PUSH1 0xF0 SHL SUB NOT PUSH1 0xF0 DUP8 SWAP1 SHL DUP6 OR AND PUSH1 0x10 SWAP1 SWAP2 MUL SHR SWAP2 SWAP1 SWAP2 OR PUSH1 0x1 PUSH1 0x1 PUSH1 0x70 SHL SUB NOT AND PUSH1 0x80 DUP7 ADD MSTORE POP JUMPDEST POP POP POP POP JUMP JUMPDEST PUSH1 0x0 PUSH2 0x1957 PUSH2 0x1242 JUMP JUMPDEST PUSH1 0x1 PUSH1 0x1 PUSH1 0xA0 SHL SUB DUP10 AND PUSH1 0x0 SWAP1 DUP2 MSTORE PUSH1 0x20 DUP3 DUP2 MSTORE PUSH1 0x40 DUP1 DUP4 KECCAK256 PUSH2 0xFFFF DUP13 AND DUP5 MSTORE SWAP1 SWAP2 MSTORE SWAP1 KECCAK256 SWAP1 SWAP2 POP DUP5 PUSH2 0x19BF JUMPI PUSH7 0xFFFFFFFFFFFFFF DUP5 GT ISZERO PUSH2 0x1998 JUMPI PUSH1 0x0 DUP1 REVERT JUMPDEST DUP1 SLOAD PUSH7 0xFFFFFFFFFFFFFF PUSH1 0x70 SHL NOT AND PUSH1 0x1 PUSH1 0x70 SHL PUSH7 0xFFFFFFFFFFFFFF DUP7 AND MUL OR DUP2 SSTORE PUSH2 0x19D9 JUMP JUMPDEST DUP1 SLOAD PUSH1 0x1 PUSH1 0x50 SHL SWAP1 DIV PUSH4 0xFFFFFFFF AND DUP6 EQ PUSH2 0x19D9 JUMPI PUSH1 0x0 DUP1 REVERT JUMPDEST PUSH2 0x19E2 DUP6 PUSH2 0x2538 JUMP JUMPDEST DUP2 SLOAD PUSH4 0xFFFFFFFF SWAP2 SWAP1 SWAP2 AND PUSH1 0x1 PUSH1 0x50 SHL MUL PUSH4 0xFFFFFFFF PUSH1 0x50 SHL NOT SWAP1 SWAP2 AND OR DUP2 SSTORE PUSH2 0x1A13 PUSH2 0x1A0E DUP8 PUSH2 0x254B JUMP JUMPDEST PUSH2 0x255A JUMP JUMPDEST DUP2 SLOAD PUSH10 0xFFFFFFFFFFFFFFFFFFFF NOT AND PUSH1 0x1 PUSH1 0x1 PUSH1 0x50 SHL SUB SWAP2 SWAP1 SWAP2 AND OR DUP1 DUP3 SSTORE PUSH2 0x1A59 SWAP1 PUSH2 0x1A54 SWAP1 DUP6 SWAP1 DUP13 SWAP1 DUP13 SWAP1 PUSH1 0x1 PUSH1 0xA8 SHL SWAP1 DIV PUSH1 0xA SWAP1 DUP2 SIGNEXTEND SWAP1 SIGNEXTEND DUP13 PUSH2 0x2570 JUMP JUMPDEST PUSH2 0x2593 JUMP JUMPDEST DUP2 SLOAD PUSH1 0xA SWAP2 SWAP1 SWAP2 SIGNEXTEND PUSH1 0x1 PUSH1 0x1 PUSH1 0x58 SHL SUB AND PUSH1 0x1 PUSH1 0xA8 SHL MUL PUSH1 0x1 PUSH1 0x1 PUSH1 0xA8 SHL SUB SWAP1 SWAP2 AND OR SWAP1 SSTORE POP POP POP POP POP POP POP POP JUMP JUMPDEST PUSH1 0x0 PUSH4 0x5F5E100 DUP4 PUSH1 0x40 ADD MLOAD SLT ISZERO PUSH2 0x1AAF JUMPI PUSH2 0x1284 PUSH1 0x1 PUSH2 0x1AA9 DUP6 DUP6 PUSH2 0x25C5 JUMP JUMPDEST SWAP1 PUSH2 0x1598 JUMP JUMPDEST PUSH2 0x94F DUP4 PUSH2 0x1ABE DUP5 PUSH1 0x1 PUSH2 0x1598 JUMP JUMPDEST PUSH2 0x25C5 JUMP JUMPDEST PUSH1 0x0 DUP1 PUSH1 0x0 PUSH2 0x1AD1 DUP7 PUSH2 0x254B JUMP JUMPDEST SWAP1 POP DUP1 PUSH2 0x1AE5 JUMPI PUSH1 0x0 DUP1 SWAP3 POP SWAP3 POP POP PUSH2 0x1B76 JUMP JUMPDEST PUSH1 0x0 PUSH2 0x1AF4 DUP9 PUSH2 0xFFFF AND PUSH2 0xC6B JUMP JUMPDEST SWAP1 POP PUSH1 0x3 DUP2 PUSH1 0x60 ADD MLOAD PUSH1 0x5 DUP2 GT ISZERO PUSH2 0x1B08 JUMPI INVALID JUMPDEST EQ ISZERO PUSH2 0x1B4F JUMPI CALLVALUE DUP3 LT ISZERO PUSH2 0x1B28 JUMPI PUSH2 0x1B23 DUP10 DUP4 CALLVALUE SUB DUP8 PUSH2 0x25FD JUMP JUMPDEST PUSH2 0x1B47 JUMP JUMPDEST CALLVALUE DUP3 EQ PUSH2 0x1B47 JUMPI PUSH1 0x40 MLOAD PUSH3 0x461BCD PUSH1 0xE5 SHL DUP2 MSTORE PUSH1 0x4 ADD PUSH2 0x193 SWAP1 PUSH2 0x522B JUMP JUMPDEST DUP7 SWAP4 POP PUSH2 0x1B64 JUMP JUMPDEST PUSH2 0x1B61 PUSH2 0x16FF DUP3 PUSH1 0x0 ADD MLOAD DUP12 DUP6 PUSH2 0x26CA JUMP JUMPDEST SWAP4 POP JUMPDEST PUSH2 0x1B71 DUP10 DUP10 DUP7 DUP5 DUP11 PUSH2 0x2852 JUMP JUMPDEST SWAP3 POP POP POP JUMPDEST SWAP6 POP SWAP6 SWAP4 POP POP POP POP JUMP JUMPDEST PUSH1 0x0 DUP1 PUSH2 0x952 PUSH1 0x21 PUSH2 0x1DF0 JUMP JUMPDEST DUP1 MLOAD PUSH1 0x60 SWAP1 PUSH1 0x0 SWAP1 DUP5 EQ PUSH2 0x1BA0 JUMPI PUSH1 0x0 DUP1 REVERT JUMPDEST PUSH1 0x0 DUP5 PUSH1 0x1 PUSH1 0x1 PUSH1 0x40 SHL SUB DUP2 GT DUP1 ISZERO PUSH2 0x1BB8 JUMPI PUSH1 0x0 DUP1 REVERT JUMPDEST POP PUSH1 0x40 MLOAD SWAP1 DUP1 DUP3 MSTORE DUP1 PUSH1 0x20 MUL PUSH1 0x20 ADD DUP3 ADD PUSH1 0x40 MSTORE DUP1 ISZERO PUSH2 0x1BF2 JUMPI DUP2 PUSH1 0x20 ADD JUMPDEST PUSH2 0x1BDF PUSH2 0x4822 JUMP JUMPDEST DUP2 MSTORE PUSH1 0x20 ADD SWAP1 PUSH1 0x1 SWAP1 SUB SWAP1 DUP2 PUSH2 0x1BD7 JUMPI SWAP1 POP JUMPDEST POP SWAP1 POP PUSH1 0x0 DUP1 JUMPDEST DUP7 DUP2 LT ISZERO PUSH2 0x1C81 JUMPI PUSH1 0x0 DUP4 DUP3 DUP2 MLOAD DUP2 LT PUSH2 0x1C0F JUMPI INVALID JUMPDEST PUSH1 0x20 SWAP1 DUP2 MUL SWAP2 SWAP1 SWAP2 ADD ADD MLOAD PUSH2 0xFFFF DUP12 AND DUP2 MSTORE PUSH1 0x1 PUSH1 0x40 DUP3 ADD MSTORE DUP8 MLOAD SWAP1 SWAP2 POP DUP8 SWAP1 DUP4 SWAP1 DUP2 LT PUSH2 0x1C39 JUMPI INVALID JUMPDEST PUSH1 0x20 MUL PUSH1 0x20 ADD ADD MLOAD DUP2 PUSH1 0x60 ADD DUP2 DUP2 MSTORE POP POP DUP9 DUP9 DUP4 DUP2 DUP2 LT PUSH2 0x1C56 JUMPI INVALID JUMPDEST SWAP1 POP PUSH1 0x20 MUL ADD CALLDATALOAD DUP2 PUSH1 0x20 ADD DUP2 DUP2 MSTORE POP POP PUSH1 0x0 DUP2 PUSH1 0x60 ADD MLOAD SLT ISZERO PUSH2 0x1C78 JUMPI PUSH1 0x1 SWAP3 POP JUMPDEST POP PUSH1 0x1 ADD PUSH2 0x1BF9 JUMP JUMPDEST POP SWAP1 SWAP8 SWAP1 SWAP7 POP SWAP5 POP POP POP POP POP JUMP JUMPDEST PUSH1 0x0 DUP1 PUSH2 0x1CC0 PUSH2 0x1CB0 PUSH2 0x1CA5 DUP6 PUSH1 0x20 ADD MLOAD PUSH2 0xD46 JUMP JUMPDEST PUSH1 0xE0 DUP7 ADD MLOAD SWAP1 PUSH2 0x1E09 JUMP JUMPDEST PUSH2 0x120 DUP6 ADD MLOAD PUSH1 0x40 ADD MLOAD SWAP1 PUSH2 0x15AE JUMP JUMPDEST SWAP2 POP PUSH2 0x1CDC DUP4 PUSH1 0xE0 ADD MLOAD PUSH1 0x80 ADD MLOAD DUP5 PUSH1 0xC0 ADD MLOAD PUSH1 0x80 ADD MLOAD PUSH2 0x2899 JUMP JUMPDEST SWAP1 POP SWAP2 POP SWAP2 JUMP JUMPDEST PUSH1 0x0 DUP1 PUSH1 0x0 PUSH2 0x1CF9 DUP9 PUSH1 0x20 ADD MLOAD DUP9 DUP9 PUSH1 0x1 PUSH2 0x1405 JUMP JUMPDEST SWAP2 POP SWAP2 POP PUSH1 0x0 DUP1 PUSH2 0x1D3E DUP11 PUSH1 0x20 ADD MLOAD PUSH1 0xE0 ADD MLOAD PUSH1 0x60 ADD MLOAD PUSH2 0x1D38 DUP13 PUSH1 0xC0 ADD MLOAD PUSH2 0x949 PUSH1 0x64 DUP16 PUSH1 0x20 ADD MLOAD PUSH1 0xC0 ADD MLOAD PUSH1 0x40 ADD MLOAD PUSH2 0x128B SWAP1 SWAP2 SWAP1 PUSH4 0xFFFFFFFF AND JUMP JUMPDEST SWAP1 PUSH2 0x14CB JUMP JUMPDEST SWAP1 POP PUSH2 0x1D4F PUSH1 0x64 PUSH2 0x949 DUP6 DUP5 PUSH2 0x128B JUMP JUMPDEST SWAP1 POP PUSH1 0x0 PUSH2 0x1D5D DUP5 DUP7 PUSH2 0x14CB JUMP JUMPDEST SWAP1 POP PUSH2 0x1D69 DUP2 DUP4 PUSH2 0x1598 JUMP JUMPDEST SWAP3 POP POP POP PUSH1 0x0 PUSH2 0x1D86 DUP3 DUP12 PUSH1 0x80 ADD MLOAD PUSH2 0x1502 SWAP1 SWAP2 SWAP1 PUSH4 0xFFFFFFFF AND JUMP JUMPDEST SWAP1 POP PUSH2 0x1D93 DUP2 DUP8 DUP10 PUSH2 0x1535 JUMP JUMPDEST SWAP1 POP PUSH1 0x0 PUSH2 0x1DA3 DUP12 DUP6 DUP8 DUP6 PUSH2 0x28AF JUMP JUMPDEST SWAP1 SWAP3 POP SWAP1 POP PUSH1 0x0 PUSH2 0x1DB4 DUP4 DUP6 PUSH2 0x157F JUMP JUMPDEST PUSH1 0x80 DUP14 ADD MLOAD SWAP1 SWAP2 POP PUSH2 0x1DC6 SWAP1 DUP3 PUSH2 0x14CB JUMP JUMPDEST PUSH1 0x80 DUP14 ADD MSTORE PUSH1 0xA0 DUP13 ADD MLOAD PUSH2 0x1DDA SWAP1 DUP4 PUSH2 0x1598 JUMP JUMPDEST PUSH1 0xA0 DUP14 ADD MSTORE POP SWAP1 SWAP5 POP POP POP POP POP SWAP6 SWAP5 POP POP POP POP POP JUMP JUMPDEST PUSH1 0x0 PUSH3 0xF4240 DUP3 PUSH1 0x26 DUP2 GT ISZERO PUSH2 0x1E02 JUMPI INVALID JUMPDEST ADD SWAP3 SWAP2 POP POP JUMP JUMPDEST PUSH1 0x0 DUP1 PUSH2 0x13FD DUP5 PUSH1 0x20 ADD MLOAD PUSH2 0x949 DUP7 PUSH1 0x0 ADD MLOAD DUP7 PUSH2 0x128B SWAP1 SWAP2 SWAP1 PUSH4 0xFFFFFFFF AND JUMP JUMPDEST PUSH1 0x0 DUP1 PUSH2 0x1E36 PUSH2 0x299F JUMP JUMPDEST PUSH1 0x1 PUSH1 0x1 PUSH1 0xA0 SHL SUB DUP7 AND PUSH1 0x0 SWAP1 DUP2 MSTORE PUSH1 0x20 SWAP2 DUP3 MSTORE PUSH1 0x40 DUP1 DUP3 KECCAK256 DUP8 DUP4 MSTORE DUP4 MSTORE DUP1 DUP3 KECCAK256 DUP7 DUP4 MSTORE SWAP1 SWAP3 MSTORE KECCAK256 SLOAD PUSH1 0xF SWAP1 DUP2 SIGNEXTEND SWAP1 SIGNEXTEND SWAP2 POP POP SWAP4 SWAP3 POP POP POP JUMP JUMPDEST PUSH1 0x0 DUP1 PUSH1 0x0 PUSH2 0x1E84 DUP7 PUSH1 0x20 ADD MLOAD DUP7 DUP7 PUSH2 0x29AC JUMP JUMPDEST SWAP2 POP SWAP2 POP PUSH1 0x0 PUSH2 0x1E93 DUP8 PUSH2 0x2A34 JUMP JUMPDEST SWAP1 POP DUP2 PUSH2 0x1EB3 JUMPI DUP7 MLOAD PUSH2 0x1EAC SWAP1 PUSH2 0xFFFF AND DUP8 DUP4 DUP9 PUSH2 0x2A48 JUMP JUMPDEST SWAP4 POP PUSH2 0x1F4F JUMP JUMPDEST PUSH1 0x0 PUSH2 0x1EBE DUP7 PUSH2 0x2AE7 JUMP JUMPDEST SWAP1 POP PUSH1 0x0 PUSH2 0x1ED5 PUSH2 0x1ECE DUP7 PUSH2 0x2B05 JUMP JUMPDEST DUP4 SWAP1 PUSH2 0x1FC2 JUMP JUMPDEST SWAP1 POP PUSH1 0x0 PUSH2 0x1EED DUP11 PUSH1 0x0 ADD MLOAD PUSH2 0xFFFF AND DUP4 DUP7 DUP12 PUSH2 0x2A48 JUMP JUMPDEST SWAP1 POP PUSH1 0x0 DUP1 DUP8 PUSH1 0x1 EQ ISZERO PUSH2 0x1F0B JUMPI POP POP PUSH1 0x40 DUP1 DUP12 ADD MLOAD ADD MLOAD DUP9 PUSH2 0x1F3A JUMP JUMPDEST PUSH2 0x1F21 PUSH2 0x1F1A PUSH1 0x1 DUP11 SUB PUSH2 0x2B05 JUMP JUMPDEST DUP7 SWAP1 PUSH2 0x1FC2 JUMP JUMPDEST SWAP1 POP PUSH2 0x1F37 DUP13 PUSH1 0x0 ADD MLOAD PUSH2 0xFFFF AND DUP3 DUP9 DUP14 PUSH2 0x2A48 JUMP JUMPDEST SWAP2 POP JUMPDEST PUSH2 0x1F47 DUP2 DUP6 DUP5 DUP7 DUP16 PUSH2 0x2BA9 JUMP JUMPDEST SWAP9 POP POP POP POP POP POP JUMPDEST POP POP POP SWAP4 SWAP3 POP POP POP JUMP JUMPDEST PUSH1 0x0 DUP1 PUSH2 0x1F67 DUP6 DUP6 DUP6 PUSH2 0x2C0D JUMP JUMPDEST SWAP1 POP PUSH2 0x1F7C PUSH2 0x1F76 DUP6 DUP6 PUSH2 0x1FA0 JUMP JUMPDEST DUP3 PUSH2 0x1FD4 JUMP JUMPDEST SWAP2 POP PUSH1 0x0 PUSH2 0x1F89 DUP7 PUSH2 0x2C52 JUMP JUMPDEST SWAP1 POP DUP3 DUP2 SLT ISZERO PUSH2 0x1F97 JUMPI DUP1 SWAP3 POP JUMPDEST POP POP SWAP4 SWAP3 POP POP POP JUMP JUMPDEST PUSH1 0x0 DUP3 DUP3 GT ISZERO PUSH2 0x1FAF JUMPI PUSH1 0x0 DUP1 REVERT JUMPDEST POP SWAP1 SUB SWAP1 JUMP JUMPDEST PUSH1 0x0 PUSH2 0xC7E DUP3 PUSH1 0x38 PUSH2 0x2C6D JUMP JUMPDEST PUSH1 0x0 DUP3 DUP3 ADD DUP4 DUP2 LT ISZERO PUSH2 0x94F JUMPI PUSH1 0x0 DUP1 REVERT JUMPDEST PUSH1 0x0 DUP1 PUSH2 0x1FF7 PUSH2 0x1FF2 PUSH4 0x1DA9C00 PUSH2 0x1FEC DUP7 DUP9 PUSH2 0x2511 JUMP JUMPDEST SWAP1 PUSH2 0x2C80 JUMP JUMPDEST PUSH2 0x2C9F JUMP JUMPDEST SWAP1 POP PUSH2 0x2009 DUP2 PUSH3 0x1DCD65 PUSH1 0x49 SHL PUSH2 0x2CBD JUMP JUMPDEST SWAP1 POP PUSH2 0x201C PUSH2 0x2017 DUP3 PUSH2 0x2D10 JUMP JUMPDEST PUSH2 0x2D32 JUMP JUMPDEST SWAP1 POP PUSH2 0x202E DUP2 PUSH3 0x1DCD65 PUSH1 0x49 SHL PUSH2 0x2D87 JUMP JUMPDEST SWAP1 POP PUSH1 0x0 PUSH2 0x203B DUP3 PUSH2 0x2DBD JUMP JUMPDEST PUSH1 0x7 SIGNEXTEND SWAP6 SWAP5 POP POP POP POP POP JUMP JUMPDEST PUSH1 0x0 DUP1 PUSH2 0x2055 DUP6 DUP6 DUP6 PUSH2 0x2DC6 JUMP JUMPDEST SWAP1 POP DUP1 ISZERO PUSH2 0x206F JUMPI PUSH2 0x206A PUSH2 0x1F76 DUP6 DUP6 PUSH2 0x1FA0 JUMP JUMPDEST PUSH2 0x1356 JUMP JUMPDEST PUSH4 0x3B9ACA00 SWAP6 SWAP5 POP POP POP POP POP JUMP JUMPDEST PUSH1 0x0 PUSH2 0xC7E DUP3 PUSH1 0x40 PUSH2 0x2C6D JUMP JUMPDEST PUSH1 0x0 DUP1 PUSH2 0x952 PUSH1 0x7 PUSH2 0x1DF0 JUMP JUMPDEST PUSH2 0x209F PUSH2 0x48B6 JUMP JUMPDEST PUSH1 0x0 PUSH2 0x20A9 PUSH2 0x2E16 JUMP JUMPDEST PUSH2 0xFFFF SWAP4 DUP5 AND PUSH1 0x0 SWAP1 DUP2 MSTORE PUSH1 0x20 SWAP2 DUP3 MSTORE PUSH1 0x40 SWAP1 DUP2 SWAP1 KECCAK256 DUP1 SLOAD PUSH5 0xFFFFFFFFFF DUP2 AND DUP7 MSTORE PUSH1 0x1 PUSH1 0x28 SHL DUP2 DIV PUSH1 0x1 PUSH1 0x1 PUSH1 0x58 SHL SUB SWAP1 DUP2 AND SWAP5 DUP8 ADD SWAP5 SWAP1 SWAP5 MSTORE PUSH1 0x1 DUP3 ADD SLOAD DUP5 AND SWAP3 DUP7 ADD SWAP3 SWAP1 SWAP3 MSTORE PUSH1 0x1 PUSH1 0xD8 SHL DUP3 DIV PUSH4 0xFFFFFFFF AND PUSH1 0x60 DUP7 ADD MSTORE PUSH1 0x1 PUSH1 0x80 SHL SWAP1 SWAP2 DIV SWAP1 SWAP2 AND PUSH1 0x80 DUP5 ADD MSTORE PUSH1 0x2 ADD SLOAD PUSH1 0x1 PUSH1 0x1 PUSH1 0x50 SHL SUB DUP1 DUP3 AND PUSH1 0xA0 DUP6 ADD MSTORE PUSH1 0x1 PUSH1 0x50 SHL DUP3 DIV DUP2 AND PUSH1 0xC0 DUP6 ADD MSTORE PUSH1 0x1 PUSH1 0xA0 SHL DUP3 DIV AND PUSH1 0xE0 DUP5 ADD MSTORE PUSH1 0x1 PUSH1 0xF0 SHL SWAP1 DIV PUSH1 0xFF AND PUSH2 0x12C MUL SWAP1 SWAP3 AND PUSH2 0x100 DUP3 ADD MSTORE SWAP2 SWAP1 POP JUMP JUMPDEST PUSH1 0x0 DUP1 PUSH2 0x216B DUP4 PUSH2 0x2E23 JUMP JUMPDEST PUSH1 0x1 PUSH1 0x1 PUSH1 0xA0 SHL SUB AND PUSH4 0xEF81F216 PUSH1 0x40 MLOAD DUP2 PUSH4 0xFFFFFFFF AND PUSH1 0xE0 SHL DUP2 MSTORE PUSH1 0x4 ADD PUSH1 0x40 DUP1 MLOAD DUP1 DUP4 SUB DUP2 PUSH1 0x0 DUP8 DUP1 EXTCODESIZE ISZERO DUP1 ISZERO PUSH2 0x21A4 JUMPI PUSH1 0x0 DUP1 REVERT JUMPDEST POP GAS CALL ISZERO DUP1 ISZERO PUSH2 0x21B8 JUMPI RETURNDATASIZE PUSH1 0x0 DUP1 RETURNDATACOPY RETURNDATASIZE PUSH1 0x0 REVERT JUMPDEST POP POP POP POP PUSH1 0x40 MLOAD RETURNDATASIZE PUSH1 0x1F NOT PUSH1 0x1F DUP3 ADD AND DUP3 ADD DUP1 PUSH1 0x40 MSTORE POP DUP2 ADD SWAP1 PUSH2 0x13FD SWAP2 SWAP1 PUSH2 0x4FCE JUMP JUMPDEST PUSH2 0x21E4 PUSH2 0x48B6 JUMP JUMPDEST PUSH1 0x0 DUP1 PUSH1 0x0 PUSH2 0x21F4 DUP9 DUP7 DUP10 PUSH2 0x2E53 JUMP JUMPDEST PUSH1 0xC0 DUP12 ADD SWAP3 SWAP1 SWAP3 MSTORE PUSH1 0xE0 DUP11 ADD SWAP3 SWAP1 SWAP3 MSTORE PUSH1 0x20 DUP10 ADD MLOAD SWAP2 SWAP4 POP SWAP2 POP PUSH2 0x2218 SWAP1 DUP4 PUSH2 0x1FC2 JUMP JUMPDEST PUSH1 0x20 DUP9 ADD MSTORE PUSH1 0x80 DUP8 ADD MLOAD PUSH1 0x0 SWAP1 ISZERO PUSH2 0x2246 JUMPI PUSH1 0x80 DUP9 ADD MLOAD PUSH2 0x2243 SWAP1 PUSH2 0x223D DUP10 DUP3 PUSH2 0x1FA0 JUMP JUMPDEST SWAP1 PUSH2 0x2F5E JUMP JUMPDEST SWAP1 POP JUMPDEST PUSH2 0x2266 PUSH2 0x225B PUSH8 0xDE0B6B3A7640000 DUP4 PUSH2 0x1FC2 JUMP JUMPDEST PUSH1 0xA0 DUP11 ADD MLOAD SWAP1 PUSH2 0x2F7B JUMP JUMPDEST PUSH1 0xA0 DUP10 ADD MSTORE POP PUSH1 0x80 DUP8 ADD DUP7 SWAP1 MSTORE PUSH1 0x0 PUSH2 0x227D PUSH2 0x2F98 JUMP JUMPDEST PUSH2 0xFFFF DUP11 AND PUSH1 0x0 SWAP1 DUP2 MSTORE PUSH1 0x20 SWAP2 SWAP1 SWAP2 MSTORE PUSH1 0x40 SWAP1 KECCAK256 SLOAD DUP9 MLOAD PUSH4 0xFFFFFFFF PUSH1 0x1 PUSH1 0xA0 SHL SWAP1 SWAP3 DIV DUP3 AND SWAP3 POP PUSH2 0x22C8 SWAP2 PUSH2 0x22B7 SWAP1 DUP6 SWAP1 DUP6 SWAP1 PUSH2 0x1FC2 AND JUMP JUMPDEST DUP11 PUSH1 0x60 ADD MLOAD DUP12 PUSH2 0x100 ADD MLOAD DUP11 PUSH2 0x2FA5 JUMP JUMPDEST PUSH1 0x60 DUP10 ADD MSTORE POP POP SWAP3 DUP6 MSTORE POP SWAP3 SWAP5 SWAP1 SWAP4 POP SWAP2 POP POP JUMP JUMPDEST PUSH1 0x0 PUSH2 0x22E7 PUSH2 0x2E16 JUMP JUMPDEST PUSH1 0x0 DUP6 PUSH2 0xFFFF AND DUP2 MSTORE PUSH1 0x20 ADD SWAP1 DUP2 MSTORE PUSH1 0x20 ADD PUSH1 0x0 KECCAK256 SWAP1 POP PUSH2 0x230B DUP3 PUSH1 0x0 ADD MLOAD PUSH2 0x3020 JUMP JUMPDEST DUP2 SLOAD PUSH5 0xFFFFFFFFFF NOT AND PUSH5 0xFFFFFFFFFF SWAP2 SWAP1 SWAP2 AND OR DUP2 SSTORE PUSH1 0xA0 DUP3 ADD MLOAD PUSH2 0x2330 SWAP1 PUSH2 0x255A JUMP JUMPDEST PUSH1 0x2 DUP3 ADD DUP1 SLOAD PUSH10 0xFFFFFFFFFFFFFFFFFFFF NOT AND PUSH1 0x1 PUSH1 0x1 PUSH1 0x50 SHL SUB SWAP3 SWAP1 SWAP3 AND SWAP2 SWAP1 SWAP2 OR SWAP1 SSTORE PUSH1 0xC0 DUP3 ADD MLOAD PUSH2 0x2363 SWAP1 PUSH2 0x255A JUMP JUMPDEST DUP2 PUSH1 0x2 ADD PUSH1 0xA PUSH2 0x100 EXP DUP2 SLOAD DUP2 PUSH1 0x1 PUSH1 0x1 PUSH1 0x50 SHL SUB MUL NOT AND SWAP1 DUP4 PUSH1 0x1 PUSH1 0x1 PUSH1 0x50 SHL SUB AND MUL OR SWAP1 SSTORE POP PUSH2 0x2398 DUP3 PUSH1 0xE0 ADD MLOAD PUSH2 0x255A JUMP JUMPDEST DUP2 PUSH1 0x2 ADD PUSH1 0x14 PUSH2 0x100 EXP DUP2 SLOAD DUP2 PUSH1 0x1 PUSH1 0x1 PUSH1 0x50 SHL SUB MUL NOT AND SWAP1 DUP4 PUSH1 0x1 PUSH1 0x1 PUSH1 0x50 SHL SUB AND MUL OR SWAP1 SSTORE POP PUSH2 0x23CD DUP3 PUSH1 0x20 ADD MLOAD PUSH2 0x3034 JUMP JUMPDEST DUP2 SLOAD PUSH1 0x1 PUSH1 0x1 PUSH1 0x58 SHL SUB SWAP2 SWAP1 SWAP2 AND PUSH1 0x1 PUSH1 0x28 SHL MUL PUSH16 0xFFFFFFFFFFFFFFFFFFFFFF0000000000 NOT SWAP1 SWAP2 AND OR DUP2 SSTORE PUSH1 0x40 DUP3 ADD MLOAD PUSH2 0x2407 SWAP1 PUSH2 0x3034 JUMP JUMPDEST PUSH1 0x1 DUP3 ADD DUP1 SLOAD PUSH11 0xFFFFFFFFFFFFFFFFFFFFFF NOT AND PUSH1 0x1 PUSH1 0x1 PUSH1 0x58 SHL SUB SWAP3 SWAP1 SWAP3 AND SWAP2 SWAP1 SWAP2 OR SWAP1 SSTORE PUSH1 0x80 DUP3 ADD MLOAD PUSH2 0x243B SWAP1 PUSH2 0x3034 JUMP JUMPDEST DUP2 SLOAD PUSH1 0x1 PUSH1 0x1 PUSH1 0x58 SHL SUB SWAP2 SWAP1 SWAP2 AND PUSH1 0x1 PUSH1 0x80 SHL MUL PUSH11 0xFFFFFFFFFFFFFFFFFFFFFF PUSH1 0x80 SHL NOT SWAP1 SWAP2 AND OR DUP2 SSTORE PUSH1 0x60 DUP3 ADD MLOAD PUSH2 0x2473 SWAP1 PUSH2 0x2538 JUMP JUMPDEST DUP2 SLOAD PUSH4 0xFFFFFFFF SWAP2 SWAP1 SWAP2 AND PUSH1 0x1 PUSH1 0xD8 SHL MUL PUSH4 0xFFFFFFFF PUSH1 0xD8 SHL NOT SWAP1 SWAP2 AND OR DUP2 SSTORE DUP3 ISZERO PUSH2 0x24BF JUMPI PUSH1 0x0 PUSH2 0x24A4 DUP5 PUSH2 0x151B JUMP JUMPDEST SWAP1 POP PUSH2 0x24B0 DUP6 DUP3 PUSH2 0x304A JUMP JUMPDEST PUSH2 0x24BD PUSH2 0xFEE DUP7 DUP4 PUSH2 0x3081 JUMP JUMPDEST POP JUMPDEST DUP4 PUSH2 0xFFFF AND PUSH32 0xEF25641E225E493886510CA1AD6584FA7B442B9FEA820A29D1DE3CE27D270FD2 DUP4 PUSH1 0xA0 ADD MLOAD DUP5 PUSH1 0xC0 ADD MLOAD DUP6 PUSH1 0xE0 ADD MLOAD PUSH1 0x40 MLOAD PUSH2 0x2503 SWAP4 SWAP3 SWAP2 SWAP1 PUSH2 0x5356 JUMP JUMPDEST PUSH1 0x40 MLOAD DUP1 SWAP2 SUB SWAP1 LOG2 POP POP POP POP JUMP JUMPDEST PUSH1 0x0 DUP3 PUSH2 0x2520 JUMPI POP PUSH1 0x0 PUSH2 0x952 JUMP JUMPDEST DUP3 DUP3 MUL DUP3 DUP5 DUP3 DUP2 PUSH2 0x252D JUMPI INVALID JUMPDEST DIV EQ PUSH2 0x94F JUMPI PUSH1 0x0 DUP1 REVERT JUMPDEST PUSH1 0x0 PUSH4 0xFFFFFFFF DUP3 GT ISZERO PUSH2 0x1531 JUMPI PUSH1 0x0 DUP1 REVERT JUMPDEST PUSH1 0x0 DUP1 DUP3 SLT ISZERO PUSH2 0x1531 JUMPI PUSH1 0x0 DUP1 REVERT JUMPDEST PUSH1 0x0 PUSH1 0x1 PUSH1 0x1 PUSH1 0x50 SHL SUB DUP3 GT ISZERO PUSH2 0x1531 JUMPI PUSH1 0x0 DUP1 REVERT JUMPDEST PUSH1 0x0 PUSH2 0x257C DUP7 DUP4 PUSH2 0x310B JUMP JUMPDEST SWAP1 POP PUSH2 0xE57 DUP7 DUP7 DUP7 PUSH2 0x258E DUP8 DUP7 PUSH2 0x3144 JUMP JUMPDEST PUSH2 0x31CB JUMP JUMPDEST PUSH1 0x0 PUSH11 0x7FFFFFFFFFFFFFFFFFFFFF NOT DUP3 SLT DUP1 ISZERO SWAP1 PUSH2 0x25BC JUMPI POP PUSH11 0x7FFFFFFFFFFFFFFFFFFFFF DUP3 SGT ISZERO JUMPDEST PUSH2 0x1531 JUMPI PUSH1 0x0 DUP1 REVERT JUMPDEST PUSH1 0x0 PUSH4 0x5F5E100 DUP4 PUSH1 0x40 ADD MLOAD EQ ISZERO PUSH2 0x25DE JUMPI POP DUP1 PUSH2 0x952 JUMP JUMPDEST PUSH2 0x94F PUSH4 0x5F5E100 PUSH2 0x949 DUP6 PUSH1 0x40 ADD MLOAD DUP6 PUSH2 0x128B SWAP1 SWAP2 SWAP1 PUSH4 0xFFFFFFFF AND JUMP JUMPDEST DUP1 ISZERO PUSH2 0x268F JUMPI PUSH20 0x82AF49447D8A07E3BD95BD0D56F35241523FBAB1 PUSH1 0x1 PUSH1 0x1 PUSH1 0xA0 SHL SUB AND PUSH4 0xD0E30DB0 DUP4 PUSH1 0x40 MLOAD DUP3 PUSH4 0xFFFFFFFF AND PUSH1 0xE0 SHL DUP2 MSTORE PUSH1 0x4 ADD PUSH1 0x0 PUSH1 0x40 MLOAD DUP1 DUP4 SUB DUP2 DUP6 DUP9 DUP1 EXTCODESIZE ISZERO DUP1 ISZERO PUSH2 0x2652 JUMPI PUSH1 0x0 DUP1 REVERT JUMPDEST POP GAS CALL ISZERO DUP1 ISZERO PUSH2 0x2666 JUMPI RETURNDATASIZE PUSH1 0x0 DUP1 RETURNDATACOPY RETURNDATASIZE PUSH1 0x0 REVERT JUMPDEST POP POP POP POP POP PUSH2 0x268A PUSH20 0x82AF49447D8A07E3BD95BD0D56F35241523FBAB1 DUP5 DUP5 PUSH2 0x31FF JUMP JUMPDEST PUSH2 0x26C5 JUMP JUMPDEST PUSH1 0x40 MLOAD PUSH1 0x1 PUSH1 0x1 PUSH1 0xA0 SHL SUB DUP5 AND SWAP1 DUP4 ISZERO PUSH2 0x8FC MUL SWAP1 DUP5 SWAP1 PUSH1 0x0 DUP2 DUP2 DUP2 DUP6 DUP9 DUP9 CALL SWAP4 POP POP POP POP ISZERO DUP1 ISZERO PUSH2 0x1947 JUMPI RETURNDATASIZE PUSH1 0x0 DUP1 RETURNDATACOPY RETURNDATASIZE PUSH1 0x0 REVERT JUMPDEST POP POP POP JUMP JUMPDEST PUSH1 0x0 DUP1 DUP5 PUSH1 0x1 PUSH1 0x1 PUSH1 0xA0 SHL SUB AND PUSH4 0x70A08231 ADDRESS PUSH1 0x40 MLOAD DUP3 PUSH4 0xFFFFFFFF AND PUSH1 0xE0 SHL DUP2 MSTORE PUSH1 0x4 ADD DUP1 DUP3 PUSH1 0x1 PUSH1 0x1 PUSH1 0xA0 SHL SUB AND DUP2 MSTORE PUSH1 0x20 ADD SWAP2 POP POP PUSH1 0x20 PUSH1 0x40 MLOAD DUP1 DUP4 SUB DUP2 DUP7 DUP1 EXTCODESIZE ISZERO DUP1 ISZERO PUSH2 0x271A JUMPI PUSH1 0x0 DUP1 REVERT JUMPDEST POP GAS STATICCALL ISZERO DUP1 ISZERO PUSH2 0x272E JUMPI RETURNDATASIZE PUSH1 0x0 DUP1 RETURNDATACOPY RETURNDATASIZE PUSH1 0x0 REVERT JUMPDEST POP POP POP POP PUSH1 0x40 MLOAD RETURNDATASIZE PUSH1 0x20 DUP2 LT ISZERO PUSH2 0x2744 JUMPI PUSH1 0x0 DUP1 REVERT JUMPDEST POP MLOAD PUSH1 0x40 DUP1 MLOAD PUSH4 0x23B872DD PUSH1 0xE0 SHL DUP2 MSTORE PUSH1 0x1 PUSH1 0x1 PUSH1 0xA0 SHL SUB DUP8 DUP2 AND PUSH1 0x4 DUP4 ADD MSTORE ADDRESS PUSH1 0x24 DUP4 ADD MSTORE PUSH1 0x44 DUP3 ADD DUP8 SWAP1 MSTORE SWAP2 MLOAD SWAP3 SWAP4 POP SWAP1 DUP8 AND SWAP2 PUSH4 0x23B872DD SWAP2 PUSH1 0x64 DUP1 DUP3 ADD SWAP3 PUSH1 0x0 SWAP3 SWAP1 SWAP2 SWAP1 DUP3 SWAP1 SUB ADD DUP2 DUP4 DUP8 DUP1 EXTCODESIZE ISZERO DUP1 ISZERO PUSH2 0x27A1 JUMPI PUSH1 0x0 DUP1 REVERT JUMPDEST POP GAS CALL ISZERO DUP1 ISZERO PUSH2 0x27B5 JUMPI RETURNDATASIZE PUSH1 0x0 DUP1 RETURNDATACOPY RETURNDATASIZE PUSH1 0x0 REVERT JUMPDEST POP POP POP POP PUSH2 0x27C1 PUSH2 0x3272 JUMP JUMPDEST PUSH1 0x0 DUP6 PUSH1 0x1 PUSH1 0x1 PUSH1 0xA0 SHL SUB AND PUSH4 0x70A08231 ADDRESS PUSH1 0x40 MLOAD DUP3 PUSH4 0xFFFFFFFF AND PUSH1 0xE0 SHL DUP2 MSTORE PUSH1 0x4 ADD DUP1 DUP3 PUSH1 0x1 PUSH1 0x1 PUSH1 0xA0 SHL SUB AND DUP2 MSTORE PUSH1 0x20 ADD SWAP2 POP POP PUSH1 0x20 PUSH1 0x40 MLOAD DUP1 DUP4 SUB DUP2 DUP7 DUP1 EXTCODESIZE ISZERO DUP1 ISZERO PUSH2 0x2810 JUMPI PUSH1 0x0 DUP1 REVERT JUMPDEST POP GAS STATICCALL ISZERO DUP1 ISZERO PUSH2 0x2824 JUMPI RETURNDATASIZE PUSH1 0x0 DUP1 RETURNDATACOPY RETURNDATASIZE PUSH1 0x0 REVERT JUMPDEST POP POP POP POP PUSH1 0x40 MLOAD RETURNDATASIZE PUSH1 0x20 DUP2 LT ISZERO PUSH2 0x283A JUMPI PUSH1 0x0 DUP1 REVERT JUMPDEST POP MLOAD SWAP1 POP PUSH2 0x2848 DUP2 DUP4 PUSH2 0x1FA0 JUMP JUMPDEST SWAP7 SWAP6 POP POP POP POP POP POP JUMP JUMPDEST PUSH1 0x0 DUP1 PUSH2 0x285F DUP5 DUP7 PUSH2 0x32E3 JUMP JUMPDEST SWAP1 POP PUSH2 0x286B DUP4 DUP3 PUSH2 0x15AE JUMP JUMPDEST SWAP2 POP PUSH2 0x2878 DUP8 DUP8 DUP5 PUSH2 0x3081 JUMP JUMPDEST PUSH2 0x2883 DUP7 DUP4 DUP4 PUSH2 0x3313 JUMP JUMPDEST DUP4 MLOAD PUSH2 0x288F SWAP1 DUP7 PUSH2 0x3406 JUMP JUMPDEST POP SWAP6 SWAP5 POP POP POP POP POP JUMP JUMPDEST PUSH1 0x0 DUP2 DUP4 SGT PUSH2 0x28A8 JUMPI DUP2 PUSH2 0x94F JUMP JUMPDEST POP SWAP1 SWAP2 SWAP1 POP JUMP JUMPDEST PUSH1 0x0 DUP1 DUP1 PUSH2 0x28BD DUP5 DUP8 PUSH2 0x157F JUMP JUMPDEST SWAP1 POP PUSH1 0x0 PUSH2 0x28CB DUP6 DUP8 PUSH2 0x157F JUMP JUMPDEST PUSH1 0x20 DUP10 ADD MLOAD PUSH1 0x60 DUP2 ADD MLOAD PUSH2 0x120 SWAP1 SWAP2 ADD MLOAD PUSH1 0x40 ADD MLOAD SWAP2 SWAP3 POP PUSH1 0x0 SWAP2 PUSH2 0x28EF SWAP2 PUSH2 0x91D JUMP JUMPDEST SWAP1 POP DUP1 DUP3 SGT ISZERO PUSH2 0x2915 JUMPI PUSH2 0x2903 DUP2 DUP9 PUSH2 0x1502 JUMP JUMPDEST SWAP6 POP SWAP1 POP DUP1 PUSH2 0x2912 DUP7 DUP10 PUSH2 0x157F JUMP JUMPDEST SWAP3 POP JUMPDEST PUSH1 0x0 PUSH2 0x292B DUP11 PUSH1 0x20 ADD MLOAD DUP12 PUSH1 0xC0 ADD MLOAD DUP7 DUP11 PUSH2 0x3460 JUMP JUMPDEST PUSH1 0x20 DUP13 ADD MLOAD PUSH2 0x120 ADD MLOAD PUSH1 0x40 ADD MLOAD SWAP2 SWAP9 POP SWAP2 POP PUSH2 0x295B SWAP1 PUSH2 0x294C SWAP1 DUP6 PUSH2 0x15AE JUMP JUMPDEST PUSH1 0x20 DUP13 ADD MLOAD PUSH1 0x60 ADD MLOAD SWAP1 PUSH2 0x34ED JUMP JUMPDEST PUSH1 0x20 DUP12 ADD MLOAD PUSH1 0x60 ADD MSTORE PUSH1 0x0 DUP2 SLT ISZERO PUSH2 0x2972 JUMPI PUSH1 0x0 DUP1 REVERT JUMPDEST PUSH1 0x20 DUP11 ADD MLOAD PUSH1 0x40 ADD MLOAD PUSH2 0x2985 SWAP1 DUP3 PUSH2 0x1598 JUMP JUMPDEST PUSH1 0x20 DUP12 ADD MLOAD PUSH1 0x40 ADD MSTORE DUP7 SWAP6 POP SWAP4 POP POP POP POP SWAP5 POP SWAP5 SWAP3 POP POP POP JUMP JUMPDEST PUSH1 0x0 DUP1 PUSH2 0x952 PUSH1 0xC PUSH2 0x1DF0 JUMP JUMPDEST PUSH1 0x0 DUP1 PUSH1 0x0 DUP6 GT PUSH2 0x29BC JUMPI PUSH1 0x0 DUP1 REVERT JUMPDEST PUSH1 0x7 DUP6 GT ISZERO PUSH2 0x29CA JUMPI PUSH1 0x0 DUP1 REVERT JUMPDEST PUSH1 0x0 PUSH2 0x29D5 DUP5 PUSH2 0x2AE7 JUMP JUMPDEST SWAP1 POP PUSH1 0x1 JUMPDEST DUP7 DUP2 GT PUSH2 0x2A26 JUMPI PUSH1 0x0 PUSH2 0x29EF PUSH2 0x145C DUP4 PUSH2 0x2B05 JUMP JUMPDEST SWAP1 POP DUP7 DUP2 EQ ISZERO PUSH2 0x2A07 JUMPI POP SWAP3 POP PUSH1 0x0 SWAP2 POP PUSH2 0x2A2C SWAP1 POP JUMP JUMPDEST DUP7 DUP2 GT ISZERO PUSH2 0x2A1D JUMPI POP SWAP3 POP PUSH1 0x1 SWAP2 POP PUSH2 0x2A2C SWAP1 POP JUMP JUMPDEST POP PUSH1 0x1 ADD PUSH2 0x29DA JUMP JUMPDEST POP PUSH1 0x0 DUP1 REVERT JUMPDEST SWAP4 POP SWAP4 SWAP2 POP POP JUMP JUMPDEST PUSH1 0x60 ADD MLOAD PUSH2 0x12C PUSH1 0x8 SWAP2 SWAP1 SWAP2 SHR PUSH1 0xFF AND MUL SWAP1 JUMP JUMPDEST PUSH1 0x0 DUP1 PUSH2 0x2A53 PUSH2 0x3509 JUMP JUMPDEST SWAP1 POP PUSH1 0x0 PUSH3 0x76A700 PUSH2 0x2A64 DUP6 PUSH2 0x2AE7 JUMP JUMPDEST PUSH1 0x0 DUP10 DUP2 MSTORE PUSH1 0x20 DUP6 DUP2 MSTORE PUSH1 0x40 DUP1 DUP4 KECCAK256 DUP12 DUP5 MSTORE DUP3 MSTORE DUP1 DUP4 KECCAK256 SWAP5 SWAP1 SWAP4 ADD DUP1 DUP4 MSTORE SWAP4 SWAP1 MSTORE KECCAK256 DUP1 SLOAD SWAP2 SWAP3 POP SWAP1 PUSH4 0xFFFFFFFF PUSH1 0x1 PUSH1 0xA0 SHL DUP3 DIV DUP2 AND SWAP2 PUSH1 0x1 PUSH1 0xC0 SHL DUP2 DIV DUP3 AND SWAP2 PUSH1 0x1 PUSH1 0xE0 SHL SWAP1 SWAP2 DIV AND DUP2 PUSH2 0x2ACB JUMPI PUSH1 0x40 MLOAD PUSH3 0x461BCD PUSH1 0xE5 SHL DUP2 MSTORE PUSH1 0x4 ADD PUSH2 0x193 SWAP1 PUSH2 0x51FB JUMP JUMPDEST PUSH2 0x2AD8 DUP2 DUP5 DUP5 DUP13 DUP13 PUSH2 0x2FA5 JUMP JUMPDEST SWAP12 SWAP11 POP POP POP POP POP POP POP POP POP POP POP JUMP JUMPDEST PUSH1 0x0 PUSH3 0x76A700 DUP3 LT ISZERO PUSH2 0x2AF9 JUMPI PUSH1 0x0 DUP1 REVERT JUMPDEST POP PUSH3 0x76A700 DUP2 MOD SWAP1 SUB SWAP1 JUMP JUMPDEST PUSH1 0x0 DUP2 PUSH1 0x1 EQ ISZERO PUSH2 0x2B1A JUMPI POP PUSH3 0x76A700 PUSH2 0xC81 JUMP JUMPDEST DUP2 PUSH1 0x2 EQ ISZERO PUSH2 0x2B2D JUMPI POP PUSH3 0xED4E00 PUSH2 0xC81 JUMP JUMPDEST DUP2 PUSH1 0x3 EQ ISZERO PUSH2 0x2B41 JUMPI POP PUSH4 0x1DA9C00 PUSH2 0xC81 JUMP JUMPDEST DUP2 PUSH1 0x4 EQ ISZERO PUSH2 0x2B55 JUMPI POP PUSH4 0x3B53800 PUSH2 0xC81 JUMP JUMPDEST DUP2 PUSH1 0x5 EQ ISZERO PUSH2 0x2B69 JUMPI POP PUSH4 0x9450C00 PUSH2 0xC81 JUMP JUMPDEST DUP2 PUSH1 0x6 EQ ISZERO PUSH2 0x2B7D JUMPI POP PUSH4 0x128A1800 PUSH2 0xC81 JUMP JUMPDEST DUP2 PUSH1 0x7 EQ ISZERO PUSH2 0x2B91 JUMPI POP PUSH4 0x25143000 PUSH2 0xC81 JUMP JUMPDEST PUSH1 0x40 MLOAD PUSH3 0x461BCD PUSH1 0xE5 SHL DUP2 MSTORE PUSH1 0x4 ADD PUSH2 0x193 SWAP1 PUSH2 0x5250 JUMP JUMPDEST PUSH1 0x0 DUP2 DUP7 LT PUSH2 0x2BB7 JUMPI PUSH1 0x0 DUP1 REVERT JUMPDEST DUP5 DUP3 LT PUSH2 0x2BC3 JUMPI PUSH1 0x0 DUP1 REVERT JUMPDEST DUP4 DUP4 LT PUSH2 0x2BEF JUMPI PUSH2 0x2BE8 DUP5 PUSH2 0x2BE2 DUP9 DUP9 SUB PUSH2 0x1FEC DUP4 DUP9 SUB DUP12 DUP9 SUB PUSH2 0x2511 JUMP JUMPDEST SWAP1 PUSH2 0x1FC2 JUMP JUMPDEST SWAP1 POP PUSH2 0xE57 JUMP JUMPDEST PUSH2 0x2BE8 PUSH2 0x2C06 DUP8 DUP8 SUB PUSH2 0x1FEC DUP7 DUP9 SUB DUP11 DUP8 SUB PUSH2 0x2511 JUMP JUMPDEST DUP6 SWAP1 PUSH2 0x1FA0 JUMP JUMPDEST PUSH1 0x0 PUSH2 0x2C1A DUP5 DUP5 DUP5 PUSH2 0x1E70 JUMP JUMPDEST SWAP1 POP PUSH2 0x2C2F PUSH2 0x2C28 DUP6 PUSH2 0x3516 JUMP JUMPDEST DUP3 SWAP1 PUSH2 0x1FC2 JUMP JUMPDEST SWAP1 POP PUSH1 0x0 PUSH2 0x2C3C DUP6 PUSH2 0x3523 JUMP JUMPDEST SWAP1 POP DUP1 DUP3 LT ISZERO PUSH2 0x2C4A JUMPI DUP1 SWAP2 POP JUMPDEST POP SWAP4 SWAP3 POP POP POP JUMP JUMPDEST PUSH1 0x60 ADD MLOAD PUSH3 0x7A120 PUSH1 0x10 SWAP2 SWAP1 SWAP2 SHR PUSH1 0xFF AND MUL PUSH4 0x3B9ACA00 SUB SWAP1 JUMP JUMPDEST PUSH1 0x60 SWAP1 SWAP2 ADD MLOAD PUSH1 0xFF SWAP2 SHR AND PUSH3 0x2625A0 MUL SWAP1 JUMP JUMPDEST PUSH1 0x0 DUP1 DUP3 GT PUSH2 0x2C8E JUMPI PUSH1 0x0 DUP1 REVERT JUMPDEST DUP2 DUP4 DUP2 PUSH2 0x2C97 JUMPI INVALID JUMPDEST DIV SWAP4 SWAP3 POP POP POP JUMP JUMPDEST PUSH1 0x0 PUSH8 0x7FFFFFFFFFFFFFFF DUP3 GT ISZERO PUSH2 0x2CB6 JUMPI PUSH1 0x0 DUP1 REVERT JUMPDEST POP PUSH1 0x40 SHL SWAP1 JUMP JUMPDEST PUSH1 0x0 DUP2 PUSH1 0xF SIGNEXTEND PUSH1 0x0 EQ ISZERO PUSH2 0x2CD0 JUMPI PUSH1 0x0 DUP1 REVERT JUMPDEST PUSH1 0x0 DUP3 PUSH1 0xF SIGNEXTEND PUSH1 0x40 DUP6 PUSH1 0xF SIGNEXTEND SWAP1 SHL DUP2 PUSH2 0x2CE5 JUMPI INVALID JUMPDEST SDIV SWAP1 POP PUSH1 0x1 PUSH1 0x1 PUSH1 0x7F SHL SUB NOT DUP2 SLT DUP1 ISZERO SWAP1 PUSH2 0x2D07 JUMPI POP PUSH1 0x1 PUSH1 0x1 PUSH1 0x7F SHL SUB DUP2 SGT ISZERO JUMPDEST PUSH2 0x94F JUMPI PUSH1 0x0 DUP1 REVERT JUMPDEST PUSH1 0x0 PUSH1 0xF DUP3 SWAP1 SIGNEXTEND PUSH1 0x1 PUSH1 0x1 PUSH1 0x7F SHL SUB NOT EQ ISZERO PUSH2 0x2D2B JUMPI PUSH1 0x0 DUP1 REVERT JUMPDEST POP PUSH1 0x0 SUB SWAP1 JUMP JUMPDEST PUSH1 0x0 PUSH1 0x1 PUSH1 0x46 SHL DUP3 PUSH1 0xF SIGNEXTEND SLT PUSH2 0x2D47 JUMPI PUSH1 0x0 DUP1 REVERT JUMPDEST PUSH9 0x3FFFFFFFFFFFFFFFFF NOT DUP3 PUSH1 0xF SIGNEXTEND SLT ISZERO PUSH2 0x2D64 JUMPI POP PUSH1 0x0 PUSH2 0xC81 JUMP JUMPDEST PUSH2 0xC7E PUSH1 0x80 DUP4 PUSH1 0xF SIGNEXTEND PUSH17 0x171547652B82FE1777D0FFDA0D23A7D12 MUL SWAP1 SAR PUSH2 0x3530 JUMP JUMPDEST PUSH1 0x0 PUSH1 0xF DUP4 DUP2 SIGNEXTEND SWAP1 DUP4 SWAP1 SIGNEXTEND MUL PUSH1 0x40 SAR PUSH1 0x1 PUSH1 0x1 PUSH1 0x7F SHL SUB NOT DUP2 SLT DUP1 ISZERO SWAP1 PUSH2 0x2D07 JUMPI POP PUSH1 0x1 PUSH1 0x1 PUSH1 0x7F SHL SUB DUP2 SGT ISZERO PUSH2 0x94F JUMPI PUSH1 0x0 DUP1 REVERT JUMPDEST PUSH1 0xF SIGNEXTEND PUSH1 0x40 SAR SWAP1 JUMP JUMPDEST PUSH1 0x0 PUSH2 0x2DD3 DUP5 DUP5 DUP5 PUSH2 0x1E70 JUMP JUMPDEST SWAP1 POP PUSH1 0x0 PUSH2 0x2DE0 DUP6 PUSH2 0x3FE0 JUMP JUMPDEST SWAP1 POP DUP1 DUP3 GT PUSH2 0x2DF3 JUMPI PUSH1 0x0 SWAP2 POP POP PUSH2 0x135A JUMP JUMPDEST DUP1 DUP3 SUB SWAP2 POP PUSH1 0x0 PUSH2 0x2E03 DUP7 PUSH2 0x3FED JUMP JUMPDEST SWAP1 POP DUP3 DUP2 LT ISZERO PUSH2 0x1F97 JUMPI SWAP6 SWAP5 POP POP POP POP POP JUMP JUMPDEST PUSH1 0x0 DUP1 PUSH2 0x952 PUSH1 0x1D PUSH2 0x1DF0 JUMP JUMPDEST PUSH1 0x0 DUP1 PUSH2 0x2E2E PUSH2 0x3FFA JUMP JUMPDEST PUSH2 0xFFFF SWAP4 SWAP1 SWAP4 AND PUSH1 0x0 SWAP1 DUP2 MSTORE PUSH1 0x20 SWAP4 SWAP1 SWAP4 MSTORE POP POP PUSH1 0x40 SWAP1 KECCAK256 SLOAD PUSH1 0x1 PUSH1 0x1 PUSH1 0xA0 SHL SUB AND SWAP1 JUMP JUMPDEST PUSH1 0x0 DUP1 PUSH1 0x0 DUP1 PUSH1 0x0 DUP1 PUSH2 0x2E66 DUP10 DUP9 PUSH2 0x4007 JUMP JUMPDEST DUP10 MLOAD SWAP1 SWAP6 POP SWAP2 SWAP4 POP SWAP2 POP PUSH1 0x0 SWAP1 PUSH2 0x2E8D SWAP1 PUSH2 0x2E82 SWAP1 DUP12 SWAP1 PUSH2 0x1FA0 JUMP JUMPDEST PUSH4 0x3B9ACA00 SWAP1 PUSH2 0x2511 JUMP JUMPDEST SWAP1 POP PUSH2 0x2EC7 PUSH2 0x2EBC PUSH4 0x1DA9C00 PUSH2 0x2EA4 DUP6 DUP6 PUSH2 0x2511 JUMP JUMPDEST DUP2 PUSH2 0x2EAB JUMPI INVALID JUMPDEST PUSH8 0xDE0B6B3A7640000 SWAP2 SWAP1 DIV PUSH2 0x1FC2 JUMP JUMPDEST PUSH1 0xE0 DUP11 ADD MLOAD SWAP1 PUSH2 0x2F7B JUMP JUMPDEST SWAP7 POP PUSH2 0x2EE9 PUSH2 0x2EDE PUSH4 0x1DA9C00 PUSH2 0x2EA4 DUP8 DUP6 PUSH2 0x2511 JUMP JUMPDEST PUSH1 0xC0 DUP11 ADD MLOAD SWAP1 PUSH2 0x2F7B JUMP JUMPDEST SWAP6 POP DUP2 DUP4 EQ ISZERO PUSH2 0x2F00 JUMPI POP PUSH1 0x0 SWAP4 POP PUSH2 0x2F55 SWAP2 POP POP JUMP JUMPDEST PUSH1 0x0 PUSH2 0x2F22 PUSH2 0x2F17 PUSH4 0x1DA9C00 PUSH2 0x2EA4 DUP8 DUP7 PUSH2 0x2511 JUMP JUMPDEST PUSH1 0xE0 DUP12 ADD MLOAD SWAP1 PUSH2 0x2F7B JUMP JUMPDEST SWAP1 POP PUSH1 0x0 PUSH2 0x2F30 DUP10 DUP4 PUSH2 0x1FA0 JUMP JUMPDEST SWAP1 POP PUSH2 0x2F4D DUP9 PUSH2 0x1FEC DUP4 DUP14 PUSH1 0x40 ADD MLOAD PUSH2 0x2511 SWAP1 SWAP2 SWAP1 PUSH4 0xFFFFFFFF AND JUMP JUMPDEST SWAP7 POP POP POP POP POP POP JUMPDEST SWAP4 POP SWAP4 POP SWAP4 POP SWAP4 JUMP JUMPDEST PUSH1 0x0 PUSH2 0x94F PUSH2 0x2F75 DUP5 PUSH8 0xDE0B6B3A7640000 PUSH2 0x2511 JUMP JUMPDEST DUP4 PUSH2 0x2C80 JUMP JUMPDEST PUSH1 0x0 PUSH2 0x94F PUSH2 0x2F8A DUP5 DUP5 PUSH2 0x2511 JUMP JUMPDEST PUSH8 0xDE0B6B3A7640000 PUSH2 0x2C80 JUMP JUMPDEST PUSH1 0x0 DUP1 PUSH2 0x952 PUSH1 0x25 PUSH2 0x1DF0 JUMP JUMPDEST PUSH1 0x0 DUP1 DUP4 GT PUSH2 0x2FB3 JUMPI PUSH1 0x0 DUP1 REVERT JUMPDEST DUP2 DUP7 GT ISZERO PUSH2 0x2FC2 JUMPI POP DUP4 PUSH2 0xE57 JUMP JUMPDEST PUSH1 0x0 PUSH2 0x2FCE DUP4 DUP9 PUSH2 0x1FA0 JUMP JUMPDEST SWAP1 POP DUP4 DUP2 GT ISZERO PUSH2 0x2FE1 JUMPI DUP6 SWAP2 POP POP PUSH2 0xE57 JUMP JUMPDEST PUSH1 0x0 PUSH2 0x2FED DUP3 DUP7 PUSH2 0x40A2 JUMP JUMPDEST SWAP1 POP PUSH1 0x0 PUSH2 0x2FFF PUSH4 0x3B9ACA00 DUP4 PUSH2 0x1FA0 JUMP JUMPDEST SWAP1 POP PUSH2 0x6FA PUSH4 0x3B9ACA00 PUSH2 0x1FEC PUSH2 0x3016 DUP11 DUP6 PUSH2 0x2511 JUMP JUMPDEST PUSH2 0x2BE2 DUP13 DUP8 PUSH2 0x2511 JUMP JUMPDEST PUSH1 0x0 PUSH5 0xFFFFFFFFFF DUP3 GT ISZERO PUSH2 0x1531 JUMPI PUSH1 0x0 DUP1 REVERT JUMPDEST PUSH1 0x0 PUSH1 0x1 PUSH1 0x1 PUSH1 0x58 SHL SUB DUP3 GT ISZERO PUSH2 0x1531 JUMPI PUSH1 0x0 DUP1 REVERT JUMPDEST PUSH1 0x0 DUP2 SLT ISZERO PUSH2 0x3058 JUMPI PUSH1 0x0 DUP1 REVERT JUMPDEST PUSH1 0x0 PUSH2 0x3066 PUSH2 0xFEE DUP5 PUSH2 0x40B5 JUMP JUMPDEST SWAP1 POP PUSH2 0x3072 DUP2 DUP4 PUSH2 0x1598 JUMP JUMPDEST SWAP1 POP PUSH2 0x26C5 PUSH2 0xFEE DUP5 DUP4 PUSH2 0x410E JUMP JUMPDEST PUSH1 0x0 PUSH2 0x308B PUSH2 0x1B80 JUMP JUMPDEST PUSH2 0xFFFF DUP5 AND PUSH1 0x0 SWAP1 DUP2 MSTORE PUSH1 0x20 SWAP2 SWAP1 SWAP2 MSTORE PUSH1 0x40 SWAP1 DUP2 SWAP1 KECCAK256 SLOAD SWAP1 MLOAD PUSH4 0xAD1C095D PUSH1 0xE0 SHL DUP2 MSTORE PUSH1 0x1 PUSH1 0x1 PUSH1 0xA0 SHL SUB SWAP1 SWAP2 AND SWAP2 POP DUP2 SWAP1 PUSH4 0xAD1C095D SWAP1 PUSH2 0x30D3 SWAP1 DUP8 SWAP1 DUP7 SWAP1 PUSH1 0x4 ADD PUSH2 0x519B JUMP JUMPDEST PUSH1 0x0 PUSH1 0x40 MLOAD DUP1 DUP4 SUB DUP2 PUSH1 0x0 DUP8 DUP1 EXTCODESIZE ISZERO DUP1 ISZERO PUSH2 0x30ED JUMPI PUSH1 0x0 DUP1 REVERT JUMPDEST POP GAS CALL ISZERO DUP1 ISZERO PUSH2 0x3101 JUMPI RETURNDATASIZE PUSH1 0x0 DUP1 RETURNDATACOPY RETURNDATASIZE PUSH1 0x0 REVERT JUMPDEST POP POP POP POP POP POP POP POP JUMP JUMPDEST PUSH1 0x0 DUP1 DUP3 SLT ISZERO PUSH2 0x313E JUMPI PUSH2 0x3139 PUSH1 0x1 PUSH2 0x1D38 DUP6 PUSH1 0x20 ADD MLOAD PUSH2 0x949 DUP8 PUSH1 0x0 ADD MLOAD DUP8 PUSH2 0x128B SWAP1 SWAP2 SWAP1 PUSH4 0xFFFFFFFF AND JUMP JUMPDEST PUSH2 0x94F JUMP JUMPDEST POP SWAP2 SWAP1 POP JUMP JUMPDEST PUSH1 0x0 DUP2 DUP4 EQ DUP1 PUSH2 0x3161 JUMPI POP PUSH1 0x0 DUP4 SLT ISZERO DUP1 ISZERO PUSH2 0x3161 JUMPI POP PUSH1 0x0 DUP3 SLT ISZERO JUMPDEST ISZERO PUSH2 0x316E JUMPI POP PUSH1 0x0 PUSH2 0x952 JUMP JUMPDEST PUSH1 0x0 DUP4 SGT ISZERO DUP1 ISZERO PUSH2 0x317F JUMPI POP DUP2 PUSH1 0x0 SLT JUMPDEST ISZERO PUSH2 0x318B JUMPI POP DUP2 PUSH2 0x952 JUMP JUMPDEST PUSH1 0x0 DUP3 SGT ISZERO DUP1 ISZERO PUSH2 0x319C JUMPI POP DUP3 PUSH1 0x0 SLT JUMPDEST ISZERO PUSH2 0x31AA JUMPI PUSH2 0x1284 DUP3 PUSH2 0xD46 JUMP JUMPDEST PUSH1 0x0 DUP4 SGT ISZERO DUP1 ISZERO PUSH2 0x31BC JUMPI POP PUSH1 0x0 DUP3 SGT ISZERO JUMPDEST ISZERO PUSH2 0x7B JUMPI PUSH2 0x1284 DUP4 DUP4 PUSH2 0x14CB JUMP JUMPDEST DUP1 ISZERO PUSH2 0x1947 JUMPI DUP4 MLOAD PUSH1 0x20 DUP6 ADD MLOAD PUSH1 0x0 SWAP2 PUSH2 0x31EA SWAP2 PUSH2 0x949 SWAP1 DUP6 SWAP1 PUSH2 0x128B JUMP JUMPDEST SWAP1 POP PUSH2 0x31F8 DUP5 DUP5 DUP5 DUP5 PUSH2 0x4182 JUMP JUMPDEST POP POP POP POP POP JUMP JUMPDEST DUP3 PUSH1 0x1 PUSH1 0x1 PUSH1 0xA0 SHL SUB AND PUSH4 0xA9059CBB DUP4 DUP4 PUSH1 0x40 MLOAD DUP4 PUSH4 0xFFFFFFFF AND PUSH1 0xE0 SHL DUP2 MSTORE PUSH1 0x4 ADD DUP1 DUP4 PUSH1 0x1 PUSH1 0x1 PUSH1 0xA0 SHL SUB AND DUP2 MSTORE PUSH1 0x20 ADD DUP3 DUP2 MSTORE PUSH1 0x20 ADD SWAP3 POP POP POP PUSH1 0x0 PUSH1 0x40 MLOAD DUP1 DUP4 SUB DUP2 PUSH1 0x0 DUP8 DUP1 EXTCODESIZE ISZERO DUP1 ISZERO PUSH2 0x3256 JUMPI PUSH1 0x0 DUP1 REVERT JUMPDEST POP GAS CALL ISZERO DUP1 ISZERO PUSH2 0x326A JUMPI RETURNDATASIZE PUSH1 0x0 DUP1 RETURNDATACOPY RETURNDATASIZE PUSH1 0x0 REVERT JUMPDEST POP POP POP POP PUSH2 0x26C5 JUMPDEST PUSH1 0x0 PUSH2 0x327C PUSH2 0x4902 JUMP JUMPDEST RETURNDATASIZE DUP1 ISZERO PUSH2 0x3290 JUMPI PUSH1 0x20 DUP2 EQ PUSH2 0x3299 JUMPI PUSH1 0x0 DUP1 REVERT JUMPDEST PUSH1 0x1 SWAP3 POP PUSH2 0x32A4 JUMP JUMPDEST PUSH1 0x20 PUSH1 0x0 DUP4 RETURNDATACOPY DUP2 MLOAD SWAP3 POP JUMPDEST POP DUP2 PUSH2 0x32DF JUMPI PUSH1 0x40 DUP1 MLOAD PUSH3 0x461BCD PUSH1 0xE5 SHL DUP2 MSTORE PUSH1 0x20 PUSH1 0x4 DUP3 ADD MSTORE PUSH1 0x5 PUSH1 0x24 DUP3 ADD MSTORE PUSH5 0x455243323 PUSH1 0xDC SHL PUSH1 0x44 DUP3 ADD MSTORE SWAP1 MLOAD SWAP1 DUP2 SWAP1 SUB PUSH1 0x64 ADD SWAP1 REVERT JUMPDEST POP POP JUMP JUMPDEST PUSH1 0x0 PUSH4 0x5F5E100 DUP4 PUSH1 0x40 ADD MLOAD EQ ISZERO PUSH2 0x32FC JUMPI POP DUP1 PUSH2 0x952 JUMP JUMPDEST PUSH1 0x40 DUP4 ADD MLOAD PUSH2 0x94F SWAP1 PUSH2 0x949 DUP5 PUSH4 0x5F5E100 PUSH2 0x128B JUMP JUMPDEST PUSH1 0x0 PUSH2 0x331D PUSH2 0x2E16 JUMP JUMPDEST PUSH2 0xFFFF DUP6 AND PUSH1 0x0 SWAP1 DUP2 MSTORE PUSH1 0x20 SWAP2 SWAP1 SWAP2 MSTORE PUSH1 0x40 SWAP1 KECCAK256 DUP1 SLOAD SWAP1 SWAP2 POP PUSH5 0xFFFFFFFFFF AND TIMESTAMP EQ PUSH2 0x3348 JUMPI PUSH1 0x0 DUP1 REVERT JUMPDEST DUP1 SLOAD PUSH1 0x0 SWAP1 PUSH2 0x3367 SWAP1 PUSH1 0x1 PUSH1 0x28 SHL SWAP1 DIV PUSH1 0x1 PUSH1 0x1 PUSH1 0x58 SHL SUB AND DUP6 PUSH2 0x1598 JUMP JUMPDEST DUP3 SLOAD SWAP1 SWAP2 POP PUSH1 0x0 SWAP1 PUSH2 0x3389 SWAP1 PUSH1 0x1 PUSH1 0x80 SHL SWAP1 DIV PUSH1 0x1 PUSH1 0x1 PUSH1 0x58 SHL SUB AND DUP6 PUSH2 0x1598 JUMP JUMPDEST SWAP1 POP PUSH2 0x339C PUSH2 0x3397 DUP3 PUSH2 0x254B JUMP JUMPDEST PUSH2 0x3034 JUMP JUMPDEST DUP4 SLOAD PUSH1 0x1 PUSH1 0x1 PUSH1 0x58 SHL SUB SWAP2 SWAP1 SWAP2 AND PUSH1 0x1 PUSH1 0x80 SHL MUL PUSH11 0xFFFFFFFFFFFFFFFFFFFFFF PUSH1 0x80 SHL NOT SWAP1 SWAP2 AND OR DUP4 SSTORE PUSH2 0x33D2 PUSH2 0x3397 DUP4 PUSH2 0x254B JUMP JUMPDEST DUP4 SLOAD PUSH1 0x1 PUSH1 0x1 PUSH1 0x58 SHL SUB SWAP2 SWAP1 SWAP2 AND PUSH1 0x1 PUSH1 0x28 SHL MUL PUSH16 0xFFFFFFFFFFFFFFFFFFFFFF0000000000 NOT SWAP1 SWAP2 AND OR SWAP1 SWAP3 SSTORE POP POP POP POP POP JUMP JUMPDEST PUSH1 0x0 PUSH2 0x3410 PUSH2 0x42BF JUMP JUMPDEST PUSH1 0x1 PUSH1 0x1 PUSH1 0xA0 SHL SUB DUP5 AND PUSH1 0x0 SWAP1 DUP2 MSTORE PUSH1 0x20 DUP3 SWAP1 MSTORE PUSH1 0x40 SWAP1 KECCAK256 SLOAD SWAP1 SWAP2 POP PUSH2 0x343E PUSH2 0x3439 DUP3 DUP6 PUSH2 0x1598 JUMP JUMPDEST PUSH2 0x254B JUMP JUMPDEST PUSH1 0x1 PUSH1 0x1 PUSH1 0xA0 SHL SUB SWAP1 SWAP5 AND PUSH1 0x0 SWAP1 DUP2 MSTORE PUSH1 0x20 SWAP3 SWAP1 SWAP3 MSTORE POP PUSH1 0x40 SWAP1 KECCAK256 SWAP2 SWAP1 SWAP2 SSTORE POP JUMP JUMPDEST PUSH1 0x0 DUP1 PUSH1 0x0 PUSH2 0x3493 DUP7 PUSH2 0x949 PUSH2 0x347E DUP11 PUSH1 0xC0 ADD MLOAD DUP12 PUSH1 0xE0 ADD MLOAD PUSH2 0x42CC JUMP JUMPDEST PUSH1 0xC0 DUP12 ADD MLOAD MLOAD PUSH2 0x949 SWAP1 PUSH2 0x1350 DUP12 PUSH1 0x64 PUSH2 0x128B JUMP JUMPDEST SWAP1 POP PUSH1 0x0 PUSH2 0x34AF DUP3 DUP10 PUSH2 0x100 ADD MLOAD PUSH2 0x15AE SWAP1 SWAP2 SWAP1 PUSH4 0xFFFFFFFF AND JUMP JUMPDEST SWAP1 POP PUSH1 0x0 PUSH2 0x34C0 DUP10 PUSH1 0x40 ADD MLOAD PUSH2 0xD46 JUMP JUMPDEST SWAP1 POP DUP1 DUP3 SGT ISZERO PUSH2 0x34DE JUMPI PUSH2 0x34D8 DUP3 PUSH2 0x949 DUP9 DUP5 PUSH2 0x128B JUMP JUMPDEST SWAP6 POP DUP1 SWAP2 POP JUMPDEST POP SWAP4 SWAP8 SWAP4 SWAP7 POP SWAP3 SWAP5 POP POP POP POP POP JUMP JUMPDEST PUSH1 0x0 PUSH2 0x34F9 DUP4 DUP4 PUSH2 0x14CB JUMP JUMPDEST SWAP1 POP PUSH1 0x0 DUP2 SLT ISZERO PUSH2 0x952 JUMPI PUSH1 0x0 DUP1 REVERT JUMPDEST PUSH1 0x0 DUP1 PUSH2 0x952 PUSH1 0xA PUSH2 0x1DF0 JUMP JUMPDEST PUSH1 0x0 PUSH2 0xC7E DUP3 PUSH1 0x28 PUSH2 0x2C6D JUMP JUMPDEST PUSH1 0x0 PUSH2 0xC7E DUP3 PUSH1 0x30 PUSH2 0x2C6D JUMP JUMPDEST PUSH1 0x0 PUSH1 0x1 PUSH1 0x46 SHL DUP3 PUSH1 0xF SIGNEXTEND SLT PUSH2 0x3545 JUMPI PUSH1 0x0 DUP1 REVERT JUMPDEST PUSH9 0x3FFFFFFFFFFFFFFFFF NOT DUP3 PUSH1 0xF SIGNEXTEND SLT ISZERO PUSH2 0x3562 JUMPI POP PUSH1 0x0 PUSH2 0xC81 JUMP JUMPDEST PUSH1 0x1 PUSH1 0x7F SHL PUSH1 0x0 PUSH8 0x8000000000000000 DUP5 AND PUSH1 0xF SIGNEXTEND SGT ISZERO PUSH2 0x3594 JUMPI PUSH17 0x16A09E667F3BCC908B2FB1366EA957D3E MUL PUSH1 0x80 SHR JUMPDEST PUSH1 0x0 DUP4 PUSH8 0x4000000000000000 AND PUSH1 0xF SIGNEXTEND SGT ISZERO PUSH2 0x35C1 JUMPI PUSH17 0x1306FE0A31B7152DE8D5A46305C85EDEC MUL PUSH1 0x80 SHR JUMPDEST PUSH1 0x0 DUP4 PUSH8 0x2000000000000000 AND PUSH1 0xF SIGNEXTEND SGT ISZERO PUSH2 0x35EE JUMPI PUSH17 0x1172B83C7D517ADCDF7C8C50EB14A791F MUL PUSH1 0x80 SHR JUMPDEST PUSH1 0x0 DUP4 PUSH8 0x1000000000000000 AND PUSH1 0xF SIGNEXTEND SGT ISZERO PUSH2 0x361B JUMPI PUSH17 0x10B5586CF9890F6298B92B71842A98363 MUL PUSH1 0x80 SHR JUMPDEST PUSH1 0x0 DUP4 PUSH8 0x800000000000000 AND PUSH1 0xF SIGNEXTEND SGT ISZERO PUSH2 0x3648 JUMPI PUSH17 0x1059B0D31585743AE7C548EB68CA417FD MUL PUSH1 0x80 SHR JUMPDEST PUSH1 0x0 DUP4 PUSH8 0x400000000000000 AND PUSH1 0xF SIGNEXTEND SGT ISZERO PUSH2 0x3675 JUMPI PUSH17 0x102C9A3E778060EE6F7CACA4F7A29BDE8 MUL PUSH1 0x80 SHR JUMPDEST PUSH1 0x0 DUP4 PUSH8 0x200000000000000 AND PUSH1 0xF SIGNEXTEND SGT ISZERO PUSH2 0x36A2 JUMPI PUSH17 0x10163DA9FB33356D84A66AE336DCDFA3F MUL PUSH1 0x80 SHR JUMPDEST PUSH1 0x0 DUP4 PUSH1 0x1 PUSH1 0x38 SHL AND PUSH1 0xF SIGNEXTEND SGT ISZERO PUSH2 0x36CB JUMPI PUSH17 0x100B1AFA5ABCBED6129AB13EC11DC9543 MUL PUSH1 0x80 SHR JUMPDEST PUSH1 0x0 DUP4 PUSH7 0x80000000000000 AND PUSH1 0xF SIGNEXTEND SGT ISZERO PUSH2 0x36F7 JUMPI PUSH17 0x10058C86DA1C09EA1FF19D294CF2F679B MUL PUSH1 0x80 SHR JUMPDEST PUSH1 0x0 DUP4 PUSH7 0x40000000000000 AND PUSH1 0xF SIGNEXTEND SGT ISZERO PUSH2 0x3723 JUMPI PUSH17 0x1002C605E2E8CEC506D21BFC89A23A00F MUL PUSH1 0x80 SHR JUMPDEST PUSH1 0x0 DUP4 PUSH7 0x20000000000000 AND PUSH1 0xF SIGNEXTEND SGT ISZERO PUSH2 0x374F JUMPI PUSH17 0x100162F3904051FA128BCA9C55C31E5DF MUL PUSH1 0x80 SHR JUMPDEST PUSH1 0x0 DUP4 PUSH7 0x10000000000000 AND PUSH1 0xF SIGNEXTEND SGT ISZERO PUSH2 0x377B JUMPI PUSH17 0x1000B175EFFDC76BA38E31671CA939725 MUL PUSH1 0x80 SHR JUMPDEST PUSH1 0x0 DUP4 PUSH7 0x8000000000000 AND PUSH1 0xF SIGNEXTEND SGT ISZERO PUSH2 0x37A7 JUMPI PUSH17 0x100058BA01FB9F96D6CACD4B180917C3D MUL PUSH1 0x80 SHR JUMPDEST PUSH1 0x0 DUP4 PUSH7 0x4000000000000 AND PUSH1 0xF SIGNEXTEND SGT ISZERO PUSH2 0x37D3 JUMPI PUSH17 0x10002C5CC37DA9491D0985C348C68E7B3 MUL PUSH1 0x80 SHR JUMPDEST PUSH1 0x0 DUP4 PUSH7 0x2000000000000 AND PUSH1 0xF SIGNEXTEND SGT ISZERO PUSH2 0x37FF JUMPI PUSH17 0x1000162E525EE054754457D5995292026 MUL PUSH1 0x80 SHR JUMPDEST PUSH1 0x0 DUP4 PUSH1 0x1 PUSH1 0x30 SHL AND PUSH1 0xF SIGNEXTEND SGT ISZERO PUSH2 0x3828 JUMPI PUSH17 0x10000B17255775C040618BF4A4ADE83FC MUL PUSH1 0x80 SHR JUMPDEST PUSH1 0x0 DUP4 PUSH6 0x800000000000 AND PUSH1 0xF SIGNEXTEND SGT ISZERO PUSH2 0x3853 JUMPI PUSH17 0x1000058B91B5BC9AE2EED81E9B7D4CFAB MUL PUSH1 0x80 SHR JUMPDEST PUSH1 0x0 DUP4 PUSH6 0x400000000000 AND PUSH1 0xF SIGNEXTEND SGT ISZERO PUSH2 0x387E JUMPI PUSH17 0x100002C5C89D5EC6CA4D7C8ACC017B7C9 MUL PUSH1 0x80 SHR JUMPDEST PUSH1 0x0 DUP4 PUSH6 0x200000000000 AND PUSH1 0xF SIGNEXTEND SGT ISZERO PUSH2 0x38A9 JUMPI PUSH17 0x10000162E43F4F831060E02D839A9D16D MUL PUSH1 0x80 SHR JUMPDEST PUSH1 0x0 DUP4 PUSH6 0x100000000000 AND PUSH1 0xF SIGNEXTEND SGT ISZERO PUSH2 0x38D4 JUMPI PUSH17 0x100000B1721BCFC99D9F890EA06911763 MUL PUSH1 0x80 SHR JUMPDEST PUSH1 0x0 DUP4 PUSH6 0x80000000000 AND PUSH1 0xF SIGNEXTEND SGT ISZERO PUSH2 0x38FF JUMPI PUSH17 0x10000058B90CF1E6D97F9CA14DBCC1628 MUL PUSH1 0x80 SHR JUMPDEST PUSH1 0x0 DUP4 PUSH6 0x40000000000 AND PUSH1 0xF SIGNEXTEND SGT ISZERO PUSH2 0x392A JUMPI PUSH17 0x1000002C5C863B73F016468F6BAC5CA2B MUL PUSH1 0x80 SHR JUMPDEST PUSH1 0x0 DUP4 PUSH6 0x20000000000 AND PUSH1 0xF SIGNEXTEND SGT ISZERO PUSH2 0x3955 JUMPI PUSH17 0x100000162E430E5A18F6119E3C02282A5 MUL PUSH1 0x80 SHR JUMPDEST PUSH1 0x0 DUP4 PUSH1 0x1 PUSH1 0x28 SHL AND PUSH1 0xF SIGNEXTEND SGT ISZERO PUSH2 0x397E JUMPI PUSH17 0x1000000B1721835514B86E6D96EFD1BFE MUL PUSH1 0x80 SHR JUMPDEST PUSH1 0x0 DUP4 PUSH5 0x8000000000 AND PUSH1 0xF SIGNEXTEND SGT ISZERO PUSH2 0x39A8 JUMPI PUSH17 0x100000058B90C0B48C6BE5DF846C5B2EF MUL PUSH1 0x80 SHR JUMPDEST PUSH1 0x0 DUP4 PUSH5 0x4000000000 AND PUSH1 0xF SIGNEXTEND SGT ISZERO PUSH2 0x39D2 JUMPI PUSH17 0x10000002C5C8601CC6B9E94213C72737A MUL PUSH1 0x80 SHR JUMPDEST PUSH1 0x0 DUP4 PUSH5 0x2000000000 AND PUSH1 0xF SIGNEXTEND SGT ISZERO PUSH2 0x39FC JUMPI PUSH17 0x1000000162E42FFF037DF38AA2B219F06 MUL PUSH1 0x80 SHR JUMPDEST PUSH1 0x0 DUP4 PUSH5 0x1000000000 AND PUSH1 0xF SIGNEXTEND SGT ISZERO PUSH2 0x3A26 JUMPI PUSH17 0x10000000B17217FBA9C739AA5819F44F9 MUL PUSH1 0x80 SHR JUMPDEST PUSH1 0x0 DUP4 PUSH5 0x800000000 AND PUSH1 0xF SIGNEXTEND SGT ISZERO PUSH2 0x3A50 JUMPI PUSH17 0x1000000058B90BFCDEE5ACD3C1CEDC823 MUL PUSH1 0x80 SHR JUMPDEST PUSH1 0x0 DUP4 PUSH5 0x400000000 AND PUSH1 0xF SIGNEXTEND SGT ISZERO PUSH2 0x3A7A JUMPI PUSH17 0x100000002C5C85FE31F35A6A30DA1BE50 MUL PUSH1 0x80 SHR JUMPDEST PUSH1 0x0 DUP4 PUSH5 0x200000000 AND PUSH1 0xF SIGNEXTEND SGT ISZERO PUSH2 0x3AA4 JUMPI PUSH17 0x10000000162E42FF0999CE3541B9FFFCF MUL PUSH1 0x80 SHR JUMPDEST PUSH1 0x0 DUP4 PUSH5 0x100000000 AND PUSH1 0xF SIGNEXTEND SGT ISZERO PUSH2 0x3ACE JUMPI PUSH17 0x100000000B17217F80F4EF5AADDA45554 MUL PUSH1 0x80 SHR JUMPDEST PUSH1 0x0 DUP4 PUSH4 0x80000000 AND PUSH1 0xF SIGNEXTEND SGT ISZERO PUSH2 0x3AF7 JUMPI PUSH17 0x10000000058B90BFBF8479BD5A81B51AD MUL PUSH1 0x80 SHR JUMPDEST PUSH1 0x0 DUP4 PUSH4 0x40000000 AND PUSH1 0xF SIGNEXTEND SGT ISZERO PUSH2 0x3B20 JUMPI PUSH17 0x1000000002C5C85FDF84BD62AE30A74CC MUL PUSH1 0x80 SHR JUMPDEST PUSH1 0x0 DUP4 PUSH4 0x20000000 AND PUSH1 0xF SIGNEXTEND SGT ISZERO PUSH2 0x3B49 JUMPI PUSH17 0x100000000162E42FEFB2FED257559BDAA MUL PUSH1 0x80 SHR JUMPDEST PUSH1 0x0 DUP4 PUSH4 0x10000000 AND PUSH1 0xF SIGNEXTEND SGT ISZERO PUSH2 0x3B72 JUMPI PUSH17 0x1000000000B17217F7D5A7716BBA4A9AE MUL PUSH1 0x80 SHR JUMPDEST PUSH1 0x0 DUP4 PUSH4 0x8000000 AND PUSH1 0xF SIGNEXTEND SGT ISZERO PUSH2 0x3B9B JUMPI PUSH17 0x100000000058B90BFBE9DDBAC5E109CCE MUL PUSH1 0x80 SHR JUMPDEST PUSH1 0x0 DUP4 PUSH4 0x4000000 AND PUSH1 0xF SIGNEXTEND SGT ISZERO PUSH2 0x3BC4 JUMPI PUSH17 0x10000000002C5C85FDF4B15DE6F17EB0D MUL PUSH1 0x80 SHR JUMPDEST PUSH1 0x0 DUP4 PUSH4 0x2000000 AND PUSH1 0xF SIGNEXTEND SGT ISZERO PUSH2 0x3BED JUMPI PUSH17 0x1000000000162E42FEFA494F1478FDE05 MUL PUSH1 0x80 SHR JUMPDEST PUSH1 0x0 DUP4 PUSH4 0x1000000 AND PUSH1 0xF SIGNEXTEND SGT ISZERO PUSH2 0x3C16 JUMPI PUSH17 0x10000000000B17217F7D20CF927C8E94C MUL PUSH1 0x80 SHR JUMPDEST PUSH1 0x0 DUP4 PUSH3 0x800000 AND PUSH1 0xF SIGNEXTEND SGT ISZERO PUSH2 0x3C3E JUMPI PUSH17 0x1000000000058B90BFBE8F71CB4E4B33D MUL PUSH1 0x80 SHR JUMPDEST PUSH1 0x0 DUP4 PUSH3 0x400000 AND PUSH1 0xF SIGNEXTEND SGT ISZERO PUSH2 0x3C66 JUMPI PUSH17 0x100000000002C5C85FDF477B662B26945 MUL PUSH1 0x80 SHR JUMPDEST PUSH1 0x0 DUP4 PUSH3 0x200000 AND PUSH1 0xF SIGNEXTEND SGT ISZERO PUSH2 0x3C8E JUMPI PUSH17 0x10000000000162E42FEFA3AE53369388C MUL PUSH1 0x80 SHR JUMPDEST PUSH1 0x0 DUP4 PUSH3 0x100000 AND PUSH1 0xF SIGNEXTEND SGT ISZERO PUSH2 0x3CB6 JUMPI PUSH17 0x100000000000B17217F7D1D351A389D40 MUL PUSH1 0x80 SHR JUMPDEST PUSH1 0x0 DUP4 PUSH3 0x80000 AND PUSH1 0xF SIGNEXTEND SGT ISZERO PUSH2 0x3CDE JUMPI PUSH17 0x10000000000058B90BFBE8E8B2D3D4EDE MUL PUSH1 0x80 SHR JUMPDEST PUSH1 0x0 DUP4 PUSH3 0x40000 AND PUSH1 0xF SIGNEXTEND SGT ISZERO PUSH2 0x3D06 JUMPI PUSH17 0x1000000000002C5C85FDF4741BEA6E77E MUL PUSH1 0x80 SHR JUMPDEST PUSH1 0x0 DUP4 PUSH3 0x20000 AND PUSH1 0xF SIGNEXTEND SGT ISZERO PUSH2 0x3D2E JUMPI PUSH17 0x100000000000162E42FEFA39FE95583C2 MUL PUSH1 0x80 SHR JUMPDEST PUSH1 0x0 DUP4 PUSH3 0x10000 AND PUSH1 0xF SIGNEXTEND SGT ISZERO PUSH2 0x3D56 JUMPI PUSH17 0x1000000000000B17217F7D1CFB72B45E1 MUL PUSH1 0x80 SHR JUMPDEST PUSH1 0x0 DUP4 PUSH2 0x8000 AND PUSH1 0xF SIGNEXTEND SGT ISZERO PUSH2 0x3D7D JUMPI PUSH17 0x100000000000058B90BFBE8E7CC35C3F0 MUL PUSH1 0x80 SHR JUMPDEST PUSH1 0x0 DUP4 PUSH2 0x4000 AND PUSH1 0xF SIGNEXTEND SGT ISZERO PUSH2 0x3DA4 JUMPI PUSH17 0x10000000000002C5C85FDF473E242EA38 MUL PUSH1 0x80 SHR JUMPDEST PUSH1 0x0 DUP4 PUSH2 0x2000 AND PUSH1 0xF SIGNEXTEND SGT ISZERO PUSH2 0x3DCB JUMPI PUSH17 0x1000000000000162E42FEFA39F02B772C MUL PUSH1 0x80 SHR JUMPDEST PUSH1 0x0 DUP4 PUSH2 0x1000 AND PUSH1 0xF SIGNEXTEND SGT ISZERO PUSH2 0x3DF2 JUMPI PUSH17 0x10000000000000B17217F7D1CF7D83C1A MUL PUSH1 0x80 SHR JUMPDEST PUSH1 0x0 DUP4 PUSH2 0x800 AND PUSH1 0xF SIGNEXTEND SGT ISZERO PUSH2 0x3E19 JUMPI PUSH17 0x1000000000000058B90BFBE8E7BDCBE2E MUL PUSH1 0x80 SHR JUMPDEST PUSH1 0x0 DUP4 PUSH2 0x400 AND PUSH1 0xF SIGNEXTEND SGT ISZERO PUSH2 0x3E40 JUMPI PUSH17 0x100000000000002C5C85FDF473DEA871F MUL PUSH1 0x80 SHR JUMPDEST PUSH1 0x0 DUP4 PUSH2 0x200 AND PUSH1 0xF SIGNEXTEND SGT ISZERO PUSH2 0x3E67 JUMPI PUSH17 0x10000000000000162E42FEFA39EF44D91 MUL PUSH1 0x80 SHR JUMPDEST PUSH1 0x0 DUP4 PUSH2 0x100 AND PUSH1 0xF SIGNEXTEND SGT ISZERO PUSH2 0x3E8E JUMPI PUSH17 0x100000000000000B17217F7D1CF79E949 MUL PUSH1 0x80 SHR JUMPDEST PUSH1 0x0 DUP4 PUSH1 0x80 AND PUSH1 0xF SIGNEXTEND SGT ISZERO PUSH2 0x3EB4 JUMPI PUSH17 0x10000000000000058B90BFBE8E7BCE544 MUL PUSH1 0x80 SHR JUMPDEST PUSH1 0x0 DUP4 PUSH1 0x40 AND PUSH1 0xF SIGNEXTEND SGT ISZERO PUSH2 0x3EDA JUMPI PUSH17 0x1000000000000002C5C85FDF473DE6ECA MUL PUSH1 0x80 SHR JUMPDEST PUSH1 0x0 DUP4 PUSH1 0x20 AND PUSH1 0xF SIGNEXTEND SGT ISZERO PUSH2 0x3F00 JUMPI PUSH17 0x100000000000000162E42FEFA39EF366F MUL PUSH1 0x80 SHR JUMPDEST PUSH1 0x0 DUP4 PUSH1 0x10 AND PUSH1 0xF SIGNEXTEND SGT ISZERO PUSH2 0x3F26 JUMPI PUSH17 0x1000000000000000B17217F7D1CF79AFA MUL PUSH1 0x80 SHR JUMPDEST PUSH1 0x0 DUP4 PUSH1 0x8 AND PUSH1 0xF SIGNEXTEND SGT ISZERO PUSH2 0x3F4C JUMPI PUSH17 0x100000000000000058B90BFBE8E7BCD6D MUL PUSH1 0x80 SHR JUMPDEST PUSH1 0x0 DUP4 PUSH1 0x4 AND PUSH1 0xF SIGNEXTEND SGT ISZERO PUSH2 0x3F72 JUMPI PUSH17 0x10000000000000002C5C85FDF473DE6B2 MUL PUSH1 0x80 SHR JUMPDEST PUSH1 0x0 DUP4 PUSH1 0x2 AND PUSH1 0xF SIGNEXTEND SGT ISZERO PUSH2 0x3F98 JUMPI PUSH17 0x1000000000000000162E42FEFA39EF358 MUL PUSH1 0x80 SHR JUMPDEST PUSH1 0x0 DUP4 PUSH1 0x1 AND PUSH1 0xF SIGNEXTEND SGT ISZERO PUSH2 0x3FBE JUMPI PUSH17 0x10000000000000000B17217F7D1CF79AB MUL PUSH1 0x80 SHR JUMPDEST PUSH1 0xF DUP4 DUP2 SIGNEXTEND PUSH1 0x40 SAR PUSH1 0x3F SUB SWAP1 SIGNEXTEND SHR PUSH1 0x1 PUSH1 0x1 PUSH1 0x7F SHL SUB DUP2 GT ISZERO PUSH2 0xC7E JUMPI PUSH1 0x0 DUP1 REVERT JUMPDEST PUSH1 0x0 PUSH2 0xC7E DUP3 PUSH1 0x20 PUSH2 0x2C6D JUMP JUMPDEST PUSH1 0x0 PUSH2 0xC7E DUP3 PUSH1 0x48 PUSH2 0x2C6D JUMP JUMPDEST PUSH1 0x0 DUP1 PUSH2 0x952 PUSH1 0x1F PUSH2 0x1DF0 JUMP JUMPDEST PUSH1 0x0 DUP1 PUSH1 0x0 DUP1 PUSH1 0x0 DUP6 PUSH1 0x20 ADD MLOAD GT ISZERO PUSH2 0x4054 JUMPI PUSH2 0x4051 PUSH2 0x4038 DUP7 PUSH1 0xC0 ADD MLOAD DUP8 PUSH1 0x20 ADD MLOAD PUSH2 0x2511 SWAP1 SWAP2 SWAP1 PUSH4 0xFFFFFFFF AND JUMP JUMPDEST PUSH1 0xE0 DUP8 ADD MLOAD PUSH1 0x40 DUP9 ADD MLOAD PUSH2 0x404B SWAP2 PUSH2 0x2511 JUMP JUMPDEST SWAP1 PUSH2 0x40A2 JUMP JUMPDEST SWAP1 POP JUMPDEST PUSH1 0x0 PUSH2 0x405F DUP8 PUSH2 0x42F1 JUMP JUMPDEST SWAP1 POP PUSH2 0x406B DUP2 DUP4 PUSH2 0x4324 JUMP JUMPDEST SWAP5 POP DUP2 ISZERO PUSH2 0x4082 JUMPI PUSH2 0x407F DUP2 DUP7 PUSH1 0x1 PUSH2 0x43D7 JUMP JUMPDEST SWAP4 POP JUMPDEST PUSH1 0x20 DUP7 ADD MLOAD ISZERO PUSH2 0x4099 JUMPI PUSH2 0x4096 DUP6 DUP4 PUSH2 0x444F JUMP JUMPDEST SWAP3 POP JUMPDEST POP POP SWAP3 POP SWAP3 POP SWAP3 JUMP JUMPDEST PUSH1 0x0 PUSH2 0x94F PUSH2 0x2F75 DUP5 PUSH4 0x3B9ACA00 PUSH2 0x2511 JUMP JUMPDEST PUSH1 0x0 DUP1 PUSH2 0x40C0 PUSH2 0x1242 JUMP JUMPDEST PUSH1 0x1 PUSH1 0x1 PUSH1 0xA0 SHL SUB DUP6 AND PUSH1 0x0 SWAP1 DUP2 MSTORE PUSH1 0x20 DUP3 DUP2 MSTORE PUSH1 0x40 DUP1 DUP4 KECCAK256 PUSH2 0xFFFF DUP9 AND DUP5 MSTORE SWAP1 SWAP2 MSTORE DUP2 KECCAK256 DUP1 SLOAD PUSH1 0x1 PUSH1 0xA8 SHL SWAP1 DIV PUSH1 0xA SWAP1 DUP2 SIGNEXTEND SWAP1 SIGNEXTEND SWAP5 POP SWAP2 SWAP3 POP DUP4 SLT ISZERO PUSH2 0x4106 JUMPI PUSH1 0x0 DUP1 REVERT JUMPDEST POP POP SWAP3 SWAP2 POP POP JUMP JUMPDEST PUSH1 0x0 DUP2 SLT ISZERO PUSH2 0x411C JUMPI PUSH1 0x0 DUP1 REVERT JUMPDEST PUSH1 0x0 PUSH2 0x4126 PUSH2 0x1242 JUMP JUMPDEST PUSH1 0x1 PUSH1 0x1 PUSH1 0xA0 SHL SUB DUP6 AND PUSH1 0x0 SWAP1 DUP2 MSTORE PUSH1 0x20 DUP3 DUP2 MSTORE PUSH1 0x40 DUP1 DUP4 KECCAK256 PUSH2 0xFFFF DUP9 AND DUP5 MSTORE SWAP1 SWAP2 MSTORE SWAP1 KECCAK256 SWAP1 SWAP2 POP PUSH2 0x4157 DUP4 PUSH2 0x2593 JUMP JUMPDEST DUP2 SLOAD PUSH1 0xA SWAP2 SWAP1 SWAP2 SIGNEXTEND PUSH1 0x1 PUSH1 0x1 PUSH1 0x58 SHL SUB AND PUSH1 0x1 PUSH1 0xA8 SHL MUL PUSH1 0x1 PUSH1 0x1 PUSH1 0xA8 SHL SUB SWAP1 SWAP2 AND OR SWAP1 SSTORE POP POP POP POP JUMP JUMPDEST PUSH1 0x0 PUSH2 0x418C PUSH2 0x2E16 JUMP JUMPDEST PUSH2 0xFFFF DUP6 AND PUSH1 0x0 SWAP1 DUP2 MSTORE PUSH1 0x20 SWAP2 SWAP1 SWAP2 MSTORE PUSH1 0x40 SWAP1 KECCAK256 DUP1 SLOAD SWAP1 SWAP2 POP PUSH5 0xFFFFFFFFFF AND TIMESTAMP EQ PUSH2 0x41B7 JUMPI PUSH1 0x0 DUP1 REVERT JUMPDEST DUP1 SLOAD PUSH1 0x1 PUSH1 0xF8 SHL SWAP1 DIV PUSH1 0xFF AND PUSH2 0x41CC JUMPI PUSH1 0x0 DUP1 REVERT JUMPDEST PUSH1 0x1 DUP2 ADD SLOAD PUSH1 0x0 SWAP1 PUSH2 0x41E7 SWAP1 PUSH1 0x1 PUSH1 0x1 PUSH1 0x58 SHL SUB AND DUP6 PUSH2 0x1598 JUMP JUMPDEST DUP3 SLOAD SWAP1 SWAP2 POP PUSH1 0x0 SWAP1 PUSH2 0x4209 SWAP1 PUSH1 0x1 PUSH1 0x28 SHL SWAP1 DIV PUSH1 0x1 PUSH1 0x1 PUSH1 0x58 SHL SUB AND DUP6 PUSH2 0x1598 JUMP JUMPDEST SWAP1 POP DUP2 PUSH1 0x9 NOT SLT DUP1 ISZERO PUSH2 0x421C JUMPI POP PUSH1 0x0 DUP3 SLT JUMPDEST ISZERO PUSH2 0x4226 JUMPI PUSH1 0x0 SWAP2 POP JUMPDEST DUP1 PUSH1 0x9 NOT SLT DUP1 ISZERO PUSH2 0x4237 JUMPI POP PUSH1 0x0 DUP2 SLT JUMPDEST ISZERO PUSH2 0x4240 JUMPI POP PUSH1 0x0 JUMPDEST PUSH2 0x424C PUSH2 0x3397 DUP4 PUSH2 0x254B JUMP JUMPDEST PUSH1 0x1 DUP5 ADD DUP1 SLOAD PUSH11 0xFFFFFFFFFFFFFFFFFFFFFF NOT AND PUSH1 0x1 PUSH1 0x1 PUSH1 0x58 SHL SUB SWAP3 SWAP1 SWAP3 AND SWAP2 SWAP1 SWAP2 OR SWAP1 SSTORE PUSH2 0x427E PUSH2 0x3397 DUP3 PUSH2 0x254B JUMP JUMPDEST DUP4 SLOAD PUSH1 0x1 PUSH1 0x1 PUSH1 0x58 SHL SUB SWAP2 SWAP1 SWAP2 AND PUSH1 0x1 PUSH1 0x28 SHL MUL PUSH16 0xFFFFFFFFFFFFFFFFFFFFFF0000000000 NOT SWAP1 SWAP2 AND OR DUP4 SSTORE PUSH2 0x42B6 DUP8 DUP8 DUP7 DUP9 PUSH2 0x4468 JUMP JUMPDEST POP POP POP POP POP POP POP JUMP JUMPDEST PUSH1 0x0 DUP1 PUSH2 0x952 PUSH1 0x26 PUSH2 0x1DF0 JUMP JUMPDEST PUSH1 0x0 PUSH2 0x94F DUP3 PUSH1 0x20 ADD MLOAD PUSH2 0x949 DUP5 PUSH1 0x0 ADD MLOAD DUP7 PUSH1 0x20 ADD MLOAD PUSH2 0x128B SWAP1 SWAP2 SWAP1 PUSH4 0xFFFFFFFF AND JUMP JUMPDEST PUSH2 0x42F9 PUSH2 0x4920 JUMP JUMPDEST PUSH1 0x0 PUSH2 0x4303 PUSH2 0x457C JUMP JUMPDEST PUSH2 0xFFFF DUP5 AND PUSH1 0x0 SWAP1 DUP2 MSTORE PUSH1 0x20 SWAP2 SWAP1 SWAP2 MSTORE PUSH1 0x40 DUP2 KECCAK256 SLOAD SWAP2 POP PUSH2 0x135A SWAP1 DUP3 PUSH2 0x4589 JUMP JUMPDEST PUSH1 0x0 DUP1 DUP4 PUSH1 0x80 ADD MLOAD GT PUSH2 0x4336 JUMPI PUSH1 0x0 DUP1 REVERT JUMPDEST PUSH4 0x3B9ACA00 DUP3 GT ISZERO PUSH2 0x4347 JUMPI PUSH1 0x0 DUP1 REVERT JUMPDEST DUP3 MLOAD DUP3 GT PUSH2 0x4366 JUMPI DUP3 MLOAD PUSH1 0x40 DUP5 ADD MLOAD PUSH2 0x1284 SWAP2 SWAP1 PUSH2 0x1FEC SWAP1 DUP6 SWAP1 PUSH2 0x2511 JUMP JUMPDEST DUP3 PUSH1 0x20 ADD MLOAD DUP3 GT PUSH2 0x439E JUMPI PUSH1 0x40 DUP4 ADD MLOAD DUP4 MLOAD PUSH1 0x20 DUP6 ADD MLOAD PUSH1 0x60 DUP7 ADD MLOAD PUSH2 0x1284 SWAP4 SWAP3 PUSH2 0x2BE2 SWAP3 DUP2 SWAP1 SUB SWAP2 PUSH2 0x1FEC SWAP2 DUP9 SUB SWAP1 DUP6 SWAP1 SUB PUSH2 0x2511 JUMP JUMPDEST PUSH2 0x94F DUP4 PUSH1 0x60 ADD MLOAD PUSH2 0x2BE2 DUP6 PUSH1 0x20 ADD MLOAD PUSH4 0x3B9ACA00 SUB PUSH2 0x1FEC DUP8 PUSH1 0x60 ADD MLOAD DUP9 PUSH1 0x80 ADD MLOAD SUB DUP9 PUSH1 0x20 ADD MLOAD DUP9 SUB PUSH2 0x2511 SWAP1 SWAP2 SWAP1 PUSH4 0xFFFFFFFF AND JUMP JUMPDEST PUSH1 0x0 DUP1 PUSH2 0x43F6 PUSH1 0x64 PUSH2 0x1FEC DUP8 PUSH1 0xE0 ADD MLOAD DUP8 PUSH2 0x2511 SWAP1 SWAP2 SWAP1 PUSH4 0xFFFFFFFF AND JUMP JUMPDEST SWAP1 POP DUP5 PUSH1 0xA0 ADD MLOAD DUP2 LT ISZERO PUSH2 0x440B JUMPI POP PUSH1 0xA0 DUP5 ADD MLOAD JUMPDEST DUP5 PUSH1 0xC0 ADD MLOAD DUP2 GT ISZERO PUSH2 0x441E JUMPI POP PUSH1 0xC0 DUP5 ADD MLOAD JUMPDEST DUP3 ISZERO PUSH2 0x4435 JUMPI PUSH2 0x442E DUP5 DUP3 PUSH2 0x1FC2 JUMP JUMPDEST SWAP2 POP PUSH2 0x2C4A JUMP JUMPDEST DUP4 DUP2 GT PUSH2 0x4444 JUMPI DUP1 DUP5 SUB PUSH2 0x1356 JUMP JUMPDEST POP PUSH1 0x0 SWAP5 SWAP4 POP POP POP POP JUMP JUMPDEST PUSH1 0x0 PUSH2 0x94F PUSH2 0x445E DUP5 DUP5 PUSH2 0x2511 JUMP JUMPDEST PUSH4 0x3B9ACA00 PUSH2 0x2C80 JUMP JUMPDEST PUSH1 0x0 PUSH2 0x4472 PUSH2 0x1B80 JUMP JUMPDEST PUSH2 0xFFFF DUP6 AND PUSH1 0x0 SWAP1 DUP2 MSTORE PUSH1 0x20 SWAP2 SWAP1 SWAP2 MSTORE PUSH1 0x40 DUP2 KECCAK256 SLOAD PUSH1 0x1 PUSH1 0x1 PUSH1 0xA0 SHL SUB AND SWAP2 POP PUSH2 0x449A PUSH2 0x46A8 JUMP JUMPDEST PUSH2 0xFFFF DUP7 AND PUSH1 0x0 SWAP1 DUP2 MSTORE PUSH1 0x20 SWAP2 SWAP1 SWAP2 MSTORE PUSH1 0x40 SWAP1 DUP2 SWAP1 KECCAK256 SLOAD SWAP1 MLOAD PUSH4 0xAD1C095D PUSH1 0xE0 SHL DUP2 MSTORE PUSH1 0x1 PUSH1 0x1 PUSH1 0xA0 SHL SUB SWAP1 SWAP2 AND SWAP2 POP DUP2 SWAP1 PUSH4 0xAD1C095D SWAP1 PUSH2 0x44E2 SWAP1 DUP10 SWAP1 DUP8 SWAP1 PUSH1 0x4 ADD PUSH2 0x519B JUMP JUMPDEST PUSH1 0x0 PUSH1 0x40 MLOAD DUP1 DUP4 SUB DUP2 PUSH1 0x0 DUP8 DUP1 EXTCODESIZE ISZERO DUP1 ISZERO PUSH2 0x44FC JUMPI PUSH1 0x0 DUP1 REVERT JUMPDEST POP GAS CALL ISZERO DUP1 ISZERO PUSH2 0x4510 JUMPI RETURNDATASIZE PUSH1 0x0 DUP1 RETURNDATACOPY RETURNDATASIZE PUSH1 0x0 REVERT JUMPDEST POP POP PUSH1 0x40 MLOAD PUSH4 0xAD1C095D PUSH1 0xE0 SHL DUP2 MSTORE PUSH1 0x1 PUSH1 0x1 PUSH1 0xA0 SHL SUB DUP6 AND SWAP3 POP PUSH4 0xAD1C095D SWAP2 POP PUSH2 0x4542 SWAP1 DUP10 SWAP1 DUP9 SWAP1 PUSH1 0x4 ADD PUSH2 0x519B JUMP JUMPDEST PUSH1 0x0 PUSH1 0x40 MLOAD DUP1 DUP4 SUB DUP2 PUSH1 0x0 DUP8 DUP1 EXTCODESIZE ISZERO DUP1 ISZERO PUSH2 0x455C JUMPI PUSH1 0x0 DUP1 REVERT JUMPDEST POP GAS CALL ISZERO DUP1 ISZERO PUSH2 0x4570 JUMPI RETURNDATASIZE PUSH1 0x0 DUP1 RETURNDATACOPY RETURNDATASIZE PUSH1 0x0 REVERT JUMPDEST POP POP POP POP POP POP POP POP POP POP JUMP JUMPDEST PUSH1 0x0 DUP1 PUSH2 0x952 PUSH1 0x1B PUSH2 0x1DF0 JUMP JUMPDEST PUSH2 0x4591 PUSH2 0x4920 JUMP JUMPDEST PUSH1 0x64 PUSH4 0x3B9ACA00 DUP4 PUSH1 0xFF DUP7 AND PUSH1 0x20 DUP2 LT PUSH2 0x45A7 JUMPI INVALID JUMPDEST BYTE MUL DUP2 PUSH2 0x45B0 JUMPI INVALID JUMPDEST DIV DUP2 MSTORE PUSH1 0x64 PUSH4 0x3B9ACA00 DUP4 PUSH1 0xFF DUP7 AND PUSH1 0x1 ADD PUSH1 0x20 DUP2 LT PUSH2 0x45CC JUMPI INVALID JUMPDEST BYTE MUL DUP2 PUSH2 0x45D5 JUMPI INVALID JUMPDEST DIV DUP2 PUSH1 0x20 ADD DUP2 DUP2 MSTORE POP POP PUSH2 0x45FA DUP3 PUSH1 0x2 DUP6 PUSH1 0xFF AND ADD PUSH1 0x20 DUP2 LT PUSH2 0x45F4 JUMPI INVALID JUMPDEST BYTE PUSH2 0x46B5 JUMP JUMPDEST PUSH1 0x80 DUP3 ADD DUP2 SWAP1 MSTORE PUSH2 0x100 SWAP1 DUP4 PUSH1 0xFF DUP7 AND PUSH1 0x3 ADD PUSH1 0x20 DUP2 LT PUSH2 0x4617 JUMPI INVALID JUMPDEST BYTE MUL DUP2 PUSH2 0x4620 JUMPI INVALID JUMPDEST DIV PUSH1 0x40 DUP3 ADD MSTORE PUSH1 0x80 DUP2 ADD MLOAD PUSH2 0x100 SWAP1 DUP4 PUSH1 0xFF DUP7 AND PUSH1 0x4 ADD PUSH1 0x20 DUP2 LT PUSH2 0x4641 JUMPI INVALID JUMPDEST BYTE MUL DUP2 PUSH2 0x464A JUMPI INVALID JUMPDEST DIV PUSH1 0x60 DUP3 ADD MSTORE PUSH3 0x7A120 DUP3 PUSH1 0xFF DUP6 AND PUSH1 0x5 ADD PUSH1 0x20 DUP2 LT PUSH2 0x4666 JUMPI INVALID JUMPDEST BYTE MUL PUSH1 0xA0 DUP3 ADD MSTORE PUSH3 0x2625A0 DUP3 PUSH1 0xFF DUP6 AND PUSH1 0x6 ADD PUSH1 0x20 DUP2 LT PUSH2 0x4683 JUMPI INVALID JUMPDEST BYTE MUL PUSH1 0xC0 DUP3 ADD MSTORE DUP2 PUSH1 0xFF DUP5 AND PUSH1 0x7 ADD PUSH1 0x20 DUP2 LT PUSH2 0x469C JUMPI INVALID JUMPDEST BYTE PUSH1 0xE0 DUP3 ADD MSTORE SWAP3 SWAP2 POP POP JUMP JUMPDEST PUSH1 0x0 DUP1 PUSH2 0x952 PUSH1 0x22 PUSH2 0x1DF0 JUMP JUMPDEST PUSH1 0x0 DUP2 PUSH1 0xFF AND PUSH1 0x96 LT PUSH2 0x46D0 JUMPI PUSH1 0xFF DUP3 AND PUSH3 0x2625A0 MUL PUSH2 0xC7E JUMP JUMPDEST POP PUSH1 0x95 NOT PUSH1 0xFF SWAP2 SWAP1 SWAP2 AND ADD PUSH3 0xE4E1C0 MUL PUSH4 0x165A0BC0 ADD SWAP1 JUMP JUMPDEST PUSH1 0x40 MLOAD DUP1 PUSH2 0x100 ADD PUSH1 0x40 MSTORE DUP1 PUSH2 0x46FD PUSH2 0x4740 JUMP JUMPDEST DUP2 MSTORE PUSH1 0x20 ADD PUSH2 0x470A PUSH2 0x4775 JUMP JUMPDEST DUP2 MSTORE PUSH1 0x20 ADD PUSH2 0x4717 PUSH2 0x47FA JUMP JUMPDEST DUP2 MSTORE PUSH1 0x20 ADD PUSH1 0x0 DUP2 MSTORE PUSH1 0x20 ADD PUSH1 0x0 DUP2 MSTORE PUSH1 0x20 ADD PUSH1 0x0 DUP2 MSTORE PUSH1 0x20 ADD PUSH1 0x0 DUP2 MSTORE PUSH1 0x20 ADD PUSH1 0x60 DUP2 MSTORE POP SWAP1 JUMP JUMPDEST PUSH1 0x40 DUP1 MLOAD PUSH1 0xC0 DUP2 ADD DUP3 MSTORE PUSH1 0x0 DUP1 DUP3 MSTORE PUSH1 0x20 DUP3 ADD DUP2 SWAP1 MSTORE SWAP2 DUP2 ADD DUP3 SWAP1 MSTORE PUSH1 0x60 DUP2 ADD DUP3 SWAP1 MSTORE PUSH1 0x80 DUP2 ADD DUP3 SWAP1 MSTORE PUSH1 0xA0 DUP2 ADD SWAP2 SWAP1 SWAP2 MSTORE SWAP1 JUMP JUMPDEST PUSH1 0x40 MLOAD DUP1 PUSH2 0x160 ADD PUSH1 0x40 MSTORE DUP1 PUSH1 0x0 PUSH1 0x1 PUSH1 0x1 PUSH1 0xA0 SHL SUB AND DUP2 MSTORE PUSH1 0x20 ADD PUSH1 0x0 DUP2 MSTORE PUSH1 0x20 ADD PUSH1 0x0 DUP2 MSTORE PUSH1 0x20 ADD PUSH1 0x0 DUP2 MSTORE PUSH1 0x20 ADD PUSH1 0x0 DUP2 MSTORE PUSH1 0x20 ADD PUSH1 0x0 PUSH1 0x1 PUSH1 0x1 PUSH1 0xD0 SHL SUB NOT AND DUP2 MSTORE PUSH1 0x20 ADD PUSH2 0x47C6 PUSH2 0x4965 JUMP JUMPDEST DUP2 MSTORE PUSH1 0x20 ADD PUSH2 0x47D3 PUSH2 0x4965 JUMP JUMPDEST DUP2 MSTORE PUSH1 0x20 ADD PUSH2 0x47E0 PUSH2 0x4895 JUMP JUMPDEST DUP2 MSTORE PUSH1 0x20 ADD PUSH2 0x47ED PUSH2 0x4994 JUMP JUMPDEST DUP2 MSTORE PUSH1 0x0 PUSH1 0x20 SWAP1 SWAP2 ADD MSTORE SWAP1 JUMP JUMPDEST PUSH1 0x40 MLOAD DUP1 PUSH1 0x80 ADD PUSH1 0x40 MSTORE DUP1 PUSH1 0x60 DUP2 MSTORE PUSH1 0x20 ADD PUSH1 0x60 DUP2 MSTORE PUSH1 0x20 ADD PUSH1 0x0 DUP2 MSTORE PUSH1 0x20 ADD PUSH1 0x0 DUP2 MSTORE POP SWAP1 JUMP JUMPDEST PUSH1 0x40 MLOAD DUP1 PUSH1 0xC0 ADD PUSH1 0x40 MSTORE DUP1 PUSH1 0x0 PUSH2 0xFFFF AND DUP2 MSTORE PUSH1 0x20 ADD PUSH1 0x0 DUP2 MSTORE PUSH1 0x20 ADD PUSH1 0x0 DUP2 MSTORE PUSH1 0x20 ADD PUSH1 0x0 DUP2 MSTORE PUSH1 0x20 ADD PUSH1 0x0 DUP2 MSTORE PUSH1 0x20 ADD PUSH1 0x0 PUSH1 0x3 DUP2 GT ISZERO PUSH2 0x4861 JUMPI INVALID JUMPDEST SWAP1 MSTORE SWAP1 JUMP JUMPDEST PUSH1 0x40 DUP1 MLOAD PUSH1 0xA0 DUP2 ADD DUP3 MSTORE PUSH1 0x0 DUP1 DUP3 MSTORE PUSH1 0x20 DUP3 ADD DUP2 SWAP1 MSTORE SWAP2 DUP2 ADD DUP3 SWAP1 MSTORE SWAP1 PUSH1 0x60 DUP3 ADD SWAP1 DUP2 MSTORE PUSH1 0x20 ADD PUSH1 0x0 DUP2 MSTORE POP SWAP1 JUMP JUMPDEST PUSH1 0x40 MLOAD DUP1 PUSH1 0x60 ADD PUSH1 0x40 MSTORE DUP1 PUSH1 0x0 DUP2 MSTORE PUSH1 0x20 ADD PUSH1 0x0 DUP2 MSTORE PUSH1 0x20 ADD PUSH1 0x0 DUP2 MSTORE POP SWAP1 JUMP JUMPDEST PUSH1 0x40 MLOAD DUP1 PUSH2 0x120 ADD PUSH1 0x40 MSTORE DUP1 PUSH1 0x0 DUP2 MSTORE PUSH1 0x20 ADD PUSH1 0x0 DUP2 MSTORE PUSH1 0x20 ADD PUSH1 0x0 DUP2 MSTORE PUSH1 0x20 ADD PUSH1 0x0 DUP2 MSTORE PUSH1 0x20 ADD PUSH1 0x0 DUP2 MSTORE PUSH1 0x20 ADD PUSH1 0x0 DUP2 MSTORE PUSH1 0x20 ADD PUSH1 0x0 DUP2 MSTORE PUSH1 0x20 ADD PUSH1 0x0 DUP2 MSTORE PUSH1 0x20 ADD PUSH1 0x0 DUP2 MSTORE POP SWAP1 JUMP JUMPDEST PUSH1 0x40 MLOAD DUP1 PUSH1 0x20 ADD PUSH1 0x40 MSTORE DUP1 PUSH1 0x1 SWAP1 PUSH1 0x20 DUP3 MUL DUP1 CALLDATASIZE DUP4 CALLDATACOPY POP SWAP2 SWAP3 SWAP2 POP POP JUMP JUMPDEST PUSH1 0x40 MLOAD DUP1 PUSH2 0x100 ADD PUSH1 0x40 MSTORE DUP1 PUSH1 0x0 DUP2 MSTORE PUSH1 0x20 ADD PUSH1 0x0 DUP2 MSTORE PUSH1 0x20 ADD PUSH1 0x0 DUP2 MSTORE PUSH1 0x20 ADD PUSH1 0x0 DUP2 MSTORE PUSH1 0x20 ADD PUSH1 0x0 DUP2 MSTORE PUSH1 0x20 ADD PUSH1 0x0 DUP2 MSTORE PUSH1 0x20 ADD PUSH1 0x0 DUP2 MSTORE PUSH1 0x20 ADD PUSH1 0x0 DUP2 MSTORE POP SWAP1 JUMP JUMPDEST PUSH1 0x40 MLOAD DUP1 PUSH1 0xA0 ADD PUSH1 0x40 MSTORE DUP1 PUSH1 0x0 DUP2 MSTORE PUSH1 0x20 ADD PUSH1 0x0 DUP2 MSTORE PUSH1 0x20 ADD PUSH1 0x0 DUP2 MSTORE PUSH1 0x20 ADD PUSH1 0x0 DUP2 MSTORE PUSH1 0x20 ADD PUSH1 0x0 DUP2 MSTORE POP SWAP1 JUMP JUMPDEST PUSH1 0x40 DUP1 MLOAD PUSH1 0x80 DUP2 ADD DUP3 MSTORE PUSH1 0x0 DUP1 DUP3 MSTORE PUSH1 0x20 DUP3 ADD MSTORE SWAP1 DUP2 ADD PUSH2 0x47ED PUSH2 0x4895 JUMP JUMPDEST DUP1 MLOAD PUSH2 0xC81 DUP2 PUSH2 0x538F JUMP JUMPDEST PUSH1 0x0 DUP3 PUSH1 0x1F DUP4 ADD SLT PUSH2 0x49CE JUMPI DUP1 DUP2 REVERT JUMPDEST DUP2 MLOAD PUSH1 0x20 PUSH1 0x1 PUSH1 0x1 PUSH1 0x40 SHL SUB DUP1 DUP4 GT ISZERO PUSH2 0x49E4 JUMPI INVALID JUMPDEST PUSH2 0x49F1 DUP3 DUP4 DUP6 MUL ADD PUSH2 0x536C JUMP JUMPDEST DUP4 DUP2 MSTORE DUP3 DUP2 ADD SWAP1 DUP7 DUP5 ADD PUSH1 0xC0 DUP1 DUP8 MUL DUP10 ADD DUP7 ADD DUP11 LT ISZERO PUSH2 0x4A0F JUMPI DUP8 DUP9 REVERT JUMPDEST DUP8 JUMPDEST DUP8 DUP2 LT ISZERO PUSH2 0x4A99 JUMPI DUP2 DUP4 DUP13 SUB SLT ISZERO PUSH2 0x4A27 JUMPI DUP9 DUP10 REVERT JUMPDEST PUSH1 0x40 DUP1 MLOAD DUP4 DUP2 ADD DUP2 DUP2 LT DUP10 DUP3 GT OR ISZERO PUSH2 0x4A3C JUMPI INVALID JUMPDEST DUP3 MSTORE DUP5 MLOAD PUSH2 0x4A49 DUP2 PUSH2 0x53A7 JUMP JUMPDEST DUP2 MSTORE DUP5 DUP10 ADD MLOAD DUP10 DUP3 ADD MSTORE DUP2 DUP6 ADD MLOAD SWAP2 DUP2 ADD SWAP2 SWAP1 SWAP2 MSTORE PUSH1 0x60 DUP1 DUP6 ADD MLOAD SWAP1 DUP3 ADD MSTORE PUSH1 0x80 DUP1 DUP6 ADD MLOAD SWAP1 DUP3 ADD MSTORE PUSH1 0xA0 SWAP1 PUSH2 0x4A80 DUP3 DUP7 ADD PUSH2 0x4B48 JUMP JUMPDEST SWAP2 DUP2 ADD SWAP2 SWAP1 SWAP2 MSTORE DUP6 MSTORE SWAP4 DUP7 ADD SWAP4 SWAP2 DUP2 ADD SWAP2 PUSH1 0x1 ADD PUSH2 0x4A11 JUMP JUMPDEST POP SWAP2 SWAP10 SWAP9 POP POP POP POP POP POP POP POP POP JUMP JUMPDEST PUSH1 0x0 DUP1 DUP4 PUSH1 0x1F DUP5 ADD SLT PUSH2 0x4AB9 JUMPI DUP2 DUP3 REVERT JUMPDEST POP DUP2 CALLDATALOAD PUSH1 0x1 PUSH1 0x1 PUSH1 0x40 SHL SUB DUP2 GT ISZERO PUSH2 0x4ACF JUMPI DUP2 DUP3 REVERT JUMPDEST PUSH1 0x20 DUP4 ADD SWAP2 POP DUP4 PUSH1 0x20 DUP1 DUP4 MUL DUP6 ADD ADD GT ISZERO PUSH2 0x4AE9 JUMPI PUSH1 0x0 DUP1 REVERT JUMPDEST SWAP3 POP SWAP3 SWAP1 POP JUMP JUMPDEST DUP1 MLOAD DUP1 ISZERO ISZERO DUP2 EQ PUSH2 0xC81 JUMPI PUSH1 0x0 DUP1 REVERT JUMPDEST DUP1 MLOAD PUSH1 0x1 PUSH1 0x1 PUSH1 0x70 SHL SUB NOT DUP2 AND DUP2 EQ PUSH2 0xC81 JUMPI PUSH1 0x0 DUP1 REVERT JUMPDEST DUP1 MLOAD PUSH1 0x1 PUSH1 0x1 PUSH1 0xF8 SHL SUB NOT DUP2 AND DUP2 EQ PUSH2 0xC81 JUMPI PUSH1 0x0 DUP1 REVERT JUMPDEST DUP1 MLOAD PUSH1 0x1 PUSH1 0x1 PUSH1 0xD0 SHL SUB NOT DUP2 AND DUP2 EQ PUSH2 0xC81 JUMPI PUSH1 0x0 DUP1 REVERT JUMPDEST DUP1 MLOAD PUSH1 0x4 DUP2 LT PUSH2 0xC81 JUMPI PUSH1 0x0 DUP1 REVERT JUMPDEST PUSH1 0x0 PUSH1 0xC0 DUP3 DUP5 SUB SLT ISZERO PUSH2 0x4B68 JUMPI DUP1 DUP2 REVERT JUMPDEST PUSH1 0x40 MLOAD PUSH1 0xC0 DUP2 ADD DUP2 DUP2 LT PUSH1 0x1 PUSH1 0x1 PUSH1 0x40 SHL SUB DUP3 GT OR ISZERO PUSH2 0x4B84 JUMPI INVALID JUMPDEST DUP1 PUSH1 0x40 MSTORE POP DUP1 SWAP2 POP DUP3 MLOAD PUSH5 0xFFFFFFFFFF DUP2 AND DUP2 EQ PUSH2 0x4BA1 JUMPI PUSH1 0x0 DUP1 REVERT JUMPDEST DUP2 MSTORE PUSH2 0x4BAF PUSH1 0x20 DUP5 ADD PUSH2 0x4B18 JUMP JUMPDEST PUSH1 0x20 DUP3 ADD MSTORE PUSH2 0x4BC0 PUSH1 0x40 DUP5 ADD PUSH2 0x4D35 JUMP JUMPDEST PUSH1 0x40 DUP3 ADD MSTORE PUSH2 0x4BD1 PUSH1 0x60 DUP5 ADD PUSH2 0x4D2A JUMP JUMPDEST PUSH1 0x60 DUP3 ADD MSTORE PUSH2 0x4BE2 PUSH1 0x80 DUP5 ADD PUSH2 0x4B00 JUMP JUMPDEST PUSH1 0x80 DUP3 ADD MSTORE PUSH2 0x4BF3 PUSH1 0xA0 DUP5 ADD PUSH2 0x4AF0 JUMP JUMPDEST PUSH1 0xA0 DUP3 ADD MSTORE POP SWAP3 SWAP2 POP POP JUMP JUMPDEST PUSH1 0x0 PUSH1 0xC0 DUP3 DUP5 SUB SLT ISZERO PUSH2 0x4C10 JUMPI DUP1 DUP2 REVERT JUMPDEST PUSH1 0x40 MLOAD PUSH1 0x80 DUP2 ADD DUP2 DUP2 LT PUSH1 0x1 PUSH1 0x1 PUSH1 0x40 SHL SUB DUP3 GT OR ISZERO PUSH2 0x4C2C JUMPI INVALID JUMPDEST DUP1 PUSH1 0x40 MSTORE POP DUP1 SWAP2 POP DUP3 MLOAD PUSH2 0x4C3F DUP2 PUSH2 0x53A7 JUMP JUMPDEST DUP2 MSTORE PUSH1 0x20 DUP4 DUP2 ADD MLOAD SWAP1 DUP3 ADD MSTORE PUSH2 0x4C58 DUP5 PUSH1 0x40 DUP6 ADD PUSH2 0x4CD6 JUMP JUMPDEST PUSH1 0x40 DUP3 ADD MSTORE PUSH1 0xA0 DUP4 ADD MLOAD PUSH1 0x60 DUP3 ADD MSTORE POP SWAP3 SWAP2 POP POP JUMP JUMPDEST PUSH1 0x0 PUSH1 0xA0 DUP3 DUP5 SUB SLT ISZERO PUSH2 0x4C7F JUMPI DUP1 DUP2 REVERT JUMPDEST PUSH1 0x40 MLOAD PUSH1 0xA0 DUP2 ADD DUP2 DUP2 LT PUSH1 0x1 PUSH1 0x1 PUSH1 0x40 SHL SUB DUP3 GT OR ISZERO PUSH2 0x4C9B JUMPI INVALID JUMPDEST DUP1 PUSH1 0x40 MSTORE POP DUP1 SWAP2 POP DUP3 MLOAD DUP2 MSTORE PUSH1 0x20 DUP4 ADD MLOAD PUSH1 0x20 DUP3 ADD MSTORE PUSH1 0x40 DUP4 ADD MLOAD PUSH1 0x40 DUP3 ADD MSTORE PUSH1 0x60 DUP4 ADD MLOAD PUSH1 0x60 DUP3 ADD MSTORE PUSH1 0x80 DUP4 ADD MLOAD PUSH1 0x80 DUP3 ADD MSTORE POP SWAP3 SWAP2 POP POP JUMP JUMPDEST PUSH1 0x0 PUSH1 0x60 DUP3 DUP5 SUB SLT ISZERO PUSH2 0x4CE7 JUMPI DUP1 DUP2 REVERT JUMPDEST PUSH1 0x40 MLOAD PUSH1 0x60 DUP2 ADD DUP2 DUP2 LT PUSH1 0x1 PUSH1 0x1 PUSH1 0x40 SHL SUB DUP3 GT OR ISZERO PUSH2 0x4D03 JUMPI INVALID JUMPDEST DUP1 PUSH1 0x40 MSTORE POP DUP1 SWAP2 POP DUP3 MLOAD DUP2 MSTORE PUSH1 0x20 DUP4 ADD MLOAD PUSH1 0x20 DUP3 ADD MSTORE PUSH1 0x40 DUP4 ADD MLOAD PUSH1 0x40 DUP3 ADD MSTORE POP SWAP3 SWAP2 POP POP JUMP JUMPDEST DUP1 MLOAD PUSH2 0xC81 DUP2 PUSH2 0x53A7 JUMP JUMPDEST DUP1 MLOAD PUSH1 0xFF DUP2 AND DUP2 EQ PUSH2 0xC81 JUMPI PUSH1 0x0 DUP1 REVERT JUMPDEST PUSH1 0x0 DUP1 PUSH1 0x0 DUP1 PUSH1 0x0 DUP1 PUSH1 0x80 DUP8 DUP10 SUB SLT ISZERO PUSH2 0x4D5E JUMPI DUP2 DUP3 REVERT JUMPDEST DUP7 CALLDATALOAD PUSH2 0x4D69 DUP2 PUSH2 0x538F JUMP JUMPDEST SWAP6 POP PUSH1 0x20 DUP8 ADD CALLDATALOAD PUSH2 0x4D79 DUP2 PUSH2 0x53A7 JUMP JUMPDEST SWAP5 POP PUSH1 0x40 DUP8 ADD CALLDATALOAD PUSH1 0x1 PUSH1 0x1 PUSH1 0x40 SHL SUB DUP1 DUP3 GT ISZERO PUSH2 0x4D94 JUMPI DUP4 DUP5 REVERT JUMPDEST PUSH2 0x4DA0 DUP11 DUP4 DUP12 ADD PUSH2 0x4AA8 JUMP JUMPDEST SWAP1 SWAP7 POP SWAP5 POP PUSH1 0x60 DUP10 ADD CALLDATALOAD SWAP2 POP DUP1 DUP3 GT ISZERO PUSH2 0x4DB8 JUMPI DUP4 DUP5 REVERT JUMPDEST POP PUSH2 0x4DC5 DUP10 DUP3 DUP11 ADD PUSH2 0x4AA8 JUMP JUMPDEST SWAP8 SWAP11 SWAP7 SWAP10 POP SWAP5 SWAP8 POP SWAP3 SWAP6 SWAP4 SWAP5 SWAP3 POP POP POP JUMP JUMPDEST PUSH1 0x0 DUP1 PUSH1 0x0 DUP1 PUSH1 0x0 DUP1 PUSH1 0x0 PUSH1 0xA0 DUP9 DUP11 SUB SLT ISZERO PUSH2 0x4DF1 JUMPI DUP5 DUP6 REVERT JUMPDEST DUP8 CALLDATALOAD PUSH2 0x4DFC DUP2 PUSH2 0x538F JUMP JUMPDEST SWAP7 POP PUSH1 0x20 DUP9 ADD CALLDATALOAD PUSH2 0x4E0C DUP2 PUSH2 0x53A7 JUMP JUMPDEST SWAP6 POP PUSH1 0x40 DUP9 ADD CALLDATALOAD PUSH2 0x4E1C DUP2 PUSH2 0x53A7 JUMP JUMPDEST SWAP5 POP PUSH1 0x60 DUP9 ADD CALLDATALOAD PUSH1 0x1 PUSH1 0x1 PUSH1 0x40 SHL SUB DUP1 DUP3 GT ISZERO PUSH2 0x4E37 JUMPI DUP3 DUP4 REVERT JUMPDEST PUSH2 0x4E43 DUP12 DUP4 DUP13 ADD PUSH2 0x4AA8 JUMP JUMPDEST SWAP1 SWAP7 POP SWAP5 POP PUSH1 0x80 DUP11 ADD CALLDATALOAD SWAP2 POP DUP1 DUP3 GT ISZERO PUSH2 0x4E5B JUMPI DUP3 DUP4 REVERT JUMPDEST POP PUSH2 0x4E68 DUP11 DUP3 DUP12 ADD PUSH2 0x4AA8 JUMP JUMPDEST SWAP9 SWAP12 SWAP8 SWAP11 POP SWAP6 SWAP9 POP SWAP4 SWAP7 SWAP3 SWAP6 SWAP3 SWAP4 POP POP POP JUMP JUMPDEST PUSH1 0x0 DUP1 PUSH2 0x180 DUP4 DUP6 SUB SLT ISZERO PUSH2 0x4E8E JUMPI DUP2 DUP3 REVERT JUMPDEST PUSH2 0x4E98 DUP5 DUP5 PUSH2 0x4B57 JUMP JUMPDEST SWAP2 POP PUSH2 0x4EA7 DUP5 PUSH1 0xC0 DUP6 ADD PUSH2 0x4B57 JUMP JUMPDEST SWAP1 POP SWAP3 POP SWAP3 SWAP1 POP JUMP JUMPDEST PUSH1 0x0 DUP1 PUSH1 0x0 DUP4 DUP6 SUB PUSH2 0x420 DUP2 SLT ISZERO PUSH2 0x4EC6 JUMPI DUP2 DUP3 REVERT JUMPDEST PUSH2 0x4ED0 DUP7 DUP7 PUSH2 0x4B57 JUMP JUMPDEST SWAP4 POP PUSH2 0x340 PUSH1 0xBF NOT DUP3 ADD SLT ISZERO PUSH2 0x4EE4 JUMPI DUP2 DUP3 REVERT JUMPDEST POP PUSH2 0x160 PUSH2 0x4EF1 DUP2 PUSH2 0x536C JUMP JUMPDEST PUSH2 0x4EFD PUSH1 0xC0 DUP8 ADD PUSH2 0x49B3 JUMP JUMPDEST DUP2 MSTORE PUSH1 0xE0 DUP7 ADD MLOAD PUSH1 0x20 DUP3 ADD MSTORE PUSH2 0x100 DUP1 DUP8 ADD MLOAD PUSH1 0x40 DUP4 ADD MSTORE PUSH2 0x120 DUP1 DUP9 ADD MLOAD PUSH1 0x60 DUP5 ADD MSTORE PUSH2 0x140 DUP1 DUP10 ADD MLOAD PUSH1 0x80 DUP6 ADD MSTORE PUSH2 0x4F38 DUP6 DUP11 ADD PUSH2 0x4B30 JUMP JUMPDEST PUSH1 0xA0 DUP6 ADD MSTORE PUSH2 0x4F4B DUP11 PUSH2 0x180 DUP12 ADD PUSH2 0x4C6E JUMP JUMPDEST PUSH1 0xC0 DUP6 ADD MSTORE PUSH2 0x4F5E DUP11 PUSH2 0x220 DUP12 ADD PUSH2 0x4C6E JUMP JUMPDEST PUSH1 0xE0 DUP6 ADD MSTORE PUSH2 0x4F71 DUP11 PUSH2 0x2C0 DUP12 ADD PUSH2 0x4CD6 JUMP JUMPDEST DUP4 DUP6 ADD MSTORE PUSH2 0x4F83 DUP11 PUSH2 0x320 DUP12 ADD PUSH2 0x4BFF JUMP JUMPDEST DUP3 DUP6 ADD MSTORE PUSH2 0x4F94 PUSH2 0x3E0 DUP11 ADD PUSH2 0x4AF0 JUMP JUMPDEST SWAP1 DUP5 ADD MSTORE POP POP PUSH2 0x400 DUP7 ADD MLOAD SWAP1 SWAP4 POP SWAP1 POP PUSH1 0x1 PUSH1 0x1 PUSH1 0x40 SHL SUB DUP2 GT ISZERO PUSH2 0x4FB8 JUMPI DUP2 DUP3 REVERT JUMPDEST PUSH2 0x4FC4 DUP7 DUP3 DUP8 ADD PUSH2 0x49BE JUMP JUMPDEST SWAP2 POP POP SWAP3 POP SWAP3 POP SWAP3 JUMP JUMPDEST PUSH1 0x0 DUP1 PUSH1 0x40 DUP4 DUP6 SUB SLT ISZERO PUSH2 0x4FE0 JUMPI DUP2 DUP3 REVERT JUMPDEST POP POP DUP1 MLOAD PUSH1 0x20 SWAP1 SWAP2 ADD MLOAD SWAP1 SWAP3 SWAP1 SWAP2 POP JUMP JUMPDEST PUSH1 0x0 DUP2 MLOAD DUP1 DUP5 MSTORE PUSH1 0x20 DUP1 DUP6 ADD SWAP5 POP DUP1 DUP5 ADD DUP4 JUMPDEST DUP4 DUP2 LT ISZERO PUSH2 0x5020 JUMPI DUP2 MLOAD DUP8 MSTORE SWAP6 DUP3 ADD SWAP6 SWAP1 DUP3 ADD SWAP1 PUSH1 0x1 ADD PUSH2 0x5004 JUMP JUMPDEST POP SWAP5 SWAP6 SWAP5 POP POP POP POP POP JUMP JUMPDEST DUP1 MLOAD PUSH5 0xFFFFFFFFFF AND DUP3 MSTORE PUSH1 0x20 DUP1 DUP3 ADD MLOAD PUSH1 0x1 PUSH1 0x1 PUSH1 0xF8 SHL SUB NOT AND SWAP1 DUP4 ADD MSTORE PUSH1 0x40 DUP1 DUP3 ADD MLOAD PUSH1 0xFF AND SWAP1 DUP4 ADD MSTORE PUSH1 0x60 DUP1 DUP3 ADD MLOAD PUSH2 0xFFFF AND SWAP1 DUP4 ADD MSTORE PUSH1 0x80 DUP1 DUP3 ADD MLOAD PUSH1 0x1 PUSH1 0x1 PUSH1 0x70 SHL SUB NOT AND SWAP1 DUP4 ADD MSTORE PUSH1 0xA0 SWAP1 DUP2 ADD MLOAD ISZERO ISZERO SWAP2 ADD MSTORE JUMP JUMPDEST PUSH1 0x1 PUSH1 0x1 PUSH1 0xA0 SHL SUB SWAP2 SWAP1 SWAP2 AND DUP2 MSTORE PUSH1 0x20 ADD SWAP1 JUMP JUMPDEST PUSH1 0x1 PUSH1 0x1 PUSH1 0xA0 SHL SUB SWAP3 DUP4 AND DUP2 MSTORE SWAP2 AND PUSH1 0x20 DUP3 ADD MSTORE PUSH1 0x40 ADD SWAP1 JUMP JUMPDEST PUSH1 0x0 PUSH2 0x1E0 DUP1 DUP4 ADD PUSH1 0x1 DUP1 PUSH1 0xA0 SHL SUB DUP1 DUP11 AND DUP6 MSTORE PUSH1 0x20 DUP2 DUP11 AND DUP2 DUP8 ADD MSTORE PUSH1 0x40 SWAP2 POP PUSH2 0x50E1 DUP3 DUP8 ADD DUP11 PUSH2 0x502B JUMP JUMPDEST PUSH2 0x50EF PUSH2 0x100 DUP8 ADD DUP10 PUSH2 0x502B JUMP JUMPDEST PUSH2 0x1C0 DUP7 ADD SWAP4 SWAP1 SWAP4 MSTORE DUP6 MLOAD SWAP2 DUP3 SWAP1 MSTORE PUSH2 0x200 DUP6 ADD SWAP3 DUP1 DUP8 ADD SWAP3 DUP6 JUMPDEST DUP2 DUP2 LT ISZERO PUSH2 0x5166 JUMPI DUP5 MLOAD DUP1 MLOAD PUSH2 0xFFFF AND DUP8 MSTORE DUP4 DUP2 ADD MLOAD DUP5 DUP9 ADD MSTORE DUP5 DUP2 ADD MLOAD DUP6 DUP9 ADD MSTORE PUSH1 0x60 DUP1 DUP3 ADD MLOAD SWAP1 DUP9 ADD MSTORE PUSH1 0x80 DUP1 DUP3 ADD MLOAD SWAP1 DUP9 ADD MSTORE PUSH1 0xA0 SWAP1 DUP2 ADD MLOAD SWAP1 PUSH1 0x4 DUP3 LT PUSH2 0x5151 JUMPI INVALID JUMPDEST DUP8 ADD MSTORE PUSH1 0xC0 SWAP1 SWAP6 ADD SWAP5 SWAP4 DUP3 ADD SWAP4 PUSH1 0x1 ADD PUSH2 0x510A JUMP JUMPDEST POP SWAP4 SWAP12 SWAP11 POP POP POP POP POP POP POP POP POP POP POP JUMP JUMPDEST PUSH1 0x1 PUSH1 0x1 PUSH1 0xA0 SHL SUB SWAP4 DUP5 AND DUP2 MSTORE SWAP2 SWAP1 SWAP3 AND PUSH1 0x20 DUP3 ADD MSTORE PUSH1 0x40 DUP2 ADD SWAP2 SWAP1 SWAP2 MSTORE PUSH1 0x60 ADD SWAP1 JUMP JUMPDEST PUSH1 0x1 PUSH1 0x1 PUSH1 0xA0 SHL SUB SWAP3 SWAP1 SWAP3 AND DUP3 MSTORE PUSH1 0x20 DUP3 ADD MSTORE PUSH1 0x40 ADD SWAP1 JUMP JUMPDEST PUSH1 0x1 PUSH1 0x1 PUSH1 0xA0 SHL SUB SWAP4 SWAP1 SWAP4 AND DUP4 MSTORE PUSH2 0xFFFF SWAP2 DUP3 AND PUSH1 0x20 DUP5 ADD MSTORE AND PUSH1 0x40 DUP3 ADD MSTORE PUSH1 0x60 ADD SWAP1 JUMP JUMPDEST PUSH1 0x0 PUSH1 0x40 DUP3 MSTORE PUSH2 0x51EC PUSH1 0x40 DUP4 ADD DUP6 PUSH2 0x4FF1 JUMP JUMPDEST SWAP1 POP DUP3 PUSH1 0x20 DUP4 ADD MSTORE SWAP4 SWAP3 POP POP POP JUMP JUMPDEST PUSH1 0x20 DUP1 DUP3 MSTORE PUSH1 0x16 SWAP1 DUP3 ADD MSTORE PUSH22 0x13585C9AD95D081B9BDD081A5B9A5D1A585B1A5E9959 PUSH1 0x52 SHL PUSH1 0x40 DUP3 ADD MSTORE PUSH1 0x60 ADD SWAP1 JUMP JUMPDEST PUSH1 0x20 DUP1 DUP3 MSTORE PUSH1 0xB SWAP1 DUP3 ADD MSTORE PUSH11 0x4554482042616C616E6365 PUSH1 0xA8 SHL PUSH1 0x40 DUP3 ADD MSTORE PUSH1 0x60 ADD SWAP1 JUMP JUMPDEST PUSH1 0x20 DUP1 DUP3 MSTORE PUSH1 0xD SWAP1 DUP3 ADD MSTORE PUSH13 0x92DCECC2D8D2C840D2DCC8CAF PUSH1 0x9B SHL PUSH1 0x40 DUP3 ADD MSTORE PUSH1 0x60 ADD SWAP1 JUMP JUMPDEST PUSH1 0x20 DUP1 DUP3 MSTORE PUSH1 0xE SWAP1 DUP3 ADD MSTORE PUSH14 0x1499595B9D1C985B9D0818D85B1B PUSH1 0x92 SHL PUSH1 0x40 DUP3 ADD MSTORE PUSH1 0x60 ADD SWAP1 JUMP JUMPDEST PUSH1 0x20 DUP1 DUP3 MSTORE PUSH1 0x8 SWAP1 DUP3 ADD MSTORE PUSH8 0x12185CC81919589D PUSH1 0xC2 SHL PUSH1 0x40 DUP3 ADD MSTORE PUSH1 0x60 ADD SWAP1 JUMP JUMPDEST PUSH1 0x20 DUP1 DUP3 MSTORE PUSH1 0x8 SWAP1 DUP3 ADD MSTORE PUSH8 0x9CCACE4086C2E6D PUSH1 0xC3 SHL PUSH1 0x40 DUP3 ADD MSTORE PUSH1 0x60 ADD SWAP1 JUMP JUMPDEST PUSH2 0xFFFF DUP8 DUP2 AND DUP3 MSTORE DUP7 AND PUSH1 0x20 DUP3 ADD MSTORE PUSH1 0x40 DUP2 ADD DUP6 SWAP1 MSTORE PUSH1 0xA0 PUSH1 0x60 DUP3 ADD DUP2 SWAP1 MSTORE DUP2 ADD DUP4 SWAP1 MSTORE PUSH1 0x0 PUSH1 0x1 PUSH1 0x1 PUSH1 0xFB SHL SUB DUP5 GT ISZERO PUSH2 0x531C JUMPI DUP1 DUP2 REVERT JUMPDEST PUSH1 0x20 DUP5 MUL DUP1 DUP7 PUSH1 0xC0 DUP6 ADD CALLDATACOPY DUP1 DUP4 ADD SWAP1 POP PUSH1 0xC0 DUP2 ADD DUP3 DUP2 MSTORE PUSH1 0xC0 DUP5 DUP4 SUB ADD PUSH1 0x80 DUP6 ADD MSTORE PUSH2 0x5348 DUP2 DUP7 PUSH2 0x4FF1 JUMP JUMPDEST SWAP11 SWAP10 POP POP POP POP POP POP POP POP POP POP JUMP JUMPDEST SWAP3 DUP4 MSTORE PUSH1 0x20 DUP4 ADD SWAP2 SWAP1 SWAP2 MSTORE PUSH1 0x40 DUP3 ADD MSTORE PUSH1 0x60 ADD SWAP1 JUMP JUMPDEST PUSH1 0x40 MLOAD DUP2 DUP2 ADD PUSH1 0x1 PUSH1 0x1 PUSH1 0x40 SHL SUB DUP2 GT DUP3 DUP3 LT OR ISZERO PUSH2 0x5387 JUMPI INVALID JUMPDEST PUSH1 0x40 MSTORE SWAP2 SWAP1 POP JUMP JUMPDEST PUSH1 0x1 PUSH1 0x1 PUSH1 0xA0 SHL SUB DUP2 AND DUP2 EQ PUSH2 0x53A4 JUMPI PUSH1 0x0 DUP1 REVERT JUMPDEST POP JUMP JUMPDEST PUSH2 0xFFFF DUP2 AND DUP2 EQ PUSH2 0x53A4 JUMPI PUSH1 0x0 DUP1 REVERT INVALID LOG2 PUSH5 0x6970667358 0x22 SLT KECCAK256 KECCAK256 0x2B 0xD8 0xD9 0xC0 PUSH2 0x366 DIV PUSH23 0x8C208018CDD96CB43B4ECB46FCBA48590AB450AEF5F864 PUSH20 0x6F6C634300070600330000000000000000000000 ","sha1":"811e438b2a64a811b2cdaea7bb2058b08bda4478","source":"// SPDX-License-Identifier: GPL-3.0-only\npragma solidity =0.7.6;\npragma abicoder v2;\n\nimport {\n    AccountContext,\n    PrimeRate,\n    LiquidationFactors\n} from \"../../global/Types.sol\";\nimport {SafeInt256} from \"../../math/SafeInt256.sol\";\n\nimport {ActionGuards} from \"./ActionGuards.sol\";\nimport {AccountContextHandler} from \"../../internal/AccountContextHandler.sol\";\nimport {LiquidatefCash} from \"../../internal/liquidation/LiquidatefCash.sol\";\nimport {LiquidationHelpers} from \"../../internal/liquidation/LiquidationHelpers.sol\";\nimport {BalanceHandler} from \"../../internal/balances/BalanceHandler.sol\";\nimport {PrimeRateLib} from \"../../internal/pCash/PrimeRateLib.sol\";\n\nimport {FreeCollateralExternal} from \"../FreeCollateralExternal.sol\";\nimport {SettleAssetsExternal} from \"../SettleAssetsExternal.sol\";\n\ncontract LiquidatefCashAction is ActionGuards {\n    using AccountContextHandler for AccountContext;\n    using PrimeRateLib for PrimeRate;\n    using SafeInt256 for int256;\n\n    /// @notice Calculates fCash local liquidation amounts, may settle account so this can be called off\n    // chain using a static call\n    /// @param liquidateAccount account to liquidate\n    /// @param localCurrency local currency to liquidate\n    /// @param fCashMaturities array of fCash maturities in the local currency to purchase, must be\n    /// ordered descending\n    /// @param maxfCashLiquidateAmounts max notional of fCash to liquidate in corresponding maturity,\n    /// zero will represent no maximum\n    /// @return an array of the notional amounts of fCash to transfer, corresponding to fCashMaturities\n    /// @return amount of local currency required from the liquidator\n    function calculatefCashLocalLiquidation(\n        address liquidateAccount,\n        uint16 localCurrency,\n        uint256[] calldata fCashMaturities,\n        uint256[] calldata maxfCashLiquidateAmounts\n    ) external nonReentrant returns (int256[] memory, int256) {\n        uint256 blockTime = block.timestamp;\n        LiquidatefCash.fCashContext memory c =\n            _liquidateLocal(\n                liquidateAccount,\n                localCurrency,\n                fCashMaturities,\n                maxfCashLiquidateAmounts,\n                blockTime\n            );\n\n        return (c.fCashNotionalTransfers, c.localPrimeCashFromLiquidator);\n    }\n\n    /// @notice Liquidates fCash using local currency\n    /// @param liquidateAccount account to liquidate\n    /// @param localCurrency local currency to liquidate\n    /// @param fCashMaturities array of fCash maturities in the local currency to purchase, must be ordered\n    /// descending\n    /// @param maxfCashLiquidateAmounts max notional of fCash to liquidate in corresponding maturity,\n    /// zero will represent no maximum\n    /// @return an array of the notional amounts of fCash to transfer, corresponding to fCashMaturities\n    /// @return amount of local currency required from the liquidator\n    function liquidatefCashLocal(\n        address liquidateAccount,\n        uint16 localCurrency,\n        uint256[] calldata fCashMaturities,\n        uint256[] calldata maxfCashLiquidateAmounts\n    ) external payable nonReentrant returns (int256[] memory, int256) {\n        require(fCashMaturities.length > 0);\n        uint256 blockTime = block.timestamp;\n        LiquidatefCash.fCashContext memory c =\n            _liquidateLocal(\n                liquidateAccount,\n                localCurrency,\n                fCashMaturities,\n                maxfCashLiquidateAmounts,\n                blockTime\n            );\n\n        LiquidatefCash.finalizefCashLiquidation(\n            liquidateAccount,\n            msg.sender,\n            localCurrency,\n            localCurrency,\n            fCashMaturities,\n            c\n        );\n\n        return (c.fCashNotionalTransfers, c.localPrimeCashFromLiquidator);\n    }\n\n    /// @notice Calculates fCash cross currency liquidation, can be called via staticcall off chain\n    /// @param liquidateAccount account to liquidate\n    /// @param localCurrency local currency to liquidate\n    /// @param fCashCurrency currency of fCash to purchase\n    /// @param fCashMaturities array of fCash maturities in the local currency to purchase, must be ordered\n    /// descending\n    /// @param maxfCashLiquidateAmounts max notional of fCash to liquidate in corresponding maturity, zero\n    /// will represent no maximum\n    /// @return an array of the notional amounts of fCash to transfer, corresponding to fCashMaturities\n    /// @return amount of local currency required from the liquidator\n    function calculatefCashCrossCurrencyLiquidation(\n        address liquidateAccount,\n        uint16 localCurrency,\n        uint16 fCashCurrency,\n        uint256[] calldata fCashMaturities,\n        uint256[] calldata maxfCashLiquidateAmounts\n    ) external nonReentrant returns (int256[] memory, int256) {\n        uint256 blockTime = block.timestamp;\n        LiquidatefCash.fCashContext memory c =\n            _liquidateCrossCurrency(\n                liquidateAccount,\n                localCurrency,\n                fCashCurrency,\n                fCashMaturities,\n                maxfCashLiquidateAmounts,\n                blockTime\n            );\n\n        return (c.fCashNotionalTransfers, c.localPrimeCashFromLiquidator);\n    }\n\n    /// @notice Liquidates fCash across local to collateral currency\n    /// @param liquidateAccount account to liquidate\n    /// @param localCurrency local currency to liquidate\n    /// @param fCashCurrency currency of fCash to purchase\n    /// @param fCashMaturities array of fCash maturities in the local currency to purchase, must be ordered\n    /// descending\n    /// @param maxfCashLiquidateAmounts max notional of fCash to liquidate in corresponding maturity, zero\n    /// will represent no maximum\n    /// @return an array of the notional amounts of fCash to transfer, corresponding to fCashMaturities\n    /// @return amount of local currency required from the liquidator\n    function liquidatefCashCrossCurrency(\n        address liquidateAccount,\n        uint16 localCurrency,\n        uint16 fCashCurrency,\n        uint256[] calldata fCashMaturities,\n        uint256[] calldata maxfCashLiquidateAmounts\n    ) external payable nonReentrant returns (int256[] memory, int256) {\n        require(fCashMaturities.length > 0);\n        uint256 blockTime = block.timestamp;\n\n        LiquidatefCash.fCashContext memory c =\n            _liquidateCrossCurrency(\n                liquidateAccount,\n                localCurrency,\n                fCashCurrency,\n                fCashMaturities,\n                maxfCashLiquidateAmounts,\n                blockTime\n            );\n\n        LiquidatefCash.finalizefCashLiquidation(\n            liquidateAccount,\n            msg.sender,\n            localCurrency,\n            fCashCurrency,\n            fCashMaturities,\n            c\n        );\n\n        return (c.fCashNotionalTransfers, c.localPrimeCashFromLiquidator);\n    }\n\n    function _liquidateLocal(\n        address liquidateAccount,\n        uint16 localCurrency,\n        uint256[] calldata fCashMaturities,\n        uint256[] calldata maxfCashLiquidateAmounts,\n        uint256 blockTime\n    ) private returns (LiquidatefCash.fCashContext memory) {\n        require(fCashMaturities.length == maxfCashLiquidateAmounts.length);\n        LiquidatefCash.fCashContext memory c;\n        (c.accountContext, c.factors, c.portfolio) = LiquidationHelpers.preLiquidationActions(\n            liquidateAccount,\n            localCurrency,\n            0\n        );\n\n        // prettier-ignore\n        (\n            int256 cashBalance,\n            /* int256 nTokenBalance */,\n            /* uint256 lastClaimTime */,\n            /* uint256 accountIncentiveDebt */\n        ) = BalanceHandler.getBalanceStorage(liquidateAccount, localCurrency, c.factors.localPrimeRate);\n        // Cash balance is used if liquidating negative fCash\n        c.localCashBalanceUnderlying = c.factors.localPrimeRate.convertToUnderlying(cashBalance);\n        c.fCashNotionalTransfers = new int256[](fCashMaturities.length);\n\n        LiquidatefCash.liquidatefCashLocal(\n            liquidateAccount,\n            localCurrency,\n            fCashMaturities,\n            maxfCashLiquidateAmounts,\n            c,\n            blockTime\n        );\n\n        return c;\n    }\n\n    function _liquidateCrossCurrency(\n        address liquidateAccount,\n        uint16 localCurrency,\n        uint16 fCashCurrency,\n        uint256[] calldata fCashMaturities,\n        uint256[] calldata maxfCashLiquidateAmounts,\n        uint256 blockTime\n    ) private returns (LiquidatefCash.fCashContext memory) {\n        require(fCashMaturities.length == maxfCashLiquidateAmounts.length); // dev: fcash maturity length mismatch\n        LiquidatefCash.fCashContext memory c;\n        (c.accountContext, c.factors, c.portfolio) = LiquidationHelpers.preLiquidationActions(\n            liquidateAccount,\n            localCurrency,\n            fCashCurrency\n        );\n        c.fCashNotionalTransfers = new int256[](fCashMaturities.length);\n\n        LiquidatefCash.liquidatefCashCrossCurrency(\n            liquidateAccount,\n            fCashCurrency,\n            fCashMaturities,\n            maxfCashLiquidateAmounts,\n            c,\n            blockTime\n        );\n\n        return c;\n    }\n\n    /// @notice Get a list of deployed library addresses (sorted by library name)\n    function getLibInfo() external pure returns (address, address) {\n        return (address(FreeCollateralExternal), address(SettleAssetsExternal));\n    }\n}\n","sourcePath":"contracts/external/actions/LiquidatefCashAction.sol","type":"contract","deployment":{"address":"0x1c510763432C0e65d86f313612d4e1E2D26E4332","chainid":"42161","blockHeight":86536868}}