{"abi":[{"inputs":[{"internalType":"contract Comptroller","name":"_comptroller","type":"address"}],"stateMutability":"nonpayable","type":"constructor","name":"constructor"},{"anonymous":false,"inputs":[{"indexed":false,"internalType":"uint16","name":"currencyId","type":"uint16"},{"indexed":false,"internalType":"uint256","name":"underlyingScalar","type":"uint256"},{"indexed":false,"internalType":"uint256","name":"annualizedInterestRate","type":"uint256"}],"name":"CurrencyRebalanced","type":"event"},{"anonymous":false,"inputs":[{"indexed":true,"internalType":"uint16","name":"currencyId","type":"uint16"},{"indexed":false,"internalType":"int256","name":"harvestAmount","type":"int256"}],"name":"ExcessReserveBalanceHarvested","type":"event"},{"anonymous":false,"inputs":[{"indexed":false,"internalType":"uint16","name":"currencyId","type":"uint16"},{"indexed":false,"internalType":"uint40","name":"cooldownTimeInSeconds","type":"uint40"}],"name":"RebalancingCooldownUpdated","type":"event"},{"anonymous":false,"inputs":[{"indexed":false,"internalType":"uint16","name":"currencyId","type":"uint16"},{"components":[{"internalType":"address","name":"holding","type":"address"},{"internalType":"uint8","name":"target","type":"uint8"}],"indexed":false,"internalType":"struct NotionalTreasury.RebalancingTargetConfig[]","name":"targets","type":"tuple[]"}],"name":"RebalancingTargetsUpdated","type":"event"},{"anonymous":false,"inputs":[{"indexed":true,"internalType":"uint16","name":"currencyId","type":"uint16"},{"indexed":false,"internalType":"int256","name":"newBalance","type":"int256"}],"name":"ReserveBalanceUpdated","type":"event"},{"anonymous":false,"inputs":[{"indexed":false,"internalType":"uint16","name":"currencyId","type":"uint16"},{"indexed":false,"internalType":"uint256","name":"bufferAmount","type":"uint256"}],"name":"ReserveBufferUpdated","type":"event"},{"anonymous":false,"inputs":[{"indexed":true,"internalType":"address","name":"previousManager","type":"address"},{"indexed":true,"internalType":"address","name":"newManager","type":"address"}],"name":"TreasuryManagerChanged","type":"event"},{"anonymous":false,"inputs":[{"indexed":false,"internalType":"uint16","name":"currencyId","type":"uint16"},{"indexed":false,"internalType":"uint32","name":"newEmissionRate","type":"uint32"}],"name":"UpdateIncentiveEmissionRate","type":"event"},{"inputs":[],"name":"COMP","outputs":[{"internalType":"contract IERC20","name":"","type":"address"}],"stateMutability":"view","type":"function"},{"inputs":[],"name":"COMPTROLLER","outputs":[{"internalType":"contract Comptroller","name":"","type":"address"}],"stateMutability":"view","type":"function"},{"inputs":[{"internalType":"address[]","name":"cTokens","type":"address[]"}],"name":"claimCOMPAndTransfer","outputs":[{"internalType":"uint256","name":"","type":"uint256"}],"stateMutability":"nonpayable","type":"function"},{"inputs":[],"name":"owner","outputs":[{"internalType":"address","name":"","type":"address"}],"stateMutability":"view","type":"function"},{"inputs":[],"name":"pauseGuardian","outputs":[{"internalType":"address","name":"","type":"address"}],"stateMutability":"view","type":"function"},{"inputs":[],"name":"pauseRouter","outputs":[{"internalType":"address","name":"","type":"address"}],"stateMutability":"view","type":"function"},{"inputs":[{"internalType":"uint16[]","name":"currencyId","type":"uint16[]"}],"name":"rebalance","outputs":[],"stateMutability":"nonpayable","type":"function"},{"inputs":[{"internalType":"uint16","name":"currencyId","type":"uint16"},{"internalType":"uint40","name":"cooldownTimeInSeconds","type":"uint40"}],"name":"setRebalancingCooldown","outputs":[],"stateMutability":"nonpayable","type":"function"},{"inputs":[{"internalType":"uint16","name":"currencyId","type":"uint16"},{"components":[{"internalType":"address","name":"holding","type":"address"},{"internalType":"uint8","name":"target","type":"uint8"}],"internalType":"struct NotionalTreasury.RebalancingTargetConfig[]","name":"targets","type":"tuple[]"}],"name":"setRebalancingTargets","outputs":[],"stateMutability":"nonpayable","type":"function"},{"inputs":[{"internalType":"uint16","name":"currencyId","type":"uint16"},{"internalType":"uint256","name":"bufferAmount","type":"uint256"}],"name":"setReserveBuffer","outputs":[],"stateMutability":"nonpayable","type":"function"},{"inputs":[{"internalType":"uint16","name":"currencyId","type":"uint16"},{"internalType":"int256","name":"newBalance","type":"int256"}],"name":"setReserveCashBalance","outputs":[],"stateMutability":"nonpayable","type":"function"},{"inputs":[{"internalType":"address","name":"manager","type":"address"}],"name":"setTreasuryManager","outputs":[],"stateMutability":"nonpayable","type":"function"},{"inputs":[{"internalType":"uint16[]","name":"currencies","type":"uint16[]"}],"name":"transferReserveToTreasury","outputs":[{"internalType":"uint256[]","name":"","type":"uint256[]"}],"stateMutability":"nonpayable","type":"function"},{"inputs":[{"internalType":"uint16","name":"currencyId","type":"uint16"},{"internalType":"uint32","name":"newEmissionRate","type":"uint32"}],"name":"updateIncentiveEmissionRate","outputs":[],"stateMutability":"nonpayable","type":"function"}],"bytecode":"60c06040523480156200001157600080fd5b50604051620047c5380380620047c58339810160408190526200003491620000eb565b6001600160601b0319606082901b1660a0526001600160a01b03811615620000d157806001600160a01b0316639d1b5a0a6040518163ffffffff1660e01b815260040160206040518083038186803b1580156200009057600080fd5b505afa158015620000a5573d6000803e3d6000fd5b505050506040513d601f19601f82011682018060405250810190620000cb9190620000eb565b620000d4565b60005b60601b6001600160601b031916608052506200012a565b600060208284031215620000fd578081fd5b81516200010a8162000111565b9392505050565b6001600160a01b03811681146200012757600080fd5b50565b60805160601c60a05160601c61465d62000168600039806104595280610a125250806108e352806109745280610a965280610b3f525061465d6000f3fe608060405234801561001057600080fd5b50600436106100ea5760003560e01c80638e73b23c1161008c578063a9efba3211610066578063a9efba32146101a6578063b71501bc146101b9578063fadb7fee146101c1578063fe47a9f2146101e1576100ea565b80638e73b23c1461016d578063a05e125514610180578063a9d7bc5214610193576100ea565b80635f82c67e116100c85780635f82c67e146101355780636d7a00eb1461013d578063824633671461015d5780638da5cb5b14610165576100ea565b80630655d8b8146100ef57806312adc47b1461010457806324a3d62214610117575b600080fd5b6101026100fd366004614090565b6101f4565b005b610102610112366004614110565b610400565b61011f610448565b60405161012c919061423a565b60405180910390f35b61011f610457565b61015061014b36600461401d565b61047b565b60405161012c9190614347565b61011f610652565b61011f610661565b61010261017b366004614110565b610677565b61010261018e36600461401d565b610705565b6101026101a1366004614139565b610770565b6101026101b4366004614177565b610840565b61011f6108e1565b6101d46101cf366004613d89565b610905565b60405161012c919061435a565b6101026101ef366004613d6d565b610b74565b600054600160201b90046001600160a01b0316331461022e5760405162461bcd60e51b8152600401610225906143c8565b60405180910390fd5b600061023984610c01565b90506000816001600160a01b031663e79bf13b6040518163ffffffff1660e01b815260040160006040518083038186803b15801561027657600080fd5b505afa15801561028a573d6000803e3d6000fd5b505050506040513d6000823e601f3d908101601f191682016040526102b29190810190613dc8565b805190915083146102c257600080fd5b60006102cc610c33565b61ffff87166000908152602091909152604081209150805b83518110156103ad57368787838181106102fa57fe5b9050604002019050600085838151811061031057fe5b60200260200101519050806001600160a01b03168260000160208101906103379190613d6d565b6001600160a01b03161461034a57600080fd5b61036761035d60408401602085016141e6565b859060ff16610c46565b935061037960408301602084016141e6565b6001600160a01b03919091166000908152602086905260409020805460ff191660ff909216919091179055506001016102e4565b5060648111156103bc57600080fd5b7f173893b333beacb26403450e70f577038a6531741aaff45c341bee3b8d4b42c48787876040516103ef939291906144a4565b60405180910390a150505050505050565b600054600160201b90046001600160a01b031633146104315760405162461bcd60e51b8152600401610225906143c8565b61043a82610c5f565b6104448282610c9c565b5050565b6002546001600160a01b031681565b7f000000000000000000000000000000000000000000000000000000000000000081565b600b546060906001600160a01b031633146104a85760405162461bcd60e51b815260040161022590614363565b6002600a5414156104cb5760405162461bcd60e51b81526004016102259061444f565b6002600a556000826001600160401b03811180156104e857600080fd5b50604051908082528060200260200182016040528015610512578160200160208202803683370190505b50905060005b838110156106455780156105905784846001830381811061053557fe5b905060200201602081019061054a9190614076565b61ffff1685858381811061055a57fe5b905060200201602081019061056f9190614076565b61ffff16116105905760405162461bcd60e51b8152600401610225906143fd565b600085858381811061059e57fe5b90506020020160208101906105b39190614076565b90506105be81610c5f565b61ffff81166000908152600c60205260408120546105db90610cdd565b9050806105e957505061063d565b60006105f7610fee84610cf7565b90508181136106085750505061063d565b8181036106158482610d50565b86868151811061062157fe5b602002602001018181525050610638848383610db6565b505050505b600101610518565b506001600a559392505050565b6001546001600160a01b031681565b600054600160201b90046001600160a01b031681565b600054600160201b90046001600160a01b031633146106a85760405162461bcd60e51b8152600401610225906143c8565b6106b182610c5f565b61ffff82166000908152600c602052604090819020829055517ffd37f6bc518c96b848c133a7d44a5a9b5acea171be7dc45e363f153347ed7641906106f99084908490614507565b60405180910390a15050565b600b546001600160a01b0316331461072f5760405162461bcd60e51b815260040161022590614363565b60005b8181101561076b5761076383838381811061074957fe5b905060200201602081019061075e9190614076565b610e10565b600101610732565b505050565b600054600160201b90046001600160a01b031633146107a15760405162461bcd60e51b8152600401610225906143c8565b6107aa82610c5f565b60006107b98361ffff16610fb7565b90506001600160a01b0381166107ce57600080fd5b6305f5e1008263ffffffff16126107f75760405162461bcd60e51b815260040161022590614429565b610802818342610fdd565b7f713f9554d16202d36a895476ec29ce9250f47d35422e2d9409e8f644d6aab6898383604051610833929190614537565b60405180910390a1505050565b600054600160201b90046001600160a01b031633146108715760405162461bcd60e51b8152600401610225906143c8565b600061087b611033565b61ffff841660009081526020829052604090819020805464ffffffffff60501b1916600160501b64ffffffffff871602179055519091507f16b1cf4cbff8df027f5bec1791dc85fa6b5f625fba6bc942c10482ccfe6814b2906108339085908590614551565b7f000000000000000000000000000000000000000000000000000000000000000081565b600b546000906001600160a01b031633146109325760405162461bcd60e51b815260040161022590614363565b6002600a5414156109555760405162461bcd60e51b81526004016102259061444f565b6002600a556040516370a0823160e01b81526000906001600160a01b037f000000000000000000000000000000000000000000000000000000000000000016906370a08231906109a990309060040161423a565b60206040518083038186803b1580156109c157600080fd5b505afa1580156109d5573d6000803e3d6000fd5b505050506040513d601f19601f820116820180604052508101906109f991906141ab565b60405162e1ed9760e51b81529091506001600160a01b037f00000000000000000000000000000000000000000000000000000000000000001690631c3db2e090610a4b90309088908890600401614272565b600060405180830381600087803b158015610a6557600080fd5b505af1158015610a79573d6000803e3d6000fd5b50506040516370a0823160e01b8152600092506001600160a01b037f00000000000000000000000000000000000000000000000000000000000000001691506370a0823190610acc90309060040161423a565b60206040518083038186803b158015610ae457600080fd5b505afa158015610af8573d6000803e3d6000fd5b505050506040513d601f19601f82011682018060405250810190610b1c91906141ab565b90506000610b2a8284611040565b90508015610b6657610b666001600160a01b037f0000000000000000000000000000000000000000000000000000000000000000163383611055565b6001600a5595945050505050565b600054600160201b90046001600160a01b03163314610ba55760405162461bcd60e51b8152600401610225906143c8565b600b546040516001600160a01b038084169216907ff92cfddd8d7ab2f6e4fd488959c76c8033aaaa6dad691a0cbd1fc68f194b3d0c90600090a3600b80546001600160a01b0319166001600160a01b0392909216919091179055565b600080610c0c6110a7565b61ffff8416600090815260209190915260409020546001600160a01b03169150505b919050565b600080610c4060246110b0565b92915050565b600082820183811015610c5857600080fd5b9392505050565b8061ffff166000108015610c7d575060005461ffff90811690821611155b610c995760405162461bcd60e51b815260040161022590614477565b50565b6000811215610caa57600080fd5b6000610cb8610fee84610cf7565b9050610cc7610fee84846110c9565b61076b610fee84610cd8858561113d565b611153565b60006001600160ff1b03821115610cf357600080fd5b5090565b600080610d026111dd565b6001600160a01b03851660009081526020828152604080832061ffff8816845290915281208054600160a81b9004600a90810b900b9450919250831215610d4857600080fd5b505092915050565b600080610d5c846111ea565b600b54909150610d7a90610fee906001600160a01b031686866111fc565b600b54600090610d9f906001600160a01b031686610d97876112a2565b8560016112b0565b905060008113610dae57600080fd5b949350505050565b610dc08282611359565b9150610dcf610fee84846110c9565b8261ffff167f7c5e8932dd97cea84f9ab339dad12a29a4cd81e67e7d892663aa03a3f0832b7382604051610e03919061435a565b60405180910390a2505050565b6000610e1a611033565b61ffff831660009081526020918252604090819020815160808101835290546001600160501b038116825264ffffffffff600160501b82048116948301859052600160781b82041692820183905263ffffffff600160a01b909104811660608301529093504292610e8c9291610c4616565b10610ea95760405162461bcd60e51b81526004016102259061439a565b610eb2826111ea565b506000610ebe83611375565b9050610ec98361143d565b81516000906001600160501b031615610f63576000610f2e633b9aca00610f22670de0b6b3a7640000610f2888600001516001600160501b0316610f22670de0b6b3a76400008a60a0015161163190919063ffffffff16565b90611658565b90611040565b9050610f5f610f51856040015164ffffffffff164261104090919063ffffffff16565b610f22836301da9c00611631565b9150505b610f72848360a0015183611677565b7feddea56dfbd588f030ed3fcbde65761f19492023ce381012239e7f7cc8d35a7c848360a0015183604051610fa99392919061451b565b60405180910390a150505050565b600080610fc2611747565b6000938452602052505060409020546001600160a01b031690565b610fe983600083611754565b506000610ff4611835565b6001600160a01b03909416600090815260209490945250506040909120805463ffffffff909216620100000265ffffffff000019909216919091179055565b600080610c4060256110b0565b60008282111561104f57600080fd5b50900390565b604080516001600160a01b038416602482015260448082018490528251808303909101815260649091019091526020810180516001600160e01b031663a9059cbb60e01b17905261076b908490611842565b600080610c40601f5b6000620f42408260268111156110c257fe5b0192915050565b60008112156110d757600080fd5b60006110e16111dd565b6001600160a01b03851660009081526020828152604080832061ffff881684529091529020909150611112836118f3565b8154600a9190910b6001600160581b0316600160a81b026001600160a81b0390911617905550505050565b80820382811315600083121514610c4057600080fd5b600061115d611925565b61ffff8416600090815260209190915260409081902054905163ad1c095d60e01b81526001600160a01b039091169150819063ad1c095d906111a590879086906004016142ce565b600060405180830381600087803b1580156111bf57600080fd5b505af11580156111d3573d6000803e3d6000fd5b5050505050505050565b600080610c4060066110b0565b6111f2613a3c565b610c408242611932565b6000611206611925565b61ffff8416600090815260209190915260408120546001600160a01b03169150821215611231579293925b806001600160a01b03166323de6651868661124b866119f8565b6040518463ffffffff1660e01b81526004016112699392919061424e565b600060405180830381600087803b15801561128357600080fd5b505af1158015611297573d6000803e3d6000fd5b505050505050505050565b6000610c4060001983611a19565b6000836112bf57506000611350565b600084126112cc57600080fd5b60006112db8661ffff16611a67565b90506112f0816112eb8688611a7a565b611aac565b915060006112fd836112a2565b905061130a878383611ae4565b60038260600151600581111561131c57fe5b14156113325761132d888286611bce565b61133f565b815161133f908983611c9c565b61134c8888858589611d13565b5050505b95945050505050565b6000611365838361113d565b90506000811215610c4057600080fd5b61137d613a5d565b6000611387611d5a565b61ffff93841660009081526020918252604090819020805464ffffffffff81168652600160281b81046001600160581b03908116948701949094526001820154841692860192909252600160d81b820463ffffffff166060860152600160801b9091049091166080840152600201546001600160501b0380821660a0850152600160501b8204811660c0850152600160a01b82041660e0840152600160f01b900460ff1661012c02909216610100820152919050565b600061144882610c01565b90506000816001600160a01b031663e79bf13b6040518163ffffffff1660e01b815260040160006040518083038186803b15801561148557600080fd5b505afa158015611499573d6000803e3d6000fd5b505050506040513d6000823e601f3d908101601f191682016040526114c19190810190613dc8565b905060006114cf8483611d67565b905060006114de848484611e68565b90506000846001600160a01b031663ef81f2166040518163ffffffff1660e01b81526004016040805180830381600087803b15801561151c57600080fd5b505af1158015611530573d6000803e3d6000fd5b505050506040513d601f19601f8201168201806040525081019061155491906141c3565b91505060006115668761ffff16611a67565b90506115768184600001516122a4565b506115858184602001516124ad565b6000866001600160a01b031663ef81f2166040518163ffffffff1660e01b81526004016040805180830381600087803b1580156115c157600080fd5b505af11580156115d5573d6000803e3d6000fd5b505050506040513d601f19601f820116820180604052508101906115f991906141c3565b915050600061161961160a83610cdd565b61161386610cdd565b9061113d565b9050612710611627826119f8565b1261129757600080fd5b60008261164057506000610c40565b8282028284828161164d57fe5b0414610c5857600080fd5b600080821161166657600080fd5b81838161166f57fe5b049392505050565b6000611681611033565b905061168c426126b8565b61ffff85166000908152602083905260409020805464ffffffffff92909216600160781b0264ffffffffff60781b199092169190911790556116cd836126cc565b61ffff85166000908152602083905260409020805469ffffffffffffffffffff19166001600160501b039290921691909117905561170a826126e2565b61ffff909416600090815260209190915260409020805463ffffffff94909416600160a01b0263ffffffff60a01b19909416939093179092555050565b600080610c4060036110b0565b600080600061176386856126f5565b5091509150600061177261278b565b6001600160a01b03881660009081526020829052604081209192506117978589612798565b9050806000131580156117b057506001600160601b0381105b6117b957600080fd5b81546bffffffffffffffffffffffff19166001600160601b038216176fffffffffffffffffffffffffffffffff60601b1916600160601b6001600160801b0386160217825563ffffffff871061180e57600080fd5b5080546001600160e01b0316600160e01b63ffffffff881602179055509150509392505050565b600080610c4060026110b0565b6000611897826040518060400160405280602081526020017f5361666545524332303a206c6f772d6c6576656c2063616c6c206661696c6564815250856001600160a01b03166127ae9092919063ffffffff16565b80519091501561076b578080602001905160208110156118b657600080fd5b505161076b5760405162461bcd60e51b815260040180806020018281038252602a8152602001806145fe602a913960400191505060405180910390fd5b60006a7fffffffffffffffffffff19821280159061191c57506a7fffffffffffffffffffff8213155b610cf357600080fd5b600080610c4060216110b0565b61193a613a3c565b600061194584611375565b905082816000015110156119845760008061195f866127bd565b905061196d8684838861283a565b909350915061197d86838561293b565b5050611991565b8051831461199157600080fd5b60405180606001604052806119bf6119ba8460a001518560c0015161163190919063ffffffff16565b610cdd565b81526020016119e26119ba8460a001518560e0015161163190919063ffffffff16565b8152602001826060015181525091505092915050565b600080821215611a1257611a0b826112a2565b9050610c2e565b5080610c2e565b818102600019831415611a4957811580611a3b575082828281611a3857fe5b05145b611a4457600080fd5b610c40565b821580611a5e575081838281611a5b57fe5b05145b610c4057600080fd5b611a6f613aa9565b610c40826001612b6f565b6000610c586ec097ce7bc90715b34b9f1000000000611aa6856000015185611a1990919063ffffffff16565b90612c09565b60006305f5e10083604001511415611ac5575080610c40565b610c586305f5e100611aa6856040015185611a1990919063ffffffff16565b6000611aee612c3a565b83516001600160a01b0316600090815260208290526040902054909150808311611b1957505061076b565b6000611b2486610c01565b90506000816001600160a01b031663b5e4da23866040518263ffffffff1660e01b8152600401611b54919061435a565b60006040518083038186803b158015611b6c57600080fd5b505afa158015611b80573d6000803e3d6000fd5b505050506040513d6000823e601f3d908101601f19168201604052611ba89190810190613f1f565b90506000611bb687836122a4565b9050611bc28482610c46565b8611156111d357600080fd5b8015611c60577382af49447d8a07e3bd95bd0d56f35241523fbab16001600160a01b031663d0e30db0836040518263ffffffff1660e01b81526004016000604051808303818588803b158015611c2357600080fd5b505af1158015611c37573d6000803e3d6000fd5b5050505050611c5b7382af49447d8a07e3bd95bd0d56f35241523fbab18484611c9c565b61076b565b6040516001600160a01b0384169083156108fc029084906000818181858888f19350505050158015611c96573d6000803e3d6000fd5b50505050565b826001600160a01b031663a9059cbb83836040518363ffffffff1660e01b815260040180836001600160a01b0316815260200182815260200192505050600060405180830381600087803b158015611cf357600080fd5b505af1158015611d07573d6000803e3d6000fd5b5050505061076b612c47565b600080611d208486612cb4565b9050611d2c8382612ce4565b9150611d39878784611153565b611d44868383612d06565b8351611d509086612df9565b5095945050505050565b600080610c40601d6110b0565b60606000611d73610c33565b61ffff851660009081526020919091526040902083519091506001600160401b0381118015611da157600080fd5b50604051908082528060200260200182016040528015611dcb578160200160208202803683370190505b5091506000805b8451811015611e59576000836000878481518110611dec57fe5b60200260200101516001600160a01b03166001600160a01b0316815260200190815260200160002060009054906101000a900460ff16905080858381518110611e3157fe5b60ff9283166020918202929092010152611e4e9084908316610c46565b925050600101611dd2565b506064811115610d4857600080fd5b611e70613ad8565b6000846001600160a01b031663395c46ba6040518163ffffffff1660e01b815260040160006040518083038186803b158015611eab57600080fd5b505afa158015611ebf573d6000803e3d6000fd5b505050506040513d6000823e601f3d908101601f19168201604052611ee79190810190614044565b90506000856001600160a01b031663a77c05b86040518163ffffffff1660e01b8152600401604080518083038186803b158015611f2357600080fd5b505afa158015611f37573d6000803e3d6000fd5b505050506040513d601f19601f82011682018060405250810190611f5b91906141c3565b509050600085516001600160401b0381118015611f7757600080fd5b50604051908082528060200260200182016040528015611fa1578160200160208202803683370190505b509050600086516001600160401b0381118015611fbd57600080fd5b50604051908082528060200260200182016040528015611fe7578160200160208202803683370190505b509050600087516001600160401b038111801561200357600080fd5b5060405190808252806020026020018201604052801561202d578160200160208202803683370190505b509050600088516001600160401b038111801561204957600080fd5b50604051908082528060200260200182016040528015612073578160200160208202803683370190505b50905060005b895181101561218a5760008a828151811061209057fe5b60200260200101519050600060648b84815181106120aa57fe5b602002602001015160ff168902816120be57fe5b04905060008984815181106120cf57fe5b60200260200101519050828885815181106120e657fe5b60200260200101906001600160a01b031690816001600160a01b0316815250508286858151811061211357fe5b60200260200101906001600160a01b031690816001600160a01b0316815250508082101561215b5781810387858151811061214a57fe5b60200260200101818152505061217f565b8181101561217f5780820385858151811061217257fe5b6020026020010181815250505b505050600101612079565b5060405163871ade4360e01b81526001600160a01b038b169063871ade43906121b990879087906004016142e7565b60006040518083038186803b1580156121d157600080fd5b505afa1580156121e5573d6000803e3d6000fd5b505050506040513d6000823e601f3d908101601f1916820160405261220d9190810190613f1f565b87526040516376cf13af60e01b81526001600160a01b038b16906376cf13af9061223d90859085906004016142e7565b60006040518083038186803b15801561225557600080fd5b505afa158015612269573d6000803e3d6000fd5b505050506040513d6000823e601f3d908101601f191682016040526122919190810190613dfa565b6020880152509498975050505050505050565b6000805b82518110156124a65760008382815181106122bf57fe5b60200260200101519050600081606001516001600160a01b03166370a08231306040518263ffffffff1660e01b81526004016122fb919061423a565b60206040518083038186803b15801561231357600080fd5b505afa158015612327573d6000803e3d6000fd5b505050506040513d601f19601f8201168201806040525081019061234b91906141ab565b905060006123598730612e53565b905060005b8351518110156123aa576123a28460000151828151811061237b57fe5b602002602001015160008660200151848151811061239557fe5b6020026020010151612f04565b60010161235e565b5060006123b78830612e53565b905060006123c58284611040565b905080856040015111156123d857600080fd5b60608501516040516370a0823160e01b81526000916001600160a01b0316906370a082319061240b90309060040161423a565b60206040518083038186803b15801561242357600080fd5b505afa158015612437573d6000803e3d6000fd5b505050506040513d601f19601f8201168201806040525081019061245b91906141ab565b90508481111561246a57600080fd5b61247986606001518683613049565b6124838883610c46565b97506124948a600001518585613049565b5050600190940193506122a892505050565b5092915050565b6000805b8251811015611c965760008382815181106124c857fe5b60200260200101519050600081608001516001600160a01b03166370a08231306040518263ffffffff1660e01b8152600401612504919061423a565b60206040518083038186803b15801561251c57600080fd5b505afa158015612530573d6000803e3d6000fd5b505050506040513d601f19601f8201168201806040525081019061255491906141ab565b905060006125628730612e53565b905060005b8351518110156125bc576125b48460000151828151811061258457fe5b60200260200101518560400151838151811061259c57fe5b60200260200101518660200151848151811061239557fe5b600101612567565b5060006125c98830612e53565b905060006125d78383611040565b905084606001518111156125ea57600080fd5b60808501516040516370a0823160e01b81526000916001600160a01b0316906370a082319061261d90309060040161423a565b60206040518083038186803b15801561263557600080fd5b505afa158015612649573d6000803e3d6000fd5b505050506040513d601f19601f8201168201806040525081019061266d91906141ab565b90508085111561267c57600080fd5b61268b86608001518683613049565b6126958883610c46565b97506126a68a600001518585613049565b5050600190940193506124b192505050565b600064ffffffffff821115610cf357600080fd5b60006001600160501b03821115610cf357600080fd5b600063ffffffff821115610cf357600080fd5b6000806000612703856130bd565b9194509250905080841180156127195750600081115b80156127255750600083115b1561278457600061273586613119565b50505091505060006127606127576305f5e1008461163190919063ffffffff16565b84880387613185565b905061276c8482610c46565b93506001600160801b03841061278157600080fd5b50505b9250925092565b600080610c4060116110b0565b81810182811215600083121514610c4057600080fd5b6060610dae84846000856131ad565b6000806127c983610c01565b6001600160a01b031663ef81f2166040518163ffffffff1660e01b81526004016040805180830381600087803b15801561280257600080fd5b505af1158015612816573d6000803e3d6000fd5b505050506040513d601f19601f82011682018060405250810190610dae91906141c3565b612842613a5d565b6000806000612852888689613308565b60c08b019290925260e08a0192909252602089015191935091506128769083610c46565b60208801526080870151600090156128a45760808801516128a19061289b8982611040565b90613413565b90505b6128c46128b9670de0b6b3a764000083610c46565b60a08a015190613430565b60a0890152506080870186905260006128db611033565b61ffff8a1660009081526020919091526040902054885163ffffffff600160a01b90920482169250612926916129159085908590610c4616565b8a606001518b61010001518a61344d565b60608901525050928552509294909350915050565b6000612945611d5a565b60008561ffff168152602001908152602001600020905061296982600001516126b8565b815464ffffffffff191664ffffffffff9190911617815560a082015161298e906126cc565b60028201805469ffffffffffffffffffff19166001600160501b039290921691909117905560c08201516129c1906126cc565b81600201600a6101000a8154816001600160501b0302191690836001600160501b031602179055506129f68260e001516126cc565b8160020160146101000a8154816001600160501b0302191690836001600160501b03160217905550612a2b82602001516134db565b81546001600160581b0391909116600160281b026fffffffffffffffffffffff0000000000199091161781556040820151612a65906134db565b6001820180546affffffffffffffffffffff19166001600160581b03929092169190911790556080820151612a99906134db565b81546001600160581b0391909116600160801b026affffffffffffffffffffff60801b199091161781556060820151612ad1906126e2565b815463ffffffff91909116600160d81b0263ffffffff60d81b199091161781558215612b1d576000612b0284610cdd565b9050612b0e85826134f1565b612b1b610fee8683611153565b505b8361ffff167fef25641e225e493886510ca1ad6584fa7b442b9fea820a29d1de3ce27d270fd28360a001518460c001518560e00151604051612b619392919061456c565b60405180910390a250505050565b612b77613aa9565b6000612b81613528565b6000858152602082815260408083208715158452825291829020825160a08101845281546001600160a01b038116825260ff600160a01b82048116151594830194909452600160b01b81048416600a0a9482019490945293945092916060830191600160a81b909104166005811115612bf657fe5b8152600060209091015295945050505050565b600081600019148015612c1f5750600160ff1b83145b15612c2957600080fd5b818381612c3257fe5b059392505050565b600080610c4060266110b0565b6000612c51613af2565b3d8015612c655760208114612c6e57600080fd5b60019250612c79565b60206000833e815192505b5081610444576040805162461bcd60e51b8152602060048201526005602482015264045524332360dc1b604482015290519081900360640190fd5b60006305f5e10083604001511415612ccd575080610c40565b6040830151610c5890611aa6846305f5e100611a19565b8151600090610c5890611aa6846ec097ce7bc90715b34b9f1000000000611a19565b6000612d10611d5a565b61ffff8516600090815260209190915260409020805490915064ffffffffff164214612d3b57600080fd5b8054600090612d5a90600160281b90046001600160581b031685612798565b8254909150600090612d7c90600160801b90046001600160581b031685612798565b9050612d8f612d8a82613535565b6134db565b83546001600160581b0391909116600160801b026affffffffffffffffffffff60801b19909116178355612dc5612d8a83613535565b83546001600160581b0391909116600160281b026fffffffffffffffffffffff000000000019909116179092555050505050565b6000612e03612c3a565b6001600160a01b038416600090815260208290526040902054909150612e31612e2c8285612798565b613535565b6001600160a01b03909416600090815260209290925250604090209190915550565b6000600383606001516005811115612e6757fe5b1415612e7e57506001600160a01b03811631610c40565b82516040516370a0823160e01b81526001600160a01b03909116906370a0823190612ead90859060040161423a565b60206040518083038186803b158015612ec557600080fd5b505afa158015612ed9573d6000803e3d6000fd5b505050506040513d601f19601f82011682018060405250810190612efd91906141ab565b9050610c40565b600080846001600160a01b031684846040518082805190602001908083835b60208310612f425780518252601f199092019160209182019101612f23565b6001836020036101000a03801982511681845116808217855250505050505090500191505060006040518083038185875af1925050503d8060008114612fa4576040519150601f19603f3d011682016040523d82523d6000602084013e612fa9565b606091505b509150915081612fb882613544565b906130415760405162461bcd60e51b81526004018080602001828103825283818151815260200191508051906020019080838360005b83811015613006578181015183820152602001612fee565b50505050905090810190601f1680156130335780820380516001836020036101000a031916815260200191505b509250505060405180910390fd5b505050505050565b6000613053612c3a565b6001600160a01b0385166000908152602082905260409020549091508381111561307c57600080fd5b600061308a61160a86610cdd565b9050613099612e2c8383612798565b6001600160a01b039096166000908152602093909352505060409020929092555050565b6000806000806130cb61278b565b6001600160a01b0395909516600090815260209590955250506040909220546001600160601b03811693600160601b82046001600160801b03169350600160e01b90910463ffffffff169150565b60008060008060008061312a611835565b6001600160a01b039097166000908152602097909752505060409094205461ffff81169563ffffffff620100008304811696506601000000000000830416945060ff600160501b8304169350600160581b90910460d81b9150565b6000610dae82610f226301da9c0081886131a789670de0b6b3a7640000611631565b90611631565b6060824710156131ee5760405162461bcd60e51b81526004018080602001828103825260268152602001806145d86026913960400191505060405180910390fd5b6131f785613649565b613248576040805162461bcd60e51b815260206004820152601d60248201527f416464726573733a2063616c6c20746f206e6f6e2d636f6e7472616374000000604482015290519081900360640190fd5b600080866001600160a01b031685876040518082805190602001908083835b602083106132865780518252601f199092019160209182019101613267565b6001836020036101000a03801982511681845116808217855250505050505090500191505060006040518083038185875af1925050503d80600081146132e8576040519150601f19603f3d011682016040523d82523d6000602084013e6132ed565b606091505b50915091506132fd82828661364f565b979650505050505050565b60008060008060008061331b89886136b5565b8951909550919350915060009061334290613337908b90611040565b633b9aca0090611631565b905061337c6133716301da9c006133598585611631565b8161336057fe5b670de0b6b3a7640000919004610c46565b60e08a015190613430565b965061339e6133936301da9c006133598785611631565b60c08a015190613430565b9550818314156133b557506000935061340a915050565b60006133d76133cc6301da9c006133598786611631565b60e08b015190613430565b905060006133e58983611040565b905061340288610f22838d6040015161163190919063ffffffff16565b965050505050505b93509350935093565b6000610c5861342a84670de0b6b3a7640000611631565b83611658565b6000610c5861343f8484611631565b670de0b6b3a7640000611658565b600080831161345b57600080fd5b8186111561346a575083611350565b60006134768388611040565b9050838111156134895785915050611350565b6000613495828661374f565b905060006134a7633b9aca0083611040565b90506134ce633b9aca00610f226134be8a85611631565b6134c88c87611631565b90610c46565b9998505050505050505050565b60006001600160581b03821115610cf357600080fd5b60008112156134ff57600080fd5b600061350d610fee84610cf7565b90506135198183612798565b905061076b610fee84836110c9565b600080610c4060076110b0565b600080821215610cf357600080fd5b606060448251101561357a575060408051808201909152600d81526c14da5b195b9d0814995d995c9d609a1b6020820152610c2e565b600482018051909260240190602081101561359457600080fd5b8101908080516040519392919084600160201b8211156135b357600080fd5b9083019060208201858111156135c857600080fd5b8251600160201b8111828201881017156135e157600080fd5b82525081516020918201929091019080838360005b8381101561360e5781810151838201526020016135f6565b50505050905090810190601f16801561363b5780820380516001836020036101000a031916815260200191505b506040525050509050919050565b3b151590565b6060831561365e575081610c58565b82511561366e5782518084602001fd5b60405162461bcd60e51b8152602060048201818152845160248401528451859391928392604401919085019080838360008315613006578181015183820152602001612fee565b600080600080600085602001511115613702576136ff6136e68660c00151876020015161163190919063ffffffff16565b60e087015160408801516136f991611631565b9061374f565b90505b600061370d87613762565b90506137198183613795565b945081156137305761372d81866001613848565b93505b6020860151156127815761374485836138c3565b925050509250925092565b6000610c5861342a84633b9aca00611631565b61376a613b10565b60006137746138dc565b61ffff8416600090815260209190915260408120549150610c5890826138e9565b6000808360800151116137a757600080fd5b633b9aca008211156137b857600080fd5b825182116137d75782516040840151612efd9190610f22908590611631565b8260200151821161380f576040830151835160208501516060860151612efd93926134c89281900391610f2291880390859003611631565b610c5883606001516134c88560200151633b9aca0003610f2287606001518860800151038860200151880361163190919063ffffffff16565b6000806138676064610f228760e001518761163190919063ffffffff16565b90508460a0015181101561387c575060a08401515b8460c0015181111561388f575060c08401515b82156138a65761389f8482610c46565b91506138bb565b8381116138b5578084036138b8565b60005b91505b509392505050565b6000610c586138d28484611631565b633b9aca00611658565b600080610c40601b6110b0565b6138f1613b10565b6064633b9aca008360ff86166020811061390757fe5b1a028161391057fe5b0481526064633b9aca008360ff86166001016020811061392c57fe5b1a028161393557fe5b0481602001818152505061395a8260028560ff16016020811061395457fe5b1a613a08565b60808201819052610100908360ff86166003016020811061397757fe5b1a028161398057fe5b0460408201526080810151610100908360ff8616600401602081106139a157fe5b1a02816139aa57fe5b0460608201526207a1208260ff8516600501602081106139c657fe5b1a0260a0820152622625a08260ff8516600601602081106139e357fe5b1a0260c08201528160ff8416600701602081106139fc57fe5b1a60e082015292915050565b60008160ff16609610613a235760ff8216622625a002610c40565b5060951960ff919091160162e4e1c00263165a0bc00190565b60405180606001604052806000815260200160008152602001600081525090565b6040518061012001604052806000815260200160008152602001600081526020016000815260200160008152602001600081526020016000815260200160008152602001600081525090565b6040805160a0810182526000808252602082018190529181018290529060608201908152602001600081525090565b604051806040016040528060608152602001606081525090565b60405180602001604052806001906020820280368337509192915050565b60405180610100016040528060008152602001600081526020016000815260200160008152602001600081526020016000815260200160008152602001600081525090565b8051610c2e816145c2565b60008083601f840112613b71578182fd5b5081356001600160401b03811115613b87578182fd5b6020830191508360208083028501011115613ba157600080fd5b9250929050565b600082601f830112613bb8578081fd5b81516020613bcd613bc8836145a5565b614582565b8281528181019085830183850287018401881015613be9578586fd5b855b85811015613c10578151613bfe816145c2565b84529284019290840190600101613beb565b5090979650505050505050565b6000601f8381840112613c2e578182fd5b82516020613c3e613bc8836145a5565b82815281810190868301865b85811015613ce257815189018a603f820112613c64578889fd5b858101516001600160401b03811115613c7957fe5b613c8a818a01601f19168801614582565b81815260408d81848601011115613c9f578b8cfd5b8b5b83811015613cbc578481018201518382018b01528901613ca1565b83811115613ccc578c8a85850101525b5050865250509284019290840190600101613c4a565b509098975050505050505050565b600082601f830112613d00578081fd5b81516020613d10613bc8836145a5565b8281528181019085830183850287018401881015613d2c578586fd5b855b85811015613c1057815184529284019290840190600101613d2e565b803561ffff81168114610c2e57600080fd5b803560ff81168114610c2e57600080fd5b600060208284031215613d7e578081fd5b8135610c58816145c2565b60008060208385031215613d9b578081fd5b82356001600160401b03811115613db0578182fd5b613dbc85828601613b60565b90969095509350505050565b600060208284031215613dd9578081fd5b81516001600160401b03811115613dee578182fd5b610dae84828501613ba8565b60006020808385031215613e0c578182fd5b82516001600160401b0380821115613e22578384fd5b818501915085601f830112613e35578384fd5b8151613e43613bc8826145a5565b81815284810190848601875b84811015613f10578151870160a080601f19838f03011215613e6f578a8bfd5b613e7881614582565b8a83015189811115613e88578c8dfd5b613e968f8d83870101613ba8565b825250604083015189811115613eaa578c8dfd5b613eb88f8d83870101613c1d565b8c83015250606083015189811115613ece578c8dfd5b613edc8f8d83870101613cf0565b6040830152506080808401516060830152613ef8838501613b55565b90820152865250509287019290870190600101613e4f565b50909998505050505050505050565b60006020808385031215613f31578182fd5b82516001600160401b0380821115613f47578384fd5b818501915085601f830112613f5a578384fd5b8151613f68613bc8826145a5565b81815284810190848601875b84811015613f1057815187016080818d03601f19011215613f9357898afd5b60408051608081018181108a82111715613fa957fe5b8252828b015189811115613fbb578c8dfd5b613fc98f8d83870101613ba8565b8252508183015189811115613fdc578c8dfd5b613fea8f8d83870101613c1d565b8c8301525060608301518282015261400460808401613b55565b6060820152865250509287019290870190600101613f74565b6000806020838503121561402f578182fd5b82356001600160401b03811115613db0578283fd5b600060208284031215614055578081fd5b81516001600160401b0381111561406a578182fd5b610dae84828501613cf0565b600060208284031215614087578081fd5b610c5882613d4a565b6000806000604084860312156140a4578081fd5b6140ad84613d4a565b925060208401356001600160401b03808211156140c8578283fd5b818601915086601f8301126140db578283fd5b8135818111156140e9578384fd5b8760206040830285010111156140fd578384fd5b6020830194508093505050509250925092565b60008060408385031215614122578182fd5b61412b83613d4a565b946020939093013593505050565b6000806040838503121561414b578182fd5b61415483613d4a565b9150602083013563ffffffff8116811461416c578182fd5b809150509250929050565b60008060408385031215614189578182fd5b61419283613d4a565b9150602083013564ffffffffff8116811461416c578182fd5b6000602082840312156141bc578081fd5b5051919050565b600080604083850312156141d5578182fd5b505080516020909101519092909150565b6000602082840312156141f7578081fd5b610c5882613d5c565b6000815180845260208085019450808401835b8381101561422f57815187529582019590820190600101614213565b509495945050505050565b6001600160a01b0391909116815260200190565b6001600160a01b039384168152919092166020820152604081019190915260600190565b6001600160a01b03848116825260406020808401829052908301849052600091859160608501845b878110156142c15784356142ad816145c2565b84168252938201939082019060010161429a565b5098975050505050505050565b6001600160a01b03929092168252602082015260400190565b604080825283519082018190526000906020906060840190828701845b828110156143295781516001600160a01b031684529284019290840190600101614304565b5050508381038285015261433d8186614200565b9695505050505050565b600060208252610c586020830184614200565b90815260200190565b60208082526019908201527f5472656173757279206d616e6167657220726571756972656400000000000000604082015260600190565b6020808252601490820152732932b130b630b731b4b7339031b7b7b63237bbb760611b604082015260600190565b6020808252818101527f4f776e61626c653a2063616c6c6572206973206e6f7420746865206f776e6572604082015260600190565b60208082526012908201527112511cc81b5d5cdd081899481cdbdc9d195960721b604082015260600190565b6020808252600c908201526b496e76616c6964207261746560a01b604082015260600190565b6020808252600e908201526d1499595b9d1c985b9d0818d85b1b60921b604082015260600190565b602080825260139082015272125b9d985b1a590818dd5c9c995b98de481a59606a1b604082015260600190565b61ffff841681526040602080830182905282820184905260009190859060608501845b878110156142c15783356144da816145c2565b6001600160a01b0316825260ff6144f2858501613d5c565b168284015292840192908401906001016144c7565b61ffff929092168252602082015260400190565b61ffff9390931683526020830191909152604082015260600190565b61ffff92909216825263ffffffff16602082015260400190565b61ffff92909216825264ffffffffff16602082015260400190565b9283526020830191909152604082015260600190565b6040518181016001600160401b038111828210171561459d57fe5b604052919050565b60006001600160401b038211156145b857fe5b5060209081020190565b6001600160a01b0381168114610c9957600080fdfe416464726573733a20696e73756666696369656e742062616c616e636520666f722063616c6c5361666545524332303a204552433230206f7065726174696f6e20646964206e6f742073756363656564a26469706673582212204ed3b9fa7886d922b2fec2aacae32d1f272a1569214403bfbb98bcc1e6d81bdb64736f6c63430007060033","bytecodeSha1":"f403df89a28f6777c776d597c666392450fd288a","compiler":{"evm_version":"istanbul","optimizer":{"enabled":true,"runs":200},"version":"0.7.6+commit.7338295f"},"contractName":"TreasuryAction","language":"Solidity","natspec":{"kind":"dev","methods":{"claimCOMPAndTransfer(address[])":{"notice":"Claims COMP incentives earned and transfers to the treasury manager contract.","params":{"cTokens":"a list of cTokens to claim incentives for"},"returns":{"_0":"the balance of COMP claimed"}},"setReserveBuffer(uint16,uint256)":{"notice":"Sets the reserve buffer. This is the amount of reserve balance to keep denominated in 1e8 The reserve cannot be harvested if it's below this amount. This portion of the reserve will remain on the contract to act as a buffer against potential insolvency.","params":{"bufferAmount":"reserve buffer amount to keep in internal token precision (1e8)","currencyId":"refers to the currency of the reserve"}},"setReserveCashBalance(uint16,int256)":{"notice":"This is used in the case of insolvency. It allows the owner to re-align the reserve with its correct balance.","params":{"currencyId":"refers to the currency of the reserve","newBalance":"new reserve balance to set, must be less than the current balance"}},"setTreasuryManager(address)":{"notice":"Sets the new treasury manager contract"},"transferReserveToTreasury(uint16[])":{"notice":"Transfers some amount of reserve assets to the treasury manager contract to be invested into the sNOTE pool.","params":{"currencies":"an array of currencies to transfer from Notional"}},"updateIncentiveEmissionRate(uint16,uint32)":{"details":"emit:UpdateIncentiveEmissionRate","notice":"Updates the emission rate of incentives for a given currency","params":{"currencyId":"the currency id that the nToken references","newEmissionRate":"Target total incentives to emit for an nToken over an entire year denominated in WHOLE TOKENS (i.e. setting this to 1 means 1e8 tokens). The rate will not be exact due to multiplier effects and fluctuating token supply."}}},"version":1},"opcodes":"PUSH1 0x80 PUSH1 0x40 MSTORE CALLVALUE DUP1 ISZERO PUSH2 0x10 JUMPI PUSH1 0x0 DUP1 REVERT JUMPDEST POP PUSH1 0x4 CALLDATASIZE LT PUSH2 0xEA JUMPI PUSH1 0x0 CALLDATALOAD PUSH1 0xE0 SHR DUP1 PUSH4 0x8E73B23C GT PUSH2 0x8C JUMPI DUP1 PUSH4 0xA9EFBA32 GT PUSH2 0x66 JUMPI DUP1 PUSH4 0xA9EFBA32 EQ PUSH2 0x1A6 JUMPI DUP1 PUSH4 0xB71501BC EQ PUSH2 0x1B9 JUMPI DUP1 PUSH4 0xFADB7FEE EQ PUSH2 0x1C1 JUMPI DUP1 PUSH4 0xFE47A9F2 EQ PUSH2 0x1E1 JUMPI PUSH2 0xEA JUMP JUMPDEST DUP1 PUSH4 0x8E73B23C EQ PUSH2 0x16D JUMPI DUP1 PUSH4 0xA05E1255 EQ PUSH2 0x180 JUMPI DUP1 PUSH4 0xA9D7BC52 EQ PUSH2 0x193 JUMPI PUSH2 0xEA JUMP JUMPDEST DUP1 PUSH4 0x5F82C67E GT PUSH2 0xC8 JUMPI DUP1 PUSH4 0x5F82C67E EQ PUSH2 0x135 JUMPI DUP1 PUSH4 0x6D7A00EB EQ PUSH2 0x13D JUMPI DUP1 PUSH4 0x82463367 EQ PUSH2 0x15D JUMPI DUP1 PUSH4 0x8DA5CB5B EQ PUSH2 0x165 JUMPI PUSH2 0xEA JUMP JUMPDEST DUP1 PUSH4 0x655D8B8 EQ PUSH2 0xEF JUMPI DUP1 PUSH4 0x12ADC47B EQ PUSH2 0x104 JUMPI DUP1 PUSH4 0x24A3D622 EQ PUSH2 0x117 JUMPI JUMPDEST PUSH1 0x0 DUP1 REVERT JUMPDEST PUSH2 0x102 PUSH2 0xFD CALLDATASIZE PUSH1 0x4 PUSH2 0x4090 JUMP JUMPDEST PUSH2 0x1F4 JUMP JUMPDEST STOP JUMPDEST PUSH2 0x102 PUSH2 0x112 CALLDATASIZE PUSH1 0x4 PUSH2 0x4110 JUMP JUMPDEST PUSH2 0x400 JUMP JUMPDEST PUSH2 0x11F PUSH2 0x448 JUMP JUMPDEST PUSH1 0x40 MLOAD PUSH2 0x12C SWAP2 SWAP1 PUSH2 0x423A JUMP JUMPDEST PUSH1 0x40 MLOAD DUP1 SWAP2 SUB SWAP1 RETURN JUMPDEST PUSH2 0x11F PUSH2 0x457 JUMP JUMPDEST PUSH2 0x150 PUSH2 0x14B CALLDATASIZE PUSH1 0x4 PUSH2 0x401D JUMP JUMPDEST PUSH2 0x47B JUMP JUMPDEST PUSH1 0x40 MLOAD PUSH2 0x12C SWAP2 SWAP1 PUSH2 0x4347 JUMP JUMPDEST PUSH2 0x11F PUSH2 0x652 JUMP JUMPDEST PUSH2 0x11F PUSH2 0x661 JUMP JUMPDEST PUSH2 0x102 PUSH2 0x17B CALLDATASIZE PUSH1 0x4 PUSH2 0x4110 JUMP JUMPDEST PUSH2 0x677 JUMP JUMPDEST PUSH2 0x102 PUSH2 0x18E CALLDATASIZE PUSH1 0x4 PUSH2 0x401D JUMP JUMPDEST PUSH2 0x705 JUMP JUMPDEST PUSH2 0x102 PUSH2 0x1A1 CALLDATASIZE PUSH1 0x4 PUSH2 0x4139 JUMP JUMPDEST PUSH2 0x770 JUMP JUMPDEST PUSH2 0x102 PUSH2 0x1B4 CALLDATASIZE PUSH1 0x4 PUSH2 0x4177 JUMP JUMPDEST PUSH2 0x840 JUMP JUMPDEST PUSH2 0x11F PUSH2 0x8E1 JUMP JUMPDEST PUSH2 0x1D4 PUSH2 0x1CF CALLDATASIZE PUSH1 0x4 PUSH2 0x3D89 JUMP JUMPDEST PUSH2 0x905 JUMP JUMPDEST PUSH1 0x40 MLOAD PUSH2 0x12C SWAP2 SWAP1 PUSH2 0x435A JUMP JUMPDEST PUSH2 0x102 PUSH2 0x1EF CALLDATASIZE PUSH1 0x4 PUSH2 0x3D6D JUMP JUMPDEST PUSH2 0xB74 JUMP JUMPDEST PUSH1 0x0 SLOAD PUSH1 0x1 PUSH1 0x20 SHL SWAP1 DIV PUSH1 0x1 PUSH1 0x1 PUSH1 0xA0 SHL SUB AND CALLER EQ PUSH2 0x22E JUMPI PUSH1 0x40 MLOAD PUSH3 0x461BCD PUSH1 0xE5 SHL DUP2 MSTORE PUSH1 0x4 ADD PUSH2 0x225 SWAP1 PUSH2 0x43C8 JUMP JUMPDEST PUSH1 0x40 MLOAD DUP1 SWAP2 SUB SWAP1 REVERT JUMPDEST PUSH1 0x0 PUSH2 0x239 DUP5 PUSH2 0xC01 JUMP JUMPDEST SWAP1 POP PUSH1 0x0 DUP2 PUSH1 0x1 PUSH1 0x1 PUSH1 0xA0 SHL SUB AND PUSH4 0xE79BF13B PUSH1 0x40 MLOAD DUP2 PUSH4 0xFFFFFFFF AND PUSH1 0xE0 SHL DUP2 MSTORE PUSH1 0x4 ADD PUSH1 0x0 PUSH1 0x40 MLOAD DUP1 DUP4 SUB DUP2 DUP7 DUP1 EXTCODESIZE ISZERO DUP1 ISZERO PUSH2 0x276 JUMPI PUSH1 0x0 DUP1 REVERT JUMPDEST POP GAS STATICCALL ISZERO DUP1 ISZERO PUSH2 0x28A JUMPI RETURNDATASIZE PUSH1 0x0 DUP1 RETURNDATACOPY RETURNDATASIZE PUSH1 0x0 REVERT JUMPDEST POP POP POP POP PUSH1 0x40 MLOAD RETURNDATASIZE PUSH1 0x0 DUP3 RETURNDATACOPY PUSH1 0x1F RETURNDATASIZE SWAP1 DUP2 ADD PUSH1 0x1F NOT AND DUP3 ADD PUSH1 0x40 MSTORE PUSH2 0x2B2 SWAP2 SWAP1 DUP2 ADD SWAP1 PUSH2 0x3DC8 JUMP JUMPDEST DUP1 MLOAD SWAP1 SWAP2 POP DUP4 EQ PUSH2 0x2C2 JUMPI PUSH1 0x0 DUP1 REVERT JUMPDEST PUSH1 0x0 PUSH2 0x2CC PUSH2 0xC33 JUMP JUMPDEST PUSH2 0xFFFF DUP8 AND PUSH1 0x0 SWAP1 DUP2 MSTORE PUSH1 0x20 SWAP2 SWAP1 SWAP2 MSTORE PUSH1 0x40 DUP2 KECCAK256 SWAP2 POP DUP1 JUMPDEST DUP4 MLOAD DUP2 LT ISZERO PUSH2 0x3AD JUMPI CALLDATASIZE DUP8 DUP8 DUP4 DUP2 DUP2 LT PUSH2 0x2FA JUMPI INVALID JUMPDEST SWAP1 POP PUSH1 0x40 MUL ADD SWAP1 POP PUSH1 0x0 DUP6 DUP4 DUP2 MLOAD DUP2 LT PUSH2 0x310 JUMPI INVALID JUMPDEST PUSH1 0x20 MUL PUSH1 0x20 ADD ADD MLOAD SWAP1 POP DUP1 PUSH1 0x1 PUSH1 0x1 PUSH1 0xA0 SHL SUB AND DUP3 PUSH1 0x0 ADD PUSH1 0x20 DUP2 ADD SWAP1 PUSH2 0x337 SWAP2 SWAP1 PUSH2 0x3D6D JUMP JUMPDEST PUSH1 0x1 PUSH1 0x1 PUSH1 0xA0 SHL SUB AND EQ PUSH2 0x34A JUMPI PUSH1 0x0 DUP1 REVERT JUMPDEST PUSH2 0x367 PUSH2 0x35D PUSH1 0x40 DUP5 ADD PUSH1 0x20 DUP6 ADD PUSH2 0x41E6 JUMP JUMPDEST DUP6 SWAP1 PUSH1 0xFF AND PUSH2 0xC46 JUMP JUMPDEST SWAP4 POP PUSH2 0x379 PUSH1 0x40 DUP4 ADD PUSH1 0x20 DUP5 ADD PUSH2 0x41E6 JUMP JUMPDEST PUSH1 0x1 PUSH1 0x1 PUSH1 0xA0 SHL SUB SWAP2 SWAP1 SWAP2 AND PUSH1 0x0 SWAP1 DUP2 MSTORE PUSH1 0x20 DUP7 SWAP1 MSTORE PUSH1 0x40 SWAP1 KECCAK256 DUP1 SLOAD PUSH1 0xFF NOT AND PUSH1 0xFF SWAP1 SWAP3 AND SWAP2 SWAP1 SWAP2 OR SWAP1 SSTORE POP PUSH1 0x1 ADD PUSH2 0x2E4 JUMP JUMPDEST POP PUSH1 0x64 DUP2 GT ISZERO PUSH2 0x3BC JUMPI PUSH1 0x0 DUP1 REVERT JUMPDEST PUSH32 0x173893B333BEACB26403450E70F577038A6531741AAFF45C341BEE3B8D4B42C4 DUP8 DUP8 DUP8 PUSH1 0x40 MLOAD PUSH2 0x3EF SWAP4 SWAP3 SWAP2 SWAP1 PUSH2 0x44A4 JUMP JUMPDEST PUSH1 0x40 MLOAD DUP1 SWAP2 SUB SWAP1 LOG1 POP POP POP POP POP POP POP JUMP JUMPDEST PUSH1 0x0 SLOAD PUSH1 0x1 PUSH1 0x20 SHL SWAP1 DIV PUSH1 0x1 PUSH1 0x1 PUSH1 0xA0 SHL SUB AND CALLER EQ PUSH2 0x431 JUMPI PUSH1 0x40 MLOAD PUSH3 0x461BCD PUSH1 0xE5 SHL DUP2 MSTORE PUSH1 0x4 ADD PUSH2 0x225 SWAP1 PUSH2 0x43C8 JUMP JUMPDEST PUSH2 0x43A DUP3 PUSH2 0xC5F JUMP JUMPDEST PUSH2 0x444 DUP3 DUP3 PUSH2 0xC9C JUMP JUMPDEST POP POP JUMP JUMPDEST PUSH1 0x2 SLOAD PUSH1 0x1 PUSH1 0x1 PUSH1 0xA0 SHL SUB AND DUP2 JUMP JUMPDEST PUSH32 0x0 DUP2 JUMP JUMPDEST PUSH1 0xB SLOAD PUSH1 0x60 SWAP1 PUSH1 0x1 PUSH1 0x1 PUSH1 0xA0 SHL SUB AND CALLER EQ PUSH2 0x4A8 JUMPI PUSH1 0x40 MLOAD PUSH3 0x461BCD PUSH1 0xE5 SHL DUP2 MSTORE PUSH1 0x4 ADD PUSH2 0x225 SWAP1 PUSH2 0x4363 JUMP JUMPDEST PUSH1 0x2 PUSH1 0xA SLOAD EQ ISZERO PUSH2 0x4CB JUMPI PUSH1 0x40 MLOAD PUSH3 0x461BCD PUSH1 0xE5 SHL DUP2 MSTORE PUSH1 0x4 ADD PUSH2 0x225 SWAP1 PUSH2 0x444F JUMP JUMPDEST PUSH1 0x2 PUSH1 0xA SSTORE PUSH1 0x0 DUP3 PUSH1 0x1 PUSH1 0x1 PUSH1 0x40 SHL SUB DUP2 GT DUP1 ISZERO PUSH2 0x4E8 JUMPI PUSH1 0x0 DUP1 REVERT JUMPDEST POP PUSH1 0x40 MLOAD SWAP1 DUP1 DUP3 MSTORE DUP1 PUSH1 0x20 MUL PUSH1 0x20 ADD DUP3 ADD PUSH1 0x40 MSTORE DUP1 ISZERO PUSH2 0x512 JUMPI DUP2 PUSH1 0x20 ADD PUSH1 0x20 DUP3 MUL DUP1 CALLDATASIZE DUP4 CALLDATACOPY ADD SWAP1 POP JUMPDEST POP SWAP1 POP PUSH1 0x0 JUMPDEST DUP4 DUP2 LT ISZERO PUSH2 0x645 JUMPI DUP1 ISZERO PUSH2 0x590 JUMPI DUP5 DUP5 PUSH1 0x1 DUP4 SUB DUP2 DUP2 LT PUSH2 0x535 JUMPI INVALID JUMPDEST SWAP1 POP PUSH1 0x20 MUL ADD PUSH1 0x20 DUP2 ADD SWAP1 PUSH2 0x54A SWAP2 SWAP1 PUSH2 0x4076 JUMP JUMPDEST PUSH2 0xFFFF AND DUP6 DUP6 DUP4 DUP2 DUP2 LT PUSH2 0x55A JUMPI INVALID JUMPDEST SWAP1 POP PUSH1 0x20 MUL ADD PUSH1 0x20 DUP2 ADD SWAP1 PUSH2 0x56F SWAP2 SWAP1 PUSH2 0x4076 JUMP JUMPDEST PUSH2 0xFFFF AND GT PUSH2 0x590 JUMPI PUSH1 0x40 MLOAD PUSH3 0x461BCD PUSH1 0xE5 SHL DUP2 MSTORE PUSH1 0x4 ADD PUSH2 0x225 SWAP1 PUSH2 0x43FD JUMP JUMPDEST PUSH1 0x0 DUP6 DUP6 DUP4 DUP2 DUP2 LT PUSH2 0x59E JUMPI INVALID JUMPDEST SWAP1 POP PUSH1 0x20 MUL ADD PUSH1 0x20 DUP2 ADD SWAP1 PUSH2 0x5B3 SWAP2 SWAP1 PUSH2 0x4076 JUMP JUMPDEST SWAP1 POP PUSH2 0x5BE DUP2 PUSH2 0xC5F JUMP JUMPDEST PUSH2 0xFFFF DUP2 AND PUSH1 0x0 SWAP1 DUP2 MSTORE PUSH1 0xC PUSH1 0x20 MSTORE PUSH1 0x40 DUP2 KECCAK256 SLOAD PUSH2 0x5DB SWAP1 PUSH2 0xCDD JUMP JUMPDEST SWAP1 POP DUP1 PUSH2 0x5E9 JUMPI POP POP PUSH2 0x63D JUMP JUMPDEST PUSH1 0x0 PUSH2 0x5F7 PUSH2 0xFEE DUP5 PUSH2 0xCF7 JUMP JUMPDEST SWAP1 POP DUP2 DUP2 SGT PUSH2 0x608 JUMPI POP POP POP PUSH2 0x63D JUMP JUMPDEST DUP2 DUP2 SUB PUSH2 0x615 DUP5 DUP3 PUSH2 0xD50 JUMP JUMPDEST DUP7 DUP7 DUP2 MLOAD DUP2 LT PUSH2 0x621 JUMPI INVALID JUMPDEST PUSH1 0x20 MUL PUSH1 0x20 ADD ADD DUP2 DUP2 MSTORE POP POP PUSH2 0x638 DUP5 DUP4 DUP4 PUSH2 0xDB6 JUMP JUMPDEST POP POP POP POP JUMPDEST PUSH1 0x1 ADD PUSH2 0x518 JUMP JUMPDEST POP PUSH1 0x1 PUSH1 0xA SSTORE SWAP4 SWAP3 POP POP POP JUMP JUMPDEST PUSH1 0x1 SLOAD PUSH1 0x1 PUSH1 0x1 PUSH1 0xA0 SHL SUB AND DUP2 JUMP JUMPDEST PUSH1 0x0 SLOAD PUSH1 0x1 PUSH1 0x20 SHL SWAP1 DIV PUSH1 0x1 PUSH1 0x1 PUSH1 0xA0 SHL SUB AND DUP2 JUMP JUMPDEST PUSH1 0x0 SLOAD PUSH1 0x1 PUSH1 0x20 SHL SWAP1 DIV PUSH1 0x1 PUSH1 0x1 PUSH1 0xA0 SHL SUB AND CALLER EQ PUSH2 0x6A8 JUMPI PUSH1 0x40 MLOAD PUSH3 0x461BCD PUSH1 0xE5 SHL DUP2 MSTORE PUSH1 0x4 ADD PUSH2 0x225 SWAP1 PUSH2 0x43C8 JUMP JUMPDEST PUSH2 0x6B1 DUP3 PUSH2 0xC5F JUMP JUMPDEST PUSH2 0xFFFF DUP3 AND PUSH1 0x0 SWAP1 DUP2 MSTORE PUSH1 0xC PUSH1 0x20 MSTORE PUSH1 0x40 SWAP1 DUP2 SWAP1 KECCAK256 DUP3 SWAP1 SSTORE MLOAD PUSH32 0xFD37F6BC518C96B848C133A7D44A5A9B5ACEA171BE7DC45E363F153347ED7641 SWAP1 PUSH2 0x6F9 SWAP1 DUP5 SWAP1 DUP5 SWAP1 PUSH2 0x4507 JUMP JUMPDEST PUSH1 0x40 MLOAD DUP1 SWAP2 SUB SWAP1 LOG1 POP POP JUMP JUMPDEST PUSH1 0xB SLOAD PUSH1 0x1 PUSH1 0x1 PUSH1 0xA0 SHL SUB AND CALLER EQ PUSH2 0x72F JUMPI PUSH1 0x40 MLOAD PUSH3 0x461BCD PUSH1 0xE5 SHL DUP2 MSTORE PUSH1 0x4 ADD PUSH2 0x225 SWAP1 PUSH2 0x4363 JUMP JUMPDEST PUSH1 0x0 JUMPDEST DUP2 DUP2 LT ISZERO PUSH2 0x76B JUMPI PUSH2 0x763 DUP4 DUP4 DUP4 DUP2 DUP2 LT PUSH2 0x749 JUMPI INVALID JUMPDEST SWAP1 POP PUSH1 0x20 MUL ADD PUSH1 0x20 DUP2 ADD SWAP1 PUSH2 0x75E SWAP2 SWAP1 PUSH2 0x4076 JUMP JUMPDEST PUSH2 0xE10 JUMP JUMPDEST PUSH1 0x1 ADD PUSH2 0x732 JUMP JUMPDEST POP POP POP JUMP JUMPDEST PUSH1 0x0 SLOAD PUSH1 0x1 PUSH1 0x20 SHL SWAP1 DIV PUSH1 0x1 PUSH1 0x1 PUSH1 0xA0 SHL SUB AND CALLER EQ PUSH2 0x7A1 JUMPI PUSH1 0x40 MLOAD PUSH3 0x461BCD PUSH1 0xE5 SHL DUP2 MSTORE PUSH1 0x4 ADD PUSH2 0x225 SWAP1 PUSH2 0x43C8 JUMP JUMPDEST PUSH2 0x7AA DUP3 PUSH2 0xC5F JUMP JUMPDEST PUSH1 0x0 PUSH2 0x7B9 DUP4 PUSH2 0xFFFF AND PUSH2 0xFB7 JUMP JUMPDEST SWAP1 POP PUSH1 0x1 PUSH1 0x1 PUSH1 0xA0 SHL SUB DUP2 AND PUSH2 0x7CE JUMPI PUSH1 0x0 DUP1 REVERT JUMPDEST PUSH4 0x5F5E100 DUP3 PUSH4 0xFFFFFFFF AND SLT PUSH2 0x7F7 JUMPI PUSH1 0x40 MLOAD PUSH3 0x461BCD PUSH1 0xE5 SHL DUP2 MSTORE PUSH1 0x4 ADD PUSH2 0x225 SWAP1 PUSH2 0x4429 JUMP JUMPDEST PUSH2 0x802 DUP2 DUP4 TIMESTAMP PUSH2 0xFDD JUMP JUMPDEST PUSH32 0x713F9554D16202D36A895476EC29CE9250F47D35422E2D9409E8F644D6AAB689 DUP4 DUP4 PUSH1 0x40 MLOAD PUSH2 0x833 SWAP3 SWAP2 SWAP1 PUSH2 0x4537 JUMP JUMPDEST PUSH1 0x40 MLOAD DUP1 SWAP2 SUB SWAP1 LOG1 POP POP POP JUMP JUMPDEST PUSH1 0x0 SLOAD PUSH1 0x1 PUSH1 0x20 SHL SWAP1 DIV PUSH1 0x1 PUSH1 0x1 PUSH1 0xA0 SHL SUB AND CALLER EQ PUSH2 0x871 JUMPI PUSH1 0x40 MLOAD PUSH3 0x461BCD PUSH1 0xE5 SHL DUP2 MSTORE PUSH1 0x4 ADD PUSH2 0x225 SWAP1 PUSH2 0x43C8 JUMP JUMPDEST PUSH1 0x0 PUSH2 0x87B PUSH2 0x1033 JUMP JUMPDEST PUSH2 0xFFFF DUP5 AND PUSH1 0x0 SWAP1 DUP2 MSTORE PUSH1 0x20 DUP3 SWAP1 MSTORE PUSH1 0x40 SWAP1 DUP2 SWAP1 KECCAK256 DUP1 SLOAD PUSH5 0xFFFFFFFFFF PUSH1 0x50 SHL NOT AND PUSH1 0x1 PUSH1 0x50 SHL PUSH5 0xFFFFFFFFFF DUP8 AND MUL OR SWAP1 SSTORE MLOAD SWAP1 SWAP2 POP PUSH32 0x16B1CF4CBFF8DF027F5BEC1791DC85FA6B5F625FBA6BC942C10482CCFE6814B2 SWAP1 PUSH2 0x833 SWAP1 DUP6 SWAP1 DUP6 SWAP1 PUSH2 0x4551 JUMP JUMPDEST PUSH32 0x0 DUP2 JUMP JUMPDEST PUSH1 0xB SLOAD PUSH1 0x0 SWAP1 PUSH1 0x1 PUSH1 0x1 PUSH1 0xA0 SHL SUB AND CALLER EQ PUSH2 0x932 JUMPI PUSH1 0x40 MLOAD PUSH3 0x461BCD PUSH1 0xE5 SHL DUP2 MSTORE PUSH1 0x4 ADD PUSH2 0x225 SWAP1 PUSH2 0x4363 JUMP JUMPDEST PUSH1 0x2 PUSH1 0xA SLOAD EQ ISZERO PUSH2 0x955 JUMPI PUSH1 0x40 MLOAD PUSH3 0x461BCD PUSH1 0xE5 SHL DUP2 MSTORE PUSH1 0x4 ADD PUSH2 0x225 SWAP1 PUSH2 0x444F JUMP JUMPDEST PUSH1 0x2 PUSH1 0xA SSTORE PUSH1 0x40 MLOAD PUSH4 0x70A08231 PUSH1 0xE0 SHL DUP2 MSTORE PUSH1 0x0 SWAP1 PUSH1 0x1 PUSH1 0x1 PUSH1 0xA0 SHL SUB PUSH32 0x0 AND SWAP1 PUSH4 0x70A08231 SWAP1 PUSH2 0x9A9 SWAP1 ADDRESS SWAP1 PUSH1 0x4 ADD PUSH2 0x423A JUMP JUMPDEST PUSH1 0x20 PUSH1 0x40 MLOAD DUP1 DUP4 SUB DUP2 DUP7 DUP1 EXTCODESIZE ISZERO DUP1 ISZERO PUSH2 0x9C1 JUMPI PUSH1 0x0 DUP1 REVERT JUMPDEST POP GAS STATICCALL ISZERO DUP1 ISZERO PUSH2 0x9D5 JUMPI RETURNDATASIZE PUSH1 0x0 DUP1 RETURNDATACOPY RETURNDATASIZE PUSH1 0x0 REVERT JUMPDEST POP POP POP POP PUSH1 0x40 MLOAD RETURNDATASIZE PUSH1 0x1F NOT PUSH1 0x1F DUP3 ADD AND DUP3 ADD DUP1 PUSH1 0x40 MSTORE POP DUP2 ADD SWAP1 PUSH2 0x9F9 SWAP2 SWAP1 PUSH2 0x41AB JUMP JUMPDEST PUSH1 0x40 MLOAD PUSH3 0xE1ED97 PUSH1 0xE5 SHL DUP2 MSTORE SWAP1 SWAP2 POP PUSH1 0x1 PUSH1 0x1 PUSH1 0xA0 SHL SUB PUSH32 0x0 AND SWAP1 PUSH4 0x1C3DB2E0 SWAP1 PUSH2 0xA4B SWAP1 ADDRESS SWAP1 DUP9 SWAP1 DUP9 SWAP1 PUSH1 0x4 ADD PUSH2 0x4272 JUMP JUMPDEST PUSH1 0x0 PUSH1 0x40 MLOAD DUP1 DUP4 SUB DUP2 PUSH1 0x0 DUP8 DUP1 EXTCODESIZE ISZERO DUP1 ISZERO PUSH2 0xA65 JUMPI PUSH1 0x0 DUP1 REVERT JUMPDEST POP GAS CALL ISZERO DUP1 ISZERO PUSH2 0xA79 JUMPI RETURNDATASIZE PUSH1 0x0 DUP1 RETURNDATACOPY RETURNDATASIZE PUSH1 0x0 REVERT JUMPDEST POP POP PUSH1 0x40 MLOAD PUSH4 0x70A08231 PUSH1 0xE0 SHL DUP2 MSTORE PUSH1 0x0 SWAP3 POP PUSH1 0x1 PUSH1 0x1 PUSH1 0xA0 SHL SUB PUSH32 0x0 AND SWAP2 POP PUSH4 0x70A08231 SWAP1 PUSH2 0xACC SWAP1 ADDRESS SWAP1 PUSH1 0x4 ADD PUSH2 0x423A JUMP JUMPDEST PUSH1 0x20 PUSH1 0x40 MLOAD DUP1 DUP4 SUB DUP2 DUP7 DUP1 EXTCODESIZE ISZERO DUP1 ISZERO PUSH2 0xAE4 JUMPI PUSH1 0x0 DUP1 REVERT JUMPDEST POP GAS STATICCALL ISZERO DUP1 ISZERO PUSH2 0xAF8 JUMPI RETURNDATASIZE PUSH1 0x0 DUP1 RETURNDATACOPY RETURNDATASIZE PUSH1 0x0 REVERT JUMPDEST POP POP POP POP PUSH1 0x40 MLOAD RETURNDATASIZE PUSH1 0x1F NOT PUSH1 0x1F DUP3 ADD AND DUP3 ADD DUP1 PUSH1 0x40 MSTORE POP DUP2 ADD SWAP1 PUSH2 0xB1C SWAP2 SWAP1 PUSH2 0x41AB JUMP JUMPDEST SWAP1 POP PUSH1 0x0 PUSH2 0xB2A DUP3 DUP5 PUSH2 0x1040 JUMP JUMPDEST SWAP1 POP DUP1 ISZERO PUSH2 0xB66 JUMPI PUSH2 0xB66 PUSH1 0x1 PUSH1 0x1 PUSH1 0xA0 SHL SUB PUSH32 0x0 AND CALLER DUP4 PUSH2 0x1055 JUMP JUMPDEST PUSH1 0x1 PUSH1 0xA SSTORE SWAP6 SWAP5 POP POP POP POP POP JUMP JUMPDEST PUSH1 0x0 SLOAD PUSH1 0x1 PUSH1 0x20 SHL SWAP1 DIV PUSH1 0x1 PUSH1 0x1 PUSH1 0xA0 SHL SUB AND CALLER EQ PUSH2 0xBA5 JUMPI PUSH1 0x40 MLOAD PUSH3 0x461BCD PUSH1 0xE5 SHL DUP2 MSTORE PUSH1 0x4 ADD PUSH2 0x225 SWAP1 PUSH2 0x43C8 JUMP JUMPDEST PUSH1 0xB SLOAD PUSH1 0x40 MLOAD PUSH1 0x1 PUSH1 0x1 PUSH1 0xA0 SHL SUB DUP1 DUP5 AND SWAP3 AND SWAP1 PUSH32 0xF92CFDDD8D7AB2F6E4FD488959C76C8033AAAA6DAD691A0CBD1FC68F194B3D0C SWAP1 PUSH1 0x0 SWAP1 LOG3 PUSH1 0xB DUP1 SLOAD PUSH1 0x1 PUSH1 0x1 PUSH1 0xA0 SHL SUB NOT AND PUSH1 0x1 PUSH1 0x1 PUSH1 0xA0 SHL SUB SWAP3 SWAP1 SWAP3 AND SWAP2 SWAP1 SWAP2 OR SWAP1 SSTORE JUMP JUMPDEST PUSH1 0x0 DUP1 PUSH2 0xC0C PUSH2 0x10A7 JUMP JUMPDEST PUSH2 0xFFFF DUP5 AND PUSH1 0x0 SWAP1 DUP2 MSTORE PUSH1 0x20 SWAP2 SWAP1 SWAP2 MSTORE PUSH1 0x40 SWAP1 KECCAK256 SLOAD PUSH1 0x1 PUSH1 0x1 PUSH1 0xA0 SHL SUB AND SWAP2 POP POP JUMPDEST SWAP2 SWAP1 POP JUMP JUMPDEST PUSH1 0x0 DUP1 PUSH2 0xC40 PUSH1 0x24 PUSH2 0x10B0 JUMP JUMPDEST SWAP3 SWAP2 POP POP JUMP JUMPDEST PUSH1 0x0 DUP3 DUP3 ADD DUP4 DUP2 LT ISZERO PUSH2 0xC58 JUMPI PUSH1 0x0 DUP1 REVERT JUMPDEST SWAP4 SWAP3 POP POP POP JUMP JUMPDEST DUP1 PUSH2 0xFFFF AND PUSH1 0x0 LT DUP1 ISZERO PUSH2 0xC7D JUMPI POP PUSH1 0x0 SLOAD PUSH2 0xFFFF SWAP1 DUP2 AND SWAP1 DUP3 AND GT ISZERO JUMPDEST PUSH2 0xC99 JUMPI PUSH1 0x40 MLOAD PUSH3 0x461BCD PUSH1 0xE5 SHL DUP2 MSTORE PUSH1 0x4 ADD PUSH2 0x225 SWAP1 PUSH2 0x4477 JUMP JUMPDEST POP JUMP JUMPDEST PUSH1 0x0 DUP2 SLT ISZERO PUSH2 0xCAA JUMPI PUSH1 0x0 DUP1 REVERT JUMPDEST PUSH1 0x0 PUSH2 0xCB8 PUSH2 0xFEE DUP5 PUSH2 0xCF7 JUMP JUMPDEST SWAP1 POP PUSH2 0xCC7 PUSH2 0xFEE DUP5 DUP5 PUSH2 0x10C9 JUMP JUMPDEST PUSH2 0x76B PUSH2 0xFEE DUP5 PUSH2 0xCD8 DUP6 DUP6 PUSH2 0x113D JUMP JUMPDEST PUSH2 0x1153 JUMP JUMPDEST PUSH1 0x0 PUSH1 0x1 PUSH1 0x1 PUSH1 0xFF SHL SUB DUP3 GT ISZERO PUSH2 0xCF3 JUMPI PUSH1 0x0 DUP1 REVERT JUMPDEST POP SWAP1 JUMP JUMPDEST PUSH1 0x0 DUP1 PUSH2 0xD02 PUSH2 0x11DD JUMP JUMPDEST PUSH1 0x1 PUSH1 0x1 PUSH1 0xA0 SHL SUB DUP6 AND PUSH1 0x0 SWAP1 DUP2 MSTORE PUSH1 0x20 DUP3 DUP2 MSTORE PUSH1 0x40 DUP1 DUP4 KECCAK256 PUSH2 0xFFFF DUP9 AND DUP5 MSTORE SWAP1 SWAP2 MSTORE DUP2 KECCAK256 DUP1 SLOAD PUSH1 0x1 PUSH1 0xA8 SHL SWAP1 DIV PUSH1 0xA SWAP1 DUP2 SIGNEXTEND SWAP1 SIGNEXTEND SWAP5 POP SWAP2 SWAP3 POP DUP4 SLT ISZERO PUSH2 0xD48 JUMPI PUSH1 0x0 DUP1 REVERT JUMPDEST POP POP SWAP3 SWAP2 POP POP JUMP JUMPDEST PUSH1 0x0 DUP1 PUSH2 0xD5C DUP5 PUSH2 0x11EA JUMP JUMPDEST PUSH1 0xB SLOAD SWAP1 SWAP2 POP PUSH2 0xD7A SWAP1 PUSH2 0xFEE SWAP1 PUSH1 0x1 PUSH1 0x1 PUSH1 0xA0 SHL SUB AND DUP7 DUP7 PUSH2 0x11FC JUMP JUMPDEST PUSH1 0xB SLOAD PUSH1 0x0 SWAP1 PUSH2 0xD9F SWAP1 PUSH1 0x1 PUSH1 0x1 PUSH1 0xA0 SHL SUB AND DUP7 PUSH2 0xD97 DUP8 PUSH2 0x12A2 JUMP JUMPDEST DUP6 PUSH1 0x1 PUSH2 0x12B0 JUMP JUMPDEST SWAP1 POP PUSH1 0x0 DUP2 SGT PUSH2 0xDAE JUMPI PUSH1 0x0 DUP1 REVERT JUMPDEST SWAP5 SWAP4 POP POP POP POP JUMP JUMPDEST PUSH2 0xDC0 DUP3 DUP3 PUSH2 0x1359 JUMP JUMPDEST SWAP2 POP PUSH2 0xDCF PUSH2 0xFEE DUP5 DUP5 PUSH2 0x10C9 JUMP JUMPDEST DUP3 PUSH2 0xFFFF AND PUSH32 0x7C5E8932DD97CEA84F9AB339DAD12A29A4CD81E67E7D892663AA03A3F0832B73 DUP3 PUSH1 0x40 MLOAD PUSH2 0xE03 SWAP2 SWAP1 PUSH2 0x435A JUMP JUMPDEST PUSH1 0x40 MLOAD DUP1 SWAP2 SUB SWAP1 LOG2 POP POP POP JUMP JUMPDEST PUSH1 0x0 PUSH2 0xE1A PUSH2 0x1033 JUMP JUMPDEST PUSH2 0xFFFF DUP4 AND PUSH1 0x0 SWAP1 DUP2 MSTORE PUSH1 0x20 SWAP2 DUP3 MSTORE PUSH1 0x40 SWAP1 DUP2 SWAP1 KECCAK256 DUP2 MLOAD PUSH1 0x80 DUP2 ADD DUP4 MSTORE SWAP1 SLOAD PUSH1 0x1 PUSH1 0x1 PUSH1 0x50 SHL SUB DUP2 AND DUP3 MSTORE PUSH5 0xFFFFFFFFFF PUSH1 0x1 PUSH1 0x50 SHL DUP3 DIV DUP2 AND SWAP5 DUP4 ADD DUP6 SWAP1 MSTORE PUSH1 0x1 PUSH1 0x78 SHL DUP3 DIV AND SWAP3 DUP3 ADD DUP4 SWAP1 MSTORE PUSH4 0xFFFFFFFF PUSH1 0x1 PUSH1 0xA0 SHL SWAP1 SWAP2 DIV DUP2 AND PUSH1 0x60 DUP4 ADD MSTORE SWAP1 SWAP4 POP TIMESTAMP SWAP3 PUSH2 0xE8C SWAP3 SWAP2 PUSH2 0xC46 AND JUMP JUMPDEST LT PUSH2 0xEA9 JUMPI PUSH1 0x40 MLOAD PUSH3 0x461BCD PUSH1 0xE5 SHL DUP2 MSTORE PUSH1 0x4 ADD PUSH2 0x225 SWAP1 PUSH2 0x439A JUMP JUMPDEST PUSH2 0xEB2 DUP3 PUSH2 0x11EA JUMP JUMPDEST POP PUSH1 0x0 PUSH2 0xEBE DUP4 PUSH2 0x1375 JUMP JUMPDEST SWAP1 POP PUSH2 0xEC9 DUP4 PUSH2 0x143D JUMP JUMPDEST DUP2 MLOAD PUSH1 0x0 SWAP1 PUSH1 0x1 PUSH1 0x1 PUSH1 0x50 SHL SUB AND ISZERO PUSH2 0xF63 JUMPI PUSH1 0x0 PUSH2 0xF2E PUSH4 0x3B9ACA00 PUSH2 0xF22 PUSH8 0xDE0B6B3A7640000 PUSH2 0xF28 DUP9 PUSH1 0x0 ADD MLOAD PUSH1 0x1 PUSH1 0x1 PUSH1 0x50 SHL SUB AND PUSH2 0xF22 PUSH8 0xDE0B6B3A7640000 DUP11 PUSH1 0xA0 ADD MLOAD PUSH2 0x1631 SWAP1 SWAP2 SWAP1 PUSH4 0xFFFFFFFF AND JUMP JUMPDEST SWAP1 PUSH2 0x1658 JUMP JUMPDEST SWAP1 PUSH2 0x1040 JUMP JUMPDEST SWAP1 POP PUSH2 0xF5F PUSH2 0xF51 DUP6 PUSH1 0x40 ADD MLOAD PUSH5 0xFFFFFFFFFF AND TIMESTAMP PUSH2 0x1040 SWAP1 SWAP2 SWAP1 PUSH4 0xFFFFFFFF AND JUMP JUMPDEST PUSH2 0xF22 DUP4 PUSH4 0x1DA9C00 PUSH2 0x1631 JUMP JUMPDEST SWAP2 POP POP JUMPDEST PUSH2 0xF72 DUP5 DUP4 PUSH1 0xA0 ADD MLOAD DUP4 PUSH2 0x1677 JUMP JUMPDEST PUSH32 0xEDDEA56DFBD588F030ED3FCBDE65761F19492023CE381012239E7F7CC8D35A7C DUP5 DUP4 PUSH1 0xA0 ADD MLOAD DUP4 PUSH1 0x40 MLOAD PUSH2 0xFA9 SWAP4 SWAP3 SWAP2 SWAP1 PUSH2 0x451B JUMP JUMPDEST PUSH1 0x40 MLOAD DUP1 SWAP2 SUB SWAP1 LOG1 POP POP POP POP JUMP JUMPDEST PUSH1 0x0 DUP1 PUSH2 0xFC2 PUSH2 0x1747 JUMP JUMPDEST PUSH1 0x0 SWAP4 DUP5 MSTORE PUSH1 0x20 MSTORE POP POP PUSH1 0x40 SWAP1 KECCAK256 SLOAD PUSH1 0x1 PUSH1 0x1 PUSH1 0xA0 SHL SUB AND SWAP1 JUMP JUMPDEST PUSH2 0xFE9 DUP4 PUSH1 0x0 DUP4 PUSH2 0x1754 JUMP JUMPDEST POP PUSH1 0x0 PUSH2 0xFF4 PUSH2 0x1835 JUMP JUMPDEST PUSH1 0x1 PUSH1 0x1 PUSH1 0xA0 SHL SUB SWAP1 SWAP5 AND PUSH1 0x0 SWAP1 DUP2 MSTORE PUSH1 0x20 SWAP5 SWAP1 SWAP5 MSTORE POP POP PUSH1 0x40 SWAP1 SWAP2 KECCAK256 DUP1 SLOAD PUSH4 0xFFFFFFFF SWAP1 SWAP3 AND PUSH3 0x10000 MUL PUSH6 0xFFFFFFFF0000 NOT SWAP1 SWAP3 AND SWAP2 SWAP1 SWAP2 OR SWAP1 SSTORE JUMP JUMPDEST PUSH1 0x0 DUP1 PUSH2 0xC40 PUSH1 0x25 PUSH2 0x10B0 JUMP JUMPDEST PUSH1 0x0 DUP3 DUP3 GT ISZERO PUSH2 0x104F JUMPI PUSH1 0x0 DUP1 REVERT JUMPDEST POP SWAP1 SUB SWAP1 JUMP JUMPDEST PUSH1 0x40 DUP1 MLOAD PUSH1 0x1 PUSH1 0x1 PUSH1 0xA0 SHL SUB DUP5 AND PUSH1 0x24 DUP3 ADD MSTORE PUSH1 0x44 DUP1 DUP3 ADD DUP5 SWAP1 MSTORE DUP3 MLOAD DUP1 DUP4 SUB SWAP1 SWAP2 ADD DUP2 MSTORE PUSH1 0x64 SWAP1 SWAP2 ADD SWAP1 SWAP2 MSTORE PUSH1 0x20 DUP2 ADD DUP1 MLOAD PUSH1 0x1 PUSH1 0x1 PUSH1 0xE0 SHL SUB AND PUSH4 0xA9059CBB PUSH1 0xE0 SHL OR SWAP1 MSTORE PUSH2 0x76B SWAP1 DUP5 SWAP1 PUSH2 0x1842 JUMP JUMPDEST PUSH1 0x0 DUP1 PUSH2 0xC40 PUSH1 0x1F JUMPDEST PUSH1 0x0 PUSH3 0xF4240 DUP3 PUSH1 0x26 DUP2 GT ISZERO PUSH2 0x10C2 JUMPI INVALID JUMPDEST ADD SWAP3 SWAP2 POP POP JUMP JUMPDEST PUSH1 0x0 DUP2 SLT ISZERO PUSH2 0x10D7 JUMPI PUSH1 0x0 DUP1 REVERT JUMPDEST PUSH1 0x0 PUSH2 0x10E1 PUSH2 0x11DD JUMP JUMPDEST PUSH1 0x1 PUSH1 0x1 PUSH1 0xA0 SHL SUB DUP6 AND PUSH1 0x0 SWAP1 DUP2 MSTORE PUSH1 0x20 DUP3 DUP2 MSTORE PUSH1 0x40 DUP1 DUP4 KECCAK256 PUSH2 0xFFFF DUP9 AND DUP5 MSTORE SWAP1 SWAP2 MSTORE SWAP1 KECCAK256 SWAP1 SWAP2 POP PUSH2 0x1112 DUP4 PUSH2 0x18F3 JUMP JUMPDEST DUP2 SLOAD PUSH1 0xA SWAP2 SWAP1 SWAP2 SIGNEXTEND PUSH1 0x1 PUSH1 0x1 PUSH1 0x58 SHL SUB AND PUSH1 0x1 PUSH1 0xA8 SHL MUL PUSH1 0x1 PUSH1 0x1 PUSH1 0xA8 SHL SUB SWAP1 SWAP2 AND OR SWAP1 SSTORE POP POP POP POP JUMP JUMPDEST DUP1 DUP3 SUB DUP3 DUP2 SGT ISZERO PUSH1 0x0 DUP4 SLT ISZERO EQ PUSH2 0xC40 JUMPI PUSH1 0x0 DUP1 REVERT JUMPDEST PUSH1 0x0 PUSH2 0x115D PUSH2 0x1925 JUMP JUMPDEST PUSH2 0xFFFF DUP5 AND PUSH1 0x0 SWAP1 DUP2 MSTORE PUSH1 0x20 SWAP2 SWAP1 SWAP2 MSTORE PUSH1 0x40 SWAP1 DUP2 SWAP1 KECCAK256 SLOAD SWAP1 MLOAD PUSH4 0xAD1C095D PUSH1 0xE0 SHL DUP2 MSTORE PUSH1 0x1 PUSH1 0x1 PUSH1 0xA0 SHL SUB SWAP1 SWAP2 AND SWAP2 POP DUP2 SWAP1 PUSH4 0xAD1C095D SWAP1 PUSH2 0x11A5 SWAP1 DUP8 SWAP1 DUP7 SWAP1 PUSH1 0x4 ADD PUSH2 0x42CE JUMP JUMPDEST PUSH1 0x0 PUSH1 0x40 MLOAD DUP1 DUP4 SUB DUP2 PUSH1 0x0 DUP8 DUP1 EXTCODESIZE ISZERO DUP1 ISZERO PUSH2 0x11BF JUMPI PUSH1 0x0 DUP1 REVERT JUMPDEST POP GAS CALL ISZERO DUP1 ISZERO PUSH2 0x11D3 JUMPI RETURNDATASIZE PUSH1 0x0 DUP1 RETURNDATACOPY RETURNDATASIZE PUSH1 0x0 REVERT JUMPDEST POP POP POP POP POP POP POP POP JUMP JUMPDEST PUSH1 0x0 DUP1 PUSH2 0xC40 PUSH1 0x6 PUSH2 0x10B0 JUMP JUMPDEST PUSH2 0x11F2 PUSH2 0x3A3C JUMP JUMPDEST PUSH2 0xC40 DUP3 TIMESTAMP PUSH2 0x1932 JUMP JUMPDEST PUSH1 0x0 PUSH2 0x1206 PUSH2 0x1925 JUMP JUMPDEST PUSH2 0xFFFF DUP5 AND PUSH1 0x0 SWAP1 DUP2 MSTORE PUSH1 0x20 SWAP2 SWAP1 SWAP2 MSTORE PUSH1 0x40 DUP2 KECCAK256 SLOAD PUSH1 0x1 PUSH1 0x1 PUSH1 0xA0 SHL SUB AND SWAP2 POP DUP3 SLT ISZERO PUSH2 0x1231 JUMPI SWAP3 SWAP4 SWAP3 JUMPDEST DUP1 PUSH1 0x1 PUSH1 0x1 PUSH1 0xA0 SHL SUB AND PUSH4 0x23DE6651 DUP7 DUP7 PUSH2 0x124B DUP7 PUSH2 0x19F8 JUMP JUMPDEST PUSH1 0x40 MLOAD DUP5 PUSH4 0xFFFFFFFF AND PUSH1 0xE0 SHL DUP2 MSTORE PUSH1 0x4 ADD PUSH2 0x1269 SWAP4 SWAP3 SWAP2 SWAP1 PUSH2 0x424E JUMP JUMPDEST PUSH1 0x0 PUSH1 0x40 MLOAD DUP1 DUP4 SUB DUP2 PUSH1 0x0 DUP8 DUP1 EXTCODESIZE ISZERO DUP1 ISZERO PUSH2 0x1283 JUMPI PUSH1 0x0 DUP1 REVERT JUMPDEST POP GAS CALL ISZERO DUP1 ISZERO PUSH2 0x1297 JUMPI RETURNDATASIZE PUSH1 0x0 DUP1 RETURNDATACOPY RETURNDATASIZE PUSH1 0x0 REVERT JUMPDEST POP POP POP POP POP POP POP POP POP JUMP JUMPDEST PUSH1 0x0 PUSH2 0xC40 PUSH1 0x0 NOT DUP4 PUSH2 0x1A19 JUMP JUMPDEST PUSH1 0x0 DUP4 PUSH2 0x12BF JUMPI POP PUSH1 0x0 PUSH2 0x1350 JUMP JUMPDEST PUSH1 0x0 DUP5 SLT PUSH2 0x12CC JUMPI PUSH1 0x0 DUP1 REVERT JUMPDEST PUSH1 0x0 PUSH2 0x12DB DUP7 PUSH2 0xFFFF AND PUSH2 0x1A67 JUMP JUMPDEST SWAP1 POP PUSH2 0x12F0 DUP2 PUSH2 0x12EB DUP7 DUP9 PUSH2 0x1A7A JUMP JUMPDEST PUSH2 0x1AAC JUMP JUMPDEST SWAP2 POP PUSH1 0x0 PUSH2 0x12FD DUP4 PUSH2 0x12A2 JUMP JUMPDEST SWAP1 POP PUSH2 0x130A DUP8 DUP4 DUP4 PUSH2 0x1AE4 JUMP JUMPDEST PUSH1 0x3 DUP3 PUSH1 0x60 ADD MLOAD PUSH1 0x5 DUP2 GT ISZERO PUSH2 0x131C JUMPI INVALID JUMPDEST EQ ISZERO PUSH2 0x1332 JUMPI PUSH2 0x132D DUP9 DUP3 DUP7 PUSH2 0x1BCE JUMP JUMPDEST PUSH2 0x133F JUMP JUMPDEST DUP2 MLOAD PUSH2 0x133F SWAP1 DUP10 DUP4 PUSH2 0x1C9C JUMP JUMPDEST PUSH2 0x134C DUP9 DUP9 DUP6 DUP6 DUP10 PUSH2 0x1D13 JUMP JUMPDEST POP POP POP JUMPDEST SWAP6 SWAP5 POP POP POP POP POP JUMP JUMPDEST PUSH1 0x0 PUSH2 0x1365 DUP4 DUP4 PUSH2 0x113D JUMP JUMPDEST SWAP1 POP PUSH1 0x0 DUP2 SLT ISZERO PUSH2 0xC40 JUMPI PUSH1 0x0 DUP1 REVERT JUMPDEST PUSH2 0x137D PUSH2 0x3A5D JUMP JUMPDEST PUSH1 0x0 PUSH2 0x1387 PUSH2 0x1D5A JUMP JUMPDEST PUSH2 0xFFFF SWAP4 DUP5 AND PUSH1 0x0 SWAP1 DUP2 MSTORE PUSH1 0x20 SWAP2 DUP3 MSTORE PUSH1 0x40 SWAP1 DUP2 SWAP1 KECCAK256 DUP1 SLOAD PUSH5 0xFFFFFFFFFF DUP2 AND DUP7 MSTORE PUSH1 0x1 PUSH1 0x28 SHL DUP2 DIV PUSH1 0x1 PUSH1 0x1 PUSH1 0x58 SHL SUB SWAP1 DUP2 AND SWAP5 DUP8 ADD SWAP5 SWAP1 SWAP5 MSTORE PUSH1 0x1 DUP3 ADD SLOAD DUP5 AND SWAP3 DUP7 ADD SWAP3 SWAP1 SWAP3 MSTORE PUSH1 0x1 PUSH1 0xD8 SHL DUP3 DIV PUSH4 0xFFFFFFFF AND PUSH1 0x60 DUP7 ADD MSTORE PUSH1 0x1 PUSH1 0x80 SHL SWAP1 SWAP2 DIV SWAP1 SWAP2 AND PUSH1 0x80 DUP5 ADD MSTORE PUSH1 0x2 ADD SLOAD PUSH1 0x1 PUSH1 0x1 PUSH1 0x50 SHL SUB DUP1 DUP3 AND PUSH1 0xA0 DUP6 ADD MSTORE PUSH1 0x1 PUSH1 0x50 SHL DUP3 DIV DUP2 AND PUSH1 0xC0 DUP6 ADD MSTORE PUSH1 0x1 PUSH1 0xA0 SHL DUP3 DIV AND PUSH1 0xE0 DUP5 ADD MSTORE PUSH1 0x1 PUSH1 0xF0 SHL SWAP1 DIV PUSH1 0xFF AND PUSH2 0x12C MUL SWAP1 SWAP3 AND PUSH2 0x100 DUP3 ADD MSTORE SWAP2 SWAP1 POP JUMP JUMPDEST PUSH1 0x0 PUSH2 0x1448 DUP3 PUSH2 0xC01 JUMP JUMPDEST SWAP1 POP PUSH1 0x0 DUP2 PUSH1 0x1 PUSH1 0x1 PUSH1 0xA0 SHL SUB AND PUSH4 0xE79BF13B PUSH1 0x40 MLOAD DUP2 PUSH4 0xFFFFFFFF AND PUSH1 0xE0 SHL DUP2 MSTORE PUSH1 0x4 ADD PUSH1 0x0 PUSH1 0x40 MLOAD DUP1 DUP4 SUB DUP2 DUP7 DUP1 EXTCODESIZE ISZERO DUP1 ISZERO PUSH2 0x1485 JUMPI PUSH1 0x0 DUP1 REVERT JUMPDEST POP GAS STATICCALL ISZERO DUP1 ISZERO PUSH2 0x1499 JUMPI RETURNDATASIZE PUSH1 0x0 DUP1 RETURNDATACOPY RETURNDATASIZE PUSH1 0x0 REVERT JUMPDEST POP POP POP POP PUSH1 0x40 MLOAD RETURNDATASIZE PUSH1 0x0 DUP3 RETURNDATACOPY PUSH1 0x1F RETURNDATASIZE SWAP1 DUP2 ADD PUSH1 0x1F NOT AND DUP3 ADD PUSH1 0x40 MSTORE PUSH2 0x14C1 SWAP2 SWAP1 DUP2 ADD SWAP1 PUSH2 0x3DC8 JUMP JUMPDEST SWAP1 POP PUSH1 0x0 PUSH2 0x14CF DUP5 DUP4 PUSH2 0x1D67 JUMP JUMPDEST SWAP1 POP PUSH1 0x0 PUSH2 0x14DE DUP5 DUP5 DUP5 PUSH2 0x1E68 JUMP JUMPDEST SWAP1 POP PUSH1 0x0 DUP5 PUSH1 0x1 PUSH1 0x1 PUSH1 0xA0 SHL SUB AND PUSH4 0xEF81F216 PUSH1 0x40 MLOAD DUP2 PUSH4 0xFFFFFFFF AND PUSH1 0xE0 SHL DUP2 MSTORE PUSH1 0x4 ADD PUSH1 0x40 DUP1 MLOAD DUP1 DUP4 SUB DUP2 PUSH1 0x0 DUP8 DUP1 EXTCODESIZE ISZERO DUP1 ISZERO PUSH2 0x151C JUMPI PUSH1 0x0 DUP1 REVERT JUMPDEST POP GAS CALL ISZERO DUP1 ISZERO PUSH2 0x1530 JUMPI RETURNDATASIZE PUSH1 0x0 DUP1 RETURNDATACOPY RETURNDATASIZE PUSH1 0x0 REVERT JUMPDEST POP POP POP POP PUSH1 0x40 MLOAD RETURNDATASIZE PUSH1 0x1F NOT PUSH1 0x1F DUP3 ADD AND DUP3 ADD DUP1 PUSH1 0x40 MSTORE POP DUP2 ADD SWAP1 PUSH2 0x1554 SWAP2 SWAP1 PUSH2 0x41C3 JUMP JUMPDEST SWAP2 POP POP PUSH1 0x0 PUSH2 0x1566 DUP8 PUSH2 0xFFFF AND PUSH2 0x1A67 JUMP JUMPDEST SWAP1 POP PUSH2 0x1576 DUP2 DUP5 PUSH1 0x0 ADD MLOAD PUSH2 0x22A4 JUMP JUMPDEST POP PUSH2 0x1585 DUP2 DUP5 PUSH1 0x20 ADD MLOAD PUSH2 0x24AD JUMP JUMPDEST PUSH1 0x0 DUP7 PUSH1 0x1 PUSH1 0x1 PUSH1 0xA0 SHL SUB AND PUSH4 0xEF81F216 PUSH1 0x40 MLOAD DUP2 PUSH4 0xFFFFFFFF AND PUSH1 0xE0 SHL DUP2 MSTORE PUSH1 0x4 ADD PUSH1 0x40 DUP1 MLOAD DUP1 DUP4 SUB DUP2 PUSH1 0x0 DUP8 DUP1 EXTCODESIZE ISZERO DUP1 ISZERO PUSH2 0x15C1 JUMPI PUSH1 0x0 DUP1 REVERT JUMPDEST POP GAS CALL ISZERO DUP1 ISZERO PUSH2 0x15D5 JUMPI RETURNDATASIZE PUSH1 0x0 DUP1 RETURNDATACOPY RETURNDATASIZE PUSH1 0x0 REVERT JUMPDEST POP POP POP POP PUSH1 0x40 MLOAD RETURNDATASIZE PUSH1 0x1F NOT PUSH1 0x1F DUP3 ADD AND DUP3 ADD DUP1 PUSH1 0x40 MSTORE POP DUP2 ADD SWAP1 PUSH2 0x15F9 SWAP2 SWAP1 PUSH2 0x41C3 JUMP JUMPDEST SWAP2 POP POP PUSH1 0x0 PUSH2 0x1619 PUSH2 0x160A DUP4 PUSH2 0xCDD JUMP JUMPDEST PUSH2 0x1613 DUP7 PUSH2 0xCDD JUMP JUMPDEST SWAP1 PUSH2 0x113D JUMP JUMPDEST SWAP1 POP PUSH2 0x2710 PUSH2 0x1627 DUP3 PUSH2 0x19F8 JUMP JUMPDEST SLT PUSH2 0x1297 JUMPI PUSH1 0x0 DUP1 REVERT JUMPDEST PUSH1 0x0 DUP3 PUSH2 0x1640 JUMPI POP PUSH1 0x0 PUSH2 0xC40 JUMP JUMPDEST DUP3 DUP3 MUL DUP3 DUP5 DUP3 DUP2 PUSH2 0x164D JUMPI INVALID JUMPDEST DIV EQ PUSH2 0xC58 JUMPI PUSH1 0x0 DUP1 REVERT JUMPDEST PUSH1 0x0 DUP1 DUP3 GT PUSH2 0x1666 JUMPI PUSH1 0x0 DUP1 REVERT JUMPDEST DUP2 DUP4 DUP2 PUSH2 0x166F JUMPI INVALID JUMPDEST DIV SWAP4 SWAP3 POP POP POP JUMP JUMPDEST PUSH1 0x0 PUSH2 0x1681 PUSH2 0x1033 JUMP JUMPDEST SWAP1 POP PUSH2 0x168C TIMESTAMP PUSH2 0x26B8 JUMP JUMPDEST PUSH2 0xFFFF DUP6 AND PUSH1 0x0 SWAP1 DUP2 MSTORE PUSH1 0x20 DUP4 SWAP1 MSTORE PUSH1 0x40 SWAP1 KECCAK256 DUP1 SLOAD PUSH5 0xFFFFFFFFFF SWAP3 SWAP1 SWAP3 AND PUSH1 0x1 PUSH1 0x78 SHL MUL PUSH5 0xFFFFFFFFFF PUSH1 0x78 SHL NOT SWAP1 SWAP3 AND SWAP2 SWAP1 SWAP2 OR SWAP1 SSTORE PUSH2 0x16CD DUP4 PUSH2 0x26CC JUMP JUMPDEST PUSH2 0xFFFF DUP6 AND PUSH1 0x0 SWAP1 DUP2 MSTORE PUSH1 0x20 DUP4 SWAP1 MSTORE PUSH1 0x40 SWAP1 KECCAK256 DUP1 SLOAD PUSH10 0xFFFFFFFFFFFFFFFFFFFF NOT AND PUSH1 0x1 PUSH1 0x1 PUSH1 0x50 SHL SUB SWAP3 SWAP1 SWAP3 AND SWAP2 SWAP1 SWAP2 OR SWAP1 SSTORE PUSH2 0x170A DUP3 PUSH2 0x26E2 JUMP JUMPDEST PUSH2 0xFFFF SWAP1 SWAP5 AND PUSH1 0x0 SWAP1 DUP2 MSTORE PUSH1 0x20 SWAP2 SWAP1 SWAP2 MSTORE PUSH1 0x40 SWAP1 KECCAK256 DUP1 SLOAD PUSH4 0xFFFFFFFF SWAP5 SWAP1 SWAP5 AND PUSH1 0x1 PUSH1 0xA0 SHL MUL PUSH4 0xFFFFFFFF PUSH1 0xA0 SHL NOT SWAP1 SWAP5 AND SWAP4 SWAP1 SWAP4 OR SWAP1 SWAP3 SSTORE POP POP JUMP JUMPDEST PUSH1 0x0 DUP1 PUSH2 0xC40 PUSH1 0x3 PUSH2 0x10B0 JUMP JUMPDEST PUSH1 0x0 DUP1 PUSH1 0x0 PUSH2 0x1763 DUP7 DUP6 PUSH2 0x26F5 JUMP JUMPDEST POP SWAP2 POP SWAP2 POP PUSH1 0x0 PUSH2 0x1772 PUSH2 0x278B JUMP JUMPDEST PUSH1 0x1 PUSH1 0x1 PUSH1 0xA0 SHL SUB DUP9 AND PUSH1 0x0 SWAP1 DUP2 MSTORE PUSH1 0x20 DUP3 SWAP1 MSTORE PUSH1 0x40 DUP2 KECCAK256 SWAP2 SWAP3 POP PUSH2 0x1797 DUP6 DUP10 PUSH2 0x2798 JUMP JUMPDEST SWAP1 POP DUP1 PUSH1 0x0 SGT ISZERO DUP1 ISZERO PUSH2 0x17B0 JUMPI POP PUSH1 0x1 PUSH1 0x1 PUSH1 0x60 SHL SUB DUP2 LT JUMPDEST PUSH2 0x17B9 JUMPI PUSH1 0x0 DUP1 REVERT JUMPDEST DUP2 SLOAD PUSH12 0xFFFFFFFFFFFFFFFFFFFFFFFF NOT AND PUSH1 0x1 PUSH1 0x1 PUSH1 0x60 SHL SUB DUP3 AND OR PUSH16 0xFFFFFFFFFFFFFFFFFFFFFFFFFFFFFFFF PUSH1 0x60 SHL NOT AND PUSH1 0x1 PUSH1 0x60 SHL PUSH1 0x1 PUSH1 0x1 PUSH1 0x80 SHL SUB DUP7 AND MUL OR DUP3 SSTORE PUSH4 0xFFFFFFFF DUP8 LT PUSH2 0x180E JUMPI PUSH1 0x0 DUP1 REVERT JUMPDEST POP DUP1 SLOAD PUSH1 0x1 PUSH1 0x1 PUSH1 0xE0 SHL SUB AND PUSH1 0x1 PUSH1 0xE0 SHL PUSH4 0xFFFFFFFF DUP9 AND MUL OR SWAP1 SSTORE POP SWAP2 POP POP SWAP4 SWAP3 POP POP POP JUMP JUMPDEST PUSH1 0x0 DUP1 PUSH2 0xC40 PUSH1 0x2 PUSH2 0x10B0 JUMP JUMPDEST PUSH1 0x0 PUSH2 0x1897 DUP3 PUSH1 0x40 MLOAD DUP1 PUSH1 0x40 ADD PUSH1 0x40 MSTORE DUP1 PUSH1 0x20 DUP2 MSTORE PUSH1 0x20 ADD PUSH32 0x5361666545524332303A206C6F772D6C6576656C2063616C6C206661696C6564 DUP2 MSTORE POP DUP6 PUSH1 0x1 PUSH1 0x1 PUSH1 0xA0 SHL SUB AND PUSH2 0x27AE SWAP1 SWAP3 SWAP2 SWAP1 PUSH4 0xFFFFFFFF AND JUMP JUMPDEST DUP1 MLOAD SWAP1 SWAP2 POP ISZERO PUSH2 0x76B JUMPI DUP1 DUP1 PUSH1 0x20 ADD SWAP1 MLOAD PUSH1 0x20 DUP2 LT ISZERO PUSH2 0x18B6 JUMPI PUSH1 0x0 DUP1 REVERT JUMPDEST POP MLOAD PUSH2 0x76B JUMPI PUSH1 0x40 MLOAD PUSH3 0x461BCD PUSH1 0xE5 SHL DUP2 MSTORE PUSH1 0x4 ADD DUP1 DUP1 PUSH1 0x20 ADD DUP3 DUP2 SUB DUP3 MSTORE PUSH1 0x2A DUP2 MSTORE PUSH1 0x20 ADD DUP1 PUSH2 0x45FE PUSH1 0x2A SWAP2 CODECOPY PUSH1 0x40 ADD SWAP2 POP POP PUSH1 0x40 MLOAD DUP1 SWAP2 SUB SWAP1 REVERT JUMPDEST PUSH1 0x0 PUSH11 0x7FFFFFFFFFFFFFFFFFFFFF NOT DUP3 SLT DUP1 ISZERO SWAP1 PUSH2 0x191C JUMPI POP PUSH11 0x7FFFFFFFFFFFFFFFFFFFFF DUP3 SGT ISZERO JUMPDEST PUSH2 0xCF3 JUMPI PUSH1 0x0 DUP1 REVERT JUMPDEST PUSH1 0x0 DUP1 PUSH2 0xC40 PUSH1 0x21 PUSH2 0x10B0 JUMP JUMPDEST PUSH2 0x193A PUSH2 0x3A3C JUMP JUMPDEST PUSH1 0x0 PUSH2 0x1945 DUP5 PUSH2 0x1375 JUMP JUMPDEST SWAP1 POP DUP3 DUP2 PUSH1 0x0 ADD MLOAD LT ISZERO PUSH2 0x1984 JUMPI PUSH1 0x0 DUP1 PUSH2 0x195F DUP7 PUSH2 0x27BD JUMP JUMPDEST SWAP1 POP PUSH2 0x196D DUP7 DUP5 DUP4 DUP9 PUSH2 0x283A JUMP JUMPDEST SWAP1 SWAP4 POP SWAP2 POP PUSH2 0x197D DUP7 DUP4 DUP6 PUSH2 0x293B JUMP JUMPDEST POP POP PUSH2 0x1991 JUMP JUMPDEST DUP1 MLOAD DUP4 EQ PUSH2 0x1991 JUMPI PUSH1 0x0 DUP1 REVERT JUMPDEST PUSH1 0x40 MLOAD DUP1 PUSH1 0x60 ADD PUSH1 0x40 MSTORE DUP1 PUSH2 0x19BF PUSH2 0x19BA DUP5 PUSH1 0xA0 ADD MLOAD DUP6 PUSH1 0xC0 ADD MLOAD PUSH2 0x1631 SWAP1 SWAP2 SWAP1 PUSH4 0xFFFFFFFF AND JUMP JUMPDEST PUSH2 0xCDD JUMP JUMPDEST DUP2 MSTORE PUSH1 0x20 ADD PUSH2 0x19E2 PUSH2 0x19BA DUP5 PUSH1 0xA0 ADD MLOAD DUP6 PUSH1 0xE0 ADD MLOAD PUSH2 0x1631 SWAP1 SWAP2 SWAP1 PUSH4 0xFFFFFFFF AND JUMP JUMPDEST DUP2 MSTORE PUSH1 0x20 ADD DUP3 PUSH1 0x60 ADD MLOAD DUP2 MSTORE POP SWAP2 POP POP SWAP3 SWAP2 POP POP JUMP JUMPDEST PUSH1 0x0 DUP1 DUP3 SLT ISZERO PUSH2 0x1A12 JUMPI PUSH2 0x1A0B DUP3 PUSH2 0x12A2 JUMP JUMPDEST SWAP1 POP PUSH2 0xC2E JUMP JUMPDEST POP DUP1 PUSH2 0xC2E JUMP JUMPDEST DUP2 DUP2 MUL PUSH1 0x0 NOT DUP4 EQ ISZERO PUSH2 0x1A49 JUMPI DUP2 ISZERO DUP1 PUSH2 0x1A3B JUMPI POP DUP3 DUP3 DUP3 DUP2 PUSH2 0x1A38 JUMPI INVALID JUMPDEST SDIV EQ JUMPDEST PUSH2 0x1A44 JUMPI PUSH1 0x0 DUP1 REVERT JUMPDEST PUSH2 0xC40 JUMP JUMPDEST DUP3 ISZERO DUP1 PUSH2 0x1A5E JUMPI POP DUP2 DUP4 DUP3 DUP2 PUSH2 0x1A5B JUMPI INVALID JUMPDEST SDIV EQ JUMPDEST PUSH2 0xC40 JUMPI PUSH1 0x0 DUP1 REVERT JUMPDEST PUSH2 0x1A6F PUSH2 0x3AA9 JUMP JUMPDEST PUSH2 0xC40 DUP3 PUSH1 0x1 PUSH2 0x2B6F JUMP JUMPDEST PUSH1 0x0 PUSH2 0xC58 PUSH15 0xC097CE7BC90715B34B9F1000000000 PUSH2 0x1AA6 DUP6 PUSH1 0x0 ADD MLOAD DUP6 PUSH2 0x1A19 SWAP1 SWAP2 SWAP1 PUSH4 0xFFFFFFFF AND JUMP JUMPDEST SWAP1 PUSH2 0x2C09 JUMP JUMPDEST PUSH1 0x0 PUSH4 0x5F5E100 DUP4 PUSH1 0x40 ADD MLOAD EQ ISZERO PUSH2 0x1AC5 JUMPI POP DUP1 PUSH2 0xC40 JUMP JUMPDEST PUSH2 0xC58 PUSH4 0x5F5E100 PUSH2 0x1AA6 DUP6 PUSH1 0x40 ADD MLOAD DUP6 PUSH2 0x1A19 SWAP1 SWAP2 SWAP1 PUSH4 0xFFFFFFFF AND JUMP JUMPDEST PUSH1 0x0 PUSH2 0x1AEE PUSH2 0x2C3A JUMP JUMPDEST DUP4 MLOAD PUSH1 0x1 PUSH1 0x1 PUSH1 0xA0 SHL SUB AND PUSH1 0x0 SWAP1 DUP2 MSTORE PUSH1 0x20 DUP3 SWAP1 MSTORE PUSH1 0x40 SWAP1 KECCAK256 SLOAD SWAP1 SWAP2 POP DUP1 DUP4 GT PUSH2 0x1B19 JUMPI POP POP PUSH2 0x76B JUMP JUMPDEST PUSH1 0x0 PUSH2 0x1B24 DUP7 PUSH2 0xC01 JUMP JUMPDEST SWAP1 POP PUSH1 0x0 DUP2 PUSH1 0x1 PUSH1 0x1 PUSH1 0xA0 SHL SUB AND PUSH4 0xB5E4DA23 DUP7 PUSH1 0x40 MLOAD DUP3 PUSH4 0xFFFFFFFF AND PUSH1 0xE0 SHL DUP2 MSTORE PUSH1 0x4 ADD PUSH2 0x1B54 SWAP2 SWAP1 PUSH2 0x435A JUMP JUMPDEST PUSH1 0x0 PUSH1 0x40 MLOAD DUP1 DUP4 SUB DUP2 DUP7 DUP1 EXTCODESIZE ISZERO DUP1 ISZERO PUSH2 0x1B6C JUMPI PUSH1 0x0 DUP1 REVERT JUMPDEST POP GAS STATICCALL ISZERO DUP1 ISZERO PUSH2 0x1B80 JUMPI RETURNDATASIZE PUSH1 0x0 DUP1 RETURNDATACOPY RETURNDATASIZE PUSH1 0x0 REVERT JUMPDEST POP POP POP POP PUSH1 0x40 MLOAD RETURNDATASIZE PUSH1 0x0 DUP3 RETURNDATACOPY PUSH1 0x1F RETURNDATASIZE SWAP1 DUP2 ADD PUSH1 0x1F NOT AND DUP3 ADD PUSH1 0x40 MSTORE PUSH2 0x1BA8 SWAP2 SWAP1 DUP2 ADD SWAP1 PUSH2 0x3F1F JUMP JUMPDEST SWAP1 POP PUSH1 0x0 PUSH2 0x1BB6 DUP8 DUP4 PUSH2 0x22A4 JUMP JUMPDEST SWAP1 POP PUSH2 0x1BC2 DUP5 DUP3 PUSH2 0xC46 JUMP JUMPDEST DUP7 GT ISZERO PUSH2 0x11D3 JUMPI PUSH1 0x0 DUP1 REVERT JUMPDEST DUP1 ISZERO PUSH2 0x1C60 JUMPI PUSH20 0x82AF49447D8A07E3BD95BD0D56F35241523FBAB1 PUSH1 0x1 PUSH1 0x1 PUSH1 0xA0 SHL SUB AND PUSH4 0xD0E30DB0 DUP4 PUSH1 0x40 MLOAD DUP3 PUSH4 0xFFFFFFFF AND PUSH1 0xE0 SHL DUP2 MSTORE PUSH1 0x4 ADD PUSH1 0x0 PUSH1 0x40 MLOAD DUP1 DUP4 SUB DUP2 DUP6 DUP9 DUP1 EXTCODESIZE ISZERO DUP1 ISZERO PUSH2 0x1C23 JUMPI PUSH1 0x0 DUP1 REVERT JUMPDEST POP GAS CALL ISZERO DUP1 ISZERO PUSH2 0x1C37 JUMPI RETURNDATASIZE PUSH1 0x0 DUP1 RETURNDATACOPY RETURNDATASIZE PUSH1 0x0 REVERT JUMPDEST POP POP POP POP POP PUSH2 0x1C5B PUSH20 0x82AF49447D8A07E3BD95BD0D56F35241523FBAB1 DUP5 DUP5 PUSH2 0x1C9C JUMP JUMPDEST PUSH2 0x76B JUMP JUMPDEST PUSH1 0x40 MLOAD PUSH1 0x1 PUSH1 0x1 PUSH1 0xA0 SHL SUB DUP5 AND SWAP1 DUP4 ISZERO PUSH2 0x8FC MUL SWAP1 DUP5 SWAP1 PUSH1 0x0 DUP2 DUP2 DUP2 DUP6 DUP9 DUP9 CALL SWAP4 POP POP POP POP ISZERO DUP1 ISZERO PUSH2 0x1C96 JUMPI RETURNDATASIZE PUSH1 0x0 DUP1 RETURNDATACOPY RETURNDATASIZE PUSH1 0x0 REVERT JUMPDEST POP POP POP POP JUMP JUMPDEST DUP3 PUSH1 0x1 PUSH1 0x1 PUSH1 0xA0 SHL SUB AND PUSH4 0xA9059CBB DUP4 DUP4 PUSH1 0x40 MLOAD DUP4 PUSH4 0xFFFFFFFF AND PUSH1 0xE0 SHL DUP2 MSTORE PUSH1 0x4 ADD DUP1 DUP4 PUSH1 0x1 PUSH1 0x1 PUSH1 0xA0 SHL SUB AND DUP2 MSTORE PUSH1 0x20 ADD DUP3 DUP2 MSTORE PUSH1 0x20 ADD SWAP3 POP POP POP PUSH1 0x0 PUSH1 0x40 MLOAD DUP1 DUP4 SUB DUP2 PUSH1 0x0 DUP8 DUP1 EXTCODESIZE ISZERO DUP1 ISZERO PUSH2 0x1CF3 JUMPI PUSH1 0x0 DUP1 REVERT JUMPDEST POP GAS CALL ISZERO DUP1 ISZERO PUSH2 0x1D07 JUMPI RETURNDATASIZE PUSH1 0x0 DUP1 RETURNDATACOPY RETURNDATASIZE PUSH1 0x0 REVERT JUMPDEST POP POP POP POP PUSH2 0x76B PUSH2 0x2C47 JUMP JUMPDEST PUSH1 0x0 DUP1 PUSH2 0x1D20 DUP5 DUP7 PUSH2 0x2CB4 JUMP JUMPDEST SWAP1 POP PUSH2 0x1D2C DUP4 DUP3 PUSH2 0x2CE4 JUMP JUMPDEST SWAP2 POP PUSH2 0x1D39 DUP8 DUP8 DUP5 PUSH2 0x1153 JUMP JUMPDEST PUSH2 0x1D44 DUP7 DUP4 DUP4 PUSH2 0x2D06 JUMP JUMPDEST DUP4 MLOAD PUSH2 0x1D50 SWAP1 DUP7 PUSH2 0x2DF9 JUMP JUMPDEST POP SWAP6 SWAP5 POP POP POP POP POP JUMP JUMPDEST PUSH1 0x0 DUP1 PUSH2 0xC40 PUSH1 0x1D PUSH2 0x10B0 JUMP JUMPDEST PUSH1 0x60 PUSH1 0x0 PUSH2 0x1D73 PUSH2 0xC33 JUMP JUMPDEST PUSH2 0xFFFF DUP6 AND PUSH1 0x0 SWAP1 DUP2 MSTORE PUSH1 0x20 SWAP2 SWAP1 SWAP2 MSTORE PUSH1 0x40 SWAP1 KECCAK256 DUP4 MLOAD SWAP1 SWAP2 POP PUSH1 0x1 PUSH1 0x1 PUSH1 0x40 SHL SUB DUP2 GT DUP1 ISZERO PUSH2 0x1DA1 JUMPI PUSH1 0x0 DUP1 REVERT JUMPDEST POP PUSH1 0x40 MLOAD SWAP1 DUP1 DUP3 MSTORE DUP1 PUSH1 0x20 MUL PUSH1 0x20 ADD DUP3 ADD PUSH1 0x40 MSTORE DUP1 ISZERO PUSH2 0x1DCB JUMPI DUP2 PUSH1 0x20 ADD PUSH1 0x20 DUP3 MUL DUP1 CALLDATASIZE DUP4 CALLDATACOPY ADD SWAP1 POP JUMPDEST POP SWAP2 POP PUSH1 0x0 DUP1 JUMPDEST DUP5 MLOAD DUP2 LT ISZERO PUSH2 0x1E59 JUMPI PUSH1 0x0 DUP4 PUSH1 0x0 DUP8 DUP5 DUP2 MLOAD DUP2 LT PUSH2 0x1DEC JUMPI INVALID JUMPDEST PUSH1 0x20 MUL PUSH1 0x20 ADD ADD MLOAD PUSH1 0x1 PUSH1 0x1 PUSH1 0xA0 SHL SUB AND PUSH1 0x1 PUSH1 0x1 PUSH1 0xA0 SHL SUB AND DUP2 MSTORE PUSH1 0x20 ADD SWAP1 DUP2 MSTORE PUSH1 0x20 ADD PUSH1 0x0 KECCAK256 PUSH1 0x0 SWAP1 SLOAD SWAP1 PUSH2 0x100 EXP SWAP1 DIV PUSH1 0xFF AND SWAP1 POP DUP1 DUP6 DUP4 DUP2 MLOAD DUP2 LT PUSH2 0x1E31 JUMPI INVALID JUMPDEST PUSH1 0xFF SWAP3 DUP4 AND PUSH1 0x20 SWAP2 DUP3 MUL SWAP3 SWAP1 SWAP3 ADD ADD MSTORE PUSH2 0x1E4E SWAP1 DUP5 SWAP1 DUP4 AND PUSH2 0xC46 JUMP JUMPDEST SWAP3 POP POP PUSH1 0x1 ADD PUSH2 0x1DD2 JUMP JUMPDEST POP PUSH1 0x64 DUP2 GT ISZERO PUSH2 0xD48 JUMPI PUSH1 0x0 DUP1 REVERT JUMPDEST PUSH2 0x1E70 PUSH2 0x3AD8 JUMP JUMPDEST PUSH1 0x0 DUP5 PUSH1 0x1 PUSH1 0x1 PUSH1 0xA0 SHL SUB AND PUSH4 0x395C46BA PUSH1 0x40 MLOAD DUP2 PUSH4 0xFFFFFFFF AND PUSH1 0xE0 SHL DUP2 MSTORE PUSH1 0x4 ADD PUSH1 0x0 PUSH1 0x40 MLOAD DUP1 DUP4 SUB DUP2 DUP7 DUP1 EXTCODESIZE ISZERO DUP1 ISZERO PUSH2 0x1EAB JUMPI PUSH1 0x0 DUP1 REVERT JUMPDEST POP GAS STATICCALL ISZERO DUP1 ISZERO PUSH2 0x1EBF JUMPI RETURNDATASIZE PUSH1 0x0 DUP1 RETURNDATACOPY RETURNDATASIZE PUSH1 0x0 REVERT JUMPDEST POP POP POP POP PUSH1 0x40 MLOAD RETURNDATASIZE PUSH1 0x0 DUP3 RETURNDATACOPY PUSH1 0x1F RETURNDATASIZE SWAP1 DUP2 ADD PUSH1 0x1F NOT AND DUP3 ADD PUSH1 0x40 MSTORE PUSH2 0x1EE7 SWAP2 SWAP1 DUP2 ADD SWAP1 PUSH2 0x4044 JUMP JUMPDEST SWAP1 POP PUSH1 0x0 DUP6 PUSH1 0x1 PUSH1 0x1 PUSH1 0xA0 SHL SUB AND PUSH4 0xA77C05B8 PUSH1 0x40 MLOAD DUP2 PUSH4 0xFFFFFFFF AND PUSH1 0xE0 SHL DUP2 MSTORE PUSH1 0x4 ADD PUSH1 0x40 DUP1 MLOAD DUP1 DUP4 SUB DUP2 DUP7 DUP1 EXTCODESIZE ISZERO DUP1 ISZERO PUSH2 0x1F23 JUMPI PUSH1 0x0 DUP1 REVERT JUMPDEST POP GAS STATICCALL ISZERO DUP1 ISZERO PUSH2 0x1F37 JUMPI RETURNDATASIZE PUSH1 0x0 DUP1 RETURNDATACOPY RETURNDATASIZE PUSH1 0x0 REVERT JUMPDEST POP POP POP POP PUSH1 0x40 MLOAD RETURNDATASIZE PUSH1 0x1F NOT PUSH1 0x1F DUP3 ADD AND DUP3 ADD DUP1 PUSH1 0x40 MSTORE POP DUP2 ADD SWAP1 PUSH2 0x1F5B SWAP2 SWAP1 PUSH2 0x41C3 JUMP JUMPDEST POP SWAP1 POP PUSH1 0x0 DUP6 MLOAD PUSH1 0x1 PUSH1 0x1 PUSH1 0x40 SHL SUB DUP2 GT DUP1 ISZERO PUSH2 0x1F77 JUMPI PUSH1 0x0 DUP1 REVERT JUMPDEST POP PUSH1 0x40 MLOAD SWAP1 DUP1 DUP3 MSTORE DUP1 PUSH1 0x20 MUL PUSH1 0x20 ADD DUP3 ADD PUSH1 0x40 MSTORE DUP1 ISZERO PUSH2 0x1FA1 JUMPI DUP2 PUSH1 0x20 ADD PUSH1 0x20 DUP3 MUL DUP1 CALLDATASIZE DUP4 CALLDATACOPY ADD SWAP1 POP JUMPDEST POP SWAP1 POP PUSH1 0x0 DUP7 MLOAD PUSH1 0x1 PUSH1 0x1 PUSH1 0x40 SHL SUB DUP2 GT DUP1 ISZERO PUSH2 0x1FBD JUMPI PUSH1 0x0 DUP1 REVERT JUMPDEST POP PUSH1 0x40 MLOAD SWAP1 DUP1 DUP3 MSTORE DUP1 PUSH1 0x20 MUL PUSH1 0x20 ADD DUP3 ADD PUSH1 0x40 MSTORE DUP1 ISZERO PUSH2 0x1FE7 JUMPI DUP2 PUSH1 0x20 ADD PUSH1 0x20 DUP3 MUL DUP1 CALLDATASIZE DUP4 CALLDATACOPY ADD SWAP1 POP JUMPDEST POP SWAP1 POP PUSH1 0x0 DUP8 MLOAD PUSH1 0x1 PUSH1 0x1 PUSH1 0x40 SHL SUB DUP2 GT DUP1 ISZERO PUSH2 0x2003 JUMPI PUSH1 0x0 DUP1 REVERT JUMPDEST POP PUSH1 0x40 MLOAD SWAP1 DUP1 DUP3 MSTORE DUP1 PUSH1 0x20 MUL PUSH1 0x20 ADD DUP3 ADD PUSH1 0x40 MSTORE DUP1 ISZERO PUSH2 0x202D JUMPI DUP2 PUSH1 0x20 ADD PUSH1 0x20 DUP3 MUL DUP1 CALLDATASIZE DUP4 CALLDATACOPY ADD SWAP1 POP JUMPDEST POP SWAP1 POP PUSH1 0x0 DUP9 MLOAD PUSH1 0x1 PUSH1 0x1 PUSH1 0x40 SHL SUB DUP2 GT DUP1 ISZERO PUSH2 0x2049 JUMPI PUSH1 0x0 DUP1 REVERT JUMPDEST POP PUSH1 0x40 MLOAD SWAP1 DUP1 DUP3 MSTORE DUP1 PUSH1 0x20 MUL PUSH1 0x20 ADD DUP3 ADD PUSH1 0x40 MSTORE DUP1 ISZERO PUSH2 0x2073 JUMPI DUP2 PUSH1 0x20 ADD PUSH1 0x20 DUP3 MUL DUP1 CALLDATASIZE DUP4 CALLDATACOPY ADD SWAP1 POP JUMPDEST POP SWAP1 POP PUSH1 0x0 JUMPDEST DUP10 MLOAD DUP2 LT ISZERO PUSH2 0x218A JUMPI PUSH1 0x0 DUP11 DUP3 DUP2 MLOAD DUP2 LT PUSH2 0x2090 JUMPI INVALID JUMPDEST PUSH1 0x20 MUL PUSH1 0x20 ADD ADD MLOAD SWAP1 POP PUSH1 0x0 PUSH1 0x64 DUP12 DUP5 DUP2 MLOAD DUP2 LT PUSH2 0x20AA JUMPI INVALID JUMPDEST PUSH1 0x20 MUL PUSH1 0x20 ADD ADD MLOAD PUSH1 0xFF AND DUP10 MUL DUP2 PUSH2 0x20BE JUMPI INVALID JUMPDEST DIV SWAP1 POP PUSH1 0x0 DUP10 DUP5 DUP2 MLOAD DUP2 LT PUSH2 0x20CF JUMPI INVALID JUMPDEST PUSH1 0x20 MUL PUSH1 0x20 ADD ADD MLOAD SWAP1 POP DUP3 DUP9 DUP6 DUP2 MLOAD DUP2 LT PUSH2 0x20E6 JUMPI INVALID JUMPDEST PUSH1 0x20 MUL PUSH1 0x20 ADD ADD SWAP1 PUSH1 0x1 PUSH1 0x1 PUSH1 0xA0 SHL SUB AND SWAP1 DUP2 PUSH1 0x1 PUSH1 0x1 PUSH1 0xA0 SHL SUB AND DUP2 MSTORE POP POP DUP3 DUP7 DUP6 DUP2 MLOAD DUP2 LT PUSH2 0x2113 JUMPI INVALID JUMPDEST PUSH1 0x20 MUL PUSH1 0x20 ADD ADD SWAP1 PUSH1 0x1 PUSH1 0x1 PUSH1 0xA0 SHL SUB AND SWAP1 DUP2 PUSH1 0x1 PUSH1 0x1 PUSH1 0xA0 SHL SUB AND DUP2 MSTORE POP POP DUP1 DUP3 LT ISZERO PUSH2 0x215B JUMPI DUP2 DUP2 SUB DUP8 DUP6 DUP2 MLOAD DUP2 LT PUSH2 0x214A JUMPI INVALID JUMPDEST PUSH1 0x20 MUL PUSH1 0x20 ADD ADD DUP2 DUP2 MSTORE POP POP PUSH2 0x217F JUMP JUMPDEST DUP2 DUP2 LT ISZERO PUSH2 0x217F JUMPI DUP1 DUP3 SUB DUP6 DUP6 DUP2 MLOAD DUP2 LT PUSH2 0x2172 JUMPI INVALID JUMPDEST PUSH1 0x20 MUL PUSH1 0x20 ADD ADD DUP2 DUP2 MSTORE POP POP JUMPDEST POP POP POP PUSH1 0x1 ADD PUSH2 0x2079 JUMP JUMPDEST POP PUSH1 0x40 MLOAD PUSH4 0x871ADE43 PUSH1 0xE0 SHL DUP2 MSTORE PUSH1 0x1 PUSH1 0x1 PUSH1 0xA0 SHL SUB DUP12 AND SWAP1 PUSH4 0x871ADE43 SWAP1 PUSH2 0x21B9 SWAP1 DUP8 SWAP1 DUP8 SWAP1 PUSH1 0x4 ADD PUSH2 0x42E7 JUMP JUMPDEST PUSH1 0x0 PUSH1 0x40 MLOAD DUP1 DUP4 SUB DUP2 DUP7 DUP1 EXTCODESIZE ISZERO DUP1 ISZERO PUSH2 0x21D1 JUMPI PUSH1 0x0 DUP1 REVERT JUMPDEST POP GAS STATICCALL ISZERO DUP1 ISZERO PUSH2 0x21E5 JUMPI RETURNDATASIZE PUSH1 0x0 DUP1 RETURNDATACOPY RETURNDATASIZE PUSH1 0x0 REVERT JUMPDEST POP POP POP POP PUSH1 0x40 MLOAD RETURNDATASIZE PUSH1 0x0 DUP3 RETURNDATACOPY PUSH1 0x1F RETURNDATASIZE SWAP1 DUP2 ADD PUSH1 0x1F NOT AND DUP3 ADD PUSH1 0x40 MSTORE PUSH2 0x220D SWAP2 SWAP1 DUP2 ADD SWAP1 PUSH2 0x3F1F JUMP JUMPDEST DUP8 MSTORE PUSH1 0x40 MLOAD PUSH4 0x76CF13AF PUSH1 0xE0 SHL DUP2 MSTORE PUSH1 0x1 PUSH1 0x1 PUSH1 0xA0 SHL SUB DUP12 AND SWAP1 PUSH4 0x76CF13AF SWAP1 PUSH2 0x223D SWAP1 DUP6 SWAP1 DUP6 SWAP1 PUSH1 0x4 ADD PUSH2 0x42E7 JUMP JUMPDEST PUSH1 0x0 PUSH1 0x40 MLOAD DUP1 DUP4 SUB DUP2 DUP7 DUP1 EXTCODESIZE ISZERO DUP1 ISZERO PUSH2 0x2255 JUMPI PUSH1 0x0 DUP1 REVERT JUMPDEST POP GAS STATICCALL ISZERO DUP1 ISZERO PUSH2 0x2269 JUMPI RETURNDATASIZE PUSH1 0x0 DUP1 RETURNDATACOPY RETURNDATASIZE PUSH1 0x0 REVERT JUMPDEST POP POP POP POP PUSH1 0x40 MLOAD RETURNDATASIZE PUSH1 0x0 DUP3 RETURNDATACOPY PUSH1 0x1F RETURNDATASIZE SWAP1 DUP2 ADD PUSH1 0x1F NOT AND DUP3 ADD PUSH1 0x40 MSTORE PUSH2 0x2291 SWAP2 SWAP1 DUP2 ADD SWAP1 PUSH2 0x3DFA JUMP JUMPDEST PUSH1 0x20 DUP9 ADD MSTORE POP SWAP5 SWAP9 SWAP8 POP POP POP POP POP POP POP POP JUMP JUMPDEST PUSH1 0x0 DUP1 JUMPDEST DUP3 MLOAD DUP2 LT ISZERO PUSH2 0x24A6 JUMPI PUSH1 0x0 DUP4 DUP3 DUP2 MLOAD DUP2 LT PUSH2 0x22BF JUMPI INVALID JUMPDEST PUSH1 0x20 MUL PUSH1 0x20 ADD ADD MLOAD SWAP1 POP PUSH1 0x0 DUP2 PUSH1 0x60 ADD MLOAD PUSH1 0x1 PUSH1 0x1 PUSH1 0xA0 SHL SUB AND PUSH4 0x70A08231 ADDRESS PUSH1 0x40 MLOAD DUP3 PUSH4 0xFFFFFFFF AND PUSH1 0xE0 SHL DUP2 MSTORE PUSH1 0x4 ADD PUSH2 0x22FB SWAP2 SWAP1 PUSH2 0x423A JUMP JUMPDEST PUSH1 0x20 PUSH1 0x40 MLOAD DUP1 DUP4 SUB DUP2 DUP7 DUP1 EXTCODESIZE ISZERO DUP1 ISZERO PUSH2 0x2313 JUMPI PUSH1 0x0 DUP1 REVERT JUMPDEST POP GAS STATICCALL ISZERO DUP1 ISZERO PUSH2 0x2327 JUMPI RETURNDATASIZE PUSH1 0x0 DUP1 RETURNDATACOPY RETURNDATASIZE PUSH1 0x0 REVERT JUMPDEST POP POP POP POP PUSH1 0x40 MLOAD RETURNDATASIZE PUSH1 0x1F NOT PUSH1 0x1F DUP3 ADD AND DUP3 ADD DUP1 PUSH1 0x40 MSTORE POP DUP2 ADD SWAP1 PUSH2 0x234B SWAP2 SWAP1 PUSH2 0x41AB JUMP JUMPDEST SWAP1 POP PUSH1 0x0 PUSH2 0x2359 DUP8 ADDRESS PUSH2 0x2E53 JUMP JUMPDEST SWAP1 POP PUSH1 0x0 JUMPDEST DUP4 MLOAD MLOAD DUP2 LT ISZERO PUSH2 0x23AA JUMPI PUSH2 0x23A2 DUP5 PUSH1 0x0 ADD MLOAD DUP3 DUP2 MLOAD DUP2 LT PUSH2 0x237B JUMPI INVALID JUMPDEST PUSH1 0x20 MUL PUSH1 0x20 ADD ADD MLOAD PUSH1 0x0 DUP7 PUSH1 0x20 ADD MLOAD DUP5 DUP2 MLOAD DUP2 LT PUSH2 0x2395 JUMPI INVALID JUMPDEST PUSH1 0x20 MUL PUSH1 0x20 ADD ADD MLOAD PUSH2 0x2F04 JUMP JUMPDEST PUSH1 0x1 ADD PUSH2 0x235E JUMP JUMPDEST POP PUSH1 0x0 PUSH2 0x23B7 DUP9 ADDRESS PUSH2 0x2E53 JUMP JUMPDEST SWAP1 POP PUSH1 0x0 PUSH2 0x23C5 DUP3 DUP5 PUSH2 0x1040 JUMP JUMPDEST SWAP1 POP DUP1 DUP6 PUSH1 0x40 ADD MLOAD GT ISZERO PUSH2 0x23D8 JUMPI PUSH1 0x0 DUP1 REVERT JUMPDEST PUSH1 0x60 DUP6 ADD MLOAD PUSH1 0x40 MLOAD PUSH4 0x70A08231 PUSH1 0xE0 SHL DUP2 MSTORE PUSH1 0x0 SWAP2 PUSH1 0x1 PUSH1 0x1 PUSH1 0xA0 SHL SUB AND SWAP1 PUSH4 0x70A08231 SWAP1 PUSH2 0x240B SWAP1 ADDRESS SWAP1 PUSH1 0x4 ADD PUSH2 0x423A JUMP JUMPDEST PUSH1 0x20 PUSH1 0x40 MLOAD DUP1 DUP4 SUB DUP2 DUP7 DUP1 EXTCODESIZE ISZERO DUP1 ISZERO PUSH2 0x2423 JUMPI PUSH1 0x0 DUP1 REVERT JUMPDEST POP GAS STATICCALL ISZERO DUP1 ISZERO PUSH2 0x2437 JUMPI RETURNDATASIZE PUSH1 0x0 DUP1 RETURNDATACOPY RETURNDATASIZE PUSH1 0x0 REVERT JUMPDEST POP POP POP POP PUSH1 0x40 MLOAD RETURNDATASIZE PUSH1 0x1F NOT PUSH1 0x1F DUP3 ADD AND DUP3 ADD DUP1 PUSH1 0x40 MSTORE POP DUP2 ADD SWAP1 PUSH2 0x245B SWAP2 SWAP1 PUSH2 0x41AB JUMP JUMPDEST SWAP1 POP DUP5 DUP2 GT ISZERO PUSH2 0x246A JUMPI PUSH1 0x0 DUP1 REVERT JUMPDEST PUSH2 0x2479 DUP7 PUSH1 0x60 ADD MLOAD DUP7 DUP4 PUSH2 0x3049 JUMP JUMPDEST PUSH2 0x2483 DUP9 DUP4 PUSH2 0xC46 JUMP JUMPDEST SWAP8 POP PUSH2 0x2494 DUP11 PUSH1 0x0 ADD MLOAD DUP6 DUP6 PUSH2 0x3049 JUMP JUMPDEST POP POP PUSH1 0x1 SWAP1 SWAP5 ADD SWAP4 POP PUSH2 0x22A8 SWAP3 POP POP POP JUMP JUMPDEST POP SWAP3 SWAP2 POP POP JUMP JUMPDEST PUSH1 0x0 DUP1 JUMPDEST DUP3 MLOAD DUP2 LT ISZERO PUSH2 0x1C96 JUMPI PUSH1 0x0 DUP4 DUP3 DUP2 MLOAD DUP2 LT PUSH2 0x24C8 JUMPI INVALID JUMPDEST PUSH1 0x20 MUL PUSH1 0x20 ADD ADD MLOAD SWAP1 POP PUSH1 0x0 DUP2 PUSH1 0x80 ADD MLOAD PUSH1 0x1 PUSH1 0x1 PUSH1 0xA0 SHL SUB AND PUSH4 0x70A08231 ADDRESS PUSH1 0x40 MLOAD DUP3 PUSH4 0xFFFFFFFF AND PUSH1 0xE0 SHL DUP2 MSTORE PUSH1 0x4 ADD PUSH2 0x2504 SWAP2 SWAP1 PUSH2 0x423A JUMP JUMPDEST PUSH1 0x20 PUSH1 0x40 MLOAD DUP1 DUP4 SUB DUP2 DUP7 DUP1 EXTCODESIZE ISZERO DUP1 ISZERO PUSH2 0x251C JUMPI PUSH1 0x0 DUP1 REVERT JUMPDEST POP GAS STATICCALL ISZERO DUP1 ISZERO PUSH2 0x2530 JUMPI RETURNDATASIZE PUSH1 0x0 DUP1 RETURNDATACOPY RETURNDATASIZE PUSH1 0x0 REVERT JUMPDEST POP POP POP POP PUSH1 0x40 MLOAD RETURNDATASIZE PUSH1 0x1F NOT PUSH1 0x1F DUP3 ADD AND DUP3 ADD DUP1 PUSH1 0x40 MSTORE POP DUP2 ADD SWAP1 PUSH2 0x2554 SWAP2 SWAP1 PUSH2 0x41AB JUMP JUMPDEST SWAP1 POP PUSH1 0x0 PUSH2 0x2562 DUP8 ADDRESS PUSH2 0x2E53 JUMP JUMPDEST SWAP1 POP PUSH1 0x0 JUMPDEST DUP4 MLOAD MLOAD DUP2 LT ISZERO PUSH2 0x25BC JUMPI PUSH2 0x25B4 DUP5 PUSH1 0x0 ADD MLOAD DUP3 DUP2 MLOAD DUP2 LT PUSH2 0x2584 JUMPI INVALID JUMPDEST PUSH1 0x20 MUL PUSH1 0x20 ADD ADD MLOAD DUP6 PUSH1 0x40 ADD MLOAD DUP4 DUP2 MLOAD DUP2 LT PUSH2 0x259C JUMPI INVALID JUMPDEST PUSH1 0x20 MUL PUSH1 0x20 ADD ADD MLOAD DUP7 PUSH1 0x20 ADD MLOAD DUP5 DUP2 MLOAD DUP2 LT PUSH2 0x2395 JUMPI INVALID JUMPDEST PUSH1 0x1 ADD PUSH2 0x2567 JUMP JUMPDEST POP PUSH1 0x0 PUSH2 0x25C9 DUP9 ADDRESS PUSH2 0x2E53 JUMP JUMPDEST SWAP1 POP PUSH1 0x0 PUSH2 0x25D7 DUP4 DUP4 PUSH2 0x1040 JUMP JUMPDEST SWAP1 POP DUP5 PUSH1 0x60 ADD MLOAD DUP2 GT ISZERO PUSH2 0x25EA JUMPI PUSH1 0x0 DUP1 REVERT JUMPDEST PUSH1 0x80 DUP6 ADD MLOAD PUSH1 0x40 MLOAD PUSH4 0x70A08231 PUSH1 0xE0 SHL DUP2 MSTORE PUSH1 0x0 SWAP2 PUSH1 0x1 PUSH1 0x1 PUSH1 0xA0 SHL SUB AND SWAP1 PUSH4 0x70A08231 SWAP1 PUSH2 0x261D SWAP1 ADDRESS SWAP1 PUSH1 0x4 ADD PUSH2 0x423A JUMP JUMPDEST PUSH1 0x20 PUSH1 0x40 MLOAD DUP1 DUP4 SUB DUP2 DUP7 DUP1 EXTCODESIZE ISZERO DUP1 ISZERO PUSH2 0x2635 JUMPI PUSH1 0x0 DUP1 REVERT JUMPDEST POP GAS STATICCALL ISZERO DUP1 ISZERO PUSH2 0x2649 JUMPI RETURNDATASIZE PUSH1 0x0 DUP1 RETURNDATACOPY RETURNDATASIZE PUSH1 0x0 REVERT JUMPDEST POP POP POP POP PUSH1 0x40 MLOAD RETURNDATASIZE PUSH1 0x1F NOT PUSH1 0x1F DUP3 ADD AND DUP3 ADD DUP1 PUSH1 0x40 MSTORE POP DUP2 ADD SWAP1 PUSH2 0x266D SWAP2 SWAP1 PUSH2 0x41AB JUMP JUMPDEST SWAP1 POP DUP1 DUP6 GT ISZERO PUSH2 0x267C JUMPI PUSH1 0x0 DUP1 REVERT JUMPDEST PUSH2 0x268B DUP7 PUSH1 0x80 ADD MLOAD DUP7 DUP4 PUSH2 0x3049 JUMP JUMPDEST PUSH2 0x2695 DUP9 DUP4 PUSH2 0xC46 JUMP JUMPDEST SWAP8 POP PUSH2 0x26A6 DUP11 PUSH1 0x0 ADD MLOAD DUP6 DUP6 PUSH2 0x3049 JUMP JUMPDEST POP POP PUSH1 0x1 SWAP1 SWAP5 ADD SWAP4 POP PUSH2 0x24B1 SWAP3 POP POP POP JUMP JUMPDEST PUSH1 0x0 PUSH5 0xFFFFFFFFFF DUP3 GT ISZERO PUSH2 0xCF3 JUMPI PUSH1 0x0 DUP1 REVERT JUMPDEST PUSH1 0x0 PUSH1 0x1 PUSH1 0x1 PUSH1 0x50 SHL SUB DUP3 GT ISZERO PUSH2 0xCF3 JUMPI PUSH1 0x0 DUP1 REVERT JUMPDEST PUSH1 0x0 PUSH4 0xFFFFFFFF DUP3 GT ISZERO PUSH2 0xCF3 JUMPI PUSH1 0x0 DUP1 REVERT JUMPDEST PUSH1 0x0 DUP1 PUSH1 0x0 PUSH2 0x2703 DUP6 PUSH2 0x30BD JUMP JUMPDEST SWAP2 SWAP5 POP SWAP3 POP SWAP1 POP DUP1 DUP5 GT DUP1 ISZERO PUSH2 0x2719 JUMPI POP PUSH1 0x0 DUP2 GT JUMPDEST DUP1 ISZERO PUSH2 0x2725 JUMPI POP PUSH1 0x0 DUP4 GT JUMPDEST ISZERO PUSH2 0x2784 JUMPI PUSH1 0x0 PUSH2 0x2735 DUP7 PUSH2 0x3119 JUMP JUMPDEST POP POP POP SWAP2 POP POP PUSH1 0x0 PUSH2 0x2760 PUSH2 0x2757 PUSH4 0x5F5E100 DUP5 PUSH2 0x1631 SWAP1 SWAP2 SWAP1 PUSH4 0xFFFFFFFF AND JUMP JUMPDEST DUP5 DUP9 SUB DUP8 PUSH2 0x3185 JUMP JUMPDEST SWAP1 POP PUSH2 0x276C DUP5 DUP3 PUSH2 0xC46 JUMP JUMPDEST SWAP4 POP PUSH1 0x1 PUSH1 0x1 PUSH1 0x80 SHL SUB DUP5 LT PUSH2 0x2781 JUMPI PUSH1 0x0 DUP1 REVERT JUMPDEST POP POP JUMPDEST SWAP3 POP SWAP3 POP SWAP3 JUMP JUMPDEST PUSH1 0x0 DUP1 PUSH2 0xC40 PUSH1 0x11 PUSH2 0x10B0 JUMP JUMPDEST DUP2 DUP2 ADD DUP3 DUP2 SLT ISZERO PUSH1 0x0 DUP4 SLT ISZERO EQ PUSH2 0xC40 JUMPI PUSH1 0x0 DUP1 REVERT JUMPDEST PUSH1 0x60 PUSH2 0xDAE DUP5 DUP5 PUSH1 0x0 DUP6 PUSH2 0x31AD JUMP JUMPDEST PUSH1 0x0 DUP1 PUSH2 0x27C9 DUP4 PUSH2 0xC01 JUMP JUMPDEST PUSH1 0x1 PUSH1 0x1 PUSH1 0xA0 SHL SUB AND PUSH4 0xEF81F216 PUSH1 0x40 MLOAD DUP2 PUSH4 0xFFFFFFFF AND PUSH1 0xE0 SHL DUP2 MSTORE PUSH1 0x4 ADD PUSH1 0x40 DUP1 MLOAD DUP1 DUP4 SUB DUP2 PUSH1 0x0 DUP8 DUP1 EXTCODESIZE ISZERO DUP1 ISZERO PUSH2 0x2802 JUMPI PUSH1 0x0 DUP1 REVERT JUMPDEST POP GAS CALL ISZERO DUP1 ISZERO PUSH2 0x2816 JUMPI RETURNDATASIZE PUSH1 0x0 DUP1 RETURNDATACOPY RETURNDATASIZE PUSH1 0x0 REVERT JUMPDEST POP POP POP POP PUSH1 0x40 MLOAD RETURNDATASIZE PUSH1 0x1F NOT PUSH1 0x1F DUP3 ADD AND DUP3 ADD DUP1 PUSH1 0x40 MSTORE POP DUP2 ADD SWAP1 PUSH2 0xDAE SWAP2 SWAP1 PUSH2 0x41C3 JUMP JUMPDEST PUSH2 0x2842 PUSH2 0x3A5D JUMP JUMPDEST PUSH1 0x0 DUP1 PUSH1 0x0 PUSH2 0x2852 DUP9 DUP7 DUP10 PUSH2 0x3308 JUMP JUMPDEST PUSH1 0xC0 DUP12 ADD SWAP3 SWAP1 SWAP3 MSTORE PUSH1 0xE0 DUP11 ADD SWAP3 SWAP1 SWAP3 MSTORE PUSH1 0x20 DUP10 ADD MLOAD SWAP2 SWAP4 POP SWAP2 POP PUSH2 0x2876 SWAP1 DUP4 PUSH2 0xC46 JUMP JUMPDEST PUSH1 0x20 DUP9 ADD MSTORE PUSH1 0x80 DUP8 ADD MLOAD PUSH1 0x0 SWAP1 ISZERO PUSH2 0x28A4 JUMPI PUSH1 0x80 DUP9 ADD MLOAD PUSH2 0x28A1 SWAP1 PUSH2 0x289B DUP10 DUP3 PUSH2 0x1040 JUMP JUMPDEST SWAP1 PUSH2 0x3413 JUMP JUMPDEST SWAP1 POP JUMPDEST PUSH2 0x28C4 PUSH2 0x28B9 PUSH8 0xDE0B6B3A7640000 DUP4 PUSH2 0xC46 JUMP JUMPDEST PUSH1 0xA0 DUP11 ADD MLOAD SWAP1 PUSH2 0x3430 JUMP JUMPDEST PUSH1 0xA0 DUP10 ADD MSTORE POP PUSH1 0x80 DUP8 ADD DUP7 SWAP1 MSTORE PUSH1 0x0 PUSH2 0x28DB PUSH2 0x1033 JUMP JUMPDEST PUSH2 0xFFFF DUP11 AND PUSH1 0x0 SWAP1 DUP2 MSTORE PUSH1 0x20 SWAP2 SWAP1 SWAP2 MSTORE PUSH1 0x40 SWAP1 KECCAK256 SLOAD DUP9 MLOAD PUSH4 0xFFFFFFFF PUSH1 0x1 PUSH1 0xA0 SHL SWAP1 SWAP3 DIV DUP3 AND SWAP3 POP PUSH2 0x2926 SWAP2 PUSH2 0x2915 SWAP1 DUP6 SWAP1 DUP6 SWAP1 PUSH2 0xC46 AND JUMP JUMPDEST DUP11 PUSH1 0x60 ADD MLOAD DUP12 PUSH2 0x100 ADD MLOAD DUP11 PUSH2 0x344D JUMP JUMPDEST PUSH1 0x60 DUP10 ADD MSTORE POP POP SWAP3 DUP6 MSTORE POP SWAP3 SWAP5 SWAP1 SWAP4 POP SWAP2 POP POP JUMP JUMPDEST PUSH1 0x0 PUSH2 0x2945 PUSH2 0x1D5A JUMP JUMPDEST PUSH1 0x0 DUP6 PUSH2 0xFFFF AND DUP2 MSTORE PUSH1 0x20 ADD SWAP1 DUP2 MSTORE PUSH1 0x20 ADD PUSH1 0x0 KECCAK256 SWAP1 POP PUSH2 0x2969 DUP3 PUSH1 0x0 ADD MLOAD PUSH2 0x26B8 JUMP JUMPDEST DUP2 SLOAD PUSH5 0xFFFFFFFFFF NOT AND PUSH5 0xFFFFFFFFFF SWAP2 SWAP1 SWAP2 AND OR DUP2 SSTORE PUSH1 0xA0 DUP3 ADD MLOAD PUSH2 0x298E SWAP1 PUSH2 0x26CC JUMP JUMPDEST PUSH1 0x2 DUP3 ADD DUP1 SLOAD PUSH10 0xFFFFFFFFFFFFFFFFFFFF NOT AND PUSH1 0x1 PUSH1 0x1 PUSH1 0x50 SHL SUB SWAP3 SWAP1 SWAP3 AND SWAP2 SWAP1 SWAP2 OR SWAP1 SSTORE PUSH1 0xC0 DUP3 ADD MLOAD PUSH2 0x29C1 SWAP1 PUSH2 0x26CC JUMP JUMPDEST DUP2 PUSH1 0x2 ADD PUSH1 0xA PUSH2 0x100 EXP DUP2 SLOAD DUP2 PUSH1 0x1 PUSH1 0x1 PUSH1 0x50 SHL SUB MUL NOT AND SWAP1 DUP4 PUSH1 0x1 PUSH1 0x1 PUSH1 0x50 SHL SUB AND MUL OR SWAP1 SSTORE POP PUSH2 0x29F6 DUP3 PUSH1 0xE0 ADD MLOAD PUSH2 0x26CC JUMP JUMPDEST DUP2 PUSH1 0x2 ADD PUSH1 0x14 PUSH2 0x100 EXP DUP2 SLOAD DUP2 PUSH1 0x1 PUSH1 0x1 PUSH1 0x50 SHL SUB MUL NOT AND SWAP1 DUP4 PUSH1 0x1 PUSH1 0x1 PUSH1 0x50 SHL SUB AND MUL OR SWAP1 SSTORE POP PUSH2 0x2A2B DUP3 PUSH1 0x20 ADD MLOAD PUSH2 0x34DB JUMP JUMPDEST DUP2 SLOAD PUSH1 0x1 PUSH1 0x1 PUSH1 0x58 SHL SUB SWAP2 SWAP1 SWAP2 AND PUSH1 0x1 PUSH1 0x28 SHL MUL PUSH16 0xFFFFFFFFFFFFFFFFFFFFFF0000000000 NOT SWAP1 SWAP2 AND OR DUP2 SSTORE PUSH1 0x40 DUP3 ADD MLOAD PUSH2 0x2A65 SWAP1 PUSH2 0x34DB JUMP JUMPDEST PUSH1 0x1 DUP3 ADD DUP1 SLOAD PUSH11 0xFFFFFFFFFFFFFFFFFFFFFF NOT AND PUSH1 0x1 PUSH1 0x1 PUSH1 0x58 SHL SUB SWAP3 SWAP1 SWAP3 AND SWAP2 SWAP1 SWAP2 OR SWAP1 SSTORE PUSH1 0x80 DUP3 ADD MLOAD PUSH2 0x2A99 SWAP1 PUSH2 0x34DB JUMP JUMPDEST DUP2 SLOAD PUSH1 0x1 PUSH1 0x1 PUSH1 0x58 SHL SUB SWAP2 SWAP1 SWAP2 AND PUSH1 0x1 PUSH1 0x80 SHL MUL PUSH11 0xFFFFFFFFFFFFFFFFFFFFFF PUSH1 0x80 SHL NOT SWAP1 SWAP2 AND OR DUP2 SSTORE PUSH1 0x60 DUP3 ADD MLOAD PUSH2 0x2AD1 SWAP1 PUSH2 0x26E2 JUMP JUMPDEST DUP2 SLOAD PUSH4 0xFFFFFFFF SWAP2 SWAP1 SWAP2 AND PUSH1 0x1 PUSH1 0xD8 SHL MUL PUSH4 0xFFFFFFFF PUSH1 0xD8 SHL NOT SWAP1 SWAP2 AND OR DUP2 SSTORE DUP3 ISZERO PUSH2 0x2B1D JUMPI PUSH1 0x0 PUSH2 0x2B02 DUP5 PUSH2 0xCDD JUMP JUMPDEST SWAP1 POP PUSH2 0x2B0E DUP6 DUP3 PUSH2 0x34F1 JUMP JUMPDEST PUSH2 0x2B1B PUSH2 0xFEE DUP7 DUP4 PUSH2 0x1153 JUMP JUMPDEST POP JUMPDEST DUP4 PUSH2 0xFFFF AND PUSH32 0xEF25641E225E493886510CA1AD6584FA7B442B9FEA820A29D1DE3CE27D270FD2 DUP4 PUSH1 0xA0 ADD MLOAD DUP5 PUSH1 0xC0 ADD MLOAD DUP6 PUSH1 0xE0 ADD MLOAD PUSH1 0x40 MLOAD PUSH2 0x2B61 SWAP4 SWAP3 SWAP2 SWAP1 PUSH2 0x456C JUMP JUMPDEST PUSH1 0x40 MLOAD DUP1 SWAP2 SUB SWAP1 LOG2 POP POP POP POP JUMP JUMPDEST PUSH2 0x2B77 PUSH2 0x3AA9 JUMP JUMPDEST PUSH1 0x0 PUSH2 0x2B81 PUSH2 0x3528 JUMP JUMPDEST PUSH1 0x0 DUP6 DUP2 MSTORE PUSH1 0x20 DUP3 DUP2 MSTORE PUSH1 0x40 DUP1 DUP4 KECCAK256 DUP8 ISZERO ISZERO DUP5 MSTORE DUP3 MSTORE SWAP2 DUP3 SWAP1 KECCAK256 DUP3 MLOAD PUSH1 0xA0 DUP2 ADD DUP5 MSTORE DUP2 SLOAD PUSH1 0x1 PUSH1 0x1 PUSH1 0xA0 SHL SUB DUP2 AND DUP3 MSTORE PUSH1 0xFF PUSH1 0x1 PUSH1 0xA0 SHL DUP3 DIV DUP2 AND ISZERO ISZERO SWAP5 DUP4 ADD SWAP5 SWAP1 SWAP5 MSTORE PUSH1 0x1 PUSH1 0xB0 SHL DUP2 DIV DUP5 AND PUSH1 0xA EXP SWAP5 DUP3 ADD SWAP5 SWAP1 SWAP5 MSTORE SWAP4 SWAP5 POP SWAP3 SWAP2 PUSH1 0x60 DUP4 ADD SWAP2 PUSH1 0x1 PUSH1 0xA8 SHL SWAP1 SWAP2 DIV AND PUSH1 0x5 DUP2 GT ISZERO PUSH2 0x2BF6 JUMPI INVALID JUMPDEST DUP2 MSTORE PUSH1 0x0 PUSH1 0x20 SWAP1 SWAP2 ADD MSTORE SWAP6 SWAP5 POP POP POP POP POP JUMP JUMPDEST PUSH1 0x0 DUP2 PUSH1 0x0 NOT EQ DUP1 ISZERO PUSH2 0x2C1F JUMPI POP PUSH1 0x1 PUSH1 0xFF SHL DUP4 EQ JUMPDEST ISZERO PUSH2 0x2C29 JUMPI PUSH1 0x0 DUP1 REVERT JUMPDEST DUP2 DUP4 DUP2 PUSH2 0x2C32 JUMPI INVALID JUMPDEST SDIV SWAP4 SWAP3 POP POP POP JUMP JUMPDEST PUSH1 0x0 DUP1 PUSH2 0xC40 PUSH1 0x26 PUSH2 0x10B0 JUMP JUMPDEST PUSH1 0x0 PUSH2 0x2C51 PUSH2 0x3AF2 JUMP JUMPDEST RETURNDATASIZE DUP1 ISZERO PUSH2 0x2C65 JUMPI PUSH1 0x20 DUP2 EQ PUSH2 0x2C6E JUMPI PUSH1 0x0 DUP1 REVERT JUMPDEST PUSH1 0x1 SWAP3 POP PUSH2 0x2C79 JUMP JUMPDEST PUSH1 0x20 PUSH1 0x0 DUP4 RETURNDATACOPY DUP2 MLOAD SWAP3 POP JUMPDEST POP DUP2 PUSH2 0x444 JUMPI PUSH1 0x40 DUP1 MLOAD PUSH3 0x461BCD PUSH1 0xE5 SHL DUP2 MSTORE PUSH1 0x20 PUSH1 0x4 DUP3 ADD MSTORE PUSH1 0x5 PUSH1 0x24 DUP3 ADD MSTORE PUSH5 0x455243323 PUSH1 0xDC SHL PUSH1 0x44 DUP3 ADD MSTORE SWAP1 MLOAD SWAP1 DUP2 SWAP1 SUB PUSH1 0x64 ADD SWAP1 REVERT JUMPDEST PUSH1 0x0 PUSH4 0x5F5E100 DUP4 PUSH1 0x40 ADD MLOAD EQ ISZERO PUSH2 0x2CCD JUMPI POP DUP1 PUSH2 0xC40 JUMP JUMPDEST PUSH1 0x40 DUP4 ADD MLOAD PUSH2 0xC58 SWAP1 PUSH2 0x1AA6 DUP5 PUSH4 0x5F5E100 PUSH2 0x1A19 JUMP JUMPDEST DUP2 MLOAD PUSH1 0x0 SWAP1 PUSH2 0xC58 SWAP1 PUSH2 0x1AA6 DUP5 PUSH15 0xC097CE7BC90715B34B9F1000000000 PUSH2 0x1A19 JUMP JUMPDEST PUSH1 0x0 PUSH2 0x2D10 PUSH2 0x1D5A JUMP JUMPDEST PUSH2 0xFFFF DUP6 AND PUSH1 0x0 SWAP1 DUP2 MSTORE PUSH1 0x20 SWAP2 SWAP1 SWAP2 MSTORE PUSH1 0x40 SWAP1 KECCAK256 DUP1 SLOAD SWAP1 SWAP2 POP PUSH5 0xFFFFFFFFFF AND TIMESTAMP EQ PUSH2 0x2D3B JUMPI PUSH1 0x0 DUP1 REVERT JUMPDEST DUP1 SLOAD PUSH1 0x0 SWAP1 PUSH2 0x2D5A SWAP1 PUSH1 0x1 PUSH1 0x28 SHL SWAP1 DIV PUSH1 0x1 PUSH1 0x1 PUSH1 0x58 SHL SUB AND DUP6 PUSH2 0x2798 JUMP JUMPDEST DUP3 SLOAD SWAP1 SWAP2 POP PUSH1 0x0 SWAP1 PUSH2 0x2D7C SWAP1 PUSH1 0x1 PUSH1 0x80 SHL SWAP1 DIV PUSH1 0x1 PUSH1 0x1 PUSH1 0x58 SHL SUB AND DUP6 PUSH2 0x2798 JUMP JUMPDEST SWAP1 POP PUSH2 0x2D8F PUSH2 0x2D8A DUP3 PUSH2 0x3535 JUMP JUMPDEST PUSH2 0x34DB JUMP JUMPDEST DUP4 SLOAD PUSH1 0x1 PUSH1 0x1 PUSH1 0x58 SHL SUB SWAP2 SWAP1 SWAP2 AND PUSH1 0x1 PUSH1 0x80 SHL MUL PUSH11 0xFFFFFFFFFFFFFFFFFFFFFF PUSH1 0x80 SHL NOT SWAP1 SWAP2 AND OR DUP4 SSTORE PUSH2 0x2DC5 PUSH2 0x2D8A DUP4 PUSH2 0x3535 JUMP JUMPDEST DUP4 SLOAD PUSH1 0x1 PUSH1 0x1 PUSH1 0x58 SHL SUB SWAP2 SWAP1 SWAP2 AND PUSH1 0x1 PUSH1 0x28 SHL MUL PUSH16 0xFFFFFFFFFFFFFFFFFFFFFF0000000000 NOT SWAP1 SWAP2 AND OR SWAP1 SWAP3 SSTORE POP POP POP POP POP JUMP JUMPDEST PUSH1 0x0 PUSH2 0x2E03 PUSH2 0x2C3A JUMP JUMPDEST PUSH1 0x1 PUSH1 0x1 PUSH1 0xA0 SHL SUB DUP5 AND PUSH1 0x0 SWAP1 DUP2 MSTORE PUSH1 0x20 DUP3 SWAP1 MSTORE PUSH1 0x40 SWAP1 KECCAK256 SLOAD SWAP1 SWAP2 POP PUSH2 0x2E31 PUSH2 0x2E2C DUP3 DUP6 PUSH2 0x2798 JUMP JUMPDEST PUSH2 0x3535 JUMP JUMPDEST PUSH1 0x1 PUSH1 0x1 PUSH1 0xA0 SHL SUB SWAP1 SWAP5 AND PUSH1 0x0 SWAP1 DUP2 MSTORE PUSH1 0x20 SWAP3 SWAP1 SWAP3 MSTORE POP PUSH1 0x40 SWAP1 KECCAK256 SWAP2 SWAP1 SWAP2 SSTORE POP JUMP JUMPDEST PUSH1 0x0 PUSH1 0x3 DUP4 PUSH1 0x60 ADD MLOAD PUSH1 0x5 DUP2 GT ISZERO PUSH2 0x2E67 JUMPI INVALID JUMPDEST EQ ISZERO PUSH2 0x2E7E JUMPI POP PUSH1 0x1 PUSH1 0x1 PUSH1 0xA0 SHL SUB DUP2 AND BALANCE PUSH2 0xC40 JUMP JUMPDEST DUP3 MLOAD PUSH1 0x40 MLOAD PUSH4 0x70A08231 PUSH1 0xE0 SHL DUP2 MSTORE PUSH1 0x1 PUSH1 0x1 PUSH1 0xA0 SHL SUB SWAP1 SWAP2 AND SWAP1 PUSH4 0x70A08231 SWAP1 PUSH2 0x2EAD SWAP1 DUP6 SWAP1 PUSH1 0x4 ADD PUSH2 0x423A JUMP JUMPDEST PUSH1 0x20 PUSH1 0x40 MLOAD DUP1 DUP4 SUB DUP2 DUP7 DUP1 EXTCODESIZE ISZERO DUP1 ISZERO PUSH2 0x2EC5 JUMPI PUSH1 0x0 DUP1 REVERT JUMPDEST POP GAS STATICCALL ISZERO DUP1 ISZERO PUSH2 0x2ED9 JUMPI RETURNDATASIZE PUSH1 0x0 DUP1 RETURNDATACOPY RETURNDATASIZE PUSH1 0x0 REVERT JUMPDEST POP POP POP POP PUSH1 0x40 MLOAD RETURNDATASIZE PUSH1 0x1F NOT PUSH1 0x1F DUP3 ADD AND DUP3 ADD DUP1 PUSH1 0x40 MSTORE POP DUP2 ADD SWAP1 PUSH2 0x2EFD SWAP2 SWAP1 PUSH2 0x41AB JUMP JUMPDEST SWAP1 POP PUSH2 0xC40 JUMP JUMPDEST PUSH1 0x0 DUP1 DUP5 PUSH1 0x1 PUSH1 0x1 PUSH1 0xA0 SHL SUB AND DUP5 DUP5 PUSH1 0x40 MLOAD DUP1 DUP3 DUP1 MLOAD SWAP1 PUSH1 0x20 ADD SWAP1 DUP1 DUP4 DUP4 JUMPDEST PUSH1 0x20 DUP4 LT PUSH2 0x2F42 JUMPI DUP1 MLOAD DUP3 MSTORE PUSH1 0x1F NOT SWAP1 SWAP3 ADD SWAP2 PUSH1 0x20 SWAP2 DUP3 ADD SWAP2 ADD PUSH2 0x2F23 JUMP JUMPDEST PUSH1 0x1 DUP4 PUSH1 0x20 SUB PUSH2 0x100 EXP SUB DUP1 NOT DUP3 MLOAD AND DUP2 DUP5 MLOAD AND DUP1 DUP3 OR DUP6 MSTORE POP POP POP POP POP POP SWAP1 POP ADD SWAP2 POP POP PUSH1 0x0 PUSH1 0x40 MLOAD DUP1 DUP4 SUB DUP2 DUP6 DUP8 GAS CALL SWAP3 POP POP POP RETURNDATASIZE DUP1 PUSH1 0x0 DUP2 EQ PUSH2 0x2FA4 JUMPI PUSH1 0x40 MLOAD SWAP2 POP PUSH1 0x1F NOT PUSH1 0x3F RETURNDATASIZE ADD AND DUP3 ADD PUSH1 0x40 MSTORE RETURNDATASIZE DUP3 MSTORE RETURNDATASIZE PUSH1 0x0 PUSH1 0x20 DUP5 ADD RETURNDATACOPY PUSH2 0x2FA9 JUMP JUMPDEST PUSH1 0x60 SWAP2 POP JUMPDEST POP SWAP2 POP SWAP2 POP DUP2 PUSH2 0x2FB8 DUP3 PUSH2 0x3544 JUMP JUMPDEST SWAP1 PUSH2 0x3041 JUMPI PUSH1 0x40 MLOAD PUSH3 0x461BCD PUSH1 0xE5 SHL DUP2 MSTORE PUSH1 0x4 ADD DUP1 DUP1 PUSH1 0x20 ADD DUP3 DUP2 SUB DUP3 MSTORE DUP4 DUP2 DUP2 MLOAD DUP2 MSTORE PUSH1 0x20 ADD SWAP2 POP DUP1 MLOAD SWAP1 PUSH1 0x20 ADD SWAP1 DUP1 DUP4 DUP4 PUSH1 0x0 JUMPDEST DUP4 DUP2 LT ISZERO PUSH2 0x3006 JUMPI DUP2 DUP2 ADD MLOAD DUP4 DUP3 ADD MSTORE PUSH1 0x20 ADD PUSH2 0x2FEE JUMP JUMPDEST POP POP POP POP SWAP1 POP SWAP1 DUP2 ADD SWAP1 PUSH1 0x1F AND DUP1 ISZERO PUSH2 0x3033 JUMPI DUP1 DUP3 SUB DUP1 MLOAD PUSH1 0x1 DUP4 PUSH1 0x20 SUB PUSH2 0x100 EXP SUB NOT AND DUP2 MSTORE PUSH1 0x20 ADD SWAP2 POP JUMPDEST POP SWAP3 POP POP POP PUSH1 0x40 MLOAD DUP1 SWAP2 SUB SWAP1 REVERT JUMPDEST POP POP POP POP POP POP JUMP JUMPDEST PUSH1 0x0 PUSH2 0x3053 PUSH2 0x2C3A JUMP JUMPDEST PUSH1 0x1 PUSH1 0x1 PUSH1 0xA0 SHL SUB DUP6 AND PUSH1 0x0 SWAP1 DUP2 MSTORE PUSH1 0x20 DUP3 SWAP1 MSTORE PUSH1 0x40 SWAP1 KECCAK256 SLOAD SWAP1 SWAP2 POP DUP4 DUP2 GT ISZERO PUSH2 0x307C JUMPI PUSH1 0x0 DUP1 REVERT JUMPDEST PUSH1 0x0 PUSH2 0x308A PUSH2 0x160A DUP7 PUSH2 0xCDD JUMP JUMPDEST SWAP1 POP PUSH2 0x3099 PUSH2 0x2E2C DUP4 DUP4 PUSH2 0x2798 JUMP JUMPDEST PUSH1 0x1 PUSH1 0x1 PUSH1 0xA0 SHL SUB SWAP1 SWAP7 AND PUSH1 0x0 SWAP1 DUP2 MSTORE PUSH1 0x20 SWAP4 SWAP1 SWAP4 MSTORE POP POP PUSH1 0x40 SWAP1 KECCAK256 SWAP3 SWAP1 SWAP3 SSTORE POP POP JUMP JUMPDEST PUSH1 0x0 DUP1 PUSH1 0x0 DUP1 PUSH2 0x30CB PUSH2 0x278B JUMP JUMPDEST PUSH1 0x1 PUSH1 0x1 PUSH1 0xA0 SHL SUB SWAP6 SWAP1 SWAP6 AND PUSH1 0x0 SWAP1 DUP2 MSTORE PUSH1 0x20 SWAP6 SWAP1 SWAP6 MSTORE POP POP PUSH1 0x40 SWAP1 SWAP3 KECCAK256 SLOAD PUSH1 0x1 PUSH1 0x1 PUSH1 0x60 SHL SUB DUP2 AND SWAP4 PUSH1 0x1 PUSH1 0x60 SHL DUP3 DIV PUSH1 0x1 PUSH1 0x1 PUSH1 0x80 SHL SUB AND SWAP4 POP PUSH1 0x1 PUSH1 0xE0 SHL SWAP1 SWAP2 DIV PUSH4 0xFFFFFFFF AND SWAP2 POP JUMP JUMPDEST PUSH1 0x0 DUP1 PUSH1 0x0 DUP1 PUSH1 0x0 DUP1 PUSH2 0x312A PUSH2 0x1835 JUMP JUMPDEST PUSH1 0x1 PUSH1 0x1 PUSH1 0xA0 SHL SUB SWAP1 SWAP8 AND PUSH1 0x0 SWAP1 DUP2 MSTORE PUSH1 0x20 SWAP8 SWAP1 SWAP8 MSTORE POP POP PUSH1 0x40 SWAP1 SWAP5 KECCAK256 SLOAD PUSH2 0xFFFF DUP2 AND SWAP6 PUSH4 0xFFFFFFFF PUSH3 0x10000 DUP4 DIV DUP2 AND SWAP7 POP PUSH7 0x1000000000000 DUP4 DIV AND SWAP5 POP PUSH1 0xFF PUSH1 0x1 PUSH1 0x50 SHL DUP4 DIV AND SWAP4 POP PUSH1 0x1 PUSH1 0x58 SHL SWAP1 SWAP2 DIV PUSH1 0xD8 SHL SWAP2 POP JUMP JUMPDEST PUSH1 0x0 PUSH2 0xDAE DUP3 PUSH2 0xF22 PUSH4 0x1DA9C00 DUP2 DUP9 PUSH2 0x31A7 DUP10 PUSH8 0xDE0B6B3A7640000 PUSH2 0x1631 JUMP JUMPDEST SWAP1 PUSH2 0x1631 JUMP JUMPDEST PUSH1 0x60 DUP3 SELFBALANCE LT ISZERO PUSH2 0x31EE JUMPI PUSH1 0x40 MLOAD PUSH3 0x461BCD PUSH1 0xE5 SHL DUP2 MSTORE PUSH1 0x4 ADD DUP1 DUP1 PUSH1 0x20 ADD DUP3 DUP2 SUB DUP3 MSTORE PUSH1 0x26 DUP2 MSTORE PUSH1 0x20 ADD DUP1 PUSH2 0x45D8 PUSH1 0x26 SWAP2 CODECOPY PUSH1 0x40 ADD SWAP2 POP POP PUSH1 0x40 MLOAD DUP1 SWAP2 SUB SWAP1 REVERT JUMPDEST PUSH2 0x31F7 DUP6 PUSH2 0x3649 JUMP JUMPDEST PUSH2 0x3248 JUMPI PUSH1 0x40 DUP1 MLOAD PUSH3 0x461BCD PUSH1 0xE5 SHL DUP2 MSTORE PUSH1 0x20 PUSH1 0x4 DUP3 ADD MSTORE PUSH1 0x1D PUSH1 0x24 DUP3 ADD MSTORE PUSH32 0x416464726573733A2063616C6C20746F206E6F6E2D636F6E7472616374000000 PUSH1 0x44 DUP3 ADD MSTORE SWAP1 MLOAD SWAP1 DUP2 SWAP1 SUB PUSH1 0x64 ADD SWAP1 REVERT JUMPDEST PUSH1 0x0 DUP1 DUP7 PUSH1 0x1 PUSH1 0x1 PUSH1 0xA0 SHL SUB AND DUP6 DUP8 PUSH1 0x40 MLOAD DUP1 DUP3 DUP1 MLOAD SWAP1 PUSH1 0x20 ADD SWAP1 DUP1 DUP4 DUP4 JUMPDEST PUSH1 0x20 DUP4 LT PUSH2 0x3286 JUMPI DUP1 MLOAD DUP3 MSTORE PUSH1 0x1F NOT SWAP1 SWAP3 ADD SWAP2 PUSH1 0x20 SWAP2 DUP3 ADD SWAP2 ADD PUSH2 0x3267 JUMP JUMPDEST PUSH1 0x1 DUP4 PUSH1 0x20 SUB PUSH2 0x100 EXP SUB DUP1 NOT DUP3 MLOAD AND DUP2 DUP5 MLOAD AND DUP1 DUP3 OR DUP6 MSTORE POP POP POP POP POP POP SWAP1 POP ADD SWAP2 POP POP PUSH1 0x0 PUSH1 0x40 MLOAD DUP1 DUP4 SUB DUP2 DUP6 DUP8 GAS CALL SWAP3 POP POP POP RETURNDATASIZE DUP1 PUSH1 0x0 DUP2 EQ PUSH2 0x32E8 JUMPI PUSH1 0x40 MLOAD SWAP2 POP PUSH1 0x1F NOT PUSH1 0x3F RETURNDATASIZE ADD AND DUP3 ADD PUSH1 0x40 MSTORE RETURNDATASIZE DUP3 MSTORE RETURNDATASIZE PUSH1 0x0 PUSH1 0x20 DUP5 ADD RETURNDATACOPY PUSH2 0x32ED JUMP JUMPDEST PUSH1 0x60 SWAP2 POP JUMPDEST POP SWAP2 POP SWAP2 POP PUSH2 0x32FD DUP3 DUP3 DUP7 PUSH2 0x364F JUMP JUMPDEST SWAP8 SWAP7 POP POP POP POP POP POP POP JUMP JUMPDEST PUSH1 0x0 DUP1 PUSH1 0x0 DUP1 PUSH1 0x0 DUP1 PUSH2 0x331B DUP10 DUP9 PUSH2 0x36B5 JUMP JUMPDEST DUP10 MLOAD SWAP1 SWAP6 POP SWAP2 SWAP4 POP SWAP2 POP PUSH1 0x0 SWAP1 PUSH2 0x3342 SWAP1 PUSH2 0x3337 SWAP1 DUP12 SWAP1 PUSH2 0x1040 JUMP JUMPDEST PUSH4 0x3B9ACA00 SWAP1 PUSH2 0x1631 JUMP JUMPDEST SWAP1 POP PUSH2 0x337C PUSH2 0x3371 PUSH4 0x1DA9C00 PUSH2 0x3359 DUP6 DUP6 PUSH2 0x1631 JUMP JUMPDEST DUP2 PUSH2 0x3360 JUMPI INVALID JUMPDEST PUSH8 0xDE0B6B3A7640000 SWAP2 SWAP1 DIV PUSH2 0xC46 JUMP JUMPDEST PUSH1 0xE0 DUP11 ADD MLOAD SWAP1 PUSH2 0x3430 JUMP JUMPDEST SWAP7 POP PUSH2 0x339E PUSH2 0x3393 PUSH4 0x1DA9C00 PUSH2 0x3359 DUP8 DUP6 PUSH2 0x1631 JUMP JUMPDEST PUSH1 0xC0 DUP11 ADD MLOAD SWAP1 PUSH2 0x3430 JUMP JUMPDEST SWAP6 POP DUP2 DUP4 EQ ISZERO PUSH2 0x33B5 JUMPI POP PUSH1 0x0 SWAP4 POP PUSH2 0x340A SWAP2 POP POP JUMP JUMPDEST PUSH1 0x0 PUSH2 0x33D7 PUSH2 0x33CC PUSH4 0x1DA9C00 PUSH2 0x3359 DUP8 DUP7 PUSH2 0x1631 JUMP JUMPDEST PUSH1 0xE0 DUP12 ADD MLOAD SWAP1 PUSH2 0x3430 JUMP JUMPDEST SWAP1 POP PUSH1 0x0 PUSH2 0x33E5 DUP10 DUP4 PUSH2 0x1040 JUMP JUMPDEST SWAP1 POP PUSH2 0x3402 DUP9 PUSH2 0xF22 DUP4 DUP14 PUSH1 0x40 ADD MLOAD PUSH2 0x1631 SWAP1 SWAP2 SWAP1 PUSH4 0xFFFFFFFF AND JUMP JUMPDEST SWAP7 POP POP POP POP POP POP JUMPDEST SWAP4 POP SWAP4 POP SWAP4 POP SWAP4 JUMP JUMPDEST PUSH1 0x0 PUSH2 0xC58 PUSH2 0x342A DUP5 PUSH8 0xDE0B6B3A7640000 PUSH2 0x1631 JUMP JUMPDEST DUP4 PUSH2 0x1658 JUMP JUMPDEST PUSH1 0x0 PUSH2 0xC58 PUSH2 0x343F DUP5 DUP5 PUSH2 0x1631 JUMP JUMPDEST PUSH8 0xDE0B6B3A7640000 PUSH2 0x1658 JUMP JUMPDEST PUSH1 0x0 DUP1 DUP4 GT PUSH2 0x345B JUMPI PUSH1 0x0 DUP1 REVERT JUMPDEST DUP2 DUP7 GT ISZERO PUSH2 0x346A JUMPI POP DUP4 PUSH2 0x1350 JUMP JUMPDEST PUSH1 0x0 PUSH2 0x3476 DUP4 DUP9 PUSH2 0x1040 JUMP JUMPDEST SWAP1 POP DUP4 DUP2 GT ISZERO PUSH2 0x3489 JUMPI DUP6 SWAP2 POP POP PUSH2 0x1350 JUMP JUMPDEST PUSH1 0x0 PUSH2 0x3495 DUP3 DUP7 PUSH2 0x374F JUMP JUMPDEST SWAP1 POP PUSH1 0x0 PUSH2 0x34A7 PUSH4 0x3B9ACA00 DUP4 PUSH2 0x1040 JUMP JUMPDEST SWAP1 POP PUSH2 0x34CE PUSH4 0x3B9ACA00 PUSH2 0xF22 PUSH2 0x34BE DUP11 DUP6 PUSH2 0x1631 JUMP JUMPDEST PUSH2 0x34C8 DUP13 DUP8 PUSH2 0x1631 JUMP JUMPDEST SWAP1 PUSH2 0xC46 JUMP JUMPDEST SWAP10 SWAP9 POP POP POP POP POP POP POP POP POP JUMP JUMPDEST PUSH1 0x0 PUSH1 0x1 PUSH1 0x1 PUSH1 0x58 SHL SUB DUP3 GT ISZERO PUSH2 0xCF3 JUMPI PUSH1 0x0 DUP1 REVERT JUMPDEST PUSH1 0x0 DUP2 SLT ISZERO PUSH2 0x34FF JUMPI PUSH1 0x0 DUP1 REVERT JUMPDEST PUSH1 0x0 PUSH2 0x350D PUSH2 0xFEE DUP5 PUSH2 0xCF7 JUMP JUMPDEST SWAP1 POP PUSH2 0x3519 DUP2 DUP4 PUSH2 0x2798 JUMP JUMPDEST SWAP1 POP PUSH2 0x76B PUSH2 0xFEE DUP5 DUP4 PUSH2 0x10C9 JUMP JUMPDEST PUSH1 0x0 DUP1 PUSH2 0xC40 PUSH1 0x7 PUSH2 0x10B0 JUMP JUMPDEST PUSH1 0x0 DUP1 DUP3 SLT ISZERO PUSH2 0xCF3 JUMPI PUSH1 0x0 DUP1 REVERT JUMPDEST PUSH1 0x60 PUSH1 0x44 DUP3 MLOAD LT ISZERO PUSH2 0x357A JUMPI POP PUSH1 0x40 DUP1 MLOAD DUP1 DUP3 ADD SWAP1 SWAP2 MSTORE PUSH1 0xD DUP2 MSTORE PUSH13 0x14DA5B195B9D0814995D995C9D PUSH1 0x9A SHL PUSH1 0x20 DUP3 ADD MSTORE PUSH2 0xC2E JUMP JUMPDEST PUSH1 0x4 DUP3 ADD DUP1 MLOAD SWAP1 SWAP3 PUSH1 0x24 ADD SWAP1 PUSH1 0x20 DUP2 LT ISZERO PUSH2 0x3594 JUMPI PUSH1 0x0 DUP1 REVERT JUMPDEST DUP2 ADD SWAP1 DUP1 DUP1 MLOAD PUSH1 0x40 MLOAD SWAP4 SWAP3 SWAP2 SWAP1 DUP5 PUSH1 0x1 PUSH1 0x20 SHL DUP3 GT ISZERO PUSH2 0x35B3 JUMPI PUSH1 0x0 DUP1 REVERT JUMPDEST SWAP1 DUP4 ADD SWAP1 PUSH1 0x20 DUP3 ADD DUP6 DUP2 GT ISZERO PUSH2 0x35C8 JUMPI PUSH1 0x0 DUP1 REVERT JUMPDEST DUP3 MLOAD PUSH1 0x1 PUSH1 0x20 SHL DUP2 GT DUP3 DUP3 ADD DUP9 LT OR ISZERO PUSH2 0x35E1 JUMPI PUSH1 0x0 DUP1 REVERT JUMPDEST DUP3 MSTORE POP DUP2 MLOAD PUSH1 0x20 SWAP2 DUP3 ADD SWAP3 SWAP1 SWAP2 ADD SWAP1 DUP1 DUP4 DUP4 PUSH1 0x0 JUMPDEST DUP4 DUP2 LT ISZERO PUSH2 0x360E JUMPI DUP2 DUP2 ADD MLOAD DUP4 DUP3 ADD MSTORE PUSH1 0x20 ADD PUSH2 0x35F6 JUMP JUMPDEST POP POP POP POP SWAP1 POP SWAP1 DUP2 ADD SWAP1 PUSH1 0x1F AND DUP1 ISZERO PUSH2 0x363B JUMPI DUP1 DUP3 SUB DUP1 MLOAD PUSH1 0x1 DUP4 PUSH1 0x20 SUB PUSH2 0x100 EXP SUB NOT AND DUP2 MSTORE PUSH1 0x20 ADD SWAP2 POP JUMPDEST POP PUSH1 0x40 MSTORE POP POP POP SWAP1 POP SWAP2 SWAP1 POP JUMP JUMPDEST EXTCODESIZE ISZERO ISZERO SWAP1 JUMP JUMPDEST PUSH1 0x60 DUP4 ISZERO PUSH2 0x365E JUMPI POP DUP2 PUSH2 0xC58 JUMP JUMPDEST DUP3 MLOAD ISZERO PUSH2 0x366E JUMPI DUP3 MLOAD DUP1 DUP5 PUSH1 0x20 ADD REVERT JUMPDEST PUSH1 0x40 MLOAD PUSH3 0x461BCD PUSH1 0xE5 SHL DUP2 MSTORE PUSH1 0x20 PUSH1 0x4 DUP3 ADD DUP2 DUP2 MSTORE DUP5 MLOAD PUSH1 0x24 DUP5 ADD MSTORE DUP5 MLOAD DUP6 SWAP4 SWAP2 SWAP3 DUP4 SWAP3 PUSH1 0x44 ADD SWAP2 SWAP1 DUP6 ADD SWAP1 DUP1 DUP4 DUP4 PUSH1 0x0 DUP4 ISZERO PUSH2 0x3006 JUMPI DUP2 DUP2 ADD MLOAD DUP4 DUP3 ADD MSTORE PUSH1 0x20 ADD PUSH2 0x2FEE JUMP JUMPDEST PUSH1 0x0 DUP1 PUSH1 0x0 DUP1 PUSH1 0x0 DUP6 PUSH1 0x20 ADD MLOAD GT ISZERO PUSH2 0x3702 JUMPI PUSH2 0x36FF PUSH2 0x36E6 DUP7 PUSH1 0xC0 ADD MLOAD DUP8 PUSH1 0x20 ADD MLOAD PUSH2 0x1631 SWAP1 SWAP2 SWAP1 PUSH4 0xFFFFFFFF AND JUMP JUMPDEST PUSH1 0xE0 DUP8 ADD MLOAD PUSH1 0x40 DUP9 ADD MLOAD PUSH2 0x36F9 SWAP2 PUSH2 0x1631 JUMP JUMPDEST SWAP1 PUSH2 0x374F JUMP JUMPDEST SWAP1 POP JUMPDEST PUSH1 0x0 PUSH2 0x370D DUP8 PUSH2 0x3762 JUMP JUMPDEST SWAP1 POP PUSH2 0x3719 DUP2 DUP4 PUSH2 0x3795 JUMP JUMPDEST SWAP5 POP DUP2 ISZERO PUSH2 0x3730 JUMPI PUSH2 0x372D DUP2 DUP7 PUSH1 0x1 PUSH2 0x3848 JUMP JUMPDEST SWAP4 POP JUMPDEST PUSH1 0x20 DUP7 ADD MLOAD ISZERO PUSH2 0x2781 JUMPI PUSH2 0x3744 DUP6 DUP4 PUSH2 0x38C3 JUMP JUMPDEST SWAP3 POP POP POP SWAP3 POP SWAP3 POP SWAP3 JUMP JUMPDEST PUSH1 0x0 PUSH2 0xC58 PUSH2 0x342A DUP5 PUSH4 0x3B9ACA00 PUSH2 0x1631 JUMP JUMPDEST PUSH2 0x376A PUSH2 0x3B10 JUMP JUMPDEST PUSH1 0x0 PUSH2 0x3774 PUSH2 0x38DC JUMP JUMPDEST PUSH2 0xFFFF DUP5 AND PUSH1 0x0 SWAP1 DUP2 MSTORE PUSH1 0x20 SWAP2 SWAP1 SWAP2 MSTORE PUSH1 0x40 DUP2 KECCAK256 SLOAD SWAP2 POP PUSH2 0xC58 SWAP1 DUP3 PUSH2 0x38E9 JUMP JUMPDEST PUSH1 0x0 DUP1 DUP4 PUSH1 0x80 ADD MLOAD GT PUSH2 0x37A7 JUMPI PUSH1 0x0 DUP1 REVERT JUMPDEST PUSH4 0x3B9ACA00 DUP3 GT ISZERO PUSH2 0x37B8 JUMPI PUSH1 0x0 DUP1 REVERT JUMPDEST DUP3 MLOAD DUP3 GT PUSH2 0x37D7 JUMPI DUP3 MLOAD PUSH1 0x40 DUP5 ADD MLOAD PUSH2 0x2EFD SWAP2 SWAP1 PUSH2 0xF22 SWAP1 DUP6 SWAP1 PUSH2 0x1631 JUMP JUMPDEST DUP3 PUSH1 0x20 ADD MLOAD DUP3 GT PUSH2 0x380F JUMPI PUSH1 0x40 DUP4 ADD MLOAD DUP4 MLOAD PUSH1 0x20 DUP6 ADD MLOAD PUSH1 0x60 DUP7 ADD MLOAD PUSH2 0x2EFD SWAP4 SWAP3 PUSH2 0x34C8 SWAP3 DUP2 SWAP1 SUB SWAP2 PUSH2 0xF22 SWAP2 DUP9 SUB SWAP1 DUP6 SWAP1 SUB PUSH2 0x1631 JUMP JUMPDEST PUSH2 0xC58 DUP4 PUSH1 0x60 ADD MLOAD PUSH2 0x34C8 DUP6 PUSH1 0x20 ADD MLOAD PUSH4 0x3B9ACA00 SUB PUSH2 0xF22 DUP8 PUSH1 0x60 ADD MLOAD DUP9 PUSH1 0x80 ADD MLOAD SUB DUP9 PUSH1 0x20 ADD MLOAD DUP9 SUB PUSH2 0x1631 SWAP1 SWAP2 SWAP1 PUSH4 0xFFFFFFFF AND JUMP JUMPDEST PUSH1 0x0 DUP1 PUSH2 0x3867 PUSH1 0x64 PUSH2 0xF22 DUP8 PUSH1 0xE0 ADD MLOAD DUP8 PUSH2 0x1631 SWAP1 SWAP2 SWAP1 PUSH4 0xFFFFFFFF AND JUMP JUMPDEST SWAP1 POP DUP5 PUSH1 0xA0 ADD MLOAD DUP2 LT ISZERO PUSH2 0x387C JUMPI POP PUSH1 0xA0 DUP5 ADD MLOAD JUMPDEST DUP5 PUSH1 0xC0 ADD MLOAD DUP2 GT ISZERO PUSH2 0x388F JUMPI POP PUSH1 0xC0 DUP5 ADD MLOAD JUMPDEST DUP3 ISZERO PUSH2 0x38A6 JUMPI PUSH2 0x389F DUP5 DUP3 PUSH2 0xC46 JUMP JUMPDEST SWAP2 POP PUSH2 0x38BB JUMP JUMPDEST DUP4 DUP2 GT PUSH2 0x38B5 JUMPI DUP1 DUP5 SUB PUSH2 0x38B8 JUMP JUMPDEST PUSH1 0x0 JUMPDEST SWAP2 POP JUMPDEST POP SWAP4 SWAP3 POP POP POP JUMP JUMPDEST PUSH1 0x0 PUSH2 0xC58 PUSH2 0x38D2 DUP5 DUP5 PUSH2 0x1631 JUMP JUMPDEST PUSH4 0x3B9ACA00 PUSH2 0x1658 JUMP JUMPDEST PUSH1 0x0 DUP1 PUSH2 0xC40 PUSH1 0x1B PUSH2 0x10B0 JUMP JUMPDEST PUSH2 0x38F1 PUSH2 0x3B10 JUMP JUMPDEST PUSH1 0x64 PUSH4 0x3B9ACA00 DUP4 PUSH1 0xFF DUP7 AND PUSH1 0x20 DUP2 LT PUSH2 0x3907 JUMPI INVALID JUMPDEST BYTE MUL DUP2 PUSH2 0x3910 JUMPI INVALID JUMPDEST DIV DUP2 MSTORE PUSH1 0x64 PUSH4 0x3B9ACA00 DUP4 PUSH1 0xFF DUP7 AND PUSH1 0x1 ADD PUSH1 0x20 DUP2 LT PUSH2 0x392C JUMPI INVALID JUMPDEST BYTE MUL DUP2 PUSH2 0x3935 JUMPI INVALID JUMPDEST DIV DUP2 PUSH1 0x20 ADD DUP2 DUP2 MSTORE POP POP PUSH2 0x395A DUP3 PUSH1 0x2 DUP6 PUSH1 0xFF AND ADD PUSH1 0x20 DUP2 LT PUSH2 0x3954 JUMPI INVALID JUMPDEST BYTE PUSH2 0x3A08 JUMP JUMPDEST PUSH1 0x80 DUP3 ADD DUP2 SWAP1 MSTORE PUSH2 0x100 SWAP1 DUP4 PUSH1 0xFF DUP7 AND PUSH1 0x3 ADD PUSH1 0x20 DUP2 LT PUSH2 0x3977 JUMPI INVALID JUMPDEST BYTE MUL DUP2 PUSH2 0x3980 JUMPI INVALID JUMPDEST DIV PUSH1 0x40 DUP3 ADD MSTORE PUSH1 0x80 DUP2 ADD MLOAD PUSH2 0x100 SWAP1 DUP4 PUSH1 0xFF DUP7 AND PUSH1 0x4 ADD PUSH1 0x20 DUP2 LT PUSH2 0x39A1 JUMPI INVALID JUMPDEST BYTE MUL DUP2 PUSH2 0x39AA JUMPI INVALID JUMPDEST DIV PUSH1 0x60 DUP3 ADD MSTORE PUSH3 0x7A120 DUP3 PUSH1 0xFF DUP6 AND PUSH1 0x5 ADD PUSH1 0x20 DUP2 LT PUSH2 0x39C6 JUMPI INVALID JUMPDEST BYTE MUL PUSH1 0xA0 DUP3 ADD MSTORE PUSH3 0x2625A0 DUP3 PUSH1 0xFF DUP6 AND PUSH1 0x6 ADD PUSH1 0x20 DUP2 LT PUSH2 0x39E3 JUMPI INVALID JUMPDEST BYTE MUL PUSH1 0xC0 DUP3 ADD MSTORE DUP2 PUSH1 0xFF DUP5 AND PUSH1 0x7 ADD PUSH1 0x20 DUP2 LT PUSH2 0x39FC JUMPI INVALID JUMPDEST BYTE PUSH1 0xE0 DUP3 ADD MSTORE SWAP3 SWAP2 POP POP JUMP JUMPDEST PUSH1 0x0 DUP2 PUSH1 0xFF AND PUSH1 0x96 LT PUSH2 0x3A23 JUMPI PUSH1 0xFF DUP3 AND PUSH3 0x2625A0 MUL PUSH2 0xC40 JUMP JUMPDEST POP PUSH1 0x95 NOT PUSH1 0xFF SWAP2 SWAP1 SWAP2 AND ADD PUSH3 0xE4E1C0 MUL PUSH4 0x165A0BC0 ADD SWAP1 JUMP JUMPDEST PUSH1 0x40 MLOAD DUP1 PUSH1 0x60 ADD PUSH1 0x40 MSTORE DUP1 PUSH1 0x0 DUP2 MSTORE PUSH1 0x20 ADD PUSH1 0x0 DUP2 MSTORE PUSH1 0x20 ADD PUSH1 0x0 DUP2 MSTORE POP SWAP1 JUMP JUMPDEST PUSH1 0x40 MLOAD DUP1 PUSH2 0x120 ADD PUSH1 0x40 MSTORE DUP1 PUSH1 0x0 DUP2 MSTORE PUSH1 0x20 ADD PUSH1 0x0 DUP2 MSTORE PUSH1 0x20 ADD PUSH1 0x0 DUP2 MSTORE PUSH1 0x20 ADD PUSH1 0x0 DUP2 MSTORE PUSH1 0x20 ADD PUSH1 0x0 DUP2 MSTORE PUSH1 0x20 ADD PUSH1 0x0 DUP2 MSTORE PUSH1 0x20 ADD PUSH1 0x0 DUP2 MSTORE PUSH1 0x20 ADD PUSH1 0x0 DUP2 MSTORE PUSH1 0x20 ADD PUSH1 0x0 DUP2 MSTORE POP SWAP1 JUMP JUMPDEST PUSH1 0x40 DUP1 MLOAD PUSH1 0xA0 DUP2 ADD DUP3 MSTORE PUSH1 0x0 DUP1 DUP3 MSTORE PUSH1 0x20 DUP3 ADD DUP2 SWAP1 MSTORE SWAP2 DUP2 ADD DUP3 SWAP1 MSTORE SWAP1 PUSH1 0x60 DUP3 ADD SWAP1 DUP2 MSTORE PUSH1 0x20 ADD PUSH1 0x0 DUP2 MSTORE POP SWAP1 JUMP JUMPDEST PUSH1 0x40 MLOAD DUP1 PUSH1 0x40 ADD PUSH1 0x40 MSTORE DUP1 PUSH1 0x60 DUP2 MSTORE PUSH1 0x20 ADD PUSH1 0x60 DUP2 MSTORE POP SWAP1 JUMP JUMPDEST PUSH1 0x40 MLOAD DUP1 PUSH1 0x20 ADD PUSH1 0x40 MSTORE DUP1 PUSH1 0x1 SWAP1 PUSH1 0x20 DUP3 MUL DUP1 CALLDATASIZE DUP4 CALLDATACOPY POP SWAP2 SWAP3 SWAP2 POP POP JUMP JUMPDEST PUSH1 0x40 MLOAD DUP1 PUSH2 0x100 ADD PUSH1 0x40 MSTORE DUP1 PUSH1 0x0 DUP2 MSTORE PUSH1 0x20 ADD PUSH1 0x0 DUP2 MSTORE PUSH1 0x20 ADD PUSH1 0x0 DUP2 MSTORE PUSH1 0x20 ADD PUSH1 0x0 DUP2 MSTORE PUSH1 0x20 ADD PUSH1 0x0 DUP2 MSTORE PUSH1 0x20 ADD PUSH1 0x0 DUP2 MSTORE PUSH1 0x20 ADD PUSH1 0x0 DUP2 MSTORE PUSH1 0x20 ADD PUSH1 0x0 DUP2 MSTORE POP SWAP1 JUMP JUMPDEST DUP1 MLOAD PUSH2 0xC2E DUP2 PUSH2 0x45C2 JUMP JUMPDEST PUSH1 0x0 DUP1 DUP4 PUSH1 0x1F DUP5 ADD SLT PUSH2 0x3B71 JUMPI DUP2 DUP3 REVERT JUMPDEST POP DUP2 CALLDATALOAD PUSH1 0x1 PUSH1 0x1 PUSH1 0x40 SHL SUB DUP2 GT ISZERO PUSH2 0x3B87 JUMPI DUP2 DUP3 REVERT JUMPDEST PUSH1 0x20 DUP4 ADD SWAP2 POP DUP4 PUSH1 0x20 DUP1 DUP4 MUL DUP6 ADD ADD GT ISZERO PUSH2 0x3BA1 JUMPI PUSH1 0x0 DUP1 REVERT JUMPDEST SWAP3 POP SWAP3 SWAP1 POP JUMP JUMPDEST PUSH1 0x0 DUP3 PUSH1 0x1F DUP4 ADD SLT PUSH2 0x3BB8 JUMPI DUP1 DUP2 REVERT JUMPDEST DUP2 MLOAD PUSH1 0x20 PUSH2 0x3BCD PUSH2 0x3BC8 DUP4 PUSH2 0x45A5 JUMP JUMPDEST PUSH2 0x4582 JUMP JUMPDEST DUP3 DUP2 MSTORE DUP2 DUP2 ADD SWAP1 DUP6 DUP4 ADD DUP4 DUP6 MUL DUP8 ADD DUP5 ADD DUP9 LT ISZERO PUSH2 0x3BE9 JUMPI DUP6 DUP7 REVERT JUMPDEST DUP6 JUMPDEST DUP6 DUP2 LT ISZERO PUSH2 0x3C10 JUMPI DUP2 MLOAD PUSH2 0x3BFE DUP2 PUSH2 0x45C2 JUMP JUMPDEST DUP5 MSTORE SWAP3 DUP5 ADD SWAP3 SWAP1 DUP5 ADD SWAP1 PUSH1 0x1 ADD PUSH2 0x3BEB JUMP JUMPDEST POP SWAP1 SWAP8 SWAP7 POP POP POP POP POP POP POP JUMP JUMPDEST PUSH1 0x0 PUSH1 0x1F DUP4 DUP2 DUP5 ADD SLT PUSH2 0x3C2E JUMPI DUP2 DUP3 REVERT JUMPDEST DUP3 MLOAD PUSH1 0x20 PUSH2 0x3C3E PUSH2 0x3BC8 DUP4 PUSH2 0x45A5 JUMP JUMPDEST DUP3 DUP2 MSTORE DUP2 DUP2 ADD SWAP1 DUP7 DUP4 ADD DUP7 JUMPDEST DUP6 DUP2 LT ISZERO PUSH2 0x3CE2 JUMPI DUP2 MLOAD DUP10 ADD DUP11 PUSH1 0x3F DUP3 ADD SLT PUSH2 0x3C64 JUMPI DUP9 DUP10 REVERT JUMPDEST DUP6 DUP2 ADD MLOAD PUSH1 0x1 PUSH1 0x1 PUSH1 0x40 SHL SUB DUP2 GT ISZERO PUSH2 0x3C79 JUMPI INVALID JUMPDEST PUSH2 0x3C8A DUP2 DUP11 ADD PUSH1 0x1F NOT AND DUP9 ADD PUSH2 0x4582 JUMP JUMPDEST DUP2 DUP2 MSTORE PUSH1 0x40 DUP14 DUP2 DUP5 DUP7 ADD ADD GT ISZERO PUSH2 0x3C9F JUMPI DUP12 DUP13 REVERT JUMPDEST DUP12 JUMPDEST DUP4 DUP2 LT ISZERO PUSH2 0x3CBC JUMPI DUP5 DUP2 ADD DUP3 ADD MLOAD DUP4 DUP3 ADD DUP12 ADD MSTORE DUP10 ADD PUSH2 0x3CA1 JUMP JUMPDEST DUP4 DUP2 GT ISZERO PUSH2 0x3CCC JUMPI DUP13 DUP11 DUP6 DUP6 ADD ADD MSTORE JUMPDEST POP POP DUP7 MSTORE POP POP SWAP3 DUP5 ADD SWAP3 SWAP1 DUP5 ADD SWAP1 PUSH1 0x1 ADD PUSH2 0x3C4A JUMP JUMPDEST POP SWAP1 SWAP9 SWAP8 POP POP POP POP POP POP POP POP JUMP JUMPDEST PUSH1 0x0 DUP3 PUSH1 0x1F DUP4 ADD SLT PUSH2 0x3D00 JUMPI DUP1 DUP2 REVERT JUMPDEST DUP2 MLOAD PUSH1 0x20 PUSH2 0x3D10 PUSH2 0x3BC8 DUP4 PUSH2 0x45A5 JUMP JUMPDEST DUP3 DUP2 MSTORE DUP2 DUP2 ADD SWAP1 DUP6 DUP4 ADD DUP4 DUP6 MUL DUP8 ADD DUP5 ADD DUP9 LT ISZERO PUSH2 0x3D2C JUMPI DUP6 DUP7 REVERT JUMPDEST DUP6 JUMPDEST DUP6 DUP2 LT ISZERO PUSH2 0x3C10 JUMPI DUP2 MLOAD DUP5 MSTORE SWAP3 DUP5 ADD SWAP3 SWAP1 DUP5 ADD SWAP1 PUSH1 0x1 ADD PUSH2 0x3D2E JUMP JUMPDEST DUP1 CALLDATALOAD PUSH2 0xFFFF DUP2 AND DUP2 EQ PUSH2 0xC2E JUMPI PUSH1 0x0 DUP1 REVERT JUMPDEST DUP1 CALLDATALOAD PUSH1 0xFF DUP2 AND DUP2 EQ PUSH2 0xC2E JUMPI PUSH1 0x0 DUP1 REVERT JUMPDEST PUSH1 0x0 PUSH1 0x20 DUP3 DUP5 SUB SLT ISZERO PUSH2 0x3D7E JUMPI DUP1 DUP2 REVERT JUMPDEST DUP2 CALLDATALOAD PUSH2 0xC58 DUP2 PUSH2 0x45C2 JUMP JUMPDEST PUSH1 0x0 DUP1 PUSH1 0x20 DUP4 DUP6 SUB SLT ISZERO PUSH2 0x3D9B JUMPI DUP1 DUP2 REVERT JUMPDEST DUP3 CALLDATALOAD PUSH1 0x1 PUSH1 0x1 PUSH1 0x40 SHL SUB DUP2 GT ISZERO PUSH2 0x3DB0 JUMPI DUP2 DUP3 REVERT JUMPDEST PUSH2 0x3DBC DUP6 DUP3 DUP7 ADD PUSH2 0x3B60 JUMP JUMPDEST SWAP1 SWAP7 SWAP1 SWAP6 POP SWAP4 POP POP POP POP JUMP JUMPDEST PUSH1 0x0 PUSH1 0x20 DUP3 DUP5 SUB SLT ISZERO PUSH2 0x3DD9 JUMPI DUP1 DUP2 REVERT JUMPDEST DUP2 MLOAD PUSH1 0x1 PUSH1 0x1 PUSH1 0x40 SHL SUB DUP2 GT ISZERO PUSH2 0x3DEE JUMPI DUP2 DUP3 REVERT JUMPDEST PUSH2 0xDAE DUP5 DUP3 DUP6 ADD PUSH2 0x3BA8 JUMP JUMPDEST PUSH1 0x0 PUSH1 0x20 DUP1 DUP4 DUP6 SUB SLT ISZERO PUSH2 0x3E0C JUMPI DUP2 DUP3 REVERT JUMPDEST DUP3 MLOAD PUSH1 0x1 PUSH1 0x1 PUSH1 0x40 SHL SUB DUP1 DUP3 GT ISZERO PUSH2 0x3E22 JUMPI DUP4 DUP5 REVERT JUMPDEST DUP2 DUP6 ADD SWAP2 POP DUP6 PUSH1 0x1F DUP4 ADD SLT PUSH2 0x3E35 JUMPI DUP4 DUP5 REVERT JUMPDEST DUP2 MLOAD PUSH2 0x3E43 PUSH2 0x3BC8 DUP3 PUSH2 0x45A5 JUMP JUMPDEST DUP2 DUP2 MSTORE DUP5 DUP2 ADD SWAP1 DUP5 DUP7 ADD DUP8 JUMPDEST DUP5 DUP2 LT ISZERO PUSH2 0x3F10 JUMPI DUP2 MLOAD DUP8 ADD PUSH1 0xA0 DUP1 PUSH1 0x1F NOT DUP4 DUP16 SUB ADD SLT ISZERO PUSH2 0x3E6F JUMPI DUP11 DUP12 REVERT JUMPDEST PUSH2 0x3E78 DUP2 PUSH2 0x4582 JUMP JUMPDEST DUP11 DUP4 ADD MLOAD DUP10 DUP2 GT ISZERO PUSH2 0x3E88 JUMPI DUP13 DUP14 REVERT JUMPDEST PUSH2 0x3E96 DUP16 DUP14 DUP4 DUP8 ADD ADD PUSH2 0x3BA8 JUMP JUMPDEST DUP3 MSTORE POP PUSH1 0x40 DUP4 ADD MLOAD DUP10 DUP2 GT ISZERO PUSH2 0x3EAA JUMPI DUP13 DUP14 REVERT JUMPDEST PUSH2 0x3EB8 DUP16 DUP14 DUP4 DUP8 ADD ADD PUSH2 0x3C1D JUMP JUMPDEST DUP13 DUP4 ADD MSTORE POP PUSH1 0x60 DUP4 ADD MLOAD DUP10 DUP2 GT ISZERO PUSH2 0x3ECE JUMPI DUP13 DUP14 REVERT JUMPDEST PUSH2 0x3EDC DUP16 DUP14 DUP4 DUP8 ADD ADD PUSH2 0x3CF0 JUMP JUMPDEST PUSH1 0x40 DUP4 ADD MSTORE POP PUSH1 0x80 DUP1 DUP5 ADD MLOAD PUSH1 0x60 DUP4 ADD MSTORE PUSH2 0x3EF8 DUP4 DUP6 ADD PUSH2 0x3B55 JUMP JUMPDEST SWAP1 DUP3 ADD MSTORE DUP7 MSTORE POP POP SWAP3 DUP8 ADD SWAP3 SWAP1 DUP8 ADD SWAP1 PUSH1 0x1 ADD PUSH2 0x3E4F JUMP JUMPDEST POP SWAP1 SWAP10 SWAP9 POP POP POP POP POP POP POP POP POP JUMP JUMPDEST PUSH1 0x0 PUSH1 0x20 DUP1 DUP4 DUP6 SUB SLT ISZERO PUSH2 0x3F31 JUMPI DUP2 DUP3 REVERT JUMPDEST DUP3 MLOAD PUSH1 0x1 PUSH1 0x1 PUSH1 0x40 SHL SUB DUP1 DUP3 GT ISZERO PUSH2 0x3F47 JUMPI DUP4 DUP5 REVERT JUMPDEST DUP2 DUP6 ADD SWAP2 POP DUP6 PUSH1 0x1F DUP4 ADD SLT PUSH2 0x3F5A JUMPI DUP4 DUP5 REVERT JUMPDEST DUP2 MLOAD PUSH2 0x3F68 PUSH2 0x3BC8 DUP3 PUSH2 0x45A5 JUMP JUMPDEST DUP2 DUP2 MSTORE DUP5 DUP2 ADD SWAP1 DUP5 DUP7 ADD DUP8 JUMPDEST DUP5 DUP2 LT ISZERO PUSH2 0x3F10 JUMPI DUP2 MLOAD DUP8 ADD PUSH1 0x80 DUP2 DUP14 SUB PUSH1 0x1F NOT ADD SLT ISZERO PUSH2 0x3F93 JUMPI DUP10 DUP11 REVERT JUMPDEST PUSH1 0x40 DUP1 MLOAD PUSH1 0x80 DUP2 ADD DUP2 DUP2 LT DUP11 DUP3 GT OR ISZERO PUSH2 0x3FA9 JUMPI INVALID JUMPDEST DUP3 MSTORE DUP3 DUP12 ADD MLOAD DUP10 DUP2 GT ISZERO PUSH2 0x3FBB JUMPI DUP13 DUP14 REVERT JUMPDEST PUSH2 0x3FC9 DUP16 DUP14 DUP4 DUP8 ADD ADD PUSH2 0x3BA8 JUMP JUMPDEST DUP3 MSTORE POP DUP2 DUP4 ADD MLOAD DUP10 DUP2 GT ISZERO PUSH2 0x3FDC JUMPI DUP13 DUP14 REVERT JUMPDEST PUSH2 0x3FEA DUP16 DUP14 DUP4 DUP8 ADD ADD PUSH2 0x3C1D JUMP JUMPDEST DUP13 DUP4 ADD MSTORE POP PUSH1 0x60 DUP4 ADD MLOAD DUP3 DUP3 ADD MSTORE PUSH2 0x4004 PUSH1 0x80 DUP5 ADD PUSH2 0x3B55 JUMP JUMPDEST PUSH1 0x60 DUP3 ADD MSTORE DUP7 MSTORE POP POP SWAP3 DUP8 ADD SWAP3 SWAP1 DUP8 ADD SWAP1 PUSH1 0x1 ADD PUSH2 0x3F74 JUMP JUMPDEST PUSH1 0x0 DUP1 PUSH1 0x20 DUP4 DUP6 SUB SLT ISZERO PUSH2 0x402F JUMPI DUP2 DUP3 REVERT JUMPDEST DUP3 CALLDATALOAD PUSH1 0x1 PUSH1 0x1 PUSH1 0x40 SHL SUB DUP2 GT ISZERO PUSH2 0x3DB0 JUMPI DUP3 DUP4 REVERT JUMPDEST PUSH1 0x0 PUSH1 0x20 DUP3 DUP5 SUB SLT ISZERO PUSH2 0x4055 JUMPI DUP1 DUP2 REVERT JUMPDEST DUP2 MLOAD PUSH1 0x1 PUSH1 0x1 PUSH1 0x40 SHL SUB DUP2 GT ISZERO PUSH2 0x406A JUMPI DUP2 DUP3 REVERT JUMPDEST PUSH2 0xDAE DUP5 DUP3 DUP6 ADD PUSH2 0x3CF0 JUMP JUMPDEST PUSH1 0x0 PUSH1 0x20 DUP3 DUP5 SUB SLT ISZERO PUSH2 0x4087 JUMPI DUP1 DUP2 REVERT JUMPDEST PUSH2 0xC58 DUP3 PUSH2 0x3D4A JUMP JUMPDEST PUSH1 0x0 DUP1 PUSH1 0x0 PUSH1 0x40 DUP5 DUP7 SUB SLT ISZERO PUSH2 0x40A4 JUMPI DUP1 DUP2 REVERT JUMPDEST PUSH2 0x40AD DUP5 PUSH2 0x3D4A JUMP JUMPDEST SWAP3 POP PUSH1 0x20 DUP5 ADD CALLDATALOAD PUSH1 0x1 PUSH1 0x1 PUSH1 0x40 SHL SUB DUP1 DUP3 GT ISZERO PUSH2 0x40C8 JUMPI DUP3 DUP4 REVERT JUMPDEST DUP2 DUP7 ADD SWAP2 POP DUP7 PUSH1 0x1F DUP4 ADD SLT PUSH2 0x40DB JUMPI DUP3 DUP4 REVERT JUMPDEST DUP2 CALLDATALOAD DUP2 DUP2 GT ISZERO PUSH2 0x40E9 JUMPI DUP4 DUP5 REVERT JUMPDEST DUP8 PUSH1 0x20 PUSH1 0x40 DUP4 MUL DUP6 ADD ADD GT ISZERO PUSH2 0x40FD JUMPI DUP4 DUP5 REVERT JUMPDEST PUSH1 0x20 DUP4 ADD SWAP5 POP DUP1 SWAP4 POP POP POP POP SWAP3 POP SWAP3 POP SWAP3 JUMP JUMPDEST PUSH1 0x0 DUP1 PUSH1 0x40 DUP4 DUP6 SUB SLT ISZERO PUSH2 0x4122 JUMPI DUP2 DUP3 REVERT JUMPDEST PUSH2 0x412B DUP4 PUSH2 0x3D4A JUMP JUMPDEST SWAP5 PUSH1 0x20 SWAP4 SWAP1 SWAP4 ADD CALLDATALOAD SWAP4 POP POP POP JUMP JUMPDEST PUSH1 0x0 DUP1 PUSH1 0x40 DUP4 DUP6 SUB SLT ISZERO PUSH2 0x414B JUMPI DUP2 DUP3 REVERT JUMPDEST PUSH2 0x4154 DUP4 PUSH2 0x3D4A JUMP JUMPDEST SWAP2 POP PUSH1 0x20 DUP4 ADD CALLDATALOAD PUSH4 0xFFFFFFFF DUP2 AND DUP2 EQ PUSH2 0x416C JUMPI DUP2 DUP3 REVERT JUMPDEST DUP1 SWAP2 POP POP SWAP3 POP SWAP3 SWAP1 POP JUMP JUMPDEST PUSH1 0x0 DUP1 PUSH1 0x40 DUP4 DUP6 SUB SLT ISZERO PUSH2 0x4189 JUMPI DUP2 DUP3 REVERT JUMPDEST PUSH2 0x4192 DUP4 PUSH2 0x3D4A JUMP JUMPDEST SWAP2 POP PUSH1 0x20 DUP4 ADD CALLDATALOAD PUSH5 0xFFFFFFFFFF DUP2 AND DUP2 EQ PUSH2 0x416C JUMPI DUP2 DUP3 REVERT JUMPDEST PUSH1 0x0 PUSH1 0x20 DUP3 DUP5 SUB SLT ISZERO PUSH2 0x41BC JUMPI DUP1 DUP2 REVERT JUMPDEST POP MLOAD SWAP2 SWAP1 POP JUMP JUMPDEST PUSH1 0x0 DUP1 PUSH1 0x40 DUP4 DUP6 SUB SLT ISZERO PUSH2 0x41D5 JUMPI DUP2 DUP3 REVERT JUMPDEST POP POP DUP1 MLOAD PUSH1 0x20 SWAP1 SWAP2 ADD MLOAD SWAP1 SWAP3 SWAP1 SWAP2 POP JUMP JUMPDEST PUSH1 0x0 PUSH1 0x20 DUP3 DUP5 SUB SLT ISZERO PUSH2 0x41F7 JUMPI DUP1 DUP2 REVERT JUMPDEST PUSH2 0xC58 DUP3 PUSH2 0x3D5C JUMP JUMPDEST PUSH1 0x0 DUP2 MLOAD DUP1 DUP5 MSTORE PUSH1 0x20 DUP1 DUP6 ADD SWAP5 POP DUP1 DUP5 ADD DUP4 JUMPDEST DUP4 DUP2 LT ISZERO PUSH2 0x422F JUMPI DUP2 MLOAD DUP8 MSTORE SWAP6 DUP3 ADD SWAP6 SWAP1 DUP3 ADD SWAP1 PUSH1 0x1 ADD PUSH2 0x4213 JUMP JUMPDEST POP SWAP5 SWAP6 SWAP5 POP POP POP POP POP JUMP JUMPDEST PUSH1 0x1 PUSH1 0x1 PUSH1 0xA0 SHL SUB SWAP2 SWAP1 SWAP2 AND DUP2 MSTORE PUSH1 0x20 ADD SWAP1 JUMP JUMPDEST PUSH1 0x1 PUSH1 0x1 PUSH1 0xA0 SHL SUB SWAP4 DUP5 AND DUP2 MSTORE SWAP2 SWAP1 SWAP3 AND PUSH1 0x20 DUP3 ADD MSTORE PUSH1 0x40 DUP2 ADD SWAP2 SWAP1 SWAP2 MSTORE PUSH1 0x60 ADD SWAP1 JUMP JUMPDEST PUSH1 0x1 PUSH1 0x1 PUSH1 0xA0 SHL SUB DUP5 DUP2 AND DUP3 MSTORE PUSH1 0x40 PUSH1 0x20 DUP1 DUP5 ADD DUP3 SWAP1 MSTORE SWAP1 DUP4 ADD DUP5 SWAP1 MSTORE PUSH1 0x0 SWAP2 DUP6 SWAP2 PUSH1 0x60 DUP6 ADD DUP5 JUMPDEST DUP8 DUP2 LT ISZERO PUSH2 0x42C1 JUMPI DUP5 CALLDATALOAD PUSH2 0x42AD DUP2 PUSH2 0x45C2 JUMP JUMPDEST DUP5 AND DUP3 MSTORE SWAP4 DUP3 ADD SWAP4 SWAP1 DUP3 ADD SWAP1 PUSH1 0x1 ADD PUSH2 0x429A JUMP JUMPDEST POP SWAP9 SWAP8 POP POP POP POP POP POP POP POP JUMP JUMPDEST PUSH1 0x1 PUSH1 0x1 PUSH1 0xA0 SHL SUB SWAP3 SWAP1 SWAP3 AND DUP3 MSTORE PUSH1 0x20 DUP3 ADD MSTORE PUSH1 0x40 ADD SWAP1 JUMP JUMPDEST PUSH1 0x40 DUP1 DUP3 MSTORE DUP4 MLOAD SWAP1 DUP3 ADD DUP2 SWAP1 MSTORE PUSH1 0x0 SWAP1 PUSH1 0x20 SWAP1 PUSH1 0x60 DUP5 ADD SWAP1 DUP3 DUP8 ADD DUP5 JUMPDEST DUP3 DUP2 LT ISZERO PUSH2 0x4329 JUMPI DUP2 MLOAD PUSH1 0x1 PUSH1 0x1 PUSH1 0xA0 SHL SUB AND DUP5 MSTORE SWAP3 DUP5 ADD SWAP3 SWAP1 DUP5 ADD SWAP1 PUSH1 0x1 ADD PUSH2 0x4304 JUMP JUMPDEST POP POP POP DUP4 DUP2 SUB DUP3 DUP6 ADD MSTORE PUSH2 0x433D DUP2 DUP7 PUSH2 0x4200 JUMP JUMPDEST SWAP7 SWAP6 POP POP POP POP POP POP JUMP JUMPDEST PUSH1 0x0 PUSH1 0x20 DUP3 MSTORE PUSH2 0xC58 PUSH1 0x20 DUP4 ADD DUP5 PUSH2 0x4200 JUMP JUMPDEST SWAP1 DUP2 MSTORE PUSH1 0x20 ADD SWAP1 JUMP JUMPDEST PUSH1 0x20 DUP1 DUP3 MSTORE PUSH1 0x19 SWAP1 DUP3 ADD MSTORE PUSH32 0x5472656173757279206D616E6167657220726571756972656400000000000000 PUSH1 0x40 DUP3 ADD MSTORE PUSH1 0x60 ADD SWAP1 JUMP JUMPDEST PUSH1 0x20 DUP1 DUP3 MSTORE PUSH1 0x14 SWAP1 DUP3 ADD MSTORE PUSH20 0x2932B130B630B731B4B7339031B7B7B63237BBB7 PUSH1 0x61 SHL PUSH1 0x40 DUP3 ADD MSTORE PUSH1 0x60 ADD SWAP1 JUMP JUMPDEST PUSH1 0x20 DUP1 DUP3 MSTORE DUP2 DUP2 ADD MSTORE PUSH32 0x4F776E61626C653A2063616C6C6572206973206E6F7420746865206F776E6572 PUSH1 0x40 DUP3 ADD MSTORE PUSH1 0x60 ADD SWAP1 JUMP JUMPDEST PUSH1 0x20 DUP1 DUP3 MSTORE PUSH1 0x12 SWAP1 DUP3 ADD MSTORE PUSH18 0x12511CC81B5D5CDD081899481CDBDC9D1959 PUSH1 0x72 SHL PUSH1 0x40 DUP3 ADD MSTORE PUSH1 0x60 ADD SWAP1 JUMP JUMPDEST PUSH1 0x20 DUP1 DUP3 MSTORE PUSH1 0xC SWAP1 DUP3 ADD MSTORE PUSH12 0x496E76616C69642072617465 PUSH1 0xA0 SHL PUSH1 0x40 DUP3 ADD MSTORE PUSH1 0x60 ADD SWAP1 JUMP JUMPDEST PUSH1 0x20 DUP1 DUP3 MSTORE PUSH1 0xE SWAP1 DUP3 ADD MSTORE PUSH14 0x1499595B9D1C985B9D0818D85B1B PUSH1 0x92 SHL PUSH1 0x40 DUP3 ADD MSTORE PUSH1 0x60 ADD SWAP1 JUMP JUMPDEST PUSH1 0x20 DUP1 DUP3 MSTORE PUSH1 0x13 SWAP1 DUP3 ADD MSTORE PUSH19 0x125B9D985B1A590818DD5C9C995B98DE481A59 PUSH1 0x6A SHL PUSH1 0x40 DUP3 ADD MSTORE PUSH1 0x60 ADD SWAP1 JUMP JUMPDEST PUSH2 0xFFFF DUP5 AND DUP2 MSTORE PUSH1 0x40 PUSH1 0x20 DUP1 DUP4 ADD DUP3 SWAP1 MSTORE DUP3 DUP3 ADD DUP5 SWAP1 MSTORE PUSH1 0x0 SWAP2 SWAP1 DUP6 SWAP1 PUSH1 0x60 DUP6 ADD DUP5 JUMPDEST DUP8 DUP2 LT ISZERO PUSH2 0x42C1 JUMPI DUP4 CALLDATALOAD PUSH2 0x44DA DUP2 PUSH2 0x45C2 JUMP JUMPDEST PUSH1 0x1 PUSH1 0x1 PUSH1 0xA0 SHL SUB AND DUP3 MSTORE PUSH1 0xFF PUSH2 0x44F2 DUP6 DUP6 ADD PUSH2 0x3D5C JUMP JUMPDEST AND DUP3 DUP5 ADD MSTORE SWAP3 DUP5 ADD SWAP3 SWAP1 DUP5 ADD SWAP1 PUSH1 0x1 ADD PUSH2 0x44C7 JUMP JUMPDEST PUSH2 0xFFFF SWAP3 SWAP1 SWAP3 AND DUP3 MSTORE PUSH1 0x20 DUP3 ADD MSTORE PUSH1 0x40 ADD SWAP1 JUMP JUMPDEST PUSH2 0xFFFF SWAP4 SWAP1 SWAP4 AND DUP4 MSTORE PUSH1 0x20 DUP4 ADD SWAP2 SWAP1 SWAP2 MSTORE PUSH1 0x40 DUP3 ADD MSTORE PUSH1 0x60 ADD SWAP1 JUMP JUMPDEST PUSH2 0xFFFF SWAP3 SWAP1 SWAP3 AND DUP3 MSTORE PUSH4 0xFFFFFFFF AND PUSH1 0x20 DUP3 ADD MSTORE PUSH1 0x40 ADD SWAP1 JUMP JUMPDEST PUSH2 0xFFFF SWAP3 SWAP1 SWAP3 AND DUP3 MSTORE PUSH5 0xFFFFFFFFFF AND PUSH1 0x20 DUP3 ADD MSTORE PUSH1 0x40 ADD SWAP1 JUMP JUMPDEST SWAP3 DUP4 MSTORE PUSH1 0x20 DUP4 ADD SWAP2 SWAP1 SWAP2 MSTORE PUSH1 0x40 DUP3 ADD MSTORE PUSH1 0x60 ADD SWAP1 JUMP JUMPDEST PUSH1 0x40 MLOAD DUP2 DUP2 ADD PUSH1 0x1 PUSH1 0x1 PUSH1 0x40 SHL SUB DUP2 GT DUP3 DUP3 LT OR ISZERO PUSH2 0x459D JUMPI INVALID JUMPDEST PUSH1 0x40 MSTORE SWAP2 SWAP1 POP JUMP JUMPDEST PUSH1 0x0 PUSH1 0x1 PUSH1 0x1 PUSH1 0x40 SHL SUB DUP3 GT ISZERO PUSH2 0x45B8 JUMPI INVALID JUMPDEST POP PUSH1 0x20 SWAP1 DUP2 MUL ADD SWAP1 JUMP JUMPDEST PUSH1 0x1 PUSH1 0x1 PUSH1 0xA0 SHL SUB DUP2 AND DUP2 EQ PUSH2 0xC99 JUMPI PUSH1 0x0 DUP1 REVERT INVALID COINBASE PUSH5 0x6472657373 GASPRICE KECCAK256 PUSH10 0x6E73756666696369656E PUSH21 0x2062616C616E636520666F722063616C6C53616665 GASLIMIT MSTORE NUMBER ORIGIN ADDRESS GASPRICE KECCAK256 GASLIMIT MSTORE NUMBER ORIGIN ADDRESS KECCAK256 PUSH16 0x7065726174696F6E20646964206E6F74 KECCAK256 PUSH20 0x756363656564A26469706673582212204ED3B9FA PUSH25 0x86D922B2FEC2AACAE32D1F272A1569214403BFBB98BCC1E6D8 SHL 0xDB PUSH5 0x736F6C6343 STOP SMOD MOD STOP CALLER ","sha1":"b5c494d5f1611b334673dd09868dca03c246252c","source":"// SPDX-License-Identifier: GPL-3.0-only\npragma solidity =0.7.6;\npragma abicoder v2;\n\nimport {\n    Token,\n    PrimeRate,\n    PrimeCashFactors,\n    RebalancingContextStorage\n} from \"../../global/Types.sol\";\nimport {StorageLayoutV2} from \"../../global/StorageLayoutV2.sol\";\nimport {LibStorage} from \"../../global/LibStorage.sol\";\nimport {Constants} from \"../../global/Constants.sol\";\nimport {SafeInt256} from \"../../math/SafeInt256.sol\";\nimport {SafeUint256} from \"../../math/SafeUint256.sol\";\n\nimport {Emitter} from \"../../internal/Emitter.sol\";\nimport {BalanceHandler} from \"../../internal/balances/BalanceHandler.sol\";\nimport {PrimeRateLib} from \"../../internal/pCash/PrimeRateLib.sol\";\nimport {TokenHandler} from \"../../internal/balances/TokenHandler.sol\";\nimport {nTokenHandler} from \"../../internal/nToken/nTokenHandler.sol\";\nimport {nTokenSupply} from \"../../internal/nToken/nTokenSupply.sol\";\nimport {PrimeCashExchangeRate, PrimeCashFactors} from \"../../internal/pCash/PrimeCashExchangeRate.sol\";\nimport {GenericToken} from \"../../internal/balances/protocols/GenericToken.sol\";\n\nimport {ActionGuards} from \"./ActionGuards.sol\";\nimport {NotionalTreasury} from \"../../../interfaces/notional/NotionalTreasury.sol\";\nimport {Comptroller} from \"../../../interfaces/compound/ComptrollerInterface.sol\";\nimport {CErc20Interface} from \"../../../interfaces/compound/CErc20Interface.sol\";\nimport {IPrimeCashHoldingsOracle, DepositData, RedeemData} from \"../../../interfaces/notional/IPrimeCashHoldingsOracle.sol\";\nimport {IRebalancingStrategy, RebalancingData} from \"../../../interfaces/notional/IRebalancingStrategy.sol\";\nimport {IERC20} from \"@openzeppelin/contracts/token/ERC20/IERC20.sol\";\nimport {SafeERC20} from \"@openzeppelin/contracts/token/ERC20/SafeERC20.sol\";\n\ncontract TreasuryAction is StorageLayoutV2, ActionGuards, NotionalTreasury {\n    using SafeUint256 for uint256;\n    using SafeInt256 for int256;\n    using SafeERC20 for IERC20;\n    using TokenHandler for Token;\n\n    IERC20 public immutable COMP;\n    Comptroller public immutable COMPTROLLER;\n\n    /// @dev Harvest methods are only callable by the authorized treasury manager contract\n    modifier onlyManagerContract() {\n        require(treasuryManagerContract == msg.sender, \"Treasury manager required\");\n        _;\n    }\n\n    constructor(Comptroller _comptroller) {\n        COMPTROLLER = _comptroller;\n        COMP = address(_comptroller) == address(0) ? IERC20(address(0)) : IERC20(_comptroller.getCompAddress());\n    }\n\n    /// @notice Sets the new treasury manager contract\n    function setTreasuryManager(address manager) external override onlyOwner {\n        emit TreasuryManagerChanged(treasuryManagerContract, manager);\n        treasuryManagerContract = manager;\n    }\n\n    /// @notice Sets the reserve buffer. This is the amount of reserve balance to keep denominated in 1e8\n    /// The reserve cannot be harvested if it's below this amount. This portion of the reserve will remain on\n    /// the contract to act as a buffer against potential insolvency.\n    /// @param currencyId refers to the currency of the reserve\n    /// @param bufferAmount reserve buffer amount to keep in internal token precision (1e8)\n    function setReserveBuffer(uint16 currencyId, uint256 bufferAmount) external override onlyOwner {\n        _checkValidCurrency(currencyId);\n        reserveBuffer[currencyId] = bufferAmount;\n        emit ReserveBufferUpdated(currencyId, bufferAmount);\n    }\n\n    /// @notice Updates the emission rate of incentives for a given currency\n    /// @dev emit:UpdateIncentiveEmissionRate\n    /// @param currencyId the currency id that the nToken references\n    /// @param newEmissionRate Target total incentives to emit for an nToken over an entire year\n    /// denominated in WHOLE TOKENS (i.e. setting this to 1 means 1e8 tokens). The rate will not be\n    /// exact due to multiplier effects and fluctuating token supply.\n    function updateIncentiveEmissionRate(uint16 currencyId, uint32 newEmissionRate)\n        external\n        override\n        onlyOwner\n    {\n        _checkValidCurrency(currencyId);\n        address nTokenAddress = nTokenHandler.nTokenAddress(currencyId);\n        require(nTokenAddress != address(0));\n        // Sanity check that emissions rate is not specified in 1e8 terms.\n        require(newEmissionRate < Constants.INTERNAL_TOKEN_PRECISION, \"Invalid rate\");\n\n        nTokenSupply.setIncentiveEmissionRate(nTokenAddress, newEmissionRate, block.timestamp);\n        emit UpdateIncentiveEmissionRate(currencyId, newEmissionRate);\n    }\n\n\n    /// @notice This is used in the case of insolvency. It allows the owner to re-align the reserve with its correct balance.\n    /// @param currencyId refers to the currency of the reserve\n    /// @param newBalance new reserve balance to set, must be less than the current balance\n    function setReserveCashBalance(uint16 currencyId, int256 newBalance)\n        external\n        override\n        onlyOwner\n    {\n        _checkValidCurrency(currencyId);\n        // newBalance cannot be negative and is checked inside BalanceHandler.setReserveCashBalance\n        BalanceHandler.setReserveCashBalance(currencyId, newBalance);\n    }\n\n    /// @notice Claims COMP incentives earned and transfers to the treasury manager contract.\n    /// @param cTokens a list of cTokens to claim incentives for\n    /// @return the balance of COMP claimed\n    function claimCOMPAndTransfer(address[] calldata cTokens)\n        external\n        override\n        onlyManagerContract\n        nonReentrant\n        returns (uint256)\n    {\n        uint256 balanceBefore = COMP.balanceOf(address(this));\n        COMPTROLLER.claimComp(address(this), cTokens);\n        uint256 balanceAfter = COMP.balanceOf(address(this));\n\n        // NOTE: the onlyManagerContract modifier prevents a transfer to address(0) here\n        uint256 netBalance = balanceAfter.sub(balanceBefore);\n        if (netBalance > 0) {\n            COMP.safeTransfer(msg.sender, netBalance);\n        }\n\n        // NOTE: TreasuryManager contract will emit a COMPHarvested event\n        return netBalance;\n    }\n\n    /// @notice redeems and transfers tokens to the treasury manager contract\n    function _redeemAndTransfer(uint16 currencyId, int256 primeCashRedeemAmount) private returns (uint256) {\n        PrimeRate memory primeRate = PrimeRateLib.buildPrimeRateStateful(currencyId);\n        Emitter.emitTransferPrimeCash(Constants.FEE_RESERVE, treasuryManagerContract, currencyId, primeCashRedeemAmount);\n\n        int256 actualTransferExternal = TokenHandler.withdrawPrimeCash(\n            treasuryManagerContract,\n            currencyId,\n            primeCashRedeemAmount.neg(),\n            primeRate,\n            true // if ETH, transfers it as WETH\n        );\n\n        require(actualTransferExternal > 0);\n        return uint256(actualTransferExternal);\n    }\n\n    /// @notice Transfers some amount of reserve assets to the treasury manager contract to be invested\n    /// into the sNOTE pool.\n    /// @param currencies an array of currencies to transfer from Notional\n    function transferReserveToTreasury(uint16[] calldata currencies)\n        external\n        override\n        onlyManagerContract\n        nonReentrant\n        returns (uint256[] memory)\n    {\n        uint256[] memory amountsTransferred = new uint256[](currencies.length);\n\n        for (uint256 i; i < currencies.length; ++i) {\n            // Prevents duplicate currency IDs\n            if (i > 0) require(currencies[i] > currencies[i - 1], \"IDs must be sorted\");\n\n            uint16 currencyId = currencies[i];\n\n            _checkValidCurrency(currencyId);\n\n            // Reserve buffer amount in INTERNAL_TOKEN_PRECISION\n            int256 bufferInternal = SafeInt256.toInt(reserveBuffer[currencyId]);\n\n            // Reserve requirement not defined\n            if (bufferInternal == 0) continue;\n\n            int256 reserveInternal = BalanceHandler.getPositiveCashBalance(Constants.FEE_RESERVE, currencyId);\n\n            // Do not withdraw anything if reserve is below or equal to reserve requirement\n            if (reserveInternal <= bufferInternal) continue;\n\n            // Actual reserve amount allowed to be redeemed and transferred\n            // NOTE: overflow not possible with the check above\n            int256 primeCashRedeemed = reserveInternal - bufferInternal;\n\n            // Redeems prime cash and transfer underlying to treasury manager contract\n            amountsTransferred[i] = _redeemAndTransfer(currencyId, primeCashRedeemed);\n\n            // Updates the reserve balance\n            BalanceHandler.harvestExcessReserveBalance(\n                currencyId,\n                reserveInternal,\n                primeCashRedeemed\n            );\n        }\n\n        // NOTE: TreasuryManager contract will emit an AssetsHarvested event\n        return amountsTransferred;\n    }\n\n    function setRebalancingTargets(uint16 currencyId, RebalancingTargetConfig[] calldata targets) external override onlyOwner {\n        IPrimeCashHoldingsOracle oracle = PrimeCashExchangeRate.getPrimeCashHoldingsOracle(currencyId);\n        address[] memory holdings = oracle.holdings();\n\n        require(targets.length == holdings.length);\n\n        mapping(address => uint8) storage rebalancingTargets = LibStorage.getRebalancingTargets()[currencyId];\n        uint256 totalPercentage;\n        for (uint256 i; i < holdings.length; ++i) {\n            RebalancingTargetConfig calldata config = targets[i];\n            address holding = holdings[i];\n\n            require(config.holding == holding);\n            totalPercentage = totalPercentage.add(config.target);\n            rebalancingTargets[holding] = config.target;\n        }\n        require(totalPercentage <= uint256(Constants.PERCENTAGE_DECIMALS));\n\n        emit RebalancingTargetsUpdated(currencyId, targets);\n    }\n\n    function setRebalancingCooldown(uint16 currencyId, uint40 cooldownTimeInSeconds) external override onlyOwner {\n        mapping(uint16 => RebalancingContextStorage) storage store = LibStorage.getRebalancingContext();\n        store[currencyId].rebalancingCooldownInSeconds = cooldownTimeInSeconds;\n        emit RebalancingCooldownUpdated(currencyId, cooldownTimeInSeconds);\n    }\n\n    function rebalance(uint16[] calldata currencyId) external override onlyManagerContract {\n        for (uint256 i; i < currencyId.length; ++i) {\n            _rebalanceCurrency(currencyId[i]);\n        }\n    }\n\n    function _rebalanceCurrency(uint16 currencyId) private {\n        RebalancingContextStorage memory context = LibStorage.getRebalancingContext()[currencyId];\n\n        require(\n            uint256(context.lastRebalanceTimestampInSeconds).add(context.rebalancingCooldownInSeconds) < block.timestamp, \n            \"Rebalancing cooldown\"\n        );\n\n        // Accrues interest up to the current block before any rebalancing is executed\n        PrimeRateLib.buildPrimeRateStateful(currencyId);\n\n        PrimeCashFactors memory factors = PrimeCashExchangeRate.getPrimeCashFactors(currencyId);\n        _executeRebalance(currencyId);\n\n        // if previous underlying scalar at rebalance == 0, then it is the first rebalance and\n        // annualized interest rate will be left as zero. The previous underlying scalar will\n        // be set to the new factors.underlyingScalar.\n        uint256 annualizedInterestRate;\n        if (context.previousUnderlyingScalarAtRebalance != 0) {\n            uint256 interestRate = factors.underlyingScalar\n                .mul(Constants.SCALAR_PRECISION)\n                .div(context.previousUnderlyingScalarAtRebalance)\n                .sub(Constants.SCALAR_PRECISION) \n                .div(uint256(Constants.RATE_PRECISION));\n\n            annualizedInterestRate = interestRate\n                .mul(Constants.YEAR)\n                .div(block.timestamp.sub(context.lastRebalanceTimestampInSeconds));\n        }\n\n        _saveRebalancingContext(currencyId, factors.underlyingScalar, annualizedInterestRate);\n\n        emit CurrencyRebalanced(currencyId, factors.underlyingScalar, annualizedInterestRate);\n    }\n\n    function _saveRebalancingContext(uint16 currencyId, uint256 underlyingScalar, uint256 annualizedInterestRate) private {\n        mapping(uint16 => RebalancingContextStorage) storage store = LibStorage.getRebalancingContext();\n        store[currencyId].lastRebalanceTimestampInSeconds = block.timestamp.toUint40();\n        store[currencyId].previousUnderlyingScalarAtRebalance = underlyingScalar.toUint80();\n        store[currencyId].oracleMoneyMarketRate = annualizedInterestRate.toUint32();\n    }\n\n    function _getRebalancingTargets(uint16 currencyId, address[] memory holdings) private view returns (uint8[] memory targets) {\n        mapping(address => uint8) storage rebalancingTargets = LibStorage.getRebalancingTargets()[currencyId];\n        targets = new uint8[](holdings.length);\n        uint256 totalPercentage;\n        for (uint256 i; i < holdings.length; ++i) {\n            uint8 target = rebalancingTargets[holdings[i]];\n            targets[i] = target;\n            totalPercentage = totalPercentage.add(target);\n        }\n        require(totalPercentage <= uint256(Constants.PERCENTAGE_DECIMALS));\n    }\n\n    function _executeRebalance(uint16 currencyId) private {\n        IPrimeCashHoldingsOracle oracle = PrimeCashExchangeRate.getPrimeCashHoldingsOracle(currencyId);\n        address[] memory holdings = oracle.holdings();\n        uint8[] memory rebalancingTargets = _getRebalancingTargets(currencyId, holdings);\n        RebalancingData memory data = _calculateRebalance(oracle, holdings, rebalancingTargets);\n\n        (/* */, uint256 totalUnderlyingValueBefore) = oracle.getTotalUnderlyingValueStateful();\n\n        // Process redemptions first\n        Token memory underlyingToken = TokenHandler.getUnderlyingToken(currencyId);\n        TokenHandler.executeMoneyMarketRedemptions(underlyingToken, data.redeemData);\n\n        // Process deposits\n        _executeDeposits(underlyingToken, data.depositData);\n\n        (/* */, uint256 totalUnderlyingValueAfter) = oracle.getTotalUnderlyingValueStateful();\n\n        int256 underlyingDelta = totalUnderlyingValueBefore.toInt().sub(totalUnderlyingValueAfter.toInt());\n        require(underlyingDelta.abs() < Constants.REBALANCING_UNDERLYING_DELTA);\n    }\n\n    function _executeDeposits(Token memory underlyingToken, DepositData[] memory deposits) private {\n        uint256 totalUnderlyingDepositAmount;\n        \n        for (uint256 i; i < deposits.length; i++) {\n            DepositData memory depositData = deposits[i];\n            // Measure the token balance change if the `assetToken` value is set in the\n            // current deposit data struct. \n            uint256 oldAssetBalance = IERC20(depositData.assetToken).balanceOf(address(this));\n\n            // Measure the underlying balance change before and after the call.\n            uint256 oldUnderlyingBalance = underlyingToken.balanceOf(address(this));\n\n            for (uint256 j; j < depositData.targets.length; ++j) {\n                // This will revert if the individual call reverts.\n                GenericToken.executeLowLevelCall(\n                    depositData.targets[j], \n                    depositData.msgValue[j], \n                    depositData.callData[j]\n                );\n            }\n\n            // Ensure that the underlying balance change matches the deposit amount\n            uint256 newUnderlyingBalance = underlyingToken.balanceOf(address(this));\n            uint256 underlyingBalanceChange = oldUnderlyingBalance.sub(newUnderlyingBalance);\n            // If the call is not the final deposit, then underlyingDepositAmount should\n            // be set to zero.\n            require(underlyingBalanceChange <= depositData.underlyingDepositAmount);\n        \n            // Measure and update the asset token\n            uint256 newAssetBalance = IERC20(depositData.assetToken).balanceOf(address(this));\n            require(oldAssetBalance <= newAssetBalance);\n            TokenHandler.updateStoredTokenBalance(depositData.assetToken, oldAssetBalance, newAssetBalance);\n\n            // Update the total value with the net change\n            totalUnderlyingDepositAmount = totalUnderlyingDepositAmount.add(underlyingBalanceChange);\n\n            // totalUnderlyingDepositAmount needs to be subtracted from the underlying balance because\n            // we are trading underlying cash for asset cash\n            TokenHandler.updateStoredTokenBalance(underlyingToken.tokenAddress, oldUnderlyingBalance, newUnderlyingBalance);\n        }\n    }\n\n    function _calculateRebalance(\n        IPrimeCashHoldingsOracle oracle,\n        address[] memory holdings,\n        uint8[] memory rebalancingTargets\n    ) private view returns (RebalancingData memory rebalancingData) {\n        uint256[] memory values = oracle.holdingValuesInUnderlying();\n\n        (\n            uint256 totalValue,\n            /* uint256 internalPrecision */\n        ) = oracle.getTotalUnderlyingValueView();\n\n        address[] memory redeemHoldings = new address[](holdings.length);\n        uint256[] memory redeemAmounts = new uint256[](holdings.length);\n        address[] memory depositHoldings = new address[](holdings.length);\n        uint256[] memory depositAmounts = new uint256[](holdings.length);\n\n        for (uint256 i; i < holdings.length; i++) {\n            address holding = holdings[i];\n            uint256 targetAmount = totalValue * rebalancingTargets[i] / uint256(Constants.PERCENTAGE_DECIMALS);\n            uint256 currentAmount = values[i];\n\n            redeemHoldings[i] = holding;\n            depositHoldings[i] = holding;\n\n            if (targetAmount < currentAmount) {\n                redeemAmounts[i] = currentAmount - targetAmount;\n            } else if (currentAmount < targetAmount) {\n                    depositAmounts[i] = targetAmount - currentAmount;\n            }\n        }\n\n        rebalancingData.redeemData = oracle.getRedemptionCalldataForRebalancing(redeemHoldings, redeemAmounts);\n        rebalancingData.depositData = oracle.getDepositCalldataForRebalancing(depositHoldings, depositAmounts);\n    }\n}\n","sourcePath":"contracts/external/actions/TreasuryAction.sol","type":"contract","deployment":{"address":"0x1cd33f81420Bfce8A3622dc56BBD617b7Fa3c93A","chainid":"42161","blockHeight":86537302}}