{"abi":[{"inputs":[{"internalType":"uint16","name":"currencyId","type":"uint16"}],"name":"accruePrimeInterest","outputs":[{"components":[{"internalType":"int256","name":"supplyFactor","type":"int256"},{"internalType":"int256","name":"debtFactor","type":"int256"},{"internalType":"uint256","name":"oracleSupplyRate","type":"uint256"}],"internalType":"struct PrimeRate","name":"pr","type":"tuple"},{"components":[{"internalType":"uint256","name":"lastAccrueTime","type":"uint256"},{"internalType":"uint256","name":"totalPrimeSupply","type":"uint256"},{"internalType":"uint256","name":"totalPrimeDebt","type":"uint256"},{"internalType":"uint256","name":"oracleSupplyRate","type":"uint256"},{"internalType":"uint256","name":"lastTotalUnderlyingValue","type":"uint256"},{"internalType":"uint256","name":"underlyingScalar","type":"uint256"},{"internalType":"uint256","name":"supplyScalar","type":"uint256"},{"internalType":"uint256","name":"debtScalar","type":"uint256"},{"internalType":"uint256","name":"rateOracleTimeWindow","type":"uint256"}],"internalType":"struct PrimeCashFactors","name":"factors","type":"tuple"}],"stateMutability":"nonpayable","type":"function"},{"inputs":[{"internalType":"uint16","name":"currencyId","type":"uint16"},{"internalType":"uint88","name":"amountToDepositExternalPrecision","type":"uint88"}],"name":"calculateNTokensToMint","outputs":[{"internalType":"uint256","name":"","type":"uint256"}],"stateMutability":"view","type":"function"},{"inputs":[{"internalType":"uint16","name":"currencyId","type":"uint16"},{"internalType":"int256","name":"primeCashBalance","type":"int256"},{"internalType":"bool","name":"convertToUnderlying","type":"bool"}],"name":"convertCashBalanceToExternal","outputs":[{"internalType":"int256","name":"","type":"int256"}],"stateMutability":"view","type":"function"},{"inputs":[{"internalType":"uint16","name":"currencyId","type":"uint16"},{"internalType":"int256","name":"nTokenBalance","type":"int256"}],"name":"convertNTokenToUnderlying","outputs":[{"internalType":"int256","name":"","type":"int256"}],"stateMutability":"view","type":"function"},{"inputs":[{"internalType":"uint16","name":"currencyId","type":"uint16"},{"internalType":"uint256","name":"maturity","type":"uint256"},{"internalType":"int256","name":"fCashBalance","type":"int256"},{"internalType":"uint256","name":"blockTime","type":"uint256"}],"name":"convertSettledfCash","outputs":[{"internalType":"int256","name":"signedPrimeSupplyValue","type":"int256"}],"stateMutability":"view","type":"function"},{"inputs":[{"internalType":"uint16","name":"currencyId","type":"uint16"},{"internalType":"int256","name":"underlyingExternal","type":"int256"}],"name":"convertUnderlyingToPrimeCash","outputs":[{"internalType":"int256","name":"","type":"int256"}],"stateMutability":"view","type":"function"},{"inputs":[{"internalType":"uint16","name":"currencyId","type":"uint16"},{"internalType":"int88","name":"fCashAmount","type":"int88"},{"internalType":"uint256","name":"marketIndex","type":"uint256"},{"internalType":"uint256","name":"blockTime","type":"uint256"}],"name":"getCashAmountGivenfCashAmount","outputs":[{"internalType":"int256","name":"","type":"int256"},{"internalType":"int256","name":"","type":"int256"}],"stateMutability":"view","type":"function"},{"inputs":[{"internalType":"uint16","name":"currencyId","type":"uint16"},{"internalType":"uint256","name":"fCashAmount","type":"uint256"},{"internalType":"uint256","name":"maturity","type":"uint256"},{"internalType":"uint32","name":"minLendRate","type":"uint32"},{"internalType":"uint256","name":"blockTime","type":"uint256"}],"name":"getDepositFromfCashLend","outputs":[{"internalType":"uint256","name":"depositAmountUnderlying","type":"uint256"},{"internalType":"uint256","name":"depositAmountPrimeCash","type":"uint256"},{"internalType":"uint8","name":"marketIndex","type":"uint8"},{"internalType":"bytes32","name":"encodedTrade","type":"bytes32"}],"stateMutability":"view","type":"function"},{"inputs":[],"name":"getLibInfo","outputs":[{"internalType":"address","name":"","type":"address"}],"stateMutability":"pure","type":"function"},{"inputs":[{"internalType":"uint256","name":"maturity","type":"uint256"},{"internalType":"uint256","name":"blockTime","type":"uint256"}],"name":"getMarketIndex","outputs":[{"internalType":"uint8","name":"marketIndex","type":"uint8"}],"stateMutability":"pure","type":"function"},{"inputs":[{"internalType":"uint16","name":"currencyId","type":"uint16"},{"internalType":"uint256","name":"maturity","type":"uint256"},{"internalType":"int256","name":"notional","type":"int256"},{"internalType":"uint256","name":"blockTime","type":"uint256"},{"internalType":"bool","name":"riskAdjusted","type":"bool"}],"name":"getPresentfCashValue","outputs":[{"internalType":"int256","name":"presentValue","type":"int256"}],"stateMutability":"view","type":"function"},{"inputs":[{"internalType":"uint16","name":"currencyId","type":"uint16"},{"internalType":"uint256","name":"fCashBorrow","type":"uint256"},{"internalType":"uint256","name":"maturity","type":"uint256"},{"internalType":"uint32","name":"maxBorrowRate","type":"uint32"},{"internalType":"uint256","name":"blockTime","type":"uint256"}],"name":"getPrincipalFromfCashBorrow","outputs":[{"internalType":"uint256","name":"borrowAmountUnderlying","type":"uint256"},{"internalType":"uint256","name":"borrowAmountPrimeCash","type":"uint256"},{"internalType":"uint8","name":"marketIndex","type":"uint8"},{"internalType":"bytes32","name":"encodedTrade","type":"bytes32"}],"stateMutability":"view","type":"function"},{"inputs":[{"internalType":"uint16","name":"currencyId","type":"uint16"},{"internalType":"int88","name":"netCashToAccount","type":"int88"},{"internalType":"uint256","name":"marketIndex","type":"uint256"},{"internalType":"uint256","name":"blockTime","type":"uint256"}],"name":"getfCashAmountGivenCashAmount","outputs":[{"internalType":"int256","name":"","type":"int256"}],"stateMutability":"view","type":"function"},{"inputs":[{"internalType":"uint16","name":"currencyId","type":"uint16"},{"internalType":"uint256","name":"borrowedAmountExternal","type":"uint256"},{"internalType":"uint256","name":"maturity","type":"uint256"},{"internalType":"uint32","name":"maxBorrowRate","type":"uint32"},{"internalType":"uint256","name":"blockTime","type":"uint256"},{"internalType":"bool","name":"useUnderlying","type":"bool"}],"name":"getfCashBorrowFromPrincipal","outputs":[{"internalType":"uint88","name":"fCashDebt","type":"uint88"},{"internalType":"uint8","name":"marketIndex","type":"uint8"},{"internalType":"bytes32","name":"encodedTrade","type":"bytes32"}],"stateMutability":"view","type":"function"},{"inputs":[{"internalType":"uint16","name":"currencyId","type":"uint16"},{"internalType":"uint256","name":"depositAmountExternal","type":"uint256"},{"internalType":"uint256","name":"maturity","type":"uint256"},{"internalType":"uint32","name":"minLendRate","type":"uint32"},{"internalType":"uint256","name":"blockTime","type":"uint256"},{"internalType":"bool","name":"useUnderlying","type":"bool"}],"name":"getfCashLendFromDeposit","outputs":[{"internalType":"uint88","name":"fCashAmount","type":"uint88"},{"internalType":"uint8","name":"marketIndex","type":"uint8"},{"internalType":"bytes32","name":"encodedTrade","type":"bytes32"}],"stateMutability":"view","type":"function"},{"inputs":[{"internalType":"address","name":"account","type":"address"},{"internalType":"uint256","name":"blockTime","type":"uint256"}],"name":"nTokenGetClaimableIncentives","outputs":[{"internalType":"uint256","name":"","type":"uint256"}],"stateMutability":"view","type":"function"},{"inputs":[{"internalType":"uint16","name":"currencyId","type":"uint16"}],"name":"nTokenPresentValueAssetDenominated","outputs":[{"internalType":"int256","name":"","type":"int256"}],"stateMutability":"view","type":"function"},{"inputs":[{"internalType":"uint16","name":"currencyId","type":"uint16"}],"name":"nTokenPresentValueUnderlyingDenominated","outputs":[{"internalType":"int256","name":"","type":"int256"}],"stateMutability":"view","type":"function"},{"inputs":[],"name":"owner","outputs":[{"internalType":"address","name":"","type":"address"}],"stateMutability":"view","type":"function"},{"inputs":[],"name":"pauseGuardian","outputs":[{"internalType":"address","name":"","type":"address"}],"stateMutability":"view","type":"function"},{"inputs":[],"name":"pauseRouter","outputs":[{"internalType":"address","name":"","type":"address"}],"stateMutability":"view","type":"function"}],"bytecode":"608060405234801561001057600080fd5b5061547e806100206000396000f3fe608060405234801561001057600080fd5b50600436106101375760003560e01c806382463367116100b8578063bac9e8b11161007c578063bac9e8b114610286578063c4c96dae146102a8578063c50a6134146102b0578063c52c43e1146102d1578063f11ff573146102e4578063f83a8608146102f757610137565b8063824633671461023d5780638355e895146102455780638da5cb5b1461025857806397d6db2e14610260578063aaae47b51461027357610137565b8063416a1587116100ff578063416a1587146101c15780635953c77b146101e45780636a09a2a3146102045780636d48c794146102175780636ebbf1741461022a57610137565b8063094614df1461013c5780630eb49480146101665780631a05bce11461018657806324a3d622146101995780633b2987b3146101ae575b600080fd5b61014f61014a366004614f53565b61030a565b60405161015d9291906151c6565b60405180910390f35b610179610174366004614f9b565b610328565b60405161015d91906151bd565b610179610194366004614ee3565b61035f565b6101a1610375565b60405161015d919061516a565b6101796101bc366004614ee3565b610384565b6101d46101cf366004615022565b6103a7565b60405161015d94939291906153f8565b6101f76101f2366004615126565b61044d565b60405161015d919061543a565b6101796102123660046150cd565b610479565b610179610225366004614efd565b6104f5565b610179610238366004614f18565b61055c565b6101a16105bf565b610179610253366004614f53565b6105ce565b6101a16105f2565b61017961026e366004614ead565b610609565b6101d4610281366004615022565b610741565b61029961029436600461506f565b6107d3565b60405161015d93929190615416565b6101a161084e565b6102c36102be366004614ee3565b610866565b60405161015d92919061535c565b6101796102df366004614fd3565b610891565b6101796102f2366004614efd565b6108d9565b61029961030536600461506f565b61091c565b60008061031b868686866000610981565b9150915094509492505050565b60008184111561033757600080fd5b60006103438684610a7d565b5090506103538187878787610b36565b9150505b949350505050565b60008061036b83610b5d565b509150505b919050565b6002546001600160a01b031681565b600080600061039284610b5d565b80516040015191935091506103579083610b92565b6000806000806103b7878661044d565b915060008260ff16116103c957600080fd5b6a7fffffffffffffffffffff88106103e057600080fd5b60006103f36103ee8a610bbe565b610bd8565b905060008061040e8c848760ff168b8d63ffffffff16610981565b9150915061041c8c82610be6565b965061042782610c32565b955061043960018685600a0b8c610c41565b508094505050505095509550955095915050565b600080600061045e60078686610c9f565b915091508061046d5781610470565b60005b95945050505050565b600061048483610d2e565b60006104938461ffff16610d6b565b905060006104aa826001600160581b038616610d7e565b90506104b4614be1565b6104be8187610dae565b8051604001516000906104dd9083906104d79086610dc7565b42610de9565b90506104e881610c32565b9450505050505b92915050565b600080600061050385610b5d565b91509150600061052a82604001516105248588610e9690919063ffffffff16565b90610ee4565b8251604001519091506000906105409083610b92565b90506104e86105578861055284610f15565b610be6565b610bbe565b60008161056a5750816105b8565b60006105768542610a7d565b50905060006105858286610b92565b905060006105996105578861055285610f15565b9050600082126105a957806105b2565b6105b281610bd8565b93505050505b9392505050565b6001546001600160a01b031681565b60006105d985610d2e565b60006105e486610f36565b905061035385858584610f57565b60005464010000000090046001600160a01b031681565b60008061061584610fe9565b905061061f614c2a565b600061062a8361109d565b156106a05760608301516106429083908890866110aa565b6000826040015113156106a0576000610662836000015161ffff166110cd565b9050600061067082886110f3565b50915050600061068e8584846106898960400151610c32565b611189565b905061069a84826112b6565b93505050505b60808301515b6001600160701b03198116156107375760f081901c613fff166106cb848983886110aa565b6000846040015113156107245760006106eb856000015161ffff166110cd565b905060006106f9828a6110f3565b5091505060006107128784846106898b60400151610c32565b905061071e86826112b6565b95505050505b5060101b6001600160801b0319166106a6565b5095945050505050565b600080600080610751878661044d565b915060008260ff161161076357600080fd5b6a7fffffffffffffffffffff881061077a57600080fd5b600061078589610bbe565b90506000806107a08c848760ff168b8d63ffffffff16610981565b915091506107ae8c82610be6565b96506107c16107bc83610bd8565b610c32565b955061043960008685600a0b8c610c41565b60008060006107e2878661044d565b915060008260ff16116107f457600080fd5b6000806108028b8b886112c8565b91509150600061081f6108148461132e565b8660ff168a85610f57565b90506000811261082e57600080fd5b61083b600186838c610c41565b9d959c509a509398505050505050505050565b73__MigrateIncentives_____________________90565b61086e614c86565b610876614ca7565b61087f83611360565b915061088a83611372565b9050915091565b60008061089d87610f36565b905082156108b8576108b18186888761143a565b9150610737565b6108ce8587866108c985838361148a565b611573565b979650505050505050565b6000806108e68442610a7d565b50905060006108f88561ffff16610d6b565b905060006109068286610d7e565b90506109128382610dc7565b9695505050505050565b600080600061092b878661044d565b915060008260ff161161093d57600080fd5b60008061094b8b8b886112c8565b91509150600061096561081461096085610bd8565b61132e565b90508060001261097457600080fd5b61083b600086838c610c41565b60008061098d87610d2e565b600061099888610f36565b90506109a2614cf3565b6109b082828960008a6115b9565b858160200151116109dc5760405162461bcd60e51b81526004016109d3906152d8565b60405180910390fd5b602081015186900360006109f78385600a8d900b858d611634565b5090508615610a595760008a600a0b1215610a3557868360a001511115610a305760405162461bcd60e51b81526004016109d3906152a8565b610a59565b868360a001511015610a595760405162461bcd60e51b81526004016109d3906152a8565b60408401518190610a6a9082610b92565b95509550505050505b9550959350505050565b610a85614c86565b610a8d614ca7565b610a9684611372565b90508281600001511015610ac7576000610aaf85611762565b9050610abd858383876117dd565b509150610ad49050565b80518314610ad457600080fd5b6040518060600160405280610afd6105578460a001518560c001516118de90919063ffffffff16565b8152602001610b206105578460a001518560e001516118de90919063ffffffff16565b8152602001826060015181525091509250929050565b600080610b44868685611905565b9050610b5187828661192d565b50979650505050505050565b6000610b67614be1565b42610b70614be1565b610b7a8186610dae565b6000610b86828461199b565b94509092505050915091565b60006105b86ec097ce7bc90715b34b9f1000000000610524856000015185610e9690919063ffffffff16565b60006001600160ff1b03821115610bd457600080fd5b5090565b60006104ef60001983610e96565b600080610bf68461ffff16610d6b565b90506000808412610c1857610c13610c0e8386611a4f565b610f15565b610c2b565b610c2b610c2485610bd8565b8390611a87565b9050610470815b600080821215610bd457600080fd5b6000806000610c4f85610f15565b90506001600160581b03811115610c6557600080fd5b60788463ffffffff16901b609882901b60f08860ff16901b60f88a6005811115610c8b57fe5b60ff16901b17171797909650945050505050565b60008060008511610caf57600080fd5b6007851115610cbd57600080fd5b6000610cc884611ac3565b905060015b868111610d20576000610ce9610ce283611ae4565b84906112b6565b905086811415610d015750925060009150610d269050565b86811115610d175750925060019150610d269050565b50600101610ccd565b50600080fd5b935093915050565b8061ffff166000108015610d4c575060005461ffff90811690821611155b610d685760405162461bcd60e51b81526004016109d390615304565b50565b610d73614d3b565b6104ef826001611b88565b60006305f5e10083604001511415610d975750806104ef565b60408301516105b890610524846305f5e100610e96565b610db88282611c22565b610dc181610f36565b90915250565b81516000906105b890610524846ec097ce7bc90715b34b9f1000000000610e96565b600080831215610df857600080fd5b82610e05575060006105b8565b608084015115610e3d576000610e1a85611cbe565b9050828111610e3b5760405162461bcd60e51b81526004016109d390615204565b505b6000610e49858461199b565b90506000811215610e5957600080fd5b6040850151610e6b57839150506105b8565b610e8681610524876040015187610e9690919063ffffffff16565b9150506105b8565b509392505050565b818102600019831415610ec657811580610eb8575082828281610eb557fe5b05145b610ec157600080fd5b6104ef565b821580610edb575081838281610ed857fe5b05145b6104ef57600080fd5b600081600019148015610efa5750600160ff1b83145b15610f0457600080fd5b818381610f0d57fe5b059392505050565b600080821215610f2f57610f2882610bd8565b9050610370565b5080610370565b610f3e614d6a565b6000610f4a8342610a7d565b5090506105b88382611cef565b6000610f61614cf3565b610f6f8382876000886115b9565b83816020015111610f925760405162461bcd60e51b81526004016109d3906152d8565b60008482602001510390506000610fad856000015188611d32565b9050610fdd8184604001518a600a0b610fd787606001518a60400151610b9290919063ffffffff16565b86611d4c565b98975050505050505050565b610ff1614d96565b6000610ffb611e88565b6001600160a01b03841660009081526020918252604090819020815160c081018352905464ffffffffff811682526001600160f81b0319600160281b820460f81b169382019390935260ff600160301b840481169282019290925261ffff600160381b84041660608201526001600160701b03196901000000000000000000840460701b166080820152600160d81b90920416151560a0820152915050919050565b6060015161ffff16151590565b6110b48242610a7d565b506101208501526110c784848484611e95565b50505050565b6000806110d8611f3d565b6000938452602052505060409020546001600160a01b031690565b600080600061110185611f4a565b9194509250905080841180156111175750600081115b80156111235750600083115b1561118257600061113386611fab565b505050915050600061115e6111556305f5e100846118de90919063ffffffff16565b84880387612014565b905061116a84826112b6565b93506001600160801b03841061117f57600080fd5b50505b9250925092565b60e08401516000901561124a5773__MigrateIncentives_____________________63e0c01a72856111be8860400151610c32565b8860e001518961010001516040518563ffffffff1660e01b81526004016111e89493929190615197565b60206040518083038186803b15801561120057600080fd5b505af4158015611214573d6000803e3d6000fd5b505050506040513d601f19601f82011682018060405250810190611238919061510e565b600060e0870181905261010087015290505b61128c61128586610100015161127f670de0b6b3a7640000611279886112738c60400151610c32565b906118de565b90612036565b90612055565b82906112b6565b90506112a4670de0b6b3a764000061127984866118de565b85610100018181525050949350505050565b6000828201838110156105b857600080fd5b60006112d2614d6a565b60006112dd85610bbe565b90506112e886610f36565b915083156113135760006112ff8761ffff16610d6b565b905061130b8183610d7e565b935050611325565b60408201516113229082610b92565b92505b50935093915050565b60006a7fffffffffffffffffffff19821280159061135757506a7fffffffffffffffffffff8213155b610bd457600080fd5b611368614c86565b6104ef824261206a565b61137a614ca7565b600061138461212b565b61ffff93841660009081526020918252604090819020805464ffffffffff81168652600160281b81046001600160581b03908116948701949094526001820154841692860192909252600160d81b820463ffffffff166060860152600160801b9091049091166080840152600201546001600160501b0380821660a0850152600160501b8204811660c0850152600160a01b82041660e0840152600160f01b900460ff1661012c02909216610100820152919050565b60008361144957506000610357565b60008085136114625761145d868585612138565b61146d565b61146d868585612174565b9050633b9aca0081131561148057600080fd5b61035385826121b5565b600080600061149e86602001518686610c9f565b9150915060006114ad876121ce565b9050816114cd5786516114c69061ffff168783886121e2565b9350611569565b60006114d886611ac3565b905060006114ef6114e886611ae4565b83906112b6565b905060006115078a6000015161ffff1683868b6121e2565b905060008087600114156115255750506040808b0151015188611554565b61153b61153460018a03611ae4565b86906112b6565b90506115518c6000015161ffff1682888d6121e2565b91505b611561818584868f612281565b985050505050505b5050509392505050565b60008461158257506000610357565b600061158e8585612055565b9050600061159c82856122df565b9050633b9aca008113156115af57600080fd5b6108ce87826121b5565b826001111580156115ce575084602001518311155b6115ea5760405162461bcd60e51b81526004016109d390615280565b60006116076115f885611ae4565b61160184611ac3565b906112b6565b905061162c866000015161ffff168284866116218b6121ce565b8a949392919061234c565b505050505050565b6000806000831161164457600080fd5b8487604001511361165a57506000905080610a73565b600061166a876000015185611d32565b9050600061168989606001518960400151610b9290919063ffffffff16565b9050600080600061169e858d8d878e8e612376565b92509250925082600014156116be57600080965096505050505050610a73565b60408c01516116cd908b612454565b60408d01526116dc8483612470565b935060006116f060008e6040015187612486565b9050633b9aca008111156117105760008097509750505050505050610a73565b600061171c87836124c3565b905080611736576000809850985050505050505050610a73565b60a08e01525060408b015161174f908d90858585612576565b9650965050505050509550959350505050565b60008061176e836125cb565b6001600160a01b031663a77c05b86040518163ffffffff1660e01b8152600401604080518083038186803b1580156117a557600080fd5b505afa1580156117b9573d6000803e3d6000fd5b505050506040513d601f19601f820116820180604052508101906103579190615147565b6117e5614ca7565b60008060006117f58886896125fb565b60c08b019290925260e08a01929092526020890151919350915061181990836112b6565b60208801526080870151600090156118475760808801516118449061183e8982612055565b90612706565b90505b61186761185c670de0b6b3a7640000836112b6565b60a08a015190612723565b60a08901525060808701869052600061187e612740565b61ffff8a1660009081526020919091526040902054885163ffffffff600160a01b909204821692506118c9916118b890859085906112b616565b8a606001518b61010001518a61274d565b60608901525050928552509294909350915050565b6000826118ed575060006104ef565b828202828482816118fa57fe5b04146105b857600080fd5b61190d614c86565b600061191985856127d5565b909250905080610e8e576107378584610a7d565b60008061193a8484610dc7565b91506119468483612868565b90506000821215610d2657611991600161198b876000015161052489602001516119858a602001516105248c600001518b610e9690919063ffffffff16565b90610e96565b906128a1565b9150935093915050565b6000806119a784611cbe565b90508281116119b7576001810392505b5060006119c484846128b7565b50905060006119f28560c0015186600001516000015161ffff16876080015187896000015160200151612a0c565b905060008115611a245760c0860151865180516080890151611a20939261ffff909216918990600088612ab8565b5090505b60608601518651604001516109129190611a4990611a429085610dc7565b8690612470565b90612470565b60006305f5e10083604001511415611a685750806104ef565b6105b86305f5e100610524856040015185610e9690919063ffffffff16565b60006305f5e10083604001511215611aaf57611aa86001611a498585611a4f565b90506104ef565b6105b883611abe846001612470565b611a4f565b60006276a700821015611ad557600080fd5b6276a700825b06909103919050565b60008160011415611af957506276a700610370565b8160021415611b0c575062ed4e00610370565b8160031415611b2057506301da9c00610370565b8160041415611b3457506303b53800610370565b8160051415611b4857506309450c00610370565b8160061415611b5c575063128a1800610370565b8160071415611b7057506325143000610370565b60405162461bcd60e51b81526004016109d390615259565b611b90614d3b565b6000611b9a612b36565b6000858152602082815260408083208715158452825291829020825160a08101845281546001600160a01b038116825260ff600160a01b82048116151594830194909452600160b01b81048416600a0a9482019490945293945092916060830191600160a81b909104166005811115611c0f57fe5b8152600060209091015295945050505050565b611c2f8161ffff166110cd565b6001600160a01b031660c0830181905260009081908190611c4f90611fab565b94509450945050506000611c668660c00151611f4a565b505060808701859052604087018190526001600160d81b0319831660a088015260c0870151909150611c9a90846000612b43565b602087015260c0860151611cae9086612bd6565b6060909601959095525050505050565b6000816080015160001415611cd557506000610370565b60808201516276a70090611ce890611ac3565b0192915050565b611cf7614d6a565b6000611d068461ffff16612c2f565b6040805160808101825261ffff96909616865260ff821660208701528501939093525050606082015290565b611d3a614dcb565b6105b88383611d47612c4c565b612c59565b600083611d5857600080fd5b82841315611d785760405162461bcd60e51b81526004016109d390615331565b6000806000611d9c8989888860008c13611d93576001611d97565b6000195b612cb0565b90506000871215611dc657611db087610bd8565b9250611dbf6103ee88836121b5565b9150611df3565b611dd36103ee88836121b5565b9250611df06103ee611de98b6080015188612ce1565b89906121b5565b91505b506000611e0489898886898c612d47565b905060005b60fa8160ff161015611e6f5783830380611e2a578395505050505050610470565b6000611e3a8c8c8b888c8f612d47565b90506000611e5f611e58611e4e84886128a1565b6105248587610e96565b87906128a1565b9596509093505050600101611e09565b5060405162461bcd60e51b81526004016109d390615231565b6000806104ef6001612d66565b8161ffff166000108015611eaf5750613fff61ffff831611155b611eb857600080fd5b61ffff8216808552611ecb908290612d78565b15611efa57611ee08383866101200151612e02565b61010088015260e087015260408601526020850152611f18565b6000602085018190526040850181905260e085018190526101008501525b50506000606083018190526080830181905260a0830181905260c09092019190915250565b6000806104ef6003612d66565b600080600080611f58612ebc565b6001600160a01b0395909516600090815260209590955250506040909220546bffffffffffffffffffffffff811693600160601b82046001600160801b03169350600160e01b90910463ffffffff169150565b600080600080600080611fbc612ec9565b6001600160a01b039097166000908152602097909752505060409094205461ffff81169563ffffffff62010000830481169650600160301b830416945060ff600160501b8304169350600160581b90910460d81b9150565b6000610357826112796301da9c00818861127389670de0b6b3a76400006118de565b600080821161204457600080fd5b81838161204d57fe5b049392505050565b60008282111561206457600080fd5b50900390565b612072614c86565b600061207d84611372565b905082816000015110156120bc5760008061209786612ed6565b90506120a5868483886117dd565b90935091506120b5868385612f2f565b50506120c9565b805183146120c957600080fd5b60405180606001604052806120f26105578460a001518560c001516118de90919063ffffffff16565b81526020016121156105578460a001518560e001516118de90919063ffffffff16565b8152602001826060015181525091505092915050565b6000806104ef601d612d66565b600080612146858585613163565b905080156121665761216161215b8585612055565b826122df565b610470565b633b9aca0095945050505050565b6000806121828585856131b3565b905061219161215b8585612055565b9150600061219e866131ed565b9050828112156121ac578092505b50509392505050565b60006105b86121c48484610e96565b633b9aca00610ee4565b6060015161012c60089190911c60ff160290565b6000806121ed613208565b905060006276a7006121fe85611ac3565b6000898152602085815260408083208b84528252808320949093018083529390522080549192509063ffffffff600160a01b8204811691600160c01b8104821691600160e01b90910416816122655760405162461bcd60e51b81526004016109d3906151d4565b6122728184848c8c61274d565b9b9a5050505050505050505050565b600081861061228f57600080fd5b84821061229b57600080fd5b8383106122c1576122ba846116018888036112798388038b88036118de565b9050610470565b6122ba6122d88787036112798688038a87036118de565b8590612055565b6000806122fc6122f76301da9c0061127986886118de565b613215565b905061230e81621dcd6560491b613233565b905061232161231c82613286565b6132a8565b905061233381621dcd6560491b6132fd565b9050600061234082613333565b60070b95945050505050565b60006276a70061235b85611ac3565b01905061236d8787878787878761333c565b50505050505050565b60008060008061238b868a6040015189612486565b9050633b9aca008111156123aa57600080600093509350935050612448565b60006123b68b836124c3565b905060006123d16103ee6123ca848a612ce1565b8a90613373565b905060006123e38d8460008c1261338c565b90506123fc6103ee6123f5838b612ce1565b8b90613373565b96508187131561240b57600080fd5b600061241783896128a1565b9050612431606461052461242a8f613404565b8490610e96565b95506124406103ee8988612470565b965050505050505b96509650969350505050565b600061246083836128a1565b905060008112156104ef57600080fd5b818101828112156000831215146104ef57600080fd5b60008083121561249557600080fd5b60008212156124a357600080fd5b6103576107bc6124b38486612470565b6124bd8688612454565b90613373565b6000808360800151116124d557600080fd5b633b9aca008211156124e657600080fd5b825182116125055782516040840151611aa891906112799085906118de565b8260200151821161253d576040830151835160208501516060860151611aa893926116019281900391611279918803908590036118de565b6105b883606001516116018560200151633b9aca00036112798760600151886080015103886020015188036118de90919063ffffffff16565b600080806125848786610dc7565b60608901519091506125969082612470565b60608901524260e089015260006125ad8886610dc7565b905060006125bb8989610dc7565b9a91995090975050505050505050565b6000806125d6613411565b61ffff939093166000908152602093909352505060409020546001600160a01b031690565b60008060008060008061260e898861341e565b895190955091935091506000906126359061262a908b90612055565b633b9aca00906118de565b905061266f6126646301da9c0061264c85856118de565b8161265357fe5b670de0b6b3a76400009190046112b6565b60e08a015190612723565b96506126916126866301da9c0061264c87856118de565b60c08a015190612723565b9550818314156126a85750600093506126fd915050565b60006126ca6126bf6301da9c0061264c87866118de565b60e08b015190612723565b905060006126d88983612055565b90506126f588611279838d604001516118de90919063ffffffff16565b965050505050505b93509350935093565b60006105b861271d84670de0b6b3a76400006118de565b83612036565b60006105b861273284846118de565b670de0b6b3a7640000612036565b6000806104ef6025612d66565b600080831161275b57600080fd5b8186111561276a575083610470565b60006127768388612055565b9050838111156127895785915050610470565b600061279582866134b8565b905060006127a7633b9aca0083612055565b90506127c8633b9aca006112796127be8a856118de565b6116018c876118de565b9998505050505050505050565b6127dd614c86565b6000806127e86134cb565b61ffff861660009081526020828152604080832088845290915290208054600160f01b900460ff169350909150821561285f5780546001600160501b03600160a01b820481169161283a9116826118de565b8552815461285890600160501b90046001600160501b0316826118de565b6020860152505b50509250929050565b60008082121561289b57612896600161198b8560200151610524876000015187610e9690919063ffffffff16565b6105b8565b50919050565b808203828113156000831215146104ef57600080fd5b602082015151516000906060908067ffffffffffffffff811180156128db57600080fd5b50604051908082528060200260200182016040528015612905578160200160208202803683370190505b509150612910614cf3565b60005b82811015612a0257865161292e90836001808501908a6115b9565b6000876020015160000151828151811061294457fe5b6020026020010151905060008160200151905060008061296484876134d8565b9150915061298d6129868c60c001518d600001516000015161ffff1686613553565b8290612470565b88868151811061299957fe5b60200260200101818152505060006129e36129dc6129d08b89815181106129bc57fe5b6020026020010151878f8c60c00151611573565b8e516040015190610dc7565b8490612470565b90506129ef8a82612470565b9950506001909401935061291392505050565b5050509250929050565b600060028211612a1e57506000610470565b6000612a2a8787613598565b905080612a38579050610470565b6000612a4385611ac3565b905085811415612a6d57507440008000000200200000000200000020000000002019169050610470565b60015b848111612aad576000612a8282611ae4565b830190506000612a9289836135cd565b509050612aa1858260006136d8565b94505050600101612a70565b508192505050610470565b6000806000612ac684613723565b90505b8015612b29576000612adb8983613748565b90506000612aed8c8c848c8c8c6137fb565b9050612af98582612470565b94506000811215612b0957600193505b612b15868460006136d8565b9550612b2086613723565b92505050612ac9565b5097509795505050505050565b6000806104ef6007612d66565b612b4b614e10565b612b53614e10565b60ff8416612b625790506105b8565b612b6c8585613857565b815260ff841660608201528267ffffffffffffffff81118015612b8e57600080fd5b50604051908082528060200260200182016040528015612bc857816020015b612bb5614e38565b815260200190600190039081612bad5790505b506020820152949350505050565b600080612be1613863565b6001600160a01b03851660009081526020828152604080832061ffff8816845290915281208054600160a81b9004600a90810b900b9450919250831215612c2757600080fd5b505092915050565b600080612c3a613870565b60009384526020525050604090205490565b6000806104ef601b612d66565b612c61614dcb565b6000612c6c8461387d565b61ffff861660009081526020859052604081209192509060048610612c92576001612c95565b60005b60ff1660028110612ca257fe5b0154905061091282826138b6565b600080612cc787612cc2858989612486565b6124c3565b90506000612cd988836000871261338c565b9050610fdd81865b600080612cf96122f76301da9c0061127987876118de565b90506000612d0d82621dcd6560491b613233565b90506000612d1a826132a8565b90506000612d2e82621dcd6560491b6132fd565b9050612d3981613333565b60070b979650505050505050565b600080612d578888888789612cb0565b9050610fdd611a4284836121b5565b6000620f4240826026811115611ce857fe5b60008115801590612d8b5750613fff8211155b612d9457600080fd5b6080830151606084015161ffff16831415612db35760019150506104ef565b6001600160701b0319811615612df85760f081901c613fff1683811415612de55750600160fe1b9081161490506104ef565b5060101b6001600160801b031916612db3565b5060009392505050565b6000806000806000612e12613863565b6001600160a01b03891660009081526020828152604080832061ffff8c168452909152902080546001600160501b0381169650600160501b900463ffffffff1694509091508315612e7f578054612e7890600160701b900466ffffffffffffff166139d5565b9250612e94565b8054600160701b900466ffffffffffffff1692505b8054612eaf908890600160a81b9004600a90810b900b6139e3565b9550505093509350935093565b6000806104ef6011612d66565b6000806104ef6002612d66565b600080612ee2836125cb565b6001600160a01b031663ef81f2166040518163ffffffff1660e01b81526004016040805180830381600087803b158015612f1b57600080fd5b505af11580156117b9573d6000803e3d6000fd5b6000612f3961212b565b60008561ffff1681526020019081526020016000209050612f5d8260000151613a0a565b815464ffffffffff191664ffffffffff9190911617815560a0820151612f8290613a1e565b60028201805469ffffffffffffffffffff19166001600160501b039290921691909117905560c0820151612fb590613a1e565b81600201600a6101000a8154816001600160501b0302191690836001600160501b03160217905550612fea8260e00151613a1e565b8160020160146101000a8154816001600160501b0302191690836001600160501b0316021790555061301f8260200151613a34565b81546001600160581b0391909116600160281b026fffffffffffffffffffffff000000000019909116178155604082015161305990613a34565b6001820180546affffffffffffffffffffff19166001600160581b0392909216919091179055608082015161308d90613a34565b81546001600160581b0391909116600160801b026affffffffffffffffffffff60801b1990911617815560608201516130c590613a4a565b815463ffffffff91909116600160d81b0263ffffffff60d81b1990911617815582156131115760006130f684610bbe565b90506131028582613a5d565b61310f610fee8683613a99565b505b8361ffff167fef25641e225e493886510ca1ad6584fa7b442b9fea820a29d1de3ce27d270fd28360a001518460c001518560e00151604051613155939291906153e2565b60405180910390a250505050565b600061317084848461148a565b9050600061317d85613b23565b90508082116131905760009150506105b8565b808203915060006131a086613b30565b9050828110156121ac5795945050505050565b60006131c084848461148a565b90506131ce61128585613b3d565b905060006131db85613b4a565b905080821015610e8e57949350505050565b606001516207a12060109190911c60ff1602633b9aca000390565b6000806104ef600a612d66565b6000677fffffffffffffff82111561322c57600080fd5b5060401b90565b600081600f0b6000141561324657600080fd5b600082600f0b604085600f0b901b8161325b57fe5b05905060016001607f1b0319811280159061327d575060016001607f1b038113155b6105b857600080fd5b6000600f82900b60016001607f1b031914156132a157600080fd5b5060000390565b6000600160461b82600f0b126132bd57600080fd5b683fffffffffffffffff1982600f0b12156132da57506000610370565b6104ef608083600f0b700171547652b82fe1777d0ffda0d23a7d1202901d613b57565b6000600f83810b9083900b0260401d60016001607f1b0319811280159061327d575060016001607f1b038113156105b857600080fd5b600f0b60401d90565b6133498787878685614607565b6133628760e001518860a001518960c00151858861274d565b60c090970196909652505050505050565b60006105b861338684633b9aca00610e96565b83610ee4565b6000806133ab60646112798760e00151876118de90919063ffffffff16565b90508460a001518110156133c0575060a08401515b8460c001518111156133d3575060c08401515b82156133ea576133e384826112b6565b9150610e8e565b8381116133f957808403610470565b506000949350505050565b6060015160181c60ff1690565b6000806104ef601f612d66565b60008060008060008560200151111561346b5761346861344f8660c0015187602001516118de90919063ffffffff16565b60e08701516040880151613462916118de565b906134b8565b90505b6000613476876146c1565b905061348281836124c3565b94508115613499576134968186600161338c565b93505b60208601511561117f576134ad85836146f4565b925050509250925092565b60006105b861271d84633b9aca006118de565b6000806104ef601e612d66565b6000806134e8846040015161470d565b80156134f957506000846060015112155b61350257600080fd5b613525836080015161052486606001518660600151610e9690919063ffffffff16565b915061354a836080015161052486606001518660400151610e9690919063ffffffff16565b90509250929050565b60008061355e614723565b6001600160a01b03861660009081526020918252604080822087835283528082208683529092522054600f90810b900b9150509392505050565b6000806135a3614730565b6001600160a01b038516600090815260209182526040808220868352909252205491505092915050565b60008060006135db8561473d565b9050620151808406156135f55760008092509250506136d1565b8381106136095760008092509250506136d1565b6201518081850304605a8111613626579250600191506136d19050565b6101688111613665576000620151806207e900840604820160591901905060068104605a016006828161365557fe5b06600014945094505050506136d1565b61087081116136955760006201518062278d00840604820161016719019050601e8104608701601e828161365557fe5b611de281116136c5576000620151806276a700840604820161086f19019050605a810460c301605a828161365557fe5b61010060009350935050505b9250929050565b6000600183101580156136ed57506101008311155b6136f657600080fd5b811561370f5750600160ff1b60001983011c83176105b8565b50600160ff1b60001983011c1983166105b8565b60008161373257506000610370565b61373b82614759565b60ff036001019050919050565b60008161375457600080fd5b61010082111561376357600080fd5b600061376e8461473d565b90506000605a841161378957506201518083020190506104ef565b608784116137b1575060591983016207e900908102908206909103016276a7000190506104ef565b60c384116137da5750608619830162278d00908102908206909103016301da9c000190506104ef565b5060c21983016276a70090810290820690910301630b1fa8000190506104ef565b600080613809888888613553565b9050848611613819579050610912565b82156138335761382b8482888861143a565b915050610912565b600061384085888861148a565b905061384e82888884611573565b92505050610912565b6060610e8e83836147f2565b6000806104ef6006612d66565b6000806104ef6009612d66565b60008160001061388c57600080fd5b600782111561389a57600080fd5b600482106138ab57600482036138ad565b815b60080292915050565b6138be614dcb565b6064633b9aca008360ff8616602081106138d457fe5b1a02816138dd57fe5b0481526064633b9aca008360ff8616600101602081106138f957fe5b1a028161390257fe5b048160200181815250506139278260028560ff16016020811061392157fe5b1a61480a565b60808201819052610100908360ff86166003016020811061394457fe5b1a028161394d57fe5b0460408201526080810151610100908360ff86166004016020811061396e57fe5b1a028161397757fe5b0460608201526207a1208260ff85166005016020811061399357fe5b1a0260a0820152622625a08260ff8516600601602081106139b057fe5b1a0260c08201528160ff8416600701602081106139c957fe5b1a60e082015292915050565b600881901c60ff9091161b90565b60008082126139f35750806104ef565b82516020840151611aa89190610524908590610e96565b600064ffffffffff821115610bd457600080fd5b60006001600160501b03821115610bd457600080fd5b60006001600160581b03821115610bd457600080fd5b600063ffffffff821115610bd457600080fd5b6000811215613a6b57600080fd5b6000613a79610fee84612bd6565b9050613a858183612470565b9050613a94610fee848361483e565b505050565b6000613aa36148b2565b61ffff8416600090815260209190915260409081902054905163ad1c095d60e01b81526001600160a01b039091169150819063ad1c095d90613aeb908790869060040161517e565b600060405180830381600087803b158015613b0557600080fd5b505af1158015613b19573d6000803e3d6000fd5b5050505050505050565b60006104ef8260206148bf565b60006104ef8260486148bf565b60006104ef8260286148bf565b60006104ef8260306148bf565b6000600160461b82600f0b12613b6c57600080fd5b683fffffffffffffffff1982600f0b1215613b8957506000610370565b6001607f1b60006780000000000000008416600f0b1315613bbb5770016a09e667f3bcc908b2fb1366ea957d3e0260801c5b60008367400000000000000016600f0b1315613be8577001306fe0a31b7152de8d5a46305c85edec0260801c5b60008367200000000000000016600f0b1315613c15577001172b83c7d517adcdf7c8c50eb14a791f0260801c5b60008367100000000000000016600f0b1315613c425770010b5586cf9890f6298b92b71842a983630260801c5b60008367080000000000000016600f0b1315613c6f577001059b0d31585743ae7c548eb68ca417fd0260801c5b60008367040000000000000016600f0b1315613c9c57700102c9a3e778060ee6f7caca4f7a29bde80260801c5b60008367020000000000000016600f0b1315613cc95770010163da9fb33356d84a66ae336dcdfa3f0260801c5b600083600160381b16600f0b1315613cf257700100b1afa5abcbed6129ab13ec11dc95430260801c5b600083668000000000000016600f0b1315613d1e5770010058c86da1c09ea1ff19d294cf2f679b0260801c5b600083664000000000000016600f0b1315613d4a577001002c605e2e8cec506d21bfc89a23a00f0260801c5b600083662000000000000016600f0b1315613d7657700100162f3904051fa128bca9c55c31e5df0260801c5b600083661000000000000016600f0b1315613da2577001000b175effdc76ba38e31671ca9397250260801c5b600083660800000000000016600f0b1315613dce57700100058ba01fb9f96d6cacd4b180917c3d0260801c5b600083660400000000000016600f0b1315613dfa5770010002c5cc37da9491d0985c348c68e7b30260801c5b600083660200000000000016600f0b1315613e26577001000162e525ee054754457d59952920260260801c5b600083600160301b16600f0b1315613e4f5770010000b17255775c040618bf4a4ade83fc0260801c5b6000836580000000000016600f0b1315613e7a577001000058b91b5bc9ae2eed81e9b7d4cfab0260801c5b6000836540000000000016600f0b1315613ea557700100002c5c89d5ec6ca4d7c8acc017b7c90260801c5b6000836520000000000016600f0b1315613ed05770010000162e43f4f831060e02d839a9d16d0260801c5b6000836510000000000016600f0b1315613efb57700100000b1721bcfc99d9f890ea069117630260801c5b6000836508000000000016600f0b1315613f265770010000058b90cf1e6d97f9ca14dbcc16280260801c5b6000836504000000000016600f0b1315613f51577001000002c5c863b73f016468f6bac5ca2b0260801c5b6000836502000000000016600f0b1315613f7c57700100000162e430e5a18f6119e3c02282a50260801c5b600083600160281b16600f0b1315613fa5577001000000b1721835514b86e6d96efd1bfe0260801c5b60008364800000000016600f0b1315613fcf57700100000058b90c0b48c6be5df846c5b2ef0260801c5b60008364400000000016600f0b1315613ff95770010000002c5c8601cc6b9e94213c72737a0260801c5b60008364200000000016600f0b1315614023577001000000162e42fff037df38aa2b219f060260801c5b60008364100000000016600f0b131561404d5770010000000b17217fba9c739aa5819f44f90260801c5b60008364080000000016600f0b1315614077577001000000058b90bfcdee5acd3c1cedc8230260801c5b60008364040000000016600f0b13156140a157700100000002c5c85fe31f35a6a30da1be500260801c5b60008364020000000016600f0b13156140cb5770010000000162e42ff0999ce3541b9fffcf0260801c5b60008364010000000016600f0b13156140f557700100000000b17217f80f4ef5aadda455540260801c5b600083638000000016600f0b131561411e5770010000000058b90bfbf8479bd5a81b51ad0260801c5b600083634000000016600f0b1315614147577001000000002c5c85fdf84bd62ae30a74cc0260801c5b600083632000000016600f0b131561417057700100000000162e42fefb2fed257559bdaa0260801c5b600083631000000016600f0b1315614199577001000000000b17217f7d5a7716bba4a9ae0260801c5b600083630800000016600f0b13156141c257700100000000058b90bfbe9ddbac5e109cce0260801c5b600083630400000016600f0b13156141eb5770010000000002c5c85fdf4b15de6f17eb0d0260801c5b600083630200000016600f0b1315614214577001000000000162e42fefa494f1478fde050260801c5b600083630100000016600f0b131561423d5770010000000000b17217f7d20cf927c8e94c0260801c5b6000836280000016600f0b1315614265577001000000000058b90bfbe8f71cb4e4b33d0260801c5b6000836240000016600f0b131561428d57700100000000002c5c85fdf477b662b269450260801c5b6000836220000016600f0b13156142b55770010000000000162e42fefa3ae53369388c0260801c5b6000836210000016600f0b13156142dd57700100000000000b17217f7d1d351a389d400260801c5b6000836208000016600f0b13156143055770010000000000058b90bfbe8e8b2d3d4ede0260801c5b6000836204000016600f0b131561432d577001000000000002c5c85fdf4741bea6e77e0260801c5b6000836202000016600f0b131561435557700100000000000162e42fefa39fe95583c20260801c5b6000836201000016600f0b131561437d577001000000000000b17217f7d1cfb72b45e10260801c5b60008361800016600f0b13156143a457700100000000000058b90bfbe8e7cc35c3f00260801c5b60008361400016600f0b13156143cb5770010000000000002c5c85fdf473e242ea380260801c5b60008361200016600f0b13156143f2577001000000000000162e42fefa39f02b772c0260801c5b60008361100016600f0b13156144195770010000000000000b17217f7d1cf7d83c1a0260801c5b60008361080016600f0b1315614440577001000000000000058b90bfbe8e7bdcbe2e0260801c5b60008361040016600f0b131561446757700100000000000002c5c85fdf473dea871f0260801c5b60008361020016600f0b131561448e5770010000000000000162e42fefa39ef44d910260801c5b60008361010016600f0b13156144b557700100000000000000b17217f7d1cf79e9490260801c5b600083608016600f0b13156144db5770010000000000000058b90bfbe8e7bce5440260801c5b600083604016600f0b1315614501577001000000000000002c5c85fdf473de6eca0260801c5b600083602016600f0b131561452757700100000000000000162e42fefa39ef366f0260801c5b600083601016600f0b131561454d577001000000000000000b17217f7d1cf79afa0260801c5b600083600816600f0b131561457357700100000000000000058b90bfbe8e7bcd6d0260801c5b600083600416600f0b13156145995770010000000000000002c5c85fdf473de6b20260801c5b600083600216600f0b13156145bf577001000000000000000162e42fefa39ef3580260801c5b600083600116600f0b13156145e55770010000000000000000b17217f7d1cf79ab0260801c5b600f83810b60401d603f03900b1c60016001607f1b038111156104ef57600080fd5b6000614611613208565b6000868152602082815260408083208884528252808320868452825291829020808a5290890187905280546001600160501b03808216938b0193909352600160501b810490921660608a015263ffffffff600160a01b8304811660a08b0152600160c01b8304811660c08b0152600160e01b90920490911660e08901529091508084156146b05760018201546001600160501b03166080890152613b19565b600060808901525050505050505050565b6146c9614dcb565b60006146d3612c4c565b61ffff84166000908152602091909152604081205491506105b890826138b6565b60006105b861470384846118de565b633b9aca00612036565b6000600282108015906104ef5750506008101590565b6000806104ef600c612d66565b6000806104ef600b612d66565b60006201518082101561474f57600080fd5b6201518082611adb565b60008161476557600080fd5b600160801b821061477857608091821c91015b600160401b821061478b57604091821c91015b640100000000821061479f57602091821c91015b6201000082106147b157601091821c91015b61010082106147c257600891821c91015b601082106147d257600491821c91015b600482106147e257600291821c91015b6002821061037057600101919050565b6060806147ff84846148d2565b915061354a826149ea565b60008160ff166096106148255760ff8216622625a0026104ef565b5060951960ff919091160162e4e1c00263165a0bc00190565b600081121561484c57600080fd5b6000614856613863565b6001600160a01b03851660009081526020828152604080832061ffff8816845290915290209091506148878361132e565b8154600a9190910b6001600160581b0316600160a81b026001600160a81b0390911617905550505050565b6000806104ef6021612d66565b60609091015160ff911c16622625a00290565b606060088260ff1611156148e557600080fd5b60006148ef614bab565b6001600160a01b038516600090815260208290526040812091925060ff851667ffffffffffffffff8111801561492457600080fd5b5060405190808252806020026020018201604052801561495e57816020015b61494b614e38565b8152602001906001900390816149435790505b50905060005b8560ff1681101561073757600083826008811061497d57fe5b019050600083838151811061498e57fe5b602090810291909101810151835461ffff8116825264ffffffffff620100008204169282019290925260ff600160381b8304166040820152600160401b909104600a90810b900b60608201526080019190915250600101614964565b80516060908067ffffffffffffffff81118015614a0657600080fd5b50604051908082528060200260200182016040528015614a30578160200160208202803683370190505b50915060005b81811015614a8d576000848281518110614a4c57fe5b60200260200101519050614a6d816000015182602001518360400151614bb8565b848381518110614a7957fe5b602090810291909101015250600101614a36565b5060015b81811015614ba457805b600081118015614ad35750838181518110614ab257fe5b6020026020010151846001830381518110614ac957fe5b6020026020010151115b15614b9b57838181518110614ae457fe5b6020026020010151846001830381518110614afb57fe5b6020026020010151856001840381518110614b1257fe5b60200260200101868481518110614b2557fe5b6020026020010182815250828152505050848181518110614b4257fe5b6020026020010151856001830381518110614b5957fe5b6020026020010151866001840381518110614b7057fe5b60200260200101878481518110614b8357fe5b60209081029190910101919091525260001901614a9b565b50600101614a91565b5050919050565b6000806104ef600d612d66565b67ffff000000000000603084901b1665ffffffffff00600884901b161760ff8216179392505050565b6040518060e00160405280614bf4614d6a565b8152602001614c01614e10565b815260006020820181905260408201819052606082018190526080820181905260a09091015290565b604051806101400160405280600061ffff1681526020016000815260200160008152602001600081526020016000815260200160008152602001600081526020016000815260200160008152602001614c81614c86565b905290565b60405180606001604052806000815260200160008152602001600081525090565b6040518061012001604052806000815260200160008152602001600081526020016000815260200160008152602001600081526020016000815260200160008152602001600081525090565b60405180610100016040528060008019168152602001600081526020016000815260200160008152602001600081526020016000815260200160008152602001600081525090565b6040805160a0810182526000808252602082018190529181018290529060608201908152602001600081525090565b6040805160808101825260008082526020820152908101614d89614c86565b8152600060209091015290565b6040805160c081018252600080825260208201819052918101829052606081018290526080810182905260a081019190915290565b60405180610100016040528060008152602001600081526020016000815260200160008152602001600081526020016000815260200160008152602001600081525090565b6040518060800160405280606081526020016060815260200160008152602001600081525090565b6040518060c00160405280600061ffff1681526020016000815260200160008152602001600081526020016000815260200160006003811115614c8157fe5b8035801515811461037057600080fd5b803561ffff8116811461037057600080fd5b803563ffffffff8116811461037057600080fd5b60008060408385031215614ebf578182fd5b82356001600160a01b0381168114614ed5578283fd5b946020939093013593505050565b600060208284031215614ef4578081fd5b6105b882614e87565b60008060408385031215614f0f578182fd5b614ed583614e87565b600080600060608486031215614f2c578081fd5b614f3584614e87565b925060208401359150614f4a60408501614e77565b90509250925092565b60008060008060808587031215614f68578081fd5b614f7185614e87565b9350602085013580600a0b8114614f86578182fd5b93969395505050506040820135916060013590565b60008060008060808587031215614fb0578384fd5b614fb985614e87565b966020860135965060408601359560600135945092505050565b600080600080600060a08688031215614fea578081fd5b614ff386614e87565b945060208601359350604086013592506060860135915061501660808701614e77565b90509295509295909350565b600080600080600060a08688031215615039578081fd5b61504286614e87565b9450602086013593506040860135925061505e60608701614e99565b949793965091946080013592915050565b60008060008060008060c08789031215615087578081fd5b61509087614e87565b955060208701359450604087013593506150ac60608801614e99565b9250608087013591506150c160a08801614e77565b90509295509295509295565b600080604083850312156150df578182fd5b6150e883614e87565b915060208301356001600160581b0381168114615103578182fd5b809150509250929050565b60006020828403121561511f578081fd5b5051919050565b60008060408385031215615138578182fd5b50508035926020909101359150565b60008060408385031215615159578182fd5b505080516020909101519092909150565b6001600160a01b0391909116815260200190565b6001600160a01b03929092168252602082015260400190565b6001600160a01b0394909416845260208401929092526040830152606082015260800190565b90815260200190565b918252602082015260400190565b60208082526016908201527513585c9ad95d081b9bdd081a5b9a5d1a585b1a5e995960521b604082015260600190565b60208082526013908201527214995c5d5a5c995cc81cd95d1d1b195b595b9d606a1b604082015260600190565b6020808252600e908201526d4e6f20636f6e76657267656e636560901b604082015260600190565b6020808252600d908201526c092dcecc2d8d2c840d2dcc8caf609b1b604082015260600190565b6020808252600e908201526d125b9d985b1a59081b585c9ad95d60921b604082015260600190565b6020808252601690820152755472616465206661696c65642c20736c69707061676560501b604082015260600190565b602080825260129082015271496e76616c696420626c6f636b2074696d6560701b604082015260600190565b602080825260139082015272125b9d985b1a590818dd5c9c995b98de481a59606a1b604082015260600190565b60208082526011908201527013dd995c8813585c9ad95d08131a5b5a5d607a1b604082015260600190565b6000610180820190508351825260208401516020830152604084015160408301528251606083015260208301516080830152604083015160a0830152606083015160c0830152608083015160e083015260a0830151610100818185015260c085015161012085015260e08501516101408501528085015161016085015250509392505050565b9283526020830191909152604082015260600190565b938452602084019290925260ff166040830152606082015260800190565b6001600160581b0393909316835260ff919091166020830152604082015260600190565b60ff9190911681526020019056fea26469706673582212208a1397d7235e86af68fe121033c2ea15c66b9ebeeda11565a422c048ab179fec64736f6c63430007060033","bytecodeSha1":"8fd840fb8ed975255cbfb2265c86c0cef5f65f93","compiler":{"evm_version":"istanbul","optimizer":{"enabled":true,"runs":200},"version":"0.7.6+commit.7338295f"},"contractName":"CalculationViews","deployedBytecode":"608060405234801561001057600080fd5b50600436106101375760003560e01c806382463367116100b8578063bac9e8b11161007c578063bac9e8b114610286578063c4c96dae146102a8578063c50a6134146102b0578063c52c43e1146102d1578063f11ff573146102e4578063f83a8608146102f757610137565b8063824633671461023d5780638355e895146102455780638da5cb5b1461025857806397d6db2e14610260578063aaae47b51461027357610137565b8063416a1587116100ff578063416a1587146101c15780635953c77b146101e45780636a09a2a3146102045780636d48c794146102175780636ebbf1741461022a57610137565b8063094614df1461013c5780630eb49480146101665780631a05bce11461018657806324a3d622146101995780633b2987b3146101ae575b600080fd5b61014f61014a366004614f53565b61030a565b60405161015d9291906151c6565b60405180910390f35b610179610174366004614f9b565b610328565b60405161015d91906151bd565b610179610194366004614ee3565b61035f565b6101a1610375565b60405161015d919061516a565b6101796101bc366004614ee3565b610384565b6101d46101cf366004615022565b6103a7565b60405161015d94939291906153f8565b6101f76101f2366004615126565b61044d565b60405161015d919061543a565b6101796102123660046150cd565b610479565b610179610225366004614efd565b6104f5565b610179610238366004614f18565b61055c565b6101a16105bf565b610179610253366004614f53565b6105ce565b6101a16105f2565b61017961026e366004614ead565b610609565b6101d4610281366004615022565b610741565b61029961029436600461506f565b6107d3565b60405161015d93929190615416565b6101a161084e565b6102c36102be366004614ee3565b610866565b60405161015d92919061535c565b6101796102df366004614fd3565b610891565b6101796102f2366004614efd565b6108d9565b61029961030536600461506f565b61091c565b60008061031b868686866000610981565b9150915094509492505050565b60008184111561033757600080fd5b60006103438684610a7d565b5090506103538187878787610b36565b9150505b949350505050565b60008061036b83610b5d565b509150505b919050565b6002546001600160a01b031681565b600080600061039284610b5d565b80516040015191935091506103579083610b92565b6000806000806103b7878661044d565b915060008260ff16116103c957600080fd5b6a7fffffffffffffffffffff88106103e057600080fd5b60006103f36103ee8a610bbe565b610bd8565b905060008061040e8c848760ff168b8d63ffffffff16610981565b9150915061041c8c82610be6565b965061042782610c32565b955061043960018685600a0b8c610c41565b508094505050505095509550955095915050565b600080600061045e60078686610c9f565b915091508061046d5781610470565b60005b95945050505050565b600061048483610d2e565b60006104938461ffff16610d6b565b905060006104aa826001600160581b038616610d7e565b90506104b4614be1565b6104be8187610dae565b8051604001516000906104dd9083906104d79086610dc7565b42610de9565b90506104e881610c32565b9450505050505b92915050565b600080600061050385610b5d565b91509150600061052a82604001516105248588610e9690919063ffffffff16565b90610ee4565b8251604001519091506000906105409083610b92565b90506104e86105578861055284610f15565b610be6565b610bbe565b60008161056a5750816105b8565b60006105768542610a7d565b50905060006105858286610b92565b905060006105996105578861055285610f15565b9050600082126105a957806105b2565b6105b281610bd8565b93505050505b9392505050565b6001546001600160a01b031681565b60006105d985610d2e565b60006105e486610f36565b905061035385858584610f57565b60005464010000000090046001600160a01b031681565b60008061061584610fe9565b905061061f614c2a565b600061062a8361109d565b156106a05760608301516106429083908890866110aa565b6000826040015113156106a0576000610662836000015161ffff166110cd565b9050600061067082886110f3565b50915050600061068e8584846106898960400151610c32565b611189565b905061069a84826112b6565b93505050505b60808301515b6001600160701b03198116156107375760f081901c613fff166106cb848983886110aa565b6000846040015113156107245760006106eb856000015161ffff166110cd565b905060006106f9828a6110f3565b5091505060006107128784846106898b60400151610c32565b905061071e86826112b6565b95505050505b5060101b6001600160801b0319166106a6565b5095945050505050565b600080600080610751878661044d565b915060008260ff161161076357600080fd5b6a7fffffffffffffffffffff881061077a57600080fd5b600061078589610bbe565b90506000806107a08c848760ff168b8d63ffffffff16610981565b915091506107ae8c82610be6565b96506107c16107bc83610bd8565b610c32565b955061043960008685600a0b8c610c41565b60008060006107e2878661044d565b915060008260ff16116107f457600080fd5b6000806108028b8b886112c8565b91509150600061081f6108148461132e565b8660ff168a85610f57565b90506000811261082e57600080fd5b61083b600186838c610c41565b9d959c509a509398505050505050505050565b73__$b21a4dc043b77aa57922ad9143a3cb040e$__90565b61086e614c86565b610876614ca7565b61087f83611360565b915061088a83611372565b9050915091565b60008061089d87610f36565b905082156108b8576108b18186888761143a565b9150610737565b6108ce8587866108c985838361148a565b611573565b979650505050505050565b6000806108e68442610a7d565b50905060006108f88561ffff16610d6b565b905060006109068286610d7e565b90506109128382610dc7565b9695505050505050565b600080600061092b878661044d565b915060008260ff161161093d57600080fd5b60008061094b8b8b886112c8565b91509150600061096561081461096085610bd8565b61132e565b90508060001261097457600080fd5b61083b600086838c610c41565b60008061098d87610d2e565b600061099888610f36565b90506109a2614cf3565b6109b082828960008a6115b9565b858160200151116109dc5760405162461bcd60e51b81526004016109d3906152d8565b60405180910390fd5b602081015186900360006109f78385600a8d900b858d611634565b5090508615610a595760008a600a0b1215610a3557868360a001511115610a305760405162461bcd60e51b81526004016109d3906152a8565b610a59565b868360a001511015610a595760405162461bcd60e51b81526004016109d3906152a8565b60408401518190610a6a9082610b92565b95509550505050505b9550959350505050565b610a85614c86565b610a8d614ca7565b610a9684611372565b90508281600001511015610ac7576000610aaf85611762565b9050610abd858383876117dd565b509150610ad49050565b80518314610ad457600080fd5b6040518060600160405280610afd6105578460a001518560c001516118de90919063ffffffff16565b8152602001610b206105578460a001518560e001516118de90919063ffffffff16565b8152602001826060015181525091509250929050565b600080610b44868685611905565b9050610b5187828661192d565b50979650505050505050565b6000610b67614be1565b42610b70614be1565b610b7a8186610dae565b6000610b86828461199b565b94509092505050915091565b60006105b86ec097ce7bc90715b34b9f1000000000610524856000015185610e9690919063ffffffff16565b60006001600160ff1b03821115610bd457600080fd5b5090565b60006104ef60001983610e96565b600080610bf68461ffff16610d6b565b90506000808412610c1857610c13610c0e8386611a4f565b610f15565b610c2b565b610c2b610c2485610bd8565b8390611a87565b9050610470815b600080821215610bd457600080fd5b6000806000610c4f85610f15565b90506001600160581b03811115610c6557600080fd5b60788463ffffffff16901b609882901b60f08860ff16901b60f88a6005811115610c8b57fe5b60ff16901b17171797909650945050505050565b60008060008511610caf57600080fd5b6007851115610cbd57600080fd5b6000610cc884611ac3565b905060015b868111610d20576000610ce9610ce283611ae4565b84906112b6565b905086811415610d015750925060009150610d269050565b86811115610d175750925060019150610d269050565b50600101610ccd565b50600080fd5b935093915050565b8061ffff166000108015610d4c575060005461ffff90811690821611155b610d685760405162461bcd60e51b81526004016109d390615304565b50565b610d73614d3b565b6104ef826001611b88565b60006305f5e10083604001511415610d975750806104ef565b60408301516105b890610524846305f5e100610e96565b610db88282611c22565b610dc181610f36565b90915250565b81516000906105b890610524846ec097ce7bc90715b34b9f1000000000610e96565b600080831215610df857600080fd5b82610e05575060006105b8565b608084015115610e3d576000610e1a85611cbe565b9050828111610e3b5760405162461bcd60e51b81526004016109d390615204565b505b6000610e49858461199b565b90506000811215610e5957600080fd5b6040850151610e6b57839150506105b8565b610e8681610524876040015187610e9690919063ffffffff16565b9150506105b8565b509392505050565b818102600019831415610ec657811580610eb8575082828281610eb557fe5b05145b610ec157600080fd5b6104ef565b821580610edb575081838281610ed857fe5b05145b6104ef57600080fd5b600081600019148015610efa5750600160ff1b83145b15610f0457600080fd5b818381610f0d57fe5b059392505050565b600080821215610f2f57610f2882610bd8565b9050610370565b5080610370565b610f3e614d6a565b6000610f4a8342610a7d565b5090506105b88382611cef565b6000610f61614cf3565b610f6f8382876000886115b9565b83816020015111610f925760405162461bcd60e51b81526004016109d3906152d8565b60008482602001510390506000610fad856000015188611d32565b9050610fdd8184604001518a600a0b610fd787606001518a60400151610b9290919063ffffffff16565b86611d4c565b98975050505050505050565b610ff1614d96565b6000610ffb611e88565b6001600160a01b03841660009081526020918252604090819020815160c081018352905464ffffffffff811682526001600160f81b0319600160281b820460f81b169382019390935260ff600160301b840481169282019290925261ffff600160381b84041660608201526001600160701b03196901000000000000000000840460701b166080820152600160d81b90920416151560a0820152915050919050565b6060015161ffff16151590565b6110b48242610a7d565b506101208501526110c784848484611e95565b50505050565b6000806110d8611f3d565b6000938452602052505060409020546001600160a01b031690565b600080600061110185611f4a565b9194509250905080841180156111175750600081115b80156111235750600083115b1561118257600061113386611fab565b505050915050600061115e6111556305f5e100846118de90919063ffffffff16565b84880387612014565b905061116a84826112b6565b93506001600160801b03841061117f57600080fd5b50505b9250925092565b60e08401516000901561124a5773__$b21a4dc043b77aa57922ad9143a3cb040e$__63e0c01a72856111be8860400151610c32565b8860e001518961010001516040518563ffffffff1660e01b81526004016111e89493929190615197565b60206040518083038186803b15801561120057600080fd5b505af4158015611214573d6000803e3d6000fd5b505050506040513d601f19601f82011682018060405250810190611238919061510e565b600060e0870181905261010087015290505b61128c61128586610100015161127f670de0b6b3a7640000611279886112738c60400151610c32565b906118de565b90612036565b90612055565b82906112b6565b90506112a4670de0b6b3a764000061127984866118de565b85610100018181525050949350505050565b6000828201838110156105b857600080fd5b60006112d2614d6a565b60006112dd85610bbe565b90506112e886610f36565b915083156113135760006112ff8761ffff16610d6b565b905061130b8183610d7e565b935050611325565b60408201516113229082610b92565b92505b50935093915050565b60006a7fffffffffffffffffffff19821280159061135757506a7fffffffffffffffffffff8213155b610bd457600080fd5b611368614c86565b6104ef824261206a565b61137a614ca7565b600061138461212b565b61ffff93841660009081526020918252604090819020805464ffffffffff81168652600160281b81046001600160581b03908116948701949094526001820154841692860192909252600160d81b820463ffffffff166060860152600160801b9091049091166080840152600201546001600160501b0380821660a0850152600160501b8204811660c0850152600160a01b82041660e0840152600160f01b900460ff1661012c02909216610100820152919050565b60008361144957506000610357565b60008085136114625761145d868585612138565b61146d565b61146d868585612174565b9050633b9aca0081131561148057600080fd5b61035385826121b5565b600080600061149e86602001518686610c9f565b9150915060006114ad876121ce565b9050816114cd5786516114c69061ffff168783886121e2565b9350611569565b60006114d886611ac3565b905060006114ef6114e886611ae4565b83906112b6565b905060006115078a6000015161ffff1683868b6121e2565b905060008087600114156115255750506040808b0151015188611554565b61153b61153460018a03611ae4565b86906112b6565b90506115518c6000015161ffff1682888d6121e2565b91505b611561818584868f612281565b985050505050505b5050509392505050565b60008461158257506000610357565b600061158e8585612055565b9050600061159c82856122df565b9050633b9aca008113156115af57600080fd5b6108ce87826121b5565b826001111580156115ce575084602001518311155b6115ea5760405162461bcd60e51b81526004016109d390615280565b60006116076115f885611ae4565b61160184611ac3565b906112b6565b905061162c866000015161ffff168284866116218b6121ce565b8a949392919061234c565b505050505050565b6000806000831161164457600080fd5b8487604001511361165a57506000905080610a73565b600061166a876000015185611d32565b9050600061168989606001518960400151610b9290919063ffffffff16565b9050600080600061169e858d8d878e8e612376565b92509250925082600014156116be57600080965096505050505050610a73565b60408c01516116cd908b612454565b60408d01526116dc8483612470565b935060006116f060008e6040015187612486565b9050633b9aca008111156117105760008097509750505050505050610a73565b600061171c87836124c3565b905080611736576000809850985050505050505050610a73565b60a08e01525060408b015161174f908d90858585612576565b9650965050505050509550959350505050565b60008061176e836125cb565b6001600160a01b031663a77c05b86040518163ffffffff1660e01b8152600401604080518083038186803b1580156117a557600080fd5b505afa1580156117b9573d6000803e3d6000fd5b505050506040513d601f19601f820116820180604052508101906103579190615147565b6117e5614ca7565b60008060006117f58886896125fb565b60c08b019290925260e08a01929092526020890151919350915061181990836112b6565b60208801526080870151600090156118475760808801516118449061183e8982612055565b90612706565b90505b61186761185c670de0b6b3a7640000836112b6565b60a08a015190612723565b60a08901525060808701869052600061187e612740565b61ffff8a1660009081526020919091526040902054885163ffffffff600160a01b909204821692506118c9916118b890859085906112b616565b8a606001518b61010001518a61274d565b60608901525050928552509294909350915050565b6000826118ed575060006104ef565b828202828482816118fa57fe5b04146105b857600080fd5b61190d614c86565b600061191985856127d5565b909250905080610e8e576107378584610a7d565b60008061193a8484610dc7565b91506119468483612868565b90506000821215610d2657611991600161198b876000015161052489602001516119858a602001516105248c600001518b610e9690919063ffffffff16565b90610e96565b906128a1565b9150935093915050565b6000806119a784611cbe565b90508281116119b7576001810392505b5060006119c484846128b7565b50905060006119f28560c0015186600001516000015161ffff16876080015187896000015160200151612a0c565b905060008115611a245760c0860151865180516080890151611a20939261ffff909216918990600088612ab8565b5090505b60608601518651604001516109129190611a4990611a429085610dc7565b8690612470565b90612470565b60006305f5e10083604001511415611a685750806104ef565b6105b86305f5e100610524856040015185610e9690919063ffffffff16565b60006305f5e10083604001511215611aaf57611aa86001611a498585611a4f565b90506104ef565b6105b883611abe846001612470565b611a4f565b60006276a700821015611ad557600080fd5b6276a700825b06909103919050565b60008160011415611af957506276a700610370565b8160021415611b0c575062ed4e00610370565b8160031415611b2057506301da9c00610370565b8160041415611b3457506303b53800610370565b8160051415611b4857506309450c00610370565b8160061415611b5c575063128a1800610370565b8160071415611b7057506325143000610370565b60405162461bcd60e51b81526004016109d390615259565b611b90614d3b565b6000611b9a612b36565b6000858152602082815260408083208715158452825291829020825160a08101845281546001600160a01b038116825260ff600160a01b82048116151594830194909452600160b01b81048416600a0a9482019490945293945092916060830191600160a81b909104166005811115611c0f57fe5b8152600060209091015295945050505050565b611c2f8161ffff166110cd565b6001600160a01b031660c0830181905260009081908190611c4f90611fab565b94509450945050506000611c668660c00151611f4a565b505060808701859052604087018190526001600160d81b0319831660a088015260c0870151909150611c9a90846000612b43565b602087015260c0860151611cae9086612bd6565b6060909601959095525050505050565b6000816080015160001415611cd557506000610370565b60808201516276a70090611ce890611ac3565b0192915050565b611cf7614d6a565b6000611d068461ffff16612c2f565b6040805160808101825261ffff96909616865260ff821660208701528501939093525050606082015290565b611d3a614dcb565b6105b88383611d47612c4c565b612c59565b600083611d5857600080fd5b82841315611d785760405162461bcd60e51b81526004016109d390615331565b6000806000611d9c8989888860008c13611d93576001611d97565b6000195b612cb0565b90506000871215611dc657611db087610bd8565b9250611dbf6103ee88836121b5565b9150611df3565b611dd36103ee88836121b5565b9250611df06103ee611de98b6080015188612ce1565b89906121b5565b91505b506000611e0489898886898c612d47565b905060005b60fa8160ff161015611e6f5783830380611e2a578395505050505050610470565b6000611e3a8c8c8b888c8f612d47565b90506000611e5f611e58611e4e84886128a1565b6105248587610e96565b87906128a1565b9596509093505050600101611e09565b5060405162461bcd60e51b81526004016109d390615231565b6000806104ef6001612d66565b8161ffff166000108015611eaf5750613fff61ffff831611155b611eb857600080fd5b61ffff8216808552611ecb908290612d78565b15611efa57611ee08383866101200151612e02565b61010088015260e087015260408601526020850152611f18565b6000602085018190526040850181905260e085018190526101008501525b50506000606083018190526080830181905260a0830181905260c09092019190915250565b6000806104ef6003612d66565b600080600080611f58612ebc565b6001600160a01b0395909516600090815260209590955250506040909220546bffffffffffffffffffffffff811693600160601b82046001600160801b03169350600160e01b90910463ffffffff169150565b600080600080600080611fbc612ec9565b6001600160a01b039097166000908152602097909752505060409094205461ffff81169563ffffffff62010000830481169650600160301b830416945060ff600160501b8304169350600160581b90910460d81b9150565b6000610357826112796301da9c00818861127389670de0b6b3a76400006118de565b600080821161204457600080fd5b81838161204d57fe5b049392505050565b60008282111561206457600080fd5b50900390565b612072614c86565b600061207d84611372565b905082816000015110156120bc5760008061209786612ed6565b90506120a5868483886117dd565b90935091506120b5868385612f2f565b50506120c9565b805183146120c957600080fd5b60405180606001604052806120f26105578460a001518560c001516118de90919063ffffffff16565b81526020016121156105578460a001518560e001516118de90919063ffffffff16565b8152602001826060015181525091505092915050565b6000806104ef601d612d66565b600080612146858585613163565b905080156121665761216161215b8585612055565b826122df565b610470565b633b9aca0095945050505050565b6000806121828585856131b3565b905061219161215b8585612055565b9150600061219e866131ed565b9050828112156121ac578092505b50509392505050565b60006105b86121c48484610e96565b633b9aca00610ee4565b6060015161012c60089190911c60ff160290565b6000806121ed613208565b905060006276a7006121fe85611ac3565b6000898152602085815260408083208b84528252808320949093018083529390522080549192509063ffffffff600160a01b8204811691600160c01b8104821691600160e01b90910416816122655760405162461bcd60e51b81526004016109d3906151d4565b6122728184848c8c61274d565b9b9a5050505050505050505050565b600081861061228f57600080fd5b84821061229b57600080fd5b8383106122c1576122ba846116018888036112798388038b88036118de565b9050610470565b6122ba6122d88787036112798688038a87036118de565b8590612055565b6000806122fc6122f76301da9c0061127986886118de565b613215565b905061230e81621dcd6560491b613233565b905061232161231c82613286565b6132a8565b905061233381621dcd6560491b6132fd565b9050600061234082613333565b60070b95945050505050565b60006276a70061235b85611ac3565b01905061236d8787878787878761333c565b50505050505050565b60008060008061238b868a6040015189612486565b9050633b9aca008111156123aa57600080600093509350935050612448565b60006123b68b836124c3565b905060006123d16103ee6123ca848a612ce1565b8a90613373565b905060006123e38d8460008c1261338c565b90506123fc6103ee6123f5838b612ce1565b8b90613373565b96508187131561240b57600080fd5b600061241783896128a1565b9050612431606461052461242a8f613404565b8490610e96565b95506124406103ee8988612470565b965050505050505b96509650969350505050565b600061246083836128a1565b905060008112156104ef57600080fd5b818101828112156000831215146104ef57600080fd5b60008083121561249557600080fd5b60008212156124a357600080fd5b6103576107bc6124b38486612470565b6124bd8688612454565b90613373565b6000808360800151116124d557600080fd5b633b9aca008211156124e657600080fd5b825182116125055782516040840151611aa891906112799085906118de565b8260200151821161253d576040830151835160208501516060860151611aa893926116019281900391611279918803908590036118de565b6105b883606001516116018560200151633b9aca00036112798760600151886080015103886020015188036118de90919063ffffffff16565b600080806125848786610dc7565b60608901519091506125969082612470565b60608901524260e089015260006125ad8886610dc7565b905060006125bb8989610dc7565b9a91995090975050505050505050565b6000806125d6613411565b61ffff939093166000908152602093909352505060409020546001600160a01b031690565b60008060008060008061260e898861341e565b895190955091935091506000906126359061262a908b90612055565b633b9aca00906118de565b905061266f6126646301da9c0061264c85856118de565b8161265357fe5b670de0b6b3a76400009190046112b6565b60e08a015190612723565b96506126916126866301da9c0061264c87856118de565b60c08a015190612723565b9550818314156126a85750600093506126fd915050565b60006126ca6126bf6301da9c0061264c87866118de565b60e08b015190612723565b905060006126d88983612055565b90506126f588611279838d604001516118de90919063ffffffff16565b965050505050505b93509350935093565b60006105b861271d84670de0b6b3a76400006118de565b83612036565b60006105b861273284846118de565b670de0b6b3a7640000612036565b6000806104ef6025612d66565b600080831161275b57600080fd5b8186111561276a575083610470565b60006127768388612055565b9050838111156127895785915050610470565b600061279582866134b8565b905060006127a7633b9aca0083612055565b90506127c8633b9aca006112796127be8a856118de565b6116018c876118de565b9998505050505050505050565b6127dd614c86565b6000806127e86134cb565b61ffff861660009081526020828152604080832088845290915290208054600160f01b900460ff169350909150821561285f5780546001600160501b03600160a01b820481169161283a9116826118de565b8552815461285890600160501b90046001600160501b0316826118de565b6020860152505b50509250929050565b60008082121561289b57612896600161198b8560200151610524876000015187610e9690919063ffffffff16565b6105b8565b50919050565b808203828113156000831215146104ef57600080fd5b602082015151516000906060908067ffffffffffffffff811180156128db57600080fd5b50604051908082528060200260200182016040528015612905578160200160208202803683370190505b509150612910614cf3565b60005b82811015612a0257865161292e90836001808501908a6115b9565b6000876020015160000151828151811061294457fe5b6020026020010151905060008160200151905060008061296484876134d8565b9150915061298d6129868c60c001518d600001516000015161ffff1686613553565b8290612470565b88868151811061299957fe5b60200260200101818152505060006129e36129dc6129d08b89815181106129bc57fe5b6020026020010151878f8c60c00151611573565b8e516040015190610dc7565b8490612470565b90506129ef8a82612470565b9950506001909401935061291392505050565b5050509250929050565b600060028211612a1e57506000610470565b6000612a2a8787613598565b905080612a38579050610470565b6000612a4385611ac3565b905085811415612a6d57507440008000000200200000000200000020000000002019169050610470565b60015b848111612aad576000612a8282611ae4565b830190506000612a9289836135cd565b509050612aa1858260006136d8565b94505050600101612a70565b508192505050610470565b6000806000612ac684613723565b90505b8015612b29576000612adb8983613748565b90506000612aed8c8c848c8c8c6137fb565b9050612af98582612470565b94506000811215612b0957600193505b612b15868460006136d8565b9550612b2086613723565b92505050612ac9565b5097509795505050505050565b6000806104ef6007612d66565b612b4b614e10565b612b53614e10565b60ff8416612b625790506105b8565b612b6c8585613857565b815260ff841660608201528267ffffffffffffffff81118015612b8e57600080fd5b50604051908082528060200260200182016040528015612bc857816020015b612bb5614e38565b815260200190600190039081612bad5790505b506020820152949350505050565b600080612be1613863565b6001600160a01b03851660009081526020828152604080832061ffff8816845290915281208054600160a81b9004600a90810b900b9450919250831215612c2757600080fd5b505092915050565b600080612c3a613870565b60009384526020525050604090205490565b6000806104ef601b612d66565b612c61614dcb565b6000612c6c8461387d565b61ffff861660009081526020859052604081209192509060048610612c92576001612c95565b60005b60ff1660028110612ca257fe5b0154905061091282826138b6565b600080612cc787612cc2858989612486565b6124c3565b90506000612cd988836000871261338c565b9050610fdd81865b600080612cf96122f76301da9c0061127987876118de565b90506000612d0d82621dcd6560491b613233565b90506000612d1a826132a8565b90506000612d2e82621dcd6560491b6132fd565b9050612d3981613333565b60070b979650505050505050565b600080612d578888888789612cb0565b9050610fdd611a4284836121b5565b6000620f4240826026811115611ce857fe5b60008115801590612d8b5750613fff8211155b612d9457600080fd5b6080830151606084015161ffff16831415612db35760019150506104ef565b6001600160701b0319811615612df85760f081901c613fff1683811415612de55750600160fe1b9081161490506104ef565b5060101b6001600160801b031916612db3565b5060009392505050565b6000806000806000612e12613863565b6001600160a01b03891660009081526020828152604080832061ffff8c168452909152902080546001600160501b0381169650600160501b900463ffffffff1694509091508315612e7f578054612e7890600160701b900466ffffffffffffff166139d5565b9250612e94565b8054600160701b900466ffffffffffffff1692505b8054612eaf908890600160a81b9004600a90810b900b6139e3565b9550505093509350935093565b6000806104ef6011612d66565b6000806104ef6002612d66565b600080612ee2836125cb565b6001600160a01b031663ef81f2166040518163ffffffff1660e01b81526004016040805180830381600087803b158015612f1b57600080fd5b505af11580156117b9573d6000803e3d6000fd5b6000612f3961212b565b60008561ffff1681526020019081526020016000209050612f5d8260000151613a0a565b815464ffffffffff191664ffffffffff9190911617815560a0820151612f8290613a1e565b60028201805469ffffffffffffffffffff19166001600160501b039290921691909117905560c0820151612fb590613a1e565b81600201600a6101000a8154816001600160501b0302191690836001600160501b03160217905550612fea8260e00151613a1e565b8160020160146101000a8154816001600160501b0302191690836001600160501b0316021790555061301f8260200151613a34565b81546001600160581b0391909116600160281b026fffffffffffffffffffffff000000000019909116178155604082015161305990613a34565b6001820180546affffffffffffffffffffff19166001600160581b0392909216919091179055608082015161308d90613a34565b81546001600160581b0391909116600160801b026affffffffffffffffffffff60801b1990911617815560608201516130c590613a4a565b815463ffffffff91909116600160d81b0263ffffffff60d81b1990911617815582156131115760006130f684610bbe565b90506131028582613a5d565b61310f610fee8683613a99565b505b8361ffff167fef25641e225e493886510ca1ad6584fa7b442b9fea820a29d1de3ce27d270fd28360a001518460c001518560e00151604051613155939291906153e2565b60405180910390a250505050565b600061317084848461148a565b9050600061317d85613b23565b90508082116131905760009150506105b8565b808203915060006131a086613b30565b9050828110156121ac5795945050505050565b60006131c084848461148a565b90506131ce61128585613b3d565b905060006131db85613b4a565b905080821015610e8e57949350505050565b606001516207a12060109190911c60ff1602633b9aca000390565b6000806104ef600a612d66565b6000677fffffffffffffff82111561322c57600080fd5b5060401b90565b600081600f0b6000141561324657600080fd5b600082600f0b604085600f0b901b8161325b57fe5b05905060016001607f1b0319811280159061327d575060016001607f1b038113155b6105b857600080fd5b6000600f82900b60016001607f1b031914156132a157600080fd5b5060000390565b6000600160461b82600f0b126132bd57600080fd5b683fffffffffffffffff1982600f0b12156132da57506000610370565b6104ef608083600f0b700171547652b82fe1777d0ffda0d23a7d1202901d613b57565b6000600f83810b9083900b0260401d60016001607f1b0319811280159061327d575060016001607f1b038113156105b857600080fd5b600f0b60401d90565b6133498787878685614607565b6133628760e001518860a001518960c00151858861274d565b60c090970196909652505050505050565b60006105b861338684633b9aca00610e96565b83610ee4565b6000806133ab60646112798760e00151876118de90919063ffffffff16565b90508460a001518110156133c0575060a08401515b8460c001518111156133d3575060c08401515b82156133ea576133e384826112b6565b9150610e8e565b8381116133f957808403610470565b506000949350505050565b6060015160181c60ff1690565b6000806104ef601f612d66565b60008060008060008560200151111561346b5761346861344f8660c0015187602001516118de90919063ffffffff16565b60e08701516040880151613462916118de565b906134b8565b90505b6000613476876146c1565b905061348281836124c3565b94508115613499576134968186600161338c565b93505b60208601511561117f576134ad85836146f4565b925050509250925092565b60006105b861271d84633b9aca006118de565b6000806104ef601e612d66565b6000806134e8846040015161470d565b80156134f957506000846060015112155b61350257600080fd5b613525836080015161052486606001518660600151610e9690919063ffffffff16565b915061354a836080015161052486606001518660400151610e9690919063ffffffff16565b90509250929050565b60008061355e614723565b6001600160a01b03861660009081526020918252604080822087835283528082208683529092522054600f90810b900b9150509392505050565b6000806135a3614730565b6001600160a01b038516600090815260209182526040808220868352909252205491505092915050565b60008060006135db8561473d565b9050620151808406156135f55760008092509250506136d1565b8381106136095760008092509250506136d1565b6201518081850304605a8111613626579250600191506136d19050565b6101688111613665576000620151806207e900840604820160591901905060068104605a016006828161365557fe5b06600014945094505050506136d1565b61087081116136955760006201518062278d00840604820161016719019050601e8104608701601e828161365557fe5b611de281116136c5576000620151806276a700840604820161086f19019050605a810460c301605a828161365557fe5b61010060009350935050505b9250929050565b6000600183101580156136ed57506101008311155b6136f657600080fd5b811561370f5750600160ff1b60001983011c83176105b8565b50600160ff1b60001983011c1983166105b8565b60008161373257506000610370565b61373b82614759565b60ff036001019050919050565b60008161375457600080fd5b61010082111561376357600080fd5b600061376e8461473d565b90506000605a841161378957506201518083020190506104ef565b608784116137b1575060591983016207e900908102908206909103016276a7000190506104ef565b60c384116137da5750608619830162278d00908102908206909103016301da9c000190506104ef565b5060c21983016276a70090810290820690910301630b1fa8000190506104ef565b600080613809888888613553565b9050848611613819579050610912565b82156138335761382b8482888861143a565b915050610912565b600061384085888861148a565b905061384e82888884611573565b92505050610912565b6060610e8e83836147f2565b6000806104ef6006612d66565b6000806104ef6009612d66565b60008160001061388c57600080fd5b600782111561389a57600080fd5b600482106138ab57600482036138ad565b815b60080292915050565b6138be614dcb565b6064633b9aca008360ff8616602081106138d457fe5b1a02816138dd57fe5b0481526064633b9aca008360ff8616600101602081106138f957fe5b1a028161390257fe5b048160200181815250506139278260028560ff16016020811061392157fe5b1a61480a565b60808201819052610100908360ff86166003016020811061394457fe5b1a028161394d57fe5b0460408201526080810151610100908360ff86166004016020811061396e57fe5b1a028161397757fe5b0460608201526207a1208260ff85166005016020811061399357fe5b1a0260a0820152622625a08260ff8516600601602081106139b057fe5b1a0260c08201528160ff8416600701602081106139c957fe5b1a60e082015292915050565b600881901c60ff9091161b90565b60008082126139f35750806104ef565b82516020840151611aa89190610524908590610e96565b600064ffffffffff821115610bd457600080fd5b60006001600160501b03821115610bd457600080fd5b60006001600160581b03821115610bd457600080fd5b600063ffffffff821115610bd457600080fd5b6000811215613a6b57600080fd5b6000613a79610fee84612bd6565b9050613a858183612470565b9050613a94610fee848361483e565b505050565b6000613aa36148b2565b61ffff8416600090815260209190915260409081902054905163ad1c095d60e01b81526001600160a01b039091169150819063ad1c095d90613aeb908790869060040161517e565b600060405180830381600087803b158015613b0557600080fd5b505af1158015613b19573d6000803e3d6000fd5b5050505050505050565b60006104ef8260206148bf565b60006104ef8260486148bf565b60006104ef8260286148bf565b60006104ef8260306148bf565b6000600160461b82600f0b12613b6c57600080fd5b683fffffffffffffffff1982600f0b1215613b8957506000610370565b6001607f1b60006780000000000000008416600f0b1315613bbb5770016a09e667f3bcc908b2fb1366ea957d3e0260801c5b60008367400000000000000016600f0b1315613be8577001306fe0a31b7152de8d5a46305c85edec0260801c5b60008367200000000000000016600f0b1315613c15577001172b83c7d517adcdf7c8c50eb14a791f0260801c5b60008367100000000000000016600f0b1315613c425770010b5586cf9890f6298b92b71842a983630260801c5b60008367080000000000000016600f0b1315613c6f577001059b0d31585743ae7c548eb68ca417fd0260801c5b60008367040000000000000016600f0b1315613c9c57700102c9a3e778060ee6f7caca4f7a29bde80260801c5b60008367020000000000000016600f0b1315613cc95770010163da9fb33356d84a66ae336dcdfa3f0260801c5b600083600160381b16600f0b1315613cf257700100b1afa5abcbed6129ab13ec11dc95430260801c5b600083668000000000000016600f0b1315613d1e5770010058c86da1c09ea1ff19d294cf2f679b0260801c5b600083664000000000000016600f0b1315613d4a577001002c605e2e8cec506d21bfc89a23a00f0260801c5b600083662000000000000016600f0b1315613d7657700100162f3904051fa128bca9c55c31e5df0260801c5b600083661000000000000016600f0b1315613da2577001000b175effdc76ba38e31671ca9397250260801c5b600083660800000000000016600f0b1315613dce57700100058ba01fb9f96d6cacd4b180917c3d0260801c5b600083660400000000000016600f0b1315613dfa5770010002c5cc37da9491d0985c348c68e7b30260801c5b600083660200000000000016600f0b1315613e26577001000162e525ee054754457d59952920260260801c5b600083600160301b16600f0b1315613e4f5770010000b17255775c040618bf4a4ade83fc0260801c5b6000836580000000000016600f0b1315613e7a577001000058b91b5bc9ae2eed81e9b7d4cfab0260801c5b6000836540000000000016600f0b1315613ea557700100002c5c89d5ec6ca4d7c8acc017b7c90260801c5b6000836520000000000016600f0b1315613ed05770010000162e43f4f831060e02d839a9d16d0260801c5b6000836510000000000016600f0b1315613efb57700100000b1721bcfc99d9f890ea069117630260801c5b6000836508000000000016600f0b1315613f265770010000058b90cf1e6d97f9ca14dbcc16280260801c5b6000836504000000000016600f0b1315613f51577001000002c5c863b73f016468f6bac5ca2b0260801c5b6000836502000000000016600f0b1315613f7c57700100000162e430e5a18f6119e3c02282a50260801c5b600083600160281b16600f0b1315613fa5577001000000b1721835514b86e6d96efd1bfe0260801c5b60008364800000000016600f0b1315613fcf57700100000058b90c0b48c6be5df846c5b2ef0260801c5b60008364400000000016600f0b1315613ff95770010000002c5c8601cc6b9e94213c72737a0260801c5b60008364200000000016600f0b1315614023577001000000162e42fff037df38aa2b219f060260801c5b60008364100000000016600f0b131561404d5770010000000b17217fba9c739aa5819f44f90260801c5b60008364080000000016600f0b1315614077577001000000058b90bfcdee5acd3c1cedc8230260801c5b60008364040000000016600f0b13156140a157700100000002c5c85fe31f35a6a30da1be500260801c5b60008364020000000016600f0b13156140cb5770010000000162e42ff0999ce3541b9fffcf0260801c5b60008364010000000016600f0b13156140f557700100000000b17217f80f4ef5aadda455540260801c5b600083638000000016600f0b131561411e5770010000000058b90bfbf8479bd5a81b51ad0260801c5b600083634000000016600f0b1315614147577001000000002c5c85fdf84bd62ae30a74cc0260801c5b600083632000000016600f0b131561417057700100000000162e42fefb2fed257559bdaa0260801c5b600083631000000016600f0b1315614199577001000000000b17217f7d5a7716bba4a9ae0260801c5b600083630800000016600f0b13156141c257700100000000058b90bfbe9ddbac5e109cce0260801c5b600083630400000016600f0b13156141eb5770010000000002c5c85fdf4b15de6f17eb0d0260801c5b600083630200000016600f0b1315614214577001000000000162e42fefa494f1478fde050260801c5b600083630100000016600f0b131561423d5770010000000000b17217f7d20cf927c8e94c0260801c5b6000836280000016600f0b1315614265577001000000000058b90bfbe8f71cb4e4b33d0260801c5b6000836240000016600f0b131561428d57700100000000002c5c85fdf477b662b269450260801c5b6000836220000016600f0b13156142b55770010000000000162e42fefa3ae53369388c0260801c5b6000836210000016600f0b13156142dd57700100000000000b17217f7d1d351a389d400260801c5b6000836208000016600f0b13156143055770010000000000058b90bfbe8e8b2d3d4ede0260801c5b6000836204000016600f0b131561432d577001000000000002c5c85fdf4741bea6e77e0260801c5b6000836202000016600f0b131561435557700100000000000162e42fefa39fe95583c20260801c5b6000836201000016600f0b131561437d577001000000000000b17217f7d1cfb72b45e10260801c5b60008361800016600f0b13156143a457700100000000000058b90bfbe8e7cc35c3f00260801c5b60008361400016600f0b13156143cb5770010000000000002c5c85fdf473e242ea380260801c5b60008361200016600f0b13156143f2577001000000000000162e42fefa39f02b772c0260801c5b60008361100016600f0b13156144195770010000000000000b17217f7d1cf7d83c1a0260801c5b60008361080016600f0b1315614440577001000000000000058b90bfbe8e7bdcbe2e0260801c5b60008361040016600f0b131561446757700100000000000002c5c85fdf473dea871f0260801c5b60008361020016600f0b131561448e5770010000000000000162e42fefa39ef44d910260801c5b60008361010016600f0b13156144b557700100000000000000b17217f7d1cf79e9490260801c5b600083608016600f0b13156144db5770010000000000000058b90bfbe8e7bce5440260801c5b600083604016600f0b1315614501577001000000000000002c5c85fdf473de6eca0260801c5b600083602016600f0b131561452757700100000000000000162e42fefa39ef366f0260801c5b600083601016600f0b131561454d577001000000000000000b17217f7d1cf79afa0260801c5b600083600816600f0b131561457357700100000000000000058b90bfbe8e7bcd6d0260801c5b600083600416600f0b13156145995770010000000000000002c5c85fdf473de6b20260801c5b600083600216600f0b13156145bf577001000000000000000162e42fefa39ef3580260801c5b600083600116600f0b13156145e55770010000000000000000b17217f7d1cf79ab0260801c5b600f83810b60401d603f03900b1c60016001607f1b038111156104ef57600080fd5b6000614611613208565b6000868152602082815260408083208884528252808320868452825291829020808a5290890187905280546001600160501b03808216938b0193909352600160501b810490921660608a015263ffffffff600160a01b8304811660a08b0152600160c01b8304811660c08b0152600160e01b90920490911660e08901529091508084156146b05760018201546001600160501b03166080890152613b19565b600060808901525050505050505050565b6146c9614dcb565b60006146d3612c4c565b61ffff84166000908152602091909152604081205491506105b890826138b6565b60006105b861470384846118de565b633b9aca00612036565b6000600282108015906104ef5750506008101590565b6000806104ef600c612d66565b6000806104ef600b612d66565b60006201518082101561474f57600080fd5b6201518082611adb565b60008161476557600080fd5b600160801b821061477857608091821c91015b600160401b821061478b57604091821c91015b640100000000821061479f57602091821c91015b6201000082106147b157601091821c91015b61010082106147c257600891821c91015b601082106147d257600491821c91015b600482106147e257600291821c91015b6002821061037057600101919050565b6060806147ff84846148d2565b915061354a826149ea565b60008160ff166096106148255760ff8216622625a0026104ef565b5060951960ff919091160162e4e1c00263165a0bc00190565b600081121561484c57600080fd5b6000614856613863565b6001600160a01b03851660009081526020828152604080832061ffff8816845290915290209091506148878361132e565b8154600a9190910b6001600160581b0316600160a81b026001600160a81b0390911617905550505050565b6000806104ef6021612d66565b60609091015160ff911c16622625a00290565b606060088260ff1611156148e557600080fd5b60006148ef614bab565b6001600160a01b038516600090815260208290526040812091925060ff851667ffffffffffffffff8111801561492457600080fd5b5060405190808252806020026020018201604052801561495e57816020015b61494b614e38565b8152602001906001900390816149435790505b50905060005b8560ff1681101561073757600083826008811061497d57fe5b019050600083838151811061498e57fe5b602090810291909101810151835461ffff8116825264ffffffffff620100008204169282019290925260ff600160381b8304166040820152600160401b909104600a90810b900b60608201526080019190915250600101614964565b80516060908067ffffffffffffffff81118015614a0657600080fd5b50604051908082528060200260200182016040528015614a30578160200160208202803683370190505b50915060005b81811015614a8d576000848281518110614a4c57fe5b60200260200101519050614a6d816000015182602001518360400151614bb8565b848381518110614a7957fe5b602090810291909101015250600101614a36565b5060015b81811015614ba457805b600081118015614ad35750838181518110614ab257fe5b6020026020010151846001830381518110614ac957fe5b6020026020010151115b15614b9b57838181518110614ae457fe5b6020026020010151846001830381518110614afb57fe5b6020026020010151856001840381518110614b1257fe5b60200260200101868481518110614b2557fe5b6020026020010182815250828152505050848181518110614b4257fe5b6020026020010151856001830381518110614b5957fe5b6020026020010151866001840381518110614b7057fe5b60200260200101878481518110614b8357fe5b60209081029190910101919091525260001901614a9b565b50600101614a91565b5050919050565b6000806104ef600d612d66565b67ffff000000000000603084901b1665ffffffffff00600884901b161760ff8216179392505050565b6040518060e00160405280614bf4614d6a565b8152602001614c01614e10565b815260006020820181905260408201819052606082018190526080820181905260a09091015290565b604051806101400160405280600061ffff1681526020016000815260200160008152602001600081526020016000815260200160008152602001600081526020016000815260200160008152602001614c81614c86565b905290565b60405180606001604052806000815260200160008152602001600081525090565b6040518061012001604052806000815260200160008152602001600081526020016000815260200160008152602001600081526020016000815260200160008152602001600081525090565b60405180610100016040528060008019168152602001600081526020016000815260200160008152602001600081526020016000815260200160008152602001600081525090565b6040805160a0810182526000808252602082018190529181018290529060608201908152602001600081525090565b6040805160808101825260008082526020820152908101614d89614c86565b8152600060209091015290565b6040805160c081018252600080825260208201819052918101829052606081018290526080810182905260a081019190915290565b60405180610100016040528060008152602001600081526020016000815260200160008152602001600081526020016000815260200160008152602001600081525090565b6040518060800160405280606081526020016060815260200160008152602001600081525090565b6040518060c00160405280600061ffff1681526020016000815260200160008152602001600081526020016000815260200160006003811115614c8157fe5b8035801515811461037057600080fd5b803561ffff8116811461037057600080fd5b803563ffffffff8116811461037057600080fd5b60008060408385031215614ebf578182fd5b82356001600160a01b0381168114614ed5578283fd5b946020939093013593505050565b600060208284031215614ef4578081fd5b6105b882614e87565b60008060408385031215614f0f578182fd5b614ed583614e87565b600080600060608486031215614f2c578081fd5b614f3584614e87565b925060208401359150614f4a60408501614e77565b90509250925092565b60008060008060808587031215614f68578081fd5b614f7185614e87565b9350602085013580600a0b8114614f86578182fd5b93969395505050506040820135916060013590565b60008060008060808587031215614fb0578384fd5b614fb985614e87565b966020860135965060408601359560600135945092505050565b600080600080600060a08688031215614fea578081fd5b614ff386614e87565b945060208601359350604086013592506060860135915061501660808701614e77565b90509295509295909350565b600080600080600060a08688031215615039578081fd5b61504286614e87565b9450602086013593506040860135925061505e60608701614e99565b949793965091946080013592915050565b60008060008060008060c08789031215615087578081fd5b61509087614e87565b955060208701359450604087013593506150ac60608801614e99565b9250608087013591506150c160a08801614e77565b90509295509295509295565b600080604083850312156150df578182fd5b6150e883614e87565b915060208301356001600160581b0381168114615103578182fd5b809150509250929050565b60006020828403121561511f578081fd5b5051919050565b60008060408385031215615138578182fd5b50508035926020909101359150565b60008060408385031215615159578182fd5b505080516020909101519092909150565b6001600160a01b0391909116815260200190565b6001600160a01b03929092168252602082015260400190565b6001600160a01b0394909416845260208401929092526040830152606082015260800190565b90815260200190565b918252602082015260400190565b60208082526016908201527513585c9ad95d081b9bdd081a5b9a5d1a585b1a5e995960521b604082015260600190565b60208082526013908201527214995c5d5a5c995cc81cd95d1d1b195b595b9d606a1b604082015260600190565b6020808252600e908201526d4e6f20636f6e76657267656e636560901b604082015260600190565b6020808252600d908201526c092dcecc2d8d2c840d2dcc8caf609b1b604082015260600190565b6020808252600e908201526d125b9d985b1a59081b585c9ad95d60921b604082015260600190565b6020808252601690820152755472616465206661696c65642c20736c69707061676560501b604082015260600190565b602080825260129082015271496e76616c696420626c6f636b2074696d6560701b604082015260600190565b602080825260139082015272125b9d985b1a590818dd5c9c995b98de481a59606a1b604082015260600190565b60208082526011908201527013dd995c8813585c9ad95d08131a5b5a5d607a1b604082015260600190565b6000610180820190508351825260208401516020830152604084015160408301528251606083015260208301516080830152604083015160a0830152606083015160c0830152608083015160e083015260a0830151610100818185015260c085015161012085015260e08501516101408501528085015161016085015250509392505050565b9283526020830191909152604082015260600190565b938452602084019290925260ff166040830152606082015260800190565b6001600160581b0393909316835260ff919091166020830152604082015260600190565b60ff9190911681526020019056fea26469706673582212208a1397d7235e86af68fe121033c2ea15c66b9ebeeda11565a422c048ab179fec64736f6c63430007060033","language":"Solidity","natspec":{"kind":"dev","methods":{"accruePrimeInterest(uint16)":{"notice":"Accrues prime interest and updates state up to the current block"},"calculateNTokensToMint(uint16,uint88)":{"notice":"Returns the nTokens that will be minted when some amount of asset tokens are deposited","params":{"amountToDepositExternalPrecision":"amount of underlying tokens in native precision","currencyId":"id number of the currency"},"returns":{"_0":"the amount of nTokens that will be minted"}},"convertCashBalanceToExternal(uint16,int256,bool)":{"notice":"Converts an prime cash balance to an external token denomination","params":{"convertToUnderlying":"true if the value should be converted to underlying","currencyId":"the currency id of the cash balance","primeCashBalance":"the signed cash balance that is stored in Notional"},"returns":{"_0":"the cash balance converted to the external token denomination"}},"convertSettledfCash(uint16,uint256,int256,uint256)":{"notice":"Converts fCash to its settled prime cash value at the specified block time","params":{"blockTime":"block time to convert to settled prime value, must be greater than maturity","currencyId":"the currency id of the fCash asset","fCashBalance":"signed balance of fcash","maturity":"the timestamp when the fCash asset matures"},"returns":{"signedPrimeSupplyValue":"amount of prime cash to be received or owed to the protocol"}},"convertUnderlyingToPrimeCash(uint16,int256)":{"notice":"Converts an underlying balance to prime cash","params":{"currencyId":"the currency id of the cash balance","underlyingExternal":"the underlying external token balance"},"returns":{"_0":"the underlying balance converted to prime cash"}},"getCashAmountGivenfCashAmount(uint16,int88,uint256,uint256)":{"notice":"Returns the cash amount that will be traded given an fCash amount, be sure to buffer these amounts slightly because the liquidity curve is sensitive to changes in block time","params":{"blockTime":"the block time for when the trade will be calculated","currencyId":"id number of the currency","fCashAmount":"amount of fCash to trade, negative for borrowing, positive for lending","marketIndex":"market index of the fCash market"},"returns":{"_0":"net asset cash amount (positive for borrowing, negative for lending) in 8 decimal precision","_1":"underlying cash amount (positive for borrowing, negative for lending) in 8 decimal precision"}},"getDepositFromfCashLend(uint16,uint256,uint256,uint32,uint256)":{"notice":"Returns the amount of underlying cash and asset cash required to lend fCash. When specifying a trade, deposit either underlying or asset tokens (not both). Asset tokens tend to be more gas efficient.","params":{"blockTime":"the block time for when the trade will be calculated","currencyId":"id number of the currency","fCashAmount":"amount of fCash (in underlying) that will be received at maturity. Always 8 decimal precision.","maturity":"the maturity of the fCash to lend","minLendRate":"the minimum lending rate (slippage protection)"},"returns":{"depositAmountPrimeCash":"the amount of prime cash tokens the lender must deposit or mint","depositAmountUnderlying":"the amount of underlying tokens the lender must deposit","encodedTrade":"the encoded bytes32 object to pass to batch trade","marketIndex":"the corresponding market index for the lending"}},"getLibInfo()":{"notice":"Get a list of deployed library addresses (sorted by library name)"},"getMarketIndex(uint256,uint256)":{"notice":"Returns a market index value for a given maturity","params":{"blockTime":"the block time for when the trade will be calculated","maturity":"an fCash maturity"},"returns":{"marketIndex":"a value between 1 and 7 that represents the marketIndex (tenor) that corresponds to the maturity. Returns 0 if there is no corresponding marketIndex"}},"getPresentfCashValue(uint16,uint256,int256,uint256,bool)":{"notice":"Returns the present value of the given fCash amount using Notional internal oracle rates","params":{"blockTime":"the block time for when the trade will be calculated","currencyId":"id number of the currency","maturity":"timestamp of the fCash maturity","notional":"amount of fCash notional","riskAdjusted":"true if haircuts and buffers should be applied to the oracle rate"},"returns":{"presentValue":"of fCash in 8 decimal precision and underlying denomination"}},"getPrincipalFromfCashBorrow(uint16,uint256,uint256,uint32,uint256)":{"notice":"Returns the amount of underlying cash and asset cash required to borrow fCash. When specifying a trade, choose to receive either underlying or asset tokens (not both). Asset tokens tend to be more gas efficient.","params":{"blockTime":"the block time for when the trade will be calculated","currencyId":"id number of the currency","fCashBorrow":"amount of fCash (in underlying) that will be received at maturity. Always 8 decimal precision.","maturity":"the maturity of the fCash to lend","maxBorrowRate":"the maximum borrow rate (slippage protection)"},"returns":{"borrowAmountPrimeCash":"the amount of prime cash tokens the borrower will receive","borrowAmountUnderlying":"the amount of underlying tokens the borrower will receive","encodedTrade":"the encoded bytes32 object to pass to batch trade","marketIndex":"the corresponding market index for the lending"}},"getfCashAmountGivenCashAmount(uint16,int88,uint256,uint256)":{"params":{"blockTime":"the block time for when the trade will be calculated","marketIndex":"market index of the fCash market"},"returns":{"_0":"the fCash amount from the trade, positive when lending, negative when borrowing. Always in 8 decimals."}},"getfCashBorrowFromPrincipal(uint16,uint256,uint256,uint32,uint256,bool)":{"notice":"Returns the amount of fCash that would received if lending deposit amount.","params":{"blockTime":"the block time for when the trade will be calculated","borrowedAmountExternal":"amount to borrow in the token's native precision.","currencyId":"id number of the currency","maturity":"the maturity of the fCash to lend","maxBorrowRate":"the maximum borrow rate (slippage protection). If zero then no slippage will be applied","useUnderlying":"true if specifying the underlying token, false if specifying prime cash"},"returns":{"encodedTrade":"the encoded bytes32 object to pass to batch trade","fCashDebt":"the amount of fCash that the borrower will owe, this will be stored as a negative balance in Notional","marketIndex":"the corresponding market index for the lending"}},"getfCashLendFromDeposit(uint16,uint256,uint256,uint32,uint256,bool)":{"notice":"Returns the amount of fCash that would received if lending deposit amount.","params":{"blockTime":"the block time for when the trade will be calculated","currencyId":"id number of the currency","depositAmountExternal":"amount to deposit in the token's native precision. For aTokens use what is returned by the balanceOf selector (not scaledBalanceOf).","maturity":"the maturity of the fCash to lend","minLendRate":"the minimum lending rate (slippage protection)","useUnderlying":"true if specifying the underlying token, false if specifying prime cash"},"returns":{"encodedTrade":"the encoded bytes32 object to pass to batch trade","fCashAmount":"the amount of fCash that the lender will receive","marketIndex":"the corresponding market index for the lending"}},"nTokenGetClaimableIncentives(address,uint256)":{"notice":"Returns the claimable incentives for all nToken balances","params":{"account":"The address of the account which holds the tokens","blockTime":"The block time when incentives will be minted"},"returns":{"_0":"Incentives an account is eligible to claim"}},"nTokenPresentValueAssetDenominated(uint16)":{"notice":"Returns the present value of the nToken's assets denominated in asset tokens"},"nTokenPresentValueUnderlyingDenominated(uint16)":{"notice":"Returns the present value of the nToken's assets denominated in underlying"}},"version":1},"opcodes":"PUSH1 0x80 PUSH1 0x40 MSTORE CALLVALUE DUP1 ISZERO PUSH2 0x10 JUMPI PUSH1 0x0 DUP1 REVERT JUMPDEST POP PUSH1 0x4 CALLDATASIZE LT PUSH2 0x137 JUMPI PUSH1 0x0 CALLDATALOAD PUSH1 0xE0 SHR DUP1 PUSH4 0x82463367 GT PUSH2 0xB8 JUMPI DUP1 PUSH4 0xBAC9E8B1 GT PUSH2 0x7C JUMPI DUP1 PUSH4 0xBAC9E8B1 EQ PUSH2 0x286 JUMPI DUP1 PUSH4 0xC4C96DAE EQ PUSH2 0x2A8 JUMPI DUP1 PUSH4 0xC50A6134 EQ PUSH2 0x2B0 JUMPI DUP1 PUSH4 0xC52C43E1 EQ PUSH2 0x2D1 JUMPI DUP1 PUSH4 0xF11FF573 EQ PUSH2 0x2E4 JUMPI DUP1 PUSH4 0xF83A8608 EQ PUSH2 0x2F7 JUMPI PUSH2 0x137 JUMP JUMPDEST DUP1 PUSH4 0x82463367 EQ PUSH2 0x23D JUMPI DUP1 PUSH4 0x8355E895 EQ PUSH2 0x245 JUMPI DUP1 PUSH4 0x8DA5CB5B EQ PUSH2 0x258 JUMPI DUP1 PUSH4 0x97D6DB2E EQ PUSH2 0x260 JUMPI DUP1 PUSH4 0xAAAE47B5 EQ PUSH2 0x273 JUMPI PUSH2 0x137 JUMP JUMPDEST DUP1 PUSH4 0x416A1587 GT PUSH2 0xFF JUMPI DUP1 PUSH4 0x416A1587 EQ PUSH2 0x1C1 JUMPI DUP1 PUSH4 0x5953C77B EQ PUSH2 0x1E4 JUMPI DUP1 PUSH4 0x6A09A2A3 EQ PUSH2 0x204 JUMPI DUP1 PUSH4 0x6D48C794 EQ PUSH2 0x217 JUMPI DUP1 PUSH4 0x6EBBF174 EQ PUSH2 0x22A JUMPI PUSH2 0x137 JUMP JUMPDEST DUP1 PUSH4 0x94614DF EQ PUSH2 0x13C JUMPI DUP1 PUSH4 0xEB49480 EQ PUSH2 0x166 JUMPI DUP1 PUSH4 0x1A05BCE1 EQ PUSH2 0x186 JUMPI DUP1 PUSH4 0x24A3D622 EQ PUSH2 0x199 JUMPI DUP1 PUSH4 0x3B2987B3 EQ PUSH2 0x1AE JUMPI JUMPDEST PUSH1 0x0 DUP1 REVERT JUMPDEST PUSH2 0x14F PUSH2 0x14A CALLDATASIZE PUSH1 0x4 PUSH2 0x4F53 JUMP JUMPDEST PUSH2 0x30A JUMP JUMPDEST PUSH1 0x40 MLOAD PUSH2 0x15D SWAP3 SWAP2 SWAP1 PUSH2 0x51C6 JUMP JUMPDEST PUSH1 0x40 MLOAD DUP1 SWAP2 SUB SWAP1 RETURN JUMPDEST PUSH2 0x179 PUSH2 0x174 CALLDATASIZE PUSH1 0x4 PUSH2 0x4F9B JUMP JUMPDEST PUSH2 0x328 JUMP JUMPDEST PUSH1 0x40 MLOAD PUSH2 0x15D SWAP2 SWAP1 PUSH2 0x51BD JUMP JUMPDEST PUSH2 0x179 PUSH2 0x194 CALLDATASIZE PUSH1 0x4 PUSH2 0x4EE3 JUMP JUMPDEST PUSH2 0x35F JUMP JUMPDEST PUSH2 0x1A1 PUSH2 0x375 JUMP JUMPDEST PUSH1 0x40 MLOAD PUSH2 0x15D SWAP2 SWAP1 PUSH2 0x516A JUMP JUMPDEST PUSH2 0x179 PUSH2 0x1BC CALLDATASIZE PUSH1 0x4 PUSH2 0x4EE3 JUMP JUMPDEST PUSH2 0x384 JUMP JUMPDEST PUSH2 0x1D4 PUSH2 0x1CF CALLDATASIZE PUSH1 0x4 PUSH2 0x5022 JUMP JUMPDEST PUSH2 0x3A7 JUMP JUMPDEST PUSH1 0x40 MLOAD PUSH2 0x15D SWAP5 SWAP4 SWAP3 SWAP2 SWAP1 PUSH2 0x53F8 JUMP JUMPDEST PUSH2 0x1F7 PUSH2 0x1F2 CALLDATASIZE PUSH1 0x4 PUSH2 0x5126 JUMP JUMPDEST PUSH2 0x44D JUMP JUMPDEST PUSH1 0x40 MLOAD PUSH2 0x15D SWAP2 SWAP1 PUSH2 0x543A JUMP JUMPDEST PUSH2 0x179 PUSH2 0x212 CALLDATASIZE PUSH1 0x4 PUSH2 0x50CD JUMP JUMPDEST PUSH2 0x479 JUMP JUMPDEST PUSH2 0x179 PUSH2 0x225 CALLDATASIZE PUSH1 0x4 PUSH2 0x4EFD JUMP JUMPDEST PUSH2 0x4F5 JUMP JUMPDEST PUSH2 0x179 PUSH2 0x238 CALLDATASIZE PUSH1 0x4 PUSH2 0x4F18 JUMP JUMPDEST PUSH2 0x55C JUMP JUMPDEST PUSH2 0x1A1 PUSH2 0x5BF JUMP JUMPDEST PUSH2 0x179 PUSH2 0x253 CALLDATASIZE PUSH1 0x4 PUSH2 0x4F53 JUMP JUMPDEST PUSH2 0x5CE JUMP JUMPDEST PUSH2 0x1A1 PUSH2 0x5F2 JUMP JUMPDEST PUSH2 0x179 PUSH2 0x26E CALLDATASIZE PUSH1 0x4 PUSH2 0x4EAD JUMP JUMPDEST PUSH2 0x609 JUMP JUMPDEST PUSH2 0x1D4 PUSH2 0x281 CALLDATASIZE PUSH1 0x4 PUSH2 0x5022 JUMP JUMPDEST PUSH2 0x741 JUMP JUMPDEST PUSH2 0x299 PUSH2 0x294 CALLDATASIZE PUSH1 0x4 PUSH2 0x506F JUMP JUMPDEST PUSH2 0x7D3 JUMP JUMPDEST PUSH1 0x40 MLOAD PUSH2 0x15D SWAP4 SWAP3 SWAP2 SWAP1 PUSH2 0x5416 JUMP JUMPDEST PUSH2 0x1A1 PUSH2 0x84E JUMP JUMPDEST PUSH2 0x2C3 PUSH2 0x2BE CALLDATASIZE PUSH1 0x4 PUSH2 0x4EE3 JUMP JUMPDEST PUSH2 0x866 JUMP JUMPDEST PUSH1 0x40 MLOAD PUSH2 0x15D SWAP3 SWAP2 SWAP1 PUSH2 0x535C JUMP JUMPDEST PUSH2 0x179 PUSH2 0x2DF CALLDATASIZE PUSH1 0x4 PUSH2 0x4FD3 JUMP JUMPDEST PUSH2 0x891 JUMP JUMPDEST PUSH2 0x179 PUSH2 0x2F2 CALLDATASIZE PUSH1 0x4 PUSH2 0x4EFD JUMP JUMPDEST PUSH2 0x8D9 JUMP JUMPDEST PUSH2 0x299 PUSH2 0x305 CALLDATASIZE PUSH1 0x4 PUSH2 0x506F JUMP JUMPDEST PUSH2 0x91C JUMP JUMPDEST PUSH1 0x0 DUP1 PUSH2 0x31B DUP7 DUP7 DUP7 DUP7 PUSH1 0x0 PUSH2 0x981 JUMP JUMPDEST SWAP2 POP SWAP2 POP SWAP5 POP SWAP5 SWAP3 POP POP POP JUMP JUMPDEST PUSH1 0x0 DUP2 DUP5 GT ISZERO PUSH2 0x337 JUMPI PUSH1 0x0 DUP1 REVERT JUMPDEST PUSH1 0x0 PUSH2 0x343 DUP7 DUP5 PUSH2 0xA7D JUMP JUMPDEST POP SWAP1 POP PUSH2 0x353 DUP2 DUP8 DUP8 DUP8 DUP8 PUSH2 0xB36 JUMP JUMPDEST SWAP2 POP POP JUMPDEST SWAP5 SWAP4 POP POP POP POP JUMP JUMPDEST PUSH1 0x0 DUP1 PUSH2 0x36B DUP4 PUSH2 0xB5D JUMP JUMPDEST POP SWAP2 POP POP JUMPDEST SWAP2 SWAP1 POP JUMP JUMPDEST PUSH1 0x2 SLOAD PUSH1 0x1 PUSH1 0x1 PUSH1 0xA0 SHL SUB AND DUP2 JUMP JUMPDEST PUSH1 0x0 DUP1 PUSH1 0x0 PUSH2 0x392 DUP5 PUSH2 0xB5D JUMP JUMPDEST DUP1 MLOAD PUSH1 0x40 ADD MLOAD SWAP2 SWAP4 POP SWAP2 POP PUSH2 0x357 SWAP1 DUP4 PUSH2 0xB92 JUMP JUMPDEST PUSH1 0x0 DUP1 PUSH1 0x0 DUP1 PUSH2 0x3B7 DUP8 DUP7 PUSH2 0x44D JUMP JUMPDEST SWAP2 POP PUSH1 0x0 DUP3 PUSH1 0xFF AND GT PUSH2 0x3C9 JUMPI PUSH1 0x0 DUP1 REVERT JUMPDEST PUSH11 0x7FFFFFFFFFFFFFFFFFFFFF DUP9 LT PUSH2 0x3E0 JUMPI PUSH1 0x0 DUP1 REVERT JUMPDEST PUSH1 0x0 PUSH2 0x3F3 PUSH2 0x3EE DUP11 PUSH2 0xBBE JUMP JUMPDEST PUSH2 0xBD8 JUMP JUMPDEST SWAP1 POP PUSH1 0x0 DUP1 PUSH2 0x40E DUP13 DUP5 DUP8 PUSH1 0xFF AND DUP12 DUP14 PUSH4 0xFFFFFFFF AND PUSH2 0x981 JUMP JUMPDEST SWAP2 POP SWAP2 POP PUSH2 0x41C DUP13 DUP3 PUSH2 0xBE6 JUMP JUMPDEST SWAP7 POP PUSH2 0x427 DUP3 PUSH2 0xC32 JUMP JUMPDEST SWAP6 POP PUSH2 0x439 PUSH1 0x1 DUP7 DUP6 PUSH1 0xA SIGNEXTEND DUP13 PUSH2 0xC41 JUMP JUMPDEST POP DUP1 SWAP5 POP POP POP POP POP SWAP6 POP SWAP6 POP SWAP6 POP SWAP6 SWAP2 POP POP JUMP JUMPDEST PUSH1 0x0 DUP1 PUSH1 0x0 PUSH2 0x45E PUSH1 0x7 DUP7 DUP7 PUSH2 0xC9F JUMP JUMPDEST SWAP2 POP SWAP2 POP DUP1 PUSH2 0x46D JUMPI DUP2 PUSH2 0x470 JUMP JUMPDEST PUSH1 0x0 JUMPDEST SWAP6 SWAP5 POP POP POP POP POP JUMP JUMPDEST PUSH1 0x0 PUSH2 0x484 DUP4 PUSH2 0xD2E JUMP JUMPDEST PUSH1 0x0 PUSH2 0x493 DUP5 PUSH2 0xFFFF AND PUSH2 0xD6B JUMP JUMPDEST SWAP1 POP PUSH1 0x0 PUSH2 0x4AA DUP3 PUSH1 0x1 PUSH1 0x1 PUSH1 0x58 SHL SUB DUP7 AND PUSH2 0xD7E JUMP JUMPDEST SWAP1 POP PUSH2 0x4B4 PUSH2 0x4BE1 JUMP JUMPDEST PUSH2 0x4BE DUP2 DUP8 PUSH2 0xDAE JUMP JUMPDEST DUP1 MLOAD PUSH1 0x40 ADD MLOAD PUSH1 0x0 SWAP1 PUSH2 0x4DD SWAP1 DUP4 SWAP1 PUSH2 0x4D7 SWAP1 DUP7 PUSH2 0xDC7 JUMP JUMPDEST TIMESTAMP PUSH2 0xDE9 JUMP JUMPDEST SWAP1 POP PUSH2 0x4E8 DUP2 PUSH2 0xC32 JUMP JUMPDEST SWAP5 POP POP POP POP POP JUMPDEST SWAP3 SWAP2 POP POP JUMP JUMPDEST PUSH1 0x0 DUP1 PUSH1 0x0 PUSH2 0x503 DUP6 PUSH2 0xB5D JUMP JUMPDEST SWAP2 POP SWAP2 POP PUSH1 0x0 PUSH2 0x52A DUP3 PUSH1 0x40 ADD MLOAD PUSH2 0x524 DUP6 DUP9 PUSH2 0xE96 SWAP1 SWAP2 SWAP1 PUSH4 0xFFFFFFFF AND JUMP JUMPDEST SWAP1 PUSH2 0xEE4 JUMP JUMPDEST DUP3 MLOAD PUSH1 0x40 ADD MLOAD SWAP1 SWAP2 POP PUSH1 0x0 SWAP1 PUSH2 0x540 SWAP1 DUP4 PUSH2 0xB92 JUMP JUMPDEST SWAP1 POP PUSH2 0x4E8 PUSH2 0x557 DUP9 PUSH2 0x552 DUP5 PUSH2 0xF15 JUMP JUMPDEST PUSH2 0xBE6 JUMP JUMPDEST PUSH2 0xBBE JUMP JUMPDEST PUSH1 0x0 DUP2 PUSH2 0x56A JUMPI POP DUP2 PUSH2 0x5B8 JUMP JUMPDEST PUSH1 0x0 PUSH2 0x576 DUP6 TIMESTAMP PUSH2 0xA7D JUMP JUMPDEST POP SWAP1 POP PUSH1 0x0 PUSH2 0x585 DUP3 DUP7 PUSH2 0xB92 JUMP JUMPDEST SWAP1 POP PUSH1 0x0 PUSH2 0x599 PUSH2 0x557 DUP9 PUSH2 0x552 DUP6 PUSH2 0xF15 JUMP JUMPDEST SWAP1 POP PUSH1 0x0 DUP3 SLT PUSH2 0x5A9 JUMPI DUP1 PUSH2 0x5B2 JUMP JUMPDEST PUSH2 0x5B2 DUP2 PUSH2 0xBD8 JUMP JUMPDEST SWAP4 POP POP POP POP JUMPDEST SWAP4 SWAP3 POP POP POP JUMP JUMPDEST PUSH1 0x1 SLOAD PUSH1 0x1 PUSH1 0x1 PUSH1 0xA0 SHL SUB AND DUP2 JUMP JUMPDEST PUSH1 0x0 PUSH2 0x5D9 DUP6 PUSH2 0xD2E JUMP JUMPDEST PUSH1 0x0 PUSH2 0x5E4 DUP7 PUSH2 0xF36 JUMP JUMPDEST SWAP1 POP PUSH2 0x353 DUP6 DUP6 DUP6 DUP5 PUSH2 0xF57 JUMP JUMPDEST PUSH1 0x0 SLOAD PUSH5 0x100000000 SWAP1 DIV PUSH1 0x1 PUSH1 0x1 PUSH1 0xA0 SHL SUB AND DUP2 JUMP JUMPDEST PUSH1 0x0 DUP1 PUSH2 0x615 DUP5 PUSH2 0xFE9 JUMP JUMPDEST SWAP1 POP PUSH2 0x61F PUSH2 0x4C2A JUMP JUMPDEST PUSH1 0x0 PUSH2 0x62A DUP4 PUSH2 0x109D JUMP JUMPDEST ISZERO PUSH2 0x6A0 JUMPI PUSH1 0x60 DUP4 ADD MLOAD PUSH2 0x642 SWAP1 DUP4 SWAP1 DUP9 SWAP1 DUP7 PUSH2 0x10AA JUMP JUMPDEST PUSH1 0x0 DUP3 PUSH1 0x40 ADD MLOAD SGT ISZERO PUSH2 0x6A0 JUMPI PUSH1 0x0 PUSH2 0x662 DUP4 PUSH1 0x0 ADD MLOAD PUSH2 0xFFFF AND PUSH2 0x10CD JUMP JUMPDEST SWAP1 POP PUSH1 0x0 PUSH2 0x670 DUP3 DUP9 PUSH2 0x10F3 JUMP JUMPDEST POP SWAP2 POP POP PUSH1 0x0 PUSH2 0x68E DUP6 DUP5 DUP5 PUSH2 0x689 DUP10 PUSH1 0x40 ADD MLOAD PUSH2 0xC32 JUMP JUMPDEST PUSH2 0x1189 JUMP JUMPDEST SWAP1 POP PUSH2 0x69A DUP5 DUP3 PUSH2 0x12B6 JUMP JUMPDEST SWAP4 POP POP POP POP JUMPDEST PUSH1 0x80 DUP4 ADD MLOAD JUMPDEST PUSH1 0x1 PUSH1 0x1 PUSH1 0x70 SHL SUB NOT DUP2 AND ISZERO PUSH2 0x737 JUMPI PUSH1 0xF0 DUP2 SWAP1 SHR PUSH2 0x3FFF AND PUSH2 0x6CB DUP5 DUP10 DUP4 DUP9 PUSH2 0x10AA JUMP JUMPDEST PUSH1 0x0 DUP5 PUSH1 0x40 ADD MLOAD SGT ISZERO PUSH2 0x724 JUMPI PUSH1 0x0 PUSH2 0x6EB DUP6 PUSH1 0x0 ADD MLOAD PUSH2 0xFFFF AND PUSH2 0x10CD JUMP JUMPDEST SWAP1 POP PUSH1 0x0 PUSH2 0x6F9 DUP3 DUP11 PUSH2 0x10F3 JUMP JUMPDEST POP SWAP2 POP POP PUSH1 0x0 PUSH2 0x712 DUP8 DUP5 DUP5 PUSH2 0x689 DUP12 PUSH1 0x40 ADD MLOAD PUSH2 0xC32 JUMP JUMPDEST SWAP1 POP PUSH2 0x71E DUP7 DUP3 PUSH2 0x12B6 JUMP JUMPDEST SWAP6 POP POP POP POP JUMPDEST POP PUSH1 0x10 SHL PUSH1 0x1 PUSH1 0x1 PUSH1 0x80 SHL SUB NOT AND PUSH2 0x6A6 JUMP JUMPDEST POP SWAP6 SWAP5 POP POP POP POP POP JUMP JUMPDEST PUSH1 0x0 DUP1 PUSH1 0x0 DUP1 PUSH2 0x751 DUP8 DUP7 PUSH2 0x44D JUMP JUMPDEST SWAP2 POP PUSH1 0x0 DUP3 PUSH1 0xFF AND GT PUSH2 0x763 JUMPI PUSH1 0x0 DUP1 REVERT JUMPDEST PUSH11 0x7FFFFFFFFFFFFFFFFFFFFF DUP9 LT PUSH2 0x77A JUMPI PUSH1 0x0 DUP1 REVERT JUMPDEST PUSH1 0x0 PUSH2 0x785 DUP10 PUSH2 0xBBE JUMP JUMPDEST SWAP1 POP PUSH1 0x0 DUP1 PUSH2 0x7A0 DUP13 DUP5 DUP8 PUSH1 0xFF AND DUP12 DUP14 PUSH4 0xFFFFFFFF AND PUSH2 0x981 JUMP JUMPDEST SWAP2 POP SWAP2 POP PUSH2 0x7AE DUP13 DUP3 PUSH2 0xBE6 JUMP JUMPDEST SWAP7 POP PUSH2 0x7C1 PUSH2 0x7BC DUP4 PUSH2 0xBD8 JUMP JUMPDEST PUSH2 0xC32 JUMP JUMPDEST SWAP6 POP PUSH2 0x439 PUSH1 0x0 DUP7 DUP6 PUSH1 0xA SIGNEXTEND DUP13 PUSH2 0xC41 JUMP JUMPDEST PUSH1 0x0 DUP1 PUSH1 0x0 PUSH2 0x7E2 DUP8 DUP7 PUSH2 0x44D JUMP JUMPDEST SWAP2 POP PUSH1 0x0 DUP3 PUSH1 0xFF AND GT PUSH2 0x7F4 JUMPI PUSH1 0x0 DUP1 REVERT JUMPDEST PUSH1 0x0 DUP1 PUSH2 0x802 DUP12 DUP12 DUP9 PUSH2 0x12C8 JUMP JUMPDEST SWAP2 POP SWAP2 POP PUSH1 0x0 PUSH2 0x81F PUSH2 0x814 DUP5 PUSH2 0x132E JUMP JUMPDEST DUP7 PUSH1 0xFF AND DUP11 DUP6 PUSH2 0xF57 JUMP JUMPDEST SWAP1 POP PUSH1 0x0 DUP2 SLT PUSH2 0x82E JUMPI PUSH1 0x0 DUP1 REVERT JUMPDEST PUSH2 0x83B PUSH1 0x1 DUP7 DUP4 DUP13 PUSH2 0xC41 JUMP JUMPDEST SWAP14 SWAP6 SWAP13 POP SWAP11 POP SWAP4 SWAP9 POP POP POP POP POP POP POP POP POP JUMP JUMPDEST PUSH20 0x0 SWAP1 JUMP JUMPDEST PUSH2 0x86E PUSH2 0x4C86 JUMP JUMPDEST PUSH2 0x876 PUSH2 0x4CA7 JUMP JUMPDEST PUSH2 0x87F DUP4 PUSH2 0x1360 JUMP JUMPDEST SWAP2 POP PUSH2 0x88A DUP4 PUSH2 0x1372 JUMP JUMPDEST SWAP1 POP SWAP2 POP SWAP2 JUMP JUMPDEST PUSH1 0x0 DUP1 PUSH2 0x89D DUP8 PUSH2 0xF36 JUMP JUMPDEST SWAP1 POP DUP3 ISZERO PUSH2 0x8B8 JUMPI PUSH2 0x8B1 DUP2 DUP7 DUP9 DUP8 PUSH2 0x143A JUMP JUMPDEST SWAP2 POP PUSH2 0x737 JUMP JUMPDEST PUSH2 0x8CE DUP6 DUP8 DUP7 PUSH2 0x8C9 DUP6 DUP4 DUP4 PUSH2 0x148A JUMP JUMPDEST PUSH2 0x1573 JUMP JUMPDEST SWAP8 SWAP7 POP POP POP POP POP POP POP JUMP JUMPDEST PUSH1 0x0 DUP1 PUSH2 0x8E6 DUP5 TIMESTAMP PUSH2 0xA7D JUMP JUMPDEST POP SWAP1 POP PUSH1 0x0 PUSH2 0x8F8 DUP6 PUSH2 0xFFFF AND PUSH2 0xD6B JUMP JUMPDEST SWAP1 POP PUSH1 0x0 PUSH2 0x906 DUP3 DUP7 PUSH2 0xD7E JUMP JUMPDEST SWAP1 POP PUSH2 0x912 DUP4 DUP3 PUSH2 0xDC7 JUMP JUMPDEST SWAP7 SWAP6 POP POP POP POP POP POP JUMP JUMPDEST PUSH1 0x0 DUP1 PUSH1 0x0 PUSH2 0x92B DUP8 DUP7 PUSH2 0x44D JUMP JUMPDEST SWAP2 POP PUSH1 0x0 DUP3 PUSH1 0xFF AND GT PUSH2 0x93D JUMPI PUSH1 0x0 DUP1 REVERT JUMPDEST PUSH1 0x0 DUP1 PUSH2 0x94B DUP12 DUP12 DUP9 PUSH2 0x12C8 JUMP JUMPDEST SWAP2 POP SWAP2 POP PUSH1 0x0 PUSH2 0x965 PUSH2 0x814 PUSH2 0x960 DUP6 PUSH2 0xBD8 JUMP JUMPDEST PUSH2 0x132E JUMP JUMPDEST SWAP1 POP DUP1 PUSH1 0x0 SLT PUSH2 0x974 JUMPI PUSH1 0x0 DUP1 REVERT JUMPDEST PUSH2 0x83B PUSH1 0x0 DUP7 DUP4 DUP13 PUSH2 0xC41 JUMP JUMPDEST PUSH1 0x0 DUP1 PUSH2 0x98D DUP8 PUSH2 0xD2E JUMP JUMPDEST PUSH1 0x0 PUSH2 0x998 DUP9 PUSH2 0xF36 JUMP JUMPDEST SWAP1 POP PUSH2 0x9A2 PUSH2 0x4CF3 JUMP JUMPDEST PUSH2 0x9B0 DUP3 DUP3 DUP10 PUSH1 0x0 DUP11 PUSH2 0x15B9 JUMP JUMPDEST DUP6 DUP2 PUSH1 0x20 ADD MLOAD GT PUSH2 0x9DC JUMPI PUSH1 0x40 MLOAD PUSH3 0x461BCD PUSH1 0xE5 SHL DUP2 MSTORE PUSH1 0x4 ADD PUSH2 0x9D3 SWAP1 PUSH2 0x52D8 JUMP JUMPDEST PUSH1 0x40 MLOAD DUP1 SWAP2 SUB SWAP1 REVERT JUMPDEST PUSH1 0x20 DUP2 ADD MLOAD DUP7 SWAP1 SUB PUSH1 0x0 PUSH2 0x9F7 DUP4 DUP6 PUSH1 0xA DUP14 SWAP1 SIGNEXTEND DUP6 DUP14 PUSH2 0x1634 JUMP JUMPDEST POP SWAP1 POP DUP7 ISZERO PUSH2 0xA59 JUMPI PUSH1 0x0 DUP11 PUSH1 0xA SIGNEXTEND SLT ISZERO PUSH2 0xA35 JUMPI DUP7 DUP4 PUSH1 0xA0 ADD MLOAD GT ISZERO PUSH2 0xA30 JUMPI PUSH1 0x40 MLOAD PUSH3 0x461BCD PUSH1 0xE5 SHL DUP2 MSTORE PUSH1 0x4 ADD PUSH2 0x9D3 SWAP1 PUSH2 0x52A8 JUMP JUMPDEST PUSH2 0xA59 JUMP JUMPDEST DUP7 DUP4 PUSH1 0xA0 ADD MLOAD LT ISZERO PUSH2 0xA59 JUMPI PUSH1 0x40 MLOAD PUSH3 0x461BCD PUSH1 0xE5 SHL DUP2 MSTORE PUSH1 0x4 ADD PUSH2 0x9D3 SWAP1 PUSH2 0x52A8 JUMP JUMPDEST PUSH1 0x40 DUP5 ADD MLOAD DUP2 SWAP1 PUSH2 0xA6A SWAP1 DUP3 PUSH2 0xB92 JUMP JUMPDEST SWAP6 POP SWAP6 POP POP POP POP POP JUMPDEST SWAP6 POP SWAP6 SWAP4 POP POP POP POP JUMP JUMPDEST PUSH2 0xA85 PUSH2 0x4C86 JUMP JUMPDEST PUSH2 0xA8D PUSH2 0x4CA7 JUMP JUMPDEST PUSH2 0xA96 DUP5 PUSH2 0x1372 JUMP JUMPDEST SWAP1 POP DUP3 DUP2 PUSH1 0x0 ADD MLOAD LT ISZERO PUSH2 0xAC7 JUMPI PUSH1 0x0 PUSH2 0xAAF DUP6 PUSH2 0x1762 JUMP JUMPDEST SWAP1 POP PUSH2 0xABD DUP6 DUP4 DUP4 DUP8 PUSH2 0x17DD JUMP JUMPDEST POP SWAP2 POP PUSH2 0xAD4 SWAP1 POP JUMP JUMPDEST DUP1 MLOAD DUP4 EQ PUSH2 0xAD4 JUMPI PUSH1 0x0 DUP1 REVERT JUMPDEST PUSH1 0x40 MLOAD DUP1 PUSH1 0x60 ADD PUSH1 0x40 MSTORE DUP1 PUSH2 0xAFD PUSH2 0x557 DUP5 PUSH1 0xA0 ADD MLOAD DUP6 PUSH1 0xC0 ADD MLOAD PUSH2 0x18DE SWAP1 SWAP2 SWAP1 PUSH4 0xFFFFFFFF AND JUMP JUMPDEST DUP2 MSTORE PUSH1 0x20 ADD PUSH2 0xB20 PUSH2 0x557 DUP5 PUSH1 0xA0 ADD MLOAD DUP6 PUSH1 0xE0 ADD MLOAD PUSH2 0x18DE SWAP1 SWAP2 SWAP1 PUSH4 0xFFFFFFFF AND JUMP JUMPDEST DUP2 MSTORE PUSH1 0x20 ADD DUP3 PUSH1 0x60 ADD MLOAD DUP2 MSTORE POP SWAP2 POP SWAP3 POP SWAP3 SWAP1 POP JUMP JUMPDEST PUSH1 0x0 DUP1 PUSH2 0xB44 DUP7 DUP7 DUP6 PUSH2 0x1905 JUMP JUMPDEST SWAP1 POP PUSH2 0xB51 DUP8 DUP3 DUP7 PUSH2 0x192D JUMP JUMPDEST POP SWAP8 SWAP7 POP POP POP POP POP POP POP JUMP JUMPDEST PUSH1 0x0 PUSH2 0xB67 PUSH2 0x4BE1 JUMP JUMPDEST TIMESTAMP PUSH2 0xB70 PUSH2 0x4BE1 JUMP JUMPDEST PUSH2 0xB7A DUP2 DUP7 PUSH2 0xDAE JUMP JUMPDEST PUSH1 0x0 PUSH2 0xB86 DUP3 DUP5 PUSH2 0x199B JUMP JUMPDEST SWAP5 POP SWAP1 SWAP3 POP POP POP SWAP2 POP SWAP2 JUMP JUMPDEST PUSH1 0x0 PUSH2 0x5B8 PUSH15 0xC097CE7BC90715B34B9F1000000000 PUSH2 0x524 DUP6 PUSH1 0x0 ADD MLOAD DUP6 PUSH2 0xE96 SWAP1 SWAP2 SWAP1 PUSH4 0xFFFFFFFF AND JUMP JUMPDEST PUSH1 0x0 PUSH1 0x1 PUSH1 0x1 PUSH1 0xFF SHL SUB DUP3 GT ISZERO PUSH2 0xBD4 JUMPI PUSH1 0x0 DUP1 REVERT JUMPDEST POP SWAP1 JUMP JUMPDEST PUSH1 0x0 PUSH2 0x4EF PUSH1 0x0 NOT DUP4 PUSH2 0xE96 JUMP JUMPDEST PUSH1 0x0 DUP1 PUSH2 0xBF6 DUP5 PUSH2 0xFFFF AND PUSH2 0xD6B JUMP JUMPDEST SWAP1 POP PUSH1 0x0 DUP1 DUP5 SLT PUSH2 0xC18 JUMPI PUSH2 0xC13 PUSH2 0xC0E DUP4 DUP7 PUSH2 0x1A4F JUMP JUMPDEST PUSH2 0xF15 JUMP JUMPDEST PUSH2 0xC2B JUMP JUMPDEST PUSH2 0xC2B PUSH2 0xC24 DUP6 PUSH2 0xBD8 JUMP JUMPDEST DUP4 SWAP1 PUSH2 0x1A87 JUMP JUMPDEST SWAP1 POP PUSH2 0x470 DUP2 JUMPDEST PUSH1 0x0 DUP1 DUP3 SLT ISZERO PUSH2 0xBD4 JUMPI PUSH1 0x0 DUP1 REVERT JUMPDEST PUSH1 0x0 DUP1 PUSH1 0x0 PUSH2 0xC4F DUP6 PUSH2 0xF15 JUMP JUMPDEST SWAP1 POP PUSH1 0x1 PUSH1 0x1 PUSH1 0x58 SHL SUB DUP2 GT ISZERO PUSH2 0xC65 JUMPI PUSH1 0x0 DUP1 REVERT JUMPDEST PUSH1 0x78 DUP5 PUSH4 0xFFFFFFFF AND SWAP1 SHL PUSH1 0x98 DUP3 SWAP1 SHL PUSH1 0xF0 DUP9 PUSH1 0xFF AND SWAP1 SHL PUSH1 0xF8 DUP11 PUSH1 0x5 DUP2 GT ISZERO PUSH2 0xC8B JUMPI INVALID JUMPDEST PUSH1 0xFF AND SWAP1 SHL OR OR OR SWAP8 SWAP1 SWAP7 POP SWAP5 POP POP POP POP POP JUMP JUMPDEST PUSH1 0x0 DUP1 PUSH1 0x0 DUP6 GT PUSH2 0xCAF JUMPI PUSH1 0x0 DUP1 REVERT JUMPDEST PUSH1 0x7 DUP6 GT ISZERO PUSH2 0xCBD JUMPI PUSH1 0x0 DUP1 REVERT JUMPDEST PUSH1 0x0 PUSH2 0xCC8 DUP5 PUSH2 0x1AC3 JUMP JUMPDEST SWAP1 POP PUSH1 0x1 JUMPDEST DUP7 DUP2 GT PUSH2 0xD20 JUMPI PUSH1 0x0 PUSH2 0xCE9 PUSH2 0xCE2 DUP4 PUSH2 0x1AE4 JUMP JUMPDEST DUP5 SWAP1 PUSH2 0x12B6 JUMP JUMPDEST SWAP1 POP DUP7 DUP2 EQ ISZERO PUSH2 0xD01 JUMPI POP SWAP3 POP PUSH1 0x0 SWAP2 POP PUSH2 0xD26 SWAP1 POP JUMP JUMPDEST DUP7 DUP2 GT ISZERO PUSH2 0xD17 JUMPI POP SWAP3 POP PUSH1 0x1 SWAP2 POP PUSH2 0xD26 SWAP1 POP JUMP JUMPDEST POP PUSH1 0x1 ADD PUSH2 0xCCD JUMP JUMPDEST POP PUSH1 0x0 DUP1 REVERT JUMPDEST SWAP4 POP SWAP4 SWAP2 POP POP JUMP JUMPDEST DUP1 PUSH2 0xFFFF AND PUSH1 0x0 LT DUP1 ISZERO PUSH2 0xD4C JUMPI POP PUSH1 0x0 SLOAD PUSH2 0xFFFF SWAP1 DUP2 AND SWAP1 DUP3 AND GT ISZERO JUMPDEST PUSH2 0xD68 JUMPI PUSH1 0x40 MLOAD PUSH3 0x461BCD PUSH1 0xE5 SHL DUP2 MSTORE PUSH1 0x4 ADD PUSH2 0x9D3 SWAP1 PUSH2 0x5304 JUMP JUMPDEST POP JUMP JUMPDEST PUSH2 0xD73 PUSH2 0x4D3B JUMP JUMPDEST PUSH2 0x4EF DUP3 PUSH1 0x1 PUSH2 0x1B88 JUMP JUMPDEST PUSH1 0x0 PUSH4 0x5F5E100 DUP4 PUSH1 0x40 ADD MLOAD EQ ISZERO PUSH2 0xD97 JUMPI POP DUP1 PUSH2 0x4EF JUMP JUMPDEST PUSH1 0x40 DUP4 ADD MLOAD PUSH2 0x5B8 SWAP1 PUSH2 0x524 DUP5 PUSH4 0x5F5E100 PUSH2 0xE96 JUMP JUMPDEST PUSH2 0xDB8 DUP3 DUP3 PUSH2 0x1C22 JUMP JUMPDEST PUSH2 0xDC1 DUP2 PUSH2 0xF36 JUMP JUMPDEST SWAP1 SWAP2 MSTORE POP JUMP JUMPDEST DUP2 MLOAD PUSH1 0x0 SWAP1 PUSH2 0x5B8 SWAP1 PUSH2 0x524 DUP5 PUSH15 0xC097CE7BC90715B34B9F1000000000 PUSH2 0xE96 JUMP JUMPDEST PUSH1 0x0 DUP1 DUP4 SLT ISZERO PUSH2 0xDF8 JUMPI PUSH1 0x0 DUP1 REVERT JUMPDEST DUP3 PUSH2 0xE05 JUMPI POP PUSH1 0x0 PUSH2 0x5B8 JUMP JUMPDEST PUSH1 0x80 DUP5 ADD MLOAD ISZERO PUSH2 0xE3D JUMPI PUSH1 0x0 PUSH2 0xE1A DUP6 PUSH2 0x1CBE JUMP JUMPDEST SWAP1 POP DUP3 DUP2 GT PUSH2 0xE3B JUMPI PUSH1 0x40 MLOAD PUSH3 0x461BCD PUSH1 0xE5 SHL DUP2 MSTORE PUSH1 0x4 ADD PUSH2 0x9D3 SWAP1 PUSH2 0x5204 JUMP JUMPDEST POP JUMPDEST PUSH1 0x0 PUSH2 0xE49 DUP6 DUP5 PUSH2 0x199B JUMP JUMPDEST SWAP1 POP PUSH1 0x0 DUP2 SLT ISZERO PUSH2 0xE59 JUMPI PUSH1 0x0 DUP1 REVERT JUMPDEST PUSH1 0x40 DUP6 ADD MLOAD PUSH2 0xE6B JUMPI DUP4 SWAP2 POP POP PUSH2 0x5B8 JUMP JUMPDEST PUSH2 0xE86 DUP2 PUSH2 0x524 DUP8 PUSH1 0x40 ADD MLOAD DUP8 PUSH2 0xE96 SWAP1 SWAP2 SWAP1 PUSH4 0xFFFFFFFF AND JUMP JUMPDEST SWAP2 POP POP PUSH2 0x5B8 JUMP JUMPDEST POP SWAP4 SWAP3 POP POP POP JUMP JUMPDEST DUP2 DUP2 MUL PUSH1 0x0 NOT DUP4 EQ ISZERO PUSH2 0xEC6 JUMPI DUP2 ISZERO DUP1 PUSH2 0xEB8 JUMPI POP DUP3 DUP3 DUP3 DUP2 PUSH2 0xEB5 JUMPI INVALID JUMPDEST SDIV EQ JUMPDEST PUSH2 0xEC1 JUMPI PUSH1 0x0 DUP1 REVERT JUMPDEST PUSH2 0x4EF JUMP JUMPDEST DUP3 ISZERO DUP1 PUSH2 0xEDB JUMPI POP DUP2 DUP4 DUP3 DUP2 PUSH2 0xED8 JUMPI INVALID JUMPDEST SDIV EQ JUMPDEST PUSH2 0x4EF JUMPI PUSH1 0x0 DUP1 REVERT JUMPDEST PUSH1 0x0 DUP2 PUSH1 0x0 NOT EQ DUP1 ISZERO PUSH2 0xEFA JUMPI POP PUSH1 0x1 PUSH1 0xFF SHL DUP4 EQ JUMPDEST ISZERO PUSH2 0xF04 JUMPI PUSH1 0x0 DUP1 REVERT JUMPDEST DUP2 DUP4 DUP2 PUSH2 0xF0D JUMPI INVALID JUMPDEST SDIV SWAP4 SWAP3 POP POP POP JUMP JUMPDEST PUSH1 0x0 DUP1 DUP3 SLT ISZERO PUSH2 0xF2F JUMPI PUSH2 0xF28 DUP3 PUSH2 0xBD8 JUMP JUMPDEST SWAP1 POP PUSH2 0x370 JUMP JUMPDEST POP DUP1 PUSH2 0x370 JUMP JUMPDEST PUSH2 0xF3E PUSH2 0x4D6A JUMP JUMPDEST PUSH1 0x0 PUSH2 0xF4A DUP4 TIMESTAMP PUSH2 0xA7D JUMP JUMPDEST POP SWAP1 POP PUSH2 0x5B8 DUP4 DUP3 PUSH2 0x1CEF JUMP JUMPDEST PUSH1 0x0 PUSH2 0xF61 PUSH2 0x4CF3 JUMP JUMPDEST PUSH2 0xF6F DUP4 DUP3 DUP8 PUSH1 0x0 DUP9 PUSH2 0x15B9 JUMP JUMPDEST DUP4 DUP2 PUSH1 0x20 ADD MLOAD GT PUSH2 0xF92 JUMPI PUSH1 0x40 MLOAD PUSH3 0x461BCD PUSH1 0xE5 SHL DUP2 MSTORE PUSH1 0x4 ADD PUSH2 0x9D3 SWAP1 PUSH2 0x52D8 JUMP JUMPDEST PUSH1 0x0 DUP5 DUP3 PUSH1 0x20 ADD MLOAD SUB SWAP1 POP PUSH1 0x0 PUSH2 0xFAD DUP6 PUSH1 0x0 ADD MLOAD DUP9 PUSH2 0x1D32 JUMP JUMPDEST SWAP1 POP PUSH2 0xFDD DUP2 DUP5 PUSH1 0x40 ADD MLOAD DUP11 PUSH1 0xA SIGNEXTEND PUSH2 0xFD7 DUP8 PUSH1 0x60 ADD MLOAD DUP11 PUSH1 0x40 ADD MLOAD PUSH2 0xB92 SWAP1 SWAP2 SWAP1 PUSH4 0xFFFFFFFF AND JUMP JUMPDEST DUP7 PUSH2 0x1D4C JUMP JUMPDEST SWAP9 SWAP8 POP POP POP POP POP POP POP POP JUMP JUMPDEST PUSH2 0xFF1 PUSH2 0x4D96 JUMP JUMPDEST PUSH1 0x0 PUSH2 0xFFB PUSH2 0x1E88 JUMP JUMPDEST PUSH1 0x1 PUSH1 0x1 PUSH1 0xA0 SHL SUB DUP5 AND PUSH1 0x0 SWAP1 DUP2 MSTORE PUSH1 0x20 SWAP2 DUP3 MSTORE PUSH1 0x40 SWAP1 DUP2 SWAP1 KECCAK256 DUP2 MLOAD PUSH1 0xC0 DUP2 ADD DUP4 MSTORE SWAP1 SLOAD PUSH5 0xFFFFFFFFFF DUP2 AND DUP3 MSTORE PUSH1 0x1 PUSH1 0x1 PUSH1 0xF8 SHL SUB NOT PUSH1 0x1 PUSH1 0x28 SHL DUP3 DIV PUSH1 0xF8 SHL AND SWAP4 DUP3 ADD SWAP4 SWAP1 SWAP4 MSTORE PUSH1 0xFF PUSH1 0x1 PUSH1 0x30 SHL DUP5 DIV DUP2 AND SWAP3 DUP3 ADD SWAP3 SWAP1 SWAP3 MSTORE PUSH2 0xFFFF PUSH1 0x1 PUSH1 0x38 SHL DUP5 DIV AND PUSH1 0x60 DUP3 ADD MSTORE PUSH1 0x1 PUSH1 0x1 PUSH1 0x70 SHL SUB NOT PUSH10 0x1000000000000000000 DUP5 DIV PUSH1 0x70 SHL AND PUSH1 0x80 DUP3 ADD MSTORE PUSH1 0x1 PUSH1 0xD8 SHL SWAP1 SWAP3 DIV AND ISZERO ISZERO PUSH1 0xA0 DUP3 ADD MSTORE SWAP2 POP POP SWAP2 SWAP1 POP JUMP JUMPDEST PUSH1 0x60 ADD MLOAD PUSH2 0xFFFF AND ISZERO ISZERO SWAP1 JUMP JUMPDEST PUSH2 0x10B4 DUP3 TIMESTAMP PUSH2 0xA7D JUMP JUMPDEST POP PUSH2 0x120 DUP6 ADD MSTORE PUSH2 0x10C7 DUP5 DUP5 DUP5 DUP5 PUSH2 0x1E95 JUMP JUMPDEST POP POP POP POP JUMP JUMPDEST PUSH1 0x0 DUP1 PUSH2 0x10D8 PUSH2 0x1F3D JUMP JUMPDEST PUSH1 0x0 SWAP4 DUP5 MSTORE PUSH1 0x20 MSTORE POP POP PUSH1 0x40 SWAP1 KECCAK256 SLOAD PUSH1 0x1 PUSH1 0x1 PUSH1 0xA0 SHL SUB AND SWAP1 JUMP JUMPDEST PUSH1 0x0 DUP1 PUSH1 0x0 PUSH2 0x1101 DUP6 PUSH2 0x1F4A JUMP JUMPDEST SWAP2 SWAP5 POP SWAP3 POP SWAP1 POP DUP1 DUP5 GT DUP1 ISZERO PUSH2 0x1117 JUMPI POP PUSH1 0x0 DUP2 GT JUMPDEST DUP1 ISZERO PUSH2 0x1123 JUMPI POP PUSH1 0x0 DUP4 GT JUMPDEST ISZERO PUSH2 0x1182 JUMPI PUSH1 0x0 PUSH2 0x1133 DUP7 PUSH2 0x1FAB JUMP JUMPDEST POP POP POP SWAP2 POP POP PUSH1 0x0 PUSH2 0x115E PUSH2 0x1155 PUSH4 0x5F5E100 DUP5 PUSH2 0x18DE SWAP1 SWAP2 SWAP1 PUSH4 0xFFFFFFFF AND JUMP JUMPDEST DUP5 DUP9 SUB DUP8 PUSH2 0x2014 JUMP JUMPDEST SWAP1 POP PUSH2 0x116A DUP5 DUP3 PUSH2 0x12B6 JUMP JUMPDEST SWAP4 POP PUSH1 0x1 PUSH1 0x1 PUSH1 0x80 SHL SUB DUP5 LT PUSH2 0x117F JUMPI PUSH1 0x0 DUP1 REVERT JUMPDEST POP POP JUMPDEST SWAP3 POP SWAP3 POP SWAP3 JUMP JUMPDEST PUSH1 0xE0 DUP5 ADD MLOAD PUSH1 0x0 SWAP1 ISZERO PUSH2 0x124A JUMPI PUSH20 0x0 PUSH4 0xE0C01A72 DUP6 PUSH2 0x11BE DUP9 PUSH1 0x40 ADD MLOAD PUSH2 0xC32 JUMP JUMPDEST DUP9 PUSH1 0xE0 ADD MLOAD DUP10 PUSH2 0x100 ADD MLOAD PUSH1 0x40 MLOAD DUP6 PUSH4 0xFFFFFFFF AND PUSH1 0xE0 SHL DUP2 MSTORE PUSH1 0x4 ADD PUSH2 0x11E8 SWAP5 SWAP4 SWAP3 SWAP2 SWAP1 PUSH2 0x5197 JUMP JUMPDEST PUSH1 0x20 PUSH1 0x40 MLOAD DUP1 DUP4 SUB DUP2 DUP7 DUP1 EXTCODESIZE ISZERO DUP1 ISZERO PUSH2 0x1200 JUMPI PUSH1 0x0 DUP1 REVERT JUMPDEST POP GAS DELEGATECALL ISZERO DUP1 ISZERO PUSH2 0x1214 JUMPI RETURNDATASIZE PUSH1 0x0 DUP1 RETURNDATACOPY RETURNDATASIZE PUSH1 0x0 REVERT JUMPDEST POP POP POP POP PUSH1 0x40 MLOAD RETURNDATASIZE PUSH1 0x1F NOT PUSH1 0x1F DUP3 ADD AND DUP3 ADD DUP1 PUSH1 0x40 MSTORE POP DUP2 ADD SWAP1 PUSH2 0x1238 SWAP2 SWAP1 PUSH2 0x510E JUMP JUMPDEST PUSH1 0x0 PUSH1 0xE0 DUP8 ADD DUP2 SWAP1 MSTORE PUSH2 0x100 DUP8 ADD MSTORE SWAP1 POP JUMPDEST PUSH2 0x128C PUSH2 0x1285 DUP7 PUSH2 0x100 ADD MLOAD PUSH2 0x127F PUSH8 0xDE0B6B3A7640000 PUSH2 0x1279 DUP9 PUSH2 0x1273 DUP13 PUSH1 0x40 ADD MLOAD PUSH2 0xC32 JUMP JUMPDEST SWAP1 PUSH2 0x18DE JUMP JUMPDEST SWAP1 PUSH2 0x2036 JUMP JUMPDEST SWAP1 PUSH2 0x2055 JUMP JUMPDEST DUP3 SWAP1 PUSH2 0x12B6 JUMP JUMPDEST SWAP1 POP PUSH2 0x12A4 PUSH8 0xDE0B6B3A7640000 PUSH2 0x1279 DUP5 DUP7 PUSH2 0x18DE JUMP JUMPDEST DUP6 PUSH2 0x100 ADD DUP2 DUP2 MSTORE POP POP SWAP5 SWAP4 POP POP POP POP JUMP JUMPDEST PUSH1 0x0 DUP3 DUP3 ADD DUP4 DUP2 LT ISZERO PUSH2 0x5B8 JUMPI PUSH1 0x0 DUP1 REVERT JUMPDEST PUSH1 0x0 PUSH2 0x12D2 PUSH2 0x4D6A JUMP JUMPDEST PUSH1 0x0 PUSH2 0x12DD DUP6 PUSH2 0xBBE JUMP JUMPDEST SWAP1 POP PUSH2 0x12E8 DUP7 PUSH2 0xF36 JUMP JUMPDEST SWAP2 POP DUP4 ISZERO PUSH2 0x1313 JUMPI PUSH1 0x0 PUSH2 0x12FF DUP8 PUSH2 0xFFFF AND PUSH2 0xD6B JUMP JUMPDEST SWAP1 POP PUSH2 0x130B DUP2 DUP4 PUSH2 0xD7E JUMP JUMPDEST SWAP4 POP POP PUSH2 0x1325 JUMP JUMPDEST PUSH1 0x40 DUP3 ADD MLOAD PUSH2 0x1322 SWAP1 DUP3 PUSH2 0xB92 JUMP JUMPDEST SWAP3 POP JUMPDEST POP SWAP4 POP SWAP4 SWAP2 POP POP JUMP JUMPDEST PUSH1 0x0 PUSH11 0x7FFFFFFFFFFFFFFFFFFFFF NOT DUP3 SLT DUP1 ISZERO SWAP1 PUSH2 0x1357 JUMPI POP PUSH11 0x7FFFFFFFFFFFFFFFFFFFFF DUP3 SGT ISZERO JUMPDEST PUSH2 0xBD4 JUMPI PUSH1 0x0 DUP1 REVERT JUMPDEST PUSH2 0x1368 PUSH2 0x4C86 JUMP JUMPDEST PUSH2 0x4EF DUP3 TIMESTAMP PUSH2 0x206A JUMP JUMPDEST PUSH2 0x137A PUSH2 0x4CA7 JUMP JUMPDEST PUSH1 0x0 PUSH2 0x1384 PUSH2 0x212B JUMP JUMPDEST PUSH2 0xFFFF SWAP4 DUP5 AND PUSH1 0x0 SWAP1 DUP2 MSTORE PUSH1 0x20 SWAP2 DUP3 MSTORE PUSH1 0x40 SWAP1 DUP2 SWAP1 KECCAK256 DUP1 SLOAD PUSH5 0xFFFFFFFFFF DUP2 AND DUP7 MSTORE PUSH1 0x1 PUSH1 0x28 SHL DUP2 DIV PUSH1 0x1 PUSH1 0x1 PUSH1 0x58 SHL SUB SWAP1 DUP2 AND SWAP5 DUP8 ADD SWAP5 SWAP1 SWAP5 MSTORE PUSH1 0x1 DUP3 ADD SLOAD DUP5 AND SWAP3 DUP7 ADD SWAP3 SWAP1 SWAP3 MSTORE PUSH1 0x1 PUSH1 0xD8 SHL DUP3 DIV PUSH4 0xFFFFFFFF AND PUSH1 0x60 DUP7 ADD MSTORE PUSH1 0x1 PUSH1 0x80 SHL SWAP1 SWAP2 DIV SWAP1 SWAP2 AND PUSH1 0x80 DUP5 ADD MSTORE PUSH1 0x2 ADD SLOAD PUSH1 0x1 PUSH1 0x1 PUSH1 0x50 SHL SUB DUP1 DUP3 AND PUSH1 0xA0 DUP6 ADD MSTORE PUSH1 0x1 PUSH1 0x50 SHL DUP3 DIV DUP2 AND PUSH1 0xC0 DUP6 ADD MSTORE PUSH1 0x1 PUSH1 0xA0 SHL DUP3 DIV AND PUSH1 0xE0 DUP5 ADD MSTORE PUSH1 0x1 PUSH1 0xF0 SHL SWAP1 DIV PUSH1 0xFF AND PUSH2 0x12C MUL SWAP1 SWAP3 AND PUSH2 0x100 DUP3 ADD MSTORE SWAP2 SWAP1 POP JUMP JUMPDEST PUSH1 0x0 DUP4 PUSH2 0x1449 JUMPI POP PUSH1 0x0 PUSH2 0x357 JUMP JUMPDEST PUSH1 0x0 DUP1 DUP6 SGT PUSH2 0x1462 JUMPI PUSH2 0x145D DUP7 DUP6 DUP6 PUSH2 0x2138 JUMP JUMPDEST PUSH2 0x146D JUMP JUMPDEST PUSH2 0x146D DUP7 DUP6 DUP6 PUSH2 0x2174 JUMP JUMPDEST SWAP1 POP PUSH4 0x3B9ACA00 DUP2 SGT ISZERO PUSH2 0x1480 JUMPI PUSH1 0x0 DUP1 REVERT JUMPDEST PUSH2 0x353 DUP6 DUP3 PUSH2 0x21B5 JUMP JUMPDEST PUSH1 0x0 DUP1 PUSH1 0x0 PUSH2 0x149E DUP7 PUSH1 0x20 ADD MLOAD DUP7 DUP7 PUSH2 0xC9F JUMP JUMPDEST SWAP2 POP SWAP2 POP PUSH1 0x0 PUSH2 0x14AD DUP8 PUSH2 0x21CE JUMP JUMPDEST SWAP1 POP DUP2 PUSH2 0x14CD JUMPI DUP7 MLOAD PUSH2 0x14C6 SWAP1 PUSH2 0xFFFF AND DUP8 DUP4 DUP9 PUSH2 0x21E2 JUMP JUMPDEST SWAP4 POP PUSH2 0x1569 JUMP JUMPDEST PUSH1 0x0 PUSH2 0x14D8 DUP7 PUSH2 0x1AC3 JUMP JUMPDEST SWAP1 POP PUSH1 0x0 PUSH2 0x14EF PUSH2 0x14E8 DUP7 PUSH2 0x1AE4 JUMP JUMPDEST DUP4 SWAP1 PUSH2 0x12B6 JUMP JUMPDEST SWAP1 POP PUSH1 0x0 PUSH2 0x1507 DUP11 PUSH1 0x0 ADD MLOAD PUSH2 0xFFFF AND DUP4 DUP7 DUP12 PUSH2 0x21E2 JUMP JUMPDEST SWAP1 POP PUSH1 0x0 DUP1 DUP8 PUSH1 0x1 EQ ISZERO PUSH2 0x1525 JUMPI POP POP PUSH1 0x40 DUP1 DUP12 ADD MLOAD ADD MLOAD DUP9 PUSH2 0x1554 JUMP JUMPDEST PUSH2 0x153B PUSH2 0x1534 PUSH1 0x1 DUP11 SUB PUSH2 0x1AE4 JUMP JUMPDEST DUP7 SWAP1 PUSH2 0x12B6 JUMP JUMPDEST SWAP1 POP PUSH2 0x1551 DUP13 PUSH1 0x0 ADD MLOAD PUSH2 0xFFFF AND DUP3 DUP9 DUP14 PUSH2 0x21E2 JUMP JUMPDEST SWAP2 POP JUMPDEST PUSH2 0x1561 DUP2 DUP6 DUP5 DUP7 DUP16 PUSH2 0x2281 JUMP JUMPDEST SWAP9 POP POP POP POP POP POP JUMPDEST POP POP POP SWAP4 SWAP3 POP POP POP JUMP JUMPDEST PUSH1 0x0 DUP5 PUSH2 0x1582 JUMPI POP PUSH1 0x0 PUSH2 0x357 JUMP JUMPDEST PUSH1 0x0 PUSH2 0x158E DUP6 DUP6 PUSH2 0x2055 JUMP JUMPDEST SWAP1 POP PUSH1 0x0 PUSH2 0x159C DUP3 DUP6 PUSH2 0x22DF JUMP JUMPDEST SWAP1 POP PUSH4 0x3B9ACA00 DUP2 SGT ISZERO PUSH2 0x15AF JUMPI PUSH1 0x0 DUP1 REVERT JUMPDEST PUSH2 0x8CE DUP8 DUP3 PUSH2 0x21B5 JUMP JUMPDEST DUP3 PUSH1 0x1 GT ISZERO DUP1 ISZERO PUSH2 0x15CE JUMPI POP DUP5 PUSH1 0x20 ADD MLOAD DUP4 GT ISZERO JUMPDEST PUSH2 0x15EA JUMPI PUSH1 0x40 MLOAD PUSH3 0x461BCD PUSH1 0xE5 SHL DUP2 MSTORE PUSH1 0x4 ADD PUSH2 0x9D3 SWAP1 PUSH2 0x5280 JUMP JUMPDEST PUSH1 0x0 PUSH2 0x1607 PUSH2 0x15F8 DUP6 PUSH2 0x1AE4 JUMP JUMPDEST PUSH2 0x1601 DUP5 PUSH2 0x1AC3 JUMP JUMPDEST SWAP1 PUSH2 0x12B6 JUMP JUMPDEST SWAP1 POP PUSH2 0x162C DUP7 PUSH1 0x0 ADD MLOAD PUSH2 0xFFFF AND DUP3 DUP5 DUP7 PUSH2 0x1621 DUP12 PUSH2 0x21CE JUMP JUMPDEST DUP11 SWAP5 SWAP4 SWAP3 SWAP2 SWAP1 PUSH2 0x234C JUMP JUMPDEST POP POP POP POP POP POP JUMP JUMPDEST PUSH1 0x0 DUP1 PUSH1 0x0 DUP4 GT PUSH2 0x1644 JUMPI PUSH1 0x0 DUP1 REVERT JUMPDEST DUP5 DUP8 PUSH1 0x40 ADD MLOAD SGT PUSH2 0x165A JUMPI POP PUSH1 0x0 SWAP1 POP DUP1 PUSH2 0xA73 JUMP JUMPDEST PUSH1 0x0 PUSH2 0x166A DUP8 PUSH1 0x0 ADD MLOAD DUP6 PUSH2 0x1D32 JUMP JUMPDEST SWAP1 POP PUSH1 0x0 PUSH2 0x1689 DUP10 PUSH1 0x60 ADD MLOAD DUP10 PUSH1 0x40 ADD MLOAD PUSH2 0xB92 SWAP1 SWAP2 SWAP1 PUSH4 0xFFFFFFFF AND JUMP JUMPDEST SWAP1 POP PUSH1 0x0 DUP1 PUSH1 0x0 PUSH2 0x169E DUP6 DUP14 DUP14 DUP8 DUP15 DUP15 PUSH2 0x2376 JUMP JUMPDEST SWAP3 POP SWAP3 POP SWAP3 POP DUP3 PUSH1 0x0 EQ ISZERO PUSH2 0x16BE JUMPI PUSH1 0x0 DUP1 SWAP7 POP SWAP7 POP POP POP POP POP POP PUSH2 0xA73 JUMP JUMPDEST PUSH1 0x40 DUP13 ADD MLOAD PUSH2 0x16CD SWAP1 DUP12 PUSH2 0x2454 JUMP JUMPDEST PUSH1 0x40 DUP14 ADD MSTORE PUSH2 0x16DC DUP5 DUP4 PUSH2 0x2470 JUMP JUMPDEST SWAP4 POP PUSH1 0x0 PUSH2 0x16F0 PUSH1 0x0 DUP15 PUSH1 0x40 ADD MLOAD DUP8 PUSH2 0x2486 JUMP JUMPDEST SWAP1 POP PUSH4 0x3B9ACA00 DUP2 GT ISZERO PUSH2 0x1710 JUMPI PUSH1 0x0 DUP1 SWAP8 POP SWAP8 POP POP POP POP POP POP POP PUSH2 0xA73 JUMP JUMPDEST PUSH1 0x0 PUSH2 0x171C DUP8 DUP4 PUSH2 0x24C3 JUMP JUMPDEST SWAP1 POP DUP1 PUSH2 0x1736 JUMPI PUSH1 0x0 DUP1 SWAP9 POP SWAP9 POP POP POP POP POP POP POP POP PUSH2 0xA73 JUMP JUMPDEST PUSH1 0xA0 DUP15 ADD MSTORE POP PUSH1 0x40 DUP12 ADD MLOAD PUSH2 0x174F SWAP1 DUP14 SWAP1 DUP6 DUP6 DUP6 PUSH2 0x2576 JUMP JUMPDEST SWAP7 POP SWAP7 POP POP POP POP POP POP SWAP6 POP SWAP6 SWAP4 POP POP POP POP JUMP JUMPDEST PUSH1 0x0 DUP1 PUSH2 0x176E DUP4 PUSH2 0x25CB JUMP JUMPDEST PUSH1 0x1 PUSH1 0x1 PUSH1 0xA0 SHL SUB AND PUSH4 0xA77C05B8 PUSH1 0x40 MLOAD DUP2 PUSH4 0xFFFFFFFF AND PUSH1 0xE0 SHL DUP2 MSTORE PUSH1 0x4 ADD PUSH1 0x40 DUP1 MLOAD DUP1 DUP4 SUB DUP2 DUP7 DUP1 EXTCODESIZE ISZERO DUP1 ISZERO PUSH2 0x17A5 JUMPI PUSH1 0x0 DUP1 REVERT JUMPDEST POP GAS STATICCALL ISZERO DUP1 ISZERO PUSH2 0x17B9 JUMPI RETURNDATASIZE PUSH1 0x0 DUP1 RETURNDATACOPY RETURNDATASIZE PUSH1 0x0 REVERT JUMPDEST POP POP POP POP PUSH1 0x40 MLOAD RETURNDATASIZE PUSH1 0x1F NOT PUSH1 0x1F DUP3 ADD AND DUP3 ADD DUP1 PUSH1 0x40 MSTORE POP DUP2 ADD SWAP1 PUSH2 0x357 SWAP2 SWAP1 PUSH2 0x5147 JUMP JUMPDEST PUSH2 0x17E5 PUSH2 0x4CA7 JUMP JUMPDEST PUSH1 0x0 DUP1 PUSH1 0x0 PUSH2 0x17F5 DUP9 DUP7 DUP10 PUSH2 0x25FB JUMP JUMPDEST PUSH1 0xC0 DUP12 ADD SWAP3 SWAP1 SWAP3 MSTORE PUSH1 0xE0 DUP11 ADD SWAP3 SWAP1 SWAP3 MSTORE PUSH1 0x20 DUP10 ADD MLOAD SWAP2 SWAP4 POP SWAP2 POP PUSH2 0x1819 SWAP1 DUP4 PUSH2 0x12B6 JUMP JUMPDEST PUSH1 0x20 DUP9 ADD MSTORE PUSH1 0x80 DUP8 ADD MLOAD PUSH1 0x0 SWAP1 ISZERO PUSH2 0x1847 JUMPI PUSH1 0x80 DUP9 ADD MLOAD PUSH2 0x1844 SWAP1 PUSH2 0x183E DUP10 DUP3 PUSH2 0x2055 JUMP JUMPDEST SWAP1 PUSH2 0x2706 JUMP JUMPDEST SWAP1 POP JUMPDEST PUSH2 0x1867 PUSH2 0x185C PUSH8 0xDE0B6B3A7640000 DUP4 PUSH2 0x12B6 JUMP JUMPDEST PUSH1 0xA0 DUP11 ADD MLOAD SWAP1 PUSH2 0x2723 JUMP JUMPDEST PUSH1 0xA0 DUP10 ADD MSTORE POP PUSH1 0x80 DUP8 ADD DUP7 SWAP1 MSTORE PUSH1 0x0 PUSH2 0x187E PUSH2 0x2740 JUMP JUMPDEST PUSH2 0xFFFF DUP11 AND PUSH1 0x0 SWAP1 DUP2 MSTORE PUSH1 0x20 SWAP2 SWAP1 SWAP2 MSTORE PUSH1 0x40 SWAP1 KECCAK256 SLOAD DUP9 MLOAD PUSH4 0xFFFFFFFF PUSH1 0x1 PUSH1 0xA0 SHL SWAP1 SWAP3 DIV DUP3 AND SWAP3 POP PUSH2 0x18C9 SWAP2 PUSH2 0x18B8 SWAP1 DUP6 SWAP1 DUP6 SWAP1 PUSH2 0x12B6 AND JUMP JUMPDEST DUP11 PUSH1 0x60 ADD MLOAD DUP12 PUSH2 0x100 ADD MLOAD DUP11 PUSH2 0x274D JUMP JUMPDEST PUSH1 0x60 DUP10 ADD MSTORE POP POP SWAP3 DUP6 MSTORE POP SWAP3 SWAP5 SWAP1 SWAP4 POP SWAP2 POP POP JUMP JUMPDEST PUSH1 0x0 DUP3 PUSH2 0x18ED JUMPI POP PUSH1 0x0 PUSH2 0x4EF JUMP JUMPDEST DUP3 DUP3 MUL DUP3 DUP5 DUP3 DUP2 PUSH2 0x18FA JUMPI INVALID JUMPDEST DIV EQ PUSH2 0x5B8 JUMPI PUSH1 0x0 DUP1 REVERT JUMPDEST PUSH2 0x190D PUSH2 0x4C86 JUMP JUMPDEST PUSH1 0x0 PUSH2 0x1919 DUP6 DUP6 PUSH2 0x27D5 JUMP JUMPDEST SWAP1 SWAP3 POP SWAP1 POP DUP1 PUSH2 0xE8E JUMPI PUSH2 0x737 DUP6 DUP5 PUSH2 0xA7D JUMP JUMPDEST PUSH1 0x0 DUP1 PUSH2 0x193A DUP5 DUP5 PUSH2 0xDC7 JUMP JUMPDEST SWAP2 POP PUSH2 0x1946 DUP5 DUP4 PUSH2 0x2868 JUMP JUMPDEST SWAP1 POP PUSH1 0x0 DUP3 SLT ISZERO PUSH2 0xD26 JUMPI PUSH2 0x1991 PUSH1 0x1 PUSH2 0x198B DUP8 PUSH1 0x0 ADD MLOAD PUSH2 0x524 DUP10 PUSH1 0x20 ADD MLOAD PUSH2 0x1985 DUP11 PUSH1 0x20 ADD MLOAD PUSH2 0x524 DUP13 PUSH1 0x0 ADD MLOAD DUP12 PUSH2 0xE96 SWAP1 SWAP2 SWAP1 PUSH4 0xFFFFFFFF AND JUMP JUMPDEST SWAP1 PUSH2 0xE96 JUMP JUMPDEST SWAP1 PUSH2 0x28A1 JUMP JUMPDEST SWAP2 POP SWAP4 POP SWAP4 SWAP2 POP POP JUMP JUMPDEST PUSH1 0x0 DUP1 PUSH2 0x19A7 DUP5 PUSH2 0x1CBE JUMP JUMPDEST SWAP1 POP DUP3 DUP2 GT PUSH2 0x19B7 JUMPI PUSH1 0x1 DUP2 SUB SWAP3 POP JUMPDEST POP PUSH1 0x0 PUSH2 0x19C4 DUP5 DUP5 PUSH2 0x28B7 JUMP JUMPDEST POP SWAP1 POP PUSH1 0x0 PUSH2 0x19F2 DUP6 PUSH1 0xC0 ADD MLOAD DUP7 PUSH1 0x0 ADD MLOAD PUSH1 0x0 ADD MLOAD PUSH2 0xFFFF AND DUP8 PUSH1 0x80 ADD MLOAD DUP8 DUP10 PUSH1 0x0 ADD MLOAD PUSH1 0x20 ADD MLOAD PUSH2 0x2A0C JUMP JUMPDEST SWAP1 POP PUSH1 0x0 DUP2 ISZERO PUSH2 0x1A24 JUMPI PUSH1 0xC0 DUP7 ADD MLOAD DUP7 MLOAD DUP1 MLOAD PUSH1 0x80 DUP10 ADD MLOAD PUSH2 0x1A20 SWAP4 SWAP3 PUSH2 0xFFFF SWAP1 SWAP3 AND SWAP2 DUP10 SWAP1 PUSH1 0x0 DUP9 PUSH2 0x2AB8 JUMP JUMPDEST POP SWAP1 POP JUMPDEST PUSH1 0x60 DUP7 ADD MLOAD DUP7 MLOAD PUSH1 0x40 ADD MLOAD PUSH2 0x912 SWAP2 SWAP1 PUSH2 0x1A49 SWAP1 PUSH2 0x1A42 SWAP1 DUP6 PUSH2 0xDC7 JUMP JUMPDEST DUP7 SWAP1 PUSH2 0x2470 JUMP JUMPDEST SWAP1 PUSH2 0x2470 JUMP JUMPDEST PUSH1 0x0 PUSH4 0x5F5E100 DUP4 PUSH1 0x40 ADD MLOAD EQ ISZERO PUSH2 0x1A68 JUMPI POP DUP1 PUSH2 0x4EF JUMP JUMPDEST PUSH2 0x5B8 PUSH4 0x5F5E100 PUSH2 0x524 DUP6 PUSH1 0x40 ADD MLOAD DUP6 PUSH2 0xE96 SWAP1 SWAP2 SWAP1 PUSH4 0xFFFFFFFF AND JUMP JUMPDEST PUSH1 0x0 PUSH4 0x5F5E100 DUP4 PUSH1 0x40 ADD MLOAD SLT ISZERO PUSH2 0x1AAF JUMPI PUSH2 0x1AA8 PUSH1 0x1 PUSH2 0x1A49 DUP6 DUP6 PUSH2 0x1A4F JUMP JUMPDEST SWAP1 POP PUSH2 0x4EF JUMP JUMPDEST PUSH2 0x5B8 DUP4 PUSH2 0x1ABE DUP5 PUSH1 0x1 PUSH2 0x2470 JUMP JUMPDEST PUSH2 0x1A4F JUMP JUMPDEST PUSH1 0x0 PUSH3 0x76A700 DUP3 LT ISZERO PUSH2 0x1AD5 JUMPI PUSH1 0x0 DUP1 REVERT JUMPDEST PUSH3 0x76A700 DUP3 JUMPDEST MOD SWAP1 SWAP2 SUB SWAP2 SWAP1 POP JUMP JUMPDEST PUSH1 0x0 DUP2 PUSH1 0x1 EQ ISZERO PUSH2 0x1AF9 JUMPI POP PUSH3 0x76A700 PUSH2 0x370 JUMP JUMPDEST DUP2 PUSH1 0x2 EQ ISZERO PUSH2 0x1B0C JUMPI POP PUSH3 0xED4E00 PUSH2 0x370 JUMP JUMPDEST DUP2 PUSH1 0x3 EQ ISZERO PUSH2 0x1B20 JUMPI POP PUSH4 0x1DA9C00 PUSH2 0x370 JUMP JUMPDEST DUP2 PUSH1 0x4 EQ ISZERO PUSH2 0x1B34 JUMPI POP PUSH4 0x3B53800 PUSH2 0x370 JUMP JUMPDEST DUP2 PUSH1 0x5 EQ ISZERO PUSH2 0x1B48 JUMPI POP PUSH4 0x9450C00 PUSH2 0x370 JUMP JUMPDEST DUP2 PUSH1 0x6 EQ ISZERO PUSH2 0x1B5C JUMPI POP PUSH4 0x128A1800 PUSH2 0x370 JUMP JUMPDEST DUP2 PUSH1 0x7 EQ ISZERO PUSH2 0x1B70 JUMPI POP PUSH4 0x25143000 PUSH2 0x370 JUMP JUMPDEST PUSH1 0x40 MLOAD PUSH3 0x461BCD PUSH1 0xE5 SHL DUP2 MSTORE PUSH1 0x4 ADD PUSH2 0x9D3 SWAP1 PUSH2 0x5259 JUMP JUMPDEST PUSH2 0x1B90 PUSH2 0x4D3B JUMP JUMPDEST PUSH1 0x0 PUSH2 0x1B9A PUSH2 0x2B36 JUMP JUMPDEST PUSH1 0x0 DUP6 DUP2 MSTORE PUSH1 0x20 DUP3 DUP2 MSTORE PUSH1 0x40 DUP1 DUP4 KECCAK256 DUP8 ISZERO ISZERO DUP5 MSTORE DUP3 MSTORE SWAP2 DUP3 SWAP1 KECCAK256 DUP3 MLOAD PUSH1 0xA0 DUP2 ADD DUP5 MSTORE DUP2 SLOAD PUSH1 0x1 PUSH1 0x1 PUSH1 0xA0 SHL SUB DUP2 AND DUP3 MSTORE PUSH1 0xFF PUSH1 0x1 PUSH1 0xA0 SHL DUP3 DIV DUP2 AND ISZERO ISZERO SWAP5 DUP4 ADD SWAP5 SWAP1 SWAP5 MSTORE PUSH1 0x1 PUSH1 0xB0 SHL DUP2 DIV DUP5 AND PUSH1 0xA EXP SWAP5 DUP3 ADD SWAP5 SWAP1 SWAP5 MSTORE SWAP4 SWAP5 POP SWAP3 SWAP2 PUSH1 0x60 DUP4 ADD SWAP2 PUSH1 0x1 PUSH1 0xA8 SHL SWAP1 SWAP2 DIV AND PUSH1 0x5 DUP2 GT ISZERO PUSH2 0x1C0F JUMPI INVALID JUMPDEST DUP2 MSTORE PUSH1 0x0 PUSH1 0x20 SWAP1 SWAP2 ADD MSTORE SWAP6 SWAP5 POP POP POP POP POP JUMP JUMPDEST PUSH2 0x1C2F DUP2 PUSH2 0xFFFF AND PUSH2 0x10CD JUMP JUMPDEST PUSH1 0x1 PUSH1 0x1 PUSH1 0xA0 SHL SUB AND PUSH1 0xC0 DUP4 ADD DUP2 SWAP1 MSTORE PUSH1 0x0 SWAP1 DUP2 SWAP1 DUP2 SWAP1 PUSH2 0x1C4F SWAP1 PUSH2 0x1FAB JUMP JUMPDEST SWAP5 POP SWAP5 POP SWAP5 POP POP POP PUSH1 0x0 PUSH2 0x1C66 DUP7 PUSH1 0xC0 ADD MLOAD PUSH2 0x1F4A JUMP JUMPDEST POP POP PUSH1 0x80 DUP8 ADD DUP6 SWAP1 MSTORE PUSH1 0x40 DUP8 ADD DUP2 SWAP1 MSTORE PUSH1 0x1 PUSH1 0x1 PUSH1 0xD8 SHL SUB NOT DUP4 AND PUSH1 0xA0 DUP9 ADD MSTORE PUSH1 0xC0 DUP8 ADD MLOAD SWAP1 SWAP2 POP PUSH2 0x1C9A SWAP1 DUP5 PUSH1 0x0 PUSH2 0x2B43 JUMP JUMPDEST PUSH1 0x20 DUP8 ADD MSTORE PUSH1 0xC0 DUP7 ADD MLOAD PUSH2 0x1CAE SWAP1 DUP7 PUSH2 0x2BD6 JUMP JUMPDEST PUSH1 0x60 SWAP1 SWAP7 ADD SWAP6 SWAP1 SWAP6 MSTORE POP POP POP POP POP JUMP JUMPDEST PUSH1 0x0 DUP2 PUSH1 0x80 ADD MLOAD PUSH1 0x0 EQ ISZERO PUSH2 0x1CD5 JUMPI POP PUSH1 0x0 PUSH2 0x370 JUMP JUMPDEST PUSH1 0x80 DUP3 ADD MLOAD PUSH3 0x76A700 SWAP1 PUSH2 0x1CE8 SWAP1 PUSH2 0x1AC3 JUMP JUMPDEST ADD SWAP3 SWAP2 POP POP JUMP JUMPDEST PUSH2 0x1CF7 PUSH2 0x4D6A JUMP JUMPDEST PUSH1 0x0 PUSH2 0x1D06 DUP5 PUSH2 0xFFFF AND PUSH2 0x2C2F JUMP JUMPDEST PUSH1 0x40 DUP1 MLOAD PUSH1 0x80 DUP2 ADD DUP3 MSTORE PUSH2 0xFFFF SWAP7 SWAP1 SWAP7 AND DUP7 MSTORE PUSH1 0xFF DUP3 AND PUSH1 0x20 DUP8 ADD MSTORE DUP6 ADD SWAP4 SWAP1 SWAP4 MSTORE POP POP PUSH1 0x60 DUP3 ADD MSTORE SWAP1 JUMP JUMPDEST PUSH2 0x1D3A PUSH2 0x4DCB JUMP JUMPDEST PUSH2 0x5B8 DUP4 DUP4 PUSH2 0x1D47 PUSH2 0x2C4C JUMP JUMPDEST PUSH2 0x2C59 JUMP JUMPDEST PUSH1 0x0 DUP4 PUSH2 0x1D58 JUMPI PUSH1 0x0 DUP1 REVERT JUMPDEST DUP3 DUP5 SGT ISZERO PUSH2 0x1D78 JUMPI PUSH1 0x40 MLOAD PUSH3 0x461BCD PUSH1 0xE5 SHL DUP2 MSTORE PUSH1 0x4 ADD PUSH2 0x9D3 SWAP1 PUSH2 0x5331 JUMP JUMPDEST PUSH1 0x0 DUP1 PUSH1 0x0 PUSH2 0x1D9C DUP10 DUP10 DUP9 DUP9 PUSH1 0x0 DUP13 SGT PUSH2 0x1D93 JUMPI PUSH1 0x1 PUSH2 0x1D97 JUMP JUMPDEST PUSH1 0x0 NOT JUMPDEST PUSH2 0x2CB0 JUMP JUMPDEST SWAP1 POP PUSH1 0x0 DUP8 SLT ISZERO PUSH2 0x1DC6 JUMPI PUSH2 0x1DB0 DUP8 PUSH2 0xBD8 JUMP JUMPDEST SWAP3 POP PUSH2 0x1DBF PUSH2 0x3EE DUP9 DUP4 PUSH2 0x21B5 JUMP JUMPDEST SWAP2 POP PUSH2 0x1DF3 JUMP JUMPDEST PUSH2 0x1DD3 PUSH2 0x3EE DUP9 DUP4 PUSH2 0x21B5 JUMP JUMPDEST SWAP3 POP PUSH2 0x1DF0 PUSH2 0x3EE PUSH2 0x1DE9 DUP12 PUSH1 0x80 ADD MLOAD DUP9 PUSH2 0x2CE1 JUMP JUMPDEST DUP10 SWAP1 PUSH2 0x21B5 JUMP JUMPDEST SWAP2 POP JUMPDEST POP PUSH1 0x0 PUSH2 0x1E04 DUP10 DUP10 DUP9 DUP7 DUP10 DUP13 PUSH2 0x2D47 JUMP JUMPDEST SWAP1 POP PUSH1 0x0 JUMPDEST PUSH1 0xFA DUP2 PUSH1 0xFF AND LT ISZERO PUSH2 0x1E6F JUMPI DUP4 DUP4 SUB DUP1 PUSH2 0x1E2A JUMPI DUP4 SWAP6 POP POP POP POP POP POP PUSH2 0x470 JUMP JUMPDEST PUSH1 0x0 PUSH2 0x1E3A DUP13 DUP13 DUP12 DUP9 DUP13 DUP16 PUSH2 0x2D47 JUMP JUMPDEST SWAP1 POP PUSH1 0x0 PUSH2 0x1E5F PUSH2 0x1E58 PUSH2 0x1E4E DUP5 DUP9 PUSH2 0x28A1 JUMP JUMPDEST PUSH2 0x524 DUP6 DUP8 PUSH2 0xE96 JUMP JUMPDEST DUP8 SWAP1 PUSH2 0x28A1 JUMP JUMPDEST SWAP6 SWAP7 POP SWAP1 SWAP4 POP POP POP PUSH1 0x1 ADD PUSH2 0x1E09 JUMP JUMPDEST POP PUSH1 0x40 MLOAD PUSH3 0x461BCD PUSH1 0xE5 SHL DUP2 MSTORE PUSH1 0x4 ADD PUSH2 0x9D3 SWAP1 PUSH2 0x5231 JUMP JUMPDEST PUSH1 0x0 DUP1 PUSH2 0x4EF PUSH1 0x1 PUSH2 0x2D66 JUMP JUMPDEST DUP2 PUSH2 0xFFFF AND PUSH1 0x0 LT DUP1 ISZERO PUSH2 0x1EAF JUMPI POP PUSH2 0x3FFF PUSH2 0xFFFF DUP4 AND GT ISZERO JUMPDEST PUSH2 0x1EB8 JUMPI PUSH1 0x0 DUP1 REVERT JUMPDEST PUSH2 0xFFFF DUP3 AND DUP1 DUP6 MSTORE PUSH2 0x1ECB SWAP1 DUP3 SWAP1 PUSH2 0x2D78 JUMP JUMPDEST ISZERO PUSH2 0x1EFA JUMPI PUSH2 0x1EE0 DUP4 DUP4 DUP7 PUSH2 0x120 ADD MLOAD PUSH2 0x2E02 JUMP JUMPDEST PUSH2 0x100 DUP9 ADD MSTORE PUSH1 0xE0 DUP8 ADD MSTORE PUSH1 0x40 DUP7 ADD MSTORE PUSH1 0x20 DUP6 ADD MSTORE PUSH2 0x1F18 JUMP JUMPDEST PUSH1 0x0 PUSH1 0x20 DUP6 ADD DUP2 SWAP1 MSTORE PUSH1 0x40 DUP6 ADD DUP2 SWAP1 MSTORE PUSH1 0xE0 DUP6 ADD DUP2 SWAP1 MSTORE PUSH2 0x100 DUP6 ADD MSTORE JUMPDEST POP POP PUSH1 0x0 PUSH1 0x60 DUP4 ADD DUP2 SWAP1 MSTORE PUSH1 0x80 DUP4 ADD DUP2 SWAP1 MSTORE PUSH1 0xA0 DUP4 ADD DUP2 SWAP1 MSTORE PUSH1 0xC0 SWAP1 SWAP3 ADD SWAP2 SWAP1 SWAP2 MSTORE POP JUMP JUMPDEST PUSH1 0x0 DUP1 PUSH2 0x4EF PUSH1 0x3 PUSH2 0x2D66 JUMP JUMPDEST PUSH1 0x0 DUP1 PUSH1 0x0 DUP1 PUSH2 0x1F58 PUSH2 0x2EBC JUMP JUMPDEST PUSH1 0x1 PUSH1 0x1 PUSH1 0xA0 SHL SUB SWAP6 SWAP1 SWAP6 AND PUSH1 0x0 SWAP1 DUP2 MSTORE PUSH1 0x20 SWAP6 SWAP1 SWAP6 MSTORE POP POP PUSH1 0x40 SWAP1 SWAP3 KECCAK256 SLOAD PUSH12 0xFFFFFFFFFFFFFFFFFFFFFFFF DUP2 AND SWAP4 PUSH1 0x1 PUSH1 0x60 SHL DUP3 DIV PUSH1 0x1 PUSH1 0x1 PUSH1 0x80 SHL SUB AND SWAP4 POP PUSH1 0x1 PUSH1 0xE0 SHL SWAP1 SWAP2 DIV PUSH4 0xFFFFFFFF AND SWAP2 POP JUMP JUMPDEST PUSH1 0x0 DUP1 PUSH1 0x0 DUP1 PUSH1 0x0 DUP1 PUSH2 0x1FBC PUSH2 0x2EC9 JUMP JUMPDEST PUSH1 0x1 PUSH1 0x1 PUSH1 0xA0 SHL SUB SWAP1 SWAP8 AND PUSH1 0x0 SWAP1 DUP2 MSTORE PUSH1 0x20 SWAP8 SWAP1 SWAP8 MSTORE POP POP PUSH1 0x40 SWAP1 SWAP5 KECCAK256 SLOAD PUSH2 0xFFFF DUP2 AND SWAP6 PUSH4 0xFFFFFFFF PUSH3 0x10000 DUP4 DIV DUP2 AND SWAP7 POP PUSH1 0x1 PUSH1 0x30 SHL DUP4 DIV AND SWAP5 POP PUSH1 0xFF PUSH1 0x1 PUSH1 0x50 SHL DUP4 DIV AND SWAP4 POP PUSH1 0x1 PUSH1 0x58 SHL SWAP1 SWAP2 DIV PUSH1 0xD8 SHL SWAP2 POP JUMP JUMPDEST PUSH1 0x0 PUSH2 0x357 DUP3 PUSH2 0x1279 PUSH4 0x1DA9C00 DUP2 DUP9 PUSH2 0x1273 DUP10 PUSH8 0xDE0B6B3A7640000 PUSH2 0x18DE JUMP JUMPDEST PUSH1 0x0 DUP1 DUP3 GT PUSH2 0x2044 JUMPI PUSH1 0x0 DUP1 REVERT JUMPDEST DUP2 DUP4 DUP2 PUSH2 0x204D JUMPI INVALID JUMPDEST DIV SWAP4 SWAP3 POP POP POP JUMP JUMPDEST PUSH1 0x0 DUP3 DUP3 GT ISZERO PUSH2 0x2064 JUMPI PUSH1 0x0 DUP1 REVERT JUMPDEST POP SWAP1 SUB SWAP1 JUMP JUMPDEST PUSH2 0x2072 PUSH2 0x4C86 JUMP JUMPDEST PUSH1 0x0 PUSH2 0x207D DUP5 PUSH2 0x1372 JUMP JUMPDEST SWAP1 POP DUP3 DUP2 PUSH1 0x0 ADD MLOAD LT ISZERO PUSH2 0x20BC JUMPI PUSH1 0x0 DUP1 PUSH2 0x2097 DUP7 PUSH2 0x2ED6 JUMP JUMPDEST SWAP1 POP PUSH2 0x20A5 DUP7 DUP5 DUP4 DUP9 PUSH2 0x17DD JUMP JUMPDEST SWAP1 SWAP4 POP SWAP2 POP PUSH2 0x20B5 DUP7 DUP4 DUP6 PUSH2 0x2F2F JUMP JUMPDEST POP POP PUSH2 0x20C9 JUMP JUMPDEST DUP1 MLOAD DUP4 EQ PUSH2 0x20C9 JUMPI PUSH1 0x0 DUP1 REVERT JUMPDEST PUSH1 0x40 MLOAD DUP1 PUSH1 0x60 ADD PUSH1 0x40 MSTORE DUP1 PUSH2 0x20F2 PUSH2 0x557 DUP5 PUSH1 0xA0 ADD MLOAD DUP6 PUSH1 0xC0 ADD MLOAD PUSH2 0x18DE SWAP1 SWAP2 SWAP1 PUSH4 0xFFFFFFFF AND JUMP JUMPDEST DUP2 MSTORE PUSH1 0x20 ADD PUSH2 0x2115 PUSH2 0x557 DUP5 PUSH1 0xA0 ADD MLOAD DUP6 PUSH1 0xE0 ADD MLOAD PUSH2 0x18DE SWAP1 SWAP2 SWAP1 PUSH4 0xFFFFFFFF AND JUMP JUMPDEST DUP2 MSTORE PUSH1 0x20 ADD DUP3 PUSH1 0x60 ADD MLOAD DUP2 MSTORE POP SWAP2 POP POP SWAP3 SWAP2 POP POP JUMP JUMPDEST PUSH1 0x0 DUP1 PUSH2 0x4EF PUSH1 0x1D PUSH2 0x2D66 JUMP JUMPDEST PUSH1 0x0 DUP1 PUSH2 0x2146 DUP6 DUP6 DUP6 PUSH2 0x3163 JUMP JUMPDEST SWAP1 POP DUP1 ISZERO PUSH2 0x2166 JUMPI PUSH2 0x2161 PUSH2 0x215B DUP6 DUP6 PUSH2 0x2055 JUMP JUMPDEST DUP3 PUSH2 0x22DF JUMP JUMPDEST PUSH2 0x470 JUMP JUMPDEST PUSH4 0x3B9ACA00 SWAP6 SWAP5 POP POP POP POP POP JUMP JUMPDEST PUSH1 0x0 DUP1 PUSH2 0x2182 DUP6 DUP6 DUP6 PUSH2 0x31B3 JUMP JUMPDEST SWAP1 POP PUSH2 0x2191 PUSH2 0x215B DUP6 DUP6 PUSH2 0x2055 JUMP JUMPDEST SWAP2 POP PUSH1 0x0 PUSH2 0x219E DUP7 PUSH2 0x31ED JUMP JUMPDEST SWAP1 POP DUP3 DUP2 SLT ISZERO PUSH2 0x21AC JUMPI DUP1 SWAP3 POP JUMPDEST POP POP SWAP4 SWAP3 POP POP POP JUMP JUMPDEST PUSH1 0x0 PUSH2 0x5B8 PUSH2 0x21C4 DUP5 DUP5 PUSH2 0xE96 JUMP JUMPDEST PUSH4 0x3B9ACA00 PUSH2 0xEE4 JUMP JUMPDEST PUSH1 0x60 ADD MLOAD PUSH2 0x12C PUSH1 0x8 SWAP2 SWAP1 SWAP2 SHR PUSH1 0xFF AND MUL SWAP1 JUMP JUMPDEST PUSH1 0x0 DUP1 PUSH2 0x21ED PUSH2 0x3208 JUMP JUMPDEST SWAP1 POP PUSH1 0x0 PUSH3 0x76A700 PUSH2 0x21FE DUP6 PUSH2 0x1AC3 JUMP JUMPDEST PUSH1 0x0 DUP10 DUP2 MSTORE PUSH1 0x20 DUP6 DUP2 MSTORE PUSH1 0x40 DUP1 DUP4 KECCAK256 DUP12 DUP5 MSTORE DUP3 MSTORE DUP1 DUP4 KECCAK256 SWAP5 SWAP1 SWAP4 ADD DUP1 DUP4 MSTORE SWAP4 SWAP1 MSTORE KECCAK256 DUP1 SLOAD SWAP2 SWAP3 POP SWAP1 PUSH4 0xFFFFFFFF PUSH1 0x1 PUSH1 0xA0 SHL DUP3 DIV DUP2 AND SWAP2 PUSH1 0x1 PUSH1 0xC0 SHL DUP2 DIV DUP3 AND SWAP2 PUSH1 0x1 PUSH1 0xE0 SHL SWAP1 SWAP2 DIV AND DUP2 PUSH2 0x2265 JUMPI PUSH1 0x40 MLOAD PUSH3 0x461BCD PUSH1 0xE5 SHL DUP2 MSTORE PUSH1 0x4 ADD PUSH2 0x9D3 SWAP1 PUSH2 0x51D4 JUMP JUMPDEST PUSH2 0x2272 DUP2 DUP5 DUP5 DUP13 DUP13 PUSH2 0x274D JUMP JUMPDEST SWAP12 SWAP11 POP POP POP POP POP POP POP POP POP POP POP JUMP JUMPDEST PUSH1 0x0 DUP2 DUP7 LT PUSH2 0x228F JUMPI PUSH1 0x0 DUP1 REVERT JUMPDEST DUP5 DUP3 LT PUSH2 0x229B JUMPI PUSH1 0x0 DUP1 REVERT JUMPDEST DUP4 DUP4 LT PUSH2 0x22C1 JUMPI PUSH2 0x22BA DUP5 PUSH2 0x1601 DUP9 DUP9 SUB PUSH2 0x1279 DUP4 DUP9 SUB DUP12 DUP9 SUB PUSH2 0x18DE JUMP JUMPDEST SWAP1 POP PUSH2 0x470 JUMP JUMPDEST PUSH2 0x22BA PUSH2 0x22D8 DUP8 DUP8 SUB PUSH2 0x1279 DUP7 DUP9 SUB DUP11 DUP8 SUB PUSH2 0x18DE JUMP JUMPDEST DUP6 SWAP1 PUSH2 0x2055 JUMP JUMPDEST PUSH1 0x0 DUP1 PUSH2 0x22FC PUSH2 0x22F7 PUSH4 0x1DA9C00 PUSH2 0x1279 DUP7 DUP9 PUSH2 0x18DE JUMP JUMPDEST PUSH2 0x3215 JUMP JUMPDEST SWAP1 POP PUSH2 0x230E DUP2 PUSH3 0x1DCD65 PUSH1 0x49 SHL PUSH2 0x3233 JUMP JUMPDEST SWAP1 POP PUSH2 0x2321 PUSH2 0x231C DUP3 PUSH2 0x3286 JUMP JUMPDEST PUSH2 0x32A8 JUMP JUMPDEST SWAP1 POP PUSH2 0x2333 DUP2 PUSH3 0x1DCD65 PUSH1 0x49 SHL PUSH2 0x32FD JUMP JUMPDEST SWAP1 POP PUSH1 0x0 PUSH2 0x2340 DUP3 PUSH2 0x3333 JUMP JUMPDEST PUSH1 0x7 SIGNEXTEND SWAP6 SWAP5 POP POP POP POP POP JUMP JUMPDEST PUSH1 0x0 PUSH3 0x76A700 PUSH2 0x235B DUP6 PUSH2 0x1AC3 JUMP JUMPDEST ADD SWAP1 POP PUSH2 0x236D DUP8 DUP8 DUP8 DUP8 DUP8 DUP8 DUP8 PUSH2 0x333C JUMP JUMPDEST POP POP POP POP POP POP POP JUMP JUMPDEST PUSH1 0x0 DUP1 PUSH1 0x0 DUP1 PUSH2 0x238B DUP7 DUP11 PUSH1 0x40 ADD MLOAD DUP10 PUSH2 0x2486 JUMP JUMPDEST SWAP1 POP PUSH4 0x3B9ACA00 DUP2 GT ISZERO PUSH2 0x23AA JUMPI PUSH1 0x0 DUP1 PUSH1 0x0 SWAP4 POP SWAP4 POP SWAP4 POP POP PUSH2 0x2448 JUMP JUMPDEST PUSH1 0x0 PUSH2 0x23B6 DUP12 DUP4 PUSH2 0x24C3 JUMP JUMPDEST SWAP1 POP PUSH1 0x0 PUSH2 0x23D1 PUSH2 0x3EE PUSH2 0x23CA DUP5 DUP11 PUSH2 0x2CE1 JUMP JUMPDEST DUP11 SWAP1 PUSH2 0x3373 JUMP JUMPDEST SWAP1 POP PUSH1 0x0 PUSH2 0x23E3 DUP14 DUP5 PUSH1 0x0 DUP13 SLT PUSH2 0x338C JUMP JUMPDEST SWAP1 POP PUSH2 0x23FC PUSH2 0x3EE PUSH2 0x23F5 DUP4 DUP12 PUSH2 0x2CE1 JUMP JUMPDEST DUP12 SWAP1 PUSH2 0x3373 JUMP JUMPDEST SWAP7 POP DUP2 DUP8 SGT ISZERO PUSH2 0x240B JUMPI PUSH1 0x0 DUP1 REVERT JUMPDEST PUSH1 0x0 PUSH2 0x2417 DUP4 DUP10 PUSH2 0x28A1 JUMP JUMPDEST SWAP1 POP PUSH2 0x2431 PUSH1 0x64 PUSH2 0x524 PUSH2 0x242A DUP16 PUSH2 0x3404 JUMP JUMPDEST DUP5 SWAP1 PUSH2 0xE96 JUMP JUMPDEST SWAP6 POP PUSH2 0x2440 PUSH2 0x3EE DUP10 DUP9 PUSH2 0x2470 JUMP JUMPDEST SWAP7 POP POP POP POP POP POP JUMPDEST SWAP7 POP SWAP7 POP SWAP7 SWAP4 POP POP POP POP JUMP JUMPDEST PUSH1 0x0 PUSH2 0x2460 DUP4 DUP4 PUSH2 0x28A1 JUMP JUMPDEST SWAP1 POP PUSH1 0x0 DUP2 SLT ISZERO PUSH2 0x4EF JUMPI PUSH1 0x0 DUP1 REVERT JUMPDEST DUP2 DUP2 ADD DUP3 DUP2 SLT ISZERO PUSH1 0x0 DUP4 SLT ISZERO EQ PUSH2 0x4EF JUMPI PUSH1 0x0 DUP1 REVERT JUMPDEST PUSH1 0x0 DUP1 DUP4 SLT ISZERO PUSH2 0x2495 JUMPI PUSH1 0x0 DUP1 REVERT JUMPDEST PUSH1 0x0 DUP3 SLT ISZERO PUSH2 0x24A3 JUMPI PUSH1 0x0 DUP1 REVERT JUMPDEST PUSH2 0x357 PUSH2 0x7BC PUSH2 0x24B3 DUP5 DUP7 PUSH2 0x2470 JUMP JUMPDEST PUSH2 0x24BD DUP7 DUP9 PUSH2 0x2454 JUMP JUMPDEST SWAP1 PUSH2 0x3373 JUMP JUMPDEST PUSH1 0x0 DUP1 DUP4 PUSH1 0x80 ADD MLOAD GT PUSH2 0x24D5 JUMPI PUSH1 0x0 DUP1 REVERT JUMPDEST PUSH4 0x3B9ACA00 DUP3 GT ISZERO PUSH2 0x24E6 JUMPI PUSH1 0x0 DUP1 REVERT JUMPDEST DUP3 MLOAD DUP3 GT PUSH2 0x2505 JUMPI DUP3 MLOAD PUSH1 0x40 DUP5 ADD MLOAD PUSH2 0x1AA8 SWAP2 SWAP1 PUSH2 0x1279 SWAP1 DUP6 SWAP1 PUSH2 0x18DE JUMP JUMPDEST DUP3 PUSH1 0x20 ADD MLOAD DUP3 GT PUSH2 0x253D JUMPI PUSH1 0x40 DUP4 ADD MLOAD DUP4 MLOAD PUSH1 0x20 DUP6 ADD MLOAD PUSH1 0x60 DUP7 ADD MLOAD PUSH2 0x1AA8 SWAP4 SWAP3 PUSH2 0x1601 SWAP3 DUP2 SWAP1 SUB SWAP2 PUSH2 0x1279 SWAP2 DUP9 SUB SWAP1 DUP6 SWAP1 SUB PUSH2 0x18DE JUMP JUMPDEST PUSH2 0x5B8 DUP4 PUSH1 0x60 ADD MLOAD PUSH2 0x1601 DUP6 PUSH1 0x20 ADD MLOAD PUSH4 0x3B9ACA00 SUB PUSH2 0x1279 DUP8 PUSH1 0x60 ADD MLOAD DUP9 PUSH1 0x80 ADD MLOAD SUB DUP9 PUSH1 0x20 ADD MLOAD DUP9 SUB PUSH2 0x18DE SWAP1 SWAP2 SWAP1 PUSH4 0xFFFFFFFF AND JUMP JUMPDEST PUSH1 0x0 DUP1 DUP1 PUSH2 0x2584 DUP8 DUP7 PUSH2 0xDC7 JUMP JUMPDEST PUSH1 0x60 DUP10 ADD MLOAD SWAP1 SWAP2 POP PUSH2 0x2596 SWAP1 DUP3 PUSH2 0x2470 JUMP JUMPDEST PUSH1 0x60 DUP10 ADD MSTORE TIMESTAMP PUSH1 0xE0 DUP10 ADD MSTORE PUSH1 0x0 PUSH2 0x25AD DUP9 DUP7 PUSH2 0xDC7 JUMP JUMPDEST SWAP1 POP PUSH1 0x0 PUSH2 0x25BB DUP10 DUP10 PUSH2 0xDC7 JUMP JUMPDEST SWAP11 SWAP2 SWAP10 POP SWAP1 SWAP8 POP POP POP POP POP POP POP POP JUMP JUMPDEST PUSH1 0x0 DUP1 PUSH2 0x25D6 PUSH2 0x3411 JUMP JUMPDEST PUSH2 0xFFFF SWAP4 SWAP1 SWAP4 AND PUSH1 0x0 SWAP1 DUP2 MSTORE PUSH1 0x20 SWAP4 SWAP1 SWAP4 MSTORE POP POP PUSH1 0x40 SWAP1 KECCAK256 SLOAD PUSH1 0x1 PUSH1 0x1 PUSH1 0xA0 SHL SUB AND SWAP1 JUMP JUMPDEST PUSH1 0x0 DUP1 PUSH1 0x0 DUP1 PUSH1 0x0 DUP1 PUSH2 0x260E DUP10 DUP9 PUSH2 0x341E JUMP JUMPDEST DUP10 MLOAD SWAP1 SWAP6 POP SWAP2 SWAP4 POP SWAP2 POP PUSH1 0x0 SWAP1 PUSH2 0x2635 SWAP1 PUSH2 0x262A SWAP1 DUP12 SWAP1 PUSH2 0x2055 JUMP JUMPDEST PUSH4 0x3B9ACA00 SWAP1 PUSH2 0x18DE JUMP JUMPDEST SWAP1 POP PUSH2 0x266F PUSH2 0x2664 PUSH4 0x1DA9C00 PUSH2 0x264C DUP6 DUP6 PUSH2 0x18DE JUMP JUMPDEST DUP2 PUSH2 0x2653 JUMPI INVALID JUMPDEST PUSH8 0xDE0B6B3A7640000 SWAP2 SWAP1 DIV PUSH2 0x12B6 JUMP JUMPDEST PUSH1 0xE0 DUP11 ADD MLOAD SWAP1 PUSH2 0x2723 JUMP JUMPDEST SWAP7 POP PUSH2 0x2691 PUSH2 0x2686 PUSH4 0x1DA9C00 PUSH2 0x264C DUP8 DUP6 PUSH2 0x18DE JUMP JUMPDEST PUSH1 0xC0 DUP11 ADD MLOAD SWAP1 PUSH2 0x2723 JUMP JUMPDEST SWAP6 POP DUP2 DUP4 EQ ISZERO PUSH2 0x26A8 JUMPI POP PUSH1 0x0 SWAP4 POP PUSH2 0x26FD SWAP2 POP POP JUMP JUMPDEST PUSH1 0x0 PUSH2 0x26CA PUSH2 0x26BF PUSH4 0x1DA9C00 PUSH2 0x264C DUP8 DUP7 PUSH2 0x18DE JUMP JUMPDEST PUSH1 0xE0 DUP12 ADD MLOAD SWAP1 PUSH2 0x2723 JUMP JUMPDEST SWAP1 POP PUSH1 0x0 PUSH2 0x26D8 DUP10 DUP4 PUSH2 0x2055 JUMP JUMPDEST SWAP1 POP PUSH2 0x26F5 DUP9 PUSH2 0x1279 DUP4 DUP14 PUSH1 0x40 ADD MLOAD PUSH2 0x18DE SWAP1 SWAP2 SWAP1 PUSH4 0xFFFFFFFF AND JUMP JUMPDEST SWAP7 POP POP POP POP POP POP JUMPDEST SWAP4 POP SWAP4 POP SWAP4 POP SWAP4 JUMP JUMPDEST PUSH1 0x0 PUSH2 0x5B8 PUSH2 0x271D DUP5 PUSH8 0xDE0B6B3A7640000 PUSH2 0x18DE JUMP JUMPDEST DUP4 PUSH2 0x2036 JUMP JUMPDEST PUSH1 0x0 PUSH2 0x5B8 PUSH2 0x2732 DUP5 DUP5 PUSH2 0x18DE JUMP JUMPDEST PUSH8 0xDE0B6B3A7640000 PUSH2 0x2036 JUMP JUMPDEST PUSH1 0x0 DUP1 PUSH2 0x4EF PUSH1 0x25 PUSH2 0x2D66 JUMP JUMPDEST PUSH1 0x0 DUP1 DUP4 GT PUSH2 0x275B JUMPI PUSH1 0x0 DUP1 REVERT JUMPDEST DUP2 DUP7 GT ISZERO PUSH2 0x276A JUMPI POP DUP4 PUSH2 0x470 JUMP JUMPDEST PUSH1 0x0 PUSH2 0x2776 DUP4 DUP9 PUSH2 0x2055 JUMP JUMPDEST SWAP1 POP DUP4 DUP2 GT ISZERO PUSH2 0x2789 JUMPI DUP6 SWAP2 POP POP PUSH2 0x470 JUMP JUMPDEST PUSH1 0x0 PUSH2 0x2795 DUP3 DUP7 PUSH2 0x34B8 JUMP JUMPDEST SWAP1 POP PUSH1 0x0 PUSH2 0x27A7 PUSH4 0x3B9ACA00 DUP4 PUSH2 0x2055 JUMP JUMPDEST SWAP1 POP PUSH2 0x27C8 PUSH4 0x3B9ACA00 PUSH2 0x1279 PUSH2 0x27BE DUP11 DUP6 PUSH2 0x18DE JUMP JUMPDEST PUSH2 0x1601 DUP13 DUP8 PUSH2 0x18DE JUMP JUMPDEST SWAP10 SWAP9 POP POP POP POP POP POP POP POP POP JUMP JUMPDEST PUSH2 0x27DD PUSH2 0x4C86 JUMP JUMPDEST PUSH1 0x0 DUP1 PUSH2 0x27E8 PUSH2 0x34CB JUMP JUMPDEST PUSH2 0xFFFF DUP7 AND PUSH1 0x0 SWAP1 DUP2 MSTORE PUSH1 0x20 DUP3 DUP2 MSTORE PUSH1 0x40 DUP1 DUP4 KECCAK256 DUP9 DUP5 MSTORE SWAP1 SWAP2 MSTORE SWAP1 KECCAK256 DUP1 SLOAD PUSH1 0x1 PUSH1 0xF0 SHL SWAP1 DIV PUSH1 0xFF AND SWAP4 POP SWAP1 SWAP2 POP DUP3 ISZERO PUSH2 0x285F JUMPI DUP1 SLOAD PUSH1 0x1 PUSH1 0x1 PUSH1 0x50 SHL SUB PUSH1 0x1 PUSH1 0xA0 SHL DUP3 DIV DUP2 AND SWAP2 PUSH2 0x283A SWAP2 AND DUP3 PUSH2 0x18DE JUMP JUMPDEST DUP6 MSTORE DUP2 SLOAD PUSH2 0x2858 SWAP1 PUSH1 0x1 PUSH1 0x50 SHL SWAP1 DIV PUSH1 0x1 PUSH1 0x1 PUSH1 0x50 SHL SUB AND DUP3 PUSH2 0x18DE JUMP JUMPDEST PUSH1 0x20 DUP7 ADD MSTORE POP JUMPDEST POP POP SWAP3 POP SWAP3 SWAP1 POP JUMP JUMPDEST PUSH1 0x0 DUP1 DUP3 SLT ISZERO PUSH2 0x289B JUMPI PUSH2 0x2896 PUSH1 0x1 PUSH2 0x198B DUP6 PUSH1 0x20 ADD MLOAD PUSH2 0x524 DUP8 PUSH1 0x0 ADD MLOAD DUP8 PUSH2 0xE96 SWAP1 SWAP2 SWAP1 PUSH4 0xFFFFFFFF AND JUMP JUMPDEST PUSH2 0x5B8 JUMP JUMPDEST POP SWAP2 SWAP1 POP JUMP JUMPDEST DUP1 DUP3 SUB DUP3 DUP2 SGT ISZERO PUSH1 0x0 DUP4 SLT ISZERO EQ PUSH2 0x4EF JUMPI PUSH1 0x0 DUP1 REVERT JUMPDEST PUSH1 0x20 DUP3 ADD MLOAD MLOAD MLOAD PUSH1 0x0 SWAP1 PUSH1 0x60 SWAP1 DUP1 PUSH8 0xFFFFFFFFFFFFFFFF DUP2 GT DUP1 ISZERO PUSH2 0x28DB JUMPI PUSH1 0x0 DUP1 REVERT JUMPDEST POP PUSH1 0x40 MLOAD SWAP1 DUP1 DUP3 MSTORE DUP1 PUSH1 0x20 MUL PUSH1 0x20 ADD DUP3 ADD PUSH1 0x40 MSTORE DUP1 ISZERO PUSH2 0x2905 JUMPI DUP2 PUSH1 0x20 ADD PUSH1 0x20 DUP3 MUL DUP1 CALLDATASIZE DUP4 CALLDATACOPY ADD SWAP1 POP JUMPDEST POP SWAP2 POP PUSH2 0x2910 PUSH2 0x4CF3 JUMP JUMPDEST PUSH1 0x0 JUMPDEST DUP3 DUP2 LT ISZERO PUSH2 0x2A02 JUMPI DUP7 MLOAD PUSH2 0x292E SWAP1 DUP4 PUSH1 0x1 DUP1 DUP6 ADD SWAP1 DUP11 PUSH2 0x15B9 JUMP JUMPDEST PUSH1 0x0 DUP8 PUSH1 0x20 ADD MLOAD PUSH1 0x0 ADD MLOAD DUP3 DUP2 MLOAD DUP2 LT PUSH2 0x2944 JUMPI INVALID JUMPDEST PUSH1 0x20 MUL PUSH1 0x20 ADD ADD MLOAD SWAP1 POP PUSH1 0x0 DUP2 PUSH1 0x20 ADD MLOAD SWAP1 POP PUSH1 0x0 DUP1 PUSH2 0x2964 DUP5 DUP8 PUSH2 0x34D8 JUMP JUMPDEST SWAP2 POP SWAP2 POP PUSH2 0x298D PUSH2 0x2986 DUP13 PUSH1 0xC0 ADD MLOAD DUP14 PUSH1 0x0 ADD MLOAD PUSH1 0x0 ADD MLOAD PUSH2 0xFFFF AND DUP7 PUSH2 0x3553 JUMP JUMPDEST DUP3 SWAP1 PUSH2 0x2470 JUMP JUMPDEST DUP9 DUP7 DUP2 MLOAD DUP2 LT PUSH2 0x2999 JUMPI INVALID JUMPDEST PUSH1 0x20 MUL PUSH1 0x20 ADD ADD DUP2 DUP2 MSTORE POP POP PUSH1 0x0 PUSH2 0x29E3 PUSH2 0x29DC PUSH2 0x29D0 DUP12 DUP10 DUP2 MLOAD DUP2 LT PUSH2 0x29BC JUMPI INVALID JUMPDEST PUSH1 0x20 MUL PUSH1 0x20 ADD ADD MLOAD DUP8 DUP16 DUP13 PUSH1 0xC0 ADD MLOAD PUSH2 0x1573 JUMP JUMPDEST DUP15 MLOAD PUSH1 0x40 ADD MLOAD SWAP1 PUSH2 0xDC7 JUMP JUMPDEST DUP5 SWAP1 PUSH2 0x2470 JUMP JUMPDEST SWAP1 POP PUSH2 0x29EF DUP11 DUP3 PUSH2 0x2470 JUMP JUMPDEST SWAP10 POP POP PUSH1 0x1 SWAP1 SWAP5 ADD SWAP4 POP PUSH2 0x2913 SWAP3 POP POP POP JUMP JUMPDEST POP POP POP SWAP3 POP SWAP3 SWAP1 POP JUMP JUMPDEST PUSH1 0x0 PUSH1 0x2 DUP3 GT PUSH2 0x2A1E JUMPI POP PUSH1 0x0 PUSH2 0x470 JUMP JUMPDEST PUSH1 0x0 PUSH2 0x2A2A DUP8 DUP8 PUSH2 0x3598 JUMP JUMPDEST SWAP1 POP DUP1 PUSH2 0x2A38 JUMPI SWAP1 POP PUSH2 0x470 JUMP JUMPDEST PUSH1 0x0 PUSH2 0x2A43 DUP6 PUSH2 0x1AC3 JUMP JUMPDEST SWAP1 POP DUP6 DUP2 EQ ISZERO PUSH2 0x2A6D JUMPI POP PUSH21 0x400080000002002000000002000000200000000020 NOT AND SWAP1 POP PUSH2 0x470 JUMP JUMPDEST PUSH1 0x1 JUMPDEST DUP5 DUP2 GT PUSH2 0x2AAD JUMPI PUSH1 0x0 PUSH2 0x2A82 DUP3 PUSH2 0x1AE4 JUMP JUMPDEST DUP4 ADD SWAP1 POP PUSH1 0x0 PUSH2 0x2A92 DUP10 DUP4 PUSH2 0x35CD JUMP JUMPDEST POP SWAP1 POP PUSH2 0x2AA1 DUP6 DUP3 PUSH1 0x0 PUSH2 0x36D8 JUMP JUMPDEST SWAP5 POP POP POP PUSH1 0x1 ADD PUSH2 0x2A70 JUMP JUMPDEST POP DUP2 SWAP3 POP POP POP PUSH2 0x470 JUMP JUMPDEST PUSH1 0x0 DUP1 PUSH1 0x0 PUSH2 0x2AC6 DUP5 PUSH2 0x3723 JUMP JUMPDEST SWAP1 POP JUMPDEST DUP1 ISZERO PUSH2 0x2B29 JUMPI PUSH1 0x0 PUSH2 0x2ADB DUP10 DUP4 PUSH2 0x3748 JUMP JUMPDEST SWAP1 POP PUSH1 0x0 PUSH2 0x2AED DUP13 DUP13 DUP5 DUP13 DUP13 DUP13 PUSH2 0x37FB JUMP JUMPDEST SWAP1 POP PUSH2 0x2AF9 DUP6 DUP3 PUSH2 0x2470 JUMP JUMPDEST SWAP5 POP PUSH1 0x0 DUP2 SLT ISZERO PUSH2 0x2B09 JUMPI PUSH1 0x1 SWAP4 POP JUMPDEST PUSH2 0x2B15 DUP7 DUP5 PUSH1 0x0 PUSH2 0x36D8 JUMP JUMPDEST SWAP6 POP PUSH2 0x2B20 DUP7 PUSH2 0x3723 JUMP JUMPDEST SWAP3 POP POP POP PUSH2 0x2AC9 JUMP JUMPDEST POP SWAP8 POP SWAP8 SWAP6 POP POP POP POP POP POP JUMP JUMPDEST PUSH1 0x0 DUP1 PUSH2 0x4EF PUSH1 0x7 PUSH2 0x2D66 JUMP JUMPDEST PUSH2 0x2B4B PUSH2 0x4E10 JUMP JUMPDEST PUSH2 0x2B53 PUSH2 0x4E10 JUMP JUMPDEST PUSH1 0xFF DUP5 AND PUSH2 0x2B62 JUMPI SWAP1 POP PUSH2 0x5B8 JUMP JUMPDEST PUSH2 0x2B6C DUP6 DUP6 PUSH2 0x3857 JUMP JUMPDEST DUP2 MSTORE PUSH1 0xFF DUP5 AND PUSH1 0x60 DUP3 ADD MSTORE DUP3 PUSH8 0xFFFFFFFFFFFFFFFF DUP2 GT DUP1 ISZERO PUSH2 0x2B8E JUMPI PUSH1 0x0 DUP1 REVERT JUMPDEST POP PUSH1 0x40 MLOAD SWAP1 DUP1 DUP3 MSTORE DUP1 PUSH1 0x20 MUL PUSH1 0x20 ADD DUP3 ADD PUSH1 0x40 MSTORE DUP1 ISZERO PUSH2 0x2BC8 JUMPI DUP2 PUSH1 0x20 ADD JUMPDEST PUSH2 0x2BB5 PUSH2 0x4E38 JUMP JUMPDEST DUP2 MSTORE PUSH1 0x20 ADD SWAP1 PUSH1 0x1 SWAP1 SUB SWAP1 DUP2 PUSH2 0x2BAD JUMPI SWAP1 POP JUMPDEST POP PUSH1 0x20 DUP3 ADD MSTORE SWAP5 SWAP4 POP POP POP POP JUMP JUMPDEST PUSH1 0x0 DUP1 PUSH2 0x2BE1 PUSH2 0x3863 JUMP JUMPDEST PUSH1 0x1 PUSH1 0x1 PUSH1 0xA0 SHL SUB DUP6 AND PUSH1 0x0 SWAP1 DUP2 MSTORE PUSH1 0x20 DUP3 DUP2 MSTORE PUSH1 0x40 DUP1 DUP4 KECCAK256 PUSH2 0xFFFF DUP9 AND DUP5 MSTORE SWAP1 SWAP2 MSTORE DUP2 KECCAK256 DUP1 SLOAD PUSH1 0x1 PUSH1 0xA8 SHL SWAP1 DIV PUSH1 0xA SWAP1 DUP2 SIGNEXTEND SWAP1 SIGNEXTEND SWAP5 POP SWAP2 SWAP3 POP DUP4 SLT ISZERO PUSH2 0x2C27 JUMPI PUSH1 0x0 DUP1 REVERT JUMPDEST POP POP SWAP3 SWAP2 POP POP JUMP JUMPDEST PUSH1 0x0 DUP1 PUSH2 0x2C3A PUSH2 0x3870 JUMP JUMPDEST PUSH1 0x0 SWAP4 DUP5 MSTORE PUSH1 0x20 MSTORE POP POP PUSH1 0x40 SWAP1 KECCAK256 SLOAD SWAP1 JUMP JUMPDEST PUSH1 0x0 DUP1 PUSH2 0x4EF PUSH1 0x1B PUSH2 0x2D66 JUMP JUMPDEST PUSH2 0x2C61 PUSH2 0x4DCB JUMP JUMPDEST PUSH1 0x0 PUSH2 0x2C6C DUP5 PUSH2 0x387D JUMP JUMPDEST PUSH2 0xFFFF DUP7 AND PUSH1 0x0 SWAP1 DUP2 MSTORE PUSH1 0x20 DUP6 SWAP1 MSTORE PUSH1 0x40 DUP2 KECCAK256 SWAP2 SWAP3 POP SWAP1 PUSH1 0x4 DUP7 LT PUSH2 0x2C92 JUMPI PUSH1 0x1 PUSH2 0x2C95 JUMP JUMPDEST PUSH1 0x0 JUMPDEST PUSH1 0xFF AND PUSH1 0x2 DUP2 LT PUSH2 0x2CA2 JUMPI INVALID JUMPDEST ADD SLOAD SWAP1 POP PUSH2 0x912 DUP3 DUP3 PUSH2 0x38B6 JUMP JUMPDEST PUSH1 0x0 DUP1 PUSH2 0x2CC7 DUP8 PUSH2 0x2CC2 DUP6 DUP10 DUP10 PUSH2 0x2486 JUMP JUMPDEST PUSH2 0x24C3 JUMP JUMPDEST SWAP1 POP PUSH1 0x0 PUSH2 0x2CD9 DUP9 DUP4 PUSH1 0x0 DUP8 SLT PUSH2 0x338C JUMP JUMPDEST SWAP1 POP PUSH2 0xFDD DUP2 DUP7 JUMPDEST PUSH1 0x0 DUP1 PUSH2 0x2CF9 PUSH2 0x22F7 PUSH4 0x1DA9C00 PUSH2 0x1279 DUP8 DUP8 PUSH2 0x18DE JUMP JUMPDEST SWAP1 POP PUSH1 0x0 PUSH2 0x2D0D DUP3 PUSH3 0x1DCD65 PUSH1 0x49 SHL PUSH2 0x3233 JUMP JUMPDEST SWAP1 POP PUSH1 0x0 PUSH2 0x2D1A DUP3 PUSH2 0x32A8 JUMP JUMPDEST SWAP1 POP PUSH1 0x0 PUSH2 0x2D2E DUP3 PUSH3 0x1DCD65 PUSH1 0x49 SHL PUSH2 0x32FD JUMP JUMPDEST SWAP1 POP PUSH2 0x2D39 DUP2 PUSH2 0x3333 JUMP JUMPDEST PUSH1 0x7 SIGNEXTEND SWAP8 SWAP7 POP POP POP POP POP POP POP JUMP JUMPDEST PUSH1 0x0 DUP1 PUSH2 0x2D57 DUP9 DUP9 DUP9 DUP8 DUP10 PUSH2 0x2CB0 JUMP JUMPDEST SWAP1 POP PUSH2 0xFDD PUSH2 0x1A42 DUP5 DUP4 PUSH2 0x21B5 JUMP JUMPDEST PUSH1 0x0 PUSH3 0xF4240 DUP3 PUSH1 0x26 DUP2 GT ISZERO PUSH2 0x1CE8 JUMPI INVALID JUMPDEST PUSH1 0x0 DUP2 ISZERO DUP1 ISZERO SWAP1 PUSH2 0x2D8B JUMPI POP PUSH2 0x3FFF DUP3 GT ISZERO JUMPDEST PUSH2 0x2D94 JUMPI PUSH1 0x0 DUP1 REVERT JUMPDEST PUSH1 0x80 DUP4 ADD MLOAD PUSH1 0x60 DUP5 ADD MLOAD PUSH2 0xFFFF AND DUP4 EQ ISZERO PUSH2 0x2DB3 JUMPI PUSH1 0x1 SWAP2 POP POP PUSH2 0x4EF JUMP JUMPDEST PUSH1 0x1 PUSH1 0x1 PUSH1 0x70 SHL SUB NOT DUP2 AND ISZERO PUSH2 0x2DF8 JUMPI PUSH1 0xF0 DUP2 SWAP1 SHR PUSH2 0x3FFF AND DUP4 DUP2 EQ ISZERO PUSH2 0x2DE5 JUMPI POP PUSH1 0x1 PUSH1 0xFE SHL SWAP1 DUP2 AND EQ SWAP1 POP PUSH2 0x4EF JUMP JUMPDEST POP PUSH1 0x10 SHL PUSH1 0x1 PUSH1 0x1 PUSH1 0x80 SHL SUB NOT AND PUSH2 0x2DB3 JUMP JUMPDEST POP PUSH1 0x0 SWAP4 SWAP3 POP POP POP JUMP JUMPDEST PUSH1 0x0 DUP1 PUSH1 0x0 DUP1 PUSH1 0x0 PUSH2 0x2E12 PUSH2 0x3863 JUMP JUMPDEST PUSH1 0x1 PUSH1 0x1 PUSH1 0xA0 SHL SUB DUP10 AND PUSH1 0x0 SWAP1 DUP2 MSTORE PUSH1 0x20 DUP3 DUP2 MSTORE PUSH1 0x40 DUP1 DUP4 KECCAK256 PUSH2 0xFFFF DUP13 AND DUP5 MSTORE SWAP1 SWAP2 MSTORE SWAP1 KECCAK256 DUP1 SLOAD PUSH1 0x1 PUSH1 0x1 PUSH1 0x50 SHL SUB DUP2 AND SWAP7 POP PUSH1 0x1 PUSH1 0x50 SHL SWAP1 DIV PUSH4 0xFFFFFFFF AND SWAP5 POP SWAP1 SWAP2 POP DUP4 ISZERO PUSH2 0x2E7F JUMPI DUP1 SLOAD PUSH2 0x2E78 SWAP1 PUSH1 0x1 PUSH1 0x70 SHL SWAP1 DIV PUSH7 0xFFFFFFFFFFFFFF AND PUSH2 0x39D5 JUMP JUMPDEST SWAP3 POP PUSH2 0x2E94 JUMP JUMPDEST DUP1 SLOAD PUSH1 0x1 PUSH1 0x70 SHL SWAP1 DIV PUSH7 0xFFFFFFFFFFFFFF AND SWAP3 POP JUMPDEST DUP1 SLOAD PUSH2 0x2EAF SWAP1 DUP9 SWAP1 PUSH1 0x1 PUSH1 0xA8 SHL SWAP1 DIV PUSH1 0xA SWAP1 DUP2 SIGNEXTEND SWAP1 SIGNEXTEND PUSH2 0x39E3 JUMP JUMPDEST SWAP6 POP POP POP SWAP4 POP SWAP4 POP SWAP4 POP SWAP4 JUMP JUMPDEST PUSH1 0x0 DUP1 PUSH2 0x4EF PUSH1 0x11 PUSH2 0x2D66 JUMP JUMPDEST PUSH1 0x0 DUP1 PUSH2 0x4EF PUSH1 0x2 PUSH2 0x2D66 JUMP JUMPDEST PUSH1 0x0 DUP1 PUSH2 0x2EE2 DUP4 PUSH2 0x25CB JUMP JUMPDEST PUSH1 0x1 PUSH1 0x1 PUSH1 0xA0 SHL SUB AND PUSH4 0xEF81F216 PUSH1 0x40 MLOAD DUP2 PUSH4 0xFFFFFFFF AND PUSH1 0xE0 SHL DUP2 MSTORE PUSH1 0x4 ADD PUSH1 0x40 DUP1 MLOAD DUP1 DUP4 SUB DUP2 PUSH1 0x0 DUP8 DUP1 EXTCODESIZE ISZERO DUP1 ISZERO PUSH2 0x2F1B JUMPI PUSH1 0x0 DUP1 REVERT JUMPDEST POP GAS CALL ISZERO DUP1 ISZERO PUSH2 0x17B9 JUMPI RETURNDATASIZE PUSH1 0x0 DUP1 RETURNDATACOPY RETURNDATASIZE PUSH1 0x0 REVERT JUMPDEST PUSH1 0x0 PUSH2 0x2F39 PUSH2 0x212B JUMP JUMPDEST PUSH1 0x0 DUP6 PUSH2 0xFFFF AND DUP2 MSTORE PUSH1 0x20 ADD SWAP1 DUP2 MSTORE PUSH1 0x20 ADD PUSH1 0x0 KECCAK256 SWAP1 POP PUSH2 0x2F5D DUP3 PUSH1 0x0 ADD MLOAD PUSH2 0x3A0A JUMP JUMPDEST DUP2 SLOAD PUSH5 0xFFFFFFFFFF NOT AND PUSH5 0xFFFFFFFFFF SWAP2 SWAP1 SWAP2 AND OR DUP2 SSTORE PUSH1 0xA0 DUP3 ADD MLOAD PUSH2 0x2F82 SWAP1 PUSH2 0x3A1E JUMP JUMPDEST PUSH1 0x2 DUP3 ADD DUP1 SLOAD PUSH10 0xFFFFFFFFFFFFFFFFFFFF NOT AND PUSH1 0x1 PUSH1 0x1 PUSH1 0x50 SHL SUB SWAP3 SWAP1 SWAP3 AND SWAP2 SWAP1 SWAP2 OR SWAP1 SSTORE PUSH1 0xC0 DUP3 ADD MLOAD PUSH2 0x2FB5 SWAP1 PUSH2 0x3A1E JUMP JUMPDEST DUP2 PUSH1 0x2 ADD PUSH1 0xA PUSH2 0x100 EXP DUP2 SLOAD DUP2 PUSH1 0x1 PUSH1 0x1 PUSH1 0x50 SHL SUB MUL NOT AND SWAP1 DUP4 PUSH1 0x1 PUSH1 0x1 PUSH1 0x50 SHL SUB AND MUL OR SWAP1 SSTORE POP PUSH2 0x2FEA DUP3 PUSH1 0xE0 ADD MLOAD PUSH2 0x3A1E JUMP JUMPDEST DUP2 PUSH1 0x2 ADD PUSH1 0x14 PUSH2 0x100 EXP DUP2 SLOAD DUP2 PUSH1 0x1 PUSH1 0x1 PUSH1 0x50 SHL SUB MUL NOT AND SWAP1 DUP4 PUSH1 0x1 PUSH1 0x1 PUSH1 0x50 SHL SUB AND MUL OR SWAP1 SSTORE POP PUSH2 0x301F DUP3 PUSH1 0x20 ADD MLOAD PUSH2 0x3A34 JUMP JUMPDEST DUP2 SLOAD PUSH1 0x1 PUSH1 0x1 PUSH1 0x58 SHL SUB SWAP2 SWAP1 SWAP2 AND PUSH1 0x1 PUSH1 0x28 SHL MUL PUSH16 0xFFFFFFFFFFFFFFFFFFFFFF0000000000 NOT SWAP1 SWAP2 AND OR DUP2 SSTORE PUSH1 0x40 DUP3 ADD MLOAD PUSH2 0x3059 SWAP1 PUSH2 0x3A34 JUMP JUMPDEST PUSH1 0x1 DUP3 ADD DUP1 SLOAD PUSH11 0xFFFFFFFFFFFFFFFFFFFFFF NOT AND PUSH1 0x1 PUSH1 0x1 PUSH1 0x58 SHL SUB SWAP3 SWAP1 SWAP3 AND SWAP2 SWAP1 SWAP2 OR SWAP1 SSTORE PUSH1 0x80 DUP3 ADD MLOAD PUSH2 0x308D SWAP1 PUSH2 0x3A34 JUMP JUMPDEST DUP2 SLOAD PUSH1 0x1 PUSH1 0x1 PUSH1 0x58 SHL SUB SWAP2 SWAP1 SWAP2 AND PUSH1 0x1 PUSH1 0x80 SHL MUL PUSH11 0xFFFFFFFFFFFFFFFFFFFFFF PUSH1 0x80 SHL NOT SWAP1 SWAP2 AND OR DUP2 SSTORE PUSH1 0x60 DUP3 ADD MLOAD PUSH2 0x30C5 SWAP1 PUSH2 0x3A4A JUMP JUMPDEST DUP2 SLOAD PUSH4 0xFFFFFFFF SWAP2 SWAP1 SWAP2 AND PUSH1 0x1 PUSH1 0xD8 SHL MUL PUSH4 0xFFFFFFFF PUSH1 0xD8 SHL NOT SWAP1 SWAP2 AND OR DUP2 SSTORE DUP3 ISZERO PUSH2 0x3111 JUMPI PUSH1 0x0 PUSH2 0x30F6 DUP5 PUSH2 0xBBE JUMP JUMPDEST SWAP1 POP PUSH2 0x3102 DUP6 DUP3 PUSH2 0x3A5D JUMP JUMPDEST PUSH2 0x310F PUSH2 0xFEE DUP7 DUP4 PUSH2 0x3A99 JUMP JUMPDEST POP JUMPDEST DUP4 PUSH2 0xFFFF AND PUSH32 0xEF25641E225E493886510CA1AD6584FA7B442B9FEA820A29D1DE3CE27D270FD2 DUP4 PUSH1 0xA0 ADD MLOAD DUP5 PUSH1 0xC0 ADD MLOAD DUP6 PUSH1 0xE0 ADD MLOAD PUSH1 0x40 MLOAD PUSH2 0x3155 SWAP4 SWAP3 SWAP2 SWAP1 PUSH2 0x53E2 JUMP JUMPDEST PUSH1 0x40 MLOAD DUP1 SWAP2 SUB SWAP1 LOG2 POP POP POP POP JUMP JUMPDEST PUSH1 0x0 PUSH2 0x3170 DUP5 DUP5 DUP5 PUSH2 0x148A JUMP JUMPDEST SWAP1 POP PUSH1 0x0 PUSH2 0x317D DUP6 PUSH2 0x3B23 JUMP JUMPDEST SWAP1 POP DUP1 DUP3 GT PUSH2 0x3190 JUMPI PUSH1 0x0 SWAP2 POP POP PUSH2 0x5B8 JUMP JUMPDEST DUP1 DUP3 SUB SWAP2 POP PUSH1 0x0 PUSH2 0x31A0 DUP7 PUSH2 0x3B30 JUMP JUMPDEST SWAP1 POP DUP3 DUP2 LT ISZERO PUSH2 0x21AC JUMPI SWAP6 SWAP5 POP POP POP POP POP JUMP JUMPDEST PUSH1 0x0 PUSH2 0x31C0 DUP5 DUP5 DUP5 PUSH2 0x148A JUMP JUMPDEST SWAP1 POP PUSH2 0x31CE PUSH2 0x1285 DUP6 PUSH2 0x3B3D JUMP JUMPDEST SWAP1 POP PUSH1 0x0 PUSH2 0x31DB DUP6 PUSH2 0x3B4A JUMP JUMPDEST SWAP1 POP DUP1 DUP3 LT ISZERO PUSH2 0xE8E JUMPI SWAP5 SWAP4 POP POP POP POP JUMP JUMPDEST PUSH1 0x60 ADD MLOAD PUSH3 0x7A120 PUSH1 0x10 SWAP2 SWAP1 SWAP2 SHR PUSH1 0xFF AND MUL PUSH4 0x3B9ACA00 SUB SWAP1 JUMP JUMPDEST PUSH1 0x0 DUP1 PUSH2 0x4EF PUSH1 0xA PUSH2 0x2D66 JUMP JUMPDEST PUSH1 0x0 PUSH8 0x7FFFFFFFFFFFFFFF DUP3 GT ISZERO PUSH2 0x322C JUMPI PUSH1 0x0 DUP1 REVERT JUMPDEST POP PUSH1 0x40 SHL SWAP1 JUMP JUMPDEST PUSH1 0x0 DUP2 PUSH1 0xF SIGNEXTEND PUSH1 0x0 EQ ISZERO PUSH2 0x3246 JUMPI PUSH1 0x0 DUP1 REVERT JUMPDEST PUSH1 0x0 DUP3 PUSH1 0xF SIGNEXTEND PUSH1 0x40 DUP6 PUSH1 0xF SIGNEXTEND SWAP1 SHL DUP2 PUSH2 0x325B JUMPI INVALID JUMPDEST SDIV SWAP1 POP PUSH1 0x1 PUSH1 0x1 PUSH1 0x7F SHL SUB NOT DUP2 SLT DUP1 ISZERO SWAP1 PUSH2 0x327D JUMPI POP PUSH1 0x1 PUSH1 0x1 PUSH1 0x7F SHL SUB DUP2 SGT ISZERO JUMPDEST PUSH2 0x5B8 JUMPI PUSH1 0x0 DUP1 REVERT JUMPDEST PUSH1 0x0 PUSH1 0xF DUP3 SWAP1 SIGNEXTEND PUSH1 0x1 PUSH1 0x1 PUSH1 0x7F SHL SUB NOT EQ ISZERO PUSH2 0x32A1 JUMPI PUSH1 0x0 DUP1 REVERT JUMPDEST POP PUSH1 0x0 SUB SWAP1 JUMP JUMPDEST PUSH1 0x0 PUSH1 0x1 PUSH1 0x46 SHL DUP3 PUSH1 0xF SIGNEXTEND SLT PUSH2 0x32BD JUMPI PUSH1 0x0 DUP1 REVERT JUMPDEST PUSH9 0x3FFFFFFFFFFFFFFFFF NOT DUP3 PUSH1 0xF SIGNEXTEND SLT ISZERO PUSH2 0x32DA JUMPI POP PUSH1 0x0 PUSH2 0x370 JUMP JUMPDEST PUSH2 0x4EF PUSH1 0x80 DUP4 PUSH1 0xF SIGNEXTEND PUSH17 0x171547652B82FE1777D0FFDA0D23A7D12 MUL SWAP1 SAR PUSH2 0x3B57 JUMP JUMPDEST PUSH1 0x0 PUSH1 0xF DUP4 DUP2 SIGNEXTEND SWAP1 DUP4 SWAP1 SIGNEXTEND MUL PUSH1 0x40 SAR PUSH1 0x1 PUSH1 0x1 PUSH1 0x7F SHL SUB NOT DUP2 SLT DUP1 ISZERO SWAP1 PUSH2 0x327D JUMPI POP PUSH1 0x1 PUSH1 0x1 PUSH1 0x7F SHL SUB DUP2 SGT ISZERO PUSH2 0x5B8 JUMPI PUSH1 0x0 DUP1 REVERT JUMPDEST PUSH1 0xF SIGNEXTEND PUSH1 0x40 SAR SWAP1 JUMP JUMPDEST PUSH2 0x3349 DUP8 DUP8 DUP8 DUP7 DUP6 PUSH2 0x4607 JUMP JUMPDEST PUSH2 0x3362 DUP8 PUSH1 0xE0 ADD MLOAD DUP9 PUSH1 0xA0 ADD MLOAD DUP10 PUSH1 0xC0 ADD MLOAD DUP6 DUP9 PUSH2 0x274D JUMP JUMPDEST PUSH1 0xC0 SWAP1 SWAP8 ADD SWAP7 SWAP1 SWAP7 MSTORE POP POP POP POP POP POP JUMP JUMPDEST PUSH1 0x0 PUSH2 0x5B8 PUSH2 0x3386 DUP5 PUSH4 0x3B9ACA00 PUSH2 0xE96 JUMP JUMPDEST DUP4 PUSH2 0xEE4 JUMP JUMPDEST PUSH1 0x0 DUP1 PUSH2 0x33AB PUSH1 0x64 PUSH2 0x1279 DUP8 PUSH1 0xE0 ADD MLOAD DUP8 PUSH2 0x18DE SWAP1 SWAP2 SWAP1 PUSH4 0xFFFFFFFF AND JUMP JUMPDEST SWAP1 POP DUP5 PUSH1 0xA0 ADD MLOAD DUP2 LT ISZERO PUSH2 0x33C0 JUMPI POP PUSH1 0xA0 DUP5 ADD MLOAD JUMPDEST DUP5 PUSH1 0xC0 ADD MLOAD DUP2 GT ISZERO PUSH2 0x33D3 JUMPI POP PUSH1 0xC0 DUP5 ADD MLOAD JUMPDEST DUP3 ISZERO PUSH2 0x33EA JUMPI PUSH2 0x33E3 DUP5 DUP3 PUSH2 0x12B6 JUMP JUMPDEST SWAP2 POP PUSH2 0xE8E JUMP JUMPDEST DUP4 DUP2 GT PUSH2 0x33F9 JUMPI DUP1 DUP5 SUB PUSH2 0x470 JUMP JUMPDEST POP PUSH1 0x0 SWAP5 SWAP4 POP POP POP POP JUMP JUMPDEST PUSH1 0x60 ADD MLOAD PUSH1 0x18 SHR PUSH1 0xFF AND SWAP1 JUMP JUMPDEST PUSH1 0x0 DUP1 PUSH2 0x4EF PUSH1 0x1F PUSH2 0x2D66 JUMP JUMPDEST PUSH1 0x0 DUP1 PUSH1 0x0 DUP1 PUSH1 0x0 DUP6 PUSH1 0x20 ADD MLOAD GT ISZERO PUSH2 0x346B JUMPI PUSH2 0x3468 PUSH2 0x344F DUP7 PUSH1 0xC0 ADD MLOAD DUP8 PUSH1 0x20 ADD MLOAD PUSH2 0x18DE SWAP1 SWAP2 SWAP1 PUSH4 0xFFFFFFFF AND JUMP JUMPDEST PUSH1 0xE0 DUP8 ADD MLOAD PUSH1 0x40 DUP9 ADD MLOAD PUSH2 0x3462 SWAP2 PUSH2 0x18DE JUMP JUMPDEST SWAP1 PUSH2 0x34B8 JUMP JUMPDEST SWAP1 POP JUMPDEST PUSH1 0x0 PUSH2 0x3476 DUP8 PUSH2 0x46C1 JUMP JUMPDEST SWAP1 POP PUSH2 0x3482 DUP2 DUP4 PUSH2 0x24C3 JUMP JUMPDEST SWAP5 POP DUP2 ISZERO PUSH2 0x3499 JUMPI PUSH2 0x3496 DUP2 DUP7 PUSH1 0x1 PUSH2 0x338C JUMP JUMPDEST SWAP4 POP JUMPDEST PUSH1 0x20 DUP7 ADD MLOAD ISZERO PUSH2 0x117F JUMPI PUSH2 0x34AD DUP6 DUP4 PUSH2 0x46F4 JUMP JUMPDEST SWAP3 POP POP POP SWAP3 POP SWAP3 POP SWAP3 JUMP JUMPDEST PUSH1 0x0 PUSH2 0x5B8 PUSH2 0x271D DUP5 PUSH4 0x3B9ACA00 PUSH2 0x18DE JUMP JUMPDEST PUSH1 0x0 DUP1 PUSH2 0x4EF PUSH1 0x1E PUSH2 0x2D66 JUMP JUMPDEST PUSH1 0x0 DUP1 PUSH2 0x34E8 DUP5 PUSH1 0x40 ADD MLOAD PUSH2 0x470D JUMP JUMPDEST DUP1 ISZERO PUSH2 0x34F9 JUMPI POP PUSH1 0x0 DUP5 PUSH1 0x60 ADD MLOAD SLT ISZERO JUMPDEST PUSH2 0x3502 JUMPI PUSH1 0x0 DUP1 REVERT JUMPDEST PUSH2 0x3525 DUP4 PUSH1 0x80 ADD MLOAD PUSH2 0x524 DUP7 PUSH1 0x60 ADD MLOAD DUP7 PUSH1 0x60 ADD MLOAD PUSH2 0xE96 SWAP1 SWAP2 SWAP1 PUSH4 0xFFFFFFFF AND JUMP JUMPDEST SWAP2 POP PUSH2 0x354A DUP4 PUSH1 0x80 ADD MLOAD PUSH2 0x524 DUP7 PUSH1 0x60 ADD MLOAD DUP7 PUSH1 0x40 ADD MLOAD PUSH2 0xE96 SWAP1 SWAP2 SWAP1 PUSH4 0xFFFFFFFF AND JUMP JUMPDEST SWAP1 POP SWAP3 POP SWAP3 SWAP1 POP JUMP JUMPDEST PUSH1 0x0 DUP1 PUSH2 0x355E PUSH2 0x4723 JUMP JUMPDEST PUSH1 0x1 PUSH1 0x1 PUSH1 0xA0 SHL SUB DUP7 AND PUSH1 0x0 SWAP1 DUP2 MSTORE PUSH1 0x20 SWAP2 DUP3 MSTORE PUSH1 0x40 DUP1 DUP3 KECCAK256 DUP8 DUP4 MSTORE DUP4 MSTORE DUP1 DUP3 KECCAK256 DUP7 DUP4 MSTORE SWAP1 SWAP3 MSTORE KECCAK256 SLOAD PUSH1 0xF SWAP1 DUP2 SIGNEXTEND SWAP1 SIGNEXTEND SWAP2 POP POP SWAP4 SWAP3 POP POP POP JUMP JUMPDEST PUSH1 0x0 DUP1 PUSH2 0x35A3 PUSH2 0x4730 JUMP JUMPDEST PUSH1 0x1 PUSH1 0x1 PUSH1 0xA0 SHL SUB DUP6 AND PUSH1 0x0 SWAP1 DUP2 MSTORE PUSH1 0x20 SWAP2 DUP3 MSTORE PUSH1 0x40 DUP1 DUP3 KECCAK256 DUP7 DUP4 MSTORE SWAP1 SWAP3 MSTORE KECCAK256 SLOAD SWAP2 POP POP SWAP3 SWAP2 POP POP JUMP JUMPDEST PUSH1 0x0 DUP1 PUSH1 0x0 PUSH2 0x35DB DUP6 PUSH2 0x473D JUMP JUMPDEST SWAP1 POP PUSH3 0x15180 DUP5 MOD ISZERO PUSH2 0x35F5 JUMPI PUSH1 0x0 DUP1 SWAP3 POP SWAP3 POP POP PUSH2 0x36D1 JUMP JUMPDEST DUP4 DUP2 LT PUSH2 0x3609 JUMPI PUSH1 0x0 DUP1 SWAP3 POP SWAP3 POP POP PUSH2 0x36D1 JUMP JUMPDEST PUSH3 0x15180 DUP2 DUP6 SUB DIV PUSH1 0x5A DUP2 GT PUSH2 0x3626 JUMPI SWAP3 POP PUSH1 0x1 SWAP2 POP PUSH2 0x36D1 SWAP1 POP JUMP JUMPDEST PUSH2 0x168 DUP2 GT PUSH2 0x3665 JUMPI PUSH1 0x0 PUSH3 0x15180 PUSH3 0x7E900 DUP5 MOD DIV DUP3 ADD PUSH1 0x59 NOT ADD SWAP1 POP PUSH1 0x6 DUP2 DIV PUSH1 0x5A ADD PUSH1 0x6 DUP3 DUP2 PUSH2 0x3655 JUMPI INVALID JUMPDEST MOD PUSH1 0x0 EQ SWAP5 POP SWAP5 POP POP POP POP PUSH2 0x36D1 JUMP JUMPDEST PUSH2 0x870 DUP2 GT PUSH2 0x3695 JUMPI PUSH1 0x0 PUSH3 0x15180 PUSH3 0x278D00 DUP5 MOD DIV DUP3 ADD PUSH2 0x167 NOT ADD SWAP1 POP PUSH1 0x1E DUP2 DIV PUSH1 0x87 ADD PUSH1 0x1E DUP3 DUP2 PUSH2 0x3655 JUMPI INVALID JUMPDEST PUSH2 0x1DE2 DUP2 GT PUSH2 0x36C5 JUMPI PUSH1 0x0 PUSH3 0x15180 PUSH3 0x76A700 DUP5 MOD DIV DUP3 ADD PUSH2 0x86F NOT ADD SWAP1 POP PUSH1 0x5A DUP2 DIV PUSH1 0xC3 ADD PUSH1 0x5A DUP3 DUP2 PUSH2 0x3655 JUMPI INVALID JUMPDEST PUSH2 0x100 PUSH1 0x0 SWAP4 POP SWAP4 POP POP POP JUMPDEST SWAP3 POP SWAP3 SWAP1 POP JUMP JUMPDEST PUSH1 0x0 PUSH1 0x1 DUP4 LT ISZERO DUP1 ISZERO PUSH2 0x36ED JUMPI POP PUSH2 0x100 DUP4 GT ISZERO JUMPDEST PUSH2 0x36F6 JUMPI PUSH1 0x0 DUP1 REVERT JUMPDEST DUP2 ISZERO PUSH2 0x370F JUMPI POP PUSH1 0x1 PUSH1 0xFF SHL PUSH1 0x0 NOT DUP4 ADD SHR DUP4 OR PUSH2 0x5B8 JUMP JUMPDEST POP PUSH1 0x1 PUSH1 0xFF SHL PUSH1 0x0 NOT DUP4 ADD SHR NOT DUP4 AND PUSH2 0x5B8 JUMP JUMPDEST PUSH1 0x0 DUP2 PUSH2 0x3732 JUMPI POP PUSH1 0x0 PUSH2 0x370 JUMP JUMPDEST PUSH2 0x373B DUP3 PUSH2 0x4759 JUMP JUMPDEST PUSH1 0xFF SUB PUSH1 0x1 ADD SWAP1 POP SWAP2 SWAP1 POP JUMP JUMPDEST PUSH1 0x0 DUP2 PUSH2 0x3754 JUMPI PUSH1 0x0 DUP1 REVERT JUMPDEST PUSH2 0x100 DUP3 GT ISZERO PUSH2 0x3763 JUMPI PUSH1 0x0 DUP1 REVERT JUMPDEST PUSH1 0x0 PUSH2 0x376E DUP5 PUSH2 0x473D JUMP JUMPDEST SWAP1 POP PUSH1 0x0 PUSH1 0x5A DUP5 GT PUSH2 0x3789 JUMPI POP PUSH3 0x15180 DUP4 MUL ADD SWAP1 POP PUSH2 0x4EF JUMP JUMPDEST PUSH1 0x87 DUP5 GT PUSH2 0x37B1 JUMPI POP PUSH1 0x59 NOT DUP4 ADD PUSH3 0x7E900 SWAP1 DUP2 MUL SWAP1 DUP3 MOD SWAP1 SWAP2 SUB ADD PUSH3 0x76A700 ADD SWAP1 POP PUSH2 0x4EF JUMP JUMPDEST PUSH1 0xC3 DUP5 GT PUSH2 0x37DA JUMPI POP PUSH1 0x86 NOT DUP4 ADD PUSH3 0x278D00 SWAP1 DUP2 MUL SWAP1 DUP3 MOD SWAP1 SWAP2 SUB ADD PUSH4 0x1DA9C00 ADD SWAP1 POP PUSH2 0x4EF JUMP JUMPDEST POP PUSH1 0xC2 NOT DUP4 ADD PUSH3 0x76A700 SWAP1 DUP2 MUL SWAP1 DUP3 MOD SWAP1 SWAP2 SUB ADD PUSH4 0xB1FA800 ADD SWAP1 POP PUSH2 0x4EF JUMP JUMPDEST PUSH1 0x0 DUP1 PUSH2 0x3809 DUP9 DUP9 DUP9 PUSH2 0x3553 JUMP JUMPDEST SWAP1 POP DUP5 DUP7 GT PUSH2 0x3819 JUMPI SWAP1 POP PUSH2 0x912 JUMP JUMPDEST DUP3 ISZERO PUSH2 0x3833 JUMPI PUSH2 0x382B DUP5 DUP3 DUP9 DUP9 PUSH2 0x143A JUMP JUMPDEST SWAP2 POP POP PUSH2 0x912 JUMP JUMPDEST PUSH1 0x0 PUSH2 0x3840 DUP6 DUP9 DUP9 PUSH2 0x148A JUMP JUMPDEST SWAP1 POP PUSH2 0x384E DUP3 DUP9 DUP9 DUP5 PUSH2 0x1573 JUMP JUMPDEST SWAP3 POP POP POP PUSH2 0x912 JUMP JUMPDEST PUSH1 0x60 PUSH2 0xE8E DUP4 DUP4 PUSH2 0x47F2 JUMP JUMPDEST PUSH1 0x0 DUP1 PUSH2 0x4EF PUSH1 0x6 PUSH2 0x2D66 JUMP JUMPDEST PUSH1 0x0 DUP1 PUSH2 0x4EF PUSH1 0x9 PUSH2 0x2D66 JUMP JUMPDEST PUSH1 0x0 DUP2 PUSH1 0x0 LT PUSH2 0x388C JUMPI PUSH1 0x0 DUP1 REVERT JUMPDEST PUSH1 0x7 DUP3 GT ISZERO PUSH2 0x389A JUMPI PUSH1 0x0 DUP1 REVERT JUMPDEST PUSH1 0x4 DUP3 LT PUSH2 0x38AB JUMPI PUSH1 0x4 DUP3 SUB PUSH2 0x38AD JUMP JUMPDEST DUP2 JUMPDEST PUSH1 0x8 MUL SWAP3 SWAP2 POP POP JUMP JUMPDEST PUSH2 0x38BE PUSH2 0x4DCB JUMP JUMPDEST PUSH1 0x64 PUSH4 0x3B9ACA00 DUP4 PUSH1 0xFF DUP7 AND PUSH1 0x20 DUP2 LT PUSH2 0x38D4 JUMPI INVALID JUMPDEST BYTE MUL DUP2 PUSH2 0x38DD JUMPI INVALID JUMPDEST DIV DUP2 MSTORE PUSH1 0x64 PUSH4 0x3B9ACA00 DUP4 PUSH1 0xFF DUP7 AND PUSH1 0x1 ADD PUSH1 0x20 DUP2 LT PUSH2 0x38F9 JUMPI INVALID JUMPDEST BYTE MUL DUP2 PUSH2 0x3902 JUMPI INVALID JUMPDEST DIV DUP2 PUSH1 0x20 ADD DUP2 DUP2 MSTORE POP POP PUSH2 0x3927 DUP3 PUSH1 0x2 DUP6 PUSH1 0xFF AND ADD PUSH1 0x20 DUP2 LT PUSH2 0x3921 JUMPI INVALID JUMPDEST BYTE PUSH2 0x480A JUMP JUMPDEST PUSH1 0x80 DUP3 ADD DUP2 SWAP1 MSTORE PUSH2 0x100 SWAP1 DUP4 PUSH1 0xFF DUP7 AND PUSH1 0x3 ADD PUSH1 0x20 DUP2 LT PUSH2 0x3944 JUMPI INVALID JUMPDEST BYTE MUL DUP2 PUSH2 0x394D JUMPI INVALID JUMPDEST DIV PUSH1 0x40 DUP3 ADD MSTORE PUSH1 0x80 DUP2 ADD MLOAD PUSH2 0x100 SWAP1 DUP4 PUSH1 0xFF DUP7 AND PUSH1 0x4 ADD PUSH1 0x20 DUP2 LT PUSH2 0x396E JUMPI INVALID JUMPDEST BYTE MUL DUP2 PUSH2 0x3977 JUMPI INVALID JUMPDEST DIV PUSH1 0x60 DUP3 ADD MSTORE PUSH3 0x7A120 DUP3 PUSH1 0xFF DUP6 AND PUSH1 0x5 ADD PUSH1 0x20 DUP2 LT PUSH2 0x3993 JUMPI INVALID JUMPDEST BYTE MUL PUSH1 0xA0 DUP3 ADD MSTORE PUSH3 0x2625A0 DUP3 PUSH1 0xFF DUP6 AND PUSH1 0x6 ADD PUSH1 0x20 DUP2 LT PUSH2 0x39B0 JUMPI INVALID JUMPDEST BYTE MUL PUSH1 0xC0 DUP3 ADD MSTORE DUP2 PUSH1 0xFF DUP5 AND PUSH1 0x7 ADD PUSH1 0x20 DUP2 LT PUSH2 0x39C9 JUMPI INVALID JUMPDEST BYTE PUSH1 0xE0 DUP3 ADD MSTORE SWAP3 SWAP2 POP POP JUMP JUMPDEST PUSH1 0x8 DUP2 SWAP1 SHR PUSH1 0xFF SWAP1 SWAP2 AND SHL SWAP1 JUMP JUMPDEST PUSH1 0x0 DUP1 DUP3 SLT PUSH2 0x39F3 JUMPI POP DUP1 PUSH2 0x4EF JUMP JUMPDEST DUP3 MLOAD PUSH1 0x20 DUP5 ADD MLOAD PUSH2 0x1AA8 SWAP2 SWAP1 PUSH2 0x524 SWAP1 DUP6 SWAP1 PUSH2 0xE96 JUMP JUMPDEST PUSH1 0x0 PUSH5 0xFFFFFFFFFF DUP3 GT ISZERO PUSH2 0xBD4 JUMPI PUSH1 0x0 DUP1 REVERT JUMPDEST PUSH1 0x0 PUSH1 0x1 PUSH1 0x1 PUSH1 0x50 SHL SUB DUP3 GT ISZERO PUSH2 0xBD4 JUMPI PUSH1 0x0 DUP1 REVERT JUMPDEST PUSH1 0x0 PUSH1 0x1 PUSH1 0x1 PUSH1 0x58 SHL SUB DUP3 GT ISZERO PUSH2 0xBD4 JUMPI PUSH1 0x0 DUP1 REVERT JUMPDEST PUSH1 0x0 PUSH4 0xFFFFFFFF DUP3 GT ISZERO PUSH2 0xBD4 JUMPI PUSH1 0x0 DUP1 REVERT JUMPDEST PUSH1 0x0 DUP2 SLT ISZERO PUSH2 0x3A6B JUMPI PUSH1 0x0 DUP1 REVERT JUMPDEST PUSH1 0x0 PUSH2 0x3A79 PUSH2 0xFEE DUP5 PUSH2 0x2BD6 JUMP JUMPDEST SWAP1 POP PUSH2 0x3A85 DUP2 DUP4 PUSH2 0x2470 JUMP JUMPDEST SWAP1 POP PUSH2 0x3A94 PUSH2 0xFEE DUP5 DUP4 PUSH2 0x483E JUMP JUMPDEST POP POP POP JUMP JUMPDEST PUSH1 0x0 PUSH2 0x3AA3 PUSH2 0x48B2 JUMP JUMPDEST PUSH2 0xFFFF DUP5 AND PUSH1 0x0 SWAP1 DUP2 MSTORE PUSH1 0x20 SWAP2 SWAP1 SWAP2 MSTORE PUSH1 0x40 SWAP1 DUP2 SWAP1 KECCAK256 SLOAD SWAP1 MLOAD PUSH4 0xAD1C095D PUSH1 0xE0 SHL DUP2 MSTORE PUSH1 0x1 PUSH1 0x1 PUSH1 0xA0 SHL SUB SWAP1 SWAP2 AND SWAP2 POP DUP2 SWAP1 PUSH4 0xAD1C095D SWAP1 PUSH2 0x3AEB SWAP1 DUP8 SWAP1 DUP7 SWAP1 PUSH1 0x4 ADD PUSH2 0x517E JUMP JUMPDEST PUSH1 0x0 PUSH1 0x40 MLOAD DUP1 DUP4 SUB DUP2 PUSH1 0x0 DUP8 DUP1 EXTCODESIZE ISZERO DUP1 ISZERO PUSH2 0x3B05 JUMPI PUSH1 0x0 DUP1 REVERT JUMPDEST POP GAS CALL ISZERO DUP1 ISZERO PUSH2 0x3B19 JUMPI RETURNDATASIZE PUSH1 0x0 DUP1 RETURNDATACOPY RETURNDATASIZE PUSH1 0x0 REVERT JUMPDEST POP POP POP POP POP POP POP POP JUMP JUMPDEST PUSH1 0x0 PUSH2 0x4EF DUP3 PUSH1 0x20 PUSH2 0x48BF JUMP JUMPDEST PUSH1 0x0 PUSH2 0x4EF DUP3 PUSH1 0x48 PUSH2 0x48BF JUMP JUMPDEST PUSH1 0x0 PUSH2 0x4EF DUP3 PUSH1 0x28 PUSH2 0x48BF JUMP JUMPDEST PUSH1 0x0 PUSH2 0x4EF DUP3 PUSH1 0x30 PUSH2 0x48BF JUMP JUMPDEST PUSH1 0x0 PUSH1 0x1 PUSH1 0x46 SHL DUP3 PUSH1 0xF SIGNEXTEND SLT PUSH2 0x3B6C JUMPI PUSH1 0x0 DUP1 REVERT JUMPDEST PUSH9 0x3FFFFFFFFFFFFFFFFF NOT DUP3 PUSH1 0xF SIGNEXTEND SLT ISZERO PUSH2 0x3B89 JUMPI POP PUSH1 0x0 PUSH2 0x370 JUMP JUMPDEST PUSH1 0x1 PUSH1 0x7F SHL PUSH1 0x0 PUSH8 0x8000000000000000 DUP5 AND PUSH1 0xF SIGNEXTEND SGT ISZERO PUSH2 0x3BBB JUMPI PUSH17 0x16A09E667F3BCC908B2FB1366EA957D3E MUL PUSH1 0x80 SHR JUMPDEST PUSH1 0x0 DUP4 PUSH8 0x4000000000000000 AND PUSH1 0xF SIGNEXTEND SGT ISZERO PUSH2 0x3BE8 JUMPI PUSH17 0x1306FE0A31B7152DE8D5A46305C85EDEC MUL PUSH1 0x80 SHR JUMPDEST PUSH1 0x0 DUP4 PUSH8 0x2000000000000000 AND PUSH1 0xF SIGNEXTEND SGT ISZERO PUSH2 0x3C15 JUMPI PUSH17 0x1172B83C7D517ADCDF7C8C50EB14A791F MUL PUSH1 0x80 SHR JUMPDEST PUSH1 0x0 DUP4 PUSH8 0x1000000000000000 AND PUSH1 0xF SIGNEXTEND SGT ISZERO PUSH2 0x3C42 JUMPI PUSH17 0x10B5586CF9890F6298B92B71842A98363 MUL PUSH1 0x80 SHR JUMPDEST PUSH1 0x0 DUP4 PUSH8 0x800000000000000 AND PUSH1 0xF SIGNEXTEND SGT ISZERO PUSH2 0x3C6F JUMPI PUSH17 0x1059B0D31585743AE7C548EB68CA417FD MUL PUSH1 0x80 SHR JUMPDEST PUSH1 0x0 DUP4 PUSH8 0x400000000000000 AND PUSH1 0xF SIGNEXTEND SGT ISZERO PUSH2 0x3C9C JUMPI PUSH17 0x102C9A3E778060EE6F7CACA4F7A29BDE8 MUL PUSH1 0x80 SHR JUMPDEST PUSH1 0x0 DUP4 PUSH8 0x200000000000000 AND PUSH1 0xF SIGNEXTEND SGT ISZERO PUSH2 0x3CC9 JUMPI PUSH17 0x10163DA9FB33356D84A66AE336DCDFA3F MUL PUSH1 0x80 SHR JUMPDEST PUSH1 0x0 DUP4 PUSH1 0x1 PUSH1 0x38 SHL AND PUSH1 0xF SIGNEXTEND SGT ISZERO PUSH2 0x3CF2 JUMPI PUSH17 0x100B1AFA5ABCBED6129AB13EC11DC9543 MUL PUSH1 0x80 SHR JUMPDEST PUSH1 0x0 DUP4 PUSH7 0x80000000000000 AND PUSH1 0xF SIGNEXTEND SGT ISZERO PUSH2 0x3D1E JUMPI PUSH17 0x10058C86DA1C09EA1FF19D294CF2F679B MUL PUSH1 0x80 SHR JUMPDEST PUSH1 0x0 DUP4 PUSH7 0x40000000000000 AND PUSH1 0xF SIGNEXTEND SGT ISZERO PUSH2 0x3D4A JUMPI PUSH17 0x1002C605E2E8CEC506D21BFC89A23A00F MUL PUSH1 0x80 SHR JUMPDEST PUSH1 0x0 DUP4 PUSH7 0x20000000000000 AND PUSH1 0xF SIGNEXTEND SGT ISZERO PUSH2 0x3D76 JUMPI PUSH17 0x100162F3904051FA128BCA9C55C31E5DF MUL PUSH1 0x80 SHR JUMPDEST PUSH1 0x0 DUP4 PUSH7 0x10000000000000 AND PUSH1 0xF SIGNEXTEND SGT ISZERO PUSH2 0x3DA2 JUMPI PUSH17 0x1000B175EFFDC76BA38E31671CA939725 MUL PUSH1 0x80 SHR JUMPDEST PUSH1 0x0 DUP4 PUSH7 0x8000000000000 AND PUSH1 0xF SIGNEXTEND SGT ISZERO PUSH2 0x3DCE JUMPI PUSH17 0x100058BA01FB9F96D6CACD4B180917C3D MUL PUSH1 0x80 SHR JUMPDEST PUSH1 0x0 DUP4 PUSH7 0x4000000000000 AND PUSH1 0xF SIGNEXTEND SGT ISZERO PUSH2 0x3DFA JUMPI PUSH17 0x10002C5CC37DA9491D0985C348C68E7B3 MUL PUSH1 0x80 SHR JUMPDEST PUSH1 0x0 DUP4 PUSH7 0x2000000000000 AND PUSH1 0xF SIGNEXTEND SGT ISZERO PUSH2 0x3E26 JUMPI PUSH17 0x1000162E525EE054754457D5995292026 MUL PUSH1 0x80 SHR JUMPDEST PUSH1 0x0 DUP4 PUSH1 0x1 PUSH1 0x30 SHL AND PUSH1 0xF SIGNEXTEND SGT ISZERO PUSH2 0x3E4F JUMPI PUSH17 0x10000B17255775C040618BF4A4ADE83FC MUL PUSH1 0x80 SHR JUMPDEST PUSH1 0x0 DUP4 PUSH6 0x800000000000 AND PUSH1 0xF SIGNEXTEND SGT ISZERO PUSH2 0x3E7A JUMPI PUSH17 0x1000058B91B5BC9AE2EED81E9B7D4CFAB MUL PUSH1 0x80 SHR JUMPDEST PUSH1 0x0 DUP4 PUSH6 0x400000000000 AND PUSH1 0xF SIGNEXTEND SGT ISZERO PUSH2 0x3EA5 JUMPI PUSH17 0x100002C5C89D5EC6CA4D7C8ACC017B7C9 MUL PUSH1 0x80 SHR JUMPDEST PUSH1 0x0 DUP4 PUSH6 0x200000000000 AND PUSH1 0xF SIGNEXTEND SGT ISZERO PUSH2 0x3ED0 JUMPI PUSH17 0x10000162E43F4F831060E02D839A9D16D MUL PUSH1 0x80 SHR JUMPDEST PUSH1 0x0 DUP4 PUSH6 0x100000000000 AND PUSH1 0xF SIGNEXTEND SGT ISZERO PUSH2 0x3EFB JUMPI PUSH17 0x100000B1721BCFC99D9F890EA06911763 MUL PUSH1 0x80 SHR JUMPDEST PUSH1 0x0 DUP4 PUSH6 0x80000000000 AND PUSH1 0xF SIGNEXTEND SGT ISZERO PUSH2 0x3F26 JUMPI PUSH17 0x10000058B90CF1E6D97F9CA14DBCC1628 MUL PUSH1 0x80 SHR JUMPDEST PUSH1 0x0 DUP4 PUSH6 0x40000000000 AND PUSH1 0xF SIGNEXTEND SGT ISZERO PUSH2 0x3F51 JUMPI PUSH17 0x1000002C5C863B73F016468F6BAC5CA2B MUL PUSH1 0x80 SHR JUMPDEST PUSH1 0x0 DUP4 PUSH6 0x20000000000 AND PUSH1 0xF SIGNEXTEND SGT ISZERO PUSH2 0x3F7C JUMPI PUSH17 0x100000162E430E5A18F6119E3C02282A5 MUL PUSH1 0x80 SHR JUMPDEST PUSH1 0x0 DUP4 PUSH1 0x1 PUSH1 0x28 SHL AND PUSH1 0xF SIGNEXTEND SGT ISZERO PUSH2 0x3FA5 JUMPI PUSH17 0x1000000B1721835514B86E6D96EFD1BFE MUL PUSH1 0x80 SHR JUMPDEST PUSH1 0x0 DUP4 PUSH5 0x8000000000 AND PUSH1 0xF SIGNEXTEND SGT ISZERO PUSH2 0x3FCF JUMPI PUSH17 0x100000058B90C0B48C6BE5DF846C5B2EF MUL PUSH1 0x80 SHR JUMPDEST PUSH1 0x0 DUP4 PUSH5 0x4000000000 AND PUSH1 0xF SIGNEXTEND SGT ISZERO PUSH2 0x3FF9 JUMPI PUSH17 0x10000002C5C8601CC6B9E94213C72737A MUL PUSH1 0x80 SHR JUMPDEST PUSH1 0x0 DUP4 PUSH5 0x2000000000 AND PUSH1 0xF SIGNEXTEND SGT ISZERO PUSH2 0x4023 JUMPI PUSH17 0x1000000162E42FFF037DF38AA2B219F06 MUL PUSH1 0x80 SHR JUMPDEST PUSH1 0x0 DUP4 PUSH5 0x1000000000 AND PUSH1 0xF SIGNEXTEND SGT ISZERO PUSH2 0x404D JUMPI PUSH17 0x10000000B17217FBA9C739AA5819F44F9 MUL PUSH1 0x80 SHR JUMPDEST PUSH1 0x0 DUP4 PUSH5 0x800000000 AND PUSH1 0xF SIGNEXTEND SGT ISZERO PUSH2 0x4077 JUMPI PUSH17 0x1000000058B90BFCDEE5ACD3C1CEDC823 MUL PUSH1 0x80 SHR JUMPDEST PUSH1 0x0 DUP4 PUSH5 0x400000000 AND PUSH1 0xF SIGNEXTEND SGT ISZERO PUSH2 0x40A1 JUMPI PUSH17 0x100000002C5C85FE31F35A6A30DA1BE50 MUL PUSH1 0x80 SHR JUMPDEST PUSH1 0x0 DUP4 PUSH5 0x200000000 AND PUSH1 0xF SIGNEXTEND SGT ISZERO PUSH2 0x40CB JUMPI PUSH17 0x10000000162E42FF0999CE3541B9FFFCF MUL PUSH1 0x80 SHR JUMPDEST PUSH1 0x0 DUP4 PUSH5 0x100000000 AND PUSH1 0xF SIGNEXTEND SGT ISZERO PUSH2 0x40F5 JUMPI PUSH17 0x100000000B17217F80F4EF5AADDA45554 MUL PUSH1 0x80 SHR JUMPDEST PUSH1 0x0 DUP4 PUSH4 0x80000000 AND PUSH1 0xF SIGNEXTEND SGT ISZERO PUSH2 0x411E JUMPI PUSH17 0x10000000058B90BFBF8479BD5A81B51AD MUL PUSH1 0x80 SHR JUMPDEST PUSH1 0x0 DUP4 PUSH4 0x40000000 AND PUSH1 0xF SIGNEXTEND SGT ISZERO PUSH2 0x4147 JUMPI PUSH17 0x1000000002C5C85FDF84BD62AE30A74CC MUL PUSH1 0x80 SHR JUMPDEST PUSH1 0x0 DUP4 PUSH4 0x20000000 AND PUSH1 0xF SIGNEXTEND SGT ISZERO PUSH2 0x4170 JUMPI PUSH17 0x100000000162E42FEFB2FED257559BDAA MUL PUSH1 0x80 SHR JUMPDEST PUSH1 0x0 DUP4 PUSH4 0x10000000 AND PUSH1 0xF SIGNEXTEND SGT ISZERO PUSH2 0x4199 JUMPI PUSH17 0x1000000000B17217F7D5A7716BBA4A9AE MUL PUSH1 0x80 SHR JUMPDEST PUSH1 0x0 DUP4 PUSH4 0x8000000 AND PUSH1 0xF SIGNEXTEND SGT ISZERO PUSH2 0x41C2 JUMPI PUSH17 0x100000000058B90BFBE9DDBAC5E109CCE MUL PUSH1 0x80 SHR JUMPDEST PUSH1 0x0 DUP4 PUSH4 0x4000000 AND PUSH1 0xF SIGNEXTEND SGT ISZERO PUSH2 0x41EB JUMPI PUSH17 0x10000000002C5C85FDF4B15DE6F17EB0D MUL PUSH1 0x80 SHR JUMPDEST PUSH1 0x0 DUP4 PUSH4 0x2000000 AND PUSH1 0xF SIGNEXTEND SGT ISZERO PUSH2 0x4214 JUMPI PUSH17 0x1000000000162E42FEFA494F1478FDE05 MUL PUSH1 0x80 SHR JUMPDEST PUSH1 0x0 DUP4 PUSH4 0x1000000 AND PUSH1 0xF SIGNEXTEND SGT ISZERO PUSH2 0x423D JUMPI PUSH17 0x10000000000B17217F7D20CF927C8E94C MUL PUSH1 0x80 SHR JUMPDEST PUSH1 0x0 DUP4 PUSH3 0x800000 AND PUSH1 0xF SIGNEXTEND SGT ISZERO PUSH2 0x4265 JUMPI PUSH17 0x1000000000058B90BFBE8F71CB4E4B33D MUL PUSH1 0x80 SHR JUMPDEST PUSH1 0x0 DUP4 PUSH3 0x400000 AND PUSH1 0xF SIGNEXTEND SGT ISZERO PUSH2 0x428D JUMPI PUSH17 0x100000000002C5C85FDF477B662B26945 MUL PUSH1 0x80 SHR JUMPDEST PUSH1 0x0 DUP4 PUSH3 0x200000 AND PUSH1 0xF SIGNEXTEND SGT ISZERO PUSH2 0x42B5 JUMPI PUSH17 0x10000000000162E42FEFA3AE53369388C MUL PUSH1 0x80 SHR JUMPDEST PUSH1 0x0 DUP4 PUSH3 0x100000 AND PUSH1 0xF SIGNEXTEND SGT ISZERO PUSH2 0x42DD JUMPI PUSH17 0x100000000000B17217F7D1D351A389D40 MUL PUSH1 0x80 SHR JUMPDEST PUSH1 0x0 DUP4 PUSH3 0x80000 AND PUSH1 0xF SIGNEXTEND SGT ISZERO PUSH2 0x4305 JUMPI PUSH17 0x10000000000058B90BFBE8E8B2D3D4EDE MUL PUSH1 0x80 SHR JUMPDEST PUSH1 0x0 DUP4 PUSH3 0x40000 AND PUSH1 0xF SIGNEXTEND SGT ISZERO PUSH2 0x432D JUMPI PUSH17 0x1000000000002C5C85FDF4741BEA6E77E MUL PUSH1 0x80 SHR JUMPDEST PUSH1 0x0 DUP4 PUSH3 0x20000 AND PUSH1 0xF SIGNEXTEND SGT ISZERO PUSH2 0x4355 JUMPI PUSH17 0x100000000000162E42FEFA39FE95583C2 MUL PUSH1 0x80 SHR JUMPDEST PUSH1 0x0 DUP4 PUSH3 0x10000 AND PUSH1 0xF SIGNEXTEND SGT ISZERO PUSH2 0x437D JUMPI PUSH17 0x1000000000000B17217F7D1CFB72B45E1 MUL PUSH1 0x80 SHR JUMPDEST PUSH1 0x0 DUP4 PUSH2 0x8000 AND PUSH1 0xF SIGNEXTEND SGT ISZERO PUSH2 0x43A4 JUMPI PUSH17 0x100000000000058B90BFBE8E7CC35C3F0 MUL PUSH1 0x80 SHR JUMPDEST PUSH1 0x0 DUP4 PUSH2 0x4000 AND PUSH1 0xF SIGNEXTEND SGT ISZERO PUSH2 0x43CB JUMPI PUSH17 0x10000000000002C5C85FDF473E242EA38 MUL PUSH1 0x80 SHR JUMPDEST PUSH1 0x0 DUP4 PUSH2 0x2000 AND PUSH1 0xF SIGNEXTEND SGT ISZERO PUSH2 0x43F2 JUMPI PUSH17 0x1000000000000162E42FEFA39F02B772C MUL PUSH1 0x80 SHR JUMPDEST PUSH1 0x0 DUP4 PUSH2 0x1000 AND PUSH1 0xF SIGNEXTEND SGT ISZERO PUSH2 0x4419 JUMPI PUSH17 0x10000000000000B17217F7D1CF7D83C1A MUL PUSH1 0x80 SHR JUMPDEST PUSH1 0x0 DUP4 PUSH2 0x800 AND PUSH1 0xF SIGNEXTEND SGT ISZERO PUSH2 0x4440 JUMPI PUSH17 0x1000000000000058B90BFBE8E7BDCBE2E MUL PUSH1 0x80 SHR JUMPDEST PUSH1 0x0 DUP4 PUSH2 0x400 AND PUSH1 0xF SIGNEXTEND SGT ISZERO PUSH2 0x4467 JUMPI PUSH17 0x100000000000002C5C85FDF473DEA871F MUL PUSH1 0x80 SHR JUMPDEST PUSH1 0x0 DUP4 PUSH2 0x200 AND PUSH1 0xF SIGNEXTEND SGT ISZERO PUSH2 0x448E JUMPI PUSH17 0x10000000000000162E42FEFA39EF44D91 MUL PUSH1 0x80 SHR JUMPDEST PUSH1 0x0 DUP4 PUSH2 0x100 AND PUSH1 0xF SIGNEXTEND SGT ISZERO PUSH2 0x44B5 JUMPI PUSH17 0x100000000000000B17217F7D1CF79E949 MUL PUSH1 0x80 SHR JUMPDEST PUSH1 0x0 DUP4 PUSH1 0x80 AND PUSH1 0xF SIGNEXTEND SGT ISZERO PUSH2 0x44DB JUMPI PUSH17 0x10000000000000058B90BFBE8E7BCE544 MUL PUSH1 0x80 SHR JUMPDEST PUSH1 0x0 DUP4 PUSH1 0x40 AND PUSH1 0xF SIGNEXTEND SGT ISZERO PUSH2 0x4501 JUMPI PUSH17 0x1000000000000002C5C85FDF473DE6ECA MUL PUSH1 0x80 SHR JUMPDEST PUSH1 0x0 DUP4 PUSH1 0x20 AND PUSH1 0xF SIGNEXTEND SGT ISZERO PUSH2 0x4527 JUMPI PUSH17 0x100000000000000162E42FEFA39EF366F MUL PUSH1 0x80 SHR JUMPDEST PUSH1 0x0 DUP4 PUSH1 0x10 AND PUSH1 0xF SIGNEXTEND SGT ISZERO PUSH2 0x454D JUMPI PUSH17 0x1000000000000000B17217F7D1CF79AFA MUL PUSH1 0x80 SHR JUMPDEST PUSH1 0x0 DUP4 PUSH1 0x8 AND PUSH1 0xF SIGNEXTEND SGT ISZERO PUSH2 0x4573 JUMPI PUSH17 0x100000000000000058B90BFBE8E7BCD6D MUL PUSH1 0x80 SHR JUMPDEST PUSH1 0x0 DUP4 PUSH1 0x4 AND PUSH1 0xF SIGNEXTEND SGT ISZERO PUSH2 0x4599 JUMPI PUSH17 0x10000000000000002C5C85FDF473DE6B2 MUL PUSH1 0x80 SHR JUMPDEST PUSH1 0x0 DUP4 PUSH1 0x2 AND PUSH1 0xF SIGNEXTEND SGT ISZERO PUSH2 0x45BF JUMPI PUSH17 0x1000000000000000162E42FEFA39EF358 MUL PUSH1 0x80 SHR JUMPDEST PUSH1 0x0 DUP4 PUSH1 0x1 AND PUSH1 0xF SIGNEXTEND SGT ISZERO PUSH2 0x45E5 JUMPI PUSH17 0x10000000000000000B17217F7D1CF79AB MUL PUSH1 0x80 SHR JUMPDEST PUSH1 0xF DUP4 DUP2 SIGNEXTEND PUSH1 0x40 SAR PUSH1 0x3F SUB SWAP1 SIGNEXTEND SHR PUSH1 0x1 PUSH1 0x1 PUSH1 0x7F SHL SUB DUP2 GT ISZERO PUSH2 0x4EF JUMPI PUSH1 0x0 DUP1 REVERT JUMPDEST PUSH1 0x0 PUSH2 0x4611 PUSH2 0x3208 JUMP JUMPDEST PUSH1 0x0 DUP7 DUP2 MSTORE PUSH1 0x20 DUP3 DUP2 MSTORE PUSH1 0x40 DUP1 DUP4 KECCAK256 DUP9 DUP5 MSTORE DUP3 MSTORE DUP1 DUP4 KECCAK256 DUP7 DUP5 MSTORE DUP3 MSTORE SWAP2 DUP3 SWAP1 KECCAK256 DUP1 DUP11 MSTORE SWAP1 DUP10 ADD DUP8 SWAP1 MSTORE DUP1 SLOAD PUSH1 0x1 PUSH1 0x1 PUSH1 0x50 SHL SUB DUP1 DUP3 AND SWAP4 DUP12 ADD SWAP4 SWAP1 SWAP4 MSTORE PUSH1 0x1 PUSH1 0x50 SHL DUP2 DIV SWAP1 SWAP3 AND PUSH1 0x60 DUP11 ADD MSTORE PUSH4 0xFFFFFFFF PUSH1 0x1 PUSH1 0xA0 SHL DUP4 DIV DUP2 AND PUSH1 0xA0 DUP12 ADD MSTORE PUSH1 0x1 PUSH1 0xC0 SHL DUP4 DIV DUP2 AND PUSH1 0xC0 DUP12 ADD MSTORE PUSH1 0x1 PUSH1 0xE0 SHL SWAP1 SWAP3 DIV SWAP1 SWAP2 AND PUSH1 0xE0 DUP10 ADD MSTORE SWAP1 SWAP2 POP DUP1 DUP5 ISZERO PUSH2 0x46B0 JUMPI PUSH1 0x1 DUP3 ADD SLOAD PUSH1 0x1 PUSH1 0x1 PUSH1 0x50 SHL SUB AND PUSH1 0x80 DUP10 ADD MSTORE PUSH2 0x3B19 JUMP JUMPDEST PUSH1 0x0 PUSH1 0x80 DUP10 ADD MSTORE POP POP POP POP POP POP POP POP JUMP JUMPDEST PUSH2 0x46C9 PUSH2 0x4DCB JUMP JUMPDEST PUSH1 0x0 PUSH2 0x46D3 PUSH2 0x2C4C JUMP JUMPDEST PUSH2 0xFFFF DUP5 AND PUSH1 0x0 SWAP1 DUP2 MSTORE PUSH1 0x20 SWAP2 SWAP1 SWAP2 MSTORE PUSH1 0x40 DUP2 KECCAK256 SLOAD SWAP2 POP PUSH2 0x5B8 SWAP1 DUP3 PUSH2 0x38B6 JUMP JUMPDEST PUSH1 0x0 PUSH2 0x5B8 PUSH2 0x4703 DUP5 DUP5 PUSH2 0x18DE JUMP JUMPDEST PUSH4 0x3B9ACA00 PUSH2 0x2036 JUMP JUMPDEST PUSH1 0x0 PUSH1 0x2 DUP3 LT DUP1 ISZERO SWAP1 PUSH2 0x4EF JUMPI POP POP PUSH1 0x8 LT ISZERO SWAP1 JUMP JUMPDEST PUSH1 0x0 DUP1 PUSH2 0x4EF PUSH1 0xC PUSH2 0x2D66 JUMP JUMPDEST PUSH1 0x0 DUP1 PUSH2 0x4EF PUSH1 0xB PUSH2 0x2D66 JUMP JUMPDEST PUSH1 0x0 PUSH3 0x15180 DUP3 LT ISZERO PUSH2 0x474F JUMPI PUSH1 0x0 DUP1 REVERT JUMPDEST PUSH3 0x15180 DUP3 PUSH2 0x1ADB JUMP JUMPDEST PUSH1 0x0 DUP2 PUSH2 0x4765 JUMPI PUSH1 0x0 DUP1 REVERT JUMPDEST PUSH1 0x1 PUSH1 0x80 SHL DUP3 LT PUSH2 0x4778 JUMPI PUSH1 0x80 SWAP2 DUP3 SHR SWAP2 ADD JUMPDEST PUSH1 0x1 PUSH1 0x40 SHL DUP3 LT PUSH2 0x478B JUMPI PUSH1 0x40 SWAP2 DUP3 SHR SWAP2 ADD JUMPDEST PUSH5 0x100000000 DUP3 LT PUSH2 0x479F JUMPI PUSH1 0x20 SWAP2 DUP3 SHR SWAP2 ADD JUMPDEST PUSH3 0x10000 DUP3 LT PUSH2 0x47B1 JUMPI PUSH1 0x10 SWAP2 DUP3 SHR SWAP2 ADD JUMPDEST PUSH2 0x100 DUP3 LT PUSH2 0x47C2 JUMPI PUSH1 0x8 SWAP2 DUP3 SHR SWAP2 ADD JUMPDEST PUSH1 0x10 DUP3 LT PUSH2 0x47D2 JUMPI PUSH1 0x4 SWAP2 DUP3 SHR SWAP2 ADD JUMPDEST PUSH1 0x4 DUP3 LT PUSH2 0x47E2 JUMPI PUSH1 0x2 SWAP2 DUP3 SHR SWAP2 ADD JUMPDEST PUSH1 0x2 DUP3 LT PUSH2 0x370 JUMPI PUSH1 0x1 ADD SWAP2 SWAP1 POP JUMP JUMPDEST PUSH1 0x60 DUP1 PUSH2 0x47FF DUP5 DUP5 PUSH2 0x48D2 JUMP JUMPDEST SWAP2 POP PUSH2 0x354A DUP3 PUSH2 0x49EA JUMP JUMPDEST PUSH1 0x0 DUP2 PUSH1 0xFF AND PUSH1 0x96 LT PUSH2 0x4825 JUMPI PUSH1 0xFF DUP3 AND PUSH3 0x2625A0 MUL PUSH2 0x4EF JUMP JUMPDEST POP PUSH1 0x95 NOT PUSH1 0xFF SWAP2 SWAP1 SWAP2 AND ADD PUSH3 0xE4E1C0 MUL PUSH4 0x165A0BC0 ADD SWAP1 JUMP JUMPDEST PUSH1 0x0 DUP2 SLT ISZERO PUSH2 0x484C JUMPI PUSH1 0x0 DUP1 REVERT JUMPDEST PUSH1 0x0 PUSH2 0x4856 PUSH2 0x3863 JUMP JUMPDEST PUSH1 0x1 PUSH1 0x1 PUSH1 0xA0 SHL SUB DUP6 AND PUSH1 0x0 SWAP1 DUP2 MSTORE PUSH1 0x20 DUP3 DUP2 MSTORE PUSH1 0x40 DUP1 DUP4 KECCAK256 PUSH2 0xFFFF DUP9 AND DUP5 MSTORE SWAP1 SWAP2 MSTORE SWAP1 KECCAK256 SWAP1 SWAP2 POP PUSH2 0x4887 DUP4 PUSH2 0x132E JUMP JUMPDEST DUP2 SLOAD PUSH1 0xA SWAP2 SWAP1 SWAP2 SIGNEXTEND PUSH1 0x1 PUSH1 0x1 PUSH1 0x58 SHL SUB AND PUSH1 0x1 PUSH1 0xA8 SHL MUL PUSH1 0x1 PUSH1 0x1 PUSH1 0xA8 SHL SUB SWAP1 SWAP2 AND OR SWAP1 SSTORE POP POP POP POP JUMP JUMPDEST PUSH1 0x0 DUP1 PUSH2 0x4EF PUSH1 0x21 PUSH2 0x2D66 JUMP JUMPDEST PUSH1 0x60 SWAP1 SWAP2 ADD MLOAD PUSH1 0xFF SWAP2 SHR AND PUSH3 0x2625A0 MUL SWAP1 JUMP JUMPDEST PUSH1 0x60 PUSH1 0x8 DUP3 PUSH1 0xFF AND GT ISZERO PUSH2 0x48E5 JUMPI PUSH1 0x0 DUP1 REVERT JUMPDEST PUSH1 0x0 PUSH2 0x48EF PUSH2 0x4BAB JUMP JUMPDEST PUSH1 0x1 PUSH1 0x1 PUSH1 0xA0 SHL SUB DUP6 AND PUSH1 0x0 SWAP1 DUP2 MSTORE PUSH1 0x20 DUP3 SWAP1 MSTORE PUSH1 0x40 DUP2 KECCAK256 SWAP2 SWAP3 POP PUSH1 0xFF DUP6 AND PUSH8 0xFFFFFFFFFFFFFFFF DUP2 GT DUP1 ISZERO PUSH2 0x4924 JUMPI PUSH1 0x0 DUP1 REVERT JUMPDEST POP PUSH1 0x40 MLOAD SWAP1 DUP1 DUP3 MSTORE DUP1 PUSH1 0x20 MUL PUSH1 0x20 ADD DUP3 ADD PUSH1 0x40 MSTORE DUP1 ISZERO PUSH2 0x495E JUMPI DUP2 PUSH1 0x20 ADD JUMPDEST PUSH2 0x494B PUSH2 0x4E38 JUMP JUMPDEST DUP2 MSTORE PUSH1 0x20 ADD SWAP1 PUSH1 0x1 SWAP1 SUB SWAP1 DUP2 PUSH2 0x4943 JUMPI SWAP1 POP JUMPDEST POP SWAP1 POP PUSH1 0x0 JUMPDEST DUP6 PUSH1 0xFF AND DUP2 LT ISZERO PUSH2 0x737 JUMPI PUSH1 0x0 DUP4 DUP3 PUSH1 0x8 DUP2 LT PUSH2 0x497D JUMPI INVALID JUMPDEST ADD SWAP1 POP PUSH1 0x0 DUP4 DUP4 DUP2 MLOAD DUP2 LT PUSH2 0x498E JUMPI INVALID JUMPDEST PUSH1 0x20 SWAP1 DUP2 MUL SWAP2 SWAP1 SWAP2 ADD DUP2 ADD MLOAD DUP4 SLOAD PUSH2 0xFFFF DUP2 AND DUP3 MSTORE PUSH5 0xFFFFFFFFFF PUSH3 0x10000 DUP3 DIV AND SWAP3 DUP3 ADD SWAP3 SWAP1 SWAP3 MSTORE PUSH1 0xFF PUSH1 0x1 PUSH1 0x38 SHL DUP4 DIV AND PUSH1 0x40 DUP3 ADD MSTORE PUSH1 0x1 PUSH1 0x40 SHL SWAP1 SWAP2 DIV PUSH1 0xA SWAP1 DUP2 SIGNEXTEND SWAP1 SIGNEXTEND PUSH1 0x60 DUP3 ADD MSTORE PUSH1 0x80 ADD SWAP2 SWAP1 SWAP2 MSTORE POP PUSH1 0x1 ADD PUSH2 0x4964 JUMP JUMPDEST DUP1 MLOAD PUSH1 0x60 SWAP1 DUP1 PUSH8 0xFFFFFFFFFFFFFFFF DUP2 GT DUP1 ISZERO PUSH2 0x4A06 JUMPI PUSH1 0x0 DUP1 REVERT JUMPDEST POP PUSH1 0x40 MLOAD SWAP1 DUP1 DUP3 MSTORE DUP1 PUSH1 0x20 MUL PUSH1 0x20 ADD DUP3 ADD PUSH1 0x40 MSTORE DUP1 ISZERO PUSH2 0x4A30 JUMPI DUP2 PUSH1 0x20 ADD PUSH1 0x20 DUP3 MUL DUP1 CALLDATASIZE DUP4 CALLDATACOPY ADD SWAP1 POP JUMPDEST POP SWAP2 POP PUSH1 0x0 JUMPDEST DUP2 DUP2 LT ISZERO PUSH2 0x4A8D JUMPI PUSH1 0x0 DUP5 DUP3 DUP2 MLOAD DUP2 LT PUSH2 0x4A4C JUMPI INVALID JUMPDEST PUSH1 0x20 MUL PUSH1 0x20 ADD ADD MLOAD SWAP1 POP PUSH2 0x4A6D DUP2 PUSH1 0x0 ADD MLOAD DUP3 PUSH1 0x20 ADD MLOAD DUP4 PUSH1 0x40 ADD MLOAD PUSH2 0x4BB8 JUMP JUMPDEST DUP5 DUP4 DUP2 MLOAD DUP2 LT PUSH2 0x4A79 JUMPI INVALID JUMPDEST PUSH1 0x20 SWAP1 DUP2 MUL SWAP2 SWAP1 SWAP2 ADD ADD MSTORE POP PUSH1 0x1 ADD PUSH2 0x4A36 JUMP JUMPDEST POP PUSH1 0x1 JUMPDEST DUP2 DUP2 LT ISZERO PUSH2 0x4BA4 JUMPI DUP1 JUMPDEST PUSH1 0x0 DUP2 GT DUP1 ISZERO PUSH2 0x4AD3 JUMPI POP DUP4 DUP2 DUP2 MLOAD DUP2 LT PUSH2 0x4AB2 JUMPI INVALID JUMPDEST PUSH1 0x20 MUL PUSH1 0x20 ADD ADD MLOAD DUP5 PUSH1 0x1 DUP4 SUB DUP2 MLOAD DUP2 LT PUSH2 0x4AC9 JUMPI INVALID JUMPDEST PUSH1 0x20 MUL PUSH1 0x20 ADD ADD MLOAD GT JUMPDEST ISZERO PUSH2 0x4B9B JUMPI DUP4 DUP2 DUP2 MLOAD DUP2 LT PUSH2 0x4AE4 JUMPI INVALID JUMPDEST PUSH1 0x20 MUL PUSH1 0x20 ADD ADD MLOAD DUP5 PUSH1 0x1 DUP4 SUB DUP2 MLOAD DUP2 LT PUSH2 0x4AFB JUMPI INVALID JUMPDEST PUSH1 0x20 MUL PUSH1 0x20 ADD ADD MLOAD DUP6 PUSH1 0x1 DUP5 SUB DUP2 MLOAD DUP2 LT PUSH2 0x4B12 JUMPI INVALID JUMPDEST PUSH1 0x20 MUL PUSH1 0x20 ADD ADD DUP7 DUP5 DUP2 MLOAD DUP2 LT PUSH2 0x4B25 JUMPI INVALID JUMPDEST PUSH1 0x20 MUL PUSH1 0x20 ADD ADD DUP3 DUP2 MSTORE POP DUP3 DUP2 MSTORE POP POP POP DUP5 DUP2 DUP2 MLOAD DUP2 LT PUSH2 0x4B42 JUMPI INVALID JUMPDEST PUSH1 0x20 MUL PUSH1 0x20 ADD ADD MLOAD DUP6 PUSH1 0x1 DUP4 SUB DUP2 MLOAD DUP2 LT PUSH2 0x4B59 JUMPI INVALID JUMPDEST PUSH1 0x20 MUL PUSH1 0x20 ADD ADD MLOAD DUP7 PUSH1 0x1 DUP5 SUB DUP2 MLOAD DUP2 LT PUSH2 0x4B70 JUMPI INVALID JUMPDEST PUSH1 0x20 MUL PUSH1 0x20 ADD ADD DUP8 DUP5 DUP2 MLOAD DUP2 LT PUSH2 0x4B83 JUMPI INVALID JUMPDEST PUSH1 0x20 SWAP1 DUP2 MUL SWAP2 SWAP1 SWAP2 ADD ADD SWAP2 SWAP1 SWAP2 MSTORE MSTORE PUSH1 0x0 NOT ADD PUSH2 0x4A9B JUMP JUMPDEST POP PUSH1 0x1 ADD PUSH2 0x4A91 JUMP JUMPDEST POP POP SWAP2 SWAP1 POP JUMP JUMPDEST PUSH1 0x0 DUP1 PUSH2 0x4EF PUSH1 0xD PUSH2 0x2D66 JUMP JUMPDEST PUSH8 0xFFFF000000000000 PUSH1 0x30 DUP5 SWAP1 SHL AND PUSH6 0xFFFFFFFFFF00 PUSH1 0x8 DUP5 SWAP1 SHL AND OR PUSH1 0xFF DUP3 AND OR SWAP4 SWAP3 POP POP POP JUMP JUMPDEST PUSH1 0x40 MLOAD DUP1 PUSH1 0xE0 ADD PUSH1 0x40 MSTORE DUP1 PUSH2 0x4BF4 PUSH2 0x4D6A JUMP JUMPDEST DUP2 MSTORE PUSH1 0x20 ADD PUSH2 0x4C01 PUSH2 0x4E10 JUMP JUMPDEST DUP2 MSTORE PUSH1 0x0 PUSH1 0x20 DUP3 ADD DUP2 SWAP1 MSTORE PUSH1 0x40 DUP3 ADD DUP2 SWAP1 MSTORE PUSH1 0x60 DUP3 ADD DUP2 SWAP1 MSTORE PUSH1 0x80 DUP3 ADD DUP2 SWAP1 MSTORE PUSH1 0xA0 SWAP1 SWAP2 ADD MSTORE SWAP1 JUMP JUMPDEST PUSH1 0x40 MLOAD DUP1 PUSH2 0x140 ADD PUSH1 0x40 MSTORE DUP1 PUSH1 0x0 PUSH2 0xFFFF AND DUP2 MSTORE PUSH1 0x20 ADD PUSH1 0x0 DUP2 MSTORE PUSH1 0x20 ADD PUSH1 0x0 DUP2 MSTORE PUSH1 0x20 ADD PUSH1 0x0 DUP2 MSTORE PUSH1 0x20 ADD PUSH1 0x0 DUP2 MSTORE PUSH1 0x20 ADD PUSH1 0x0 DUP2 MSTORE PUSH1 0x20 ADD PUSH1 0x0 DUP2 MSTORE PUSH1 0x20 ADD PUSH1 0x0 DUP2 MSTORE PUSH1 0x20 ADD PUSH1 0x0 DUP2 MSTORE PUSH1 0x20 ADD PUSH2 0x4C81 PUSH2 0x4C86 JUMP JUMPDEST SWAP1 MSTORE SWAP1 JUMP JUMPDEST PUSH1 0x40 MLOAD DUP1 PUSH1 0x60 ADD PUSH1 0x40 MSTORE DUP1 PUSH1 0x0 DUP2 MSTORE PUSH1 0x20 ADD PUSH1 0x0 DUP2 MSTORE PUSH1 0x20 ADD PUSH1 0x0 DUP2 MSTORE POP SWAP1 JUMP JUMPDEST PUSH1 0x40 MLOAD DUP1 PUSH2 0x120 ADD PUSH1 0x40 MSTORE DUP1 PUSH1 0x0 DUP2 MSTORE PUSH1 0x20 ADD PUSH1 0x0 DUP2 MSTORE PUSH1 0x20 ADD PUSH1 0x0 DUP2 MSTORE PUSH1 0x20 ADD PUSH1 0x0 DUP2 MSTORE PUSH1 0x20 ADD PUSH1 0x0 DUP2 MSTORE PUSH1 0x20 ADD PUSH1 0x0 DUP2 MSTORE PUSH1 0x20 ADD PUSH1 0x0 DUP2 MSTORE PUSH1 0x20 ADD PUSH1 0x0 DUP2 MSTORE PUSH1 0x20 ADD PUSH1 0x0 DUP2 MSTORE POP SWAP1 JUMP JUMPDEST PUSH1 0x40 MLOAD DUP1 PUSH2 0x100 ADD PUSH1 0x40 MSTORE DUP1 PUSH1 0x0 DUP1 NOT AND DUP2 MSTORE PUSH1 0x20 ADD PUSH1 0x0 DUP2 MSTORE PUSH1 0x20 ADD PUSH1 0x0 DUP2 MSTORE PUSH1 0x20 ADD PUSH1 0x0 DUP2 MSTORE PUSH1 0x20 ADD PUSH1 0x0 DUP2 MSTORE PUSH1 0x20 ADD PUSH1 0x0 DUP2 MSTORE PUSH1 0x20 ADD PUSH1 0x0 DUP2 MSTORE PUSH1 0x20 ADD PUSH1 0x0 DUP2 MSTORE POP SWAP1 JUMP JUMPDEST PUSH1 0x40 DUP1 MLOAD PUSH1 0xA0 DUP2 ADD DUP3 MSTORE PUSH1 0x0 DUP1 DUP3 MSTORE PUSH1 0x20 DUP3 ADD DUP2 SWAP1 MSTORE SWAP2 DUP2 ADD DUP3 SWAP1 MSTORE SWAP1 PUSH1 0x60 DUP3 ADD SWAP1 DUP2 MSTORE PUSH1 0x20 ADD PUSH1 0x0 DUP2 MSTORE POP SWAP1 JUMP JUMPDEST PUSH1 0x40 DUP1 MLOAD PUSH1 0x80 DUP2 ADD DUP3 MSTORE PUSH1 0x0 DUP1 DUP3 MSTORE PUSH1 0x20 DUP3 ADD MSTORE SWAP1 DUP2 ADD PUSH2 0x4D89 PUSH2 0x4C86 JUMP JUMPDEST DUP2 MSTORE PUSH1 0x0 PUSH1 0x20 SWAP1 SWAP2 ADD MSTORE SWAP1 JUMP JUMPDEST PUSH1 0x40 DUP1 MLOAD PUSH1 0xC0 DUP2 ADD DUP3 MSTORE PUSH1 0x0 DUP1 DUP3 MSTORE PUSH1 0x20 DUP3 ADD DUP2 SWAP1 MSTORE SWAP2 DUP2 ADD DUP3 SWAP1 MSTORE PUSH1 0x60 DUP2 ADD DUP3 SWAP1 MSTORE PUSH1 0x80 DUP2 ADD DUP3 SWAP1 MSTORE PUSH1 0xA0 DUP2 ADD SWAP2 SWAP1 SWAP2 MSTORE SWAP1 JUMP JUMPDEST PUSH1 0x40 MLOAD DUP1 PUSH2 0x100 ADD PUSH1 0x40 MSTORE DUP1 PUSH1 0x0 DUP2 MSTORE PUSH1 0x20 ADD PUSH1 0x0 DUP2 MSTORE PUSH1 0x20 ADD PUSH1 0x0 DUP2 MSTORE PUSH1 0x20 ADD PUSH1 0x0 DUP2 MSTORE PUSH1 0x20 ADD PUSH1 0x0 DUP2 MSTORE PUSH1 0x20 ADD PUSH1 0x0 DUP2 MSTORE PUSH1 0x20 ADD PUSH1 0x0 DUP2 MSTORE PUSH1 0x20 ADD PUSH1 0x0 DUP2 MSTORE POP SWAP1 JUMP JUMPDEST PUSH1 0x40 MLOAD DUP1 PUSH1 0x80 ADD PUSH1 0x40 MSTORE DUP1 PUSH1 0x60 DUP2 MSTORE PUSH1 0x20 ADD PUSH1 0x60 DUP2 MSTORE PUSH1 0x20 ADD PUSH1 0x0 DUP2 MSTORE PUSH1 0x20 ADD PUSH1 0x0 DUP2 MSTORE POP SWAP1 JUMP JUMPDEST PUSH1 0x40 MLOAD DUP1 PUSH1 0xC0 ADD PUSH1 0x40 MSTORE DUP1 PUSH1 0x0 PUSH2 0xFFFF AND DUP2 MSTORE PUSH1 0x20 ADD PUSH1 0x0 DUP2 MSTORE PUSH1 0x20 ADD PUSH1 0x0 DUP2 MSTORE PUSH1 0x20 ADD PUSH1 0x0 DUP2 MSTORE PUSH1 0x20 ADD PUSH1 0x0 DUP2 MSTORE PUSH1 0x20 ADD PUSH1 0x0 PUSH1 0x3 DUP2 GT ISZERO PUSH2 0x4C81 JUMPI INVALID JUMPDEST DUP1 CALLDATALOAD DUP1 ISZERO ISZERO DUP2 EQ PUSH2 0x370 JUMPI PUSH1 0x0 DUP1 REVERT JUMPDEST DUP1 CALLDATALOAD PUSH2 0xFFFF DUP2 AND DUP2 EQ PUSH2 0x370 JUMPI PUSH1 0x0 DUP1 REVERT JUMPDEST DUP1 CALLDATALOAD PUSH4 0xFFFFFFFF DUP2 AND DUP2 EQ PUSH2 0x370 JUMPI PUSH1 0x0 DUP1 REVERT JUMPDEST PUSH1 0x0 DUP1 PUSH1 0x40 DUP4 DUP6 SUB SLT ISZERO PUSH2 0x4EBF JUMPI DUP2 DUP3 REVERT JUMPDEST DUP3 CALLDATALOAD PUSH1 0x1 PUSH1 0x1 PUSH1 0xA0 SHL SUB DUP2 AND DUP2 EQ PUSH2 0x4ED5 JUMPI DUP3 DUP4 REVERT JUMPDEST SWAP5 PUSH1 0x20 SWAP4 SWAP1 SWAP4 ADD CALLDATALOAD SWAP4 POP POP POP JUMP JUMPDEST PUSH1 0x0 PUSH1 0x20 DUP3 DUP5 SUB SLT ISZERO PUSH2 0x4EF4 JUMPI DUP1 DUP2 REVERT JUMPDEST PUSH2 0x5B8 DUP3 PUSH2 0x4E87 JUMP JUMPDEST PUSH1 0x0 DUP1 PUSH1 0x40 DUP4 DUP6 SUB SLT ISZERO PUSH2 0x4F0F JUMPI DUP2 DUP3 REVERT JUMPDEST PUSH2 0x4ED5 DUP4 PUSH2 0x4E87 JUMP JUMPDEST PUSH1 0x0 DUP1 PUSH1 0x0 PUSH1 0x60 DUP5 DUP7 SUB SLT ISZERO PUSH2 0x4F2C JUMPI DUP1 DUP2 REVERT JUMPDEST PUSH2 0x4F35 DUP5 PUSH2 0x4E87 JUMP JUMPDEST SWAP3 POP PUSH1 0x20 DUP5 ADD CALLDATALOAD SWAP2 POP PUSH2 0x4F4A PUSH1 0x40 DUP6 ADD PUSH2 0x4E77 JUMP JUMPDEST SWAP1 POP SWAP3 POP SWAP3 POP SWAP3 JUMP JUMPDEST PUSH1 0x0 DUP1 PUSH1 0x0 DUP1 PUSH1 0x80 DUP6 DUP8 SUB SLT ISZERO PUSH2 0x4F68 JUMPI DUP1 DUP2 REVERT JUMPDEST PUSH2 0x4F71 DUP6 PUSH2 0x4E87 JUMP JUMPDEST SWAP4 POP PUSH1 0x20 DUP6 ADD CALLDATALOAD DUP1 PUSH1 0xA SIGNEXTEND DUP2 EQ PUSH2 0x4F86 JUMPI DUP2 DUP3 REVERT JUMPDEST SWAP4 SWAP7 SWAP4 SWAP6 POP POP POP POP PUSH1 0x40 DUP3 ADD CALLDATALOAD SWAP2 PUSH1 0x60 ADD CALLDATALOAD SWAP1 JUMP JUMPDEST PUSH1 0x0 DUP1 PUSH1 0x0 DUP1 PUSH1 0x80 DUP6 DUP8 SUB SLT ISZERO PUSH2 0x4FB0 JUMPI DUP4 DUP5 REVERT JUMPDEST PUSH2 0x4FB9 DUP6 PUSH2 0x4E87 JUMP JUMPDEST SWAP7 PUSH1 0x20 DUP7 ADD CALLDATALOAD SWAP7 POP PUSH1 0x40 DUP7 ADD CALLDATALOAD SWAP6 PUSH1 0x60 ADD CALLDATALOAD SWAP5 POP SWAP3 POP POP POP JUMP JUMPDEST PUSH1 0x0 DUP1 PUSH1 0x0 DUP1 PUSH1 0x0 PUSH1 0xA0 DUP7 DUP9 SUB SLT ISZERO PUSH2 0x4FEA JUMPI DUP1 DUP2 REVERT JUMPDEST PUSH2 0x4FF3 DUP7 PUSH2 0x4E87 JUMP JUMPDEST SWAP5 POP PUSH1 0x20 DUP7 ADD CALLDATALOAD SWAP4 POP PUSH1 0x40 DUP7 ADD CALLDATALOAD SWAP3 POP PUSH1 0x60 DUP7 ADD CALLDATALOAD SWAP2 POP PUSH2 0x5016 PUSH1 0x80 DUP8 ADD PUSH2 0x4E77 JUMP JUMPDEST SWAP1 POP SWAP3 SWAP6 POP SWAP3 SWAP6 SWAP1 SWAP4 POP JUMP JUMPDEST PUSH1 0x0 DUP1 PUSH1 0x0 DUP1 PUSH1 0x0 PUSH1 0xA0 DUP7 DUP9 SUB SLT ISZERO PUSH2 0x5039 JUMPI DUP1 DUP2 REVERT JUMPDEST PUSH2 0x5042 DUP7 PUSH2 0x4E87 JUMP JUMPDEST SWAP5 POP PUSH1 0x20 DUP7 ADD CALLDATALOAD SWAP4 POP PUSH1 0x40 DUP7 ADD CALLDATALOAD SWAP3 POP PUSH2 0x505E PUSH1 0x60 DUP8 ADD PUSH2 0x4E99 JUMP JUMPDEST SWAP5 SWAP8 SWAP4 SWAP7 POP SWAP2 SWAP5 PUSH1 0x80 ADD CALLDATALOAD SWAP3 SWAP2 POP POP JUMP JUMPDEST PUSH1 0x0 DUP1 PUSH1 0x0 DUP1 PUSH1 0x0 DUP1 PUSH1 0xC0 DUP8 DUP10 SUB SLT ISZERO PUSH2 0x5087 JUMPI DUP1 DUP2 REVERT JUMPDEST PUSH2 0x5090 DUP8 PUSH2 0x4E87 JUMP JUMPDEST SWAP6 POP PUSH1 0x20 DUP8 ADD CALLDATALOAD SWAP5 POP PUSH1 0x40 DUP8 ADD CALLDATALOAD SWAP4 POP PUSH2 0x50AC PUSH1 0x60 DUP9 ADD PUSH2 0x4E99 JUMP JUMPDEST SWAP3 POP PUSH1 0x80 DUP8 ADD CALLDATALOAD SWAP2 POP PUSH2 0x50C1 PUSH1 0xA0 DUP9 ADD PUSH2 0x4E77 JUMP JUMPDEST SWAP1 POP SWAP3 SWAP6 POP SWAP3 SWAP6 POP SWAP3 SWAP6 JUMP JUMPDEST PUSH1 0x0 DUP1 PUSH1 0x40 DUP4 DUP6 SUB SLT ISZERO PUSH2 0x50DF JUMPI DUP2 DUP3 REVERT JUMPDEST PUSH2 0x50E8 DUP4 PUSH2 0x4E87 JUMP JUMPDEST SWAP2 POP PUSH1 0x20 DUP4 ADD CALLDATALOAD PUSH1 0x1 PUSH1 0x1 PUSH1 0x58 SHL SUB DUP2 AND DUP2 EQ PUSH2 0x5103 JUMPI DUP2 DUP3 REVERT JUMPDEST DUP1 SWAP2 POP POP SWAP3 POP SWAP3 SWAP1 POP JUMP JUMPDEST PUSH1 0x0 PUSH1 0x20 DUP3 DUP5 SUB SLT ISZERO PUSH2 0x511F JUMPI DUP1 DUP2 REVERT JUMPDEST POP MLOAD SWAP2 SWAP1 POP JUMP JUMPDEST PUSH1 0x0 DUP1 PUSH1 0x40 DUP4 DUP6 SUB SLT ISZERO PUSH2 0x5138 JUMPI DUP2 DUP3 REVERT JUMPDEST POP POP DUP1 CALLDATALOAD SWAP3 PUSH1 0x20 SWAP1 SWAP2 ADD CALLDATALOAD SWAP2 POP JUMP JUMPDEST PUSH1 0x0 DUP1 PUSH1 0x40 DUP4 DUP6 SUB SLT ISZERO PUSH2 0x5159 JUMPI DUP2 DUP3 REVERT JUMPDEST POP POP DUP1 MLOAD PUSH1 0x20 SWAP1 SWAP2 ADD MLOAD SWAP1 SWAP3 SWAP1 SWAP2 POP JUMP JUMPDEST PUSH1 0x1 PUSH1 0x1 PUSH1 0xA0 SHL SUB SWAP2 SWAP1 SWAP2 AND DUP2 MSTORE PUSH1 0x20 ADD SWAP1 JUMP JUMPDEST PUSH1 0x1 PUSH1 0x1 PUSH1 0xA0 SHL SUB SWAP3 SWAP1 SWAP3 AND DUP3 MSTORE PUSH1 0x20 DUP3 ADD MSTORE PUSH1 0x40 ADD SWAP1 JUMP JUMPDEST PUSH1 0x1 PUSH1 0x1 PUSH1 0xA0 SHL SUB SWAP5 SWAP1 SWAP5 AND DUP5 MSTORE PUSH1 0x20 DUP5 ADD SWAP3 SWAP1 SWAP3 MSTORE PUSH1 0x40 DUP4 ADD MSTORE PUSH1 0x60 DUP3 ADD MSTORE PUSH1 0x80 ADD SWAP1 JUMP JUMPDEST SWAP1 DUP2 MSTORE PUSH1 0x20 ADD SWAP1 JUMP JUMPDEST SWAP2 DUP3 MSTORE PUSH1 0x20 DUP3 ADD MSTORE PUSH1 0x40 ADD SWAP1 JUMP JUMPDEST PUSH1 0x20 DUP1 DUP3 MSTORE PUSH1 0x16 SWAP1 DUP3 ADD MSTORE PUSH22 0x13585C9AD95D081B9BDD081A5B9A5D1A585B1A5E9959 PUSH1 0x52 SHL PUSH1 0x40 DUP3 ADD MSTORE PUSH1 0x60 ADD SWAP1 JUMP JUMPDEST PUSH1 0x20 DUP1 DUP3 MSTORE PUSH1 0x13 SWAP1 DUP3 ADD MSTORE PUSH19 0x14995C5D5A5C995CC81CD95D1D1B195B595B9D PUSH1 0x6A SHL PUSH1 0x40 DUP3 ADD MSTORE PUSH1 0x60 ADD SWAP1 JUMP JUMPDEST PUSH1 0x20 DUP1 DUP3 MSTORE PUSH1 0xE SWAP1 DUP3 ADD MSTORE PUSH14 0x4E6F20636F6E76657267656E6365 PUSH1 0x90 SHL PUSH1 0x40 DUP3 ADD MSTORE PUSH1 0x60 ADD SWAP1 JUMP JUMPDEST PUSH1 0x20 DUP1 DUP3 MSTORE PUSH1 0xD SWAP1 DUP3 ADD MSTORE PUSH13 0x92DCECC2D8D2C840D2DCC8CAF PUSH1 0x9B SHL PUSH1 0x40 DUP3 ADD MSTORE PUSH1 0x60 ADD SWAP1 JUMP JUMPDEST PUSH1 0x20 DUP1 DUP3 MSTORE PUSH1 0xE SWAP1 DUP3 ADD MSTORE PUSH14 0x125B9D985B1A59081B585C9AD95D PUSH1 0x92 SHL PUSH1 0x40 DUP3 ADD MSTORE PUSH1 0x60 ADD SWAP1 JUMP JUMPDEST PUSH1 0x20 DUP1 DUP3 MSTORE PUSH1 0x16 SWAP1 DUP3 ADD MSTORE PUSH22 0x5472616465206661696C65642C20736C697070616765 PUSH1 0x50 SHL PUSH1 0x40 DUP3 ADD MSTORE PUSH1 0x60 ADD SWAP1 JUMP JUMPDEST PUSH1 0x20 DUP1 DUP3 MSTORE PUSH1 0x12 SWAP1 DUP3 ADD MSTORE PUSH18 0x496E76616C696420626C6F636B2074696D65 PUSH1 0x70 SHL PUSH1 0x40 DUP3 ADD MSTORE PUSH1 0x60 ADD SWAP1 JUMP JUMPDEST PUSH1 0x20 DUP1 DUP3 MSTORE PUSH1 0x13 SWAP1 DUP3 ADD MSTORE PUSH19 0x125B9D985B1A590818DD5C9C995B98DE481A59 PUSH1 0x6A SHL PUSH1 0x40 DUP3 ADD MSTORE PUSH1 0x60 ADD SWAP1 JUMP JUMPDEST PUSH1 0x20 DUP1 DUP3 MSTORE PUSH1 0x11 SWAP1 DUP3 ADD MSTORE PUSH17 0x13DD995C8813585C9AD95D08131A5B5A5D PUSH1 0x7A SHL PUSH1 0x40 DUP3 ADD MSTORE PUSH1 0x60 ADD SWAP1 JUMP JUMPDEST PUSH1 0x0 PUSH2 0x180 DUP3 ADD SWAP1 POP DUP4 MLOAD DUP3 MSTORE PUSH1 0x20 DUP5 ADD MLOAD PUSH1 0x20 DUP4 ADD MSTORE PUSH1 0x40 DUP5 ADD MLOAD PUSH1 0x40 DUP4 ADD MSTORE DUP3 MLOAD PUSH1 0x60 DUP4 ADD MSTORE PUSH1 0x20 DUP4 ADD MLOAD PUSH1 0x80 DUP4 ADD MSTORE PUSH1 0x40 DUP4 ADD MLOAD PUSH1 0xA0 DUP4 ADD MSTORE PUSH1 0x60 DUP4 ADD MLOAD PUSH1 0xC0 DUP4 ADD MSTORE PUSH1 0x80 DUP4 ADD MLOAD PUSH1 0xE0 DUP4 ADD MSTORE PUSH1 0xA0 DUP4 ADD MLOAD PUSH2 0x100 DUP2 DUP2 DUP6 ADD MSTORE PUSH1 0xC0 DUP6 ADD MLOAD PUSH2 0x120 DUP6 ADD MSTORE PUSH1 0xE0 DUP6 ADD MLOAD PUSH2 0x140 DUP6 ADD MSTORE DUP1 DUP6 ADD MLOAD PUSH2 0x160 DUP6 ADD MSTORE POP POP SWAP4 SWAP3 POP POP POP JUMP JUMPDEST SWAP3 DUP4 MSTORE PUSH1 0x20 DUP4 ADD SWAP2 SWAP1 SWAP2 MSTORE PUSH1 0x40 DUP3 ADD MSTORE PUSH1 0x60 ADD SWAP1 JUMP JUMPDEST SWAP4 DUP5 MSTORE PUSH1 0x20 DUP5 ADD SWAP3 SWAP1 SWAP3 MSTORE PUSH1 0xFF AND PUSH1 0x40 DUP4 ADD MSTORE PUSH1 0x60 DUP3 ADD MSTORE PUSH1 0x80 ADD SWAP1 JUMP JUMPDEST PUSH1 0x1 PUSH1 0x1 PUSH1 0x58 SHL SUB SWAP4 SWAP1 SWAP4 AND DUP4 MSTORE PUSH1 0xFF SWAP2 SWAP1 SWAP2 AND PUSH1 0x20 DUP4 ADD MSTORE PUSH1 0x40 DUP3 ADD MSTORE PUSH1 0x60 ADD SWAP1 JUMP JUMPDEST PUSH1 0xFF SWAP2 SWAP1 SWAP2 AND DUP2 MSTORE PUSH1 0x20 ADD SWAP1 JUMP INVALID LOG2 PUSH5 0x6970667358 0x22 SLT KECCAK256 DUP11 SGT SWAP8 0xD7 0x23 0x5E DUP7 0xAF PUSH9 0xFE121033C2EA15C66B SWAP15 0xBE 0xED LOG1 ISZERO PUSH6 0xA422C048AB17 SWAP16 0xEC PUSH5 0x736F6C6343 STOP SMOD MOD STOP CALLER ","sha1":"9d2bab379f3724c229a4c3b4bd4e2f7493265f8d","source":"// SPDX-License-Identifier: GPL-3.0-only\npragma solidity =0.7.6;\npragma abicoder v2;\n\nimport {\n    PrimeRate,\n    MarketParameters,\n    Token,\n    CashGroupParameters,\n    nTokenPortfolio,\n    AccountContext,\n    BalanceState,\n    TradeActionType,\n    InterestRateParameters,\n    PrimeCashFactors\n} from \"../global/Types.sol\";\nimport {StorageLayoutV1} from \"../global/StorageLayoutV1.sol\";\nimport {Constants} from \"../global/Constants.sol\";\nimport {SafeInt256} from \"../math/SafeInt256.sol\";\nimport {SafeUint256} from \"../math/SafeUint256.sol\";\n\nimport {AccountContextHandler} from \"../internal/AccountContextHandler.sol\";\nimport {BalanceHandler} from \"../internal/balances/BalanceHandler.sol\";\nimport {TokenHandler} from \"../internal/balances/TokenHandler.sol\";\nimport {Incentives} from \"../internal/balances/Incentives.sol\";\nimport {Market} from \"../internal/markets/Market.sol\";\nimport {CashGroup} from \"../internal/markets/CashGroup.sol\";\nimport {DateTime} from \"../internal/markets/DateTime.sol\";\nimport {InterestRateCurve} from \"../internal/markets/InterestRateCurve.sol\";\nimport {PrimeRateLib} from \"../internal/pCash/PrimeRateLib.sol\";\nimport {PrimeCashExchangeRate} from \"../internal/pCash/PrimeCashExchangeRate.sol\";\nimport {nTokenSupply} from \"../internal/nToken/nTokenSupply.sol\";\nimport {nTokenHandler} from \"../internal/nToken/nTokenHandler.sol\";\nimport {nTokenCalculations} from \"../internal/nToken/nTokenCalculations.sol\";\nimport {AssetHandler} from \"../internal/valuation/AssetHandler.sol\";\n\nimport {MigrateIncentives} from \"./MigrateIncentives.sol\";\nimport {nTokenMintAction} from \"./actions/nTokenMintAction.sol\";\nimport {NotionalCalculations} from \"../../interfaces/notional/NotionalCalculations.sol\";\n\ncontract CalculationViews is StorageLayoutV1, NotionalCalculations {\n    using TokenHandler for Token;\n    using Market for MarketParameters;\n    using PrimeRateLib for PrimeRate;\n    using CashGroup for CashGroupParameters;\n    using nTokenHandler for nTokenPortfolio;\n    using AccountContextHandler for AccountContext;\n    using BalanceHandler for BalanceState;\n    using SafeInt256 for int256;\n    using SafeUint256 for uint256;\n\n    function _checkValidCurrency(uint16 currencyId) internal view {\n        require(0 < currencyId && currencyId <= maxCurrencyId, \"Invalid currency id\");\n    }\n\n    /** General Calculation View Methods **/\n\n    /// @notice Returns the nTokens that will be minted when some amount of asset tokens are deposited\n    /// @param currencyId id number of the currency\n    /// @param amountToDepositExternalPrecision amount of underlying tokens in native precision\n    /// @return the amount of nTokens that will be minted\n    function calculateNTokensToMint(uint16 currencyId, uint88 amountToDepositExternalPrecision)\n        external\n        view\n        override\n        returns (uint256)\n    {\n        _checkValidCurrency(currencyId);\n        Token memory token = TokenHandler.getUnderlyingToken(currencyId);\n        int256 amountToDepositInternal = token.convertToInternal(int256(amountToDepositExternalPrecision));\n        nTokenPortfolio memory nToken;\n        nToken.loadNTokenPortfolioView(currencyId);\n\n        int256 tokensToMint = nTokenMintAction.calculateTokensToMint(\n            nToken,\n            nToken.cashGroup.primeRate.convertFromUnderlying(amountToDepositInternal),\n            block.timestamp\n        );\n\n        return tokensToMint.toUint();\n    }\n\n    function convertNTokenToUnderlying(uint16 currencyId, int256 nTokenBalance) external view override returns (int256) {\n        (int256 totalPrimePV, nTokenPortfolio memory nToken) = _getNTokenPV(currencyId);\n        int256 valueInPrimeCash = nTokenBalance.mul(totalPrimePV).div(nToken.totalSupply);\n        int256 valueInUnderlying = nToken.cashGroup.primeRate.convertToUnderlying(valueInPrimeCash);\n        return _convertToAmountExternal(currencyId, valueInUnderlying.abs()).toInt();\n    }\n\n    /// @notice Returns the present value of the nToken's assets denominated in asset tokens\n    function nTokenPresentValueAssetDenominated(uint16 currencyId) external view override returns (int256) {\n        (int256 totalPrimePV, /* */) = _getNTokenPV(currencyId);\n        return totalPrimePV;\n    }\n\n    /// @notice Returns the present value of the nToken's assets denominated in underlying\n    function nTokenPresentValueUnderlyingDenominated(uint16 currencyId) external view override returns (int256) {\n        (int256 totalPrimePV, nTokenPortfolio memory nToken) = _getNTokenPV(currencyId);\n        return nToken.cashGroup.primeRate.convertToUnderlying(totalPrimePV);\n    }\n\n    function _getNTokenPV(uint16 currencyId) private view returns (int256, nTokenPortfolio memory) {\n        uint256 blockTime = block.timestamp;\n        nTokenPortfolio memory nToken;\n        nToken.loadNTokenPortfolioView(currencyId);\n\n        int256 totalPrimePV = nTokenCalculations.getNTokenPrimePV(nToken, blockTime);\n        return (totalPrimePV, nToken);\n    }\n\n    /// @notice Returns the fCash amount to send when given a cash amount, be sure to buffer these amounts\n    /// slightly because the liquidity curve is sensitive to changes in block time\n    /// @param currencyId id number of the currency\n    /// @param netCashToAccount denominated in underlying terms in 1e8 decimal precision,\n    //// positive for borrowing, negative for lending\n    /// @param marketIndex market index of the fCash market\n    /// @param blockTime the block time for when the trade will be calculated\n    /// @return the fCash amount from the trade, positive when lending, negative when borrowing. Always in 8 decimals.\n    function getfCashAmountGivenCashAmount(\n        uint16 currencyId,\n        int88 netCashToAccount,\n        uint256 marketIndex,\n        uint256 blockTime\n    ) external view override returns (int256) {\n        _checkValidCurrency(currencyId);\n        CashGroupParameters memory cashGroup = CashGroup.buildCashGroupView(currencyId);\n        return _getfCashAmountGivenCashAmount(netCashToAccount, marketIndex, blockTime, cashGroup);\n    }\n        \n    function _getfCashAmountGivenCashAmount(\n        int88 netUnderlyingToAccount,\n        uint256 marketIndex,\n        uint256 blockTime,\n        CashGroupParameters memory cashGroup\n    ) internal view returns (int256) {\n        MarketParameters memory market;\n        cashGroup.loadMarket(market, marketIndex, false, blockTime);\n\n        require(market.maturity > blockTime, \"Invalid block time\");\n        uint256 timeToMaturity = market.maturity - blockTime;\n        InterestRateParameters memory irParams = InterestRateCurve.getActiveInterestRateParameters(\n            cashGroup.currencyId, marketIndex\n        );\n\n        return InterestRateCurve.getfCashGivenCashAmount(\n            irParams,\n            market.totalfCash,\n            netUnderlyingToAccount,\n            cashGroup.primeRate.convertToUnderlying(market.totalPrimeCash),\n            timeToMaturity\n        );\n    }\n\n    /// @notice Returns the cash amount that will be traded given an fCash amount, be sure to buffer these amounts\n    /// slightly because the liquidity curve is sensitive to changes in block time\n    /// @param currencyId id number of the currency\n    /// @param fCashAmount amount of fCash to trade, negative for borrowing, positive for lending\n    /// @param marketIndex market index of the fCash market\n    /// @param blockTime the block time for when the trade will be calculated\n    /// @return net asset cash amount (positive for borrowing, negative for lending) in 8 decimal precision\n    /// @return underlying cash amount (positive for borrowing, negative for lending) in 8 decimal precision\n    function getCashAmountGivenfCashAmount(\n        uint16 currencyId,\n        int88 fCashAmount,\n        uint256 marketIndex,\n        uint256 blockTime\n    ) external view override returns (int256, int256) {\n        return _getCashAmountGivenfCashAmount(currencyId, fCashAmount, marketIndex, blockTime, 0);\n    }\n\n    function _getCashAmountGivenfCashAmount(\n        uint16 currencyId,\n        int88 fCashAmount,\n        uint256 marketIndex,\n        uint256 blockTime, \n        uint256 rateLimit\n    ) internal view returns (int256, int256) {\n        _checkValidCurrency(currencyId);\n        CashGroupParameters memory cashGroup = CashGroup.buildCashGroupView(currencyId);\n        MarketParameters memory market;\n        cashGroup.loadMarket(market, marketIndex, false, blockTime);\n\n        require(market.maturity > blockTime, \"Invalid block time\");\n        uint256 timeToMaturity = market.maturity - blockTime;\n\n        // prettier-ignore\n        (int256 primeCash, /* int fee */) =\n            InterestRateCurve.calculatefCashTrade(market, cashGroup, fCashAmount, timeToMaturity, marketIndex);\n\n        // Check the slippage here and revert\n        if (rateLimit != 0) {\n            if (fCashAmount < 0) {\n                // Do not allow borrows over the rate limit\n                require(market.lastImpliedRate <= rateLimit, \"Trade failed, slippage\");\n            } else {\n                // Do not allow lends under the rate limit\n                require(market.lastImpliedRate >= rateLimit, \"Trade failed, slippage\");\n            }\n        }\n\n        return (primeCash, cashGroup.primeRate.convertToUnderlying(primeCash));\n    }\n\n    /// @notice Returns the claimable incentives for all nToken balances\n    /// @param account The address of the account which holds the tokens\n    /// @param blockTime The block time when incentives will be minted\n    /// @return Incentives an account is eligible to claim\n    function nTokenGetClaimableIncentives(address account, uint256 blockTime)\n        external\n        view\n        override\n        returns (uint256)\n    {\n        AccountContext memory accountContext = AccountContextHandler.getAccountContext(account);\n        BalanceState memory balanceState;\n        uint256 totalIncentivesClaimable;\n\n        if (accountContext.isBitmapEnabled()) {\n            balanceState.loadBalanceStateView(account, accountContext.bitmapCurrencyId, accountContext);\n            if (balanceState.storedNTokenBalance > 0) {\n                address tokenAddress = nTokenHandler.nTokenAddress(balanceState.currencyId);\n                (\n                    /* uint256 totalSupply */,\n                    uint256 accumulatedNOTEPerNToken,\n                    /* uint256 lastAccumulatedTime */\n                ) = nTokenSupply.getUpdatedAccumulatedNOTEPerNToken(tokenAddress, blockTime);\n\n                uint256 incentivesToClaim = Incentives.calculateIncentivesToClaim(\n                    balanceState,\n                    tokenAddress,\n                    accumulatedNOTEPerNToken,\n                    balanceState.storedNTokenBalance.toUint()\n                );\n                totalIncentivesClaimable = totalIncentivesClaimable.add(incentivesToClaim);\n            }\n        }\n\n        bytes18 currencies = accountContext.activeCurrencies;\n        while (currencies != 0) {\n            uint16 currencyId = uint16(bytes2(currencies) & Constants.UNMASK_FLAGS);\n            balanceState.loadBalanceStateView(account, currencyId, accountContext);\n\n            if (balanceState.storedNTokenBalance > 0) {\n                address tokenAddress = nTokenHandler.nTokenAddress(balanceState.currencyId);\n                (\n                    /* uint256 totalSupply */,\n                    uint256 accumulatedNOTEPerNToken,\n                    /* uint256 lastAccumulatedTime */\n                ) = nTokenSupply.getUpdatedAccumulatedNOTEPerNToken(tokenAddress, blockTime);\n\n                uint256 incentivesToClaim = Incentives.calculateIncentivesToClaim(\n                    balanceState,\n                    tokenAddress,\n                    accumulatedNOTEPerNToken,\n                    balanceState.storedNTokenBalance.toUint()\n                );\n                totalIncentivesClaimable = totalIncentivesClaimable.add(incentivesToClaim);\n            }\n\n            currencies = currencies << 16;\n        }\n\n        return totalIncentivesClaimable;\n    }\n\n    /// @notice Returns the present value of the given fCash amount using Notional internal oracle rates\n    /// @param currencyId id number of the currency\n    /// @param maturity timestamp of the fCash maturity\n    /// @param notional amount of fCash notional\n    /// @param blockTime the block time for when the trade will be calculated\n    /// @param riskAdjusted true if haircuts and buffers should be applied to the oracle rate\n    /// @return presentValue of fCash in 8 decimal precision and underlying denomination\n    function getPresentfCashValue(\n        uint16 currencyId,\n        uint256 maturity,\n        int256 notional,\n        uint256 blockTime,\n        bool riskAdjusted\n    ) external view override returns (int256 presentValue) {\n        CashGroupParameters memory cg = CashGroup.buildCashGroupView(currencyId);\n        if (riskAdjusted) {\n            presentValue = AssetHandler.getRiskAdjustedPresentfCashValue(\n                cg, notional, maturity, blockTime\n            );\n        } else {\n            presentValue = AssetHandler.getPresentfCashValue(\n                notional,\n                maturity,\n                blockTime,\n                cg.calculateOracleRate(maturity, blockTime)\n            );\n        }\n    }\n\n    /// @notice Returns a market index value for a given maturity\n    /// @param maturity an fCash maturity\n    /// @param blockTime the block time for when the trade will be calculated\n    /// @return marketIndex a value between 1 and 7 that represents the marketIndex (tenor)\n    /// that corresponds to the maturity. Returns 0 if there is no corresponding marketIndex\n    function getMarketIndex(\n        uint256 maturity,\n        uint256 blockTime\n    ) public pure override returns (uint8 marketIndex) {\n        (\n            uint256 _marketIndex,\n            bool isIdiosyncratic\n        ) = DateTime.getMarketIndex(Constants.MAX_TRADED_MARKET_INDEX, maturity, blockTime);\n\n        // Market Index cannot be greater than 7 by construction\n        marketIndex = isIdiosyncratic ? 0 : uint8(_marketIndex);\n    }\n\n    /// @notice Returns the amount of fCash that would received if lending deposit amount.\n    /// @param currencyId id number of the currency\n    /// @param depositAmountExternal amount to deposit in the token's native precision. For aTokens use\n    /// what is returned by the balanceOf selector (not scaledBalanceOf).\n    /// @param maturity the maturity of the fCash to lend\n    /// @param minLendRate the minimum lending rate (slippage protection)\n    /// @param blockTime the block time for when the trade will be calculated\n    /// @param useUnderlying true if specifying the underlying token, false if specifying prime cash\n    /// @return fCashAmount the amount of fCash that the lender will receive\n    /// @return marketIndex the corresponding market index for the lending\n    /// @return encodedTrade the encoded bytes32 object to pass to batch trade\n    function getfCashLendFromDeposit(\n        uint16 currencyId,\n        uint256 depositAmountExternal,\n        uint256 maturity,\n        uint32 minLendRate,\n        uint256 blockTime,\n        bool useUnderlying\n    ) external view override returns (\n        uint88 fCashAmount,\n        uint8 marketIndex,\n        bytes32 encodedTrade\n    ) {\n        marketIndex = getMarketIndex(maturity, blockTime);\n        require(marketIndex > 0);\n\n        (\n            int256 underlyingInternal,\n            CashGroupParameters memory cashGroup\n        ) = _convertDepositAmountToUnderlyingInternal(currencyId, depositAmountExternal, useUnderlying);\n        int256 fCash = _getfCashAmountGivenCashAmount(underlyingInternal.neg().toInt88(), marketIndex, blockTime, cashGroup);\n        require(0 < fCash);\n\n        (\n            encodedTrade,\n            fCashAmount\n        ) = _encodeLendBorrowTrade(TradeActionType.Lend, marketIndex, fCash, minLendRate);\n    }\n\n    /// @notice Returns the amount of fCash that would received if lending deposit amount.\n    /// @param currencyId id number of the currency\n    /// @param borrowedAmountExternal amount to borrow in the token's native precision.\n    /// @param maturity the maturity of the fCash to lend\n    /// @param maxBorrowRate the maximum borrow rate (slippage protection). If zero then no slippage will be applied\n    /// @param blockTime the block time for when the trade will be calculated\n    /// @param useUnderlying true if specifying the underlying token, false if specifying prime cash\n    /// @return fCashDebt the amount of fCash that the borrower will owe, this will be stored as a negative\n    /// balance in Notional\n    /// @return marketIndex the corresponding market index for the lending\n    /// @return encodedTrade the encoded bytes32 object to pass to batch trade\n    function getfCashBorrowFromPrincipal(\n        uint16 currencyId,\n        uint256 borrowedAmountExternal,\n        uint256 maturity,\n        uint32 maxBorrowRate,\n        uint256 blockTime,\n        bool useUnderlying\n    ) external view override returns (\n        uint88 fCashDebt,\n        uint8 marketIndex,\n        bytes32 encodedTrade\n    ) {\n        marketIndex = getMarketIndex(maturity, blockTime);\n        require(marketIndex > 0);\n\n        (\n            int256 underlyingInternal,\n            CashGroupParameters memory cashGroup\n        ) = _convertDepositAmountToUnderlyingInternal(currencyId, borrowedAmountExternal, useUnderlying);\n        int256 fCash = _getfCashAmountGivenCashAmount(underlyingInternal.toInt88(), marketIndex, blockTime, cashGroup);\n        require(fCash < 0);\n\n        (\n            encodedTrade,\n            fCashDebt\n        ) = _encodeLendBorrowTrade(TradeActionType.Borrow, marketIndex, fCash, maxBorrowRate);\n    }\n\n    /// @notice Returns the amount of underlying cash and asset cash required to lend fCash. When specifying a\n    /// trade, deposit either underlying or asset tokens (not both). Asset tokens tend to be more gas efficient.\n    /// @param currencyId id number of the currency\n    /// @param fCashAmount amount of fCash (in underlying) that will be received at maturity. Always 8 decimal precision.\n    /// @param maturity the maturity of the fCash to lend\n    /// @param minLendRate the minimum lending rate (slippage protection)\n    /// @param blockTime the block time for when the trade will be calculated\n    /// @return depositAmountUnderlying the amount of underlying tokens the lender must deposit\n    /// @return depositAmountPrimeCash the amount of prime cash tokens the lender must deposit or mint\n    /// @return marketIndex the corresponding market index for the lending\n    /// @return encodedTrade the encoded bytes32 object to pass to batch trade\n    function getDepositFromfCashLend(\n        uint16 currencyId,\n        uint256 fCashAmount,\n        uint256 maturity,\n        uint32 minLendRate,\n        uint256 blockTime\n    ) external view override returns (\n        uint256 depositAmountUnderlying,\n        uint256 depositAmountPrimeCash,\n        uint8 marketIndex,\n        bytes32 encodedTrade\n    ) {\n        marketIndex = getMarketIndex(maturity, blockTime);\n        require(marketIndex > 0);\n        require(fCashAmount < uint256(int256(type(int88).max)));\n\n        int88 fCash = int88(SafeInt256.toInt(fCashAmount));\n        (\n            int256 primeCash,\n            int256 underlyingCashInternal\n        ) = _getCashAmountGivenfCashAmount(currencyId, fCash, marketIndex, blockTime, minLendRate);\n\n        depositAmountUnderlying = _convertToAmountExternal(currencyId, underlyingCashInternal);\n        depositAmountPrimeCash = primeCash.neg().toUint();\n        (encodedTrade, /* */) = _encodeLendBorrowTrade(TradeActionType.Lend, marketIndex, fCash, minLendRate);\n    }\n\n    /// @notice Returns the amount of underlying cash and asset cash required to borrow fCash. When specifying a\n    /// trade, choose to receive either underlying or asset tokens (not both). Asset tokens tend to be more gas efficient.\n    /// @param currencyId id number of the currency\n    /// @param fCashBorrow amount of fCash (in underlying) that will be received at maturity. Always 8 decimal precision.\n    /// @param maturity the maturity of the fCash to lend\n    /// @param maxBorrowRate the maximum borrow rate (slippage protection)\n    /// @param blockTime the block time for when the trade will be calculated\n    /// @return borrowAmountUnderlying the amount of underlying tokens the borrower will receive\n    /// @return borrowAmountPrimeCash the amount of prime cash tokens the borrower will receive\n    /// @return marketIndex the corresponding market index for the lending\n    /// @return encodedTrade the encoded bytes32 object to pass to batch trade\n    function getPrincipalFromfCashBorrow(\n        uint16 currencyId,\n        uint256 fCashBorrow,\n        uint256 maturity,\n        uint32 maxBorrowRate,\n        uint256 blockTime\n    ) external view override returns (\n        uint256 borrowAmountUnderlying,\n        uint256 borrowAmountPrimeCash,\n        uint8 marketIndex,\n        bytes32 encodedTrade\n    ) {\n        marketIndex = getMarketIndex(maturity, blockTime);\n        require(marketIndex > 0);\n        require(fCashBorrow < uint256(int256(type(int88).max)));\n\n        int88 fCash = int88(SafeInt256.toInt(fCashBorrow).neg());\n        (\n            int256 primeCash,\n            int256 underlyingCashInternal\n        ) = _getCashAmountGivenfCashAmount(currencyId, fCash, marketIndex, blockTime, maxBorrowRate);\n\n        borrowAmountUnderlying = _convertToAmountExternal(currencyId, underlyingCashInternal);\n        borrowAmountPrimeCash = primeCash.toUint();\n        (encodedTrade, /* */) = _encodeLendBorrowTrade(TradeActionType.Borrow, marketIndex, fCash, maxBorrowRate);\n    }\n\n    /// @notice Converts an prime cash balance to an external token denomination\n    /// @param currencyId the currency id of the cash balance\n    /// @param primeCashBalance the signed cash balance that is stored in Notional\n    /// @param convertToUnderlying true if the value should be converted to underlying\n    /// @return the cash balance converted to the external token denomination\n    function convertCashBalanceToExternal(\n        uint16 currencyId,\n        int256 primeCashBalance,\n        bool convertToUnderlying\n    ) external view override returns (int256) {\n        // Prime cash is just 1-1 with itself, no external conversion\n        if (!convertToUnderlying) return primeCashBalance;\n\n        (PrimeRate memory pr, /* */) = PrimeCashExchangeRate\n            .getPrimeCashRateView(currencyId, block.timestamp);\n\n        int256 underlyingBalance = pr.convertToUnderlying(primeCashBalance);\n        int256 externalAmount = _convertToAmountExternal(currencyId, underlyingBalance.abs()).toInt();\n        return underlyingBalance < 0 ? externalAmount.neg() : externalAmount;\n    }\n\n    /// @notice Converts an underlying balance to prime cash\n    /// @param currencyId the currency id of the cash balance\n    /// @param underlyingExternal the underlying external token balance\n    /// @return the underlying balance converted to prime cash\n    function convertUnderlyingToPrimeCash(\n        uint16 currencyId,\n        int256 underlyingExternal\n    ) external view override returns (int256) {\n        (PrimeRate memory pr, /* */) = PrimeCashExchangeRate.getPrimeCashRateView(currencyId, block.timestamp);\n        Token memory token = TokenHandler.getUnderlyingToken(currencyId);\n        int256 underlyingInternal = token.convertToInternal(underlyingExternal);\n        return pr.convertFromUnderlying(underlyingInternal);\n    }\n\n    /// @notice Converts fCash to its settled prime cash value at the specified block time\n    /// @param currencyId the currency id of the fCash asset\n    /// @param maturity the timestamp when the fCash asset matures\n    /// @param fCashBalance signed balance of fcash\n    /// @param blockTime block time to convert to settled prime value, must be greater than maturity\n    /// @return signedPrimeSupplyValue amount of prime cash to be received or owed to the protocol\n    function convertSettledfCash(\n        uint16 currencyId,\n        uint256 maturity,\n        int256 fCashBalance,\n        uint256 blockTime\n    ) external view override returns (int256 signedPrimeSupplyValue) {\n        require(maturity <= blockTime);\n        (PrimeRate memory pr, /* */) = PrimeCashExchangeRate.getPrimeCashRateView(currencyId, blockTime);\n        return pr.convertSettledfCashView(currencyId, maturity, fCashBalance, blockTime);\n    }\n\n    /// @notice Accrues prime interest and updates state up to the current block\n    function accruePrimeInterest(\n        uint16 currencyId\n    ) external override returns (PrimeRate memory pr, PrimeCashFactors memory factors) {\n        pr = PrimeRateLib.buildPrimeRateStateful(currencyId);\n        factors = PrimeCashExchangeRate.getPrimeCashFactors(currencyId);\n    }\n\n    function _convertToAmountExternal(uint16 currencyId, int256 depositAmountInternal) private view returns (uint256) {\n        Token memory token = TokenHandler.getUnderlyingToken(currencyId);\n        int256 amountExternal = depositAmountInternal < 0 ?\n            // We have to do a special rounding adjustment for underlying internal deposits from lending.\n            token.convertToUnderlyingExternalWithAdjustment(depositAmountInternal.neg()) :\n            token.convertToExternal(depositAmountInternal).abs();\n\n        return SafeInt256.toUint(amountExternal);\n    }\n\n    /// @notice Converts an external deposit amount to an internal deposit amount\n    function _convertDepositAmountToUnderlyingInternal(\n        uint16 currencyId,\n        uint256 depositAmountExternal,\n        bool useUnderlying\n    ) private view returns (int256 underlyingInternal, CashGroupParameters memory cashGroup) {\n        int256 depositAmount = depositAmountExternal.toInt();\n        cashGroup = CashGroup.buildCashGroupView(currencyId);\n\n        if (useUnderlying) {\n            Token memory token = TokenHandler.getUnderlyingToken(currencyId);\n            underlyingInternal = token.convertToInternal(depositAmount);\n        } else {\n            // In this case, depositAmount is prime cash denominated\n            underlyingInternal = cashGroup.primeRate.convertToUnderlying(depositAmount);\n        }\n    }\n\n    function _encodeLendBorrowTrade(\n        TradeActionType actionType,\n        uint8 marketIndex,\n        int256 fCash,\n        uint32 slippage\n    ) private pure returns (bytes32 encodedTrade, uint88 fCashAmount) {\n        uint256 absfCash = uint256(fCash.abs());\n        require(absfCash <= uint256(type(uint88).max));\n\n        encodedTrade = bytes32(\n            (uint256(uint8(actionType)) << 248) |\n            (uint256(marketIndex) << 240) |\n            (uint256(absfCash) << 152) |\n            (uint256(slippage) << 120)\n        );\n\n        fCashAmount = uint88(absfCash);\n    }\n\n    /// @notice Get a list of deployed library addresses (sorted by library name)\n    function getLibInfo() external pure returns (address) {\n        return (address(MigrateIncentives));\n    }\n}","sourcePath":"contracts/external/CalculationViews.sol","type":"contract","deployment":{"address":"0x280deCD520da16e5571A6f2Fb803A57e0c16f423","chainid":"42161","blockHeight":86536335}}