{"abi":[{"inputs":[{"internalType":"contract AggregatorV2V3Interface","name":"baseToUSDOracle_","type":"address"},{"internalType":"contract AggregatorV2V3Interface","name":"quoteToUSDOracle_","type":"address"},{"internalType":"bool","name":"invertBase_","type":"bool"},{"internalType":"bool","name":"invertQuote_","type":"bool"},{"internalType":"string","name":"description_","type":"string"},{"internalType":"contract AggregatorV2V3Interface","name":"sequencerUptimeOracle_","type":"address"}],"stateMutability":"nonpayable","type":"constructor","name":"constructor"},{"anonymous":false,"inputs":[{"indexed":true,"internalType":"int256","name":"current","type":"int256"},{"indexed":true,"internalType":"uint256","name":"roundId","type":"uint256"},{"indexed":false,"internalType":"uint256","name":"updatedAt","type":"uint256"}],"name":"AnswerUpdated","type":"event"},{"anonymous":false,"inputs":[{"indexed":true,"internalType":"uint256","name":"roundId","type":"uint256"},{"indexed":true,"internalType":"address","name":"startedBy","type":"address"},{"indexed":false,"internalType":"uint256","name":"startedAt","type":"uint256"}],"name":"NewRound","type":"event"},{"inputs":[],"name":"SEQUENCER_UPTIME_GRACE_PERIOD","outputs":[{"internalType":"uint256","name":"","type":"uint256"}],"stateMutability":"view","type":"function"},{"inputs":[],"name":"baseToUSDDecimals","outputs":[{"internalType":"int256","name":"","type":"int256"}],"stateMutability":"view","type":"function"},{"inputs":[],"name":"baseToUSDOracle","outputs":[{"internalType":"contract AggregatorV2V3Interface","name":"","type":"address"}],"stateMutability":"view","type":"function"},{"inputs":[],"name":"decimals","outputs":[{"internalType":"uint8","name":"","type":"uint8"}],"stateMutability":"view","type":"function"},{"inputs":[],"name":"description","outputs":[{"internalType":"string","name":"","type":"string"}],"stateMutability":"view","type":"function"},{"inputs":[{"internalType":"uint256","name":"","type":"uint256"}],"name":"getAnswer","outputs":[{"internalType":"int256","name":"","type":"int256"}],"stateMutability":"view","type":"function"},{"inputs":[{"internalType":"uint80","name":"","type":"uint80"}],"name":"getRoundData","outputs":[{"internalType":"uint80","name":"","type":"uint80"},{"internalType":"int256","name":"","type":"int256"},{"internalType":"uint256","name":"","type":"uint256"},{"internalType":"uint256","name":"","type":"uint256"},{"internalType":"uint80","name":"","type":"uint80"}],"stateMutability":"view","type":"function"},{"inputs":[{"internalType":"uint256","name":"","type":"uint256"}],"name":"getTimestamp","outputs":[{"internalType":"uint256","name":"","type":"uint256"}],"stateMutability":"view","type":"function"},{"inputs":[],"name":"invertBase","outputs":[{"internalType":"bool","name":"","type":"bool"}],"stateMutability":"view","type":"function"},{"inputs":[],"name":"invertQuote","outputs":[{"internalType":"bool","name":"","type":"bool"}],"stateMutability":"view","type":"function"},{"inputs":[],"name":"latestAnswer","outputs":[{"internalType":"int256","name":"answer","type":"int256"}],"stateMutability":"view","type":"function"},{"inputs":[],"name":"latestRound","outputs":[{"internalType":"uint256","name":"roundId","type":"uint256"}],"stateMutability":"view","type":"function"},{"inputs":[],"name":"latestRoundData","outputs":[{"internalType":"uint80","name":"roundId","type":"uint80"},{"internalType":"int256","name":"answer","type":"int256"},{"internalType":"uint256","name":"startedAt","type":"uint256"},{"internalType":"uint256","name":"updatedAt","type":"uint256"},{"internalType":"uint80","name":"answeredInRound","type":"uint80"}],"stateMutability":"view","type":"function"},{"inputs":[],"name":"latestTimestamp","outputs":[{"internalType":"uint256","name":"updatedAt","type":"uint256"}],"stateMutability":"view","type":"function"},{"inputs":[],"name":"quoteToUSDDecimals","outputs":[{"internalType":"int256","name":"","type":"int256"}],"stateMutability":"view","type":"function"},{"inputs":[],"name":"quoteToUSDOracle","outputs":[{"internalType":"contract AggregatorV2V3Interface","name":"","type":"address"}],"stateMutability":"view","type":"function"},{"inputs":[],"name":"rateDecimals","outputs":[{"internalType":"int256","name":"","type":"int256"}],"stateMutability":"view","type":"function"},{"inputs":[],"name":"sequencerUptimeOracle","outputs":[{"internalType":"contract AggregatorV2V3Interface","name":"","type":"address"}],"stateMutability":"view","type":"function"},{"inputs":[],"name":"version","outputs":[{"internalType":"uint256","name":"","type":"uint256"}],"stateMutability":"view","type":"function"}],"bytecode":"6101606040523480156200001257600080fd5b5060405162000e5738038062000e57833981810160405260c08110156200003857600080fd5b81516020830151604080850151606086015160808701805193519597949692959194919392820192846401000000008211156200007457600080fd5b9083019060208201858111156200008a57600080fd5b8251640100000000811182820188101715620000a557600080fd5b82525081516020918201929091019080838360005b83811015620000d4578181015183820152602001620000ba565b50505050905090810190601f168015620001025780820380516001836020036101000a031916815260200191505b50604052602090810151845190935062000123925060009185019062000291565b506001600160601b0319606087811b821660805286901b1660c0526040805163313ce56760e01b815290516000916001600160a01b0389169163313ce56791600480820192602092909190829003018186803b1580156200018357600080fd5b505afa15801562000198573d6000803e3d6000fd5b505050506040513d6020811015620001af57600080fd5b50516040805163313ce56760e01b815290519192506000916001600160a01b0389169163313ce567916004808301926020929190829003018186803b158015620001f857600080fd5b505afa1580156200020d573d6000803e3d6000fd5b505050506040513d60208110156200022457600080fd5b50519050601260ff831611156200023a57600080fd5b60128160ff1611156200024c57600080fd5b60ff918216600a90810a60a0529116900a60e05292151560f890811b6101005291151590911b610120525060601b6001600160601b03191661014052506200033d9050565b828054600181600116156101000203166002900490600052602060002090601f016020900481019282620002c9576000855562000314565b82601f10620002e457805160ff191683800117855562000314565b8280016001018555821562000314579182015b8281111562000314578251825591602001919060010190620002f7565b506200032292915062000326565b5090565b5b8082111562000322576000815560010162000327565b60805160601c60a05160c05160601c60e0516101005160f81c6101205160f81c6101405160601c610a7b620003dc600039806104b95280610862528061089452508061048e528061077a52508061033a528061062d52508061035e52806107a152806107c2528061082552508061039b52806106a45250806104dd5280610654528061067552806107f2525080610311528061053a5250610a7b6000f3fe608060405234801561001057600080fd5b50600436106101215760003560e01c80637284e416116100ad578063b633620c11610071578063b633620c146102c6578063c15ef47a146102e3578063d836d4ae146102eb578063dc60eac9146102f3578063feaf968c146102fb57610121565b80637284e416146101c65780638205bf6a146102435780639a6fc8f51461024b578063a8ecc66d146102be578063b5ab58dc146102c657610121565b806344f8f24d116100f457806344f8f24d1461019e57806350d25bcd146101a657806354fd4d50146101ae578063653ea66f146101b6578063668a0f02146101be57610121565b80631a3480b5146101265780631aafcce314610140578063313ce567146101645780633e374e1614610182575b600080fd5b61012e610303565b60408051918252519081900360200190f35b61014861030f565b604080516001600160a01b039092168252519081900360200190f35b61016c610333565b6040805160ff9092168252519081900360200190f35b61018a610338565b604080519115158252519081900360200190f35b61012e61035c565b61012e610380565b61012e610394565b610148610399565b61012e6103bd565b6101ce6103de565b6040805160208082528351818301528351919283929083019185019080838360005b838110156102085781810151838201526020016101f0565b50505050905090810190601f1680156102355780820380516001836020036101000a031916815260200191505b509250505060405180910390f35b61012e61046c565b6102746004803603602081101561026157600080fd5b503569ffffffffffffffffffff1661047f565b604051808669ffffffffffffffffffff1681526020018581526020018481526020018381526020018269ffffffffffffffffffff1681526020019550505050505060405180910390f35b61018a61048c565b61012e600480360360208110156102dc57600080fd5b50356104b0565b6101486104b7565b61012e6104db565b61012e6104ff565b610274610505565b670de0b6b3a764000081565b7f000000000000000000000000000000000000000000000000000000000000000081565b601281565b7f000000000000000000000000000000000000000000000000000000000000000081565b7f000000000000000000000000000000000000000000000000000000000000000081565b600061038a610526565b5091949350505050565b600181565b7f000000000000000000000000000000000000000000000000000000000000000081565b60006103c7610526565b505069ffffffffffffffffffff9092169392505050565b6000805460408051602060026001851615610100026000190190941693909304601f810184900484028201840190925281815292918301828280156104645780601f1061043957610100808354040283529160200191610464565b820191906000526020600020905b81548152906001019060200180831161044757829003601f168201915b505050505081565b6000610476610526565b50949350505050565b6000806000806000806000fd5b7f000000000000000000000000000000000000000000000000000000000000000081565b6000806000fd5b7f000000000000000000000000000000000000000000000000000000000000000081565b7f000000000000000000000000000000000000000000000000000000000000000081565b610e1081565b6000806000806000610515610526565b945094509450945094509091929394565b6000806000806000610536610860565b60007f00000000000000000000000000000000000000000000000000000000000000006001600160a01b031663feaf968c6040518163ffffffff1660e01b815260040160a06040518083038186803b15801561059157600080fd5b505afa1580156105a5573d6000803e3d6000fd5b505050506040513d60a08110156105bb57600080fd5b5080516020820151604083015160608401516080909401519299509650919450925090506000811361062b576040805162461bcd60e51b815260206004820152601460248201527321b430b4b73634b735902930ba329022b93937b960611b604482015290519081900360640190fd5b7f0000000000000000000000000000000000000000000000000000000000000000156106a057807f00000000000000000000000000000000000000000000000000000000000000007f0000000000000000000000000000000000000000000000000000000000000000028161069c57fe5b0590505b60007f00000000000000000000000000000000000000000000000000000000000000006001600160a01b031663feaf968c6040518163ffffffff1660e01b815260040160a06040518083038186803b1580156106fb57600080fd5b505afa15801561070f573d6000803e3d6000fd5b505050506040513d60a081101561072557600080fd5b5060200151905060008113610778576040805162461bcd60e51b815260206004820152601460248201527321b430b4b73634b735902930ba329022b93937b960611b604482015290519081900360640190fd5b7f0000000000000000000000000000000000000000000000000000000000000000156107ed57807f00000000000000000000000000000000000000000000000000000000000000007f000000000000000000000000000000000000000000000000000000000000000002816107e957fe5b0590505b6108557f000000000000000000000000000000000000000000000000000000000000000061084f8381670de0b6b3a7640000610849887f00000000000000000000000000000000000000000000000000000000000000006109c0565b906109c0565b90610a14565b955050509091929394565b7f00000000000000000000000000000000000000000000000000000000000000006001600160a01b0316156109be576000807f00000000000000000000000000000000000000000000000000000000000000006001600160a01b031663feaf968c6040518163ffffffff1660e01b815260040160a06040518083038186803b1580156108eb57600080fd5b505afa1580156108ff573d6000803e3d6000fd5b505050506040513d60a081101561091557600080fd5b5060208101516040909101519092509050811561096a576040805162461bcd60e51b815260206004820152600e60248201526d29b2b8bab2b731b2b9102237bbb760911b604482015290519081900360640190fd5b804203610e10106109bb576040805162461bcd60e51b815260206004820152601660248201527514d95c5d595b98d95c8811dc9858d94814195c9a5bd960521b604482015290519081900360640190fd5b50505b565b8181026000198314156109f0578115806109e25750828282816109df57fe5b05145b6109eb57600080fd5b610a0e565b821580610a05575081838281610a0257fe5b05145b610a0e57600080fd5b92915050565b600081600019148015610a2a5750600160ff1b83145b15610a3457600080fd5b818381610a3d57fe5b05939250505056fea264697066735822122014c71a5f5bb49a59f15010a7518aa613a91cdc575f39ecc6e466faf24499766564736f6c63430007060033","bytecodeSha1":"14f053e448df6d4597d3540a1e22f94d63423a88","compiler":{"evm_version":"istanbul","optimizer":{"enabled":true,"runs":200},"version":"0.7.6+commit.7338295f"},"contractName":"ChainlinkAdapter","language":"Solidity","natspec":{"kind":"dev","methods":{},"version":1},"opcodes":"PUSH1 0x80 PUSH1 0x40 MSTORE CALLVALUE DUP1 ISZERO PUSH2 0x10 JUMPI PUSH1 0x0 DUP1 REVERT JUMPDEST POP PUSH1 0x4 CALLDATASIZE LT PUSH2 0x121 JUMPI PUSH1 0x0 CALLDATALOAD PUSH1 0xE0 SHR DUP1 PUSH4 0x7284E416 GT PUSH2 0xAD JUMPI DUP1 PUSH4 0xB633620C GT PUSH2 0x71 JUMPI DUP1 PUSH4 0xB633620C EQ PUSH2 0x2C6 JUMPI DUP1 PUSH4 0xC15EF47A EQ PUSH2 0x2E3 JUMPI DUP1 PUSH4 0xD836D4AE EQ PUSH2 0x2EB JUMPI DUP1 PUSH4 0xDC60EAC9 EQ PUSH2 0x2F3 JUMPI DUP1 PUSH4 0xFEAF968C EQ PUSH2 0x2FB JUMPI PUSH2 0x121 JUMP JUMPDEST DUP1 PUSH4 0x7284E416 EQ PUSH2 0x1C6 JUMPI DUP1 PUSH4 0x8205BF6A EQ PUSH2 0x243 JUMPI DUP1 PUSH4 0x9A6FC8F5 EQ PUSH2 0x24B JUMPI DUP1 PUSH4 0xA8ECC66D EQ PUSH2 0x2BE JUMPI DUP1 PUSH4 0xB5AB58DC EQ PUSH2 0x2C6 JUMPI PUSH2 0x121 JUMP JUMPDEST DUP1 PUSH4 0x44F8F24D GT PUSH2 0xF4 JUMPI DUP1 PUSH4 0x44F8F24D EQ PUSH2 0x19E JUMPI DUP1 PUSH4 0x50D25BCD EQ PUSH2 0x1A6 JUMPI DUP1 PUSH4 0x54FD4D50 EQ PUSH2 0x1AE JUMPI DUP1 PUSH4 0x653EA66F EQ PUSH2 0x1B6 JUMPI DUP1 PUSH4 0x668A0F02 EQ PUSH2 0x1BE JUMPI PUSH2 0x121 JUMP JUMPDEST DUP1 PUSH4 0x1A3480B5 EQ PUSH2 0x126 JUMPI DUP1 PUSH4 0x1AAFCCE3 EQ PUSH2 0x140 JUMPI DUP1 PUSH4 0x313CE567 EQ PUSH2 0x164 JUMPI DUP1 PUSH4 0x3E374E16 EQ PUSH2 0x182 JUMPI JUMPDEST PUSH1 0x0 DUP1 REVERT JUMPDEST PUSH2 0x12E PUSH2 0x303 JUMP JUMPDEST PUSH1 0x40 DUP1 MLOAD SWAP2 DUP3 MSTORE MLOAD SWAP1 DUP2 SWAP1 SUB PUSH1 0x20 ADD SWAP1 RETURN JUMPDEST PUSH2 0x148 PUSH2 0x30F JUMP JUMPDEST PUSH1 0x40 DUP1 MLOAD PUSH1 0x1 PUSH1 0x1 PUSH1 0xA0 SHL SUB SWAP1 SWAP3 AND DUP3 MSTORE MLOAD SWAP1 DUP2 SWAP1 SUB PUSH1 0x20 ADD SWAP1 RETURN JUMPDEST PUSH2 0x16C PUSH2 0x333 JUMP JUMPDEST PUSH1 0x40 DUP1 MLOAD PUSH1 0xFF SWAP1 SWAP3 AND DUP3 MSTORE MLOAD SWAP1 DUP2 SWAP1 SUB PUSH1 0x20 ADD SWAP1 RETURN JUMPDEST PUSH2 0x18A PUSH2 0x338 JUMP JUMPDEST PUSH1 0x40 DUP1 MLOAD SWAP2 ISZERO ISZERO DUP3 MSTORE MLOAD SWAP1 DUP2 SWAP1 SUB PUSH1 0x20 ADD SWAP1 RETURN JUMPDEST PUSH2 0x12E PUSH2 0x35C JUMP JUMPDEST PUSH2 0x12E PUSH2 0x380 JUMP JUMPDEST PUSH2 0x12E PUSH2 0x394 JUMP JUMPDEST PUSH2 0x148 PUSH2 0x399 JUMP JUMPDEST PUSH2 0x12E PUSH2 0x3BD JUMP JUMPDEST PUSH2 0x1CE PUSH2 0x3DE JUMP JUMPDEST PUSH1 0x40 DUP1 MLOAD PUSH1 0x20 DUP1 DUP3 MSTORE DUP4 MLOAD DUP2 DUP4 ADD MSTORE DUP4 MLOAD SWAP2 SWAP3 DUP4 SWAP3 SWAP1 DUP4 ADD SWAP2 DUP6 ADD SWAP1 DUP1 DUP4 DUP4 PUSH1 0x0 JUMPDEST DUP4 DUP2 LT ISZERO PUSH2 0x208 JUMPI DUP2 DUP2 ADD MLOAD DUP4 DUP3 ADD MSTORE PUSH1 0x20 ADD PUSH2 0x1F0 JUMP JUMPDEST POP POP POP POP SWAP1 POP SWAP1 DUP2 ADD SWAP1 PUSH1 0x1F AND DUP1 ISZERO PUSH2 0x235 JUMPI DUP1 DUP3 SUB DUP1 MLOAD PUSH1 0x1 DUP4 PUSH1 0x20 SUB PUSH2 0x100 EXP SUB NOT AND DUP2 MSTORE PUSH1 0x20 ADD SWAP2 POP JUMPDEST POP SWAP3 POP POP POP PUSH1 0x40 MLOAD DUP1 SWAP2 SUB SWAP1 RETURN JUMPDEST PUSH2 0x12E PUSH2 0x46C JUMP JUMPDEST PUSH2 0x274 PUSH1 0x4 DUP1 CALLDATASIZE SUB PUSH1 0x20 DUP2 LT ISZERO PUSH2 0x261 JUMPI PUSH1 0x0 DUP1 REVERT JUMPDEST POP CALLDATALOAD PUSH10 0xFFFFFFFFFFFFFFFFFFFF AND PUSH2 0x47F JUMP JUMPDEST PUSH1 0x40 MLOAD DUP1 DUP7 PUSH10 0xFFFFFFFFFFFFFFFFFFFF AND DUP2 MSTORE PUSH1 0x20 ADD DUP6 DUP2 MSTORE PUSH1 0x20 ADD DUP5 DUP2 MSTORE PUSH1 0x20 ADD DUP4 DUP2 MSTORE PUSH1 0x20 ADD DUP3 PUSH10 0xFFFFFFFFFFFFFFFFFFFF AND DUP2 MSTORE PUSH1 0x20 ADD SWAP6 POP POP POP POP POP POP PUSH1 0x40 MLOAD DUP1 SWAP2 SUB SWAP1 RETURN JUMPDEST PUSH2 0x18A PUSH2 0x48C JUMP JUMPDEST PUSH2 0x12E PUSH1 0x4 DUP1 CALLDATASIZE SUB PUSH1 0x20 DUP2 LT ISZERO PUSH2 0x2DC JUMPI PUSH1 0x0 DUP1 REVERT JUMPDEST POP CALLDATALOAD PUSH2 0x4B0 JUMP JUMPDEST PUSH2 0x148 PUSH2 0x4B7 JUMP JUMPDEST PUSH2 0x12E PUSH2 0x4DB JUMP JUMPDEST PUSH2 0x12E PUSH2 0x4FF JUMP JUMPDEST PUSH2 0x274 PUSH2 0x505 JUMP JUMPDEST PUSH8 0xDE0B6B3A7640000 DUP2 JUMP JUMPDEST PUSH32 0x0 DUP2 JUMP JUMPDEST PUSH1 0x12 DUP2 JUMP JUMPDEST PUSH32 0x0 DUP2 JUMP JUMPDEST PUSH32 0x0 DUP2 JUMP JUMPDEST PUSH1 0x0 PUSH2 0x38A PUSH2 0x526 JUMP JUMPDEST POP SWAP2 SWAP5 SWAP4 POP POP POP POP JUMP JUMPDEST PUSH1 0x1 DUP2 JUMP JUMPDEST PUSH32 0x0 DUP2 JUMP JUMPDEST PUSH1 0x0 PUSH2 0x3C7 PUSH2 0x526 JUMP JUMPDEST POP POP PUSH10 0xFFFFFFFFFFFFFFFFFFFF SWAP1 SWAP3 AND SWAP4 SWAP3 POP POP POP JUMP JUMPDEST PUSH1 0x0 DUP1 SLOAD PUSH1 0x40 DUP1 MLOAD PUSH1 0x20 PUSH1 0x2 PUSH1 0x1 DUP6 AND ISZERO PUSH2 0x100 MUL PUSH1 0x0 NOT ADD SWAP1 SWAP5 AND SWAP4 SWAP1 SWAP4 DIV PUSH1 0x1F DUP2 ADD DUP5 SWAP1 DIV DUP5 MUL DUP3 ADD DUP5 ADD SWAP1 SWAP3 MSTORE DUP2 DUP2 MSTORE SWAP3 SWAP2 DUP4 ADD DUP3 DUP3 DUP1 ISZERO PUSH2 0x464 JUMPI DUP1 PUSH1 0x1F LT PUSH2 0x439 JUMPI PUSH2 0x100 DUP1 DUP4 SLOAD DIV MUL DUP4 MSTORE SWAP2 PUSH1 0x20 ADD SWAP2 PUSH2 0x464 JUMP JUMPDEST DUP3 ADD SWAP2 SWAP1 PUSH1 0x0 MSTORE PUSH1 0x20 PUSH1 0x0 KECCAK256 SWAP1 JUMPDEST DUP2 SLOAD DUP2 MSTORE SWAP1 PUSH1 0x1 ADD SWAP1 PUSH1 0x20 ADD DUP1 DUP4 GT PUSH2 0x447 JUMPI DUP3 SWAP1 SUB PUSH1 0x1F AND DUP3 ADD SWAP2 JUMPDEST POP POP POP POP POP DUP2 JUMP JUMPDEST PUSH1 0x0 PUSH2 0x476 PUSH2 0x526 JUMP JUMPDEST POP SWAP5 SWAP4 POP POP POP POP JUMP JUMPDEST PUSH1 0x0 DUP1 PUSH1 0x0 DUP1 PUSH1 0x0 DUP1 PUSH1 0x0 REVERT JUMPDEST PUSH32 0x0 DUP2 JUMP JUMPDEST PUSH1 0x0 DUP1 PUSH1 0x0 REVERT JUMPDEST PUSH32 0x0 DUP2 JUMP JUMPDEST PUSH32 0x0 DUP2 JUMP JUMPDEST PUSH2 0xE10 DUP2 JUMP JUMPDEST PUSH1 0x0 DUP1 PUSH1 0x0 DUP1 PUSH1 0x0 PUSH2 0x515 PUSH2 0x526 JUMP JUMPDEST SWAP5 POP SWAP5 POP SWAP5 POP SWAP5 POP SWAP5 POP SWAP1 SWAP2 SWAP3 SWAP4 SWAP5 JUMP JUMPDEST PUSH1 0x0 DUP1 PUSH1 0x0 DUP1 PUSH1 0x0 PUSH2 0x536 PUSH2 0x860 JUMP JUMPDEST PUSH1 0x0 PUSH32 0x0 PUSH1 0x1 PUSH1 0x1 PUSH1 0xA0 SHL SUB AND PUSH4 0xFEAF968C PUSH1 0x40 MLOAD DUP2 PUSH4 0xFFFFFFFF AND PUSH1 0xE0 SHL DUP2 MSTORE PUSH1 0x4 ADD PUSH1 0xA0 PUSH1 0x40 MLOAD DUP1 DUP4 SUB DUP2 DUP7 DUP1 EXTCODESIZE ISZERO DUP1 ISZERO PUSH2 0x591 JUMPI PUSH1 0x0 DUP1 REVERT JUMPDEST POP GAS STATICCALL ISZERO DUP1 ISZERO PUSH2 0x5A5 JUMPI RETURNDATASIZE PUSH1 0x0 DUP1 RETURNDATACOPY RETURNDATASIZE PUSH1 0x0 REVERT JUMPDEST POP POP POP POP PUSH1 0x40 MLOAD RETURNDATASIZE PUSH1 0xA0 DUP2 LT ISZERO PUSH2 0x5BB JUMPI PUSH1 0x0 DUP1 REVERT JUMPDEST POP DUP1 MLOAD PUSH1 0x20 DUP3 ADD MLOAD PUSH1 0x40 DUP4 ADD MLOAD PUSH1 0x60 DUP5 ADD MLOAD PUSH1 0x80 SWAP1 SWAP5 ADD MLOAD SWAP3 SWAP10 POP SWAP7 POP SWAP2 SWAP5 POP SWAP3 POP SWAP1 POP PUSH1 0x0 DUP2 SGT PUSH2 0x62B JUMPI PUSH1 0x40 DUP1 MLOAD PUSH3 0x461BCD PUSH1 0xE5 SHL DUP2 MSTORE PUSH1 0x20 PUSH1 0x4 DUP3 ADD MSTORE PUSH1 0x14 PUSH1 0x24 DUP3 ADD MSTORE PUSH20 0x21B430B4B73634B735902930BA329022B93937B9 PUSH1 0x61 SHL PUSH1 0x44 DUP3 ADD MSTORE SWAP1 MLOAD SWAP1 DUP2 SWAP1 SUB PUSH1 0x64 ADD SWAP1 REVERT JUMPDEST PUSH32 0x0 ISZERO PUSH2 0x6A0 JUMPI DUP1 PUSH32 0x0 PUSH32 0x0 MUL DUP2 PUSH2 0x69C JUMPI INVALID JUMPDEST SDIV SWAP1 POP JUMPDEST PUSH1 0x0 PUSH32 0x0 PUSH1 0x1 PUSH1 0x1 PUSH1 0xA0 SHL SUB AND PUSH4 0xFEAF968C PUSH1 0x40 MLOAD DUP2 PUSH4 0xFFFFFFFF AND PUSH1 0xE0 SHL DUP2 MSTORE PUSH1 0x4 ADD PUSH1 0xA0 PUSH1 0x40 MLOAD DUP1 DUP4 SUB DUP2 DUP7 DUP1 EXTCODESIZE ISZERO DUP1 ISZERO PUSH2 0x6FB JUMPI PUSH1 0x0 DUP1 REVERT JUMPDEST POP GAS STATICCALL ISZERO DUP1 ISZERO PUSH2 0x70F JUMPI RETURNDATASIZE PUSH1 0x0 DUP1 RETURNDATACOPY RETURNDATASIZE PUSH1 0x0 REVERT JUMPDEST POP POP POP POP PUSH1 0x40 MLOAD RETURNDATASIZE PUSH1 0xA0 DUP2 LT ISZERO PUSH2 0x725 JUMPI PUSH1 0x0 DUP1 REVERT JUMPDEST POP PUSH1 0x20 ADD MLOAD SWAP1 POP PUSH1 0x0 DUP2 SGT PUSH2 0x778 JUMPI PUSH1 0x40 DUP1 MLOAD PUSH3 0x461BCD PUSH1 0xE5 SHL DUP2 MSTORE PUSH1 0x20 PUSH1 0x4 DUP3 ADD MSTORE PUSH1 0x14 PUSH1 0x24 DUP3 ADD MSTORE PUSH20 0x21B430B4B73634B735902930BA329022B93937B9 PUSH1 0x61 SHL PUSH1 0x44 DUP3 ADD MSTORE SWAP1 MLOAD SWAP1 DUP2 SWAP1 SUB PUSH1 0x64 ADD SWAP1 REVERT JUMPDEST PUSH32 0x0 ISZERO PUSH2 0x7ED JUMPI DUP1 PUSH32 0x0 PUSH32 0x0 MUL DUP2 PUSH2 0x7E9 JUMPI INVALID JUMPDEST SDIV SWAP1 POP JUMPDEST PUSH2 0x855 PUSH32 0x0 PUSH2 0x84F DUP4 DUP2 PUSH8 0xDE0B6B3A7640000 PUSH2 0x849 DUP9 PUSH32 0x0 PUSH2 0x9C0 JUMP JUMPDEST SWAP1 PUSH2 0x9C0 JUMP JUMPDEST SWAP1 PUSH2 0xA14 JUMP JUMPDEST SWAP6 POP POP POP SWAP1 SWAP2 SWAP3 SWAP4 SWAP5 JUMP JUMPDEST PUSH32 0x0 PUSH1 0x1 PUSH1 0x1 PUSH1 0xA0 SHL SUB AND ISZERO PUSH2 0x9BE JUMPI PUSH1 0x0 DUP1 PUSH32 0x0 PUSH1 0x1 PUSH1 0x1 PUSH1 0xA0 SHL SUB AND PUSH4 0xFEAF968C PUSH1 0x40 MLOAD DUP2 PUSH4 0xFFFFFFFF AND PUSH1 0xE0 SHL DUP2 MSTORE PUSH1 0x4 ADD PUSH1 0xA0 PUSH1 0x40 MLOAD DUP1 DUP4 SUB DUP2 DUP7 DUP1 EXTCODESIZE ISZERO DUP1 ISZERO PUSH2 0x8EB JUMPI PUSH1 0x0 DUP1 REVERT JUMPDEST POP GAS STATICCALL ISZERO DUP1 ISZERO PUSH2 0x8FF JUMPI RETURNDATASIZE PUSH1 0x0 DUP1 RETURNDATACOPY RETURNDATASIZE PUSH1 0x0 REVERT JUMPDEST POP POP POP POP PUSH1 0x40 MLOAD RETURNDATASIZE PUSH1 0xA0 DUP2 LT ISZERO PUSH2 0x915 JUMPI PUSH1 0x0 DUP1 REVERT JUMPDEST POP PUSH1 0x20 DUP2 ADD MLOAD PUSH1 0x40 SWAP1 SWAP2 ADD MLOAD SWAP1 SWAP3 POP SWAP1 POP DUP2 ISZERO PUSH2 0x96A JUMPI PUSH1 0x40 DUP1 MLOAD PUSH3 0x461BCD PUSH1 0xE5 SHL DUP2 MSTORE PUSH1 0x20 PUSH1 0x4 DUP3 ADD MSTORE PUSH1 0xE PUSH1 0x24 DUP3 ADD MSTORE PUSH14 0x29B2B8BAB2B731B2B9102237BBB7 PUSH1 0x91 SHL PUSH1 0x44 DUP3 ADD MSTORE SWAP1 MLOAD SWAP1 DUP2 SWAP1 SUB PUSH1 0x64 ADD SWAP1 REVERT JUMPDEST DUP1 TIMESTAMP SUB PUSH2 0xE10 LT PUSH2 0x9BB JUMPI PUSH1 0x40 DUP1 MLOAD PUSH3 0x461BCD PUSH1 0xE5 SHL DUP2 MSTORE PUSH1 0x20 PUSH1 0x4 DUP3 ADD MSTORE PUSH1 0x16 PUSH1 0x24 DUP3 ADD MSTORE PUSH22 0x14D95C5D595B98D95C8811DC9858D94814195C9A5BD9 PUSH1 0x52 SHL PUSH1 0x44 DUP3 ADD MSTORE SWAP1 MLOAD SWAP1 DUP2 SWAP1 SUB PUSH1 0x64 ADD SWAP1 REVERT JUMPDEST POP POP JUMPDEST JUMP JUMPDEST DUP2 DUP2 MUL PUSH1 0x0 NOT DUP4 EQ ISZERO PUSH2 0x9F0 JUMPI DUP2 ISZERO DUP1 PUSH2 0x9E2 JUMPI POP DUP3 DUP3 DUP3 DUP2 PUSH2 0x9DF JUMPI INVALID JUMPDEST SDIV EQ JUMPDEST PUSH2 0x9EB JUMPI PUSH1 0x0 DUP1 REVERT JUMPDEST PUSH2 0xA0E JUMP JUMPDEST DUP3 ISZERO DUP1 PUSH2 0xA05 JUMPI POP DUP2 DUP4 DUP3 DUP2 PUSH2 0xA02 JUMPI INVALID JUMPDEST SDIV EQ JUMPDEST PUSH2 0xA0E JUMPI PUSH1 0x0 DUP1 REVERT JUMPDEST SWAP3 SWAP2 POP POP JUMP JUMPDEST PUSH1 0x0 DUP2 PUSH1 0x0 NOT EQ DUP1 ISZERO PUSH2 0xA2A JUMPI POP PUSH1 0x1 PUSH1 0xFF SHL DUP4 EQ JUMPDEST ISZERO PUSH2 0xA34 JUMPI PUSH1 0x0 DUP1 REVERT JUMPDEST DUP2 DUP4 DUP2 PUSH2 0xA3D JUMPI INVALID JUMPDEST SDIV SWAP4 SWAP3 POP POP POP JUMP INVALID LOG2 PUSH5 0x6970667358 0x22 SLT KECCAK256 EQ 0xC7 BYTE 0x5F JUMPDEST 0xB4 SWAP11 MSIZE CALL POP LT 0xA7 MLOAD DUP11 0xA6 SGT 0xA9 SHR 0xDC JUMPI 0x5F CODECOPY 0xEC 0xC6 0xE4 PUSH7 0xFAF24499766564 PUSH20 0x6F6C634300070600330000000000000000000000 ","sha1":"823b19491865086772c0c177764cdb61186b44f7","source":"// SPDX-License-Identifier: GPL-3.0-only\npragma solidity =0.7.6;\n\nimport \"../../math/SafeInt256.sol\";\nimport \"../../../interfaces/chainlink/AggregatorV2V3Interface.sol\";\n\ncontract ChainlinkAdapter is AggregatorV2V3Interface {\n    using SafeInt256 for int256;\n    uint8 public override constant decimals = 18;\n    uint256 public override constant version = 1;\n    int256 public constant rateDecimals = 10**18;\n\n    string public override description;\n    // Grace period after a sequencer downtime has occurred\n    uint256 public constant SEQUENCER_UPTIME_GRACE_PERIOD = 1 hours;\n\n    AggregatorV2V3Interface public immutable baseToUSDOracle;\n    int256 public immutable baseToUSDDecimals;\n    AggregatorV2V3Interface public immutable quoteToUSDOracle;\n    int256 public immutable quoteToUSDDecimals;\n    bool public immutable invertBase;\n    bool public immutable invertQuote;\n    AggregatorV2V3Interface public immutable sequencerUptimeOracle;\n\n    constructor (\n        AggregatorV2V3Interface baseToUSDOracle_,\n        AggregatorV2V3Interface quoteToUSDOracle_,\n        bool invertBase_,\n        bool invertQuote_,\n        string memory description_,\n        AggregatorV2V3Interface sequencerUptimeOracle_\n    ) {\n        description = description_;\n        baseToUSDOracle = baseToUSDOracle_;\n        quoteToUSDOracle = quoteToUSDOracle_;\n        uint8 _baseDecimals = baseToUSDOracle_.decimals();\n        uint8 _quoteDecimals = quoteToUSDOracle_.decimals();\n\n        require(_baseDecimals <= 18);\n        require(_quoteDecimals <= 18);\n\n        baseToUSDDecimals = int256(10**_baseDecimals);\n        quoteToUSDDecimals = int256(10**_quoteDecimals);\n        invertBase = invertBase_;\n        invertQuote = invertQuote_;\n        sequencerUptimeOracle = sequencerUptimeOracle_;\n    }\n\n    function _checkSequencer() private view {\n        // See: https://docs.chain.link/data-feeds/l2-sequencer-feeds/\n        if (address(sequencerUptimeOracle) != address(0)) {\n            (\n                /*uint80 roundID*/,\n                int256 answer,\n                uint256 startedAt,\n                /*uint256 updatedAt*/,\n                /*uint80 answeredInRound*/\n            ) = sequencerUptimeOracle.latestRoundData();\n            require(answer == 0, \"Sequencer Down\");\n            require(SEQUENCER_UPTIME_GRACE_PERIOD < block.timestamp - startedAt, \"Sequencer Grace Period\");\n        }\n    }\n\n    function _calculateBaseToQuote() internal view returns (\n        uint80 roundId,\n        int256 answer,\n        uint256 startedAt,\n        uint256 updatedAt,\n        uint80 answeredInRound\n    ) {\n        _checkSequencer();\n\n        int256 baseToUSD;\n        (\n            roundId,\n            baseToUSD,\n            startedAt,\n            updatedAt,\n            answeredInRound\n        ) = baseToUSDOracle.latestRoundData();\n        require(baseToUSD > 0, \"Chainlink Rate Error\");\n        // Overflow and div by zero not possible\n        if (invertBase) baseToUSD = (baseToUSDDecimals * baseToUSDDecimals) / baseToUSD;\n\n        (\n            /* roundId */,\n            int256 quoteToUSD,\n            /* uint256 startedAt */,\n            /* updatedAt */,\n            /* answeredInRound */\n        ) = quoteToUSDOracle.latestRoundData();\n        require(quoteToUSD > 0, \"Chainlink Rate Error\");\n        if (invertQuote) quoteToUSD = (quoteToUSDDecimals * quoteToUSDDecimals) / quoteToUSD;\n\n        // To convert from USDC/USD (base) and ETH/USD (quote) to USDC/ETH we do:\n        // (USDC/USD * quoteDecimals * 1e18) / (ETH/USD * baseDecimals)\n        answer = baseToUSD\n            .mul(quoteToUSDDecimals)\n            .mul(rateDecimals)\n            .div(quoteToUSD)\n            .div(baseToUSDDecimals);\n    }\n\n    function latestRoundData() external view override returns (\n        uint80 roundId,\n        int256 answer,\n        uint256 startedAt,\n        uint256 updatedAt,\n        uint80 answeredInRound\n    ) {\n        return _calculateBaseToQuote();\n    }\n\n    function latestAnswer() external view override returns (int256 answer) {\n        (/* */, answer, /* */, /* */, /* */) = _calculateBaseToQuote();\n    }\n\n    function latestTimestamp() external view override returns (uint256 updatedAt) {\n        (/* */, /* */, /* */, updatedAt, /* */) = _calculateBaseToQuote();\n    }\n\n    function latestRound() external view override returns (uint256 roundId) {\n        (roundId, /* */, /* */, /* */, /* */) = _calculateBaseToQuote();\n    }\n\n    function getRoundData(uint80 /* _roundId */) external view override returns (\n        uint80 /* roundId */,\n        int256 /* answer */,\n        uint256 /* startedAt */,\n        uint256 /* updatedAt */,\n        uint80 /* answeredInRound */\n    ) {\n        revert();\n    }\n\n    function getAnswer(uint256 /* roundId */) external view override returns (int256) { revert(); }\n    function getTimestamp(uint256 /* roundId */) external view override returns (uint256) { revert(); }\n}\n","sourcePath":"contracts/external/adapters/ChainlinkAdapter.sol","type":"contract","deployment":{"address":"0x4d761abc3178fd94965a3Aecfc007FFD1b82b6fb","chainid":"42161","blockHeight":144515485}}