{"abi":[{"anonymous":false,"inputs":[{"indexed":true,"internalType":"address","name":"vault","type":"address"},{"indexed":true,"internalType":"address","name":"account","type":"address"},{"indexed":true,"internalType":"address","name":"liquidator","type":"address"},{"indexed":false,"internalType":"uint16","name":"currencyId","type":"uint16"},{"indexed":false,"internalType":"int256","name":"fCashDeposit","type":"int256"},{"indexed":false,"internalType":"int256","name":"cashToLiquidator","type":"int256"}],"name":"VaultAccountCashLiquidation","type":"event"},{"anonymous":false,"inputs":[{"indexed":true,"internalType":"address","name":"vault","type":"address"},{"indexed":true,"internalType":"address","name":"account","type":"address"},{"indexed":false,"internalType":"uint16","name":"currencyId","type":"uint16"},{"indexed":false,"internalType":"uint256","name":"vaultSharesToLiquidator","type":"uint256"},{"indexed":false,"internalType":"int256","name":"depositAmountPrimeCash","type":"int256"}],"name":"VaultDeleverageAccount","type":"event"},{"anonymous":false,"inputs":[{"indexed":true,"internalType":"address","name":"vault","type":"address"},{"indexed":true,"internalType":"address","name":"account","type":"address"},{"indexed":true,"internalType":"address","name":"liquidator","type":"address"},{"indexed":false,"internalType":"uint256","name":"vaultSharesToLiquidator","type":"uint256"},{"indexed":false,"internalType":"bool","name":"transferSharesToLiquidator","type":"bool"}],"name":"VaultLiquidatorProfit","type":"event"},{"inputs":[{"internalType":"address","name":"account","type":"address"},{"internalType":"address","name":"vault","type":"address"},{"internalType":"address","name":"liquidator","type":"address"},{"internalType":"uint16","name":"currencyIndex","type":"uint16"},{"internalType":"int256","name":"depositUnderlyingInternal","type":"int256"}],"name":"deleverageAccount","outputs":[{"internalType":"uint256","name":"vaultSharesToLiquidator","type":"uint256"},{"internalType":"int256","name":"depositAmountPrimeCash","type":"int256"}],"stateMutability":"payable","type":"function"},{"inputs":[],"name":"getLibInfo","outputs":[{"internalType":"address","name":"","type":"address"},{"internalType":"address","name":"","type":"address"}],"stateMutability":"pure","type":"function"},{"inputs":[{"internalType":"address","name":"account","type":"address"},{"internalType":"address","name":"vault","type":"address"},{"internalType":"address","name":"liquidator","type":"address"},{"internalType":"uint256","name":"excessCashIndex","type":"uint256"},{"internalType":"uint256","name":"debtIndex","type":"uint256"},{"internalType":"uint256","name":"_depositUnderlyingInternal","type":"uint256"}],"name":"liquidateExcessVaultCash","outputs":[{"internalType":"int256","name":"cashToLiquidator","type":"int256"}],"stateMutability":"payable","type":"function"},{"inputs":[{"internalType":"address","name":"account","type":"address"},{"internalType":"address","name":"vault","type":"address"},{"internalType":"address","name":"liquidator","type":"address"},{"internalType":"uint256","name":"currencyIndex","type":"uint256"},{"internalType":"int256","name":"fCashDeposit","type":"int256"}],"name":"liquidateVaultCashBalance","outputs":[{"internalType":"int256","name":"cashToLiquidator","type":"int256"}],"stateMutability":"nonpayable","type":"function"},{"inputs":[],"name":"owner","outputs":[{"internalType":"address","name":"","type":"address"}],"stateMutability":"view","type":"function"},{"inputs":[],"name":"pauseGuardian","outputs":[{"internalType":"address","name":"","type":"address"}],"stateMutability":"view","type":"function"},{"inputs":[],"name":"pauseRouter","outputs":[{"internalType":"address","name":"","type":"address"}],"stateMutability":"view","type":"function"}],"bytecode":"608060405234801561001057600080fd5b50615e0e80620000216000396000f3fe6080604052600436106100705760003560e01c80638da5cb5b1161004e5780638da5cb5b146100d55780639ab77186146100ea578063c4c96dae1461010a578063fcaf198b1461012d57610070565b806321bf8c661461007557806324a3d6221461009e57806382463367146100c0575b600080fd5b61008861008336600461554a565b61014e565b6040516100959190615a74565b60405180910390f35b3480156100aa57600080fd5b506100b3610411565b604051610095919061599f565b3480156100cc57600080fd5b506100b3610420565b3480156100e157600080fd5b506100b361042f565b3480156100f657600080fd5b506100886101053660046154f0565b610446565b34801561011657600080fd5b5061011f6105e9565b6040516100959291906159b3565b61014061013b366004615487565b610617565b604051610095929190615d03565b60006002600a54141561017c5760405162461bcd60e51b815260040161017390615b3c565b60405180910390fd5b6002600a5560008061018f898989610808565b509150915061019d82610948565b6101a657600080fd5b60006101b183610977565b60405163b14428b960e01b8152909150600090309063b14428b9906101dc908e908e906004016159b3565b6101806040518083038186803b1580156101f557600080fd5b505afa158015610209573d6000803e3d6000fd5b505050506040513d601f19601f8201168201806040525081019061022d9190615779565b505090508060600151886003811061024157fe5b602002015160001261025257600080fd5b60008160600151886003811061026457fe5b60200201511261027357600080fd5b600061028185848b8b6109d7565b9050600061028e88610ae5565b90506102d76102cc60646102c685608001516102c68760a001516102c08d6101c0015189610aff90919063ffffffff16565b90610aff565b90610b53565b604084015190610b84565b96508683606001518b600381106102ea57fe5b602002015112156103445782606001518a6003811061030557fe5b602002015196506103418260a001516102c6886101c001516102c660646102c088608001516102c08f8b60400151610bad90919063ffffffff16565b90505b60608201516000906103569083610b84565b9050600061036389610bd9565b905061037387898e846000610be7565b61038187898d856000610be7565b6103918e8e86600001518c610d4c565b6103a78d85600001518387604001516000610df2565b506103bd8f8f86600001518a6020015185610e9b565b6103d38d85602001518487606001516000610f32565b506103e48d8f866020015185610d4c565b6103f98f8f86602001518a6020015186610e9b565b50506001600a5550949b9a5050505050505050505050565b6002546001600160a01b031681565b6001546001600160a01b031681565b60005464010000000090046001600160a01b031681565b60006002600a54141561046b5760405162461bcd60e51b815260040161017390615b3c565b6002600a556000808061047f898989610808565b925092509250600061048f614ffc565b600080896104b257505050506040830151610160840151835160808501516104d1565b60038a1015610070576104c6878b8f610f90565b929650909450925090505b602086015160405163f82f279d60e01b81526000918291309163f82f279d91610500918a918890600401615b88565b604080518083038186803b15801561051757600080fd5b505afa15801561052b573d6000803e3d6000fd5b505050506040513d601f19601f8201168201806040525081019061054f91906156dc565b90925090506105686105618c8361102a565b8690610b84565b9950828a131561057957819a508299505b5050886000128015610593575061058f82610bd9565b8913155b61059c57600080fd5b6105aa868c8e878d8d611043565b6105ba878688868e8e60006111b6565b6105d3878b6105c88b610bd9565b899291906000610be7565b50506001600a5550939998505050505050505050565b73__FreeCollateralExternal________________73__SettleAssetsExternal__________________9091565b6000806002600a54141561063d5760405162461bcd60e51b815260040161017390615b3c565b6002600a55600361ffff85161061065357600080fd5b60008060006106638a8a8a610808565b925092509250610671614ffc565b604051630c74db1f60e41b8152309063c74db1f09061069c908b908790899088908e90600401615ba4565b60a060405180830381600087803b1580156106b657600080fd5b505af11580156106ca573d6000803e3d6000fd5b505050506040513d601f19601f820116820180604052508101906106ee91906156ff565b919850965090506000871361070257600080fd5b6040840151600161ffff8a16141561072157506101408401515161073a565b8861ffff166002141561073a5750610140840151602001515b60006107498261ffff1661123a565b90506107628b8361075a848d61124d565b866000611285565b9050809750506107908b8e8e8588600001518f61ffff16600014610787576000610789565b8c5b8e8a611347565b604085015161079f9089611465565b6040860152602085015164ffffffffff14156107ce576107c9868587868e61ffff168e60016111b6565b600096505b6107e0858761ffff8d168a6001610be7565b6107f08b878a886020015161147a565b5050505050506001600a819055509550959350505050565b61081061501d565b6108186150b6565b6108206150f5565b610829846114e3565b846001600160a01b0316846001600160a01b0316141561084857600080fd5b6001600160a01b03861633141561085e57600080fd5b836001600160a01b0316866001600160a01b0316141561087d57600080fd5b61088685611562565b92506108948361010061158d565b1561089e57600080fd5b6108a983602061158d565b156108c857336001600160a01b038616146108c357600080fd5b6108dd565b336001600160a01b038516146108dd57600080fd5b6108e786846115a2565b91508160200151421061090c5760405162461bcd60e51b815260040161017390615acd565b602082015164ffffffffff141561092e576109278284611651565b905061093f565b61093c838360200151611696565b90505b93509350939050565b6101408101515160009061ffff1615158061096f57506101408201516020015161ffff1615155b90505b919050565b61097f61511f565b6101408201515161ffff16156109a9576101408201516109a69060005b6020020151611721565b81525b6101408201516020015161ffff1615610972576101408201516109cd90600161099c565b6020820152919050565b6109df61514c565b826109ff5760408086015161ffff16825261016086015190820152610a39565b8461014001516001840360028110610a1357fe5b602002015161ffff16815283600019840160028110610a2e57fe5b602002015160408201525b81610a5c57604085015161ffff1660208201526101608501516060820152610a9d565b8461014001516001830360028110610a7057fe5b6020908102919091015161ffff169082015283600019830160028110610a9257fe5b602002015160608201525b6000610ab0826000015161ffff16611733565b90506000610ac5836020015161ffff16611733565b9050610ad18282611896565b6080840152505160a0820152949350505050565b60006001600160ff1b03821115610afb57600080fd5b5090565b818102600019831415610b2f57811580610b21575082828281610b1e57fe5b05145b610b2a57600080fd5b610b4d565b821580610b44575081838281610b4157fe5b05145b610b4d57600080fd5b92915050565b600081600019148015610b695750600160ff1b83145b15610b7357600080fd5b818381610b7c57fe5b059392505050565b8151600090610ba6906102c6846ec097ce7bc90715b34b9f1000000000610aff565b9392505050565b6000610ba66ec097ce7bc90715b34b9f10000000006102c6856000015185610aff90919063ffffffff16565b600061096f60001983610aff565b6000610bf16118bb565b60608701516001600160a01b039081166000908152602083815260408083208a5190941683529290522090915084610c74576001810154610c4d90610c4890610c43906001600160501b0316876118c8565b6118de565b6118ed565b6001820180546001600160501b0319166001600160501b0392909216919091179055610d2a565b8460011415610cd1576001810154610ca490610c4890610c4390600160501b90046001600160501b0316876118c8565b81600101600a6101000a8154816001600160501b0302191690836001600160501b03160217905550610d2a565b8460021415610070576001810154610d0190610c4890610c4390600160a01b90046001600160501b0316876118c8565b8160010160146101000a8154816001600160501b0302191690836001600160501b031602179055505b6000876080018181525050610d43878783866000611903565b50505050505050565b6000610d56611b35565b61ffff8416600090815260209190915260408120546001600160a01b03169150821215610d81579293925b806001600160a01b03166323de66518686610d9b86611b42565b6040518463ffffffff1660e01b8152600401610db993929190615a12565b600060405180830381600087803b158015610dd357600080fd5b505af1158015610de7573d6000803e3d6000fd5b505050505050505050565b600083610e0157506000610e92565b60008412610e0e57600080fd5b6000610e1d8661ffff1661123a565b9050610e3281610e2d8688610bad565b61124d565b91506000610e3f83610bd9565b9050610e4c878383611b63565b600382606001516005811115610e5e57fe5b1415610e7457610e6f888286611c52565b610e81565b8151610e81908983611d20565b610e8e8888858589611d97565b5050505b95945050505050565b80610ea557610f2b565b6000610eb4858585600b611dde565b90506000806000841215610ecd57508690506000610ed4565b5060009050865b6000610edf85611b42565b9050816001600160a01b0316836001600160a01b0316336001600160a01b0316600080516020615db98339815191528785604051610f1e929190615d03565b60405180910390a4505050505b5050505050565b600083610f4157506000610e92565b60008413610f4e57600080fd5b6000610f5d8661ffff1661123a565b90506000610f7482610f6f8789610bad565b611e14565b9050610f838888838888611285565b5098975050505050505050565b6000610f9a614ffc565b6000806000610fa888610977565b9050600080610fb88a8985611e51565b9250925050600080610fce8a8d60000151611ee5565b915091508b610140015160018c0360028110610fe657fe5b602002015198508460018c0360028110610ffc57fe5b602002015197508a600114611012578281611015565b83825b999d989c509a50979850959650505050505050565b6000610ba66110398484610aff565b633b9aca00610b53565b606086015160208701516040516351586b3360e01b815260009273__SettleAssetsExternal__________________926351586b3392611090928b928b928b91908b908b906004016159cd565b60206040518083038186803b1580156110a857600080fd5b505af41580156110bc573d6000803e3d6000fd5b505050506040513d601f19601f820116820180604052508101906110e091906156bc565b9050801561115057604051636ccc642f60e01b815273__FreeCollateralExternal________________90636ccc642f9061111f90899060040161599f565b60006040518083038186803b15801561113757600080fd5b505af415801561114b573d6000803e3d6000fd5b505050505b856001600160a01b031687606001516001600160a01b0316866001600160a01b03167f19b09f1f990520654bea0360dd08a2678d6926fd849dd49bc385862dc91af7538787876040516111a593929190615b88565b60405180910390a450505050505050565b826111d7576111c88587846000611f3b565b6111d28688611fcb565b610d43565b6111df61511f565b848160018603600281106111ef57fe5b6020020181905250611230888760600151886020015187600114611214576000611216565b865b88600214611225576000611227565b875b86886000612074565b5050505050505050565b61124261518c565b61096f8260016122a6565b60006305f5e10083604001511415611266575080610b4d565b610ba66305f5e1006102c6856040015185610aff90919063ffffffff16565b6000806000611293866118de565b9050806112a757600080925092505061133d565b60006112b68861ffff1661123a565b90506003816060015160058111156112ca57fe5b141561131157348210156112ea576112e58983340387611c52565b611309565b3482146113095760405162461bcd60e51b815260040161017390615a7d565b86935061132b565b61132861132382600001518b85612340565b610ae5565b93505b611338898986848a611d97565b925050505b9550959350505050565b61135388878786610d4c565b60006113628787876000611dde565b905064ffffffffff8514156113e257600061138d6113888461138388610bd9565b6124c8565b610bd9565b905080600019141561139d575060005b60006001600160a01b038a1633600080516020615db9833981519152600a86176113c6866118de565b6040516113d4929190615d03565b60405180910390a450611422565b6001600160a01b038816600033600080516020615db9833981519152600b851761140b896118de565b604051611419929190615d03565b60405180910390a45b886001600160a01b0316886001600160a01b0316336001600160a01b0316600080516020615db9833981519152600960ff16851787604051610f1e929190615d03565b60008282111561147457600080fd5b50900390565b600061148685856115a2565b905080602001516000148061149e5750818160200151145b6114ba5760405162461bcd60e51b815260040161017390615aa2565b6020810182905260408101516114d09084612507565b6040820152610f2b818560016000612519565b6001600160a01b0381166114f657600080fd5b6001600160a01b038116610fee141561150e57600080fd5b6001600160a01b0381166105e7141561152657600080fd5b6001600160a01b03811630141561153c57600080fd5b6000611547826125b1565b5050505061ffff1690508060001461155e57600080fd5b5050565b61156a61501d565b6115738261261d565b90506115828160400151611721565b610160820152919050565b60209190910151811661ffff90811691161490565b6115aa6150b6565b60006115b46118bb565b6001600160a01b038086166000818152602084815260408083208951909516835293815290839020805464ffffffffff600160a01b8204169288018390526001600160501b03600160501b8204811695890195909552606088019390935260018101548416608088015263ffffffff600160c81b84041660a08801526101608801519495509361164693909216612817565b835250909392505050565b6116596150f5565b61168b8361167c6113888660000151866101600151610b8490919063ffffffff16565b60208601518592919042612855565b50610ba6838361291e565b61169e6150f5565b60006116a8612996565b84516001600160a01b031660009081526020828152604080832087845290915290819020858552805460ff600160f01b820416151560608701526001600160501b03600160a01b82048116938701939093526101608801519394509092611713929091879116612817565b602084015250909392505050565b611729614ffc565b61096f82426129a3565b61173b6151b3565b6000611745612a64565b60008481526020829052604081209192508060018614156117725750670de0b6b3a7640000905080611835565b825460408051633fabe5a360e21b815290516001600160a01b039092169163feaf968c9160048082019260a092909190829003018186803b1580156117b657600080fd5b505afa1580156117ca573d6000803e3d6000fd5b505050506040513d601f19601f820116820180604052508101906117ee9190615876565b5091935050600083139150611804905057600080fd5b825460ff600160a01b82048116600a0a9350600160a81b909104161561183557611832816102c68480610aff565b90505b8254600160b01b900460ff1660968113156118555760951901600a026096015b6040805160a081018252938452602084019290925290820152905460ff600160b81b820481166060840152600160c01b909104166080820152915050919050565b6000610ba682602001516102c684600001518660200151610aff90919063ffffffff16565b600080610b4d6016612a6d565b81810182811215600083121514610b4d57600080fd5b600080821215610afb57600080fd5b60006001600160501b03821115610afb57600080fd5b60808501511561191257600080fd5b6060840151855161192290610bd9565b12801561192c5750815b15611960578451158061194457506001856040015111155b6119605760405162461bcd60e51b815260040161017390615b64565b61196984610948565b156119cc576000611978612a86565b60608701516001600160a01b03908116600090815260209283526040808220895190931682529183522080549188015190925064ffffffffff909116908114806119c0575080155b6119c957600080fd5b50505b60006119ec610c4361138887610160015189602001518a60000151612a93565b90508115611a75576040805160e08101825285546001600160501b038082168352600160501b80830482166020850152600160a01b80840464ffffffffff1695850195909552600160c81b90920463ffffffff16606084015260018801548082166080850152918204811660a084015292900490911660c0820152611a75908790879084612ab1565b611a8286604001516118ed565b84546001600160501b0391909116600160501b0269ffffffffffffffffffff60501b199091161784556020860151611ab990612f83565b845464ffffffffff91909116600160a01b0264ffffffffff60a01b1990911617845560a0860151611ae990612f97565b845463ffffffff91909116600160c81b0263ffffffff60c81b19909116178455611b12816118ed565b84546001600160501b0319166001600160501b0391909116179093555050505050565b600080610b4d6021612a6d565b600080821215611b5c57611b5582610bd9565b9050610972565b5080610972565b6000611b6d612faa565b83516001600160a01b0316600090815260208290526040902054909150808311611b98575050611c4d565b6000611ba386612fb7565b90506000816001600160a01b031663b5e4da23866040518263ffffffff1660e01b8152600401611bd39190615a74565b60006040518083038186803b158015611beb57600080fd5b505afa158015611bff573d6000803e3d6000fd5b505050506040513d6000823e601f3d908101601f19168201604052611c2791908101906155ae565b90506000611c358783612fe7565b9050611c418482612507565b86111561123057600080fd5b505050565b8015611ce4577382af49447d8a07e3bd95bd0d56f35241523fbab16001600160a01b031663d0e30db0836040518263ffffffff1660e01b81526004016000604051808303818588803b158015611ca757600080fd5b505af1158015611cbb573d6000803e3d6000fd5b5050505050611cdf7382af49447d8a07e3bd95bd0d56f35241523fbab18484611d20565b611c4d565b6040516001600160a01b0384169083156108fc029084906000818181858888f19350505050158015611d1a573d6000803e3d6000fd5b50505050565b826001600160a01b031663a9059cbb83836040518363ffffffff1660e01b815260040180836001600160a01b0316815260200182815260200192505050600060405180830381600087803b158015611d7757600080fd5b505af1158015611d8b573d6000803e3d6000fd5b50505050611c4d6131f0565b600080611da4848661325d565b9050611db08382610b84565b9150611dbd87878461328d565b611dc886838361330d565b8351611dd49086613400565b5095945050505050565b68010000000000000000600160e01b03604085901b1667ffff000000000000603085901b1617600883901b178117949350505050565b60006305f5e10083604001511215611e4257611e3b6001611e35858561124d565b906118c8565b9050610b4d565b610ba683610e2d8460016118c8565b600080600080611e5f612a86565b6001600160a01b038781166000908152602092835260408082208b5190931682529190925290208054865164ffffffffff82169650919250611eb391908690600160281b90046001600160501b0316612817565b9250611ed9856001602002015182548690600160781b90046001600160501b0316612817565b91505093509350939050565b6000806000611ef26118bb565b6001600160a01b0395861660009081526020918252604080822096909716815294905250505020600101546001600160501b03600160501b8204811692600160a01b9092041690565b8251602085015114611f5357835115611f5357600080fd5b6080840151611f6290826118c8565b60808501528351611f7390836118c8565b80855260001215611f8357600080fd5b6020830151611f9290836118c8565b602084018190526000128015611fac5750600a8360200151125b15611fb957600060208401525b600083602001511315611d1a57600080fd5b6000611fd5612996565b82516001600160a01b03166000908152602082815260408083208751845290915290819020908501519192509061200b906118ed565b81546060860151801515600160f01b0260ff60f01b196001600160501b0394909416600160a01b0269ffffffffffffffffffff60a01b199093169290921792909216178255610160840151604085015186516020880151611d1a94869493899390929091613455565b600061207e612a86565b6001600160a01b03808a166000908152602092835260408082208d519093168252919092529020805490915064ffffffffff16878114806120bd575080155b6120c657600080fd5b845182546000916120e8918b90600160281b90046001600160501b0316612817565b90506000612110876001602002015185548c90600160781b90046001600160501b0316612817565b9050881561219857612122828a6118c8565b91506121518c8c8e610140015160006002811061213b57fe5b60200201518d8d8c60005b60200201518b613534565b61216c610c48610c436113888a600060200201518e87612a93565b84546001600160501b0391909116600160281b026effffffffffffffffffff0000000000199091161784555b8715612215576121a881896118c8565b90506121d08c8c8e61014001516001600281106121c157fe5b60200201518d8c8c6001612146565b6121eb610c48610c436113888a600160200201518e86612a93565b84546001600160501b0391909116600160781b0269ffffffffffffffffffff60781b199091161784555b85156122845781158061223257506101a08c015151600083900312155b61224e5760405162461bcd60e51b815260040161017390615b18565b80158061226857506101a08c015160200151600082900312155b6122845760405162461bcd60e51b815260040161017390615b18565b6122988483836122938e612f83565b61360e565b505050505050505050505050565b6122ae61518c565b60006122b861364c565b6000858152602082815260408083208715158452825291829020825160a08101845281546001600160a01b038116825260ff600160a01b82048116151594830194909452600160b01b81048416600a0a9482019490945293945092916060830191600160a81b90910416600581111561232d57fe5b8152600060209091015295945050505050565b600080846001600160a01b03166370a08231306040518263ffffffff1660e01b815260040180826001600160a01b0316815260200191505060206040518083038186803b15801561239057600080fd5b505afa1580156123a4573d6000803e3d6000fd5b505050506040513d60208110156123ba57600080fd5b5051604080516323b872dd60e01b81526001600160a01b038781166004830152306024830152604482018790529151929350908716916323b872dd9160648082019260009290919082900301818387803b15801561241757600080fd5b505af115801561242b573d6000803e3d6000fd5b505050506124376131f0565b6000856001600160a01b03166370a08231306040518263ffffffff1660e01b815260040180826001600160a01b0316815260200191505060206040518083038186803b15801561248657600080fd5b505afa15801561249a573d6000803e3d6000fd5b505050506040513d60208110156124b057600080fd5b505190506124be8183611465565b9695505050505050565b600080821215612501576124fc60016124f685602001516102c6876000015187610aff90919063ffffffff16565b90613659565b610ba6565b50919050565b600082820183811015610ba657600080fd5b60006125236118bb565b60608601516001600160a01b03908116600090815260208381526040808320895190941683529290522090915061255d8686838787611903565b6001810180546001600160501b03191690819055600160501b90046001600160501b03161580156125a057506001810154600160a01b90046001600160501b0316155b6125a957600080fd5b505050505050565b6000806000806000806125c261366f565b6001600160a01b039097166000908152602097909752505060409094205461ffff81169563ffffffff620100008304811696506601000000000000830416945060ff600160501b8304169350600160581b90910460d81b9150565b61262561501d565b600061262f61367c565b6001600160a01b03841660008181526020838152604091829020928652825461ffff8082169288019290925262010000810490911691860191909152919250906126909063ffffffff6401000000009091048116906305f5e10090610aff16565b606084015280546126ae90600160501b900460ff166207a120613689565b608084015280546126cd90600160401b900461ffff16620186a0613689565b60a084015280546126ec90600160701b900461ffff16620186a0613689565b61012084015260028101546127089061ffff16620186a0613689565b610180840152805460649060ff600160581b90910416633b9aca00020560c08401528054600160601b810460ff90811660e0860152600160681b909104166101008401526040805180820191829052906001830190600290826000855b82829054906101000a900461ffff1661ffff1681526020019060020190602082600101049283019260010382029150808411612765575050505050610140850191909152506127e06305f5e1006003830160005b60088104919091015460079091166004026101000a900463ffffffff9081169190610aff16565b6101a0840151526127fa6305f5e1006003830160016127b9565b6101a0840151602001526004015460ff166101c083015250919050565b600064ffffffffff831461283757816001600160501b031660000361284d565b61284d846001600160501b0384166000036136b0565b949350505050565b600061286486868686866136fb565b9050600061288460646102c68960e0015185610aff90919063ffffffff16565b905060006128928383613659565b90506128a2886040015183613791565b6128b08860400151826137c8565b64ffffffffff8514156128e8576128e888600001518960400151856128e3878d61016001516124c890919063ffffffff16565b61380c565b6128fc886000015189604001518385613914565b608087015161290b9084613659565b6080909701969096525095945050505050565b6129266150f5565b602083015164ffffffffff1461293b57600080fd5b61294a8264ffffffffff611696565b905060008360800151121561298c5761298c838261297a8660800151866101600151610bad90919063ffffffff16565b6129878760800151610bd9565b611f3b565b610b4d8183611fcb565b600080610b4d6015612a6d565b6129ab614ffc565b60006129b684613a04565b905082816000015110156129f5576000806129d086613acc565b90506129de86848388613b49565b90935091506129ee868385613c4a565b5050612a02565b80518314612a0257600080fd5b6040518060600160405280612a2b6113238460a001518560c0015161368990919063ffffffff16565b8152602001612a4e6113238460a001518560e0015161368990919063ffffffff16565b8152602001826060015181525091505092915050565b600080610b4d60105b6000620f4240826026811115612a7f57fe5b0192915050565b600080610b4d601a612a6d565b600064ffffffffff8314612aa7578161284d565b61284d8483613e7b565b6040805160028082526060820183526000926020830190803683375050604080516002808252606082018352939450600093909250906020830190803683370190505090506000612b1886600001518760400151876040015164ffffffffff166000611dde565b9050600a60ff16811783600081518110612b2e57fe5b602002602001018181525050600960ff16811783600181518110612b4e57fe5b602002602001018181525050866020015160001480612b915750604085015164ffffffffff1615801590612b9157508660200151856040015164ffffffffff1614155b15612c335784600001516001600160501b031682600081518110612bb157fe5b60200260200101818152505084602001516001600160501b031682600181518110612bd857fe5b60200260200101818152505060006001600160a01b031687606001516001600160a01b0316336001600160a01b0316600080516020615d998339815191528686604051612c26929190615a4f565b60405180910390a4612e30565b846040015164ffffffffff1687602001511415612e305784516000906001600160501b0316851080612c75575085602001516001600160501b03168860400151105b90508015612d455785516001600160501b03168510612c95576000612ca4565b85516001600160501b03168590035b83600081518110612cb157fe5b602002602001018181525050612ce1886040015187602001516001600160501b031661146590919063ffffffff16565b83600181518110612cee57fe5b60200260200101818152505060006001600160a01b031688606001516001600160a01b0316336001600160a01b0316600080516020615d998339815191528787604051612d3c929190615a4f565b60405180910390a45b801580612d5b575085516001600160501b031685115b15612e2e578551612d769086906001600160501b0316611465565b83600081518110612d8357fe5b602002602001018181525050876040015186602001516001600160501b031610612dae576000612dca565b60208601516040890151612dca916001600160501b0316611465565b83600181518110612dd757fe5b60200260200101818152505087606001516001600160a01b031660006001600160a01b0316336001600160a01b0316600080516020615d998339815191528787604051612e25929190615a4f565b60405180910390a45b505b602087015115801590612e5257508660200151856040015164ffffffffff1614155b15612f3557612e708660000151876040015189602001516000611dde565b9050600a60ff16811783600081518110612e8657fe5b602002602001018181525050600960ff16811783600181518110612ea657fe5b6020026020010181815250508382600081518110612ec057fe5b602002602001018181525050866040015182600181518110612ede57fe5b60200260200101818152505086606001516001600160a01b031660006001600160a01b0316336001600160a01b0316600080516020615d998339815191528686604051612f2c929190615a4f565b60405180910390a45b60808501516001600160501b031615610d4357606087015160808601516040516000926001600160a01b0316913391600080516020615db9833981519152916111a591600b88179190615d27565b600064ffffffffff821115610afb57600080fd5b600063ffffffff821115610afb57600080fd5b600080610b4d6026612a6d565b600080612fc2613ed7565b61ffff939093166000908152602093909352505060409020546001600160a01b031690565b6000805b82518110156131e957600083828151811061300257fe5b60200260200101519050600081606001516001600160a01b03166370a08231306040518263ffffffff1660e01b815260040161303e919061599f565b60206040518083038186803b15801561305657600080fd5b505afa15801561306a573d6000803e3d6000fd5b505050506040513d601f19601f8201168201806040525081019061308e919061585e565b9050600061309c8730613ee4565b905060005b8351518110156130ed576130e5846000015182815181106130be57fe5b60200260200101516000866020015184815181106130d857fe5b6020026020010151613f8e565b6001016130a1565b5060006130fa8830613ee4565b905060006131088284611465565b9050808560400151111561311b57600080fd5b60608501516040516370a0823160e01b81526000916001600160a01b0316906370a082319061314e90309060040161599f565b60206040518083038186803b15801561316657600080fd5b505afa15801561317a573d6000803e3d6000fd5b505050506040513d601f19601f8201168201806040525081019061319e919061585e565b9050848111156131ad57600080fd5b6131bc866060015186836140cb565b6131c68883612507565b97506131d78a6000015185856140cb565b505060019094019350612feb92505050565b5092915050565b60006131fa6151e2565b3d801561320e576020811461321757600080fd5b60019250613222565b60206000833e815192505b508161155e576040805162461bcd60e51b8152602060048201526005602482015264045524332360dc1b604482015290519081900360640190fd5b60006305f5e10083604001511415613276575080610b4d565b6040830151610ba6906102c6846305f5e100610aff565b6000613297611b35565b61ffff8416600090815260209190915260409081902054905163ad1c095d60e01b81526001600160a01b039091169150819063ad1c095d906132df9087908690600401615a36565b600060405180830381600087803b1580156132f957600080fd5b505af1158015611230573d6000803e3d6000fd5b6000613317614148565b61ffff8516600090815260209190915260409020805490915064ffffffffff16421461334257600080fd5b805460009061336190600160281b90046001600160581b0316856118c8565b825490915060009061338390600160801b90046001600160581b0316856118c8565b9050613396613391826118de565b614155565b83546001600160581b0391909116600160801b026affffffffffffffffffffff60801b199091161783556133cc613391836118de565b83546001600160581b0391909116600160281b026fffffffffffffffffffffff000000000019909116179092555050505050565b600061340a612faa565b6001600160a01b038416600090815260208290526040902054909150613433610c4382856118c8565b6001600160a01b03909416600090815260209290925250604090209190915550565b86546001600160501b0316600090810390613471888686612a93565b9050613482610c48610c4383610bd9565b89546001600160501b0319166001600160501b039190911617895560006134a9838361416b565b9050600064ffffffffff8714156134d05788516134c9908b908a856141f2565b5084613507565b846135075788516134e4908989878761421f565b88516134f990896134f485610bd9565b6142df565b613504898b8a6143b5565b90505b600082138015613515575084155b1561352757885161352790898361445b565b5050505050505050505050565b600061353e6144d7565b88516001600160a01b0316600090815260209182526040808220888352835280822061ffff8a168352909252908120805490925061358890859088906001600160501b0316612817565b905061359481866118c8565b90506135a682858b8a8a866000613455565b600080861380156135bb575064ffffffffff87145b156135dd576135d661138886896135d18a610bd9565b612a93565b90506135eb565b6135e8858888612a93565b90505b831561360257613602898b600001518a8a856144e4565b50505050505050505050565b8215801561361a575081155b1561363057835464ffffffffff19168455611d1a565b835464ffffffffff191664ffffffffff91909116179092555050565b600080610b4d6007612a6d565b80820382811315600083121514610b4d57600080fd5b600080610b4d6002612a6d565b600080610b4d6014612a6d565b60008261369857506000610b4d565b828202828482816136a557fe5b0414610ba657600080fd5b6000600182126136bf57600080fd5b816136cc57506000610b4d565b610ba660016124f66ec097ce7bc90715b34b9f10000000006102c6876020015187610aff90919063ffffffff16565b60008064ffffffffff84141561374d57602086015164ffffffffff14613725576000915050610e92565b61373f6113238760a001518561146590919063ffffffff16565b60a08701849052905061375d565b61375a6113238585611465565b90505b6080870151600090613779906301da9c00906102c69085610aff565b9050613785868261102a565b98975050505050505050565b600081121561379f57600080fd5b60006137ad610fee84614566565b90506137b981836118c8565b9050611c4d610fee84836145bf565b60008112156137d657600080fd5b60006137e58361ffff16614633565b905060006137f38285614566565b90506137ff81846118c8565b9050611d1a8285836145bf565b6000613816611b35565b61ffff8516600090815260209190915260408120546001600160a01b0316915061383e614659565b61ffff8616600090815260209190915260409081902054905163ad1c095d60e01b81526001600160a01b039091169150819063ad1c095d906138869089908790600401615a36565b600060405180830381600087803b1580156138a057600080fd5b505af11580156138b4573d6000803e3d6000fd5b505060405163ad1c095d60e01b81526001600160a01b038516925063ad1c095d91506138e69089908890600401615a36565b600060405180830381600087803b15801561390057600080fd5b505af1158015613602573d6000803e3d6000fd5b600061391e611b35565b61ffff8516600090815260209190915260408120546001600160a01b03169150613946614666565b61ffff8616600090815260209190915260409020546001600160a01b03908116915082166323de665187610fee61397c876118de565b6040518463ffffffff1660e01b815260040161399a93929190615a12565b600060405180830381600087803b1580156139b457600080fd5b505af11580156139c8573d6000803e3d6000fd5b50505050816001600160a01b03166323de665187836139e6886118de565b6040518463ffffffff1660e01b81526004016138e693929190615a12565b613a0c615200565b6000613a16614148565b61ffff93841660009081526020918252604090819020805464ffffffffff81168652600160281b81046001600160581b03908116948701949094526001820154841692860192909252600160d81b820463ffffffff166060860152600160801b9091049091166080840152600201546001600160501b0380821660a0850152600160501b8204811660c0850152600160a01b82041660e0840152600160f01b900460ff1661012c02909216610100820152919050565b600080613ad883612fb7565b6001600160a01b031663ef81f2166040518163ffffffff1660e01b81526004016040805180830381600087803b158015613b1157600080fd5b505af1158015613b25573d6000803e3d6000fd5b505050506040513d601f19601f8201168201806040525081019061284d91906156dc565b613b51615200565b6000806000613b61888689614673565b60c08b019290925260e08a019290925260208901519193509150613b859083612507565b6020880152608087015160009015613bb3576080880151613bb090613baa8982611465565b90614784565b90505b613bd3613bc8670de0b6b3a764000083612507565b60a08a0151906147a1565b60a089015250608087018690526000613bea6147be565b61ffff8a1660009081526020919091526040902054885163ffffffff600160a01b90920482169250613c3591613c24908590859061250716565b8a606001518b61010001518a6147cb565b60608901525050928552509294909350915050565b6000613c54614148565b60008561ffff1681526020019081526020016000209050613c788260000151612f83565b815464ffffffffff191664ffffffffff9190911617815560a0820151613c9d906118ed565b6002820180546001600160501b0319166001600160501b039290921691909117905560c0820151613ccd906118ed565b81600201600a6101000a8154816001600160501b0302191690836001600160501b03160217905550613d028260e001516118ed565b8160020160146101000a8154816001600160501b0302191690836001600160501b03160217905550613d378260200151614155565b81546001600160581b0391909116600160281b026fffffffffffffffffffffff0000000000199091161781556040820151613d7190614155565b6001820180546affffffffffffffffffffff19166001600160581b03929092169190911790556080820151613da590614155565b81546001600160581b0391909116600160801b026affffffffffffffffffffff60801b199091161781556060820151613ddd90612f97565b815463ffffffff91909116600160d81b0263ffffffff60d81b199091161781558215613e29576000613e0e84610ae5565b9050613e1a8582613791565b613e27610fee868361328d565b505b8361ffff167fef25641e225e493886510ca1ad6584fa7b442b9fea820a29d1de3ce27d270fd28360a001518460c001518560e00151604051613e6d93929190615d11565b60405180910390a250505050565b600081600013158015613e8e5750600a82125b15613e9b57506000610b4d565b60008212613ea857600080fd5b610ba660016124f685602001516102c66ec097ce7bc90715b34b9f100000000087610aff90919063ffffffff16565b600080610b4d601f612a6d565b6000600383606001516005811115613ef857fe5b1415613f0f57506001600160a01b03811631610b4d565b82516040516370a0823160e01b81526001600160a01b03909116906370a0823190613f3e90859060040161599f565b60206040518083038186803b158015613f5657600080fd5b505afa158015613f6a573d6000803e3d6000fd5b505050506040513d601f19601f82011682018060405250810190611e3b919061585e565b600080846001600160a01b031684846040518082805190602001908083835b60208310613fcc5780518252601f199092019160209182019101613fad565b6001836020036101000a03801982511681845116808217855250505050505090500191505060006040518083038185875af1925050503d806000811461402e576040519150601f19603f3d011682016040523d82523d6000602084013e614033565b606091505b50915091508161404282614859565b906125a95760405162461bcd60e51b81526004018080602001828103825283818151815260200191508051906020019080838360005b83811015614090578181015183820152602001614078565b50505050905090810190601f1680156140bd5780820380516001836020036101000a031916815260200191505b509250505060405180910390fd5b60006140d5612faa565b6001600160a01b038516600090815260208290526040902054909150838111156140fe57600080fd5b600061411561410c86610ae5565b6124f686610ae5565b9050614124610c4383836118c8565b6001600160a01b039096166000908152602093909352505060409020929092555050565b600080610b4d601d612a6d565b60006001600160581b03821115610afb57600080fd5b600081831480614188575060008312158015614188575060008212155b1561419557506000610b4d565b600083131580156141a65750816000125b156141b2575081610b4d565b600082131580156141c35750826000125b156141d157611e3b82610bd9565b600083131580156141e3575060008213155b1561007057611e3b8383613659565b8015611d1a5783516020850151600091614211916102c6908590610aff565b9050610f2b84848484614960565b600061422b838361416b565b9050806142385750610f2b565b6000614242614a94565b61ffff87166000908152602082815260408083208984529091528120549192506001600160501b0390911681039061427a8285613659565b9050600081131561428a57600080fd5b614299610c48610c4383610bd9565b61ffff89166000908152602085815260408083208b8452909152902080546001600160501b0319166001600160501b0392909216919091179055610de789898987614aa1565b60006142e9614b07565b6001600160a01b03851660009081526020918252604080822061ffff87168352909252908120805490925061432e90600160501b90046001600160501b031684613659565b905061433c610c48826118de565b82546001600160501b0391909116600160501b0269ffffffffffffffffffff60501b1990911617825560405161ffff8516906001600160a01b038716907f20478ef460e49d010960d4f3fff35d8dae385443abfac09035d6a2ccbcd834c4906143a6908590615a74565b60405180910390a35050505050565b600080846040015161ffff168361ffff161415614401576143d4612996565b85516001600160a01b031660009081526020918252604080822064ffffffffff835290925220905061443e565b6144096144d7565b85516001600160a01b031660009081526020918252604080822064ffffffffff8352835280822061ffff871683529092522090505b8054610e9290859064ffffffffff906001600160501b0316612817565b6000614465614b07565b6001600160a01b03851660009081526020918252604080822061ffff8716835290925290812080549092506144aa90600160501b90046001600160501b031684613659565b82549091506001600160501b0316811315610f2b5760405162461bcd60e51b815260040161017390615af2565b600080610b4d6018612a6d565b806144ee57610f2b565b600080806144ff878787600a611dde565b90506000841315614516578792506000915061451e565b600092508791505b6001600160a01b0380831690841633600080516020615db98339815191528461454689611b42565b604051614554929190615d03565b60405180910390a45050505050505050565b600080614571614b14565b6001600160a01b03851660009081526020828152604080832061ffff8816845290915281208054600160a81b9004600a90810b900b94509192508312156145b757600080fd5b505092915050565b60008112156145cd57600080fd5b60006145d7614b14565b6001600160a01b03851660009081526020828152604080832061ffff88168452909152902090915061460883614b21565b8154600a9190910b6001600160581b0316600160a81b026001600160a81b0390911617905550505050565b60008061463e614666565b6000938452602052505060409020546001600160a01b031690565b600080610b4d6022612a6d565b600080610b4d6003612a6d565b6000806000806000806146868988614b53565b895190955091935091506000906146ad906146a2908b90611465565b633b9aca0090613689565b90506146e76146dc6301da9c006146c48585613689565b816146cb57fe5b670de0b6b3a7640000919004612507565b60e08a0151906147a1565b96506147096146fe6301da9c006146c48785613689565b60c08a0151906147a1565b95508183141561472057506000935061477b915050565b60006147426147376301da9c006146c48786613689565b60e08b0151906147a1565b905060006147508983611465565b90506147738861476d838d6040015161368990919063ffffffff16565b90614bee565b965050505050505b93509350935093565b6000610ba661479b84670de0b6b3a7640000613689565b83614bee565b6000610ba66147b08484613689565b670de0b6b3a7640000614bee565b600080610b4d6025612a6d565b60008083116147d957600080fd5b818611156147e8575083610e92565b60006147f48388611465565b9050838111156148075785915050610e92565b60006148138286614c0d565b90506000614825633b9aca0083611465565b905061484c633b9aca0061476d61483c8a85613689565b6148468c87613689565b90612507565b9998505050505050505050565b606060448251101561488f575060408051808201909152600d81526c14da5b195b9d0814995d995c9d609a1b6020820152610972565b60048201805190926024019060208110156148a957600080fd5b81019080805160405193929190846401000000008211156148c957600080fd5b9083019060208201858111156148de57600080fd5b82516401000000008111828201881017156148f857600080fd5b82525081516020918201929091019080838360005b8381101561492557818101518382015260200161490d565b50505050905090810190601f1680156149525780820380516001836020036101000a031916815260200191505b506040525050509050919050565b600061496a614148565b61ffff8516600090815260209190915260409020805490915064ffffffffff16421461499557600080fd5b8054600160f81b900460ff166149aa57600080fd5b60018101546000906149c5906001600160581b0316856118c8565b82549091506000906149e790600160281b90046001600160581b0316856118c8565b9050816009191280156149fa5750600082125b15614a0457600091505b80600919128015614a155750600081125b15614a1e575060005b614a2a613391836118de565b6001840180546affffffffffffffffffffff19166001600160581b0392909216919091179055614a5c613391826118de565b83546001600160581b0391909116600160281b026fffffffffffffffffffffff000000000019909116178355610d438787868861380c565b600080610b4d6020612a6d565b600080614aaf858585614c20565b915091506000806000851215614ac757879150614aca565b50865b806001600160a01b0316826001600160a01b0316336001600160a01b0316600080516020615d998339815191528787604051614554929190615a4f565b600080610b4d6017612a6d565b600080610b4d6006612a6d565b60006a7fffffffffffffffffffff198212801590614b4a57506a7fffffffffffffffffffff8213155b610afb57600080fd5b600080600080600085602001511115614ba057614b9d614b848660c00151876020015161368990919063ffffffff16565b60e08701516040880151614b9791613689565b90614c0d565b90505b6000614bab87614d05565b9050614bb78183614d38565b94508115614bce57614bcb81866001614deb565b93505b602086015115614be557614be28583614e65565b92505b50509250925092565b6000808211614bfc57600080fd5b818381614c0557fe5b049392505050565b6000610ba661479b84633b9aca00613689565b604080516002808252606082810190935282916000918160200160208202803683370190505090506000614c548787614e7e565b90508082600081518110614c6457fe5b602002602001018181525050600160401b811782600181518110614c8457fe5b602090810291909101015260408051600280825260608201909252600091816020016020820280368337019050509050614cbd86611b42565b81600081518110614cca57fe5b602002602001018181525050614cdf86611b42565b81600181518110614cec57fe5b6020908102919091010152919791965090945050505050565b614d0d61524c565b6000614d17614e9c565b61ffff8416600090815260209190915260408120549150610ba69082614ea9565b600080836080015111614d4a57600080fd5b633b9aca00821115614d5b57600080fd5b82518211614d7a5782516040840151611e3b919061476d908590613689565b82602001518211614db2576040830151835160208501516060860151611e3b9392614846928190039161476d91880390859003613689565b610ba683606001516148468560200151633b9aca000361476d87606001518860800151038860200151880361368990919063ffffffff16565b600080614e0a606461476d8760e001518761368990919063ffffffff16565b90508460a00151811015614e1f575060a08401515b8460c00151811115614e32575060c08401515b8215614e4957614e428482612507565b9150614e5d565b838111614e5857808403610e92565b600091505b509392505050565b6000610ba6614e748484613689565b633b9aca00614bee565b67ffff000000000000603083901b16600882901b1760011792915050565b600080610b4d601b612a6d565b614eb161524c565b6064633b9aca008360ff861660208110614ec757fe5b1a0281614ed057fe5b0481526064633b9aca008360ff861660010160208110614eec57fe5b1a0281614ef557fe5b04816020018181525050614f1a8260028560ff160160208110614f1457fe5b1a614fc8565b60808201819052610100908360ff861660030160208110614f3757fe5b1a0281614f4057fe5b0460408201526080810151610100908360ff861660040160208110614f6157fe5b1a0281614f6a57fe5b0460608201526207a1208260ff851660050160208110614f8657fe5b1a0260a0820152622625a08260ff851660060160208110614fa357fe5b1a0260c08201528160ff841660070160208110614fbc57fe5b1a60e082015292915050565b60008160ff16609610614fe35760ff8216622625a00261096f565b5060951960ff919091160162e4e1c00263165a0bc00190565b60405180606001604052806000815260200160008152602001600081525090565b604051806101e0016040528060006001600160a01b03168152602001600061ffff168152602001600061ffff16815260200160008152602001600081526020016000815260200160008152602001600081526020016000815260200160008152602001615088615291565b8152602001615095614ffc565b8152602001600081526020016150a9615291565b8152602001600081525090565b6040518060c0016040528060008152602001600081526020016000815260200160006001600160a01b0316815260200160008152602001600081525090565b60405180608001604052806000815260200160008152602001600081526020016000151581525090565b60405180604001604052806002905b615136614ffc565b81526020019060019003908161512e5790505090565b6040805160c0810182526000808252602082015290810161516b614ffc565b8152602001615178614ffc565b815260200160008152602001600081525090565b6040805160a0810182526000808252602082018190529181018290529060608201906150a9565b6040518060a0016040528060008152602001600081526020016000815260200160008152602001600081525090565b60405180602001604052806001906020820280368337509192915050565b6040518061012001604052806000815260200160008152602001600081526020016000815260200160008152602001600081526020016000815260200160008152602001600081525090565b60405180610100016040528060008152602001600081526020016000815260200160008152602001600081526020016000815260200160008152602001600081525090565b60405180604001604052806002906020820280368337509192915050565b805161097281615d80565b600082601f8301126152ca578081fd5b815160206152df6152da83615d62565b615d3e565b82815281810190858301838502870184018810156152fb578586fd5b855b8581101561532257815161531081615d80565b845292840192908401906001016152fd565b5090979650505050505050565b6000601f8381840112615340578182fd5b825160206153506152da83615d62565b82815281810190868301865b858110156153f557815189018a603f820112615376578889fd5b8581015167ffffffffffffffff81111561538c57fe5b61539d818a01601f19168801615d3e565b81815260408d818486010111156153b2578b8cfd5b8b5b838110156153cf578481018201518382018b015289016153b4565b838111156153df578c8a85850101525b505086525050928401929084019060010161535c565b509098975050505050505050565b600082601f830112615413578081fd5b6040516060810181811067ffffffffffffffff8211171561543057fe5b604052808360608101861015615444578384fd5b835b6003811015615465578151835260209283019290910190600101615446565b509195945050505050565b80516001600160501b038116811461097257600080fd5b600080600080600060a0868803121561549e578081fd5b85356154a981615d80565b945060208601356154b981615d80565b935060408601356154c981615d80565b9250606086013561ffff811681146154df578182fd5b949793965091946080013592915050565b600080600080600060a08688031215615507578283fd5b853561551281615d80565b9450602086013561552281615d80565b9350604086013561553281615d80565b94979396509394606081013594506080013592915050565b60008060008060008060c08789031215615562578384fd5b863561556d81615d80565b9550602087013561557d81615d80565b9450604087013561558d81615d80565b959894975094956060810135955060808101359460a0909101359350915050565b600060208083850312156155c0578182fd5b825167ffffffffffffffff808211156155d7578384fd5b818501915085601f8301126155ea578384fd5b81516155f86152da82615d62565b81815284810190848601875b848110156156ad57815187016080818d03601f1901121561562357898afd5b60408051608081018181108a8211171561563957fe5b8252828b01518981111561564b578c8dfd5b6156598f8d838701016152ba565b825250818301518981111561566c578c8dfd5b61567a8f8d8387010161532f565b8c83015250606083015182820152615694608084016152af565b6060820152865250509287019290870190600101615604565b50909998505050505050505050565b6000602082840312156156cd578081fd5b81518015158114610ba6578182fd5b600080604083850312156156ee578182fd5b505080516020909101519092909150565b600080600083850360a0811215615714578182fd5b84519350602085015192506060603f1982011215615730578182fd5b506040516060810181811067ffffffffffffffff8211171561574e57fe5b8060405250604085015181526060850151602082015260808501516040820152809150509250925092565b600080600083850361018080821215615790578283fd5b60c082121561579d578283fd5b60405191506080820182811067ffffffffffffffff821117156157bc57fe5b80604052508551825260208087015181840152604087015160408401526157e68860608901615403565b60608401528295506157fb8860c08901615403565b94508761013f88011261580c578384fd5b6158166060615d3e565b925082610120880189848a01111561582c578586fd5b8593505b600384101561584f578051855293820193600193909301928201615830565b50809450505050509250925092565b60006020828403121561586f578081fd5b5051919050565b600080600080600060a0868803121561588d578283fd5b61589686615470565b94506020860151935060408601519250606086015191506158b960808701615470565b90509295509295909350565b6001600160a01b03169052565b8060005b6002811015611d1a5781518452602093840193909101906001016158d6565b8060005b6002811015611d1a57815161ffff168452602093840193909101906001016158f9565b6000815180845260208085019450808401835b8381101561594b5781518752958201959082019060010161592f565b509495945050505050565b8051825260208082015190830152604090810151910152565b8051825260208101516020830152604081015160408301526060810151151560608301525050565b61ffff169052565b6001600160a01b0391909116815260200190565b6001600160a01b0392831681529116602082015260400190565b6001600160a01b039788168152958716602087015293909516604085015261ffff919091166060840152608083015260a082019290925260c081019190915260e00190565b6001600160a01b039384168152919092166020820152604081019190915260600190565b6001600160a01b03929092168252602082015260400190565b600060408252615a62604083018561591c565b8281036020840152610e92818561591c565b90815260200190565b6020808252600b908201526a4554482042616c616e636560a81b604082015260600190565b60208082526011908201527009ac2e8eae4d2e8f2409ad2e6dac2e8c6d607b1b604082015260600190565b6020808252600b908201526a4d75737420536574746c6560a81b604082015260600190565b6020808252600c908201526b4d617820436170616369747960a01b604082015260600190565b6020808252600a90820152696d696e20626f72726f7760b01b604082015260600190565b6020808252600e908201526d1499595b9d1c985b9d0818d85b1b60921b604082015260600190565b6020808252600a90820152694d696e20426f72726f7760b01b604082015260600190565b61ffff9390931683526020830191909152604082015260600190565b60006103e08201905061ffff8716825285516020830152602086015160408301526040860151606083015260018060a01b036060870151166080830152608086015160a083015260a086015160c0830152615c0360e0830186516158c5565b6020850151610100615c1781850183615997565b60408701519150610120615c2d81860184615997565b60608801519250610140838187015260808901519350610160848188015260a08a01519450610180858189015260c08b015195506101a086818a015260e08c015196506101c087818b0152868d01516101e08b0152858d01516102008b0152848d01519750615ca06102208b01896158f5565b838d01519750615cb46102608b0189615956565b828d01516102c08b0152818d01519750615cd26102e08b01896158d2565b808d01516103208b01525050505050505050615cf261034083018561596f565b826103c08301529695505050505050565b918252602082015260400190565b9283526020830191909152604082015260600190565b9182526001600160501b0316602082015260400190565b60405181810167ffffffffffffffff81118282101715615d5a57fe5b604052919050565b600067ffffffffffffffff821115615d7657fe5b5060209081020190565b6001600160a01b0381168114615d9557600080fd5b5056fe4a39dc06d4c0dbc64b70af90fd698a233a518aa5d07e595d983b8c0526c8f7fbc3d58168c5ae7397731d063d5bbf3d657854427343f4c083240f7aacaa2d0f62a26469706673582212201de3a69000076c776a371d9eec0d66fcea05bc80c8947700c0d71eb4ae27aef564736f6c63430007060033","bytecodeSha1":"7a10387074ff5a53ef64cd7a358576d1b50bbdb9","compiler":{"evm_version":"istanbul","optimizer":{"enabled":true,"runs":200},"version":"0.7.6+commit.7338295f"},"contractName":"VaultLiquidationAction","deployedBytecode":"6080604052600436106100705760003560e01c80638da5cb5b1161004e5780638da5cb5b146100d55780639ab77186146100ea578063c4c96dae1461010a578063fcaf198b1461012d57610070565b806321bf8c661461007557806324a3d6221461009e57806382463367146100c0575b600080fd5b61008861008336600461554a565b61014e565b6040516100959190615a74565b60405180910390f35b3480156100aa57600080fd5b506100b3610411565b604051610095919061599f565b3480156100cc57600080fd5b506100b3610420565b3480156100e157600080fd5b506100b361042f565b3480156100f657600080fd5b506100886101053660046154f0565b610446565b34801561011657600080fd5b5061011f6105e9565b6040516100959291906159b3565b61014061013b366004615487565b610617565b604051610095929190615d03565b60006002600a54141561017c5760405162461bcd60e51b815260040161017390615b3c565b60405180910390fd5b6002600a5560008061018f898989610808565b509150915061019d82610948565b6101a657600080fd5b60006101b183610977565b60405163b14428b960e01b8152909150600090309063b14428b9906101dc908e908e906004016159b3565b6101806040518083038186803b1580156101f557600080fd5b505afa158015610209573d6000803e3d6000fd5b505050506040513d601f19601f8201168201806040525081019061022d9190615779565b505090508060600151886003811061024157fe5b602002015160001261025257600080fd5b60008160600151886003811061026457fe5b60200201511261027357600080fd5b600061028185848b8b6109d7565b9050600061028e88610ae5565b90506102d76102cc60646102c685608001516102c68760a001516102c08d6101c0015189610aff90919063ffffffff16565b90610aff565b90610b53565b604084015190610b84565b96508683606001518b600381106102ea57fe5b602002015112156103445782606001518a6003811061030557fe5b602002015196506103418260a001516102c6886101c001516102c660646102c088608001516102c08f8b60400151610bad90919063ffffffff16565b90505b60608201516000906103569083610b84565b9050600061036389610bd9565b905061037387898e846000610be7565b61038187898d856000610be7565b6103918e8e86600001518c610d4c565b6103a78d85600001518387604001516000610df2565b506103bd8f8f86600001518a6020015185610e9b565b6103d38d85602001518487606001516000610f32565b506103e48d8f866020015185610d4c565b6103f98f8f86602001518a6020015186610e9b565b50506001600a5550949b9a5050505050505050505050565b6002546001600160a01b031681565b6001546001600160a01b031681565b60005464010000000090046001600160a01b031681565b60006002600a54141561046b5760405162461bcd60e51b815260040161017390615b3c565b6002600a556000808061047f898989610808565b925092509250600061048f614ffc565b600080896104b257505050506040830151610160840151835160808501516104d1565b60038a1015610070576104c6878b8f610f90565b929650909450925090505b602086015160405163f82f279d60e01b81526000918291309163f82f279d91610500918a918890600401615b88565b604080518083038186803b15801561051757600080fd5b505afa15801561052b573d6000803e3d6000fd5b505050506040513d601f19601f8201168201806040525081019061054f91906156dc565b90925090506105686105618c8361102a565b8690610b84565b9950828a131561057957819a508299505b5050886000128015610593575061058f82610bd9565b8913155b61059c57600080fd5b6105aa868c8e878d8d611043565b6105ba878688868e8e60006111b6565b6105d3878b6105c88b610bd9565b899291906000610be7565b50506001600a5550939998505050505050505050565b73__$841fddfe32830bb6dbc3a02d7f16c53722$__73__$f6541b0d362a0c7d99a2a29cd3d373d61b$__9091565b6000806002600a54141561063d5760405162461bcd60e51b815260040161017390615b3c565b6002600a55600361ffff85161061065357600080fd5b60008060006106638a8a8a610808565b925092509250610671614ffc565b604051630c74db1f60e41b8152309063c74db1f09061069c908b908790899088908e90600401615ba4565b60a060405180830381600087803b1580156106b657600080fd5b505af11580156106ca573d6000803e3d6000fd5b505050506040513d601f19601f820116820180604052508101906106ee91906156ff565b919850965090506000871361070257600080fd5b6040840151600161ffff8a16141561072157506101408401515161073a565b8861ffff166002141561073a5750610140840151602001515b60006107498261ffff1661123a565b90506107628b8361075a848d61124d565b866000611285565b9050809750506107908b8e8e8588600001518f61ffff16600014610787576000610789565b8c5b8e8a611347565b604085015161079f9089611465565b6040860152602085015164ffffffffff14156107ce576107c9868587868e61ffff168e60016111b6565b600096505b6107e0858761ffff8d168a6001610be7565b6107f08b878a886020015161147a565b5050505050506001600a819055509550959350505050565b61081061501d565b6108186150b6565b6108206150f5565b610829846114e3565b846001600160a01b0316846001600160a01b0316141561084857600080fd5b6001600160a01b03861633141561085e57600080fd5b836001600160a01b0316866001600160a01b0316141561087d57600080fd5b61088685611562565b92506108948361010061158d565b1561089e57600080fd5b6108a983602061158d565b156108c857336001600160a01b038616146108c357600080fd5b6108dd565b336001600160a01b038516146108dd57600080fd5b6108e786846115a2565b91508160200151421061090c5760405162461bcd60e51b815260040161017390615acd565b602082015164ffffffffff141561092e576109278284611651565b905061093f565b61093c838360200151611696565b90505b93509350939050565b6101408101515160009061ffff1615158061096f57506101408201516020015161ffff1615155b90505b919050565b61097f61511f565b6101408201515161ffff16156109a9576101408201516109a69060005b6020020151611721565b81525b6101408201516020015161ffff1615610972576101408201516109cd90600161099c565b6020820152919050565b6109df61514c565b826109ff5760408086015161ffff16825261016086015190820152610a39565b8461014001516001840360028110610a1357fe5b602002015161ffff16815283600019840160028110610a2e57fe5b602002015160408201525b81610a5c57604085015161ffff1660208201526101608501516060820152610a9d565b8461014001516001830360028110610a7057fe5b6020908102919091015161ffff169082015283600019830160028110610a9257fe5b602002015160608201525b6000610ab0826000015161ffff16611733565b90506000610ac5836020015161ffff16611733565b9050610ad18282611896565b6080840152505160a0820152949350505050565b60006001600160ff1b03821115610afb57600080fd5b5090565b818102600019831415610b2f57811580610b21575082828281610b1e57fe5b05145b610b2a57600080fd5b610b4d565b821580610b44575081838281610b4157fe5b05145b610b4d57600080fd5b92915050565b600081600019148015610b695750600160ff1b83145b15610b7357600080fd5b818381610b7c57fe5b059392505050565b8151600090610ba6906102c6846ec097ce7bc90715b34b9f1000000000610aff565b9392505050565b6000610ba66ec097ce7bc90715b34b9f10000000006102c6856000015185610aff90919063ffffffff16565b600061096f60001983610aff565b6000610bf16118bb565b60608701516001600160a01b039081166000908152602083815260408083208a5190941683529290522090915084610c74576001810154610c4d90610c4890610c43906001600160501b0316876118c8565b6118de565b6118ed565b6001820180546001600160501b0319166001600160501b0392909216919091179055610d2a565b8460011415610cd1576001810154610ca490610c4890610c4390600160501b90046001600160501b0316876118c8565b81600101600a6101000a8154816001600160501b0302191690836001600160501b03160217905550610d2a565b8460021415610070576001810154610d0190610c4890610c4390600160a01b90046001600160501b0316876118c8565b8160010160146101000a8154816001600160501b0302191690836001600160501b031602179055505b6000876080018181525050610d43878783866000611903565b50505050505050565b6000610d56611b35565b61ffff8416600090815260209190915260408120546001600160a01b03169150821215610d81579293925b806001600160a01b03166323de66518686610d9b86611b42565b6040518463ffffffff1660e01b8152600401610db993929190615a12565b600060405180830381600087803b158015610dd357600080fd5b505af1158015610de7573d6000803e3d6000fd5b505050505050505050565b600083610e0157506000610e92565b60008412610e0e57600080fd5b6000610e1d8661ffff1661123a565b9050610e3281610e2d8688610bad565b61124d565b91506000610e3f83610bd9565b9050610e4c878383611b63565b600382606001516005811115610e5e57fe5b1415610e7457610e6f888286611c52565b610e81565b8151610e81908983611d20565b610e8e8888858589611d97565b5050505b95945050505050565b80610ea557610f2b565b6000610eb4858585600b611dde565b90506000806000841215610ecd57508690506000610ed4565b5060009050865b6000610edf85611b42565b9050816001600160a01b0316836001600160a01b0316336001600160a01b0316600080516020615db98339815191528785604051610f1e929190615d03565b60405180910390a4505050505b5050505050565b600083610f4157506000610e92565b60008413610f4e57600080fd5b6000610f5d8661ffff1661123a565b90506000610f7482610f6f8789610bad565b611e14565b9050610f838888838888611285565b5098975050505050505050565b6000610f9a614ffc565b6000806000610fa888610977565b9050600080610fb88a8985611e51565b9250925050600080610fce8a8d60000151611ee5565b915091508b610140015160018c0360028110610fe657fe5b602002015198508460018c0360028110610ffc57fe5b602002015197508a600114611012578281611015565b83825b999d989c509a50979850959650505050505050565b6000610ba66110398484610aff565b633b9aca00610b53565b606086015160208701516040516351586b3360e01b815260009273__$f6541b0d362a0c7d99a2a29cd3d373d61b$__926351586b3392611090928b928b928b91908b908b906004016159cd565b60206040518083038186803b1580156110a857600080fd5b505af41580156110bc573d6000803e3d6000fd5b505050506040513d601f19601f820116820180604052508101906110e091906156bc565b9050801561115057604051636ccc642f60e01b815273__$841fddfe32830bb6dbc3a02d7f16c53722$__90636ccc642f9061111f90899060040161599f565b60006040518083038186803b15801561113757600080fd5b505af415801561114b573d6000803e3d6000fd5b505050505b856001600160a01b031687606001516001600160a01b0316866001600160a01b03167f19b09f1f990520654bea0360dd08a2678d6926fd849dd49bc385862dc91af7538787876040516111a593929190615b88565b60405180910390a450505050505050565b826111d7576111c88587846000611f3b565b6111d28688611fcb565b610d43565b6111df61511f565b848160018603600281106111ef57fe5b6020020181905250611230888760600151886020015187600114611214576000611216565b865b88600214611225576000611227565b875b86886000612074565b5050505050505050565b61124261518c565b61096f8260016122a6565b60006305f5e10083604001511415611266575080610b4d565b610ba66305f5e1006102c6856040015185610aff90919063ffffffff16565b6000806000611293866118de565b9050806112a757600080925092505061133d565b60006112b68861ffff1661123a565b90506003816060015160058111156112ca57fe5b141561131157348210156112ea576112e58983340387611c52565b611309565b3482146113095760405162461bcd60e51b815260040161017390615a7d565b86935061132b565b61132861132382600001518b85612340565b610ae5565b93505b611338898986848a611d97565b925050505b9550959350505050565b61135388878786610d4c565b60006113628787876000611dde565b905064ffffffffff8514156113e257600061138d6113888461138388610bd9565b6124c8565b610bd9565b905080600019141561139d575060005b60006001600160a01b038a1633600080516020615db9833981519152600a86176113c6866118de565b6040516113d4929190615d03565b60405180910390a450611422565b6001600160a01b038816600033600080516020615db9833981519152600b851761140b896118de565b604051611419929190615d03565b60405180910390a45b886001600160a01b0316886001600160a01b0316336001600160a01b0316600080516020615db9833981519152600960ff16851787604051610f1e929190615d03565b60008282111561147457600080fd5b50900390565b600061148685856115a2565b905080602001516000148061149e5750818160200151145b6114ba5760405162461bcd60e51b815260040161017390615aa2565b6020810182905260408101516114d09084612507565b6040820152610f2b818560016000612519565b6001600160a01b0381166114f657600080fd5b6001600160a01b038116610fee141561150e57600080fd5b6001600160a01b0381166105e7141561152657600080fd5b6001600160a01b03811630141561153c57600080fd5b6000611547826125b1565b5050505061ffff1690508060001461155e57600080fd5b5050565b61156a61501d565b6115738261261d565b90506115828160400151611721565b610160820152919050565b60209190910151811661ffff90811691161490565b6115aa6150b6565b60006115b46118bb565b6001600160a01b038086166000818152602084815260408083208951909516835293815290839020805464ffffffffff600160a01b8204169288018390526001600160501b03600160501b8204811695890195909552606088019390935260018101548416608088015263ffffffff600160c81b84041660a08801526101608801519495509361164693909216612817565b835250909392505050565b6116596150f5565b61168b8361167c6113888660000151866101600151610b8490919063ffffffff16565b60208601518592919042612855565b50610ba6838361291e565b61169e6150f5565b60006116a8612996565b84516001600160a01b031660009081526020828152604080832087845290915290819020858552805460ff600160f01b820416151560608701526001600160501b03600160a01b82048116938701939093526101608801519394509092611713929091879116612817565b602084015250909392505050565b611729614ffc565b61096f82426129a3565b61173b6151b3565b6000611745612a64565b60008481526020829052604081209192508060018614156117725750670de0b6b3a7640000905080611835565b825460408051633fabe5a360e21b815290516001600160a01b039092169163feaf968c9160048082019260a092909190829003018186803b1580156117b657600080fd5b505afa1580156117ca573d6000803e3d6000fd5b505050506040513d601f19601f820116820180604052508101906117ee9190615876565b5091935050600083139150611804905057600080fd5b825460ff600160a01b82048116600a0a9350600160a81b909104161561183557611832816102c68480610aff565b90505b8254600160b01b900460ff1660968113156118555760951901600a026096015b6040805160a081018252938452602084019290925290820152905460ff600160b81b820481166060840152600160c01b909104166080820152915050919050565b6000610ba682602001516102c684600001518660200151610aff90919063ffffffff16565b600080610b4d6016612a6d565b81810182811215600083121514610b4d57600080fd5b600080821215610afb57600080fd5b60006001600160501b03821115610afb57600080fd5b60808501511561191257600080fd5b6060840151855161192290610bd9565b12801561192c5750815b15611960578451158061194457506001856040015111155b6119605760405162461bcd60e51b815260040161017390615b64565b61196984610948565b156119cc576000611978612a86565b60608701516001600160a01b03908116600090815260209283526040808220895190931682529183522080549188015190925064ffffffffff909116908114806119c0575080155b6119c957600080fd5b50505b60006119ec610c4361138887610160015189602001518a60000151612a93565b90508115611a75576040805160e08101825285546001600160501b038082168352600160501b80830482166020850152600160a01b80840464ffffffffff1695850195909552600160c81b90920463ffffffff16606084015260018801548082166080850152918204811660a084015292900490911660c0820152611a75908790879084612ab1565b611a8286604001516118ed565b84546001600160501b0391909116600160501b0269ffffffffffffffffffff60501b199091161784556020860151611ab990612f83565b845464ffffffffff91909116600160a01b0264ffffffffff60a01b1990911617845560a0860151611ae990612f97565b845463ffffffff91909116600160c81b0263ffffffff60c81b19909116178455611b12816118ed565b84546001600160501b0319166001600160501b0391909116179093555050505050565b600080610b4d6021612a6d565b600080821215611b5c57611b5582610bd9565b9050610972565b5080610972565b6000611b6d612faa565b83516001600160a01b0316600090815260208290526040902054909150808311611b98575050611c4d565b6000611ba386612fb7565b90506000816001600160a01b031663b5e4da23866040518263ffffffff1660e01b8152600401611bd39190615a74565b60006040518083038186803b158015611beb57600080fd5b505afa158015611bff573d6000803e3d6000fd5b505050506040513d6000823e601f3d908101601f19168201604052611c2791908101906155ae565b90506000611c358783612fe7565b9050611c418482612507565b86111561123057600080fd5b505050565b8015611ce4577382af49447d8a07e3bd95bd0d56f35241523fbab16001600160a01b031663d0e30db0836040518263ffffffff1660e01b81526004016000604051808303818588803b158015611ca757600080fd5b505af1158015611cbb573d6000803e3d6000fd5b5050505050611cdf7382af49447d8a07e3bd95bd0d56f35241523fbab18484611d20565b611c4d565b6040516001600160a01b0384169083156108fc029084906000818181858888f19350505050158015611d1a573d6000803e3d6000fd5b50505050565b826001600160a01b031663a9059cbb83836040518363ffffffff1660e01b815260040180836001600160a01b0316815260200182815260200192505050600060405180830381600087803b158015611d7757600080fd5b505af1158015611d8b573d6000803e3d6000fd5b50505050611c4d6131f0565b600080611da4848661325d565b9050611db08382610b84565b9150611dbd87878461328d565b611dc886838361330d565b8351611dd49086613400565b5095945050505050565b68010000000000000000600160e01b03604085901b1667ffff000000000000603085901b1617600883901b178117949350505050565b60006305f5e10083604001511215611e4257611e3b6001611e35858561124d565b906118c8565b9050610b4d565b610ba683610e2d8460016118c8565b600080600080611e5f612a86565b6001600160a01b038781166000908152602092835260408082208b5190931682529190925290208054865164ffffffffff82169650919250611eb391908690600160281b90046001600160501b0316612817565b9250611ed9856001602002015182548690600160781b90046001600160501b0316612817565b91505093509350939050565b6000806000611ef26118bb565b6001600160a01b0395861660009081526020918252604080822096909716815294905250505020600101546001600160501b03600160501b8204811692600160a01b9092041690565b8251602085015114611f5357835115611f5357600080fd5b6080840151611f6290826118c8565b60808501528351611f7390836118c8565b80855260001215611f8357600080fd5b6020830151611f9290836118c8565b602084018190526000128015611fac5750600a8360200151125b15611fb957600060208401525b600083602001511315611d1a57600080fd5b6000611fd5612996565b82516001600160a01b03166000908152602082815260408083208751845290915290819020908501519192509061200b906118ed565b81546060860151801515600160f01b0260ff60f01b196001600160501b0394909416600160a01b0269ffffffffffffffffffff60a01b199093169290921792909216178255610160840151604085015186516020880151611d1a94869493899390929091613455565b600061207e612a86565b6001600160a01b03808a166000908152602092835260408082208d519093168252919092529020805490915064ffffffffff16878114806120bd575080155b6120c657600080fd5b845182546000916120e8918b90600160281b90046001600160501b0316612817565b90506000612110876001602002015185548c90600160781b90046001600160501b0316612817565b9050881561219857612122828a6118c8565b91506121518c8c8e610140015160006002811061213b57fe5b60200201518d8d8c60005b60200201518b613534565b61216c610c48610c436113888a600060200201518e87612a93565b84546001600160501b0391909116600160281b026effffffffffffffffffff0000000000199091161784555b8715612215576121a881896118c8565b90506121d08c8c8e61014001516001600281106121c157fe5b60200201518d8c8c6001612146565b6121eb610c48610c436113888a600160200201518e86612a93565b84546001600160501b0391909116600160781b0269ffffffffffffffffffff60781b199091161784555b85156122845781158061223257506101a08c015151600083900312155b61224e5760405162461bcd60e51b815260040161017390615b18565b80158061226857506101a08c015160200151600082900312155b6122845760405162461bcd60e51b815260040161017390615b18565b6122988483836122938e612f83565b61360e565b505050505050505050505050565b6122ae61518c565b60006122b861364c565b6000858152602082815260408083208715158452825291829020825160a08101845281546001600160a01b038116825260ff600160a01b82048116151594830194909452600160b01b81048416600a0a9482019490945293945092916060830191600160a81b90910416600581111561232d57fe5b8152600060209091015295945050505050565b600080846001600160a01b03166370a08231306040518263ffffffff1660e01b815260040180826001600160a01b0316815260200191505060206040518083038186803b15801561239057600080fd5b505afa1580156123a4573d6000803e3d6000fd5b505050506040513d60208110156123ba57600080fd5b5051604080516323b872dd60e01b81526001600160a01b038781166004830152306024830152604482018790529151929350908716916323b872dd9160648082019260009290919082900301818387803b15801561241757600080fd5b505af115801561242b573d6000803e3d6000fd5b505050506124376131f0565b6000856001600160a01b03166370a08231306040518263ffffffff1660e01b815260040180826001600160a01b0316815260200191505060206040518083038186803b15801561248657600080fd5b505afa15801561249a573d6000803e3d6000fd5b505050506040513d60208110156124b057600080fd5b505190506124be8183611465565b9695505050505050565b600080821215612501576124fc60016124f685602001516102c6876000015187610aff90919063ffffffff16565b90613659565b610ba6565b50919050565b600082820183811015610ba657600080fd5b60006125236118bb565b60608601516001600160a01b03908116600090815260208381526040808320895190941683529290522090915061255d8686838787611903565b6001810180546001600160501b03191690819055600160501b90046001600160501b03161580156125a057506001810154600160a01b90046001600160501b0316155b6125a957600080fd5b505050505050565b6000806000806000806125c261366f565b6001600160a01b039097166000908152602097909752505060409094205461ffff81169563ffffffff620100008304811696506601000000000000830416945060ff600160501b8304169350600160581b90910460d81b9150565b61262561501d565b600061262f61367c565b6001600160a01b03841660008181526020838152604091829020928652825461ffff8082169288019290925262010000810490911691860191909152919250906126909063ffffffff6401000000009091048116906305f5e10090610aff16565b606084015280546126ae90600160501b900460ff166207a120613689565b608084015280546126cd90600160401b900461ffff16620186a0613689565b60a084015280546126ec90600160701b900461ffff16620186a0613689565b61012084015260028101546127089061ffff16620186a0613689565b610180840152805460649060ff600160581b90910416633b9aca00020560c08401528054600160601b810460ff90811660e0860152600160681b909104166101008401526040805180820191829052906001830190600290826000855b82829054906101000a900461ffff1661ffff1681526020019060020190602082600101049283019260010382029150808411612765575050505050610140850191909152506127e06305f5e1006003830160005b60088104919091015460079091166004026101000a900463ffffffff9081169190610aff16565b6101a0840151526127fa6305f5e1006003830160016127b9565b6101a0840151602001526004015460ff166101c083015250919050565b600064ffffffffff831461283757816001600160501b031660000361284d565b61284d846001600160501b0384166000036136b0565b949350505050565b600061286486868686866136fb565b9050600061288460646102c68960e0015185610aff90919063ffffffff16565b905060006128928383613659565b90506128a2886040015183613791565b6128b08860400151826137c8565b64ffffffffff8514156128e8576128e888600001518960400151856128e3878d61016001516124c890919063ffffffff16565b61380c565b6128fc886000015189604001518385613914565b608087015161290b9084613659565b6080909701969096525095945050505050565b6129266150f5565b602083015164ffffffffff1461293b57600080fd5b61294a8264ffffffffff611696565b905060008360800151121561298c5761298c838261297a8660800151866101600151610bad90919063ffffffff16565b6129878760800151610bd9565b611f3b565b610b4d8183611fcb565b600080610b4d6015612a6d565b6129ab614ffc565b60006129b684613a04565b905082816000015110156129f5576000806129d086613acc565b90506129de86848388613b49565b90935091506129ee868385613c4a565b5050612a02565b80518314612a0257600080fd5b6040518060600160405280612a2b6113238460a001518560c0015161368990919063ffffffff16565b8152602001612a4e6113238460a001518560e0015161368990919063ffffffff16565b8152602001826060015181525091505092915050565b600080610b4d60105b6000620f4240826026811115612a7f57fe5b0192915050565b600080610b4d601a612a6d565b600064ffffffffff8314612aa7578161284d565b61284d8483613e7b565b6040805160028082526060820183526000926020830190803683375050604080516002808252606082018352939450600093909250906020830190803683370190505090506000612b1886600001518760400151876040015164ffffffffff166000611dde565b9050600a60ff16811783600081518110612b2e57fe5b602002602001018181525050600960ff16811783600181518110612b4e57fe5b602002602001018181525050866020015160001480612b915750604085015164ffffffffff1615801590612b9157508660200151856040015164ffffffffff1614155b15612c335784600001516001600160501b031682600081518110612bb157fe5b60200260200101818152505084602001516001600160501b031682600181518110612bd857fe5b60200260200101818152505060006001600160a01b031687606001516001600160a01b0316336001600160a01b0316600080516020615d998339815191528686604051612c26929190615a4f565b60405180910390a4612e30565b846040015164ffffffffff1687602001511415612e305784516000906001600160501b0316851080612c75575085602001516001600160501b03168860400151105b90508015612d455785516001600160501b03168510612c95576000612ca4565b85516001600160501b03168590035b83600081518110612cb157fe5b602002602001018181525050612ce1886040015187602001516001600160501b031661146590919063ffffffff16565b83600181518110612cee57fe5b60200260200101818152505060006001600160a01b031688606001516001600160a01b0316336001600160a01b0316600080516020615d998339815191528787604051612d3c929190615a4f565b60405180910390a45b801580612d5b575085516001600160501b031685115b15612e2e578551612d769086906001600160501b0316611465565b83600081518110612d8357fe5b602002602001018181525050876040015186602001516001600160501b031610612dae576000612dca565b60208601516040890151612dca916001600160501b0316611465565b83600181518110612dd757fe5b60200260200101818152505087606001516001600160a01b031660006001600160a01b0316336001600160a01b0316600080516020615d998339815191528787604051612e25929190615a4f565b60405180910390a45b505b602087015115801590612e5257508660200151856040015164ffffffffff1614155b15612f3557612e708660000151876040015189602001516000611dde565b9050600a60ff16811783600081518110612e8657fe5b602002602001018181525050600960ff16811783600181518110612ea657fe5b6020026020010181815250508382600081518110612ec057fe5b602002602001018181525050866040015182600181518110612ede57fe5b60200260200101818152505086606001516001600160a01b031660006001600160a01b0316336001600160a01b0316600080516020615d998339815191528686604051612f2c929190615a4f565b60405180910390a45b60808501516001600160501b031615610d4357606087015160808601516040516000926001600160a01b0316913391600080516020615db9833981519152916111a591600b88179190615d27565b600064ffffffffff821115610afb57600080fd5b600063ffffffff821115610afb57600080fd5b600080610b4d6026612a6d565b600080612fc2613ed7565b61ffff939093166000908152602093909352505060409020546001600160a01b031690565b6000805b82518110156131e957600083828151811061300257fe5b60200260200101519050600081606001516001600160a01b03166370a08231306040518263ffffffff1660e01b815260040161303e919061599f565b60206040518083038186803b15801561305657600080fd5b505afa15801561306a573d6000803e3d6000fd5b505050506040513d601f19601f8201168201806040525081019061308e919061585e565b9050600061309c8730613ee4565b905060005b8351518110156130ed576130e5846000015182815181106130be57fe5b60200260200101516000866020015184815181106130d857fe5b6020026020010151613f8e565b6001016130a1565b5060006130fa8830613ee4565b905060006131088284611465565b9050808560400151111561311b57600080fd5b60608501516040516370a0823160e01b81526000916001600160a01b0316906370a082319061314e90309060040161599f565b60206040518083038186803b15801561316657600080fd5b505afa15801561317a573d6000803e3d6000fd5b505050506040513d601f19601f8201168201806040525081019061319e919061585e565b9050848111156131ad57600080fd5b6131bc866060015186836140cb565b6131c68883612507565b97506131d78a6000015185856140cb565b505060019094019350612feb92505050565b5092915050565b60006131fa6151e2565b3d801561320e576020811461321757600080fd5b60019250613222565b60206000833e815192505b508161155e576040805162461bcd60e51b8152602060048201526005602482015264045524332360dc1b604482015290519081900360640190fd5b60006305f5e10083604001511415613276575080610b4d565b6040830151610ba6906102c6846305f5e100610aff565b6000613297611b35565b61ffff8416600090815260209190915260409081902054905163ad1c095d60e01b81526001600160a01b039091169150819063ad1c095d906132df9087908690600401615a36565b600060405180830381600087803b1580156132f957600080fd5b505af1158015611230573d6000803e3d6000fd5b6000613317614148565b61ffff8516600090815260209190915260409020805490915064ffffffffff16421461334257600080fd5b805460009061336190600160281b90046001600160581b0316856118c8565b825490915060009061338390600160801b90046001600160581b0316856118c8565b9050613396613391826118de565b614155565b83546001600160581b0391909116600160801b026affffffffffffffffffffff60801b199091161783556133cc613391836118de565b83546001600160581b0391909116600160281b026fffffffffffffffffffffff000000000019909116179092555050505050565b600061340a612faa565b6001600160a01b038416600090815260208290526040902054909150613433610c4382856118c8565b6001600160a01b03909416600090815260209290925250604090209190915550565b86546001600160501b0316600090810390613471888686612a93565b9050613482610c48610c4383610bd9565b89546001600160501b0319166001600160501b039190911617895560006134a9838361416b565b9050600064ffffffffff8714156134d05788516134c9908b908a856141f2565b5084613507565b846135075788516134e4908989878761421f565b88516134f990896134f485610bd9565b6142df565b613504898b8a6143b5565b90505b600082138015613515575084155b1561352757885161352790898361445b565b5050505050505050505050565b600061353e6144d7565b88516001600160a01b0316600090815260209182526040808220888352835280822061ffff8a168352909252908120805490925061358890859088906001600160501b0316612817565b905061359481866118c8565b90506135a682858b8a8a866000613455565b600080861380156135bb575064ffffffffff87145b156135dd576135d661138886896135d18a610bd9565b612a93565b90506135eb565b6135e8858888612a93565b90505b831561360257613602898b600001518a8a856144e4565b50505050505050505050565b8215801561361a575081155b1561363057835464ffffffffff19168455611d1a565b835464ffffffffff191664ffffffffff91909116179092555050565b600080610b4d6007612a6d565b80820382811315600083121514610b4d57600080fd5b600080610b4d6002612a6d565b600080610b4d6014612a6d565b60008261369857506000610b4d565b828202828482816136a557fe5b0414610ba657600080fd5b6000600182126136bf57600080fd5b816136cc57506000610b4d565b610ba660016124f66ec097ce7bc90715b34b9f10000000006102c6876020015187610aff90919063ffffffff16565b60008064ffffffffff84141561374d57602086015164ffffffffff14613725576000915050610e92565b61373f6113238760a001518561146590919063ffffffff16565b60a08701849052905061375d565b61375a6113238585611465565b90505b6080870151600090613779906301da9c00906102c69085610aff565b9050613785868261102a565b98975050505050505050565b600081121561379f57600080fd5b60006137ad610fee84614566565b90506137b981836118c8565b9050611c4d610fee84836145bf565b60008112156137d657600080fd5b60006137e58361ffff16614633565b905060006137f38285614566565b90506137ff81846118c8565b9050611d1a8285836145bf565b6000613816611b35565b61ffff8516600090815260209190915260408120546001600160a01b0316915061383e614659565b61ffff8616600090815260209190915260409081902054905163ad1c095d60e01b81526001600160a01b039091169150819063ad1c095d906138869089908790600401615a36565b600060405180830381600087803b1580156138a057600080fd5b505af11580156138b4573d6000803e3d6000fd5b505060405163ad1c095d60e01b81526001600160a01b038516925063ad1c095d91506138e69089908890600401615a36565b600060405180830381600087803b15801561390057600080fd5b505af1158015613602573d6000803e3d6000fd5b600061391e611b35565b61ffff8516600090815260209190915260408120546001600160a01b03169150613946614666565b61ffff8616600090815260209190915260409020546001600160a01b03908116915082166323de665187610fee61397c876118de565b6040518463ffffffff1660e01b815260040161399a93929190615a12565b600060405180830381600087803b1580156139b457600080fd5b505af11580156139c8573d6000803e3d6000fd5b50505050816001600160a01b03166323de665187836139e6886118de565b6040518463ffffffff1660e01b81526004016138e693929190615a12565b613a0c615200565b6000613a16614148565b61ffff93841660009081526020918252604090819020805464ffffffffff81168652600160281b81046001600160581b03908116948701949094526001820154841692860192909252600160d81b820463ffffffff166060860152600160801b9091049091166080840152600201546001600160501b0380821660a0850152600160501b8204811660c0850152600160a01b82041660e0840152600160f01b900460ff1661012c02909216610100820152919050565b600080613ad883612fb7565b6001600160a01b031663ef81f2166040518163ffffffff1660e01b81526004016040805180830381600087803b158015613b1157600080fd5b505af1158015613b25573d6000803e3d6000fd5b505050506040513d601f19601f8201168201806040525081019061284d91906156dc565b613b51615200565b6000806000613b61888689614673565b60c08b019290925260e08a019290925260208901519193509150613b859083612507565b6020880152608087015160009015613bb3576080880151613bb090613baa8982611465565b90614784565b90505b613bd3613bc8670de0b6b3a764000083612507565b60a08a0151906147a1565b60a089015250608087018690526000613bea6147be565b61ffff8a1660009081526020919091526040902054885163ffffffff600160a01b90920482169250613c3591613c24908590859061250716565b8a606001518b61010001518a6147cb565b60608901525050928552509294909350915050565b6000613c54614148565b60008561ffff1681526020019081526020016000209050613c788260000151612f83565b815464ffffffffff191664ffffffffff9190911617815560a0820151613c9d906118ed565b6002820180546001600160501b0319166001600160501b039290921691909117905560c0820151613ccd906118ed565b81600201600a6101000a8154816001600160501b0302191690836001600160501b03160217905550613d028260e001516118ed565b8160020160146101000a8154816001600160501b0302191690836001600160501b03160217905550613d378260200151614155565b81546001600160581b0391909116600160281b026fffffffffffffffffffffff0000000000199091161781556040820151613d7190614155565b6001820180546affffffffffffffffffffff19166001600160581b03929092169190911790556080820151613da590614155565b81546001600160581b0391909116600160801b026affffffffffffffffffffff60801b199091161781556060820151613ddd90612f97565b815463ffffffff91909116600160d81b0263ffffffff60d81b199091161781558215613e29576000613e0e84610ae5565b9050613e1a8582613791565b613e27610fee868361328d565b505b8361ffff167fef25641e225e493886510ca1ad6584fa7b442b9fea820a29d1de3ce27d270fd28360a001518460c001518560e00151604051613e6d93929190615d11565b60405180910390a250505050565b600081600013158015613e8e5750600a82125b15613e9b57506000610b4d565b60008212613ea857600080fd5b610ba660016124f685602001516102c66ec097ce7bc90715b34b9f100000000087610aff90919063ffffffff16565b600080610b4d601f612a6d565b6000600383606001516005811115613ef857fe5b1415613f0f57506001600160a01b03811631610b4d565b82516040516370a0823160e01b81526001600160a01b03909116906370a0823190613f3e90859060040161599f565b60206040518083038186803b158015613f5657600080fd5b505afa158015613f6a573d6000803e3d6000fd5b505050506040513d601f19601f82011682018060405250810190611e3b919061585e565b600080846001600160a01b031684846040518082805190602001908083835b60208310613fcc5780518252601f199092019160209182019101613fad565b6001836020036101000a03801982511681845116808217855250505050505090500191505060006040518083038185875af1925050503d806000811461402e576040519150601f19603f3d011682016040523d82523d6000602084013e614033565b606091505b50915091508161404282614859565b906125a95760405162461bcd60e51b81526004018080602001828103825283818151815260200191508051906020019080838360005b83811015614090578181015183820152602001614078565b50505050905090810190601f1680156140bd5780820380516001836020036101000a031916815260200191505b509250505060405180910390fd5b60006140d5612faa565b6001600160a01b038516600090815260208290526040902054909150838111156140fe57600080fd5b600061411561410c86610ae5565b6124f686610ae5565b9050614124610c4383836118c8565b6001600160a01b039096166000908152602093909352505060409020929092555050565b600080610b4d601d612a6d565b60006001600160581b03821115610afb57600080fd5b600081831480614188575060008312158015614188575060008212155b1561419557506000610b4d565b600083131580156141a65750816000125b156141b2575081610b4d565b600082131580156141c35750826000125b156141d157611e3b82610bd9565b600083131580156141e3575060008213155b1561007057611e3b8383613659565b8015611d1a5783516020850151600091614211916102c6908590610aff565b9050610f2b84848484614960565b600061422b838361416b565b9050806142385750610f2b565b6000614242614a94565b61ffff87166000908152602082815260408083208984529091528120549192506001600160501b0390911681039061427a8285613659565b9050600081131561428a57600080fd5b614299610c48610c4383610bd9565b61ffff89166000908152602085815260408083208b8452909152902080546001600160501b0319166001600160501b0392909216919091179055610de789898987614aa1565b60006142e9614b07565b6001600160a01b03851660009081526020918252604080822061ffff87168352909252908120805490925061432e90600160501b90046001600160501b031684613659565b905061433c610c48826118de565b82546001600160501b0391909116600160501b0269ffffffffffffffffffff60501b1990911617825560405161ffff8516906001600160a01b038716907f20478ef460e49d010960d4f3fff35d8dae385443abfac09035d6a2ccbcd834c4906143a6908590615a74565b60405180910390a35050505050565b600080846040015161ffff168361ffff161415614401576143d4612996565b85516001600160a01b031660009081526020918252604080822064ffffffffff835290925220905061443e565b6144096144d7565b85516001600160a01b031660009081526020918252604080822064ffffffffff8352835280822061ffff871683529092522090505b8054610e9290859064ffffffffff906001600160501b0316612817565b6000614465614b07565b6001600160a01b03851660009081526020918252604080822061ffff8716835290925290812080549092506144aa90600160501b90046001600160501b031684613659565b82549091506001600160501b0316811315610f2b5760405162461bcd60e51b815260040161017390615af2565b600080610b4d6018612a6d565b806144ee57610f2b565b600080806144ff878787600a611dde565b90506000841315614516578792506000915061451e565b600092508791505b6001600160a01b0380831690841633600080516020615db98339815191528461454689611b42565b604051614554929190615d03565b60405180910390a45050505050505050565b600080614571614b14565b6001600160a01b03851660009081526020828152604080832061ffff8816845290915281208054600160a81b9004600a90810b900b94509192508312156145b757600080fd5b505092915050565b60008112156145cd57600080fd5b60006145d7614b14565b6001600160a01b03851660009081526020828152604080832061ffff88168452909152902090915061460883614b21565b8154600a9190910b6001600160581b0316600160a81b026001600160a81b0390911617905550505050565b60008061463e614666565b6000938452602052505060409020546001600160a01b031690565b600080610b4d6022612a6d565b600080610b4d6003612a6d565b6000806000806000806146868988614b53565b895190955091935091506000906146ad906146a2908b90611465565b633b9aca0090613689565b90506146e76146dc6301da9c006146c48585613689565b816146cb57fe5b670de0b6b3a7640000919004612507565b60e08a0151906147a1565b96506147096146fe6301da9c006146c48785613689565b60c08a0151906147a1565b95508183141561472057506000935061477b915050565b60006147426147376301da9c006146c48786613689565b60e08b0151906147a1565b905060006147508983611465565b90506147738861476d838d6040015161368990919063ffffffff16565b90614bee565b965050505050505b93509350935093565b6000610ba661479b84670de0b6b3a7640000613689565b83614bee565b6000610ba66147b08484613689565b670de0b6b3a7640000614bee565b600080610b4d6025612a6d565b60008083116147d957600080fd5b818611156147e8575083610e92565b60006147f48388611465565b9050838111156148075785915050610e92565b60006148138286614c0d565b90506000614825633b9aca0083611465565b905061484c633b9aca0061476d61483c8a85613689565b6148468c87613689565b90612507565b9998505050505050505050565b606060448251101561488f575060408051808201909152600d81526c14da5b195b9d0814995d995c9d609a1b6020820152610972565b60048201805190926024019060208110156148a957600080fd5b81019080805160405193929190846401000000008211156148c957600080fd5b9083019060208201858111156148de57600080fd5b82516401000000008111828201881017156148f857600080fd5b82525081516020918201929091019080838360005b8381101561492557818101518382015260200161490d565b50505050905090810190601f1680156149525780820380516001836020036101000a031916815260200191505b506040525050509050919050565b600061496a614148565b61ffff8516600090815260209190915260409020805490915064ffffffffff16421461499557600080fd5b8054600160f81b900460ff166149aa57600080fd5b60018101546000906149c5906001600160581b0316856118c8565b82549091506000906149e790600160281b90046001600160581b0316856118c8565b9050816009191280156149fa5750600082125b15614a0457600091505b80600919128015614a155750600081125b15614a1e575060005b614a2a613391836118de565b6001840180546affffffffffffffffffffff19166001600160581b0392909216919091179055614a5c613391826118de565b83546001600160581b0391909116600160281b026fffffffffffffffffffffff000000000019909116178355610d438787868861380c565b600080610b4d6020612a6d565b600080614aaf858585614c20565b915091506000806000851215614ac757879150614aca565b50865b806001600160a01b0316826001600160a01b0316336001600160a01b0316600080516020615d998339815191528787604051614554929190615a4f565b600080610b4d6017612a6d565b600080610b4d6006612a6d565b60006a7fffffffffffffffffffff198212801590614b4a57506a7fffffffffffffffffffff8213155b610afb57600080fd5b600080600080600085602001511115614ba057614b9d614b848660c00151876020015161368990919063ffffffff16565b60e08701516040880151614b9791613689565b90614c0d565b90505b6000614bab87614d05565b9050614bb78183614d38565b94508115614bce57614bcb81866001614deb565b93505b602086015115614be557614be28583614e65565b92505b50509250925092565b6000808211614bfc57600080fd5b818381614c0557fe5b049392505050565b6000610ba661479b84633b9aca00613689565b604080516002808252606082810190935282916000918160200160208202803683370190505090506000614c548787614e7e565b90508082600081518110614c6457fe5b602002602001018181525050600160401b811782600181518110614c8457fe5b602090810291909101015260408051600280825260608201909252600091816020016020820280368337019050509050614cbd86611b42565b81600081518110614cca57fe5b602002602001018181525050614cdf86611b42565b81600181518110614cec57fe5b6020908102919091010152919791965090945050505050565b614d0d61524c565b6000614d17614e9c565b61ffff8416600090815260209190915260408120549150610ba69082614ea9565b600080836080015111614d4a57600080fd5b633b9aca00821115614d5b57600080fd5b82518211614d7a5782516040840151611e3b919061476d908590613689565b82602001518211614db2576040830151835160208501516060860151611e3b9392614846928190039161476d91880390859003613689565b610ba683606001516148468560200151633b9aca000361476d87606001518860800151038860200151880361368990919063ffffffff16565b600080614e0a606461476d8760e001518761368990919063ffffffff16565b90508460a00151811015614e1f575060a08401515b8460c00151811115614e32575060c08401515b8215614e4957614e428482612507565b9150614e5d565b838111614e5857808403610e92565b600091505b509392505050565b6000610ba6614e748484613689565b633b9aca00614bee565b67ffff000000000000603083901b16600882901b1760011792915050565b600080610b4d601b612a6d565b614eb161524c565b6064633b9aca008360ff861660208110614ec757fe5b1a0281614ed057fe5b0481526064633b9aca008360ff861660010160208110614eec57fe5b1a0281614ef557fe5b04816020018181525050614f1a8260028560ff160160208110614f1457fe5b1a614fc8565b60808201819052610100908360ff861660030160208110614f3757fe5b1a0281614f4057fe5b0460408201526080810151610100908360ff861660040160208110614f6157fe5b1a0281614f6a57fe5b0460608201526207a1208260ff851660050160208110614f8657fe5b1a0260a0820152622625a08260ff851660060160208110614fa357fe5b1a0260c08201528160ff841660070160208110614fbc57fe5b1a60e082015292915050565b60008160ff16609610614fe35760ff8216622625a00261096f565b5060951960ff919091160162e4e1c00263165a0bc00190565b60405180606001604052806000815260200160008152602001600081525090565b604051806101e0016040528060006001600160a01b03168152602001600061ffff168152602001600061ffff16815260200160008152602001600081526020016000815260200160008152602001600081526020016000815260200160008152602001615088615291565b8152602001615095614ffc565b8152602001600081526020016150a9615291565b8152602001600081525090565b6040518060c0016040528060008152602001600081526020016000815260200160006001600160a01b0316815260200160008152602001600081525090565b60405180608001604052806000815260200160008152602001600081526020016000151581525090565b60405180604001604052806002905b615136614ffc565b81526020019060019003908161512e5790505090565b6040805160c0810182526000808252602082015290810161516b614ffc565b8152602001615178614ffc565b815260200160008152602001600081525090565b6040805160a0810182526000808252602082018190529181018290529060608201906150a9565b6040518060a0016040528060008152602001600081526020016000815260200160008152602001600081525090565b60405180602001604052806001906020820280368337509192915050565b6040518061012001604052806000815260200160008152602001600081526020016000815260200160008152602001600081526020016000815260200160008152602001600081525090565b60405180610100016040528060008152602001600081526020016000815260200160008152602001600081526020016000815260200160008152602001600081525090565b60405180604001604052806002906020820280368337509192915050565b805161097281615d80565b600082601f8301126152ca578081fd5b815160206152df6152da83615d62565b615d3e565b82815281810190858301838502870184018810156152fb578586fd5b855b8581101561532257815161531081615d80565b845292840192908401906001016152fd565b5090979650505050505050565b6000601f8381840112615340578182fd5b825160206153506152da83615d62565b82815281810190868301865b858110156153f557815189018a603f820112615376578889fd5b8581015167ffffffffffffffff81111561538c57fe5b61539d818a01601f19168801615d3e565b81815260408d818486010111156153b2578b8cfd5b8b5b838110156153cf578481018201518382018b015289016153b4565b838111156153df578c8a85850101525b505086525050928401929084019060010161535c565b509098975050505050505050565b600082601f830112615413578081fd5b6040516060810181811067ffffffffffffffff8211171561543057fe5b604052808360608101861015615444578384fd5b835b6003811015615465578151835260209283019290910190600101615446565b509195945050505050565b80516001600160501b038116811461097257600080fd5b600080600080600060a0868803121561549e578081fd5b85356154a981615d80565b945060208601356154b981615d80565b935060408601356154c981615d80565b9250606086013561ffff811681146154df578182fd5b949793965091946080013592915050565b600080600080600060a08688031215615507578283fd5b853561551281615d80565b9450602086013561552281615d80565b9350604086013561553281615d80565b94979396509394606081013594506080013592915050565b60008060008060008060c08789031215615562578384fd5b863561556d81615d80565b9550602087013561557d81615d80565b9450604087013561558d81615d80565b959894975094956060810135955060808101359460a0909101359350915050565b600060208083850312156155c0578182fd5b825167ffffffffffffffff808211156155d7578384fd5b818501915085601f8301126155ea578384fd5b81516155f86152da82615d62565b81815284810190848601875b848110156156ad57815187016080818d03601f1901121561562357898afd5b60408051608081018181108a8211171561563957fe5b8252828b01518981111561564b578c8dfd5b6156598f8d838701016152ba565b825250818301518981111561566c578c8dfd5b61567a8f8d8387010161532f565b8c83015250606083015182820152615694608084016152af565b6060820152865250509287019290870190600101615604565b50909998505050505050505050565b6000602082840312156156cd578081fd5b81518015158114610ba6578182fd5b600080604083850312156156ee578182fd5b505080516020909101519092909150565b600080600083850360a0811215615714578182fd5b84519350602085015192506060603f1982011215615730578182fd5b506040516060810181811067ffffffffffffffff8211171561574e57fe5b8060405250604085015181526060850151602082015260808501516040820152809150509250925092565b600080600083850361018080821215615790578283fd5b60c082121561579d578283fd5b60405191506080820182811067ffffffffffffffff821117156157bc57fe5b80604052508551825260208087015181840152604087015160408401526157e68860608901615403565b60608401528295506157fb8860c08901615403565b94508761013f88011261580c578384fd5b6158166060615d3e565b925082610120880189848a01111561582c578586fd5b8593505b600384101561584f578051855293820193600193909301928201615830565b50809450505050509250925092565b60006020828403121561586f578081fd5b5051919050565b600080600080600060a0868803121561588d578283fd5b61589686615470565b94506020860151935060408601519250606086015191506158b960808701615470565b90509295509295909350565b6001600160a01b03169052565b8060005b6002811015611d1a5781518452602093840193909101906001016158d6565b8060005b6002811015611d1a57815161ffff168452602093840193909101906001016158f9565b6000815180845260208085019450808401835b8381101561594b5781518752958201959082019060010161592f565b509495945050505050565b8051825260208082015190830152604090810151910152565b8051825260208101516020830152604081015160408301526060810151151560608301525050565b61ffff169052565b6001600160a01b0391909116815260200190565b6001600160a01b0392831681529116602082015260400190565b6001600160a01b039788168152958716602087015293909516604085015261ffff919091166060840152608083015260a082019290925260c081019190915260e00190565b6001600160a01b039384168152919092166020820152604081019190915260600190565b6001600160a01b03929092168252602082015260400190565b600060408252615a62604083018561591c565b8281036020840152610e92818561591c565b90815260200190565b6020808252600b908201526a4554482042616c616e636560a81b604082015260600190565b60208082526011908201527009ac2e8eae4d2e8f2409ad2e6dac2e8c6d607b1b604082015260600190565b6020808252600b908201526a4d75737420536574746c6560a81b604082015260600190565b6020808252600c908201526b4d617820436170616369747960a01b604082015260600190565b6020808252600a90820152696d696e20626f72726f7760b01b604082015260600190565b6020808252600e908201526d1499595b9d1c985b9d0818d85b1b60921b604082015260600190565b6020808252600a90820152694d696e20426f72726f7760b01b604082015260600190565b61ffff9390931683526020830191909152604082015260600190565b60006103e08201905061ffff8716825285516020830152602086015160408301526040860151606083015260018060a01b036060870151166080830152608086015160a083015260a086015160c0830152615c0360e0830186516158c5565b6020850151610100615c1781850183615997565b60408701519150610120615c2d81860184615997565b60608801519250610140838187015260808901519350610160848188015260a08a01519450610180858189015260c08b015195506101a086818a015260e08c015196506101c087818b0152868d01516101e08b0152858d01516102008b0152848d01519750615ca06102208b01896158f5565b838d01519750615cb46102608b0189615956565b828d01516102c08b0152818d01519750615cd26102e08b01896158d2565b808d01516103208b01525050505050505050615cf261034083018561596f565b826103c08301529695505050505050565b918252602082015260400190565b9283526020830191909152604082015260600190565b9182526001600160501b0316602082015260400190565b60405181810167ffffffffffffffff81118282101715615d5a57fe5b604052919050565b600067ffffffffffffffff821115615d7657fe5b5060209081020190565b6001600160a01b0381168114615d9557600080fd5b5056fe4a39dc06d4c0dbc64b70af90fd698a233a518aa5d07e595d983b8c0526c8f7fbc3d58168c5ae7397731d063d5bbf3d657854427343f4c083240f7aacaa2d0f62a26469706673582212201de3a69000076c776a371d9eec0d66fcea05bc80c8947700c0d71eb4ae27aef564736f6c63430007060033","language":"Solidity","natspec":{"kind":"dev","methods":{"deleverageAccount(address,address,address,uint16,int256)":{"notice":"If an account is below the minimum collateral ratio, this method wil deleverage (liquidate) that account. `depositAmountPrimeCash` in the borrow currency will be transferred from the liquidator and used to offset the account's debt position. The liquidator will receive either vaultShares or cash depending.","params":{"account":"the address that will exit the vault","currencyIndex":"0 refers to primary borrow, 1 or 2 will refer to one of the secondary currencies (if any)","depositUnderlyingInternal":"amount of underlying to deposit, in 8 decimal underlying precision","liquidator":"the address that will receive profits from liquidation","vault":"the vault to enter"},"returns":{"depositAmountPrimeCash":"amount of prime cash deposited from liquidation","vaultSharesToLiquidator":"amount of vaultShares received from liquidation"}},"liquidateExcessVaultCash(address,address,address,uint256,uint256,uint256)":{"notice":"Handles an edge case where vaults that have secondary borrows and have cash in excess of debts in one currency but debts in another currency."},"liquidateVaultCashBalance(address,address,address,uint256,int256)":{"notice":"If an account has a cash balance, a liquidator can purchase the cash and provide fCash to the account to reduce it's debt balance."}},"version":1},"opcodes":"PUSH1 0x80 PUSH1 0x40 MSTORE PUSH1 0x4 CALLDATASIZE LT PUSH2 0x70 JUMPI PUSH1 0x0 CALLDATALOAD PUSH1 0xE0 SHR DUP1 PUSH4 0x8DA5CB5B GT PUSH2 0x4E JUMPI DUP1 PUSH4 0x8DA5CB5B EQ PUSH2 0xD5 JUMPI DUP1 PUSH4 0x9AB77186 EQ PUSH2 0xEA JUMPI DUP1 PUSH4 0xC4C96DAE EQ PUSH2 0x10A JUMPI DUP1 PUSH4 0xFCAF198B EQ PUSH2 0x12D JUMPI PUSH2 0x70 JUMP JUMPDEST DUP1 PUSH4 0x21BF8C66 EQ PUSH2 0x75 JUMPI DUP1 PUSH4 0x24A3D622 EQ PUSH2 0x9E JUMPI DUP1 PUSH4 0x82463367 EQ PUSH2 0xC0 JUMPI JUMPDEST PUSH1 0x0 DUP1 REVERT JUMPDEST PUSH2 0x88 PUSH2 0x83 CALLDATASIZE PUSH1 0x4 PUSH2 0x554A JUMP JUMPDEST PUSH2 0x14E JUMP JUMPDEST PUSH1 0x40 MLOAD PUSH2 0x95 SWAP2 SWAP1 PUSH2 0x5A74 JUMP JUMPDEST PUSH1 0x40 MLOAD DUP1 SWAP2 SUB SWAP1 RETURN JUMPDEST CALLVALUE DUP1 ISZERO PUSH2 0xAA JUMPI PUSH1 0x0 DUP1 REVERT JUMPDEST POP PUSH2 0xB3 PUSH2 0x411 JUMP JUMPDEST PUSH1 0x40 MLOAD PUSH2 0x95 SWAP2 SWAP1 PUSH2 0x599F JUMP JUMPDEST CALLVALUE DUP1 ISZERO PUSH2 0xCC JUMPI PUSH1 0x0 DUP1 REVERT JUMPDEST POP PUSH2 0xB3 PUSH2 0x420 JUMP JUMPDEST CALLVALUE DUP1 ISZERO PUSH2 0xE1 JUMPI PUSH1 0x0 DUP1 REVERT JUMPDEST POP PUSH2 0xB3 PUSH2 0x42F JUMP JUMPDEST CALLVALUE DUP1 ISZERO PUSH2 0xF6 JUMPI PUSH1 0x0 DUP1 REVERT JUMPDEST POP PUSH2 0x88 PUSH2 0x105 CALLDATASIZE PUSH1 0x4 PUSH2 0x54F0 JUMP JUMPDEST PUSH2 0x446 JUMP JUMPDEST CALLVALUE DUP1 ISZERO PUSH2 0x116 JUMPI PUSH1 0x0 DUP1 REVERT JUMPDEST POP PUSH2 0x11F PUSH2 0x5E9 JUMP JUMPDEST PUSH1 0x40 MLOAD PUSH2 0x95 SWAP3 SWAP2 SWAP1 PUSH2 0x59B3 JUMP JUMPDEST PUSH2 0x140 PUSH2 0x13B CALLDATASIZE PUSH1 0x4 PUSH2 0x5487 JUMP JUMPDEST PUSH2 0x617 JUMP JUMPDEST PUSH1 0x40 MLOAD PUSH2 0x95 SWAP3 SWAP2 SWAP1 PUSH2 0x5D03 JUMP JUMPDEST PUSH1 0x0 PUSH1 0x2 PUSH1 0xA SLOAD EQ ISZERO PUSH2 0x17C JUMPI PUSH1 0x40 MLOAD PUSH3 0x461BCD PUSH1 0xE5 SHL DUP2 MSTORE PUSH1 0x4 ADD PUSH2 0x173 SWAP1 PUSH2 0x5B3C JUMP JUMPDEST PUSH1 0x40 MLOAD DUP1 SWAP2 SUB SWAP1 REVERT JUMPDEST PUSH1 0x2 PUSH1 0xA SSTORE PUSH1 0x0 DUP1 PUSH2 0x18F DUP10 DUP10 DUP10 PUSH2 0x808 JUMP JUMPDEST POP SWAP2 POP SWAP2 POP PUSH2 0x19D DUP3 PUSH2 0x948 JUMP JUMPDEST PUSH2 0x1A6 JUMPI PUSH1 0x0 DUP1 REVERT JUMPDEST PUSH1 0x0 PUSH2 0x1B1 DUP4 PUSH2 0x977 JUMP JUMPDEST PUSH1 0x40 MLOAD PUSH4 0xB14428B9 PUSH1 0xE0 SHL DUP2 MSTORE SWAP1 SWAP2 POP PUSH1 0x0 SWAP1 ADDRESS SWAP1 PUSH4 0xB14428B9 SWAP1 PUSH2 0x1DC SWAP1 DUP15 SWAP1 DUP15 SWAP1 PUSH1 0x4 ADD PUSH2 0x59B3 JUMP JUMPDEST PUSH2 0x180 PUSH1 0x40 MLOAD DUP1 DUP4 SUB DUP2 DUP7 DUP1 EXTCODESIZE ISZERO DUP1 ISZERO PUSH2 0x1F5 JUMPI PUSH1 0x0 DUP1 REVERT JUMPDEST POP GAS STATICCALL ISZERO DUP1 ISZERO PUSH2 0x209 JUMPI RETURNDATASIZE PUSH1 0x0 DUP1 RETURNDATACOPY RETURNDATASIZE PUSH1 0x0 REVERT JUMPDEST POP POP POP POP PUSH1 0x40 MLOAD RETURNDATASIZE PUSH1 0x1F NOT PUSH1 0x1F DUP3 ADD AND DUP3 ADD DUP1 PUSH1 0x40 MSTORE POP DUP2 ADD SWAP1 PUSH2 0x22D SWAP2 SWAP1 PUSH2 0x5779 JUMP JUMPDEST POP POP SWAP1 POP DUP1 PUSH1 0x60 ADD MLOAD DUP9 PUSH1 0x3 DUP2 LT PUSH2 0x241 JUMPI INVALID JUMPDEST PUSH1 0x20 MUL ADD MLOAD PUSH1 0x0 SLT PUSH2 0x252 JUMPI PUSH1 0x0 DUP1 REVERT JUMPDEST PUSH1 0x0 DUP2 PUSH1 0x60 ADD MLOAD DUP9 PUSH1 0x3 DUP2 LT PUSH2 0x264 JUMPI INVALID JUMPDEST PUSH1 0x20 MUL ADD MLOAD SLT PUSH2 0x273 JUMPI PUSH1 0x0 DUP1 REVERT JUMPDEST PUSH1 0x0 PUSH2 0x281 DUP6 DUP5 DUP12 DUP12 PUSH2 0x9D7 JUMP JUMPDEST SWAP1 POP PUSH1 0x0 PUSH2 0x28E DUP9 PUSH2 0xAE5 JUMP JUMPDEST SWAP1 POP PUSH2 0x2D7 PUSH2 0x2CC PUSH1 0x64 PUSH2 0x2C6 DUP6 PUSH1 0x80 ADD MLOAD PUSH2 0x2C6 DUP8 PUSH1 0xA0 ADD MLOAD PUSH2 0x2C0 DUP14 PUSH2 0x1C0 ADD MLOAD DUP10 PUSH2 0xAFF SWAP1 SWAP2 SWAP1 PUSH4 0xFFFFFFFF AND JUMP JUMPDEST SWAP1 PUSH2 0xAFF JUMP JUMPDEST SWAP1 PUSH2 0xB53 JUMP JUMPDEST PUSH1 0x40 DUP5 ADD MLOAD SWAP1 PUSH2 0xB84 JUMP JUMPDEST SWAP7 POP DUP7 DUP4 PUSH1 0x60 ADD MLOAD DUP12 PUSH1 0x3 DUP2 LT PUSH2 0x2EA JUMPI INVALID JUMPDEST PUSH1 0x20 MUL ADD MLOAD SLT ISZERO PUSH2 0x344 JUMPI DUP3 PUSH1 0x60 ADD MLOAD DUP11 PUSH1 0x3 DUP2 LT PUSH2 0x305 JUMPI INVALID JUMPDEST PUSH1 0x20 MUL ADD MLOAD SWAP7 POP PUSH2 0x341 DUP3 PUSH1 0xA0 ADD MLOAD PUSH2 0x2C6 DUP9 PUSH2 0x1C0 ADD MLOAD PUSH2 0x2C6 PUSH1 0x64 PUSH2 0x2C0 DUP9 PUSH1 0x80 ADD MLOAD PUSH2 0x2C0 DUP16 DUP12 PUSH1 0x40 ADD MLOAD PUSH2 0xBAD SWAP1 SWAP2 SWAP1 PUSH4 0xFFFFFFFF AND JUMP JUMPDEST SWAP1 POP JUMPDEST PUSH1 0x60 DUP3 ADD MLOAD PUSH1 0x0 SWAP1 PUSH2 0x356 SWAP1 DUP4 PUSH2 0xB84 JUMP JUMPDEST SWAP1 POP PUSH1 0x0 PUSH2 0x363 DUP10 PUSH2 0xBD9 JUMP JUMPDEST SWAP1 POP PUSH2 0x373 DUP8 DUP10 DUP15 DUP5 PUSH1 0x0 PUSH2 0xBE7 JUMP JUMPDEST PUSH2 0x381 DUP8 DUP10 DUP14 DUP6 PUSH1 0x0 PUSH2 0xBE7 JUMP JUMPDEST PUSH2 0x391 DUP15 DUP15 DUP7 PUSH1 0x0 ADD MLOAD DUP13 PUSH2 0xD4C JUMP JUMPDEST PUSH2 0x3A7 DUP14 DUP6 PUSH1 0x0 ADD MLOAD DUP4 DUP8 PUSH1 0x40 ADD MLOAD PUSH1 0x0 PUSH2 0xDF2 JUMP JUMPDEST POP PUSH2 0x3BD DUP16 DUP16 DUP7 PUSH1 0x0 ADD MLOAD DUP11 PUSH1 0x20 ADD MLOAD DUP6 PUSH2 0xE9B JUMP JUMPDEST PUSH2 0x3D3 DUP14 DUP6 PUSH1 0x20 ADD MLOAD DUP5 DUP8 PUSH1 0x60 ADD MLOAD PUSH1 0x0 PUSH2 0xF32 JUMP JUMPDEST POP PUSH2 0x3E4 DUP14 DUP16 DUP7 PUSH1 0x20 ADD MLOAD DUP6 PUSH2 0xD4C JUMP JUMPDEST PUSH2 0x3F9 DUP16 DUP16 DUP7 PUSH1 0x20 ADD MLOAD DUP11 PUSH1 0x20 ADD MLOAD DUP7 PUSH2 0xE9B JUMP JUMPDEST POP POP PUSH1 0x1 PUSH1 0xA SSTORE POP SWAP5 SWAP12 SWAP11 POP POP POP POP POP POP POP POP POP POP POP JUMP JUMPDEST PUSH1 0x2 SLOAD PUSH1 0x1 PUSH1 0x1 PUSH1 0xA0 SHL SUB AND DUP2 JUMP JUMPDEST PUSH1 0x1 SLOAD PUSH1 0x1 PUSH1 0x1 PUSH1 0xA0 SHL SUB AND DUP2 JUMP JUMPDEST PUSH1 0x0 SLOAD PUSH5 0x100000000 SWAP1 DIV PUSH1 0x1 PUSH1 0x1 PUSH1 0xA0 SHL SUB AND DUP2 JUMP JUMPDEST PUSH1 0x0 PUSH1 0x2 PUSH1 0xA SLOAD EQ ISZERO PUSH2 0x46B JUMPI PUSH1 0x40 MLOAD PUSH3 0x461BCD PUSH1 0xE5 SHL DUP2 MSTORE PUSH1 0x4 ADD PUSH2 0x173 SWAP1 PUSH2 0x5B3C JUMP JUMPDEST PUSH1 0x2 PUSH1 0xA SSTORE PUSH1 0x0 DUP1 DUP1 PUSH2 0x47F DUP10 DUP10 DUP10 PUSH2 0x808 JUMP JUMPDEST SWAP3 POP SWAP3 POP SWAP3 POP PUSH1 0x0 PUSH2 0x48F PUSH2 0x4FFC JUMP JUMPDEST PUSH1 0x0 DUP1 DUP10 PUSH2 0x4B2 JUMPI POP POP POP POP PUSH1 0x40 DUP4 ADD MLOAD PUSH2 0x160 DUP5 ADD MLOAD DUP4 MLOAD PUSH1 0x80 DUP6 ADD MLOAD PUSH2 0x4D1 JUMP JUMPDEST PUSH1 0x3 DUP11 LT ISZERO PUSH2 0x70 JUMPI PUSH2 0x4C6 DUP8 DUP12 DUP16 PUSH2 0xF90 JUMP JUMPDEST SWAP3 SWAP7 POP SWAP1 SWAP5 POP SWAP3 POP SWAP1 POP JUMPDEST PUSH1 0x20 DUP7 ADD MLOAD PUSH1 0x40 MLOAD PUSH4 0xF82F279D PUSH1 0xE0 SHL DUP2 MSTORE PUSH1 0x0 SWAP2 DUP3 SWAP2 ADDRESS SWAP2 PUSH4 0xF82F279D SWAP2 PUSH2 0x500 SWAP2 DUP11 SWAP2 DUP9 SWAP1 PUSH1 0x4 ADD PUSH2 0x5B88 JUMP JUMPDEST PUSH1 0x40 DUP1 MLOAD DUP1 DUP4 SUB DUP2 DUP7 DUP1 EXTCODESIZE ISZERO DUP1 ISZERO PUSH2 0x517 JUMPI PUSH1 0x0 DUP1 REVERT JUMPDEST POP GAS STATICCALL ISZERO DUP1 ISZERO PUSH2 0x52B JUMPI RETURNDATASIZE PUSH1 0x0 DUP1 RETURNDATACOPY RETURNDATASIZE PUSH1 0x0 REVERT JUMPDEST POP POP POP POP PUSH1 0x40 MLOAD RETURNDATASIZE PUSH1 0x1F NOT PUSH1 0x1F DUP3 ADD AND DUP3 ADD DUP1 PUSH1 0x40 MSTORE POP DUP2 ADD SWAP1 PUSH2 0x54F SWAP2 SWAP1 PUSH2 0x56DC JUMP JUMPDEST SWAP1 SWAP3 POP SWAP1 POP PUSH2 0x568 PUSH2 0x561 DUP13 DUP4 PUSH2 0x102A JUMP JUMPDEST DUP7 SWAP1 PUSH2 0xB84 JUMP JUMPDEST SWAP10 POP DUP3 DUP11 SGT ISZERO PUSH2 0x579 JUMPI DUP2 SWAP11 POP DUP3 SWAP10 POP JUMPDEST POP POP DUP9 PUSH1 0x0 SLT DUP1 ISZERO PUSH2 0x593 JUMPI POP PUSH2 0x58F DUP3 PUSH2 0xBD9 JUMP JUMPDEST DUP10 SGT ISZERO JUMPDEST PUSH2 0x59C JUMPI PUSH1 0x0 DUP1 REVERT JUMPDEST PUSH2 0x5AA DUP7 DUP13 DUP15 DUP8 DUP14 DUP14 PUSH2 0x1043 JUMP JUMPDEST PUSH2 0x5BA DUP8 DUP7 DUP9 DUP7 DUP15 DUP15 PUSH1 0x0 PUSH2 0x11B6 JUMP JUMPDEST PUSH2 0x5D3 DUP8 DUP12 PUSH2 0x5C8 DUP12 PUSH2 0xBD9 JUMP JUMPDEST DUP10 SWAP3 SWAP2 SWAP1 PUSH1 0x0 PUSH2 0xBE7 JUMP JUMPDEST POP POP PUSH1 0x1 PUSH1 0xA SSTORE POP SWAP4 SWAP10 SWAP9 POP POP POP POP POP POP POP POP POP JUMP JUMPDEST PUSH20 0x0 PUSH20 0x0 SWAP1 SWAP2 JUMP JUMPDEST PUSH1 0x0 DUP1 PUSH1 0x2 PUSH1 0xA SLOAD EQ ISZERO PUSH2 0x63D JUMPI PUSH1 0x40 MLOAD PUSH3 0x461BCD PUSH1 0xE5 SHL DUP2 MSTORE PUSH1 0x4 ADD PUSH2 0x173 SWAP1 PUSH2 0x5B3C JUMP JUMPDEST PUSH1 0x2 PUSH1 0xA SSTORE PUSH1 0x3 PUSH2 0xFFFF DUP6 AND LT PUSH2 0x653 JUMPI PUSH1 0x0 DUP1 REVERT JUMPDEST PUSH1 0x0 DUP1 PUSH1 0x0 PUSH2 0x663 DUP11 DUP11 DUP11 PUSH2 0x808 JUMP JUMPDEST SWAP3 POP SWAP3 POP SWAP3 POP PUSH2 0x671 PUSH2 0x4FFC JUMP JUMPDEST PUSH1 0x40 MLOAD PUSH4 0xC74DB1F PUSH1 0xE4 SHL DUP2 MSTORE ADDRESS SWAP1 PUSH4 0xC74DB1F0 SWAP1 PUSH2 0x69C SWAP1 DUP12 SWAP1 DUP8 SWAP1 DUP10 SWAP1 DUP9 SWAP1 DUP15 SWAP1 PUSH1 0x4 ADD PUSH2 0x5BA4 JUMP JUMPDEST PUSH1 0xA0 PUSH1 0x40 MLOAD DUP1 DUP4 SUB DUP2 PUSH1 0x0 DUP8 DUP1 EXTCODESIZE ISZERO DUP1 ISZERO PUSH2 0x6B6 JUMPI PUSH1 0x0 DUP1 REVERT JUMPDEST POP GAS CALL ISZERO DUP1 ISZERO PUSH2 0x6CA JUMPI RETURNDATASIZE PUSH1 0x0 DUP1 RETURNDATACOPY RETURNDATASIZE PUSH1 0x0 REVERT JUMPDEST POP POP POP POP PUSH1 0x40 MLOAD RETURNDATASIZE PUSH1 0x1F NOT PUSH1 0x1F DUP3 ADD AND DUP3 ADD DUP1 PUSH1 0x40 MSTORE POP DUP2 ADD SWAP1 PUSH2 0x6EE SWAP2 SWAP1 PUSH2 0x56FF JUMP JUMPDEST SWAP2 SWAP9 POP SWAP7 POP SWAP1 POP PUSH1 0x0 DUP8 SGT PUSH2 0x702 JUMPI PUSH1 0x0 DUP1 REVERT JUMPDEST PUSH1 0x40 DUP5 ADD MLOAD PUSH1 0x1 PUSH2 0xFFFF DUP11 AND EQ ISZERO PUSH2 0x721 JUMPI POP PUSH2 0x140 DUP5 ADD MLOAD MLOAD PUSH2 0x73A JUMP JUMPDEST DUP9 PUSH2 0xFFFF AND PUSH1 0x2 EQ ISZERO PUSH2 0x73A JUMPI POP PUSH2 0x140 DUP5 ADD MLOAD PUSH1 0x20 ADD MLOAD JUMPDEST PUSH1 0x0 PUSH2 0x749 DUP3 PUSH2 0xFFFF AND PUSH2 0x123A JUMP JUMPDEST SWAP1 POP PUSH2 0x762 DUP12 DUP4 PUSH2 0x75A DUP5 DUP14 PUSH2 0x124D JUMP JUMPDEST DUP7 PUSH1 0x0 PUSH2 0x1285 JUMP JUMPDEST SWAP1 POP DUP1 SWAP8 POP POP PUSH2 0x790 DUP12 DUP15 DUP15 DUP6 DUP9 PUSH1 0x0 ADD MLOAD DUP16 PUSH2 0xFFFF AND PUSH1 0x0 EQ PUSH2 0x787 JUMPI PUSH1 0x0 PUSH2 0x789 JUMP JUMPDEST DUP13 JUMPDEST DUP15 DUP11 PUSH2 0x1347 JUMP JUMPDEST PUSH1 0x40 DUP6 ADD MLOAD PUSH2 0x79F SWAP1 DUP10 PUSH2 0x1465 JUMP JUMPDEST PUSH1 0x40 DUP7 ADD MSTORE PUSH1 0x20 DUP6 ADD MLOAD PUSH5 0xFFFFFFFFFF EQ ISZERO PUSH2 0x7CE JUMPI PUSH2 0x7C9 DUP7 DUP6 DUP8 DUP7 DUP15 PUSH2 0xFFFF AND DUP15 PUSH1 0x1 PUSH2 0x11B6 JUMP JUMPDEST PUSH1 0x0 SWAP7 POP JUMPDEST PUSH2 0x7E0 DUP6 DUP8 PUSH2 0xFFFF DUP14 AND DUP11 PUSH1 0x1 PUSH2 0xBE7 JUMP JUMPDEST PUSH2 0x7F0 DUP12 DUP8 DUP11 DUP9 PUSH1 0x20 ADD MLOAD PUSH2 0x147A JUMP JUMPDEST POP POP POP POP POP POP PUSH1 0x1 PUSH1 0xA DUP2 SWAP1 SSTORE POP SWAP6 POP SWAP6 SWAP4 POP POP POP POP JUMP JUMPDEST PUSH2 0x810 PUSH2 0x501D JUMP JUMPDEST PUSH2 0x818 PUSH2 0x50B6 JUMP JUMPDEST PUSH2 0x820 PUSH2 0x50F5 JUMP JUMPDEST PUSH2 0x829 DUP5 PUSH2 0x14E3 JUMP JUMPDEST DUP5 PUSH1 0x1 PUSH1 0x1 PUSH1 0xA0 SHL SUB AND DUP5 PUSH1 0x1 PUSH1 0x1 PUSH1 0xA0 SHL SUB AND EQ ISZERO PUSH2 0x848 JUMPI PUSH1 0x0 DUP1 REVERT JUMPDEST PUSH1 0x1 PUSH1 0x1 PUSH1 0xA0 SHL SUB DUP7 AND CALLER EQ ISZERO PUSH2 0x85E JUMPI PUSH1 0x0 DUP1 REVERT JUMPDEST DUP4 PUSH1 0x1 PUSH1 0x1 PUSH1 0xA0 SHL SUB AND DUP7 PUSH1 0x1 PUSH1 0x1 PUSH1 0xA0 SHL SUB AND EQ ISZERO PUSH2 0x87D JUMPI PUSH1 0x0 DUP1 REVERT JUMPDEST PUSH2 0x886 DUP6 PUSH2 0x1562 JUMP JUMPDEST SWAP3 POP PUSH2 0x894 DUP4 PUSH2 0x100 PUSH2 0x158D JUMP JUMPDEST ISZERO PUSH2 0x89E JUMPI PUSH1 0x0 DUP1 REVERT JUMPDEST PUSH2 0x8A9 DUP4 PUSH1 0x20 PUSH2 0x158D JUMP JUMPDEST ISZERO PUSH2 0x8C8 JUMPI CALLER PUSH1 0x1 PUSH1 0x1 PUSH1 0xA0 SHL SUB DUP7 AND EQ PUSH2 0x8C3 JUMPI PUSH1 0x0 DUP1 REVERT JUMPDEST PUSH2 0x8DD JUMP JUMPDEST CALLER PUSH1 0x1 PUSH1 0x1 PUSH1 0xA0 SHL SUB DUP6 AND EQ PUSH2 0x8DD JUMPI PUSH1 0x0 DUP1 REVERT JUMPDEST PUSH2 0x8E7 DUP7 DUP5 PUSH2 0x15A2 JUMP JUMPDEST SWAP2 POP DUP2 PUSH1 0x20 ADD MLOAD TIMESTAMP LT PUSH2 0x90C JUMPI PUSH1 0x40 MLOAD PUSH3 0x461BCD PUSH1 0xE5 SHL DUP2 MSTORE PUSH1 0x4 ADD PUSH2 0x173 SWAP1 PUSH2 0x5ACD JUMP JUMPDEST PUSH1 0x20 DUP3 ADD MLOAD PUSH5 0xFFFFFFFFFF EQ ISZERO PUSH2 0x92E JUMPI PUSH2 0x927 DUP3 DUP5 PUSH2 0x1651 JUMP JUMPDEST SWAP1 POP PUSH2 0x93F JUMP JUMPDEST PUSH2 0x93C DUP4 DUP4 PUSH1 0x20 ADD MLOAD PUSH2 0x1696 JUMP JUMPDEST SWAP1 POP JUMPDEST SWAP4 POP SWAP4 POP SWAP4 SWAP1 POP JUMP JUMPDEST PUSH2 0x140 DUP2 ADD MLOAD MLOAD PUSH1 0x0 SWAP1 PUSH2 0xFFFF AND ISZERO ISZERO DUP1 PUSH2 0x96F JUMPI POP PUSH2 0x140 DUP3 ADD MLOAD PUSH1 0x20 ADD MLOAD PUSH2 0xFFFF AND ISZERO ISZERO JUMPDEST SWAP1 POP JUMPDEST SWAP2 SWAP1 POP JUMP JUMPDEST PUSH2 0x97F PUSH2 0x511F JUMP JUMPDEST PUSH2 0x140 DUP3 ADD MLOAD MLOAD PUSH2 0xFFFF AND ISZERO PUSH2 0x9A9 JUMPI PUSH2 0x140 DUP3 ADD MLOAD PUSH2 0x9A6 SWAP1 PUSH1 0x0 JUMPDEST PUSH1 0x20 MUL ADD MLOAD PUSH2 0x1721 JUMP JUMPDEST DUP2 MSTORE JUMPDEST PUSH2 0x140 DUP3 ADD MLOAD PUSH1 0x20 ADD MLOAD PUSH2 0xFFFF AND ISZERO PUSH2 0x972 JUMPI PUSH2 0x140 DUP3 ADD MLOAD PUSH2 0x9CD SWAP1 PUSH1 0x1 PUSH2 0x99C JUMP JUMPDEST PUSH1 0x20 DUP3 ADD MSTORE SWAP2 SWAP1 POP JUMP JUMPDEST PUSH2 0x9DF PUSH2 0x514C JUMP JUMPDEST DUP3 PUSH2 0x9FF JUMPI PUSH1 0x40 DUP1 DUP7 ADD MLOAD PUSH2 0xFFFF AND DUP3 MSTORE PUSH2 0x160 DUP7 ADD MLOAD SWAP1 DUP3 ADD MSTORE PUSH2 0xA39 JUMP JUMPDEST DUP5 PUSH2 0x140 ADD MLOAD PUSH1 0x1 DUP5 SUB PUSH1 0x2 DUP2 LT PUSH2 0xA13 JUMPI INVALID JUMPDEST PUSH1 0x20 MUL ADD MLOAD PUSH2 0xFFFF AND DUP2 MSTORE DUP4 PUSH1 0x0 NOT DUP5 ADD PUSH1 0x2 DUP2 LT PUSH2 0xA2E JUMPI INVALID JUMPDEST PUSH1 0x20 MUL ADD MLOAD PUSH1 0x40 DUP3 ADD MSTORE JUMPDEST DUP2 PUSH2 0xA5C JUMPI PUSH1 0x40 DUP6 ADD MLOAD PUSH2 0xFFFF AND PUSH1 0x20 DUP3 ADD MSTORE PUSH2 0x160 DUP6 ADD MLOAD PUSH1 0x60 DUP3 ADD MSTORE PUSH2 0xA9D JUMP JUMPDEST DUP5 PUSH2 0x140 ADD MLOAD PUSH1 0x1 DUP4 SUB PUSH1 0x2 DUP2 LT PUSH2 0xA70 JUMPI INVALID JUMPDEST PUSH1 0x20 SWAP1 DUP2 MUL SWAP2 SWAP1 SWAP2 ADD MLOAD PUSH2 0xFFFF AND SWAP1 DUP3 ADD MSTORE DUP4 PUSH1 0x0 NOT DUP4 ADD PUSH1 0x2 DUP2 LT PUSH2 0xA92 JUMPI INVALID JUMPDEST PUSH1 0x20 MUL ADD MLOAD PUSH1 0x60 DUP3 ADD MSTORE JUMPDEST PUSH1 0x0 PUSH2 0xAB0 DUP3 PUSH1 0x0 ADD MLOAD PUSH2 0xFFFF AND PUSH2 0x1733 JUMP JUMPDEST SWAP1 POP PUSH1 0x0 PUSH2 0xAC5 DUP4 PUSH1 0x20 ADD MLOAD PUSH2 0xFFFF AND PUSH2 0x1733 JUMP JUMPDEST SWAP1 POP PUSH2 0xAD1 DUP3 DUP3 PUSH2 0x1896 JUMP JUMPDEST PUSH1 0x80 DUP5 ADD MSTORE POP MLOAD PUSH1 0xA0 DUP3 ADD MSTORE SWAP5 SWAP4 POP POP POP POP JUMP JUMPDEST PUSH1 0x0 PUSH1 0x1 PUSH1 0x1 PUSH1 0xFF SHL SUB DUP3 GT ISZERO PUSH2 0xAFB JUMPI PUSH1 0x0 DUP1 REVERT JUMPDEST POP SWAP1 JUMP JUMPDEST DUP2 DUP2 MUL PUSH1 0x0 NOT DUP4 EQ ISZERO PUSH2 0xB2F JUMPI DUP2 ISZERO DUP1 PUSH2 0xB21 JUMPI POP DUP3 DUP3 DUP3 DUP2 PUSH2 0xB1E JUMPI INVALID JUMPDEST SDIV EQ JUMPDEST PUSH2 0xB2A JUMPI PUSH1 0x0 DUP1 REVERT JUMPDEST PUSH2 0xB4D JUMP JUMPDEST DUP3 ISZERO DUP1 PUSH2 0xB44 JUMPI POP DUP2 DUP4 DUP3 DUP2 PUSH2 0xB41 JUMPI INVALID JUMPDEST SDIV EQ JUMPDEST PUSH2 0xB4D JUMPI PUSH1 0x0 DUP1 REVERT JUMPDEST SWAP3 SWAP2 POP POP JUMP JUMPDEST PUSH1 0x0 DUP2 PUSH1 0x0 NOT EQ DUP1 ISZERO PUSH2 0xB69 JUMPI POP PUSH1 0x1 PUSH1 0xFF SHL DUP4 EQ JUMPDEST ISZERO PUSH2 0xB73 JUMPI PUSH1 0x0 DUP1 REVERT JUMPDEST DUP2 DUP4 DUP2 PUSH2 0xB7C JUMPI INVALID JUMPDEST SDIV SWAP4 SWAP3 POP POP POP JUMP JUMPDEST DUP2 MLOAD PUSH1 0x0 SWAP1 PUSH2 0xBA6 SWAP1 PUSH2 0x2C6 DUP5 PUSH15 0xC097CE7BC90715B34B9F1000000000 PUSH2 0xAFF JUMP JUMPDEST SWAP4 SWAP3 POP POP POP JUMP JUMPDEST PUSH1 0x0 PUSH2 0xBA6 PUSH15 0xC097CE7BC90715B34B9F1000000000 PUSH2 0x2C6 DUP6 PUSH1 0x0 ADD MLOAD DUP6 PUSH2 0xAFF SWAP1 SWAP2 SWAP1 PUSH4 0xFFFFFFFF AND JUMP JUMPDEST PUSH1 0x0 PUSH2 0x96F PUSH1 0x0 NOT DUP4 PUSH2 0xAFF JUMP JUMPDEST PUSH1 0x0 PUSH2 0xBF1 PUSH2 0x18BB JUMP JUMPDEST PUSH1 0x60 DUP8 ADD MLOAD PUSH1 0x1 PUSH1 0x1 PUSH1 0xA0 SHL SUB SWAP1 DUP2 AND PUSH1 0x0 SWAP1 DUP2 MSTORE PUSH1 0x20 DUP4 DUP2 MSTORE PUSH1 0x40 DUP1 DUP4 KECCAK256 DUP11 MLOAD SWAP1 SWAP5 AND DUP4 MSTORE SWAP3 SWAP1 MSTORE KECCAK256 SWAP1 SWAP2 POP DUP5 PUSH2 0xC74 JUMPI PUSH1 0x1 DUP2 ADD SLOAD PUSH2 0xC4D SWAP1 PUSH2 0xC48 SWAP1 PUSH2 0xC43 SWAP1 PUSH1 0x1 PUSH1 0x1 PUSH1 0x50 SHL SUB AND DUP8 PUSH2 0x18C8 JUMP JUMPDEST PUSH2 0x18DE JUMP JUMPDEST PUSH2 0x18ED JUMP JUMPDEST PUSH1 0x1 DUP3 ADD DUP1 SLOAD PUSH1 0x1 PUSH1 0x1 PUSH1 0x50 SHL SUB NOT AND PUSH1 0x1 PUSH1 0x1 PUSH1 0x50 SHL SUB SWAP3 SWAP1 SWAP3 AND SWAP2 SWAP1 SWAP2 OR SWAP1 SSTORE PUSH2 0xD2A JUMP JUMPDEST DUP5 PUSH1 0x1 EQ ISZERO PUSH2 0xCD1 JUMPI PUSH1 0x1 DUP2 ADD SLOAD PUSH2 0xCA4 SWAP1 PUSH2 0xC48 SWAP1 PUSH2 0xC43 SWAP1 PUSH1 0x1 PUSH1 0x50 SHL SWAP1 DIV PUSH1 0x1 PUSH1 0x1 PUSH1 0x50 SHL SUB AND DUP8 PUSH2 0x18C8 JUMP JUMPDEST DUP2 PUSH1 0x1 ADD PUSH1 0xA PUSH2 0x100 EXP DUP2 SLOAD DUP2 PUSH1 0x1 PUSH1 0x1 PUSH1 0x50 SHL SUB MUL NOT AND SWAP1 DUP4 PUSH1 0x1 PUSH1 0x1 PUSH1 0x50 SHL SUB AND MUL OR SWAP1 SSTORE POP PUSH2 0xD2A JUMP JUMPDEST DUP5 PUSH1 0x2 EQ ISZERO PUSH2 0x70 JUMPI PUSH1 0x1 DUP2 ADD SLOAD PUSH2 0xD01 SWAP1 PUSH2 0xC48 SWAP1 PUSH2 0xC43 SWAP1 PUSH1 0x1 PUSH1 0xA0 SHL SWAP1 DIV PUSH1 0x1 PUSH1 0x1 PUSH1 0x50 SHL SUB AND DUP8 PUSH2 0x18C8 JUMP JUMPDEST DUP2 PUSH1 0x1 ADD PUSH1 0x14 PUSH2 0x100 EXP DUP2 SLOAD DUP2 PUSH1 0x1 PUSH1 0x1 PUSH1 0x50 SHL SUB MUL NOT AND SWAP1 DUP4 PUSH1 0x1 PUSH1 0x1 PUSH1 0x50 SHL SUB AND MUL OR SWAP1 SSTORE POP JUMPDEST PUSH1 0x0 DUP8 PUSH1 0x80 ADD DUP2 DUP2 MSTORE POP POP PUSH2 0xD43 DUP8 DUP8 DUP4 DUP7 PUSH1 0x0 PUSH2 0x1903 JUMP JUMPDEST POP POP POP POP POP POP POP JUMP JUMPDEST PUSH1 0x0 PUSH2 0xD56 PUSH2 0x1B35 JUMP JUMPDEST PUSH2 0xFFFF DUP5 AND PUSH1 0x0 SWAP1 DUP2 MSTORE PUSH1 0x20 SWAP2 SWAP1 SWAP2 MSTORE PUSH1 0x40 DUP2 KECCAK256 SLOAD PUSH1 0x1 PUSH1 0x1 PUSH1 0xA0 SHL SUB AND SWAP2 POP DUP3 SLT ISZERO PUSH2 0xD81 JUMPI SWAP3 SWAP4 SWAP3 JUMPDEST DUP1 PUSH1 0x1 PUSH1 0x1 PUSH1 0xA0 SHL SUB AND PUSH4 0x23DE6651 DUP7 DUP7 PUSH2 0xD9B DUP7 PUSH2 0x1B42 JUMP JUMPDEST PUSH1 0x40 MLOAD DUP5 PUSH4 0xFFFFFFFF AND PUSH1 0xE0 SHL DUP2 MSTORE PUSH1 0x4 ADD PUSH2 0xDB9 SWAP4 SWAP3 SWAP2 SWAP1 PUSH2 0x5A12 JUMP JUMPDEST PUSH1 0x0 PUSH1 0x40 MLOAD DUP1 DUP4 SUB DUP2 PUSH1 0x0 DUP8 DUP1 EXTCODESIZE ISZERO DUP1 ISZERO PUSH2 0xDD3 JUMPI PUSH1 0x0 DUP1 REVERT JUMPDEST POP GAS CALL ISZERO DUP1 ISZERO PUSH2 0xDE7 JUMPI RETURNDATASIZE PUSH1 0x0 DUP1 RETURNDATACOPY RETURNDATASIZE PUSH1 0x0 REVERT JUMPDEST POP POP POP POP POP POP POP POP POP JUMP JUMPDEST PUSH1 0x0 DUP4 PUSH2 0xE01 JUMPI POP PUSH1 0x0 PUSH2 0xE92 JUMP JUMPDEST PUSH1 0x0 DUP5 SLT PUSH2 0xE0E JUMPI PUSH1 0x0 DUP1 REVERT JUMPDEST PUSH1 0x0 PUSH2 0xE1D DUP7 PUSH2 0xFFFF AND PUSH2 0x123A JUMP JUMPDEST SWAP1 POP PUSH2 0xE32 DUP2 PUSH2 0xE2D DUP7 DUP9 PUSH2 0xBAD JUMP JUMPDEST PUSH2 0x124D JUMP JUMPDEST SWAP2 POP PUSH1 0x0 PUSH2 0xE3F DUP4 PUSH2 0xBD9 JUMP JUMPDEST SWAP1 POP PUSH2 0xE4C DUP8 DUP4 DUP4 PUSH2 0x1B63 JUMP JUMPDEST PUSH1 0x3 DUP3 PUSH1 0x60 ADD MLOAD PUSH1 0x5 DUP2 GT ISZERO PUSH2 0xE5E JUMPI INVALID JUMPDEST EQ ISZERO PUSH2 0xE74 JUMPI PUSH2 0xE6F DUP9 DUP3 DUP7 PUSH2 0x1C52 JUMP JUMPDEST PUSH2 0xE81 JUMP JUMPDEST DUP2 MLOAD PUSH2 0xE81 SWAP1 DUP10 DUP4 PUSH2 0x1D20 JUMP JUMPDEST PUSH2 0xE8E DUP9 DUP9 DUP6 DUP6 DUP10 PUSH2 0x1D97 JUMP JUMPDEST POP POP POP JUMPDEST SWAP6 SWAP5 POP POP POP POP POP JUMP JUMPDEST DUP1 PUSH2 0xEA5 JUMPI PUSH2 0xF2B JUMP JUMPDEST PUSH1 0x0 PUSH2 0xEB4 DUP6 DUP6 DUP6 PUSH1 0xB PUSH2 0x1DDE JUMP JUMPDEST SWAP1 POP PUSH1 0x0 DUP1 PUSH1 0x0 DUP5 SLT ISZERO PUSH2 0xECD JUMPI POP DUP7 SWAP1 POP PUSH1 0x0 PUSH2 0xED4 JUMP JUMPDEST POP PUSH1 0x0 SWAP1 POP DUP7 JUMPDEST PUSH1 0x0 PUSH2 0xEDF DUP6 PUSH2 0x1B42 JUMP JUMPDEST SWAP1 POP DUP2 PUSH1 0x1 PUSH1 0x1 PUSH1 0xA0 SHL SUB AND DUP4 PUSH1 0x1 PUSH1 0x1 PUSH1 0xA0 SHL SUB AND CALLER PUSH1 0x1 PUSH1 0x1 PUSH1 0xA0 SHL SUB AND PUSH1 0x0 DUP1 MLOAD PUSH1 0x20 PUSH2 0x5DB9 DUP4 CODECOPY DUP2 MLOAD SWAP2 MSTORE DUP8 DUP6 PUSH1 0x40 MLOAD PUSH2 0xF1E SWAP3 SWAP2 SWAP1 PUSH2 0x5D03 JUMP JUMPDEST PUSH1 0x40 MLOAD DUP1 SWAP2 SUB SWAP1 LOG4 POP POP POP POP JUMPDEST POP POP POP POP POP JUMP JUMPDEST PUSH1 0x0 DUP4 PUSH2 0xF41 JUMPI POP PUSH1 0x0 PUSH2 0xE92 JUMP JUMPDEST PUSH1 0x0 DUP5 SGT PUSH2 0xF4E JUMPI PUSH1 0x0 DUP1 REVERT JUMPDEST PUSH1 0x0 PUSH2 0xF5D DUP7 PUSH2 0xFFFF AND PUSH2 0x123A JUMP JUMPDEST SWAP1 POP PUSH1 0x0 PUSH2 0xF74 DUP3 PUSH2 0xF6F DUP8 DUP10 PUSH2 0xBAD JUMP JUMPDEST PUSH2 0x1E14 JUMP JUMPDEST SWAP1 POP PUSH2 0xF83 DUP9 DUP9 DUP4 DUP9 DUP9 PUSH2 0x1285 JUMP JUMPDEST POP SWAP9 SWAP8 POP POP POP POP POP POP POP POP JUMP JUMPDEST PUSH1 0x0 PUSH2 0xF9A PUSH2 0x4FFC JUMP JUMPDEST PUSH1 0x0 DUP1 PUSH1 0x0 PUSH2 0xFA8 DUP9 PUSH2 0x977 JUMP JUMPDEST SWAP1 POP PUSH1 0x0 DUP1 PUSH2 0xFB8 DUP11 DUP10 DUP6 PUSH2 0x1E51 JUMP JUMPDEST SWAP3 POP SWAP3 POP POP PUSH1 0x0 DUP1 PUSH2 0xFCE DUP11 DUP14 PUSH1 0x0 ADD MLOAD PUSH2 0x1EE5 JUMP JUMPDEST SWAP2 POP SWAP2 POP DUP12 PUSH2 0x140 ADD MLOAD PUSH1 0x1 DUP13 SUB PUSH1 0x2 DUP2 LT PUSH2 0xFE6 JUMPI INVALID JUMPDEST PUSH1 0x20 MUL ADD MLOAD SWAP9 POP DUP5 PUSH1 0x1 DUP13 SUB PUSH1 0x2 DUP2 LT PUSH2 0xFFC JUMPI INVALID JUMPDEST PUSH1 0x20 MUL ADD MLOAD SWAP8 POP DUP11 PUSH1 0x1 EQ PUSH2 0x1012 JUMPI DUP3 DUP2 PUSH2 0x1015 JUMP JUMPDEST DUP4 DUP3 JUMPDEST SWAP10 SWAP14 SWAP9 SWAP13 POP SWAP11 POP SWAP8 SWAP9 POP SWAP6 SWAP7 POP POP POP POP POP POP POP JUMP JUMPDEST PUSH1 0x0 PUSH2 0xBA6 PUSH2 0x1039 DUP5 DUP5 PUSH2 0xAFF JUMP JUMPDEST PUSH4 0x3B9ACA00 PUSH2 0xB53 JUMP JUMPDEST PUSH1 0x60 DUP7 ADD MLOAD PUSH1 0x20 DUP8 ADD MLOAD PUSH1 0x40 MLOAD PUSH4 0x51586B33 PUSH1 0xE0 SHL DUP2 MSTORE PUSH1 0x0 SWAP3 PUSH20 0x0 SWAP3 PUSH4 0x51586B33 SWAP3 PUSH2 0x1090 SWAP3 DUP12 SWAP3 DUP12 SWAP3 DUP12 SWAP2 SWAP1 DUP12 SWAP1 DUP12 SWAP1 PUSH1 0x4 ADD PUSH2 0x59CD JUMP JUMPDEST PUSH1 0x20 PUSH1 0x40 MLOAD DUP1 DUP4 SUB DUP2 DUP7 DUP1 EXTCODESIZE ISZERO DUP1 ISZERO PUSH2 0x10A8 JUMPI PUSH1 0x0 DUP1 REVERT JUMPDEST POP GAS DELEGATECALL ISZERO DUP1 ISZERO PUSH2 0x10BC JUMPI RETURNDATASIZE PUSH1 0x0 DUP1 RETURNDATACOPY RETURNDATASIZE PUSH1 0x0 REVERT JUMPDEST POP POP POP POP PUSH1 0x40 MLOAD RETURNDATASIZE PUSH1 0x1F NOT PUSH1 0x1F DUP3 ADD AND DUP3 ADD DUP1 PUSH1 0x40 MSTORE POP DUP2 ADD SWAP1 PUSH2 0x10E0 SWAP2 SWAP1 PUSH2 0x56BC JUMP JUMPDEST SWAP1 POP DUP1 ISZERO PUSH2 0x1150 JUMPI PUSH1 0x40 MLOAD PUSH4 0x6CCC642F PUSH1 0xE0 SHL DUP2 MSTORE PUSH20 0x0 SWAP1 PUSH4 0x6CCC642F SWAP1 PUSH2 0x111F SWAP1 DUP10 SWAP1 PUSH1 0x4 ADD PUSH2 0x599F JUMP JUMPDEST PUSH1 0x0 PUSH1 0x40 MLOAD DUP1 DUP4 SUB DUP2 DUP7 DUP1 EXTCODESIZE ISZERO DUP1 ISZERO PUSH2 0x1137 JUMPI PUSH1 0x0 DUP1 REVERT JUMPDEST POP GAS DELEGATECALL ISZERO DUP1 ISZERO PUSH2 0x114B JUMPI RETURNDATASIZE PUSH1 0x0 DUP1 RETURNDATACOPY RETURNDATASIZE PUSH1 0x0 REVERT JUMPDEST POP POP POP POP JUMPDEST DUP6 PUSH1 0x1 PUSH1 0x1 PUSH1 0xA0 SHL SUB AND DUP8 PUSH1 0x60 ADD MLOAD PUSH1 0x1 PUSH1 0x1 PUSH1 0xA0 SHL SUB AND DUP7 PUSH1 0x1 PUSH1 0x1 PUSH1 0xA0 SHL SUB AND PUSH32 0x19B09F1F990520654BEA0360DD08A2678D6926FD849DD49BC385862DC91AF753 DUP8 DUP8 DUP8 PUSH1 0x40 MLOAD PUSH2 0x11A5 SWAP4 SWAP3 SWAP2 SWAP1 PUSH2 0x5B88 JUMP JUMPDEST PUSH1 0x40 MLOAD DUP1 SWAP2 SUB SWAP1 LOG4 POP POP POP POP POP POP POP JUMP JUMPDEST DUP3 PUSH2 0x11D7 JUMPI PUSH2 0x11C8 DUP6 DUP8 DUP5 PUSH1 0x0 PUSH2 0x1F3B JUMP JUMPDEST PUSH2 0x11D2 DUP7 DUP9 PUSH2 0x1FCB JUMP JUMPDEST PUSH2 0xD43 JUMP JUMPDEST PUSH2 0x11DF PUSH2 0x511F JUMP JUMPDEST DUP5 DUP2 PUSH1 0x1 DUP7 SUB PUSH1 0x2 DUP2 LT PUSH2 0x11EF JUMPI INVALID JUMPDEST PUSH1 0x20 MUL ADD DUP2 SWAP1 MSTORE POP PUSH2 0x1230 DUP9 DUP8 PUSH1 0x60 ADD MLOAD DUP9 PUSH1 0x20 ADD MLOAD DUP8 PUSH1 0x1 EQ PUSH2 0x1214 JUMPI PUSH1 0x0 PUSH2 0x1216 JUMP JUMPDEST DUP7 JUMPDEST DUP9 PUSH1 0x2 EQ PUSH2 0x1225 JUMPI PUSH1 0x0 PUSH2 0x1227 JUMP JUMPDEST DUP8 JUMPDEST DUP7 DUP9 PUSH1 0x0 PUSH2 0x2074 JUMP JUMPDEST POP POP POP POP POP POP POP POP JUMP JUMPDEST PUSH2 0x1242 PUSH2 0x518C JUMP JUMPDEST PUSH2 0x96F DUP3 PUSH1 0x1 PUSH2 0x22A6 JUMP JUMPDEST PUSH1 0x0 PUSH4 0x5F5E100 DUP4 PUSH1 0x40 ADD MLOAD EQ ISZERO PUSH2 0x1266 JUMPI POP DUP1 PUSH2 0xB4D JUMP JUMPDEST PUSH2 0xBA6 PUSH4 0x5F5E100 PUSH2 0x2C6 DUP6 PUSH1 0x40 ADD MLOAD DUP6 PUSH2 0xAFF SWAP1 SWAP2 SWAP1 PUSH4 0xFFFFFFFF AND JUMP JUMPDEST PUSH1 0x0 DUP1 PUSH1 0x0 PUSH2 0x1293 DUP7 PUSH2 0x18DE JUMP JUMPDEST SWAP1 POP DUP1 PUSH2 0x12A7 JUMPI PUSH1 0x0 DUP1 SWAP3 POP SWAP3 POP POP PUSH2 0x133D JUMP JUMPDEST PUSH1 0x0 PUSH2 0x12B6 DUP9 PUSH2 0xFFFF AND PUSH2 0x123A JUMP JUMPDEST SWAP1 POP PUSH1 0x3 DUP2 PUSH1 0x60 ADD MLOAD PUSH1 0x5 DUP2 GT ISZERO PUSH2 0x12CA JUMPI INVALID JUMPDEST EQ ISZERO PUSH2 0x1311 JUMPI CALLVALUE DUP3 LT ISZERO PUSH2 0x12EA JUMPI PUSH2 0x12E5 DUP10 DUP4 CALLVALUE SUB DUP8 PUSH2 0x1C52 JUMP JUMPDEST PUSH2 0x1309 JUMP JUMPDEST CALLVALUE DUP3 EQ PUSH2 0x1309 JUMPI PUSH1 0x40 MLOAD PUSH3 0x461BCD PUSH1 0xE5 SHL DUP2 MSTORE PUSH1 0x4 ADD PUSH2 0x173 SWAP1 PUSH2 0x5A7D JUMP JUMPDEST DUP7 SWAP4 POP PUSH2 0x132B JUMP JUMPDEST PUSH2 0x1328 PUSH2 0x1323 DUP3 PUSH1 0x0 ADD MLOAD DUP12 DUP6 PUSH2 0x2340 JUMP JUMPDEST PUSH2 0xAE5 JUMP JUMPDEST SWAP4 POP JUMPDEST PUSH2 0x1338 DUP10 DUP10 DUP7 DUP5 DUP11 PUSH2 0x1D97 JUMP JUMPDEST SWAP3 POP POP POP JUMPDEST SWAP6 POP SWAP6 SWAP4 POP POP POP POP JUMP JUMPDEST PUSH2 0x1353 DUP9 DUP8 DUP8 DUP7 PUSH2 0xD4C JUMP JUMPDEST PUSH1 0x0 PUSH2 0x1362 DUP8 DUP8 DUP8 PUSH1 0x0 PUSH2 0x1DDE JUMP JUMPDEST SWAP1 POP PUSH5 0xFFFFFFFFFF DUP6 EQ ISZERO PUSH2 0x13E2 JUMPI PUSH1 0x0 PUSH2 0x138D PUSH2 0x1388 DUP5 PUSH2 0x1383 DUP9 PUSH2 0xBD9 JUMP JUMPDEST PUSH2 0x24C8 JUMP JUMPDEST PUSH2 0xBD9 JUMP JUMPDEST SWAP1 POP DUP1 PUSH1 0x0 NOT EQ ISZERO PUSH2 0x139D JUMPI POP PUSH1 0x0 JUMPDEST PUSH1 0x0 PUSH1 0x1 PUSH1 0x1 PUSH1 0xA0 SHL SUB DUP11 AND CALLER PUSH1 0x0 DUP1 MLOAD PUSH1 0x20 PUSH2 0x5DB9 DUP4 CODECOPY DUP2 MLOAD SWAP2 MSTORE PUSH1 0xA DUP7 OR PUSH2 0x13C6 DUP7 PUSH2 0x18DE JUMP JUMPDEST PUSH1 0x40 MLOAD PUSH2 0x13D4 SWAP3 SWAP2 SWAP1 PUSH2 0x5D03 JUMP JUMPDEST PUSH1 0x40 MLOAD DUP1 SWAP2 SUB SWAP1 LOG4 POP PUSH2 0x1422 JUMP JUMPDEST PUSH1 0x1 PUSH1 0x1 PUSH1 0xA0 SHL SUB DUP9 AND PUSH1 0x0 CALLER PUSH1 0x0 DUP1 MLOAD PUSH1 0x20 PUSH2 0x5DB9 DUP4 CODECOPY DUP2 MLOAD SWAP2 MSTORE PUSH1 0xB DUP6 OR PUSH2 0x140B DUP10 PUSH2 0x18DE JUMP JUMPDEST PUSH1 0x40 MLOAD PUSH2 0x1419 SWAP3 SWAP2 SWAP1 PUSH2 0x5D03 JUMP JUMPDEST PUSH1 0x40 MLOAD DUP1 SWAP2 SUB SWAP1 LOG4 JUMPDEST DUP9 PUSH1 0x1 PUSH1 0x1 PUSH1 0xA0 SHL SUB AND DUP9 PUSH1 0x1 PUSH1 0x1 PUSH1 0xA0 SHL SUB AND CALLER PUSH1 0x1 PUSH1 0x1 PUSH1 0xA0 SHL SUB AND PUSH1 0x0 DUP1 MLOAD PUSH1 0x20 PUSH2 0x5DB9 DUP4 CODECOPY DUP2 MLOAD SWAP2 MSTORE PUSH1 0x9 PUSH1 0xFF AND DUP6 OR DUP8 PUSH1 0x40 MLOAD PUSH2 0xF1E SWAP3 SWAP2 SWAP1 PUSH2 0x5D03 JUMP JUMPDEST PUSH1 0x0 DUP3 DUP3 GT ISZERO PUSH2 0x1474 JUMPI PUSH1 0x0 DUP1 REVERT JUMPDEST POP SWAP1 SUB SWAP1 JUMP JUMPDEST PUSH1 0x0 PUSH2 0x1486 DUP6 DUP6 PUSH2 0x15A2 JUMP JUMPDEST SWAP1 POP DUP1 PUSH1 0x20 ADD MLOAD PUSH1 0x0 EQ DUP1 PUSH2 0x149E JUMPI POP DUP2 DUP2 PUSH1 0x20 ADD MLOAD EQ JUMPDEST PUSH2 0x14BA JUMPI PUSH1 0x40 MLOAD PUSH3 0x461BCD PUSH1 0xE5 SHL DUP2 MSTORE PUSH1 0x4 ADD PUSH2 0x173 SWAP1 PUSH2 0x5AA2 JUMP JUMPDEST PUSH1 0x20 DUP2 ADD DUP3 SWAP1 MSTORE PUSH1 0x40 DUP2 ADD MLOAD PUSH2 0x14D0 SWAP1 DUP5 PUSH2 0x2507 JUMP JUMPDEST PUSH1 0x40 DUP3 ADD MSTORE PUSH2 0xF2B DUP2 DUP6 PUSH1 0x1 PUSH1 0x0 PUSH2 0x2519 JUMP JUMPDEST PUSH1 0x1 PUSH1 0x1 PUSH1 0xA0 SHL SUB DUP2 AND PUSH2 0x14F6 JUMPI PUSH1 0x0 DUP1 REVERT JUMPDEST PUSH1 0x1 PUSH1 0x1 PUSH1 0xA0 SHL SUB DUP2 AND PUSH2 0xFEE EQ ISZERO PUSH2 0x150E JUMPI PUSH1 0x0 DUP1 REVERT JUMPDEST PUSH1 0x1 PUSH1 0x1 PUSH1 0xA0 SHL SUB DUP2 AND PUSH2 0x5E7 EQ ISZERO PUSH2 0x1526 JUMPI PUSH1 0x0 DUP1 REVERT JUMPDEST PUSH1 0x1 PUSH1 0x1 PUSH1 0xA0 SHL SUB DUP2 AND ADDRESS EQ ISZERO PUSH2 0x153C JUMPI PUSH1 0x0 DUP1 REVERT JUMPDEST PUSH1 0x0 PUSH2 0x1547 DUP3 PUSH2 0x25B1 JUMP JUMPDEST POP POP POP POP PUSH2 0xFFFF AND SWAP1 POP DUP1 PUSH1 0x0 EQ PUSH2 0x155E JUMPI PUSH1 0x0 DUP1 REVERT JUMPDEST POP POP JUMP JUMPDEST PUSH2 0x156A PUSH2 0x501D JUMP JUMPDEST PUSH2 0x1573 DUP3 PUSH2 0x261D JUMP JUMPDEST SWAP1 POP PUSH2 0x1582 DUP2 PUSH1 0x40 ADD MLOAD PUSH2 0x1721 JUMP JUMPDEST PUSH2 0x160 DUP3 ADD MSTORE SWAP2 SWAP1 POP JUMP JUMPDEST PUSH1 0x20 SWAP2 SWAP1 SWAP2 ADD MLOAD DUP2 AND PUSH2 0xFFFF SWAP1 DUP2 AND SWAP2 AND EQ SWAP1 JUMP JUMPDEST PUSH2 0x15AA PUSH2 0x50B6 JUMP JUMPDEST PUSH1 0x0 PUSH2 0x15B4 PUSH2 0x18BB JUMP JUMPDEST PUSH1 0x1 PUSH1 0x1 PUSH1 0xA0 SHL SUB DUP1 DUP7 AND PUSH1 0x0 DUP2 DUP2 MSTORE PUSH1 0x20 DUP5 DUP2 MSTORE PUSH1 0x40 DUP1 DUP4 KECCAK256 DUP10 MLOAD SWAP1 SWAP6 AND DUP4 MSTORE SWAP4 DUP2 MSTORE SWAP1 DUP4 SWAP1 KECCAK256 DUP1 SLOAD PUSH5 0xFFFFFFFFFF PUSH1 0x1 PUSH1 0xA0 SHL DUP3 DIV AND SWAP3 DUP9 ADD DUP4 SWAP1 MSTORE PUSH1 0x1 PUSH1 0x1 PUSH1 0x50 SHL SUB PUSH1 0x1 PUSH1 0x50 SHL DUP3 DIV DUP2 AND SWAP6 DUP10 ADD SWAP6 SWAP1 SWAP6 MSTORE PUSH1 0x60 DUP9 ADD SWAP4 SWAP1 SWAP4 MSTORE PUSH1 0x1 DUP2 ADD SLOAD DUP5 AND PUSH1 0x80 DUP9 ADD MSTORE PUSH4 0xFFFFFFFF PUSH1 0x1 PUSH1 0xC8 SHL DUP5 DIV AND PUSH1 0xA0 DUP9 ADD MSTORE PUSH2 0x160 DUP9 ADD MLOAD SWAP5 SWAP6 POP SWAP4 PUSH2 0x1646 SWAP4 SWAP1 SWAP3 AND PUSH2 0x2817 JUMP JUMPDEST DUP4 MSTORE POP SWAP1 SWAP4 SWAP3 POP POP POP JUMP JUMPDEST PUSH2 0x1659 PUSH2 0x50F5 JUMP JUMPDEST PUSH2 0x168B DUP4 PUSH2 0x167C PUSH2 0x1388 DUP7 PUSH1 0x0 ADD MLOAD DUP7 PUSH2 0x160 ADD MLOAD PUSH2 0xB84 SWAP1 SWAP2 SWAP1 PUSH4 0xFFFFFFFF AND JUMP JUMPDEST PUSH1 0x20 DUP7 ADD MLOAD DUP6 SWAP3 SWAP2 SWAP1 TIMESTAMP PUSH2 0x2855 JUMP JUMPDEST POP PUSH2 0xBA6 DUP4 DUP4 PUSH2 0x291E JUMP JUMPDEST PUSH2 0x169E PUSH2 0x50F5 JUMP JUMPDEST PUSH1 0x0 PUSH2 0x16A8 PUSH2 0x2996 JUMP JUMPDEST DUP5 MLOAD PUSH1 0x1 PUSH1 0x1 PUSH1 0xA0 SHL SUB AND PUSH1 0x0 SWAP1 DUP2 MSTORE PUSH1 0x20 DUP3 DUP2 MSTORE PUSH1 0x40 DUP1 DUP4 KECCAK256 DUP8 DUP5 MSTORE SWAP1 SWAP2 MSTORE SWAP1 DUP2 SWAP1 KECCAK256 DUP6 DUP6 MSTORE DUP1 SLOAD PUSH1 0xFF PUSH1 0x1 PUSH1 0xF0 SHL DUP3 DIV AND ISZERO ISZERO PUSH1 0x60 DUP8 ADD MSTORE PUSH1 0x1 PUSH1 0x1 PUSH1 0x50 SHL SUB PUSH1 0x1 PUSH1 0xA0 SHL DUP3 DIV DUP2 AND SWAP4 DUP8 ADD SWAP4 SWAP1 SWAP4 MSTORE PUSH2 0x160 DUP9 ADD MLOAD SWAP4 SWAP5 POP SWAP1 SWAP3 PUSH2 0x1713 SWAP3 SWAP1 SWAP2 DUP8 SWAP2 AND PUSH2 0x2817 JUMP JUMPDEST PUSH1 0x20 DUP5 ADD MSTORE POP SWAP1 SWAP4 SWAP3 POP POP POP JUMP JUMPDEST PUSH2 0x1729 PUSH2 0x4FFC JUMP JUMPDEST PUSH2 0x96F DUP3 TIMESTAMP PUSH2 0x29A3 JUMP JUMPDEST PUSH2 0x173B PUSH2 0x51B3 JUMP JUMPDEST PUSH1 0x0 PUSH2 0x1745 PUSH2 0x2A64 JUMP JUMPDEST PUSH1 0x0 DUP5 DUP2 MSTORE PUSH1 0x20 DUP3 SWAP1 MSTORE PUSH1 0x40 DUP2 KECCAK256 SWAP2 SWAP3 POP DUP1 PUSH1 0x1 DUP7 EQ ISZERO PUSH2 0x1772 JUMPI POP PUSH8 0xDE0B6B3A7640000 SWAP1 POP DUP1 PUSH2 0x1835 JUMP JUMPDEST DUP3 SLOAD PUSH1 0x40 DUP1 MLOAD PUSH4 0x3FABE5A3 PUSH1 0xE2 SHL DUP2 MSTORE SWAP1 MLOAD PUSH1 0x1 PUSH1 0x1 PUSH1 0xA0 SHL SUB SWAP1 SWAP3 AND SWAP2 PUSH4 0xFEAF968C SWAP2 PUSH1 0x4 DUP1 DUP3 ADD SWAP3 PUSH1 0xA0 SWAP3 SWAP1 SWAP2 SWAP1 DUP3 SWAP1 SUB ADD DUP2 DUP7 DUP1 EXTCODESIZE ISZERO DUP1 ISZERO PUSH2 0x17B6 JUMPI PUSH1 0x0 DUP1 REVERT JUMPDEST POP GAS STATICCALL ISZERO DUP1 ISZERO PUSH2 0x17CA JUMPI RETURNDATASIZE PUSH1 0x0 DUP1 RETURNDATACOPY RETURNDATASIZE PUSH1 0x0 REVERT JUMPDEST POP POP POP POP PUSH1 0x40 MLOAD RETURNDATASIZE PUSH1 0x1F NOT PUSH1 0x1F DUP3 ADD AND DUP3 ADD DUP1 PUSH1 0x40 MSTORE POP DUP2 ADD SWAP1 PUSH2 0x17EE SWAP2 SWAP1 PUSH2 0x5876 JUMP JUMPDEST POP SWAP2 SWAP4 POP POP PUSH1 0x0 DUP4 SGT SWAP2 POP PUSH2 0x1804 SWAP1 POP JUMPI PUSH1 0x0 DUP1 REVERT JUMPDEST DUP3 SLOAD PUSH1 0xFF PUSH1 0x1 PUSH1 0xA0 SHL DUP3 DIV DUP2 AND PUSH1 0xA EXP SWAP4 POP PUSH1 0x1 PUSH1 0xA8 SHL SWAP1 SWAP2 DIV AND ISZERO PUSH2 0x1835 JUMPI PUSH2 0x1832 DUP2 PUSH2 0x2C6 DUP5 DUP1 PUSH2 0xAFF JUMP JUMPDEST SWAP1 POP JUMPDEST DUP3 SLOAD PUSH1 0x1 PUSH1 0xB0 SHL SWAP1 DIV PUSH1 0xFF AND PUSH1 0x96 DUP2 SGT ISZERO PUSH2 0x1855 JUMPI PUSH1 0x95 NOT ADD PUSH1 0xA MUL PUSH1 0x96 ADD JUMPDEST PUSH1 0x40 DUP1 MLOAD PUSH1 0xA0 DUP2 ADD DUP3 MSTORE SWAP4 DUP5 MSTORE PUSH1 0x20 DUP5 ADD SWAP3 SWAP1 SWAP3 MSTORE SWAP1 DUP3 ADD MSTORE SWAP1 SLOAD PUSH1 0xFF PUSH1 0x1 PUSH1 0xB8 SHL DUP3 DIV DUP2 AND PUSH1 0x60 DUP5 ADD MSTORE PUSH1 0x1 PUSH1 0xC0 SHL SWAP1 SWAP2 DIV AND PUSH1 0x80 DUP3 ADD MSTORE SWAP2 POP POP SWAP2 SWAP1 POP JUMP JUMPDEST PUSH1 0x0 PUSH2 0xBA6 DUP3 PUSH1 0x20 ADD MLOAD PUSH2 0x2C6 DUP5 PUSH1 0x0 ADD MLOAD DUP7 PUSH1 0x20 ADD MLOAD PUSH2 0xAFF SWAP1 SWAP2 SWAP1 PUSH4 0xFFFFFFFF AND JUMP JUMPDEST PUSH1 0x0 DUP1 PUSH2 0xB4D PUSH1 0x16 PUSH2 0x2A6D JUMP JUMPDEST DUP2 DUP2 ADD DUP3 DUP2 SLT ISZERO PUSH1 0x0 DUP4 SLT ISZERO EQ PUSH2 0xB4D JUMPI PUSH1 0x0 DUP1 REVERT JUMPDEST PUSH1 0x0 DUP1 DUP3 SLT ISZERO PUSH2 0xAFB JUMPI PUSH1 0x0 DUP1 REVERT JUMPDEST PUSH1 0x0 PUSH1 0x1 PUSH1 0x1 PUSH1 0x50 SHL SUB DUP3 GT ISZERO PUSH2 0xAFB JUMPI PUSH1 0x0 DUP1 REVERT JUMPDEST PUSH1 0x80 DUP6 ADD MLOAD ISZERO PUSH2 0x1912 JUMPI PUSH1 0x0 DUP1 REVERT JUMPDEST PUSH1 0x60 DUP5 ADD MLOAD DUP6 MLOAD PUSH2 0x1922 SWAP1 PUSH2 0xBD9 JUMP JUMPDEST SLT DUP1 ISZERO PUSH2 0x192C JUMPI POP DUP2 JUMPDEST ISZERO PUSH2 0x1960 JUMPI DUP5 MLOAD ISZERO DUP1 PUSH2 0x1944 JUMPI POP PUSH1 0x1 DUP6 PUSH1 0x40 ADD MLOAD GT ISZERO JUMPDEST PUSH2 0x1960 JUMPI PUSH1 0x40 MLOAD PUSH3 0x461BCD PUSH1 0xE5 SHL DUP2 MSTORE PUSH1 0x4 ADD PUSH2 0x173 SWAP1 PUSH2 0x5B64 JUMP JUMPDEST PUSH2 0x1969 DUP5 PUSH2 0x948 JUMP JUMPDEST ISZERO PUSH2 0x19CC JUMPI PUSH1 0x0 PUSH2 0x1978 PUSH2 0x2A86 JUMP JUMPDEST PUSH1 0x60 DUP8 ADD MLOAD PUSH1 0x1 PUSH1 0x1 PUSH1 0xA0 SHL SUB SWAP1 DUP2 AND PUSH1 0x0 SWAP1 DUP2 MSTORE PUSH1 0x20 SWAP3 DUP4 MSTORE PUSH1 0x40 DUP1 DUP3 KECCAK256 DUP10 MLOAD SWAP1 SWAP4 AND DUP3 MSTORE SWAP2 DUP4 MSTORE KECCAK256 DUP1 SLOAD SWAP2 DUP9 ADD MLOAD SWAP1 SWAP3 POP PUSH5 0xFFFFFFFFFF SWAP1 SWAP2 AND SWAP1 DUP2 EQ DUP1 PUSH2 0x19C0 JUMPI POP DUP1 ISZERO JUMPDEST PUSH2 0x19C9 JUMPI PUSH1 0x0 DUP1 REVERT JUMPDEST POP POP JUMPDEST PUSH1 0x0 PUSH2 0x19EC PUSH2 0xC43 PUSH2 0x1388 DUP8 PUSH2 0x160 ADD MLOAD DUP10 PUSH1 0x20 ADD MLOAD DUP11 PUSH1 0x0 ADD MLOAD PUSH2 0x2A93 JUMP JUMPDEST SWAP1 POP DUP2 ISZERO PUSH2 0x1A75 JUMPI PUSH1 0x40 DUP1 MLOAD PUSH1 0xE0 DUP2 ADD DUP3 MSTORE DUP6 SLOAD PUSH1 0x1 PUSH1 0x1 PUSH1 0x50 SHL SUB DUP1 DUP3 AND DUP4 MSTORE PUSH1 0x1 PUSH1 0x50 SHL DUP1 DUP4 DIV DUP3 AND PUSH1 0x20 DUP6 ADD MSTORE PUSH1 0x1 PUSH1 0xA0 SHL DUP1 DUP5 DIV PUSH5 0xFFFFFFFFFF AND SWAP6 DUP6 ADD SWAP6 SWAP1 SWAP6 MSTORE PUSH1 0x1 PUSH1 0xC8 SHL SWAP1 SWAP3 DIV PUSH4 0xFFFFFFFF AND PUSH1 0x60 DUP5 ADD MSTORE PUSH1 0x1 DUP9 ADD SLOAD DUP1 DUP3 AND PUSH1 0x80 DUP6 ADD MSTORE SWAP2 DUP3 DIV DUP2 AND PUSH1 0xA0 DUP5 ADD MSTORE SWAP3 SWAP1 DIV SWAP1 SWAP2 AND PUSH1 0xC0 DUP3 ADD MSTORE PUSH2 0x1A75 SWAP1 DUP8 SWAP1 DUP8 SWAP1 DUP5 PUSH2 0x2AB1 JUMP JUMPDEST PUSH2 0x1A82 DUP7 PUSH1 0x40 ADD MLOAD PUSH2 0x18ED JUMP JUMPDEST DUP5 SLOAD PUSH1 0x1 PUSH1 0x1 PUSH1 0x50 SHL SUB SWAP2 SWAP1 SWAP2 AND PUSH1 0x1 PUSH1 0x50 SHL MUL PUSH10 0xFFFFFFFFFFFFFFFFFFFF PUSH1 0x50 SHL NOT SWAP1 SWAP2 AND OR DUP5 SSTORE PUSH1 0x20 DUP7 ADD MLOAD PUSH2 0x1AB9 SWAP1 PUSH2 0x2F83 JUMP JUMPDEST DUP5 SLOAD PUSH5 0xFFFFFFFFFF SWAP2 SWAP1 SWAP2 AND PUSH1 0x1 PUSH1 0xA0 SHL MUL PUSH5 0xFFFFFFFFFF PUSH1 0xA0 SHL NOT SWAP1 SWAP2 AND OR DUP5 SSTORE PUSH1 0xA0 DUP7 ADD MLOAD PUSH2 0x1AE9 SWAP1 PUSH2 0x2F97 JUMP JUMPDEST DUP5 SLOAD PUSH4 0xFFFFFFFF SWAP2 SWAP1 SWAP2 AND PUSH1 0x1 PUSH1 0xC8 SHL MUL PUSH4 0xFFFFFFFF PUSH1 0xC8 SHL NOT SWAP1 SWAP2 AND OR DUP5 SSTORE PUSH2 0x1B12 DUP2 PUSH2 0x18ED JUMP JUMPDEST DUP5 SLOAD PUSH1 0x1 PUSH1 0x1 PUSH1 0x50 SHL SUB NOT AND PUSH1 0x1 PUSH1 0x1 PUSH1 0x50 SHL SUB SWAP2 SWAP1 SWAP2 AND OR SWAP1 SWAP4 SSTORE POP POP POP POP POP JUMP JUMPDEST PUSH1 0x0 DUP1 PUSH2 0xB4D PUSH1 0x21 PUSH2 0x2A6D JUMP JUMPDEST PUSH1 0x0 DUP1 DUP3 SLT ISZERO PUSH2 0x1B5C JUMPI PUSH2 0x1B55 DUP3 PUSH2 0xBD9 JUMP JUMPDEST SWAP1 POP PUSH2 0x972 JUMP JUMPDEST POP DUP1 PUSH2 0x972 JUMP JUMPDEST PUSH1 0x0 PUSH2 0x1B6D PUSH2 0x2FAA JUMP JUMPDEST DUP4 MLOAD PUSH1 0x1 PUSH1 0x1 PUSH1 0xA0 SHL SUB AND PUSH1 0x0 SWAP1 DUP2 MSTORE PUSH1 0x20 DUP3 SWAP1 MSTORE PUSH1 0x40 SWAP1 KECCAK256 SLOAD SWAP1 SWAP2 POP DUP1 DUP4 GT PUSH2 0x1B98 JUMPI POP POP PUSH2 0x1C4D JUMP JUMPDEST PUSH1 0x0 PUSH2 0x1BA3 DUP7 PUSH2 0x2FB7 JUMP JUMPDEST SWAP1 POP PUSH1 0x0 DUP2 PUSH1 0x1 PUSH1 0x1 PUSH1 0xA0 SHL SUB AND PUSH4 0xB5E4DA23 DUP7 PUSH1 0x40 MLOAD DUP3 PUSH4 0xFFFFFFFF AND PUSH1 0xE0 SHL DUP2 MSTORE PUSH1 0x4 ADD PUSH2 0x1BD3 SWAP2 SWAP1 PUSH2 0x5A74 JUMP JUMPDEST PUSH1 0x0 PUSH1 0x40 MLOAD DUP1 DUP4 SUB DUP2 DUP7 DUP1 EXTCODESIZE ISZERO DUP1 ISZERO PUSH2 0x1BEB JUMPI PUSH1 0x0 DUP1 REVERT JUMPDEST POP GAS STATICCALL ISZERO DUP1 ISZERO PUSH2 0x1BFF JUMPI RETURNDATASIZE PUSH1 0x0 DUP1 RETURNDATACOPY RETURNDATASIZE PUSH1 0x0 REVERT JUMPDEST POP POP POP POP PUSH1 0x40 MLOAD RETURNDATASIZE PUSH1 0x0 DUP3 RETURNDATACOPY PUSH1 0x1F RETURNDATASIZE SWAP1 DUP2 ADD PUSH1 0x1F NOT AND DUP3 ADD PUSH1 0x40 MSTORE PUSH2 0x1C27 SWAP2 SWAP1 DUP2 ADD SWAP1 PUSH2 0x55AE JUMP JUMPDEST SWAP1 POP PUSH1 0x0 PUSH2 0x1C35 DUP8 DUP4 PUSH2 0x2FE7 JUMP JUMPDEST SWAP1 POP PUSH2 0x1C41 DUP5 DUP3 PUSH2 0x2507 JUMP JUMPDEST DUP7 GT ISZERO PUSH2 0x1230 JUMPI PUSH1 0x0 DUP1 REVERT JUMPDEST POP POP POP JUMP JUMPDEST DUP1 ISZERO PUSH2 0x1CE4 JUMPI PUSH20 0x82AF49447D8A07E3BD95BD0D56F35241523FBAB1 PUSH1 0x1 PUSH1 0x1 PUSH1 0xA0 SHL SUB AND PUSH4 0xD0E30DB0 DUP4 PUSH1 0x40 MLOAD DUP3 PUSH4 0xFFFFFFFF AND PUSH1 0xE0 SHL DUP2 MSTORE PUSH1 0x4 ADD PUSH1 0x0 PUSH1 0x40 MLOAD DUP1 DUP4 SUB DUP2 DUP6 DUP9 DUP1 EXTCODESIZE ISZERO DUP1 ISZERO PUSH2 0x1CA7 JUMPI PUSH1 0x0 DUP1 REVERT JUMPDEST POP GAS CALL ISZERO DUP1 ISZERO PUSH2 0x1CBB JUMPI RETURNDATASIZE PUSH1 0x0 DUP1 RETURNDATACOPY RETURNDATASIZE PUSH1 0x0 REVERT JUMPDEST POP POP POP POP POP PUSH2 0x1CDF PUSH20 0x82AF49447D8A07E3BD95BD0D56F35241523FBAB1 DUP5 DUP5 PUSH2 0x1D20 JUMP JUMPDEST PUSH2 0x1C4D JUMP JUMPDEST PUSH1 0x40 MLOAD PUSH1 0x1 PUSH1 0x1 PUSH1 0xA0 SHL SUB DUP5 AND SWAP1 DUP4 ISZERO PUSH2 0x8FC MUL SWAP1 DUP5 SWAP1 PUSH1 0x0 DUP2 DUP2 DUP2 DUP6 DUP9 DUP9 CALL SWAP4 POP POP POP POP ISZERO DUP1 ISZERO PUSH2 0x1D1A JUMPI RETURNDATASIZE PUSH1 0x0 DUP1 RETURNDATACOPY RETURNDATASIZE PUSH1 0x0 REVERT JUMPDEST POP POP POP POP JUMP JUMPDEST DUP3 PUSH1 0x1 PUSH1 0x1 PUSH1 0xA0 SHL SUB AND PUSH4 0xA9059CBB DUP4 DUP4 PUSH1 0x40 MLOAD DUP4 PUSH4 0xFFFFFFFF AND PUSH1 0xE0 SHL DUP2 MSTORE PUSH1 0x4 ADD DUP1 DUP4 PUSH1 0x1 PUSH1 0x1 PUSH1 0xA0 SHL SUB AND DUP2 MSTORE PUSH1 0x20 ADD DUP3 DUP2 MSTORE PUSH1 0x20 ADD SWAP3 POP POP POP PUSH1 0x0 PUSH1 0x40 MLOAD DUP1 DUP4 SUB DUP2 PUSH1 0x0 DUP8 DUP1 EXTCODESIZE ISZERO DUP1 ISZERO PUSH2 0x1D77 JUMPI PUSH1 0x0 DUP1 REVERT JUMPDEST POP GAS CALL ISZERO DUP1 ISZERO PUSH2 0x1D8B JUMPI RETURNDATASIZE PUSH1 0x0 DUP1 RETURNDATACOPY RETURNDATASIZE PUSH1 0x0 REVERT JUMPDEST POP POP POP POP PUSH2 0x1C4D PUSH2 0x31F0 JUMP JUMPDEST PUSH1 0x0 DUP1 PUSH2 0x1DA4 DUP5 DUP7 PUSH2 0x325D JUMP JUMPDEST SWAP1 POP PUSH2 0x1DB0 DUP4 DUP3 PUSH2 0xB84 JUMP JUMPDEST SWAP2 POP PUSH2 0x1DBD DUP8 DUP8 DUP5 PUSH2 0x328D JUMP JUMPDEST PUSH2 0x1DC8 DUP7 DUP4 DUP4 PUSH2 0x330D JUMP JUMPDEST DUP4 MLOAD PUSH2 0x1DD4 SWAP1 DUP7 PUSH2 0x3400 JUMP JUMPDEST POP SWAP6 SWAP5 POP POP POP POP POP JUMP JUMPDEST PUSH9 0x10000000000000000 PUSH1 0x1 PUSH1 0xE0 SHL SUB PUSH1 0x40 DUP6 SWAP1 SHL AND PUSH8 0xFFFF000000000000 PUSH1 0x30 DUP6 SWAP1 SHL AND OR PUSH1 0x8 DUP4 SWAP1 SHL OR DUP2 OR SWAP5 SWAP4 POP POP POP POP JUMP JUMPDEST PUSH1 0x0 PUSH4 0x5F5E100 DUP4 PUSH1 0x40 ADD MLOAD SLT ISZERO PUSH2 0x1E42 JUMPI PUSH2 0x1E3B PUSH1 0x1 PUSH2 0x1E35 DUP6 DUP6 PUSH2 0x124D JUMP JUMPDEST SWAP1 PUSH2 0x18C8 JUMP JUMPDEST SWAP1 POP PUSH2 0xB4D JUMP JUMPDEST PUSH2 0xBA6 DUP4 PUSH2 0xE2D DUP5 PUSH1 0x1 PUSH2 0x18C8 JUMP JUMPDEST PUSH1 0x0 DUP1 PUSH1 0x0 DUP1 PUSH2 0x1E5F PUSH2 0x2A86 JUMP JUMPDEST PUSH1 0x1 PUSH1 0x1 PUSH1 0xA0 SHL SUB DUP8 DUP2 AND PUSH1 0x0 SWAP1 DUP2 MSTORE PUSH1 0x20 SWAP3 DUP4 MSTORE PUSH1 0x40 DUP1 DUP3 KECCAK256 DUP12 MLOAD SWAP1 SWAP4 AND DUP3 MSTORE SWAP2 SWAP1 SWAP3 MSTORE SWAP1 KECCAK256 DUP1 SLOAD DUP7 MLOAD PUSH5 0xFFFFFFFFFF DUP3 AND SWAP7 POP SWAP2 SWAP3 POP PUSH2 0x1EB3 SWAP2 SWAP1 DUP7 SWAP1 PUSH1 0x1 PUSH1 0x28 SHL SWAP1 DIV PUSH1 0x1 PUSH1 0x1 PUSH1 0x50 SHL SUB AND PUSH2 0x2817 JUMP JUMPDEST SWAP3 POP PUSH2 0x1ED9 DUP6 PUSH1 0x1 PUSH1 0x20 MUL ADD MLOAD DUP3 SLOAD DUP7 SWAP1 PUSH1 0x1 PUSH1 0x78 SHL SWAP1 DIV PUSH1 0x1 PUSH1 0x1 PUSH1 0x50 SHL SUB AND PUSH2 0x2817 JUMP JUMPDEST SWAP2 POP POP SWAP4 POP SWAP4 POP SWAP4 SWAP1 POP JUMP JUMPDEST PUSH1 0x0 DUP1 PUSH1 0x0 PUSH2 0x1EF2 PUSH2 0x18BB JUMP JUMPDEST PUSH1 0x1 PUSH1 0x1 PUSH1 0xA0 SHL SUB SWAP6 DUP7 AND PUSH1 0x0 SWAP1 DUP2 MSTORE PUSH1 0x20 SWAP2 DUP3 MSTORE PUSH1 0x40 DUP1 DUP3 KECCAK256 SWAP7 SWAP1 SWAP8 AND DUP2 MSTORE SWAP5 SWAP1 MSTORE POP POP POP KECCAK256 PUSH1 0x1 ADD SLOAD PUSH1 0x1 PUSH1 0x1 PUSH1 0x50 SHL SUB PUSH1 0x1 PUSH1 0x50 SHL DUP3 DIV DUP2 AND SWAP3 PUSH1 0x1 PUSH1 0xA0 SHL SWAP1 SWAP3 DIV AND SWAP1 JUMP JUMPDEST DUP3 MLOAD PUSH1 0x20 DUP6 ADD MLOAD EQ PUSH2 0x1F53 JUMPI DUP4 MLOAD ISZERO PUSH2 0x1F53 JUMPI PUSH1 0x0 DUP1 REVERT JUMPDEST PUSH1 0x80 DUP5 ADD MLOAD PUSH2 0x1F62 SWAP1 DUP3 PUSH2 0x18C8 JUMP JUMPDEST PUSH1 0x80 DUP6 ADD MSTORE DUP4 MLOAD PUSH2 0x1F73 SWAP1 DUP4 PUSH2 0x18C8 JUMP JUMPDEST DUP1 DUP6 MSTORE PUSH1 0x0 SLT ISZERO PUSH2 0x1F83 JUMPI PUSH1 0x0 DUP1 REVERT JUMPDEST PUSH1 0x20 DUP4 ADD MLOAD PUSH2 0x1F92 SWAP1 DUP4 PUSH2 0x18C8 JUMP JUMPDEST PUSH1 0x20 DUP5 ADD DUP2 SWAP1 MSTORE PUSH1 0x0 SLT DUP1 ISZERO PUSH2 0x1FAC JUMPI POP PUSH1 0xA DUP4 PUSH1 0x20 ADD MLOAD SLT JUMPDEST ISZERO PUSH2 0x1FB9 JUMPI PUSH1 0x0 PUSH1 0x20 DUP5 ADD MSTORE JUMPDEST PUSH1 0x0 DUP4 PUSH1 0x20 ADD MLOAD SGT ISZERO PUSH2 0x1D1A JUMPI PUSH1 0x0 DUP1 REVERT JUMPDEST PUSH1 0x0 PUSH2 0x1FD5 PUSH2 0x2996 JUMP JUMPDEST DUP3 MLOAD PUSH1 0x1 PUSH1 0x1 PUSH1 0xA0 SHL SUB AND PUSH1 0x0 SWAP1 DUP2 MSTORE PUSH1 0x20 DUP3 DUP2 MSTORE PUSH1 0x40 DUP1 DUP4 KECCAK256 DUP8 MLOAD DUP5 MSTORE SWAP1 SWAP2 MSTORE SWAP1 DUP2 SWAP1 KECCAK256 SWAP1 DUP6 ADD MLOAD SWAP2 SWAP3 POP SWAP1 PUSH2 0x200B SWAP1 PUSH2 0x18ED JUMP JUMPDEST DUP2 SLOAD PUSH1 0x60 DUP7 ADD MLOAD DUP1 ISZERO ISZERO PUSH1 0x1 PUSH1 0xF0 SHL MUL PUSH1 0xFF PUSH1 0xF0 SHL NOT PUSH1 0x1 PUSH1 0x1 PUSH1 0x50 SHL SUB SWAP5 SWAP1 SWAP5 AND PUSH1 0x1 PUSH1 0xA0 SHL MUL PUSH10 0xFFFFFFFFFFFFFFFFFFFF PUSH1 0xA0 SHL NOT SWAP1 SWAP4 AND SWAP3 SWAP1 SWAP3 OR SWAP3 SWAP1 SWAP3 AND OR DUP3 SSTORE PUSH2 0x160 DUP5 ADD MLOAD PUSH1 0x40 DUP6 ADD MLOAD DUP7 MLOAD PUSH1 0x20 DUP9 ADD MLOAD PUSH2 0x1D1A SWAP5 DUP7 SWAP5 SWAP4 DUP10 SWAP4 SWAP1 SWAP3 SWAP1 SWAP2 PUSH2 0x3455 JUMP JUMPDEST PUSH1 0x0 PUSH2 0x207E PUSH2 0x2A86 JUMP JUMPDEST PUSH1 0x1 PUSH1 0x1 PUSH1 0xA0 SHL SUB DUP1 DUP11 AND PUSH1 0x0 SWAP1 DUP2 MSTORE PUSH1 0x20 SWAP3 DUP4 MSTORE PUSH1 0x40 DUP1 DUP3 KECCAK256 DUP14 MLOAD SWAP1 SWAP4 AND DUP3 MSTORE SWAP2 SWAP1 SWAP3 MSTORE SWAP1 KECCAK256 DUP1 SLOAD SWAP1 SWAP2 POP PUSH5 0xFFFFFFFFFF AND DUP8 DUP2 EQ DUP1 PUSH2 0x20BD JUMPI POP DUP1 ISZERO JUMPDEST PUSH2 0x20C6 JUMPI PUSH1 0x0 DUP1 REVERT JUMPDEST DUP5 MLOAD DUP3 SLOAD PUSH1 0x0 SWAP2 PUSH2 0x20E8 SWAP2 DUP12 SWAP1 PUSH1 0x1 PUSH1 0x28 SHL SWAP1 DIV PUSH1 0x1 PUSH1 0x1 PUSH1 0x50 SHL SUB AND PUSH2 0x2817 JUMP JUMPDEST SWAP1 POP PUSH1 0x0 PUSH2 0x2110 DUP8 PUSH1 0x1 PUSH1 0x20 MUL ADD MLOAD DUP6 SLOAD DUP13 SWAP1 PUSH1 0x1 PUSH1 0x78 SHL SWAP1 DIV PUSH1 0x1 PUSH1 0x1 PUSH1 0x50 SHL SUB AND PUSH2 0x2817 JUMP JUMPDEST SWAP1 POP DUP9 ISZERO PUSH2 0x2198 JUMPI PUSH2 0x2122 DUP3 DUP11 PUSH2 0x18C8 JUMP JUMPDEST SWAP2 POP PUSH2 0x2151 DUP13 DUP13 DUP15 PUSH2 0x140 ADD MLOAD PUSH1 0x0 PUSH1 0x2 DUP2 LT PUSH2 0x213B JUMPI INVALID JUMPDEST PUSH1 0x20 MUL ADD MLOAD DUP14 DUP14 DUP13 PUSH1 0x0 JUMPDEST PUSH1 0x20 MUL ADD MLOAD DUP12 PUSH2 0x3534 JUMP JUMPDEST PUSH2 0x216C PUSH2 0xC48 PUSH2 0xC43 PUSH2 0x1388 DUP11 PUSH1 0x0 PUSH1 0x20 MUL ADD MLOAD DUP15 DUP8 PUSH2 0x2A93 JUMP JUMPDEST DUP5 SLOAD PUSH1 0x1 PUSH1 0x1 PUSH1 0x50 SHL SUB SWAP2 SWAP1 SWAP2 AND PUSH1 0x1 PUSH1 0x28 SHL MUL PUSH15 0xFFFFFFFFFFFFFFFFFFFF0000000000 NOT SWAP1 SWAP2 AND OR DUP5 SSTORE JUMPDEST DUP8 ISZERO PUSH2 0x2215 JUMPI PUSH2 0x21A8 DUP2 DUP10 PUSH2 0x18C8 JUMP JUMPDEST SWAP1 POP PUSH2 0x21D0 DUP13 DUP13 DUP15 PUSH2 0x140 ADD MLOAD PUSH1 0x1 PUSH1 0x2 DUP2 LT PUSH2 0x21C1 JUMPI INVALID JUMPDEST PUSH1 0x20 MUL ADD MLOAD DUP14 DUP13 DUP13 PUSH1 0x1 PUSH2 0x2146 JUMP JUMPDEST PUSH2 0x21EB PUSH2 0xC48 PUSH2 0xC43 PUSH2 0x1388 DUP11 PUSH1 0x1 PUSH1 0x20 MUL ADD MLOAD DUP15 DUP7 PUSH2 0x2A93 JUMP JUMPDEST DUP5 SLOAD PUSH1 0x1 PUSH1 0x1 PUSH1 0x50 SHL SUB SWAP2 SWAP1 SWAP2 AND PUSH1 0x1 PUSH1 0x78 SHL MUL PUSH10 0xFFFFFFFFFFFFFFFFFFFF PUSH1 0x78 SHL NOT SWAP1 SWAP2 AND OR DUP5 SSTORE JUMPDEST DUP6 ISZERO PUSH2 0x2284 JUMPI DUP2 ISZERO DUP1 PUSH2 0x2232 JUMPI POP PUSH2 0x1A0 DUP13 ADD MLOAD MLOAD PUSH1 0x0 DUP4 SWAP1 SUB SLT ISZERO JUMPDEST PUSH2 0x224E JUMPI PUSH1 0x40 MLOAD PUSH3 0x461BCD PUSH1 0xE5 SHL DUP2 MSTORE PUSH1 0x4 ADD PUSH2 0x173 SWAP1 PUSH2 0x5B18 JUMP JUMPDEST DUP1 ISZERO DUP1 PUSH2 0x2268 JUMPI POP PUSH2 0x1A0 DUP13 ADD MLOAD PUSH1 0x20 ADD MLOAD PUSH1 0x0 DUP3 SWAP1 SUB SLT ISZERO JUMPDEST PUSH2 0x2284 JUMPI PUSH1 0x40 MLOAD PUSH3 0x461BCD PUSH1 0xE5 SHL DUP2 MSTORE PUSH1 0x4 ADD PUSH2 0x173 SWAP1 PUSH2 0x5B18 JUMP JUMPDEST PUSH2 0x2298 DUP5 DUP4 DUP4 PUSH2 0x2293 DUP15 PUSH2 0x2F83 JUMP JUMPDEST PUSH2 0x360E JUMP JUMPDEST POP POP POP POP POP POP POP POP POP POP POP POP JUMP JUMPDEST PUSH2 0x22AE PUSH2 0x518C JUMP JUMPDEST PUSH1 0x0 PUSH2 0x22B8 PUSH2 0x364C JUMP JUMPDEST PUSH1 0x0 DUP6 DUP2 MSTORE PUSH1 0x20 DUP3 DUP2 MSTORE PUSH1 0x40 DUP1 DUP4 KECCAK256 DUP8 ISZERO ISZERO DUP5 MSTORE DUP3 MSTORE SWAP2 DUP3 SWAP1 KECCAK256 DUP3 MLOAD PUSH1 0xA0 DUP2 ADD DUP5 MSTORE DUP2 SLOAD PUSH1 0x1 PUSH1 0x1 PUSH1 0xA0 SHL SUB DUP2 AND DUP3 MSTORE PUSH1 0xFF PUSH1 0x1 PUSH1 0xA0 SHL DUP3 DIV DUP2 AND ISZERO ISZERO SWAP5 DUP4 ADD SWAP5 SWAP1 SWAP5 MSTORE PUSH1 0x1 PUSH1 0xB0 SHL DUP2 DIV DUP5 AND PUSH1 0xA EXP SWAP5 DUP3 ADD SWAP5 SWAP1 SWAP5 MSTORE SWAP4 SWAP5 POP SWAP3 SWAP2 PUSH1 0x60 DUP4 ADD SWAP2 PUSH1 0x1 PUSH1 0xA8 SHL SWAP1 SWAP2 DIV AND PUSH1 0x5 DUP2 GT ISZERO PUSH2 0x232D JUMPI INVALID JUMPDEST DUP2 MSTORE PUSH1 0x0 PUSH1 0x20 SWAP1 SWAP2 ADD MSTORE SWAP6 SWAP5 POP POP POP POP POP JUMP JUMPDEST PUSH1 0x0 DUP1 DUP5 PUSH1 0x1 PUSH1 0x1 PUSH1 0xA0 SHL SUB AND PUSH4 0x70A08231 ADDRESS PUSH1 0x40 MLOAD DUP3 PUSH4 0xFFFFFFFF AND PUSH1 0xE0 SHL DUP2 MSTORE PUSH1 0x4 ADD DUP1 DUP3 PUSH1 0x1 PUSH1 0x1 PUSH1 0xA0 SHL SUB AND DUP2 MSTORE PUSH1 0x20 ADD SWAP2 POP POP PUSH1 0x20 PUSH1 0x40 MLOAD DUP1 DUP4 SUB DUP2 DUP7 DUP1 EXTCODESIZE ISZERO DUP1 ISZERO PUSH2 0x2390 JUMPI PUSH1 0x0 DUP1 REVERT JUMPDEST POP GAS STATICCALL ISZERO DUP1 ISZERO PUSH2 0x23A4 JUMPI RETURNDATASIZE PUSH1 0x0 DUP1 RETURNDATACOPY RETURNDATASIZE PUSH1 0x0 REVERT JUMPDEST POP POP POP POP PUSH1 0x40 MLOAD RETURNDATASIZE PUSH1 0x20 DUP2 LT ISZERO PUSH2 0x23BA JUMPI PUSH1 0x0 DUP1 REVERT JUMPDEST POP MLOAD PUSH1 0x40 DUP1 MLOAD PUSH4 0x23B872DD PUSH1 0xE0 SHL DUP2 MSTORE PUSH1 0x1 PUSH1 0x1 PUSH1 0xA0 SHL SUB DUP8 DUP2 AND PUSH1 0x4 DUP4 ADD MSTORE ADDRESS PUSH1 0x24 DUP4 ADD MSTORE PUSH1 0x44 DUP3 ADD DUP8 SWAP1 MSTORE SWAP2 MLOAD SWAP3 SWAP4 POP SWAP1 DUP8 AND SWAP2 PUSH4 0x23B872DD SWAP2 PUSH1 0x64 DUP1 DUP3 ADD SWAP3 PUSH1 0x0 SWAP3 SWAP1 SWAP2 SWAP1 DUP3 SWAP1 SUB ADD DUP2 DUP4 DUP8 DUP1 EXTCODESIZE ISZERO DUP1 ISZERO PUSH2 0x2417 JUMPI PUSH1 0x0 DUP1 REVERT JUMPDEST POP GAS CALL ISZERO DUP1 ISZERO PUSH2 0x242B JUMPI RETURNDATASIZE PUSH1 0x0 DUP1 RETURNDATACOPY RETURNDATASIZE PUSH1 0x0 REVERT JUMPDEST POP POP POP POP PUSH2 0x2437 PUSH2 0x31F0 JUMP JUMPDEST PUSH1 0x0 DUP6 PUSH1 0x1 PUSH1 0x1 PUSH1 0xA0 SHL SUB AND PUSH4 0x70A08231 ADDRESS PUSH1 0x40 MLOAD DUP3 PUSH4 0xFFFFFFFF AND PUSH1 0xE0 SHL DUP2 MSTORE PUSH1 0x4 ADD DUP1 DUP3 PUSH1 0x1 PUSH1 0x1 PUSH1 0xA0 SHL SUB AND DUP2 MSTORE PUSH1 0x20 ADD SWAP2 POP POP PUSH1 0x20 PUSH1 0x40 MLOAD DUP1 DUP4 SUB DUP2 DUP7 DUP1 EXTCODESIZE ISZERO DUP1 ISZERO PUSH2 0x2486 JUMPI PUSH1 0x0 DUP1 REVERT JUMPDEST POP GAS STATICCALL ISZERO DUP1 ISZERO PUSH2 0x249A JUMPI RETURNDATASIZE PUSH1 0x0 DUP1 RETURNDATACOPY RETURNDATASIZE PUSH1 0x0 REVERT JUMPDEST POP POP POP POP PUSH1 0x40 MLOAD RETURNDATASIZE PUSH1 0x20 DUP2 LT ISZERO PUSH2 0x24B0 JUMPI PUSH1 0x0 DUP1 REVERT JUMPDEST POP MLOAD SWAP1 POP PUSH2 0x24BE DUP2 DUP4 PUSH2 0x1465 JUMP JUMPDEST SWAP7 SWAP6 POP POP POP POP POP POP JUMP JUMPDEST PUSH1 0x0 DUP1 DUP3 SLT ISZERO PUSH2 0x2501 JUMPI PUSH2 0x24FC PUSH1 0x1 PUSH2 0x24F6 DUP6 PUSH1 0x20 ADD MLOAD PUSH2 0x2C6 DUP8 PUSH1 0x0 ADD MLOAD DUP8 PUSH2 0xAFF SWAP1 SWAP2 SWAP1 PUSH4 0xFFFFFFFF AND JUMP JUMPDEST SWAP1 PUSH2 0x3659 JUMP JUMPDEST PUSH2 0xBA6 JUMP JUMPDEST POP SWAP2 SWAP1 POP JUMP JUMPDEST PUSH1 0x0 DUP3 DUP3 ADD DUP4 DUP2 LT ISZERO PUSH2 0xBA6 JUMPI PUSH1 0x0 DUP1 REVERT JUMPDEST PUSH1 0x0 PUSH2 0x2523 PUSH2 0x18BB JUMP JUMPDEST PUSH1 0x60 DUP7 ADD MLOAD PUSH1 0x1 PUSH1 0x1 PUSH1 0xA0 SHL SUB SWAP1 DUP2 AND PUSH1 0x0 SWAP1 DUP2 MSTORE PUSH1 0x20 DUP4 DUP2 MSTORE PUSH1 0x40 DUP1 DUP4 KECCAK256 DUP10 MLOAD SWAP1 SWAP5 AND DUP4 MSTORE SWAP3 SWAP1 MSTORE KECCAK256 SWAP1 SWAP2 POP PUSH2 0x255D DUP7 DUP7 DUP4 DUP8 DUP8 PUSH2 0x1903 JUMP JUMPDEST PUSH1 0x1 DUP2 ADD DUP1 SLOAD PUSH1 0x1 PUSH1 0x1 PUSH1 0x50 SHL SUB NOT AND SWAP1 DUP2 SWAP1 SSTORE PUSH1 0x1 PUSH1 0x50 SHL SWAP1 DIV PUSH1 0x1 PUSH1 0x1 PUSH1 0x50 SHL SUB AND ISZERO DUP1 ISZERO PUSH2 0x25A0 JUMPI POP PUSH1 0x1 DUP2 ADD SLOAD PUSH1 0x1 PUSH1 0xA0 SHL SWAP1 DIV PUSH1 0x1 PUSH1 0x1 PUSH1 0x50 SHL SUB AND ISZERO JUMPDEST PUSH2 0x25A9 JUMPI PUSH1 0x0 DUP1 REVERT JUMPDEST POP POP POP POP POP POP JUMP JUMPDEST PUSH1 0x0 DUP1 PUSH1 0x0 DUP1 PUSH1 0x0 DUP1 PUSH2 0x25C2 PUSH2 0x366F JUMP JUMPDEST PUSH1 0x1 PUSH1 0x1 PUSH1 0xA0 SHL SUB SWAP1 SWAP8 AND PUSH1 0x0 SWAP1 DUP2 MSTORE PUSH1 0x20 SWAP8 SWAP1 SWAP8 MSTORE POP POP PUSH1 0x40 SWAP1 SWAP5 KECCAK256 SLOAD PUSH2 0xFFFF DUP2 AND SWAP6 PUSH4 0xFFFFFFFF PUSH3 0x10000 DUP4 DIV DUP2 AND SWAP7 POP PUSH7 0x1000000000000 DUP4 DIV AND SWAP5 POP PUSH1 0xFF PUSH1 0x1 PUSH1 0x50 SHL DUP4 DIV AND SWAP4 POP PUSH1 0x1 PUSH1 0x58 SHL SWAP1 SWAP2 DIV PUSH1 0xD8 SHL SWAP2 POP JUMP JUMPDEST PUSH2 0x2625 PUSH2 0x501D JUMP JUMPDEST PUSH1 0x0 PUSH2 0x262F PUSH2 0x367C JUMP JUMPDEST PUSH1 0x1 PUSH1 0x1 PUSH1 0xA0 SHL SUB DUP5 AND PUSH1 0x0 DUP2 DUP2 MSTORE PUSH1 0x20 DUP4 DUP2 MSTORE PUSH1 0x40 SWAP2 DUP3 SWAP1 KECCAK256 SWAP3 DUP7 MSTORE DUP3 SLOAD PUSH2 0xFFFF DUP1 DUP3 AND SWAP3 DUP9 ADD SWAP3 SWAP1 SWAP3 MSTORE PUSH3 0x10000 DUP2 DIV SWAP1 SWAP2 AND SWAP2 DUP7 ADD SWAP2 SWAP1 SWAP2 MSTORE SWAP2 SWAP3 POP SWAP1 PUSH2 0x2690 SWAP1 PUSH4 0xFFFFFFFF PUSH5 0x100000000 SWAP1 SWAP2 DIV DUP2 AND SWAP1 PUSH4 0x5F5E100 SWAP1 PUSH2 0xAFF AND JUMP JUMPDEST PUSH1 0x60 DUP5 ADD MSTORE DUP1 SLOAD PUSH2 0x26AE SWAP1 PUSH1 0x1 PUSH1 0x50 SHL SWAP1 DIV PUSH1 0xFF AND PUSH3 0x7A120 PUSH2 0x3689 JUMP JUMPDEST PUSH1 0x80 DUP5 ADD MSTORE DUP1 SLOAD PUSH2 0x26CD SWAP1 PUSH1 0x1 PUSH1 0x40 SHL SWAP1 DIV PUSH2 0xFFFF AND PUSH3 0x186A0 PUSH2 0x3689 JUMP JUMPDEST PUSH1 0xA0 DUP5 ADD MSTORE DUP1 SLOAD PUSH2 0x26EC SWAP1 PUSH1 0x1 PUSH1 0x70 SHL SWAP1 DIV PUSH2 0xFFFF AND PUSH3 0x186A0 PUSH2 0x3689 JUMP JUMPDEST PUSH2 0x120 DUP5 ADD MSTORE PUSH1 0x2 DUP2 ADD SLOAD PUSH2 0x2708 SWAP1 PUSH2 0xFFFF AND PUSH3 0x186A0 PUSH2 0x3689 JUMP JUMPDEST PUSH2 0x180 DUP5 ADD MSTORE DUP1 SLOAD PUSH1 0x64 SWAP1 PUSH1 0xFF PUSH1 0x1 PUSH1 0x58 SHL SWAP1 SWAP2 DIV AND PUSH4 0x3B9ACA00 MUL SDIV PUSH1 0xC0 DUP5 ADD MSTORE DUP1 SLOAD PUSH1 0x1 PUSH1 0x60 SHL DUP2 DIV PUSH1 0xFF SWAP1 DUP2 AND PUSH1 0xE0 DUP7 ADD MSTORE PUSH1 0x1 PUSH1 0x68 SHL SWAP1 SWAP2 DIV AND PUSH2 0x100 DUP5 ADD MSTORE PUSH1 0x40 DUP1 MLOAD DUP1 DUP3 ADD SWAP2 DUP3 SWAP1 MSTORE SWAP1 PUSH1 0x1 DUP4 ADD SWAP1 PUSH1 0x2 SWAP1 DUP3 PUSH1 0x0 DUP6 JUMPDEST DUP3 DUP3 SWAP1 SLOAD SWAP1 PUSH2 0x100 EXP SWAP1 DIV PUSH2 0xFFFF AND PUSH2 0xFFFF AND DUP2 MSTORE PUSH1 0x20 ADD SWAP1 PUSH1 0x2 ADD SWAP1 PUSH1 0x20 DUP3 PUSH1 0x1 ADD DIV SWAP3 DUP4 ADD SWAP3 PUSH1 0x1 SUB DUP3 MUL SWAP2 POP DUP1 DUP5 GT PUSH2 0x2765 JUMPI POP POP POP POP POP PUSH2 0x140 DUP6 ADD SWAP2 SWAP1 SWAP2 MSTORE POP PUSH2 0x27E0 PUSH4 0x5F5E100 PUSH1 0x3 DUP4 ADD PUSH1 0x0 JUMPDEST PUSH1 0x8 DUP2 DIV SWAP2 SWAP1 SWAP2 ADD SLOAD PUSH1 0x7 SWAP1 SWAP2 AND PUSH1 0x4 MUL PUSH2 0x100 EXP SWAP1 DIV PUSH4 0xFFFFFFFF SWAP1 DUP2 AND SWAP2 SWAP1 PUSH2 0xAFF AND JUMP JUMPDEST PUSH2 0x1A0 DUP5 ADD MLOAD MSTORE PUSH2 0x27FA PUSH4 0x5F5E100 PUSH1 0x3 DUP4 ADD PUSH1 0x1 PUSH2 0x27B9 JUMP JUMPDEST PUSH2 0x1A0 DUP5 ADD MLOAD PUSH1 0x20 ADD MSTORE PUSH1 0x4 ADD SLOAD PUSH1 0xFF AND PUSH2 0x1C0 DUP4 ADD MSTORE POP SWAP2 SWAP1 POP JUMP JUMPDEST PUSH1 0x0 PUSH5 0xFFFFFFFFFF DUP4 EQ PUSH2 0x2837 JUMPI DUP2 PUSH1 0x1 PUSH1 0x1 PUSH1 0x50 SHL SUB AND PUSH1 0x0 SUB PUSH2 0x284D JUMP JUMPDEST PUSH2 0x284D DUP5 PUSH1 0x1 PUSH1 0x1 PUSH1 0x50 SHL SUB DUP5 AND PUSH1 0x0 SUB PUSH2 0x36B0 JUMP JUMPDEST SWAP5 SWAP4 POP POP POP POP JUMP JUMPDEST PUSH1 0x0 PUSH2 0x2864 DUP7 DUP7 DUP7 DUP7 DUP7 PUSH2 0x36FB JUMP JUMPDEST SWAP1 POP PUSH1 0x0 PUSH2 0x2884 PUSH1 0x64 PUSH2 0x2C6 DUP10 PUSH1 0xE0 ADD MLOAD DUP6 PUSH2 0xAFF SWAP1 SWAP2 SWAP1 PUSH4 0xFFFFFFFF AND JUMP JUMPDEST SWAP1 POP PUSH1 0x0 PUSH2 0x2892 DUP4 DUP4 PUSH2 0x3659 JUMP JUMPDEST SWAP1 POP PUSH2 0x28A2 DUP9 PUSH1 0x40 ADD MLOAD DUP4 PUSH2 0x3791 JUMP JUMPDEST PUSH2 0x28B0 DUP9 PUSH1 0x40 ADD MLOAD DUP3 PUSH2 0x37C8 JUMP JUMPDEST PUSH5 0xFFFFFFFFFF DUP6 EQ ISZERO PUSH2 0x28E8 JUMPI PUSH2 0x28E8 DUP9 PUSH1 0x0 ADD MLOAD DUP10 PUSH1 0x40 ADD MLOAD DUP6 PUSH2 0x28E3 DUP8 DUP14 PUSH2 0x160 ADD MLOAD PUSH2 0x24C8 SWAP1 SWAP2 SWAP1 PUSH4 0xFFFFFFFF AND JUMP JUMPDEST PUSH2 0x380C JUMP JUMPDEST PUSH2 0x28FC DUP9 PUSH1 0x0 ADD MLOAD DUP10 PUSH1 0x40 ADD MLOAD DUP4 DUP6 PUSH2 0x3914 JUMP JUMPDEST PUSH1 0x80 DUP8 ADD MLOAD PUSH2 0x290B SWAP1 DUP5 PUSH2 0x3659 JUMP JUMPDEST PUSH1 0x80 SWAP1 SWAP8 ADD SWAP7 SWAP1 SWAP7 MSTORE POP SWAP6 SWAP5 POP POP POP POP POP JUMP JUMPDEST PUSH2 0x2926 PUSH2 0x50F5 JUMP JUMPDEST PUSH1 0x20 DUP4 ADD MLOAD PUSH5 0xFFFFFFFFFF EQ PUSH2 0x293B JUMPI PUSH1 0x0 DUP1 REVERT JUMPDEST PUSH2 0x294A DUP3 PUSH5 0xFFFFFFFFFF PUSH2 0x1696 JUMP JUMPDEST SWAP1 POP PUSH1 0x0 DUP4 PUSH1 0x80 ADD MLOAD SLT ISZERO PUSH2 0x298C JUMPI PUSH2 0x298C DUP4 DUP3 PUSH2 0x297A DUP7 PUSH1 0x80 ADD MLOAD DUP7 PUSH2 0x160 ADD MLOAD PUSH2 0xBAD SWAP1 SWAP2 SWAP1 PUSH4 0xFFFFFFFF AND JUMP JUMPDEST PUSH2 0x2987 DUP8 PUSH1 0x80 ADD MLOAD PUSH2 0xBD9 JUMP JUMPDEST PUSH2 0x1F3B JUMP JUMPDEST PUSH2 0xB4D DUP2 DUP4 PUSH2 0x1FCB JUMP JUMPDEST PUSH1 0x0 DUP1 PUSH2 0xB4D PUSH1 0x15 PUSH2 0x2A6D JUMP JUMPDEST PUSH2 0x29AB PUSH2 0x4FFC JUMP JUMPDEST PUSH1 0x0 PUSH2 0x29B6 DUP5 PUSH2 0x3A04 JUMP JUMPDEST SWAP1 POP DUP3 DUP2 PUSH1 0x0 ADD MLOAD LT ISZERO PUSH2 0x29F5 JUMPI PUSH1 0x0 DUP1 PUSH2 0x29D0 DUP7 PUSH2 0x3ACC JUMP JUMPDEST SWAP1 POP PUSH2 0x29DE DUP7 DUP5 DUP4 DUP9 PUSH2 0x3B49 JUMP JUMPDEST SWAP1 SWAP4 POP SWAP2 POP PUSH2 0x29EE DUP7 DUP4 DUP6 PUSH2 0x3C4A JUMP JUMPDEST POP POP PUSH2 0x2A02 JUMP JUMPDEST DUP1 MLOAD DUP4 EQ PUSH2 0x2A02 JUMPI PUSH1 0x0 DUP1 REVERT JUMPDEST PUSH1 0x40 MLOAD DUP1 PUSH1 0x60 ADD PUSH1 0x40 MSTORE DUP1 PUSH2 0x2A2B PUSH2 0x1323 DUP5 PUSH1 0xA0 ADD MLOAD DUP6 PUSH1 0xC0 ADD MLOAD PUSH2 0x3689 SWAP1 SWAP2 SWAP1 PUSH4 0xFFFFFFFF AND JUMP JUMPDEST DUP2 MSTORE PUSH1 0x20 ADD PUSH2 0x2A4E PUSH2 0x1323 DUP5 PUSH1 0xA0 ADD MLOAD DUP6 PUSH1 0xE0 ADD MLOAD PUSH2 0x3689 SWAP1 SWAP2 SWAP1 PUSH4 0xFFFFFFFF AND JUMP JUMPDEST DUP2 MSTORE PUSH1 0x20 ADD DUP3 PUSH1 0x60 ADD MLOAD DUP2 MSTORE POP SWAP2 POP POP SWAP3 SWAP2 POP POP JUMP JUMPDEST PUSH1 0x0 DUP1 PUSH2 0xB4D PUSH1 0x10 JUMPDEST PUSH1 0x0 PUSH3 0xF4240 DUP3 PUSH1 0x26 DUP2 GT ISZERO PUSH2 0x2A7F JUMPI INVALID JUMPDEST ADD SWAP3 SWAP2 POP POP JUMP JUMPDEST PUSH1 0x0 DUP1 PUSH2 0xB4D PUSH1 0x1A PUSH2 0x2A6D JUMP JUMPDEST PUSH1 0x0 PUSH5 0xFFFFFFFFFF DUP4 EQ PUSH2 0x2AA7 JUMPI DUP2 PUSH2 0x284D JUMP JUMPDEST PUSH2 0x284D DUP5 DUP4 PUSH2 0x3E7B JUMP JUMPDEST PUSH1 0x40 DUP1 MLOAD PUSH1 0x2 DUP1 DUP3 MSTORE PUSH1 0x60 DUP3 ADD DUP4 MSTORE PUSH1 0x0 SWAP3 PUSH1 0x20 DUP4 ADD SWAP1 DUP1 CALLDATASIZE DUP4 CALLDATACOPY POP POP PUSH1 0x40 DUP1 MLOAD PUSH1 0x2 DUP1 DUP3 MSTORE PUSH1 0x60 DUP3 ADD DUP4 MSTORE SWAP4 SWAP5 POP PUSH1 0x0 SWAP4 SWAP1 SWAP3 POP SWAP1 PUSH1 0x20 DUP4 ADD SWAP1 DUP1 CALLDATASIZE DUP4 CALLDATACOPY ADD SWAP1 POP POP SWAP1 POP PUSH1 0x0 PUSH2 0x2B18 DUP7 PUSH1 0x0 ADD MLOAD DUP8 PUSH1 0x40 ADD MLOAD DUP8 PUSH1 0x40 ADD MLOAD PUSH5 0xFFFFFFFFFF AND PUSH1 0x0 PUSH2 0x1DDE JUMP JUMPDEST SWAP1 POP PUSH1 0xA PUSH1 0xFF AND DUP2 OR DUP4 PUSH1 0x0 DUP2 MLOAD DUP2 LT PUSH2 0x2B2E JUMPI INVALID JUMPDEST PUSH1 0x20 MUL PUSH1 0x20 ADD ADD DUP2 DUP2 MSTORE POP POP PUSH1 0x9 PUSH1 0xFF AND DUP2 OR DUP4 PUSH1 0x1 DUP2 MLOAD DUP2 LT PUSH2 0x2B4E JUMPI INVALID JUMPDEST PUSH1 0x20 MUL PUSH1 0x20 ADD ADD DUP2 DUP2 MSTORE POP POP DUP7 PUSH1 0x20 ADD MLOAD PUSH1 0x0 EQ DUP1 PUSH2 0x2B91 JUMPI POP PUSH1 0x40 DUP6 ADD MLOAD PUSH5 0xFFFFFFFFFF AND ISZERO DUP1 ISZERO SWAP1 PUSH2 0x2B91 JUMPI POP DUP7 PUSH1 0x20 ADD MLOAD DUP6 PUSH1 0x40 ADD MLOAD PUSH5 0xFFFFFFFFFF AND EQ ISZERO JUMPDEST ISZERO PUSH2 0x2C33 JUMPI DUP5 PUSH1 0x0 ADD MLOAD PUSH1 0x1 PUSH1 0x1 PUSH1 0x50 SHL SUB AND DUP3 PUSH1 0x0 DUP2 MLOAD DUP2 LT PUSH2 0x2BB1 JUMPI INVALID JUMPDEST PUSH1 0x20 MUL PUSH1 0x20 ADD ADD DUP2 DUP2 MSTORE POP POP DUP5 PUSH1 0x20 ADD MLOAD PUSH1 0x1 PUSH1 0x1 PUSH1 0x50 SHL SUB AND DUP3 PUSH1 0x1 DUP2 MLOAD DUP2 LT PUSH2 0x2BD8 JUMPI INVALID JUMPDEST PUSH1 0x20 MUL PUSH1 0x20 ADD ADD DUP2 DUP2 MSTORE POP POP PUSH1 0x0 PUSH1 0x1 PUSH1 0x1 PUSH1 0xA0 SHL SUB AND DUP8 PUSH1 0x60 ADD MLOAD PUSH1 0x1 PUSH1 0x1 PUSH1 0xA0 SHL SUB AND CALLER PUSH1 0x1 PUSH1 0x1 PUSH1 0xA0 SHL SUB AND PUSH1 0x0 DUP1 MLOAD PUSH1 0x20 PUSH2 0x5D99 DUP4 CODECOPY DUP2 MLOAD SWAP2 MSTORE DUP7 DUP7 PUSH1 0x40 MLOAD PUSH2 0x2C26 SWAP3 SWAP2 SWAP1 PUSH2 0x5A4F JUMP JUMPDEST PUSH1 0x40 MLOAD DUP1 SWAP2 SUB SWAP1 LOG4 PUSH2 0x2E30 JUMP JUMPDEST DUP5 PUSH1 0x40 ADD MLOAD PUSH5 0xFFFFFFFFFF AND DUP8 PUSH1 0x20 ADD MLOAD EQ ISZERO PUSH2 0x2E30 JUMPI DUP5 MLOAD PUSH1 0x0 SWAP1 PUSH1 0x1 PUSH1 0x1 PUSH1 0x50 SHL SUB AND DUP6 LT DUP1 PUSH2 0x2C75 JUMPI POP DUP6 PUSH1 0x20 ADD MLOAD PUSH1 0x1 PUSH1 0x1 PUSH1 0x50 SHL SUB AND DUP9 PUSH1 0x40 ADD MLOAD LT JUMPDEST SWAP1 POP DUP1 ISZERO PUSH2 0x2D45 JUMPI DUP6 MLOAD PUSH1 0x1 PUSH1 0x1 PUSH1 0x50 SHL SUB AND DUP6 LT PUSH2 0x2C95 JUMPI PUSH1 0x0 PUSH2 0x2CA4 JUMP JUMPDEST DUP6 MLOAD PUSH1 0x1 PUSH1 0x1 PUSH1 0x50 SHL SUB AND DUP6 SWAP1 SUB JUMPDEST DUP4 PUSH1 0x0 DUP2 MLOAD DUP2 LT PUSH2 0x2CB1 JUMPI INVALID JUMPDEST PUSH1 0x20 MUL PUSH1 0x20 ADD ADD DUP2 DUP2 MSTORE POP POP PUSH2 0x2CE1 DUP9 PUSH1 0x40 ADD MLOAD DUP8 PUSH1 0x20 ADD MLOAD PUSH1 0x1 PUSH1 0x1 PUSH1 0x50 SHL SUB AND PUSH2 0x1465 SWAP1 SWAP2 SWAP1 PUSH4 0xFFFFFFFF AND JUMP JUMPDEST DUP4 PUSH1 0x1 DUP2 MLOAD DUP2 LT PUSH2 0x2CEE JUMPI INVALID JUMPDEST PUSH1 0x20 MUL PUSH1 0x20 ADD ADD DUP2 DUP2 MSTORE POP POP PUSH1 0x0 PUSH1 0x1 PUSH1 0x1 PUSH1 0xA0 SHL SUB AND DUP9 PUSH1 0x60 ADD MLOAD PUSH1 0x1 PUSH1 0x1 PUSH1 0xA0 SHL SUB AND CALLER PUSH1 0x1 PUSH1 0x1 PUSH1 0xA0 SHL SUB AND PUSH1 0x0 DUP1 MLOAD PUSH1 0x20 PUSH2 0x5D99 DUP4 CODECOPY DUP2 MLOAD SWAP2 MSTORE DUP8 DUP8 PUSH1 0x40 MLOAD PUSH2 0x2D3C SWAP3 SWAP2 SWAP1 PUSH2 0x5A4F JUMP JUMPDEST PUSH1 0x40 MLOAD DUP1 SWAP2 SUB SWAP1 LOG4 JUMPDEST DUP1 ISZERO DUP1 PUSH2 0x2D5B JUMPI POP DUP6 MLOAD PUSH1 0x1 PUSH1 0x1 PUSH1 0x50 SHL SUB AND DUP6 GT JUMPDEST ISZERO PUSH2 0x2E2E JUMPI DUP6 MLOAD PUSH2 0x2D76 SWAP1 DUP7 SWAP1 PUSH1 0x1 PUSH1 0x1 PUSH1 0x50 SHL SUB AND PUSH2 0x1465 JUMP JUMPDEST DUP4 PUSH1 0x0 DUP2 MLOAD DUP2 LT PUSH2 0x2D83 JUMPI INVALID JUMPDEST PUSH1 0x20 MUL PUSH1 0x20 ADD ADD DUP2 DUP2 MSTORE POP POP DUP8 PUSH1 0x40 ADD MLOAD DUP7 PUSH1 0x20 ADD MLOAD PUSH1 0x1 PUSH1 0x1 PUSH1 0x50 SHL SUB AND LT PUSH2 0x2DAE JUMPI PUSH1 0x0 PUSH2 0x2DCA JUMP JUMPDEST PUSH1 0x20 DUP7 ADD MLOAD PUSH1 0x40 DUP10 ADD MLOAD PUSH2 0x2DCA SWAP2 PUSH1 0x1 PUSH1 0x1 PUSH1 0x50 SHL SUB AND PUSH2 0x1465 JUMP JUMPDEST DUP4 PUSH1 0x1 DUP2 MLOAD DUP2 LT PUSH2 0x2DD7 JUMPI INVALID JUMPDEST PUSH1 0x20 MUL PUSH1 0x20 ADD ADD DUP2 DUP2 MSTORE POP POP DUP8 PUSH1 0x60 ADD MLOAD PUSH1 0x1 PUSH1 0x1 PUSH1 0xA0 SHL SUB AND PUSH1 0x0 PUSH1 0x1 PUSH1 0x1 PUSH1 0xA0 SHL SUB AND CALLER PUSH1 0x1 PUSH1 0x1 PUSH1 0xA0 SHL SUB AND PUSH1 0x0 DUP1 MLOAD PUSH1 0x20 PUSH2 0x5D99 DUP4 CODECOPY DUP2 MLOAD SWAP2 MSTORE DUP8 DUP8 PUSH1 0x40 MLOAD PUSH2 0x2E25 SWAP3 SWAP2 SWAP1 PUSH2 0x5A4F JUMP JUMPDEST PUSH1 0x40 MLOAD DUP1 SWAP2 SUB SWAP1 LOG4 JUMPDEST POP JUMPDEST PUSH1 0x20 DUP8 ADD MLOAD ISZERO DUP1 ISZERO SWAP1 PUSH2 0x2E52 JUMPI POP DUP7 PUSH1 0x20 ADD MLOAD DUP6 PUSH1 0x40 ADD MLOAD PUSH5 0xFFFFFFFFFF AND EQ ISZERO JUMPDEST ISZERO PUSH2 0x2F35 JUMPI PUSH2 0x2E70 DUP7 PUSH1 0x0 ADD MLOAD DUP8 PUSH1 0x40 ADD MLOAD DUP10 PUSH1 0x20 ADD MLOAD PUSH1 0x0 PUSH2 0x1DDE JUMP JUMPDEST SWAP1 POP PUSH1 0xA PUSH1 0xFF AND DUP2 OR DUP4 PUSH1 0x0 DUP2 MLOAD DUP2 LT PUSH2 0x2E86 JUMPI INVALID JUMPDEST PUSH1 0x20 MUL PUSH1 0x20 ADD ADD DUP2 DUP2 MSTORE POP POP PUSH1 0x9 PUSH1 0xFF AND DUP2 OR DUP4 PUSH1 0x1 DUP2 MLOAD DUP2 LT PUSH2 0x2EA6 JUMPI INVALID JUMPDEST PUSH1 0x20 MUL PUSH1 0x20 ADD ADD DUP2 DUP2 MSTORE POP POP DUP4 DUP3 PUSH1 0x0 DUP2 MLOAD DUP2 LT PUSH2 0x2EC0 JUMPI INVALID JUMPDEST PUSH1 0x20 MUL PUSH1 0x20 ADD ADD DUP2 DUP2 MSTORE POP POP DUP7 PUSH1 0x40 ADD MLOAD DUP3 PUSH1 0x1 DUP2 MLOAD DUP2 LT PUSH2 0x2EDE JUMPI INVALID JUMPDEST PUSH1 0x20 MUL PUSH1 0x20 ADD ADD DUP2 DUP2 MSTORE POP POP DUP7 PUSH1 0x60 ADD MLOAD PUSH1 0x1 PUSH1 0x1 PUSH1 0xA0 SHL SUB AND PUSH1 0x0 PUSH1 0x1 PUSH1 0x1 PUSH1 0xA0 SHL SUB AND CALLER PUSH1 0x1 PUSH1 0x1 PUSH1 0xA0 SHL SUB AND PUSH1 0x0 DUP1 MLOAD PUSH1 0x20 PUSH2 0x5D99 DUP4 CODECOPY DUP2 MLOAD SWAP2 MSTORE DUP7 DUP7 PUSH1 0x40 MLOAD PUSH2 0x2F2C SWAP3 SWAP2 SWAP1 PUSH2 0x5A4F JUMP JUMPDEST PUSH1 0x40 MLOAD DUP1 SWAP2 SUB SWAP1 LOG4 JUMPDEST PUSH1 0x80 DUP6 ADD MLOAD PUSH1 0x1 PUSH1 0x1 PUSH1 0x50 SHL SUB AND ISZERO PUSH2 0xD43 JUMPI PUSH1 0x60 DUP8 ADD MLOAD PUSH1 0x80 DUP7 ADD MLOAD PUSH1 0x40 MLOAD PUSH1 0x0 SWAP3 PUSH1 0x1 PUSH1 0x1 PUSH1 0xA0 SHL SUB AND SWAP2 CALLER SWAP2 PUSH1 0x0 DUP1 MLOAD PUSH1 0x20 PUSH2 0x5DB9 DUP4 CODECOPY DUP2 MLOAD SWAP2 MSTORE SWAP2 PUSH2 0x11A5 SWAP2 PUSH1 0xB DUP9 OR SWAP2 SWAP1 PUSH2 0x5D27 JUMP JUMPDEST PUSH1 0x0 PUSH5 0xFFFFFFFFFF DUP3 GT ISZERO PUSH2 0xAFB JUMPI PUSH1 0x0 DUP1 REVERT JUMPDEST PUSH1 0x0 PUSH4 0xFFFFFFFF DUP3 GT ISZERO PUSH2 0xAFB JUMPI PUSH1 0x0 DUP1 REVERT JUMPDEST PUSH1 0x0 DUP1 PUSH2 0xB4D PUSH1 0x26 PUSH2 0x2A6D JUMP JUMPDEST PUSH1 0x0 DUP1 PUSH2 0x2FC2 PUSH2 0x3ED7 JUMP JUMPDEST PUSH2 0xFFFF SWAP4 SWAP1 SWAP4 AND PUSH1 0x0 SWAP1 DUP2 MSTORE PUSH1 0x20 SWAP4 SWAP1 SWAP4 MSTORE POP POP PUSH1 0x40 SWAP1 KECCAK256 SLOAD PUSH1 0x1 PUSH1 0x1 PUSH1 0xA0 SHL SUB AND SWAP1 JUMP JUMPDEST PUSH1 0x0 DUP1 JUMPDEST DUP3 MLOAD DUP2 LT ISZERO PUSH2 0x31E9 JUMPI PUSH1 0x0 DUP4 DUP3 DUP2 MLOAD DUP2 LT PUSH2 0x3002 JUMPI INVALID JUMPDEST PUSH1 0x20 MUL PUSH1 0x20 ADD ADD MLOAD SWAP1 POP PUSH1 0x0 DUP2 PUSH1 0x60 ADD MLOAD PUSH1 0x1 PUSH1 0x1 PUSH1 0xA0 SHL SUB AND PUSH4 0x70A08231 ADDRESS PUSH1 0x40 MLOAD DUP3 PUSH4 0xFFFFFFFF AND PUSH1 0xE0 SHL DUP2 MSTORE PUSH1 0x4 ADD PUSH2 0x303E SWAP2 SWAP1 PUSH2 0x599F JUMP JUMPDEST PUSH1 0x20 PUSH1 0x40 MLOAD DUP1 DUP4 SUB DUP2 DUP7 DUP1 EXTCODESIZE ISZERO DUP1 ISZERO PUSH2 0x3056 JUMPI PUSH1 0x0 DUP1 REVERT JUMPDEST POP GAS STATICCALL ISZERO DUP1 ISZERO PUSH2 0x306A JUMPI RETURNDATASIZE PUSH1 0x0 DUP1 RETURNDATACOPY RETURNDATASIZE PUSH1 0x0 REVERT JUMPDEST POP POP POP POP PUSH1 0x40 MLOAD RETURNDATASIZE PUSH1 0x1F NOT PUSH1 0x1F DUP3 ADD AND DUP3 ADD DUP1 PUSH1 0x40 MSTORE POP DUP2 ADD SWAP1 PUSH2 0x308E SWAP2 SWAP1 PUSH2 0x585E JUMP JUMPDEST SWAP1 POP PUSH1 0x0 PUSH2 0x309C DUP8 ADDRESS PUSH2 0x3EE4 JUMP JUMPDEST SWAP1 POP PUSH1 0x0 JUMPDEST DUP4 MLOAD MLOAD DUP2 LT ISZERO PUSH2 0x30ED JUMPI PUSH2 0x30E5 DUP5 PUSH1 0x0 ADD MLOAD DUP3 DUP2 MLOAD DUP2 LT PUSH2 0x30BE JUMPI INVALID JUMPDEST PUSH1 0x20 MUL PUSH1 0x20 ADD ADD MLOAD PUSH1 0x0 DUP7 PUSH1 0x20 ADD MLOAD DUP5 DUP2 MLOAD DUP2 LT PUSH2 0x30D8 JUMPI INVALID JUMPDEST PUSH1 0x20 MUL PUSH1 0x20 ADD ADD MLOAD PUSH2 0x3F8E JUMP JUMPDEST PUSH1 0x1 ADD PUSH2 0x30A1 JUMP JUMPDEST POP PUSH1 0x0 PUSH2 0x30FA DUP9 ADDRESS PUSH2 0x3EE4 JUMP JUMPDEST SWAP1 POP PUSH1 0x0 PUSH2 0x3108 DUP3 DUP5 PUSH2 0x1465 JUMP JUMPDEST SWAP1 POP DUP1 DUP6 PUSH1 0x40 ADD MLOAD GT ISZERO PUSH2 0x311B JUMPI PUSH1 0x0 DUP1 REVERT JUMPDEST PUSH1 0x60 DUP6 ADD MLOAD PUSH1 0x40 MLOAD PUSH4 0x70A08231 PUSH1 0xE0 SHL DUP2 MSTORE PUSH1 0x0 SWAP2 PUSH1 0x1 PUSH1 0x1 PUSH1 0xA0 SHL SUB AND SWAP1 PUSH4 0x70A08231 SWAP1 PUSH2 0x314E SWAP1 ADDRESS SWAP1 PUSH1 0x4 ADD PUSH2 0x599F JUMP JUMPDEST PUSH1 0x20 PUSH1 0x40 MLOAD DUP1 DUP4 SUB DUP2 DUP7 DUP1 EXTCODESIZE ISZERO DUP1 ISZERO PUSH2 0x3166 JUMPI PUSH1 0x0 DUP1 REVERT JUMPDEST POP GAS STATICCALL ISZERO DUP1 ISZERO PUSH2 0x317A JUMPI RETURNDATASIZE PUSH1 0x0 DUP1 RETURNDATACOPY RETURNDATASIZE PUSH1 0x0 REVERT JUMPDEST POP POP POP POP PUSH1 0x40 MLOAD RETURNDATASIZE PUSH1 0x1F NOT PUSH1 0x1F DUP3 ADD AND DUP3 ADD DUP1 PUSH1 0x40 MSTORE POP DUP2 ADD SWAP1 PUSH2 0x319E SWAP2 SWAP1 PUSH2 0x585E JUMP JUMPDEST SWAP1 POP DUP5 DUP2 GT ISZERO PUSH2 0x31AD JUMPI PUSH1 0x0 DUP1 REVERT JUMPDEST PUSH2 0x31BC DUP7 PUSH1 0x60 ADD MLOAD DUP7 DUP4 PUSH2 0x40CB JUMP JUMPDEST PUSH2 0x31C6 DUP9 DUP4 PUSH2 0x2507 JUMP JUMPDEST SWAP8 POP PUSH2 0x31D7 DUP11 PUSH1 0x0 ADD MLOAD DUP6 DUP6 PUSH2 0x40CB JUMP JUMPDEST POP POP PUSH1 0x1 SWAP1 SWAP5 ADD SWAP4 POP PUSH2 0x2FEB SWAP3 POP POP POP JUMP JUMPDEST POP SWAP3 SWAP2 POP POP JUMP JUMPDEST PUSH1 0x0 PUSH2 0x31FA PUSH2 0x51E2 JUMP JUMPDEST RETURNDATASIZE DUP1 ISZERO PUSH2 0x320E JUMPI PUSH1 0x20 DUP2 EQ PUSH2 0x3217 JUMPI PUSH1 0x0 DUP1 REVERT JUMPDEST PUSH1 0x1 SWAP3 POP PUSH2 0x3222 JUMP JUMPDEST PUSH1 0x20 PUSH1 0x0 DUP4 RETURNDATACOPY DUP2 MLOAD SWAP3 POP JUMPDEST POP DUP2 PUSH2 0x155E JUMPI PUSH1 0x40 DUP1 MLOAD PUSH3 0x461BCD PUSH1 0xE5 SHL DUP2 MSTORE PUSH1 0x20 PUSH1 0x4 DUP3 ADD MSTORE PUSH1 0x5 PUSH1 0x24 DUP3 ADD MSTORE PUSH5 0x455243323 PUSH1 0xDC SHL PUSH1 0x44 DUP3 ADD MSTORE SWAP1 MLOAD SWAP1 DUP2 SWAP1 SUB PUSH1 0x64 ADD SWAP1 REVERT JUMPDEST PUSH1 0x0 PUSH4 0x5F5E100 DUP4 PUSH1 0x40 ADD MLOAD EQ ISZERO PUSH2 0x3276 JUMPI POP DUP1 PUSH2 0xB4D JUMP JUMPDEST PUSH1 0x40 DUP4 ADD MLOAD PUSH2 0xBA6 SWAP1 PUSH2 0x2C6 DUP5 PUSH4 0x5F5E100 PUSH2 0xAFF JUMP JUMPDEST PUSH1 0x0 PUSH2 0x3297 PUSH2 0x1B35 JUMP JUMPDEST PUSH2 0xFFFF DUP5 AND PUSH1 0x0 SWAP1 DUP2 MSTORE PUSH1 0x20 SWAP2 SWAP1 SWAP2 MSTORE PUSH1 0x40 SWAP1 DUP2 SWAP1 KECCAK256 SLOAD SWAP1 MLOAD PUSH4 0xAD1C095D PUSH1 0xE0 SHL DUP2 MSTORE PUSH1 0x1 PUSH1 0x1 PUSH1 0xA0 SHL SUB SWAP1 SWAP2 AND SWAP2 POP DUP2 SWAP1 PUSH4 0xAD1C095D SWAP1 PUSH2 0x32DF SWAP1 DUP8 SWAP1 DUP7 SWAP1 PUSH1 0x4 ADD PUSH2 0x5A36 JUMP JUMPDEST PUSH1 0x0 PUSH1 0x40 MLOAD DUP1 DUP4 SUB DUP2 PUSH1 0x0 DUP8 DUP1 EXTCODESIZE ISZERO DUP1 ISZERO PUSH2 0x32F9 JUMPI PUSH1 0x0 DUP1 REVERT JUMPDEST POP GAS CALL ISZERO DUP1 ISZERO PUSH2 0x1230 JUMPI RETURNDATASIZE PUSH1 0x0 DUP1 RETURNDATACOPY RETURNDATASIZE PUSH1 0x0 REVERT JUMPDEST PUSH1 0x0 PUSH2 0x3317 PUSH2 0x4148 JUMP JUMPDEST PUSH2 0xFFFF DUP6 AND PUSH1 0x0 SWAP1 DUP2 MSTORE PUSH1 0x20 SWAP2 SWAP1 SWAP2 MSTORE PUSH1 0x40 SWAP1 KECCAK256 DUP1 SLOAD SWAP1 SWAP2 POP PUSH5 0xFFFFFFFFFF AND TIMESTAMP EQ PUSH2 0x3342 JUMPI PUSH1 0x0 DUP1 REVERT JUMPDEST DUP1 SLOAD PUSH1 0x0 SWAP1 PUSH2 0x3361 SWAP1 PUSH1 0x1 PUSH1 0x28 SHL SWAP1 DIV PUSH1 0x1 PUSH1 0x1 PUSH1 0x58 SHL SUB AND DUP6 PUSH2 0x18C8 JUMP JUMPDEST DUP3 SLOAD SWAP1 SWAP2 POP PUSH1 0x0 SWAP1 PUSH2 0x3383 SWAP1 PUSH1 0x1 PUSH1 0x80 SHL SWAP1 DIV PUSH1 0x1 PUSH1 0x1 PUSH1 0x58 SHL SUB AND DUP6 PUSH2 0x18C8 JUMP JUMPDEST SWAP1 POP PUSH2 0x3396 PUSH2 0x3391 DUP3 PUSH2 0x18DE JUMP JUMPDEST PUSH2 0x4155 JUMP JUMPDEST DUP4 SLOAD PUSH1 0x1 PUSH1 0x1 PUSH1 0x58 SHL SUB SWAP2 SWAP1 SWAP2 AND PUSH1 0x1 PUSH1 0x80 SHL MUL PUSH11 0xFFFFFFFFFFFFFFFFFFFFFF PUSH1 0x80 SHL NOT SWAP1 SWAP2 AND OR DUP4 SSTORE PUSH2 0x33CC PUSH2 0x3391 DUP4 PUSH2 0x18DE JUMP JUMPDEST DUP4 SLOAD PUSH1 0x1 PUSH1 0x1 PUSH1 0x58 SHL SUB SWAP2 SWAP1 SWAP2 AND PUSH1 0x1 PUSH1 0x28 SHL MUL PUSH16 0xFFFFFFFFFFFFFFFFFFFFFF0000000000 NOT SWAP1 SWAP2 AND OR SWAP1 SWAP3 SSTORE POP POP POP POP POP JUMP JUMPDEST PUSH1 0x0 PUSH2 0x340A PUSH2 0x2FAA JUMP JUMPDEST PUSH1 0x1 PUSH1 0x1 PUSH1 0xA0 SHL SUB DUP5 AND PUSH1 0x0 SWAP1 DUP2 MSTORE PUSH1 0x20 DUP3 SWAP1 MSTORE PUSH1 0x40 SWAP1 KECCAK256 SLOAD SWAP1 SWAP2 POP PUSH2 0x3433 PUSH2 0xC43 DUP3 DUP6 PUSH2 0x18C8 JUMP JUMPDEST PUSH1 0x1 PUSH1 0x1 PUSH1 0xA0 SHL SUB SWAP1 SWAP5 AND PUSH1 0x0 SWAP1 DUP2 MSTORE PUSH1 0x20 SWAP3 SWAP1 SWAP3 MSTORE POP PUSH1 0x40 SWAP1 KECCAK256 SWAP2 SWAP1 SWAP2 SSTORE POP JUMP JUMPDEST DUP7 SLOAD PUSH1 0x1 PUSH1 0x1 PUSH1 0x50 SHL SUB AND PUSH1 0x0 SWAP1 DUP2 SUB SWAP1 PUSH2 0x3471 DUP9 DUP7 DUP7 PUSH2 0x2A93 JUMP JUMPDEST SWAP1 POP PUSH2 0x3482 PUSH2 0xC48 PUSH2 0xC43 DUP4 PUSH2 0xBD9 JUMP JUMPDEST DUP10 SLOAD PUSH1 0x1 PUSH1 0x1 PUSH1 0x50 SHL SUB NOT AND PUSH1 0x1 PUSH1 0x1 PUSH1 0x50 SHL SUB SWAP2 SWAP1 SWAP2 AND OR DUP10 SSTORE PUSH1 0x0 PUSH2 0x34A9 DUP4 DUP4 PUSH2 0x416B JUMP JUMPDEST SWAP1 POP PUSH1 0x0 PUSH5 0xFFFFFFFFFF DUP8 EQ ISZERO PUSH2 0x34D0 JUMPI DUP9 MLOAD PUSH2 0x34C9 SWAP1 DUP12 SWAP1 DUP11 DUP6 PUSH2 0x41F2 JUMP JUMPDEST POP DUP5 PUSH2 0x3507 JUMP JUMPDEST DUP5 PUSH2 0x3507 JUMPI DUP9 MLOAD PUSH2 0x34E4 SWAP1 DUP10 DUP10 DUP8 DUP8 PUSH2 0x421F JUMP JUMPDEST DUP9 MLOAD PUSH2 0x34F9 SWAP1 DUP10 PUSH2 0x34F4 DUP6 PUSH2 0xBD9 JUMP JUMPDEST PUSH2 0x42DF JUMP JUMPDEST PUSH2 0x3504 DUP10 DUP12 DUP11 PUSH2 0x43B5 JUMP JUMPDEST SWAP1 POP JUMPDEST PUSH1 0x0 DUP3 SGT DUP1 ISZERO PUSH2 0x3515 JUMPI POP DUP5 ISZERO JUMPDEST ISZERO PUSH2 0x3527 JUMPI DUP9 MLOAD PUSH2 0x3527 SWAP1 DUP10 DUP4 PUSH2 0x445B JUMP JUMPDEST POP POP POP POP POP POP POP POP POP POP POP JUMP JUMPDEST PUSH1 0x0 PUSH2 0x353E PUSH2 0x44D7 JUMP JUMPDEST DUP9 MLOAD PUSH1 0x1 PUSH1 0x1 PUSH1 0xA0 SHL SUB AND PUSH1 0x0 SWAP1 DUP2 MSTORE PUSH1 0x20 SWAP2 DUP3 MSTORE PUSH1 0x40 DUP1 DUP3 KECCAK256 DUP9 DUP4 MSTORE DUP4 MSTORE DUP1 DUP3 KECCAK256 PUSH2 0xFFFF DUP11 AND DUP4 MSTORE SWAP1 SWAP3 MSTORE SWAP1 DUP2 KECCAK256 DUP1 SLOAD SWAP1 SWAP3 POP PUSH2 0x3588 SWAP1 DUP6 SWAP1 DUP9 SWAP1 PUSH1 0x1 PUSH1 0x1 PUSH1 0x50 SHL SUB AND PUSH2 0x2817 JUMP JUMPDEST SWAP1 POP PUSH2 0x3594 DUP2 DUP7 PUSH2 0x18C8 JUMP JUMPDEST SWAP1 POP PUSH2 0x35A6 DUP3 DUP6 DUP12 DUP11 DUP11 DUP7 PUSH1 0x0 PUSH2 0x3455 JUMP JUMPDEST PUSH1 0x0 DUP1 DUP7 SGT DUP1 ISZERO PUSH2 0x35BB JUMPI POP PUSH5 0xFFFFFFFFFF DUP8 EQ JUMPDEST ISZERO PUSH2 0x35DD JUMPI PUSH2 0x35D6 PUSH2 0x1388 DUP7 DUP10 PUSH2 0x35D1 DUP11 PUSH2 0xBD9 JUMP JUMPDEST PUSH2 0x2A93 JUMP JUMPDEST SWAP1 POP PUSH2 0x35EB JUMP JUMPDEST PUSH2 0x35E8 DUP6 DUP9 DUP9 PUSH2 0x2A93 JUMP JUMPDEST SWAP1 POP JUMPDEST DUP4 ISZERO PUSH2 0x3602 JUMPI PUSH2 0x3602 DUP10 DUP12 PUSH1 0x0 ADD MLOAD DUP11 DUP11 DUP6 PUSH2 0x44E4 JUMP JUMPDEST POP POP POP POP POP POP POP POP POP POP JUMP JUMPDEST DUP3 ISZERO DUP1 ISZERO PUSH2 0x361A JUMPI POP DUP2 ISZERO JUMPDEST ISZERO PUSH2 0x3630 JUMPI DUP4 SLOAD PUSH5 0xFFFFFFFFFF NOT AND DUP5 SSTORE PUSH2 0x1D1A JUMP JUMPDEST DUP4 SLOAD PUSH5 0xFFFFFFFFFF NOT AND PUSH5 0xFFFFFFFFFF SWAP2 SWAP1 SWAP2 AND OR SWAP1 SWAP3 SSTORE POP POP JUMP JUMPDEST PUSH1 0x0 DUP1 PUSH2 0xB4D PUSH1 0x7 PUSH2 0x2A6D JUMP JUMPDEST DUP1 DUP3 SUB DUP3 DUP2 SGT ISZERO PUSH1 0x0 DUP4 SLT ISZERO EQ PUSH2 0xB4D JUMPI PUSH1 0x0 DUP1 REVERT JUMPDEST PUSH1 0x0 DUP1 PUSH2 0xB4D PUSH1 0x2 PUSH2 0x2A6D JUMP JUMPDEST PUSH1 0x0 DUP1 PUSH2 0xB4D PUSH1 0x14 PUSH2 0x2A6D JUMP JUMPDEST PUSH1 0x0 DUP3 PUSH2 0x3698 JUMPI POP PUSH1 0x0 PUSH2 0xB4D JUMP JUMPDEST DUP3 DUP3 MUL DUP3 DUP5 DUP3 DUP2 PUSH2 0x36A5 JUMPI INVALID JUMPDEST DIV EQ PUSH2 0xBA6 JUMPI PUSH1 0x0 DUP1 REVERT JUMPDEST PUSH1 0x0 PUSH1 0x1 DUP3 SLT PUSH2 0x36BF JUMPI PUSH1 0x0 DUP1 REVERT JUMPDEST DUP2 PUSH2 0x36CC JUMPI POP PUSH1 0x0 PUSH2 0xB4D JUMP JUMPDEST PUSH2 0xBA6 PUSH1 0x1 PUSH2 0x24F6 PUSH15 0xC097CE7BC90715B34B9F1000000000 PUSH2 0x2C6 DUP8 PUSH1 0x20 ADD MLOAD DUP8 PUSH2 0xAFF SWAP1 SWAP2 SWAP1 PUSH4 0xFFFFFFFF AND JUMP JUMPDEST PUSH1 0x0 DUP1 PUSH5 0xFFFFFFFFFF DUP5 EQ ISZERO PUSH2 0x374D JUMPI PUSH1 0x20 DUP7 ADD MLOAD PUSH5 0xFFFFFFFFFF EQ PUSH2 0x3725 JUMPI PUSH1 0x0 SWAP2 POP POP PUSH2 0xE92 JUMP JUMPDEST PUSH2 0x373F PUSH2 0x1323 DUP8 PUSH1 0xA0 ADD MLOAD DUP6 PUSH2 0x1465 SWAP1 SWAP2 SWAP1 PUSH4 0xFFFFFFFF AND JUMP JUMPDEST PUSH1 0xA0 DUP8 ADD DUP5 SWAP1 MSTORE SWAP1 POP PUSH2 0x375D JUMP JUMPDEST PUSH2 0x375A PUSH2 0x1323 DUP6 DUP6 PUSH2 0x1465 JUMP JUMPDEST SWAP1 POP JUMPDEST PUSH1 0x80 DUP8 ADD MLOAD PUSH1 0x0 SWAP1 PUSH2 0x3779 SWAP1 PUSH4 0x1DA9C00 SWAP1 PUSH2 0x2C6 SWAP1 DUP6 PUSH2 0xAFF JUMP JUMPDEST SWAP1 POP PUSH2 0x3785 DUP7 DUP3 PUSH2 0x102A JUMP JUMPDEST SWAP9 SWAP8 POP POP POP POP POP POP POP POP JUMP JUMPDEST PUSH1 0x0 DUP2 SLT ISZERO PUSH2 0x379F JUMPI PUSH1 0x0 DUP1 REVERT JUMPDEST PUSH1 0x0 PUSH2 0x37AD PUSH2 0xFEE DUP5 PUSH2 0x4566 JUMP JUMPDEST SWAP1 POP PUSH2 0x37B9 DUP2 DUP4 PUSH2 0x18C8 JUMP JUMPDEST SWAP1 POP PUSH2 0x1C4D PUSH2 0xFEE DUP5 DUP4 PUSH2 0x45BF JUMP JUMPDEST PUSH1 0x0 DUP2 SLT ISZERO PUSH2 0x37D6 JUMPI PUSH1 0x0 DUP1 REVERT JUMPDEST PUSH1 0x0 PUSH2 0x37E5 DUP4 PUSH2 0xFFFF AND PUSH2 0x4633 JUMP JUMPDEST SWAP1 POP PUSH1 0x0 PUSH2 0x37F3 DUP3 DUP6 PUSH2 0x4566 JUMP JUMPDEST SWAP1 POP PUSH2 0x37FF DUP2 DUP5 PUSH2 0x18C8 JUMP JUMPDEST SWAP1 POP PUSH2 0x1D1A DUP3 DUP6 DUP4 PUSH2 0x45BF JUMP JUMPDEST PUSH1 0x0 PUSH2 0x3816 PUSH2 0x1B35 JUMP JUMPDEST PUSH2 0xFFFF DUP6 AND PUSH1 0x0 SWAP1 DUP2 MSTORE PUSH1 0x20 SWAP2 SWAP1 SWAP2 MSTORE PUSH1 0x40 DUP2 KECCAK256 SLOAD PUSH1 0x1 PUSH1 0x1 PUSH1 0xA0 SHL SUB AND SWAP2 POP PUSH2 0x383E PUSH2 0x4659 JUMP JUMPDEST PUSH2 0xFFFF DUP7 AND PUSH1 0x0 SWAP1 DUP2 MSTORE PUSH1 0x20 SWAP2 SWAP1 SWAP2 MSTORE PUSH1 0x40 SWAP1 DUP2 SWAP1 KECCAK256 SLOAD SWAP1 MLOAD PUSH4 0xAD1C095D PUSH1 0xE0 SHL DUP2 MSTORE PUSH1 0x1 PUSH1 0x1 PUSH1 0xA0 SHL SUB SWAP1 SWAP2 AND SWAP2 POP DUP2 SWAP1 PUSH4 0xAD1C095D SWAP1 PUSH2 0x3886 SWAP1 DUP10 SWAP1 DUP8 SWAP1 PUSH1 0x4 ADD PUSH2 0x5A36 JUMP JUMPDEST PUSH1 0x0 PUSH1 0x40 MLOAD DUP1 DUP4 SUB DUP2 PUSH1 0x0 DUP8 DUP1 EXTCODESIZE ISZERO DUP1 ISZERO PUSH2 0x38A0 JUMPI PUSH1 0x0 DUP1 REVERT JUMPDEST POP GAS CALL ISZERO DUP1 ISZERO PUSH2 0x38B4 JUMPI RETURNDATASIZE PUSH1 0x0 DUP1 RETURNDATACOPY RETURNDATASIZE PUSH1 0x0 REVERT JUMPDEST POP POP PUSH1 0x40 MLOAD PUSH4 0xAD1C095D PUSH1 0xE0 SHL DUP2 MSTORE PUSH1 0x1 PUSH1 0x1 PUSH1 0xA0 SHL SUB DUP6 AND SWAP3 POP PUSH4 0xAD1C095D SWAP2 POP PUSH2 0x38E6 SWAP1 DUP10 SWAP1 DUP9 SWAP1 PUSH1 0x4 ADD PUSH2 0x5A36 JUMP JUMPDEST PUSH1 0x0 PUSH1 0x40 MLOAD DUP1 DUP4 SUB DUP2 PUSH1 0x0 DUP8 DUP1 EXTCODESIZE ISZERO DUP1 ISZERO PUSH2 0x3900 JUMPI PUSH1 0x0 DUP1 REVERT JUMPDEST POP GAS CALL ISZERO DUP1 ISZERO PUSH2 0x3602 JUMPI RETURNDATASIZE PUSH1 0x0 DUP1 RETURNDATACOPY RETURNDATASIZE PUSH1 0x0 REVERT JUMPDEST PUSH1 0x0 PUSH2 0x391E PUSH2 0x1B35 JUMP JUMPDEST PUSH2 0xFFFF DUP6 AND PUSH1 0x0 SWAP1 DUP2 MSTORE PUSH1 0x20 SWAP2 SWAP1 SWAP2 MSTORE PUSH1 0x40 DUP2 KECCAK256 SLOAD PUSH1 0x1 PUSH1 0x1 PUSH1 0xA0 SHL SUB AND SWAP2 POP PUSH2 0x3946 PUSH2 0x4666 JUMP JUMPDEST PUSH2 0xFFFF DUP7 AND PUSH1 0x0 SWAP1 DUP2 MSTORE PUSH1 0x20 SWAP2 SWAP1 SWAP2 MSTORE PUSH1 0x40 SWAP1 KECCAK256 SLOAD PUSH1 0x1 PUSH1 0x1 PUSH1 0xA0 SHL SUB SWAP1 DUP2 AND SWAP2 POP DUP3 AND PUSH4 0x23DE6651 DUP8 PUSH2 0xFEE PUSH2 0x397C DUP8 PUSH2 0x18DE JUMP JUMPDEST PUSH1 0x40 MLOAD DUP5 PUSH4 0xFFFFFFFF AND PUSH1 0xE0 SHL DUP2 MSTORE PUSH1 0x4 ADD PUSH2 0x399A SWAP4 SWAP3 SWAP2 SWAP1 PUSH2 0x5A12 JUMP JUMPDEST PUSH1 0x0 PUSH1 0x40 MLOAD DUP1 DUP4 SUB DUP2 PUSH1 0x0 DUP8 DUP1 EXTCODESIZE ISZERO DUP1 ISZERO PUSH2 0x39B4 JUMPI PUSH1 0x0 DUP1 REVERT JUMPDEST POP GAS CALL ISZERO DUP1 ISZERO PUSH2 0x39C8 JUMPI RETURNDATASIZE PUSH1 0x0 DUP1 RETURNDATACOPY RETURNDATASIZE PUSH1 0x0 REVERT JUMPDEST POP POP POP POP DUP2 PUSH1 0x1 PUSH1 0x1 PUSH1 0xA0 SHL SUB AND PUSH4 0x23DE6651 DUP8 DUP4 PUSH2 0x39E6 DUP9 PUSH2 0x18DE JUMP JUMPDEST PUSH1 0x40 MLOAD DUP5 PUSH4 0xFFFFFFFF AND PUSH1 0xE0 SHL DUP2 MSTORE PUSH1 0x4 ADD PUSH2 0x38E6 SWAP4 SWAP3 SWAP2 SWAP1 PUSH2 0x5A12 JUMP JUMPDEST PUSH2 0x3A0C PUSH2 0x5200 JUMP JUMPDEST PUSH1 0x0 PUSH2 0x3A16 PUSH2 0x4148 JUMP JUMPDEST PUSH2 0xFFFF SWAP4 DUP5 AND PUSH1 0x0 SWAP1 DUP2 MSTORE PUSH1 0x20 SWAP2 DUP3 MSTORE PUSH1 0x40 SWAP1 DUP2 SWAP1 KECCAK256 DUP1 SLOAD PUSH5 0xFFFFFFFFFF DUP2 AND DUP7 MSTORE PUSH1 0x1 PUSH1 0x28 SHL DUP2 DIV PUSH1 0x1 PUSH1 0x1 PUSH1 0x58 SHL SUB SWAP1 DUP2 AND SWAP5 DUP8 ADD SWAP5 SWAP1 SWAP5 MSTORE PUSH1 0x1 DUP3 ADD SLOAD DUP5 AND SWAP3 DUP7 ADD SWAP3 SWAP1 SWAP3 MSTORE PUSH1 0x1 PUSH1 0xD8 SHL DUP3 DIV PUSH4 0xFFFFFFFF AND PUSH1 0x60 DUP7 ADD MSTORE PUSH1 0x1 PUSH1 0x80 SHL SWAP1 SWAP2 DIV SWAP1 SWAP2 AND PUSH1 0x80 DUP5 ADD MSTORE PUSH1 0x2 ADD SLOAD PUSH1 0x1 PUSH1 0x1 PUSH1 0x50 SHL SUB DUP1 DUP3 AND PUSH1 0xA0 DUP6 ADD MSTORE PUSH1 0x1 PUSH1 0x50 SHL DUP3 DIV DUP2 AND PUSH1 0xC0 DUP6 ADD MSTORE PUSH1 0x1 PUSH1 0xA0 SHL DUP3 DIV AND PUSH1 0xE0 DUP5 ADD MSTORE PUSH1 0x1 PUSH1 0xF0 SHL SWAP1 DIV PUSH1 0xFF AND PUSH2 0x12C MUL SWAP1 SWAP3 AND PUSH2 0x100 DUP3 ADD MSTORE SWAP2 SWAP1 POP JUMP JUMPDEST PUSH1 0x0 DUP1 PUSH2 0x3AD8 DUP4 PUSH2 0x2FB7 JUMP JUMPDEST PUSH1 0x1 PUSH1 0x1 PUSH1 0xA0 SHL SUB AND PUSH4 0xEF81F216 PUSH1 0x40 MLOAD DUP2 PUSH4 0xFFFFFFFF AND PUSH1 0xE0 SHL DUP2 MSTORE PUSH1 0x4 ADD PUSH1 0x40 DUP1 MLOAD DUP1 DUP4 SUB DUP2 PUSH1 0x0 DUP8 DUP1 EXTCODESIZE ISZERO DUP1 ISZERO PUSH2 0x3B11 JUMPI PUSH1 0x0 DUP1 REVERT JUMPDEST POP GAS CALL ISZERO DUP1 ISZERO PUSH2 0x3B25 JUMPI RETURNDATASIZE PUSH1 0x0 DUP1 RETURNDATACOPY RETURNDATASIZE PUSH1 0x0 REVERT JUMPDEST POP POP POP POP PUSH1 0x40 MLOAD RETURNDATASIZE PUSH1 0x1F NOT PUSH1 0x1F DUP3 ADD AND DUP3 ADD DUP1 PUSH1 0x40 MSTORE POP DUP2 ADD SWAP1 PUSH2 0x284D SWAP2 SWAP1 PUSH2 0x56DC JUMP JUMPDEST PUSH2 0x3B51 PUSH2 0x5200 JUMP JUMPDEST PUSH1 0x0 DUP1 PUSH1 0x0 PUSH2 0x3B61 DUP9 DUP7 DUP10 PUSH2 0x4673 JUMP JUMPDEST PUSH1 0xC0 DUP12 ADD SWAP3 SWAP1 SWAP3 MSTORE PUSH1 0xE0 DUP11 ADD SWAP3 SWAP1 SWAP3 MSTORE PUSH1 0x20 DUP10 ADD MLOAD SWAP2 SWAP4 POP SWAP2 POP PUSH2 0x3B85 SWAP1 DUP4 PUSH2 0x2507 JUMP JUMPDEST PUSH1 0x20 DUP9 ADD MSTORE PUSH1 0x80 DUP8 ADD MLOAD PUSH1 0x0 SWAP1 ISZERO PUSH2 0x3BB3 JUMPI PUSH1 0x80 DUP9 ADD MLOAD PUSH2 0x3BB0 SWAP1 PUSH2 0x3BAA DUP10 DUP3 PUSH2 0x1465 JUMP JUMPDEST SWAP1 PUSH2 0x4784 JUMP JUMPDEST SWAP1 POP JUMPDEST PUSH2 0x3BD3 PUSH2 0x3BC8 PUSH8 0xDE0B6B3A7640000 DUP4 PUSH2 0x2507 JUMP JUMPDEST PUSH1 0xA0 DUP11 ADD MLOAD SWAP1 PUSH2 0x47A1 JUMP JUMPDEST PUSH1 0xA0 DUP10 ADD MSTORE POP PUSH1 0x80 DUP8 ADD DUP7 SWAP1 MSTORE PUSH1 0x0 PUSH2 0x3BEA PUSH2 0x47BE JUMP JUMPDEST PUSH2 0xFFFF DUP11 AND PUSH1 0x0 SWAP1 DUP2 MSTORE PUSH1 0x20 SWAP2 SWAP1 SWAP2 MSTORE PUSH1 0x40 SWAP1 KECCAK256 SLOAD DUP9 MLOAD PUSH4 0xFFFFFFFF PUSH1 0x1 PUSH1 0xA0 SHL SWAP1 SWAP3 DIV DUP3 AND SWAP3 POP PUSH2 0x3C35 SWAP2 PUSH2 0x3C24 SWAP1 DUP6 SWAP1 DUP6 SWAP1 PUSH2 0x2507 AND JUMP JUMPDEST DUP11 PUSH1 0x60 ADD MLOAD DUP12 PUSH2 0x100 ADD MLOAD DUP11 PUSH2 0x47CB JUMP JUMPDEST PUSH1 0x60 DUP10 ADD MSTORE POP POP SWAP3 DUP6 MSTORE POP SWAP3 SWAP5 SWAP1 SWAP4 POP SWAP2 POP POP JUMP JUMPDEST PUSH1 0x0 PUSH2 0x3C54 PUSH2 0x4148 JUMP JUMPDEST PUSH1 0x0 DUP6 PUSH2 0xFFFF AND DUP2 MSTORE PUSH1 0x20 ADD SWAP1 DUP2 MSTORE PUSH1 0x20 ADD PUSH1 0x0 KECCAK256 SWAP1 POP PUSH2 0x3C78 DUP3 PUSH1 0x0 ADD MLOAD PUSH2 0x2F83 JUMP JUMPDEST DUP2 SLOAD PUSH5 0xFFFFFFFFFF NOT AND PUSH5 0xFFFFFFFFFF SWAP2 SWAP1 SWAP2 AND OR DUP2 SSTORE PUSH1 0xA0 DUP3 ADD MLOAD PUSH2 0x3C9D SWAP1 PUSH2 0x18ED JUMP JUMPDEST PUSH1 0x2 DUP3 ADD DUP1 SLOAD PUSH1 0x1 PUSH1 0x1 PUSH1 0x50 SHL SUB NOT AND PUSH1 0x1 PUSH1 0x1 PUSH1 0x50 SHL SUB SWAP3 SWAP1 SWAP3 AND SWAP2 SWAP1 SWAP2 OR SWAP1 SSTORE PUSH1 0xC0 DUP3 ADD MLOAD PUSH2 0x3CCD SWAP1 PUSH2 0x18ED JUMP JUMPDEST DUP2 PUSH1 0x2 ADD PUSH1 0xA PUSH2 0x100 EXP DUP2 SLOAD DUP2 PUSH1 0x1 PUSH1 0x1 PUSH1 0x50 SHL SUB MUL NOT AND SWAP1 DUP4 PUSH1 0x1 PUSH1 0x1 PUSH1 0x50 SHL SUB AND MUL OR SWAP1 SSTORE POP PUSH2 0x3D02 DUP3 PUSH1 0xE0 ADD MLOAD PUSH2 0x18ED JUMP JUMPDEST DUP2 PUSH1 0x2 ADD PUSH1 0x14 PUSH2 0x100 EXP DUP2 SLOAD DUP2 PUSH1 0x1 PUSH1 0x1 PUSH1 0x50 SHL SUB MUL NOT AND SWAP1 DUP4 PUSH1 0x1 PUSH1 0x1 PUSH1 0x50 SHL SUB AND MUL OR SWAP1 SSTORE POP PUSH2 0x3D37 DUP3 PUSH1 0x20 ADD MLOAD PUSH2 0x4155 JUMP JUMPDEST DUP2 SLOAD PUSH1 0x1 PUSH1 0x1 PUSH1 0x58 SHL SUB SWAP2 SWAP1 SWAP2 AND PUSH1 0x1 PUSH1 0x28 SHL MUL PUSH16 0xFFFFFFFFFFFFFFFFFFFFFF0000000000 NOT SWAP1 SWAP2 AND OR DUP2 SSTORE PUSH1 0x40 DUP3 ADD MLOAD PUSH2 0x3D71 SWAP1 PUSH2 0x4155 JUMP JUMPDEST PUSH1 0x1 DUP3 ADD DUP1 SLOAD PUSH11 0xFFFFFFFFFFFFFFFFFFFFFF NOT AND PUSH1 0x1 PUSH1 0x1 PUSH1 0x58 SHL SUB SWAP3 SWAP1 SWAP3 AND SWAP2 SWAP1 SWAP2 OR SWAP1 SSTORE PUSH1 0x80 DUP3 ADD MLOAD PUSH2 0x3DA5 SWAP1 PUSH2 0x4155 JUMP JUMPDEST DUP2 SLOAD PUSH1 0x1 PUSH1 0x1 PUSH1 0x58 SHL SUB SWAP2 SWAP1 SWAP2 AND PUSH1 0x1 PUSH1 0x80 SHL MUL PUSH11 0xFFFFFFFFFFFFFFFFFFFFFF PUSH1 0x80 SHL NOT SWAP1 SWAP2 AND OR DUP2 SSTORE PUSH1 0x60 DUP3 ADD MLOAD PUSH2 0x3DDD SWAP1 PUSH2 0x2F97 JUMP JUMPDEST DUP2 SLOAD PUSH4 0xFFFFFFFF SWAP2 SWAP1 SWAP2 AND PUSH1 0x1 PUSH1 0xD8 SHL MUL PUSH4 0xFFFFFFFF PUSH1 0xD8 SHL NOT SWAP1 SWAP2 AND OR DUP2 SSTORE DUP3 ISZERO PUSH2 0x3E29 JUMPI PUSH1 0x0 PUSH2 0x3E0E DUP5 PUSH2 0xAE5 JUMP JUMPDEST SWAP1 POP PUSH2 0x3E1A DUP6 DUP3 PUSH2 0x3791 JUMP JUMPDEST PUSH2 0x3E27 PUSH2 0xFEE DUP7 DUP4 PUSH2 0x328D JUMP JUMPDEST POP JUMPDEST DUP4 PUSH2 0xFFFF AND PUSH32 0xEF25641E225E493886510CA1AD6584FA7B442B9FEA820A29D1DE3CE27D270FD2 DUP4 PUSH1 0xA0 ADD MLOAD DUP5 PUSH1 0xC0 ADD MLOAD DUP6 PUSH1 0xE0 ADD MLOAD PUSH1 0x40 MLOAD PUSH2 0x3E6D SWAP4 SWAP3 SWAP2 SWAP1 PUSH2 0x5D11 JUMP JUMPDEST PUSH1 0x40 MLOAD DUP1 SWAP2 SUB SWAP1 LOG2 POP POP POP POP JUMP JUMPDEST PUSH1 0x0 DUP2 PUSH1 0x0 SGT ISZERO DUP1 ISZERO PUSH2 0x3E8E JUMPI POP PUSH1 0xA DUP3 SLT JUMPDEST ISZERO PUSH2 0x3E9B JUMPI POP PUSH1 0x0 PUSH2 0xB4D JUMP JUMPDEST PUSH1 0x0 DUP3 SLT PUSH2 0x3EA8 JUMPI PUSH1 0x0 DUP1 REVERT JUMPDEST PUSH2 0xBA6 PUSH1 0x1 PUSH2 0x24F6 DUP6 PUSH1 0x20 ADD MLOAD PUSH2 0x2C6 PUSH15 0xC097CE7BC90715B34B9F1000000000 DUP8 PUSH2 0xAFF SWAP1 SWAP2 SWAP1 PUSH4 0xFFFFFFFF AND JUMP JUMPDEST PUSH1 0x0 DUP1 PUSH2 0xB4D PUSH1 0x1F PUSH2 0x2A6D JUMP JUMPDEST PUSH1 0x0 PUSH1 0x3 DUP4 PUSH1 0x60 ADD MLOAD PUSH1 0x5 DUP2 GT ISZERO PUSH2 0x3EF8 JUMPI INVALID JUMPDEST EQ ISZERO PUSH2 0x3F0F JUMPI POP PUSH1 0x1 PUSH1 0x1 PUSH1 0xA0 SHL SUB DUP2 AND BALANCE PUSH2 0xB4D JUMP JUMPDEST DUP3 MLOAD PUSH1 0x40 MLOAD PUSH4 0x70A08231 PUSH1 0xE0 SHL DUP2 MSTORE PUSH1 0x1 PUSH1 0x1 PUSH1 0xA0 SHL SUB SWAP1 SWAP2 AND SWAP1 PUSH4 0x70A08231 SWAP1 PUSH2 0x3F3E SWAP1 DUP6 SWAP1 PUSH1 0x4 ADD PUSH2 0x599F JUMP JUMPDEST PUSH1 0x20 PUSH1 0x40 MLOAD DUP1 DUP4 SUB DUP2 DUP7 DUP1 EXTCODESIZE ISZERO DUP1 ISZERO PUSH2 0x3F56 JUMPI PUSH1 0x0 DUP1 REVERT JUMPDEST POP GAS STATICCALL ISZERO DUP1 ISZERO PUSH2 0x3F6A JUMPI RETURNDATASIZE PUSH1 0x0 DUP1 RETURNDATACOPY RETURNDATASIZE PUSH1 0x0 REVERT JUMPDEST POP POP POP POP PUSH1 0x40 MLOAD RETURNDATASIZE PUSH1 0x1F NOT PUSH1 0x1F DUP3 ADD AND DUP3 ADD DUP1 PUSH1 0x40 MSTORE POP DUP2 ADD SWAP1 PUSH2 0x1E3B SWAP2 SWAP1 PUSH2 0x585E JUMP JUMPDEST PUSH1 0x0 DUP1 DUP5 PUSH1 0x1 PUSH1 0x1 PUSH1 0xA0 SHL SUB AND DUP5 DUP5 PUSH1 0x40 MLOAD DUP1 DUP3 DUP1 MLOAD SWAP1 PUSH1 0x20 ADD SWAP1 DUP1 DUP4 DUP4 JUMPDEST PUSH1 0x20 DUP4 LT PUSH2 0x3FCC JUMPI DUP1 MLOAD DUP3 MSTORE PUSH1 0x1F NOT SWAP1 SWAP3 ADD SWAP2 PUSH1 0x20 SWAP2 DUP3 ADD SWAP2 ADD PUSH2 0x3FAD JUMP JUMPDEST PUSH1 0x1 DUP4 PUSH1 0x20 SUB PUSH2 0x100 EXP SUB DUP1 NOT DUP3 MLOAD AND DUP2 DUP5 MLOAD AND DUP1 DUP3 OR DUP6 MSTORE POP POP POP POP POP POP SWAP1 POP ADD SWAP2 POP POP PUSH1 0x0 PUSH1 0x40 MLOAD DUP1 DUP4 SUB DUP2 DUP6 DUP8 GAS CALL SWAP3 POP POP POP RETURNDATASIZE DUP1 PUSH1 0x0 DUP2 EQ PUSH2 0x402E JUMPI PUSH1 0x40 MLOAD SWAP2 POP PUSH1 0x1F NOT PUSH1 0x3F RETURNDATASIZE ADD AND DUP3 ADD PUSH1 0x40 MSTORE RETURNDATASIZE DUP3 MSTORE RETURNDATASIZE PUSH1 0x0 PUSH1 0x20 DUP5 ADD RETURNDATACOPY PUSH2 0x4033 JUMP JUMPDEST PUSH1 0x60 SWAP2 POP JUMPDEST POP SWAP2 POP SWAP2 POP DUP2 PUSH2 0x4042 DUP3 PUSH2 0x4859 JUMP JUMPDEST SWAP1 PUSH2 0x25A9 JUMPI PUSH1 0x40 MLOAD PUSH3 0x461BCD PUSH1 0xE5 SHL DUP2 MSTORE PUSH1 0x4 ADD DUP1 DUP1 PUSH1 0x20 ADD DUP3 DUP2 SUB DUP3 MSTORE DUP4 DUP2 DUP2 MLOAD DUP2 MSTORE PUSH1 0x20 ADD SWAP2 POP DUP1 MLOAD SWAP1 PUSH1 0x20 ADD SWAP1 DUP1 DUP4 DUP4 PUSH1 0x0 JUMPDEST DUP4 DUP2 LT ISZERO PUSH2 0x4090 JUMPI DUP2 DUP2 ADD MLOAD DUP4 DUP3 ADD MSTORE PUSH1 0x20 ADD PUSH2 0x4078 JUMP JUMPDEST POP POP POP POP SWAP1 POP SWAP1 DUP2 ADD SWAP1 PUSH1 0x1F AND DUP1 ISZERO PUSH2 0x40BD JUMPI DUP1 DUP3 SUB DUP1 MLOAD PUSH1 0x1 DUP4 PUSH1 0x20 SUB PUSH2 0x100 EXP SUB NOT AND DUP2 MSTORE PUSH1 0x20 ADD SWAP2 POP JUMPDEST POP SWAP3 POP POP POP PUSH1 0x40 MLOAD DUP1 SWAP2 SUB SWAP1 REVERT JUMPDEST PUSH1 0x0 PUSH2 0x40D5 PUSH2 0x2FAA JUMP JUMPDEST PUSH1 0x1 PUSH1 0x1 PUSH1 0xA0 SHL SUB DUP6 AND PUSH1 0x0 SWAP1 DUP2 MSTORE PUSH1 0x20 DUP3 SWAP1 MSTORE PUSH1 0x40 SWAP1 KECCAK256 SLOAD SWAP1 SWAP2 POP DUP4 DUP2 GT ISZERO PUSH2 0x40FE JUMPI PUSH1 0x0 DUP1 REVERT JUMPDEST PUSH1 0x0 PUSH2 0x4115 PUSH2 0x410C DUP7 PUSH2 0xAE5 JUMP JUMPDEST PUSH2 0x24F6 DUP7 PUSH2 0xAE5 JUMP JUMPDEST SWAP1 POP PUSH2 0x4124 PUSH2 0xC43 DUP4 DUP4 PUSH2 0x18C8 JUMP JUMPDEST PUSH1 0x1 PUSH1 0x1 PUSH1 0xA0 SHL SUB SWAP1 SWAP7 AND PUSH1 0x0 SWAP1 DUP2 MSTORE PUSH1 0x20 SWAP4 SWAP1 SWAP4 MSTORE POP POP PUSH1 0x40 SWAP1 KECCAK256 SWAP3 SWAP1 SWAP3 SSTORE POP POP JUMP JUMPDEST PUSH1 0x0 DUP1 PUSH2 0xB4D PUSH1 0x1D PUSH2 0x2A6D JUMP JUMPDEST PUSH1 0x0 PUSH1 0x1 PUSH1 0x1 PUSH1 0x58 SHL SUB DUP3 GT ISZERO PUSH2 0xAFB JUMPI PUSH1 0x0 DUP1 REVERT JUMPDEST PUSH1 0x0 DUP2 DUP4 EQ DUP1 PUSH2 0x4188 JUMPI POP PUSH1 0x0 DUP4 SLT ISZERO DUP1 ISZERO PUSH2 0x4188 JUMPI POP PUSH1 0x0 DUP3 SLT ISZERO JUMPDEST ISZERO PUSH2 0x4195 JUMPI POP PUSH1 0x0 PUSH2 0xB4D JUMP JUMPDEST PUSH1 0x0 DUP4 SGT ISZERO DUP1 ISZERO PUSH2 0x41A6 JUMPI POP DUP2 PUSH1 0x0 SLT JUMPDEST ISZERO PUSH2 0x41B2 JUMPI POP DUP2 PUSH2 0xB4D JUMP JUMPDEST PUSH1 0x0 DUP3 SGT ISZERO DUP1 ISZERO PUSH2 0x41C3 JUMPI POP DUP3 PUSH1 0x0 SLT JUMPDEST ISZERO PUSH2 0x41D1 JUMPI PUSH2 0x1E3B DUP3 PUSH2 0xBD9 JUMP JUMPDEST PUSH1 0x0 DUP4 SGT ISZERO DUP1 ISZERO PUSH2 0x41E3 JUMPI POP PUSH1 0x0 DUP3 SGT ISZERO JUMPDEST ISZERO PUSH2 0x70 JUMPI PUSH2 0x1E3B DUP4 DUP4 PUSH2 0x3659 JUMP JUMPDEST DUP1 ISZERO PUSH2 0x1D1A JUMPI DUP4 MLOAD PUSH1 0x20 DUP6 ADD MLOAD PUSH1 0x0 SWAP2 PUSH2 0x4211 SWAP2 PUSH2 0x2C6 SWAP1 DUP6 SWAP1 PUSH2 0xAFF JUMP JUMPDEST SWAP1 POP PUSH2 0xF2B DUP5 DUP5 DUP5 DUP5 PUSH2 0x4960 JUMP JUMPDEST PUSH1 0x0 PUSH2 0x422B DUP4 DUP4 PUSH2 0x416B JUMP JUMPDEST SWAP1 POP DUP1 PUSH2 0x4238 JUMPI POP PUSH2 0xF2B JUMP JUMPDEST PUSH1 0x0 PUSH2 0x4242 PUSH2 0x4A94 JUMP JUMPDEST PUSH2 0xFFFF DUP8 AND PUSH1 0x0 SWAP1 DUP2 MSTORE PUSH1 0x20 DUP3 DUP2 MSTORE PUSH1 0x40 DUP1 DUP4 KECCAK256 DUP10 DUP5 MSTORE SWAP1 SWAP2 MSTORE DUP2 KECCAK256 SLOAD SWAP2 SWAP3 POP PUSH1 0x1 PUSH1 0x1 PUSH1 0x50 SHL SUB SWAP1 SWAP2 AND DUP2 SUB SWAP1 PUSH2 0x427A DUP3 DUP6 PUSH2 0x3659 JUMP JUMPDEST SWAP1 POP PUSH1 0x0 DUP2 SGT ISZERO PUSH2 0x428A JUMPI PUSH1 0x0 DUP1 REVERT JUMPDEST PUSH2 0x4299 PUSH2 0xC48 PUSH2 0xC43 DUP4 PUSH2 0xBD9 JUMP JUMPDEST PUSH2 0xFFFF DUP10 AND PUSH1 0x0 SWAP1 DUP2 MSTORE PUSH1 0x20 DUP6 DUP2 MSTORE PUSH1 0x40 DUP1 DUP4 KECCAK256 DUP12 DUP5 MSTORE SWAP1 SWAP2 MSTORE SWAP1 KECCAK256 DUP1 SLOAD PUSH1 0x1 PUSH1 0x1 PUSH1 0x50 SHL SUB NOT AND PUSH1 0x1 PUSH1 0x1 PUSH1 0x50 SHL SUB SWAP3 SWAP1 SWAP3 AND SWAP2 SWAP1 SWAP2 OR SWAP1 SSTORE PUSH2 0xDE7 DUP10 DUP10 DUP10 DUP8 PUSH2 0x4AA1 JUMP JUMPDEST PUSH1 0x0 PUSH2 0x42E9 PUSH2 0x4B07 JUMP JUMPDEST PUSH1 0x1 PUSH1 0x1 PUSH1 0xA0 SHL SUB DUP6 AND PUSH1 0x0 SWAP1 DUP2 MSTORE PUSH1 0x20 SWAP2 DUP3 MSTORE PUSH1 0x40 DUP1 DUP3 KECCAK256 PUSH2 0xFFFF DUP8 AND DUP4 MSTORE SWAP1 SWAP3 MSTORE SWAP1 DUP2 KECCAK256 DUP1 SLOAD SWAP1 SWAP3 POP PUSH2 0x432E SWAP1 PUSH1 0x1 PUSH1 0x50 SHL SWAP1 DIV PUSH1 0x1 PUSH1 0x1 PUSH1 0x50 SHL SUB AND DUP5 PUSH2 0x3659 JUMP JUMPDEST SWAP1 POP PUSH2 0x433C PUSH2 0xC48 DUP3 PUSH2 0x18DE JUMP JUMPDEST DUP3 SLOAD PUSH1 0x1 PUSH1 0x1 PUSH1 0x50 SHL SUB SWAP2 SWAP1 SWAP2 AND PUSH1 0x1 PUSH1 0x50 SHL MUL PUSH10 0xFFFFFFFFFFFFFFFFFFFF PUSH1 0x50 SHL NOT SWAP1 SWAP2 AND OR DUP3 SSTORE PUSH1 0x40 MLOAD PUSH2 0xFFFF DUP6 AND SWAP1 PUSH1 0x1 PUSH1 0x1 PUSH1 0xA0 SHL SUB DUP8 AND SWAP1 PUSH32 0x20478EF460E49D010960D4F3FFF35D8DAE385443ABFAC09035D6A2CCBCD834C4 SWAP1 PUSH2 0x43A6 SWAP1 DUP6 SWAP1 PUSH2 0x5A74 JUMP JUMPDEST PUSH1 0x40 MLOAD DUP1 SWAP2 SUB SWAP1 LOG3 POP POP POP POP POP JUMP JUMPDEST PUSH1 0x0 DUP1 DUP5 PUSH1 0x40 ADD MLOAD PUSH2 0xFFFF AND DUP4 PUSH2 0xFFFF AND EQ ISZERO PUSH2 0x4401 JUMPI PUSH2 0x43D4 PUSH2 0x2996 JUMP JUMPDEST DUP6 MLOAD PUSH1 0x1 PUSH1 0x1 PUSH1 0xA0 SHL SUB AND PUSH1 0x0 SWAP1 DUP2 MSTORE PUSH1 0x20 SWAP2 DUP3 MSTORE PUSH1 0x40 DUP1 DUP3 KECCAK256 PUSH5 0xFFFFFFFFFF DUP4 MSTORE SWAP1 SWAP3 MSTORE KECCAK256 SWAP1 POP PUSH2 0x443E JUMP JUMPDEST PUSH2 0x4409 PUSH2 0x44D7 JUMP JUMPDEST DUP6 MLOAD PUSH1 0x1 PUSH1 0x1 PUSH1 0xA0 SHL SUB AND PUSH1 0x0 SWAP1 DUP2 MSTORE PUSH1 0x20 SWAP2 DUP3 MSTORE PUSH1 0x40 DUP1 DUP3 KECCAK256 PUSH5 0xFFFFFFFFFF DUP4 MSTORE DUP4 MSTORE DUP1 DUP3 KECCAK256 PUSH2 0xFFFF DUP8 AND DUP4 MSTORE SWAP1 SWAP3 MSTORE KECCAK256 SWAP1 POP JUMPDEST DUP1 SLOAD PUSH2 0xE92 SWAP1 DUP6 SWAP1 PUSH5 0xFFFFFFFFFF SWAP1 PUSH1 0x1 PUSH1 0x1 PUSH1 0x50 SHL SUB AND PUSH2 0x2817 JUMP JUMPDEST PUSH1 0x0 PUSH2 0x4465 PUSH2 0x4B07 JUMP JUMPDEST PUSH1 0x1 PUSH1 0x1 PUSH1 0xA0 SHL SUB DUP6 AND PUSH1 0x0 SWAP1 DUP2 MSTORE PUSH1 0x20 SWAP2 DUP3 MSTORE PUSH1 0x40 DUP1 DUP3 KECCAK256 PUSH2 0xFFFF DUP8 AND DUP4 MSTORE SWAP1 SWAP3 MSTORE SWAP1 DUP2 KECCAK256 DUP1 SLOAD SWAP1 SWAP3 POP PUSH2 0x44AA SWAP1 PUSH1 0x1 PUSH1 0x50 SHL SWAP1 DIV PUSH1 0x1 PUSH1 0x1 PUSH1 0x50 SHL SUB AND DUP5 PUSH2 0x3659 JUMP JUMPDEST DUP3 SLOAD SWAP1 SWAP2 POP PUSH1 0x1 PUSH1 0x1 PUSH1 0x50 SHL SUB AND DUP2 SGT ISZERO PUSH2 0xF2B JUMPI PUSH1 0x40 MLOAD PUSH3 0x461BCD PUSH1 0xE5 SHL DUP2 MSTORE PUSH1 0x4 ADD PUSH2 0x173 SWAP1 PUSH2 0x5AF2 JUMP JUMPDEST PUSH1 0x0 DUP1 PUSH2 0xB4D PUSH1 0x18 PUSH2 0x2A6D JUMP JUMPDEST DUP1 PUSH2 0x44EE JUMPI PUSH2 0xF2B JUMP JUMPDEST PUSH1 0x0 DUP1 DUP1 PUSH2 0x44FF DUP8 DUP8 DUP8 PUSH1 0xA PUSH2 0x1DDE JUMP JUMPDEST SWAP1 POP PUSH1 0x0 DUP5 SGT ISZERO PUSH2 0x4516 JUMPI DUP8 SWAP3 POP PUSH1 0x0 SWAP2 POP PUSH2 0x451E JUMP JUMPDEST PUSH1 0x0 SWAP3 POP DUP8 SWAP2 POP JUMPDEST PUSH1 0x1 PUSH1 0x1 PUSH1 0xA0 SHL SUB DUP1 DUP4 AND SWAP1 DUP5 AND CALLER PUSH1 0x0 DUP1 MLOAD PUSH1 0x20 PUSH2 0x5DB9 DUP4 CODECOPY DUP2 MLOAD SWAP2 MSTORE DUP5 PUSH2 0x4546 DUP10 PUSH2 0x1B42 JUMP JUMPDEST PUSH1 0x40 MLOAD PUSH2 0x4554 SWAP3 SWAP2 SWAP1 PUSH2 0x5D03 JUMP JUMPDEST PUSH1 0x40 MLOAD DUP1 SWAP2 SUB SWAP1 LOG4 POP POP POP POP POP POP POP POP JUMP JUMPDEST PUSH1 0x0 DUP1 PUSH2 0x4571 PUSH2 0x4B14 JUMP JUMPDEST PUSH1 0x1 PUSH1 0x1 PUSH1 0xA0 SHL SUB DUP6 AND PUSH1 0x0 SWAP1 DUP2 MSTORE PUSH1 0x20 DUP3 DUP2 MSTORE PUSH1 0x40 DUP1 DUP4 KECCAK256 PUSH2 0xFFFF DUP9 AND DUP5 MSTORE SWAP1 SWAP2 MSTORE DUP2 KECCAK256 DUP1 SLOAD PUSH1 0x1 PUSH1 0xA8 SHL SWAP1 DIV PUSH1 0xA SWAP1 DUP2 SIGNEXTEND SWAP1 SIGNEXTEND SWAP5 POP SWAP2 SWAP3 POP DUP4 SLT ISZERO PUSH2 0x45B7 JUMPI PUSH1 0x0 DUP1 REVERT JUMPDEST POP POP SWAP3 SWAP2 POP POP JUMP JUMPDEST PUSH1 0x0 DUP2 SLT ISZERO PUSH2 0x45CD JUMPI PUSH1 0x0 DUP1 REVERT JUMPDEST PUSH1 0x0 PUSH2 0x45D7 PUSH2 0x4B14 JUMP JUMPDEST PUSH1 0x1 PUSH1 0x1 PUSH1 0xA0 SHL SUB DUP6 AND PUSH1 0x0 SWAP1 DUP2 MSTORE PUSH1 0x20 DUP3 DUP2 MSTORE PUSH1 0x40 DUP1 DUP4 KECCAK256 PUSH2 0xFFFF DUP9 AND DUP5 MSTORE SWAP1 SWAP2 MSTORE SWAP1 KECCAK256 SWAP1 SWAP2 POP PUSH2 0x4608 DUP4 PUSH2 0x4B21 JUMP JUMPDEST DUP2 SLOAD PUSH1 0xA SWAP2 SWAP1 SWAP2 SIGNEXTEND PUSH1 0x1 PUSH1 0x1 PUSH1 0x58 SHL SUB AND PUSH1 0x1 PUSH1 0xA8 SHL MUL PUSH1 0x1 PUSH1 0x1 PUSH1 0xA8 SHL SUB SWAP1 SWAP2 AND OR SWAP1 SSTORE POP POP POP POP JUMP JUMPDEST PUSH1 0x0 DUP1 PUSH2 0x463E PUSH2 0x4666 JUMP JUMPDEST PUSH1 0x0 SWAP4 DUP5 MSTORE PUSH1 0x20 MSTORE POP POP PUSH1 0x40 SWAP1 KECCAK256 SLOAD PUSH1 0x1 PUSH1 0x1 PUSH1 0xA0 SHL SUB AND SWAP1 JUMP JUMPDEST PUSH1 0x0 DUP1 PUSH2 0xB4D PUSH1 0x22 PUSH2 0x2A6D JUMP JUMPDEST PUSH1 0x0 DUP1 PUSH2 0xB4D PUSH1 0x3 PUSH2 0x2A6D JUMP JUMPDEST PUSH1 0x0 DUP1 PUSH1 0x0 DUP1 PUSH1 0x0 DUP1 PUSH2 0x4686 DUP10 DUP9 PUSH2 0x4B53 JUMP JUMPDEST DUP10 MLOAD SWAP1 SWAP6 POP SWAP2 SWAP4 POP SWAP2 POP PUSH1 0x0 SWAP1 PUSH2 0x46AD SWAP1 PUSH2 0x46A2 SWAP1 DUP12 SWAP1 PUSH2 0x1465 JUMP JUMPDEST PUSH4 0x3B9ACA00 SWAP1 PUSH2 0x3689 JUMP JUMPDEST SWAP1 POP PUSH2 0x46E7 PUSH2 0x46DC PUSH4 0x1DA9C00 PUSH2 0x46C4 DUP6 DUP6 PUSH2 0x3689 JUMP JUMPDEST DUP2 PUSH2 0x46CB JUMPI INVALID JUMPDEST PUSH8 0xDE0B6B3A7640000 SWAP2 SWAP1 DIV PUSH2 0x2507 JUMP JUMPDEST PUSH1 0xE0 DUP11 ADD MLOAD SWAP1 PUSH2 0x47A1 JUMP JUMPDEST SWAP7 POP PUSH2 0x4709 PUSH2 0x46FE PUSH4 0x1DA9C00 PUSH2 0x46C4 DUP8 DUP6 PUSH2 0x3689 JUMP JUMPDEST PUSH1 0xC0 DUP11 ADD MLOAD SWAP1 PUSH2 0x47A1 JUMP JUMPDEST SWAP6 POP DUP2 DUP4 EQ ISZERO PUSH2 0x4720 JUMPI POP PUSH1 0x0 SWAP4 POP PUSH2 0x477B SWAP2 POP POP JUMP JUMPDEST PUSH1 0x0 PUSH2 0x4742 PUSH2 0x4737 PUSH4 0x1DA9C00 PUSH2 0x46C4 DUP8 DUP7 PUSH2 0x3689 JUMP JUMPDEST PUSH1 0xE0 DUP12 ADD MLOAD SWAP1 PUSH2 0x47A1 JUMP JUMPDEST SWAP1 POP PUSH1 0x0 PUSH2 0x4750 DUP10 DUP4 PUSH2 0x1465 JUMP JUMPDEST SWAP1 POP PUSH2 0x4773 DUP9 PUSH2 0x476D DUP4 DUP14 PUSH1 0x40 ADD MLOAD PUSH2 0x3689 SWAP1 SWAP2 SWAP1 PUSH4 0xFFFFFFFF AND JUMP JUMPDEST SWAP1 PUSH2 0x4BEE JUMP JUMPDEST SWAP7 POP POP POP POP POP POP JUMPDEST SWAP4 POP SWAP4 POP SWAP4 POP SWAP4 JUMP JUMPDEST PUSH1 0x0 PUSH2 0xBA6 PUSH2 0x479B DUP5 PUSH8 0xDE0B6B3A7640000 PUSH2 0x3689 JUMP JUMPDEST DUP4 PUSH2 0x4BEE JUMP JUMPDEST PUSH1 0x0 PUSH2 0xBA6 PUSH2 0x47B0 DUP5 DUP5 PUSH2 0x3689 JUMP JUMPDEST PUSH8 0xDE0B6B3A7640000 PUSH2 0x4BEE JUMP JUMPDEST PUSH1 0x0 DUP1 PUSH2 0xB4D PUSH1 0x25 PUSH2 0x2A6D JUMP JUMPDEST PUSH1 0x0 DUP1 DUP4 GT PUSH2 0x47D9 JUMPI PUSH1 0x0 DUP1 REVERT JUMPDEST DUP2 DUP7 GT ISZERO PUSH2 0x47E8 JUMPI POP DUP4 PUSH2 0xE92 JUMP JUMPDEST PUSH1 0x0 PUSH2 0x47F4 DUP4 DUP9 PUSH2 0x1465 JUMP JUMPDEST SWAP1 POP DUP4 DUP2 GT ISZERO PUSH2 0x4807 JUMPI DUP6 SWAP2 POP POP PUSH2 0xE92 JUMP JUMPDEST PUSH1 0x0 PUSH2 0x4813 DUP3 DUP7 PUSH2 0x4C0D JUMP JUMPDEST SWAP1 POP PUSH1 0x0 PUSH2 0x4825 PUSH4 0x3B9ACA00 DUP4 PUSH2 0x1465 JUMP JUMPDEST SWAP1 POP PUSH2 0x484C PUSH4 0x3B9ACA00 PUSH2 0x476D PUSH2 0x483C DUP11 DUP6 PUSH2 0x3689 JUMP JUMPDEST PUSH2 0x4846 DUP13 DUP8 PUSH2 0x3689 JUMP JUMPDEST SWAP1 PUSH2 0x2507 JUMP JUMPDEST SWAP10 SWAP9 POP POP POP POP POP POP POP POP POP JUMP JUMPDEST PUSH1 0x60 PUSH1 0x44 DUP3 MLOAD LT ISZERO PUSH2 0x488F JUMPI POP PUSH1 0x40 DUP1 MLOAD DUP1 DUP3 ADD SWAP1 SWAP2 MSTORE PUSH1 0xD DUP2 MSTORE PUSH13 0x14DA5B195B9D0814995D995C9D PUSH1 0x9A SHL PUSH1 0x20 DUP3 ADD MSTORE PUSH2 0x972 JUMP JUMPDEST PUSH1 0x4 DUP3 ADD DUP1 MLOAD SWAP1 SWAP3 PUSH1 0x24 ADD SWAP1 PUSH1 0x20 DUP2 LT ISZERO PUSH2 0x48A9 JUMPI PUSH1 0x0 DUP1 REVERT JUMPDEST DUP2 ADD SWAP1 DUP1 DUP1 MLOAD PUSH1 0x40 MLOAD SWAP4 SWAP3 SWAP2 SWAP1 DUP5 PUSH5 0x100000000 DUP3 GT ISZERO PUSH2 0x48C9 JUMPI PUSH1 0x0 DUP1 REVERT JUMPDEST SWAP1 DUP4 ADD SWAP1 PUSH1 0x20 DUP3 ADD DUP6 DUP2 GT ISZERO PUSH2 0x48DE JUMPI PUSH1 0x0 DUP1 REVERT JUMPDEST DUP3 MLOAD PUSH5 0x100000000 DUP2 GT DUP3 DUP3 ADD DUP9 LT OR ISZERO PUSH2 0x48F8 JUMPI PUSH1 0x0 DUP1 REVERT JUMPDEST DUP3 MSTORE POP DUP2 MLOAD PUSH1 0x20 SWAP2 DUP3 ADD SWAP3 SWAP1 SWAP2 ADD SWAP1 DUP1 DUP4 DUP4 PUSH1 0x0 JUMPDEST DUP4 DUP2 LT ISZERO PUSH2 0x4925 JUMPI DUP2 DUP2 ADD MLOAD DUP4 DUP3 ADD MSTORE PUSH1 0x20 ADD PUSH2 0x490D JUMP JUMPDEST POP POP POP POP SWAP1 POP SWAP1 DUP2 ADD SWAP1 PUSH1 0x1F AND DUP1 ISZERO PUSH2 0x4952 JUMPI DUP1 DUP3 SUB DUP1 MLOAD PUSH1 0x1 DUP4 PUSH1 0x20 SUB PUSH2 0x100 EXP SUB NOT AND DUP2 MSTORE PUSH1 0x20 ADD SWAP2 POP JUMPDEST POP PUSH1 0x40 MSTORE POP POP POP SWAP1 POP SWAP2 SWAP1 POP JUMP JUMPDEST PUSH1 0x0 PUSH2 0x496A PUSH2 0x4148 JUMP JUMPDEST PUSH2 0xFFFF DUP6 AND PUSH1 0x0 SWAP1 DUP2 MSTORE PUSH1 0x20 SWAP2 SWAP1 SWAP2 MSTORE PUSH1 0x40 SWAP1 KECCAK256 DUP1 SLOAD SWAP1 SWAP2 POP PUSH5 0xFFFFFFFFFF AND TIMESTAMP EQ PUSH2 0x4995 JUMPI PUSH1 0x0 DUP1 REVERT JUMPDEST DUP1 SLOAD PUSH1 0x1 PUSH1 0xF8 SHL SWAP1 DIV PUSH1 0xFF AND PUSH2 0x49AA JUMPI PUSH1 0x0 DUP1 REVERT JUMPDEST PUSH1 0x1 DUP2 ADD SLOAD PUSH1 0x0 SWAP1 PUSH2 0x49C5 SWAP1 PUSH1 0x1 PUSH1 0x1 PUSH1 0x58 SHL SUB AND DUP6 PUSH2 0x18C8 JUMP JUMPDEST DUP3 SLOAD SWAP1 SWAP2 POP PUSH1 0x0 SWAP1 PUSH2 0x49E7 SWAP1 PUSH1 0x1 PUSH1 0x28 SHL SWAP1 DIV PUSH1 0x1 PUSH1 0x1 PUSH1 0x58 SHL SUB AND DUP6 PUSH2 0x18C8 JUMP JUMPDEST SWAP1 POP DUP2 PUSH1 0x9 NOT SLT DUP1 ISZERO PUSH2 0x49FA JUMPI POP PUSH1 0x0 DUP3 SLT JUMPDEST ISZERO PUSH2 0x4A04 JUMPI PUSH1 0x0 SWAP2 POP JUMPDEST DUP1 PUSH1 0x9 NOT SLT DUP1 ISZERO PUSH2 0x4A15 JUMPI POP PUSH1 0x0 DUP2 SLT JUMPDEST ISZERO PUSH2 0x4A1E JUMPI POP PUSH1 0x0 JUMPDEST PUSH2 0x4A2A PUSH2 0x3391 DUP4 PUSH2 0x18DE JUMP JUMPDEST PUSH1 0x1 DUP5 ADD DUP1 SLOAD PUSH11 0xFFFFFFFFFFFFFFFFFFFFFF NOT AND PUSH1 0x1 PUSH1 0x1 PUSH1 0x58 SHL SUB SWAP3 SWAP1 SWAP3 AND SWAP2 SWAP1 SWAP2 OR SWAP1 SSTORE PUSH2 0x4A5C PUSH2 0x3391 DUP3 PUSH2 0x18DE JUMP JUMPDEST DUP4 SLOAD PUSH1 0x1 PUSH1 0x1 PUSH1 0x58 SHL SUB SWAP2 SWAP1 SWAP2 AND PUSH1 0x1 PUSH1 0x28 SHL MUL PUSH16 0xFFFFFFFFFFFFFFFFFFFFFF0000000000 NOT SWAP1 SWAP2 AND OR DUP4 SSTORE PUSH2 0xD43 DUP8 DUP8 DUP7 DUP9 PUSH2 0x380C JUMP JUMPDEST PUSH1 0x0 DUP1 PUSH2 0xB4D PUSH1 0x20 PUSH2 0x2A6D JUMP JUMPDEST PUSH1 0x0 DUP1 PUSH2 0x4AAF DUP6 DUP6 DUP6 PUSH2 0x4C20 JUMP JUMPDEST SWAP2 POP SWAP2 POP PUSH1 0x0 DUP1 PUSH1 0x0 DUP6 SLT ISZERO PUSH2 0x4AC7 JUMPI DUP8 SWAP2 POP PUSH2 0x4ACA JUMP JUMPDEST POP DUP7 JUMPDEST DUP1 PUSH1 0x1 PUSH1 0x1 PUSH1 0xA0 SHL SUB AND DUP3 PUSH1 0x1 PUSH1 0x1 PUSH1 0xA0 SHL SUB AND CALLER PUSH1 0x1 PUSH1 0x1 PUSH1 0xA0 SHL SUB AND PUSH1 0x0 DUP1 MLOAD PUSH1 0x20 PUSH2 0x5D99 DUP4 CODECOPY DUP2 MLOAD SWAP2 MSTORE DUP8 DUP8 PUSH1 0x40 MLOAD PUSH2 0x4554 SWAP3 SWAP2 SWAP1 PUSH2 0x5A4F JUMP JUMPDEST PUSH1 0x0 DUP1 PUSH2 0xB4D PUSH1 0x17 PUSH2 0x2A6D JUMP JUMPDEST PUSH1 0x0 DUP1 PUSH2 0xB4D PUSH1 0x6 PUSH2 0x2A6D JUMP JUMPDEST PUSH1 0x0 PUSH11 0x7FFFFFFFFFFFFFFFFFFFFF NOT DUP3 SLT DUP1 ISZERO SWAP1 PUSH2 0x4B4A JUMPI POP PUSH11 0x7FFFFFFFFFFFFFFFFFFFFF DUP3 SGT ISZERO JUMPDEST PUSH2 0xAFB JUMPI PUSH1 0x0 DUP1 REVERT JUMPDEST PUSH1 0x0 DUP1 PUSH1 0x0 DUP1 PUSH1 0x0 DUP6 PUSH1 0x20 ADD MLOAD GT ISZERO PUSH2 0x4BA0 JUMPI PUSH2 0x4B9D PUSH2 0x4B84 DUP7 PUSH1 0xC0 ADD MLOAD DUP8 PUSH1 0x20 ADD MLOAD PUSH2 0x3689 SWAP1 SWAP2 SWAP1 PUSH4 0xFFFFFFFF AND JUMP JUMPDEST PUSH1 0xE0 DUP8 ADD MLOAD PUSH1 0x40 DUP9 ADD MLOAD PUSH2 0x4B97 SWAP2 PUSH2 0x3689 JUMP JUMPDEST SWAP1 PUSH2 0x4C0D JUMP JUMPDEST SWAP1 POP JUMPDEST PUSH1 0x0 PUSH2 0x4BAB DUP8 PUSH2 0x4D05 JUMP JUMPDEST SWAP1 POP PUSH2 0x4BB7 DUP2 DUP4 PUSH2 0x4D38 JUMP JUMPDEST SWAP5 POP DUP2 ISZERO PUSH2 0x4BCE JUMPI PUSH2 0x4BCB DUP2 DUP7 PUSH1 0x1 PUSH2 0x4DEB JUMP JUMPDEST SWAP4 POP JUMPDEST PUSH1 0x20 DUP7 ADD MLOAD ISZERO PUSH2 0x4BE5 JUMPI PUSH2 0x4BE2 DUP6 DUP4 PUSH2 0x4E65 JUMP JUMPDEST SWAP3 POP JUMPDEST POP POP SWAP3 POP SWAP3 POP SWAP3 JUMP JUMPDEST PUSH1 0x0 DUP1 DUP3 GT PUSH2 0x4BFC JUMPI PUSH1 0x0 DUP1 REVERT JUMPDEST DUP2 DUP4 DUP2 PUSH2 0x4C05 JUMPI INVALID JUMPDEST DIV SWAP4 SWAP3 POP POP POP JUMP JUMPDEST PUSH1 0x0 PUSH2 0xBA6 PUSH2 0x479B DUP5 PUSH4 0x3B9ACA00 PUSH2 0x3689 JUMP JUMPDEST PUSH1 0x40 DUP1 MLOAD PUSH1 0x2 DUP1 DUP3 MSTORE PUSH1 0x60 DUP3 DUP2 ADD SWAP1 SWAP4 MSTORE DUP3 SWAP2 PUSH1 0x0 SWAP2 DUP2 PUSH1 0x20 ADD PUSH1 0x20 DUP3 MUL DUP1 CALLDATASIZE DUP4 CALLDATACOPY ADD SWAP1 POP POP SWAP1 POP PUSH1 0x0 PUSH2 0x4C54 DUP8 DUP8 PUSH2 0x4E7E JUMP JUMPDEST SWAP1 POP DUP1 DUP3 PUSH1 0x0 DUP2 MLOAD DUP2 LT PUSH2 0x4C64 JUMPI INVALID JUMPDEST PUSH1 0x20 MUL PUSH1 0x20 ADD ADD DUP2 DUP2 MSTORE POP POP PUSH1 0x1 PUSH1 0x40 SHL DUP2 OR DUP3 PUSH1 0x1 DUP2 MLOAD DUP2 LT PUSH2 0x4C84 JUMPI INVALID JUMPDEST PUSH1 0x20 SWAP1 DUP2 MUL SWAP2 SWAP1 SWAP2 ADD ADD MSTORE PUSH1 0x40 DUP1 MLOAD PUSH1 0x2 DUP1 DUP3 MSTORE PUSH1 0x60 DUP3 ADD SWAP1 SWAP3 MSTORE PUSH1 0x0 SWAP2 DUP2 PUSH1 0x20 ADD PUSH1 0x20 DUP3 MUL DUP1 CALLDATASIZE DUP4 CALLDATACOPY ADD SWAP1 POP POP SWAP1 POP PUSH2 0x4CBD DUP7 PUSH2 0x1B42 JUMP JUMPDEST DUP2 PUSH1 0x0 DUP2 MLOAD DUP2 LT PUSH2 0x4CCA JUMPI INVALID JUMPDEST PUSH1 0x20 MUL PUSH1 0x20 ADD ADD DUP2 DUP2 MSTORE POP POP PUSH2 0x4CDF DUP7 PUSH2 0x1B42 JUMP JUMPDEST DUP2 PUSH1 0x1 DUP2 MLOAD DUP2 LT PUSH2 0x4CEC JUMPI INVALID JUMPDEST PUSH1 0x20 SWAP1 DUP2 MUL SWAP2 SWAP1 SWAP2 ADD ADD MSTORE SWAP2 SWAP8 SWAP2 SWAP7 POP SWAP1 SWAP5 POP POP POP POP POP JUMP JUMPDEST PUSH2 0x4D0D PUSH2 0x524C JUMP JUMPDEST PUSH1 0x0 PUSH2 0x4D17 PUSH2 0x4E9C JUMP JUMPDEST PUSH2 0xFFFF DUP5 AND PUSH1 0x0 SWAP1 DUP2 MSTORE PUSH1 0x20 SWAP2 SWAP1 SWAP2 MSTORE PUSH1 0x40 DUP2 KECCAK256 SLOAD SWAP2 POP PUSH2 0xBA6 SWAP1 DUP3 PUSH2 0x4EA9 JUMP JUMPDEST PUSH1 0x0 DUP1 DUP4 PUSH1 0x80 ADD MLOAD GT PUSH2 0x4D4A JUMPI PUSH1 0x0 DUP1 REVERT JUMPDEST PUSH4 0x3B9ACA00 DUP3 GT ISZERO PUSH2 0x4D5B JUMPI PUSH1 0x0 DUP1 REVERT JUMPDEST DUP3 MLOAD DUP3 GT PUSH2 0x4D7A JUMPI DUP3 MLOAD PUSH1 0x40 DUP5 ADD MLOAD PUSH2 0x1E3B SWAP2 SWAP1 PUSH2 0x476D SWAP1 DUP6 SWAP1 PUSH2 0x3689 JUMP JUMPDEST DUP3 PUSH1 0x20 ADD MLOAD DUP3 GT PUSH2 0x4DB2 JUMPI PUSH1 0x40 DUP4 ADD MLOAD DUP4 MLOAD PUSH1 0x20 DUP6 ADD MLOAD PUSH1 0x60 DUP7 ADD MLOAD PUSH2 0x1E3B SWAP4 SWAP3 PUSH2 0x4846 SWAP3 DUP2 SWAP1 SUB SWAP2 PUSH2 0x476D SWAP2 DUP9 SUB SWAP1 DUP6 SWAP1 SUB PUSH2 0x3689 JUMP JUMPDEST PUSH2 0xBA6 DUP4 PUSH1 0x60 ADD MLOAD PUSH2 0x4846 DUP6 PUSH1 0x20 ADD MLOAD PUSH4 0x3B9ACA00 SUB PUSH2 0x476D DUP8 PUSH1 0x60 ADD MLOAD DUP9 PUSH1 0x80 ADD MLOAD SUB DUP9 PUSH1 0x20 ADD MLOAD DUP9 SUB PUSH2 0x3689 SWAP1 SWAP2 SWAP1 PUSH4 0xFFFFFFFF AND JUMP JUMPDEST PUSH1 0x0 DUP1 PUSH2 0x4E0A PUSH1 0x64 PUSH2 0x476D DUP8 PUSH1 0xE0 ADD MLOAD DUP8 PUSH2 0x3689 SWAP1 SWAP2 SWAP1 PUSH4 0xFFFFFFFF AND JUMP JUMPDEST SWAP1 POP DUP5 PUSH1 0xA0 ADD MLOAD DUP2 LT ISZERO PUSH2 0x4E1F JUMPI POP PUSH1 0xA0 DUP5 ADD MLOAD JUMPDEST DUP5 PUSH1 0xC0 ADD MLOAD DUP2 GT ISZERO PUSH2 0x4E32 JUMPI POP PUSH1 0xC0 DUP5 ADD MLOAD JUMPDEST DUP3 ISZERO PUSH2 0x4E49 JUMPI PUSH2 0x4E42 DUP5 DUP3 PUSH2 0x2507 JUMP JUMPDEST SWAP2 POP PUSH2 0x4E5D JUMP JUMPDEST DUP4 DUP2 GT PUSH2 0x4E58 JUMPI DUP1 DUP5 SUB PUSH2 0xE92 JUMP JUMPDEST PUSH1 0x0 SWAP2 POP JUMPDEST POP SWAP4 SWAP3 POP POP POP JUMP JUMPDEST PUSH1 0x0 PUSH2 0xBA6 PUSH2 0x4E74 DUP5 DUP5 PUSH2 0x3689 JUMP JUMPDEST PUSH4 0x3B9ACA00 PUSH2 0x4BEE JUMP JUMPDEST PUSH8 0xFFFF000000000000 PUSH1 0x30 DUP4 SWAP1 SHL AND PUSH1 0x8 DUP3 SWAP1 SHL OR PUSH1 0x1 OR SWAP3 SWAP2 POP POP JUMP JUMPDEST PUSH1 0x0 DUP1 PUSH2 0xB4D PUSH1 0x1B PUSH2 0x2A6D JUMP JUMPDEST PUSH2 0x4EB1 PUSH2 0x524C JUMP JUMPDEST PUSH1 0x64 PUSH4 0x3B9ACA00 DUP4 PUSH1 0xFF DUP7 AND PUSH1 0x20 DUP2 LT PUSH2 0x4EC7 JUMPI INVALID JUMPDEST BYTE MUL DUP2 PUSH2 0x4ED0 JUMPI INVALID JUMPDEST DIV DUP2 MSTORE PUSH1 0x64 PUSH4 0x3B9ACA00 DUP4 PUSH1 0xFF DUP7 AND PUSH1 0x1 ADD PUSH1 0x20 DUP2 LT PUSH2 0x4EEC JUMPI INVALID JUMPDEST BYTE MUL DUP2 PUSH2 0x4EF5 JUMPI INVALID JUMPDEST DIV DUP2 PUSH1 0x20 ADD DUP2 DUP2 MSTORE POP POP PUSH2 0x4F1A DUP3 PUSH1 0x2 DUP6 PUSH1 0xFF AND ADD PUSH1 0x20 DUP2 LT PUSH2 0x4F14 JUMPI INVALID JUMPDEST BYTE PUSH2 0x4FC8 JUMP JUMPDEST PUSH1 0x80 DUP3 ADD DUP2 SWAP1 MSTORE PUSH2 0x100 SWAP1 DUP4 PUSH1 0xFF DUP7 AND PUSH1 0x3 ADD PUSH1 0x20 DUP2 LT PUSH2 0x4F37 JUMPI INVALID JUMPDEST BYTE MUL DUP2 PUSH2 0x4F40 JUMPI INVALID JUMPDEST DIV PUSH1 0x40 DUP3 ADD MSTORE PUSH1 0x80 DUP2 ADD MLOAD PUSH2 0x100 SWAP1 DUP4 PUSH1 0xFF DUP7 AND PUSH1 0x4 ADD PUSH1 0x20 DUP2 LT PUSH2 0x4F61 JUMPI INVALID JUMPDEST BYTE MUL DUP2 PUSH2 0x4F6A JUMPI INVALID JUMPDEST DIV PUSH1 0x60 DUP3 ADD MSTORE PUSH3 0x7A120 DUP3 PUSH1 0xFF DUP6 AND PUSH1 0x5 ADD PUSH1 0x20 DUP2 LT PUSH2 0x4F86 JUMPI INVALID JUMPDEST BYTE MUL PUSH1 0xA0 DUP3 ADD MSTORE PUSH3 0x2625A0 DUP3 PUSH1 0xFF DUP6 AND PUSH1 0x6 ADD PUSH1 0x20 DUP2 LT PUSH2 0x4FA3 JUMPI INVALID JUMPDEST BYTE MUL PUSH1 0xC0 DUP3 ADD MSTORE DUP2 PUSH1 0xFF DUP5 AND PUSH1 0x7 ADD PUSH1 0x20 DUP2 LT PUSH2 0x4FBC JUMPI INVALID JUMPDEST BYTE PUSH1 0xE0 DUP3 ADD MSTORE SWAP3 SWAP2 POP POP JUMP JUMPDEST PUSH1 0x0 DUP2 PUSH1 0xFF AND PUSH1 0x96 LT PUSH2 0x4FE3 JUMPI PUSH1 0xFF DUP3 AND PUSH3 0x2625A0 MUL PUSH2 0x96F JUMP JUMPDEST POP PUSH1 0x95 NOT PUSH1 0xFF SWAP2 SWAP1 SWAP2 AND ADD PUSH3 0xE4E1C0 MUL PUSH4 0x165A0BC0 ADD SWAP1 JUMP JUMPDEST PUSH1 0x40 MLOAD DUP1 PUSH1 0x60 ADD PUSH1 0x40 MSTORE DUP1 PUSH1 0x0 DUP2 MSTORE PUSH1 0x20 ADD PUSH1 0x0 DUP2 MSTORE PUSH1 0x20 ADD PUSH1 0x0 DUP2 MSTORE POP SWAP1 JUMP JUMPDEST PUSH1 0x40 MLOAD DUP1 PUSH2 0x1E0 ADD PUSH1 0x40 MSTORE DUP1 PUSH1 0x0 PUSH1 0x1 PUSH1 0x1 PUSH1 0xA0 SHL SUB AND DUP2 MSTORE PUSH1 0x20 ADD PUSH1 0x0 PUSH2 0xFFFF AND DUP2 MSTORE PUSH1 0x20 ADD PUSH1 0x0 PUSH2 0xFFFF AND DUP2 MSTORE PUSH1 0x20 ADD PUSH1 0x0 DUP2 MSTORE PUSH1 0x20 ADD PUSH1 0x0 DUP2 MSTORE PUSH1 0x20 ADD PUSH1 0x0 DUP2 MSTORE PUSH1 0x20 ADD PUSH1 0x0 DUP2 MSTORE PUSH1 0x20 ADD PUSH1 0x0 DUP2 MSTORE PUSH1 0x20 ADD PUSH1 0x0 DUP2 MSTORE PUSH1 0x20 ADD PUSH1 0x0 DUP2 MSTORE PUSH1 0x20 ADD PUSH2 0x5088 PUSH2 0x5291 JUMP JUMPDEST DUP2 MSTORE PUSH1 0x20 ADD PUSH2 0x5095 PUSH2 0x4FFC JUMP JUMPDEST DUP2 MSTORE PUSH1 0x20 ADD PUSH1 0x0 DUP2 MSTORE PUSH1 0x20 ADD PUSH2 0x50A9 PUSH2 0x5291 JUMP JUMPDEST DUP2 MSTORE PUSH1 0x20 ADD PUSH1 0x0 DUP2 MSTORE POP SWAP1 JUMP JUMPDEST PUSH1 0x40 MLOAD DUP1 PUSH1 0xC0 ADD PUSH1 0x40 MSTORE DUP1 PUSH1 0x0 DUP2 MSTORE PUSH1 0x20 ADD PUSH1 0x0 DUP2 MSTORE PUSH1 0x20 ADD PUSH1 0x0 DUP2 MSTORE PUSH1 0x20 ADD PUSH1 0x0 PUSH1 0x1 PUSH1 0x1 PUSH1 0xA0 SHL SUB AND DUP2 MSTORE PUSH1 0x20 ADD PUSH1 0x0 DUP2 MSTORE PUSH1 0x20 ADD PUSH1 0x0 DUP2 MSTORE POP SWAP1 JUMP JUMPDEST PUSH1 0x40 MLOAD DUP1 PUSH1 0x80 ADD PUSH1 0x40 MSTORE DUP1 PUSH1 0x0 DUP2 MSTORE PUSH1 0x20 ADD PUSH1 0x0 DUP2 MSTORE PUSH1 0x20 ADD PUSH1 0x0 DUP2 MSTORE PUSH1 0x20 ADD PUSH1 0x0 ISZERO ISZERO DUP2 MSTORE POP SWAP1 JUMP JUMPDEST PUSH1 0x40 MLOAD DUP1 PUSH1 0x40 ADD PUSH1 0x40 MSTORE DUP1 PUSH1 0x2 SWAP1 JUMPDEST PUSH2 0x5136 PUSH2 0x4FFC JUMP JUMPDEST DUP2 MSTORE PUSH1 0x20 ADD SWAP1 PUSH1 0x1 SWAP1 SUB SWAP1 DUP2 PUSH2 0x512E JUMPI SWAP1 POP POP SWAP1 JUMP JUMPDEST PUSH1 0x40 DUP1 MLOAD PUSH1 0xC0 DUP2 ADD DUP3 MSTORE PUSH1 0x0 DUP1 DUP3 MSTORE PUSH1 0x20 DUP3 ADD MSTORE SWAP1 DUP2 ADD PUSH2 0x516B PUSH2 0x4FFC JUMP JUMPDEST DUP2 MSTORE PUSH1 0x20 ADD PUSH2 0x5178 PUSH2 0x4FFC JUMP JUMPDEST DUP2 MSTORE PUSH1 0x20 ADD PUSH1 0x0 DUP2 MSTORE PUSH1 0x20 ADD PUSH1 0x0 DUP2 MSTORE POP SWAP1 JUMP JUMPDEST PUSH1 0x40 DUP1 MLOAD PUSH1 0xA0 DUP2 ADD DUP3 MSTORE PUSH1 0x0 DUP1 DUP3 MSTORE PUSH1 0x20 DUP3 ADD DUP2 SWAP1 MSTORE SWAP2 DUP2 ADD DUP3 SWAP1 MSTORE SWAP1 PUSH1 0x60 DUP3 ADD SWAP1 PUSH2 0x50A9 JUMP JUMPDEST PUSH1 0x40 MLOAD DUP1 PUSH1 0xA0 ADD PUSH1 0x40 MSTORE DUP1 PUSH1 0x0 DUP2 MSTORE PUSH1 0x20 ADD PUSH1 0x0 DUP2 MSTORE PUSH1 0x20 ADD PUSH1 0x0 DUP2 MSTORE PUSH1 0x20 ADD PUSH1 0x0 DUP2 MSTORE PUSH1 0x20 ADD PUSH1 0x0 DUP2 MSTORE POP SWAP1 JUMP JUMPDEST PUSH1 0x40 MLOAD DUP1 PUSH1 0x20 ADD PUSH1 0x40 MSTORE DUP1 PUSH1 0x1 SWAP1 PUSH1 0x20 DUP3 MUL DUP1 CALLDATASIZE DUP4 CALLDATACOPY POP SWAP2 SWAP3 SWAP2 POP POP JUMP JUMPDEST PUSH1 0x40 MLOAD DUP1 PUSH2 0x120 ADD PUSH1 0x40 MSTORE DUP1 PUSH1 0x0 DUP2 MSTORE PUSH1 0x20 ADD PUSH1 0x0 DUP2 MSTORE PUSH1 0x20 ADD PUSH1 0x0 DUP2 MSTORE PUSH1 0x20 ADD PUSH1 0x0 DUP2 MSTORE PUSH1 0x20 ADD PUSH1 0x0 DUP2 MSTORE PUSH1 0x20 ADD PUSH1 0x0 DUP2 MSTORE PUSH1 0x20 ADD PUSH1 0x0 DUP2 MSTORE PUSH1 0x20 ADD PUSH1 0x0 DUP2 MSTORE PUSH1 0x20 ADD PUSH1 0x0 DUP2 MSTORE POP SWAP1 JUMP JUMPDEST PUSH1 0x40 MLOAD DUP1 PUSH2 0x100 ADD PUSH1 0x40 MSTORE DUP1 PUSH1 0x0 DUP2 MSTORE PUSH1 0x20 ADD PUSH1 0x0 DUP2 MSTORE PUSH1 0x20 ADD PUSH1 0x0 DUP2 MSTORE PUSH1 0x20 ADD PUSH1 0x0 DUP2 MSTORE PUSH1 0x20 ADD PUSH1 0x0 DUP2 MSTORE PUSH1 0x20 ADD PUSH1 0x0 DUP2 MSTORE PUSH1 0x20 ADD PUSH1 0x0 DUP2 MSTORE PUSH1 0x20 ADD PUSH1 0x0 DUP2 MSTORE POP SWAP1 JUMP JUMPDEST PUSH1 0x40 MLOAD DUP1 PUSH1 0x40 ADD PUSH1 0x40 MSTORE DUP1 PUSH1 0x2 SWAP1 PUSH1 0x20 DUP3 MUL DUP1 CALLDATASIZE DUP4 CALLDATACOPY POP SWAP2 SWAP3 SWAP2 POP POP JUMP JUMPDEST DUP1 MLOAD PUSH2 0x972 DUP2 PUSH2 0x5D80 JUMP JUMPDEST PUSH1 0x0 DUP3 PUSH1 0x1F DUP4 ADD SLT PUSH2 0x52CA JUMPI DUP1 DUP2 REVERT JUMPDEST DUP2 MLOAD PUSH1 0x20 PUSH2 0x52DF PUSH2 0x52DA DUP4 PUSH2 0x5D62 JUMP JUMPDEST PUSH2 0x5D3E JUMP JUMPDEST DUP3 DUP2 MSTORE DUP2 DUP2 ADD SWAP1 DUP6 DUP4 ADD DUP4 DUP6 MUL DUP8 ADD DUP5 ADD DUP9 LT ISZERO PUSH2 0x52FB JUMPI DUP6 DUP7 REVERT JUMPDEST DUP6 JUMPDEST DUP6 DUP2 LT ISZERO PUSH2 0x5322 JUMPI DUP2 MLOAD PUSH2 0x5310 DUP2 PUSH2 0x5D80 JUMP JUMPDEST DUP5 MSTORE SWAP3 DUP5 ADD SWAP3 SWAP1 DUP5 ADD SWAP1 PUSH1 0x1 ADD PUSH2 0x52FD JUMP JUMPDEST POP SWAP1 SWAP8 SWAP7 POP POP POP POP POP POP POP JUMP JUMPDEST PUSH1 0x0 PUSH1 0x1F DUP4 DUP2 DUP5 ADD SLT PUSH2 0x5340 JUMPI DUP2 DUP3 REVERT JUMPDEST DUP3 MLOAD PUSH1 0x20 PUSH2 0x5350 PUSH2 0x52DA DUP4 PUSH2 0x5D62 JUMP JUMPDEST DUP3 DUP2 MSTORE DUP2 DUP2 ADD SWAP1 DUP7 DUP4 ADD DUP7 JUMPDEST DUP6 DUP2 LT ISZERO PUSH2 0x53F5 JUMPI DUP2 MLOAD DUP10 ADD DUP11 PUSH1 0x3F DUP3 ADD SLT PUSH2 0x5376 JUMPI DUP9 DUP10 REVERT JUMPDEST DUP6 DUP2 ADD MLOAD PUSH8 0xFFFFFFFFFFFFFFFF DUP2 GT ISZERO PUSH2 0x538C JUMPI INVALID JUMPDEST PUSH2 0x539D DUP2 DUP11 ADD PUSH1 0x1F NOT AND DUP9 ADD PUSH2 0x5D3E JUMP JUMPDEST DUP2 DUP2 MSTORE PUSH1 0x40 DUP14 DUP2 DUP5 DUP7 ADD ADD GT ISZERO PUSH2 0x53B2 JUMPI DUP12 DUP13 REVERT JUMPDEST DUP12 JUMPDEST DUP4 DUP2 LT ISZERO PUSH2 0x53CF JUMPI DUP5 DUP2 ADD DUP3 ADD MLOAD DUP4 DUP3 ADD DUP12 ADD MSTORE DUP10 ADD PUSH2 0x53B4 JUMP JUMPDEST DUP4 DUP2 GT ISZERO PUSH2 0x53DF JUMPI DUP13 DUP11 DUP6 DUP6 ADD ADD MSTORE JUMPDEST POP POP DUP7 MSTORE POP POP SWAP3 DUP5 ADD SWAP3 SWAP1 DUP5 ADD SWAP1 PUSH1 0x1 ADD PUSH2 0x535C JUMP JUMPDEST POP SWAP1 SWAP9 SWAP8 POP POP POP POP POP POP POP POP JUMP JUMPDEST PUSH1 0x0 DUP3 PUSH1 0x1F DUP4 ADD SLT PUSH2 0x5413 JUMPI DUP1 DUP2 REVERT JUMPDEST PUSH1 0x40 MLOAD PUSH1 0x60 DUP2 ADD DUP2 DUP2 LT PUSH8 0xFFFFFFFFFFFFFFFF DUP3 GT OR ISZERO PUSH2 0x5430 JUMPI INVALID JUMPDEST PUSH1 0x40 MSTORE DUP1 DUP4 PUSH1 0x60 DUP2 ADD DUP7 LT ISZERO PUSH2 0x5444 JUMPI DUP4 DUP5 REVERT JUMPDEST DUP4 JUMPDEST PUSH1 0x3 DUP2 LT ISZERO PUSH2 0x5465 JUMPI DUP2 MLOAD DUP4 MSTORE PUSH1 0x20 SWAP3 DUP4 ADD SWAP3 SWAP1 SWAP2 ADD SWAP1 PUSH1 0x1 ADD PUSH2 0x5446 JUMP JUMPDEST POP SWAP2 SWAP6 SWAP5 POP POP POP POP POP JUMP JUMPDEST DUP1 MLOAD PUSH1 0x1 PUSH1 0x1 PUSH1 0x50 SHL SUB DUP2 AND DUP2 EQ PUSH2 0x972 JUMPI PUSH1 0x0 DUP1 REVERT JUMPDEST PUSH1 0x0 DUP1 PUSH1 0x0 DUP1 PUSH1 0x0 PUSH1 0xA0 DUP7 DUP9 SUB SLT ISZERO PUSH2 0x549E JUMPI DUP1 DUP2 REVERT JUMPDEST DUP6 CALLDATALOAD PUSH2 0x54A9 DUP2 PUSH2 0x5D80 JUMP JUMPDEST SWAP5 POP PUSH1 0x20 DUP7 ADD CALLDATALOAD PUSH2 0x54B9 DUP2 PUSH2 0x5D80 JUMP JUMPDEST SWAP4 POP PUSH1 0x40 DUP7 ADD CALLDATALOAD PUSH2 0x54C9 DUP2 PUSH2 0x5D80 JUMP JUMPDEST SWAP3 POP PUSH1 0x60 DUP7 ADD CALLDATALOAD PUSH2 0xFFFF DUP2 AND DUP2 EQ PUSH2 0x54DF JUMPI DUP2 DUP3 REVERT JUMPDEST SWAP5 SWAP8 SWAP4 SWAP7 POP SWAP2 SWAP5 PUSH1 0x80 ADD CALLDATALOAD SWAP3 SWAP2 POP POP JUMP JUMPDEST PUSH1 0x0 DUP1 PUSH1 0x0 DUP1 PUSH1 0x0 PUSH1 0xA0 DUP7 DUP9 SUB SLT ISZERO PUSH2 0x5507 JUMPI DUP3 DUP4 REVERT JUMPDEST DUP6 CALLDATALOAD PUSH2 0x5512 DUP2 PUSH2 0x5D80 JUMP JUMPDEST SWAP5 POP PUSH1 0x20 DUP7 ADD CALLDATALOAD PUSH2 0x5522 DUP2 PUSH2 0x5D80 JUMP JUMPDEST SWAP4 POP PUSH1 0x40 DUP7 ADD CALLDATALOAD PUSH2 0x5532 DUP2 PUSH2 0x5D80 JUMP JUMPDEST SWAP5 SWAP8 SWAP4 SWAP7 POP SWAP4 SWAP5 PUSH1 0x60 DUP2 ADD CALLDATALOAD SWAP5 POP PUSH1 0x80 ADD CALLDATALOAD SWAP3 SWAP2 POP POP JUMP JUMPDEST PUSH1 0x0 DUP1 PUSH1 0x0 DUP1 PUSH1 0x0 DUP1 PUSH1 0xC0 DUP8 DUP10 SUB SLT ISZERO PUSH2 0x5562 JUMPI DUP4 DUP5 REVERT JUMPDEST DUP7 CALLDATALOAD PUSH2 0x556D DUP2 PUSH2 0x5D80 JUMP JUMPDEST SWAP6 POP PUSH1 0x20 DUP8 ADD CALLDATALOAD PUSH2 0x557D DUP2 PUSH2 0x5D80 JUMP JUMPDEST SWAP5 POP PUSH1 0x40 DUP8 ADD CALLDATALOAD PUSH2 0x558D DUP2 PUSH2 0x5D80 JUMP JUMPDEST SWAP6 SWAP9 SWAP5 SWAP8 POP SWAP5 SWAP6 PUSH1 0x60 DUP2 ADD CALLDATALOAD SWAP6 POP PUSH1 0x80 DUP2 ADD CALLDATALOAD SWAP5 PUSH1 0xA0 SWAP1 SWAP2 ADD CALLDATALOAD SWAP4 POP SWAP2 POP POP JUMP JUMPDEST PUSH1 0x0 PUSH1 0x20 DUP1 DUP4 DUP6 SUB SLT ISZERO PUSH2 0x55C0 JUMPI DUP2 DUP3 REVERT JUMPDEST DUP3 MLOAD PUSH8 0xFFFFFFFFFFFFFFFF DUP1 DUP3 GT ISZERO PUSH2 0x55D7 JUMPI DUP4 DUP5 REVERT JUMPDEST DUP2 DUP6 ADD SWAP2 POP DUP6 PUSH1 0x1F DUP4 ADD SLT PUSH2 0x55EA JUMPI DUP4 DUP5 REVERT JUMPDEST DUP2 MLOAD PUSH2 0x55F8 PUSH2 0x52DA DUP3 PUSH2 0x5D62 JUMP JUMPDEST DUP2 DUP2 MSTORE DUP5 DUP2 ADD SWAP1 DUP5 DUP7 ADD DUP8 JUMPDEST DUP5 DUP2 LT ISZERO PUSH2 0x56AD JUMPI DUP2 MLOAD DUP8 ADD PUSH1 0x80 DUP2 DUP14 SUB PUSH1 0x1F NOT ADD SLT ISZERO PUSH2 0x5623 JUMPI DUP10 DUP11 REVERT JUMPDEST PUSH1 0x40 DUP1 MLOAD PUSH1 0x80 DUP2 ADD DUP2 DUP2 LT DUP11 DUP3 GT OR ISZERO PUSH2 0x5639 JUMPI INVALID JUMPDEST DUP3 MSTORE DUP3 DUP12 ADD MLOAD DUP10 DUP2 GT ISZERO PUSH2 0x564B JUMPI DUP13 DUP14 REVERT JUMPDEST PUSH2 0x5659 DUP16 DUP14 DUP4 DUP8 ADD ADD PUSH2 0x52BA JUMP JUMPDEST DUP3 MSTORE POP DUP2 DUP4 ADD MLOAD DUP10 DUP2 GT ISZERO PUSH2 0x566C JUMPI DUP13 DUP14 REVERT JUMPDEST PUSH2 0x567A DUP16 DUP14 DUP4 DUP8 ADD ADD PUSH2 0x532F JUMP JUMPDEST DUP13 DUP4 ADD MSTORE POP PUSH1 0x60 DUP4 ADD MLOAD DUP3 DUP3 ADD MSTORE PUSH2 0x5694 PUSH1 0x80 DUP5 ADD PUSH2 0x52AF JUMP JUMPDEST PUSH1 0x60 DUP3 ADD MSTORE DUP7 MSTORE POP POP SWAP3 DUP8 ADD SWAP3 SWAP1 DUP8 ADD SWAP1 PUSH1 0x1 ADD PUSH2 0x5604 JUMP JUMPDEST POP SWAP1 SWAP10 SWAP9 POP POP POP POP POP POP POP POP POP JUMP JUMPDEST PUSH1 0x0 PUSH1 0x20 DUP3 DUP5 SUB SLT ISZERO PUSH2 0x56CD JUMPI DUP1 DUP2 REVERT JUMPDEST DUP2 MLOAD DUP1 ISZERO ISZERO DUP2 EQ PUSH2 0xBA6 JUMPI DUP2 DUP3 REVERT JUMPDEST PUSH1 0x0 DUP1 PUSH1 0x40 DUP4 DUP6 SUB SLT ISZERO PUSH2 0x56EE JUMPI DUP2 DUP3 REVERT JUMPDEST POP POP DUP1 MLOAD PUSH1 0x20 SWAP1 SWAP2 ADD MLOAD SWAP1 SWAP3 SWAP1 SWAP2 POP JUMP JUMPDEST PUSH1 0x0 DUP1 PUSH1 0x0 DUP4 DUP6 SUB PUSH1 0xA0 DUP2 SLT ISZERO PUSH2 0x5714 JUMPI DUP2 DUP3 REVERT JUMPDEST DUP5 MLOAD SWAP4 POP PUSH1 0x20 DUP6 ADD MLOAD SWAP3 POP PUSH1 0x60 PUSH1 0x3F NOT DUP3 ADD SLT ISZERO PUSH2 0x5730 JUMPI DUP2 DUP3 REVERT JUMPDEST POP PUSH1 0x40 MLOAD PUSH1 0x60 DUP2 ADD DUP2 DUP2 LT PUSH8 0xFFFFFFFFFFFFFFFF DUP3 GT OR ISZERO PUSH2 0x574E JUMPI INVALID JUMPDEST DUP1 PUSH1 0x40 MSTORE POP PUSH1 0x40 DUP6 ADD MLOAD DUP2 MSTORE PUSH1 0x60 DUP6 ADD MLOAD PUSH1 0x20 DUP3 ADD MSTORE PUSH1 0x80 DUP6 ADD MLOAD PUSH1 0x40 DUP3 ADD MSTORE DUP1 SWAP2 POP POP SWAP3 POP SWAP3 POP SWAP3 JUMP JUMPDEST PUSH1 0x0 DUP1 PUSH1 0x0 DUP4 DUP6 SUB PUSH2 0x180 DUP1 DUP3 SLT ISZERO PUSH2 0x5790 JUMPI DUP3 DUP4 REVERT JUMPDEST PUSH1 0xC0 DUP3 SLT ISZERO PUSH2 0x579D JUMPI DUP3 DUP4 REVERT JUMPDEST PUSH1 0x40 MLOAD SWAP2 POP PUSH1 0x80 DUP3 ADD DUP3 DUP2 LT PUSH8 0xFFFFFFFFFFFFFFFF DUP3 GT OR ISZERO PUSH2 0x57BC JUMPI INVALID JUMPDEST DUP1 PUSH1 0x40 MSTORE POP DUP6 MLOAD DUP3 MSTORE PUSH1 0x20 DUP1 DUP8 ADD MLOAD DUP2 DUP5 ADD MSTORE PUSH1 0x40 DUP8 ADD MLOAD PUSH1 0x40 DUP5 ADD MSTORE PUSH2 0x57E6 DUP9 PUSH1 0x60 DUP10 ADD PUSH2 0x5403 JUMP JUMPDEST PUSH1 0x60 DUP5 ADD MSTORE DUP3 SWAP6 POP PUSH2 0x57FB DUP9 PUSH1 0xC0 DUP10 ADD PUSH2 0x5403 JUMP JUMPDEST SWAP5 POP DUP8 PUSH2 0x13F DUP9 ADD SLT PUSH2 0x580C JUMPI DUP4 DUP5 REVERT JUMPDEST PUSH2 0x5816 PUSH1 0x60 PUSH2 0x5D3E JUMP JUMPDEST SWAP3 POP DUP3 PUSH2 0x120 DUP9 ADD DUP10 DUP5 DUP11 ADD GT ISZERO PUSH2 0x582C JUMPI DUP6 DUP7 REVERT JUMPDEST DUP6 SWAP4 POP JUMPDEST PUSH1 0x3 DUP5 LT ISZERO PUSH2 0x584F JUMPI DUP1 MLOAD DUP6 MSTORE SWAP4 DUP3 ADD SWAP4 PUSH1 0x1 SWAP4 SWAP1 SWAP4 ADD SWAP3 DUP3 ADD PUSH2 0x5830 JUMP JUMPDEST POP DUP1 SWAP5 POP POP POP POP POP SWAP3 POP SWAP3 POP SWAP3 JUMP JUMPDEST PUSH1 0x0 PUSH1 0x20 DUP3 DUP5 SUB SLT ISZERO PUSH2 0x586F JUMPI DUP1 DUP2 REVERT JUMPDEST POP MLOAD SWAP2 SWAP1 POP JUMP JUMPDEST PUSH1 0x0 DUP1 PUSH1 0x0 DUP1 PUSH1 0x0 PUSH1 0xA0 DUP7 DUP9 SUB SLT ISZERO PUSH2 0x588D JUMPI DUP3 DUP4 REVERT JUMPDEST PUSH2 0x5896 DUP7 PUSH2 0x5470 JUMP JUMPDEST SWAP5 POP PUSH1 0x20 DUP7 ADD MLOAD SWAP4 POP PUSH1 0x40 DUP7 ADD MLOAD SWAP3 POP PUSH1 0x60 DUP7 ADD MLOAD SWAP2 POP PUSH2 0x58B9 PUSH1 0x80 DUP8 ADD PUSH2 0x5470 JUMP JUMPDEST SWAP1 POP SWAP3 SWAP6 POP SWAP3 SWAP6 SWAP1 SWAP4 POP JUMP JUMPDEST PUSH1 0x1 PUSH1 0x1 PUSH1 0xA0 SHL SUB AND SWAP1 MSTORE JUMP JUMPDEST DUP1 PUSH1 0x0 JUMPDEST PUSH1 0x2 DUP2 LT ISZERO PUSH2 0x1D1A JUMPI DUP2 MLOAD DUP5 MSTORE PUSH1 0x20 SWAP4 DUP5 ADD SWAP4 SWAP1 SWAP2 ADD SWAP1 PUSH1 0x1 ADD PUSH2 0x58D6 JUMP JUMPDEST DUP1 PUSH1 0x0 JUMPDEST PUSH1 0x2 DUP2 LT ISZERO PUSH2 0x1D1A JUMPI DUP2 MLOAD PUSH2 0xFFFF AND DUP5 MSTORE PUSH1 0x20 SWAP4 DUP5 ADD SWAP4 SWAP1 SWAP2 ADD SWAP1 PUSH1 0x1 ADD PUSH2 0x58F9 JUMP JUMPDEST PUSH1 0x0 DUP2 MLOAD DUP1 DUP5 MSTORE PUSH1 0x20 DUP1 DUP6 ADD SWAP5 POP DUP1 DUP5 ADD DUP4 JUMPDEST DUP4 DUP2 LT ISZERO PUSH2 0x594B JUMPI DUP2 MLOAD DUP8 MSTORE SWAP6 DUP3 ADD SWAP6 SWAP1 DUP3 ADD SWAP1 PUSH1 0x1 ADD PUSH2 0x592F JUMP JUMPDEST POP SWAP5 SWAP6 SWAP5 POP POP POP POP POP JUMP JUMPDEST DUP1 MLOAD DUP3 MSTORE PUSH1 0x20 DUP1 DUP3 ADD MLOAD SWAP1 DUP4 ADD MSTORE PUSH1 0x40 SWAP1 DUP2 ADD MLOAD SWAP2 ADD MSTORE JUMP JUMPDEST DUP1 MLOAD DUP3 MSTORE PUSH1 0x20 DUP2 ADD MLOAD PUSH1 0x20 DUP4 ADD MSTORE PUSH1 0x40 DUP2 ADD MLOAD PUSH1 0x40 DUP4 ADD MSTORE PUSH1 0x60 DUP2 ADD MLOAD ISZERO ISZERO PUSH1 0x60 DUP4 ADD MSTORE POP POP JUMP JUMPDEST PUSH2 0xFFFF AND SWAP1 MSTORE JUMP JUMPDEST PUSH1 0x1 PUSH1 0x1 PUSH1 0xA0 SHL SUB SWAP2 SWAP1 SWAP2 AND DUP2 MSTORE PUSH1 0x20 ADD SWAP1 JUMP JUMPDEST PUSH1 0x1 PUSH1 0x1 PUSH1 0xA0 SHL SUB SWAP3 DUP4 AND DUP2 MSTORE SWAP2 AND PUSH1 0x20 DUP3 ADD MSTORE PUSH1 0x40 ADD SWAP1 JUMP JUMPDEST PUSH1 0x1 PUSH1 0x1 PUSH1 0xA0 SHL SUB SWAP8 DUP9 AND DUP2 MSTORE SWAP6 DUP8 AND PUSH1 0x20 DUP8 ADD MSTORE SWAP4 SWAP1 SWAP6 AND PUSH1 0x40 DUP6 ADD MSTORE PUSH2 0xFFFF SWAP2 SWAP1 SWAP2 AND PUSH1 0x60 DUP5 ADD MSTORE PUSH1 0x80 DUP4 ADD MSTORE PUSH1 0xA0 DUP3 ADD SWAP3 SWAP1 SWAP3 MSTORE PUSH1 0xC0 DUP2 ADD SWAP2 SWAP1 SWAP2 MSTORE PUSH1 0xE0 ADD SWAP1 JUMP JUMPDEST PUSH1 0x1 PUSH1 0x1 PUSH1 0xA0 SHL SUB SWAP4 DUP5 AND DUP2 MSTORE SWAP2 SWAP1 SWAP3 AND PUSH1 0x20 DUP3 ADD MSTORE PUSH1 0x40 DUP2 ADD SWAP2 SWAP1 SWAP2 MSTORE PUSH1 0x60 ADD SWAP1 JUMP JUMPDEST PUSH1 0x1 PUSH1 0x1 PUSH1 0xA0 SHL SUB SWAP3 SWAP1 SWAP3 AND DUP3 MSTORE PUSH1 0x20 DUP3 ADD MSTORE PUSH1 0x40 ADD SWAP1 JUMP JUMPDEST PUSH1 0x0 PUSH1 0x40 DUP3 MSTORE PUSH2 0x5A62 PUSH1 0x40 DUP4 ADD DUP6 PUSH2 0x591C JUMP JUMPDEST DUP3 DUP2 SUB PUSH1 0x20 DUP5 ADD MSTORE PUSH2 0xE92 DUP2 DUP6 PUSH2 0x591C JUMP JUMPDEST SWAP1 DUP2 MSTORE PUSH1 0x20 ADD SWAP1 JUMP JUMPDEST PUSH1 0x20 DUP1 DUP3 MSTORE PUSH1 0xB SWAP1 DUP3 ADD MSTORE PUSH11 0x4554482042616C616E6365 PUSH1 0xA8 SHL PUSH1 0x40 DUP3 ADD MSTORE PUSH1 0x60 ADD SWAP1 JUMP JUMPDEST PUSH1 0x20 DUP1 DUP3 MSTORE PUSH1 0x11 SWAP1 DUP3 ADD MSTORE PUSH17 0x9AC2E8EAE4D2E8F2409AD2E6DAC2E8C6D PUSH1 0x7B SHL PUSH1 0x40 DUP3 ADD MSTORE PUSH1 0x60 ADD SWAP1 JUMP JUMPDEST PUSH1 0x20 DUP1 DUP3 MSTORE PUSH1 0xB SWAP1 DUP3 ADD MSTORE PUSH11 0x4D75737420536574746C65 PUSH1 0xA8 SHL PUSH1 0x40 DUP3 ADD MSTORE PUSH1 0x60 ADD SWAP1 JUMP JUMPDEST PUSH1 0x20 DUP1 DUP3 MSTORE PUSH1 0xC SWAP1 DUP3 ADD MSTORE PUSH12 0x4D6178204361706163697479 PUSH1 0xA0 SHL PUSH1 0x40 DUP3 ADD MSTORE PUSH1 0x60 ADD SWAP1 JUMP JUMPDEST PUSH1 0x20 DUP1 DUP3 MSTORE PUSH1 0xA SWAP1 DUP3 ADD MSTORE PUSH10 0x6D696E20626F72726F77 PUSH1 0xB0 SHL PUSH1 0x40 DUP3 ADD MSTORE PUSH1 0x60 ADD SWAP1 JUMP JUMPDEST PUSH1 0x20 DUP1 DUP3 MSTORE PUSH1 0xE SWAP1 DUP3 ADD MSTORE PUSH14 0x1499595B9D1C985B9D0818D85B1B PUSH1 0x92 SHL PUSH1 0x40 DUP3 ADD MSTORE PUSH1 0x60 ADD SWAP1 JUMP JUMPDEST PUSH1 0x20 DUP1 DUP3 MSTORE PUSH1 0xA SWAP1 DUP3 ADD MSTORE PUSH10 0x4D696E20426F72726F77 PUSH1 0xB0 SHL PUSH1 0x40 DUP3 ADD MSTORE PUSH1 0x60 ADD SWAP1 JUMP JUMPDEST PUSH2 0xFFFF SWAP4 SWAP1 SWAP4 AND DUP4 MSTORE PUSH1 0x20 DUP4 ADD SWAP2 SWAP1 SWAP2 MSTORE PUSH1 0x40 DUP3 ADD MSTORE PUSH1 0x60 ADD SWAP1 JUMP JUMPDEST PUSH1 0x0 PUSH2 0x3E0 DUP3 ADD SWAP1 POP PUSH2 0xFFFF DUP8 AND DUP3 MSTORE DUP6 MLOAD PUSH1 0x20 DUP4 ADD MSTORE PUSH1 0x20 DUP7 ADD MLOAD PUSH1 0x40 DUP4 ADD MSTORE PUSH1 0x40 DUP7 ADD MLOAD PUSH1 0x60 DUP4 ADD MSTORE PUSH1 0x1 DUP1 PUSH1 0xA0 SHL SUB PUSH1 0x60 DUP8 ADD MLOAD AND PUSH1 0x80 DUP4 ADD MSTORE PUSH1 0x80 DUP7 ADD MLOAD PUSH1 0xA0 DUP4 ADD MSTORE PUSH1 0xA0 DUP7 ADD MLOAD PUSH1 0xC0 DUP4 ADD MSTORE PUSH2 0x5C03 PUSH1 0xE0 DUP4 ADD DUP7 MLOAD PUSH2 0x58C5 JUMP JUMPDEST PUSH1 0x20 DUP6 ADD MLOAD PUSH2 0x100 PUSH2 0x5C17 DUP2 DUP6 ADD DUP4 PUSH2 0x5997 JUMP JUMPDEST PUSH1 0x40 DUP8 ADD MLOAD SWAP2 POP PUSH2 0x120 PUSH2 0x5C2D DUP2 DUP7 ADD DUP5 PUSH2 0x5997 JUMP JUMPDEST PUSH1 0x60 DUP9 ADD MLOAD SWAP3 POP PUSH2 0x140 DUP4 DUP2 DUP8 ADD MSTORE PUSH1 0x80 DUP10 ADD MLOAD SWAP4 POP PUSH2 0x160 DUP5 DUP2 DUP9 ADD MSTORE PUSH1 0xA0 DUP11 ADD MLOAD SWAP5 POP PUSH2 0x180 DUP6 DUP2 DUP10 ADD MSTORE PUSH1 0xC0 DUP12 ADD MLOAD SWAP6 POP PUSH2 0x1A0 DUP7 DUP2 DUP11 ADD MSTORE PUSH1 0xE0 DUP13 ADD MLOAD SWAP7 POP PUSH2 0x1C0 DUP8 DUP2 DUP12 ADD MSTORE DUP7 DUP14 ADD MLOAD PUSH2 0x1E0 DUP12 ADD MSTORE DUP6 DUP14 ADD MLOAD PUSH2 0x200 DUP12 ADD MSTORE DUP5 DUP14 ADD MLOAD SWAP8 POP PUSH2 0x5CA0 PUSH2 0x220 DUP12 ADD DUP10 PUSH2 0x58F5 JUMP JUMPDEST DUP4 DUP14 ADD MLOAD SWAP8 POP PUSH2 0x5CB4 PUSH2 0x260 DUP12 ADD DUP10 PUSH2 0x5956 JUMP JUMPDEST DUP3 DUP14 ADD MLOAD PUSH2 0x2C0 DUP12 ADD MSTORE DUP2 DUP14 ADD MLOAD SWAP8 POP PUSH2 0x5CD2 PUSH2 0x2E0 DUP12 ADD DUP10 PUSH2 0x58D2 JUMP JUMPDEST DUP1 DUP14 ADD MLOAD PUSH2 0x320 DUP12 ADD MSTORE POP POP POP POP POP POP POP POP PUSH2 0x5CF2 PUSH2 0x340 DUP4 ADD DUP6 PUSH2 0x596F JUMP JUMPDEST DUP3 PUSH2 0x3C0 DUP4 ADD MSTORE SWAP7 SWAP6 POP POP POP POP POP POP JUMP JUMPDEST SWAP2 DUP3 MSTORE PUSH1 0x20 DUP3 ADD MSTORE PUSH1 0x40 ADD SWAP1 JUMP JUMPDEST SWAP3 DUP4 MSTORE PUSH1 0x20 DUP4 ADD SWAP2 SWAP1 SWAP2 MSTORE PUSH1 0x40 DUP3 ADD MSTORE PUSH1 0x60 ADD SWAP1 JUMP JUMPDEST SWAP2 DUP3 MSTORE PUSH1 0x1 PUSH1 0x1 PUSH1 0x50 SHL SUB AND PUSH1 0x20 DUP3 ADD MSTORE PUSH1 0x40 ADD SWAP1 JUMP JUMPDEST PUSH1 0x40 MLOAD DUP2 DUP2 ADD PUSH8 0xFFFFFFFFFFFFFFFF DUP2 GT DUP3 DUP3 LT OR ISZERO PUSH2 0x5D5A JUMPI INVALID JUMPDEST PUSH1 0x40 MSTORE SWAP2 SWAP1 POP JUMP JUMPDEST PUSH1 0x0 PUSH8 0xFFFFFFFFFFFFFFFF DUP3 GT ISZERO PUSH2 0x5D76 JUMPI INVALID JUMPDEST POP PUSH1 0x20 SWAP1 DUP2 MUL ADD SWAP1 JUMP JUMPDEST PUSH1 0x1 PUSH1 0x1 PUSH1 0xA0 SHL SUB DUP2 AND DUP2 EQ PUSH2 0x5D95 JUMPI PUSH1 0x0 DUP1 REVERT JUMPDEST POP JUMP INVALID 0x4A CODECOPY 0xDC MOD 0xD4 0xC0 0xDB 0xC6 0x4B PUSH17 0xAF90FD698A233A518AA5D07E595D983B8C SDIV 0x26 0xC8 0xF7 0xFB 0xC3 0xD5 DUP2 PUSH9 0xC5AE7397731D063D5B 0xBF RETURNDATASIZE PUSH6 0x7854427343F4 0xC0 DUP4 0x24 0xF PUSH27 0xACAA2D0F62A26469706673582212201DE3A69000076C776A371D9E 0xEC 0xD PUSH7 0xFCEA05BC80C894 PUSH24 0xC0D71EB4AE27AEF564736F6C6343000706003300000000 ","sha1":"28e49ec9fa0f63a43030761c9a48c7e7b5056829","source":"// SPDX-License-Identifier: GPL-3.0-only\npragma solidity =0.7.6;\npragma abicoder v2;\n\nimport {\n    Token,\n    VaultState,\n    VaultAccountHealthFactors,\n    VaultConfig,\n    VaultAccount,\n    PrimeRate\n} from \"../../global/Types.sol\";\nimport {Constants} from \"../../global/Constants.sol\";\nimport {SafeUint256} from \"../../math/SafeUint256.sol\";\nimport {SafeInt256} from \"../../math/SafeInt256.sol\";\n\nimport {ActionGuards} from \"./ActionGuards.sol\";\nimport {Emitter} from \"../../internal/Emitter.sol\";\nimport {PrimeRateLib} from \"../../internal/pCash/PrimeRateLib.sol\";\nimport {PrimeCashExchangeRate} from \"../../internal/pCash/PrimeCashExchangeRate.sol\";\nimport {VaultConfiguration} from \"../../internal/vaults/VaultConfiguration.sol\";\nimport {VaultAccountLib} from \"../../internal/vaults/VaultAccount.sol\";\nimport {VaultValuation} from \"../../internal/vaults/VaultValuation.sol\";\nimport {VaultSecondaryBorrow} from \"../../internal/vaults/VaultSecondaryBorrow.sol\";\nimport {VaultStateLib} from \"../../internal/vaults/VaultState.sol\";\nimport {TokenHandler} from \"../../internal/balances/TokenHandler.sol\";\n\nimport {SettleAssetsExternal} from \"../SettleAssetsExternal.sol\";\nimport {FreeCollateralExternal} from \"../FreeCollateralExternal.sol\";\n\nimport {\n    IVaultLiquidationAction,\n    IVaultAccountHealth\n} from \"../../../interfaces/notional/IVaultController.sol\";\n\ncontract VaultLiquidationAction is ActionGuards, IVaultLiquidationAction {\n    using VaultConfiguration for VaultConfig;\n    using VaultAccountLib for VaultAccount;\n    using VaultStateLib for VaultState;\n    using PrimeRateLib for PrimeRate;\n    using TokenHandler for Token;\n    using SafeInt256 for int256;\n    using SafeUint256 for uint256;\n\n\n    /// @notice If an account is below the minimum collateral ratio, this method wil deleverage (liquidate)\n    /// that account. `depositAmountPrimeCash` in the borrow currency will be transferred from the liquidator\n    /// and used to offset the account's debt position. The liquidator will receive either vaultShares or\n    /// cash depending.\n    /// @param account the address that will exit the vault\n    /// @param vault the vault to enter\n    /// @param liquidator the address that will receive profits from liquidation\n    /// @param currencyIndex 0 refers to primary borrow, 1 or 2 will refer to one of the secondary\n    /// currencies (if any)\n    /// @param depositUnderlyingInternal amount of underlying to deposit, in 8 decimal underlying precision\n    /// @return vaultSharesToLiquidator amount of vaultShares received from liquidation\n    /// @return depositAmountPrimeCash amount of prime cash deposited from liquidation\n    function deleverageAccount(\n        address account,\n        address vault,\n        address liquidator,\n        uint16 currencyIndex,\n        int256 depositUnderlyingInternal\n    ) external payable nonReentrant override returns (\n        uint256 vaultSharesToLiquidator,\n        int256 depositAmountPrimeCash\n    ) {\n        require(currencyIndex < 3);\n        (\n            VaultConfig memory vaultConfig,\n            VaultAccount memory vaultAccount,\n            VaultState memory vaultState\n        ) = _authenticateDeleverage(account, vault, liquidator);\n\n        PrimeRate memory pr;\n        // Currency Index is validated in this method\n        (\n            depositUnderlyingInternal,\n            vaultSharesToLiquidator,\n            pr\n        ) = IVaultAccountHealth(address(this)).calculateDepositAmountInDeleverage(\n            currencyIndex, vaultAccount, vaultConfig, vaultState, depositUnderlyingInternal\n        );\n        require(depositUnderlyingInternal > 0); // dev: cannot liquidate zero balance\n\n        uint16 currencyId = vaultConfig.borrowCurrencyId;\n        if (currencyIndex == 1) currencyId = vaultConfig.secondaryBorrowCurrencies[0];\n        else if (currencyIndex == 2) currencyId = vaultConfig.secondaryBorrowCurrencies[1];\n\n        Token memory token = TokenHandler.getUnderlyingToken(currencyId);\n        // Excess ETH is returned to the liquidator natively\n        (/* */, depositAmountPrimeCash) = TokenHandler.depositUnderlyingExternal(\n            liquidator, currencyId, token.convertToExternal(depositUnderlyingInternal), pr, false \n        );\n\n        Emitter.emitVaultDeleverage(\n            liquidator, account, vault, currencyId, vaultState.maturity,\n            currencyIndex == 0 ? depositAmountPrimeCash : 0, vaultSharesToLiquidator, pr\n        );\n\n        // Do not skip the min borrow check here\n        vaultAccount.vaultShares = vaultAccount.vaultShares.sub(vaultSharesToLiquidator);\n        if (vaultAccount.maturity == Constants.PRIME_CASH_VAULT_MATURITY) {\n            // Vault account will not incur a cash balance if they are in the prime cash maturity, their debts\n            // will be paid down directly.\n            _reduceAccountDebt(\n                vaultConfig, vaultState, vaultAccount, pr, currencyIndex, depositUnderlyingInternal, true\n            );\n            depositAmountPrimeCash = 0;\n        }\n\n        // Check min borrow in this liquidation method, the deleverage calculation should adhere to the min borrow\n        vaultAccount.setVaultAccountForLiquidation(vaultConfig, currencyIndex, depositAmountPrimeCash, true);\n\n        _transferVaultSharesToLiquidator(\n            liquidator, vaultConfig, vaultSharesToLiquidator, vaultAccount.maturity\n        );\n    }\n\n    /// @notice If an account has a cash balance, a liquidator can purchase the cash and provide\n    /// fCash to the account to reduce it's debt balance.\n    function liquidateVaultCashBalance(\n        address account,\n        address vault,\n        address liquidator,\n        uint256 currencyIndex,\n        int256 fCashDeposit\n    ) external nonReentrant override returns (int256 cashToLiquidator) {\n        (\n            VaultConfig memory vaultConfig,\n            VaultAccount memory vaultAccount,\n            VaultState memory vaultState\n        ) = _authenticateDeleverage(account, vault, liquidator);\n\n        uint16 currencyId;\n        PrimeRate memory pr;\n        int256 fCashBalance;\n        int256 cashBalance;\n\n        if (currencyIndex == 0) {\n            currencyId = vaultConfig.borrowCurrencyId;\n            pr = vaultConfig.primeRate;\n            fCashBalance = vaultAccount.accountDebtUnderlying;\n            cashBalance = vaultAccount.tempCashBalance;\n        } else if (currencyIndex < 3) {\n            (currencyId, pr, fCashBalance, cashBalance) = _getSecondaryCashFactors(\n                vaultConfig, currencyIndex, account\n            );\n        } else {\n            revert(); // dev: invalid currency index\n        }\n\n        {\n            // At this point, the prime rates have already been accrued statefully so using a view method is ok.\n            (int256 fCashRequired, int256 discountFactor) = IVaultAccountHealth(address(this))\n                .getfCashRequiredToLiquidateCash(currencyId, vaultAccount.maturity, cashBalance);\n\n            cashToLiquidator = pr.convertFromUnderlying(fCashDeposit.mulInRatePrecision(discountFactor));\n            if (cashToLiquidator > cashBalance) {\n                // Cap the fCash deposit to the cash balance available at the discount factor\n                fCashDeposit = fCashRequired;\n                cashToLiquidator = cashBalance;\n            }\n        }\n\n        // Cap the fCash deposit to the fcash balance held by the account\n        require(0 < fCashDeposit && fCashDeposit <= fCashBalance.neg());\n\n        _transferCashToVault(\n            vaultAccount, liquidator, vault, currencyId, fCashDeposit, cashToLiquidator\n        );\n\n        // Do not emit the secondary debt event, will be emitted inside _transferCashToVault\n        _reduceAccountDebt(vaultConfig, vaultState, vaultAccount, pr, currencyIndex, fCashDeposit, false);\n        vaultAccount.setVaultAccountForLiquidation(vaultConfig, currencyIndex, cashToLiquidator.neg(), false);\n    }\n\n\n    /// @notice Handles an edge case where vaults that have secondary borrows and have cash in excess of debts\n    /// in one currency but debts in another currency.\n    function liquidateExcessVaultCash(\n        address account,\n        address vault,\n        address liquidator,\n        uint256 excessCashIndex,\n        uint256 debtIndex,\n        uint256 _depositUnderlyingInternal\n    ) external payable nonReentrant override returns (int256 cashToLiquidator) {\n        (\n            VaultConfig memory vaultConfig,\n            VaultAccount memory vaultAccount,\n            /* VaultState memory vaultState */\n        ) = _authenticateDeleverage(account, vault, liquidator);\n\n        // This liquidation is only valid when there are secondary borrows\n        require(vaultConfig.hasSecondaryBorrows());\n        PrimeRate[2] memory primeRates = VaultSecondaryBorrow.getSecondaryPrimeRateStateful(vaultConfig);\n        // All prime rates have accrued statefully at this point, so it is ok to get account health factors which uses\n        // a view method to accrue prime cash -- it will read the values that have already accrued to this block.\n        (VaultAccountHealthFactors memory h, /* */, /* */) =  IVaultAccountHealth(address(this)).getVaultAccountHealthFactors(\n            account, vault\n        );\n        // Validate that there is debt and cash. This ensures that excessCashIndex != debtIndex and\n        // excessCashIndex < 3 and debtIndex < 3. It also validates that the currency indexes are valid\n        // because netDebtOutstanding == 0 for an unused secondary borrow currency.\n        require(0 < h.netDebtOutstanding[excessCashIndex]);\n        require(h.netDebtOutstanding[debtIndex] < 0);\n\n        VaultSecondaryBorrow.ExcessVaultCashFactors memory f = VaultSecondaryBorrow.getLiquidateExcessCashFactors(\n            vaultConfig, primeRates, excessCashIndex, debtIndex\n        );\n\n        int256 depositUnderlyingInternal = _depositUnderlyingInternal.toInt();\n        // Calculation does the following:\n        // excessCashUnderlyingInternal = debtCashInUnderlyingInternal * exchangeRateToExcessCashUnderlying * liquidation bonus\n        // cashToLiquidator = excessCashPR(excessCashUnderlyingInternal)\n        cashToLiquidator = f.excessCashPR.convertFromUnderlying(\n            depositUnderlyingInternal\n                .mul(vaultConfig.excessCashLiquidationBonus)\n                .mul(f.rateDecimals)\n                .div(f.exchangeRate)\n                .div(Constants.PERCENTAGE_DECIMALS)\n        );\n\n        if (h.netDebtOutstanding[excessCashIndex] < cashToLiquidator) {\n            // Limit the deposit to what is held by the account\n            cashToLiquidator = h.netDebtOutstanding[excessCashIndex];\n            // Calculation does the following:\n            // excessCashUnderlyingInternal = excessCashPR(excessPrimeCash)\n            // liquidatorDepositUnderlying = excessCashUnderlyingInternal * exchangeRateToDebtCashUnderlying * liquidationBonus\n            depositUnderlyingInternal = f.excessCashPR.convertToUnderlying(cashToLiquidator)\n                .mul(f.exchangeRate)\n                .mul(Constants.PERCENTAGE_DECIMALS)\n                .div(vaultConfig.excessCashLiquidationBonus)\n                .div(f.rateDecimals);\n        }\n\n        int256 depositAmountPrimeCash = f.debtPR.convertFromUnderlying(depositUnderlyingInternal);\n        int256 netCashToAccount = cashToLiquidator.neg();\n        vaultAccount.setVaultAccountForLiquidation(vaultConfig, excessCashIndex, netCashToAccount, false);\n        vaultAccount.setVaultAccountForLiquidation(vaultConfig, debtIndex, depositAmountPrimeCash, false);\n\n        Emitter.emitTransferPrimeCash(vault, liquidator, f.excessCashCurrencyId, cashToLiquidator);\n        TokenHandler.withdrawPrimeCash(\n            liquidator, f.excessCashCurrencyId, netCashToAccount, f.excessCashPR, false\n        );\n        Emitter.emitVaultMintOrBurnCash(account, vault, f.excessCashCurrencyId, vaultAccount.maturity, netCashToAccount);\n\n        // Deposit the debtIndex from the liquidator\n        TokenHandler.depositExactToMintPrimeCash(\n            liquidator, f.debtCurrencyId, depositAmountPrimeCash, f.debtPR, false\n        );\n        Emitter.emitTransferPrimeCash(liquidator, vault, f.debtCurrencyId, depositAmountPrimeCash);\n        Emitter.emitVaultMintOrBurnCash(account, vault, f.debtCurrencyId, vaultAccount.maturity, depositAmountPrimeCash);\n    }\n\n    function _transferCashToVault(\n        VaultAccount memory vaultAccount,\n        address liquidator,\n        address vault,\n        uint16 currencyId,\n        int256 fCashDeposit,\n        int256 cashToLiquidator\n    ) internal {\n        bool mustCheckFC = SettleAssetsExternal.transferCashToVaultLiquidator(\n            liquidator, vault, vaultAccount.account, currencyId, vaultAccount.maturity, fCashDeposit, cashToLiquidator\n        );\n\n        if (mustCheckFC) {\n            FreeCollateralExternal.checkFreeCollateralAndRevert(liquidator);\n        }\n        emit VaultAccountCashLiquidation(\n            vault, vaultAccount.account, liquidator, currencyId, fCashDeposit, cashToLiquidator\n        );\n    }\n\n    /// @notice Authenticates a call to the deleverage method\n    function _authenticateDeleverage(\n        address account,\n        address vault,\n        address liquidator\n    ) private returns (\n        VaultConfig memory vaultConfig,\n        VaultAccount memory vaultAccount,\n        VaultState memory vaultState\n    ) {\n        // Do not allow invalid accounts to liquidate\n        requireValidAccount(liquidator);\n        require(liquidator != vault);\n\n        // Cannot liquidate self, if a vault needs to deleverage itself as a whole it has other methods \n        // in VaultAction to do so.\n        require(account != msg.sender);\n        require(account != liquidator);\n\n        vaultConfig = VaultConfiguration.getVaultConfigStateful(vault);\n        require(vaultConfig.getFlag(VaultConfiguration.DISABLE_DELEVERAGE) == false);\n\n        // Authorization rules for deleveraging\n        if (vaultConfig.getFlag(VaultConfiguration.ONLY_VAULT_DELEVERAGE)) {\n            require(msg.sender == vault);\n        } else {\n            require(msg.sender == liquidator);\n        }\n\n        vaultAccount = VaultAccountLib.getVaultAccount(account, vaultConfig);\n\n        // Vault accounts that are not settled must be settled first by calling settleVaultAccount\n        // before liquidation. settleVaultAccount is not permissioned so anyone may settle the account.\n        require(block.timestamp < vaultAccount.maturity, \"Must Settle\");\n\n        if (vaultAccount.maturity == Constants.PRIME_CASH_VAULT_MATURITY) {\n            // Returns the updated prime vault state\n            vaultState = vaultAccount.accruePrimeCashFeesToDebtInLiquidation(vaultConfig);\n        } else {\n            vaultState = VaultStateLib.getVaultState(vaultConfig, vaultAccount.maturity);\n        }\n    }\n\n    function _reduceAccountDebt(\n        VaultConfig memory vaultConfig,\n        VaultState memory vaultState,\n        VaultAccount memory vaultAccount,\n        PrimeRate memory primeRate,\n        uint256 currencyIndex,\n        int256 depositUnderlyingInternal,\n        bool checkMinBorrow\n    ) private {\n        if (currencyIndex == 0) {\n            vaultAccount.updateAccountDebt(vaultState, depositUnderlyingInternal, 0);\n            vaultState.setVaultState(vaultConfig);\n        } else {\n            // Only set one of the prime rates, the other prime rate is not used since\n            // the net debt amount is set to zero\n            PrimeRate[2] memory pr;\n            pr[currencyIndex - 1] = primeRate;\n\n            VaultSecondaryBorrow.updateAccountSecondaryDebt(\n                vaultConfig,\n                vaultAccount.account,\n                vaultAccount.maturity,\n                currencyIndex == 1 ? depositUnderlyingInternal : 0,\n                currencyIndex == 2 ? depositUnderlyingInternal : 0,\n                pr,\n                checkMinBorrow,\n                false // do not emit events during liquidation, they are emitted prior\n            );\n        }\n    }\n\n    /// @notice Transfers liquidator profits in the form of vault shares to be returned to the liquidator\n    function _transferVaultSharesToLiquidator(\n        address receiver,\n        VaultConfig memory vaultConfig,\n        uint256 vaultSharesToLiquidator,\n        uint256 maturity\n    ) private {\n        // Liquidator will receive vault shares that they can redeem by calling exitVault. If the liquidator has a\n        // leveraged position on then their collateral ratio will increase\n        VaultAccount memory liquidator = VaultAccountLib.getVaultAccount(receiver, vaultConfig);\n        // The liquidator must be able to receive the vault shares (i.e. not be in the vault at all or be in the\n        // vault at the same maturity). If the liquidator has fCash in the current maturity then their collateral\n        // ratio will increase as a result of the liquidation, no need to check their collateral position.\n        require(liquidator.maturity == 0 || liquidator.maturity == maturity, \"Maturity Mismatch\"); // dev: has vault shares\n        liquidator.maturity = maturity;\n        liquidator.vaultShares = liquidator.vaultShares.add(vaultSharesToLiquidator);\n        liquidator.setVaultAccount({vaultConfig: vaultConfig, checkMinBorrow: true, emitEvents: false});\n    }\n\n    function _getSecondaryCashFactors(\n        VaultConfig memory vaultConfig,\n        uint256 currencyIndex,\n        address account\n    ) private returns (uint16 currencyId, PrimeRate memory pr, int256 fCashBalance, int256 cashBalance) {\n        PrimeRate[2] memory primeRates = VaultSecondaryBorrow.getSecondaryPrimeRateStateful(vaultConfig);\n        (/* */, int256 debtOne, int256 debtTwo) = VaultSecondaryBorrow.getAccountSecondaryDebt(vaultConfig, account, primeRates);\n\n        // Cash balances refer to cash held on the account against debt, not prime cash balances held by the vault.\n        // Those are included in the vault share value.\n        (int256 cashOne, int256 cashTwo) = VaultSecondaryBorrow.getSecondaryCashHeld(account, vaultConfig.vault);\n\n        currencyId = vaultConfig.secondaryBorrowCurrencies[currencyIndex - 1];\n        pr = primeRates[currencyIndex - 1];\n        // Return the correct pair of debt and cash balances\n        (fCashBalance, cashBalance) = currencyIndex == 1 ? (debtOne, cashOne) : (debtTwo, cashTwo);\n    }\n\n    function getLibInfo() external pure returns (address, address) {\n        return (address(FreeCollateralExternal), address(SettleAssetsExternal));\n    }\n}","sourcePath":"contracts/external/actions/VaultLiquidationAction.sol","type":"contract","deployment":{"address":"0x5f11E94E0A69ac8490f45eB27a6478dCDDB0227E","chainid":"42161","blockHeight":86538662}}