{"abi":[{"anonymous":false,"inputs":[{"indexed":true,"internalType":"address","name":"owner","type":"address"},{"indexed":true,"internalType":"address","name":"spender","type":"address"},{"indexed":false,"internalType":"uint256","name":"amount","type":"uint256"}],"name":"Approval","type":"event"},{"anonymous":false,"inputs":[{"indexed":true,"internalType":"address","name":"from","type":"address"},{"indexed":true,"internalType":"address","name":"to","type":"address"},{"indexed":false,"internalType":"uint256","name":"amount","type":"uint256"}],"name":"Transfer","type":"event"},{"inputs":[],"name":"getLibInfo","outputs":[{"internalType":"address","name":"","type":"address"},{"internalType":"address","name":"","type":"address"},{"internalType":"address","name":"","type":"address"}],"stateMutability":"pure","type":"function"},{"inputs":[{"internalType":"uint16","name":"currencyId","type":"uint16"},{"internalType":"address","name":"account","type":"address"}],"name":"nTokenBalanceOf","outputs":[{"internalType":"uint256","name":"","type":"uint256"}],"stateMutability":"view","type":"function"},{"inputs":[],"name":"nTokenClaimIncentives","outputs":[{"internalType":"uint256","name":"","type":"uint256"}],"stateMutability":"nonpayable","type":"function"},{"inputs":[{"internalType":"address","name":"nTokenAddress","type":"address"}],"name":"nTokenTotalSupply","outputs":[{"internalType":"uint256","name":"totalSupply","type":"uint256"}],"stateMutability":"view","type":"function"},{"inputs":[{"internalType":"uint16","name":"currencyId","type":"uint16"},{"internalType":"address","name":"from","type":"address"},{"internalType":"address","name":"to","type":"address"},{"internalType":"uint256","name":"amount","type":"uint256"}],"name":"nTokenTransfer","outputs":[{"internalType":"bool","name":"","type":"bool"}],"stateMutability":"nonpayable","type":"function"},{"inputs":[{"internalType":"uint16","name":"currencyId","type":"uint16"},{"internalType":"address","name":"tokenHolder","type":"address"},{"internalType":"address","name":"spender","type":"address"}],"name":"nTokenTransferAllowance","outputs":[{"internalType":"uint256","name":"","type":"uint256"}],"stateMutability":"view","type":"function"},{"inputs":[{"internalType":"uint16","name":"currencyId","type":"uint16"},{"internalType":"address","name":"tokenHolder","type":"address"},{"internalType":"address","name":"spender","type":"address"},{"internalType":"uint256","name":"amount","type":"uint256"}],"name":"nTokenTransferApprove","outputs":[{"internalType":"bool","name":"","type":"bool"}],"stateMutability":"nonpayable","type":"function"},{"inputs":[{"internalType":"address","name":"spender","type":"address"},{"internalType":"uint256","name":"amount","type":"uint256"}],"name":"nTokenTransferApproveAll","outputs":[{"internalType":"bool","name":"","type":"bool"}],"stateMutability":"nonpayable","type":"function"},{"inputs":[{"internalType":"uint16","name":"currencyId","type":"uint16"},{"internalType":"address","name":"spender","type":"address"},{"internalType":"address","name":"from","type":"address"},{"internalType":"address","name":"to","type":"address"},{"internalType":"uint256","name":"amount","type":"uint256"}],"name":"nTokenTransferFrom","outputs":[{"internalType":"bool","name":"","type":"bool"}],"stateMutability":"nonpayable","type":"function"},{"inputs":[],"name":"owner","outputs":[{"internalType":"address","name":"","type":"address"}],"stateMutability":"view","type":"function"},{"inputs":[{"internalType":"uint16","name":"currencyId","type":"uint16"},{"internalType":"address","name":"from","type":"address"},{"internalType":"address","name":"to","type":"address"},{"internalType":"uint256","name":"amount","type":"uint256"}],"name":"pCashTransfer","outputs":[{"internalType":"bool","name":"","type":"bool"}],"stateMutability":"nonpayable","type":"function"},{"inputs":[{"internalType":"uint16","name":"currencyId","type":"uint16"},{"internalType":"address","name":"tokenHolder","type":"address"},{"internalType":"address","name":"spender","type":"address"}],"name":"pCashTransferAllowance","outputs":[{"internalType":"uint256","name":"","type":"uint256"}],"stateMutability":"view","type":"function"},{"inputs":[{"internalType":"uint16","name":"currencyId","type":"uint16"},{"internalType":"address","name":"tokenHolder","type":"address"},{"internalType":"address","name":"spender","type":"address"},{"internalType":"uint256","name":"amount","type":"uint256"}],"name":"pCashTransferApprove","outputs":[{"internalType":"bool","name":"","type":"bool"}],"stateMutability":"nonpayable","type":"function"},{"inputs":[{"internalType":"uint16","name":"currencyId","type":"uint16"},{"internalType":"address","name":"spender","type":"address"},{"internalType":"address","name":"from","type":"address"},{"internalType":"address","name":"to","type":"address"},{"internalType":"uint256","name":"amount","type":"uint256"}],"name":"pCashTransferFrom","outputs":[{"internalType":"bool","name":"","type":"bool"}],"stateMutability":"nonpayable","type":"function"},{"inputs":[],"name":"pauseGuardian","outputs":[{"internalType":"address","name":"","type":"address"}],"stateMutability":"view","type":"function"},{"inputs":[],"name":"pauseRouter","outputs":[{"internalType":"address","name":"","type":"address"}],"stateMutability":"view","type":"function"}],"bytecode":"608060405234801561001057600080fd5b506143a9806100206000396000f3fe608060405234801561001057600080fd5b50600436106101005760003560e01c80638246336711610097578063c4c96dae11610066578063c4c96dae146101f8578063ca2cc3611461020f578063daca07a614610222578063e571164e1461022a57610100565b806382463367146101c2578063884a7092146101ca5780638da5cb5b146101dd578063a78dbfff146101e557610100565b806341075971116100d357806341075971146101695780636a96e86f146101895780637c735c1c1461019c5780637db31ab9146101af57610100565b806318ae40d71461010557806324a3d6221461012e5780632e0ecba814610143578063309c00a614610156575b600080fd5b610118610113366004614089565b61023d565b6040516101259190614234565b60405180910390f35b6101366102a4565b6040516101259190614114565b610118610151366004613dc8565b6102b3565b610118610164366004614089565b61031e565b61017c610177366004613fdc565b610397565b60405161012591906142ea565b61017c610197366004613dac565b6103dd565b6101186101aa366004614089565b6103f1565b61017c6101bd366004613fdc565b61044a565b6101366104c0565b6101186101d8366004614026565b6104cf565b610136610648565b61017c6101f3366004613fa4565b61065f565b610200610680565b60405161012593929190614128565b61011861021d366004614089565b6106c4565b61017c610740565b610118610238366004614026565b610800565b60008061024d8661ffff166108fa565b9050336001600160a01b0382161461026457600080fd5b836001600160a01b0316856001600160a01b0316141561028357600080fd5b61028c84610927565b61029a8686868660016109a6565b9695505050505050565b6002546001600160a01b031681565b3360008181526004602090815260408083206001600160a01b038716808552925280832085905551919290917f8c5be1e5ebec7d5bd14f71427d1e84f3dd0314c0f7b2291e5b200ac8c7c3b9259061030c9086906142ea565b60405180910390a35060015b92915050565b60008061032e8661ffff166108fa565b9050336001600160a01b0382161461034557600080fd5b6001600160a01b03851661035857600080fd5b50506001600160a01b03928316600090815260056020908152604080832094909516825292835283812061ffff95909516815293909152912055600190565b60006103a1610bd1565b6001600160a01b03808516600090815260209283526040808220928616825291835281812061ffff8816825290925290205490505b9392505050565b60006103e882610bde565b50909392505050565b6000806103fd86610c3a565b9050336001600160a01b0382161461041457600080fd5b836001600160a01b0316856001600160a01b0316141561043357600080fd5b61043c84610927565b61029a8686868660006109a6565b6001600160a01b038083166000908152600560209081526040808320938516835292815282822061ffff87168352905290812054801561048b5790506103d6565b50506001600160a01b038083166000908152600460209081526040808320938516835292905220546103d6565b509392505050565b6001546001600160a01b031681565b6000806104df8761ffff166108fa565b9050336001600160a01b038216146104f657600080fd5b836001600160a01b0316856001600160a01b0316141561051557600080fd5b61051e84610927565b6001600160a01b038086166000908152600560209081526040808320938a16835292815282822061ffff8b1683529052205480156105ba578381101561057f5760405162461bcd60e51b81526004016105769061423f565b60405180910390fd5b6001600160a01b038087166000908152600560209081526040808320938b16835292815282822061ffff8c168352905220848203905561062c565b506001600160a01b038086166000908152600460209081526040808320938a1683529290522054838110156106015760405162461bcd60e51b81526004016105769061423f565b6001600160a01b038087166000908152600460209081526040808320938b1683529290522084820390555b61063a8887878760016109a6565b925050505b95945050505050565b60005464010000000090046001600160a01b031681565b60008061066d838542610c67565b505091505060008112156103d657600080fd5b73__FreeCollateralExternal________________73__MigrateIncentives_____________________73__SettleAssetsExternal__________________909192565b6000806106d086610c3a565b9050336001600160a01b038216146106e757600080fd5b6001600160a01b0385166106fa57600080fd5b82610703610bd1565b6001600160a01b0396871660009081526020918252604080822097909816815295815286862061ffff989098168652969096525050502055600190565b6000338161074d82610c9a565b90506000610759613a6c565b61076283610d48565b1561079457606083015161077a908290869086610d55565b600081604001511315610794576107918185610d76565b91505b60808301515b6001600160701b03198116156107f65760f081901c613fff166107bf83878388610d55565b6000836040015113156107e3576107e06107d98488610d76565b8590610dba565b93505b5060101b6001600160801b03191661079a565b5090935050505090565b60008061080c87610c3a565b9050336001600160a01b0382161461082357600080fd5b836001600160a01b0316856001600160a01b0316141561084257600080fd5b61084b84610927565b6000610855610bd1565b6001600160a01b03808816600090815260209283526040808220928b16825291835281812061ffff8c1682529092529020549050838110156108a95760405162461bcd60e51b81526004016105769061423f565b8381036108b4610bd1565b6001600160a01b03808916600090815260209283526040808220928c16825291835281812061ffff8d16825290925281209190915561063a9089908890889088906109a6565b600080610905610dcc565b600084815260209190915260409020546001600160a01b03169150505b919050565b6001600160a01b03811661093a57600080fd5b6001600160a01b038116610fee141561095257600080fd5b6001600160a01b0381166105e7141561096a57600080fd5b6001600160a01b03811630141561098057600080fd5b600061098b82610dd9565b5050505061ffff169050806000146109a257600080fd5b5050565b6000806109b284610e42565b905060006109bf87610c9a565b90506109ca81610e5c565b15610a5b576040516337b5fc2160e11b815273__SettleAssetsExternal__________________90636f6bf84290610a08908a908590600401614164565b60c06040518083038186803b158015610a2057600080fd5b505af4158015610a34573d6000803e3d6000fd5b505050506040513d601f19601f82011682018060405250810190610a589190613f01565b90505b610a63613a6c565b610a6f81898b85610d55565b8415610a8857610a7e83610eb0565b60a0820152610adf565b6000816020015113610aac5760405162461bcd60e51b81526004016105769061426f565b8060200151831315610ad05760405162461bcd60e51b81526004016105769061426f565b610ad983610eb0565b60608201525b610aea818984610ebe565b610af48289610edc565b6000610aff88610c9a565b9050610b09613a6c565b610b15818a8d85610d55565b8615610b275760a08101859052610b2f565b606081018590525b610b3a818a84610ebe565b610b44828a610edc565b60208401516001600160f81b03191615610bc057604051636ccc642f60e01b815273__FreeCollateralExternal________________90636ccc642f90610b8f908d90600401614114565b60006040518083038186803b158015610ba757600080fd5b505af4158015610bbb573d6000803e3d6000fd5b505050505b5060019a9950505050505050505050565b6000806103186023610ff9565b600080600080610bec611012565b6001600160a01b0395909516600090815260209590955250506040909220546001600160601b03811693600160601b82046001600160801b03169350600160e01b90910463ffffffff169150565b6000610c4461101f565b61ffff90921660009081526020929092525060409020546001600160a01b031690565b6000806000806000610c79878761102c565b509050610c878888836110ea565b9450945094509450505b93509350935093565b610ca2613ac8565b6000610cac6111a4565b6001600160a01b03841660009081526020918252604090819020815160c081018352905464ffffffffff811682526001600160f81b0319600160281b820460f81b169382019390935260ff600160301b840481169282019290925261ffff600160381b84041660608201526001600160701b0319600160481b840460701b166080820152600160d81b90920416151560a0820152915050919050565b6060015161ffff16151590565b610d5e826111b1565b610120850152610d70848484846111c3565b50505050565b6000610d8f8383610d8a866040015161126b565b61127a565b9050610318828460000151856020015186604001518760e00151886101000151896101200151611367565b6000828201838110156103d657600080fd5b6000806103186003610ff9565b600080600080600080610dea6114a2565b6001600160a01b039097166000908152602097909752505060409094205461ffff81169563ffffffff62010000830481169650600160301b830416945060ff600160501b8304169350600160581b90910460d81b9150565b60006001600160ff1b03821115610e5857600080fd5b5090565b600042610e6883610d48565b15610e8957610e76816114af565b835164ffffffffff161091506109229050565b825164ffffffffff1615801590610ea85750825164ffffffffff168110155b915050610922565b6000610318600019836114cd565b608083015115610ecd57600080fd5b610d708383836000600161151b565b6000610ee66111a4565b6001600160a01b03831660008181526020838152604080832088518154938a01518a84015160608c015160808d015160a08e015164ffffffffff1990981664ffffffffff9095169490941765ff00000000001916600160281b60f89490941c939093029290921766ff0000000000001916600160301b60ff909216919091021768ffff000000000000001916600160381b61ffff90921691909102177affffffffffffffffffffffffffffffffffff0000000000000000001916600160481b60709290921c919091021760ff60d81b1916600160d81b93151593909302929092179091555192935090917f6bd4b121bca854a191536a2ca891155c42ee2fb23f307fb34e8bc65cfcb5412e9190a2505050565b6000620f424082602681111561100b57fe5b0192915050565b6000806103186011610ff9565b6000806103186021610ff9565b611034613afd565b61103c613b1e565b611045846116d1565b9050828160000151101561107657600061105e85611799565b905061106c8583838761181c565b5091506110839050565b8051831461108357600080fd5b60405180606001604052806110b16110ac8460a001518560c0015161191d90919063ffffffff16565b610e42565b81526020016110d46110ac8460a001518560e0015161191d90919063ffffffff16565b8152602001826060015181525091509250929050565b60008060008060006110fa611944565b6001600160a01b03891660009081526020828152604080832061ffff8c168452909152902080546001600160501b0381169650600160501b900463ffffffff169450909150831561116757805461116090600160701b900466ffffffffffffff16611951565b925061117c565b8054600160701b900466ffffffffffffff1692505b8054611197908890600160a81b9004600a90810b900b61195f565b9550505093509350935093565b6000806103186001610ff9565b6111b9613afd565b6103188242611993565b8161ffff1660001080156111dd5750613fff61ffff831611155b6111e657600080fd5b61ffff82168085526111f9908290611a54565b156112285761120e83838661012001516110ea565b61010088015260e087015260408601526020850152611246565b6000602085018190526040850181905260e085018190526101008501525b50506000606083018190526080830181905260a0830181905260c09092019190915250565b600080821215610e5857600080fd5b8251600090429082906112909061ffff166108fa565b905060006112a3828860c0015185611ade565b90506112b187838388611bc1565b935060006112be83611cee565b90506001600160a01b0381161561134c57806001600160a01b0316631d684dd2888a600001516112f18c6040015161126b565b8a8d60c001518b6040518763ffffffff1660e01b8152600401611319969594939291906141d7565b600060405180830381600087803b15801561133357600080fd5b505af1158015611347573d6000803e3d6000fd5b505050505b841561135c5761135c8786611d60565b505050509392505050565b6000611371611944565b6001600160a01b03891660009081526020828152604080832061ffff8c1684529091529020909150846113d95766ffffffffffffff8411156113b257600080fd5b805466ffffffffffffff60701b1916600160701b66ffffffffffffff8616021781556113f3565b8054600160501b900463ffffffff1685146113f357600080fd5b6113fc85611d7f565b815463ffffffff91909116600160501b0263ffffffff60501b1990911617815561142d6114288761126b565b611d92565b815469ffffffffffffffffffff19166001600160501b0391909116178082556114739061146e9085908c908c90600160a81b9004600a90810b900b8c611da8565b611dcb565b8154600a9190910b6001600160581b0316600160a81b026001600160a81b039091161790555050505050505050565b6000806103186002610ff9565b6000620151808210156114c157600080fd5b50620151808106900390565b8181026000198314156114fd578115806114ef5750828282816114ec57fe5b05145b6114f857600080fd5b610318565b82158061151257508183828161150f57fe5b05145b61031857600080fd5b60008061153886886000015189608001518a610120015188611dfd565b9150600061155788608001518960600151611ea590919063ffffffff16565b90508380156115665750600081125b80156115815750602088015160009061157f9083611ea5565b125b156115a7578560a001516115a75760405162461bcd60e51b81526004016105769061429d565b80156115c65760208801516115bc9082611ea5565b6020890152600191505b60a08801511515806115db575060c088015115155b1561164457600061160b8960c001516116058b60a001518c60400151611ea590919063ffffffff16565b90611ea5565b9050600081121561162e5760405162461bcd60e51b8152600401610576906142c6565b61163989898361127a565b506040890152600191505b8115611673576116738789600001518a602001518b604001518c60e001518d61010001518e6101200151611367565b875160208901516116a09161ffff1690151580611693575060408a015115155b889190600160fe1b611ebb565b6000886020015112156116c657602086018051600160f91b176001600160f81b03191690525b505095945050505050565b6116d9613b1e565b60006116e36120ba565b61ffff93841660009081526020918252604090819020805464ffffffffff81168652600160281b81046001600160581b03908116948701949094526001820154841692860192909252600160d81b820463ffffffff166060860152600160801b9091049091166080840152600201546001600160501b0380821660a0850152600160501b8204811660c0850152600160a01b82041660e0840152600160f01b900460ff1661012c02909216610100820152919050565b6000806117a5836120c7565b6001600160a01b031663a77c05b86040518163ffffffff1660e01b8152600401604080518083038186803b1580156117dc57600080fd5b505afa1580156117f0573d6000803e3d6000fd5b505050506040513d601f19601f8201168201806040525081019061181491906140f1565b949350505050565b611824613b1e565b60008060006118348886896120f7565b60c08b019290925260e08a0192909252602089015191935091506118589083610dba565b60208801526080870151600090156118865760808801516118839061187d8982612201565b90612216565b90505b6118a661189b670de0b6b3a764000083610dba565b60a08a015190612233565b60a0890152506080870186905260006118bd612250565b61ffff8a1660009081526020919091526040902054885163ffffffff600160a01b90920482169250611908916118f79085908590610dba16565b8a606001518b61010001518a61225d565b60608901525050928552509294909350915050565b60008261192c57506000610318565b8282028284828161193957fe5b04146103d657600080fd5b6000806103186006610ff9565b600881901c60ff9091161b90565b600080821261196f575080610318565b8251602084015161198c91906119869085906114cd565b906122eb565b9050610318565b61199b613afd565b60006119a6846116d1565b905082816000015110156119e5576000806119c08661231c565b90506119ce8684838861181c565b90935091506119de868385612375565b50506119f2565b805183146119f257600080fd5b6040518060600160405280611a1b6110ac8460a001518560c0015161191d90919063ffffffff16565b8152602001611a3e6110ac8460a001518560e0015161191d90919063ffffffff16565b8152602001826060015181525091505092915050565b60008115801590611a675750613fff8211155b611a7057600080fd5b6080830151606084015161ffff16831415611a8f576001915050610318565b6001600160701b0319811615611ad45760f081901c613fff1683811415611ac15750600160fe1b908116149050610318565b5060101b6001600160801b031916611a8f565b5060009392505050565b6000806000611aed86856125a9565b50915091506000611afc611012565b6001600160a01b0388166000908152602082905260408120919250611b218589611ea5565b905080600013158015611b3a57506001600160601b0381105b611b4357600080fd5b81546bffffffffffffffffffffffff19166001600160601b038216176fffffffffffffffffffffffffffffffff60601b1916600160601b6001600160801b0386160217825563ffffffff8710611b9857600080fd5b50805463ffffffff8716600160e01b026001600160e01b03909116179055509150509392505050565b60e084015160009015611c825773__MigrateIncentives_____________________63e0c01a7285611bf6886040015161126b565b8860e001518961010001516040518563ffffffff1660e01b8152600401611c20949392919061420e565b60206040518083038186803b158015611c3857600080fd5b505af4158015611c4c573d6000803e3d6000fd5b505050506040513d601f19601f82011682018060405250810190611c7091906140d9565b600060e0870181905261010087015290505b611cc4611cbd866101000151611cb7670de0b6b3a7640000611cb188611cab8c6040015161126b565b9061191d565b9061263f565b90612201565b8290610dba565b9050611cdc670de0b6b3a7640000611cb1848661191d565b85610100018181525050949350505050565b600080611cf96114a2565b6001600160a01b0384166000908152602082905260409020805491925090600160f81b900460ff1615611d5557611d2e61265e565b6001600160a01b038086166000908152602092909252604090912054169250610922915050565b600092505050610922565b6109a273019be259bc299f3f653688c7655c87f998bc7bc1838361266b565b600063ffffffff821115610e5857600080fd5b60006001600160501b03821115610e5857600080fd5b6000611db486836126e7565b905061063f868686611dc68786612726565b6127ad565b60006a7fffffffffffffffffffff198212801590611df457506a7fffffffffffffffffffff8213155b610e5857600080fd5b600083611e0c5750600061063f565b60008412611e1957600080fd5b6000611e288661ffff166127e1565b9050611e3d81611e3886886127f4565b612820565b91506000611e4a83610eb0565b9050611e57878383612858565b600382606001516005811115611e6957fe5b1415611e7f57611e7a88828661294c565b611e8c565b8151611e8c90898361266b565b611e998888858589612a14565b50505095945050505050565b8181018281121560008312151461031857600080fd5b826000108015611ecd5750613fff8311155b611ed657600080fd5b818015611eea575082846060015161ffff16145b15611ef457610d70565b6080840151600090815b6001600160701b031982161561206f5760f082901c613fff168681148015611f235750855b15611f5b57506080870180516001600160f01b0319861660109093029290921c919091176001600160701b031916905250610d709050565b8681148015611f68575085155b15611fbd576001600160f01b03198516199290921691600360fe1b8316611f9b576010836001600160701b031916901b92505b506001600160701b031991821660109091021c91909117166080850152610d70565b8681118015611fc95750855b15612023576080888101516001600160f01b031960f08a901b88178116601086021c9690961795911b1615611ffd57600080fd5b506001600160701b03199182166001919091016010021c91909117166080850152610d70565b8681118015612030575085155b1561203e5750505050610d70565b506001600160f01b0319821660108281029190911c93909317929190911b6001600160801b03191690600101611efe565b8461207c57505050610d70565b6009811061208957600080fd5b6001600160f01b031960f087901b85171660109091021c919091176001600160701b03191660808601525050505050565b600080610318601d610ff9565b6000806120d2612a5b565b61ffff939093166000908152602093909352505060409020546001600160a01b031690565b60008060008060008061210a8988612a68565b8951909550919350915060009061213190612126908b90612201565b633b9aca009061191d565b905061216b6121606301da9c00612148858561191d565b8161214f57fe5b670de0b6b3a7640000919004610dba565b60e08a015190612233565b965061218d6121826301da9c00612148878561191d565b60c08a015190612233565b9550818314156121a4575060009350610c91915050565b60006121c66121bb6301da9c00612148878661191d565b60e08b015190612233565b905060006121d48983612201565b90506121f188611cb1838d6040015161191d90919063ffffffff16565b9650505050505093509350935093565b60008282111561221057600080fd5b50900390565b60006103d661222d84670de0b6b3a764000061191d565b8361263f565b60006103d6612242848461191d565b670de0b6b3a764000061263f565b6000806103186025610ff9565b600080831161226b57600080fd5b8186111561227a57508361063f565b60006122868388612201565b905083811115612299578591505061063f565b60006122a58286612b02565b905060006122b7633b9aca0083612201565b90506122de633b9aca00611cb16122ce8a8561191d565b6122d88c8761191d565b90610dba565b9998505050505050505050565b6000816000191480156123015750600160ff1b83145b1561230b57600080fd5b81838161231457fe5b059392505050565b600080612328836120c7565b6001600160a01b031663ef81f2166040518163ffffffff1660e01b81526004016040805180830381600087803b15801561236157600080fd5b505af11580156117f0573d6000803e3d6000fd5b600061237f6120ba565b60008561ffff16815260200190815260200160002090506123a38260000151612b15565b815464ffffffffff191664ffffffffff9190911617815560a08201516123c890611d92565b60028201805469ffffffffffffffffffff19166001600160501b039290921691909117905560c08201516123fb90611d92565b81600201600a6101000a8154816001600160501b0302191690836001600160501b031602179055506124308260e00151611d92565b8160020160146101000a8154816001600160501b0302191690836001600160501b031602179055506124658260200151612b29565b81546001600160581b0391909116600160281b026fffffffffffffffffffffff000000000019909116178155604082015161249f90612b29565b6001820180546affffffffffffffffffffff19166001600160581b039290921691909117905560808201516124d390612b29565b81546001600160581b0391909116600160801b026affffffffffffffffffffff60801b19909116178155606082015161250b90611d7f565b815463ffffffff91909116600160d81b0263ffffffff60d81b19909116178155821561255757600061253c84610e42565b90506125488582612b3f565b612555610fee8683612b76565b505b8361ffff167fef25641e225e493886510ca1ad6584fa7b442b9fea820a29d1de3ce27d270fd28360a001518460c001518560e0015160405161259b939291906142f3565b60405180910390a250505050565b60008060006125b785610bde565b9194509250905080841180156125cd5750600081115b80156125d95750600083115b156126385760006125e986610dd9565b505050915050600061261461260b6305f5e1008461191d90919063ffffffff16565b84880387612bf6565b90506126208482610dba565b93506001600160801b03841061263557600080fd5b50505b9250925092565b600080821161264d57600080fd5b81838161265657fe5b049392505050565b6000806103186012610ff9565b826001600160a01b031663a9059cbb83836040518363ffffffff1660e01b815260040180836001600160a01b0316815260200182815260200192505050600060405180830381600087803b1580156126c257600080fd5b505af11580156126d6573d6000803e3d6000fd5b505050506126e2612c18565b505050565b6000808212156127205761271b600161271585602001516119868760000151876114cd90919063ffffffff16565b90612c85565b6103d6565b50919050565b600081831480612743575060008312158015612743575060008212155b1561275057506000610318565b600083131580156127615750816000125b1561276d575081610318565b6000821315801561277e5750826000125b1561278c5761198c82610eb0565b6000831315801561279e575060008213155b156101005761198c8383612c85565b8015610d7057835160208501516000916127cc916119869085906114cd565b90506127da84848484612c9b565b5050505050565b6127e9613b6a565b610318826001612ddd565b60006103d66ec097ce7bc90715b34b9f10000000006119868560000151856114cd90919063ffffffff16565b60006305f5e10083604001511415612839575080610318565b6103d66305f5e1006119868560400151856114cd90919063ffffffff16565b6000612862612e77565b83516001600160a01b031660009081526020829052604090205490915080831161288d5750506126e2565b6000612898866120c7565b90506000816001600160a01b031663b5e4da23866040518263ffffffff1660e01b81526004016128c891906142ea565b60006040518083038186803b1580156128e057600080fd5b505afa1580156128f4573d6000803e3d6000fd5b505050506040513d6000823e601f3d908101601f1916820160405261291c9190810190613df3565b9050600061292a8783612e84565b90506129368482610dba565b86111561294257600080fd5b5050505050505050565b80156129de577382af49447d8a07e3bd95bd0d56f35241523fbab16001600160a01b031663d0e30db0836040518263ffffffff1660e01b81526004016000604051808303818588803b1580156129a157600080fd5b505af11580156129b5573d6000803e3d6000fd5b50505050506129d97382af49447d8a07e3bd95bd0d56f35241523fbab1848461266b565b6126e2565b6040516001600160a01b0384169083156108fc029084906000818181858888f19350505050158015610d70573d6000803e3d6000fd5b600080612a21848661308d565b9050612a2d83826130bd565b9150612a3a878784612b76565b612a458683836130df565b8351612a5190866131cd565b5095945050505050565b600080610318601f610ff9565b600080600080600085602001511115612ab557612ab2612a998660c00151876020015161191d90919063ffffffff16565b60e08701516040880151612aac9161191d565b90612b02565b90505b6000612ac087613227565b9050612acc818361325a565b94508115612ae357612ae08186600161330d565b93505b60208601511561263557612af78583613385565b925050509250925092565b60006103d661222d84633b9aca0061191d565b600064ffffffffff821115610e5857600080fd5b60006001600160581b03821115610e5857600080fd5b6000811215612b4d57600080fd5b6000612b5b610fee8461339e565b9050612b678183611ea5565b90506126e2610fee84836133f7565b6000612b8061101f565b61ffff8416600090815260209190915260409081902054905163ad1c095d60e01b81526001600160a01b039091169150819063ad1c095d90612bc8908790869060040161414b565b600060405180830381600087803b158015612be257600080fd5b505af1158015612942573d6000803e3d6000fd5b600061181482611cb16301da9c008188611cab89670de0b6b3a764000061191d565b6000612c22613b99565b3d8015612c365760208114612c3f57600080fd5b60019250612c4a565b60206000833e815192505b50816109a2576040805162461bcd60e51b8152602060048201526005602482015264045524332360dc1b604482015290519081900360640190fd5b8082038281131560008312151461031857600080fd5b6000612ca56120ba565b61ffff8516600090815260209190915260409020805490915064ffffffffff164214612cd057600080fd5b8054600160f81b900460ff16612ce557600080fd5b6001810154600090612d00906001600160581b031685611ea5565b8254909150600090612d2290600160281b90046001600160581b031685611ea5565b905081600919128015612d355750600082125b15612d3f57600091505b80600919128015612d505750600081125b15612d59575060005b612d6a612d658361126b565b612b29565b6001840180546affffffffffffffffffffff19166001600160581b0392909216919091179055612d9c612d658261126b565b83546001600160581b0391909116600160281b026fffffffffffffffffffffff000000000019909116178355612dd48787868861346b565b50505050505050565b612de5613b6a565b6000612def61357f565b6000858152602082815260408083208715158452825291829020825160a08101845281546001600160a01b038116825260ff600160a01b82048116151594830194909452600160b01b81048416600a0a9482019490945293945092916060830191600160a81b909104166005811115612e6457fe5b8152600060209091015295945050505050565b6000806103186026610ff9565b6000805b8251811015613086576000838281518110612e9f57fe5b60200260200101519050600081606001516001600160a01b03166370a08231306040518263ffffffff1660e01b8152600401612edb9190614114565b60206040518083038186803b158015612ef357600080fd5b505afa158015612f07573d6000803e3d6000fd5b505050506040513d601f19601f82011682018060405250810190612f2b91906140d9565b90506000612f39873061358c565b905060005b835151811015612f8a57612f8284600001518281518110612f5b57fe5b6020026020010151600086602001518481518110612f7557fe5b6020026020010151613636565b600101612f3e565b506000612f97883061358c565b90506000612fa58284612201565b90508085604001511115612fb857600080fd5b60608501516040516370a0823160e01b81526000916001600160a01b0316906370a0823190612feb903090600401614114565b60206040518083038186803b15801561300357600080fd5b505afa158015613017573d6000803e3d6000fd5b505050506040513d601f19601f8201168201806040525081019061303b91906140d9565b90508481111561304a57600080fd5b6130598660600151868361377b565b6130638883610dba565b97506130748a60000151858561377b565b505060019094019350612e8892505050565b5092915050565b60006305f5e100836040015114156130a6575080610318565b60408301516103d690611986846305f5e1006114cd565b81516000906103d690611986846ec097ce7bc90715b34b9f10000000006114cd565b60006130e96120ba565b61ffff8516600090815260209190915260409020805490915064ffffffffff16421461311457600080fd5b805460009061313390600160281b90046001600160581b031685611ea5565b825490915060009061315590600160801b90046001600160581b031685611ea5565b9050613163612d658261126b565b83546001600160581b0391909116600160801b026affffffffffffffffffffff60801b19909116178355613199612d658361126b565b83546001600160581b0391909116600160281b026fffffffffffffffffffffff000000000019909116179092555050505050565b60006131d7612e77565b6001600160a01b0384166000908152602082905260409020549091506132056132008285611ea5565b61126b565b6001600160a01b03909416600090815260209290925250604090209190915550565b61322f613bb7565b60006132396137f8565b61ffff84166000908152602091909152604081205491506103d69082613805565b60008083608001511161326c57600080fd5b633b9aca0082111561327d57600080fd5b8251821161329c578251604084015161198c9190611cb190859061191d565b826020015182116132d457604083015183516020850151606086015161198c93926122d89281900391611cb19188039085900361191d565b6103d683606001516122d88560200151633b9aca0003611cb187606001518860800151038860200151880361191d90919063ffffffff16565b60008061332c6064611cb18760e001518761191d90919063ffffffff16565b90508460a00151811015613341575060a08401515b8460c00151811115613354575060c08401515b821561336b576133648482610dba565b91506104b8565b83811161337a5780840361063f565b600095945050505050565b60006103d6613394848461191d565b633b9aca0061263f565b6000806133a9611944565b6001600160a01b03851660009081526020828152604080832061ffff8816845290915281208054600160a81b9004600a90810b900b94509192508312156133ef57600080fd5b505092915050565b600081121561340557600080fd5b600061340f611944565b6001600160a01b03851660009081526020828152604080832061ffff88168452909152902090915061344083611dcb565b8154600a9190910b6001600160581b0316600160a81b026001600160a81b0390911617905550505050565b600061347561101f565b61ffff8516600090815260209190915260408120546001600160a01b0316915061349d613924565b61ffff8616600090815260209190915260409081902054905163ad1c095d60e01b81526001600160a01b039091169150819063ad1c095d906134e5908990879060040161414b565b600060405180830381600087803b1580156134ff57600080fd5b505af1158015613513573d6000803e3d6000fd5b505060405163ad1c095d60e01b81526001600160a01b038516925063ad1c095d9150613545908990889060040161414b565b600060405180830381600087803b15801561355f57600080fd5b505af1158015613573573d6000803e3d6000fd5b50505050505050505050565b6000806103186007610ff9565b60006003836060015160058111156135a057fe5b14156135b757506001600160a01b03811631610318565b82516040516370a0823160e01b81526001600160a01b03909116906370a08231906135e6908590600401614114565b60206040518083038186803b1580156135fe57600080fd5b505afa158015613612573d6000803e3d6000fd5b505050506040513d601f19601f8201168201806040525081019061198c91906140d9565b600080846001600160a01b031684846040518082805190602001908083835b602083106136745780518252601f199092019160209182019101613655565b6001836020036101000a03801982511681845116808217855250505050505090500191505060006040518083038185875af1925050503d80600081146136d6576040519150601f19603f3d011682016040523d82523d6000602084013e6136db565b606091505b5091509150816136ea82613931565b906137735760405162461bcd60e51b81526004018080602001828103825283818151815260200191508051906020019080838360005b83811015613738578181015183820152602001613720565b50505050905090810190601f1680156137655780820380516001836020036101000a031916815260200191505b509250505060405180910390fd5b505050505050565b6000613785612e77565b6001600160a01b038516600090815260208290526040902054909150838111156137ae57600080fd5b60006137c56137bc86610e42565b61271586610e42565b90506137d46132008383611ea5565b6001600160a01b039096166000908152602093909352505060409020929092555050565b600080610318601b610ff9565b61380d613bb7565b6064633b9aca008360ff86166020811061382357fe5b1a028161382c57fe5b0481526064633b9aca008360ff86166001016020811061384857fe5b1a028161385157fe5b048160200181815250506138768260028560ff16016020811061387057fe5b1a613a38565b60808201819052610100908360ff86166003016020811061389357fe5b1a028161389c57fe5b0460408201526080810151610100908360ff8616600401602081106138bd57fe5b1a02816138c657fe5b0460608201526207a1208260ff8516600501602081106138e257fe5b1a0260a0820152622625a08260ff8516600601602081106138ff57fe5b1a0260c08201528160ff84166007016020811061391857fe5b1a60e082015292915050565b6000806103186022610ff9565b6060604482511015613967575060408051808201909152600d81526c14da5b195b9d0814995d995c9d609a1b6020820152610922565b600482018051909260240190602081101561398157600080fd5b81019080805160405193929190846401000000008211156139a157600080fd5b9083019060208201858111156139b657600080fd5b82516401000000008111828201881017156139d057600080fd5b82525081516020918201929091019080838360005b838110156139fd5781810151838201526020016139e5565b50505050905090810190601f168015613a2a5780820380516001836020036101000a031916815260200191505b506040525050509050919050565b60008160ff16609610613a535760ff8216622625a002610318565b5060951960ff919091160162e4e1c00263165a0bc00190565b604051806101400160405280600061ffff1681526020016000815260200160008152602001600081526020016000815260200160008152602001600081526020016000815260200160008152602001613ac3613afd565b905290565b6040805160c081018252600080825260208201819052918101829052606081018290526080810182905260a081019190915290565b60405180606001604052806000815260200160008152602001600081525090565b6040518061012001604052806000815260200160008152602001600081526020016000815260200160008152602001600081526020016000815260200160008152602001600081525090565b6040805160a0810182526000808252602082018190529181018290529060608201908152602001600081525090565b60405180602001604052806001906020820280368337509192915050565b60405180610100016040528060008152602001600081526020016000815260200160008152602001600081526020016000815260200160008152602001600081525090565b80516109228161434b565b600082601f830112613c17578081fd5b81516020613c2c613c278361432d565b614309565b8281528181019085830183850287018401881015613c48578586fd5b855b85811015613c6f578151613c5d8161434b565b84529284019290840190600101613c4a565b5090979650505050505050565b6000601f8381840112613c8d578182fd5b82516020613c9d613c278361432d565b82815281810190868301865b85811015613d4257815189018a603f820112613cc3578889fd5b8581015167ffffffffffffffff811115613cd957fe5b613cea818a01601f19168801614309565b81815260408d81848601011115613cff578b8cfd5b8b5b83811015613d1c578481018201518382018b01528901613d01565b83811115613d2c578c8a85850101525b5050865250509284019290840190600101613ca9565b509098975050505050505050565b8051801515811461092257600080fd5b80516001600160701b03198116811461092257600080fd5b80516001600160f81b03198116811461092257600080fd5b805161092281614363565b805160ff8116811461092257600080fd5b600060208284031215613dbd578081fd5b81356103d68161434b565b60008060408385031215613dda578081fd5b8235613de58161434b565b946020939093013593505050565b60006020808385031215613e05578182fd5b825167ffffffffffffffff80821115613e1c578384fd5b818501915085601f830112613e2f578384fd5b8151613e3d613c278261432d565b81815284810190848601875b84811015613ef257815187016080818d03601f19011215613e6857898afd5b60408051608081018181108a82111715613e7e57fe5b8252828b015189811115613e90578c8dfd5b613e9e8f8d83870101613c07565b8252508183015189811115613eb1578c8dfd5b613ebf8f8d83870101613c7c565b8c83015250606083015182820152613ed960808401613bfc565b6060820152865250509287019290870190600101613e49565b50909998505050505050505050565b600060c08284031215613f12578081fd5b60405160c0810181811067ffffffffffffffff82111715613f2f57fe5b604052825164ffffffffff81168114613f46578283fd5b8152613f5460208401613d78565b6020820152613f6560408401613d9b565b6040820152613f7660608401613d90565b6060820152613f8760808401613d60565b6080820152613f9860a08401613d50565b60a08201529392505050565b60008060408385031215613fb6578182fd5b8235613fc181614363565b91506020830135613fd18161434b565b809150509250929050565b600080600060608486031215613ff0578081fd5b8335613ffb81614363565b9250602084013561400b8161434b565b9150604084013561401b8161434b565b809150509250925092565b600080600080600060a0868803121561403d578283fd5b853561404881614363565b945060208601356140588161434b565b935060408601356140688161434b565b925060608601356140788161434b565b949793965091946080013592915050565b6000806000806080858703121561409e578182fd5b84356140a981614363565b935060208501356140b98161434b565b925060408501356140c98161434b565b9396929550929360600135925050565b6000602082840312156140ea578081fd5b5051919050565b60008060408385031215614103578182fd5b505080516020909101519092909150565b6001600160a01b0391909116815260200190565b6001600160a01b0393841681529183166020830152909116604082015260600190565b6001600160a01b03929092168252602082015260400190565b600060e08201905060018060a01b038416825264ffffffffff835116602083015260ff60f81b602084015116604083015260ff604084015116606083015261ffff60608401511660808301526001600160701b031960808401511660a083015260a0830151151560c08301529392505050565b6001600160a01b0396909616865261ffff94909416602086015260408501929092526060840152608083015260a082015260c00190565b6001600160a01b0394909416845260208401929092526040830152606082015260800190565b901515815260200190565b602080825260169082015275496e73756666696369656e7420616c6c6f77616e636560501b604082015260600190565b602080825260149082015273496e73756666696369656e742062616c616e636560601b604082015260600190565b6020808252600f908201526e4e6f205072696d6520426f72726f7760881b604082015260600190565b6020808252600a90820152692732b390372a37b5b2b760b11b604082015260600190565b90815260200190565b9283526020830191909152604082015260600190565b60405181810167ffffffffffffffff8111828210171561432557fe5b604052919050565b600067ffffffffffffffff82111561434157fe5b5060209081020190565b6001600160a01b038116811461436057600080fd5b50565b61ffff8116811461436057600080fdfea264697066735822122076fd92e2347c88d77527343c394d345b5ee593c4265ee1da10c63db1e10ef9f164736f6c63430007060033","bytecodeSha1":"15832527dcc593d892f4314f9a44a75dc5dc16cb","compiler":{"evm_version":"istanbul","optimizer":{"enabled":true,"runs":200},"version":"0.7.6+commit.7338295f"},"contractName":"nTokenAction","deployedBytecode":"608060405234801561001057600080fd5b50600436106101005760003560e01c80638246336711610097578063c4c96dae11610066578063c4c96dae146101f8578063ca2cc3611461020f578063daca07a614610222578063e571164e1461022a57610100565b806382463367146101c2578063884a7092146101ca5780638da5cb5b146101dd578063a78dbfff146101e557610100565b806341075971116100d357806341075971146101695780636a96e86f146101895780637c735c1c1461019c5780637db31ab9146101af57610100565b806318ae40d71461010557806324a3d6221461012e5780632e0ecba814610143578063309c00a614610156575b600080fd5b610118610113366004614089565b61023d565b6040516101259190614234565b60405180910390f35b6101366102a4565b6040516101259190614114565b610118610151366004613dc8565b6102b3565b610118610164366004614089565b61031e565b61017c610177366004613fdc565b610397565b60405161012591906142ea565b61017c610197366004613dac565b6103dd565b6101186101aa366004614089565b6103f1565b61017c6101bd366004613fdc565b61044a565b6101366104c0565b6101186101d8366004614026565b6104cf565b610136610648565b61017c6101f3366004613fa4565b61065f565b610200610680565b60405161012593929190614128565b61011861021d366004614089565b6106c4565b61017c610740565b610118610238366004614026565b610800565b60008061024d8661ffff166108fa565b9050336001600160a01b0382161461026457600080fd5b836001600160a01b0316856001600160a01b0316141561028357600080fd5b61028c84610927565b61029a8686868660016109a6565b9695505050505050565b6002546001600160a01b031681565b3360008181526004602090815260408083206001600160a01b038716808552925280832085905551919290917f8c5be1e5ebec7d5bd14f71427d1e84f3dd0314c0f7b2291e5b200ac8c7c3b9259061030c9086906142ea565b60405180910390a35060015b92915050565b60008061032e8661ffff166108fa565b9050336001600160a01b0382161461034557600080fd5b6001600160a01b03851661035857600080fd5b50506001600160a01b03928316600090815260056020908152604080832094909516825292835283812061ffff95909516815293909152912055600190565b60006103a1610bd1565b6001600160a01b03808516600090815260209283526040808220928616825291835281812061ffff8816825290925290205490505b9392505050565b60006103e882610bde565b50909392505050565b6000806103fd86610c3a565b9050336001600160a01b0382161461041457600080fd5b836001600160a01b0316856001600160a01b0316141561043357600080fd5b61043c84610927565b61029a8686868660006109a6565b6001600160a01b038083166000908152600560209081526040808320938516835292815282822061ffff87168352905290812054801561048b5790506103d6565b50506001600160a01b038083166000908152600460209081526040808320938516835292905220546103d6565b509392505050565b6001546001600160a01b031681565b6000806104df8761ffff166108fa565b9050336001600160a01b038216146104f657600080fd5b836001600160a01b0316856001600160a01b0316141561051557600080fd5b61051e84610927565b6001600160a01b038086166000908152600560209081526040808320938a16835292815282822061ffff8b1683529052205480156105ba578381101561057f5760405162461bcd60e51b81526004016105769061423f565b60405180910390fd5b6001600160a01b038087166000908152600560209081526040808320938b16835292815282822061ffff8c168352905220848203905561062c565b506001600160a01b038086166000908152600460209081526040808320938a1683529290522054838110156106015760405162461bcd60e51b81526004016105769061423f565b6001600160a01b038087166000908152600460209081526040808320938b1683529290522084820390555b61063a8887878760016109a6565b925050505b95945050505050565b60005464010000000090046001600160a01b031681565b60008061066d838542610c67565b505091505060008112156103d657600080fd5b73__$841fddfe32830bb6dbc3a02d7f16c53722$__73__$b21a4dc043b77aa57922ad9143a3cb040e$__73__$f6541b0d362a0c7d99a2a29cd3d373d61b$__909192565b6000806106d086610c3a565b9050336001600160a01b038216146106e757600080fd5b6001600160a01b0385166106fa57600080fd5b82610703610bd1565b6001600160a01b0396871660009081526020918252604080822097909816815295815286862061ffff989098168652969096525050502055600190565b6000338161074d82610c9a565b90506000610759613a6c565b61076283610d48565b1561079457606083015161077a908290869086610d55565b600081604001511315610794576107918185610d76565b91505b60808301515b6001600160701b03198116156107f65760f081901c613fff166107bf83878388610d55565b6000836040015113156107e3576107e06107d98488610d76565b8590610dba565b93505b5060101b6001600160801b03191661079a565b5090935050505090565b60008061080c87610c3a565b9050336001600160a01b0382161461082357600080fd5b836001600160a01b0316856001600160a01b0316141561084257600080fd5b61084b84610927565b6000610855610bd1565b6001600160a01b03808816600090815260209283526040808220928b16825291835281812061ffff8c1682529092529020549050838110156108a95760405162461bcd60e51b81526004016105769061423f565b8381036108b4610bd1565b6001600160a01b03808916600090815260209283526040808220928c16825291835281812061ffff8d16825290925281209190915561063a9089908890889088906109a6565b600080610905610dcc565b600084815260209190915260409020546001600160a01b03169150505b919050565b6001600160a01b03811661093a57600080fd5b6001600160a01b038116610fee141561095257600080fd5b6001600160a01b0381166105e7141561096a57600080fd5b6001600160a01b03811630141561098057600080fd5b600061098b82610dd9565b5050505061ffff169050806000146109a257600080fd5b5050565b6000806109b284610e42565b905060006109bf87610c9a565b90506109ca81610e5c565b15610a5b576040516337b5fc2160e11b815273__$f6541b0d362a0c7d99a2a29cd3d373d61b$__90636f6bf84290610a08908a908590600401614164565b60c06040518083038186803b158015610a2057600080fd5b505af4158015610a34573d6000803e3d6000fd5b505050506040513d601f19601f82011682018060405250810190610a589190613f01565b90505b610a63613a6c565b610a6f81898b85610d55565b8415610a8857610a7e83610eb0565b60a0820152610adf565b6000816020015113610aac5760405162461bcd60e51b81526004016105769061426f565b8060200151831315610ad05760405162461bcd60e51b81526004016105769061426f565b610ad983610eb0565b60608201525b610aea818984610ebe565b610af48289610edc565b6000610aff88610c9a565b9050610b09613a6c565b610b15818a8d85610d55565b8615610b275760a08101859052610b2f565b606081018590525b610b3a818a84610ebe565b610b44828a610edc565b60208401516001600160f81b03191615610bc057604051636ccc642f60e01b815273__$841fddfe32830bb6dbc3a02d7f16c53722$__90636ccc642f90610b8f908d90600401614114565b60006040518083038186803b158015610ba757600080fd5b505af4158015610bbb573d6000803e3d6000fd5b505050505b5060019a9950505050505050505050565b6000806103186023610ff9565b600080600080610bec611012565b6001600160a01b0395909516600090815260209590955250506040909220546001600160601b03811693600160601b82046001600160801b03169350600160e01b90910463ffffffff169150565b6000610c4461101f565b61ffff90921660009081526020929092525060409020546001600160a01b031690565b6000806000806000610c79878761102c565b509050610c878888836110ea565b9450945094509450505b93509350935093565b610ca2613ac8565b6000610cac6111a4565b6001600160a01b03841660009081526020918252604090819020815160c081018352905464ffffffffff811682526001600160f81b0319600160281b820460f81b169382019390935260ff600160301b840481169282019290925261ffff600160381b84041660608201526001600160701b0319600160481b840460701b166080820152600160d81b90920416151560a0820152915050919050565b6060015161ffff16151590565b610d5e826111b1565b610120850152610d70848484846111c3565b50505050565b6000610d8f8383610d8a866040015161126b565b61127a565b9050610318828460000151856020015186604001518760e00151886101000151896101200151611367565b6000828201838110156103d657600080fd5b6000806103186003610ff9565b600080600080600080610dea6114a2565b6001600160a01b039097166000908152602097909752505060409094205461ffff81169563ffffffff62010000830481169650600160301b830416945060ff600160501b8304169350600160581b90910460d81b9150565b60006001600160ff1b03821115610e5857600080fd5b5090565b600042610e6883610d48565b15610e8957610e76816114af565b835164ffffffffff161091506109229050565b825164ffffffffff1615801590610ea85750825164ffffffffff168110155b915050610922565b6000610318600019836114cd565b608083015115610ecd57600080fd5b610d708383836000600161151b565b6000610ee66111a4565b6001600160a01b03831660008181526020838152604080832088518154938a01518a84015160608c015160808d015160a08e015164ffffffffff1990981664ffffffffff9095169490941765ff00000000001916600160281b60f89490941c939093029290921766ff0000000000001916600160301b60ff909216919091021768ffff000000000000001916600160381b61ffff90921691909102177affffffffffffffffffffffffffffffffffff0000000000000000001916600160481b60709290921c919091021760ff60d81b1916600160d81b93151593909302929092179091555192935090917f6bd4b121bca854a191536a2ca891155c42ee2fb23f307fb34e8bc65cfcb5412e9190a2505050565b6000620f424082602681111561100b57fe5b0192915050565b6000806103186011610ff9565b6000806103186021610ff9565b611034613afd565b61103c613b1e565b611045846116d1565b9050828160000151101561107657600061105e85611799565b905061106c8583838761181c565b5091506110839050565b8051831461108357600080fd5b60405180606001604052806110b16110ac8460a001518560c0015161191d90919063ffffffff16565b610e42565b81526020016110d46110ac8460a001518560e0015161191d90919063ffffffff16565b8152602001826060015181525091509250929050565b60008060008060006110fa611944565b6001600160a01b03891660009081526020828152604080832061ffff8c168452909152902080546001600160501b0381169650600160501b900463ffffffff169450909150831561116757805461116090600160701b900466ffffffffffffff16611951565b925061117c565b8054600160701b900466ffffffffffffff1692505b8054611197908890600160a81b9004600a90810b900b61195f565b9550505093509350935093565b6000806103186001610ff9565b6111b9613afd565b6103188242611993565b8161ffff1660001080156111dd5750613fff61ffff831611155b6111e657600080fd5b61ffff82168085526111f9908290611a54565b156112285761120e83838661012001516110ea565b61010088015260e087015260408601526020850152611246565b6000602085018190526040850181905260e085018190526101008501525b50506000606083018190526080830181905260a0830181905260c09092019190915250565b600080821215610e5857600080fd5b8251600090429082906112909061ffff166108fa565b905060006112a3828860c0015185611ade565b90506112b187838388611bc1565b935060006112be83611cee565b90506001600160a01b0381161561134c57806001600160a01b0316631d684dd2888a600001516112f18c6040015161126b565b8a8d60c001518b6040518763ffffffff1660e01b8152600401611319969594939291906141d7565b600060405180830381600087803b15801561133357600080fd5b505af1158015611347573d6000803e3d6000fd5b505050505b841561135c5761135c8786611d60565b505050509392505050565b6000611371611944565b6001600160a01b03891660009081526020828152604080832061ffff8c1684529091529020909150846113d95766ffffffffffffff8411156113b257600080fd5b805466ffffffffffffff60701b1916600160701b66ffffffffffffff8616021781556113f3565b8054600160501b900463ffffffff1685146113f357600080fd5b6113fc85611d7f565b815463ffffffff91909116600160501b0263ffffffff60501b1990911617815561142d6114288761126b565b611d92565b815469ffffffffffffffffffff19166001600160501b0391909116178082556114739061146e9085908c908c90600160a81b9004600a90810b900b8c611da8565b611dcb565b8154600a9190910b6001600160581b0316600160a81b026001600160a81b039091161790555050505050505050565b6000806103186002610ff9565b6000620151808210156114c157600080fd5b50620151808106900390565b8181026000198314156114fd578115806114ef5750828282816114ec57fe5b05145b6114f857600080fd5b610318565b82158061151257508183828161150f57fe5b05145b61031857600080fd5b60008061153886886000015189608001518a610120015188611dfd565b9150600061155788608001518960600151611ea590919063ffffffff16565b90508380156115665750600081125b80156115815750602088015160009061157f9083611ea5565b125b156115a7578560a001516115a75760405162461bcd60e51b81526004016105769061429d565b80156115c65760208801516115bc9082611ea5565b6020890152600191505b60a08801511515806115db575060c088015115155b1561164457600061160b8960c001516116058b60a001518c60400151611ea590919063ffffffff16565b90611ea5565b9050600081121561162e5760405162461bcd60e51b8152600401610576906142c6565b61163989898361127a565b506040890152600191505b8115611673576116738789600001518a602001518b604001518c60e001518d61010001518e6101200151611367565b875160208901516116a09161ffff1690151580611693575060408a015115155b889190600160fe1b611ebb565b6000886020015112156116c657602086018051600160f91b176001600160f81b03191690525b505095945050505050565b6116d9613b1e565b60006116e36120ba565b61ffff93841660009081526020918252604090819020805464ffffffffff81168652600160281b81046001600160581b03908116948701949094526001820154841692860192909252600160d81b820463ffffffff166060860152600160801b9091049091166080840152600201546001600160501b0380821660a0850152600160501b8204811660c0850152600160a01b82041660e0840152600160f01b900460ff1661012c02909216610100820152919050565b6000806117a5836120c7565b6001600160a01b031663a77c05b86040518163ffffffff1660e01b8152600401604080518083038186803b1580156117dc57600080fd5b505afa1580156117f0573d6000803e3d6000fd5b505050506040513d601f19601f8201168201806040525081019061181491906140f1565b949350505050565b611824613b1e565b60008060006118348886896120f7565b60c08b019290925260e08a0192909252602089015191935091506118589083610dba565b60208801526080870151600090156118865760808801516118839061187d8982612201565b90612216565b90505b6118a661189b670de0b6b3a764000083610dba565b60a08a015190612233565b60a0890152506080870186905260006118bd612250565b61ffff8a1660009081526020919091526040902054885163ffffffff600160a01b90920482169250611908916118f79085908590610dba16565b8a606001518b61010001518a61225d565b60608901525050928552509294909350915050565b60008261192c57506000610318565b8282028284828161193957fe5b04146103d657600080fd5b6000806103186006610ff9565b600881901c60ff9091161b90565b600080821261196f575080610318565b8251602084015161198c91906119869085906114cd565b906122eb565b9050610318565b61199b613afd565b60006119a6846116d1565b905082816000015110156119e5576000806119c08661231c565b90506119ce8684838861181c565b90935091506119de868385612375565b50506119f2565b805183146119f257600080fd5b6040518060600160405280611a1b6110ac8460a001518560c0015161191d90919063ffffffff16565b8152602001611a3e6110ac8460a001518560e0015161191d90919063ffffffff16565b8152602001826060015181525091505092915050565b60008115801590611a675750613fff8211155b611a7057600080fd5b6080830151606084015161ffff16831415611a8f576001915050610318565b6001600160701b0319811615611ad45760f081901c613fff1683811415611ac15750600160fe1b908116149050610318565b5060101b6001600160801b031916611a8f565b5060009392505050565b6000806000611aed86856125a9565b50915091506000611afc611012565b6001600160a01b0388166000908152602082905260408120919250611b218589611ea5565b905080600013158015611b3a57506001600160601b0381105b611b4357600080fd5b81546bffffffffffffffffffffffff19166001600160601b038216176fffffffffffffffffffffffffffffffff60601b1916600160601b6001600160801b0386160217825563ffffffff8710611b9857600080fd5b50805463ffffffff8716600160e01b026001600160e01b03909116179055509150509392505050565b60e084015160009015611c825773__$b21a4dc043b77aa57922ad9143a3cb040e$__63e0c01a7285611bf6886040015161126b565b8860e001518961010001516040518563ffffffff1660e01b8152600401611c20949392919061420e565b60206040518083038186803b158015611c3857600080fd5b505af4158015611c4c573d6000803e3d6000fd5b505050506040513d601f19601f82011682018060405250810190611c7091906140d9565b600060e0870181905261010087015290505b611cc4611cbd866101000151611cb7670de0b6b3a7640000611cb188611cab8c6040015161126b565b9061191d565b9061263f565b90612201565b8290610dba565b9050611cdc670de0b6b3a7640000611cb1848661191d565b85610100018181525050949350505050565b600080611cf96114a2565b6001600160a01b0384166000908152602082905260409020805491925090600160f81b900460ff1615611d5557611d2e61265e565b6001600160a01b038086166000908152602092909252604090912054169250610922915050565b600092505050610922565b6109a273019be259bc299f3f653688c7655c87f998bc7bc1838361266b565b600063ffffffff821115610e5857600080fd5b60006001600160501b03821115610e5857600080fd5b6000611db486836126e7565b905061063f868686611dc68786612726565b6127ad565b60006a7fffffffffffffffffffff198212801590611df457506a7fffffffffffffffffffff8213155b610e5857600080fd5b600083611e0c5750600061063f565b60008412611e1957600080fd5b6000611e288661ffff166127e1565b9050611e3d81611e3886886127f4565b612820565b91506000611e4a83610eb0565b9050611e57878383612858565b600382606001516005811115611e6957fe5b1415611e7f57611e7a88828661294c565b611e8c565b8151611e8c90898361266b565b611e998888858589612a14565b50505095945050505050565b8181018281121560008312151461031857600080fd5b826000108015611ecd5750613fff8311155b611ed657600080fd5b818015611eea575082846060015161ffff16145b15611ef457610d70565b6080840151600090815b6001600160701b031982161561206f5760f082901c613fff168681148015611f235750855b15611f5b57506080870180516001600160f01b0319861660109093029290921c919091176001600160701b031916905250610d709050565b8681148015611f68575085155b15611fbd576001600160f01b03198516199290921691600360fe1b8316611f9b576010836001600160701b031916901b92505b506001600160701b031991821660109091021c91909117166080850152610d70565b8681118015611fc95750855b15612023576080888101516001600160f01b031960f08a901b88178116601086021c9690961795911b1615611ffd57600080fd5b506001600160701b03199182166001919091016010021c91909117166080850152610d70565b8681118015612030575085155b1561203e5750505050610d70565b506001600160f01b0319821660108281029190911c93909317929190911b6001600160801b03191690600101611efe565b8461207c57505050610d70565b6009811061208957600080fd5b6001600160f01b031960f087901b85171660109091021c919091176001600160701b03191660808601525050505050565b600080610318601d610ff9565b6000806120d2612a5b565b61ffff939093166000908152602093909352505060409020546001600160a01b031690565b60008060008060008061210a8988612a68565b8951909550919350915060009061213190612126908b90612201565b633b9aca009061191d565b905061216b6121606301da9c00612148858561191d565b8161214f57fe5b670de0b6b3a7640000919004610dba565b60e08a015190612233565b965061218d6121826301da9c00612148878561191d565b60c08a015190612233565b9550818314156121a4575060009350610c91915050565b60006121c66121bb6301da9c00612148878661191d565b60e08b015190612233565b905060006121d48983612201565b90506121f188611cb1838d6040015161191d90919063ffffffff16565b9650505050505093509350935093565b60008282111561221057600080fd5b50900390565b60006103d661222d84670de0b6b3a764000061191d565b8361263f565b60006103d6612242848461191d565b670de0b6b3a764000061263f565b6000806103186025610ff9565b600080831161226b57600080fd5b8186111561227a57508361063f565b60006122868388612201565b905083811115612299578591505061063f565b60006122a58286612b02565b905060006122b7633b9aca0083612201565b90506122de633b9aca00611cb16122ce8a8561191d565b6122d88c8761191d565b90610dba565b9998505050505050505050565b6000816000191480156123015750600160ff1b83145b1561230b57600080fd5b81838161231457fe5b059392505050565b600080612328836120c7565b6001600160a01b031663ef81f2166040518163ffffffff1660e01b81526004016040805180830381600087803b15801561236157600080fd5b505af11580156117f0573d6000803e3d6000fd5b600061237f6120ba565b60008561ffff16815260200190815260200160002090506123a38260000151612b15565b815464ffffffffff191664ffffffffff9190911617815560a08201516123c890611d92565b60028201805469ffffffffffffffffffff19166001600160501b039290921691909117905560c08201516123fb90611d92565b81600201600a6101000a8154816001600160501b0302191690836001600160501b031602179055506124308260e00151611d92565b8160020160146101000a8154816001600160501b0302191690836001600160501b031602179055506124658260200151612b29565b81546001600160581b0391909116600160281b026fffffffffffffffffffffff000000000019909116178155604082015161249f90612b29565b6001820180546affffffffffffffffffffff19166001600160581b039290921691909117905560808201516124d390612b29565b81546001600160581b0391909116600160801b026affffffffffffffffffffff60801b19909116178155606082015161250b90611d7f565b815463ffffffff91909116600160d81b0263ffffffff60d81b19909116178155821561255757600061253c84610e42565b90506125488582612b3f565b612555610fee8683612b76565b505b8361ffff167fef25641e225e493886510ca1ad6584fa7b442b9fea820a29d1de3ce27d270fd28360a001518460c001518560e0015160405161259b939291906142f3565b60405180910390a250505050565b60008060006125b785610bde565b9194509250905080841180156125cd5750600081115b80156125d95750600083115b156126385760006125e986610dd9565b505050915050600061261461260b6305f5e1008461191d90919063ffffffff16565b84880387612bf6565b90506126208482610dba565b93506001600160801b03841061263557600080fd5b50505b9250925092565b600080821161264d57600080fd5b81838161265657fe5b049392505050565b6000806103186012610ff9565b826001600160a01b031663a9059cbb83836040518363ffffffff1660e01b815260040180836001600160a01b0316815260200182815260200192505050600060405180830381600087803b1580156126c257600080fd5b505af11580156126d6573d6000803e3d6000fd5b505050506126e2612c18565b505050565b6000808212156127205761271b600161271585602001516119868760000151876114cd90919063ffffffff16565b90612c85565b6103d6565b50919050565b600081831480612743575060008312158015612743575060008212155b1561275057506000610318565b600083131580156127615750816000125b1561276d575081610318565b6000821315801561277e5750826000125b1561278c5761198c82610eb0565b6000831315801561279e575060008213155b156101005761198c8383612c85565b8015610d7057835160208501516000916127cc916119869085906114cd565b90506127da84848484612c9b565b5050505050565b6127e9613b6a565b610318826001612ddd565b60006103d66ec097ce7bc90715b34b9f10000000006119868560000151856114cd90919063ffffffff16565b60006305f5e10083604001511415612839575080610318565b6103d66305f5e1006119868560400151856114cd90919063ffffffff16565b6000612862612e77565b83516001600160a01b031660009081526020829052604090205490915080831161288d5750506126e2565b6000612898866120c7565b90506000816001600160a01b031663b5e4da23866040518263ffffffff1660e01b81526004016128c891906142ea565b60006040518083038186803b1580156128e057600080fd5b505afa1580156128f4573d6000803e3d6000fd5b505050506040513d6000823e601f3d908101601f1916820160405261291c9190810190613df3565b9050600061292a8783612e84565b90506129368482610dba565b86111561294257600080fd5b5050505050505050565b80156129de577382af49447d8a07e3bd95bd0d56f35241523fbab16001600160a01b031663d0e30db0836040518263ffffffff1660e01b81526004016000604051808303818588803b1580156129a157600080fd5b505af11580156129b5573d6000803e3d6000fd5b50505050506129d97382af49447d8a07e3bd95bd0d56f35241523fbab1848461266b565b6126e2565b6040516001600160a01b0384169083156108fc029084906000818181858888f19350505050158015610d70573d6000803e3d6000fd5b600080612a21848661308d565b9050612a2d83826130bd565b9150612a3a878784612b76565b612a458683836130df565b8351612a5190866131cd565b5095945050505050565b600080610318601f610ff9565b600080600080600085602001511115612ab557612ab2612a998660c00151876020015161191d90919063ffffffff16565b60e08701516040880151612aac9161191d565b90612b02565b90505b6000612ac087613227565b9050612acc818361325a565b94508115612ae357612ae08186600161330d565b93505b60208601511561263557612af78583613385565b925050509250925092565b60006103d661222d84633b9aca0061191d565b600064ffffffffff821115610e5857600080fd5b60006001600160581b03821115610e5857600080fd5b6000811215612b4d57600080fd5b6000612b5b610fee8461339e565b9050612b678183611ea5565b90506126e2610fee84836133f7565b6000612b8061101f565b61ffff8416600090815260209190915260409081902054905163ad1c095d60e01b81526001600160a01b039091169150819063ad1c095d90612bc8908790869060040161414b565b600060405180830381600087803b158015612be257600080fd5b505af1158015612942573d6000803e3d6000fd5b600061181482611cb16301da9c008188611cab89670de0b6b3a764000061191d565b6000612c22613b99565b3d8015612c365760208114612c3f57600080fd5b60019250612c4a565b60206000833e815192505b50816109a2576040805162461bcd60e51b8152602060048201526005602482015264045524332360dc1b604482015290519081900360640190fd5b8082038281131560008312151461031857600080fd5b6000612ca56120ba565b61ffff8516600090815260209190915260409020805490915064ffffffffff164214612cd057600080fd5b8054600160f81b900460ff16612ce557600080fd5b6001810154600090612d00906001600160581b031685611ea5565b8254909150600090612d2290600160281b90046001600160581b031685611ea5565b905081600919128015612d355750600082125b15612d3f57600091505b80600919128015612d505750600081125b15612d59575060005b612d6a612d658361126b565b612b29565b6001840180546affffffffffffffffffffff19166001600160581b0392909216919091179055612d9c612d658261126b565b83546001600160581b0391909116600160281b026fffffffffffffffffffffff000000000019909116178355612dd48787868861346b565b50505050505050565b612de5613b6a565b6000612def61357f565b6000858152602082815260408083208715158452825291829020825160a08101845281546001600160a01b038116825260ff600160a01b82048116151594830194909452600160b01b81048416600a0a9482019490945293945092916060830191600160a81b909104166005811115612e6457fe5b8152600060209091015295945050505050565b6000806103186026610ff9565b6000805b8251811015613086576000838281518110612e9f57fe5b60200260200101519050600081606001516001600160a01b03166370a08231306040518263ffffffff1660e01b8152600401612edb9190614114565b60206040518083038186803b158015612ef357600080fd5b505afa158015612f07573d6000803e3d6000fd5b505050506040513d601f19601f82011682018060405250810190612f2b91906140d9565b90506000612f39873061358c565b905060005b835151811015612f8a57612f8284600001518281518110612f5b57fe5b6020026020010151600086602001518481518110612f7557fe5b6020026020010151613636565b600101612f3e565b506000612f97883061358c565b90506000612fa58284612201565b90508085604001511115612fb857600080fd5b60608501516040516370a0823160e01b81526000916001600160a01b0316906370a0823190612feb903090600401614114565b60206040518083038186803b15801561300357600080fd5b505afa158015613017573d6000803e3d6000fd5b505050506040513d601f19601f8201168201806040525081019061303b91906140d9565b90508481111561304a57600080fd5b6130598660600151868361377b565b6130638883610dba565b97506130748a60000151858561377b565b505060019094019350612e8892505050565b5092915050565b60006305f5e100836040015114156130a6575080610318565b60408301516103d690611986846305f5e1006114cd565b81516000906103d690611986846ec097ce7bc90715b34b9f10000000006114cd565b60006130e96120ba565b61ffff8516600090815260209190915260409020805490915064ffffffffff16421461311457600080fd5b805460009061313390600160281b90046001600160581b031685611ea5565b825490915060009061315590600160801b90046001600160581b031685611ea5565b9050613163612d658261126b565b83546001600160581b0391909116600160801b026affffffffffffffffffffff60801b19909116178355613199612d658361126b565b83546001600160581b0391909116600160281b026fffffffffffffffffffffff000000000019909116179092555050505050565b60006131d7612e77565b6001600160a01b0384166000908152602082905260409020549091506132056132008285611ea5565b61126b565b6001600160a01b03909416600090815260209290925250604090209190915550565b61322f613bb7565b60006132396137f8565b61ffff84166000908152602091909152604081205491506103d69082613805565b60008083608001511161326c57600080fd5b633b9aca0082111561327d57600080fd5b8251821161329c578251604084015161198c9190611cb190859061191d565b826020015182116132d457604083015183516020850151606086015161198c93926122d89281900391611cb19188039085900361191d565b6103d683606001516122d88560200151633b9aca0003611cb187606001518860800151038860200151880361191d90919063ffffffff16565b60008061332c6064611cb18760e001518761191d90919063ffffffff16565b90508460a00151811015613341575060a08401515b8460c00151811115613354575060c08401515b821561336b576133648482610dba565b91506104b8565b83811161337a5780840361063f565b600095945050505050565b60006103d6613394848461191d565b633b9aca0061263f565b6000806133a9611944565b6001600160a01b03851660009081526020828152604080832061ffff8816845290915281208054600160a81b9004600a90810b900b94509192508312156133ef57600080fd5b505092915050565b600081121561340557600080fd5b600061340f611944565b6001600160a01b03851660009081526020828152604080832061ffff88168452909152902090915061344083611dcb565b8154600a9190910b6001600160581b0316600160a81b026001600160a81b0390911617905550505050565b600061347561101f565b61ffff8516600090815260209190915260408120546001600160a01b0316915061349d613924565b61ffff8616600090815260209190915260409081902054905163ad1c095d60e01b81526001600160a01b039091169150819063ad1c095d906134e5908990879060040161414b565b600060405180830381600087803b1580156134ff57600080fd5b505af1158015613513573d6000803e3d6000fd5b505060405163ad1c095d60e01b81526001600160a01b038516925063ad1c095d9150613545908990889060040161414b565b600060405180830381600087803b15801561355f57600080fd5b505af1158015613573573d6000803e3d6000fd5b50505050505050505050565b6000806103186007610ff9565b60006003836060015160058111156135a057fe5b14156135b757506001600160a01b03811631610318565b82516040516370a0823160e01b81526001600160a01b03909116906370a08231906135e6908590600401614114565b60206040518083038186803b1580156135fe57600080fd5b505afa158015613612573d6000803e3d6000fd5b505050506040513d601f19601f8201168201806040525081019061198c91906140d9565b600080846001600160a01b031684846040518082805190602001908083835b602083106136745780518252601f199092019160209182019101613655565b6001836020036101000a03801982511681845116808217855250505050505090500191505060006040518083038185875af1925050503d80600081146136d6576040519150601f19603f3d011682016040523d82523d6000602084013e6136db565b606091505b5091509150816136ea82613931565b906137735760405162461bcd60e51b81526004018080602001828103825283818151815260200191508051906020019080838360005b83811015613738578181015183820152602001613720565b50505050905090810190601f1680156137655780820380516001836020036101000a031916815260200191505b509250505060405180910390fd5b505050505050565b6000613785612e77565b6001600160a01b038516600090815260208290526040902054909150838111156137ae57600080fd5b60006137c56137bc86610e42565b61271586610e42565b90506137d46132008383611ea5565b6001600160a01b039096166000908152602093909352505060409020929092555050565b600080610318601b610ff9565b61380d613bb7565b6064633b9aca008360ff86166020811061382357fe5b1a028161382c57fe5b0481526064633b9aca008360ff86166001016020811061384857fe5b1a028161385157fe5b048160200181815250506138768260028560ff16016020811061387057fe5b1a613a38565b60808201819052610100908360ff86166003016020811061389357fe5b1a028161389c57fe5b0460408201526080810151610100908360ff8616600401602081106138bd57fe5b1a02816138c657fe5b0460608201526207a1208260ff8516600501602081106138e257fe5b1a0260a0820152622625a08260ff8516600601602081106138ff57fe5b1a0260c08201528160ff84166007016020811061391857fe5b1a60e082015292915050565b6000806103186022610ff9565b6060604482511015613967575060408051808201909152600d81526c14da5b195b9d0814995d995c9d609a1b6020820152610922565b600482018051909260240190602081101561398157600080fd5b81019080805160405193929190846401000000008211156139a157600080fd5b9083019060208201858111156139b657600080fd5b82516401000000008111828201881017156139d057600080fd5b82525081516020918201929091019080838360005b838110156139fd5781810151838201526020016139e5565b50505050905090810190601f168015613a2a5780820380516001836020036101000a031916815260200191505b506040525050509050919050565b60008160ff16609610613a535760ff8216622625a002610318565b5060951960ff919091160162e4e1c00263165a0bc00190565b604051806101400160405280600061ffff1681526020016000815260200160008152602001600081526020016000815260200160008152602001600081526020016000815260200160008152602001613ac3613afd565b905290565b6040805160c081018252600080825260208201819052918101829052606081018290526080810182905260a081019190915290565b60405180606001604052806000815260200160008152602001600081525090565b6040518061012001604052806000815260200160008152602001600081526020016000815260200160008152602001600081526020016000815260200160008152602001600081525090565b6040805160a0810182526000808252602082018190529181018290529060608201908152602001600081525090565b60405180602001604052806001906020820280368337509192915050565b60405180610100016040528060008152602001600081526020016000815260200160008152602001600081526020016000815260200160008152602001600081525090565b80516109228161434b565b600082601f830112613c17578081fd5b81516020613c2c613c278361432d565b614309565b8281528181019085830183850287018401881015613c48578586fd5b855b85811015613c6f578151613c5d8161434b565b84529284019290840190600101613c4a565b5090979650505050505050565b6000601f8381840112613c8d578182fd5b82516020613c9d613c278361432d565b82815281810190868301865b85811015613d4257815189018a603f820112613cc3578889fd5b8581015167ffffffffffffffff811115613cd957fe5b613cea818a01601f19168801614309565b81815260408d81848601011115613cff578b8cfd5b8b5b83811015613d1c578481018201518382018b01528901613d01565b83811115613d2c578c8a85850101525b5050865250509284019290840190600101613ca9565b509098975050505050505050565b8051801515811461092257600080fd5b80516001600160701b03198116811461092257600080fd5b80516001600160f81b03198116811461092257600080fd5b805161092281614363565b805160ff8116811461092257600080fd5b600060208284031215613dbd578081fd5b81356103d68161434b565b60008060408385031215613dda578081fd5b8235613de58161434b565b946020939093013593505050565b60006020808385031215613e05578182fd5b825167ffffffffffffffff80821115613e1c578384fd5b818501915085601f830112613e2f578384fd5b8151613e3d613c278261432d565b81815284810190848601875b84811015613ef257815187016080818d03601f19011215613e6857898afd5b60408051608081018181108a82111715613e7e57fe5b8252828b015189811115613e90578c8dfd5b613e9e8f8d83870101613c07565b8252508183015189811115613eb1578c8dfd5b613ebf8f8d83870101613c7c565b8c83015250606083015182820152613ed960808401613bfc565b6060820152865250509287019290870190600101613e49565b50909998505050505050505050565b600060c08284031215613f12578081fd5b60405160c0810181811067ffffffffffffffff82111715613f2f57fe5b604052825164ffffffffff81168114613f46578283fd5b8152613f5460208401613d78565b6020820152613f6560408401613d9b565b6040820152613f7660608401613d90565b6060820152613f8760808401613d60565b6080820152613f9860a08401613d50565b60a08201529392505050565b60008060408385031215613fb6578182fd5b8235613fc181614363565b91506020830135613fd18161434b565b809150509250929050565b600080600060608486031215613ff0578081fd5b8335613ffb81614363565b9250602084013561400b8161434b565b9150604084013561401b8161434b565b809150509250925092565b600080600080600060a0868803121561403d578283fd5b853561404881614363565b945060208601356140588161434b565b935060408601356140688161434b565b925060608601356140788161434b565b949793965091946080013592915050565b6000806000806080858703121561409e578182fd5b84356140a981614363565b935060208501356140b98161434b565b925060408501356140c98161434b565b9396929550929360600135925050565b6000602082840312156140ea578081fd5b5051919050565b60008060408385031215614103578182fd5b505080516020909101519092909150565b6001600160a01b0391909116815260200190565b6001600160a01b0393841681529183166020830152909116604082015260600190565b6001600160a01b03929092168252602082015260400190565b600060e08201905060018060a01b038416825264ffffffffff835116602083015260ff60f81b602084015116604083015260ff604084015116606083015261ffff60608401511660808301526001600160701b031960808401511660a083015260a0830151151560c08301529392505050565b6001600160a01b0396909616865261ffff94909416602086015260408501929092526060840152608083015260a082015260c00190565b6001600160a01b0394909416845260208401929092526040830152606082015260800190565b901515815260200190565b602080825260169082015275496e73756666696369656e7420616c6c6f77616e636560501b604082015260600190565b602080825260149082015273496e73756666696369656e742062616c616e636560601b604082015260600190565b6020808252600f908201526e4e6f205072696d6520426f72726f7760881b604082015260600190565b6020808252600a90820152692732b390372a37b5b2b760b11b604082015260600190565b90815260200190565b9283526020830191909152604082015260600190565b60405181810167ffffffffffffffff8111828210171561432557fe5b604052919050565b600067ffffffffffffffff82111561434157fe5b5060209081020190565b6001600160a01b038116811461436057600080fd5b50565b61ffff8116811461436057600080fdfea264697066735822122076fd92e2347c88d77527343c394d345b5ee593c4265ee1da10c63db1e10ef9f164736f6c63430007060033","language":"Solidity","natspec":{"kind":"dev","methods":{"getLibInfo()":{"notice":"Get a list of deployed library addresses (sorted by library name)"},"nTokenBalanceOf(uint16,address)":{"notice":"Get the number of tokens held by the `account`","params":{"account":"The address of the account to get the balance of"},"returns":{"_0":"The number of tokens held"}},"nTokenClaimIncentives()":{"details":"auth:msg.sender","notice":"Claims incentives accrued on all nToken balances and transfers them to the msg.sender","returns":{"_0":"Total amount of incentives claimed"}},"nTokenTotalSupply(address)":{"notice":"Total number of tokens in circulation","params":{"nTokenAddress":"The address of the nToken"},"returns":{"totalSupply":"number of tokens held"}},"nTokenTransfer(uint16,address,address,uint256)":{"details":"auth:nTokenProxy","notice":"Transfer `amount` tokens from `msg.sender` to `dst`","params":{"amount":"The number of tokens to transfer","from":"The address of the destination account","to":"The address of the destination account"},"returns":{"_0":"Whether or not the transfer succeeded"}},"nTokenTransferAllowance(uint16,address,address)":{"notice":"Get the number of tokens `spender` is approved to spend on behalf of `account`","params":{"currencyId":"Currency id of the nToken account","spender":"The address of the account spending the funds","tokenHolder":"The address of the account holding the funds"},"returns":{"_0":"The number of tokens approved"}},"nTokenTransferApprove(uint16,address,address,uint256)":{"details":"auth:nTokenProxy","notice":"Approve `spender` to transfer up to `amount` from `src`","params":{"amount":"The number of tokens that are approved (2^256-1 means infinite)","currencyId":"Currency id of the nToken account","spender":"The address of the account which may transfer tokens","tokenHolder":"The address of the account holding the funds"},"returns":{"_0":"Whether or not the approval succeeded"}},"nTokenTransferApproveAll(address,uint256)":{"details":"emit:Approvalauth:msg.sender","notice":"Will approve all nToken transfers to the specific sender. This is used for simplifying UX, a user can approve all token transfers to an external exchange or protocol in a single txn. This must be called directly on the Notional contract, not available via the ERC20 proxy.","params":{"amount":"The number of tokens that are approved","spender":"The address of the account which may transfer tokens"},"returns":{"_0":"Whether or not the approval succeeded"}},"nTokenTransferFrom(uint16,address,address,address,uint256)":{"details":"auth:nTokenProxy","notice":"Transfer `amount` tokens from `src` to `dst`","params":{"amount":"The number of tokens to transfer","currencyId":"Currency id of the nToken","from":"The address of the source account","spender":"The address of the original caller","to":"The address of the destination account"},"returns":{"_0":"Whether or not the transfer succeeded"}}},"version":1},"opcodes":"PUSH1 0x80 PUSH1 0x40 MSTORE CALLVALUE DUP1 ISZERO PUSH2 0x10 JUMPI PUSH1 0x0 DUP1 REVERT JUMPDEST POP PUSH1 0x4 CALLDATASIZE LT PUSH2 0x100 JUMPI PUSH1 0x0 CALLDATALOAD PUSH1 0xE0 SHR DUP1 PUSH4 0x82463367 GT PUSH2 0x97 JUMPI DUP1 PUSH4 0xC4C96DAE GT PUSH2 0x66 JUMPI DUP1 PUSH4 0xC4C96DAE EQ PUSH2 0x1F8 JUMPI DUP1 PUSH4 0xCA2CC361 EQ PUSH2 0x20F JUMPI DUP1 PUSH4 0xDACA07A6 EQ PUSH2 0x222 JUMPI DUP1 PUSH4 0xE571164E EQ PUSH2 0x22A JUMPI PUSH2 0x100 JUMP JUMPDEST DUP1 PUSH4 0x82463367 EQ PUSH2 0x1C2 JUMPI DUP1 PUSH4 0x884A7092 EQ PUSH2 0x1CA JUMPI DUP1 PUSH4 0x8DA5CB5B EQ PUSH2 0x1DD JUMPI DUP1 PUSH4 0xA78DBFFF EQ PUSH2 0x1E5 JUMPI PUSH2 0x100 JUMP JUMPDEST DUP1 PUSH4 0x41075971 GT PUSH2 0xD3 JUMPI DUP1 PUSH4 0x41075971 EQ PUSH2 0x169 JUMPI DUP1 PUSH4 0x6A96E86F EQ PUSH2 0x189 JUMPI DUP1 PUSH4 0x7C735C1C EQ PUSH2 0x19C JUMPI DUP1 PUSH4 0x7DB31AB9 EQ PUSH2 0x1AF JUMPI PUSH2 0x100 JUMP JUMPDEST DUP1 PUSH4 0x18AE40D7 EQ PUSH2 0x105 JUMPI DUP1 PUSH4 0x24A3D622 EQ PUSH2 0x12E JUMPI DUP1 PUSH4 0x2E0ECBA8 EQ PUSH2 0x143 JUMPI DUP1 PUSH4 0x309C00A6 EQ PUSH2 0x156 JUMPI JUMPDEST PUSH1 0x0 DUP1 REVERT JUMPDEST PUSH2 0x118 PUSH2 0x113 CALLDATASIZE PUSH1 0x4 PUSH2 0x4089 JUMP JUMPDEST PUSH2 0x23D JUMP JUMPDEST PUSH1 0x40 MLOAD PUSH2 0x125 SWAP2 SWAP1 PUSH2 0x4234 JUMP JUMPDEST PUSH1 0x40 MLOAD DUP1 SWAP2 SUB SWAP1 RETURN JUMPDEST PUSH2 0x136 PUSH2 0x2A4 JUMP JUMPDEST PUSH1 0x40 MLOAD PUSH2 0x125 SWAP2 SWAP1 PUSH2 0x4114 JUMP JUMPDEST PUSH2 0x118 PUSH2 0x151 CALLDATASIZE PUSH1 0x4 PUSH2 0x3DC8 JUMP JUMPDEST PUSH2 0x2B3 JUMP JUMPDEST PUSH2 0x118 PUSH2 0x164 CALLDATASIZE PUSH1 0x4 PUSH2 0x4089 JUMP JUMPDEST PUSH2 0x31E JUMP JUMPDEST PUSH2 0x17C PUSH2 0x177 CALLDATASIZE PUSH1 0x4 PUSH2 0x3FDC JUMP JUMPDEST PUSH2 0x397 JUMP JUMPDEST PUSH1 0x40 MLOAD PUSH2 0x125 SWAP2 SWAP1 PUSH2 0x42EA JUMP JUMPDEST PUSH2 0x17C PUSH2 0x197 CALLDATASIZE PUSH1 0x4 PUSH2 0x3DAC JUMP JUMPDEST PUSH2 0x3DD JUMP JUMPDEST PUSH2 0x118 PUSH2 0x1AA CALLDATASIZE PUSH1 0x4 PUSH2 0x4089 JUMP JUMPDEST PUSH2 0x3F1 JUMP JUMPDEST PUSH2 0x17C PUSH2 0x1BD CALLDATASIZE PUSH1 0x4 PUSH2 0x3FDC JUMP JUMPDEST PUSH2 0x44A JUMP JUMPDEST PUSH2 0x136 PUSH2 0x4C0 JUMP JUMPDEST PUSH2 0x118 PUSH2 0x1D8 CALLDATASIZE PUSH1 0x4 PUSH2 0x4026 JUMP JUMPDEST PUSH2 0x4CF JUMP JUMPDEST PUSH2 0x136 PUSH2 0x648 JUMP JUMPDEST PUSH2 0x17C PUSH2 0x1F3 CALLDATASIZE PUSH1 0x4 PUSH2 0x3FA4 JUMP JUMPDEST PUSH2 0x65F JUMP JUMPDEST PUSH2 0x200 PUSH2 0x680 JUMP JUMPDEST PUSH1 0x40 MLOAD PUSH2 0x125 SWAP4 SWAP3 SWAP2 SWAP1 PUSH2 0x4128 JUMP JUMPDEST PUSH2 0x118 PUSH2 0x21D CALLDATASIZE PUSH1 0x4 PUSH2 0x4089 JUMP JUMPDEST PUSH2 0x6C4 JUMP JUMPDEST PUSH2 0x17C PUSH2 0x740 JUMP JUMPDEST PUSH2 0x118 PUSH2 0x238 CALLDATASIZE PUSH1 0x4 PUSH2 0x4026 JUMP JUMPDEST PUSH2 0x800 JUMP JUMPDEST PUSH1 0x0 DUP1 PUSH2 0x24D DUP7 PUSH2 0xFFFF AND PUSH2 0x8FA JUMP JUMPDEST SWAP1 POP CALLER PUSH1 0x1 PUSH1 0x1 PUSH1 0xA0 SHL SUB DUP3 AND EQ PUSH2 0x264 JUMPI PUSH1 0x0 DUP1 REVERT JUMPDEST DUP4 PUSH1 0x1 PUSH1 0x1 PUSH1 0xA0 SHL SUB AND DUP6 PUSH1 0x1 PUSH1 0x1 PUSH1 0xA0 SHL SUB AND EQ ISZERO PUSH2 0x283 JUMPI PUSH1 0x0 DUP1 REVERT JUMPDEST PUSH2 0x28C DUP5 PUSH2 0x927 JUMP JUMPDEST PUSH2 0x29A DUP7 DUP7 DUP7 DUP7 PUSH1 0x1 PUSH2 0x9A6 JUMP JUMPDEST SWAP7 SWAP6 POP POP POP POP POP POP JUMP JUMPDEST PUSH1 0x2 SLOAD PUSH1 0x1 PUSH1 0x1 PUSH1 0xA0 SHL SUB AND DUP2 JUMP JUMPDEST CALLER PUSH1 0x0 DUP2 DUP2 MSTORE PUSH1 0x4 PUSH1 0x20 SWAP1 DUP2 MSTORE PUSH1 0x40 DUP1 DUP4 KECCAK256 PUSH1 0x1 PUSH1 0x1 PUSH1 0xA0 SHL SUB DUP8 AND DUP1 DUP6 MSTORE SWAP3 MSTORE DUP1 DUP4 KECCAK256 DUP6 SWAP1 SSTORE MLOAD SWAP2 SWAP3 SWAP1 SWAP2 PUSH32 0x8C5BE1E5EBEC7D5BD14F71427D1E84F3DD0314C0F7B2291E5B200AC8C7C3B925 SWAP1 PUSH2 0x30C SWAP1 DUP7 SWAP1 PUSH2 0x42EA JUMP JUMPDEST PUSH1 0x40 MLOAD DUP1 SWAP2 SUB SWAP1 LOG3 POP PUSH1 0x1 JUMPDEST SWAP3 SWAP2 POP POP JUMP JUMPDEST PUSH1 0x0 DUP1 PUSH2 0x32E DUP7 PUSH2 0xFFFF AND PUSH2 0x8FA JUMP JUMPDEST SWAP1 POP CALLER PUSH1 0x1 PUSH1 0x1 PUSH1 0xA0 SHL SUB DUP3 AND EQ PUSH2 0x345 JUMPI PUSH1 0x0 DUP1 REVERT JUMPDEST PUSH1 0x1 PUSH1 0x1 PUSH1 0xA0 SHL SUB DUP6 AND PUSH2 0x358 JUMPI PUSH1 0x0 DUP1 REVERT JUMPDEST POP POP PUSH1 0x1 PUSH1 0x1 PUSH1 0xA0 SHL SUB SWAP3 DUP4 AND PUSH1 0x0 SWAP1 DUP2 MSTORE PUSH1 0x5 PUSH1 0x20 SWAP1 DUP2 MSTORE PUSH1 0x40 DUP1 DUP4 KECCAK256 SWAP5 SWAP1 SWAP6 AND DUP3 MSTORE SWAP3 DUP4 MSTORE DUP4 DUP2 KECCAK256 PUSH2 0xFFFF SWAP6 SWAP1 SWAP6 AND DUP2 MSTORE SWAP4 SWAP1 SWAP2 MSTORE SWAP2 KECCAK256 SSTORE PUSH1 0x1 SWAP1 JUMP JUMPDEST PUSH1 0x0 PUSH2 0x3A1 PUSH2 0xBD1 JUMP JUMPDEST PUSH1 0x1 PUSH1 0x1 PUSH1 0xA0 SHL SUB DUP1 DUP6 AND PUSH1 0x0 SWAP1 DUP2 MSTORE PUSH1 0x20 SWAP3 DUP4 MSTORE PUSH1 0x40 DUP1 DUP3 KECCAK256 SWAP3 DUP7 AND DUP3 MSTORE SWAP2 DUP4 MSTORE DUP2 DUP2 KECCAK256 PUSH2 0xFFFF DUP9 AND DUP3 MSTORE SWAP1 SWAP3 MSTORE SWAP1 KECCAK256 SLOAD SWAP1 POP JUMPDEST SWAP4 SWAP3 POP POP POP JUMP JUMPDEST PUSH1 0x0 PUSH2 0x3E8 DUP3 PUSH2 0xBDE JUMP JUMPDEST POP SWAP1 SWAP4 SWAP3 POP POP POP JUMP JUMPDEST PUSH1 0x0 DUP1 PUSH2 0x3FD DUP7 PUSH2 0xC3A JUMP JUMPDEST SWAP1 POP CALLER PUSH1 0x1 PUSH1 0x1 PUSH1 0xA0 SHL SUB DUP3 AND EQ PUSH2 0x414 JUMPI PUSH1 0x0 DUP1 REVERT JUMPDEST DUP4 PUSH1 0x1 PUSH1 0x1 PUSH1 0xA0 SHL SUB AND DUP6 PUSH1 0x1 PUSH1 0x1 PUSH1 0xA0 SHL SUB AND EQ ISZERO PUSH2 0x433 JUMPI PUSH1 0x0 DUP1 REVERT JUMPDEST PUSH2 0x43C DUP5 PUSH2 0x927 JUMP JUMPDEST PUSH2 0x29A DUP7 DUP7 DUP7 DUP7 PUSH1 0x0 PUSH2 0x9A6 JUMP JUMPDEST PUSH1 0x1 PUSH1 0x1 PUSH1 0xA0 SHL SUB DUP1 DUP4 AND PUSH1 0x0 SWAP1 DUP2 MSTORE PUSH1 0x5 PUSH1 0x20 SWAP1 DUP2 MSTORE PUSH1 0x40 DUP1 DUP4 KECCAK256 SWAP4 DUP6 AND DUP4 MSTORE SWAP3 DUP2 MSTORE DUP3 DUP3 KECCAK256 PUSH2 0xFFFF DUP8 AND DUP4 MSTORE SWAP1 MSTORE SWAP1 DUP2 KECCAK256 SLOAD DUP1 ISZERO PUSH2 0x48B JUMPI SWAP1 POP PUSH2 0x3D6 JUMP JUMPDEST POP POP PUSH1 0x1 PUSH1 0x1 PUSH1 0xA0 SHL SUB DUP1 DUP4 AND PUSH1 0x0 SWAP1 DUP2 MSTORE PUSH1 0x4 PUSH1 0x20 SWAP1 DUP2 MSTORE PUSH1 0x40 DUP1 DUP4 KECCAK256 SWAP4 DUP6 AND DUP4 MSTORE SWAP3 SWAP1 MSTORE KECCAK256 SLOAD PUSH2 0x3D6 JUMP JUMPDEST POP SWAP4 SWAP3 POP POP POP JUMP JUMPDEST PUSH1 0x1 SLOAD PUSH1 0x1 PUSH1 0x1 PUSH1 0xA0 SHL SUB AND DUP2 JUMP JUMPDEST PUSH1 0x0 DUP1 PUSH2 0x4DF DUP8 PUSH2 0xFFFF AND PUSH2 0x8FA JUMP JUMPDEST SWAP1 POP CALLER PUSH1 0x1 PUSH1 0x1 PUSH1 0xA0 SHL SUB DUP3 AND EQ PUSH2 0x4F6 JUMPI PUSH1 0x0 DUP1 REVERT JUMPDEST DUP4 PUSH1 0x1 PUSH1 0x1 PUSH1 0xA0 SHL SUB AND DUP6 PUSH1 0x1 PUSH1 0x1 PUSH1 0xA0 SHL SUB AND EQ ISZERO PUSH2 0x515 JUMPI PUSH1 0x0 DUP1 REVERT JUMPDEST PUSH2 0x51E DUP5 PUSH2 0x927 JUMP JUMPDEST PUSH1 0x1 PUSH1 0x1 PUSH1 0xA0 SHL SUB DUP1 DUP7 AND PUSH1 0x0 SWAP1 DUP2 MSTORE PUSH1 0x5 PUSH1 0x20 SWAP1 DUP2 MSTORE PUSH1 0x40 DUP1 DUP4 KECCAK256 SWAP4 DUP11 AND DUP4 MSTORE SWAP3 DUP2 MSTORE DUP3 DUP3 KECCAK256 PUSH2 0xFFFF DUP12 AND DUP4 MSTORE SWAP1 MSTORE KECCAK256 SLOAD DUP1 ISZERO PUSH2 0x5BA JUMPI DUP4 DUP2 LT ISZERO PUSH2 0x57F JUMPI PUSH1 0x40 MLOAD PUSH3 0x461BCD PUSH1 0xE5 SHL DUP2 MSTORE PUSH1 0x4 ADD PUSH2 0x576 SWAP1 PUSH2 0x423F JUMP JUMPDEST PUSH1 0x40 MLOAD DUP1 SWAP2 SUB SWAP1 REVERT JUMPDEST PUSH1 0x1 PUSH1 0x1 PUSH1 0xA0 SHL SUB DUP1 DUP8 AND PUSH1 0x0 SWAP1 DUP2 MSTORE PUSH1 0x5 PUSH1 0x20 SWAP1 DUP2 MSTORE PUSH1 0x40 DUP1 DUP4 KECCAK256 SWAP4 DUP12 AND DUP4 MSTORE SWAP3 DUP2 MSTORE DUP3 DUP3 KECCAK256 PUSH2 0xFFFF DUP13 AND DUP4 MSTORE SWAP1 MSTORE KECCAK256 DUP5 DUP3 SUB SWAP1 SSTORE PUSH2 0x62C JUMP JUMPDEST POP PUSH1 0x1 PUSH1 0x1 PUSH1 0xA0 SHL SUB DUP1 DUP7 AND PUSH1 0x0 SWAP1 DUP2 MSTORE PUSH1 0x4 PUSH1 0x20 SWAP1 DUP2 MSTORE PUSH1 0x40 DUP1 DUP4 KECCAK256 SWAP4 DUP11 AND DUP4 MSTORE SWAP3 SWAP1 MSTORE KECCAK256 SLOAD DUP4 DUP2 LT ISZERO PUSH2 0x601 JUMPI PUSH1 0x40 MLOAD PUSH3 0x461BCD PUSH1 0xE5 SHL DUP2 MSTORE PUSH1 0x4 ADD PUSH2 0x576 SWAP1 PUSH2 0x423F JUMP JUMPDEST PUSH1 0x1 PUSH1 0x1 PUSH1 0xA0 SHL SUB DUP1 DUP8 AND PUSH1 0x0 SWAP1 DUP2 MSTORE PUSH1 0x4 PUSH1 0x20 SWAP1 DUP2 MSTORE PUSH1 0x40 DUP1 DUP4 KECCAK256 SWAP4 DUP12 AND DUP4 MSTORE SWAP3 SWAP1 MSTORE KECCAK256 DUP5 DUP3 SUB SWAP1 SSTORE JUMPDEST PUSH2 0x63A DUP9 DUP8 DUP8 DUP8 PUSH1 0x1 PUSH2 0x9A6 JUMP JUMPDEST SWAP3 POP POP POP JUMPDEST SWAP6 SWAP5 POP POP POP POP POP JUMP JUMPDEST PUSH1 0x0 SLOAD PUSH5 0x100000000 SWAP1 DIV PUSH1 0x1 PUSH1 0x1 PUSH1 0xA0 SHL SUB AND DUP2 JUMP JUMPDEST PUSH1 0x0 DUP1 PUSH2 0x66D DUP4 DUP6 TIMESTAMP PUSH2 0xC67 JUMP JUMPDEST POP POP SWAP2 POP POP PUSH1 0x0 DUP2 SLT ISZERO PUSH2 0x3D6 JUMPI PUSH1 0x0 DUP1 REVERT JUMPDEST PUSH20 0x0 PUSH20 0x0 PUSH20 0x0 SWAP1 SWAP2 SWAP3 JUMP JUMPDEST PUSH1 0x0 DUP1 PUSH2 0x6D0 DUP7 PUSH2 0xC3A JUMP JUMPDEST SWAP1 POP CALLER PUSH1 0x1 PUSH1 0x1 PUSH1 0xA0 SHL SUB DUP3 AND EQ PUSH2 0x6E7 JUMPI PUSH1 0x0 DUP1 REVERT JUMPDEST PUSH1 0x1 PUSH1 0x1 PUSH1 0xA0 SHL SUB DUP6 AND PUSH2 0x6FA JUMPI PUSH1 0x0 DUP1 REVERT JUMPDEST DUP3 PUSH2 0x703 PUSH2 0xBD1 JUMP JUMPDEST PUSH1 0x1 PUSH1 0x1 PUSH1 0xA0 SHL SUB SWAP7 DUP8 AND PUSH1 0x0 SWAP1 DUP2 MSTORE PUSH1 0x20 SWAP2 DUP3 MSTORE PUSH1 0x40 DUP1 DUP3 KECCAK256 SWAP8 SWAP1 SWAP9 AND DUP2 MSTORE SWAP6 DUP2 MSTORE DUP7 DUP7 KECCAK256 PUSH2 0xFFFF SWAP9 SWAP1 SWAP9 AND DUP7 MSTORE SWAP7 SWAP1 SWAP7 MSTORE POP POP POP KECCAK256 SSTORE PUSH1 0x1 SWAP1 JUMP JUMPDEST PUSH1 0x0 CALLER DUP2 PUSH2 0x74D DUP3 PUSH2 0xC9A JUMP JUMPDEST SWAP1 POP PUSH1 0x0 PUSH2 0x759 PUSH2 0x3A6C JUMP JUMPDEST PUSH2 0x762 DUP4 PUSH2 0xD48 JUMP JUMPDEST ISZERO PUSH2 0x794 JUMPI PUSH1 0x60 DUP4 ADD MLOAD PUSH2 0x77A SWAP1 DUP3 SWAP1 DUP7 SWAP1 DUP7 PUSH2 0xD55 JUMP JUMPDEST PUSH1 0x0 DUP2 PUSH1 0x40 ADD MLOAD SGT ISZERO PUSH2 0x794 JUMPI PUSH2 0x791 DUP2 DUP6 PUSH2 0xD76 JUMP JUMPDEST SWAP2 POP JUMPDEST PUSH1 0x80 DUP4 ADD MLOAD JUMPDEST PUSH1 0x1 PUSH1 0x1 PUSH1 0x70 SHL SUB NOT DUP2 AND ISZERO PUSH2 0x7F6 JUMPI PUSH1 0xF0 DUP2 SWAP1 SHR PUSH2 0x3FFF AND PUSH2 0x7BF DUP4 DUP8 DUP4 DUP9 PUSH2 0xD55 JUMP JUMPDEST PUSH1 0x0 DUP4 PUSH1 0x40 ADD MLOAD SGT ISZERO PUSH2 0x7E3 JUMPI PUSH2 0x7E0 PUSH2 0x7D9 DUP5 DUP9 PUSH2 0xD76 JUMP JUMPDEST DUP6 SWAP1 PUSH2 0xDBA JUMP JUMPDEST SWAP4 POP JUMPDEST POP PUSH1 0x10 SHL PUSH1 0x1 PUSH1 0x1 PUSH1 0x80 SHL SUB NOT AND PUSH2 0x79A JUMP JUMPDEST POP SWAP1 SWAP4 POP POP POP POP SWAP1 JUMP JUMPDEST PUSH1 0x0 DUP1 PUSH2 0x80C DUP8 PUSH2 0xC3A JUMP JUMPDEST SWAP1 POP CALLER PUSH1 0x1 PUSH1 0x1 PUSH1 0xA0 SHL SUB DUP3 AND EQ PUSH2 0x823 JUMPI PUSH1 0x0 DUP1 REVERT JUMPDEST DUP4 PUSH1 0x1 PUSH1 0x1 PUSH1 0xA0 SHL SUB AND DUP6 PUSH1 0x1 PUSH1 0x1 PUSH1 0xA0 SHL SUB AND EQ ISZERO PUSH2 0x842 JUMPI PUSH1 0x0 DUP1 REVERT JUMPDEST PUSH2 0x84B DUP5 PUSH2 0x927 JUMP JUMPDEST PUSH1 0x0 PUSH2 0x855 PUSH2 0xBD1 JUMP JUMPDEST PUSH1 0x1 PUSH1 0x1 PUSH1 0xA0 SHL SUB DUP1 DUP9 AND PUSH1 0x0 SWAP1 DUP2 MSTORE PUSH1 0x20 SWAP3 DUP4 MSTORE PUSH1 0x40 DUP1 DUP3 KECCAK256 SWAP3 DUP12 AND DUP3 MSTORE SWAP2 DUP4 MSTORE DUP2 DUP2 KECCAK256 PUSH2 0xFFFF DUP13 AND DUP3 MSTORE SWAP1 SWAP3 MSTORE SWAP1 KECCAK256 SLOAD SWAP1 POP DUP4 DUP2 LT ISZERO PUSH2 0x8A9 JUMPI PUSH1 0x40 MLOAD PUSH3 0x461BCD PUSH1 0xE5 SHL DUP2 MSTORE PUSH1 0x4 ADD PUSH2 0x576 SWAP1 PUSH2 0x423F JUMP JUMPDEST DUP4 DUP2 SUB PUSH2 0x8B4 PUSH2 0xBD1 JUMP JUMPDEST PUSH1 0x1 PUSH1 0x1 PUSH1 0xA0 SHL SUB DUP1 DUP10 AND PUSH1 0x0 SWAP1 DUP2 MSTORE PUSH1 0x20 SWAP3 DUP4 MSTORE PUSH1 0x40 DUP1 DUP3 KECCAK256 SWAP3 DUP13 AND DUP3 MSTORE SWAP2 DUP4 MSTORE DUP2 DUP2 KECCAK256 PUSH2 0xFFFF DUP14 AND DUP3 MSTORE SWAP1 SWAP3 MSTORE DUP2 KECCAK256 SWAP2 SWAP1 SWAP2 SSTORE PUSH2 0x63A SWAP1 DUP10 SWAP1 DUP9 SWAP1 DUP9 SWAP1 DUP9 SWAP1 PUSH2 0x9A6 JUMP JUMPDEST PUSH1 0x0 DUP1 PUSH2 0x905 PUSH2 0xDCC JUMP JUMPDEST PUSH1 0x0 DUP5 DUP2 MSTORE PUSH1 0x20 SWAP2 SWAP1 SWAP2 MSTORE PUSH1 0x40 SWAP1 KECCAK256 SLOAD PUSH1 0x1 PUSH1 0x1 PUSH1 0xA0 SHL SUB AND SWAP2 POP POP JUMPDEST SWAP2 SWAP1 POP JUMP JUMPDEST PUSH1 0x1 PUSH1 0x1 PUSH1 0xA0 SHL SUB DUP2 AND PUSH2 0x93A JUMPI PUSH1 0x0 DUP1 REVERT JUMPDEST PUSH1 0x1 PUSH1 0x1 PUSH1 0xA0 SHL SUB DUP2 AND PUSH2 0xFEE EQ ISZERO PUSH2 0x952 JUMPI PUSH1 0x0 DUP1 REVERT JUMPDEST PUSH1 0x1 PUSH1 0x1 PUSH1 0xA0 SHL SUB DUP2 AND PUSH2 0x5E7 EQ ISZERO PUSH2 0x96A JUMPI PUSH1 0x0 DUP1 REVERT JUMPDEST PUSH1 0x1 PUSH1 0x1 PUSH1 0xA0 SHL SUB DUP2 AND ADDRESS EQ ISZERO PUSH2 0x980 JUMPI PUSH1 0x0 DUP1 REVERT JUMPDEST PUSH1 0x0 PUSH2 0x98B DUP3 PUSH2 0xDD9 JUMP JUMPDEST POP POP POP POP PUSH2 0xFFFF AND SWAP1 POP DUP1 PUSH1 0x0 EQ PUSH2 0x9A2 JUMPI PUSH1 0x0 DUP1 REVERT JUMPDEST POP POP JUMP JUMPDEST PUSH1 0x0 DUP1 PUSH2 0x9B2 DUP5 PUSH2 0xE42 JUMP JUMPDEST SWAP1 POP PUSH1 0x0 PUSH2 0x9BF DUP8 PUSH2 0xC9A JUMP JUMPDEST SWAP1 POP PUSH2 0x9CA DUP2 PUSH2 0xE5C JUMP JUMPDEST ISZERO PUSH2 0xA5B JUMPI PUSH1 0x40 MLOAD PUSH4 0x37B5FC21 PUSH1 0xE1 SHL DUP2 MSTORE PUSH20 0x0 SWAP1 PUSH4 0x6F6BF842 SWAP1 PUSH2 0xA08 SWAP1 DUP11 SWAP1 DUP6 SWAP1 PUSH1 0x4 ADD PUSH2 0x4164 JUMP JUMPDEST PUSH1 0xC0 PUSH1 0x40 MLOAD DUP1 DUP4 SUB DUP2 DUP7 DUP1 EXTCODESIZE ISZERO DUP1 ISZERO PUSH2 0xA20 JUMPI PUSH1 0x0 DUP1 REVERT JUMPDEST POP GAS DELEGATECALL ISZERO DUP1 ISZERO PUSH2 0xA34 JUMPI RETURNDATASIZE PUSH1 0x0 DUP1 RETURNDATACOPY RETURNDATASIZE PUSH1 0x0 REVERT JUMPDEST POP POP POP POP PUSH1 0x40 MLOAD RETURNDATASIZE PUSH1 0x1F NOT PUSH1 0x1F DUP3 ADD AND DUP3 ADD DUP1 PUSH1 0x40 MSTORE POP DUP2 ADD SWAP1 PUSH2 0xA58 SWAP2 SWAP1 PUSH2 0x3F01 JUMP JUMPDEST SWAP1 POP JUMPDEST PUSH2 0xA63 PUSH2 0x3A6C JUMP JUMPDEST PUSH2 0xA6F DUP2 DUP10 DUP12 DUP6 PUSH2 0xD55 JUMP JUMPDEST DUP5 ISZERO PUSH2 0xA88 JUMPI PUSH2 0xA7E DUP4 PUSH2 0xEB0 JUMP JUMPDEST PUSH1 0xA0 DUP3 ADD MSTORE PUSH2 0xADF JUMP JUMPDEST PUSH1 0x0 DUP2 PUSH1 0x20 ADD MLOAD SGT PUSH2 0xAAC JUMPI PUSH1 0x40 MLOAD PUSH3 0x461BCD PUSH1 0xE5 SHL DUP2 MSTORE PUSH1 0x4 ADD PUSH2 0x576 SWAP1 PUSH2 0x426F JUMP JUMPDEST DUP1 PUSH1 0x20 ADD MLOAD DUP4 SGT ISZERO PUSH2 0xAD0 JUMPI PUSH1 0x40 MLOAD PUSH3 0x461BCD PUSH1 0xE5 SHL DUP2 MSTORE PUSH1 0x4 ADD PUSH2 0x576 SWAP1 PUSH2 0x426F JUMP JUMPDEST PUSH2 0xAD9 DUP4 PUSH2 0xEB0 JUMP JUMPDEST PUSH1 0x60 DUP3 ADD MSTORE JUMPDEST PUSH2 0xAEA DUP2 DUP10 DUP5 PUSH2 0xEBE JUMP JUMPDEST PUSH2 0xAF4 DUP3 DUP10 PUSH2 0xEDC JUMP JUMPDEST PUSH1 0x0 PUSH2 0xAFF DUP9 PUSH2 0xC9A JUMP JUMPDEST SWAP1 POP PUSH2 0xB09 PUSH2 0x3A6C JUMP JUMPDEST PUSH2 0xB15 DUP2 DUP11 DUP14 DUP6 PUSH2 0xD55 JUMP JUMPDEST DUP7 ISZERO PUSH2 0xB27 JUMPI PUSH1 0xA0 DUP2 ADD DUP6 SWAP1 MSTORE PUSH2 0xB2F JUMP JUMPDEST PUSH1 0x60 DUP2 ADD DUP6 SWAP1 MSTORE JUMPDEST PUSH2 0xB3A DUP2 DUP11 DUP5 PUSH2 0xEBE JUMP JUMPDEST PUSH2 0xB44 DUP3 DUP11 PUSH2 0xEDC JUMP JUMPDEST PUSH1 0x20 DUP5 ADD MLOAD PUSH1 0x1 PUSH1 0x1 PUSH1 0xF8 SHL SUB NOT AND ISZERO PUSH2 0xBC0 JUMPI PUSH1 0x40 MLOAD PUSH4 0x6CCC642F PUSH1 0xE0 SHL DUP2 MSTORE PUSH20 0x0 SWAP1 PUSH4 0x6CCC642F SWAP1 PUSH2 0xB8F SWAP1 DUP14 SWAP1 PUSH1 0x4 ADD PUSH2 0x4114 JUMP JUMPDEST PUSH1 0x0 PUSH1 0x40 MLOAD DUP1 DUP4 SUB DUP2 DUP7 DUP1 EXTCODESIZE ISZERO DUP1 ISZERO PUSH2 0xBA7 JUMPI PUSH1 0x0 DUP1 REVERT JUMPDEST POP GAS DELEGATECALL ISZERO DUP1 ISZERO PUSH2 0xBBB JUMPI RETURNDATASIZE PUSH1 0x0 DUP1 RETURNDATACOPY RETURNDATASIZE PUSH1 0x0 REVERT JUMPDEST POP POP POP POP JUMPDEST POP PUSH1 0x1 SWAP11 SWAP10 POP POP POP POP POP POP POP POP POP POP JUMP JUMPDEST PUSH1 0x0 DUP1 PUSH2 0x318 PUSH1 0x23 PUSH2 0xFF9 JUMP JUMPDEST PUSH1 0x0 DUP1 PUSH1 0x0 DUP1 PUSH2 0xBEC PUSH2 0x1012 JUMP JUMPDEST PUSH1 0x1 PUSH1 0x1 PUSH1 0xA0 SHL SUB SWAP6 SWAP1 SWAP6 AND PUSH1 0x0 SWAP1 DUP2 MSTORE PUSH1 0x20 SWAP6 SWAP1 SWAP6 MSTORE POP POP PUSH1 0x40 SWAP1 SWAP3 KECCAK256 SLOAD PUSH1 0x1 PUSH1 0x1 PUSH1 0x60 SHL SUB DUP2 AND SWAP4 PUSH1 0x1 PUSH1 0x60 SHL DUP3 DIV PUSH1 0x1 PUSH1 0x1 PUSH1 0x80 SHL SUB AND SWAP4 POP PUSH1 0x1 PUSH1 0xE0 SHL SWAP1 SWAP2 DIV PUSH4 0xFFFFFFFF AND SWAP2 POP JUMP JUMPDEST PUSH1 0x0 PUSH2 0xC44 PUSH2 0x101F JUMP JUMPDEST PUSH2 0xFFFF SWAP1 SWAP3 AND PUSH1 0x0 SWAP1 DUP2 MSTORE PUSH1 0x20 SWAP3 SWAP1 SWAP3 MSTORE POP PUSH1 0x40 SWAP1 KECCAK256 SLOAD PUSH1 0x1 PUSH1 0x1 PUSH1 0xA0 SHL SUB AND SWAP1 JUMP JUMPDEST PUSH1 0x0 DUP1 PUSH1 0x0 DUP1 PUSH1 0x0 PUSH2 0xC79 DUP8 DUP8 PUSH2 0x102C JUMP JUMPDEST POP SWAP1 POP PUSH2 0xC87 DUP9 DUP9 DUP4 PUSH2 0x10EA JUMP JUMPDEST SWAP5 POP SWAP5 POP SWAP5 POP SWAP5 POP POP JUMPDEST SWAP4 POP SWAP4 POP SWAP4 POP SWAP4 JUMP JUMPDEST PUSH2 0xCA2 PUSH2 0x3AC8 JUMP JUMPDEST PUSH1 0x0 PUSH2 0xCAC PUSH2 0x11A4 JUMP JUMPDEST PUSH1 0x1 PUSH1 0x1 PUSH1 0xA0 SHL SUB DUP5 AND PUSH1 0x0 SWAP1 DUP2 MSTORE PUSH1 0x20 SWAP2 DUP3 MSTORE PUSH1 0x40 SWAP1 DUP2 SWAP1 KECCAK256 DUP2 MLOAD PUSH1 0xC0 DUP2 ADD DUP4 MSTORE SWAP1 SLOAD PUSH5 0xFFFFFFFFFF DUP2 AND DUP3 MSTORE PUSH1 0x1 PUSH1 0x1 PUSH1 0xF8 SHL SUB NOT PUSH1 0x1 PUSH1 0x28 SHL DUP3 DIV PUSH1 0xF8 SHL AND SWAP4 DUP3 ADD SWAP4 SWAP1 SWAP4 MSTORE PUSH1 0xFF PUSH1 0x1 PUSH1 0x30 SHL DUP5 DIV DUP2 AND SWAP3 DUP3 ADD SWAP3 SWAP1 SWAP3 MSTORE PUSH2 0xFFFF PUSH1 0x1 PUSH1 0x38 SHL DUP5 DIV AND PUSH1 0x60 DUP3 ADD MSTORE PUSH1 0x1 PUSH1 0x1 PUSH1 0x70 SHL SUB NOT PUSH1 0x1 PUSH1 0x48 SHL DUP5 DIV PUSH1 0x70 SHL AND PUSH1 0x80 DUP3 ADD MSTORE PUSH1 0x1 PUSH1 0xD8 SHL SWAP1 SWAP3 DIV AND ISZERO ISZERO PUSH1 0xA0 DUP3 ADD MSTORE SWAP2 POP POP SWAP2 SWAP1 POP JUMP JUMPDEST PUSH1 0x60 ADD MLOAD PUSH2 0xFFFF AND ISZERO ISZERO SWAP1 JUMP JUMPDEST PUSH2 0xD5E DUP3 PUSH2 0x11B1 JUMP JUMPDEST PUSH2 0x120 DUP6 ADD MSTORE PUSH2 0xD70 DUP5 DUP5 DUP5 DUP5 PUSH2 0x11C3 JUMP JUMPDEST POP POP POP POP JUMP JUMPDEST PUSH1 0x0 PUSH2 0xD8F DUP4 DUP4 PUSH2 0xD8A DUP7 PUSH1 0x40 ADD MLOAD PUSH2 0x126B JUMP JUMPDEST PUSH2 0x127A JUMP JUMPDEST SWAP1 POP PUSH2 0x318 DUP3 DUP5 PUSH1 0x0 ADD MLOAD DUP6 PUSH1 0x20 ADD MLOAD DUP7 PUSH1 0x40 ADD MLOAD DUP8 PUSH1 0xE0 ADD MLOAD DUP9 PUSH2 0x100 ADD MLOAD DUP10 PUSH2 0x120 ADD MLOAD PUSH2 0x1367 JUMP JUMPDEST PUSH1 0x0 DUP3 DUP3 ADD DUP4 DUP2 LT ISZERO PUSH2 0x3D6 JUMPI PUSH1 0x0 DUP1 REVERT JUMPDEST PUSH1 0x0 DUP1 PUSH2 0x318 PUSH1 0x3 PUSH2 0xFF9 JUMP JUMPDEST PUSH1 0x0 DUP1 PUSH1 0x0 DUP1 PUSH1 0x0 DUP1 PUSH2 0xDEA PUSH2 0x14A2 JUMP JUMPDEST PUSH1 0x1 PUSH1 0x1 PUSH1 0xA0 SHL SUB SWAP1 SWAP8 AND PUSH1 0x0 SWAP1 DUP2 MSTORE PUSH1 0x20 SWAP8 SWAP1 SWAP8 MSTORE POP POP PUSH1 0x40 SWAP1 SWAP5 KECCAK256 SLOAD PUSH2 0xFFFF DUP2 AND SWAP6 PUSH4 0xFFFFFFFF PUSH3 0x10000 DUP4 DIV DUP2 AND SWAP7 POP PUSH1 0x1 PUSH1 0x30 SHL DUP4 DIV AND SWAP5 POP PUSH1 0xFF PUSH1 0x1 PUSH1 0x50 SHL DUP4 DIV AND SWAP4 POP PUSH1 0x1 PUSH1 0x58 SHL SWAP1 SWAP2 DIV PUSH1 0xD8 SHL SWAP2 POP JUMP JUMPDEST PUSH1 0x0 PUSH1 0x1 PUSH1 0x1 PUSH1 0xFF SHL SUB DUP3 GT ISZERO PUSH2 0xE58 JUMPI PUSH1 0x0 DUP1 REVERT JUMPDEST POP SWAP1 JUMP JUMPDEST PUSH1 0x0 TIMESTAMP PUSH2 0xE68 DUP4 PUSH2 0xD48 JUMP JUMPDEST ISZERO PUSH2 0xE89 JUMPI PUSH2 0xE76 DUP2 PUSH2 0x14AF JUMP JUMPDEST DUP4 MLOAD PUSH5 0xFFFFFFFFFF AND LT SWAP2 POP PUSH2 0x922 SWAP1 POP JUMP JUMPDEST DUP3 MLOAD PUSH5 0xFFFFFFFFFF AND ISZERO DUP1 ISZERO SWAP1 PUSH2 0xEA8 JUMPI POP DUP3 MLOAD PUSH5 0xFFFFFFFFFF AND DUP2 LT ISZERO JUMPDEST SWAP2 POP POP PUSH2 0x922 JUMP JUMPDEST PUSH1 0x0 PUSH2 0x318 PUSH1 0x0 NOT DUP4 PUSH2 0x14CD JUMP JUMPDEST PUSH1 0x80 DUP4 ADD MLOAD ISZERO PUSH2 0xECD JUMPI PUSH1 0x0 DUP1 REVERT JUMPDEST PUSH2 0xD70 DUP4 DUP4 DUP4 PUSH1 0x0 PUSH1 0x1 PUSH2 0x151B JUMP JUMPDEST PUSH1 0x0 PUSH2 0xEE6 PUSH2 0x11A4 JUMP JUMPDEST PUSH1 0x1 PUSH1 0x1 PUSH1 0xA0 SHL SUB DUP4 AND PUSH1 0x0 DUP2 DUP2 MSTORE PUSH1 0x20 DUP4 DUP2 MSTORE PUSH1 0x40 DUP1 DUP4 KECCAK256 DUP9 MLOAD DUP2 SLOAD SWAP4 DUP11 ADD MLOAD DUP11 DUP5 ADD MLOAD PUSH1 0x60 DUP13 ADD MLOAD PUSH1 0x80 DUP14 ADD MLOAD PUSH1 0xA0 DUP15 ADD MLOAD PUSH5 0xFFFFFFFFFF NOT SWAP1 SWAP9 AND PUSH5 0xFFFFFFFFFF SWAP1 SWAP6 AND SWAP5 SWAP1 SWAP5 OR PUSH6 0xFF0000000000 NOT AND PUSH1 0x1 PUSH1 0x28 SHL PUSH1 0xF8 SWAP5 SWAP1 SWAP5 SHR SWAP4 SWAP1 SWAP4 MUL SWAP3 SWAP1 SWAP3 OR PUSH7 0xFF000000000000 NOT AND PUSH1 0x1 PUSH1 0x30 SHL PUSH1 0xFF SWAP1 SWAP3 AND SWAP2 SWAP1 SWAP2 MUL OR PUSH9 0xFFFF00000000000000 NOT AND PUSH1 0x1 PUSH1 0x38 SHL PUSH2 0xFFFF SWAP1 SWAP3 AND SWAP2 SWAP1 SWAP2 MUL OR PUSH27 0xFFFFFFFFFFFFFFFFFFFFFFFFFFFFFFFFFFFF000000000000000000 NOT AND PUSH1 0x1 PUSH1 0x48 SHL PUSH1 0x70 SWAP3 SWAP1 SWAP3 SHR SWAP2 SWAP1 SWAP2 MUL OR PUSH1 0xFF PUSH1 0xD8 SHL NOT AND PUSH1 0x1 PUSH1 0xD8 SHL SWAP4 ISZERO ISZERO SWAP4 SWAP1 SWAP4 MUL SWAP3 SWAP1 SWAP3 OR SWAP1 SWAP2 SSTORE MLOAD SWAP3 SWAP4 POP SWAP1 SWAP2 PUSH32 0x6BD4B121BCA854A191536A2CA891155C42EE2FB23F307FB34E8BC65CFCB5412E SWAP2 SWAP1 LOG2 POP POP POP JUMP JUMPDEST PUSH1 0x0 PUSH3 0xF4240 DUP3 PUSH1 0x26 DUP2 GT ISZERO PUSH2 0x100B JUMPI INVALID JUMPDEST ADD SWAP3 SWAP2 POP POP JUMP JUMPDEST PUSH1 0x0 DUP1 PUSH2 0x318 PUSH1 0x11 PUSH2 0xFF9 JUMP JUMPDEST PUSH1 0x0 DUP1 PUSH2 0x318 PUSH1 0x21 PUSH2 0xFF9 JUMP JUMPDEST PUSH2 0x1034 PUSH2 0x3AFD JUMP JUMPDEST PUSH2 0x103C PUSH2 0x3B1E JUMP JUMPDEST PUSH2 0x1045 DUP5 PUSH2 0x16D1 JUMP JUMPDEST SWAP1 POP DUP3 DUP2 PUSH1 0x0 ADD MLOAD LT ISZERO PUSH2 0x1076 JUMPI PUSH1 0x0 PUSH2 0x105E DUP6 PUSH2 0x1799 JUMP JUMPDEST SWAP1 POP PUSH2 0x106C DUP6 DUP4 DUP4 DUP8 PUSH2 0x181C JUMP JUMPDEST POP SWAP2 POP PUSH2 0x1083 SWAP1 POP JUMP JUMPDEST DUP1 MLOAD DUP4 EQ PUSH2 0x1083 JUMPI PUSH1 0x0 DUP1 REVERT JUMPDEST PUSH1 0x40 MLOAD DUP1 PUSH1 0x60 ADD PUSH1 0x40 MSTORE DUP1 PUSH2 0x10B1 PUSH2 0x10AC DUP5 PUSH1 0xA0 ADD MLOAD DUP6 PUSH1 0xC0 ADD MLOAD PUSH2 0x191D SWAP1 SWAP2 SWAP1 PUSH4 0xFFFFFFFF AND JUMP JUMPDEST PUSH2 0xE42 JUMP JUMPDEST DUP2 MSTORE PUSH1 0x20 ADD PUSH2 0x10D4 PUSH2 0x10AC DUP5 PUSH1 0xA0 ADD MLOAD DUP6 PUSH1 0xE0 ADD MLOAD PUSH2 0x191D SWAP1 SWAP2 SWAP1 PUSH4 0xFFFFFFFF AND JUMP JUMPDEST DUP2 MSTORE PUSH1 0x20 ADD DUP3 PUSH1 0x60 ADD MLOAD DUP2 MSTORE POP SWAP2 POP SWAP3 POP SWAP3 SWAP1 POP JUMP JUMPDEST PUSH1 0x0 DUP1 PUSH1 0x0 DUP1 PUSH1 0x0 PUSH2 0x10FA PUSH2 0x1944 JUMP JUMPDEST PUSH1 0x1 PUSH1 0x1 PUSH1 0xA0 SHL SUB DUP10 AND PUSH1 0x0 SWAP1 DUP2 MSTORE PUSH1 0x20 DUP3 DUP2 MSTORE PUSH1 0x40 DUP1 DUP4 KECCAK256 PUSH2 0xFFFF DUP13 AND DUP5 MSTORE SWAP1 SWAP2 MSTORE SWAP1 KECCAK256 DUP1 SLOAD PUSH1 0x1 PUSH1 0x1 PUSH1 0x50 SHL SUB DUP2 AND SWAP7 POP PUSH1 0x1 PUSH1 0x50 SHL SWAP1 DIV PUSH4 0xFFFFFFFF AND SWAP5 POP SWAP1 SWAP2 POP DUP4 ISZERO PUSH2 0x1167 JUMPI DUP1 SLOAD PUSH2 0x1160 SWAP1 PUSH1 0x1 PUSH1 0x70 SHL SWAP1 DIV PUSH7 0xFFFFFFFFFFFFFF AND PUSH2 0x1951 JUMP JUMPDEST SWAP3 POP PUSH2 0x117C JUMP JUMPDEST DUP1 SLOAD PUSH1 0x1 PUSH1 0x70 SHL SWAP1 DIV PUSH7 0xFFFFFFFFFFFFFF AND SWAP3 POP JUMPDEST DUP1 SLOAD PUSH2 0x1197 SWAP1 DUP9 SWAP1 PUSH1 0x1 PUSH1 0xA8 SHL SWAP1 DIV PUSH1 0xA SWAP1 DUP2 SIGNEXTEND SWAP1 SIGNEXTEND PUSH2 0x195F JUMP JUMPDEST SWAP6 POP POP POP SWAP4 POP SWAP4 POP SWAP4 POP SWAP4 JUMP JUMPDEST PUSH1 0x0 DUP1 PUSH2 0x318 PUSH1 0x1 PUSH2 0xFF9 JUMP JUMPDEST PUSH2 0x11B9 PUSH2 0x3AFD JUMP JUMPDEST PUSH2 0x318 DUP3 TIMESTAMP PUSH2 0x1993 JUMP JUMPDEST DUP2 PUSH2 0xFFFF AND PUSH1 0x0 LT DUP1 ISZERO PUSH2 0x11DD JUMPI POP PUSH2 0x3FFF PUSH2 0xFFFF DUP4 AND GT ISZERO JUMPDEST PUSH2 0x11E6 JUMPI PUSH1 0x0 DUP1 REVERT JUMPDEST PUSH2 0xFFFF DUP3 AND DUP1 DUP6 MSTORE PUSH2 0x11F9 SWAP1 DUP3 SWAP1 PUSH2 0x1A54 JUMP JUMPDEST ISZERO PUSH2 0x1228 JUMPI PUSH2 0x120E DUP4 DUP4 DUP7 PUSH2 0x120 ADD MLOAD PUSH2 0x10EA JUMP JUMPDEST PUSH2 0x100 DUP9 ADD MSTORE PUSH1 0xE0 DUP8 ADD MSTORE PUSH1 0x40 DUP7 ADD MSTORE PUSH1 0x20 DUP6 ADD MSTORE PUSH2 0x1246 JUMP JUMPDEST PUSH1 0x0 PUSH1 0x20 DUP6 ADD DUP2 SWAP1 MSTORE PUSH1 0x40 DUP6 ADD DUP2 SWAP1 MSTORE PUSH1 0xE0 DUP6 ADD DUP2 SWAP1 MSTORE PUSH2 0x100 DUP6 ADD MSTORE JUMPDEST POP POP PUSH1 0x0 PUSH1 0x60 DUP4 ADD DUP2 SWAP1 MSTORE PUSH1 0x80 DUP4 ADD DUP2 SWAP1 MSTORE PUSH1 0xA0 DUP4 ADD DUP2 SWAP1 MSTORE PUSH1 0xC0 SWAP1 SWAP3 ADD SWAP2 SWAP1 SWAP2 MSTORE POP JUMP JUMPDEST PUSH1 0x0 DUP1 DUP3 SLT ISZERO PUSH2 0xE58 JUMPI PUSH1 0x0 DUP1 REVERT JUMPDEST DUP3 MLOAD PUSH1 0x0 SWAP1 TIMESTAMP SWAP1 DUP3 SWAP1 PUSH2 0x1290 SWAP1 PUSH2 0xFFFF AND PUSH2 0x8FA JUMP JUMPDEST SWAP1 POP PUSH1 0x0 PUSH2 0x12A3 DUP3 DUP9 PUSH1 0xC0 ADD MLOAD DUP6 PUSH2 0x1ADE JUMP JUMPDEST SWAP1 POP PUSH2 0x12B1 DUP8 DUP4 DUP4 DUP9 PUSH2 0x1BC1 JUMP JUMPDEST SWAP4 POP PUSH1 0x0 PUSH2 0x12BE DUP4 PUSH2 0x1CEE JUMP JUMPDEST SWAP1 POP PUSH1 0x1 PUSH1 0x1 PUSH1 0xA0 SHL SUB DUP2 AND ISZERO PUSH2 0x134C JUMPI DUP1 PUSH1 0x1 PUSH1 0x1 PUSH1 0xA0 SHL SUB AND PUSH4 0x1D684DD2 DUP9 DUP11 PUSH1 0x0 ADD MLOAD PUSH2 0x12F1 DUP13 PUSH1 0x40 ADD MLOAD PUSH2 0x126B JUMP JUMPDEST DUP11 DUP14 PUSH1 0xC0 ADD MLOAD DUP12 PUSH1 0x40 MLOAD DUP8 PUSH4 0xFFFFFFFF AND PUSH1 0xE0 SHL DUP2 MSTORE PUSH1 0x4 ADD PUSH2 0x1319 SWAP7 SWAP6 SWAP5 SWAP4 SWAP3 SWAP2 SWAP1 PUSH2 0x41D7 JUMP JUMPDEST PUSH1 0x0 PUSH1 0x40 MLOAD DUP1 DUP4 SUB DUP2 PUSH1 0x0 DUP8 DUP1 EXTCODESIZE ISZERO DUP1 ISZERO PUSH2 0x1333 JUMPI PUSH1 0x0 DUP1 REVERT JUMPDEST POP GAS CALL ISZERO DUP1 ISZERO PUSH2 0x1347 JUMPI RETURNDATASIZE PUSH1 0x0 DUP1 RETURNDATACOPY RETURNDATASIZE PUSH1 0x0 REVERT JUMPDEST POP POP POP POP JUMPDEST DUP5 ISZERO PUSH2 0x135C JUMPI PUSH2 0x135C DUP8 DUP7 PUSH2 0x1D60 JUMP JUMPDEST POP POP POP POP SWAP4 SWAP3 POP POP POP JUMP JUMPDEST PUSH1 0x0 PUSH2 0x1371 PUSH2 0x1944 JUMP JUMPDEST PUSH1 0x1 PUSH1 0x1 PUSH1 0xA0 SHL SUB DUP10 AND PUSH1 0x0 SWAP1 DUP2 MSTORE PUSH1 0x20 DUP3 DUP2 MSTORE PUSH1 0x40 DUP1 DUP4 KECCAK256 PUSH2 0xFFFF DUP13 AND DUP5 MSTORE SWAP1 SWAP2 MSTORE SWAP1 KECCAK256 SWAP1 SWAP2 POP DUP5 PUSH2 0x13D9 JUMPI PUSH7 0xFFFFFFFFFFFFFF DUP5 GT ISZERO PUSH2 0x13B2 JUMPI PUSH1 0x0 DUP1 REVERT JUMPDEST DUP1 SLOAD PUSH7 0xFFFFFFFFFFFFFF PUSH1 0x70 SHL NOT AND PUSH1 0x1 PUSH1 0x70 SHL PUSH7 0xFFFFFFFFFFFFFF DUP7 AND MUL OR DUP2 SSTORE PUSH2 0x13F3 JUMP JUMPDEST DUP1 SLOAD PUSH1 0x1 PUSH1 0x50 SHL SWAP1 DIV PUSH4 0xFFFFFFFF AND DUP6 EQ PUSH2 0x13F3 JUMPI PUSH1 0x0 DUP1 REVERT JUMPDEST PUSH2 0x13FC DUP6 PUSH2 0x1D7F JUMP JUMPDEST DUP2 SLOAD PUSH4 0xFFFFFFFF SWAP2 SWAP1 SWAP2 AND PUSH1 0x1 PUSH1 0x50 SHL MUL PUSH4 0xFFFFFFFF PUSH1 0x50 SHL NOT SWAP1 SWAP2 AND OR DUP2 SSTORE PUSH2 0x142D PUSH2 0x1428 DUP8 PUSH2 0x126B JUMP JUMPDEST PUSH2 0x1D92 JUMP JUMPDEST DUP2 SLOAD PUSH10 0xFFFFFFFFFFFFFFFFFFFF NOT AND PUSH1 0x1 PUSH1 0x1 PUSH1 0x50 SHL SUB SWAP2 SWAP1 SWAP2 AND OR DUP1 DUP3 SSTORE PUSH2 0x1473 SWAP1 PUSH2 0x146E SWAP1 DUP6 SWAP1 DUP13 SWAP1 DUP13 SWAP1 PUSH1 0x1 PUSH1 0xA8 SHL SWAP1 DIV PUSH1 0xA SWAP1 DUP2 SIGNEXTEND SWAP1 SIGNEXTEND DUP13 PUSH2 0x1DA8 JUMP JUMPDEST PUSH2 0x1DCB JUMP JUMPDEST DUP2 SLOAD PUSH1 0xA SWAP2 SWAP1 SWAP2 SIGNEXTEND PUSH1 0x1 PUSH1 0x1 PUSH1 0x58 SHL SUB AND PUSH1 0x1 PUSH1 0xA8 SHL MUL PUSH1 0x1 PUSH1 0x1 PUSH1 0xA8 SHL SUB SWAP1 SWAP2 AND OR SWAP1 SSTORE POP POP POP POP POP POP POP POP JUMP JUMPDEST PUSH1 0x0 DUP1 PUSH2 0x318 PUSH1 0x2 PUSH2 0xFF9 JUMP JUMPDEST PUSH1 0x0 PUSH3 0x15180 DUP3 LT ISZERO PUSH2 0x14C1 JUMPI PUSH1 0x0 DUP1 REVERT JUMPDEST POP PUSH3 0x15180 DUP2 MOD SWAP1 SUB SWAP1 JUMP JUMPDEST DUP2 DUP2 MUL PUSH1 0x0 NOT DUP4 EQ ISZERO PUSH2 0x14FD JUMPI DUP2 ISZERO DUP1 PUSH2 0x14EF JUMPI POP DUP3 DUP3 DUP3 DUP2 PUSH2 0x14EC JUMPI INVALID JUMPDEST SDIV EQ JUMPDEST PUSH2 0x14F8 JUMPI PUSH1 0x0 DUP1 REVERT JUMPDEST PUSH2 0x318 JUMP JUMPDEST DUP3 ISZERO DUP1 PUSH2 0x1512 JUMPI POP DUP2 DUP4 DUP3 DUP2 PUSH2 0x150F JUMPI INVALID JUMPDEST SDIV EQ JUMPDEST PUSH2 0x318 JUMPI PUSH1 0x0 DUP1 REVERT JUMPDEST PUSH1 0x0 DUP1 PUSH2 0x1538 DUP7 DUP9 PUSH1 0x0 ADD MLOAD DUP10 PUSH1 0x80 ADD MLOAD DUP11 PUSH2 0x120 ADD MLOAD DUP9 PUSH2 0x1DFD JUMP JUMPDEST SWAP2 POP PUSH1 0x0 PUSH2 0x1557 DUP9 PUSH1 0x80 ADD MLOAD DUP10 PUSH1 0x60 ADD MLOAD PUSH2 0x1EA5 SWAP1 SWAP2 SWAP1 PUSH4 0xFFFFFFFF AND JUMP JUMPDEST SWAP1 POP DUP4 DUP1 ISZERO PUSH2 0x1566 JUMPI POP PUSH1 0x0 DUP2 SLT JUMPDEST DUP1 ISZERO PUSH2 0x1581 JUMPI POP PUSH1 0x20 DUP9 ADD MLOAD PUSH1 0x0 SWAP1 PUSH2 0x157F SWAP1 DUP4 PUSH2 0x1EA5 JUMP JUMPDEST SLT JUMPDEST ISZERO PUSH2 0x15A7 JUMPI DUP6 PUSH1 0xA0 ADD MLOAD PUSH2 0x15A7 JUMPI PUSH1 0x40 MLOAD PUSH3 0x461BCD PUSH1 0xE5 SHL DUP2 MSTORE PUSH1 0x4 ADD PUSH2 0x576 SWAP1 PUSH2 0x429D JUMP JUMPDEST DUP1 ISZERO PUSH2 0x15C6 JUMPI PUSH1 0x20 DUP9 ADD MLOAD PUSH2 0x15BC SWAP1 DUP3 PUSH2 0x1EA5 JUMP JUMPDEST PUSH1 0x20 DUP10 ADD MSTORE PUSH1 0x1 SWAP2 POP JUMPDEST PUSH1 0xA0 DUP9 ADD MLOAD ISZERO ISZERO DUP1 PUSH2 0x15DB JUMPI POP PUSH1 0xC0 DUP9 ADD MLOAD ISZERO ISZERO JUMPDEST ISZERO PUSH2 0x1644 JUMPI PUSH1 0x0 PUSH2 0x160B DUP10 PUSH1 0xC0 ADD MLOAD PUSH2 0x1605 DUP12 PUSH1 0xA0 ADD MLOAD DUP13 PUSH1 0x40 ADD MLOAD PUSH2 0x1EA5 SWAP1 SWAP2 SWAP1 PUSH4 0xFFFFFFFF AND JUMP JUMPDEST SWAP1 PUSH2 0x1EA5 JUMP JUMPDEST SWAP1 POP PUSH1 0x0 DUP2 SLT ISZERO PUSH2 0x162E JUMPI PUSH1 0x40 MLOAD PUSH3 0x461BCD PUSH1 0xE5 SHL DUP2 MSTORE PUSH1 0x4 ADD PUSH2 0x576 SWAP1 PUSH2 0x42C6 JUMP JUMPDEST PUSH2 0x1639 DUP10 DUP10 DUP4 PUSH2 0x127A JUMP JUMPDEST POP PUSH1 0x40 DUP10 ADD MSTORE PUSH1 0x1 SWAP2 POP JUMPDEST DUP2 ISZERO PUSH2 0x1673 JUMPI PUSH2 0x1673 DUP8 DUP10 PUSH1 0x0 ADD MLOAD DUP11 PUSH1 0x20 ADD MLOAD DUP12 PUSH1 0x40 ADD MLOAD DUP13 PUSH1 0xE0 ADD MLOAD DUP14 PUSH2 0x100 ADD MLOAD DUP15 PUSH2 0x120 ADD MLOAD PUSH2 0x1367 JUMP JUMPDEST DUP8 MLOAD PUSH1 0x20 DUP10 ADD MLOAD PUSH2 0x16A0 SWAP2 PUSH2 0xFFFF AND SWAP1 ISZERO ISZERO DUP1 PUSH2 0x1693 JUMPI POP PUSH1 0x40 DUP11 ADD MLOAD ISZERO ISZERO JUMPDEST DUP9 SWAP2 SWAP1 PUSH1 0x1 PUSH1 0xFE SHL PUSH2 0x1EBB JUMP JUMPDEST PUSH1 0x0 DUP9 PUSH1 0x20 ADD MLOAD SLT ISZERO PUSH2 0x16C6 JUMPI PUSH1 0x20 DUP7 ADD DUP1 MLOAD PUSH1 0x1 PUSH1 0xF9 SHL OR PUSH1 0x1 PUSH1 0x1 PUSH1 0xF8 SHL SUB NOT AND SWAP1 MSTORE JUMPDEST POP POP SWAP6 SWAP5 POP POP POP POP POP JUMP JUMPDEST PUSH2 0x16D9 PUSH2 0x3B1E JUMP JUMPDEST PUSH1 0x0 PUSH2 0x16E3 PUSH2 0x20BA JUMP JUMPDEST PUSH2 0xFFFF SWAP4 DUP5 AND PUSH1 0x0 SWAP1 DUP2 MSTORE PUSH1 0x20 SWAP2 DUP3 MSTORE PUSH1 0x40 SWAP1 DUP2 SWAP1 KECCAK256 DUP1 SLOAD PUSH5 0xFFFFFFFFFF DUP2 AND DUP7 MSTORE PUSH1 0x1 PUSH1 0x28 SHL DUP2 DIV PUSH1 0x1 PUSH1 0x1 PUSH1 0x58 SHL SUB SWAP1 DUP2 AND SWAP5 DUP8 ADD SWAP5 SWAP1 SWAP5 MSTORE PUSH1 0x1 DUP3 ADD SLOAD DUP5 AND SWAP3 DUP7 ADD SWAP3 SWAP1 SWAP3 MSTORE PUSH1 0x1 PUSH1 0xD8 SHL DUP3 DIV PUSH4 0xFFFFFFFF AND PUSH1 0x60 DUP7 ADD MSTORE PUSH1 0x1 PUSH1 0x80 SHL SWAP1 SWAP2 DIV SWAP1 SWAP2 AND PUSH1 0x80 DUP5 ADD MSTORE PUSH1 0x2 ADD SLOAD PUSH1 0x1 PUSH1 0x1 PUSH1 0x50 SHL SUB DUP1 DUP3 AND PUSH1 0xA0 DUP6 ADD MSTORE PUSH1 0x1 PUSH1 0x50 SHL DUP3 DIV DUP2 AND PUSH1 0xC0 DUP6 ADD MSTORE PUSH1 0x1 PUSH1 0xA0 SHL DUP3 DIV AND PUSH1 0xE0 DUP5 ADD MSTORE PUSH1 0x1 PUSH1 0xF0 SHL SWAP1 DIV PUSH1 0xFF AND PUSH2 0x12C MUL SWAP1 SWAP3 AND PUSH2 0x100 DUP3 ADD MSTORE SWAP2 SWAP1 POP JUMP JUMPDEST PUSH1 0x0 DUP1 PUSH2 0x17A5 DUP4 PUSH2 0x20C7 JUMP JUMPDEST PUSH1 0x1 PUSH1 0x1 PUSH1 0xA0 SHL SUB AND PUSH4 0xA77C05B8 PUSH1 0x40 MLOAD DUP2 PUSH4 0xFFFFFFFF AND PUSH1 0xE0 SHL DUP2 MSTORE PUSH1 0x4 ADD PUSH1 0x40 DUP1 MLOAD DUP1 DUP4 SUB DUP2 DUP7 DUP1 EXTCODESIZE ISZERO DUP1 ISZERO PUSH2 0x17DC JUMPI PUSH1 0x0 DUP1 REVERT JUMPDEST POP GAS STATICCALL ISZERO DUP1 ISZERO PUSH2 0x17F0 JUMPI RETURNDATASIZE PUSH1 0x0 DUP1 RETURNDATACOPY RETURNDATASIZE PUSH1 0x0 REVERT JUMPDEST POP POP POP POP PUSH1 0x40 MLOAD RETURNDATASIZE PUSH1 0x1F NOT PUSH1 0x1F DUP3 ADD AND DUP3 ADD DUP1 PUSH1 0x40 MSTORE POP DUP2 ADD SWAP1 PUSH2 0x1814 SWAP2 SWAP1 PUSH2 0x40F1 JUMP JUMPDEST SWAP5 SWAP4 POP POP POP POP JUMP JUMPDEST PUSH2 0x1824 PUSH2 0x3B1E JUMP JUMPDEST PUSH1 0x0 DUP1 PUSH1 0x0 PUSH2 0x1834 DUP9 DUP7 DUP10 PUSH2 0x20F7 JUMP JUMPDEST PUSH1 0xC0 DUP12 ADD SWAP3 SWAP1 SWAP3 MSTORE PUSH1 0xE0 DUP11 ADD SWAP3 SWAP1 SWAP3 MSTORE PUSH1 0x20 DUP10 ADD MLOAD SWAP2 SWAP4 POP SWAP2 POP PUSH2 0x1858 SWAP1 DUP4 PUSH2 0xDBA JUMP JUMPDEST PUSH1 0x20 DUP9 ADD MSTORE PUSH1 0x80 DUP8 ADD MLOAD PUSH1 0x0 SWAP1 ISZERO PUSH2 0x1886 JUMPI PUSH1 0x80 DUP9 ADD MLOAD PUSH2 0x1883 SWAP1 PUSH2 0x187D DUP10 DUP3 PUSH2 0x2201 JUMP JUMPDEST SWAP1 PUSH2 0x2216 JUMP JUMPDEST SWAP1 POP JUMPDEST PUSH2 0x18A6 PUSH2 0x189B PUSH8 0xDE0B6B3A7640000 DUP4 PUSH2 0xDBA JUMP JUMPDEST PUSH1 0xA0 DUP11 ADD MLOAD SWAP1 PUSH2 0x2233 JUMP JUMPDEST PUSH1 0xA0 DUP10 ADD MSTORE POP PUSH1 0x80 DUP8 ADD DUP7 SWAP1 MSTORE PUSH1 0x0 PUSH2 0x18BD PUSH2 0x2250 JUMP JUMPDEST PUSH2 0xFFFF DUP11 AND PUSH1 0x0 SWAP1 DUP2 MSTORE PUSH1 0x20 SWAP2 SWAP1 SWAP2 MSTORE PUSH1 0x40 SWAP1 KECCAK256 SLOAD DUP9 MLOAD PUSH4 0xFFFFFFFF PUSH1 0x1 PUSH1 0xA0 SHL SWAP1 SWAP3 DIV DUP3 AND SWAP3 POP PUSH2 0x1908 SWAP2 PUSH2 0x18F7 SWAP1 DUP6 SWAP1 DUP6 SWAP1 PUSH2 0xDBA AND JUMP JUMPDEST DUP11 PUSH1 0x60 ADD MLOAD DUP12 PUSH2 0x100 ADD MLOAD DUP11 PUSH2 0x225D JUMP JUMPDEST PUSH1 0x60 DUP10 ADD MSTORE POP POP SWAP3 DUP6 MSTORE POP SWAP3 SWAP5 SWAP1 SWAP4 POP SWAP2 POP POP JUMP JUMPDEST PUSH1 0x0 DUP3 PUSH2 0x192C JUMPI POP PUSH1 0x0 PUSH2 0x318 JUMP JUMPDEST DUP3 DUP3 MUL DUP3 DUP5 DUP3 DUP2 PUSH2 0x1939 JUMPI INVALID JUMPDEST DIV EQ PUSH2 0x3D6 JUMPI PUSH1 0x0 DUP1 REVERT JUMPDEST PUSH1 0x0 DUP1 PUSH2 0x318 PUSH1 0x6 PUSH2 0xFF9 JUMP JUMPDEST PUSH1 0x8 DUP2 SWAP1 SHR PUSH1 0xFF SWAP1 SWAP2 AND SHL SWAP1 JUMP JUMPDEST PUSH1 0x0 DUP1 DUP3 SLT PUSH2 0x196F JUMPI POP DUP1 PUSH2 0x318 JUMP JUMPDEST DUP3 MLOAD PUSH1 0x20 DUP5 ADD MLOAD PUSH2 0x198C SWAP2 SWAP1 PUSH2 0x1986 SWAP1 DUP6 SWAP1 PUSH2 0x14CD JUMP JUMPDEST SWAP1 PUSH2 0x22EB JUMP JUMPDEST SWAP1 POP PUSH2 0x318 JUMP JUMPDEST PUSH2 0x199B PUSH2 0x3AFD JUMP JUMPDEST PUSH1 0x0 PUSH2 0x19A6 DUP5 PUSH2 0x16D1 JUMP JUMPDEST SWAP1 POP DUP3 DUP2 PUSH1 0x0 ADD MLOAD LT ISZERO PUSH2 0x19E5 JUMPI PUSH1 0x0 DUP1 PUSH2 0x19C0 DUP7 PUSH2 0x231C JUMP JUMPDEST SWAP1 POP PUSH2 0x19CE DUP7 DUP5 DUP4 DUP9 PUSH2 0x181C JUMP JUMPDEST SWAP1 SWAP4 POP SWAP2 POP PUSH2 0x19DE DUP7 DUP4 DUP6 PUSH2 0x2375 JUMP JUMPDEST POP POP PUSH2 0x19F2 JUMP JUMPDEST DUP1 MLOAD DUP4 EQ PUSH2 0x19F2 JUMPI PUSH1 0x0 DUP1 REVERT JUMPDEST PUSH1 0x40 MLOAD DUP1 PUSH1 0x60 ADD PUSH1 0x40 MSTORE DUP1 PUSH2 0x1A1B PUSH2 0x10AC DUP5 PUSH1 0xA0 ADD MLOAD DUP6 PUSH1 0xC0 ADD MLOAD PUSH2 0x191D SWAP1 SWAP2 SWAP1 PUSH4 0xFFFFFFFF AND JUMP JUMPDEST DUP2 MSTORE PUSH1 0x20 ADD PUSH2 0x1A3E PUSH2 0x10AC DUP5 PUSH1 0xA0 ADD MLOAD DUP6 PUSH1 0xE0 ADD MLOAD PUSH2 0x191D SWAP1 SWAP2 SWAP1 PUSH4 0xFFFFFFFF AND JUMP JUMPDEST DUP2 MSTORE PUSH1 0x20 ADD DUP3 PUSH1 0x60 ADD MLOAD DUP2 MSTORE POP SWAP2 POP POP SWAP3 SWAP2 POP POP JUMP JUMPDEST PUSH1 0x0 DUP2 ISZERO DUP1 ISZERO SWAP1 PUSH2 0x1A67 JUMPI POP PUSH2 0x3FFF DUP3 GT ISZERO JUMPDEST PUSH2 0x1A70 JUMPI PUSH1 0x0 DUP1 REVERT JUMPDEST PUSH1 0x80 DUP4 ADD MLOAD PUSH1 0x60 DUP5 ADD MLOAD PUSH2 0xFFFF AND DUP4 EQ ISZERO PUSH2 0x1A8F JUMPI PUSH1 0x1 SWAP2 POP POP PUSH2 0x318 JUMP JUMPDEST PUSH1 0x1 PUSH1 0x1 PUSH1 0x70 SHL SUB NOT DUP2 AND ISZERO PUSH2 0x1AD4 JUMPI PUSH1 0xF0 DUP2 SWAP1 SHR PUSH2 0x3FFF AND DUP4 DUP2 EQ ISZERO PUSH2 0x1AC1 JUMPI POP PUSH1 0x1 PUSH1 0xFE SHL SWAP1 DUP2 AND EQ SWAP1 POP PUSH2 0x318 JUMP JUMPDEST POP PUSH1 0x10 SHL PUSH1 0x1 PUSH1 0x1 PUSH1 0x80 SHL SUB NOT AND PUSH2 0x1A8F JUMP JUMPDEST POP PUSH1 0x0 SWAP4 SWAP3 POP POP POP JUMP JUMPDEST PUSH1 0x0 DUP1 PUSH1 0x0 PUSH2 0x1AED DUP7 DUP6 PUSH2 0x25A9 JUMP JUMPDEST POP SWAP2 POP SWAP2 POP PUSH1 0x0 PUSH2 0x1AFC PUSH2 0x1012 JUMP JUMPDEST PUSH1 0x1 PUSH1 0x1 PUSH1 0xA0 SHL SUB DUP9 AND PUSH1 0x0 SWAP1 DUP2 MSTORE PUSH1 0x20 DUP3 SWAP1 MSTORE PUSH1 0x40 DUP2 KECCAK256 SWAP2 SWAP3 POP PUSH2 0x1B21 DUP6 DUP10 PUSH2 0x1EA5 JUMP JUMPDEST SWAP1 POP DUP1 PUSH1 0x0 SGT ISZERO DUP1 ISZERO PUSH2 0x1B3A JUMPI POP PUSH1 0x1 PUSH1 0x1 PUSH1 0x60 SHL SUB DUP2 LT JUMPDEST PUSH2 0x1B43 JUMPI PUSH1 0x0 DUP1 REVERT JUMPDEST DUP2 SLOAD PUSH12 0xFFFFFFFFFFFFFFFFFFFFFFFF NOT AND PUSH1 0x1 PUSH1 0x1 PUSH1 0x60 SHL SUB DUP3 AND OR PUSH16 0xFFFFFFFFFFFFFFFFFFFFFFFFFFFFFFFF PUSH1 0x60 SHL NOT AND PUSH1 0x1 PUSH1 0x60 SHL PUSH1 0x1 PUSH1 0x1 PUSH1 0x80 SHL SUB DUP7 AND MUL OR DUP3 SSTORE PUSH4 0xFFFFFFFF DUP8 LT PUSH2 0x1B98 JUMPI PUSH1 0x0 DUP1 REVERT JUMPDEST POP DUP1 SLOAD PUSH4 0xFFFFFFFF DUP8 AND PUSH1 0x1 PUSH1 0xE0 SHL MUL PUSH1 0x1 PUSH1 0x1 PUSH1 0xE0 SHL SUB SWAP1 SWAP2 AND OR SWAP1 SSTORE POP SWAP2 POP POP SWAP4 SWAP3 POP POP POP JUMP JUMPDEST PUSH1 0xE0 DUP5 ADD MLOAD PUSH1 0x0 SWAP1 ISZERO PUSH2 0x1C82 JUMPI PUSH20 0x0 PUSH4 0xE0C01A72 DUP6 PUSH2 0x1BF6 DUP9 PUSH1 0x40 ADD MLOAD PUSH2 0x126B JUMP JUMPDEST DUP9 PUSH1 0xE0 ADD MLOAD DUP10 PUSH2 0x100 ADD MLOAD PUSH1 0x40 MLOAD DUP6 PUSH4 0xFFFFFFFF AND PUSH1 0xE0 SHL DUP2 MSTORE PUSH1 0x4 ADD PUSH2 0x1C20 SWAP5 SWAP4 SWAP3 SWAP2 SWAP1 PUSH2 0x420E JUMP JUMPDEST PUSH1 0x20 PUSH1 0x40 MLOAD DUP1 DUP4 SUB DUP2 DUP7 DUP1 EXTCODESIZE ISZERO DUP1 ISZERO PUSH2 0x1C38 JUMPI PUSH1 0x0 DUP1 REVERT JUMPDEST POP GAS DELEGATECALL ISZERO DUP1 ISZERO PUSH2 0x1C4C JUMPI RETURNDATASIZE PUSH1 0x0 DUP1 RETURNDATACOPY RETURNDATASIZE PUSH1 0x0 REVERT JUMPDEST POP POP POP POP PUSH1 0x40 MLOAD RETURNDATASIZE PUSH1 0x1F NOT PUSH1 0x1F DUP3 ADD AND DUP3 ADD DUP1 PUSH1 0x40 MSTORE POP DUP2 ADD SWAP1 PUSH2 0x1C70 SWAP2 SWAP1 PUSH2 0x40D9 JUMP JUMPDEST PUSH1 0x0 PUSH1 0xE0 DUP8 ADD DUP2 SWAP1 MSTORE PUSH2 0x100 DUP8 ADD MSTORE SWAP1 POP JUMPDEST PUSH2 0x1CC4 PUSH2 0x1CBD DUP7 PUSH2 0x100 ADD MLOAD PUSH2 0x1CB7 PUSH8 0xDE0B6B3A7640000 PUSH2 0x1CB1 DUP9 PUSH2 0x1CAB DUP13 PUSH1 0x40 ADD MLOAD PUSH2 0x126B JUMP JUMPDEST SWAP1 PUSH2 0x191D JUMP JUMPDEST SWAP1 PUSH2 0x263F JUMP JUMPDEST SWAP1 PUSH2 0x2201 JUMP JUMPDEST DUP3 SWAP1 PUSH2 0xDBA JUMP JUMPDEST SWAP1 POP PUSH2 0x1CDC PUSH8 0xDE0B6B3A7640000 PUSH2 0x1CB1 DUP5 DUP7 PUSH2 0x191D JUMP JUMPDEST DUP6 PUSH2 0x100 ADD DUP2 DUP2 MSTORE POP POP SWAP5 SWAP4 POP POP POP POP JUMP JUMPDEST PUSH1 0x0 DUP1 PUSH2 0x1CF9 PUSH2 0x14A2 JUMP JUMPDEST PUSH1 0x1 PUSH1 0x1 PUSH1 0xA0 SHL SUB DUP5 AND PUSH1 0x0 SWAP1 DUP2 MSTORE PUSH1 0x20 DUP3 SWAP1 MSTORE PUSH1 0x40 SWAP1 KECCAK256 DUP1 SLOAD SWAP2 SWAP3 POP SWAP1 PUSH1 0x1 PUSH1 0xF8 SHL SWAP1 DIV PUSH1 0xFF AND ISZERO PUSH2 0x1D55 JUMPI PUSH2 0x1D2E PUSH2 0x265E JUMP JUMPDEST PUSH1 0x1 PUSH1 0x1 PUSH1 0xA0 SHL SUB DUP1 DUP7 AND PUSH1 0x0 SWAP1 DUP2 MSTORE PUSH1 0x20 SWAP3 SWAP1 SWAP3 MSTORE PUSH1 0x40 SWAP1 SWAP2 KECCAK256 SLOAD AND SWAP3 POP PUSH2 0x922 SWAP2 POP POP JUMP JUMPDEST PUSH1 0x0 SWAP3 POP POP POP PUSH2 0x922 JUMP JUMPDEST PUSH2 0x9A2 PUSH20 0x19BE259BC299F3F653688C7655C87F998BC7BC1 DUP4 DUP4 PUSH2 0x266B JUMP JUMPDEST PUSH1 0x0 PUSH4 0xFFFFFFFF DUP3 GT ISZERO PUSH2 0xE58 JUMPI PUSH1 0x0 DUP1 REVERT JUMPDEST PUSH1 0x0 PUSH1 0x1 PUSH1 0x1 PUSH1 0x50 SHL SUB DUP3 GT ISZERO PUSH2 0xE58 JUMPI PUSH1 0x0 DUP1 REVERT JUMPDEST PUSH1 0x0 PUSH2 0x1DB4 DUP7 DUP4 PUSH2 0x26E7 JUMP JUMPDEST SWAP1 POP PUSH2 0x63F DUP7 DUP7 DUP7 PUSH2 0x1DC6 DUP8 DUP7 PUSH2 0x2726 JUMP JUMPDEST PUSH2 0x27AD JUMP JUMPDEST PUSH1 0x0 PUSH11 0x7FFFFFFFFFFFFFFFFFFFFF NOT DUP3 SLT DUP1 ISZERO SWAP1 PUSH2 0x1DF4 JUMPI POP PUSH11 0x7FFFFFFFFFFFFFFFFFFFFF DUP3 SGT ISZERO JUMPDEST PUSH2 0xE58 JUMPI PUSH1 0x0 DUP1 REVERT JUMPDEST PUSH1 0x0 DUP4 PUSH2 0x1E0C JUMPI POP PUSH1 0x0 PUSH2 0x63F JUMP JUMPDEST PUSH1 0x0 DUP5 SLT PUSH2 0x1E19 JUMPI PUSH1 0x0 DUP1 REVERT JUMPDEST PUSH1 0x0 PUSH2 0x1E28 DUP7 PUSH2 0xFFFF AND PUSH2 0x27E1 JUMP JUMPDEST SWAP1 POP PUSH2 0x1E3D DUP2 PUSH2 0x1E38 DUP7 DUP9 PUSH2 0x27F4 JUMP JUMPDEST PUSH2 0x2820 JUMP JUMPDEST SWAP2 POP PUSH1 0x0 PUSH2 0x1E4A DUP4 PUSH2 0xEB0 JUMP JUMPDEST SWAP1 POP PUSH2 0x1E57 DUP8 DUP4 DUP4 PUSH2 0x2858 JUMP JUMPDEST PUSH1 0x3 DUP3 PUSH1 0x60 ADD MLOAD PUSH1 0x5 DUP2 GT ISZERO PUSH2 0x1E69 JUMPI INVALID JUMPDEST EQ ISZERO PUSH2 0x1E7F JUMPI PUSH2 0x1E7A DUP9 DUP3 DUP7 PUSH2 0x294C JUMP JUMPDEST PUSH2 0x1E8C JUMP JUMPDEST DUP2 MLOAD PUSH2 0x1E8C SWAP1 DUP10 DUP4 PUSH2 0x266B JUMP JUMPDEST PUSH2 0x1E99 DUP9 DUP9 DUP6 DUP6 DUP10 PUSH2 0x2A14 JUMP JUMPDEST POP POP POP SWAP6 SWAP5 POP POP POP POP POP JUMP JUMPDEST DUP2 DUP2 ADD DUP3 DUP2 SLT ISZERO PUSH1 0x0 DUP4 SLT ISZERO EQ PUSH2 0x318 JUMPI PUSH1 0x0 DUP1 REVERT JUMPDEST DUP3 PUSH1 0x0 LT DUP1 ISZERO PUSH2 0x1ECD JUMPI POP PUSH2 0x3FFF DUP4 GT ISZERO JUMPDEST PUSH2 0x1ED6 JUMPI PUSH1 0x0 DUP1 REVERT JUMPDEST DUP2 DUP1 ISZERO PUSH2 0x1EEA JUMPI POP DUP3 DUP5 PUSH1 0x60 ADD MLOAD PUSH2 0xFFFF AND EQ JUMPDEST ISZERO PUSH2 0x1EF4 JUMPI PUSH2 0xD70 JUMP JUMPDEST PUSH1 0x80 DUP5 ADD MLOAD PUSH1 0x0 SWAP1 DUP2 JUMPDEST PUSH1 0x1 PUSH1 0x1 PUSH1 0x70 SHL SUB NOT DUP3 AND ISZERO PUSH2 0x206F JUMPI PUSH1 0xF0 DUP3 SWAP1 SHR PUSH2 0x3FFF AND DUP7 DUP2 EQ DUP1 ISZERO PUSH2 0x1F23 JUMPI POP DUP6 JUMPDEST ISZERO PUSH2 0x1F5B JUMPI POP PUSH1 0x80 DUP8 ADD DUP1 MLOAD PUSH1 0x1 PUSH1 0x1 PUSH1 0xF0 SHL SUB NOT DUP7 AND PUSH1 0x10 SWAP1 SWAP4 MUL SWAP3 SWAP1 SWAP3 SHR SWAP2 SWAP1 SWAP2 OR PUSH1 0x1 PUSH1 0x1 PUSH1 0x70 SHL SUB NOT AND SWAP1 MSTORE POP PUSH2 0xD70 SWAP1 POP JUMP JUMPDEST DUP7 DUP2 EQ DUP1 ISZERO PUSH2 0x1F68 JUMPI POP DUP6 ISZERO JUMPDEST ISZERO PUSH2 0x1FBD JUMPI PUSH1 0x1 PUSH1 0x1 PUSH1 0xF0 SHL SUB NOT DUP6 AND NOT SWAP3 SWAP1 SWAP3 AND SWAP2 PUSH1 0x3 PUSH1 0xFE SHL DUP4 AND PUSH2 0x1F9B JUMPI PUSH1 0x10 DUP4 PUSH1 0x1 PUSH1 0x1 PUSH1 0x70 SHL SUB NOT AND SWAP1 SHL SWAP3 POP JUMPDEST POP PUSH1 0x1 PUSH1 0x1 PUSH1 0x70 SHL SUB NOT SWAP2 DUP3 AND PUSH1 0x10 SWAP1 SWAP2 MUL SHR SWAP2 SWAP1 SWAP2 OR AND PUSH1 0x80 DUP6 ADD MSTORE PUSH2 0xD70 JUMP JUMPDEST DUP7 DUP2 GT DUP1 ISZERO PUSH2 0x1FC9 JUMPI POP DUP6 JUMPDEST ISZERO PUSH2 0x2023 JUMPI PUSH1 0x80 DUP9 DUP2 ADD MLOAD PUSH1 0x1 PUSH1 0x1 PUSH1 0xF0 SHL SUB NOT PUSH1 0xF0 DUP11 SWAP1 SHL DUP9 OR DUP2 AND PUSH1 0x10 DUP7 MUL SHR SWAP7 SWAP1 SWAP7 OR SWAP6 SWAP2 SHL AND ISZERO PUSH2 0x1FFD JUMPI PUSH1 0x0 DUP1 REVERT JUMPDEST POP PUSH1 0x1 PUSH1 0x1 PUSH1 0x70 SHL SUB NOT SWAP2 DUP3 AND PUSH1 0x1 SWAP2 SWAP1 SWAP2 ADD PUSH1 0x10 MUL SHR SWAP2 SWAP1 SWAP2 OR AND PUSH1 0x80 DUP6 ADD MSTORE PUSH2 0xD70 JUMP JUMPDEST DUP7 DUP2 GT DUP1 ISZERO PUSH2 0x2030 JUMPI POP DUP6 ISZERO JUMPDEST ISZERO PUSH2 0x203E JUMPI POP POP POP POP PUSH2 0xD70 JUMP JUMPDEST POP PUSH1 0x1 PUSH1 0x1 PUSH1 0xF0 SHL SUB NOT DUP3 AND PUSH1 0x10 DUP3 DUP2 MUL SWAP2 SWAP1 SWAP2 SHR SWAP4 SWAP1 SWAP4 OR SWAP3 SWAP2 SWAP1 SWAP2 SHL PUSH1 0x1 PUSH1 0x1 PUSH1 0x80 SHL SUB NOT AND SWAP1 PUSH1 0x1 ADD PUSH2 0x1EFE JUMP JUMPDEST DUP5 PUSH2 0x207C JUMPI POP POP POP PUSH2 0xD70 JUMP JUMPDEST PUSH1 0x9 DUP2 LT PUSH2 0x2089 JUMPI PUSH1 0x0 DUP1 REVERT JUMPDEST PUSH1 0x1 PUSH1 0x1 PUSH1 0xF0 SHL SUB NOT PUSH1 0xF0 DUP8 SWAP1 SHL DUP6 OR AND PUSH1 0x10 SWAP1 SWAP2 MUL SHR SWAP2 SWAP1 SWAP2 OR PUSH1 0x1 PUSH1 0x1 PUSH1 0x70 SHL SUB NOT AND PUSH1 0x80 DUP7 ADD MSTORE POP POP POP POP POP JUMP JUMPDEST PUSH1 0x0 DUP1 PUSH2 0x318 PUSH1 0x1D PUSH2 0xFF9 JUMP JUMPDEST PUSH1 0x0 DUP1 PUSH2 0x20D2 PUSH2 0x2A5B JUMP JUMPDEST PUSH2 0xFFFF SWAP4 SWAP1 SWAP4 AND PUSH1 0x0 SWAP1 DUP2 MSTORE PUSH1 0x20 SWAP4 SWAP1 SWAP4 MSTORE POP POP PUSH1 0x40 SWAP1 KECCAK256 SLOAD PUSH1 0x1 PUSH1 0x1 PUSH1 0xA0 SHL SUB AND SWAP1 JUMP JUMPDEST PUSH1 0x0 DUP1 PUSH1 0x0 DUP1 PUSH1 0x0 DUP1 PUSH2 0x210A DUP10 DUP9 PUSH2 0x2A68 JUMP JUMPDEST DUP10 MLOAD SWAP1 SWAP6 POP SWAP2 SWAP4 POP SWAP2 POP PUSH1 0x0 SWAP1 PUSH2 0x2131 SWAP1 PUSH2 0x2126 SWAP1 DUP12 SWAP1 PUSH2 0x2201 JUMP JUMPDEST PUSH4 0x3B9ACA00 SWAP1 PUSH2 0x191D JUMP JUMPDEST SWAP1 POP PUSH2 0x216B PUSH2 0x2160 PUSH4 0x1DA9C00 PUSH2 0x2148 DUP6 DUP6 PUSH2 0x191D JUMP JUMPDEST DUP2 PUSH2 0x214F JUMPI INVALID JUMPDEST PUSH8 0xDE0B6B3A7640000 SWAP2 SWAP1 DIV PUSH2 0xDBA JUMP JUMPDEST PUSH1 0xE0 DUP11 ADD MLOAD SWAP1 PUSH2 0x2233 JUMP JUMPDEST SWAP7 POP PUSH2 0x218D PUSH2 0x2182 PUSH4 0x1DA9C00 PUSH2 0x2148 DUP8 DUP6 PUSH2 0x191D JUMP JUMPDEST PUSH1 0xC0 DUP11 ADD MLOAD SWAP1 PUSH2 0x2233 JUMP JUMPDEST SWAP6 POP DUP2 DUP4 EQ ISZERO PUSH2 0x21A4 JUMPI POP PUSH1 0x0 SWAP4 POP PUSH2 0xC91 SWAP2 POP POP JUMP JUMPDEST PUSH1 0x0 PUSH2 0x21C6 PUSH2 0x21BB PUSH4 0x1DA9C00 PUSH2 0x2148 DUP8 DUP7 PUSH2 0x191D JUMP JUMPDEST PUSH1 0xE0 DUP12 ADD MLOAD SWAP1 PUSH2 0x2233 JUMP JUMPDEST SWAP1 POP PUSH1 0x0 PUSH2 0x21D4 DUP10 DUP4 PUSH2 0x2201 JUMP JUMPDEST SWAP1 POP PUSH2 0x21F1 DUP9 PUSH2 0x1CB1 DUP4 DUP14 PUSH1 0x40 ADD MLOAD PUSH2 0x191D SWAP1 SWAP2 SWAP1 PUSH4 0xFFFFFFFF AND JUMP JUMPDEST SWAP7 POP POP POP POP POP POP SWAP4 POP SWAP4 POP SWAP4 POP SWAP4 JUMP JUMPDEST PUSH1 0x0 DUP3 DUP3 GT ISZERO PUSH2 0x2210 JUMPI PUSH1 0x0 DUP1 REVERT JUMPDEST POP SWAP1 SUB SWAP1 JUMP JUMPDEST PUSH1 0x0 PUSH2 0x3D6 PUSH2 0x222D DUP5 PUSH8 0xDE0B6B3A7640000 PUSH2 0x191D JUMP JUMPDEST DUP4 PUSH2 0x263F JUMP JUMPDEST PUSH1 0x0 PUSH2 0x3D6 PUSH2 0x2242 DUP5 DUP5 PUSH2 0x191D JUMP JUMPDEST PUSH8 0xDE0B6B3A7640000 PUSH2 0x263F JUMP JUMPDEST PUSH1 0x0 DUP1 PUSH2 0x318 PUSH1 0x25 PUSH2 0xFF9 JUMP JUMPDEST PUSH1 0x0 DUP1 DUP4 GT PUSH2 0x226B JUMPI PUSH1 0x0 DUP1 REVERT JUMPDEST DUP2 DUP7 GT ISZERO PUSH2 0x227A JUMPI POP DUP4 PUSH2 0x63F JUMP JUMPDEST PUSH1 0x0 PUSH2 0x2286 DUP4 DUP9 PUSH2 0x2201 JUMP JUMPDEST SWAP1 POP DUP4 DUP2 GT ISZERO PUSH2 0x2299 JUMPI DUP6 SWAP2 POP POP PUSH2 0x63F JUMP JUMPDEST PUSH1 0x0 PUSH2 0x22A5 DUP3 DUP7 PUSH2 0x2B02 JUMP JUMPDEST SWAP1 POP PUSH1 0x0 PUSH2 0x22B7 PUSH4 0x3B9ACA00 DUP4 PUSH2 0x2201 JUMP JUMPDEST SWAP1 POP PUSH2 0x22DE PUSH4 0x3B9ACA00 PUSH2 0x1CB1 PUSH2 0x22CE DUP11 DUP6 PUSH2 0x191D JUMP JUMPDEST PUSH2 0x22D8 DUP13 DUP8 PUSH2 0x191D JUMP JUMPDEST SWAP1 PUSH2 0xDBA JUMP JUMPDEST SWAP10 SWAP9 POP POP POP POP POP POP POP POP POP JUMP JUMPDEST PUSH1 0x0 DUP2 PUSH1 0x0 NOT EQ DUP1 ISZERO PUSH2 0x2301 JUMPI POP PUSH1 0x1 PUSH1 0xFF SHL DUP4 EQ JUMPDEST ISZERO PUSH2 0x230B JUMPI PUSH1 0x0 DUP1 REVERT JUMPDEST DUP2 DUP4 DUP2 PUSH2 0x2314 JUMPI INVALID JUMPDEST SDIV SWAP4 SWAP3 POP POP POP JUMP JUMPDEST PUSH1 0x0 DUP1 PUSH2 0x2328 DUP4 PUSH2 0x20C7 JUMP JUMPDEST PUSH1 0x1 PUSH1 0x1 PUSH1 0xA0 SHL SUB AND PUSH4 0xEF81F216 PUSH1 0x40 MLOAD DUP2 PUSH4 0xFFFFFFFF AND PUSH1 0xE0 SHL DUP2 MSTORE PUSH1 0x4 ADD PUSH1 0x40 DUP1 MLOAD DUP1 DUP4 SUB DUP2 PUSH1 0x0 DUP8 DUP1 EXTCODESIZE ISZERO DUP1 ISZERO PUSH2 0x2361 JUMPI PUSH1 0x0 DUP1 REVERT JUMPDEST POP GAS CALL ISZERO DUP1 ISZERO PUSH2 0x17F0 JUMPI RETURNDATASIZE PUSH1 0x0 DUP1 RETURNDATACOPY RETURNDATASIZE PUSH1 0x0 REVERT JUMPDEST PUSH1 0x0 PUSH2 0x237F PUSH2 0x20BA JUMP JUMPDEST PUSH1 0x0 DUP6 PUSH2 0xFFFF AND DUP2 MSTORE PUSH1 0x20 ADD SWAP1 DUP2 MSTORE PUSH1 0x20 ADD PUSH1 0x0 KECCAK256 SWAP1 POP PUSH2 0x23A3 DUP3 PUSH1 0x0 ADD MLOAD PUSH2 0x2B15 JUMP JUMPDEST DUP2 SLOAD PUSH5 0xFFFFFFFFFF NOT AND PUSH5 0xFFFFFFFFFF SWAP2 SWAP1 SWAP2 AND OR DUP2 SSTORE PUSH1 0xA0 DUP3 ADD MLOAD PUSH2 0x23C8 SWAP1 PUSH2 0x1D92 JUMP JUMPDEST PUSH1 0x2 DUP3 ADD DUP1 SLOAD PUSH10 0xFFFFFFFFFFFFFFFFFFFF NOT AND PUSH1 0x1 PUSH1 0x1 PUSH1 0x50 SHL SUB SWAP3 SWAP1 SWAP3 AND SWAP2 SWAP1 SWAP2 OR SWAP1 SSTORE PUSH1 0xC0 DUP3 ADD MLOAD PUSH2 0x23FB SWAP1 PUSH2 0x1D92 JUMP JUMPDEST DUP2 PUSH1 0x2 ADD PUSH1 0xA PUSH2 0x100 EXP DUP2 SLOAD DUP2 PUSH1 0x1 PUSH1 0x1 PUSH1 0x50 SHL SUB MUL NOT AND SWAP1 DUP4 PUSH1 0x1 PUSH1 0x1 PUSH1 0x50 SHL SUB AND MUL OR SWAP1 SSTORE POP PUSH2 0x2430 DUP3 PUSH1 0xE0 ADD MLOAD PUSH2 0x1D92 JUMP JUMPDEST DUP2 PUSH1 0x2 ADD PUSH1 0x14 PUSH2 0x100 EXP DUP2 SLOAD DUP2 PUSH1 0x1 PUSH1 0x1 PUSH1 0x50 SHL SUB MUL NOT AND SWAP1 DUP4 PUSH1 0x1 PUSH1 0x1 PUSH1 0x50 SHL SUB AND MUL OR SWAP1 SSTORE POP PUSH2 0x2465 DUP3 PUSH1 0x20 ADD MLOAD PUSH2 0x2B29 JUMP JUMPDEST DUP2 SLOAD PUSH1 0x1 PUSH1 0x1 PUSH1 0x58 SHL SUB SWAP2 SWAP1 SWAP2 AND PUSH1 0x1 PUSH1 0x28 SHL MUL PUSH16 0xFFFFFFFFFFFFFFFFFFFFFF0000000000 NOT SWAP1 SWAP2 AND OR DUP2 SSTORE PUSH1 0x40 DUP3 ADD MLOAD PUSH2 0x249F SWAP1 PUSH2 0x2B29 JUMP JUMPDEST PUSH1 0x1 DUP3 ADD DUP1 SLOAD PUSH11 0xFFFFFFFFFFFFFFFFFFFFFF NOT AND PUSH1 0x1 PUSH1 0x1 PUSH1 0x58 SHL SUB SWAP3 SWAP1 SWAP3 AND SWAP2 SWAP1 SWAP2 OR SWAP1 SSTORE PUSH1 0x80 DUP3 ADD MLOAD PUSH2 0x24D3 SWAP1 PUSH2 0x2B29 JUMP JUMPDEST DUP2 SLOAD PUSH1 0x1 PUSH1 0x1 PUSH1 0x58 SHL SUB SWAP2 SWAP1 SWAP2 AND PUSH1 0x1 PUSH1 0x80 SHL MUL PUSH11 0xFFFFFFFFFFFFFFFFFFFFFF PUSH1 0x80 SHL NOT SWAP1 SWAP2 AND OR DUP2 SSTORE PUSH1 0x60 DUP3 ADD MLOAD PUSH2 0x250B SWAP1 PUSH2 0x1D7F JUMP JUMPDEST DUP2 SLOAD PUSH4 0xFFFFFFFF SWAP2 SWAP1 SWAP2 AND PUSH1 0x1 PUSH1 0xD8 SHL MUL PUSH4 0xFFFFFFFF PUSH1 0xD8 SHL NOT SWAP1 SWAP2 AND OR DUP2 SSTORE DUP3 ISZERO PUSH2 0x2557 JUMPI PUSH1 0x0 PUSH2 0x253C DUP5 PUSH2 0xE42 JUMP JUMPDEST SWAP1 POP PUSH2 0x2548 DUP6 DUP3 PUSH2 0x2B3F JUMP JUMPDEST PUSH2 0x2555 PUSH2 0xFEE DUP7 DUP4 PUSH2 0x2B76 JUMP JUMPDEST POP JUMPDEST DUP4 PUSH2 0xFFFF AND PUSH32 0xEF25641E225E493886510CA1AD6584FA7B442B9FEA820A29D1DE3CE27D270FD2 DUP4 PUSH1 0xA0 ADD MLOAD DUP5 PUSH1 0xC0 ADD MLOAD DUP6 PUSH1 0xE0 ADD MLOAD PUSH1 0x40 MLOAD PUSH2 0x259B SWAP4 SWAP3 SWAP2 SWAP1 PUSH2 0x42F3 JUMP JUMPDEST PUSH1 0x40 MLOAD DUP1 SWAP2 SUB SWAP1 LOG2 POP POP POP POP JUMP JUMPDEST PUSH1 0x0 DUP1 PUSH1 0x0 PUSH2 0x25B7 DUP6 PUSH2 0xBDE JUMP JUMPDEST SWAP2 SWAP5 POP SWAP3 POP SWAP1 POP DUP1 DUP5 GT DUP1 ISZERO PUSH2 0x25CD JUMPI POP PUSH1 0x0 DUP2 GT JUMPDEST DUP1 ISZERO PUSH2 0x25D9 JUMPI POP PUSH1 0x0 DUP4 GT JUMPDEST ISZERO PUSH2 0x2638 JUMPI PUSH1 0x0 PUSH2 0x25E9 DUP7 PUSH2 0xDD9 JUMP JUMPDEST POP POP POP SWAP2 POP POP PUSH1 0x0 PUSH2 0x2614 PUSH2 0x260B PUSH4 0x5F5E100 DUP5 PUSH2 0x191D SWAP1 SWAP2 SWAP1 PUSH4 0xFFFFFFFF AND JUMP JUMPDEST DUP5 DUP9 SUB DUP8 PUSH2 0x2BF6 JUMP JUMPDEST SWAP1 POP PUSH2 0x2620 DUP5 DUP3 PUSH2 0xDBA JUMP JUMPDEST SWAP4 POP PUSH1 0x1 PUSH1 0x1 PUSH1 0x80 SHL SUB DUP5 LT PUSH2 0x2635 JUMPI PUSH1 0x0 DUP1 REVERT JUMPDEST POP POP JUMPDEST SWAP3 POP SWAP3 POP SWAP3 JUMP JUMPDEST PUSH1 0x0 DUP1 DUP3 GT PUSH2 0x264D JUMPI PUSH1 0x0 DUP1 REVERT JUMPDEST DUP2 DUP4 DUP2 PUSH2 0x2656 JUMPI INVALID JUMPDEST DIV SWAP4 SWAP3 POP POP POP JUMP JUMPDEST PUSH1 0x0 DUP1 PUSH2 0x318 PUSH1 0x12 PUSH2 0xFF9 JUMP JUMPDEST DUP3 PUSH1 0x1 PUSH1 0x1 PUSH1 0xA0 SHL SUB AND PUSH4 0xA9059CBB DUP4 DUP4 PUSH1 0x40 MLOAD DUP4 PUSH4 0xFFFFFFFF AND PUSH1 0xE0 SHL DUP2 MSTORE PUSH1 0x4 ADD DUP1 DUP4 PUSH1 0x1 PUSH1 0x1 PUSH1 0xA0 SHL SUB AND DUP2 MSTORE PUSH1 0x20 ADD DUP3 DUP2 MSTORE PUSH1 0x20 ADD SWAP3 POP POP POP PUSH1 0x0 PUSH1 0x40 MLOAD DUP1 DUP4 SUB DUP2 PUSH1 0x0 DUP8 DUP1 EXTCODESIZE ISZERO DUP1 ISZERO PUSH2 0x26C2 JUMPI PUSH1 0x0 DUP1 REVERT JUMPDEST POP GAS CALL ISZERO DUP1 ISZERO PUSH2 0x26D6 JUMPI RETURNDATASIZE PUSH1 0x0 DUP1 RETURNDATACOPY RETURNDATASIZE PUSH1 0x0 REVERT JUMPDEST POP POP POP POP PUSH2 0x26E2 PUSH2 0x2C18 JUMP JUMPDEST POP POP POP JUMP JUMPDEST PUSH1 0x0 DUP1 DUP3 SLT ISZERO PUSH2 0x2720 JUMPI PUSH2 0x271B PUSH1 0x1 PUSH2 0x2715 DUP6 PUSH1 0x20 ADD MLOAD PUSH2 0x1986 DUP8 PUSH1 0x0 ADD MLOAD DUP8 PUSH2 0x14CD SWAP1 SWAP2 SWAP1 PUSH4 0xFFFFFFFF AND JUMP JUMPDEST SWAP1 PUSH2 0x2C85 JUMP JUMPDEST PUSH2 0x3D6 JUMP JUMPDEST POP SWAP2 SWAP1 POP JUMP JUMPDEST PUSH1 0x0 DUP2 DUP4 EQ DUP1 PUSH2 0x2743 JUMPI POP PUSH1 0x0 DUP4 SLT ISZERO DUP1 ISZERO PUSH2 0x2743 JUMPI POP PUSH1 0x0 DUP3 SLT ISZERO JUMPDEST ISZERO PUSH2 0x2750 JUMPI POP PUSH1 0x0 PUSH2 0x318 JUMP JUMPDEST PUSH1 0x0 DUP4 SGT ISZERO DUP1 ISZERO PUSH2 0x2761 JUMPI POP DUP2 PUSH1 0x0 SLT JUMPDEST ISZERO PUSH2 0x276D JUMPI POP DUP2 PUSH2 0x318 JUMP JUMPDEST PUSH1 0x0 DUP3 SGT ISZERO DUP1 ISZERO PUSH2 0x277E JUMPI POP DUP3 PUSH1 0x0 SLT JUMPDEST ISZERO PUSH2 0x278C JUMPI PUSH2 0x198C DUP3 PUSH2 0xEB0 JUMP JUMPDEST PUSH1 0x0 DUP4 SGT ISZERO DUP1 ISZERO PUSH2 0x279E JUMPI POP PUSH1 0x0 DUP3 SGT ISZERO JUMPDEST ISZERO PUSH2 0x100 JUMPI PUSH2 0x198C DUP4 DUP4 PUSH2 0x2C85 JUMP JUMPDEST DUP1 ISZERO PUSH2 0xD70 JUMPI DUP4 MLOAD PUSH1 0x20 DUP6 ADD MLOAD PUSH1 0x0 SWAP2 PUSH2 0x27CC SWAP2 PUSH2 0x1986 SWAP1 DUP6 SWAP1 PUSH2 0x14CD JUMP JUMPDEST SWAP1 POP PUSH2 0x27DA DUP5 DUP5 DUP5 DUP5 PUSH2 0x2C9B JUMP JUMPDEST POP POP POP POP POP JUMP JUMPDEST PUSH2 0x27E9 PUSH2 0x3B6A JUMP JUMPDEST PUSH2 0x318 DUP3 PUSH1 0x1 PUSH2 0x2DDD JUMP JUMPDEST PUSH1 0x0 PUSH2 0x3D6 PUSH15 0xC097CE7BC90715B34B9F1000000000 PUSH2 0x1986 DUP6 PUSH1 0x0 ADD MLOAD DUP6 PUSH2 0x14CD SWAP1 SWAP2 SWAP1 PUSH4 0xFFFFFFFF AND JUMP JUMPDEST PUSH1 0x0 PUSH4 0x5F5E100 DUP4 PUSH1 0x40 ADD MLOAD EQ ISZERO PUSH2 0x2839 JUMPI POP DUP1 PUSH2 0x318 JUMP JUMPDEST PUSH2 0x3D6 PUSH4 0x5F5E100 PUSH2 0x1986 DUP6 PUSH1 0x40 ADD MLOAD DUP6 PUSH2 0x14CD SWAP1 SWAP2 SWAP1 PUSH4 0xFFFFFFFF AND JUMP JUMPDEST PUSH1 0x0 PUSH2 0x2862 PUSH2 0x2E77 JUMP JUMPDEST DUP4 MLOAD PUSH1 0x1 PUSH1 0x1 PUSH1 0xA0 SHL SUB AND PUSH1 0x0 SWAP1 DUP2 MSTORE PUSH1 0x20 DUP3 SWAP1 MSTORE PUSH1 0x40 SWAP1 KECCAK256 SLOAD SWAP1 SWAP2 POP DUP1 DUP4 GT PUSH2 0x288D JUMPI POP POP PUSH2 0x26E2 JUMP JUMPDEST PUSH1 0x0 PUSH2 0x2898 DUP7 PUSH2 0x20C7 JUMP JUMPDEST SWAP1 POP PUSH1 0x0 DUP2 PUSH1 0x1 PUSH1 0x1 PUSH1 0xA0 SHL SUB AND PUSH4 0xB5E4DA23 DUP7 PUSH1 0x40 MLOAD DUP3 PUSH4 0xFFFFFFFF AND PUSH1 0xE0 SHL DUP2 MSTORE PUSH1 0x4 ADD PUSH2 0x28C8 SWAP2 SWAP1 PUSH2 0x42EA JUMP JUMPDEST PUSH1 0x0 PUSH1 0x40 MLOAD DUP1 DUP4 SUB DUP2 DUP7 DUP1 EXTCODESIZE ISZERO DUP1 ISZERO PUSH2 0x28E0 JUMPI PUSH1 0x0 DUP1 REVERT JUMPDEST POP GAS STATICCALL ISZERO DUP1 ISZERO PUSH2 0x28F4 JUMPI RETURNDATASIZE PUSH1 0x0 DUP1 RETURNDATACOPY RETURNDATASIZE PUSH1 0x0 REVERT JUMPDEST POP POP POP POP PUSH1 0x40 MLOAD RETURNDATASIZE PUSH1 0x0 DUP3 RETURNDATACOPY PUSH1 0x1F RETURNDATASIZE SWAP1 DUP2 ADD PUSH1 0x1F NOT AND DUP3 ADD PUSH1 0x40 MSTORE PUSH2 0x291C SWAP2 SWAP1 DUP2 ADD SWAP1 PUSH2 0x3DF3 JUMP JUMPDEST SWAP1 POP PUSH1 0x0 PUSH2 0x292A DUP8 DUP4 PUSH2 0x2E84 JUMP JUMPDEST SWAP1 POP PUSH2 0x2936 DUP5 DUP3 PUSH2 0xDBA JUMP JUMPDEST DUP7 GT ISZERO PUSH2 0x2942 JUMPI PUSH1 0x0 DUP1 REVERT JUMPDEST POP POP POP POP POP POP POP POP JUMP JUMPDEST DUP1 ISZERO PUSH2 0x29DE JUMPI PUSH20 0x82AF49447D8A07E3BD95BD0D56F35241523FBAB1 PUSH1 0x1 PUSH1 0x1 PUSH1 0xA0 SHL SUB AND PUSH4 0xD0E30DB0 DUP4 PUSH1 0x40 MLOAD DUP3 PUSH4 0xFFFFFFFF AND PUSH1 0xE0 SHL DUP2 MSTORE PUSH1 0x4 ADD PUSH1 0x0 PUSH1 0x40 MLOAD DUP1 DUP4 SUB DUP2 DUP6 DUP9 DUP1 EXTCODESIZE ISZERO DUP1 ISZERO PUSH2 0x29A1 JUMPI PUSH1 0x0 DUP1 REVERT JUMPDEST POP GAS CALL ISZERO DUP1 ISZERO PUSH2 0x29B5 JUMPI RETURNDATASIZE PUSH1 0x0 DUP1 RETURNDATACOPY RETURNDATASIZE PUSH1 0x0 REVERT JUMPDEST POP POP POP POP POP PUSH2 0x29D9 PUSH20 0x82AF49447D8A07E3BD95BD0D56F35241523FBAB1 DUP5 DUP5 PUSH2 0x266B JUMP JUMPDEST PUSH2 0x26E2 JUMP JUMPDEST PUSH1 0x40 MLOAD PUSH1 0x1 PUSH1 0x1 PUSH1 0xA0 SHL SUB DUP5 AND SWAP1 DUP4 ISZERO PUSH2 0x8FC MUL SWAP1 DUP5 SWAP1 PUSH1 0x0 DUP2 DUP2 DUP2 DUP6 DUP9 DUP9 CALL SWAP4 POP POP POP POP ISZERO DUP1 ISZERO PUSH2 0xD70 JUMPI RETURNDATASIZE PUSH1 0x0 DUP1 RETURNDATACOPY RETURNDATASIZE PUSH1 0x0 REVERT JUMPDEST PUSH1 0x0 DUP1 PUSH2 0x2A21 DUP5 DUP7 PUSH2 0x308D JUMP JUMPDEST SWAP1 POP PUSH2 0x2A2D DUP4 DUP3 PUSH2 0x30BD JUMP JUMPDEST SWAP2 POP PUSH2 0x2A3A DUP8 DUP8 DUP5 PUSH2 0x2B76 JUMP JUMPDEST PUSH2 0x2A45 DUP7 DUP4 DUP4 PUSH2 0x30DF JUMP JUMPDEST DUP4 MLOAD PUSH2 0x2A51 SWAP1 DUP7 PUSH2 0x31CD JUMP JUMPDEST POP SWAP6 SWAP5 POP POP POP POP POP JUMP JUMPDEST PUSH1 0x0 DUP1 PUSH2 0x318 PUSH1 0x1F PUSH2 0xFF9 JUMP JUMPDEST PUSH1 0x0 DUP1 PUSH1 0x0 DUP1 PUSH1 0x0 DUP6 PUSH1 0x20 ADD MLOAD GT ISZERO PUSH2 0x2AB5 JUMPI PUSH2 0x2AB2 PUSH2 0x2A99 DUP7 PUSH1 0xC0 ADD MLOAD DUP8 PUSH1 0x20 ADD MLOAD PUSH2 0x191D SWAP1 SWAP2 SWAP1 PUSH4 0xFFFFFFFF AND JUMP JUMPDEST PUSH1 0xE0 DUP8 ADD MLOAD PUSH1 0x40 DUP9 ADD MLOAD PUSH2 0x2AAC SWAP2 PUSH2 0x191D JUMP JUMPDEST SWAP1 PUSH2 0x2B02 JUMP JUMPDEST SWAP1 POP JUMPDEST PUSH1 0x0 PUSH2 0x2AC0 DUP8 PUSH2 0x3227 JUMP JUMPDEST SWAP1 POP PUSH2 0x2ACC DUP2 DUP4 PUSH2 0x325A JUMP JUMPDEST SWAP5 POP DUP2 ISZERO PUSH2 0x2AE3 JUMPI PUSH2 0x2AE0 DUP2 DUP7 PUSH1 0x1 PUSH2 0x330D JUMP JUMPDEST SWAP4 POP JUMPDEST PUSH1 0x20 DUP7 ADD MLOAD ISZERO PUSH2 0x2635 JUMPI PUSH2 0x2AF7 DUP6 DUP4 PUSH2 0x3385 JUMP JUMPDEST SWAP3 POP POP POP SWAP3 POP SWAP3 POP SWAP3 JUMP JUMPDEST PUSH1 0x0 PUSH2 0x3D6 PUSH2 0x222D DUP5 PUSH4 0x3B9ACA00 PUSH2 0x191D JUMP JUMPDEST PUSH1 0x0 PUSH5 0xFFFFFFFFFF DUP3 GT ISZERO PUSH2 0xE58 JUMPI PUSH1 0x0 DUP1 REVERT JUMPDEST PUSH1 0x0 PUSH1 0x1 PUSH1 0x1 PUSH1 0x58 SHL SUB DUP3 GT ISZERO PUSH2 0xE58 JUMPI PUSH1 0x0 DUP1 REVERT JUMPDEST PUSH1 0x0 DUP2 SLT ISZERO PUSH2 0x2B4D JUMPI PUSH1 0x0 DUP1 REVERT JUMPDEST PUSH1 0x0 PUSH2 0x2B5B PUSH2 0xFEE DUP5 PUSH2 0x339E JUMP JUMPDEST SWAP1 POP PUSH2 0x2B67 DUP2 DUP4 PUSH2 0x1EA5 JUMP JUMPDEST SWAP1 POP PUSH2 0x26E2 PUSH2 0xFEE DUP5 DUP4 PUSH2 0x33F7 JUMP JUMPDEST PUSH1 0x0 PUSH2 0x2B80 PUSH2 0x101F JUMP JUMPDEST PUSH2 0xFFFF DUP5 AND PUSH1 0x0 SWAP1 DUP2 MSTORE PUSH1 0x20 SWAP2 SWAP1 SWAP2 MSTORE PUSH1 0x40 SWAP1 DUP2 SWAP1 KECCAK256 SLOAD SWAP1 MLOAD PUSH4 0xAD1C095D PUSH1 0xE0 SHL DUP2 MSTORE PUSH1 0x1 PUSH1 0x1 PUSH1 0xA0 SHL SUB SWAP1 SWAP2 AND SWAP2 POP DUP2 SWAP1 PUSH4 0xAD1C095D SWAP1 PUSH2 0x2BC8 SWAP1 DUP8 SWAP1 DUP7 SWAP1 PUSH1 0x4 ADD PUSH2 0x414B JUMP JUMPDEST PUSH1 0x0 PUSH1 0x40 MLOAD DUP1 DUP4 SUB DUP2 PUSH1 0x0 DUP8 DUP1 EXTCODESIZE ISZERO DUP1 ISZERO PUSH2 0x2BE2 JUMPI PUSH1 0x0 DUP1 REVERT JUMPDEST POP GAS CALL ISZERO DUP1 ISZERO PUSH2 0x2942 JUMPI RETURNDATASIZE PUSH1 0x0 DUP1 RETURNDATACOPY RETURNDATASIZE PUSH1 0x0 REVERT JUMPDEST PUSH1 0x0 PUSH2 0x1814 DUP3 PUSH2 0x1CB1 PUSH4 0x1DA9C00 DUP2 DUP9 PUSH2 0x1CAB DUP10 PUSH8 0xDE0B6B3A7640000 PUSH2 0x191D JUMP JUMPDEST PUSH1 0x0 PUSH2 0x2C22 PUSH2 0x3B99 JUMP JUMPDEST RETURNDATASIZE DUP1 ISZERO PUSH2 0x2C36 JUMPI PUSH1 0x20 DUP2 EQ PUSH2 0x2C3F JUMPI PUSH1 0x0 DUP1 REVERT JUMPDEST PUSH1 0x1 SWAP3 POP PUSH2 0x2C4A JUMP JUMPDEST PUSH1 0x20 PUSH1 0x0 DUP4 RETURNDATACOPY DUP2 MLOAD SWAP3 POP JUMPDEST POP DUP2 PUSH2 0x9A2 JUMPI PUSH1 0x40 DUP1 MLOAD PUSH3 0x461BCD PUSH1 0xE5 SHL DUP2 MSTORE PUSH1 0x20 PUSH1 0x4 DUP3 ADD MSTORE PUSH1 0x5 PUSH1 0x24 DUP3 ADD MSTORE PUSH5 0x455243323 PUSH1 0xDC SHL PUSH1 0x44 DUP3 ADD MSTORE SWAP1 MLOAD SWAP1 DUP2 SWAP1 SUB PUSH1 0x64 ADD SWAP1 REVERT JUMPDEST DUP1 DUP3 SUB DUP3 DUP2 SGT ISZERO PUSH1 0x0 DUP4 SLT ISZERO EQ PUSH2 0x318 JUMPI PUSH1 0x0 DUP1 REVERT JUMPDEST PUSH1 0x0 PUSH2 0x2CA5 PUSH2 0x20BA JUMP JUMPDEST PUSH2 0xFFFF DUP6 AND PUSH1 0x0 SWAP1 DUP2 MSTORE PUSH1 0x20 SWAP2 SWAP1 SWAP2 MSTORE PUSH1 0x40 SWAP1 KECCAK256 DUP1 SLOAD SWAP1 SWAP2 POP PUSH5 0xFFFFFFFFFF AND TIMESTAMP EQ PUSH2 0x2CD0 JUMPI PUSH1 0x0 DUP1 REVERT JUMPDEST DUP1 SLOAD PUSH1 0x1 PUSH1 0xF8 SHL SWAP1 DIV PUSH1 0xFF AND PUSH2 0x2CE5 JUMPI PUSH1 0x0 DUP1 REVERT JUMPDEST PUSH1 0x1 DUP2 ADD SLOAD PUSH1 0x0 SWAP1 PUSH2 0x2D00 SWAP1 PUSH1 0x1 PUSH1 0x1 PUSH1 0x58 SHL SUB AND DUP6 PUSH2 0x1EA5 JUMP JUMPDEST DUP3 SLOAD SWAP1 SWAP2 POP PUSH1 0x0 SWAP1 PUSH2 0x2D22 SWAP1 PUSH1 0x1 PUSH1 0x28 SHL SWAP1 DIV PUSH1 0x1 PUSH1 0x1 PUSH1 0x58 SHL SUB AND DUP6 PUSH2 0x1EA5 JUMP JUMPDEST SWAP1 POP DUP2 PUSH1 0x9 NOT SLT DUP1 ISZERO PUSH2 0x2D35 JUMPI POP PUSH1 0x0 DUP3 SLT JUMPDEST ISZERO PUSH2 0x2D3F JUMPI PUSH1 0x0 SWAP2 POP JUMPDEST DUP1 PUSH1 0x9 NOT SLT DUP1 ISZERO PUSH2 0x2D50 JUMPI POP PUSH1 0x0 DUP2 SLT JUMPDEST ISZERO PUSH2 0x2D59 JUMPI POP PUSH1 0x0 JUMPDEST PUSH2 0x2D6A PUSH2 0x2D65 DUP4 PUSH2 0x126B JUMP JUMPDEST PUSH2 0x2B29 JUMP JUMPDEST PUSH1 0x1 DUP5 ADD DUP1 SLOAD PUSH11 0xFFFFFFFFFFFFFFFFFFFFFF NOT AND PUSH1 0x1 PUSH1 0x1 PUSH1 0x58 SHL SUB SWAP3 SWAP1 SWAP3 AND SWAP2 SWAP1 SWAP2 OR SWAP1 SSTORE PUSH2 0x2D9C PUSH2 0x2D65 DUP3 PUSH2 0x126B JUMP JUMPDEST DUP4 SLOAD PUSH1 0x1 PUSH1 0x1 PUSH1 0x58 SHL SUB SWAP2 SWAP1 SWAP2 AND PUSH1 0x1 PUSH1 0x28 SHL MUL PUSH16 0xFFFFFFFFFFFFFFFFFFFFFF0000000000 NOT SWAP1 SWAP2 AND OR DUP4 SSTORE PUSH2 0x2DD4 DUP8 DUP8 DUP7 DUP9 PUSH2 0x346B JUMP JUMPDEST POP POP POP POP POP POP POP JUMP JUMPDEST PUSH2 0x2DE5 PUSH2 0x3B6A JUMP JUMPDEST PUSH1 0x0 PUSH2 0x2DEF PUSH2 0x357F JUMP JUMPDEST PUSH1 0x0 DUP6 DUP2 MSTORE PUSH1 0x20 DUP3 DUP2 MSTORE PUSH1 0x40 DUP1 DUP4 KECCAK256 DUP8 ISZERO ISZERO DUP5 MSTORE DUP3 MSTORE SWAP2 DUP3 SWAP1 KECCAK256 DUP3 MLOAD PUSH1 0xA0 DUP2 ADD DUP5 MSTORE DUP2 SLOAD PUSH1 0x1 PUSH1 0x1 PUSH1 0xA0 SHL SUB DUP2 AND DUP3 MSTORE PUSH1 0xFF PUSH1 0x1 PUSH1 0xA0 SHL DUP3 DIV DUP2 AND ISZERO ISZERO SWAP5 DUP4 ADD SWAP5 SWAP1 SWAP5 MSTORE PUSH1 0x1 PUSH1 0xB0 SHL DUP2 DIV DUP5 AND PUSH1 0xA EXP SWAP5 DUP3 ADD SWAP5 SWAP1 SWAP5 MSTORE SWAP4 SWAP5 POP SWAP3 SWAP2 PUSH1 0x60 DUP4 ADD SWAP2 PUSH1 0x1 PUSH1 0xA8 SHL SWAP1 SWAP2 DIV AND PUSH1 0x5 DUP2 GT ISZERO PUSH2 0x2E64 JUMPI INVALID JUMPDEST DUP2 MSTORE PUSH1 0x0 PUSH1 0x20 SWAP1 SWAP2 ADD MSTORE SWAP6 SWAP5 POP POP POP POP POP JUMP JUMPDEST PUSH1 0x0 DUP1 PUSH2 0x318 PUSH1 0x26 PUSH2 0xFF9 JUMP JUMPDEST PUSH1 0x0 DUP1 JUMPDEST DUP3 MLOAD DUP2 LT ISZERO PUSH2 0x3086 JUMPI PUSH1 0x0 DUP4 DUP3 DUP2 MLOAD DUP2 LT PUSH2 0x2E9F JUMPI INVALID JUMPDEST PUSH1 0x20 MUL PUSH1 0x20 ADD ADD MLOAD SWAP1 POP PUSH1 0x0 DUP2 PUSH1 0x60 ADD MLOAD PUSH1 0x1 PUSH1 0x1 PUSH1 0xA0 SHL SUB AND PUSH4 0x70A08231 ADDRESS PUSH1 0x40 MLOAD DUP3 PUSH4 0xFFFFFFFF AND PUSH1 0xE0 SHL DUP2 MSTORE PUSH1 0x4 ADD PUSH2 0x2EDB SWAP2 SWAP1 PUSH2 0x4114 JUMP JUMPDEST PUSH1 0x20 PUSH1 0x40 MLOAD DUP1 DUP4 SUB DUP2 DUP7 DUP1 EXTCODESIZE ISZERO DUP1 ISZERO PUSH2 0x2EF3 JUMPI PUSH1 0x0 DUP1 REVERT JUMPDEST POP GAS STATICCALL ISZERO DUP1 ISZERO PUSH2 0x2F07 JUMPI RETURNDATASIZE PUSH1 0x0 DUP1 RETURNDATACOPY RETURNDATASIZE PUSH1 0x0 REVERT JUMPDEST POP POP POP POP PUSH1 0x40 MLOAD RETURNDATASIZE PUSH1 0x1F NOT PUSH1 0x1F DUP3 ADD AND DUP3 ADD DUP1 PUSH1 0x40 MSTORE POP DUP2 ADD SWAP1 PUSH2 0x2F2B SWAP2 SWAP1 PUSH2 0x40D9 JUMP JUMPDEST SWAP1 POP PUSH1 0x0 PUSH2 0x2F39 DUP8 ADDRESS PUSH2 0x358C JUMP JUMPDEST SWAP1 POP PUSH1 0x0 JUMPDEST DUP4 MLOAD MLOAD DUP2 LT ISZERO PUSH2 0x2F8A JUMPI PUSH2 0x2F82 DUP5 PUSH1 0x0 ADD MLOAD DUP3 DUP2 MLOAD DUP2 LT PUSH2 0x2F5B JUMPI INVALID JUMPDEST PUSH1 0x20 MUL PUSH1 0x20 ADD ADD MLOAD PUSH1 0x0 DUP7 PUSH1 0x20 ADD MLOAD DUP5 DUP2 MLOAD DUP2 LT PUSH2 0x2F75 JUMPI INVALID JUMPDEST PUSH1 0x20 MUL PUSH1 0x20 ADD ADD MLOAD PUSH2 0x3636 JUMP JUMPDEST PUSH1 0x1 ADD PUSH2 0x2F3E JUMP JUMPDEST POP PUSH1 0x0 PUSH2 0x2F97 DUP9 ADDRESS PUSH2 0x358C JUMP JUMPDEST SWAP1 POP PUSH1 0x0 PUSH2 0x2FA5 DUP3 DUP5 PUSH2 0x2201 JUMP JUMPDEST SWAP1 POP DUP1 DUP6 PUSH1 0x40 ADD MLOAD GT ISZERO PUSH2 0x2FB8 JUMPI PUSH1 0x0 DUP1 REVERT JUMPDEST PUSH1 0x60 DUP6 ADD MLOAD PUSH1 0x40 MLOAD PUSH4 0x70A08231 PUSH1 0xE0 SHL DUP2 MSTORE PUSH1 0x0 SWAP2 PUSH1 0x1 PUSH1 0x1 PUSH1 0xA0 SHL SUB AND SWAP1 PUSH4 0x70A08231 SWAP1 PUSH2 0x2FEB SWAP1 ADDRESS SWAP1 PUSH1 0x4 ADD PUSH2 0x4114 JUMP JUMPDEST PUSH1 0x20 PUSH1 0x40 MLOAD DUP1 DUP4 SUB DUP2 DUP7 DUP1 EXTCODESIZE ISZERO DUP1 ISZERO PUSH2 0x3003 JUMPI PUSH1 0x0 DUP1 REVERT JUMPDEST POP GAS STATICCALL ISZERO DUP1 ISZERO PUSH2 0x3017 JUMPI RETURNDATASIZE PUSH1 0x0 DUP1 RETURNDATACOPY RETURNDATASIZE PUSH1 0x0 REVERT JUMPDEST POP POP POP POP PUSH1 0x40 MLOAD RETURNDATASIZE PUSH1 0x1F NOT PUSH1 0x1F DUP3 ADD AND DUP3 ADD DUP1 PUSH1 0x40 MSTORE POP DUP2 ADD SWAP1 PUSH2 0x303B SWAP2 SWAP1 PUSH2 0x40D9 JUMP JUMPDEST SWAP1 POP DUP5 DUP2 GT ISZERO PUSH2 0x304A JUMPI PUSH1 0x0 DUP1 REVERT JUMPDEST PUSH2 0x3059 DUP7 PUSH1 0x60 ADD MLOAD DUP7 DUP4 PUSH2 0x377B JUMP JUMPDEST PUSH2 0x3063 DUP9 DUP4 PUSH2 0xDBA JUMP JUMPDEST SWAP8 POP PUSH2 0x3074 DUP11 PUSH1 0x0 ADD MLOAD DUP6 DUP6 PUSH2 0x377B JUMP JUMPDEST POP POP PUSH1 0x1 SWAP1 SWAP5 ADD SWAP4 POP PUSH2 0x2E88 SWAP3 POP POP POP JUMP JUMPDEST POP SWAP3 SWAP2 POP POP JUMP JUMPDEST PUSH1 0x0 PUSH4 0x5F5E100 DUP4 PUSH1 0x40 ADD MLOAD EQ ISZERO PUSH2 0x30A6 JUMPI POP DUP1 PUSH2 0x318 JUMP JUMPDEST PUSH1 0x40 DUP4 ADD MLOAD PUSH2 0x3D6 SWAP1 PUSH2 0x1986 DUP5 PUSH4 0x5F5E100 PUSH2 0x14CD JUMP JUMPDEST DUP2 MLOAD PUSH1 0x0 SWAP1 PUSH2 0x3D6 SWAP1 PUSH2 0x1986 DUP5 PUSH15 0xC097CE7BC90715B34B9F1000000000 PUSH2 0x14CD JUMP JUMPDEST PUSH1 0x0 PUSH2 0x30E9 PUSH2 0x20BA JUMP JUMPDEST PUSH2 0xFFFF DUP6 AND PUSH1 0x0 SWAP1 DUP2 MSTORE PUSH1 0x20 SWAP2 SWAP1 SWAP2 MSTORE PUSH1 0x40 SWAP1 KECCAK256 DUP1 SLOAD SWAP1 SWAP2 POP PUSH5 0xFFFFFFFFFF AND TIMESTAMP EQ PUSH2 0x3114 JUMPI PUSH1 0x0 DUP1 REVERT JUMPDEST DUP1 SLOAD PUSH1 0x0 SWAP1 PUSH2 0x3133 SWAP1 PUSH1 0x1 PUSH1 0x28 SHL SWAP1 DIV PUSH1 0x1 PUSH1 0x1 PUSH1 0x58 SHL SUB AND DUP6 PUSH2 0x1EA5 JUMP JUMPDEST DUP3 SLOAD SWAP1 SWAP2 POP PUSH1 0x0 SWAP1 PUSH2 0x3155 SWAP1 PUSH1 0x1 PUSH1 0x80 SHL SWAP1 DIV PUSH1 0x1 PUSH1 0x1 PUSH1 0x58 SHL SUB AND DUP6 PUSH2 0x1EA5 JUMP JUMPDEST SWAP1 POP PUSH2 0x3163 PUSH2 0x2D65 DUP3 PUSH2 0x126B JUMP JUMPDEST DUP4 SLOAD PUSH1 0x1 PUSH1 0x1 PUSH1 0x58 SHL SUB SWAP2 SWAP1 SWAP2 AND PUSH1 0x1 PUSH1 0x80 SHL MUL PUSH11 0xFFFFFFFFFFFFFFFFFFFFFF PUSH1 0x80 SHL NOT SWAP1 SWAP2 AND OR DUP4 SSTORE PUSH2 0x3199 PUSH2 0x2D65 DUP4 PUSH2 0x126B JUMP JUMPDEST DUP4 SLOAD PUSH1 0x1 PUSH1 0x1 PUSH1 0x58 SHL SUB SWAP2 SWAP1 SWAP2 AND PUSH1 0x1 PUSH1 0x28 SHL MUL PUSH16 0xFFFFFFFFFFFFFFFFFFFFFF0000000000 NOT SWAP1 SWAP2 AND OR SWAP1 SWAP3 SSTORE POP POP POP POP POP JUMP JUMPDEST PUSH1 0x0 PUSH2 0x31D7 PUSH2 0x2E77 JUMP JUMPDEST PUSH1 0x1 PUSH1 0x1 PUSH1 0xA0 SHL SUB DUP5 AND PUSH1 0x0 SWAP1 DUP2 MSTORE PUSH1 0x20 DUP3 SWAP1 MSTORE PUSH1 0x40 SWAP1 KECCAK256 SLOAD SWAP1 SWAP2 POP PUSH2 0x3205 PUSH2 0x3200 DUP3 DUP6 PUSH2 0x1EA5 JUMP JUMPDEST PUSH2 0x126B JUMP JUMPDEST PUSH1 0x1 PUSH1 0x1 PUSH1 0xA0 SHL SUB SWAP1 SWAP5 AND PUSH1 0x0 SWAP1 DUP2 MSTORE PUSH1 0x20 SWAP3 SWAP1 SWAP3 MSTORE POP PUSH1 0x40 SWAP1 KECCAK256 SWAP2 SWAP1 SWAP2 SSTORE POP JUMP JUMPDEST PUSH2 0x322F PUSH2 0x3BB7 JUMP JUMPDEST PUSH1 0x0 PUSH2 0x3239 PUSH2 0x37F8 JUMP JUMPDEST PUSH2 0xFFFF DUP5 AND PUSH1 0x0 SWAP1 DUP2 MSTORE PUSH1 0x20 SWAP2 SWAP1 SWAP2 MSTORE PUSH1 0x40 DUP2 KECCAK256 SLOAD SWAP2 POP PUSH2 0x3D6 SWAP1 DUP3 PUSH2 0x3805 JUMP JUMPDEST PUSH1 0x0 DUP1 DUP4 PUSH1 0x80 ADD MLOAD GT PUSH2 0x326C JUMPI PUSH1 0x0 DUP1 REVERT JUMPDEST PUSH4 0x3B9ACA00 DUP3 GT ISZERO PUSH2 0x327D JUMPI PUSH1 0x0 DUP1 REVERT JUMPDEST DUP3 MLOAD DUP3 GT PUSH2 0x329C JUMPI DUP3 MLOAD PUSH1 0x40 DUP5 ADD MLOAD PUSH2 0x198C SWAP2 SWAP1 PUSH2 0x1CB1 SWAP1 DUP6 SWAP1 PUSH2 0x191D JUMP JUMPDEST DUP3 PUSH1 0x20 ADD MLOAD DUP3 GT PUSH2 0x32D4 JUMPI PUSH1 0x40 DUP4 ADD MLOAD DUP4 MLOAD PUSH1 0x20 DUP6 ADD MLOAD PUSH1 0x60 DUP7 ADD MLOAD PUSH2 0x198C SWAP4 SWAP3 PUSH2 0x22D8 SWAP3 DUP2 SWAP1 SUB SWAP2 PUSH2 0x1CB1 SWAP2 DUP9 SUB SWAP1 DUP6 SWAP1 SUB PUSH2 0x191D JUMP JUMPDEST PUSH2 0x3D6 DUP4 PUSH1 0x60 ADD MLOAD PUSH2 0x22D8 DUP6 PUSH1 0x20 ADD MLOAD PUSH4 0x3B9ACA00 SUB PUSH2 0x1CB1 DUP8 PUSH1 0x60 ADD MLOAD DUP9 PUSH1 0x80 ADD MLOAD SUB DUP9 PUSH1 0x20 ADD MLOAD DUP9 SUB PUSH2 0x191D SWAP1 SWAP2 SWAP1 PUSH4 0xFFFFFFFF AND JUMP JUMPDEST PUSH1 0x0 DUP1 PUSH2 0x332C PUSH1 0x64 PUSH2 0x1CB1 DUP8 PUSH1 0xE0 ADD MLOAD DUP8 PUSH2 0x191D SWAP1 SWAP2 SWAP1 PUSH4 0xFFFFFFFF AND JUMP JUMPDEST SWAP1 POP DUP5 PUSH1 0xA0 ADD MLOAD DUP2 LT ISZERO PUSH2 0x3341 JUMPI POP PUSH1 0xA0 DUP5 ADD MLOAD JUMPDEST DUP5 PUSH1 0xC0 ADD MLOAD DUP2 GT ISZERO PUSH2 0x3354 JUMPI POP PUSH1 0xC0 DUP5 ADD MLOAD JUMPDEST DUP3 ISZERO PUSH2 0x336B JUMPI PUSH2 0x3364 DUP5 DUP3 PUSH2 0xDBA JUMP JUMPDEST SWAP2 POP PUSH2 0x4B8 JUMP JUMPDEST DUP4 DUP2 GT PUSH2 0x337A JUMPI DUP1 DUP5 SUB PUSH2 0x63F JUMP JUMPDEST PUSH1 0x0 SWAP6 SWAP5 POP POP POP POP POP JUMP JUMPDEST PUSH1 0x0 PUSH2 0x3D6 PUSH2 0x3394 DUP5 DUP5 PUSH2 0x191D JUMP JUMPDEST PUSH4 0x3B9ACA00 PUSH2 0x263F JUMP JUMPDEST PUSH1 0x0 DUP1 PUSH2 0x33A9 PUSH2 0x1944 JUMP JUMPDEST PUSH1 0x1 PUSH1 0x1 PUSH1 0xA0 SHL SUB DUP6 AND PUSH1 0x0 SWAP1 DUP2 MSTORE PUSH1 0x20 DUP3 DUP2 MSTORE PUSH1 0x40 DUP1 DUP4 KECCAK256 PUSH2 0xFFFF DUP9 AND DUP5 MSTORE SWAP1 SWAP2 MSTORE DUP2 KECCAK256 DUP1 SLOAD PUSH1 0x1 PUSH1 0xA8 SHL SWAP1 DIV PUSH1 0xA SWAP1 DUP2 SIGNEXTEND SWAP1 SIGNEXTEND SWAP5 POP SWAP2 SWAP3 POP DUP4 SLT ISZERO PUSH2 0x33EF JUMPI PUSH1 0x0 DUP1 REVERT JUMPDEST POP POP SWAP3 SWAP2 POP POP JUMP JUMPDEST PUSH1 0x0 DUP2 SLT ISZERO PUSH2 0x3405 JUMPI PUSH1 0x0 DUP1 REVERT JUMPDEST PUSH1 0x0 PUSH2 0x340F PUSH2 0x1944 JUMP JUMPDEST PUSH1 0x1 PUSH1 0x1 PUSH1 0xA0 SHL SUB DUP6 AND PUSH1 0x0 SWAP1 DUP2 MSTORE PUSH1 0x20 DUP3 DUP2 MSTORE PUSH1 0x40 DUP1 DUP4 KECCAK256 PUSH2 0xFFFF DUP9 AND DUP5 MSTORE SWAP1 SWAP2 MSTORE SWAP1 KECCAK256 SWAP1 SWAP2 POP PUSH2 0x3440 DUP4 PUSH2 0x1DCB JUMP JUMPDEST DUP2 SLOAD PUSH1 0xA SWAP2 SWAP1 SWAP2 SIGNEXTEND PUSH1 0x1 PUSH1 0x1 PUSH1 0x58 SHL SUB AND PUSH1 0x1 PUSH1 0xA8 SHL MUL PUSH1 0x1 PUSH1 0x1 PUSH1 0xA8 SHL SUB SWAP1 SWAP2 AND OR SWAP1 SSTORE POP POP POP POP JUMP JUMPDEST PUSH1 0x0 PUSH2 0x3475 PUSH2 0x101F JUMP JUMPDEST PUSH2 0xFFFF DUP6 AND PUSH1 0x0 SWAP1 DUP2 MSTORE PUSH1 0x20 SWAP2 SWAP1 SWAP2 MSTORE PUSH1 0x40 DUP2 KECCAK256 SLOAD PUSH1 0x1 PUSH1 0x1 PUSH1 0xA0 SHL SUB AND SWAP2 POP PUSH2 0x349D PUSH2 0x3924 JUMP JUMPDEST PUSH2 0xFFFF DUP7 AND PUSH1 0x0 SWAP1 DUP2 MSTORE PUSH1 0x20 SWAP2 SWAP1 SWAP2 MSTORE PUSH1 0x40 SWAP1 DUP2 SWAP1 KECCAK256 SLOAD SWAP1 MLOAD PUSH4 0xAD1C095D PUSH1 0xE0 SHL DUP2 MSTORE PUSH1 0x1 PUSH1 0x1 PUSH1 0xA0 SHL SUB SWAP1 SWAP2 AND SWAP2 POP DUP2 SWAP1 PUSH4 0xAD1C095D SWAP1 PUSH2 0x34E5 SWAP1 DUP10 SWAP1 DUP8 SWAP1 PUSH1 0x4 ADD PUSH2 0x414B JUMP JUMPDEST PUSH1 0x0 PUSH1 0x40 MLOAD DUP1 DUP4 SUB DUP2 PUSH1 0x0 DUP8 DUP1 EXTCODESIZE ISZERO DUP1 ISZERO PUSH2 0x34FF JUMPI PUSH1 0x0 DUP1 REVERT JUMPDEST POP GAS CALL ISZERO DUP1 ISZERO PUSH2 0x3513 JUMPI RETURNDATASIZE PUSH1 0x0 DUP1 RETURNDATACOPY RETURNDATASIZE PUSH1 0x0 REVERT JUMPDEST POP POP PUSH1 0x40 MLOAD PUSH4 0xAD1C095D PUSH1 0xE0 SHL DUP2 MSTORE PUSH1 0x1 PUSH1 0x1 PUSH1 0xA0 SHL SUB DUP6 AND SWAP3 POP PUSH4 0xAD1C095D SWAP2 POP PUSH2 0x3545 SWAP1 DUP10 SWAP1 DUP9 SWAP1 PUSH1 0x4 ADD PUSH2 0x414B JUMP JUMPDEST PUSH1 0x0 PUSH1 0x40 MLOAD DUP1 DUP4 SUB DUP2 PUSH1 0x0 DUP8 DUP1 EXTCODESIZE ISZERO DUP1 ISZERO PUSH2 0x355F JUMPI PUSH1 0x0 DUP1 REVERT JUMPDEST POP GAS CALL ISZERO DUP1 ISZERO PUSH2 0x3573 JUMPI RETURNDATASIZE PUSH1 0x0 DUP1 RETURNDATACOPY RETURNDATASIZE PUSH1 0x0 REVERT JUMPDEST POP POP POP POP POP POP POP POP POP POP JUMP JUMPDEST PUSH1 0x0 DUP1 PUSH2 0x318 PUSH1 0x7 PUSH2 0xFF9 JUMP JUMPDEST PUSH1 0x0 PUSH1 0x3 DUP4 PUSH1 0x60 ADD MLOAD PUSH1 0x5 DUP2 GT ISZERO PUSH2 0x35A0 JUMPI INVALID JUMPDEST EQ ISZERO PUSH2 0x35B7 JUMPI POP PUSH1 0x1 PUSH1 0x1 PUSH1 0xA0 SHL SUB DUP2 AND BALANCE PUSH2 0x318 JUMP JUMPDEST DUP3 MLOAD PUSH1 0x40 MLOAD PUSH4 0x70A08231 PUSH1 0xE0 SHL DUP2 MSTORE PUSH1 0x1 PUSH1 0x1 PUSH1 0xA0 SHL SUB SWAP1 SWAP2 AND SWAP1 PUSH4 0x70A08231 SWAP1 PUSH2 0x35E6 SWAP1 DUP6 SWAP1 PUSH1 0x4 ADD PUSH2 0x4114 JUMP JUMPDEST PUSH1 0x20 PUSH1 0x40 MLOAD DUP1 DUP4 SUB DUP2 DUP7 DUP1 EXTCODESIZE ISZERO DUP1 ISZERO PUSH2 0x35FE JUMPI PUSH1 0x0 DUP1 REVERT JUMPDEST POP GAS STATICCALL ISZERO DUP1 ISZERO PUSH2 0x3612 JUMPI RETURNDATASIZE PUSH1 0x0 DUP1 RETURNDATACOPY RETURNDATASIZE PUSH1 0x0 REVERT JUMPDEST POP POP POP POP PUSH1 0x40 MLOAD RETURNDATASIZE PUSH1 0x1F NOT PUSH1 0x1F DUP3 ADD AND DUP3 ADD DUP1 PUSH1 0x40 MSTORE POP DUP2 ADD SWAP1 PUSH2 0x198C SWAP2 SWAP1 PUSH2 0x40D9 JUMP JUMPDEST PUSH1 0x0 DUP1 DUP5 PUSH1 0x1 PUSH1 0x1 PUSH1 0xA0 SHL SUB AND DUP5 DUP5 PUSH1 0x40 MLOAD DUP1 DUP3 DUP1 MLOAD SWAP1 PUSH1 0x20 ADD SWAP1 DUP1 DUP4 DUP4 JUMPDEST PUSH1 0x20 DUP4 LT PUSH2 0x3674 JUMPI DUP1 MLOAD DUP3 MSTORE PUSH1 0x1F NOT SWAP1 SWAP3 ADD SWAP2 PUSH1 0x20 SWAP2 DUP3 ADD SWAP2 ADD PUSH2 0x3655 JUMP JUMPDEST PUSH1 0x1 DUP4 PUSH1 0x20 SUB PUSH2 0x100 EXP SUB DUP1 NOT DUP3 MLOAD AND DUP2 DUP5 MLOAD AND DUP1 DUP3 OR DUP6 MSTORE POP POP POP POP POP POP SWAP1 POP ADD SWAP2 POP POP PUSH1 0x0 PUSH1 0x40 MLOAD DUP1 DUP4 SUB DUP2 DUP6 DUP8 GAS CALL SWAP3 POP POP POP RETURNDATASIZE DUP1 PUSH1 0x0 DUP2 EQ PUSH2 0x36D6 JUMPI PUSH1 0x40 MLOAD SWAP2 POP PUSH1 0x1F NOT PUSH1 0x3F RETURNDATASIZE ADD AND DUP3 ADD PUSH1 0x40 MSTORE RETURNDATASIZE DUP3 MSTORE RETURNDATASIZE PUSH1 0x0 PUSH1 0x20 DUP5 ADD RETURNDATACOPY PUSH2 0x36DB JUMP JUMPDEST PUSH1 0x60 SWAP2 POP JUMPDEST POP SWAP2 POP SWAP2 POP DUP2 PUSH2 0x36EA DUP3 PUSH2 0x3931 JUMP JUMPDEST SWAP1 PUSH2 0x3773 JUMPI PUSH1 0x40 MLOAD PUSH3 0x461BCD PUSH1 0xE5 SHL DUP2 MSTORE PUSH1 0x4 ADD DUP1 DUP1 PUSH1 0x20 ADD DUP3 DUP2 SUB DUP3 MSTORE DUP4 DUP2 DUP2 MLOAD DUP2 MSTORE PUSH1 0x20 ADD SWAP2 POP DUP1 MLOAD SWAP1 PUSH1 0x20 ADD SWAP1 DUP1 DUP4 DUP4 PUSH1 0x0 JUMPDEST DUP4 DUP2 LT ISZERO PUSH2 0x3738 JUMPI DUP2 DUP2 ADD MLOAD DUP4 DUP3 ADD MSTORE PUSH1 0x20 ADD PUSH2 0x3720 JUMP JUMPDEST POP POP POP POP SWAP1 POP SWAP1 DUP2 ADD SWAP1 PUSH1 0x1F AND DUP1 ISZERO PUSH2 0x3765 JUMPI DUP1 DUP3 SUB DUP1 MLOAD PUSH1 0x1 DUP4 PUSH1 0x20 SUB PUSH2 0x100 EXP SUB NOT AND DUP2 MSTORE PUSH1 0x20 ADD SWAP2 POP JUMPDEST POP SWAP3 POP POP POP PUSH1 0x40 MLOAD DUP1 SWAP2 SUB SWAP1 REVERT JUMPDEST POP POP POP POP POP POP JUMP JUMPDEST PUSH1 0x0 PUSH2 0x3785 PUSH2 0x2E77 JUMP JUMPDEST PUSH1 0x1 PUSH1 0x1 PUSH1 0xA0 SHL SUB DUP6 AND PUSH1 0x0 SWAP1 DUP2 MSTORE PUSH1 0x20 DUP3 SWAP1 MSTORE PUSH1 0x40 SWAP1 KECCAK256 SLOAD SWAP1 SWAP2 POP DUP4 DUP2 GT ISZERO PUSH2 0x37AE JUMPI PUSH1 0x0 DUP1 REVERT JUMPDEST PUSH1 0x0 PUSH2 0x37C5 PUSH2 0x37BC DUP7 PUSH2 0xE42 JUMP JUMPDEST PUSH2 0x2715 DUP7 PUSH2 0xE42 JUMP JUMPDEST SWAP1 POP PUSH2 0x37D4 PUSH2 0x3200 DUP4 DUP4 PUSH2 0x1EA5 JUMP JUMPDEST PUSH1 0x1 PUSH1 0x1 PUSH1 0xA0 SHL SUB SWAP1 SWAP7 AND PUSH1 0x0 SWAP1 DUP2 MSTORE PUSH1 0x20 SWAP4 SWAP1 SWAP4 MSTORE POP POP PUSH1 0x40 SWAP1 KECCAK256 SWAP3 SWAP1 SWAP3 SSTORE POP POP JUMP JUMPDEST PUSH1 0x0 DUP1 PUSH2 0x318 PUSH1 0x1B PUSH2 0xFF9 JUMP JUMPDEST PUSH2 0x380D PUSH2 0x3BB7 JUMP JUMPDEST PUSH1 0x64 PUSH4 0x3B9ACA00 DUP4 PUSH1 0xFF DUP7 AND PUSH1 0x20 DUP2 LT PUSH2 0x3823 JUMPI INVALID JUMPDEST BYTE MUL DUP2 PUSH2 0x382C JUMPI INVALID JUMPDEST DIV DUP2 MSTORE PUSH1 0x64 PUSH4 0x3B9ACA00 DUP4 PUSH1 0xFF DUP7 AND PUSH1 0x1 ADD PUSH1 0x20 DUP2 LT PUSH2 0x3848 JUMPI INVALID JUMPDEST BYTE MUL DUP2 PUSH2 0x3851 JUMPI INVALID JUMPDEST DIV DUP2 PUSH1 0x20 ADD DUP2 DUP2 MSTORE POP POP PUSH2 0x3876 DUP3 PUSH1 0x2 DUP6 PUSH1 0xFF AND ADD PUSH1 0x20 DUP2 LT PUSH2 0x3870 JUMPI INVALID JUMPDEST BYTE PUSH2 0x3A38 JUMP JUMPDEST PUSH1 0x80 DUP3 ADD DUP2 SWAP1 MSTORE PUSH2 0x100 SWAP1 DUP4 PUSH1 0xFF DUP7 AND PUSH1 0x3 ADD PUSH1 0x20 DUP2 LT PUSH2 0x3893 JUMPI INVALID JUMPDEST BYTE MUL DUP2 PUSH2 0x389C JUMPI INVALID JUMPDEST DIV PUSH1 0x40 DUP3 ADD MSTORE PUSH1 0x80 DUP2 ADD MLOAD PUSH2 0x100 SWAP1 DUP4 PUSH1 0xFF DUP7 AND PUSH1 0x4 ADD PUSH1 0x20 DUP2 LT PUSH2 0x38BD JUMPI INVALID JUMPDEST BYTE MUL DUP2 PUSH2 0x38C6 JUMPI INVALID JUMPDEST DIV PUSH1 0x60 DUP3 ADD MSTORE PUSH3 0x7A120 DUP3 PUSH1 0xFF DUP6 AND PUSH1 0x5 ADD PUSH1 0x20 DUP2 LT PUSH2 0x38E2 JUMPI INVALID JUMPDEST BYTE MUL PUSH1 0xA0 DUP3 ADD MSTORE PUSH3 0x2625A0 DUP3 PUSH1 0xFF DUP6 AND PUSH1 0x6 ADD PUSH1 0x20 DUP2 LT PUSH2 0x38FF JUMPI INVALID JUMPDEST BYTE MUL PUSH1 0xC0 DUP3 ADD MSTORE DUP2 PUSH1 0xFF DUP5 AND PUSH1 0x7 ADD PUSH1 0x20 DUP2 LT PUSH2 0x3918 JUMPI INVALID JUMPDEST BYTE PUSH1 0xE0 DUP3 ADD MSTORE SWAP3 SWAP2 POP POP JUMP JUMPDEST PUSH1 0x0 DUP1 PUSH2 0x318 PUSH1 0x22 PUSH2 0xFF9 JUMP JUMPDEST PUSH1 0x60 PUSH1 0x44 DUP3 MLOAD LT ISZERO PUSH2 0x3967 JUMPI POP PUSH1 0x40 DUP1 MLOAD DUP1 DUP3 ADD SWAP1 SWAP2 MSTORE PUSH1 0xD DUP2 MSTORE PUSH13 0x14DA5B195B9D0814995D995C9D PUSH1 0x9A SHL PUSH1 0x20 DUP3 ADD MSTORE PUSH2 0x922 JUMP JUMPDEST PUSH1 0x4 DUP3 ADD DUP1 MLOAD SWAP1 SWAP3 PUSH1 0x24 ADD SWAP1 PUSH1 0x20 DUP2 LT ISZERO PUSH2 0x3981 JUMPI PUSH1 0x0 DUP1 REVERT JUMPDEST DUP2 ADD SWAP1 DUP1 DUP1 MLOAD PUSH1 0x40 MLOAD SWAP4 SWAP3 SWAP2 SWAP1 DUP5 PUSH5 0x100000000 DUP3 GT ISZERO PUSH2 0x39A1 JUMPI PUSH1 0x0 DUP1 REVERT JUMPDEST SWAP1 DUP4 ADD SWAP1 PUSH1 0x20 DUP3 ADD DUP6 DUP2 GT ISZERO PUSH2 0x39B6 JUMPI PUSH1 0x0 DUP1 REVERT JUMPDEST DUP3 MLOAD PUSH5 0x100000000 DUP2 GT DUP3 DUP3 ADD DUP9 LT OR ISZERO PUSH2 0x39D0 JUMPI PUSH1 0x0 DUP1 REVERT JUMPDEST DUP3 MSTORE POP DUP2 MLOAD PUSH1 0x20 SWAP2 DUP3 ADD SWAP3 SWAP1 SWAP2 ADD SWAP1 DUP1 DUP4 DUP4 PUSH1 0x0 JUMPDEST DUP4 DUP2 LT ISZERO PUSH2 0x39FD JUMPI DUP2 DUP2 ADD MLOAD DUP4 DUP3 ADD MSTORE PUSH1 0x20 ADD PUSH2 0x39E5 JUMP JUMPDEST POP POP POP POP SWAP1 POP SWAP1 DUP2 ADD SWAP1 PUSH1 0x1F AND DUP1 ISZERO PUSH2 0x3A2A JUMPI DUP1 DUP3 SUB DUP1 MLOAD PUSH1 0x1 DUP4 PUSH1 0x20 SUB PUSH2 0x100 EXP SUB NOT AND DUP2 MSTORE PUSH1 0x20 ADD SWAP2 POP JUMPDEST POP PUSH1 0x40 MSTORE POP POP POP SWAP1 POP SWAP2 SWAP1 POP JUMP JUMPDEST PUSH1 0x0 DUP2 PUSH1 0xFF AND PUSH1 0x96 LT PUSH2 0x3A53 JUMPI PUSH1 0xFF DUP3 AND PUSH3 0x2625A0 MUL PUSH2 0x318 JUMP JUMPDEST POP PUSH1 0x95 NOT PUSH1 0xFF SWAP2 SWAP1 SWAP2 AND ADD PUSH3 0xE4E1C0 MUL PUSH4 0x165A0BC0 ADD SWAP1 JUMP JUMPDEST PUSH1 0x40 MLOAD DUP1 PUSH2 0x140 ADD PUSH1 0x40 MSTORE DUP1 PUSH1 0x0 PUSH2 0xFFFF AND DUP2 MSTORE PUSH1 0x20 ADD PUSH1 0x0 DUP2 MSTORE PUSH1 0x20 ADD PUSH1 0x0 DUP2 MSTORE PUSH1 0x20 ADD PUSH1 0x0 DUP2 MSTORE PUSH1 0x20 ADD PUSH1 0x0 DUP2 MSTORE PUSH1 0x20 ADD PUSH1 0x0 DUP2 MSTORE PUSH1 0x20 ADD PUSH1 0x0 DUP2 MSTORE PUSH1 0x20 ADD PUSH1 0x0 DUP2 MSTORE PUSH1 0x20 ADD PUSH1 0x0 DUP2 MSTORE PUSH1 0x20 ADD PUSH2 0x3AC3 PUSH2 0x3AFD JUMP JUMPDEST SWAP1 MSTORE SWAP1 JUMP JUMPDEST PUSH1 0x40 DUP1 MLOAD PUSH1 0xC0 DUP2 ADD DUP3 MSTORE PUSH1 0x0 DUP1 DUP3 MSTORE PUSH1 0x20 DUP3 ADD DUP2 SWAP1 MSTORE SWAP2 DUP2 ADD DUP3 SWAP1 MSTORE PUSH1 0x60 DUP2 ADD DUP3 SWAP1 MSTORE PUSH1 0x80 DUP2 ADD DUP3 SWAP1 MSTORE PUSH1 0xA0 DUP2 ADD SWAP2 SWAP1 SWAP2 MSTORE SWAP1 JUMP JUMPDEST PUSH1 0x40 MLOAD DUP1 PUSH1 0x60 ADD PUSH1 0x40 MSTORE DUP1 PUSH1 0x0 DUP2 MSTORE PUSH1 0x20 ADD PUSH1 0x0 DUP2 MSTORE PUSH1 0x20 ADD PUSH1 0x0 DUP2 MSTORE POP SWAP1 JUMP JUMPDEST PUSH1 0x40 MLOAD DUP1 PUSH2 0x120 ADD PUSH1 0x40 MSTORE DUP1 PUSH1 0x0 DUP2 MSTORE PUSH1 0x20 ADD PUSH1 0x0 DUP2 MSTORE PUSH1 0x20 ADD PUSH1 0x0 DUP2 MSTORE PUSH1 0x20 ADD PUSH1 0x0 DUP2 MSTORE PUSH1 0x20 ADD PUSH1 0x0 DUP2 MSTORE PUSH1 0x20 ADD PUSH1 0x0 DUP2 MSTORE PUSH1 0x20 ADD PUSH1 0x0 DUP2 MSTORE PUSH1 0x20 ADD PUSH1 0x0 DUP2 MSTORE PUSH1 0x20 ADD PUSH1 0x0 DUP2 MSTORE POP SWAP1 JUMP JUMPDEST PUSH1 0x40 DUP1 MLOAD PUSH1 0xA0 DUP2 ADD DUP3 MSTORE PUSH1 0x0 DUP1 DUP3 MSTORE PUSH1 0x20 DUP3 ADD DUP2 SWAP1 MSTORE SWAP2 DUP2 ADD DUP3 SWAP1 MSTORE SWAP1 PUSH1 0x60 DUP3 ADD SWAP1 DUP2 MSTORE PUSH1 0x20 ADD PUSH1 0x0 DUP2 MSTORE POP SWAP1 JUMP JUMPDEST PUSH1 0x40 MLOAD DUP1 PUSH1 0x20 ADD PUSH1 0x40 MSTORE DUP1 PUSH1 0x1 SWAP1 PUSH1 0x20 DUP3 MUL DUP1 CALLDATASIZE DUP4 CALLDATACOPY POP SWAP2 SWAP3 SWAP2 POP POP JUMP JUMPDEST PUSH1 0x40 MLOAD DUP1 PUSH2 0x100 ADD PUSH1 0x40 MSTORE DUP1 PUSH1 0x0 DUP2 MSTORE PUSH1 0x20 ADD PUSH1 0x0 DUP2 MSTORE PUSH1 0x20 ADD PUSH1 0x0 DUP2 MSTORE PUSH1 0x20 ADD PUSH1 0x0 DUP2 MSTORE PUSH1 0x20 ADD PUSH1 0x0 DUP2 MSTORE PUSH1 0x20 ADD PUSH1 0x0 DUP2 MSTORE PUSH1 0x20 ADD PUSH1 0x0 DUP2 MSTORE PUSH1 0x20 ADD PUSH1 0x0 DUP2 MSTORE POP SWAP1 JUMP JUMPDEST DUP1 MLOAD PUSH2 0x922 DUP2 PUSH2 0x434B JUMP JUMPDEST PUSH1 0x0 DUP3 PUSH1 0x1F DUP4 ADD SLT PUSH2 0x3C17 JUMPI DUP1 DUP2 REVERT JUMPDEST DUP2 MLOAD PUSH1 0x20 PUSH2 0x3C2C PUSH2 0x3C27 DUP4 PUSH2 0x432D JUMP JUMPDEST PUSH2 0x4309 JUMP JUMPDEST DUP3 DUP2 MSTORE DUP2 DUP2 ADD SWAP1 DUP6 DUP4 ADD DUP4 DUP6 MUL DUP8 ADD DUP5 ADD DUP9 LT ISZERO PUSH2 0x3C48 JUMPI DUP6 DUP7 REVERT JUMPDEST DUP6 JUMPDEST DUP6 DUP2 LT ISZERO PUSH2 0x3C6F JUMPI DUP2 MLOAD PUSH2 0x3C5D DUP2 PUSH2 0x434B JUMP JUMPDEST DUP5 MSTORE SWAP3 DUP5 ADD SWAP3 SWAP1 DUP5 ADD SWAP1 PUSH1 0x1 ADD PUSH2 0x3C4A JUMP JUMPDEST POP SWAP1 SWAP8 SWAP7 POP POP POP POP POP POP POP JUMP JUMPDEST PUSH1 0x0 PUSH1 0x1F DUP4 DUP2 DUP5 ADD SLT PUSH2 0x3C8D JUMPI DUP2 DUP3 REVERT JUMPDEST DUP3 MLOAD PUSH1 0x20 PUSH2 0x3C9D PUSH2 0x3C27 DUP4 PUSH2 0x432D JUMP JUMPDEST DUP3 DUP2 MSTORE DUP2 DUP2 ADD SWAP1 DUP7 DUP4 ADD DUP7 JUMPDEST DUP6 DUP2 LT ISZERO PUSH2 0x3D42 JUMPI DUP2 MLOAD DUP10 ADD DUP11 PUSH1 0x3F DUP3 ADD SLT PUSH2 0x3CC3 JUMPI DUP9 DUP10 REVERT JUMPDEST DUP6 DUP2 ADD MLOAD PUSH8 0xFFFFFFFFFFFFFFFF DUP2 GT ISZERO PUSH2 0x3CD9 JUMPI INVALID JUMPDEST PUSH2 0x3CEA DUP2 DUP11 ADD PUSH1 0x1F NOT AND DUP9 ADD PUSH2 0x4309 JUMP JUMPDEST DUP2 DUP2 MSTORE PUSH1 0x40 DUP14 DUP2 DUP5 DUP7 ADD ADD GT ISZERO PUSH2 0x3CFF JUMPI DUP12 DUP13 REVERT JUMPDEST DUP12 JUMPDEST DUP4 DUP2 LT ISZERO PUSH2 0x3D1C JUMPI DUP5 DUP2 ADD DUP3 ADD MLOAD DUP4 DUP3 ADD DUP12 ADD MSTORE DUP10 ADD PUSH2 0x3D01 JUMP JUMPDEST DUP4 DUP2 GT ISZERO PUSH2 0x3D2C JUMPI DUP13 DUP11 DUP6 DUP6 ADD ADD MSTORE JUMPDEST POP POP DUP7 MSTORE POP POP SWAP3 DUP5 ADD SWAP3 SWAP1 DUP5 ADD SWAP1 PUSH1 0x1 ADD PUSH2 0x3CA9 JUMP JUMPDEST POP SWAP1 SWAP9 SWAP8 POP POP POP POP POP POP POP POP JUMP JUMPDEST DUP1 MLOAD DUP1 ISZERO ISZERO DUP2 EQ PUSH2 0x922 JUMPI PUSH1 0x0 DUP1 REVERT JUMPDEST DUP1 MLOAD PUSH1 0x1 PUSH1 0x1 PUSH1 0x70 SHL SUB NOT DUP2 AND DUP2 EQ PUSH2 0x922 JUMPI PUSH1 0x0 DUP1 REVERT JUMPDEST DUP1 MLOAD PUSH1 0x1 PUSH1 0x1 PUSH1 0xF8 SHL SUB NOT DUP2 AND DUP2 EQ PUSH2 0x922 JUMPI PUSH1 0x0 DUP1 REVERT JUMPDEST DUP1 MLOAD PUSH2 0x922 DUP2 PUSH2 0x4363 JUMP JUMPDEST DUP1 MLOAD PUSH1 0xFF DUP2 AND DUP2 EQ PUSH2 0x922 JUMPI PUSH1 0x0 DUP1 REVERT JUMPDEST PUSH1 0x0 PUSH1 0x20 DUP3 DUP5 SUB SLT ISZERO PUSH2 0x3DBD JUMPI DUP1 DUP2 REVERT JUMPDEST DUP2 CALLDATALOAD PUSH2 0x3D6 DUP2 PUSH2 0x434B JUMP JUMPDEST PUSH1 0x0 DUP1 PUSH1 0x40 DUP4 DUP6 SUB SLT ISZERO PUSH2 0x3DDA JUMPI DUP1 DUP2 REVERT JUMPDEST DUP3 CALLDATALOAD PUSH2 0x3DE5 DUP2 PUSH2 0x434B JUMP JUMPDEST SWAP5 PUSH1 0x20 SWAP4 SWAP1 SWAP4 ADD CALLDATALOAD SWAP4 POP POP POP JUMP JUMPDEST PUSH1 0x0 PUSH1 0x20 DUP1 DUP4 DUP6 SUB SLT ISZERO PUSH2 0x3E05 JUMPI DUP2 DUP3 REVERT JUMPDEST DUP3 MLOAD PUSH8 0xFFFFFFFFFFFFFFFF DUP1 DUP3 GT ISZERO PUSH2 0x3E1C JUMPI DUP4 DUP5 REVERT JUMPDEST DUP2 DUP6 ADD SWAP2 POP DUP6 PUSH1 0x1F DUP4 ADD SLT PUSH2 0x3E2F JUMPI DUP4 DUP5 REVERT JUMPDEST DUP2 MLOAD PUSH2 0x3E3D PUSH2 0x3C27 DUP3 PUSH2 0x432D JUMP JUMPDEST DUP2 DUP2 MSTORE DUP5 DUP2 ADD SWAP1 DUP5 DUP7 ADD DUP8 JUMPDEST DUP5 DUP2 LT ISZERO PUSH2 0x3EF2 JUMPI DUP2 MLOAD DUP8 ADD PUSH1 0x80 DUP2 DUP14 SUB PUSH1 0x1F NOT ADD SLT ISZERO PUSH2 0x3E68 JUMPI DUP10 DUP11 REVERT JUMPDEST PUSH1 0x40 DUP1 MLOAD PUSH1 0x80 DUP2 ADD DUP2 DUP2 LT DUP11 DUP3 GT OR ISZERO PUSH2 0x3E7E JUMPI INVALID JUMPDEST DUP3 MSTORE DUP3 DUP12 ADD MLOAD DUP10 DUP2 GT ISZERO PUSH2 0x3E90 JUMPI DUP13 DUP14 REVERT JUMPDEST PUSH2 0x3E9E DUP16 DUP14 DUP4 DUP8 ADD ADD PUSH2 0x3C07 JUMP JUMPDEST DUP3 MSTORE POP DUP2 DUP4 ADD MLOAD DUP10 DUP2 GT ISZERO PUSH2 0x3EB1 JUMPI DUP13 DUP14 REVERT JUMPDEST PUSH2 0x3EBF DUP16 DUP14 DUP4 DUP8 ADD ADD PUSH2 0x3C7C JUMP JUMPDEST DUP13 DUP4 ADD MSTORE POP PUSH1 0x60 DUP4 ADD MLOAD DUP3 DUP3 ADD MSTORE PUSH2 0x3ED9 PUSH1 0x80 DUP5 ADD PUSH2 0x3BFC JUMP JUMPDEST PUSH1 0x60 DUP3 ADD MSTORE DUP7 MSTORE POP POP SWAP3 DUP8 ADD SWAP3 SWAP1 DUP8 ADD SWAP1 PUSH1 0x1 ADD PUSH2 0x3E49 JUMP JUMPDEST POP SWAP1 SWAP10 SWAP9 POP POP POP POP POP POP POP POP POP JUMP JUMPDEST PUSH1 0x0 PUSH1 0xC0 DUP3 DUP5 SUB SLT ISZERO PUSH2 0x3F12 JUMPI DUP1 DUP2 REVERT JUMPDEST PUSH1 0x40 MLOAD PUSH1 0xC0 DUP2 ADD DUP2 DUP2 LT PUSH8 0xFFFFFFFFFFFFFFFF DUP3 GT OR ISZERO PUSH2 0x3F2F JUMPI INVALID JUMPDEST PUSH1 0x40 MSTORE DUP3 MLOAD PUSH5 0xFFFFFFFFFF DUP2 AND DUP2 EQ PUSH2 0x3F46 JUMPI DUP3 DUP4 REVERT JUMPDEST DUP2 MSTORE PUSH2 0x3F54 PUSH1 0x20 DUP5 ADD PUSH2 0x3D78 JUMP JUMPDEST PUSH1 0x20 DUP3 ADD MSTORE PUSH2 0x3F65 PUSH1 0x40 DUP5 ADD PUSH2 0x3D9B JUMP JUMPDEST PUSH1 0x40 DUP3 ADD MSTORE PUSH2 0x3F76 PUSH1 0x60 DUP5 ADD PUSH2 0x3D90 JUMP JUMPDEST PUSH1 0x60 DUP3 ADD MSTORE PUSH2 0x3F87 PUSH1 0x80 DUP5 ADD PUSH2 0x3D60 JUMP JUMPDEST PUSH1 0x80 DUP3 ADD MSTORE PUSH2 0x3F98 PUSH1 0xA0 DUP5 ADD PUSH2 0x3D50 JUMP JUMPDEST PUSH1 0xA0 DUP3 ADD MSTORE SWAP4 SWAP3 POP POP POP JUMP JUMPDEST PUSH1 0x0 DUP1 PUSH1 0x40 DUP4 DUP6 SUB SLT ISZERO PUSH2 0x3FB6 JUMPI DUP2 DUP3 REVERT JUMPDEST DUP3 CALLDATALOAD PUSH2 0x3FC1 DUP2 PUSH2 0x4363 JUMP JUMPDEST SWAP2 POP PUSH1 0x20 DUP4 ADD CALLDATALOAD PUSH2 0x3FD1 DUP2 PUSH2 0x434B JUMP JUMPDEST DUP1 SWAP2 POP POP SWAP3 POP SWAP3 SWAP1 POP JUMP JUMPDEST PUSH1 0x0 DUP1 PUSH1 0x0 PUSH1 0x60 DUP5 DUP7 SUB SLT ISZERO PUSH2 0x3FF0 JUMPI DUP1 DUP2 REVERT JUMPDEST DUP4 CALLDATALOAD PUSH2 0x3FFB DUP2 PUSH2 0x4363 JUMP JUMPDEST SWAP3 POP PUSH1 0x20 DUP5 ADD CALLDATALOAD PUSH2 0x400B DUP2 PUSH2 0x434B JUMP JUMPDEST SWAP2 POP PUSH1 0x40 DUP5 ADD CALLDATALOAD PUSH2 0x401B DUP2 PUSH2 0x434B JUMP JUMPDEST DUP1 SWAP2 POP POP SWAP3 POP SWAP3 POP SWAP3 JUMP JUMPDEST PUSH1 0x0 DUP1 PUSH1 0x0 DUP1 PUSH1 0x0 PUSH1 0xA0 DUP7 DUP9 SUB SLT ISZERO PUSH2 0x403D JUMPI DUP3 DUP4 REVERT JUMPDEST DUP6 CALLDATALOAD PUSH2 0x4048 DUP2 PUSH2 0x4363 JUMP JUMPDEST SWAP5 POP PUSH1 0x20 DUP7 ADD CALLDATALOAD PUSH2 0x4058 DUP2 PUSH2 0x434B JUMP JUMPDEST SWAP4 POP PUSH1 0x40 DUP7 ADD CALLDATALOAD PUSH2 0x4068 DUP2 PUSH2 0x434B JUMP JUMPDEST SWAP3 POP PUSH1 0x60 DUP7 ADD CALLDATALOAD PUSH2 0x4078 DUP2 PUSH2 0x434B JUMP JUMPDEST SWAP5 SWAP8 SWAP4 SWAP7 POP SWAP2 SWAP5 PUSH1 0x80 ADD CALLDATALOAD SWAP3 SWAP2 POP POP JUMP JUMPDEST PUSH1 0x0 DUP1 PUSH1 0x0 DUP1 PUSH1 0x80 DUP6 DUP8 SUB SLT ISZERO PUSH2 0x409E JUMPI DUP2 DUP3 REVERT JUMPDEST DUP5 CALLDATALOAD PUSH2 0x40A9 DUP2 PUSH2 0x4363 JUMP JUMPDEST SWAP4 POP PUSH1 0x20 DUP6 ADD CALLDATALOAD PUSH2 0x40B9 DUP2 PUSH2 0x434B JUMP JUMPDEST SWAP3 POP PUSH1 0x40 DUP6 ADD CALLDATALOAD PUSH2 0x40C9 DUP2 PUSH2 0x434B JUMP JUMPDEST SWAP4 SWAP7 SWAP3 SWAP6 POP SWAP3 SWAP4 PUSH1 0x60 ADD CALLDATALOAD SWAP3 POP POP JUMP JUMPDEST PUSH1 0x0 PUSH1 0x20 DUP3 DUP5 SUB SLT ISZERO PUSH2 0x40EA JUMPI DUP1 DUP2 REVERT JUMPDEST POP MLOAD SWAP2 SWAP1 POP JUMP JUMPDEST PUSH1 0x0 DUP1 PUSH1 0x40 DUP4 DUP6 SUB SLT ISZERO PUSH2 0x4103 JUMPI DUP2 DUP3 REVERT JUMPDEST POP POP DUP1 MLOAD PUSH1 0x20 SWAP1 SWAP2 ADD MLOAD SWAP1 SWAP3 SWAP1 SWAP2 POP JUMP JUMPDEST PUSH1 0x1 PUSH1 0x1 PUSH1 0xA0 SHL SUB SWAP2 SWAP1 SWAP2 AND DUP2 MSTORE PUSH1 0x20 ADD SWAP1 JUMP JUMPDEST PUSH1 0x1 PUSH1 0x1 PUSH1 0xA0 SHL SUB SWAP4 DUP5 AND DUP2 MSTORE SWAP2 DUP4 AND PUSH1 0x20 DUP4 ADD MSTORE SWAP1 SWAP2 AND PUSH1 0x40 DUP3 ADD MSTORE PUSH1 0x60 ADD SWAP1 JUMP JUMPDEST PUSH1 0x1 PUSH1 0x1 PUSH1 0xA0 SHL SUB SWAP3 SWAP1 SWAP3 AND DUP3 MSTORE PUSH1 0x20 DUP3 ADD MSTORE PUSH1 0x40 ADD SWAP1 JUMP JUMPDEST PUSH1 0x0 PUSH1 0xE0 DUP3 ADD SWAP1 POP PUSH1 0x1 DUP1 PUSH1 0xA0 SHL SUB DUP5 AND DUP3 MSTORE PUSH5 0xFFFFFFFFFF DUP4 MLOAD AND PUSH1 0x20 DUP4 ADD MSTORE PUSH1 0xFF PUSH1 0xF8 SHL PUSH1 0x20 DUP5 ADD MLOAD AND PUSH1 0x40 DUP4 ADD MSTORE PUSH1 0xFF PUSH1 0x40 DUP5 ADD MLOAD AND PUSH1 0x60 DUP4 ADD MSTORE PUSH2 0xFFFF PUSH1 0x60 DUP5 ADD MLOAD AND PUSH1 0x80 DUP4 ADD MSTORE PUSH1 0x1 PUSH1 0x1 PUSH1 0x70 SHL SUB NOT PUSH1 0x80 DUP5 ADD MLOAD AND PUSH1 0xA0 DUP4 ADD MSTORE PUSH1 0xA0 DUP4 ADD MLOAD ISZERO ISZERO PUSH1 0xC0 DUP4 ADD MSTORE SWAP4 SWAP3 POP POP POP JUMP JUMPDEST PUSH1 0x1 PUSH1 0x1 PUSH1 0xA0 SHL SUB SWAP7 SWAP1 SWAP7 AND DUP7 MSTORE PUSH2 0xFFFF SWAP5 SWAP1 SWAP5 AND PUSH1 0x20 DUP7 ADD MSTORE PUSH1 0x40 DUP6 ADD SWAP3 SWAP1 SWAP3 MSTORE PUSH1 0x60 DUP5 ADD MSTORE PUSH1 0x80 DUP4 ADD MSTORE PUSH1 0xA0 DUP3 ADD MSTORE PUSH1 0xC0 ADD SWAP1 JUMP JUMPDEST PUSH1 0x1 PUSH1 0x1 PUSH1 0xA0 SHL SUB SWAP5 SWAP1 SWAP5 AND DUP5 MSTORE PUSH1 0x20 DUP5 ADD SWAP3 SWAP1 SWAP3 MSTORE PUSH1 0x40 DUP4 ADD MSTORE PUSH1 0x60 DUP3 ADD MSTORE PUSH1 0x80 ADD SWAP1 JUMP JUMPDEST SWAP1 ISZERO ISZERO DUP2 MSTORE PUSH1 0x20 ADD SWAP1 JUMP JUMPDEST PUSH1 0x20 DUP1 DUP3 MSTORE PUSH1 0x16 SWAP1 DUP3 ADD MSTORE PUSH22 0x496E73756666696369656E7420616C6C6F77616E6365 PUSH1 0x50 SHL PUSH1 0x40 DUP3 ADD MSTORE PUSH1 0x60 ADD SWAP1 JUMP JUMPDEST PUSH1 0x20 DUP1 DUP3 MSTORE PUSH1 0x14 SWAP1 DUP3 ADD MSTORE PUSH20 0x496E73756666696369656E742062616C616E6365 PUSH1 0x60 SHL PUSH1 0x40 DUP3 ADD MSTORE PUSH1 0x60 ADD SWAP1 JUMP JUMPDEST PUSH1 0x20 DUP1 DUP3 MSTORE PUSH1 0xF SWAP1 DUP3 ADD MSTORE PUSH15 0x4E6F205072696D6520426F72726F77 PUSH1 0x88 SHL PUSH1 0x40 DUP3 ADD MSTORE PUSH1 0x60 ADD SWAP1 JUMP JUMPDEST PUSH1 0x20 DUP1 DUP3 MSTORE PUSH1 0xA SWAP1 DUP3 ADD MSTORE PUSH10 0x2732B390372A37B5B2B7 PUSH1 0xB1 SHL PUSH1 0x40 DUP3 ADD MSTORE PUSH1 0x60 ADD SWAP1 JUMP JUMPDEST SWAP1 DUP2 MSTORE PUSH1 0x20 ADD SWAP1 JUMP JUMPDEST SWAP3 DUP4 MSTORE PUSH1 0x20 DUP4 ADD SWAP2 SWAP1 SWAP2 MSTORE PUSH1 0x40 DUP3 ADD MSTORE PUSH1 0x60 ADD SWAP1 JUMP JUMPDEST PUSH1 0x40 MLOAD DUP2 DUP2 ADD PUSH8 0xFFFFFFFFFFFFFFFF DUP2 GT DUP3 DUP3 LT OR ISZERO PUSH2 0x4325 JUMPI INVALID JUMPDEST PUSH1 0x40 MSTORE SWAP2 SWAP1 POP JUMP JUMPDEST PUSH1 0x0 PUSH8 0xFFFFFFFFFFFFFFFF DUP3 GT ISZERO PUSH2 0x4341 JUMPI INVALID JUMPDEST POP PUSH1 0x20 SWAP1 DUP2 MUL ADD SWAP1 JUMP JUMPDEST PUSH1 0x1 PUSH1 0x1 PUSH1 0xA0 SHL SUB DUP2 AND DUP2 EQ PUSH2 0x4360 JUMPI PUSH1 0x0 DUP1 REVERT JUMPDEST POP JUMP JUMPDEST PUSH2 0xFFFF DUP2 AND DUP2 EQ PUSH2 0x4360 JUMPI PUSH1 0x0 DUP1 REVERT INVALID LOG2 PUSH5 0x6970667358 0x22 SLT KECCAK256 PUSH23 0xFD92E2347C88D77527343C394D345B5EE593C4265EE1DA LT 0xC6 RETURNDATASIZE 0xB1 0xE1 0xE 0xF9 CALL PUSH5 0x736F6C6343 STOP SMOD MOD STOP CALLER ","sha1":"2bd927550920407a00c448ff5c233a0e61fb2730","source":"// SPDX-License-Identifier: GPL-3.0-only\npragma solidity =0.7.6;\npragma abicoder v2;\n\nimport {\n    PrimeRate,\n    BalanceState,\n    AccountContext,\n    nTokenPortfolio\n} from \"../../global/Types.sol\";\nimport {Constants} from \"../../global/Constants.sol\";\nimport {StorageLayoutV1} from \"../../global/StorageLayoutV1.sol\";\nimport {LibStorage} from \"../../global/LibStorage.sol\";\nimport {SafeInt256} from \"../../math/SafeInt256.sol\";\nimport {SafeUint256} from \"../../math/SafeUint256.sol\";\n\nimport {AccountContextHandler} from \"../../internal/AccountContextHandler.sol\";\nimport {nTokenHandler} from \"../../internal/nToken/nTokenHandler.sol\";\nimport {nTokenSupply} from \"../../internal/nToken/nTokenSupply.sol\";\nimport {nTokenCalculations} from \"../../internal/nToken/nTokenCalculations.sol\";\nimport {PrimeRateLib} from \"../../internal/pCash/PrimeRateLib.sol\";\nimport {PrimeCashExchangeRate} from \"../../internal/pCash/PrimeCashExchangeRate.sol\";\nimport {BalanceHandler} from \"../../internal/balances/BalanceHandler.sol\";\nimport {Incentives} from \"../../internal/balances/Incentives.sol\";\n\nimport {FreeCollateralExternal} from \"../FreeCollateralExternal.sol\";\nimport {SettleAssetsExternal} from \"../SettleAssetsExternal.sol\";\nimport {ActionGuards} from \"./ActionGuards.sol\";\nimport {MigrateIncentives} from \"../MigrateIncentives.sol\";\n\nimport {nTokenERC20} from \"../../../interfaces/notional/nTokenERC20.sol\";\n\ncontract nTokenAction is StorageLayoutV1, nTokenERC20, ActionGuards {\n    using BalanceHandler for BalanceState;\n    using PrimeRateLib for PrimeRate;\n    using AccountContextHandler for AccountContext;\n    using nTokenHandler for nTokenPortfolio;\n    using SafeInt256 for int256;\n    using SafeUint256 for uint256;\n\n    /// @notice Total number of tokens in circulation\n    /// @param nTokenAddress The address of the nToken\n    /// @return totalSupply number of tokens held\n    function nTokenTotalSupply(address nTokenAddress) external view override returns (uint256 totalSupply) {\n        // prettier-ignore\n        (\n            totalSupply,\n            /* accumulatedNOTEPerNToken */,\n            /* lastAccumulatedTime */\n        ) = nTokenSupply.getStoredNTokenSupplyFactors(nTokenAddress);\n    }\n\n    /// @notice Get the number of tokens held by the `account`\n    /// @param account The address of the account to get the balance of\n    /// @return The number of tokens held\n    function nTokenBalanceOf(uint16 currencyId, address account) external view override returns (uint256) {\n        // prettier-ignore\n        (\n            /* int cashBalance */,\n            int256 nTokenBalance,\n            /* uint lastClaimTime */,\n            /* uint accountIncentiveDebt */\n        ) = BalanceHandler.getBalanceStorageView(account, currencyId, block.timestamp);\n\n        require(nTokenBalance >= 0); // dev: negative nToken balance\n        return uint256(nTokenBalance);\n    }\n\n    /// @notice Get the number of tokens `spender` is approved to spend on behalf of `account`\n    /// @param currencyId Currency id of the nToken account\n    /// @param tokenHolder The address of the account holding the funds\n    /// @param spender The address of the account spending the funds\n    /// @return The number of tokens approved\n    function nTokenTransferAllowance(\n        uint16 currencyId,\n        address tokenHolder,\n        address spender\n    ) external view override returns (uint256) {\n        // The specific allowance overrides the blanket whitelist\n        uint256 allowance = nTokenAllowance[tokenHolder][spender][currencyId];\n        if (allowance > 0) {\n            return allowance;\n        } else {\n            return nTokenWhitelist[tokenHolder][spender];\n        }\n    }\n\n    function pCashTransferAllowance(\n        uint16 currencyId,\n        address tokenHolder,\n        address spender\n    ) external view override returns (uint256) {\n        return LibStorage.getPCashTransferAllowance()[tokenHolder][spender][currencyId];\n    }\n\n    /// @notice Approve `spender` to transfer up to `amount` from `src`\n    /// @dev auth:nTokenProxy\n    /// @param currencyId Currency id of the nToken account\n    /// @param tokenHolder The address of the account holding the funds\n    /// @param spender The address of the account which may transfer tokens\n    /// @param amount The number of tokens that are approved (2^256-1 means infinite)\n    /// @return Whether or not the approval succeeded\n    function nTokenTransferApprove(\n        uint16 currencyId,\n        address tokenHolder,\n        address spender,\n        uint256 amount\n    ) external override returns (bool) {\n        address nTokenAddress = nTokenHandler.nTokenAddress(currencyId);\n        require(msg.sender == nTokenAddress);\n        require(tokenHolder != address(0));\n\n        nTokenAllowance[tokenHolder][spender][currencyId] = amount;\n        return true;\n    }\n\n    function pCashTransferApprove(\n        uint16 currencyId,\n        address tokenHolder,\n        address spender,\n        uint256 amount\n    ) external override returns (bool) {\n        address pCashAddress = PrimeCashExchangeRate.getCashProxyAddress(currencyId);\n        require(msg.sender == pCashAddress);\n        require(tokenHolder != address(0));\n\n        LibStorage.getPCashTransferAllowance()[tokenHolder][spender][currencyId] = amount;\n        return true;\n    }\n\n    /// @notice Transfer `amount` tokens from `msg.sender` to `dst`\n    /// @dev auth:nTokenProxy\n    /// @param from The address of the destination account\n    /// @param to The address of the destination account\n    /// @param amount The number of tokens to transfer\n    /// @return Whether or not the transfer succeeded\n    function nTokenTransfer(\n        uint16 currencyId,\n        address from,\n        address to,\n        uint256 amount\n    ) external override returns (bool) {\n        address nTokenAddress = nTokenHandler.nTokenAddress(currencyId);\n        require(msg.sender == nTokenAddress);\n        require(from != to);\n        requireValidAccount(to);\n\n        return _transfer(currencyId, from, to, amount, true);\n    }\n\n    function pCashTransfer(\n        uint16 currencyId,\n        address from,\n        address to,\n        uint256 amount\n    ) external override returns (bool) {\n        address pCashAddress = PrimeCashExchangeRate.getCashProxyAddress(currencyId);\n        require(msg.sender == pCashAddress);\n        require(from != to);\n        requireValidAccount(to);\n\n        return _transfer(currencyId, from, to, amount, false);\n    }\n\n    /// @notice Transfer `amount` tokens from `src` to `dst`\n    /// @dev auth:nTokenProxy\n    /// @param currencyId Currency id of the nToken\n    /// @param spender The address of the original caller\n    /// @param from The address of the source account\n    /// @param to The address of the destination account\n    /// @param amount The number of tokens to transfer\n    /// @return Whether or not the transfer succeeded\n    function nTokenTransferFrom(\n        uint16 currencyId,\n        address spender,\n        address from,\n        address to,\n        uint256 amount\n    ) external override returns (bool) {\n        address nTokenAddress = nTokenHandler.nTokenAddress(currencyId);\n        require(msg.sender == nTokenAddress);\n        require(from != to);\n        requireValidAccount(to);\n\n        uint256 allowance = nTokenAllowance[from][spender][currencyId];\n\n        if (allowance > 0) {\n            // This is the specific allowance for the nToken.\n            require(allowance >= amount, \"Insufficient allowance\");\n            // Overflow checked above\n            nTokenAllowance[from][spender][currencyId] = allowance - amount;\n        } else {\n            // This whitelist allowance works across all nTokens\n            allowance = nTokenWhitelist[from][spender];\n            require(allowance >= amount, \"Insufficient allowance\");\n            // Overflow checked above\n            nTokenWhitelist[from][spender] = allowance - amount;\n        }\n\n        return _transfer(currencyId, from, to, amount, true);\n    }\n\n    function pCashTransferFrom(\n        uint16 currencyId,\n        address spender,\n        address from,\n        address to,\n        uint256 amount\n    ) external override returns (bool) {\n        address pCashAddress = PrimeCashExchangeRate.getCashProxyAddress(currencyId);\n        require(msg.sender == pCashAddress);\n        require(from != to);\n        requireValidAccount(to);\n\n        uint256 allowance = LibStorage.getPCashTransferAllowance()[from][spender][currencyId];\n        require(allowance >= amount, \"Insufficient allowance\");\n        LibStorage.getPCashTransferAllowance()[from][spender][currencyId] = allowance - amount;\n\n        return _transfer(currencyId, from, to, amount, false);\n    }\n\n    /// @notice Will approve all nToken transfers to the specific sender. This is used for simplifying UX, a user can approve\n    /// all token transfers to an external exchange or protocol in a single txn. This must be called directly\n    /// on the Notional contract, not available via the ERC20 proxy.\n    /// @dev emit:Approval\n    /// @dev auth:msg.sender\n    /// @param spender The address of the account which may transfer tokens\n    /// @param amount The number of tokens that are approved\n    /// @return Whether or not the approval succeeded\n    function nTokenTransferApproveAll(address spender, uint256 amount) external override returns (bool) {\n        nTokenWhitelist[msg.sender][spender] = amount;\n        emit Approval(msg.sender, spender, amount);\n        return true;\n    }\n\n    /// @notice Claims incentives accrued on all nToken balances and transfers them to the msg.sender\n    /// @dev auth:msg.sender\n    /// @return Total amount of incentives claimed\n    function nTokenClaimIncentives() external override returns (uint256) {\n        address account = msg.sender;\n        AccountContext memory accountContext = AccountContextHandler.getAccountContext(account);\n        uint256 totalIncentivesClaimed = 0;\n        BalanceState memory balanceState;\n\n        if (accountContext.isBitmapEnabled()) {\n            balanceState.loadBalanceState(account, accountContext.bitmapCurrencyId, accountContext);\n            if (balanceState.storedNTokenBalance > 0) {\n                // balance state is updated inside claim incentives manual\n                totalIncentivesClaimed = balanceState.claimIncentivesManual(account);\n            }\n        }\n\n        bytes18 currencies = accountContext.activeCurrencies;\n        while (currencies != 0) {\n            uint16 currencyId = uint16(bytes2(currencies) & Constants.UNMASK_FLAGS);\n\n            balanceState.loadBalanceState(account, currencyId, accountContext);\n            if (balanceState.storedNTokenBalance > 0) {\n                // balance state is updated inside claim incentives manual\n                totalIncentivesClaimed = totalIncentivesClaimed\n                    .add(balanceState.claimIncentivesManual(account));\n            }\n\n            currencies = currencies << 16;\n        }\n\n        // NOTE: no need to set account context after claiming incentives. No currencies\n        // or fCash assets have been added or changed.\n        return totalIncentivesClaimed;\n    }\n\n    /// @notice Transferring tokens will also claim incentives at the same time\n    function _transfer(\n        uint16 currencyId,\n        address sender,\n        address recipient,\n        uint256 amount,\n        bool isNToken\n    ) internal returns (bool) {\n        // This prevents amountInt from being negative\n        int256 amountInt = amount.toInt();\n\n        AccountContext memory senderContext = AccountContextHandler.getAccountContext(sender);\n        // If sender has debt then we will check free collateral which will revert if we have not\n        // settled assets first. To prevent this we settle sender context if required.\n        if (senderContext.mustSettleAssets()) {\n            senderContext = SettleAssetsExternal.settleAccount(sender, senderContext);\n        }\n\n        BalanceState memory senderBalance;\n        senderBalance.loadBalanceState(sender, currencyId, senderContext);\n        if (isNToken) {\n            senderBalance.netNTokenTransfer = amountInt.neg();\n        } else {\n            // Do not allow debt to accrue during transfer. This would violate standard\n            // expectations around ERC20 transfers\n            require(senderBalance.storedCashBalance > 0, \"Insufficient balance\");\n            require(amountInt <= senderBalance.storedCashBalance, \"Insufficient balance\");\n            senderBalance.netCashChange = amountInt.neg();\n        }\n        senderBalance.finalizeNoWithdraw(sender, senderContext);\n        senderContext.setAccountContext(sender);\n\n        AccountContext memory recipientContext = AccountContextHandler.getAccountContext(recipient);\n        BalanceState memory recipientBalance;\n        recipientBalance.loadBalanceState(recipient, currencyId, recipientContext);\n        if (isNToken) {\n            recipientBalance.netNTokenTransfer = amountInt;\n        } else {\n            recipientBalance.netCashChange = amountInt;\n        }\n        recipientBalance.finalizeNoWithdraw(recipient, recipientContext);\n        recipientContext.setAccountContext(recipient);\n\n        // nTokens and pCash are used as collateral so we have to check the free collateral when we transfer.\n        // Only the sender needs a free collateral check, the receiver's net free collateral position will\n        // only increase\n        if (senderContext.hasDebt != 0x00) {\n            FreeCollateralExternal.checkFreeCollateralAndRevert(sender);\n        }\n\n        return true;\n    }\n\n    /// @notice Get a list of deployed library addresses (sorted by library name)\n    function getLibInfo() external pure returns (address, address, address) {\n        return (\n            address(FreeCollateralExternal),\n            address(MigrateIncentives),\n            address(SettleAssetsExternal)\n        );\n    }\n}\n","sourcePath":"contracts/external/actions/nTokenAction.sol","type":"contract","deployment":{"address":"0x662F1be7f07C90031F7B5264f71Bd1AC0E975526","chainid":"42161","blockHeight":86534626}}