{"abi":[{"inputs":[{"internalType":"contract NotionalProxy","name":"notional_","type":"address"},{"internalType":"address","name":"underlying_","type":"address"}],"stateMutability":"nonpayable","type":"constructor","name":"constructor"},{"inputs":[],"name":"decimals","outputs":[{"internalType":"uint8","name":"","type":"uint8"}],"stateMutability":"view","type":"function"},{"inputs":[{"internalType":"address[]","name":"holdings_","type":"address[]"},{"internalType":"uint256[]","name":"depositAmounts","type":"uint256[]"}],"name":"getDepositCalldataForRebalancing","outputs":[{"components":[{"internalType":"address[]","name":"targets","type":"address[]"},{"internalType":"bytes[]","name":"callData","type":"bytes[]"},{"internalType":"uint256[]","name":"msgValue","type":"uint256[]"},{"internalType":"uint256","name":"underlyingDepositAmount","type":"uint256"},{"internalType":"address","name":"assetToken","type":"address"}],"internalType":"struct DepositData[]","name":"depositData","type":"tuple[]"}],"stateMutability":"view","type":"function"},{"inputs":[{"internalType":"uint256","name":"withdrawAmount","type":"uint256"}],"name":"getRedemptionCalldata","outputs":[{"components":[{"internalType":"address[]","name":"targets","type":"address[]"},{"internalType":"bytes[]","name":"callData","type":"bytes[]"},{"internalType":"uint256","name":"expectedUnderlying","type":"uint256"},{"internalType":"address","name":"assetToken","type":"address"}],"internalType":"struct RedeemData[]","name":"redeemData","type":"tuple[]"}],"stateMutability":"view","type":"function"},{"inputs":[{"internalType":"address[]","name":"holdings_","type":"address[]"},{"internalType":"uint256[]","name":"withdrawAmounts","type":"uint256[]"}],"name":"getRedemptionCalldataForRebalancing","outputs":[{"components":[{"internalType":"address[]","name":"targets","type":"address[]"},{"internalType":"bytes[]","name":"callData","type":"bytes[]"},{"internalType":"uint256","name":"expectedUnderlying","type":"uint256"},{"internalType":"address","name":"assetToken","type":"address"}],"internalType":"struct RedeemData[]","name":"redeemData","type":"tuple[]"}],"stateMutability":"view","type":"function"},{"inputs":[],"name":"getTotalUnderlyingValueStateful","outputs":[{"internalType":"uint256","name":"nativePrecision","type":"uint256"},{"internalType":"uint256","name":"internalPrecision","type":"uint256"}],"stateMutability":"nonpayable","type":"function"},{"inputs":[],"name":"getTotalUnderlyingValueView","outputs":[{"internalType":"uint256","name":"nativePrecision","type":"uint256"},{"internalType":"uint256","name":"internalPrecision","type":"uint256"}],"stateMutability":"view","type":"function"},{"inputs":[],"name":"holdingValuesInUnderlying","outputs":[{"internalType":"uint256[]","name":"","type":"uint256[]"}],"stateMutability":"view","type":"function"},{"inputs":[],"name":"holdings","outputs":[{"internalType":"address[]","name":"","type":"address[]"}],"stateMutability":"view","type":"function"},{"inputs":[],"name":"underlying","outputs":[{"internalType":"address","name":"","type":"address"}],"stateMutability":"view","type":"function"}],"bytecode":"6101206040523480156200001257600080fd5b5060405162000b3338038062000b33833981016040819052620000359162000100565b6001600160a01b03808316608052811660a081905215610100819052620000c35760a0516001600160a01b031663313ce5676040518163ffffffff1660e01b8152600401602060405180830381865afa15801562000097573d6000803e3d6000fd5b505050506040513d601f19601f82011682018060405250810190620000bd91906200013f565b620000c6565b60125b60ff1660c0819052620000db90600a62000280565b60e05250620002919050565b6001600160a01b0381168114620000fd57600080fd5b50565b600080604083850312156200011457600080fd5b82516200012181620000e7565b60208401519092506200013481620000e7565b809150509250929050565b6000602082840312156200015257600080fd5b815160ff811681146200016457600080fd5b9392505050565b634e487b7160e01b600052601160045260246000fd5b600181815b80851115620001c2578160001904821115620001a657620001a66200016b565b80851615620001b457918102915b93841c939080029062000186565b509250929050565b600082620001db575060016200027a565b81620001ea575060006200027a565b81600181146200020357600281146200020e576200022e565b60019150506200027a565b60ff8411156200022257620002226200016b565b50506001821b6200027a565b5060208310610133831016604e8410600b841016171562000253575081810a6200027a565b6200025f838362000181565b80600019048211156200027657620002766200016b565b0290505b92915050565b60006200016460ff841683620001ca565b60805160a05160c05160e0516101005161085b620002d86000396000505060006101d201526000609f01526000818160f0015261024b015260006102a2015261085b6000f3fe608060405234801561001057600080fd5b50600436106100935760003560e01c8063871ade4311610066578063871ade431461013f578063a77c05b81461015a578063b5e4da2314610177578063e79bf13b1461018a578063ef81f2161461019f57600080fd5b8063313ce56714610098578063395c46ba146100ce5780636f307dc3146100e357806376cf13af1461011a575b600080fd5b60405160ff7f00000000000000000000000000000000000000000000000000000000000000001681526020015b60405180910390f35b6100d66101a7565b6040516100c59190610348565b6040516001600160a01b037f00000000000000000000000000000000000000000000000000000000000000001681526020016100c5565b6101326101283660046103d8565b5060609392505050565b6040516100c59190610510565b61014d6101283660046103d8565b6040516100c591906105f6565b6101626101c3565b604080519283526020830191909152016100c5565b61014d61018536600461069a565b61020f565b6101926101a7565b6040516100c591906106b3565b610162610219565b60606101be60408051600081526020810190915290565b905090565b6000806101ce610224565b91507f00000000000000000000000000000000000000000000000000000000000000006101ff6305f5e100846106f4565b6102099190610719565b90509091565b6060805b92915050565b6000806101ce61033e565b604080516001808252818301909252600091829190602080830190803683370190505090507f00000000000000000000000000000000000000000000000000000000000000008160008151811061027d5761027d610751565b6001600160a01b039283166020918202929092010152604051631794b8ef60e01b81527f000000000000000000000000000000000000000000000000000000000000000090911690631794b8ef906102d99084906004016106b3565b600060405180830381865afa1580156102f6573d6000803e3d6000fd5b505050506040513d6000823e601f3d908101601f1916820160405261031e9190810190610767565b60008151811061033057610330610751565b602002602001015191505090565b60006101be610224565b6020808252825182820181905260009190848201906040850190845b8181101561038057835183529284019291840191600101610364565b50909695505050505050565b60008083601f84011261039e57600080fd5b50813567ffffffffffffffff8111156103b657600080fd5b6020830191508360208260051b85010111156103d157600080fd5b9250929050565b600080600080604085870312156103ee57600080fd5b843567ffffffffffffffff8082111561040657600080fd5b6104128883890161038c565b9096509450602087013591508082111561042b57600080fd5b506104388782880161038c565b95989497509550505050565b600081518084526020808501945080840160005b8381101561047d5781516001600160a01b031687529582019590820190600101610458565b509495945050505050565b600082825180855260208086019550808260051b8401018186016000805b8581101561050257601f1980888603018b5283518051808752845b818110156104dc578281018901518882018a015288016104c1565b5086810188018590529b87019b601f0190911690940185019350918401916001016104a6565b509198975050505050505050565b60006020808301818452808551808352604092508286019150828160051b8701018488016000805b848110156105e757603f198a8503018652825160a0815181875261055e82880182610444565b915050898201518682038b8801526105768282610488565b838b0151888203898d01528051808352908d019350869250908c01905b808310156105b35783518252928c019260019290920191908c0190610593565b50606084810151908901526080938401516001600160a01b0316939097019290925250509487019491870191600101610538565b50919998505050505050505050565b60006020808301818452808551808352604092508286019150828160051b87010184880160005b8381101561068c57603f1989840301855281516080815181865261064382870182610444565b915050888201518582038a87015261065b8282610488565b838a0151878b01526060938401516001600160a01b031693909601929092525050938601939086019060010161061d565b509098975050505050505050565b6000602082840312156106ac57600080fd5b5035919050565b6020808252825182820181905260009190848201906040850190845b818110156103805783516001600160a01b0316835292840192918401916001016106cf565b808202811582820484141761021357634e487b7160e01b600052601160045260246000fd5b60008261073657634e487b7160e01b600052601260045260246000fd5b500490565b634e487b7160e01b600052604160045260246000fd5b634e487b7160e01b600052603260045260246000fd5b6000602080838503121561077a57600080fd5b825167ffffffffffffffff8082111561079257600080fd5b818501915085601f8301126107a657600080fd5b8151818111156107b8576107b861073b565b8060051b604051601f19603f830116810181811085821117156107dd576107dd61073b565b6040529182528482019250838101850191888311156107fb57600080fd5b938501935b8285101561081957845184529385019392850192610800565b9897505050505050505056fea2646970667358221220e10c19903a31b8c2d39e81070955976637e8c26c84d8db8bc9cdf24334b1b77864736f6c63430008110033","bytecodeSha1":"66dc7ebd2368f79fb0e1deef45ede1218ccc8b14","compiler":{"evm_version":"istanbul","optimizer":{"enabled":true,"runs":200},"version":"0.8.17+commit.8df45f5f"},"contractName":"UnderlyingHoldingsOracle","language":"Solidity","natspec":{"kind":"dev","methods":{"decimals()":{"notice":"Returns the native decimal precision of the underlying token"},"getRedemptionCalldata(uint256)":{"notice":"Returns calldata for how to withdraw an amount"},"getTotalUnderlyingValueStateful()":{"notice":"Returns the total underlying held by the caller in all the listed holdings"},"holdings()":{"notice":"Returns a list of the various holdings for the prime cash currency"},"underlying()":{"notice":"Returns the underlying token that all holdings can be redeemed for."}},"version":1},"opcodes":"PUSH1 0x80 PUSH1 0x40 MSTORE CALLVALUE DUP1 ISZERO PUSH2 0x10 JUMPI PUSH1 0x0 DUP1 REVERT JUMPDEST POP PUSH1 0x4 CALLDATASIZE LT PUSH2 0x93 JUMPI PUSH1 0x0 CALLDATALOAD PUSH1 0xE0 SHR DUP1 PUSH4 0x871ADE43 GT PUSH2 0x66 JUMPI DUP1 PUSH4 0x871ADE43 EQ PUSH2 0x13F JUMPI DUP1 PUSH4 0xA77C05B8 EQ PUSH2 0x15A JUMPI DUP1 PUSH4 0xB5E4DA23 EQ PUSH2 0x177 JUMPI DUP1 PUSH4 0xE79BF13B EQ PUSH2 0x18A JUMPI DUP1 PUSH4 0xEF81F216 EQ PUSH2 0x19F JUMPI PUSH1 0x0 DUP1 REVERT JUMPDEST DUP1 PUSH4 0x313CE567 EQ PUSH2 0x98 JUMPI DUP1 PUSH4 0x395C46BA EQ PUSH2 0xCE JUMPI DUP1 PUSH4 0x6F307DC3 EQ PUSH2 0xE3 JUMPI DUP1 PUSH4 0x76CF13AF EQ PUSH2 0x11A JUMPI JUMPDEST PUSH1 0x0 DUP1 REVERT JUMPDEST PUSH1 0x40 MLOAD PUSH1 0xFF PUSH32 0x0 AND DUP2 MSTORE PUSH1 0x20 ADD JUMPDEST PUSH1 0x40 MLOAD DUP1 SWAP2 SUB SWAP1 RETURN JUMPDEST PUSH2 0xD6 PUSH2 0x1A7 JUMP JUMPDEST PUSH1 0x40 MLOAD PUSH2 0xC5 SWAP2 SWAP1 PUSH2 0x348 JUMP JUMPDEST PUSH1 0x40 MLOAD PUSH1 0x1 PUSH1 0x1 PUSH1 0xA0 SHL SUB PUSH32 0x0 AND DUP2 MSTORE PUSH1 0x20 ADD PUSH2 0xC5 JUMP JUMPDEST PUSH2 0x132 PUSH2 0x128 CALLDATASIZE PUSH1 0x4 PUSH2 0x3D8 JUMP JUMPDEST POP PUSH1 0x60 SWAP4 SWAP3 POP POP POP JUMP JUMPDEST PUSH1 0x40 MLOAD PUSH2 0xC5 SWAP2 SWAP1 PUSH2 0x510 JUMP JUMPDEST PUSH2 0x14D PUSH2 0x128 CALLDATASIZE PUSH1 0x4 PUSH2 0x3D8 JUMP JUMPDEST PUSH1 0x40 MLOAD PUSH2 0xC5 SWAP2 SWAP1 PUSH2 0x5F6 JUMP JUMPDEST PUSH2 0x162 PUSH2 0x1C3 JUMP JUMPDEST PUSH1 0x40 DUP1 MLOAD SWAP3 DUP4 MSTORE PUSH1 0x20 DUP4 ADD SWAP2 SWAP1 SWAP2 MSTORE ADD PUSH2 0xC5 JUMP JUMPDEST PUSH2 0x14D PUSH2 0x185 CALLDATASIZE PUSH1 0x4 PUSH2 0x69A JUMP JUMPDEST PUSH2 0x20F JUMP JUMPDEST PUSH2 0x192 PUSH2 0x1A7 JUMP JUMPDEST PUSH1 0x40 MLOAD PUSH2 0xC5 SWAP2 SWAP1 PUSH2 0x6B3 JUMP JUMPDEST PUSH2 0x162 PUSH2 0x219 JUMP JUMPDEST PUSH1 0x60 PUSH2 0x1BE PUSH1 0x40 DUP1 MLOAD PUSH1 0x0 DUP2 MSTORE PUSH1 0x20 DUP2 ADD SWAP1 SWAP2 MSTORE SWAP1 JUMP JUMPDEST SWAP1 POP SWAP1 JUMP JUMPDEST PUSH1 0x0 DUP1 PUSH2 0x1CE PUSH2 0x224 JUMP JUMPDEST SWAP2 POP PUSH32 0x0 PUSH2 0x1FF PUSH4 0x5F5E100 DUP5 PUSH2 0x6F4 JUMP JUMPDEST PUSH2 0x209 SWAP2 SWAP1 PUSH2 0x719 JUMP JUMPDEST SWAP1 POP SWAP1 SWAP2 JUMP JUMPDEST PUSH1 0x60 DUP1 JUMPDEST SWAP3 SWAP2 POP POP JUMP JUMPDEST PUSH1 0x0 DUP1 PUSH2 0x1CE PUSH2 0x33E JUMP JUMPDEST PUSH1 0x40 DUP1 MLOAD PUSH1 0x1 DUP1 DUP3 MSTORE DUP2 DUP4 ADD SWAP1 SWAP3 MSTORE PUSH1 0x0 SWAP2 DUP3 SWAP2 SWAP1 PUSH1 0x20 DUP1 DUP4 ADD SWAP1 DUP1 CALLDATASIZE DUP4 CALLDATACOPY ADD SWAP1 POP POP SWAP1 POP PUSH32 0x0 DUP2 PUSH1 0x0 DUP2 MLOAD DUP2 LT PUSH2 0x27D JUMPI PUSH2 0x27D PUSH2 0x751 JUMP JUMPDEST PUSH1 0x1 PUSH1 0x1 PUSH1 0xA0 SHL SUB SWAP3 DUP4 AND PUSH1 0x20 SWAP2 DUP3 MUL SWAP3 SWAP1 SWAP3 ADD ADD MSTORE PUSH1 0x40 MLOAD PUSH4 0x1794B8EF PUSH1 0xE0 SHL DUP2 MSTORE PUSH32 0x0 SWAP1 SWAP2 AND SWAP1 PUSH4 0x1794B8EF SWAP1 PUSH2 0x2D9 SWAP1 DUP5 SWAP1 PUSH1 0x4 ADD PUSH2 0x6B3 JUMP JUMPDEST PUSH1 0x0 PUSH1 0x40 MLOAD DUP1 DUP4 SUB DUP2 DUP7 GAS STATICCALL ISZERO DUP1 ISZERO PUSH2 0x2F6 JUMPI RETURNDATASIZE PUSH1 0x0 DUP1 RETURNDATACOPY RETURNDATASIZE PUSH1 0x0 REVERT JUMPDEST POP POP POP POP PUSH1 0x40 MLOAD RETURNDATASIZE PUSH1 0x0 DUP3 RETURNDATACOPY PUSH1 0x1F RETURNDATASIZE SWAP1 DUP2 ADD PUSH1 0x1F NOT AND DUP3 ADD PUSH1 0x40 MSTORE PUSH2 0x31E SWAP2 SWAP1 DUP2 ADD SWAP1 PUSH2 0x767 JUMP JUMPDEST PUSH1 0x0 DUP2 MLOAD DUP2 LT PUSH2 0x330 JUMPI PUSH2 0x330 PUSH2 0x751 JUMP JUMPDEST PUSH1 0x20 MUL PUSH1 0x20 ADD ADD MLOAD SWAP2 POP POP SWAP1 JUMP JUMPDEST PUSH1 0x0 PUSH2 0x1BE PUSH2 0x224 JUMP JUMPDEST PUSH1 0x20 DUP1 DUP3 MSTORE DUP3 MLOAD DUP3 DUP3 ADD DUP2 SWAP1 MSTORE PUSH1 0x0 SWAP2 SWAP1 DUP5 DUP3 ADD SWAP1 PUSH1 0x40 DUP6 ADD SWAP1 DUP5 JUMPDEST DUP2 DUP2 LT ISZERO PUSH2 0x380 JUMPI DUP4 MLOAD DUP4 MSTORE SWAP3 DUP5 ADD SWAP3 SWAP2 DUP5 ADD SWAP2 PUSH1 0x1 ADD PUSH2 0x364 JUMP JUMPDEST POP SWAP1 SWAP7 SWAP6 POP POP POP POP POP POP JUMP JUMPDEST PUSH1 0x0 DUP1 DUP4 PUSH1 0x1F DUP5 ADD SLT PUSH2 0x39E JUMPI PUSH1 0x0 DUP1 REVERT JUMPDEST POP DUP2 CALLDATALOAD PUSH8 0xFFFFFFFFFFFFFFFF DUP2 GT ISZERO PUSH2 0x3B6 JUMPI PUSH1 0x0 DUP1 REVERT JUMPDEST PUSH1 0x20 DUP4 ADD SWAP2 POP DUP4 PUSH1 0x20 DUP3 PUSH1 0x5 SHL DUP6 ADD ADD GT ISZERO PUSH2 0x3D1 JUMPI PUSH1 0x0 DUP1 REVERT JUMPDEST SWAP3 POP SWAP3 SWAP1 POP JUMP JUMPDEST PUSH1 0x0 DUP1 PUSH1 0x0 DUP1 PUSH1 0x40 DUP6 DUP8 SUB SLT ISZERO PUSH2 0x3EE JUMPI PUSH1 0x0 DUP1 REVERT JUMPDEST DUP5 CALLDATALOAD PUSH8 0xFFFFFFFFFFFFFFFF DUP1 DUP3 GT ISZERO PUSH2 0x406 JUMPI PUSH1 0x0 DUP1 REVERT JUMPDEST PUSH2 0x412 DUP9 DUP4 DUP10 ADD PUSH2 0x38C JUMP JUMPDEST SWAP1 SWAP7 POP SWAP5 POP PUSH1 0x20 DUP8 ADD CALLDATALOAD SWAP2 POP DUP1 DUP3 GT ISZERO PUSH2 0x42B JUMPI PUSH1 0x0 DUP1 REVERT JUMPDEST POP PUSH2 0x438 DUP8 DUP3 DUP9 ADD PUSH2 0x38C JUMP JUMPDEST SWAP6 SWAP9 SWAP5 SWAP8 POP SWAP6 POP POP POP POP JUMP JUMPDEST PUSH1 0x0 DUP2 MLOAD DUP1 DUP5 MSTORE PUSH1 0x20 DUP1 DUP6 ADD SWAP5 POP DUP1 DUP5 ADD PUSH1 0x0 JUMPDEST DUP4 DUP2 LT ISZERO PUSH2 0x47D JUMPI DUP2 MLOAD PUSH1 0x1 PUSH1 0x1 PUSH1 0xA0 SHL SUB AND DUP8 MSTORE SWAP6 DUP3 ADD SWAP6 SWAP1 DUP3 ADD SWAP1 PUSH1 0x1 ADD PUSH2 0x458 JUMP JUMPDEST POP SWAP5 SWAP6 SWAP5 POP POP POP POP POP JUMP JUMPDEST PUSH1 0x0 DUP3 DUP3 MLOAD DUP1 DUP6 MSTORE PUSH1 0x20 DUP1 DUP7 ADD SWAP6 POP DUP1 DUP3 PUSH1 0x5 SHL DUP5 ADD ADD DUP2 DUP7 ADD PUSH1 0x0 DUP1 JUMPDEST DUP6 DUP2 LT ISZERO PUSH2 0x502 JUMPI PUSH1 0x1F NOT DUP1 DUP9 DUP7 SUB ADD DUP12 MSTORE DUP4 MLOAD DUP1 MLOAD DUP1 DUP8 MSTORE DUP5 JUMPDEST DUP2 DUP2 LT ISZERO PUSH2 0x4DC JUMPI DUP3 DUP2 ADD DUP10 ADD MLOAD DUP9 DUP3 ADD DUP11 ADD MSTORE DUP9 ADD PUSH2 0x4C1 JUMP JUMPDEST POP DUP7 DUP2 ADD DUP9 ADD DUP6 SWAP1 MSTORE SWAP12 DUP8 ADD SWAP12 PUSH1 0x1F ADD SWAP1 SWAP2 AND SWAP1 SWAP5 ADD DUP6 ADD SWAP4 POP SWAP2 DUP5 ADD SWAP2 PUSH1 0x1 ADD PUSH2 0x4A6 JUMP JUMPDEST POP SWAP2 SWAP9 SWAP8 POP POP POP POP POP POP POP POP JUMP JUMPDEST PUSH1 0x0 PUSH1 0x20 DUP1 DUP4 ADD DUP2 DUP5 MSTORE DUP1 DUP6 MLOAD DUP1 DUP4 MSTORE PUSH1 0x40 SWAP3 POP DUP3 DUP7 ADD SWAP2 POP DUP3 DUP2 PUSH1 0x5 SHL DUP8 ADD ADD DUP5 DUP9 ADD PUSH1 0x0 DUP1 JUMPDEST DUP5 DUP2 LT ISZERO PUSH2 0x5E7 JUMPI PUSH1 0x3F NOT DUP11 DUP6 SUB ADD DUP7 MSTORE DUP3 MLOAD PUSH1 0xA0 DUP2 MLOAD DUP2 DUP8 MSTORE PUSH2 0x55E DUP3 DUP9 ADD DUP3 PUSH2 0x444 JUMP JUMPDEST SWAP2 POP POP DUP10 DUP3 ADD MLOAD DUP7 DUP3 SUB DUP12 DUP9 ADD MSTORE PUSH2 0x576 DUP3 DUP3 PUSH2 0x488 JUMP JUMPDEST DUP4 DUP12 ADD MLOAD DUP9 DUP3 SUB DUP10 DUP14 ADD MSTORE DUP1 MLOAD DUP1 DUP4 MSTORE SWAP1 DUP14 ADD SWAP4 POP DUP7 SWAP3 POP SWAP1 DUP13 ADD SWAP1 JUMPDEST DUP1 DUP4 LT ISZERO PUSH2 0x5B3 JUMPI DUP4 MLOAD DUP3 MSTORE SWAP3 DUP13 ADD SWAP3 PUSH1 0x1 SWAP3 SWAP1 SWAP3 ADD SWAP2 SWAP1 DUP13 ADD SWAP1 PUSH2 0x593 JUMP JUMPDEST POP PUSH1 0x60 DUP5 DUP2 ADD MLOAD SWAP1 DUP10 ADD MSTORE PUSH1 0x80 SWAP4 DUP5 ADD MLOAD PUSH1 0x1 PUSH1 0x1 PUSH1 0xA0 SHL SUB AND SWAP4 SWAP1 SWAP8 ADD SWAP3 SWAP1 SWAP3 MSTORE POP POP SWAP5 DUP8 ADD SWAP5 SWAP2 DUP8 ADD SWAP2 PUSH1 0x1 ADD PUSH2 0x538 JUMP JUMPDEST POP SWAP2 SWAP10 SWAP9 POP POP POP POP POP POP POP POP POP JUMP JUMPDEST PUSH1 0x0 PUSH1 0x20 DUP1 DUP4 ADD DUP2 DUP5 MSTORE DUP1 DUP6 MLOAD DUP1 DUP4 MSTORE PUSH1 0x40 SWAP3 POP DUP3 DUP7 ADD SWAP2 POP DUP3 DUP2 PUSH1 0x5 SHL DUP8 ADD ADD DUP5 DUP9 ADD PUSH1 0x0 JUMPDEST DUP4 DUP2 LT ISZERO PUSH2 0x68C JUMPI PUSH1 0x3F NOT DUP10 DUP5 SUB ADD DUP6 MSTORE DUP2 MLOAD PUSH1 0x80 DUP2 MLOAD DUP2 DUP7 MSTORE PUSH2 0x643 DUP3 DUP8 ADD DUP3 PUSH2 0x444 JUMP JUMPDEST SWAP2 POP POP DUP9 DUP3 ADD MLOAD DUP6 DUP3 SUB DUP11 DUP8 ADD MSTORE PUSH2 0x65B DUP3 DUP3 PUSH2 0x488 JUMP JUMPDEST DUP4 DUP11 ADD MLOAD DUP8 DUP12 ADD MSTORE PUSH1 0x60 SWAP4 DUP5 ADD MLOAD PUSH1 0x1 PUSH1 0x1 PUSH1 0xA0 SHL SUB AND SWAP4 SWAP1 SWAP7 ADD SWAP3 SWAP1 SWAP3 MSTORE POP POP SWAP4 DUP7 ADD SWAP4 SWAP1 DUP7 ADD SWAP1 PUSH1 0x1 ADD PUSH2 0x61D JUMP JUMPDEST POP SWAP1 SWAP9 SWAP8 POP POP POP POP POP POP POP POP JUMP JUMPDEST PUSH1 0x0 PUSH1 0x20 DUP3 DUP5 SUB SLT ISZERO PUSH2 0x6AC JUMPI PUSH1 0x0 DUP1 REVERT JUMPDEST POP CALLDATALOAD SWAP2 SWAP1 POP JUMP JUMPDEST PUSH1 0x20 DUP1 DUP3 MSTORE DUP3 MLOAD DUP3 DUP3 ADD DUP2 SWAP1 MSTORE PUSH1 0x0 SWAP2 SWAP1 DUP5 DUP3 ADD SWAP1 PUSH1 0x40 DUP6 ADD SWAP1 DUP5 JUMPDEST DUP2 DUP2 LT ISZERO PUSH2 0x380 JUMPI DUP4 MLOAD PUSH1 0x1 PUSH1 0x1 PUSH1 0xA0 SHL SUB AND DUP4 MSTORE SWAP3 DUP5 ADD SWAP3 SWAP2 DUP5 ADD SWAP2 PUSH1 0x1 ADD PUSH2 0x6CF JUMP JUMPDEST DUP1 DUP3 MUL DUP2 ISZERO DUP3 DUP3 DIV DUP5 EQ OR PUSH2 0x213 JUMPI PUSH4 0x4E487B71 PUSH1 0xE0 SHL PUSH1 0x0 MSTORE PUSH1 0x11 PUSH1 0x4 MSTORE PUSH1 0x24 PUSH1 0x0 REVERT JUMPDEST PUSH1 0x0 DUP3 PUSH2 0x736 JUMPI PUSH4 0x4E487B71 PUSH1 0xE0 SHL PUSH1 0x0 MSTORE PUSH1 0x12 PUSH1 0x4 MSTORE PUSH1 0x24 PUSH1 0x0 REVERT JUMPDEST POP DIV SWAP1 JUMP JUMPDEST PUSH4 0x4E487B71 PUSH1 0xE0 SHL PUSH1 0x0 MSTORE PUSH1 0x41 PUSH1 0x4 MSTORE PUSH1 0x24 PUSH1 0x0 REVERT JUMPDEST PUSH4 0x4E487B71 PUSH1 0xE0 SHL PUSH1 0x0 MSTORE PUSH1 0x32 PUSH1 0x4 MSTORE PUSH1 0x24 PUSH1 0x0 REVERT JUMPDEST PUSH1 0x0 PUSH1 0x20 DUP1 DUP4 DUP6 SUB SLT ISZERO PUSH2 0x77A JUMPI PUSH1 0x0 DUP1 REVERT JUMPDEST DUP3 MLOAD PUSH8 0xFFFFFFFFFFFFFFFF DUP1 DUP3 GT ISZERO PUSH2 0x792 JUMPI PUSH1 0x0 DUP1 REVERT JUMPDEST DUP2 DUP6 ADD SWAP2 POP DUP6 PUSH1 0x1F DUP4 ADD SLT PUSH2 0x7A6 JUMPI PUSH1 0x0 DUP1 REVERT JUMPDEST DUP2 MLOAD DUP2 DUP2 GT ISZERO PUSH2 0x7B8 JUMPI PUSH2 0x7B8 PUSH2 0x73B JUMP JUMPDEST DUP1 PUSH1 0x5 SHL PUSH1 0x40 MLOAD PUSH1 0x1F NOT PUSH1 0x3F DUP4 ADD AND DUP2 ADD DUP2 DUP2 LT DUP6 DUP3 GT OR ISZERO PUSH2 0x7DD JUMPI PUSH2 0x7DD PUSH2 0x73B JUMP JUMPDEST PUSH1 0x40 MSTORE SWAP2 DUP3 MSTORE DUP5 DUP3 ADD SWAP3 POP DUP4 DUP2 ADD DUP6 ADD SWAP2 DUP9 DUP4 GT ISZERO PUSH2 0x7FB JUMPI PUSH1 0x0 DUP1 REVERT JUMPDEST SWAP4 DUP6 ADD SWAP4 JUMPDEST DUP3 DUP6 LT ISZERO PUSH2 0x819 JUMPI DUP5 MLOAD DUP5 MSTORE SWAP4 DUP6 ADD SWAP4 SWAP3 DUP6 ADD SWAP3 PUSH2 0x800 JUMP JUMPDEST SWAP9 SWAP8 POP POP POP POP POP POP POP POP JUMP INVALID LOG2 PUSH5 0x6970667358 0x22 SLT KECCAK256 0xE1 0xC NOT SWAP1 GASPRICE BALANCE 0xB8 0xC2 0xD3 SWAP15 DUP2 SMOD MULMOD SSTORE SWAP8 PUSH7 0x37E8C26C84D8DB DUP12 0xC9 0xCD CALLCODE NUMBER CALLVALUE 0xB1 0xB7 PUSH25 0x64736F6C634300081100330000000000000000000000000000 ","sha1":"b22116b23b672dea06c665d266aab64a0d0ceb54","source":"// SPDX-License-Identifier: GPL-3.0-only\npragma solidity =0.8.17;\n\nimport {Constants} from \"../../global/Constants.sol\";\nimport {IERC20} from \"../../../interfaces/IERC20.sol\";\nimport {NotionalProxy} from \"../../../interfaces/notional/NotionalProxy.sol\";\nimport {\n    IPrimeCashHoldingsOracle,\n    DepositData,\n    RedeemData\n} from \"../../../interfaces/notional/IPrimeCashHoldingsOracle.sol\";\n\ncontract UnderlyingHoldingsOracle is IPrimeCashHoldingsOracle {\n    NotionalProxy internal immutable NOTIONAL;\n    address internal immutable UNDERLYING_TOKEN;\n    uint8 internal immutable UNDERLYING_DECIMALS;\n    uint256 private immutable UNDERLYING_PRECISION;\n    bool internal immutable UNDERLYING_IS_ETH;\n\n    constructor(NotionalProxy notional_, address underlying_) {\n        NOTIONAL = notional_;\n        UNDERLYING_TOKEN = underlying_;\n        UNDERLYING_IS_ETH = underlying_ == Constants.ETH_ADDRESS;\n        UNDERLYING_DECIMALS = UNDERLYING_IS_ETH ? 18 : IERC20(UNDERLYING_TOKEN).decimals();\n        UNDERLYING_PRECISION = 10**UNDERLYING_DECIMALS;\n    }\n    \n    /// @notice Returns a list of the various holdings for the prime cash\n    /// currency\n    function holdings() external view override returns (address[] memory) {\n        return _holdings();\n    }\n\n    /// @notice Returns the underlying token that all holdings can be redeemed\n    /// for.\n    function underlying() external view override returns (address) {\n        return UNDERLYING_TOKEN;\n    }\n    \n    /// @notice Returns the native decimal precision of the underlying token\n    function decimals() external view override returns (uint8) {\n        return UNDERLYING_DECIMALS;\n    }\n\n    /// @notice Returns the total underlying held by the caller in all the\n    /// listed holdings\n    function getTotalUnderlyingValueStateful() external override returns (\n        uint256 nativePrecision,\n        uint256 internalPrecision\n    ) {\n        nativePrecision = _getTotalUnderlyingValueStateful();\n        internalPrecision = nativePrecision * uint256(Constants.INTERNAL_TOKEN_PRECISION) / UNDERLYING_PRECISION;\n    }\n\n    function getTotalUnderlyingValueView() external view override returns (\n        uint256 nativePrecision,\n        uint256 internalPrecision\n    ) {\n        nativePrecision = _getTotalUnderlyingValueView();\n        internalPrecision = nativePrecision * uint256(Constants.INTERNAL_TOKEN_PRECISION) / UNDERLYING_PRECISION;\n    }\n\n    function holdingValuesInUnderlying() external view override returns (uint256[] memory) {\n        return _holdingValuesInUnderlying();\n    }\n\n    /// @notice Returns calldata for how to withdraw an amount\n    function getRedemptionCalldata(uint256 withdrawAmount) external view override returns (RedeemData[] memory redeemData) {\n        return _getRedemptionCalldata(withdrawAmount);\n    }\n\n    function getRedemptionCalldataForRebalancing(\n        address[] calldata holdings_, \n        uint256[] calldata withdrawAmounts\n    ) external view override returns (RedeemData[] memory redeemData) {\n        return _getRedemptionCalldataForRebalancing(holdings_, withdrawAmounts);\n    }\n\n    function getDepositCalldataForRebalancing(\n        address[] calldata holdings_, \n        uint256[] calldata depositAmounts\n    ) external view override returns (DepositData[] memory depositData) {\n        return _getDepositCalldataForRebalancing(holdings_, depositAmounts);\n    }\n\n    function _holdings() internal view virtual returns (address[] memory) {\n        return new address[](0);\n    }\n\n    function _getTotalUnderlyingValueStateful() internal virtual returns (uint256) {\n        return _getTotalUnderlyingValueView();\n    }\n\n    function _getTotalUnderlyingValueView() internal view virtual returns (uint256) {\n        address[] memory tokens = new address[](1);\n        tokens[0] = UNDERLYING_TOKEN;\n        return NOTIONAL.getStoredTokenBalances(tokens)[0];\n    }\n\n    function _holdingValuesInUnderlying() internal view virtual returns (uint256[] memory) {\n        return new uint256[](0);\n    }\n\n    /// @notice Returns calldata for how to withdraw an amount\n    function _getRedemptionCalldata(\n        uint256 /* withdrawAmount */ \n    ) internal view virtual returns (RedeemData[] memory /* redeemData */) { /* No-op */ }\n\n    function _getRedemptionCalldataForRebalancing(\n        address[] calldata /* holdings_ */, \n        uint256[] calldata /* withdrawAmounts */\n    ) internal view virtual returns (RedeemData[] memory /* redeemData */) { /* No-op */ }\n\n    function _getDepositCalldataForRebalancing(\n        address[] calldata /* holdings_ */, \n        uint256[] calldata /* depositAmount */\n    ) internal view virtual returns (DepositData[] memory /* depositData */) { /* No-op */ }\n}\n","sourcePath":"contracts/external/pCash/UnderlyingHoldingsOracle.sol","type":"contract","deployment":{"address":"0x7c8488771e60e07ef222213E1cc620582fC9fe67","chainid":"42161","blockHeight":123258632}}