{"abi":[{"anonymous":false,"inputs":[{"indexed":true,"internalType":"address","name":"vault","type":"address"},{"indexed":true,"internalType":"address","name":"account","type":"address"},{"indexed":true,"internalType":"address","name":"liquidator","type":"address"},{"indexed":false,"internalType":"uint16","name":"currencyId","type":"uint16"},{"indexed":false,"internalType":"int256","name":"fCashDeposit","type":"int256"},{"indexed":false,"internalType":"int256","name":"cashToLiquidator","type":"int256"}],"name":"VaultAccountCashLiquidation","type":"event"},{"anonymous":false,"inputs":[{"indexed":true,"internalType":"address","name":"vault","type":"address"},{"indexed":true,"internalType":"address","name":"account","type":"address"},{"indexed":false,"internalType":"uint16","name":"currencyId","type":"uint16"},{"indexed":false,"internalType":"uint256","name":"vaultSharesToLiquidator","type":"uint256"},{"indexed":false,"internalType":"int256","name":"depositAmountPrimeCash","type":"int256"}],"name":"VaultDeleverageAccount","type":"event"},{"anonymous":false,"inputs":[{"indexed":true,"internalType":"address","name":"vault","type":"address"},{"indexed":true,"internalType":"address","name":"account","type":"address"},{"indexed":true,"internalType":"address","name":"liquidator","type":"address"},{"indexed":false,"internalType":"uint256","name":"vaultSharesToLiquidator","type":"uint256"},{"indexed":false,"internalType":"bool","name":"transferSharesToLiquidator","type":"bool"}],"name":"VaultLiquidatorProfit","type":"event"},{"inputs":[{"internalType":"address","name":"account","type":"address"},{"internalType":"address","name":"vault","type":"address"},{"internalType":"address","name":"liquidator","type":"address"},{"internalType":"uint16","name":"currencyIndex","type":"uint16"},{"internalType":"int256","name":"depositUnderlyingInternal","type":"int256"}],"name":"deleverageAccount","outputs":[{"internalType":"uint256","name":"vaultSharesToLiquidator","type":"uint256"},{"internalType":"int256","name":"depositAmountPrimeCash","type":"int256"}],"stateMutability":"payable","type":"function"},{"inputs":[],"name":"getLibInfo","outputs":[{"internalType":"address","name":"","type":"address"},{"internalType":"address","name":"","type":"address"}],"stateMutability":"pure","type":"function"},{"inputs":[{"internalType":"address","name":"account","type":"address"},{"internalType":"address","name":"vault","type":"address"},{"internalType":"address","name":"liquidator","type":"address"},{"internalType":"uint256","name":"excessCashIndex","type":"uint256"},{"internalType":"uint256","name":"debtIndex","type":"uint256"},{"internalType":"uint256","name":"_depositUnderlyingInternal","type":"uint256"}],"name":"liquidateExcessVaultCash","outputs":[{"internalType":"int256","name":"cashToLiquidator","type":"int256"}],"stateMutability":"payable","type":"function"},{"inputs":[{"internalType":"address","name":"account","type":"address"},{"internalType":"address","name":"vault","type":"address"},{"internalType":"address","name":"liquidator","type":"address"},{"internalType":"uint256","name":"currencyIndex","type":"uint256"},{"internalType":"int256","name":"fCashDeposit","type":"int256"}],"name":"liquidateVaultCashBalance","outputs":[{"internalType":"int256","name":"cashToLiquidator","type":"int256"}],"stateMutability":"nonpayable","type":"function"},{"inputs":[],"name":"owner","outputs":[{"internalType":"address","name":"","type":"address"}],"stateMutability":"view","type":"function"},{"inputs":[],"name":"pauseGuardian","outputs":[{"internalType":"address","name":"","type":"address"}],"stateMutability":"view","type":"function"},{"inputs":[],"name":"pauseRouter","outputs":[{"internalType":"address","name":"","type":"address"}],"stateMutability":"view","type":"function"}],"bytecode":"608060405234801561001057600080fd5b50615f5380620000216000396000f3fe6080604052600436106100705760003560e01c80638da5cb5b1161004e5780638da5cb5b146100d55780639ab77186146100ea578063c4c96dae1461010a578063fcaf198b1461012d57610070565b806321bf8c661461007557806324a3d6221461009e57806382463367146100c0575b600080fd5b6100886100833660046156b7565b61014e565b6040516100959190615be1565b60405180910390f35b3480156100aa57600080fd5b506100b36103f5565b6040516100959190615b0c565b3480156100cc57600080fd5b506100b3610404565b3480156100e157600080fd5b506100b3610413565b3480156100f657600080fd5b5061008861010536600461565d565b61042a565b34801561011657600080fd5b5061011f6105b9565b604051610095929190615b20565b61014061013b3660046155f4565b6105e7565b604051610095929190615e48565b60006002600a54141561016057600080fd5b6002600a556000806101738989896107c4565b50915091506101818261090d565b61018a57600080fd5b60006101958361093c565b60405163b14428b960e01b8152909150600090309063b14428b9906101c0908e908e90600401615b20565b6101806040518083038186803b1580156101d957600080fd5b505afa1580156101ed573d6000803e3d6000fd5b505050506040513d601f19601f8201168201806040525081019061021191906158e6565b505090508060600151886003811061022557fe5b602002015160001261023657600080fd5b60008160600151886003811061024857fe5b60200201511261025757600080fd5b600061026585848b8b61099c565b9050600061027288610aaa565b90506102bb6102b060646102aa85608001516102aa8760a001516102a48d6101c0015189610ac490919063ffffffff16565b90610ac4565b90610b18565b604084015190610b49565b96508683606001518b600381106102ce57fe5b602002015112156103285782606001518a600381106102e957fe5b602002015196506103258260a001516102aa886101c001516102aa60646102a488608001516102a48f8b60400151610b7290919063ffffffff16565b90505b606082015160009061033a9083610b49565b9050600061034789610b9e565b905061035787898e846000610bac565b61036587898d856000610bac565b6103758e8e86600001518c610d11565b61038b8d85600001518387604001516000610db7565b506103a18f8f86600001518a6020015185610e60565b6103b78d85602001518487606001516000610ef7565b506103c88d8f866020015185610d11565b6103dd8f8f86602001518a6020015186610e60565b50506001600a5550949b9a5050505050505050505050565b6002546001600160a01b031681565b6001546001600160a01b031681565b60005464010000000090046001600160a01b031681565b60006002600a54141561043c57600080fd5b6002600a55600080806104508989896107c4565b9250925092506000610460615169565b6000808961048357505050506040830151610160840151835160808501516104a2565b60038a101561007057610497878b8f610f6d565b929650909450925090505b602086015160405163f82f279d60e01b81526000918291309163f82f279d916104d1918a918890600401615ccd565b604080518083038186803b1580156104e857600080fd5b505afa1580156104fc573d6000803e3d6000fd5b505050506040513d601f19601f820116820180604052508101906105209190615849565b90925090506105396105328c83611007565b8690610b49565b9950828a131561054a57819a508299505b5050886000128015610564575061056082610b9e565b8913155b61056d57600080fd5b61057b868c8e878d8d611020565b61058a8786888d8d6000611193565b6105a3878b6105988b610b9e565b899291906000610bac565b50506001600a5550939998505050505050505050565b73__FreeCollateralExternal________________73__SettleAssetsExternal__________________9091565b6000806002600a5414156105fa57600080fd5b6002600a55600361ffff85161061061057600080fd5b60008060006106208a8a8a6107c4565b92509250925061062e615169565b604051630c74db1f60e41b8152309063c74db1f090610659908b908790899088908e90600401615ce9565b60a060405180830381600087803b15801561067357600080fd5b505af1158015610687573d6000803e3d6000fd5b505050506040513d601f19601f820116820180604052508101906106ab919061586c565b91985096509050600087136106bf57600080fd5b6040840151600161ffff8a1614156106de5750610140840151516106f7565b8861ffff16600214156106f75750610140840151602001515b60006107068261ffff1661126c565b905061071f8b83610717848d61127f565b8660006112b7565b90508097505061074d8b8e8e8588600001518f61ffff16600014610744576000610746565b8c5b8e8a611379565b604085015161075c9089611497565b6040860152602085015164ffffffffff141561078a576107858685878d61ffff168d6001611193565b600096505b61079c858761ffff8d168a6001610bac565b6107ac8b878a88602001516114ac565b5050505050506001600a819055509550959350505050565b6107cc61518a565b6107d4615223565b6107dc615262565b6107e584611515565b846001600160a01b0316846001600160a01b0316141561080457600080fd5b6001600160a01b03861633141561081a57600080fd5b836001600160a01b0316866001600160a01b0316141561083957600080fd5b61084285611594565b9250610850836101006115bf565b1561085a57600080fd5b6108658360206115bf565b1561088457336001600160a01b0386161461087f57600080fd5b610899565b336001600160a01b0385161461089957600080fd5b6108a386846115d4565b9150816020015142106108d15760405162461bcd60e51b81526004016108c890615c3a565b60405180910390fd5b602082015164ffffffffff14156108f3576108ec8284611683565b9050610904565b6109018383602001516116c8565b90505b93509350939050565b6101408101515160009061ffff1615158061093457506101408201516020015161ffff1615155b90505b919050565b61094461528c565b6101408201515161ffff161561096e5761014082015161096b9060005b6020020151611753565b81525b6101408201516020015161ffff161561093757610140820151610992906001610961565b6020820152919050565b6109a46152b9565b826109c45760408086015161ffff168252610160860151908201526109fe565b84610140015160018403600281106109d857fe5b602002015161ffff168152836000198401600281106109f357fe5b602002015160408201525b81610a2157604085015161ffff1660208201526101608501516060820152610a62565b8461014001516001830360028110610a3557fe5b6020908102919091015161ffff169082015283600019830160028110610a5757fe5b602002015160608201525b6000610a75826000015161ffff16611765565b90506000610a8a836020015161ffff16611765565b9050610a9682826118c8565b6080840152505160a0820152949350505050565b60006001600160ff1b03821115610ac057600080fd5b5090565b818102600019831415610af457811580610ae6575082828281610ae357fe5b05145b610aef57600080fd5b610b12565b821580610b09575081838281610b0657fe5b05145b610b1257600080fd5b92915050565b600081600019148015610b2e5750600160ff1b83145b15610b3857600080fd5b818381610b4157fe5b059392505050565b8151600090610b6b906102aa846ec097ce7bc90715b34b9f1000000000610ac4565b9392505050565b6000610b6b6ec097ce7bc90715b34b9f10000000006102aa856000015185610ac490919063ffffffff16565b600061093460001983610ac4565b6000610bb66118ed565b60608701516001600160a01b039081166000908152602083815260408083208a5190941683529290522090915084610c39576001810154610c1290610c0d90610c08906001600160501b0316876118fa565b611910565b61191f565b6001820180546001600160501b0319166001600160501b0392909216919091179055610cef565b8460011415610c96576001810154610c6990610c0d90610c0890600160501b90046001600160501b0316876118fa565b81600101600a6101000a8154816001600160501b0302191690836001600160501b03160217905550610cef565b8460021415610070576001810154610cc690610c0d90610c0890600160a01b90046001600160501b0316876118fa565b8160010160146101000a8154816001600160501b0302191690836001600160501b031602179055505b6000876080018181525050610d08878783866000611935565b50505050505050565b6000610d1b611ba3565b61ffff8416600090815260209190915260408120546001600160a01b03169150821215610d46579293925b806001600160a01b03166323de66518686610d6086611bb0565b6040518463ffffffff1660e01b8152600401610d7e93929190615b7f565b600060405180830381600087803b158015610d9857600080fd5b505af1158015610dac573d6000803e3d6000fd5b505050505050505050565b600083610dc657506000610e57565b60008412610dd357600080fd5b6000610de28661ffff1661126c565b9050610df781610df28688610b72565b61127f565b91506000610e0483610b9e565b9050610e11878383611bd1565b600382606001516005811115610e2357fe5b1415610e3957610e34888286611cca565b610e46565b8151610e46908983611d98565b610e538888858589611e0f565b5050505b95945050505050565b80610e6a57610ef0565b6000610e79858585600b611e56565b90506000806000841215610e9257508690506000610e99565b5060009050865b6000610ea485611bb0565b9050816001600160a01b0316836001600160a01b0316336001600160a01b0316600080516020615efe8339815191528785604051610ee3929190615e48565b60405180910390a4505050505b5050505050565b600083610f0657506000610e57565b60008413610f1357600080fd5b6000610f228661ffff1661126c565b90506000610f3982610f348789610b72565b611e8c565b90506000610f4a89898489896112b7565b90945090508681036000811215610f6057600080fd5b5050505095945050505050565b6000610f77615169565b6000806000610f858861093c565b9050600080610f958a8985611ec9565b9250925050600080610fab8a8d60000151611f5d565b915091508b610140015160018c0360028110610fc357fe5b602002015198508460018c0360028110610fd957fe5b602002015197508a600114610fef578281610ff2565b83825b999d989c509a50979850959650505050505050565b6000610b6b6110168484610ac4565b633b9aca00610b18565b606086015160208701516040516351586b3360e01b815260009273__SettleAssetsExternal__________________926351586b339261106d928b928b928b91908b908b90600401615b3a565b60206040518083038186803b15801561108557600080fd5b505af4158015611099573d6000803e3d6000fd5b505050506040513d601f19601f820116820180604052508101906110bd9190615829565b9050801561112d57604051636ccc642f60e01b815273__FreeCollateralExternal________________90636ccc642f906110fc908990600401615b0c565b60006040518083038186803b15801561111457600080fd5b505af4158015611128573d6000803e3d6000fd5b505050505b856001600160a01b031687606001516001600160a01b0316866001600160a01b03167f19b09f1f990520654bea0360dd08a2678d6926fd849dd49bc385862dc91af75387878760405161118293929190615ccd565b60405180910390a450505050505050565b826111b4576111a58486846000611fb3565b6111af858761201e565b611264565b60006111bf8761093c565b90506000806111fd8988606001518960200151896001146111e15760006111e3565b885b8a6002146111f25760006111f4565b895b886000806120c7565b915091508315610dac576000866001146112175781611219565b825b90508015806112435750806000038a6101a00151600189036002811061123b57fe5b602002015113155b61125f5760405162461bcd60e51b81526004016108c890615ca9565b505050505b505050505050565b6112746152f9565b6109348260016122f9565b60006305f5e10083604001511415611298575080610b12565b610b6b6305f5e1006102aa856040015185610ac490919063ffffffff16565b60008060006112c586611910565b9050806112d957600080925092505061136f565b60006112e88861ffff1661126c565b90506003816060015160058111156112fc57fe5b1415611343573482101561131c576113178983340387611cca565b61133b565b34821461133b5760405162461bcd60e51b81526004016108c890615bea565b86935061135d565b61135a61135582600001518b85612393565b610aaa565b93505b61136a898986848a611e0f565b925050505b9550959350505050565b61138588878786610d11565b60006113948787876000611e56565b905064ffffffffff8514156114145760006113bf6113ba846113b588610b9e565b61251b565b610b9e565b90508060001914156113cf575060005b60006001600160a01b038a1633600080516020615efe833981519152600a86176113f886611910565b604051611406929190615e48565b60405180910390a450611454565b6001600160a01b038816600033600080516020615efe833981519152600b851761143d89611910565b60405161144b929190615e48565b60405180910390a45b886001600160a01b0316886001600160a01b0316336001600160a01b0316600080516020615efe833981519152600960ff16851787604051610ee3929190615e48565b6000828211156114a657600080fd5b50900390565b60006114b885856115d4565b90508060200151600014806114d05750818160200151145b6114ec5760405162461bcd60e51b81526004016108c890615c0f565b602081018290526040810151611502908461255a565b6040820152610ef081856001600061256c565b6001600160a01b03811661152857600080fd5b6001600160a01b038116610fee141561154057600080fd5b6001600160a01b0381166105e7141561155857600080fd5b6001600160a01b03811630141561156e57600080fd5b6000611579826125fc565b5050505061ffff1690508060001461159057600080fd5b5050565b61159c61518a565b6115a582612668565b90506115b48160400151611753565b610160820152919050565b60209190910151811661ffff90811691161490565b6115dc615223565b60006115e66118ed565b6001600160a01b038086166000818152602084815260408083208951909516835293815290839020805464ffffffffff600160a01b8204169288018390526001600160501b03600160501b8204811695890195909552606088019390935260018101548416608088015263ffffffff600160c81b84041660a08801526101608801519495509361167893909216612856565b835250909392505050565b61168b615262565b6116bd836116ae6113ba8660000151866101600151610b4990919063ffffffff16565b60208601518592919042612894565b50610b6b838361295d565b6116d0615262565b60006116da6129d5565b84516001600160a01b031660009081526020828152604080832087845290915290819020858552805460ff600160f01b820416151560608701526001600160501b03600160a01b82048116938701939093526101608801519394509092611745929091879116612856565b602084015250909392505050565b61175b615169565b61093482426129e2565b61176d615320565b6000611777612aa3565b60008481526020829052604081209192508060018614156117a45750670de0b6b3a7640000905080611867565b825460408051633fabe5a360e21b815290516001600160a01b039092169163feaf968c9160048082019260a092909190829003018186803b1580156117e857600080fd5b505afa1580156117fc573d6000803e3d6000fd5b505050506040513d601f19601f8201168201806040525081019061182091906159e3565b5091935050600083139150611836905057600080fd5b825460ff600160a01b82048116600a0a9350600160a81b909104161561186757611864816102aa8480610ac4565b90505b8254600160b01b900460ff1660968113156118875760951901600a026096015b6040805160a081018252938452602084019290925290820152905460ff600160b81b820481166060840152600160c01b909104166080820152915050919050565b6000610b6b82602001516102aa84600001518660200151610ac490919063ffffffff16565b600080610b126016612aac565b81810182811215600083121514610b1257600080fd5b600080821215610ac057600080fd5b60006001600160501b03821115610ac057600080fd5b60808501511561194457600080fd5b6060840151855161195490610b9e565b12801561195e5750815b15611992578451158061197657506001856040015111155b6119925760405162461bcd60e51b81526004016108c890615ca9565b61199b8461090d565b15611a3a5760006119aa612ac5565b60608701516001600160a01b03908116600090815260209283526040808220895190931682529183522080549188015190925064ffffffffff909116908114806119f2575080155b6119fb57600080fd5b80611a37578154600160281b90046001600160501b0316158015611a2e57508154600160781b90046001600160501b0316155b611a3757600080fd5b50505b6000611a5a610c086113ba87610160015189602001518a60000151612ad2565b90508115611ae3576040805160e08101825285546001600160501b038082168352600160501b80830482166020850152600160a01b80840464ffffffffff1695850195909552600160c81b90920463ffffffff16606084015260018801548082166080850152918204811660a084015292900490911660c0820152611ae3908790879084612af0565b611af0866040015161191f565b84546001600160501b0391909116600160501b0269ffffffffffffffffffff60501b199091161784556020860151611b2790612fc2565b845464ffffffffff91909116600160a01b0264ffffffffff60a01b1990911617845560a0860151611b5790612fd6565b845463ffffffff91909116600160c81b0263ffffffff60c81b19909116178455611b808161191f565b84546001600160501b0319166001600160501b0391909116179093555050505050565b600080610b126021612aac565b600080821215611bca57611bc382610b9e565b9050610937565b5080610937565b6000611bdb612fe9565b83516001600160a01b0316600090815260208290526040902054909150808311611c06575050611cc5565b6000611c1186612ff6565b90506000816001600160a01b031663b5e4da238487036040518263ffffffff1660e01b8152600401611c439190615be1565b60006040518083038186803b158015611c5b57600080fd5b505afa158015611c6f573d6000803e3d6000fd5b505050506040513d6000823e601f3d908101601f19168201604052611c97919081019061571b565b90506000611ca58783613026565b9150611cb39050848261255a565b861115611cbf57600080fd5b50505050505b505050565b8015611d5c577382af49447d8a07e3bd95bd0d56f35241523fbab16001600160a01b031663d0e30db0836040518263ffffffff1660e01b81526004016000604051808303818588803b158015611d1f57600080fd5b505af1158015611d33573d6000803e3d6000fd5b5050505050611d577382af49447d8a07e3bd95bd0d56f35241523fbab18484611d98565b611cc5565b6040516001600160a01b0384169083156108fc029084906000818181858888f19350505050158015611d92573d6000803e3d6000fd5b50505050565b826001600160a01b031663a9059cbb83836040518363ffffffff1660e01b815260040180836001600160a01b0316815260200182815260200192505050600060405180830381600087803b158015611def57600080fd5b505af1158015611e03573d6000803e3d6000fd5b50505050611cc561323d565b600080611e1c84866132aa565b9050611e288382610b49565b9150611e358787846132da565b611e4086838361335a565b8351611e4c908661345e565b5095945050505050565b68010000000000000000600160e01b03604085901b1667ffff000000000000603085901b1617600883901b178117949350505050565b60006305f5e10083604001511215611eba57611eb36001611ead858561127f565b906118fa565b9050610b12565b610b6b83610df28460016118fa565b600080600080611ed7612ac5565b6001600160a01b038781166000908152602092835260408082208b5190931682529190925290208054865164ffffffffff82169650919250611f2b91908690600160281b90046001600160501b0316612856565b9250611f51856001602002015182548690600160781b90046001600160501b0316612856565b91505093509350939050565b6000806000611f6a6118ed565b6001600160a01b0395861660009081526020918252604080822096909716815294905250505020600101546001600160501b03600160501b8204811692600160a01b9092041690565b8251602085015114611fcb57835115611fcb57600080fd5b6080840151611fda90826118fa565b60808501528351611feb90836118fa565b80855260001215611ffb57600080fd5b602083015161200a90836118fa565b6020840181905260001215611d9257600080fd5b60006120286129d5565b82516001600160a01b03166000908152602082815260408083208751845290915290819020908501519192509061205e9061191f565b81546060860151801515600160f01b0260ff60f01b196001600160501b0394909416600160a01b0269ffffffffffffffffffff60a01b199093169290921792909216178255610160840151604085015186516020880151611d92948694938993909290916134b3565b60008060006120d4612ac5565b6001600160a01b03808c166000908152602092835260408082208f519093168252919092529020805490915064ffffffffff1689811480612113575080155b61211c57600080fd5b8651825461213c91908c90600160281b90046001600160501b0316612856565b9350612162876001602002015183548c90600160781b90046001600160501b0316612856565b925088156121ea57612174848a6118fa565b93506121a38c8c8e610140015160006002811061218d57fe5b60200201518d8d8c60005b60200201518b613592565b6121be610c0d610c086113ba8a600060200201518e89612ad2565b82546001600160501b0391909116600160281b026effffffffffffffffffff0000000000199091161782555b8715612267576121fa83896118fa565b92506122228c8c8e610140015160016002811061221357fe5b60200201518d8c8c6001612198565b61223d610c0d610c086113ba8a600160200201518e88612ad2565b82546001600160501b0391909116600160781b0269ffffffffffffffffffff60781b199091161782555b85156122d65783158061228457506101a08c015151600085900312155b6122a05760405162461bcd60e51b81526004016108c890615c85565b8215806122ba57506101a08c015160200151600084900312155b6122d65760405162461bcd60e51b81526004016108c890615c85565b6122ea8285856122e58e612fc2565b613660565b50509850989650505050505050565b6123016152f9565b600061230b61369e565b6000858152602082815260408083208715158452825291829020825160a08101845281546001600160a01b038116825260ff600160a01b82048116151594830194909452600160b01b81048416600a0a9482019490945293945092916060830191600160a81b90910416600581111561238057fe5b8152600060209091015295945050505050565b600080846001600160a01b03166370a08231306040518263ffffffff1660e01b815260040180826001600160a01b0316815260200191505060206040518083038186803b1580156123e357600080fd5b505afa1580156123f7573d6000803e3d6000fd5b505050506040513d602081101561240d57600080fd5b5051604080516323b872dd60e01b81526001600160a01b038781166004830152306024830152604482018790529151929350908716916323b872dd9160648082019260009290919082900301818387803b15801561246a57600080fd5b505af115801561247e573d6000803e3d6000fd5b5050505061248a61323d565b6000856001600160a01b03166370a08231306040518263ffffffff1660e01b815260040180826001600160a01b0316815260200191505060206040518083038186803b1580156124d957600080fd5b505afa1580156124ed573d6000803e3d6000fd5b505050506040513d602081101561250357600080fd5b505190506125118183611497565b9695505050505050565b6000808212156125545761254f600161254985602001516102aa876000015187610ac490919063ffffffff16565b906136ab565b610b6b565b50919050565b600082820183811015610b6b57600080fd5b60006125766118ed565b60608601516001600160a01b0390811660009081526020838152604080832089519094168352929052209091506125b08686838787611935565b6001810180546001600160501b03191690819055600160501b90046001600160501b03161580156125f357506001810154600160a01b90046001600160501b0316155b61126457600080fd5b60008060008060008061260d6136c1565b6001600160a01b039097166000908152602097909752505060409094205461ffff81169563ffffffff620100008304811696506601000000000000830416945060ff600160501b8304169350600160581b90910460d81b9150565b61267061518a565b600061267a6136ce565b6001600160a01b03841660008181526020838152604091829020928652825461ffff8082169288019290925262010000900416908501529091506126d6612710633b9aca008354600160501b900460ff169190056005026136db565b608084015280546126f590600160401b900461ffff16620186a06136db565b60a0840152805461271490600160701b900461ffff16620186a06136db565b61012084015260028101546127309061ffff16620186a06136db565b610180840152805460649060ff600160581b90910416633b9aca00020560c08401528054600160601b810460ff90811660e0860152600160681b909104166101008401526040805180820191829052906001830190600290826000855b82829054906101000a900461ffff1661ffff168152602001906002019060208260010104928301926001038202915080841161278d57505050505061014085019190915250600481015460ff166101c084015280546127f990640100000000900463ffffffff16613702565b606084015261282f6003820160005b600891828204019190066004029054906101000a900463ffffffff1663ffffffff16613702565b6101a084015152612844600382016001612808565b6101a084015160200152509092915050565b600064ffffffffff831461287657816001600160501b031660000361288c565b61288c846001600160501b038416600003613710565b949350505050565b60006128a3868686868661375b565b905060006128c360646102aa8960e0015185610ac490919063ffffffff16565b905060006128d183836136ab565b90506128e18860400151836137f1565b6128ef886040015182613828565b64ffffffffff851415612927576129278860000151896040015185612922878d610160015161251b90919063ffffffff16565b61386c565b61293b886000015189604001518385613974565b608087015161294a90846136ab565b6080909701969096525095945050505050565b612965615262565b602083015164ffffffffff1461297a57600080fd5b6129898264ffffffffff6116c8565b90506000836080015112156129cb576129cb83826129b98660800151866101600151610b7290919063ffffffff16565b6129c68760800151610b9e565b611fb3565b610b12818361201e565b600080610b126015612aac565b6129ea615169565b60006129f584613a64565b90508281600001511015612a3457600080612a0f86613b2c565b9050612a1d86848388613ba9565b9093509150612a2d868385613c4d565b5050612a41565b80518314612a4157600080fd5b6040518060600160405280612a6a6113558460a001518560c001516136db90919063ffffffff16565b8152602001612a8d6113558460a001518560e001516136db90919063ffffffff16565b8152602001826060015181525091505092915050565b600080610b1260105b6000620f4240826026811115612abe57fe5b0192915050565b600080610b12601a612aac565b600064ffffffffff8314612ae6578161288c565b61288c8483613e7e565b6040805160028082526060820183526000926020830190803683375050604080516002808252606082018352939450600093909250906020830190803683370190505090506000612b5786600001518760400151876040015164ffffffffff166000611e56565b9050600a60ff16811783600081518110612b6d57fe5b602002602001018181525050600960ff16811783600181518110612b8d57fe5b602002602001018181525050866020015160001480612bd05750604085015164ffffffffff1615801590612bd057508660200151856040015164ffffffffff1614155b15612c725784600001516001600160501b031682600081518110612bf057fe5b60200260200101818152505084602001516001600160501b031682600181518110612c1757fe5b60200260200101818152505060006001600160a01b031687606001516001600160a01b0316336001600160a01b0316600080516020615ede8339815191528686604051612c65929190615bbc565b60405180910390a4612e6f565b846040015164ffffffffff1687602001511415612e6f5784516000906001600160501b0316851080612cb4575085602001516001600160501b03168860400151105b90508015612d845785516001600160501b03168510612cd4576000612ce3565b85516001600160501b03168590035b83600081518110612cf057fe5b602002602001018181525050612d20886040015187602001516001600160501b031661149790919063ffffffff16565b83600181518110612d2d57fe5b60200260200101818152505060006001600160a01b031688606001516001600160a01b0316336001600160a01b0316600080516020615ede8339815191528787604051612d7b929190615bbc565b60405180910390a45b801580612d9a575085516001600160501b031685115b15612e6d578551612db59086906001600160501b0316611497565b83600081518110612dc257fe5b602002602001018181525050876040015186602001516001600160501b031610612ded576000612e09565b60208601516040890151612e09916001600160501b0316611497565b83600181518110612e1657fe5b60200260200101818152505087606001516001600160a01b031660006001600160a01b0316336001600160a01b0316600080516020615ede8339815191528787604051612e64929190615bbc565b60405180910390a45b505b602087015115801590612e9157508660200151856040015164ffffffffff1614155b15612f7457612eaf8660000151876040015189602001516000611e56565b9050600a60ff16811783600081518110612ec557fe5b602002602001018181525050600960ff16811783600181518110612ee557fe5b6020026020010181815250508382600081518110612eff57fe5b602002602001018181525050866040015182600181518110612f1d57fe5b60200260200101818152505086606001516001600160a01b031660006001600160a01b0316336001600160a01b0316600080516020615ede8339815191528686604051612f6b929190615bbc565b60405180910390a45b60808501516001600160501b031615610d0857606087015160808601516040516000926001600160a01b0316913391600080516020615efe8339815191529161118291600b88179190615e6c565b600064ffffffffff821115610ac057600080fd5b600063ffffffff821115610ac057600080fd5b600080610b126026612aac565b600080613001613eda565b61ffff939093166000908152602093909352505060409020546001600160a01b031690565b60008060005b835181101561323557600084828151811061304357fe5b60200260200101519050600081606001516001600160a01b03166370a08231306040518263ffffffff1660e01b815260040161307f9190615b0c565b60206040518083038186803b15801561309757600080fd5b505afa1580156130ab573d6000803e3d6000fd5b505050506040513d601f19601f820116820180604052508101906130cf91906159cb565b905060006130dd8830613ee7565b905060005b83515181101561313957613128846000015182815181106130ff57fe5b602002602001015160008660200151848151811061311957fe5b60200260200101516001613f91565b61313157600196505b6001016130e2565b5060006131468930613ee7565b905060006131548284611497565b9050808560400151111561316757600080fd5b60608501516040516370a0823160e01b81526000916001600160a01b0316906370a082319061319a903090600401615b0c565b60206040518083038186803b1580156131b257600080fd5b505afa1580156131c6573d6000803e3d6000fd5b505050506040513d601f19601f820116820180604052508101906131ea91906159cb565b9050848111156131f957600080fd5b613208866060015186836141ff565b613212888361255a565b97506132238b6000015185856141ff565b50506001909401935061302c92505050565b509250929050565b600061324761534f565b3d801561325b576020811461326457600080fd5b6001925061326f565b60206000833e815192505b5081611590576040805162461bcd60e51b8152602060048201526005602482015264045524332360dc1b604482015290519081900360640190fd5b60006305f5e100836040015114156132c3575080610b12565b6040830151610b6b906102aa846305f5e100610ac4565b60006132e4611ba3565b61ffff8416600090815260209190915260409081902054905163ad1c095d60e01b81526001600160a01b039091169150819063ad1c095d9061332c9087908690600401615ba3565b600060405180830381600087803b15801561334657600080fd5b505af1158015611cbf573d6000803e3d6000fd5b600061336461427c565b61ffff8516600090815260209190915260409020805490915064ffffffffff16421461338f57600080fd5b80546000906133ae90600160281b90046001600160581b0316856118fa565b82549091506000906133d090600160801b90046001600160581b0316856118fa565b905080624c4b4013156133e257600080fd5b6133f36133ee82611910565b614289565b83546001600160581b0391909116600160801b026affffffffffffffffffffff60801b199091161783556134296133ee83611910565b83546001600160581b0391909116600160281b026fffffffffffffffffffffff0000000000199091161783556112648361429f565b6000613468612fe9565b6001600160a01b038416600090815260208290526040902054909150613491610c0882856118fa565b6001600160a01b03909416600090815260209290925250604090209190915550565b86546001600160501b03166000908103906134cf888686612ad2565b90506134e0610c0d610c0883610b9e565b89546001600160501b0319166001600160501b039190911617895560006135078383614364565b9050600064ffffffffff87141561352e578851613527908b908a856143eb565b5084613565565b846135655788516135429089898787614418565b8851613557908961355285610b9e565b6144d8565b613562898b8a6145ae565b90505b600082138015613573575084155b15613585578851613585908983614654565b5050505050505050505050565b600061359c6146d0565b88516001600160a01b0316600090815260209182526040808220888352835280822061ffff8a16835290925290812080549092506135e690859088906001600160501b0316612856565b90506135f281866118fa565b905061360482858b8a8a8660006134b3565b60008086138015613619575064ffffffffff87145b1561363b576136346113ba868961362f8a610b9e565b612ad2565b9050613649565b613646858888612ad2565b90505b831561125f5761125f898b600001518a8a856146dd565b8215801561366c575081155b1561368257835464ffffffffff19168455611d92565b835464ffffffffff191664ffffffffff91909116179092555050565b600080610b126007612aac565b80820382811315600083121514610b1257600080fd5b600080610b126002612aac565b600080610b126014612aac565b6000826136ea57506000610b12565b828202828482816136f757fe5b0414610b6b57600080fd5b600881901c60ff9091161b90565b60006001821261371f57600080fd5b8161372c57506000610b12565b610b6b60016125496ec097ce7bc90715b34b9f10000000006102aa876020015187610ac490919063ffffffff16565b60008064ffffffffff8414156137ad57602086015164ffffffffff14613785576000915050610e57565b61379f6113558760a001518561149790919063ffffffff16565b60a0870184905290506137bd565b6137ba6113558585611497565b90505b60808701516000906137d9906301da9c00906102aa9085610ac4565b90506137e58682611007565b98975050505050505050565b60008112156137ff57600080fd5b600061380d610fee8461475f565b905061381981836118fa565b9050611cc5610fee84836147b8565b600081121561383657600080fd5b60006138458361ffff1661482c565b90506000613853828561475f565b905061385f81846118fa565b9050611d928285836147b8565b6000613876611ba3565b61ffff8516600090815260209190915260408120546001600160a01b0316915061389e614852565b61ffff8616600090815260209190915260409081902054905163ad1c095d60e01b81526001600160a01b039091169150819063ad1c095d906138e69089908790600401615ba3565b600060405180830381600087803b15801561390057600080fd5b505af1158015613914573d6000803e3d6000fd5b505060405163ad1c095d60e01b81526001600160a01b038516925063ad1c095d91506139469089908890600401615ba3565b600060405180830381600087803b15801561396057600080fd5b505af115801561125f573d6000803e3d6000fd5b600061397e611ba3565b61ffff8516600090815260209190915260408120546001600160a01b031691506139a661485f565b61ffff8616600090815260209190915260409020546001600160a01b03908116915082166323de665187610fee6139dc87611910565b6040518463ffffffff1660e01b81526004016139fa93929190615b7f565b600060405180830381600087803b158015613a1457600080fd5b505af1158015613a28573d6000803e3d6000fd5b50505050816001600160a01b03166323de66518783613a4688611910565b6040518463ffffffff1660e01b815260040161394693929190615b7f565b613a6c61536d565b6000613a7661427c565b61ffff93841660009081526020918252604090819020805464ffffffffff81168652600160281b81046001600160581b03908116948701949094526001820154841692860192909252600160d81b820463ffffffff166060860152600160801b9091049091166080840152600201546001600160501b0380821660a0850152600160501b8204811660c0850152600160a01b82041660e0840152600160f01b900460ff1661012c02909216610100820152919050565b600080613b3883612ff6565b6001600160a01b031663ef81f2166040518163ffffffff1660e01b81526004016040805180830381600087803b158015613b7157600080fd5b505af1158015613b85573d6000803e3d6000fd5b505050506040513d601f19601f8201168201806040525081019061288c9190615849565b613bb161536d565b6000806000613bc188868961486c565b60c08b019290925260e08a019290925260208901519193509150613be5908361255a565b6020880152608087015160009015613c13576080880151613c1090613c0a8982611497565b9061497d565b90505b613c33613c28670de0b6b3a76400008361255a565b60a08a01519061499a565b60a089015250506080860194909452505082529092909150565b6000613c5761427c565b60008561ffff1681526020019081526020016000209050613c7b8260000151612fc2565b815464ffffffffff191664ffffffffff9190911617815560a0820151613ca09061191f565b6002820180546001600160501b0319166001600160501b039290921691909117905560c0820151613cd09061191f565b81600201600a6101000a8154816001600160501b0302191690836001600160501b03160217905550613d058260e0015161191f565b8160020160146101000a8154816001600160501b0302191690836001600160501b03160217905550613d3a8260200151614289565b81546001600160581b0391909116600160281b026fffffffffffffffffffffff0000000000199091161781556040820151613d7490614289565b6001820180546affffffffffffffffffffff19166001600160581b03929092169190911790556080820151613da890614289565b81546001600160581b0391909116600160801b026affffffffffffffffffffff60801b199091161781556060820151613de090612fd6565b815463ffffffff91909116600160d81b0263ffffffff60d81b199091161781558215613e2c576000613e1184610aaa565b9050613e1d85826137f1565b613e2a610fee86836132da565b505b8361ffff167fef25641e225e493886510ca1ad6584fa7b442b9fea820a29d1de3ce27d270fd28360a001518460c001518560e00151604051613e7093929190615e56565b60405180910390a250505050565b600081600013158015613e915750600a82125b15613e9e57506000610b12565b60008212613eab57600080fd5b610b6b600161254985602001516102aa6ec097ce7bc90715b34b9f100000000087610ac490919063ffffffff16565b600080610b12601f612aac565b6000600383606001516005811115613efb57fe5b1415613f1257506001600160a01b03811631610b12565b82516040516370a0823160e01b81526001600160a01b03909116906370a0823190613f41908590600401615b0c565b60206040518083038186803b158015613f5957600080fd5b505afa158015613f6d573d6000803e3d6000fd5b505050506040513d601f19601f82011682018060405250810190611eb391906159cb565b6000806000866001600160a01b031686866040518082805190602001908083835b60208310613fd15780518252601f199092019160209182019101613fb2565b6001836020036101000a03801982511681845116808217855250505050505090500191505060006040518083038185875af1925050503d8060008114614033576040519150601f19603f3d011682016040523d82523d6000602084013e614038565b606091505b5091509150836140db578161404c826149b7565b906140d55760405162461bcd60e51b81526004018080602001828103825283818151815260200191508051906020019080838360005b8381101561409a578181015183820152602001614082565b50505050905090810190601f1680156140c75780820380516001836020036101000a031916815260200191505b509250505060405180910390fd5b50611e4c565b866001600160a01b03167f3c7e398c5e91088cae639370e35b25ea669d81fbdf0def5388e73661bc34e08e8787614111856149b7565b604051808481526020018060200180602001838103835285818151815260200191508051906020019080838360005b83811015614158578181015183820152602001614140565b50505050905090810190601f1680156141855780820380516001836020036101000a031916815260200191505b50838103825284518152845160209182019186019080838360005b838110156141b85781810151838201526020016141a0565b50505050905090810190601f1680156141e55780820380516001836020036101000a031916815260200191505b509550505050505060405180910390a25095945050505050565b6000614209612fe9565b6001600160a01b0385166000908152602082905260409020549091508381111561423257600080fd5b600061424961424086610aaa565b61254986610aaa565b9050614258610c0883836118fa565b6001600160a01b039096166000908152602093909352505060409020929092555050565b600080610b12601d612aac565b60006001600160581b03821115610ac057600080fd5b805460028201546000916142db91600160281b9091046001600160581b0316906102a4906001600160501b03600160501b820481169116610ac4565b60018301546002840154919250600091614315916001600160581b0316906102a4906001600160501b03600160a01b820481169116610ac4565b835490915060009061434c9060016001600160581b03600160801b909204821601166ec097ce7bc90715b34b9f1000000000610ac4565b90508061435984846136ab565b1315611d9257600080fd5b600081831480614381575060008312158015614381575060008212155b1561438e57506000610b12565b6000831315801561439f5750816000125b156143ab575081610b12565b600082131580156143bc5750826000125b156143ca57611eb382610b9e565b600083131580156143dc575060008213155b1561007057611eb383836136ab565b8015611d92578351602085015160009161440a916102aa908590610ac4565b9050610ef084848484614abe565b60006144248383614364565b9050806144315750610ef0565b600061443b614bfb565b61ffff87166000908152602082815260408083208984529091528120549192506001600160501b0390911681039061447382856136ab565b9050600081131561448357600080fd5b614492610c0d610c0883610b9e565b61ffff89166000908152602085815260408083208b8452909152902080546001600160501b0319166001600160501b0392909216919091179055610dac89898987614c08565b60006144e2614c6e565b6001600160a01b03851660009081526020918252604080822061ffff87168352909252908120805490925061452790600160501b90046001600160501b0316846136ab565b9050614535610c0d82611910565b82546001600160501b0391909116600160501b0269ffffffffffffffffffff60501b1990911617825560405161ffff8516906001600160a01b038716907f20478ef460e49d010960d4f3fff35d8dae385443abfac09035d6a2ccbcd834c49061459f908590615be1565b60405180910390a35050505050565b600080846040015161ffff168361ffff1614156145fa576145cd6129d5565b85516001600160a01b031660009081526020918252604080822064ffffffffff8352909252209050614637565b6146026146d0565b85516001600160a01b031660009081526020918252604080822064ffffffffff8352835280822061ffff871683529092522090505b8054610e5790859064ffffffffff906001600160501b0316612856565b600061465e614c6e565b6001600160a01b03851660009081526020918252604080822061ffff8716835290925290812080549092506146a390600160501b90046001600160501b0316846136ab565b82549091506001600160501b0316811315610ef05760405162461bcd60e51b81526004016108c890615c5f565b600080610b126018612aac565b806146e757610ef0565b600080806146f8878787600a611e56565b9050600084131561470f5787925060009150614717565b600092508791505b6001600160a01b0380831690841633600080516020615efe8339815191528461473f89611bb0565b60405161474d929190615e48565b60405180910390a45050505050505050565b60008061476a614c7b565b6001600160a01b03851660009081526020828152604080832061ffff8816845290915281208054600160a81b9004600a90810b900b94509192508312156147b057600080fd5b505092915050565b60008112156147c657600080fd5b60006147d0614c7b565b6001600160a01b03851660009081526020828152604080832061ffff88168452909152902090915061480183614c88565b8154600a9190910b6001600160581b0316600160a81b026001600160a81b0390911617905550505050565b60008061483761485f565b6000938452602052505060409020546001600160a01b031690565b600080610b126022612aac565b600080610b126003612aac565b60008060008060008061487f8988614cba565b895190955091935091506000906148a69061489b908b90611497565b633b9aca00906136db565b90506148e06148d56301da9c006148bd85856136db565b816148c457fe5b670de0b6b3a764000091900461255a565b60e08a01519061499a565b96506149026148f76301da9c006148bd87856136db565b60c08a01519061499a565b955081831415614919575060009350614974915050565b600061493b6149306301da9c006148bd87866136db565b60e08b01519061499a565b905060006149498983611497565b905061496c88614966838d604001516136db90919063ffffffff16565b90614d55565b965050505050505b93509350935093565b6000610b6b61499484670de0b6b3a76400006136db565b83614d55565b6000610b6b6149a984846136db565b670de0b6b3a7640000614d55565b60606044825110156149ed575060408051808201909152600d81526c14da5b195b9d0814995d995c9d609a1b6020820152610937565b6004820180519092602401906020811015614a0757600080fd5b8101908080516040519392919084640100000000821115614a2757600080fd5b908301906020820185811115614a3c57600080fd5b8251640100000000811182820188101715614a5657600080fd5b82525081516020918201929091019080838360005b83811015614a83578181015183820152602001614a6b565b50505050905090810190601f168015614ab05780820380516001836020036101000a031916815260200191505b506040525050509050919050565b6000614ac861427c565b61ffff8516600090815260209190915260409020805490915064ffffffffff164214614af357600080fd5b8054600160f81b900460ff16614b0857600080fd5b6001810154600090614b23906001600160581b0316856118fa565b8254909150600090614b4590600160281b90046001600160581b0316856118fa565b905081600919128015614b585750600082125b15614b6257600091505b80600919128015614b735750600081125b15614b7c575060005b614b886133ee83611910565b6001840180546affffffffffffffffffffff19166001600160581b0392909216919091179055614bba6133ee82611910565b83546001600160581b0391909116600160281b026fffffffffffffffffffffff000000000019909116178355614bf28787868861386c565b610d088361429f565b600080610b126020612aac565b600080614c16858585614d74565b915091506000806000851215614c2e57879150614c31565b50865b806001600160a01b0316826001600160a01b0316336001600160a01b0316600080516020615ede833981519152878760405161474d929190615bbc565b600080610b126017612aac565b600080610b126006612aac565b60006a7fffffffffffffffffffff198212801590614cb157506a7fffffffffffffffffffff8213155b610ac057600080fd5b600080600080600085602001511115614d0757614d04614ceb8660c0015187602001516136db90919063ffffffff16565b60e08701516040880151614cfe916136db565b90614e59565b90505b6000614d1287614e6c565b9050614d1e8183614e9f565b94508115614d3557614d3281866001614f58565b93505b602086015115614d4c57614d498583614fd2565b92505b50509250925092565b6000808211614d6357600080fd5b818381614d6c57fe5b049392505050565b604080516002808252606082810190935282916000918160200160208202803683370190505090506000614da88787614feb565b90508082600081518110614db857fe5b602002602001018181525050600160401b811782600181518110614dd857fe5b602090810291909101015260408051600280825260608201909252600091816020016020820280368337019050509050614e1186611bb0565b81600081518110614e1e57fe5b602002602001018181525050614e3386611bb0565b81600181518110614e4057fe5b6020908102919091010152919791965090945050505050565b6000610b6b61499484633b9aca006136db565b614e746153b9565b6000614e7e615009565b61ffff8416600090815260209190915260408120549150610b6b9082615016565b600080836080015111614eb157600080fd5b633b9aca00821115614ec257600080fd5b82518211614ee15782516040840151611eb391906149669085906136db565b82602001518211614f1f576040830151835160208501516060860151611eb39392614f199281900391614966918803908590036136db565b9061255a565b610b6b8360600151614f198560200151633b9aca00036149668760600151886080015103886020015188036136db90919063ffffffff16565b600080614f7760646149668760e00151876136db90919063ffffffff16565b90508460a00151811015614f8c575060a08401515b8460c00151811115614f9f575060c08401515b8215614fb657614faf848261255a565b9150614fca565b838111614fc557808403610e57565b600091505b509392505050565b6000610b6b614fe184846136db565b633b9aca00614d55565b67ffff000000000000603083901b16600882901b1760011792915050565b600080610b12601b612aac565b61501e6153b9565b6064633b9aca008360ff86166020811061503457fe5b1a028161503d57fe5b0481526064633b9aca008360ff86166001016020811061505957fe5b1a028161506257fe5b048160200181815250506150878260028560ff16016020811061508157fe5b1a615135565b60808201819052610100908360ff8616600301602081106150a457fe5b1a02816150ad57fe5b0460408201526080810151610100908360ff8616600401602081106150ce57fe5b1a02816150d757fe5b0460608201526207a1208260ff8516600501602081106150f357fe5b1a0260a0820152622625a08260ff85166006016020811061511057fe5b1a0260c08201528160ff84166007016020811061512957fe5b1a60e082015292915050565b60008160ff166096106151505760ff8216622625a002610934565b5060951960ff919091160162e4e1c00263165a0bc00190565b60405180606001604052806000815260200160008152602001600081525090565b604051806101e0016040528060006001600160a01b03168152602001600061ffff168152602001600061ffff168152602001600081526020016000815260200160008152602001600081526020016000815260200160008152602001600081526020016151f56153fe565b8152602001615202615169565b8152602001600081526020016152166153fe565b8152602001600081525090565b6040518060c0016040528060008152602001600081526020016000815260200160006001600160a01b0316815260200160008152602001600081525090565b60405180608001604052806000815260200160008152602001600081526020016000151581525090565b60405180604001604052806002905b6152a3615169565b81526020019060019003908161529b5790505090565b6040805160c081018252600080825260208201529081016152d8615169565b81526020016152e5615169565b815260200160008152602001600081525090565b6040805160a081018252600080825260208201819052918101829052906060820190615216565b6040518060a0016040528060008152602001600081526020016000815260200160008152602001600081525090565b60405180602001604052806001906020820280368337509192915050565b6040518061012001604052806000815260200160008152602001600081526020016000815260200160008152602001600081526020016000815260200160008152602001600081525090565b60405180610100016040528060008152602001600081526020016000815260200160008152602001600081526020016000815260200160008152602001600081525090565b60405180604001604052806002906020820280368337509192915050565b805161093781615ec5565b600082601f830112615437578081fd5b8151602061544c61544783615ea7565b615e83565b8281528181019085830183850287018401881015615468578586fd5b855b8581101561548f57815161547d81615ec5565b8452928401929084019060010161546a565b5090979650505050505050565b6000601f83818401126154ad578182fd5b825160206154bd61544783615ea7565b82815281810190868301865b8581101561556257815189018a603f8201126154e3578889fd5b8581015167ffffffffffffffff8111156154f957fe5b61550a818a01601f19168801615e83565b81815260408d8184860101111561551f578b8cfd5b8b5b8381101561553c578481018201518382018b01528901615521565b8381111561554c578c8a85850101525b50508652505092840192908401906001016154c9565b509098975050505050505050565b600082601f830112615580578081fd5b6040516060810181811067ffffffffffffffff8211171561559d57fe5b6040528083606081018610156155b1578384fd5b835b60038110156155d25781518352602092830192909101906001016155b3565b509195945050505050565b80516001600160501b038116811461093757600080fd5b600080600080600060a0868803121561560b578081fd5b853561561681615ec5565b9450602086013561562681615ec5565b9350604086013561563681615ec5565b9250606086013561ffff8116811461564c578182fd5b949793965091946080013592915050565b600080600080600060a08688031215615674578283fd5b853561567f81615ec5565b9450602086013561568f81615ec5565b9350604086013561569f81615ec5565b94979396509394606081013594506080013592915050565b60008060008060008060c087890312156156cf578384fd5b86356156da81615ec5565b955060208701356156ea81615ec5565b945060408701356156fa81615ec5565b959894975094956060810135955060808101359460a0909101359350915050565b6000602080838503121561572d578182fd5b825167ffffffffffffffff80821115615744578384fd5b818501915085601f830112615757578384fd5b815161576561544782615ea7565b81815284810190848601875b8481101561581a57815187016080818d03601f1901121561579057898afd5b60408051608081018181108a821117156157a657fe5b8252828b0151898111156157b8578c8dfd5b6157c68f8d83870101615427565b82525081830151898111156157d9578c8dfd5b6157e78f8d8387010161549c565b8c830152506060830151828201526158016080840161541c565b6060820152865250509287019290870190600101615771565b50909998505050505050505050565b60006020828403121561583a578081fd5b81518015158114610b6b578182fd5b6000806040838503121561585b578182fd5b505080516020909101519092909150565b600080600083850360a0811215615881578182fd5b84519350602085015192506060603f198201121561589d578182fd5b506040516060810181811067ffffffffffffffff821117156158bb57fe5b8060405250604085015181526060850151602082015260808501516040820152809150509250925092565b6000806000838503610180808212156158fd578283fd5b60c082121561590a578283fd5b60405191506080820182811067ffffffffffffffff8211171561592957fe5b80604052508551825260208087015181840152604087015160408401526159538860608901615570565b60608401528295506159688860c08901615570565b94508761013f880112615979578384fd5b6159836060615e83565b925082610120880189848a011115615999578586fd5b8593505b60038410156159bc57805185529382019360019390930192820161599d565b50809450505050509250925092565b6000602082840312156159dc578081fd5b5051919050565b600080600080600060a086880312156159fa578283fd5b615a03866155dd565b9450602086015193506040860151925060608601519150615a26608087016155dd565b90509295509295909350565b6001600160a01b03169052565b8060005b6002811015611d92578151845260209384019390910190600101615a43565b8060005b6002811015611d9257815161ffff16845260209384019390910190600101615a66565b6000815180845260208085019450808401835b83811015615ab857815187529582019590820190600101615a9c565b509495945050505050565b8051825260208082015190830152604090810151910152565b8051825260208101516020830152604081015160408301526060810151151560608301525050565b61ffff169052565b6001600160a01b0391909116815260200190565b6001600160a01b0392831681529116602082015260400190565b6001600160a01b039788168152958716602087015293909516604085015261ffff919091166060840152608083015260a082019290925260c081019190915260e00190565b6001600160a01b039384168152919092166020820152604081019190915260600190565b6001600160a01b03929092168252602082015260400190565b600060408252615bcf6040830185615a89565b8281036020840152610e578185615a89565b90815260200190565b6020808252600b908201526a4554482042616c616e636560a81b604082015260600190565b60208082526011908201527009ac2e8eae4d2e8f2409ad2e6dac2e8c6d607b1b604082015260600190565b6020808252600b908201526a4d75737420536574746c6560a81b604082015260600190565b6020808252600c908201526b4d617820436170616369747960a01b604082015260600190565b6020808252600a90820152696d696e20626f72726f7760b01b604082015260600190565b6020808252600a90820152694d696e20426f72726f7760b01b604082015260600190565b61ffff9390931683526020830191909152604082015260600190565b60006103e08201905061ffff8716825285516020830152602086015160408301526040860151606083015260018060a01b036060870151166080830152608086015160a083015260a086015160c0830152615d4860e083018651615a32565b6020850151610100615d5c81850183615b04565b60408701519150610120615d7281860184615b04565b60608801519250610140838187015260808901519350610160848188015260a08a01519450610180858189015260c08b015195506101a086818a015260e08c015196506101c087818b0152868d01516101e08b0152858d01516102008b0152848d01519750615de56102208b0189615a62565b838d01519750615df96102608b0189615ac3565b828d01516102c08b0152818d01519750615e176102e08b0189615a3f565b808d01516103208b01525050505050505050615e37610340830185615adc565b826103c08301529695505050505050565b918252602082015260400190565b9283526020830191909152604082015260600190565b9182526001600160501b0316602082015260400190565b60405181810167ffffffffffffffff81118282101715615e9f57fe5b604052919050565b600067ffffffffffffffff821115615ebb57fe5b5060209081020190565b6001600160a01b0381168114615eda57600080fd5b5056fe4a39dc06d4c0dbc64b70af90fd698a233a518aa5d07e595d983b8c0526c8f7fbc3d58168c5ae7397731d063d5bbf3d657854427343f4c083240f7aacaa2d0f62a26469706673582212206b8f2c4cbed5b26b070fba8ff5ae589398baad8ca44d05590c61c2830a1fa24b64736f6c63430007060033","bytecodeSha1":"b17fc7fdcf5bda392ddea847440d15473fc95340","compiler":{"evm_version":"istanbul","optimizer":{"enabled":true,"runs":200},"version":"0.7.6+commit.7338295f"},"contractName":"VaultLiquidationAction","deployedBytecode":"6080604052600436106100705760003560e01c80638da5cb5b1161004e5780638da5cb5b146100d55780639ab77186146100ea578063c4c96dae1461010a578063fcaf198b1461012d57610070565b806321bf8c661461007557806324a3d6221461009e57806382463367146100c0575b600080fd5b6100886100833660046156b7565b61014e565b6040516100959190615be1565b60405180910390f35b3480156100aa57600080fd5b506100b36103f5565b6040516100959190615b0c565b3480156100cc57600080fd5b506100b3610404565b3480156100e157600080fd5b506100b3610413565b3480156100f657600080fd5b5061008861010536600461565d565b61042a565b34801561011657600080fd5b5061011f6105b9565b604051610095929190615b20565b61014061013b3660046155f4565b6105e7565b604051610095929190615e48565b60006002600a54141561016057600080fd5b6002600a556000806101738989896107c4565b50915091506101818261090d565b61018a57600080fd5b60006101958361093c565b60405163b14428b960e01b8152909150600090309063b14428b9906101c0908e908e90600401615b20565b6101806040518083038186803b1580156101d957600080fd5b505afa1580156101ed573d6000803e3d6000fd5b505050506040513d601f19601f8201168201806040525081019061021191906158e6565b505090508060600151886003811061022557fe5b602002015160001261023657600080fd5b60008160600151886003811061024857fe5b60200201511261025757600080fd5b600061026585848b8b61099c565b9050600061027288610aaa565b90506102bb6102b060646102aa85608001516102aa8760a001516102a48d6101c0015189610ac490919063ffffffff16565b90610ac4565b90610b18565b604084015190610b49565b96508683606001518b600381106102ce57fe5b602002015112156103285782606001518a600381106102e957fe5b602002015196506103258260a001516102aa886101c001516102aa60646102a488608001516102a48f8b60400151610b7290919063ffffffff16565b90505b606082015160009061033a9083610b49565b9050600061034789610b9e565b905061035787898e846000610bac565b61036587898d856000610bac565b6103758e8e86600001518c610d11565b61038b8d85600001518387604001516000610db7565b506103a18f8f86600001518a6020015185610e60565b6103b78d85602001518487606001516000610ef7565b506103c88d8f866020015185610d11565b6103dd8f8f86602001518a6020015186610e60565b50506001600a5550949b9a5050505050505050505050565b6002546001600160a01b031681565b6001546001600160a01b031681565b60005464010000000090046001600160a01b031681565b60006002600a54141561043c57600080fd5b6002600a55600080806104508989896107c4565b9250925092506000610460615169565b6000808961048357505050506040830151610160840151835160808501516104a2565b60038a101561007057610497878b8f610f6d565b929650909450925090505b602086015160405163f82f279d60e01b81526000918291309163f82f279d916104d1918a918890600401615ccd565b604080518083038186803b1580156104e857600080fd5b505afa1580156104fc573d6000803e3d6000fd5b505050506040513d601f19601f820116820180604052508101906105209190615849565b90925090506105396105328c83611007565b8690610b49565b9950828a131561054a57819a508299505b5050886000128015610564575061056082610b9e565b8913155b61056d57600080fd5b61057b868c8e878d8d611020565b61058a8786888d8d6000611193565b6105a3878b6105988b610b9e565b899291906000610bac565b50506001600a5550939998505050505050505050565b73__$841fddfe32830bb6dbc3a02d7f16c53722$__73__$f6541b0d362a0c7d99a2a29cd3d373d61b$__9091565b6000806002600a5414156105fa57600080fd5b6002600a55600361ffff85161061061057600080fd5b60008060006106208a8a8a6107c4565b92509250925061062e615169565b604051630c74db1f60e41b8152309063c74db1f090610659908b908790899088908e90600401615ce9565b60a060405180830381600087803b15801561067357600080fd5b505af1158015610687573d6000803e3d6000fd5b505050506040513d601f19601f820116820180604052508101906106ab919061586c565b91985096509050600087136106bf57600080fd5b6040840151600161ffff8a1614156106de5750610140840151516106f7565b8861ffff16600214156106f75750610140840151602001515b60006107068261ffff1661126c565b905061071f8b83610717848d61127f565b8660006112b7565b90508097505061074d8b8e8e8588600001518f61ffff16600014610744576000610746565b8c5b8e8a611379565b604085015161075c9089611497565b6040860152602085015164ffffffffff141561078a576107858685878d61ffff168d6001611193565b600096505b61079c858761ffff8d168a6001610bac565b6107ac8b878a88602001516114ac565b5050505050506001600a819055509550959350505050565b6107cc61518a565b6107d4615223565b6107dc615262565b6107e584611515565b846001600160a01b0316846001600160a01b0316141561080457600080fd5b6001600160a01b03861633141561081a57600080fd5b836001600160a01b0316866001600160a01b0316141561083957600080fd5b61084285611594565b9250610850836101006115bf565b1561085a57600080fd5b6108658360206115bf565b1561088457336001600160a01b0386161461087f57600080fd5b610899565b336001600160a01b0385161461089957600080fd5b6108a386846115d4565b9150816020015142106108d15760405162461bcd60e51b81526004016108c890615c3a565b60405180910390fd5b602082015164ffffffffff14156108f3576108ec8284611683565b9050610904565b6109018383602001516116c8565b90505b93509350939050565b6101408101515160009061ffff1615158061093457506101408201516020015161ffff1615155b90505b919050565b61094461528c565b6101408201515161ffff161561096e5761014082015161096b9060005b6020020151611753565b81525b6101408201516020015161ffff161561093757610140820151610992906001610961565b6020820152919050565b6109a46152b9565b826109c45760408086015161ffff168252610160860151908201526109fe565b84610140015160018403600281106109d857fe5b602002015161ffff168152836000198401600281106109f357fe5b602002015160408201525b81610a2157604085015161ffff1660208201526101608501516060820152610a62565b8461014001516001830360028110610a3557fe5b6020908102919091015161ffff169082015283600019830160028110610a5757fe5b602002015160608201525b6000610a75826000015161ffff16611765565b90506000610a8a836020015161ffff16611765565b9050610a9682826118c8565b6080840152505160a0820152949350505050565b60006001600160ff1b03821115610ac057600080fd5b5090565b818102600019831415610af457811580610ae6575082828281610ae357fe5b05145b610aef57600080fd5b610b12565b821580610b09575081838281610b0657fe5b05145b610b1257600080fd5b92915050565b600081600019148015610b2e5750600160ff1b83145b15610b3857600080fd5b818381610b4157fe5b059392505050565b8151600090610b6b906102aa846ec097ce7bc90715b34b9f1000000000610ac4565b9392505050565b6000610b6b6ec097ce7bc90715b34b9f10000000006102aa856000015185610ac490919063ffffffff16565b600061093460001983610ac4565b6000610bb66118ed565b60608701516001600160a01b039081166000908152602083815260408083208a5190941683529290522090915084610c39576001810154610c1290610c0d90610c08906001600160501b0316876118fa565b611910565b61191f565b6001820180546001600160501b0319166001600160501b0392909216919091179055610cef565b8460011415610c96576001810154610c6990610c0d90610c0890600160501b90046001600160501b0316876118fa565b81600101600a6101000a8154816001600160501b0302191690836001600160501b03160217905550610cef565b8460021415610070576001810154610cc690610c0d90610c0890600160a01b90046001600160501b0316876118fa565b8160010160146101000a8154816001600160501b0302191690836001600160501b031602179055505b6000876080018181525050610d08878783866000611935565b50505050505050565b6000610d1b611ba3565b61ffff8416600090815260209190915260408120546001600160a01b03169150821215610d46579293925b806001600160a01b03166323de66518686610d6086611bb0565b6040518463ffffffff1660e01b8152600401610d7e93929190615b7f565b600060405180830381600087803b158015610d9857600080fd5b505af1158015610dac573d6000803e3d6000fd5b505050505050505050565b600083610dc657506000610e57565b60008412610dd357600080fd5b6000610de28661ffff1661126c565b9050610df781610df28688610b72565b61127f565b91506000610e0483610b9e565b9050610e11878383611bd1565b600382606001516005811115610e2357fe5b1415610e3957610e34888286611cca565b610e46565b8151610e46908983611d98565b610e538888858589611e0f565b5050505b95945050505050565b80610e6a57610ef0565b6000610e79858585600b611e56565b90506000806000841215610e9257508690506000610e99565b5060009050865b6000610ea485611bb0565b9050816001600160a01b0316836001600160a01b0316336001600160a01b0316600080516020615efe8339815191528785604051610ee3929190615e48565b60405180910390a4505050505b5050505050565b600083610f0657506000610e57565b60008413610f1357600080fd5b6000610f228661ffff1661126c565b90506000610f3982610f348789610b72565b611e8c565b90506000610f4a89898489896112b7565b90945090508681036000811215610f6057600080fd5b5050505095945050505050565b6000610f77615169565b6000806000610f858861093c565b9050600080610f958a8985611ec9565b9250925050600080610fab8a8d60000151611f5d565b915091508b610140015160018c0360028110610fc357fe5b602002015198508460018c0360028110610fd957fe5b602002015197508a600114610fef578281610ff2565b83825b999d989c509a50979850959650505050505050565b6000610b6b6110168484610ac4565b633b9aca00610b18565b606086015160208701516040516351586b3360e01b815260009273__$f6541b0d362a0c7d99a2a29cd3d373d61b$__926351586b339261106d928b928b928b91908b908b90600401615b3a565b60206040518083038186803b15801561108557600080fd5b505af4158015611099573d6000803e3d6000fd5b505050506040513d601f19601f820116820180604052508101906110bd9190615829565b9050801561112d57604051636ccc642f60e01b815273__$841fddfe32830bb6dbc3a02d7f16c53722$__90636ccc642f906110fc908990600401615b0c565b60006040518083038186803b15801561111457600080fd5b505af4158015611128573d6000803e3d6000fd5b505050505b856001600160a01b031687606001516001600160a01b0316866001600160a01b03167f19b09f1f990520654bea0360dd08a2678d6926fd849dd49bc385862dc91af75387878760405161118293929190615ccd565b60405180910390a450505050505050565b826111b4576111a58486846000611fb3565b6111af858761201e565b611264565b60006111bf8761093c565b90506000806111fd8988606001518960200151896001146111e15760006111e3565b885b8a6002146111f25760006111f4565b895b886000806120c7565b915091508315610dac576000866001146112175781611219565b825b90508015806112435750806000038a6101a00151600189036002811061123b57fe5b602002015113155b61125f5760405162461bcd60e51b81526004016108c890615ca9565b505050505b505050505050565b6112746152f9565b6109348260016122f9565b60006305f5e10083604001511415611298575080610b12565b610b6b6305f5e1006102aa856040015185610ac490919063ffffffff16565b60008060006112c586611910565b9050806112d957600080925092505061136f565b60006112e88861ffff1661126c565b90506003816060015160058111156112fc57fe5b1415611343573482101561131c576113178983340387611cca565b61133b565b34821461133b5760405162461bcd60e51b81526004016108c890615bea565b86935061135d565b61135a61135582600001518b85612393565b610aaa565b93505b61136a898986848a611e0f565b925050505b9550959350505050565b61138588878786610d11565b60006113948787876000611e56565b905064ffffffffff8514156114145760006113bf6113ba846113b588610b9e565b61251b565b610b9e565b90508060001914156113cf575060005b60006001600160a01b038a1633600080516020615efe833981519152600a86176113f886611910565b604051611406929190615e48565b60405180910390a450611454565b6001600160a01b038816600033600080516020615efe833981519152600b851761143d89611910565b60405161144b929190615e48565b60405180910390a45b886001600160a01b0316886001600160a01b0316336001600160a01b0316600080516020615efe833981519152600960ff16851787604051610ee3929190615e48565b6000828211156114a657600080fd5b50900390565b60006114b885856115d4565b90508060200151600014806114d05750818160200151145b6114ec5760405162461bcd60e51b81526004016108c890615c0f565b602081018290526040810151611502908461255a565b6040820152610ef081856001600061256c565b6001600160a01b03811661152857600080fd5b6001600160a01b038116610fee141561154057600080fd5b6001600160a01b0381166105e7141561155857600080fd5b6001600160a01b03811630141561156e57600080fd5b6000611579826125fc565b5050505061ffff1690508060001461159057600080fd5b5050565b61159c61518a565b6115a582612668565b90506115b48160400151611753565b610160820152919050565b60209190910151811661ffff90811691161490565b6115dc615223565b60006115e66118ed565b6001600160a01b038086166000818152602084815260408083208951909516835293815290839020805464ffffffffff600160a01b8204169288018390526001600160501b03600160501b8204811695890195909552606088019390935260018101548416608088015263ffffffff600160c81b84041660a08801526101608801519495509361167893909216612856565b835250909392505050565b61168b615262565b6116bd836116ae6113ba8660000151866101600151610b4990919063ffffffff16565b60208601518592919042612894565b50610b6b838361295d565b6116d0615262565b60006116da6129d5565b84516001600160a01b031660009081526020828152604080832087845290915290819020858552805460ff600160f01b820416151560608701526001600160501b03600160a01b82048116938701939093526101608801519394509092611745929091879116612856565b602084015250909392505050565b61175b615169565b61093482426129e2565b61176d615320565b6000611777612aa3565b60008481526020829052604081209192508060018614156117a45750670de0b6b3a7640000905080611867565b825460408051633fabe5a360e21b815290516001600160a01b039092169163feaf968c9160048082019260a092909190829003018186803b1580156117e857600080fd5b505afa1580156117fc573d6000803e3d6000fd5b505050506040513d601f19601f8201168201806040525081019061182091906159e3565b5091935050600083139150611836905057600080fd5b825460ff600160a01b82048116600a0a9350600160a81b909104161561186757611864816102aa8480610ac4565b90505b8254600160b01b900460ff1660968113156118875760951901600a026096015b6040805160a081018252938452602084019290925290820152905460ff600160b81b820481166060840152600160c01b909104166080820152915050919050565b6000610b6b82602001516102aa84600001518660200151610ac490919063ffffffff16565b600080610b126016612aac565b81810182811215600083121514610b1257600080fd5b600080821215610ac057600080fd5b60006001600160501b03821115610ac057600080fd5b60808501511561194457600080fd5b6060840151855161195490610b9e565b12801561195e5750815b15611992578451158061197657506001856040015111155b6119925760405162461bcd60e51b81526004016108c890615ca9565b61199b8461090d565b15611a3a5760006119aa612ac5565b60608701516001600160a01b03908116600090815260209283526040808220895190931682529183522080549188015190925064ffffffffff909116908114806119f2575080155b6119fb57600080fd5b80611a37578154600160281b90046001600160501b0316158015611a2e57508154600160781b90046001600160501b0316155b611a3757600080fd5b50505b6000611a5a610c086113ba87610160015189602001518a60000151612ad2565b90508115611ae3576040805160e08101825285546001600160501b038082168352600160501b80830482166020850152600160a01b80840464ffffffffff1695850195909552600160c81b90920463ffffffff16606084015260018801548082166080850152918204811660a084015292900490911660c0820152611ae3908790879084612af0565b611af0866040015161191f565b84546001600160501b0391909116600160501b0269ffffffffffffffffffff60501b199091161784556020860151611b2790612fc2565b845464ffffffffff91909116600160a01b0264ffffffffff60a01b1990911617845560a0860151611b5790612fd6565b845463ffffffff91909116600160c81b0263ffffffff60c81b19909116178455611b808161191f565b84546001600160501b0319166001600160501b0391909116179093555050505050565b600080610b126021612aac565b600080821215611bca57611bc382610b9e565b9050610937565b5080610937565b6000611bdb612fe9565b83516001600160a01b0316600090815260208290526040902054909150808311611c06575050611cc5565b6000611c1186612ff6565b90506000816001600160a01b031663b5e4da238487036040518263ffffffff1660e01b8152600401611c439190615be1565b60006040518083038186803b158015611c5b57600080fd5b505afa158015611c6f573d6000803e3d6000fd5b505050506040513d6000823e601f3d908101601f19168201604052611c97919081019061571b565b90506000611ca58783613026565b9150611cb39050848261255a565b861115611cbf57600080fd5b50505050505b505050565b8015611d5c577382af49447d8a07e3bd95bd0d56f35241523fbab16001600160a01b031663d0e30db0836040518263ffffffff1660e01b81526004016000604051808303818588803b158015611d1f57600080fd5b505af1158015611d33573d6000803e3d6000fd5b5050505050611d577382af49447d8a07e3bd95bd0d56f35241523fbab18484611d98565b611cc5565b6040516001600160a01b0384169083156108fc029084906000818181858888f19350505050158015611d92573d6000803e3d6000fd5b50505050565b826001600160a01b031663a9059cbb83836040518363ffffffff1660e01b815260040180836001600160a01b0316815260200182815260200192505050600060405180830381600087803b158015611def57600080fd5b505af1158015611e03573d6000803e3d6000fd5b50505050611cc561323d565b600080611e1c84866132aa565b9050611e288382610b49565b9150611e358787846132da565b611e4086838361335a565b8351611e4c908661345e565b5095945050505050565b68010000000000000000600160e01b03604085901b1667ffff000000000000603085901b1617600883901b178117949350505050565b60006305f5e10083604001511215611eba57611eb36001611ead858561127f565b906118fa565b9050610b12565b610b6b83610df28460016118fa565b600080600080611ed7612ac5565b6001600160a01b038781166000908152602092835260408082208b5190931682529190925290208054865164ffffffffff82169650919250611f2b91908690600160281b90046001600160501b0316612856565b9250611f51856001602002015182548690600160781b90046001600160501b0316612856565b91505093509350939050565b6000806000611f6a6118ed565b6001600160a01b0395861660009081526020918252604080822096909716815294905250505020600101546001600160501b03600160501b8204811692600160a01b9092041690565b8251602085015114611fcb57835115611fcb57600080fd5b6080840151611fda90826118fa565b60808501528351611feb90836118fa565b80855260001215611ffb57600080fd5b602083015161200a90836118fa565b6020840181905260001215611d9257600080fd5b60006120286129d5565b82516001600160a01b03166000908152602082815260408083208751845290915290819020908501519192509061205e9061191f565b81546060860151801515600160f01b0260ff60f01b196001600160501b0394909416600160a01b0269ffffffffffffffffffff60a01b199093169290921792909216178255610160840151604085015186516020880151611d92948694938993909290916134b3565b60008060006120d4612ac5565b6001600160a01b03808c166000908152602092835260408082208f519093168252919092529020805490915064ffffffffff1689811480612113575080155b61211c57600080fd5b8651825461213c91908c90600160281b90046001600160501b0316612856565b9350612162876001602002015183548c90600160781b90046001600160501b0316612856565b925088156121ea57612174848a6118fa565b93506121a38c8c8e610140015160006002811061218d57fe5b60200201518d8d8c60005b60200201518b613592565b6121be610c0d610c086113ba8a600060200201518e89612ad2565b82546001600160501b0391909116600160281b026effffffffffffffffffff0000000000199091161782555b8715612267576121fa83896118fa565b92506122228c8c8e610140015160016002811061221357fe5b60200201518d8c8c6001612198565b61223d610c0d610c086113ba8a600160200201518e88612ad2565b82546001600160501b0391909116600160781b0269ffffffffffffffffffff60781b199091161782555b85156122d65783158061228457506101a08c015151600085900312155b6122a05760405162461bcd60e51b81526004016108c890615c85565b8215806122ba57506101a08c015160200151600084900312155b6122d65760405162461bcd60e51b81526004016108c890615c85565b6122ea8285856122e58e612fc2565b613660565b50509850989650505050505050565b6123016152f9565b600061230b61369e565b6000858152602082815260408083208715158452825291829020825160a08101845281546001600160a01b038116825260ff600160a01b82048116151594830194909452600160b01b81048416600a0a9482019490945293945092916060830191600160a81b90910416600581111561238057fe5b8152600060209091015295945050505050565b600080846001600160a01b03166370a08231306040518263ffffffff1660e01b815260040180826001600160a01b0316815260200191505060206040518083038186803b1580156123e357600080fd5b505afa1580156123f7573d6000803e3d6000fd5b505050506040513d602081101561240d57600080fd5b5051604080516323b872dd60e01b81526001600160a01b038781166004830152306024830152604482018790529151929350908716916323b872dd9160648082019260009290919082900301818387803b15801561246a57600080fd5b505af115801561247e573d6000803e3d6000fd5b5050505061248a61323d565b6000856001600160a01b03166370a08231306040518263ffffffff1660e01b815260040180826001600160a01b0316815260200191505060206040518083038186803b1580156124d957600080fd5b505afa1580156124ed573d6000803e3d6000fd5b505050506040513d602081101561250357600080fd5b505190506125118183611497565b9695505050505050565b6000808212156125545761254f600161254985602001516102aa876000015187610ac490919063ffffffff16565b906136ab565b610b6b565b50919050565b600082820183811015610b6b57600080fd5b60006125766118ed565b60608601516001600160a01b0390811660009081526020838152604080832089519094168352929052209091506125b08686838787611935565b6001810180546001600160501b03191690819055600160501b90046001600160501b03161580156125f357506001810154600160a01b90046001600160501b0316155b61126457600080fd5b60008060008060008061260d6136c1565b6001600160a01b039097166000908152602097909752505060409094205461ffff81169563ffffffff620100008304811696506601000000000000830416945060ff600160501b8304169350600160581b90910460d81b9150565b61267061518a565b600061267a6136ce565b6001600160a01b03841660008181526020838152604091829020928652825461ffff8082169288019290925262010000900416908501529091506126d6612710633b9aca008354600160501b900460ff169190056005026136db565b608084015280546126f590600160401b900461ffff16620186a06136db565b60a0840152805461271490600160701b900461ffff16620186a06136db565b61012084015260028101546127309061ffff16620186a06136db565b610180840152805460649060ff600160581b90910416633b9aca00020560c08401528054600160601b810460ff90811660e0860152600160681b909104166101008401526040805180820191829052906001830190600290826000855b82829054906101000a900461ffff1661ffff168152602001906002019060208260010104928301926001038202915080841161278d57505050505061014085019190915250600481015460ff166101c084015280546127f990640100000000900463ffffffff16613702565b606084015261282f6003820160005b600891828204019190066004029054906101000a900463ffffffff1663ffffffff16613702565b6101a084015152612844600382016001612808565b6101a084015160200152509092915050565b600064ffffffffff831461287657816001600160501b031660000361288c565b61288c846001600160501b038416600003613710565b949350505050565b60006128a3868686868661375b565b905060006128c360646102aa8960e0015185610ac490919063ffffffff16565b905060006128d183836136ab565b90506128e18860400151836137f1565b6128ef886040015182613828565b64ffffffffff851415612927576129278860000151896040015185612922878d610160015161251b90919063ffffffff16565b61386c565b61293b886000015189604001518385613974565b608087015161294a90846136ab565b6080909701969096525095945050505050565b612965615262565b602083015164ffffffffff1461297a57600080fd5b6129898264ffffffffff6116c8565b90506000836080015112156129cb576129cb83826129b98660800151866101600151610b7290919063ffffffff16565b6129c68760800151610b9e565b611fb3565b610b12818361201e565b600080610b126015612aac565b6129ea615169565b60006129f584613a64565b90508281600001511015612a3457600080612a0f86613b2c565b9050612a1d86848388613ba9565b9093509150612a2d868385613c4d565b5050612a41565b80518314612a4157600080fd5b6040518060600160405280612a6a6113558460a001518560c001516136db90919063ffffffff16565b8152602001612a8d6113558460a001518560e001516136db90919063ffffffff16565b8152602001826060015181525091505092915050565b600080610b1260105b6000620f4240826026811115612abe57fe5b0192915050565b600080610b12601a612aac565b600064ffffffffff8314612ae6578161288c565b61288c8483613e7e565b6040805160028082526060820183526000926020830190803683375050604080516002808252606082018352939450600093909250906020830190803683370190505090506000612b5786600001518760400151876040015164ffffffffff166000611e56565b9050600a60ff16811783600081518110612b6d57fe5b602002602001018181525050600960ff16811783600181518110612b8d57fe5b602002602001018181525050866020015160001480612bd05750604085015164ffffffffff1615801590612bd057508660200151856040015164ffffffffff1614155b15612c725784600001516001600160501b031682600081518110612bf057fe5b60200260200101818152505084602001516001600160501b031682600181518110612c1757fe5b60200260200101818152505060006001600160a01b031687606001516001600160a01b0316336001600160a01b0316600080516020615ede8339815191528686604051612c65929190615bbc565b60405180910390a4612e6f565b846040015164ffffffffff1687602001511415612e6f5784516000906001600160501b0316851080612cb4575085602001516001600160501b03168860400151105b90508015612d845785516001600160501b03168510612cd4576000612ce3565b85516001600160501b03168590035b83600081518110612cf057fe5b602002602001018181525050612d20886040015187602001516001600160501b031661149790919063ffffffff16565b83600181518110612d2d57fe5b60200260200101818152505060006001600160a01b031688606001516001600160a01b0316336001600160a01b0316600080516020615ede8339815191528787604051612d7b929190615bbc565b60405180910390a45b801580612d9a575085516001600160501b031685115b15612e6d578551612db59086906001600160501b0316611497565b83600081518110612dc257fe5b602002602001018181525050876040015186602001516001600160501b031610612ded576000612e09565b60208601516040890151612e09916001600160501b0316611497565b83600181518110612e1657fe5b60200260200101818152505087606001516001600160a01b031660006001600160a01b0316336001600160a01b0316600080516020615ede8339815191528787604051612e64929190615bbc565b60405180910390a45b505b602087015115801590612e9157508660200151856040015164ffffffffff1614155b15612f7457612eaf8660000151876040015189602001516000611e56565b9050600a60ff16811783600081518110612ec557fe5b602002602001018181525050600960ff16811783600181518110612ee557fe5b6020026020010181815250508382600081518110612eff57fe5b602002602001018181525050866040015182600181518110612f1d57fe5b60200260200101818152505086606001516001600160a01b031660006001600160a01b0316336001600160a01b0316600080516020615ede8339815191528686604051612f6b929190615bbc565b60405180910390a45b60808501516001600160501b031615610d0857606087015160808601516040516000926001600160a01b0316913391600080516020615efe8339815191529161118291600b88179190615e6c565b600064ffffffffff821115610ac057600080fd5b600063ffffffff821115610ac057600080fd5b600080610b126026612aac565b600080613001613eda565b61ffff939093166000908152602093909352505060409020546001600160a01b031690565b60008060005b835181101561323557600084828151811061304357fe5b60200260200101519050600081606001516001600160a01b03166370a08231306040518263ffffffff1660e01b815260040161307f9190615b0c565b60206040518083038186803b15801561309757600080fd5b505afa1580156130ab573d6000803e3d6000fd5b505050506040513d601f19601f820116820180604052508101906130cf91906159cb565b905060006130dd8830613ee7565b905060005b83515181101561313957613128846000015182815181106130ff57fe5b602002602001015160008660200151848151811061311957fe5b60200260200101516001613f91565b61313157600196505b6001016130e2565b5060006131468930613ee7565b905060006131548284611497565b9050808560400151111561316757600080fd5b60608501516040516370a0823160e01b81526000916001600160a01b0316906370a082319061319a903090600401615b0c565b60206040518083038186803b1580156131b257600080fd5b505afa1580156131c6573d6000803e3d6000fd5b505050506040513d601f19601f820116820180604052508101906131ea91906159cb565b9050848111156131f957600080fd5b613208866060015186836141ff565b613212888361255a565b97506132238b6000015185856141ff565b50506001909401935061302c92505050565b509250929050565b600061324761534f565b3d801561325b576020811461326457600080fd5b6001925061326f565b60206000833e815192505b5081611590576040805162461bcd60e51b8152602060048201526005602482015264045524332360dc1b604482015290519081900360640190fd5b60006305f5e100836040015114156132c3575080610b12565b6040830151610b6b906102aa846305f5e100610ac4565b60006132e4611ba3565b61ffff8416600090815260209190915260409081902054905163ad1c095d60e01b81526001600160a01b039091169150819063ad1c095d9061332c9087908690600401615ba3565b600060405180830381600087803b15801561334657600080fd5b505af1158015611cbf573d6000803e3d6000fd5b600061336461427c565b61ffff8516600090815260209190915260409020805490915064ffffffffff16421461338f57600080fd5b80546000906133ae90600160281b90046001600160581b0316856118fa565b82549091506000906133d090600160801b90046001600160581b0316856118fa565b905080624c4b4013156133e257600080fd5b6133f36133ee82611910565b614289565b83546001600160581b0391909116600160801b026affffffffffffffffffffff60801b199091161783556134296133ee83611910565b83546001600160581b0391909116600160281b026fffffffffffffffffffffff0000000000199091161783556112648361429f565b6000613468612fe9565b6001600160a01b038416600090815260208290526040902054909150613491610c0882856118fa565b6001600160a01b03909416600090815260209290925250604090209190915550565b86546001600160501b03166000908103906134cf888686612ad2565b90506134e0610c0d610c0883610b9e565b89546001600160501b0319166001600160501b039190911617895560006135078383614364565b9050600064ffffffffff87141561352e578851613527908b908a856143eb565b5084613565565b846135655788516135429089898787614418565b8851613557908961355285610b9e565b6144d8565b613562898b8a6145ae565b90505b600082138015613573575084155b15613585578851613585908983614654565b5050505050505050505050565b600061359c6146d0565b88516001600160a01b0316600090815260209182526040808220888352835280822061ffff8a16835290925290812080549092506135e690859088906001600160501b0316612856565b90506135f281866118fa565b905061360482858b8a8a8660006134b3565b60008086138015613619575064ffffffffff87145b1561363b576136346113ba868961362f8a610b9e565b612ad2565b9050613649565b613646858888612ad2565b90505b831561125f5761125f898b600001518a8a856146dd565b8215801561366c575081155b1561368257835464ffffffffff19168455611d92565b835464ffffffffff191664ffffffffff91909116179092555050565b600080610b126007612aac565b80820382811315600083121514610b1257600080fd5b600080610b126002612aac565b600080610b126014612aac565b6000826136ea57506000610b12565b828202828482816136f757fe5b0414610b6b57600080fd5b600881901c60ff9091161b90565b60006001821261371f57600080fd5b8161372c57506000610b12565b610b6b60016125496ec097ce7bc90715b34b9f10000000006102aa876020015187610ac490919063ffffffff16565b60008064ffffffffff8414156137ad57602086015164ffffffffff14613785576000915050610e57565b61379f6113558760a001518561149790919063ffffffff16565b60a0870184905290506137bd565b6137ba6113558585611497565b90505b60808701516000906137d9906301da9c00906102aa9085610ac4565b90506137e58682611007565b98975050505050505050565b60008112156137ff57600080fd5b600061380d610fee8461475f565b905061381981836118fa565b9050611cc5610fee84836147b8565b600081121561383657600080fd5b60006138458361ffff1661482c565b90506000613853828561475f565b905061385f81846118fa565b9050611d928285836147b8565b6000613876611ba3565b61ffff8516600090815260209190915260408120546001600160a01b0316915061389e614852565b61ffff8616600090815260209190915260409081902054905163ad1c095d60e01b81526001600160a01b039091169150819063ad1c095d906138e69089908790600401615ba3565b600060405180830381600087803b15801561390057600080fd5b505af1158015613914573d6000803e3d6000fd5b505060405163ad1c095d60e01b81526001600160a01b038516925063ad1c095d91506139469089908890600401615ba3565b600060405180830381600087803b15801561396057600080fd5b505af115801561125f573d6000803e3d6000fd5b600061397e611ba3565b61ffff8516600090815260209190915260408120546001600160a01b031691506139a661485f565b61ffff8616600090815260209190915260409020546001600160a01b03908116915082166323de665187610fee6139dc87611910565b6040518463ffffffff1660e01b81526004016139fa93929190615b7f565b600060405180830381600087803b158015613a1457600080fd5b505af1158015613a28573d6000803e3d6000fd5b50505050816001600160a01b03166323de66518783613a4688611910565b6040518463ffffffff1660e01b815260040161394693929190615b7f565b613a6c61536d565b6000613a7661427c565b61ffff93841660009081526020918252604090819020805464ffffffffff81168652600160281b81046001600160581b03908116948701949094526001820154841692860192909252600160d81b820463ffffffff166060860152600160801b9091049091166080840152600201546001600160501b0380821660a0850152600160501b8204811660c0850152600160a01b82041660e0840152600160f01b900460ff1661012c02909216610100820152919050565b600080613b3883612ff6565b6001600160a01b031663ef81f2166040518163ffffffff1660e01b81526004016040805180830381600087803b158015613b7157600080fd5b505af1158015613b85573d6000803e3d6000fd5b505050506040513d601f19601f8201168201806040525081019061288c9190615849565b613bb161536d565b6000806000613bc188868961486c565b60c08b019290925260e08a019290925260208901519193509150613be5908361255a565b6020880152608087015160009015613c13576080880151613c1090613c0a8982611497565b9061497d565b90505b613c33613c28670de0b6b3a76400008361255a565b60a08a01519061499a565b60a089015250506080860194909452505082529092909150565b6000613c5761427c565b60008561ffff1681526020019081526020016000209050613c7b8260000151612fc2565b815464ffffffffff191664ffffffffff9190911617815560a0820151613ca09061191f565b6002820180546001600160501b0319166001600160501b039290921691909117905560c0820151613cd09061191f565b81600201600a6101000a8154816001600160501b0302191690836001600160501b03160217905550613d058260e0015161191f565b8160020160146101000a8154816001600160501b0302191690836001600160501b03160217905550613d3a8260200151614289565b81546001600160581b0391909116600160281b026fffffffffffffffffffffff0000000000199091161781556040820151613d7490614289565b6001820180546affffffffffffffffffffff19166001600160581b03929092169190911790556080820151613da890614289565b81546001600160581b0391909116600160801b026affffffffffffffffffffff60801b199091161781556060820151613de090612fd6565b815463ffffffff91909116600160d81b0263ffffffff60d81b199091161781558215613e2c576000613e1184610aaa565b9050613e1d85826137f1565b613e2a610fee86836132da565b505b8361ffff167fef25641e225e493886510ca1ad6584fa7b442b9fea820a29d1de3ce27d270fd28360a001518460c001518560e00151604051613e7093929190615e56565b60405180910390a250505050565b600081600013158015613e915750600a82125b15613e9e57506000610b12565b60008212613eab57600080fd5b610b6b600161254985602001516102aa6ec097ce7bc90715b34b9f100000000087610ac490919063ffffffff16565b600080610b12601f612aac565b6000600383606001516005811115613efb57fe5b1415613f1257506001600160a01b03811631610b12565b82516040516370a0823160e01b81526001600160a01b03909116906370a0823190613f41908590600401615b0c565b60206040518083038186803b158015613f5957600080fd5b505afa158015613f6d573d6000803e3d6000fd5b505050506040513d601f19601f82011682018060405250810190611eb391906159cb565b6000806000866001600160a01b031686866040518082805190602001908083835b60208310613fd15780518252601f199092019160209182019101613fb2565b6001836020036101000a03801982511681845116808217855250505050505090500191505060006040518083038185875af1925050503d8060008114614033576040519150601f19603f3d011682016040523d82523d6000602084013e614038565b606091505b5091509150836140db578161404c826149b7565b906140d55760405162461bcd60e51b81526004018080602001828103825283818151815260200191508051906020019080838360005b8381101561409a578181015183820152602001614082565b50505050905090810190601f1680156140c75780820380516001836020036101000a031916815260200191505b509250505060405180910390fd5b50611e4c565b866001600160a01b03167f3c7e398c5e91088cae639370e35b25ea669d81fbdf0def5388e73661bc34e08e8787614111856149b7565b604051808481526020018060200180602001838103835285818151815260200191508051906020019080838360005b83811015614158578181015183820152602001614140565b50505050905090810190601f1680156141855780820380516001836020036101000a031916815260200191505b50838103825284518152845160209182019186019080838360005b838110156141b85781810151838201526020016141a0565b50505050905090810190601f1680156141e55780820380516001836020036101000a031916815260200191505b509550505050505060405180910390a25095945050505050565b6000614209612fe9565b6001600160a01b0385166000908152602082905260409020549091508381111561423257600080fd5b600061424961424086610aaa565b61254986610aaa565b9050614258610c0883836118fa565b6001600160a01b039096166000908152602093909352505060409020929092555050565b600080610b12601d612aac565b60006001600160581b03821115610ac057600080fd5b805460028201546000916142db91600160281b9091046001600160581b0316906102a4906001600160501b03600160501b820481169116610ac4565b60018301546002840154919250600091614315916001600160581b0316906102a4906001600160501b03600160a01b820481169116610ac4565b835490915060009061434c9060016001600160581b03600160801b909204821601166ec097ce7bc90715b34b9f1000000000610ac4565b90508061435984846136ab565b1315611d9257600080fd5b600081831480614381575060008312158015614381575060008212155b1561438e57506000610b12565b6000831315801561439f5750816000125b156143ab575081610b12565b600082131580156143bc5750826000125b156143ca57611eb382610b9e565b600083131580156143dc575060008213155b1561007057611eb383836136ab565b8015611d92578351602085015160009161440a916102aa908590610ac4565b9050610ef084848484614abe565b60006144248383614364565b9050806144315750610ef0565b600061443b614bfb565b61ffff87166000908152602082815260408083208984529091528120549192506001600160501b0390911681039061447382856136ab565b9050600081131561448357600080fd5b614492610c0d610c0883610b9e565b61ffff89166000908152602085815260408083208b8452909152902080546001600160501b0319166001600160501b0392909216919091179055610dac89898987614c08565b60006144e2614c6e565b6001600160a01b03851660009081526020918252604080822061ffff87168352909252908120805490925061452790600160501b90046001600160501b0316846136ab565b9050614535610c0d82611910565b82546001600160501b0391909116600160501b0269ffffffffffffffffffff60501b1990911617825560405161ffff8516906001600160a01b038716907f20478ef460e49d010960d4f3fff35d8dae385443abfac09035d6a2ccbcd834c49061459f908590615be1565b60405180910390a35050505050565b600080846040015161ffff168361ffff1614156145fa576145cd6129d5565b85516001600160a01b031660009081526020918252604080822064ffffffffff8352909252209050614637565b6146026146d0565b85516001600160a01b031660009081526020918252604080822064ffffffffff8352835280822061ffff871683529092522090505b8054610e5790859064ffffffffff906001600160501b0316612856565b600061465e614c6e565b6001600160a01b03851660009081526020918252604080822061ffff8716835290925290812080549092506146a390600160501b90046001600160501b0316846136ab565b82549091506001600160501b0316811315610ef05760405162461bcd60e51b81526004016108c890615c5f565b600080610b126018612aac565b806146e757610ef0565b600080806146f8878787600a611e56565b9050600084131561470f5787925060009150614717565b600092508791505b6001600160a01b0380831690841633600080516020615efe8339815191528461473f89611bb0565b60405161474d929190615e48565b60405180910390a45050505050505050565b60008061476a614c7b565b6001600160a01b03851660009081526020828152604080832061ffff8816845290915281208054600160a81b9004600a90810b900b94509192508312156147b057600080fd5b505092915050565b60008112156147c657600080fd5b60006147d0614c7b565b6001600160a01b03851660009081526020828152604080832061ffff88168452909152902090915061480183614c88565b8154600a9190910b6001600160581b0316600160a81b026001600160a81b0390911617905550505050565b60008061483761485f565b6000938452602052505060409020546001600160a01b031690565b600080610b126022612aac565b600080610b126003612aac565b60008060008060008061487f8988614cba565b895190955091935091506000906148a69061489b908b90611497565b633b9aca00906136db565b90506148e06148d56301da9c006148bd85856136db565b816148c457fe5b670de0b6b3a764000091900461255a565b60e08a01519061499a565b96506149026148f76301da9c006148bd87856136db565b60c08a01519061499a565b955081831415614919575060009350614974915050565b600061493b6149306301da9c006148bd87866136db565b60e08b01519061499a565b905060006149498983611497565b905061496c88614966838d604001516136db90919063ffffffff16565b90614d55565b965050505050505b93509350935093565b6000610b6b61499484670de0b6b3a76400006136db565b83614d55565b6000610b6b6149a984846136db565b670de0b6b3a7640000614d55565b60606044825110156149ed575060408051808201909152600d81526c14da5b195b9d0814995d995c9d609a1b6020820152610937565b6004820180519092602401906020811015614a0757600080fd5b8101908080516040519392919084640100000000821115614a2757600080fd5b908301906020820185811115614a3c57600080fd5b8251640100000000811182820188101715614a5657600080fd5b82525081516020918201929091019080838360005b83811015614a83578181015183820152602001614a6b565b50505050905090810190601f168015614ab05780820380516001836020036101000a031916815260200191505b506040525050509050919050565b6000614ac861427c565b61ffff8516600090815260209190915260409020805490915064ffffffffff164214614af357600080fd5b8054600160f81b900460ff16614b0857600080fd5b6001810154600090614b23906001600160581b0316856118fa565b8254909150600090614b4590600160281b90046001600160581b0316856118fa565b905081600919128015614b585750600082125b15614b6257600091505b80600919128015614b735750600081125b15614b7c575060005b614b886133ee83611910565b6001840180546affffffffffffffffffffff19166001600160581b0392909216919091179055614bba6133ee82611910565b83546001600160581b0391909116600160281b026fffffffffffffffffffffff000000000019909116178355614bf28787868861386c565b610d088361429f565b600080610b126020612aac565b600080614c16858585614d74565b915091506000806000851215614c2e57879150614c31565b50865b806001600160a01b0316826001600160a01b0316336001600160a01b0316600080516020615ede833981519152878760405161474d929190615bbc565b600080610b126017612aac565b600080610b126006612aac565b60006a7fffffffffffffffffffff198212801590614cb157506a7fffffffffffffffffffff8213155b610ac057600080fd5b600080600080600085602001511115614d0757614d04614ceb8660c0015187602001516136db90919063ffffffff16565b60e08701516040880151614cfe916136db565b90614e59565b90505b6000614d1287614e6c565b9050614d1e8183614e9f565b94508115614d3557614d3281866001614f58565b93505b602086015115614d4c57614d498583614fd2565b92505b50509250925092565b6000808211614d6357600080fd5b818381614d6c57fe5b049392505050565b604080516002808252606082810190935282916000918160200160208202803683370190505090506000614da88787614feb565b90508082600081518110614db857fe5b602002602001018181525050600160401b811782600181518110614dd857fe5b602090810291909101015260408051600280825260608201909252600091816020016020820280368337019050509050614e1186611bb0565b81600081518110614e1e57fe5b602002602001018181525050614e3386611bb0565b81600181518110614e4057fe5b6020908102919091010152919791965090945050505050565b6000610b6b61499484633b9aca006136db565b614e746153b9565b6000614e7e615009565b61ffff8416600090815260209190915260408120549150610b6b9082615016565b600080836080015111614eb157600080fd5b633b9aca00821115614ec257600080fd5b82518211614ee15782516040840151611eb391906149669085906136db565b82602001518211614f1f576040830151835160208501516060860151611eb39392614f199281900391614966918803908590036136db565b9061255a565b610b6b8360600151614f198560200151633b9aca00036149668760600151886080015103886020015188036136db90919063ffffffff16565b600080614f7760646149668760e00151876136db90919063ffffffff16565b90508460a00151811015614f8c575060a08401515b8460c00151811115614f9f575060c08401515b8215614fb657614faf848261255a565b9150614fca565b838111614fc557808403610e57565b600091505b509392505050565b6000610b6b614fe184846136db565b633b9aca00614d55565b67ffff000000000000603083901b16600882901b1760011792915050565b600080610b12601b612aac565b61501e6153b9565b6064633b9aca008360ff86166020811061503457fe5b1a028161503d57fe5b0481526064633b9aca008360ff86166001016020811061505957fe5b1a028161506257fe5b048160200181815250506150878260028560ff16016020811061508157fe5b1a615135565b60808201819052610100908360ff8616600301602081106150a457fe5b1a02816150ad57fe5b0460408201526080810151610100908360ff8616600401602081106150ce57fe5b1a02816150d757fe5b0460608201526207a1208260ff8516600501602081106150f357fe5b1a0260a0820152622625a08260ff85166006016020811061511057fe5b1a0260c08201528160ff84166007016020811061512957fe5b1a60e082015292915050565b60008160ff166096106151505760ff8216622625a002610934565b5060951960ff919091160162e4e1c00263165a0bc00190565b60405180606001604052806000815260200160008152602001600081525090565b604051806101e0016040528060006001600160a01b03168152602001600061ffff168152602001600061ffff168152602001600081526020016000815260200160008152602001600081526020016000815260200160008152602001600081526020016151f56153fe565b8152602001615202615169565b8152602001600081526020016152166153fe565b8152602001600081525090565b6040518060c0016040528060008152602001600081526020016000815260200160006001600160a01b0316815260200160008152602001600081525090565b60405180608001604052806000815260200160008152602001600081526020016000151581525090565b60405180604001604052806002905b6152a3615169565b81526020019060019003908161529b5790505090565b6040805160c081018252600080825260208201529081016152d8615169565b81526020016152e5615169565b815260200160008152602001600081525090565b6040805160a081018252600080825260208201819052918101829052906060820190615216565b6040518060a0016040528060008152602001600081526020016000815260200160008152602001600081525090565b60405180602001604052806001906020820280368337509192915050565b6040518061012001604052806000815260200160008152602001600081526020016000815260200160008152602001600081526020016000815260200160008152602001600081525090565b60405180610100016040528060008152602001600081526020016000815260200160008152602001600081526020016000815260200160008152602001600081525090565b60405180604001604052806002906020820280368337509192915050565b805161093781615ec5565b600082601f830112615437578081fd5b8151602061544c61544783615ea7565b615e83565b8281528181019085830183850287018401881015615468578586fd5b855b8581101561548f57815161547d81615ec5565b8452928401929084019060010161546a565b5090979650505050505050565b6000601f83818401126154ad578182fd5b825160206154bd61544783615ea7565b82815281810190868301865b8581101561556257815189018a603f8201126154e3578889fd5b8581015167ffffffffffffffff8111156154f957fe5b61550a818a01601f19168801615e83565b81815260408d8184860101111561551f578b8cfd5b8b5b8381101561553c578481018201518382018b01528901615521565b8381111561554c578c8a85850101525b50508652505092840192908401906001016154c9565b509098975050505050505050565b600082601f830112615580578081fd5b6040516060810181811067ffffffffffffffff8211171561559d57fe5b6040528083606081018610156155b1578384fd5b835b60038110156155d25781518352602092830192909101906001016155b3565b509195945050505050565b80516001600160501b038116811461093757600080fd5b600080600080600060a0868803121561560b578081fd5b853561561681615ec5565b9450602086013561562681615ec5565b9350604086013561563681615ec5565b9250606086013561ffff8116811461564c578182fd5b949793965091946080013592915050565b600080600080600060a08688031215615674578283fd5b853561567f81615ec5565b9450602086013561568f81615ec5565b9350604086013561569f81615ec5565b94979396509394606081013594506080013592915050565b60008060008060008060c087890312156156cf578384fd5b86356156da81615ec5565b955060208701356156ea81615ec5565b945060408701356156fa81615ec5565b959894975094956060810135955060808101359460a0909101359350915050565b6000602080838503121561572d578182fd5b825167ffffffffffffffff80821115615744578384fd5b818501915085601f830112615757578384fd5b815161576561544782615ea7565b81815284810190848601875b8481101561581a57815187016080818d03601f1901121561579057898afd5b60408051608081018181108a821117156157a657fe5b8252828b0151898111156157b8578c8dfd5b6157c68f8d83870101615427565b82525081830151898111156157d9578c8dfd5b6157e78f8d8387010161549c565b8c830152506060830151828201526158016080840161541c565b6060820152865250509287019290870190600101615771565b50909998505050505050505050565b60006020828403121561583a578081fd5b81518015158114610b6b578182fd5b6000806040838503121561585b578182fd5b505080516020909101519092909150565b600080600083850360a0811215615881578182fd5b84519350602085015192506060603f198201121561589d578182fd5b506040516060810181811067ffffffffffffffff821117156158bb57fe5b8060405250604085015181526060850151602082015260808501516040820152809150509250925092565b6000806000838503610180808212156158fd578283fd5b60c082121561590a578283fd5b60405191506080820182811067ffffffffffffffff8211171561592957fe5b80604052508551825260208087015181840152604087015160408401526159538860608901615570565b60608401528295506159688860c08901615570565b94508761013f880112615979578384fd5b6159836060615e83565b925082610120880189848a011115615999578586fd5b8593505b60038410156159bc57805185529382019360019390930192820161599d565b50809450505050509250925092565b6000602082840312156159dc578081fd5b5051919050565b600080600080600060a086880312156159fa578283fd5b615a03866155dd565b9450602086015193506040860151925060608601519150615a26608087016155dd565b90509295509295909350565b6001600160a01b03169052565b8060005b6002811015611d92578151845260209384019390910190600101615a43565b8060005b6002811015611d9257815161ffff16845260209384019390910190600101615a66565b6000815180845260208085019450808401835b83811015615ab857815187529582019590820190600101615a9c565b509495945050505050565b8051825260208082015190830152604090810151910152565b8051825260208101516020830152604081015160408301526060810151151560608301525050565b61ffff169052565b6001600160a01b0391909116815260200190565b6001600160a01b0392831681529116602082015260400190565b6001600160a01b039788168152958716602087015293909516604085015261ffff919091166060840152608083015260a082019290925260c081019190915260e00190565b6001600160a01b039384168152919092166020820152604081019190915260600190565b6001600160a01b03929092168252602082015260400190565b600060408252615bcf6040830185615a89565b8281036020840152610e578185615a89565b90815260200190565b6020808252600b908201526a4554482042616c616e636560a81b604082015260600190565b60208082526011908201527009ac2e8eae4d2e8f2409ad2e6dac2e8c6d607b1b604082015260600190565b6020808252600b908201526a4d75737420536574746c6560a81b604082015260600190565b6020808252600c908201526b4d617820436170616369747960a01b604082015260600190565b6020808252600a90820152696d696e20626f72726f7760b01b604082015260600190565b6020808252600a90820152694d696e20426f72726f7760b01b604082015260600190565b61ffff9390931683526020830191909152604082015260600190565b60006103e08201905061ffff8716825285516020830152602086015160408301526040860151606083015260018060a01b036060870151166080830152608086015160a083015260a086015160c0830152615d4860e083018651615a32565b6020850151610100615d5c81850183615b04565b60408701519150610120615d7281860184615b04565b60608801519250610140838187015260808901519350610160848188015260a08a01519450610180858189015260c08b015195506101a086818a015260e08c015196506101c087818b0152868d01516101e08b0152858d01516102008b0152848d01519750615de56102208b0189615a62565b838d01519750615df96102608b0189615ac3565b828d01516102c08b0152818d01519750615e176102e08b0189615a3f565b808d01516103208b01525050505050505050615e37610340830185615adc565b826103c08301529695505050505050565b918252602082015260400190565b9283526020830191909152604082015260600190565b9182526001600160501b0316602082015260400190565b60405181810167ffffffffffffffff81118282101715615e9f57fe5b604052919050565b600067ffffffffffffffff821115615ebb57fe5b5060209081020190565b6001600160a01b0381168114615eda57600080fd5b5056fe4a39dc06d4c0dbc64b70af90fd698a233a518aa5d07e595d983b8c0526c8f7fbc3d58168c5ae7397731d063d5bbf3d657854427343f4c083240f7aacaa2d0f62a26469706673582212206b8f2c4cbed5b26b070fba8ff5ae589398baad8ca44d05590c61c2830a1fa24b64736f6c63430007060033","language":"Solidity","natspec":{"kind":"dev","methods":{"deleverageAccount(address,address,address,uint16,int256)":{"notice":"If an account is below the minimum collateral ratio, this method wil deleverage (liquidate) that account. `depositAmountPrimeCash` in the borrow currency will be transferred from the liquidator and used to offset the account's debt position. The liquidator will receive either vaultShares or cash depending.","params":{"account":"the address that will exit the vault","currencyIndex":"0 refers to primary borrow, 1 or 2 will refer to one of the secondary currencies (if any)","depositUnderlyingInternal":"amount of underlying to deposit, in 8 decimal underlying precision","liquidator":"the address that will receive profits from liquidation","vault":"the vault to enter"},"returns":{"depositAmountPrimeCash":"amount of prime cash deposited from liquidation","vaultSharesToLiquidator":"amount of vaultShares received from liquidation"}},"liquidateExcessVaultCash(address,address,address,uint256,uint256,uint256)":{"notice":"Handles an edge case where vaults that have secondary borrows and have cash in excess of debts in one currency but debts in another currency."},"liquidateVaultCashBalance(address,address,address,uint256,int256)":{"notice":"If an account has a cash balance, a liquidator can purchase the cash and provide fCash to the account to reduce it's debt balance."}},"version":1},"opcodes":"PUSH1 0x80 PUSH1 0x40 MSTORE PUSH1 0x4 CALLDATASIZE LT PUSH2 0x70 JUMPI PUSH1 0x0 CALLDATALOAD PUSH1 0xE0 SHR DUP1 PUSH4 0x8DA5CB5B GT PUSH2 0x4E JUMPI DUP1 PUSH4 0x8DA5CB5B EQ PUSH2 0xD5 JUMPI DUP1 PUSH4 0x9AB77186 EQ PUSH2 0xEA JUMPI DUP1 PUSH4 0xC4C96DAE EQ PUSH2 0x10A JUMPI DUP1 PUSH4 0xFCAF198B EQ PUSH2 0x12D JUMPI PUSH2 0x70 JUMP JUMPDEST DUP1 PUSH4 0x21BF8C66 EQ PUSH2 0x75 JUMPI DUP1 PUSH4 0x24A3D622 EQ PUSH2 0x9E JUMPI DUP1 PUSH4 0x82463367 EQ PUSH2 0xC0 JUMPI JUMPDEST PUSH1 0x0 DUP1 REVERT JUMPDEST PUSH2 0x88 PUSH2 0x83 CALLDATASIZE PUSH1 0x4 PUSH2 0x56B7 JUMP JUMPDEST PUSH2 0x14E JUMP JUMPDEST PUSH1 0x40 MLOAD PUSH2 0x95 SWAP2 SWAP1 PUSH2 0x5BE1 JUMP JUMPDEST PUSH1 0x40 MLOAD DUP1 SWAP2 SUB SWAP1 RETURN JUMPDEST CALLVALUE DUP1 ISZERO PUSH2 0xAA JUMPI PUSH1 0x0 DUP1 REVERT JUMPDEST POP PUSH2 0xB3 PUSH2 0x3F5 JUMP JUMPDEST PUSH1 0x40 MLOAD PUSH2 0x95 SWAP2 SWAP1 PUSH2 0x5B0C JUMP JUMPDEST CALLVALUE DUP1 ISZERO PUSH2 0xCC JUMPI PUSH1 0x0 DUP1 REVERT JUMPDEST POP PUSH2 0xB3 PUSH2 0x404 JUMP JUMPDEST CALLVALUE DUP1 ISZERO PUSH2 0xE1 JUMPI PUSH1 0x0 DUP1 REVERT JUMPDEST POP PUSH2 0xB3 PUSH2 0x413 JUMP JUMPDEST CALLVALUE DUP1 ISZERO PUSH2 0xF6 JUMPI PUSH1 0x0 DUP1 REVERT JUMPDEST POP PUSH2 0x88 PUSH2 0x105 CALLDATASIZE PUSH1 0x4 PUSH2 0x565D JUMP JUMPDEST PUSH2 0x42A JUMP JUMPDEST CALLVALUE DUP1 ISZERO PUSH2 0x116 JUMPI PUSH1 0x0 DUP1 REVERT JUMPDEST POP PUSH2 0x11F PUSH2 0x5B9 JUMP JUMPDEST PUSH1 0x40 MLOAD PUSH2 0x95 SWAP3 SWAP2 SWAP1 PUSH2 0x5B20 JUMP JUMPDEST PUSH2 0x140 PUSH2 0x13B CALLDATASIZE PUSH1 0x4 PUSH2 0x55F4 JUMP JUMPDEST PUSH2 0x5E7 JUMP JUMPDEST PUSH1 0x40 MLOAD PUSH2 0x95 SWAP3 SWAP2 SWAP1 PUSH2 0x5E48 JUMP JUMPDEST PUSH1 0x0 PUSH1 0x2 PUSH1 0xA SLOAD EQ ISZERO PUSH2 0x160 JUMPI PUSH1 0x0 DUP1 REVERT JUMPDEST PUSH1 0x2 PUSH1 0xA SSTORE PUSH1 0x0 DUP1 PUSH2 0x173 DUP10 DUP10 DUP10 PUSH2 0x7C4 JUMP JUMPDEST POP SWAP2 POP SWAP2 POP PUSH2 0x181 DUP3 PUSH2 0x90D JUMP JUMPDEST PUSH2 0x18A JUMPI PUSH1 0x0 DUP1 REVERT JUMPDEST PUSH1 0x0 PUSH2 0x195 DUP4 PUSH2 0x93C JUMP JUMPDEST PUSH1 0x40 MLOAD PUSH4 0xB14428B9 PUSH1 0xE0 SHL DUP2 MSTORE SWAP1 SWAP2 POP PUSH1 0x0 SWAP1 ADDRESS SWAP1 PUSH4 0xB14428B9 SWAP1 PUSH2 0x1C0 SWAP1 DUP15 SWAP1 DUP15 SWAP1 PUSH1 0x4 ADD PUSH2 0x5B20 JUMP JUMPDEST PUSH2 0x180 PUSH1 0x40 MLOAD DUP1 DUP4 SUB DUP2 DUP7 DUP1 EXTCODESIZE ISZERO DUP1 ISZERO PUSH2 0x1D9 JUMPI PUSH1 0x0 DUP1 REVERT JUMPDEST POP GAS STATICCALL ISZERO DUP1 ISZERO PUSH2 0x1ED JUMPI RETURNDATASIZE PUSH1 0x0 DUP1 RETURNDATACOPY RETURNDATASIZE PUSH1 0x0 REVERT JUMPDEST POP POP POP POP PUSH1 0x40 MLOAD RETURNDATASIZE PUSH1 0x1F NOT PUSH1 0x1F DUP3 ADD AND DUP3 ADD DUP1 PUSH1 0x40 MSTORE POP DUP2 ADD SWAP1 PUSH2 0x211 SWAP2 SWAP1 PUSH2 0x58E6 JUMP JUMPDEST POP POP SWAP1 POP DUP1 PUSH1 0x60 ADD MLOAD DUP9 PUSH1 0x3 DUP2 LT PUSH2 0x225 JUMPI INVALID JUMPDEST PUSH1 0x20 MUL ADD MLOAD PUSH1 0x0 SLT PUSH2 0x236 JUMPI PUSH1 0x0 DUP1 REVERT JUMPDEST PUSH1 0x0 DUP2 PUSH1 0x60 ADD MLOAD DUP9 PUSH1 0x3 DUP2 LT PUSH2 0x248 JUMPI INVALID JUMPDEST PUSH1 0x20 MUL ADD MLOAD SLT PUSH2 0x257 JUMPI PUSH1 0x0 DUP1 REVERT JUMPDEST PUSH1 0x0 PUSH2 0x265 DUP6 DUP5 DUP12 DUP12 PUSH2 0x99C JUMP JUMPDEST SWAP1 POP PUSH1 0x0 PUSH2 0x272 DUP9 PUSH2 0xAAA JUMP JUMPDEST SWAP1 POP PUSH2 0x2BB PUSH2 0x2B0 PUSH1 0x64 PUSH2 0x2AA DUP6 PUSH1 0x80 ADD MLOAD PUSH2 0x2AA DUP8 PUSH1 0xA0 ADD MLOAD PUSH2 0x2A4 DUP14 PUSH2 0x1C0 ADD MLOAD DUP10 PUSH2 0xAC4 SWAP1 SWAP2 SWAP1 PUSH4 0xFFFFFFFF AND JUMP JUMPDEST SWAP1 PUSH2 0xAC4 JUMP JUMPDEST SWAP1 PUSH2 0xB18 JUMP JUMPDEST PUSH1 0x40 DUP5 ADD MLOAD SWAP1 PUSH2 0xB49 JUMP JUMPDEST SWAP7 POP DUP7 DUP4 PUSH1 0x60 ADD MLOAD DUP12 PUSH1 0x3 DUP2 LT PUSH2 0x2CE JUMPI INVALID JUMPDEST PUSH1 0x20 MUL ADD MLOAD SLT ISZERO PUSH2 0x328 JUMPI DUP3 PUSH1 0x60 ADD MLOAD DUP11 PUSH1 0x3 DUP2 LT PUSH2 0x2E9 JUMPI INVALID JUMPDEST PUSH1 0x20 MUL ADD MLOAD SWAP7 POP PUSH2 0x325 DUP3 PUSH1 0xA0 ADD MLOAD PUSH2 0x2AA DUP9 PUSH2 0x1C0 ADD MLOAD PUSH2 0x2AA PUSH1 0x64 PUSH2 0x2A4 DUP9 PUSH1 0x80 ADD MLOAD PUSH2 0x2A4 DUP16 DUP12 PUSH1 0x40 ADD MLOAD PUSH2 0xB72 SWAP1 SWAP2 SWAP1 PUSH4 0xFFFFFFFF AND JUMP JUMPDEST SWAP1 POP JUMPDEST PUSH1 0x60 DUP3 ADD MLOAD PUSH1 0x0 SWAP1 PUSH2 0x33A SWAP1 DUP4 PUSH2 0xB49 JUMP JUMPDEST SWAP1 POP PUSH1 0x0 PUSH2 0x347 DUP10 PUSH2 0xB9E JUMP JUMPDEST SWAP1 POP PUSH2 0x357 DUP8 DUP10 DUP15 DUP5 PUSH1 0x0 PUSH2 0xBAC JUMP JUMPDEST PUSH2 0x365 DUP8 DUP10 DUP14 DUP6 PUSH1 0x0 PUSH2 0xBAC JUMP JUMPDEST PUSH2 0x375 DUP15 DUP15 DUP7 PUSH1 0x0 ADD MLOAD DUP13 PUSH2 0xD11 JUMP JUMPDEST PUSH2 0x38B DUP14 DUP6 PUSH1 0x0 ADD MLOAD DUP4 DUP8 PUSH1 0x40 ADD MLOAD PUSH1 0x0 PUSH2 0xDB7 JUMP JUMPDEST POP PUSH2 0x3A1 DUP16 DUP16 DUP7 PUSH1 0x0 ADD MLOAD DUP11 PUSH1 0x20 ADD MLOAD DUP6 PUSH2 0xE60 JUMP JUMPDEST PUSH2 0x3B7 DUP14 DUP6 PUSH1 0x20 ADD MLOAD DUP5 DUP8 PUSH1 0x60 ADD MLOAD PUSH1 0x0 PUSH2 0xEF7 JUMP JUMPDEST POP PUSH2 0x3C8 DUP14 DUP16 DUP7 PUSH1 0x20 ADD MLOAD DUP6 PUSH2 0xD11 JUMP JUMPDEST PUSH2 0x3DD DUP16 DUP16 DUP7 PUSH1 0x20 ADD MLOAD DUP11 PUSH1 0x20 ADD MLOAD DUP7 PUSH2 0xE60 JUMP JUMPDEST POP POP PUSH1 0x1 PUSH1 0xA SSTORE POP SWAP5 SWAP12 SWAP11 POP POP POP POP POP POP POP POP POP POP POP JUMP JUMPDEST PUSH1 0x2 SLOAD PUSH1 0x1 PUSH1 0x1 PUSH1 0xA0 SHL SUB AND DUP2 JUMP JUMPDEST PUSH1 0x1 SLOAD PUSH1 0x1 PUSH1 0x1 PUSH1 0xA0 SHL SUB AND DUP2 JUMP JUMPDEST PUSH1 0x0 SLOAD PUSH5 0x100000000 SWAP1 DIV PUSH1 0x1 PUSH1 0x1 PUSH1 0xA0 SHL SUB AND DUP2 JUMP JUMPDEST PUSH1 0x0 PUSH1 0x2 PUSH1 0xA SLOAD EQ ISZERO PUSH2 0x43C JUMPI PUSH1 0x0 DUP1 REVERT JUMPDEST PUSH1 0x2 PUSH1 0xA SSTORE PUSH1 0x0 DUP1 DUP1 PUSH2 0x450 DUP10 DUP10 DUP10 PUSH2 0x7C4 JUMP JUMPDEST SWAP3 POP SWAP3 POP SWAP3 POP PUSH1 0x0 PUSH2 0x460 PUSH2 0x5169 JUMP JUMPDEST PUSH1 0x0 DUP1 DUP10 PUSH2 0x483 JUMPI POP POP POP POP PUSH1 0x40 DUP4 ADD MLOAD PUSH2 0x160 DUP5 ADD MLOAD DUP4 MLOAD PUSH1 0x80 DUP6 ADD MLOAD PUSH2 0x4A2 JUMP JUMPDEST PUSH1 0x3 DUP11 LT ISZERO PUSH2 0x70 JUMPI PUSH2 0x497 DUP8 DUP12 DUP16 PUSH2 0xF6D JUMP JUMPDEST SWAP3 SWAP7 POP SWAP1 SWAP5 POP SWAP3 POP SWAP1 POP JUMPDEST PUSH1 0x20 DUP7 ADD MLOAD PUSH1 0x40 MLOAD PUSH4 0xF82F279D PUSH1 0xE0 SHL DUP2 MSTORE PUSH1 0x0 SWAP2 DUP3 SWAP2 ADDRESS SWAP2 PUSH4 0xF82F279D SWAP2 PUSH2 0x4D1 SWAP2 DUP11 SWAP2 DUP9 SWAP1 PUSH1 0x4 ADD PUSH2 0x5CCD JUMP JUMPDEST PUSH1 0x40 DUP1 MLOAD DUP1 DUP4 SUB DUP2 DUP7 DUP1 EXTCODESIZE ISZERO DUP1 ISZERO PUSH2 0x4E8 JUMPI PUSH1 0x0 DUP1 REVERT JUMPDEST POP GAS STATICCALL ISZERO DUP1 ISZERO PUSH2 0x4FC JUMPI RETURNDATASIZE PUSH1 0x0 DUP1 RETURNDATACOPY RETURNDATASIZE PUSH1 0x0 REVERT JUMPDEST POP POP POP POP PUSH1 0x40 MLOAD RETURNDATASIZE PUSH1 0x1F NOT PUSH1 0x1F DUP3 ADD AND DUP3 ADD DUP1 PUSH1 0x40 MSTORE POP DUP2 ADD SWAP1 PUSH2 0x520 SWAP2 SWAP1 PUSH2 0x5849 JUMP JUMPDEST SWAP1 SWAP3 POP SWAP1 POP PUSH2 0x539 PUSH2 0x532 DUP13 DUP4 PUSH2 0x1007 JUMP JUMPDEST DUP7 SWAP1 PUSH2 0xB49 JUMP JUMPDEST SWAP10 POP DUP3 DUP11 SGT ISZERO PUSH2 0x54A JUMPI DUP2 SWAP11 POP DUP3 SWAP10 POP JUMPDEST POP POP DUP9 PUSH1 0x0 SLT DUP1 ISZERO PUSH2 0x564 JUMPI POP PUSH2 0x560 DUP3 PUSH2 0xB9E JUMP JUMPDEST DUP10 SGT ISZERO JUMPDEST PUSH2 0x56D JUMPI PUSH1 0x0 DUP1 REVERT JUMPDEST PUSH2 0x57B DUP7 DUP13 DUP15 DUP8 DUP14 DUP14 PUSH2 0x1020 JUMP JUMPDEST PUSH2 0x58A DUP8 DUP7 DUP9 DUP14 DUP14 PUSH1 0x0 PUSH2 0x1193 JUMP JUMPDEST PUSH2 0x5A3 DUP8 DUP12 PUSH2 0x598 DUP12 PUSH2 0xB9E JUMP JUMPDEST DUP10 SWAP3 SWAP2 SWAP1 PUSH1 0x0 PUSH2 0xBAC JUMP JUMPDEST POP POP PUSH1 0x1 PUSH1 0xA SSTORE POP SWAP4 SWAP10 SWAP9 POP POP POP POP POP POP POP POP POP JUMP JUMPDEST PUSH20 0x0 PUSH20 0x0 SWAP1 SWAP2 JUMP JUMPDEST PUSH1 0x0 DUP1 PUSH1 0x2 PUSH1 0xA SLOAD EQ ISZERO PUSH2 0x5FA JUMPI PUSH1 0x0 DUP1 REVERT JUMPDEST PUSH1 0x2 PUSH1 0xA SSTORE PUSH1 0x3 PUSH2 0xFFFF DUP6 AND LT PUSH2 0x610 JUMPI PUSH1 0x0 DUP1 REVERT JUMPDEST PUSH1 0x0 DUP1 PUSH1 0x0 PUSH2 0x620 DUP11 DUP11 DUP11 PUSH2 0x7C4 JUMP JUMPDEST SWAP3 POP SWAP3 POP SWAP3 POP PUSH2 0x62E PUSH2 0x5169 JUMP JUMPDEST PUSH1 0x40 MLOAD PUSH4 0xC74DB1F PUSH1 0xE4 SHL DUP2 MSTORE ADDRESS SWAP1 PUSH4 0xC74DB1F0 SWAP1 PUSH2 0x659 SWAP1 DUP12 SWAP1 DUP8 SWAP1 DUP10 SWAP1 DUP9 SWAP1 DUP15 SWAP1 PUSH1 0x4 ADD PUSH2 0x5CE9 JUMP JUMPDEST PUSH1 0xA0 PUSH1 0x40 MLOAD DUP1 DUP4 SUB DUP2 PUSH1 0x0 DUP8 DUP1 EXTCODESIZE ISZERO DUP1 ISZERO PUSH2 0x673 JUMPI PUSH1 0x0 DUP1 REVERT JUMPDEST POP GAS CALL ISZERO DUP1 ISZERO PUSH2 0x687 JUMPI RETURNDATASIZE PUSH1 0x0 DUP1 RETURNDATACOPY RETURNDATASIZE PUSH1 0x0 REVERT JUMPDEST POP POP POP POP PUSH1 0x40 MLOAD RETURNDATASIZE PUSH1 0x1F NOT PUSH1 0x1F DUP3 ADD AND DUP3 ADD DUP1 PUSH1 0x40 MSTORE POP DUP2 ADD SWAP1 PUSH2 0x6AB SWAP2 SWAP1 PUSH2 0x586C JUMP JUMPDEST SWAP2 SWAP9 POP SWAP7 POP SWAP1 POP PUSH1 0x0 DUP8 SGT PUSH2 0x6BF JUMPI PUSH1 0x0 DUP1 REVERT JUMPDEST PUSH1 0x40 DUP5 ADD MLOAD PUSH1 0x1 PUSH2 0xFFFF DUP11 AND EQ ISZERO PUSH2 0x6DE JUMPI POP PUSH2 0x140 DUP5 ADD MLOAD MLOAD PUSH2 0x6F7 JUMP JUMPDEST DUP9 PUSH2 0xFFFF AND PUSH1 0x2 EQ ISZERO PUSH2 0x6F7 JUMPI POP PUSH2 0x140 DUP5 ADD MLOAD PUSH1 0x20 ADD MLOAD JUMPDEST PUSH1 0x0 PUSH2 0x706 DUP3 PUSH2 0xFFFF AND PUSH2 0x126C JUMP JUMPDEST SWAP1 POP PUSH2 0x71F DUP12 DUP4 PUSH2 0x717 DUP5 DUP14 PUSH2 0x127F JUMP JUMPDEST DUP7 PUSH1 0x0 PUSH2 0x12B7 JUMP JUMPDEST SWAP1 POP DUP1 SWAP8 POP POP PUSH2 0x74D DUP12 DUP15 DUP15 DUP6 DUP9 PUSH1 0x0 ADD MLOAD DUP16 PUSH2 0xFFFF AND PUSH1 0x0 EQ PUSH2 0x744 JUMPI PUSH1 0x0 PUSH2 0x746 JUMP JUMPDEST DUP13 JUMPDEST DUP15 DUP11 PUSH2 0x1379 JUMP JUMPDEST PUSH1 0x40 DUP6 ADD MLOAD PUSH2 0x75C SWAP1 DUP10 PUSH2 0x1497 JUMP JUMPDEST PUSH1 0x40 DUP7 ADD MSTORE PUSH1 0x20 DUP6 ADD MLOAD PUSH5 0xFFFFFFFFFF EQ ISZERO PUSH2 0x78A JUMPI PUSH2 0x785 DUP7 DUP6 DUP8 DUP14 PUSH2 0xFFFF AND DUP14 PUSH1 0x1 PUSH2 0x1193 JUMP JUMPDEST PUSH1 0x0 SWAP7 POP JUMPDEST PUSH2 0x79C DUP6 DUP8 PUSH2 0xFFFF DUP14 AND DUP11 PUSH1 0x1 PUSH2 0xBAC JUMP JUMPDEST PUSH2 0x7AC DUP12 DUP8 DUP11 DUP9 PUSH1 0x20 ADD MLOAD PUSH2 0x14AC JUMP JUMPDEST POP POP POP POP POP POP PUSH1 0x1 PUSH1 0xA DUP2 SWAP1 SSTORE POP SWAP6 POP SWAP6 SWAP4 POP POP POP POP JUMP JUMPDEST PUSH2 0x7CC PUSH2 0x518A JUMP JUMPDEST PUSH2 0x7D4 PUSH2 0x5223 JUMP JUMPDEST PUSH2 0x7DC PUSH2 0x5262 JUMP JUMPDEST PUSH2 0x7E5 DUP5 PUSH2 0x1515 JUMP JUMPDEST DUP5 PUSH1 0x1 PUSH1 0x1 PUSH1 0xA0 SHL SUB AND DUP5 PUSH1 0x1 PUSH1 0x1 PUSH1 0xA0 SHL SUB AND EQ ISZERO PUSH2 0x804 JUMPI PUSH1 0x0 DUP1 REVERT JUMPDEST PUSH1 0x1 PUSH1 0x1 PUSH1 0xA0 SHL SUB DUP7 AND CALLER EQ ISZERO PUSH2 0x81A JUMPI PUSH1 0x0 DUP1 REVERT JUMPDEST DUP4 PUSH1 0x1 PUSH1 0x1 PUSH1 0xA0 SHL SUB AND DUP7 PUSH1 0x1 PUSH1 0x1 PUSH1 0xA0 SHL SUB AND EQ ISZERO PUSH2 0x839 JUMPI PUSH1 0x0 DUP1 REVERT JUMPDEST PUSH2 0x842 DUP6 PUSH2 0x1594 JUMP JUMPDEST SWAP3 POP PUSH2 0x850 DUP4 PUSH2 0x100 PUSH2 0x15BF JUMP JUMPDEST ISZERO PUSH2 0x85A JUMPI PUSH1 0x0 DUP1 REVERT JUMPDEST PUSH2 0x865 DUP4 PUSH1 0x20 PUSH2 0x15BF JUMP JUMPDEST ISZERO PUSH2 0x884 JUMPI CALLER PUSH1 0x1 PUSH1 0x1 PUSH1 0xA0 SHL SUB DUP7 AND EQ PUSH2 0x87F JUMPI PUSH1 0x0 DUP1 REVERT JUMPDEST PUSH2 0x899 JUMP JUMPDEST CALLER PUSH1 0x1 PUSH1 0x1 PUSH1 0xA0 SHL SUB DUP6 AND EQ PUSH2 0x899 JUMPI PUSH1 0x0 DUP1 REVERT JUMPDEST PUSH2 0x8A3 DUP7 DUP5 PUSH2 0x15D4 JUMP JUMPDEST SWAP2 POP DUP2 PUSH1 0x20 ADD MLOAD TIMESTAMP LT PUSH2 0x8D1 JUMPI PUSH1 0x40 MLOAD PUSH3 0x461BCD PUSH1 0xE5 SHL DUP2 MSTORE PUSH1 0x4 ADD PUSH2 0x8C8 SWAP1 PUSH2 0x5C3A JUMP JUMPDEST PUSH1 0x40 MLOAD DUP1 SWAP2 SUB SWAP1 REVERT JUMPDEST PUSH1 0x20 DUP3 ADD MLOAD PUSH5 0xFFFFFFFFFF EQ ISZERO PUSH2 0x8F3 JUMPI PUSH2 0x8EC DUP3 DUP5 PUSH2 0x1683 JUMP JUMPDEST SWAP1 POP PUSH2 0x904 JUMP JUMPDEST PUSH2 0x901 DUP4 DUP4 PUSH1 0x20 ADD MLOAD PUSH2 0x16C8 JUMP JUMPDEST SWAP1 POP JUMPDEST SWAP4 POP SWAP4 POP SWAP4 SWAP1 POP JUMP JUMPDEST PUSH2 0x140 DUP2 ADD MLOAD MLOAD PUSH1 0x0 SWAP1 PUSH2 0xFFFF AND ISZERO ISZERO DUP1 PUSH2 0x934 JUMPI POP PUSH2 0x140 DUP3 ADD MLOAD PUSH1 0x20 ADD MLOAD PUSH2 0xFFFF AND ISZERO ISZERO JUMPDEST SWAP1 POP JUMPDEST SWAP2 SWAP1 POP JUMP JUMPDEST PUSH2 0x944 PUSH2 0x528C JUMP JUMPDEST PUSH2 0x140 DUP3 ADD MLOAD MLOAD PUSH2 0xFFFF AND ISZERO PUSH2 0x96E JUMPI PUSH2 0x140 DUP3 ADD MLOAD PUSH2 0x96B SWAP1 PUSH1 0x0 JUMPDEST PUSH1 0x20 MUL ADD MLOAD PUSH2 0x1753 JUMP JUMPDEST DUP2 MSTORE JUMPDEST PUSH2 0x140 DUP3 ADD MLOAD PUSH1 0x20 ADD MLOAD PUSH2 0xFFFF AND ISZERO PUSH2 0x937 JUMPI PUSH2 0x140 DUP3 ADD MLOAD PUSH2 0x992 SWAP1 PUSH1 0x1 PUSH2 0x961 JUMP JUMPDEST PUSH1 0x20 DUP3 ADD MSTORE SWAP2 SWAP1 POP JUMP JUMPDEST PUSH2 0x9A4 PUSH2 0x52B9 JUMP JUMPDEST DUP3 PUSH2 0x9C4 JUMPI PUSH1 0x40 DUP1 DUP7 ADD MLOAD PUSH2 0xFFFF AND DUP3 MSTORE PUSH2 0x160 DUP7 ADD MLOAD SWAP1 DUP3 ADD MSTORE PUSH2 0x9FE JUMP JUMPDEST DUP5 PUSH2 0x140 ADD MLOAD PUSH1 0x1 DUP5 SUB PUSH1 0x2 DUP2 LT PUSH2 0x9D8 JUMPI INVALID JUMPDEST PUSH1 0x20 MUL ADD MLOAD PUSH2 0xFFFF AND DUP2 MSTORE DUP4 PUSH1 0x0 NOT DUP5 ADD PUSH1 0x2 DUP2 LT PUSH2 0x9F3 JUMPI INVALID JUMPDEST PUSH1 0x20 MUL ADD MLOAD PUSH1 0x40 DUP3 ADD MSTORE JUMPDEST DUP2 PUSH2 0xA21 JUMPI PUSH1 0x40 DUP6 ADD MLOAD PUSH2 0xFFFF AND PUSH1 0x20 DUP3 ADD MSTORE PUSH2 0x160 DUP6 ADD MLOAD PUSH1 0x60 DUP3 ADD MSTORE PUSH2 0xA62 JUMP JUMPDEST DUP5 PUSH2 0x140 ADD MLOAD PUSH1 0x1 DUP4 SUB PUSH1 0x2 DUP2 LT PUSH2 0xA35 JUMPI INVALID JUMPDEST PUSH1 0x20 SWAP1 DUP2 MUL SWAP2 SWAP1 SWAP2 ADD MLOAD PUSH2 0xFFFF AND SWAP1 DUP3 ADD MSTORE DUP4 PUSH1 0x0 NOT DUP4 ADD PUSH1 0x2 DUP2 LT PUSH2 0xA57 JUMPI INVALID JUMPDEST PUSH1 0x20 MUL ADD MLOAD PUSH1 0x60 DUP3 ADD MSTORE JUMPDEST PUSH1 0x0 PUSH2 0xA75 DUP3 PUSH1 0x0 ADD MLOAD PUSH2 0xFFFF AND PUSH2 0x1765 JUMP JUMPDEST SWAP1 POP PUSH1 0x0 PUSH2 0xA8A DUP4 PUSH1 0x20 ADD MLOAD PUSH2 0xFFFF AND PUSH2 0x1765 JUMP JUMPDEST SWAP1 POP PUSH2 0xA96 DUP3 DUP3 PUSH2 0x18C8 JUMP JUMPDEST PUSH1 0x80 DUP5 ADD MSTORE POP MLOAD PUSH1 0xA0 DUP3 ADD MSTORE SWAP5 SWAP4 POP POP POP POP JUMP JUMPDEST PUSH1 0x0 PUSH1 0x1 PUSH1 0x1 PUSH1 0xFF SHL SUB DUP3 GT ISZERO PUSH2 0xAC0 JUMPI PUSH1 0x0 DUP1 REVERT JUMPDEST POP SWAP1 JUMP JUMPDEST DUP2 DUP2 MUL PUSH1 0x0 NOT DUP4 EQ ISZERO PUSH2 0xAF4 JUMPI DUP2 ISZERO DUP1 PUSH2 0xAE6 JUMPI POP DUP3 DUP3 DUP3 DUP2 PUSH2 0xAE3 JUMPI INVALID JUMPDEST SDIV EQ JUMPDEST PUSH2 0xAEF JUMPI PUSH1 0x0 DUP1 REVERT JUMPDEST PUSH2 0xB12 JUMP JUMPDEST DUP3 ISZERO DUP1 PUSH2 0xB09 JUMPI POP DUP2 DUP4 DUP3 DUP2 PUSH2 0xB06 JUMPI INVALID JUMPDEST SDIV EQ JUMPDEST PUSH2 0xB12 JUMPI PUSH1 0x0 DUP1 REVERT JUMPDEST SWAP3 SWAP2 POP POP JUMP JUMPDEST PUSH1 0x0 DUP2 PUSH1 0x0 NOT EQ DUP1 ISZERO PUSH2 0xB2E JUMPI POP PUSH1 0x1 PUSH1 0xFF SHL DUP4 EQ JUMPDEST ISZERO PUSH2 0xB38 JUMPI PUSH1 0x0 DUP1 REVERT JUMPDEST DUP2 DUP4 DUP2 PUSH2 0xB41 JUMPI INVALID JUMPDEST SDIV SWAP4 SWAP3 POP POP POP JUMP JUMPDEST DUP2 MLOAD PUSH1 0x0 SWAP1 PUSH2 0xB6B SWAP1 PUSH2 0x2AA DUP5 PUSH15 0xC097CE7BC90715B34B9F1000000000 PUSH2 0xAC4 JUMP JUMPDEST SWAP4 SWAP3 POP POP POP JUMP JUMPDEST PUSH1 0x0 PUSH2 0xB6B PUSH15 0xC097CE7BC90715B34B9F1000000000 PUSH2 0x2AA DUP6 PUSH1 0x0 ADD MLOAD DUP6 PUSH2 0xAC4 SWAP1 SWAP2 SWAP1 PUSH4 0xFFFFFFFF AND JUMP JUMPDEST PUSH1 0x0 PUSH2 0x934 PUSH1 0x0 NOT DUP4 PUSH2 0xAC4 JUMP JUMPDEST PUSH1 0x0 PUSH2 0xBB6 PUSH2 0x18ED JUMP JUMPDEST PUSH1 0x60 DUP8 ADD MLOAD PUSH1 0x1 PUSH1 0x1 PUSH1 0xA0 SHL SUB SWAP1 DUP2 AND PUSH1 0x0 SWAP1 DUP2 MSTORE PUSH1 0x20 DUP4 DUP2 MSTORE PUSH1 0x40 DUP1 DUP4 KECCAK256 DUP11 MLOAD SWAP1 SWAP5 AND DUP4 MSTORE SWAP3 SWAP1 MSTORE KECCAK256 SWAP1 SWAP2 POP DUP5 PUSH2 0xC39 JUMPI PUSH1 0x1 DUP2 ADD SLOAD PUSH2 0xC12 SWAP1 PUSH2 0xC0D SWAP1 PUSH2 0xC08 SWAP1 PUSH1 0x1 PUSH1 0x1 PUSH1 0x50 SHL SUB AND DUP8 PUSH2 0x18FA JUMP JUMPDEST PUSH2 0x1910 JUMP JUMPDEST PUSH2 0x191F JUMP JUMPDEST PUSH1 0x1 DUP3 ADD DUP1 SLOAD PUSH1 0x1 PUSH1 0x1 PUSH1 0x50 SHL SUB NOT AND PUSH1 0x1 PUSH1 0x1 PUSH1 0x50 SHL SUB SWAP3 SWAP1 SWAP3 AND SWAP2 SWAP1 SWAP2 OR SWAP1 SSTORE PUSH2 0xCEF JUMP JUMPDEST DUP5 PUSH1 0x1 EQ ISZERO PUSH2 0xC96 JUMPI PUSH1 0x1 DUP2 ADD SLOAD PUSH2 0xC69 SWAP1 PUSH2 0xC0D SWAP1 PUSH2 0xC08 SWAP1 PUSH1 0x1 PUSH1 0x50 SHL SWAP1 DIV PUSH1 0x1 PUSH1 0x1 PUSH1 0x50 SHL SUB AND DUP8 PUSH2 0x18FA JUMP JUMPDEST DUP2 PUSH1 0x1 ADD PUSH1 0xA PUSH2 0x100 EXP DUP2 SLOAD DUP2 PUSH1 0x1 PUSH1 0x1 PUSH1 0x50 SHL SUB MUL NOT AND SWAP1 DUP4 PUSH1 0x1 PUSH1 0x1 PUSH1 0x50 SHL SUB AND MUL OR SWAP1 SSTORE POP PUSH2 0xCEF JUMP JUMPDEST DUP5 PUSH1 0x2 EQ ISZERO PUSH2 0x70 JUMPI PUSH1 0x1 DUP2 ADD SLOAD PUSH2 0xCC6 SWAP1 PUSH2 0xC0D SWAP1 PUSH2 0xC08 SWAP1 PUSH1 0x1 PUSH1 0xA0 SHL SWAP1 DIV PUSH1 0x1 PUSH1 0x1 PUSH1 0x50 SHL SUB AND DUP8 PUSH2 0x18FA JUMP JUMPDEST DUP2 PUSH1 0x1 ADD PUSH1 0x14 PUSH2 0x100 EXP DUP2 SLOAD DUP2 PUSH1 0x1 PUSH1 0x1 PUSH1 0x50 SHL SUB MUL NOT AND SWAP1 DUP4 PUSH1 0x1 PUSH1 0x1 PUSH1 0x50 SHL SUB AND MUL OR SWAP1 SSTORE POP JUMPDEST PUSH1 0x0 DUP8 PUSH1 0x80 ADD DUP2 DUP2 MSTORE POP POP PUSH2 0xD08 DUP8 DUP8 DUP4 DUP7 PUSH1 0x0 PUSH2 0x1935 JUMP JUMPDEST POP POP POP POP POP POP POP JUMP JUMPDEST PUSH1 0x0 PUSH2 0xD1B PUSH2 0x1BA3 JUMP JUMPDEST PUSH2 0xFFFF DUP5 AND PUSH1 0x0 SWAP1 DUP2 MSTORE PUSH1 0x20 SWAP2 SWAP1 SWAP2 MSTORE PUSH1 0x40 DUP2 KECCAK256 SLOAD PUSH1 0x1 PUSH1 0x1 PUSH1 0xA0 SHL SUB AND SWAP2 POP DUP3 SLT ISZERO PUSH2 0xD46 JUMPI SWAP3 SWAP4 SWAP3 JUMPDEST DUP1 PUSH1 0x1 PUSH1 0x1 PUSH1 0xA0 SHL SUB AND PUSH4 0x23DE6651 DUP7 DUP7 PUSH2 0xD60 DUP7 PUSH2 0x1BB0 JUMP JUMPDEST PUSH1 0x40 MLOAD DUP5 PUSH4 0xFFFFFFFF AND PUSH1 0xE0 SHL DUP2 MSTORE PUSH1 0x4 ADD PUSH2 0xD7E SWAP4 SWAP3 SWAP2 SWAP1 PUSH2 0x5B7F JUMP JUMPDEST PUSH1 0x0 PUSH1 0x40 MLOAD DUP1 DUP4 SUB DUP2 PUSH1 0x0 DUP8 DUP1 EXTCODESIZE ISZERO DUP1 ISZERO PUSH2 0xD98 JUMPI PUSH1 0x0 DUP1 REVERT JUMPDEST POP GAS CALL ISZERO DUP1 ISZERO PUSH2 0xDAC JUMPI RETURNDATASIZE PUSH1 0x0 DUP1 RETURNDATACOPY RETURNDATASIZE PUSH1 0x0 REVERT JUMPDEST POP POP POP POP POP POP POP POP POP JUMP JUMPDEST PUSH1 0x0 DUP4 PUSH2 0xDC6 JUMPI POP PUSH1 0x0 PUSH2 0xE57 JUMP JUMPDEST PUSH1 0x0 DUP5 SLT PUSH2 0xDD3 JUMPI PUSH1 0x0 DUP1 REVERT JUMPDEST PUSH1 0x0 PUSH2 0xDE2 DUP7 PUSH2 0xFFFF AND PUSH2 0x126C JUMP JUMPDEST SWAP1 POP PUSH2 0xDF7 DUP2 PUSH2 0xDF2 DUP7 DUP9 PUSH2 0xB72 JUMP JUMPDEST PUSH2 0x127F JUMP JUMPDEST SWAP2 POP PUSH1 0x0 PUSH2 0xE04 DUP4 PUSH2 0xB9E JUMP JUMPDEST SWAP1 POP PUSH2 0xE11 DUP8 DUP4 DUP4 PUSH2 0x1BD1 JUMP JUMPDEST PUSH1 0x3 DUP3 PUSH1 0x60 ADD MLOAD PUSH1 0x5 DUP2 GT ISZERO PUSH2 0xE23 JUMPI INVALID JUMPDEST EQ ISZERO PUSH2 0xE39 JUMPI PUSH2 0xE34 DUP9 DUP3 DUP7 PUSH2 0x1CCA JUMP JUMPDEST PUSH2 0xE46 JUMP JUMPDEST DUP2 MLOAD PUSH2 0xE46 SWAP1 DUP10 DUP4 PUSH2 0x1D98 JUMP JUMPDEST PUSH2 0xE53 DUP9 DUP9 DUP6 DUP6 DUP10 PUSH2 0x1E0F JUMP JUMPDEST POP POP POP JUMPDEST SWAP6 SWAP5 POP POP POP POP POP JUMP JUMPDEST DUP1 PUSH2 0xE6A JUMPI PUSH2 0xEF0 JUMP JUMPDEST PUSH1 0x0 PUSH2 0xE79 DUP6 DUP6 DUP6 PUSH1 0xB PUSH2 0x1E56 JUMP JUMPDEST SWAP1 POP PUSH1 0x0 DUP1 PUSH1 0x0 DUP5 SLT ISZERO PUSH2 0xE92 JUMPI POP DUP7 SWAP1 POP PUSH1 0x0 PUSH2 0xE99 JUMP JUMPDEST POP PUSH1 0x0 SWAP1 POP DUP7 JUMPDEST PUSH1 0x0 PUSH2 0xEA4 DUP6 PUSH2 0x1BB0 JUMP JUMPDEST SWAP1 POP DUP2 PUSH1 0x1 PUSH1 0x1 PUSH1 0xA0 SHL SUB AND DUP4 PUSH1 0x1 PUSH1 0x1 PUSH1 0xA0 SHL SUB AND CALLER PUSH1 0x1 PUSH1 0x1 PUSH1 0xA0 SHL SUB AND PUSH1 0x0 DUP1 MLOAD PUSH1 0x20 PUSH2 0x5EFE DUP4 CODECOPY DUP2 MLOAD SWAP2 MSTORE DUP8 DUP6 PUSH1 0x40 MLOAD PUSH2 0xEE3 SWAP3 SWAP2 SWAP1 PUSH2 0x5E48 JUMP JUMPDEST PUSH1 0x40 MLOAD DUP1 SWAP2 SUB SWAP1 LOG4 POP POP POP POP JUMPDEST POP POP POP POP POP JUMP JUMPDEST PUSH1 0x0 DUP4 PUSH2 0xF06 JUMPI POP PUSH1 0x0 PUSH2 0xE57 JUMP JUMPDEST PUSH1 0x0 DUP5 SGT PUSH2 0xF13 JUMPI PUSH1 0x0 DUP1 REVERT JUMPDEST PUSH1 0x0 PUSH2 0xF22 DUP7 PUSH2 0xFFFF AND PUSH2 0x126C JUMP JUMPDEST SWAP1 POP PUSH1 0x0 PUSH2 0xF39 DUP3 PUSH2 0xF34 DUP8 DUP10 PUSH2 0xB72 JUMP JUMPDEST PUSH2 0x1E8C JUMP JUMPDEST SWAP1 POP PUSH1 0x0 PUSH2 0xF4A DUP10 DUP10 DUP5 DUP10 DUP10 PUSH2 0x12B7 JUMP JUMPDEST SWAP1 SWAP5 POP SWAP1 POP DUP7 DUP2 SUB PUSH1 0x0 DUP2 SLT ISZERO PUSH2 0xF60 JUMPI PUSH1 0x0 DUP1 REVERT JUMPDEST POP POP POP POP SWAP6 SWAP5 POP POP POP POP POP JUMP JUMPDEST PUSH1 0x0 PUSH2 0xF77 PUSH2 0x5169 JUMP JUMPDEST PUSH1 0x0 DUP1 PUSH1 0x0 PUSH2 0xF85 DUP9 PUSH2 0x93C JUMP JUMPDEST SWAP1 POP PUSH1 0x0 DUP1 PUSH2 0xF95 DUP11 DUP10 DUP6 PUSH2 0x1EC9 JUMP JUMPDEST SWAP3 POP SWAP3 POP POP PUSH1 0x0 DUP1 PUSH2 0xFAB DUP11 DUP14 PUSH1 0x0 ADD MLOAD PUSH2 0x1F5D JUMP JUMPDEST SWAP2 POP SWAP2 POP DUP12 PUSH2 0x140 ADD MLOAD PUSH1 0x1 DUP13 SUB PUSH1 0x2 DUP2 LT PUSH2 0xFC3 JUMPI INVALID JUMPDEST PUSH1 0x20 MUL ADD MLOAD SWAP9 POP DUP5 PUSH1 0x1 DUP13 SUB PUSH1 0x2 DUP2 LT PUSH2 0xFD9 JUMPI INVALID JUMPDEST PUSH1 0x20 MUL ADD MLOAD SWAP8 POP DUP11 PUSH1 0x1 EQ PUSH2 0xFEF JUMPI DUP3 DUP2 PUSH2 0xFF2 JUMP JUMPDEST DUP4 DUP3 JUMPDEST SWAP10 SWAP14 SWAP9 SWAP13 POP SWAP11 POP SWAP8 SWAP9 POP SWAP6 SWAP7 POP POP POP POP POP POP POP JUMP JUMPDEST PUSH1 0x0 PUSH2 0xB6B PUSH2 0x1016 DUP5 DUP5 PUSH2 0xAC4 JUMP JUMPDEST PUSH4 0x3B9ACA00 PUSH2 0xB18 JUMP JUMPDEST PUSH1 0x60 DUP7 ADD MLOAD PUSH1 0x20 DUP8 ADD MLOAD PUSH1 0x40 MLOAD PUSH4 0x51586B33 PUSH1 0xE0 SHL DUP2 MSTORE PUSH1 0x0 SWAP3 PUSH20 0x0 SWAP3 PUSH4 0x51586B33 SWAP3 PUSH2 0x106D SWAP3 DUP12 SWAP3 DUP12 SWAP3 DUP12 SWAP2 SWAP1 DUP12 SWAP1 DUP12 SWAP1 PUSH1 0x4 ADD PUSH2 0x5B3A JUMP JUMPDEST PUSH1 0x20 PUSH1 0x40 MLOAD DUP1 DUP4 SUB DUP2 DUP7 DUP1 EXTCODESIZE ISZERO DUP1 ISZERO PUSH2 0x1085 JUMPI PUSH1 0x0 DUP1 REVERT JUMPDEST POP GAS DELEGATECALL ISZERO DUP1 ISZERO PUSH2 0x1099 JUMPI RETURNDATASIZE PUSH1 0x0 DUP1 RETURNDATACOPY RETURNDATASIZE PUSH1 0x0 REVERT JUMPDEST POP POP POP POP PUSH1 0x40 MLOAD RETURNDATASIZE PUSH1 0x1F NOT PUSH1 0x1F DUP3 ADD AND DUP3 ADD DUP1 PUSH1 0x40 MSTORE POP DUP2 ADD SWAP1 PUSH2 0x10BD SWAP2 SWAP1 PUSH2 0x5829 JUMP JUMPDEST SWAP1 POP DUP1 ISZERO PUSH2 0x112D JUMPI PUSH1 0x40 MLOAD PUSH4 0x6CCC642F PUSH1 0xE0 SHL DUP2 MSTORE PUSH20 0x0 SWAP1 PUSH4 0x6CCC642F SWAP1 PUSH2 0x10FC SWAP1 DUP10 SWAP1 PUSH1 0x4 ADD PUSH2 0x5B0C JUMP JUMPDEST PUSH1 0x0 PUSH1 0x40 MLOAD DUP1 DUP4 SUB DUP2 DUP7 DUP1 EXTCODESIZE ISZERO DUP1 ISZERO PUSH2 0x1114 JUMPI PUSH1 0x0 DUP1 REVERT JUMPDEST POP GAS DELEGATECALL ISZERO DUP1 ISZERO PUSH2 0x1128 JUMPI RETURNDATASIZE PUSH1 0x0 DUP1 RETURNDATACOPY RETURNDATASIZE PUSH1 0x0 REVERT JUMPDEST POP POP POP POP JUMPDEST DUP6 PUSH1 0x1 PUSH1 0x1 PUSH1 0xA0 SHL SUB AND DUP8 PUSH1 0x60 ADD MLOAD PUSH1 0x1 PUSH1 0x1 PUSH1 0xA0 SHL SUB AND DUP7 PUSH1 0x1 PUSH1 0x1 PUSH1 0xA0 SHL SUB AND PUSH32 0x19B09F1F990520654BEA0360DD08A2678D6926FD849DD49BC385862DC91AF753 DUP8 DUP8 DUP8 PUSH1 0x40 MLOAD PUSH2 0x1182 SWAP4 SWAP3 SWAP2 SWAP1 PUSH2 0x5CCD JUMP JUMPDEST PUSH1 0x40 MLOAD DUP1 SWAP2 SUB SWAP1 LOG4 POP POP POP POP POP POP POP JUMP JUMPDEST DUP3 PUSH2 0x11B4 JUMPI PUSH2 0x11A5 DUP5 DUP7 DUP5 PUSH1 0x0 PUSH2 0x1FB3 JUMP JUMPDEST PUSH2 0x11AF DUP6 DUP8 PUSH2 0x201E JUMP JUMPDEST PUSH2 0x1264 JUMP JUMPDEST PUSH1 0x0 PUSH2 0x11BF DUP8 PUSH2 0x93C JUMP JUMPDEST SWAP1 POP PUSH1 0x0 DUP1 PUSH2 0x11FD DUP10 DUP9 PUSH1 0x60 ADD MLOAD DUP10 PUSH1 0x20 ADD MLOAD DUP10 PUSH1 0x1 EQ PUSH2 0x11E1 JUMPI PUSH1 0x0 PUSH2 0x11E3 JUMP JUMPDEST DUP9 JUMPDEST DUP11 PUSH1 0x2 EQ PUSH2 0x11F2 JUMPI PUSH1 0x0 PUSH2 0x11F4 JUMP JUMPDEST DUP10 JUMPDEST DUP9 PUSH1 0x0 DUP1 PUSH2 0x20C7 JUMP JUMPDEST SWAP2 POP SWAP2 POP DUP4 ISZERO PUSH2 0xDAC JUMPI PUSH1 0x0 DUP7 PUSH1 0x1 EQ PUSH2 0x1217 JUMPI DUP2 PUSH2 0x1219 JUMP JUMPDEST DUP3 JUMPDEST SWAP1 POP DUP1 ISZERO DUP1 PUSH2 0x1243 JUMPI POP DUP1 PUSH1 0x0 SUB DUP11 PUSH2 0x1A0 ADD MLOAD PUSH1 0x1 DUP10 SUB PUSH1 0x2 DUP2 LT PUSH2 0x123B JUMPI INVALID JUMPDEST PUSH1 0x20 MUL ADD MLOAD SGT ISZERO JUMPDEST PUSH2 0x125F JUMPI PUSH1 0x40 MLOAD PUSH3 0x461BCD PUSH1 0xE5 SHL DUP2 MSTORE PUSH1 0x4 ADD PUSH2 0x8C8 SWAP1 PUSH2 0x5CA9 JUMP JUMPDEST POP POP POP POP JUMPDEST POP POP POP POP POP POP JUMP JUMPDEST PUSH2 0x1274 PUSH2 0x52F9 JUMP JUMPDEST PUSH2 0x934 DUP3 PUSH1 0x1 PUSH2 0x22F9 JUMP JUMPDEST PUSH1 0x0 PUSH4 0x5F5E100 DUP4 PUSH1 0x40 ADD MLOAD EQ ISZERO PUSH2 0x1298 JUMPI POP DUP1 PUSH2 0xB12 JUMP JUMPDEST PUSH2 0xB6B PUSH4 0x5F5E100 PUSH2 0x2AA DUP6 PUSH1 0x40 ADD MLOAD DUP6 PUSH2 0xAC4 SWAP1 SWAP2 SWAP1 PUSH4 0xFFFFFFFF AND JUMP JUMPDEST PUSH1 0x0 DUP1 PUSH1 0x0 PUSH2 0x12C5 DUP7 PUSH2 0x1910 JUMP JUMPDEST SWAP1 POP DUP1 PUSH2 0x12D9 JUMPI PUSH1 0x0 DUP1 SWAP3 POP SWAP3 POP POP PUSH2 0x136F JUMP JUMPDEST PUSH1 0x0 PUSH2 0x12E8 DUP9 PUSH2 0xFFFF AND PUSH2 0x126C JUMP JUMPDEST SWAP1 POP PUSH1 0x3 DUP2 PUSH1 0x60 ADD MLOAD PUSH1 0x5 DUP2 GT ISZERO PUSH2 0x12FC JUMPI INVALID JUMPDEST EQ ISZERO PUSH2 0x1343 JUMPI CALLVALUE DUP3 LT ISZERO PUSH2 0x131C JUMPI PUSH2 0x1317 DUP10 DUP4 CALLVALUE SUB DUP8 PUSH2 0x1CCA JUMP JUMPDEST PUSH2 0x133B JUMP JUMPDEST CALLVALUE DUP3 EQ PUSH2 0x133B JUMPI PUSH1 0x40 MLOAD PUSH3 0x461BCD PUSH1 0xE5 SHL DUP2 MSTORE PUSH1 0x4 ADD PUSH2 0x8C8 SWAP1 PUSH2 0x5BEA JUMP JUMPDEST DUP7 SWAP4 POP PUSH2 0x135D JUMP JUMPDEST PUSH2 0x135A PUSH2 0x1355 DUP3 PUSH1 0x0 ADD MLOAD DUP12 DUP6 PUSH2 0x2393 JUMP JUMPDEST PUSH2 0xAAA JUMP JUMPDEST SWAP4 POP JUMPDEST PUSH2 0x136A DUP10 DUP10 DUP7 DUP5 DUP11 PUSH2 0x1E0F JUMP JUMPDEST SWAP3 POP POP POP JUMPDEST SWAP6 POP SWAP6 SWAP4 POP POP POP POP JUMP JUMPDEST PUSH2 0x1385 DUP9 DUP8 DUP8 DUP7 PUSH2 0xD11 JUMP JUMPDEST PUSH1 0x0 PUSH2 0x1394 DUP8 DUP8 DUP8 PUSH1 0x0 PUSH2 0x1E56 JUMP JUMPDEST SWAP1 POP PUSH5 0xFFFFFFFFFF DUP6 EQ ISZERO PUSH2 0x1414 JUMPI PUSH1 0x0 PUSH2 0x13BF PUSH2 0x13BA DUP5 PUSH2 0x13B5 DUP9 PUSH2 0xB9E JUMP JUMPDEST PUSH2 0x251B JUMP JUMPDEST PUSH2 0xB9E JUMP JUMPDEST SWAP1 POP DUP1 PUSH1 0x0 NOT EQ ISZERO PUSH2 0x13CF JUMPI POP PUSH1 0x0 JUMPDEST PUSH1 0x0 PUSH1 0x1 PUSH1 0x1 PUSH1 0xA0 SHL SUB DUP11 AND CALLER PUSH1 0x0 DUP1 MLOAD PUSH1 0x20 PUSH2 0x5EFE DUP4 CODECOPY DUP2 MLOAD SWAP2 MSTORE PUSH1 0xA DUP7 OR PUSH2 0x13F8 DUP7 PUSH2 0x1910 JUMP JUMPDEST PUSH1 0x40 MLOAD PUSH2 0x1406 SWAP3 SWAP2 SWAP1 PUSH2 0x5E48 JUMP JUMPDEST PUSH1 0x40 MLOAD DUP1 SWAP2 SUB SWAP1 LOG4 POP PUSH2 0x1454 JUMP JUMPDEST PUSH1 0x1 PUSH1 0x1 PUSH1 0xA0 SHL SUB DUP9 AND PUSH1 0x0 CALLER PUSH1 0x0 DUP1 MLOAD PUSH1 0x20 PUSH2 0x5EFE DUP4 CODECOPY DUP2 MLOAD SWAP2 MSTORE PUSH1 0xB DUP6 OR PUSH2 0x143D DUP10 PUSH2 0x1910 JUMP JUMPDEST PUSH1 0x40 MLOAD PUSH2 0x144B SWAP3 SWAP2 SWAP1 PUSH2 0x5E48 JUMP JUMPDEST PUSH1 0x40 MLOAD DUP1 SWAP2 SUB SWAP1 LOG4 JUMPDEST DUP9 PUSH1 0x1 PUSH1 0x1 PUSH1 0xA0 SHL SUB AND DUP9 PUSH1 0x1 PUSH1 0x1 PUSH1 0xA0 SHL SUB AND CALLER PUSH1 0x1 PUSH1 0x1 PUSH1 0xA0 SHL SUB AND PUSH1 0x0 DUP1 MLOAD PUSH1 0x20 PUSH2 0x5EFE DUP4 CODECOPY DUP2 MLOAD SWAP2 MSTORE PUSH1 0x9 PUSH1 0xFF AND DUP6 OR DUP8 PUSH1 0x40 MLOAD PUSH2 0xEE3 SWAP3 SWAP2 SWAP1 PUSH2 0x5E48 JUMP JUMPDEST PUSH1 0x0 DUP3 DUP3 GT ISZERO PUSH2 0x14A6 JUMPI PUSH1 0x0 DUP1 REVERT JUMPDEST POP SWAP1 SUB SWAP1 JUMP JUMPDEST PUSH1 0x0 PUSH2 0x14B8 DUP6 DUP6 PUSH2 0x15D4 JUMP JUMPDEST SWAP1 POP DUP1 PUSH1 0x20 ADD MLOAD PUSH1 0x0 EQ DUP1 PUSH2 0x14D0 JUMPI POP DUP2 DUP2 PUSH1 0x20 ADD MLOAD EQ JUMPDEST PUSH2 0x14EC JUMPI PUSH1 0x40 MLOAD PUSH3 0x461BCD PUSH1 0xE5 SHL DUP2 MSTORE PUSH1 0x4 ADD PUSH2 0x8C8 SWAP1 PUSH2 0x5C0F JUMP JUMPDEST PUSH1 0x20 DUP2 ADD DUP3 SWAP1 MSTORE PUSH1 0x40 DUP2 ADD MLOAD PUSH2 0x1502 SWAP1 DUP5 PUSH2 0x255A JUMP JUMPDEST PUSH1 0x40 DUP3 ADD MSTORE PUSH2 0xEF0 DUP2 DUP6 PUSH1 0x1 PUSH1 0x0 PUSH2 0x256C JUMP JUMPDEST PUSH1 0x1 PUSH1 0x1 PUSH1 0xA0 SHL SUB DUP2 AND PUSH2 0x1528 JUMPI PUSH1 0x0 DUP1 REVERT JUMPDEST PUSH1 0x1 PUSH1 0x1 PUSH1 0xA0 SHL SUB DUP2 AND PUSH2 0xFEE EQ ISZERO PUSH2 0x1540 JUMPI PUSH1 0x0 DUP1 REVERT JUMPDEST PUSH1 0x1 PUSH1 0x1 PUSH1 0xA0 SHL SUB DUP2 AND PUSH2 0x5E7 EQ ISZERO PUSH2 0x1558 JUMPI PUSH1 0x0 DUP1 REVERT JUMPDEST PUSH1 0x1 PUSH1 0x1 PUSH1 0xA0 SHL SUB DUP2 AND ADDRESS EQ ISZERO PUSH2 0x156E JUMPI PUSH1 0x0 DUP1 REVERT JUMPDEST PUSH1 0x0 PUSH2 0x1579 DUP3 PUSH2 0x25FC JUMP JUMPDEST POP POP POP POP PUSH2 0xFFFF AND SWAP1 POP DUP1 PUSH1 0x0 EQ PUSH2 0x1590 JUMPI PUSH1 0x0 DUP1 REVERT JUMPDEST POP POP JUMP JUMPDEST PUSH2 0x159C PUSH2 0x518A JUMP JUMPDEST PUSH2 0x15A5 DUP3 PUSH2 0x2668 JUMP JUMPDEST SWAP1 POP PUSH2 0x15B4 DUP2 PUSH1 0x40 ADD MLOAD PUSH2 0x1753 JUMP JUMPDEST PUSH2 0x160 DUP3 ADD MSTORE SWAP2 SWAP1 POP JUMP JUMPDEST PUSH1 0x20 SWAP2 SWAP1 SWAP2 ADD MLOAD DUP2 AND PUSH2 0xFFFF SWAP1 DUP2 AND SWAP2 AND EQ SWAP1 JUMP JUMPDEST PUSH2 0x15DC PUSH2 0x5223 JUMP JUMPDEST PUSH1 0x0 PUSH2 0x15E6 PUSH2 0x18ED JUMP JUMPDEST PUSH1 0x1 PUSH1 0x1 PUSH1 0xA0 SHL SUB DUP1 DUP7 AND PUSH1 0x0 DUP2 DUP2 MSTORE PUSH1 0x20 DUP5 DUP2 MSTORE PUSH1 0x40 DUP1 DUP4 KECCAK256 DUP10 MLOAD SWAP1 SWAP6 AND DUP4 MSTORE SWAP4 DUP2 MSTORE SWAP1 DUP4 SWAP1 KECCAK256 DUP1 SLOAD PUSH5 0xFFFFFFFFFF PUSH1 0x1 PUSH1 0xA0 SHL DUP3 DIV AND SWAP3 DUP9 ADD DUP4 SWAP1 MSTORE PUSH1 0x1 PUSH1 0x1 PUSH1 0x50 SHL SUB PUSH1 0x1 PUSH1 0x50 SHL DUP3 DIV DUP2 AND SWAP6 DUP10 ADD SWAP6 SWAP1 SWAP6 MSTORE PUSH1 0x60 DUP9 ADD SWAP4 SWAP1 SWAP4 MSTORE PUSH1 0x1 DUP2 ADD SLOAD DUP5 AND PUSH1 0x80 DUP9 ADD MSTORE PUSH4 0xFFFFFFFF PUSH1 0x1 PUSH1 0xC8 SHL DUP5 DIV AND PUSH1 0xA0 DUP9 ADD MSTORE PUSH2 0x160 DUP9 ADD MLOAD SWAP5 SWAP6 POP SWAP4 PUSH2 0x1678 SWAP4 SWAP1 SWAP3 AND PUSH2 0x2856 JUMP JUMPDEST DUP4 MSTORE POP SWAP1 SWAP4 SWAP3 POP POP POP JUMP JUMPDEST PUSH2 0x168B PUSH2 0x5262 JUMP JUMPDEST PUSH2 0x16BD DUP4 PUSH2 0x16AE PUSH2 0x13BA DUP7 PUSH1 0x0 ADD MLOAD DUP7 PUSH2 0x160 ADD MLOAD PUSH2 0xB49 SWAP1 SWAP2 SWAP1 PUSH4 0xFFFFFFFF AND JUMP JUMPDEST PUSH1 0x20 DUP7 ADD MLOAD DUP6 SWAP3 SWAP2 SWAP1 TIMESTAMP PUSH2 0x2894 JUMP JUMPDEST POP PUSH2 0xB6B DUP4 DUP4 PUSH2 0x295D JUMP JUMPDEST PUSH2 0x16D0 PUSH2 0x5262 JUMP JUMPDEST PUSH1 0x0 PUSH2 0x16DA PUSH2 0x29D5 JUMP JUMPDEST DUP5 MLOAD PUSH1 0x1 PUSH1 0x1 PUSH1 0xA0 SHL SUB AND PUSH1 0x0 SWAP1 DUP2 MSTORE PUSH1 0x20 DUP3 DUP2 MSTORE PUSH1 0x40 DUP1 DUP4 KECCAK256 DUP8 DUP5 MSTORE SWAP1 SWAP2 MSTORE SWAP1 DUP2 SWAP1 KECCAK256 DUP6 DUP6 MSTORE DUP1 SLOAD PUSH1 0xFF PUSH1 0x1 PUSH1 0xF0 SHL DUP3 DIV AND ISZERO ISZERO PUSH1 0x60 DUP8 ADD MSTORE PUSH1 0x1 PUSH1 0x1 PUSH1 0x50 SHL SUB PUSH1 0x1 PUSH1 0xA0 SHL DUP3 DIV DUP2 AND SWAP4 DUP8 ADD SWAP4 SWAP1 SWAP4 MSTORE PUSH2 0x160 DUP9 ADD MLOAD SWAP4 SWAP5 POP SWAP1 SWAP3 PUSH2 0x1745 SWAP3 SWAP1 SWAP2 DUP8 SWAP2 AND PUSH2 0x2856 JUMP JUMPDEST PUSH1 0x20 DUP5 ADD MSTORE POP SWAP1 SWAP4 SWAP3 POP POP POP JUMP JUMPDEST PUSH2 0x175B PUSH2 0x5169 JUMP JUMPDEST PUSH2 0x934 DUP3 TIMESTAMP PUSH2 0x29E2 JUMP JUMPDEST PUSH2 0x176D PUSH2 0x5320 JUMP JUMPDEST PUSH1 0x0 PUSH2 0x1777 PUSH2 0x2AA3 JUMP JUMPDEST PUSH1 0x0 DUP5 DUP2 MSTORE PUSH1 0x20 DUP3 SWAP1 MSTORE PUSH1 0x40 DUP2 KECCAK256 SWAP2 SWAP3 POP DUP1 PUSH1 0x1 DUP7 EQ ISZERO PUSH2 0x17A4 JUMPI POP PUSH8 0xDE0B6B3A7640000 SWAP1 POP DUP1 PUSH2 0x1867 JUMP JUMPDEST DUP3 SLOAD PUSH1 0x40 DUP1 MLOAD PUSH4 0x3FABE5A3 PUSH1 0xE2 SHL DUP2 MSTORE SWAP1 MLOAD PUSH1 0x1 PUSH1 0x1 PUSH1 0xA0 SHL SUB SWAP1 SWAP3 AND SWAP2 PUSH4 0xFEAF968C SWAP2 PUSH1 0x4 DUP1 DUP3 ADD SWAP3 PUSH1 0xA0 SWAP3 SWAP1 SWAP2 SWAP1 DUP3 SWAP1 SUB ADD DUP2 DUP7 DUP1 EXTCODESIZE ISZERO DUP1 ISZERO PUSH2 0x17E8 JUMPI PUSH1 0x0 DUP1 REVERT JUMPDEST POP GAS STATICCALL ISZERO DUP1 ISZERO PUSH2 0x17FC JUMPI RETURNDATASIZE PUSH1 0x0 DUP1 RETURNDATACOPY RETURNDATASIZE PUSH1 0x0 REVERT JUMPDEST POP POP POP POP PUSH1 0x40 MLOAD RETURNDATASIZE PUSH1 0x1F NOT PUSH1 0x1F DUP3 ADD AND DUP3 ADD DUP1 PUSH1 0x40 MSTORE POP DUP2 ADD SWAP1 PUSH2 0x1820 SWAP2 SWAP1 PUSH2 0x59E3 JUMP JUMPDEST POP SWAP2 SWAP4 POP POP PUSH1 0x0 DUP4 SGT SWAP2 POP PUSH2 0x1836 SWAP1 POP JUMPI PUSH1 0x0 DUP1 REVERT JUMPDEST DUP3 SLOAD PUSH1 0xFF PUSH1 0x1 PUSH1 0xA0 SHL DUP3 DIV DUP2 AND PUSH1 0xA EXP SWAP4 POP PUSH1 0x1 PUSH1 0xA8 SHL SWAP1 SWAP2 DIV AND ISZERO PUSH2 0x1867 JUMPI PUSH2 0x1864 DUP2 PUSH2 0x2AA DUP5 DUP1 PUSH2 0xAC4 JUMP JUMPDEST SWAP1 POP JUMPDEST DUP3 SLOAD PUSH1 0x1 PUSH1 0xB0 SHL SWAP1 DIV PUSH1 0xFF AND PUSH1 0x96 DUP2 SGT ISZERO PUSH2 0x1887 JUMPI PUSH1 0x95 NOT ADD PUSH1 0xA MUL PUSH1 0x96 ADD JUMPDEST PUSH1 0x40 DUP1 MLOAD PUSH1 0xA0 DUP2 ADD DUP3 MSTORE SWAP4 DUP5 MSTORE PUSH1 0x20 DUP5 ADD SWAP3 SWAP1 SWAP3 MSTORE SWAP1 DUP3 ADD MSTORE SWAP1 SLOAD PUSH1 0xFF PUSH1 0x1 PUSH1 0xB8 SHL DUP3 DIV DUP2 AND PUSH1 0x60 DUP5 ADD MSTORE PUSH1 0x1 PUSH1 0xC0 SHL SWAP1 SWAP2 DIV AND PUSH1 0x80 DUP3 ADD MSTORE SWAP2 POP POP SWAP2 SWAP1 POP JUMP JUMPDEST PUSH1 0x0 PUSH2 0xB6B DUP3 PUSH1 0x20 ADD MLOAD PUSH2 0x2AA DUP5 PUSH1 0x0 ADD MLOAD DUP7 PUSH1 0x20 ADD MLOAD PUSH2 0xAC4 SWAP1 SWAP2 SWAP1 PUSH4 0xFFFFFFFF AND JUMP JUMPDEST PUSH1 0x0 DUP1 PUSH2 0xB12 PUSH1 0x16 PUSH2 0x2AAC JUMP JUMPDEST DUP2 DUP2 ADD DUP3 DUP2 SLT ISZERO PUSH1 0x0 DUP4 SLT ISZERO EQ PUSH2 0xB12 JUMPI PUSH1 0x0 DUP1 REVERT JUMPDEST PUSH1 0x0 DUP1 DUP3 SLT ISZERO PUSH2 0xAC0 JUMPI PUSH1 0x0 DUP1 REVERT JUMPDEST PUSH1 0x0 PUSH1 0x1 PUSH1 0x1 PUSH1 0x50 SHL SUB DUP3 GT ISZERO PUSH2 0xAC0 JUMPI PUSH1 0x0 DUP1 REVERT JUMPDEST PUSH1 0x80 DUP6 ADD MLOAD ISZERO PUSH2 0x1944 JUMPI PUSH1 0x0 DUP1 REVERT JUMPDEST PUSH1 0x60 DUP5 ADD MLOAD DUP6 MLOAD PUSH2 0x1954 SWAP1 PUSH2 0xB9E JUMP JUMPDEST SLT DUP1 ISZERO PUSH2 0x195E JUMPI POP DUP2 JUMPDEST ISZERO PUSH2 0x1992 JUMPI DUP5 MLOAD ISZERO DUP1 PUSH2 0x1976 JUMPI POP PUSH1 0x1 DUP6 PUSH1 0x40 ADD MLOAD GT ISZERO JUMPDEST PUSH2 0x1992 JUMPI PUSH1 0x40 MLOAD PUSH3 0x461BCD PUSH1 0xE5 SHL DUP2 MSTORE PUSH1 0x4 ADD PUSH2 0x8C8 SWAP1 PUSH2 0x5CA9 JUMP JUMPDEST PUSH2 0x199B DUP5 PUSH2 0x90D JUMP JUMPDEST ISZERO PUSH2 0x1A3A JUMPI PUSH1 0x0 PUSH2 0x19AA PUSH2 0x2AC5 JUMP JUMPDEST PUSH1 0x60 DUP8 ADD MLOAD PUSH1 0x1 PUSH1 0x1 PUSH1 0xA0 SHL SUB SWAP1 DUP2 AND PUSH1 0x0 SWAP1 DUP2 MSTORE PUSH1 0x20 SWAP3 DUP4 MSTORE PUSH1 0x40 DUP1 DUP3 KECCAK256 DUP10 MLOAD SWAP1 SWAP4 AND DUP3 MSTORE SWAP2 DUP4 MSTORE KECCAK256 DUP1 SLOAD SWAP2 DUP9 ADD MLOAD SWAP1 SWAP3 POP PUSH5 0xFFFFFFFFFF SWAP1 SWAP2 AND SWAP1 DUP2 EQ DUP1 PUSH2 0x19F2 JUMPI POP DUP1 ISZERO JUMPDEST PUSH2 0x19FB JUMPI PUSH1 0x0 DUP1 REVERT JUMPDEST DUP1 PUSH2 0x1A37 JUMPI DUP2 SLOAD PUSH1 0x1 PUSH1 0x28 SHL SWAP1 DIV PUSH1 0x1 PUSH1 0x1 PUSH1 0x50 SHL SUB AND ISZERO DUP1 ISZERO PUSH2 0x1A2E JUMPI POP DUP2 SLOAD PUSH1 0x1 PUSH1 0x78 SHL SWAP1 DIV PUSH1 0x1 PUSH1 0x1 PUSH1 0x50 SHL SUB AND ISZERO JUMPDEST PUSH2 0x1A37 JUMPI PUSH1 0x0 DUP1 REVERT JUMPDEST POP POP JUMPDEST PUSH1 0x0 PUSH2 0x1A5A PUSH2 0xC08 PUSH2 0x13BA DUP8 PUSH2 0x160 ADD MLOAD DUP10 PUSH1 0x20 ADD MLOAD DUP11 PUSH1 0x0 ADD MLOAD PUSH2 0x2AD2 JUMP JUMPDEST SWAP1 POP DUP2 ISZERO PUSH2 0x1AE3 JUMPI PUSH1 0x40 DUP1 MLOAD PUSH1 0xE0 DUP2 ADD DUP3 MSTORE DUP6 SLOAD PUSH1 0x1 PUSH1 0x1 PUSH1 0x50 SHL SUB DUP1 DUP3 AND DUP4 MSTORE PUSH1 0x1 PUSH1 0x50 SHL DUP1 DUP4 DIV DUP3 AND PUSH1 0x20 DUP6 ADD MSTORE PUSH1 0x1 PUSH1 0xA0 SHL DUP1 DUP5 DIV PUSH5 0xFFFFFFFFFF AND SWAP6 DUP6 ADD SWAP6 SWAP1 SWAP6 MSTORE PUSH1 0x1 PUSH1 0xC8 SHL SWAP1 SWAP3 DIV PUSH4 0xFFFFFFFF AND PUSH1 0x60 DUP5 ADD MSTORE PUSH1 0x1 DUP9 ADD SLOAD DUP1 DUP3 AND PUSH1 0x80 DUP6 ADD MSTORE SWAP2 DUP3 DIV DUP2 AND PUSH1 0xA0 DUP5 ADD MSTORE SWAP3 SWAP1 DIV SWAP1 SWAP2 AND PUSH1 0xC0 DUP3 ADD MSTORE PUSH2 0x1AE3 SWAP1 DUP8 SWAP1 DUP8 SWAP1 DUP5 PUSH2 0x2AF0 JUMP JUMPDEST PUSH2 0x1AF0 DUP7 PUSH1 0x40 ADD MLOAD PUSH2 0x191F JUMP JUMPDEST DUP5 SLOAD PUSH1 0x1 PUSH1 0x1 PUSH1 0x50 SHL SUB SWAP2 SWAP1 SWAP2 AND PUSH1 0x1 PUSH1 0x50 SHL MUL PUSH10 0xFFFFFFFFFFFFFFFFFFFF PUSH1 0x50 SHL NOT SWAP1 SWAP2 AND OR DUP5 SSTORE PUSH1 0x20 DUP7 ADD MLOAD PUSH2 0x1B27 SWAP1 PUSH2 0x2FC2 JUMP JUMPDEST DUP5 SLOAD PUSH5 0xFFFFFFFFFF SWAP2 SWAP1 SWAP2 AND PUSH1 0x1 PUSH1 0xA0 SHL MUL PUSH5 0xFFFFFFFFFF PUSH1 0xA0 SHL NOT SWAP1 SWAP2 AND OR DUP5 SSTORE PUSH1 0xA0 DUP7 ADD MLOAD PUSH2 0x1B57 SWAP1 PUSH2 0x2FD6 JUMP JUMPDEST DUP5 SLOAD PUSH4 0xFFFFFFFF SWAP2 SWAP1 SWAP2 AND PUSH1 0x1 PUSH1 0xC8 SHL MUL PUSH4 0xFFFFFFFF PUSH1 0xC8 SHL NOT SWAP1 SWAP2 AND OR DUP5 SSTORE PUSH2 0x1B80 DUP2 PUSH2 0x191F JUMP JUMPDEST DUP5 SLOAD PUSH1 0x1 PUSH1 0x1 PUSH1 0x50 SHL SUB NOT AND PUSH1 0x1 PUSH1 0x1 PUSH1 0x50 SHL SUB SWAP2 SWAP1 SWAP2 AND OR SWAP1 SWAP4 SSTORE POP POP POP POP POP JUMP JUMPDEST PUSH1 0x0 DUP1 PUSH2 0xB12 PUSH1 0x21 PUSH2 0x2AAC JUMP JUMPDEST PUSH1 0x0 DUP1 DUP3 SLT ISZERO PUSH2 0x1BCA JUMPI PUSH2 0x1BC3 DUP3 PUSH2 0xB9E JUMP JUMPDEST SWAP1 POP PUSH2 0x937 JUMP JUMPDEST POP DUP1 PUSH2 0x937 JUMP JUMPDEST PUSH1 0x0 PUSH2 0x1BDB PUSH2 0x2FE9 JUMP JUMPDEST DUP4 MLOAD PUSH1 0x1 PUSH1 0x1 PUSH1 0xA0 SHL SUB AND PUSH1 0x0 SWAP1 DUP2 MSTORE PUSH1 0x20 DUP3 SWAP1 MSTORE PUSH1 0x40 SWAP1 KECCAK256 SLOAD SWAP1 SWAP2 POP DUP1 DUP4 GT PUSH2 0x1C06 JUMPI POP POP PUSH2 0x1CC5 JUMP JUMPDEST PUSH1 0x0 PUSH2 0x1C11 DUP7 PUSH2 0x2FF6 JUMP JUMPDEST SWAP1 POP PUSH1 0x0 DUP2 PUSH1 0x1 PUSH1 0x1 PUSH1 0xA0 SHL SUB AND PUSH4 0xB5E4DA23 DUP5 DUP8 SUB PUSH1 0x40 MLOAD DUP3 PUSH4 0xFFFFFFFF AND PUSH1 0xE0 SHL DUP2 MSTORE PUSH1 0x4 ADD PUSH2 0x1C43 SWAP2 SWAP1 PUSH2 0x5BE1 JUMP JUMPDEST PUSH1 0x0 PUSH1 0x40 MLOAD DUP1 DUP4 SUB DUP2 DUP7 DUP1 EXTCODESIZE ISZERO DUP1 ISZERO PUSH2 0x1C5B JUMPI PUSH1 0x0 DUP1 REVERT JUMPDEST POP GAS STATICCALL ISZERO DUP1 ISZERO PUSH2 0x1C6F JUMPI RETURNDATASIZE PUSH1 0x0 DUP1 RETURNDATACOPY RETURNDATASIZE PUSH1 0x0 REVERT JUMPDEST POP POP POP POP PUSH1 0x40 MLOAD RETURNDATASIZE PUSH1 0x0 DUP3 RETURNDATACOPY PUSH1 0x1F RETURNDATASIZE SWAP1 DUP2 ADD PUSH1 0x1F NOT AND DUP3 ADD PUSH1 0x40 MSTORE PUSH2 0x1C97 SWAP2 SWAP1 DUP2 ADD SWAP1 PUSH2 0x571B JUMP JUMPDEST SWAP1 POP PUSH1 0x0 PUSH2 0x1CA5 DUP8 DUP4 PUSH2 0x3026 JUMP JUMPDEST SWAP2 POP PUSH2 0x1CB3 SWAP1 POP DUP5 DUP3 PUSH2 0x255A JUMP JUMPDEST DUP7 GT ISZERO PUSH2 0x1CBF JUMPI PUSH1 0x0 DUP1 REVERT JUMPDEST POP POP POP POP POP JUMPDEST POP POP POP JUMP JUMPDEST DUP1 ISZERO PUSH2 0x1D5C JUMPI PUSH20 0x82AF49447D8A07E3BD95BD0D56F35241523FBAB1 PUSH1 0x1 PUSH1 0x1 PUSH1 0xA0 SHL SUB AND PUSH4 0xD0E30DB0 DUP4 PUSH1 0x40 MLOAD DUP3 PUSH4 0xFFFFFFFF AND PUSH1 0xE0 SHL DUP2 MSTORE PUSH1 0x4 ADD PUSH1 0x0 PUSH1 0x40 MLOAD DUP1 DUP4 SUB DUP2 DUP6 DUP9 DUP1 EXTCODESIZE ISZERO DUP1 ISZERO PUSH2 0x1D1F JUMPI PUSH1 0x0 DUP1 REVERT JUMPDEST POP GAS CALL ISZERO DUP1 ISZERO PUSH2 0x1D33 JUMPI RETURNDATASIZE PUSH1 0x0 DUP1 RETURNDATACOPY RETURNDATASIZE PUSH1 0x0 REVERT JUMPDEST POP POP POP POP POP PUSH2 0x1D57 PUSH20 0x82AF49447D8A07E3BD95BD0D56F35241523FBAB1 DUP5 DUP5 PUSH2 0x1D98 JUMP JUMPDEST PUSH2 0x1CC5 JUMP JUMPDEST PUSH1 0x40 MLOAD PUSH1 0x1 PUSH1 0x1 PUSH1 0xA0 SHL SUB DUP5 AND SWAP1 DUP4 ISZERO PUSH2 0x8FC MUL SWAP1 DUP5 SWAP1 PUSH1 0x0 DUP2 DUP2 DUP2 DUP6 DUP9 DUP9 CALL SWAP4 POP POP POP POP ISZERO DUP1 ISZERO PUSH2 0x1D92 JUMPI RETURNDATASIZE PUSH1 0x0 DUP1 RETURNDATACOPY RETURNDATASIZE PUSH1 0x0 REVERT JUMPDEST POP POP POP POP JUMP JUMPDEST DUP3 PUSH1 0x1 PUSH1 0x1 PUSH1 0xA0 SHL SUB AND PUSH4 0xA9059CBB DUP4 DUP4 PUSH1 0x40 MLOAD DUP4 PUSH4 0xFFFFFFFF AND PUSH1 0xE0 SHL DUP2 MSTORE PUSH1 0x4 ADD DUP1 DUP4 PUSH1 0x1 PUSH1 0x1 PUSH1 0xA0 SHL SUB AND DUP2 MSTORE PUSH1 0x20 ADD DUP3 DUP2 MSTORE PUSH1 0x20 ADD SWAP3 POP POP POP PUSH1 0x0 PUSH1 0x40 MLOAD DUP1 DUP4 SUB DUP2 PUSH1 0x0 DUP8 DUP1 EXTCODESIZE ISZERO DUP1 ISZERO PUSH2 0x1DEF JUMPI PUSH1 0x0 DUP1 REVERT JUMPDEST POP GAS CALL ISZERO DUP1 ISZERO PUSH2 0x1E03 JUMPI RETURNDATASIZE PUSH1 0x0 DUP1 RETURNDATACOPY RETURNDATASIZE PUSH1 0x0 REVERT JUMPDEST POP POP POP POP PUSH2 0x1CC5 PUSH2 0x323D JUMP JUMPDEST PUSH1 0x0 DUP1 PUSH2 0x1E1C DUP5 DUP7 PUSH2 0x32AA JUMP JUMPDEST SWAP1 POP PUSH2 0x1E28 DUP4 DUP3 PUSH2 0xB49 JUMP JUMPDEST SWAP2 POP PUSH2 0x1E35 DUP8 DUP8 DUP5 PUSH2 0x32DA JUMP JUMPDEST PUSH2 0x1E40 DUP7 DUP4 DUP4 PUSH2 0x335A JUMP JUMPDEST DUP4 MLOAD PUSH2 0x1E4C SWAP1 DUP7 PUSH2 0x345E JUMP JUMPDEST POP SWAP6 SWAP5 POP POP POP POP POP JUMP JUMPDEST PUSH9 0x10000000000000000 PUSH1 0x1 PUSH1 0xE0 SHL SUB PUSH1 0x40 DUP6 SWAP1 SHL AND PUSH8 0xFFFF000000000000 PUSH1 0x30 DUP6 SWAP1 SHL AND OR PUSH1 0x8 DUP4 SWAP1 SHL OR DUP2 OR SWAP5 SWAP4 POP POP POP POP JUMP JUMPDEST PUSH1 0x0 PUSH4 0x5F5E100 DUP4 PUSH1 0x40 ADD MLOAD SLT ISZERO PUSH2 0x1EBA JUMPI PUSH2 0x1EB3 PUSH1 0x1 PUSH2 0x1EAD DUP6 DUP6 PUSH2 0x127F JUMP JUMPDEST SWAP1 PUSH2 0x18FA JUMP JUMPDEST SWAP1 POP PUSH2 0xB12 JUMP JUMPDEST PUSH2 0xB6B DUP4 PUSH2 0xDF2 DUP5 PUSH1 0x1 PUSH2 0x18FA JUMP JUMPDEST PUSH1 0x0 DUP1 PUSH1 0x0 DUP1 PUSH2 0x1ED7 PUSH2 0x2AC5 JUMP JUMPDEST PUSH1 0x1 PUSH1 0x1 PUSH1 0xA0 SHL SUB DUP8 DUP2 AND PUSH1 0x0 SWAP1 DUP2 MSTORE PUSH1 0x20 SWAP3 DUP4 MSTORE PUSH1 0x40 DUP1 DUP3 KECCAK256 DUP12 MLOAD SWAP1 SWAP4 AND DUP3 MSTORE SWAP2 SWAP1 SWAP3 MSTORE SWAP1 KECCAK256 DUP1 SLOAD DUP7 MLOAD PUSH5 0xFFFFFFFFFF DUP3 AND SWAP7 POP SWAP2 SWAP3 POP PUSH2 0x1F2B SWAP2 SWAP1 DUP7 SWAP1 PUSH1 0x1 PUSH1 0x28 SHL SWAP1 DIV PUSH1 0x1 PUSH1 0x1 PUSH1 0x50 SHL SUB AND PUSH2 0x2856 JUMP JUMPDEST SWAP3 POP PUSH2 0x1F51 DUP6 PUSH1 0x1 PUSH1 0x20 MUL ADD MLOAD DUP3 SLOAD DUP7 SWAP1 PUSH1 0x1 PUSH1 0x78 SHL SWAP1 DIV PUSH1 0x1 PUSH1 0x1 PUSH1 0x50 SHL SUB AND PUSH2 0x2856 JUMP JUMPDEST SWAP2 POP POP SWAP4 POP SWAP4 POP SWAP4 SWAP1 POP JUMP JUMPDEST PUSH1 0x0 DUP1 PUSH1 0x0 PUSH2 0x1F6A PUSH2 0x18ED JUMP JUMPDEST PUSH1 0x1 PUSH1 0x1 PUSH1 0xA0 SHL SUB SWAP6 DUP7 AND PUSH1 0x0 SWAP1 DUP2 MSTORE PUSH1 0x20 SWAP2 DUP3 MSTORE PUSH1 0x40 DUP1 DUP3 KECCAK256 SWAP7 SWAP1 SWAP8 AND DUP2 MSTORE SWAP5 SWAP1 MSTORE POP POP POP KECCAK256 PUSH1 0x1 ADD SLOAD PUSH1 0x1 PUSH1 0x1 PUSH1 0x50 SHL SUB PUSH1 0x1 PUSH1 0x50 SHL DUP3 DIV DUP2 AND SWAP3 PUSH1 0x1 PUSH1 0xA0 SHL SWAP1 SWAP3 DIV AND SWAP1 JUMP JUMPDEST DUP3 MLOAD PUSH1 0x20 DUP6 ADD MLOAD EQ PUSH2 0x1FCB JUMPI DUP4 MLOAD ISZERO PUSH2 0x1FCB JUMPI PUSH1 0x0 DUP1 REVERT JUMPDEST PUSH1 0x80 DUP5 ADD MLOAD PUSH2 0x1FDA SWAP1 DUP3 PUSH2 0x18FA JUMP JUMPDEST PUSH1 0x80 DUP6 ADD MSTORE DUP4 MLOAD PUSH2 0x1FEB SWAP1 DUP4 PUSH2 0x18FA JUMP JUMPDEST DUP1 DUP6 MSTORE PUSH1 0x0 SLT ISZERO PUSH2 0x1FFB JUMPI PUSH1 0x0 DUP1 REVERT JUMPDEST PUSH1 0x20 DUP4 ADD MLOAD PUSH2 0x200A SWAP1 DUP4 PUSH2 0x18FA JUMP JUMPDEST PUSH1 0x20 DUP5 ADD DUP2 SWAP1 MSTORE PUSH1 0x0 SLT ISZERO PUSH2 0x1D92 JUMPI PUSH1 0x0 DUP1 REVERT JUMPDEST PUSH1 0x0 PUSH2 0x2028 PUSH2 0x29D5 JUMP JUMPDEST DUP3 MLOAD PUSH1 0x1 PUSH1 0x1 PUSH1 0xA0 SHL SUB AND PUSH1 0x0 SWAP1 DUP2 MSTORE PUSH1 0x20 DUP3 DUP2 MSTORE PUSH1 0x40 DUP1 DUP4 KECCAK256 DUP8 MLOAD DUP5 MSTORE SWAP1 SWAP2 MSTORE SWAP1 DUP2 SWAP1 KECCAK256 SWAP1 DUP6 ADD MLOAD SWAP2 SWAP3 POP SWAP1 PUSH2 0x205E SWAP1 PUSH2 0x191F JUMP JUMPDEST DUP2 SLOAD PUSH1 0x60 DUP7 ADD MLOAD DUP1 ISZERO ISZERO PUSH1 0x1 PUSH1 0xF0 SHL MUL PUSH1 0xFF PUSH1 0xF0 SHL NOT PUSH1 0x1 PUSH1 0x1 PUSH1 0x50 SHL SUB SWAP5 SWAP1 SWAP5 AND PUSH1 0x1 PUSH1 0xA0 SHL MUL PUSH10 0xFFFFFFFFFFFFFFFFFFFF PUSH1 0xA0 SHL NOT SWAP1 SWAP4 AND SWAP3 SWAP1 SWAP3 OR SWAP3 SWAP1 SWAP3 AND OR DUP3 SSTORE PUSH2 0x160 DUP5 ADD MLOAD PUSH1 0x40 DUP6 ADD MLOAD DUP7 MLOAD PUSH1 0x20 DUP9 ADD MLOAD PUSH2 0x1D92 SWAP5 DUP7 SWAP5 SWAP4 DUP10 SWAP4 SWAP1 SWAP3 SWAP1 SWAP2 PUSH2 0x34B3 JUMP JUMPDEST PUSH1 0x0 DUP1 PUSH1 0x0 PUSH2 0x20D4 PUSH2 0x2AC5 JUMP JUMPDEST PUSH1 0x1 PUSH1 0x1 PUSH1 0xA0 SHL SUB DUP1 DUP13 AND PUSH1 0x0 SWAP1 DUP2 MSTORE PUSH1 0x20 SWAP3 DUP4 MSTORE PUSH1 0x40 DUP1 DUP3 KECCAK256 DUP16 MLOAD SWAP1 SWAP4 AND DUP3 MSTORE SWAP2 SWAP1 SWAP3 MSTORE SWAP1 KECCAK256 DUP1 SLOAD SWAP1 SWAP2 POP PUSH5 0xFFFFFFFFFF AND DUP10 DUP2 EQ DUP1 PUSH2 0x2113 JUMPI POP DUP1 ISZERO JUMPDEST PUSH2 0x211C JUMPI PUSH1 0x0 DUP1 REVERT JUMPDEST DUP7 MLOAD DUP3 SLOAD PUSH2 0x213C SWAP2 SWAP1 DUP13 SWAP1 PUSH1 0x1 PUSH1 0x28 SHL SWAP1 DIV PUSH1 0x1 PUSH1 0x1 PUSH1 0x50 SHL SUB AND PUSH2 0x2856 JUMP JUMPDEST SWAP4 POP PUSH2 0x2162 DUP8 PUSH1 0x1 PUSH1 0x20 MUL ADD MLOAD DUP4 SLOAD DUP13 SWAP1 PUSH1 0x1 PUSH1 0x78 SHL SWAP1 DIV PUSH1 0x1 PUSH1 0x1 PUSH1 0x50 SHL SUB AND PUSH2 0x2856 JUMP JUMPDEST SWAP3 POP DUP9 ISZERO PUSH2 0x21EA JUMPI PUSH2 0x2174 DUP5 DUP11 PUSH2 0x18FA JUMP JUMPDEST SWAP4 POP PUSH2 0x21A3 DUP13 DUP13 DUP15 PUSH2 0x140 ADD MLOAD PUSH1 0x0 PUSH1 0x2 DUP2 LT PUSH2 0x218D JUMPI INVALID JUMPDEST PUSH1 0x20 MUL ADD MLOAD DUP14 DUP14 DUP13 PUSH1 0x0 JUMPDEST PUSH1 0x20 MUL ADD MLOAD DUP12 PUSH2 0x3592 JUMP JUMPDEST PUSH2 0x21BE PUSH2 0xC0D PUSH2 0xC08 PUSH2 0x13BA DUP11 PUSH1 0x0 PUSH1 0x20 MUL ADD MLOAD DUP15 DUP10 PUSH2 0x2AD2 JUMP JUMPDEST DUP3 SLOAD PUSH1 0x1 PUSH1 0x1 PUSH1 0x50 SHL SUB SWAP2 SWAP1 SWAP2 AND PUSH1 0x1 PUSH1 0x28 SHL MUL PUSH15 0xFFFFFFFFFFFFFFFFFFFF0000000000 NOT SWAP1 SWAP2 AND OR DUP3 SSTORE JUMPDEST DUP8 ISZERO PUSH2 0x2267 JUMPI PUSH2 0x21FA DUP4 DUP10 PUSH2 0x18FA JUMP JUMPDEST SWAP3 POP PUSH2 0x2222 DUP13 DUP13 DUP15 PUSH2 0x140 ADD MLOAD PUSH1 0x1 PUSH1 0x2 DUP2 LT PUSH2 0x2213 JUMPI INVALID JUMPDEST PUSH1 0x20 MUL ADD MLOAD DUP14 DUP13 DUP13 PUSH1 0x1 PUSH2 0x2198 JUMP JUMPDEST PUSH2 0x223D PUSH2 0xC0D PUSH2 0xC08 PUSH2 0x13BA DUP11 PUSH1 0x1 PUSH1 0x20 MUL ADD MLOAD DUP15 DUP9 PUSH2 0x2AD2 JUMP JUMPDEST DUP3 SLOAD PUSH1 0x1 PUSH1 0x1 PUSH1 0x50 SHL SUB SWAP2 SWAP1 SWAP2 AND PUSH1 0x1 PUSH1 0x78 SHL MUL PUSH10 0xFFFFFFFFFFFFFFFFFFFF PUSH1 0x78 SHL NOT SWAP1 SWAP2 AND OR DUP3 SSTORE JUMPDEST DUP6 ISZERO PUSH2 0x22D6 JUMPI DUP4 ISZERO DUP1 PUSH2 0x2284 JUMPI POP PUSH2 0x1A0 DUP13 ADD MLOAD MLOAD PUSH1 0x0 DUP6 SWAP1 SUB SLT ISZERO JUMPDEST PUSH2 0x22A0 JUMPI PUSH1 0x40 MLOAD PUSH3 0x461BCD PUSH1 0xE5 SHL DUP2 MSTORE PUSH1 0x4 ADD PUSH2 0x8C8 SWAP1 PUSH2 0x5C85 JUMP JUMPDEST DUP3 ISZERO DUP1 PUSH2 0x22BA JUMPI POP PUSH2 0x1A0 DUP13 ADD MLOAD PUSH1 0x20 ADD MLOAD PUSH1 0x0 DUP5 SWAP1 SUB SLT ISZERO JUMPDEST PUSH2 0x22D6 JUMPI PUSH1 0x40 MLOAD PUSH3 0x461BCD PUSH1 0xE5 SHL DUP2 MSTORE PUSH1 0x4 ADD PUSH2 0x8C8 SWAP1 PUSH2 0x5C85 JUMP JUMPDEST PUSH2 0x22EA DUP3 DUP6 DUP6 PUSH2 0x22E5 DUP15 PUSH2 0x2FC2 JUMP JUMPDEST PUSH2 0x3660 JUMP JUMPDEST POP POP SWAP9 POP SWAP9 SWAP7 POP POP POP POP POP POP POP JUMP JUMPDEST PUSH2 0x2301 PUSH2 0x52F9 JUMP JUMPDEST PUSH1 0x0 PUSH2 0x230B PUSH2 0x369E JUMP JUMPDEST PUSH1 0x0 DUP6 DUP2 MSTORE PUSH1 0x20 DUP3 DUP2 MSTORE PUSH1 0x40 DUP1 DUP4 KECCAK256 DUP8 ISZERO ISZERO DUP5 MSTORE DUP3 MSTORE SWAP2 DUP3 SWAP1 KECCAK256 DUP3 MLOAD PUSH1 0xA0 DUP2 ADD DUP5 MSTORE DUP2 SLOAD PUSH1 0x1 PUSH1 0x1 PUSH1 0xA0 SHL SUB DUP2 AND DUP3 MSTORE PUSH1 0xFF PUSH1 0x1 PUSH1 0xA0 SHL DUP3 DIV DUP2 AND ISZERO ISZERO SWAP5 DUP4 ADD SWAP5 SWAP1 SWAP5 MSTORE PUSH1 0x1 PUSH1 0xB0 SHL DUP2 DIV DUP5 AND PUSH1 0xA EXP SWAP5 DUP3 ADD SWAP5 SWAP1 SWAP5 MSTORE SWAP4 SWAP5 POP SWAP3 SWAP2 PUSH1 0x60 DUP4 ADD SWAP2 PUSH1 0x1 PUSH1 0xA8 SHL SWAP1 SWAP2 DIV AND PUSH1 0x5 DUP2 GT ISZERO PUSH2 0x2380 JUMPI INVALID JUMPDEST DUP2 MSTORE PUSH1 0x0 PUSH1 0x20 SWAP1 SWAP2 ADD MSTORE SWAP6 SWAP5 POP POP POP POP POP JUMP JUMPDEST PUSH1 0x0 DUP1 DUP5 PUSH1 0x1 PUSH1 0x1 PUSH1 0xA0 SHL SUB AND PUSH4 0x70A08231 ADDRESS PUSH1 0x40 MLOAD DUP3 PUSH4 0xFFFFFFFF AND PUSH1 0xE0 SHL DUP2 MSTORE PUSH1 0x4 ADD DUP1 DUP3 PUSH1 0x1 PUSH1 0x1 PUSH1 0xA0 SHL SUB AND DUP2 MSTORE PUSH1 0x20 ADD SWAP2 POP POP PUSH1 0x20 PUSH1 0x40 MLOAD DUP1 DUP4 SUB DUP2 DUP7 DUP1 EXTCODESIZE ISZERO DUP1 ISZERO PUSH2 0x23E3 JUMPI PUSH1 0x0 DUP1 REVERT JUMPDEST POP GAS STATICCALL ISZERO DUP1 ISZERO PUSH2 0x23F7 JUMPI RETURNDATASIZE PUSH1 0x0 DUP1 RETURNDATACOPY RETURNDATASIZE PUSH1 0x0 REVERT JUMPDEST POP POP POP POP PUSH1 0x40 MLOAD RETURNDATASIZE PUSH1 0x20 DUP2 LT ISZERO PUSH2 0x240D JUMPI PUSH1 0x0 DUP1 REVERT JUMPDEST POP MLOAD PUSH1 0x40 DUP1 MLOAD PUSH4 0x23B872DD PUSH1 0xE0 SHL DUP2 MSTORE PUSH1 0x1 PUSH1 0x1 PUSH1 0xA0 SHL SUB DUP8 DUP2 AND PUSH1 0x4 DUP4 ADD MSTORE ADDRESS PUSH1 0x24 DUP4 ADD MSTORE PUSH1 0x44 DUP3 ADD DUP8 SWAP1 MSTORE SWAP2 MLOAD SWAP3 SWAP4 POP SWAP1 DUP8 AND SWAP2 PUSH4 0x23B872DD SWAP2 PUSH1 0x64 DUP1 DUP3 ADD SWAP3 PUSH1 0x0 SWAP3 SWAP1 SWAP2 SWAP1 DUP3 SWAP1 SUB ADD DUP2 DUP4 DUP8 DUP1 EXTCODESIZE ISZERO DUP1 ISZERO PUSH2 0x246A JUMPI PUSH1 0x0 DUP1 REVERT JUMPDEST POP GAS CALL ISZERO DUP1 ISZERO PUSH2 0x247E JUMPI RETURNDATASIZE PUSH1 0x0 DUP1 RETURNDATACOPY RETURNDATASIZE PUSH1 0x0 REVERT JUMPDEST POP POP POP POP PUSH2 0x248A PUSH2 0x323D JUMP JUMPDEST PUSH1 0x0 DUP6 PUSH1 0x1 PUSH1 0x1 PUSH1 0xA0 SHL SUB AND PUSH4 0x70A08231 ADDRESS PUSH1 0x40 MLOAD DUP3 PUSH4 0xFFFFFFFF AND PUSH1 0xE0 SHL DUP2 MSTORE PUSH1 0x4 ADD DUP1 DUP3 PUSH1 0x1 PUSH1 0x1 PUSH1 0xA0 SHL SUB AND DUP2 MSTORE PUSH1 0x20 ADD SWAP2 POP POP PUSH1 0x20 PUSH1 0x40 MLOAD DUP1 DUP4 SUB DUP2 DUP7 DUP1 EXTCODESIZE ISZERO DUP1 ISZERO PUSH2 0x24D9 JUMPI PUSH1 0x0 DUP1 REVERT JUMPDEST POP GAS STATICCALL ISZERO DUP1 ISZERO PUSH2 0x24ED JUMPI RETURNDATASIZE PUSH1 0x0 DUP1 RETURNDATACOPY RETURNDATASIZE PUSH1 0x0 REVERT JUMPDEST POP POP POP POP PUSH1 0x40 MLOAD RETURNDATASIZE PUSH1 0x20 DUP2 LT ISZERO PUSH2 0x2503 JUMPI PUSH1 0x0 DUP1 REVERT JUMPDEST POP MLOAD SWAP1 POP PUSH2 0x2511 DUP2 DUP4 PUSH2 0x1497 JUMP JUMPDEST SWAP7 SWAP6 POP POP POP POP POP POP JUMP JUMPDEST PUSH1 0x0 DUP1 DUP3 SLT ISZERO PUSH2 0x2554 JUMPI PUSH2 0x254F PUSH1 0x1 PUSH2 0x2549 DUP6 PUSH1 0x20 ADD MLOAD PUSH2 0x2AA DUP8 PUSH1 0x0 ADD MLOAD DUP8 PUSH2 0xAC4 SWAP1 SWAP2 SWAP1 PUSH4 0xFFFFFFFF AND JUMP JUMPDEST SWAP1 PUSH2 0x36AB JUMP JUMPDEST PUSH2 0xB6B JUMP JUMPDEST POP SWAP2 SWAP1 POP JUMP JUMPDEST PUSH1 0x0 DUP3 DUP3 ADD DUP4 DUP2 LT ISZERO PUSH2 0xB6B JUMPI PUSH1 0x0 DUP1 REVERT JUMPDEST PUSH1 0x0 PUSH2 0x2576 PUSH2 0x18ED JUMP JUMPDEST PUSH1 0x60 DUP7 ADD MLOAD PUSH1 0x1 PUSH1 0x1 PUSH1 0xA0 SHL SUB SWAP1 DUP2 AND PUSH1 0x0 SWAP1 DUP2 MSTORE PUSH1 0x20 DUP4 DUP2 MSTORE PUSH1 0x40 DUP1 DUP4 KECCAK256 DUP10 MLOAD SWAP1 SWAP5 AND DUP4 MSTORE SWAP3 SWAP1 MSTORE KECCAK256 SWAP1 SWAP2 POP PUSH2 0x25B0 DUP7 DUP7 DUP4 DUP8 DUP8 PUSH2 0x1935 JUMP JUMPDEST PUSH1 0x1 DUP2 ADD DUP1 SLOAD PUSH1 0x1 PUSH1 0x1 PUSH1 0x50 SHL SUB NOT AND SWAP1 DUP2 SWAP1 SSTORE PUSH1 0x1 PUSH1 0x50 SHL SWAP1 DIV PUSH1 0x1 PUSH1 0x1 PUSH1 0x50 SHL SUB AND ISZERO DUP1 ISZERO PUSH2 0x25F3 JUMPI POP PUSH1 0x1 DUP2 ADD SLOAD PUSH1 0x1 PUSH1 0xA0 SHL SWAP1 DIV PUSH1 0x1 PUSH1 0x1 PUSH1 0x50 SHL SUB AND ISZERO JUMPDEST PUSH2 0x1264 JUMPI PUSH1 0x0 DUP1 REVERT JUMPDEST PUSH1 0x0 DUP1 PUSH1 0x0 DUP1 PUSH1 0x0 DUP1 PUSH2 0x260D PUSH2 0x36C1 JUMP JUMPDEST PUSH1 0x1 PUSH1 0x1 PUSH1 0xA0 SHL SUB SWAP1 SWAP8 AND PUSH1 0x0 SWAP1 DUP2 MSTORE PUSH1 0x20 SWAP8 SWAP1 SWAP8 MSTORE POP POP PUSH1 0x40 SWAP1 SWAP5 KECCAK256 SLOAD PUSH2 0xFFFF DUP2 AND SWAP6 PUSH4 0xFFFFFFFF PUSH3 0x10000 DUP4 DIV DUP2 AND SWAP7 POP PUSH7 0x1000000000000 DUP4 DIV AND SWAP5 POP PUSH1 0xFF PUSH1 0x1 PUSH1 0x50 SHL DUP4 DIV AND SWAP4 POP PUSH1 0x1 PUSH1 0x58 SHL SWAP1 SWAP2 DIV PUSH1 0xD8 SHL SWAP2 POP JUMP JUMPDEST PUSH2 0x2670 PUSH2 0x518A JUMP JUMPDEST PUSH1 0x0 PUSH2 0x267A PUSH2 0x36CE JUMP JUMPDEST PUSH1 0x1 PUSH1 0x1 PUSH1 0xA0 SHL SUB DUP5 AND PUSH1 0x0 DUP2 DUP2 MSTORE PUSH1 0x20 DUP4 DUP2 MSTORE PUSH1 0x40 SWAP2 DUP3 SWAP1 KECCAK256 SWAP3 DUP7 MSTORE DUP3 SLOAD PUSH2 0xFFFF DUP1 DUP3 AND SWAP3 DUP9 ADD SWAP3 SWAP1 SWAP3 MSTORE PUSH3 0x10000 SWAP1 DIV AND SWAP1 DUP6 ADD MSTORE SWAP1 SWAP2 POP PUSH2 0x26D6 PUSH2 0x2710 PUSH4 0x3B9ACA00 DUP4 SLOAD PUSH1 0x1 PUSH1 0x50 SHL SWAP1 DIV PUSH1 0xFF AND SWAP2 SWAP1 SDIV PUSH1 0x5 MUL PUSH2 0x36DB JUMP JUMPDEST PUSH1 0x80 DUP5 ADD MSTORE DUP1 SLOAD PUSH2 0x26F5 SWAP1 PUSH1 0x1 PUSH1 0x40 SHL SWAP1 DIV PUSH2 0xFFFF AND PUSH3 0x186A0 PUSH2 0x36DB JUMP JUMPDEST PUSH1 0xA0 DUP5 ADD MSTORE DUP1 SLOAD PUSH2 0x2714 SWAP1 PUSH1 0x1 PUSH1 0x70 SHL SWAP1 DIV PUSH2 0xFFFF AND PUSH3 0x186A0 PUSH2 0x36DB JUMP JUMPDEST PUSH2 0x120 DUP5 ADD MSTORE PUSH1 0x2 DUP2 ADD SLOAD PUSH2 0x2730 SWAP1 PUSH2 0xFFFF AND PUSH3 0x186A0 PUSH2 0x36DB JUMP JUMPDEST PUSH2 0x180 DUP5 ADD MSTORE DUP1 SLOAD PUSH1 0x64 SWAP1 PUSH1 0xFF PUSH1 0x1 PUSH1 0x58 SHL SWAP1 SWAP2 DIV AND PUSH4 0x3B9ACA00 MUL SDIV PUSH1 0xC0 DUP5 ADD MSTORE DUP1 SLOAD PUSH1 0x1 PUSH1 0x60 SHL DUP2 DIV PUSH1 0xFF SWAP1 DUP2 AND PUSH1 0xE0 DUP7 ADD MSTORE PUSH1 0x1 PUSH1 0x68 SHL SWAP1 SWAP2 DIV AND PUSH2 0x100 DUP5 ADD MSTORE PUSH1 0x40 DUP1 MLOAD DUP1 DUP3 ADD SWAP2 DUP3 SWAP1 MSTORE SWAP1 PUSH1 0x1 DUP4 ADD SWAP1 PUSH1 0x2 SWAP1 DUP3 PUSH1 0x0 DUP6 JUMPDEST DUP3 DUP3 SWAP1 SLOAD SWAP1 PUSH2 0x100 EXP SWAP1 DIV PUSH2 0xFFFF AND PUSH2 0xFFFF AND DUP2 MSTORE PUSH1 0x20 ADD SWAP1 PUSH1 0x2 ADD SWAP1 PUSH1 0x20 DUP3 PUSH1 0x1 ADD DIV SWAP3 DUP4 ADD SWAP3 PUSH1 0x1 SUB DUP3 MUL SWAP2 POP DUP1 DUP5 GT PUSH2 0x278D JUMPI POP POP POP POP POP PUSH2 0x140 DUP6 ADD SWAP2 SWAP1 SWAP2 MSTORE POP PUSH1 0x4 DUP2 ADD SLOAD PUSH1 0xFF AND PUSH2 0x1C0 DUP5 ADD MSTORE DUP1 SLOAD PUSH2 0x27F9 SWAP1 PUSH5 0x100000000 SWAP1 DIV PUSH4 0xFFFFFFFF AND PUSH2 0x3702 JUMP JUMPDEST PUSH1 0x60 DUP5 ADD MSTORE PUSH2 0x282F PUSH1 0x3 DUP3 ADD PUSH1 0x0 JUMPDEST PUSH1 0x8 SWAP2 DUP3 DUP3 DIV ADD SWAP2 SWAP1 MOD PUSH1 0x4 MUL SWAP1 SLOAD SWAP1 PUSH2 0x100 EXP SWAP1 DIV PUSH4 0xFFFFFFFF AND PUSH4 0xFFFFFFFF AND PUSH2 0x3702 JUMP JUMPDEST PUSH2 0x1A0 DUP5 ADD MLOAD MSTORE PUSH2 0x2844 PUSH1 0x3 DUP3 ADD PUSH1 0x1 PUSH2 0x2808 JUMP JUMPDEST PUSH2 0x1A0 DUP5 ADD MLOAD PUSH1 0x20 ADD MSTORE POP SWAP1 SWAP3 SWAP2 POP POP JUMP JUMPDEST PUSH1 0x0 PUSH5 0xFFFFFFFFFF DUP4 EQ PUSH2 0x2876 JUMPI DUP2 PUSH1 0x1 PUSH1 0x1 PUSH1 0x50 SHL SUB AND PUSH1 0x0 SUB PUSH2 0x288C JUMP JUMPDEST PUSH2 0x288C DUP5 PUSH1 0x1 PUSH1 0x1 PUSH1 0x50 SHL SUB DUP5 AND PUSH1 0x0 SUB PUSH2 0x3710 JUMP JUMPDEST SWAP5 SWAP4 POP POP POP POP JUMP JUMPDEST PUSH1 0x0 PUSH2 0x28A3 DUP7 DUP7 DUP7 DUP7 DUP7 PUSH2 0x375B JUMP JUMPDEST SWAP1 POP PUSH1 0x0 PUSH2 0x28C3 PUSH1 0x64 PUSH2 0x2AA DUP10 PUSH1 0xE0 ADD MLOAD DUP6 PUSH2 0xAC4 SWAP1 SWAP2 SWAP1 PUSH4 0xFFFFFFFF AND JUMP JUMPDEST SWAP1 POP PUSH1 0x0 PUSH2 0x28D1 DUP4 DUP4 PUSH2 0x36AB JUMP JUMPDEST SWAP1 POP PUSH2 0x28E1 DUP9 PUSH1 0x40 ADD MLOAD DUP4 PUSH2 0x37F1 JUMP JUMPDEST PUSH2 0x28EF DUP9 PUSH1 0x40 ADD MLOAD DUP3 PUSH2 0x3828 JUMP JUMPDEST PUSH5 0xFFFFFFFFFF DUP6 EQ ISZERO PUSH2 0x2927 JUMPI PUSH2 0x2927 DUP9 PUSH1 0x0 ADD MLOAD DUP10 PUSH1 0x40 ADD MLOAD DUP6 PUSH2 0x2922 DUP8 DUP14 PUSH2 0x160 ADD MLOAD PUSH2 0x251B SWAP1 SWAP2 SWAP1 PUSH4 0xFFFFFFFF AND JUMP JUMPDEST PUSH2 0x386C JUMP JUMPDEST PUSH2 0x293B DUP9 PUSH1 0x0 ADD MLOAD DUP10 PUSH1 0x40 ADD MLOAD DUP4 DUP6 PUSH2 0x3974 JUMP JUMPDEST PUSH1 0x80 DUP8 ADD MLOAD PUSH2 0x294A SWAP1 DUP5 PUSH2 0x36AB JUMP JUMPDEST PUSH1 0x80 SWAP1 SWAP8 ADD SWAP7 SWAP1 SWAP7 MSTORE POP SWAP6 SWAP5 POP POP POP POP POP JUMP JUMPDEST PUSH2 0x2965 PUSH2 0x5262 JUMP JUMPDEST PUSH1 0x20 DUP4 ADD MLOAD PUSH5 0xFFFFFFFFFF EQ PUSH2 0x297A JUMPI PUSH1 0x0 DUP1 REVERT JUMPDEST PUSH2 0x2989 DUP3 PUSH5 0xFFFFFFFFFF PUSH2 0x16C8 JUMP JUMPDEST SWAP1 POP PUSH1 0x0 DUP4 PUSH1 0x80 ADD MLOAD SLT ISZERO PUSH2 0x29CB JUMPI PUSH2 0x29CB DUP4 DUP3 PUSH2 0x29B9 DUP7 PUSH1 0x80 ADD MLOAD DUP7 PUSH2 0x160 ADD MLOAD PUSH2 0xB72 SWAP1 SWAP2 SWAP1 PUSH4 0xFFFFFFFF AND JUMP JUMPDEST PUSH2 0x29C6 DUP8 PUSH1 0x80 ADD MLOAD PUSH2 0xB9E JUMP JUMPDEST PUSH2 0x1FB3 JUMP JUMPDEST PUSH2 0xB12 DUP2 DUP4 PUSH2 0x201E JUMP JUMPDEST PUSH1 0x0 DUP1 PUSH2 0xB12 PUSH1 0x15 PUSH2 0x2AAC JUMP JUMPDEST PUSH2 0x29EA PUSH2 0x5169 JUMP JUMPDEST PUSH1 0x0 PUSH2 0x29F5 DUP5 PUSH2 0x3A64 JUMP JUMPDEST SWAP1 POP DUP3 DUP2 PUSH1 0x0 ADD MLOAD LT ISZERO PUSH2 0x2A34 JUMPI PUSH1 0x0 DUP1 PUSH2 0x2A0F DUP7 PUSH2 0x3B2C JUMP JUMPDEST SWAP1 POP PUSH2 0x2A1D DUP7 DUP5 DUP4 DUP9 PUSH2 0x3BA9 JUMP JUMPDEST SWAP1 SWAP4 POP SWAP2 POP PUSH2 0x2A2D DUP7 DUP4 DUP6 PUSH2 0x3C4D JUMP JUMPDEST POP POP PUSH2 0x2A41 JUMP JUMPDEST DUP1 MLOAD DUP4 EQ PUSH2 0x2A41 JUMPI PUSH1 0x0 DUP1 REVERT JUMPDEST PUSH1 0x40 MLOAD DUP1 PUSH1 0x60 ADD PUSH1 0x40 MSTORE DUP1 PUSH2 0x2A6A PUSH2 0x1355 DUP5 PUSH1 0xA0 ADD MLOAD DUP6 PUSH1 0xC0 ADD MLOAD PUSH2 0x36DB SWAP1 SWAP2 SWAP1 PUSH4 0xFFFFFFFF AND JUMP JUMPDEST DUP2 MSTORE PUSH1 0x20 ADD PUSH2 0x2A8D PUSH2 0x1355 DUP5 PUSH1 0xA0 ADD MLOAD DUP6 PUSH1 0xE0 ADD MLOAD PUSH2 0x36DB SWAP1 SWAP2 SWAP1 PUSH4 0xFFFFFFFF AND JUMP JUMPDEST DUP2 MSTORE PUSH1 0x20 ADD DUP3 PUSH1 0x60 ADD MLOAD DUP2 MSTORE POP SWAP2 POP POP SWAP3 SWAP2 POP POP JUMP JUMPDEST PUSH1 0x0 DUP1 PUSH2 0xB12 PUSH1 0x10 JUMPDEST PUSH1 0x0 PUSH3 0xF4240 DUP3 PUSH1 0x26 DUP2 GT ISZERO PUSH2 0x2ABE JUMPI INVALID JUMPDEST ADD SWAP3 SWAP2 POP POP JUMP JUMPDEST PUSH1 0x0 DUP1 PUSH2 0xB12 PUSH1 0x1A PUSH2 0x2AAC JUMP JUMPDEST PUSH1 0x0 PUSH5 0xFFFFFFFFFF DUP4 EQ PUSH2 0x2AE6 JUMPI DUP2 PUSH2 0x288C JUMP JUMPDEST PUSH2 0x288C DUP5 DUP4 PUSH2 0x3E7E JUMP JUMPDEST PUSH1 0x40 DUP1 MLOAD PUSH1 0x2 DUP1 DUP3 MSTORE PUSH1 0x60 DUP3 ADD DUP4 MSTORE PUSH1 0x0 SWAP3 PUSH1 0x20 DUP4 ADD SWAP1 DUP1 CALLDATASIZE DUP4 CALLDATACOPY POP POP PUSH1 0x40 DUP1 MLOAD PUSH1 0x2 DUP1 DUP3 MSTORE PUSH1 0x60 DUP3 ADD DUP4 MSTORE SWAP4 SWAP5 POP PUSH1 0x0 SWAP4 SWAP1 SWAP3 POP SWAP1 PUSH1 0x20 DUP4 ADD SWAP1 DUP1 CALLDATASIZE DUP4 CALLDATACOPY ADD SWAP1 POP POP SWAP1 POP PUSH1 0x0 PUSH2 0x2B57 DUP7 PUSH1 0x0 ADD MLOAD DUP8 PUSH1 0x40 ADD MLOAD DUP8 PUSH1 0x40 ADD MLOAD PUSH5 0xFFFFFFFFFF AND PUSH1 0x0 PUSH2 0x1E56 JUMP JUMPDEST SWAP1 POP PUSH1 0xA PUSH1 0xFF AND DUP2 OR DUP4 PUSH1 0x0 DUP2 MLOAD DUP2 LT PUSH2 0x2B6D JUMPI INVALID JUMPDEST PUSH1 0x20 MUL PUSH1 0x20 ADD ADD DUP2 DUP2 MSTORE POP POP PUSH1 0x9 PUSH1 0xFF AND DUP2 OR DUP4 PUSH1 0x1 DUP2 MLOAD DUP2 LT PUSH2 0x2B8D JUMPI INVALID JUMPDEST PUSH1 0x20 MUL PUSH1 0x20 ADD ADD DUP2 DUP2 MSTORE POP POP DUP7 PUSH1 0x20 ADD MLOAD PUSH1 0x0 EQ DUP1 PUSH2 0x2BD0 JUMPI POP PUSH1 0x40 DUP6 ADD MLOAD PUSH5 0xFFFFFFFFFF AND ISZERO DUP1 ISZERO SWAP1 PUSH2 0x2BD0 JUMPI POP DUP7 PUSH1 0x20 ADD MLOAD DUP6 PUSH1 0x40 ADD MLOAD PUSH5 0xFFFFFFFFFF AND EQ ISZERO JUMPDEST ISZERO PUSH2 0x2C72 JUMPI DUP5 PUSH1 0x0 ADD MLOAD PUSH1 0x1 PUSH1 0x1 PUSH1 0x50 SHL SUB AND DUP3 PUSH1 0x0 DUP2 MLOAD DUP2 LT PUSH2 0x2BF0 JUMPI INVALID JUMPDEST PUSH1 0x20 MUL PUSH1 0x20 ADD ADD DUP2 DUP2 MSTORE POP POP DUP5 PUSH1 0x20 ADD MLOAD PUSH1 0x1 PUSH1 0x1 PUSH1 0x50 SHL SUB AND DUP3 PUSH1 0x1 DUP2 MLOAD DUP2 LT PUSH2 0x2C17 JUMPI INVALID JUMPDEST PUSH1 0x20 MUL PUSH1 0x20 ADD ADD DUP2 DUP2 MSTORE POP POP PUSH1 0x0 PUSH1 0x1 PUSH1 0x1 PUSH1 0xA0 SHL SUB AND DUP8 PUSH1 0x60 ADD MLOAD PUSH1 0x1 PUSH1 0x1 PUSH1 0xA0 SHL SUB AND CALLER PUSH1 0x1 PUSH1 0x1 PUSH1 0xA0 SHL SUB AND PUSH1 0x0 DUP1 MLOAD PUSH1 0x20 PUSH2 0x5EDE DUP4 CODECOPY DUP2 MLOAD SWAP2 MSTORE DUP7 DUP7 PUSH1 0x40 MLOAD PUSH2 0x2C65 SWAP3 SWAP2 SWAP1 PUSH2 0x5BBC JUMP JUMPDEST PUSH1 0x40 MLOAD DUP1 SWAP2 SUB SWAP1 LOG4 PUSH2 0x2E6F JUMP JUMPDEST DUP5 PUSH1 0x40 ADD MLOAD PUSH5 0xFFFFFFFFFF AND DUP8 PUSH1 0x20 ADD MLOAD EQ ISZERO PUSH2 0x2E6F JUMPI DUP5 MLOAD PUSH1 0x0 SWAP1 PUSH1 0x1 PUSH1 0x1 PUSH1 0x50 SHL SUB AND DUP6 LT DUP1 PUSH2 0x2CB4 JUMPI POP DUP6 PUSH1 0x20 ADD MLOAD PUSH1 0x1 PUSH1 0x1 PUSH1 0x50 SHL SUB AND DUP9 PUSH1 0x40 ADD MLOAD LT JUMPDEST SWAP1 POP DUP1 ISZERO PUSH2 0x2D84 JUMPI DUP6 MLOAD PUSH1 0x1 PUSH1 0x1 PUSH1 0x50 SHL SUB AND DUP6 LT PUSH2 0x2CD4 JUMPI PUSH1 0x0 PUSH2 0x2CE3 JUMP JUMPDEST DUP6 MLOAD PUSH1 0x1 PUSH1 0x1 PUSH1 0x50 SHL SUB AND DUP6 SWAP1 SUB JUMPDEST DUP4 PUSH1 0x0 DUP2 MLOAD DUP2 LT PUSH2 0x2CF0 JUMPI INVALID JUMPDEST PUSH1 0x20 MUL PUSH1 0x20 ADD ADD DUP2 DUP2 MSTORE POP POP PUSH2 0x2D20 DUP9 PUSH1 0x40 ADD MLOAD DUP8 PUSH1 0x20 ADD MLOAD PUSH1 0x1 PUSH1 0x1 PUSH1 0x50 SHL SUB AND PUSH2 0x1497 SWAP1 SWAP2 SWAP1 PUSH4 0xFFFFFFFF AND JUMP JUMPDEST DUP4 PUSH1 0x1 DUP2 MLOAD DUP2 LT PUSH2 0x2D2D JUMPI INVALID JUMPDEST PUSH1 0x20 MUL PUSH1 0x20 ADD ADD DUP2 DUP2 MSTORE POP POP PUSH1 0x0 PUSH1 0x1 PUSH1 0x1 PUSH1 0xA0 SHL SUB AND DUP9 PUSH1 0x60 ADD MLOAD PUSH1 0x1 PUSH1 0x1 PUSH1 0xA0 SHL SUB AND CALLER PUSH1 0x1 PUSH1 0x1 PUSH1 0xA0 SHL SUB AND PUSH1 0x0 DUP1 MLOAD PUSH1 0x20 PUSH2 0x5EDE DUP4 CODECOPY DUP2 MLOAD SWAP2 MSTORE DUP8 DUP8 PUSH1 0x40 MLOAD PUSH2 0x2D7B SWAP3 SWAP2 SWAP1 PUSH2 0x5BBC JUMP JUMPDEST PUSH1 0x40 MLOAD DUP1 SWAP2 SUB SWAP1 LOG4 JUMPDEST DUP1 ISZERO DUP1 PUSH2 0x2D9A JUMPI POP DUP6 MLOAD PUSH1 0x1 PUSH1 0x1 PUSH1 0x50 SHL SUB AND DUP6 GT JUMPDEST ISZERO PUSH2 0x2E6D JUMPI DUP6 MLOAD PUSH2 0x2DB5 SWAP1 DUP7 SWAP1 PUSH1 0x1 PUSH1 0x1 PUSH1 0x50 SHL SUB AND PUSH2 0x1497 JUMP JUMPDEST DUP4 PUSH1 0x0 DUP2 MLOAD DUP2 LT PUSH2 0x2DC2 JUMPI INVALID JUMPDEST PUSH1 0x20 MUL PUSH1 0x20 ADD ADD DUP2 DUP2 MSTORE POP POP DUP8 PUSH1 0x40 ADD MLOAD DUP7 PUSH1 0x20 ADD MLOAD PUSH1 0x1 PUSH1 0x1 PUSH1 0x50 SHL SUB AND LT PUSH2 0x2DED JUMPI PUSH1 0x0 PUSH2 0x2E09 JUMP JUMPDEST PUSH1 0x20 DUP7 ADD MLOAD PUSH1 0x40 DUP10 ADD MLOAD PUSH2 0x2E09 SWAP2 PUSH1 0x1 PUSH1 0x1 PUSH1 0x50 SHL SUB AND PUSH2 0x1497 JUMP JUMPDEST DUP4 PUSH1 0x1 DUP2 MLOAD DUP2 LT PUSH2 0x2E16 JUMPI INVALID JUMPDEST PUSH1 0x20 MUL PUSH1 0x20 ADD ADD DUP2 DUP2 MSTORE POP POP DUP8 PUSH1 0x60 ADD MLOAD PUSH1 0x1 PUSH1 0x1 PUSH1 0xA0 SHL SUB AND PUSH1 0x0 PUSH1 0x1 PUSH1 0x1 PUSH1 0xA0 SHL SUB AND CALLER PUSH1 0x1 PUSH1 0x1 PUSH1 0xA0 SHL SUB AND PUSH1 0x0 DUP1 MLOAD PUSH1 0x20 PUSH2 0x5EDE DUP4 CODECOPY DUP2 MLOAD SWAP2 MSTORE DUP8 DUP8 PUSH1 0x40 MLOAD PUSH2 0x2E64 SWAP3 SWAP2 SWAP1 PUSH2 0x5BBC JUMP JUMPDEST PUSH1 0x40 MLOAD DUP1 SWAP2 SUB SWAP1 LOG4 JUMPDEST POP JUMPDEST PUSH1 0x20 DUP8 ADD MLOAD ISZERO DUP1 ISZERO SWAP1 PUSH2 0x2E91 JUMPI POP DUP7 PUSH1 0x20 ADD MLOAD DUP6 PUSH1 0x40 ADD MLOAD PUSH5 0xFFFFFFFFFF AND EQ ISZERO JUMPDEST ISZERO PUSH2 0x2F74 JUMPI PUSH2 0x2EAF DUP7 PUSH1 0x0 ADD MLOAD DUP8 PUSH1 0x40 ADD MLOAD DUP10 PUSH1 0x20 ADD MLOAD PUSH1 0x0 PUSH2 0x1E56 JUMP JUMPDEST SWAP1 POP PUSH1 0xA PUSH1 0xFF AND DUP2 OR DUP4 PUSH1 0x0 DUP2 MLOAD DUP2 LT PUSH2 0x2EC5 JUMPI INVALID JUMPDEST PUSH1 0x20 MUL PUSH1 0x20 ADD ADD DUP2 DUP2 MSTORE POP POP PUSH1 0x9 PUSH1 0xFF AND DUP2 OR DUP4 PUSH1 0x1 DUP2 MLOAD DUP2 LT PUSH2 0x2EE5 JUMPI INVALID JUMPDEST PUSH1 0x20 MUL PUSH1 0x20 ADD ADD DUP2 DUP2 MSTORE POP POP DUP4 DUP3 PUSH1 0x0 DUP2 MLOAD DUP2 LT PUSH2 0x2EFF JUMPI INVALID JUMPDEST PUSH1 0x20 MUL PUSH1 0x20 ADD ADD DUP2 DUP2 MSTORE POP POP DUP7 PUSH1 0x40 ADD MLOAD DUP3 PUSH1 0x1 DUP2 MLOAD DUP2 LT PUSH2 0x2F1D JUMPI INVALID JUMPDEST PUSH1 0x20 MUL PUSH1 0x20 ADD ADD DUP2 DUP2 MSTORE POP POP DUP7 PUSH1 0x60 ADD MLOAD PUSH1 0x1 PUSH1 0x1 PUSH1 0xA0 SHL SUB AND PUSH1 0x0 PUSH1 0x1 PUSH1 0x1 PUSH1 0xA0 SHL SUB AND CALLER PUSH1 0x1 PUSH1 0x1 PUSH1 0xA0 SHL SUB AND PUSH1 0x0 DUP1 MLOAD PUSH1 0x20 PUSH2 0x5EDE DUP4 CODECOPY DUP2 MLOAD SWAP2 MSTORE DUP7 DUP7 PUSH1 0x40 MLOAD PUSH2 0x2F6B SWAP3 SWAP2 SWAP1 PUSH2 0x5BBC JUMP JUMPDEST PUSH1 0x40 MLOAD DUP1 SWAP2 SUB SWAP1 LOG4 JUMPDEST PUSH1 0x80 DUP6 ADD MLOAD PUSH1 0x1 PUSH1 0x1 PUSH1 0x50 SHL SUB AND ISZERO PUSH2 0xD08 JUMPI PUSH1 0x60 DUP8 ADD MLOAD PUSH1 0x80 DUP7 ADD MLOAD PUSH1 0x40 MLOAD PUSH1 0x0 SWAP3 PUSH1 0x1 PUSH1 0x1 PUSH1 0xA0 SHL SUB AND SWAP2 CALLER SWAP2 PUSH1 0x0 DUP1 MLOAD PUSH1 0x20 PUSH2 0x5EFE DUP4 CODECOPY DUP2 MLOAD SWAP2 MSTORE SWAP2 PUSH2 0x1182 SWAP2 PUSH1 0xB DUP9 OR SWAP2 SWAP1 PUSH2 0x5E6C JUMP JUMPDEST PUSH1 0x0 PUSH5 0xFFFFFFFFFF DUP3 GT ISZERO PUSH2 0xAC0 JUMPI PUSH1 0x0 DUP1 REVERT JUMPDEST PUSH1 0x0 PUSH4 0xFFFFFFFF DUP3 GT ISZERO PUSH2 0xAC0 JUMPI PUSH1 0x0 DUP1 REVERT JUMPDEST PUSH1 0x0 DUP1 PUSH2 0xB12 PUSH1 0x26 PUSH2 0x2AAC JUMP JUMPDEST PUSH1 0x0 DUP1 PUSH2 0x3001 PUSH2 0x3EDA JUMP JUMPDEST PUSH2 0xFFFF SWAP4 SWAP1 SWAP4 AND PUSH1 0x0 SWAP1 DUP2 MSTORE PUSH1 0x20 SWAP4 SWAP1 SWAP4 MSTORE POP POP PUSH1 0x40 SWAP1 KECCAK256 SLOAD PUSH1 0x1 PUSH1 0x1 PUSH1 0xA0 SHL SUB AND SWAP1 JUMP JUMPDEST PUSH1 0x0 DUP1 PUSH1 0x0 JUMPDEST DUP4 MLOAD DUP2 LT ISZERO PUSH2 0x3235 JUMPI PUSH1 0x0 DUP5 DUP3 DUP2 MLOAD DUP2 LT PUSH2 0x3043 JUMPI INVALID JUMPDEST PUSH1 0x20 MUL PUSH1 0x20 ADD ADD MLOAD SWAP1 POP PUSH1 0x0 DUP2 PUSH1 0x60 ADD MLOAD PUSH1 0x1 PUSH1 0x1 PUSH1 0xA0 SHL SUB AND PUSH4 0x70A08231 ADDRESS PUSH1 0x40 MLOAD DUP3 PUSH4 0xFFFFFFFF AND PUSH1 0xE0 SHL DUP2 MSTORE PUSH1 0x4 ADD PUSH2 0x307F SWAP2 SWAP1 PUSH2 0x5B0C JUMP JUMPDEST PUSH1 0x20 PUSH1 0x40 MLOAD DUP1 DUP4 SUB DUP2 DUP7 DUP1 EXTCODESIZE ISZERO DUP1 ISZERO PUSH2 0x3097 JUMPI PUSH1 0x0 DUP1 REVERT JUMPDEST POP GAS STATICCALL ISZERO DUP1 ISZERO PUSH2 0x30AB JUMPI RETURNDATASIZE PUSH1 0x0 DUP1 RETURNDATACOPY RETURNDATASIZE PUSH1 0x0 REVERT JUMPDEST POP POP POP POP PUSH1 0x40 MLOAD RETURNDATASIZE PUSH1 0x1F NOT PUSH1 0x1F DUP3 ADD AND DUP3 ADD DUP1 PUSH1 0x40 MSTORE POP DUP2 ADD SWAP1 PUSH2 0x30CF SWAP2 SWAP1 PUSH2 0x59CB JUMP JUMPDEST SWAP1 POP PUSH1 0x0 PUSH2 0x30DD DUP9 ADDRESS PUSH2 0x3EE7 JUMP JUMPDEST SWAP1 POP PUSH1 0x0 JUMPDEST DUP4 MLOAD MLOAD DUP2 LT ISZERO PUSH2 0x3139 JUMPI PUSH2 0x3128 DUP5 PUSH1 0x0 ADD MLOAD DUP3 DUP2 MLOAD DUP2 LT PUSH2 0x30FF JUMPI INVALID JUMPDEST PUSH1 0x20 MUL PUSH1 0x20 ADD ADD MLOAD PUSH1 0x0 DUP7 PUSH1 0x20 ADD MLOAD DUP5 DUP2 MLOAD DUP2 LT PUSH2 0x3119 JUMPI INVALID JUMPDEST PUSH1 0x20 MUL PUSH1 0x20 ADD ADD MLOAD PUSH1 0x1 PUSH2 0x3F91 JUMP JUMPDEST PUSH2 0x3131 JUMPI PUSH1 0x1 SWAP7 POP JUMPDEST PUSH1 0x1 ADD PUSH2 0x30E2 JUMP JUMPDEST POP PUSH1 0x0 PUSH2 0x3146 DUP10 ADDRESS PUSH2 0x3EE7 JUMP JUMPDEST SWAP1 POP PUSH1 0x0 PUSH2 0x3154 DUP3 DUP5 PUSH2 0x1497 JUMP JUMPDEST SWAP1 POP DUP1 DUP6 PUSH1 0x40 ADD MLOAD GT ISZERO PUSH2 0x3167 JUMPI PUSH1 0x0 DUP1 REVERT JUMPDEST PUSH1 0x60 DUP6 ADD MLOAD PUSH1 0x40 MLOAD PUSH4 0x70A08231 PUSH1 0xE0 SHL DUP2 MSTORE PUSH1 0x0 SWAP2 PUSH1 0x1 PUSH1 0x1 PUSH1 0xA0 SHL SUB AND SWAP1 PUSH4 0x70A08231 SWAP1 PUSH2 0x319A SWAP1 ADDRESS SWAP1 PUSH1 0x4 ADD PUSH2 0x5B0C JUMP JUMPDEST PUSH1 0x20 PUSH1 0x40 MLOAD DUP1 DUP4 SUB DUP2 DUP7 DUP1 EXTCODESIZE ISZERO DUP1 ISZERO PUSH2 0x31B2 JUMPI PUSH1 0x0 DUP1 REVERT JUMPDEST POP GAS STATICCALL ISZERO DUP1 ISZERO PUSH2 0x31C6 JUMPI RETURNDATASIZE PUSH1 0x0 DUP1 RETURNDATACOPY RETURNDATASIZE PUSH1 0x0 REVERT JUMPDEST POP POP POP POP PUSH1 0x40 MLOAD RETURNDATASIZE PUSH1 0x1F NOT PUSH1 0x1F DUP3 ADD AND DUP3 ADD DUP1 PUSH1 0x40 MSTORE POP DUP2 ADD SWAP1 PUSH2 0x31EA SWAP2 SWAP1 PUSH2 0x59CB JUMP JUMPDEST SWAP1 POP DUP5 DUP2 GT ISZERO PUSH2 0x31F9 JUMPI PUSH1 0x0 DUP1 REVERT JUMPDEST PUSH2 0x3208 DUP7 PUSH1 0x60 ADD MLOAD DUP7 DUP4 PUSH2 0x41FF JUMP JUMPDEST PUSH2 0x3212 DUP9 DUP4 PUSH2 0x255A JUMP JUMPDEST SWAP8 POP PUSH2 0x3223 DUP12 PUSH1 0x0 ADD MLOAD DUP6 DUP6 PUSH2 0x41FF JUMP JUMPDEST POP POP PUSH1 0x1 SWAP1 SWAP5 ADD SWAP4 POP PUSH2 0x302C SWAP3 POP POP POP JUMP JUMPDEST POP SWAP3 POP SWAP3 SWAP1 POP JUMP JUMPDEST PUSH1 0x0 PUSH2 0x3247 PUSH2 0x534F JUMP JUMPDEST RETURNDATASIZE DUP1 ISZERO PUSH2 0x325B JUMPI PUSH1 0x20 DUP2 EQ PUSH2 0x3264 JUMPI PUSH1 0x0 DUP1 REVERT JUMPDEST PUSH1 0x1 SWAP3 POP PUSH2 0x326F JUMP JUMPDEST PUSH1 0x20 PUSH1 0x0 DUP4 RETURNDATACOPY DUP2 MLOAD SWAP3 POP JUMPDEST POP DUP2 PUSH2 0x1590 JUMPI PUSH1 0x40 DUP1 MLOAD PUSH3 0x461BCD PUSH1 0xE5 SHL DUP2 MSTORE PUSH1 0x20 PUSH1 0x4 DUP3 ADD MSTORE PUSH1 0x5 PUSH1 0x24 DUP3 ADD MSTORE PUSH5 0x455243323 PUSH1 0xDC SHL PUSH1 0x44 DUP3 ADD MSTORE SWAP1 MLOAD SWAP1 DUP2 SWAP1 SUB PUSH1 0x64 ADD SWAP1 REVERT JUMPDEST PUSH1 0x0 PUSH4 0x5F5E100 DUP4 PUSH1 0x40 ADD MLOAD EQ ISZERO PUSH2 0x32C3 JUMPI POP DUP1 PUSH2 0xB12 JUMP JUMPDEST PUSH1 0x40 DUP4 ADD MLOAD PUSH2 0xB6B SWAP1 PUSH2 0x2AA DUP5 PUSH4 0x5F5E100 PUSH2 0xAC4 JUMP JUMPDEST PUSH1 0x0 PUSH2 0x32E4 PUSH2 0x1BA3 JUMP JUMPDEST PUSH2 0xFFFF DUP5 AND PUSH1 0x0 SWAP1 DUP2 MSTORE PUSH1 0x20 SWAP2 SWAP1 SWAP2 MSTORE PUSH1 0x40 SWAP1 DUP2 SWAP1 KECCAK256 SLOAD SWAP1 MLOAD PUSH4 0xAD1C095D PUSH1 0xE0 SHL DUP2 MSTORE PUSH1 0x1 PUSH1 0x1 PUSH1 0xA0 SHL SUB SWAP1 SWAP2 AND SWAP2 POP DUP2 SWAP1 PUSH4 0xAD1C095D SWAP1 PUSH2 0x332C SWAP1 DUP8 SWAP1 DUP7 SWAP1 PUSH1 0x4 ADD PUSH2 0x5BA3 JUMP JUMPDEST PUSH1 0x0 PUSH1 0x40 MLOAD DUP1 DUP4 SUB DUP2 PUSH1 0x0 DUP8 DUP1 EXTCODESIZE ISZERO DUP1 ISZERO PUSH2 0x3346 JUMPI PUSH1 0x0 DUP1 REVERT JUMPDEST POP GAS CALL ISZERO DUP1 ISZERO PUSH2 0x1CBF JUMPI RETURNDATASIZE PUSH1 0x0 DUP1 RETURNDATACOPY RETURNDATASIZE PUSH1 0x0 REVERT JUMPDEST PUSH1 0x0 PUSH2 0x3364 PUSH2 0x427C JUMP JUMPDEST PUSH2 0xFFFF DUP6 AND PUSH1 0x0 SWAP1 DUP2 MSTORE PUSH1 0x20 SWAP2 SWAP1 SWAP2 MSTORE PUSH1 0x40 SWAP1 KECCAK256 DUP1 SLOAD SWAP1 SWAP2 POP PUSH5 0xFFFFFFFFFF AND TIMESTAMP EQ PUSH2 0x338F JUMPI PUSH1 0x0 DUP1 REVERT JUMPDEST DUP1 SLOAD PUSH1 0x0 SWAP1 PUSH2 0x33AE SWAP1 PUSH1 0x1 PUSH1 0x28 SHL SWAP1 DIV PUSH1 0x1 PUSH1 0x1 PUSH1 0x58 SHL SUB AND DUP6 PUSH2 0x18FA JUMP JUMPDEST DUP3 SLOAD SWAP1 SWAP2 POP PUSH1 0x0 SWAP1 PUSH2 0x33D0 SWAP1 PUSH1 0x1 PUSH1 0x80 SHL SWAP1 DIV PUSH1 0x1 PUSH1 0x1 PUSH1 0x58 SHL SUB AND DUP6 PUSH2 0x18FA JUMP JUMPDEST SWAP1 POP DUP1 PUSH3 0x4C4B40 SGT ISZERO PUSH2 0x33E2 JUMPI PUSH1 0x0 DUP1 REVERT JUMPDEST PUSH2 0x33F3 PUSH2 0x33EE DUP3 PUSH2 0x1910 JUMP JUMPDEST PUSH2 0x4289 JUMP JUMPDEST DUP4 SLOAD PUSH1 0x1 PUSH1 0x1 PUSH1 0x58 SHL SUB SWAP2 SWAP1 SWAP2 AND PUSH1 0x1 PUSH1 0x80 SHL MUL PUSH11 0xFFFFFFFFFFFFFFFFFFFFFF PUSH1 0x80 SHL NOT SWAP1 SWAP2 AND OR DUP4 SSTORE PUSH2 0x3429 PUSH2 0x33EE DUP4 PUSH2 0x1910 JUMP JUMPDEST DUP4 SLOAD PUSH1 0x1 PUSH1 0x1 PUSH1 0x58 SHL SUB SWAP2 SWAP1 SWAP2 AND PUSH1 0x1 PUSH1 0x28 SHL MUL PUSH16 0xFFFFFFFFFFFFFFFFFFFFFF0000000000 NOT SWAP1 SWAP2 AND OR DUP4 SSTORE PUSH2 0x1264 DUP4 PUSH2 0x429F JUMP JUMPDEST PUSH1 0x0 PUSH2 0x3468 PUSH2 0x2FE9 JUMP JUMPDEST PUSH1 0x1 PUSH1 0x1 PUSH1 0xA0 SHL SUB DUP5 AND PUSH1 0x0 SWAP1 DUP2 MSTORE PUSH1 0x20 DUP3 SWAP1 MSTORE PUSH1 0x40 SWAP1 KECCAK256 SLOAD SWAP1 SWAP2 POP PUSH2 0x3491 PUSH2 0xC08 DUP3 DUP6 PUSH2 0x18FA JUMP JUMPDEST PUSH1 0x1 PUSH1 0x1 PUSH1 0xA0 SHL SUB SWAP1 SWAP5 AND PUSH1 0x0 SWAP1 DUP2 MSTORE PUSH1 0x20 SWAP3 SWAP1 SWAP3 MSTORE POP PUSH1 0x40 SWAP1 KECCAK256 SWAP2 SWAP1 SWAP2 SSTORE POP JUMP JUMPDEST DUP7 SLOAD PUSH1 0x1 PUSH1 0x1 PUSH1 0x50 SHL SUB AND PUSH1 0x0 SWAP1 DUP2 SUB SWAP1 PUSH2 0x34CF DUP9 DUP7 DUP7 PUSH2 0x2AD2 JUMP JUMPDEST SWAP1 POP PUSH2 0x34E0 PUSH2 0xC0D PUSH2 0xC08 DUP4 PUSH2 0xB9E JUMP JUMPDEST DUP10 SLOAD PUSH1 0x1 PUSH1 0x1 PUSH1 0x50 SHL SUB NOT AND PUSH1 0x1 PUSH1 0x1 PUSH1 0x50 SHL SUB SWAP2 SWAP1 SWAP2 AND OR DUP10 SSTORE PUSH1 0x0 PUSH2 0x3507 DUP4 DUP4 PUSH2 0x4364 JUMP JUMPDEST SWAP1 POP PUSH1 0x0 PUSH5 0xFFFFFFFFFF DUP8 EQ ISZERO PUSH2 0x352E JUMPI DUP9 MLOAD PUSH2 0x3527 SWAP1 DUP12 SWAP1 DUP11 DUP6 PUSH2 0x43EB JUMP JUMPDEST POP DUP5 PUSH2 0x3565 JUMP JUMPDEST DUP5 PUSH2 0x3565 JUMPI DUP9 MLOAD PUSH2 0x3542 SWAP1 DUP10 DUP10 DUP8 DUP8 PUSH2 0x4418 JUMP JUMPDEST DUP9 MLOAD PUSH2 0x3557 SWAP1 DUP10 PUSH2 0x3552 DUP6 PUSH2 0xB9E JUMP JUMPDEST PUSH2 0x44D8 JUMP JUMPDEST PUSH2 0x3562 DUP10 DUP12 DUP11 PUSH2 0x45AE JUMP JUMPDEST SWAP1 POP JUMPDEST PUSH1 0x0 DUP3 SGT DUP1 ISZERO PUSH2 0x3573 JUMPI POP DUP5 ISZERO JUMPDEST ISZERO PUSH2 0x3585 JUMPI DUP9 MLOAD PUSH2 0x3585 SWAP1 DUP10 DUP4 PUSH2 0x4654 JUMP JUMPDEST POP POP POP POP POP POP POP POP POP POP POP JUMP JUMPDEST PUSH1 0x0 PUSH2 0x359C PUSH2 0x46D0 JUMP JUMPDEST DUP9 MLOAD PUSH1 0x1 PUSH1 0x1 PUSH1 0xA0 SHL SUB AND PUSH1 0x0 SWAP1 DUP2 MSTORE PUSH1 0x20 SWAP2 DUP3 MSTORE PUSH1 0x40 DUP1 DUP3 KECCAK256 DUP9 DUP4 MSTORE DUP4 MSTORE DUP1 DUP3 KECCAK256 PUSH2 0xFFFF DUP11 AND DUP4 MSTORE SWAP1 SWAP3 MSTORE SWAP1 DUP2 KECCAK256 DUP1 SLOAD SWAP1 SWAP3 POP PUSH2 0x35E6 SWAP1 DUP6 SWAP1 DUP9 SWAP1 PUSH1 0x1 PUSH1 0x1 PUSH1 0x50 SHL SUB AND PUSH2 0x2856 JUMP JUMPDEST SWAP1 POP PUSH2 0x35F2 DUP2 DUP7 PUSH2 0x18FA JUMP JUMPDEST SWAP1 POP PUSH2 0x3604 DUP3 DUP6 DUP12 DUP11 DUP11 DUP7 PUSH1 0x0 PUSH2 0x34B3 JUMP JUMPDEST PUSH1 0x0 DUP1 DUP7 SGT DUP1 ISZERO PUSH2 0x3619 JUMPI POP PUSH5 0xFFFFFFFFFF DUP8 EQ JUMPDEST ISZERO PUSH2 0x363B JUMPI PUSH2 0x3634 PUSH2 0x13BA DUP7 DUP10 PUSH2 0x362F DUP11 PUSH2 0xB9E JUMP JUMPDEST PUSH2 0x2AD2 JUMP JUMPDEST SWAP1 POP PUSH2 0x3649 JUMP JUMPDEST PUSH2 0x3646 DUP6 DUP9 DUP9 PUSH2 0x2AD2 JUMP JUMPDEST SWAP1 POP JUMPDEST DUP4 ISZERO PUSH2 0x125F JUMPI PUSH2 0x125F DUP10 DUP12 PUSH1 0x0 ADD MLOAD DUP11 DUP11 DUP6 PUSH2 0x46DD JUMP JUMPDEST DUP3 ISZERO DUP1 ISZERO PUSH2 0x366C JUMPI POP DUP2 ISZERO JUMPDEST ISZERO PUSH2 0x3682 JUMPI DUP4 SLOAD PUSH5 0xFFFFFFFFFF NOT AND DUP5 SSTORE PUSH2 0x1D92 JUMP JUMPDEST DUP4 SLOAD PUSH5 0xFFFFFFFFFF NOT AND PUSH5 0xFFFFFFFFFF SWAP2 SWAP1 SWAP2 AND OR SWAP1 SWAP3 SSTORE POP POP JUMP JUMPDEST PUSH1 0x0 DUP1 PUSH2 0xB12 PUSH1 0x7 PUSH2 0x2AAC JUMP JUMPDEST DUP1 DUP3 SUB DUP3 DUP2 SGT ISZERO PUSH1 0x0 DUP4 SLT ISZERO EQ PUSH2 0xB12 JUMPI PUSH1 0x0 DUP1 REVERT JUMPDEST PUSH1 0x0 DUP1 PUSH2 0xB12 PUSH1 0x2 PUSH2 0x2AAC JUMP JUMPDEST PUSH1 0x0 DUP1 PUSH2 0xB12 PUSH1 0x14 PUSH2 0x2AAC JUMP JUMPDEST PUSH1 0x0 DUP3 PUSH2 0x36EA JUMPI POP PUSH1 0x0 PUSH2 0xB12 JUMP JUMPDEST DUP3 DUP3 MUL DUP3 DUP5 DUP3 DUP2 PUSH2 0x36F7 JUMPI INVALID JUMPDEST DIV EQ PUSH2 0xB6B JUMPI PUSH1 0x0 DUP1 REVERT JUMPDEST PUSH1 0x8 DUP2 SWAP1 SHR PUSH1 0xFF SWAP1 SWAP2 AND SHL SWAP1 JUMP JUMPDEST PUSH1 0x0 PUSH1 0x1 DUP3 SLT PUSH2 0x371F JUMPI PUSH1 0x0 DUP1 REVERT JUMPDEST DUP2 PUSH2 0x372C JUMPI POP PUSH1 0x0 PUSH2 0xB12 JUMP JUMPDEST PUSH2 0xB6B PUSH1 0x1 PUSH2 0x2549 PUSH15 0xC097CE7BC90715B34B9F1000000000 PUSH2 0x2AA DUP8 PUSH1 0x20 ADD MLOAD DUP8 PUSH2 0xAC4 SWAP1 SWAP2 SWAP1 PUSH4 0xFFFFFFFF AND JUMP JUMPDEST PUSH1 0x0 DUP1 PUSH5 0xFFFFFFFFFF DUP5 EQ ISZERO PUSH2 0x37AD JUMPI PUSH1 0x20 DUP7 ADD MLOAD PUSH5 0xFFFFFFFFFF EQ PUSH2 0x3785 JUMPI PUSH1 0x0 SWAP2 POP POP PUSH2 0xE57 JUMP JUMPDEST PUSH2 0x379F PUSH2 0x1355 DUP8 PUSH1 0xA0 ADD MLOAD DUP6 PUSH2 0x1497 SWAP1 SWAP2 SWAP1 PUSH4 0xFFFFFFFF AND JUMP JUMPDEST PUSH1 0xA0 DUP8 ADD DUP5 SWAP1 MSTORE SWAP1 POP PUSH2 0x37BD JUMP JUMPDEST PUSH2 0x37BA PUSH2 0x1355 DUP6 DUP6 PUSH2 0x1497 JUMP JUMPDEST SWAP1 POP JUMPDEST PUSH1 0x80 DUP8 ADD MLOAD PUSH1 0x0 SWAP1 PUSH2 0x37D9 SWAP1 PUSH4 0x1DA9C00 SWAP1 PUSH2 0x2AA SWAP1 DUP6 PUSH2 0xAC4 JUMP JUMPDEST SWAP1 POP PUSH2 0x37E5 DUP7 DUP3 PUSH2 0x1007 JUMP JUMPDEST SWAP9 SWAP8 POP POP POP POP POP POP POP POP JUMP JUMPDEST PUSH1 0x0 DUP2 SLT ISZERO PUSH2 0x37FF JUMPI PUSH1 0x0 DUP1 REVERT JUMPDEST PUSH1 0x0 PUSH2 0x380D PUSH2 0xFEE DUP5 PUSH2 0x475F JUMP JUMPDEST SWAP1 POP PUSH2 0x3819 DUP2 DUP4 PUSH2 0x18FA JUMP JUMPDEST SWAP1 POP PUSH2 0x1CC5 PUSH2 0xFEE DUP5 DUP4 PUSH2 0x47B8 JUMP JUMPDEST PUSH1 0x0 DUP2 SLT ISZERO PUSH2 0x3836 JUMPI PUSH1 0x0 DUP1 REVERT JUMPDEST PUSH1 0x0 PUSH2 0x3845 DUP4 PUSH2 0xFFFF AND PUSH2 0x482C JUMP JUMPDEST SWAP1 POP PUSH1 0x0 PUSH2 0x3853 DUP3 DUP6 PUSH2 0x475F JUMP JUMPDEST SWAP1 POP PUSH2 0x385F DUP2 DUP5 PUSH2 0x18FA JUMP JUMPDEST SWAP1 POP PUSH2 0x1D92 DUP3 DUP6 DUP4 PUSH2 0x47B8 JUMP JUMPDEST PUSH1 0x0 PUSH2 0x3876 PUSH2 0x1BA3 JUMP JUMPDEST PUSH2 0xFFFF DUP6 AND PUSH1 0x0 SWAP1 DUP2 MSTORE PUSH1 0x20 SWAP2 SWAP1 SWAP2 MSTORE PUSH1 0x40 DUP2 KECCAK256 SLOAD PUSH1 0x1 PUSH1 0x1 PUSH1 0xA0 SHL SUB AND SWAP2 POP PUSH2 0x389E PUSH2 0x4852 JUMP JUMPDEST PUSH2 0xFFFF DUP7 AND PUSH1 0x0 SWAP1 DUP2 MSTORE PUSH1 0x20 SWAP2 SWAP1 SWAP2 MSTORE PUSH1 0x40 SWAP1 DUP2 SWAP1 KECCAK256 SLOAD SWAP1 MLOAD PUSH4 0xAD1C095D PUSH1 0xE0 SHL DUP2 MSTORE PUSH1 0x1 PUSH1 0x1 PUSH1 0xA0 SHL SUB SWAP1 SWAP2 AND SWAP2 POP DUP2 SWAP1 PUSH4 0xAD1C095D SWAP1 PUSH2 0x38E6 SWAP1 DUP10 SWAP1 DUP8 SWAP1 PUSH1 0x4 ADD PUSH2 0x5BA3 JUMP JUMPDEST PUSH1 0x0 PUSH1 0x40 MLOAD DUP1 DUP4 SUB DUP2 PUSH1 0x0 DUP8 DUP1 EXTCODESIZE ISZERO DUP1 ISZERO PUSH2 0x3900 JUMPI PUSH1 0x0 DUP1 REVERT JUMPDEST POP GAS CALL ISZERO DUP1 ISZERO PUSH2 0x3914 JUMPI RETURNDATASIZE PUSH1 0x0 DUP1 RETURNDATACOPY RETURNDATASIZE PUSH1 0x0 REVERT JUMPDEST POP POP PUSH1 0x40 MLOAD PUSH4 0xAD1C095D PUSH1 0xE0 SHL DUP2 MSTORE PUSH1 0x1 PUSH1 0x1 PUSH1 0xA0 SHL SUB DUP6 AND SWAP3 POP PUSH4 0xAD1C095D SWAP2 POP PUSH2 0x3946 SWAP1 DUP10 SWAP1 DUP9 SWAP1 PUSH1 0x4 ADD PUSH2 0x5BA3 JUMP JUMPDEST PUSH1 0x0 PUSH1 0x40 MLOAD DUP1 DUP4 SUB DUP2 PUSH1 0x0 DUP8 DUP1 EXTCODESIZE ISZERO DUP1 ISZERO PUSH2 0x3960 JUMPI PUSH1 0x0 DUP1 REVERT JUMPDEST POP GAS CALL ISZERO DUP1 ISZERO PUSH2 0x125F JUMPI RETURNDATASIZE PUSH1 0x0 DUP1 RETURNDATACOPY RETURNDATASIZE PUSH1 0x0 REVERT JUMPDEST PUSH1 0x0 PUSH2 0x397E PUSH2 0x1BA3 JUMP JUMPDEST PUSH2 0xFFFF DUP6 AND PUSH1 0x0 SWAP1 DUP2 MSTORE PUSH1 0x20 SWAP2 SWAP1 SWAP2 MSTORE PUSH1 0x40 DUP2 KECCAK256 SLOAD PUSH1 0x1 PUSH1 0x1 PUSH1 0xA0 SHL SUB AND SWAP2 POP PUSH2 0x39A6 PUSH2 0x485F JUMP JUMPDEST PUSH2 0xFFFF DUP7 AND PUSH1 0x0 SWAP1 DUP2 MSTORE PUSH1 0x20 SWAP2 SWAP1 SWAP2 MSTORE PUSH1 0x40 SWAP1 KECCAK256 SLOAD PUSH1 0x1 PUSH1 0x1 PUSH1 0xA0 SHL SUB SWAP1 DUP2 AND SWAP2 POP DUP3 AND PUSH4 0x23DE6651 DUP8 PUSH2 0xFEE PUSH2 0x39DC DUP8 PUSH2 0x1910 JUMP JUMPDEST PUSH1 0x40 MLOAD DUP5 PUSH4 0xFFFFFFFF AND PUSH1 0xE0 SHL DUP2 MSTORE PUSH1 0x4 ADD PUSH2 0x39FA SWAP4 SWAP3 SWAP2 SWAP1 PUSH2 0x5B7F JUMP JUMPDEST PUSH1 0x0 PUSH1 0x40 MLOAD DUP1 DUP4 SUB DUP2 PUSH1 0x0 DUP8 DUP1 EXTCODESIZE ISZERO DUP1 ISZERO PUSH2 0x3A14 JUMPI PUSH1 0x0 DUP1 REVERT JUMPDEST POP GAS CALL ISZERO DUP1 ISZERO PUSH2 0x3A28 JUMPI RETURNDATASIZE PUSH1 0x0 DUP1 RETURNDATACOPY RETURNDATASIZE PUSH1 0x0 REVERT JUMPDEST POP POP POP POP DUP2 PUSH1 0x1 PUSH1 0x1 PUSH1 0xA0 SHL SUB AND PUSH4 0x23DE6651 DUP8 DUP4 PUSH2 0x3A46 DUP9 PUSH2 0x1910 JUMP JUMPDEST PUSH1 0x40 MLOAD DUP5 PUSH4 0xFFFFFFFF AND PUSH1 0xE0 SHL DUP2 MSTORE PUSH1 0x4 ADD PUSH2 0x3946 SWAP4 SWAP3 SWAP2 SWAP1 PUSH2 0x5B7F JUMP JUMPDEST PUSH2 0x3A6C PUSH2 0x536D JUMP JUMPDEST PUSH1 0x0 PUSH2 0x3A76 PUSH2 0x427C JUMP JUMPDEST PUSH2 0xFFFF SWAP4 DUP5 AND PUSH1 0x0 SWAP1 DUP2 MSTORE PUSH1 0x20 SWAP2 DUP3 MSTORE PUSH1 0x40 SWAP1 DUP2 SWAP1 KECCAK256 DUP1 SLOAD PUSH5 0xFFFFFFFFFF DUP2 AND DUP7 MSTORE PUSH1 0x1 PUSH1 0x28 SHL DUP2 DIV PUSH1 0x1 PUSH1 0x1 PUSH1 0x58 SHL SUB SWAP1 DUP2 AND SWAP5 DUP8 ADD SWAP5 SWAP1 SWAP5 MSTORE PUSH1 0x1 DUP3 ADD SLOAD DUP5 AND SWAP3 DUP7 ADD SWAP3 SWAP1 SWAP3 MSTORE PUSH1 0x1 PUSH1 0xD8 SHL DUP3 DIV PUSH4 0xFFFFFFFF AND PUSH1 0x60 DUP7 ADD MSTORE PUSH1 0x1 PUSH1 0x80 SHL SWAP1 SWAP2 DIV SWAP1 SWAP2 AND PUSH1 0x80 DUP5 ADD MSTORE PUSH1 0x2 ADD SLOAD PUSH1 0x1 PUSH1 0x1 PUSH1 0x50 SHL SUB DUP1 DUP3 AND PUSH1 0xA0 DUP6 ADD MSTORE PUSH1 0x1 PUSH1 0x50 SHL DUP3 DIV DUP2 AND PUSH1 0xC0 DUP6 ADD MSTORE PUSH1 0x1 PUSH1 0xA0 SHL DUP3 DIV AND PUSH1 0xE0 DUP5 ADD MSTORE PUSH1 0x1 PUSH1 0xF0 SHL SWAP1 DIV PUSH1 0xFF AND PUSH2 0x12C MUL SWAP1 SWAP3 AND PUSH2 0x100 DUP3 ADD MSTORE SWAP2 SWAP1 POP JUMP JUMPDEST PUSH1 0x0 DUP1 PUSH2 0x3B38 DUP4 PUSH2 0x2FF6 JUMP JUMPDEST PUSH1 0x1 PUSH1 0x1 PUSH1 0xA0 SHL SUB AND PUSH4 0xEF81F216 PUSH1 0x40 MLOAD DUP2 PUSH4 0xFFFFFFFF AND PUSH1 0xE0 SHL DUP2 MSTORE PUSH1 0x4 ADD PUSH1 0x40 DUP1 MLOAD DUP1 DUP4 SUB DUP2 PUSH1 0x0 DUP8 DUP1 EXTCODESIZE ISZERO DUP1 ISZERO PUSH2 0x3B71 JUMPI PUSH1 0x0 DUP1 REVERT JUMPDEST POP GAS CALL ISZERO DUP1 ISZERO PUSH2 0x3B85 JUMPI RETURNDATASIZE PUSH1 0x0 DUP1 RETURNDATACOPY RETURNDATASIZE PUSH1 0x0 REVERT JUMPDEST POP POP POP POP PUSH1 0x40 MLOAD RETURNDATASIZE PUSH1 0x1F NOT PUSH1 0x1F DUP3 ADD AND DUP3 ADD DUP1 PUSH1 0x40 MSTORE POP DUP2 ADD SWAP1 PUSH2 0x288C SWAP2 SWAP1 PUSH2 0x5849 JUMP JUMPDEST PUSH2 0x3BB1 PUSH2 0x536D JUMP JUMPDEST PUSH1 0x0 DUP1 PUSH1 0x0 PUSH2 0x3BC1 DUP9 DUP7 DUP10 PUSH2 0x486C JUMP JUMPDEST PUSH1 0xC0 DUP12 ADD SWAP3 SWAP1 SWAP3 MSTORE PUSH1 0xE0 DUP11 ADD SWAP3 SWAP1 SWAP3 MSTORE PUSH1 0x20 DUP10 ADD MLOAD SWAP2 SWAP4 POP SWAP2 POP PUSH2 0x3BE5 SWAP1 DUP4 PUSH2 0x255A JUMP JUMPDEST PUSH1 0x20 DUP9 ADD MSTORE PUSH1 0x80 DUP8 ADD MLOAD PUSH1 0x0 SWAP1 ISZERO PUSH2 0x3C13 JUMPI PUSH1 0x80 DUP9 ADD MLOAD PUSH2 0x3C10 SWAP1 PUSH2 0x3C0A DUP10 DUP3 PUSH2 0x1497 JUMP JUMPDEST SWAP1 PUSH2 0x497D JUMP JUMPDEST SWAP1 POP JUMPDEST PUSH2 0x3C33 PUSH2 0x3C28 PUSH8 0xDE0B6B3A7640000 DUP4 PUSH2 0x255A JUMP JUMPDEST PUSH1 0xA0 DUP11 ADD MLOAD SWAP1 PUSH2 0x499A JUMP JUMPDEST PUSH1 0xA0 DUP10 ADD MSTORE POP POP PUSH1 0x80 DUP7 ADD SWAP5 SWAP1 SWAP5 MSTORE POP POP DUP3 MSTORE SWAP1 SWAP3 SWAP1 SWAP2 POP JUMP JUMPDEST PUSH1 0x0 PUSH2 0x3C57 PUSH2 0x427C JUMP JUMPDEST PUSH1 0x0 DUP6 PUSH2 0xFFFF AND DUP2 MSTORE PUSH1 0x20 ADD SWAP1 DUP2 MSTORE PUSH1 0x20 ADD PUSH1 0x0 KECCAK256 SWAP1 POP PUSH2 0x3C7B DUP3 PUSH1 0x0 ADD MLOAD PUSH2 0x2FC2 JUMP JUMPDEST DUP2 SLOAD PUSH5 0xFFFFFFFFFF NOT AND PUSH5 0xFFFFFFFFFF SWAP2 SWAP1 SWAP2 AND OR DUP2 SSTORE PUSH1 0xA0 DUP3 ADD MLOAD PUSH2 0x3CA0 SWAP1 PUSH2 0x191F JUMP JUMPDEST PUSH1 0x2 DUP3 ADD DUP1 SLOAD PUSH1 0x1 PUSH1 0x1 PUSH1 0x50 SHL SUB NOT AND PUSH1 0x1 PUSH1 0x1 PUSH1 0x50 SHL SUB SWAP3 SWAP1 SWAP3 AND SWAP2 SWAP1 SWAP2 OR SWAP1 SSTORE PUSH1 0xC0 DUP3 ADD MLOAD PUSH2 0x3CD0 SWAP1 PUSH2 0x191F JUMP JUMPDEST DUP2 PUSH1 0x2 ADD PUSH1 0xA PUSH2 0x100 EXP DUP2 SLOAD DUP2 PUSH1 0x1 PUSH1 0x1 PUSH1 0x50 SHL SUB MUL NOT AND SWAP1 DUP4 PUSH1 0x1 PUSH1 0x1 PUSH1 0x50 SHL SUB AND MUL OR SWAP1 SSTORE POP PUSH2 0x3D05 DUP3 PUSH1 0xE0 ADD MLOAD PUSH2 0x191F JUMP JUMPDEST DUP2 PUSH1 0x2 ADD PUSH1 0x14 PUSH2 0x100 EXP DUP2 SLOAD DUP2 PUSH1 0x1 PUSH1 0x1 PUSH1 0x50 SHL SUB MUL NOT AND SWAP1 DUP4 PUSH1 0x1 PUSH1 0x1 PUSH1 0x50 SHL SUB AND MUL OR SWAP1 SSTORE POP PUSH2 0x3D3A DUP3 PUSH1 0x20 ADD MLOAD PUSH2 0x4289 JUMP JUMPDEST DUP2 SLOAD PUSH1 0x1 PUSH1 0x1 PUSH1 0x58 SHL SUB SWAP2 SWAP1 SWAP2 AND PUSH1 0x1 PUSH1 0x28 SHL MUL PUSH16 0xFFFFFFFFFFFFFFFFFFFFFF0000000000 NOT SWAP1 SWAP2 AND OR DUP2 SSTORE PUSH1 0x40 DUP3 ADD MLOAD PUSH2 0x3D74 SWAP1 PUSH2 0x4289 JUMP JUMPDEST PUSH1 0x1 DUP3 ADD DUP1 SLOAD PUSH11 0xFFFFFFFFFFFFFFFFFFFFFF NOT AND PUSH1 0x1 PUSH1 0x1 PUSH1 0x58 SHL SUB SWAP3 SWAP1 SWAP3 AND SWAP2 SWAP1 SWAP2 OR SWAP1 SSTORE PUSH1 0x80 DUP3 ADD MLOAD PUSH2 0x3DA8 SWAP1 PUSH2 0x4289 JUMP JUMPDEST DUP2 SLOAD PUSH1 0x1 PUSH1 0x1 PUSH1 0x58 SHL SUB SWAP2 SWAP1 SWAP2 AND PUSH1 0x1 PUSH1 0x80 SHL MUL PUSH11 0xFFFFFFFFFFFFFFFFFFFFFF PUSH1 0x80 SHL NOT SWAP1 SWAP2 AND OR DUP2 SSTORE PUSH1 0x60 DUP3 ADD MLOAD PUSH2 0x3DE0 SWAP1 PUSH2 0x2FD6 JUMP JUMPDEST DUP2 SLOAD PUSH4 0xFFFFFFFF SWAP2 SWAP1 SWAP2 AND PUSH1 0x1 PUSH1 0xD8 SHL MUL PUSH4 0xFFFFFFFF PUSH1 0xD8 SHL NOT SWAP1 SWAP2 AND OR DUP2 SSTORE DUP3 ISZERO PUSH2 0x3E2C JUMPI PUSH1 0x0 PUSH2 0x3E11 DUP5 PUSH2 0xAAA JUMP JUMPDEST SWAP1 POP PUSH2 0x3E1D DUP6 DUP3 PUSH2 0x37F1 JUMP JUMPDEST PUSH2 0x3E2A PUSH2 0xFEE DUP7 DUP4 PUSH2 0x32DA JUMP JUMPDEST POP JUMPDEST DUP4 PUSH2 0xFFFF AND PUSH32 0xEF25641E225E493886510CA1AD6584FA7B442B9FEA820A29D1DE3CE27D270FD2 DUP4 PUSH1 0xA0 ADD MLOAD DUP5 PUSH1 0xC0 ADD MLOAD DUP6 PUSH1 0xE0 ADD MLOAD PUSH1 0x40 MLOAD PUSH2 0x3E70 SWAP4 SWAP3 SWAP2 SWAP1 PUSH2 0x5E56 JUMP JUMPDEST PUSH1 0x40 MLOAD DUP1 SWAP2 SUB SWAP1 LOG2 POP POP POP POP JUMP JUMPDEST PUSH1 0x0 DUP2 PUSH1 0x0 SGT ISZERO DUP1 ISZERO PUSH2 0x3E91 JUMPI POP PUSH1 0xA DUP3 SLT JUMPDEST ISZERO PUSH2 0x3E9E JUMPI POP PUSH1 0x0 PUSH2 0xB12 JUMP JUMPDEST PUSH1 0x0 DUP3 SLT PUSH2 0x3EAB JUMPI PUSH1 0x0 DUP1 REVERT JUMPDEST PUSH2 0xB6B PUSH1 0x1 PUSH2 0x2549 DUP6 PUSH1 0x20 ADD MLOAD PUSH2 0x2AA PUSH15 0xC097CE7BC90715B34B9F1000000000 DUP8 PUSH2 0xAC4 SWAP1 SWAP2 SWAP1 PUSH4 0xFFFFFFFF AND JUMP JUMPDEST PUSH1 0x0 DUP1 PUSH2 0xB12 PUSH1 0x1F PUSH2 0x2AAC JUMP JUMPDEST PUSH1 0x0 PUSH1 0x3 DUP4 PUSH1 0x60 ADD MLOAD PUSH1 0x5 DUP2 GT ISZERO PUSH2 0x3EFB JUMPI INVALID JUMPDEST EQ ISZERO PUSH2 0x3F12 JUMPI POP PUSH1 0x1 PUSH1 0x1 PUSH1 0xA0 SHL SUB DUP2 AND BALANCE PUSH2 0xB12 JUMP JUMPDEST DUP3 MLOAD PUSH1 0x40 MLOAD PUSH4 0x70A08231 PUSH1 0xE0 SHL DUP2 MSTORE PUSH1 0x1 PUSH1 0x1 PUSH1 0xA0 SHL SUB SWAP1 SWAP2 AND SWAP1 PUSH4 0x70A08231 SWAP1 PUSH2 0x3F41 SWAP1 DUP6 SWAP1 PUSH1 0x4 ADD PUSH2 0x5B0C JUMP JUMPDEST PUSH1 0x20 PUSH1 0x40 MLOAD DUP1 DUP4 SUB DUP2 DUP7 DUP1 EXTCODESIZE ISZERO DUP1 ISZERO PUSH2 0x3F59 JUMPI PUSH1 0x0 DUP1 REVERT JUMPDEST POP GAS STATICCALL ISZERO DUP1 ISZERO PUSH2 0x3F6D JUMPI RETURNDATASIZE PUSH1 0x0 DUP1 RETURNDATACOPY RETURNDATASIZE PUSH1 0x0 REVERT JUMPDEST POP POP POP POP PUSH1 0x40 MLOAD RETURNDATASIZE PUSH1 0x1F NOT PUSH1 0x1F DUP3 ADD AND DUP3 ADD DUP1 PUSH1 0x40 MSTORE POP DUP2 ADD SWAP1 PUSH2 0x1EB3 SWAP2 SWAP1 PUSH2 0x59CB JUMP JUMPDEST PUSH1 0x0 DUP1 PUSH1 0x0 DUP7 PUSH1 0x1 PUSH1 0x1 PUSH1 0xA0 SHL SUB AND DUP7 DUP7 PUSH1 0x40 MLOAD DUP1 DUP3 DUP1 MLOAD SWAP1 PUSH1 0x20 ADD SWAP1 DUP1 DUP4 DUP4 JUMPDEST PUSH1 0x20 DUP4 LT PUSH2 0x3FD1 JUMPI DUP1 MLOAD DUP3 MSTORE PUSH1 0x1F NOT SWAP1 SWAP3 ADD SWAP2 PUSH1 0x20 SWAP2 DUP3 ADD SWAP2 ADD PUSH2 0x3FB2 JUMP JUMPDEST PUSH1 0x1 DUP4 PUSH1 0x20 SUB PUSH2 0x100 EXP SUB DUP1 NOT DUP3 MLOAD AND DUP2 DUP5 MLOAD AND DUP1 DUP3 OR DUP6 MSTORE POP POP POP POP POP POP SWAP1 POP ADD SWAP2 POP POP PUSH1 0x0 PUSH1 0x40 MLOAD DUP1 DUP4 SUB DUP2 DUP6 DUP8 GAS CALL SWAP3 POP POP POP RETURNDATASIZE DUP1 PUSH1 0x0 DUP2 EQ PUSH2 0x4033 JUMPI PUSH1 0x40 MLOAD SWAP2 POP PUSH1 0x1F NOT PUSH1 0x3F RETURNDATASIZE ADD AND DUP3 ADD PUSH1 0x40 MSTORE RETURNDATASIZE DUP3 MSTORE RETURNDATASIZE PUSH1 0x0 PUSH1 0x20 DUP5 ADD RETURNDATACOPY PUSH2 0x4038 JUMP JUMPDEST PUSH1 0x60 SWAP2 POP JUMPDEST POP SWAP2 POP SWAP2 POP DUP4 PUSH2 0x40DB JUMPI DUP2 PUSH2 0x404C DUP3 PUSH2 0x49B7 JUMP JUMPDEST SWAP1 PUSH2 0x40D5 JUMPI PUSH1 0x40 MLOAD PUSH3 0x461BCD PUSH1 0xE5 SHL DUP2 MSTORE PUSH1 0x4 ADD DUP1 DUP1 PUSH1 0x20 ADD DUP3 DUP2 SUB DUP3 MSTORE DUP4 DUP2 DUP2 MLOAD DUP2 MSTORE PUSH1 0x20 ADD SWAP2 POP DUP1 MLOAD SWAP1 PUSH1 0x20 ADD SWAP1 DUP1 DUP4 DUP4 PUSH1 0x0 JUMPDEST DUP4 DUP2 LT ISZERO PUSH2 0x409A JUMPI DUP2 DUP2 ADD MLOAD DUP4 DUP3 ADD MSTORE PUSH1 0x20 ADD PUSH2 0x4082 JUMP JUMPDEST POP POP POP POP SWAP1 POP SWAP1 DUP2 ADD SWAP1 PUSH1 0x1F AND DUP1 ISZERO PUSH2 0x40C7 JUMPI DUP1 DUP3 SUB DUP1 MLOAD PUSH1 0x1 DUP4 PUSH1 0x20 SUB PUSH2 0x100 EXP SUB NOT AND DUP2 MSTORE PUSH1 0x20 ADD SWAP2 POP JUMPDEST POP SWAP3 POP POP POP PUSH1 0x40 MLOAD DUP1 SWAP2 SUB SWAP1 REVERT JUMPDEST POP PUSH2 0x1E4C JUMP JUMPDEST DUP7 PUSH1 0x1 PUSH1 0x1 PUSH1 0xA0 SHL SUB AND PUSH32 0x3C7E398C5E91088CAE639370E35B25EA669D81FBDF0DEF5388E73661BC34E08E DUP8 DUP8 PUSH2 0x4111 DUP6 PUSH2 0x49B7 JUMP JUMPDEST PUSH1 0x40 MLOAD DUP1 DUP5 DUP2 MSTORE PUSH1 0x20 ADD DUP1 PUSH1 0x20 ADD DUP1 PUSH1 0x20 ADD DUP4 DUP2 SUB DUP4 MSTORE DUP6 DUP2 DUP2 MLOAD DUP2 MSTORE PUSH1 0x20 ADD SWAP2 POP DUP1 MLOAD SWAP1 PUSH1 0x20 ADD SWAP1 DUP1 DUP4 DUP4 PUSH1 0x0 JUMPDEST DUP4 DUP2 LT ISZERO PUSH2 0x4158 JUMPI DUP2 DUP2 ADD MLOAD DUP4 DUP3 ADD MSTORE PUSH1 0x20 ADD PUSH2 0x4140 JUMP JUMPDEST POP POP POP POP SWAP1 POP SWAP1 DUP2 ADD SWAP1 PUSH1 0x1F AND DUP1 ISZERO PUSH2 0x4185 JUMPI DUP1 DUP3 SUB DUP1 MLOAD PUSH1 0x1 DUP4 PUSH1 0x20 SUB PUSH2 0x100 EXP SUB NOT AND DUP2 MSTORE PUSH1 0x20 ADD SWAP2 POP JUMPDEST POP DUP4 DUP2 SUB DUP3 MSTORE DUP5 MLOAD DUP2 MSTORE DUP5 MLOAD PUSH1 0x20 SWAP2 DUP3 ADD SWAP2 DUP7 ADD SWAP1 DUP1 DUP4 DUP4 PUSH1 0x0 JUMPDEST DUP4 DUP2 LT ISZERO PUSH2 0x41B8 JUMPI DUP2 DUP2 ADD MLOAD DUP4 DUP3 ADD MSTORE PUSH1 0x20 ADD PUSH2 0x41A0 JUMP JUMPDEST POP POP POP POP SWAP1 POP SWAP1 DUP2 ADD SWAP1 PUSH1 0x1F AND DUP1 ISZERO PUSH2 0x41E5 JUMPI DUP1 DUP3 SUB DUP1 MLOAD PUSH1 0x1 DUP4 PUSH1 0x20 SUB PUSH2 0x100 EXP SUB NOT AND DUP2 MSTORE PUSH1 0x20 ADD SWAP2 POP JUMPDEST POP SWAP6 POP POP POP POP POP POP PUSH1 0x40 MLOAD DUP1 SWAP2 SUB SWAP1 LOG2 POP SWAP6 SWAP5 POP POP POP POP POP JUMP JUMPDEST PUSH1 0x0 PUSH2 0x4209 PUSH2 0x2FE9 JUMP JUMPDEST PUSH1 0x1 PUSH1 0x1 PUSH1 0xA0 SHL SUB DUP6 AND PUSH1 0x0 SWAP1 DUP2 MSTORE PUSH1 0x20 DUP3 SWAP1 MSTORE PUSH1 0x40 SWAP1 KECCAK256 SLOAD SWAP1 SWAP2 POP DUP4 DUP2 GT ISZERO PUSH2 0x4232 JUMPI PUSH1 0x0 DUP1 REVERT JUMPDEST PUSH1 0x0 PUSH2 0x4249 PUSH2 0x4240 DUP7 PUSH2 0xAAA JUMP JUMPDEST PUSH2 0x2549 DUP7 PUSH2 0xAAA JUMP JUMPDEST SWAP1 POP PUSH2 0x4258 PUSH2 0xC08 DUP4 DUP4 PUSH2 0x18FA JUMP JUMPDEST PUSH1 0x1 PUSH1 0x1 PUSH1 0xA0 SHL SUB SWAP1 SWAP7 AND PUSH1 0x0 SWAP1 DUP2 MSTORE PUSH1 0x20 SWAP4 SWAP1 SWAP4 MSTORE POP POP PUSH1 0x40 SWAP1 KECCAK256 SWAP3 SWAP1 SWAP3 SSTORE POP POP JUMP JUMPDEST PUSH1 0x0 DUP1 PUSH2 0xB12 PUSH1 0x1D PUSH2 0x2AAC JUMP JUMPDEST PUSH1 0x0 PUSH1 0x1 PUSH1 0x1 PUSH1 0x58 SHL SUB DUP3 GT ISZERO PUSH2 0xAC0 JUMPI PUSH1 0x0 DUP1 REVERT JUMPDEST DUP1 SLOAD PUSH1 0x2 DUP3 ADD SLOAD PUSH1 0x0 SWAP2 PUSH2 0x42DB SWAP2 PUSH1 0x1 PUSH1 0x28 SHL SWAP1 SWAP2 DIV PUSH1 0x1 PUSH1 0x1 PUSH1 0x58 SHL SUB AND SWAP1 PUSH2 0x2A4 SWAP1 PUSH1 0x1 PUSH1 0x1 PUSH1 0x50 SHL SUB PUSH1 0x1 PUSH1 0x50 SHL DUP3 DIV DUP2 AND SWAP2 AND PUSH2 0xAC4 JUMP JUMPDEST PUSH1 0x1 DUP4 ADD SLOAD PUSH1 0x2 DUP5 ADD SLOAD SWAP2 SWAP3 POP PUSH1 0x0 SWAP2 PUSH2 0x4315 SWAP2 PUSH1 0x1 PUSH1 0x1 PUSH1 0x58 SHL SUB AND SWAP1 PUSH2 0x2A4 SWAP1 PUSH1 0x1 PUSH1 0x1 PUSH1 0x50 SHL SUB PUSH1 0x1 PUSH1 0xA0 SHL DUP3 DIV DUP2 AND SWAP2 AND PUSH2 0xAC4 JUMP JUMPDEST DUP4 SLOAD SWAP1 SWAP2 POP PUSH1 0x0 SWAP1 PUSH2 0x434C SWAP1 PUSH1 0x1 PUSH1 0x1 PUSH1 0x1 PUSH1 0x58 SHL SUB PUSH1 0x1 PUSH1 0x80 SHL SWAP1 SWAP3 DIV DUP3 AND ADD AND PUSH15 0xC097CE7BC90715B34B9F1000000000 PUSH2 0xAC4 JUMP JUMPDEST SWAP1 POP DUP1 PUSH2 0x4359 DUP5 DUP5 PUSH2 0x36AB JUMP JUMPDEST SGT ISZERO PUSH2 0x1D92 JUMPI PUSH1 0x0 DUP1 REVERT JUMPDEST PUSH1 0x0 DUP2 DUP4 EQ DUP1 PUSH2 0x4381 JUMPI POP PUSH1 0x0 DUP4 SLT ISZERO DUP1 ISZERO PUSH2 0x4381 JUMPI POP PUSH1 0x0 DUP3 SLT ISZERO JUMPDEST ISZERO PUSH2 0x438E JUMPI POP PUSH1 0x0 PUSH2 0xB12 JUMP JUMPDEST PUSH1 0x0 DUP4 SGT ISZERO DUP1 ISZERO PUSH2 0x439F JUMPI POP DUP2 PUSH1 0x0 SLT JUMPDEST ISZERO PUSH2 0x43AB JUMPI POP DUP2 PUSH2 0xB12 JUMP JUMPDEST PUSH1 0x0 DUP3 SGT ISZERO DUP1 ISZERO PUSH2 0x43BC JUMPI POP DUP3 PUSH1 0x0 SLT JUMPDEST ISZERO PUSH2 0x43CA JUMPI PUSH2 0x1EB3 DUP3 PUSH2 0xB9E JUMP JUMPDEST PUSH1 0x0 DUP4 SGT ISZERO DUP1 ISZERO PUSH2 0x43DC JUMPI POP PUSH1 0x0 DUP3 SGT ISZERO JUMPDEST ISZERO PUSH2 0x70 JUMPI PUSH2 0x1EB3 DUP4 DUP4 PUSH2 0x36AB JUMP JUMPDEST DUP1 ISZERO PUSH2 0x1D92 JUMPI DUP4 MLOAD PUSH1 0x20 DUP6 ADD MLOAD PUSH1 0x0 SWAP2 PUSH2 0x440A SWAP2 PUSH2 0x2AA SWAP1 DUP6 SWAP1 PUSH2 0xAC4 JUMP JUMPDEST SWAP1 POP PUSH2 0xEF0 DUP5 DUP5 DUP5 DUP5 PUSH2 0x4ABE JUMP JUMPDEST PUSH1 0x0 PUSH2 0x4424 DUP4 DUP4 PUSH2 0x4364 JUMP JUMPDEST SWAP1 POP DUP1 PUSH2 0x4431 JUMPI POP PUSH2 0xEF0 JUMP JUMPDEST PUSH1 0x0 PUSH2 0x443B PUSH2 0x4BFB JUMP JUMPDEST PUSH2 0xFFFF DUP8 AND PUSH1 0x0 SWAP1 DUP2 MSTORE PUSH1 0x20 DUP3 DUP2 MSTORE PUSH1 0x40 DUP1 DUP4 KECCAK256 DUP10 DUP5 MSTORE SWAP1 SWAP2 MSTORE DUP2 KECCAK256 SLOAD SWAP2 SWAP3 POP PUSH1 0x1 PUSH1 0x1 PUSH1 0x50 SHL SUB SWAP1 SWAP2 AND DUP2 SUB SWAP1 PUSH2 0x4473 DUP3 DUP6 PUSH2 0x36AB JUMP JUMPDEST SWAP1 POP PUSH1 0x0 DUP2 SGT ISZERO PUSH2 0x4483 JUMPI PUSH1 0x0 DUP1 REVERT JUMPDEST PUSH2 0x4492 PUSH2 0xC0D PUSH2 0xC08 DUP4 PUSH2 0xB9E JUMP JUMPDEST PUSH2 0xFFFF DUP10 AND PUSH1 0x0 SWAP1 DUP2 MSTORE PUSH1 0x20 DUP6 DUP2 MSTORE PUSH1 0x40 DUP1 DUP4 KECCAK256 DUP12 DUP5 MSTORE SWAP1 SWAP2 MSTORE SWAP1 KECCAK256 DUP1 SLOAD PUSH1 0x1 PUSH1 0x1 PUSH1 0x50 SHL SUB NOT AND PUSH1 0x1 PUSH1 0x1 PUSH1 0x50 SHL SUB SWAP3 SWAP1 SWAP3 AND SWAP2 SWAP1 SWAP2 OR SWAP1 SSTORE PUSH2 0xDAC DUP10 DUP10 DUP10 DUP8 PUSH2 0x4C08 JUMP JUMPDEST PUSH1 0x0 PUSH2 0x44E2 PUSH2 0x4C6E JUMP JUMPDEST PUSH1 0x1 PUSH1 0x1 PUSH1 0xA0 SHL SUB DUP6 AND PUSH1 0x0 SWAP1 DUP2 MSTORE PUSH1 0x20 SWAP2 DUP3 MSTORE PUSH1 0x40 DUP1 DUP3 KECCAK256 PUSH2 0xFFFF DUP8 AND DUP4 MSTORE SWAP1 SWAP3 MSTORE SWAP1 DUP2 KECCAK256 DUP1 SLOAD SWAP1 SWAP3 POP PUSH2 0x4527 SWAP1 PUSH1 0x1 PUSH1 0x50 SHL SWAP1 DIV PUSH1 0x1 PUSH1 0x1 PUSH1 0x50 SHL SUB AND DUP5 PUSH2 0x36AB JUMP JUMPDEST SWAP1 POP PUSH2 0x4535 PUSH2 0xC0D DUP3 PUSH2 0x1910 JUMP JUMPDEST DUP3 SLOAD PUSH1 0x1 PUSH1 0x1 PUSH1 0x50 SHL SUB SWAP2 SWAP1 SWAP2 AND PUSH1 0x1 PUSH1 0x50 SHL MUL PUSH10 0xFFFFFFFFFFFFFFFFFFFF PUSH1 0x50 SHL NOT SWAP1 SWAP2 AND OR DUP3 SSTORE PUSH1 0x40 MLOAD PUSH2 0xFFFF DUP6 AND SWAP1 PUSH1 0x1 PUSH1 0x1 PUSH1 0xA0 SHL SUB DUP8 AND SWAP1 PUSH32 0x20478EF460E49D010960D4F3FFF35D8DAE385443ABFAC09035D6A2CCBCD834C4 SWAP1 PUSH2 0x459F SWAP1 DUP6 SWAP1 PUSH2 0x5BE1 JUMP JUMPDEST PUSH1 0x40 MLOAD DUP1 SWAP2 SUB SWAP1 LOG3 POP POP POP POP POP JUMP JUMPDEST PUSH1 0x0 DUP1 DUP5 PUSH1 0x40 ADD MLOAD PUSH2 0xFFFF AND DUP4 PUSH2 0xFFFF AND EQ ISZERO PUSH2 0x45FA JUMPI PUSH2 0x45CD PUSH2 0x29D5 JUMP JUMPDEST DUP6 MLOAD PUSH1 0x1 PUSH1 0x1 PUSH1 0xA0 SHL SUB AND PUSH1 0x0 SWAP1 DUP2 MSTORE PUSH1 0x20 SWAP2 DUP3 MSTORE PUSH1 0x40 DUP1 DUP3 KECCAK256 PUSH5 0xFFFFFFFFFF DUP4 MSTORE SWAP1 SWAP3 MSTORE KECCAK256 SWAP1 POP PUSH2 0x4637 JUMP JUMPDEST PUSH2 0x4602 PUSH2 0x46D0 JUMP JUMPDEST DUP6 MLOAD PUSH1 0x1 PUSH1 0x1 PUSH1 0xA0 SHL SUB AND PUSH1 0x0 SWAP1 DUP2 MSTORE PUSH1 0x20 SWAP2 DUP3 MSTORE PUSH1 0x40 DUP1 DUP3 KECCAK256 PUSH5 0xFFFFFFFFFF DUP4 MSTORE DUP4 MSTORE DUP1 DUP3 KECCAK256 PUSH2 0xFFFF DUP8 AND DUP4 MSTORE SWAP1 SWAP3 MSTORE KECCAK256 SWAP1 POP JUMPDEST DUP1 SLOAD PUSH2 0xE57 SWAP1 DUP6 SWAP1 PUSH5 0xFFFFFFFFFF SWAP1 PUSH1 0x1 PUSH1 0x1 PUSH1 0x50 SHL SUB AND PUSH2 0x2856 JUMP JUMPDEST PUSH1 0x0 PUSH2 0x465E PUSH2 0x4C6E JUMP JUMPDEST PUSH1 0x1 PUSH1 0x1 PUSH1 0xA0 SHL SUB DUP6 AND PUSH1 0x0 SWAP1 DUP2 MSTORE PUSH1 0x20 SWAP2 DUP3 MSTORE PUSH1 0x40 DUP1 DUP3 KECCAK256 PUSH2 0xFFFF DUP8 AND DUP4 MSTORE SWAP1 SWAP3 MSTORE SWAP1 DUP2 KECCAK256 DUP1 SLOAD SWAP1 SWAP3 POP PUSH2 0x46A3 SWAP1 PUSH1 0x1 PUSH1 0x50 SHL SWAP1 DIV PUSH1 0x1 PUSH1 0x1 PUSH1 0x50 SHL SUB AND DUP5 PUSH2 0x36AB JUMP JUMPDEST DUP3 SLOAD SWAP1 SWAP2 POP PUSH1 0x1 PUSH1 0x1 PUSH1 0x50 SHL SUB AND DUP2 SGT ISZERO PUSH2 0xEF0 JUMPI PUSH1 0x40 MLOAD PUSH3 0x461BCD PUSH1 0xE5 SHL DUP2 MSTORE PUSH1 0x4 ADD PUSH2 0x8C8 SWAP1 PUSH2 0x5C5F JUMP JUMPDEST PUSH1 0x0 DUP1 PUSH2 0xB12 PUSH1 0x18 PUSH2 0x2AAC JUMP JUMPDEST DUP1 PUSH2 0x46E7 JUMPI PUSH2 0xEF0 JUMP JUMPDEST PUSH1 0x0 DUP1 DUP1 PUSH2 0x46F8 DUP8 DUP8 DUP8 PUSH1 0xA PUSH2 0x1E56 JUMP JUMPDEST SWAP1 POP PUSH1 0x0 DUP5 SGT ISZERO PUSH2 0x470F JUMPI DUP8 SWAP3 POP PUSH1 0x0 SWAP2 POP PUSH2 0x4717 JUMP JUMPDEST PUSH1 0x0 SWAP3 POP DUP8 SWAP2 POP JUMPDEST PUSH1 0x1 PUSH1 0x1 PUSH1 0xA0 SHL SUB DUP1 DUP4 AND SWAP1 DUP5 AND CALLER PUSH1 0x0 DUP1 MLOAD PUSH1 0x20 PUSH2 0x5EFE DUP4 CODECOPY DUP2 MLOAD SWAP2 MSTORE DUP5 PUSH2 0x473F DUP10 PUSH2 0x1BB0 JUMP JUMPDEST PUSH1 0x40 MLOAD PUSH2 0x474D SWAP3 SWAP2 SWAP1 PUSH2 0x5E48 JUMP JUMPDEST PUSH1 0x40 MLOAD DUP1 SWAP2 SUB SWAP1 LOG4 POP POP POP POP POP POP POP POP JUMP JUMPDEST PUSH1 0x0 DUP1 PUSH2 0x476A PUSH2 0x4C7B JUMP JUMPDEST PUSH1 0x1 PUSH1 0x1 PUSH1 0xA0 SHL SUB DUP6 AND PUSH1 0x0 SWAP1 DUP2 MSTORE PUSH1 0x20 DUP3 DUP2 MSTORE PUSH1 0x40 DUP1 DUP4 KECCAK256 PUSH2 0xFFFF DUP9 AND DUP5 MSTORE SWAP1 SWAP2 MSTORE DUP2 KECCAK256 DUP1 SLOAD PUSH1 0x1 PUSH1 0xA8 SHL SWAP1 DIV PUSH1 0xA SWAP1 DUP2 SIGNEXTEND SWAP1 SIGNEXTEND SWAP5 POP SWAP2 SWAP3 POP DUP4 SLT ISZERO PUSH2 0x47B0 JUMPI PUSH1 0x0 DUP1 REVERT JUMPDEST POP POP SWAP3 SWAP2 POP POP JUMP JUMPDEST PUSH1 0x0 DUP2 SLT ISZERO PUSH2 0x47C6 JUMPI PUSH1 0x0 DUP1 REVERT JUMPDEST PUSH1 0x0 PUSH2 0x47D0 PUSH2 0x4C7B JUMP JUMPDEST PUSH1 0x1 PUSH1 0x1 PUSH1 0xA0 SHL SUB DUP6 AND PUSH1 0x0 SWAP1 DUP2 MSTORE PUSH1 0x20 DUP3 DUP2 MSTORE PUSH1 0x40 DUP1 DUP4 KECCAK256 PUSH2 0xFFFF DUP9 AND DUP5 MSTORE SWAP1 SWAP2 MSTORE SWAP1 KECCAK256 SWAP1 SWAP2 POP PUSH2 0x4801 DUP4 PUSH2 0x4C88 JUMP JUMPDEST DUP2 SLOAD PUSH1 0xA SWAP2 SWAP1 SWAP2 SIGNEXTEND PUSH1 0x1 PUSH1 0x1 PUSH1 0x58 SHL SUB AND PUSH1 0x1 PUSH1 0xA8 SHL MUL PUSH1 0x1 PUSH1 0x1 PUSH1 0xA8 SHL SUB SWAP1 SWAP2 AND OR SWAP1 SSTORE POP POP POP POP JUMP JUMPDEST PUSH1 0x0 DUP1 PUSH2 0x4837 PUSH2 0x485F JUMP JUMPDEST PUSH1 0x0 SWAP4 DUP5 MSTORE PUSH1 0x20 MSTORE POP POP PUSH1 0x40 SWAP1 KECCAK256 SLOAD PUSH1 0x1 PUSH1 0x1 PUSH1 0xA0 SHL SUB AND SWAP1 JUMP JUMPDEST PUSH1 0x0 DUP1 PUSH2 0xB12 PUSH1 0x22 PUSH2 0x2AAC JUMP JUMPDEST PUSH1 0x0 DUP1 PUSH2 0xB12 PUSH1 0x3 PUSH2 0x2AAC JUMP JUMPDEST PUSH1 0x0 DUP1 PUSH1 0x0 DUP1 PUSH1 0x0 DUP1 PUSH2 0x487F DUP10 DUP9 PUSH2 0x4CBA JUMP JUMPDEST DUP10 MLOAD SWAP1 SWAP6 POP SWAP2 SWAP4 POP SWAP2 POP PUSH1 0x0 SWAP1 PUSH2 0x48A6 SWAP1 PUSH2 0x489B SWAP1 DUP12 SWAP1 PUSH2 0x1497 JUMP JUMPDEST PUSH4 0x3B9ACA00 SWAP1 PUSH2 0x36DB JUMP JUMPDEST SWAP1 POP PUSH2 0x48E0 PUSH2 0x48D5 PUSH4 0x1DA9C00 PUSH2 0x48BD DUP6 DUP6 PUSH2 0x36DB JUMP JUMPDEST DUP2 PUSH2 0x48C4 JUMPI INVALID JUMPDEST PUSH8 0xDE0B6B3A7640000 SWAP2 SWAP1 DIV PUSH2 0x255A JUMP JUMPDEST PUSH1 0xE0 DUP11 ADD MLOAD SWAP1 PUSH2 0x499A JUMP JUMPDEST SWAP7 POP PUSH2 0x4902 PUSH2 0x48F7 PUSH4 0x1DA9C00 PUSH2 0x48BD DUP8 DUP6 PUSH2 0x36DB JUMP JUMPDEST PUSH1 0xC0 DUP11 ADD MLOAD SWAP1 PUSH2 0x499A JUMP JUMPDEST SWAP6 POP DUP2 DUP4 EQ ISZERO PUSH2 0x4919 JUMPI POP PUSH1 0x0 SWAP4 POP PUSH2 0x4974 SWAP2 POP POP JUMP JUMPDEST PUSH1 0x0 PUSH2 0x493B PUSH2 0x4930 PUSH4 0x1DA9C00 PUSH2 0x48BD DUP8 DUP7 PUSH2 0x36DB JUMP JUMPDEST PUSH1 0xE0 DUP12 ADD MLOAD SWAP1 PUSH2 0x499A JUMP JUMPDEST SWAP1 POP PUSH1 0x0 PUSH2 0x4949 DUP10 DUP4 PUSH2 0x1497 JUMP JUMPDEST SWAP1 POP PUSH2 0x496C DUP9 PUSH2 0x4966 DUP4 DUP14 PUSH1 0x40 ADD MLOAD PUSH2 0x36DB SWAP1 SWAP2 SWAP1 PUSH4 0xFFFFFFFF AND JUMP JUMPDEST SWAP1 PUSH2 0x4D55 JUMP JUMPDEST SWAP7 POP POP POP POP POP POP JUMPDEST SWAP4 POP SWAP4 POP SWAP4 POP SWAP4 JUMP JUMPDEST PUSH1 0x0 PUSH2 0xB6B PUSH2 0x4994 DUP5 PUSH8 0xDE0B6B3A7640000 PUSH2 0x36DB JUMP JUMPDEST DUP4 PUSH2 0x4D55 JUMP JUMPDEST PUSH1 0x0 PUSH2 0xB6B PUSH2 0x49A9 DUP5 DUP5 PUSH2 0x36DB JUMP JUMPDEST PUSH8 0xDE0B6B3A7640000 PUSH2 0x4D55 JUMP JUMPDEST PUSH1 0x60 PUSH1 0x44 DUP3 MLOAD LT ISZERO PUSH2 0x49ED JUMPI POP PUSH1 0x40 DUP1 MLOAD DUP1 DUP3 ADD SWAP1 SWAP2 MSTORE PUSH1 0xD DUP2 MSTORE PUSH13 0x14DA5B195B9D0814995D995C9D PUSH1 0x9A SHL PUSH1 0x20 DUP3 ADD MSTORE PUSH2 0x937 JUMP JUMPDEST PUSH1 0x4 DUP3 ADD DUP1 MLOAD SWAP1 SWAP3 PUSH1 0x24 ADD SWAP1 PUSH1 0x20 DUP2 LT ISZERO PUSH2 0x4A07 JUMPI PUSH1 0x0 DUP1 REVERT JUMPDEST DUP2 ADD SWAP1 DUP1 DUP1 MLOAD PUSH1 0x40 MLOAD SWAP4 SWAP3 SWAP2 SWAP1 DUP5 PUSH5 0x100000000 DUP3 GT ISZERO PUSH2 0x4A27 JUMPI PUSH1 0x0 DUP1 REVERT JUMPDEST SWAP1 DUP4 ADD SWAP1 PUSH1 0x20 DUP3 ADD DUP6 DUP2 GT ISZERO PUSH2 0x4A3C JUMPI PUSH1 0x0 DUP1 REVERT JUMPDEST DUP3 MLOAD PUSH5 0x100000000 DUP2 GT DUP3 DUP3 ADD DUP9 LT OR ISZERO PUSH2 0x4A56 JUMPI PUSH1 0x0 DUP1 REVERT JUMPDEST DUP3 MSTORE POP DUP2 MLOAD PUSH1 0x20 SWAP2 DUP3 ADD SWAP3 SWAP1 SWAP2 ADD SWAP1 DUP1 DUP4 DUP4 PUSH1 0x0 JUMPDEST DUP4 DUP2 LT ISZERO PUSH2 0x4A83 JUMPI DUP2 DUP2 ADD MLOAD DUP4 DUP3 ADD MSTORE PUSH1 0x20 ADD PUSH2 0x4A6B JUMP JUMPDEST POP POP POP POP SWAP1 POP SWAP1 DUP2 ADD SWAP1 PUSH1 0x1F AND DUP1 ISZERO PUSH2 0x4AB0 JUMPI DUP1 DUP3 SUB DUP1 MLOAD PUSH1 0x1 DUP4 PUSH1 0x20 SUB PUSH2 0x100 EXP SUB NOT AND DUP2 MSTORE PUSH1 0x20 ADD SWAP2 POP JUMPDEST POP PUSH1 0x40 MSTORE POP POP POP SWAP1 POP SWAP2 SWAP1 POP JUMP JUMPDEST PUSH1 0x0 PUSH2 0x4AC8 PUSH2 0x427C JUMP JUMPDEST PUSH2 0xFFFF DUP6 AND PUSH1 0x0 SWAP1 DUP2 MSTORE PUSH1 0x20 SWAP2 SWAP1 SWAP2 MSTORE PUSH1 0x40 SWAP1 KECCAK256 DUP1 SLOAD SWAP1 SWAP2 POP PUSH5 0xFFFFFFFFFF AND TIMESTAMP EQ PUSH2 0x4AF3 JUMPI PUSH1 0x0 DUP1 REVERT JUMPDEST DUP1 SLOAD PUSH1 0x1 PUSH1 0xF8 SHL SWAP1 DIV PUSH1 0xFF AND PUSH2 0x4B08 JUMPI PUSH1 0x0 DUP1 REVERT JUMPDEST PUSH1 0x1 DUP2 ADD SLOAD PUSH1 0x0 SWAP1 PUSH2 0x4B23 SWAP1 PUSH1 0x1 PUSH1 0x1 PUSH1 0x58 SHL SUB AND DUP6 PUSH2 0x18FA JUMP JUMPDEST DUP3 SLOAD SWAP1 SWAP2 POP PUSH1 0x0 SWAP1 PUSH2 0x4B45 SWAP1 PUSH1 0x1 PUSH1 0x28 SHL SWAP1 DIV PUSH1 0x1 PUSH1 0x1 PUSH1 0x58 SHL SUB AND DUP6 PUSH2 0x18FA JUMP JUMPDEST SWAP1 POP DUP2 PUSH1 0x9 NOT SLT DUP1 ISZERO PUSH2 0x4B58 JUMPI POP PUSH1 0x0 DUP3 SLT JUMPDEST ISZERO PUSH2 0x4B62 JUMPI PUSH1 0x0 SWAP2 POP JUMPDEST DUP1 PUSH1 0x9 NOT SLT DUP1 ISZERO PUSH2 0x4B73 JUMPI POP PUSH1 0x0 DUP2 SLT JUMPDEST ISZERO PUSH2 0x4B7C JUMPI POP PUSH1 0x0 JUMPDEST PUSH2 0x4B88 PUSH2 0x33EE DUP4 PUSH2 0x1910 JUMP JUMPDEST PUSH1 0x1 DUP5 ADD DUP1 SLOAD PUSH11 0xFFFFFFFFFFFFFFFFFFFFFF NOT AND PUSH1 0x1 PUSH1 0x1 PUSH1 0x58 SHL SUB SWAP3 SWAP1 SWAP3 AND SWAP2 SWAP1 SWAP2 OR SWAP1 SSTORE PUSH2 0x4BBA PUSH2 0x33EE DUP3 PUSH2 0x1910 JUMP JUMPDEST DUP4 SLOAD PUSH1 0x1 PUSH1 0x1 PUSH1 0x58 SHL SUB SWAP2 SWAP1 SWAP2 AND PUSH1 0x1 PUSH1 0x28 SHL MUL PUSH16 0xFFFFFFFFFFFFFFFFFFFFFF0000000000 NOT SWAP1 SWAP2 AND OR DUP4 SSTORE PUSH2 0x4BF2 DUP8 DUP8 DUP7 DUP9 PUSH2 0x386C JUMP JUMPDEST PUSH2 0xD08 DUP4 PUSH2 0x429F JUMP JUMPDEST PUSH1 0x0 DUP1 PUSH2 0xB12 PUSH1 0x20 PUSH2 0x2AAC JUMP JUMPDEST PUSH1 0x0 DUP1 PUSH2 0x4C16 DUP6 DUP6 DUP6 PUSH2 0x4D74 JUMP JUMPDEST SWAP2 POP SWAP2 POP PUSH1 0x0 DUP1 PUSH1 0x0 DUP6 SLT ISZERO PUSH2 0x4C2E JUMPI DUP8 SWAP2 POP PUSH2 0x4C31 JUMP JUMPDEST POP DUP7 JUMPDEST DUP1 PUSH1 0x1 PUSH1 0x1 PUSH1 0xA0 SHL SUB AND DUP3 PUSH1 0x1 PUSH1 0x1 PUSH1 0xA0 SHL SUB AND CALLER PUSH1 0x1 PUSH1 0x1 PUSH1 0xA0 SHL SUB AND PUSH1 0x0 DUP1 MLOAD PUSH1 0x20 PUSH2 0x5EDE DUP4 CODECOPY DUP2 MLOAD SWAP2 MSTORE DUP8 DUP8 PUSH1 0x40 MLOAD PUSH2 0x474D SWAP3 SWAP2 SWAP1 PUSH2 0x5BBC JUMP JUMPDEST PUSH1 0x0 DUP1 PUSH2 0xB12 PUSH1 0x17 PUSH2 0x2AAC JUMP JUMPDEST PUSH1 0x0 DUP1 PUSH2 0xB12 PUSH1 0x6 PUSH2 0x2AAC JUMP JUMPDEST PUSH1 0x0 PUSH11 0x7FFFFFFFFFFFFFFFFFFFFF NOT DUP3 SLT DUP1 ISZERO SWAP1 PUSH2 0x4CB1 JUMPI POP PUSH11 0x7FFFFFFFFFFFFFFFFFFFFF DUP3 SGT ISZERO JUMPDEST PUSH2 0xAC0 JUMPI PUSH1 0x0 DUP1 REVERT JUMPDEST PUSH1 0x0 DUP1 PUSH1 0x0 DUP1 PUSH1 0x0 DUP6 PUSH1 0x20 ADD MLOAD GT ISZERO PUSH2 0x4D07 JUMPI PUSH2 0x4D04 PUSH2 0x4CEB DUP7 PUSH1 0xC0 ADD MLOAD DUP8 PUSH1 0x20 ADD MLOAD PUSH2 0x36DB SWAP1 SWAP2 SWAP1 PUSH4 0xFFFFFFFF AND JUMP JUMPDEST PUSH1 0xE0 DUP8 ADD MLOAD PUSH1 0x40 DUP9 ADD MLOAD PUSH2 0x4CFE SWAP2 PUSH2 0x36DB JUMP JUMPDEST SWAP1 PUSH2 0x4E59 JUMP JUMPDEST SWAP1 POP JUMPDEST PUSH1 0x0 PUSH2 0x4D12 DUP8 PUSH2 0x4E6C JUMP JUMPDEST SWAP1 POP PUSH2 0x4D1E DUP2 DUP4 PUSH2 0x4E9F JUMP JUMPDEST SWAP5 POP DUP2 ISZERO PUSH2 0x4D35 JUMPI PUSH2 0x4D32 DUP2 DUP7 PUSH1 0x1 PUSH2 0x4F58 JUMP JUMPDEST SWAP4 POP JUMPDEST PUSH1 0x20 DUP7 ADD MLOAD ISZERO PUSH2 0x4D4C JUMPI PUSH2 0x4D49 DUP6 DUP4 PUSH2 0x4FD2 JUMP JUMPDEST SWAP3 POP JUMPDEST POP POP SWAP3 POP SWAP3 POP SWAP3 JUMP JUMPDEST PUSH1 0x0 DUP1 DUP3 GT PUSH2 0x4D63 JUMPI PUSH1 0x0 DUP1 REVERT JUMPDEST DUP2 DUP4 DUP2 PUSH2 0x4D6C JUMPI INVALID JUMPDEST DIV SWAP4 SWAP3 POP POP POP JUMP JUMPDEST PUSH1 0x40 DUP1 MLOAD PUSH1 0x2 DUP1 DUP3 MSTORE PUSH1 0x60 DUP3 DUP2 ADD SWAP1 SWAP4 MSTORE DUP3 SWAP2 PUSH1 0x0 SWAP2 DUP2 PUSH1 0x20 ADD PUSH1 0x20 DUP3 MUL DUP1 CALLDATASIZE DUP4 CALLDATACOPY ADD SWAP1 POP POP SWAP1 POP PUSH1 0x0 PUSH2 0x4DA8 DUP8 DUP8 PUSH2 0x4FEB JUMP JUMPDEST SWAP1 POP DUP1 DUP3 PUSH1 0x0 DUP2 MLOAD DUP2 LT PUSH2 0x4DB8 JUMPI INVALID JUMPDEST PUSH1 0x20 MUL PUSH1 0x20 ADD ADD DUP2 DUP2 MSTORE POP POP PUSH1 0x1 PUSH1 0x40 SHL DUP2 OR DUP3 PUSH1 0x1 DUP2 MLOAD DUP2 LT PUSH2 0x4DD8 JUMPI INVALID JUMPDEST PUSH1 0x20 SWAP1 DUP2 MUL SWAP2 SWAP1 SWAP2 ADD ADD MSTORE PUSH1 0x40 DUP1 MLOAD PUSH1 0x2 DUP1 DUP3 MSTORE PUSH1 0x60 DUP3 ADD SWAP1 SWAP3 MSTORE PUSH1 0x0 SWAP2 DUP2 PUSH1 0x20 ADD PUSH1 0x20 DUP3 MUL DUP1 CALLDATASIZE DUP4 CALLDATACOPY ADD SWAP1 POP POP SWAP1 POP PUSH2 0x4E11 DUP7 PUSH2 0x1BB0 JUMP JUMPDEST DUP2 PUSH1 0x0 DUP2 MLOAD DUP2 LT PUSH2 0x4E1E JUMPI INVALID JUMPDEST PUSH1 0x20 MUL PUSH1 0x20 ADD ADD DUP2 DUP2 MSTORE POP POP PUSH2 0x4E33 DUP7 PUSH2 0x1BB0 JUMP JUMPDEST DUP2 PUSH1 0x1 DUP2 MLOAD DUP2 LT PUSH2 0x4E40 JUMPI INVALID JUMPDEST PUSH1 0x20 SWAP1 DUP2 MUL SWAP2 SWAP1 SWAP2 ADD ADD MSTORE SWAP2 SWAP8 SWAP2 SWAP7 POP SWAP1 SWAP5 POP POP POP POP POP JUMP JUMPDEST PUSH1 0x0 PUSH2 0xB6B PUSH2 0x4994 DUP5 PUSH4 0x3B9ACA00 PUSH2 0x36DB JUMP JUMPDEST PUSH2 0x4E74 PUSH2 0x53B9 JUMP JUMPDEST PUSH1 0x0 PUSH2 0x4E7E PUSH2 0x5009 JUMP JUMPDEST PUSH2 0xFFFF DUP5 AND PUSH1 0x0 SWAP1 DUP2 MSTORE PUSH1 0x20 SWAP2 SWAP1 SWAP2 MSTORE PUSH1 0x40 DUP2 KECCAK256 SLOAD SWAP2 POP PUSH2 0xB6B SWAP1 DUP3 PUSH2 0x5016 JUMP JUMPDEST PUSH1 0x0 DUP1 DUP4 PUSH1 0x80 ADD MLOAD GT PUSH2 0x4EB1 JUMPI PUSH1 0x0 DUP1 REVERT JUMPDEST PUSH4 0x3B9ACA00 DUP3 GT ISZERO PUSH2 0x4EC2 JUMPI PUSH1 0x0 DUP1 REVERT JUMPDEST DUP3 MLOAD DUP3 GT PUSH2 0x4EE1 JUMPI DUP3 MLOAD PUSH1 0x40 DUP5 ADD MLOAD PUSH2 0x1EB3 SWAP2 SWAP1 PUSH2 0x4966 SWAP1 DUP6 SWAP1 PUSH2 0x36DB JUMP JUMPDEST DUP3 PUSH1 0x20 ADD MLOAD DUP3 GT PUSH2 0x4F1F JUMPI PUSH1 0x40 DUP4 ADD MLOAD DUP4 MLOAD PUSH1 0x20 DUP6 ADD MLOAD PUSH1 0x60 DUP7 ADD MLOAD PUSH2 0x1EB3 SWAP4 SWAP3 PUSH2 0x4F19 SWAP3 DUP2 SWAP1 SUB SWAP2 PUSH2 0x4966 SWAP2 DUP9 SUB SWAP1 DUP6 SWAP1 SUB PUSH2 0x36DB JUMP JUMPDEST SWAP1 PUSH2 0x255A JUMP JUMPDEST PUSH2 0xB6B DUP4 PUSH1 0x60 ADD MLOAD PUSH2 0x4F19 DUP6 PUSH1 0x20 ADD MLOAD PUSH4 0x3B9ACA00 SUB PUSH2 0x4966 DUP8 PUSH1 0x60 ADD MLOAD DUP9 PUSH1 0x80 ADD MLOAD SUB DUP9 PUSH1 0x20 ADD MLOAD DUP9 SUB PUSH2 0x36DB SWAP1 SWAP2 SWAP1 PUSH4 0xFFFFFFFF AND JUMP JUMPDEST PUSH1 0x0 DUP1 PUSH2 0x4F77 PUSH1 0x64 PUSH2 0x4966 DUP8 PUSH1 0xE0 ADD MLOAD DUP8 PUSH2 0x36DB SWAP1 SWAP2 SWAP1 PUSH4 0xFFFFFFFF AND JUMP JUMPDEST SWAP1 POP DUP5 PUSH1 0xA0 ADD MLOAD DUP2 LT ISZERO PUSH2 0x4F8C JUMPI POP PUSH1 0xA0 DUP5 ADD MLOAD JUMPDEST DUP5 PUSH1 0xC0 ADD MLOAD DUP2 GT ISZERO PUSH2 0x4F9F JUMPI POP PUSH1 0xC0 DUP5 ADD MLOAD JUMPDEST DUP3 ISZERO PUSH2 0x4FB6 JUMPI PUSH2 0x4FAF DUP5 DUP3 PUSH2 0x255A JUMP JUMPDEST SWAP2 POP PUSH2 0x4FCA JUMP JUMPDEST DUP4 DUP2 GT PUSH2 0x4FC5 JUMPI DUP1 DUP5 SUB PUSH2 0xE57 JUMP JUMPDEST PUSH1 0x0 SWAP2 POP JUMPDEST POP SWAP4 SWAP3 POP POP POP JUMP JUMPDEST PUSH1 0x0 PUSH2 0xB6B PUSH2 0x4FE1 DUP5 DUP5 PUSH2 0x36DB JUMP JUMPDEST PUSH4 0x3B9ACA00 PUSH2 0x4D55 JUMP JUMPDEST PUSH8 0xFFFF000000000000 PUSH1 0x30 DUP4 SWAP1 SHL AND PUSH1 0x8 DUP3 SWAP1 SHL OR PUSH1 0x1 OR SWAP3 SWAP2 POP POP JUMP JUMPDEST PUSH1 0x0 DUP1 PUSH2 0xB12 PUSH1 0x1B PUSH2 0x2AAC JUMP JUMPDEST PUSH2 0x501E PUSH2 0x53B9 JUMP JUMPDEST PUSH1 0x64 PUSH4 0x3B9ACA00 DUP4 PUSH1 0xFF DUP7 AND PUSH1 0x20 DUP2 LT PUSH2 0x5034 JUMPI INVALID JUMPDEST BYTE MUL DUP2 PUSH2 0x503D JUMPI INVALID JUMPDEST DIV DUP2 MSTORE PUSH1 0x64 PUSH4 0x3B9ACA00 DUP4 PUSH1 0xFF DUP7 AND PUSH1 0x1 ADD PUSH1 0x20 DUP2 LT PUSH2 0x5059 JUMPI INVALID JUMPDEST BYTE MUL DUP2 PUSH2 0x5062 JUMPI INVALID JUMPDEST DIV DUP2 PUSH1 0x20 ADD DUP2 DUP2 MSTORE POP POP PUSH2 0x5087 DUP3 PUSH1 0x2 DUP6 PUSH1 0xFF AND ADD PUSH1 0x20 DUP2 LT PUSH2 0x5081 JUMPI INVALID JUMPDEST BYTE PUSH2 0x5135 JUMP JUMPDEST PUSH1 0x80 DUP3 ADD DUP2 SWAP1 MSTORE PUSH2 0x100 SWAP1 DUP4 PUSH1 0xFF DUP7 AND PUSH1 0x3 ADD PUSH1 0x20 DUP2 LT PUSH2 0x50A4 JUMPI INVALID JUMPDEST BYTE MUL DUP2 PUSH2 0x50AD JUMPI INVALID JUMPDEST DIV PUSH1 0x40 DUP3 ADD MSTORE PUSH1 0x80 DUP2 ADD MLOAD PUSH2 0x100 SWAP1 DUP4 PUSH1 0xFF DUP7 AND PUSH1 0x4 ADD PUSH1 0x20 DUP2 LT PUSH2 0x50CE JUMPI INVALID JUMPDEST BYTE MUL DUP2 PUSH2 0x50D7 JUMPI INVALID JUMPDEST DIV PUSH1 0x60 DUP3 ADD MSTORE PUSH3 0x7A120 DUP3 PUSH1 0xFF DUP6 AND PUSH1 0x5 ADD PUSH1 0x20 DUP2 LT PUSH2 0x50F3 JUMPI INVALID JUMPDEST BYTE MUL PUSH1 0xA0 DUP3 ADD MSTORE PUSH3 0x2625A0 DUP3 PUSH1 0xFF DUP6 AND PUSH1 0x6 ADD PUSH1 0x20 DUP2 LT PUSH2 0x5110 JUMPI INVALID JUMPDEST BYTE MUL PUSH1 0xC0 DUP3 ADD MSTORE DUP2 PUSH1 0xFF DUP5 AND PUSH1 0x7 ADD PUSH1 0x20 DUP2 LT PUSH2 0x5129 JUMPI INVALID JUMPDEST BYTE PUSH1 0xE0 DUP3 ADD MSTORE SWAP3 SWAP2 POP POP JUMP JUMPDEST PUSH1 0x0 DUP2 PUSH1 0xFF AND PUSH1 0x96 LT PUSH2 0x5150 JUMPI PUSH1 0xFF DUP3 AND PUSH3 0x2625A0 MUL PUSH2 0x934 JUMP JUMPDEST POP PUSH1 0x95 NOT PUSH1 0xFF SWAP2 SWAP1 SWAP2 AND ADD PUSH3 0xE4E1C0 MUL PUSH4 0x165A0BC0 ADD SWAP1 JUMP JUMPDEST PUSH1 0x40 MLOAD DUP1 PUSH1 0x60 ADD PUSH1 0x40 MSTORE DUP1 PUSH1 0x0 DUP2 MSTORE PUSH1 0x20 ADD PUSH1 0x0 DUP2 MSTORE PUSH1 0x20 ADD PUSH1 0x0 DUP2 MSTORE POP SWAP1 JUMP JUMPDEST PUSH1 0x40 MLOAD DUP1 PUSH2 0x1E0 ADD PUSH1 0x40 MSTORE DUP1 PUSH1 0x0 PUSH1 0x1 PUSH1 0x1 PUSH1 0xA0 SHL SUB AND DUP2 MSTORE PUSH1 0x20 ADD PUSH1 0x0 PUSH2 0xFFFF AND DUP2 MSTORE PUSH1 0x20 ADD PUSH1 0x0 PUSH2 0xFFFF AND DUP2 MSTORE PUSH1 0x20 ADD PUSH1 0x0 DUP2 MSTORE PUSH1 0x20 ADD PUSH1 0x0 DUP2 MSTORE PUSH1 0x20 ADD PUSH1 0x0 DUP2 MSTORE PUSH1 0x20 ADD PUSH1 0x0 DUP2 MSTORE PUSH1 0x20 ADD PUSH1 0x0 DUP2 MSTORE PUSH1 0x20 ADD PUSH1 0x0 DUP2 MSTORE PUSH1 0x20 ADD PUSH1 0x0 DUP2 MSTORE PUSH1 0x20 ADD PUSH2 0x51F5 PUSH2 0x53FE JUMP JUMPDEST DUP2 MSTORE PUSH1 0x20 ADD PUSH2 0x5202 PUSH2 0x5169 JUMP JUMPDEST DUP2 MSTORE PUSH1 0x20 ADD PUSH1 0x0 DUP2 MSTORE PUSH1 0x20 ADD PUSH2 0x5216 PUSH2 0x53FE JUMP JUMPDEST DUP2 MSTORE PUSH1 0x20 ADD PUSH1 0x0 DUP2 MSTORE POP SWAP1 JUMP JUMPDEST PUSH1 0x40 MLOAD DUP1 PUSH1 0xC0 ADD PUSH1 0x40 MSTORE DUP1 PUSH1 0x0 DUP2 MSTORE PUSH1 0x20 ADD PUSH1 0x0 DUP2 MSTORE PUSH1 0x20 ADD PUSH1 0x0 DUP2 MSTORE PUSH1 0x20 ADD PUSH1 0x0 PUSH1 0x1 PUSH1 0x1 PUSH1 0xA0 SHL SUB AND DUP2 MSTORE PUSH1 0x20 ADD PUSH1 0x0 DUP2 MSTORE PUSH1 0x20 ADD PUSH1 0x0 DUP2 MSTORE POP SWAP1 JUMP JUMPDEST PUSH1 0x40 MLOAD DUP1 PUSH1 0x80 ADD PUSH1 0x40 MSTORE DUP1 PUSH1 0x0 DUP2 MSTORE PUSH1 0x20 ADD PUSH1 0x0 DUP2 MSTORE PUSH1 0x20 ADD PUSH1 0x0 DUP2 MSTORE PUSH1 0x20 ADD PUSH1 0x0 ISZERO ISZERO DUP2 MSTORE POP SWAP1 JUMP JUMPDEST PUSH1 0x40 MLOAD DUP1 PUSH1 0x40 ADD PUSH1 0x40 MSTORE DUP1 PUSH1 0x2 SWAP1 JUMPDEST PUSH2 0x52A3 PUSH2 0x5169 JUMP JUMPDEST DUP2 MSTORE PUSH1 0x20 ADD SWAP1 PUSH1 0x1 SWAP1 SUB SWAP1 DUP2 PUSH2 0x529B JUMPI SWAP1 POP POP SWAP1 JUMP JUMPDEST PUSH1 0x40 DUP1 MLOAD PUSH1 0xC0 DUP2 ADD DUP3 MSTORE PUSH1 0x0 DUP1 DUP3 MSTORE PUSH1 0x20 DUP3 ADD MSTORE SWAP1 DUP2 ADD PUSH2 0x52D8 PUSH2 0x5169 JUMP JUMPDEST DUP2 MSTORE PUSH1 0x20 ADD PUSH2 0x52E5 PUSH2 0x5169 JUMP JUMPDEST DUP2 MSTORE PUSH1 0x20 ADD PUSH1 0x0 DUP2 MSTORE PUSH1 0x20 ADD PUSH1 0x0 DUP2 MSTORE POP SWAP1 JUMP JUMPDEST PUSH1 0x40 DUP1 MLOAD PUSH1 0xA0 DUP2 ADD DUP3 MSTORE PUSH1 0x0 DUP1 DUP3 MSTORE PUSH1 0x20 DUP3 ADD DUP2 SWAP1 MSTORE SWAP2 DUP2 ADD DUP3 SWAP1 MSTORE SWAP1 PUSH1 0x60 DUP3 ADD SWAP1 PUSH2 0x5216 JUMP JUMPDEST PUSH1 0x40 MLOAD DUP1 PUSH1 0xA0 ADD PUSH1 0x40 MSTORE DUP1 PUSH1 0x0 DUP2 MSTORE PUSH1 0x20 ADD PUSH1 0x0 DUP2 MSTORE PUSH1 0x20 ADD PUSH1 0x0 DUP2 MSTORE PUSH1 0x20 ADD PUSH1 0x0 DUP2 MSTORE PUSH1 0x20 ADD PUSH1 0x0 DUP2 MSTORE POP SWAP1 JUMP JUMPDEST PUSH1 0x40 MLOAD DUP1 PUSH1 0x20 ADD PUSH1 0x40 MSTORE DUP1 PUSH1 0x1 SWAP1 PUSH1 0x20 DUP3 MUL DUP1 CALLDATASIZE DUP4 CALLDATACOPY POP SWAP2 SWAP3 SWAP2 POP POP JUMP JUMPDEST PUSH1 0x40 MLOAD DUP1 PUSH2 0x120 ADD PUSH1 0x40 MSTORE DUP1 PUSH1 0x0 DUP2 MSTORE PUSH1 0x20 ADD PUSH1 0x0 DUP2 MSTORE PUSH1 0x20 ADD PUSH1 0x0 DUP2 MSTORE PUSH1 0x20 ADD PUSH1 0x0 DUP2 MSTORE PUSH1 0x20 ADD PUSH1 0x0 DUP2 MSTORE PUSH1 0x20 ADD PUSH1 0x0 DUP2 MSTORE PUSH1 0x20 ADD PUSH1 0x0 DUP2 MSTORE PUSH1 0x20 ADD PUSH1 0x0 DUP2 MSTORE PUSH1 0x20 ADD PUSH1 0x0 DUP2 MSTORE POP SWAP1 JUMP JUMPDEST PUSH1 0x40 MLOAD DUP1 PUSH2 0x100 ADD PUSH1 0x40 MSTORE DUP1 PUSH1 0x0 DUP2 MSTORE PUSH1 0x20 ADD PUSH1 0x0 DUP2 MSTORE PUSH1 0x20 ADD PUSH1 0x0 DUP2 MSTORE PUSH1 0x20 ADD PUSH1 0x0 DUP2 MSTORE PUSH1 0x20 ADD PUSH1 0x0 DUP2 MSTORE PUSH1 0x20 ADD PUSH1 0x0 DUP2 MSTORE PUSH1 0x20 ADD PUSH1 0x0 DUP2 MSTORE PUSH1 0x20 ADD PUSH1 0x0 DUP2 MSTORE POP SWAP1 JUMP JUMPDEST PUSH1 0x40 MLOAD DUP1 PUSH1 0x40 ADD PUSH1 0x40 MSTORE DUP1 PUSH1 0x2 SWAP1 PUSH1 0x20 DUP3 MUL DUP1 CALLDATASIZE DUP4 CALLDATACOPY POP SWAP2 SWAP3 SWAP2 POP POP JUMP JUMPDEST DUP1 MLOAD PUSH2 0x937 DUP2 PUSH2 0x5EC5 JUMP JUMPDEST PUSH1 0x0 DUP3 PUSH1 0x1F DUP4 ADD SLT PUSH2 0x5437 JUMPI DUP1 DUP2 REVERT JUMPDEST DUP2 MLOAD PUSH1 0x20 PUSH2 0x544C PUSH2 0x5447 DUP4 PUSH2 0x5EA7 JUMP JUMPDEST PUSH2 0x5E83 JUMP JUMPDEST DUP3 DUP2 MSTORE DUP2 DUP2 ADD SWAP1 DUP6 DUP4 ADD DUP4 DUP6 MUL DUP8 ADD DUP5 ADD DUP9 LT ISZERO PUSH2 0x5468 JUMPI DUP6 DUP7 REVERT JUMPDEST DUP6 JUMPDEST DUP6 DUP2 LT ISZERO PUSH2 0x548F JUMPI DUP2 MLOAD PUSH2 0x547D DUP2 PUSH2 0x5EC5 JUMP JUMPDEST DUP5 MSTORE SWAP3 DUP5 ADD SWAP3 SWAP1 DUP5 ADD SWAP1 PUSH1 0x1 ADD PUSH2 0x546A JUMP JUMPDEST POP SWAP1 SWAP8 SWAP7 POP POP POP POP POP POP POP JUMP JUMPDEST PUSH1 0x0 PUSH1 0x1F DUP4 DUP2 DUP5 ADD SLT PUSH2 0x54AD JUMPI DUP2 DUP3 REVERT JUMPDEST DUP3 MLOAD PUSH1 0x20 PUSH2 0x54BD PUSH2 0x5447 DUP4 PUSH2 0x5EA7 JUMP JUMPDEST DUP3 DUP2 MSTORE DUP2 DUP2 ADD SWAP1 DUP7 DUP4 ADD DUP7 JUMPDEST DUP6 DUP2 LT ISZERO PUSH2 0x5562 JUMPI DUP2 MLOAD DUP10 ADD DUP11 PUSH1 0x3F DUP3 ADD SLT PUSH2 0x54E3 JUMPI DUP9 DUP10 REVERT JUMPDEST DUP6 DUP2 ADD MLOAD PUSH8 0xFFFFFFFFFFFFFFFF DUP2 GT ISZERO PUSH2 0x54F9 JUMPI INVALID JUMPDEST PUSH2 0x550A DUP2 DUP11 ADD PUSH1 0x1F NOT AND DUP9 ADD PUSH2 0x5E83 JUMP JUMPDEST DUP2 DUP2 MSTORE PUSH1 0x40 DUP14 DUP2 DUP5 DUP7 ADD ADD GT ISZERO PUSH2 0x551F JUMPI DUP12 DUP13 REVERT JUMPDEST DUP12 JUMPDEST DUP4 DUP2 LT ISZERO PUSH2 0x553C JUMPI DUP5 DUP2 ADD DUP3 ADD MLOAD DUP4 DUP3 ADD DUP12 ADD MSTORE DUP10 ADD PUSH2 0x5521 JUMP JUMPDEST DUP4 DUP2 GT ISZERO PUSH2 0x554C JUMPI DUP13 DUP11 DUP6 DUP6 ADD ADD MSTORE JUMPDEST POP POP DUP7 MSTORE POP POP SWAP3 DUP5 ADD SWAP3 SWAP1 DUP5 ADD SWAP1 PUSH1 0x1 ADD PUSH2 0x54C9 JUMP JUMPDEST POP SWAP1 SWAP9 SWAP8 POP POP POP POP POP POP POP POP JUMP JUMPDEST PUSH1 0x0 DUP3 PUSH1 0x1F DUP4 ADD SLT PUSH2 0x5580 JUMPI DUP1 DUP2 REVERT JUMPDEST PUSH1 0x40 MLOAD PUSH1 0x60 DUP2 ADD DUP2 DUP2 LT PUSH8 0xFFFFFFFFFFFFFFFF DUP3 GT OR ISZERO PUSH2 0x559D JUMPI INVALID JUMPDEST PUSH1 0x40 MSTORE DUP1 DUP4 PUSH1 0x60 DUP2 ADD DUP7 LT ISZERO PUSH2 0x55B1 JUMPI DUP4 DUP5 REVERT JUMPDEST DUP4 JUMPDEST PUSH1 0x3 DUP2 LT ISZERO PUSH2 0x55D2 JUMPI DUP2 MLOAD DUP4 MSTORE PUSH1 0x20 SWAP3 DUP4 ADD SWAP3 SWAP1 SWAP2 ADD SWAP1 PUSH1 0x1 ADD PUSH2 0x55B3 JUMP JUMPDEST POP SWAP2 SWAP6 SWAP5 POP POP POP POP POP JUMP JUMPDEST DUP1 MLOAD PUSH1 0x1 PUSH1 0x1 PUSH1 0x50 SHL SUB DUP2 AND DUP2 EQ PUSH2 0x937 JUMPI PUSH1 0x0 DUP1 REVERT JUMPDEST PUSH1 0x0 DUP1 PUSH1 0x0 DUP1 PUSH1 0x0 PUSH1 0xA0 DUP7 DUP9 SUB SLT ISZERO PUSH2 0x560B JUMPI DUP1 DUP2 REVERT JUMPDEST DUP6 CALLDATALOAD PUSH2 0x5616 DUP2 PUSH2 0x5EC5 JUMP JUMPDEST SWAP5 POP PUSH1 0x20 DUP7 ADD CALLDATALOAD PUSH2 0x5626 DUP2 PUSH2 0x5EC5 JUMP JUMPDEST SWAP4 POP PUSH1 0x40 DUP7 ADD CALLDATALOAD PUSH2 0x5636 DUP2 PUSH2 0x5EC5 JUMP JUMPDEST SWAP3 POP PUSH1 0x60 DUP7 ADD CALLDATALOAD PUSH2 0xFFFF DUP2 AND DUP2 EQ PUSH2 0x564C JUMPI DUP2 DUP3 REVERT JUMPDEST SWAP5 SWAP8 SWAP4 SWAP7 POP SWAP2 SWAP5 PUSH1 0x80 ADD CALLDATALOAD SWAP3 SWAP2 POP POP JUMP JUMPDEST PUSH1 0x0 DUP1 PUSH1 0x0 DUP1 PUSH1 0x0 PUSH1 0xA0 DUP7 DUP9 SUB SLT ISZERO PUSH2 0x5674 JUMPI DUP3 DUP4 REVERT JUMPDEST DUP6 CALLDATALOAD PUSH2 0x567F DUP2 PUSH2 0x5EC5 JUMP JUMPDEST SWAP5 POP PUSH1 0x20 DUP7 ADD CALLDATALOAD PUSH2 0x568F DUP2 PUSH2 0x5EC5 JUMP JUMPDEST SWAP4 POP PUSH1 0x40 DUP7 ADD CALLDATALOAD PUSH2 0x569F DUP2 PUSH2 0x5EC5 JUMP JUMPDEST SWAP5 SWAP8 SWAP4 SWAP7 POP SWAP4 SWAP5 PUSH1 0x60 DUP2 ADD CALLDATALOAD SWAP5 POP PUSH1 0x80 ADD CALLDATALOAD SWAP3 SWAP2 POP POP JUMP JUMPDEST PUSH1 0x0 DUP1 PUSH1 0x0 DUP1 PUSH1 0x0 DUP1 PUSH1 0xC0 DUP8 DUP10 SUB SLT ISZERO PUSH2 0x56CF JUMPI DUP4 DUP5 REVERT JUMPDEST DUP7 CALLDATALOAD PUSH2 0x56DA DUP2 PUSH2 0x5EC5 JUMP JUMPDEST SWAP6 POP PUSH1 0x20 DUP8 ADD CALLDATALOAD PUSH2 0x56EA DUP2 PUSH2 0x5EC5 JUMP JUMPDEST SWAP5 POP PUSH1 0x40 DUP8 ADD CALLDATALOAD PUSH2 0x56FA DUP2 PUSH2 0x5EC5 JUMP JUMPDEST SWAP6 SWAP9 SWAP5 SWAP8 POP SWAP5 SWAP6 PUSH1 0x60 DUP2 ADD CALLDATALOAD SWAP6 POP PUSH1 0x80 DUP2 ADD CALLDATALOAD SWAP5 PUSH1 0xA0 SWAP1 SWAP2 ADD CALLDATALOAD SWAP4 POP SWAP2 POP POP JUMP JUMPDEST PUSH1 0x0 PUSH1 0x20 DUP1 DUP4 DUP6 SUB SLT ISZERO PUSH2 0x572D JUMPI DUP2 DUP3 REVERT JUMPDEST DUP3 MLOAD PUSH8 0xFFFFFFFFFFFFFFFF DUP1 DUP3 GT ISZERO PUSH2 0x5744 JUMPI DUP4 DUP5 REVERT JUMPDEST DUP2 DUP6 ADD SWAP2 POP DUP6 PUSH1 0x1F DUP4 ADD SLT PUSH2 0x5757 JUMPI DUP4 DUP5 REVERT JUMPDEST DUP2 MLOAD PUSH2 0x5765 PUSH2 0x5447 DUP3 PUSH2 0x5EA7 JUMP JUMPDEST DUP2 DUP2 MSTORE DUP5 DUP2 ADD SWAP1 DUP5 DUP7 ADD DUP8 JUMPDEST DUP5 DUP2 LT ISZERO PUSH2 0x581A JUMPI DUP2 MLOAD DUP8 ADD PUSH1 0x80 DUP2 DUP14 SUB PUSH1 0x1F NOT ADD SLT ISZERO PUSH2 0x5790 JUMPI DUP10 DUP11 REVERT JUMPDEST PUSH1 0x40 DUP1 MLOAD PUSH1 0x80 DUP2 ADD DUP2 DUP2 LT DUP11 DUP3 GT OR ISZERO PUSH2 0x57A6 JUMPI INVALID JUMPDEST DUP3 MSTORE DUP3 DUP12 ADD MLOAD DUP10 DUP2 GT ISZERO PUSH2 0x57B8 JUMPI DUP13 DUP14 REVERT JUMPDEST PUSH2 0x57C6 DUP16 DUP14 DUP4 DUP8 ADD ADD PUSH2 0x5427 JUMP JUMPDEST DUP3 MSTORE POP DUP2 DUP4 ADD MLOAD DUP10 DUP2 GT ISZERO PUSH2 0x57D9 JUMPI DUP13 DUP14 REVERT JUMPDEST PUSH2 0x57E7 DUP16 DUP14 DUP4 DUP8 ADD ADD PUSH2 0x549C JUMP JUMPDEST DUP13 DUP4 ADD MSTORE POP PUSH1 0x60 DUP4 ADD MLOAD DUP3 DUP3 ADD MSTORE PUSH2 0x5801 PUSH1 0x80 DUP5 ADD PUSH2 0x541C JUMP JUMPDEST PUSH1 0x60 DUP3 ADD MSTORE DUP7 MSTORE POP POP SWAP3 DUP8 ADD SWAP3 SWAP1 DUP8 ADD SWAP1 PUSH1 0x1 ADD PUSH2 0x5771 JUMP JUMPDEST POP SWAP1 SWAP10 SWAP9 POP POP POP POP POP POP POP POP POP JUMP JUMPDEST PUSH1 0x0 PUSH1 0x20 DUP3 DUP5 SUB SLT ISZERO PUSH2 0x583A JUMPI DUP1 DUP2 REVERT JUMPDEST DUP2 MLOAD DUP1 ISZERO ISZERO DUP2 EQ PUSH2 0xB6B JUMPI DUP2 DUP3 REVERT JUMPDEST PUSH1 0x0 DUP1 PUSH1 0x40 DUP4 DUP6 SUB SLT ISZERO PUSH2 0x585B JUMPI DUP2 DUP3 REVERT JUMPDEST POP POP DUP1 MLOAD PUSH1 0x20 SWAP1 SWAP2 ADD MLOAD SWAP1 SWAP3 SWAP1 SWAP2 POP JUMP JUMPDEST PUSH1 0x0 DUP1 PUSH1 0x0 DUP4 DUP6 SUB PUSH1 0xA0 DUP2 SLT ISZERO PUSH2 0x5881 JUMPI DUP2 DUP3 REVERT JUMPDEST DUP5 MLOAD SWAP4 POP PUSH1 0x20 DUP6 ADD MLOAD SWAP3 POP PUSH1 0x60 PUSH1 0x3F NOT DUP3 ADD SLT ISZERO PUSH2 0x589D JUMPI DUP2 DUP3 REVERT JUMPDEST POP PUSH1 0x40 MLOAD PUSH1 0x60 DUP2 ADD DUP2 DUP2 LT PUSH8 0xFFFFFFFFFFFFFFFF DUP3 GT OR ISZERO PUSH2 0x58BB JUMPI INVALID JUMPDEST DUP1 PUSH1 0x40 MSTORE POP PUSH1 0x40 DUP6 ADD MLOAD DUP2 MSTORE PUSH1 0x60 DUP6 ADD MLOAD PUSH1 0x20 DUP3 ADD MSTORE PUSH1 0x80 DUP6 ADD MLOAD PUSH1 0x40 DUP3 ADD MSTORE DUP1 SWAP2 POP POP SWAP3 POP SWAP3 POP SWAP3 JUMP JUMPDEST PUSH1 0x0 DUP1 PUSH1 0x0 DUP4 DUP6 SUB PUSH2 0x180 DUP1 DUP3 SLT ISZERO PUSH2 0x58FD JUMPI DUP3 DUP4 REVERT JUMPDEST PUSH1 0xC0 DUP3 SLT ISZERO PUSH2 0x590A JUMPI DUP3 DUP4 REVERT JUMPDEST PUSH1 0x40 MLOAD SWAP2 POP PUSH1 0x80 DUP3 ADD DUP3 DUP2 LT PUSH8 0xFFFFFFFFFFFFFFFF DUP3 GT OR ISZERO PUSH2 0x5929 JUMPI INVALID JUMPDEST DUP1 PUSH1 0x40 MSTORE POP DUP6 MLOAD DUP3 MSTORE PUSH1 0x20 DUP1 DUP8 ADD MLOAD DUP2 DUP5 ADD MSTORE PUSH1 0x40 DUP8 ADD MLOAD PUSH1 0x40 DUP5 ADD MSTORE PUSH2 0x5953 DUP9 PUSH1 0x60 DUP10 ADD PUSH2 0x5570 JUMP JUMPDEST PUSH1 0x60 DUP5 ADD MSTORE DUP3 SWAP6 POP PUSH2 0x5968 DUP9 PUSH1 0xC0 DUP10 ADD PUSH2 0x5570 JUMP JUMPDEST SWAP5 POP DUP8 PUSH2 0x13F DUP9 ADD SLT PUSH2 0x5979 JUMPI DUP4 DUP5 REVERT JUMPDEST PUSH2 0x5983 PUSH1 0x60 PUSH2 0x5E83 JUMP JUMPDEST SWAP3 POP DUP3 PUSH2 0x120 DUP9 ADD DUP10 DUP5 DUP11 ADD GT ISZERO PUSH2 0x5999 JUMPI DUP6 DUP7 REVERT JUMPDEST DUP6 SWAP4 POP JUMPDEST PUSH1 0x3 DUP5 LT ISZERO PUSH2 0x59BC JUMPI DUP1 MLOAD DUP6 MSTORE SWAP4 DUP3 ADD SWAP4 PUSH1 0x1 SWAP4 SWAP1 SWAP4 ADD SWAP3 DUP3 ADD PUSH2 0x599D JUMP JUMPDEST POP DUP1 SWAP5 POP POP POP POP POP SWAP3 POP SWAP3 POP SWAP3 JUMP JUMPDEST PUSH1 0x0 PUSH1 0x20 DUP3 DUP5 SUB SLT ISZERO PUSH2 0x59DC JUMPI DUP1 DUP2 REVERT JUMPDEST POP MLOAD SWAP2 SWAP1 POP JUMP JUMPDEST PUSH1 0x0 DUP1 PUSH1 0x0 DUP1 PUSH1 0x0 PUSH1 0xA0 DUP7 DUP9 SUB SLT ISZERO PUSH2 0x59FA JUMPI DUP3 DUP4 REVERT JUMPDEST PUSH2 0x5A03 DUP7 PUSH2 0x55DD JUMP JUMPDEST SWAP5 POP PUSH1 0x20 DUP7 ADD MLOAD SWAP4 POP PUSH1 0x40 DUP7 ADD MLOAD SWAP3 POP PUSH1 0x60 DUP7 ADD MLOAD SWAP2 POP PUSH2 0x5A26 PUSH1 0x80 DUP8 ADD PUSH2 0x55DD JUMP JUMPDEST SWAP1 POP SWAP3 SWAP6 POP SWAP3 SWAP6 SWAP1 SWAP4 POP JUMP JUMPDEST PUSH1 0x1 PUSH1 0x1 PUSH1 0xA0 SHL SUB AND SWAP1 MSTORE JUMP JUMPDEST DUP1 PUSH1 0x0 JUMPDEST PUSH1 0x2 DUP2 LT ISZERO PUSH2 0x1D92 JUMPI DUP2 MLOAD DUP5 MSTORE PUSH1 0x20 SWAP4 DUP5 ADD SWAP4 SWAP1 SWAP2 ADD SWAP1 PUSH1 0x1 ADD PUSH2 0x5A43 JUMP JUMPDEST DUP1 PUSH1 0x0 JUMPDEST PUSH1 0x2 DUP2 LT ISZERO PUSH2 0x1D92 JUMPI DUP2 MLOAD PUSH2 0xFFFF AND DUP5 MSTORE PUSH1 0x20 SWAP4 DUP5 ADD SWAP4 SWAP1 SWAP2 ADD SWAP1 PUSH1 0x1 ADD PUSH2 0x5A66 JUMP JUMPDEST PUSH1 0x0 DUP2 MLOAD DUP1 DUP5 MSTORE PUSH1 0x20 DUP1 DUP6 ADD SWAP5 POP DUP1 DUP5 ADD DUP4 JUMPDEST DUP4 DUP2 LT ISZERO PUSH2 0x5AB8 JUMPI DUP2 MLOAD DUP8 MSTORE SWAP6 DUP3 ADD SWAP6 SWAP1 DUP3 ADD SWAP1 PUSH1 0x1 ADD PUSH2 0x5A9C JUMP JUMPDEST POP SWAP5 SWAP6 SWAP5 POP POP POP POP POP JUMP JUMPDEST DUP1 MLOAD DUP3 MSTORE PUSH1 0x20 DUP1 DUP3 ADD MLOAD SWAP1 DUP4 ADD MSTORE PUSH1 0x40 SWAP1 DUP2 ADD MLOAD SWAP2 ADD MSTORE JUMP JUMPDEST DUP1 MLOAD DUP3 MSTORE PUSH1 0x20 DUP2 ADD MLOAD PUSH1 0x20 DUP4 ADD MSTORE PUSH1 0x40 DUP2 ADD MLOAD PUSH1 0x40 DUP4 ADD MSTORE PUSH1 0x60 DUP2 ADD MLOAD ISZERO ISZERO PUSH1 0x60 DUP4 ADD MSTORE POP POP JUMP JUMPDEST PUSH2 0xFFFF AND SWAP1 MSTORE JUMP JUMPDEST PUSH1 0x1 PUSH1 0x1 PUSH1 0xA0 SHL SUB SWAP2 SWAP1 SWAP2 AND DUP2 MSTORE PUSH1 0x20 ADD SWAP1 JUMP JUMPDEST PUSH1 0x1 PUSH1 0x1 PUSH1 0xA0 SHL SUB SWAP3 DUP4 AND DUP2 MSTORE SWAP2 AND PUSH1 0x20 DUP3 ADD MSTORE PUSH1 0x40 ADD SWAP1 JUMP JUMPDEST PUSH1 0x1 PUSH1 0x1 PUSH1 0xA0 SHL SUB SWAP8 DUP9 AND DUP2 MSTORE SWAP6 DUP8 AND PUSH1 0x20 DUP8 ADD MSTORE SWAP4 SWAP1 SWAP6 AND PUSH1 0x40 DUP6 ADD MSTORE PUSH2 0xFFFF SWAP2 SWAP1 SWAP2 AND PUSH1 0x60 DUP5 ADD MSTORE PUSH1 0x80 DUP4 ADD MSTORE PUSH1 0xA0 DUP3 ADD SWAP3 SWAP1 SWAP3 MSTORE PUSH1 0xC0 DUP2 ADD SWAP2 SWAP1 SWAP2 MSTORE PUSH1 0xE0 ADD SWAP1 JUMP JUMPDEST PUSH1 0x1 PUSH1 0x1 PUSH1 0xA0 SHL SUB SWAP4 DUP5 AND DUP2 MSTORE SWAP2 SWAP1 SWAP3 AND PUSH1 0x20 DUP3 ADD MSTORE PUSH1 0x40 DUP2 ADD SWAP2 SWAP1 SWAP2 MSTORE PUSH1 0x60 ADD SWAP1 JUMP JUMPDEST PUSH1 0x1 PUSH1 0x1 PUSH1 0xA0 SHL SUB SWAP3 SWAP1 SWAP3 AND DUP3 MSTORE PUSH1 0x20 DUP3 ADD MSTORE PUSH1 0x40 ADD SWAP1 JUMP JUMPDEST PUSH1 0x0 PUSH1 0x40 DUP3 MSTORE PUSH2 0x5BCF PUSH1 0x40 DUP4 ADD DUP6 PUSH2 0x5A89 JUMP JUMPDEST DUP3 DUP2 SUB PUSH1 0x20 DUP5 ADD MSTORE PUSH2 0xE57 DUP2 DUP6 PUSH2 0x5A89 JUMP JUMPDEST SWAP1 DUP2 MSTORE PUSH1 0x20 ADD SWAP1 JUMP JUMPDEST PUSH1 0x20 DUP1 DUP3 MSTORE PUSH1 0xB SWAP1 DUP3 ADD MSTORE PUSH11 0x4554482042616C616E6365 PUSH1 0xA8 SHL PUSH1 0x40 DUP3 ADD MSTORE PUSH1 0x60 ADD SWAP1 JUMP JUMPDEST PUSH1 0x20 DUP1 DUP3 MSTORE PUSH1 0x11 SWAP1 DUP3 ADD MSTORE PUSH17 0x9AC2E8EAE4D2E8F2409AD2E6DAC2E8C6D PUSH1 0x7B SHL PUSH1 0x40 DUP3 ADD MSTORE PUSH1 0x60 ADD SWAP1 JUMP JUMPDEST PUSH1 0x20 DUP1 DUP3 MSTORE PUSH1 0xB SWAP1 DUP3 ADD MSTORE PUSH11 0x4D75737420536574746C65 PUSH1 0xA8 SHL PUSH1 0x40 DUP3 ADD MSTORE PUSH1 0x60 ADD SWAP1 JUMP JUMPDEST PUSH1 0x20 DUP1 DUP3 MSTORE PUSH1 0xC SWAP1 DUP3 ADD MSTORE PUSH12 0x4D6178204361706163697479 PUSH1 0xA0 SHL PUSH1 0x40 DUP3 ADD MSTORE PUSH1 0x60 ADD SWAP1 JUMP JUMPDEST PUSH1 0x20 DUP1 DUP3 MSTORE PUSH1 0xA SWAP1 DUP3 ADD MSTORE PUSH10 0x6D696E20626F72726F77 PUSH1 0xB0 SHL PUSH1 0x40 DUP3 ADD MSTORE PUSH1 0x60 ADD SWAP1 JUMP JUMPDEST PUSH1 0x20 DUP1 DUP3 MSTORE PUSH1 0xA SWAP1 DUP3 ADD MSTORE PUSH10 0x4D696E20426F72726F77 PUSH1 0xB0 SHL PUSH1 0x40 DUP3 ADD MSTORE PUSH1 0x60 ADD SWAP1 JUMP JUMPDEST PUSH2 0xFFFF SWAP4 SWAP1 SWAP4 AND DUP4 MSTORE PUSH1 0x20 DUP4 ADD SWAP2 SWAP1 SWAP2 MSTORE PUSH1 0x40 DUP3 ADD MSTORE PUSH1 0x60 ADD SWAP1 JUMP JUMPDEST PUSH1 0x0 PUSH2 0x3E0 DUP3 ADD SWAP1 POP PUSH2 0xFFFF DUP8 AND DUP3 MSTORE DUP6 MLOAD PUSH1 0x20 DUP4 ADD MSTORE PUSH1 0x20 DUP7 ADD MLOAD PUSH1 0x40 DUP4 ADD MSTORE PUSH1 0x40 DUP7 ADD MLOAD PUSH1 0x60 DUP4 ADD MSTORE PUSH1 0x1 DUP1 PUSH1 0xA0 SHL SUB PUSH1 0x60 DUP8 ADD MLOAD AND PUSH1 0x80 DUP4 ADD MSTORE PUSH1 0x80 DUP7 ADD MLOAD PUSH1 0xA0 DUP4 ADD MSTORE PUSH1 0xA0 DUP7 ADD MLOAD PUSH1 0xC0 DUP4 ADD MSTORE PUSH2 0x5D48 PUSH1 0xE0 DUP4 ADD DUP7 MLOAD PUSH2 0x5A32 JUMP JUMPDEST PUSH1 0x20 DUP6 ADD MLOAD PUSH2 0x100 PUSH2 0x5D5C DUP2 DUP6 ADD DUP4 PUSH2 0x5B04 JUMP JUMPDEST PUSH1 0x40 DUP8 ADD MLOAD SWAP2 POP PUSH2 0x120 PUSH2 0x5D72 DUP2 DUP7 ADD DUP5 PUSH2 0x5B04 JUMP JUMPDEST PUSH1 0x60 DUP9 ADD MLOAD SWAP3 POP PUSH2 0x140 DUP4 DUP2 DUP8 ADD MSTORE PUSH1 0x80 DUP10 ADD MLOAD SWAP4 POP PUSH2 0x160 DUP5 DUP2 DUP9 ADD MSTORE PUSH1 0xA0 DUP11 ADD MLOAD SWAP5 POP PUSH2 0x180 DUP6 DUP2 DUP10 ADD MSTORE PUSH1 0xC0 DUP12 ADD MLOAD SWAP6 POP PUSH2 0x1A0 DUP7 DUP2 DUP11 ADD MSTORE PUSH1 0xE0 DUP13 ADD MLOAD SWAP7 POP PUSH2 0x1C0 DUP8 DUP2 DUP12 ADD MSTORE DUP7 DUP14 ADD MLOAD PUSH2 0x1E0 DUP12 ADD MSTORE DUP6 DUP14 ADD MLOAD PUSH2 0x200 DUP12 ADD MSTORE DUP5 DUP14 ADD MLOAD SWAP8 POP PUSH2 0x5DE5 PUSH2 0x220 DUP12 ADD DUP10 PUSH2 0x5A62 JUMP JUMPDEST DUP4 DUP14 ADD MLOAD SWAP8 POP PUSH2 0x5DF9 PUSH2 0x260 DUP12 ADD DUP10 PUSH2 0x5AC3 JUMP JUMPDEST DUP3 DUP14 ADD MLOAD PUSH2 0x2C0 DUP12 ADD MSTORE DUP2 DUP14 ADD MLOAD SWAP8 POP PUSH2 0x5E17 PUSH2 0x2E0 DUP12 ADD DUP10 PUSH2 0x5A3F JUMP JUMPDEST DUP1 DUP14 ADD MLOAD PUSH2 0x320 DUP12 ADD MSTORE POP POP POP POP POP POP POP POP PUSH2 0x5E37 PUSH2 0x340 DUP4 ADD DUP6 PUSH2 0x5ADC JUMP JUMPDEST DUP3 PUSH2 0x3C0 DUP4 ADD MSTORE SWAP7 SWAP6 POP POP POP POP POP POP JUMP JUMPDEST SWAP2 DUP3 MSTORE PUSH1 0x20 DUP3 ADD MSTORE PUSH1 0x40 ADD SWAP1 JUMP JUMPDEST SWAP3 DUP4 MSTORE PUSH1 0x20 DUP4 ADD SWAP2 SWAP1 SWAP2 MSTORE PUSH1 0x40 DUP3 ADD MSTORE PUSH1 0x60 ADD SWAP1 JUMP JUMPDEST SWAP2 DUP3 MSTORE PUSH1 0x1 PUSH1 0x1 PUSH1 0x50 SHL SUB AND PUSH1 0x20 DUP3 ADD MSTORE PUSH1 0x40 ADD SWAP1 JUMP JUMPDEST PUSH1 0x40 MLOAD DUP2 DUP2 ADD PUSH8 0xFFFFFFFFFFFFFFFF DUP2 GT DUP3 DUP3 LT OR ISZERO PUSH2 0x5E9F JUMPI INVALID JUMPDEST PUSH1 0x40 MSTORE SWAP2 SWAP1 POP JUMP JUMPDEST PUSH1 0x0 PUSH8 0xFFFFFFFFFFFFFFFF DUP3 GT ISZERO PUSH2 0x5EBB JUMPI INVALID JUMPDEST POP PUSH1 0x20 SWAP1 DUP2 MUL ADD SWAP1 JUMP JUMPDEST PUSH1 0x1 PUSH1 0x1 PUSH1 0xA0 SHL SUB DUP2 AND DUP2 EQ PUSH2 0x5EDA JUMPI PUSH1 0x0 DUP1 REVERT JUMPDEST POP JUMP INVALID 0x4A CODECOPY 0xDC MOD 0xD4 0xC0 0xDB 0xC6 0x4B PUSH17 0xAF90FD698A233A518AA5D07E595D983B8C SDIV 0x26 0xC8 0xF7 0xFB 0xC3 0xD5 DUP2 PUSH9 0xC5AE7397731D063D5B 0xBF RETURNDATASIZE PUSH6 0x7854427343F4 0xC0 DUP4 0x24 0xF PUSH27 0xACAA2D0F62A26469706673582212206B8F2C4CBED5B26B070FBA8F CREATE2 0xAE PC SWAP4 SWAP9 0xBA 0xAD DUP13 LOG4 0x4D SDIV MSIZE 0xC PUSH2 0xC283 EXP 0x1F LOG2 0x4B PUSH5 0x736F6C6343 STOP SMOD MOD STOP CALLER ","sha1":"48514d3ca326cf49e32e84042a960478d9e8eee5","source":"// SPDX-License-Identifier: GPL-3.0-only\npragma solidity =0.7.6;\npragma abicoder v2;\n\nimport {\n    Token,\n    VaultState,\n    VaultAccountHealthFactors,\n    VaultConfig,\n    VaultAccount,\n    PrimeRate\n} from \"../../global/Types.sol\";\nimport {Constants} from \"../../global/Constants.sol\";\nimport {SafeUint256} from \"../../math/SafeUint256.sol\";\nimport {SafeInt256} from \"../../math/SafeInt256.sol\";\n\nimport {ActionGuards} from \"./ActionGuards.sol\";\nimport {Emitter} from \"../../internal/Emitter.sol\";\nimport {PrimeRateLib} from \"../../internal/pCash/PrimeRateLib.sol\";\nimport {PrimeCashExchangeRate} from \"../../internal/pCash/PrimeCashExchangeRate.sol\";\nimport {VaultConfiguration} from \"../../internal/vaults/VaultConfiguration.sol\";\nimport {VaultAccountLib} from \"../../internal/vaults/VaultAccount.sol\";\nimport {VaultValuation} from \"../../internal/vaults/VaultValuation.sol\";\nimport {VaultSecondaryBorrow} from \"../../internal/vaults/VaultSecondaryBorrow.sol\";\nimport {VaultStateLib} from \"../../internal/vaults/VaultState.sol\";\nimport {TokenHandler} from \"../../internal/balances/TokenHandler.sol\";\n\nimport {SettleAssetsExternal} from \"../SettleAssetsExternal.sol\";\nimport {FreeCollateralExternal} from \"../FreeCollateralExternal.sol\";\n\nimport {\n    IVaultLiquidationAction,\n    IVaultAccountHealth\n} from \"../../../interfaces/notional/IVaultController.sol\";\n\ncontract VaultLiquidationAction is ActionGuards, IVaultLiquidationAction {\n    using VaultConfiguration for VaultConfig;\n    using VaultAccountLib for VaultAccount;\n    using VaultStateLib for VaultState;\n    using PrimeRateLib for PrimeRate;\n    using TokenHandler for Token;\n    using SafeInt256 for int256;\n    using SafeUint256 for uint256;\n\n\n    /// @notice If an account is below the minimum collateral ratio, this method wil deleverage (liquidate)\n    /// that account. `depositAmountPrimeCash` in the borrow currency will be transferred from the liquidator\n    /// and used to offset the account's debt position. The liquidator will receive either vaultShares or\n    /// cash depending.\n    /// @param account the address that will exit the vault\n    /// @param vault the vault to enter\n    /// @param liquidator the address that will receive profits from liquidation\n    /// @param currencyIndex 0 refers to primary borrow, 1 or 2 will refer to one of the secondary\n    /// currencies (if any)\n    /// @param depositUnderlyingInternal amount of underlying to deposit, in 8 decimal underlying precision\n    /// @return vaultSharesToLiquidator amount of vaultShares received from liquidation\n    /// @return depositAmountPrimeCash amount of prime cash deposited from liquidation\n    function deleverageAccount(\n        address account,\n        address vault,\n        address liquidator,\n        uint16 currencyIndex,\n        int256 depositUnderlyingInternal\n    ) external payable nonReentrant override returns (\n        uint256 vaultSharesToLiquidator,\n        int256 depositAmountPrimeCash\n    ) {\n        require(currencyIndex < 3);\n        (\n            VaultConfig memory vaultConfig,\n            VaultAccount memory vaultAccount,\n            VaultState memory vaultState\n        ) = _authenticateDeleverage(account, vault, liquidator);\n\n        PrimeRate memory pr;\n        // Currency Index is validated in this method\n        (\n            depositUnderlyingInternal,\n            vaultSharesToLiquidator,\n            pr\n        ) = IVaultAccountHealth(address(this)).calculateDepositAmountInDeleverage(\n            currencyIndex, vaultAccount, vaultConfig, vaultState, depositUnderlyingInternal\n        );\n        require(depositUnderlyingInternal > 0); // dev: cannot liquidate zero balance\n\n        uint16 currencyId = vaultConfig.borrowCurrencyId;\n        if (currencyIndex == 1) currencyId = vaultConfig.secondaryBorrowCurrencies[0];\n        else if (currencyIndex == 2) currencyId = vaultConfig.secondaryBorrowCurrencies[1];\n\n        Token memory token = TokenHandler.getUnderlyingToken(currencyId);\n        // Excess ETH is returned to the liquidator natively\n        (/* */, depositAmountPrimeCash) = TokenHandler.depositUnderlyingExternal(\n            liquidator, currencyId, token.convertToExternal(depositUnderlyingInternal), pr, false \n        );\n\n        Emitter.emitVaultDeleverage(\n            liquidator, account, vault, currencyId, vaultState.maturity,\n            currencyIndex == 0 ? depositAmountPrimeCash : 0, vaultSharesToLiquidator, pr\n        );\n\n        // Do not skip the min borrow check here\n        vaultAccount.vaultShares = vaultAccount.vaultShares.sub(vaultSharesToLiquidator);\n        if (vaultAccount.maturity == Constants.PRIME_CASH_VAULT_MATURITY) {\n            // Vault account will not incur a cash balance if they are in the prime cash maturity, their debts\n            // will be paid down directly.\n            _reduceAccountDebt(vaultConfig, vaultState, vaultAccount, currencyIndex, depositUnderlyingInternal, true);\n            depositAmountPrimeCash = 0;\n        }\n\n        // Check min borrow in this liquidation method, the deleverage calculation should adhere to the min borrow\n        vaultAccount.setVaultAccountForLiquidation(vaultConfig, currencyIndex, depositAmountPrimeCash, true);\n\n        _transferVaultSharesToLiquidator(\n            liquidator, vaultConfig, vaultSharesToLiquidator, vaultAccount.maturity\n        );\n    }\n\n    /// @notice If an account has a cash balance, a liquidator can purchase the cash and provide\n    /// fCash to the account to reduce it's debt balance.\n    function liquidateVaultCashBalance(\n        address account,\n        address vault,\n        address liquidator,\n        uint256 currencyIndex,\n        int256 fCashDeposit\n    ) external nonReentrant override returns (int256 cashToLiquidator) {\n        (\n            VaultConfig memory vaultConfig,\n            VaultAccount memory vaultAccount,\n            VaultState memory vaultState\n        ) = _authenticateDeleverage(account, vault, liquidator);\n\n        uint16 currencyId;\n        PrimeRate memory pr;\n        int256 fCashBalance;\n        int256 cashBalance;\n\n        if (currencyIndex == 0) {\n            currencyId = vaultConfig.borrowCurrencyId;\n            pr = vaultConfig.primeRate;\n            fCashBalance = vaultAccount.accountDebtUnderlying;\n            cashBalance = vaultAccount.tempCashBalance;\n        } else if (currencyIndex < 3) {\n            (currencyId, pr, fCashBalance, cashBalance) = _getSecondaryCashFactors(\n                vaultConfig, currencyIndex, account\n            );\n        } else {\n            revert(); // dev: invalid currency index\n        }\n\n        {\n            // At this point, the prime rates have already been accrued statefully so using a view method is ok.\n            (int256 fCashRequired, int256 discountFactor) = IVaultAccountHealth(address(this))\n                .getfCashRequiredToLiquidateCash(currencyId, vaultAccount.maturity, cashBalance);\n\n            cashToLiquidator = pr.convertFromUnderlying(fCashDeposit.mulInRatePrecision(discountFactor));\n            if (cashToLiquidator > cashBalance) {\n                // Cap the fCash deposit to the cash balance available at the discount factor\n                fCashDeposit = fCashRequired;\n                cashToLiquidator = cashBalance;\n            }\n        }\n\n        // Cap the fCash deposit to the fcash balance held by the account\n        require(0 < fCashDeposit && fCashDeposit <= fCashBalance.neg());\n\n        _transferCashToVault(\n            vaultAccount, liquidator, vault, currencyId, fCashDeposit, cashToLiquidator\n        );\n\n        // Do not emit the secondary debt event, will be emitted inside _transferCashToVault\n        _reduceAccountDebt(vaultConfig, vaultState, vaultAccount, currencyIndex, fCashDeposit, false);\n        vaultAccount.setVaultAccountForLiquidation(vaultConfig, currencyIndex, cashToLiquidator.neg(), false);\n    }\n\n\n    /// @notice Handles an edge case where vaults that have secondary borrows and have cash in excess of debts\n    /// in one currency but debts in another currency.\n    function liquidateExcessVaultCash(\n        address account,\n        address vault,\n        address liquidator,\n        uint256 excessCashIndex,\n        uint256 debtIndex,\n        uint256 _depositUnderlyingInternal\n    ) external payable nonReentrant override returns (int256 cashToLiquidator) {\n        (\n            VaultConfig memory vaultConfig,\n            VaultAccount memory vaultAccount,\n            /* VaultState memory vaultState */\n        ) = _authenticateDeleverage(account, vault, liquidator);\n\n        // This liquidation is only valid when there are secondary borrows\n        require(vaultConfig.hasSecondaryBorrows());\n        PrimeRate[2] memory primeRates = VaultSecondaryBorrow.getSecondaryPrimeRateStateful(vaultConfig);\n        // All prime rates have accrued statefully at this point, so it is ok to get account health factors which uses\n        // a view method to accrue prime cash -- it will read the values that have already accrued to this block.\n        (VaultAccountHealthFactors memory h, /* */, /* */) =  IVaultAccountHealth(address(this)).getVaultAccountHealthFactors(\n            account, vault\n        );\n        // Validate that there is debt and cash. This ensures that excessCashIndex != debtIndex and\n        // excessCashIndex < 3 and debtIndex < 3. It also validates that the currency indexes are valid\n        // because netDebtOutstanding == 0 for an unused secondary borrow currency.\n        require(0 < h.netDebtOutstanding[excessCashIndex]);\n        require(h.netDebtOutstanding[debtIndex] < 0);\n\n        VaultSecondaryBorrow.ExcessVaultCashFactors memory f = VaultSecondaryBorrow.getLiquidateExcessCashFactors(\n            vaultConfig, primeRates, excessCashIndex, debtIndex\n        );\n\n        int256 depositUnderlyingInternal = _depositUnderlyingInternal.toInt();\n        // Calculation does the following:\n        // excessCashUnderlyingInternal = debtCashInUnderlyingInternal * exchangeRateToExcessCashUnderlying * liquidation bonus\n        // cashToLiquidator = excessCashPR(excessCashUnderlyingInternal)\n        cashToLiquidator = f.excessCashPR.convertFromUnderlying(\n            depositUnderlyingInternal\n                .mul(vaultConfig.excessCashLiquidationBonus)\n                .mul(f.rateDecimals)\n                .div(f.exchangeRate)\n                .div(Constants.PERCENTAGE_DECIMALS)\n        );\n\n        if (h.netDebtOutstanding[excessCashIndex] < cashToLiquidator) {\n            // Limit the deposit to what is held by the account\n            cashToLiquidator = h.netDebtOutstanding[excessCashIndex];\n            // Calculation does the following:\n            // excessCashUnderlyingInternal = excessCashPR(excessPrimeCash)\n            // liquidatorDepositUnderlying = excessCashUnderlyingInternal * exchangeRateToDebtCashUnderlying * liquidationBonus\n            depositUnderlyingInternal = f.excessCashPR.convertToUnderlying(cashToLiquidator)\n                .mul(f.exchangeRate)\n                .mul(Constants.PERCENTAGE_DECIMALS)\n                .div(vaultConfig.excessCashLiquidationBonus)\n                .div(f.rateDecimals);\n        }\n\n        int256 depositAmountPrimeCash = f.debtPR.convertFromUnderlying(depositUnderlyingInternal);\n        int256 netCashToAccount = cashToLiquidator.neg();\n        vaultAccount.setVaultAccountForLiquidation(vaultConfig, excessCashIndex, netCashToAccount, false);\n        vaultAccount.setVaultAccountForLiquidation(vaultConfig, debtIndex, depositAmountPrimeCash, false);\n\n        Emitter.emitTransferPrimeCash(vault, liquidator, f.excessCashCurrencyId, cashToLiquidator);\n        TokenHandler.withdrawPrimeCash(\n            liquidator, f.excessCashCurrencyId, netCashToAccount, f.excessCashPR, false\n        );\n        Emitter.emitVaultMintOrBurnCash(account, vault, f.excessCashCurrencyId, vaultAccount.maturity, netCashToAccount);\n\n        // Deposit the debtIndex from the liquidator\n        TokenHandler.depositExactToMintPrimeCash(\n            liquidator, f.debtCurrencyId, depositAmountPrimeCash, f.debtPR, false\n        );\n        Emitter.emitTransferPrimeCash(liquidator, vault, f.debtCurrencyId, depositAmountPrimeCash);\n        Emitter.emitVaultMintOrBurnCash(account, vault, f.debtCurrencyId, vaultAccount.maturity, depositAmountPrimeCash);\n    }\n\n    function _transferCashToVault(\n        VaultAccount memory vaultAccount,\n        address liquidator,\n        address vault,\n        uint16 currencyId,\n        int256 fCashDeposit,\n        int256 cashToLiquidator\n    ) internal {\n        bool mustCheckFC = SettleAssetsExternal.transferCashToVaultLiquidator(\n            liquidator, vault, vaultAccount.account, currencyId, vaultAccount.maturity, fCashDeposit, cashToLiquidator\n        );\n\n        if (mustCheckFC) {\n            FreeCollateralExternal.checkFreeCollateralAndRevert(liquidator);\n        }\n        emit VaultAccountCashLiquidation(\n            vault, vaultAccount.account, liquidator, currencyId, fCashDeposit, cashToLiquidator\n        );\n    }\n\n    /// @notice Authenticates a call to the deleverage method\n    function _authenticateDeleverage(\n        address account,\n        address vault,\n        address liquidator\n    ) private returns (\n        VaultConfig memory vaultConfig,\n        VaultAccount memory vaultAccount,\n        VaultState memory vaultState\n    ) {\n        // Do not allow invalid accounts to liquidate\n        requireValidAccount(liquidator);\n        require(liquidator != vault);\n\n        // Cannot liquidate self, if a vault needs to deleverage itself as a whole it has other methods \n        // in VaultAction to do so.\n        require(account != msg.sender);\n        require(account != liquidator);\n\n        vaultConfig = VaultConfiguration.getVaultConfigStateful(vault);\n        require(vaultConfig.getFlag(VaultConfiguration.DISABLE_DELEVERAGE) == false);\n\n        // Authorization rules for deleveraging\n        if (vaultConfig.getFlag(VaultConfiguration.ONLY_VAULT_DELEVERAGE)) {\n            require(msg.sender == vault);\n        } else {\n            require(msg.sender == liquidator);\n        }\n\n        vaultAccount = VaultAccountLib.getVaultAccount(account, vaultConfig);\n\n        // Vault accounts that are not settled must be settled first by calling settleVaultAccount\n        // before liquidation. settleVaultAccount is not permissioned so anyone may settle the account.\n        require(block.timestamp < vaultAccount.maturity, \"Must Settle\");\n\n        if (vaultAccount.maturity == Constants.PRIME_CASH_VAULT_MATURITY) {\n            // Returns the updated prime vault state\n            vaultState = vaultAccount.accruePrimeCashFeesToDebtInLiquidation(vaultConfig);\n        } else {\n            vaultState = VaultStateLib.getVaultState(vaultConfig, vaultAccount.maturity);\n        }\n    }\n\n    function _reduceAccountDebt(\n        VaultConfig memory vaultConfig,\n        VaultState memory vaultState,\n        VaultAccount memory vaultAccount,\n        uint256 currencyIndex,\n        int256 depositUnderlyingInternal,\n        bool checkMinBorrow\n    ) private {\n        if (currencyIndex == 0) {\n            vaultAccount.updateAccountDebt(vaultState, depositUnderlyingInternal, 0);\n            vaultState.setVaultState(vaultConfig);\n        } else {\n            // Only set one of the prime rates, the other prime rate is not used since\n            // the net debt amount is set to zero\n            PrimeRate[2] memory pr = VaultSecondaryBorrow.getSecondaryPrimeRateStateful(vaultConfig);\n\n            (int256 accountDebtOne, int256 accountDebtTwo) = VaultSecondaryBorrow.updateAccountSecondaryDebt(\n                vaultConfig,\n                vaultAccount.account,\n                vaultAccount.maturity,\n                currencyIndex == 1 ? depositUnderlyingInternal : 0,\n                currencyIndex == 2 ? depositUnderlyingInternal : 0,\n                pr,\n                false,\n                false // do not emit events during liquidation, they are emitted prior\n            );\n\n            // Only check the minimum borrow requirement on the debt that is being liquidated.\n            if (checkMinBorrow) {\n                int256 accountDebt = currencyIndex == 1 ? accountDebtOne : accountDebtTwo;\n                require(\n                    accountDebt == 0 ||\n                    vaultConfig.minAccountSecondaryBorrow[currencyIndex - 1] <= -accountDebt,\n                    \"Min Borrow\"\n                );\n            }\n        }\n    }\n\n    /// @notice Transfers liquidator profits in the form of vault shares to be returned to the liquidator\n    function _transferVaultSharesToLiquidator(\n        address receiver,\n        VaultConfig memory vaultConfig,\n        uint256 vaultSharesToLiquidator,\n        uint256 maturity\n    ) private {\n        // Liquidator will receive vault shares that they can redeem by calling exitVault. If the liquidator has a\n        // leveraged position on then their collateral ratio will increase\n        VaultAccount memory liquidator = VaultAccountLib.getVaultAccount(receiver, vaultConfig);\n        // The liquidator must be able to receive the vault shares (i.e. not be in the vault at all or be in the\n        // vault at the same maturity). If the liquidator has fCash in the current maturity then their collateral\n        // ratio will increase as a result of the liquidation, no need to check their collateral position.\n        require(liquidator.maturity == 0 || liquidator.maturity == maturity, \"Maturity Mismatch\"); // dev: has vault shares\n        liquidator.maturity = maturity;\n        liquidator.vaultShares = liquidator.vaultShares.add(vaultSharesToLiquidator);\n        liquidator.setVaultAccount({vaultConfig: vaultConfig, checkMinBorrow: true, emitEvents: false});\n    }\n\n    function _getSecondaryCashFactors(\n        VaultConfig memory vaultConfig,\n        uint256 currencyIndex,\n        address account\n    ) private returns (uint16 currencyId, PrimeRate memory pr, int256 fCashBalance, int256 cashBalance) {\n        PrimeRate[2] memory primeRates = VaultSecondaryBorrow.getSecondaryPrimeRateStateful(vaultConfig);\n        (/* */, int256 debtOne, int256 debtTwo) = VaultSecondaryBorrow.getAccountSecondaryDebt(vaultConfig, account, primeRates);\n\n        // Cash balances refer to cash held on the account against debt, not prime cash balances held by the vault.\n        // Those are included in the vault share value.\n        (int256 cashOne, int256 cashTwo) = VaultSecondaryBorrow.getSecondaryCashHeld(account, vaultConfig.vault);\n\n        currencyId = vaultConfig.secondaryBorrowCurrencies[currencyIndex - 1];\n        pr = primeRates[currencyIndex - 1];\n        // Return the correct pair of debt and cash balances\n        (fCashBalance, cashBalance) = currencyIndex == 1 ? (debtOne, cashOne) : (debtTwo, cashTwo);\n    }\n\n    function getLibInfo() external pure returns (address, address) {\n        return (address(FreeCollateralExternal), address(SettleAssetsExternal));\n    }\n}","sourcePath":"contracts/external/actions/VaultLiquidationAction.sol","type":"contract","deployment":{"address":"0xA8403ba286E436cA702D730cbd7ece27053c9c2c","chainid":"42161","blockHeight":119790152}}