{"abi":[{"stateMutability":"nonpayable","type":"fallback"},{"inputs":[{"internalType":"uint256","name":"id","type":"uint256"}],"name":"decodeERC1155Id","outputs":[{"internalType":"uint16","name":"currencyId","type":"uint16"},{"internalType":"uint256","name":"maturity","type":"uint256"},{"internalType":"uint256","name":"assetType","type":"uint256"},{"internalType":"address","name":"vaultAddress","type":"address"},{"internalType":"bool","name":"isfCashDebt","type":"bool"}],"stateMutability":"view","type":"function"},{"inputs":[{"internalType":"uint16","name":"currencyId","type":"uint16"},{"internalType":"uint256","name":"maturity","type":"uint256"},{"internalType":"uint256","name":"assetType","type":"uint256"},{"internalType":"address","name":"vaultAddress","type":"address"},{"internalType":"bool","name":"isfCashDebt","type":"bool"}],"name":"encode","outputs":[{"internalType":"uint256","name":"","type":"uint256"}],"stateMutability":"pure","type":"function"},{"inputs":[{"internalType":"address","name":"account","type":"address"}],"name":"getAccount","outputs":[{"components":[{"internalType":"uint40","name":"nextSettleTime","type":"uint40"},{"internalType":"bytes1","name":"hasDebt","type":"bytes1"},{"internalType":"uint8","name":"assetArrayLength","type":"uint8"},{"internalType":"uint16","name":"bitmapCurrencyId","type":"uint16"},{"internalType":"bytes18","name":"activeCurrencies","type":"bytes18"},{"internalType":"bool","name":"allowPrimeBorrow","type":"bool"}],"internalType":"struct AccountContext","name":"accountContext","type":"tuple"},{"components":[{"internalType":"uint16","name":"currencyId","type":"uint16"},{"internalType":"int256","name":"cashBalance","type":"int256"},{"internalType":"int256","name":"nTokenBalance","type":"int256"},{"internalType":"uint256","name":"lastClaimTime","type":"uint256"},{"internalType":"uint256","name":"accountIncentiveDebt","type":"uint256"}],"internalType":"struct AccountBalance[]","name":"accountBalances","type":"tuple[]"},{"components":[{"internalType":"uint16","name":"currencyId","type":"uint16"},{"internalType":"uint256","name":"maturity","type":"uint256"},{"internalType":"uint256","name":"assetType","type":"uint256"},{"internalType":"int256","name":"notional","type":"int256"},{"internalType":"uint256","name":"storageSlot","type":"uint256"},{"internalType":"enum AssetStorageState","name":"storageState","type":"uint8"}],"internalType":"struct PortfolioAsset[]","name":"portfolio","type":"tuple[]"}],"stateMutability":"view","type":"function"},{"inputs":[{"internalType":"uint16","name":"currencyId","type":"uint16"},{"internalType":"address","name":"account","type":"address"}],"name":"getAccountBalance","outputs":[{"internalType":"int256","name":"cashBalance","type":"int256"},{"internalType":"int256","name":"nTokenBalance","type":"int256"},{"internalType":"uint256","name":"lastClaimTime","type":"uint256"}],"stateMutability":"view","type":"function"},{"inputs":[{"internalType":"address","name":"account","type":"address"}],"name":"getAccountContext","outputs":[{"components":[{"internalType":"uint40","name":"nextSettleTime","type":"uint40"},{"internalType":"bytes1","name":"hasDebt","type":"bytes1"},{"internalType":"uint8","name":"assetArrayLength","type":"uint8"},{"internalType":"uint16","name":"bitmapCurrencyId","type":"uint16"},{"internalType":"bytes18","name":"activeCurrencies","type":"bytes18"},{"internalType":"bool","name":"allowPrimeBorrow","type":"bool"}],"internalType":"struct AccountContext","name":"","type":"tuple"}],"stateMutability":"view","type":"function"},{"inputs":[{"internalType":"address","name":"account","type":"address"}],"name":"getAccountPortfolio","outputs":[{"components":[{"internalType":"uint16","name":"currencyId","type":"uint16"},{"internalType":"uint256","name":"maturity","type":"uint256"},{"internalType":"uint256","name":"assetType","type":"uint256"},{"internalType":"int256","name":"notional","type":"int256"},{"internalType":"uint256","name":"storageSlot","type":"uint256"},{"internalType":"enum AssetStorageState","name":"storageState","type":"uint8"}],"internalType":"struct PortfolioAsset[]","name":"","type":"tuple[]"}],"stateMutability":"view","type":"function"},{"inputs":[{"internalType":"uint16","name":"currencyId","type":"uint16"},{"internalType":"address","name":"account","type":"address"}],"name":"getAccountPrimeDebtBalance","outputs":[{"internalType":"int256","name":"debtBalance","type":"int256"}],"stateMutability":"view","type":"function"},{"inputs":[{"internalType":"uint16","name":"currencyId","type":"uint16"}],"name":"getActiveMarkets","outputs":[{"components":[{"internalType":"bytes32","name":"storageSlot","type":"bytes32"},{"internalType":"uint256","name":"maturity","type":"uint256"},{"internalType":"int256","name":"totalfCash","type":"int256"},{"internalType":"int256","name":"totalPrimeCash","type":"int256"},{"internalType":"int256","name":"totalLiquidity","type":"int256"},{"internalType":"uint256","name":"lastImpliedRate","type":"uint256"},{"internalType":"uint256","name":"oracleRate","type":"uint256"},{"internalType":"uint256","name":"previousTradeTime","type":"uint256"}],"internalType":"struct MarketParameters[]","name":"","type":"tuple[]"}],"stateMutability":"view","type":"function"},{"inputs":[{"internalType":"uint16","name":"currencyId","type":"uint16"},{"internalType":"uint32","name":"blockTime","type":"uint32"}],"name":"getActiveMarketsAtBlockTime","outputs":[{"components":[{"internalType":"bytes32","name":"storageSlot","type":"bytes32"},{"internalType":"uint256","name":"maturity","type":"uint256"},{"internalType":"int256","name":"totalfCash","type":"int256"},{"internalType":"int256","name":"totalPrimeCash","type":"int256"},{"internalType":"int256","name":"totalLiquidity","type":"int256"},{"internalType":"uint256","name":"lastImpliedRate","type":"uint256"},{"internalType":"uint256","name":"oracleRate","type":"uint256"},{"internalType":"uint256","name":"previousTradeTime","type":"uint256"}],"internalType":"struct MarketParameters[]","name":"","type":"tuple[]"}],"stateMutability":"view","type":"function"},{"inputs":[{"internalType":"address","name":"account","type":"address"},{"internalType":"uint16","name":"currencyId","type":"uint16"}],"name":"getAssetsBitmap","outputs":[{"internalType":"bytes32","name":"","type":"bytes32"}],"stateMutability":"view","type":"function"},{"inputs":[{"internalType":"address","name":"callback","type":"address"}],"name":"getAuthorizedCallbackContractStatus","outputs":[{"internalType":"bool","name":"isAuthorized","type":"bool"}],"stateMutability":"view","type":"function"},{"inputs":[{"internalType":"uint16","name":"currencyId","type":"uint16"},{"internalType":"address","name":"account","type":"address"}],"name":"getBalanceOfPrimeCash","outputs":[{"internalType":"int256","name":"cashBalance","type":"int256"}],"stateMutability":"view","type":"function"},{"inputs":[{"internalType":"uint16","name":"currencyId","type":"uint16"}],"name":"getCashGroup","outputs":[{"components":[{"internalType":"uint8","name":"maxMarketIndex","type":"uint8"},{"internalType":"uint8","name":"rateOracleTimeWindow5Min","type":"uint8"},{"internalType":"uint8","name":"maxDiscountFactor5BPS","type":"uint8"},{"internalType":"uint8","name":"reserveFeeShare","type":"uint8"},{"internalType":"uint8","name":"debtBuffer25BPS","type":"uint8"},{"internalType":"uint8","name":"fCashHaircut25BPS","type":"uint8"},{"internalType":"uint8","name":"minOracleRate25BPS","type":"uint8"},{"internalType":"uint8","name":"liquidationfCashHaircut25BPS","type":"uint8"},{"internalType":"uint8","name":"liquidationDebtBuffer25BPS","type":"uint8"},{"internalType":"uint8","name":"maxOracleRate25BPS","type":"uint8"}],"internalType":"struct CashGroupSettings","name":"","type":"tuple"}],"stateMutability":"view","type":"function"},{"inputs":[{"internalType":"uint16","name":"currencyId","type":"uint16"}],"name":"getCashGroupAndAssetRate","outputs":[{"components":[{"internalType":"uint8","name":"maxMarketIndex","type":"uint8"},{"internalType":"uint8","name":"rateOracleTimeWindow5Min","type":"uint8"},{"internalType":"uint8","name":"maxDiscountFactor5BPS","type":"uint8"},{"internalType":"uint8","name":"reserveFeeShare","type":"uint8"},{"internalType":"uint8","name":"debtBuffer25BPS","type":"uint8"},{"internalType":"uint8","name":"fCashHaircut25BPS","type":"uint8"},{"internalType":"uint8","name":"minOracleRate25BPS","type":"uint8"},{"internalType":"uint8","name":"liquidationfCashHaircut25BPS","type":"uint8"},{"internalType":"uint8","name":"liquidationDebtBuffer25BPS","type":"uint8"},{"internalType":"uint8","name":"maxOracleRate25BPS","type":"uint8"}],"internalType":"struct CashGroupSettings","name":"cashGroup","type":"tuple"},{"components":[{"internalType":"contract AssetRateAdapter","name":"rateOracle","type":"address"},{"internalType":"int256","name":"rate","type":"int256"},{"internalType":"int256","name":"underlyingDecimals","type":"int256"}],"internalType":"struct Deprecated_AssetRateParameters","name":"assetRate","type":"tuple"}],"stateMutability":"view","type":"function"},{"inputs":[{"internalType":"uint16","name":"currencyId","type":"uint16"}],"name":"getCurrency","outputs":[{"components":[{"internalType":"address","name":"tokenAddress","type":"address"},{"internalType":"bool","name":"hasTransferFee","type":"bool"},{"internalType":"int256","name":"decimals","type":"int256"},{"internalType":"enum TokenType","name":"tokenType","type":"uint8"},{"internalType":"uint256","name":"deprecated_maxCollateralBalance","type":"uint256"}],"internalType":"struct Token","name":"assetToken","type":"tuple"},{"components":[{"internalType":"address","name":"tokenAddress","type":"address"},{"internalType":"bool","name":"hasTransferFee","type":"bool"},{"internalType":"int256","name":"decimals","type":"int256"},{"internalType":"enum TokenType","name":"tokenType","type":"uint8"},{"internalType":"uint256","name":"deprecated_maxCollateralBalance","type":"uint256"}],"internalType":"struct Token","name":"underlyingToken","type":"tuple"}],"stateMutability":"view","type":"function"},{"inputs":[{"internalType":"uint16","name":"currencyId","type":"uint16"}],"name":"getCurrencyAndRates","outputs":[{"components":[{"internalType":"address","name":"tokenAddress","type":"address"},{"internalType":"bool","name":"hasTransferFee","type":"bool"},{"internalType":"int256","name":"decimals","type":"int256"},{"internalType":"enum TokenType","name":"tokenType","type":"uint8"},{"internalType":"uint256","name":"deprecated_maxCollateralBalance","type":"uint256"}],"internalType":"struct Token","name":"assetToken","type":"tuple"},{"components":[{"internalType":"address","name":"tokenAddress","type":"address"},{"internalType":"bool","name":"hasTransferFee","type":"bool"},{"internalType":"int256","name":"decimals","type":"int256"},{"internalType":"enum TokenType","name":"tokenType","type":"uint8"},{"internalType":"uint256","name":"deprecated_maxCollateralBalance","type":"uint256"}],"internalType":"struct Token","name":"underlyingToken","type":"tuple"},{"components":[{"internalType":"int256","name":"rateDecimals","type":"int256"},{"internalType":"int256","name":"rate","type":"int256"},{"internalType":"int256","name":"buffer","type":"int256"},{"internalType":"int256","name":"haircut","type":"int256"},{"internalType":"int256","name":"liquidationDiscount","type":"int256"}],"internalType":"struct ETHRate","name":"ethRate","type":"tuple"},{"components":[{"internalType":"contract AssetRateAdapter","name":"rateOracle","type":"address"},{"internalType":"int256","name":"rate","type":"int256"},{"internalType":"int256","name":"underlyingDecimals","type":"int256"}],"internalType":"struct Deprecated_AssetRateParameters","name":"assetRate","type":"tuple"}],"stateMutability":"view","type":"function"},{"inputs":[{"internalType":"address","name":"tokenAddress","type":"address"}],"name":"getCurrencyId","outputs":[{"internalType":"uint16","name":"currencyId","type":"uint16"}],"stateMutability":"view","type":"function"},{"inputs":[{"internalType":"uint16","name":"currencyId","type":"uint16"}],"name":"getDepositParameters","outputs":[{"internalType":"int256[]","name":"depositShares","type":"int256[]"},{"internalType":"int256[]","name":"leverageThresholds","type":"int256[]"}],"stateMutability":"view","type":"function"},{"inputs":[{"internalType":"address","name":"account","type":"address"}],"name":"getFreeCollateral","outputs":[{"internalType":"int256","name":"","type":"int256"},{"internalType":"int256[]","name":"","type":"int256[]"}],"stateMutability":"view","type":"function"},{"inputs":[{"internalType":"address","name":"operator","type":"address"}],"name":"getGlobalTransferOperatorStatus","outputs":[{"internalType":"bool","name":"isAuthorized","type":"bool"}],"stateMutability":"view","type":"function"},{"inputs":[{"internalType":"uint16","name":"currencyId","type":"uint16"}],"name":"getInitializationParameters","outputs":[{"internalType":"int256[]","name":"deprecated_annualizedAnchorRates","type":"int256[]"},{"internalType":"int256[]","name":"proportions","type":"int256[]"}],"stateMutability":"view","type":"function"},{"inputs":[{"internalType":"uint16","name":"currencyId","type":"uint16"}],"name":"getInterestRateCurve","outputs":[{"components":[{"internalType":"uint256","name":"kinkUtilization1","type":"uint256"},{"internalType":"uint256","name":"kinkUtilization2","type":"uint256"},{"internalType":"uint256","name":"kinkRate1","type":"uint256"},{"internalType":"uint256","name":"kinkRate2","type":"uint256"},{"internalType":"uint256","name":"maxRate","type":"uint256"},{"internalType":"uint256","name":"minFeeRate","type":"uint256"},{"internalType":"uint256","name":"maxFeeRate","type":"uint256"},{"internalType":"uint256","name":"feeRatePercent","type":"uint256"}],"internalType":"struct InterestRateParameters[]","name":"nextInterestRateCurve","type":"tuple[]"},{"components":[{"internalType":"uint256","name":"kinkUtilization1","type":"uint256"},{"internalType":"uint256","name":"kinkUtilization2","type":"uint256"},{"internalType":"uint256","name":"kinkRate1","type":"uint256"},{"internalType":"uint256","name":"kinkRate2","type":"uint256"},{"internalType":"uint256","name":"maxRate","type":"uint256"},{"internalType":"uint256","name":"minFeeRate","type":"uint256"},{"internalType":"uint256","name":"maxFeeRate","type":"uint256"},{"internalType":"uint256","name":"feeRatePercent","type":"uint256"}],"internalType":"struct InterestRateParameters[]","name":"activeInterestRateCurve","type":"tuple[]"}],"stateMutability":"view","type":"function"},{"inputs":[],"name":"getLibInfo","outputs":[{"internalType":"address","name":"","type":"address"},{"internalType":"address","name":"","type":"address"}],"stateMutability":"pure","type":"function"},{"inputs":[{"internalType":"uint16","name":"currencyId","type":"uint16"},{"internalType":"uint256","name":"maturity","type":"uint256"},{"internalType":"uint256","name":"settlementDate","type":"uint256"}],"name":"getMarket","outputs":[{"components":[{"internalType":"bytes32","name":"storageSlot","type":"bytes32"},{"internalType":"uint256","name":"maturity","type":"uint256"},{"internalType":"int256","name":"totalfCash","type":"int256"},{"internalType":"int256","name":"totalPrimeCash","type":"int256"},{"internalType":"int256","name":"totalLiquidity","type":"int256"},{"internalType":"uint256","name":"lastImpliedRate","type":"uint256"},{"internalType":"uint256","name":"oracleRate","type":"uint256"},{"internalType":"uint256","name":"previousTradeTime","type":"uint256"}],"internalType":"struct MarketParameters","name":"","type":"tuple"}],"stateMutability":"view","type":"function"},{"inputs":[],"name":"getMaxCurrencyId","outputs":[{"internalType":"uint16","name":"","type":"uint16"}],"stateMutability":"view","type":"function"},{"inputs":[{"internalType":"address","name":"tokenAddress","type":"address"}],"name":"getNTokenAccount","outputs":[{"internalType":"uint16","name":"currencyId","type":"uint16"},{"internalType":"uint256","name":"totalSupply","type":"uint256"},{"internalType":"uint256","name":"incentiveAnnualEmissionRate","type":"uint256"},{"internalType":"uint256","name":"lastInitializedTime","type":"uint256"},{"internalType":"bytes5","name":"nTokenParameters","type":"bytes5"},{"internalType":"int256","name":"cashBalance","type":"int256"},{"internalType":"uint256","name":"accumulatedNOTEPerNToken","type":"uint256"},{"internalType":"uint256","name":"lastAccumulatedTime","type":"uint256"}],"stateMutability":"view","type":"function"},{"inputs":[{"internalType":"address","name":"tokenAddress","type":"address"}],"name":"getNTokenPortfolio","outputs":[{"components":[{"internalType":"uint16","name":"currencyId","type":"uint16"},{"internalType":"uint256","name":"maturity","type":"uint256"},{"internalType":"uint256","name":"assetType","type":"uint256"},{"internalType":"int256","name":"notional","type":"int256"},{"internalType":"uint256","name":"storageSlot","type":"uint256"},{"internalType":"enum AssetStorageState","name":"storageState","type":"uint8"}],"internalType":"struct PortfolioAsset[]","name":"liquidityTokens","type":"tuple[]"},{"components":[{"internalType":"uint16","name":"currencyId","type":"uint16"},{"internalType":"uint256","name":"maturity","type":"uint256"},{"internalType":"uint256","name":"assetType","type":"uint256"},{"internalType":"int256","name":"notional","type":"int256"},{"internalType":"uint256","name":"storageSlot","type":"uint256"},{"internalType":"enum AssetStorageState","name":"storageState","type":"uint8"}],"internalType":"struct PortfolioAsset[]","name":"netfCashAssets","type":"tuple[]"}],"stateMutability":"view","type":"function"},{"inputs":[],"name":"getNoteToken","outputs":[{"internalType":"address","name":"","type":"address"}],"stateMutability":"pure","type":"function"},{"inputs":[],"name":"getOwnershipStatus","outputs":[{"internalType":"address","name":"","type":"address"},{"internalType":"address","name":"","type":"address"}],"stateMutability":"view","type":"function"},{"inputs":[{"internalType":"uint16","name":"currencyId","type":"uint16"}],"name":"getPrimeCashHoldingsOracle","outputs":[{"internalType":"address","name":"","type":"address"}],"stateMutability":"view","type":"function"},{"inputs":[{"internalType":"uint16","name":"currencyId","type":"uint16"},{"internalType":"uint256","name":"blockTime","type":"uint256"}],"name":"getPrimeFactors","outputs":[{"components":[{"internalType":"int256","name":"supplyFactor","type":"int256"},{"internalType":"int256","name":"debtFactor","type":"int256"},{"internalType":"uint256","name":"oracleSupplyRate","type":"uint256"}],"internalType":"struct PrimeRate","name":"pr","type":"tuple"},{"components":[{"internalType":"uint256","name":"lastAccrueTime","type":"uint256"},{"internalType":"uint256","name":"totalPrimeSupply","type":"uint256"},{"internalType":"uint256","name":"totalPrimeDebt","type":"uint256"},{"internalType":"uint256","name":"oracleSupplyRate","type":"uint256"},{"internalType":"uint256","name":"lastTotalUnderlyingValue","type":"uint256"},{"internalType":"uint256","name":"underlyingScalar","type":"uint256"},{"internalType":"uint256","name":"supplyScalar","type":"uint256"},{"internalType":"uint256","name":"debtScalar","type":"uint256"},{"internalType":"uint256","name":"rateOracleTimeWindow","type":"uint256"}],"internalType":"struct PrimeCashFactors","name":"factors","type":"tuple"},{"internalType":"uint256","name":"maxUnderlyingSupply","type":"uint256"},{"internalType":"uint256","name":"totalUnderlyingSupply","type":"uint256"}],"stateMutability":"view","type":"function"},{"inputs":[{"internalType":"uint16","name":"currencyId","type":"uint16"}],"name":"getPrimeFactorsStored","outputs":[{"components":[{"internalType":"uint256","name":"lastAccrueTime","type":"uint256"},{"internalType":"uint256","name":"totalPrimeSupply","type":"uint256"},{"internalType":"uint256","name":"totalPrimeDebt","type":"uint256"},{"internalType":"uint256","name":"oracleSupplyRate","type":"uint256"},{"internalType":"uint256","name":"lastTotalUnderlyingValue","type":"uint256"},{"internalType":"uint256","name":"underlyingScalar","type":"uint256"},{"internalType":"uint256","name":"supplyScalar","type":"uint256"},{"internalType":"uint256","name":"debtScalar","type":"uint256"},{"internalType":"uint256","name":"rateOracleTimeWindow","type":"uint256"}],"internalType":"struct PrimeCashFactors","name":"","type":"tuple"}],"stateMutability":"view","type":"function"},{"inputs":[{"internalType":"uint16","name":"currencyId","type":"uint16"}],"name":"getPrimeInterestRateCurve","outputs":[{"components":[{"internalType":"uint256","name":"kinkUtilization1","type":"uint256"},{"internalType":"uint256","name":"kinkUtilization2","type":"uint256"},{"internalType":"uint256","name":"kinkRate1","type":"uint256"},{"internalType":"uint256","name":"kinkRate2","type":"uint256"},{"internalType":"uint256","name":"maxRate","type":"uint256"},{"internalType":"uint256","name":"minFeeRate","type":"uint256"},{"internalType":"uint256","name":"maxFeeRate","type":"uint256"},{"internalType":"uint256","name":"feeRatePercent","type":"uint256"}],"internalType":"struct InterestRateParameters","name":"","type":"tuple"}],"stateMutability":"view","type":"function"},{"inputs":[{"internalType":"uint16","name":"currencyId","type":"uint16"}],"name":"getRateStorage","outputs":[{"components":[{"internalType":"contract AggregatorV2V3Interface","name":"rateOracle","type":"address"},{"internalType":"uint8","name":"rateDecimalPlaces","type":"uint8"},{"internalType":"bool","name":"mustInvert","type":"bool"},{"internalType":"uint8","name":"buffer","type":"uint8"},{"internalType":"uint8","name":"haircut","type":"uint8"},{"internalType":"uint8","name":"liquidationDiscount","type":"uint8"}],"internalType":"struct ETHRateStorage","name":"ethRate","type":"tuple"},{"components":[{"internalType":"contract AssetRateAdapter","name":"rateOracle","type":"address"},{"internalType":"uint8","name":"underlyingDecimalPlaces","type":"uint8"}],"internalType":"struct AssetRateStorage","name":"assetRate","type":"tuple"}],"stateMutability":"view","type":"function"},{"inputs":[{"internalType":"uint16","name":"currencyId","type":"uint16"}],"name":"getRebalancingCooldown","outputs":[{"internalType":"uint40","name":"","type":"uint40"}],"stateMutability":"view","type":"function"},{"inputs":[{"internalType":"uint16","name":"currencyId","type":"uint16"},{"internalType":"address","name":"holding","type":"address"}],"name":"getRebalancingTarget","outputs":[{"internalType":"uint8","name":"","type":"uint8"}],"stateMutability":"view","type":"function"},{"inputs":[{"internalType":"uint16","name":"currencyId","type":"uint16"}],"name":"getReserveBalance","outputs":[{"internalType":"int256","name":"reserveBalance","type":"int256"}],"stateMutability":"view","type":"function"},{"inputs":[{"internalType":"uint16","name":"currencyId","type":"uint16"}],"name":"getReserveBuffer","outputs":[{"internalType":"uint256","name":"","type":"uint256"}],"stateMutability":"view","type":"function"},{"inputs":[{"internalType":"uint16","name":"currencyId","type":"uint16"}],"name":"getSecondaryIncentiveRewarder","outputs":[{"internalType":"address","name":"rewarder","type":"address"}],"stateMutability":"view","type":"function"},{"inputs":[{"internalType":"uint16","name":"currencyId","type":"uint16"},{"internalType":"uint40","name":"maturity","type":"uint40"}],"name":"getSettlementRate","outputs":[{"components":[{"internalType":"int256","name":"supplyFactor","type":"int256"},{"internalType":"int256","name":"debtFactor","type":"int256"},{"internalType":"uint256","name":"oracleSupplyRate","type":"uint256"}],"internalType":"struct PrimeRate","name":"","type":"tuple"}],"stateMutability":"view","type":"function"},{"inputs":[{"internalType":"address[]","name":"tokens","type":"address[]"}],"name":"getStoredTokenBalances","outputs":[{"internalType":"uint256[]","name":"balances","type":"uint256[]"}],"stateMutability":"view","type":"function"},{"inputs":[{"internalType":"uint16","name":"currencyId","type":"uint16"},{"internalType":"uint256","name":"maturity","type":"uint256"}],"name":"getTotalfCashDebtOutstanding","outputs":[{"internalType":"int256","name":"","type":"int256"}],"stateMutability":"view","type":"function"},{"inputs":[],"name":"getTreasuryManager","outputs":[{"internalType":"address","name":"","type":"address"}],"stateMutability":"view","type":"function"},{"inputs":[{"internalType":"address","name":"account","type":"address"},{"internalType":"uint16","name":"currencyId","type":"uint16"},{"internalType":"uint256","name":"maturity","type":"uint256"}],"name":"getfCashNotional","outputs":[{"internalType":"int256","name":"","type":"int256"}],"stateMutability":"view","type":"function"},{"inputs":[{"internalType":"uint16","name":"currencyId","type":"uint16"}],"name":"nTokenAddress","outputs":[{"internalType":"address","name":"","type":"address"}],"stateMutability":"view","type":"function"},{"inputs":[],"name":"owner","outputs":[{"internalType":"address","name":"","type":"address"}],"stateMutability":"view","type":"function"},{"inputs":[{"internalType":"uint16","name":"currencyId","type":"uint16"}],"name":"pCashAddress","outputs":[{"internalType":"address","name":"","type":"address"}],"stateMutability":"view","type":"function"},{"inputs":[{"internalType":"uint16","name":"currencyId","type":"uint16"}],"name":"pDebtAddress","outputs":[{"internalType":"address","name":"","type":"address"}],"stateMutability":"view","type":"function"},{"inputs":[],"name":"pauseGuardian","outputs":[{"internalType":"address","name":"","type":"address"}],"stateMutability":"view","type":"function"},{"inputs":[],"name":"pauseRouter","outputs":[{"internalType":"address","name":"","type":"address"}],"stateMutability":"view","type":"function"}],"bytecode":"608060405234801561001057600080fd5b50614655806100206000396000f3fe608060405234801561001057600080fd5b50600436106102d65760003560e01c80638ecd066011610182578063c866a480116100e9578063e74b6e4e116100a2578063ec41a2571161007c578063ec41a25714610788578063f594540414610790578063fbcbc0f1146107a3578063fc1b1345146107c5576102d6565b8063e74b6e4e14610741578063e7ceffb814610762578063ec3c050114610775576102d6565b8063c866a480146106b1578063ca0ee700146106c4578063ca668b3c146106d7578063d3ca48e8146106fb578063d4ccb0ed1461070e578063dd8e32ec1461072e576102d6565b8063aa94baa71161013b578063aa94baa714610607578063b0de221714610628578063b536ffb614610648578063b62d268a14610668578063c399944414610688578063c4c96dae146106a9576102d6565b80638ecd0660146105a0578063911a56b0146105b357806394f1d1e4146105c6578063974b1054146105d957806397f503f5146105ec5780639c4e89f4146105ff576102d6565b8063594665b511610241578063709d6c7b116101fa5780637eaf7f2f116101d45780637eaf7f2f1461054d578063824633671461056d57806388a73eb7146105755780638da5cb5b14610598576102d6565b8063709d6c7b146105075780637154233314610527578063722abb861461053a576102d6565b8063594665b51461045e5780635eb2c1ca1461047157806365663b591461049257806367c22ce5146104b35780636987a203146104c65780636e4682f7146104e7576102d6565b806324a3d6221161029357806324a3d622146103ae5780632d353221146103b6578063336ede35146103dd57806339df4791146103fd578063497cf7e31461041d5780634ebad18e1461043d576102d6565b806304ccb84e146102f75780631794b8ef14610315578063197a6dc0146103355780631d66d03f1461034b578063206f27991461036b57806324980ce01461038e575b60405162461bcd60e51b81526004016102ee906142e3565b60405180910390fd5b6102ff6107e7565b60405161030c9190614576565b60405180910390f35b610328610323366004613a9f565b6107f1565b60405161030c91906141e9565b61033d6108ba565b60405161030c9291906140fe565b61035e610359366004613bc8565b6108d9565b60405161030c91906140ea565b61037e610379366004613c0b565b6108f5565b60405161030c94939291906144cc565b6103a161039c366004613bc8565b61092c565b60405161030c91906144af565b61035e61093d565b6103c96103c4366004613a21565b61094c565b60405161030c9897969594939291906145b9565b6103f06103eb366004613bc8565b61099e565b60405161030c91906145ff565b61041061040b366004613be2565b6109d3565b60405161030c919061422c565b61043061042b366004613bc8565b610a61565b60405161030c9190614162565b61045061044b366004613bc8565b610a76565b60405161030c9291906144fc565b61035e61046c366004613bc8565b610ab2565b61048461047f366004613bc8565b610abd565b60405161030c92919061413d565b6104a56104a0366004613bc8565b610bf2565b60405161030c929190614118565b6104106104c1366004613bc8565b610c28565b6104d96104d4366004613bc8565b610c3e565b60405161030c92919061440f565b6104fa6104f5366004613a21565b610c6f565b60405161030c9190614221565b61051a610515366004613c34565b610c8d565b60405161030c91906144a0565b610410610535366004613c0b565b610cdf565b6104fa610548366004613a21565b610ceb565b61056061055b366004613be2565b610d09565b60405161030c9190614611565b61035e610d45565b610588610583366004613bc8565b610d54565b60405161030c9493929190614518565b61035e610dbc565b6104106105ae366004613a3b565b610dd3565b6104106105c1366004613a64565b610dec565b6102ff6105d4366004613a21565b610e0e565b61035e6105e7366004613bc8565b610e48565b6104a56105fa366004613bc8565b610e8a565b61035e610ec3565b61061a610615366004613a21565b610ed2565b60405161030c9291906141c4565b61063b610636366004613a21565b610f0c565b60405161030c9190614364565b61065b610656366004613a21565b610f1d565b60405161030c91906141b1565b61067b610676366004613d02565b610f6a565b60405161030c91906144be565b61069b610696366004613a21565b610f8d565b60405161030c929190614235565b61033d611025565b61035e6106bf366004613bc8565b611053565b6104106106d2366004613bc8565b611067565b6106ea6106e5366004613d36565b61107e565b60405161030c959493929190614585565b610410610709366004613be2565b6110a3565b61072161071c366004613bc8565b611101565b60405161030c9190614400565b61041061073c366004613c66565b61111f565b61075461074f366004613bc8565b61113a565b60405161030c92919061442c565b61035e610770366004613bc8565b61120c565b610430610783366004613cc4565b611227565b61035e611242565b61051a61079e366004613bc8565b61125a565b6107b66107b1366004613a21565b61126b565b60405161030c93929190614372565b6107d86107d3366004613be2565b6113eb565b60405161030c9392919061424e565b60005461ffff1690565b606060006107fd611413565b90508267ffffffffffffffff8111801561081657600080fd5b50604051908082528060200260200182016040528015610840578160200160208202803683370190505b50915060005b838110156108b25781600086868481811061085d57fe5b90506020020160208101906108729190613a21565b6001600160a01b03166001600160a01b031681526020019081526020016000205483828151811061089f57fe5b6020908102919091010152600101610846565b505092915050565b600054600d546001600160a01b03640100000000909204821691169091565b60006108e482611420565b6108ed8261145d565b90505b919050565b6108fd61371c565b61090561373d565b600080610912868661148a565b90945092506109218487611548565b949793965094505050565b61093461373d565b6108ed826115bf565b6002546001600160a01b031681565b6000806000806000806000806109618961168d565b939b5091985096509094506109779050896116f9565b91985092509050610989898942611763565b90915090505080935050919395975091939597565b6000806109a9611796565b61ffff93909316600090815260209390935250506040902054600160501b900464ffffffffff1690565b60006109e0828442611763565b509192506109f491505061ffff84166117a3565b6001600160a01b0316826001600160a01b03161415610a5b576000610a1984426117c9565b905060005b81518110156108b257610a51828281518110610a3657fe5b6020026020010151606001518461188290919063ffffffff16565b9250600101610a1e565b92915050565b6060610a6c82611420565b6108ed82426117c9565b610a7e613789565b610a86613789565b610a8f83611420565b610a9c8361ffff16611898565b9150610aab8361ffff166118ab565b9050915091565b60006108ed826118be565b606080610ac983611420565b6000610ad88461ffff166118ee565b60ff16905080610ae85750610bed565b8067ffffffffffffffff81118015610aff57600080fd5b50604051908082528060200260200182016040528015610b3957816020015b610b266137b8565b815260200190600190039081610b1e5790505b5092508067ffffffffffffffff81118015610b5357600080fd5b50604051908082528060200260200182016040528015610b8d57816020015b610b7a6137b8565b815260200190600190039081610b725790505b50915060015b818111610bea57610ba48582611904565b846001830381518110610bb357fe5b6020026020010181905250610bc8858261191e565b836001830381518110610bd757fe5b6020908102919091010152600101610b93565b50505b915091565b606080610bfe83611420565b6000610c0d8461ffff166118ee565b60ff169050610c208461ffff1682611933565b915050915091565b61ffff166000908152600c602052604090205490565b610c466137fd565b610c4e613851565b610c5783611420565b610c648361ffff1661195a565b9150610aab836119e2565b6001600160a01b031660009081526008602052604090205460ff1690565b610c9561387b565b610c9e84611420565b6000610ca985611a6d565b9050610cb361387b565b610cd48661ffff1686426001610cc887611a8e565b8694939291908a611aa2565b9150505b9392505050565b6000610cd88383611ad9565b6001600160a01b031660009081526006602052604090205460ff1690565b600080610d14611b14565b61ffff85166000908152602091825260408082206001600160a01b0387168352909252205460ff1691505092915050565b6001546001600160a01b031681565b610d5c613789565b610d64613789565b610d6c6138c3565b610d74613851565b610d7d85611420565b610d8a8561ffff16611898565b9350610d998561ffff166118ab565b9250610da88561ffff16611b21565b9150610db3856119e2565b90509193509193565b60005464010000000090046001600160a01b031681565b6000610dde82611420565b610cd8838361ffff16611c84565b6000610df783611420565b610e06848461ffff1684611cb9565b949350505050565b6001600160a01b03811660009081526009602052604090205461ffff16806108f05760405162461bcd60e51b81526004016102ee9061433a565b6000610e5382611420565b6000610e628361ffff166117a3565b90506001600160a01b0381166108ed5760405162461bcd60e51b81526004016102ee90614264565b606080610e9683611420565b6000610ea58461ffff166118ee565b60ff169050610eb88461ffff1682611cfe565b909590945092505050565b600b546001600160a01b031690565b6060806000806000610ee38661168d565b5093509350509250610ef58682611d33565b9450610f02868484611d47565b9350505050915091565b610f146138f2565b6108ed82611e61565b60606000610f2a83611e61565b9050610f3581611f1a565b15610f5c57610f54838260600151836000015164ffffffffff16611d47565b9150506108f0565b610f54838260400151611d33565b610f7261371c565b610f7b83611420565b610cd8838364ffffffffff1642611f27565b6000606073__FreeCollateralExternal________________636cb65eaf846040518263ffffffff1660e01b8152600401610fc891906140ea565b60006040518083038186803b158015610fe057600080fd5b505af4158015610ff4573d6000803e3d6000fd5b505050506040513d6000823e601f3d908101601f1916820160405261101c9190810190613b0e565b91509150915091565b73__FreeCollateralExternal________________73__MigrateIncentives_____________________9091565b600061105e82611420565b6108ed82611f59565b600061107282611420565b6108ed610fee83611f63565b600080600080600061108f86611fb4565b945094509450945094505b91939590929450565b6000806110ae611ff6565b6001600160a01b03841660009081526020828152604080832061ffff891684529091528120805492935091600160a81b9004600a90810b900b9081126110f55760006110f7565b805b9695505050505050565b6111096137fd565b61111282611420565b6108ed8261ffff1661195a565b600061112e8686868686612003565b90505b95945050505050565b6111426138f2565b61114a613927565b61115383611420565b600061115d612071565b9050600061116961207e565b61ffff909516600081815260209384526040808220815160c08101835290546001600160a01b03808216835260ff600160a01b8084048216858b0152600160a81b84048216151585870152600160b01b840482166060860152600160b81b840482166080860152600160c01b909304811660a085015295855299875292829020825180840190935254988916825291909704909116928601929092525093915050565b60008061121c8361ffff166117a3565b9050610cd88161208b565b606061123283611420565b610cd8838363ffffffff166117c9565b73019be259bc299f3f653688c7655c87f998bc7bc190565b6112626137b8565b6108ed82612104565b6112736138f2565b60608061127f84611e61565b60408051600a8082526101608201909252919450816020015b6112a061393e565b81526020019060019003908161129857905050915060006112c084611f1a565b15611314576000836000815181106112d457fe5b602090810291909101015160608601805161ffff168252519091506112fb90879042611763565b6080850152606084015260408301526020909101526001015b60808401515b6001600160701b03198116156113a257600084838151811061133857fe5b602090810291909101015160f083901c613fff1680825290915061135c57506113a2565b61136b87826000015142611763565b6080850152606084015260408301526020909101526001919091019060101b6fffffffffffffffffffffffffffffffff191661131a565b6113ab85611f1a565b156113d1576113ca868660600151876000015164ffffffffff16611d47565b92506113e2565b6113df868660400151611d33565b92505b50509193909250565b60008060006113f985611420565b611404848642611763565b50919790965090945092505050565b600080610a5b6026612137565b8061ffff16600010801561143e575060005461ffff90811690821611155b61145a5760405162461bcd60e51b81526004016102ee9061430d565b50565b6000611467612150565b61ffff90921660009081526020929092525060409020546001600160a01b031690565b61149261371c565b61149a61373d565b6114a3846115bf565b905082816000015110156114d45760006114bc8561215d565b90506114ca858383876121d8565b5091506114e19050565b805183146114e157600080fd5b604051806060016040528061150f61150a8460a001518560c001516122d990919063ffffffff16565b612300565b815260200161153261150a8460a001518560e001516122d990919063ffffffff16565b8152602001826060015181525091509250929050565b600080600061155561231a565b61ffff8516600090815260209190915260409020600181015490915061158790600160581b900463ffffffff16612327565b81549093506501000000000090046affffffffffffffffffffff166115b46115af8783612335565b612361565b925050509250929050565b6115c761373d565b60006115d161231a565b61ffff93841660009081526020918252604090819020805464ffffffffff811686526501000000000081046affffffffffffffffffffff908116948701949094526001820154841692860192909252600160d81b820463ffffffff166060860152600160801b9091049091166080840152600201546001600160501b0380821660a0850152600160501b8204811660c0850152600160a01b82041660e0840152600160f01b900460ff1661012c02909216610100820152919050565b60008060008060008061169e612370565b6001600160a01b039097166000908152602097909752505060409094205461ffff81169563ffffffff620100008304811696506601000000000000830416945060ff600160501b8304169350600160581b90910460d81b9150565b60008060008061170761237d565b6001600160a01b0395909516600090815260209590955250506040909220546bffffffffffffffffffffffff811693600160601b82046fffffffffffffffffffffffffffffffff169350600160e01b90910463ffffffff169150565b6000806000806000611775878761148a565b50905061178388888361238a565b9450945094509450505b93509350935093565b600080610a5b6025612137565b6000806117ae612444565b6000938452602052505060409020546001600160a01b031690565b606060006117d684611a6d565b90506000816020015167ffffffffffffffff811180156117f557600080fd5b5060405190808252806020026020018201604052801561182f57816020015b61181c61387b565b8152602001906001900390816118145790505b50905060005b82602001518110156118795761187182828151811061185057fe5b6020026020010151826001016001888761245190949392919063ffffffff16565b600101611835565b50949350505050565b81810182811215600083121514610a5b57600080fd5b6118a0613789565b6108ed8260006124cc565b6118b3613789565b6108ed8260016124cc565b6000806118c9612566565b61ffff939093166000908152602093909352505060409020546001600160a01b031690565b6000806118fa83612573565b60ff169392505050565b61190c6137b8565b610cd88383611919612590565b61259d565b6119266137b8565b610cd883836119196125f4565b6060600061193f612601565b60008581526020829052604090209091506110f7818561260e565b6119626137fd565b600061196d83612573565b9050600081601f60408051610140810190915291901a80825291506020810183601e1a815260200183601d1a815260200183601c1a815260200183601b1a815260200183601a1a81526020018360191a81526020018360181a81526020018360171a81526020018360161a9052949350505050565b6119ea613851565b60006119f98361ffff166118ab565b90506000611a196402540be400836040015161275290919063ffffffff16565b90506000611a27854261148a565b50604080850151908601528051909150611a5c906ec097ce7bc90715b34b9f100000000090611a569085612752565b906127a0565b602085015250506000825250919050565b611a75613971565b6000611a81834261148a565b509050610cd883826127d1565b6060015161012c60089190911c60ff160290565b611aaf8787878685612814565b611ac88760e001518860a001518960c0015185886128cf565b60c090970196909652505050505050565b600080611ae461295d565b61ffff949094166000908152602094855260408082209482529390945250508120546001600160501b0316900390565b600080610a5b6024612137565b611b296138c3565b6000611b33612071565b6000848152602082905260408120919250806001861415611b605750670de0b6b3a7640000905080611c23565b825460408051633fabe5a360e21b815290516001600160a01b039092169163feaf968c9160048082019260a092909190829003018186803b158015611ba457600080fd5b505afa158015611bb8573d6000803e3d6000fd5b505050506040513d601f19601f82011682018060405250810190611bdc9190613d71565b5091935050600083139150611bf2905057600080fd5b825460ff600160a01b82048116600a0a9350600160a81b9091041615611c2357611c2081611a568480612752565b90505b8254600160b01b900460ff166096811315611c435760951901600a026096015b6040805160a081018252938452602084019290925290820152905460ff600160b81b820481166060840152600160c01b909104166080820152915050919050565b600080611c8f61296a565b6001600160a01b038516600090815260209182526040808220868352909252205491505092915050565b600080611cc4612977565b6001600160a01b03861660009081526020918252604080822087835283528082208683529092522054600f90810b900b9150509392505050565b6060806000611d0b612984565b6000868152602082905260409020909150611d26818661260e565b9097909650945050505050565b6060611d3f8383612991565b509392505050565b60606000611d59858561ffff16611c84565b90506000611d66826129b2565b905060008167ffffffffffffffff81118015611d8157600080fd5b50604051908082528060200260200182016040528015611dbb57816020015b611da861399d565b815260200190600190039081611da05790505b509050600091506000611dcd84612a82565b90505b8015611e56576000611de28783612aa7565b90506000611df58a8a61ffff1684611cb9565b90506000848681518110611e0557fe5b60209081029190910181015161ffff8c1681529081018490526001604082018190526060820184905296909601959050611e4187856000612b5a565b9650611e4c87612a82565b9350505050611dd0565b509695505050505050565b611e696138f2565b6000611e73612ba5565b6001600160a01b03841660009081526020918252604090819020815160c081018352905464ffffffffff811682526001600160f81b031965010000000000820460f81b169382019390935260ff6601000000000000840481169282019290925261ffff600160381b84041660608201526001600160701b03196901000000000000000000840460701b166080820152600160d81b90920416151560a0820152915050919050565b6060015161ffff16151590565b611f2f61371c565b6000611f3b8585612bb2565b909250905080611d3f57611f4f858461148a565b5095945050505050565b6000611467612c45565b600080611f6e611ff6565b6001600160a01b03851660009081526020828152604080832061ffff8816845290915281208054600160a81b9004600a90810b900b94509192508312156108b257600080fd5b603081901c64ffffffffff600883901c1660ff83166000806001831415611fe65750600160ff604087901c161461109a565b604086901c915091939590929450565b600080610a5b6006612137565b6000600184141561202f5761202886868461201f576001612023565b6000195b612c52565b9050611131565b600b84148061203e5750600984145b806120495750600a84145b1561205a5761202883878787612c9b565b600c84141561206c5761202886612cce565b600080fd5b600080610a5b6010612137565b600080610a5b600f612137565b600080612096612370565b6001600160a01b0384166000908152602082905260409020805491925090600160f81b900460ff16156120f2576120cb612ce1565b6001600160a01b0380861660009081526020929092526040909120541692506108f0915050565b6000925050506108f0565b5050919050565b61210c6137b8565b60006121166125f4565b61ffff8416600090815260209190915260408120549150610cd89082612cee565b6000620f424082602681111561214957fe5b0192915050565b600080610a5b6021612137565b600080612169836118be565b6001600160a01b031663a77c05b86040518163ffffffff1660e01b8152600401604080518083038186803b1580156121a057600080fd5b505afa1580156121b4573d6000803e3d6000fd5b505050506040513d601f19601f82011682018060405250810190610e069190613d4e565b6121e061373d565b60008060006121f0888689612e0d565b60c08b019290925260e08a0192909252602089015191935091506122149083612f17565b602088015260808701516000901561224257608088015161223f906122398982612f29565b90612f3e565b90505b612262612257670de0b6b3a764000083612f17565b60a08a015190612f5b565b60a089015250608087018690526000612279611796565b61ffff8a1660009081526020919091526040902054885163ffffffff600160a01b909204821692506122c4916122b39085908590612f1716565b8a606001518b61010001518a6128cf565b60608901525050928552509294909350915050565b6000826122e857506000610a5b565b828202828482816122f557fe5b0414610cd857600080fd5b60006001600160ff1b0382111561231657600080fd5b5090565b600080610a5b601d612137565b600881901c60ff9091161b90565b6000610cd86ec097ce7bc90715b34b9f1000000000611a5685600001518561275290919063ffffffff16565b60008082121561231657600080fd5b600080610a5b6002612137565b600080610a5b6011612137565b600080600080600061239a611ff6565b6001600160a01b03891660009081526020828152604080832061ffff8c168452909152902080546001600160501b0381169650600160501b900463ffffffff169450909150831561240757805461240090600160701b900466ffffffffffffff16612327565b925061241c565b8054600160701b900466ffffffffffffff1692505b8054612437908890600160a81b9004600a90810b900b612f78565b9550505093509350935093565b600080610a5b6003612137565b82600111158015612466575084602001518311155b6124825760405162461bcd60e51b81526004016102ee906142bb565b600061249f61249085612fa6565b6124998461304a565b90612f17565b90506124c4866000015161ffff168284866124b98b611a8e565b8a949392919061306b565b505050505050565b6124d4613789565b60006124de613095565b6000858152602082815260408083208715158452825291829020825160a08101845281546001600160a01b038116825260ff600160a01b82048116151594830194909452600160b01b81048416600a0a9482019490945293945092916060830191600160a81b90910416600581111561255357fe5b8152600060209091015295945050505050565b600080610a5b601f612137565b60008061257e6130a2565b60009384526020525050604090205490565b600080610a5b601c612137565b6125a56137b8565b60006125b0846130af565b61ffff8616600090815260208590526040812091925090600486106125d65760016125d9565b60005b60ff16600281106125e657fe5b015490506110f78282612cee565b600080610a5b601b612137565b600080610a5b6005612137565b6060806000808467ffffffffffffffff8111801561262b57600080fd5b50604051908082528060200260200182016040528015612655578160200160208202803683370190505b50905060008567ffffffffffffffff8111801561267157600080fd5b5060405190808252806020026020018201604052801561269b578160200160208202803683370190505b50905060005b86811015612745578784600e81106126b557fe5b600891828204019190066004029054906101000a900463ffffffff1663ffffffff168382815181106126e357fe5b60209081029190910101526001909301928784600e811061270057fe5b600891828204019190066004029054906101000a900463ffffffff1663ffffffff1682828151811061272e57fe5b6020908102919091010152600193840193016126a1565b5090969095509350505050565b8181026000198314156127825781158061277457508282828161277157fe5b05145b61277d57600080fd5b610a5b565b82158061279757508183828161279457fe5b05145b610a5b57600080fd5b6000816000191480156127b65750600160ff1b83145b156127c057600080fd5b8183816127c957fe5b059392505050565b6127d9613971565b60006127e88461ffff16612573565b6040805160808101825261ffff96909616865260ff821660208701528501939093525050606082015290565b600061281e6130e8565b6000868152602082815260408083208884528252808320868452825291829020808a5290890187905280546001600160501b03808216938b0193909352600160501b810490921660608a015263ffffffff600160a01b8304811660a08b0152600160c01b8304811660c08b0152600160e01b90920490911660e08901529091508084156128bd5760018201546001600160501b031660808901526128c5565b600060808901525b5050505050505050565b60008083116128dd57600080fd5b818611156128ec575083611131565b60006128f88388612f29565b90508381111561290b5785915050611131565b600061291782866130f5565b90506000612929633b9aca0083612f29565b9050612950633b9aca0061294a6129408a856122d9565b6124998c876122d9565b90613108565b9998505050505050505050565b600080610a5b6020612137565b600080610a5b600b612137565b600080610a5b600c612137565b600080610a5b6004612137565b60608061299e8484613127565b91506129a98261323f565b90509250929050565b600181901c7f5555555555555555555555555555555555555555555555555555555555555555908116911601600281901c7f3333333333333333333333333333333333333333333333333333333333333333908116911601600481901c7f07070707070707070707070707070707070707070707070707070707070707079190911601600881901c7e0f000f000f000f000f000f000f000f000f000f000f000f000f000f000f000f908116911601601081901c01602081901c01604081901c01608081901c60ff90811691160190565b600081612a91575060006108f0565b612a9a826133f9565b60ff036001019050919050565b600081612ab357600080fd5b610100821115612ac257600080fd5b6000612acd84613492565b90506000605a8411612ae85750620151808302019050610a5b565b60878411612b10575060591983016207e900908102908206909103016276a700019050610a5b565b60c38411612b395750608619830162278d00908102908206909103016301da9c00019050610a5b565b5060c21983016276a70090810290820690910301630b1fa800019050610a5b565b600060018310158015612b6f57506101008311155b612b7857600080fd5b8115612b915750600160ff1b60001983011c8317610cd8565b50600160ff1b60001983011c198316610cd8565b600080610a5b6001612137565b612bba61371c565b600080612bc56134ae565b61ffff861660009081526020828152604080832088845290915290208054600160f01b900460ff1693509091508215612c3c5780546001600160501b03600160a01b8204811691612c179116826122d9565b85528154612c3590600160501b90046001600160501b0316826122d9565b6020860152505b50509250929050565b600080610a5b6022612137565b6000613fff61ffff85161115612c6757600080fd5b64ffffffffff831115612c7957600080fd5b612c8384846134bb565b90506000821215610cd857600160401b179392505050565b68010000000000000000600160e01b03604085901b1661ffff60301b603085901b1617600883901b178117949350505050565b600c60309190911b61ffff60301b161790565b600080610a5b6012612137565b612cf66137b8565b6064633b9aca008360ff861660208110612d0c57fe5b1a0281612d1557fe5b0481526064633b9aca008360ff861660010160208110612d3157fe5b1a0281612d3a57fe5b04816020018181525050612d5f8260028560ff160160208110612d5957fe5b1a6134d6565b60808201819052610100908360ff861660030160208110612d7c57fe5b1a0281612d8557fe5b0460408201526080810151610100908360ff861660040160208110612da657fe5b1a0281612daf57fe5b0460608201526207a1208260ff851660050160208110612dcb57fe5b1a0260a0820152622625a08260ff851660060160208110612de857fe5b1a0260c08201528160ff841660070160208110612e0157fe5b1a60e082015292915050565b600080600080600080612e20898861350a565b89519095509193509150600090612e4790612e3c908b90612f29565b633b9aca00906122d9565b9050612e81612e766301da9c00612e5e85856122d9565b81612e6557fe5b670de0b6b3a7640000919004612f17565b60e08a015190612f5b565b9650612ea3612e986301da9c00612e5e87856122d9565b60c08a015190612f5b565b955081831415612eba57506000935061178d915050565b6000612edc612ed16301da9c00612e5e87866122d9565b60e08b015190612f5b565b90506000612eea8983612f29565b9050612f078861294a838d604001516122d990919063ffffffff16565b9650505050505093509350935093565b600082820183811015610cd857600080fd5b600082821115612f3857600080fd5b50900390565b6000610cd8612f5584670de0b6b3a76400006122d9565b83613108565b6000610cd8612f6a84846122d9565b670de0b6b3a7640000613108565b6000808212612f88575080610a5b565b82516020840151612f9f9190611a56908590612752565b9050610a5b565b60008160011415612fbb57506276a7006108f0565b8160021415612fce575062ed4e006108f0565b8160031415612fe257506301da9c006108f0565b8160041415612ff657506303b538006108f0565b816005141561300a57506309450c006108f0565b816006141561301e575063128a18006108f0565b8160071415613032575063251430006108f0565b60405162461bcd60e51b81526004016102ee90614294565b60006276a70082101561305c57600080fd5b6276a700825b06909103919050565b60006276a70061307a8561304a565b01905061308c87878787878787611aa2565b50505050505050565b600080610a5b6007612137565b600080610a5b6009612137565b6000816000106130be57600080fd5b60078211156130cc57600080fd5b600482106130dd57600482036130df565b815b60080292915050565b600080610a5b600a612137565b6000610cd8612f5584633b9aca006122d9565b600080821161311657600080fd5b81838161311f57fe5b049392505050565b606060088260ff16111561313a57600080fd5b60006131446135a5565b6001600160a01b038516600090815260208290526040812091925060ff851667ffffffffffffffff8111801561317957600080fd5b506040519080825280602002602001820160405280156131b357816020015b6131a061399d565b8152602001906001900390816131985790505b50905060005b8560ff16811015611f4f5760008382600881106131d257fe5b01905060008383815181106131e357fe5b602090810291909101810151835461ffff8116825264ffffffffff620100008204169282019290925260ff600160381b8304166040820152600160401b909104600a90810b900b606082015260800191909152506001016131b9565b80516060908067ffffffffffffffff8111801561325b57600080fd5b50604051908082528060200260200182016040528015613285578160200160208202803683370190505b50915060005b818110156132e25760008482815181106132a157fe5b602002602001015190506132c28160000151826020015183604001516135b2565b8483815181106132ce57fe5b60209081029190910101525060010161328b565b5060015b818110156120fd57805b600081118015613328575083818151811061330757fe5b602002602001015184600183038151811061331e57fe5b6020026020010151115b156133f05783818151811061333957fe5b602002602001015184600183038151811061335057fe5b602002602001015185600184038151811061336757fe5b6020026020010186848151811061337a57fe5b602002602001018281525082815250505084818151811061339757fe5b60200260200101518560018303815181106133ae57fe5b60200260200101518660018403815181106133c557fe5b602002602001018784815181106133d857fe5b602090810291909101019190915252600019016132f0565b506001016132e6565b60008161340557600080fd5b600160801b821061341857608091821c91015b600160401b821061342b57604091821c91015b640100000000821061343f57602091821c91015b62010000821061345157601091821c91015b610100821061346257600891821c91015b6010821061347257600491821c91015b6004821061348257600291821c91015b600282106108f057600101919050565b6000620151808210156134a457600080fd5b6201518082613062565b600080610a5b601e612137565b61ffff60301b603083901b16600882901b1760011792915050565b60008160ff166096106134f15760ff8216622625a0026108ed565b5060951960ff919091160162e4e1c00263165a0bc00190565b6000806000806000856020015111156135575761355461353b8660c0015187602001516122d990919063ffffffff16565b60e0870151604088015161354e916122d9565b906130f5565b90505b600061356287612104565b905061356e81836135d8565b94508115613585576135828186600161368b565b93505b60208601511561359c576135998583613703565b92505b50509250925092565b600080610a5b600d612137565b61ffff60301b603084901b1665ffffffffff00600884901b161760ff8216179392505050565b6000808360800151116135ea57600080fd5b633b9aca008211156135fb57600080fd5b8251821161361a5782516040840151612f9f919061294a9085906122d9565b82602001518211613652576040830151835160208501516060860151612f9f9392612499928190039161294a918803908590036122d9565b610cd883606001516124998560200151633b9aca000361294a8760600151886080015103886020015188036122d990919063ffffffff16565b6000806136aa606461294a8760e00151876122d990919063ffffffff16565b90508460a001518110156136bf575060a08401515b8460c001518111156136d2575060c08401515b82156136e9576136e28482612f17565b9150611d3f565b8381116136f857808403610cd4565b600095945050505050565b6000610cd861371284846122d9565b633b9aca00613108565b60405180606001604052806000815260200160008152602001600081525090565b6040518061012001604052806000815260200160008152602001600081526020016000815260200160008152602001600081526020016000815260200160008152602001600081525090565b6040805160a0810182526000808252602082018190529181018290529060608201908152602001600081525090565b60405180610100016040528060008152602001600081526020016000815260200160008152602001600081526020016000815260200160008152602001600081525090565b6040805161014081018252600080825260208201819052918101829052606081018290526080810182905260a0810182905260c0810182905260e08101829052610100810182905261012081019190915290565b604051806060016040528060006001600160a01b0316815260200160008152602001600081525090565b60405180610100016040528060008019168152602001600081526020016000815260200160008152602001600081526020016000815260200160008152602001600081525090565b6040518060a0016040528060008152602001600081526020016000815260200160008152602001600081525090565b6040805160c081018252600080825260208201819052918101829052606081018290526080810182905260a081019190915290565b604080518082019091526000808252602082015290565b6040518060a00160405280600061ffff168152602001600081526020016000815260200160008152602001600081525090565b604080516080810182526000808252602082015290810161399061371c565b8152600060209091015290565b6040518060c00160405280600061ffff16815260200160008152602001600081526020016000815260200160008152602001600060038111156139dc57fe5b905290565b80356001600160a01b03811681146108f057600080fd5b803561ffff811681146108f057600080fd5b80516001600160501b03811681146108f057600080fd5b600060208284031215613a32578081fd5b610cd8826139e1565b60008060408385031215613a4d578081fd5b613a56836139e1565b91506129a9602084016139f8565b600080600060608486031215613a78578081fd5b613a81846139e1565b9250613a8f602085016139f8565b9150604084013590509250925092565b60008060208385031215613ab1578182fd5b823567ffffffffffffffff80821115613ac8578384fd5b818501915085601f830112613adb578384fd5b813581811115613ae9578485fd5b8660208083028501011115613afc578485fd5b60209290920196919550909350505050565b60008060408385031215613b20578182fd5b8251915060208084015167ffffffffffffffff80821115613b3f578384fd5b818601915086601f830112613b52578384fd5b815181811115613b5e57fe5b83810260405185828201018181108582111715613b7757fe5b604052828152858101935084860182860187018b1015613b95578788fd5b8795505b83861015613bb7578051855260019590950194938601938601613b99565b508096505050505050509250929050565b600060208284031215613bd9578081fd5b610cd8826139f8565b60008060408385031215613bf4578182fd5b613bfd836139f8565b91506129a9602084016139e1565b60008060408385031215613c1d578182fd5b613c26836139f8565b946020939093013593505050565b600080600060608486031215613c48578283fd5b613c51846139f8565b95602085013595506040909401359392505050565b600080600080600060a08688031215613c7d578081fd5b613c86866139f8565b94506020860135935060408601359250613ca2606087016139e1565b915060808601358015158114613cb6578182fd5b809150509295509295909350565b60008060408385031215613cd6578182fd5b613cdf836139f8565b9150602083013563ffffffff81168114613cf7578182fd5b809150509250929050565b60008060408385031215613d14578182fd5b613d1d836139f8565b9150602083013564ffffffffff81168114613cf7578182fd5b600060208284031215613d47578081fd5b5035919050565b60008060408385031215613d60578182fd5b505080516020909101519092909150565b600080600080600060a08688031215613d88578283fd5b613d9186613a0a565b9450602086015193506040860151925060608601519150613db460808701613a0a565b90509295509295909350565b6000815180845260208085019450808401835b83811015613def57815187529582019590820190600101613dd3565b509495945050505050565b6000815180845260208085019450808401835b83811015613def57613e20878351613fe0565b610100969096019590820190600101613e0d565b6000815180845260208085019450808401835b83811015613def578151805161ffff168852838101518489015260408082015190890152606080820151908901526080808201519089015260a0908101519060048210613e9057fe5b88015260c09096019590820190600101613e47565b805164ffffffffff1682526020808201516001600160f81b0319169083015260408082015160ff169083015260608082015161ffff16908301526080808201516001600160701b0319169083015260a0908101511515910152565b613f0b8282516140e3565b6020810151613f1d60208401826140e3565b506040810151613f3060408401826140e3565b506060810151613f4360608401826140e3565b506080810151613f5660808401826140e3565b5060a0810151613f6960a08401826140e3565b5060c0810151613f7c60c08401826140e3565b5060e0810151613f8f60e08401826140e3565b5061010080820151613fa3828501826140e3565b505061012080820151613fb8828501826140e3565b50505050565b80516001600160a01b0316825260208082015190830152604090810151910152565b805182526020810151602083015260408101516040830152606081015160608301526080810151608083015260a081015160a083015260c081015160c083015260e081015160e08301525050565b805182526020810151602083015260408101516040830152606081015160608301526080810151608083015260a081015160a083015260c081015160c083015260e081015160e08301526101008082015181840152505050565b8051825260208082015190830152604090810151910152565b80516001600160a01b03168252602080820151151590830152604080820151908301526060810151600681106140d357fe5b6060830152608090810151910152565b60ff169052565b6001600160a01b0391909116815260200190565b6001600160a01b0392831681529116602082015260400190565b60006040825261412b6040830185613dc0565b8281036020840152610cd48185613dc0565b6000604082526141506040830185613dfa565b8281036020840152610cd48185613dfa565b6020808252825182820181905260009190848201906040850190845b818110156141a557614191838551613fe0565b92840192610100929092019160010161417e565b50909695505050505050565b600060208252610cd86020830184613e34565b6000604082526141d76040830185613e34565b8281036020840152610cd48185613e34565b6020808252825182820181905260009190848201906040850190845b818110156141a557835183529284019291840191600101614205565b901515815260200190565b90815260200190565b600083825260406020830152610e066040830184613dc0565b9283526020830191909152604082015260600190565b6020808252601690820152754e6f206e546f6b656e20666f722063757272656e637960501b604082015260600190565b6020808252600d908201526c092dcecc2d8d2c840d2dcc8caf609b1b604082015260600190565b6020808252600e908201526d125b9d985b1a59081b585c9ad95d60921b604082015260600190565b60208082526010908201526f13595d1a1bd9081b9bdd08199bdd5b9960821b604082015260600190565b602080825260139082015272125b9d985b1a590818dd5c9c995b98de481a59606a1b604082015260600190565b60208082526010908201526f151bdad95b881b9bdd081b1a5cdd195960821b604082015260600190565b60c08101610a5b8284613ea5565b60006101008083016143848488613ea5565b60c0840191909152845190819052610120830190602090818701845b828110156143ea578151805161ffff168652848101518587015260408082015190870152606080820151908701526080908101519086015260a090940193908301906001016143a0565b5050505082810360e08401526110f78185613e34565b6101408101610a5b8284613f00565b6101a0810161441e8285613f00565b610cd8610140830184613fbe565b60006101008201905060018060a01b0380855116835260ff602086015116602084015260408501511515604084015260ff606086015116606084015260ff608086015116608084015260ff60a08601511660a08401528084511660c08401525060ff60208401511660e08301529392505050565b6101008101610a5b8284613fe0565b6101208101610a5b828461402e565b60608101610a5b8284614088565b6101c081016144db8287614088565b6144e8606083018661402e565b6101808201939093526101a0015292915050565b610140810161450b82856140a1565b610cd860a08301846140a1565b610240810161452782876140a1565b61453460a08301866140a1565b83516101408301526020840151610160830152604084015161018083015260608401516101a083015260808401516101c08301526111316101e0830184613fbe565b61ffff91909116815260200190565b61ffff959095168552602085019390935260408401919091526001600160a01b031660608301521515608082015260a00190565b61ffff9890981688526020880196909652604087019490945260608601929092526001600160d81b031916608085015260a084015260c083015260e08201526101000190565b64ffffffffff91909116815260200190565b60ff9190911681526020019056fea2646970667358221220795d5606da4d694039dd83f038916a11968bbd4426efe4cb91faec100adce17264736f6c63430007060033","bytecodeSha1":"54dafee9c3768ad9dcf67e32f3e193f90544ad52","compiler":{"evm_version":"istanbul","optimizer":{"enabled":true,"runs":200},"version":"0.7.6+commit.7338295f"},"contractName":"Views","deployedBytecode":"608060405234801561001057600080fd5b50600436106102d65760003560e01c80638ecd066011610182578063c866a480116100e9578063e74b6e4e116100a2578063ec41a2571161007c578063ec41a25714610788578063f594540414610790578063fbcbc0f1146107a3578063fc1b1345146107c5576102d6565b8063e74b6e4e14610741578063e7ceffb814610762578063ec3c050114610775576102d6565b8063c866a480146106b1578063ca0ee700146106c4578063ca668b3c146106d7578063d3ca48e8146106fb578063d4ccb0ed1461070e578063dd8e32ec1461072e576102d6565b8063aa94baa71161013b578063aa94baa714610607578063b0de221714610628578063b536ffb614610648578063b62d268a14610668578063c399944414610688578063c4c96dae146106a9576102d6565b80638ecd0660146105a0578063911a56b0146105b357806394f1d1e4146105c6578063974b1054146105d957806397f503f5146105ec5780639c4e89f4146105ff576102d6565b8063594665b511610241578063709d6c7b116101fa5780637eaf7f2f116101d45780637eaf7f2f1461054d578063824633671461056d57806388a73eb7146105755780638da5cb5b14610598576102d6565b8063709d6c7b146105075780637154233314610527578063722abb861461053a576102d6565b8063594665b51461045e5780635eb2c1ca1461047157806365663b591461049257806367c22ce5146104b35780636987a203146104c65780636e4682f7146104e7576102d6565b806324a3d6221161029357806324a3d622146103ae5780632d353221146103b6578063336ede35146103dd57806339df4791146103fd578063497cf7e31461041d5780634ebad18e1461043d576102d6565b806304ccb84e146102f75780631794b8ef14610315578063197a6dc0146103355780631d66d03f1461034b578063206f27991461036b57806324980ce01461038e575b60405162461bcd60e51b81526004016102ee906142e3565b60405180910390fd5b6102ff6107e7565b60405161030c9190614576565b60405180910390f35b610328610323366004613a9f565b6107f1565b60405161030c91906141e9565b61033d6108ba565b60405161030c9291906140fe565b61035e610359366004613bc8565b6108d9565b60405161030c91906140ea565b61037e610379366004613c0b565b6108f5565b60405161030c94939291906144cc565b6103a161039c366004613bc8565b61092c565b60405161030c91906144af565b61035e61093d565b6103c96103c4366004613a21565b61094c565b60405161030c9897969594939291906145b9565b6103f06103eb366004613bc8565b61099e565b60405161030c91906145ff565b61041061040b366004613be2565b6109d3565b60405161030c919061422c565b61043061042b366004613bc8565b610a61565b60405161030c9190614162565b61045061044b366004613bc8565b610a76565b60405161030c9291906144fc565b61035e61046c366004613bc8565b610ab2565b61048461047f366004613bc8565b610abd565b60405161030c92919061413d565b6104a56104a0366004613bc8565b610bf2565b60405161030c929190614118565b6104106104c1366004613bc8565b610c28565b6104d96104d4366004613bc8565b610c3e565b60405161030c92919061440f565b6104fa6104f5366004613a21565b610c6f565b60405161030c9190614221565b61051a610515366004613c34565b610c8d565b60405161030c91906144a0565b610410610535366004613c0b565b610cdf565b6104fa610548366004613a21565b610ceb565b61056061055b366004613be2565b610d09565b60405161030c9190614611565b61035e610d45565b610588610583366004613bc8565b610d54565b60405161030c9493929190614518565b61035e610dbc565b6104106105ae366004613a3b565b610dd3565b6104106105c1366004613a64565b610dec565b6102ff6105d4366004613a21565b610e0e565b61035e6105e7366004613bc8565b610e48565b6104a56105fa366004613bc8565b610e8a565b61035e610ec3565b61061a610615366004613a21565b610ed2565b60405161030c9291906141c4565b61063b610636366004613a21565b610f0c565b60405161030c9190614364565b61065b610656366004613a21565b610f1d565b60405161030c91906141b1565b61067b610676366004613d02565b610f6a565b60405161030c91906144be565b61069b610696366004613a21565b610f8d565b60405161030c929190614235565b61033d611025565b61035e6106bf366004613bc8565b611053565b6104106106d2366004613bc8565b611067565b6106ea6106e5366004613d36565b61107e565b60405161030c959493929190614585565b610410610709366004613be2565b6110a3565b61072161071c366004613bc8565b611101565b60405161030c9190614400565b61041061073c366004613c66565b61111f565b61075461074f366004613bc8565b61113a565b60405161030c92919061442c565b61035e610770366004613bc8565b61120c565b610430610783366004613cc4565b611227565b61035e611242565b61051a61079e366004613bc8565b61125a565b6107b66107b1366004613a21565b61126b565b60405161030c93929190614372565b6107d86107d3366004613be2565b6113eb565b60405161030c9392919061424e565b60005461ffff1690565b606060006107fd611413565b90508267ffffffffffffffff8111801561081657600080fd5b50604051908082528060200260200182016040528015610840578160200160208202803683370190505b50915060005b838110156108b25781600086868481811061085d57fe5b90506020020160208101906108729190613a21565b6001600160a01b03166001600160a01b031681526020019081526020016000205483828151811061089f57fe5b6020908102919091010152600101610846565b505092915050565b600054600d546001600160a01b03640100000000909204821691169091565b60006108e482611420565b6108ed8261145d565b90505b919050565b6108fd61371c565b61090561373d565b600080610912868661148a565b90945092506109218487611548565b949793965094505050565b61093461373d565b6108ed826115bf565b6002546001600160a01b031681565b6000806000806000806000806109618961168d565b939b5091985096509094506109779050896116f9565b91985092509050610989898942611763565b90915090505080935050919395975091939597565b6000806109a9611796565b61ffff93909316600090815260209390935250506040902054600160501b900464ffffffffff1690565b60006109e0828442611763565b509192506109f491505061ffff84166117a3565b6001600160a01b0316826001600160a01b03161415610a5b576000610a1984426117c9565b905060005b81518110156108b257610a51828281518110610a3657fe5b6020026020010151606001518461188290919063ffffffff16565b9250600101610a1e565b92915050565b6060610a6c82611420565b6108ed82426117c9565b610a7e613789565b610a86613789565b610a8f83611420565b610a9c8361ffff16611898565b9150610aab8361ffff166118ab565b9050915091565b60006108ed826118be565b606080610ac983611420565b6000610ad88461ffff166118ee565b60ff16905080610ae85750610bed565b8067ffffffffffffffff81118015610aff57600080fd5b50604051908082528060200260200182016040528015610b3957816020015b610b266137b8565b815260200190600190039081610b1e5790505b5092508067ffffffffffffffff81118015610b5357600080fd5b50604051908082528060200260200182016040528015610b8d57816020015b610b7a6137b8565b815260200190600190039081610b725790505b50915060015b818111610bea57610ba48582611904565b846001830381518110610bb357fe5b6020026020010181905250610bc8858261191e565b836001830381518110610bd757fe5b6020908102919091010152600101610b93565b50505b915091565b606080610bfe83611420565b6000610c0d8461ffff166118ee565b60ff169050610c208461ffff1682611933565b915050915091565b61ffff166000908152600c602052604090205490565b610c466137fd565b610c4e613851565b610c5783611420565b610c648361ffff1661195a565b9150610aab836119e2565b6001600160a01b031660009081526008602052604090205460ff1690565b610c9561387b565b610c9e84611420565b6000610ca985611a6d565b9050610cb361387b565b610cd48661ffff1686426001610cc887611a8e565b8694939291908a611aa2565b9150505b9392505050565b6000610cd88383611ad9565b6001600160a01b031660009081526006602052604090205460ff1690565b600080610d14611b14565b61ffff85166000908152602091825260408082206001600160a01b0387168352909252205460ff1691505092915050565b6001546001600160a01b031681565b610d5c613789565b610d64613789565b610d6c6138c3565b610d74613851565b610d7d85611420565b610d8a8561ffff16611898565b9350610d998561ffff166118ab565b9250610da88561ffff16611b21565b9150610db3856119e2565b90509193509193565b60005464010000000090046001600160a01b031681565b6000610dde82611420565b610cd8838361ffff16611c84565b6000610df783611420565b610e06848461ffff1684611cb9565b949350505050565b6001600160a01b03811660009081526009602052604090205461ffff16806108f05760405162461bcd60e51b81526004016102ee9061433a565b6000610e5382611420565b6000610e628361ffff166117a3565b90506001600160a01b0381166108ed5760405162461bcd60e51b81526004016102ee90614264565b606080610e9683611420565b6000610ea58461ffff166118ee565b60ff169050610eb88461ffff1682611cfe565b909590945092505050565b600b546001600160a01b031690565b6060806000806000610ee38661168d565b5093509350509250610ef58682611d33565b9450610f02868484611d47565b9350505050915091565b610f146138f2565b6108ed82611e61565b60606000610f2a83611e61565b9050610f3581611f1a565b15610f5c57610f54838260600151836000015164ffffffffff16611d47565b9150506108f0565b610f54838260400151611d33565b610f7261371c565b610f7b83611420565b610cd8838364ffffffffff1642611f27565b6000606073__$841fddfe32830bb6dbc3a02d7f16c53722$__636cb65eaf846040518263ffffffff1660e01b8152600401610fc891906140ea565b60006040518083038186803b158015610fe057600080fd5b505af4158015610ff4573d6000803e3d6000fd5b505050506040513d6000823e601f3d908101601f1916820160405261101c9190810190613b0e565b91509150915091565b73__$841fddfe32830bb6dbc3a02d7f16c53722$__73__$b21a4dc043b77aa57922ad9143a3cb040e$__9091565b600061105e82611420565b6108ed82611f59565b600061107282611420565b6108ed610fee83611f63565b600080600080600061108f86611fb4565b945094509450945094505b91939590929450565b6000806110ae611ff6565b6001600160a01b03841660009081526020828152604080832061ffff891684529091528120805492935091600160a81b9004600a90810b900b9081126110f55760006110f7565b805b9695505050505050565b6111096137fd565b61111282611420565b6108ed8261ffff1661195a565b600061112e8686868686612003565b90505b95945050505050565b6111426138f2565b61114a613927565b61115383611420565b600061115d612071565b9050600061116961207e565b61ffff909516600081815260209384526040808220815160c08101835290546001600160a01b03808216835260ff600160a01b8084048216858b0152600160a81b84048216151585870152600160b01b840482166060860152600160b81b840482166080860152600160c01b909304811660a085015295855299875292829020825180840190935254988916825291909704909116928601929092525093915050565b60008061121c8361ffff166117a3565b9050610cd88161208b565b606061123283611420565b610cd8838363ffffffff166117c9565b73019be259bc299f3f653688c7655c87f998bc7bc190565b6112626137b8565b6108ed82612104565b6112736138f2565b60608061127f84611e61565b60408051600a8082526101608201909252919450816020015b6112a061393e565b81526020019060019003908161129857905050915060006112c084611f1a565b15611314576000836000815181106112d457fe5b602090810291909101015160608601805161ffff168252519091506112fb90879042611763565b6080850152606084015260408301526020909101526001015b60808401515b6001600160701b03198116156113a257600084838151811061133857fe5b602090810291909101015160f083901c613fff1680825290915061135c57506113a2565b61136b87826000015142611763565b6080850152606084015260408301526020909101526001919091019060101b6fffffffffffffffffffffffffffffffff191661131a565b6113ab85611f1a565b156113d1576113ca868660600151876000015164ffffffffff16611d47565b92506113e2565b6113df868660400151611d33565b92505b50509193909250565b60008060006113f985611420565b611404848642611763565b50919790965090945092505050565b600080610a5b6026612137565b8061ffff16600010801561143e575060005461ffff90811690821611155b61145a5760405162461bcd60e51b81526004016102ee9061430d565b50565b6000611467612150565b61ffff90921660009081526020929092525060409020546001600160a01b031690565b61149261371c565b61149a61373d565b6114a3846115bf565b905082816000015110156114d45760006114bc8561215d565b90506114ca858383876121d8565b5091506114e19050565b805183146114e157600080fd5b604051806060016040528061150f61150a8460a001518560c001516122d990919063ffffffff16565b612300565b815260200161153261150a8460a001518560e001516122d990919063ffffffff16565b8152602001826060015181525091509250929050565b600080600061155561231a565b61ffff8516600090815260209190915260409020600181015490915061158790600160581b900463ffffffff16612327565b81549093506501000000000090046affffffffffffffffffffff166115b46115af8783612335565b612361565b925050509250929050565b6115c761373d565b60006115d161231a565b61ffff93841660009081526020918252604090819020805464ffffffffff811686526501000000000081046affffffffffffffffffffff908116948701949094526001820154841692860192909252600160d81b820463ffffffff166060860152600160801b9091049091166080840152600201546001600160501b0380821660a0850152600160501b8204811660c0850152600160a01b82041660e0840152600160f01b900460ff1661012c02909216610100820152919050565b60008060008060008061169e612370565b6001600160a01b039097166000908152602097909752505060409094205461ffff81169563ffffffff620100008304811696506601000000000000830416945060ff600160501b8304169350600160581b90910460d81b9150565b60008060008061170761237d565b6001600160a01b0395909516600090815260209590955250506040909220546bffffffffffffffffffffffff811693600160601b82046fffffffffffffffffffffffffffffffff169350600160e01b90910463ffffffff169150565b6000806000806000611775878761148a565b50905061178388888361238a565b9450945094509450505b93509350935093565b600080610a5b6025612137565b6000806117ae612444565b6000938452602052505060409020546001600160a01b031690565b606060006117d684611a6d565b90506000816020015167ffffffffffffffff811180156117f557600080fd5b5060405190808252806020026020018201604052801561182f57816020015b61181c61387b565b8152602001906001900390816118145790505b50905060005b82602001518110156118795761187182828151811061185057fe5b6020026020010151826001016001888761245190949392919063ffffffff16565b600101611835565b50949350505050565b81810182811215600083121514610a5b57600080fd5b6118a0613789565b6108ed8260006124cc565b6118b3613789565b6108ed8260016124cc565b6000806118c9612566565b61ffff939093166000908152602093909352505060409020546001600160a01b031690565b6000806118fa83612573565b60ff169392505050565b61190c6137b8565b610cd88383611919612590565b61259d565b6119266137b8565b610cd883836119196125f4565b6060600061193f612601565b60008581526020829052604090209091506110f7818561260e565b6119626137fd565b600061196d83612573565b9050600081601f60408051610140810190915291901a80825291506020810183601e1a815260200183601d1a815260200183601c1a815260200183601b1a815260200183601a1a81526020018360191a81526020018360181a81526020018360171a81526020018360161a9052949350505050565b6119ea613851565b60006119f98361ffff166118ab565b90506000611a196402540be400836040015161275290919063ffffffff16565b90506000611a27854261148a565b50604080850151908601528051909150611a5c906ec097ce7bc90715b34b9f100000000090611a569085612752565b906127a0565b602085015250506000825250919050565b611a75613971565b6000611a81834261148a565b509050610cd883826127d1565b6060015161012c60089190911c60ff160290565b611aaf8787878685612814565b611ac88760e001518860a001518960c0015185886128cf565b60c090970196909652505050505050565b600080611ae461295d565b61ffff949094166000908152602094855260408082209482529390945250508120546001600160501b0316900390565b600080610a5b6024612137565b611b296138c3565b6000611b33612071565b6000848152602082905260408120919250806001861415611b605750670de0b6b3a7640000905080611c23565b825460408051633fabe5a360e21b815290516001600160a01b039092169163feaf968c9160048082019260a092909190829003018186803b158015611ba457600080fd5b505afa158015611bb8573d6000803e3d6000fd5b505050506040513d601f19601f82011682018060405250810190611bdc9190613d71565b5091935050600083139150611bf2905057600080fd5b825460ff600160a01b82048116600a0a9350600160a81b9091041615611c2357611c2081611a568480612752565b90505b8254600160b01b900460ff166096811315611c435760951901600a026096015b6040805160a081018252938452602084019290925290820152905460ff600160b81b820481166060840152600160c01b909104166080820152915050919050565b600080611c8f61296a565b6001600160a01b038516600090815260209182526040808220868352909252205491505092915050565b600080611cc4612977565b6001600160a01b03861660009081526020918252604080822087835283528082208683529092522054600f90810b900b9150509392505050565b6060806000611d0b612984565b6000868152602082905260409020909150611d26818661260e565b9097909650945050505050565b6060611d3f8383612991565b509392505050565b60606000611d59858561ffff16611c84565b90506000611d66826129b2565b905060008167ffffffffffffffff81118015611d8157600080fd5b50604051908082528060200260200182016040528015611dbb57816020015b611da861399d565b815260200190600190039081611da05790505b509050600091506000611dcd84612a82565b90505b8015611e56576000611de28783612aa7565b90506000611df58a8a61ffff1684611cb9565b90506000848681518110611e0557fe5b60209081029190910181015161ffff8c1681529081018490526001604082018190526060820184905296909601959050611e4187856000612b5a565b9650611e4c87612a82565b9350505050611dd0565b509695505050505050565b611e696138f2565b6000611e73612ba5565b6001600160a01b03841660009081526020918252604090819020815160c081018352905464ffffffffff811682526001600160f81b031965010000000000820460f81b169382019390935260ff6601000000000000840481169282019290925261ffff600160381b84041660608201526001600160701b03196901000000000000000000840460701b166080820152600160d81b90920416151560a0820152915050919050565b6060015161ffff16151590565b611f2f61371c565b6000611f3b8585612bb2565b909250905080611d3f57611f4f858461148a565b5095945050505050565b6000611467612c45565b600080611f6e611ff6565b6001600160a01b03851660009081526020828152604080832061ffff8816845290915281208054600160a81b9004600a90810b900b94509192508312156108b257600080fd5b603081901c64ffffffffff600883901c1660ff83166000806001831415611fe65750600160ff604087901c161461109a565b604086901c915091939590929450565b600080610a5b6006612137565b6000600184141561202f5761202886868461201f576001612023565b6000195b612c52565b9050611131565b600b84148061203e5750600984145b806120495750600a84145b1561205a5761202883878787612c9b565b600c84141561206c5761202886612cce565b600080fd5b600080610a5b6010612137565b600080610a5b600f612137565b600080612096612370565b6001600160a01b0384166000908152602082905260409020805491925090600160f81b900460ff16156120f2576120cb612ce1565b6001600160a01b0380861660009081526020929092526040909120541692506108f0915050565b6000925050506108f0565b5050919050565b61210c6137b8565b60006121166125f4565b61ffff8416600090815260209190915260408120549150610cd89082612cee565b6000620f424082602681111561214957fe5b0192915050565b600080610a5b6021612137565b600080612169836118be565b6001600160a01b031663a77c05b86040518163ffffffff1660e01b8152600401604080518083038186803b1580156121a057600080fd5b505afa1580156121b4573d6000803e3d6000fd5b505050506040513d601f19601f82011682018060405250810190610e069190613d4e565b6121e061373d565b60008060006121f0888689612e0d565b60c08b019290925260e08a0192909252602089015191935091506122149083612f17565b602088015260808701516000901561224257608088015161223f906122398982612f29565b90612f3e565b90505b612262612257670de0b6b3a764000083612f17565b60a08a015190612f5b565b60a089015250608087018690526000612279611796565b61ffff8a1660009081526020919091526040902054885163ffffffff600160a01b909204821692506122c4916122b39085908590612f1716565b8a606001518b61010001518a6128cf565b60608901525050928552509294909350915050565b6000826122e857506000610a5b565b828202828482816122f557fe5b0414610cd857600080fd5b60006001600160ff1b0382111561231657600080fd5b5090565b600080610a5b601d612137565b600881901c60ff9091161b90565b6000610cd86ec097ce7bc90715b34b9f1000000000611a5685600001518561275290919063ffffffff16565b60008082121561231657600080fd5b600080610a5b6002612137565b600080610a5b6011612137565b600080600080600061239a611ff6565b6001600160a01b03891660009081526020828152604080832061ffff8c168452909152902080546001600160501b0381169650600160501b900463ffffffff169450909150831561240757805461240090600160701b900466ffffffffffffff16612327565b925061241c565b8054600160701b900466ffffffffffffff1692505b8054612437908890600160a81b9004600a90810b900b612f78565b9550505093509350935093565b600080610a5b6003612137565b82600111158015612466575084602001518311155b6124825760405162461bcd60e51b81526004016102ee906142bb565b600061249f61249085612fa6565b6124998461304a565b90612f17565b90506124c4866000015161ffff168284866124b98b611a8e565b8a949392919061306b565b505050505050565b6124d4613789565b60006124de613095565b6000858152602082815260408083208715158452825291829020825160a08101845281546001600160a01b038116825260ff600160a01b82048116151594830194909452600160b01b81048416600a0a9482019490945293945092916060830191600160a81b90910416600581111561255357fe5b8152600060209091015295945050505050565b600080610a5b601f612137565b60008061257e6130a2565b60009384526020525050604090205490565b600080610a5b601c612137565b6125a56137b8565b60006125b0846130af565b61ffff8616600090815260208590526040812091925090600486106125d65760016125d9565b60005b60ff16600281106125e657fe5b015490506110f78282612cee565b600080610a5b601b612137565b600080610a5b6005612137565b6060806000808467ffffffffffffffff8111801561262b57600080fd5b50604051908082528060200260200182016040528015612655578160200160208202803683370190505b50905060008567ffffffffffffffff8111801561267157600080fd5b5060405190808252806020026020018201604052801561269b578160200160208202803683370190505b50905060005b86811015612745578784600e81106126b557fe5b600891828204019190066004029054906101000a900463ffffffff1663ffffffff168382815181106126e357fe5b60209081029190910101526001909301928784600e811061270057fe5b600891828204019190066004029054906101000a900463ffffffff1663ffffffff1682828151811061272e57fe5b6020908102919091010152600193840193016126a1565b5090969095509350505050565b8181026000198314156127825781158061277457508282828161277157fe5b05145b61277d57600080fd5b610a5b565b82158061279757508183828161279457fe5b05145b610a5b57600080fd5b6000816000191480156127b65750600160ff1b83145b156127c057600080fd5b8183816127c957fe5b059392505050565b6127d9613971565b60006127e88461ffff16612573565b6040805160808101825261ffff96909616865260ff821660208701528501939093525050606082015290565b600061281e6130e8565b6000868152602082815260408083208884528252808320868452825291829020808a5290890187905280546001600160501b03808216938b0193909352600160501b810490921660608a015263ffffffff600160a01b8304811660a08b0152600160c01b8304811660c08b0152600160e01b90920490911660e08901529091508084156128bd5760018201546001600160501b031660808901526128c5565b600060808901525b5050505050505050565b60008083116128dd57600080fd5b818611156128ec575083611131565b60006128f88388612f29565b90508381111561290b5785915050611131565b600061291782866130f5565b90506000612929633b9aca0083612f29565b9050612950633b9aca0061294a6129408a856122d9565b6124998c876122d9565b90613108565b9998505050505050505050565b600080610a5b6020612137565b600080610a5b600b612137565b600080610a5b600c612137565b600080610a5b6004612137565b60608061299e8484613127565b91506129a98261323f565b90509250929050565b600181901c7f5555555555555555555555555555555555555555555555555555555555555555908116911601600281901c7f3333333333333333333333333333333333333333333333333333333333333333908116911601600481901c7f07070707070707070707070707070707070707070707070707070707070707079190911601600881901c7e0f000f000f000f000f000f000f000f000f000f000f000f000f000f000f000f908116911601601081901c01602081901c01604081901c01608081901c60ff90811691160190565b600081612a91575060006108f0565b612a9a826133f9565b60ff036001019050919050565b600081612ab357600080fd5b610100821115612ac257600080fd5b6000612acd84613492565b90506000605a8411612ae85750620151808302019050610a5b565b60878411612b10575060591983016207e900908102908206909103016276a700019050610a5b565b60c38411612b395750608619830162278d00908102908206909103016301da9c00019050610a5b565b5060c21983016276a70090810290820690910301630b1fa800019050610a5b565b600060018310158015612b6f57506101008311155b612b7857600080fd5b8115612b915750600160ff1b60001983011c8317610cd8565b50600160ff1b60001983011c198316610cd8565b600080610a5b6001612137565b612bba61371c565b600080612bc56134ae565b61ffff861660009081526020828152604080832088845290915290208054600160f01b900460ff1693509091508215612c3c5780546001600160501b03600160a01b8204811691612c179116826122d9565b85528154612c3590600160501b90046001600160501b0316826122d9565b6020860152505b50509250929050565b600080610a5b6022612137565b6000613fff61ffff85161115612c6757600080fd5b64ffffffffff831115612c7957600080fd5b612c8384846134bb565b90506000821215610cd857600160401b179392505050565b68010000000000000000600160e01b03604085901b1661ffff60301b603085901b1617600883901b178117949350505050565b600c60309190911b61ffff60301b161790565b600080610a5b6012612137565b612cf66137b8565b6064633b9aca008360ff861660208110612d0c57fe5b1a0281612d1557fe5b0481526064633b9aca008360ff861660010160208110612d3157fe5b1a0281612d3a57fe5b04816020018181525050612d5f8260028560ff160160208110612d5957fe5b1a6134d6565b60808201819052610100908360ff861660030160208110612d7c57fe5b1a0281612d8557fe5b0460408201526080810151610100908360ff861660040160208110612da657fe5b1a0281612daf57fe5b0460608201526207a1208260ff851660050160208110612dcb57fe5b1a0260a0820152622625a08260ff851660060160208110612de857fe5b1a0260c08201528160ff841660070160208110612e0157fe5b1a60e082015292915050565b600080600080600080612e20898861350a565b89519095509193509150600090612e4790612e3c908b90612f29565b633b9aca00906122d9565b9050612e81612e766301da9c00612e5e85856122d9565b81612e6557fe5b670de0b6b3a7640000919004612f17565b60e08a015190612f5b565b9650612ea3612e986301da9c00612e5e87856122d9565b60c08a015190612f5b565b955081831415612eba57506000935061178d915050565b6000612edc612ed16301da9c00612e5e87866122d9565b60e08b015190612f5b565b90506000612eea8983612f29565b9050612f078861294a838d604001516122d990919063ffffffff16565b9650505050505093509350935093565b600082820183811015610cd857600080fd5b600082821115612f3857600080fd5b50900390565b6000610cd8612f5584670de0b6b3a76400006122d9565b83613108565b6000610cd8612f6a84846122d9565b670de0b6b3a7640000613108565b6000808212612f88575080610a5b565b82516020840151612f9f9190611a56908590612752565b9050610a5b565b60008160011415612fbb57506276a7006108f0565b8160021415612fce575062ed4e006108f0565b8160031415612fe257506301da9c006108f0565b8160041415612ff657506303b538006108f0565b816005141561300a57506309450c006108f0565b816006141561301e575063128a18006108f0565b8160071415613032575063251430006108f0565b60405162461bcd60e51b81526004016102ee90614294565b60006276a70082101561305c57600080fd5b6276a700825b06909103919050565b60006276a70061307a8561304a565b01905061308c87878787878787611aa2565b50505050505050565b600080610a5b6007612137565b600080610a5b6009612137565b6000816000106130be57600080fd5b60078211156130cc57600080fd5b600482106130dd57600482036130df565b815b60080292915050565b600080610a5b600a612137565b6000610cd8612f5584633b9aca006122d9565b600080821161311657600080fd5b81838161311f57fe5b049392505050565b606060088260ff16111561313a57600080fd5b60006131446135a5565b6001600160a01b038516600090815260208290526040812091925060ff851667ffffffffffffffff8111801561317957600080fd5b506040519080825280602002602001820160405280156131b357816020015b6131a061399d565b8152602001906001900390816131985790505b50905060005b8560ff16811015611f4f5760008382600881106131d257fe5b01905060008383815181106131e357fe5b602090810291909101810151835461ffff8116825264ffffffffff620100008204169282019290925260ff600160381b8304166040820152600160401b909104600a90810b900b606082015260800191909152506001016131b9565b80516060908067ffffffffffffffff8111801561325b57600080fd5b50604051908082528060200260200182016040528015613285578160200160208202803683370190505b50915060005b818110156132e25760008482815181106132a157fe5b602002602001015190506132c28160000151826020015183604001516135b2565b8483815181106132ce57fe5b60209081029190910101525060010161328b565b5060015b818110156120fd57805b600081118015613328575083818151811061330757fe5b602002602001015184600183038151811061331e57fe5b6020026020010151115b156133f05783818151811061333957fe5b602002602001015184600183038151811061335057fe5b602002602001015185600184038151811061336757fe5b6020026020010186848151811061337a57fe5b602002602001018281525082815250505084818151811061339757fe5b60200260200101518560018303815181106133ae57fe5b60200260200101518660018403815181106133c557fe5b602002602001018784815181106133d857fe5b602090810291909101019190915252600019016132f0565b506001016132e6565b60008161340557600080fd5b600160801b821061341857608091821c91015b600160401b821061342b57604091821c91015b640100000000821061343f57602091821c91015b62010000821061345157601091821c91015b610100821061346257600891821c91015b6010821061347257600491821c91015b6004821061348257600291821c91015b600282106108f057600101919050565b6000620151808210156134a457600080fd5b6201518082613062565b600080610a5b601e612137565b61ffff60301b603083901b16600882901b1760011792915050565b60008160ff166096106134f15760ff8216622625a0026108ed565b5060951960ff919091160162e4e1c00263165a0bc00190565b6000806000806000856020015111156135575761355461353b8660c0015187602001516122d990919063ffffffff16565b60e0870151604088015161354e916122d9565b906130f5565b90505b600061356287612104565b905061356e81836135d8565b94508115613585576135828186600161368b565b93505b60208601511561359c576135998583613703565b92505b50509250925092565b600080610a5b600d612137565b61ffff60301b603084901b1665ffffffffff00600884901b161760ff8216179392505050565b6000808360800151116135ea57600080fd5b633b9aca008211156135fb57600080fd5b8251821161361a5782516040840151612f9f919061294a9085906122d9565b82602001518211613652576040830151835160208501516060860151612f9f9392612499928190039161294a918803908590036122d9565b610cd883606001516124998560200151633b9aca000361294a8760600151886080015103886020015188036122d990919063ffffffff16565b6000806136aa606461294a8760e00151876122d990919063ffffffff16565b90508460a001518110156136bf575060a08401515b8460c001518111156136d2575060c08401515b82156136e9576136e28482612f17565b9150611d3f565b8381116136f857808403610cd4565b600095945050505050565b6000610cd861371284846122d9565b633b9aca00613108565b60405180606001604052806000815260200160008152602001600081525090565b6040518061012001604052806000815260200160008152602001600081526020016000815260200160008152602001600081526020016000815260200160008152602001600081525090565b6040805160a0810182526000808252602082018190529181018290529060608201908152602001600081525090565b60405180610100016040528060008152602001600081526020016000815260200160008152602001600081526020016000815260200160008152602001600081525090565b6040805161014081018252600080825260208201819052918101829052606081018290526080810182905260a0810182905260c0810182905260e08101829052610100810182905261012081019190915290565b604051806060016040528060006001600160a01b0316815260200160008152602001600081525090565b60405180610100016040528060008019168152602001600081526020016000815260200160008152602001600081526020016000815260200160008152602001600081525090565b6040518060a0016040528060008152602001600081526020016000815260200160008152602001600081525090565b6040805160c081018252600080825260208201819052918101829052606081018290526080810182905260a081019190915290565b604080518082019091526000808252602082015290565b6040518060a00160405280600061ffff168152602001600081526020016000815260200160008152602001600081525090565b604080516080810182526000808252602082015290810161399061371c565b8152600060209091015290565b6040518060c00160405280600061ffff16815260200160008152602001600081526020016000815260200160008152602001600060038111156139dc57fe5b905290565b80356001600160a01b03811681146108f057600080fd5b803561ffff811681146108f057600080fd5b80516001600160501b03811681146108f057600080fd5b600060208284031215613a32578081fd5b610cd8826139e1565b60008060408385031215613a4d578081fd5b613a56836139e1565b91506129a9602084016139f8565b600080600060608486031215613a78578081fd5b613a81846139e1565b9250613a8f602085016139f8565b9150604084013590509250925092565b60008060208385031215613ab1578182fd5b823567ffffffffffffffff80821115613ac8578384fd5b818501915085601f830112613adb578384fd5b813581811115613ae9578485fd5b8660208083028501011115613afc578485fd5b60209290920196919550909350505050565b60008060408385031215613b20578182fd5b8251915060208084015167ffffffffffffffff80821115613b3f578384fd5b818601915086601f830112613b52578384fd5b815181811115613b5e57fe5b83810260405185828201018181108582111715613b7757fe5b604052828152858101935084860182860187018b1015613b95578788fd5b8795505b83861015613bb7578051855260019590950194938601938601613b99565b508096505050505050509250929050565b600060208284031215613bd9578081fd5b610cd8826139f8565b60008060408385031215613bf4578182fd5b613bfd836139f8565b91506129a9602084016139e1565b60008060408385031215613c1d578182fd5b613c26836139f8565b946020939093013593505050565b600080600060608486031215613c48578283fd5b613c51846139f8565b95602085013595506040909401359392505050565b600080600080600060a08688031215613c7d578081fd5b613c86866139f8565b94506020860135935060408601359250613ca2606087016139e1565b915060808601358015158114613cb6578182fd5b809150509295509295909350565b60008060408385031215613cd6578182fd5b613cdf836139f8565b9150602083013563ffffffff81168114613cf7578182fd5b809150509250929050565b60008060408385031215613d14578182fd5b613d1d836139f8565b9150602083013564ffffffffff81168114613cf7578182fd5b600060208284031215613d47578081fd5b5035919050565b60008060408385031215613d60578182fd5b505080516020909101519092909150565b600080600080600060a08688031215613d88578283fd5b613d9186613a0a565b9450602086015193506040860151925060608601519150613db460808701613a0a565b90509295509295909350565b6000815180845260208085019450808401835b83811015613def57815187529582019590820190600101613dd3565b509495945050505050565b6000815180845260208085019450808401835b83811015613def57613e20878351613fe0565b610100969096019590820190600101613e0d565b6000815180845260208085019450808401835b83811015613def578151805161ffff168852838101518489015260408082015190890152606080820151908901526080808201519089015260a0908101519060048210613e9057fe5b88015260c09096019590820190600101613e47565b805164ffffffffff1682526020808201516001600160f81b0319169083015260408082015160ff169083015260608082015161ffff16908301526080808201516001600160701b0319169083015260a0908101511515910152565b613f0b8282516140e3565b6020810151613f1d60208401826140e3565b506040810151613f3060408401826140e3565b506060810151613f4360608401826140e3565b506080810151613f5660808401826140e3565b5060a0810151613f6960a08401826140e3565b5060c0810151613f7c60c08401826140e3565b5060e0810151613f8f60e08401826140e3565b5061010080820151613fa3828501826140e3565b505061012080820151613fb8828501826140e3565b50505050565b80516001600160a01b0316825260208082015190830152604090810151910152565b805182526020810151602083015260408101516040830152606081015160608301526080810151608083015260a081015160a083015260c081015160c083015260e081015160e08301525050565b805182526020810151602083015260408101516040830152606081015160608301526080810151608083015260a081015160a083015260c081015160c083015260e081015160e08301526101008082015181840152505050565b8051825260208082015190830152604090810151910152565b80516001600160a01b03168252602080820151151590830152604080820151908301526060810151600681106140d357fe5b6060830152608090810151910152565b60ff169052565b6001600160a01b0391909116815260200190565b6001600160a01b0392831681529116602082015260400190565b60006040825261412b6040830185613dc0565b8281036020840152610cd48185613dc0565b6000604082526141506040830185613dfa565b8281036020840152610cd48185613dfa565b6020808252825182820181905260009190848201906040850190845b818110156141a557614191838551613fe0565b92840192610100929092019160010161417e565b50909695505050505050565b600060208252610cd86020830184613e34565b6000604082526141d76040830185613e34565b8281036020840152610cd48185613e34565b6020808252825182820181905260009190848201906040850190845b818110156141a557835183529284019291840191600101614205565b901515815260200190565b90815260200190565b600083825260406020830152610e066040830184613dc0565b9283526020830191909152604082015260600190565b6020808252601690820152754e6f206e546f6b656e20666f722063757272656e637960501b604082015260600190565b6020808252600d908201526c092dcecc2d8d2c840d2dcc8caf609b1b604082015260600190565b6020808252600e908201526d125b9d985b1a59081b585c9ad95d60921b604082015260600190565b60208082526010908201526f13595d1a1bd9081b9bdd08199bdd5b9960821b604082015260600190565b602080825260139082015272125b9d985b1a590818dd5c9c995b98de481a59606a1b604082015260600190565b60208082526010908201526f151bdad95b881b9bdd081b1a5cdd195960821b604082015260600190565b60c08101610a5b8284613ea5565b60006101008083016143848488613ea5565b60c0840191909152845190819052610120830190602090818701845b828110156143ea578151805161ffff168652848101518587015260408082015190870152606080820151908701526080908101519086015260a090940193908301906001016143a0565b5050505082810360e08401526110f78185613e34565b6101408101610a5b8284613f00565b6101a0810161441e8285613f00565b610cd8610140830184613fbe565b60006101008201905060018060a01b0380855116835260ff602086015116602084015260408501511515604084015260ff606086015116606084015260ff608086015116608084015260ff60a08601511660a08401528084511660c08401525060ff60208401511660e08301529392505050565b6101008101610a5b8284613fe0565b6101208101610a5b828461402e565b60608101610a5b8284614088565b6101c081016144db8287614088565b6144e8606083018661402e565b6101808201939093526101a0015292915050565b610140810161450b82856140a1565b610cd860a08301846140a1565b610240810161452782876140a1565b61453460a08301866140a1565b83516101408301526020840151610160830152604084015161018083015260608401516101a083015260808401516101c08301526111316101e0830184613fbe565b61ffff91909116815260200190565b61ffff959095168552602085019390935260408401919091526001600160a01b031660608301521515608082015260a00190565b61ffff9890981688526020880196909652604087019490945260608601929092526001600160d81b031916608085015260a084015260c083015260e08201526101000190565b64ffffffffff91909116815260200190565b60ff9190911681526020019056fea2646970667358221220795d5606da4d694039dd83f038916a11968bbd4426efe4cb91faec100adce17264736f6c63430007060033","language":"Solidity","natspec":{"kind":"dev","methods":{"getAccount(address)":{"notice":"Returns all account details in a single view"},"getAccountBalance(uint16,address)":{"notice":"Returns account balances for a given currency"},"getAccountContext(address)":{"notice":"Returns account context"},"getAccountPortfolio(address)":{"notice":"Returns account portfolio of assets"},"getActiveMarkets(uint16)":{"notice":"Returns all currently active markets for a currency"},"getActiveMarketsAtBlockTime(uint16,uint32)":{"notice":"Returns all active markets for a currency at the specified block time, useful for looking at historical markets"},"getAssetsBitmap(address,uint16)":{"notice":"Returns the assets bitmap for an account"},"getBalanceOfPrimeCash(uint16,address)":{"notice":"Returns the balance of figure for prime cash for the prime cash proxy, the logic is slightly modified for the nToken account because it needs to return the sum of all cash held in markets."},"getCashGroup(uint16)":{"notice":"Returns cash group settings for a currency"},"getCashGroupAndAssetRate(uint16)":{"notice":"Returns the cash group along with the asset rate for convenience."},"getCurrency(uint16)":{"notice":"Returns the asset token and underlying token related to a given currency id. If underlying token is not set then will return the zero address"},"getCurrencyAndRates(uint16)":{"notice":"Returns a currency and its corresponding asset rate and ETH exchange rates. Note that this does not recalculate cToken interest rates, it only retrieves the latest stored rate."},"getCurrencyId(address)":{"notice":"Returns a currency id, a zero means that it is not listed."},"getDepositParameters(uint16)":{"notice":"Returns nToken deposit parameters for a given currency"},"getFreeCollateral(address)":{"notice":"Returns free collateral of an account along with an array of the individual net available asset cash amounts"},"getInitializationParameters(uint16)":{"notice":"Returns market initialization parameters for a given currency"},"getLibInfo()":{"notice":"Get a list of deployed library addresses (sorted by library name)"},"getMarket(uint16,uint256,uint256)":{"notice":"Returns a single market"},"getMaxCurrencyId()":{"notice":"Returns the current maximum currency id"},"getNoteToken()":{"notice":"Returns address of the NOTE token"},"getOwnershipStatus()":{"notice":"Returns current ownership status of the contract","returns":{"_0":"owner is the current owner of the Notional system","_1":"pendingOwner can claim ownership from the owner"}},"getPrimeFactors(uint16,uint256)":{"notice":"Global System State View Methods *"},"getRateStorage(uint16)":{"notice":"Returns the ETH and Asset rates for a currency as stored, useful for viewing how they are configured"},"getReserveBalance(uint16)":{"notice":"Returns the current reserve balance for a currency"},"getReserveBuffer(uint16)":{"notice":"Returns the current reserve buffer for a currency","params":{"currencyId":"refers to the currency of the reserve"}},"getSettlementRate(uint16,uint40)":{"notice":"Returns the asset settlement rate for a given maturity"},"getTreasuryManager()":{"notice":"Returns the current treasury manager contract"},"getfCashNotional(address,uint16,uint256)":{"notice":"Returns the fCash amount at the specified maturity for a bitmapped portfolio"},"nTokenAddress(uint16)":{"notice":"Returns nToken address for a given currency"},"pCashAddress(uint16)":{"notice":"Returns pCash address for a given currency"}},"version":1},"opcodes":"PUSH1 0x80 PUSH1 0x40 MSTORE CALLVALUE DUP1 ISZERO PUSH2 0x10 JUMPI PUSH1 0x0 DUP1 REVERT JUMPDEST POP PUSH1 0x4 CALLDATASIZE LT PUSH2 0x2D6 JUMPI PUSH1 0x0 CALLDATALOAD PUSH1 0xE0 SHR DUP1 PUSH4 0x8ECD0660 GT PUSH2 0x182 JUMPI DUP1 PUSH4 0xC866A480 GT PUSH2 0xE9 JUMPI DUP1 PUSH4 0xE74B6E4E GT PUSH2 0xA2 JUMPI DUP1 PUSH4 0xEC41A257 GT PUSH2 0x7C JUMPI DUP1 PUSH4 0xEC41A257 EQ PUSH2 0x788 JUMPI DUP1 PUSH4 0xF5945404 EQ PUSH2 0x790 JUMPI DUP1 PUSH4 0xFBCBC0F1 EQ PUSH2 0x7A3 JUMPI DUP1 PUSH4 0xFC1B1345 EQ PUSH2 0x7C5 JUMPI PUSH2 0x2D6 JUMP JUMPDEST DUP1 PUSH4 0xE74B6E4E EQ PUSH2 0x741 JUMPI DUP1 PUSH4 0xE7CEFFB8 EQ PUSH2 0x762 JUMPI DUP1 PUSH4 0xEC3C0501 EQ PUSH2 0x775 JUMPI PUSH2 0x2D6 JUMP JUMPDEST DUP1 PUSH4 0xC866A480 EQ PUSH2 0x6B1 JUMPI DUP1 PUSH4 0xCA0EE700 EQ PUSH2 0x6C4 JUMPI DUP1 PUSH4 0xCA668B3C EQ PUSH2 0x6D7 JUMPI DUP1 PUSH4 0xD3CA48E8 EQ PUSH2 0x6FB JUMPI DUP1 PUSH4 0xD4CCB0ED EQ PUSH2 0x70E JUMPI DUP1 PUSH4 0xDD8E32EC EQ PUSH2 0x72E JUMPI PUSH2 0x2D6 JUMP JUMPDEST DUP1 PUSH4 0xAA94BAA7 GT PUSH2 0x13B JUMPI DUP1 PUSH4 0xAA94BAA7 EQ PUSH2 0x607 JUMPI DUP1 PUSH4 0xB0DE2217 EQ PUSH2 0x628 JUMPI DUP1 PUSH4 0xB536FFB6 EQ PUSH2 0x648 JUMPI DUP1 PUSH4 0xB62D268A EQ PUSH2 0x668 JUMPI DUP1 PUSH4 0xC3999444 EQ PUSH2 0x688 JUMPI DUP1 PUSH4 0xC4C96DAE EQ PUSH2 0x6A9 JUMPI PUSH2 0x2D6 JUMP JUMPDEST DUP1 PUSH4 0x8ECD0660 EQ PUSH2 0x5A0 JUMPI DUP1 PUSH4 0x911A56B0 EQ PUSH2 0x5B3 JUMPI DUP1 PUSH4 0x94F1D1E4 EQ PUSH2 0x5C6 JUMPI DUP1 PUSH4 0x974B1054 EQ PUSH2 0x5D9 JUMPI DUP1 PUSH4 0x97F503F5 EQ PUSH2 0x5EC JUMPI DUP1 PUSH4 0x9C4E89F4 EQ PUSH2 0x5FF JUMPI PUSH2 0x2D6 JUMP JUMPDEST DUP1 PUSH4 0x594665B5 GT PUSH2 0x241 JUMPI DUP1 PUSH4 0x709D6C7B GT PUSH2 0x1FA JUMPI DUP1 PUSH4 0x7EAF7F2F GT PUSH2 0x1D4 JUMPI DUP1 PUSH4 0x7EAF7F2F EQ PUSH2 0x54D JUMPI DUP1 PUSH4 0x82463367 EQ PUSH2 0x56D JUMPI DUP1 PUSH4 0x88A73EB7 EQ PUSH2 0x575 JUMPI DUP1 PUSH4 0x8DA5CB5B EQ PUSH2 0x598 JUMPI PUSH2 0x2D6 JUMP JUMPDEST DUP1 PUSH4 0x709D6C7B EQ PUSH2 0x507 JUMPI DUP1 PUSH4 0x71542333 EQ PUSH2 0x527 JUMPI DUP1 PUSH4 0x722ABB86 EQ PUSH2 0x53A JUMPI PUSH2 0x2D6 JUMP JUMPDEST DUP1 PUSH4 0x594665B5 EQ PUSH2 0x45E JUMPI DUP1 PUSH4 0x5EB2C1CA EQ PUSH2 0x471 JUMPI DUP1 PUSH4 0x65663B59 EQ PUSH2 0x492 JUMPI DUP1 PUSH4 0x67C22CE5 EQ PUSH2 0x4B3 JUMPI DUP1 PUSH4 0x6987A203 EQ PUSH2 0x4C6 JUMPI DUP1 PUSH4 0x6E4682F7 EQ PUSH2 0x4E7 JUMPI PUSH2 0x2D6 JUMP JUMPDEST DUP1 PUSH4 0x24A3D622 GT PUSH2 0x293 JUMPI DUP1 PUSH4 0x24A3D622 EQ PUSH2 0x3AE JUMPI DUP1 PUSH4 0x2D353221 EQ PUSH2 0x3B6 JUMPI DUP1 PUSH4 0x336EDE35 EQ PUSH2 0x3DD JUMPI DUP1 PUSH4 0x39DF4791 EQ PUSH2 0x3FD JUMPI DUP1 PUSH4 0x497CF7E3 EQ PUSH2 0x41D JUMPI DUP1 PUSH4 0x4EBAD18E EQ PUSH2 0x43D JUMPI PUSH2 0x2D6 JUMP JUMPDEST DUP1 PUSH4 0x4CCB84E EQ PUSH2 0x2F7 JUMPI DUP1 PUSH4 0x1794B8EF EQ PUSH2 0x315 JUMPI DUP1 PUSH4 0x197A6DC0 EQ PUSH2 0x335 JUMPI DUP1 PUSH4 0x1D66D03F EQ PUSH2 0x34B JUMPI DUP1 PUSH4 0x206F2799 EQ PUSH2 0x36B JUMPI DUP1 PUSH4 0x24980CE0 EQ PUSH2 0x38E JUMPI JUMPDEST PUSH1 0x40 MLOAD PUSH3 0x461BCD PUSH1 0xE5 SHL DUP2 MSTORE PUSH1 0x4 ADD PUSH2 0x2EE SWAP1 PUSH2 0x42E3 JUMP JUMPDEST PUSH1 0x40 MLOAD DUP1 SWAP2 SUB SWAP1 REVERT JUMPDEST PUSH2 0x2FF PUSH2 0x7E7 JUMP JUMPDEST PUSH1 0x40 MLOAD PUSH2 0x30C SWAP2 SWAP1 PUSH2 0x4576 JUMP JUMPDEST PUSH1 0x40 MLOAD DUP1 SWAP2 SUB SWAP1 RETURN JUMPDEST PUSH2 0x328 PUSH2 0x323 CALLDATASIZE PUSH1 0x4 PUSH2 0x3A9F JUMP JUMPDEST PUSH2 0x7F1 JUMP JUMPDEST PUSH1 0x40 MLOAD PUSH2 0x30C SWAP2 SWAP1 PUSH2 0x41E9 JUMP JUMPDEST PUSH2 0x33D PUSH2 0x8BA JUMP JUMPDEST PUSH1 0x40 MLOAD PUSH2 0x30C SWAP3 SWAP2 SWAP1 PUSH2 0x40FE JUMP JUMPDEST PUSH2 0x35E PUSH2 0x359 CALLDATASIZE PUSH1 0x4 PUSH2 0x3BC8 JUMP JUMPDEST PUSH2 0x8D9 JUMP JUMPDEST PUSH1 0x40 MLOAD PUSH2 0x30C SWAP2 SWAP1 PUSH2 0x40EA JUMP JUMPDEST PUSH2 0x37E PUSH2 0x379 CALLDATASIZE PUSH1 0x4 PUSH2 0x3C0B JUMP JUMPDEST PUSH2 0x8F5 JUMP JUMPDEST PUSH1 0x40 MLOAD PUSH2 0x30C SWAP5 SWAP4 SWAP3 SWAP2 SWAP1 PUSH2 0x44CC JUMP JUMPDEST PUSH2 0x3A1 PUSH2 0x39C CALLDATASIZE PUSH1 0x4 PUSH2 0x3BC8 JUMP JUMPDEST PUSH2 0x92C JUMP JUMPDEST PUSH1 0x40 MLOAD PUSH2 0x30C SWAP2 SWAP1 PUSH2 0x44AF JUMP JUMPDEST PUSH2 0x35E PUSH2 0x93D JUMP JUMPDEST PUSH2 0x3C9 PUSH2 0x3C4 CALLDATASIZE PUSH1 0x4 PUSH2 0x3A21 JUMP JUMPDEST PUSH2 0x94C JUMP JUMPDEST PUSH1 0x40 MLOAD PUSH2 0x30C SWAP9 SWAP8 SWAP7 SWAP6 SWAP5 SWAP4 SWAP3 SWAP2 SWAP1 PUSH2 0x45B9 JUMP JUMPDEST PUSH2 0x3F0 PUSH2 0x3EB CALLDATASIZE PUSH1 0x4 PUSH2 0x3BC8 JUMP JUMPDEST PUSH2 0x99E JUMP JUMPDEST PUSH1 0x40 MLOAD PUSH2 0x30C SWAP2 SWAP1 PUSH2 0x45FF JUMP JUMPDEST PUSH2 0x410 PUSH2 0x40B CALLDATASIZE PUSH1 0x4 PUSH2 0x3BE2 JUMP JUMPDEST PUSH2 0x9D3 JUMP JUMPDEST PUSH1 0x40 MLOAD PUSH2 0x30C SWAP2 SWAP1 PUSH2 0x422C JUMP JUMPDEST PUSH2 0x430 PUSH2 0x42B CALLDATASIZE PUSH1 0x4 PUSH2 0x3BC8 JUMP JUMPDEST PUSH2 0xA61 JUMP JUMPDEST PUSH1 0x40 MLOAD PUSH2 0x30C SWAP2 SWAP1 PUSH2 0x4162 JUMP JUMPDEST PUSH2 0x450 PUSH2 0x44B CALLDATASIZE PUSH1 0x4 PUSH2 0x3BC8 JUMP JUMPDEST PUSH2 0xA76 JUMP JUMPDEST PUSH1 0x40 MLOAD PUSH2 0x30C SWAP3 SWAP2 SWAP1 PUSH2 0x44FC JUMP JUMPDEST PUSH2 0x35E PUSH2 0x46C CALLDATASIZE PUSH1 0x4 PUSH2 0x3BC8 JUMP JUMPDEST PUSH2 0xAB2 JUMP JUMPDEST PUSH2 0x484 PUSH2 0x47F CALLDATASIZE PUSH1 0x4 PUSH2 0x3BC8 JUMP JUMPDEST PUSH2 0xABD JUMP JUMPDEST PUSH1 0x40 MLOAD PUSH2 0x30C SWAP3 SWAP2 SWAP1 PUSH2 0x413D JUMP JUMPDEST PUSH2 0x4A5 PUSH2 0x4A0 CALLDATASIZE PUSH1 0x4 PUSH2 0x3BC8 JUMP JUMPDEST PUSH2 0xBF2 JUMP JUMPDEST PUSH1 0x40 MLOAD PUSH2 0x30C SWAP3 SWAP2 SWAP1 PUSH2 0x4118 JUMP JUMPDEST PUSH2 0x410 PUSH2 0x4C1 CALLDATASIZE PUSH1 0x4 PUSH2 0x3BC8 JUMP JUMPDEST PUSH2 0xC28 JUMP JUMPDEST PUSH2 0x4D9 PUSH2 0x4D4 CALLDATASIZE PUSH1 0x4 PUSH2 0x3BC8 JUMP JUMPDEST PUSH2 0xC3E JUMP JUMPDEST PUSH1 0x40 MLOAD PUSH2 0x30C SWAP3 SWAP2 SWAP1 PUSH2 0x440F JUMP JUMPDEST PUSH2 0x4FA PUSH2 0x4F5 CALLDATASIZE PUSH1 0x4 PUSH2 0x3A21 JUMP JUMPDEST PUSH2 0xC6F JUMP JUMPDEST PUSH1 0x40 MLOAD PUSH2 0x30C SWAP2 SWAP1 PUSH2 0x4221 JUMP JUMPDEST PUSH2 0x51A PUSH2 0x515 CALLDATASIZE PUSH1 0x4 PUSH2 0x3C34 JUMP JUMPDEST PUSH2 0xC8D JUMP JUMPDEST PUSH1 0x40 MLOAD PUSH2 0x30C SWAP2 SWAP1 PUSH2 0x44A0 JUMP JUMPDEST PUSH2 0x410 PUSH2 0x535 CALLDATASIZE PUSH1 0x4 PUSH2 0x3C0B JUMP JUMPDEST PUSH2 0xCDF JUMP JUMPDEST PUSH2 0x4FA PUSH2 0x548 CALLDATASIZE PUSH1 0x4 PUSH2 0x3A21 JUMP JUMPDEST PUSH2 0xCEB JUMP JUMPDEST PUSH2 0x560 PUSH2 0x55B CALLDATASIZE PUSH1 0x4 PUSH2 0x3BE2 JUMP JUMPDEST PUSH2 0xD09 JUMP JUMPDEST PUSH1 0x40 MLOAD PUSH2 0x30C SWAP2 SWAP1 PUSH2 0x4611 JUMP JUMPDEST PUSH2 0x35E PUSH2 0xD45 JUMP JUMPDEST PUSH2 0x588 PUSH2 0x583 CALLDATASIZE PUSH1 0x4 PUSH2 0x3BC8 JUMP JUMPDEST PUSH2 0xD54 JUMP JUMPDEST PUSH1 0x40 MLOAD PUSH2 0x30C SWAP5 SWAP4 SWAP3 SWAP2 SWAP1 PUSH2 0x4518 JUMP JUMPDEST PUSH2 0x35E PUSH2 0xDBC JUMP JUMPDEST PUSH2 0x410 PUSH2 0x5AE CALLDATASIZE PUSH1 0x4 PUSH2 0x3A3B JUMP JUMPDEST PUSH2 0xDD3 JUMP JUMPDEST PUSH2 0x410 PUSH2 0x5C1 CALLDATASIZE PUSH1 0x4 PUSH2 0x3A64 JUMP JUMPDEST PUSH2 0xDEC JUMP JUMPDEST PUSH2 0x2FF PUSH2 0x5D4 CALLDATASIZE PUSH1 0x4 PUSH2 0x3A21 JUMP JUMPDEST PUSH2 0xE0E JUMP JUMPDEST PUSH2 0x35E PUSH2 0x5E7 CALLDATASIZE PUSH1 0x4 PUSH2 0x3BC8 JUMP JUMPDEST PUSH2 0xE48 JUMP JUMPDEST PUSH2 0x4A5 PUSH2 0x5FA CALLDATASIZE PUSH1 0x4 PUSH2 0x3BC8 JUMP JUMPDEST PUSH2 0xE8A JUMP JUMPDEST PUSH2 0x35E PUSH2 0xEC3 JUMP JUMPDEST PUSH2 0x61A PUSH2 0x615 CALLDATASIZE PUSH1 0x4 PUSH2 0x3A21 JUMP JUMPDEST PUSH2 0xED2 JUMP JUMPDEST PUSH1 0x40 MLOAD PUSH2 0x30C SWAP3 SWAP2 SWAP1 PUSH2 0x41C4 JUMP JUMPDEST PUSH2 0x63B PUSH2 0x636 CALLDATASIZE PUSH1 0x4 PUSH2 0x3A21 JUMP JUMPDEST PUSH2 0xF0C JUMP JUMPDEST PUSH1 0x40 MLOAD PUSH2 0x30C SWAP2 SWAP1 PUSH2 0x4364 JUMP JUMPDEST PUSH2 0x65B PUSH2 0x656 CALLDATASIZE PUSH1 0x4 PUSH2 0x3A21 JUMP JUMPDEST PUSH2 0xF1D JUMP JUMPDEST PUSH1 0x40 MLOAD PUSH2 0x30C SWAP2 SWAP1 PUSH2 0x41B1 JUMP JUMPDEST PUSH2 0x67B PUSH2 0x676 CALLDATASIZE PUSH1 0x4 PUSH2 0x3D02 JUMP JUMPDEST PUSH2 0xF6A JUMP JUMPDEST PUSH1 0x40 MLOAD PUSH2 0x30C SWAP2 SWAP1 PUSH2 0x44BE JUMP JUMPDEST PUSH2 0x69B PUSH2 0x696 CALLDATASIZE PUSH1 0x4 PUSH2 0x3A21 JUMP JUMPDEST PUSH2 0xF8D JUMP JUMPDEST PUSH1 0x40 MLOAD PUSH2 0x30C SWAP3 SWAP2 SWAP1 PUSH2 0x4235 JUMP JUMPDEST PUSH2 0x33D PUSH2 0x1025 JUMP JUMPDEST PUSH2 0x35E PUSH2 0x6BF CALLDATASIZE PUSH1 0x4 PUSH2 0x3BC8 JUMP JUMPDEST PUSH2 0x1053 JUMP JUMPDEST PUSH2 0x410 PUSH2 0x6D2 CALLDATASIZE PUSH1 0x4 PUSH2 0x3BC8 JUMP JUMPDEST PUSH2 0x1067 JUMP JUMPDEST PUSH2 0x6EA PUSH2 0x6E5 CALLDATASIZE PUSH1 0x4 PUSH2 0x3D36 JUMP JUMPDEST PUSH2 0x107E JUMP JUMPDEST PUSH1 0x40 MLOAD PUSH2 0x30C SWAP6 SWAP5 SWAP4 SWAP3 SWAP2 SWAP1 PUSH2 0x4585 JUMP JUMPDEST PUSH2 0x410 PUSH2 0x709 CALLDATASIZE PUSH1 0x4 PUSH2 0x3BE2 JUMP JUMPDEST PUSH2 0x10A3 JUMP JUMPDEST PUSH2 0x721 PUSH2 0x71C CALLDATASIZE PUSH1 0x4 PUSH2 0x3BC8 JUMP JUMPDEST PUSH2 0x1101 JUMP JUMPDEST PUSH1 0x40 MLOAD PUSH2 0x30C SWAP2 SWAP1 PUSH2 0x4400 JUMP JUMPDEST PUSH2 0x410 PUSH2 0x73C CALLDATASIZE PUSH1 0x4 PUSH2 0x3C66 JUMP JUMPDEST PUSH2 0x111F JUMP JUMPDEST PUSH2 0x754 PUSH2 0x74F CALLDATASIZE PUSH1 0x4 PUSH2 0x3BC8 JUMP JUMPDEST PUSH2 0x113A JUMP JUMPDEST PUSH1 0x40 MLOAD PUSH2 0x30C SWAP3 SWAP2 SWAP1 PUSH2 0x442C JUMP JUMPDEST PUSH2 0x35E PUSH2 0x770 CALLDATASIZE PUSH1 0x4 PUSH2 0x3BC8 JUMP JUMPDEST PUSH2 0x120C JUMP JUMPDEST PUSH2 0x430 PUSH2 0x783 CALLDATASIZE PUSH1 0x4 PUSH2 0x3CC4 JUMP JUMPDEST PUSH2 0x1227 JUMP JUMPDEST PUSH2 0x35E PUSH2 0x1242 JUMP JUMPDEST PUSH2 0x51A PUSH2 0x79E CALLDATASIZE PUSH1 0x4 PUSH2 0x3BC8 JUMP JUMPDEST PUSH2 0x125A JUMP JUMPDEST PUSH2 0x7B6 PUSH2 0x7B1 CALLDATASIZE PUSH1 0x4 PUSH2 0x3A21 JUMP JUMPDEST PUSH2 0x126B JUMP JUMPDEST PUSH1 0x40 MLOAD PUSH2 0x30C SWAP4 SWAP3 SWAP2 SWAP1 PUSH2 0x4372 JUMP JUMPDEST PUSH2 0x7D8 PUSH2 0x7D3 CALLDATASIZE PUSH1 0x4 PUSH2 0x3BE2 JUMP JUMPDEST PUSH2 0x13EB JUMP JUMPDEST PUSH1 0x40 MLOAD PUSH2 0x30C SWAP4 SWAP3 SWAP2 SWAP1 PUSH2 0x424E JUMP JUMPDEST PUSH1 0x0 SLOAD PUSH2 0xFFFF AND SWAP1 JUMP JUMPDEST PUSH1 0x60 PUSH1 0x0 PUSH2 0x7FD PUSH2 0x1413 JUMP JUMPDEST SWAP1 POP DUP3 PUSH8 0xFFFFFFFFFFFFFFFF DUP2 GT DUP1 ISZERO PUSH2 0x816 JUMPI PUSH1 0x0 DUP1 REVERT JUMPDEST POP PUSH1 0x40 MLOAD SWAP1 DUP1 DUP3 MSTORE DUP1 PUSH1 0x20 MUL PUSH1 0x20 ADD DUP3 ADD PUSH1 0x40 MSTORE DUP1 ISZERO PUSH2 0x840 JUMPI DUP2 PUSH1 0x20 ADD PUSH1 0x20 DUP3 MUL DUP1 CALLDATASIZE DUP4 CALLDATACOPY ADD SWAP1 POP JUMPDEST POP SWAP2 POP PUSH1 0x0 JUMPDEST DUP4 DUP2 LT ISZERO PUSH2 0x8B2 JUMPI DUP2 PUSH1 0x0 DUP7 DUP7 DUP5 DUP2 DUP2 LT PUSH2 0x85D JUMPI INVALID JUMPDEST SWAP1 POP PUSH1 0x20 MUL ADD PUSH1 0x20 DUP2 ADD SWAP1 PUSH2 0x872 SWAP2 SWAP1 PUSH2 0x3A21 JUMP JUMPDEST PUSH1 0x1 PUSH1 0x1 PUSH1 0xA0 SHL SUB AND PUSH1 0x1 PUSH1 0x1 PUSH1 0xA0 SHL SUB AND DUP2 MSTORE PUSH1 0x20 ADD SWAP1 DUP2 MSTORE PUSH1 0x20 ADD PUSH1 0x0 KECCAK256 SLOAD DUP4 DUP3 DUP2 MLOAD DUP2 LT PUSH2 0x89F JUMPI INVALID JUMPDEST PUSH1 0x20 SWAP1 DUP2 MUL SWAP2 SWAP1 SWAP2 ADD ADD MSTORE PUSH1 0x1 ADD PUSH2 0x846 JUMP JUMPDEST POP POP SWAP3 SWAP2 POP POP JUMP JUMPDEST PUSH1 0x0 SLOAD PUSH1 0xD SLOAD PUSH1 0x1 PUSH1 0x1 PUSH1 0xA0 SHL SUB PUSH5 0x100000000 SWAP1 SWAP3 DIV DUP3 AND SWAP2 AND SWAP1 SWAP2 JUMP JUMPDEST PUSH1 0x0 PUSH2 0x8E4 DUP3 PUSH2 0x1420 JUMP JUMPDEST PUSH2 0x8ED DUP3 PUSH2 0x145D JUMP JUMPDEST SWAP1 POP JUMPDEST SWAP2 SWAP1 POP JUMP JUMPDEST PUSH2 0x8FD PUSH2 0x371C JUMP JUMPDEST PUSH2 0x905 PUSH2 0x373D JUMP JUMPDEST PUSH1 0x0 DUP1 PUSH2 0x912 DUP7 DUP7 PUSH2 0x148A JUMP JUMPDEST SWAP1 SWAP5 POP SWAP3 POP PUSH2 0x921 DUP5 DUP8 PUSH2 0x1548 JUMP JUMPDEST SWAP5 SWAP8 SWAP4 SWAP7 POP SWAP5 POP POP POP JUMP JUMPDEST PUSH2 0x934 PUSH2 0x373D JUMP JUMPDEST PUSH2 0x8ED DUP3 PUSH2 0x15BF JUMP JUMPDEST PUSH1 0x2 SLOAD PUSH1 0x1 PUSH1 0x1 PUSH1 0xA0 SHL SUB AND DUP2 JUMP JUMPDEST PUSH1 0x0 DUP1 PUSH1 0x0 DUP1 PUSH1 0x0 DUP1 PUSH1 0x0 DUP1 PUSH2 0x961 DUP10 PUSH2 0x168D JUMP JUMPDEST SWAP4 SWAP12 POP SWAP2 SWAP9 POP SWAP7 POP SWAP1 SWAP5 POP PUSH2 0x977 SWAP1 POP DUP10 PUSH2 0x16F9 JUMP JUMPDEST SWAP2 SWAP9 POP SWAP3 POP SWAP1 POP PUSH2 0x989 DUP10 DUP10 TIMESTAMP PUSH2 0x1763 JUMP JUMPDEST SWAP1 SWAP2 POP SWAP1 POP POP DUP1 SWAP4 POP POP SWAP2 SWAP4 SWAP6 SWAP8 POP SWAP2 SWAP4 SWAP6 SWAP8 JUMP JUMPDEST PUSH1 0x0 DUP1 PUSH2 0x9A9 PUSH2 0x1796 JUMP JUMPDEST PUSH2 0xFFFF SWAP4 SWAP1 SWAP4 AND PUSH1 0x0 SWAP1 DUP2 MSTORE PUSH1 0x20 SWAP4 SWAP1 SWAP4 MSTORE POP POP PUSH1 0x40 SWAP1 KECCAK256 SLOAD PUSH1 0x1 PUSH1 0x50 SHL SWAP1 DIV PUSH5 0xFFFFFFFFFF AND SWAP1 JUMP JUMPDEST PUSH1 0x0 PUSH2 0x9E0 DUP3 DUP5 TIMESTAMP PUSH2 0x1763 JUMP JUMPDEST POP SWAP2 SWAP3 POP PUSH2 0x9F4 SWAP2 POP POP PUSH2 0xFFFF DUP5 AND PUSH2 0x17A3 JUMP JUMPDEST PUSH1 0x1 PUSH1 0x1 PUSH1 0xA0 SHL SUB AND DUP3 PUSH1 0x1 PUSH1 0x1 PUSH1 0xA0 SHL SUB AND EQ ISZERO PUSH2 0xA5B JUMPI PUSH1 0x0 PUSH2 0xA19 DUP5 TIMESTAMP PUSH2 0x17C9 JUMP JUMPDEST SWAP1 POP PUSH1 0x0 JUMPDEST DUP2 MLOAD DUP2 LT ISZERO PUSH2 0x8B2 JUMPI PUSH2 0xA51 DUP3 DUP3 DUP2 MLOAD DUP2 LT PUSH2 0xA36 JUMPI INVALID JUMPDEST PUSH1 0x20 MUL PUSH1 0x20 ADD ADD MLOAD PUSH1 0x60 ADD MLOAD DUP5 PUSH2 0x1882 SWAP1 SWAP2 SWAP1 PUSH4 0xFFFFFFFF AND JUMP JUMPDEST SWAP3 POP PUSH1 0x1 ADD PUSH2 0xA1E JUMP JUMPDEST SWAP3 SWAP2 POP POP JUMP JUMPDEST PUSH1 0x60 PUSH2 0xA6C DUP3 PUSH2 0x1420 JUMP JUMPDEST PUSH2 0x8ED DUP3 TIMESTAMP PUSH2 0x17C9 JUMP JUMPDEST PUSH2 0xA7E PUSH2 0x3789 JUMP JUMPDEST PUSH2 0xA86 PUSH2 0x3789 JUMP JUMPDEST PUSH2 0xA8F DUP4 PUSH2 0x1420 JUMP JUMPDEST PUSH2 0xA9C DUP4 PUSH2 0xFFFF AND PUSH2 0x1898 JUMP JUMPDEST SWAP2 POP PUSH2 0xAAB DUP4 PUSH2 0xFFFF AND PUSH2 0x18AB JUMP JUMPDEST SWAP1 POP SWAP2 POP SWAP2 JUMP JUMPDEST PUSH1 0x0 PUSH2 0x8ED DUP3 PUSH2 0x18BE JUMP JUMPDEST PUSH1 0x60 DUP1 PUSH2 0xAC9 DUP4 PUSH2 0x1420 JUMP JUMPDEST PUSH1 0x0 PUSH2 0xAD8 DUP5 PUSH2 0xFFFF AND PUSH2 0x18EE JUMP JUMPDEST PUSH1 0xFF AND SWAP1 POP DUP1 PUSH2 0xAE8 JUMPI POP PUSH2 0xBED JUMP JUMPDEST DUP1 PUSH8 0xFFFFFFFFFFFFFFFF DUP2 GT DUP1 ISZERO PUSH2 0xAFF JUMPI PUSH1 0x0 DUP1 REVERT JUMPDEST POP PUSH1 0x40 MLOAD SWAP1 DUP1 DUP3 MSTORE DUP1 PUSH1 0x20 MUL PUSH1 0x20 ADD DUP3 ADD PUSH1 0x40 MSTORE DUP1 ISZERO PUSH2 0xB39 JUMPI DUP2 PUSH1 0x20 ADD JUMPDEST PUSH2 0xB26 PUSH2 0x37B8 JUMP JUMPDEST DUP2 MSTORE PUSH1 0x20 ADD SWAP1 PUSH1 0x1 SWAP1 SUB SWAP1 DUP2 PUSH2 0xB1E JUMPI SWAP1 POP JUMPDEST POP SWAP3 POP DUP1 PUSH8 0xFFFFFFFFFFFFFFFF DUP2 GT DUP1 ISZERO PUSH2 0xB53 JUMPI PUSH1 0x0 DUP1 REVERT JUMPDEST POP PUSH1 0x40 MLOAD SWAP1 DUP1 DUP3 MSTORE DUP1 PUSH1 0x20 MUL PUSH1 0x20 ADD DUP3 ADD PUSH1 0x40 MSTORE DUP1 ISZERO PUSH2 0xB8D JUMPI DUP2 PUSH1 0x20 ADD JUMPDEST PUSH2 0xB7A PUSH2 0x37B8 JUMP JUMPDEST DUP2 MSTORE PUSH1 0x20 ADD SWAP1 PUSH1 0x1 SWAP1 SUB SWAP1 DUP2 PUSH2 0xB72 JUMPI SWAP1 POP JUMPDEST POP SWAP2 POP PUSH1 0x1 JUMPDEST DUP2 DUP2 GT PUSH2 0xBEA JUMPI PUSH2 0xBA4 DUP6 DUP3 PUSH2 0x1904 JUMP JUMPDEST DUP5 PUSH1 0x1 DUP4 SUB DUP2 MLOAD DUP2 LT PUSH2 0xBB3 JUMPI INVALID JUMPDEST PUSH1 0x20 MUL PUSH1 0x20 ADD ADD DUP2 SWAP1 MSTORE POP PUSH2 0xBC8 DUP6 DUP3 PUSH2 0x191E JUMP JUMPDEST DUP4 PUSH1 0x1 DUP4 SUB DUP2 MLOAD DUP2 LT PUSH2 0xBD7 JUMPI INVALID JUMPDEST PUSH1 0x20 SWAP1 DUP2 MUL SWAP2 SWAP1 SWAP2 ADD ADD MSTORE PUSH1 0x1 ADD PUSH2 0xB93 JUMP JUMPDEST POP POP JUMPDEST SWAP2 POP SWAP2 JUMP JUMPDEST PUSH1 0x60 DUP1 PUSH2 0xBFE DUP4 PUSH2 0x1420 JUMP JUMPDEST PUSH1 0x0 PUSH2 0xC0D DUP5 PUSH2 0xFFFF AND PUSH2 0x18EE JUMP JUMPDEST PUSH1 0xFF AND SWAP1 POP PUSH2 0xC20 DUP5 PUSH2 0xFFFF AND DUP3 PUSH2 0x1933 JUMP JUMPDEST SWAP2 POP POP SWAP2 POP SWAP2 JUMP JUMPDEST PUSH2 0xFFFF AND PUSH1 0x0 SWAP1 DUP2 MSTORE PUSH1 0xC PUSH1 0x20 MSTORE PUSH1 0x40 SWAP1 KECCAK256 SLOAD SWAP1 JUMP JUMPDEST PUSH2 0xC46 PUSH2 0x37FD JUMP JUMPDEST PUSH2 0xC4E PUSH2 0x3851 JUMP JUMPDEST PUSH2 0xC57 DUP4 PUSH2 0x1420 JUMP JUMPDEST PUSH2 0xC64 DUP4 PUSH2 0xFFFF AND PUSH2 0x195A JUMP JUMPDEST SWAP2 POP PUSH2 0xAAB DUP4 PUSH2 0x19E2 JUMP JUMPDEST PUSH1 0x1 PUSH1 0x1 PUSH1 0xA0 SHL SUB AND PUSH1 0x0 SWAP1 DUP2 MSTORE PUSH1 0x8 PUSH1 0x20 MSTORE PUSH1 0x40 SWAP1 KECCAK256 SLOAD PUSH1 0xFF AND SWAP1 JUMP JUMPDEST PUSH2 0xC95 PUSH2 0x387B JUMP JUMPDEST PUSH2 0xC9E DUP5 PUSH2 0x1420 JUMP JUMPDEST PUSH1 0x0 PUSH2 0xCA9 DUP6 PUSH2 0x1A6D JUMP JUMPDEST SWAP1 POP PUSH2 0xCB3 PUSH2 0x387B JUMP JUMPDEST PUSH2 0xCD4 DUP7 PUSH2 0xFFFF AND DUP7 TIMESTAMP PUSH1 0x1 PUSH2 0xCC8 DUP8 PUSH2 0x1A8E JUMP JUMPDEST DUP7 SWAP5 SWAP4 SWAP3 SWAP2 SWAP1 DUP11 PUSH2 0x1AA2 JUMP JUMPDEST SWAP2 POP POP JUMPDEST SWAP4 SWAP3 POP POP POP JUMP JUMPDEST PUSH1 0x0 PUSH2 0xCD8 DUP4 DUP4 PUSH2 0x1AD9 JUMP JUMPDEST PUSH1 0x1 PUSH1 0x1 PUSH1 0xA0 SHL SUB AND PUSH1 0x0 SWAP1 DUP2 MSTORE PUSH1 0x6 PUSH1 0x20 MSTORE PUSH1 0x40 SWAP1 KECCAK256 SLOAD PUSH1 0xFF AND SWAP1 JUMP JUMPDEST PUSH1 0x0 DUP1 PUSH2 0xD14 PUSH2 0x1B14 JUMP JUMPDEST PUSH2 0xFFFF DUP6 AND PUSH1 0x0 SWAP1 DUP2 MSTORE PUSH1 0x20 SWAP2 DUP3 MSTORE PUSH1 0x40 DUP1 DUP3 KECCAK256 PUSH1 0x1 PUSH1 0x1 PUSH1 0xA0 SHL SUB DUP8 AND DUP4 MSTORE SWAP1 SWAP3 MSTORE KECCAK256 SLOAD PUSH1 0xFF AND SWAP2 POP POP SWAP3 SWAP2 POP POP JUMP JUMPDEST PUSH1 0x1 SLOAD PUSH1 0x1 PUSH1 0x1 PUSH1 0xA0 SHL SUB AND DUP2 JUMP JUMPDEST PUSH2 0xD5C PUSH2 0x3789 JUMP JUMPDEST PUSH2 0xD64 PUSH2 0x3789 JUMP JUMPDEST PUSH2 0xD6C PUSH2 0x38C3 JUMP JUMPDEST PUSH2 0xD74 PUSH2 0x3851 JUMP JUMPDEST PUSH2 0xD7D DUP6 PUSH2 0x1420 JUMP JUMPDEST PUSH2 0xD8A DUP6 PUSH2 0xFFFF AND PUSH2 0x1898 JUMP JUMPDEST SWAP4 POP PUSH2 0xD99 DUP6 PUSH2 0xFFFF AND PUSH2 0x18AB JUMP JUMPDEST SWAP3 POP PUSH2 0xDA8 DUP6 PUSH2 0xFFFF AND PUSH2 0x1B21 JUMP JUMPDEST SWAP2 POP PUSH2 0xDB3 DUP6 PUSH2 0x19E2 JUMP JUMPDEST SWAP1 POP SWAP2 SWAP4 POP SWAP2 SWAP4 JUMP JUMPDEST PUSH1 0x0 SLOAD PUSH5 0x100000000 SWAP1 DIV PUSH1 0x1 PUSH1 0x1 PUSH1 0xA0 SHL SUB AND DUP2 JUMP JUMPDEST PUSH1 0x0 PUSH2 0xDDE DUP3 PUSH2 0x1420 JUMP JUMPDEST PUSH2 0xCD8 DUP4 DUP4 PUSH2 0xFFFF AND PUSH2 0x1C84 JUMP JUMPDEST PUSH1 0x0 PUSH2 0xDF7 DUP4 PUSH2 0x1420 JUMP JUMPDEST PUSH2 0xE06 DUP5 DUP5 PUSH2 0xFFFF AND DUP5 PUSH2 0x1CB9 JUMP JUMPDEST SWAP5 SWAP4 POP POP POP POP JUMP JUMPDEST PUSH1 0x1 PUSH1 0x1 PUSH1 0xA0 SHL SUB DUP2 AND PUSH1 0x0 SWAP1 DUP2 MSTORE PUSH1 0x9 PUSH1 0x20 MSTORE PUSH1 0x40 SWAP1 KECCAK256 SLOAD PUSH2 0xFFFF AND DUP1 PUSH2 0x8F0 JUMPI PUSH1 0x40 MLOAD PUSH3 0x461BCD PUSH1 0xE5 SHL DUP2 MSTORE PUSH1 0x4 ADD PUSH2 0x2EE SWAP1 PUSH2 0x433A JUMP JUMPDEST PUSH1 0x0 PUSH2 0xE53 DUP3 PUSH2 0x1420 JUMP JUMPDEST PUSH1 0x0 PUSH2 0xE62 DUP4 PUSH2 0xFFFF AND PUSH2 0x17A3 JUMP JUMPDEST SWAP1 POP PUSH1 0x1 PUSH1 0x1 PUSH1 0xA0 SHL SUB DUP2 AND PUSH2 0x8ED JUMPI PUSH1 0x40 MLOAD PUSH3 0x461BCD PUSH1 0xE5 SHL DUP2 MSTORE PUSH1 0x4 ADD PUSH2 0x2EE SWAP1 PUSH2 0x4264 JUMP JUMPDEST PUSH1 0x60 DUP1 PUSH2 0xE96 DUP4 PUSH2 0x1420 JUMP JUMPDEST PUSH1 0x0 PUSH2 0xEA5 DUP5 PUSH2 0xFFFF AND PUSH2 0x18EE JUMP JUMPDEST PUSH1 0xFF AND SWAP1 POP PUSH2 0xEB8 DUP5 PUSH2 0xFFFF AND DUP3 PUSH2 0x1CFE JUMP JUMPDEST SWAP1 SWAP6 SWAP1 SWAP5 POP SWAP3 POP POP POP JUMP JUMPDEST PUSH1 0xB SLOAD PUSH1 0x1 PUSH1 0x1 PUSH1 0xA0 SHL SUB AND SWAP1 JUMP JUMPDEST PUSH1 0x60 DUP1 PUSH1 0x0 DUP1 PUSH1 0x0 PUSH2 0xEE3 DUP7 PUSH2 0x168D JUMP JUMPDEST POP SWAP4 POP SWAP4 POP POP SWAP3 POP PUSH2 0xEF5 DUP7 DUP3 PUSH2 0x1D33 JUMP JUMPDEST SWAP5 POP PUSH2 0xF02 DUP7 DUP5 DUP5 PUSH2 0x1D47 JUMP JUMPDEST SWAP4 POP POP POP POP SWAP2 POP SWAP2 JUMP JUMPDEST PUSH2 0xF14 PUSH2 0x38F2 JUMP JUMPDEST PUSH2 0x8ED DUP3 PUSH2 0x1E61 JUMP JUMPDEST PUSH1 0x60 PUSH1 0x0 PUSH2 0xF2A DUP4 PUSH2 0x1E61 JUMP JUMPDEST SWAP1 POP PUSH2 0xF35 DUP2 PUSH2 0x1F1A JUMP JUMPDEST ISZERO PUSH2 0xF5C JUMPI PUSH2 0xF54 DUP4 DUP3 PUSH1 0x60 ADD MLOAD DUP4 PUSH1 0x0 ADD MLOAD PUSH5 0xFFFFFFFFFF AND PUSH2 0x1D47 JUMP JUMPDEST SWAP2 POP POP PUSH2 0x8F0 JUMP JUMPDEST PUSH2 0xF54 DUP4 DUP3 PUSH1 0x40 ADD MLOAD PUSH2 0x1D33 JUMP JUMPDEST PUSH2 0xF72 PUSH2 0x371C JUMP JUMPDEST PUSH2 0xF7B DUP4 PUSH2 0x1420 JUMP JUMPDEST PUSH2 0xCD8 DUP4 DUP4 PUSH5 0xFFFFFFFFFF AND TIMESTAMP PUSH2 0x1F27 JUMP JUMPDEST PUSH1 0x0 PUSH1 0x60 PUSH20 0x0 PUSH4 0x6CB65EAF DUP5 PUSH1 0x40 MLOAD DUP3 PUSH4 0xFFFFFFFF AND PUSH1 0xE0 SHL DUP2 MSTORE PUSH1 0x4 ADD PUSH2 0xFC8 SWAP2 SWAP1 PUSH2 0x40EA JUMP JUMPDEST PUSH1 0x0 PUSH1 0x40 MLOAD DUP1 DUP4 SUB DUP2 DUP7 DUP1 EXTCODESIZE ISZERO DUP1 ISZERO PUSH2 0xFE0 JUMPI PUSH1 0x0 DUP1 REVERT JUMPDEST POP GAS DELEGATECALL ISZERO DUP1 ISZERO PUSH2 0xFF4 JUMPI RETURNDATASIZE PUSH1 0x0 DUP1 RETURNDATACOPY RETURNDATASIZE PUSH1 0x0 REVERT JUMPDEST POP POP POP POP PUSH1 0x40 MLOAD RETURNDATASIZE PUSH1 0x0 DUP3 RETURNDATACOPY PUSH1 0x1F RETURNDATASIZE SWAP1 DUP2 ADD PUSH1 0x1F NOT AND DUP3 ADD PUSH1 0x40 MSTORE PUSH2 0x101C SWAP2 SWAP1 DUP2 ADD SWAP1 PUSH2 0x3B0E JUMP JUMPDEST SWAP2 POP SWAP2 POP SWAP2 POP SWAP2 JUMP JUMPDEST PUSH20 0x0 PUSH20 0x0 SWAP1 SWAP2 JUMP JUMPDEST PUSH1 0x0 PUSH2 0x105E DUP3 PUSH2 0x1420 JUMP JUMPDEST PUSH2 0x8ED DUP3 PUSH2 0x1F59 JUMP JUMPDEST PUSH1 0x0 PUSH2 0x1072 DUP3 PUSH2 0x1420 JUMP JUMPDEST PUSH2 0x8ED PUSH2 0xFEE DUP4 PUSH2 0x1F63 JUMP JUMPDEST PUSH1 0x0 DUP1 PUSH1 0x0 DUP1 PUSH1 0x0 PUSH2 0x108F DUP7 PUSH2 0x1FB4 JUMP JUMPDEST SWAP5 POP SWAP5 POP SWAP5 POP SWAP5 POP SWAP5 POP JUMPDEST SWAP2 SWAP4 SWAP6 SWAP1 SWAP3 SWAP5 POP JUMP JUMPDEST PUSH1 0x0 DUP1 PUSH2 0x10AE PUSH2 0x1FF6 JUMP JUMPDEST PUSH1 0x1 PUSH1 0x1 PUSH1 0xA0 SHL SUB DUP5 AND PUSH1 0x0 SWAP1 DUP2 MSTORE PUSH1 0x20 DUP3 DUP2 MSTORE PUSH1 0x40 DUP1 DUP4 KECCAK256 PUSH2 0xFFFF DUP10 AND DUP5 MSTORE SWAP1 SWAP2 MSTORE DUP2 KECCAK256 DUP1 SLOAD SWAP3 SWAP4 POP SWAP2 PUSH1 0x1 PUSH1 0xA8 SHL SWAP1 DIV PUSH1 0xA SWAP1 DUP2 SIGNEXTEND SWAP1 SIGNEXTEND SWAP1 DUP2 SLT PUSH2 0x10F5 JUMPI PUSH1 0x0 PUSH2 0x10F7 JUMP JUMPDEST DUP1 JUMPDEST SWAP7 SWAP6 POP POP POP POP POP POP JUMP JUMPDEST PUSH2 0x1109 PUSH2 0x37FD JUMP JUMPDEST PUSH2 0x1112 DUP3 PUSH2 0x1420 JUMP JUMPDEST PUSH2 0x8ED DUP3 PUSH2 0xFFFF AND PUSH2 0x195A JUMP JUMPDEST PUSH1 0x0 PUSH2 0x112E DUP7 DUP7 DUP7 DUP7 DUP7 PUSH2 0x2003 JUMP JUMPDEST SWAP1 POP JUMPDEST SWAP6 SWAP5 POP POP POP POP POP JUMP JUMPDEST PUSH2 0x1142 PUSH2 0x38F2 JUMP JUMPDEST PUSH2 0x114A PUSH2 0x3927 JUMP JUMPDEST PUSH2 0x1153 DUP4 PUSH2 0x1420 JUMP JUMPDEST PUSH1 0x0 PUSH2 0x115D PUSH2 0x2071 JUMP JUMPDEST SWAP1 POP PUSH1 0x0 PUSH2 0x1169 PUSH2 0x207E JUMP JUMPDEST PUSH2 0xFFFF SWAP1 SWAP6 AND PUSH1 0x0 DUP2 DUP2 MSTORE PUSH1 0x20 SWAP4 DUP5 MSTORE PUSH1 0x40 DUP1 DUP3 KECCAK256 DUP2 MLOAD PUSH1 0xC0 DUP2 ADD DUP4 MSTORE SWAP1 SLOAD PUSH1 0x1 PUSH1 0x1 PUSH1 0xA0 SHL SUB DUP1 DUP3 AND DUP4 MSTORE PUSH1 0xFF PUSH1 0x1 PUSH1 0xA0 SHL DUP1 DUP5 DIV DUP3 AND DUP6 DUP12 ADD MSTORE PUSH1 0x1 PUSH1 0xA8 SHL DUP5 DIV DUP3 AND ISZERO ISZERO DUP6 DUP8 ADD MSTORE PUSH1 0x1 PUSH1 0xB0 SHL DUP5 DIV DUP3 AND PUSH1 0x60 DUP7 ADD MSTORE PUSH1 0x1 PUSH1 0xB8 SHL DUP5 DIV DUP3 AND PUSH1 0x80 DUP7 ADD MSTORE PUSH1 0x1 PUSH1 0xC0 SHL SWAP1 SWAP4 DIV DUP2 AND PUSH1 0xA0 DUP6 ADD MSTORE SWAP6 DUP6 MSTORE SWAP10 DUP8 MSTORE SWAP3 DUP3 SWAP1 KECCAK256 DUP3 MLOAD DUP1 DUP5 ADD SWAP1 SWAP4 MSTORE SLOAD SWAP9 DUP10 AND DUP3 MSTORE SWAP2 SWAP1 SWAP8 DIV SWAP1 SWAP2 AND SWAP3 DUP7 ADD SWAP3 SWAP1 SWAP3 MSTORE POP SWAP4 SWAP2 POP POP JUMP JUMPDEST PUSH1 0x0 DUP1 PUSH2 0x121C DUP4 PUSH2 0xFFFF AND PUSH2 0x17A3 JUMP JUMPDEST SWAP1 POP PUSH2 0xCD8 DUP2 PUSH2 0x208B JUMP JUMPDEST PUSH1 0x60 PUSH2 0x1232 DUP4 PUSH2 0x1420 JUMP JUMPDEST PUSH2 0xCD8 DUP4 DUP4 PUSH4 0xFFFFFFFF AND PUSH2 0x17C9 JUMP JUMPDEST PUSH20 0x19BE259BC299F3F653688C7655C87F998BC7BC1 SWAP1 JUMP JUMPDEST PUSH2 0x1262 PUSH2 0x37B8 JUMP JUMPDEST PUSH2 0x8ED DUP3 PUSH2 0x2104 JUMP JUMPDEST PUSH2 0x1273 PUSH2 0x38F2 JUMP JUMPDEST PUSH1 0x60 DUP1 PUSH2 0x127F DUP5 PUSH2 0x1E61 JUMP JUMPDEST PUSH1 0x40 DUP1 MLOAD PUSH1 0xA DUP1 DUP3 MSTORE PUSH2 0x160 DUP3 ADD SWAP1 SWAP3 MSTORE SWAP2 SWAP5 POP DUP2 PUSH1 0x20 ADD JUMPDEST PUSH2 0x12A0 PUSH2 0x393E JUMP JUMPDEST DUP2 MSTORE PUSH1 0x20 ADD SWAP1 PUSH1 0x1 SWAP1 SUB SWAP1 DUP2 PUSH2 0x1298 JUMPI SWAP1 POP POP SWAP2 POP PUSH1 0x0 PUSH2 0x12C0 DUP5 PUSH2 0x1F1A JUMP JUMPDEST ISZERO PUSH2 0x1314 JUMPI PUSH1 0x0 DUP4 PUSH1 0x0 DUP2 MLOAD DUP2 LT PUSH2 0x12D4 JUMPI INVALID JUMPDEST PUSH1 0x20 SWAP1 DUP2 MUL SWAP2 SWAP1 SWAP2 ADD ADD MLOAD PUSH1 0x60 DUP7 ADD DUP1 MLOAD PUSH2 0xFFFF AND DUP3 MSTORE MLOAD SWAP1 SWAP2 POP PUSH2 0x12FB SWAP1 DUP8 SWAP1 TIMESTAMP PUSH2 0x1763 JUMP JUMPDEST PUSH1 0x80 DUP6 ADD MSTORE PUSH1 0x60 DUP5 ADD MSTORE PUSH1 0x40 DUP4 ADD MSTORE PUSH1 0x20 SWAP1 SWAP2 ADD MSTORE PUSH1 0x1 ADD JUMPDEST PUSH1 0x80 DUP5 ADD MLOAD JUMPDEST PUSH1 0x1 PUSH1 0x1 PUSH1 0x70 SHL SUB NOT DUP2 AND ISZERO PUSH2 0x13A2 JUMPI PUSH1 0x0 DUP5 DUP4 DUP2 MLOAD DUP2 LT PUSH2 0x1338 JUMPI INVALID JUMPDEST PUSH1 0x20 SWAP1 DUP2 MUL SWAP2 SWAP1 SWAP2 ADD ADD MLOAD PUSH1 0xF0 DUP4 SWAP1 SHR PUSH2 0x3FFF AND DUP1 DUP3 MSTORE SWAP1 SWAP2 POP PUSH2 0x135C JUMPI POP PUSH2 0x13A2 JUMP JUMPDEST PUSH2 0x136B DUP8 DUP3 PUSH1 0x0 ADD MLOAD TIMESTAMP PUSH2 0x1763 JUMP JUMPDEST PUSH1 0x80 DUP6 ADD MSTORE PUSH1 0x60 DUP5 ADD MSTORE PUSH1 0x40 DUP4 ADD MSTORE PUSH1 0x20 SWAP1 SWAP2 ADD MSTORE PUSH1 0x1 SWAP2 SWAP1 SWAP2 ADD SWAP1 PUSH1 0x10 SHL PUSH16 0xFFFFFFFFFFFFFFFFFFFFFFFFFFFFFFFF NOT AND PUSH2 0x131A JUMP JUMPDEST PUSH2 0x13AB DUP6 PUSH2 0x1F1A JUMP JUMPDEST ISZERO PUSH2 0x13D1 JUMPI PUSH2 0x13CA DUP7 DUP7 PUSH1 0x60 ADD MLOAD DUP8 PUSH1 0x0 ADD MLOAD PUSH5 0xFFFFFFFFFF AND PUSH2 0x1D47 JUMP JUMPDEST SWAP3 POP PUSH2 0x13E2 JUMP JUMPDEST PUSH2 0x13DF DUP7 DUP7 PUSH1 0x40 ADD MLOAD PUSH2 0x1D33 JUMP JUMPDEST SWAP3 POP JUMPDEST POP POP SWAP2 SWAP4 SWAP1 SWAP3 POP JUMP JUMPDEST PUSH1 0x0 DUP1 PUSH1 0x0 PUSH2 0x13F9 DUP6 PUSH2 0x1420 JUMP JUMPDEST PUSH2 0x1404 DUP5 DUP7 TIMESTAMP PUSH2 0x1763 JUMP JUMPDEST POP SWAP2 SWAP8 SWAP1 SWAP7 POP SWAP1 SWAP5 POP SWAP3 POP POP POP JUMP JUMPDEST PUSH1 0x0 DUP1 PUSH2 0xA5B PUSH1 0x26 PUSH2 0x2137 JUMP JUMPDEST DUP1 PUSH2 0xFFFF AND PUSH1 0x0 LT DUP1 ISZERO PUSH2 0x143E JUMPI POP PUSH1 0x0 SLOAD PUSH2 0xFFFF SWAP1 DUP2 AND SWAP1 DUP3 AND GT ISZERO JUMPDEST PUSH2 0x145A JUMPI PUSH1 0x40 MLOAD PUSH3 0x461BCD PUSH1 0xE5 SHL DUP2 MSTORE PUSH1 0x4 ADD PUSH2 0x2EE SWAP1 PUSH2 0x430D JUMP JUMPDEST POP JUMP JUMPDEST PUSH1 0x0 PUSH2 0x1467 PUSH2 0x2150 JUMP JUMPDEST PUSH2 0xFFFF SWAP1 SWAP3 AND PUSH1 0x0 SWAP1 DUP2 MSTORE PUSH1 0x20 SWAP3 SWAP1 SWAP3 MSTORE POP PUSH1 0x40 SWAP1 KECCAK256 SLOAD PUSH1 0x1 PUSH1 0x1 PUSH1 0xA0 SHL SUB AND SWAP1 JUMP JUMPDEST PUSH2 0x1492 PUSH2 0x371C JUMP JUMPDEST PUSH2 0x149A PUSH2 0x373D JUMP JUMPDEST PUSH2 0x14A3 DUP5 PUSH2 0x15BF JUMP JUMPDEST SWAP1 POP DUP3 DUP2 PUSH1 0x0 ADD MLOAD LT ISZERO PUSH2 0x14D4 JUMPI PUSH1 0x0 PUSH2 0x14BC DUP6 PUSH2 0x215D JUMP JUMPDEST SWAP1 POP PUSH2 0x14CA DUP6 DUP4 DUP4 DUP8 PUSH2 0x21D8 JUMP JUMPDEST POP SWAP2 POP PUSH2 0x14E1 SWAP1 POP JUMP JUMPDEST DUP1 MLOAD DUP4 EQ PUSH2 0x14E1 JUMPI PUSH1 0x0 DUP1 REVERT JUMPDEST PUSH1 0x40 MLOAD DUP1 PUSH1 0x60 ADD PUSH1 0x40 MSTORE DUP1 PUSH2 0x150F PUSH2 0x150A DUP5 PUSH1 0xA0 ADD MLOAD DUP6 PUSH1 0xC0 ADD MLOAD PUSH2 0x22D9 SWAP1 SWAP2 SWAP1 PUSH4 0xFFFFFFFF AND JUMP JUMPDEST PUSH2 0x2300 JUMP JUMPDEST DUP2 MSTORE PUSH1 0x20 ADD PUSH2 0x1532 PUSH2 0x150A DUP5 PUSH1 0xA0 ADD MLOAD DUP6 PUSH1 0xE0 ADD MLOAD PUSH2 0x22D9 SWAP1 SWAP2 SWAP1 PUSH4 0xFFFFFFFF AND JUMP JUMPDEST DUP2 MSTORE PUSH1 0x20 ADD DUP3 PUSH1 0x60 ADD MLOAD DUP2 MSTORE POP SWAP2 POP SWAP3 POP SWAP3 SWAP1 POP JUMP JUMPDEST PUSH1 0x0 DUP1 PUSH1 0x0 PUSH2 0x1555 PUSH2 0x231A JUMP JUMPDEST PUSH2 0xFFFF DUP6 AND PUSH1 0x0 SWAP1 DUP2 MSTORE PUSH1 0x20 SWAP2 SWAP1 SWAP2 MSTORE PUSH1 0x40 SWAP1 KECCAK256 PUSH1 0x1 DUP2 ADD SLOAD SWAP1 SWAP2 POP PUSH2 0x1587 SWAP1 PUSH1 0x1 PUSH1 0x58 SHL SWAP1 DIV PUSH4 0xFFFFFFFF AND PUSH2 0x2327 JUMP JUMPDEST DUP2 SLOAD SWAP1 SWAP4 POP PUSH6 0x10000000000 SWAP1 DIV PUSH11 0xFFFFFFFFFFFFFFFFFFFFFF AND PUSH2 0x15B4 PUSH2 0x15AF DUP8 DUP4 PUSH2 0x2335 JUMP JUMPDEST PUSH2 0x2361 JUMP JUMPDEST SWAP3 POP POP POP SWAP3 POP SWAP3 SWAP1 POP JUMP JUMPDEST PUSH2 0x15C7 PUSH2 0x373D JUMP JUMPDEST PUSH1 0x0 PUSH2 0x15D1 PUSH2 0x231A JUMP JUMPDEST PUSH2 0xFFFF SWAP4 DUP5 AND PUSH1 0x0 SWAP1 DUP2 MSTORE PUSH1 0x20 SWAP2 DUP3 MSTORE PUSH1 0x40 SWAP1 DUP2 SWAP1 KECCAK256 DUP1 SLOAD PUSH5 0xFFFFFFFFFF DUP2 AND DUP7 MSTORE PUSH6 0x10000000000 DUP2 DIV PUSH11 0xFFFFFFFFFFFFFFFFFFFFFF SWAP1 DUP2 AND SWAP5 DUP8 ADD SWAP5 SWAP1 SWAP5 MSTORE PUSH1 0x1 DUP3 ADD SLOAD DUP5 AND SWAP3 DUP7 ADD SWAP3 SWAP1 SWAP3 MSTORE PUSH1 0x1 PUSH1 0xD8 SHL DUP3 DIV PUSH4 0xFFFFFFFF AND PUSH1 0x60 DUP7 ADD MSTORE PUSH1 0x1 PUSH1 0x80 SHL SWAP1 SWAP2 DIV SWAP1 SWAP2 AND PUSH1 0x80 DUP5 ADD MSTORE PUSH1 0x2 ADD SLOAD PUSH1 0x1 PUSH1 0x1 PUSH1 0x50 SHL SUB DUP1 DUP3 AND PUSH1 0xA0 DUP6 ADD MSTORE PUSH1 0x1 PUSH1 0x50 SHL DUP3 DIV DUP2 AND PUSH1 0xC0 DUP6 ADD MSTORE PUSH1 0x1 PUSH1 0xA0 SHL DUP3 DIV AND PUSH1 0xE0 DUP5 ADD MSTORE PUSH1 0x1 PUSH1 0xF0 SHL SWAP1 DIV PUSH1 0xFF AND PUSH2 0x12C MUL SWAP1 SWAP3 AND PUSH2 0x100 DUP3 ADD MSTORE SWAP2 SWAP1 POP JUMP JUMPDEST PUSH1 0x0 DUP1 PUSH1 0x0 DUP1 PUSH1 0x0 DUP1 PUSH2 0x169E PUSH2 0x2370 JUMP JUMPDEST PUSH1 0x1 PUSH1 0x1 PUSH1 0xA0 SHL SUB SWAP1 SWAP8 AND PUSH1 0x0 SWAP1 DUP2 MSTORE PUSH1 0x20 SWAP8 SWAP1 SWAP8 MSTORE POP POP PUSH1 0x40 SWAP1 SWAP5 KECCAK256 SLOAD PUSH2 0xFFFF DUP2 AND SWAP6 PUSH4 0xFFFFFFFF PUSH3 0x10000 DUP4 DIV DUP2 AND SWAP7 POP PUSH7 0x1000000000000 DUP4 DIV AND SWAP5 POP PUSH1 0xFF PUSH1 0x1 PUSH1 0x50 SHL DUP4 DIV AND SWAP4 POP PUSH1 0x1 PUSH1 0x58 SHL SWAP1 SWAP2 DIV PUSH1 0xD8 SHL SWAP2 POP JUMP JUMPDEST PUSH1 0x0 DUP1 PUSH1 0x0 DUP1 PUSH2 0x1707 PUSH2 0x237D JUMP JUMPDEST PUSH1 0x1 PUSH1 0x1 PUSH1 0xA0 SHL SUB SWAP6 SWAP1 SWAP6 AND PUSH1 0x0 SWAP1 DUP2 MSTORE PUSH1 0x20 SWAP6 SWAP1 SWAP6 MSTORE POP POP PUSH1 0x40 SWAP1 SWAP3 KECCAK256 SLOAD PUSH12 0xFFFFFFFFFFFFFFFFFFFFFFFF DUP2 AND SWAP4 PUSH1 0x1 PUSH1 0x60 SHL DUP3 DIV PUSH16 0xFFFFFFFFFFFFFFFFFFFFFFFFFFFFFFFF AND SWAP4 POP PUSH1 0x1 PUSH1 0xE0 SHL SWAP1 SWAP2 DIV PUSH4 0xFFFFFFFF AND SWAP2 POP JUMP JUMPDEST PUSH1 0x0 DUP1 PUSH1 0x0 DUP1 PUSH1 0x0 PUSH2 0x1775 DUP8 DUP8 PUSH2 0x148A JUMP JUMPDEST POP SWAP1 POP PUSH2 0x1783 DUP9 DUP9 DUP4 PUSH2 0x238A JUMP JUMPDEST SWAP5 POP SWAP5 POP SWAP5 POP SWAP5 POP POP JUMPDEST SWAP4 POP SWAP4 POP SWAP4 POP SWAP4 JUMP JUMPDEST PUSH1 0x0 DUP1 PUSH2 0xA5B PUSH1 0x25 PUSH2 0x2137 JUMP JUMPDEST PUSH1 0x0 DUP1 PUSH2 0x17AE PUSH2 0x2444 JUMP JUMPDEST PUSH1 0x0 SWAP4 DUP5 MSTORE PUSH1 0x20 MSTORE POP POP PUSH1 0x40 SWAP1 KECCAK256 SLOAD PUSH1 0x1 PUSH1 0x1 PUSH1 0xA0 SHL SUB AND SWAP1 JUMP JUMPDEST PUSH1 0x60 PUSH1 0x0 PUSH2 0x17D6 DUP5 PUSH2 0x1A6D JUMP JUMPDEST SWAP1 POP PUSH1 0x0 DUP2 PUSH1 0x20 ADD MLOAD PUSH8 0xFFFFFFFFFFFFFFFF DUP2 GT DUP1 ISZERO PUSH2 0x17F5 JUMPI PUSH1 0x0 DUP1 REVERT JUMPDEST POP PUSH1 0x40 MLOAD SWAP1 DUP1 DUP3 MSTORE DUP1 PUSH1 0x20 MUL PUSH1 0x20 ADD DUP3 ADD PUSH1 0x40 MSTORE DUP1 ISZERO PUSH2 0x182F JUMPI DUP2 PUSH1 0x20 ADD JUMPDEST PUSH2 0x181C PUSH2 0x387B JUMP JUMPDEST DUP2 MSTORE PUSH1 0x20 ADD SWAP1 PUSH1 0x1 SWAP1 SUB SWAP1 DUP2 PUSH2 0x1814 JUMPI SWAP1 POP JUMPDEST POP SWAP1 POP PUSH1 0x0 JUMPDEST DUP3 PUSH1 0x20 ADD MLOAD DUP2 LT ISZERO PUSH2 0x1879 JUMPI PUSH2 0x1871 DUP3 DUP3 DUP2 MLOAD DUP2 LT PUSH2 0x1850 JUMPI INVALID JUMPDEST PUSH1 0x20 MUL PUSH1 0x20 ADD ADD MLOAD DUP3 PUSH1 0x1 ADD PUSH1 0x1 DUP9 DUP8 PUSH2 0x2451 SWAP1 SWAP5 SWAP4 SWAP3 SWAP2 SWAP1 PUSH4 0xFFFFFFFF AND JUMP JUMPDEST PUSH1 0x1 ADD PUSH2 0x1835 JUMP JUMPDEST POP SWAP5 SWAP4 POP POP POP POP JUMP JUMPDEST DUP2 DUP2 ADD DUP3 DUP2 SLT ISZERO PUSH1 0x0 DUP4 SLT ISZERO EQ PUSH2 0xA5B JUMPI PUSH1 0x0 DUP1 REVERT JUMPDEST PUSH2 0x18A0 PUSH2 0x3789 JUMP JUMPDEST PUSH2 0x8ED DUP3 PUSH1 0x0 PUSH2 0x24CC JUMP JUMPDEST PUSH2 0x18B3 PUSH2 0x3789 JUMP JUMPDEST PUSH2 0x8ED DUP3 PUSH1 0x1 PUSH2 0x24CC JUMP JUMPDEST PUSH1 0x0 DUP1 PUSH2 0x18C9 PUSH2 0x2566 JUMP JUMPDEST PUSH2 0xFFFF SWAP4 SWAP1 SWAP4 AND PUSH1 0x0 SWAP1 DUP2 MSTORE PUSH1 0x20 SWAP4 SWAP1 SWAP4 MSTORE POP POP PUSH1 0x40 SWAP1 KECCAK256 SLOAD PUSH1 0x1 PUSH1 0x1 PUSH1 0xA0 SHL SUB AND SWAP1 JUMP JUMPDEST PUSH1 0x0 DUP1 PUSH2 0x18FA DUP4 PUSH2 0x2573 JUMP JUMPDEST PUSH1 0xFF AND SWAP4 SWAP3 POP POP POP JUMP JUMPDEST PUSH2 0x190C PUSH2 0x37B8 JUMP JUMPDEST PUSH2 0xCD8 DUP4 DUP4 PUSH2 0x1919 PUSH2 0x2590 JUMP JUMPDEST PUSH2 0x259D JUMP JUMPDEST PUSH2 0x1926 PUSH2 0x37B8 JUMP JUMPDEST PUSH2 0xCD8 DUP4 DUP4 PUSH2 0x1919 PUSH2 0x25F4 JUMP JUMPDEST PUSH1 0x60 PUSH1 0x0 PUSH2 0x193F PUSH2 0x2601 JUMP JUMPDEST PUSH1 0x0 DUP6 DUP2 MSTORE PUSH1 0x20 DUP3 SWAP1 MSTORE PUSH1 0x40 SWAP1 KECCAK256 SWAP1 SWAP2 POP PUSH2 0x10F7 DUP2 DUP6 PUSH2 0x260E JUMP JUMPDEST PUSH2 0x1962 PUSH2 0x37FD JUMP JUMPDEST PUSH1 0x0 PUSH2 0x196D DUP4 PUSH2 0x2573 JUMP JUMPDEST SWAP1 POP PUSH1 0x0 DUP2 PUSH1 0x1F PUSH1 0x40 DUP1 MLOAD PUSH2 0x140 DUP2 ADD SWAP1 SWAP2 MSTORE SWAP2 SWAP1 BYTE DUP1 DUP3 MSTORE SWAP2 POP PUSH1 0x20 DUP2 ADD DUP4 PUSH1 0x1E BYTE DUP2 MSTORE PUSH1 0x20 ADD DUP4 PUSH1 0x1D BYTE DUP2 MSTORE PUSH1 0x20 ADD DUP4 PUSH1 0x1C BYTE DUP2 MSTORE PUSH1 0x20 ADD DUP4 PUSH1 0x1B BYTE DUP2 MSTORE PUSH1 0x20 ADD DUP4 PUSH1 0x1A BYTE DUP2 MSTORE PUSH1 0x20 ADD DUP4 PUSH1 0x19 BYTE DUP2 MSTORE PUSH1 0x20 ADD DUP4 PUSH1 0x18 BYTE DUP2 MSTORE PUSH1 0x20 ADD DUP4 PUSH1 0x17 BYTE DUP2 MSTORE PUSH1 0x20 ADD DUP4 PUSH1 0x16 BYTE SWAP1 MSTORE SWAP5 SWAP4 POP POP POP POP JUMP JUMPDEST PUSH2 0x19EA PUSH2 0x3851 JUMP JUMPDEST PUSH1 0x0 PUSH2 0x19F9 DUP4 PUSH2 0xFFFF AND PUSH2 0x18AB JUMP JUMPDEST SWAP1 POP PUSH1 0x0 PUSH2 0x1A19 PUSH5 0x2540BE400 DUP4 PUSH1 0x40 ADD MLOAD PUSH2 0x2752 SWAP1 SWAP2 SWAP1 PUSH4 0xFFFFFFFF AND JUMP JUMPDEST SWAP1 POP PUSH1 0x0 PUSH2 0x1A27 DUP6 TIMESTAMP PUSH2 0x148A JUMP JUMPDEST POP PUSH1 0x40 DUP1 DUP6 ADD MLOAD SWAP1 DUP7 ADD MSTORE DUP1 MLOAD SWAP1 SWAP2 POP PUSH2 0x1A5C SWAP1 PUSH15 0xC097CE7BC90715B34B9F1000000000 SWAP1 PUSH2 0x1A56 SWAP1 DUP6 PUSH2 0x2752 JUMP JUMPDEST SWAP1 PUSH2 0x27A0 JUMP JUMPDEST PUSH1 0x20 DUP6 ADD MSTORE POP POP PUSH1 0x0 DUP3 MSTORE POP SWAP2 SWAP1 POP JUMP JUMPDEST PUSH2 0x1A75 PUSH2 0x3971 JUMP JUMPDEST PUSH1 0x0 PUSH2 0x1A81 DUP4 TIMESTAMP PUSH2 0x148A JUMP JUMPDEST POP SWAP1 POP PUSH2 0xCD8 DUP4 DUP3 PUSH2 0x27D1 JUMP JUMPDEST PUSH1 0x60 ADD MLOAD PUSH2 0x12C PUSH1 0x8 SWAP2 SWAP1 SWAP2 SHR PUSH1 0xFF AND MUL SWAP1 JUMP JUMPDEST PUSH2 0x1AAF DUP8 DUP8 DUP8 DUP7 DUP6 PUSH2 0x2814 JUMP JUMPDEST PUSH2 0x1AC8 DUP8 PUSH1 0xE0 ADD MLOAD DUP9 PUSH1 0xA0 ADD MLOAD DUP10 PUSH1 0xC0 ADD MLOAD DUP6 DUP9 PUSH2 0x28CF JUMP JUMPDEST PUSH1 0xC0 SWAP1 SWAP8 ADD SWAP7 SWAP1 SWAP7 MSTORE POP POP POP POP POP POP JUMP JUMPDEST PUSH1 0x0 DUP1 PUSH2 0x1AE4 PUSH2 0x295D JUMP JUMPDEST PUSH2 0xFFFF SWAP5 SWAP1 SWAP5 AND PUSH1 0x0 SWAP1 DUP2 MSTORE PUSH1 0x20 SWAP5 DUP6 MSTORE PUSH1 0x40 DUP1 DUP3 KECCAK256 SWAP5 DUP3 MSTORE SWAP4 SWAP1 SWAP5 MSTORE POP POP DUP2 KECCAK256 SLOAD PUSH1 0x1 PUSH1 0x1 PUSH1 0x50 SHL SUB AND SWAP1 SUB SWAP1 JUMP JUMPDEST PUSH1 0x0 DUP1 PUSH2 0xA5B PUSH1 0x24 PUSH2 0x2137 JUMP JUMPDEST PUSH2 0x1B29 PUSH2 0x38C3 JUMP JUMPDEST PUSH1 0x0 PUSH2 0x1B33 PUSH2 0x2071 JUMP JUMPDEST PUSH1 0x0 DUP5 DUP2 MSTORE PUSH1 0x20 DUP3 SWAP1 MSTORE PUSH1 0x40 DUP2 KECCAK256 SWAP2 SWAP3 POP DUP1 PUSH1 0x1 DUP7 EQ ISZERO PUSH2 0x1B60 JUMPI POP PUSH8 0xDE0B6B3A7640000 SWAP1 POP DUP1 PUSH2 0x1C23 JUMP JUMPDEST DUP3 SLOAD PUSH1 0x40 DUP1 MLOAD PUSH4 0x3FABE5A3 PUSH1 0xE2 SHL DUP2 MSTORE SWAP1 MLOAD PUSH1 0x1 PUSH1 0x1 PUSH1 0xA0 SHL SUB SWAP1 SWAP3 AND SWAP2 PUSH4 0xFEAF968C SWAP2 PUSH1 0x4 DUP1 DUP3 ADD SWAP3 PUSH1 0xA0 SWAP3 SWAP1 SWAP2 SWAP1 DUP3 SWAP1 SUB ADD DUP2 DUP7 DUP1 EXTCODESIZE ISZERO DUP1 ISZERO PUSH2 0x1BA4 JUMPI PUSH1 0x0 DUP1 REVERT JUMPDEST POP GAS STATICCALL ISZERO DUP1 ISZERO PUSH2 0x1BB8 JUMPI RETURNDATASIZE PUSH1 0x0 DUP1 RETURNDATACOPY RETURNDATASIZE PUSH1 0x0 REVERT JUMPDEST POP POP POP POP PUSH1 0x40 MLOAD RETURNDATASIZE PUSH1 0x1F NOT PUSH1 0x1F DUP3 ADD AND DUP3 ADD DUP1 PUSH1 0x40 MSTORE POP DUP2 ADD SWAP1 PUSH2 0x1BDC SWAP2 SWAP1 PUSH2 0x3D71 JUMP JUMPDEST POP SWAP2 SWAP4 POP POP PUSH1 0x0 DUP4 SGT SWAP2 POP PUSH2 0x1BF2 SWAP1 POP JUMPI PUSH1 0x0 DUP1 REVERT JUMPDEST DUP3 SLOAD PUSH1 0xFF PUSH1 0x1 PUSH1 0xA0 SHL DUP3 DIV DUP2 AND PUSH1 0xA EXP SWAP4 POP PUSH1 0x1 PUSH1 0xA8 SHL SWAP1 SWAP2 DIV AND ISZERO PUSH2 0x1C23 JUMPI PUSH2 0x1C20 DUP2 PUSH2 0x1A56 DUP5 DUP1 PUSH2 0x2752 JUMP JUMPDEST SWAP1 POP JUMPDEST DUP3 SLOAD PUSH1 0x1 PUSH1 0xB0 SHL SWAP1 DIV PUSH1 0xFF AND PUSH1 0x96 DUP2 SGT ISZERO PUSH2 0x1C43 JUMPI PUSH1 0x95 NOT ADD PUSH1 0xA MUL PUSH1 0x96 ADD JUMPDEST PUSH1 0x40 DUP1 MLOAD PUSH1 0xA0 DUP2 ADD DUP3 MSTORE SWAP4 DUP5 MSTORE PUSH1 0x20 DUP5 ADD SWAP3 SWAP1 SWAP3 MSTORE SWAP1 DUP3 ADD MSTORE SWAP1 SLOAD PUSH1 0xFF PUSH1 0x1 PUSH1 0xB8 SHL DUP3 DIV DUP2 AND PUSH1 0x60 DUP5 ADD MSTORE PUSH1 0x1 PUSH1 0xC0 SHL SWAP1 SWAP2 DIV AND PUSH1 0x80 DUP3 ADD MSTORE SWAP2 POP POP SWAP2 SWAP1 POP JUMP JUMPDEST PUSH1 0x0 DUP1 PUSH2 0x1C8F PUSH2 0x296A JUMP JUMPDEST PUSH1 0x1 PUSH1 0x1 PUSH1 0xA0 SHL SUB DUP6 AND PUSH1 0x0 SWAP1 DUP2 MSTORE PUSH1 0x20 SWAP2 DUP3 MSTORE PUSH1 0x40 DUP1 DUP3 KECCAK256 DUP7 DUP4 MSTORE SWAP1 SWAP3 MSTORE KECCAK256 SLOAD SWAP2 POP POP SWAP3 SWAP2 POP POP JUMP JUMPDEST PUSH1 0x0 DUP1 PUSH2 0x1CC4 PUSH2 0x2977 JUMP JUMPDEST PUSH1 0x1 PUSH1 0x1 PUSH1 0xA0 SHL SUB DUP7 AND PUSH1 0x0 SWAP1 DUP2 MSTORE PUSH1 0x20 SWAP2 DUP3 MSTORE PUSH1 0x40 DUP1 DUP3 KECCAK256 DUP8 DUP4 MSTORE DUP4 MSTORE DUP1 DUP3 KECCAK256 DUP7 DUP4 MSTORE SWAP1 SWAP3 MSTORE KECCAK256 SLOAD PUSH1 0xF SWAP1 DUP2 SIGNEXTEND SWAP1 SIGNEXTEND SWAP2 POP POP SWAP4 SWAP3 POP POP POP JUMP JUMPDEST PUSH1 0x60 DUP1 PUSH1 0x0 PUSH2 0x1D0B PUSH2 0x2984 JUMP JUMPDEST PUSH1 0x0 DUP7 DUP2 MSTORE PUSH1 0x20 DUP3 SWAP1 MSTORE PUSH1 0x40 SWAP1 KECCAK256 SWAP1 SWAP2 POP PUSH2 0x1D26 DUP2 DUP7 PUSH2 0x260E JUMP JUMPDEST SWAP1 SWAP8 SWAP1 SWAP7 POP SWAP5 POP POP POP POP POP JUMP JUMPDEST PUSH1 0x60 PUSH2 0x1D3F DUP4 DUP4 PUSH2 0x2991 JUMP JUMPDEST POP SWAP4 SWAP3 POP POP POP JUMP JUMPDEST PUSH1 0x60 PUSH1 0x0 PUSH2 0x1D59 DUP6 DUP6 PUSH2 0xFFFF AND PUSH2 0x1C84 JUMP JUMPDEST SWAP1 POP PUSH1 0x0 PUSH2 0x1D66 DUP3 PUSH2 0x29B2 JUMP JUMPDEST SWAP1 POP PUSH1 0x0 DUP2 PUSH8 0xFFFFFFFFFFFFFFFF DUP2 GT DUP1 ISZERO PUSH2 0x1D81 JUMPI PUSH1 0x0 DUP1 REVERT JUMPDEST POP PUSH1 0x40 MLOAD SWAP1 DUP1 DUP3 MSTORE DUP1 PUSH1 0x20 MUL PUSH1 0x20 ADD DUP3 ADD PUSH1 0x40 MSTORE DUP1 ISZERO PUSH2 0x1DBB JUMPI DUP2 PUSH1 0x20 ADD JUMPDEST PUSH2 0x1DA8 PUSH2 0x399D JUMP JUMPDEST DUP2 MSTORE PUSH1 0x20 ADD SWAP1 PUSH1 0x1 SWAP1 SUB SWAP1 DUP2 PUSH2 0x1DA0 JUMPI SWAP1 POP JUMPDEST POP SWAP1 POP PUSH1 0x0 SWAP2 POP PUSH1 0x0 PUSH2 0x1DCD DUP5 PUSH2 0x2A82 JUMP JUMPDEST SWAP1 POP JUMPDEST DUP1 ISZERO PUSH2 0x1E56 JUMPI PUSH1 0x0 PUSH2 0x1DE2 DUP8 DUP4 PUSH2 0x2AA7 JUMP JUMPDEST SWAP1 POP PUSH1 0x0 PUSH2 0x1DF5 DUP11 DUP11 PUSH2 0xFFFF AND DUP5 PUSH2 0x1CB9 JUMP JUMPDEST SWAP1 POP PUSH1 0x0 DUP5 DUP7 DUP2 MLOAD DUP2 LT PUSH2 0x1E05 JUMPI INVALID JUMPDEST PUSH1 0x20 SWAP1 DUP2 MUL SWAP2 SWAP1 SWAP2 ADD DUP2 ADD MLOAD PUSH2 0xFFFF DUP13 AND DUP2 MSTORE SWAP1 DUP2 ADD DUP5 SWAP1 MSTORE PUSH1 0x1 PUSH1 0x40 DUP3 ADD DUP2 SWAP1 MSTORE PUSH1 0x60 DUP3 ADD DUP5 SWAP1 MSTORE SWAP7 SWAP1 SWAP7 ADD SWAP6 SWAP1 POP PUSH2 0x1E41 DUP8 DUP6 PUSH1 0x0 PUSH2 0x2B5A JUMP JUMPDEST SWAP7 POP PUSH2 0x1E4C DUP8 PUSH2 0x2A82 JUMP JUMPDEST SWAP4 POP POP POP POP PUSH2 0x1DD0 JUMP JUMPDEST POP SWAP7 SWAP6 POP POP POP POP POP POP JUMP JUMPDEST PUSH2 0x1E69 PUSH2 0x38F2 JUMP JUMPDEST PUSH1 0x0 PUSH2 0x1E73 PUSH2 0x2BA5 JUMP JUMPDEST PUSH1 0x1 PUSH1 0x1 PUSH1 0xA0 SHL SUB DUP5 AND PUSH1 0x0 SWAP1 DUP2 MSTORE PUSH1 0x20 SWAP2 DUP3 MSTORE PUSH1 0x40 SWAP1 DUP2 SWAP1 KECCAK256 DUP2 MLOAD PUSH1 0xC0 DUP2 ADD DUP4 MSTORE SWAP1 SLOAD PUSH5 0xFFFFFFFFFF DUP2 AND DUP3 MSTORE PUSH1 0x1 PUSH1 0x1 PUSH1 0xF8 SHL SUB NOT PUSH6 0x10000000000 DUP3 DIV PUSH1 0xF8 SHL AND SWAP4 DUP3 ADD SWAP4 SWAP1 SWAP4 MSTORE PUSH1 0xFF PUSH7 0x1000000000000 DUP5 DIV DUP2 AND SWAP3 DUP3 ADD SWAP3 SWAP1 SWAP3 MSTORE PUSH2 0xFFFF PUSH1 0x1 PUSH1 0x38 SHL DUP5 DIV AND PUSH1 0x60 DUP3 ADD MSTORE PUSH1 0x1 PUSH1 0x1 PUSH1 0x70 SHL SUB NOT PUSH10 0x1000000000000000000 DUP5 DIV PUSH1 0x70 SHL AND PUSH1 0x80 DUP3 ADD MSTORE PUSH1 0x1 PUSH1 0xD8 SHL SWAP1 SWAP3 DIV AND ISZERO ISZERO PUSH1 0xA0 DUP3 ADD MSTORE SWAP2 POP POP SWAP2 SWAP1 POP JUMP JUMPDEST PUSH1 0x60 ADD MLOAD PUSH2 0xFFFF AND ISZERO ISZERO SWAP1 JUMP JUMPDEST PUSH2 0x1F2F PUSH2 0x371C JUMP JUMPDEST PUSH1 0x0 PUSH2 0x1F3B DUP6 DUP6 PUSH2 0x2BB2 JUMP JUMPDEST SWAP1 SWAP3 POP SWAP1 POP DUP1 PUSH2 0x1D3F JUMPI PUSH2 0x1F4F DUP6 DUP5 PUSH2 0x148A JUMP JUMPDEST POP SWAP6 SWAP5 POP POP POP POP POP JUMP JUMPDEST PUSH1 0x0 PUSH2 0x1467 PUSH2 0x2C45 JUMP JUMPDEST PUSH1 0x0 DUP1 PUSH2 0x1F6E PUSH2 0x1FF6 JUMP JUMPDEST PUSH1 0x1 PUSH1 0x1 PUSH1 0xA0 SHL SUB DUP6 AND PUSH1 0x0 SWAP1 DUP2 MSTORE PUSH1 0x20 DUP3 DUP2 MSTORE PUSH1 0x40 DUP1 DUP4 KECCAK256 PUSH2 0xFFFF DUP9 AND DUP5 MSTORE SWAP1 SWAP2 MSTORE DUP2 KECCAK256 DUP1 SLOAD PUSH1 0x1 PUSH1 0xA8 SHL SWAP1 DIV PUSH1 0xA SWAP1 DUP2 SIGNEXTEND SWAP1 SIGNEXTEND SWAP5 POP SWAP2 SWAP3 POP DUP4 SLT ISZERO PUSH2 0x8B2 JUMPI PUSH1 0x0 DUP1 REVERT JUMPDEST PUSH1 0x30 DUP2 SWAP1 SHR PUSH5 0xFFFFFFFFFF PUSH1 0x8 DUP4 SWAP1 SHR AND PUSH1 0xFF DUP4 AND PUSH1 0x0 DUP1 PUSH1 0x1 DUP4 EQ ISZERO PUSH2 0x1FE6 JUMPI POP PUSH1 0x1 PUSH1 0xFF PUSH1 0x40 DUP8 SWAP1 SHR AND EQ PUSH2 0x109A JUMP JUMPDEST PUSH1 0x40 DUP7 SWAP1 SHR SWAP2 POP SWAP2 SWAP4 SWAP6 SWAP1 SWAP3 SWAP5 POP JUMP JUMPDEST PUSH1 0x0 DUP1 PUSH2 0xA5B PUSH1 0x6 PUSH2 0x2137 JUMP JUMPDEST PUSH1 0x0 PUSH1 0x1 DUP5 EQ ISZERO PUSH2 0x202F JUMPI PUSH2 0x2028 DUP7 DUP7 DUP5 PUSH2 0x201F JUMPI PUSH1 0x1 PUSH2 0x2023 JUMP JUMPDEST PUSH1 0x0 NOT JUMPDEST PUSH2 0x2C52 JUMP JUMPDEST SWAP1 POP PUSH2 0x1131 JUMP JUMPDEST PUSH1 0xB DUP5 EQ DUP1 PUSH2 0x203E JUMPI POP PUSH1 0x9 DUP5 EQ JUMPDEST DUP1 PUSH2 0x2049 JUMPI POP PUSH1 0xA DUP5 EQ JUMPDEST ISZERO PUSH2 0x205A JUMPI PUSH2 0x2028 DUP4 DUP8 DUP8 DUP8 PUSH2 0x2C9B JUMP JUMPDEST PUSH1 0xC DUP5 EQ ISZERO PUSH2 0x206C JUMPI PUSH2 0x2028 DUP7 PUSH2 0x2CCE JUMP JUMPDEST PUSH1 0x0 DUP1 REVERT JUMPDEST PUSH1 0x0 DUP1 PUSH2 0xA5B PUSH1 0x10 PUSH2 0x2137 JUMP JUMPDEST PUSH1 0x0 DUP1 PUSH2 0xA5B PUSH1 0xF PUSH2 0x2137 JUMP JUMPDEST PUSH1 0x0 DUP1 PUSH2 0x2096 PUSH2 0x2370 JUMP JUMPDEST PUSH1 0x1 PUSH1 0x1 PUSH1 0xA0 SHL SUB DUP5 AND PUSH1 0x0 SWAP1 DUP2 MSTORE PUSH1 0x20 DUP3 SWAP1 MSTORE PUSH1 0x40 SWAP1 KECCAK256 DUP1 SLOAD SWAP2 SWAP3 POP SWAP1 PUSH1 0x1 PUSH1 0xF8 SHL SWAP1 DIV PUSH1 0xFF AND ISZERO PUSH2 0x20F2 JUMPI PUSH2 0x20CB PUSH2 0x2CE1 JUMP JUMPDEST PUSH1 0x1 PUSH1 0x1 PUSH1 0xA0 SHL SUB DUP1 DUP7 AND PUSH1 0x0 SWAP1 DUP2 MSTORE PUSH1 0x20 SWAP3 SWAP1 SWAP3 MSTORE PUSH1 0x40 SWAP1 SWAP2 KECCAK256 SLOAD AND SWAP3 POP PUSH2 0x8F0 SWAP2 POP POP JUMP JUMPDEST PUSH1 0x0 SWAP3 POP POP POP PUSH2 0x8F0 JUMP JUMPDEST POP POP SWAP2 SWAP1 POP JUMP JUMPDEST PUSH2 0x210C PUSH2 0x37B8 JUMP JUMPDEST PUSH1 0x0 PUSH2 0x2116 PUSH2 0x25F4 JUMP JUMPDEST PUSH2 0xFFFF DUP5 AND PUSH1 0x0 SWAP1 DUP2 MSTORE PUSH1 0x20 SWAP2 SWAP1 SWAP2 MSTORE PUSH1 0x40 DUP2 KECCAK256 SLOAD SWAP2 POP PUSH2 0xCD8 SWAP1 DUP3 PUSH2 0x2CEE JUMP JUMPDEST PUSH1 0x0 PUSH3 0xF4240 DUP3 PUSH1 0x26 DUP2 GT ISZERO PUSH2 0x2149 JUMPI INVALID JUMPDEST ADD SWAP3 SWAP2 POP POP JUMP JUMPDEST PUSH1 0x0 DUP1 PUSH2 0xA5B PUSH1 0x21 PUSH2 0x2137 JUMP JUMPDEST PUSH1 0x0 DUP1 PUSH2 0x2169 DUP4 PUSH2 0x18BE JUMP JUMPDEST PUSH1 0x1 PUSH1 0x1 PUSH1 0xA0 SHL SUB AND PUSH4 0xA77C05B8 PUSH1 0x40 MLOAD DUP2 PUSH4 0xFFFFFFFF AND PUSH1 0xE0 SHL DUP2 MSTORE PUSH1 0x4 ADD PUSH1 0x40 DUP1 MLOAD DUP1 DUP4 SUB DUP2 DUP7 DUP1 EXTCODESIZE ISZERO DUP1 ISZERO PUSH2 0x21A0 JUMPI PUSH1 0x0 DUP1 REVERT JUMPDEST POP GAS STATICCALL ISZERO DUP1 ISZERO PUSH2 0x21B4 JUMPI RETURNDATASIZE PUSH1 0x0 DUP1 RETURNDATACOPY RETURNDATASIZE PUSH1 0x0 REVERT JUMPDEST POP POP POP POP PUSH1 0x40 MLOAD RETURNDATASIZE PUSH1 0x1F NOT PUSH1 0x1F DUP3 ADD AND DUP3 ADD DUP1 PUSH1 0x40 MSTORE POP DUP2 ADD SWAP1 PUSH2 0xE06 SWAP2 SWAP1 PUSH2 0x3D4E JUMP JUMPDEST PUSH2 0x21E0 PUSH2 0x373D JUMP JUMPDEST PUSH1 0x0 DUP1 PUSH1 0x0 PUSH2 0x21F0 DUP9 DUP7 DUP10 PUSH2 0x2E0D JUMP JUMPDEST PUSH1 0xC0 DUP12 ADD SWAP3 SWAP1 SWAP3 MSTORE PUSH1 0xE0 DUP11 ADD SWAP3 SWAP1 SWAP3 MSTORE PUSH1 0x20 DUP10 ADD MLOAD SWAP2 SWAP4 POP SWAP2 POP PUSH2 0x2214 SWAP1 DUP4 PUSH2 0x2F17 JUMP JUMPDEST PUSH1 0x20 DUP9 ADD MSTORE PUSH1 0x80 DUP8 ADD MLOAD PUSH1 0x0 SWAP1 ISZERO PUSH2 0x2242 JUMPI PUSH1 0x80 DUP9 ADD MLOAD PUSH2 0x223F SWAP1 PUSH2 0x2239 DUP10 DUP3 PUSH2 0x2F29 JUMP JUMPDEST SWAP1 PUSH2 0x2F3E JUMP JUMPDEST SWAP1 POP JUMPDEST PUSH2 0x2262 PUSH2 0x2257 PUSH8 0xDE0B6B3A7640000 DUP4 PUSH2 0x2F17 JUMP JUMPDEST PUSH1 0xA0 DUP11 ADD MLOAD SWAP1 PUSH2 0x2F5B JUMP JUMPDEST PUSH1 0xA0 DUP10 ADD MSTORE POP PUSH1 0x80 DUP8 ADD DUP7 SWAP1 MSTORE PUSH1 0x0 PUSH2 0x2279 PUSH2 0x1796 JUMP JUMPDEST PUSH2 0xFFFF DUP11 AND PUSH1 0x0 SWAP1 DUP2 MSTORE PUSH1 0x20 SWAP2 SWAP1 SWAP2 MSTORE PUSH1 0x40 SWAP1 KECCAK256 SLOAD DUP9 MLOAD PUSH4 0xFFFFFFFF PUSH1 0x1 PUSH1 0xA0 SHL SWAP1 SWAP3 DIV DUP3 AND SWAP3 POP PUSH2 0x22C4 SWAP2 PUSH2 0x22B3 SWAP1 DUP6 SWAP1 DUP6 SWAP1 PUSH2 0x2F17 AND JUMP JUMPDEST DUP11 PUSH1 0x60 ADD MLOAD DUP12 PUSH2 0x100 ADD MLOAD DUP11 PUSH2 0x28CF JUMP JUMPDEST PUSH1 0x60 DUP10 ADD MSTORE POP POP SWAP3 DUP6 MSTORE POP SWAP3 SWAP5 SWAP1 SWAP4 POP SWAP2 POP POP JUMP JUMPDEST PUSH1 0x0 DUP3 PUSH2 0x22E8 JUMPI POP PUSH1 0x0 PUSH2 0xA5B JUMP JUMPDEST DUP3 DUP3 MUL DUP3 DUP5 DUP3 DUP2 PUSH2 0x22F5 JUMPI INVALID JUMPDEST DIV EQ PUSH2 0xCD8 JUMPI PUSH1 0x0 DUP1 REVERT JUMPDEST PUSH1 0x0 PUSH1 0x1 PUSH1 0x1 PUSH1 0xFF SHL SUB DUP3 GT ISZERO PUSH2 0x2316 JUMPI PUSH1 0x0 DUP1 REVERT JUMPDEST POP SWAP1 JUMP JUMPDEST PUSH1 0x0 DUP1 PUSH2 0xA5B PUSH1 0x1D PUSH2 0x2137 JUMP JUMPDEST PUSH1 0x8 DUP2 SWAP1 SHR PUSH1 0xFF SWAP1 SWAP2 AND SHL SWAP1 JUMP JUMPDEST PUSH1 0x0 PUSH2 0xCD8 PUSH15 0xC097CE7BC90715B34B9F1000000000 PUSH2 0x1A56 DUP6 PUSH1 0x0 ADD MLOAD DUP6 PUSH2 0x2752 SWAP1 SWAP2 SWAP1 PUSH4 0xFFFFFFFF AND JUMP JUMPDEST PUSH1 0x0 DUP1 DUP3 SLT ISZERO PUSH2 0x2316 JUMPI PUSH1 0x0 DUP1 REVERT JUMPDEST PUSH1 0x0 DUP1 PUSH2 0xA5B PUSH1 0x2 PUSH2 0x2137 JUMP JUMPDEST PUSH1 0x0 DUP1 PUSH2 0xA5B PUSH1 0x11 PUSH2 0x2137 JUMP JUMPDEST PUSH1 0x0 DUP1 PUSH1 0x0 DUP1 PUSH1 0x0 PUSH2 0x239A PUSH2 0x1FF6 JUMP JUMPDEST PUSH1 0x1 PUSH1 0x1 PUSH1 0xA0 SHL SUB DUP10 AND PUSH1 0x0 SWAP1 DUP2 MSTORE PUSH1 0x20 DUP3 DUP2 MSTORE PUSH1 0x40 DUP1 DUP4 KECCAK256 PUSH2 0xFFFF DUP13 AND DUP5 MSTORE SWAP1 SWAP2 MSTORE SWAP1 KECCAK256 DUP1 SLOAD PUSH1 0x1 PUSH1 0x1 PUSH1 0x50 SHL SUB DUP2 AND SWAP7 POP PUSH1 0x1 PUSH1 0x50 SHL SWAP1 DIV PUSH4 0xFFFFFFFF AND SWAP5 POP SWAP1 SWAP2 POP DUP4 ISZERO PUSH2 0x2407 JUMPI DUP1 SLOAD PUSH2 0x2400 SWAP1 PUSH1 0x1 PUSH1 0x70 SHL SWAP1 DIV PUSH7 0xFFFFFFFFFFFFFF AND PUSH2 0x2327 JUMP JUMPDEST SWAP3 POP PUSH2 0x241C JUMP JUMPDEST DUP1 SLOAD PUSH1 0x1 PUSH1 0x70 SHL SWAP1 DIV PUSH7 0xFFFFFFFFFFFFFF AND SWAP3 POP JUMPDEST DUP1 SLOAD PUSH2 0x2437 SWAP1 DUP9 SWAP1 PUSH1 0x1 PUSH1 0xA8 SHL SWAP1 DIV PUSH1 0xA SWAP1 DUP2 SIGNEXTEND SWAP1 SIGNEXTEND PUSH2 0x2F78 JUMP JUMPDEST SWAP6 POP POP POP SWAP4 POP SWAP4 POP SWAP4 POP SWAP4 JUMP JUMPDEST PUSH1 0x0 DUP1 PUSH2 0xA5B PUSH1 0x3 PUSH2 0x2137 JUMP JUMPDEST DUP3 PUSH1 0x1 GT ISZERO DUP1 ISZERO PUSH2 0x2466 JUMPI POP DUP5 PUSH1 0x20 ADD MLOAD DUP4 GT ISZERO JUMPDEST PUSH2 0x2482 JUMPI PUSH1 0x40 MLOAD PUSH3 0x461BCD PUSH1 0xE5 SHL DUP2 MSTORE PUSH1 0x4 ADD PUSH2 0x2EE SWAP1 PUSH2 0x42BB JUMP JUMPDEST PUSH1 0x0 PUSH2 0x249F PUSH2 0x2490 DUP6 PUSH2 0x2FA6 JUMP JUMPDEST PUSH2 0x2499 DUP5 PUSH2 0x304A JUMP JUMPDEST SWAP1 PUSH2 0x2F17 JUMP JUMPDEST SWAP1 POP PUSH2 0x24C4 DUP7 PUSH1 0x0 ADD MLOAD PUSH2 0xFFFF AND DUP3 DUP5 DUP7 PUSH2 0x24B9 DUP12 PUSH2 0x1A8E JUMP JUMPDEST DUP11 SWAP5 SWAP4 SWAP3 SWAP2 SWAP1 PUSH2 0x306B JUMP JUMPDEST POP POP POP POP POP POP JUMP JUMPDEST PUSH2 0x24D4 PUSH2 0x3789 JUMP JUMPDEST PUSH1 0x0 PUSH2 0x24DE PUSH2 0x3095 JUMP JUMPDEST PUSH1 0x0 DUP6 DUP2 MSTORE PUSH1 0x20 DUP3 DUP2 MSTORE PUSH1 0x40 DUP1 DUP4 KECCAK256 DUP8 ISZERO ISZERO DUP5 MSTORE DUP3 MSTORE SWAP2 DUP3 SWAP1 KECCAK256 DUP3 MLOAD PUSH1 0xA0 DUP2 ADD DUP5 MSTORE DUP2 SLOAD PUSH1 0x1 PUSH1 0x1 PUSH1 0xA0 SHL SUB DUP2 AND DUP3 MSTORE PUSH1 0xFF PUSH1 0x1 PUSH1 0xA0 SHL DUP3 DIV DUP2 AND ISZERO ISZERO SWAP5 DUP4 ADD SWAP5 SWAP1 SWAP5 MSTORE PUSH1 0x1 PUSH1 0xB0 SHL DUP2 DIV DUP5 AND PUSH1 0xA EXP SWAP5 DUP3 ADD SWAP5 SWAP1 SWAP5 MSTORE SWAP4 SWAP5 POP SWAP3 SWAP2 PUSH1 0x60 DUP4 ADD SWAP2 PUSH1 0x1 PUSH1 0xA8 SHL SWAP1 SWAP2 DIV AND PUSH1 0x5 DUP2 GT ISZERO PUSH2 0x2553 JUMPI INVALID JUMPDEST DUP2 MSTORE PUSH1 0x0 PUSH1 0x20 SWAP1 SWAP2 ADD MSTORE SWAP6 SWAP5 POP POP POP POP POP JUMP JUMPDEST PUSH1 0x0 DUP1 PUSH2 0xA5B PUSH1 0x1F PUSH2 0x2137 JUMP JUMPDEST PUSH1 0x0 DUP1 PUSH2 0x257E PUSH2 0x30A2 JUMP JUMPDEST PUSH1 0x0 SWAP4 DUP5 MSTORE PUSH1 0x20 MSTORE POP POP PUSH1 0x40 SWAP1 KECCAK256 SLOAD SWAP1 JUMP JUMPDEST PUSH1 0x0 DUP1 PUSH2 0xA5B PUSH1 0x1C PUSH2 0x2137 JUMP JUMPDEST PUSH2 0x25A5 PUSH2 0x37B8 JUMP JUMPDEST PUSH1 0x0 PUSH2 0x25B0 DUP5 PUSH2 0x30AF JUMP JUMPDEST PUSH2 0xFFFF DUP7 AND PUSH1 0x0 SWAP1 DUP2 MSTORE PUSH1 0x20 DUP6 SWAP1 MSTORE PUSH1 0x40 DUP2 KECCAK256 SWAP2 SWAP3 POP SWAP1 PUSH1 0x4 DUP7 LT PUSH2 0x25D6 JUMPI PUSH1 0x1 PUSH2 0x25D9 JUMP JUMPDEST PUSH1 0x0 JUMPDEST PUSH1 0xFF AND PUSH1 0x2 DUP2 LT PUSH2 0x25E6 JUMPI INVALID JUMPDEST ADD SLOAD SWAP1 POP PUSH2 0x10F7 DUP3 DUP3 PUSH2 0x2CEE JUMP JUMPDEST PUSH1 0x0 DUP1 PUSH2 0xA5B PUSH1 0x1B PUSH2 0x2137 JUMP JUMPDEST PUSH1 0x0 DUP1 PUSH2 0xA5B PUSH1 0x5 PUSH2 0x2137 JUMP JUMPDEST PUSH1 0x60 DUP1 PUSH1 0x0 DUP1 DUP5 PUSH8 0xFFFFFFFFFFFFFFFF DUP2 GT DUP1 ISZERO PUSH2 0x262B JUMPI PUSH1 0x0 DUP1 REVERT JUMPDEST POP PUSH1 0x40 MLOAD SWAP1 DUP1 DUP3 MSTORE DUP1 PUSH1 0x20 MUL PUSH1 0x20 ADD DUP3 ADD PUSH1 0x40 MSTORE DUP1 ISZERO PUSH2 0x2655 JUMPI DUP2 PUSH1 0x20 ADD PUSH1 0x20 DUP3 MUL DUP1 CALLDATASIZE DUP4 CALLDATACOPY ADD SWAP1 POP JUMPDEST POP SWAP1 POP PUSH1 0x0 DUP6 PUSH8 0xFFFFFFFFFFFFFFFF DUP2 GT DUP1 ISZERO PUSH2 0x2671 JUMPI PUSH1 0x0 DUP1 REVERT JUMPDEST POP PUSH1 0x40 MLOAD SWAP1 DUP1 DUP3 MSTORE DUP1 PUSH1 0x20 MUL PUSH1 0x20 ADD DUP3 ADD PUSH1 0x40 MSTORE DUP1 ISZERO PUSH2 0x269B JUMPI DUP2 PUSH1 0x20 ADD PUSH1 0x20 DUP3 MUL DUP1 CALLDATASIZE DUP4 CALLDATACOPY ADD SWAP1 POP JUMPDEST POP SWAP1 POP PUSH1 0x0 JUMPDEST DUP7 DUP2 LT ISZERO PUSH2 0x2745 JUMPI DUP8 DUP5 PUSH1 0xE DUP2 LT PUSH2 0x26B5 JUMPI INVALID JUMPDEST PUSH1 0x8 SWAP2 DUP3 DUP3 DIV ADD SWAP2 SWAP1 MOD PUSH1 0x4 MUL SWAP1 SLOAD SWAP1 PUSH2 0x100 EXP SWAP1 DIV PUSH4 0xFFFFFFFF AND PUSH4 0xFFFFFFFF AND DUP4 DUP3 DUP2 MLOAD DUP2 LT PUSH2 0x26E3 JUMPI INVALID JUMPDEST PUSH1 0x20 SWAP1 DUP2 MUL SWAP2 SWAP1 SWAP2 ADD ADD MSTORE PUSH1 0x1 SWAP1 SWAP4 ADD SWAP3 DUP8 DUP5 PUSH1 0xE DUP2 LT PUSH2 0x2700 JUMPI INVALID JUMPDEST PUSH1 0x8 SWAP2 DUP3 DUP3 DIV ADD SWAP2 SWAP1 MOD PUSH1 0x4 MUL SWAP1 SLOAD SWAP1 PUSH2 0x100 EXP SWAP1 DIV PUSH4 0xFFFFFFFF AND PUSH4 0xFFFFFFFF AND DUP3 DUP3 DUP2 MLOAD DUP2 LT PUSH2 0x272E JUMPI INVALID JUMPDEST PUSH1 0x20 SWAP1 DUP2 MUL SWAP2 SWAP1 SWAP2 ADD ADD MSTORE PUSH1 0x1 SWAP4 DUP5 ADD SWAP4 ADD PUSH2 0x26A1 JUMP JUMPDEST POP SWAP1 SWAP7 SWAP1 SWAP6 POP SWAP4 POP POP POP POP JUMP JUMPDEST DUP2 DUP2 MUL PUSH1 0x0 NOT DUP4 EQ ISZERO PUSH2 0x2782 JUMPI DUP2 ISZERO DUP1 PUSH2 0x2774 JUMPI POP DUP3 DUP3 DUP3 DUP2 PUSH2 0x2771 JUMPI INVALID JUMPDEST SDIV EQ JUMPDEST PUSH2 0x277D JUMPI PUSH1 0x0 DUP1 REVERT JUMPDEST PUSH2 0xA5B JUMP JUMPDEST DUP3 ISZERO DUP1 PUSH2 0x2797 JUMPI POP DUP2 DUP4 DUP3 DUP2 PUSH2 0x2794 JUMPI INVALID JUMPDEST SDIV EQ JUMPDEST PUSH2 0xA5B JUMPI PUSH1 0x0 DUP1 REVERT JUMPDEST PUSH1 0x0 DUP2 PUSH1 0x0 NOT EQ DUP1 ISZERO PUSH2 0x27B6 JUMPI POP PUSH1 0x1 PUSH1 0xFF SHL DUP4 EQ JUMPDEST ISZERO PUSH2 0x27C0 JUMPI PUSH1 0x0 DUP1 REVERT JUMPDEST DUP2 DUP4 DUP2 PUSH2 0x27C9 JUMPI INVALID JUMPDEST SDIV SWAP4 SWAP3 POP POP POP JUMP JUMPDEST PUSH2 0x27D9 PUSH2 0x3971 JUMP JUMPDEST PUSH1 0x0 PUSH2 0x27E8 DUP5 PUSH2 0xFFFF AND PUSH2 0x2573 JUMP JUMPDEST PUSH1 0x40 DUP1 MLOAD PUSH1 0x80 DUP2 ADD DUP3 MSTORE PUSH2 0xFFFF SWAP7 SWAP1 SWAP7 AND DUP7 MSTORE PUSH1 0xFF DUP3 AND PUSH1 0x20 DUP8 ADD MSTORE DUP6 ADD SWAP4 SWAP1 SWAP4 MSTORE POP POP PUSH1 0x60 DUP3 ADD MSTORE SWAP1 JUMP JUMPDEST PUSH1 0x0 PUSH2 0x281E PUSH2 0x30E8 JUMP JUMPDEST PUSH1 0x0 DUP7 DUP2 MSTORE PUSH1 0x20 DUP3 DUP2 MSTORE PUSH1 0x40 DUP1 DUP4 KECCAK256 DUP9 DUP5 MSTORE DUP3 MSTORE DUP1 DUP4 KECCAK256 DUP7 DUP5 MSTORE DUP3 MSTORE SWAP2 DUP3 SWAP1 KECCAK256 DUP1 DUP11 MSTORE SWAP1 DUP10 ADD DUP8 SWAP1 MSTORE DUP1 SLOAD PUSH1 0x1 PUSH1 0x1 PUSH1 0x50 SHL SUB DUP1 DUP3 AND SWAP4 DUP12 ADD SWAP4 SWAP1 SWAP4 MSTORE PUSH1 0x1 PUSH1 0x50 SHL DUP2 DIV SWAP1 SWAP3 AND PUSH1 0x60 DUP11 ADD MSTORE PUSH4 0xFFFFFFFF PUSH1 0x1 PUSH1 0xA0 SHL DUP4 DIV DUP2 AND PUSH1 0xA0 DUP12 ADD MSTORE PUSH1 0x1 PUSH1 0xC0 SHL DUP4 DIV DUP2 AND PUSH1 0xC0 DUP12 ADD MSTORE PUSH1 0x1 PUSH1 0xE0 SHL SWAP1 SWAP3 DIV SWAP1 SWAP2 AND PUSH1 0xE0 DUP10 ADD MSTORE SWAP1 SWAP2 POP DUP1 DUP5 ISZERO PUSH2 0x28BD JUMPI PUSH1 0x1 DUP3 ADD SLOAD PUSH1 0x1 PUSH1 0x1 PUSH1 0x50 SHL SUB AND PUSH1 0x80 DUP10 ADD MSTORE PUSH2 0x28C5 JUMP JUMPDEST PUSH1 0x0 PUSH1 0x80 DUP10 ADD MSTORE JUMPDEST POP POP POP POP POP POP POP POP JUMP JUMPDEST PUSH1 0x0 DUP1 DUP4 GT PUSH2 0x28DD JUMPI PUSH1 0x0 DUP1 REVERT JUMPDEST DUP2 DUP7 GT ISZERO PUSH2 0x28EC JUMPI POP DUP4 PUSH2 0x1131 JUMP JUMPDEST PUSH1 0x0 PUSH2 0x28F8 DUP4 DUP9 PUSH2 0x2F29 JUMP JUMPDEST SWAP1 POP DUP4 DUP2 GT ISZERO PUSH2 0x290B JUMPI DUP6 SWAP2 POP POP PUSH2 0x1131 JUMP JUMPDEST PUSH1 0x0 PUSH2 0x2917 DUP3 DUP7 PUSH2 0x30F5 JUMP JUMPDEST SWAP1 POP PUSH1 0x0 PUSH2 0x2929 PUSH4 0x3B9ACA00 DUP4 PUSH2 0x2F29 JUMP JUMPDEST SWAP1 POP PUSH2 0x2950 PUSH4 0x3B9ACA00 PUSH2 0x294A PUSH2 0x2940 DUP11 DUP6 PUSH2 0x22D9 JUMP JUMPDEST PUSH2 0x2499 DUP13 DUP8 PUSH2 0x22D9 JUMP JUMPDEST SWAP1 PUSH2 0x3108 JUMP JUMPDEST SWAP10 SWAP9 POP POP POP POP POP POP POP POP POP JUMP JUMPDEST PUSH1 0x0 DUP1 PUSH2 0xA5B PUSH1 0x20 PUSH2 0x2137 JUMP JUMPDEST PUSH1 0x0 DUP1 PUSH2 0xA5B PUSH1 0xB PUSH2 0x2137 JUMP JUMPDEST PUSH1 0x0 DUP1 PUSH2 0xA5B PUSH1 0xC PUSH2 0x2137 JUMP JUMPDEST PUSH1 0x0 DUP1 PUSH2 0xA5B PUSH1 0x4 PUSH2 0x2137 JUMP JUMPDEST PUSH1 0x60 DUP1 PUSH2 0x299E DUP5 DUP5 PUSH2 0x3127 JUMP JUMPDEST SWAP2 POP PUSH2 0x29A9 DUP3 PUSH2 0x323F JUMP JUMPDEST SWAP1 POP SWAP3 POP SWAP3 SWAP1 POP JUMP JUMPDEST PUSH1 0x1 DUP2 SWAP1 SHR PUSH32 0x5555555555555555555555555555555555555555555555555555555555555555 SWAP1 DUP2 AND SWAP2 AND ADD PUSH1 0x2 DUP2 SWAP1 SHR PUSH32 0x3333333333333333333333333333333333333333333333333333333333333333 SWAP1 DUP2 AND SWAP2 AND ADD PUSH1 0x4 DUP2 SWAP1 SHR PUSH32 0x707070707070707070707070707070707070707070707070707070707070707 SWAP2 SWAP1 SWAP2 AND ADD PUSH1 0x8 DUP2 SWAP1 SHR PUSH31 0xF000F000F000F000F000F000F000F000F000F000F000F000F000F000F000F SWAP1 DUP2 AND SWAP2 AND ADD PUSH1 0x10 DUP2 SWAP1 SHR ADD PUSH1 0x20 DUP2 SWAP1 SHR ADD PUSH1 0x40 DUP2 SWAP1 SHR ADD PUSH1 0x80 DUP2 SWAP1 SHR PUSH1 0xFF SWAP1 DUP2 AND SWAP2 AND ADD SWAP1 JUMP JUMPDEST PUSH1 0x0 DUP2 PUSH2 0x2A91 JUMPI POP PUSH1 0x0 PUSH2 0x8F0 JUMP JUMPDEST PUSH2 0x2A9A DUP3 PUSH2 0x33F9 JUMP JUMPDEST PUSH1 0xFF SUB PUSH1 0x1 ADD SWAP1 POP SWAP2 SWAP1 POP JUMP JUMPDEST PUSH1 0x0 DUP2 PUSH2 0x2AB3 JUMPI PUSH1 0x0 DUP1 REVERT JUMPDEST PUSH2 0x100 DUP3 GT ISZERO PUSH2 0x2AC2 JUMPI PUSH1 0x0 DUP1 REVERT JUMPDEST PUSH1 0x0 PUSH2 0x2ACD DUP5 PUSH2 0x3492 JUMP JUMPDEST SWAP1 POP PUSH1 0x0 PUSH1 0x5A DUP5 GT PUSH2 0x2AE8 JUMPI POP PUSH3 0x15180 DUP4 MUL ADD SWAP1 POP PUSH2 0xA5B JUMP JUMPDEST PUSH1 0x87 DUP5 GT PUSH2 0x2B10 JUMPI POP PUSH1 0x59 NOT DUP4 ADD PUSH3 0x7E900 SWAP1 DUP2 MUL SWAP1 DUP3 MOD SWAP1 SWAP2 SUB ADD PUSH3 0x76A700 ADD SWAP1 POP PUSH2 0xA5B JUMP JUMPDEST PUSH1 0xC3 DUP5 GT PUSH2 0x2B39 JUMPI POP PUSH1 0x86 NOT DUP4 ADD PUSH3 0x278D00 SWAP1 DUP2 MUL SWAP1 DUP3 MOD SWAP1 SWAP2 SUB ADD PUSH4 0x1DA9C00 ADD SWAP1 POP PUSH2 0xA5B JUMP JUMPDEST POP PUSH1 0xC2 NOT DUP4 ADD PUSH3 0x76A700 SWAP1 DUP2 MUL SWAP1 DUP3 MOD SWAP1 SWAP2 SUB ADD PUSH4 0xB1FA800 ADD SWAP1 POP PUSH2 0xA5B JUMP JUMPDEST PUSH1 0x0 PUSH1 0x1 DUP4 LT ISZERO DUP1 ISZERO PUSH2 0x2B6F JUMPI POP PUSH2 0x100 DUP4 GT ISZERO JUMPDEST PUSH2 0x2B78 JUMPI PUSH1 0x0 DUP1 REVERT JUMPDEST DUP2 ISZERO PUSH2 0x2B91 JUMPI POP PUSH1 0x1 PUSH1 0xFF SHL PUSH1 0x0 NOT DUP4 ADD SHR DUP4 OR PUSH2 0xCD8 JUMP JUMPDEST POP PUSH1 0x1 PUSH1 0xFF SHL PUSH1 0x0 NOT DUP4 ADD SHR NOT DUP4 AND PUSH2 0xCD8 JUMP JUMPDEST PUSH1 0x0 DUP1 PUSH2 0xA5B PUSH1 0x1 PUSH2 0x2137 JUMP JUMPDEST PUSH2 0x2BBA PUSH2 0x371C JUMP JUMPDEST PUSH1 0x0 DUP1 PUSH2 0x2BC5 PUSH2 0x34AE JUMP JUMPDEST PUSH2 0xFFFF DUP7 AND PUSH1 0x0 SWAP1 DUP2 MSTORE PUSH1 0x20 DUP3 DUP2 MSTORE PUSH1 0x40 DUP1 DUP4 KECCAK256 DUP9 DUP5 MSTORE SWAP1 SWAP2 MSTORE SWAP1 KECCAK256 DUP1 SLOAD PUSH1 0x1 PUSH1 0xF0 SHL SWAP1 DIV PUSH1 0xFF AND SWAP4 POP SWAP1 SWAP2 POP DUP3 ISZERO PUSH2 0x2C3C JUMPI DUP1 SLOAD PUSH1 0x1 PUSH1 0x1 PUSH1 0x50 SHL SUB PUSH1 0x1 PUSH1 0xA0 SHL DUP3 DIV DUP2 AND SWAP2 PUSH2 0x2C17 SWAP2 AND DUP3 PUSH2 0x22D9 JUMP JUMPDEST DUP6 MSTORE DUP2 SLOAD PUSH2 0x2C35 SWAP1 PUSH1 0x1 PUSH1 0x50 SHL SWAP1 DIV PUSH1 0x1 PUSH1 0x1 PUSH1 0x50 SHL SUB AND DUP3 PUSH2 0x22D9 JUMP JUMPDEST PUSH1 0x20 DUP7 ADD MSTORE POP JUMPDEST POP POP SWAP3 POP SWAP3 SWAP1 POP JUMP JUMPDEST PUSH1 0x0 DUP1 PUSH2 0xA5B PUSH1 0x22 PUSH2 0x2137 JUMP JUMPDEST PUSH1 0x0 PUSH2 0x3FFF PUSH2 0xFFFF DUP6 AND GT ISZERO PUSH2 0x2C67 JUMPI PUSH1 0x0 DUP1 REVERT JUMPDEST PUSH5 0xFFFFFFFFFF DUP4 GT ISZERO PUSH2 0x2C79 JUMPI PUSH1 0x0 DUP1 REVERT JUMPDEST PUSH2 0x2C83 DUP5 DUP5 PUSH2 0x34BB JUMP JUMPDEST SWAP1 POP PUSH1 0x0 DUP3 SLT ISZERO PUSH2 0xCD8 JUMPI PUSH1 0x1 PUSH1 0x40 SHL OR SWAP4 SWAP3 POP POP POP JUMP JUMPDEST PUSH9 0x10000000000000000 PUSH1 0x1 PUSH1 0xE0 SHL SUB PUSH1 0x40 DUP6 SWAP1 SHL AND PUSH2 0xFFFF PUSH1 0x30 SHL PUSH1 0x30 DUP6 SWAP1 SHL AND OR PUSH1 0x8 DUP4 SWAP1 SHL OR DUP2 OR SWAP5 SWAP4 POP POP POP POP JUMP JUMPDEST PUSH1 0xC PUSH1 0x30 SWAP2 SWAP1 SWAP2 SHL PUSH2 0xFFFF PUSH1 0x30 SHL AND OR SWAP1 JUMP JUMPDEST PUSH1 0x0 DUP1 PUSH2 0xA5B PUSH1 0x12 PUSH2 0x2137 JUMP JUMPDEST PUSH2 0x2CF6 PUSH2 0x37B8 JUMP JUMPDEST PUSH1 0x64 PUSH4 0x3B9ACA00 DUP4 PUSH1 0xFF DUP7 AND PUSH1 0x20 DUP2 LT PUSH2 0x2D0C JUMPI INVALID JUMPDEST BYTE MUL DUP2 PUSH2 0x2D15 JUMPI INVALID JUMPDEST DIV DUP2 MSTORE PUSH1 0x64 PUSH4 0x3B9ACA00 DUP4 PUSH1 0xFF DUP7 AND PUSH1 0x1 ADD PUSH1 0x20 DUP2 LT PUSH2 0x2D31 JUMPI INVALID JUMPDEST BYTE MUL DUP2 PUSH2 0x2D3A JUMPI INVALID JUMPDEST DIV DUP2 PUSH1 0x20 ADD DUP2 DUP2 MSTORE POP POP PUSH2 0x2D5F DUP3 PUSH1 0x2 DUP6 PUSH1 0xFF AND ADD PUSH1 0x20 DUP2 LT PUSH2 0x2D59 JUMPI INVALID JUMPDEST BYTE PUSH2 0x34D6 JUMP JUMPDEST PUSH1 0x80 DUP3 ADD DUP2 SWAP1 MSTORE PUSH2 0x100 SWAP1 DUP4 PUSH1 0xFF DUP7 AND PUSH1 0x3 ADD PUSH1 0x20 DUP2 LT PUSH2 0x2D7C JUMPI INVALID JUMPDEST BYTE MUL DUP2 PUSH2 0x2D85 JUMPI INVALID JUMPDEST DIV PUSH1 0x40 DUP3 ADD MSTORE PUSH1 0x80 DUP2 ADD MLOAD PUSH2 0x100 SWAP1 DUP4 PUSH1 0xFF DUP7 AND PUSH1 0x4 ADD PUSH1 0x20 DUP2 LT PUSH2 0x2DA6 JUMPI INVALID JUMPDEST BYTE MUL DUP2 PUSH2 0x2DAF JUMPI INVALID JUMPDEST DIV PUSH1 0x60 DUP3 ADD MSTORE PUSH3 0x7A120 DUP3 PUSH1 0xFF DUP6 AND PUSH1 0x5 ADD PUSH1 0x20 DUP2 LT PUSH2 0x2DCB JUMPI INVALID JUMPDEST BYTE MUL PUSH1 0xA0 DUP3 ADD MSTORE PUSH3 0x2625A0 DUP3 PUSH1 0xFF DUP6 AND PUSH1 0x6 ADD PUSH1 0x20 DUP2 LT PUSH2 0x2DE8 JUMPI INVALID JUMPDEST BYTE MUL PUSH1 0xC0 DUP3 ADD MSTORE DUP2 PUSH1 0xFF DUP5 AND PUSH1 0x7 ADD PUSH1 0x20 DUP2 LT PUSH2 0x2E01 JUMPI INVALID JUMPDEST BYTE PUSH1 0xE0 DUP3 ADD MSTORE SWAP3 SWAP2 POP POP JUMP JUMPDEST PUSH1 0x0 DUP1 PUSH1 0x0 DUP1 PUSH1 0x0 DUP1 PUSH2 0x2E20 DUP10 DUP9 PUSH2 0x350A JUMP JUMPDEST DUP10 MLOAD SWAP1 SWAP6 POP SWAP2 SWAP4 POP SWAP2 POP PUSH1 0x0 SWAP1 PUSH2 0x2E47 SWAP1 PUSH2 0x2E3C SWAP1 DUP12 SWAP1 PUSH2 0x2F29 JUMP JUMPDEST PUSH4 0x3B9ACA00 SWAP1 PUSH2 0x22D9 JUMP JUMPDEST SWAP1 POP PUSH2 0x2E81 PUSH2 0x2E76 PUSH4 0x1DA9C00 PUSH2 0x2E5E DUP6 DUP6 PUSH2 0x22D9 JUMP JUMPDEST DUP2 PUSH2 0x2E65 JUMPI INVALID JUMPDEST PUSH8 0xDE0B6B3A7640000 SWAP2 SWAP1 DIV PUSH2 0x2F17 JUMP JUMPDEST PUSH1 0xE0 DUP11 ADD MLOAD SWAP1 PUSH2 0x2F5B JUMP JUMPDEST SWAP7 POP PUSH2 0x2EA3 PUSH2 0x2E98 PUSH4 0x1DA9C00 PUSH2 0x2E5E DUP8 DUP6 PUSH2 0x22D9 JUMP JUMPDEST PUSH1 0xC0 DUP11 ADD MLOAD SWAP1 PUSH2 0x2F5B JUMP JUMPDEST SWAP6 POP DUP2 DUP4 EQ ISZERO PUSH2 0x2EBA JUMPI POP PUSH1 0x0 SWAP4 POP PUSH2 0x178D SWAP2 POP POP JUMP JUMPDEST PUSH1 0x0 PUSH2 0x2EDC PUSH2 0x2ED1 PUSH4 0x1DA9C00 PUSH2 0x2E5E DUP8 DUP7 PUSH2 0x22D9 JUMP JUMPDEST PUSH1 0xE0 DUP12 ADD MLOAD SWAP1 PUSH2 0x2F5B JUMP JUMPDEST SWAP1 POP PUSH1 0x0 PUSH2 0x2EEA DUP10 DUP4 PUSH2 0x2F29 JUMP JUMPDEST SWAP1 POP PUSH2 0x2F07 DUP9 PUSH2 0x294A DUP4 DUP14 PUSH1 0x40 ADD MLOAD PUSH2 0x22D9 SWAP1 SWAP2 SWAP1 PUSH4 0xFFFFFFFF AND JUMP JUMPDEST SWAP7 POP POP POP POP POP POP SWAP4 POP SWAP4 POP SWAP4 POP SWAP4 JUMP JUMPDEST PUSH1 0x0 DUP3 DUP3 ADD DUP4 DUP2 LT ISZERO PUSH2 0xCD8 JUMPI PUSH1 0x0 DUP1 REVERT JUMPDEST PUSH1 0x0 DUP3 DUP3 GT ISZERO PUSH2 0x2F38 JUMPI PUSH1 0x0 DUP1 REVERT JUMPDEST POP SWAP1 SUB SWAP1 JUMP JUMPDEST PUSH1 0x0 PUSH2 0xCD8 PUSH2 0x2F55 DUP5 PUSH8 0xDE0B6B3A7640000 PUSH2 0x22D9 JUMP JUMPDEST DUP4 PUSH2 0x3108 JUMP JUMPDEST PUSH1 0x0 PUSH2 0xCD8 PUSH2 0x2F6A DUP5 DUP5 PUSH2 0x22D9 JUMP JUMPDEST PUSH8 0xDE0B6B3A7640000 PUSH2 0x3108 JUMP JUMPDEST PUSH1 0x0 DUP1 DUP3 SLT PUSH2 0x2F88 JUMPI POP DUP1 PUSH2 0xA5B JUMP JUMPDEST DUP3 MLOAD PUSH1 0x20 DUP5 ADD MLOAD PUSH2 0x2F9F SWAP2 SWAP1 PUSH2 0x1A56 SWAP1 DUP6 SWAP1 PUSH2 0x2752 JUMP JUMPDEST SWAP1 POP PUSH2 0xA5B JUMP JUMPDEST PUSH1 0x0 DUP2 PUSH1 0x1 EQ ISZERO PUSH2 0x2FBB JUMPI POP PUSH3 0x76A700 PUSH2 0x8F0 JUMP JUMPDEST DUP2 PUSH1 0x2 EQ ISZERO PUSH2 0x2FCE JUMPI POP PUSH3 0xED4E00 PUSH2 0x8F0 JUMP JUMPDEST DUP2 PUSH1 0x3 EQ ISZERO PUSH2 0x2FE2 JUMPI POP PUSH4 0x1DA9C00 PUSH2 0x8F0 JUMP JUMPDEST DUP2 PUSH1 0x4 EQ ISZERO PUSH2 0x2FF6 JUMPI POP PUSH4 0x3B53800 PUSH2 0x8F0 JUMP JUMPDEST DUP2 PUSH1 0x5 EQ ISZERO PUSH2 0x300A JUMPI POP PUSH4 0x9450C00 PUSH2 0x8F0 JUMP JUMPDEST DUP2 PUSH1 0x6 EQ ISZERO PUSH2 0x301E JUMPI POP PUSH4 0x128A1800 PUSH2 0x8F0 JUMP JUMPDEST DUP2 PUSH1 0x7 EQ ISZERO PUSH2 0x3032 JUMPI POP PUSH4 0x25143000 PUSH2 0x8F0 JUMP JUMPDEST PUSH1 0x40 MLOAD PUSH3 0x461BCD PUSH1 0xE5 SHL DUP2 MSTORE PUSH1 0x4 ADD PUSH2 0x2EE SWAP1 PUSH2 0x4294 JUMP JUMPDEST PUSH1 0x0 PUSH3 0x76A700 DUP3 LT ISZERO PUSH2 0x305C JUMPI PUSH1 0x0 DUP1 REVERT JUMPDEST PUSH3 0x76A700 DUP3 JUMPDEST MOD SWAP1 SWAP2 SUB SWAP2 SWAP1 POP JUMP JUMPDEST PUSH1 0x0 PUSH3 0x76A700 PUSH2 0x307A DUP6 PUSH2 0x304A JUMP JUMPDEST ADD SWAP1 POP PUSH2 0x308C DUP8 DUP8 DUP8 DUP8 DUP8 DUP8 DUP8 PUSH2 0x1AA2 JUMP JUMPDEST POP POP POP POP POP POP POP JUMP JUMPDEST PUSH1 0x0 DUP1 PUSH2 0xA5B PUSH1 0x7 PUSH2 0x2137 JUMP JUMPDEST PUSH1 0x0 DUP1 PUSH2 0xA5B PUSH1 0x9 PUSH2 0x2137 JUMP JUMPDEST PUSH1 0x0 DUP2 PUSH1 0x0 LT PUSH2 0x30BE JUMPI PUSH1 0x0 DUP1 REVERT JUMPDEST PUSH1 0x7 DUP3 GT ISZERO PUSH2 0x30CC JUMPI PUSH1 0x0 DUP1 REVERT JUMPDEST PUSH1 0x4 DUP3 LT PUSH2 0x30DD JUMPI PUSH1 0x4 DUP3 SUB PUSH2 0x30DF JUMP JUMPDEST DUP2 JUMPDEST PUSH1 0x8 MUL SWAP3 SWAP2 POP POP JUMP JUMPDEST PUSH1 0x0 DUP1 PUSH2 0xA5B PUSH1 0xA PUSH2 0x2137 JUMP JUMPDEST PUSH1 0x0 PUSH2 0xCD8 PUSH2 0x2F55 DUP5 PUSH4 0x3B9ACA00 PUSH2 0x22D9 JUMP JUMPDEST PUSH1 0x0 DUP1 DUP3 GT PUSH2 0x3116 JUMPI PUSH1 0x0 DUP1 REVERT JUMPDEST DUP2 DUP4 DUP2 PUSH2 0x311F JUMPI INVALID JUMPDEST DIV SWAP4 SWAP3 POP POP POP JUMP JUMPDEST PUSH1 0x60 PUSH1 0x8 DUP3 PUSH1 0xFF AND GT ISZERO PUSH2 0x313A JUMPI PUSH1 0x0 DUP1 REVERT JUMPDEST PUSH1 0x0 PUSH2 0x3144 PUSH2 0x35A5 JUMP JUMPDEST PUSH1 0x1 PUSH1 0x1 PUSH1 0xA0 SHL SUB DUP6 AND PUSH1 0x0 SWAP1 DUP2 MSTORE PUSH1 0x20 DUP3 SWAP1 MSTORE PUSH1 0x40 DUP2 KECCAK256 SWAP2 SWAP3 POP PUSH1 0xFF DUP6 AND PUSH8 0xFFFFFFFFFFFFFFFF DUP2 GT DUP1 ISZERO PUSH2 0x3179 JUMPI PUSH1 0x0 DUP1 REVERT JUMPDEST POP PUSH1 0x40 MLOAD SWAP1 DUP1 DUP3 MSTORE DUP1 PUSH1 0x20 MUL PUSH1 0x20 ADD DUP3 ADD PUSH1 0x40 MSTORE DUP1 ISZERO PUSH2 0x31B3 JUMPI DUP2 PUSH1 0x20 ADD JUMPDEST PUSH2 0x31A0 PUSH2 0x399D JUMP JUMPDEST DUP2 MSTORE PUSH1 0x20 ADD SWAP1 PUSH1 0x1 SWAP1 SUB SWAP1 DUP2 PUSH2 0x3198 JUMPI SWAP1 POP JUMPDEST POP SWAP1 POP PUSH1 0x0 JUMPDEST DUP6 PUSH1 0xFF AND DUP2 LT ISZERO PUSH2 0x1F4F JUMPI PUSH1 0x0 DUP4 DUP3 PUSH1 0x8 DUP2 LT PUSH2 0x31D2 JUMPI INVALID JUMPDEST ADD SWAP1 POP PUSH1 0x0 DUP4 DUP4 DUP2 MLOAD DUP2 LT PUSH2 0x31E3 JUMPI INVALID JUMPDEST PUSH1 0x20 SWAP1 DUP2 MUL SWAP2 SWAP1 SWAP2 ADD DUP2 ADD MLOAD DUP4 SLOAD PUSH2 0xFFFF DUP2 AND DUP3 MSTORE PUSH5 0xFFFFFFFFFF PUSH3 0x10000 DUP3 DIV AND SWAP3 DUP3 ADD SWAP3 SWAP1 SWAP3 MSTORE PUSH1 0xFF PUSH1 0x1 PUSH1 0x38 SHL DUP4 DIV AND PUSH1 0x40 DUP3 ADD MSTORE PUSH1 0x1 PUSH1 0x40 SHL SWAP1 SWAP2 DIV PUSH1 0xA SWAP1 DUP2 SIGNEXTEND SWAP1 SIGNEXTEND PUSH1 0x60 DUP3 ADD MSTORE PUSH1 0x80 ADD SWAP2 SWAP1 SWAP2 MSTORE POP PUSH1 0x1 ADD PUSH2 0x31B9 JUMP JUMPDEST DUP1 MLOAD PUSH1 0x60 SWAP1 DUP1 PUSH8 0xFFFFFFFFFFFFFFFF DUP2 GT DUP1 ISZERO PUSH2 0x325B JUMPI PUSH1 0x0 DUP1 REVERT JUMPDEST POP PUSH1 0x40 MLOAD SWAP1 DUP1 DUP3 MSTORE DUP1 PUSH1 0x20 MUL PUSH1 0x20 ADD DUP3 ADD PUSH1 0x40 MSTORE DUP1 ISZERO PUSH2 0x3285 JUMPI DUP2 PUSH1 0x20 ADD PUSH1 0x20 DUP3 MUL DUP1 CALLDATASIZE DUP4 CALLDATACOPY ADD SWAP1 POP JUMPDEST POP SWAP2 POP PUSH1 0x0 JUMPDEST DUP2 DUP2 LT ISZERO PUSH2 0x32E2 JUMPI PUSH1 0x0 DUP5 DUP3 DUP2 MLOAD DUP2 LT PUSH2 0x32A1 JUMPI INVALID JUMPDEST PUSH1 0x20 MUL PUSH1 0x20 ADD ADD MLOAD SWAP1 POP PUSH2 0x32C2 DUP2 PUSH1 0x0 ADD MLOAD DUP3 PUSH1 0x20 ADD MLOAD DUP4 PUSH1 0x40 ADD MLOAD PUSH2 0x35B2 JUMP JUMPDEST DUP5 DUP4 DUP2 MLOAD DUP2 LT PUSH2 0x32CE JUMPI INVALID JUMPDEST PUSH1 0x20 SWAP1 DUP2 MUL SWAP2 SWAP1 SWAP2 ADD ADD MSTORE POP PUSH1 0x1 ADD PUSH2 0x328B JUMP JUMPDEST POP PUSH1 0x1 JUMPDEST DUP2 DUP2 LT ISZERO PUSH2 0x20FD JUMPI DUP1 JUMPDEST PUSH1 0x0 DUP2 GT DUP1 ISZERO PUSH2 0x3328 JUMPI POP DUP4 DUP2 DUP2 MLOAD DUP2 LT PUSH2 0x3307 JUMPI INVALID JUMPDEST PUSH1 0x20 MUL PUSH1 0x20 ADD ADD MLOAD DUP5 PUSH1 0x1 DUP4 SUB DUP2 MLOAD DUP2 LT PUSH2 0x331E JUMPI INVALID JUMPDEST PUSH1 0x20 MUL PUSH1 0x20 ADD ADD MLOAD GT JUMPDEST ISZERO PUSH2 0x33F0 JUMPI DUP4 DUP2 DUP2 MLOAD DUP2 LT PUSH2 0x3339 JUMPI INVALID JUMPDEST PUSH1 0x20 MUL PUSH1 0x20 ADD ADD MLOAD DUP5 PUSH1 0x1 DUP4 SUB DUP2 MLOAD DUP2 LT PUSH2 0x3350 JUMPI INVALID JUMPDEST PUSH1 0x20 MUL PUSH1 0x20 ADD ADD MLOAD DUP6 PUSH1 0x1 DUP5 SUB DUP2 MLOAD DUP2 LT PUSH2 0x3367 JUMPI INVALID JUMPDEST PUSH1 0x20 MUL PUSH1 0x20 ADD ADD DUP7 DUP5 DUP2 MLOAD DUP2 LT PUSH2 0x337A JUMPI INVALID JUMPDEST PUSH1 0x20 MUL PUSH1 0x20 ADD ADD DUP3 DUP2 MSTORE POP DUP3 DUP2 MSTORE POP POP POP DUP5 DUP2 DUP2 MLOAD DUP2 LT PUSH2 0x3397 JUMPI INVALID JUMPDEST PUSH1 0x20 MUL PUSH1 0x20 ADD ADD MLOAD DUP6 PUSH1 0x1 DUP4 SUB DUP2 MLOAD DUP2 LT PUSH2 0x33AE JUMPI INVALID JUMPDEST PUSH1 0x20 MUL PUSH1 0x20 ADD ADD MLOAD DUP7 PUSH1 0x1 DUP5 SUB DUP2 MLOAD DUP2 LT PUSH2 0x33C5 JUMPI INVALID JUMPDEST PUSH1 0x20 MUL PUSH1 0x20 ADD ADD DUP8 DUP5 DUP2 MLOAD DUP2 LT PUSH2 0x33D8 JUMPI INVALID JUMPDEST PUSH1 0x20 SWAP1 DUP2 MUL SWAP2 SWAP1 SWAP2 ADD ADD SWAP2 SWAP1 SWAP2 MSTORE MSTORE PUSH1 0x0 NOT ADD PUSH2 0x32F0 JUMP JUMPDEST POP PUSH1 0x1 ADD PUSH2 0x32E6 JUMP JUMPDEST PUSH1 0x0 DUP2 PUSH2 0x3405 JUMPI PUSH1 0x0 DUP1 REVERT JUMPDEST PUSH1 0x1 PUSH1 0x80 SHL DUP3 LT PUSH2 0x3418 JUMPI PUSH1 0x80 SWAP2 DUP3 SHR SWAP2 ADD JUMPDEST PUSH1 0x1 PUSH1 0x40 SHL DUP3 LT PUSH2 0x342B JUMPI PUSH1 0x40 SWAP2 DUP3 SHR SWAP2 ADD JUMPDEST PUSH5 0x100000000 DUP3 LT PUSH2 0x343F JUMPI PUSH1 0x20 SWAP2 DUP3 SHR SWAP2 ADD JUMPDEST PUSH3 0x10000 DUP3 LT PUSH2 0x3451 JUMPI PUSH1 0x10 SWAP2 DUP3 SHR SWAP2 ADD JUMPDEST PUSH2 0x100 DUP3 LT PUSH2 0x3462 JUMPI PUSH1 0x8 SWAP2 DUP3 SHR SWAP2 ADD JUMPDEST PUSH1 0x10 DUP3 LT PUSH2 0x3472 JUMPI PUSH1 0x4 SWAP2 DUP3 SHR SWAP2 ADD JUMPDEST PUSH1 0x4 DUP3 LT PUSH2 0x3482 JUMPI PUSH1 0x2 SWAP2 DUP3 SHR SWAP2 ADD JUMPDEST PUSH1 0x2 DUP3 LT PUSH2 0x8F0 JUMPI PUSH1 0x1 ADD SWAP2 SWAP1 POP JUMP JUMPDEST PUSH1 0x0 PUSH3 0x15180 DUP3 LT ISZERO PUSH2 0x34A4 JUMPI PUSH1 0x0 DUP1 REVERT JUMPDEST PUSH3 0x15180 DUP3 PUSH2 0x3062 JUMP JUMPDEST PUSH1 0x0 DUP1 PUSH2 0xA5B PUSH1 0x1E PUSH2 0x2137 JUMP JUMPDEST PUSH2 0xFFFF PUSH1 0x30 SHL PUSH1 0x30 DUP4 SWAP1 SHL AND PUSH1 0x8 DUP3 SWAP1 SHL OR PUSH1 0x1 OR SWAP3 SWAP2 POP POP JUMP JUMPDEST PUSH1 0x0 DUP2 PUSH1 0xFF AND PUSH1 0x96 LT PUSH2 0x34F1 JUMPI PUSH1 0xFF DUP3 AND PUSH3 0x2625A0 MUL PUSH2 0x8ED JUMP JUMPDEST POP PUSH1 0x95 NOT PUSH1 0xFF SWAP2 SWAP1 SWAP2 AND ADD PUSH3 0xE4E1C0 MUL PUSH4 0x165A0BC0 ADD SWAP1 JUMP JUMPDEST PUSH1 0x0 DUP1 PUSH1 0x0 DUP1 PUSH1 0x0 DUP6 PUSH1 0x20 ADD MLOAD GT ISZERO PUSH2 0x3557 JUMPI PUSH2 0x3554 PUSH2 0x353B DUP7 PUSH1 0xC0 ADD MLOAD DUP8 PUSH1 0x20 ADD MLOAD PUSH2 0x22D9 SWAP1 SWAP2 SWAP1 PUSH4 0xFFFFFFFF AND JUMP JUMPDEST PUSH1 0xE0 DUP8 ADD MLOAD PUSH1 0x40 DUP9 ADD MLOAD PUSH2 0x354E SWAP2 PUSH2 0x22D9 JUMP JUMPDEST SWAP1 PUSH2 0x30F5 JUMP JUMPDEST SWAP1 POP JUMPDEST PUSH1 0x0 PUSH2 0x3562 DUP8 PUSH2 0x2104 JUMP JUMPDEST SWAP1 POP PUSH2 0x356E DUP2 DUP4 PUSH2 0x35D8 JUMP JUMPDEST SWAP5 POP DUP2 ISZERO PUSH2 0x3585 JUMPI PUSH2 0x3582 DUP2 DUP7 PUSH1 0x1 PUSH2 0x368B JUMP JUMPDEST SWAP4 POP JUMPDEST PUSH1 0x20 DUP7 ADD MLOAD ISZERO PUSH2 0x359C JUMPI PUSH2 0x3599 DUP6 DUP4 PUSH2 0x3703 JUMP JUMPDEST SWAP3 POP JUMPDEST POP POP SWAP3 POP SWAP3 POP SWAP3 JUMP JUMPDEST PUSH1 0x0 DUP1 PUSH2 0xA5B PUSH1 0xD PUSH2 0x2137 JUMP JUMPDEST PUSH2 0xFFFF PUSH1 0x30 SHL PUSH1 0x30 DUP5 SWAP1 SHL AND PUSH6 0xFFFFFFFFFF00 PUSH1 0x8 DUP5 SWAP1 SHL AND OR PUSH1 0xFF DUP3 AND OR SWAP4 SWAP3 POP POP POP JUMP JUMPDEST PUSH1 0x0 DUP1 DUP4 PUSH1 0x80 ADD MLOAD GT PUSH2 0x35EA JUMPI PUSH1 0x0 DUP1 REVERT JUMPDEST PUSH4 0x3B9ACA00 DUP3 GT ISZERO PUSH2 0x35FB JUMPI PUSH1 0x0 DUP1 REVERT JUMPDEST DUP3 MLOAD DUP3 GT PUSH2 0x361A JUMPI DUP3 MLOAD PUSH1 0x40 DUP5 ADD MLOAD PUSH2 0x2F9F SWAP2 SWAP1 PUSH2 0x294A SWAP1 DUP6 SWAP1 PUSH2 0x22D9 JUMP JUMPDEST DUP3 PUSH1 0x20 ADD MLOAD DUP3 GT PUSH2 0x3652 JUMPI PUSH1 0x40 DUP4 ADD MLOAD DUP4 MLOAD PUSH1 0x20 DUP6 ADD MLOAD PUSH1 0x60 DUP7 ADD MLOAD PUSH2 0x2F9F SWAP4 SWAP3 PUSH2 0x2499 SWAP3 DUP2 SWAP1 SUB SWAP2 PUSH2 0x294A SWAP2 DUP9 SUB SWAP1 DUP6 SWAP1 SUB PUSH2 0x22D9 JUMP JUMPDEST PUSH2 0xCD8 DUP4 PUSH1 0x60 ADD MLOAD PUSH2 0x2499 DUP6 PUSH1 0x20 ADD MLOAD PUSH4 0x3B9ACA00 SUB PUSH2 0x294A DUP8 PUSH1 0x60 ADD MLOAD DUP9 PUSH1 0x80 ADD MLOAD SUB DUP9 PUSH1 0x20 ADD MLOAD DUP9 SUB PUSH2 0x22D9 SWAP1 SWAP2 SWAP1 PUSH4 0xFFFFFFFF AND JUMP JUMPDEST PUSH1 0x0 DUP1 PUSH2 0x36AA PUSH1 0x64 PUSH2 0x294A DUP8 PUSH1 0xE0 ADD MLOAD DUP8 PUSH2 0x22D9 SWAP1 SWAP2 SWAP1 PUSH4 0xFFFFFFFF AND JUMP JUMPDEST SWAP1 POP DUP5 PUSH1 0xA0 ADD MLOAD DUP2 LT ISZERO PUSH2 0x36BF JUMPI POP PUSH1 0xA0 DUP5 ADD MLOAD JUMPDEST DUP5 PUSH1 0xC0 ADD MLOAD DUP2 GT ISZERO PUSH2 0x36D2 JUMPI POP PUSH1 0xC0 DUP5 ADD MLOAD JUMPDEST DUP3 ISZERO PUSH2 0x36E9 JUMPI PUSH2 0x36E2 DUP5 DUP3 PUSH2 0x2F17 JUMP JUMPDEST SWAP2 POP PUSH2 0x1D3F JUMP JUMPDEST DUP4 DUP2 GT PUSH2 0x36F8 JUMPI DUP1 DUP5 SUB PUSH2 0xCD4 JUMP JUMPDEST PUSH1 0x0 SWAP6 SWAP5 POP POP POP POP POP JUMP JUMPDEST PUSH1 0x0 PUSH2 0xCD8 PUSH2 0x3712 DUP5 DUP5 PUSH2 0x22D9 JUMP JUMPDEST PUSH4 0x3B9ACA00 PUSH2 0x3108 JUMP JUMPDEST PUSH1 0x40 MLOAD DUP1 PUSH1 0x60 ADD PUSH1 0x40 MSTORE DUP1 PUSH1 0x0 DUP2 MSTORE PUSH1 0x20 ADD PUSH1 0x0 DUP2 MSTORE PUSH1 0x20 ADD PUSH1 0x0 DUP2 MSTORE POP SWAP1 JUMP JUMPDEST PUSH1 0x40 MLOAD DUP1 PUSH2 0x120 ADD PUSH1 0x40 MSTORE DUP1 PUSH1 0x0 DUP2 MSTORE PUSH1 0x20 ADD PUSH1 0x0 DUP2 MSTORE PUSH1 0x20 ADD PUSH1 0x0 DUP2 MSTORE PUSH1 0x20 ADD PUSH1 0x0 DUP2 MSTORE PUSH1 0x20 ADD PUSH1 0x0 DUP2 MSTORE PUSH1 0x20 ADD PUSH1 0x0 DUP2 MSTORE PUSH1 0x20 ADD PUSH1 0x0 DUP2 MSTORE PUSH1 0x20 ADD PUSH1 0x0 DUP2 MSTORE PUSH1 0x20 ADD PUSH1 0x0 DUP2 MSTORE POP SWAP1 JUMP JUMPDEST PUSH1 0x40 DUP1 MLOAD PUSH1 0xA0 DUP2 ADD DUP3 MSTORE PUSH1 0x0 DUP1 DUP3 MSTORE PUSH1 0x20 DUP3 ADD DUP2 SWAP1 MSTORE SWAP2 DUP2 ADD DUP3 SWAP1 MSTORE SWAP1 PUSH1 0x60 DUP3 ADD SWAP1 DUP2 MSTORE PUSH1 0x20 ADD PUSH1 0x0 DUP2 MSTORE POP SWAP1 JUMP JUMPDEST PUSH1 0x40 MLOAD DUP1 PUSH2 0x100 ADD PUSH1 0x40 MSTORE DUP1 PUSH1 0x0 DUP2 MSTORE PUSH1 0x20 ADD PUSH1 0x0 DUP2 MSTORE PUSH1 0x20 ADD PUSH1 0x0 DUP2 MSTORE PUSH1 0x20 ADD PUSH1 0x0 DUP2 MSTORE PUSH1 0x20 ADD PUSH1 0x0 DUP2 MSTORE PUSH1 0x20 ADD PUSH1 0x0 DUP2 MSTORE PUSH1 0x20 ADD PUSH1 0x0 DUP2 MSTORE PUSH1 0x20 ADD PUSH1 0x0 DUP2 MSTORE POP SWAP1 JUMP JUMPDEST PUSH1 0x40 DUP1 MLOAD PUSH2 0x140 DUP2 ADD DUP3 MSTORE PUSH1 0x0 DUP1 DUP3 MSTORE PUSH1 0x20 DUP3 ADD DUP2 SWAP1 MSTORE SWAP2 DUP2 ADD DUP3 SWAP1 MSTORE PUSH1 0x60 DUP2 ADD DUP3 SWAP1 MSTORE PUSH1 0x80 DUP2 ADD DUP3 SWAP1 MSTORE PUSH1 0xA0 DUP2 ADD DUP3 SWAP1 MSTORE PUSH1 0xC0 DUP2 ADD DUP3 SWAP1 MSTORE PUSH1 0xE0 DUP2 ADD DUP3 SWAP1 MSTORE PUSH2 0x100 DUP2 ADD DUP3 SWAP1 MSTORE PUSH2 0x120 DUP2 ADD SWAP2 SWAP1 SWAP2 MSTORE SWAP1 JUMP JUMPDEST PUSH1 0x40 MLOAD DUP1 PUSH1 0x60 ADD PUSH1 0x40 MSTORE DUP1 PUSH1 0x0 PUSH1 0x1 PUSH1 0x1 PUSH1 0xA0 SHL SUB AND DUP2 MSTORE PUSH1 0x20 ADD PUSH1 0x0 DUP2 MSTORE PUSH1 0x20 ADD PUSH1 0x0 DUP2 MSTORE POP SWAP1 JUMP JUMPDEST PUSH1 0x40 MLOAD DUP1 PUSH2 0x100 ADD PUSH1 0x40 MSTORE DUP1 PUSH1 0x0 DUP1 NOT AND DUP2 MSTORE PUSH1 0x20 ADD PUSH1 0x0 DUP2 MSTORE PUSH1 0x20 ADD PUSH1 0x0 DUP2 MSTORE PUSH1 0x20 ADD PUSH1 0x0 DUP2 MSTORE PUSH1 0x20 ADD PUSH1 0x0 DUP2 MSTORE PUSH1 0x20 ADD PUSH1 0x0 DUP2 MSTORE PUSH1 0x20 ADD PUSH1 0x0 DUP2 MSTORE PUSH1 0x20 ADD PUSH1 0x0 DUP2 MSTORE POP SWAP1 JUMP JUMPDEST PUSH1 0x40 MLOAD DUP1 PUSH1 0xA0 ADD PUSH1 0x40 MSTORE DUP1 PUSH1 0x0 DUP2 MSTORE PUSH1 0x20 ADD PUSH1 0x0 DUP2 MSTORE PUSH1 0x20 ADD PUSH1 0x0 DUP2 MSTORE PUSH1 0x20 ADD PUSH1 0x0 DUP2 MSTORE PUSH1 0x20 ADD PUSH1 0x0 DUP2 MSTORE POP SWAP1 JUMP JUMPDEST PUSH1 0x40 DUP1 MLOAD PUSH1 0xC0 DUP2 ADD DUP3 MSTORE PUSH1 0x0 DUP1 DUP3 MSTORE PUSH1 0x20 DUP3 ADD DUP2 SWAP1 MSTORE SWAP2 DUP2 ADD DUP3 SWAP1 MSTORE PUSH1 0x60 DUP2 ADD DUP3 SWAP1 MSTORE PUSH1 0x80 DUP2 ADD DUP3 SWAP1 MSTORE PUSH1 0xA0 DUP2 ADD SWAP2 SWAP1 SWAP2 MSTORE SWAP1 JUMP JUMPDEST PUSH1 0x40 DUP1 MLOAD DUP1 DUP3 ADD SWAP1 SWAP2 MSTORE PUSH1 0x0 DUP1 DUP3 MSTORE PUSH1 0x20 DUP3 ADD MSTORE SWAP1 JUMP JUMPDEST PUSH1 0x40 MLOAD DUP1 PUSH1 0xA0 ADD PUSH1 0x40 MSTORE DUP1 PUSH1 0x0 PUSH2 0xFFFF AND DUP2 MSTORE PUSH1 0x20 ADD PUSH1 0x0 DUP2 MSTORE PUSH1 0x20 ADD PUSH1 0x0 DUP2 MSTORE PUSH1 0x20 ADD PUSH1 0x0 DUP2 MSTORE PUSH1 0x20 ADD PUSH1 0x0 DUP2 MSTORE POP SWAP1 JUMP JUMPDEST PUSH1 0x40 DUP1 MLOAD PUSH1 0x80 DUP2 ADD DUP3 MSTORE PUSH1 0x0 DUP1 DUP3 MSTORE PUSH1 0x20 DUP3 ADD MSTORE SWAP1 DUP2 ADD PUSH2 0x3990 PUSH2 0x371C JUMP JUMPDEST DUP2 MSTORE PUSH1 0x0 PUSH1 0x20 SWAP1 SWAP2 ADD MSTORE SWAP1 JUMP JUMPDEST PUSH1 0x40 MLOAD DUP1 PUSH1 0xC0 ADD PUSH1 0x40 MSTORE DUP1 PUSH1 0x0 PUSH2 0xFFFF AND DUP2 MSTORE PUSH1 0x20 ADD PUSH1 0x0 DUP2 MSTORE PUSH1 0x20 ADD PUSH1 0x0 DUP2 MSTORE PUSH1 0x20 ADD PUSH1 0x0 DUP2 MSTORE PUSH1 0x20 ADD PUSH1 0x0 DUP2 MSTORE PUSH1 0x20 ADD PUSH1 0x0 PUSH1 0x3 DUP2 GT ISZERO PUSH2 0x39DC JUMPI INVALID JUMPDEST SWAP1 MSTORE SWAP1 JUMP JUMPDEST DUP1 CALLDATALOAD PUSH1 0x1 PUSH1 0x1 PUSH1 0xA0 SHL SUB DUP2 AND DUP2 EQ PUSH2 0x8F0 JUMPI PUSH1 0x0 DUP1 REVERT JUMPDEST DUP1 CALLDATALOAD PUSH2 0xFFFF DUP2 AND DUP2 EQ PUSH2 0x8F0 JUMPI PUSH1 0x0 DUP1 REVERT JUMPDEST DUP1 MLOAD PUSH1 0x1 PUSH1 0x1 PUSH1 0x50 SHL SUB DUP2 AND DUP2 EQ PUSH2 0x8F0 JUMPI PUSH1 0x0 DUP1 REVERT JUMPDEST PUSH1 0x0 PUSH1 0x20 DUP3 DUP5 SUB SLT ISZERO PUSH2 0x3A32 JUMPI DUP1 DUP2 REVERT JUMPDEST PUSH2 0xCD8 DUP3 PUSH2 0x39E1 JUMP JUMPDEST PUSH1 0x0 DUP1 PUSH1 0x40 DUP4 DUP6 SUB SLT ISZERO PUSH2 0x3A4D JUMPI DUP1 DUP2 REVERT JUMPDEST PUSH2 0x3A56 DUP4 PUSH2 0x39E1 JUMP JUMPDEST SWAP2 POP PUSH2 0x29A9 PUSH1 0x20 DUP5 ADD PUSH2 0x39F8 JUMP JUMPDEST PUSH1 0x0 DUP1 PUSH1 0x0 PUSH1 0x60 DUP5 DUP7 SUB SLT ISZERO PUSH2 0x3A78 JUMPI DUP1 DUP2 REVERT JUMPDEST PUSH2 0x3A81 DUP5 PUSH2 0x39E1 JUMP JUMPDEST SWAP3 POP PUSH2 0x3A8F PUSH1 0x20 DUP6 ADD PUSH2 0x39F8 JUMP JUMPDEST SWAP2 POP PUSH1 0x40 DUP5 ADD CALLDATALOAD SWAP1 POP SWAP3 POP SWAP3 POP SWAP3 JUMP JUMPDEST PUSH1 0x0 DUP1 PUSH1 0x20 DUP4 DUP6 SUB SLT ISZERO PUSH2 0x3AB1 JUMPI DUP2 DUP3 REVERT JUMPDEST DUP3 CALLDATALOAD PUSH8 0xFFFFFFFFFFFFFFFF DUP1 DUP3 GT ISZERO PUSH2 0x3AC8 JUMPI DUP4 DUP5 REVERT JUMPDEST DUP2 DUP6 ADD SWAP2 POP DUP6 PUSH1 0x1F DUP4 ADD SLT PUSH2 0x3ADB JUMPI DUP4 DUP5 REVERT JUMPDEST DUP2 CALLDATALOAD DUP2 DUP2 GT ISZERO PUSH2 0x3AE9 JUMPI DUP5 DUP6 REVERT JUMPDEST DUP7 PUSH1 0x20 DUP1 DUP4 MUL DUP6 ADD ADD GT ISZERO PUSH2 0x3AFC JUMPI DUP5 DUP6 REVERT JUMPDEST PUSH1 0x20 SWAP3 SWAP1 SWAP3 ADD SWAP7 SWAP2 SWAP6 POP SWAP1 SWAP4 POP POP POP POP JUMP JUMPDEST PUSH1 0x0 DUP1 PUSH1 0x40 DUP4 DUP6 SUB SLT ISZERO PUSH2 0x3B20 JUMPI DUP2 DUP3 REVERT JUMPDEST DUP3 MLOAD SWAP2 POP PUSH1 0x20 DUP1 DUP5 ADD MLOAD PUSH8 0xFFFFFFFFFFFFFFFF DUP1 DUP3 GT ISZERO PUSH2 0x3B3F JUMPI DUP4 DUP5 REVERT JUMPDEST DUP2 DUP7 ADD SWAP2 POP DUP7 PUSH1 0x1F DUP4 ADD SLT PUSH2 0x3B52 JUMPI DUP4 DUP5 REVERT JUMPDEST DUP2 MLOAD DUP2 DUP2 GT ISZERO PUSH2 0x3B5E JUMPI INVALID JUMPDEST DUP4 DUP2 MUL PUSH1 0x40 MLOAD DUP6 DUP3 DUP3 ADD ADD DUP2 DUP2 LT DUP6 DUP3 GT OR ISZERO PUSH2 0x3B77 JUMPI INVALID JUMPDEST PUSH1 0x40 MSTORE DUP3 DUP2 MSTORE DUP6 DUP2 ADD SWAP4 POP DUP5 DUP7 ADD DUP3 DUP7 ADD DUP8 ADD DUP12 LT ISZERO PUSH2 0x3B95 JUMPI DUP8 DUP9 REVERT JUMPDEST DUP8 SWAP6 POP JUMPDEST DUP4 DUP7 LT ISZERO PUSH2 0x3BB7 JUMPI DUP1 MLOAD DUP6 MSTORE PUSH1 0x1 SWAP6 SWAP1 SWAP6 ADD SWAP5 SWAP4 DUP7 ADD SWAP4 DUP7 ADD PUSH2 0x3B99 JUMP JUMPDEST POP DUP1 SWAP7 POP POP POP POP POP POP POP SWAP3 POP SWAP3 SWAP1 POP JUMP JUMPDEST PUSH1 0x0 PUSH1 0x20 DUP3 DUP5 SUB SLT ISZERO PUSH2 0x3BD9 JUMPI DUP1 DUP2 REVERT JUMPDEST PUSH2 0xCD8 DUP3 PUSH2 0x39F8 JUMP JUMPDEST PUSH1 0x0 DUP1 PUSH1 0x40 DUP4 DUP6 SUB SLT ISZERO PUSH2 0x3BF4 JUMPI DUP2 DUP3 REVERT JUMPDEST PUSH2 0x3BFD DUP4 PUSH2 0x39F8 JUMP JUMPDEST SWAP2 POP PUSH2 0x29A9 PUSH1 0x20 DUP5 ADD PUSH2 0x39E1 JUMP JUMPDEST PUSH1 0x0 DUP1 PUSH1 0x40 DUP4 DUP6 SUB SLT ISZERO PUSH2 0x3C1D JUMPI DUP2 DUP3 REVERT JUMPDEST PUSH2 0x3C26 DUP4 PUSH2 0x39F8 JUMP JUMPDEST SWAP5 PUSH1 0x20 SWAP4 SWAP1 SWAP4 ADD CALLDATALOAD SWAP4 POP POP POP JUMP JUMPDEST PUSH1 0x0 DUP1 PUSH1 0x0 PUSH1 0x60 DUP5 DUP7 SUB SLT ISZERO PUSH2 0x3C48 JUMPI DUP3 DUP4 REVERT JUMPDEST PUSH2 0x3C51 DUP5 PUSH2 0x39F8 JUMP JUMPDEST SWAP6 PUSH1 0x20 DUP6 ADD CALLDATALOAD SWAP6 POP PUSH1 0x40 SWAP1 SWAP5 ADD CALLDATALOAD SWAP4 SWAP3 POP POP POP JUMP JUMPDEST PUSH1 0x0 DUP1 PUSH1 0x0 DUP1 PUSH1 0x0 PUSH1 0xA0 DUP7 DUP9 SUB SLT ISZERO PUSH2 0x3C7D JUMPI DUP1 DUP2 REVERT JUMPDEST PUSH2 0x3C86 DUP7 PUSH2 0x39F8 JUMP JUMPDEST SWAP5 POP PUSH1 0x20 DUP7 ADD CALLDATALOAD SWAP4 POP PUSH1 0x40 DUP7 ADD CALLDATALOAD SWAP3 POP PUSH2 0x3CA2 PUSH1 0x60 DUP8 ADD PUSH2 0x39E1 JUMP JUMPDEST SWAP2 POP PUSH1 0x80 DUP7 ADD CALLDATALOAD DUP1 ISZERO ISZERO DUP2 EQ PUSH2 0x3CB6 JUMPI DUP2 DUP3 REVERT JUMPDEST DUP1 SWAP2 POP POP SWAP3 SWAP6 POP SWAP3 SWAP6 SWAP1 SWAP4 POP JUMP JUMPDEST PUSH1 0x0 DUP1 PUSH1 0x40 DUP4 DUP6 SUB SLT ISZERO PUSH2 0x3CD6 JUMPI DUP2 DUP3 REVERT JUMPDEST PUSH2 0x3CDF DUP4 PUSH2 0x39F8 JUMP JUMPDEST SWAP2 POP PUSH1 0x20 DUP4 ADD CALLDATALOAD PUSH4 0xFFFFFFFF DUP2 AND DUP2 EQ PUSH2 0x3CF7 JUMPI DUP2 DUP3 REVERT JUMPDEST DUP1 SWAP2 POP POP SWAP3 POP SWAP3 SWAP1 POP JUMP JUMPDEST PUSH1 0x0 DUP1 PUSH1 0x40 DUP4 DUP6 SUB SLT ISZERO PUSH2 0x3D14 JUMPI DUP2 DUP3 REVERT JUMPDEST PUSH2 0x3D1D DUP4 PUSH2 0x39F8 JUMP JUMPDEST SWAP2 POP PUSH1 0x20 DUP4 ADD CALLDATALOAD PUSH5 0xFFFFFFFFFF DUP2 AND DUP2 EQ PUSH2 0x3CF7 JUMPI DUP2 DUP3 REVERT JUMPDEST PUSH1 0x0 PUSH1 0x20 DUP3 DUP5 SUB SLT ISZERO PUSH2 0x3D47 JUMPI DUP1 DUP2 REVERT JUMPDEST POP CALLDATALOAD SWAP2 SWAP1 POP JUMP JUMPDEST PUSH1 0x0 DUP1 PUSH1 0x40 DUP4 DUP6 SUB SLT ISZERO PUSH2 0x3D60 JUMPI DUP2 DUP3 REVERT JUMPDEST POP POP DUP1 MLOAD PUSH1 0x20 SWAP1 SWAP2 ADD MLOAD SWAP1 SWAP3 SWAP1 SWAP2 POP JUMP JUMPDEST PUSH1 0x0 DUP1 PUSH1 0x0 DUP1 PUSH1 0x0 PUSH1 0xA0 DUP7 DUP9 SUB SLT ISZERO PUSH2 0x3D88 JUMPI DUP3 DUP4 REVERT JUMPDEST PUSH2 0x3D91 DUP7 PUSH2 0x3A0A JUMP JUMPDEST SWAP5 POP PUSH1 0x20 DUP7 ADD MLOAD SWAP4 POP PUSH1 0x40 DUP7 ADD MLOAD SWAP3 POP PUSH1 0x60 DUP7 ADD MLOAD SWAP2 POP PUSH2 0x3DB4 PUSH1 0x80 DUP8 ADD PUSH2 0x3A0A JUMP JUMPDEST SWAP1 POP SWAP3 SWAP6 POP SWAP3 SWAP6 SWAP1 SWAP4 POP JUMP JUMPDEST PUSH1 0x0 DUP2 MLOAD DUP1 DUP5 MSTORE PUSH1 0x20 DUP1 DUP6 ADD SWAP5 POP DUP1 DUP5 ADD DUP4 JUMPDEST DUP4 DUP2 LT ISZERO PUSH2 0x3DEF JUMPI DUP2 MLOAD DUP8 MSTORE SWAP6 DUP3 ADD SWAP6 SWAP1 DUP3 ADD SWAP1 PUSH1 0x1 ADD PUSH2 0x3DD3 JUMP JUMPDEST POP SWAP5 SWAP6 SWAP5 POP POP POP POP POP JUMP JUMPDEST PUSH1 0x0 DUP2 MLOAD DUP1 DUP5 MSTORE PUSH1 0x20 DUP1 DUP6 ADD SWAP5 POP DUP1 DUP5 ADD DUP4 JUMPDEST DUP4 DUP2 LT ISZERO PUSH2 0x3DEF JUMPI PUSH2 0x3E20 DUP8 DUP4 MLOAD PUSH2 0x3FE0 JUMP JUMPDEST PUSH2 0x100 SWAP7 SWAP1 SWAP7 ADD SWAP6 SWAP1 DUP3 ADD SWAP1 PUSH1 0x1 ADD PUSH2 0x3E0D JUMP JUMPDEST PUSH1 0x0 DUP2 MLOAD DUP1 DUP5 MSTORE PUSH1 0x20 DUP1 DUP6 ADD SWAP5 POP DUP1 DUP5 ADD DUP4 JUMPDEST DUP4 DUP2 LT ISZERO PUSH2 0x3DEF JUMPI DUP2 MLOAD DUP1 MLOAD PUSH2 0xFFFF AND DUP9 MSTORE DUP4 DUP2 ADD MLOAD DUP5 DUP10 ADD MSTORE PUSH1 0x40 DUP1 DUP3 ADD MLOAD SWAP1 DUP10 ADD MSTORE PUSH1 0x60 DUP1 DUP3 ADD MLOAD SWAP1 DUP10 ADD MSTORE PUSH1 0x80 DUP1 DUP3 ADD MLOAD SWAP1 DUP10 ADD MSTORE PUSH1 0xA0 SWAP1 DUP2 ADD MLOAD SWAP1 PUSH1 0x4 DUP3 LT PUSH2 0x3E90 JUMPI INVALID JUMPDEST DUP9 ADD MSTORE PUSH1 0xC0 SWAP1 SWAP7 ADD SWAP6 SWAP1 DUP3 ADD SWAP1 PUSH1 0x1 ADD PUSH2 0x3E47 JUMP JUMPDEST DUP1 MLOAD PUSH5 0xFFFFFFFFFF AND DUP3 MSTORE PUSH1 0x20 DUP1 DUP3 ADD MLOAD PUSH1 0x1 PUSH1 0x1 PUSH1 0xF8 SHL SUB NOT AND SWAP1 DUP4 ADD MSTORE PUSH1 0x40 DUP1 DUP3 ADD MLOAD PUSH1 0xFF AND SWAP1 DUP4 ADD MSTORE PUSH1 0x60 DUP1 DUP3 ADD MLOAD PUSH2 0xFFFF AND SWAP1 DUP4 ADD MSTORE PUSH1 0x80 DUP1 DUP3 ADD MLOAD PUSH1 0x1 PUSH1 0x1 PUSH1 0x70 SHL SUB NOT AND SWAP1 DUP4 ADD MSTORE PUSH1 0xA0 SWAP1 DUP2 ADD MLOAD ISZERO ISZERO SWAP2 ADD MSTORE JUMP JUMPDEST PUSH2 0x3F0B DUP3 DUP3 MLOAD PUSH2 0x40E3 JUMP JUMPDEST PUSH1 0x20 DUP2 ADD MLOAD PUSH2 0x3F1D PUSH1 0x20 DUP5 ADD DUP3 PUSH2 0x40E3 JUMP JUMPDEST POP PUSH1 0x40 DUP2 ADD MLOAD PUSH2 0x3F30 PUSH1 0x40 DUP5 ADD DUP3 PUSH2 0x40E3 JUMP JUMPDEST POP PUSH1 0x60 DUP2 ADD MLOAD PUSH2 0x3F43 PUSH1 0x60 DUP5 ADD DUP3 PUSH2 0x40E3 JUMP JUMPDEST POP PUSH1 0x80 DUP2 ADD MLOAD PUSH2 0x3F56 PUSH1 0x80 DUP5 ADD DUP3 PUSH2 0x40E3 JUMP JUMPDEST POP PUSH1 0xA0 DUP2 ADD MLOAD PUSH2 0x3F69 PUSH1 0xA0 DUP5 ADD DUP3 PUSH2 0x40E3 JUMP JUMPDEST POP PUSH1 0xC0 DUP2 ADD MLOAD PUSH2 0x3F7C PUSH1 0xC0 DUP5 ADD DUP3 PUSH2 0x40E3 JUMP JUMPDEST POP PUSH1 0xE0 DUP2 ADD MLOAD PUSH2 0x3F8F PUSH1 0xE0 DUP5 ADD DUP3 PUSH2 0x40E3 JUMP JUMPDEST POP PUSH2 0x100 DUP1 DUP3 ADD MLOAD PUSH2 0x3FA3 DUP3 DUP6 ADD DUP3 PUSH2 0x40E3 JUMP JUMPDEST POP POP PUSH2 0x120 DUP1 DUP3 ADD MLOAD PUSH2 0x3FB8 DUP3 DUP6 ADD DUP3 PUSH2 0x40E3 JUMP JUMPDEST POP POP POP POP JUMP JUMPDEST DUP1 MLOAD PUSH1 0x1 PUSH1 0x1 PUSH1 0xA0 SHL SUB AND DUP3 MSTORE PUSH1 0x20 DUP1 DUP3 ADD MLOAD SWAP1 DUP4 ADD MSTORE PUSH1 0x40 SWAP1 DUP2 ADD MLOAD SWAP2 ADD MSTORE JUMP JUMPDEST DUP1 MLOAD DUP3 MSTORE PUSH1 0x20 DUP2 ADD MLOAD PUSH1 0x20 DUP4 ADD MSTORE PUSH1 0x40 DUP2 ADD MLOAD PUSH1 0x40 DUP4 ADD MSTORE PUSH1 0x60 DUP2 ADD MLOAD PUSH1 0x60 DUP4 ADD MSTORE PUSH1 0x80 DUP2 ADD MLOAD PUSH1 0x80 DUP4 ADD MSTORE PUSH1 0xA0 DUP2 ADD MLOAD PUSH1 0xA0 DUP4 ADD MSTORE PUSH1 0xC0 DUP2 ADD MLOAD PUSH1 0xC0 DUP4 ADD MSTORE PUSH1 0xE0 DUP2 ADD MLOAD PUSH1 0xE0 DUP4 ADD MSTORE POP POP JUMP JUMPDEST DUP1 MLOAD DUP3 MSTORE PUSH1 0x20 DUP2 ADD MLOAD PUSH1 0x20 DUP4 ADD MSTORE PUSH1 0x40 DUP2 ADD MLOAD PUSH1 0x40 DUP4 ADD MSTORE PUSH1 0x60 DUP2 ADD MLOAD PUSH1 0x60 DUP4 ADD MSTORE PUSH1 0x80 DUP2 ADD MLOAD PUSH1 0x80 DUP4 ADD MSTORE PUSH1 0xA0 DUP2 ADD MLOAD PUSH1 0xA0 DUP4 ADD MSTORE PUSH1 0xC0 DUP2 ADD MLOAD PUSH1 0xC0 DUP4 ADD MSTORE PUSH1 0xE0 DUP2 ADD MLOAD PUSH1 0xE0 DUP4 ADD MSTORE PUSH2 0x100 DUP1 DUP3 ADD MLOAD DUP2 DUP5 ADD MSTORE POP POP POP JUMP JUMPDEST DUP1 MLOAD DUP3 MSTORE PUSH1 0x20 DUP1 DUP3 ADD MLOAD SWAP1 DUP4 ADD MSTORE PUSH1 0x40 SWAP1 DUP2 ADD MLOAD SWAP2 ADD MSTORE JUMP JUMPDEST DUP1 MLOAD PUSH1 0x1 PUSH1 0x1 PUSH1 0xA0 SHL SUB AND DUP3 MSTORE PUSH1 0x20 DUP1 DUP3 ADD MLOAD ISZERO ISZERO SWAP1 DUP4 ADD MSTORE PUSH1 0x40 DUP1 DUP3 ADD MLOAD SWAP1 DUP4 ADD MSTORE PUSH1 0x60 DUP2 ADD MLOAD PUSH1 0x6 DUP2 LT PUSH2 0x40D3 JUMPI INVALID JUMPDEST PUSH1 0x60 DUP4 ADD MSTORE PUSH1 0x80 SWAP1 DUP2 ADD MLOAD SWAP2 ADD MSTORE JUMP JUMPDEST PUSH1 0xFF AND SWAP1 MSTORE JUMP JUMPDEST PUSH1 0x1 PUSH1 0x1 PUSH1 0xA0 SHL SUB SWAP2 SWAP1 SWAP2 AND DUP2 MSTORE PUSH1 0x20 ADD SWAP1 JUMP JUMPDEST PUSH1 0x1 PUSH1 0x1 PUSH1 0xA0 SHL SUB SWAP3 DUP4 AND DUP2 MSTORE SWAP2 AND PUSH1 0x20 DUP3 ADD MSTORE PUSH1 0x40 ADD SWAP1 JUMP JUMPDEST PUSH1 0x0 PUSH1 0x40 DUP3 MSTORE PUSH2 0x412B PUSH1 0x40 DUP4 ADD DUP6 PUSH2 0x3DC0 JUMP JUMPDEST DUP3 DUP2 SUB PUSH1 0x20 DUP5 ADD MSTORE PUSH2 0xCD4 DUP2 DUP6 PUSH2 0x3DC0 JUMP JUMPDEST PUSH1 0x0 PUSH1 0x40 DUP3 MSTORE PUSH2 0x4150 PUSH1 0x40 DUP4 ADD DUP6 PUSH2 0x3DFA JUMP JUMPDEST DUP3 DUP2 SUB PUSH1 0x20 DUP5 ADD MSTORE PUSH2 0xCD4 DUP2 DUP6 PUSH2 0x3DFA JUMP JUMPDEST PUSH1 0x20 DUP1 DUP3 MSTORE DUP3 MLOAD DUP3 DUP3 ADD DUP2 SWAP1 MSTORE PUSH1 0x0 SWAP2 SWAP1 DUP5 DUP3 ADD SWAP1 PUSH1 0x40 DUP6 ADD SWAP1 DUP5 JUMPDEST DUP2 DUP2 LT ISZERO PUSH2 0x41A5 JUMPI PUSH2 0x4191 DUP4 DUP6 MLOAD PUSH2 0x3FE0 JUMP JUMPDEST SWAP3 DUP5 ADD SWAP3 PUSH2 0x100 SWAP3 SWAP1 SWAP3 ADD SWAP2 PUSH1 0x1 ADD PUSH2 0x417E JUMP JUMPDEST POP SWAP1 SWAP7 SWAP6 POP POP POP POP POP POP JUMP JUMPDEST PUSH1 0x0 PUSH1 0x20 DUP3 MSTORE PUSH2 0xCD8 PUSH1 0x20 DUP4 ADD DUP5 PUSH2 0x3E34 JUMP JUMPDEST PUSH1 0x0 PUSH1 0x40 DUP3 MSTORE PUSH2 0x41D7 PUSH1 0x40 DUP4 ADD DUP6 PUSH2 0x3E34 JUMP JUMPDEST DUP3 DUP2 SUB PUSH1 0x20 DUP5 ADD MSTORE PUSH2 0xCD4 DUP2 DUP6 PUSH2 0x3E34 JUMP JUMPDEST PUSH1 0x20 DUP1 DUP3 MSTORE DUP3 MLOAD DUP3 DUP3 ADD DUP2 SWAP1 MSTORE PUSH1 0x0 SWAP2 SWAP1 DUP5 DUP3 ADD SWAP1 PUSH1 0x40 DUP6 ADD SWAP1 DUP5 JUMPDEST DUP2 DUP2 LT ISZERO PUSH2 0x41A5 JUMPI DUP4 MLOAD DUP4 MSTORE SWAP3 DUP5 ADD SWAP3 SWAP2 DUP5 ADD SWAP2 PUSH1 0x1 ADD PUSH2 0x4205 JUMP JUMPDEST SWAP1 ISZERO ISZERO DUP2 MSTORE PUSH1 0x20 ADD SWAP1 JUMP JUMPDEST SWAP1 DUP2 MSTORE PUSH1 0x20 ADD SWAP1 JUMP JUMPDEST PUSH1 0x0 DUP4 DUP3 MSTORE PUSH1 0x40 PUSH1 0x20 DUP4 ADD MSTORE PUSH2 0xE06 PUSH1 0x40 DUP4 ADD DUP5 PUSH2 0x3DC0 JUMP JUMPDEST SWAP3 DUP4 MSTORE PUSH1 0x20 DUP4 ADD SWAP2 SWAP1 SWAP2 MSTORE PUSH1 0x40 DUP3 ADD MSTORE PUSH1 0x60 ADD SWAP1 JUMP JUMPDEST PUSH1 0x20 DUP1 DUP3 MSTORE PUSH1 0x16 SWAP1 DUP3 ADD MSTORE PUSH22 0x4E6F206E546F6B656E20666F722063757272656E6379 PUSH1 0x50 SHL PUSH1 0x40 DUP3 ADD MSTORE PUSH1 0x60 ADD SWAP1 JUMP JUMPDEST PUSH1 0x20 DUP1 DUP3 MSTORE PUSH1 0xD SWAP1 DUP3 ADD MSTORE PUSH13 0x92DCECC2D8D2C840D2DCC8CAF PUSH1 0x9B SHL PUSH1 0x40 DUP3 ADD MSTORE PUSH1 0x60 ADD SWAP1 JUMP JUMPDEST PUSH1 0x20 DUP1 DUP3 MSTORE PUSH1 0xE SWAP1 DUP3 ADD MSTORE PUSH14 0x125B9D985B1A59081B585C9AD95D PUSH1 0x92 SHL PUSH1 0x40 DUP3 ADD MSTORE PUSH1 0x60 ADD SWAP1 JUMP JUMPDEST PUSH1 0x20 DUP1 DUP3 MSTORE PUSH1 0x10 SWAP1 DUP3 ADD MSTORE PUSH16 0x13595D1A1BD9081B9BDD08199BDD5B99 PUSH1 0x82 SHL PUSH1 0x40 DUP3 ADD MSTORE PUSH1 0x60 ADD SWAP1 JUMP JUMPDEST PUSH1 0x20 DUP1 DUP3 MSTORE PUSH1 0x13 SWAP1 DUP3 ADD MSTORE PUSH19 0x125B9D985B1A590818DD5C9C995B98DE481A59 PUSH1 0x6A SHL PUSH1 0x40 DUP3 ADD MSTORE PUSH1 0x60 ADD SWAP1 JUMP JUMPDEST PUSH1 0x20 DUP1 DUP3 MSTORE PUSH1 0x10 SWAP1 DUP3 ADD MSTORE PUSH16 0x151BDAD95B881B9BDD081B1A5CDD1959 PUSH1 0x82 SHL PUSH1 0x40 DUP3 ADD MSTORE PUSH1 0x60 ADD SWAP1 JUMP JUMPDEST PUSH1 0xC0 DUP2 ADD PUSH2 0xA5B DUP3 DUP5 PUSH2 0x3EA5 JUMP JUMPDEST PUSH1 0x0 PUSH2 0x100 DUP1 DUP4 ADD PUSH2 0x4384 DUP5 DUP9 PUSH2 0x3EA5 JUMP JUMPDEST PUSH1 0xC0 DUP5 ADD SWAP2 SWAP1 SWAP2 MSTORE DUP5 MLOAD SWAP1 DUP2 SWAP1 MSTORE PUSH2 0x120 DUP4 ADD SWAP1 PUSH1 0x20 SWAP1 DUP2 DUP8 ADD DUP5 JUMPDEST DUP3 DUP2 LT ISZERO PUSH2 0x43EA JUMPI DUP2 MLOAD DUP1 MLOAD PUSH2 0xFFFF AND DUP7 MSTORE DUP5 DUP2 ADD MLOAD DUP6 DUP8 ADD MSTORE PUSH1 0x40 DUP1 DUP3 ADD MLOAD SWAP1 DUP8 ADD MSTORE PUSH1 0x60 DUP1 DUP3 ADD MLOAD SWAP1 DUP8 ADD MSTORE PUSH1 0x80 SWAP1 DUP2 ADD MLOAD SWAP1 DUP7 ADD MSTORE PUSH1 0xA0 SWAP1 SWAP5 ADD SWAP4 SWAP1 DUP4 ADD SWAP1 PUSH1 0x1 ADD PUSH2 0x43A0 JUMP JUMPDEST POP POP POP POP DUP3 DUP2 SUB PUSH1 0xE0 DUP5 ADD MSTORE PUSH2 0x10F7 DUP2 DUP6 PUSH2 0x3E34 JUMP JUMPDEST PUSH2 0x140 DUP2 ADD PUSH2 0xA5B DUP3 DUP5 PUSH2 0x3F00 JUMP JUMPDEST PUSH2 0x1A0 DUP2 ADD PUSH2 0x441E DUP3 DUP6 PUSH2 0x3F00 JUMP JUMPDEST PUSH2 0xCD8 PUSH2 0x140 DUP4 ADD DUP5 PUSH2 0x3FBE JUMP JUMPDEST PUSH1 0x0 PUSH2 0x100 DUP3 ADD SWAP1 POP PUSH1 0x1 DUP1 PUSH1 0xA0 SHL SUB DUP1 DUP6 MLOAD AND DUP4 MSTORE PUSH1 0xFF PUSH1 0x20 DUP7 ADD MLOAD AND PUSH1 0x20 DUP5 ADD MSTORE PUSH1 0x40 DUP6 ADD MLOAD ISZERO ISZERO PUSH1 0x40 DUP5 ADD MSTORE PUSH1 0xFF PUSH1 0x60 DUP7 ADD MLOAD AND PUSH1 0x60 DUP5 ADD MSTORE PUSH1 0xFF PUSH1 0x80 DUP7 ADD MLOAD AND PUSH1 0x80 DUP5 ADD MSTORE PUSH1 0xFF PUSH1 0xA0 DUP7 ADD MLOAD AND PUSH1 0xA0 DUP5 ADD MSTORE DUP1 DUP5 MLOAD AND PUSH1 0xC0 DUP5 ADD MSTORE POP PUSH1 0xFF PUSH1 0x20 DUP5 ADD MLOAD AND PUSH1 0xE0 DUP4 ADD MSTORE SWAP4 SWAP3 POP POP POP JUMP JUMPDEST PUSH2 0x100 DUP2 ADD PUSH2 0xA5B DUP3 DUP5 PUSH2 0x3FE0 JUMP JUMPDEST PUSH2 0x120 DUP2 ADD PUSH2 0xA5B DUP3 DUP5 PUSH2 0x402E JUMP JUMPDEST PUSH1 0x60 DUP2 ADD PUSH2 0xA5B DUP3 DUP5 PUSH2 0x4088 JUMP JUMPDEST PUSH2 0x1C0 DUP2 ADD PUSH2 0x44DB DUP3 DUP8 PUSH2 0x4088 JUMP JUMPDEST PUSH2 0x44E8 PUSH1 0x60 DUP4 ADD DUP7 PUSH2 0x402E JUMP JUMPDEST PUSH2 0x180 DUP3 ADD SWAP4 SWAP1 SWAP4 MSTORE PUSH2 0x1A0 ADD MSTORE SWAP3 SWAP2 POP POP JUMP JUMPDEST PUSH2 0x140 DUP2 ADD PUSH2 0x450B DUP3 DUP6 PUSH2 0x40A1 JUMP JUMPDEST PUSH2 0xCD8 PUSH1 0xA0 DUP4 ADD DUP5 PUSH2 0x40A1 JUMP JUMPDEST PUSH2 0x240 DUP2 ADD PUSH2 0x4527 DUP3 DUP8 PUSH2 0x40A1 JUMP JUMPDEST PUSH2 0x4534 PUSH1 0xA0 DUP4 ADD DUP7 PUSH2 0x40A1 JUMP JUMPDEST DUP4 MLOAD PUSH2 0x140 DUP4 ADD MSTORE PUSH1 0x20 DUP5 ADD MLOAD PUSH2 0x160 DUP4 ADD MSTORE PUSH1 0x40 DUP5 ADD MLOAD PUSH2 0x180 DUP4 ADD MSTORE PUSH1 0x60 DUP5 ADD MLOAD PUSH2 0x1A0 DUP4 ADD MSTORE PUSH1 0x80 DUP5 ADD MLOAD PUSH2 0x1C0 DUP4 ADD MSTORE PUSH2 0x1131 PUSH2 0x1E0 DUP4 ADD DUP5 PUSH2 0x3FBE JUMP JUMPDEST PUSH2 0xFFFF SWAP2 SWAP1 SWAP2 AND DUP2 MSTORE PUSH1 0x20 ADD SWAP1 JUMP JUMPDEST PUSH2 0xFFFF SWAP6 SWAP1 SWAP6 AND DUP6 MSTORE PUSH1 0x20 DUP6 ADD SWAP4 SWAP1 SWAP4 MSTORE PUSH1 0x40 DUP5 ADD SWAP2 SWAP1 SWAP2 MSTORE PUSH1 0x1 PUSH1 0x1 PUSH1 0xA0 SHL SUB AND PUSH1 0x60 DUP4 ADD MSTORE ISZERO ISZERO PUSH1 0x80 DUP3 ADD MSTORE PUSH1 0xA0 ADD SWAP1 JUMP JUMPDEST PUSH2 0xFFFF SWAP9 SWAP1 SWAP9 AND DUP9 MSTORE PUSH1 0x20 DUP9 ADD SWAP7 SWAP1 SWAP7 MSTORE PUSH1 0x40 DUP8 ADD SWAP5 SWAP1 SWAP5 MSTORE PUSH1 0x60 DUP7 ADD SWAP3 SWAP1 SWAP3 MSTORE PUSH1 0x1 PUSH1 0x1 PUSH1 0xD8 SHL SUB NOT AND PUSH1 0x80 DUP6 ADD MSTORE PUSH1 0xA0 DUP5 ADD MSTORE PUSH1 0xC0 DUP4 ADD MSTORE PUSH1 0xE0 DUP3 ADD MSTORE PUSH2 0x100 ADD SWAP1 JUMP JUMPDEST PUSH5 0xFFFFFFFFFF SWAP2 SWAP1 SWAP2 AND DUP2 MSTORE PUSH1 0x20 ADD SWAP1 JUMP JUMPDEST PUSH1 0xFF SWAP2 SWAP1 SWAP2 AND DUP2 MSTORE PUSH1 0x20 ADD SWAP1 JUMP INVALID LOG2 PUSH5 0x6970667358 0x22 SLT KECCAK256 PUSH26 0x5D5606DA4D694039DD83F038916A11968BBD4426EFE4CB91FAEC LT EXP 0xDC 0xE1 PUSH19 0x64736F6C634300070600330000000000000000 ","sha1":"16fd9ca6ac62274db9442d186f5e0bb3bc0520f9","source":"// SPDX-License-Identifier: GPL-3.0-only\npragma solidity =0.7.6;\npragma abicoder v2;\n\nimport {\n    PrimeRate,\n    ETHRate,\n    Token,\n    CashGroupParameters,\n    MarketParameters,\n    BalanceState,\n    AccountContext,\n    nTokenPortfolio,\n    ETHRateStorage,\n    AssetRateStorage,\n    CashGroupSettings,\n    InterestRateParameters,\n    PrimeCashFactors,\n    PortfolioAsset,\n    AccountBalance,\n    BalanceStorage,\n    Deprecated_AssetRateParameters,\n    RebalancingContextStorage\n} from \"../global/Types.sol\";\nimport {SafeUint256} from \"../math/SafeUint256.sol\";\nimport {SafeInt256} from \"../math/SafeInt256.sol\";\nimport {LibStorage} from \"../global/LibStorage.sol\";\nimport {StorageLayoutV2} from \"../global/StorageLayoutV2.sol\";\nimport {Deployments} from \"../global/Deployments.sol\";\nimport {Constants} from \"../global/Constants.sol\";\n\nimport {ExchangeRate} from \"../internal/valuation/ExchangeRate.sol\";\nimport {CashGroup} from \"../internal/markets/CashGroup.sol\";\nimport {Market} from \"../internal/markets/Market.sol\";\nimport {InterestRateCurve} from \"../internal/markets/InterestRateCurve.sol\";\nimport {DeprecatedAssetRate} from \"../internal/markets/DeprecatedAssetRate.sol\";\nimport {nTokenHandler} from \"../internal/nToken/nTokenHandler.sol\";\nimport {nTokenSupply} from \"../internal/nToken/nTokenSupply.sol\";\nimport {PrimeRateLib} from \"../internal/pCash/PrimeRateLib.sol\";\nimport {PrimeCashExchangeRate} from \"../internal/pCash/PrimeCashExchangeRate.sol\";\nimport {TokenHandler} from \"../internal/balances/TokenHandler.sol\";\nimport {BalanceHandler} from \"../internal/balances/BalanceHandler.sol\";\nimport {PortfolioHandler} from \"../internal/portfolio/PortfolioHandler.sol\";\nimport {BitmapAssetsHandler} from \"../internal/portfolio/BitmapAssetsHandler.sol\";\nimport {AccountContextHandler} from \"../internal/AccountContextHandler.sol\";\nimport {Emitter} from \"../internal/Emitter.sol\";\n\nimport {NotionalViews} from \"../../interfaces/notional/NotionalViews.sol\";\nimport {FreeCollateralExternal} from \"./FreeCollateralExternal.sol\";\nimport {MigrateIncentives} from \"./MigrateIncentives.sol\";\n\ncontract Views is StorageLayoutV2, NotionalViews {\n    using CashGroup for CashGroupParameters;\n    using TokenHandler for Token;\n    using Market for MarketParameters;\n    using PrimeRateLib for PrimeRate;\n    using SafeInt256 for int256;\n    using SafeUint256 for uint256;\n    using BalanceHandler for BalanceState;\n    using nTokenHandler for nTokenPortfolio;\n    using AccountContextHandler for AccountContext;\n\n    function _checkValidCurrency(uint16 currencyId) internal view {\n        require(0 < currencyId && currencyId <= maxCurrencyId, \"Invalid currency id\");\n    }\n\n    /** Governance Parameter Getters **/\n\n    /// @notice Returns the current maximum currency id\n    function getMaxCurrencyId() external view override returns (uint16) {\n        return maxCurrencyId;\n    }\n\n    /// @notice Returns a currency id, a zero means that it is not listed.\n    function getCurrencyId(address tokenAddress)\n        external\n        view\n        override\n        returns (uint16 currencyId)\n    {\n        currencyId = tokenAddressToCurrencyId[tokenAddress];\n        require(currencyId != 0, \"Token not listed\");\n    }\n\n    /// @notice Returns the asset token and underlying token related to a given currency id. If underlying\n    /// token is not set then will return the zero address\n    function getCurrency(uint16 currencyId)\n        external\n        view\n        override\n        returns (Token memory assetToken, Token memory underlyingToken)\n    {\n        _checkValidCurrency(currencyId);\n        assetToken = TokenHandler.getDeprecatedAssetToken(currencyId);\n        underlyingToken = TokenHandler.getUnderlyingToken(currencyId);\n    }\n\n    /// @notice Returns the ETH and Asset rates for a currency as stored, useful for viewing how they are configured\n    function getRateStorage(uint16 currencyId)\n        external\n        view\n        override\n        returns (ETHRateStorage memory ethRate, AssetRateStorage memory assetRate)\n    {\n        _checkValidCurrency(currencyId);\n        mapping(uint256 => ETHRateStorage) storage ethStore = LibStorage.getExchangeRateStorage();\n        mapping(uint256 => AssetRateStorage) storage assetStore = LibStorage.getAssetRateStorage_deprecated();\n        ethRate = ethStore[currencyId];\n        assetRate = assetStore[currencyId];\n    }\n\n    /// @notice Returns a currency and its corresponding asset rate and ETH exchange rates. Note that this does not recalculate\n    /// cToken interest rates, it only retrieves the latest stored rate.\n    function getCurrencyAndRates(uint16 currencyId)\n        external\n        view\n        override\n        returns (\n            Token memory assetToken,\n            Token memory underlyingToken,\n            ETHRate memory ethRate,\n            Deprecated_AssetRateParameters memory assetRate\n        )\n    {\n        _checkValidCurrency(currencyId);\n        assetToken = TokenHandler.getDeprecatedAssetToken(currencyId);\n        underlyingToken = TokenHandler.getUnderlyingToken(currencyId);\n        ethRate = ExchangeRate.buildExchangeRate(currencyId);\n        assetRate = DeprecatedAssetRate.getAdaptedAssetRate(currencyId);\n    }\n\n    /// @notice Returns cash group settings for a currency\n    function getCashGroup(uint16 currencyId)\n        external\n        view\n        override\n        returns (CashGroupSettings memory)\n    {\n        _checkValidCurrency(currencyId);\n        return CashGroup.deserializeCashGroupStorage(currencyId);\n    }\n\n    /// @notice Returns the cash group along with the asset rate for convenience.\n    function getCashGroupAndAssetRate(uint16 currencyId)\n        external\n        view\n        override\n        returns (CashGroupSettings memory cashGroup, Deprecated_AssetRateParameters memory assetRate)\n    {\n        _checkValidCurrency(currencyId);\n        cashGroup = CashGroup.deserializeCashGroupStorage(currencyId);\n        assetRate = DeprecatedAssetRate.getAdaptedAssetRate(currencyId);\n    }\n\n    /// @notice Returns market initialization parameters for a given currency\n    function getInitializationParameters(uint16 currencyId)\n        external view override returns (\n            int256[] memory deprecated_annualizedAnchorRates,\n            int256[] memory proportions\n        ) {\n        _checkValidCurrency(currencyId);\n        uint256 maxMarketIndex = CashGroup.getMaxMarketIndex(currencyId);\n        proportions = nTokenHandler.getInitializationParameters(\n            currencyId,\n            maxMarketIndex\n        );\n    }\n\n    /// @notice Returns nToken deposit parameters for a given currency\n    function getDepositParameters(uint16 currencyId)\n        external\n        view\n        override\n        returns (int256[] memory depositShares, int256[] memory leverageThresholds)\n    {\n        _checkValidCurrency(currencyId);\n        uint256 maxMarketIndex = CashGroup.getMaxMarketIndex(currencyId);\n        (depositShares, leverageThresholds) = nTokenHandler.getDepositParameters(\n            currencyId,\n            maxMarketIndex\n        );\n    }\n\n    function getInterestRateCurve(uint16 currencyId) external view override returns (\n        InterestRateParameters[] memory nextInterestRateCurve,\n        InterestRateParameters[] memory activeInterestRateCurve\n    ) {\n        _checkValidCurrency(currencyId);\n        uint256 maxMarketIndex = CashGroup.getMaxMarketIndex(currencyId);\n        // If no markets are listed, just exit\n        if (maxMarketIndex == 0) return (nextInterestRateCurve, activeInterestRateCurve);\n\n        nextInterestRateCurve = new InterestRateParameters[](maxMarketIndex);\n        activeInterestRateCurve = new InterestRateParameters[](maxMarketIndex);\n\n        for (uint256 i = 1; i <= maxMarketIndex; i++) {\n            nextInterestRateCurve[i - 1] = InterestRateCurve\n                .getNextInterestRateParameters(currencyId, i);\n            activeInterestRateCurve[i - 1] = InterestRateCurve\n                .getActiveInterestRateParameters(currencyId, i);\n        }\n    }\n\n    /// @notice Returns nToken address for a given currency\n    function nTokenAddress(uint16 currencyId) external view override returns (address) {\n        _checkValidCurrency(currencyId);\n        address nToken = nTokenHandler.nTokenAddress(currencyId);\n        require(nToken != address(0), \"No nToken for currency\");\n        return nToken;\n    }\n\n    /// @notice Returns pCash address for a given currency\n    function pCashAddress(uint16 currencyId) external view override returns (address) {\n        _checkValidCurrency(currencyId);\n        return PrimeCashExchangeRate.getCashProxyAddress(currencyId);\n    }\n\n    function pDebtAddress(uint16 currencyId) external view override returns (address) {\n        _checkValidCurrency(currencyId);\n        return PrimeCashExchangeRate.getDebtProxyAddress(currencyId);\n    }\n\n    /// @notice Returns address of the NOTE token\n    function getNoteToken() external pure override returns (address) {\n        return Deployments.NOTE_TOKEN_ADDRESS;\n    }\n\n    /// @notice Returns current ownership status of the contract\n    /// @return owner is the current owner of the Notional system\n    /// @return pendingOwner can claim ownership from the owner\n    function getOwnershipStatus() external view override returns (address, address) {\n        return (owner, pendingOwner);\n    }\n\n    function getGlobalTransferOperatorStatus(address operator) external view override returns (bool isAuthorized) {\n        return globalTransferOperator[operator];\n    }\n\n    function getAuthorizedCallbackContractStatus(address callback) external view override returns (bool isAuthorized) {\n        return authorizedCallbackContract[callback];\n    }\n\n    function getSecondaryIncentiveRewarder(uint16 currencyId) external view override returns (address rewarder) {\n        address tokenAddress = nTokenHandler.nTokenAddress(currencyId);\n        return address(nTokenHandler.getSecondaryRewarder(tokenAddress));\n    }\n\n    /** Global System State View Methods **/\n    function getPrimeFactors(\n        uint16 currencyId,\n        uint256 blockTime\n    ) external view override returns (\n        PrimeRate memory pr,\n        PrimeCashFactors memory factors,\n        uint256 maxUnderlyingSupply,\n        uint256 totalUnderlyingSupply\n    ) {\n        (pr, factors) = PrimeCashExchangeRate.getPrimeCashRateView(currencyId, blockTime);\n        (maxUnderlyingSupply, totalUnderlyingSupply) = pr.getSupplyCap(currencyId);\n    }\n\n    function getPrimeFactorsStored(\n        uint16 currencyId\n    ) external view override returns (PrimeCashFactors memory) {\n        return PrimeCashExchangeRate.getPrimeCashFactors(currencyId);\n    }\n\n    function getPrimeCashHoldingsOracle(uint16 currencyId) external view override returns (address) {\n        return address(PrimeCashExchangeRate.getPrimeCashHoldingsOracle(currencyId));\n    }\n\n    function getPrimeInterestRateCurve(uint16 currencyId) external view override returns (\n        InterestRateParameters memory\n    ) {\n        return InterestRateCurve.getPrimeCashInterestRateParameters(currencyId);\n    }\n\n    function getTotalfCashDebtOutstanding(\n        uint16 currencyId, uint256 maturity\n    ) external view override returns (int256) {\n        return PrimeCashExchangeRate.getTotalfCashDebtOutstanding(currencyId, maturity);\n    }\n\n    /// @notice Returns the asset settlement rate for a given maturity\n    function getSettlementRate(uint16 currencyId, uint40 maturity)\n        external view override returns (PrimeRate memory) {\n        _checkValidCurrency(currencyId);\n        return PrimeRateLib.buildPrimeRateSettlementView(\n            currencyId, maturity, block.timestamp\n        );\n    }\n\n    /// @notice Returns a single market\n    function getMarket(\n        uint16 currencyId,\n        uint256 maturity,\n        uint256 settlementDate\n    )\n        external\n        view\n        override\n        returns (MarketParameters memory)\n    {\n        _checkValidCurrency(currencyId);\n        CashGroupParameters memory cashGroup = CashGroup.buildCashGroupView(currencyId);\n        MarketParameters memory market;\n        market.loadMarketWithSettlementDate(\n            currencyId,\n            maturity,\n            block.timestamp,\n            true,\n            cashGroup.getRateOracleTimeWindow(),\n            settlementDate\n        );\n\n        return market;\n    }\n\n    /// @notice Returns all currently active markets for a currency\n    function getActiveMarkets(uint16 currencyId)\n        external\n        view\n        override\n        returns (MarketParameters[] memory)\n    {\n        _checkValidCurrency(currencyId);\n        return _getActiveMarketsAtBlockTime(currencyId, block.timestamp);\n    }\n\n    /// @notice Returns all active markets for a currency at the specified block time, useful for looking\n    /// at historical markets\n    function getActiveMarketsAtBlockTime(uint16 currencyId, uint32 blockTime)\n        external\n        view\n        override\n        returns (MarketParameters[] memory)\n    {\n        _checkValidCurrency(currencyId);\n        return _getActiveMarketsAtBlockTime(currencyId, blockTime);\n    }\n\n    function _getActiveMarketsAtBlockTime(uint16 currencyId, uint256 blockTime)\n        internal\n        view\n        returns (MarketParameters[] memory)\n    {\n        CashGroupParameters memory cashGroup = CashGroup.buildCashGroupView(currencyId);\n        MarketParameters[] memory markets = new MarketParameters[](cashGroup.maxMarketIndex);\n\n        for (uint256 i = 0; i < cashGroup.maxMarketIndex; i++) {\n            cashGroup.loadMarket(markets[i], i + 1, true, blockTime);\n        }\n\n        return markets;\n    }\n\n    /// @notice Returns the current reserve balance for a currency\n    function getReserveBalance(uint16 currencyId)\n        external\n        view\n        override\n        returns (int256 reserveBalance)\n    {\n        _checkValidCurrency(currencyId);\n        reserveBalance = BalanceHandler.getPositiveCashBalance(Constants.FEE_RESERVE, currencyId);\n    }\n\n    function getNTokenPortfolio(address tokenAddress)\n        external\n        view\n        override\n        returns (PortfolioAsset[] memory liquidityTokens, PortfolioAsset[] memory netfCashAssets)\n    {\n        // prettier-ignore\n        (\n            uint16 currencyId,\n            /* incentiveRate */,\n            uint256 lastInitializedTime,\n            uint8 assetArrayLength,\n            /* bytes5 parameters */\n        ) = nTokenHandler.getNTokenContext(tokenAddress);\n\n        liquidityTokens = PortfolioHandler.getSortedPortfolio(tokenAddress, assetArrayLength);\n\n        netfCashAssets = BitmapAssetsHandler.getifCashArray(\n            tokenAddress,\n            currencyId,\n            lastInitializedTime\n        );\n    }\n\n    function getNTokenAccount(address tokenAddress)\n        external\n        view\n        override\n        returns (\n            uint16 currencyId,\n            uint256 totalSupply,\n            uint256 incentiveAnnualEmissionRate,\n            uint256 lastInitializedTime,\n            bytes5 nTokenParameters,\n            int256 cashBalance,\n            uint256 accumulatedNOTEPerNToken,\n            uint256 lastAccumulatedTime\n        )\n    {\n        (\n            currencyId,\n            incentiveAnnualEmissionRate,\n            lastInitializedTime,\n            /* assetArrayLength */,\n            nTokenParameters\n        ) = nTokenHandler.getNTokenContext(tokenAddress);\n\n        // prettier-ignore\n        (\n            totalSupply,\n            accumulatedNOTEPerNToken,\n            lastAccumulatedTime\n        ) = nTokenSupply.getStoredNTokenSupplyFactors(tokenAddress);\n\n        // prettier-ignore\n        (\n            cashBalance,\n            /* */,\n            /* */,\n            /* */\n        ) = BalanceHandler.getBalanceStorageView(tokenAddress, currencyId, block.timestamp);\n    }\n\n    /** Account Specific View Methods **/\n\n    /// @notice Returns all account details in a single view\n    function getAccount(address account)\n        external\n        view\n        override\n        returns (\n            AccountContext memory accountContext,\n            AccountBalance[] memory accountBalances,\n            PortfolioAsset[] memory portfolio\n        )\n    {\n        accountContext = AccountContextHandler.getAccountContext(account);\n        accountBalances = new AccountBalance[](10);\n\n        uint256 i = 0;\n        if (accountContext.isBitmapEnabled()) {\n            AccountBalance memory b = accountBalances[0];\n            b.currencyId = accountContext.bitmapCurrencyId;\n            (\n                b.cashBalance,\n                b.nTokenBalance,\n                b.lastClaimTime,\n                b.accountIncentiveDebt\n            ) = BalanceHandler.getBalanceStorageView(account, accountContext.bitmapCurrencyId, block.timestamp);\n            i += 1;\n        }\n\n        bytes18 currencies = accountContext.activeCurrencies;\n        while (currencies != 0) {\n            AccountBalance memory b = accountBalances[i];\n            b.currencyId = uint16(bytes2(currencies) & Constants.UNMASK_FLAGS);\n            if (b.currencyId == 0) break;\n\n            (\n                b.cashBalance,\n                b.nTokenBalance,\n                b.lastClaimTime,\n                b.accountIncentiveDebt\n            ) = BalanceHandler.getBalanceStorageView(account, b.currencyId, block.timestamp);\n            i += 1;\n            currencies = currencies << 16;\n        }\n\n        if (accountContext.isBitmapEnabled()) {\n            portfolio = BitmapAssetsHandler.getifCashArray(\n                account,\n                accountContext.bitmapCurrencyId,\n                accountContext.nextSettleTime\n            );\n        } else {\n            portfolio = PortfolioHandler.getSortedPortfolio(\n                account,\n                accountContext.assetArrayLength\n            );\n        }\n    }\n\n    /// @notice Returns account context\n    function getAccountContext(address account) external view override returns (AccountContext memory) {\n        return AccountContextHandler.getAccountContext(account);\n    }\n\n    function getAccountPrimeDebtBalance(uint16 currencyId, address account) external view override returns (\n        int256 debtBalance\n    ) {\n        mapping(address => mapping(uint256 => BalanceStorage)) storage store = LibStorage.getBalanceStorage();\n        BalanceStorage storage balanceStorage = store[account][currencyId];\n        int256 cashBalance = balanceStorage.cashBalance;\n\n        // Only return cash balances less than zero\n        debtBalance = cashBalance < 0 ? cashBalance : 0;\n    }\n\n    /// @notice Returns account balances for a given currency\n    function getAccountBalance(uint16 currencyId, address account) external view override returns (\n        int256 cashBalance,\n        int256 nTokenBalance,\n        uint256 lastClaimTime\n    ) {\n        _checkValidCurrency(currencyId);\n        // prettier-ignore\n        (\n            cashBalance,\n            nTokenBalance,\n            lastClaimTime,\n            /* */\n        ) = BalanceHandler.getBalanceStorageView(account, currencyId, block.timestamp);\n    }\n\n    /// @notice Returns the balance of figure for prime cash for the prime cash proxy, the logic is slightly modified\n    /// for the nToken account because it needs to return the sum of all cash held in markets.\n    function getBalanceOfPrimeCash(\n        uint16 currencyId,\n        address account\n    ) external view override returns (int256 cashBalance) {\n        (cashBalance, /* */, /* */, /* */) = BalanceHandler.getBalanceStorageView(account, currencyId, block.timestamp);\n\n        if (account == nTokenHandler.nTokenAddress(currencyId)) {\n            MarketParameters[] memory markets = _getActiveMarketsAtBlockTime(currencyId, block.timestamp);\n            for (uint256 i; i < markets.length; i++) cashBalance = cashBalance.add(markets[i].totalPrimeCash);\n        }\n    }\n\n    /// @notice Returns account portfolio of assets\n    function getAccountPortfolio(address account) external view override returns (PortfolioAsset[] memory) {\n        AccountContext memory accountContext = AccountContextHandler.getAccountContext(account);\n        if (accountContext.isBitmapEnabled()) {\n            return\n                BitmapAssetsHandler.getifCashArray(\n                    account,\n                    accountContext.bitmapCurrencyId,\n                    accountContext.nextSettleTime\n                );\n        } else {\n            return PortfolioHandler.getSortedPortfolio(account, accountContext.assetArrayLength);\n        }\n    }\n\n    /// @notice Returns the fCash amount at the specified maturity for a bitmapped portfolio\n    function getfCashNotional(address account, uint16 currencyId, uint256 maturity) external view override returns (int256) {\n        _checkValidCurrency(currencyId);\n        return BitmapAssetsHandler.getifCashNotional(account, currencyId, maturity);\n    }\n\n    /// @notice Returns the assets bitmap for an account\n    function getAssetsBitmap(address account, uint16 currencyId) external view override returns (bytes32) {\n        _checkValidCurrency(currencyId);\n        return BitmapAssetsHandler.getAssetsBitmap(account, currencyId);\n    }\n\n    /// @notice Returns free collateral of an account along with an array of the individual net available\n    /// asset cash amounts\n    function getFreeCollateral(address account) external view override returns (int256, int256[] memory) {\n        return FreeCollateralExternal.getFreeCollateralView(account);\n    }\n\n    /// @notice Returns the current treasury manager contract\n    function getTreasuryManager() external view override returns (address) {\n        return treasuryManagerContract;\n    }\n\n    /// @notice Returns the current reserve buffer for a currency\n    /// @param currencyId refers to the currency of the reserve\n    function getReserveBuffer(uint16 currencyId) external view override returns (uint256) {\n        return reserveBuffer[currencyId];\n    }\n\n    function getRebalancingTarget(uint16 currencyId, address holding) external view override returns (uint8) {\n        mapping(address => uint8) storage rebalancingTargets = LibStorage.getRebalancingTargets()[currencyId];\n        return rebalancingTargets[holding];\n    }\n\n    function getRebalancingCooldown(uint16 currencyId) external view override returns (uint40) {\n        mapping(uint16 => RebalancingContextStorage) storage store = LibStorage.getRebalancingContext();\n        return store[currencyId].rebalancingCooldownInSeconds;\n    }\n\n    function getStoredTokenBalances(address[] calldata tokens) external view override returns (uint256[] memory balances) {\n        mapping(address => uint256) storage store = LibStorage.getStoredTokenBalances();\n        balances = new uint256[](tokens.length);\n        for (uint256 i; i < tokens.length; ++i) {\n            balances[i] = store[tokens[i]];\n        }\n    }\n\n    function decodeERC1155Id(uint256 id) external view override returns (\n        uint16 currencyId,\n        uint256 maturity,\n        uint256 assetType,\n        address vaultAddress,\n        bool isfCashDebt\n    ) {\n        return Emitter.decodeId(id);\n    }\n\n    // Encodes an ERC1155 id\n    function encode(\n        uint16 currencyId,\n        uint256 maturity,\n        uint256 assetType,\n        address vaultAddress,\n        bool isfCashDebt\n    ) external pure override returns (uint256) {\n        return Emitter.encodeId(currencyId, maturity, assetType, vaultAddress, isfCashDebt);\n    }\n\n    /// @notice Get a list of deployed library addresses (sorted by library name)\n    function getLibInfo() external pure returns (address, address) {\n        return (address(FreeCollateralExternal), address(MigrateIncentives));\n    }\n\n    fallback() external {\n        revert(\"Method not found\");\n    }\n}\n","sourcePath":"contracts/external/Views.sol","type":"contract","deployment":{"address":"0xb15167FfF26202Aa3d20Ecfd7f46a34Fa4126e49","chainid":"42161","blockHeight":86533965}}