{"abi":[{"anonymous":false,"inputs":[{"indexed":true,"internalType":"address","name":"vault","type":"address"},{"indexed":true,"internalType":"uint16","name":"currencyId","type":"uint16"},{"indexed":false,"internalType":"uint256","name":"totalUsedBorrowCapacity","type":"uint256"}],"name":"VaultBorrowCapacityChange","type":"event"},{"anonymous":false,"inputs":[{"indexed":true,"internalType":"address","name":"vaultAddress","type":"address"},{"indexed":false,"internalType":"bool","name":"disableDeleverage","type":"bool"}],"name":"VaultDeleverageStatus","type":"event"},{"anonymous":false,"inputs":[{"indexed":true,"internalType":"address","name":"vault","type":"address"},{"indexed":false,"internalType":"bool","name":"enabled","type":"bool"}],"name":"VaultPauseStatus","type":"event"},{"anonymous":false,"inputs":[{"indexed":true,"internalType":"address","name":"vault","type":"address"},{"indexed":true,"internalType":"address","name":"account","type":"address"},{"indexed":true,"internalType":"uint16","name":"currencyId","type":"uint16"},{"indexed":false,"internalType":"uint256","name":"maturity","type":"uint256"},{"indexed":false,"internalType":"int256","name":"netUnderlyingDebt","type":"int256"},{"indexed":false,"internalType":"int256","name":"netPrimeSupply","type":"int256"}],"name":"VaultSecondaryTransaction","type":"event"},{"anonymous":false,"inputs":[{"indexed":true,"internalType":"address","name":"vault","type":"address"},{"indexed":true,"internalType":"uint16","name":"currencyId","type":"uint16"},{"indexed":false,"internalType":"uint80","name":"maxSecondaryBorrowCapacity","type":"uint80"}],"name":"VaultUpdateSecondaryBorrowCapacity","type":"event"},{"anonymous":false,"inputs":[{"indexed":true,"internalType":"address","name":"vault","type":"address"},{"indexed":false,"internalType":"bool","name":"enabled","type":"bool"},{"indexed":false,"internalType":"uint80","name":"maxPrimaryBorrowCapacity","type":"uint80"}],"name":"VaultUpdated","type":"event"},{"inputs":[{"internalType":"address","name":"account","type":"address"},{"internalType":"uint256","name":"maturity","type":"uint256"},{"internalType":"uint256[2]","name":"underlyingToBorrow","type":"uint256[2]"},{"internalType":"uint32[2]","name":"maxBorrowRate","type":"uint32[2]"},{"internalType":"uint32[2]","name":"minRollLendRate","type":"uint32[2]"}],"name":"borrowSecondaryCurrencyToVault","outputs":[{"internalType":"int256[2]","name":"underlyingTokensTransferred","type":"int256[2]"}],"stateMutability":"nonpayable","type":"function"},{"inputs":[],"name":"getLibInfo","outputs":[{"internalType":"address","name":"","type":"address"}],"stateMutability":"pure","type":"function"},{"inputs":[],"name":"owner","outputs":[{"internalType":"address","name":"","type":"address"}],"stateMutability":"view","type":"function"},{"inputs":[],"name":"pauseGuardian","outputs":[{"internalType":"address","name":"","type":"address"}],"stateMutability":"view","type":"function"},{"inputs":[],"name":"pauseRouter","outputs":[{"internalType":"address","name":"","type":"address"}],"stateMutability":"view","type":"function"},{"inputs":[{"internalType":"address","name":"account","type":"address"},{"internalType":"uint256","name":"maturity","type":"uint256"},{"internalType":"uint256[2]","name":"underlyingToRepay","type":"uint256[2]"},{"internalType":"uint32[2]","name":"minLendRate","type":"uint32[2]"}],"name":"repaySecondaryCurrencyFromVault","outputs":[{"internalType":"int256[2]","name":"underlyingDepositExternal","type":"int256[2]"}],"stateMutability":"payable","type":"function"},{"inputs":[{"internalType":"address","name":"vaultAddress","type":"address"},{"internalType":"uint80","name":"maxVaultBorrowCapacity","type":"uint80"}],"name":"setMaxBorrowCapacity","outputs":[],"stateMutability":"nonpayable","type":"function"},{"inputs":[{"internalType":"address","name":"vaultAddress","type":"address"},{"internalType":"bool","name":"disableDeleverage","type":"bool"}],"name":"setVaultDeleverageStatus","outputs":[],"stateMutability":"nonpayable","type":"function"},{"inputs":[{"internalType":"address","name":"vaultAddress","type":"address"},{"internalType":"bool","name":"enable","type":"bool"}],"name":"setVaultPauseStatus","outputs":[],"stateMutability":"nonpayable","type":"function"},{"inputs":[{"internalType":"address","name":"vault","type":"address"},{"internalType":"address","name":"account","type":"address"}],"name":"settleSecondaryBorrowForAccount","outputs":[],"stateMutability":"nonpayable","type":"function"},{"inputs":[{"internalType":"address","name":"vaultAddress","type":"address"},{"internalType":"uint16","name":"secondaryCurrencyId","type":"uint16"},{"internalType":"uint80","name":"maxBorrowCapacity","type":"uint80"}],"name":"updateSecondaryBorrowCapacity","outputs":[],"stateMutability":"nonpayable","type":"function"},{"inputs":[{"internalType":"address","name":"vaultAddress","type":"address"},{"components":[{"internalType":"uint16","name":"flags","type":"uint16"},{"internalType":"uint16","name":"borrowCurrencyId","type":"uint16"},{"internalType":"uint256","name":"minAccountBorrowSize","type":"uint256"},{"internalType":"uint16","name":"minCollateralRatioBPS","type":"uint16"},{"internalType":"uint8","name":"feeRate5BPS","type":"uint8"},{"internalType":"uint8","name":"liquidationRate","type":"uint8"},{"internalType":"uint8","name":"reserveFeeShare","type":"uint8"},{"internalType":"uint8","name":"maxBorrowMarketIndex","type":"uint8"},{"internalType":"uint16","name":"maxDeleverageCollateralRatioBPS","type":"uint16"},{"internalType":"uint16[2]","name":"secondaryBorrowCurrencies","type":"uint16[2]"},{"internalType":"uint16","name":"maxRequiredAccountCollateralRatioBPS","type":"uint16"},{"internalType":"uint256[2]","name":"minAccountSecondaryBorrow","type":"uint256[2]"},{"internalType":"uint8","name":"excessCashLiquidationBonus","type":"uint8"}],"internalType":"struct VaultConfigParams","name":"vaultParams","type":"tuple"},{"internalType":"uint80","name":"maxPrimaryBorrowCapacity","type":"uint80"}],"name":"updateVault","outputs":[],"stateMutability":"nonpayable","type":"function"}],"bytecode":"608060405234801561001057600080fd5b50615f3d80620000216000396000f3fe6080604052600436106100a75760003560e01c806369a6d1cc1161006457806369a6d1cc1461017957806382463367146101995780638281ec6a146101ae5780638da5cb5b146101ce578063b67138aa146101e3578063c4c96dae14610203576100a7565b80630bc08cdc146100ac57806324a3d622146100e2578063291afdf31461010457806354cceaf71461012657806356f428c4146101465780636966692c14610166575b600080fd5b3480156100b857600080fd5b506100cc6100c7366004615772565b610218565b6040516100d99190615b56565b60405180910390f35b3480156100ee57600080fd5b506100f761039c565b6040516100d99190615b05565b34801561011057600080fd5b5061012461011f3660046156e5565b6103ab565b005b34801561013257600080fd5b5061012461014136600461557a565b610494565b34801561015257600080fd5b5061012461016136600461557a565b610514565b6100cc610174366004615722565b610588565b34801561018557600080fd5b506101246101943660046155ab565b610671565b3480156101a557600080fd5b506100f76107c7565b3480156101ba57600080fd5b506101246101c9366004615542565b6107d6565b3480156101da57600080fd5b506100f76107fe565b3480156101ef57600080fd5b506101246101fe3660046157d5565b610814565b34801561020f57600080fd5b506100f76108b3565b610220614eca565b600061022b336108cb565b90506102388160016108f6565b61024157600080fd5b6001600160a01b03871633141561025757600080fd5b6102608161090d565b61026957600080fd5b60006102748261093c565b90506000806000610286858c8661099c565b925092509250600080846000141580156102a057508b8514155b80156102b257506102b28760026108f6565b156102dc576102d6878e876102c688610a30565b6102cf88610a30565b8b8f610a3e565b90925090505b6102ec878e8e8e8e87878d610b3d565b9092509050600082121561031b5760405162461bcd60e51b815260040161031290615c43565b60405180910390fd5b600081121561033c5760405162461bcd60e51b815260040161031290615c43565b610369338e89610140015160006002811061035357fe5b6020020151858a60005b60200201516000610b9b565b8852610140870151602001516103869033908f90848a600161035d565b602089015250959b9a5050505050505050505050565b6002546001600160a01b031681565b600054600160201b90046001600160a01b031633146103dc5760405162461bcd60e51b815260040161031290615cc4565b60006103e7846108cb565b905060006103f88461ffff16610c1a565b905080602001511561040957600080fd5b6101408201515161ffff8581169116148061043357506101408201516020015161ffff8581169116145b61043c57600080fd5b610447858585610c2d565b8361ffff16856001600160a01b03167f8f868f60e49b80b48ee5de8b7bc703cfc4b5c826a05d3ea1b00cf4159c155a90856040516104859190615e48565b60405180910390a35050505050565b600054600160201b90046001600160a01b031633146104c55760405162461bcd60e51b815260040161031290615cc4565b6104cf8282610c81565b816001600160a01b03167f9066b2f4ad4552447bd5ddeae159ff6b5a28a4eec9421da5a9d502deb99974e1826040516105089190615bac565b60405180910390a25050565b600054600160201b90046001600160a01b031633146105455760405162461bcd60e51b815260040161031290615cc4565b61054f8282610ce2565b816001600160a01b03167f7c51c6aa77346c54cb051d9e792f9b7bde5c28a9b57e6fb2d2dd727b38438ca9826040516105089190615bac565b610590614eca565b6001600160a01b0385163314156105a657600080fd5b60006105b1336108cb565b90506105be8160016108f6565b6105c757600080fd5b6105d08161090d565b6105d957600080fd5b60006105e48261093c565b9050600080610611848a8a6105ff8b865b6020020135610d41565b61060a8c60016105f5565b888c610a3e565b91509150610642338a86610140015160006002811061062c57fe5b6020020151858760005b60200201516001610b9b565b85526101408401516020015161065f9033908b9084876001610636565b60208601525092979650505050505050565b600054600160201b90046001600160a01b031633146106a25760405162461bcd60e51b815260040161031290615cc4565b6106af8260400151610d5b565b63ffffffff1660408301526101608201516106d19060005b6020020151610d5b565b63ffffffff168261016001516000600281106106e957fe5b60200201526101608201516106ff9060016106c7565b63ffffffff1682610160015160016002811061071757fe5b6020020181815250506000826040516020016107339190615cf9565b604051602081830303815290604052806020019051810190610755919061592f565b90506107618482610d86565b61077084826020015184610c2d565b80516040516001918216909114906001600160a01b038616907fb441d7ca09abc712b4504256717707ce40e8d43895266b46abf9cd58619c07dc906107b89084908790615bb7565b60405180910390a25050505050565b6001546001600160a01b031681565b3330146107e257600080fd5b60006107ed836108cb565b90506107f98183611212565b505050565b600054600160201b90046001600160a01b031681565b600054600160201b90046001600160a01b031633146108455760405162461bcd60e51b815260040161031290615cc4565b6000610850836108cb565b905061086183826040015184610c2d565b6001600160a01b0383167fb441d7ca09abc712b4504256717707ce40e8d43895266b46abf9cd58619c07dc6108978360016108f6565b846040516108a6929190615bb7565b60405180910390a2505050565b73__TradingAction_________________________90565b6108d3614ee8565b6108dc8261144d565b90506108eb816040015161163a565b610160820152919050565b602082015161ffff80831691831616145b92915050565b6101408101515160009061ffff1615158061093457506101408201516020015161ffff1615155b90505b919050565b610944614f81565b6101408201515161ffff161561096e5761014082015161096b9060005b602002015161163a565b81525b6101408201516020015161ffff161561093757610140820151610992906001610961565b6020820152919050565b6000806000806109aa61164c565b6001600160a01b038781166000908152602092835260408082208b5190931682529190925290208054865164ffffffffff821696509192506109fe91908690600160281b90046001600160501b0316611659565b9250610a24856001602002015182548690600160781b90046001600160501b0316611659565b91505093509350939050565b600061093460001983611697565b600080610a528989898989896001806116e5565b50508515610a8c57610140890151518451610a88908b90838b8b8960005b602002016020810190610a839190615a56565b611917565b9250505b8415610ab75761014089015160209081015190850151610ab3908b90838b8a896001610a70565b9150505b600080610ac88a8c600001516119c5565b91509150610afb8a8c600001518d6101400151600060028110610ae757fe5b60200201518c610af687610a30565b611a42565b8a516101408c015160200151610b17918c918c610af686610a30565b610b218483611ad8565b9350610b2d8382611ad8565b9250505097509795505050505050565b6000808080610b6f8c8c8c610b5a610b558e876105f5565b610a30565b610b68610b558f60016105f5565b8a8e610a3e565b9092509050610b7e8783611ad8565b610b888783611ad8565b9350935050509850989650505050505050565b60008084138015610ba95750815b15610bce57610bba87878787611aee565b610bc8868686866000611b94565b50610c10565b6000841315610bf757610bf0610b55610beb898888886000611b94565b610d41565b9050610c10565b610c0d8786610c0587610a30565b866000611bc7565b90505b9695505050505050565b610c22614fae565b610934826001611c3d565b6000610c37611cd7565b6001600160a01b0390941660009081526020948552604080822061ffff90951682529390945250912080546001600160501b039092166001600160501b0319909216919091179055565b6000610c8b611ce4565b6001600160a01b038416600090815260208290526040902080549192509061ffff168315610ccb57815461ffff1916610100821761ffff16178255610cdb565b815461ffff191661feff82161782555b5050505050565b6000610cec611ce4565b6001600160a01b038416600090815260208290526040902080549192509061ffff168315610d2b57815461ffff19166001821761ffff16178255610cdb565b815461ffff191661fffe91909116179055505050565b60006001600160ff1b03821115610d5757600080fd5b5090565b60008062ffffff831115610d78576017610d7484611cf1565b0390505b82811c60081b179050919050565b6000610d90611ce4565b90506000610d9d8461144d565b9050826020015161ffff1660001415610db557600080fd5b604081015161ffff161580610dd95750826020015161ffff16816040015161ffff16145b610de257600080fd5b8260a0015160ff1660641315610df757600080fd5b60006064808560a0015160ff1603029050836060015161ffff168161ffff1610610e2057600080fd5b83610100015161ffff16846060015161ffff1610610e3d57600080fd5b83610140015161ffff1684610100015161ffff1610610e5b57600080fd5b60648460c0015160ff161315610e7057600080fd5b6101408201515161ffff161580610e9a5750610120840151516101408301515161ffff9081169116145b610ea357600080fd5b6101408201516020015161ffff161580610edc57506101208401516020015161014083015161ffff909116906001602002015161ffff16145b610ee557600080fd5b61012084015151602085015161ffff90811691161415610f0457600080fd5b6101208401516001602002015161ffff16846020015161ffff161415610f2957600080fd5b6101208401515161ffff1615801590610f4e57506101208401516020015161ffff1615155b15610f73576101208401516020810151905161ffff90811691161415610f7357600080fd5b6101208401515161ffff16151580610f9757506101208401516020015161ffff1615155b15610fb257606484610180015160ff161215610fb257600080fd5b6000610fc5856020015161ffff16610c1a565b9050806020015115610fd657600080fd5b6101208501515161ffff161561100f576101208501516110019060005b602002015161ffff16610c1a565b602001511561100f57600080fd5b6101208501516020015161ffff161561104157610120850151611033906001610ff3565b602001511561104157600080fd5b84846000886001600160a01b03166001600160a01b0316815260200190815260200160002060008201518160000160006101000a81548161ffff021916908361ffff16021790555060208201518160000160026101000a81548161ffff021916908361ffff16021790555060408201518160000160046101000a81548163ffffffff021916908363ffffffff16021790555060608201518160000160086101000a81548161ffff021916908361ffff160217905550608082015181600001600a6101000a81548160ff021916908360ff16021790555060a082015181600001600b6101000a81548160ff021916908360ff16021790555060c082015181600001600c6101000a81548160ff021916908360ff16021790555060e082015181600001600d6101000a81548160ff021916908360ff16021790555061010082015181600001600e6101000a81548161ffff021916908361ffff160217905550610120820151816001019060026111b6929190614fd5565b506101408201516002828101805461ffff191661ffff909316929092179091556101608301516111eb91600384019190615067565b5061018091909101516004909101805460ff191660ff909216919091179055505050505050565b61121b8261090d565b61122457611449565b600061122e61164c565b6001600160a01b0380841660009081526020928352604080822087519093168252919092528120805490925064ffffffffff8116916001600160501b03600160281b83048116820392600160781b9004169003826112a05781158015611292575080155b61129b57600080fd5b6112ad565b428311156112ad57600080fd5b6000806112be8789600001516119c5565b6101408a015151919350915061ffff1615611368578751610140890151516112ec91899188610af687610a30565b87516101408901515161130491908990888887611d89565b909450915061132261131d61131886610a30565b611ec0565b611ecf565b86546001600160501b0391909116600160281b026effffffffffffffffffff00000000001990911617865587516101408901515161136891899164ffffffffff86611a42565b6101408801516020015161ffff161561140d5787516101408901516020015161139791899188610af686610a30565b8751610140890151602001516113b291908990888786611d89565b90935090506113c661131d61131885610a30565b86546001600160501b0391909116600160781b0269ffffffffffffffffffff60781b1990911617865587516101408901516020015161140d91899164ffffffffff85611a42565b600082138061141c5750600081135b15611431576114318789600001518484611ee5565b61144286858564ffffffffff611fb4565b5050505050505b5050565b611455614ee8565b600061145f611ce4565b6001600160a01b03841660008181526020838152604091829020928652825461ffff8082169288019290925262010000900416908501529091506114bb612710633b9aca008354600160501b900460ff16919005600502611ff2565b608084015280546114da90600160401b900461ffff16620186a0611ff2565b60a084015280546114f990600160701b900461ffff16620186a0611ff2565b61012084015260028101546115159061ffff16620186a0611ff2565b610180840152805460649060ff600160581b90910416633b9aca00020560c08401528054600160601b810460ff90811660e0860152600160681b909104166101008401526040805180820191829052906001830190600290826000855b82829054906101000a900461ffff1661ffff168152602001906002019060208260010104928301926001038202915080841161157257505050505061014085019190915250600481015460ff166101c084015280546115dd90600160201b900463ffffffff16612020565b60608401526116136003820160005b600891828204019190066004029054906101000a900463ffffffff1663ffffffff16612020565b6101a0840151526116286003820160016115ec565b6101a084015160200152509092915050565b6116426150f1565b610934824261202e565b600080610907601a6120ef565b600064ffffffffff831461167957816001600160501b031660000361168f565b61168f846001600160501b038416600003612108565b949350505050565b8181026000198314156116c7578115806116b95750828282816116b657fe5b05145b6116c257600080fd5b610907565b8215806116dc5750818382816116d957fe5b05145b61090757600080fd5b60008060006116f261164c565b6001600160a01b03808c166000908152602092835260408082208f519093168252919092529020805490915064ffffffffff1689811480611731575080155b61173a57600080fd5b8651825461175a91908c90600160281b90046001600160501b0316611659565b9350611780876001602002015183548c90600160781b90046001600160501b0316611659565b9250881561180857611792848a611ad8565b93506117c18c8c8e61014001516000600281106117ab57fe5b60200201518d8d8c60005b60200201518b61215f565b6117dc61131d611318610b558a600060200201518e89612239565b82546001600160501b0391909116600160281b026effffffffffffffffffff0000000000199091161782555b8715611885576118188389611ad8565b92506118408c8c8e610140015160016002811061183157fe5b60200201518d8c8c60016117b6565b61185b61131d611318610b558a600160200201518e88612239565b82546001600160501b0391909116600160781b0269ffffffffffffffffffff60781b199091161782555b85156118f4578315806118a257506101a08c015151600085900312155b6118be5760405162461bcd60e51b815260040161031290615ca0565b8215806118d857506101a08c015160200151600084900312155b6118f45760405162461bcd60e51b815260040161031290615ca0565b6119088285856119038e612257565b611fb4565b50509850989650505050505050565b6000866040015161ffff168561ffff16141561193257600080fd5b8261193f57506000610c10565b64ffffffffff841461198e576119638588600001518686868c61010001514261226b565b9050600083121561198e576000811361198e5760405162461bcd60e51b815260040161031290615bd0565b80610c10576119a0610b558785612379565b905064ffffffffff8414610c10578651610c109086866119bf85610a30565b8761239b565b60008060006119d261248b565b6001600160a01b039586166000908152602091825260408082209690971681529490525050502060010180547fffff0000000000000000000000000000000000000000ffffffffffffffffffff81169091556001600160501b03600160501b8204811692600160a01b9092041690565b80611a4c57610cdb565b6000611a5b858585600b612498565b90506000806000841215611a7457508690506000611a7b565b5060009050865b6000611a86856124ce565b9050816001600160a01b0316836001600160a01b0316336001600160a01b0316600080516020615ee88339815191528785604051611ac5929190615e24565b60405180910390a4505050505050505050565b8181018281121560008312151461090757600080fd5b6000611af86124ef565b61ffff8416600090815260209190915260408120546001600160a01b03169150821215611b23579293925b806001600160a01b03166323de66518686611b3d866124ce565b6040518463ffffffff1660e01b8152600401611b5b93929190615b19565b600060405180830381600087803b158015611b7557600080fd5b505af1158015611b89573d6000803e3d6000fd5b505050505050505050565b600080611bac8787611ba588610a30565b87876124fc565b9050611bba61131882610a30565b9150505b95945050505050565b600083611bd657506000611bbe565b60008413611be357600080fd5b6000611bf28661ffff16610c1a565b90506000611c0982611c0487896125a4565b6125d0565b90506000611c1a898984898961260d565b90945090508681036000811215611c3057600080fd5b5050505095945050505050565b611c45614fae565b6000611c4f6126ca565b6000858152602082815260408083208715158452825291829020825160a08101845281546001600160a01b038116825260ff600160a01b82048116151594830194909452600160b01b81048416600a0a9482019490945293945092916060830191600160a81b909104166005811115611cc457fe5b8152600060209091015295945050505050565b60008061090760176120ef565b60008061090760146120ef565b600081611cfd57600080fd5b600160801b8210611d1057608091821c91015b600160401b8210611d2357604091821c91015b600160201b8210611d3657602091821c91015b620100008210611d4857601091821c91015b6101008210611d5957600891821c91015b60108210611d6957600491821c91015b60048210611d7957600291821c91015b6002821061093757600101919050565b6000806000611d978761163a565b90506000611da36126d7565b6001600160a01b038b1660009081526020918252604080822064ffffffffff8352835280822061ffff8c1683529092522090508615611e63576000611de66126d7565b6001600160a01b038c166000908152602091825260408082208b8352835280822061ffff8d16835290925290812080549092506001600160501b03811690910390600160f01b900460ff16611e6057611e42838d8c8c856126e4565b81546001600160501b031960ff60f01b19909116600160f01b171682555b50505b8615611e7957611e768888886000612748565b93505b611e8782828a8d8989612797565b9094509250611ea1898b8a8a611e9c8b610a30565b612860565b611eb3898b8a64ffffffffff88612860565b5050965096945050505050565b600080821215610d5757600080fd5b60006001600160501b03821115610d5757600080fd5b6000611eef61248b565b6001600160a01b0386811660009081526020928352604080822092881682529190925290206001810154909150611f3e9061131d9061131890600160501b90046001600160501b031686611ad8565b60018201805469ffffffffffffffffffff60501b1916600160501b6001600160501b03938416021790819055611f859161131d9161131891600160a01b9091041685611ad8565b8160010160146101000a8154816001600160501b0302191690836001600160501b031602179055505050505050565b82158015611fc0575081155b15611fd657835464ffffffffff19168455611fec565b835464ffffffffff191664ffffffffff82161784555b50505050565b60008261200157506000610907565b8282028284828161200e57fe5b041461201957600080fd5b9392505050565b600881901c60ff9091161b90565b6120366150f1565b6000612041846128e2565b905082816000015110156120805760008061205b866129aa565b905061206986848388612a27565b9093509150612079868385612acb565b505061208d565b8051831461208d57600080fd5b60405180606001604052806120b6610beb8460a001518560c00151611ff290919063ffffffff16565b81526020016120d9610beb8460a001518560e00151611ff290919063ffffffff16565b8152602001826060015181525091505092915050565b6000620f424082602681111561210157fe5b0192915050565b60006001821261211757600080fd5b8161212457506000610907565b61201960016121596ec097ce7bc90715b34b9f100000000061215387602001518761169790919063ffffffff16565b90612cfc565b90612d2d565b60006121696126d7565b88516001600160a01b0316600090815260209182526040808220888352835280822061ffff8a16835290925290812080549092506121b390859088906001600160501b0316611659565b90506121bf8186611ad8565b90506121d182858b8a8a866000612d43565b600080861380156121e6575064ffffffffff87145b1561220857612201610b5586896121fc8a610a30565b612239565b9050612216565b612213858888612239565b90505b831561222d5761222d898b600001518a8a85612860565b50505050505050505050565b600064ffffffffff831461224d578161168f565b61168f8483612e1d565b600064ffffffffff821115610d5757600080fd5b60008061227a89888686612e79565b90506000612287876124ce565b90506001600160581b03811061229c57600080fd5b600060788763ffffffff16901b609883901b60f085901b60f860008c136122c45760016122c7565b60005b60058111156122d257fe5b60ff16901b17171760001b905073__TradingAction_________________________63715e90028c8c846040518463ffffffff1660e01b815260040161231a93929190615df6565b60206040518083038186803b15801561233257600080fd5b505af4158015612346573d6000803e3d6000fd5b505050506040513d601f19601f8201168201806040525081019061236a9190615917565b9b9a5050505050505050505050565b815160009061201990612153846ec097ce7bc90715b34b9f1000000000611697565b60006123a5612eb8565b61ffff861660009081526020828152604080832088845290915290208054919250906123ee9061131d90600160501b90046001600160501b03166123e886611ec0565b90612ec5565b815469ffffffffffffffffffff60501b1916600160501b6001600160501b03928316021780835561242e9161131d91600160a01b9004166123e887611ec0565b81546001600160501b0391909116600160a01b0269ffffffffffffffffffff60a01b19909116178155612465876105e78887611aee565b6124736105e7878786612ed7565b6124826105e788888887612f4f565b50505050505050565b60008061090760166120ef565b68010000000000000000600160e01b03604085901b1667ffff000000000000603085901b1617600883901b178117949350505050565b6000808212156124e8576124e182610a30565b9050610937565b5080610937565b60008061090760216120ef565b60008361250b57506000611bbe565b6000841261251857600080fd5b60006125278661ffff16610c1a565b905061253c8161253786886125a4565b612fba565b9150600061254983610a30565b9050612556878383612ff2565b60038260600151600581111561256857fe5b141561257e576125798882866130e0565b61258b565b815161258b9089836131a8565b612598888885858961321f565b50505095945050505050565b60006120196ec097ce7bc90715b34b9f100000000061215385600001518561169790919063ffffffff16565b60006305f5e100836040015112156125fe576125f760016125f18585612fba565b90611ad8565b9050610907565b61201983612537846001611ad8565b600080600061261b86611ec0565b90508061262f5760008092509250506126c0565b600061263e8861ffff16610c1a565b905060038160600151600581111561265257fe5b141561269957348210156126725761266d89833403876130e0565b612691565b3482146126915760405162461bcd60e51b815260040161031290615bf7565b8693506126ae565b6126ab610beb82600001518b85613266565b93505b6126bb898986848a61321f565b925050505b9550959350505050565b60008061090760076120ef565b60008061090760186120ef565b60006126f284848488612748565b86549091506001600160501b0316600061270c8284612d2d565b905061271a61131d82611ec0565b88546001600160501b0319166001600160501b0391909116178855611442878761274387610a30565b6133e4565b600080600061275787876134ab565b915091508061276557600080fd5b61276f8286612e1d565b92506001600160a01b0384161561278d5761278d848888888761353e565b5050949350505050565b806000808413156128555760006127bb6127b4610b558b886125a4565b8a90612e1d565b90506000848212156127f5575060009250836127ee6127e7610b556127e08585612d2d565b8d90612108565b8b90612379565b9250612804565b50806128018582612d2d565b93505b6128108a888a84613611565b88546001600160501b031660006128278284611ad8565b905061283561131d82611ec0565b8b546001600160501b0319166001600160501b0391909116178b55505050505b965096945050505050565b8061286a57610cdb565b6000808061287b878787600a612498565b90506000841315612892578792506000915061289a565b600092508791505b6001600160a01b0380831690841633600080516020615ee8833981519152846128c2896124ce565b6040516128d0929190615e24565b60405180910390a45050505050505050565b6128ea615112565b60006128f461363e565b61ffff93841660009081526020918252604090819020805464ffffffffff81168652600160281b81046001600160581b03908116948701949094526001820154841692860192909252600160d81b820463ffffffff166060860152600160801b9091049091166080840152600201546001600160501b0380821660a0850152600160501b8204811660c0850152600160a01b82041660e0840152600160f01b900460ff1661012c02909216610100820152919050565b6000806129b68361364b565b6001600160a01b031663ef81f2166040518163ffffffff1660e01b81526004016040805180830381600087803b1580156129ef57600080fd5b505af1158015612a03573d6000803e3d6000fd5b505050506040513d601f19601f8201168201806040525081019061168f9190615a33565b612a2f615112565b6000806000612a3f88868961367b565b60c08b019290925260e08a019290925260208901519193509150612a639083612ec5565b6020880152608087015160009015612a91576080880151612a8e90612a88898261378c565b906137a1565b90505b612ab1612aa6670de0b6b3a764000083612ec5565b60a08a0151906137be565b60a089015250506080860194909452505082529092909150565b6000612ad561363e565b60008561ffff1681526020019081526020016000209050612af98260000151612257565b815464ffffffffff191664ffffffffff9190911617815560a0820151612b1e90611ecf565b6002820180546001600160501b0319166001600160501b039290921691909117905560c0820151612b4e90611ecf565b81600201600a6101000a8154816001600160501b0302191690836001600160501b03160217905550612b838260e00151611ecf565b8160020160146101000a8154816001600160501b0302191690836001600160501b03160217905550612bb882602001516137db565b81546001600160581b0391909116600160281b026fffffffffffffffffffffff0000000000199091161781556040820151612bf2906137db565b6001820180546affffffffffffffffffffff19166001600160581b03929092169190911790556080820151612c26906137db565b81546001600160581b0391909116600160801b026affffffffffffffffffffff60801b199091161781556060820151612c5e906137f1565b815463ffffffff91909116600160d81b0263ffffffff60d81b199091161781558215612caa576000612c8f84610d41565b9050612c9b8582613804565b612ca8610fee868361383b565b505b8361ffff167fef25641e225e493886510ca1ad6584fa7b442b9fea820a29d1de3ce27d270fd28360a001518460c001518560e00151604051612cee93929190615e32565b60405180910390a250505050565b600081600019148015612d125750600160ff1b83145b15612d1c57600080fd5b818381612d2557fe5b059392505050565b8082038281131560008312151461090757600080fd5b86546001600160501b0316600090810390612d5f888686612239565b9050612d7061131d61131883610a30565b89546001600160501b0319166001600160501b03919091161789556000612d9783836138bb565b9050600064ffffffffff871415612dbe578851612db7908b908a85613611565b5084612df0565b84612df0578851612dd29089898787613942565b8851612de2908961274385610a30565b612ded898b8a613a02565b90505b600082138015612dfe575084155b15612e10578851612e10908983613aa8565b5050505050505050505050565b600081600013158015612e305750600a82125b15612e3d57506000610907565b60008212612e4a57600080fd5b612019600161215985602001516121536ec097ce7bc90715b34b9f10000000008761169790919063ffffffff16565b6000806000612e8b8761ffff16613b24565b9050612e9b8160ff168786613b3a565b909350915084831115612ead57600080fd5b811561278d57600080fd5b60008061090760206120ef565b60008282018381101561201957600080fd5b600080612ee5858585613bc9565b915091506000806000851215612efd57879150612f00565b50865b806001600160a01b0316826001600160a01b0316336001600160a01b03167f4a39dc06d4c0dbc64b70af90fd698a233a518aa5d07e595d983b8c0526c8f7fb87876040516128d0929190615b87565b80612f5957610cdb565b6000612f658484613cae565b90506000821215612f74579394935b6001600160a01b0380861690871633600080516020615ee883398151915284612f9c876124ce565b604051612faa929190615e24565b60405180910390a4505050505050565b60006305f5e10083604001511415612fd3575080610907565b6120196305f5e10061215385604001518561169790919063ffffffff16565b6000612ffc613ccc565b83516001600160a01b03166000908152602082905260409020549091508083116130275750506107f9565b60006130328661364b565b90506000816001600160a01b031663b5e4da238487036040518263ffffffff1660e01b81526004016130649190615e1b565b60006040518083038186803b15801561307c57600080fd5b505afa158015613090573d6000803e3d6000fd5b505050506040513d6000823e601f3d908101601f191682016040526130b89190810190615809565b905060006130c68783613cd9565b91506130d490508482612ec5565b86111561144257600080fd5b8015613172577382af49447d8a07e3bd95bd0d56f35241523fbab16001600160a01b031663d0e30db0836040518263ffffffff1660e01b81526004016000604051808303818588803b15801561313557600080fd5b505af1158015613149573d6000803e3d6000fd5b505050505061316d7382af49447d8a07e3bd95bd0d56f35241523fbab184846131a8565b6107f9565b6040516001600160a01b0384169083156108fc029084906000818181858888f19350505050158015611fec573d6000803e3d6000fd5b826001600160a01b031663a9059cbb83836040518363ffffffff1660e01b815260040180836001600160a01b0316815260200182815260200192505050600060405180830381600087803b1580156131ff57600080fd5b505af1158015613213573d6000803e3d6000fd5b505050506107f9613ef0565b60008061322c8486613f5d565b90506132388382612379565b915061324587878461383b565b613250868383613f8d565b835161325c9086614099565b5095945050505050565b600080846001600160a01b03166370a08231306040518263ffffffff1660e01b815260040180826001600160a01b0316815260200191505060206040518083038186803b1580156132b657600080fd5b505afa1580156132ca573d6000803e3d6000fd5b505050506040513d60208110156132e057600080fd5b5051604080516323b872dd60e01b81526001600160a01b038781166004830152306024830152604482018790529151929350908716916323b872dd9160648082019260009290919082900301818387803b15801561333d57600080fd5b505af1158015613351573d6000803e3d6000fd5b5050505061335d613ef0565b6000856001600160a01b03166370a08231306040518263ffffffff1660e01b815260040180826001600160a01b0316815260200191505060206040518083038186803b1580156133ac57600080fd5b505afa1580156133c0573d6000803e3d6000fd5b505050506040513d60208110156133d657600080fd5b50519050610c10818361378c565b60006133ee611cd7565b6001600160a01b03851660009081526020918252604080822061ffff87168352909252908120805490925061343390600160501b90046001600160501b031684612d2d565b905061344161131d82611ec0565b82546001600160501b0391909116600160501b0269ffffffffffffffffffff60501b1990911617825560405161ffff8516906001600160a01b038716907f20478ef460e49d010960d4f3fff35d8dae385443abfac09035d6a2ccbcd834c490610485908590615e1b565b6134b36150f1565b6000806134be6140ee565b61ffff861660009081526020828152604080832088845290915290208054600160f01b900460ff16935090915082156135355780546001600160501b03600160a01b8204811691613510911682611ff2565b8552815461352e90600160501b90046001600160501b031682611ff2565b6020860152505b50509250929050565b600061354a8585613cae565b9050600083121561355c57600160401b175b60006001600160a01b03871633600080516020615ee883398151915284613582886124ce565b604051613590929190615e24565b60405180910390a460006135a760008412876140fb565b9050806001600160a01b03166323de66516105e7896135c5876124ce565b6040518463ffffffff1660e01b81526004016135e393929190615b19565b600060405180830381600087803b1580156135fd57600080fd5b505af1158015612e10573d6000803e3d6000fd5b8015611fec578351602085015160009161363091612153908590611697565b9050610cdb8484848461415b565b600080610907601d6120ef565b600080613656614298565b61ffff939093166000908152602093909352505060409020546001600160a01b031690565b60008060008060008061368e89886142a5565b895190955091935091506000906136b5906136aa908b9061378c565b633b9aca0090611ff2565b90506136ef6136e46301da9c006136cc8585611ff2565b816136d357fe5b670de0b6b3a7640000919004612ec5565b60e08a0151906137be565b96506137116137066301da9c006136cc8785611ff2565b60c08a0151906137be565b955081831415613728575060009350613783915050565b600061374a61373f6301da9c006136cc8786611ff2565b60e08b0151906137be565b90506000613758898361378c565b905061377b88613775838d60400151611ff290919063ffffffff16565b90614340565b965050505050505b93509350935093565b60008282111561379b57600080fd5b50900390565b60006120196137b884670de0b6b3a7640000611ff2565b83614340565b60006120196137cd8484611ff2565b670de0b6b3a7640000614340565b60006001600160581b03821115610d5757600080fd5b600063ffffffff821115610d5757600080fd5b600081121561381257600080fd5b6000613820610fee8461435f565b905061382c8183611ad8565b90506107f9610fee84836143b8565b60006138456124ef565b61ffff8416600090815260209190915260409081902054905163ad1c095d60e01b81526001600160a01b039091169150819063ad1c095d9061388d9087908690600401615b3d565b600060405180830381600087803b1580156138a757600080fd5b505af1158015611442573d6000803e3d6000fd5b6000818314806138d85750600083121580156138d8575060008212155b156138e557506000610907565b600083131580156138f65750816000125b15613902575081610907565b600082131580156139135750826000125b15613921576125f782610a30565b60008313158015613933575060008213155b156100a7576125f78383612d2d565b600061394e83836138bb565b90508061395b5750610cdb565b6000613965612eb8565b61ffff87166000908152602082815260408083208984529091528120549192506001600160501b0390911681039061399d8285612d2d565b905060008113156139ad57600080fd5b6139bc61131d61131883610a30565b61ffff89166000908152602085815260408083208b8452909152902080546001600160501b0319166001600160501b0392909216919091179055611b8989898987612ed7565b600080846040015161ffff168361ffff161415613a4e57613a2161442c565b85516001600160a01b031660009081526020918252604080822064ffffffffff8352909252209050613a8b565b613a566126d7565b85516001600160a01b031660009081526020918252604080822064ffffffffff8352835280822061ffff871683529092522090505b8054611bbe90859064ffffffffff906001600160501b0316611659565b6000613ab2611cd7565b6001600160a01b03851660009081526020918252604080822061ffff871683529092529081208054909250613af790600160501b90046001600160501b031684612d2d565b82549091506001600160501b0316811315610cdb5760405162461bcd60e51b815260040161031290615c7a565b600080613b3083614439565b60ff169392505050565b60008060008511613b4a57600080fd5b6007851115613b5857600080fd5b6000613b6384614456565b905060015b868111613bbb576000613b84613b7d83614474565b8490612ec5565b905086811415613b9c5750925060009150613bc19050565b86811115613bb25750925060019150613bc19050565b50600101613b68565b50600080fd5b935093915050565b604080516002808252606082810190935282916000918160200160208202803683370190505090506000613bfd8787613cae565b90508082600081518110613c0d57fe5b602002602001018181525050600160401b811782600181518110613c2d57fe5b602090810291909101015260408051600280825260608201909252600091816020016020820280368337019050509050613c66866124ce565b81600081518110613c7357fe5b602002602001018181525050613c88866124ce565b81600181518110613c9557fe5b6020908102919091010152919791965090945050505050565b67ffff000000000000603083901b16600882901b1760011792915050565b60008061090760266120ef565b60008060005b8351811015613ee8576000848281518110613cf657fe5b60200260200101519050600081606001516001600160a01b03166370a08231306040518263ffffffff1660e01b8152600401613d329190615b05565b60206040518083038186803b158015613d4a57600080fd5b505afa158015613d5e573d6000803e3d6000fd5b505050506040513d601f19601f82011682018060405250810190613d829190615917565b90506000613d908830614518565b905060005b835151811015613dec57613ddb84600001518281518110613db257fe5b6020026020010151600086602001518481518110613dcc57fe5b602002602001015160016145c2565b613de457600196505b600101613d95565b506000613df98930614518565b90506000613e07828461378c565b90508085604001511115613e1a57600080fd5b60608501516040516370a0823160e01b81526000916001600160a01b0316906370a0823190613e4d903090600401615b05565b60206040518083038186803b158015613e6557600080fd5b505afa158015613e79573d6000803e3d6000fd5b505050506040513d601f19601f82011682018060405250810190613e9d9190615917565b905084811115613eac57600080fd5b613ebb86606001518683614830565b613ec58883612ec5565b9750613ed68b600001518585614830565b505060019094019350613cdf92505050565b509250929050565b6000613efa61515e565b3d8015613f0e5760208114613f1757600080fd5b60019250613f22565b60206000833e815192505b5081611449576040805162461bcd60e51b8152602060048201526005602482015264045524332360dc1b604482015290519081900360640190fd5b60006305f5e10083604001511415613f76575080610907565b604083015161201990612153846305f5e100611697565b6000613f9761363e565b61ffff8516600090815260209190915260409020805490915064ffffffffff164214613fc257600080fd5b8054600090613fe190600160281b90046001600160581b031685611ad8565b825490915060009061400390600160801b90046001600160581b031685611ad8565b905080624c4b40131561401557600080fd5b61402661402182611ec0565b6137db565b83546001600160581b0391909116600160801b026affffffffffffffffffffff60801b1990911617835561405c61402183611ec0565b83546001600160581b0391909116600160281b026fffffffffffffffffffffff000000000019909116178355614091836148ad565b505050505050565b60006140a3613ccc565b6001600160a01b0384166000908152602082905260409020549091506140cc6113188285611ad8565b6001600160a01b03909416600090815260209290925250604090209190915550565b600080610907601e6120ef565b60008261412d5761410a6124ef565b61ffff8316600090815260209190915260409020546001600160a01b0316612019565b614135614978565b61ffff8316600090815260209190915260409020546001600160a01b0316905092915050565b600061416561363e565b61ffff8516600090815260209190915260409020805490915064ffffffffff16421461419057600080fd5b8054600160f81b900460ff166141a557600080fd5b60018101546000906141c0906001600160581b031685611ad8565b82549091506000906141e290600160281b90046001600160581b031685611ad8565b9050816009191280156141f55750600082125b156141ff57600091505b806009191280156142105750600081125b15614219575060005b61422561402183611ec0565b6001840180546affffffffffffffffffffff19166001600160581b039290921691909117905561425761402182611ec0565b83546001600160581b0391909116600160281b026fffffffffffffffffffffff00000000001990911617835561428f87878688614985565b612482836148ad565b600080610907601f6120ef565b6000806000806000856020015111156142f2576142ef6142d68660c001518760200151611ff290919063ffffffff16565b60e087015160408801516142e991611ff2565b90614a8d565b90505b60006142fd87614aa0565b90506143098183614ad3565b945081156143205761431d81866001614b86565b93505b602086015115614337576143348583614c00565b92505b50509250925092565b600080821161434e57600080fd5b81838161435757fe5b049392505050565b60008061436a614c19565b6001600160a01b03851660009081526020828152604080832061ffff8816845290915281208054600160a81b9004600a90810b900b94509192508312156143b057600080fd5b505092915050565b60008112156143c657600080fd5b60006143d0614c19565b6001600160a01b03851660009081526020828152604080832061ffff88168452909152902090915061440183614c26565b8154600a9190910b6001600160581b0316600160a81b026001600160a81b0390911617905550505050565b60008061090760156120ef565b600080614444614c58565b60009384526020525050604090205490565b60006276a70082101561446857600080fd5b506276a7008106900390565b6000816001141561448957506276a700610937565b816002141561449c575062ed4e00610937565b81600314156144b057506301da9c00610937565b81600414156144c457506303b53800610937565b81600514156144d857506309450c00610937565b81600614156144ec575063128a1800610937565b816007141561450057506325143000610937565b60405162461bcd60e51b815260040161031290615c1c565b600060038360600151600581111561452c57fe5b141561454357506001600160a01b03811631610907565b82516040516370a0823160e01b81526001600160a01b03909116906370a0823190614572908590600401615b05565b60206040518083038186803b15801561458a57600080fd5b505afa15801561459e573d6000803e3d6000fd5b505050506040513d601f19601f820116820180604052508101906125f79190615917565b6000806000866001600160a01b031686866040518082805190602001908083835b602083106146025780518252601f1990920191602091820191016145e3565b6001836020036101000a03801982511681845116808217855250505050505090500191505060006040518083038185875af1925050503d8060008114614664576040519150601f19603f3d011682016040523d82523d6000602084013e614669565b606091505b50915091508361470c578161467d82614c65565b906147065760405162461bcd60e51b81526004018080602001828103825283818151815260200191508051906020019080838360005b838110156146cb5781810151838201526020016146b3565b50505050905090810190601f1680156146f85780820380516001836020036101000a031916815260200191505b509250505060405180910390fd5b5061325c565b866001600160a01b03167f3c7e398c5e91088cae639370e35b25ea669d81fbdf0def5388e73661bc34e08e878761474285614c65565b604051808481526020018060200180602001838103835285818151815260200191508051906020019080838360005b83811015614789578181015183820152602001614771565b50505050905090810190601f1680156147b65780820380516001836020036101000a031916815260200191505b50838103825284518152845160209182019186019080838360005b838110156147e95781810151838201526020016147d1565b50505050905090810190601f1680156148165780820380516001836020036101000a031916815260200191505b509550505050505060405180910390a25095945050505050565b600061483a613ccc565b6001600160a01b0385166000908152602082905260409020549091508381111561486357600080fd5b600061487a61487186610d41565b61215986610d41565b90506148896113188383611ad8565b6001600160a01b039096166000908152602093909352505060409020929092555050565b805460028201546000916148ef91600160281b9091046001600160581b0316906148e9906001600160501b03600160501b820481169116611697565b90611697565b60018301546002840154919250600091614929916001600160581b0316906148e9906001600160501b03600160a01b820481169116611697565b83549091506000906149609060016001600160581b03600160801b909204821601166ec097ce7bc90715b34b9f1000000000611697565b90508061496d8484612d2d565b1315611fec57600080fd5b60008061090760226120ef565b600061498f6124ef565b61ffff8516600090815260209190915260408120546001600160a01b031691506149b7614978565b61ffff8616600090815260209190915260409081902054905163ad1c095d60e01b81526001600160a01b039091169150819063ad1c095d906149ff9089908790600401615b3d565b600060405180830381600087803b158015614a1957600080fd5b505af1158015614a2d573d6000803e3d6000fd5b505060405163ad1c095d60e01b81526001600160a01b038516925063ad1c095d9150614a5f9089908890600401615b3d565b600060405180830381600087803b158015614a7957600080fd5b505af115801561222d573d6000803e3d6000fd5b60006120196137b884633b9aca00611ff2565b614aa861517c565b6000614ab2614d6a565b61ffff84166000908152602091909152604081205491506120199082614d77565b600080836080015111614ae557600080fd5b633b9aca00821115614af657600080fd5b82518211614b1557825160408401516125f79190613775908590611ff2565b82602001518211614b4d5760408301518351602085015160608601516125f793926123e8928190039161377591880390859003611ff2565b61201983606001516123e88560200151633b9aca0003613775876060015188608001510388602001518803611ff290919063ffffffff16565b600080614ba560646137758760e0015187611ff290919063ffffffff16565b90508460a00151811015614bba575060a08401515b8460c00151811115614bcd575060c08401515b8215614be457614bdd8482612ec5565b9150614bf8565b838111614bf357808403611bbe565b600091505b509392505050565b6000612019614c0f8484611ff2565b633b9aca00614340565b60008061090760066120ef565b60006a7fffffffffffffffffffff198212801590614c4f57506a7fffffffffffffffffffff8213155b610d5757600080fd5b60008061090760096120ef565b6060604482511015614c9b575060408051808201909152600d81526c14da5b195b9d0814995d995c9d609a1b6020820152610937565b6004820180519092602401906020811015614cb557600080fd5b8101908080516040519392919084600160201b821115614cd457600080fd5b908301906020820185811115614ce957600080fd5b8251600160201b811182820188101715614d0257600080fd5b82525081516020918201929091019080838360005b83811015614d2f578181015183820152602001614d17565b50505050905090810190601f168015614d5c5780820380516001836020036101000a031916815260200191505b506040525050509050919050565b600080610907601b6120ef565b614d7f61517c565b6064633b9aca008360ff861660208110614d9557fe5b1a0281614d9e57fe5b0481526064633b9aca008360ff861660010160208110614dba57fe5b1a0281614dc357fe5b04816020018181525050614de88260028560ff160160208110614de257fe5b1a614e96565b60808201819052610100908360ff861660030160208110614e0557fe5b1a0281614e0e57fe5b0460408201526080810151610100908360ff861660040160208110614e2f57fe5b1a0281614e3857fe5b0460608201526207a1208260ff851660050160208110614e5457fe5b1a0260a0820152622625a08260ff851660060160208110614e7157fe5b1a0260c08201528160ff841660070160208110614e8a57fe5b1a60e082015292915050565b60008160ff16609610614eb15760ff8216622625a002610934565b5060951960ff919091160162e4e1c00263165a0bc00190565b60405180604001604052806002906020820280368337509192915050565b604051806101e0016040528060006001600160a01b03168152602001600061ffff168152602001600061ffff16815260200160008152602001600081526020016000815260200160008152602001600081526020016000815260200160008152602001614f53614eca565b8152602001614f606150f1565b815260200160008152602001614f74614eca565b8152602001600081525090565b60405180604001604052806002905b614f986150f1565b815260200190600190039081614f905790505090565b6040805160a081018252600080825260208201819052918101829052906060820190614f74565b60018301918390821561505b5791602002820160005b8382111561502b57835183826101000a81548161ffff021916908361ffff1602179055509260200192600201602081600101049283019260010302614feb565b80156150595782816101000a81549061ffff021916905560020160208160010104928301926001030261502b565b505b50610d579291506151c1565b60018301918390821561505b5791602002820160005b838211156150c157835183826101000a81548163ffffffff021916908363ffffffff160217905550926020019260040160208160030104928301926001030261507d565b80156150595782816101000a81549063ffffffff02191690556004016020816003010492830192600103026150c1565b60405180606001604052806000815260200160008152602001600081525090565b6040518061012001604052806000815260200160008152602001600081526020016000815260200160008152602001600081526020016000815260200160008152602001600081525090565b60405180602001604052806001906020820280368337509192915050565b60405180610100016040528060008152602001600081526020016000815260200160008152602001600081526020016000815260200160008152602001600081525090565b5b80821115610d5757600081556001016151c2565b805161093781615e9e565b600082601f8301126151f1578081fd5b8151602061520661520183615e80565b615e5c565b8281528181019085830183850287018401881015615222578586fd5b855b8581101561524957815161523781615e9e565b84529284019290840190600101615224565b5090979650505050505050565b6000601f8381840112615267578182fd5b8251602061527761520183615e80565b82815281810190868301865b8581101561531c57815189018a603f82011261529d578889fd5b8581015167ffffffffffffffff8111156152b357fe5b6152c4818a01601f19168801615e5c565b81815260408d818486010111156152d9578b8cfd5b8b5b838110156152f6578481018201518382018b015289016152db565b83811115615306578c8a85850101525b5050865250509284019290840190600101615283565b509098975050505050505050565b600082601f83011261533a578081fd5b6040516040810181811067ffffffffffffffff8211171561535757fe5b806040525080838560408601111561536d578384fd5b835b600281101561539857813561538381615eb6565b8352602092830192919091019060010161536f565b509195945050505050565b600082601f8301126153b3578081fd5b6040516040810181811067ffffffffffffffff821117156153d057fe5b80604052508083856040860111156153e6578384fd5b835b60028110156153985781516153fc81615eb6565b835260209283019291909101906001016153e8565b806040810183101561090757600080fd5b600082601f830112615432578081fd5b6040516040810181811067ffffffffffffffff8211171561544f57fe5b8060405250808385604086011115615465578384fd5b835b6002811015615398578135835260209283019290910190600101615467565b600082601f830112615496578081fd5b6040516040810181811067ffffffffffffffff821117156154b357fe5b80604052508083856040860111156154c9578384fd5b835b60028110156153985781516154df81615ec6565b835260209283019291909101906001016154cb565b803561093781615eb6565b805161093781615eb6565b805161093781615ec6565b803561093781615ed8565b80356001600160501b038116811461093757600080fd5b805161093781615ed8565b60008060408385031215615554578182fd5b823561555f81615e9e565b9150602083013561556f81615e9e565b809150509250929050565b6000806040838503121561558c578182fd5b823561559781615e9e565b91506020830135801515811461556f578182fd5b60008060008385036102208112156155c1578182fd5b84356155cc81615e9e565b93506101e0601f1982018113156155e1578283fd5b6101a091506155ef82615e5c565b6155fb602088016154f4565b8152615609604088016154f4565b602082015260608701356040820152615624608088016154f4565b606082015261563560a08801615515565b608082015261564660c08801615515565b60a082015261565760e08801615515565b60c082015261010061566a818901615515565b60e083015261012061567d818a016154f4565b8284015261014091506156928a838b0161532a565b908301526101806156a48982016154f4565b828401526156b48a868b01615422565b6101608401526156c5848a01615515565b908301525093506156dc9150506102008501615520565b90509250925092565b6000806000606084860312156156f9578081fd5b833561570481615e9e565b9250602084013561571481615eb6565b91506156dc60408501615520565b60008060008060c08587031215615737578182fd5b843561574281615e9e565b9350602085013592506157588660408701615411565b91506157678660808701615411565b905092959194509250565b6000806000806000610100868803121561578a578283fd5b853561579581615e9e565b9450602086013593506157ab8760408801615411565b92506157ba8760808801615411565b91506157c98760c08801615411565b90509295509295909350565b600080604083850312156157e7578182fd5b82356157f281615e9e565b915061580060208401615520565b90509250929050565b6000602080838503121561581b578182fd5b825167ffffffffffffffff80821115615832578384fd5b818501915085601f830112615845578384fd5b815161585361520182615e80565b81815284810190848601875b8481101561590857815187016080818d03601f1901121561587e57898afd5b60408051608081018181108a8211171561589457fe5b8252828b0151898111156158a6578c8dfd5b6158b48f8d838701016151e1565b82525081830151898111156158c7578c8dfd5b6158d58f8d83870101615256565b8c830152506060830151828201526158ef608084016151d6565b606082015286525050928701929087019060010161585f565b50909998505050505050505050565b600060208284031215615928578081fd5b5051919050565b60006101e08284031215615941578081fd5b61594c6101a0615e5c565b615955836154ff565b8152615963602084016154ff565b60208201526159746040840161550a565b6040820152615985606084016154ff565b606082015261599660808401615537565b60808201526159a760a08401615537565b60a08201526159b860c08401615537565b60c08201526159c960e08401615537565b60e08201526101006159dc8185016154ff565b908201526101206159ef858583016153a3565b90820152610160615a018482016154ff565b610140830152610180615a1686828701615486565b82840152615a276101c08601615537565b90830152509392505050565b60008060408385031215615a45578182fd5b505080516020909101519092909150565b600060208284031215615a67578081fd5b813561201981615ec6565b8060005b6002811015611fec57815161ffff16845260209384019390910190600101615a76565b8060005b6002811015611fec578151845260209384019390910190600101615a9d565b6000815180845260208085019450808401835b83811015615aeb57815187529582019590820190600101615acf565b509495945050505050565b61ffff169052565b60ff169052565b6001600160a01b0391909116815260200190565b6001600160a01b039384168152919092166020820152604081019190915260600190565b6001600160a01b03929092168252602082015260400190565b60408101818360005b6002811015615b7e578151835260209283019290910190600101615b5f565b50505092915050565b600060408252615b9a6040830185615abc565b8281036020840152611bbe8185615abc565b901515815260200190565b91151582526001600160501b0316602082015260400190565b6020808252600d908201526c109bdc9c9bddc811985a5b1959609a1b604082015260600190565b6020808252600b908201526a4554482042616c616e636560a81b604082015260600190565b6020808252600d908201526c092dcecc2d8d2c840d2dcc8caf609b1b604082015260600190565b6020808252601d908201527f496e73756666696369656e74205365636f6e6461727920426f72726f77000000604082015260600190565b6020808252600c908201526b4d617820436170616369747960a01b604082015260600190565b6020808252600a90820152696d696e20626f72726f7760b01b604082015260600190565b6020808252818101527f4f776e61626c653a2063616c6c6572206973206e6f7420746865206f776e6572604082015260600190565b60006101e082019050615d0d828451615af6565b6020830151615d1f6020840182615af6565b50604083015160408301526060830151615d3c6060840182615af6565b506080830151615d4f6080840182615afe565b5060a0830151615d6260a0840182615afe565b5060c0830151615d7560c0840182615afe565b5060e0830151615d8860e0840182615afe565b5061010080840151615d9c82850182615af6565b505061012080840151615db182850182615a72565b5050610140830151610160615dc881850183615af6565b8401519050610180615ddc84820183615a99565b8401519050615def6101c0840182615afe565b5092915050565b61ffff9390931683526001600160a01b03919091166020830152604082015260600190565b90815260200190565b918252602082015260400190565b9283526020830191909152604082015260600190565b6001600160501b0391909116815260200190565b60405181810167ffffffffffffffff81118282101715615e7857fe5b604052919050565b600067ffffffffffffffff821115615e9457fe5b5060209081020190565b6001600160a01b0381168114615eb357600080fd5b50565b61ffff81168114615eb357600080fd5b63ffffffff81168114615eb357600080fd5b60ff81168114615eb357600080fdfec3d58168c5ae7397731d063d5bbf3d657854427343f4c083240f7aacaa2d0f62a2646970667358221220b45453f8e8ed543a726a092a530ace93629f5970c838c74cfb0f14fd8acf5a4f64736f6c63430007060033","bytecodeSha1":"48d81c02c2b2d6254e425efa444af152298800b9","compiler":{"evm_version":"istanbul","optimizer":{"enabled":true,"runs":200},"version":"0.7.6+commit.7338295f"},"contractName":"VaultAction","deployedBytecode":"6080604052600436106100a75760003560e01c806369a6d1cc1161006457806369a6d1cc1461017957806382463367146101995780638281ec6a146101ae5780638da5cb5b146101ce578063b67138aa146101e3578063c4c96dae14610203576100a7565b80630bc08cdc146100ac57806324a3d622146100e2578063291afdf31461010457806354cceaf71461012657806356f428c4146101465780636966692c14610166575b600080fd5b3480156100b857600080fd5b506100cc6100c7366004615772565b610218565b6040516100d99190615b56565b60405180910390f35b3480156100ee57600080fd5b506100f761039c565b6040516100d99190615b05565b34801561011057600080fd5b5061012461011f3660046156e5565b6103ab565b005b34801561013257600080fd5b5061012461014136600461557a565b610494565b34801561015257600080fd5b5061012461016136600461557a565b610514565b6100cc610174366004615722565b610588565b34801561018557600080fd5b506101246101943660046155ab565b610671565b3480156101a557600080fd5b506100f76107c7565b3480156101ba57600080fd5b506101246101c9366004615542565b6107d6565b3480156101da57600080fd5b506100f76107fe565b3480156101ef57600080fd5b506101246101fe3660046157d5565b610814565b34801561020f57600080fd5b506100f76108b3565b610220614eca565b600061022b336108cb565b90506102388160016108f6565b61024157600080fd5b6001600160a01b03871633141561025757600080fd5b6102608161090d565b61026957600080fd5b60006102748261093c565b90506000806000610286858c8661099c565b925092509250600080846000141580156102a057508b8514155b80156102b257506102b28760026108f6565b156102dc576102d6878e876102c688610a30565b6102cf88610a30565b8b8f610a3e565b90925090505b6102ec878e8e8e8e87878d610b3d565b9092509050600082121561031b5760405162461bcd60e51b815260040161031290615c43565b60405180910390fd5b600081121561033c5760405162461bcd60e51b815260040161031290615c43565b610369338e89610140015160006002811061035357fe5b6020020151858a60005b60200201516000610b9b565b8852610140870151602001516103869033908f90848a600161035d565b602089015250959b9a5050505050505050505050565b6002546001600160a01b031681565b600054600160201b90046001600160a01b031633146103dc5760405162461bcd60e51b815260040161031290615cc4565b60006103e7846108cb565b905060006103f88461ffff16610c1a565b905080602001511561040957600080fd5b6101408201515161ffff8581169116148061043357506101408201516020015161ffff8581169116145b61043c57600080fd5b610447858585610c2d565b8361ffff16856001600160a01b03167f8f868f60e49b80b48ee5de8b7bc703cfc4b5c826a05d3ea1b00cf4159c155a90856040516104859190615e48565b60405180910390a35050505050565b600054600160201b90046001600160a01b031633146104c55760405162461bcd60e51b815260040161031290615cc4565b6104cf8282610c81565b816001600160a01b03167f9066b2f4ad4552447bd5ddeae159ff6b5a28a4eec9421da5a9d502deb99974e1826040516105089190615bac565b60405180910390a25050565b600054600160201b90046001600160a01b031633146105455760405162461bcd60e51b815260040161031290615cc4565b61054f8282610ce2565b816001600160a01b03167f7c51c6aa77346c54cb051d9e792f9b7bde5c28a9b57e6fb2d2dd727b38438ca9826040516105089190615bac565b610590614eca565b6001600160a01b0385163314156105a657600080fd5b60006105b1336108cb565b90506105be8160016108f6565b6105c757600080fd5b6105d08161090d565b6105d957600080fd5b60006105e48261093c565b9050600080610611848a8a6105ff8b865b6020020135610d41565b61060a8c60016105f5565b888c610a3e565b91509150610642338a86610140015160006002811061062c57fe5b6020020151858760005b60200201516001610b9b565b85526101408401516020015161065f9033908b9084876001610636565b60208601525092979650505050505050565b600054600160201b90046001600160a01b031633146106a25760405162461bcd60e51b815260040161031290615cc4565b6106af8260400151610d5b565b63ffffffff1660408301526101608201516106d19060005b6020020151610d5b565b63ffffffff168261016001516000600281106106e957fe5b60200201526101608201516106ff9060016106c7565b63ffffffff1682610160015160016002811061071757fe5b6020020181815250506000826040516020016107339190615cf9565b604051602081830303815290604052806020019051810190610755919061592f565b90506107618482610d86565b61077084826020015184610c2d565b80516040516001918216909114906001600160a01b038616907fb441d7ca09abc712b4504256717707ce40e8d43895266b46abf9cd58619c07dc906107b89084908790615bb7565b60405180910390a25050505050565b6001546001600160a01b031681565b3330146107e257600080fd5b60006107ed836108cb565b90506107f98183611212565b505050565b600054600160201b90046001600160a01b031681565b600054600160201b90046001600160a01b031633146108455760405162461bcd60e51b815260040161031290615cc4565b6000610850836108cb565b905061086183826040015184610c2d565b6001600160a01b0383167fb441d7ca09abc712b4504256717707ce40e8d43895266b46abf9cd58619c07dc6108978360016108f6565b846040516108a6929190615bb7565b60405180910390a2505050565b73__$7ac922d04bd7a1b42c7f6e5f1dd89a70af$__90565b6108d3614ee8565b6108dc8261144d565b90506108eb816040015161163a565b610160820152919050565b602082015161ffff80831691831616145b92915050565b6101408101515160009061ffff1615158061093457506101408201516020015161ffff1615155b90505b919050565b610944614f81565b6101408201515161ffff161561096e5761014082015161096b9060005b602002015161163a565b81525b6101408201516020015161ffff161561093757610140820151610992906001610961565b6020820152919050565b6000806000806109aa61164c565b6001600160a01b038781166000908152602092835260408082208b5190931682529190925290208054865164ffffffffff821696509192506109fe91908690600160281b90046001600160501b0316611659565b9250610a24856001602002015182548690600160781b90046001600160501b0316611659565b91505093509350939050565b600061093460001983611697565b600080610a528989898989896001806116e5565b50508515610a8c57610140890151518451610a88908b90838b8b8960005b602002016020810190610a839190615a56565b611917565b9250505b8415610ab75761014089015160209081015190850151610ab3908b90838b8a896001610a70565b9150505b600080610ac88a8c600001516119c5565b91509150610afb8a8c600001518d6101400151600060028110610ae757fe5b60200201518c610af687610a30565b611a42565b8a516101408c015160200151610b17918c918c610af686610a30565b610b218483611ad8565b9350610b2d8382611ad8565b9250505097509795505050505050565b6000808080610b6f8c8c8c610b5a610b558e876105f5565b610a30565b610b68610b558f60016105f5565b8a8e610a3e565b9092509050610b7e8783611ad8565b610b888783611ad8565b9350935050509850989650505050505050565b60008084138015610ba95750815b15610bce57610bba87878787611aee565b610bc8868686866000611b94565b50610c10565b6000841315610bf757610bf0610b55610beb898888886000611b94565b610d41565b9050610c10565b610c0d8786610c0587610a30565b866000611bc7565b90505b9695505050505050565b610c22614fae565b610934826001611c3d565b6000610c37611cd7565b6001600160a01b0390941660009081526020948552604080822061ffff90951682529390945250912080546001600160501b039092166001600160501b0319909216919091179055565b6000610c8b611ce4565b6001600160a01b038416600090815260208290526040902080549192509061ffff168315610ccb57815461ffff1916610100821761ffff16178255610cdb565b815461ffff191661feff82161782555b5050505050565b6000610cec611ce4565b6001600160a01b038416600090815260208290526040902080549192509061ffff168315610d2b57815461ffff19166001821761ffff16178255610cdb565b815461ffff191661fffe91909116179055505050565b60006001600160ff1b03821115610d5757600080fd5b5090565b60008062ffffff831115610d78576017610d7484611cf1565b0390505b82811c60081b179050919050565b6000610d90611ce4565b90506000610d9d8461144d565b9050826020015161ffff1660001415610db557600080fd5b604081015161ffff161580610dd95750826020015161ffff16816040015161ffff16145b610de257600080fd5b8260a0015160ff1660641315610df757600080fd5b60006064808560a0015160ff1603029050836060015161ffff168161ffff1610610e2057600080fd5b83610100015161ffff16846060015161ffff1610610e3d57600080fd5b83610140015161ffff1684610100015161ffff1610610e5b57600080fd5b60648460c0015160ff161315610e7057600080fd5b6101408201515161ffff161580610e9a5750610120840151516101408301515161ffff9081169116145b610ea357600080fd5b6101408201516020015161ffff161580610edc57506101208401516020015161014083015161ffff909116906001602002015161ffff16145b610ee557600080fd5b61012084015151602085015161ffff90811691161415610f0457600080fd5b6101208401516001602002015161ffff16846020015161ffff161415610f2957600080fd5b6101208401515161ffff1615801590610f4e57506101208401516020015161ffff1615155b15610f73576101208401516020810151905161ffff90811691161415610f7357600080fd5b6101208401515161ffff16151580610f9757506101208401516020015161ffff1615155b15610fb257606484610180015160ff161215610fb257600080fd5b6000610fc5856020015161ffff16610c1a565b9050806020015115610fd657600080fd5b6101208501515161ffff161561100f576101208501516110019060005b602002015161ffff16610c1a565b602001511561100f57600080fd5b6101208501516020015161ffff161561104157610120850151611033906001610ff3565b602001511561104157600080fd5b84846000886001600160a01b03166001600160a01b0316815260200190815260200160002060008201518160000160006101000a81548161ffff021916908361ffff16021790555060208201518160000160026101000a81548161ffff021916908361ffff16021790555060408201518160000160046101000a81548163ffffffff021916908363ffffffff16021790555060608201518160000160086101000a81548161ffff021916908361ffff160217905550608082015181600001600a6101000a81548160ff021916908360ff16021790555060a082015181600001600b6101000a81548160ff021916908360ff16021790555060c082015181600001600c6101000a81548160ff021916908360ff16021790555060e082015181600001600d6101000a81548160ff021916908360ff16021790555061010082015181600001600e6101000a81548161ffff021916908361ffff160217905550610120820151816001019060026111b6929190614fd5565b506101408201516002828101805461ffff191661ffff909316929092179091556101608301516111eb91600384019190615067565b5061018091909101516004909101805460ff191660ff909216919091179055505050505050565b61121b8261090d565b61122457611449565b600061122e61164c565b6001600160a01b0380841660009081526020928352604080822087519093168252919092528120805490925064ffffffffff8116916001600160501b03600160281b83048116820392600160781b9004169003826112a05781158015611292575080155b61129b57600080fd5b6112ad565b428311156112ad57600080fd5b6000806112be8789600001516119c5565b6101408a015151919350915061ffff1615611368578751610140890151516112ec91899188610af687610a30565b87516101408901515161130491908990888887611d89565b909450915061132261131d61131886610a30565b611ec0565b611ecf565b86546001600160501b0391909116600160281b026effffffffffffffffffff00000000001990911617865587516101408901515161136891899164ffffffffff86611a42565b6101408801516020015161ffff161561140d5787516101408901516020015161139791899188610af686610a30565b8751610140890151602001516113b291908990888786611d89565b90935090506113c661131d61131885610a30565b86546001600160501b0391909116600160781b0269ffffffffffffffffffff60781b1990911617865587516101408901516020015161140d91899164ffffffffff85611a42565b600082138061141c5750600081135b15611431576114318789600001518484611ee5565b61144286858564ffffffffff611fb4565b5050505050505b5050565b611455614ee8565b600061145f611ce4565b6001600160a01b03841660008181526020838152604091829020928652825461ffff8082169288019290925262010000900416908501529091506114bb612710633b9aca008354600160501b900460ff16919005600502611ff2565b608084015280546114da90600160401b900461ffff16620186a0611ff2565b60a084015280546114f990600160701b900461ffff16620186a0611ff2565b61012084015260028101546115159061ffff16620186a0611ff2565b610180840152805460649060ff600160581b90910416633b9aca00020560c08401528054600160601b810460ff90811660e0860152600160681b909104166101008401526040805180820191829052906001830190600290826000855b82829054906101000a900461ffff1661ffff168152602001906002019060208260010104928301926001038202915080841161157257505050505061014085019190915250600481015460ff166101c084015280546115dd90600160201b900463ffffffff16612020565b60608401526116136003820160005b600891828204019190066004029054906101000a900463ffffffff1663ffffffff16612020565b6101a0840151526116286003820160016115ec565b6101a084015160200152509092915050565b6116426150f1565b610934824261202e565b600080610907601a6120ef565b600064ffffffffff831461167957816001600160501b031660000361168f565b61168f846001600160501b038416600003612108565b949350505050565b8181026000198314156116c7578115806116b95750828282816116b657fe5b05145b6116c257600080fd5b610907565b8215806116dc5750818382816116d957fe5b05145b61090757600080fd5b60008060006116f261164c565b6001600160a01b03808c166000908152602092835260408082208f519093168252919092529020805490915064ffffffffff1689811480611731575080155b61173a57600080fd5b8651825461175a91908c90600160281b90046001600160501b0316611659565b9350611780876001602002015183548c90600160781b90046001600160501b0316611659565b9250881561180857611792848a611ad8565b93506117c18c8c8e61014001516000600281106117ab57fe5b60200201518d8d8c60005b60200201518b61215f565b6117dc61131d611318610b558a600060200201518e89612239565b82546001600160501b0391909116600160281b026effffffffffffffffffff0000000000199091161782555b8715611885576118188389611ad8565b92506118408c8c8e610140015160016002811061183157fe5b60200201518d8c8c60016117b6565b61185b61131d611318610b558a600160200201518e88612239565b82546001600160501b0391909116600160781b0269ffffffffffffffffffff60781b199091161782555b85156118f4578315806118a257506101a08c015151600085900312155b6118be5760405162461bcd60e51b815260040161031290615ca0565b8215806118d857506101a08c015160200151600084900312155b6118f45760405162461bcd60e51b815260040161031290615ca0565b6119088285856119038e612257565b611fb4565b50509850989650505050505050565b6000866040015161ffff168561ffff16141561193257600080fd5b8261193f57506000610c10565b64ffffffffff841461198e576119638588600001518686868c61010001514261226b565b9050600083121561198e576000811361198e5760405162461bcd60e51b815260040161031290615bd0565b80610c10576119a0610b558785612379565b905064ffffffffff8414610c10578651610c109086866119bf85610a30565b8761239b565b60008060006119d261248b565b6001600160a01b039586166000908152602091825260408082209690971681529490525050502060010180547fffff0000000000000000000000000000000000000000ffffffffffffffffffff81169091556001600160501b03600160501b8204811692600160a01b9092041690565b80611a4c57610cdb565b6000611a5b858585600b612498565b90506000806000841215611a7457508690506000611a7b565b5060009050865b6000611a86856124ce565b9050816001600160a01b0316836001600160a01b0316336001600160a01b0316600080516020615ee88339815191528785604051611ac5929190615e24565b60405180910390a4505050505050505050565b8181018281121560008312151461090757600080fd5b6000611af86124ef565b61ffff8416600090815260209190915260408120546001600160a01b03169150821215611b23579293925b806001600160a01b03166323de66518686611b3d866124ce565b6040518463ffffffff1660e01b8152600401611b5b93929190615b19565b600060405180830381600087803b158015611b7557600080fd5b505af1158015611b89573d6000803e3d6000fd5b505050505050505050565b600080611bac8787611ba588610a30565b87876124fc565b9050611bba61131882610a30565b9150505b95945050505050565b600083611bd657506000611bbe565b60008413611be357600080fd5b6000611bf28661ffff16610c1a565b90506000611c0982611c0487896125a4565b6125d0565b90506000611c1a898984898961260d565b90945090508681036000811215611c3057600080fd5b5050505095945050505050565b611c45614fae565b6000611c4f6126ca565b6000858152602082815260408083208715158452825291829020825160a08101845281546001600160a01b038116825260ff600160a01b82048116151594830194909452600160b01b81048416600a0a9482019490945293945092916060830191600160a81b909104166005811115611cc457fe5b8152600060209091015295945050505050565b60008061090760176120ef565b60008061090760146120ef565b600081611cfd57600080fd5b600160801b8210611d1057608091821c91015b600160401b8210611d2357604091821c91015b600160201b8210611d3657602091821c91015b620100008210611d4857601091821c91015b6101008210611d5957600891821c91015b60108210611d6957600491821c91015b60048210611d7957600291821c91015b6002821061093757600101919050565b6000806000611d978761163a565b90506000611da36126d7565b6001600160a01b038b1660009081526020918252604080822064ffffffffff8352835280822061ffff8c1683529092522090508615611e63576000611de66126d7565b6001600160a01b038c166000908152602091825260408082208b8352835280822061ffff8d16835290925290812080549092506001600160501b03811690910390600160f01b900460ff16611e6057611e42838d8c8c856126e4565b81546001600160501b031960ff60f01b19909116600160f01b171682555b50505b8615611e7957611e768888886000612748565b93505b611e8782828a8d8989612797565b9094509250611ea1898b8a8a611e9c8b610a30565b612860565b611eb3898b8a64ffffffffff88612860565b5050965096945050505050565b600080821215610d5757600080fd5b60006001600160501b03821115610d5757600080fd5b6000611eef61248b565b6001600160a01b0386811660009081526020928352604080822092881682529190925290206001810154909150611f3e9061131d9061131890600160501b90046001600160501b031686611ad8565b60018201805469ffffffffffffffffffff60501b1916600160501b6001600160501b03938416021790819055611f859161131d9161131891600160a01b9091041685611ad8565b8160010160146101000a8154816001600160501b0302191690836001600160501b031602179055505050505050565b82158015611fc0575081155b15611fd657835464ffffffffff19168455611fec565b835464ffffffffff191664ffffffffff82161784555b50505050565b60008261200157506000610907565b8282028284828161200e57fe5b041461201957600080fd5b9392505050565b600881901c60ff9091161b90565b6120366150f1565b6000612041846128e2565b905082816000015110156120805760008061205b866129aa565b905061206986848388612a27565b9093509150612079868385612acb565b505061208d565b8051831461208d57600080fd5b60405180606001604052806120b6610beb8460a001518560c00151611ff290919063ffffffff16565b81526020016120d9610beb8460a001518560e00151611ff290919063ffffffff16565b8152602001826060015181525091505092915050565b6000620f424082602681111561210157fe5b0192915050565b60006001821261211757600080fd5b8161212457506000610907565b61201960016121596ec097ce7bc90715b34b9f100000000061215387602001518761169790919063ffffffff16565b90612cfc565b90612d2d565b60006121696126d7565b88516001600160a01b0316600090815260209182526040808220888352835280822061ffff8a16835290925290812080549092506121b390859088906001600160501b0316611659565b90506121bf8186611ad8565b90506121d182858b8a8a866000612d43565b600080861380156121e6575064ffffffffff87145b1561220857612201610b5586896121fc8a610a30565b612239565b9050612216565b612213858888612239565b90505b831561222d5761222d898b600001518a8a85612860565b50505050505050505050565b600064ffffffffff831461224d578161168f565b61168f8483612e1d565b600064ffffffffff821115610d5757600080fd5b60008061227a89888686612e79565b90506000612287876124ce565b90506001600160581b03811061229c57600080fd5b600060788763ffffffff16901b609883901b60f085901b60f860008c136122c45760016122c7565b60005b60058111156122d257fe5b60ff16901b17171760001b905073__$7ac922d04bd7a1b42c7f6e5f1dd89a70af$__63715e90028c8c846040518463ffffffff1660e01b815260040161231a93929190615df6565b60206040518083038186803b15801561233257600080fd5b505af4158015612346573d6000803e3d6000fd5b505050506040513d601f19601f8201168201806040525081019061236a9190615917565b9b9a5050505050505050505050565b815160009061201990612153846ec097ce7bc90715b34b9f1000000000611697565b60006123a5612eb8565b61ffff861660009081526020828152604080832088845290915290208054919250906123ee9061131d90600160501b90046001600160501b03166123e886611ec0565b90612ec5565b815469ffffffffffffffffffff60501b1916600160501b6001600160501b03928316021780835561242e9161131d91600160a01b9004166123e887611ec0565b81546001600160501b0391909116600160a01b0269ffffffffffffffffffff60a01b19909116178155612465876105e78887611aee565b6124736105e7878786612ed7565b6124826105e788888887612f4f565b50505050505050565b60008061090760166120ef565b68010000000000000000600160e01b03604085901b1667ffff000000000000603085901b1617600883901b178117949350505050565b6000808212156124e8576124e182610a30565b9050610937565b5080610937565b60008061090760216120ef565b60008361250b57506000611bbe565b6000841261251857600080fd5b60006125278661ffff16610c1a565b905061253c8161253786886125a4565b612fba565b9150600061254983610a30565b9050612556878383612ff2565b60038260600151600581111561256857fe5b141561257e576125798882866130e0565b61258b565b815161258b9089836131a8565b612598888885858961321f565b50505095945050505050565b60006120196ec097ce7bc90715b34b9f100000000061215385600001518561169790919063ffffffff16565b60006305f5e100836040015112156125fe576125f760016125f18585612fba565b90611ad8565b9050610907565b61201983612537846001611ad8565b600080600061261b86611ec0565b90508061262f5760008092509250506126c0565b600061263e8861ffff16610c1a565b905060038160600151600581111561265257fe5b141561269957348210156126725761266d89833403876130e0565b612691565b3482146126915760405162461bcd60e51b815260040161031290615bf7565b8693506126ae565b6126ab610beb82600001518b85613266565b93505b6126bb898986848a61321f565b925050505b9550959350505050565b60008061090760076120ef565b60008061090760186120ef565b60006126f284848488612748565b86549091506001600160501b0316600061270c8284612d2d565b905061271a61131d82611ec0565b88546001600160501b0319166001600160501b0391909116178855611442878761274387610a30565b6133e4565b600080600061275787876134ab565b915091508061276557600080fd5b61276f8286612e1d565b92506001600160a01b0384161561278d5761278d848888888761353e565b5050949350505050565b806000808413156128555760006127bb6127b4610b558b886125a4565b8a90612e1d565b90506000848212156127f5575060009250836127ee6127e7610b556127e08585612d2d565b8d90612108565b8b90612379565b9250612804565b50806128018582612d2d565b93505b6128108a888a84613611565b88546001600160501b031660006128278284611ad8565b905061283561131d82611ec0565b8b546001600160501b0319166001600160501b0391909116178b55505050505b965096945050505050565b8061286a57610cdb565b6000808061287b878787600a612498565b90506000841315612892578792506000915061289a565b600092508791505b6001600160a01b0380831690841633600080516020615ee8833981519152846128c2896124ce565b6040516128d0929190615e24565b60405180910390a45050505050505050565b6128ea615112565b60006128f461363e565b61ffff93841660009081526020918252604090819020805464ffffffffff81168652600160281b81046001600160581b03908116948701949094526001820154841692860192909252600160d81b820463ffffffff166060860152600160801b9091049091166080840152600201546001600160501b0380821660a0850152600160501b8204811660c0850152600160a01b82041660e0840152600160f01b900460ff1661012c02909216610100820152919050565b6000806129b68361364b565b6001600160a01b031663ef81f2166040518163ffffffff1660e01b81526004016040805180830381600087803b1580156129ef57600080fd5b505af1158015612a03573d6000803e3d6000fd5b505050506040513d601f19601f8201168201806040525081019061168f9190615a33565b612a2f615112565b6000806000612a3f88868961367b565b60c08b019290925260e08a019290925260208901519193509150612a639083612ec5565b6020880152608087015160009015612a91576080880151612a8e90612a88898261378c565b906137a1565b90505b612ab1612aa6670de0b6b3a764000083612ec5565b60a08a0151906137be565b60a089015250506080860194909452505082529092909150565b6000612ad561363e565b60008561ffff1681526020019081526020016000209050612af98260000151612257565b815464ffffffffff191664ffffffffff9190911617815560a0820151612b1e90611ecf565b6002820180546001600160501b0319166001600160501b039290921691909117905560c0820151612b4e90611ecf565b81600201600a6101000a8154816001600160501b0302191690836001600160501b03160217905550612b838260e00151611ecf565b8160020160146101000a8154816001600160501b0302191690836001600160501b03160217905550612bb882602001516137db565b81546001600160581b0391909116600160281b026fffffffffffffffffffffff0000000000199091161781556040820151612bf2906137db565b6001820180546affffffffffffffffffffff19166001600160581b03929092169190911790556080820151612c26906137db565b81546001600160581b0391909116600160801b026affffffffffffffffffffff60801b199091161781556060820151612c5e906137f1565b815463ffffffff91909116600160d81b0263ffffffff60d81b199091161781558215612caa576000612c8f84610d41565b9050612c9b8582613804565b612ca8610fee868361383b565b505b8361ffff167fef25641e225e493886510ca1ad6584fa7b442b9fea820a29d1de3ce27d270fd28360a001518460c001518560e00151604051612cee93929190615e32565b60405180910390a250505050565b600081600019148015612d125750600160ff1b83145b15612d1c57600080fd5b818381612d2557fe5b059392505050565b8082038281131560008312151461090757600080fd5b86546001600160501b0316600090810390612d5f888686612239565b9050612d7061131d61131883610a30565b89546001600160501b0319166001600160501b03919091161789556000612d9783836138bb565b9050600064ffffffffff871415612dbe578851612db7908b908a85613611565b5084612df0565b84612df0578851612dd29089898787613942565b8851612de2908961274385610a30565b612ded898b8a613a02565b90505b600082138015612dfe575084155b15612e10578851612e10908983613aa8565b5050505050505050505050565b600081600013158015612e305750600a82125b15612e3d57506000610907565b60008212612e4a57600080fd5b612019600161215985602001516121536ec097ce7bc90715b34b9f10000000008761169790919063ffffffff16565b6000806000612e8b8761ffff16613b24565b9050612e9b8160ff168786613b3a565b909350915084831115612ead57600080fd5b811561278d57600080fd5b60008061090760206120ef565b60008282018381101561201957600080fd5b600080612ee5858585613bc9565b915091506000806000851215612efd57879150612f00565b50865b806001600160a01b0316826001600160a01b0316336001600160a01b03167f4a39dc06d4c0dbc64b70af90fd698a233a518aa5d07e595d983b8c0526c8f7fb87876040516128d0929190615b87565b80612f5957610cdb565b6000612f658484613cae565b90506000821215612f74579394935b6001600160a01b0380861690871633600080516020615ee883398151915284612f9c876124ce565b604051612faa929190615e24565b60405180910390a4505050505050565b60006305f5e10083604001511415612fd3575080610907565b6120196305f5e10061215385604001518561169790919063ffffffff16565b6000612ffc613ccc565b83516001600160a01b03166000908152602082905260409020549091508083116130275750506107f9565b60006130328661364b565b90506000816001600160a01b031663b5e4da238487036040518263ffffffff1660e01b81526004016130649190615e1b565b60006040518083038186803b15801561307c57600080fd5b505afa158015613090573d6000803e3d6000fd5b505050506040513d6000823e601f3d908101601f191682016040526130b89190810190615809565b905060006130c68783613cd9565b91506130d490508482612ec5565b86111561144257600080fd5b8015613172577382af49447d8a07e3bd95bd0d56f35241523fbab16001600160a01b031663d0e30db0836040518263ffffffff1660e01b81526004016000604051808303818588803b15801561313557600080fd5b505af1158015613149573d6000803e3d6000fd5b505050505061316d7382af49447d8a07e3bd95bd0d56f35241523fbab184846131a8565b6107f9565b6040516001600160a01b0384169083156108fc029084906000818181858888f19350505050158015611fec573d6000803e3d6000fd5b826001600160a01b031663a9059cbb83836040518363ffffffff1660e01b815260040180836001600160a01b0316815260200182815260200192505050600060405180830381600087803b1580156131ff57600080fd5b505af1158015613213573d6000803e3d6000fd5b505050506107f9613ef0565b60008061322c8486613f5d565b90506132388382612379565b915061324587878461383b565b613250868383613f8d565b835161325c9086614099565b5095945050505050565b600080846001600160a01b03166370a08231306040518263ffffffff1660e01b815260040180826001600160a01b0316815260200191505060206040518083038186803b1580156132b657600080fd5b505afa1580156132ca573d6000803e3d6000fd5b505050506040513d60208110156132e057600080fd5b5051604080516323b872dd60e01b81526001600160a01b038781166004830152306024830152604482018790529151929350908716916323b872dd9160648082019260009290919082900301818387803b15801561333d57600080fd5b505af1158015613351573d6000803e3d6000fd5b5050505061335d613ef0565b6000856001600160a01b03166370a08231306040518263ffffffff1660e01b815260040180826001600160a01b0316815260200191505060206040518083038186803b1580156133ac57600080fd5b505afa1580156133c0573d6000803e3d6000fd5b505050506040513d60208110156133d657600080fd5b50519050610c10818361378c565b60006133ee611cd7565b6001600160a01b03851660009081526020918252604080822061ffff87168352909252908120805490925061343390600160501b90046001600160501b031684612d2d565b905061344161131d82611ec0565b82546001600160501b0391909116600160501b0269ffffffffffffffffffff60501b1990911617825560405161ffff8516906001600160a01b038716907f20478ef460e49d010960d4f3fff35d8dae385443abfac09035d6a2ccbcd834c490610485908590615e1b565b6134b36150f1565b6000806134be6140ee565b61ffff861660009081526020828152604080832088845290915290208054600160f01b900460ff16935090915082156135355780546001600160501b03600160a01b8204811691613510911682611ff2565b8552815461352e90600160501b90046001600160501b031682611ff2565b6020860152505b50509250929050565b600061354a8585613cae565b9050600083121561355c57600160401b175b60006001600160a01b03871633600080516020615ee883398151915284613582886124ce565b604051613590929190615e24565b60405180910390a460006135a760008412876140fb565b9050806001600160a01b03166323de66516105e7896135c5876124ce565b6040518463ffffffff1660e01b81526004016135e393929190615b19565b600060405180830381600087803b1580156135fd57600080fd5b505af1158015612e10573d6000803e3d6000fd5b8015611fec578351602085015160009161363091612153908590611697565b9050610cdb8484848461415b565b600080610907601d6120ef565b600080613656614298565b61ffff939093166000908152602093909352505060409020546001600160a01b031690565b60008060008060008061368e89886142a5565b895190955091935091506000906136b5906136aa908b9061378c565b633b9aca0090611ff2565b90506136ef6136e46301da9c006136cc8585611ff2565b816136d357fe5b670de0b6b3a7640000919004612ec5565b60e08a0151906137be565b96506137116137066301da9c006136cc8785611ff2565b60c08a0151906137be565b955081831415613728575060009350613783915050565b600061374a61373f6301da9c006136cc8786611ff2565b60e08b0151906137be565b90506000613758898361378c565b905061377b88613775838d60400151611ff290919063ffffffff16565b90614340565b965050505050505b93509350935093565b60008282111561379b57600080fd5b50900390565b60006120196137b884670de0b6b3a7640000611ff2565b83614340565b60006120196137cd8484611ff2565b670de0b6b3a7640000614340565b60006001600160581b03821115610d5757600080fd5b600063ffffffff821115610d5757600080fd5b600081121561381257600080fd5b6000613820610fee8461435f565b905061382c8183611ad8565b90506107f9610fee84836143b8565b60006138456124ef565b61ffff8416600090815260209190915260409081902054905163ad1c095d60e01b81526001600160a01b039091169150819063ad1c095d9061388d9087908690600401615b3d565b600060405180830381600087803b1580156138a757600080fd5b505af1158015611442573d6000803e3d6000fd5b6000818314806138d85750600083121580156138d8575060008212155b156138e557506000610907565b600083131580156138f65750816000125b15613902575081610907565b600082131580156139135750826000125b15613921576125f782610a30565b60008313158015613933575060008213155b156100a7576125f78383612d2d565b600061394e83836138bb565b90508061395b5750610cdb565b6000613965612eb8565b61ffff87166000908152602082815260408083208984529091528120549192506001600160501b0390911681039061399d8285612d2d565b905060008113156139ad57600080fd5b6139bc61131d61131883610a30565b61ffff89166000908152602085815260408083208b8452909152902080546001600160501b0319166001600160501b0392909216919091179055611b8989898987612ed7565b600080846040015161ffff168361ffff161415613a4e57613a2161442c565b85516001600160a01b031660009081526020918252604080822064ffffffffff8352909252209050613a8b565b613a566126d7565b85516001600160a01b031660009081526020918252604080822064ffffffffff8352835280822061ffff871683529092522090505b8054611bbe90859064ffffffffff906001600160501b0316611659565b6000613ab2611cd7565b6001600160a01b03851660009081526020918252604080822061ffff871683529092529081208054909250613af790600160501b90046001600160501b031684612d2d565b82549091506001600160501b0316811315610cdb5760405162461bcd60e51b815260040161031290615c7a565b600080613b3083614439565b60ff169392505050565b60008060008511613b4a57600080fd5b6007851115613b5857600080fd5b6000613b6384614456565b905060015b868111613bbb576000613b84613b7d83614474565b8490612ec5565b905086811415613b9c5750925060009150613bc19050565b86811115613bb25750925060019150613bc19050565b50600101613b68565b50600080fd5b935093915050565b604080516002808252606082810190935282916000918160200160208202803683370190505090506000613bfd8787613cae565b90508082600081518110613c0d57fe5b602002602001018181525050600160401b811782600181518110613c2d57fe5b602090810291909101015260408051600280825260608201909252600091816020016020820280368337019050509050613c66866124ce565b81600081518110613c7357fe5b602002602001018181525050613c88866124ce565b81600181518110613c9557fe5b6020908102919091010152919791965090945050505050565b67ffff000000000000603083901b16600882901b1760011792915050565b60008061090760266120ef565b60008060005b8351811015613ee8576000848281518110613cf657fe5b60200260200101519050600081606001516001600160a01b03166370a08231306040518263ffffffff1660e01b8152600401613d329190615b05565b60206040518083038186803b158015613d4a57600080fd5b505afa158015613d5e573d6000803e3d6000fd5b505050506040513d601f19601f82011682018060405250810190613d829190615917565b90506000613d908830614518565b905060005b835151811015613dec57613ddb84600001518281518110613db257fe5b6020026020010151600086602001518481518110613dcc57fe5b602002602001015160016145c2565b613de457600196505b600101613d95565b506000613df98930614518565b90506000613e07828461378c565b90508085604001511115613e1a57600080fd5b60608501516040516370a0823160e01b81526000916001600160a01b0316906370a0823190613e4d903090600401615b05565b60206040518083038186803b158015613e6557600080fd5b505afa158015613e79573d6000803e3d6000fd5b505050506040513d601f19601f82011682018060405250810190613e9d9190615917565b905084811115613eac57600080fd5b613ebb86606001518683614830565b613ec58883612ec5565b9750613ed68b600001518585614830565b505060019094019350613cdf92505050565b509250929050565b6000613efa61515e565b3d8015613f0e5760208114613f1757600080fd5b60019250613f22565b60206000833e815192505b5081611449576040805162461bcd60e51b8152602060048201526005602482015264045524332360dc1b604482015290519081900360640190fd5b60006305f5e10083604001511415613f76575080610907565b604083015161201990612153846305f5e100611697565b6000613f9761363e565b61ffff8516600090815260209190915260409020805490915064ffffffffff164214613fc257600080fd5b8054600090613fe190600160281b90046001600160581b031685611ad8565b825490915060009061400390600160801b90046001600160581b031685611ad8565b905080624c4b40131561401557600080fd5b61402661402182611ec0565b6137db565b83546001600160581b0391909116600160801b026affffffffffffffffffffff60801b1990911617835561405c61402183611ec0565b83546001600160581b0391909116600160281b026fffffffffffffffffffffff000000000019909116178355614091836148ad565b505050505050565b60006140a3613ccc565b6001600160a01b0384166000908152602082905260409020549091506140cc6113188285611ad8565b6001600160a01b03909416600090815260209290925250604090209190915550565b600080610907601e6120ef565b60008261412d5761410a6124ef565b61ffff8316600090815260209190915260409020546001600160a01b0316612019565b614135614978565b61ffff8316600090815260209190915260409020546001600160a01b0316905092915050565b600061416561363e565b61ffff8516600090815260209190915260409020805490915064ffffffffff16421461419057600080fd5b8054600160f81b900460ff166141a557600080fd5b60018101546000906141c0906001600160581b031685611ad8565b82549091506000906141e290600160281b90046001600160581b031685611ad8565b9050816009191280156141f55750600082125b156141ff57600091505b806009191280156142105750600081125b15614219575060005b61422561402183611ec0565b6001840180546affffffffffffffffffffff19166001600160581b039290921691909117905561425761402182611ec0565b83546001600160581b0391909116600160281b026fffffffffffffffffffffff00000000001990911617835561428f87878688614985565b612482836148ad565b600080610907601f6120ef565b6000806000806000856020015111156142f2576142ef6142d68660c001518760200151611ff290919063ffffffff16565b60e087015160408801516142e991611ff2565b90614a8d565b90505b60006142fd87614aa0565b90506143098183614ad3565b945081156143205761431d81866001614b86565b93505b602086015115614337576143348583614c00565b92505b50509250925092565b600080821161434e57600080fd5b81838161435757fe5b049392505050565b60008061436a614c19565b6001600160a01b03851660009081526020828152604080832061ffff8816845290915281208054600160a81b9004600a90810b900b94509192508312156143b057600080fd5b505092915050565b60008112156143c657600080fd5b60006143d0614c19565b6001600160a01b03851660009081526020828152604080832061ffff88168452909152902090915061440183614c26565b8154600a9190910b6001600160581b0316600160a81b026001600160a81b0390911617905550505050565b60008061090760156120ef565b600080614444614c58565b60009384526020525050604090205490565b60006276a70082101561446857600080fd5b506276a7008106900390565b6000816001141561448957506276a700610937565b816002141561449c575062ed4e00610937565b81600314156144b057506301da9c00610937565b81600414156144c457506303b53800610937565b81600514156144d857506309450c00610937565b81600614156144ec575063128a1800610937565b816007141561450057506325143000610937565b60405162461bcd60e51b815260040161031290615c1c565b600060038360600151600581111561452c57fe5b141561454357506001600160a01b03811631610907565b82516040516370a0823160e01b81526001600160a01b03909116906370a0823190614572908590600401615b05565b60206040518083038186803b15801561458a57600080fd5b505afa15801561459e573d6000803e3d6000fd5b505050506040513d601f19601f820116820180604052508101906125f79190615917565b6000806000866001600160a01b031686866040518082805190602001908083835b602083106146025780518252601f1990920191602091820191016145e3565b6001836020036101000a03801982511681845116808217855250505050505090500191505060006040518083038185875af1925050503d8060008114614664576040519150601f19603f3d011682016040523d82523d6000602084013e614669565b606091505b50915091508361470c578161467d82614c65565b906147065760405162461bcd60e51b81526004018080602001828103825283818151815260200191508051906020019080838360005b838110156146cb5781810151838201526020016146b3565b50505050905090810190601f1680156146f85780820380516001836020036101000a031916815260200191505b509250505060405180910390fd5b5061325c565b866001600160a01b03167f3c7e398c5e91088cae639370e35b25ea669d81fbdf0def5388e73661bc34e08e878761474285614c65565b604051808481526020018060200180602001838103835285818151815260200191508051906020019080838360005b83811015614789578181015183820152602001614771565b50505050905090810190601f1680156147b65780820380516001836020036101000a031916815260200191505b50838103825284518152845160209182019186019080838360005b838110156147e95781810151838201526020016147d1565b50505050905090810190601f1680156148165780820380516001836020036101000a031916815260200191505b509550505050505060405180910390a25095945050505050565b600061483a613ccc565b6001600160a01b0385166000908152602082905260409020549091508381111561486357600080fd5b600061487a61487186610d41565b61215986610d41565b90506148896113188383611ad8565b6001600160a01b039096166000908152602093909352505060409020929092555050565b805460028201546000916148ef91600160281b9091046001600160581b0316906148e9906001600160501b03600160501b820481169116611697565b90611697565b60018301546002840154919250600091614929916001600160581b0316906148e9906001600160501b03600160a01b820481169116611697565b83549091506000906149609060016001600160581b03600160801b909204821601166ec097ce7bc90715b34b9f1000000000611697565b90508061496d8484612d2d565b1315611fec57600080fd5b60008061090760226120ef565b600061498f6124ef565b61ffff8516600090815260209190915260408120546001600160a01b031691506149b7614978565b61ffff8616600090815260209190915260409081902054905163ad1c095d60e01b81526001600160a01b039091169150819063ad1c095d906149ff9089908790600401615b3d565b600060405180830381600087803b158015614a1957600080fd5b505af1158015614a2d573d6000803e3d6000fd5b505060405163ad1c095d60e01b81526001600160a01b038516925063ad1c095d9150614a5f9089908890600401615b3d565b600060405180830381600087803b158015614a7957600080fd5b505af115801561222d573d6000803e3d6000fd5b60006120196137b884633b9aca00611ff2565b614aa861517c565b6000614ab2614d6a565b61ffff84166000908152602091909152604081205491506120199082614d77565b600080836080015111614ae557600080fd5b633b9aca00821115614af657600080fd5b82518211614b1557825160408401516125f79190613775908590611ff2565b82602001518211614b4d5760408301518351602085015160608601516125f793926123e8928190039161377591880390859003611ff2565b61201983606001516123e88560200151633b9aca0003613775876060015188608001510388602001518803611ff290919063ffffffff16565b600080614ba560646137758760e0015187611ff290919063ffffffff16565b90508460a00151811015614bba575060a08401515b8460c00151811115614bcd575060c08401515b8215614be457614bdd8482612ec5565b9150614bf8565b838111614bf357808403611bbe565b600091505b509392505050565b6000612019614c0f8484611ff2565b633b9aca00614340565b60008061090760066120ef565b60006a7fffffffffffffffffffff198212801590614c4f57506a7fffffffffffffffffffff8213155b610d5757600080fd5b60008061090760096120ef565b6060604482511015614c9b575060408051808201909152600d81526c14da5b195b9d0814995d995c9d609a1b6020820152610937565b6004820180519092602401906020811015614cb557600080fd5b8101908080516040519392919084600160201b821115614cd457600080fd5b908301906020820185811115614ce957600080fd5b8251600160201b811182820188101715614d0257600080fd5b82525081516020918201929091019080838360005b83811015614d2f578181015183820152602001614d17565b50505050905090810190601f168015614d5c5780820380516001836020036101000a031916815260200191505b506040525050509050919050565b600080610907601b6120ef565b614d7f61517c565b6064633b9aca008360ff861660208110614d9557fe5b1a0281614d9e57fe5b0481526064633b9aca008360ff861660010160208110614dba57fe5b1a0281614dc357fe5b04816020018181525050614de88260028560ff160160208110614de257fe5b1a614e96565b60808201819052610100908360ff861660030160208110614e0557fe5b1a0281614e0e57fe5b0460408201526080810151610100908360ff861660040160208110614e2f57fe5b1a0281614e3857fe5b0460608201526207a1208260ff851660050160208110614e5457fe5b1a0260a0820152622625a08260ff851660060160208110614e7157fe5b1a0260c08201528160ff841660070160208110614e8a57fe5b1a60e082015292915050565b60008160ff16609610614eb15760ff8216622625a002610934565b5060951960ff919091160162e4e1c00263165a0bc00190565b60405180604001604052806002906020820280368337509192915050565b604051806101e0016040528060006001600160a01b03168152602001600061ffff168152602001600061ffff16815260200160008152602001600081526020016000815260200160008152602001600081526020016000815260200160008152602001614f53614eca565b8152602001614f606150f1565b815260200160008152602001614f74614eca565b8152602001600081525090565b60405180604001604052806002905b614f986150f1565b815260200190600190039081614f905790505090565b6040805160a081018252600080825260208201819052918101829052906060820190614f74565b60018301918390821561505b5791602002820160005b8382111561502b57835183826101000a81548161ffff021916908361ffff1602179055509260200192600201602081600101049283019260010302614feb565b80156150595782816101000a81549061ffff021916905560020160208160010104928301926001030261502b565b505b50610d579291506151c1565b60018301918390821561505b5791602002820160005b838211156150c157835183826101000a81548163ffffffff021916908363ffffffff160217905550926020019260040160208160030104928301926001030261507d565b80156150595782816101000a81549063ffffffff02191690556004016020816003010492830192600103026150c1565b60405180606001604052806000815260200160008152602001600081525090565b6040518061012001604052806000815260200160008152602001600081526020016000815260200160008152602001600081526020016000815260200160008152602001600081525090565b60405180602001604052806001906020820280368337509192915050565b60405180610100016040528060008152602001600081526020016000815260200160008152602001600081526020016000815260200160008152602001600081525090565b5b80821115610d5757600081556001016151c2565b805161093781615e9e565b600082601f8301126151f1578081fd5b8151602061520661520183615e80565b615e5c565b8281528181019085830183850287018401881015615222578586fd5b855b8581101561524957815161523781615e9e565b84529284019290840190600101615224565b5090979650505050505050565b6000601f8381840112615267578182fd5b8251602061527761520183615e80565b82815281810190868301865b8581101561531c57815189018a603f82011261529d578889fd5b8581015167ffffffffffffffff8111156152b357fe5b6152c4818a01601f19168801615e5c565b81815260408d818486010111156152d9578b8cfd5b8b5b838110156152f6578481018201518382018b015289016152db565b83811115615306578c8a85850101525b5050865250509284019290840190600101615283565b509098975050505050505050565b600082601f83011261533a578081fd5b6040516040810181811067ffffffffffffffff8211171561535757fe5b806040525080838560408601111561536d578384fd5b835b600281101561539857813561538381615eb6565b8352602092830192919091019060010161536f565b509195945050505050565b600082601f8301126153b3578081fd5b6040516040810181811067ffffffffffffffff821117156153d057fe5b80604052508083856040860111156153e6578384fd5b835b60028110156153985781516153fc81615eb6565b835260209283019291909101906001016153e8565b806040810183101561090757600080fd5b600082601f830112615432578081fd5b6040516040810181811067ffffffffffffffff8211171561544f57fe5b8060405250808385604086011115615465578384fd5b835b6002811015615398578135835260209283019290910190600101615467565b600082601f830112615496578081fd5b6040516040810181811067ffffffffffffffff821117156154b357fe5b80604052508083856040860111156154c9578384fd5b835b60028110156153985781516154df81615ec6565b835260209283019291909101906001016154cb565b803561093781615eb6565b805161093781615eb6565b805161093781615ec6565b803561093781615ed8565b80356001600160501b038116811461093757600080fd5b805161093781615ed8565b60008060408385031215615554578182fd5b823561555f81615e9e565b9150602083013561556f81615e9e565b809150509250929050565b6000806040838503121561558c578182fd5b823561559781615e9e565b91506020830135801515811461556f578182fd5b60008060008385036102208112156155c1578182fd5b84356155cc81615e9e565b93506101e0601f1982018113156155e1578283fd5b6101a091506155ef82615e5c565b6155fb602088016154f4565b8152615609604088016154f4565b602082015260608701356040820152615624608088016154f4565b606082015261563560a08801615515565b608082015261564660c08801615515565b60a082015261565760e08801615515565b60c082015261010061566a818901615515565b60e083015261012061567d818a016154f4565b8284015261014091506156928a838b0161532a565b908301526101806156a48982016154f4565b828401526156b48a868b01615422565b6101608401526156c5848a01615515565b908301525093506156dc9150506102008501615520565b90509250925092565b6000806000606084860312156156f9578081fd5b833561570481615e9e565b9250602084013561571481615eb6565b91506156dc60408501615520565b60008060008060c08587031215615737578182fd5b843561574281615e9e565b9350602085013592506157588660408701615411565b91506157678660808701615411565b905092959194509250565b6000806000806000610100868803121561578a578283fd5b853561579581615e9e565b9450602086013593506157ab8760408801615411565b92506157ba8760808801615411565b91506157c98760c08801615411565b90509295509295909350565b600080604083850312156157e7578182fd5b82356157f281615e9e565b915061580060208401615520565b90509250929050565b6000602080838503121561581b578182fd5b825167ffffffffffffffff80821115615832578384fd5b818501915085601f830112615845578384fd5b815161585361520182615e80565b81815284810190848601875b8481101561590857815187016080818d03601f1901121561587e57898afd5b60408051608081018181108a8211171561589457fe5b8252828b0151898111156158a6578c8dfd5b6158b48f8d838701016151e1565b82525081830151898111156158c7578c8dfd5b6158d58f8d83870101615256565b8c830152506060830151828201526158ef608084016151d6565b606082015286525050928701929087019060010161585f565b50909998505050505050505050565b600060208284031215615928578081fd5b5051919050565b60006101e08284031215615941578081fd5b61594c6101a0615e5c565b615955836154ff565b8152615963602084016154ff565b60208201526159746040840161550a565b6040820152615985606084016154ff565b606082015261599660808401615537565b60808201526159a760a08401615537565b60a08201526159b860c08401615537565b60c08201526159c960e08401615537565b60e08201526101006159dc8185016154ff565b908201526101206159ef858583016153a3565b90820152610160615a018482016154ff565b610140830152610180615a1686828701615486565b82840152615a276101c08601615537565b90830152509392505050565b60008060408385031215615a45578182fd5b505080516020909101519092909150565b600060208284031215615a67578081fd5b813561201981615ec6565b8060005b6002811015611fec57815161ffff16845260209384019390910190600101615a76565b8060005b6002811015611fec578151845260209384019390910190600101615a9d565b6000815180845260208085019450808401835b83811015615aeb57815187529582019590820190600101615acf565b509495945050505050565b61ffff169052565b60ff169052565b6001600160a01b0391909116815260200190565b6001600160a01b039384168152919092166020820152604081019190915260600190565b6001600160a01b03929092168252602082015260400190565b60408101818360005b6002811015615b7e578151835260209283019290910190600101615b5f565b50505092915050565b600060408252615b9a6040830185615abc565b8281036020840152611bbe8185615abc565b901515815260200190565b91151582526001600160501b0316602082015260400190565b6020808252600d908201526c109bdc9c9bddc811985a5b1959609a1b604082015260600190565b6020808252600b908201526a4554482042616c616e636560a81b604082015260600190565b6020808252600d908201526c092dcecc2d8d2c840d2dcc8caf609b1b604082015260600190565b6020808252601d908201527f496e73756666696369656e74205365636f6e6461727920426f72726f77000000604082015260600190565b6020808252600c908201526b4d617820436170616369747960a01b604082015260600190565b6020808252600a90820152696d696e20626f72726f7760b01b604082015260600190565b6020808252818101527f4f776e61626c653a2063616c6c6572206973206e6f7420746865206f776e6572604082015260600190565b60006101e082019050615d0d828451615af6565b6020830151615d1f6020840182615af6565b50604083015160408301526060830151615d3c6060840182615af6565b506080830151615d4f6080840182615afe565b5060a0830151615d6260a0840182615afe565b5060c0830151615d7560c0840182615afe565b5060e0830151615d8860e0840182615afe565b5061010080840151615d9c82850182615af6565b505061012080840151615db182850182615a72565b5050610140830151610160615dc881850183615af6565b8401519050610180615ddc84820183615a99565b8401519050615def6101c0840182615afe565b5092915050565b61ffff9390931683526001600160a01b03919091166020830152604082015260600190565b90815260200190565b918252602082015260400190565b9283526020830191909152604082015260600190565b6001600160501b0391909116815260200190565b60405181810167ffffffffffffffff81118282101715615e7857fe5b604052919050565b600067ffffffffffffffff821115615e9457fe5b5060209081020190565b6001600160a01b0381168114615eb357600080fd5b50565b61ffff81168114615eb357600080fd5b63ffffffff81168114615eb357600080fd5b60ff81168114615eb357600080fdfec3d58168c5ae7397731d063d5bbf3d657854427343f4c083240f7aacaa2d0f62a2646970667358221220b45453f8e8ed543a726a092a530ace93629f5970c838c74cfb0f14fd8acf5a4f64736f6c63430007060033","language":"Solidity","natspec":{"kind":"dev","methods":{"borrowSecondaryCurrencyToVault(address,uint256,uint256[2],uint32[2],uint32[2])":{"notice":"Allows a vault to borrow a secondary currency if it is whitelisted to do so","params":{"account":"account that is borrowing the secondary currency","maturity":"the maturity to borrow at","maxBorrowRate":"maximum borrow rate for the first and second secondary currencies","minRollLendRate":"max roll lend rate for the first and second borrow currencies","underlyingToBorrow":"fCash to borrow for the first and second secondary currencies"},"returns":{"underlyingTokensTransferred":"amount of tokens transferred back to the vault"}},"repaySecondaryCurrencyFromVault(address,uint256,uint256[2],uint32[2])":{"notice":"Allows a vault to repay a secondary currency that it has borrowed. Will be executed via a callback which will request that the vault repay a specific amount of underlying tokens.","params":{"account":"account that is repaying the secondary currency","maturity":"the maturity to lend at","minLendRate":"minimum lend rate","underlyingToRepay":"amount of debt shares to repay (used to calculate fCashToLend)"},"returns":{"underlyingDepositExternal":"the amount of underlying transferred from the vault"}},"setMaxBorrowCapacity(address,uint80)":{"notice":"Allows the owner to reduce the max borrow capacity on the vault","params":{"maxVaultBorrowCapacity":"the new max vault borrow capacity on the primary currency","vaultAddress":"address of the vault"}},"setVaultDeleverageStatus(address,bool)":{"notice":"Enables or disables deleverage on a vault.","params":{"disableDeleverage":"true if the vault deleverage should be disabled","vaultAddress":"address of deployed vault"}},"setVaultPauseStatus(address,bool)":{"notice":"Enables or disables a vault. If a vault is disabled, no one can enter the vault but exits are still possible.","params":{"enable":"true if the vault should be enabled immediately","vaultAddress":"address of deployed vault"}},"updateSecondaryBorrowCapacity(address,uint16,uint80)":{"notice":"Whitelists a secondary borrow currency for a vault, vaults can borrow up to the capacity using the `borrowSecondaryCurrencyToVault` and `repaySecondaryCurrencyToVault` methods. Vaults that use a secondary currency must ALWAYS repay the secondary debt during redemption and handle accounting for the secondary currency themselves.","params":{"maxBorrowCapacity":"maximum borrow capacity","secondaryCurrencyId":"struct of vault configuration","vaultAddress":"address of deployed vault"}},"updateVault(address,(uint16,uint16,uint256,uint16,uint8,uint8,uint8,uint8,uint16,uint16[2],uint16,uint256[2],uint8),uint80)":{"notice":"Updates or lists a deployed vault along with its configuration.","params":{"maxPrimaryBorrowCapacity":"maximum borrow capacity","vaultAddress":"address of deployed vault","vaultParams":"struct of vault configuration"}}},"version":1},"opcodes":"PUSH1 0x80 PUSH1 0x40 MSTORE PUSH1 0x4 CALLDATASIZE LT PUSH2 0xA7 JUMPI PUSH1 0x0 CALLDATALOAD PUSH1 0xE0 SHR DUP1 PUSH4 0x69A6D1CC GT PUSH2 0x64 JUMPI DUP1 PUSH4 0x69A6D1CC EQ PUSH2 0x179 JUMPI DUP1 PUSH4 0x82463367 EQ PUSH2 0x199 JUMPI DUP1 PUSH4 0x8281EC6A EQ PUSH2 0x1AE JUMPI DUP1 PUSH4 0x8DA5CB5B EQ PUSH2 0x1CE JUMPI DUP1 PUSH4 0xB67138AA EQ PUSH2 0x1E3 JUMPI DUP1 PUSH4 0xC4C96DAE EQ PUSH2 0x203 JUMPI PUSH2 0xA7 JUMP JUMPDEST DUP1 PUSH4 0xBC08CDC EQ PUSH2 0xAC JUMPI DUP1 PUSH4 0x24A3D622 EQ PUSH2 0xE2 JUMPI DUP1 PUSH4 0x291AFDF3 EQ PUSH2 0x104 JUMPI DUP1 PUSH4 0x54CCEAF7 EQ PUSH2 0x126 JUMPI DUP1 PUSH4 0x56F428C4 EQ PUSH2 0x146 JUMPI DUP1 PUSH4 0x6966692C EQ PUSH2 0x166 JUMPI JUMPDEST PUSH1 0x0 DUP1 REVERT JUMPDEST CALLVALUE DUP1 ISZERO PUSH2 0xB8 JUMPI PUSH1 0x0 DUP1 REVERT JUMPDEST POP PUSH2 0xCC PUSH2 0xC7 CALLDATASIZE PUSH1 0x4 PUSH2 0x5772 JUMP JUMPDEST PUSH2 0x218 JUMP JUMPDEST PUSH1 0x40 MLOAD PUSH2 0xD9 SWAP2 SWAP1 PUSH2 0x5B56 JUMP JUMPDEST PUSH1 0x40 MLOAD DUP1 SWAP2 SUB SWAP1 RETURN JUMPDEST CALLVALUE DUP1 ISZERO PUSH2 0xEE JUMPI PUSH1 0x0 DUP1 REVERT JUMPDEST POP PUSH2 0xF7 PUSH2 0x39C JUMP JUMPDEST PUSH1 0x40 MLOAD PUSH2 0xD9 SWAP2 SWAP1 PUSH2 0x5B05 JUMP JUMPDEST CALLVALUE DUP1 ISZERO PUSH2 0x110 JUMPI PUSH1 0x0 DUP1 REVERT JUMPDEST POP PUSH2 0x124 PUSH2 0x11F CALLDATASIZE PUSH1 0x4 PUSH2 0x56E5 JUMP JUMPDEST PUSH2 0x3AB JUMP JUMPDEST STOP JUMPDEST CALLVALUE DUP1 ISZERO PUSH2 0x132 JUMPI PUSH1 0x0 DUP1 REVERT JUMPDEST POP PUSH2 0x124 PUSH2 0x141 CALLDATASIZE PUSH1 0x4 PUSH2 0x557A JUMP JUMPDEST PUSH2 0x494 JUMP JUMPDEST CALLVALUE DUP1 ISZERO PUSH2 0x152 JUMPI PUSH1 0x0 DUP1 REVERT JUMPDEST POP PUSH2 0x124 PUSH2 0x161 CALLDATASIZE PUSH1 0x4 PUSH2 0x557A JUMP JUMPDEST PUSH2 0x514 JUMP JUMPDEST PUSH2 0xCC PUSH2 0x174 CALLDATASIZE PUSH1 0x4 PUSH2 0x5722 JUMP JUMPDEST PUSH2 0x588 JUMP JUMPDEST CALLVALUE DUP1 ISZERO PUSH2 0x185 JUMPI PUSH1 0x0 DUP1 REVERT JUMPDEST POP PUSH2 0x124 PUSH2 0x194 CALLDATASIZE PUSH1 0x4 PUSH2 0x55AB JUMP JUMPDEST PUSH2 0x671 JUMP JUMPDEST CALLVALUE DUP1 ISZERO PUSH2 0x1A5 JUMPI PUSH1 0x0 DUP1 REVERT JUMPDEST POP PUSH2 0xF7 PUSH2 0x7C7 JUMP JUMPDEST CALLVALUE DUP1 ISZERO PUSH2 0x1BA JUMPI PUSH1 0x0 DUP1 REVERT JUMPDEST POP PUSH2 0x124 PUSH2 0x1C9 CALLDATASIZE PUSH1 0x4 PUSH2 0x5542 JUMP JUMPDEST PUSH2 0x7D6 JUMP JUMPDEST CALLVALUE DUP1 ISZERO PUSH2 0x1DA JUMPI PUSH1 0x0 DUP1 REVERT JUMPDEST POP PUSH2 0xF7 PUSH2 0x7FE JUMP JUMPDEST CALLVALUE DUP1 ISZERO PUSH2 0x1EF JUMPI PUSH1 0x0 DUP1 REVERT JUMPDEST POP PUSH2 0x124 PUSH2 0x1FE CALLDATASIZE PUSH1 0x4 PUSH2 0x57D5 JUMP JUMPDEST PUSH2 0x814 JUMP JUMPDEST CALLVALUE DUP1 ISZERO PUSH2 0x20F JUMPI PUSH1 0x0 DUP1 REVERT JUMPDEST POP PUSH2 0xF7 PUSH2 0x8B3 JUMP JUMPDEST PUSH2 0x220 PUSH2 0x4ECA JUMP JUMPDEST PUSH1 0x0 PUSH2 0x22B CALLER PUSH2 0x8CB JUMP JUMPDEST SWAP1 POP PUSH2 0x238 DUP2 PUSH1 0x1 PUSH2 0x8F6 JUMP JUMPDEST PUSH2 0x241 JUMPI PUSH1 0x0 DUP1 REVERT JUMPDEST PUSH1 0x1 PUSH1 0x1 PUSH1 0xA0 SHL SUB DUP8 AND CALLER EQ ISZERO PUSH2 0x257 JUMPI PUSH1 0x0 DUP1 REVERT JUMPDEST PUSH2 0x260 DUP2 PUSH2 0x90D JUMP JUMPDEST PUSH2 0x269 JUMPI PUSH1 0x0 DUP1 REVERT JUMPDEST PUSH1 0x0 PUSH2 0x274 DUP3 PUSH2 0x93C JUMP JUMPDEST SWAP1 POP PUSH1 0x0 DUP1 PUSH1 0x0 PUSH2 0x286 DUP6 DUP13 DUP7 PUSH2 0x99C JUMP JUMPDEST SWAP3 POP SWAP3 POP SWAP3 POP PUSH1 0x0 DUP1 DUP5 PUSH1 0x0 EQ ISZERO DUP1 ISZERO PUSH2 0x2A0 JUMPI POP DUP12 DUP6 EQ ISZERO JUMPDEST DUP1 ISZERO PUSH2 0x2B2 JUMPI POP PUSH2 0x2B2 DUP8 PUSH1 0x2 PUSH2 0x8F6 JUMP JUMPDEST ISZERO PUSH2 0x2DC JUMPI PUSH2 0x2D6 DUP8 DUP15 DUP8 PUSH2 0x2C6 DUP9 PUSH2 0xA30 JUMP JUMPDEST PUSH2 0x2CF DUP9 PUSH2 0xA30 JUMP JUMPDEST DUP12 DUP16 PUSH2 0xA3E JUMP JUMPDEST SWAP1 SWAP3 POP SWAP1 POP JUMPDEST PUSH2 0x2EC DUP8 DUP15 DUP15 DUP15 DUP15 DUP8 DUP8 DUP14 PUSH2 0xB3D JUMP JUMPDEST SWAP1 SWAP3 POP SWAP1 POP PUSH1 0x0 DUP3 SLT ISZERO PUSH2 0x31B JUMPI PUSH1 0x40 MLOAD PUSH3 0x461BCD PUSH1 0xE5 SHL DUP2 MSTORE PUSH1 0x4 ADD PUSH2 0x312 SWAP1 PUSH2 0x5C43 JUMP JUMPDEST PUSH1 0x40 MLOAD DUP1 SWAP2 SUB SWAP1 REVERT JUMPDEST PUSH1 0x0 DUP2 SLT ISZERO PUSH2 0x33C JUMPI PUSH1 0x40 MLOAD PUSH3 0x461BCD PUSH1 0xE5 SHL DUP2 MSTORE PUSH1 0x4 ADD PUSH2 0x312 SWAP1 PUSH2 0x5C43 JUMP JUMPDEST PUSH2 0x369 CALLER DUP15 DUP10 PUSH2 0x140 ADD MLOAD PUSH1 0x0 PUSH1 0x2 DUP2 LT PUSH2 0x353 JUMPI INVALID JUMPDEST PUSH1 0x20 MUL ADD MLOAD DUP6 DUP11 PUSH1 0x0 JUMPDEST PUSH1 0x20 MUL ADD MLOAD PUSH1 0x0 PUSH2 0xB9B JUMP JUMPDEST DUP9 MSTORE PUSH2 0x140 DUP8 ADD MLOAD PUSH1 0x20 ADD MLOAD PUSH2 0x386 SWAP1 CALLER SWAP1 DUP16 SWAP1 DUP5 DUP11 PUSH1 0x1 PUSH2 0x35D JUMP JUMPDEST PUSH1 0x20 DUP10 ADD MSTORE POP SWAP6 SWAP12 SWAP11 POP POP POP POP POP POP POP POP POP POP POP JUMP JUMPDEST PUSH1 0x2 SLOAD PUSH1 0x1 PUSH1 0x1 PUSH1 0xA0 SHL SUB AND DUP2 JUMP JUMPDEST PUSH1 0x0 SLOAD PUSH1 0x1 PUSH1 0x20 SHL SWAP1 DIV PUSH1 0x1 PUSH1 0x1 PUSH1 0xA0 SHL SUB AND CALLER EQ PUSH2 0x3DC JUMPI PUSH1 0x40 MLOAD PUSH3 0x461BCD PUSH1 0xE5 SHL DUP2 MSTORE PUSH1 0x4 ADD PUSH2 0x312 SWAP1 PUSH2 0x5CC4 JUMP JUMPDEST PUSH1 0x0 PUSH2 0x3E7 DUP5 PUSH2 0x8CB JUMP JUMPDEST SWAP1 POP PUSH1 0x0 PUSH2 0x3F8 DUP5 PUSH2 0xFFFF AND PUSH2 0xC1A JUMP JUMPDEST SWAP1 POP DUP1 PUSH1 0x20 ADD MLOAD ISZERO PUSH2 0x409 JUMPI PUSH1 0x0 DUP1 REVERT JUMPDEST PUSH2 0x140 DUP3 ADD MLOAD MLOAD PUSH2 0xFFFF DUP6 DUP2 AND SWAP2 AND EQ DUP1 PUSH2 0x433 JUMPI POP PUSH2 0x140 DUP3 ADD MLOAD PUSH1 0x20 ADD MLOAD PUSH2 0xFFFF DUP6 DUP2 AND SWAP2 AND EQ JUMPDEST PUSH2 0x43C JUMPI PUSH1 0x0 DUP1 REVERT JUMPDEST PUSH2 0x447 DUP6 DUP6 DUP6 PUSH2 0xC2D JUMP JUMPDEST DUP4 PUSH2 0xFFFF AND DUP6 PUSH1 0x1 PUSH1 0x1 PUSH1 0xA0 SHL SUB AND PUSH32 0x8F868F60E49B80B48EE5DE8B7BC703CFC4B5C826A05D3EA1B00CF4159C155A90 DUP6 PUSH1 0x40 MLOAD PUSH2 0x485 SWAP2 SWAP1 PUSH2 0x5E48 JUMP JUMPDEST PUSH1 0x40 MLOAD DUP1 SWAP2 SUB SWAP1 LOG3 POP POP POP POP POP JUMP JUMPDEST PUSH1 0x0 SLOAD PUSH1 0x1 PUSH1 0x20 SHL SWAP1 DIV PUSH1 0x1 PUSH1 0x1 PUSH1 0xA0 SHL SUB AND CALLER EQ PUSH2 0x4C5 JUMPI PUSH1 0x40 MLOAD PUSH3 0x461BCD PUSH1 0xE5 SHL DUP2 MSTORE PUSH1 0x4 ADD PUSH2 0x312 SWAP1 PUSH2 0x5CC4 JUMP JUMPDEST PUSH2 0x4CF DUP3 DUP3 PUSH2 0xC81 JUMP JUMPDEST DUP2 PUSH1 0x1 PUSH1 0x1 PUSH1 0xA0 SHL SUB AND PUSH32 0x9066B2F4AD4552447BD5DDEAE159FF6B5A28A4EEC9421DA5A9D502DEB99974E1 DUP3 PUSH1 0x40 MLOAD PUSH2 0x508 SWAP2 SWAP1 PUSH2 0x5BAC JUMP JUMPDEST PUSH1 0x40 MLOAD DUP1 SWAP2 SUB SWAP1 LOG2 POP POP JUMP JUMPDEST PUSH1 0x0 SLOAD PUSH1 0x1 PUSH1 0x20 SHL SWAP1 DIV PUSH1 0x1 PUSH1 0x1 PUSH1 0xA0 SHL SUB AND CALLER EQ PUSH2 0x545 JUMPI PUSH1 0x40 MLOAD PUSH3 0x461BCD PUSH1 0xE5 SHL DUP2 MSTORE PUSH1 0x4 ADD PUSH2 0x312 SWAP1 PUSH2 0x5CC4 JUMP JUMPDEST PUSH2 0x54F DUP3 DUP3 PUSH2 0xCE2 JUMP JUMPDEST DUP2 PUSH1 0x1 PUSH1 0x1 PUSH1 0xA0 SHL SUB AND PUSH32 0x7C51C6AA77346C54CB051D9E792F9B7BDE5C28A9B57E6FB2D2DD727B38438CA9 DUP3 PUSH1 0x40 MLOAD PUSH2 0x508 SWAP2 SWAP1 PUSH2 0x5BAC JUMP JUMPDEST PUSH2 0x590 PUSH2 0x4ECA JUMP JUMPDEST PUSH1 0x1 PUSH1 0x1 PUSH1 0xA0 SHL SUB DUP6 AND CALLER EQ ISZERO PUSH2 0x5A6 JUMPI PUSH1 0x0 DUP1 REVERT JUMPDEST PUSH1 0x0 PUSH2 0x5B1 CALLER PUSH2 0x8CB JUMP JUMPDEST SWAP1 POP PUSH2 0x5BE DUP2 PUSH1 0x1 PUSH2 0x8F6 JUMP JUMPDEST PUSH2 0x5C7 JUMPI PUSH1 0x0 DUP1 REVERT JUMPDEST PUSH2 0x5D0 DUP2 PUSH2 0x90D JUMP JUMPDEST PUSH2 0x5D9 JUMPI PUSH1 0x0 DUP1 REVERT JUMPDEST PUSH1 0x0 PUSH2 0x5E4 DUP3 PUSH2 0x93C JUMP JUMPDEST SWAP1 POP PUSH1 0x0 DUP1 PUSH2 0x611 DUP5 DUP11 DUP11 PUSH2 0x5FF DUP12 DUP7 JUMPDEST PUSH1 0x20 MUL ADD CALLDATALOAD PUSH2 0xD41 JUMP JUMPDEST PUSH2 0x60A DUP13 PUSH1 0x1 PUSH2 0x5F5 JUMP JUMPDEST DUP9 DUP13 PUSH2 0xA3E JUMP JUMPDEST SWAP2 POP SWAP2 POP PUSH2 0x642 CALLER DUP11 DUP7 PUSH2 0x140 ADD MLOAD PUSH1 0x0 PUSH1 0x2 DUP2 LT PUSH2 0x62C JUMPI INVALID JUMPDEST PUSH1 0x20 MUL ADD MLOAD DUP6 DUP8 PUSH1 0x0 JUMPDEST PUSH1 0x20 MUL ADD MLOAD PUSH1 0x1 PUSH2 0xB9B JUMP JUMPDEST DUP6 MSTORE PUSH2 0x140 DUP5 ADD MLOAD PUSH1 0x20 ADD MLOAD PUSH2 0x65F SWAP1 CALLER SWAP1 DUP12 SWAP1 DUP5 DUP8 PUSH1 0x1 PUSH2 0x636 JUMP JUMPDEST PUSH1 0x20 DUP7 ADD MSTORE POP SWAP3 SWAP8 SWAP7 POP POP POP POP POP POP POP JUMP JUMPDEST PUSH1 0x0 SLOAD PUSH1 0x1 PUSH1 0x20 SHL SWAP1 DIV PUSH1 0x1 PUSH1 0x1 PUSH1 0xA0 SHL SUB AND CALLER EQ PUSH2 0x6A2 JUMPI PUSH1 0x40 MLOAD PUSH3 0x461BCD PUSH1 0xE5 SHL DUP2 MSTORE PUSH1 0x4 ADD PUSH2 0x312 SWAP1 PUSH2 0x5CC4 JUMP JUMPDEST PUSH2 0x6AF DUP3 PUSH1 0x40 ADD MLOAD PUSH2 0xD5B JUMP JUMPDEST PUSH4 0xFFFFFFFF AND PUSH1 0x40 DUP4 ADD MSTORE PUSH2 0x160 DUP3 ADD MLOAD PUSH2 0x6D1 SWAP1 PUSH1 0x0 JUMPDEST PUSH1 0x20 MUL ADD MLOAD PUSH2 0xD5B JUMP JUMPDEST PUSH4 0xFFFFFFFF AND DUP3 PUSH2 0x160 ADD MLOAD PUSH1 0x0 PUSH1 0x2 DUP2 LT PUSH2 0x6E9 JUMPI INVALID JUMPDEST PUSH1 0x20 MUL ADD MSTORE PUSH2 0x160 DUP3 ADD MLOAD PUSH2 0x6FF SWAP1 PUSH1 0x1 PUSH2 0x6C7 JUMP JUMPDEST PUSH4 0xFFFFFFFF AND DUP3 PUSH2 0x160 ADD MLOAD PUSH1 0x1 PUSH1 0x2 DUP2 LT PUSH2 0x717 JUMPI INVALID JUMPDEST PUSH1 0x20 MUL ADD DUP2 DUP2 MSTORE POP POP PUSH1 0x0 DUP3 PUSH1 0x40 MLOAD PUSH1 0x20 ADD PUSH2 0x733 SWAP2 SWAP1 PUSH2 0x5CF9 JUMP JUMPDEST PUSH1 0x40 MLOAD PUSH1 0x20 DUP2 DUP4 SUB SUB DUP2 MSTORE SWAP1 PUSH1 0x40 MSTORE DUP1 PUSH1 0x20 ADD SWAP1 MLOAD DUP2 ADD SWAP1 PUSH2 0x755 SWAP2 SWAP1 PUSH2 0x592F JUMP JUMPDEST SWAP1 POP PUSH2 0x761 DUP5 DUP3 PUSH2 0xD86 JUMP JUMPDEST PUSH2 0x770 DUP5 DUP3 PUSH1 0x20 ADD MLOAD DUP5 PUSH2 0xC2D JUMP JUMPDEST DUP1 MLOAD PUSH1 0x40 MLOAD PUSH1 0x1 SWAP2 DUP3 AND SWAP1 SWAP2 EQ SWAP1 PUSH1 0x1 PUSH1 0x1 PUSH1 0xA0 SHL SUB DUP7 AND SWAP1 PUSH32 0xB441D7CA09ABC712B4504256717707CE40E8D43895266B46ABF9CD58619C07DC SWAP1 PUSH2 0x7B8 SWAP1 DUP5 SWAP1 DUP8 SWAP1 PUSH2 0x5BB7 JUMP JUMPDEST PUSH1 0x40 MLOAD DUP1 SWAP2 SUB SWAP1 LOG2 POP POP POP POP POP JUMP JUMPDEST PUSH1 0x1 SLOAD PUSH1 0x1 PUSH1 0x1 PUSH1 0xA0 SHL SUB AND DUP2 JUMP JUMPDEST CALLER ADDRESS EQ PUSH2 0x7E2 JUMPI PUSH1 0x0 DUP1 REVERT JUMPDEST PUSH1 0x0 PUSH2 0x7ED DUP4 PUSH2 0x8CB JUMP JUMPDEST SWAP1 POP PUSH2 0x7F9 DUP2 DUP4 PUSH2 0x1212 JUMP JUMPDEST POP POP POP JUMP JUMPDEST PUSH1 0x0 SLOAD PUSH1 0x1 PUSH1 0x20 SHL SWAP1 DIV PUSH1 0x1 PUSH1 0x1 PUSH1 0xA0 SHL SUB AND DUP2 JUMP JUMPDEST PUSH1 0x0 SLOAD PUSH1 0x1 PUSH1 0x20 SHL SWAP1 DIV PUSH1 0x1 PUSH1 0x1 PUSH1 0xA0 SHL SUB AND CALLER EQ PUSH2 0x845 JUMPI PUSH1 0x40 MLOAD PUSH3 0x461BCD PUSH1 0xE5 SHL DUP2 MSTORE PUSH1 0x4 ADD PUSH2 0x312 SWAP1 PUSH2 0x5CC4 JUMP JUMPDEST PUSH1 0x0 PUSH2 0x850 DUP4 PUSH2 0x8CB JUMP JUMPDEST SWAP1 POP PUSH2 0x861 DUP4 DUP3 PUSH1 0x40 ADD MLOAD DUP5 PUSH2 0xC2D JUMP JUMPDEST PUSH1 0x1 PUSH1 0x1 PUSH1 0xA0 SHL SUB DUP4 AND PUSH32 0xB441D7CA09ABC712B4504256717707CE40E8D43895266B46ABF9CD58619C07DC PUSH2 0x897 DUP4 PUSH1 0x1 PUSH2 0x8F6 JUMP JUMPDEST DUP5 PUSH1 0x40 MLOAD PUSH2 0x8A6 SWAP3 SWAP2 SWAP1 PUSH2 0x5BB7 JUMP JUMPDEST PUSH1 0x40 MLOAD DUP1 SWAP2 SUB SWAP1 LOG2 POP POP POP JUMP JUMPDEST PUSH20 0x0 SWAP1 JUMP JUMPDEST PUSH2 0x8D3 PUSH2 0x4EE8 JUMP JUMPDEST PUSH2 0x8DC DUP3 PUSH2 0x144D JUMP JUMPDEST SWAP1 POP PUSH2 0x8EB DUP2 PUSH1 0x40 ADD MLOAD PUSH2 0x163A JUMP JUMPDEST PUSH2 0x160 DUP3 ADD MSTORE SWAP2 SWAP1 POP JUMP JUMPDEST PUSH1 0x20 DUP3 ADD MLOAD PUSH2 0xFFFF DUP1 DUP4 AND SWAP2 DUP4 AND AND EQ JUMPDEST SWAP3 SWAP2 POP POP JUMP JUMPDEST PUSH2 0x140 DUP2 ADD MLOAD MLOAD PUSH1 0x0 SWAP1 PUSH2 0xFFFF AND ISZERO ISZERO DUP1 PUSH2 0x934 JUMPI POP PUSH2 0x140 DUP3 ADD MLOAD PUSH1 0x20 ADD MLOAD PUSH2 0xFFFF AND ISZERO ISZERO JUMPDEST SWAP1 POP JUMPDEST SWAP2 SWAP1 POP JUMP JUMPDEST PUSH2 0x944 PUSH2 0x4F81 JUMP JUMPDEST PUSH2 0x140 DUP3 ADD MLOAD MLOAD PUSH2 0xFFFF AND ISZERO PUSH2 0x96E JUMPI PUSH2 0x140 DUP3 ADD MLOAD PUSH2 0x96B SWAP1 PUSH1 0x0 JUMPDEST PUSH1 0x20 MUL ADD MLOAD PUSH2 0x163A JUMP JUMPDEST DUP2 MSTORE JUMPDEST PUSH2 0x140 DUP3 ADD MLOAD PUSH1 0x20 ADD MLOAD PUSH2 0xFFFF AND ISZERO PUSH2 0x937 JUMPI PUSH2 0x140 DUP3 ADD MLOAD PUSH2 0x992 SWAP1 PUSH1 0x1 PUSH2 0x961 JUMP JUMPDEST PUSH1 0x20 DUP3 ADD MSTORE SWAP2 SWAP1 POP JUMP JUMPDEST PUSH1 0x0 DUP1 PUSH1 0x0 DUP1 PUSH2 0x9AA PUSH2 0x164C JUMP JUMPDEST PUSH1 0x1 PUSH1 0x1 PUSH1 0xA0 SHL SUB DUP8 DUP2 AND PUSH1 0x0 SWAP1 DUP2 MSTORE PUSH1 0x20 SWAP3 DUP4 MSTORE PUSH1 0x40 DUP1 DUP3 KECCAK256 DUP12 MLOAD SWAP1 SWAP4 AND DUP3 MSTORE SWAP2 SWAP1 SWAP3 MSTORE SWAP1 KECCAK256 DUP1 SLOAD DUP7 MLOAD PUSH5 0xFFFFFFFFFF DUP3 AND SWAP7 POP SWAP2 SWAP3 POP PUSH2 0x9FE SWAP2 SWAP1 DUP7 SWAP1 PUSH1 0x1 PUSH1 0x28 SHL SWAP1 DIV PUSH1 0x1 PUSH1 0x1 PUSH1 0x50 SHL SUB AND PUSH2 0x1659 JUMP JUMPDEST SWAP3 POP PUSH2 0xA24 DUP6 PUSH1 0x1 PUSH1 0x20 MUL ADD MLOAD DUP3 SLOAD DUP7 SWAP1 PUSH1 0x1 PUSH1 0x78 SHL SWAP1 DIV PUSH1 0x1 PUSH1 0x1 PUSH1 0x50 SHL SUB AND PUSH2 0x1659 JUMP JUMPDEST SWAP2 POP POP SWAP4 POP SWAP4 POP SWAP4 SWAP1 POP JUMP JUMPDEST PUSH1 0x0 PUSH2 0x934 PUSH1 0x0 NOT DUP4 PUSH2 0x1697 JUMP JUMPDEST PUSH1 0x0 DUP1 PUSH2 0xA52 DUP10 DUP10 DUP10 DUP10 DUP10 DUP10 PUSH1 0x1 DUP1 PUSH2 0x16E5 JUMP JUMPDEST POP POP DUP6 ISZERO PUSH2 0xA8C JUMPI PUSH2 0x140 DUP10 ADD MLOAD MLOAD DUP5 MLOAD PUSH2 0xA88 SWAP1 DUP12 SWAP1 DUP4 DUP12 DUP12 DUP10 PUSH1 0x0 JUMPDEST PUSH1 0x20 MUL ADD PUSH1 0x20 DUP2 ADD SWAP1 PUSH2 0xA83 SWAP2 SWAP1 PUSH2 0x5A56 JUMP JUMPDEST PUSH2 0x1917 JUMP JUMPDEST SWAP3 POP POP JUMPDEST DUP5 ISZERO PUSH2 0xAB7 JUMPI PUSH2 0x140 DUP10 ADD MLOAD PUSH1 0x20 SWAP1 DUP2 ADD MLOAD SWAP1 DUP6 ADD MLOAD PUSH2 0xAB3 SWAP1 DUP12 SWAP1 DUP4 DUP12 DUP11 DUP10 PUSH1 0x1 PUSH2 0xA70 JUMP JUMPDEST SWAP2 POP POP JUMPDEST PUSH1 0x0 DUP1 PUSH2 0xAC8 DUP11 DUP13 PUSH1 0x0 ADD MLOAD PUSH2 0x19C5 JUMP JUMPDEST SWAP2 POP SWAP2 POP PUSH2 0xAFB DUP11 DUP13 PUSH1 0x0 ADD MLOAD DUP14 PUSH2 0x140 ADD MLOAD PUSH1 0x0 PUSH1 0x2 DUP2 LT PUSH2 0xAE7 JUMPI INVALID JUMPDEST PUSH1 0x20 MUL ADD MLOAD DUP13 PUSH2 0xAF6 DUP8 PUSH2 0xA30 JUMP JUMPDEST PUSH2 0x1A42 JUMP JUMPDEST DUP11 MLOAD PUSH2 0x140 DUP13 ADD MLOAD PUSH1 0x20 ADD MLOAD PUSH2 0xB17 SWAP2 DUP13 SWAP2 DUP13 PUSH2 0xAF6 DUP7 PUSH2 0xA30 JUMP JUMPDEST PUSH2 0xB21 DUP5 DUP4 PUSH2 0x1AD8 JUMP JUMPDEST SWAP4 POP PUSH2 0xB2D DUP4 DUP3 PUSH2 0x1AD8 JUMP JUMPDEST SWAP3 POP POP POP SWAP8 POP SWAP8 SWAP6 POP POP POP POP POP POP JUMP JUMPDEST PUSH1 0x0 DUP1 DUP1 DUP1 PUSH2 0xB6F DUP13 DUP13 DUP13 PUSH2 0xB5A PUSH2 0xB55 DUP15 DUP8 PUSH2 0x5F5 JUMP JUMPDEST PUSH2 0xA30 JUMP JUMPDEST PUSH2 0xB68 PUSH2 0xB55 DUP16 PUSH1 0x1 PUSH2 0x5F5 JUMP JUMPDEST DUP11 DUP15 PUSH2 0xA3E JUMP JUMPDEST SWAP1 SWAP3 POP SWAP1 POP PUSH2 0xB7E DUP8 DUP4 PUSH2 0x1AD8 JUMP JUMPDEST PUSH2 0xB88 DUP8 DUP4 PUSH2 0x1AD8 JUMP JUMPDEST SWAP4 POP SWAP4 POP POP POP SWAP9 POP SWAP9 SWAP7 POP POP POP POP POP POP POP JUMP JUMPDEST PUSH1 0x0 DUP1 DUP5 SGT DUP1 ISZERO PUSH2 0xBA9 JUMPI POP DUP2 JUMPDEST ISZERO PUSH2 0xBCE JUMPI PUSH2 0xBBA DUP8 DUP8 DUP8 DUP8 PUSH2 0x1AEE JUMP JUMPDEST PUSH2 0xBC8 DUP7 DUP7 DUP7 DUP7 PUSH1 0x0 PUSH2 0x1B94 JUMP JUMPDEST POP PUSH2 0xC10 JUMP JUMPDEST PUSH1 0x0 DUP5 SGT ISZERO PUSH2 0xBF7 JUMPI PUSH2 0xBF0 PUSH2 0xB55 PUSH2 0xBEB DUP10 DUP9 DUP9 DUP9 PUSH1 0x0 PUSH2 0x1B94 JUMP JUMPDEST PUSH2 0xD41 JUMP JUMPDEST SWAP1 POP PUSH2 0xC10 JUMP JUMPDEST PUSH2 0xC0D DUP8 DUP7 PUSH2 0xC05 DUP8 PUSH2 0xA30 JUMP JUMPDEST DUP7 PUSH1 0x0 PUSH2 0x1BC7 JUMP JUMPDEST SWAP1 POP JUMPDEST SWAP7 SWAP6 POP POP POP POP POP POP JUMP JUMPDEST PUSH2 0xC22 PUSH2 0x4FAE JUMP JUMPDEST PUSH2 0x934 DUP3 PUSH1 0x1 PUSH2 0x1C3D JUMP JUMPDEST PUSH1 0x0 PUSH2 0xC37 PUSH2 0x1CD7 JUMP JUMPDEST PUSH1 0x1 PUSH1 0x1 PUSH1 0xA0 SHL SUB SWAP1 SWAP5 AND PUSH1 0x0 SWAP1 DUP2 MSTORE PUSH1 0x20 SWAP5 DUP6 MSTORE PUSH1 0x40 DUP1 DUP3 KECCAK256 PUSH2 0xFFFF SWAP1 SWAP6 AND DUP3 MSTORE SWAP4 SWAP1 SWAP5 MSTORE POP SWAP2 KECCAK256 DUP1 SLOAD PUSH1 0x1 PUSH1 0x1 PUSH1 0x50 SHL SUB SWAP1 SWAP3 AND PUSH1 0x1 PUSH1 0x1 PUSH1 0x50 SHL SUB NOT SWAP1 SWAP3 AND SWAP2 SWAP1 SWAP2 OR SWAP1 SSTORE JUMP JUMPDEST PUSH1 0x0 PUSH2 0xC8B PUSH2 0x1CE4 JUMP JUMPDEST PUSH1 0x1 PUSH1 0x1 PUSH1 0xA0 SHL SUB DUP5 AND PUSH1 0x0 SWAP1 DUP2 MSTORE PUSH1 0x20 DUP3 SWAP1 MSTORE PUSH1 0x40 SWAP1 KECCAK256 DUP1 SLOAD SWAP2 SWAP3 POP SWAP1 PUSH2 0xFFFF AND DUP4 ISZERO PUSH2 0xCCB JUMPI DUP2 SLOAD PUSH2 0xFFFF NOT AND PUSH2 0x100 DUP3 OR PUSH2 0xFFFF AND OR DUP3 SSTORE PUSH2 0xCDB JUMP JUMPDEST DUP2 SLOAD PUSH2 0xFFFF NOT AND PUSH2 0xFEFF DUP3 AND OR DUP3 SSTORE JUMPDEST POP POP POP POP POP JUMP JUMPDEST PUSH1 0x0 PUSH2 0xCEC PUSH2 0x1CE4 JUMP JUMPDEST PUSH1 0x1 PUSH1 0x1 PUSH1 0xA0 SHL SUB DUP5 AND PUSH1 0x0 SWAP1 DUP2 MSTORE PUSH1 0x20 DUP3 SWAP1 MSTORE PUSH1 0x40 SWAP1 KECCAK256 DUP1 SLOAD SWAP2 SWAP3 POP SWAP1 PUSH2 0xFFFF AND DUP4 ISZERO PUSH2 0xD2B JUMPI DUP2 SLOAD PUSH2 0xFFFF NOT AND PUSH1 0x1 DUP3 OR PUSH2 0xFFFF AND OR DUP3 SSTORE PUSH2 0xCDB JUMP JUMPDEST DUP2 SLOAD PUSH2 0xFFFF NOT AND PUSH2 0xFFFE SWAP2 SWAP1 SWAP2 AND OR SWAP1 SSTORE POP POP POP JUMP JUMPDEST PUSH1 0x0 PUSH1 0x1 PUSH1 0x1 PUSH1 0xFF SHL SUB DUP3 GT ISZERO PUSH2 0xD57 JUMPI PUSH1 0x0 DUP1 REVERT JUMPDEST POP SWAP1 JUMP JUMPDEST PUSH1 0x0 DUP1 PUSH3 0xFFFFFF DUP4 GT ISZERO PUSH2 0xD78 JUMPI PUSH1 0x17 PUSH2 0xD74 DUP5 PUSH2 0x1CF1 JUMP JUMPDEST SUB SWAP1 POP JUMPDEST DUP3 DUP2 SHR PUSH1 0x8 SHL OR SWAP1 POP SWAP2 SWAP1 POP JUMP JUMPDEST PUSH1 0x0 PUSH2 0xD90 PUSH2 0x1CE4 JUMP JUMPDEST SWAP1 POP PUSH1 0x0 PUSH2 0xD9D DUP5 PUSH2 0x144D JUMP JUMPDEST SWAP1 POP DUP3 PUSH1 0x20 ADD MLOAD PUSH2 0xFFFF AND PUSH1 0x0 EQ ISZERO PUSH2 0xDB5 JUMPI PUSH1 0x0 DUP1 REVERT JUMPDEST PUSH1 0x40 DUP2 ADD MLOAD PUSH2 0xFFFF AND ISZERO DUP1 PUSH2 0xDD9 JUMPI POP DUP3 PUSH1 0x20 ADD MLOAD PUSH2 0xFFFF AND DUP2 PUSH1 0x40 ADD MLOAD PUSH2 0xFFFF AND EQ JUMPDEST PUSH2 0xDE2 JUMPI PUSH1 0x0 DUP1 REVERT JUMPDEST DUP3 PUSH1 0xA0 ADD MLOAD PUSH1 0xFF AND PUSH1 0x64 SGT ISZERO PUSH2 0xDF7 JUMPI PUSH1 0x0 DUP1 REVERT JUMPDEST PUSH1 0x0 PUSH1 0x64 DUP1 DUP6 PUSH1 0xA0 ADD MLOAD PUSH1 0xFF AND SUB MUL SWAP1 POP DUP4 PUSH1 0x60 ADD MLOAD PUSH2 0xFFFF AND DUP2 PUSH2 0xFFFF AND LT PUSH2 0xE20 JUMPI PUSH1 0x0 DUP1 REVERT JUMPDEST DUP4 PUSH2 0x100 ADD MLOAD PUSH2 0xFFFF AND DUP5 PUSH1 0x60 ADD MLOAD PUSH2 0xFFFF AND LT PUSH2 0xE3D JUMPI PUSH1 0x0 DUP1 REVERT JUMPDEST DUP4 PUSH2 0x140 ADD MLOAD PUSH2 0xFFFF AND DUP5 PUSH2 0x100 ADD MLOAD PUSH2 0xFFFF AND LT PUSH2 0xE5B JUMPI PUSH1 0x0 DUP1 REVERT JUMPDEST PUSH1 0x64 DUP5 PUSH1 0xC0 ADD MLOAD PUSH1 0xFF AND SGT ISZERO PUSH2 0xE70 JUMPI PUSH1 0x0 DUP1 REVERT JUMPDEST PUSH2 0x140 DUP3 ADD MLOAD MLOAD PUSH2 0xFFFF AND ISZERO DUP1 PUSH2 0xE9A JUMPI POP PUSH2 0x120 DUP5 ADD MLOAD MLOAD PUSH2 0x140 DUP4 ADD MLOAD MLOAD PUSH2 0xFFFF SWAP1 DUP2 AND SWAP2 AND EQ JUMPDEST PUSH2 0xEA3 JUMPI PUSH1 0x0 DUP1 REVERT JUMPDEST PUSH2 0x140 DUP3 ADD MLOAD PUSH1 0x20 ADD MLOAD PUSH2 0xFFFF AND ISZERO DUP1 PUSH2 0xEDC JUMPI POP PUSH2 0x120 DUP5 ADD MLOAD PUSH1 0x20 ADD MLOAD PUSH2 0x140 DUP4 ADD MLOAD PUSH2 0xFFFF SWAP1 SWAP2 AND SWAP1 PUSH1 0x1 PUSH1 0x20 MUL ADD MLOAD PUSH2 0xFFFF AND EQ JUMPDEST PUSH2 0xEE5 JUMPI PUSH1 0x0 DUP1 REVERT JUMPDEST PUSH2 0x120 DUP5 ADD MLOAD MLOAD PUSH1 0x20 DUP6 ADD MLOAD PUSH2 0xFFFF SWAP1 DUP2 AND SWAP2 AND EQ ISZERO PUSH2 0xF04 JUMPI PUSH1 0x0 DUP1 REVERT JUMPDEST PUSH2 0x120 DUP5 ADD MLOAD PUSH1 0x1 PUSH1 0x20 MUL ADD MLOAD PUSH2 0xFFFF AND DUP5 PUSH1 0x20 ADD MLOAD PUSH2 0xFFFF AND EQ ISZERO PUSH2 0xF29 JUMPI PUSH1 0x0 DUP1 REVERT JUMPDEST PUSH2 0x120 DUP5 ADD MLOAD MLOAD PUSH2 0xFFFF AND ISZERO DUP1 ISZERO SWAP1 PUSH2 0xF4E JUMPI POP PUSH2 0x120 DUP5 ADD MLOAD PUSH1 0x20 ADD MLOAD PUSH2 0xFFFF AND ISZERO ISZERO JUMPDEST ISZERO PUSH2 0xF73 JUMPI PUSH2 0x120 DUP5 ADD MLOAD PUSH1 0x20 DUP2 ADD MLOAD SWAP1 MLOAD PUSH2 0xFFFF SWAP1 DUP2 AND SWAP2 AND EQ ISZERO PUSH2 0xF73 JUMPI PUSH1 0x0 DUP1 REVERT JUMPDEST PUSH2 0x120 DUP5 ADD MLOAD MLOAD PUSH2 0xFFFF AND ISZERO ISZERO DUP1 PUSH2 0xF97 JUMPI POP PUSH2 0x120 DUP5 ADD MLOAD PUSH1 0x20 ADD MLOAD PUSH2 0xFFFF AND ISZERO ISZERO JUMPDEST ISZERO PUSH2 0xFB2 JUMPI PUSH1 0x64 DUP5 PUSH2 0x180 ADD MLOAD PUSH1 0xFF AND SLT ISZERO PUSH2 0xFB2 JUMPI PUSH1 0x0 DUP1 REVERT JUMPDEST PUSH1 0x0 PUSH2 0xFC5 DUP6 PUSH1 0x20 ADD MLOAD PUSH2 0xFFFF AND PUSH2 0xC1A JUMP JUMPDEST SWAP1 POP DUP1 PUSH1 0x20 ADD MLOAD ISZERO PUSH2 0xFD6 JUMPI PUSH1 0x0 DUP1 REVERT JUMPDEST PUSH2 0x120 DUP6 ADD MLOAD MLOAD PUSH2 0xFFFF AND ISZERO PUSH2 0x100F JUMPI PUSH2 0x120 DUP6 ADD MLOAD PUSH2 0x1001 SWAP1 PUSH1 0x0 JUMPDEST PUSH1 0x20 MUL ADD MLOAD PUSH2 0xFFFF AND PUSH2 0xC1A JUMP JUMPDEST PUSH1 0x20 ADD MLOAD ISZERO PUSH2 0x100F JUMPI PUSH1 0x0 DUP1 REVERT JUMPDEST PUSH2 0x120 DUP6 ADD MLOAD PUSH1 0x20 ADD MLOAD PUSH2 0xFFFF AND ISZERO PUSH2 0x1041 JUMPI PUSH2 0x120 DUP6 ADD MLOAD PUSH2 0x1033 SWAP1 PUSH1 0x1 PUSH2 0xFF3 JUMP JUMPDEST PUSH1 0x20 ADD MLOAD ISZERO PUSH2 0x1041 JUMPI PUSH1 0x0 DUP1 REVERT JUMPDEST DUP5 DUP5 PUSH1 0x0 DUP9 PUSH1 0x1 PUSH1 0x1 PUSH1 0xA0 SHL SUB AND PUSH1 0x1 PUSH1 0x1 PUSH1 0xA0 SHL SUB AND DUP2 MSTORE PUSH1 0x20 ADD SWAP1 DUP2 MSTORE PUSH1 0x20 ADD PUSH1 0x0 KECCAK256 PUSH1 0x0 DUP3 ADD MLOAD DUP2 PUSH1 0x0 ADD PUSH1 0x0 PUSH2 0x100 EXP DUP2 SLOAD DUP2 PUSH2 0xFFFF MUL NOT AND SWAP1 DUP4 PUSH2 0xFFFF AND MUL OR SWAP1 SSTORE POP PUSH1 0x20 DUP3 ADD MLOAD DUP2 PUSH1 0x0 ADD PUSH1 0x2 PUSH2 0x100 EXP DUP2 SLOAD DUP2 PUSH2 0xFFFF MUL NOT AND SWAP1 DUP4 PUSH2 0xFFFF AND MUL OR SWAP1 SSTORE POP PUSH1 0x40 DUP3 ADD MLOAD DUP2 PUSH1 0x0 ADD PUSH1 0x4 PUSH2 0x100 EXP DUP2 SLOAD DUP2 PUSH4 0xFFFFFFFF MUL NOT AND SWAP1 DUP4 PUSH4 0xFFFFFFFF AND MUL OR SWAP1 SSTORE POP PUSH1 0x60 DUP3 ADD MLOAD DUP2 PUSH1 0x0 ADD PUSH1 0x8 PUSH2 0x100 EXP DUP2 SLOAD DUP2 PUSH2 0xFFFF MUL NOT AND SWAP1 DUP4 PUSH2 0xFFFF AND MUL OR SWAP1 SSTORE POP PUSH1 0x80 DUP3 ADD MLOAD DUP2 PUSH1 0x0 ADD PUSH1 0xA PUSH2 0x100 EXP DUP2 SLOAD DUP2 PUSH1 0xFF MUL NOT AND SWAP1 DUP4 PUSH1 0xFF AND MUL OR SWAP1 SSTORE POP PUSH1 0xA0 DUP3 ADD MLOAD DUP2 PUSH1 0x0 ADD PUSH1 0xB PUSH2 0x100 EXP DUP2 SLOAD DUP2 PUSH1 0xFF MUL NOT AND SWAP1 DUP4 PUSH1 0xFF AND MUL OR SWAP1 SSTORE POP PUSH1 0xC0 DUP3 ADD MLOAD DUP2 PUSH1 0x0 ADD PUSH1 0xC PUSH2 0x100 EXP DUP2 SLOAD DUP2 PUSH1 0xFF MUL NOT AND SWAP1 DUP4 PUSH1 0xFF AND MUL OR SWAP1 SSTORE POP PUSH1 0xE0 DUP3 ADD MLOAD DUP2 PUSH1 0x0 ADD PUSH1 0xD PUSH2 0x100 EXP DUP2 SLOAD DUP2 PUSH1 0xFF MUL NOT AND SWAP1 DUP4 PUSH1 0xFF AND MUL OR SWAP1 SSTORE POP PUSH2 0x100 DUP3 ADD MLOAD DUP2 PUSH1 0x0 ADD PUSH1 0xE PUSH2 0x100 EXP DUP2 SLOAD DUP2 PUSH2 0xFFFF MUL NOT AND SWAP1 DUP4 PUSH2 0xFFFF AND MUL OR SWAP1 SSTORE POP PUSH2 0x120 DUP3 ADD MLOAD DUP2 PUSH1 0x1 ADD SWAP1 PUSH1 0x2 PUSH2 0x11B6 SWAP3 SWAP2 SWAP1 PUSH2 0x4FD5 JUMP JUMPDEST POP PUSH2 0x140 DUP3 ADD MLOAD PUSH1 0x2 DUP3 DUP2 ADD DUP1 SLOAD PUSH2 0xFFFF NOT AND PUSH2 0xFFFF SWAP1 SWAP4 AND SWAP3 SWAP1 SWAP3 OR SWAP1 SWAP2 SSTORE PUSH2 0x160 DUP4 ADD MLOAD PUSH2 0x11EB SWAP2 PUSH1 0x3 DUP5 ADD SWAP2 SWAP1 PUSH2 0x5067 JUMP JUMPDEST POP PUSH2 0x180 SWAP2 SWAP1 SWAP2 ADD MLOAD PUSH1 0x4 SWAP1 SWAP2 ADD DUP1 SLOAD PUSH1 0xFF NOT AND PUSH1 0xFF SWAP1 SWAP3 AND SWAP2 SWAP1 SWAP2 OR SWAP1 SSTORE POP POP POP POP POP POP JUMP JUMPDEST PUSH2 0x121B DUP3 PUSH2 0x90D JUMP JUMPDEST PUSH2 0x1224 JUMPI PUSH2 0x1449 JUMP JUMPDEST PUSH1 0x0 PUSH2 0x122E PUSH2 0x164C JUMP JUMPDEST PUSH1 0x1 PUSH1 0x1 PUSH1 0xA0 SHL SUB DUP1 DUP5 AND PUSH1 0x0 SWAP1 DUP2 MSTORE PUSH1 0x20 SWAP3 DUP4 MSTORE PUSH1 0x40 DUP1 DUP3 KECCAK256 DUP8 MLOAD SWAP1 SWAP4 AND DUP3 MSTORE SWAP2 SWAP1 SWAP3 MSTORE DUP2 KECCAK256 DUP1 SLOAD SWAP1 SWAP3 POP PUSH5 0xFFFFFFFFFF DUP2 AND SWAP2 PUSH1 0x1 PUSH1 0x1 PUSH1 0x50 SHL SUB PUSH1 0x1 PUSH1 0x28 SHL DUP4 DIV DUP2 AND DUP3 SUB SWAP3 PUSH1 0x1 PUSH1 0x78 SHL SWAP1 DIV AND SWAP1 SUB DUP3 PUSH2 0x12A0 JUMPI DUP2 ISZERO DUP1 ISZERO PUSH2 0x1292 JUMPI POP DUP1 ISZERO JUMPDEST PUSH2 0x129B JUMPI PUSH1 0x0 DUP1 REVERT JUMPDEST PUSH2 0x12AD JUMP JUMPDEST TIMESTAMP DUP4 GT ISZERO PUSH2 0x12AD JUMPI PUSH1 0x0 DUP1 REVERT JUMPDEST PUSH1 0x0 DUP1 PUSH2 0x12BE DUP8 DUP10 PUSH1 0x0 ADD MLOAD PUSH2 0x19C5 JUMP JUMPDEST PUSH2 0x140 DUP11 ADD MLOAD MLOAD SWAP2 SWAP4 POP SWAP2 POP PUSH2 0xFFFF AND ISZERO PUSH2 0x1368 JUMPI DUP8 MLOAD PUSH2 0x140 DUP10 ADD MLOAD MLOAD PUSH2 0x12EC SWAP2 DUP10 SWAP2 DUP9 PUSH2 0xAF6 DUP8 PUSH2 0xA30 JUMP JUMPDEST DUP8 MLOAD PUSH2 0x140 DUP10 ADD MLOAD MLOAD PUSH2 0x1304 SWAP2 SWAP1 DUP10 SWAP1 DUP9 DUP9 DUP8 PUSH2 0x1D89 JUMP JUMPDEST SWAP1 SWAP5 POP SWAP2 POP PUSH2 0x1322 PUSH2 0x131D PUSH2 0x1318 DUP7 PUSH2 0xA30 JUMP JUMPDEST PUSH2 0x1EC0 JUMP JUMPDEST PUSH2 0x1ECF JUMP JUMPDEST DUP7 SLOAD PUSH1 0x1 PUSH1 0x1 PUSH1 0x50 SHL SUB SWAP2 SWAP1 SWAP2 AND PUSH1 0x1 PUSH1 0x28 SHL MUL PUSH15 0xFFFFFFFFFFFFFFFFFFFF0000000000 NOT SWAP1 SWAP2 AND OR DUP7 SSTORE DUP8 MLOAD PUSH2 0x140 DUP10 ADD MLOAD MLOAD PUSH2 0x1368 SWAP2 DUP10 SWAP2 PUSH5 0xFFFFFFFFFF DUP7 PUSH2 0x1A42 JUMP JUMPDEST PUSH2 0x140 DUP9 ADD MLOAD PUSH1 0x20 ADD MLOAD PUSH2 0xFFFF AND ISZERO PUSH2 0x140D JUMPI DUP8 MLOAD PUSH2 0x140 DUP10 ADD MLOAD PUSH1 0x20 ADD MLOAD PUSH2 0x1397 SWAP2 DUP10 SWAP2 DUP9 PUSH2 0xAF6 DUP7 PUSH2 0xA30 JUMP JUMPDEST DUP8 MLOAD PUSH2 0x140 DUP10 ADD MLOAD PUSH1 0x20 ADD MLOAD PUSH2 0x13B2 SWAP2 SWAP1 DUP10 SWAP1 DUP9 DUP8 DUP7 PUSH2 0x1D89 JUMP JUMPDEST SWAP1 SWAP4 POP SWAP1 POP PUSH2 0x13C6 PUSH2 0x131D PUSH2 0x1318 DUP6 PUSH2 0xA30 JUMP JUMPDEST DUP7 SLOAD PUSH1 0x1 PUSH1 0x1 PUSH1 0x50 SHL SUB SWAP2 SWAP1 SWAP2 AND PUSH1 0x1 PUSH1 0x78 SHL MUL PUSH10 0xFFFFFFFFFFFFFFFFFFFF PUSH1 0x78 SHL NOT SWAP1 SWAP2 AND OR DUP7 SSTORE DUP8 MLOAD PUSH2 0x140 DUP10 ADD MLOAD PUSH1 0x20 ADD MLOAD PUSH2 0x140D SWAP2 DUP10 SWAP2 PUSH5 0xFFFFFFFFFF DUP6 PUSH2 0x1A42 JUMP JUMPDEST PUSH1 0x0 DUP3 SGT DUP1 PUSH2 0x141C JUMPI POP PUSH1 0x0 DUP2 SGT JUMPDEST ISZERO PUSH2 0x1431 JUMPI PUSH2 0x1431 DUP8 DUP10 PUSH1 0x0 ADD MLOAD DUP5 DUP5 PUSH2 0x1EE5 JUMP JUMPDEST PUSH2 0x1442 DUP7 DUP6 DUP6 PUSH5 0xFFFFFFFFFF PUSH2 0x1FB4 JUMP JUMPDEST POP POP POP POP POP POP JUMPDEST POP POP JUMP JUMPDEST PUSH2 0x1455 PUSH2 0x4EE8 JUMP JUMPDEST PUSH1 0x0 PUSH2 0x145F PUSH2 0x1CE4 JUMP JUMPDEST PUSH1 0x1 PUSH1 0x1 PUSH1 0xA0 SHL SUB DUP5 AND PUSH1 0x0 DUP2 DUP2 MSTORE PUSH1 0x20 DUP4 DUP2 MSTORE PUSH1 0x40 SWAP2 DUP3 SWAP1 KECCAK256 SWAP3 DUP7 MSTORE DUP3 SLOAD PUSH2 0xFFFF DUP1 DUP3 AND SWAP3 DUP9 ADD SWAP3 SWAP1 SWAP3 MSTORE PUSH3 0x10000 SWAP1 DIV AND SWAP1 DUP6 ADD MSTORE SWAP1 SWAP2 POP PUSH2 0x14BB PUSH2 0x2710 PUSH4 0x3B9ACA00 DUP4 SLOAD PUSH1 0x1 PUSH1 0x50 SHL SWAP1 DIV PUSH1 0xFF AND SWAP2 SWAP1 SDIV PUSH1 0x5 MUL PUSH2 0x1FF2 JUMP JUMPDEST PUSH1 0x80 DUP5 ADD MSTORE DUP1 SLOAD PUSH2 0x14DA SWAP1 PUSH1 0x1 PUSH1 0x40 SHL SWAP1 DIV PUSH2 0xFFFF AND PUSH3 0x186A0 PUSH2 0x1FF2 JUMP JUMPDEST PUSH1 0xA0 DUP5 ADD MSTORE DUP1 SLOAD PUSH2 0x14F9 SWAP1 PUSH1 0x1 PUSH1 0x70 SHL SWAP1 DIV PUSH2 0xFFFF AND PUSH3 0x186A0 PUSH2 0x1FF2 JUMP JUMPDEST PUSH2 0x120 DUP5 ADD MSTORE PUSH1 0x2 DUP2 ADD SLOAD PUSH2 0x1515 SWAP1 PUSH2 0xFFFF AND PUSH3 0x186A0 PUSH2 0x1FF2 JUMP JUMPDEST PUSH2 0x180 DUP5 ADD MSTORE DUP1 SLOAD PUSH1 0x64 SWAP1 PUSH1 0xFF PUSH1 0x1 PUSH1 0x58 SHL SWAP1 SWAP2 DIV AND PUSH4 0x3B9ACA00 MUL SDIV PUSH1 0xC0 DUP5 ADD MSTORE DUP1 SLOAD PUSH1 0x1 PUSH1 0x60 SHL DUP2 DIV PUSH1 0xFF SWAP1 DUP2 AND PUSH1 0xE0 DUP7 ADD MSTORE PUSH1 0x1 PUSH1 0x68 SHL SWAP1 SWAP2 DIV AND PUSH2 0x100 DUP5 ADD MSTORE PUSH1 0x40 DUP1 MLOAD DUP1 DUP3 ADD SWAP2 DUP3 SWAP1 MSTORE SWAP1 PUSH1 0x1 DUP4 ADD SWAP1 PUSH1 0x2 SWAP1 DUP3 PUSH1 0x0 DUP6 JUMPDEST DUP3 DUP3 SWAP1 SLOAD SWAP1 PUSH2 0x100 EXP SWAP1 DIV PUSH2 0xFFFF AND PUSH2 0xFFFF AND DUP2 MSTORE PUSH1 0x20 ADD SWAP1 PUSH1 0x2 ADD SWAP1 PUSH1 0x20 DUP3 PUSH1 0x1 ADD DIV SWAP3 DUP4 ADD SWAP3 PUSH1 0x1 SUB DUP3 MUL SWAP2 POP DUP1 DUP5 GT PUSH2 0x1572 JUMPI POP POP POP POP POP PUSH2 0x140 DUP6 ADD SWAP2 SWAP1 SWAP2 MSTORE POP PUSH1 0x4 DUP2 ADD SLOAD PUSH1 0xFF AND PUSH2 0x1C0 DUP5 ADD MSTORE DUP1 SLOAD PUSH2 0x15DD SWAP1 PUSH1 0x1 PUSH1 0x20 SHL SWAP1 DIV PUSH4 0xFFFFFFFF AND PUSH2 0x2020 JUMP JUMPDEST PUSH1 0x60 DUP5 ADD MSTORE PUSH2 0x1613 PUSH1 0x3 DUP3 ADD PUSH1 0x0 JUMPDEST PUSH1 0x8 SWAP2 DUP3 DUP3 DIV ADD SWAP2 SWAP1 MOD PUSH1 0x4 MUL SWAP1 SLOAD SWAP1 PUSH2 0x100 EXP SWAP1 DIV PUSH4 0xFFFFFFFF AND PUSH4 0xFFFFFFFF AND PUSH2 0x2020 JUMP JUMPDEST PUSH2 0x1A0 DUP5 ADD MLOAD MSTORE PUSH2 0x1628 PUSH1 0x3 DUP3 ADD PUSH1 0x1 PUSH2 0x15EC JUMP JUMPDEST PUSH2 0x1A0 DUP5 ADD MLOAD PUSH1 0x20 ADD MSTORE POP SWAP1 SWAP3 SWAP2 POP POP JUMP JUMPDEST PUSH2 0x1642 PUSH2 0x50F1 JUMP JUMPDEST PUSH2 0x934 DUP3 TIMESTAMP PUSH2 0x202E JUMP JUMPDEST PUSH1 0x0 DUP1 PUSH2 0x907 PUSH1 0x1A PUSH2 0x20EF JUMP JUMPDEST PUSH1 0x0 PUSH5 0xFFFFFFFFFF DUP4 EQ PUSH2 0x1679 JUMPI DUP2 PUSH1 0x1 PUSH1 0x1 PUSH1 0x50 SHL SUB AND PUSH1 0x0 SUB PUSH2 0x168F JUMP JUMPDEST PUSH2 0x168F DUP5 PUSH1 0x1 PUSH1 0x1 PUSH1 0x50 SHL SUB DUP5 AND PUSH1 0x0 SUB PUSH2 0x2108 JUMP JUMPDEST SWAP5 SWAP4 POP POP POP POP JUMP JUMPDEST DUP2 DUP2 MUL PUSH1 0x0 NOT DUP4 EQ ISZERO PUSH2 0x16C7 JUMPI DUP2 ISZERO DUP1 PUSH2 0x16B9 JUMPI POP DUP3 DUP3 DUP3 DUP2 PUSH2 0x16B6 JUMPI INVALID JUMPDEST SDIV EQ JUMPDEST PUSH2 0x16C2 JUMPI PUSH1 0x0 DUP1 REVERT JUMPDEST PUSH2 0x907 JUMP JUMPDEST DUP3 ISZERO DUP1 PUSH2 0x16DC JUMPI POP DUP2 DUP4 DUP3 DUP2 PUSH2 0x16D9 JUMPI INVALID JUMPDEST SDIV EQ JUMPDEST PUSH2 0x907 JUMPI PUSH1 0x0 DUP1 REVERT JUMPDEST PUSH1 0x0 DUP1 PUSH1 0x0 PUSH2 0x16F2 PUSH2 0x164C JUMP JUMPDEST PUSH1 0x1 PUSH1 0x1 PUSH1 0xA0 SHL SUB DUP1 DUP13 AND PUSH1 0x0 SWAP1 DUP2 MSTORE PUSH1 0x20 SWAP3 DUP4 MSTORE PUSH1 0x40 DUP1 DUP3 KECCAK256 DUP16 MLOAD SWAP1 SWAP4 AND DUP3 MSTORE SWAP2 SWAP1 SWAP3 MSTORE SWAP1 KECCAK256 DUP1 SLOAD SWAP1 SWAP2 POP PUSH5 0xFFFFFFFFFF AND DUP10 DUP2 EQ DUP1 PUSH2 0x1731 JUMPI POP DUP1 ISZERO JUMPDEST PUSH2 0x173A JUMPI PUSH1 0x0 DUP1 REVERT JUMPDEST DUP7 MLOAD DUP3 SLOAD PUSH2 0x175A SWAP2 SWAP1 DUP13 SWAP1 PUSH1 0x1 PUSH1 0x28 SHL SWAP1 DIV PUSH1 0x1 PUSH1 0x1 PUSH1 0x50 SHL SUB AND PUSH2 0x1659 JUMP JUMPDEST SWAP4 POP PUSH2 0x1780 DUP8 PUSH1 0x1 PUSH1 0x20 MUL ADD MLOAD DUP4 SLOAD DUP13 SWAP1 PUSH1 0x1 PUSH1 0x78 SHL SWAP1 DIV PUSH1 0x1 PUSH1 0x1 PUSH1 0x50 SHL SUB AND PUSH2 0x1659 JUMP JUMPDEST SWAP3 POP DUP9 ISZERO PUSH2 0x1808 JUMPI PUSH2 0x1792 DUP5 DUP11 PUSH2 0x1AD8 JUMP JUMPDEST SWAP4 POP PUSH2 0x17C1 DUP13 DUP13 DUP15 PUSH2 0x140 ADD MLOAD PUSH1 0x0 PUSH1 0x2 DUP2 LT PUSH2 0x17AB JUMPI INVALID JUMPDEST PUSH1 0x20 MUL ADD MLOAD DUP14 DUP14 DUP13 PUSH1 0x0 JUMPDEST PUSH1 0x20 MUL ADD MLOAD DUP12 PUSH2 0x215F JUMP JUMPDEST PUSH2 0x17DC PUSH2 0x131D PUSH2 0x1318 PUSH2 0xB55 DUP11 PUSH1 0x0 PUSH1 0x20 MUL ADD MLOAD DUP15 DUP10 PUSH2 0x2239 JUMP JUMPDEST DUP3 SLOAD PUSH1 0x1 PUSH1 0x1 PUSH1 0x50 SHL SUB SWAP2 SWAP1 SWAP2 AND PUSH1 0x1 PUSH1 0x28 SHL MUL PUSH15 0xFFFFFFFFFFFFFFFFFFFF0000000000 NOT SWAP1 SWAP2 AND OR DUP3 SSTORE JUMPDEST DUP8 ISZERO PUSH2 0x1885 JUMPI PUSH2 0x1818 DUP4 DUP10 PUSH2 0x1AD8 JUMP JUMPDEST SWAP3 POP PUSH2 0x1840 DUP13 DUP13 DUP15 PUSH2 0x140 ADD MLOAD PUSH1 0x1 PUSH1 0x2 DUP2 LT PUSH2 0x1831 JUMPI INVALID JUMPDEST PUSH1 0x20 MUL ADD MLOAD DUP14 DUP13 DUP13 PUSH1 0x1 PUSH2 0x17B6 JUMP JUMPDEST PUSH2 0x185B PUSH2 0x131D PUSH2 0x1318 PUSH2 0xB55 DUP11 PUSH1 0x1 PUSH1 0x20 MUL ADD MLOAD DUP15 DUP9 PUSH2 0x2239 JUMP JUMPDEST DUP3 SLOAD PUSH1 0x1 PUSH1 0x1 PUSH1 0x50 SHL SUB SWAP2 SWAP1 SWAP2 AND PUSH1 0x1 PUSH1 0x78 SHL MUL PUSH10 0xFFFFFFFFFFFFFFFFFFFF PUSH1 0x78 SHL NOT SWAP1 SWAP2 AND OR DUP3 SSTORE JUMPDEST DUP6 ISZERO PUSH2 0x18F4 JUMPI DUP4 ISZERO DUP1 PUSH2 0x18A2 JUMPI POP PUSH2 0x1A0 DUP13 ADD MLOAD MLOAD PUSH1 0x0 DUP6 SWAP1 SUB SLT ISZERO JUMPDEST PUSH2 0x18BE JUMPI PUSH1 0x40 MLOAD PUSH3 0x461BCD PUSH1 0xE5 SHL DUP2 MSTORE PUSH1 0x4 ADD PUSH2 0x312 SWAP1 PUSH2 0x5CA0 JUMP JUMPDEST DUP3 ISZERO DUP1 PUSH2 0x18D8 JUMPI POP PUSH2 0x1A0 DUP13 ADD MLOAD PUSH1 0x20 ADD MLOAD PUSH1 0x0 DUP5 SWAP1 SUB SLT ISZERO JUMPDEST PUSH2 0x18F4 JUMPI PUSH1 0x40 MLOAD PUSH3 0x461BCD PUSH1 0xE5 SHL DUP2 MSTORE PUSH1 0x4 ADD PUSH2 0x312 SWAP1 PUSH2 0x5CA0 JUMP JUMPDEST PUSH2 0x1908 DUP3 DUP6 DUP6 PUSH2 0x1903 DUP15 PUSH2 0x2257 JUMP JUMPDEST PUSH2 0x1FB4 JUMP JUMPDEST POP POP SWAP9 POP SWAP9 SWAP7 POP POP POP POP POP POP POP JUMP JUMPDEST PUSH1 0x0 DUP7 PUSH1 0x40 ADD MLOAD PUSH2 0xFFFF AND DUP6 PUSH2 0xFFFF AND EQ ISZERO PUSH2 0x1932 JUMPI PUSH1 0x0 DUP1 REVERT JUMPDEST DUP3 PUSH2 0x193F JUMPI POP PUSH1 0x0 PUSH2 0xC10 JUMP JUMPDEST PUSH5 0xFFFFFFFFFF DUP5 EQ PUSH2 0x198E JUMPI PUSH2 0x1963 DUP6 DUP9 PUSH1 0x0 ADD MLOAD DUP7 DUP7 DUP7 DUP13 PUSH2 0x100 ADD MLOAD TIMESTAMP PUSH2 0x226B JUMP JUMPDEST SWAP1 POP PUSH1 0x0 DUP4 SLT ISZERO PUSH2 0x198E JUMPI PUSH1 0x0 DUP2 SGT PUSH2 0x198E JUMPI PUSH1 0x40 MLOAD PUSH3 0x461BCD PUSH1 0xE5 SHL DUP2 MSTORE PUSH1 0x4 ADD PUSH2 0x312 SWAP1 PUSH2 0x5BD0 JUMP JUMPDEST DUP1 PUSH2 0xC10 JUMPI PUSH2 0x19A0 PUSH2 0xB55 DUP8 DUP6 PUSH2 0x2379 JUMP JUMPDEST SWAP1 POP PUSH5 0xFFFFFFFFFF DUP5 EQ PUSH2 0xC10 JUMPI DUP7 MLOAD PUSH2 0xC10 SWAP1 DUP7 DUP7 PUSH2 0x19BF DUP6 PUSH2 0xA30 JUMP JUMPDEST DUP8 PUSH2 0x239B JUMP JUMPDEST PUSH1 0x0 DUP1 PUSH1 0x0 PUSH2 0x19D2 PUSH2 0x248B JUMP JUMPDEST PUSH1 0x1 PUSH1 0x1 PUSH1 0xA0 SHL SUB SWAP6 DUP7 AND PUSH1 0x0 SWAP1 DUP2 MSTORE PUSH1 0x20 SWAP2 DUP3 MSTORE PUSH1 0x40 DUP1 DUP3 KECCAK256 SWAP7 SWAP1 SWAP8 AND DUP2 MSTORE SWAP5 SWAP1 MSTORE POP POP POP KECCAK256 PUSH1 0x1 ADD DUP1 SLOAD PUSH32 0xFFFF0000000000000000000000000000000000000000FFFFFFFFFFFFFFFFFFFF DUP2 AND SWAP1 SWAP2 SSTORE PUSH1 0x1 PUSH1 0x1 PUSH1 0x50 SHL SUB PUSH1 0x1 PUSH1 0x50 SHL DUP3 DIV DUP2 AND SWAP3 PUSH1 0x1 PUSH1 0xA0 SHL SWAP1 SWAP3 DIV AND SWAP1 JUMP JUMPDEST DUP1 PUSH2 0x1A4C JUMPI PUSH2 0xCDB JUMP JUMPDEST PUSH1 0x0 PUSH2 0x1A5B DUP6 DUP6 DUP6 PUSH1 0xB PUSH2 0x2498 JUMP JUMPDEST SWAP1 POP PUSH1 0x0 DUP1 PUSH1 0x0 DUP5 SLT ISZERO PUSH2 0x1A74 JUMPI POP DUP7 SWAP1 POP PUSH1 0x0 PUSH2 0x1A7B JUMP JUMPDEST POP PUSH1 0x0 SWAP1 POP DUP7 JUMPDEST PUSH1 0x0 PUSH2 0x1A86 DUP6 PUSH2 0x24CE JUMP JUMPDEST SWAP1 POP DUP2 PUSH1 0x1 PUSH1 0x1 PUSH1 0xA0 SHL SUB AND DUP4 PUSH1 0x1 PUSH1 0x1 PUSH1 0xA0 SHL SUB AND CALLER PUSH1 0x1 PUSH1 0x1 PUSH1 0xA0 SHL SUB AND PUSH1 0x0 DUP1 MLOAD PUSH1 0x20 PUSH2 0x5EE8 DUP4 CODECOPY DUP2 MLOAD SWAP2 MSTORE DUP8 DUP6 PUSH1 0x40 MLOAD PUSH2 0x1AC5 SWAP3 SWAP2 SWAP1 PUSH2 0x5E24 JUMP JUMPDEST PUSH1 0x40 MLOAD DUP1 SWAP2 SUB SWAP1 LOG4 POP POP POP POP POP POP POP POP POP JUMP JUMPDEST DUP2 DUP2 ADD DUP3 DUP2 SLT ISZERO PUSH1 0x0 DUP4 SLT ISZERO EQ PUSH2 0x907 JUMPI PUSH1 0x0 DUP1 REVERT JUMPDEST PUSH1 0x0 PUSH2 0x1AF8 PUSH2 0x24EF JUMP JUMPDEST PUSH2 0xFFFF DUP5 AND PUSH1 0x0 SWAP1 DUP2 MSTORE PUSH1 0x20 SWAP2 SWAP1 SWAP2 MSTORE PUSH1 0x40 DUP2 KECCAK256 SLOAD PUSH1 0x1 PUSH1 0x1 PUSH1 0xA0 SHL SUB AND SWAP2 POP DUP3 SLT ISZERO PUSH2 0x1B23 JUMPI SWAP3 SWAP4 SWAP3 JUMPDEST DUP1 PUSH1 0x1 PUSH1 0x1 PUSH1 0xA0 SHL SUB AND PUSH4 0x23DE6651 DUP7 DUP7 PUSH2 0x1B3D DUP7 PUSH2 0x24CE JUMP JUMPDEST PUSH1 0x40 MLOAD DUP5 PUSH4 0xFFFFFFFF AND PUSH1 0xE0 SHL DUP2 MSTORE PUSH1 0x4 ADD PUSH2 0x1B5B SWAP4 SWAP3 SWAP2 SWAP1 PUSH2 0x5B19 JUMP JUMPDEST PUSH1 0x0 PUSH1 0x40 MLOAD DUP1 DUP4 SUB DUP2 PUSH1 0x0 DUP8 DUP1 EXTCODESIZE ISZERO DUP1 ISZERO PUSH2 0x1B75 JUMPI PUSH1 0x0 DUP1 REVERT JUMPDEST POP GAS CALL ISZERO DUP1 ISZERO PUSH2 0x1B89 JUMPI RETURNDATASIZE PUSH1 0x0 DUP1 RETURNDATACOPY RETURNDATASIZE PUSH1 0x0 REVERT JUMPDEST POP POP POP POP POP POP POP POP POP JUMP JUMPDEST PUSH1 0x0 DUP1 PUSH2 0x1BAC DUP8 DUP8 PUSH2 0x1BA5 DUP9 PUSH2 0xA30 JUMP JUMPDEST DUP8 DUP8 PUSH2 0x24FC JUMP JUMPDEST SWAP1 POP PUSH2 0x1BBA PUSH2 0x1318 DUP3 PUSH2 0xA30 JUMP JUMPDEST SWAP2 POP POP JUMPDEST SWAP6 SWAP5 POP POP POP POP POP JUMP JUMPDEST PUSH1 0x0 DUP4 PUSH2 0x1BD6 JUMPI POP PUSH1 0x0 PUSH2 0x1BBE JUMP JUMPDEST PUSH1 0x0 DUP5 SGT PUSH2 0x1BE3 JUMPI PUSH1 0x0 DUP1 REVERT JUMPDEST PUSH1 0x0 PUSH2 0x1BF2 DUP7 PUSH2 0xFFFF AND PUSH2 0xC1A JUMP JUMPDEST SWAP1 POP PUSH1 0x0 PUSH2 0x1C09 DUP3 PUSH2 0x1C04 DUP8 DUP10 PUSH2 0x25A4 JUMP JUMPDEST PUSH2 0x25D0 JUMP JUMPDEST SWAP1 POP PUSH1 0x0 PUSH2 0x1C1A DUP10 DUP10 DUP5 DUP10 DUP10 PUSH2 0x260D JUMP JUMPDEST SWAP1 SWAP5 POP SWAP1 POP DUP7 DUP2 SUB PUSH1 0x0 DUP2 SLT ISZERO PUSH2 0x1C30 JUMPI PUSH1 0x0 DUP1 REVERT JUMPDEST POP POP POP POP SWAP6 SWAP5 POP POP POP POP POP JUMP JUMPDEST PUSH2 0x1C45 PUSH2 0x4FAE JUMP JUMPDEST PUSH1 0x0 PUSH2 0x1C4F PUSH2 0x26CA JUMP JUMPDEST PUSH1 0x0 DUP6 DUP2 MSTORE PUSH1 0x20 DUP3 DUP2 MSTORE PUSH1 0x40 DUP1 DUP4 KECCAK256 DUP8 ISZERO ISZERO DUP5 MSTORE DUP3 MSTORE SWAP2 DUP3 SWAP1 KECCAK256 DUP3 MLOAD PUSH1 0xA0 DUP2 ADD DUP5 MSTORE DUP2 SLOAD PUSH1 0x1 PUSH1 0x1 PUSH1 0xA0 SHL SUB DUP2 AND DUP3 MSTORE PUSH1 0xFF PUSH1 0x1 PUSH1 0xA0 SHL DUP3 DIV DUP2 AND ISZERO ISZERO SWAP5 DUP4 ADD SWAP5 SWAP1 SWAP5 MSTORE PUSH1 0x1 PUSH1 0xB0 SHL DUP2 DIV DUP5 AND PUSH1 0xA EXP SWAP5 DUP3 ADD SWAP5 SWAP1 SWAP5 MSTORE SWAP4 SWAP5 POP SWAP3 SWAP2 PUSH1 0x60 DUP4 ADD SWAP2 PUSH1 0x1 PUSH1 0xA8 SHL SWAP1 SWAP2 DIV AND PUSH1 0x5 DUP2 GT ISZERO PUSH2 0x1CC4 JUMPI INVALID JUMPDEST DUP2 MSTORE PUSH1 0x0 PUSH1 0x20 SWAP1 SWAP2 ADD MSTORE SWAP6 SWAP5 POP POP POP POP POP JUMP JUMPDEST PUSH1 0x0 DUP1 PUSH2 0x907 PUSH1 0x17 PUSH2 0x20EF JUMP JUMPDEST PUSH1 0x0 DUP1 PUSH2 0x907 PUSH1 0x14 PUSH2 0x20EF JUMP JUMPDEST PUSH1 0x0 DUP2 PUSH2 0x1CFD JUMPI PUSH1 0x0 DUP1 REVERT JUMPDEST PUSH1 0x1 PUSH1 0x80 SHL DUP3 LT PUSH2 0x1D10 JUMPI PUSH1 0x80 SWAP2 DUP3 SHR SWAP2 ADD JUMPDEST PUSH1 0x1 PUSH1 0x40 SHL DUP3 LT PUSH2 0x1D23 JUMPI PUSH1 0x40 SWAP2 DUP3 SHR SWAP2 ADD JUMPDEST PUSH1 0x1 PUSH1 0x20 SHL DUP3 LT PUSH2 0x1D36 JUMPI PUSH1 0x20 SWAP2 DUP3 SHR SWAP2 ADD JUMPDEST PUSH3 0x10000 DUP3 LT PUSH2 0x1D48 JUMPI PUSH1 0x10 SWAP2 DUP3 SHR SWAP2 ADD JUMPDEST PUSH2 0x100 DUP3 LT PUSH2 0x1D59 JUMPI PUSH1 0x8 SWAP2 DUP3 SHR SWAP2 ADD JUMPDEST PUSH1 0x10 DUP3 LT PUSH2 0x1D69 JUMPI PUSH1 0x4 SWAP2 DUP3 SHR SWAP2 ADD JUMPDEST PUSH1 0x4 DUP3 LT PUSH2 0x1D79 JUMPI PUSH1 0x2 SWAP2 DUP3 SHR SWAP2 ADD JUMPDEST PUSH1 0x2 DUP3 LT PUSH2 0x937 JUMPI PUSH1 0x1 ADD SWAP2 SWAP1 POP JUMP JUMPDEST PUSH1 0x0 DUP1 PUSH1 0x0 PUSH2 0x1D97 DUP8 PUSH2 0x163A JUMP JUMPDEST SWAP1 POP PUSH1 0x0 PUSH2 0x1DA3 PUSH2 0x26D7 JUMP JUMPDEST PUSH1 0x1 PUSH1 0x1 PUSH1 0xA0 SHL SUB DUP12 AND PUSH1 0x0 SWAP1 DUP2 MSTORE PUSH1 0x20 SWAP2 DUP3 MSTORE PUSH1 0x40 DUP1 DUP3 KECCAK256 PUSH5 0xFFFFFFFFFF DUP4 MSTORE DUP4 MSTORE DUP1 DUP3 KECCAK256 PUSH2 0xFFFF DUP13 AND DUP4 MSTORE SWAP1 SWAP3 MSTORE KECCAK256 SWAP1 POP DUP7 ISZERO PUSH2 0x1E63 JUMPI PUSH1 0x0 PUSH2 0x1DE6 PUSH2 0x26D7 JUMP JUMPDEST PUSH1 0x1 PUSH1 0x1 PUSH1 0xA0 SHL SUB DUP13 AND PUSH1 0x0 SWAP1 DUP2 MSTORE PUSH1 0x20 SWAP2 DUP3 MSTORE PUSH1 0x40 DUP1 DUP3 KECCAK256 DUP12 DUP4 MSTORE DUP4 MSTORE DUP1 DUP3 KECCAK256 PUSH2 0xFFFF DUP14 AND DUP4 MSTORE SWAP1 SWAP3 MSTORE SWAP1 DUP2 KECCAK256 DUP1 SLOAD SWAP1 SWAP3 POP PUSH1 0x1 PUSH1 0x1 PUSH1 0x50 SHL SUB DUP2 AND SWAP1 SWAP2 SUB SWAP1 PUSH1 0x1 PUSH1 0xF0 SHL SWAP1 DIV PUSH1 0xFF AND PUSH2 0x1E60 JUMPI PUSH2 0x1E42 DUP4 DUP14 DUP13 DUP13 DUP6 PUSH2 0x26E4 JUMP JUMPDEST DUP2 SLOAD PUSH1 0x1 PUSH1 0x1 PUSH1 0x50 SHL SUB NOT PUSH1 0xFF PUSH1 0xF0 SHL NOT SWAP1 SWAP2 AND PUSH1 0x1 PUSH1 0xF0 SHL OR AND DUP3 SSTORE JUMPDEST POP POP JUMPDEST DUP7 ISZERO PUSH2 0x1E79 JUMPI PUSH2 0x1E76 DUP9 DUP9 DUP9 PUSH1 0x0 PUSH2 0x2748 JUMP JUMPDEST SWAP4 POP JUMPDEST PUSH2 0x1E87 DUP3 DUP3 DUP11 DUP14 DUP10 DUP10 PUSH2 0x2797 JUMP JUMPDEST SWAP1 SWAP5 POP SWAP3 POP PUSH2 0x1EA1 DUP10 DUP12 DUP11 DUP11 PUSH2 0x1E9C DUP12 PUSH2 0xA30 JUMP JUMPDEST PUSH2 0x2860 JUMP JUMPDEST PUSH2 0x1EB3 DUP10 DUP12 DUP11 PUSH5 0xFFFFFFFFFF DUP9 PUSH2 0x2860 JUMP JUMPDEST POP POP SWAP7 POP SWAP7 SWAP5 POP POP POP POP POP JUMP JUMPDEST PUSH1 0x0 DUP1 DUP3 SLT ISZERO PUSH2 0xD57 JUMPI PUSH1 0x0 DUP1 REVERT JUMPDEST PUSH1 0x0 PUSH1 0x1 PUSH1 0x1 PUSH1 0x50 SHL SUB DUP3 GT ISZERO PUSH2 0xD57 JUMPI PUSH1 0x0 DUP1 REVERT JUMPDEST PUSH1 0x0 PUSH2 0x1EEF PUSH2 0x248B JUMP JUMPDEST PUSH1 0x1 PUSH1 0x1 PUSH1 0xA0 SHL SUB DUP7 DUP2 AND PUSH1 0x0 SWAP1 DUP2 MSTORE PUSH1 0x20 SWAP3 DUP4 MSTORE PUSH1 0x40 DUP1 DUP3 KECCAK256 SWAP3 DUP9 AND DUP3 MSTORE SWAP2 SWAP1 SWAP3 MSTORE SWAP1 KECCAK256 PUSH1 0x1 DUP2 ADD SLOAD SWAP1 SWAP2 POP PUSH2 0x1F3E SWAP1 PUSH2 0x131D SWAP1 PUSH2 0x1318 SWAP1 PUSH1 0x1 PUSH1 0x50 SHL SWAP1 DIV PUSH1 0x1 PUSH1 0x1 PUSH1 0x50 SHL SUB AND DUP7 PUSH2 0x1AD8 JUMP JUMPDEST PUSH1 0x1 DUP3 ADD DUP1 SLOAD PUSH10 0xFFFFFFFFFFFFFFFFFFFF PUSH1 0x50 SHL NOT AND PUSH1 0x1 PUSH1 0x50 SHL PUSH1 0x1 PUSH1 0x1 PUSH1 0x50 SHL SUB SWAP4 DUP5 AND MUL OR SWAP1 DUP2 SWAP1 SSTORE PUSH2 0x1F85 SWAP2 PUSH2 0x131D SWAP2 PUSH2 0x1318 SWAP2 PUSH1 0x1 PUSH1 0xA0 SHL SWAP1 SWAP2 DIV AND DUP6 PUSH2 0x1AD8 JUMP JUMPDEST DUP2 PUSH1 0x1 ADD PUSH1 0x14 PUSH2 0x100 EXP DUP2 SLOAD DUP2 PUSH1 0x1 PUSH1 0x1 PUSH1 0x50 SHL SUB MUL NOT AND SWAP1 DUP4 PUSH1 0x1 PUSH1 0x1 PUSH1 0x50 SHL SUB AND MUL OR SWAP1 SSTORE POP POP POP POP POP POP JUMP JUMPDEST DUP3 ISZERO DUP1 ISZERO PUSH2 0x1FC0 JUMPI POP DUP2 ISZERO JUMPDEST ISZERO PUSH2 0x1FD6 JUMPI DUP4 SLOAD PUSH5 0xFFFFFFFFFF NOT AND DUP5 SSTORE PUSH2 0x1FEC JUMP JUMPDEST DUP4 SLOAD PUSH5 0xFFFFFFFFFF NOT AND PUSH5 0xFFFFFFFFFF DUP3 AND OR DUP5 SSTORE JUMPDEST POP POP POP POP JUMP JUMPDEST PUSH1 0x0 DUP3 PUSH2 0x2001 JUMPI POP PUSH1 0x0 PUSH2 0x907 JUMP JUMPDEST DUP3 DUP3 MUL DUP3 DUP5 DUP3 DUP2 PUSH2 0x200E JUMPI INVALID JUMPDEST DIV EQ PUSH2 0x2019 JUMPI PUSH1 0x0 DUP1 REVERT JUMPDEST SWAP4 SWAP3 POP POP POP JUMP JUMPDEST PUSH1 0x8 DUP2 SWAP1 SHR PUSH1 0xFF SWAP1 SWAP2 AND SHL SWAP1 JUMP JUMPDEST PUSH2 0x2036 PUSH2 0x50F1 JUMP JUMPDEST PUSH1 0x0 PUSH2 0x2041 DUP5 PUSH2 0x28E2 JUMP JUMPDEST SWAP1 POP DUP3 DUP2 PUSH1 0x0 ADD MLOAD LT ISZERO PUSH2 0x2080 JUMPI PUSH1 0x0 DUP1 PUSH2 0x205B DUP7 PUSH2 0x29AA JUMP JUMPDEST SWAP1 POP PUSH2 0x2069 DUP7 DUP5 DUP4 DUP9 PUSH2 0x2A27 JUMP JUMPDEST SWAP1 SWAP4 POP SWAP2 POP PUSH2 0x2079 DUP7 DUP4 DUP6 PUSH2 0x2ACB JUMP JUMPDEST POP POP PUSH2 0x208D JUMP JUMPDEST DUP1 MLOAD DUP4 EQ PUSH2 0x208D JUMPI PUSH1 0x0 DUP1 REVERT JUMPDEST PUSH1 0x40 MLOAD DUP1 PUSH1 0x60 ADD PUSH1 0x40 MSTORE DUP1 PUSH2 0x20B6 PUSH2 0xBEB DUP5 PUSH1 0xA0 ADD MLOAD DUP6 PUSH1 0xC0 ADD MLOAD PUSH2 0x1FF2 SWAP1 SWAP2 SWAP1 PUSH4 0xFFFFFFFF AND JUMP JUMPDEST DUP2 MSTORE PUSH1 0x20 ADD PUSH2 0x20D9 PUSH2 0xBEB DUP5 PUSH1 0xA0 ADD MLOAD DUP6 PUSH1 0xE0 ADD MLOAD PUSH2 0x1FF2 SWAP1 SWAP2 SWAP1 PUSH4 0xFFFFFFFF AND JUMP JUMPDEST DUP2 MSTORE PUSH1 0x20 ADD DUP3 PUSH1 0x60 ADD MLOAD DUP2 MSTORE POP SWAP2 POP POP SWAP3 SWAP2 POP POP JUMP JUMPDEST PUSH1 0x0 PUSH3 0xF4240 DUP3 PUSH1 0x26 DUP2 GT ISZERO PUSH2 0x2101 JUMPI INVALID JUMPDEST ADD SWAP3 SWAP2 POP POP JUMP JUMPDEST PUSH1 0x0 PUSH1 0x1 DUP3 SLT PUSH2 0x2117 JUMPI PUSH1 0x0 DUP1 REVERT JUMPDEST DUP2 PUSH2 0x2124 JUMPI POP PUSH1 0x0 PUSH2 0x907 JUMP JUMPDEST PUSH2 0x2019 PUSH1 0x1 PUSH2 0x2159 PUSH15 0xC097CE7BC90715B34B9F1000000000 PUSH2 0x2153 DUP8 PUSH1 0x20 ADD MLOAD DUP8 PUSH2 0x1697 SWAP1 SWAP2 SWAP1 PUSH4 0xFFFFFFFF AND JUMP JUMPDEST SWAP1 PUSH2 0x2CFC JUMP JUMPDEST SWAP1 PUSH2 0x2D2D JUMP JUMPDEST PUSH1 0x0 PUSH2 0x2169 PUSH2 0x26D7 JUMP JUMPDEST DUP9 MLOAD PUSH1 0x1 PUSH1 0x1 PUSH1 0xA0 SHL SUB AND PUSH1 0x0 SWAP1 DUP2 MSTORE PUSH1 0x20 SWAP2 DUP3 MSTORE PUSH1 0x40 DUP1 DUP3 KECCAK256 DUP9 DUP4 MSTORE DUP4 MSTORE DUP1 DUP3 KECCAK256 PUSH2 0xFFFF DUP11 AND DUP4 MSTORE SWAP1 SWAP3 MSTORE SWAP1 DUP2 KECCAK256 DUP1 SLOAD SWAP1 SWAP3 POP PUSH2 0x21B3 SWAP1 DUP6 SWAP1 DUP9 SWAP1 PUSH1 0x1 PUSH1 0x1 PUSH1 0x50 SHL SUB AND PUSH2 0x1659 JUMP JUMPDEST SWAP1 POP PUSH2 0x21BF DUP2 DUP7 PUSH2 0x1AD8 JUMP JUMPDEST SWAP1 POP PUSH2 0x21D1 DUP3 DUP6 DUP12 DUP11 DUP11 DUP7 PUSH1 0x0 PUSH2 0x2D43 JUMP JUMPDEST PUSH1 0x0 DUP1 DUP7 SGT DUP1 ISZERO PUSH2 0x21E6 JUMPI POP PUSH5 0xFFFFFFFFFF DUP8 EQ JUMPDEST ISZERO PUSH2 0x2208 JUMPI PUSH2 0x2201 PUSH2 0xB55 DUP7 DUP10 PUSH2 0x21FC DUP11 PUSH2 0xA30 JUMP JUMPDEST PUSH2 0x2239 JUMP JUMPDEST SWAP1 POP PUSH2 0x2216 JUMP JUMPDEST PUSH2 0x2213 DUP6 DUP9 DUP9 PUSH2 0x2239 JUMP JUMPDEST SWAP1 POP JUMPDEST DUP4 ISZERO PUSH2 0x222D JUMPI PUSH2 0x222D DUP10 DUP12 PUSH1 0x0 ADD MLOAD DUP11 DUP11 DUP6 PUSH2 0x2860 JUMP JUMPDEST POP POP POP POP POP POP POP POP POP POP JUMP JUMPDEST PUSH1 0x0 PUSH5 0xFFFFFFFFFF DUP4 EQ PUSH2 0x224D JUMPI DUP2 PUSH2 0x168F JUMP JUMPDEST PUSH2 0x168F DUP5 DUP4 PUSH2 0x2E1D JUMP JUMPDEST PUSH1 0x0 PUSH5 0xFFFFFFFFFF DUP3 GT ISZERO PUSH2 0xD57 JUMPI PUSH1 0x0 DUP1 REVERT JUMPDEST PUSH1 0x0 DUP1 PUSH2 0x227A DUP10 DUP9 DUP7 DUP7 PUSH2 0x2E79 JUMP JUMPDEST SWAP1 POP PUSH1 0x0 PUSH2 0x2287 DUP8 PUSH2 0x24CE JUMP JUMPDEST SWAP1 POP PUSH1 0x1 PUSH1 0x1 PUSH1 0x58 SHL SUB DUP2 LT PUSH2 0x229C JUMPI PUSH1 0x0 DUP1 REVERT JUMPDEST PUSH1 0x0 PUSH1 0x78 DUP8 PUSH4 0xFFFFFFFF AND SWAP1 SHL PUSH1 0x98 DUP4 SWAP1 SHL PUSH1 0xF0 DUP6 SWAP1 SHL PUSH1 0xF8 PUSH1 0x0 DUP13 SGT PUSH2 0x22C4 JUMPI PUSH1 0x1 PUSH2 0x22C7 JUMP JUMPDEST PUSH1 0x0 JUMPDEST PUSH1 0x5 DUP2 GT ISZERO PUSH2 0x22D2 JUMPI INVALID JUMPDEST PUSH1 0xFF AND SWAP1 SHL OR OR OR PUSH1 0x0 SHL SWAP1 POP PUSH20 0x0 PUSH4 0x715E9002 DUP13 DUP13 DUP5 PUSH1 0x40 MLOAD DUP5 PUSH4 0xFFFFFFFF AND PUSH1 0xE0 SHL DUP2 MSTORE PUSH1 0x4 ADD PUSH2 0x231A SWAP4 SWAP3 SWAP2 SWAP1 PUSH2 0x5DF6 JUMP JUMPDEST PUSH1 0x20 PUSH1 0x40 MLOAD DUP1 DUP4 SUB DUP2 DUP7 DUP1 EXTCODESIZE ISZERO DUP1 ISZERO PUSH2 0x2332 JUMPI PUSH1 0x0 DUP1 REVERT JUMPDEST POP GAS DELEGATECALL ISZERO DUP1 ISZERO PUSH2 0x2346 JUMPI RETURNDATASIZE PUSH1 0x0 DUP1 RETURNDATACOPY RETURNDATASIZE PUSH1 0x0 REVERT JUMPDEST POP POP POP POP PUSH1 0x40 MLOAD RETURNDATASIZE PUSH1 0x1F NOT PUSH1 0x1F DUP3 ADD AND DUP3 ADD DUP1 PUSH1 0x40 MSTORE POP DUP2 ADD SWAP1 PUSH2 0x236A SWAP2 SWAP1 PUSH2 0x5917 JUMP JUMPDEST SWAP12 SWAP11 POP POP POP POP POP POP POP POP POP POP POP JUMP JUMPDEST DUP2 MLOAD PUSH1 0x0 SWAP1 PUSH2 0x2019 SWAP1 PUSH2 0x2153 DUP5 PUSH15 0xC097CE7BC90715B34B9F1000000000 PUSH2 0x1697 JUMP JUMPDEST PUSH1 0x0 PUSH2 0x23A5 PUSH2 0x2EB8 JUMP JUMPDEST PUSH2 0xFFFF DUP7 AND PUSH1 0x0 SWAP1 DUP2 MSTORE PUSH1 0x20 DUP3 DUP2 MSTORE PUSH1 0x40 DUP1 DUP4 KECCAK256 DUP9 DUP5 MSTORE SWAP1 SWAP2 MSTORE SWAP1 KECCAK256 DUP1 SLOAD SWAP2 SWAP3 POP SWAP1 PUSH2 0x23EE SWAP1 PUSH2 0x131D SWAP1 PUSH1 0x1 PUSH1 0x50 SHL SWAP1 DIV PUSH1 0x1 PUSH1 0x1 PUSH1 0x50 SHL SUB AND PUSH2 0x23E8 DUP7 PUSH2 0x1EC0 JUMP JUMPDEST SWAP1 PUSH2 0x2EC5 JUMP JUMPDEST DUP2 SLOAD PUSH10 0xFFFFFFFFFFFFFFFFFFFF PUSH1 0x50 SHL NOT AND PUSH1 0x1 PUSH1 0x50 SHL PUSH1 0x1 PUSH1 0x1 PUSH1 0x50 SHL SUB SWAP3 DUP4 AND MUL OR DUP1 DUP4 SSTORE PUSH2 0x242E SWAP2 PUSH2 0x131D SWAP2 PUSH1 0x1 PUSH1 0xA0 SHL SWAP1 DIV AND PUSH2 0x23E8 DUP8 PUSH2 0x1EC0 JUMP JUMPDEST DUP2 SLOAD PUSH1 0x1 PUSH1 0x1 PUSH1 0x50 SHL SUB SWAP2 SWAP1 SWAP2 AND PUSH1 0x1 PUSH1 0xA0 SHL MUL PUSH10 0xFFFFFFFFFFFFFFFFFFFF PUSH1 0xA0 SHL NOT SWAP1 SWAP2 AND OR DUP2 SSTORE PUSH2 0x2465 DUP8 PUSH2 0x5E7 DUP9 DUP8 PUSH2 0x1AEE JUMP JUMPDEST PUSH2 0x2473 PUSH2 0x5E7 DUP8 DUP8 DUP7 PUSH2 0x2ED7 JUMP JUMPDEST PUSH2 0x2482 PUSH2 0x5E7 DUP9 DUP9 DUP9 DUP8 PUSH2 0x2F4F JUMP JUMPDEST POP POP POP POP POP POP POP JUMP JUMPDEST PUSH1 0x0 DUP1 PUSH2 0x907 PUSH1 0x16 PUSH2 0x20EF JUMP JUMPDEST PUSH9 0x10000000000000000 PUSH1 0x1 PUSH1 0xE0 SHL SUB PUSH1 0x40 DUP6 SWAP1 SHL AND PUSH8 0xFFFF000000000000 PUSH1 0x30 DUP6 SWAP1 SHL AND OR PUSH1 0x8 DUP4 SWAP1 SHL OR DUP2 OR SWAP5 SWAP4 POP POP POP POP JUMP JUMPDEST PUSH1 0x0 DUP1 DUP3 SLT ISZERO PUSH2 0x24E8 JUMPI PUSH2 0x24E1 DUP3 PUSH2 0xA30 JUMP JUMPDEST SWAP1 POP PUSH2 0x937 JUMP JUMPDEST POP DUP1 PUSH2 0x937 JUMP JUMPDEST PUSH1 0x0 DUP1 PUSH2 0x907 PUSH1 0x21 PUSH2 0x20EF JUMP JUMPDEST PUSH1 0x0 DUP4 PUSH2 0x250B JUMPI POP PUSH1 0x0 PUSH2 0x1BBE JUMP JUMPDEST PUSH1 0x0 DUP5 SLT PUSH2 0x2518 JUMPI PUSH1 0x0 DUP1 REVERT JUMPDEST PUSH1 0x0 PUSH2 0x2527 DUP7 PUSH2 0xFFFF AND PUSH2 0xC1A JUMP JUMPDEST SWAP1 POP PUSH2 0x253C DUP2 PUSH2 0x2537 DUP7 DUP9 PUSH2 0x25A4 JUMP JUMPDEST PUSH2 0x2FBA JUMP JUMPDEST SWAP2 POP PUSH1 0x0 PUSH2 0x2549 DUP4 PUSH2 0xA30 JUMP JUMPDEST SWAP1 POP PUSH2 0x2556 DUP8 DUP4 DUP4 PUSH2 0x2FF2 JUMP JUMPDEST PUSH1 0x3 DUP3 PUSH1 0x60 ADD MLOAD PUSH1 0x5 DUP2 GT ISZERO PUSH2 0x2568 JUMPI INVALID JUMPDEST EQ ISZERO PUSH2 0x257E JUMPI PUSH2 0x2579 DUP9 DUP3 DUP7 PUSH2 0x30E0 JUMP JUMPDEST PUSH2 0x258B JUMP JUMPDEST DUP2 MLOAD PUSH2 0x258B SWAP1 DUP10 DUP4 PUSH2 0x31A8 JUMP JUMPDEST PUSH2 0x2598 DUP9 DUP9 DUP6 DUP6 DUP10 PUSH2 0x321F JUMP JUMPDEST POP POP POP SWAP6 SWAP5 POP POP POP POP POP JUMP JUMPDEST PUSH1 0x0 PUSH2 0x2019 PUSH15 0xC097CE7BC90715B34B9F1000000000 PUSH2 0x2153 DUP6 PUSH1 0x0 ADD MLOAD DUP6 PUSH2 0x1697 SWAP1 SWAP2 SWAP1 PUSH4 0xFFFFFFFF AND JUMP JUMPDEST PUSH1 0x0 PUSH4 0x5F5E100 DUP4 PUSH1 0x40 ADD MLOAD SLT ISZERO PUSH2 0x25FE JUMPI PUSH2 0x25F7 PUSH1 0x1 PUSH2 0x25F1 DUP6 DUP6 PUSH2 0x2FBA JUMP JUMPDEST SWAP1 PUSH2 0x1AD8 JUMP JUMPDEST SWAP1 POP PUSH2 0x907 JUMP JUMPDEST PUSH2 0x2019 DUP4 PUSH2 0x2537 DUP5 PUSH1 0x1 PUSH2 0x1AD8 JUMP JUMPDEST PUSH1 0x0 DUP1 PUSH1 0x0 PUSH2 0x261B DUP7 PUSH2 0x1EC0 JUMP JUMPDEST SWAP1 POP DUP1 PUSH2 0x262F JUMPI PUSH1 0x0 DUP1 SWAP3 POP SWAP3 POP POP PUSH2 0x26C0 JUMP JUMPDEST PUSH1 0x0 PUSH2 0x263E DUP9 PUSH2 0xFFFF AND PUSH2 0xC1A JUMP JUMPDEST SWAP1 POP PUSH1 0x3 DUP2 PUSH1 0x60 ADD MLOAD PUSH1 0x5 DUP2 GT ISZERO PUSH2 0x2652 JUMPI INVALID JUMPDEST EQ ISZERO PUSH2 0x2699 JUMPI CALLVALUE DUP3 LT ISZERO PUSH2 0x2672 JUMPI PUSH2 0x266D DUP10 DUP4 CALLVALUE SUB DUP8 PUSH2 0x30E0 JUMP JUMPDEST PUSH2 0x2691 JUMP JUMPDEST CALLVALUE DUP3 EQ PUSH2 0x2691 JUMPI PUSH1 0x40 MLOAD PUSH3 0x461BCD PUSH1 0xE5 SHL DUP2 MSTORE PUSH1 0x4 ADD PUSH2 0x312 SWAP1 PUSH2 0x5BF7 JUMP JUMPDEST DUP7 SWAP4 POP PUSH2 0x26AE JUMP JUMPDEST PUSH2 0x26AB PUSH2 0xBEB DUP3 PUSH1 0x0 ADD MLOAD DUP12 DUP6 PUSH2 0x3266 JUMP JUMPDEST SWAP4 POP JUMPDEST PUSH2 0x26BB DUP10 DUP10 DUP7 DUP5 DUP11 PUSH2 0x321F JUMP JUMPDEST SWAP3 POP POP POP JUMPDEST SWAP6 POP SWAP6 SWAP4 POP POP POP POP JUMP JUMPDEST PUSH1 0x0 DUP1 PUSH2 0x907 PUSH1 0x7 PUSH2 0x20EF JUMP JUMPDEST PUSH1 0x0 DUP1 PUSH2 0x907 PUSH1 0x18 PUSH2 0x20EF JUMP JUMPDEST PUSH1 0x0 PUSH2 0x26F2 DUP5 DUP5 DUP5 DUP9 PUSH2 0x2748 JUMP JUMPDEST DUP7 SLOAD SWAP1 SWAP2 POP PUSH1 0x1 PUSH1 0x1 PUSH1 0x50 SHL SUB AND PUSH1 0x0 PUSH2 0x270C DUP3 DUP5 PUSH2 0x2D2D JUMP JUMPDEST SWAP1 POP PUSH2 0x271A PUSH2 0x131D DUP3 PUSH2 0x1EC0 JUMP JUMPDEST DUP9 SLOAD PUSH1 0x1 PUSH1 0x1 PUSH1 0x50 SHL SUB NOT AND PUSH1 0x1 PUSH1 0x1 PUSH1 0x50 SHL SUB SWAP2 SWAP1 SWAP2 AND OR DUP9 SSTORE PUSH2 0x1442 DUP8 DUP8 PUSH2 0x2743 DUP8 PUSH2 0xA30 JUMP JUMPDEST PUSH2 0x33E4 JUMP JUMPDEST PUSH1 0x0 DUP1 PUSH1 0x0 PUSH2 0x2757 DUP8 DUP8 PUSH2 0x34AB JUMP JUMPDEST SWAP2 POP SWAP2 POP DUP1 PUSH2 0x2765 JUMPI PUSH1 0x0 DUP1 REVERT JUMPDEST PUSH2 0x276F DUP3 DUP7 PUSH2 0x2E1D JUMP JUMPDEST SWAP3 POP PUSH1 0x1 PUSH1 0x1 PUSH1 0xA0 SHL SUB DUP5 AND ISZERO PUSH2 0x278D JUMPI PUSH2 0x278D DUP5 DUP9 DUP9 DUP9 DUP8 PUSH2 0x353E JUMP JUMPDEST POP POP SWAP5 SWAP4 POP POP POP POP JUMP JUMPDEST DUP1 PUSH1 0x0 DUP1 DUP5 SGT ISZERO PUSH2 0x2855 JUMPI PUSH1 0x0 PUSH2 0x27BB PUSH2 0x27B4 PUSH2 0xB55 DUP12 DUP9 PUSH2 0x25A4 JUMP JUMPDEST DUP11 SWAP1 PUSH2 0x2E1D JUMP JUMPDEST SWAP1 POP PUSH1 0x0 DUP5 DUP3 SLT ISZERO PUSH2 0x27F5 JUMPI POP PUSH1 0x0 SWAP3 POP DUP4 PUSH2 0x27EE PUSH2 0x27E7 PUSH2 0xB55 PUSH2 0x27E0 DUP6 DUP6 PUSH2 0x2D2D JUMP JUMPDEST DUP14 SWAP1 PUSH2 0x2108 JUMP JUMPDEST DUP12 SWAP1 PUSH2 0x2379 JUMP JUMPDEST SWAP3 POP PUSH2 0x2804 JUMP JUMPDEST POP DUP1 PUSH2 0x2801 DUP6 DUP3 PUSH2 0x2D2D JUMP JUMPDEST SWAP4 POP JUMPDEST PUSH2 0x2810 DUP11 DUP9 DUP11 DUP5 PUSH2 0x3611 JUMP JUMPDEST DUP9 SLOAD PUSH1 0x1 PUSH1 0x1 PUSH1 0x50 SHL SUB AND PUSH1 0x0 PUSH2 0x2827 DUP3 DUP5 PUSH2 0x1AD8 JUMP JUMPDEST SWAP1 POP PUSH2 0x2835 PUSH2 0x131D DUP3 PUSH2 0x1EC0 JUMP JUMPDEST DUP12 SLOAD PUSH1 0x1 PUSH1 0x1 PUSH1 0x50 SHL SUB NOT AND PUSH1 0x1 PUSH1 0x1 PUSH1 0x50 SHL SUB SWAP2 SWAP1 SWAP2 AND OR DUP12 SSTORE POP POP POP POP JUMPDEST SWAP7 POP SWAP7 SWAP5 POP POP POP POP POP JUMP JUMPDEST DUP1 PUSH2 0x286A JUMPI PUSH2 0xCDB JUMP JUMPDEST PUSH1 0x0 DUP1 DUP1 PUSH2 0x287B DUP8 DUP8 DUP8 PUSH1 0xA PUSH2 0x2498 JUMP JUMPDEST SWAP1 POP PUSH1 0x0 DUP5 SGT ISZERO PUSH2 0x2892 JUMPI DUP8 SWAP3 POP PUSH1 0x0 SWAP2 POP PUSH2 0x289A JUMP JUMPDEST PUSH1 0x0 SWAP3 POP DUP8 SWAP2 POP JUMPDEST PUSH1 0x1 PUSH1 0x1 PUSH1 0xA0 SHL SUB DUP1 DUP4 AND SWAP1 DUP5 AND CALLER PUSH1 0x0 DUP1 MLOAD PUSH1 0x20 PUSH2 0x5EE8 DUP4 CODECOPY DUP2 MLOAD SWAP2 MSTORE DUP5 PUSH2 0x28C2 DUP10 PUSH2 0x24CE JUMP JUMPDEST PUSH1 0x40 MLOAD PUSH2 0x28D0 SWAP3 SWAP2 SWAP1 PUSH2 0x5E24 JUMP JUMPDEST PUSH1 0x40 MLOAD DUP1 SWAP2 SUB SWAP1 LOG4 POP POP POP POP POP POP POP POP JUMP JUMPDEST PUSH2 0x28EA PUSH2 0x5112 JUMP JUMPDEST PUSH1 0x0 PUSH2 0x28F4 PUSH2 0x363E JUMP JUMPDEST PUSH2 0xFFFF SWAP4 DUP5 AND PUSH1 0x0 SWAP1 DUP2 MSTORE PUSH1 0x20 SWAP2 DUP3 MSTORE PUSH1 0x40 SWAP1 DUP2 SWAP1 KECCAK256 DUP1 SLOAD PUSH5 0xFFFFFFFFFF DUP2 AND DUP7 MSTORE PUSH1 0x1 PUSH1 0x28 SHL DUP2 DIV PUSH1 0x1 PUSH1 0x1 PUSH1 0x58 SHL SUB SWAP1 DUP2 AND SWAP5 DUP8 ADD SWAP5 SWAP1 SWAP5 MSTORE PUSH1 0x1 DUP3 ADD SLOAD DUP5 AND SWAP3 DUP7 ADD SWAP3 SWAP1 SWAP3 MSTORE PUSH1 0x1 PUSH1 0xD8 SHL DUP3 DIV PUSH4 0xFFFFFFFF AND PUSH1 0x60 DUP7 ADD MSTORE PUSH1 0x1 PUSH1 0x80 SHL SWAP1 SWAP2 DIV SWAP1 SWAP2 AND PUSH1 0x80 DUP5 ADD MSTORE PUSH1 0x2 ADD SLOAD PUSH1 0x1 PUSH1 0x1 PUSH1 0x50 SHL SUB DUP1 DUP3 AND PUSH1 0xA0 DUP6 ADD MSTORE PUSH1 0x1 PUSH1 0x50 SHL DUP3 DIV DUP2 AND PUSH1 0xC0 DUP6 ADD MSTORE PUSH1 0x1 PUSH1 0xA0 SHL DUP3 DIV AND PUSH1 0xE0 DUP5 ADD MSTORE PUSH1 0x1 PUSH1 0xF0 SHL SWAP1 DIV PUSH1 0xFF AND PUSH2 0x12C MUL SWAP1 SWAP3 AND PUSH2 0x100 DUP3 ADD MSTORE SWAP2 SWAP1 POP JUMP JUMPDEST PUSH1 0x0 DUP1 PUSH2 0x29B6 DUP4 PUSH2 0x364B JUMP JUMPDEST PUSH1 0x1 PUSH1 0x1 PUSH1 0xA0 SHL SUB AND PUSH4 0xEF81F216 PUSH1 0x40 MLOAD DUP2 PUSH4 0xFFFFFFFF AND PUSH1 0xE0 SHL DUP2 MSTORE PUSH1 0x4 ADD PUSH1 0x40 DUP1 MLOAD DUP1 DUP4 SUB DUP2 PUSH1 0x0 DUP8 DUP1 EXTCODESIZE ISZERO DUP1 ISZERO PUSH2 0x29EF JUMPI PUSH1 0x0 DUP1 REVERT JUMPDEST POP GAS CALL ISZERO DUP1 ISZERO PUSH2 0x2A03 JUMPI RETURNDATASIZE PUSH1 0x0 DUP1 RETURNDATACOPY RETURNDATASIZE PUSH1 0x0 REVERT JUMPDEST POP POP POP POP PUSH1 0x40 MLOAD RETURNDATASIZE PUSH1 0x1F NOT PUSH1 0x1F DUP3 ADD AND DUP3 ADD DUP1 PUSH1 0x40 MSTORE POP DUP2 ADD SWAP1 PUSH2 0x168F SWAP2 SWAP1 PUSH2 0x5A33 JUMP JUMPDEST PUSH2 0x2A2F PUSH2 0x5112 JUMP JUMPDEST PUSH1 0x0 DUP1 PUSH1 0x0 PUSH2 0x2A3F DUP9 DUP7 DUP10 PUSH2 0x367B JUMP JUMPDEST PUSH1 0xC0 DUP12 ADD SWAP3 SWAP1 SWAP3 MSTORE PUSH1 0xE0 DUP11 ADD SWAP3 SWAP1 SWAP3 MSTORE PUSH1 0x20 DUP10 ADD MLOAD SWAP2 SWAP4 POP SWAP2 POP PUSH2 0x2A63 SWAP1 DUP4 PUSH2 0x2EC5 JUMP JUMPDEST PUSH1 0x20 DUP9 ADD MSTORE PUSH1 0x80 DUP8 ADD MLOAD PUSH1 0x0 SWAP1 ISZERO PUSH2 0x2A91 JUMPI PUSH1 0x80 DUP9 ADD MLOAD PUSH2 0x2A8E SWAP1 PUSH2 0x2A88 DUP10 DUP3 PUSH2 0x378C JUMP JUMPDEST SWAP1 PUSH2 0x37A1 JUMP JUMPDEST SWAP1 POP JUMPDEST PUSH2 0x2AB1 PUSH2 0x2AA6 PUSH8 0xDE0B6B3A7640000 DUP4 PUSH2 0x2EC5 JUMP JUMPDEST PUSH1 0xA0 DUP11 ADD MLOAD SWAP1 PUSH2 0x37BE JUMP JUMPDEST PUSH1 0xA0 DUP10 ADD MSTORE POP POP PUSH1 0x80 DUP7 ADD SWAP5 SWAP1 SWAP5 MSTORE POP POP DUP3 MSTORE SWAP1 SWAP3 SWAP1 SWAP2 POP JUMP JUMPDEST PUSH1 0x0 PUSH2 0x2AD5 PUSH2 0x363E JUMP JUMPDEST PUSH1 0x0 DUP6 PUSH2 0xFFFF AND DUP2 MSTORE PUSH1 0x20 ADD SWAP1 DUP2 MSTORE PUSH1 0x20 ADD PUSH1 0x0 KECCAK256 SWAP1 POP PUSH2 0x2AF9 DUP3 PUSH1 0x0 ADD MLOAD PUSH2 0x2257 JUMP JUMPDEST DUP2 SLOAD PUSH5 0xFFFFFFFFFF NOT AND PUSH5 0xFFFFFFFFFF SWAP2 SWAP1 SWAP2 AND OR DUP2 SSTORE PUSH1 0xA0 DUP3 ADD MLOAD PUSH2 0x2B1E SWAP1 PUSH2 0x1ECF JUMP JUMPDEST PUSH1 0x2 DUP3 ADD DUP1 SLOAD PUSH1 0x1 PUSH1 0x1 PUSH1 0x50 SHL SUB NOT AND PUSH1 0x1 PUSH1 0x1 PUSH1 0x50 SHL SUB SWAP3 SWAP1 SWAP3 AND SWAP2 SWAP1 SWAP2 OR SWAP1 SSTORE PUSH1 0xC0 DUP3 ADD MLOAD PUSH2 0x2B4E SWAP1 PUSH2 0x1ECF JUMP JUMPDEST DUP2 PUSH1 0x2 ADD PUSH1 0xA PUSH2 0x100 EXP DUP2 SLOAD DUP2 PUSH1 0x1 PUSH1 0x1 PUSH1 0x50 SHL SUB MUL NOT AND SWAP1 DUP4 PUSH1 0x1 PUSH1 0x1 PUSH1 0x50 SHL SUB AND MUL OR SWAP1 SSTORE POP PUSH2 0x2B83 DUP3 PUSH1 0xE0 ADD MLOAD PUSH2 0x1ECF JUMP JUMPDEST DUP2 PUSH1 0x2 ADD PUSH1 0x14 PUSH2 0x100 EXP DUP2 SLOAD DUP2 PUSH1 0x1 PUSH1 0x1 PUSH1 0x50 SHL SUB MUL NOT AND SWAP1 DUP4 PUSH1 0x1 PUSH1 0x1 PUSH1 0x50 SHL SUB AND MUL OR SWAP1 SSTORE POP PUSH2 0x2BB8 DUP3 PUSH1 0x20 ADD MLOAD PUSH2 0x37DB JUMP JUMPDEST DUP2 SLOAD PUSH1 0x1 PUSH1 0x1 PUSH1 0x58 SHL SUB SWAP2 SWAP1 SWAP2 AND PUSH1 0x1 PUSH1 0x28 SHL MUL PUSH16 0xFFFFFFFFFFFFFFFFFFFFFF0000000000 NOT SWAP1 SWAP2 AND OR DUP2 SSTORE PUSH1 0x40 DUP3 ADD MLOAD PUSH2 0x2BF2 SWAP1 PUSH2 0x37DB JUMP JUMPDEST PUSH1 0x1 DUP3 ADD DUP1 SLOAD PUSH11 0xFFFFFFFFFFFFFFFFFFFFFF NOT AND PUSH1 0x1 PUSH1 0x1 PUSH1 0x58 SHL SUB SWAP3 SWAP1 SWAP3 AND SWAP2 SWAP1 SWAP2 OR SWAP1 SSTORE PUSH1 0x80 DUP3 ADD MLOAD PUSH2 0x2C26 SWAP1 PUSH2 0x37DB JUMP JUMPDEST DUP2 SLOAD PUSH1 0x1 PUSH1 0x1 PUSH1 0x58 SHL SUB SWAP2 SWAP1 SWAP2 AND PUSH1 0x1 PUSH1 0x80 SHL MUL PUSH11 0xFFFFFFFFFFFFFFFFFFFFFF PUSH1 0x80 SHL NOT SWAP1 SWAP2 AND OR DUP2 SSTORE PUSH1 0x60 DUP3 ADD MLOAD PUSH2 0x2C5E SWAP1 PUSH2 0x37F1 JUMP JUMPDEST DUP2 SLOAD PUSH4 0xFFFFFFFF SWAP2 SWAP1 SWAP2 AND PUSH1 0x1 PUSH1 0xD8 SHL MUL PUSH4 0xFFFFFFFF PUSH1 0xD8 SHL NOT SWAP1 SWAP2 AND OR DUP2 SSTORE DUP3 ISZERO PUSH2 0x2CAA JUMPI PUSH1 0x0 PUSH2 0x2C8F DUP5 PUSH2 0xD41 JUMP JUMPDEST SWAP1 POP PUSH2 0x2C9B DUP6 DUP3 PUSH2 0x3804 JUMP JUMPDEST PUSH2 0x2CA8 PUSH2 0xFEE DUP7 DUP4 PUSH2 0x383B JUMP JUMPDEST POP JUMPDEST DUP4 PUSH2 0xFFFF AND PUSH32 0xEF25641E225E493886510CA1AD6584FA7B442B9FEA820A29D1DE3CE27D270FD2 DUP4 PUSH1 0xA0 ADD MLOAD DUP5 PUSH1 0xC0 ADD MLOAD DUP6 PUSH1 0xE0 ADD MLOAD PUSH1 0x40 MLOAD PUSH2 0x2CEE SWAP4 SWAP3 SWAP2 SWAP1 PUSH2 0x5E32 JUMP JUMPDEST PUSH1 0x40 MLOAD DUP1 SWAP2 SUB SWAP1 LOG2 POP POP POP POP JUMP JUMPDEST PUSH1 0x0 DUP2 PUSH1 0x0 NOT EQ DUP1 ISZERO PUSH2 0x2D12 JUMPI POP PUSH1 0x1 PUSH1 0xFF SHL DUP4 EQ JUMPDEST ISZERO PUSH2 0x2D1C JUMPI PUSH1 0x0 DUP1 REVERT JUMPDEST DUP2 DUP4 DUP2 PUSH2 0x2D25 JUMPI INVALID JUMPDEST SDIV SWAP4 SWAP3 POP POP POP JUMP JUMPDEST DUP1 DUP3 SUB DUP3 DUP2 SGT ISZERO PUSH1 0x0 DUP4 SLT ISZERO EQ PUSH2 0x907 JUMPI PUSH1 0x0 DUP1 REVERT JUMPDEST DUP7 SLOAD PUSH1 0x1 PUSH1 0x1 PUSH1 0x50 SHL SUB AND PUSH1 0x0 SWAP1 DUP2 SUB SWAP1 PUSH2 0x2D5F DUP9 DUP7 DUP7 PUSH2 0x2239 JUMP JUMPDEST SWAP1 POP PUSH2 0x2D70 PUSH2 0x131D PUSH2 0x1318 DUP4 PUSH2 0xA30 JUMP JUMPDEST DUP10 SLOAD PUSH1 0x1 PUSH1 0x1 PUSH1 0x50 SHL SUB NOT AND PUSH1 0x1 PUSH1 0x1 PUSH1 0x50 SHL SUB SWAP2 SWAP1 SWAP2 AND OR DUP10 SSTORE PUSH1 0x0 PUSH2 0x2D97 DUP4 DUP4 PUSH2 0x38BB JUMP JUMPDEST SWAP1 POP PUSH1 0x0 PUSH5 0xFFFFFFFFFF DUP8 EQ ISZERO PUSH2 0x2DBE JUMPI DUP9 MLOAD PUSH2 0x2DB7 SWAP1 DUP12 SWAP1 DUP11 DUP6 PUSH2 0x3611 JUMP JUMPDEST POP DUP5 PUSH2 0x2DF0 JUMP JUMPDEST DUP5 PUSH2 0x2DF0 JUMPI DUP9 MLOAD PUSH2 0x2DD2 SWAP1 DUP10 DUP10 DUP8 DUP8 PUSH2 0x3942 JUMP JUMPDEST DUP9 MLOAD PUSH2 0x2DE2 SWAP1 DUP10 PUSH2 0x2743 DUP6 PUSH2 0xA30 JUMP JUMPDEST PUSH2 0x2DED DUP10 DUP12 DUP11 PUSH2 0x3A02 JUMP JUMPDEST SWAP1 POP JUMPDEST PUSH1 0x0 DUP3 SGT DUP1 ISZERO PUSH2 0x2DFE JUMPI POP DUP5 ISZERO JUMPDEST ISZERO PUSH2 0x2E10 JUMPI DUP9 MLOAD PUSH2 0x2E10 SWAP1 DUP10 DUP4 PUSH2 0x3AA8 JUMP JUMPDEST POP POP POP POP POP POP POP POP POP POP POP JUMP JUMPDEST PUSH1 0x0 DUP2 PUSH1 0x0 SGT ISZERO DUP1 ISZERO PUSH2 0x2E30 JUMPI POP PUSH1 0xA DUP3 SLT JUMPDEST ISZERO PUSH2 0x2E3D JUMPI POP PUSH1 0x0 PUSH2 0x907 JUMP JUMPDEST PUSH1 0x0 DUP3 SLT PUSH2 0x2E4A JUMPI PUSH1 0x0 DUP1 REVERT JUMPDEST PUSH2 0x2019 PUSH1 0x1 PUSH2 0x2159 DUP6 PUSH1 0x20 ADD MLOAD PUSH2 0x2153 PUSH15 0xC097CE7BC90715B34B9F1000000000 DUP8 PUSH2 0x1697 SWAP1 SWAP2 SWAP1 PUSH4 0xFFFFFFFF AND JUMP JUMPDEST PUSH1 0x0 DUP1 PUSH1 0x0 PUSH2 0x2E8B DUP8 PUSH2 0xFFFF AND PUSH2 0x3B24 JUMP JUMPDEST SWAP1 POP PUSH2 0x2E9B DUP2 PUSH1 0xFF AND DUP8 DUP7 PUSH2 0x3B3A JUMP JUMPDEST SWAP1 SWAP4 POP SWAP2 POP DUP5 DUP4 GT ISZERO PUSH2 0x2EAD JUMPI PUSH1 0x0 DUP1 REVERT JUMPDEST DUP2 ISZERO PUSH2 0x278D JUMPI PUSH1 0x0 DUP1 REVERT JUMPDEST PUSH1 0x0 DUP1 PUSH2 0x907 PUSH1 0x20 PUSH2 0x20EF JUMP JUMPDEST PUSH1 0x0 DUP3 DUP3 ADD DUP4 DUP2 LT ISZERO PUSH2 0x2019 JUMPI PUSH1 0x0 DUP1 REVERT JUMPDEST PUSH1 0x0 DUP1 PUSH2 0x2EE5 DUP6 DUP6 DUP6 PUSH2 0x3BC9 JUMP JUMPDEST SWAP2 POP SWAP2 POP PUSH1 0x0 DUP1 PUSH1 0x0 DUP6 SLT ISZERO PUSH2 0x2EFD JUMPI DUP8 SWAP2 POP PUSH2 0x2F00 JUMP JUMPDEST POP DUP7 JUMPDEST DUP1 PUSH1 0x1 PUSH1 0x1 PUSH1 0xA0 SHL SUB AND DUP3 PUSH1 0x1 PUSH1 0x1 PUSH1 0xA0 SHL SUB AND CALLER PUSH1 0x1 PUSH1 0x1 PUSH1 0xA0 SHL SUB AND PUSH32 0x4A39DC06D4C0DBC64B70AF90FD698A233A518AA5D07E595D983B8C0526C8F7FB DUP8 DUP8 PUSH1 0x40 MLOAD PUSH2 0x28D0 SWAP3 SWAP2 SWAP1 PUSH2 0x5B87 JUMP JUMPDEST DUP1 PUSH2 0x2F59 JUMPI PUSH2 0xCDB JUMP JUMPDEST PUSH1 0x0 PUSH2 0x2F65 DUP5 DUP5 PUSH2 0x3CAE JUMP JUMPDEST SWAP1 POP PUSH1 0x0 DUP3 SLT ISZERO PUSH2 0x2F74 JUMPI SWAP4 SWAP5 SWAP4 JUMPDEST PUSH1 0x1 PUSH1 0x1 PUSH1 0xA0 SHL SUB DUP1 DUP7 AND SWAP1 DUP8 AND CALLER PUSH1 0x0 DUP1 MLOAD PUSH1 0x20 PUSH2 0x5EE8 DUP4 CODECOPY DUP2 MLOAD SWAP2 MSTORE DUP5 PUSH2 0x2F9C DUP8 PUSH2 0x24CE JUMP JUMPDEST PUSH1 0x40 MLOAD PUSH2 0x2FAA SWAP3 SWAP2 SWAP1 PUSH2 0x5E24 JUMP JUMPDEST PUSH1 0x40 MLOAD DUP1 SWAP2 SUB SWAP1 LOG4 POP POP POP POP POP POP JUMP JUMPDEST PUSH1 0x0 PUSH4 0x5F5E100 DUP4 PUSH1 0x40 ADD MLOAD EQ ISZERO PUSH2 0x2FD3 JUMPI POP DUP1 PUSH2 0x907 JUMP JUMPDEST PUSH2 0x2019 PUSH4 0x5F5E100 PUSH2 0x2153 DUP6 PUSH1 0x40 ADD MLOAD DUP6 PUSH2 0x1697 SWAP1 SWAP2 SWAP1 PUSH4 0xFFFFFFFF AND JUMP JUMPDEST PUSH1 0x0 PUSH2 0x2FFC PUSH2 0x3CCC JUMP JUMPDEST DUP4 MLOAD PUSH1 0x1 PUSH1 0x1 PUSH1 0xA0 SHL SUB AND PUSH1 0x0 SWAP1 DUP2 MSTORE PUSH1 0x20 DUP3 SWAP1 MSTORE PUSH1 0x40 SWAP1 KECCAK256 SLOAD SWAP1 SWAP2 POP DUP1 DUP4 GT PUSH2 0x3027 JUMPI POP POP PUSH2 0x7F9 JUMP JUMPDEST PUSH1 0x0 PUSH2 0x3032 DUP7 PUSH2 0x364B JUMP JUMPDEST SWAP1 POP PUSH1 0x0 DUP2 PUSH1 0x1 PUSH1 0x1 PUSH1 0xA0 SHL SUB AND PUSH4 0xB5E4DA23 DUP5 DUP8 SUB PUSH1 0x40 MLOAD DUP3 PUSH4 0xFFFFFFFF AND PUSH1 0xE0 SHL DUP2 MSTORE PUSH1 0x4 ADD PUSH2 0x3064 SWAP2 SWAP1 PUSH2 0x5E1B JUMP JUMPDEST PUSH1 0x0 PUSH1 0x40 MLOAD DUP1 DUP4 SUB DUP2 DUP7 DUP1 EXTCODESIZE ISZERO DUP1 ISZERO PUSH2 0x307C JUMPI PUSH1 0x0 DUP1 REVERT JUMPDEST POP GAS STATICCALL ISZERO DUP1 ISZERO PUSH2 0x3090 JUMPI RETURNDATASIZE PUSH1 0x0 DUP1 RETURNDATACOPY RETURNDATASIZE PUSH1 0x0 REVERT JUMPDEST POP POP POP POP PUSH1 0x40 MLOAD RETURNDATASIZE PUSH1 0x0 DUP3 RETURNDATACOPY PUSH1 0x1F RETURNDATASIZE SWAP1 DUP2 ADD PUSH1 0x1F NOT AND DUP3 ADD PUSH1 0x40 MSTORE PUSH2 0x30B8 SWAP2 SWAP1 DUP2 ADD SWAP1 PUSH2 0x5809 JUMP JUMPDEST SWAP1 POP PUSH1 0x0 PUSH2 0x30C6 DUP8 DUP4 PUSH2 0x3CD9 JUMP JUMPDEST SWAP2 POP PUSH2 0x30D4 SWAP1 POP DUP5 DUP3 PUSH2 0x2EC5 JUMP JUMPDEST DUP7 GT ISZERO PUSH2 0x1442 JUMPI PUSH1 0x0 DUP1 REVERT JUMPDEST DUP1 ISZERO PUSH2 0x3172 JUMPI PUSH20 0x82AF49447D8A07E3BD95BD0D56F35241523FBAB1 PUSH1 0x1 PUSH1 0x1 PUSH1 0xA0 SHL SUB AND PUSH4 0xD0E30DB0 DUP4 PUSH1 0x40 MLOAD DUP3 PUSH4 0xFFFFFFFF AND PUSH1 0xE0 SHL DUP2 MSTORE PUSH1 0x4 ADD PUSH1 0x0 PUSH1 0x40 MLOAD DUP1 DUP4 SUB DUP2 DUP6 DUP9 DUP1 EXTCODESIZE ISZERO DUP1 ISZERO PUSH2 0x3135 JUMPI PUSH1 0x0 DUP1 REVERT JUMPDEST POP GAS CALL ISZERO DUP1 ISZERO PUSH2 0x3149 JUMPI RETURNDATASIZE PUSH1 0x0 DUP1 RETURNDATACOPY RETURNDATASIZE PUSH1 0x0 REVERT JUMPDEST POP POP POP POP POP PUSH2 0x316D PUSH20 0x82AF49447D8A07E3BD95BD0D56F35241523FBAB1 DUP5 DUP5 PUSH2 0x31A8 JUMP JUMPDEST PUSH2 0x7F9 JUMP JUMPDEST PUSH1 0x40 MLOAD PUSH1 0x1 PUSH1 0x1 PUSH1 0xA0 SHL SUB DUP5 AND SWAP1 DUP4 ISZERO PUSH2 0x8FC MUL SWAP1 DUP5 SWAP1 PUSH1 0x0 DUP2 DUP2 DUP2 DUP6 DUP9 DUP9 CALL SWAP4 POP POP POP POP ISZERO DUP1 ISZERO PUSH2 0x1FEC JUMPI RETURNDATASIZE PUSH1 0x0 DUP1 RETURNDATACOPY RETURNDATASIZE PUSH1 0x0 REVERT JUMPDEST DUP3 PUSH1 0x1 PUSH1 0x1 PUSH1 0xA0 SHL SUB AND PUSH4 0xA9059CBB DUP4 DUP4 PUSH1 0x40 MLOAD DUP4 PUSH4 0xFFFFFFFF AND PUSH1 0xE0 SHL DUP2 MSTORE PUSH1 0x4 ADD DUP1 DUP4 PUSH1 0x1 PUSH1 0x1 PUSH1 0xA0 SHL SUB AND DUP2 MSTORE PUSH1 0x20 ADD DUP3 DUP2 MSTORE PUSH1 0x20 ADD SWAP3 POP POP POP PUSH1 0x0 PUSH1 0x40 MLOAD DUP1 DUP4 SUB DUP2 PUSH1 0x0 DUP8 DUP1 EXTCODESIZE ISZERO DUP1 ISZERO PUSH2 0x31FF JUMPI PUSH1 0x0 DUP1 REVERT JUMPDEST POP GAS CALL ISZERO DUP1 ISZERO PUSH2 0x3213 JUMPI RETURNDATASIZE PUSH1 0x0 DUP1 RETURNDATACOPY RETURNDATASIZE PUSH1 0x0 REVERT JUMPDEST POP POP POP POP PUSH2 0x7F9 PUSH2 0x3EF0 JUMP JUMPDEST PUSH1 0x0 DUP1 PUSH2 0x322C DUP5 DUP7 PUSH2 0x3F5D JUMP JUMPDEST SWAP1 POP PUSH2 0x3238 DUP4 DUP3 PUSH2 0x2379 JUMP JUMPDEST SWAP2 POP PUSH2 0x3245 DUP8 DUP8 DUP5 PUSH2 0x383B JUMP JUMPDEST PUSH2 0x3250 DUP7 DUP4 DUP4 PUSH2 0x3F8D JUMP JUMPDEST DUP4 MLOAD PUSH2 0x325C SWAP1 DUP7 PUSH2 0x4099 JUMP JUMPDEST POP SWAP6 SWAP5 POP POP POP POP POP JUMP JUMPDEST PUSH1 0x0 DUP1 DUP5 PUSH1 0x1 PUSH1 0x1 PUSH1 0xA0 SHL SUB AND PUSH4 0x70A08231 ADDRESS PUSH1 0x40 MLOAD DUP3 PUSH4 0xFFFFFFFF AND PUSH1 0xE0 SHL DUP2 MSTORE PUSH1 0x4 ADD DUP1 DUP3 PUSH1 0x1 PUSH1 0x1 PUSH1 0xA0 SHL SUB AND DUP2 MSTORE PUSH1 0x20 ADD SWAP2 POP POP PUSH1 0x20 PUSH1 0x40 MLOAD DUP1 DUP4 SUB DUP2 DUP7 DUP1 EXTCODESIZE ISZERO DUP1 ISZERO PUSH2 0x32B6 JUMPI PUSH1 0x0 DUP1 REVERT JUMPDEST POP GAS STATICCALL ISZERO DUP1 ISZERO PUSH2 0x32CA JUMPI RETURNDATASIZE PUSH1 0x0 DUP1 RETURNDATACOPY RETURNDATASIZE PUSH1 0x0 REVERT JUMPDEST POP POP POP POP PUSH1 0x40 MLOAD RETURNDATASIZE PUSH1 0x20 DUP2 LT ISZERO PUSH2 0x32E0 JUMPI PUSH1 0x0 DUP1 REVERT JUMPDEST POP MLOAD PUSH1 0x40 DUP1 MLOAD PUSH4 0x23B872DD PUSH1 0xE0 SHL DUP2 MSTORE PUSH1 0x1 PUSH1 0x1 PUSH1 0xA0 SHL SUB DUP8 DUP2 AND PUSH1 0x4 DUP4 ADD MSTORE ADDRESS PUSH1 0x24 DUP4 ADD MSTORE PUSH1 0x44 DUP3 ADD DUP8 SWAP1 MSTORE SWAP2 MLOAD SWAP3 SWAP4 POP SWAP1 DUP8 AND SWAP2 PUSH4 0x23B872DD SWAP2 PUSH1 0x64 DUP1 DUP3 ADD SWAP3 PUSH1 0x0 SWAP3 SWAP1 SWAP2 SWAP1 DUP3 SWAP1 SUB ADD DUP2 DUP4 DUP8 DUP1 EXTCODESIZE ISZERO DUP1 ISZERO PUSH2 0x333D JUMPI PUSH1 0x0 DUP1 REVERT JUMPDEST POP GAS CALL ISZERO DUP1 ISZERO PUSH2 0x3351 JUMPI RETURNDATASIZE PUSH1 0x0 DUP1 RETURNDATACOPY RETURNDATASIZE PUSH1 0x0 REVERT JUMPDEST POP POP POP POP PUSH2 0x335D PUSH2 0x3EF0 JUMP JUMPDEST PUSH1 0x0 DUP6 PUSH1 0x1 PUSH1 0x1 PUSH1 0xA0 SHL SUB AND PUSH4 0x70A08231 ADDRESS PUSH1 0x40 MLOAD DUP3 PUSH4 0xFFFFFFFF AND PUSH1 0xE0 SHL DUP2 MSTORE PUSH1 0x4 ADD DUP1 DUP3 PUSH1 0x1 PUSH1 0x1 PUSH1 0xA0 SHL SUB AND DUP2 MSTORE PUSH1 0x20 ADD SWAP2 POP POP PUSH1 0x20 PUSH1 0x40 MLOAD DUP1 DUP4 SUB DUP2 DUP7 DUP1 EXTCODESIZE ISZERO DUP1 ISZERO PUSH2 0x33AC JUMPI PUSH1 0x0 DUP1 REVERT JUMPDEST POP GAS STATICCALL ISZERO DUP1 ISZERO PUSH2 0x33C0 JUMPI RETURNDATASIZE PUSH1 0x0 DUP1 RETURNDATACOPY RETURNDATASIZE PUSH1 0x0 REVERT JUMPDEST POP POP POP POP PUSH1 0x40 MLOAD RETURNDATASIZE PUSH1 0x20 DUP2 LT ISZERO PUSH2 0x33D6 JUMPI PUSH1 0x0 DUP1 REVERT JUMPDEST POP MLOAD SWAP1 POP PUSH2 0xC10 DUP2 DUP4 PUSH2 0x378C JUMP JUMPDEST PUSH1 0x0 PUSH2 0x33EE PUSH2 0x1CD7 JUMP JUMPDEST PUSH1 0x1 PUSH1 0x1 PUSH1 0xA0 SHL SUB DUP6 AND PUSH1 0x0 SWAP1 DUP2 MSTORE PUSH1 0x20 SWAP2 DUP3 MSTORE PUSH1 0x40 DUP1 DUP3 KECCAK256 PUSH2 0xFFFF DUP8 AND DUP4 MSTORE SWAP1 SWAP3 MSTORE SWAP1 DUP2 KECCAK256 DUP1 SLOAD SWAP1 SWAP3 POP PUSH2 0x3433 SWAP1 PUSH1 0x1 PUSH1 0x50 SHL SWAP1 DIV PUSH1 0x1 PUSH1 0x1 PUSH1 0x50 SHL SUB AND DUP5 PUSH2 0x2D2D JUMP JUMPDEST SWAP1 POP PUSH2 0x3441 PUSH2 0x131D DUP3 PUSH2 0x1EC0 JUMP JUMPDEST DUP3 SLOAD PUSH1 0x1 PUSH1 0x1 PUSH1 0x50 SHL SUB SWAP2 SWAP1 SWAP2 AND PUSH1 0x1 PUSH1 0x50 SHL MUL PUSH10 0xFFFFFFFFFFFFFFFFFFFF PUSH1 0x50 SHL NOT SWAP1 SWAP2 AND OR DUP3 SSTORE PUSH1 0x40 MLOAD PUSH2 0xFFFF DUP6 AND SWAP1 PUSH1 0x1 PUSH1 0x1 PUSH1 0xA0 SHL SUB DUP8 AND SWAP1 PUSH32 0x20478EF460E49D010960D4F3FFF35D8DAE385443ABFAC09035D6A2CCBCD834C4 SWAP1 PUSH2 0x485 SWAP1 DUP6 SWAP1 PUSH2 0x5E1B JUMP JUMPDEST PUSH2 0x34B3 PUSH2 0x50F1 JUMP JUMPDEST PUSH1 0x0 DUP1 PUSH2 0x34BE PUSH2 0x40EE JUMP JUMPDEST PUSH2 0xFFFF DUP7 AND PUSH1 0x0 SWAP1 DUP2 MSTORE PUSH1 0x20 DUP3 DUP2 MSTORE PUSH1 0x40 DUP1 DUP4 KECCAK256 DUP9 DUP5 MSTORE SWAP1 SWAP2 MSTORE SWAP1 KECCAK256 DUP1 SLOAD PUSH1 0x1 PUSH1 0xF0 SHL SWAP1 DIV PUSH1 0xFF AND SWAP4 POP SWAP1 SWAP2 POP DUP3 ISZERO PUSH2 0x3535 JUMPI DUP1 SLOAD PUSH1 0x1 PUSH1 0x1 PUSH1 0x50 SHL SUB PUSH1 0x1 PUSH1 0xA0 SHL DUP3 DIV DUP2 AND SWAP2 PUSH2 0x3510 SWAP2 AND DUP3 PUSH2 0x1FF2 JUMP JUMPDEST DUP6 MSTORE DUP2 SLOAD PUSH2 0x352E SWAP1 PUSH1 0x1 PUSH1 0x50 SHL SWAP1 DIV PUSH1 0x1 PUSH1 0x1 PUSH1 0x50 SHL SUB AND DUP3 PUSH2 0x1FF2 JUMP JUMPDEST PUSH1 0x20 DUP7 ADD MSTORE POP JUMPDEST POP POP SWAP3 POP SWAP3 SWAP1 POP JUMP JUMPDEST PUSH1 0x0 PUSH2 0x354A DUP6 DUP6 PUSH2 0x3CAE JUMP JUMPDEST SWAP1 POP PUSH1 0x0 DUP4 SLT ISZERO PUSH2 0x355C JUMPI PUSH1 0x1 PUSH1 0x40 SHL OR JUMPDEST PUSH1 0x0 PUSH1 0x1 PUSH1 0x1 PUSH1 0xA0 SHL SUB DUP8 AND CALLER PUSH1 0x0 DUP1 MLOAD PUSH1 0x20 PUSH2 0x5EE8 DUP4 CODECOPY DUP2 MLOAD SWAP2 MSTORE DUP5 PUSH2 0x3582 DUP9 PUSH2 0x24CE JUMP JUMPDEST PUSH1 0x40 MLOAD PUSH2 0x3590 SWAP3 SWAP2 SWAP1 PUSH2 0x5E24 JUMP JUMPDEST PUSH1 0x40 MLOAD DUP1 SWAP2 SUB SWAP1 LOG4 PUSH1 0x0 PUSH2 0x35A7 PUSH1 0x0 DUP5 SLT DUP8 PUSH2 0x40FB JUMP JUMPDEST SWAP1 POP DUP1 PUSH1 0x1 PUSH1 0x1 PUSH1 0xA0 SHL SUB AND PUSH4 0x23DE6651 PUSH2 0x5E7 DUP10 PUSH2 0x35C5 DUP8 PUSH2 0x24CE JUMP JUMPDEST PUSH1 0x40 MLOAD DUP5 PUSH4 0xFFFFFFFF AND PUSH1 0xE0 SHL DUP2 MSTORE PUSH1 0x4 ADD PUSH2 0x35E3 SWAP4 SWAP3 SWAP2 SWAP1 PUSH2 0x5B19 JUMP JUMPDEST PUSH1 0x0 PUSH1 0x40 MLOAD DUP1 DUP4 SUB DUP2 PUSH1 0x0 DUP8 DUP1 EXTCODESIZE ISZERO DUP1 ISZERO PUSH2 0x35FD JUMPI PUSH1 0x0 DUP1 REVERT JUMPDEST POP GAS CALL ISZERO DUP1 ISZERO PUSH2 0x2E10 JUMPI RETURNDATASIZE PUSH1 0x0 DUP1 RETURNDATACOPY RETURNDATASIZE PUSH1 0x0 REVERT JUMPDEST DUP1 ISZERO PUSH2 0x1FEC JUMPI DUP4 MLOAD PUSH1 0x20 DUP6 ADD MLOAD PUSH1 0x0 SWAP2 PUSH2 0x3630 SWAP2 PUSH2 0x2153 SWAP1 DUP6 SWAP1 PUSH2 0x1697 JUMP JUMPDEST SWAP1 POP PUSH2 0xCDB DUP5 DUP5 DUP5 DUP5 PUSH2 0x415B JUMP JUMPDEST PUSH1 0x0 DUP1 PUSH2 0x907 PUSH1 0x1D PUSH2 0x20EF JUMP JUMPDEST PUSH1 0x0 DUP1 PUSH2 0x3656 PUSH2 0x4298 JUMP JUMPDEST PUSH2 0xFFFF SWAP4 SWAP1 SWAP4 AND PUSH1 0x0 SWAP1 DUP2 MSTORE PUSH1 0x20 SWAP4 SWAP1 SWAP4 MSTORE POP POP PUSH1 0x40 SWAP1 KECCAK256 SLOAD PUSH1 0x1 PUSH1 0x1 PUSH1 0xA0 SHL SUB AND SWAP1 JUMP JUMPDEST PUSH1 0x0 DUP1 PUSH1 0x0 DUP1 PUSH1 0x0 DUP1 PUSH2 0x368E DUP10 DUP9 PUSH2 0x42A5 JUMP JUMPDEST DUP10 MLOAD SWAP1 SWAP6 POP SWAP2 SWAP4 POP SWAP2 POP PUSH1 0x0 SWAP1 PUSH2 0x36B5 SWAP1 PUSH2 0x36AA SWAP1 DUP12 SWAP1 PUSH2 0x378C JUMP JUMPDEST PUSH4 0x3B9ACA00 SWAP1 PUSH2 0x1FF2 JUMP JUMPDEST SWAP1 POP PUSH2 0x36EF PUSH2 0x36E4 PUSH4 0x1DA9C00 PUSH2 0x36CC DUP6 DUP6 PUSH2 0x1FF2 JUMP JUMPDEST DUP2 PUSH2 0x36D3 JUMPI INVALID JUMPDEST PUSH8 0xDE0B6B3A7640000 SWAP2 SWAP1 DIV PUSH2 0x2EC5 JUMP JUMPDEST PUSH1 0xE0 DUP11 ADD MLOAD SWAP1 PUSH2 0x37BE JUMP JUMPDEST SWAP7 POP PUSH2 0x3711 PUSH2 0x3706 PUSH4 0x1DA9C00 PUSH2 0x36CC DUP8 DUP6 PUSH2 0x1FF2 JUMP JUMPDEST PUSH1 0xC0 DUP11 ADD MLOAD SWAP1 PUSH2 0x37BE JUMP JUMPDEST SWAP6 POP DUP2 DUP4 EQ ISZERO PUSH2 0x3728 JUMPI POP PUSH1 0x0 SWAP4 POP PUSH2 0x3783 SWAP2 POP POP JUMP JUMPDEST PUSH1 0x0 PUSH2 0x374A PUSH2 0x373F PUSH4 0x1DA9C00 PUSH2 0x36CC DUP8 DUP7 PUSH2 0x1FF2 JUMP JUMPDEST PUSH1 0xE0 DUP12 ADD MLOAD SWAP1 PUSH2 0x37BE JUMP JUMPDEST SWAP1 POP PUSH1 0x0 PUSH2 0x3758 DUP10 DUP4 PUSH2 0x378C JUMP JUMPDEST SWAP1 POP PUSH2 0x377B DUP9 PUSH2 0x3775 DUP4 DUP14 PUSH1 0x40 ADD MLOAD PUSH2 0x1FF2 SWAP1 SWAP2 SWAP1 PUSH4 0xFFFFFFFF AND JUMP JUMPDEST SWAP1 PUSH2 0x4340 JUMP JUMPDEST SWAP7 POP POP POP POP POP POP JUMPDEST SWAP4 POP SWAP4 POP SWAP4 POP SWAP4 JUMP JUMPDEST PUSH1 0x0 DUP3 DUP3 GT ISZERO PUSH2 0x379B JUMPI PUSH1 0x0 DUP1 REVERT JUMPDEST POP SWAP1 SUB SWAP1 JUMP JUMPDEST PUSH1 0x0 PUSH2 0x2019 PUSH2 0x37B8 DUP5 PUSH8 0xDE0B6B3A7640000 PUSH2 0x1FF2 JUMP JUMPDEST DUP4 PUSH2 0x4340 JUMP JUMPDEST PUSH1 0x0 PUSH2 0x2019 PUSH2 0x37CD DUP5 DUP5 PUSH2 0x1FF2 JUMP JUMPDEST PUSH8 0xDE0B6B3A7640000 PUSH2 0x4340 JUMP JUMPDEST PUSH1 0x0 PUSH1 0x1 PUSH1 0x1 PUSH1 0x58 SHL SUB DUP3 GT ISZERO PUSH2 0xD57 JUMPI PUSH1 0x0 DUP1 REVERT JUMPDEST PUSH1 0x0 PUSH4 0xFFFFFFFF DUP3 GT ISZERO PUSH2 0xD57 JUMPI PUSH1 0x0 DUP1 REVERT JUMPDEST PUSH1 0x0 DUP2 SLT ISZERO PUSH2 0x3812 JUMPI PUSH1 0x0 DUP1 REVERT JUMPDEST PUSH1 0x0 PUSH2 0x3820 PUSH2 0xFEE DUP5 PUSH2 0x435F JUMP JUMPDEST SWAP1 POP PUSH2 0x382C DUP2 DUP4 PUSH2 0x1AD8 JUMP JUMPDEST SWAP1 POP PUSH2 0x7F9 PUSH2 0xFEE DUP5 DUP4 PUSH2 0x43B8 JUMP JUMPDEST PUSH1 0x0 PUSH2 0x3845 PUSH2 0x24EF JUMP JUMPDEST PUSH2 0xFFFF DUP5 AND PUSH1 0x0 SWAP1 DUP2 MSTORE PUSH1 0x20 SWAP2 SWAP1 SWAP2 MSTORE PUSH1 0x40 SWAP1 DUP2 SWAP1 KECCAK256 SLOAD SWAP1 MLOAD PUSH4 0xAD1C095D PUSH1 0xE0 SHL DUP2 MSTORE PUSH1 0x1 PUSH1 0x1 PUSH1 0xA0 SHL SUB SWAP1 SWAP2 AND SWAP2 POP DUP2 SWAP1 PUSH4 0xAD1C095D SWAP1 PUSH2 0x388D SWAP1 DUP8 SWAP1 DUP7 SWAP1 PUSH1 0x4 ADD PUSH2 0x5B3D JUMP JUMPDEST PUSH1 0x0 PUSH1 0x40 MLOAD DUP1 DUP4 SUB DUP2 PUSH1 0x0 DUP8 DUP1 EXTCODESIZE ISZERO DUP1 ISZERO PUSH2 0x38A7 JUMPI PUSH1 0x0 DUP1 REVERT JUMPDEST POP GAS CALL ISZERO DUP1 ISZERO PUSH2 0x1442 JUMPI RETURNDATASIZE PUSH1 0x0 DUP1 RETURNDATACOPY RETURNDATASIZE PUSH1 0x0 REVERT JUMPDEST PUSH1 0x0 DUP2 DUP4 EQ DUP1 PUSH2 0x38D8 JUMPI POP PUSH1 0x0 DUP4 SLT ISZERO DUP1 ISZERO PUSH2 0x38D8 JUMPI POP PUSH1 0x0 DUP3 SLT ISZERO JUMPDEST ISZERO PUSH2 0x38E5 JUMPI POP PUSH1 0x0 PUSH2 0x907 JUMP JUMPDEST PUSH1 0x0 DUP4 SGT ISZERO DUP1 ISZERO PUSH2 0x38F6 JUMPI POP DUP2 PUSH1 0x0 SLT JUMPDEST ISZERO PUSH2 0x3902 JUMPI POP DUP2 PUSH2 0x907 JUMP JUMPDEST PUSH1 0x0 DUP3 SGT ISZERO DUP1 ISZERO PUSH2 0x3913 JUMPI POP DUP3 PUSH1 0x0 SLT JUMPDEST ISZERO PUSH2 0x3921 JUMPI PUSH2 0x25F7 DUP3 PUSH2 0xA30 JUMP JUMPDEST PUSH1 0x0 DUP4 SGT ISZERO DUP1 ISZERO PUSH2 0x3933 JUMPI POP PUSH1 0x0 DUP3 SGT ISZERO JUMPDEST ISZERO PUSH2 0xA7 JUMPI PUSH2 0x25F7 DUP4 DUP4 PUSH2 0x2D2D JUMP JUMPDEST PUSH1 0x0 PUSH2 0x394E DUP4 DUP4 PUSH2 0x38BB JUMP JUMPDEST SWAP1 POP DUP1 PUSH2 0x395B JUMPI POP PUSH2 0xCDB JUMP JUMPDEST PUSH1 0x0 PUSH2 0x3965 PUSH2 0x2EB8 JUMP JUMPDEST PUSH2 0xFFFF DUP8 AND PUSH1 0x0 SWAP1 DUP2 MSTORE PUSH1 0x20 DUP3 DUP2 MSTORE PUSH1 0x40 DUP1 DUP4 KECCAK256 DUP10 DUP5 MSTORE SWAP1 SWAP2 MSTORE DUP2 KECCAK256 SLOAD SWAP2 SWAP3 POP PUSH1 0x1 PUSH1 0x1 PUSH1 0x50 SHL SUB SWAP1 SWAP2 AND DUP2 SUB SWAP1 PUSH2 0x399D DUP3 DUP6 PUSH2 0x2D2D JUMP JUMPDEST SWAP1 POP PUSH1 0x0 DUP2 SGT ISZERO PUSH2 0x39AD JUMPI PUSH1 0x0 DUP1 REVERT JUMPDEST PUSH2 0x39BC PUSH2 0x131D PUSH2 0x1318 DUP4 PUSH2 0xA30 JUMP JUMPDEST PUSH2 0xFFFF DUP10 AND PUSH1 0x0 SWAP1 DUP2 MSTORE PUSH1 0x20 DUP6 DUP2 MSTORE PUSH1 0x40 DUP1 DUP4 KECCAK256 DUP12 DUP5 MSTORE SWAP1 SWAP2 MSTORE SWAP1 KECCAK256 DUP1 SLOAD PUSH1 0x1 PUSH1 0x1 PUSH1 0x50 SHL SUB NOT AND PUSH1 0x1 PUSH1 0x1 PUSH1 0x50 SHL SUB SWAP3 SWAP1 SWAP3 AND SWAP2 SWAP1 SWAP2 OR SWAP1 SSTORE PUSH2 0x1B89 DUP10 DUP10 DUP10 DUP8 PUSH2 0x2ED7 JUMP JUMPDEST PUSH1 0x0 DUP1 DUP5 PUSH1 0x40 ADD MLOAD PUSH2 0xFFFF AND DUP4 PUSH2 0xFFFF AND EQ ISZERO PUSH2 0x3A4E JUMPI PUSH2 0x3A21 PUSH2 0x442C JUMP JUMPDEST DUP6 MLOAD PUSH1 0x1 PUSH1 0x1 PUSH1 0xA0 SHL SUB AND PUSH1 0x0 SWAP1 DUP2 MSTORE PUSH1 0x20 SWAP2 DUP3 MSTORE PUSH1 0x40 DUP1 DUP3 KECCAK256 PUSH5 0xFFFFFFFFFF DUP4 MSTORE SWAP1 SWAP3 MSTORE KECCAK256 SWAP1 POP PUSH2 0x3A8B JUMP JUMPDEST PUSH2 0x3A56 PUSH2 0x26D7 JUMP JUMPDEST DUP6 MLOAD PUSH1 0x1 PUSH1 0x1 PUSH1 0xA0 SHL SUB AND PUSH1 0x0 SWAP1 DUP2 MSTORE PUSH1 0x20 SWAP2 DUP3 MSTORE PUSH1 0x40 DUP1 DUP3 KECCAK256 PUSH5 0xFFFFFFFFFF DUP4 MSTORE DUP4 MSTORE DUP1 DUP3 KECCAK256 PUSH2 0xFFFF DUP8 AND DUP4 MSTORE SWAP1 SWAP3 MSTORE KECCAK256 SWAP1 POP JUMPDEST DUP1 SLOAD PUSH2 0x1BBE SWAP1 DUP6 SWAP1 PUSH5 0xFFFFFFFFFF SWAP1 PUSH1 0x1 PUSH1 0x1 PUSH1 0x50 SHL SUB AND PUSH2 0x1659 JUMP JUMPDEST PUSH1 0x0 PUSH2 0x3AB2 PUSH2 0x1CD7 JUMP JUMPDEST PUSH1 0x1 PUSH1 0x1 PUSH1 0xA0 SHL SUB DUP6 AND PUSH1 0x0 SWAP1 DUP2 MSTORE PUSH1 0x20 SWAP2 DUP3 MSTORE PUSH1 0x40 DUP1 DUP3 KECCAK256 PUSH2 0xFFFF DUP8 AND DUP4 MSTORE SWAP1 SWAP3 MSTORE SWAP1 DUP2 KECCAK256 DUP1 SLOAD SWAP1 SWAP3 POP PUSH2 0x3AF7 SWAP1 PUSH1 0x1 PUSH1 0x50 SHL SWAP1 DIV PUSH1 0x1 PUSH1 0x1 PUSH1 0x50 SHL SUB AND DUP5 PUSH2 0x2D2D JUMP JUMPDEST DUP3 SLOAD SWAP1 SWAP2 POP PUSH1 0x1 PUSH1 0x1 PUSH1 0x50 SHL SUB AND DUP2 SGT ISZERO PUSH2 0xCDB JUMPI PUSH1 0x40 MLOAD PUSH3 0x461BCD PUSH1 0xE5 SHL DUP2 MSTORE PUSH1 0x4 ADD PUSH2 0x312 SWAP1 PUSH2 0x5C7A JUMP JUMPDEST PUSH1 0x0 DUP1 PUSH2 0x3B30 DUP4 PUSH2 0x4439 JUMP JUMPDEST PUSH1 0xFF AND SWAP4 SWAP3 POP POP POP JUMP JUMPDEST PUSH1 0x0 DUP1 PUSH1 0x0 DUP6 GT PUSH2 0x3B4A JUMPI PUSH1 0x0 DUP1 REVERT JUMPDEST PUSH1 0x7 DUP6 GT ISZERO PUSH2 0x3B58 JUMPI PUSH1 0x0 DUP1 REVERT JUMPDEST PUSH1 0x0 PUSH2 0x3B63 DUP5 PUSH2 0x4456 JUMP JUMPDEST SWAP1 POP PUSH1 0x1 JUMPDEST DUP7 DUP2 GT PUSH2 0x3BBB JUMPI PUSH1 0x0 PUSH2 0x3B84 PUSH2 0x3B7D DUP4 PUSH2 0x4474 JUMP JUMPDEST DUP5 SWAP1 PUSH2 0x2EC5 JUMP JUMPDEST SWAP1 POP DUP7 DUP2 EQ ISZERO PUSH2 0x3B9C JUMPI POP SWAP3 POP PUSH1 0x0 SWAP2 POP PUSH2 0x3BC1 SWAP1 POP JUMP JUMPDEST DUP7 DUP2 GT ISZERO PUSH2 0x3BB2 JUMPI POP SWAP3 POP PUSH1 0x1 SWAP2 POP PUSH2 0x3BC1 SWAP1 POP JUMP JUMPDEST POP PUSH1 0x1 ADD PUSH2 0x3B68 JUMP JUMPDEST POP PUSH1 0x0 DUP1 REVERT JUMPDEST SWAP4 POP SWAP4 SWAP2 POP POP JUMP JUMPDEST PUSH1 0x40 DUP1 MLOAD PUSH1 0x2 DUP1 DUP3 MSTORE PUSH1 0x60 DUP3 DUP2 ADD SWAP1 SWAP4 MSTORE DUP3 SWAP2 PUSH1 0x0 SWAP2 DUP2 PUSH1 0x20 ADD PUSH1 0x20 DUP3 MUL DUP1 CALLDATASIZE DUP4 CALLDATACOPY ADD SWAP1 POP POP SWAP1 POP PUSH1 0x0 PUSH2 0x3BFD DUP8 DUP8 PUSH2 0x3CAE JUMP JUMPDEST SWAP1 POP DUP1 DUP3 PUSH1 0x0 DUP2 MLOAD DUP2 LT PUSH2 0x3C0D JUMPI INVALID JUMPDEST PUSH1 0x20 MUL PUSH1 0x20 ADD ADD DUP2 DUP2 MSTORE POP POP PUSH1 0x1 PUSH1 0x40 SHL DUP2 OR DUP3 PUSH1 0x1 DUP2 MLOAD DUP2 LT PUSH2 0x3C2D JUMPI INVALID JUMPDEST PUSH1 0x20 SWAP1 DUP2 MUL SWAP2 SWAP1 SWAP2 ADD ADD MSTORE PUSH1 0x40 DUP1 MLOAD PUSH1 0x2 DUP1 DUP3 MSTORE PUSH1 0x60 DUP3 ADD SWAP1 SWAP3 MSTORE PUSH1 0x0 SWAP2 DUP2 PUSH1 0x20 ADD PUSH1 0x20 DUP3 MUL DUP1 CALLDATASIZE DUP4 CALLDATACOPY ADD SWAP1 POP POP SWAP1 POP PUSH2 0x3C66 DUP7 PUSH2 0x24CE JUMP JUMPDEST DUP2 PUSH1 0x0 DUP2 MLOAD DUP2 LT PUSH2 0x3C73 JUMPI INVALID JUMPDEST PUSH1 0x20 MUL PUSH1 0x20 ADD ADD DUP2 DUP2 MSTORE POP POP PUSH2 0x3C88 DUP7 PUSH2 0x24CE JUMP JUMPDEST DUP2 PUSH1 0x1 DUP2 MLOAD DUP2 LT PUSH2 0x3C95 JUMPI INVALID JUMPDEST PUSH1 0x20 SWAP1 DUP2 MUL SWAP2 SWAP1 SWAP2 ADD ADD MSTORE SWAP2 SWAP8 SWAP2 SWAP7 POP SWAP1 SWAP5 POP POP POP POP POP JUMP JUMPDEST PUSH8 0xFFFF000000000000 PUSH1 0x30 DUP4 SWAP1 SHL AND PUSH1 0x8 DUP3 SWAP1 SHL OR PUSH1 0x1 OR SWAP3 SWAP2 POP POP JUMP JUMPDEST PUSH1 0x0 DUP1 PUSH2 0x907 PUSH1 0x26 PUSH2 0x20EF JUMP JUMPDEST PUSH1 0x0 DUP1 PUSH1 0x0 JUMPDEST DUP4 MLOAD DUP2 LT ISZERO PUSH2 0x3EE8 JUMPI PUSH1 0x0 DUP5 DUP3 DUP2 MLOAD DUP2 LT PUSH2 0x3CF6 JUMPI INVALID JUMPDEST PUSH1 0x20 MUL PUSH1 0x20 ADD ADD MLOAD SWAP1 POP PUSH1 0x0 DUP2 PUSH1 0x60 ADD MLOAD PUSH1 0x1 PUSH1 0x1 PUSH1 0xA0 SHL SUB AND PUSH4 0x70A08231 ADDRESS PUSH1 0x40 MLOAD DUP3 PUSH4 0xFFFFFFFF AND PUSH1 0xE0 SHL DUP2 MSTORE PUSH1 0x4 ADD PUSH2 0x3D32 SWAP2 SWAP1 PUSH2 0x5B05 JUMP JUMPDEST PUSH1 0x20 PUSH1 0x40 MLOAD DUP1 DUP4 SUB DUP2 DUP7 DUP1 EXTCODESIZE ISZERO DUP1 ISZERO PUSH2 0x3D4A JUMPI PUSH1 0x0 DUP1 REVERT JUMPDEST POP GAS STATICCALL ISZERO DUP1 ISZERO PUSH2 0x3D5E JUMPI RETURNDATASIZE PUSH1 0x0 DUP1 RETURNDATACOPY RETURNDATASIZE PUSH1 0x0 REVERT JUMPDEST POP POP POP POP PUSH1 0x40 MLOAD RETURNDATASIZE PUSH1 0x1F NOT PUSH1 0x1F DUP3 ADD AND DUP3 ADD DUP1 PUSH1 0x40 MSTORE POP DUP2 ADD SWAP1 PUSH2 0x3D82 SWAP2 SWAP1 PUSH2 0x5917 JUMP JUMPDEST SWAP1 POP PUSH1 0x0 PUSH2 0x3D90 DUP9 ADDRESS PUSH2 0x4518 JUMP JUMPDEST SWAP1 POP PUSH1 0x0 JUMPDEST DUP4 MLOAD MLOAD DUP2 LT ISZERO PUSH2 0x3DEC JUMPI PUSH2 0x3DDB DUP5 PUSH1 0x0 ADD MLOAD DUP3 DUP2 MLOAD DUP2 LT PUSH2 0x3DB2 JUMPI INVALID JUMPDEST PUSH1 0x20 MUL PUSH1 0x20 ADD ADD MLOAD PUSH1 0x0 DUP7 PUSH1 0x20 ADD MLOAD DUP5 DUP2 MLOAD DUP2 LT PUSH2 0x3DCC JUMPI INVALID JUMPDEST PUSH1 0x20 MUL PUSH1 0x20 ADD ADD MLOAD PUSH1 0x1 PUSH2 0x45C2 JUMP JUMPDEST PUSH2 0x3DE4 JUMPI PUSH1 0x1 SWAP7 POP JUMPDEST PUSH1 0x1 ADD PUSH2 0x3D95 JUMP JUMPDEST POP PUSH1 0x0 PUSH2 0x3DF9 DUP10 ADDRESS PUSH2 0x4518 JUMP JUMPDEST SWAP1 POP PUSH1 0x0 PUSH2 0x3E07 DUP3 DUP5 PUSH2 0x378C JUMP JUMPDEST SWAP1 POP DUP1 DUP6 PUSH1 0x40 ADD MLOAD GT ISZERO PUSH2 0x3E1A JUMPI PUSH1 0x0 DUP1 REVERT JUMPDEST PUSH1 0x60 DUP6 ADD MLOAD PUSH1 0x40 MLOAD PUSH4 0x70A08231 PUSH1 0xE0 SHL DUP2 MSTORE PUSH1 0x0 SWAP2 PUSH1 0x1 PUSH1 0x1 PUSH1 0xA0 SHL SUB AND SWAP1 PUSH4 0x70A08231 SWAP1 PUSH2 0x3E4D SWAP1 ADDRESS SWAP1 PUSH1 0x4 ADD PUSH2 0x5B05 JUMP JUMPDEST PUSH1 0x20 PUSH1 0x40 MLOAD DUP1 DUP4 SUB DUP2 DUP7 DUP1 EXTCODESIZE ISZERO DUP1 ISZERO PUSH2 0x3E65 JUMPI PUSH1 0x0 DUP1 REVERT JUMPDEST POP GAS STATICCALL ISZERO DUP1 ISZERO PUSH2 0x3E79 JUMPI RETURNDATASIZE PUSH1 0x0 DUP1 RETURNDATACOPY RETURNDATASIZE PUSH1 0x0 REVERT JUMPDEST POP POP POP POP PUSH1 0x40 MLOAD RETURNDATASIZE PUSH1 0x1F NOT PUSH1 0x1F DUP3 ADD AND DUP3 ADD DUP1 PUSH1 0x40 MSTORE POP DUP2 ADD SWAP1 PUSH2 0x3E9D SWAP2 SWAP1 PUSH2 0x5917 JUMP JUMPDEST SWAP1 POP DUP5 DUP2 GT ISZERO PUSH2 0x3EAC JUMPI PUSH1 0x0 DUP1 REVERT JUMPDEST PUSH2 0x3EBB DUP7 PUSH1 0x60 ADD MLOAD DUP7 DUP4 PUSH2 0x4830 JUMP JUMPDEST PUSH2 0x3EC5 DUP9 DUP4 PUSH2 0x2EC5 JUMP JUMPDEST SWAP8 POP PUSH2 0x3ED6 DUP12 PUSH1 0x0 ADD MLOAD DUP6 DUP6 PUSH2 0x4830 JUMP JUMPDEST POP POP PUSH1 0x1 SWAP1 SWAP5 ADD SWAP4 POP PUSH2 0x3CDF SWAP3 POP POP POP JUMP JUMPDEST POP SWAP3 POP SWAP3 SWAP1 POP JUMP JUMPDEST PUSH1 0x0 PUSH2 0x3EFA PUSH2 0x515E JUMP JUMPDEST RETURNDATASIZE DUP1 ISZERO PUSH2 0x3F0E JUMPI PUSH1 0x20 DUP2 EQ PUSH2 0x3F17 JUMPI PUSH1 0x0 DUP1 REVERT JUMPDEST PUSH1 0x1 SWAP3 POP PUSH2 0x3F22 JUMP JUMPDEST PUSH1 0x20 PUSH1 0x0 DUP4 RETURNDATACOPY DUP2 MLOAD SWAP3 POP JUMPDEST POP DUP2 PUSH2 0x1449 JUMPI PUSH1 0x40 DUP1 MLOAD PUSH3 0x461BCD PUSH1 0xE5 SHL DUP2 MSTORE PUSH1 0x20 PUSH1 0x4 DUP3 ADD MSTORE PUSH1 0x5 PUSH1 0x24 DUP3 ADD MSTORE PUSH5 0x455243323 PUSH1 0xDC SHL PUSH1 0x44 DUP3 ADD MSTORE SWAP1 MLOAD SWAP1 DUP2 SWAP1 SUB PUSH1 0x64 ADD SWAP1 REVERT JUMPDEST PUSH1 0x0 PUSH4 0x5F5E100 DUP4 PUSH1 0x40 ADD MLOAD EQ ISZERO PUSH2 0x3F76 JUMPI POP DUP1 PUSH2 0x907 JUMP JUMPDEST PUSH1 0x40 DUP4 ADD MLOAD PUSH2 0x2019 SWAP1 PUSH2 0x2153 DUP5 PUSH4 0x5F5E100 PUSH2 0x1697 JUMP JUMPDEST PUSH1 0x0 PUSH2 0x3F97 PUSH2 0x363E JUMP JUMPDEST PUSH2 0xFFFF DUP6 AND PUSH1 0x0 SWAP1 DUP2 MSTORE PUSH1 0x20 SWAP2 SWAP1 SWAP2 MSTORE PUSH1 0x40 SWAP1 KECCAK256 DUP1 SLOAD SWAP1 SWAP2 POP PUSH5 0xFFFFFFFFFF AND TIMESTAMP EQ PUSH2 0x3FC2 JUMPI PUSH1 0x0 DUP1 REVERT JUMPDEST DUP1 SLOAD PUSH1 0x0 SWAP1 PUSH2 0x3FE1 SWAP1 PUSH1 0x1 PUSH1 0x28 SHL SWAP1 DIV PUSH1 0x1 PUSH1 0x1 PUSH1 0x58 SHL SUB AND DUP6 PUSH2 0x1AD8 JUMP JUMPDEST DUP3 SLOAD SWAP1 SWAP2 POP PUSH1 0x0 SWAP1 PUSH2 0x4003 SWAP1 PUSH1 0x1 PUSH1 0x80 SHL SWAP1 DIV PUSH1 0x1 PUSH1 0x1 PUSH1 0x58 SHL SUB AND DUP6 PUSH2 0x1AD8 JUMP JUMPDEST SWAP1 POP DUP1 PUSH3 0x4C4B40 SGT ISZERO PUSH2 0x4015 JUMPI PUSH1 0x0 DUP1 REVERT JUMPDEST PUSH2 0x4026 PUSH2 0x4021 DUP3 PUSH2 0x1EC0 JUMP JUMPDEST PUSH2 0x37DB JUMP JUMPDEST DUP4 SLOAD PUSH1 0x1 PUSH1 0x1 PUSH1 0x58 SHL SUB SWAP2 SWAP1 SWAP2 AND PUSH1 0x1 PUSH1 0x80 SHL MUL PUSH11 0xFFFFFFFFFFFFFFFFFFFFFF PUSH1 0x80 SHL NOT SWAP1 SWAP2 AND OR DUP4 SSTORE PUSH2 0x405C PUSH2 0x4021 DUP4 PUSH2 0x1EC0 JUMP JUMPDEST DUP4 SLOAD PUSH1 0x1 PUSH1 0x1 PUSH1 0x58 SHL SUB SWAP2 SWAP1 SWAP2 AND PUSH1 0x1 PUSH1 0x28 SHL MUL PUSH16 0xFFFFFFFFFFFFFFFFFFFFFF0000000000 NOT SWAP1 SWAP2 AND OR DUP4 SSTORE PUSH2 0x4091 DUP4 PUSH2 0x48AD JUMP JUMPDEST POP POP POP POP POP POP JUMP JUMPDEST PUSH1 0x0 PUSH2 0x40A3 PUSH2 0x3CCC JUMP JUMPDEST PUSH1 0x1 PUSH1 0x1 PUSH1 0xA0 SHL SUB DUP5 AND PUSH1 0x0 SWAP1 DUP2 MSTORE PUSH1 0x20 DUP3 SWAP1 MSTORE PUSH1 0x40 SWAP1 KECCAK256 SLOAD SWAP1 SWAP2 POP PUSH2 0x40CC PUSH2 0x1318 DUP3 DUP6 PUSH2 0x1AD8 JUMP JUMPDEST PUSH1 0x1 PUSH1 0x1 PUSH1 0xA0 SHL SUB SWAP1 SWAP5 AND PUSH1 0x0 SWAP1 DUP2 MSTORE PUSH1 0x20 SWAP3 SWAP1 SWAP3 MSTORE POP PUSH1 0x40 SWAP1 KECCAK256 SWAP2 SWAP1 SWAP2 SSTORE POP JUMP JUMPDEST PUSH1 0x0 DUP1 PUSH2 0x907 PUSH1 0x1E PUSH2 0x20EF JUMP JUMPDEST PUSH1 0x0 DUP3 PUSH2 0x412D JUMPI PUSH2 0x410A PUSH2 0x24EF JUMP JUMPDEST PUSH2 0xFFFF DUP4 AND PUSH1 0x0 SWAP1 DUP2 MSTORE PUSH1 0x20 SWAP2 SWAP1 SWAP2 MSTORE PUSH1 0x40 SWAP1 KECCAK256 SLOAD PUSH1 0x1 PUSH1 0x1 PUSH1 0xA0 SHL SUB AND PUSH2 0x2019 JUMP JUMPDEST PUSH2 0x4135 PUSH2 0x4978 JUMP JUMPDEST PUSH2 0xFFFF DUP4 AND PUSH1 0x0 SWAP1 DUP2 MSTORE PUSH1 0x20 SWAP2 SWAP1 SWAP2 MSTORE PUSH1 0x40 SWAP1 KECCAK256 SLOAD PUSH1 0x1 PUSH1 0x1 PUSH1 0xA0 SHL SUB AND SWAP1 POP SWAP3 SWAP2 POP POP JUMP JUMPDEST PUSH1 0x0 PUSH2 0x4165 PUSH2 0x363E JUMP JUMPDEST PUSH2 0xFFFF DUP6 AND PUSH1 0x0 SWAP1 DUP2 MSTORE PUSH1 0x20 SWAP2 SWAP1 SWAP2 MSTORE PUSH1 0x40 SWAP1 KECCAK256 DUP1 SLOAD SWAP1 SWAP2 POP PUSH5 0xFFFFFFFFFF AND TIMESTAMP EQ PUSH2 0x4190 JUMPI PUSH1 0x0 DUP1 REVERT JUMPDEST DUP1 SLOAD PUSH1 0x1 PUSH1 0xF8 SHL SWAP1 DIV PUSH1 0xFF AND PUSH2 0x41A5 JUMPI PUSH1 0x0 DUP1 REVERT JUMPDEST PUSH1 0x1 DUP2 ADD SLOAD PUSH1 0x0 SWAP1 PUSH2 0x41C0 SWAP1 PUSH1 0x1 PUSH1 0x1 PUSH1 0x58 SHL SUB AND DUP6 PUSH2 0x1AD8 JUMP JUMPDEST DUP3 SLOAD SWAP1 SWAP2 POP PUSH1 0x0 SWAP1 PUSH2 0x41E2 SWAP1 PUSH1 0x1 PUSH1 0x28 SHL SWAP1 DIV PUSH1 0x1 PUSH1 0x1 PUSH1 0x58 SHL SUB AND DUP6 PUSH2 0x1AD8 JUMP JUMPDEST SWAP1 POP DUP2 PUSH1 0x9 NOT SLT DUP1 ISZERO PUSH2 0x41F5 JUMPI POP PUSH1 0x0 DUP3 SLT JUMPDEST ISZERO PUSH2 0x41FF JUMPI PUSH1 0x0 SWAP2 POP JUMPDEST DUP1 PUSH1 0x9 NOT SLT DUP1 ISZERO PUSH2 0x4210 JUMPI POP PUSH1 0x0 DUP2 SLT JUMPDEST ISZERO PUSH2 0x4219 JUMPI POP PUSH1 0x0 JUMPDEST PUSH2 0x4225 PUSH2 0x4021 DUP4 PUSH2 0x1EC0 JUMP JUMPDEST PUSH1 0x1 DUP5 ADD DUP1 SLOAD PUSH11 0xFFFFFFFFFFFFFFFFFFFFFF NOT AND PUSH1 0x1 PUSH1 0x1 PUSH1 0x58 SHL SUB SWAP3 SWAP1 SWAP3 AND SWAP2 SWAP1 SWAP2 OR SWAP1 SSTORE PUSH2 0x4257 PUSH2 0x4021 DUP3 PUSH2 0x1EC0 JUMP JUMPDEST DUP4 SLOAD PUSH1 0x1 PUSH1 0x1 PUSH1 0x58 SHL SUB SWAP2 SWAP1 SWAP2 AND PUSH1 0x1 PUSH1 0x28 SHL MUL PUSH16 0xFFFFFFFFFFFFFFFFFFFFFF0000000000 NOT SWAP1 SWAP2 AND OR DUP4 SSTORE PUSH2 0x428F DUP8 DUP8 DUP7 DUP9 PUSH2 0x4985 JUMP JUMPDEST PUSH2 0x2482 DUP4 PUSH2 0x48AD JUMP JUMPDEST PUSH1 0x0 DUP1 PUSH2 0x907 PUSH1 0x1F PUSH2 0x20EF JUMP JUMPDEST PUSH1 0x0 DUP1 PUSH1 0x0 DUP1 PUSH1 0x0 DUP6 PUSH1 0x20 ADD MLOAD GT ISZERO PUSH2 0x42F2 JUMPI PUSH2 0x42EF PUSH2 0x42D6 DUP7 PUSH1 0xC0 ADD MLOAD DUP8 PUSH1 0x20 ADD MLOAD PUSH2 0x1FF2 SWAP1 SWAP2 SWAP1 PUSH4 0xFFFFFFFF AND JUMP JUMPDEST PUSH1 0xE0 DUP8 ADD MLOAD PUSH1 0x40 DUP9 ADD MLOAD PUSH2 0x42E9 SWAP2 PUSH2 0x1FF2 JUMP JUMPDEST SWAP1 PUSH2 0x4A8D JUMP JUMPDEST SWAP1 POP JUMPDEST PUSH1 0x0 PUSH2 0x42FD DUP8 PUSH2 0x4AA0 JUMP JUMPDEST SWAP1 POP PUSH2 0x4309 DUP2 DUP4 PUSH2 0x4AD3 JUMP JUMPDEST SWAP5 POP DUP2 ISZERO PUSH2 0x4320 JUMPI PUSH2 0x431D DUP2 DUP7 PUSH1 0x1 PUSH2 0x4B86 JUMP JUMPDEST SWAP4 POP JUMPDEST PUSH1 0x20 DUP7 ADD MLOAD ISZERO PUSH2 0x4337 JUMPI PUSH2 0x4334 DUP6 DUP4 PUSH2 0x4C00 JUMP JUMPDEST SWAP3 POP JUMPDEST POP POP SWAP3 POP SWAP3 POP SWAP3 JUMP JUMPDEST PUSH1 0x0 DUP1 DUP3 GT PUSH2 0x434E JUMPI PUSH1 0x0 DUP1 REVERT JUMPDEST DUP2 DUP4 DUP2 PUSH2 0x4357 JUMPI INVALID JUMPDEST DIV SWAP4 SWAP3 POP POP POP JUMP JUMPDEST PUSH1 0x0 DUP1 PUSH2 0x436A PUSH2 0x4C19 JUMP JUMPDEST PUSH1 0x1 PUSH1 0x1 PUSH1 0xA0 SHL SUB DUP6 AND PUSH1 0x0 SWAP1 DUP2 MSTORE PUSH1 0x20 DUP3 DUP2 MSTORE PUSH1 0x40 DUP1 DUP4 KECCAK256 PUSH2 0xFFFF DUP9 AND DUP5 MSTORE SWAP1 SWAP2 MSTORE DUP2 KECCAK256 DUP1 SLOAD PUSH1 0x1 PUSH1 0xA8 SHL SWAP1 DIV PUSH1 0xA SWAP1 DUP2 SIGNEXTEND SWAP1 SIGNEXTEND SWAP5 POP SWAP2 SWAP3 POP DUP4 SLT ISZERO PUSH2 0x43B0 JUMPI PUSH1 0x0 DUP1 REVERT JUMPDEST POP POP SWAP3 SWAP2 POP POP JUMP JUMPDEST PUSH1 0x0 DUP2 SLT ISZERO PUSH2 0x43C6 JUMPI PUSH1 0x0 DUP1 REVERT JUMPDEST PUSH1 0x0 PUSH2 0x43D0 PUSH2 0x4C19 JUMP JUMPDEST PUSH1 0x1 PUSH1 0x1 PUSH1 0xA0 SHL SUB DUP6 AND PUSH1 0x0 SWAP1 DUP2 MSTORE PUSH1 0x20 DUP3 DUP2 MSTORE PUSH1 0x40 DUP1 DUP4 KECCAK256 PUSH2 0xFFFF DUP9 AND DUP5 MSTORE SWAP1 SWAP2 MSTORE SWAP1 KECCAK256 SWAP1 SWAP2 POP PUSH2 0x4401 DUP4 PUSH2 0x4C26 JUMP JUMPDEST DUP2 SLOAD PUSH1 0xA SWAP2 SWAP1 SWAP2 SIGNEXTEND PUSH1 0x1 PUSH1 0x1 PUSH1 0x58 SHL SUB AND PUSH1 0x1 PUSH1 0xA8 SHL MUL PUSH1 0x1 PUSH1 0x1 PUSH1 0xA8 SHL SUB SWAP1 SWAP2 AND OR SWAP1 SSTORE POP POP POP POP JUMP JUMPDEST PUSH1 0x0 DUP1 PUSH2 0x907 PUSH1 0x15 PUSH2 0x20EF JUMP JUMPDEST PUSH1 0x0 DUP1 PUSH2 0x4444 PUSH2 0x4C58 JUMP JUMPDEST PUSH1 0x0 SWAP4 DUP5 MSTORE PUSH1 0x20 MSTORE POP POP PUSH1 0x40 SWAP1 KECCAK256 SLOAD SWAP1 JUMP JUMPDEST PUSH1 0x0 PUSH3 0x76A700 DUP3 LT ISZERO PUSH2 0x4468 JUMPI PUSH1 0x0 DUP1 REVERT JUMPDEST POP PUSH3 0x76A700 DUP2 MOD SWAP1 SUB SWAP1 JUMP JUMPDEST PUSH1 0x0 DUP2 PUSH1 0x1 EQ ISZERO PUSH2 0x4489 JUMPI POP PUSH3 0x76A700 PUSH2 0x937 JUMP JUMPDEST DUP2 PUSH1 0x2 EQ ISZERO PUSH2 0x449C JUMPI POP PUSH3 0xED4E00 PUSH2 0x937 JUMP JUMPDEST DUP2 PUSH1 0x3 EQ ISZERO PUSH2 0x44B0 JUMPI POP PUSH4 0x1DA9C00 PUSH2 0x937 JUMP JUMPDEST DUP2 PUSH1 0x4 EQ ISZERO PUSH2 0x44C4 JUMPI POP PUSH4 0x3B53800 PUSH2 0x937 JUMP JUMPDEST DUP2 PUSH1 0x5 EQ ISZERO PUSH2 0x44D8 JUMPI POP PUSH4 0x9450C00 PUSH2 0x937 JUMP JUMPDEST DUP2 PUSH1 0x6 EQ ISZERO PUSH2 0x44EC JUMPI POP PUSH4 0x128A1800 PUSH2 0x937 JUMP JUMPDEST DUP2 PUSH1 0x7 EQ ISZERO PUSH2 0x4500 JUMPI POP PUSH4 0x25143000 PUSH2 0x937 JUMP JUMPDEST PUSH1 0x40 MLOAD PUSH3 0x461BCD PUSH1 0xE5 SHL DUP2 MSTORE PUSH1 0x4 ADD PUSH2 0x312 SWAP1 PUSH2 0x5C1C JUMP JUMPDEST PUSH1 0x0 PUSH1 0x3 DUP4 PUSH1 0x60 ADD MLOAD PUSH1 0x5 DUP2 GT ISZERO PUSH2 0x452C JUMPI INVALID JUMPDEST EQ ISZERO PUSH2 0x4543 JUMPI POP PUSH1 0x1 PUSH1 0x1 PUSH1 0xA0 SHL SUB DUP2 AND BALANCE PUSH2 0x907 JUMP JUMPDEST DUP3 MLOAD PUSH1 0x40 MLOAD PUSH4 0x70A08231 PUSH1 0xE0 SHL DUP2 MSTORE PUSH1 0x1 PUSH1 0x1 PUSH1 0xA0 SHL SUB SWAP1 SWAP2 AND SWAP1 PUSH4 0x70A08231 SWAP1 PUSH2 0x4572 SWAP1 DUP6 SWAP1 PUSH1 0x4 ADD PUSH2 0x5B05 JUMP JUMPDEST PUSH1 0x20 PUSH1 0x40 MLOAD DUP1 DUP4 SUB DUP2 DUP7 DUP1 EXTCODESIZE ISZERO DUP1 ISZERO PUSH2 0x458A JUMPI PUSH1 0x0 DUP1 REVERT JUMPDEST POP GAS STATICCALL ISZERO DUP1 ISZERO PUSH2 0x459E JUMPI RETURNDATASIZE PUSH1 0x0 DUP1 RETURNDATACOPY RETURNDATASIZE PUSH1 0x0 REVERT JUMPDEST POP POP POP POP PUSH1 0x40 MLOAD RETURNDATASIZE PUSH1 0x1F NOT PUSH1 0x1F DUP3 ADD AND DUP3 ADD DUP1 PUSH1 0x40 MSTORE POP DUP2 ADD SWAP1 PUSH2 0x25F7 SWAP2 SWAP1 PUSH2 0x5917 JUMP JUMPDEST PUSH1 0x0 DUP1 PUSH1 0x0 DUP7 PUSH1 0x1 PUSH1 0x1 PUSH1 0xA0 SHL SUB AND DUP7 DUP7 PUSH1 0x40 MLOAD DUP1 DUP3 DUP1 MLOAD SWAP1 PUSH1 0x20 ADD SWAP1 DUP1 DUP4 DUP4 JUMPDEST PUSH1 0x20 DUP4 LT PUSH2 0x4602 JUMPI DUP1 MLOAD DUP3 MSTORE PUSH1 0x1F NOT SWAP1 SWAP3 ADD SWAP2 PUSH1 0x20 SWAP2 DUP3 ADD SWAP2 ADD PUSH2 0x45E3 JUMP JUMPDEST PUSH1 0x1 DUP4 PUSH1 0x20 SUB PUSH2 0x100 EXP SUB DUP1 NOT DUP3 MLOAD AND DUP2 DUP5 MLOAD AND DUP1 DUP3 OR DUP6 MSTORE POP POP POP POP POP POP SWAP1 POP ADD SWAP2 POP POP PUSH1 0x0 PUSH1 0x40 MLOAD DUP1 DUP4 SUB DUP2 DUP6 DUP8 GAS CALL SWAP3 POP POP POP RETURNDATASIZE DUP1 PUSH1 0x0 DUP2 EQ PUSH2 0x4664 JUMPI PUSH1 0x40 MLOAD SWAP2 POP PUSH1 0x1F NOT PUSH1 0x3F RETURNDATASIZE ADD AND DUP3 ADD PUSH1 0x40 MSTORE RETURNDATASIZE DUP3 MSTORE RETURNDATASIZE PUSH1 0x0 PUSH1 0x20 DUP5 ADD RETURNDATACOPY PUSH2 0x4669 JUMP JUMPDEST PUSH1 0x60 SWAP2 POP JUMPDEST POP SWAP2 POP SWAP2 POP DUP4 PUSH2 0x470C JUMPI DUP2 PUSH2 0x467D DUP3 PUSH2 0x4C65 JUMP JUMPDEST SWAP1 PUSH2 0x4706 JUMPI PUSH1 0x40 MLOAD PUSH3 0x461BCD PUSH1 0xE5 SHL DUP2 MSTORE PUSH1 0x4 ADD DUP1 DUP1 PUSH1 0x20 ADD DUP3 DUP2 SUB DUP3 MSTORE DUP4 DUP2 DUP2 MLOAD DUP2 MSTORE PUSH1 0x20 ADD SWAP2 POP DUP1 MLOAD SWAP1 PUSH1 0x20 ADD SWAP1 DUP1 DUP4 DUP4 PUSH1 0x0 JUMPDEST DUP4 DUP2 LT ISZERO PUSH2 0x46CB JUMPI DUP2 DUP2 ADD MLOAD DUP4 DUP3 ADD MSTORE PUSH1 0x20 ADD PUSH2 0x46B3 JUMP JUMPDEST POP POP POP POP SWAP1 POP SWAP1 DUP2 ADD SWAP1 PUSH1 0x1F AND DUP1 ISZERO PUSH2 0x46F8 JUMPI DUP1 DUP3 SUB DUP1 MLOAD PUSH1 0x1 DUP4 PUSH1 0x20 SUB PUSH2 0x100 EXP SUB NOT AND DUP2 MSTORE PUSH1 0x20 ADD SWAP2 POP JUMPDEST POP SWAP3 POP POP POP PUSH1 0x40 MLOAD DUP1 SWAP2 SUB SWAP1 REVERT JUMPDEST POP PUSH2 0x325C JUMP JUMPDEST DUP7 PUSH1 0x1 PUSH1 0x1 PUSH1 0xA0 SHL SUB AND PUSH32 0x3C7E398C5E91088CAE639370E35B25EA669D81FBDF0DEF5388E73661BC34E08E DUP8 DUP8 PUSH2 0x4742 DUP6 PUSH2 0x4C65 JUMP JUMPDEST PUSH1 0x40 MLOAD DUP1 DUP5 DUP2 MSTORE PUSH1 0x20 ADD DUP1 PUSH1 0x20 ADD DUP1 PUSH1 0x20 ADD DUP4 DUP2 SUB DUP4 MSTORE DUP6 DUP2 DUP2 MLOAD DUP2 MSTORE PUSH1 0x20 ADD SWAP2 POP DUP1 MLOAD SWAP1 PUSH1 0x20 ADD SWAP1 DUP1 DUP4 DUP4 PUSH1 0x0 JUMPDEST DUP4 DUP2 LT ISZERO PUSH2 0x4789 JUMPI DUP2 DUP2 ADD MLOAD DUP4 DUP3 ADD MSTORE PUSH1 0x20 ADD PUSH2 0x4771 JUMP JUMPDEST POP POP POP POP SWAP1 POP SWAP1 DUP2 ADD SWAP1 PUSH1 0x1F AND DUP1 ISZERO PUSH2 0x47B6 JUMPI DUP1 DUP3 SUB DUP1 MLOAD PUSH1 0x1 DUP4 PUSH1 0x20 SUB PUSH2 0x100 EXP SUB NOT AND DUP2 MSTORE PUSH1 0x20 ADD SWAP2 POP JUMPDEST POP DUP4 DUP2 SUB DUP3 MSTORE DUP5 MLOAD DUP2 MSTORE DUP5 MLOAD PUSH1 0x20 SWAP2 DUP3 ADD SWAP2 DUP7 ADD SWAP1 DUP1 DUP4 DUP4 PUSH1 0x0 JUMPDEST DUP4 DUP2 LT ISZERO PUSH2 0x47E9 JUMPI DUP2 DUP2 ADD MLOAD DUP4 DUP3 ADD MSTORE PUSH1 0x20 ADD PUSH2 0x47D1 JUMP JUMPDEST POP POP POP POP SWAP1 POP SWAP1 DUP2 ADD SWAP1 PUSH1 0x1F AND DUP1 ISZERO PUSH2 0x4816 JUMPI DUP1 DUP3 SUB DUP1 MLOAD PUSH1 0x1 DUP4 PUSH1 0x20 SUB PUSH2 0x100 EXP SUB NOT AND DUP2 MSTORE PUSH1 0x20 ADD SWAP2 POP JUMPDEST POP SWAP6 POP POP POP POP POP POP PUSH1 0x40 MLOAD DUP1 SWAP2 SUB SWAP1 LOG2 POP SWAP6 SWAP5 POP POP POP POP POP JUMP JUMPDEST PUSH1 0x0 PUSH2 0x483A PUSH2 0x3CCC JUMP JUMPDEST PUSH1 0x1 PUSH1 0x1 PUSH1 0xA0 SHL SUB DUP6 AND PUSH1 0x0 SWAP1 DUP2 MSTORE PUSH1 0x20 DUP3 SWAP1 MSTORE PUSH1 0x40 SWAP1 KECCAK256 SLOAD SWAP1 SWAP2 POP DUP4 DUP2 GT ISZERO PUSH2 0x4863 JUMPI PUSH1 0x0 DUP1 REVERT JUMPDEST PUSH1 0x0 PUSH2 0x487A PUSH2 0x4871 DUP7 PUSH2 0xD41 JUMP JUMPDEST PUSH2 0x2159 DUP7 PUSH2 0xD41 JUMP JUMPDEST SWAP1 POP PUSH2 0x4889 PUSH2 0x1318 DUP4 DUP4 PUSH2 0x1AD8 JUMP JUMPDEST PUSH1 0x1 PUSH1 0x1 PUSH1 0xA0 SHL SUB SWAP1 SWAP7 AND PUSH1 0x0 SWAP1 DUP2 MSTORE PUSH1 0x20 SWAP4 SWAP1 SWAP4 MSTORE POP POP PUSH1 0x40 SWAP1 KECCAK256 SWAP3 SWAP1 SWAP3 SSTORE POP POP JUMP JUMPDEST DUP1 SLOAD PUSH1 0x2 DUP3 ADD SLOAD PUSH1 0x0 SWAP2 PUSH2 0x48EF SWAP2 PUSH1 0x1 PUSH1 0x28 SHL SWAP1 SWAP2 DIV PUSH1 0x1 PUSH1 0x1 PUSH1 0x58 SHL SUB AND SWAP1 PUSH2 0x48E9 SWAP1 PUSH1 0x1 PUSH1 0x1 PUSH1 0x50 SHL SUB PUSH1 0x1 PUSH1 0x50 SHL DUP3 DIV DUP2 AND SWAP2 AND PUSH2 0x1697 JUMP JUMPDEST SWAP1 PUSH2 0x1697 JUMP JUMPDEST PUSH1 0x1 DUP4 ADD SLOAD PUSH1 0x2 DUP5 ADD SLOAD SWAP2 SWAP3 POP PUSH1 0x0 SWAP2 PUSH2 0x4929 SWAP2 PUSH1 0x1 PUSH1 0x1 PUSH1 0x58 SHL SUB AND SWAP1 PUSH2 0x48E9 SWAP1 PUSH1 0x1 PUSH1 0x1 PUSH1 0x50 SHL SUB PUSH1 0x1 PUSH1 0xA0 SHL DUP3 DIV DUP2 AND SWAP2 AND PUSH2 0x1697 JUMP JUMPDEST DUP4 SLOAD SWAP1 SWAP2 POP PUSH1 0x0 SWAP1 PUSH2 0x4960 SWAP1 PUSH1 0x1 PUSH1 0x1 PUSH1 0x1 PUSH1 0x58 SHL SUB PUSH1 0x1 PUSH1 0x80 SHL SWAP1 SWAP3 DIV DUP3 AND ADD AND PUSH15 0xC097CE7BC90715B34B9F1000000000 PUSH2 0x1697 JUMP JUMPDEST SWAP1 POP DUP1 PUSH2 0x496D DUP5 DUP5 PUSH2 0x2D2D JUMP JUMPDEST SGT ISZERO PUSH2 0x1FEC JUMPI PUSH1 0x0 DUP1 REVERT JUMPDEST PUSH1 0x0 DUP1 PUSH2 0x907 PUSH1 0x22 PUSH2 0x20EF JUMP JUMPDEST PUSH1 0x0 PUSH2 0x498F PUSH2 0x24EF JUMP JUMPDEST PUSH2 0xFFFF DUP6 AND PUSH1 0x0 SWAP1 DUP2 MSTORE PUSH1 0x20 SWAP2 SWAP1 SWAP2 MSTORE PUSH1 0x40 DUP2 KECCAK256 SLOAD PUSH1 0x1 PUSH1 0x1 PUSH1 0xA0 SHL SUB AND SWAP2 POP PUSH2 0x49B7 PUSH2 0x4978 JUMP JUMPDEST PUSH2 0xFFFF DUP7 AND PUSH1 0x0 SWAP1 DUP2 MSTORE PUSH1 0x20 SWAP2 SWAP1 SWAP2 MSTORE PUSH1 0x40 SWAP1 DUP2 SWAP1 KECCAK256 SLOAD SWAP1 MLOAD PUSH4 0xAD1C095D PUSH1 0xE0 SHL DUP2 MSTORE PUSH1 0x1 PUSH1 0x1 PUSH1 0xA0 SHL SUB SWAP1 SWAP2 AND SWAP2 POP DUP2 SWAP1 PUSH4 0xAD1C095D SWAP1 PUSH2 0x49FF SWAP1 DUP10 SWAP1 DUP8 SWAP1 PUSH1 0x4 ADD PUSH2 0x5B3D JUMP JUMPDEST PUSH1 0x0 PUSH1 0x40 MLOAD DUP1 DUP4 SUB DUP2 PUSH1 0x0 DUP8 DUP1 EXTCODESIZE ISZERO DUP1 ISZERO PUSH2 0x4A19 JUMPI PUSH1 0x0 DUP1 REVERT JUMPDEST POP GAS CALL ISZERO DUP1 ISZERO PUSH2 0x4A2D JUMPI RETURNDATASIZE PUSH1 0x0 DUP1 RETURNDATACOPY RETURNDATASIZE PUSH1 0x0 REVERT JUMPDEST POP POP PUSH1 0x40 MLOAD PUSH4 0xAD1C095D PUSH1 0xE0 SHL DUP2 MSTORE PUSH1 0x1 PUSH1 0x1 PUSH1 0xA0 SHL SUB DUP6 AND SWAP3 POP PUSH4 0xAD1C095D SWAP2 POP PUSH2 0x4A5F SWAP1 DUP10 SWAP1 DUP9 SWAP1 PUSH1 0x4 ADD PUSH2 0x5B3D JUMP JUMPDEST PUSH1 0x0 PUSH1 0x40 MLOAD DUP1 DUP4 SUB DUP2 PUSH1 0x0 DUP8 DUP1 EXTCODESIZE ISZERO DUP1 ISZERO PUSH2 0x4A79 JUMPI PUSH1 0x0 DUP1 REVERT JUMPDEST POP GAS CALL ISZERO DUP1 ISZERO PUSH2 0x222D JUMPI RETURNDATASIZE PUSH1 0x0 DUP1 RETURNDATACOPY RETURNDATASIZE PUSH1 0x0 REVERT JUMPDEST PUSH1 0x0 PUSH2 0x2019 PUSH2 0x37B8 DUP5 PUSH4 0x3B9ACA00 PUSH2 0x1FF2 JUMP JUMPDEST PUSH2 0x4AA8 PUSH2 0x517C JUMP JUMPDEST PUSH1 0x0 PUSH2 0x4AB2 PUSH2 0x4D6A JUMP JUMPDEST PUSH2 0xFFFF DUP5 AND PUSH1 0x0 SWAP1 DUP2 MSTORE PUSH1 0x20 SWAP2 SWAP1 SWAP2 MSTORE PUSH1 0x40 DUP2 KECCAK256 SLOAD SWAP2 POP PUSH2 0x2019 SWAP1 DUP3 PUSH2 0x4D77 JUMP JUMPDEST PUSH1 0x0 DUP1 DUP4 PUSH1 0x80 ADD MLOAD GT PUSH2 0x4AE5 JUMPI PUSH1 0x0 DUP1 REVERT JUMPDEST PUSH4 0x3B9ACA00 DUP3 GT ISZERO PUSH2 0x4AF6 JUMPI PUSH1 0x0 DUP1 REVERT JUMPDEST DUP3 MLOAD DUP3 GT PUSH2 0x4B15 JUMPI DUP3 MLOAD PUSH1 0x40 DUP5 ADD MLOAD PUSH2 0x25F7 SWAP2 SWAP1 PUSH2 0x3775 SWAP1 DUP6 SWAP1 PUSH2 0x1FF2 JUMP JUMPDEST DUP3 PUSH1 0x20 ADD MLOAD DUP3 GT PUSH2 0x4B4D JUMPI PUSH1 0x40 DUP4 ADD MLOAD DUP4 MLOAD PUSH1 0x20 DUP6 ADD MLOAD PUSH1 0x60 DUP7 ADD MLOAD PUSH2 0x25F7 SWAP4 SWAP3 PUSH2 0x23E8 SWAP3 DUP2 SWAP1 SUB SWAP2 PUSH2 0x3775 SWAP2 DUP9 SUB SWAP1 DUP6 SWAP1 SUB PUSH2 0x1FF2 JUMP JUMPDEST PUSH2 0x2019 DUP4 PUSH1 0x60 ADD MLOAD PUSH2 0x23E8 DUP6 PUSH1 0x20 ADD MLOAD PUSH4 0x3B9ACA00 SUB PUSH2 0x3775 DUP8 PUSH1 0x60 ADD MLOAD DUP9 PUSH1 0x80 ADD MLOAD SUB DUP9 PUSH1 0x20 ADD MLOAD DUP9 SUB PUSH2 0x1FF2 SWAP1 SWAP2 SWAP1 PUSH4 0xFFFFFFFF AND JUMP JUMPDEST PUSH1 0x0 DUP1 PUSH2 0x4BA5 PUSH1 0x64 PUSH2 0x3775 DUP8 PUSH1 0xE0 ADD MLOAD DUP8 PUSH2 0x1FF2 SWAP1 SWAP2 SWAP1 PUSH4 0xFFFFFFFF AND JUMP JUMPDEST SWAP1 POP DUP5 PUSH1 0xA0 ADD MLOAD DUP2 LT ISZERO PUSH2 0x4BBA JUMPI POP PUSH1 0xA0 DUP5 ADD MLOAD JUMPDEST DUP5 PUSH1 0xC0 ADD MLOAD DUP2 GT ISZERO PUSH2 0x4BCD JUMPI POP PUSH1 0xC0 DUP5 ADD MLOAD JUMPDEST DUP3 ISZERO PUSH2 0x4BE4 JUMPI PUSH2 0x4BDD DUP5 DUP3 PUSH2 0x2EC5 JUMP JUMPDEST SWAP2 POP PUSH2 0x4BF8 JUMP JUMPDEST DUP4 DUP2 GT PUSH2 0x4BF3 JUMPI DUP1 DUP5 SUB PUSH2 0x1BBE JUMP JUMPDEST PUSH1 0x0 SWAP2 POP JUMPDEST POP SWAP4 SWAP3 POP POP POP JUMP JUMPDEST PUSH1 0x0 PUSH2 0x2019 PUSH2 0x4C0F DUP5 DUP5 PUSH2 0x1FF2 JUMP JUMPDEST PUSH4 0x3B9ACA00 PUSH2 0x4340 JUMP JUMPDEST PUSH1 0x0 DUP1 PUSH2 0x907 PUSH1 0x6 PUSH2 0x20EF JUMP JUMPDEST PUSH1 0x0 PUSH11 0x7FFFFFFFFFFFFFFFFFFFFF NOT DUP3 SLT DUP1 ISZERO SWAP1 PUSH2 0x4C4F JUMPI POP PUSH11 0x7FFFFFFFFFFFFFFFFFFFFF DUP3 SGT ISZERO JUMPDEST PUSH2 0xD57 JUMPI PUSH1 0x0 DUP1 REVERT JUMPDEST PUSH1 0x0 DUP1 PUSH2 0x907 PUSH1 0x9 PUSH2 0x20EF JUMP JUMPDEST PUSH1 0x60 PUSH1 0x44 DUP3 MLOAD LT ISZERO PUSH2 0x4C9B JUMPI POP PUSH1 0x40 DUP1 MLOAD DUP1 DUP3 ADD SWAP1 SWAP2 MSTORE PUSH1 0xD DUP2 MSTORE PUSH13 0x14DA5B195B9D0814995D995C9D PUSH1 0x9A SHL PUSH1 0x20 DUP3 ADD MSTORE PUSH2 0x937 JUMP JUMPDEST PUSH1 0x4 DUP3 ADD DUP1 MLOAD SWAP1 SWAP3 PUSH1 0x24 ADD SWAP1 PUSH1 0x20 DUP2 LT ISZERO PUSH2 0x4CB5 JUMPI PUSH1 0x0 DUP1 REVERT JUMPDEST DUP2 ADD SWAP1 DUP1 DUP1 MLOAD PUSH1 0x40 MLOAD SWAP4 SWAP3 SWAP2 SWAP1 DUP5 PUSH1 0x1 PUSH1 0x20 SHL DUP3 GT ISZERO PUSH2 0x4CD4 JUMPI PUSH1 0x0 DUP1 REVERT JUMPDEST SWAP1 DUP4 ADD SWAP1 PUSH1 0x20 DUP3 ADD DUP6 DUP2 GT ISZERO PUSH2 0x4CE9 JUMPI PUSH1 0x0 DUP1 REVERT JUMPDEST DUP3 MLOAD PUSH1 0x1 PUSH1 0x20 SHL DUP2 GT DUP3 DUP3 ADD DUP9 LT OR ISZERO PUSH2 0x4D02 JUMPI PUSH1 0x0 DUP1 REVERT JUMPDEST DUP3 MSTORE POP DUP2 MLOAD PUSH1 0x20 SWAP2 DUP3 ADD SWAP3 SWAP1 SWAP2 ADD SWAP1 DUP1 DUP4 DUP4 PUSH1 0x0 JUMPDEST DUP4 DUP2 LT ISZERO PUSH2 0x4D2F JUMPI DUP2 DUP2 ADD MLOAD DUP4 DUP3 ADD MSTORE PUSH1 0x20 ADD PUSH2 0x4D17 JUMP JUMPDEST POP POP POP POP SWAP1 POP SWAP1 DUP2 ADD SWAP1 PUSH1 0x1F AND DUP1 ISZERO PUSH2 0x4D5C JUMPI DUP1 DUP3 SUB DUP1 MLOAD PUSH1 0x1 DUP4 PUSH1 0x20 SUB PUSH2 0x100 EXP SUB NOT AND DUP2 MSTORE PUSH1 0x20 ADD SWAP2 POP JUMPDEST POP PUSH1 0x40 MSTORE POP POP POP SWAP1 POP SWAP2 SWAP1 POP JUMP JUMPDEST PUSH1 0x0 DUP1 PUSH2 0x907 PUSH1 0x1B PUSH2 0x20EF JUMP JUMPDEST PUSH2 0x4D7F PUSH2 0x517C JUMP JUMPDEST PUSH1 0x64 PUSH4 0x3B9ACA00 DUP4 PUSH1 0xFF DUP7 AND PUSH1 0x20 DUP2 LT PUSH2 0x4D95 JUMPI INVALID JUMPDEST BYTE MUL DUP2 PUSH2 0x4D9E JUMPI INVALID JUMPDEST DIV DUP2 MSTORE PUSH1 0x64 PUSH4 0x3B9ACA00 DUP4 PUSH1 0xFF DUP7 AND PUSH1 0x1 ADD PUSH1 0x20 DUP2 LT PUSH2 0x4DBA JUMPI INVALID JUMPDEST BYTE MUL DUP2 PUSH2 0x4DC3 JUMPI INVALID JUMPDEST DIV DUP2 PUSH1 0x20 ADD DUP2 DUP2 MSTORE POP POP PUSH2 0x4DE8 DUP3 PUSH1 0x2 DUP6 PUSH1 0xFF AND ADD PUSH1 0x20 DUP2 LT PUSH2 0x4DE2 JUMPI INVALID JUMPDEST BYTE PUSH2 0x4E96 JUMP JUMPDEST PUSH1 0x80 DUP3 ADD DUP2 SWAP1 MSTORE PUSH2 0x100 SWAP1 DUP4 PUSH1 0xFF DUP7 AND PUSH1 0x3 ADD PUSH1 0x20 DUP2 LT PUSH2 0x4E05 JUMPI INVALID JUMPDEST BYTE MUL DUP2 PUSH2 0x4E0E JUMPI INVALID JUMPDEST DIV PUSH1 0x40 DUP3 ADD MSTORE PUSH1 0x80 DUP2 ADD MLOAD PUSH2 0x100 SWAP1 DUP4 PUSH1 0xFF DUP7 AND PUSH1 0x4 ADD PUSH1 0x20 DUP2 LT PUSH2 0x4E2F JUMPI INVALID JUMPDEST BYTE MUL DUP2 PUSH2 0x4E38 JUMPI INVALID JUMPDEST DIV PUSH1 0x60 DUP3 ADD MSTORE PUSH3 0x7A120 DUP3 PUSH1 0xFF DUP6 AND PUSH1 0x5 ADD PUSH1 0x20 DUP2 LT PUSH2 0x4E54 JUMPI INVALID JUMPDEST BYTE MUL PUSH1 0xA0 DUP3 ADD MSTORE PUSH3 0x2625A0 DUP3 PUSH1 0xFF DUP6 AND PUSH1 0x6 ADD PUSH1 0x20 DUP2 LT PUSH2 0x4E71 JUMPI INVALID JUMPDEST BYTE MUL PUSH1 0xC0 DUP3 ADD MSTORE DUP2 PUSH1 0xFF DUP5 AND PUSH1 0x7 ADD PUSH1 0x20 DUP2 LT PUSH2 0x4E8A JUMPI INVALID JUMPDEST BYTE PUSH1 0xE0 DUP3 ADD MSTORE SWAP3 SWAP2 POP POP JUMP JUMPDEST PUSH1 0x0 DUP2 PUSH1 0xFF AND PUSH1 0x96 LT PUSH2 0x4EB1 JUMPI PUSH1 0xFF DUP3 AND PUSH3 0x2625A0 MUL PUSH2 0x934 JUMP JUMPDEST POP PUSH1 0x95 NOT PUSH1 0xFF SWAP2 SWAP1 SWAP2 AND ADD PUSH3 0xE4E1C0 MUL PUSH4 0x165A0BC0 ADD SWAP1 JUMP JUMPDEST PUSH1 0x40 MLOAD DUP1 PUSH1 0x40 ADD PUSH1 0x40 MSTORE DUP1 PUSH1 0x2 SWAP1 PUSH1 0x20 DUP3 MUL DUP1 CALLDATASIZE DUP4 CALLDATACOPY POP SWAP2 SWAP3 SWAP2 POP POP JUMP JUMPDEST PUSH1 0x40 MLOAD DUP1 PUSH2 0x1E0 ADD PUSH1 0x40 MSTORE DUP1 PUSH1 0x0 PUSH1 0x1 PUSH1 0x1 PUSH1 0xA0 SHL SUB AND DUP2 MSTORE PUSH1 0x20 ADD PUSH1 0x0 PUSH2 0xFFFF AND DUP2 MSTORE PUSH1 0x20 ADD PUSH1 0x0 PUSH2 0xFFFF AND DUP2 MSTORE PUSH1 0x20 ADD PUSH1 0x0 DUP2 MSTORE PUSH1 0x20 ADD PUSH1 0x0 DUP2 MSTORE PUSH1 0x20 ADD PUSH1 0x0 DUP2 MSTORE PUSH1 0x20 ADD PUSH1 0x0 DUP2 MSTORE PUSH1 0x20 ADD PUSH1 0x0 DUP2 MSTORE PUSH1 0x20 ADD PUSH1 0x0 DUP2 MSTORE PUSH1 0x20 ADD PUSH1 0x0 DUP2 MSTORE PUSH1 0x20 ADD PUSH2 0x4F53 PUSH2 0x4ECA JUMP JUMPDEST DUP2 MSTORE PUSH1 0x20 ADD PUSH2 0x4F60 PUSH2 0x50F1 JUMP JUMPDEST DUP2 MSTORE PUSH1 0x20 ADD PUSH1 0x0 DUP2 MSTORE PUSH1 0x20 ADD PUSH2 0x4F74 PUSH2 0x4ECA JUMP JUMPDEST DUP2 MSTORE PUSH1 0x20 ADD PUSH1 0x0 DUP2 MSTORE POP SWAP1 JUMP JUMPDEST PUSH1 0x40 MLOAD DUP1 PUSH1 0x40 ADD PUSH1 0x40 MSTORE DUP1 PUSH1 0x2 SWAP1 JUMPDEST PUSH2 0x4F98 PUSH2 0x50F1 JUMP JUMPDEST DUP2 MSTORE PUSH1 0x20 ADD SWAP1 PUSH1 0x1 SWAP1 SUB SWAP1 DUP2 PUSH2 0x4F90 JUMPI SWAP1 POP POP SWAP1 JUMP JUMPDEST PUSH1 0x40 DUP1 MLOAD PUSH1 0xA0 DUP2 ADD DUP3 MSTORE PUSH1 0x0 DUP1 DUP3 MSTORE PUSH1 0x20 DUP3 ADD DUP2 SWAP1 MSTORE SWAP2 DUP2 ADD DUP3 SWAP1 MSTORE SWAP1 PUSH1 0x60 DUP3 ADD SWAP1 PUSH2 0x4F74 JUMP JUMPDEST PUSH1 0x1 DUP4 ADD SWAP2 DUP4 SWAP1 DUP3 ISZERO PUSH2 0x505B JUMPI SWAP2 PUSH1 0x20 MUL DUP3 ADD PUSH1 0x0 JUMPDEST DUP4 DUP3 GT ISZERO PUSH2 0x502B JUMPI DUP4 MLOAD DUP4 DUP3 PUSH2 0x100 EXP DUP2 SLOAD DUP2 PUSH2 0xFFFF MUL NOT AND SWAP1 DUP4 PUSH2 0xFFFF AND MUL OR SWAP1 SSTORE POP SWAP3 PUSH1 0x20 ADD SWAP3 PUSH1 0x2 ADD PUSH1 0x20 DUP2 PUSH1 0x1 ADD DIV SWAP3 DUP4 ADD SWAP3 PUSH1 0x1 SUB MUL PUSH2 0x4FEB JUMP JUMPDEST DUP1 ISZERO PUSH2 0x5059 JUMPI DUP3 DUP2 PUSH2 0x100 EXP DUP2 SLOAD SWAP1 PUSH2 0xFFFF MUL NOT AND SWAP1 SSTORE PUSH1 0x2 ADD PUSH1 0x20 DUP2 PUSH1 0x1 ADD DIV SWAP3 DUP4 ADD SWAP3 PUSH1 0x1 SUB MUL PUSH2 0x502B JUMP JUMPDEST POP JUMPDEST POP PUSH2 0xD57 SWAP3 SWAP2 POP PUSH2 0x51C1 JUMP JUMPDEST PUSH1 0x1 DUP4 ADD SWAP2 DUP4 SWAP1 DUP3 ISZERO PUSH2 0x505B JUMPI SWAP2 PUSH1 0x20 MUL DUP3 ADD PUSH1 0x0 JUMPDEST DUP4 DUP3 GT ISZERO PUSH2 0x50C1 JUMPI DUP4 MLOAD DUP4 DUP3 PUSH2 0x100 EXP DUP2 SLOAD DUP2 PUSH4 0xFFFFFFFF MUL NOT AND SWAP1 DUP4 PUSH4 0xFFFFFFFF AND MUL OR SWAP1 SSTORE POP SWAP3 PUSH1 0x20 ADD SWAP3 PUSH1 0x4 ADD PUSH1 0x20 DUP2 PUSH1 0x3 ADD DIV SWAP3 DUP4 ADD SWAP3 PUSH1 0x1 SUB MUL PUSH2 0x507D JUMP JUMPDEST DUP1 ISZERO PUSH2 0x5059 JUMPI DUP3 DUP2 PUSH2 0x100 EXP DUP2 SLOAD SWAP1 PUSH4 0xFFFFFFFF MUL NOT AND SWAP1 SSTORE PUSH1 0x4 ADD PUSH1 0x20 DUP2 PUSH1 0x3 ADD DIV SWAP3 DUP4 ADD SWAP3 PUSH1 0x1 SUB MUL PUSH2 0x50C1 JUMP JUMPDEST PUSH1 0x40 MLOAD DUP1 PUSH1 0x60 ADD PUSH1 0x40 MSTORE DUP1 PUSH1 0x0 DUP2 MSTORE PUSH1 0x20 ADD PUSH1 0x0 DUP2 MSTORE PUSH1 0x20 ADD PUSH1 0x0 DUP2 MSTORE POP SWAP1 JUMP JUMPDEST PUSH1 0x40 MLOAD DUP1 PUSH2 0x120 ADD PUSH1 0x40 MSTORE DUP1 PUSH1 0x0 DUP2 MSTORE PUSH1 0x20 ADD PUSH1 0x0 DUP2 MSTORE PUSH1 0x20 ADD PUSH1 0x0 DUP2 MSTORE PUSH1 0x20 ADD PUSH1 0x0 DUP2 MSTORE PUSH1 0x20 ADD PUSH1 0x0 DUP2 MSTORE PUSH1 0x20 ADD PUSH1 0x0 DUP2 MSTORE PUSH1 0x20 ADD PUSH1 0x0 DUP2 MSTORE PUSH1 0x20 ADD PUSH1 0x0 DUP2 MSTORE PUSH1 0x20 ADD PUSH1 0x0 DUP2 MSTORE POP SWAP1 JUMP JUMPDEST PUSH1 0x40 MLOAD DUP1 PUSH1 0x20 ADD PUSH1 0x40 MSTORE DUP1 PUSH1 0x1 SWAP1 PUSH1 0x20 DUP3 MUL DUP1 CALLDATASIZE DUP4 CALLDATACOPY POP SWAP2 SWAP3 SWAP2 POP POP JUMP JUMPDEST PUSH1 0x40 MLOAD DUP1 PUSH2 0x100 ADD PUSH1 0x40 MSTORE DUP1 PUSH1 0x0 DUP2 MSTORE PUSH1 0x20 ADD PUSH1 0x0 DUP2 MSTORE PUSH1 0x20 ADD PUSH1 0x0 DUP2 MSTORE PUSH1 0x20 ADD PUSH1 0x0 DUP2 MSTORE PUSH1 0x20 ADD PUSH1 0x0 DUP2 MSTORE PUSH1 0x20 ADD PUSH1 0x0 DUP2 MSTORE PUSH1 0x20 ADD PUSH1 0x0 DUP2 MSTORE PUSH1 0x20 ADD PUSH1 0x0 DUP2 MSTORE POP SWAP1 JUMP JUMPDEST JUMPDEST DUP1 DUP3 GT ISZERO PUSH2 0xD57 JUMPI PUSH1 0x0 DUP2 SSTORE PUSH1 0x1 ADD PUSH2 0x51C2 JUMP JUMPDEST DUP1 MLOAD PUSH2 0x937 DUP2 PUSH2 0x5E9E JUMP JUMPDEST PUSH1 0x0 DUP3 PUSH1 0x1F DUP4 ADD SLT PUSH2 0x51F1 JUMPI DUP1 DUP2 REVERT JUMPDEST DUP2 MLOAD PUSH1 0x20 PUSH2 0x5206 PUSH2 0x5201 DUP4 PUSH2 0x5E80 JUMP JUMPDEST PUSH2 0x5E5C JUMP JUMPDEST DUP3 DUP2 MSTORE DUP2 DUP2 ADD SWAP1 DUP6 DUP4 ADD DUP4 DUP6 MUL DUP8 ADD DUP5 ADD DUP9 LT ISZERO PUSH2 0x5222 JUMPI DUP6 DUP7 REVERT JUMPDEST DUP6 JUMPDEST DUP6 DUP2 LT ISZERO PUSH2 0x5249 JUMPI DUP2 MLOAD PUSH2 0x5237 DUP2 PUSH2 0x5E9E JUMP JUMPDEST DUP5 MSTORE SWAP3 DUP5 ADD SWAP3 SWAP1 DUP5 ADD SWAP1 PUSH1 0x1 ADD PUSH2 0x5224 JUMP JUMPDEST POP SWAP1 SWAP8 SWAP7 POP POP POP POP POP POP POP JUMP JUMPDEST PUSH1 0x0 PUSH1 0x1F DUP4 DUP2 DUP5 ADD SLT PUSH2 0x5267 JUMPI DUP2 DUP3 REVERT JUMPDEST DUP3 MLOAD PUSH1 0x20 PUSH2 0x5277 PUSH2 0x5201 DUP4 PUSH2 0x5E80 JUMP JUMPDEST DUP3 DUP2 MSTORE DUP2 DUP2 ADD SWAP1 DUP7 DUP4 ADD DUP7 JUMPDEST DUP6 DUP2 LT ISZERO PUSH2 0x531C JUMPI DUP2 MLOAD DUP10 ADD DUP11 PUSH1 0x3F DUP3 ADD SLT PUSH2 0x529D JUMPI DUP9 DUP10 REVERT JUMPDEST DUP6 DUP2 ADD MLOAD PUSH8 0xFFFFFFFFFFFFFFFF DUP2 GT ISZERO PUSH2 0x52B3 JUMPI INVALID JUMPDEST PUSH2 0x52C4 DUP2 DUP11 ADD PUSH1 0x1F NOT AND DUP9 ADD PUSH2 0x5E5C JUMP JUMPDEST DUP2 DUP2 MSTORE PUSH1 0x40 DUP14 DUP2 DUP5 DUP7 ADD ADD GT ISZERO PUSH2 0x52D9 JUMPI DUP12 DUP13 REVERT JUMPDEST DUP12 JUMPDEST DUP4 DUP2 LT ISZERO PUSH2 0x52F6 JUMPI DUP5 DUP2 ADD DUP3 ADD MLOAD DUP4 DUP3 ADD DUP12 ADD MSTORE DUP10 ADD PUSH2 0x52DB JUMP JUMPDEST DUP4 DUP2 GT ISZERO PUSH2 0x5306 JUMPI DUP13 DUP11 DUP6 DUP6 ADD ADD MSTORE JUMPDEST POP POP DUP7 MSTORE POP POP SWAP3 DUP5 ADD SWAP3 SWAP1 DUP5 ADD SWAP1 PUSH1 0x1 ADD PUSH2 0x5283 JUMP JUMPDEST POP SWAP1 SWAP9 SWAP8 POP POP POP POP POP POP POP POP JUMP JUMPDEST PUSH1 0x0 DUP3 PUSH1 0x1F DUP4 ADD SLT PUSH2 0x533A JUMPI DUP1 DUP2 REVERT JUMPDEST PUSH1 0x40 MLOAD PUSH1 0x40 DUP2 ADD DUP2 DUP2 LT PUSH8 0xFFFFFFFFFFFFFFFF DUP3 GT OR ISZERO PUSH2 0x5357 JUMPI INVALID JUMPDEST DUP1 PUSH1 0x40 MSTORE POP DUP1 DUP4 DUP6 PUSH1 0x40 DUP7 ADD GT ISZERO PUSH2 0x536D JUMPI DUP4 DUP5 REVERT JUMPDEST DUP4 JUMPDEST PUSH1 0x2 DUP2 LT ISZERO PUSH2 0x5398 JUMPI DUP2 CALLDATALOAD PUSH2 0x5383 DUP2 PUSH2 0x5EB6 JUMP JUMPDEST DUP4 MSTORE PUSH1 0x20 SWAP3 DUP4 ADD SWAP3 SWAP2 SWAP1 SWAP2 ADD SWAP1 PUSH1 0x1 ADD PUSH2 0x536F JUMP JUMPDEST POP SWAP2 SWAP6 SWAP5 POP POP POP POP POP JUMP JUMPDEST PUSH1 0x0 DUP3 PUSH1 0x1F DUP4 ADD SLT PUSH2 0x53B3 JUMPI DUP1 DUP2 REVERT JUMPDEST PUSH1 0x40 MLOAD PUSH1 0x40 DUP2 ADD DUP2 DUP2 LT PUSH8 0xFFFFFFFFFFFFFFFF DUP3 GT OR ISZERO PUSH2 0x53D0 JUMPI INVALID JUMPDEST DUP1 PUSH1 0x40 MSTORE POP DUP1 DUP4 DUP6 PUSH1 0x40 DUP7 ADD GT ISZERO PUSH2 0x53E6 JUMPI DUP4 DUP5 REVERT JUMPDEST DUP4 JUMPDEST PUSH1 0x2 DUP2 LT ISZERO PUSH2 0x5398 JUMPI DUP2 MLOAD PUSH2 0x53FC DUP2 PUSH2 0x5EB6 JUMP JUMPDEST DUP4 MSTORE PUSH1 0x20 SWAP3 DUP4 ADD SWAP3 SWAP2 SWAP1 SWAP2 ADD SWAP1 PUSH1 0x1 ADD PUSH2 0x53E8 JUMP JUMPDEST DUP1 PUSH1 0x40 DUP2 ADD DUP4 LT ISZERO PUSH2 0x907 JUMPI PUSH1 0x0 DUP1 REVERT JUMPDEST PUSH1 0x0 DUP3 PUSH1 0x1F DUP4 ADD SLT PUSH2 0x5432 JUMPI DUP1 DUP2 REVERT JUMPDEST PUSH1 0x40 MLOAD PUSH1 0x40 DUP2 ADD DUP2 DUP2 LT PUSH8 0xFFFFFFFFFFFFFFFF DUP3 GT OR ISZERO PUSH2 0x544F JUMPI INVALID JUMPDEST DUP1 PUSH1 0x40 MSTORE POP DUP1 DUP4 DUP6 PUSH1 0x40 DUP7 ADD GT ISZERO PUSH2 0x5465 JUMPI DUP4 DUP5 REVERT JUMPDEST DUP4 JUMPDEST PUSH1 0x2 DUP2 LT ISZERO PUSH2 0x5398 JUMPI DUP2 CALLDATALOAD DUP4 MSTORE PUSH1 0x20 SWAP3 DUP4 ADD SWAP3 SWAP1 SWAP2 ADD SWAP1 PUSH1 0x1 ADD PUSH2 0x5467 JUMP JUMPDEST PUSH1 0x0 DUP3 PUSH1 0x1F DUP4 ADD SLT PUSH2 0x5496 JUMPI DUP1 DUP2 REVERT JUMPDEST PUSH1 0x40 MLOAD PUSH1 0x40 DUP2 ADD DUP2 DUP2 LT PUSH8 0xFFFFFFFFFFFFFFFF DUP3 GT OR ISZERO PUSH2 0x54B3 JUMPI INVALID JUMPDEST DUP1 PUSH1 0x40 MSTORE POP DUP1 DUP4 DUP6 PUSH1 0x40 DUP7 ADD GT ISZERO PUSH2 0x54C9 JUMPI DUP4 DUP5 REVERT JUMPDEST DUP4 JUMPDEST PUSH1 0x2 DUP2 LT ISZERO PUSH2 0x5398 JUMPI DUP2 MLOAD PUSH2 0x54DF DUP2 PUSH2 0x5EC6 JUMP JUMPDEST DUP4 MSTORE PUSH1 0x20 SWAP3 DUP4 ADD SWAP3 SWAP2 SWAP1 SWAP2 ADD SWAP1 PUSH1 0x1 ADD PUSH2 0x54CB JUMP JUMPDEST DUP1 CALLDATALOAD PUSH2 0x937 DUP2 PUSH2 0x5EB6 JUMP JUMPDEST DUP1 MLOAD PUSH2 0x937 DUP2 PUSH2 0x5EB6 JUMP JUMPDEST DUP1 MLOAD PUSH2 0x937 DUP2 PUSH2 0x5EC6 JUMP JUMPDEST DUP1 CALLDATALOAD PUSH2 0x937 DUP2 PUSH2 0x5ED8 JUMP JUMPDEST DUP1 CALLDATALOAD PUSH1 0x1 PUSH1 0x1 PUSH1 0x50 SHL SUB DUP2 AND DUP2 EQ PUSH2 0x937 JUMPI PUSH1 0x0 DUP1 REVERT JUMPDEST DUP1 MLOAD PUSH2 0x937 DUP2 PUSH2 0x5ED8 JUMP JUMPDEST PUSH1 0x0 DUP1 PUSH1 0x40 DUP4 DUP6 SUB SLT ISZERO PUSH2 0x5554 JUMPI DUP2 DUP3 REVERT JUMPDEST DUP3 CALLDATALOAD PUSH2 0x555F DUP2 PUSH2 0x5E9E JUMP JUMPDEST SWAP2 POP PUSH1 0x20 DUP4 ADD CALLDATALOAD PUSH2 0x556F DUP2 PUSH2 0x5E9E JUMP JUMPDEST DUP1 SWAP2 POP POP SWAP3 POP SWAP3 SWAP1 POP JUMP JUMPDEST PUSH1 0x0 DUP1 PUSH1 0x40 DUP4 DUP6 SUB SLT ISZERO PUSH2 0x558C JUMPI DUP2 DUP3 REVERT JUMPDEST DUP3 CALLDATALOAD PUSH2 0x5597 DUP2 PUSH2 0x5E9E JUMP JUMPDEST SWAP2 POP PUSH1 0x20 DUP4 ADD CALLDATALOAD DUP1 ISZERO ISZERO DUP2 EQ PUSH2 0x556F JUMPI DUP2 DUP3 REVERT JUMPDEST PUSH1 0x0 DUP1 PUSH1 0x0 DUP4 DUP6 SUB PUSH2 0x220 DUP2 SLT ISZERO PUSH2 0x55C1 JUMPI DUP2 DUP3 REVERT JUMPDEST DUP5 CALLDATALOAD PUSH2 0x55CC DUP2 PUSH2 0x5E9E JUMP JUMPDEST SWAP4 POP PUSH2 0x1E0 PUSH1 0x1F NOT DUP3 ADD DUP2 SGT ISZERO PUSH2 0x55E1 JUMPI DUP3 DUP4 REVERT JUMPDEST PUSH2 0x1A0 SWAP2 POP PUSH2 0x55EF DUP3 PUSH2 0x5E5C JUMP JUMPDEST PUSH2 0x55FB PUSH1 0x20 DUP9 ADD PUSH2 0x54F4 JUMP JUMPDEST DUP2 MSTORE PUSH2 0x5609 PUSH1 0x40 DUP9 ADD PUSH2 0x54F4 JUMP JUMPDEST PUSH1 0x20 DUP3 ADD MSTORE PUSH1 0x60 DUP8 ADD CALLDATALOAD PUSH1 0x40 DUP3 ADD MSTORE PUSH2 0x5624 PUSH1 0x80 DUP9 ADD PUSH2 0x54F4 JUMP JUMPDEST PUSH1 0x60 DUP3 ADD MSTORE PUSH2 0x5635 PUSH1 0xA0 DUP9 ADD PUSH2 0x5515 JUMP JUMPDEST PUSH1 0x80 DUP3 ADD MSTORE PUSH2 0x5646 PUSH1 0xC0 DUP9 ADD PUSH2 0x5515 JUMP JUMPDEST PUSH1 0xA0 DUP3 ADD MSTORE PUSH2 0x5657 PUSH1 0xE0 DUP9 ADD PUSH2 0x5515 JUMP JUMPDEST PUSH1 0xC0 DUP3 ADD MSTORE PUSH2 0x100 PUSH2 0x566A DUP2 DUP10 ADD PUSH2 0x5515 JUMP JUMPDEST PUSH1 0xE0 DUP4 ADD MSTORE PUSH2 0x120 PUSH2 0x567D DUP2 DUP11 ADD PUSH2 0x54F4 JUMP JUMPDEST DUP3 DUP5 ADD MSTORE PUSH2 0x140 SWAP2 POP PUSH2 0x5692 DUP11 DUP4 DUP12 ADD PUSH2 0x532A JUMP JUMPDEST SWAP1 DUP4 ADD MSTORE PUSH2 0x180 PUSH2 0x56A4 DUP10 DUP3 ADD PUSH2 0x54F4 JUMP JUMPDEST DUP3 DUP5 ADD MSTORE PUSH2 0x56B4 DUP11 DUP7 DUP12 ADD PUSH2 0x5422 JUMP JUMPDEST PUSH2 0x160 DUP5 ADD MSTORE PUSH2 0x56C5 DUP5 DUP11 ADD PUSH2 0x5515 JUMP JUMPDEST SWAP1 DUP4 ADD MSTORE POP SWAP4 POP PUSH2 0x56DC SWAP2 POP POP PUSH2 0x200 DUP6 ADD PUSH2 0x5520 JUMP JUMPDEST SWAP1 POP SWAP3 POP SWAP3 POP SWAP3 JUMP JUMPDEST PUSH1 0x0 DUP1 PUSH1 0x0 PUSH1 0x60 DUP5 DUP7 SUB SLT ISZERO PUSH2 0x56F9 JUMPI DUP1 DUP2 REVERT JUMPDEST DUP4 CALLDATALOAD PUSH2 0x5704 DUP2 PUSH2 0x5E9E JUMP JUMPDEST SWAP3 POP PUSH1 0x20 DUP5 ADD CALLDATALOAD PUSH2 0x5714 DUP2 PUSH2 0x5EB6 JUMP JUMPDEST SWAP2 POP PUSH2 0x56DC PUSH1 0x40 DUP6 ADD PUSH2 0x5520 JUMP JUMPDEST PUSH1 0x0 DUP1 PUSH1 0x0 DUP1 PUSH1 0xC0 DUP6 DUP8 SUB SLT ISZERO PUSH2 0x5737 JUMPI DUP2 DUP3 REVERT JUMPDEST DUP5 CALLDATALOAD PUSH2 0x5742 DUP2 PUSH2 0x5E9E JUMP JUMPDEST SWAP4 POP PUSH1 0x20 DUP6 ADD CALLDATALOAD SWAP3 POP PUSH2 0x5758 DUP7 PUSH1 0x40 DUP8 ADD PUSH2 0x5411 JUMP JUMPDEST SWAP2 POP PUSH2 0x5767 DUP7 PUSH1 0x80 DUP8 ADD PUSH2 0x5411 JUMP JUMPDEST SWAP1 POP SWAP3 SWAP6 SWAP2 SWAP5 POP SWAP3 POP JUMP JUMPDEST PUSH1 0x0 DUP1 PUSH1 0x0 DUP1 PUSH1 0x0 PUSH2 0x100 DUP7 DUP9 SUB SLT ISZERO PUSH2 0x578A JUMPI DUP3 DUP4 REVERT JUMPDEST DUP6 CALLDATALOAD PUSH2 0x5795 DUP2 PUSH2 0x5E9E JUMP JUMPDEST SWAP5 POP PUSH1 0x20 DUP7 ADD CALLDATALOAD SWAP4 POP PUSH2 0x57AB DUP8 PUSH1 0x40 DUP9 ADD PUSH2 0x5411 JUMP JUMPDEST SWAP3 POP PUSH2 0x57BA DUP8 PUSH1 0x80 DUP9 ADD PUSH2 0x5411 JUMP JUMPDEST SWAP2 POP PUSH2 0x57C9 DUP8 PUSH1 0xC0 DUP9 ADD PUSH2 0x5411 JUMP JUMPDEST SWAP1 POP SWAP3 SWAP6 POP SWAP3 SWAP6 SWAP1 SWAP4 POP JUMP JUMPDEST PUSH1 0x0 DUP1 PUSH1 0x40 DUP4 DUP6 SUB SLT ISZERO PUSH2 0x57E7 JUMPI DUP2 DUP3 REVERT JUMPDEST DUP3 CALLDATALOAD PUSH2 0x57F2 DUP2 PUSH2 0x5E9E JUMP JUMPDEST SWAP2 POP PUSH2 0x5800 PUSH1 0x20 DUP5 ADD PUSH2 0x5520 JUMP JUMPDEST SWAP1 POP SWAP3 POP SWAP3 SWAP1 POP JUMP JUMPDEST PUSH1 0x0 PUSH1 0x20 DUP1 DUP4 DUP6 SUB SLT ISZERO PUSH2 0x581B JUMPI DUP2 DUP3 REVERT JUMPDEST DUP3 MLOAD PUSH8 0xFFFFFFFFFFFFFFFF DUP1 DUP3 GT ISZERO PUSH2 0x5832 JUMPI DUP4 DUP5 REVERT JUMPDEST DUP2 DUP6 ADD SWAP2 POP DUP6 PUSH1 0x1F DUP4 ADD SLT PUSH2 0x5845 JUMPI DUP4 DUP5 REVERT JUMPDEST DUP2 MLOAD PUSH2 0x5853 PUSH2 0x5201 DUP3 PUSH2 0x5E80 JUMP JUMPDEST DUP2 DUP2 MSTORE DUP5 DUP2 ADD SWAP1 DUP5 DUP7 ADD DUP8 JUMPDEST DUP5 DUP2 LT ISZERO PUSH2 0x5908 JUMPI DUP2 MLOAD DUP8 ADD PUSH1 0x80 DUP2 DUP14 SUB PUSH1 0x1F NOT ADD SLT ISZERO PUSH2 0x587E JUMPI DUP10 DUP11 REVERT JUMPDEST PUSH1 0x40 DUP1 MLOAD PUSH1 0x80 DUP2 ADD DUP2 DUP2 LT DUP11 DUP3 GT OR ISZERO PUSH2 0x5894 JUMPI INVALID JUMPDEST DUP3 MSTORE DUP3 DUP12 ADD MLOAD DUP10 DUP2 GT ISZERO PUSH2 0x58A6 JUMPI DUP13 DUP14 REVERT JUMPDEST PUSH2 0x58B4 DUP16 DUP14 DUP4 DUP8 ADD ADD PUSH2 0x51E1 JUMP JUMPDEST DUP3 MSTORE POP DUP2 DUP4 ADD MLOAD DUP10 DUP2 GT ISZERO PUSH2 0x58C7 JUMPI DUP13 DUP14 REVERT JUMPDEST PUSH2 0x58D5 DUP16 DUP14 DUP4 DUP8 ADD ADD PUSH2 0x5256 JUMP JUMPDEST DUP13 DUP4 ADD MSTORE POP PUSH1 0x60 DUP4 ADD MLOAD DUP3 DUP3 ADD MSTORE PUSH2 0x58EF PUSH1 0x80 DUP5 ADD PUSH2 0x51D6 JUMP JUMPDEST PUSH1 0x60 DUP3 ADD MSTORE DUP7 MSTORE POP POP SWAP3 DUP8 ADD SWAP3 SWAP1 DUP8 ADD SWAP1 PUSH1 0x1 ADD PUSH2 0x585F JUMP JUMPDEST POP SWAP1 SWAP10 SWAP9 POP POP POP POP POP POP POP POP POP JUMP JUMPDEST PUSH1 0x0 PUSH1 0x20 DUP3 DUP5 SUB SLT ISZERO PUSH2 0x5928 JUMPI DUP1 DUP2 REVERT JUMPDEST POP MLOAD SWAP2 SWAP1 POP JUMP JUMPDEST PUSH1 0x0 PUSH2 0x1E0 DUP3 DUP5 SUB SLT ISZERO PUSH2 0x5941 JUMPI DUP1 DUP2 REVERT JUMPDEST PUSH2 0x594C PUSH2 0x1A0 PUSH2 0x5E5C JUMP JUMPDEST PUSH2 0x5955 DUP4 PUSH2 0x54FF JUMP JUMPDEST DUP2 MSTORE PUSH2 0x5963 PUSH1 0x20 DUP5 ADD PUSH2 0x54FF JUMP JUMPDEST PUSH1 0x20 DUP3 ADD MSTORE PUSH2 0x5974 PUSH1 0x40 DUP5 ADD PUSH2 0x550A JUMP JUMPDEST PUSH1 0x40 DUP3 ADD MSTORE PUSH2 0x5985 PUSH1 0x60 DUP5 ADD PUSH2 0x54FF JUMP JUMPDEST PUSH1 0x60 DUP3 ADD MSTORE PUSH2 0x5996 PUSH1 0x80 DUP5 ADD PUSH2 0x5537 JUMP JUMPDEST PUSH1 0x80 DUP3 ADD MSTORE PUSH2 0x59A7 PUSH1 0xA0 DUP5 ADD PUSH2 0x5537 JUMP JUMPDEST PUSH1 0xA0 DUP3 ADD MSTORE PUSH2 0x59B8 PUSH1 0xC0 DUP5 ADD PUSH2 0x5537 JUMP JUMPDEST PUSH1 0xC0 DUP3 ADD MSTORE PUSH2 0x59C9 PUSH1 0xE0 DUP5 ADD PUSH2 0x5537 JUMP JUMPDEST PUSH1 0xE0 DUP3 ADD MSTORE PUSH2 0x100 PUSH2 0x59DC DUP2 DUP6 ADD PUSH2 0x54FF JUMP JUMPDEST SWAP1 DUP3 ADD MSTORE PUSH2 0x120 PUSH2 0x59EF DUP6 DUP6 DUP4 ADD PUSH2 0x53A3 JUMP JUMPDEST SWAP1 DUP3 ADD MSTORE PUSH2 0x160 PUSH2 0x5A01 DUP5 DUP3 ADD PUSH2 0x54FF JUMP JUMPDEST PUSH2 0x140 DUP4 ADD MSTORE PUSH2 0x180 PUSH2 0x5A16 DUP7 DUP3 DUP8 ADD PUSH2 0x5486 JUMP JUMPDEST DUP3 DUP5 ADD MSTORE PUSH2 0x5A27 PUSH2 0x1C0 DUP7 ADD PUSH2 0x5537 JUMP JUMPDEST SWAP1 DUP4 ADD MSTORE POP SWAP4 SWAP3 POP POP POP JUMP JUMPDEST PUSH1 0x0 DUP1 PUSH1 0x40 DUP4 DUP6 SUB SLT ISZERO PUSH2 0x5A45 JUMPI DUP2 DUP3 REVERT JUMPDEST POP POP DUP1 MLOAD PUSH1 0x20 SWAP1 SWAP2 ADD MLOAD SWAP1 SWAP3 SWAP1 SWAP2 POP JUMP JUMPDEST PUSH1 0x0 PUSH1 0x20 DUP3 DUP5 SUB SLT ISZERO PUSH2 0x5A67 JUMPI DUP1 DUP2 REVERT JUMPDEST DUP2 CALLDATALOAD PUSH2 0x2019 DUP2 PUSH2 0x5EC6 JUMP JUMPDEST DUP1 PUSH1 0x0 JUMPDEST PUSH1 0x2 DUP2 LT ISZERO PUSH2 0x1FEC JUMPI DUP2 MLOAD PUSH2 0xFFFF AND DUP5 MSTORE PUSH1 0x20 SWAP4 DUP5 ADD SWAP4 SWAP1 SWAP2 ADD SWAP1 PUSH1 0x1 ADD PUSH2 0x5A76 JUMP JUMPDEST DUP1 PUSH1 0x0 JUMPDEST PUSH1 0x2 DUP2 LT ISZERO PUSH2 0x1FEC JUMPI DUP2 MLOAD DUP5 MSTORE PUSH1 0x20 SWAP4 DUP5 ADD SWAP4 SWAP1 SWAP2 ADD SWAP1 PUSH1 0x1 ADD PUSH2 0x5A9D JUMP JUMPDEST PUSH1 0x0 DUP2 MLOAD DUP1 DUP5 MSTORE PUSH1 0x20 DUP1 DUP6 ADD SWAP5 POP DUP1 DUP5 ADD DUP4 JUMPDEST DUP4 DUP2 LT ISZERO PUSH2 0x5AEB JUMPI DUP2 MLOAD DUP8 MSTORE SWAP6 DUP3 ADD SWAP6 SWAP1 DUP3 ADD SWAP1 PUSH1 0x1 ADD PUSH2 0x5ACF JUMP JUMPDEST POP SWAP5 SWAP6 SWAP5 POP POP POP POP POP JUMP JUMPDEST PUSH2 0xFFFF AND SWAP1 MSTORE JUMP JUMPDEST PUSH1 0xFF AND SWAP1 MSTORE JUMP JUMPDEST PUSH1 0x1 PUSH1 0x1 PUSH1 0xA0 SHL SUB SWAP2 SWAP1 SWAP2 AND DUP2 MSTORE PUSH1 0x20 ADD SWAP1 JUMP JUMPDEST PUSH1 0x1 PUSH1 0x1 PUSH1 0xA0 SHL SUB SWAP4 DUP5 AND DUP2 MSTORE SWAP2 SWAP1 SWAP3 AND PUSH1 0x20 DUP3 ADD MSTORE PUSH1 0x40 DUP2 ADD SWAP2 SWAP1 SWAP2 MSTORE PUSH1 0x60 ADD SWAP1 JUMP JUMPDEST PUSH1 0x1 PUSH1 0x1 PUSH1 0xA0 SHL SUB SWAP3 SWAP1 SWAP3 AND DUP3 MSTORE PUSH1 0x20 DUP3 ADD MSTORE PUSH1 0x40 ADD SWAP1 JUMP JUMPDEST PUSH1 0x40 DUP2 ADD DUP2 DUP4 PUSH1 0x0 JUMPDEST PUSH1 0x2 DUP2 LT ISZERO PUSH2 0x5B7E JUMPI DUP2 MLOAD DUP4 MSTORE PUSH1 0x20 SWAP3 DUP4 ADD SWAP3 SWAP1 SWAP2 ADD SWAP1 PUSH1 0x1 ADD PUSH2 0x5B5F JUMP JUMPDEST POP POP POP SWAP3 SWAP2 POP POP JUMP JUMPDEST PUSH1 0x0 PUSH1 0x40 DUP3 MSTORE PUSH2 0x5B9A PUSH1 0x40 DUP4 ADD DUP6 PUSH2 0x5ABC JUMP JUMPDEST DUP3 DUP2 SUB PUSH1 0x20 DUP5 ADD MSTORE PUSH2 0x1BBE DUP2 DUP6 PUSH2 0x5ABC JUMP JUMPDEST SWAP1 ISZERO ISZERO DUP2 MSTORE PUSH1 0x20 ADD SWAP1 JUMP JUMPDEST SWAP2 ISZERO ISZERO DUP3 MSTORE PUSH1 0x1 PUSH1 0x1 PUSH1 0x50 SHL SUB AND PUSH1 0x20 DUP3 ADD MSTORE PUSH1 0x40 ADD SWAP1 JUMP JUMPDEST PUSH1 0x20 DUP1 DUP3 MSTORE PUSH1 0xD SWAP1 DUP3 ADD MSTORE PUSH13 0x109BDC9C9BDDC811985A5B1959 PUSH1 0x9A SHL PUSH1 0x40 DUP3 ADD MSTORE PUSH1 0x60 ADD SWAP1 JUMP JUMPDEST PUSH1 0x20 DUP1 DUP3 MSTORE PUSH1 0xB SWAP1 DUP3 ADD MSTORE PUSH11 0x4554482042616C616E6365 PUSH1 0xA8 SHL PUSH1 0x40 DUP3 ADD MSTORE PUSH1 0x60 ADD SWAP1 JUMP JUMPDEST PUSH1 0x20 DUP1 DUP3 MSTORE PUSH1 0xD SWAP1 DUP3 ADD MSTORE PUSH13 0x92DCECC2D8D2C840D2DCC8CAF PUSH1 0x9B SHL PUSH1 0x40 DUP3 ADD MSTORE PUSH1 0x60 ADD SWAP1 JUMP JUMPDEST PUSH1 0x20 DUP1 DUP3 MSTORE PUSH1 0x1D SWAP1 DUP3 ADD MSTORE PUSH32 0x496E73756666696369656E74205365636F6E6461727920426F72726F77000000 PUSH1 0x40 DUP3 ADD MSTORE PUSH1 0x60 ADD SWAP1 JUMP JUMPDEST PUSH1 0x20 DUP1 DUP3 MSTORE PUSH1 0xC SWAP1 DUP3 ADD MSTORE PUSH12 0x4D6178204361706163697479 PUSH1 0xA0 SHL PUSH1 0x40 DUP3 ADD MSTORE PUSH1 0x60 ADD SWAP1 JUMP JUMPDEST PUSH1 0x20 DUP1 DUP3 MSTORE PUSH1 0xA SWAP1 DUP3 ADD MSTORE PUSH10 0x6D696E20626F72726F77 PUSH1 0xB0 SHL PUSH1 0x40 DUP3 ADD MSTORE PUSH1 0x60 ADD SWAP1 JUMP JUMPDEST PUSH1 0x20 DUP1 DUP3 MSTORE DUP2 DUP2 ADD MSTORE PUSH32 0x4F776E61626C653A2063616C6C6572206973206E6F7420746865206F776E6572 PUSH1 0x40 DUP3 ADD MSTORE PUSH1 0x60 ADD SWAP1 JUMP JUMPDEST PUSH1 0x0 PUSH2 0x1E0 DUP3 ADD SWAP1 POP PUSH2 0x5D0D DUP3 DUP5 MLOAD PUSH2 0x5AF6 JUMP JUMPDEST PUSH1 0x20 DUP4 ADD MLOAD PUSH2 0x5D1F PUSH1 0x20 DUP5 ADD DUP3 PUSH2 0x5AF6 JUMP JUMPDEST POP PUSH1 0x40 DUP4 ADD MLOAD PUSH1 0x40 DUP4 ADD MSTORE PUSH1 0x60 DUP4 ADD MLOAD PUSH2 0x5D3C PUSH1 0x60 DUP5 ADD DUP3 PUSH2 0x5AF6 JUMP JUMPDEST POP PUSH1 0x80 DUP4 ADD MLOAD PUSH2 0x5D4F PUSH1 0x80 DUP5 ADD DUP3 PUSH2 0x5AFE JUMP JUMPDEST POP PUSH1 0xA0 DUP4 ADD MLOAD PUSH2 0x5D62 PUSH1 0xA0 DUP5 ADD DUP3 PUSH2 0x5AFE JUMP JUMPDEST POP PUSH1 0xC0 DUP4 ADD MLOAD PUSH2 0x5D75 PUSH1 0xC0 DUP5 ADD DUP3 PUSH2 0x5AFE JUMP JUMPDEST POP PUSH1 0xE0 DUP4 ADD MLOAD PUSH2 0x5D88 PUSH1 0xE0 DUP5 ADD DUP3 PUSH2 0x5AFE JUMP JUMPDEST POP PUSH2 0x100 DUP1 DUP5 ADD MLOAD PUSH2 0x5D9C DUP3 DUP6 ADD DUP3 PUSH2 0x5AF6 JUMP JUMPDEST POP POP PUSH2 0x120 DUP1 DUP5 ADD MLOAD PUSH2 0x5DB1 DUP3 DUP6 ADD DUP3 PUSH2 0x5A72 JUMP JUMPDEST POP POP PUSH2 0x140 DUP4 ADD MLOAD PUSH2 0x160 PUSH2 0x5DC8 DUP2 DUP6 ADD DUP4 PUSH2 0x5AF6 JUMP JUMPDEST DUP5 ADD MLOAD SWAP1 POP PUSH2 0x180 PUSH2 0x5DDC DUP5 DUP3 ADD DUP4 PUSH2 0x5A99 JUMP JUMPDEST DUP5 ADD MLOAD SWAP1 POP PUSH2 0x5DEF PUSH2 0x1C0 DUP5 ADD DUP3 PUSH2 0x5AFE JUMP JUMPDEST POP SWAP3 SWAP2 POP POP JUMP JUMPDEST PUSH2 0xFFFF SWAP4 SWAP1 SWAP4 AND DUP4 MSTORE PUSH1 0x1 PUSH1 0x1 PUSH1 0xA0 SHL SUB SWAP2 SWAP1 SWAP2 AND PUSH1 0x20 DUP4 ADD MSTORE PUSH1 0x40 DUP3 ADD MSTORE PUSH1 0x60 ADD SWAP1 JUMP JUMPDEST SWAP1 DUP2 MSTORE PUSH1 0x20 ADD SWAP1 JUMP JUMPDEST SWAP2 DUP3 MSTORE PUSH1 0x20 DUP3 ADD MSTORE PUSH1 0x40 ADD SWAP1 JUMP JUMPDEST SWAP3 DUP4 MSTORE PUSH1 0x20 DUP4 ADD SWAP2 SWAP1 SWAP2 MSTORE PUSH1 0x40 DUP3 ADD MSTORE PUSH1 0x60 ADD SWAP1 JUMP JUMPDEST PUSH1 0x1 PUSH1 0x1 PUSH1 0x50 SHL SUB SWAP2 SWAP1 SWAP2 AND DUP2 MSTORE PUSH1 0x20 ADD SWAP1 JUMP JUMPDEST PUSH1 0x40 MLOAD DUP2 DUP2 ADD PUSH8 0xFFFFFFFFFFFFFFFF DUP2 GT DUP3 DUP3 LT OR ISZERO PUSH2 0x5E78 JUMPI INVALID JUMPDEST PUSH1 0x40 MSTORE SWAP2 SWAP1 POP JUMP JUMPDEST PUSH1 0x0 PUSH8 0xFFFFFFFFFFFFFFFF DUP3 GT ISZERO PUSH2 0x5E94 JUMPI INVALID JUMPDEST POP PUSH1 0x20 SWAP1 DUP2 MUL ADD SWAP1 JUMP JUMPDEST PUSH1 0x1 PUSH1 0x1 PUSH1 0xA0 SHL SUB DUP2 AND DUP2 EQ PUSH2 0x5EB3 JUMPI PUSH1 0x0 DUP1 REVERT JUMPDEST POP JUMP JUMPDEST PUSH2 0xFFFF DUP2 AND DUP2 EQ PUSH2 0x5EB3 JUMPI PUSH1 0x0 DUP1 REVERT JUMPDEST PUSH4 0xFFFFFFFF DUP2 AND DUP2 EQ PUSH2 0x5EB3 JUMPI PUSH1 0x0 DUP1 REVERT JUMPDEST PUSH1 0xFF DUP2 AND DUP2 EQ PUSH2 0x5EB3 JUMPI PUSH1 0x0 DUP1 REVERT INVALID 0xC3 0xD5 DUP2 PUSH9 0xC5AE7397731D063D5B 0xBF RETURNDATASIZE PUSH6 0x7854427343F4 0xC0 DUP4 0x24 0xF PUSH27 0xACAA2D0F62A2646970667358221220B45453F8E8ED543A726A092A MSTORE8 EXP 0xCE SWAP4 PUSH3 0x9F5970 0xC8 CODESIZE 0xC7 0x4C 0xFB 0xF EQ REVERT DUP11 0xCF GAS 0x4F PUSH5 0x736F6C6343 STOP SMOD MOD STOP CALLER ","sha1":"70207e216e768925cf7818b350e6ea4627342f97","source":"// SPDX-License-Identifier: GPL-3.0-only\npragma solidity =0.7.6;\npragma abicoder v2;\n\nimport {\n    VaultState,\n    VaultConfig,\n    VaultConfigStorage,\n    VaultConfigParams,\n    VaultStateStorage,\n    VaultBorrowCapacityStorage,\n    VaultAccount,\n    Token,\n    PrimeRate\n} from \"../../global/Types.sol\";\nimport {Constants} from \"../../global/Constants.sol\";\nimport {LibStorage} from \"../../global/LibStorage.sol\";\nimport {SafeUint256} from \"../../math/SafeUint256.sol\";\nimport {SafeInt256} from \"../../math/SafeInt256.sol\";\nimport {FloatingPoint} from \"../../math/FloatingPoint.sol\";\n\nimport {Emitter} from \"../../internal/Emitter.sol\";\nimport {PrimeRateLib} from \"../../internal/pCash/PrimeRateLib.sol\";\nimport {PrimeCashExchangeRate} from \"../../internal/pCash/PrimeCashExchangeRate.sol\";\nimport {TokenHandler} from \"../../internal/balances/TokenHandler.sol\";\nimport {VaultConfiguration} from \"../../internal/vaults/VaultConfiguration.sol\";\nimport {VaultAccountLib} from \"../../internal/vaults/VaultAccount.sol\";\nimport {VaultStateLib} from \"../../internal/vaults/VaultState.sol\";\nimport {VaultSecondaryBorrow} from \"../../internal/vaults/VaultSecondaryBorrow.sol\";\n\nimport {IVaultAction, IVaultAccountHealth} from \"../../../interfaces/notional/IVaultController.sol\";\nimport {ActionGuards} from \"./ActionGuards.sol\";\nimport {TradingAction} from \"./TradingAction.sol\";\n\ncontract VaultAction is ActionGuards, IVaultAction {\n    using VaultConfiguration for VaultConfig;\n    using VaultAccountLib for VaultAccount;\n    using VaultStateLib for VaultState;\n    using PrimeRateLib for PrimeRate;\n    using TokenHandler for Token;\n    using SafeInt256 for int256;\n    using SafeUint256 for uint256;\n\n    /// @notice Updates or lists a deployed vault along with its configuration.\n    /// @param vaultAddress address of deployed vault\n    /// @param vaultParams struct of vault configuration\n    /// @param maxPrimaryBorrowCapacity maximum borrow capacity\n    function updateVault(\n        address vaultAddress,\n        VaultConfigParams memory vaultParams,\n        uint80 maxPrimaryBorrowCapacity\n    ) external override onlyOwner {\n        // Vault Params have borrow sizes specified in full unit precision. Before they are written to\n        // storage they are packed to 32 bits. This functions like the total prime supply in underlying.\n        vaultParams.minAccountBorrowSize = FloatingPoint.packTo32Bits(vaultParams.minAccountBorrowSize);\n        vaultParams.minAccountSecondaryBorrow[0] = FloatingPoint.packTo32Bits(vaultParams.minAccountSecondaryBorrow[0]);\n        vaultParams.minAccountSecondaryBorrow[1] = FloatingPoint.packTo32Bits(vaultParams.minAccountSecondaryBorrow[1]);\n        VaultConfigStorage memory vaultConfig = abi.decode(abi.encode(vaultParams), (VaultConfigStorage));\n\n        VaultConfiguration.setVaultConfig(vaultAddress, vaultConfig);\n        VaultConfiguration.setMaxBorrowCapacity(vaultAddress, vaultConfig.borrowCurrencyId, maxPrimaryBorrowCapacity);\n        bool enabled = (vaultConfig.flags & VaultConfiguration.ENABLED) == VaultConfiguration.ENABLED;\n        emit VaultUpdated(vaultAddress, enabled, maxPrimaryBorrowCapacity);\n    }\n\n    /// @notice Enables or disables a vault. If a vault is disabled, no one can enter\n    /// the vault but exits are still possible.\n    /// @param vaultAddress address of deployed vault\n    /// @param enable true if the vault should be enabled immediately\n    function setVaultPauseStatus(\n        address vaultAddress,\n        bool enable\n    ) external override onlyOwner {\n        VaultConfiguration.setVaultEnabledStatus(vaultAddress, enable);\n        emit VaultPauseStatus(vaultAddress, enable);\n    }\n\n    /// @notice Enables or disables deleverage on a vault.\n    /// @param vaultAddress address of deployed vault\n    /// @param disableDeleverage true if the vault deleverage should be disabled\n    function setVaultDeleverageStatus(\n        address vaultAddress,\n        bool disableDeleverage\n    ) external override onlyOwner {\n        VaultConfiguration.setVaultDeleverageStatus(vaultAddress, disableDeleverage);\n        emit VaultDeleverageStatus(vaultAddress, disableDeleverage);\n    }\n\n    /// @notice Whitelists a secondary borrow currency for a vault, vaults can borrow up to the capacity\n    /// using the `borrowSecondaryCurrencyToVault` and `repaySecondaryCurrencyToVault` methods. Vaults that\n    /// use a secondary currency must ALWAYS repay the secondary debt during redemption and handle accounting\n    /// for the secondary currency themselves.\n    /// @param vaultAddress address of deployed vault\n    /// @param secondaryCurrencyId struct of vault configuration\n    /// @param maxBorrowCapacity maximum borrow capacity\n    function updateSecondaryBorrowCapacity(\n        address vaultAddress,\n        uint16 secondaryCurrencyId,\n        uint80 maxBorrowCapacity\n    ) external override onlyOwner {\n        VaultConfig memory vaultConfig = VaultConfiguration.getVaultConfigStateful(vaultAddress);\n        // Tokens with transfer fees create lots of issues with vault mechanics, we prevent them\n        // from being listed here.\n        Token memory underlyingToken = TokenHandler.getUnderlyingToken(secondaryCurrencyId);\n        require(!underlyingToken.hasTransferFee); \n\n        // The secondary borrow currency must be white listed on the configuration before we can set a max\n        // capacity.\n        require(\n            secondaryCurrencyId == vaultConfig.secondaryBorrowCurrencies[0] ||\n            secondaryCurrencyId == vaultConfig.secondaryBorrowCurrencies[1]\n        );\n\n        VaultConfiguration.setMaxBorrowCapacity(vaultAddress, secondaryCurrencyId, maxBorrowCapacity);\n        emit VaultUpdateSecondaryBorrowCapacity(vaultAddress, secondaryCurrencyId, maxBorrowCapacity);\n    }\n\n\n    /// @notice Allows the owner to reduce the max borrow capacity on the vault\n    /// @param vaultAddress address of the vault\n    /// @param maxVaultBorrowCapacity the new max vault borrow capacity on the primary currency\n    function setMaxBorrowCapacity(\n        address vaultAddress,\n        uint80 maxVaultBorrowCapacity\n    ) external override onlyOwner {\n        VaultConfig memory vaultConfig = VaultConfiguration.getVaultConfigStateful(vaultAddress);\n        VaultConfiguration.setMaxBorrowCapacity(vaultAddress, vaultConfig.borrowCurrencyId, maxVaultBorrowCapacity);\n\n        emit VaultUpdated(vaultAddress, vaultConfig.getFlag(VaultConfiguration.ENABLED), maxVaultBorrowCapacity);\n    }\n\n    /// @notice Allows a vault to borrow a secondary currency if it is whitelisted to do so\n    /// @param account account that is borrowing the secondary currency\n    /// @param maturity the maturity to borrow at\n    /// @param underlyingToBorrow fCash to borrow for the first and second secondary currencies\n    /// @param maxBorrowRate maximum borrow rate for the first and second secondary currencies\n    /// @param minRollLendRate max roll lend rate for the first and second borrow currencies\n    /// @return underlyingTokensTransferred amount of tokens transferred back to the vault\n    function borrowSecondaryCurrencyToVault(\n        address account,\n        uint256 maturity,\n        uint256[2] calldata underlyingToBorrow,\n        uint32[2] calldata maxBorrowRate,\n        uint32[2] calldata minRollLendRate\n    ) external override returns (int256[2] memory underlyingTokensTransferred) {\n        // This method call must come from the vault\n        VaultConfig memory vaultConfig = VaultConfiguration.getVaultConfigStateful(msg.sender);\n        // This also ensures that the caller is an actual vault\n        require(vaultConfig.getFlag(VaultConfiguration.ENABLED));\n        // Vaults cannot initiate borrows for themselves\n        require(account != msg.sender);\n        require(vaultConfig.hasSecondaryBorrows());\n\n        PrimeRate[2] memory pr = VaultSecondaryBorrow.getSecondaryPrimeRateStateful(vaultConfig);\n        (\n            uint256 accountMaturity,\n            int256 accountDebtOne,\n            int256 accountDebtTwo\n        ) = VaultSecondaryBorrow.getAccountSecondaryDebt(vaultConfig, account, pr);\n        \n        int256 netPrimeCashOne;\n        int256 netPrimeCashTwo;\n        // If the borrower is rolling their primary debt forward, we need to check that here and roll\n        // their secondary debt forward in the same manner (simulate lending and then borrow more in\n        // a longer dated maturity to repay their borrowing). Rolling debts forward can only occur if:\n        //  - borrower has an existing debt position\n        //  - borrower is rolling to a longer dated maturity\n        //  - vault allows rolling positions forward\n        if (\n            accountMaturity != 0 &&\n            accountMaturity != maturity &&\n            vaultConfig.getFlag(VaultConfiguration.ALLOW_ROLL_POSITION)\n        ) {\n            // Lend to repay both debts if rolling\n            (netPrimeCashOne, netPrimeCashTwo) = VaultSecondaryBorrow.executeSecondary(\n                vaultConfig,\n                account,\n                accountMaturity,\n                accountDebtOne.neg(),\n                accountDebtTwo.neg(),\n                pr,\n                minRollLendRate\n            );\n        }\n\n        (netPrimeCashOne, netPrimeCashTwo) = _borrowSecondary(\n            vaultConfig, account, maturity, underlyingToBorrow, maxBorrowRate, netPrimeCashOne, netPrimeCashTwo, pr\n        );\n        require(netPrimeCashOne >= 0, \"Insufficient Secondary Borrow\");\n        require(netPrimeCashTwo >= 0, \"Insufficient Secondary Borrow\");\n\n        underlyingTokensTransferred[0] = _transferSecondary(\n            msg.sender, account, vaultConfig.secondaryBorrowCurrencies[0], netPrimeCashOne, pr[0], false\n        );\n        underlyingTokensTransferred[1] = _transferSecondary(\n            msg.sender, account, vaultConfig.secondaryBorrowCurrencies[1], netPrimeCashTwo, pr[1], false\n        );\n    }\n\n    function _borrowSecondary(\n        VaultConfig memory vaultConfig,\n        address account,\n        uint256 maturity,\n        uint256[2] calldata underlyingToBorrow,\n        uint32[2] calldata maxBorrowRate,\n        int256 netPrimeCashOne,\n        int256 netPrimeCashTwo,\n        PrimeRate[2] memory pr\n    ) private returns (int256, int256) {\n        (int256 netPrimeBorrowedOne, int256 netPrimeBorrowedTwo) = VaultSecondaryBorrow.executeSecondary(\n            vaultConfig,\n            account,\n            maturity,\n            underlyingToBorrow[0].toInt().neg(),\n            underlyingToBorrow[1].toInt().neg(),\n            pr,\n            maxBorrowRate\n        );\n\n        return (\n            netPrimeCashOne.add(netPrimeBorrowedOne),\n            netPrimeCashTwo.add(netPrimeBorrowedTwo)\n        );\n    }\n\n    /// @notice Allows a vault to repay a secondary currency that it has borrowed. Will be executed via a callback\n    /// which will request that the vault repay a specific amount of underlying tokens.\n    /// @param account account that is repaying the secondary currency\n    /// @param maturity the maturity to lend at\n    /// @param underlyingToRepay amount of debt shares to repay (used to calculate fCashToLend)\n    /// @param minLendRate minimum lend rate\n    /// @return underlyingDepositExternal the amount of underlying transferred from the vault\n    function repaySecondaryCurrencyFromVault(\n        address account,\n        uint256 maturity,\n        uint256[2] calldata underlyingToRepay,\n        uint32[2] calldata minLendRate\n    ) external payable override returns (int256[2] memory underlyingDepositExternal) {\n        // Vaults cannot repay borrows for themselves\n        require(account != msg.sender);\n\n        // This method call must come from the vault\n        VaultConfig memory vaultConfig = VaultConfiguration.getVaultConfigStateful(msg.sender);\n        require(vaultConfig.getFlag(VaultConfiguration.ENABLED));\n        require(vaultConfig.hasSecondaryBorrows());\n\n        PrimeRate[2] memory pr = VaultSecondaryBorrow.getSecondaryPrimeRateStateful(vaultConfig);\n        // It is possible for netPrimeCash to be positive here, where the vault will receive tokens\n        // as a result of \"repayment\"\n        (int256 netPrimeCashOne, int256 netPrimeCashTwo) = VaultSecondaryBorrow.executeSecondary(\n            vaultConfig,\n            account,\n            maturity,\n            underlyingToRepay[0].toInt(),\n            underlyingToRepay[1].toInt(),\n            pr,\n            minLendRate\n        );\n\n        underlyingDepositExternal[0] = _transferSecondary(\n            msg.sender, account, vaultConfig.secondaryBorrowCurrencies[0], netPrimeCashOne, pr[0], true\n        );\n        underlyingDepositExternal[1] = _transferSecondary(\n            msg.sender, account, vaultConfig.secondaryBorrowCurrencies[1], netPrimeCashTwo, pr[1], true\n        );\n    }\n\n    function settleSecondaryBorrowForAccount(\n        address vault,\n        address account\n    ) external override {\n        // Only allow this to be called during settle vault account. Cannot be called directly.\n        require(msg.sender == address(this)); // dev: unauthorized\n        VaultConfig memory vaultConfig = VaultConfiguration.getVaultConfigStateful(vault);\n        VaultSecondaryBorrow.settleSecondaryBorrow(vaultConfig, account);\n    }\n\n    function _transferSecondary(\n        address vault,\n        address account,\n        uint16 currencyId,\n        int256 netPrimeCash,\n        PrimeRate memory pr,\n        bool isRepayment\n    ) private returns (int256 underlyingTokensTransferred) {\n\n        // ETH transfers to the vault are always in native ETH, not wrapped\n        if (netPrimeCash > 0 && isRepayment) {\n            // If there is a refund to the account during repayment, then send the\n            // excess tokens back to the account directly. In that case we need to:\n\n            // Burn Vault Cash on the account (has occurred already)\n            // Transfer prime cash to the account\n            // Burn Prime Cash on the account (will occur in transfer from notional)\n            // NOTE: this does not go to receiver...\n            Emitter.emitTransferPrimeCash(vault, account, currencyId, netPrimeCash);\n            VaultConfiguration.transferFromNotional(account, currencyId, netPrimeCash, pr, false);\n        } else if (netPrimeCash > 0) {\n            underlyingTokensTransferred = VaultConfiguration.transferFromNotional(\n                vault, currencyId, netPrimeCash, pr, false\n            ).toInt().neg();\n        } else {\n            underlyingTokensTransferred = TokenHandler.depositExactToMintPrimeCash(\n                vault, currencyId, netPrimeCash.neg(), pr, false\n            );\n        }\n    }\n\n\n    function getLibInfo() external pure returns (address) {\n        return address(TradingAction);\n    }\n}","sourcePath":"contracts/external/actions/VaultAction.sol","type":"contract","deployment":{"address":"0xbFda74061fB4D39602da10Cc4F66dD087e99a638","chainid":"42161","blockHeight":126167942}}