{"abi":[{"inputs":[{"internalType":"address","name":"account","type":"address"},{"internalType":"uint16","name":"currencyId","type":"uint16"},{"internalType":"uint256","name":"amountExternalPrecision","type":"uint256"}],"name":"depositAssetToken","outputs":[{"internalType":"uint256","name":"","type":"uint256"}],"stateMutability":"nonpayable","type":"function"},{"inputs":[{"internalType":"address","name":"account","type":"address"},{"internalType":"uint16","name":"currencyId","type":"uint16"},{"internalType":"uint256","name":"amountExternalPrecision","type":"uint256"}],"name":"depositUnderlyingToken","outputs":[{"internalType":"uint256","name":"","type":"uint256"}],"stateMutability":"payable","type":"function"},{"inputs":[{"internalType":"uint16","name":"currencyId","type":"uint16"}],"name":"enableBitmapCurrency","outputs":[],"stateMutability":"nonpayable","type":"function"},{"inputs":[{"internalType":"bool","name":"allowPrimeBorrow","type":"bool"}],"name":"enablePrimeBorrow","outputs":[],"stateMutability":"nonpayable","type":"function"},{"inputs":[],"name":"getLibInfo","outputs":[{"internalType":"address","name":"","type":"address"},{"internalType":"address","name":"","type":"address"},{"internalType":"address","name":"","type":"address"},{"internalType":"address","name":"","type":"address"}],"stateMutability":"pure","type":"function"},{"inputs":[{"internalType":"address","name":"redeemer","type":"address"},{"internalType":"uint16","name":"currencyId","type":"uint16"},{"internalType":"uint96","name":"tokensToRedeem_","type":"uint96"},{"internalType":"bool","name":"sellTokenAssets","type":"bool"},{"internalType":"bool","name":"acceptResidualAssets","type":"bool"}],"name":"nTokenRedeem","outputs":[{"internalType":"int256","name":"","type":"int256"},{"internalType":"bool","name":"","type":"bool"}],"stateMutability":"nonpayable","type":"function"},{"inputs":[],"name":"owner","outputs":[{"internalType":"address","name":"","type":"address"}],"stateMutability":"view","type":"function"},{"inputs":[],"name":"pauseGuardian","outputs":[{"internalType":"address","name":"","type":"address"}],"stateMutability":"view","type":"function"},{"inputs":[],"name":"pauseRouter","outputs":[{"internalType":"address","name":"","type":"address"}],"stateMutability":"view","type":"function"},{"inputs":[{"internalType":"address","name":"account","type":"address"}],"name":"settleAccount","outputs":[{"internalType":"bool","name":"","type":"bool"}],"stateMutability":"nonpayable","type":"function"},{"inputs":[{"internalType":"uint16","name":"currencyId","type":"uint16"},{"internalType":"uint88","name":"amountInternalPrecision","type":"uint88"},{"internalType":"bool","name":"redeemToUnderlying","type":"bool"}],"name":"withdraw","outputs":[{"internalType":"uint256","name":"","type":"uint256"}],"stateMutability":"nonpayable","type":"function"}],"bytecode":"608060405234801561001057600080fd5b50614e3b806100206000396000f3fe60806040526004361061009c5760003560e01c80638246336711610064578063824633671461015c5780638da5cb5b146101715780639c97945014610186578063b8a69455146101a6578063c4c96dae146101c6578063f667f897146101eb5761009c565b806302f332e8146100a157806324a3d622146100d75780632890fb65146100f957806361d0d61c1461010c578063668906431461012e575b600080fd5b3480156100ad57600080fd5b506100c16100bc366004614855565b610218565b6040516100ce9190614d60565b60405180910390f35b3480156100e357600080fd5b506100ec6103ad565b6040516100ce9190614940565b6100c16101073660046144a7565b6103bc565b34801561011857600080fd5b5061012c610127366004614670565b610488565b005b34801561013a57600080fd5b5061014e6101493660046144e7565b6104c2565b6040516100ce929190614b2b565b34801561016857600080fd5b506100ec610780565b34801561017d57600080fd5b506100ec61078f565b34801561019257600080fd5b5061012c6101a1366004614839565b6107a6565b3480156101b257600080fd5b506100c16101c13660046144a7565b6107f3565b3480156101d257600080fd5b506101db610880565b6040516100ce9493929190614954565b3480156101f757600080fd5b5061020b61020636600461448b565b6108da565b6040516100ce9190614b20565b60006002600a5414156102465760405162461bcd60e51b815260040161023d90614c62565b60405180910390fd5b6002600a5561ffff841660011461027457816102745760405162461bcd60e51b815260040161023d90614c2b565b600061027f3361090e565b50905061028a614142565b610296813388856109d3565b6001600160581b0385811614156102cf5760008160200151136102b857600080fd5b6102c581602001516109f4565b60808201526102e7565b6102e1856001600160581b03166109f4565b60808201525b60006102f68233858815610a08565b90506103028333610a23565b60208301516001600160f81b0319161561037e57604051636ccc642f60e01b815273__FreeCollateralExternal________________90636ccc642f9061034d903390600401614940565b60006040518083038186803b15801561036557600080fd5b505af4158015610379573d6000803e3d6000fd5b505050505b600081131561038c57600080fd5b61039d610398826109f4565b610b40565b6001600a55979650505050505050565b6002546001600160a01b031681565b60006002600a5414156103e15760405162461bcd60e51b815260040161023d90614c62565b6002600a55333014156103f357600080fd5b336001600160a01b0385161461040857600080fd5b61041184610b53565b600061041c85610bce565b9050610426614142565b610432818787856109d3565b600061044b8761044187610c7c565b8491906000610c92565b90506000811361045a57600080fd5b610465828885610ce4565b61046f8388610a23565b61012082015161047f9087610d02565b61039d81610b40565b3330141561049557600080fd5b61049e33610b53565b60006104a93361090e565b5082151560a082015290506104be8133610a23565b5050565b6000806002600a5414156104e85760405162461bcd60e51b815260040161023d90614c62565b6002600a55336001600160a01b038816148061050357503330145b61051f5760405162461bcd60e51b815260040161023d90614bd5565b6001600160601b03851660006105348961090e565b50905061053f614142565b61054b818b8b856109d3565b828160400151121561056f5760405162461bcd60e51b815260040161023d90614d33565b610578836109f4565b60c082015260405163b853e45760e01b8152600090819073__nTokenRedeemAction____________________9063b853e457906105c1908f908f908a908f908f90600401614a8d565b60006040518083038186803b1580156105d957600080fd5b505af41580156105ed573d6000803e3d6000fd5b505050506040513d6000823e601f3d908101601f19168201604052610615919081019061468c565b60608501829052909250905061062c838d86610ce4565b8051156106d55760006106428c61ffff16610d43565b905073__SettleAssetsExternal__________________63c108fc268e8388866040518563ffffffff1660e01b8152600401610681949392919061497f565b60c06040518083038186803b15801561069957600080fd5b505af41580156106ad573d6000803e3d6000fd5b505050506040513d601f19601f820116820180604052508101906106d19190614796565b9450505b6106df848d610a23565b60208401516001600160f81b0319161561075b57604051636ccc642f60e01b815273__FreeCollateralExternal________________90636ccc642f9061072a908f90600401614940565b60006040518083038186803b15801561074257600080fd5b505af4158015610756573d6000803e3d6000fd5b505050505b6107678c8c8488610d69565b516001600a55909b9015159a5098505050505050505050565b6001546001600160a01b031681565b60005464010000000090046001600160a01b031681565b333014156107b357600080fd5b60005461ffff90811690821611156107ca57600080fd5b3360006107d68261090e565b5090506107e4818442610f0d565b6107ee8183610a23565b505050565b60006002600a5414156108185760405162461bcd60e51b815260040161023d90614c62565b6002600a553330141561082a57600080fd5b336001600160a01b0385161461083f57600080fd5b61084884610b53565b600061085385610bce565b905061085d614142565b610869818787856109d3565b600061044b8761087887610c7c565b849190611005565b73__FreeCollateralExternal________________73__MigrateIncentives_____________________73__SettleAssetsExternal__________________73__nTokenRedeemAction____________________90919293565b60006108e582610b53565b6000806108f18461090e565b915091508015610905576109058285610a23565b9150505b919050565b61091661419e565b60008061092284610bce565b905061092d816110e1565b156109c7576040516337b5fc2160e11b815273__SettleAssetsExternal__________________90636f6bf8429061096b9087908590600401614a70565b60c06040518083038186803b15801561098357600080fd5b505af4158015610997573d6000803e3d6000fd5b505050506040513d601f19601f820116820180604052508101906109bb9190614796565b600192509250506109ce565b9150600090505b915091565b6109dc82611135565b6101208501526109ee84848484611147565b50505050565b6000610a02600019836111ef565b92915050565b6000610a1885858585600161123d565b90505b949350505050565b6000610a2d6113f3565b6001600160a01b03831660008181526020838152604080832088518154938a01518a84015160608c015160808d015160a08e015164ffffffffff1990981664ffffffffff9095169490941765ff00000000001916600160281b60f89490941c939093029290921766ff0000000000001916600160301b60ff909216919091021768ffff000000000000001916600160381b61ffff90921691909102177affffffffffffffffffffffffffffffffffff0000000000000000001916600160481b60709290921c919091021760ff60d81b1916600160d81b93151593909302929092179091555192935090917f6bd4b121bca854a191536a2ca891155c42ee2fb23f307fb34e8bc65cfcb5412e9190a2505050565b600080821215610b4f57600080fd5b5090565b6001600160a01b038116610b6657600080fd5b6001600160a01b038116610fee1415610b7e57600080fd5b6001600160a01b0381166105e71415610b9657600080fd5b6001600160a01b038116301415610bac57600080fd5b6000610bb782611400565b5050505061ffff169050806000146104be57600080fd5b610bd661419e565b6000610be06113f3565b6001600160a01b03841660009081526020918252604090819020815160c081018352905464ffffffffff811682526001600160f81b0319600160281b820460f81b169382019390935260ff600160301b840481169282019290925261ffff600160381b84041660608201526001600160701b0319600160481b840460701b166080820152600160d81b90920416151560a0820152915050919050565b60006001600160ff1b03821115610b4f57600080fd5b600082610ca157506000610a1b565b60008313610cae57600080fd5b610cc48486600001518588610120015186611469565b6060870151909250610cd791508261152b565b6060860152949350505050565b608083015115610cf357600080fd5b6109ee8383836000600161123d565b600080610d0f8484611541565b915091508160001415610d235750506104be565b818111156109ee5760405162461bcd60e51b815260040161023d90614b3b565b600080610d4e6115ad565b6000938452602052505060409020546001600160a01b031690565b6000610d736115ba565b61ffff8516600090815260209190915260408120546001600160a01b03169150610d9b6115ad565b61ffff8616600090815260209190915260408120546001600160a01b0316915084138015610dc95750600083135b15610f05576040516323de665160e01b81526001600160a01b038316906323de665190610dfe9084908a908990600401614a33565b600060405180830381600087803b158015610e1857600080fd5b505af1158015610e2c573d6000803e3d6000fd5b50505050610e39856115c7565b15610e9c5760006001600160a01b038716337fc3d58168c5ae7397731d063d5bbf3d657854427343f4c083240f7aacaa2d0f62610e75896115e4565b610e81610398896115fa565b604051610e8f929190614d69565b60405180910390a4610f05565b806001600160a01b031663ad1c095d87610eb5866109f4565b6040518363ffffffff1660e01b8152600401610ed2929190614a57565b600060405180830381600087803b158015610eec57600080fd5b505af1158015610f00573d6000803e3d6000fd5b505050505b505050505050565b610f168361161b565b15610f335760405162461bcd60e51b815260040161023d90614c8a565b8161ffff166000108015610f4d5750613fff61ffff831611155b610f695760405162461bcd60e51b815260040161023d90614d06565b604083015160ff1615610f8e5760405162461bcd60e51b815260040161023d90614ba9565b60208301516001600160f81b03191615610fba5760405162461bcd60e51b815260040161023d90614cb8565b610fcf8361ffff84166000600160fe1b611628565b61ffff821660608401526000610fe48261182e565b905064ffffffffff8110610ff757600080fd5b64ffffffffff169092525050565b600081611014575060006110da565b6000821361102157600080fd5b6000611034856000015161ffff1661184c565b80519091506001600160a01b031661104b57600080fd5b60018160600151600581111561105d57fe5b1480611078575060028160600151600581111561107657fe5b145b156110b05784516101208601516110949183918690889061185f565b60608601519092506110a6908361152b565b60608601526110d8565b6004816060015160058111156110c257fe5b141561009c576110d58585856000610c92565b91505b505b9392505050565b6000426110ed8361161b565b1561110e576110fb8161182e565b835164ffffffffff161091506109099050565b825164ffffffffff161580159061112d5750825164ffffffffff168110155b915050610909565b61113d6141d3565b610a0282426118f0565b8161ffff1660001080156111615750613fff61ffff831611155b61116a57600080fd5b61ffff821680855261117d9082906119b1565b156111ac576111928383866101200151611a3b565b61010088015260e0870152604086015260208501526111ca565b6000602085018190526040850181905260e085018190526101008501525b50506000606083018190526080830181905260a0830181905260c09092019190915250565b81810260001983141561121f5781158061121157508282828161120e57fe5b05145b61121a57600080fd5b610a02565b82158061123457508183828161123157fe5b05145b610a0257600080fd5b60008061125a86886000015189608001518a610120015188611af5565b915060006112798860800151896060015161152b90919063ffffffff16565b90508380156112885750600081125b80156112a3575060208801516000906112a1908361152b565b125b156112c9578560a001516112c95760405162461bcd60e51b815260040161023d90614c02565b80156112e85760208801516112de908261152b565b6020890152600191505b60a08801511515806112fd575060c088015115155b1561136657600061132d8960c001516113278b60a001518c6040015161152b90919063ffffffff16565b9061152b565b905060008112156113505760405162461bcd60e51b815260040161023d90614ce2565b61135b898983611b9e565b506040890152600191505b8115611395576113958789600001518a602001518b604001518c60e001518d61010001518e6101200151611c8b565b875160208901516113c29161ffff16901515806113b5575060408a015115155b889190600160fe1b611628565b6000886020015112156113e857602086018051600160f91b176001600160f81b03191690525b505095945050505050565b600080610a026001611dc6565b600080600080600080611411611ddf565b6001600160a01b039097166000908152602097909752505060409094205461ffff81169563ffffffff62010000830481169650600160301b830416945060ff600160501b8304169350600160581b90910460d81b9150565b600080600061147786610b40565b90508061148b576000809250925050611521565b600061149a8861ffff16611dec565b90506003816060015160058111156114ae57fe5b14156114f557348210156114ce576114c98983340387611dff565b6114ed565b3482146114ed5760405162461bcd60e51b815260040161023d90614b64565b86935061150f565b61150c61150782600001518b85611ec7565b610c7c565b93505b61151c898986848a61204f565b925050505b9550959350505050565b81810182811215600083121514610a0257600080fd5b600080600061154e612096565b61ffff8516600090815260209190915260409020600181015490915061158090600160581b900463ffffffff166120a3565b8154909350600160281b90046001600160581b03166115a261039887836120b1565b925050509250929050565b600080610a026003611dc6565b600080610a026021611dc6565b60004660018114801561090557505050600461ffff909116111590565b600c60309190911b67ffff000000000000161790565b6000808212156116145761160d826109f4565b9050610909565b5080610909565b6060015161ffff16151590565b82600010801561163a5750613fff8311155b61164357600080fd5b818015611657575082846060015161ffff16145b15611661576109ee565b6080840151600090815b6001600160701b03198216156117e35760f082901c613fff1686811480156116905750855b156116c857506080870180516001600160f01b0319861660109093029290921c919091176001600160701b0319169052506109ee9050565b86811480156116d5575085155b15611731576001600160f01b03198516199290921691600360fe1b831661170f576010836dffffffffffffffffffffffffffff1916901b92505b506001600160701b031991821660109091021c919091171660808501526109ee565b868111801561173d5750855b15611797576080888101516001600160f01b031960f08a901b88178116601086021c9690961795911b161561177157600080fd5b506001600160701b03199182166001919091016010021c919091171660808501526109ee565b86811180156117a4575085155b156117b257505050506109ee565b506001600160f01b0319821660108281029190911c93909317929190911b6001600160801b0319169060010161166b565b846117f0575050506109ee565b600981106117fd57600080fd5b6001600160f01b031960f087901b85171660109091021c919091176001600160701b03191660808601525050505050565b60006201518082101561184057600080fd5b50620151808106900390565b6118546141f4565b610a028260006120e3565b600061187086600001518486611ec7565b935060006118818661ffff16611dec565b9050600060028860600151600581111561189757fe5b14156118b1576118aa611507898861217d565b90506118d7565b6001886060015160058111156118c357fe5b141561009c576118aa61150789848961222e565b6118e4858883858861204f565b98975050505050505050565b6118f86141d3565b6000611903846123ee565b905082816000015110156119425760008061191d866124b6565b905061192b86848388612533565b909350915061193b868385612634565b505061194f565b8051831461194f57600080fd5b60405180606001604052806119786115078460a001518560c0015161286890919063ffffffff16565b815260200161199b6115078460a001518560e0015161286890919063ffffffff16565b8152602001826060015181525091505092915050565b600081158015906119c45750613fff8211155b6119cd57600080fd5b6080830151606084015161ffff168314156119ec576001915050610a02565b6001600160701b0319811615611a315760f081901c613fff1683811415611a1e5750600160fe1b908116149050610a02565b5060101b6001600160801b0319166119ec565b5060009392505050565b6000806000806000611a4b61288f565b6001600160a01b03891660009081526020828152604080832061ffff8c168452909152902080546001600160501b0381169650600160501b900463ffffffff1694509091508315611ab8578054611ab190600160701b900466ffffffffffffff166120a3565b9250611acd565b8054600160701b900466ffffffffffffff1692505b8054611ae8908890600160a81b9004600a90810b900b61289c565b9550505093509350935093565b600083611b0457506000611b95565b60008412611b1157600080fd5b6000611b208661ffff16611dec565b9050611b3581611b3086886120b1565b6128ca565b91506000611b42836109f4565b9050611b4f878383612902565b600382606001516005811115611b6157fe5b1415611b7757611b72888286611dff565b611b84565b8151611b849089836129f6565b611b91888885858961204f565b5050505b95945050505050565b825160009042908290611bb49061ffff16610d43565b90506000611bc7828860c0015185612a6d565b9050611bd587838388612b50565b93506000611be283612c7d565b90506001600160a01b03811615611c7057806001600160a01b0316631d684dd2888a60000151611c158c60400151610b40565b8a8d60c001518b6040518763ffffffff1660e01b8152600401611c3d96959493929190614ac3565b600060405180830381600087803b158015611c5757600080fd5b505af1158015611c6b573d6000803e3d6000fd5b505050505b8415611c8057611c808786612cef565b505050509392505050565b6000611c9561288f565b6001600160a01b03891660009081526020828152604080832061ffff8c168452909152902090915084611cfd5766ffffffffffffff841115611cd657600080fd5b805466ffffffffffffff60701b1916600160701b66ffffffffffffff861602178155611d17565b8054600160501b900463ffffffff168514611d1757600080fd5b611d2085612d0e565b815463ffffffff91909116600160501b0263ffffffff60501b19909116178155611d51611d4c87610b40565b612d21565b815469ffffffffffffffffffff19166001600160501b039190911617808255611d9790611d929085908c908c90600160a81b9004600a90810b900b8c612d37565b612d5a565b8154600a9190910b6001600160581b0316600160a81b026001600160a81b039091161790555050505050505050565b6000620f4240826026811115611dd857fe5b0192915050565b600080610a026002611dc6565b611df46141f4565b610a028260016120e3565b8015611e91577382af49447d8a07e3bd95bd0d56f35241523fbab16001600160a01b031663d0e30db0836040518263ffffffff1660e01b81526004016000604051808303818588803b158015611e5457600080fd5b505af1158015611e68573d6000803e3d6000fd5b5050505050611e8c7382af49447d8a07e3bd95bd0d56f35241523fbab184846129f6565b6107ee565b6040516001600160a01b0384169083156108fc029084906000818181858888f193505050501580156109ee573d6000803e3d6000fd5b600080846001600160a01b03166370a08231306040518263ffffffff1660e01b815260040180826001600160a01b0316815260200191505060206040518083038186803b158015611f1757600080fd5b505afa158015611f2b573d6000803e3d6000fd5b505050506040513d6020811015611f4157600080fd5b5051604080516323b872dd60e01b81526001600160a01b038781166004830152306024830152604482018790529151929350908716916323b872dd9160648082019260009290919082900301818387803b158015611f9e57600080fd5b505af1158015611fb2573d6000803e3d6000fd5b50505050611fbe612d8c565b6000856001600160a01b03166370a08231306040518263ffffffff1660e01b815260040180826001600160a01b0316815260200191505060206040518083038186803b15801561200d57600080fd5b505afa158015612021573d6000803e3d6000fd5b505050506040513d602081101561203757600080fd5b505190506120458183612df9565b9695505050505050565b60008061205c8486612e0e565b90506120688382612e3e565b9150612075878784612e60565b612080868383612ee0565b835161208c9086612fd3565b5095945050505050565b600080610a02601d611dc6565b600881901c60ff9091161b90565b60006110da6ec097ce7bc90715b34b9f10000000006120dd8560000151856111ef90919063ffffffff16565b90613028565b6120eb6141f4565b60006120f5613059565b6000858152602082815260408083208715158452825291829020825160a08101845281546001600160a01b038116825260ff600160a01b82048116151594830194909452600160b01b81048416600a0a9482019490945293945092916060830191600160a81b90910416600581111561216a57fe5b8152600060209091015295945050505050565b815160405163db006a7560e01b8152600091479183916001600160a01b03169063db006a75906121b1908790600401614d60565b602060405180830381600087803b1580156121cb57600080fd5b505af11580156121df573d6000803e3d6000fd5b505050506040513d601f19601f8201168201806040525081019061220391906148aa565b905080156122235760405162461bcd60e51b815260040161023d90614b89565b476120458184612df9565b60008083600001516001600160a01b03166370a08231306040518263ffffffff1660e01b81526004016122619190614940565b60206040518083038186803b15801561227957600080fd5b505afa15801561228d573d6000803e3d6000fd5b505050506040513d601f19601f820116820180604052508101906122b191906148aa565b9050600085600001516001600160a01b031663db006a75856040518263ffffffff1660e01b81526004016122e59190614d60565b602060405180830381600087803b1580156122ff57600080fd5b505af1158015612313573d6000803e3d6000fd5b505050506040513d601f19601f8201168201806040525081019061233791906148aa565b905080156123575760405162461bcd60e51b815260040161023d90614b89565b84516040516370a0823160e01b81526000916001600160a01b0316906370a0823190612387903090600401614940565b60206040518083038186803b15801561239f57600080fd5b505afa1580156123b3573d6000803e3d6000fd5b505050506040513d601f19601f820116820180604052508101906123d791906148aa565b90506123e38184612df9565b979650505050505050565b6123f6614223565b6000612400612096565b61ffff93841660009081526020918252604090819020805464ffffffffff81168652600160281b81046001600160581b03908116948701949094526001820154841692860192909252600160d81b820463ffffffff166060860152600160801b9091049091166080840152600201546001600160501b0380821660a0850152600160501b8204811660c0850152600160a01b82041660e0840152600160f01b900460ff1661012c02909216610100820152919050565b6000806124c283613066565b6001600160a01b031663ef81f2166040518163ffffffff1660e01b81526004016040805180830381600087803b1580156124fb57600080fd5b505af115801561250f573d6000803e3d6000fd5b505050506040513d601f19601f82011682018060405250810190610a1b91906148c2565b61253b614223565b600080600061254b888689613096565b60c08b019290925260e08a01929092526020890151919350915061256f90836131a1565b602088015260808701516000901561259d57608088015161259a906125948982612df9565b906131b3565b90505b6125bd6125b2670de0b6b3a7640000836131a1565b60a08a0151906131d0565b60a0890152506080870186905260006125d46131ed565b61ffff8a1660009081526020919091526040902054885163ffffffff600160a01b9092048216925061261f9161260e90859085906131a116565b8a606001518b61010001518a6131fa565b60608901525050928552509294909350915050565b600061263e612096565b60008561ffff16815260200190815260200160002090506126628260000151613288565b815464ffffffffff191664ffffffffff9190911617815560a082015161268790612d21565b60028201805469ffffffffffffffffffff19166001600160501b039290921691909117905560c08201516126ba90612d21565b81600201600a6101000a8154816001600160501b0302191690836001600160501b031602179055506126ef8260e00151612d21565b8160020160146101000a8154816001600160501b0302191690836001600160501b03160217905550612724826020015161329c565b81546001600160581b0391909116600160281b026fffffffffffffffffffffff000000000019909116178155604082015161275e9061329c565b6001820180546affffffffffffffffffffff19166001600160581b039290921691909117905560808201516127929061329c565b81546001600160581b0391909116600160801b026affffffffffffffffffffff60801b1990911617815560608201516127ca90612d0e565b815463ffffffff91909116600160d81b0263ffffffff60d81b1990911617815582156128165760006127fb84610c7c565b905061280785826132b2565b612814610fee8683612e60565b505b8361ffff167fef25641e225e493886510ca1ad6584fa7b442b9fea820a29d1de3ce27d270fd28360a001518460c001518560e0015160405161285a93929190614d77565b60405180910390a250505050565b60008261287757506000610a02565b8282028284828161288457fe5b04146110da57600080fd5b600080610a026006611dc6565b60008082126128ac575080610a02565b825160208401516128c391906120dd9085906111ef565b9050610a02565b60006305f5e100836040015114156128e3575080610a02565b6110da6305f5e1006120dd8560400151856111ef90919063ffffffff16565b600061290c6132e9565b83516001600160a01b03166000908152602082905260409020549091508083116129375750506107ee565b600061294286613066565b90506000816001600160a01b031663b5e4da23866040518263ffffffff1660e01b81526004016129729190614d60565b60006040518083038186803b15801561298a57600080fd5b505afa15801561299e573d6000803e3d6000fd5b505050506040513d6000823e601f3d908101601f191682016040526129c69190810190614562565b905060006129d487836132f6565b90506129e084826131a1565b8611156129ec57600080fd5b5050505050505050565b826001600160a01b031663a9059cbb83836040518363ffffffff1660e01b815260040180836001600160a01b0316815260200182815260200192505050600060405180830381600087803b158015612a4d57600080fd5b505af1158015612a61573d6000803e3d6000fd5b505050506107ee612d8c565b6000806000612a7c86856134ff565b50915091506000612a8b613595565b6001600160a01b0388166000908152602082905260408120919250612ab0858961152b565b905080600013158015612ac957506001600160601b0381105b612ad257600080fd5b81546bffffffffffffffffffffffff19166001600160601b038216176fffffffffffffffffffffffffffffffff60601b1916600160601b6001600160801b0386160217825563ffffffff8710612b2757600080fd5b50805463ffffffff8716600160e01b026001600160e01b03909116179055509150509392505050565b60e084015160009015612c115773__MigrateIncentives_____________________63e0c01a7285612b858860400151610b40565b8860e001518961010001516040518563ffffffff1660e01b8152600401612baf9493929190614afa565b60206040518083038186803b158015612bc757600080fd5b505af4158015612bdb573d6000803e3d6000fd5b505050506040513d601f19601f82011682018060405250810190612bff91906148aa565b600060e0870181905261010087015290505b612c53612c4c866101000151612c46670de0b6b3a7640000612c4088612c3a8c60400151610b40565b90612868565b906135a2565b90612df9565b82906131a1565b9050612c6b670de0b6b3a7640000612c408486612868565b85610100018181525050949350505050565b600080612c88611ddf565b6001600160a01b0384166000908152602082905260409020805491925090600160f81b900460ff1615612ce457612cbd6135c1565b6001600160a01b038086166000908152602092909252604090912054169250610909915050565b600092505050610909565b6104be73019be259bc299f3f653688c7655c87f998bc7bc183836129f6565b600063ffffffff821115610b4f57600080fd5b60006001600160501b03821115610b4f57600080fd5b6000612d4386836135ce565b9050611b95868686612d55878661360d565b613694565b60006a7fffffffffffffffffffff198212801590612d8357506a7fffffffffffffffffffff8213155b610b4f57600080fd5b6000612d9661426f565b3d8015612daa5760208114612db357600080fd5b60019250612dbe565b60206000833e815192505b50816104be576040805162461bcd60e51b8152602060048201526005602482015264045524332360dc1b604482015290519081900360640190fd5b600082821115612e0857600080fd5b50900390565b60006305f5e10083604001511415612e27575080610a02565b60408301516110da906120dd846305f5e1006111ef565b81516000906110da906120dd846ec097ce7bc90715b34b9f10000000006111ef565b6000612e6a6115ba565b61ffff8416600090815260209190915260409081902054905163ad1c095d60e01b81526001600160a01b039091169150819063ad1c095d90612eb29087908690600401614a57565b600060405180830381600087803b158015612ecc57600080fd5b505af11580156129ec573d6000803e3d6000fd5b6000612eea612096565b61ffff8516600090815260209190915260409020805490915064ffffffffff164214612f1557600080fd5b8054600090612f3490600160281b90046001600160581b03168561152b565b8254909150600090612f5690600160801b90046001600160581b03168561152b565b9050612f69612f6482610b40565b61329c565b83546001600160581b0391909116600160801b026affffffffffffffffffffff60801b19909116178355612f9f612f6483610b40565b83546001600160581b0391909116600160281b026fffffffffffffffffffffff000000000019909116179092555050505050565b6000612fdd6132e9565b6001600160a01b038416600090815260208290526040902054909150613006610398828561152b565b6001600160a01b03909416600090815260209290925250604090209190915550565b60008160001914801561303e5750600160ff1b83145b1561304857600080fd5b81838161305157fe5b059392505050565b600080610a026007611dc6565b6000806130716136c8565b61ffff939093166000908152602093909352505060409020546001600160a01b031690565b6000806000806000806130a989886136d5565b895190955091935091506000906130d0906130c5908b90612df9565b633b9aca0090612868565b905061310a6130ff6301da9c006130e78585612868565b816130ee57fe5b670de0b6b3a76400009190046131a1565b60e08a0151906131d0565b965061312c6131216301da9c006130e78785612868565b60c08a0151906131d0565b955081831415613143575060009350613198915050565b600061316561315a6301da9c006130e78786612868565b60e08b0151906131d0565b905060006131738983612df9565b905061319088612c40838d6040015161286890919063ffffffff16565b965050505050505b93509350935093565b6000828201838110156110da57600080fd5b60006110da6131ca84670de0b6b3a7640000612868565b836135a2565b60006110da6131df8484612868565b670de0b6b3a76400006135a2565b600080610a026025611dc6565b600080831161320857600080fd5b81861115613217575083611b95565b60006132238388612df9565b9050838111156132365785915050611b95565b6000613242828661376f565b90506000613254633b9aca0083612df9565b905061327b633b9aca00612c4061326b8a85612868565b6132758c87612868565b906131a1565b9998505050505050505050565b600064ffffffffff821115610b4f57600080fd5b60006001600160581b03821115610b4f57600080fd5b60008112156132c057600080fd5b60006132ce610fee84613782565b90506132da818361152b565b90506107ee610fee84836137db565b600080610a026026611dc6565b6000805b82518110156134f857600083828151811061331157fe5b60200260200101519050600081606001516001600160a01b03166370a08231306040518263ffffffff1660e01b815260040161334d9190614940565b60206040518083038186803b15801561336557600080fd5b505afa158015613379573d6000803e3d6000fd5b505050506040513d601f19601f8201168201806040525081019061339d91906148aa565b905060006133ab873061384f565b905060005b8351518110156133fc576133f4846000015182815181106133cd57fe5b60200260200101516000866020015184815181106133e757fe5b60200260200101516138f9565b6001016133b0565b506000613409883061384f565b905060006134178284612df9565b9050808560400151111561342a57600080fd5b60608501516040516370a0823160e01b81526000916001600160a01b0316906370a082319061345d903090600401614940565b60206040518083038186803b15801561347557600080fd5b505afa158015613489573d6000803e3d6000fd5b505050506040513d601f19601f820116820180604052508101906134ad91906148aa565b9050848111156134bc57600080fd5b6134cb86606001518683613a36565b6134d588836131a1565b97506134e68a600001518585613a36565b5050600190940193506132fa92505050565b5092915050565b600080600061350d85613ab3565b9194509250905080841180156135235750600081115b801561352f5750600083115b1561358e57600061353f86611400565b505050915050600061356a6135616305f5e1008461286890919063ffffffff16565b84880387613b0f565b905061357684826131a1565b93506001600160801b03841061358b57600080fd5b50505b9250925092565b600080610a026011611dc6565b60008082116135b057600080fd5b8183816135b957fe5b049392505050565b600080610a026012611dc6565b6000808212156136075761360260016135fc85602001516120dd8760000151876111ef90919063ffffffff16565b90613b31565b6110da565b50919050565b60008183148061362a57506000831215801561362a575060008212155b1561363757506000610a02565b600083131580156136485750816000125b15613654575081610a02565b600082131580156136655750826000125b15613673576128c3826109f4565b60008313158015613685575060008213155b1561009c576128c38383613b31565b80156109ee57835160208501516000916136b3916120dd9085906111ef565b90506136c184848484613b47565b5050505050565b600080610a02601f611dc6565b6000806000806000856020015111156137225761371f6137068660c00151876020015161286890919063ffffffff16565b60e0870151604088015161371991612868565b9061376f565b90505b600061372d87613c84565b90506137398183613cb7565b945081156137505761374d81866001613d6a565b93505b60208601511561358b576137648583613ddb565b925050509250925092565b60006110da6131ca84633b9aca00612868565b60008061378d61288f565b6001600160a01b03851660009081526020828152604080832061ffff8816845290915281208054600160a81b9004600a90810b900b94509192508312156137d357600080fd5b505092915050565b60008112156137e957600080fd5b60006137f361288f565b6001600160a01b03851660009081526020828152604080832061ffff88168452909152902090915061382483612d5a565b8154600a9190910b6001600160581b0316600160a81b026001600160a81b0390911617905550505050565b600060038360600151600581111561386357fe5b141561387a57506001600160a01b03811631610a02565b82516040516370a0823160e01b81526001600160a01b03909116906370a08231906138a9908590600401614940565b60206040518083038186803b1580156138c157600080fd5b505afa1580156138d5573d6000803e3d6000fd5b505050506040513d601f19601f820116820180604052508101906128c391906148aa565b600080846001600160a01b031684846040518082805190602001908083835b602083106139375780518252601f199092019160209182019101613918565b6001836020036101000a03801982511681845116808217855250505050505090500191505060006040518083038185875af1925050503d8060008114613999576040519150601f19603f3d011682016040523d82523d6000602084013e61399e565b606091505b5091509150816139ad82613df4565b90610f055760405162461bcd60e51b81526004018080602001828103825283818151815260200191508051906020019080838360005b838110156139fb5781810151838201526020016139e3565b50505050905090810190601f168015613a285780820380516001836020036101000a031916815260200191505b509250505060405180910390fd5b6000613a406132e9565b6001600160a01b03851660009081526020829052604090205490915083811115613a6957600080fd5b6000613a80613a7786610c7c565b6135fc86610c7c565b9050613a8f610398838361152b565b6001600160a01b039096166000908152602093909352505060409020929092555050565b600080600080613ac1613595565b6001600160a01b0395909516600090815260209590955250506040909220546001600160601b03811693600160601b82046001600160801b03169350600160e01b90910463ffffffff169150565b6000610a1b82612c406301da9c008188612c3a89670de0b6b3a7640000612868565b80820382811315600083121514610a0257600080fd5b6000613b51612096565b61ffff8516600090815260209190915260409020805490915064ffffffffff164214613b7c57600080fd5b8054600160f81b900460ff16613b9157600080fd5b6001810154600090613bac906001600160581b03168561152b565b8254909150600090613bce90600160281b90046001600160581b03168561152b565b905081600919128015613be15750600082125b15613beb57600091505b80600919128015613bfc5750600081125b15613c05575060005b613c11612f6483610b40565b6001840180546affffffffffffffffffffff19166001600160581b0392909216919091179055613c43612f6482610b40565b83546001600160581b0391909116600160281b026fffffffffffffffffffffff000000000019909116178355613c7b87878688613efb565b50505050505050565b613c8c61428d565b6000613c96613fd5565b61ffff84166000908152602091909152604081205491506109059082613fe2565b600080836080015111613cc957600080fd5b633b9aca00821115613cda57600080fd5b82518211613cf957825160408401516128c39190612c40908590612868565b82602001518211613d315760408301518351602085015160608601516128c393926132759281900391612c4091880390859003612868565b6110da83606001516132758560200151633b9aca0003612c4087606001518860800151038860200151880361286890919063ffffffff16565b600080613d896064612c408760e001518761286890919063ffffffff16565b90508460a00151811015613d9e575060a08401515b8460c00151811115613db1575060c08401515b8215613dc1576110d584826131a1565b838111613dd0578084036110d5565b600095945050505050565b60006110da613dea8484612868565b633b9aca006135a2565b6060604482511015613e2a575060408051808201909152600d81526c14da5b195b9d0814995d995c9d609a1b6020820152610909565b6004820180519092602401906020811015613e4457600080fd5b8101908080516040519392919084640100000000821115613e6457600080fd5b908301906020820185811115613e7957600080fd5b8251640100000000811182820188101715613e9357600080fd5b82525081516020918201929091019080838360005b83811015613ec0578181015183820152602001613ea8565b50505050905090810190601f168015613eed5780820380516001836020036101000a031916815260200191505b506040525050509050919050565b6000613f056115ba565b61ffff8516600090815260209190915260408120546001600160a01b03169150613f2d614101565b61ffff8616600090815260209190915260409081902054905163ad1c095d60e01b81526001600160a01b039091169150819063ad1c095d90613f759089908790600401614a57565b600060405180830381600087803b158015613f8f57600080fd5b505af1158015613fa3573d6000803e3d6000fd5b505060405163ad1c095d60e01b81526001600160a01b038516925063ad1c095d9150610ed29089908890600401614a57565b600080610a02601b611dc6565b613fea61428d565b6064633b9aca008360ff86166020811061400057fe5b1a028161400957fe5b0481526064633b9aca008360ff86166001016020811061402557fe5b1a028161402e57fe5b048160200181815250506140538260028560ff16016020811061404d57fe5b1a61410e565b60808201819052610100908360ff86166003016020811061407057fe5b1a028161407957fe5b0460408201526080810151610100908360ff86166004016020811061409a57fe5b1a02816140a357fe5b0460608201526207a1208260ff8516600501602081106140bf57fe5b1a0260a0820152622625a08260ff8516600601602081106140dc57fe5b1a0260c08201528160ff8416600701602081106140f557fe5b1a60e082015292915050565b600080610a026022611dc6565b60008160ff166096106141295760ff8216622625a002610a02565b5060951960ff919091160162e4e1c00263165a0bc00190565b604051806101400160405280600061ffff16815260200160008152602001600081526020016000815260200160008152602001600081526020016000815260200160008152602001600081526020016141996141d3565b905290565b6040805160c081018252600080825260208201819052918101829052606081018290526080810182905260a081019190915290565b60405180606001604052806000815260200160008152602001600081525090565b6040805160a0810182526000808252602082018190529181018290529060608201908152602001600081525090565b6040518061012001604052806000815260200160008152602001600081526020016000815260200160008152602001600081526020016000815260200160008152602001600081525090565b60405180602001604052806001906020820280368337509192915050565b60405180610100016040528060008152602001600081526020016000815260200160008152602001600081526020016000815260200160008152602001600081525090565b805161090981614dcf565b600082601f8301126142ed578081fd5b815160206143026142fd83614db1565b614d8d565b828152818101908583018385028701840188101561431e578586fd5b855b8581101561434557815161433381614dcf565b84529284019290840190600101614320565b5090979650505050505050565b6000601f8381840112614363578182fd5b825160206143736142fd83614db1565b82815281810190868301865b8581101561441757815189018a603f820112614399578889fd5b8581015167ffffffffffffffff8111156143af57fe5b6143c0818a01601f19168801614d8d565b8181528c60408385010111156143d4578a8bfd5b8a5b828110156143f257838101604001518282018a015288016143d6565b82811115614402578b8984840101525b5086525050928401929084019060010161437f565b509098975050505050505050565b805161090981614de7565b80516001600160701b03198116811461090957600080fd5b80516001600160f81b03198116811461090957600080fd5b80516004811061090957600080fd5b805161090981614df5565b805160ff8116811461090957600080fd5b60006020828403121561449c578081fd5b81356110da81614dcf565b6000806000606084860312156144bb578182fd5b83356144c681614dcf565b925060208401356144d681614df5565b929592945050506040919091013590565b600080600080600060a086880312156144fe578283fd5b853561450981614dcf565b9450602086013561451981614df5565b935060408601356001600160601b0381168114614534578384fd5b9250606086013561454481614de7565b9150608086013561455481614de7565b809150509295509295909350565b60006020808385031215614574578182fd5b825167ffffffffffffffff8082111561458b578384fd5b818501915085601f83011261459e578384fd5b81516145ac6142fd82614db1565b81815284810190848601875b8481101561466157815187016080818d03601f190112156145d757898afd5b60408051608081018181108a821117156145ed57fe5b8252828b0151898111156145ff578c8dfd5b61460d8f8d838701016142dd565b8252508183015189811115614620578c8dfd5b61462e8f8d83870101614352565b8c83015250606083015182820152614648608084016142d2565b60608201528652505092870192908701906001016145b8565b50909998505050505050505050565b600060208284031215614681578081fd5b81356110da81614de7565b600080604080848603121561469f578283fd5b8351925060208085015167ffffffffffffffff808211156146be578485fd5b818701915087601f8301126146d1578485fd5b81516146df6142fd82614db1565b8181528481019084860160c0808502870188018d10156146fd57898afd5b8996505b848710156147845780828e03121561471757898afd5b8851818101818110888211171561472a57fe5b8a52825161473781614df5565b81528289015189820152898301518a820152606080840151908201526080808401519082015260a061476a818501614460565b908201528452600196909601959287019290810190614701565b50989b909a5098505050505050505050565b600060c082840312156147a7578081fd5b60405160c0810181811067ffffffffffffffff821117156147c457fe5b604052825164ffffffffff811681146147db578283fd5b81526147e960208401614448565b60208201526147fa6040840161447a565b604082015261480b6060840161446f565b606082015261481c60808401614430565b608082015261482d60a08401614425565b60a08201529392505050565b60006020828403121561484a578081fd5b81356110da81614df5565b600080600060608486031215614869578081fd5b833561487481614df5565b925060208401356001600160581b038116811461488f578182fd5b9150604084013561489f81614de7565b809150509250925092565b6000602082840312156148bb578081fd5b5051919050565b600080604083850312156148d4578182fd5b505080516020909101519092909150565b805164ffffffffff1682526020808201516001600160f81b0319169083015260408082015160ff169083015260608082015161ffff16908301526080808201516001600160701b0319169083015260a0908101511515910152565b6001600160a01b0391909116815260200190565b6001600160a01b03948516815292841660208401529083166040830152909116606082015260800190565b600061012080830160018060a01b038089168552602081891681870152604091506149ac828701896148e5565b61010086019390935285519182905261014085019280870192855b81811015614a23578451805161ffff16875283810151848801528481015185880152606080820151908801526080808201519088015260a0908101519060048210614a0e57fe5b87015260c090950194938201936001016149c7565b50939a9950505050505050505050565b6001600160a01b039384168152919092166020820152604081019190915260600190565b6001600160a01b03929092168252602082015260400190565b6001600160a01b038316815260e081016110da60208301846148e5565b6001600160a01b0395909516855261ffff9390931660208501526040840191909152151560608301521515608082015260a00190565b6001600160a01b0396909616865261ffff94909416602086015260408501929092526060840152608083015260a082015260c00190565b6001600160a01b0394909416845260208401929092526040830152606082015260800190565b901515815260200190565b9182521515602082015260400190565b6020808252600f908201526e04f76657220537570706c792043617608c1b604082015260600190565b6020808252600b908201526a4554482042616c616e636560a81b604082015260600190565b60208082526006908201526552656465656d60d01b604082015260600190565b60208082526012908201527143616e6e6f7420686176652061737365747360701b604082015260600190565b6020808252601390820152722ab730baba3437b934bd32b21031b0b63632b960691b604082015260600190565b6020808252600f908201526e4e6f205072696d6520426f72726f7760881b604082015260600190565b6020808252601c908201527f446570726563617465643a2052656465656d20746f2063546f6b656e00000000604082015260600190565b6020808252600e908201526d1499595b9d1c985b9d0818d85b1b60921b604082015260600190565b602080825260149082015273043616e6e6f74206368616e6765206269746d61760641b604082015260600190565b60208082526010908201526f10d85b9b9bdd081a185d99481919589d60821b604082015260600190565b6020808252600a90820152692732b390372a37b5b2b760b11b604082015260600190565b602080825260139082015272125b9d985b1a590818dd5c9c995b98de481a59606a1b604082015260600190565b602080825260139082015272496e73756666696369656e7420746f6b656e7360681b604082015260600190565b90815260200190565b918252602082015260400190565b9283526020830191909152604082015260600190565b60405181810167ffffffffffffffff81118282101715614da957fe5b604052919050565b600067ffffffffffffffff821115614dc557fe5b5060209081020190565b6001600160a01b0381168114614de457600080fd5b50565b8015158114614de457600080fd5b61ffff81168114614de457600080fdfea264697066735822122043b71987bb6fcab02d1155378d1a32e1d668b4a8f8e697dbb8663dae7ee55a3064736f6c63430007060033","bytecodeSha1":"be4a1d72b61708077791eccf4b27a48f9a785c5c","compiler":{"evm_version":"istanbul","optimizer":{"enabled":true,"runs":200},"version":"0.7.6+commit.7338295f"},"contractName":"AccountAction","deployedBytecode":"60806040526004361061009c5760003560e01c80638246336711610064578063824633671461015c5780638da5cb5b146101715780639c97945014610186578063b8a69455146101a6578063c4c96dae146101c6578063f667f897146101eb5761009c565b806302f332e8146100a157806324a3d622146100d75780632890fb65146100f957806361d0d61c1461010c578063668906431461012e575b600080fd5b3480156100ad57600080fd5b506100c16100bc366004614855565b610218565b6040516100ce9190614d60565b60405180910390f35b3480156100e357600080fd5b506100ec6103ad565b6040516100ce9190614940565b6100c16101073660046144a7565b6103bc565b34801561011857600080fd5b5061012c610127366004614670565b610488565b005b34801561013a57600080fd5b5061014e6101493660046144e7565b6104c2565b6040516100ce929190614b2b565b34801561016857600080fd5b506100ec610780565b34801561017d57600080fd5b506100ec61078f565b34801561019257600080fd5b5061012c6101a1366004614839565b6107a6565b3480156101b257600080fd5b506100c16101c13660046144a7565b6107f3565b3480156101d257600080fd5b506101db610880565b6040516100ce9493929190614954565b3480156101f757600080fd5b5061020b61020636600461448b565b6108da565b6040516100ce9190614b20565b60006002600a5414156102465760405162461bcd60e51b815260040161023d90614c62565b60405180910390fd5b6002600a5561ffff841660011461027457816102745760405162461bcd60e51b815260040161023d90614c2b565b600061027f3361090e565b50905061028a614142565b610296813388856109d3565b6001600160581b0385811614156102cf5760008160200151136102b857600080fd5b6102c581602001516109f4565b60808201526102e7565b6102e1856001600160581b03166109f4565b60808201525b60006102f68233858815610a08565b90506103028333610a23565b60208301516001600160f81b0319161561037e57604051636ccc642f60e01b815273__$841fddfe32830bb6dbc3a02d7f16c53722$__90636ccc642f9061034d903390600401614940565b60006040518083038186803b15801561036557600080fd5b505af4158015610379573d6000803e3d6000fd5b505050505b600081131561038c57600080fd5b61039d610398826109f4565b610b40565b6001600a55979650505050505050565b6002546001600160a01b031681565b60006002600a5414156103e15760405162461bcd60e51b815260040161023d90614c62565b6002600a55333014156103f357600080fd5b336001600160a01b0385161461040857600080fd5b61041184610b53565b600061041c85610bce565b9050610426614142565b610432818787856109d3565b600061044b8761044187610c7c565b8491906000610c92565b90506000811361045a57600080fd5b610465828885610ce4565b61046f8388610a23565b61012082015161047f9087610d02565b61039d81610b40565b3330141561049557600080fd5b61049e33610b53565b60006104a93361090e565b5082151560a082015290506104be8133610a23565b5050565b6000806002600a5414156104e85760405162461bcd60e51b815260040161023d90614c62565b6002600a55336001600160a01b038816148061050357503330145b61051f5760405162461bcd60e51b815260040161023d90614bd5565b6001600160601b03851660006105348961090e565b50905061053f614142565b61054b818b8b856109d3565b828160400151121561056f5760405162461bcd60e51b815260040161023d90614d33565b610578836109f4565b60c082015260405163b853e45760e01b8152600090819073__$43fd92ea4ea9b72ca0014644dbfd757564$__9063b853e457906105c1908f908f908a908f908f90600401614a8d565b60006040518083038186803b1580156105d957600080fd5b505af41580156105ed573d6000803e3d6000fd5b505050506040513d6000823e601f3d908101601f19168201604052610615919081019061468c565b60608501829052909250905061062c838d86610ce4565b8051156106d55760006106428c61ffff16610d43565b905073__$f6541b0d362a0c7d99a2a29cd3d373d61b$__63c108fc268e8388866040518563ffffffff1660e01b8152600401610681949392919061497f565b60c06040518083038186803b15801561069957600080fd5b505af41580156106ad573d6000803e3d6000fd5b505050506040513d601f19601f820116820180604052508101906106d19190614796565b9450505b6106df848d610a23565b60208401516001600160f81b0319161561075b57604051636ccc642f60e01b815273__$841fddfe32830bb6dbc3a02d7f16c53722$__90636ccc642f9061072a908f90600401614940565b60006040518083038186803b15801561074257600080fd5b505af4158015610756573d6000803e3d6000fd5b505050505b6107678c8c8488610d69565b516001600a55909b9015159a5098505050505050505050565b6001546001600160a01b031681565b60005464010000000090046001600160a01b031681565b333014156107b357600080fd5b60005461ffff90811690821611156107ca57600080fd5b3360006107d68261090e565b5090506107e4818442610f0d565b6107ee8183610a23565b505050565b60006002600a5414156108185760405162461bcd60e51b815260040161023d90614c62565b6002600a553330141561082a57600080fd5b336001600160a01b0385161461083f57600080fd5b61084884610b53565b600061085385610bce565b905061085d614142565b610869818787856109d3565b600061044b8761087887610c7c565b849190611005565b73__$841fddfe32830bb6dbc3a02d7f16c53722$__73__$b21a4dc043b77aa57922ad9143a3cb040e$__73__$f6541b0d362a0c7d99a2a29cd3d373d61b$__73__$43fd92ea4ea9b72ca0014644dbfd757564$__90919293565b60006108e582610b53565b6000806108f18461090e565b915091508015610905576109058285610a23565b9150505b919050565b61091661419e565b60008061092284610bce565b905061092d816110e1565b156109c7576040516337b5fc2160e11b815273__$f6541b0d362a0c7d99a2a29cd3d373d61b$__90636f6bf8429061096b9087908590600401614a70565b60c06040518083038186803b15801561098357600080fd5b505af4158015610997573d6000803e3d6000fd5b505050506040513d601f19601f820116820180604052508101906109bb9190614796565b600192509250506109ce565b9150600090505b915091565b6109dc82611135565b6101208501526109ee84848484611147565b50505050565b6000610a02600019836111ef565b92915050565b6000610a1885858585600161123d565b90505b949350505050565b6000610a2d6113f3565b6001600160a01b03831660008181526020838152604080832088518154938a01518a84015160608c015160808d015160a08e015164ffffffffff1990981664ffffffffff9095169490941765ff00000000001916600160281b60f89490941c939093029290921766ff0000000000001916600160301b60ff909216919091021768ffff000000000000001916600160381b61ffff90921691909102177affffffffffffffffffffffffffffffffffff0000000000000000001916600160481b60709290921c919091021760ff60d81b1916600160d81b93151593909302929092179091555192935090917f6bd4b121bca854a191536a2ca891155c42ee2fb23f307fb34e8bc65cfcb5412e9190a2505050565b600080821215610b4f57600080fd5b5090565b6001600160a01b038116610b6657600080fd5b6001600160a01b038116610fee1415610b7e57600080fd5b6001600160a01b0381166105e71415610b9657600080fd5b6001600160a01b038116301415610bac57600080fd5b6000610bb782611400565b5050505061ffff169050806000146104be57600080fd5b610bd661419e565b6000610be06113f3565b6001600160a01b03841660009081526020918252604090819020815160c081018352905464ffffffffff811682526001600160f81b0319600160281b820460f81b169382019390935260ff600160301b840481169282019290925261ffff600160381b84041660608201526001600160701b0319600160481b840460701b166080820152600160d81b90920416151560a0820152915050919050565b60006001600160ff1b03821115610b4f57600080fd5b600082610ca157506000610a1b565b60008313610cae57600080fd5b610cc48486600001518588610120015186611469565b6060870151909250610cd791508261152b565b6060860152949350505050565b608083015115610cf357600080fd5b6109ee8383836000600161123d565b600080610d0f8484611541565b915091508160001415610d235750506104be565b818111156109ee5760405162461bcd60e51b815260040161023d90614b3b565b600080610d4e6115ad565b6000938452602052505060409020546001600160a01b031690565b6000610d736115ba565b61ffff8516600090815260209190915260408120546001600160a01b03169150610d9b6115ad565b61ffff8616600090815260209190915260408120546001600160a01b0316915084138015610dc95750600083135b15610f05576040516323de665160e01b81526001600160a01b038316906323de665190610dfe9084908a908990600401614a33565b600060405180830381600087803b158015610e1857600080fd5b505af1158015610e2c573d6000803e3d6000fd5b50505050610e39856115c7565b15610e9c5760006001600160a01b038716337fc3d58168c5ae7397731d063d5bbf3d657854427343f4c083240f7aacaa2d0f62610e75896115e4565b610e81610398896115fa565b604051610e8f929190614d69565b60405180910390a4610f05565b806001600160a01b031663ad1c095d87610eb5866109f4565b6040518363ffffffff1660e01b8152600401610ed2929190614a57565b600060405180830381600087803b158015610eec57600080fd5b505af1158015610f00573d6000803e3d6000fd5b505050505b505050505050565b610f168361161b565b15610f335760405162461bcd60e51b815260040161023d90614c8a565b8161ffff166000108015610f4d5750613fff61ffff831611155b610f695760405162461bcd60e51b815260040161023d90614d06565b604083015160ff1615610f8e5760405162461bcd60e51b815260040161023d90614ba9565b60208301516001600160f81b03191615610fba5760405162461bcd60e51b815260040161023d90614cb8565b610fcf8361ffff84166000600160fe1b611628565b61ffff821660608401526000610fe48261182e565b905064ffffffffff8110610ff757600080fd5b64ffffffffff169092525050565b600081611014575060006110da565b6000821361102157600080fd5b6000611034856000015161ffff1661184c565b80519091506001600160a01b031661104b57600080fd5b60018160600151600581111561105d57fe5b1480611078575060028160600151600581111561107657fe5b145b156110b05784516101208601516110949183918690889061185f565b60608601519092506110a6908361152b565b60608601526110d8565b6004816060015160058111156110c257fe5b141561009c576110d58585856000610c92565b91505b505b9392505050565b6000426110ed8361161b565b1561110e576110fb8161182e565b835164ffffffffff161091506109099050565b825164ffffffffff161580159061112d5750825164ffffffffff168110155b915050610909565b61113d6141d3565b610a0282426118f0565b8161ffff1660001080156111615750613fff61ffff831611155b61116a57600080fd5b61ffff821680855261117d9082906119b1565b156111ac576111928383866101200151611a3b565b61010088015260e0870152604086015260208501526111ca565b6000602085018190526040850181905260e085018190526101008501525b50506000606083018190526080830181905260a0830181905260c09092019190915250565b81810260001983141561121f5781158061121157508282828161120e57fe5b05145b61121a57600080fd5b610a02565b82158061123457508183828161123157fe5b05145b610a0257600080fd5b60008061125a86886000015189608001518a610120015188611af5565b915060006112798860800151896060015161152b90919063ffffffff16565b90508380156112885750600081125b80156112a3575060208801516000906112a1908361152b565b125b156112c9578560a001516112c95760405162461bcd60e51b815260040161023d90614c02565b80156112e85760208801516112de908261152b565b6020890152600191505b60a08801511515806112fd575060c088015115155b1561136657600061132d8960c001516113278b60a001518c6040015161152b90919063ffffffff16565b9061152b565b905060008112156113505760405162461bcd60e51b815260040161023d90614ce2565b61135b898983611b9e565b506040890152600191505b8115611395576113958789600001518a602001518b604001518c60e001518d61010001518e6101200151611c8b565b875160208901516113c29161ffff16901515806113b5575060408a015115155b889190600160fe1b611628565b6000886020015112156113e857602086018051600160f91b176001600160f81b03191690525b505095945050505050565b600080610a026001611dc6565b600080600080600080611411611ddf565b6001600160a01b039097166000908152602097909752505060409094205461ffff81169563ffffffff62010000830481169650600160301b830416945060ff600160501b8304169350600160581b90910460d81b9150565b600080600061147786610b40565b90508061148b576000809250925050611521565b600061149a8861ffff16611dec565b90506003816060015160058111156114ae57fe5b14156114f557348210156114ce576114c98983340387611dff565b6114ed565b3482146114ed5760405162461bcd60e51b815260040161023d90614b64565b86935061150f565b61150c61150782600001518b85611ec7565b610c7c565b93505b61151c898986848a61204f565b925050505b9550959350505050565b81810182811215600083121514610a0257600080fd5b600080600061154e612096565b61ffff8516600090815260209190915260409020600181015490915061158090600160581b900463ffffffff166120a3565b8154909350600160281b90046001600160581b03166115a261039887836120b1565b925050509250929050565b600080610a026003611dc6565b600080610a026021611dc6565b60004660018114801561090557505050600461ffff909116111590565b600c60309190911b67ffff000000000000161790565b6000808212156116145761160d826109f4565b9050610909565b5080610909565b6060015161ffff16151590565b82600010801561163a5750613fff8311155b61164357600080fd5b818015611657575082846060015161ffff16145b15611661576109ee565b6080840151600090815b6001600160701b03198216156117e35760f082901c613fff1686811480156116905750855b156116c857506080870180516001600160f01b0319861660109093029290921c919091176001600160701b0319169052506109ee9050565b86811480156116d5575085155b15611731576001600160f01b03198516199290921691600360fe1b831661170f576010836dffffffffffffffffffffffffffff1916901b92505b506001600160701b031991821660109091021c919091171660808501526109ee565b868111801561173d5750855b15611797576080888101516001600160f01b031960f08a901b88178116601086021c9690961795911b161561177157600080fd5b506001600160701b03199182166001919091016010021c919091171660808501526109ee565b86811180156117a4575085155b156117b257505050506109ee565b506001600160f01b0319821660108281029190911c93909317929190911b6001600160801b0319169060010161166b565b846117f0575050506109ee565b600981106117fd57600080fd5b6001600160f01b031960f087901b85171660109091021c919091176001600160701b03191660808601525050505050565b60006201518082101561184057600080fd5b50620151808106900390565b6118546141f4565b610a028260006120e3565b600061187086600001518486611ec7565b935060006118818661ffff16611dec565b9050600060028860600151600581111561189757fe5b14156118b1576118aa611507898861217d565b90506118d7565b6001886060015160058111156118c357fe5b141561009c576118aa61150789848961222e565b6118e4858883858861204f565b98975050505050505050565b6118f86141d3565b6000611903846123ee565b905082816000015110156119425760008061191d866124b6565b905061192b86848388612533565b909350915061193b868385612634565b505061194f565b8051831461194f57600080fd5b60405180606001604052806119786115078460a001518560c0015161286890919063ffffffff16565b815260200161199b6115078460a001518560e0015161286890919063ffffffff16565b8152602001826060015181525091505092915050565b600081158015906119c45750613fff8211155b6119cd57600080fd5b6080830151606084015161ffff168314156119ec576001915050610a02565b6001600160701b0319811615611a315760f081901c613fff1683811415611a1e5750600160fe1b908116149050610a02565b5060101b6001600160801b0319166119ec565b5060009392505050565b6000806000806000611a4b61288f565b6001600160a01b03891660009081526020828152604080832061ffff8c168452909152902080546001600160501b0381169650600160501b900463ffffffff1694509091508315611ab8578054611ab190600160701b900466ffffffffffffff166120a3565b9250611acd565b8054600160701b900466ffffffffffffff1692505b8054611ae8908890600160a81b9004600a90810b900b61289c565b9550505093509350935093565b600083611b0457506000611b95565b60008412611b1157600080fd5b6000611b208661ffff16611dec565b9050611b3581611b3086886120b1565b6128ca565b91506000611b42836109f4565b9050611b4f878383612902565b600382606001516005811115611b6157fe5b1415611b7757611b72888286611dff565b611b84565b8151611b849089836129f6565b611b91888885858961204f565b5050505b95945050505050565b825160009042908290611bb49061ffff16610d43565b90506000611bc7828860c0015185612a6d565b9050611bd587838388612b50565b93506000611be283612c7d565b90506001600160a01b03811615611c7057806001600160a01b0316631d684dd2888a60000151611c158c60400151610b40565b8a8d60c001518b6040518763ffffffff1660e01b8152600401611c3d96959493929190614ac3565b600060405180830381600087803b158015611c5757600080fd5b505af1158015611c6b573d6000803e3d6000fd5b505050505b8415611c8057611c808786612cef565b505050509392505050565b6000611c9561288f565b6001600160a01b03891660009081526020828152604080832061ffff8c168452909152902090915084611cfd5766ffffffffffffff841115611cd657600080fd5b805466ffffffffffffff60701b1916600160701b66ffffffffffffff861602178155611d17565b8054600160501b900463ffffffff168514611d1757600080fd5b611d2085612d0e565b815463ffffffff91909116600160501b0263ffffffff60501b19909116178155611d51611d4c87610b40565b612d21565b815469ffffffffffffffffffff19166001600160501b039190911617808255611d9790611d929085908c908c90600160a81b9004600a90810b900b8c612d37565b612d5a565b8154600a9190910b6001600160581b0316600160a81b026001600160a81b039091161790555050505050505050565b6000620f4240826026811115611dd857fe5b0192915050565b600080610a026002611dc6565b611df46141f4565b610a028260016120e3565b8015611e91577382af49447d8a07e3bd95bd0d56f35241523fbab16001600160a01b031663d0e30db0836040518263ffffffff1660e01b81526004016000604051808303818588803b158015611e5457600080fd5b505af1158015611e68573d6000803e3d6000fd5b5050505050611e8c7382af49447d8a07e3bd95bd0d56f35241523fbab184846129f6565b6107ee565b6040516001600160a01b0384169083156108fc029084906000818181858888f193505050501580156109ee573d6000803e3d6000fd5b600080846001600160a01b03166370a08231306040518263ffffffff1660e01b815260040180826001600160a01b0316815260200191505060206040518083038186803b158015611f1757600080fd5b505afa158015611f2b573d6000803e3d6000fd5b505050506040513d6020811015611f4157600080fd5b5051604080516323b872dd60e01b81526001600160a01b038781166004830152306024830152604482018790529151929350908716916323b872dd9160648082019260009290919082900301818387803b158015611f9e57600080fd5b505af1158015611fb2573d6000803e3d6000fd5b50505050611fbe612d8c565b6000856001600160a01b03166370a08231306040518263ffffffff1660e01b815260040180826001600160a01b0316815260200191505060206040518083038186803b15801561200d57600080fd5b505afa158015612021573d6000803e3d6000fd5b505050506040513d602081101561203757600080fd5b505190506120458183612df9565b9695505050505050565b60008061205c8486612e0e565b90506120688382612e3e565b9150612075878784612e60565b612080868383612ee0565b835161208c9086612fd3565b5095945050505050565b600080610a02601d611dc6565b600881901c60ff9091161b90565b60006110da6ec097ce7bc90715b34b9f10000000006120dd8560000151856111ef90919063ffffffff16565b90613028565b6120eb6141f4565b60006120f5613059565b6000858152602082815260408083208715158452825291829020825160a08101845281546001600160a01b038116825260ff600160a01b82048116151594830194909452600160b01b81048416600a0a9482019490945293945092916060830191600160a81b90910416600581111561216a57fe5b8152600060209091015295945050505050565b815160405163db006a7560e01b8152600091479183916001600160a01b03169063db006a75906121b1908790600401614d60565b602060405180830381600087803b1580156121cb57600080fd5b505af11580156121df573d6000803e3d6000fd5b505050506040513d601f19601f8201168201806040525081019061220391906148aa565b905080156122235760405162461bcd60e51b815260040161023d90614b89565b476120458184612df9565b60008083600001516001600160a01b03166370a08231306040518263ffffffff1660e01b81526004016122619190614940565b60206040518083038186803b15801561227957600080fd5b505afa15801561228d573d6000803e3d6000fd5b505050506040513d601f19601f820116820180604052508101906122b191906148aa565b9050600085600001516001600160a01b031663db006a75856040518263ffffffff1660e01b81526004016122e59190614d60565b602060405180830381600087803b1580156122ff57600080fd5b505af1158015612313573d6000803e3d6000fd5b505050506040513d601f19601f8201168201806040525081019061233791906148aa565b905080156123575760405162461bcd60e51b815260040161023d90614b89565b84516040516370a0823160e01b81526000916001600160a01b0316906370a0823190612387903090600401614940565b60206040518083038186803b15801561239f57600080fd5b505afa1580156123b3573d6000803e3d6000fd5b505050506040513d601f19601f820116820180604052508101906123d791906148aa565b90506123e38184612df9565b979650505050505050565b6123f6614223565b6000612400612096565b61ffff93841660009081526020918252604090819020805464ffffffffff81168652600160281b81046001600160581b03908116948701949094526001820154841692860192909252600160d81b820463ffffffff166060860152600160801b9091049091166080840152600201546001600160501b0380821660a0850152600160501b8204811660c0850152600160a01b82041660e0840152600160f01b900460ff1661012c02909216610100820152919050565b6000806124c283613066565b6001600160a01b031663ef81f2166040518163ffffffff1660e01b81526004016040805180830381600087803b1580156124fb57600080fd5b505af115801561250f573d6000803e3d6000fd5b505050506040513d601f19601f82011682018060405250810190610a1b91906148c2565b61253b614223565b600080600061254b888689613096565b60c08b019290925260e08a01929092526020890151919350915061256f90836131a1565b602088015260808701516000901561259d57608088015161259a906125948982612df9565b906131b3565b90505b6125bd6125b2670de0b6b3a7640000836131a1565b60a08a0151906131d0565b60a0890152506080870186905260006125d46131ed565b61ffff8a1660009081526020919091526040902054885163ffffffff600160a01b9092048216925061261f9161260e90859085906131a116565b8a606001518b61010001518a6131fa565b60608901525050928552509294909350915050565b600061263e612096565b60008561ffff16815260200190815260200160002090506126628260000151613288565b815464ffffffffff191664ffffffffff9190911617815560a082015161268790612d21565b60028201805469ffffffffffffffffffff19166001600160501b039290921691909117905560c08201516126ba90612d21565b81600201600a6101000a8154816001600160501b0302191690836001600160501b031602179055506126ef8260e00151612d21565b8160020160146101000a8154816001600160501b0302191690836001600160501b03160217905550612724826020015161329c565b81546001600160581b0391909116600160281b026fffffffffffffffffffffff000000000019909116178155604082015161275e9061329c565b6001820180546affffffffffffffffffffff19166001600160581b039290921691909117905560808201516127929061329c565b81546001600160581b0391909116600160801b026affffffffffffffffffffff60801b1990911617815560608201516127ca90612d0e565b815463ffffffff91909116600160d81b0263ffffffff60d81b1990911617815582156128165760006127fb84610c7c565b905061280785826132b2565b612814610fee8683612e60565b505b8361ffff167fef25641e225e493886510ca1ad6584fa7b442b9fea820a29d1de3ce27d270fd28360a001518460c001518560e0015160405161285a93929190614d77565b60405180910390a250505050565b60008261287757506000610a02565b8282028284828161288457fe5b04146110da57600080fd5b600080610a026006611dc6565b60008082126128ac575080610a02565b825160208401516128c391906120dd9085906111ef565b9050610a02565b60006305f5e100836040015114156128e3575080610a02565b6110da6305f5e1006120dd8560400151856111ef90919063ffffffff16565b600061290c6132e9565b83516001600160a01b03166000908152602082905260409020549091508083116129375750506107ee565b600061294286613066565b90506000816001600160a01b031663b5e4da23866040518263ffffffff1660e01b81526004016129729190614d60565b60006040518083038186803b15801561298a57600080fd5b505afa15801561299e573d6000803e3d6000fd5b505050506040513d6000823e601f3d908101601f191682016040526129c69190810190614562565b905060006129d487836132f6565b90506129e084826131a1565b8611156129ec57600080fd5b5050505050505050565b826001600160a01b031663a9059cbb83836040518363ffffffff1660e01b815260040180836001600160a01b0316815260200182815260200192505050600060405180830381600087803b158015612a4d57600080fd5b505af1158015612a61573d6000803e3d6000fd5b505050506107ee612d8c565b6000806000612a7c86856134ff565b50915091506000612a8b613595565b6001600160a01b0388166000908152602082905260408120919250612ab0858961152b565b905080600013158015612ac957506001600160601b0381105b612ad257600080fd5b81546bffffffffffffffffffffffff19166001600160601b038216176fffffffffffffffffffffffffffffffff60601b1916600160601b6001600160801b0386160217825563ffffffff8710612b2757600080fd5b50805463ffffffff8716600160e01b026001600160e01b03909116179055509150509392505050565b60e084015160009015612c115773__$b21a4dc043b77aa57922ad9143a3cb040e$__63e0c01a7285612b858860400151610b40565b8860e001518961010001516040518563ffffffff1660e01b8152600401612baf9493929190614afa565b60206040518083038186803b158015612bc757600080fd5b505af4158015612bdb573d6000803e3d6000fd5b505050506040513d601f19601f82011682018060405250810190612bff91906148aa565b600060e0870181905261010087015290505b612c53612c4c866101000151612c46670de0b6b3a7640000612c4088612c3a8c60400151610b40565b90612868565b906135a2565b90612df9565b82906131a1565b9050612c6b670de0b6b3a7640000612c408486612868565b85610100018181525050949350505050565b600080612c88611ddf565b6001600160a01b0384166000908152602082905260409020805491925090600160f81b900460ff1615612ce457612cbd6135c1565b6001600160a01b038086166000908152602092909252604090912054169250610909915050565b600092505050610909565b6104be73019be259bc299f3f653688c7655c87f998bc7bc183836129f6565b600063ffffffff821115610b4f57600080fd5b60006001600160501b03821115610b4f57600080fd5b6000612d4386836135ce565b9050611b95868686612d55878661360d565b613694565b60006a7fffffffffffffffffffff198212801590612d8357506a7fffffffffffffffffffff8213155b610b4f57600080fd5b6000612d9661426f565b3d8015612daa5760208114612db357600080fd5b60019250612dbe565b60206000833e815192505b50816104be576040805162461bcd60e51b8152602060048201526005602482015264045524332360dc1b604482015290519081900360640190fd5b600082821115612e0857600080fd5b50900390565b60006305f5e10083604001511415612e27575080610a02565b60408301516110da906120dd846305f5e1006111ef565b81516000906110da906120dd846ec097ce7bc90715b34b9f10000000006111ef565b6000612e6a6115ba565b61ffff8416600090815260209190915260409081902054905163ad1c095d60e01b81526001600160a01b039091169150819063ad1c095d90612eb29087908690600401614a57565b600060405180830381600087803b158015612ecc57600080fd5b505af11580156129ec573d6000803e3d6000fd5b6000612eea612096565b61ffff8516600090815260209190915260409020805490915064ffffffffff164214612f1557600080fd5b8054600090612f3490600160281b90046001600160581b03168561152b565b8254909150600090612f5690600160801b90046001600160581b03168561152b565b9050612f69612f6482610b40565b61329c565b83546001600160581b0391909116600160801b026affffffffffffffffffffff60801b19909116178355612f9f612f6483610b40565b83546001600160581b0391909116600160281b026fffffffffffffffffffffff000000000019909116179092555050505050565b6000612fdd6132e9565b6001600160a01b038416600090815260208290526040902054909150613006610398828561152b565b6001600160a01b03909416600090815260209290925250604090209190915550565b60008160001914801561303e5750600160ff1b83145b1561304857600080fd5b81838161305157fe5b059392505050565b600080610a026007611dc6565b6000806130716136c8565b61ffff939093166000908152602093909352505060409020546001600160a01b031690565b6000806000806000806130a989886136d5565b895190955091935091506000906130d0906130c5908b90612df9565b633b9aca0090612868565b905061310a6130ff6301da9c006130e78585612868565b816130ee57fe5b670de0b6b3a76400009190046131a1565b60e08a0151906131d0565b965061312c6131216301da9c006130e78785612868565b60c08a0151906131d0565b955081831415613143575060009350613198915050565b600061316561315a6301da9c006130e78786612868565b60e08b0151906131d0565b905060006131738983612df9565b905061319088612c40838d6040015161286890919063ffffffff16565b965050505050505b93509350935093565b6000828201838110156110da57600080fd5b60006110da6131ca84670de0b6b3a7640000612868565b836135a2565b60006110da6131df8484612868565b670de0b6b3a76400006135a2565b600080610a026025611dc6565b600080831161320857600080fd5b81861115613217575083611b95565b60006132238388612df9565b9050838111156132365785915050611b95565b6000613242828661376f565b90506000613254633b9aca0083612df9565b905061327b633b9aca00612c4061326b8a85612868565b6132758c87612868565b906131a1565b9998505050505050505050565b600064ffffffffff821115610b4f57600080fd5b60006001600160581b03821115610b4f57600080fd5b60008112156132c057600080fd5b60006132ce610fee84613782565b90506132da818361152b565b90506107ee610fee84836137db565b600080610a026026611dc6565b6000805b82518110156134f857600083828151811061331157fe5b60200260200101519050600081606001516001600160a01b03166370a08231306040518263ffffffff1660e01b815260040161334d9190614940565b60206040518083038186803b15801561336557600080fd5b505afa158015613379573d6000803e3d6000fd5b505050506040513d601f19601f8201168201806040525081019061339d91906148aa565b905060006133ab873061384f565b905060005b8351518110156133fc576133f4846000015182815181106133cd57fe5b60200260200101516000866020015184815181106133e757fe5b60200260200101516138f9565b6001016133b0565b506000613409883061384f565b905060006134178284612df9565b9050808560400151111561342a57600080fd5b60608501516040516370a0823160e01b81526000916001600160a01b0316906370a082319061345d903090600401614940565b60206040518083038186803b15801561347557600080fd5b505afa158015613489573d6000803e3d6000fd5b505050506040513d601f19601f820116820180604052508101906134ad91906148aa565b9050848111156134bc57600080fd5b6134cb86606001518683613a36565b6134d588836131a1565b97506134e68a600001518585613a36565b5050600190940193506132fa92505050565b5092915050565b600080600061350d85613ab3565b9194509250905080841180156135235750600081115b801561352f5750600083115b1561358e57600061353f86611400565b505050915050600061356a6135616305f5e1008461286890919063ffffffff16565b84880387613b0f565b905061357684826131a1565b93506001600160801b03841061358b57600080fd5b50505b9250925092565b600080610a026011611dc6565b60008082116135b057600080fd5b8183816135b957fe5b049392505050565b600080610a026012611dc6565b6000808212156136075761360260016135fc85602001516120dd8760000151876111ef90919063ffffffff16565b90613b31565b6110da565b50919050565b60008183148061362a57506000831215801561362a575060008212155b1561363757506000610a02565b600083131580156136485750816000125b15613654575081610a02565b600082131580156136655750826000125b15613673576128c3826109f4565b60008313158015613685575060008213155b1561009c576128c38383613b31565b80156109ee57835160208501516000916136b3916120dd9085906111ef565b90506136c184848484613b47565b5050505050565b600080610a02601f611dc6565b6000806000806000856020015111156137225761371f6137068660c00151876020015161286890919063ffffffff16565b60e0870151604088015161371991612868565b9061376f565b90505b600061372d87613c84565b90506137398183613cb7565b945081156137505761374d81866001613d6a565b93505b60208601511561358b576137648583613ddb565b925050509250925092565b60006110da6131ca84633b9aca00612868565b60008061378d61288f565b6001600160a01b03851660009081526020828152604080832061ffff8816845290915281208054600160a81b9004600a90810b900b94509192508312156137d357600080fd5b505092915050565b60008112156137e957600080fd5b60006137f361288f565b6001600160a01b03851660009081526020828152604080832061ffff88168452909152902090915061382483612d5a565b8154600a9190910b6001600160581b0316600160a81b026001600160a81b0390911617905550505050565b600060038360600151600581111561386357fe5b141561387a57506001600160a01b03811631610a02565b82516040516370a0823160e01b81526001600160a01b03909116906370a08231906138a9908590600401614940565b60206040518083038186803b1580156138c157600080fd5b505afa1580156138d5573d6000803e3d6000fd5b505050506040513d601f19601f820116820180604052508101906128c391906148aa565b600080846001600160a01b031684846040518082805190602001908083835b602083106139375780518252601f199092019160209182019101613918565b6001836020036101000a03801982511681845116808217855250505050505090500191505060006040518083038185875af1925050503d8060008114613999576040519150601f19603f3d011682016040523d82523d6000602084013e61399e565b606091505b5091509150816139ad82613df4565b90610f055760405162461bcd60e51b81526004018080602001828103825283818151815260200191508051906020019080838360005b838110156139fb5781810151838201526020016139e3565b50505050905090810190601f168015613a285780820380516001836020036101000a031916815260200191505b509250505060405180910390fd5b6000613a406132e9565b6001600160a01b03851660009081526020829052604090205490915083811115613a6957600080fd5b6000613a80613a7786610c7c565b6135fc86610c7c565b9050613a8f610398838361152b565b6001600160a01b039096166000908152602093909352505060409020929092555050565b600080600080613ac1613595565b6001600160a01b0395909516600090815260209590955250506040909220546001600160601b03811693600160601b82046001600160801b03169350600160e01b90910463ffffffff169150565b6000610a1b82612c406301da9c008188612c3a89670de0b6b3a7640000612868565b80820382811315600083121514610a0257600080fd5b6000613b51612096565b61ffff8516600090815260209190915260409020805490915064ffffffffff164214613b7c57600080fd5b8054600160f81b900460ff16613b9157600080fd5b6001810154600090613bac906001600160581b03168561152b565b8254909150600090613bce90600160281b90046001600160581b03168561152b565b905081600919128015613be15750600082125b15613beb57600091505b80600919128015613bfc5750600081125b15613c05575060005b613c11612f6483610b40565b6001840180546affffffffffffffffffffff19166001600160581b0392909216919091179055613c43612f6482610b40565b83546001600160581b0391909116600160281b026fffffffffffffffffffffff000000000019909116178355613c7b87878688613efb565b50505050505050565b613c8c61428d565b6000613c96613fd5565b61ffff84166000908152602091909152604081205491506109059082613fe2565b600080836080015111613cc957600080fd5b633b9aca00821115613cda57600080fd5b82518211613cf957825160408401516128c39190612c40908590612868565b82602001518211613d315760408301518351602085015160608601516128c393926132759281900391612c4091880390859003612868565b6110da83606001516132758560200151633b9aca0003612c4087606001518860800151038860200151880361286890919063ffffffff16565b600080613d896064612c408760e001518761286890919063ffffffff16565b90508460a00151811015613d9e575060a08401515b8460c00151811115613db1575060c08401515b8215613dc1576110d584826131a1565b838111613dd0578084036110d5565b600095945050505050565b60006110da613dea8484612868565b633b9aca006135a2565b6060604482511015613e2a575060408051808201909152600d81526c14da5b195b9d0814995d995c9d609a1b6020820152610909565b6004820180519092602401906020811015613e4457600080fd5b8101908080516040519392919084640100000000821115613e6457600080fd5b908301906020820185811115613e7957600080fd5b8251640100000000811182820188101715613e9357600080fd5b82525081516020918201929091019080838360005b83811015613ec0578181015183820152602001613ea8565b50505050905090810190601f168015613eed5780820380516001836020036101000a031916815260200191505b506040525050509050919050565b6000613f056115ba565b61ffff8516600090815260209190915260408120546001600160a01b03169150613f2d614101565b61ffff8616600090815260209190915260409081902054905163ad1c095d60e01b81526001600160a01b039091169150819063ad1c095d90613f759089908790600401614a57565b600060405180830381600087803b158015613f8f57600080fd5b505af1158015613fa3573d6000803e3d6000fd5b505060405163ad1c095d60e01b81526001600160a01b038516925063ad1c095d9150610ed29089908890600401614a57565b600080610a02601b611dc6565b613fea61428d565b6064633b9aca008360ff86166020811061400057fe5b1a028161400957fe5b0481526064633b9aca008360ff86166001016020811061402557fe5b1a028161402e57fe5b048160200181815250506140538260028560ff16016020811061404d57fe5b1a61410e565b60808201819052610100908360ff86166003016020811061407057fe5b1a028161407957fe5b0460408201526080810151610100908360ff86166004016020811061409a57fe5b1a02816140a357fe5b0460608201526207a1208260ff8516600501602081106140bf57fe5b1a0260a0820152622625a08260ff8516600601602081106140dc57fe5b1a0260c08201528160ff8416600701602081106140f557fe5b1a60e082015292915050565b600080610a026022611dc6565b60008160ff166096106141295760ff8216622625a002610a02565b5060951960ff919091160162e4e1c00263165a0bc00190565b604051806101400160405280600061ffff16815260200160008152602001600081526020016000815260200160008152602001600081526020016000815260200160008152602001600081526020016141996141d3565b905290565b6040805160c081018252600080825260208201819052918101829052606081018290526080810182905260a081019190915290565b60405180606001604052806000815260200160008152602001600081525090565b6040805160a0810182526000808252602082018190529181018290529060608201908152602001600081525090565b6040518061012001604052806000815260200160008152602001600081526020016000815260200160008152602001600081526020016000815260200160008152602001600081525090565b60405180602001604052806001906020820280368337509192915050565b60405180610100016040528060008152602001600081526020016000815260200160008152602001600081526020016000815260200160008152602001600081525090565b805161090981614dcf565b600082601f8301126142ed578081fd5b815160206143026142fd83614db1565b614d8d565b828152818101908583018385028701840188101561431e578586fd5b855b8581101561434557815161433381614dcf565b84529284019290840190600101614320565b5090979650505050505050565b6000601f8381840112614363578182fd5b825160206143736142fd83614db1565b82815281810190868301865b8581101561441757815189018a603f820112614399578889fd5b8581015167ffffffffffffffff8111156143af57fe5b6143c0818a01601f19168801614d8d565b8181528c60408385010111156143d4578a8bfd5b8a5b828110156143f257838101604001518282018a015288016143d6565b82811115614402578b8984840101525b5086525050928401929084019060010161437f565b509098975050505050505050565b805161090981614de7565b80516001600160701b03198116811461090957600080fd5b80516001600160f81b03198116811461090957600080fd5b80516004811061090957600080fd5b805161090981614df5565b805160ff8116811461090957600080fd5b60006020828403121561449c578081fd5b81356110da81614dcf565b6000806000606084860312156144bb578182fd5b83356144c681614dcf565b925060208401356144d681614df5565b929592945050506040919091013590565b600080600080600060a086880312156144fe578283fd5b853561450981614dcf565b9450602086013561451981614df5565b935060408601356001600160601b0381168114614534578384fd5b9250606086013561454481614de7565b9150608086013561455481614de7565b809150509295509295909350565b60006020808385031215614574578182fd5b825167ffffffffffffffff8082111561458b578384fd5b818501915085601f83011261459e578384fd5b81516145ac6142fd82614db1565b81815284810190848601875b8481101561466157815187016080818d03601f190112156145d757898afd5b60408051608081018181108a821117156145ed57fe5b8252828b0151898111156145ff578c8dfd5b61460d8f8d838701016142dd565b8252508183015189811115614620578c8dfd5b61462e8f8d83870101614352565b8c83015250606083015182820152614648608084016142d2565b60608201528652505092870192908701906001016145b8565b50909998505050505050505050565b600060208284031215614681578081fd5b81356110da81614de7565b600080604080848603121561469f578283fd5b8351925060208085015167ffffffffffffffff808211156146be578485fd5b818701915087601f8301126146d1578485fd5b81516146df6142fd82614db1565b8181528481019084860160c0808502870188018d10156146fd57898afd5b8996505b848710156147845780828e03121561471757898afd5b8851818101818110888211171561472a57fe5b8a52825161473781614df5565b81528289015189820152898301518a820152606080840151908201526080808401519082015260a061476a818501614460565b908201528452600196909601959287019290810190614701565b50989b909a5098505050505050505050565b600060c082840312156147a7578081fd5b60405160c0810181811067ffffffffffffffff821117156147c457fe5b604052825164ffffffffff811681146147db578283fd5b81526147e960208401614448565b60208201526147fa6040840161447a565b604082015261480b6060840161446f565b606082015261481c60808401614430565b608082015261482d60a08401614425565b60a08201529392505050565b60006020828403121561484a578081fd5b81356110da81614df5565b600080600060608486031215614869578081fd5b833561487481614df5565b925060208401356001600160581b038116811461488f578182fd5b9150604084013561489f81614de7565b809150509250925092565b6000602082840312156148bb578081fd5b5051919050565b600080604083850312156148d4578182fd5b505080516020909101519092909150565b805164ffffffffff1682526020808201516001600160f81b0319169083015260408082015160ff169083015260608082015161ffff16908301526080808201516001600160701b0319169083015260a0908101511515910152565b6001600160a01b0391909116815260200190565b6001600160a01b03948516815292841660208401529083166040830152909116606082015260800190565b600061012080830160018060a01b038089168552602081891681870152604091506149ac828701896148e5565b61010086019390935285519182905261014085019280870192855b81811015614a23578451805161ffff16875283810151848801528481015185880152606080820151908801526080808201519088015260a0908101519060048210614a0e57fe5b87015260c090950194938201936001016149c7565b50939a9950505050505050505050565b6001600160a01b039384168152919092166020820152604081019190915260600190565b6001600160a01b03929092168252602082015260400190565b6001600160a01b038316815260e081016110da60208301846148e5565b6001600160a01b0395909516855261ffff9390931660208501526040840191909152151560608301521515608082015260a00190565b6001600160a01b0396909616865261ffff94909416602086015260408501929092526060840152608083015260a082015260c00190565b6001600160a01b0394909416845260208401929092526040830152606082015260800190565b901515815260200190565b9182521515602082015260400190565b6020808252600f908201526e04f76657220537570706c792043617608c1b604082015260600190565b6020808252600b908201526a4554482042616c616e636560a81b604082015260600190565b60208082526006908201526552656465656d60d01b604082015260600190565b60208082526012908201527143616e6e6f7420686176652061737365747360701b604082015260600190565b6020808252601390820152722ab730baba3437b934bd32b21031b0b63632b960691b604082015260600190565b6020808252600f908201526e4e6f205072696d6520426f72726f7760881b604082015260600190565b6020808252601c908201527f446570726563617465643a2052656465656d20746f2063546f6b656e00000000604082015260600190565b6020808252600e908201526d1499595b9d1c985b9d0818d85b1b60921b604082015260600190565b602080825260149082015273043616e6e6f74206368616e6765206269746d61760641b604082015260600190565b60208082526010908201526f10d85b9b9bdd081a185d99481919589d60821b604082015260600190565b6020808252600a90820152692732b390372a37b5b2b760b11b604082015260600190565b602080825260139082015272125b9d985b1a590818dd5c9c995b98de481a59606a1b604082015260600190565b602080825260139082015272496e73756666696369656e7420746f6b656e7360681b604082015260600190565b90815260200190565b918252602082015260400190565b9283526020830191909152604082015260600190565b60405181810167ffffffffffffffff81118282101715614da957fe5b604052919050565b600067ffffffffffffffff821115614dc557fe5b5060209081020190565b6001600160a01b0381168114614de457600080fd5b50565b8015158114614de457600080fd5b61ffff81168114614de457600080fdfea264697066735822122043b71987bb6fcab02d1155378d1a32e1d668b4a8f8e697dbb8663dae7ee55a3064736f6c63430007060033","language":"Solidity","natspec":{"kind":"dev","methods":{"depositAssetToken(address,uint16,uint256)":{"details":"emit:CashBalanceChange emit:AccountContextUpdateauth:none","notice":"DEPRECATED: deposits deprecated cTokens tokens as collateral into an account that were listed prior to the migration to prime cash. Future listed tokens will not have asset tokens and will revert in this method.","params":{"account":"the account to deposit into","amountExternalPrecision":"the amount of asset tokens in its native decimal precision (i.e. 8 decimals for cTokens).","currencyId":"currency id of the asset token"},"returns":{"_0":"asset tokens minted and deposited to the account in internal decimals (8)"}},"depositUnderlyingToken(address,uint16,uint256)":{"details":"emit:CashBalanceChange emit:AccountContextUpdateauth:none","notice":"Deposits and wraps the underlying token for a particular cToken. Does not settle assets or check free collateral, idea is to be as gas efficient as possible during potential liquidation events.","params":{"account":"the account to deposit into","amountExternalPrecision":"the amount of underlying tokens in its native decimal precision (i.e. 18 decimals for DAI or 6 decimals for USDC). This will be converted to 8 decimals during transfer.","currencyId":"currency id of the asset token that wraps this underlying"},"returns":{"_0":"asset tokens minted and deposited to the account in internal decimals (8)"}},"enableBitmapCurrency(uint16)":{"details":"emit:AccountSettled emit:AccountContextUpdateauth:msg.sender","notice":"Enables a bitmap currency for msg.sender, account cannot have any assets when this call occurs. Will revert if the account already has a bitmap currency set.","params":{"currencyId":"the currency to enable the bitmap for."}},"enablePrimeBorrow(bool)":{"details":"emit:AccountSettled emit:AccountContextUpdateauth:msg.sender","notice":"A per account setting that allows it to borrow prime cash (i.e. incur negative cash) as a result of account initiated actions. Accounts can still incur negative cash as a result of fCash settlement regardless of this setting.","params":{"allowPrimeBorrow":"true if the account can borrow prime cash"}},"getLibInfo()":{"notice":"Get a list of deployed library addresses (sorted by library name)"},"nTokenRedeem(address,uint16,uint96,bool,bool)":{"details":"auth:msg.sender auth:ERC1155","notice":"Allows accounts to redeem nTokens into constituent assets and then absorb the assets into their portfolio. Due to the complexity here, it is not allowed to be called during a batch trading operation and must be done separately.","params":{"acceptResidualAssets":"if true, will place any residual fCash that could not be sold (either due to slippage or because it was idiosyncratic) into the account's portfolio","currencyId":"the currency associated the nToken","redeemer":"the address that holds the nTokens to redeem","sellTokenAssets":"attempt to sell residual fCash and convert to cash","tokensToRedeem_":"the amount of nTokens to convert to cash"},"returns":{"_0":"total amount of asset cash redeemed","_1":"true or false if there were residuals that were placed into the portfolio"}},"settleAccount(address)":{"details":"emit:AccountSettled emit:AccountContextUpdateauth:none","notice":"Method for manually settling an account, generally should not be called because other methods will check if an account needs to be settled automatically. If a bitmap account has debt and is settled via this method, the hasDebt flag will not be cleared until a free collateral check is performed on the account.","params":{"account":"the account to settle"},"returns":{"_0":"returns true if account has been settled"}},"withdraw(uint16,uint88,bool)":{"details":"emit:CashBalanceChange emit:AccountContextUpdateauth:msg.sender","notice":"Withdraws balances from Notional, may also redeem to underlying tokens on user request. Will settle and do free collateral checks if required. Can only be called by msg.sender, operators who want to withdraw for an account must do an authenticated call via ERC1155Action `safeTransferFrom` or `safeBatchTransferFrom`","params":{"amountInternalPrecision":"the amount of cash balance in internal 8 decimal precision to withdraw, this is be denominated in prime cash. If set to uint88 max, will withdraw an entire cash balance.","currencyId":"currency id of the asset token","redeemToUnderlying":"DEPRECATED except for ETH balances. Prior to the prime cash upgrade, accounts could withdraw cTokens directly. However, post prime cash migration this is no longer the case. If withdrawing ETH, setting redeemToUnderlying to false will redeem ETH as WETH."},"returns":{"_0":"the amount of tokens received by the account denominated in the destination token precision (if"}}},"version":1},"opcodes":"PUSH1 0x80 PUSH1 0x40 MSTORE PUSH1 0x4 CALLDATASIZE LT PUSH2 0x9C JUMPI PUSH1 0x0 CALLDATALOAD PUSH1 0xE0 SHR DUP1 PUSH4 0x82463367 GT PUSH2 0x64 JUMPI DUP1 PUSH4 0x82463367 EQ PUSH2 0x15C JUMPI DUP1 PUSH4 0x8DA5CB5B EQ PUSH2 0x171 JUMPI DUP1 PUSH4 0x9C979450 EQ PUSH2 0x186 JUMPI DUP1 PUSH4 0xB8A69455 EQ PUSH2 0x1A6 JUMPI DUP1 PUSH4 0xC4C96DAE EQ PUSH2 0x1C6 JUMPI DUP1 PUSH4 0xF667F897 EQ PUSH2 0x1EB JUMPI PUSH2 0x9C JUMP JUMPDEST DUP1 PUSH4 0x2F332E8 EQ PUSH2 0xA1 JUMPI DUP1 PUSH4 0x24A3D622 EQ PUSH2 0xD7 JUMPI DUP1 PUSH4 0x2890FB65 EQ PUSH2 0xF9 JUMPI DUP1 PUSH4 0x61D0D61C EQ PUSH2 0x10C JUMPI DUP1 PUSH4 0x66890643 EQ PUSH2 0x12E JUMPI JUMPDEST PUSH1 0x0 DUP1 REVERT JUMPDEST CALLVALUE DUP1 ISZERO PUSH2 0xAD JUMPI PUSH1 0x0 DUP1 REVERT JUMPDEST POP PUSH2 0xC1 PUSH2 0xBC CALLDATASIZE PUSH1 0x4 PUSH2 0x4855 JUMP JUMPDEST PUSH2 0x218 JUMP JUMPDEST PUSH1 0x40 MLOAD PUSH2 0xCE SWAP2 SWAP1 PUSH2 0x4D60 JUMP JUMPDEST PUSH1 0x40 MLOAD DUP1 SWAP2 SUB SWAP1 RETURN JUMPDEST CALLVALUE DUP1 ISZERO PUSH2 0xE3 JUMPI PUSH1 0x0 DUP1 REVERT JUMPDEST POP PUSH2 0xEC PUSH2 0x3AD JUMP JUMPDEST PUSH1 0x40 MLOAD PUSH2 0xCE SWAP2 SWAP1 PUSH2 0x4940 JUMP JUMPDEST PUSH2 0xC1 PUSH2 0x107 CALLDATASIZE PUSH1 0x4 PUSH2 0x44A7 JUMP JUMPDEST PUSH2 0x3BC JUMP JUMPDEST CALLVALUE DUP1 ISZERO PUSH2 0x118 JUMPI PUSH1 0x0 DUP1 REVERT JUMPDEST POP PUSH2 0x12C PUSH2 0x127 CALLDATASIZE PUSH1 0x4 PUSH2 0x4670 JUMP JUMPDEST PUSH2 0x488 JUMP JUMPDEST STOP JUMPDEST CALLVALUE DUP1 ISZERO PUSH2 0x13A JUMPI PUSH1 0x0 DUP1 REVERT JUMPDEST POP PUSH2 0x14E PUSH2 0x149 CALLDATASIZE PUSH1 0x4 PUSH2 0x44E7 JUMP JUMPDEST PUSH2 0x4C2 JUMP JUMPDEST PUSH1 0x40 MLOAD PUSH2 0xCE SWAP3 SWAP2 SWAP1 PUSH2 0x4B2B JUMP JUMPDEST CALLVALUE DUP1 ISZERO PUSH2 0x168 JUMPI PUSH1 0x0 DUP1 REVERT JUMPDEST POP PUSH2 0xEC PUSH2 0x780 JUMP JUMPDEST CALLVALUE DUP1 ISZERO PUSH2 0x17D JUMPI PUSH1 0x0 DUP1 REVERT JUMPDEST POP PUSH2 0xEC PUSH2 0x78F JUMP JUMPDEST CALLVALUE DUP1 ISZERO PUSH2 0x192 JUMPI PUSH1 0x0 DUP1 REVERT JUMPDEST POP PUSH2 0x12C PUSH2 0x1A1 CALLDATASIZE PUSH1 0x4 PUSH2 0x4839 JUMP JUMPDEST PUSH2 0x7A6 JUMP JUMPDEST CALLVALUE DUP1 ISZERO PUSH2 0x1B2 JUMPI PUSH1 0x0 DUP1 REVERT JUMPDEST POP PUSH2 0xC1 PUSH2 0x1C1 CALLDATASIZE PUSH1 0x4 PUSH2 0x44A7 JUMP JUMPDEST PUSH2 0x7F3 JUMP JUMPDEST CALLVALUE DUP1 ISZERO PUSH2 0x1D2 JUMPI PUSH1 0x0 DUP1 REVERT JUMPDEST POP PUSH2 0x1DB PUSH2 0x880 JUMP JUMPDEST PUSH1 0x40 MLOAD PUSH2 0xCE SWAP5 SWAP4 SWAP3 SWAP2 SWAP1 PUSH2 0x4954 JUMP JUMPDEST CALLVALUE DUP1 ISZERO PUSH2 0x1F7 JUMPI PUSH1 0x0 DUP1 REVERT JUMPDEST POP PUSH2 0x20B PUSH2 0x206 CALLDATASIZE PUSH1 0x4 PUSH2 0x448B JUMP JUMPDEST PUSH2 0x8DA JUMP JUMPDEST PUSH1 0x40 MLOAD PUSH2 0xCE SWAP2 SWAP1 PUSH2 0x4B20 JUMP JUMPDEST PUSH1 0x0 PUSH1 0x2 PUSH1 0xA SLOAD EQ ISZERO PUSH2 0x246 JUMPI PUSH1 0x40 MLOAD PUSH3 0x461BCD PUSH1 0xE5 SHL DUP2 MSTORE PUSH1 0x4 ADD PUSH2 0x23D SWAP1 PUSH2 0x4C62 JUMP JUMPDEST PUSH1 0x40 MLOAD DUP1 SWAP2 SUB SWAP1 REVERT JUMPDEST PUSH1 0x2 PUSH1 0xA SSTORE PUSH2 0xFFFF DUP5 AND PUSH1 0x1 EQ PUSH2 0x274 JUMPI DUP2 PUSH2 0x274 JUMPI PUSH1 0x40 MLOAD PUSH3 0x461BCD PUSH1 0xE5 SHL DUP2 MSTORE PUSH1 0x4 ADD PUSH2 0x23D SWAP1 PUSH2 0x4C2B JUMP JUMPDEST PUSH1 0x0 PUSH2 0x27F CALLER PUSH2 0x90E JUMP JUMPDEST POP SWAP1 POP PUSH2 0x28A PUSH2 0x4142 JUMP JUMPDEST PUSH2 0x296 DUP2 CALLER DUP9 DUP6 PUSH2 0x9D3 JUMP JUMPDEST PUSH1 0x1 PUSH1 0x1 PUSH1 0x58 SHL SUB DUP6 DUP2 AND EQ ISZERO PUSH2 0x2CF JUMPI PUSH1 0x0 DUP2 PUSH1 0x20 ADD MLOAD SGT PUSH2 0x2B8 JUMPI PUSH1 0x0 DUP1 REVERT JUMPDEST PUSH2 0x2C5 DUP2 PUSH1 0x20 ADD MLOAD PUSH2 0x9F4 JUMP JUMPDEST PUSH1 0x80 DUP3 ADD MSTORE PUSH2 0x2E7 JUMP JUMPDEST PUSH2 0x2E1 DUP6 PUSH1 0x1 PUSH1 0x1 PUSH1 0x58 SHL SUB AND PUSH2 0x9F4 JUMP JUMPDEST PUSH1 0x80 DUP3 ADD MSTORE JUMPDEST PUSH1 0x0 PUSH2 0x2F6 DUP3 CALLER DUP6 DUP9 ISZERO PUSH2 0xA08 JUMP JUMPDEST SWAP1 POP PUSH2 0x302 DUP4 CALLER PUSH2 0xA23 JUMP JUMPDEST PUSH1 0x20 DUP4 ADD MLOAD PUSH1 0x1 PUSH1 0x1 PUSH1 0xF8 SHL SUB NOT AND ISZERO PUSH2 0x37E JUMPI PUSH1 0x40 MLOAD PUSH4 0x6CCC642F PUSH1 0xE0 SHL DUP2 MSTORE PUSH20 0x0 SWAP1 PUSH4 0x6CCC642F SWAP1 PUSH2 0x34D SWAP1 CALLER SWAP1 PUSH1 0x4 ADD PUSH2 0x4940 JUMP JUMPDEST PUSH1 0x0 PUSH1 0x40 MLOAD DUP1 DUP4 SUB DUP2 DUP7 DUP1 EXTCODESIZE ISZERO DUP1 ISZERO PUSH2 0x365 JUMPI PUSH1 0x0 DUP1 REVERT JUMPDEST POP GAS DELEGATECALL ISZERO DUP1 ISZERO PUSH2 0x379 JUMPI RETURNDATASIZE PUSH1 0x0 DUP1 RETURNDATACOPY RETURNDATASIZE PUSH1 0x0 REVERT JUMPDEST POP POP POP POP JUMPDEST PUSH1 0x0 DUP2 SGT ISZERO PUSH2 0x38C JUMPI PUSH1 0x0 DUP1 REVERT JUMPDEST PUSH2 0x39D PUSH2 0x398 DUP3 PUSH2 0x9F4 JUMP JUMPDEST PUSH2 0xB40 JUMP JUMPDEST PUSH1 0x1 PUSH1 0xA SSTORE SWAP8 SWAP7 POP POP POP POP POP POP POP JUMP JUMPDEST PUSH1 0x2 SLOAD PUSH1 0x1 PUSH1 0x1 PUSH1 0xA0 SHL SUB AND DUP2 JUMP JUMPDEST PUSH1 0x0 PUSH1 0x2 PUSH1 0xA SLOAD EQ ISZERO PUSH2 0x3E1 JUMPI PUSH1 0x40 MLOAD PUSH3 0x461BCD PUSH1 0xE5 SHL DUP2 MSTORE PUSH1 0x4 ADD PUSH2 0x23D SWAP1 PUSH2 0x4C62 JUMP JUMPDEST PUSH1 0x2 PUSH1 0xA SSTORE CALLER ADDRESS EQ ISZERO PUSH2 0x3F3 JUMPI PUSH1 0x0 DUP1 REVERT JUMPDEST CALLER PUSH1 0x1 PUSH1 0x1 PUSH1 0xA0 SHL SUB DUP6 AND EQ PUSH2 0x408 JUMPI PUSH1 0x0 DUP1 REVERT JUMPDEST PUSH2 0x411 DUP5 PUSH2 0xB53 JUMP JUMPDEST PUSH1 0x0 PUSH2 0x41C DUP6 PUSH2 0xBCE JUMP JUMPDEST SWAP1 POP PUSH2 0x426 PUSH2 0x4142 JUMP JUMPDEST PUSH2 0x432 DUP2 DUP8 DUP8 DUP6 PUSH2 0x9D3 JUMP JUMPDEST PUSH1 0x0 PUSH2 0x44B DUP8 PUSH2 0x441 DUP8 PUSH2 0xC7C JUMP JUMPDEST DUP5 SWAP2 SWAP1 PUSH1 0x0 PUSH2 0xC92 JUMP JUMPDEST SWAP1 POP PUSH1 0x0 DUP2 SGT PUSH2 0x45A JUMPI PUSH1 0x0 DUP1 REVERT JUMPDEST PUSH2 0x465 DUP3 DUP9 DUP6 PUSH2 0xCE4 JUMP JUMPDEST PUSH2 0x46F DUP4 DUP9 PUSH2 0xA23 JUMP JUMPDEST PUSH2 0x120 DUP3 ADD MLOAD PUSH2 0x47F SWAP1 DUP8 PUSH2 0xD02 JUMP JUMPDEST PUSH2 0x39D DUP2 PUSH2 0xB40 JUMP JUMPDEST CALLER ADDRESS EQ ISZERO PUSH2 0x495 JUMPI PUSH1 0x0 DUP1 REVERT JUMPDEST PUSH2 0x49E CALLER PUSH2 0xB53 JUMP JUMPDEST PUSH1 0x0 PUSH2 0x4A9 CALLER PUSH2 0x90E JUMP JUMPDEST POP DUP3 ISZERO ISZERO PUSH1 0xA0 DUP3 ADD MSTORE SWAP1 POP PUSH2 0x4BE DUP2 CALLER PUSH2 0xA23 JUMP JUMPDEST POP POP JUMP JUMPDEST PUSH1 0x0 DUP1 PUSH1 0x2 PUSH1 0xA SLOAD EQ ISZERO PUSH2 0x4E8 JUMPI PUSH1 0x40 MLOAD PUSH3 0x461BCD PUSH1 0xE5 SHL DUP2 MSTORE PUSH1 0x4 ADD PUSH2 0x23D SWAP1 PUSH2 0x4C62 JUMP JUMPDEST PUSH1 0x2 PUSH1 0xA SSTORE CALLER PUSH1 0x1 PUSH1 0x1 PUSH1 0xA0 SHL SUB DUP9 AND EQ DUP1 PUSH2 0x503 JUMPI POP CALLER ADDRESS EQ JUMPDEST PUSH2 0x51F JUMPI PUSH1 0x40 MLOAD PUSH3 0x461BCD PUSH1 0xE5 SHL DUP2 MSTORE PUSH1 0x4 ADD PUSH2 0x23D SWAP1 PUSH2 0x4BD5 JUMP JUMPDEST PUSH1 0x1 PUSH1 0x1 PUSH1 0x60 SHL SUB DUP6 AND PUSH1 0x0 PUSH2 0x534 DUP10 PUSH2 0x90E JUMP JUMPDEST POP SWAP1 POP PUSH2 0x53F PUSH2 0x4142 JUMP JUMPDEST PUSH2 0x54B DUP2 DUP12 DUP12 DUP6 PUSH2 0x9D3 JUMP JUMPDEST DUP3 DUP2 PUSH1 0x40 ADD MLOAD SLT ISZERO PUSH2 0x56F JUMPI PUSH1 0x40 MLOAD PUSH3 0x461BCD PUSH1 0xE5 SHL DUP2 MSTORE PUSH1 0x4 ADD PUSH2 0x23D SWAP1 PUSH2 0x4D33 JUMP JUMPDEST PUSH2 0x578 DUP4 PUSH2 0x9F4 JUMP JUMPDEST PUSH1 0xC0 DUP3 ADD MSTORE PUSH1 0x40 MLOAD PUSH4 0xB853E457 PUSH1 0xE0 SHL DUP2 MSTORE PUSH1 0x0 SWAP1 DUP2 SWAP1 PUSH20 0x0 SWAP1 PUSH4 0xB853E457 SWAP1 PUSH2 0x5C1 SWAP1 DUP16 SWAP1 DUP16 SWAP1 DUP11 SWAP1 DUP16 SWAP1 DUP16 SWAP1 PUSH1 0x4 ADD PUSH2 0x4A8D JUMP JUMPDEST PUSH1 0x0 PUSH1 0x40 MLOAD DUP1 DUP4 SUB DUP2 DUP7 DUP1 EXTCODESIZE ISZERO DUP1 ISZERO PUSH2 0x5D9 JUMPI PUSH1 0x0 DUP1 REVERT JUMPDEST POP GAS DELEGATECALL ISZERO DUP1 ISZERO PUSH2 0x5ED JUMPI RETURNDATASIZE PUSH1 0x0 DUP1 RETURNDATACOPY RETURNDATASIZE PUSH1 0x0 REVERT JUMPDEST POP POP POP POP PUSH1 0x40 MLOAD RETURNDATASIZE PUSH1 0x0 DUP3 RETURNDATACOPY PUSH1 0x1F RETURNDATASIZE SWAP1 DUP2 ADD PUSH1 0x1F NOT AND DUP3 ADD PUSH1 0x40 MSTORE PUSH2 0x615 SWAP2 SWAP1 DUP2 ADD SWAP1 PUSH2 0x468C JUMP JUMPDEST PUSH1 0x60 DUP6 ADD DUP3 SWAP1 MSTORE SWAP1 SWAP3 POP SWAP1 POP PUSH2 0x62C DUP4 DUP14 DUP7 PUSH2 0xCE4 JUMP JUMPDEST DUP1 MLOAD ISZERO PUSH2 0x6D5 JUMPI PUSH1 0x0 PUSH2 0x642 DUP13 PUSH2 0xFFFF AND PUSH2 0xD43 JUMP JUMPDEST SWAP1 POP PUSH20 0x0 PUSH4 0xC108FC26 DUP15 DUP4 DUP9 DUP7 PUSH1 0x40 MLOAD DUP6 PUSH4 0xFFFFFFFF AND PUSH1 0xE0 SHL DUP2 MSTORE PUSH1 0x4 ADD PUSH2 0x681 SWAP5 SWAP4 SWAP3 SWAP2 SWAP1 PUSH2 0x497F JUMP JUMPDEST PUSH1 0xC0 PUSH1 0x40 MLOAD DUP1 DUP4 SUB DUP2 DUP7 DUP1 EXTCODESIZE ISZERO DUP1 ISZERO PUSH2 0x699 JUMPI PUSH1 0x0 DUP1 REVERT JUMPDEST POP GAS DELEGATECALL ISZERO DUP1 ISZERO PUSH2 0x6AD JUMPI RETURNDATASIZE PUSH1 0x0 DUP1 RETURNDATACOPY RETURNDATASIZE PUSH1 0x0 REVERT JUMPDEST POP POP POP POP PUSH1 0x40 MLOAD RETURNDATASIZE PUSH1 0x1F NOT PUSH1 0x1F DUP3 ADD AND DUP3 ADD DUP1 PUSH1 0x40 MSTORE POP DUP2 ADD SWAP1 PUSH2 0x6D1 SWAP2 SWAP1 PUSH2 0x4796 JUMP JUMPDEST SWAP5 POP POP JUMPDEST PUSH2 0x6DF DUP5 DUP14 PUSH2 0xA23 JUMP JUMPDEST PUSH1 0x20 DUP5 ADD MLOAD PUSH1 0x1 PUSH1 0x1 PUSH1 0xF8 SHL SUB NOT AND ISZERO PUSH2 0x75B JUMPI PUSH1 0x40 MLOAD PUSH4 0x6CCC642F PUSH1 0xE0 SHL DUP2 MSTORE PUSH20 0x0 SWAP1 PUSH4 0x6CCC642F SWAP1 PUSH2 0x72A SWAP1 DUP16 SWAP1 PUSH1 0x4 ADD PUSH2 0x4940 JUMP JUMPDEST PUSH1 0x0 PUSH1 0x40 MLOAD DUP1 DUP4 SUB DUP2 DUP7 DUP1 EXTCODESIZE ISZERO DUP1 ISZERO PUSH2 0x742 JUMPI PUSH1 0x0 DUP1 REVERT JUMPDEST POP GAS DELEGATECALL ISZERO DUP1 ISZERO PUSH2 0x756 JUMPI RETURNDATASIZE PUSH1 0x0 DUP1 RETURNDATACOPY RETURNDATASIZE PUSH1 0x0 REVERT JUMPDEST POP POP POP POP JUMPDEST PUSH2 0x767 DUP13 DUP13 DUP5 DUP9 PUSH2 0xD69 JUMP JUMPDEST MLOAD PUSH1 0x1 PUSH1 0xA SSTORE SWAP1 SWAP12 SWAP1 ISZERO ISZERO SWAP11 POP SWAP9 POP POP POP POP POP POP POP POP POP JUMP JUMPDEST PUSH1 0x1 SLOAD PUSH1 0x1 PUSH1 0x1 PUSH1 0xA0 SHL SUB AND DUP2 JUMP JUMPDEST PUSH1 0x0 SLOAD PUSH5 0x100000000 SWAP1 DIV PUSH1 0x1 PUSH1 0x1 PUSH1 0xA0 SHL SUB AND DUP2 JUMP JUMPDEST CALLER ADDRESS EQ ISZERO PUSH2 0x7B3 JUMPI PUSH1 0x0 DUP1 REVERT JUMPDEST PUSH1 0x0 SLOAD PUSH2 0xFFFF SWAP1 DUP2 AND SWAP1 DUP3 AND GT ISZERO PUSH2 0x7CA JUMPI PUSH1 0x0 DUP1 REVERT JUMPDEST CALLER PUSH1 0x0 PUSH2 0x7D6 DUP3 PUSH2 0x90E JUMP JUMPDEST POP SWAP1 POP PUSH2 0x7E4 DUP2 DUP5 TIMESTAMP PUSH2 0xF0D JUMP JUMPDEST PUSH2 0x7EE DUP2 DUP4 PUSH2 0xA23 JUMP JUMPDEST POP POP POP JUMP JUMPDEST PUSH1 0x0 PUSH1 0x2 PUSH1 0xA SLOAD EQ ISZERO PUSH2 0x818 JUMPI PUSH1 0x40 MLOAD PUSH3 0x461BCD PUSH1 0xE5 SHL DUP2 MSTORE PUSH1 0x4 ADD PUSH2 0x23D SWAP1 PUSH2 0x4C62 JUMP JUMPDEST PUSH1 0x2 PUSH1 0xA SSTORE CALLER ADDRESS EQ ISZERO PUSH2 0x82A JUMPI PUSH1 0x0 DUP1 REVERT JUMPDEST CALLER PUSH1 0x1 PUSH1 0x1 PUSH1 0xA0 SHL SUB DUP6 AND EQ PUSH2 0x83F JUMPI PUSH1 0x0 DUP1 REVERT JUMPDEST PUSH2 0x848 DUP5 PUSH2 0xB53 JUMP JUMPDEST PUSH1 0x0 PUSH2 0x853 DUP6 PUSH2 0xBCE JUMP JUMPDEST SWAP1 POP PUSH2 0x85D PUSH2 0x4142 JUMP JUMPDEST PUSH2 0x869 DUP2 DUP8 DUP8 DUP6 PUSH2 0x9D3 JUMP JUMPDEST PUSH1 0x0 PUSH2 0x44B DUP8 PUSH2 0x878 DUP8 PUSH2 0xC7C JUMP JUMPDEST DUP5 SWAP2 SWAP1 PUSH2 0x1005 JUMP JUMPDEST PUSH20 0x0 PUSH20 0x0 PUSH20 0x0 PUSH20 0x0 SWAP1 SWAP2 SWAP3 SWAP4 JUMP JUMPDEST PUSH1 0x0 PUSH2 0x8E5 DUP3 PUSH2 0xB53 JUMP JUMPDEST PUSH1 0x0 DUP1 PUSH2 0x8F1 DUP5 PUSH2 0x90E JUMP JUMPDEST SWAP2 POP SWAP2 POP DUP1 ISZERO PUSH2 0x905 JUMPI PUSH2 0x905 DUP3 DUP6 PUSH2 0xA23 JUMP JUMPDEST SWAP2 POP POP JUMPDEST SWAP2 SWAP1 POP JUMP JUMPDEST PUSH2 0x916 PUSH2 0x419E JUMP JUMPDEST PUSH1 0x0 DUP1 PUSH2 0x922 DUP5 PUSH2 0xBCE JUMP JUMPDEST SWAP1 POP PUSH2 0x92D DUP2 PUSH2 0x10E1 JUMP JUMPDEST ISZERO PUSH2 0x9C7 JUMPI PUSH1 0x40 MLOAD PUSH4 0x37B5FC21 PUSH1 0xE1 SHL DUP2 MSTORE PUSH20 0x0 SWAP1 PUSH4 0x6F6BF842 SWAP1 PUSH2 0x96B SWAP1 DUP8 SWAP1 DUP6 SWAP1 PUSH1 0x4 ADD PUSH2 0x4A70 JUMP JUMPDEST PUSH1 0xC0 PUSH1 0x40 MLOAD DUP1 DUP4 SUB DUP2 DUP7 DUP1 EXTCODESIZE ISZERO DUP1 ISZERO PUSH2 0x983 JUMPI PUSH1 0x0 DUP1 REVERT JUMPDEST POP GAS DELEGATECALL ISZERO DUP1 ISZERO PUSH2 0x997 JUMPI RETURNDATASIZE PUSH1 0x0 DUP1 RETURNDATACOPY RETURNDATASIZE PUSH1 0x0 REVERT JUMPDEST POP POP POP POP PUSH1 0x40 MLOAD RETURNDATASIZE PUSH1 0x1F NOT PUSH1 0x1F DUP3 ADD AND DUP3 ADD DUP1 PUSH1 0x40 MSTORE POP DUP2 ADD SWAP1 PUSH2 0x9BB SWAP2 SWAP1 PUSH2 0x4796 JUMP JUMPDEST PUSH1 0x1 SWAP3 POP SWAP3 POP POP PUSH2 0x9CE JUMP JUMPDEST SWAP2 POP PUSH1 0x0 SWAP1 POP JUMPDEST SWAP2 POP SWAP2 JUMP JUMPDEST PUSH2 0x9DC DUP3 PUSH2 0x1135 JUMP JUMPDEST PUSH2 0x120 DUP6 ADD MSTORE PUSH2 0x9EE DUP5 DUP5 DUP5 DUP5 PUSH2 0x1147 JUMP JUMPDEST POP POP POP POP JUMP JUMPDEST PUSH1 0x0 PUSH2 0xA02 PUSH1 0x0 NOT DUP4 PUSH2 0x11EF JUMP JUMPDEST SWAP3 SWAP2 POP POP JUMP JUMPDEST PUSH1 0x0 PUSH2 0xA18 DUP6 DUP6 DUP6 DUP6 PUSH1 0x1 PUSH2 0x123D JUMP JUMPDEST SWAP1 POP JUMPDEST SWAP5 SWAP4 POP POP POP POP JUMP JUMPDEST PUSH1 0x0 PUSH2 0xA2D PUSH2 0x13F3 JUMP JUMPDEST PUSH1 0x1 PUSH1 0x1 PUSH1 0xA0 SHL SUB DUP4 AND PUSH1 0x0 DUP2 DUP2 MSTORE PUSH1 0x20 DUP4 DUP2 MSTORE PUSH1 0x40 DUP1 DUP4 KECCAK256 DUP9 MLOAD DUP2 SLOAD SWAP4 DUP11 ADD MLOAD DUP11 DUP5 ADD MLOAD PUSH1 0x60 DUP13 ADD MLOAD PUSH1 0x80 DUP14 ADD MLOAD PUSH1 0xA0 DUP15 ADD MLOAD PUSH5 0xFFFFFFFFFF NOT SWAP1 SWAP9 AND PUSH5 0xFFFFFFFFFF SWAP1 SWAP6 AND SWAP5 SWAP1 SWAP5 OR PUSH6 0xFF0000000000 NOT AND PUSH1 0x1 PUSH1 0x28 SHL PUSH1 0xF8 SWAP5 SWAP1 SWAP5 SHR SWAP4 SWAP1 SWAP4 MUL SWAP3 SWAP1 SWAP3 OR PUSH7 0xFF000000000000 NOT AND PUSH1 0x1 PUSH1 0x30 SHL PUSH1 0xFF SWAP1 SWAP3 AND SWAP2 SWAP1 SWAP2 MUL OR PUSH9 0xFFFF00000000000000 NOT AND PUSH1 0x1 PUSH1 0x38 SHL PUSH2 0xFFFF SWAP1 SWAP3 AND SWAP2 SWAP1 SWAP2 MUL OR PUSH27 0xFFFFFFFFFFFFFFFFFFFFFFFFFFFFFFFFFFFF000000000000000000 NOT AND PUSH1 0x1 PUSH1 0x48 SHL PUSH1 0x70 SWAP3 SWAP1 SWAP3 SHR SWAP2 SWAP1 SWAP2 MUL OR PUSH1 0xFF PUSH1 0xD8 SHL NOT AND PUSH1 0x1 PUSH1 0xD8 SHL SWAP4 ISZERO ISZERO SWAP4 SWAP1 SWAP4 MUL SWAP3 SWAP1 SWAP3 OR SWAP1 SWAP2 SSTORE MLOAD SWAP3 SWAP4 POP SWAP1 SWAP2 PUSH32 0x6BD4B121BCA854A191536A2CA891155C42EE2FB23F307FB34E8BC65CFCB5412E SWAP2 SWAP1 LOG2 POP POP POP JUMP JUMPDEST PUSH1 0x0 DUP1 DUP3 SLT ISZERO PUSH2 0xB4F JUMPI PUSH1 0x0 DUP1 REVERT JUMPDEST POP SWAP1 JUMP JUMPDEST PUSH1 0x1 PUSH1 0x1 PUSH1 0xA0 SHL SUB DUP2 AND PUSH2 0xB66 JUMPI PUSH1 0x0 DUP1 REVERT JUMPDEST PUSH1 0x1 PUSH1 0x1 PUSH1 0xA0 SHL SUB DUP2 AND PUSH2 0xFEE EQ ISZERO PUSH2 0xB7E JUMPI PUSH1 0x0 DUP1 REVERT JUMPDEST PUSH1 0x1 PUSH1 0x1 PUSH1 0xA0 SHL SUB DUP2 AND PUSH2 0x5E7 EQ ISZERO PUSH2 0xB96 JUMPI PUSH1 0x0 DUP1 REVERT JUMPDEST PUSH1 0x1 PUSH1 0x1 PUSH1 0xA0 SHL SUB DUP2 AND ADDRESS EQ ISZERO PUSH2 0xBAC JUMPI PUSH1 0x0 DUP1 REVERT JUMPDEST PUSH1 0x0 PUSH2 0xBB7 DUP3 PUSH2 0x1400 JUMP JUMPDEST POP POP POP POP PUSH2 0xFFFF AND SWAP1 POP DUP1 PUSH1 0x0 EQ PUSH2 0x4BE JUMPI PUSH1 0x0 DUP1 REVERT JUMPDEST PUSH2 0xBD6 PUSH2 0x419E JUMP JUMPDEST PUSH1 0x0 PUSH2 0xBE0 PUSH2 0x13F3 JUMP JUMPDEST PUSH1 0x1 PUSH1 0x1 PUSH1 0xA0 SHL SUB DUP5 AND PUSH1 0x0 SWAP1 DUP2 MSTORE PUSH1 0x20 SWAP2 DUP3 MSTORE PUSH1 0x40 SWAP1 DUP2 SWAP1 KECCAK256 DUP2 MLOAD PUSH1 0xC0 DUP2 ADD DUP4 MSTORE SWAP1 SLOAD PUSH5 0xFFFFFFFFFF DUP2 AND DUP3 MSTORE PUSH1 0x1 PUSH1 0x1 PUSH1 0xF8 SHL SUB NOT PUSH1 0x1 PUSH1 0x28 SHL DUP3 DIV PUSH1 0xF8 SHL AND SWAP4 DUP3 ADD SWAP4 SWAP1 SWAP4 MSTORE PUSH1 0xFF PUSH1 0x1 PUSH1 0x30 SHL DUP5 DIV DUP2 AND SWAP3 DUP3 ADD SWAP3 SWAP1 SWAP3 MSTORE PUSH2 0xFFFF PUSH1 0x1 PUSH1 0x38 SHL DUP5 DIV AND PUSH1 0x60 DUP3 ADD MSTORE PUSH1 0x1 PUSH1 0x1 PUSH1 0x70 SHL SUB NOT PUSH1 0x1 PUSH1 0x48 SHL DUP5 DIV PUSH1 0x70 SHL AND PUSH1 0x80 DUP3 ADD MSTORE PUSH1 0x1 PUSH1 0xD8 SHL SWAP1 SWAP3 DIV AND ISZERO ISZERO PUSH1 0xA0 DUP3 ADD MSTORE SWAP2 POP POP SWAP2 SWAP1 POP JUMP JUMPDEST PUSH1 0x0 PUSH1 0x1 PUSH1 0x1 PUSH1 0xFF SHL SUB DUP3 GT ISZERO PUSH2 0xB4F JUMPI PUSH1 0x0 DUP1 REVERT JUMPDEST PUSH1 0x0 DUP3 PUSH2 0xCA1 JUMPI POP PUSH1 0x0 PUSH2 0xA1B JUMP JUMPDEST PUSH1 0x0 DUP4 SGT PUSH2 0xCAE JUMPI PUSH1 0x0 DUP1 REVERT JUMPDEST PUSH2 0xCC4 DUP5 DUP7 PUSH1 0x0 ADD MLOAD DUP6 DUP9 PUSH2 0x120 ADD MLOAD DUP7 PUSH2 0x1469 JUMP JUMPDEST PUSH1 0x60 DUP8 ADD MLOAD SWAP1 SWAP3 POP PUSH2 0xCD7 SWAP2 POP DUP3 PUSH2 0x152B JUMP JUMPDEST PUSH1 0x60 DUP7 ADD MSTORE SWAP5 SWAP4 POP POP POP POP JUMP JUMPDEST PUSH1 0x80 DUP4 ADD MLOAD ISZERO PUSH2 0xCF3 JUMPI PUSH1 0x0 DUP1 REVERT JUMPDEST PUSH2 0x9EE DUP4 DUP4 DUP4 PUSH1 0x0 PUSH1 0x1 PUSH2 0x123D JUMP JUMPDEST PUSH1 0x0 DUP1 PUSH2 0xD0F DUP5 DUP5 PUSH2 0x1541 JUMP JUMPDEST SWAP2 POP SWAP2 POP DUP2 PUSH1 0x0 EQ ISZERO PUSH2 0xD23 JUMPI POP POP PUSH2 0x4BE JUMP JUMPDEST DUP2 DUP2 GT ISZERO PUSH2 0x9EE JUMPI PUSH1 0x40 MLOAD PUSH3 0x461BCD PUSH1 0xE5 SHL DUP2 MSTORE PUSH1 0x4 ADD PUSH2 0x23D SWAP1 PUSH2 0x4B3B JUMP JUMPDEST PUSH1 0x0 DUP1 PUSH2 0xD4E PUSH2 0x15AD JUMP JUMPDEST PUSH1 0x0 SWAP4 DUP5 MSTORE PUSH1 0x20 MSTORE POP POP PUSH1 0x40 SWAP1 KECCAK256 SLOAD PUSH1 0x1 PUSH1 0x1 PUSH1 0xA0 SHL SUB AND SWAP1 JUMP JUMPDEST PUSH1 0x0 PUSH2 0xD73 PUSH2 0x15BA JUMP JUMPDEST PUSH2 0xFFFF DUP6 AND PUSH1 0x0 SWAP1 DUP2 MSTORE PUSH1 0x20 SWAP2 SWAP1 SWAP2 MSTORE PUSH1 0x40 DUP2 KECCAK256 SLOAD PUSH1 0x1 PUSH1 0x1 PUSH1 0xA0 SHL SUB AND SWAP2 POP PUSH2 0xD9B PUSH2 0x15AD JUMP JUMPDEST PUSH2 0xFFFF DUP7 AND PUSH1 0x0 SWAP1 DUP2 MSTORE PUSH1 0x20 SWAP2 SWAP1 SWAP2 MSTORE PUSH1 0x40 DUP2 KECCAK256 SLOAD PUSH1 0x1 PUSH1 0x1 PUSH1 0xA0 SHL SUB AND SWAP2 POP DUP5 SGT DUP1 ISZERO PUSH2 0xDC9 JUMPI POP PUSH1 0x0 DUP4 SGT JUMPDEST ISZERO PUSH2 0xF05 JUMPI PUSH1 0x40 MLOAD PUSH4 0x23DE6651 PUSH1 0xE0 SHL DUP2 MSTORE PUSH1 0x1 PUSH1 0x1 PUSH1 0xA0 SHL SUB DUP4 AND SWAP1 PUSH4 0x23DE6651 SWAP1 PUSH2 0xDFE SWAP1 DUP5 SWAP1 DUP11 SWAP1 DUP10 SWAP1 PUSH1 0x4 ADD PUSH2 0x4A33 JUMP JUMPDEST PUSH1 0x0 PUSH1 0x40 MLOAD DUP1 DUP4 SUB DUP2 PUSH1 0x0 DUP8 DUP1 EXTCODESIZE ISZERO DUP1 ISZERO PUSH2 0xE18 JUMPI PUSH1 0x0 DUP1 REVERT JUMPDEST POP GAS CALL ISZERO DUP1 ISZERO PUSH2 0xE2C JUMPI RETURNDATASIZE PUSH1 0x0 DUP1 RETURNDATACOPY RETURNDATASIZE PUSH1 0x0 REVERT JUMPDEST POP POP POP POP PUSH2 0xE39 DUP6 PUSH2 0x15C7 JUMP JUMPDEST ISZERO PUSH2 0xE9C JUMPI PUSH1 0x0 PUSH1 0x1 PUSH1 0x1 PUSH1 0xA0 SHL SUB DUP8 AND CALLER PUSH32 0xC3D58168C5AE7397731D063D5BBF3D657854427343F4C083240F7AACAA2D0F62 PUSH2 0xE75 DUP10 PUSH2 0x15E4 JUMP JUMPDEST PUSH2 0xE81 PUSH2 0x398 DUP10 PUSH2 0x15FA JUMP JUMPDEST PUSH1 0x40 MLOAD PUSH2 0xE8F SWAP3 SWAP2 SWAP1 PUSH2 0x4D69 JUMP JUMPDEST PUSH1 0x40 MLOAD DUP1 SWAP2 SUB SWAP1 LOG4 PUSH2 0xF05 JUMP JUMPDEST DUP1 PUSH1 0x1 PUSH1 0x1 PUSH1 0xA0 SHL SUB AND PUSH4 0xAD1C095D DUP8 PUSH2 0xEB5 DUP7 PUSH2 0x9F4 JUMP JUMPDEST PUSH1 0x40 MLOAD DUP4 PUSH4 0xFFFFFFFF AND PUSH1 0xE0 SHL DUP2 MSTORE PUSH1 0x4 ADD PUSH2 0xED2 SWAP3 SWAP2 SWAP1 PUSH2 0x4A57 JUMP JUMPDEST PUSH1 0x0 PUSH1 0x40 MLOAD DUP1 DUP4 SUB DUP2 PUSH1 0x0 DUP8 DUP1 EXTCODESIZE ISZERO DUP1 ISZERO PUSH2 0xEEC JUMPI PUSH1 0x0 DUP1 REVERT JUMPDEST POP GAS CALL ISZERO DUP1 ISZERO PUSH2 0xF00 JUMPI RETURNDATASIZE PUSH1 0x0 DUP1 RETURNDATACOPY RETURNDATASIZE PUSH1 0x0 REVERT JUMPDEST POP POP POP POP JUMPDEST POP POP POP POP POP POP JUMP JUMPDEST PUSH2 0xF16 DUP4 PUSH2 0x161B JUMP JUMPDEST ISZERO PUSH2 0xF33 JUMPI PUSH1 0x40 MLOAD PUSH3 0x461BCD PUSH1 0xE5 SHL DUP2 MSTORE PUSH1 0x4 ADD PUSH2 0x23D SWAP1 PUSH2 0x4C8A JUMP JUMPDEST DUP2 PUSH2 0xFFFF AND PUSH1 0x0 LT DUP1 ISZERO PUSH2 0xF4D JUMPI POP PUSH2 0x3FFF PUSH2 0xFFFF DUP4 AND GT ISZERO JUMPDEST PUSH2 0xF69 JUMPI PUSH1 0x40 MLOAD PUSH3 0x461BCD PUSH1 0xE5 SHL DUP2 MSTORE PUSH1 0x4 ADD PUSH2 0x23D SWAP1 PUSH2 0x4D06 JUMP JUMPDEST PUSH1 0x40 DUP4 ADD MLOAD PUSH1 0xFF AND ISZERO PUSH2 0xF8E JUMPI PUSH1 0x40 MLOAD PUSH3 0x461BCD PUSH1 0xE5 SHL DUP2 MSTORE PUSH1 0x4 ADD PUSH2 0x23D SWAP1 PUSH2 0x4BA9 JUMP JUMPDEST PUSH1 0x20 DUP4 ADD MLOAD PUSH1 0x1 PUSH1 0x1 PUSH1 0xF8 SHL SUB NOT AND ISZERO PUSH2 0xFBA JUMPI PUSH1 0x40 MLOAD PUSH3 0x461BCD PUSH1 0xE5 SHL DUP2 MSTORE PUSH1 0x4 ADD PUSH2 0x23D SWAP1 PUSH2 0x4CB8 JUMP JUMPDEST PUSH2 0xFCF DUP4 PUSH2 0xFFFF DUP5 AND PUSH1 0x0 PUSH1 0x1 PUSH1 0xFE SHL PUSH2 0x1628 JUMP JUMPDEST PUSH2 0xFFFF DUP3 AND PUSH1 0x60 DUP5 ADD MSTORE PUSH1 0x0 PUSH2 0xFE4 DUP3 PUSH2 0x182E JUMP JUMPDEST SWAP1 POP PUSH5 0xFFFFFFFFFF DUP2 LT PUSH2 0xFF7 JUMPI PUSH1 0x0 DUP1 REVERT JUMPDEST PUSH5 0xFFFFFFFFFF AND SWAP1 SWAP3 MSTORE POP POP JUMP JUMPDEST PUSH1 0x0 DUP2 PUSH2 0x1014 JUMPI POP PUSH1 0x0 PUSH2 0x10DA JUMP JUMPDEST PUSH1 0x0 DUP3 SGT PUSH2 0x1021 JUMPI PUSH1 0x0 DUP1 REVERT JUMPDEST PUSH1 0x0 PUSH2 0x1034 DUP6 PUSH1 0x0 ADD MLOAD PUSH2 0xFFFF AND PUSH2 0x184C JUMP JUMPDEST DUP1 MLOAD SWAP1 SWAP2 POP PUSH1 0x1 PUSH1 0x1 PUSH1 0xA0 SHL SUB AND PUSH2 0x104B JUMPI PUSH1 0x0 DUP1 REVERT JUMPDEST PUSH1 0x1 DUP2 PUSH1 0x60 ADD MLOAD PUSH1 0x5 DUP2 GT ISZERO PUSH2 0x105D JUMPI INVALID JUMPDEST EQ DUP1 PUSH2 0x1078 JUMPI POP PUSH1 0x2 DUP2 PUSH1 0x60 ADD MLOAD PUSH1 0x5 DUP2 GT ISZERO PUSH2 0x1076 JUMPI INVALID JUMPDEST EQ JUMPDEST ISZERO PUSH2 0x10B0 JUMPI DUP5 MLOAD PUSH2 0x120 DUP7 ADD MLOAD PUSH2 0x1094 SWAP2 DUP4 SWAP2 DUP7 SWAP1 DUP9 SWAP1 PUSH2 0x185F JUMP JUMPDEST PUSH1 0x60 DUP7 ADD MLOAD SWAP1 SWAP3 POP PUSH2 0x10A6 SWAP1 DUP4 PUSH2 0x152B JUMP JUMPDEST PUSH1 0x60 DUP7 ADD MSTORE PUSH2 0x10D8 JUMP JUMPDEST PUSH1 0x4 DUP2 PUSH1 0x60 ADD MLOAD PUSH1 0x5 DUP2 GT ISZERO PUSH2 0x10C2 JUMPI INVALID JUMPDEST EQ ISZERO PUSH2 0x9C JUMPI PUSH2 0x10D5 DUP6 DUP6 DUP6 PUSH1 0x0 PUSH2 0xC92 JUMP JUMPDEST SWAP2 POP JUMPDEST POP JUMPDEST SWAP4 SWAP3 POP POP POP JUMP JUMPDEST PUSH1 0x0 TIMESTAMP PUSH2 0x10ED DUP4 PUSH2 0x161B JUMP JUMPDEST ISZERO PUSH2 0x110E JUMPI PUSH2 0x10FB DUP2 PUSH2 0x182E JUMP JUMPDEST DUP4 MLOAD PUSH5 0xFFFFFFFFFF AND LT SWAP2 POP PUSH2 0x909 SWAP1 POP JUMP JUMPDEST DUP3 MLOAD PUSH5 0xFFFFFFFFFF AND ISZERO DUP1 ISZERO SWAP1 PUSH2 0x112D JUMPI POP DUP3 MLOAD PUSH5 0xFFFFFFFFFF AND DUP2 LT ISZERO JUMPDEST SWAP2 POP POP PUSH2 0x909 JUMP JUMPDEST PUSH2 0x113D PUSH2 0x41D3 JUMP JUMPDEST PUSH2 0xA02 DUP3 TIMESTAMP PUSH2 0x18F0 JUMP JUMPDEST DUP2 PUSH2 0xFFFF AND PUSH1 0x0 LT DUP1 ISZERO PUSH2 0x1161 JUMPI POP PUSH2 0x3FFF PUSH2 0xFFFF DUP4 AND GT ISZERO JUMPDEST PUSH2 0x116A JUMPI PUSH1 0x0 DUP1 REVERT JUMPDEST PUSH2 0xFFFF DUP3 AND DUP1 DUP6 MSTORE PUSH2 0x117D SWAP1 DUP3 SWAP1 PUSH2 0x19B1 JUMP JUMPDEST ISZERO PUSH2 0x11AC JUMPI PUSH2 0x1192 DUP4 DUP4 DUP7 PUSH2 0x120 ADD MLOAD PUSH2 0x1A3B JUMP JUMPDEST PUSH2 0x100 DUP9 ADD MSTORE PUSH1 0xE0 DUP8 ADD MSTORE PUSH1 0x40 DUP7 ADD MSTORE PUSH1 0x20 DUP6 ADD MSTORE PUSH2 0x11CA JUMP JUMPDEST PUSH1 0x0 PUSH1 0x20 DUP6 ADD DUP2 SWAP1 MSTORE PUSH1 0x40 DUP6 ADD DUP2 SWAP1 MSTORE PUSH1 0xE0 DUP6 ADD DUP2 SWAP1 MSTORE PUSH2 0x100 DUP6 ADD MSTORE JUMPDEST POP POP PUSH1 0x0 PUSH1 0x60 DUP4 ADD DUP2 SWAP1 MSTORE PUSH1 0x80 DUP4 ADD DUP2 SWAP1 MSTORE PUSH1 0xA0 DUP4 ADD DUP2 SWAP1 MSTORE PUSH1 0xC0 SWAP1 SWAP3 ADD SWAP2 SWAP1 SWAP2 MSTORE POP JUMP JUMPDEST DUP2 DUP2 MUL PUSH1 0x0 NOT DUP4 EQ ISZERO PUSH2 0x121F JUMPI DUP2 ISZERO DUP1 PUSH2 0x1211 JUMPI POP DUP3 DUP3 DUP3 DUP2 PUSH2 0x120E JUMPI INVALID JUMPDEST SDIV EQ JUMPDEST PUSH2 0x121A JUMPI PUSH1 0x0 DUP1 REVERT JUMPDEST PUSH2 0xA02 JUMP JUMPDEST DUP3 ISZERO DUP1 PUSH2 0x1234 JUMPI POP DUP2 DUP4 DUP3 DUP2 PUSH2 0x1231 JUMPI INVALID JUMPDEST SDIV EQ JUMPDEST PUSH2 0xA02 JUMPI PUSH1 0x0 DUP1 REVERT JUMPDEST PUSH1 0x0 DUP1 PUSH2 0x125A DUP7 DUP9 PUSH1 0x0 ADD MLOAD DUP10 PUSH1 0x80 ADD MLOAD DUP11 PUSH2 0x120 ADD MLOAD DUP9 PUSH2 0x1AF5 JUMP JUMPDEST SWAP2 POP PUSH1 0x0 PUSH2 0x1279 DUP9 PUSH1 0x80 ADD MLOAD DUP10 PUSH1 0x60 ADD MLOAD PUSH2 0x152B SWAP1 SWAP2 SWAP1 PUSH4 0xFFFFFFFF AND JUMP JUMPDEST SWAP1 POP DUP4 DUP1 ISZERO PUSH2 0x1288 JUMPI POP PUSH1 0x0 DUP2 SLT JUMPDEST DUP1 ISZERO PUSH2 0x12A3 JUMPI POP PUSH1 0x20 DUP9 ADD MLOAD PUSH1 0x0 SWAP1 PUSH2 0x12A1 SWAP1 DUP4 PUSH2 0x152B JUMP JUMPDEST SLT JUMPDEST ISZERO PUSH2 0x12C9 JUMPI DUP6 PUSH1 0xA0 ADD MLOAD PUSH2 0x12C9 JUMPI PUSH1 0x40 MLOAD PUSH3 0x461BCD PUSH1 0xE5 SHL DUP2 MSTORE PUSH1 0x4 ADD PUSH2 0x23D SWAP1 PUSH2 0x4C02 JUMP JUMPDEST DUP1 ISZERO PUSH2 0x12E8 JUMPI PUSH1 0x20 DUP9 ADD MLOAD PUSH2 0x12DE SWAP1 DUP3 PUSH2 0x152B JUMP JUMPDEST PUSH1 0x20 DUP10 ADD MSTORE PUSH1 0x1 SWAP2 POP JUMPDEST PUSH1 0xA0 DUP9 ADD MLOAD ISZERO ISZERO DUP1 PUSH2 0x12FD JUMPI POP PUSH1 0xC0 DUP9 ADD MLOAD ISZERO ISZERO JUMPDEST ISZERO PUSH2 0x1366 JUMPI PUSH1 0x0 PUSH2 0x132D DUP10 PUSH1 0xC0 ADD MLOAD PUSH2 0x1327 DUP12 PUSH1 0xA0 ADD MLOAD DUP13 PUSH1 0x40 ADD MLOAD PUSH2 0x152B SWAP1 SWAP2 SWAP1 PUSH4 0xFFFFFFFF AND JUMP JUMPDEST SWAP1 PUSH2 0x152B JUMP JUMPDEST SWAP1 POP PUSH1 0x0 DUP2 SLT ISZERO PUSH2 0x1350 JUMPI PUSH1 0x40 MLOAD PUSH3 0x461BCD PUSH1 0xE5 SHL DUP2 MSTORE PUSH1 0x4 ADD PUSH2 0x23D SWAP1 PUSH2 0x4CE2 JUMP JUMPDEST PUSH2 0x135B DUP10 DUP10 DUP4 PUSH2 0x1B9E JUMP JUMPDEST POP PUSH1 0x40 DUP10 ADD MSTORE PUSH1 0x1 SWAP2 POP JUMPDEST DUP2 ISZERO PUSH2 0x1395 JUMPI PUSH2 0x1395 DUP8 DUP10 PUSH1 0x0 ADD MLOAD DUP11 PUSH1 0x20 ADD MLOAD DUP12 PUSH1 0x40 ADD MLOAD DUP13 PUSH1 0xE0 ADD MLOAD DUP14 PUSH2 0x100 ADD MLOAD DUP15 PUSH2 0x120 ADD MLOAD PUSH2 0x1C8B JUMP JUMPDEST DUP8 MLOAD PUSH1 0x20 DUP10 ADD MLOAD PUSH2 0x13C2 SWAP2 PUSH2 0xFFFF AND SWAP1 ISZERO ISZERO DUP1 PUSH2 0x13B5 JUMPI POP PUSH1 0x40 DUP11 ADD MLOAD ISZERO ISZERO JUMPDEST DUP9 SWAP2 SWAP1 PUSH1 0x1 PUSH1 0xFE SHL PUSH2 0x1628 JUMP JUMPDEST PUSH1 0x0 DUP9 PUSH1 0x20 ADD MLOAD SLT ISZERO PUSH2 0x13E8 JUMPI PUSH1 0x20 DUP7 ADD DUP1 MLOAD PUSH1 0x1 PUSH1 0xF9 SHL OR PUSH1 0x1 PUSH1 0x1 PUSH1 0xF8 SHL SUB NOT AND SWAP1 MSTORE JUMPDEST POP POP SWAP6 SWAP5 POP POP POP POP POP JUMP JUMPDEST PUSH1 0x0 DUP1 PUSH2 0xA02 PUSH1 0x1 PUSH2 0x1DC6 JUMP JUMPDEST PUSH1 0x0 DUP1 PUSH1 0x0 DUP1 PUSH1 0x0 DUP1 PUSH2 0x1411 PUSH2 0x1DDF JUMP JUMPDEST PUSH1 0x1 PUSH1 0x1 PUSH1 0xA0 SHL SUB SWAP1 SWAP8 AND PUSH1 0x0 SWAP1 DUP2 MSTORE PUSH1 0x20 SWAP8 SWAP1 SWAP8 MSTORE POP POP PUSH1 0x40 SWAP1 SWAP5 KECCAK256 SLOAD PUSH2 0xFFFF DUP2 AND SWAP6 PUSH4 0xFFFFFFFF PUSH3 0x10000 DUP4 DIV DUP2 AND SWAP7 POP PUSH1 0x1 PUSH1 0x30 SHL DUP4 DIV AND SWAP5 POP PUSH1 0xFF PUSH1 0x1 PUSH1 0x50 SHL DUP4 DIV AND SWAP4 POP PUSH1 0x1 PUSH1 0x58 SHL SWAP1 SWAP2 DIV PUSH1 0xD8 SHL SWAP2 POP JUMP JUMPDEST PUSH1 0x0 DUP1 PUSH1 0x0 PUSH2 0x1477 DUP7 PUSH2 0xB40 JUMP JUMPDEST SWAP1 POP DUP1 PUSH2 0x148B JUMPI PUSH1 0x0 DUP1 SWAP3 POP SWAP3 POP POP PUSH2 0x1521 JUMP JUMPDEST PUSH1 0x0 PUSH2 0x149A DUP9 PUSH2 0xFFFF AND PUSH2 0x1DEC JUMP JUMPDEST SWAP1 POP PUSH1 0x3 DUP2 PUSH1 0x60 ADD MLOAD PUSH1 0x5 DUP2 GT ISZERO PUSH2 0x14AE JUMPI INVALID JUMPDEST EQ ISZERO PUSH2 0x14F5 JUMPI CALLVALUE DUP3 LT ISZERO PUSH2 0x14CE JUMPI PUSH2 0x14C9 DUP10 DUP4 CALLVALUE SUB DUP8 PUSH2 0x1DFF JUMP JUMPDEST PUSH2 0x14ED JUMP JUMPDEST CALLVALUE DUP3 EQ PUSH2 0x14ED JUMPI PUSH1 0x40 MLOAD PUSH3 0x461BCD PUSH1 0xE5 SHL DUP2 MSTORE PUSH1 0x4 ADD PUSH2 0x23D SWAP1 PUSH2 0x4B64 JUMP JUMPDEST DUP7 SWAP4 POP PUSH2 0x150F JUMP JUMPDEST PUSH2 0x150C PUSH2 0x1507 DUP3 PUSH1 0x0 ADD MLOAD DUP12 DUP6 PUSH2 0x1EC7 JUMP JUMPDEST PUSH2 0xC7C JUMP JUMPDEST SWAP4 POP JUMPDEST PUSH2 0x151C DUP10 DUP10 DUP7 DUP5 DUP11 PUSH2 0x204F JUMP JUMPDEST SWAP3 POP POP POP JUMPDEST SWAP6 POP SWAP6 SWAP4 POP POP POP POP JUMP JUMPDEST DUP2 DUP2 ADD DUP3 DUP2 SLT ISZERO PUSH1 0x0 DUP4 SLT ISZERO EQ PUSH2 0xA02 JUMPI PUSH1 0x0 DUP1 REVERT JUMPDEST PUSH1 0x0 DUP1 PUSH1 0x0 PUSH2 0x154E PUSH2 0x2096 JUMP JUMPDEST PUSH2 0xFFFF DUP6 AND PUSH1 0x0 SWAP1 DUP2 MSTORE PUSH1 0x20 SWAP2 SWAP1 SWAP2 MSTORE PUSH1 0x40 SWAP1 KECCAK256 PUSH1 0x1 DUP2 ADD SLOAD SWAP1 SWAP2 POP PUSH2 0x1580 SWAP1 PUSH1 0x1 PUSH1 0x58 SHL SWAP1 DIV PUSH4 0xFFFFFFFF AND PUSH2 0x20A3 JUMP JUMPDEST DUP2 SLOAD SWAP1 SWAP4 POP PUSH1 0x1 PUSH1 0x28 SHL SWAP1 DIV PUSH1 0x1 PUSH1 0x1 PUSH1 0x58 SHL SUB AND PUSH2 0x15A2 PUSH2 0x398 DUP8 DUP4 PUSH2 0x20B1 JUMP JUMPDEST SWAP3 POP POP POP SWAP3 POP SWAP3 SWAP1 POP JUMP JUMPDEST PUSH1 0x0 DUP1 PUSH2 0xA02 PUSH1 0x3 PUSH2 0x1DC6 JUMP JUMPDEST PUSH1 0x0 DUP1 PUSH2 0xA02 PUSH1 0x21 PUSH2 0x1DC6 JUMP JUMPDEST PUSH1 0x0 CHAINID PUSH1 0x1 DUP2 EQ DUP1 ISZERO PUSH2 0x905 JUMPI POP POP POP PUSH1 0x4 PUSH2 0xFFFF SWAP1 SWAP2 AND GT ISZERO SWAP1 JUMP JUMPDEST PUSH1 0xC PUSH1 0x30 SWAP2 SWAP1 SWAP2 SHL PUSH8 0xFFFF000000000000 AND OR SWAP1 JUMP JUMPDEST PUSH1 0x0 DUP1 DUP3 SLT ISZERO PUSH2 0x1614 JUMPI PUSH2 0x160D DUP3 PUSH2 0x9F4 JUMP JUMPDEST SWAP1 POP PUSH2 0x909 JUMP JUMPDEST POP DUP1 PUSH2 0x909 JUMP JUMPDEST PUSH1 0x60 ADD MLOAD PUSH2 0xFFFF AND ISZERO ISZERO SWAP1 JUMP JUMPDEST DUP3 PUSH1 0x0 LT DUP1 ISZERO PUSH2 0x163A JUMPI POP PUSH2 0x3FFF DUP4 GT ISZERO JUMPDEST PUSH2 0x1643 JUMPI PUSH1 0x0 DUP1 REVERT JUMPDEST DUP2 DUP1 ISZERO PUSH2 0x1657 JUMPI POP DUP3 DUP5 PUSH1 0x60 ADD MLOAD PUSH2 0xFFFF AND EQ JUMPDEST ISZERO PUSH2 0x1661 JUMPI PUSH2 0x9EE JUMP JUMPDEST PUSH1 0x80 DUP5 ADD MLOAD PUSH1 0x0 SWAP1 DUP2 JUMPDEST PUSH1 0x1 PUSH1 0x1 PUSH1 0x70 SHL SUB NOT DUP3 AND ISZERO PUSH2 0x17E3 JUMPI PUSH1 0xF0 DUP3 SWAP1 SHR PUSH2 0x3FFF AND DUP7 DUP2 EQ DUP1 ISZERO PUSH2 0x1690 JUMPI POP DUP6 JUMPDEST ISZERO PUSH2 0x16C8 JUMPI POP PUSH1 0x80 DUP8 ADD DUP1 MLOAD PUSH1 0x1 PUSH1 0x1 PUSH1 0xF0 SHL SUB NOT DUP7 AND PUSH1 0x10 SWAP1 SWAP4 MUL SWAP3 SWAP1 SWAP3 SHR SWAP2 SWAP1 SWAP2 OR PUSH1 0x1 PUSH1 0x1 PUSH1 0x70 SHL SUB NOT AND SWAP1 MSTORE POP PUSH2 0x9EE SWAP1 POP JUMP JUMPDEST DUP7 DUP2 EQ DUP1 ISZERO PUSH2 0x16D5 JUMPI POP DUP6 ISZERO JUMPDEST ISZERO PUSH2 0x1731 JUMPI PUSH1 0x1 PUSH1 0x1 PUSH1 0xF0 SHL SUB NOT DUP6 AND NOT SWAP3 SWAP1 SWAP3 AND SWAP2 PUSH1 0x3 PUSH1 0xFE SHL DUP4 AND PUSH2 0x170F JUMPI PUSH1 0x10 DUP4 PUSH14 0xFFFFFFFFFFFFFFFFFFFFFFFFFFFF NOT AND SWAP1 SHL SWAP3 POP JUMPDEST POP PUSH1 0x1 PUSH1 0x1 PUSH1 0x70 SHL SUB NOT SWAP2 DUP3 AND PUSH1 0x10 SWAP1 SWAP2 MUL SHR SWAP2 SWAP1 SWAP2 OR AND PUSH1 0x80 DUP6 ADD MSTORE PUSH2 0x9EE JUMP JUMPDEST DUP7 DUP2 GT DUP1 ISZERO PUSH2 0x173D JUMPI POP DUP6 JUMPDEST ISZERO PUSH2 0x1797 JUMPI PUSH1 0x80 DUP9 DUP2 ADD MLOAD PUSH1 0x1 PUSH1 0x1 PUSH1 0xF0 SHL SUB NOT PUSH1 0xF0 DUP11 SWAP1 SHL DUP9 OR DUP2 AND PUSH1 0x10 DUP7 MUL SHR SWAP7 SWAP1 SWAP7 OR SWAP6 SWAP2 SHL AND ISZERO PUSH2 0x1771 JUMPI PUSH1 0x0 DUP1 REVERT JUMPDEST POP PUSH1 0x1 PUSH1 0x1 PUSH1 0x70 SHL SUB NOT SWAP2 DUP3 AND PUSH1 0x1 SWAP2 SWAP1 SWAP2 ADD PUSH1 0x10 MUL SHR SWAP2 SWAP1 SWAP2 OR AND PUSH1 0x80 DUP6 ADD MSTORE PUSH2 0x9EE JUMP JUMPDEST DUP7 DUP2 GT DUP1 ISZERO PUSH2 0x17A4 JUMPI POP DUP6 ISZERO JUMPDEST ISZERO PUSH2 0x17B2 JUMPI POP POP POP POP PUSH2 0x9EE JUMP JUMPDEST POP PUSH1 0x1 PUSH1 0x1 PUSH1 0xF0 SHL SUB NOT DUP3 AND PUSH1 0x10 DUP3 DUP2 MUL SWAP2 SWAP1 SWAP2 SHR SWAP4 SWAP1 SWAP4 OR SWAP3 SWAP2 SWAP1 SWAP2 SHL PUSH1 0x1 PUSH1 0x1 PUSH1 0x80 SHL SUB NOT AND SWAP1 PUSH1 0x1 ADD PUSH2 0x166B JUMP JUMPDEST DUP5 PUSH2 0x17F0 JUMPI POP POP POP PUSH2 0x9EE JUMP JUMPDEST PUSH1 0x9 DUP2 LT PUSH2 0x17FD JUMPI PUSH1 0x0 DUP1 REVERT JUMPDEST PUSH1 0x1 PUSH1 0x1 PUSH1 0xF0 SHL SUB NOT PUSH1 0xF0 DUP8 SWAP1 SHL DUP6 OR AND PUSH1 0x10 SWAP1 SWAP2 MUL SHR SWAP2 SWAP1 SWAP2 OR PUSH1 0x1 PUSH1 0x1 PUSH1 0x70 SHL SUB NOT AND PUSH1 0x80 DUP7 ADD MSTORE POP POP POP POP POP JUMP JUMPDEST PUSH1 0x0 PUSH3 0x15180 DUP3 LT ISZERO PUSH2 0x1840 JUMPI PUSH1 0x0 DUP1 REVERT JUMPDEST POP PUSH3 0x15180 DUP2 MOD SWAP1 SUB SWAP1 JUMP JUMPDEST PUSH2 0x1854 PUSH2 0x41F4 JUMP JUMPDEST PUSH2 0xA02 DUP3 PUSH1 0x0 PUSH2 0x20E3 JUMP JUMPDEST PUSH1 0x0 PUSH2 0x1870 DUP7 PUSH1 0x0 ADD MLOAD DUP5 DUP7 PUSH2 0x1EC7 JUMP JUMPDEST SWAP4 POP PUSH1 0x0 PUSH2 0x1881 DUP7 PUSH2 0xFFFF AND PUSH2 0x1DEC JUMP JUMPDEST SWAP1 POP PUSH1 0x0 PUSH1 0x2 DUP9 PUSH1 0x60 ADD MLOAD PUSH1 0x5 DUP2 GT ISZERO PUSH2 0x1897 JUMPI INVALID JUMPDEST EQ ISZERO PUSH2 0x18B1 JUMPI PUSH2 0x18AA PUSH2 0x1507 DUP10 DUP9 PUSH2 0x217D JUMP JUMPDEST SWAP1 POP PUSH2 0x18D7 JUMP JUMPDEST PUSH1 0x1 DUP9 PUSH1 0x60 ADD MLOAD PUSH1 0x5 DUP2 GT ISZERO PUSH2 0x18C3 JUMPI INVALID JUMPDEST EQ ISZERO PUSH2 0x9C JUMPI PUSH2 0x18AA PUSH2 0x1507 DUP10 DUP5 DUP10 PUSH2 0x222E JUMP JUMPDEST PUSH2 0x18E4 DUP6 DUP9 DUP4 DUP6 DUP9 PUSH2 0x204F JUMP JUMPDEST SWAP9 SWAP8 POP POP POP POP POP POP POP POP JUMP JUMPDEST PUSH2 0x18F8 PUSH2 0x41D3 JUMP JUMPDEST PUSH1 0x0 PUSH2 0x1903 DUP5 PUSH2 0x23EE JUMP JUMPDEST SWAP1 POP DUP3 DUP2 PUSH1 0x0 ADD MLOAD LT ISZERO PUSH2 0x1942 JUMPI PUSH1 0x0 DUP1 PUSH2 0x191D DUP7 PUSH2 0x24B6 JUMP JUMPDEST SWAP1 POP PUSH2 0x192B DUP7 DUP5 DUP4 DUP9 PUSH2 0x2533 JUMP JUMPDEST SWAP1 SWAP4 POP SWAP2 POP PUSH2 0x193B DUP7 DUP4 DUP6 PUSH2 0x2634 JUMP JUMPDEST POP POP PUSH2 0x194F JUMP JUMPDEST DUP1 MLOAD DUP4 EQ PUSH2 0x194F JUMPI PUSH1 0x0 DUP1 REVERT JUMPDEST PUSH1 0x40 MLOAD DUP1 PUSH1 0x60 ADD PUSH1 0x40 MSTORE DUP1 PUSH2 0x1978 PUSH2 0x1507 DUP5 PUSH1 0xA0 ADD MLOAD DUP6 PUSH1 0xC0 ADD MLOAD PUSH2 0x2868 SWAP1 SWAP2 SWAP1 PUSH4 0xFFFFFFFF AND JUMP JUMPDEST DUP2 MSTORE PUSH1 0x20 ADD PUSH2 0x199B PUSH2 0x1507 DUP5 PUSH1 0xA0 ADD MLOAD DUP6 PUSH1 0xE0 ADD MLOAD PUSH2 0x2868 SWAP1 SWAP2 SWAP1 PUSH4 0xFFFFFFFF AND JUMP JUMPDEST DUP2 MSTORE PUSH1 0x20 ADD DUP3 PUSH1 0x60 ADD MLOAD DUP2 MSTORE POP SWAP2 POP POP SWAP3 SWAP2 POP POP JUMP JUMPDEST PUSH1 0x0 DUP2 ISZERO DUP1 ISZERO SWAP1 PUSH2 0x19C4 JUMPI POP PUSH2 0x3FFF DUP3 GT ISZERO JUMPDEST PUSH2 0x19CD JUMPI PUSH1 0x0 DUP1 REVERT JUMPDEST PUSH1 0x80 DUP4 ADD MLOAD PUSH1 0x60 DUP5 ADD MLOAD PUSH2 0xFFFF AND DUP4 EQ ISZERO PUSH2 0x19EC JUMPI PUSH1 0x1 SWAP2 POP POP PUSH2 0xA02 JUMP JUMPDEST PUSH1 0x1 PUSH1 0x1 PUSH1 0x70 SHL SUB NOT DUP2 AND ISZERO PUSH2 0x1A31 JUMPI PUSH1 0xF0 DUP2 SWAP1 SHR PUSH2 0x3FFF AND DUP4 DUP2 EQ ISZERO PUSH2 0x1A1E JUMPI POP PUSH1 0x1 PUSH1 0xFE SHL SWAP1 DUP2 AND EQ SWAP1 POP PUSH2 0xA02 JUMP JUMPDEST POP PUSH1 0x10 SHL PUSH1 0x1 PUSH1 0x1 PUSH1 0x80 SHL SUB NOT AND PUSH2 0x19EC JUMP JUMPDEST POP PUSH1 0x0 SWAP4 SWAP3 POP POP POP JUMP JUMPDEST PUSH1 0x0 DUP1 PUSH1 0x0 DUP1 PUSH1 0x0 PUSH2 0x1A4B PUSH2 0x288F JUMP JUMPDEST PUSH1 0x1 PUSH1 0x1 PUSH1 0xA0 SHL SUB DUP10 AND PUSH1 0x0 SWAP1 DUP2 MSTORE PUSH1 0x20 DUP3 DUP2 MSTORE PUSH1 0x40 DUP1 DUP4 KECCAK256 PUSH2 0xFFFF DUP13 AND DUP5 MSTORE SWAP1 SWAP2 MSTORE SWAP1 KECCAK256 DUP1 SLOAD PUSH1 0x1 PUSH1 0x1 PUSH1 0x50 SHL SUB DUP2 AND SWAP7 POP PUSH1 0x1 PUSH1 0x50 SHL SWAP1 DIV PUSH4 0xFFFFFFFF AND SWAP5 POP SWAP1 SWAP2 POP DUP4 ISZERO PUSH2 0x1AB8 JUMPI DUP1 SLOAD PUSH2 0x1AB1 SWAP1 PUSH1 0x1 PUSH1 0x70 SHL SWAP1 DIV PUSH7 0xFFFFFFFFFFFFFF AND PUSH2 0x20A3 JUMP JUMPDEST SWAP3 POP PUSH2 0x1ACD JUMP JUMPDEST DUP1 SLOAD PUSH1 0x1 PUSH1 0x70 SHL SWAP1 DIV PUSH7 0xFFFFFFFFFFFFFF AND SWAP3 POP JUMPDEST DUP1 SLOAD PUSH2 0x1AE8 SWAP1 DUP9 SWAP1 PUSH1 0x1 PUSH1 0xA8 SHL SWAP1 DIV PUSH1 0xA SWAP1 DUP2 SIGNEXTEND SWAP1 SIGNEXTEND PUSH2 0x289C JUMP JUMPDEST SWAP6 POP POP POP SWAP4 POP SWAP4 POP SWAP4 POP SWAP4 JUMP JUMPDEST PUSH1 0x0 DUP4 PUSH2 0x1B04 JUMPI POP PUSH1 0x0 PUSH2 0x1B95 JUMP JUMPDEST PUSH1 0x0 DUP5 SLT PUSH2 0x1B11 JUMPI PUSH1 0x0 DUP1 REVERT JUMPDEST PUSH1 0x0 PUSH2 0x1B20 DUP7 PUSH2 0xFFFF AND PUSH2 0x1DEC JUMP JUMPDEST SWAP1 POP PUSH2 0x1B35 DUP2 PUSH2 0x1B30 DUP7 DUP9 PUSH2 0x20B1 JUMP JUMPDEST PUSH2 0x28CA JUMP JUMPDEST SWAP2 POP PUSH1 0x0 PUSH2 0x1B42 DUP4 PUSH2 0x9F4 JUMP JUMPDEST SWAP1 POP PUSH2 0x1B4F DUP8 DUP4 DUP4 PUSH2 0x2902 JUMP JUMPDEST PUSH1 0x3 DUP3 PUSH1 0x60 ADD MLOAD PUSH1 0x5 DUP2 GT ISZERO PUSH2 0x1B61 JUMPI INVALID JUMPDEST EQ ISZERO PUSH2 0x1B77 JUMPI PUSH2 0x1B72 DUP9 DUP3 DUP7 PUSH2 0x1DFF JUMP JUMPDEST PUSH2 0x1B84 JUMP JUMPDEST DUP2 MLOAD PUSH2 0x1B84 SWAP1 DUP10 DUP4 PUSH2 0x29F6 JUMP JUMPDEST PUSH2 0x1B91 DUP9 DUP9 DUP6 DUP6 DUP10 PUSH2 0x204F JUMP JUMPDEST POP POP POP JUMPDEST SWAP6 SWAP5 POP POP POP POP POP JUMP JUMPDEST DUP3 MLOAD PUSH1 0x0 SWAP1 TIMESTAMP SWAP1 DUP3 SWAP1 PUSH2 0x1BB4 SWAP1 PUSH2 0xFFFF AND PUSH2 0xD43 JUMP JUMPDEST SWAP1 POP PUSH1 0x0 PUSH2 0x1BC7 DUP3 DUP9 PUSH1 0xC0 ADD MLOAD DUP6 PUSH2 0x2A6D JUMP JUMPDEST SWAP1 POP PUSH2 0x1BD5 DUP8 DUP4 DUP4 DUP9 PUSH2 0x2B50 JUMP JUMPDEST SWAP4 POP PUSH1 0x0 PUSH2 0x1BE2 DUP4 PUSH2 0x2C7D JUMP JUMPDEST SWAP1 POP PUSH1 0x1 PUSH1 0x1 PUSH1 0xA0 SHL SUB DUP2 AND ISZERO PUSH2 0x1C70 JUMPI DUP1 PUSH1 0x1 PUSH1 0x1 PUSH1 0xA0 SHL SUB AND PUSH4 0x1D684DD2 DUP9 DUP11 PUSH1 0x0 ADD MLOAD PUSH2 0x1C15 DUP13 PUSH1 0x40 ADD MLOAD PUSH2 0xB40 JUMP JUMPDEST DUP11 DUP14 PUSH1 0xC0 ADD MLOAD DUP12 PUSH1 0x40 MLOAD DUP8 PUSH4 0xFFFFFFFF AND PUSH1 0xE0 SHL DUP2 MSTORE PUSH1 0x4 ADD PUSH2 0x1C3D SWAP7 SWAP6 SWAP5 SWAP4 SWAP3 SWAP2 SWAP1 PUSH2 0x4AC3 JUMP JUMPDEST PUSH1 0x0 PUSH1 0x40 MLOAD DUP1 DUP4 SUB DUP2 PUSH1 0x0 DUP8 DUP1 EXTCODESIZE ISZERO DUP1 ISZERO PUSH2 0x1C57 JUMPI PUSH1 0x0 DUP1 REVERT JUMPDEST POP GAS CALL ISZERO DUP1 ISZERO PUSH2 0x1C6B JUMPI RETURNDATASIZE PUSH1 0x0 DUP1 RETURNDATACOPY RETURNDATASIZE PUSH1 0x0 REVERT JUMPDEST POP POP POP POP JUMPDEST DUP5 ISZERO PUSH2 0x1C80 JUMPI PUSH2 0x1C80 DUP8 DUP7 PUSH2 0x2CEF JUMP JUMPDEST POP POP POP POP SWAP4 SWAP3 POP POP POP JUMP JUMPDEST PUSH1 0x0 PUSH2 0x1C95 PUSH2 0x288F JUMP JUMPDEST PUSH1 0x1 PUSH1 0x1 PUSH1 0xA0 SHL SUB DUP10 AND PUSH1 0x0 SWAP1 DUP2 MSTORE PUSH1 0x20 DUP3 DUP2 MSTORE PUSH1 0x40 DUP1 DUP4 KECCAK256 PUSH2 0xFFFF DUP13 AND DUP5 MSTORE SWAP1 SWAP2 MSTORE SWAP1 KECCAK256 SWAP1 SWAP2 POP DUP5 PUSH2 0x1CFD JUMPI PUSH7 0xFFFFFFFFFFFFFF DUP5 GT ISZERO PUSH2 0x1CD6 JUMPI PUSH1 0x0 DUP1 REVERT JUMPDEST DUP1 SLOAD PUSH7 0xFFFFFFFFFFFFFF PUSH1 0x70 SHL NOT AND PUSH1 0x1 PUSH1 0x70 SHL PUSH7 0xFFFFFFFFFFFFFF DUP7 AND MUL OR DUP2 SSTORE PUSH2 0x1D17 JUMP JUMPDEST DUP1 SLOAD PUSH1 0x1 PUSH1 0x50 SHL SWAP1 DIV PUSH4 0xFFFFFFFF AND DUP6 EQ PUSH2 0x1D17 JUMPI PUSH1 0x0 DUP1 REVERT JUMPDEST PUSH2 0x1D20 DUP6 PUSH2 0x2D0E JUMP JUMPDEST DUP2 SLOAD PUSH4 0xFFFFFFFF SWAP2 SWAP1 SWAP2 AND PUSH1 0x1 PUSH1 0x50 SHL MUL PUSH4 0xFFFFFFFF PUSH1 0x50 SHL NOT SWAP1 SWAP2 AND OR DUP2 SSTORE PUSH2 0x1D51 PUSH2 0x1D4C DUP8 PUSH2 0xB40 JUMP JUMPDEST PUSH2 0x2D21 JUMP JUMPDEST DUP2 SLOAD PUSH10 0xFFFFFFFFFFFFFFFFFFFF NOT AND PUSH1 0x1 PUSH1 0x1 PUSH1 0x50 SHL SUB SWAP2 SWAP1 SWAP2 AND OR DUP1 DUP3 SSTORE PUSH2 0x1D97 SWAP1 PUSH2 0x1D92 SWAP1 DUP6 SWAP1 DUP13 SWAP1 DUP13 SWAP1 PUSH1 0x1 PUSH1 0xA8 SHL SWAP1 DIV PUSH1 0xA SWAP1 DUP2 SIGNEXTEND SWAP1 SIGNEXTEND DUP13 PUSH2 0x2D37 JUMP JUMPDEST PUSH2 0x2D5A JUMP JUMPDEST DUP2 SLOAD PUSH1 0xA SWAP2 SWAP1 SWAP2 SIGNEXTEND PUSH1 0x1 PUSH1 0x1 PUSH1 0x58 SHL SUB AND PUSH1 0x1 PUSH1 0xA8 SHL MUL PUSH1 0x1 PUSH1 0x1 PUSH1 0xA8 SHL SUB SWAP1 SWAP2 AND OR SWAP1 SSTORE POP POP POP POP POP POP POP POP JUMP JUMPDEST PUSH1 0x0 PUSH3 0xF4240 DUP3 PUSH1 0x26 DUP2 GT ISZERO PUSH2 0x1DD8 JUMPI INVALID JUMPDEST ADD SWAP3 SWAP2 POP POP JUMP JUMPDEST PUSH1 0x0 DUP1 PUSH2 0xA02 PUSH1 0x2 PUSH2 0x1DC6 JUMP JUMPDEST PUSH2 0x1DF4 PUSH2 0x41F4 JUMP JUMPDEST PUSH2 0xA02 DUP3 PUSH1 0x1 PUSH2 0x20E3 JUMP JUMPDEST DUP1 ISZERO PUSH2 0x1E91 JUMPI PUSH20 0x82AF49447D8A07E3BD95BD0D56F35241523FBAB1 PUSH1 0x1 PUSH1 0x1 PUSH1 0xA0 SHL SUB AND PUSH4 0xD0E30DB0 DUP4 PUSH1 0x40 MLOAD DUP3 PUSH4 0xFFFFFFFF AND PUSH1 0xE0 SHL DUP2 MSTORE PUSH1 0x4 ADD PUSH1 0x0 PUSH1 0x40 MLOAD DUP1 DUP4 SUB DUP2 DUP6 DUP9 DUP1 EXTCODESIZE ISZERO DUP1 ISZERO PUSH2 0x1E54 JUMPI PUSH1 0x0 DUP1 REVERT JUMPDEST POP GAS CALL ISZERO DUP1 ISZERO PUSH2 0x1E68 JUMPI RETURNDATASIZE PUSH1 0x0 DUP1 RETURNDATACOPY RETURNDATASIZE PUSH1 0x0 REVERT JUMPDEST POP POP POP POP POP PUSH2 0x1E8C PUSH20 0x82AF49447D8A07E3BD95BD0D56F35241523FBAB1 DUP5 DUP5 PUSH2 0x29F6 JUMP JUMPDEST PUSH2 0x7EE JUMP JUMPDEST PUSH1 0x40 MLOAD PUSH1 0x1 PUSH1 0x1 PUSH1 0xA0 SHL SUB DUP5 AND SWAP1 DUP4 ISZERO PUSH2 0x8FC MUL SWAP1 DUP5 SWAP1 PUSH1 0x0 DUP2 DUP2 DUP2 DUP6 DUP9 DUP9 CALL SWAP4 POP POP POP POP ISZERO DUP1 ISZERO PUSH2 0x9EE JUMPI RETURNDATASIZE PUSH1 0x0 DUP1 RETURNDATACOPY RETURNDATASIZE PUSH1 0x0 REVERT JUMPDEST PUSH1 0x0 DUP1 DUP5 PUSH1 0x1 PUSH1 0x1 PUSH1 0xA0 SHL SUB AND PUSH4 0x70A08231 ADDRESS PUSH1 0x40 MLOAD DUP3 PUSH4 0xFFFFFFFF AND PUSH1 0xE0 SHL DUP2 MSTORE PUSH1 0x4 ADD DUP1 DUP3 PUSH1 0x1 PUSH1 0x1 PUSH1 0xA0 SHL SUB AND DUP2 MSTORE PUSH1 0x20 ADD SWAP2 POP POP PUSH1 0x20 PUSH1 0x40 MLOAD DUP1 DUP4 SUB DUP2 DUP7 DUP1 EXTCODESIZE ISZERO DUP1 ISZERO PUSH2 0x1F17 JUMPI PUSH1 0x0 DUP1 REVERT JUMPDEST POP GAS STATICCALL ISZERO DUP1 ISZERO PUSH2 0x1F2B JUMPI RETURNDATASIZE PUSH1 0x0 DUP1 RETURNDATACOPY RETURNDATASIZE PUSH1 0x0 REVERT JUMPDEST POP POP POP POP PUSH1 0x40 MLOAD RETURNDATASIZE PUSH1 0x20 DUP2 LT ISZERO PUSH2 0x1F41 JUMPI PUSH1 0x0 DUP1 REVERT JUMPDEST POP MLOAD PUSH1 0x40 DUP1 MLOAD PUSH4 0x23B872DD PUSH1 0xE0 SHL DUP2 MSTORE PUSH1 0x1 PUSH1 0x1 PUSH1 0xA0 SHL SUB DUP8 DUP2 AND PUSH1 0x4 DUP4 ADD MSTORE ADDRESS PUSH1 0x24 DUP4 ADD MSTORE PUSH1 0x44 DUP3 ADD DUP8 SWAP1 MSTORE SWAP2 MLOAD SWAP3 SWAP4 POP SWAP1 DUP8 AND SWAP2 PUSH4 0x23B872DD SWAP2 PUSH1 0x64 DUP1 DUP3 ADD SWAP3 PUSH1 0x0 SWAP3 SWAP1 SWAP2 SWAP1 DUP3 SWAP1 SUB ADD DUP2 DUP4 DUP8 DUP1 EXTCODESIZE ISZERO DUP1 ISZERO PUSH2 0x1F9E JUMPI PUSH1 0x0 DUP1 REVERT JUMPDEST POP GAS CALL ISZERO DUP1 ISZERO PUSH2 0x1FB2 JUMPI RETURNDATASIZE PUSH1 0x0 DUP1 RETURNDATACOPY RETURNDATASIZE PUSH1 0x0 REVERT JUMPDEST POP POP POP POP PUSH2 0x1FBE PUSH2 0x2D8C JUMP JUMPDEST PUSH1 0x0 DUP6 PUSH1 0x1 PUSH1 0x1 PUSH1 0xA0 SHL SUB AND PUSH4 0x70A08231 ADDRESS PUSH1 0x40 MLOAD DUP3 PUSH4 0xFFFFFFFF AND PUSH1 0xE0 SHL DUP2 MSTORE PUSH1 0x4 ADD DUP1 DUP3 PUSH1 0x1 PUSH1 0x1 PUSH1 0xA0 SHL SUB AND DUP2 MSTORE PUSH1 0x20 ADD SWAP2 POP POP PUSH1 0x20 PUSH1 0x40 MLOAD DUP1 DUP4 SUB DUP2 DUP7 DUP1 EXTCODESIZE ISZERO DUP1 ISZERO PUSH2 0x200D JUMPI PUSH1 0x0 DUP1 REVERT JUMPDEST POP GAS STATICCALL ISZERO DUP1 ISZERO PUSH2 0x2021 JUMPI RETURNDATASIZE PUSH1 0x0 DUP1 RETURNDATACOPY RETURNDATASIZE PUSH1 0x0 REVERT JUMPDEST POP POP POP POP PUSH1 0x40 MLOAD RETURNDATASIZE PUSH1 0x20 DUP2 LT ISZERO PUSH2 0x2037 JUMPI PUSH1 0x0 DUP1 REVERT JUMPDEST POP MLOAD SWAP1 POP PUSH2 0x2045 DUP2 DUP4 PUSH2 0x2DF9 JUMP JUMPDEST SWAP7 SWAP6 POP POP POP POP POP POP JUMP JUMPDEST PUSH1 0x0 DUP1 PUSH2 0x205C DUP5 DUP7 PUSH2 0x2E0E JUMP JUMPDEST SWAP1 POP PUSH2 0x2068 DUP4 DUP3 PUSH2 0x2E3E JUMP JUMPDEST SWAP2 POP PUSH2 0x2075 DUP8 DUP8 DUP5 PUSH2 0x2E60 JUMP JUMPDEST PUSH2 0x2080 DUP7 DUP4 DUP4 PUSH2 0x2EE0 JUMP JUMPDEST DUP4 MLOAD PUSH2 0x208C SWAP1 DUP7 PUSH2 0x2FD3 JUMP JUMPDEST POP SWAP6 SWAP5 POP POP POP POP POP JUMP JUMPDEST PUSH1 0x0 DUP1 PUSH2 0xA02 PUSH1 0x1D PUSH2 0x1DC6 JUMP JUMPDEST PUSH1 0x8 DUP2 SWAP1 SHR PUSH1 0xFF SWAP1 SWAP2 AND SHL SWAP1 JUMP JUMPDEST PUSH1 0x0 PUSH2 0x10DA PUSH15 0xC097CE7BC90715B34B9F1000000000 PUSH2 0x20DD DUP6 PUSH1 0x0 ADD MLOAD DUP6 PUSH2 0x11EF SWAP1 SWAP2 SWAP1 PUSH4 0xFFFFFFFF AND JUMP JUMPDEST SWAP1 PUSH2 0x3028 JUMP JUMPDEST PUSH2 0x20EB PUSH2 0x41F4 JUMP JUMPDEST PUSH1 0x0 PUSH2 0x20F5 PUSH2 0x3059 JUMP JUMPDEST PUSH1 0x0 DUP6 DUP2 MSTORE PUSH1 0x20 DUP3 DUP2 MSTORE PUSH1 0x40 DUP1 DUP4 KECCAK256 DUP8 ISZERO ISZERO DUP5 MSTORE DUP3 MSTORE SWAP2 DUP3 SWAP1 KECCAK256 DUP3 MLOAD PUSH1 0xA0 DUP2 ADD DUP5 MSTORE DUP2 SLOAD PUSH1 0x1 PUSH1 0x1 PUSH1 0xA0 SHL SUB DUP2 AND DUP3 MSTORE PUSH1 0xFF PUSH1 0x1 PUSH1 0xA0 SHL DUP3 DIV DUP2 AND ISZERO ISZERO SWAP5 DUP4 ADD SWAP5 SWAP1 SWAP5 MSTORE PUSH1 0x1 PUSH1 0xB0 SHL DUP2 DIV DUP5 AND PUSH1 0xA EXP SWAP5 DUP3 ADD SWAP5 SWAP1 SWAP5 MSTORE SWAP4 SWAP5 POP SWAP3 SWAP2 PUSH1 0x60 DUP4 ADD SWAP2 PUSH1 0x1 PUSH1 0xA8 SHL SWAP1 SWAP2 DIV AND PUSH1 0x5 DUP2 GT ISZERO PUSH2 0x216A JUMPI INVALID JUMPDEST DUP2 MSTORE PUSH1 0x0 PUSH1 0x20 SWAP1 SWAP2 ADD MSTORE SWAP6 SWAP5 POP POP POP POP POP JUMP JUMPDEST DUP2 MLOAD PUSH1 0x40 MLOAD PUSH4 0xDB006A75 PUSH1 0xE0 SHL DUP2 MSTORE PUSH1 0x0 SWAP2 SELFBALANCE SWAP2 DUP4 SWAP2 PUSH1 0x1 PUSH1 0x1 PUSH1 0xA0 SHL SUB AND SWAP1 PUSH4 0xDB006A75 SWAP1 PUSH2 0x21B1 SWAP1 DUP8 SWAP1 PUSH1 0x4 ADD PUSH2 0x4D60 JUMP JUMPDEST PUSH1 0x20 PUSH1 0x40 MLOAD DUP1 DUP4 SUB DUP2 PUSH1 0x0 DUP8 DUP1 EXTCODESIZE ISZERO DUP1 ISZERO PUSH2 0x21CB JUMPI PUSH1 0x0 DUP1 REVERT JUMPDEST POP GAS CALL ISZERO DUP1 ISZERO PUSH2 0x21DF JUMPI RETURNDATASIZE PUSH1 0x0 DUP1 RETURNDATACOPY RETURNDATASIZE PUSH1 0x0 REVERT JUMPDEST POP POP POP POP PUSH1 0x40 MLOAD RETURNDATASIZE PUSH1 0x1F NOT PUSH1 0x1F DUP3 ADD AND DUP3 ADD DUP1 PUSH1 0x40 MSTORE POP DUP2 ADD SWAP1 PUSH2 0x2203 SWAP2 SWAP1 PUSH2 0x48AA JUMP JUMPDEST SWAP1 POP DUP1 ISZERO PUSH2 0x2223 JUMPI PUSH1 0x40 MLOAD PUSH3 0x461BCD PUSH1 0xE5 SHL DUP2 MSTORE PUSH1 0x4 ADD PUSH2 0x23D SWAP1 PUSH2 0x4B89 JUMP JUMPDEST SELFBALANCE PUSH2 0x2045 DUP2 DUP5 PUSH2 0x2DF9 JUMP JUMPDEST PUSH1 0x0 DUP1 DUP4 PUSH1 0x0 ADD MLOAD PUSH1 0x1 PUSH1 0x1 PUSH1 0xA0 SHL SUB AND PUSH4 0x70A08231 ADDRESS PUSH1 0x40 MLOAD DUP3 PUSH4 0xFFFFFFFF AND PUSH1 0xE0 SHL DUP2 MSTORE PUSH1 0x4 ADD PUSH2 0x2261 SWAP2 SWAP1 PUSH2 0x4940 JUMP JUMPDEST PUSH1 0x20 PUSH1 0x40 MLOAD DUP1 DUP4 SUB DUP2 DUP7 DUP1 EXTCODESIZE ISZERO DUP1 ISZERO PUSH2 0x2279 JUMPI PUSH1 0x0 DUP1 REVERT JUMPDEST POP GAS STATICCALL ISZERO DUP1 ISZERO PUSH2 0x228D JUMPI RETURNDATASIZE PUSH1 0x0 DUP1 RETURNDATACOPY RETURNDATASIZE PUSH1 0x0 REVERT JUMPDEST POP POP POP POP PUSH1 0x40 MLOAD RETURNDATASIZE PUSH1 0x1F NOT PUSH1 0x1F DUP3 ADD AND DUP3 ADD DUP1 PUSH1 0x40 MSTORE POP DUP2 ADD SWAP1 PUSH2 0x22B1 SWAP2 SWAP1 PUSH2 0x48AA JUMP JUMPDEST SWAP1 POP PUSH1 0x0 DUP6 PUSH1 0x0 ADD MLOAD PUSH1 0x1 PUSH1 0x1 PUSH1 0xA0 SHL SUB AND PUSH4 0xDB006A75 DUP6 PUSH1 0x40 MLOAD DUP3 PUSH4 0xFFFFFFFF AND PUSH1 0xE0 SHL DUP2 MSTORE PUSH1 0x4 ADD PUSH2 0x22E5 SWAP2 SWAP1 PUSH2 0x4D60 JUMP JUMPDEST PUSH1 0x20 PUSH1 0x40 MLOAD DUP1 DUP4 SUB DUP2 PUSH1 0x0 DUP8 DUP1 EXTCODESIZE ISZERO DUP1 ISZERO PUSH2 0x22FF JUMPI PUSH1 0x0 DUP1 REVERT JUMPDEST POP GAS CALL ISZERO DUP1 ISZERO PUSH2 0x2313 JUMPI RETURNDATASIZE PUSH1 0x0 DUP1 RETURNDATACOPY RETURNDATASIZE PUSH1 0x0 REVERT JUMPDEST POP POP POP POP PUSH1 0x40 MLOAD RETURNDATASIZE PUSH1 0x1F NOT PUSH1 0x1F DUP3 ADD AND DUP3 ADD DUP1 PUSH1 0x40 MSTORE POP DUP2 ADD SWAP1 PUSH2 0x2337 SWAP2 SWAP1 PUSH2 0x48AA JUMP JUMPDEST SWAP1 POP DUP1 ISZERO PUSH2 0x2357 JUMPI PUSH1 0x40 MLOAD PUSH3 0x461BCD PUSH1 0xE5 SHL DUP2 MSTORE PUSH1 0x4 ADD PUSH2 0x23D SWAP1 PUSH2 0x4B89 JUMP JUMPDEST DUP5 MLOAD PUSH1 0x40 MLOAD PUSH4 0x70A08231 PUSH1 0xE0 SHL DUP2 MSTORE PUSH1 0x0 SWAP2 PUSH1 0x1 PUSH1 0x1 PUSH1 0xA0 SHL SUB AND SWAP1 PUSH4 0x70A08231 SWAP1 PUSH2 0x2387 SWAP1 ADDRESS SWAP1 PUSH1 0x4 ADD PUSH2 0x4940 JUMP JUMPDEST PUSH1 0x20 PUSH1 0x40 MLOAD DUP1 DUP4 SUB DUP2 DUP7 DUP1 EXTCODESIZE ISZERO DUP1 ISZERO PUSH2 0x239F JUMPI PUSH1 0x0 DUP1 REVERT JUMPDEST POP GAS STATICCALL ISZERO DUP1 ISZERO PUSH2 0x23B3 JUMPI RETURNDATASIZE PUSH1 0x0 DUP1 RETURNDATACOPY RETURNDATASIZE PUSH1 0x0 REVERT JUMPDEST POP POP POP POP PUSH1 0x40 MLOAD RETURNDATASIZE PUSH1 0x1F NOT PUSH1 0x1F DUP3 ADD AND DUP3 ADD DUP1 PUSH1 0x40 MSTORE POP DUP2 ADD SWAP1 PUSH2 0x23D7 SWAP2 SWAP1 PUSH2 0x48AA JUMP JUMPDEST SWAP1 POP PUSH2 0x23E3 DUP2 DUP5 PUSH2 0x2DF9 JUMP JUMPDEST SWAP8 SWAP7 POP POP POP POP POP POP POP JUMP JUMPDEST PUSH2 0x23F6 PUSH2 0x4223 JUMP JUMPDEST PUSH1 0x0 PUSH2 0x2400 PUSH2 0x2096 JUMP JUMPDEST PUSH2 0xFFFF SWAP4 DUP5 AND PUSH1 0x0 SWAP1 DUP2 MSTORE PUSH1 0x20 SWAP2 DUP3 MSTORE PUSH1 0x40 SWAP1 DUP2 SWAP1 KECCAK256 DUP1 SLOAD PUSH5 0xFFFFFFFFFF DUP2 AND DUP7 MSTORE PUSH1 0x1 PUSH1 0x28 SHL DUP2 DIV PUSH1 0x1 PUSH1 0x1 PUSH1 0x58 SHL SUB SWAP1 DUP2 AND SWAP5 DUP8 ADD SWAP5 SWAP1 SWAP5 MSTORE PUSH1 0x1 DUP3 ADD SLOAD DUP5 AND SWAP3 DUP7 ADD SWAP3 SWAP1 SWAP3 MSTORE PUSH1 0x1 PUSH1 0xD8 SHL DUP3 DIV PUSH4 0xFFFFFFFF AND PUSH1 0x60 DUP7 ADD MSTORE PUSH1 0x1 PUSH1 0x80 SHL SWAP1 SWAP2 DIV SWAP1 SWAP2 AND PUSH1 0x80 DUP5 ADD MSTORE PUSH1 0x2 ADD SLOAD PUSH1 0x1 PUSH1 0x1 PUSH1 0x50 SHL SUB DUP1 DUP3 AND PUSH1 0xA0 DUP6 ADD MSTORE PUSH1 0x1 PUSH1 0x50 SHL DUP3 DIV DUP2 AND PUSH1 0xC0 DUP6 ADD MSTORE PUSH1 0x1 PUSH1 0xA0 SHL DUP3 DIV AND PUSH1 0xE0 DUP5 ADD MSTORE PUSH1 0x1 PUSH1 0xF0 SHL SWAP1 DIV PUSH1 0xFF AND PUSH2 0x12C MUL SWAP1 SWAP3 AND PUSH2 0x100 DUP3 ADD MSTORE SWAP2 SWAP1 POP JUMP JUMPDEST PUSH1 0x0 DUP1 PUSH2 0x24C2 DUP4 PUSH2 0x3066 JUMP JUMPDEST PUSH1 0x1 PUSH1 0x1 PUSH1 0xA0 SHL SUB AND PUSH4 0xEF81F216 PUSH1 0x40 MLOAD DUP2 PUSH4 0xFFFFFFFF AND PUSH1 0xE0 SHL DUP2 MSTORE PUSH1 0x4 ADD PUSH1 0x40 DUP1 MLOAD DUP1 DUP4 SUB DUP2 PUSH1 0x0 DUP8 DUP1 EXTCODESIZE ISZERO DUP1 ISZERO PUSH2 0x24FB JUMPI PUSH1 0x0 DUP1 REVERT JUMPDEST POP GAS CALL ISZERO DUP1 ISZERO PUSH2 0x250F JUMPI RETURNDATASIZE PUSH1 0x0 DUP1 RETURNDATACOPY RETURNDATASIZE PUSH1 0x0 REVERT JUMPDEST POP POP POP POP PUSH1 0x40 MLOAD RETURNDATASIZE PUSH1 0x1F NOT PUSH1 0x1F DUP3 ADD AND DUP3 ADD DUP1 PUSH1 0x40 MSTORE POP DUP2 ADD SWAP1 PUSH2 0xA1B SWAP2 SWAP1 PUSH2 0x48C2 JUMP JUMPDEST PUSH2 0x253B PUSH2 0x4223 JUMP JUMPDEST PUSH1 0x0 DUP1 PUSH1 0x0 PUSH2 0x254B DUP9 DUP7 DUP10 PUSH2 0x3096 JUMP JUMPDEST PUSH1 0xC0 DUP12 ADD SWAP3 SWAP1 SWAP3 MSTORE PUSH1 0xE0 DUP11 ADD SWAP3 SWAP1 SWAP3 MSTORE PUSH1 0x20 DUP10 ADD MLOAD SWAP2 SWAP4 POP SWAP2 POP PUSH2 0x256F SWAP1 DUP4 PUSH2 0x31A1 JUMP JUMPDEST PUSH1 0x20 DUP9 ADD MSTORE PUSH1 0x80 DUP8 ADD MLOAD PUSH1 0x0 SWAP1 ISZERO PUSH2 0x259D JUMPI PUSH1 0x80 DUP9 ADD MLOAD PUSH2 0x259A SWAP1 PUSH2 0x2594 DUP10 DUP3 PUSH2 0x2DF9 JUMP JUMPDEST SWAP1 PUSH2 0x31B3 JUMP JUMPDEST SWAP1 POP JUMPDEST PUSH2 0x25BD PUSH2 0x25B2 PUSH8 0xDE0B6B3A7640000 DUP4 PUSH2 0x31A1 JUMP JUMPDEST PUSH1 0xA0 DUP11 ADD MLOAD SWAP1 PUSH2 0x31D0 JUMP JUMPDEST PUSH1 0xA0 DUP10 ADD MSTORE POP PUSH1 0x80 DUP8 ADD DUP7 SWAP1 MSTORE PUSH1 0x0 PUSH2 0x25D4 PUSH2 0x31ED JUMP JUMPDEST PUSH2 0xFFFF DUP11 AND PUSH1 0x0 SWAP1 DUP2 MSTORE PUSH1 0x20 SWAP2 SWAP1 SWAP2 MSTORE PUSH1 0x40 SWAP1 KECCAK256 SLOAD DUP9 MLOAD PUSH4 0xFFFFFFFF PUSH1 0x1 PUSH1 0xA0 SHL SWAP1 SWAP3 DIV DUP3 AND SWAP3 POP PUSH2 0x261F SWAP2 PUSH2 0x260E SWAP1 DUP6 SWAP1 DUP6 SWAP1 PUSH2 0x31A1 AND JUMP JUMPDEST DUP11 PUSH1 0x60 ADD MLOAD DUP12 PUSH2 0x100 ADD MLOAD DUP11 PUSH2 0x31FA JUMP JUMPDEST PUSH1 0x60 DUP10 ADD MSTORE POP POP SWAP3 DUP6 MSTORE POP SWAP3 SWAP5 SWAP1 SWAP4 POP SWAP2 POP POP JUMP JUMPDEST PUSH1 0x0 PUSH2 0x263E PUSH2 0x2096 JUMP JUMPDEST PUSH1 0x0 DUP6 PUSH2 0xFFFF AND DUP2 MSTORE PUSH1 0x20 ADD SWAP1 DUP2 MSTORE PUSH1 0x20 ADD PUSH1 0x0 KECCAK256 SWAP1 POP PUSH2 0x2662 DUP3 PUSH1 0x0 ADD MLOAD PUSH2 0x3288 JUMP JUMPDEST DUP2 SLOAD PUSH5 0xFFFFFFFFFF NOT AND PUSH5 0xFFFFFFFFFF SWAP2 SWAP1 SWAP2 AND OR DUP2 SSTORE PUSH1 0xA0 DUP3 ADD MLOAD PUSH2 0x2687 SWAP1 PUSH2 0x2D21 JUMP JUMPDEST PUSH1 0x2 DUP3 ADD DUP1 SLOAD PUSH10 0xFFFFFFFFFFFFFFFFFFFF NOT AND PUSH1 0x1 PUSH1 0x1 PUSH1 0x50 SHL SUB SWAP3 SWAP1 SWAP3 AND SWAP2 SWAP1 SWAP2 OR SWAP1 SSTORE PUSH1 0xC0 DUP3 ADD MLOAD PUSH2 0x26BA SWAP1 PUSH2 0x2D21 JUMP JUMPDEST DUP2 PUSH1 0x2 ADD PUSH1 0xA PUSH2 0x100 EXP DUP2 SLOAD DUP2 PUSH1 0x1 PUSH1 0x1 PUSH1 0x50 SHL SUB MUL NOT AND SWAP1 DUP4 PUSH1 0x1 PUSH1 0x1 PUSH1 0x50 SHL SUB AND MUL OR SWAP1 SSTORE POP PUSH2 0x26EF DUP3 PUSH1 0xE0 ADD MLOAD PUSH2 0x2D21 JUMP JUMPDEST DUP2 PUSH1 0x2 ADD PUSH1 0x14 PUSH2 0x100 EXP DUP2 SLOAD DUP2 PUSH1 0x1 PUSH1 0x1 PUSH1 0x50 SHL SUB MUL NOT AND SWAP1 DUP4 PUSH1 0x1 PUSH1 0x1 PUSH1 0x50 SHL SUB AND MUL OR SWAP1 SSTORE POP PUSH2 0x2724 DUP3 PUSH1 0x20 ADD MLOAD PUSH2 0x329C JUMP JUMPDEST DUP2 SLOAD PUSH1 0x1 PUSH1 0x1 PUSH1 0x58 SHL SUB SWAP2 SWAP1 SWAP2 AND PUSH1 0x1 PUSH1 0x28 SHL MUL PUSH16 0xFFFFFFFFFFFFFFFFFFFFFF0000000000 NOT SWAP1 SWAP2 AND OR DUP2 SSTORE PUSH1 0x40 DUP3 ADD MLOAD PUSH2 0x275E SWAP1 PUSH2 0x329C JUMP JUMPDEST PUSH1 0x1 DUP3 ADD DUP1 SLOAD PUSH11 0xFFFFFFFFFFFFFFFFFFFFFF NOT AND PUSH1 0x1 PUSH1 0x1 PUSH1 0x58 SHL SUB SWAP3 SWAP1 SWAP3 AND SWAP2 SWAP1 SWAP2 OR SWAP1 SSTORE PUSH1 0x80 DUP3 ADD MLOAD PUSH2 0x2792 SWAP1 PUSH2 0x329C JUMP JUMPDEST DUP2 SLOAD PUSH1 0x1 PUSH1 0x1 PUSH1 0x58 SHL SUB SWAP2 SWAP1 SWAP2 AND PUSH1 0x1 PUSH1 0x80 SHL MUL PUSH11 0xFFFFFFFFFFFFFFFFFFFFFF PUSH1 0x80 SHL NOT SWAP1 SWAP2 AND OR DUP2 SSTORE PUSH1 0x60 DUP3 ADD MLOAD PUSH2 0x27CA SWAP1 PUSH2 0x2D0E JUMP JUMPDEST DUP2 SLOAD PUSH4 0xFFFFFFFF SWAP2 SWAP1 SWAP2 AND PUSH1 0x1 PUSH1 0xD8 SHL MUL PUSH4 0xFFFFFFFF PUSH1 0xD8 SHL NOT SWAP1 SWAP2 AND OR DUP2 SSTORE DUP3 ISZERO PUSH2 0x2816 JUMPI PUSH1 0x0 PUSH2 0x27FB DUP5 PUSH2 0xC7C JUMP JUMPDEST SWAP1 POP PUSH2 0x2807 DUP6 DUP3 PUSH2 0x32B2 JUMP JUMPDEST PUSH2 0x2814 PUSH2 0xFEE DUP7 DUP4 PUSH2 0x2E60 JUMP JUMPDEST POP JUMPDEST DUP4 PUSH2 0xFFFF AND PUSH32 0xEF25641E225E493886510CA1AD6584FA7B442B9FEA820A29D1DE3CE27D270FD2 DUP4 PUSH1 0xA0 ADD MLOAD DUP5 PUSH1 0xC0 ADD MLOAD DUP6 PUSH1 0xE0 ADD MLOAD PUSH1 0x40 MLOAD PUSH2 0x285A SWAP4 SWAP3 SWAP2 SWAP1 PUSH2 0x4D77 JUMP JUMPDEST PUSH1 0x40 MLOAD DUP1 SWAP2 SUB SWAP1 LOG2 POP POP POP POP JUMP JUMPDEST PUSH1 0x0 DUP3 PUSH2 0x2877 JUMPI POP PUSH1 0x0 PUSH2 0xA02 JUMP JUMPDEST DUP3 DUP3 MUL DUP3 DUP5 DUP3 DUP2 PUSH2 0x2884 JUMPI INVALID JUMPDEST DIV EQ PUSH2 0x10DA JUMPI PUSH1 0x0 DUP1 REVERT JUMPDEST PUSH1 0x0 DUP1 PUSH2 0xA02 PUSH1 0x6 PUSH2 0x1DC6 JUMP JUMPDEST PUSH1 0x0 DUP1 DUP3 SLT PUSH2 0x28AC JUMPI POP DUP1 PUSH2 0xA02 JUMP JUMPDEST DUP3 MLOAD PUSH1 0x20 DUP5 ADD MLOAD PUSH2 0x28C3 SWAP2 SWAP1 PUSH2 0x20DD SWAP1 DUP6 SWAP1 PUSH2 0x11EF JUMP JUMPDEST SWAP1 POP PUSH2 0xA02 JUMP JUMPDEST PUSH1 0x0 PUSH4 0x5F5E100 DUP4 PUSH1 0x40 ADD MLOAD EQ ISZERO PUSH2 0x28E3 JUMPI POP DUP1 PUSH2 0xA02 JUMP JUMPDEST PUSH2 0x10DA PUSH4 0x5F5E100 PUSH2 0x20DD DUP6 PUSH1 0x40 ADD MLOAD DUP6 PUSH2 0x11EF SWAP1 SWAP2 SWAP1 PUSH4 0xFFFFFFFF AND JUMP JUMPDEST PUSH1 0x0 PUSH2 0x290C PUSH2 0x32E9 JUMP JUMPDEST DUP4 MLOAD PUSH1 0x1 PUSH1 0x1 PUSH1 0xA0 SHL SUB AND PUSH1 0x0 SWAP1 DUP2 MSTORE PUSH1 0x20 DUP3 SWAP1 MSTORE PUSH1 0x40 SWAP1 KECCAK256 SLOAD SWAP1 SWAP2 POP DUP1 DUP4 GT PUSH2 0x2937 JUMPI POP POP PUSH2 0x7EE JUMP JUMPDEST PUSH1 0x0 PUSH2 0x2942 DUP7 PUSH2 0x3066 JUMP JUMPDEST SWAP1 POP PUSH1 0x0 DUP2 PUSH1 0x1 PUSH1 0x1 PUSH1 0xA0 SHL SUB AND PUSH4 0xB5E4DA23 DUP7 PUSH1 0x40 MLOAD DUP3 PUSH4 0xFFFFFFFF AND PUSH1 0xE0 SHL DUP2 MSTORE PUSH1 0x4 ADD PUSH2 0x2972 SWAP2 SWAP1 PUSH2 0x4D60 JUMP JUMPDEST PUSH1 0x0 PUSH1 0x40 MLOAD DUP1 DUP4 SUB DUP2 DUP7 DUP1 EXTCODESIZE ISZERO DUP1 ISZERO PUSH2 0x298A JUMPI PUSH1 0x0 DUP1 REVERT JUMPDEST POP GAS STATICCALL ISZERO DUP1 ISZERO PUSH2 0x299E JUMPI RETURNDATASIZE PUSH1 0x0 DUP1 RETURNDATACOPY RETURNDATASIZE PUSH1 0x0 REVERT JUMPDEST POP POP POP POP PUSH1 0x40 MLOAD RETURNDATASIZE PUSH1 0x0 DUP3 RETURNDATACOPY PUSH1 0x1F RETURNDATASIZE SWAP1 DUP2 ADD PUSH1 0x1F NOT AND DUP3 ADD PUSH1 0x40 MSTORE PUSH2 0x29C6 SWAP2 SWAP1 DUP2 ADD SWAP1 PUSH2 0x4562 JUMP JUMPDEST SWAP1 POP PUSH1 0x0 PUSH2 0x29D4 DUP8 DUP4 PUSH2 0x32F6 JUMP JUMPDEST SWAP1 POP PUSH2 0x29E0 DUP5 DUP3 PUSH2 0x31A1 JUMP JUMPDEST DUP7 GT ISZERO PUSH2 0x29EC JUMPI PUSH1 0x0 DUP1 REVERT JUMPDEST POP POP POP POP POP POP POP POP JUMP JUMPDEST DUP3 PUSH1 0x1 PUSH1 0x1 PUSH1 0xA0 SHL SUB AND PUSH4 0xA9059CBB DUP4 DUP4 PUSH1 0x40 MLOAD DUP4 PUSH4 0xFFFFFFFF AND PUSH1 0xE0 SHL DUP2 MSTORE PUSH1 0x4 ADD DUP1 DUP4 PUSH1 0x1 PUSH1 0x1 PUSH1 0xA0 SHL SUB AND DUP2 MSTORE PUSH1 0x20 ADD DUP3 DUP2 MSTORE PUSH1 0x20 ADD SWAP3 POP POP POP PUSH1 0x0 PUSH1 0x40 MLOAD DUP1 DUP4 SUB DUP2 PUSH1 0x0 DUP8 DUP1 EXTCODESIZE ISZERO DUP1 ISZERO PUSH2 0x2A4D JUMPI PUSH1 0x0 DUP1 REVERT JUMPDEST POP GAS CALL ISZERO DUP1 ISZERO PUSH2 0x2A61 JUMPI RETURNDATASIZE PUSH1 0x0 DUP1 RETURNDATACOPY RETURNDATASIZE PUSH1 0x0 REVERT JUMPDEST POP POP POP POP PUSH2 0x7EE PUSH2 0x2D8C JUMP JUMPDEST PUSH1 0x0 DUP1 PUSH1 0x0 PUSH2 0x2A7C DUP7 DUP6 PUSH2 0x34FF JUMP JUMPDEST POP SWAP2 POP SWAP2 POP PUSH1 0x0 PUSH2 0x2A8B PUSH2 0x3595 JUMP JUMPDEST PUSH1 0x1 PUSH1 0x1 PUSH1 0xA0 SHL SUB DUP9 AND PUSH1 0x0 SWAP1 DUP2 MSTORE PUSH1 0x20 DUP3 SWAP1 MSTORE PUSH1 0x40 DUP2 KECCAK256 SWAP2 SWAP3 POP PUSH2 0x2AB0 DUP6 DUP10 PUSH2 0x152B JUMP JUMPDEST SWAP1 POP DUP1 PUSH1 0x0 SGT ISZERO DUP1 ISZERO PUSH2 0x2AC9 JUMPI POP PUSH1 0x1 PUSH1 0x1 PUSH1 0x60 SHL SUB DUP2 LT JUMPDEST PUSH2 0x2AD2 JUMPI PUSH1 0x0 DUP1 REVERT JUMPDEST DUP2 SLOAD PUSH12 0xFFFFFFFFFFFFFFFFFFFFFFFF NOT AND PUSH1 0x1 PUSH1 0x1 PUSH1 0x60 SHL SUB DUP3 AND OR PUSH16 0xFFFFFFFFFFFFFFFFFFFFFFFFFFFFFFFF PUSH1 0x60 SHL NOT AND PUSH1 0x1 PUSH1 0x60 SHL PUSH1 0x1 PUSH1 0x1 PUSH1 0x80 SHL SUB DUP7 AND MUL OR DUP3 SSTORE PUSH4 0xFFFFFFFF DUP8 LT PUSH2 0x2B27 JUMPI PUSH1 0x0 DUP1 REVERT JUMPDEST POP DUP1 SLOAD PUSH4 0xFFFFFFFF DUP8 AND PUSH1 0x1 PUSH1 0xE0 SHL MUL PUSH1 0x1 PUSH1 0x1 PUSH1 0xE0 SHL SUB SWAP1 SWAP2 AND OR SWAP1 SSTORE POP SWAP2 POP POP SWAP4 SWAP3 POP POP POP JUMP JUMPDEST PUSH1 0xE0 DUP5 ADD MLOAD PUSH1 0x0 SWAP1 ISZERO PUSH2 0x2C11 JUMPI PUSH20 0x0 PUSH4 0xE0C01A72 DUP6 PUSH2 0x2B85 DUP9 PUSH1 0x40 ADD MLOAD PUSH2 0xB40 JUMP JUMPDEST DUP9 PUSH1 0xE0 ADD MLOAD DUP10 PUSH2 0x100 ADD MLOAD PUSH1 0x40 MLOAD DUP6 PUSH4 0xFFFFFFFF AND PUSH1 0xE0 SHL DUP2 MSTORE PUSH1 0x4 ADD PUSH2 0x2BAF SWAP5 SWAP4 SWAP3 SWAP2 SWAP1 PUSH2 0x4AFA JUMP JUMPDEST PUSH1 0x20 PUSH1 0x40 MLOAD DUP1 DUP4 SUB DUP2 DUP7 DUP1 EXTCODESIZE ISZERO DUP1 ISZERO PUSH2 0x2BC7 JUMPI PUSH1 0x0 DUP1 REVERT JUMPDEST POP GAS DELEGATECALL ISZERO DUP1 ISZERO PUSH2 0x2BDB JUMPI RETURNDATASIZE PUSH1 0x0 DUP1 RETURNDATACOPY RETURNDATASIZE PUSH1 0x0 REVERT JUMPDEST POP POP POP POP PUSH1 0x40 MLOAD RETURNDATASIZE PUSH1 0x1F NOT PUSH1 0x1F DUP3 ADD AND DUP3 ADD DUP1 PUSH1 0x40 MSTORE POP DUP2 ADD SWAP1 PUSH2 0x2BFF SWAP2 SWAP1 PUSH2 0x48AA JUMP JUMPDEST PUSH1 0x0 PUSH1 0xE0 DUP8 ADD DUP2 SWAP1 MSTORE PUSH2 0x100 DUP8 ADD MSTORE SWAP1 POP JUMPDEST PUSH2 0x2C53 PUSH2 0x2C4C DUP7 PUSH2 0x100 ADD MLOAD PUSH2 0x2C46 PUSH8 0xDE0B6B3A7640000 PUSH2 0x2C40 DUP9 PUSH2 0x2C3A DUP13 PUSH1 0x40 ADD MLOAD PUSH2 0xB40 JUMP JUMPDEST SWAP1 PUSH2 0x2868 JUMP JUMPDEST SWAP1 PUSH2 0x35A2 JUMP JUMPDEST SWAP1 PUSH2 0x2DF9 JUMP JUMPDEST DUP3 SWAP1 PUSH2 0x31A1 JUMP JUMPDEST SWAP1 POP PUSH2 0x2C6B PUSH8 0xDE0B6B3A7640000 PUSH2 0x2C40 DUP5 DUP7 PUSH2 0x2868 JUMP JUMPDEST DUP6 PUSH2 0x100 ADD DUP2 DUP2 MSTORE POP POP SWAP5 SWAP4 POP POP POP POP JUMP JUMPDEST PUSH1 0x0 DUP1 PUSH2 0x2C88 PUSH2 0x1DDF JUMP JUMPDEST PUSH1 0x1 PUSH1 0x1 PUSH1 0xA0 SHL SUB DUP5 AND PUSH1 0x0 SWAP1 DUP2 MSTORE PUSH1 0x20 DUP3 SWAP1 MSTORE PUSH1 0x40 SWAP1 KECCAK256 DUP1 SLOAD SWAP2 SWAP3 POP SWAP1 PUSH1 0x1 PUSH1 0xF8 SHL SWAP1 DIV PUSH1 0xFF AND ISZERO PUSH2 0x2CE4 JUMPI PUSH2 0x2CBD PUSH2 0x35C1 JUMP JUMPDEST PUSH1 0x1 PUSH1 0x1 PUSH1 0xA0 SHL SUB DUP1 DUP7 AND PUSH1 0x0 SWAP1 DUP2 MSTORE PUSH1 0x20 SWAP3 SWAP1 SWAP3 MSTORE PUSH1 0x40 SWAP1 SWAP2 KECCAK256 SLOAD AND SWAP3 POP PUSH2 0x909 SWAP2 POP POP JUMP JUMPDEST PUSH1 0x0 SWAP3 POP POP POP PUSH2 0x909 JUMP JUMPDEST PUSH2 0x4BE PUSH20 0x19BE259BC299F3F653688C7655C87F998BC7BC1 DUP4 DUP4 PUSH2 0x29F6 JUMP JUMPDEST PUSH1 0x0 PUSH4 0xFFFFFFFF DUP3 GT ISZERO PUSH2 0xB4F JUMPI PUSH1 0x0 DUP1 REVERT JUMPDEST PUSH1 0x0 PUSH1 0x1 PUSH1 0x1 PUSH1 0x50 SHL SUB DUP3 GT ISZERO PUSH2 0xB4F JUMPI PUSH1 0x0 DUP1 REVERT JUMPDEST PUSH1 0x0 PUSH2 0x2D43 DUP7 DUP4 PUSH2 0x35CE JUMP JUMPDEST SWAP1 POP PUSH2 0x1B95 DUP7 DUP7 DUP7 PUSH2 0x2D55 DUP8 DUP7 PUSH2 0x360D JUMP JUMPDEST PUSH2 0x3694 JUMP JUMPDEST PUSH1 0x0 PUSH11 0x7FFFFFFFFFFFFFFFFFFFFF NOT DUP3 SLT DUP1 ISZERO SWAP1 PUSH2 0x2D83 JUMPI POP PUSH11 0x7FFFFFFFFFFFFFFFFFFFFF DUP3 SGT ISZERO JUMPDEST PUSH2 0xB4F JUMPI PUSH1 0x0 DUP1 REVERT JUMPDEST PUSH1 0x0 PUSH2 0x2D96 PUSH2 0x426F JUMP JUMPDEST RETURNDATASIZE DUP1 ISZERO PUSH2 0x2DAA JUMPI PUSH1 0x20 DUP2 EQ PUSH2 0x2DB3 JUMPI PUSH1 0x0 DUP1 REVERT JUMPDEST PUSH1 0x1 SWAP3 POP PUSH2 0x2DBE JUMP JUMPDEST PUSH1 0x20 PUSH1 0x0 DUP4 RETURNDATACOPY DUP2 MLOAD SWAP3 POP JUMPDEST POP DUP2 PUSH2 0x4BE JUMPI PUSH1 0x40 DUP1 MLOAD PUSH3 0x461BCD PUSH1 0xE5 SHL DUP2 MSTORE PUSH1 0x20 PUSH1 0x4 DUP3 ADD MSTORE PUSH1 0x5 PUSH1 0x24 DUP3 ADD MSTORE PUSH5 0x455243323 PUSH1 0xDC SHL PUSH1 0x44 DUP3 ADD MSTORE SWAP1 MLOAD SWAP1 DUP2 SWAP1 SUB PUSH1 0x64 ADD SWAP1 REVERT JUMPDEST PUSH1 0x0 DUP3 DUP3 GT ISZERO PUSH2 0x2E08 JUMPI PUSH1 0x0 DUP1 REVERT JUMPDEST POP SWAP1 SUB SWAP1 JUMP JUMPDEST PUSH1 0x0 PUSH4 0x5F5E100 DUP4 PUSH1 0x40 ADD MLOAD EQ ISZERO PUSH2 0x2E27 JUMPI POP DUP1 PUSH2 0xA02 JUMP JUMPDEST PUSH1 0x40 DUP4 ADD MLOAD PUSH2 0x10DA SWAP1 PUSH2 0x20DD DUP5 PUSH4 0x5F5E100 PUSH2 0x11EF JUMP JUMPDEST DUP2 MLOAD PUSH1 0x0 SWAP1 PUSH2 0x10DA SWAP1 PUSH2 0x20DD DUP5 PUSH15 0xC097CE7BC90715B34B9F1000000000 PUSH2 0x11EF JUMP JUMPDEST PUSH1 0x0 PUSH2 0x2E6A PUSH2 0x15BA JUMP JUMPDEST PUSH2 0xFFFF DUP5 AND PUSH1 0x0 SWAP1 DUP2 MSTORE PUSH1 0x20 SWAP2 SWAP1 SWAP2 MSTORE PUSH1 0x40 SWAP1 DUP2 SWAP1 KECCAK256 SLOAD SWAP1 MLOAD PUSH4 0xAD1C095D PUSH1 0xE0 SHL DUP2 MSTORE PUSH1 0x1 PUSH1 0x1 PUSH1 0xA0 SHL SUB SWAP1 SWAP2 AND SWAP2 POP DUP2 SWAP1 PUSH4 0xAD1C095D SWAP1 PUSH2 0x2EB2 SWAP1 DUP8 SWAP1 DUP7 SWAP1 PUSH1 0x4 ADD PUSH2 0x4A57 JUMP JUMPDEST PUSH1 0x0 PUSH1 0x40 MLOAD DUP1 DUP4 SUB DUP2 PUSH1 0x0 DUP8 DUP1 EXTCODESIZE ISZERO DUP1 ISZERO PUSH2 0x2ECC JUMPI PUSH1 0x0 DUP1 REVERT JUMPDEST POP GAS CALL ISZERO DUP1 ISZERO PUSH2 0x29EC JUMPI RETURNDATASIZE PUSH1 0x0 DUP1 RETURNDATACOPY RETURNDATASIZE PUSH1 0x0 REVERT JUMPDEST PUSH1 0x0 PUSH2 0x2EEA PUSH2 0x2096 JUMP JUMPDEST PUSH2 0xFFFF DUP6 AND PUSH1 0x0 SWAP1 DUP2 MSTORE PUSH1 0x20 SWAP2 SWAP1 SWAP2 MSTORE PUSH1 0x40 SWAP1 KECCAK256 DUP1 SLOAD SWAP1 SWAP2 POP PUSH5 0xFFFFFFFFFF AND TIMESTAMP EQ PUSH2 0x2F15 JUMPI PUSH1 0x0 DUP1 REVERT JUMPDEST DUP1 SLOAD PUSH1 0x0 SWAP1 PUSH2 0x2F34 SWAP1 PUSH1 0x1 PUSH1 0x28 SHL SWAP1 DIV PUSH1 0x1 PUSH1 0x1 PUSH1 0x58 SHL SUB AND DUP6 PUSH2 0x152B JUMP JUMPDEST DUP3 SLOAD SWAP1 SWAP2 POP PUSH1 0x0 SWAP1 PUSH2 0x2F56 SWAP1 PUSH1 0x1 PUSH1 0x80 SHL SWAP1 DIV PUSH1 0x1 PUSH1 0x1 PUSH1 0x58 SHL SUB AND DUP6 PUSH2 0x152B JUMP JUMPDEST SWAP1 POP PUSH2 0x2F69 PUSH2 0x2F64 DUP3 PUSH2 0xB40 JUMP JUMPDEST PUSH2 0x329C JUMP JUMPDEST DUP4 SLOAD PUSH1 0x1 PUSH1 0x1 PUSH1 0x58 SHL SUB SWAP2 SWAP1 SWAP2 AND PUSH1 0x1 PUSH1 0x80 SHL MUL PUSH11 0xFFFFFFFFFFFFFFFFFFFFFF PUSH1 0x80 SHL NOT SWAP1 SWAP2 AND OR DUP4 SSTORE PUSH2 0x2F9F PUSH2 0x2F64 DUP4 PUSH2 0xB40 JUMP JUMPDEST DUP4 SLOAD PUSH1 0x1 PUSH1 0x1 PUSH1 0x58 SHL SUB SWAP2 SWAP1 SWAP2 AND PUSH1 0x1 PUSH1 0x28 SHL MUL PUSH16 0xFFFFFFFFFFFFFFFFFFFFFF0000000000 NOT SWAP1 SWAP2 AND OR SWAP1 SWAP3 SSTORE POP POP POP POP POP JUMP JUMPDEST PUSH1 0x0 PUSH2 0x2FDD PUSH2 0x32E9 JUMP JUMPDEST PUSH1 0x1 PUSH1 0x1 PUSH1 0xA0 SHL SUB DUP5 AND PUSH1 0x0 SWAP1 DUP2 MSTORE PUSH1 0x20 DUP3 SWAP1 MSTORE PUSH1 0x40 SWAP1 KECCAK256 SLOAD SWAP1 SWAP2 POP PUSH2 0x3006 PUSH2 0x398 DUP3 DUP6 PUSH2 0x152B JUMP JUMPDEST PUSH1 0x1 PUSH1 0x1 PUSH1 0xA0 SHL SUB SWAP1 SWAP5 AND PUSH1 0x0 SWAP1 DUP2 MSTORE PUSH1 0x20 SWAP3 SWAP1 SWAP3 MSTORE POP PUSH1 0x40 SWAP1 KECCAK256 SWAP2 SWAP1 SWAP2 SSTORE POP JUMP JUMPDEST PUSH1 0x0 DUP2 PUSH1 0x0 NOT EQ DUP1 ISZERO PUSH2 0x303E JUMPI POP PUSH1 0x1 PUSH1 0xFF SHL DUP4 EQ JUMPDEST ISZERO PUSH2 0x3048 JUMPI PUSH1 0x0 DUP1 REVERT JUMPDEST DUP2 DUP4 DUP2 PUSH2 0x3051 JUMPI INVALID JUMPDEST SDIV SWAP4 SWAP3 POP POP POP JUMP JUMPDEST PUSH1 0x0 DUP1 PUSH2 0xA02 PUSH1 0x7 PUSH2 0x1DC6 JUMP JUMPDEST PUSH1 0x0 DUP1 PUSH2 0x3071 PUSH2 0x36C8 JUMP JUMPDEST PUSH2 0xFFFF SWAP4 SWAP1 SWAP4 AND PUSH1 0x0 SWAP1 DUP2 MSTORE PUSH1 0x20 SWAP4 SWAP1 SWAP4 MSTORE POP POP PUSH1 0x40 SWAP1 KECCAK256 SLOAD PUSH1 0x1 PUSH1 0x1 PUSH1 0xA0 SHL SUB AND SWAP1 JUMP JUMPDEST PUSH1 0x0 DUP1 PUSH1 0x0 DUP1 PUSH1 0x0 DUP1 PUSH2 0x30A9 DUP10 DUP9 PUSH2 0x36D5 JUMP JUMPDEST DUP10 MLOAD SWAP1 SWAP6 POP SWAP2 SWAP4 POP SWAP2 POP PUSH1 0x0 SWAP1 PUSH2 0x30D0 SWAP1 PUSH2 0x30C5 SWAP1 DUP12 SWAP1 PUSH2 0x2DF9 JUMP JUMPDEST PUSH4 0x3B9ACA00 SWAP1 PUSH2 0x2868 JUMP JUMPDEST SWAP1 POP PUSH2 0x310A PUSH2 0x30FF PUSH4 0x1DA9C00 PUSH2 0x30E7 DUP6 DUP6 PUSH2 0x2868 JUMP JUMPDEST DUP2 PUSH2 0x30EE JUMPI INVALID JUMPDEST PUSH8 0xDE0B6B3A7640000 SWAP2 SWAP1 DIV PUSH2 0x31A1 JUMP JUMPDEST PUSH1 0xE0 DUP11 ADD MLOAD SWAP1 PUSH2 0x31D0 JUMP JUMPDEST SWAP7 POP PUSH2 0x312C PUSH2 0x3121 PUSH4 0x1DA9C00 PUSH2 0x30E7 DUP8 DUP6 PUSH2 0x2868 JUMP JUMPDEST PUSH1 0xC0 DUP11 ADD MLOAD SWAP1 PUSH2 0x31D0 JUMP JUMPDEST SWAP6 POP DUP2 DUP4 EQ ISZERO PUSH2 0x3143 JUMPI POP PUSH1 0x0 SWAP4 POP PUSH2 0x3198 SWAP2 POP POP JUMP JUMPDEST PUSH1 0x0 PUSH2 0x3165 PUSH2 0x315A PUSH4 0x1DA9C00 PUSH2 0x30E7 DUP8 DUP7 PUSH2 0x2868 JUMP JUMPDEST PUSH1 0xE0 DUP12 ADD MLOAD SWAP1 PUSH2 0x31D0 JUMP JUMPDEST SWAP1 POP PUSH1 0x0 PUSH2 0x3173 DUP10 DUP4 PUSH2 0x2DF9 JUMP JUMPDEST SWAP1 POP PUSH2 0x3190 DUP9 PUSH2 0x2C40 DUP4 DUP14 PUSH1 0x40 ADD MLOAD PUSH2 0x2868 SWAP1 SWAP2 SWAP1 PUSH4 0xFFFFFFFF AND JUMP JUMPDEST SWAP7 POP POP POP POP POP POP JUMPDEST SWAP4 POP SWAP4 POP SWAP4 POP SWAP4 JUMP JUMPDEST PUSH1 0x0 DUP3 DUP3 ADD DUP4 DUP2 LT ISZERO PUSH2 0x10DA JUMPI PUSH1 0x0 DUP1 REVERT JUMPDEST PUSH1 0x0 PUSH2 0x10DA PUSH2 0x31CA DUP5 PUSH8 0xDE0B6B3A7640000 PUSH2 0x2868 JUMP JUMPDEST DUP4 PUSH2 0x35A2 JUMP JUMPDEST PUSH1 0x0 PUSH2 0x10DA PUSH2 0x31DF DUP5 DUP5 PUSH2 0x2868 JUMP JUMPDEST PUSH8 0xDE0B6B3A7640000 PUSH2 0x35A2 JUMP JUMPDEST PUSH1 0x0 DUP1 PUSH2 0xA02 PUSH1 0x25 PUSH2 0x1DC6 JUMP JUMPDEST PUSH1 0x0 DUP1 DUP4 GT PUSH2 0x3208 JUMPI PUSH1 0x0 DUP1 REVERT JUMPDEST DUP2 DUP7 GT ISZERO PUSH2 0x3217 JUMPI POP DUP4 PUSH2 0x1B95 JUMP JUMPDEST PUSH1 0x0 PUSH2 0x3223 DUP4 DUP9 PUSH2 0x2DF9 JUMP JUMPDEST SWAP1 POP DUP4 DUP2 GT ISZERO PUSH2 0x3236 JUMPI DUP6 SWAP2 POP POP PUSH2 0x1B95 JUMP JUMPDEST PUSH1 0x0 PUSH2 0x3242 DUP3 DUP7 PUSH2 0x376F JUMP JUMPDEST SWAP1 POP PUSH1 0x0 PUSH2 0x3254 PUSH4 0x3B9ACA00 DUP4 PUSH2 0x2DF9 JUMP JUMPDEST SWAP1 POP PUSH2 0x327B PUSH4 0x3B9ACA00 PUSH2 0x2C40 PUSH2 0x326B DUP11 DUP6 PUSH2 0x2868 JUMP JUMPDEST PUSH2 0x3275 DUP13 DUP8 PUSH2 0x2868 JUMP JUMPDEST SWAP1 PUSH2 0x31A1 JUMP JUMPDEST SWAP10 SWAP9 POP POP POP POP POP POP POP POP POP JUMP JUMPDEST PUSH1 0x0 PUSH5 0xFFFFFFFFFF DUP3 GT ISZERO PUSH2 0xB4F JUMPI PUSH1 0x0 DUP1 REVERT JUMPDEST PUSH1 0x0 PUSH1 0x1 PUSH1 0x1 PUSH1 0x58 SHL SUB DUP3 GT ISZERO PUSH2 0xB4F JUMPI PUSH1 0x0 DUP1 REVERT JUMPDEST PUSH1 0x0 DUP2 SLT ISZERO PUSH2 0x32C0 JUMPI PUSH1 0x0 DUP1 REVERT JUMPDEST PUSH1 0x0 PUSH2 0x32CE PUSH2 0xFEE DUP5 PUSH2 0x3782 JUMP JUMPDEST SWAP1 POP PUSH2 0x32DA DUP2 DUP4 PUSH2 0x152B JUMP JUMPDEST SWAP1 POP PUSH2 0x7EE PUSH2 0xFEE DUP5 DUP4 PUSH2 0x37DB JUMP JUMPDEST PUSH1 0x0 DUP1 PUSH2 0xA02 PUSH1 0x26 PUSH2 0x1DC6 JUMP JUMPDEST PUSH1 0x0 DUP1 JUMPDEST DUP3 MLOAD DUP2 LT ISZERO PUSH2 0x34F8 JUMPI PUSH1 0x0 DUP4 DUP3 DUP2 MLOAD DUP2 LT PUSH2 0x3311 JUMPI INVALID JUMPDEST PUSH1 0x20 MUL PUSH1 0x20 ADD ADD MLOAD SWAP1 POP PUSH1 0x0 DUP2 PUSH1 0x60 ADD MLOAD PUSH1 0x1 PUSH1 0x1 PUSH1 0xA0 SHL SUB AND PUSH4 0x70A08231 ADDRESS PUSH1 0x40 MLOAD DUP3 PUSH4 0xFFFFFFFF AND PUSH1 0xE0 SHL DUP2 MSTORE PUSH1 0x4 ADD PUSH2 0x334D SWAP2 SWAP1 PUSH2 0x4940 JUMP JUMPDEST PUSH1 0x20 PUSH1 0x40 MLOAD DUP1 DUP4 SUB DUP2 DUP7 DUP1 EXTCODESIZE ISZERO DUP1 ISZERO PUSH2 0x3365 JUMPI PUSH1 0x0 DUP1 REVERT JUMPDEST POP GAS STATICCALL ISZERO DUP1 ISZERO PUSH2 0x3379 JUMPI RETURNDATASIZE PUSH1 0x0 DUP1 RETURNDATACOPY RETURNDATASIZE PUSH1 0x0 REVERT JUMPDEST POP POP POP POP PUSH1 0x40 MLOAD RETURNDATASIZE PUSH1 0x1F NOT PUSH1 0x1F DUP3 ADD AND DUP3 ADD DUP1 PUSH1 0x40 MSTORE POP DUP2 ADD SWAP1 PUSH2 0x339D SWAP2 SWAP1 PUSH2 0x48AA JUMP JUMPDEST SWAP1 POP PUSH1 0x0 PUSH2 0x33AB DUP8 ADDRESS PUSH2 0x384F JUMP JUMPDEST SWAP1 POP PUSH1 0x0 JUMPDEST DUP4 MLOAD MLOAD DUP2 LT ISZERO PUSH2 0x33FC JUMPI PUSH2 0x33F4 DUP5 PUSH1 0x0 ADD MLOAD DUP3 DUP2 MLOAD DUP2 LT PUSH2 0x33CD JUMPI INVALID JUMPDEST PUSH1 0x20 MUL PUSH1 0x20 ADD ADD MLOAD PUSH1 0x0 DUP7 PUSH1 0x20 ADD MLOAD DUP5 DUP2 MLOAD DUP2 LT PUSH2 0x33E7 JUMPI INVALID JUMPDEST PUSH1 0x20 MUL PUSH1 0x20 ADD ADD MLOAD PUSH2 0x38F9 JUMP JUMPDEST PUSH1 0x1 ADD PUSH2 0x33B0 JUMP JUMPDEST POP PUSH1 0x0 PUSH2 0x3409 DUP9 ADDRESS PUSH2 0x384F JUMP JUMPDEST SWAP1 POP PUSH1 0x0 PUSH2 0x3417 DUP3 DUP5 PUSH2 0x2DF9 JUMP JUMPDEST SWAP1 POP DUP1 DUP6 PUSH1 0x40 ADD MLOAD GT ISZERO PUSH2 0x342A JUMPI PUSH1 0x0 DUP1 REVERT JUMPDEST PUSH1 0x60 DUP6 ADD MLOAD PUSH1 0x40 MLOAD PUSH4 0x70A08231 PUSH1 0xE0 SHL DUP2 MSTORE PUSH1 0x0 SWAP2 PUSH1 0x1 PUSH1 0x1 PUSH1 0xA0 SHL SUB AND SWAP1 PUSH4 0x70A08231 SWAP1 PUSH2 0x345D SWAP1 ADDRESS SWAP1 PUSH1 0x4 ADD PUSH2 0x4940 JUMP JUMPDEST PUSH1 0x20 PUSH1 0x40 MLOAD DUP1 DUP4 SUB DUP2 DUP7 DUP1 EXTCODESIZE ISZERO DUP1 ISZERO PUSH2 0x3475 JUMPI PUSH1 0x0 DUP1 REVERT JUMPDEST POP GAS STATICCALL ISZERO DUP1 ISZERO PUSH2 0x3489 JUMPI RETURNDATASIZE PUSH1 0x0 DUP1 RETURNDATACOPY RETURNDATASIZE PUSH1 0x0 REVERT JUMPDEST POP POP POP POP PUSH1 0x40 MLOAD RETURNDATASIZE PUSH1 0x1F NOT PUSH1 0x1F DUP3 ADD AND DUP3 ADD DUP1 PUSH1 0x40 MSTORE POP DUP2 ADD SWAP1 PUSH2 0x34AD SWAP2 SWAP1 PUSH2 0x48AA JUMP JUMPDEST SWAP1 POP DUP5 DUP2 GT ISZERO PUSH2 0x34BC JUMPI PUSH1 0x0 DUP1 REVERT JUMPDEST PUSH2 0x34CB DUP7 PUSH1 0x60 ADD MLOAD DUP7 DUP4 PUSH2 0x3A36 JUMP JUMPDEST PUSH2 0x34D5 DUP9 DUP4 PUSH2 0x31A1 JUMP JUMPDEST SWAP8 POP PUSH2 0x34E6 DUP11 PUSH1 0x0 ADD MLOAD DUP6 DUP6 PUSH2 0x3A36 JUMP JUMPDEST POP POP PUSH1 0x1 SWAP1 SWAP5 ADD SWAP4 POP PUSH2 0x32FA SWAP3 POP POP POP JUMP JUMPDEST POP SWAP3 SWAP2 POP POP JUMP JUMPDEST PUSH1 0x0 DUP1 PUSH1 0x0 PUSH2 0x350D DUP6 PUSH2 0x3AB3 JUMP JUMPDEST SWAP2 SWAP5 POP SWAP3 POP SWAP1 POP DUP1 DUP5 GT DUP1 ISZERO PUSH2 0x3523 JUMPI POP PUSH1 0x0 DUP2 GT JUMPDEST DUP1 ISZERO PUSH2 0x352F JUMPI POP PUSH1 0x0 DUP4 GT JUMPDEST ISZERO PUSH2 0x358E JUMPI PUSH1 0x0 PUSH2 0x353F DUP7 PUSH2 0x1400 JUMP JUMPDEST POP POP POP SWAP2 POP POP PUSH1 0x0 PUSH2 0x356A PUSH2 0x3561 PUSH4 0x5F5E100 DUP5 PUSH2 0x2868 SWAP1 SWAP2 SWAP1 PUSH4 0xFFFFFFFF AND JUMP JUMPDEST DUP5 DUP9 SUB DUP8 PUSH2 0x3B0F JUMP JUMPDEST SWAP1 POP PUSH2 0x3576 DUP5 DUP3 PUSH2 0x31A1 JUMP JUMPDEST SWAP4 POP PUSH1 0x1 PUSH1 0x1 PUSH1 0x80 SHL SUB DUP5 LT PUSH2 0x358B JUMPI PUSH1 0x0 DUP1 REVERT JUMPDEST POP POP JUMPDEST SWAP3 POP SWAP3 POP SWAP3 JUMP JUMPDEST PUSH1 0x0 DUP1 PUSH2 0xA02 PUSH1 0x11 PUSH2 0x1DC6 JUMP JUMPDEST PUSH1 0x0 DUP1 DUP3 GT PUSH2 0x35B0 JUMPI PUSH1 0x0 DUP1 REVERT JUMPDEST DUP2 DUP4 DUP2 PUSH2 0x35B9 JUMPI INVALID JUMPDEST DIV SWAP4 SWAP3 POP POP POP JUMP JUMPDEST PUSH1 0x0 DUP1 PUSH2 0xA02 PUSH1 0x12 PUSH2 0x1DC6 JUMP JUMPDEST PUSH1 0x0 DUP1 DUP3 SLT ISZERO PUSH2 0x3607 JUMPI PUSH2 0x3602 PUSH1 0x1 PUSH2 0x35FC DUP6 PUSH1 0x20 ADD MLOAD PUSH2 0x20DD DUP8 PUSH1 0x0 ADD MLOAD DUP8 PUSH2 0x11EF SWAP1 SWAP2 SWAP1 PUSH4 0xFFFFFFFF AND JUMP JUMPDEST SWAP1 PUSH2 0x3B31 JUMP JUMPDEST PUSH2 0x10DA JUMP JUMPDEST POP SWAP2 SWAP1 POP JUMP JUMPDEST PUSH1 0x0 DUP2 DUP4 EQ DUP1 PUSH2 0x362A JUMPI POP PUSH1 0x0 DUP4 SLT ISZERO DUP1 ISZERO PUSH2 0x362A JUMPI POP PUSH1 0x0 DUP3 SLT ISZERO JUMPDEST ISZERO PUSH2 0x3637 JUMPI POP PUSH1 0x0 PUSH2 0xA02 JUMP JUMPDEST PUSH1 0x0 DUP4 SGT ISZERO DUP1 ISZERO PUSH2 0x3648 JUMPI POP DUP2 PUSH1 0x0 SLT JUMPDEST ISZERO PUSH2 0x3654 JUMPI POP DUP2 PUSH2 0xA02 JUMP JUMPDEST PUSH1 0x0 DUP3 SGT ISZERO DUP1 ISZERO PUSH2 0x3665 JUMPI POP DUP3 PUSH1 0x0 SLT JUMPDEST ISZERO PUSH2 0x3673 JUMPI PUSH2 0x28C3 DUP3 PUSH2 0x9F4 JUMP JUMPDEST PUSH1 0x0 DUP4 SGT ISZERO DUP1 ISZERO PUSH2 0x3685 JUMPI POP PUSH1 0x0 DUP3 SGT ISZERO JUMPDEST ISZERO PUSH2 0x9C JUMPI PUSH2 0x28C3 DUP4 DUP4 PUSH2 0x3B31 JUMP JUMPDEST DUP1 ISZERO PUSH2 0x9EE JUMPI DUP4 MLOAD PUSH1 0x20 DUP6 ADD MLOAD PUSH1 0x0 SWAP2 PUSH2 0x36B3 SWAP2 PUSH2 0x20DD SWAP1 DUP6 SWAP1 PUSH2 0x11EF JUMP JUMPDEST SWAP1 POP PUSH2 0x36C1 DUP5 DUP5 DUP5 DUP5 PUSH2 0x3B47 JUMP JUMPDEST POP POP POP POP POP JUMP JUMPDEST PUSH1 0x0 DUP1 PUSH2 0xA02 PUSH1 0x1F PUSH2 0x1DC6 JUMP JUMPDEST PUSH1 0x0 DUP1 PUSH1 0x0 DUP1 PUSH1 0x0 DUP6 PUSH1 0x20 ADD MLOAD GT ISZERO PUSH2 0x3722 JUMPI PUSH2 0x371F PUSH2 0x3706 DUP7 PUSH1 0xC0 ADD MLOAD DUP8 PUSH1 0x20 ADD MLOAD PUSH2 0x2868 SWAP1 SWAP2 SWAP1 PUSH4 0xFFFFFFFF AND JUMP JUMPDEST PUSH1 0xE0 DUP8 ADD MLOAD PUSH1 0x40 DUP9 ADD MLOAD PUSH2 0x3719 SWAP2 PUSH2 0x2868 JUMP JUMPDEST SWAP1 PUSH2 0x376F JUMP JUMPDEST SWAP1 POP JUMPDEST PUSH1 0x0 PUSH2 0x372D DUP8 PUSH2 0x3C84 JUMP JUMPDEST SWAP1 POP PUSH2 0x3739 DUP2 DUP4 PUSH2 0x3CB7 JUMP JUMPDEST SWAP5 POP DUP2 ISZERO PUSH2 0x3750 JUMPI PUSH2 0x374D DUP2 DUP7 PUSH1 0x1 PUSH2 0x3D6A JUMP JUMPDEST SWAP4 POP JUMPDEST PUSH1 0x20 DUP7 ADD MLOAD ISZERO PUSH2 0x358B JUMPI PUSH2 0x3764 DUP6 DUP4 PUSH2 0x3DDB JUMP JUMPDEST SWAP3 POP POP POP SWAP3 POP SWAP3 POP SWAP3 JUMP JUMPDEST PUSH1 0x0 PUSH2 0x10DA PUSH2 0x31CA DUP5 PUSH4 0x3B9ACA00 PUSH2 0x2868 JUMP JUMPDEST PUSH1 0x0 DUP1 PUSH2 0x378D PUSH2 0x288F JUMP JUMPDEST PUSH1 0x1 PUSH1 0x1 PUSH1 0xA0 SHL SUB DUP6 AND PUSH1 0x0 SWAP1 DUP2 MSTORE PUSH1 0x20 DUP3 DUP2 MSTORE PUSH1 0x40 DUP1 DUP4 KECCAK256 PUSH2 0xFFFF DUP9 AND DUP5 MSTORE SWAP1 SWAP2 MSTORE DUP2 KECCAK256 DUP1 SLOAD PUSH1 0x1 PUSH1 0xA8 SHL SWAP1 DIV PUSH1 0xA SWAP1 DUP2 SIGNEXTEND SWAP1 SIGNEXTEND SWAP5 POP SWAP2 SWAP3 POP DUP4 SLT ISZERO PUSH2 0x37D3 JUMPI PUSH1 0x0 DUP1 REVERT JUMPDEST POP POP SWAP3 SWAP2 POP POP JUMP JUMPDEST PUSH1 0x0 DUP2 SLT ISZERO PUSH2 0x37E9 JUMPI PUSH1 0x0 DUP1 REVERT JUMPDEST PUSH1 0x0 PUSH2 0x37F3 PUSH2 0x288F JUMP JUMPDEST PUSH1 0x1 PUSH1 0x1 PUSH1 0xA0 SHL SUB DUP6 AND PUSH1 0x0 SWAP1 DUP2 MSTORE PUSH1 0x20 DUP3 DUP2 MSTORE PUSH1 0x40 DUP1 DUP4 KECCAK256 PUSH2 0xFFFF DUP9 AND DUP5 MSTORE SWAP1 SWAP2 MSTORE SWAP1 KECCAK256 SWAP1 SWAP2 POP PUSH2 0x3824 DUP4 PUSH2 0x2D5A JUMP JUMPDEST DUP2 SLOAD PUSH1 0xA SWAP2 SWAP1 SWAP2 SIGNEXTEND PUSH1 0x1 PUSH1 0x1 PUSH1 0x58 SHL SUB AND PUSH1 0x1 PUSH1 0xA8 SHL MUL PUSH1 0x1 PUSH1 0x1 PUSH1 0xA8 SHL SUB SWAP1 SWAP2 AND OR SWAP1 SSTORE POP POP POP POP JUMP JUMPDEST PUSH1 0x0 PUSH1 0x3 DUP4 PUSH1 0x60 ADD MLOAD PUSH1 0x5 DUP2 GT ISZERO PUSH2 0x3863 JUMPI INVALID JUMPDEST EQ ISZERO PUSH2 0x387A JUMPI POP PUSH1 0x1 PUSH1 0x1 PUSH1 0xA0 SHL SUB DUP2 AND BALANCE PUSH2 0xA02 JUMP JUMPDEST DUP3 MLOAD PUSH1 0x40 MLOAD PUSH4 0x70A08231 PUSH1 0xE0 SHL DUP2 MSTORE PUSH1 0x1 PUSH1 0x1 PUSH1 0xA0 SHL SUB SWAP1 SWAP2 AND SWAP1 PUSH4 0x70A08231 SWAP1 PUSH2 0x38A9 SWAP1 DUP6 SWAP1 PUSH1 0x4 ADD PUSH2 0x4940 JUMP JUMPDEST PUSH1 0x20 PUSH1 0x40 MLOAD DUP1 DUP4 SUB DUP2 DUP7 DUP1 EXTCODESIZE ISZERO DUP1 ISZERO PUSH2 0x38C1 JUMPI PUSH1 0x0 DUP1 REVERT JUMPDEST POP GAS STATICCALL ISZERO DUP1 ISZERO PUSH2 0x38D5 JUMPI RETURNDATASIZE PUSH1 0x0 DUP1 RETURNDATACOPY RETURNDATASIZE PUSH1 0x0 REVERT JUMPDEST POP POP POP POP PUSH1 0x40 MLOAD RETURNDATASIZE PUSH1 0x1F NOT PUSH1 0x1F DUP3 ADD AND DUP3 ADD DUP1 PUSH1 0x40 MSTORE POP DUP2 ADD SWAP1 PUSH2 0x28C3 SWAP2 SWAP1 PUSH2 0x48AA JUMP JUMPDEST PUSH1 0x0 DUP1 DUP5 PUSH1 0x1 PUSH1 0x1 PUSH1 0xA0 SHL SUB AND DUP5 DUP5 PUSH1 0x40 MLOAD DUP1 DUP3 DUP1 MLOAD SWAP1 PUSH1 0x20 ADD SWAP1 DUP1 DUP4 DUP4 JUMPDEST PUSH1 0x20 DUP4 LT PUSH2 0x3937 JUMPI DUP1 MLOAD DUP3 MSTORE PUSH1 0x1F NOT SWAP1 SWAP3 ADD SWAP2 PUSH1 0x20 SWAP2 DUP3 ADD SWAP2 ADD PUSH2 0x3918 JUMP JUMPDEST PUSH1 0x1 DUP4 PUSH1 0x20 SUB PUSH2 0x100 EXP SUB DUP1 NOT DUP3 MLOAD AND DUP2 DUP5 MLOAD AND DUP1 DUP3 OR DUP6 MSTORE POP POP POP POP POP POP SWAP1 POP ADD SWAP2 POP POP PUSH1 0x0 PUSH1 0x40 MLOAD DUP1 DUP4 SUB DUP2 DUP6 DUP8 GAS CALL SWAP3 POP POP POP RETURNDATASIZE DUP1 PUSH1 0x0 DUP2 EQ PUSH2 0x3999 JUMPI PUSH1 0x40 MLOAD SWAP2 POP PUSH1 0x1F NOT PUSH1 0x3F RETURNDATASIZE ADD AND DUP3 ADD PUSH1 0x40 MSTORE RETURNDATASIZE DUP3 MSTORE RETURNDATASIZE PUSH1 0x0 PUSH1 0x20 DUP5 ADD RETURNDATACOPY PUSH2 0x399E JUMP JUMPDEST PUSH1 0x60 SWAP2 POP JUMPDEST POP SWAP2 POP SWAP2 POP DUP2 PUSH2 0x39AD DUP3 PUSH2 0x3DF4 JUMP JUMPDEST SWAP1 PUSH2 0xF05 JUMPI PUSH1 0x40 MLOAD PUSH3 0x461BCD PUSH1 0xE5 SHL DUP2 MSTORE PUSH1 0x4 ADD DUP1 DUP1 PUSH1 0x20 ADD DUP3 DUP2 SUB DUP3 MSTORE DUP4 DUP2 DUP2 MLOAD DUP2 MSTORE PUSH1 0x20 ADD SWAP2 POP DUP1 MLOAD SWAP1 PUSH1 0x20 ADD SWAP1 DUP1 DUP4 DUP4 PUSH1 0x0 JUMPDEST DUP4 DUP2 LT ISZERO PUSH2 0x39FB JUMPI DUP2 DUP2 ADD MLOAD DUP4 DUP3 ADD MSTORE PUSH1 0x20 ADD PUSH2 0x39E3 JUMP JUMPDEST POP POP POP POP SWAP1 POP SWAP1 DUP2 ADD SWAP1 PUSH1 0x1F AND DUP1 ISZERO PUSH2 0x3A28 JUMPI DUP1 DUP3 SUB DUP1 MLOAD PUSH1 0x1 DUP4 PUSH1 0x20 SUB PUSH2 0x100 EXP SUB NOT AND DUP2 MSTORE PUSH1 0x20 ADD SWAP2 POP JUMPDEST POP SWAP3 POP POP POP PUSH1 0x40 MLOAD DUP1 SWAP2 SUB SWAP1 REVERT JUMPDEST PUSH1 0x0 PUSH2 0x3A40 PUSH2 0x32E9 JUMP JUMPDEST PUSH1 0x1 PUSH1 0x1 PUSH1 0xA0 SHL SUB DUP6 AND PUSH1 0x0 SWAP1 DUP2 MSTORE PUSH1 0x20 DUP3 SWAP1 MSTORE PUSH1 0x40 SWAP1 KECCAK256 SLOAD SWAP1 SWAP2 POP DUP4 DUP2 GT ISZERO PUSH2 0x3A69 JUMPI PUSH1 0x0 DUP1 REVERT JUMPDEST PUSH1 0x0 PUSH2 0x3A80 PUSH2 0x3A77 DUP7 PUSH2 0xC7C JUMP JUMPDEST PUSH2 0x35FC DUP7 PUSH2 0xC7C JUMP JUMPDEST SWAP1 POP PUSH2 0x3A8F PUSH2 0x398 DUP4 DUP4 PUSH2 0x152B JUMP JUMPDEST PUSH1 0x1 PUSH1 0x1 PUSH1 0xA0 SHL SUB SWAP1 SWAP7 AND PUSH1 0x0 SWAP1 DUP2 MSTORE PUSH1 0x20 SWAP4 SWAP1 SWAP4 MSTORE POP POP PUSH1 0x40 SWAP1 KECCAK256 SWAP3 SWAP1 SWAP3 SSTORE POP POP JUMP JUMPDEST PUSH1 0x0 DUP1 PUSH1 0x0 DUP1 PUSH2 0x3AC1 PUSH2 0x3595 JUMP JUMPDEST PUSH1 0x1 PUSH1 0x1 PUSH1 0xA0 SHL SUB SWAP6 SWAP1 SWAP6 AND PUSH1 0x0 SWAP1 DUP2 MSTORE PUSH1 0x20 SWAP6 SWAP1 SWAP6 MSTORE POP POP PUSH1 0x40 SWAP1 SWAP3 KECCAK256 SLOAD PUSH1 0x1 PUSH1 0x1 PUSH1 0x60 SHL SUB DUP2 AND SWAP4 PUSH1 0x1 PUSH1 0x60 SHL DUP3 DIV PUSH1 0x1 PUSH1 0x1 PUSH1 0x80 SHL SUB AND SWAP4 POP PUSH1 0x1 PUSH1 0xE0 SHL SWAP1 SWAP2 DIV PUSH4 0xFFFFFFFF AND SWAP2 POP JUMP JUMPDEST PUSH1 0x0 PUSH2 0xA1B DUP3 PUSH2 0x2C40 PUSH4 0x1DA9C00 DUP2 DUP9 PUSH2 0x2C3A DUP10 PUSH8 0xDE0B6B3A7640000 PUSH2 0x2868 JUMP JUMPDEST DUP1 DUP3 SUB DUP3 DUP2 SGT ISZERO PUSH1 0x0 DUP4 SLT ISZERO EQ PUSH2 0xA02 JUMPI PUSH1 0x0 DUP1 REVERT JUMPDEST PUSH1 0x0 PUSH2 0x3B51 PUSH2 0x2096 JUMP JUMPDEST PUSH2 0xFFFF DUP6 AND PUSH1 0x0 SWAP1 DUP2 MSTORE PUSH1 0x20 SWAP2 SWAP1 SWAP2 MSTORE PUSH1 0x40 SWAP1 KECCAK256 DUP1 SLOAD SWAP1 SWAP2 POP PUSH5 0xFFFFFFFFFF AND TIMESTAMP EQ PUSH2 0x3B7C JUMPI PUSH1 0x0 DUP1 REVERT JUMPDEST DUP1 SLOAD PUSH1 0x1 PUSH1 0xF8 SHL SWAP1 DIV PUSH1 0xFF AND PUSH2 0x3B91 JUMPI PUSH1 0x0 DUP1 REVERT JUMPDEST PUSH1 0x1 DUP2 ADD SLOAD PUSH1 0x0 SWAP1 PUSH2 0x3BAC SWAP1 PUSH1 0x1 PUSH1 0x1 PUSH1 0x58 SHL SUB AND DUP6 PUSH2 0x152B JUMP JUMPDEST DUP3 SLOAD SWAP1 SWAP2 POP PUSH1 0x0 SWAP1 PUSH2 0x3BCE SWAP1 PUSH1 0x1 PUSH1 0x28 SHL SWAP1 DIV PUSH1 0x1 PUSH1 0x1 PUSH1 0x58 SHL SUB AND DUP6 PUSH2 0x152B JUMP JUMPDEST SWAP1 POP DUP2 PUSH1 0x9 NOT SLT DUP1 ISZERO PUSH2 0x3BE1 JUMPI POP PUSH1 0x0 DUP3 SLT JUMPDEST ISZERO PUSH2 0x3BEB JUMPI PUSH1 0x0 SWAP2 POP JUMPDEST DUP1 PUSH1 0x9 NOT SLT DUP1 ISZERO PUSH2 0x3BFC JUMPI POP PUSH1 0x0 DUP2 SLT JUMPDEST ISZERO PUSH2 0x3C05 JUMPI POP PUSH1 0x0 JUMPDEST PUSH2 0x3C11 PUSH2 0x2F64 DUP4 PUSH2 0xB40 JUMP JUMPDEST PUSH1 0x1 DUP5 ADD DUP1 SLOAD PUSH11 0xFFFFFFFFFFFFFFFFFFFFFF NOT AND PUSH1 0x1 PUSH1 0x1 PUSH1 0x58 SHL SUB SWAP3 SWAP1 SWAP3 AND SWAP2 SWAP1 SWAP2 OR SWAP1 SSTORE PUSH2 0x3C43 PUSH2 0x2F64 DUP3 PUSH2 0xB40 JUMP JUMPDEST DUP4 SLOAD PUSH1 0x1 PUSH1 0x1 PUSH1 0x58 SHL SUB SWAP2 SWAP1 SWAP2 AND PUSH1 0x1 PUSH1 0x28 SHL MUL PUSH16 0xFFFFFFFFFFFFFFFFFFFFFF0000000000 NOT SWAP1 SWAP2 AND OR DUP4 SSTORE PUSH2 0x3C7B DUP8 DUP8 DUP7 DUP9 PUSH2 0x3EFB JUMP JUMPDEST POP POP POP POP POP POP POP JUMP JUMPDEST PUSH2 0x3C8C PUSH2 0x428D JUMP JUMPDEST PUSH1 0x0 PUSH2 0x3C96 PUSH2 0x3FD5 JUMP JUMPDEST PUSH2 0xFFFF DUP5 AND PUSH1 0x0 SWAP1 DUP2 MSTORE PUSH1 0x20 SWAP2 SWAP1 SWAP2 MSTORE PUSH1 0x40 DUP2 KECCAK256 SLOAD SWAP2 POP PUSH2 0x905 SWAP1 DUP3 PUSH2 0x3FE2 JUMP JUMPDEST PUSH1 0x0 DUP1 DUP4 PUSH1 0x80 ADD MLOAD GT PUSH2 0x3CC9 JUMPI PUSH1 0x0 DUP1 REVERT JUMPDEST PUSH4 0x3B9ACA00 DUP3 GT ISZERO PUSH2 0x3CDA JUMPI PUSH1 0x0 DUP1 REVERT JUMPDEST DUP3 MLOAD DUP3 GT PUSH2 0x3CF9 JUMPI DUP3 MLOAD PUSH1 0x40 DUP5 ADD MLOAD PUSH2 0x28C3 SWAP2 SWAP1 PUSH2 0x2C40 SWAP1 DUP6 SWAP1 PUSH2 0x2868 JUMP JUMPDEST DUP3 PUSH1 0x20 ADD MLOAD DUP3 GT PUSH2 0x3D31 JUMPI PUSH1 0x40 DUP4 ADD MLOAD DUP4 MLOAD PUSH1 0x20 DUP6 ADD MLOAD PUSH1 0x60 DUP7 ADD MLOAD PUSH2 0x28C3 SWAP4 SWAP3 PUSH2 0x3275 SWAP3 DUP2 SWAP1 SUB SWAP2 PUSH2 0x2C40 SWAP2 DUP9 SUB SWAP1 DUP6 SWAP1 SUB PUSH2 0x2868 JUMP JUMPDEST PUSH2 0x10DA DUP4 PUSH1 0x60 ADD MLOAD PUSH2 0x3275 DUP6 PUSH1 0x20 ADD MLOAD PUSH4 0x3B9ACA00 SUB PUSH2 0x2C40 DUP8 PUSH1 0x60 ADD MLOAD DUP9 PUSH1 0x80 ADD MLOAD SUB DUP9 PUSH1 0x20 ADD MLOAD DUP9 SUB PUSH2 0x2868 SWAP1 SWAP2 SWAP1 PUSH4 0xFFFFFFFF AND JUMP JUMPDEST PUSH1 0x0 DUP1 PUSH2 0x3D89 PUSH1 0x64 PUSH2 0x2C40 DUP8 PUSH1 0xE0 ADD MLOAD DUP8 PUSH2 0x2868 SWAP1 SWAP2 SWAP1 PUSH4 0xFFFFFFFF AND JUMP JUMPDEST SWAP1 POP DUP5 PUSH1 0xA0 ADD MLOAD DUP2 LT ISZERO PUSH2 0x3D9E JUMPI POP PUSH1 0xA0 DUP5 ADD MLOAD JUMPDEST DUP5 PUSH1 0xC0 ADD MLOAD DUP2 GT ISZERO PUSH2 0x3DB1 JUMPI POP PUSH1 0xC0 DUP5 ADD MLOAD JUMPDEST DUP3 ISZERO PUSH2 0x3DC1 JUMPI PUSH2 0x10D5 DUP5 DUP3 PUSH2 0x31A1 JUMP JUMPDEST DUP4 DUP2 GT PUSH2 0x3DD0 JUMPI DUP1 DUP5 SUB PUSH2 0x10D5 JUMP JUMPDEST PUSH1 0x0 SWAP6 SWAP5 POP POP POP POP POP JUMP JUMPDEST PUSH1 0x0 PUSH2 0x10DA PUSH2 0x3DEA DUP5 DUP5 PUSH2 0x2868 JUMP JUMPDEST PUSH4 0x3B9ACA00 PUSH2 0x35A2 JUMP JUMPDEST PUSH1 0x60 PUSH1 0x44 DUP3 MLOAD LT ISZERO PUSH2 0x3E2A JUMPI POP PUSH1 0x40 DUP1 MLOAD DUP1 DUP3 ADD SWAP1 SWAP2 MSTORE PUSH1 0xD DUP2 MSTORE PUSH13 0x14DA5B195B9D0814995D995C9D PUSH1 0x9A SHL PUSH1 0x20 DUP3 ADD MSTORE PUSH2 0x909 JUMP JUMPDEST PUSH1 0x4 DUP3 ADD DUP1 MLOAD SWAP1 SWAP3 PUSH1 0x24 ADD SWAP1 PUSH1 0x20 DUP2 LT ISZERO PUSH2 0x3E44 JUMPI PUSH1 0x0 DUP1 REVERT JUMPDEST DUP2 ADD SWAP1 DUP1 DUP1 MLOAD PUSH1 0x40 MLOAD SWAP4 SWAP3 SWAP2 SWAP1 DUP5 PUSH5 0x100000000 DUP3 GT ISZERO PUSH2 0x3E64 JUMPI PUSH1 0x0 DUP1 REVERT JUMPDEST SWAP1 DUP4 ADD SWAP1 PUSH1 0x20 DUP3 ADD DUP6 DUP2 GT ISZERO PUSH2 0x3E79 JUMPI PUSH1 0x0 DUP1 REVERT JUMPDEST DUP3 MLOAD PUSH5 0x100000000 DUP2 GT DUP3 DUP3 ADD DUP9 LT OR ISZERO PUSH2 0x3E93 JUMPI PUSH1 0x0 DUP1 REVERT JUMPDEST DUP3 MSTORE POP DUP2 MLOAD PUSH1 0x20 SWAP2 DUP3 ADD SWAP3 SWAP1 SWAP2 ADD SWAP1 DUP1 DUP4 DUP4 PUSH1 0x0 JUMPDEST DUP4 DUP2 LT ISZERO PUSH2 0x3EC0 JUMPI DUP2 DUP2 ADD MLOAD DUP4 DUP3 ADD MSTORE PUSH1 0x20 ADD PUSH2 0x3EA8 JUMP JUMPDEST POP POP POP POP SWAP1 POP SWAP1 DUP2 ADD SWAP1 PUSH1 0x1F AND DUP1 ISZERO PUSH2 0x3EED JUMPI DUP1 DUP3 SUB DUP1 MLOAD PUSH1 0x1 DUP4 PUSH1 0x20 SUB PUSH2 0x100 EXP SUB NOT AND DUP2 MSTORE PUSH1 0x20 ADD SWAP2 POP JUMPDEST POP PUSH1 0x40 MSTORE POP POP POP SWAP1 POP SWAP2 SWAP1 POP JUMP JUMPDEST PUSH1 0x0 PUSH2 0x3F05 PUSH2 0x15BA JUMP JUMPDEST PUSH2 0xFFFF DUP6 AND PUSH1 0x0 SWAP1 DUP2 MSTORE PUSH1 0x20 SWAP2 SWAP1 SWAP2 MSTORE PUSH1 0x40 DUP2 KECCAK256 SLOAD PUSH1 0x1 PUSH1 0x1 PUSH1 0xA0 SHL SUB AND SWAP2 POP PUSH2 0x3F2D PUSH2 0x4101 JUMP JUMPDEST PUSH2 0xFFFF DUP7 AND PUSH1 0x0 SWAP1 DUP2 MSTORE PUSH1 0x20 SWAP2 SWAP1 SWAP2 MSTORE PUSH1 0x40 SWAP1 DUP2 SWAP1 KECCAK256 SLOAD SWAP1 MLOAD PUSH4 0xAD1C095D PUSH1 0xE0 SHL DUP2 MSTORE PUSH1 0x1 PUSH1 0x1 PUSH1 0xA0 SHL SUB SWAP1 SWAP2 AND SWAP2 POP DUP2 SWAP1 PUSH4 0xAD1C095D SWAP1 PUSH2 0x3F75 SWAP1 DUP10 SWAP1 DUP8 SWAP1 PUSH1 0x4 ADD PUSH2 0x4A57 JUMP JUMPDEST PUSH1 0x0 PUSH1 0x40 MLOAD DUP1 DUP4 SUB DUP2 PUSH1 0x0 DUP8 DUP1 EXTCODESIZE ISZERO DUP1 ISZERO PUSH2 0x3F8F JUMPI PUSH1 0x0 DUP1 REVERT JUMPDEST POP GAS CALL ISZERO DUP1 ISZERO PUSH2 0x3FA3 JUMPI RETURNDATASIZE PUSH1 0x0 DUP1 RETURNDATACOPY RETURNDATASIZE PUSH1 0x0 REVERT JUMPDEST POP POP PUSH1 0x40 MLOAD PUSH4 0xAD1C095D PUSH1 0xE0 SHL DUP2 MSTORE PUSH1 0x1 PUSH1 0x1 PUSH1 0xA0 SHL SUB DUP6 AND SWAP3 POP PUSH4 0xAD1C095D SWAP2 POP PUSH2 0xED2 SWAP1 DUP10 SWAP1 DUP9 SWAP1 PUSH1 0x4 ADD PUSH2 0x4A57 JUMP JUMPDEST PUSH1 0x0 DUP1 PUSH2 0xA02 PUSH1 0x1B PUSH2 0x1DC6 JUMP JUMPDEST PUSH2 0x3FEA PUSH2 0x428D JUMP JUMPDEST PUSH1 0x64 PUSH4 0x3B9ACA00 DUP4 PUSH1 0xFF DUP7 AND PUSH1 0x20 DUP2 LT PUSH2 0x4000 JUMPI INVALID JUMPDEST BYTE MUL DUP2 PUSH2 0x4009 JUMPI INVALID JUMPDEST DIV DUP2 MSTORE PUSH1 0x64 PUSH4 0x3B9ACA00 DUP4 PUSH1 0xFF DUP7 AND PUSH1 0x1 ADD PUSH1 0x20 DUP2 LT PUSH2 0x4025 JUMPI INVALID JUMPDEST BYTE MUL DUP2 PUSH2 0x402E JUMPI INVALID JUMPDEST DIV DUP2 PUSH1 0x20 ADD DUP2 DUP2 MSTORE POP POP PUSH2 0x4053 DUP3 PUSH1 0x2 DUP6 PUSH1 0xFF AND ADD PUSH1 0x20 DUP2 LT PUSH2 0x404D JUMPI INVALID JUMPDEST BYTE PUSH2 0x410E JUMP JUMPDEST PUSH1 0x80 DUP3 ADD DUP2 SWAP1 MSTORE PUSH2 0x100 SWAP1 DUP4 PUSH1 0xFF DUP7 AND PUSH1 0x3 ADD PUSH1 0x20 DUP2 LT PUSH2 0x4070 JUMPI INVALID JUMPDEST BYTE MUL DUP2 PUSH2 0x4079 JUMPI INVALID JUMPDEST DIV PUSH1 0x40 DUP3 ADD MSTORE PUSH1 0x80 DUP2 ADD MLOAD PUSH2 0x100 SWAP1 DUP4 PUSH1 0xFF DUP7 AND PUSH1 0x4 ADD PUSH1 0x20 DUP2 LT PUSH2 0x409A JUMPI INVALID JUMPDEST BYTE MUL DUP2 PUSH2 0x40A3 JUMPI INVALID JUMPDEST DIV PUSH1 0x60 DUP3 ADD MSTORE PUSH3 0x7A120 DUP3 PUSH1 0xFF DUP6 AND PUSH1 0x5 ADD PUSH1 0x20 DUP2 LT PUSH2 0x40BF JUMPI INVALID JUMPDEST BYTE MUL PUSH1 0xA0 DUP3 ADD MSTORE PUSH3 0x2625A0 DUP3 PUSH1 0xFF DUP6 AND PUSH1 0x6 ADD PUSH1 0x20 DUP2 LT PUSH2 0x40DC JUMPI INVALID JUMPDEST BYTE MUL PUSH1 0xC0 DUP3 ADD MSTORE DUP2 PUSH1 0xFF DUP5 AND PUSH1 0x7 ADD PUSH1 0x20 DUP2 LT PUSH2 0x40F5 JUMPI INVALID JUMPDEST BYTE PUSH1 0xE0 DUP3 ADD MSTORE SWAP3 SWAP2 POP POP JUMP JUMPDEST PUSH1 0x0 DUP1 PUSH2 0xA02 PUSH1 0x22 PUSH2 0x1DC6 JUMP JUMPDEST PUSH1 0x0 DUP2 PUSH1 0xFF AND PUSH1 0x96 LT PUSH2 0x4129 JUMPI PUSH1 0xFF DUP3 AND PUSH3 0x2625A0 MUL PUSH2 0xA02 JUMP JUMPDEST POP PUSH1 0x95 NOT PUSH1 0xFF SWAP2 SWAP1 SWAP2 AND ADD PUSH3 0xE4E1C0 MUL PUSH4 0x165A0BC0 ADD SWAP1 JUMP JUMPDEST PUSH1 0x40 MLOAD DUP1 PUSH2 0x140 ADD PUSH1 0x40 MSTORE DUP1 PUSH1 0x0 PUSH2 0xFFFF AND DUP2 MSTORE PUSH1 0x20 ADD PUSH1 0x0 DUP2 MSTORE PUSH1 0x20 ADD PUSH1 0x0 DUP2 MSTORE PUSH1 0x20 ADD PUSH1 0x0 DUP2 MSTORE PUSH1 0x20 ADD PUSH1 0x0 DUP2 MSTORE PUSH1 0x20 ADD PUSH1 0x0 DUP2 MSTORE PUSH1 0x20 ADD PUSH1 0x0 DUP2 MSTORE PUSH1 0x20 ADD PUSH1 0x0 DUP2 MSTORE PUSH1 0x20 ADD PUSH1 0x0 DUP2 MSTORE PUSH1 0x20 ADD PUSH2 0x4199 PUSH2 0x41D3 JUMP JUMPDEST SWAP1 MSTORE SWAP1 JUMP JUMPDEST PUSH1 0x40 DUP1 MLOAD PUSH1 0xC0 DUP2 ADD DUP3 MSTORE PUSH1 0x0 DUP1 DUP3 MSTORE PUSH1 0x20 DUP3 ADD DUP2 SWAP1 MSTORE SWAP2 DUP2 ADD DUP3 SWAP1 MSTORE PUSH1 0x60 DUP2 ADD DUP3 SWAP1 MSTORE PUSH1 0x80 DUP2 ADD DUP3 SWAP1 MSTORE PUSH1 0xA0 DUP2 ADD SWAP2 SWAP1 SWAP2 MSTORE SWAP1 JUMP JUMPDEST PUSH1 0x40 MLOAD DUP1 PUSH1 0x60 ADD PUSH1 0x40 MSTORE DUP1 PUSH1 0x0 DUP2 MSTORE PUSH1 0x20 ADD PUSH1 0x0 DUP2 MSTORE PUSH1 0x20 ADD PUSH1 0x0 DUP2 MSTORE POP SWAP1 JUMP JUMPDEST PUSH1 0x40 DUP1 MLOAD PUSH1 0xA0 DUP2 ADD DUP3 MSTORE PUSH1 0x0 DUP1 DUP3 MSTORE PUSH1 0x20 DUP3 ADD DUP2 SWAP1 MSTORE SWAP2 DUP2 ADD DUP3 SWAP1 MSTORE SWAP1 PUSH1 0x60 DUP3 ADD SWAP1 DUP2 MSTORE PUSH1 0x20 ADD PUSH1 0x0 DUP2 MSTORE POP SWAP1 JUMP JUMPDEST PUSH1 0x40 MLOAD DUP1 PUSH2 0x120 ADD PUSH1 0x40 MSTORE DUP1 PUSH1 0x0 DUP2 MSTORE PUSH1 0x20 ADD PUSH1 0x0 DUP2 MSTORE PUSH1 0x20 ADD PUSH1 0x0 DUP2 MSTORE PUSH1 0x20 ADD PUSH1 0x0 DUP2 MSTORE PUSH1 0x20 ADD PUSH1 0x0 DUP2 MSTORE PUSH1 0x20 ADD PUSH1 0x0 DUP2 MSTORE PUSH1 0x20 ADD PUSH1 0x0 DUP2 MSTORE PUSH1 0x20 ADD PUSH1 0x0 DUP2 MSTORE PUSH1 0x20 ADD PUSH1 0x0 DUP2 MSTORE POP SWAP1 JUMP JUMPDEST PUSH1 0x40 MLOAD DUP1 PUSH1 0x20 ADD PUSH1 0x40 MSTORE DUP1 PUSH1 0x1 SWAP1 PUSH1 0x20 DUP3 MUL DUP1 CALLDATASIZE DUP4 CALLDATACOPY POP SWAP2 SWAP3 SWAP2 POP POP JUMP JUMPDEST PUSH1 0x40 MLOAD DUP1 PUSH2 0x100 ADD PUSH1 0x40 MSTORE DUP1 PUSH1 0x0 DUP2 MSTORE PUSH1 0x20 ADD PUSH1 0x0 DUP2 MSTORE PUSH1 0x20 ADD PUSH1 0x0 DUP2 MSTORE PUSH1 0x20 ADD PUSH1 0x0 DUP2 MSTORE PUSH1 0x20 ADD PUSH1 0x0 DUP2 MSTORE PUSH1 0x20 ADD PUSH1 0x0 DUP2 MSTORE PUSH1 0x20 ADD PUSH1 0x0 DUP2 MSTORE PUSH1 0x20 ADD PUSH1 0x0 DUP2 MSTORE POP SWAP1 JUMP JUMPDEST DUP1 MLOAD PUSH2 0x909 DUP2 PUSH2 0x4DCF JUMP JUMPDEST PUSH1 0x0 DUP3 PUSH1 0x1F DUP4 ADD SLT PUSH2 0x42ED JUMPI DUP1 DUP2 REVERT JUMPDEST DUP2 MLOAD PUSH1 0x20 PUSH2 0x4302 PUSH2 0x42FD DUP4 PUSH2 0x4DB1 JUMP JUMPDEST PUSH2 0x4D8D JUMP JUMPDEST DUP3 DUP2 MSTORE DUP2 DUP2 ADD SWAP1 DUP6 DUP4 ADD DUP4 DUP6 MUL DUP8 ADD DUP5 ADD DUP9 LT ISZERO PUSH2 0x431E JUMPI DUP6 DUP7 REVERT JUMPDEST DUP6 JUMPDEST DUP6 DUP2 LT ISZERO PUSH2 0x4345 JUMPI DUP2 MLOAD PUSH2 0x4333 DUP2 PUSH2 0x4DCF JUMP JUMPDEST DUP5 MSTORE SWAP3 DUP5 ADD SWAP3 SWAP1 DUP5 ADD SWAP1 PUSH1 0x1 ADD PUSH2 0x4320 JUMP JUMPDEST POP SWAP1 SWAP8 SWAP7 POP POP POP POP POP POP POP JUMP JUMPDEST PUSH1 0x0 PUSH1 0x1F DUP4 DUP2 DUP5 ADD SLT PUSH2 0x4363 JUMPI DUP2 DUP3 REVERT JUMPDEST DUP3 MLOAD PUSH1 0x20 PUSH2 0x4373 PUSH2 0x42FD DUP4 PUSH2 0x4DB1 JUMP JUMPDEST DUP3 DUP2 MSTORE DUP2 DUP2 ADD SWAP1 DUP7 DUP4 ADD DUP7 JUMPDEST DUP6 DUP2 LT ISZERO PUSH2 0x4417 JUMPI DUP2 MLOAD DUP10 ADD DUP11 PUSH1 0x3F DUP3 ADD SLT PUSH2 0x4399 JUMPI DUP9 DUP10 REVERT JUMPDEST DUP6 DUP2 ADD MLOAD PUSH8 0xFFFFFFFFFFFFFFFF DUP2 GT ISZERO PUSH2 0x43AF JUMPI INVALID JUMPDEST PUSH2 0x43C0 DUP2 DUP11 ADD PUSH1 0x1F NOT AND DUP9 ADD PUSH2 0x4D8D JUMP JUMPDEST DUP2 DUP2 MSTORE DUP13 PUSH1 0x40 DUP4 DUP6 ADD ADD GT ISZERO PUSH2 0x43D4 JUMPI DUP11 DUP12 REVERT JUMPDEST DUP11 JUMPDEST DUP3 DUP2 LT ISZERO PUSH2 0x43F2 JUMPI DUP4 DUP2 ADD PUSH1 0x40 ADD MLOAD DUP3 DUP3 ADD DUP11 ADD MSTORE DUP9 ADD PUSH2 0x43D6 JUMP JUMPDEST DUP3 DUP2 GT ISZERO PUSH2 0x4402 JUMPI DUP12 DUP10 DUP5 DUP5 ADD ADD MSTORE JUMPDEST POP DUP7 MSTORE POP POP SWAP3 DUP5 ADD SWAP3 SWAP1 DUP5 ADD SWAP1 PUSH1 0x1 ADD PUSH2 0x437F JUMP JUMPDEST POP SWAP1 SWAP9 SWAP8 POP POP POP POP POP POP POP POP JUMP JUMPDEST DUP1 MLOAD PUSH2 0x909 DUP2 PUSH2 0x4DE7 JUMP JUMPDEST DUP1 MLOAD PUSH1 0x1 PUSH1 0x1 PUSH1 0x70 SHL SUB NOT DUP2 AND DUP2 EQ PUSH2 0x909 JUMPI PUSH1 0x0 DUP1 REVERT JUMPDEST DUP1 MLOAD PUSH1 0x1 PUSH1 0x1 PUSH1 0xF8 SHL SUB NOT DUP2 AND DUP2 EQ PUSH2 0x909 JUMPI PUSH1 0x0 DUP1 REVERT JUMPDEST DUP1 MLOAD PUSH1 0x4 DUP2 LT PUSH2 0x909 JUMPI PUSH1 0x0 DUP1 REVERT JUMPDEST DUP1 MLOAD PUSH2 0x909 DUP2 PUSH2 0x4DF5 JUMP JUMPDEST DUP1 MLOAD PUSH1 0xFF DUP2 AND DUP2 EQ PUSH2 0x909 JUMPI PUSH1 0x0 DUP1 REVERT JUMPDEST PUSH1 0x0 PUSH1 0x20 DUP3 DUP5 SUB SLT ISZERO PUSH2 0x449C JUMPI DUP1 DUP2 REVERT JUMPDEST DUP2 CALLDATALOAD PUSH2 0x10DA DUP2 PUSH2 0x4DCF JUMP JUMPDEST PUSH1 0x0 DUP1 PUSH1 0x0 PUSH1 0x60 DUP5 DUP7 SUB SLT ISZERO PUSH2 0x44BB JUMPI DUP2 DUP3 REVERT JUMPDEST DUP4 CALLDATALOAD PUSH2 0x44C6 DUP2 PUSH2 0x4DCF JUMP JUMPDEST SWAP3 POP PUSH1 0x20 DUP5 ADD CALLDATALOAD PUSH2 0x44D6 DUP2 PUSH2 0x4DF5 JUMP JUMPDEST SWAP3 SWAP6 SWAP3 SWAP5 POP POP POP PUSH1 0x40 SWAP2 SWAP1 SWAP2 ADD CALLDATALOAD SWAP1 JUMP JUMPDEST PUSH1 0x0 DUP1 PUSH1 0x0 DUP1 PUSH1 0x0 PUSH1 0xA0 DUP7 DUP9 SUB SLT ISZERO PUSH2 0x44FE JUMPI DUP3 DUP4 REVERT JUMPDEST DUP6 CALLDATALOAD PUSH2 0x4509 DUP2 PUSH2 0x4DCF JUMP JUMPDEST SWAP5 POP PUSH1 0x20 DUP7 ADD CALLDATALOAD PUSH2 0x4519 DUP2 PUSH2 0x4DF5 JUMP JUMPDEST SWAP4 POP PUSH1 0x40 DUP7 ADD CALLDATALOAD PUSH1 0x1 PUSH1 0x1 PUSH1 0x60 SHL SUB DUP2 AND DUP2 EQ PUSH2 0x4534 JUMPI DUP4 DUP5 REVERT JUMPDEST SWAP3 POP PUSH1 0x60 DUP7 ADD CALLDATALOAD PUSH2 0x4544 DUP2 PUSH2 0x4DE7 JUMP JUMPDEST SWAP2 POP PUSH1 0x80 DUP7 ADD CALLDATALOAD PUSH2 0x4554 DUP2 PUSH2 0x4DE7 JUMP JUMPDEST DUP1 SWAP2 POP POP SWAP3 SWAP6 POP SWAP3 SWAP6 SWAP1 SWAP4 POP JUMP JUMPDEST PUSH1 0x0 PUSH1 0x20 DUP1 DUP4 DUP6 SUB SLT ISZERO PUSH2 0x4574 JUMPI DUP2 DUP3 REVERT JUMPDEST DUP3 MLOAD PUSH8 0xFFFFFFFFFFFFFFFF DUP1 DUP3 GT ISZERO PUSH2 0x458B JUMPI DUP4 DUP5 REVERT JUMPDEST DUP2 DUP6 ADD SWAP2 POP DUP6 PUSH1 0x1F DUP4 ADD SLT PUSH2 0x459E JUMPI DUP4 DUP5 REVERT JUMPDEST DUP2 MLOAD PUSH2 0x45AC PUSH2 0x42FD DUP3 PUSH2 0x4DB1 JUMP JUMPDEST DUP2 DUP2 MSTORE DUP5 DUP2 ADD SWAP1 DUP5 DUP7 ADD DUP8 JUMPDEST DUP5 DUP2 LT ISZERO PUSH2 0x4661 JUMPI DUP2 MLOAD DUP8 ADD PUSH1 0x80 DUP2 DUP14 SUB PUSH1 0x1F NOT ADD SLT ISZERO PUSH2 0x45D7 JUMPI DUP10 DUP11 REVERT JUMPDEST PUSH1 0x40 DUP1 MLOAD PUSH1 0x80 DUP2 ADD DUP2 DUP2 LT DUP11 DUP3 GT OR ISZERO PUSH2 0x45ED JUMPI INVALID JUMPDEST DUP3 MSTORE DUP3 DUP12 ADD MLOAD DUP10 DUP2 GT ISZERO PUSH2 0x45FF JUMPI DUP13 DUP14 REVERT JUMPDEST PUSH2 0x460D DUP16 DUP14 DUP4 DUP8 ADD ADD PUSH2 0x42DD JUMP JUMPDEST DUP3 MSTORE POP DUP2 DUP4 ADD MLOAD DUP10 DUP2 GT ISZERO PUSH2 0x4620 JUMPI DUP13 DUP14 REVERT JUMPDEST PUSH2 0x462E DUP16 DUP14 DUP4 DUP8 ADD ADD PUSH2 0x4352 JUMP JUMPDEST DUP13 DUP4 ADD MSTORE POP PUSH1 0x60 DUP4 ADD MLOAD DUP3 DUP3 ADD MSTORE PUSH2 0x4648 PUSH1 0x80 DUP5 ADD PUSH2 0x42D2 JUMP JUMPDEST PUSH1 0x60 DUP3 ADD MSTORE DUP7 MSTORE POP POP SWAP3 DUP8 ADD SWAP3 SWAP1 DUP8 ADD SWAP1 PUSH1 0x1 ADD PUSH2 0x45B8 JUMP JUMPDEST POP SWAP1 SWAP10 SWAP9 POP POP POP POP POP POP POP POP POP JUMP JUMPDEST PUSH1 0x0 PUSH1 0x20 DUP3 DUP5 SUB SLT ISZERO PUSH2 0x4681 JUMPI DUP1 DUP2 REVERT JUMPDEST DUP2 CALLDATALOAD PUSH2 0x10DA DUP2 PUSH2 0x4DE7 JUMP JUMPDEST PUSH1 0x0 DUP1 PUSH1 0x40 DUP1 DUP5 DUP7 SUB SLT ISZERO PUSH2 0x469F JUMPI DUP3 DUP4 REVERT JUMPDEST DUP4 MLOAD SWAP3 POP PUSH1 0x20 DUP1 DUP6 ADD MLOAD PUSH8 0xFFFFFFFFFFFFFFFF DUP1 DUP3 GT ISZERO PUSH2 0x46BE JUMPI DUP5 DUP6 REVERT JUMPDEST DUP2 DUP8 ADD SWAP2 POP DUP8 PUSH1 0x1F DUP4 ADD SLT PUSH2 0x46D1 JUMPI DUP5 DUP6 REVERT JUMPDEST DUP2 MLOAD PUSH2 0x46DF PUSH2 0x42FD DUP3 PUSH2 0x4DB1 JUMP JUMPDEST DUP2 DUP2 MSTORE DUP5 DUP2 ADD SWAP1 DUP5 DUP7 ADD PUSH1 0xC0 DUP1 DUP6 MUL DUP8 ADD DUP9 ADD DUP14 LT ISZERO PUSH2 0x46FD JUMPI DUP10 DUP11 REVERT JUMPDEST DUP10 SWAP7 POP JUMPDEST DUP5 DUP8 LT ISZERO PUSH2 0x4784 JUMPI DUP1 DUP3 DUP15 SUB SLT ISZERO PUSH2 0x4717 JUMPI DUP10 DUP11 REVERT JUMPDEST DUP9 MLOAD DUP2 DUP2 ADD DUP2 DUP2 LT DUP9 DUP3 GT OR ISZERO PUSH2 0x472A JUMPI INVALID JUMPDEST DUP11 MSTORE DUP3 MLOAD PUSH2 0x4737 DUP2 PUSH2 0x4DF5 JUMP JUMPDEST DUP2 MSTORE DUP3 DUP10 ADD MLOAD DUP10 DUP3 ADD MSTORE DUP10 DUP4 ADD MLOAD DUP11 DUP3 ADD MSTORE PUSH1 0x60 DUP1 DUP5 ADD MLOAD SWAP1 DUP3 ADD MSTORE PUSH1 0x80 DUP1 DUP5 ADD MLOAD SWAP1 DUP3 ADD MSTORE PUSH1 0xA0 PUSH2 0x476A DUP2 DUP6 ADD PUSH2 0x4460 JUMP JUMPDEST SWAP1 DUP3 ADD MSTORE DUP5 MSTORE PUSH1 0x1 SWAP7 SWAP1 SWAP7 ADD SWAP6 SWAP3 DUP8 ADD SWAP3 SWAP1 DUP2 ADD SWAP1 PUSH2 0x4701 JUMP JUMPDEST POP SWAP9 SWAP12 SWAP1 SWAP11 POP SWAP9 POP POP POP POP POP POP POP POP POP JUMP JUMPDEST PUSH1 0x0 PUSH1 0xC0 DUP3 DUP5 SUB SLT ISZERO PUSH2 0x47A7 JUMPI DUP1 DUP2 REVERT JUMPDEST PUSH1 0x40 MLOAD PUSH1 0xC0 DUP2 ADD DUP2 DUP2 LT PUSH8 0xFFFFFFFFFFFFFFFF DUP3 GT OR ISZERO PUSH2 0x47C4 JUMPI INVALID JUMPDEST PUSH1 0x40 MSTORE DUP3 MLOAD PUSH5 0xFFFFFFFFFF DUP2 AND DUP2 EQ PUSH2 0x47DB JUMPI DUP3 DUP4 REVERT JUMPDEST DUP2 MSTORE PUSH2 0x47E9 PUSH1 0x20 DUP5 ADD PUSH2 0x4448 JUMP JUMPDEST PUSH1 0x20 DUP3 ADD MSTORE PUSH2 0x47FA PUSH1 0x40 DUP5 ADD PUSH2 0x447A JUMP JUMPDEST PUSH1 0x40 DUP3 ADD MSTORE PUSH2 0x480B PUSH1 0x60 DUP5 ADD PUSH2 0x446F JUMP JUMPDEST PUSH1 0x60 DUP3 ADD MSTORE PUSH2 0x481C PUSH1 0x80 DUP5 ADD PUSH2 0x4430 JUMP JUMPDEST PUSH1 0x80 DUP3 ADD MSTORE PUSH2 0x482D PUSH1 0xA0 DUP5 ADD PUSH2 0x4425 JUMP JUMPDEST PUSH1 0xA0 DUP3 ADD MSTORE SWAP4 SWAP3 POP POP POP JUMP JUMPDEST PUSH1 0x0 PUSH1 0x20 DUP3 DUP5 SUB SLT ISZERO PUSH2 0x484A JUMPI DUP1 DUP2 REVERT JUMPDEST DUP2 CALLDATALOAD PUSH2 0x10DA DUP2 PUSH2 0x4DF5 JUMP JUMPDEST PUSH1 0x0 DUP1 PUSH1 0x0 PUSH1 0x60 DUP5 DUP7 SUB SLT ISZERO PUSH2 0x4869 JUMPI DUP1 DUP2 REVERT JUMPDEST DUP4 CALLDATALOAD PUSH2 0x4874 DUP2 PUSH2 0x4DF5 JUMP JUMPDEST SWAP3 POP PUSH1 0x20 DUP5 ADD CALLDATALOAD PUSH1 0x1 PUSH1 0x1 PUSH1 0x58 SHL SUB DUP2 AND DUP2 EQ PUSH2 0x488F JUMPI DUP2 DUP3 REVERT JUMPDEST SWAP2 POP PUSH1 0x40 DUP5 ADD CALLDATALOAD PUSH2 0x489F DUP2 PUSH2 0x4DE7 JUMP JUMPDEST DUP1 SWAP2 POP POP SWAP3 POP SWAP3 POP SWAP3 JUMP JUMPDEST PUSH1 0x0 PUSH1 0x20 DUP3 DUP5 SUB SLT ISZERO PUSH2 0x48BB JUMPI DUP1 DUP2 REVERT JUMPDEST POP MLOAD SWAP2 SWAP1 POP JUMP JUMPDEST PUSH1 0x0 DUP1 PUSH1 0x40 DUP4 DUP6 SUB SLT ISZERO PUSH2 0x48D4 JUMPI DUP2 DUP3 REVERT JUMPDEST POP POP DUP1 MLOAD PUSH1 0x20 SWAP1 SWAP2 ADD MLOAD SWAP1 SWAP3 SWAP1 SWAP2 POP JUMP JUMPDEST DUP1 MLOAD PUSH5 0xFFFFFFFFFF AND DUP3 MSTORE PUSH1 0x20 DUP1 DUP3 ADD MLOAD PUSH1 0x1 PUSH1 0x1 PUSH1 0xF8 SHL SUB NOT AND SWAP1 DUP4 ADD MSTORE PUSH1 0x40 DUP1 DUP3 ADD MLOAD PUSH1 0xFF AND SWAP1 DUP4 ADD MSTORE PUSH1 0x60 DUP1 DUP3 ADD MLOAD PUSH2 0xFFFF AND SWAP1 DUP4 ADD MSTORE PUSH1 0x80 DUP1 DUP3 ADD MLOAD PUSH1 0x1 PUSH1 0x1 PUSH1 0x70 SHL SUB NOT AND SWAP1 DUP4 ADD MSTORE PUSH1 0xA0 SWAP1 DUP2 ADD MLOAD ISZERO ISZERO SWAP2 ADD MSTORE JUMP JUMPDEST PUSH1 0x1 PUSH1 0x1 PUSH1 0xA0 SHL SUB SWAP2 SWAP1 SWAP2 AND DUP2 MSTORE PUSH1 0x20 ADD SWAP1 JUMP JUMPDEST PUSH1 0x1 PUSH1 0x1 PUSH1 0xA0 SHL SUB SWAP5 DUP6 AND DUP2 MSTORE SWAP3 DUP5 AND PUSH1 0x20 DUP5 ADD MSTORE SWAP1 DUP4 AND PUSH1 0x40 DUP4 ADD MSTORE SWAP1 SWAP2 AND PUSH1 0x60 DUP3 ADD MSTORE PUSH1 0x80 ADD SWAP1 JUMP JUMPDEST PUSH1 0x0 PUSH2 0x120 DUP1 DUP4 ADD PUSH1 0x1 DUP1 PUSH1 0xA0 SHL SUB DUP1 DUP10 AND DUP6 MSTORE PUSH1 0x20 DUP2 DUP10 AND DUP2 DUP8 ADD MSTORE PUSH1 0x40 SWAP2 POP PUSH2 0x49AC DUP3 DUP8 ADD DUP10 PUSH2 0x48E5 JUMP JUMPDEST PUSH2 0x100 DUP7 ADD SWAP4 SWAP1 SWAP4 MSTORE DUP6 MLOAD SWAP2 DUP3 SWAP1 MSTORE PUSH2 0x140 DUP6 ADD SWAP3 DUP1 DUP8 ADD SWAP3 DUP6 JUMPDEST DUP2 DUP2 LT ISZERO PUSH2 0x4A23 JUMPI DUP5 MLOAD DUP1 MLOAD PUSH2 0xFFFF AND DUP8 MSTORE DUP4 DUP2 ADD MLOAD DUP5 DUP9 ADD MSTORE DUP5 DUP2 ADD MLOAD DUP6 DUP9 ADD MSTORE PUSH1 0x60 DUP1 DUP3 ADD MLOAD SWAP1 DUP9 ADD MSTORE PUSH1 0x80 DUP1 DUP3 ADD MLOAD SWAP1 DUP9 ADD MSTORE PUSH1 0xA0 SWAP1 DUP2 ADD MLOAD SWAP1 PUSH1 0x4 DUP3 LT PUSH2 0x4A0E JUMPI INVALID JUMPDEST DUP8 ADD MSTORE PUSH1 0xC0 SWAP1 SWAP6 ADD SWAP5 SWAP4 DUP3 ADD SWAP4 PUSH1 0x1 ADD PUSH2 0x49C7 JUMP JUMPDEST POP SWAP4 SWAP11 SWAP10 POP POP POP POP POP POP POP POP POP POP JUMP JUMPDEST PUSH1 0x1 PUSH1 0x1 PUSH1 0xA0 SHL SUB SWAP4 DUP5 AND DUP2 MSTORE SWAP2 SWAP1 SWAP3 AND PUSH1 0x20 DUP3 ADD MSTORE PUSH1 0x40 DUP2 ADD SWAP2 SWAP1 SWAP2 MSTORE PUSH1 0x60 ADD SWAP1 JUMP JUMPDEST PUSH1 0x1 PUSH1 0x1 PUSH1 0xA0 SHL SUB SWAP3 SWAP1 SWAP3 AND DUP3 MSTORE PUSH1 0x20 DUP3 ADD MSTORE PUSH1 0x40 ADD SWAP1 JUMP JUMPDEST PUSH1 0x1 PUSH1 0x1 PUSH1 0xA0 SHL SUB DUP4 AND DUP2 MSTORE PUSH1 0xE0 DUP2 ADD PUSH2 0x10DA PUSH1 0x20 DUP4 ADD DUP5 PUSH2 0x48E5 JUMP JUMPDEST PUSH1 0x1 PUSH1 0x1 PUSH1 0xA0 SHL SUB SWAP6 SWAP1 SWAP6 AND DUP6 MSTORE PUSH2 0xFFFF SWAP4 SWAP1 SWAP4 AND PUSH1 0x20 DUP6 ADD MSTORE PUSH1 0x40 DUP5 ADD SWAP2 SWAP1 SWAP2 MSTORE ISZERO ISZERO PUSH1 0x60 DUP4 ADD MSTORE ISZERO ISZERO PUSH1 0x80 DUP3 ADD MSTORE PUSH1 0xA0 ADD SWAP1 JUMP JUMPDEST PUSH1 0x1 PUSH1 0x1 PUSH1 0xA0 SHL SUB SWAP7 SWAP1 SWAP7 AND DUP7 MSTORE PUSH2 0xFFFF SWAP5 SWAP1 SWAP5 AND PUSH1 0x20 DUP7 ADD MSTORE PUSH1 0x40 DUP6 ADD SWAP3 SWAP1 SWAP3 MSTORE PUSH1 0x60 DUP5 ADD MSTORE PUSH1 0x80 DUP4 ADD MSTORE PUSH1 0xA0 DUP3 ADD MSTORE PUSH1 0xC0 ADD SWAP1 JUMP JUMPDEST PUSH1 0x1 PUSH1 0x1 PUSH1 0xA0 SHL SUB SWAP5 SWAP1 SWAP5 AND DUP5 MSTORE PUSH1 0x20 DUP5 ADD SWAP3 SWAP1 SWAP3 MSTORE PUSH1 0x40 DUP4 ADD MSTORE PUSH1 0x60 DUP3 ADD MSTORE PUSH1 0x80 ADD SWAP1 JUMP JUMPDEST SWAP1 ISZERO ISZERO DUP2 MSTORE PUSH1 0x20 ADD SWAP1 JUMP JUMPDEST SWAP2 DUP3 MSTORE ISZERO ISZERO PUSH1 0x20 DUP3 ADD MSTORE PUSH1 0x40 ADD SWAP1 JUMP JUMPDEST PUSH1 0x20 DUP1 DUP3 MSTORE PUSH1 0xF SWAP1 DUP3 ADD MSTORE PUSH15 0x4F76657220537570706C792043617 PUSH1 0x8C SHL PUSH1 0x40 DUP3 ADD MSTORE PUSH1 0x60 ADD SWAP1 JUMP JUMPDEST PUSH1 0x20 DUP1 DUP3 MSTORE PUSH1 0xB SWAP1 DUP3 ADD MSTORE PUSH11 0x4554482042616C616E6365 PUSH1 0xA8 SHL PUSH1 0x40 DUP3 ADD MSTORE PUSH1 0x60 ADD SWAP1 JUMP JUMPDEST PUSH1 0x20 DUP1 DUP3 MSTORE PUSH1 0x6 SWAP1 DUP3 ADD MSTORE PUSH6 0x52656465656D PUSH1 0xD0 SHL PUSH1 0x40 DUP3 ADD MSTORE PUSH1 0x60 ADD SWAP1 JUMP JUMPDEST PUSH1 0x20 DUP1 DUP3 MSTORE PUSH1 0x12 SWAP1 DUP3 ADD MSTORE PUSH18 0x43616E6E6F74206861766520617373657473 PUSH1 0x70 SHL PUSH1 0x40 DUP3 ADD MSTORE PUSH1 0x60 ADD SWAP1 JUMP JUMPDEST PUSH1 0x20 DUP1 DUP3 MSTORE PUSH1 0x13 SWAP1 DUP3 ADD MSTORE PUSH19 0x2AB730BABA3437B934BD32B21031B0B63632B9 PUSH1 0x69 SHL PUSH1 0x40 DUP3 ADD MSTORE PUSH1 0x60 ADD SWAP1 JUMP JUMPDEST PUSH1 0x20 DUP1 DUP3 MSTORE PUSH1 0xF SWAP1 DUP3 ADD MSTORE PUSH15 0x4E6F205072696D6520426F72726F77 PUSH1 0x88 SHL PUSH1 0x40 DUP3 ADD MSTORE PUSH1 0x60 ADD SWAP1 JUMP JUMPDEST PUSH1 0x20 DUP1 DUP3 MSTORE PUSH1 0x1C SWAP1 DUP3 ADD MSTORE PUSH32 0x446570726563617465643A2052656465656D20746F2063546F6B656E00000000 PUSH1 0x40 DUP3 ADD MSTORE PUSH1 0x60 ADD SWAP1 JUMP JUMPDEST PUSH1 0x20 DUP1 DUP3 MSTORE PUSH1 0xE SWAP1 DUP3 ADD MSTORE PUSH14 0x1499595B9D1C985B9D0818D85B1B PUSH1 0x92 SHL PUSH1 0x40 DUP3 ADD MSTORE PUSH1 0x60 ADD SWAP1 JUMP JUMPDEST PUSH1 0x20 DUP1 DUP3 MSTORE PUSH1 0x14 SWAP1 DUP3 ADD MSTORE PUSH20 0x43616E6E6F74206368616E6765206269746D617 PUSH1 0x64 SHL PUSH1 0x40 DUP3 ADD MSTORE PUSH1 0x60 ADD SWAP1 JUMP JUMPDEST PUSH1 0x20 DUP1 DUP3 MSTORE PUSH1 0x10 SWAP1 DUP3 ADD MSTORE PUSH16 0x10D85B9B9BDD081A185D99481919589D PUSH1 0x82 SHL PUSH1 0x40 DUP3 ADD MSTORE PUSH1 0x60 ADD SWAP1 JUMP JUMPDEST PUSH1 0x20 DUP1 DUP3 MSTORE PUSH1 0xA SWAP1 DUP3 ADD MSTORE PUSH10 0x2732B390372A37B5B2B7 PUSH1 0xB1 SHL PUSH1 0x40 DUP3 ADD MSTORE PUSH1 0x60 ADD SWAP1 JUMP JUMPDEST PUSH1 0x20 DUP1 DUP3 MSTORE PUSH1 0x13 SWAP1 DUP3 ADD MSTORE PUSH19 0x125B9D985B1A590818DD5C9C995B98DE481A59 PUSH1 0x6A SHL PUSH1 0x40 DUP3 ADD MSTORE PUSH1 0x60 ADD SWAP1 JUMP JUMPDEST PUSH1 0x20 DUP1 DUP3 MSTORE PUSH1 0x13 SWAP1 DUP3 ADD MSTORE PUSH19 0x496E73756666696369656E7420746F6B656E73 PUSH1 0x68 SHL PUSH1 0x40 DUP3 ADD MSTORE PUSH1 0x60 ADD SWAP1 JUMP JUMPDEST SWAP1 DUP2 MSTORE PUSH1 0x20 ADD SWAP1 JUMP JUMPDEST SWAP2 DUP3 MSTORE PUSH1 0x20 DUP3 ADD MSTORE PUSH1 0x40 ADD SWAP1 JUMP JUMPDEST SWAP3 DUP4 MSTORE PUSH1 0x20 DUP4 ADD SWAP2 SWAP1 SWAP2 MSTORE PUSH1 0x40 DUP3 ADD MSTORE PUSH1 0x60 ADD SWAP1 JUMP JUMPDEST PUSH1 0x40 MLOAD DUP2 DUP2 ADD PUSH8 0xFFFFFFFFFFFFFFFF DUP2 GT DUP3 DUP3 LT OR ISZERO PUSH2 0x4DA9 JUMPI INVALID JUMPDEST PUSH1 0x40 MSTORE SWAP2 SWAP1 POP JUMP JUMPDEST PUSH1 0x0 PUSH8 0xFFFFFFFFFFFFFFFF DUP3 GT ISZERO PUSH2 0x4DC5 JUMPI INVALID JUMPDEST POP PUSH1 0x20 SWAP1 DUP2 MUL ADD SWAP1 JUMP JUMPDEST PUSH1 0x1 PUSH1 0x1 PUSH1 0xA0 SHL SUB DUP2 AND DUP2 EQ PUSH2 0x4DE4 JUMPI PUSH1 0x0 DUP1 REVERT JUMPDEST POP JUMP JUMPDEST DUP1 ISZERO ISZERO DUP2 EQ PUSH2 0x4DE4 JUMPI PUSH1 0x0 DUP1 REVERT JUMPDEST PUSH2 0xFFFF DUP2 AND DUP2 EQ PUSH2 0x4DE4 JUMPI PUSH1 0x0 DUP1 REVERT INVALID LOG2 PUSH5 0x6970667358 0x22 SLT KECCAK256 NUMBER 0xB7 NOT DUP8 0xBB PUSH16 0xCAB02D1155378D1A32E1D668B4A8F8E6 SWAP8 0xDB 0xB8 PUSH7 0x3DAE7EE55A3064 PUSH20 0x6F6C634300070600330000000000000000000000 ","sha1":"b24b9fdf415584f585897a04e9ba6ca47675e224","source":"// SPDX-License-Identifier: GPL-3.0-only\npragma solidity =0.7.6;\npragma abicoder v2;\n\nimport {\n    BalanceState,\n    AccountContext,\n    PortfolioAsset,\n    PrimeRate\n} from \"../../global/Types.sol\";\nimport {Constants} from \"../../global/Constants.sol\";\nimport {SafeInt256} from \"../../math/SafeInt256.sol\";\n\nimport {Emitter} from \"../../internal/Emitter.sol\";\nimport {TransferAssets} from \"../../internal/portfolio/TransferAssets.sol\";\nimport {BalanceHandler} from \"../../internal/balances/BalanceHandler.sol\";\nimport {nTokenHandler} from \"../../internal/nToken/nTokenHandler.sol\";\nimport {PrimeRateLib} from \"../../internal/pCash/PrimeRateLib.sol\";\nimport {AccountContextHandler} from \"../../internal/AccountContextHandler.sol\";\n\nimport {ActionGuards} from \"./ActionGuards.sol\";\nimport {nTokenRedeemAction} from \"./nTokenRedeemAction.sol\";\nimport {SettleAssetsExternal} from \"../SettleAssetsExternal.sol\";\nimport {FreeCollateralExternal} from \"../FreeCollateralExternal.sol\";\nimport {MigrateIncentives} from \"../MigrateIncentives.sol\";\n\ncontract AccountAction is ActionGuards {\n    using BalanceHandler for BalanceState;\n    using AccountContextHandler for AccountContext;\n    using PrimeRateLib for PrimeRate;\n    using SafeInt256 for int256;\n\n    /// @notice A per account setting that allows it to borrow prime cash (i.e. incur negative cash)\n    /// as a result of account initiated actions. Accounts can still incur negative cash as a result of\n    /// fCash settlement regardless of this setting.\n    /// @param allowPrimeBorrow true if the account can borrow prime cash\n    /// @dev emit:AccountSettled emit:AccountContextUpdate\n    /// @dev auth:msg.sender\n    function enablePrimeBorrow(bool allowPrimeBorrow) external {\n        require(msg.sender != address(this)); // dev: no internal call\n        requireValidAccount(msg.sender);\n        (AccountContext memory accountContext, /* didSettle */) = _settleAccountIfRequired(msg.sender);\n        accountContext.allowPrimeBorrow = allowPrimeBorrow;\n        accountContext.setAccountContext(msg.sender);\n    }\n\n    /// @notice Enables a bitmap currency for msg.sender, account cannot have any assets when this call\n    /// occurs. Will revert if the account already has a bitmap currency set.\n    /// @param currencyId the currency to enable the bitmap for.\n    /// @dev emit:AccountSettled emit:AccountContextUpdate\n    /// @dev auth:msg.sender\n    function enableBitmapCurrency(uint16 currencyId) external {\n        require(msg.sender != address(this)); // dev: no internal call to enableBitmapCurrency\n        require(currencyId <= maxCurrencyId); // dev: invalid currency id\n        address account = msg.sender;\n        (AccountContext memory accountContext, /* didSettle */) = _settleAccountIfRequired(account);\n        accountContext.enableBitmapForAccount(currencyId, block.timestamp);\n        accountContext.setAccountContext(account);\n    }\n\n    /// @notice Method for manually settling an account, generally should not be called because other\n    /// methods will check if an account needs to be settled automatically. If a bitmap account has debt\n    /// and is settled via this method, the hasDebt flag will not be cleared until a free collateral check\n    /// is performed on the account.\n    /// @param account the account to settle\n    /// @dev emit:AccountSettled emit:AccountContextUpdate\n    /// @dev auth:none\n    /// @return returns true if account has been settled\n    function settleAccount(address account) external returns (bool) {\n        requireValidAccount(account);\n        (AccountContext memory accountContext, bool didSettle) = _settleAccountIfRequired(account);\n        if (didSettle) accountContext.setAccountContext(account);\n        return didSettle;\n    }\n\n    /// @notice Deposits and wraps the underlying token for a particular cToken. Does not settle assets or check free\n    /// collateral, idea is to be as gas efficient as possible during potential liquidation events.\n    /// @param account the account to deposit into\n    /// @param currencyId currency id of the asset token that wraps this underlying\n    /// @param amountExternalPrecision the amount of underlying tokens in its native decimal precision\n    /// (i.e. 18 decimals for DAI or 6 decimals for USDC). This will be converted to 8 decimals during transfer.\n    /// @return asset tokens minted and deposited to the account in internal decimals (8)\n    /// @dev emit:CashBalanceChange emit:AccountContextUpdate\n    /// @dev auth:none\n    function depositUnderlyingToken(\n        address account,\n        uint16 currencyId,\n        uint256 amountExternalPrecision\n    ) external payable nonReentrant returns (uint256) {\n        require(msg.sender != address(this)); // dev: no internal call to deposit underlying\n        // Only the account can deposit into its balance, donations are not allowed.\n        require(msg.sender == account); // dev: unauthorized\n        requireValidAccount(account);\n\n        AccountContext memory accountContext = AccountContextHandler.getAccountContext(account);\n        BalanceState memory balanceState;\n        balanceState.loadBalanceState(account, currencyId, accountContext);\n\n        // NOTE: using msg.sender here allows for a different sender to deposit tokens into\n        // the specified account. This may be useful for on-demand collateral top ups from a\n        // third party.\n        int256 primeCashReceived = balanceState.depositUnderlyingToken(\n            account,\n            SafeInt256.toInt(amountExternalPrecision),\n            false // there should never be excess ETH here by definition\n        );\n\n        require(primeCashReceived > 0); // dev: asset tokens negative or zero\n\n        balanceState.finalizeNoWithdraw(account, accountContext);\n        accountContext.setAccountContext(account);\n\n        // Check the supply cap after all balances have been finalized\n        balanceState.primeRate.checkSupplyCap(currencyId);\n\n        // NOTE: no free collateral checks required for depositing\n        return primeCashReceived.toUint();\n    }\n\n    /// @notice DEPRECATED: deposits deprecated cTokens tokens as collateral into an account that\n    /// were listed prior to the migration to prime cash. Future listed tokens will not have asset\n    /// tokens and will revert in this method.\n    /// @param account the account to deposit into\n    /// @param currencyId currency id of the asset token\n    /// @param amountExternalPrecision the amount of asset tokens in its native decimal precision\n    /// (i.e. 8 decimals for cTokens).\n    /// @return asset tokens minted and deposited to the account in internal decimals (8)\n    /// @dev emit:CashBalanceChange emit:AccountContextUpdate\n    /// @dev auth:none\n    function depositAssetToken(\n        address account,\n        uint16 currencyId,\n        uint256 amountExternalPrecision\n    ) external nonReentrant returns (uint256) {\n        require(msg.sender != address(this)); // dev: no internal call to deposit asset\n        // Only the account can deposit into its balance, donations are not allowed.\n        require(msg.sender == account); // dev: unauthorized\n        requireValidAccount(account);\n\n        AccountContext memory accountContext = AccountContextHandler.getAccountContext(account);\n        BalanceState memory balanceState;\n        balanceState.loadBalanceState(account, currencyId, accountContext);\n\n        // Int conversion overflow check done inside this method call. msg.sender\n        // is used as the account in deposit to allow for other accounts to deposit\n        // on behalf of the given account. This always does an immediate transfer\n        // and marks the net prime cash change on the balance state.\n        int256 primeCashReceived = balanceState.depositDeprecatedAssetToken(\n            account,\n            SafeInt256.toInt(amountExternalPrecision)\n        );\n\n        require(primeCashReceived > 0); // dev: asset tokens negative or zero\n\n        balanceState.finalizeNoWithdraw(account, accountContext);\n        accountContext.setAccountContext(account);\n\n        // Check the supply cap after all balances have been finalized\n        balanceState.primeRate.checkSupplyCap(currencyId);\n\n        // NOTE: no free collateral checks required for depositing\n        return primeCashReceived.toUint();\n    }\n\n    /// @notice Withdraws balances from Notional, may also redeem to underlying tokens on user request. Will settle\n    /// and do free collateral checks if required. Can only be called by msg.sender, operators who want to withdraw for\n    /// an account must do an authenticated call via ERC1155Action `safeTransferFrom` or `safeBatchTransferFrom`\n    /// @param currencyId currency id of the asset token\n    /// @param amountInternalPrecision the amount of cash balance in internal 8 decimal precision to withdraw,\n    /// this is be denominated in prime cash. If set to uint88 max, will withdraw an entire cash balance.\n    /// @param redeemToUnderlying DEPRECATED except for ETH balances. Prior to the prime cash upgrade, accounts could withdraw\n    /// cTokens directly. However, post prime cash migration this is no longer the case. If withdrawing ETH, setting redeemToUnderlying\n    /// to false will redeem ETH as WETH.\n    /// @dev emit:CashBalanceChange emit:AccountContextUpdate\n    /// @dev auth:msg.sender\n    /// @return the amount of tokens received by the account denominated in the destination token precision (if\n    // redeeming to underlying the amount will be the underlying amount received in that token's native precision)\n    function withdraw(\n        uint16 currencyId,\n        uint88 amountInternalPrecision,\n        bool redeemToUnderlying\n    ) external nonReentrant returns (uint256) {\n        if (currencyId != Constants.ETH_CURRENCY_ID) {\n            require(redeemToUnderlying, \"Deprecated: Redeem to cToken\");\n        }\n        // This happens before reading the balance state to get the most up to date cash balance\n        (AccountContext memory accountContext, /* didSettle */) = _settleAccountIfRequired(msg.sender);\n\n        BalanceState memory balanceState;\n        balanceState.loadBalanceState(msg.sender, currencyId, accountContext);\n        if (amountInternalPrecision == type(uint88).max) {\n            // if set to uint88 max, withdraw the full stored balance. This feature only\n            // works if there is a positive balance\n            require(balanceState.storedCashBalance > 0);\n            balanceState.primeCashWithdraw = balanceState.storedCashBalance.neg();\n        } else {\n            // Overflow is not possible due to uint88\n            balanceState.primeCashWithdraw = int256(amountInternalPrecision).neg();\n        }\n\n        int256 underlyingWithdrawnExternal = balanceState.finalizeWithWithdraw(\n            msg.sender, accountContext, !redeemToUnderlying\n        );\n\n        accountContext.setAccountContext(msg.sender);\n\n        if (accountContext.hasDebt != 0x00) {\n            FreeCollateralExternal.checkFreeCollateralAndRevert(msg.sender);\n        }\n\n        require(underlyingWithdrawnExternal <= 0);\n\n        // No need to check supply caps\n        return underlyingWithdrawnExternal.neg().toUint();\n    }\n\n    /// @notice Allows accounts to redeem nTokens into constituent assets and then absorb the assets\n    /// into their portfolio. Due to the complexity here, it is not allowed to be called during a batch trading\n    /// operation and must be done separately.\n    /// @param redeemer the address that holds the nTokens to redeem\n    /// @param currencyId the currency associated the nToken\n    /// @param tokensToRedeem_ the amount of nTokens to convert to cash\n    /// @param sellTokenAssets attempt to sell residual fCash and convert to cash\n    /// @param acceptResidualAssets if true, will place any residual fCash that could not be sold (either due to slippage\n    /// or because it was idiosyncratic) into the account's portfolio\n    /// @dev auth:msg.sender auth:ERC1155\n    /// @return total amount of asset cash redeemed\n    /// @return true or false if there were residuals that were placed into the portfolio\n    function nTokenRedeem(\n        address redeemer,\n        uint16 currencyId,\n        uint96 tokensToRedeem_,\n        bool sellTokenAssets,\n        bool acceptResidualAssets\n    ) external nonReentrant returns (int256, bool) {\n        // ERC1155 can call this method during a post transfer event\n        require(msg.sender == redeemer || msg.sender == address(this), \"Unauthorized caller\");\n        int256 tokensToRedeem = int256(tokensToRedeem_);\n\n        (AccountContext memory context, /* didSettle */) = _settleAccountIfRequired(redeemer);\n\n        BalanceState memory balance;\n        balance.loadBalanceState(redeemer, currencyId, context);\n\n        require(balance.storedNTokenBalance >= tokensToRedeem, \"Insufficient tokens\");\n        balance.netNTokenSupplyChange = tokensToRedeem.neg();\n\n        (int256 totalPrimeCash, PortfolioAsset[] memory assets) = nTokenRedeemAction.redeem(\n            redeemer, currencyId, tokensToRedeem, sellTokenAssets, acceptResidualAssets\n        );\n\n        // Set balances before transferring assets\n        balance.netCashChange = totalPrimeCash;\n        balance.finalizeNoWithdraw(redeemer, context);\n\n        // The hasResidual flag is only set to true if selling residuals has failed, checking\n        // if the length of assets is greater than zero will detect the presence of ifCash\n        // assets that have not been sold.\n        if (assets.length > 0) {\n            // This method will store assets and return the memory location of the new account\n            // context.\n            address nTokenAddress = nTokenHandler.nTokenAddress(currencyId);\n            context = SettleAssetsExternal.placeAssetsInAccount(redeemer, nTokenAddress, context, assets);\n        }\n\n        context.setAccountContext(redeemer);\n        if (context.hasDebt != 0x00) {\n            FreeCollateralExternal.checkFreeCollateralAndRevert(redeemer);\n        }\n\n        // Do not check supply caps during nToken redemption, no deposits are taken during \n        // redemption so the supply should not change.\n        Emitter.emitNTokenBurn(redeemer, currencyId, totalPrimeCash, tokensToRedeem);\n\n        return (totalPrimeCash, assets.length > 0);\n    }\n\n    /// @notice Settle the account if required, returning a reference to the account context. Also\n    /// returns a boolean to indicate if it did settle.\n    function _settleAccountIfRequired(address account)\n        private\n        returns (AccountContext memory, bool)\n    {\n        AccountContext memory accountContext = AccountContextHandler.getAccountContext(account);\n        if (accountContext.mustSettleAssets()) {\n            return (SettleAssetsExternal.settleAccount(account, accountContext), true);\n        } else {\n            return (accountContext, false);\n        }\n    }\n\n    /// @notice Get a list of deployed library addresses (sorted by library name)\n    function getLibInfo() external pure returns (address, address, address, address) {\n        return (\n            address(FreeCollateralExternal),\n            address(MigrateIncentives), \n            address(SettleAssetsExternal), \n            address(nTokenRedeemAction)\n        );\n    }\n}\n","sourcePath":"contracts/external/actions/AccountAction.sol","type":"contract","deployment":{"address":"0xc2763a6465F5C86769A1Af826dB270A6367b03B7","chainid":"42161","blockHeight":86535301}}