{"abi":[{"inputs":[{"internalType":"contract NotionalProxy","name":"notional_","type":"address"}],"stateMutability":"nonpayable","type":"constructor","name":"constructor"},{"anonymous":false,"inputs":[{"indexed":true,"internalType":"address","name":"owner","type":"address"},{"indexed":true,"internalType":"address","name":"spender","type":"address"},{"indexed":false,"internalType":"uint256","name":"value","type":"uint256"}],"name":"Approval","type":"event"},{"anonymous":false,"inputs":[{"indexed":true,"internalType":"address","name":"caller","type":"address"},{"indexed":true,"internalType":"address","name":"owner","type":"address"},{"indexed":false,"internalType":"uint256","name":"assets","type":"uint256"},{"indexed":false,"internalType":"uint256","name":"shares","type":"uint256"}],"name":"Deposit","type":"event"},{"anonymous":false,"inputs":[],"name":"ProxyRenamed","type":"event"},{"anonymous":false,"inputs":[{"indexed":true,"internalType":"address","name":"from","type":"address"},{"indexed":true,"internalType":"address","name":"to","type":"address"},{"indexed":false,"internalType":"uint256","name":"value","type":"uint256"}],"name":"Transfer","type":"event"},{"anonymous":false,"inputs":[{"indexed":true,"internalType":"address","name":"caller","type":"address"},{"indexed":true,"internalType":"address","name":"receiver","type":"address"},{"indexed":true,"internalType":"address","name":"owner","type":"address"},{"indexed":false,"internalType":"uint256","name":"assets","type":"uint256"},{"indexed":false,"internalType":"uint256","name":"shares","type":"uint256"}],"name":"Withdraw","type":"event"},{"inputs":[],"name":"EXCHANGE_RATE_PRECISION","outputs":[{"internalType":"uint256","name":"","type":"uint256"}],"stateMutability":"view","type":"function"},{"inputs":[],"name":"NOTIONAL","outputs":[{"internalType":"contract NotionalProxy","name":"","type":"address"}],"stateMutability":"view","type":"function"},{"inputs":[{"internalType":"address","name":"account","type":"address"},{"internalType":"address","name":"spender","type":"address"}],"name":"allowance","outputs":[{"internalType":"uint256","name":"","type":"uint256"}],"stateMutability":"view","type":"function"},{"inputs":[{"internalType":"address","name":"spender","type":"address"},{"internalType":"uint256","name":"amount","type":"uint256"}],"name":"approve","outputs":[{"internalType":"bool","name":"ret","type":"bool"}],"stateMutability":"nonpayable","type":"function"},{"inputs":[],"name":"asset","outputs":[{"internalType":"address","name":"","type":"address"}],"stateMutability":"view","type":"function"},{"inputs":[{"internalType":"address","name":"account","type":"address"}],"name":"balanceOf","outputs":[{"internalType":"uint256","name":"","type":"uint256"}],"stateMutability":"view","type":"function"},{"inputs":[{"internalType":"uint256","name":"shares","type":"uint256"}],"name":"convertToAssets","outputs":[{"internalType":"uint256","name":"assets","type":"uint256"}],"stateMutability":"view","type":"function"},{"inputs":[{"internalType":"uint256","name":"assets","type":"uint256"}],"name":"convertToShares","outputs":[{"internalType":"uint256","name":"shares","type":"uint256"}],"stateMutability":"view","type":"function"},{"inputs":[],"name":"currencyId","outputs":[{"internalType":"uint16","name":"","type":"uint16"}],"stateMutability":"view","type":"function"},{"inputs":[],"name":"decimals","outputs":[{"internalType":"uint8","name":"","type":"uint8"}],"stateMutability":"view","type":"function"},{"inputs":[{"internalType":"uint256","name":"assets","type":"uint256"},{"internalType":"address","name":"receiver","type":"address"}],"name":"deposit","outputs":[{"internalType":"uint256","name":"shares","type":"uint256"}],"stateMutability":"nonpayable","type":"function"},{"inputs":[{"internalType":"address","name":"account","type":"address"},{"internalType":"int256","name":"netBalance","type":"int256"}],"name":"emitMintOrBurn","outputs":[],"stateMutability":"nonpayable","type":"function"},{"inputs":[{"internalType":"address","name":"minter","type":"address"},{"internalType":"address","name":"burner","type":"address"},{"internalType":"uint256","name":"mintAmount","type":"uint256"},{"internalType":"uint256","name":"transferAndBurnAmount","type":"uint256"}],"name":"emitMintTransferBurn","outputs":[],"stateMutability":"nonpayable","type":"function"},{"inputs":[{"internalType":"address","name":"from","type":"address"},{"internalType":"address","name":"to","type":"address"},{"internalType":"uint256","name":"amount","type":"uint256"}],"name":"emitTransfer","outputs":[],"stateMutability":"nonpayable","type":"function"},{"inputs":[{"internalType":"address","name":"account","type":"address"},{"internalType":"address","name":"nToken","type":"address"},{"internalType":"int256","name":"accountToNToken","type":"int256"},{"internalType":"uint256","name":"cashToReserve","type":"uint256"}],"name":"emitfCashTradeTransfers","outputs":[],"stateMutability":"nonpayable","type":"function"},{"inputs":[],"name":"exchangeRate","outputs":[{"internalType":"uint256","name":"rate","type":"uint256"}],"stateMutability":"view","type":"function"},{"inputs":[],"name":"getPresentValueAssetDenominated","outputs":[{"internalType":"int256","name":"","type":"int256"}],"stateMutability":"view","type":"function"},{"inputs":[],"name":"getPresentValueUnderlyingDenominated","outputs":[{"internalType":"int256","name":"","type":"int256"}],"stateMutability":"view","type":"function"},{"inputs":[{"internalType":"uint16","name":"currencyId_","type":"uint16"},{"internalType":"address","name":"underlying_","type":"address"},{"internalType":"string","name":"underlyingName_","type":"string"},{"internalType":"string","name":"underlyingSymbol_","type":"string"}],"name":"initialize","outputs":[],"stateMutability":"nonpayable","type":"function"},{"inputs":[{"internalType":"address","name":"","type":"address"}],"name":"maxDeposit","outputs":[{"internalType":"uint256","name":"maxAssets","type":"uint256"}],"stateMutability":"view","type":"function"},{"inputs":[{"internalType":"address","name":"","type":"address"}],"name":"maxMint","outputs":[{"internalType":"uint256","name":"maxShares","type":"uint256"}],"stateMutability":"view","type":"function"},{"inputs":[{"internalType":"address","name":"owner","type":"address"}],"name":"maxRedeem","outputs":[{"internalType":"uint256","name":"maxShares","type":"uint256"}],"stateMutability":"view","type":"function"},{"inputs":[{"internalType":"address","name":"owner","type":"address"}],"name":"maxWithdraw","outputs":[{"internalType":"uint256","name":"maxAssets","type":"uint256"}],"stateMutability":"view","type":"function"},{"inputs":[{"internalType":"uint256","name":"shares","type":"uint256"},{"internalType":"address","name":"receiver","type":"address"}],"name":"mint","outputs":[{"internalType":"uint256","name":"assets","type":"uint256"}],"stateMutability":"nonpayable","type":"function"},{"inputs":[],"name":"name","outputs":[{"internalType":"string","name":"","type":"string"}],"stateMutability":"view","type":"function"},{"inputs":[],"name":"nativeDecimals","outputs":[{"internalType":"uint8","name":"","type":"uint8"}],"stateMutability":"view","type":"function"},{"inputs":[{"internalType":"uint256","name":"assets","type":"uint256"}],"name":"previewDeposit","outputs":[{"internalType":"uint256","name":"shares","type":"uint256"}],"stateMutability":"view","type":"function"},{"inputs":[{"internalType":"uint256","name":"shares","type":"uint256"}],"name":"previewMint","outputs":[{"internalType":"uint256","name":"assets","type":"uint256"}],"stateMutability":"view","type":"function"},{"inputs":[{"internalType":"uint256","name":"shares","type":"uint256"}],"name":"previewRedeem","outputs":[{"internalType":"uint256","name":"assets","type":"uint256"}],"stateMutability":"view","type":"function"},{"inputs":[{"internalType":"uint256","name":"assets","type":"uint256"}],"name":"previewWithdraw","outputs":[{"internalType":"uint256","name":"shares","type":"uint256"}],"stateMutability":"view","type":"function"},{"inputs":[{"internalType":"uint256","name":"shares","type":"uint256"},{"internalType":"address","name":"receiver","type":"address"},{"internalType":"address","name":"owner","type":"address"}],"name":"redeem","outputs":[{"internalType":"uint256","name":"assets","type":"uint256"}],"stateMutability":"nonpayable","type":"function"},{"inputs":[{"internalType":"string","name":"underlyingName_","type":"string"},{"internalType":"string","name":"underlyingSymbol_","type":"string"}],"name":"rename","outputs":[],"stateMutability":"nonpayable","type":"function"},{"inputs":[],"name":"symbol","outputs":[{"internalType":"string","name":"","type":"string"}],"stateMutability":"view","type":"function"},{"inputs":[],"name":"totalAssets","outputs":[{"internalType":"uint256","name":"totalManagedAssets","type":"uint256"}],"stateMutability":"view","type":"function"},{"inputs":[],"name":"totalSupply","outputs":[{"internalType":"uint256","name":"","type":"uint256"}],"stateMutability":"view","type":"function"},{"inputs":[{"internalType":"address","name":"to","type":"address"},{"internalType":"uint256","name":"amount","type":"uint256"}],"name":"transfer","outputs":[{"internalType":"bool","name":"ret","type":"bool"}],"stateMutability":"nonpayable","type":"function"},{"inputs":[{"internalType":"address","name":"from","type":"address"},{"internalType":"address","name":"to","type":"address"},{"internalType":"uint256","name":"amount","type":"uint256"}],"name":"transferFrom","outputs":[{"internalType":"bool","name":"ret","type":"bool"}],"stateMutability":"nonpayable","type":"function"},{"inputs":[],"name":"underlying","outputs":[{"internalType":"address","name":"","type":"address"}],"stateMutability":"view","type":"function"},{"inputs":[{"internalType":"uint256","name":"assets","type":"uint256"},{"internalType":"address","name":"receiver","type":"address"},{"internalType":"address","name":"owner","type":"address"}],"name":"withdraw","outputs":[{"internalType":"uint256","name":"shares","type":"uint256"}],"stateMutability":"nonpayable","type":"function"}],"bytecode":"60a06040523480156200001157600080fd5b5060405162002a2a38038062002a2a83398101604081905262000034916200011c565b6000548190610100900460ff168062000052575062000052620000f8565b8062000061575060005460ff16155b6200009e5760405162461bcd60e51b815260040180806020018281038252602e815260200180620029fc602e913960400191505060405180910390fd5b600054610100900460ff16158015620000ca576000805460ff1961ff0019909116610100171660011790555b6001600160601b0319606083901b166080528015620000ef576000805461ff00191690555b5050506200014c565b600062000110306200011660201b620014811760201c565b15905090565b3b151590565b6000602082840312156200012e578081fd5b81516001600160a01b038116811462000145578182fd5b9392505050565b60805160601c61283d620001bf60003980610660528061070a528061085d5280610a2f5280610a6e5280610b155280610c635280610e195280610fe552806110e4528061136e52806114a652806115cd528061167952806116cb528061196e5280611a4f5280611c04525061283d6000f3fe608060405234801561001057600080fd5b506004361061023d5760003560e01c8063768ea56a1161013b578063b3d7f6b9116100b8578063ccb2d5ed1161007c578063ccb2d5ed14610474578063ce96cb7714610487578063d905777e1461038e578063dd62ed3e1461049a578063ef8b30f7146102a85761023d565b8063b3d7f6b914610360578063b460af9414610428578063ba0876521461043b578063c63d75b61461044e578063c6e6f592146104615761023d565b806395d89b41116100ff57806395d89b41146103d45780639c7c722b146103dc578063a9059cbb146103ef578063a992714e14610402578063ad1c095d146104155761023d565b8063768ea56a146103a1578063858dccb3146103a957806390ab60a7146103b157806391cf16a8146103b957806394bf804d146103c15761023d565b8063313ce567116101c9578063402d267d1161018d578063402d267d1461034d5780634cdad506146103605780636e553f65146103735780636f307dc31461038657806370a082311461038e5761023d565b8063313ce5671461030057806338d52e0f1461031557806339de97461461032a5780633a01b9641461033d5780633ba0b9a9146103455761023d565b80630a28a477116102105780630a28a477146102a857806318160ddd146102bb5780631feeece2146102c357806323b872dd146102d857806323de6651146102eb5761023d565b806301e1d1141461024257806306fdde031461026057806307a2d13a14610275578063095ea7b314610288575b600080fd5b61024a6104ad565b6040516102579190612586565b60405180910390f35b6102686104bc565b604051610257919061258f565b61024a61028336600461245e565b610549565b61029b61029636600461221a565b610577565b604051610257919061257b565b61024a6102b636600461245e565b6105dd565b61024a6105e8565b6102cb6105f2565b6040516102579190612611565b61029b6102e63660046121c5565b6105fc565b6102fe6102f93660046121c5565b610655565b005b6103086106e4565b60405161025791906126e3565b61031d6106e9565b6040516102579190612567565b6102fe610338366004612205565b6106ff565b61024a6107fa565b61024a610806565b61024a61035b366004612110565b61083c565b61024a61036e36600461245e565b610946565b61024a610381366004612476565b610951565b61031d6109fd565b61024a61039c366004612110565b610a13565b610308610a1e565b61031d610a2d565b61024a610a51565b61024a610af8565b61024a6103cf366004612476565b610b4f565b610268610c09565b6102fe6103ea36600461227d565b610c61565b61029b6103fd36600461221a565b610dbd565b6102fe6104103660046123d2565b610e0e565b6102fe61042336600461221a565b6110d9565b61024a61043636600461249a565b6111a7565b61024a61044936600461249a565b611276565b61024a61045c366004612110565b61131f565b61024a61046f36600461245e565b611344565b6102fe610482366004612180565b611363565b61024a610495366004612110565b611467565b61024a6104a8366004612148565b611475565b60006104b7611487565b905090565b60018054604080516020600284861615610100026000190190941693909304601f810184900484028201840190925281815292918301828280156105415780601f1061051657610100808354040283529160200191610541565b820191906000526020600020905b81548152906001019060200180831161052457829003601f168201915b505050505081565b600061056f670de0b6b3a764000061056984610563610806565b9061156a565b90611591565b90505b919050565b600061058383836115b0565b905080156105d757826001600160a01b0316336001600160a01b03167f8c5be1e5ebec7d5bd14f71427d1e84f3dd0314c0f7b2291e5b200ac8c7c3b925846040516105ce9190612586565b60405180910390a35b92915050565b600061056f82611344565b60006104b761165f565b60035461ffff1681565b6000826001600160a01b0316846001600160a01b03166000805160206127888339815191528460405161062f9190612586565b60405180910390a36106428484846116ae565b90508061064e57600080fd5b9392505050565b336001600160a01b037f000000000000000000000000000000000000000000000000000000000000000016146106a65760405162461bcd60e51b815260040161069d906125eb565b60405180910390fd5b816001600160a01b0316836001600160a01b0316600080516020612788833981519152836040516106d79190612586565b60405180910390a3505050565b600881565b600354630100000090046001600160a01b031690565b336001600160a01b037f000000000000000000000000000000000000000000000000000000000000000016146107475760405162461bcd60e51b815260040161069d906125eb565b836001600160a01b031660006001600160a01b0316600080516020612788833981519152846040516107799190612586565b60405180910390a3826001600160a01b0316846001600160a01b0316600080516020612788833981519152836040516107b29190612586565b60405180910390a360006001600160a01b0316836001600160a01b0316600080516020612788833981519152836040516107ec9190612586565b60405180910390a350505050565b670de0b6b3a764000081565b600080610811611487565b9050600061081d61165f565b90506108358161056984670de0b6b3a764000061156a565b9250505090565b60035460405163206f279960e01b8152600091829182916001600160a01b037f0000000000000000000000000000000000000000000000000000000000000000169163206f2799916108999161ffff9091169042906004016126c1565b6101c06040518083038186803b1580156108b257600080fd5b505afa1580156108c6573d6000803e3d6000fd5b505050506040513d601f19601f820116820180604052508101906108ea91906122de565b93509350505081600014156109055760001992505050610572565b80821161091757600092505050610572565b60035461093d906305f5e10090610569908486039062010000900460ff16600a0a61156a565b92505050610572565b600061056f82610549565b60008061095d84611767565b909450905061096d848285611937565b9150826001600160a01b031660006001600160a01b0316600080516020612788833981519152846040516109a19190612586565b60405180910390a3826001600160a01b0316336001600160a01b03167fdcbc1c05240f31ff3ad067ef1ee35ce4997762752e3a095284754544f4c709d786856040516109ee9291906126d5565b60405180910390a35092915050565b600354630100000090046001600160a01b031681565b600061056f82611951565b60035462010000900460ff1681565b7f000000000000000000000000000000000000000000000000000000000000000081565b600354604051631a05bce160e01b81526000916001600160a01b037f00000000000000000000000000000000000000000000000000000000000000001691631a05bce191610aa89161ffff90911690600401612611565b60206040518083038186803b158015610ac057600080fd5b505afa158015610ad4573d6000803e3d6000fd5b505050506040513d601f19601f820116820180604052508101906104b79190612265565b600354604051633b2987b360e01b81526000916001600160a01b037f00000000000000000000000000000000000000000000000000000000000000001691633b2987b391610aa89161ffff90911690600401612611565b600080610b5b84610946565b9150610b6682611767565b90925090506000610b78838386611937565b9050836001600160a01b031660006001600160a01b031660008051602061278883398151915283604051610bac9190612586565b60405180910390a3836001600160a01b0316336001600160a01b03167fdcbc1c05240f31ff3ad067ef1ee35ce4997762752e3a095284754544f4c709d78584604051610bf99291906126d5565b60405180910390a3505092915050565b6002805460408051602060018416156101000260001901909316849004601f810184900484028201840190925281815292918301828280156105415780601f1061051657610100808354040283529160200191610541565b7f00000000000000000000000000000000000000000000000000000000000000006001600160a01b0316638da5cb5b6040518163ffffffff1660e01b815260040160206040518083038186803b158015610cba57600080fd5b505afa158015610cce573d6000803e3d6000fd5b505050506040513d601f19601f82011682018060405250810190610cf2919061212c565b6001600160a01b0316336001600160a01b031614610d0f57600080fd5b600080610d1a6119fa565b915091508184604051602001610d3192919061252b565b60405160208183030381529060405260019080519060200190610d55929190612013565b508083604051602001610d699291906124fc565b60405160208183030381529060405260029080519060200190610d8d929190612013565b506040517f8d4bc6886f1b5887a0c7da5cf5dbdf35c7bcced78089e0e522b49be05817699990600090a150505050565b6000826001600160a01b0316336001600160a01b031660008051602061278883398151915284604051610df09190612586565b60405180910390a3610e028383611a32565b9050806105d757600080fd5b336001600160a01b037f00000000000000000000000000000000000000000000000000000000000000001614610e565760405162461bcd60e51b815260040161069d906125eb565b600054610100900460ff1680610e6f5750610e6f611a8f565b80610e7d575060005460ff16155b610eb85760405162461bcd60e51b815260040180806020018281038252602e81526020018061275a602e913960400191505060405180910390fd5b600054610100900460ff16158015610ee3576000805460ff1961ff0019909116610100171660011790555b6003805461ffff191661ffff8716179055600080610eff6119fa565b915091508185604051602001610f1692919061252b565b60405160208183030381529060405260019080519060200190610f3a929190612013565b508084604051602001610f4e9291906124fc565b60405160208183030381529060405260029080519060200190610f72929190612013565b506001600160a01b038616610fb257600380546301000000600160b81b0319167682af49447d8a07e3bd95bd0d56f35241523fbab100000017905561100c565b600380546301000000600160b81b03191663010000006001600160a01b038981168202929092179283905561100c9204167f0000000000000000000000000000000000000000000000000000000000000000600019611aa0565b60038054906101000a90046001600160a01b03166001600160a01b031663313ce5676040518163ffffffff1660e01b815260040160206040518083038186803b15801561105857600080fd5b505afa15801561106c573d6000803e3d6000fd5b505050506040513d601f19601f8201168201806040525081019061109091906124db565b6003805462ff000019166201000060ff9384168102919091179182905560249104909116106110be57600080fd5b505080156110d2576000805461ff00191690555b5050505050565b336001600160a01b037f000000000000000000000000000000000000000000000000000000000000000016146111215760405162461bcd60e51b815260040161069d906125eb565b60008112156111685760006001600160a01b03831660008051602061278883398151915261114e84611bb8565b60405161115b9190612586565b60405180910390a36111a3565b816001600160a01b031660006001600160a01b03166000805160206127888339815191528360405161119a9190612586565b60405180910390a35b5050565b60006111b2846105dd565b905060006111bf83611951565b9050808211156111cd578091505b60006111da838686611937565b905060006001600160a01b0316846001600160a01b03166000805160206127888339815191528560405161120e9190612586565b60405180910390a3836001600160a01b0316856001600160a01b0316336001600160a01b03167ffbde797d201c681b91056529119e0b02407c7bb96a4a2c75c01fc9667232c8db84876040516112659291906126d5565b60405180910390a450509392505050565b600080611284858585611937565b905060006001600160a01b0316836001600160a01b0316600080516020612788833981519152876040516112b89190612586565b60405180910390a3826001600160a01b0316846001600160a01b0316336001600160a01b03167ffbde797d201c681b91056529119e0b02407c7bb96a4a2c75c01fc9667232c8db848960405161130f9291906126d5565b60405180910390a4949350505050565b60008061132c600061083c565b905060001981141561133f579050610572565b61064e815b600061056f611351610806565b61056984670de0b6b3a764000061156a565b336001600160a01b037f000000000000000000000000000000000000000000000000000000000000000016146113ab5760405162461bcd60e51b815260040161069d906125eb565b60008212156113fa57826001600160a01b0316846001600160a01b03166000805160206127888339815191526113e085611bc6565b6040516113ed9190612586565b60405180910390a3611434565b836001600160a01b0316836001600160a01b03166000805160206127888339815191528460405161142b9190612586565b60405180910390a35b610fee6001600160a01b0316846001600160a01b0316600080516020612788833981519152836040516107ec9190612586565b600061056f61028383611951565b600061064e8383611be7565b3b151590565b600354604051633b2987b360e01b815260009182916001600160a01b037f00000000000000000000000000000000000000000000000000000000000000001691633b2987b3916114de9161ffff1690600401612611565b60206040518083038186803b1580156114f657600080fd5b505afa15801561150a573d6000803e3d6000fd5b505050506040513d601f19601f8201168201806040525081019061152e9190612265565b6003549091506115649061155f906305f5e1009061155990859062010000900460ff16600a0a611c92565b90611ce0565b611d11565b91505090565b600082611579575060006105d7565b8282028284828161158657fe5b041461064e57600080fd5b600080821161159f57600080fd5b8183816115a857fe5b049392505050565b60035460405163184e005360e11b81526000916001600160a01b037f0000000000000000000000000000000000000000000000000000000000000000169163309c00a69161160d9161ffff90911690339088908890600401612671565b602060405180830381600087803b15801561162757600080fd5b505af115801561163b573d6000803e3d6000fd5b505050506040513d601f19601f8201168201806040525081019061064e9190612245565b604051636a96e86f60e01b81526000906001600160a01b037f00000000000000000000000000000000000000000000000000000000000000001690636a96e86f90610aa8903090600401612567565b600354604051634425384960e11b81526000916001600160a01b037f0000000000000000000000000000000000000000000000000000000000000000169163884a70929161170d9161ffff90911690339089908990899060040161263d565b602060405180830381600087803b15801561172757600080fd5b505af115801561173b573d6000803e3d6000fd5b505050506040513d601f19601f8201168201806040525081019061175f9190612245565b949350505050565b6003546040516370a0823160e01b815260009182918291630100000090046001600160a01b0316906370a08231906117a3903090600401612567565b60206040518083038186803b1580156117bb57600080fd5b505afa1580156117cf573d6000803e3d6000fd5b505050506040513d601f19601f820116820180604052508101906117f39190612265565b905061181460038054906101000a90046001600160a01b0316333087611d24565b6003546040516370a0823160e01b8152600091630100000090046001600160a01b0316906370a082319061184c903090600401612567565b60206040518083038186803b15801561186457600080fd5b505afa158015611878573d6000803e3d6000fd5b505050506040513d601f19601f8201168201806040525081019061189c9190612265565b90506118a88183611d84565b60035490945061ffff166001141561192b57604051632e1a7d4d60e01b81527382af49447d8a07e3bd95bd0d56f35241523fbab190632e1a7d4d906118f1908790600401612586565b600060405180830381600087803b15801561190b57600080fd5b505af115801561191f573d6000803e3d6000fd5b50505050839250611930565b600092505b5050915091565b600060405162461bcd60e51b815260040161069d906125c2565b60035460405163a78dbfff60e01b81526000916001600160a01b037f0000000000000000000000000000000000000000000000000000000000000000169163a78dbfff916119aa9161ffff909116908690600401612620565b60206040518083038186803b1580156119c257600080fd5b505afa1580156119d6573d6000803e3d6000fd5b505050506040513d601f19601f8201168201806040525081019061056f9190612265565b6040805180820182526006815265372a37b5b2b760d11b602080830191909152825180840190935260018352603760f91b9083015291565b6003546040516318ae40d760e01b81526000916001600160a01b037f000000000000000000000000000000000000000000000000000000000000000016916318ae40d79161160d9161ffff90911690339088908890600401612671565b6000611a9a30611481565b15905090565b801580611b26575060408051636eb1769f60e11b81523060048201526001600160a01b03848116602483015291519185169163dd62ed3e91604480820192602092909190829003018186803b158015611af857600080fd5b505afa158015611b0c573d6000803e3d6000fd5b505050506040513d6020811015611b2257600080fd5b5051155b611b615760405162461bcd60e51b81526004018080602001828103825260368152602001806127d26036913960400191505060405180910390fd5b604080516001600160a01b038416602482015260448082018490528251808303909101815260649091019091526020810180516001600160e01b031663095ea7b360e01b179052611bb3908490611d99565b505050565b600061056f60001983611c92565b600080821215611be057611bd982611bb8565b9050610572565b5080610572565b600354604051637db31ab960e01b81526000916001600160a01b037f00000000000000000000000000000000000000000000000000000000000000001691637db31ab991611c429161ffff909116908790879060040161269c565b60206040518083038186803b158015611c5a57600080fd5b505afa158015611c6e573d6000803e3d6000fd5b505050506040513d601f19601f8201168201806040525081019061064e9190612265565b818102600019831415611cc257811580611cb4575082828281611cb157fe5b05145b611cbd57600080fd5b6105d7565b821580611cd7575081838281611cd457fe5b05145b6105d757600080fd5b600081600019148015611cf65750600160ff1b83145b15611d0057600080fd5b818381611d0957fe5b059392505050565b600080821215611d2057600080fd5b5090565b604080516001600160a01b0380861660248301528416604482015260648082018490528251808303909101815260849091019091526020810180516001600160e01b03166323b872dd60e01b179052611d7e908590611d99565b50505050565b600082821115611d9357600080fd5b50900390565b6000611dee826040518060400160405280602081526020017f5361666545524332303a206c6f772d6c6576656c2063616c6c206661696c6564815250856001600160a01b0316611e4a9092919063ffffffff16565b805190915015611bb357808060200190516020811015611e0d57600080fd5b5051611bb35760405162461bcd60e51b815260040180806020018281038252602a8152602001806127a8602a913960400191505060405180910390fd5b606061175f848460008585611e5e85611481565b611eaf576040805162461bcd60e51b815260206004820152601d60248201527f416464726573733a2063616c6c20746f206e6f6e2d636f6e7472616374000000604482015290519081900360640190fd5b600080866001600160a01b031685876040518082805190602001908083835b60208310611eed5780518252601f199092019160209182019101611ece565b6001836020036101000a03801982511681845116808217855250505050505090500191505060006040518083038185875af1925050503d8060008114611f4f576040519150601f19603f3d011682016040523d82523d6000602084013e611f54565b606091505b5091509150611f64828286611f6f565b979650505050505050565b60608315611f7e57508161064e565b825115611f8e5782518084602001fd5b8160405162461bcd60e51b81526004018080602001828103825283818151815260200191508051906020019080838360005b83811015611fd8578181015183820152602001611fc0565b50505050905090810190601f1680156120055780820380516001836020036101000a031916815260200191505b509250505060405180910390fd5b828054600181600116156101000203166002900490600052602060002090601f016020900481019282612049576000855561208f565b82601f1061206257805160ff191683800117855561208f565b8280016001018555821561208f579182015b8281111561208f578251825591602001919060010190612074565b50611d209291505b80821115611d205760008155600101612097565b600082601f8301126120bb578081fd5b813567ffffffffffffffff8111156120cf57fe5b6120e2601f8201601f19166020016126f1565b8181528460208386010111156120f6578283fd5b816020850160208301379081016020019190915292915050565b600060208284031215612121578081fd5b813561064e81612741565b60006020828403121561213d578081fd5b815161064e81612741565b6000806040838503121561215a578081fd5b823561216581612741565b9150602083013561217581612741565b809150509250929050565b60008060008060808587031215612195578182fd5b84356121a081612741565b935060208501356121b081612741565b93969395505050506040820135916060013590565b6000806000606084860312156121d9578283fd5b83356121e481612741565b925060208401356121f481612741565b929592945050506040919091013590565b60008060008060808587031215612195578384fd5b6000806040838503121561222c578182fd5b823561223781612741565b946020939093013593505050565b600060208284031215612256578081fd5b8151801515811461064e578182fd5b600060208284031215612276578081fd5b5051919050565b6000806040838503121561228f578182fd5b823567ffffffffffffffff808211156122a6578384fd5b6122b2868387016120ab565b935060208501359150808211156122c7578283fd5b506122d4858286016120ab565b9150509250929050565b6000806000808486036101c08112156122f5578283fd5b6060811215612302578283fd5b6040516060810181811067ffffffffffffffff8211171561231f57fe5b6040908152875182526020808901519083015287810151908201529450610120605f19820181131561234f578384fd5b612358816126f1565b9150606087015182526080870151602083015260a0870151604083015260c0870151606083015260e0870151608083015261010087015160a08301528087015160c08301525061014086015160e08201526101608601516101008201528093505061018085015191506101a0850151905092959194509250565b600080600080608085870312156123e7578182fd5b843561ffff811681146123f8578283fd5b9350602085013561240881612741565b9250604085013567ffffffffffffffff80821115612424578384fd5b612430888389016120ab565b93506060870135915080821115612445578283fd5b50612452878288016120ab565b91505092959194509250565b60006020828403121561246f578081fd5b5035919050565b60008060408385031215612488578182fd5b82359150602083013561217581612741565b6000806000606084860312156124ae578081fd5b8335925060208401356124c081612741565b915060408401356124d081612741565b809150509250925092565b6000602082840312156124ec578081fd5b815160ff8116811461064e578182fd5b6000835161250e818460208801612715565b835190830190612522818360208801612715565b01949350505050565b6000835161253d818460208801612715565b600160fd1b908301908152835161255b816001840160208801612715565b01600101949350505050565b6001600160a01b0391909116815260200190565b901515815260200190565b90815260200190565b60006020825282518060208401526125ae816040850160208701612715565b601f01601f19169190910160400192915050565b6020808252600f908201526e139bdd08125b5c1b195b595b9d1959608a1b604082015260600190565b6020808252600c908201526b155b985d5d1a1bdc9a5e995960a21b604082015260600190565b61ffff91909116815260200190565b61ffff9290921682526001600160a01b0316602082015260400190565b61ffff9590951685526001600160a01b03938416602086015291831660408501529091166060830152608082015260a00190565b61ffff9490941684526001600160a01b03928316602085015291166040830152606082015260800190565b61ffff9390931683526001600160a01b03918216602084015216604082015260600190565b61ffff929092168252602082015260400190565b918252602082015260400190565b60ff91909116815260200190565b60405181810167ffffffffffffffff8111828210171561270d57fe5b604052919050565b60005b83811015612730578181015183820152602001612718565b83811115611d7e5750506000910152565b6001600160a01b038116811461275657600080fd5b5056fe496e697469616c697a61626c653a20636f6e747261637420697320616c726561647920696e697469616c697a6564ddf252ad1be2c89b69c2b068fc378daa952ba7f163c4a11628f55a4df523b3ef5361666545524332303a204552433230206f7065726174696f6e20646964206e6f7420737563636565645361666545524332303a20617070726f76652066726f6d206e6f6e2d7a65726f20746f206e6f6e2d7a65726f20616c6c6f77616e6365a26469706673582212207dedc3f965481fe1a7254c9a0299efc2182bb55e9155c83d3067a48461b1e39864736f6c63430007060033496e697469616c697a61626c653a20636f6e747261637420697320616c726561647920696e697469616c697a6564","bytecodeSha1":"da39a3ee5e6b4b0d3255bfef95601890afd80709","compiler":{"evm_version":"istanbul","optimizer":{"enabled":true,"runs":200},"version":"0.7.6+commit.7338295f"},"contractName":"nTokenERC20Proxy","language":"Solidity","natspec":{"kind":"dev","methods":{"EXCHANGE_RATE_PRECISION()":{"notice":"Precision for exchangeRate()"},"NOTIONAL()":{"notice":"Address of the notional proxy, proxies only have access to a subset of the methods"},"approve(address,uint256)":{"details":"Sets `amount` as the allowance of `spender` over the caller's tokens. Returns a boolean value indicating whether the operation succeeded. IMPORTANT: Beware that changing an allowance with this method brings the risk that someone may use both the old and the new allowance by unfortunate transaction ordering. One possible solution to mitigate this race condition is to first reduce the spender's allowance to 0 and set the desired value afterwards: https://github.com/ethereum/EIPs/issues/20#issuecomment-263524729 Emits an {Approval} event."},"asset()":{"notice":"Returns the asset token reference by IERC4626, uses the underlying token as the asset for ERC4626 so that it is compatible with more use cases."},"balanceOf(address)":{"notice":"Required ERC20 Methods "},"convertToAssets(uint256)":{"notice":"Converts nToken denomination to underlying denomination"},"convertToShares(uint256)":{"notice":"Converts an underlying token to an nToken denomination"},"currencyId()":{"notice":"Currency id that this nToken refers to"},"decimals()":{"notice":"Inherits from Constants.INTERNAL_TOKEN_PRECISION"},"deposit(uint256,address)":{"notice":"Deposits assets into nToken for the receiver's account. Requires that the ERC4626 token has approval to transfer assets from the msg.sender directly to Notional."},"emitMintOrBurn(address,int256)":{"notice":"Convenience method for minting and burning"},"emitMintTransferBurn(address,address,uint256,uint256)":{"notice":"Convenience method for mint, transfer and burn. Used in vaults to record margin deposits and withdraws."},"emitTransfer(address,address,uint256)":{"notice":"Allows ERC20 transfer events to be emitted from the proper address so that wallet tools can properly track balances."},"emitfCashTradeTransfers(address,address,int256,uint256)":{"notice":"Only used on pCash when fCash is traded."},"getPresentValueAssetDenominated()":{"notice":"Returns the present value of the nToken's assets denominated in asset tokens"},"getPresentValueUnderlyingDenominated()":{"notice":"Returns the present value of the nToken's assets denominated in underlying"},"maxDeposit(address)":{"notice":"Gets the max underlying supply"},"maxMint(address)":{"notice":"Gets the max underlying supply and converts it to shares"},"maxRedeem(address)":{"details":"Returns the maximum amount of Vault shares that can be redeemed from the owner balance in the Vault, through a redeem call. - MUST return a limited value if owner is subject to some withdrawal limit or timelock. - MUST return balanceOf(owner) if owner is not subject to any withdrawal limit or timelock. - MUST NOT revert."},"maxWithdraw(address)":{"details":"Returns the maximum amount of the underlying asset that can be withdrawn from the owner balance in the Vault, through a withdraw call. - MUST return a limited value if owner is subject to some withdrawal limit or timelock. - MUST NOT revert."},"mint(uint256,address)":{"notice":"Deposits assets into nToken for the receiver's account. Requires that the ERC4626 token has approval to transfer assets from the msg.sender directly to Notional."},"name()":{"notice":"Will be \"[Staked] nToken {Underlying Token}.name()\", therefore \"USD Coin\" will be \"nToken USD Coin\" for the regular nToken and \"Staked nToken USD Coin\" for the staked version."},"nativeDecimals()":{"notice":"Native underlying decimal places"},"previewDeposit(uint256)":{"notice":"Deposits are based on the conversion rate assets to shares"},"previewMint(uint256)":{"notice":"Mints are based on the conversion rate from shares to assets"},"previewRedeem(uint256)":{"details":"Redemptions of nToken shares to underlying assets will experience slippage which is not easily calculated. In some situations, slippage may be so great that the shares are not able to be redeemed purely via the ERC4626 method and would require the account to call nTokenRedeem on AccountAction and take on illiquid fCash residuals.","notice":"Return value is an over-estimation of the assets that the user will receive via redemptions, this method does not account for slippage and potential illiquid residuals. This method is not completely ERC4626 compliant in that sense."},"previewWithdraw(uint256)":{"notice":"Return value is an under-estimation of the shares that the user will need to redeem to raise assets, this method does not account for slippage and potential illiquid residuals. This method is not completely ERC4626 compliant in that sense."},"redeem(uint256,address,address)":{"notice":"Redeems the specified amount of nTokens (shares) for some amount of assets."},"symbol()":{"notice":"Will be \"[s]n{Underlying Token}.symbol()\", therefore \"USDC\" will be \"nUSDC\""},"totalAssets()":{"notice":"Returns the total present value of the nTokens held in native underlying token precision"},"totalSupply()":{"details":"Returns the amount of tokens in existence."},"underlying()":{"notice":"ERC20 underlying token referred to as the \"asset\" in IERC4626"},"withdraw(uint256,address,address)":{"notice":"Redeems assets from the owner and sends them to the receiver. WARNING: the assets provided as a value here will not be what the method actually redeems due to estimation issues."}},"notice":"ERC20 proxy for nToken contracts that forwards calls to the Router, all nToken balances and allowances are stored in at single address for gas efficiency. This contract is used simply for ERC20 compliance.","version":1},"opcodes":"PUSH1 0x80 PUSH1 0x40 MSTORE CALLVALUE DUP1 ISZERO PUSH2 0x10 JUMPI PUSH1 0x0 DUP1 REVERT JUMPDEST POP PUSH1 0x4 CALLDATASIZE LT PUSH2 0x23D JUMPI PUSH1 0x0 CALLDATALOAD PUSH1 0xE0 SHR DUP1 PUSH4 0x768EA56A GT PUSH2 0x13B JUMPI DUP1 PUSH4 0xB3D7F6B9 GT PUSH2 0xB8 JUMPI DUP1 PUSH4 0xCCB2D5ED GT PUSH2 0x7C JUMPI DUP1 PUSH4 0xCCB2D5ED EQ PUSH2 0x474 JUMPI DUP1 PUSH4 0xCE96CB77 EQ PUSH2 0x487 JUMPI DUP1 PUSH4 0xD905777E EQ PUSH2 0x38E JUMPI DUP1 PUSH4 0xDD62ED3E EQ PUSH2 0x49A JUMPI DUP1 PUSH4 0xEF8B30F7 EQ PUSH2 0x2A8 JUMPI PUSH2 0x23D JUMP JUMPDEST DUP1 PUSH4 0xB3D7F6B9 EQ PUSH2 0x360 JUMPI DUP1 PUSH4 0xB460AF94 EQ PUSH2 0x428 JUMPI DUP1 PUSH4 0xBA087652 EQ PUSH2 0x43B JUMPI DUP1 PUSH4 0xC63D75B6 EQ PUSH2 0x44E JUMPI DUP1 PUSH4 0xC6E6F592 EQ PUSH2 0x461 JUMPI PUSH2 0x23D JUMP JUMPDEST DUP1 PUSH4 0x95D89B41 GT PUSH2 0xFF JUMPI DUP1 PUSH4 0x95D89B41 EQ PUSH2 0x3D4 JUMPI DUP1 PUSH4 0x9C7C722B EQ PUSH2 0x3DC JUMPI DUP1 PUSH4 0xA9059CBB EQ PUSH2 0x3EF JUMPI DUP1 PUSH4 0xA992714E EQ PUSH2 0x402 JUMPI DUP1 PUSH4 0xAD1C095D EQ PUSH2 0x415 JUMPI PUSH2 0x23D JUMP JUMPDEST DUP1 PUSH4 0x768EA56A EQ PUSH2 0x3A1 JUMPI DUP1 PUSH4 0x858DCCB3 EQ PUSH2 0x3A9 JUMPI DUP1 PUSH4 0x90AB60A7 EQ PUSH2 0x3B1 JUMPI DUP1 PUSH4 0x91CF16A8 EQ PUSH2 0x3B9 JUMPI DUP1 PUSH4 0x94BF804D EQ PUSH2 0x3C1 JUMPI PUSH2 0x23D JUMP JUMPDEST DUP1 PUSH4 0x313CE567 GT PUSH2 0x1C9 JUMPI DUP1 PUSH4 0x402D267D GT PUSH2 0x18D JUMPI DUP1 PUSH4 0x402D267D EQ PUSH2 0x34D JUMPI DUP1 PUSH4 0x4CDAD506 EQ PUSH2 0x360 JUMPI DUP1 PUSH4 0x6E553F65 EQ PUSH2 0x373 JUMPI DUP1 PUSH4 0x6F307DC3 EQ PUSH2 0x386 JUMPI DUP1 PUSH4 0x70A08231 EQ PUSH2 0x38E JUMPI PUSH2 0x23D JUMP JUMPDEST DUP1 PUSH4 0x313CE567 EQ PUSH2 0x300 JUMPI DUP1 PUSH4 0x38D52E0F EQ PUSH2 0x315 JUMPI DUP1 PUSH4 0x39DE9746 EQ PUSH2 0x32A JUMPI DUP1 PUSH4 0x3A01B964 EQ PUSH2 0x33D JUMPI DUP1 PUSH4 0x3BA0B9A9 EQ PUSH2 0x345 JUMPI PUSH2 0x23D JUMP JUMPDEST DUP1 PUSH4 0xA28A477 GT PUSH2 0x210 JUMPI DUP1 PUSH4 0xA28A477 EQ PUSH2 0x2A8 JUMPI DUP1 PUSH4 0x18160DDD EQ PUSH2 0x2BB JUMPI DUP1 PUSH4 0x1FEEECE2 EQ PUSH2 0x2C3 JUMPI DUP1 PUSH4 0x23B872DD EQ PUSH2 0x2D8 JUMPI DUP1 PUSH4 0x23DE6651 EQ PUSH2 0x2EB JUMPI PUSH2 0x23D JUMP JUMPDEST DUP1 PUSH4 0x1E1D114 EQ PUSH2 0x242 JUMPI DUP1 PUSH4 0x6FDDE03 EQ PUSH2 0x260 JUMPI DUP1 PUSH4 0x7A2D13A EQ PUSH2 0x275 JUMPI DUP1 PUSH4 0x95EA7B3 EQ PUSH2 0x288 JUMPI JUMPDEST PUSH1 0x0 DUP1 REVERT JUMPDEST PUSH2 0x24A PUSH2 0x4AD JUMP JUMPDEST PUSH1 0x40 MLOAD PUSH2 0x257 SWAP2 SWAP1 PUSH2 0x2586 JUMP JUMPDEST PUSH1 0x40 MLOAD DUP1 SWAP2 SUB SWAP1 RETURN JUMPDEST PUSH2 0x268 PUSH2 0x4BC JUMP JUMPDEST PUSH1 0x40 MLOAD PUSH2 0x257 SWAP2 SWAP1 PUSH2 0x258F JUMP JUMPDEST PUSH2 0x24A PUSH2 0x283 CALLDATASIZE PUSH1 0x4 PUSH2 0x245E JUMP JUMPDEST PUSH2 0x549 JUMP JUMPDEST PUSH2 0x29B PUSH2 0x296 CALLDATASIZE PUSH1 0x4 PUSH2 0x221A JUMP JUMPDEST PUSH2 0x577 JUMP JUMPDEST PUSH1 0x40 MLOAD PUSH2 0x257 SWAP2 SWAP1 PUSH2 0x257B JUMP JUMPDEST PUSH2 0x24A PUSH2 0x2B6 CALLDATASIZE PUSH1 0x4 PUSH2 0x245E JUMP JUMPDEST PUSH2 0x5DD JUMP JUMPDEST PUSH2 0x24A PUSH2 0x5E8 JUMP JUMPDEST PUSH2 0x2CB PUSH2 0x5F2 JUMP JUMPDEST PUSH1 0x40 MLOAD PUSH2 0x257 SWAP2 SWAP1 PUSH2 0x2611 JUMP JUMPDEST PUSH2 0x29B PUSH2 0x2E6 CALLDATASIZE PUSH1 0x4 PUSH2 0x21C5 JUMP JUMPDEST PUSH2 0x5FC JUMP JUMPDEST PUSH2 0x2FE PUSH2 0x2F9 CALLDATASIZE PUSH1 0x4 PUSH2 0x21C5 JUMP JUMPDEST PUSH2 0x655 JUMP JUMPDEST STOP JUMPDEST PUSH2 0x308 PUSH2 0x6E4 JUMP JUMPDEST PUSH1 0x40 MLOAD PUSH2 0x257 SWAP2 SWAP1 PUSH2 0x26E3 JUMP JUMPDEST PUSH2 0x31D PUSH2 0x6E9 JUMP JUMPDEST PUSH1 0x40 MLOAD PUSH2 0x257 SWAP2 SWAP1 PUSH2 0x2567 JUMP JUMPDEST PUSH2 0x2FE PUSH2 0x338 CALLDATASIZE PUSH1 0x4 PUSH2 0x2205 JUMP JUMPDEST PUSH2 0x6FF JUMP JUMPDEST PUSH2 0x24A PUSH2 0x7FA JUMP JUMPDEST PUSH2 0x24A PUSH2 0x806 JUMP JUMPDEST PUSH2 0x24A PUSH2 0x35B CALLDATASIZE PUSH1 0x4 PUSH2 0x2110 JUMP JUMPDEST PUSH2 0x83C JUMP JUMPDEST PUSH2 0x24A PUSH2 0x36E CALLDATASIZE PUSH1 0x4 PUSH2 0x245E JUMP JUMPDEST PUSH2 0x946 JUMP JUMPDEST PUSH2 0x24A PUSH2 0x381 CALLDATASIZE PUSH1 0x4 PUSH2 0x2476 JUMP JUMPDEST PUSH2 0x951 JUMP JUMPDEST PUSH2 0x31D PUSH2 0x9FD JUMP JUMPDEST PUSH2 0x24A PUSH2 0x39C CALLDATASIZE PUSH1 0x4 PUSH2 0x2110 JUMP JUMPDEST PUSH2 0xA13 JUMP JUMPDEST PUSH2 0x308 PUSH2 0xA1E JUMP JUMPDEST PUSH2 0x31D PUSH2 0xA2D JUMP JUMPDEST PUSH2 0x24A PUSH2 0xA51 JUMP JUMPDEST PUSH2 0x24A PUSH2 0xAF8 JUMP JUMPDEST PUSH2 0x24A PUSH2 0x3CF CALLDATASIZE PUSH1 0x4 PUSH2 0x2476 JUMP JUMPDEST PUSH2 0xB4F JUMP JUMPDEST PUSH2 0x268 PUSH2 0xC09 JUMP JUMPDEST PUSH2 0x2FE PUSH2 0x3EA CALLDATASIZE PUSH1 0x4 PUSH2 0x227D JUMP JUMPDEST PUSH2 0xC61 JUMP JUMPDEST PUSH2 0x29B PUSH2 0x3FD CALLDATASIZE PUSH1 0x4 PUSH2 0x221A JUMP JUMPDEST PUSH2 0xDBD JUMP JUMPDEST PUSH2 0x2FE PUSH2 0x410 CALLDATASIZE PUSH1 0x4 PUSH2 0x23D2 JUMP JUMPDEST PUSH2 0xE0E JUMP JUMPDEST PUSH2 0x2FE PUSH2 0x423 CALLDATASIZE PUSH1 0x4 PUSH2 0x221A JUMP JUMPDEST PUSH2 0x10D9 JUMP JUMPDEST PUSH2 0x24A PUSH2 0x436 CALLDATASIZE PUSH1 0x4 PUSH2 0x249A JUMP JUMPDEST PUSH2 0x11A7 JUMP JUMPDEST PUSH2 0x24A PUSH2 0x449 CALLDATASIZE PUSH1 0x4 PUSH2 0x249A JUMP JUMPDEST PUSH2 0x1276 JUMP JUMPDEST PUSH2 0x24A PUSH2 0x45C CALLDATASIZE PUSH1 0x4 PUSH2 0x2110 JUMP JUMPDEST PUSH2 0x131F JUMP JUMPDEST PUSH2 0x24A PUSH2 0x46F CALLDATASIZE PUSH1 0x4 PUSH2 0x245E JUMP JUMPDEST PUSH2 0x1344 JUMP JUMPDEST PUSH2 0x2FE PUSH2 0x482 CALLDATASIZE PUSH1 0x4 PUSH2 0x2180 JUMP JUMPDEST PUSH2 0x1363 JUMP JUMPDEST PUSH2 0x24A PUSH2 0x495 CALLDATASIZE PUSH1 0x4 PUSH2 0x2110 JUMP JUMPDEST PUSH2 0x1467 JUMP JUMPDEST PUSH2 0x24A PUSH2 0x4A8 CALLDATASIZE PUSH1 0x4 PUSH2 0x2148 JUMP JUMPDEST PUSH2 0x1475 JUMP JUMPDEST PUSH1 0x0 PUSH2 0x4B7 PUSH2 0x1487 JUMP JUMPDEST SWAP1 POP SWAP1 JUMP JUMPDEST PUSH1 0x1 DUP1 SLOAD PUSH1 0x40 DUP1 MLOAD PUSH1 0x20 PUSH1 0x2 DUP5 DUP7 AND ISZERO PUSH2 0x100 MUL PUSH1 0x0 NOT ADD SWAP1 SWAP5 AND SWAP4 SWAP1 SWAP4 DIV PUSH1 0x1F DUP2 ADD DUP5 SWAP1 DIV DUP5 MUL DUP3 ADD DUP5 ADD SWAP1 SWAP3 MSTORE DUP2 DUP2 MSTORE SWAP3 SWAP2 DUP4 ADD DUP3 DUP3 DUP1 ISZERO PUSH2 0x541 JUMPI DUP1 PUSH1 0x1F LT PUSH2 0x516 JUMPI PUSH2 0x100 DUP1 DUP4 SLOAD DIV MUL DUP4 MSTORE SWAP2 PUSH1 0x20 ADD SWAP2 PUSH2 0x541 JUMP JUMPDEST DUP3 ADD SWAP2 SWAP1 PUSH1 0x0 MSTORE PUSH1 0x20 PUSH1 0x0 KECCAK256 SWAP1 JUMPDEST DUP2 SLOAD DUP2 MSTORE SWAP1 PUSH1 0x1 ADD SWAP1 PUSH1 0x20 ADD DUP1 DUP4 GT PUSH2 0x524 JUMPI DUP3 SWAP1 SUB PUSH1 0x1F AND DUP3 ADD SWAP2 JUMPDEST POP POP POP POP POP DUP2 JUMP JUMPDEST PUSH1 0x0 PUSH2 0x56F PUSH8 0xDE0B6B3A7640000 PUSH2 0x569 DUP5 PUSH2 0x563 PUSH2 0x806 JUMP JUMPDEST SWAP1 PUSH2 0x156A JUMP JUMPDEST SWAP1 PUSH2 0x1591 JUMP JUMPDEST SWAP1 POP JUMPDEST SWAP2 SWAP1 POP JUMP JUMPDEST PUSH1 0x0 PUSH2 0x583 DUP4 DUP4 PUSH2 0x15B0 JUMP JUMPDEST SWAP1 POP DUP1 ISZERO PUSH2 0x5D7 JUMPI DUP3 PUSH1 0x1 PUSH1 0x1 PUSH1 0xA0 SHL SUB AND CALLER PUSH1 0x1 PUSH1 0x1 PUSH1 0xA0 SHL SUB AND PUSH32 0x8C5BE1E5EBEC7D5BD14F71427D1E84F3DD0314C0F7B2291E5B200AC8C7C3B925 DUP5 PUSH1 0x40 MLOAD PUSH2 0x5CE SWAP2 SWAP1 PUSH2 0x2586 JUMP JUMPDEST PUSH1 0x40 MLOAD DUP1 SWAP2 SUB SWAP1 LOG3 JUMPDEST SWAP3 SWAP2 POP POP JUMP JUMPDEST PUSH1 0x0 PUSH2 0x56F DUP3 PUSH2 0x1344 JUMP JUMPDEST PUSH1 0x0 PUSH2 0x4B7 PUSH2 0x165F JUMP JUMPDEST PUSH1 0x3 SLOAD PUSH2 0xFFFF AND DUP2 JUMP JUMPDEST PUSH1 0x0 DUP3 PUSH1 0x1 PUSH1 0x1 PUSH1 0xA0 SHL SUB AND DUP5 PUSH1 0x1 PUSH1 0x1 PUSH1 0xA0 SHL SUB AND PUSH1 0x0 DUP1 MLOAD PUSH1 0x20 PUSH2 0x2788 DUP4 CODECOPY DUP2 MLOAD SWAP2 MSTORE DUP5 PUSH1 0x40 MLOAD PUSH2 0x62F SWAP2 SWAP1 PUSH2 0x2586 JUMP JUMPDEST PUSH1 0x40 MLOAD DUP1 SWAP2 SUB SWAP1 LOG3 PUSH2 0x642 DUP5 DUP5 DUP5 PUSH2 0x16AE JUMP JUMPDEST SWAP1 POP DUP1 PUSH2 0x64E JUMPI PUSH1 0x0 DUP1 REVERT JUMPDEST SWAP4 SWAP3 POP POP POP JUMP JUMPDEST CALLER PUSH1 0x1 PUSH1 0x1 PUSH1 0xA0 SHL SUB PUSH32 0x0 AND EQ PUSH2 0x6A6 JUMPI PUSH1 0x40 MLOAD PUSH3 0x461BCD PUSH1 0xE5 SHL DUP2 MSTORE PUSH1 0x4 ADD PUSH2 0x69D SWAP1 PUSH2 0x25EB JUMP JUMPDEST PUSH1 0x40 MLOAD DUP1 SWAP2 SUB SWAP1 REVERT JUMPDEST DUP2 PUSH1 0x1 PUSH1 0x1 PUSH1 0xA0 SHL SUB AND DUP4 PUSH1 0x1 PUSH1 0x1 PUSH1 0xA0 SHL SUB AND PUSH1 0x0 DUP1 MLOAD PUSH1 0x20 PUSH2 0x2788 DUP4 CODECOPY DUP2 MLOAD SWAP2 MSTORE DUP4 PUSH1 0x40 MLOAD PUSH2 0x6D7 SWAP2 SWAP1 PUSH2 0x2586 JUMP JUMPDEST PUSH1 0x40 MLOAD DUP1 SWAP2 SUB SWAP1 LOG3 POP POP POP JUMP JUMPDEST PUSH1 0x8 DUP2 JUMP JUMPDEST PUSH1 0x3 SLOAD PUSH4 0x1000000 SWAP1 DIV PUSH1 0x1 PUSH1 0x1 PUSH1 0xA0 SHL SUB AND SWAP1 JUMP JUMPDEST CALLER PUSH1 0x1 PUSH1 0x1 PUSH1 0xA0 SHL SUB PUSH32 0x0 AND EQ PUSH2 0x747 JUMPI PUSH1 0x40 MLOAD PUSH3 0x461BCD PUSH1 0xE5 SHL DUP2 MSTORE PUSH1 0x4 ADD PUSH2 0x69D SWAP1 PUSH2 0x25EB JUMP JUMPDEST DUP4 PUSH1 0x1 PUSH1 0x1 PUSH1 0xA0 SHL SUB AND PUSH1 0x0 PUSH1 0x1 PUSH1 0x1 PUSH1 0xA0 SHL SUB AND PUSH1 0x0 DUP1 MLOAD PUSH1 0x20 PUSH2 0x2788 DUP4 CODECOPY DUP2 MLOAD SWAP2 MSTORE DUP5 PUSH1 0x40 MLOAD PUSH2 0x779 SWAP2 SWAP1 PUSH2 0x2586 JUMP JUMPDEST PUSH1 0x40 MLOAD DUP1 SWAP2 SUB SWAP1 LOG3 DUP3 PUSH1 0x1 PUSH1 0x1 PUSH1 0xA0 SHL SUB AND DUP5 PUSH1 0x1 PUSH1 0x1 PUSH1 0xA0 SHL SUB AND PUSH1 0x0 DUP1 MLOAD PUSH1 0x20 PUSH2 0x2788 DUP4 CODECOPY DUP2 MLOAD SWAP2 MSTORE DUP4 PUSH1 0x40 MLOAD PUSH2 0x7B2 SWAP2 SWAP1 PUSH2 0x2586 JUMP JUMPDEST PUSH1 0x40 MLOAD DUP1 SWAP2 SUB SWAP1 LOG3 PUSH1 0x0 PUSH1 0x1 PUSH1 0x1 PUSH1 0xA0 SHL SUB AND DUP4 PUSH1 0x1 PUSH1 0x1 PUSH1 0xA0 SHL SUB AND PUSH1 0x0 DUP1 MLOAD PUSH1 0x20 PUSH2 0x2788 DUP4 CODECOPY DUP2 MLOAD SWAP2 MSTORE DUP4 PUSH1 0x40 MLOAD PUSH2 0x7EC SWAP2 SWAP1 PUSH2 0x2586 JUMP JUMPDEST PUSH1 0x40 MLOAD DUP1 SWAP2 SUB SWAP1 LOG3 POP POP POP POP JUMP JUMPDEST PUSH8 0xDE0B6B3A7640000 DUP2 JUMP JUMPDEST PUSH1 0x0 DUP1 PUSH2 0x811 PUSH2 0x1487 JUMP JUMPDEST SWAP1 POP PUSH1 0x0 PUSH2 0x81D PUSH2 0x165F JUMP JUMPDEST SWAP1 POP PUSH2 0x835 DUP2 PUSH2 0x569 DUP5 PUSH8 0xDE0B6B3A7640000 PUSH2 0x156A JUMP JUMPDEST SWAP3 POP POP POP SWAP1 JUMP JUMPDEST PUSH1 0x3 SLOAD PUSH1 0x40 MLOAD PUSH4 0x206F2799 PUSH1 0xE0 SHL DUP2 MSTORE PUSH1 0x0 SWAP2 DUP3 SWAP2 DUP3 SWAP2 PUSH1 0x1 PUSH1 0x1 PUSH1 0xA0 SHL SUB PUSH32 0x0 AND SWAP2 PUSH4 0x206F2799 SWAP2 PUSH2 0x899 SWAP2 PUSH2 0xFFFF SWAP1 SWAP2 AND SWAP1 TIMESTAMP SWAP1 PUSH1 0x4 ADD PUSH2 0x26C1 JUMP JUMPDEST PUSH2 0x1C0 PUSH1 0x40 MLOAD DUP1 DUP4 SUB DUP2 DUP7 DUP1 EXTCODESIZE ISZERO DUP1 ISZERO PUSH2 0x8B2 JUMPI PUSH1 0x0 DUP1 REVERT JUMPDEST POP GAS STATICCALL ISZERO DUP1 ISZERO PUSH2 0x8C6 JUMPI RETURNDATASIZE PUSH1 0x0 DUP1 RETURNDATACOPY RETURNDATASIZE PUSH1 0x0 REVERT JUMPDEST POP POP POP POP PUSH1 0x40 MLOAD RETURNDATASIZE PUSH1 0x1F NOT PUSH1 0x1F DUP3 ADD AND DUP3 ADD DUP1 PUSH1 0x40 MSTORE POP DUP2 ADD SWAP1 PUSH2 0x8EA SWAP2 SWAP1 PUSH2 0x22DE JUMP JUMPDEST SWAP4 POP SWAP4 POP POP POP DUP2 PUSH1 0x0 EQ ISZERO PUSH2 0x905 JUMPI PUSH1 0x0 NOT SWAP3 POP POP POP PUSH2 0x572 JUMP JUMPDEST DUP1 DUP3 GT PUSH2 0x917 JUMPI PUSH1 0x0 SWAP3 POP POP POP PUSH2 0x572 JUMP JUMPDEST PUSH1 0x3 SLOAD PUSH2 0x93D SWAP1 PUSH4 0x5F5E100 SWAP1 PUSH2 0x569 SWAP1 DUP5 DUP7 SUB SWAP1 PUSH3 0x10000 SWAP1 DIV PUSH1 0xFF AND PUSH1 0xA EXP PUSH2 0x156A JUMP JUMPDEST SWAP3 POP POP POP PUSH2 0x572 JUMP JUMPDEST PUSH1 0x0 PUSH2 0x56F DUP3 PUSH2 0x549 JUMP JUMPDEST PUSH1 0x0 DUP1 PUSH2 0x95D DUP5 PUSH2 0x1767 JUMP JUMPDEST SWAP1 SWAP5 POP SWAP1 POP PUSH2 0x96D DUP5 DUP3 DUP6 PUSH2 0x1937 JUMP JUMPDEST SWAP2 POP DUP3 PUSH1 0x1 PUSH1 0x1 PUSH1 0xA0 SHL SUB AND PUSH1 0x0 PUSH1 0x1 PUSH1 0x1 PUSH1 0xA0 SHL SUB AND PUSH1 0x0 DUP1 MLOAD PUSH1 0x20 PUSH2 0x2788 DUP4 CODECOPY DUP2 MLOAD SWAP2 MSTORE DUP5 PUSH1 0x40 MLOAD PUSH2 0x9A1 SWAP2 SWAP1 PUSH2 0x2586 JUMP JUMPDEST PUSH1 0x40 MLOAD DUP1 SWAP2 SUB SWAP1 LOG3 DUP3 PUSH1 0x1 PUSH1 0x1 PUSH1 0xA0 SHL SUB AND CALLER PUSH1 0x1 PUSH1 0x1 PUSH1 0xA0 SHL SUB AND PUSH32 0xDCBC1C05240F31FF3AD067EF1EE35CE4997762752E3A095284754544F4C709D7 DUP7 DUP6 PUSH1 0x40 MLOAD PUSH2 0x9EE SWAP3 SWAP2 SWAP1 PUSH2 0x26D5 JUMP JUMPDEST PUSH1 0x40 MLOAD DUP1 SWAP2 SUB SWAP1 LOG3 POP SWAP3 SWAP2 POP POP JUMP JUMPDEST PUSH1 0x3 SLOAD PUSH4 0x1000000 SWAP1 DIV PUSH1 0x1 PUSH1 0x1 PUSH1 0xA0 SHL SUB AND DUP2 JUMP JUMPDEST PUSH1 0x0 PUSH2 0x56F DUP3 PUSH2 0x1951 JUMP JUMPDEST PUSH1 0x3 SLOAD PUSH3 0x10000 SWAP1 DIV PUSH1 0xFF AND DUP2 JUMP JUMPDEST PUSH32 0x0 DUP2 JUMP JUMPDEST PUSH1 0x3 SLOAD PUSH1 0x40 MLOAD PUSH4 0x1A05BCE1 PUSH1 0xE0 SHL DUP2 MSTORE PUSH1 0x0 SWAP2 PUSH1 0x1 PUSH1 0x1 PUSH1 0xA0 SHL SUB PUSH32 0x0 AND SWAP2 PUSH4 0x1A05BCE1 SWAP2 PUSH2 0xAA8 SWAP2 PUSH2 0xFFFF SWAP1 SWAP2 AND SWAP1 PUSH1 0x4 ADD PUSH2 0x2611 JUMP JUMPDEST PUSH1 0x20 PUSH1 0x40 MLOAD DUP1 DUP4 SUB DUP2 DUP7 DUP1 EXTCODESIZE ISZERO DUP1 ISZERO PUSH2 0xAC0 JUMPI PUSH1 0x0 DUP1 REVERT JUMPDEST POP GAS STATICCALL ISZERO DUP1 ISZERO PUSH2 0xAD4 JUMPI RETURNDATASIZE PUSH1 0x0 DUP1 RETURNDATACOPY RETURNDATASIZE PUSH1 0x0 REVERT JUMPDEST POP POP POP POP PUSH1 0x40 MLOAD RETURNDATASIZE PUSH1 0x1F NOT PUSH1 0x1F DUP3 ADD AND DUP3 ADD DUP1 PUSH1 0x40 MSTORE POP DUP2 ADD SWAP1 PUSH2 0x4B7 SWAP2 SWAP1 PUSH2 0x2265 JUMP JUMPDEST PUSH1 0x3 SLOAD PUSH1 0x40 MLOAD PUSH4 0x3B2987B3 PUSH1 0xE0 SHL DUP2 MSTORE PUSH1 0x0 SWAP2 PUSH1 0x1 PUSH1 0x1 PUSH1 0xA0 SHL SUB PUSH32 0x0 AND SWAP2 PUSH4 0x3B2987B3 SWAP2 PUSH2 0xAA8 SWAP2 PUSH2 0xFFFF SWAP1 SWAP2 AND SWAP1 PUSH1 0x4 ADD PUSH2 0x2611 JUMP JUMPDEST PUSH1 0x0 DUP1 PUSH2 0xB5B DUP5 PUSH2 0x946 JUMP JUMPDEST SWAP2 POP PUSH2 0xB66 DUP3 PUSH2 0x1767 JUMP JUMPDEST SWAP1 SWAP3 POP SWAP1 POP PUSH1 0x0 PUSH2 0xB78 DUP4 DUP4 DUP7 PUSH2 0x1937 JUMP JUMPDEST SWAP1 POP DUP4 PUSH1 0x1 PUSH1 0x1 PUSH1 0xA0 SHL SUB AND PUSH1 0x0 PUSH1 0x1 PUSH1 0x1 PUSH1 0xA0 SHL SUB AND PUSH1 0x0 DUP1 MLOAD PUSH1 0x20 PUSH2 0x2788 DUP4 CODECOPY DUP2 MLOAD SWAP2 MSTORE DUP4 PUSH1 0x40 MLOAD PUSH2 0xBAC SWAP2 SWAP1 PUSH2 0x2586 JUMP JUMPDEST PUSH1 0x40 MLOAD DUP1 SWAP2 SUB SWAP1 LOG3 DUP4 PUSH1 0x1 PUSH1 0x1 PUSH1 0xA0 SHL SUB AND CALLER PUSH1 0x1 PUSH1 0x1 PUSH1 0xA0 SHL SUB AND PUSH32 0xDCBC1C05240F31FF3AD067EF1EE35CE4997762752E3A095284754544F4C709D7 DUP6 DUP5 PUSH1 0x40 MLOAD PUSH2 0xBF9 SWAP3 SWAP2 SWAP1 PUSH2 0x26D5 JUMP JUMPDEST PUSH1 0x40 MLOAD DUP1 SWAP2 SUB SWAP1 LOG3 POP POP SWAP3 SWAP2 POP POP JUMP JUMPDEST PUSH1 0x2 DUP1 SLOAD PUSH1 0x40 DUP1 MLOAD PUSH1 0x20 PUSH1 0x1 DUP5 AND ISZERO PUSH2 0x100 MUL PUSH1 0x0 NOT ADD SWAP1 SWAP4 AND DUP5 SWAP1 DIV PUSH1 0x1F DUP2 ADD DUP5 SWAP1 DIV DUP5 MUL DUP3 ADD DUP5 ADD SWAP1 SWAP3 MSTORE DUP2 DUP2 MSTORE SWAP3 SWAP2 DUP4 ADD DUP3 DUP3 DUP1 ISZERO PUSH2 0x541 JUMPI DUP1 PUSH1 0x1F LT PUSH2 0x516 JUMPI PUSH2 0x100 DUP1 DUP4 SLOAD DIV MUL DUP4 MSTORE SWAP2 PUSH1 0x20 ADD SWAP2 PUSH2 0x541 JUMP JUMPDEST PUSH32 0x0 PUSH1 0x1 PUSH1 0x1 PUSH1 0xA0 SHL SUB AND PUSH4 0x8DA5CB5B PUSH1 0x40 MLOAD DUP2 PUSH4 0xFFFFFFFF AND PUSH1 0xE0 SHL DUP2 MSTORE PUSH1 0x4 ADD PUSH1 0x20 PUSH1 0x40 MLOAD DUP1 DUP4 SUB DUP2 DUP7 DUP1 EXTCODESIZE ISZERO DUP1 ISZERO PUSH2 0xCBA JUMPI PUSH1 0x0 DUP1 REVERT JUMPDEST POP GAS STATICCALL ISZERO DUP1 ISZERO PUSH2 0xCCE JUMPI RETURNDATASIZE PUSH1 0x0 DUP1 RETURNDATACOPY RETURNDATASIZE PUSH1 0x0 REVERT JUMPDEST POP POP POP POP PUSH1 0x40 MLOAD RETURNDATASIZE PUSH1 0x1F NOT PUSH1 0x1F DUP3 ADD AND DUP3 ADD DUP1 PUSH1 0x40 MSTORE POP DUP2 ADD SWAP1 PUSH2 0xCF2 SWAP2 SWAP1 PUSH2 0x212C JUMP JUMPDEST PUSH1 0x1 PUSH1 0x1 PUSH1 0xA0 SHL SUB AND CALLER PUSH1 0x1 PUSH1 0x1 PUSH1 0xA0 SHL SUB AND EQ PUSH2 0xD0F JUMPI PUSH1 0x0 DUP1 REVERT JUMPDEST PUSH1 0x0 DUP1 PUSH2 0xD1A PUSH2 0x19FA JUMP JUMPDEST SWAP2 POP SWAP2 POP DUP2 DUP5 PUSH1 0x40 MLOAD PUSH1 0x20 ADD PUSH2 0xD31 SWAP3 SWAP2 SWAP1 PUSH2 0x252B JUMP JUMPDEST PUSH1 0x40 MLOAD PUSH1 0x20 DUP2 DUP4 SUB SUB DUP2 MSTORE SWAP1 PUSH1 0x40 MSTORE PUSH1 0x1 SWAP1 DUP1 MLOAD SWAP1 PUSH1 0x20 ADD SWAP1 PUSH2 0xD55 SWAP3 SWAP2 SWAP1 PUSH2 0x2013 JUMP JUMPDEST POP DUP1 DUP4 PUSH1 0x40 MLOAD PUSH1 0x20 ADD PUSH2 0xD69 SWAP3 SWAP2 SWAP1 PUSH2 0x24FC JUMP JUMPDEST PUSH1 0x40 MLOAD PUSH1 0x20 DUP2 DUP4 SUB SUB DUP2 MSTORE SWAP1 PUSH1 0x40 MSTORE PUSH1 0x2 SWAP1 DUP1 MLOAD SWAP1 PUSH1 0x20 ADD SWAP1 PUSH2 0xD8D SWAP3 SWAP2 SWAP1 PUSH2 0x2013 JUMP JUMPDEST POP PUSH1 0x40 MLOAD PUSH32 0x8D4BC6886F1B5887A0C7DA5CF5DBDF35C7BCCED78089E0E522B49BE058176999 SWAP1 PUSH1 0x0 SWAP1 LOG1 POP POP POP POP JUMP JUMPDEST PUSH1 0x0 DUP3 PUSH1 0x1 PUSH1 0x1 PUSH1 0xA0 SHL SUB AND CALLER PUSH1 0x1 PUSH1 0x1 PUSH1 0xA0 SHL SUB AND PUSH1 0x0 DUP1 MLOAD PUSH1 0x20 PUSH2 0x2788 DUP4 CODECOPY DUP2 MLOAD SWAP2 MSTORE DUP5 PUSH1 0x40 MLOAD PUSH2 0xDF0 SWAP2 SWAP1 PUSH2 0x2586 JUMP JUMPDEST PUSH1 0x40 MLOAD DUP1 SWAP2 SUB SWAP1 LOG3 PUSH2 0xE02 DUP4 DUP4 PUSH2 0x1A32 JUMP JUMPDEST SWAP1 POP DUP1 PUSH2 0x5D7 JUMPI PUSH1 0x0 DUP1 REVERT JUMPDEST CALLER PUSH1 0x1 PUSH1 0x1 PUSH1 0xA0 SHL SUB PUSH32 0x0 AND EQ PUSH2 0xE56 JUMPI PUSH1 0x40 MLOAD PUSH3 0x461BCD PUSH1 0xE5 SHL DUP2 MSTORE PUSH1 0x4 ADD PUSH2 0x69D SWAP1 PUSH2 0x25EB JUMP JUMPDEST PUSH1 0x0 SLOAD PUSH2 0x100 SWAP1 DIV PUSH1 0xFF AND DUP1 PUSH2 0xE6F JUMPI POP PUSH2 0xE6F PUSH2 0x1A8F JUMP JUMPDEST DUP1 PUSH2 0xE7D JUMPI POP PUSH1 0x0 SLOAD PUSH1 0xFF AND ISZERO JUMPDEST PUSH2 0xEB8 JUMPI PUSH1 0x40 MLOAD PUSH3 0x461BCD PUSH1 0xE5 SHL DUP2 MSTORE PUSH1 0x4 ADD DUP1 DUP1 PUSH1 0x20 ADD DUP3 DUP2 SUB DUP3 MSTORE PUSH1 0x2E DUP2 MSTORE PUSH1 0x20 ADD DUP1 PUSH2 0x275A PUSH1 0x2E SWAP2 CODECOPY PUSH1 0x40 ADD SWAP2 POP POP PUSH1 0x40 MLOAD DUP1 SWAP2 SUB SWAP1 REVERT JUMPDEST PUSH1 0x0 SLOAD PUSH2 0x100 SWAP1 DIV PUSH1 0xFF AND ISZERO DUP1 ISZERO PUSH2 0xEE3 JUMPI PUSH1 0x0 DUP1 SLOAD PUSH1 0xFF NOT PUSH2 0xFF00 NOT SWAP1 SWAP2 AND PUSH2 0x100 OR AND PUSH1 0x1 OR SWAP1 SSTORE JUMPDEST PUSH1 0x3 DUP1 SLOAD PUSH2 0xFFFF NOT AND PUSH2 0xFFFF DUP8 AND OR SWAP1 SSTORE PUSH1 0x0 DUP1 PUSH2 0xEFF PUSH2 0x19FA JUMP JUMPDEST SWAP2 POP SWAP2 POP DUP2 DUP6 PUSH1 0x40 MLOAD PUSH1 0x20 ADD PUSH2 0xF16 SWAP3 SWAP2 SWAP1 PUSH2 0x252B JUMP JUMPDEST PUSH1 0x40 MLOAD PUSH1 0x20 DUP2 DUP4 SUB SUB DUP2 MSTORE SWAP1 PUSH1 0x40 MSTORE PUSH1 0x1 SWAP1 DUP1 MLOAD SWAP1 PUSH1 0x20 ADD SWAP1 PUSH2 0xF3A SWAP3 SWAP2 SWAP1 PUSH2 0x2013 JUMP JUMPDEST POP DUP1 DUP5 PUSH1 0x40 MLOAD PUSH1 0x20 ADD PUSH2 0xF4E SWAP3 SWAP2 SWAP1 PUSH2 0x24FC JUMP JUMPDEST PUSH1 0x40 MLOAD PUSH1 0x20 DUP2 DUP4 SUB SUB DUP2 MSTORE SWAP1 PUSH1 0x40 MSTORE PUSH1 0x2 SWAP1 DUP1 MLOAD SWAP1 PUSH1 0x20 ADD SWAP1 PUSH2 0xF72 SWAP3 SWAP2 SWAP1 PUSH2 0x2013 JUMP JUMPDEST POP PUSH1 0x1 PUSH1 0x1 PUSH1 0xA0 SHL SUB DUP7 AND PUSH2 0xFB2 JUMPI PUSH1 0x3 DUP1 SLOAD PUSH4 0x1000000 PUSH1 0x1 PUSH1 0xB8 SHL SUB NOT AND PUSH23 0x82AF49447D8A07E3BD95BD0D56F35241523FBAB1000000 OR SWAP1 SSTORE PUSH2 0x100C JUMP JUMPDEST PUSH1 0x3 DUP1 SLOAD PUSH4 0x1000000 PUSH1 0x1 PUSH1 0xB8 SHL SUB NOT AND PUSH4 0x1000000 PUSH1 0x1 PUSH1 0x1 PUSH1 0xA0 SHL SUB DUP10 DUP2 AND DUP3 MUL SWAP3 SWAP1 SWAP3 OR SWAP3 DUP4 SWAP1 SSTORE PUSH2 0x100C SWAP3 DIV AND PUSH32 0x0 PUSH1 0x0 NOT PUSH2 0x1AA0 JUMP JUMPDEST PUSH1 0x3 DUP1 SLOAD SWAP1 PUSH2 0x100 EXP SWAP1 DIV PUSH1 0x1 PUSH1 0x1 PUSH1 0xA0 SHL SUB AND PUSH1 0x1 PUSH1 0x1 PUSH1 0xA0 SHL SUB AND PUSH4 0x313CE567 PUSH1 0x40 MLOAD DUP2 PUSH4 0xFFFFFFFF AND PUSH1 0xE0 SHL DUP2 MSTORE PUSH1 0x4 ADD PUSH1 0x20 PUSH1 0x40 MLOAD DUP1 DUP4 SUB DUP2 DUP7 DUP1 EXTCODESIZE ISZERO DUP1 ISZERO PUSH2 0x1058 JUMPI PUSH1 0x0 DUP1 REVERT JUMPDEST POP GAS STATICCALL ISZERO DUP1 ISZERO PUSH2 0x106C JUMPI RETURNDATASIZE PUSH1 0x0 DUP1 RETURNDATACOPY RETURNDATASIZE PUSH1 0x0 REVERT JUMPDEST POP POP POP POP PUSH1 0x40 MLOAD RETURNDATASIZE PUSH1 0x1F NOT PUSH1 0x1F DUP3 ADD AND DUP3 ADD DUP1 PUSH1 0x40 MSTORE POP DUP2 ADD SWAP1 PUSH2 0x1090 SWAP2 SWAP1 PUSH2 0x24DB JUMP JUMPDEST PUSH1 0x3 DUP1 SLOAD PUSH3 0xFF0000 NOT AND PUSH3 0x10000 PUSH1 0xFF SWAP4 DUP5 AND DUP2 MUL SWAP2 SWAP1 SWAP2 OR SWAP2 DUP3 SWAP1 SSTORE PUSH1 0x24 SWAP2 DIV SWAP1 SWAP2 AND LT PUSH2 0x10BE JUMPI PUSH1 0x0 DUP1 REVERT JUMPDEST POP POP DUP1 ISZERO PUSH2 0x10D2 JUMPI PUSH1 0x0 DUP1 SLOAD PUSH2 0xFF00 NOT AND SWAP1 SSTORE JUMPDEST POP POP POP POP POP JUMP JUMPDEST CALLER PUSH1 0x1 PUSH1 0x1 PUSH1 0xA0 SHL SUB PUSH32 0x0 AND EQ PUSH2 0x1121 JUMPI PUSH1 0x40 MLOAD PUSH3 0x461BCD PUSH1 0xE5 SHL DUP2 MSTORE PUSH1 0x4 ADD PUSH2 0x69D SWAP1 PUSH2 0x25EB JUMP JUMPDEST PUSH1 0x0 DUP2 SLT ISZERO PUSH2 0x1168 JUMPI PUSH1 0x0 PUSH1 0x1 PUSH1 0x1 PUSH1 0xA0 SHL SUB DUP4 AND PUSH1 0x0 DUP1 MLOAD PUSH1 0x20 PUSH2 0x2788 DUP4 CODECOPY DUP2 MLOAD SWAP2 MSTORE PUSH2 0x114E DUP5 PUSH2 0x1BB8 JUMP JUMPDEST PUSH1 0x40 MLOAD PUSH2 0x115B SWAP2 SWAP1 PUSH2 0x2586 JUMP JUMPDEST PUSH1 0x40 MLOAD DUP1 SWAP2 SUB SWAP1 LOG3 PUSH2 0x11A3 JUMP JUMPDEST DUP2 PUSH1 0x1 PUSH1 0x1 PUSH1 0xA0 SHL SUB AND PUSH1 0x0 PUSH1 0x1 PUSH1 0x1 PUSH1 0xA0 SHL SUB AND PUSH1 0x0 DUP1 MLOAD PUSH1 0x20 PUSH2 0x2788 DUP4 CODECOPY DUP2 MLOAD SWAP2 MSTORE DUP4 PUSH1 0x40 MLOAD PUSH2 0x119A SWAP2 SWAP1 PUSH2 0x2586 JUMP JUMPDEST PUSH1 0x40 MLOAD DUP1 SWAP2 SUB SWAP1 LOG3 JUMPDEST POP POP JUMP JUMPDEST PUSH1 0x0 PUSH2 0x11B2 DUP5 PUSH2 0x5DD JUMP JUMPDEST SWAP1 POP PUSH1 0x0 PUSH2 0x11BF DUP4 PUSH2 0x1951 JUMP JUMPDEST SWAP1 POP DUP1 DUP3 GT ISZERO PUSH2 0x11CD JUMPI DUP1 SWAP2 POP JUMPDEST PUSH1 0x0 PUSH2 0x11DA DUP4 DUP7 DUP7 PUSH2 0x1937 JUMP JUMPDEST SWAP1 POP PUSH1 0x0 PUSH1 0x1 PUSH1 0x1 PUSH1 0xA0 SHL SUB AND DUP5 PUSH1 0x1 PUSH1 0x1 PUSH1 0xA0 SHL SUB AND PUSH1 0x0 DUP1 MLOAD PUSH1 0x20 PUSH2 0x2788 DUP4 CODECOPY DUP2 MLOAD SWAP2 MSTORE DUP6 PUSH1 0x40 MLOAD PUSH2 0x120E SWAP2 SWAP1 PUSH2 0x2586 JUMP JUMPDEST PUSH1 0x40 MLOAD DUP1 SWAP2 SUB SWAP1 LOG3 DUP4 PUSH1 0x1 PUSH1 0x1 PUSH1 0xA0 SHL SUB AND DUP6 PUSH1 0x1 PUSH1 0x1 PUSH1 0xA0 SHL SUB AND CALLER PUSH1 0x1 PUSH1 0x1 PUSH1 0xA0 SHL SUB AND PUSH32 0xFBDE797D201C681B91056529119E0B02407C7BB96A4A2C75C01FC9667232C8DB DUP5 DUP8 PUSH1 0x40 MLOAD PUSH2 0x1265 SWAP3 SWAP2 SWAP1 PUSH2 0x26D5 JUMP JUMPDEST PUSH1 0x40 MLOAD DUP1 SWAP2 SUB SWAP1 LOG4 POP POP SWAP4 SWAP3 POP POP POP JUMP JUMPDEST PUSH1 0x0 DUP1 PUSH2 0x1284 DUP6 DUP6 DUP6 PUSH2 0x1937 JUMP JUMPDEST SWAP1 POP PUSH1 0x0 PUSH1 0x1 PUSH1 0x1 PUSH1 0xA0 SHL SUB AND DUP4 PUSH1 0x1 PUSH1 0x1 PUSH1 0xA0 SHL SUB AND PUSH1 0x0 DUP1 MLOAD PUSH1 0x20 PUSH2 0x2788 DUP4 CODECOPY DUP2 MLOAD SWAP2 MSTORE DUP8 PUSH1 0x40 MLOAD PUSH2 0x12B8 SWAP2 SWAP1 PUSH2 0x2586 JUMP JUMPDEST PUSH1 0x40 MLOAD DUP1 SWAP2 SUB SWAP1 LOG3 DUP3 PUSH1 0x1 PUSH1 0x1 PUSH1 0xA0 SHL SUB AND DUP5 PUSH1 0x1 PUSH1 0x1 PUSH1 0xA0 SHL SUB AND CALLER PUSH1 0x1 PUSH1 0x1 PUSH1 0xA0 SHL SUB AND PUSH32 0xFBDE797D201C681B91056529119E0B02407C7BB96A4A2C75C01FC9667232C8DB DUP5 DUP10 PUSH1 0x40 MLOAD PUSH2 0x130F SWAP3 SWAP2 SWAP1 PUSH2 0x26D5 JUMP JUMPDEST PUSH1 0x40 MLOAD DUP1 SWAP2 SUB SWAP1 LOG4 SWAP5 SWAP4 POP POP POP POP JUMP JUMPDEST PUSH1 0x0 DUP1 PUSH2 0x132C PUSH1 0x0 PUSH2 0x83C JUMP JUMPDEST SWAP1 POP PUSH1 0x0 NOT DUP2 EQ ISZERO PUSH2 0x133F JUMPI SWAP1 POP PUSH2 0x572 JUMP JUMPDEST PUSH2 0x64E DUP2 JUMPDEST PUSH1 0x0 PUSH2 0x56F PUSH2 0x1351 PUSH2 0x806 JUMP JUMPDEST PUSH2 0x569 DUP5 PUSH8 0xDE0B6B3A7640000 PUSH2 0x156A JUMP JUMPDEST CALLER PUSH1 0x1 PUSH1 0x1 PUSH1 0xA0 SHL SUB PUSH32 0x0 AND EQ PUSH2 0x13AB JUMPI PUSH1 0x40 MLOAD PUSH3 0x461BCD PUSH1 0xE5 SHL DUP2 MSTORE PUSH1 0x4 ADD PUSH2 0x69D SWAP1 PUSH2 0x25EB JUMP JUMPDEST PUSH1 0x0 DUP3 SLT ISZERO PUSH2 0x13FA JUMPI DUP3 PUSH1 0x1 PUSH1 0x1 PUSH1 0xA0 SHL SUB AND DUP5 PUSH1 0x1 PUSH1 0x1 PUSH1 0xA0 SHL SUB AND PUSH1 0x0 DUP1 MLOAD PUSH1 0x20 PUSH2 0x2788 DUP4 CODECOPY DUP2 MLOAD SWAP2 MSTORE PUSH2 0x13E0 DUP6 PUSH2 0x1BC6 JUMP JUMPDEST PUSH1 0x40 MLOAD PUSH2 0x13ED SWAP2 SWAP1 PUSH2 0x2586 JUMP JUMPDEST PUSH1 0x40 MLOAD DUP1 SWAP2 SUB SWAP1 LOG3 PUSH2 0x1434 JUMP JUMPDEST DUP4 PUSH1 0x1 PUSH1 0x1 PUSH1 0xA0 SHL SUB AND DUP4 PUSH1 0x1 PUSH1 0x1 PUSH1 0xA0 SHL SUB AND PUSH1 0x0 DUP1 MLOAD PUSH1 0x20 PUSH2 0x2788 DUP4 CODECOPY DUP2 MLOAD SWAP2 MSTORE DUP5 PUSH1 0x40 MLOAD PUSH2 0x142B SWAP2 SWAP1 PUSH2 0x2586 JUMP JUMPDEST PUSH1 0x40 MLOAD DUP1 SWAP2 SUB SWAP1 LOG3 JUMPDEST PUSH2 0xFEE PUSH1 0x1 PUSH1 0x1 PUSH1 0xA0 SHL SUB AND DUP5 PUSH1 0x1 PUSH1 0x1 PUSH1 0xA0 SHL SUB AND PUSH1 0x0 DUP1 MLOAD PUSH1 0x20 PUSH2 0x2788 DUP4 CODECOPY DUP2 MLOAD SWAP2 MSTORE DUP4 PUSH1 0x40 MLOAD PUSH2 0x7EC SWAP2 SWAP1 PUSH2 0x2586 JUMP JUMPDEST PUSH1 0x0 PUSH2 0x56F PUSH2 0x283 DUP4 PUSH2 0x1951 JUMP JUMPDEST PUSH1 0x0 PUSH2 0x64E DUP4 DUP4 PUSH2 0x1BE7 JUMP JUMPDEST EXTCODESIZE ISZERO ISZERO SWAP1 JUMP JUMPDEST PUSH1 0x3 SLOAD PUSH1 0x40 MLOAD PUSH4 0x3B2987B3 PUSH1 0xE0 SHL DUP2 MSTORE PUSH1 0x0 SWAP2 DUP3 SWAP2 PUSH1 0x1 PUSH1 0x1 PUSH1 0xA0 SHL SUB PUSH32 0x0 AND SWAP2 PUSH4 0x3B2987B3 SWAP2 PUSH2 0x14DE SWAP2 PUSH2 0xFFFF AND SWAP1 PUSH1 0x4 ADD PUSH2 0x2611 JUMP JUMPDEST PUSH1 0x20 PUSH1 0x40 MLOAD DUP1 DUP4 SUB DUP2 DUP7 DUP1 EXTCODESIZE ISZERO DUP1 ISZERO PUSH2 0x14F6 JUMPI PUSH1 0x0 DUP1 REVERT JUMPDEST POP GAS STATICCALL ISZERO DUP1 ISZERO PUSH2 0x150A JUMPI RETURNDATASIZE PUSH1 0x0 DUP1 RETURNDATACOPY RETURNDATASIZE PUSH1 0x0 REVERT JUMPDEST POP POP POP POP PUSH1 0x40 MLOAD RETURNDATASIZE PUSH1 0x1F NOT PUSH1 0x1F DUP3 ADD AND DUP3 ADD DUP1 PUSH1 0x40 MSTORE POP DUP2 ADD SWAP1 PUSH2 0x152E SWAP2 SWAP1 PUSH2 0x2265 JUMP JUMPDEST PUSH1 0x3 SLOAD SWAP1 SWAP2 POP PUSH2 0x1564 SWAP1 PUSH2 0x155F SWAP1 PUSH4 0x5F5E100 SWAP1 PUSH2 0x1559 SWAP1 DUP6 SWAP1 PUSH3 0x10000 SWAP1 DIV PUSH1 0xFF AND PUSH1 0xA EXP PUSH2 0x1C92 JUMP JUMPDEST SWAP1 PUSH2 0x1CE0 JUMP JUMPDEST PUSH2 0x1D11 JUMP JUMPDEST SWAP2 POP POP SWAP1 JUMP JUMPDEST PUSH1 0x0 DUP3 PUSH2 0x1579 JUMPI POP PUSH1 0x0 PUSH2 0x5D7 JUMP JUMPDEST DUP3 DUP3 MUL DUP3 DUP5 DUP3 DUP2 PUSH2 0x1586 JUMPI INVALID JUMPDEST DIV EQ PUSH2 0x64E JUMPI PUSH1 0x0 DUP1 REVERT JUMPDEST PUSH1 0x0 DUP1 DUP3 GT PUSH2 0x159F JUMPI PUSH1 0x0 DUP1 REVERT JUMPDEST DUP2 DUP4 DUP2 PUSH2 0x15A8 JUMPI INVALID JUMPDEST DIV SWAP4 SWAP3 POP POP POP JUMP JUMPDEST PUSH1 0x3 SLOAD PUSH1 0x40 MLOAD PUSH4 0x184E0053 PUSH1 0xE1 SHL DUP2 MSTORE PUSH1 0x0 SWAP2 PUSH1 0x1 PUSH1 0x1 PUSH1 0xA0 SHL SUB PUSH32 0x0 AND SWAP2 PUSH4 0x309C00A6 SWAP2 PUSH2 0x160D SWAP2 PUSH2 0xFFFF SWAP1 SWAP2 AND SWAP1 CALLER SWAP1 DUP9 SWAP1 DUP9 SWAP1 PUSH1 0x4 ADD PUSH2 0x2671 JUMP JUMPDEST PUSH1 0x20 PUSH1 0x40 MLOAD DUP1 DUP4 SUB DUP2 PUSH1 0x0 DUP8 DUP1 EXTCODESIZE ISZERO DUP1 ISZERO PUSH2 0x1627 JUMPI PUSH1 0x0 DUP1 REVERT JUMPDEST POP GAS CALL ISZERO DUP1 ISZERO PUSH2 0x163B JUMPI RETURNDATASIZE PUSH1 0x0 DUP1 RETURNDATACOPY RETURNDATASIZE PUSH1 0x0 REVERT JUMPDEST POP POP POP POP PUSH1 0x40 MLOAD RETURNDATASIZE PUSH1 0x1F NOT PUSH1 0x1F DUP3 ADD AND DUP3 ADD DUP1 PUSH1 0x40 MSTORE POP DUP2 ADD SWAP1 PUSH2 0x64E SWAP2 SWAP1 PUSH2 0x2245 JUMP JUMPDEST PUSH1 0x40 MLOAD PUSH4 0x6A96E86F PUSH1 0xE0 SHL DUP2 MSTORE PUSH1 0x0 SWAP1 PUSH1 0x1 PUSH1 0x1 PUSH1 0xA0 SHL SUB PUSH32 0x0 AND SWAP1 PUSH4 0x6A96E86F SWAP1 PUSH2 0xAA8 SWAP1 ADDRESS SWAP1 PUSH1 0x4 ADD PUSH2 0x2567 JUMP JUMPDEST PUSH1 0x3 SLOAD PUSH1 0x40 MLOAD PUSH4 0x44253849 PUSH1 0xE1 SHL DUP2 MSTORE PUSH1 0x0 SWAP2 PUSH1 0x1 PUSH1 0x1 PUSH1 0xA0 SHL SUB PUSH32 0x0 AND SWAP2 PUSH4 0x884A7092 SWAP2 PUSH2 0x170D SWAP2 PUSH2 0xFFFF SWAP1 SWAP2 AND SWAP1 CALLER SWAP1 DUP10 SWAP1 DUP10 SWAP1 DUP10 SWAP1 PUSH1 0x4 ADD PUSH2 0x263D JUMP JUMPDEST PUSH1 0x20 PUSH1 0x40 MLOAD DUP1 DUP4 SUB DUP2 PUSH1 0x0 DUP8 DUP1 EXTCODESIZE ISZERO DUP1 ISZERO PUSH2 0x1727 JUMPI PUSH1 0x0 DUP1 REVERT JUMPDEST POP GAS CALL ISZERO DUP1 ISZERO PUSH2 0x173B JUMPI RETURNDATASIZE PUSH1 0x0 DUP1 RETURNDATACOPY RETURNDATASIZE PUSH1 0x0 REVERT JUMPDEST POP POP POP POP PUSH1 0x40 MLOAD RETURNDATASIZE PUSH1 0x1F NOT PUSH1 0x1F DUP3 ADD AND DUP3 ADD DUP1 PUSH1 0x40 MSTORE POP DUP2 ADD SWAP1 PUSH2 0x175F SWAP2 SWAP1 PUSH2 0x2245 JUMP JUMPDEST SWAP5 SWAP4 POP POP POP POP JUMP JUMPDEST PUSH1 0x3 SLOAD PUSH1 0x40 MLOAD PUSH4 0x70A08231 PUSH1 0xE0 SHL DUP2 MSTORE PUSH1 0x0 SWAP2 DUP3 SWAP2 DUP3 SWAP2 PUSH4 0x1000000 SWAP1 DIV PUSH1 0x1 PUSH1 0x1 PUSH1 0xA0 SHL SUB AND SWAP1 PUSH4 0x70A08231 SWAP1 PUSH2 0x17A3 SWAP1 ADDRESS SWAP1 PUSH1 0x4 ADD PUSH2 0x2567 JUMP JUMPDEST PUSH1 0x20 PUSH1 0x40 MLOAD DUP1 DUP4 SUB DUP2 DUP7 DUP1 EXTCODESIZE ISZERO DUP1 ISZERO PUSH2 0x17BB JUMPI PUSH1 0x0 DUP1 REVERT JUMPDEST POP GAS STATICCALL ISZERO DUP1 ISZERO PUSH2 0x17CF JUMPI RETURNDATASIZE PUSH1 0x0 DUP1 RETURNDATACOPY RETURNDATASIZE PUSH1 0x0 REVERT JUMPDEST POP POP POP POP PUSH1 0x40 MLOAD RETURNDATASIZE PUSH1 0x1F NOT PUSH1 0x1F DUP3 ADD AND DUP3 ADD DUP1 PUSH1 0x40 MSTORE POP DUP2 ADD SWAP1 PUSH2 0x17F3 SWAP2 SWAP1 PUSH2 0x2265 JUMP JUMPDEST SWAP1 POP PUSH2 0x1814 PUSH1 0x3 DUP1 SLOAD SWAP1 PUSH2 0x100 EXP SWAP1 DIV PUSH1 0x1 PUSH1 0x1 PUSH1 0xA0 SHL SUB AND CALLER ADDRESS DUP8 PUSH2 0x1D24 JUMP JUMPDEST PUSH1 0x3 SLOAD PUSH1 0x40 MLOAD PUSH4 0x70A08231 PUSH1 0xE0 SHL DUP2 MSTORE PUSH1 0x0 SWAP2 PUSH4 0x1000000 SWAP1 DIV PUSH1 0x1 PUSH1 0x1 PUSH1 0xA0 SHL SUB AND SWAP1 PUSH4 0x70A08231 SWAP1 PUSH2 0x184C SWAP1 ADDRESS SWAP1 PUSH1 0x4 ADD PUSH2 0x2567 JUMP JUMPDEST PUSH1 0x20 PUSH1 0x40 MLOAD DUP1 DUP4 SUB DUP2 DUP7 DUP1 EXTCODESIZE ISZERO DUP1 ISZERO PUSH2 0x1864 JUMPI PUSH1 0x0 DUP1 REVERT JUMPDEST POP GAS STATICCALL ISZERO DUP1 ISZERO PUSH2 0x1878 JUMPI RETURNDATASIZE PUSH1 0x0 DUP1 RETURNDATACOPY RETURNDATASIZE PUSH1 0x0 REVERT JUMPDEST POP POP POP POP PUSH1 0x40 MLOAD RETURNDATASIZE PUSH1 0x1F NOT PUSH1 0x1F DUP3 ADD AND DUP3 ADD DUP1 PUSH1 0x40 MSTORE POP DUP2 ADD SWAP1 PUSH2 0x189C SWAP2 SWAP1 PUSH2 0x2265 JUMP JUMPDEST SWAP1 POP PUSH2 0x18A8 DUP2 DUP4 PUSH2 0x1D84 JUMP JUMPDEST PUSH1 0x3 SLOAD SWAP1 SWAP5 POP PUSH2 0xFFFF AND PUSH1 0x1 EQ ISZERO PUSH2 0x192B JUMPI PUSH1 0x40 MLOAD PUSH4 0x2E1A7D4D PUSH1 0xE0 SHL DUP2 MSTORE PUSH20 0x82AF49447D8A07E3BD95BD0D56F35241523FBAB1 SWAP1 PUSH4 0x2E1A7D4D SWAP1 PUSH2 0x18F1 SWAP1 DUP8 SWAP1 PUSH1 0x4 ADD PUSH2 0x2586 JUMP JUMPDEST PUSH1 0x0 PUSH1 0x40 MLOAD DUP1 DUP4 SUB DUP2 PUSH1 0x0 DUP8 DUP1 EXTCODESIZE ISZERO DUP1 ISZERO PUSH2 0x190B JUMPI PUSH1 0x0 DUP1 REVERT JUMPDEST POP GAS CALL ISZERO DUP1 ISZERO PUSH2 0x191F JUMPI RETURNDATASIZE PUSH1 0x0 DUP1 RETURNDATACOPY RETURNDATASIZE PUSH1 0x0 REVERT JUMPDEST POP POP POP POP DUP4 SWAP3 POP PUSH2 0x1930 JUMP JUMPDEST PUSH1 0x0 SWAP3 POP JUMPDEST POP POP SWAP2 POP SWAP2 JUMP JUMPDEST PUSH1 0x0 PUSH1 0x40 MLOAD PUSH3 0x461BCD PUSH1 0xE5 SHL DUP2 MSTORE PUSH1 0x4 ADD PUSH2 0x69D SWAP1 PUSH2 0x25C2 JUMP JUMPDEST PUSH1 0x3 SLOAD PUSH1 0x40 MLOAD PUSH4 0xA78DBFFF PUSH1 0xE0 SHL DUP2 MSTORE PUSH1 0x0 SWAP2 PUSH1 0x1 PUSH1 0x1 PUSH1 0xA0 SHL SUB PUSH32 0x0 AND SWAP2 PUSH4 0xA78DBFFF SWAP2 PUSH2 0x19AA SWAP2 PUSH2 0xFFFF SWAP1 SWAP2 AND SWAP1 DUP7 SWAP1 PUSH1 0x4 ADD PUSH2 0x2620 JUMP JUMPDEST PUSH1 0x20 PUSH1 0x40 MLOAD DUP1 DUP4 SUB DUP2 DUP7 DUP1 EXTCODESIZE ISZERO DUP1 ISZERO PUSH2 0x19C2 JUMPI PUSH1 0x0 DUP1 REVERT JUMPDEST POP GAS STATICCALL ISZERO DUP1 ISZERO PUSH2 0x19D6 JUMPI RETURNDATASIZE PUSH1 0x0 DUP1 RETURNDATACOPY RETURNDATASIZE PUSH1 0x0 REVERT JUMPDEST POP POP POP POP PUSH1 0x40 MLOAD RETURNDATASIZE PUSH1 0x1F NOT PUSH1 0x1F DUP3 ADD AND DUP3 ADD DUP1 PUSH1 0x40 MSTORE POP DUP2 ADD SWAP1 PUSH2 0x56F SWAP2 SWAP1 PUSH2 0x2265 JUMP JUMPDEST PUSH1 0x40 DUP1 MLOAD DUP1 DUP3 ADD DUP3 MSTORE PUSH1 0x6 DUP2 MSTORE PUSH6 0x372A37B5B2B7 PUSH1 0xD1 SHL PUSH1 0x20 DUP1 DUP4 ADD SWAP2 SWAP1 SWAP2 MSTORE DUP3 MLOAD DUP1 DUP5 ADD SWAP1 SWAP4 MSTORE PUSH1 0x1 DUP4 MSTORE PUSH1 0x37 PUSH1 0xF9 SHL SWAP1 DUP4 ADD MSTORE SWAP2 JUMP JUMPDEST PUSH1 0x3 SLOAD PUSH1 0x40 MLOAD PUSH4 0x18AE40D7 PUSH1 0xE0 SHL DUP2 MSTORE PUSH1 0x0 SWAP2 PUSH1 0x1 PUSH1 0x1 PUSH1 0xA0 SHL SUB PUSH32 0x0 AND SWAP2 PUSH4 0x18AE40D7 SWAP2 PUSH2 0x160D SWAP2 PUSH2 0xFFFF SWAP1 SWAP2 AND SWAP1 CALLER SWAP1 DUP9 SWAP1 DUP9 SWAP1 PUSH1 0x4 ADD PUSH2 0x2671 JUMP JUMPDEST PUSH1 0x0 PUSH2 0x1A9A ADDRESS PUSH2 0x1481 JUMP JUMPDEST ISZERO SWAP1 POP SWAP1 JUMP JUMPDEST DUP1 ISZERO DUP1 PUSH2 0x1B26 JUMPI POP PUSH1 0x40 DUP1 MLOAD PUSH4 0x6EB1769F PUSH1 0xE1 SHL DUP2 MSTORE ADDRESS PUSH1 0x4 DUP3 ADD MSTORE PUSH1 0x1 PUSH1 0x1 PUSH1 0xA0 SHL SUB DUP5 DUP2 AND PUSH1 0x24 DUP4 ADD MSTORE SWAP2 MLOAD SWAP2 DUP6 AND SWAP2 PUSH4 0xDD62ED3E SWAP2 PUSH1 0x44 DUP1 DUP3 ADD SWAP3 PUSH1 0x20 SWAP3 SWAP1 SWAP2 SWAP1 DUP3 SWAP1 SUB ADD DUP2 DUP7 DUP1 EXTCODESIZE ISZERO DUP1 ISZERO PUSH2 0x1AF8 JUMPI PUSH1 0x0 DUP1 REVERT JUMPDEST POP GAS STATICCALL ISZERO DUP1 ISZERO PUSH2 0x1B0C JUMPI RETURNDATASIZE PUSH1 0x0 DUP1 RETURNDATACOPY RETURNDATASIZE PUSH1 0x0 REVERT JUMPDEST POP POP POP POP PUSH1 0x40 MLOAD RETURNDATASIZE PUSH1 0x20 DUP2 LT ISZERO PUSH2 0x1B22 JUMPI PUSH1 0x0 DUP1 REVERT JUMPDEST POP MLOAD ISZERO JUMPDEST PUSH2 0x1B61 JUMPI PUSH1 0x40 MLOAD PUSH3 0x461BCD PUSH1 0xE5 SHL DUP2 MSTORE PUSH1 0x4 ADD DUP1 DUP1 PUSH1 0x20 ADD DUP3 DUP2 SUB DUP3 MSTORE PUSH1 0x36 DUP2 MSTORE PUSH1 0x20 ADD DUP1 PUSH2 0x27D2 PUSH1 0x36 SWAP2 CODECOPY PUSH1 0x40 ADD SWAP2 POP POP PUSH1 0x40 MLOAD DUP1 SWAP2 SUB SWAP1 REVERT JUMPDEST PUSH1 0x40 DUP1 MLOAD PUSH1 0x1 PUSH1 0x1 PUSH1 0xA0 SHL SUB DUP5 AND PUSH1 0x24 DUP3 ADD MSTORE PUSH1 0x44 DUP1 DUP3 ADD DUP5 SWAP1 MSTORE DUP3 MLOAD DUP1 DUP4 SUB SWAP1 SWAP2 ADD DUP2 MSTORE PUSH1 0x64 SWAP1 SWAP2 ADD SWAP1 SWAP2 MSTORE PUSH1 0x20 DUP2 ADD DUP1 MLOAD PUSH1 0x1 PUSH1 0x1 PUSH1 0xE0 SHL SUB AND PUSH4 0x95EA7B3 PUSH1 0xE0 SHL OR SWAP1 MSTORE PUSH2 0x1BB3 SWAP1 DUP5 SWAP1 PUSH2 0x1D99 JUMP JUMPDEST POP POP POP JUMP JUMPDEST PUSH1 0x0 PUSH2 0x56F PUSH1 0x0 NOT DUP4 PUSH2 0x1C92 JUMP JUMPDEST PUSH1 0x0 DUP1 DUP3 SLT ISZERO PUSH2 0x1BE0 JUMPI PUSH2 0x1BD9 DUP3 PUSH2 0x1BB8 JUMP JUMPDEST SWAP1 POP PUSH2 0x572 JUMP JUMPDEST POP DUP1 PUSH2 0x572 JUMP JUMPDEST PUSH1 0x3 SLOAD PUSH1 0x40 MLOAD PUSH4 0x7DB31AB9 PUSH1 0xE0 SHL DUP2 MSTORE PUSH1 0x0 SWAP2 PUSH1 0x1 PUSH1 0x1 PUSH1 0xA0 SHL SUB PUSH32 0x0 AND SWAP2 PUSH4 0x7DB31AB9 SWAP2 PUSH2 0x1C42 SWAP2 PUSH2 0xFFFF SWAP1 SWAP2 AND SWAP1 DUP8 SWAP1 DUP8 SWAP1 PUSH1 0x4 ADD PUSH2 0x269C JUMP JUMPDEST PUSH1 0x20 PUSH1 0x40 MLOAD DUP1 DUP4 SUB DUP2 DUP7 DUP1 EXTCODESIZE ISZERO DUP1 ISZERO PUSH2 0x1C5A JUMPI PUSH1 0x0 DUP1 REVERT JUMPDEST POP GAS STATICCALL ISZERO DUP1 ISZERO PUSH2 0x1C6E JUMPI RETURNDATASIZE PUSH1 0x0 DUP1 RETURNDATACOPY RETURNDATASIZE PUSH1 0x0 REVERT JUMPDEST POP POP POP POP PUSH1 0x40 MLOAD RETURNDATASIZE PUSH1 0x1F NOT PUSH1 0x1F DUP3 ADD AND DUP3 ADD DUP1 PUSH1 0x40 MSTORE POP DUP2 ADD SWAP1 PUSH2 0x64E SWAP2 SWAP1 PUSH2 0x2265 JUMP JUMPDEST DUP2 DUP2 MUL PUSH1 0x0 NOT DUP4 EQ ISZERO PUSH2 0x1CC2 JUMPI DUP2 ISZERO DUP1 PUSH2 0x1CB4 JUMPI POP DUP3 DUP3 DUP3 DUP2 PUSH2 0x1CB1 JUMPI INVALID JUMPDEST SDIV EQ JUMPDEST PUSH2 0x1CBD JUMPI PUSH1 0x0 DUP1 REVERT JUMPDEST PUSH2 0x5D7 JUMP JUMPDEST DUP3 ISZERO DUP1 PUSH2 0x1CD7 JUMPI POP DUP2 DUP4 DUP3 DUP2 PUSH2 0x1CD4 JUMPI INVALID JUMPDEST SDIV EQ JUMPDEST PUSH2 0x5D7 JUMPI PUSH1 0x0 DUP1 REVERT JUMPDEST PUSH1 0x0 DUP2 PUSH1 0x0 NOT EQ DUP1 ISZERO PUSH2 0x1CF6 JUMPI POP PUSH1 0x1 PUSH1 0xFF SHL DUP4 EQ JUMPDEST ISZERO PUSH2 0x1D00 JUMPI PUSH1 0x0 DUP1 REVERT JUMPDEST DUP2 DUP4 DUP2 PUSH2 0x1D09 JUMPI INVALID JUMPDEST SDIV SWAP4 SWAP3 POP POP POP JUMP JUMPDEST PUSH1 0x0 DUP1 DUP3 SLT ISZERO PUSH2 0x1D20 JUMPI PUSH1 0x0 DUP1 REVERT JUMPDEST POP SWAP1 JUMP JUMPDEST PUSH1 0x40 DUP1 MLOAD PUSH1 0x1 PUSH1 0x1 PUSH1 0xA0 SHL SUB DUP1 DUP7 AND PUSH1 0x24 DUP4 ADD MSTORE DUP5 AND PUSH1 0x44 DUP3 ADD MSTORE PUSH1 0x64 DUP1 DUP3 ADD DUP5 SWAP1 MSTORE DUP3 MLOAD DUP1 DUP4 SUB SWAP1 SWAP2 ADD DUP2 MSTORE PUSH1 0x84 SWAP1 SWAP2 ADD SWAP1 SWAP2 MSTORE PUSH1 0x20 DUP2 ADD DUP1 MLOAD PUSH1 0x1 PUSH1 0x1 PUSH1 0xE0 SHL SUB AND PUSH4 0x23B872DD PUSH1 0xE0 SHL OR SWAP1 MSTORE PUSH2 0x1D7E SWAP1 DUP6 SWAP1 PUSH2 0x1D99 JUMP JUMPDEST POP POP POP POP JUMP JUMPDEST PUSH1 0x0 DUP3 DUP3 GT ISZERO PUSH2 0x1D93 JUMPI PUSH1 0x0 DUP1 REVERT JUMPDEST POP SWAP1 SUB SWAP1 JUMP JUMPDEST PUSH1 0x0 PUSH2 0x1DEE DUP3 PUSH1 0x40 MLOAD DUP1 PUSH1 0x40 ADD PUSH1 0x40 MSTORE DUP1 PUSH1 0x20 DUP2 MSTORE PUSH1 0x20 ADD PUSH32 0x5361666545524332303A206C6F772D6C6576656C2063616C6C206661696C6564 DUP2 MSTORE POP DUP6 PUSH1 0x1 PUSH1 0x1 PUSH1 0xA0 SHL SUB AND PUSH2 0x1E4A SWAP1 SWAP3 SWAP2 SWAP1 PUSH4 0xFFFFFFFF AND JUMP JUMPDEST DUP1 MLOAD SWAP1 SWAP2 POP ISZERO PUSH2 0x1BB3 JUMPI DUP1 DUP1 PUSH1 0x20 ADD SWAP1 MLOAD PUSH1 0x20 DUP2 LT ISZERO PUSH2 0x1E0D JUMPI PUSH1 0x0 DUP1 REVERT JUMPDEST POP MLOAD PUSH2 0x1BB3 JUMPI PUSH1 0x40 MLOAD PUSH3 0x461BCD PUSH1 0xE5 SHL DUP2 MSTORE PUSH1 0x4 ADD DUP1 DUP1 PUSH1 0x20 ADD DUP3 DUP2 SUB DUP3 MSTORE PUSH1 0x2A DUP2 MSTORE PUSH1 0x20 ADD DUP1 PUSH2 0x27A8 PUSH1 0x2A SWAP2 CODECOPY PUSH1 0x40 ADD SWAP2 POP POP PUSH1 0x40 MLOAD DUP1 SWAP2 SUB SWAP1 REVERT JUMPDEST PUSH1 0x60 PUSH2 0x175F DUP5 DUP5 PUSH1 0x0 DUP6 DUP6 PUSH2 0x1E5E DUP6 PUSH2 0x1481 JUMP JUMPDEST PUSH2 0x1EAF JUMPI PUSH1 0x40 DUP1 MLOAD PUSH3 0x461BCD PUSH1 0xE5 SHL DUP2 MSTORE PUSH1 0x20 PUSH1 0x4 DUP3 ADD MSTORE PUSH1 0x1D PUSH1 0x24 DUP3 ADD MSTORE PUSH32 0x416464726573733A2063616C6C20746F206E6F6E2D636F6E7472616374000000 PUSH1 0x44 DUP3 ADD MSTORE SWAP1 MLOAD SWAP1 DUP2 SWAP1 SUB PUSH1 0x64 ADD SWAP1 REVERT JUMPDEST PUSH1 0x0 DUP1 DUP7 PUSH1 0x1 PUSH1 0x1 PUSH1 0xA0 SHL SUB AND DUP6 DUP8 PUSH1 0x40 MLOAD DUP1 DUP3 DUP1 MLOAD SWAP1 PUSH1 0x20 ADD SWAP1 DUP1 DUP4 DUP4 JUMPDEST PUSH1 0x20 DUP4 LT PUSH2 0x1EED JUMPI DUP1 MLOAD DUP3 MSTORE PUSH1 0x1F NOT SWAP1 SWAP3 ADD SWAP2 PUSH1 0x20 SWAP2 DUP3 ADD SWAP2 ADD PUSH2 0x1ECE JUMP JUMPDEST PUSH1 0x1 DUP4 PUSH1 0x20 SUB PUSH2 0x100 EXP SUB DUP1 NOT DUP3 MLOAD AND DUP2 DUP5 MLOAD AND DUP1 DUP3 OR DUP6 MSTORE POP POP POP POP POP POP SWAP1 POP ADD SWAP2 POP POP PUSH1 0x0 PUSH1 0x40 MLOAD DUP1 DUP4 SUB DUP2 DUP6 DUP8 GAS CALL SWAP3 POP POP POP RETURNDATASIZE DUP1 PUSH1 0x0 DUP2 EQ PUSH2 0x1F4F JUMPI PUSH1 0x40 MLOAD SWAP2 POP PUSH1 0x1F NOT PUSH1 0x3F RETURNDATASIZE ADD AND DUP3 ADD PUSH1 0x40 MSTORE RETURNDATASIZE DUP3 MSTORE RETURNDATASIZE PUSH1 0x0 PUSH1 0x20 DUP5 ADD RETURNDATACOPY PUSH2 0x1F54 JUMP JUMPDEST PUSH1 0x60 SWAP2 POP JUMPDEST POP SWAP2 POP SWAP2 POP PUSH2 0x1F64 DUP3 DUP3 DUP7 PUSH2 0x1F6F JUMP JUMPDEST SWAP8 SWAP7 POP POP POP POP POP POP POP JUMP JUMPDEST PUSH1 0x60 DUP4 ISZERO PUSH2 0x1F7E JUMPI POP DUP2 PUSH2 0x64E JUMP JUMPDEST DUP3 MLOAD ISZERO PUSH2 0x1F8E JUMPI DUP3 MLOAD DUP1 DUP5 PUSH1 0x20 ADD REVERT JUMPDEST DUP2 PUSH1 0x40 MLOAD PUSH3 0x461BCD PUSH1 0xE5 SHL DUP2 MSTORE PUSH1 0x4 ADD DUP1 DUP1 PUSH1 0x20 ADD DUP3 DUP2 SUB DUP3 MSTORE DUP4 DUP2 DUP2 MLOAD DUP2 MSTORE PUSH1 0x20 ADD SWAP2 POP DUP1 MLOAD SWAP1 PUSH1 0x20 ADD SWAP1 DUP1 DUP4 DUP4 PUSH1 0x0 JUMPDEST DUP4 DUP2 LT ISZERO PUSH2 0x1FD8 JUMPI DUP2 DUP2 ADD MLOAD DUP4 DUP3 ADD MSTORE PUSH1 0x20 ADD PUSH2 0x1FC0 JUMP JUMPDEST POP POP POP POP SWAP1 POP SWAP1 DUP2 ADD SWAP1 PUSH1 0x1F AND DUP1 ISZERO PUSH2 0x2005 JUMPI DUP1 DUP3 SUB DUP1 MLOAD PUSH1 0x1 DUP4 PUSH1 0x20 SUB PUSH2 0x100 EXP SUB NOT AND DUP2 MSTORE PUSH1 0x20 ADD SWAP2 POP JUMPDEST POP SWAP3 POP POP POP PUSH1 0x40 MLOAD DUP1 SWAP2 SUB SWAP1 REVERT JUMPDEST DUP3 DUP1 SLOAD PUSH1 0x1 DUP2 PUSH1 0x1 AND ISZERO PUSH2 0x100 MUL SUB AND PUSH1 0x2 SWAP1 DIV SWAP1 PUSH1 0x0 MSTORE PUSH1 0x20 PUSH1 0x0 KECCAK256 SWAP1 PUSH1 0x1F ADD PUSH1 0x20 SWAP1 DIV DUP2 ADD SWAP3 DUP3 PUSH2 0x2049 JUMPI PUSH1 0x0 DUP6 SSTORE PUSH2 0x208F JUMP JUMPDEST DUP3 PUSH1 0x1F LT PUSH2 0x2062 JUMPI DUP1 MLOAD PUSH1 0xFF NOT AND DUP4 DUP1 ADD OR DUP6 SSTORE PUSH2 0x208F JUMP JUMPDEST DUP3 DUP1 ADD PUSH1 0x1 ADD DUP6 SSTORE DUP3 ISZERO PUSH2 0x208F JUMPI SWAP2 DUP3 ADD JUMPDEST DUP3 DUP2 GT ISZERO PUSH2 0x208F JUMPI DUP3 MLOAD DUP3 SSTORE SWAP2 PUSH1 0x20 ADD SWAP2 SWAP1 PUSH1 0x1 ADD SWAP1 PUSH2 0x2074 JUMP JUMPDEST POP PUSH2 0x1D20 SWAP3 SWAP2 POP JUMPDEST DUP1 DUP3 GT ISZERO PUSH2 0x1D20 JUMPI PUSH1 0x0 DUP2 SSTORE PUSH1 0x1 ADD PUSH2 0x2097 JUMP JUMPDEST PUSH1 0x0 DUP3 PUSH1 0x1F DUP4 ADD SLT PUSH2 0x20BB JUMPI DUP1 DUP2 REVERT JUMPDEST DUP2 CALLDATALOAD PUSH8 0xFFFFFFFFFFFFFFFF DUP2 GT ISZERO PUSH2 0x20CF JUMPI INVALID JUMPDEST PUSH2 0x20E2 PUSH1 0x1F DUP3 ADD PUSH1 0x1F NOT AND PUSH1 0x20 ADD PUSH2 0x26F1 JUMP JUMPDEST DUP2 DUP2 MSTORE DUP5 PUSH1 0x20 DUP4 DUP7 ADD ADD GT ISZERO PUSH2 0x20F6 JUMPI DUP3 DUP4 REVERT JUMPDEST DUP2 PUSH1 0x20 DUP6 ADD PUSH1 0x20 DUP4 ADD CALLDATACOPY SWAP1 DUP2 ADD PUSH1 0x20 ADD SWAP2 SWAP1 SWAP2 MSTORE SWAP3 SWAP2 POP POP JUMP JUMPDEST PUSH1 0x0 PUSH1 0x20 DUP3 DUP5 SUB SLT ISZERO PUSH2 0x2121 JUMPI DUP1 DUP2 REVERT JUMPDEST DUP2 CALLDATALOAD PUSH2 0x64E DUP2 PUSH2 0x2741 JUMP JUMPDEST PUSH1 0x0 PUSH1 0x20 DUP3 DUP5 SUB SLT ISZERO PUSH2 0x213D JUMPI DUP1 DUP2 REVERT JUMPDEST DUP2 MLOAD PUSH2 0x64E DUP2 PUSH2 0x2741 JUMP JUMPDEST PUSH1 0x0 DUP1 PUSH1 0x40 DUP4 DUP6 SUB SLT ISZERO PUSH2 0x215A JUMPI DUP1 DUP2 REVERT JUMPDEST DUP3 CALLDATALOAD PUSH2 0x2165 DUP2 PUSH2 0x2741 JUMP JUMPDEST SWAP2 POP PUSH1 0x20 DUP4 ADD CALLDATALOAD PUSH2 0x2175 DUP2 PUSH2 0x2741 JUMP JUMPDEST DUP1 SWAP2 POP POP SWAP3 POP SWAP3 SWAP1 POP JUMP JUMPDEST PUSH1 0x0 DUP1 PUSH1 0x0 DUP1 PUSH1 0x80 DUP6 DUP8 SUB SLT ISZERO PUSH2 0x2195 JUMPI DUP2 DUP3 REVERT JUMPDEST DUP5 CALLDATALOAD PUSH2 0x21A0 DUP2 PUSH2 0x2741 JUMP JUMPDEST SWAP4 POP PUSH1 0x20 DUP6 ADD CALLDATALOAD PUSH2 0x21B0 DUP2 PUSH2 0x2741 JUMP JUMPDEST SWAP4 SWAP7 SWAP4 SWAP6 POP POP POP POP PUSH1 0x40 DUP3 ADD CALLDATALOAD SWAP2 PUSH1 0x60 ADD CALLDATALOAD SWAP1 JUMP JUMPDEST PUSH1 0x0 DUP1 PUSH1 0x0 PUSH1 0x60 DUP5 DUP7 SUB SLT ISZERO PUSH2 0x21D9 JUMPI DUP3 DUP4 REVERT JUMPDEST DUP4 CALLDATALOAD PUSH2 0x21E4 DUP2 PUSH2 0x2741 JUMP JUMPDEST SWAP3 POP PUSH1 0x20 DUP5 ADD CALLDATALOAD PUSH2 0x21F4 DUP2 PUSH2 0x2741 JUMP JUMPDEST SWAP3 SWAP6 SWAP3 SWAP5 POP POP POP PUSH1 0x40 SWAP2 SWAP1 SWAP2 ADD CALLDATALOAD SWAP1 JUMP JUMPDEST PUSH1 0x0 DUP1 PUSH1 0x0 DUP1 PUSH1 0x80 DUP6 DUP8 SUB SLT ISZERO PUSH2 0x2195 JUMPI DUP4 DUP5 REVERT JUMPDEST PUSH1 0x0 DUP1 PUSH1 0x40 DUP4 DUP6 SUB SLT ISZERO PUSH2 0x222C JUMPI DUP2 DUP3 REVERT JUMPDEST DUP3 CALLDATALOAD PUSH2 0x2237 DUP2 PUSH2 0x2741 JUMP JUMPDEST SWAP5 PUSH1 0x20 SWAP4 SWAP1 SWAP4 ADD CALLDATALOAD SWAP4 POP POP POP JUMP JUMPDEST PUSH1 0x0 PUSH1 0x20 DUP3 DUP5 SUB SLT ISZERO PUSH2 0x2256 JUMPI DUP1 DUP2 REVERT JUMPDEST DUP2 MLOAD DUP1 ISZERO ISZERO DUP2 EQ PUSH2 0x64E JUMPI DUP2 DUP3 REVERT JUMPDEST PUSH1 0x0 PUSH1 0x20 DUP3 DUP5 SUB SLT ISZERO PUSH2 0x2276 JUMPI DUP1 DUP2 REVERT JUMPDEST POP MLOAD SWAP2 SWAP1 POP JUMP JUMPDEST PUSH1 0x0 DUP1 PUSH1 0x40 DUP4 DUP6 SUB SLT ISZERO PUSH2 0x228F JUMPI DUP2 DUP3 REVERT JUMPDEST DUP3 CALLDATALOAD PUSH8 0xFFFFFFFFFFFFFFFF DUP1 DUP3 GT ISZERO PUSH2 0x22A6 JUMPI DUP4 DUP5 REVERT JUMPDEST PUSH2 0x22B2 DUP7 DUP4 DUP8 ADD PUSH2 0x20AB JUMP JUMPDEST SWAP4 POP PUSH1 0x20 DUP6 ADD CALLDATALOAD SWAP2 POP DUP1 DUP3 GT ISZERO PUSH2 0x22C7 JUMPI DUP3 DUP4 REVERT JUMPDEST POP PUSH2 0x22D4 DUP6 DUP3 DUP7 ADD PUSH2 0x20AB JUMP JUMPDEST SWAP2 POP POP SWAP3 POP SWAP3 SWAP1 POP JUMP JUMPDEST PUSH1 0x0 DUP1 PUSH1 0x0 DUP1 DUP5 DUP7 SUB PUSH2 0x1C0 DUP2 SLT ISZERO PUSH2 0x22F5 JUMPI DUP3 DUP4 REVERT JUMPDEST PUSH1 0x60 DUP2 SLT ISZERO PUSH2 0x2302 JUMPI DUP3 DUP4 REVERT JUMPDEST PUSH1 0x40 MLOAD PUSH1 0x60 DUP2 ADD DUP2 DUP2 LT PUSH8 0xFFFFFFFFFFFFFFFF DUP3 GT OR ISZERO PUSH2 0x231F JUMPI INVALID JUMPDEST PUSH1 0x40 SWAP1 DUP2 MSTORE DUP8 MLOAD DUP3 MSTORE PUSH1 0x20 DUP1 DUP10 ADD MLOAD SWAP1 DUP4 ADD MSTORE DUP8 DUP2 ADD MLOAD SWAP1 DUP3 ADD MSTORE SWAP5 POP PUSH2 0x120 PUSH1 0x5F NOT DUP3 ADD DUP2 SGT ISZERO PUSH2 0x234F JUMPI DUP4 DUP5 REVERT JUMPDEST PUSH2 0x2358 DUP2 PUSH2 0x26F1 JUMP JUMPDEST SWAP2 POP PUSH1 0x60 DUP8 ADD MLOAD DUP3 MSTORE PUSH1 0x80 DUP8 ADD MLOAD PUSH1 0x20 DUP4 ADD MSTORE PUSH1 0xA0 DUP8 ADD MLOAD PUSH1 0x40 DUP4 ADD MSTORE PUSH1 0xC0 DUP8 ADD MLOAD PUSH1 0x60 DUP4 ADD MSTORE PUSH1 0xE0 DUP8 ADD MLOAD PUSH1 0x80 DUP4 ADD MSTORE PUSH2 0x100 DUP8 ADD MLOAD PUSH1 0xA0 DUP4 ADD MSTORE DUP1 DUP8 ADD MLOAD PUSH1 0xC0 DUP4 ADD MSTORE POP PUSH2 0x140 DUP7 ADD MLOAD PUSH1 0xE0 DUP3 ADD MSTORE PUSH2 0x160 DUP7 ADD MLOAD PUSH2 0x100 DUP3 ADD MSTORE DUP1 SWAP4 POP POP PUSH2 0x180 DUP6 ADD MLOAD SWAP2 POP PUSH2 0x1A0 DUP6 ADD MLOAD SWAP1 POP SWAP3 SWAP6 SWAP2 SWAP5 POP SWAP3 POP JUMP JUMPDEST PUSH1 0x0 DUP1 PUSH1 0x0 DUP1 PUSH1 0x80 DUP6 DUP8 SUB SLT ISZERO PUSH2 0x23E7 JUMPI DUP2 DUP3 REVERT JUMPDEST DUP5 CALLDATALOAD PUSH2 0xFFFF DUP2 AND DUP2 EQ PUSH2 0x23F8 JUMPI DUP3 DUP4 REVERT JUMPDEST SWAP4 POP PUSH1 0x20 DUP6 ADD CALLDATALOAD PUSH2 0x2408 DUP2 PUSH2 0x2741 JUMP JUMPDEST SWAP3 POP PUSH1 0x40 DUP6 ADD CALLDATALOAD PUSH8 0xFFFFFFFFFFFFFFFF DUP1 DUP3 GT ISZERO PUSH2 0x2424 JUMPI DUP4 DUP5 REVERT JUMPDEST PUSH2 0x2430 DUP9 DUP4 DUP10 ADD PUSH2 0x20AB JUMP JUMPDEST SWAP4 POP PUSH1 0x60 DUP8 ADD CALLDATALOAD SWAP2 POP DUP1 DUP3 GT ISZERO PUSH2 0x2445 JUMPI DUP3 DUP4 REVERT JUMPDEST POP PUSH2 0x2452 DUP8 DUP3 DUP9 ADD PUSH2 0x20AB JUMP JUMPDEST SWAP2 POP POP SWAP3 SWAP6 SWAP2 SWAP5 POP SWAP3 POP JUMP JUMPDEST PUSH1 0x0 PUSH1 0x20 DUP3 DUP5 SUB SLT ISZERO PUSH2 0x246F JUMPI DUP1 DUP2 REVERT JUMPDEST POP CALLDATALOAD SWAP2 SWAP1 POP JUMP JUMPDEST PUSH1 0x0 DUP1 PUSH1 0x40 DUP4 DUP6 SUB SLT ISZERO PUSH2 0x2488 JUMPI DUP2 DUP3 REVERT JUMPDEST DUP3 CALLDATALOAD SWAP2 POP PUSH1 0x20 DUP4 ADD CALLDATALOAD PUSH2 0x2175 DUP2 PUSH2 0x2741 JUMP JUMPDEST PUSH1 0x0 DUP1 PUSH1 0x0 PUSH1 0x60 DUP5 DUP7 SUB SLT ISZERO PUSH2 0x24AE JUMPI DUP1 DUP2 REVERT JUMPDEST DUP4 CALLDATALOAD SWAP3 POP PUSH1 0x20 DUP5 ADD CALLDATALOAD PUSH2 0x24C0 DUP2 PUSH2 0x2741 JUMP JUMPDEST SWAP2 POP PUSH1 0x40 DUP5 ADD CALLDATALOAD PUSH2 0x24D0 DUP2 PUSH2 0x2741 JUMP JUMPDEST DUP1 SWAP2 POP POP SWAP3 POP SWAP3 POP SWAP3 JUMP JUMPDEST PUSH1 0x0 PUSH1 0x20 DUP3 DUP5 SUB SLT ISZERO PUSH2 0x24EC JUMPI DUP1 DUP2 REVERT JUMPDEST DUP2 MLOAD PUSH1 0xFF DUP2 AND DUP2 EQ PUSH2 0x64E JUMPI DUP2 DUP3 REVERT JUMPDEST PUSH1 0x0 DUP4 MLOAD PUSH2 0x250E DUP2 DUP5 PUSH1 0x20 DUP9 ADD PUSH2 0x2715 JUMP JUMPDEST DUP4 MLOAD SWAP1 DUP4 ADD SWAP1 PUSH2 0x2522 DUP2 DUP4 PUSH1 0x20 DUP9 ADD PUSH2 0x2715 JUMP JUMPDEST ADD SWAP5 SWAP4 POP POP POP POP JUMP JUMPDEST PUSH1 0x0 DUP4 MLOAD PUSH2 0x253D DUP2 DUP5 PUSH1 0x20 DUP9 ADD PUSH2 0x2715 JUMP JUMPDEST PUSH1 0x1 PUSH1 0xFD SHL SWAP1 DUP4 ADD SWAP1 DUP2 MSTORE DUP4 MLOAD PUSH2 0x255B DUP2 PUSH1 0x1 DUP5 ADD PUSH1 0x20 DUP9 ADD PUSH2 0x2715 JUMP JUMPDEST ADD PUSH1 0x1 ADD SWAP5 SWAP4 POP POP POP POP JUMP JUMPDEST PUSH1 0x1 PUSH1 0x1 PUSH1 0xA0 SHL SUB SWAP2 SWAP1 SWAP2 AND DUP2 MSTORE PUSH1 0x20 ADD SWAP1 JUMP JUMPDEST SWAP1 ISZERO ISZERO DUP2 MSTORE PUSH1 0x20 ADD SWAP1 JUMP JUMPDEST SWAP1 DUP2 MSTORE PUSH1 0x20 ADD SWAP1 JUMP JUMPDEST PUSH1 0x0 PUSH1 0x20 DUP3 MSTORE DUP3 MLOAD DUP1 PUSH1 0x20 DUP5 ADD MSTORE PUSH2 0x25AE DUP2 PUSH1 0x40 DUP6 ADD PUSH1 0x20 DUP8 ADD PUSH2 0x2715 JUMP JUMPDEST PUSH1 0x1F ADD PUSH1 0x1F NOT AND SWAP2 SWAP1 SWAP2 ADD PUSH1 0x40 ADD SWAP3 SWAP2 POP POP JUMP JUMPDEST PUSH1 0x20 DUP1 DUP3 MSTORE PUSH1 0xF SWAP1 DUP3 ADD MSTORE PUSH15 0x139BDD08125B5C1B195B595B9D1959 PUSH1 0x8A SHL PUSH1 0x40 DUP3 ADD MSTORE PUSH1 0x60 ADD SWAP1 JUMP JUMPDEST PUSH1 0x20 DUP1 DUP3 MSTORE PUSH1 0xC SWAP1 DUP3 ADD MSTORE PUSH12 0x155B985D5D1A1BDC9A5E9959 PUSH1 0xA2 SHL PUSH1 0x40 DUP3 ADD MSTORE PUSH1 0x60 ADD SWAP1 JUMP JUMPDEST PUSH2 0xFFFF SWAP2 SWAP1 SWAP2 AND DUP2 MSTORE PUSH1 0x20 ADD SWAP1 JUMP JUMPDEST PUSH2 0xFFFF SWAP3 SWAP1 SWAP3 AND DUP3 MSTORE PUSH1 0x1 PUSH1 0x1 PUSH1 0xA0 SHL SUB AND PUSH1 0x20 DUP3 ADD MSTORE PUSH1 0x40 ADD SWAP1 JUMP JUMPDEST PUSH2 0xFFFF SWAP6 SWAP1 SWAP6 AND DUP6 MSTORE PUSH1 0x1 PUSH1 0x1 PUSH1 0xA0 SHL SUB SWAP4 DUP5 AND PUSH1 0x20 DUP7 ADD MSTORE SWAP2 DUP4 AND PUSH1 0x40 DUP6 ADD MSTORE SWAP1 SWAP2 AND PUSH1 0x60 DUP4 ADD MSTORE PUSH1 0x80 DUP3 ADD MSTORE PUSH1 0xA0 ADD SWAP1 JUMP JUMPDEST PUSH2 0xFFFF SWAP5 SWAP1 SWAP5 AND DUP5 MSTORE PUSH1 0x1 PUSH1 0x1 PUSH1 0xA0 SHL SUB SWAP3 DUP4 AND PUSH1 0x20 DUP6 ADD MSTORE SWAP2 AND PUSH1 0x40 DUP4 ADD MSTORE PUSH1 0x60 DUP3 ADD MSTORE PUSH1 0x80 ADD SWAP1 JUMP JUMPDEST PUSH2 0xFFFF SWAP4 SWAP1 SWAP4 AND DUP4 MSTORE PUSH1 0x1 PUSH1 0x1 PUSH1 0xA0 SHL SUB SWAP2 DUP3 AND PUSH1 0x20 DUP5 ADD MSTORE AND PUSH1 0x40 DUP3 ADD MSTORE PUSH1 0x60 ADD SWAP1 JUMP JUMPDEST PUSH2 0xFFFF SWAP3 SWAP1 SWAP3 AND DUP3 MSTORE PUSH1 0x20 DUP3 ADD MSTORE PUSH1 0x40 ADD SWAP1 JUMP JUMPDEST SWAP2 DUP3 MSTORE PUSH1 0x20 DUP3 ADD MSTORE PUSH1 0x40 ADD SWAP1 JUMP JUMPDEST PUSH1 0xFF SWAP2 SWAP1 SWAP2 AND DUP2 MSTORE PUSH1 0x20 ADD SWAP1 JUMP JUMPDEST PUSH1 0x40 MLOAD DUP2 DUP2 ADD PUSH8 0xFFFFFFFFFFFFFFFF DUP2 GT DUP3 DUP3 LT OR ISZERO PUSH2 0x270D JUMPI INVALID JUMPDEST PUSH1 0x40 MSTORE SWAP2 SWAP1 POP JUMP JUMPDEST PUSH1 0x0 JUMPDEST DUP4 DUP2 LT ISZERO PUSH2 0x2730 JUMPI DUP2 DUP2 ADD MLOAD DUP4 DUP3 ADD MSTORE PUSH1 0x20 ADD PUSH2 0x2718 JUMP JUMPDEST DUP4 DUP2 GT ISZERO PUSH2 0x1D7E JUMPI POP POP PUSH1 0x0 SWAP2 ADD MSTORE JUMP JUMPDEST PUSH1 0x1 PUSH1 0x1 PUSH1 0xA0 SHL SUB DUP2 AND DUP2 EQ PUSH2 0x2756 JUMPI PUSH1 0x0 DUP1 REVERT JUMPDEST POP JUMP INVALID 0x49 PUSH15 0x697469616C697A61626C653A20636F PUSH15 0x747261637420697320616C72656164 PUSH26 0x20696E697469616C697A6564DDF252AD1BE2C89B69C2B068FC37 DUP14 0xAA SWAP6 0x2B 0xA7 CALL PUSH4 0xC4A11628 CREATE2 GAS 0x4D CREATE2 0x23 0xB3 0xEF MSTORE8 PUSH2 0x6665 GASLIMIT MSTORE NUMBER ORIGIN ADDRESS GASPRICE KECCAK256 GASLIMIT MSTORE NUMBER ORIGIN ADDRESS KECCAK256 PUSH16 0x7065726174696F6E20646964206E6F74 KECCAK256 PUSH20 0x7563636565645361666545524332303A20617070 PUSH19 0x6F76652066726F6D206E6F6E2D7A65726F2074 PUSH16 0x206E6F6E2D7A65726F20616C6C6F7761 PUSH15 0x6365A26469706673582212207DEDC3 0xF9 PUSH6 0x481FE1A7254C SWAP11 MUL SWAP10 0xEF 0xC2 XOR 0x2B 0xB5 0x5E SWAP2 SSTORE 0xC8 RETURNDATASIZE ADDRESS PUSH8 0xA48461B1E3986473 PUSH16 0x6C634300070600330000000000000000 ","sha1":"1535eb200e422ed1046ca362ad72db7438d8a69c","source":"// SPDX-License-Identifier: GPL-3.0-only\npragma solidity =0.7.6;\npragma abicoder v2;\n\nimport {SafeInt256} from \"../../math/SafeInt256.sol\";\nimport {Constants} from \"../../global/Constants.sol\";\nimport {NotionalProxy, BaseERC4626Proxy} from \"./BaseERC4626Proxy.sol\";\n\n/// @notice ERC20 proxy for nToken contracts that forwards calls to the Router, all nToken\n/// balances and allowances are stored in at single address for gas efficiency. This contract\n/// is used simply for ERC20 compliance.\ncontract nTokenERC20Proxy is BaseERC4626Proxy {\n    using SafeInt256 for int256;\n\n    constructor(NotionalProxy notional_) BaseERC4626Proxy(notional_) {}\n\n    function _getPrefixes() internal pure override returns (string memory namePrefix, string memory symbolPrefix) {\n        namePrefix = \"nToken\";\n        symbolPrefix = \"n\";\n    }\n\n    function _totalSupply() internal view override returns (uint256 supply) {\n        // Total supply is looked up via the token address\n        return NOTIONAL.nTokenTotalSupply(address(this));\n    }\n\n    function _balanceOf(address account) internal view override returns (uint256 balance) {\n        return NOTIONAL.nTokenBalanceOf(currencyId, account);\n    }\n\n    function _allowance(address account, address spender) internal view override returns (uint256) {\n        return NOTIONAL.nTokenTransferAllowance(currencyId, account, spender);\n    }\n\n    function _approve(address spender, uint256 amount) internal override returns (bool) {\n        return NOTIONAL.nTokenTransferApprove(currencyId, msg.sender, spender, amount);\n    }\n\n    function _transfer(address to, uint256 amount) internal override returns (bool) {\n        return NOTIONAL.nTokenTransfer(currencyId, msg.sender, to, amount);\n    }\n\n    function _transferFrom(address from, address to, uint256 amount) internal override returns (bool) {\n        return NOTIONAL.nTokenTransferFrom(currencyId, msg.sender, from, to, amount);\n    }\n\n    /// @notice Returns the present value of the nToken's assets denominated in asset tokens\n    function getPresentValueAssetDenominated() external view returns (int256) {\n        return NOTIONAL.nTokenPresentValueAssetDenominated(currencyId);\n    }\n\n    /// @notice Returns the present value of the nToken's assets denominated in underlying\n    function getPresentValueUnderlyingDenominated() external view returns (int256) {\n        return NOTIONAL.nTokenPresentValueUnderlyingDenominated(currencyId);\n    }\n\n    function _getTotalValueExternal() internal view override returns (uint256 totalValueExternal) {\n        int256 underlyingInternal = NOTIONAL.nTokenPresentValueUnderlyingDenominated(currencyId);\n        totalValueExternal = underlyingInternal\n            // No overflow, native decimals is restricted to < 36 in initialize\n            .mul(int256(10**nativeDecimals))\n            .div(Constants.INTERNAL_TOKEN_PRECISION).toUint();\n    }\n\n    function _mint(uint256 assets, uint256 msgValue, address receiver) internal override returns (uint256 tokensMinted) {\n        revert(\"Not Implemented\");\n    }\n\n    function _redeem(uint256 shares, address receiver, address owner) internal override returns (uint256 assets) {\n        revert(\"Not Implemented\");\n    }\n}\n","sourcePath":"contracts/external/proxies/nTokenERC20Proxy.sol","type":"contract","deployment":{"address":"0xCAd793546c97cd9B02492BA2FDB887E4eA9f02D8","chainid":"42161","blockHeight":119721346}}