{"abi":[{"inputs":[{"internalType":"contract NotionalProxy","name":"notional_","type":"address"},{"internalType":"address","name":"lendingPool_","type":"address"},{"internalType":"address","name":"weth_","type":"address"},{"internalType":"contract IWstETH","name":"wstETH_","type":"address"},{"internalType":"address","name":"owner_","type":"address"},{"internalType":"address","name":"tradingModule_","type":"address"},{"internalType":"bool","name":"unwrapStETH_","type":"bool"}],"stateMutability":"nonpayable","type":"constructor","name":"constructor"},{"inputs":[],"name":"LENDING_POOL","outputs":[{"internalType":"address","name":"","type":"address"}],"stateMutability":"view","type":"function"},{"inputs":[],"name":"NOTIONAL","outputs":[{"internalType":"contract NotionalProxy","name":"","type":"address"}],"stateMutability":"view","type":"function"},{"inputs":[],"name":"TRADING_MODULE","outputs":[{"internalType":"contract ITradingModule","name":"","type":"address"}],"stateMutability":"view","type":"function"},{"inputs":[],"name":"WETH","outputs":[{"internalType":"contract WETH9","name":"","type":"address"}],"stateMutability":"view","type":"function"},{"inputs":[{"internalType":"address[]","name":"tokens","type":"address[]"},{"internalType":"address","name":"spender","type":"address"}],"name":"approveTokens","outputs":[],"stateMutability":"nonpayable","type":"function"},{"inputs":[{"internalType":"uint16[]","name":"currencies","type":"uint16[]"}],"name":"enableCurrencies","outputs":[],"stateMutability":"nonpayable","type":"function"},{"inputs":[{"internalType":"address[]","name":"assets","type":"address[]"},{"internalType":"uint256[]","name":"amounts","type":"uint256[]"},{"internalType":"uint256[]","name":"premiums","type":"uint256[]"},{"internalType":"address","name":"initiator","type":"address"},{"internalType":"bytes","name":"params","type":"bytes"}],"name":"executeOperation","outputs":[{"internalType":"bool","name":"","type":"bool"}],"stateMutability":"nonpayable","type":"function"},{"inputs":[{"internalType":"address","name":"asset","type":"address"},{"internalType":"uint256","name":"amount","type":"uint256"},{"internalType":"bytes","name":"params","type":"bytes"},{"internalType":"address","name":"localAddress","type":"address"},{"internalType":"address","name":"collateralAddress","type":"address"}],"name":"flashLoan","outputs":[{"internalType":"uint256","name":"flashLoanResidual","type":"uint256"},{"internalType":"uint256","name":"localProfit","type":"uint256"},{"internalType":"uint256","name":"collateralProfit","type":"uint256"}],"stateMutability":"nonpayable","type":"function"},{"inputs":[{"internalType":"address","name":"account","type":"address"}],"name":"getFreeCollateral","outputs":[{"internalType":"int256","name":"","type":"int256"},{"internalType":"int256[]","name":"","type":"int256[]"}],"stateMutability":"nonpayable","type":"function"},{"inputs":[],"name":"ifCashCurrencyId","outputs":[{"internalType":"uint16","name":"","type":"uint16"}],"stateMutability":"view","type":"function"},{"inputs":[],"name":"owner","outputs":[{"internalType":"address","name":"","type":"address"}],"stateMutability":"view","type":"function"},{"inputs":[{"internalType":"address","name":"newOwner","type":"address"}],"name":"transferOwnership","outputs":[],"stateMutability":"nonpayable","type":"function"},{"inputs":[{"internalType":"address","name":"token","type":"address"},{"internalType":"uint256","name":"amount","type":"uint256"}],"name":"withdraw","outputs":[],"stateMutability":"nonpayable","type":"function"},{"inputs":[],"name":"wrapToWETH","outputs":[],"stateMutability":"nonpayable","type":"function"},{"inputs":[],"name":"wstETH","outputs":[{"internalType":"contract IWstETH","name":"","type":"address"}],"stateMutability":"view","type":"function"},{"stateMutability":"payable","type":"receive"}],"bytecode":"6101406040523480156200001257600080fd5b5060405162003f3338038062003f33833981016040819052620000359162000099565b6001600160601b0319606097881b811660805294871b851660a05292861b841660c052600180546001600160a01b039093166001600160a01b03199093169290921790915590151560f81b60e05291831b811661010052911b16610120526200015f565b600080600080600080600060e0888a031215620000b4578283fd5b8751620000c18162000146565b6020890151909750620000d48162000146565b6040890151909650620000e78162000146565b6060890151909550620000fa8162000146565b60808901519094506200010d8162000146565b60a0890151909350620001208162000146565b60c0890151909250801515811462000136578182fd5b8091505092959891949750929550565b6001600160a01b03811681146200015c57600080fd5b50565b60805160601c60a05160601c60c05160601c60e05160f81c6101005160601c6101205160601c613cec6200024760003980610fe5528061109b52806110d452508061034e52806108f55280610c985280611d125250806115a75250806102e2528061224452508061038a52806103e55280610638528061070b5280610767528061085c52806110095280611cec5250806103065280610aa55280610b3652806111cf528061120f52806112c1528061144352806114d352806116e752806117a0528061194552806119d552806121be528061268d5280612763528061281b5250613cec6000f3fe6080604052600436106100ec5760003560e01c8063b12ffdad1161008a578063d99a9c9c11610059578063d99a9c9c1461024b578063f2fde38b1461027a578063f3fef3a31461029a578063fc2db717146102ba576100f3565b8063b12ffdad146101c8578063b4dcfc77146101e8578063c2243379146101fd578063c39994441461021d576100f3565b80638a3843e0116100c65780638a3843e01461015a5780638da5cb5b14610171578063920f5c8414610186578063ad5c4648146101b3576100f3565b806306c63840146100f85780634aa07e6414610123578063858dccb314610145576100f3565b366100f357005b600080fd5b34801561010457600080fd5b5061010d6102cf565b60405161011a9190613b78565b60405180910390f35b34801561012f57600080fd5b506101386102e0565b60405161011a919061370e565b34801561015157600080fd5b50610138610304565b34801561016657600080fd5b5061016f610328565b005b34801561017d57600080fd5b50610138610332565b34801561019257600080fd5b506101a66101a1366004612f69565b610341565b60405161011a9190613aa6565b3480156101bf57600080fd5b5061013861085a565b3480156101d457600080fd5b5061016f6101e3366004613082565b61087e565b3480156101f457600080fd5b506101386108f3565b34801561020957600080fd5b5061016f610218366004612f15565b610917565b34801561022957600080fd5b5061023d610238366004612e30565b610a9f565b60405161011a929190613ab1565b34801561025757600080fd5b5061026b610266366004612e93565b610bca565b60405161011a93929190613be0565b34801561028657600080fd5b5061016f610295366004612e30565b610eeb565b3480156102a657600080fd5b5061016f6102b5366004612e68565b610f5d565b3480156102c657600080fd5b50610138610fe3565b600154600160a01b900461ffff1681565b7f000000000000000000000000000000000000000000000000000000000000000081565b7f000000000000000000000000000000000000000000000000000000000000000081565b610330611007565b565b6001546001600160a01b031681565b6000336001600160a01b037f0000000000000000000000000000000000000000000000000000000000000000161461037857600080fd5b60006103868385018561334a565b90507f00000000000000000000000000000000000000000000000000000000000000006001600160a01b03168b8b60008181106103bf57fe5b90506020020160208101906103d49190612e30565b6001600160a01b03161415610475577f00000000000000000000000000000000000000000000000000000000000000006001600160a01b0316632e1a7d4d8a8a600081811061041f57fe5b905060200201356040518263ffffffff1660e01b81526004016104429190613bd7565b600060405180830381600087803b15801561045c57600080fd5b505af1158015610470573d6000803e3d6000fd5b505050505b608081015151156104a7576000816080015180602001905181019061049a9190613575565b90506104a58161107d565b505b6000815160ff1660038111156104b957fe5b60038111156104c457fe5b141561050c57610507818c8c808060200260200160405190810160405280939291908181526020018383602002808284376000920191909152506110fb92505050565b61062c565b6001815160ff16600381111561051e57fe5b600381111561052957fe5b141561056c57610507818c8c8080602002602001604051908101604052809392919081815260200183836020028082843760009201919091525061135d92505050565b6002815160ff16600381111561057e57fe5b600381111561058957fe5b14156105cc57610507818c8c8080602002602001604051908101604052809392919081815260200183836020028082843760009201919091525061160192505050565b6003815160ff1660038111156105de57fe5b60038111156105e957fe5b141561062c5761062c818c8c8080602002602001604051908101604052809392919081815260200183836020028082843760009201919091525061185f92505050565b8060600151156106ab577f00000000000000000000000000000000000000000000000000000000000000006001600160a01b031663d0e30db0476040518263ffffffff1660e01b81526004016000604051808303818588803b15801561069157600080fd5b505af11580156106a5573d6000803e3d6000fd5b50505050505b6001815160ff1660038111156106bd57fe5b60038111156106c857fe5b14806106ee57506003815160ff1660038111156106e157fe5b60038111156106ec57fe5b145b156106fc576106fc81611aac565b806060015115801561076057507f00000000000000000000000000000000000000000000000000000000000000006001600160a01b03168b8b600081811061074057fe5b90506020020160208101906107559190612e30565b6001600160a01b0316145b156107da577f00000000000000000000000000000000000000000000000000000000000000006001600160a01b031663d0e30db0476040518263ffffffff1660e01b81526004016000604051808303818588803b1580156107c057600080fd5b505af11580156107d4573d6000803e3d6000fd5b50505050505b806020015115610847576108478b8b60008181106107f457fe5b90506020020160208101906108099190612e30565b6108428989600081811061081957fe5b905060200201358c8c600081811061082d57fe5b90506020020135611b5290919063ffffffff16565b611bb5565b60019150505b9998505050505050505050565b7f000000000000000000000000000000000000000000000000000000000000000081565b6001546001600160a01b031633146108b15760405162461bcd60e51b81526004016108a890613b43565b60405180910390fd5b60005b818110156108ee576108e58383838181106108cb57fe5b90506020020160208101906108e091906135a7565b611ccd565b506001016108b4565b505050565b7f000000000000000000000000000000000000000000000000000000000000000081565b6001546001600160a01b031633146109415760405162461bcd60e51b81526004016108a890613b43565b60005b82811015610a995783838281811061095857fe5b905060200201602081019061096d9190612e30565b6001600160a01b031663095ea7b38360006040518363ffffffff1660e01b815260040161099b929190613945565b602060405180830381600087803b1580156109b557600080fd5b505af11580156109c9573d6000803e3d6000fd5b505050506040513d601f19601f820116820180604052508101906109ed91906130c1565b508383828181106109fa57fe5b9050602002016020810190610a0f9190612e30565b6001600160a01b031663095ea7b3836000196040518363ffffffff1660e01b8152600401610a3e929190613945565b602060405180830381600087803b158015610a5857600080fd5b505af1158015610a6c573d6000803e3d6000fd5b505050506040513d601f19601f82011682018060405250810190610a9091906130c1565b50600101610944565b50505050565b600060607f00000000000000000000000000000000000000000000000000000000000000006001600160a01b031663f667f897846040518263ffffffff1660e01b8152600401610aef919061370e565b600060405180830381600087803b158015610b0957600080fd5b505af1158015610b1d573d6000803e3d6000fd5b50506040516330e6651160e21b81526001600160a01b037f000000000000000000000000000000000000000000000000000000000000000016925063c39994449150610b6d90869060040161370e565b60006040518083038186803b158015610b8557600080fd5b505afa158015610b99573d6000803e3d6000fd5b505050506040513d6000823e601f3d908101601f19168201604052610bc191908101906130dd565b91509150915091565b600154600090819081906001600160a01b03163314610bfb5760405162461bcd60e51b81526004016108a890613b43565b6040805160018082528183019092526000916020808301908036833750506040805160018082528183019092529293506000929150602080830190803683370190505090508a82600081518110610c4e57fe5b60200260200101906001600160a01b031690816001600160a01b0316815250508981600081518110610c7c57fe5b60209081029190910101526040805160018082528183019092527f00000000000000000000000000000000000000000000000000000000000000006001600160a01b03169163ab9c4b5d9130918691869181602001602082028036833701905050308f8f60006040518963ffffffff1660e01b8152600401610d05989796959493929190613899565b600060405180830381600087803b158015610d1f57600080fd5b505af1158015610d33573d6000803e3d6000fd5b50506040516370a0823160e01b81526001600160a01b038e1692506370a082319150610d6390309060040161370e565b60206040518083038186803b158015610d7b57600080fd5b505afa158015610d8f573d6000803e3d6000fd5b505050506040513d601f19601f82011682018060405250810190610db391906135c3565b94506001600160a01b03871615610e45576040516370a0823160e01b81526001600160a01b038816906370a0823190610df090309060040161370e565b60206040518083038186803b158015610e0857600080fd5b505afa158015610e1c573d6000803e3d6000fd5b505050506040513d601f19601f82011682018060405250810190610e4091906135c3565b610e47565b475b93506001600160a01b03861615610ed9576040516370a0823160e01b81526001600160a01b038716906370a0823190610e8490309060040161370e565b60206040518083038186803b158015610e9c57600080fd5b505afa158015610eb0573d6000803e3d6000fd5b505050506040513d601f19601f82011682018060405250810190610ed491906135c3565b610edb565b475b9250505096509650969350505050565b6001546001600160a01b03163314610f155760405162461bcd60e51b81526004016108a890613b43565b6001600160a01b038116610f3b5760405162461bcd60e51b81526004016108a890613af1565b600180546001600160a01b0319166001600160a01b0392909216919091179055565b60015460405163a9059cbb60e01b81526001600160a01b038481169263a9059cbb92610f9192909116908590600401613945565b602060405180830381600087803b158015610fab57600080fd5b505af1158015610fbf573d6000803e3d6000fd5b505050506040513d601f19601f820116820180604052508101906108ee91906130c1565b7f000000000000000000000000000000000000000000000000000000000000000081565b7f00000000000000000000000000000000000000000000000000000000000000006001600160a01b031663d0e30db0476040518263ffffffff1660e01b81526004016000604051808303818588803b15801561106257600080fd5b505af1158015611076573d6000803e3d6000fd5b5050505050565b8060400151156110c7576020810151606082015182516110c09290917f000000000000000000000000000000000000000000000000000000000000000090611d3e565b50506110f8565b602081015181516108ee917f0000000000000000000000000000000000000000000000000000000000000000611e8b565b50565b60008260a00151806020019051810190611115919061341b565b905082604001511561129b5760008260008151811061113057fe5b60200260200101516001600160a01b03166370a08231306040518263ffffffff1660e01b8152600401611163919061370e565b60206040518083038186803b15801561117b57600080fd5b505afa15801561118f573d6000803e3d6000fd5b505050506040513d601f19601f820116820180604052508101906111b391906135c3565b90506111f3836000815181106111c557fe5b60200260200101517f0000000000000000000000000000000000000000000000000000000000000000611fd5565b6020820151604051632890fb6560e01b81526001600160a01b037f00000000000000000000000000000000000000000000000000000000000000001691632890fb65916112469130918690600401613a53565b602060405180830381600087803b15801561126057600080fd5b505af1158015611274573d6000803e3d6000fd5b505050506040513d601f19601f8201168201806040525081019061129891906135c3565b50505b805160208201516040808401519051632d10e6eb60e01b81526000936001600160a01b037f00000000000000000000000000000000000000000000000000000000000000001693632d10e6eb9347936112f993929190600401613a78565b60408051808303818588803b15801561131157600080fd5b505af1158015611325573d6000803e3d6000fd5b50505050506040513d601f19601f8201168201806040525081019061134a9190613121565b915050610a99826020015182600061208f565b60008260a001518060200190518101906113779190613171565b90508260400151156114cf5760008260008151811061139257fe5b60200260200101516001600160a01b03166370a08231306040518263ffffffff1660e01b81526004016113c5919061370e565b60206040518083038186803b1580156113dd57600080fd5b505afa1580156113f1573d6000803e3d6000fd5b505050506040513d601f19601f8201168201806040525081019061141591906135c3565b9050611427836000815181106111c557fe5b6020820151604051632890fb6560e01b81526001600160a01b037f00000000000000000000000000000000000000000000000000000000000000001691632890fb659161147a9130918690600401613a53565b602060405180830381600087803b15801561149457600080fd5b505af11580156114a8573d6000803e3d6000fd5b505050506040513d601f19601f820116820180604052508101906114cc91906135c3565b50505b60007f00000000000000000000000000000000000000000000000000000000000000006001600160a01b0316636633af394784600001518560200151866040015187608001518860a001516001806040518963ffffffff1660e01b815260040161153f97969594939291906139fd565b6060604051808303818588803b15801561155857600080fd5b505af115801561156c573d6000803e3d6000fd5b50505050506040513d601f19601f820116820180604052508101906115919190613144565b925050506115a5826040015182600161208f565b7f000000000000000000000000000000000000000000000000000000000000000080156115da57506005826040015161ffff16145b156115e7576115e761222d565b836040015115610a9957610a99826020015160008061208f565b60008260a0015180602001905181019061161b9190613483565b90508260400151156117735760008260008151811061163657fe5b60200260200101516001600160a01b03166370a08231306040518263ffffffff1660e01b8152600401611669919061370e565b60206040518083038186803b15801561168157600080fd5b505afa158015611695573d6000803e3d6000fd5b505050506040513d601f19601f820116820180604052508101906116b991906135c3565b90506116cb836000815181106111c557fe5b6020820151604051632890fb6560e01b81526001600160a01b037f00000000000000000000000000000000000000000000000000000000000000001691632890fb659161171e9130918690600401613a53565b602060405180830381600087803b15801561173857600080fd5b505af115801561174c573d6000803e3d6000fd5b505050506040513d601f19601f8201168201806040525081019061177091906135c3565b50505b8051602082015160408084015160608501519151631ff7aefd60e21b815260009485946001600160a01b037f00000000000000000000000000000000000000000000000000000000000000001694637fdebbf49447946117d89493929060040161395e565b6000604051808303818588803b1580156117f157600080fd5b505af1158015611805573d6000803e3d6000fd5b50505050506040513d6000823e601f3d908101601f1916820160405261182e919081019061303e565b9150915061107683602001518460400151846000851261184f576000611858565b6118588561233f565b6001612360565b60008260a001518060200190518101906118799190613241565b90508260400151156119d15760008260008151811061189457fe5b60200260200101516001600160a01b03166370a08231306040518263ffffffff1660e01b81526004016118c7919061370e565b60206040518083038186803b1580156118df57600080fd5b505afa1580156118f3573d6000803e3d6000fd5b505050506040513d601f19601f8201168201806040525081019061191791906135c3565b9050611929836000815181106111c557fe5b6020820151604051632890fb6560e01b81526001600160a01b037f00000000000000000000000000000000000000000000000000000000000000001691632890fb659161197c9130918690600401613a53565b602060405180830381600087803b15801561199657600080fd5b505af11580156119aa573d6000803e3d6000fd5b505050506040513d601f19601f820116820180604052508101906119ce91906135c3565b50505b60007f00000000000000000000000000000000000000000000000000000000000000006001600160a01b031663e816469d478460000151856020015186604001518760a001518860c001516040518763ffffffff1660e01b8152600401611a3c9594939291906139a9565b6000604051808303818588803b158015611a5557600080fd5b505af1158015611a69573d6000803e3d6000fd5b50505050506040513d6000823e601f3d908101601f19168201604052611a92919081019061303e565b509050610a9982604001518360a001518360006001612360565b60006001825160ff166003811115611ac057fe5b6003811115611acb57fe5b1415611b075760008260a00151806020019051810190611aeb9190613171565b905080606001519150611b018160c0015161107d565b50611b39565b60008260a00151806020019051810190611b219190613241565b905080608001519150611b378160e0015161107d565b505b816020015115611b4e57611b4e816000611bb5565b5050565b600082820183811015611bac576040805162461bcd60e51b815260206004820152601b60248201527f536166654d6174683a206164646974696f6e206f766572666c6f770000000000604482015290519081900360640190fd5b90505b92915050565b6040516370a0823160e01b81526000906001600160a01b038416906370a0823190611be490309060040161370e565b60206040518083038186803b158015611bfc57600080fd5b505afa158015611c10573d6000803e3d6000fd5b505050506040513d601f19601f82011682018060405250810190611c3491906135c3565b9050818111156108ee576001546001600160a01b038085169163a9059cbb9116611c5e8486612701565b6040518363ffffffff1660e01b8152600401611c7b929190613945565b602060405180830381600087803b158015611c9557600080fd5b505af1158015611ca9573d6000803e3d6000fd5b505050506040513d601f19601f82011682018060405250810190610a9991906130c1565b600080611cd98361275e565b90506001600160a01b038116611d0c57507f00000000000000000000000000000000000000000000000000000000000000005b611d36817f0000000000000000000000000000000000000000000000000000000000000000611fd5565b90505b919050565b600080600080856001600160a01b031663aaf10f426040518163ffffffff1660e01b815260040160206040518083038186803b158015611d7d57600080fd5b505afa158015611d91573d6000803e3d6000fd5b505050506040513d601f19601f82011682018060405250810190611db59190612e4c565b6001600160a01b0316635caf9fda60e01b888a88604051602401611ddb93929190613ba4565b60408051601f198184030181529181526020820180516001600160e01b03166001600160e01b0319909416939093179092529051611e1991906136f2565b600060405180830381855af49150503d8060008114611e54576040519150601f19603f3d011682016040523d82523d6000602084013e611e59565b606091505b509150915081611e6857600080fd5b80806020019051810190611e7c9190613121565b90999098509650505050505050565b600080600080846001600160a01b031663aaf10f426040518163ffffffff1660e01b815260040160206040518083038186803b158015611eca57600080fd5b505afa158015611ede573d6000803e3d6000fd5b505050506040513d601f19601f82011682018060405250810190611f029190612e4c565b6001600160a01b0316632ba8c23c60e01b8789604051602401611f26929190613b87565b60408051601f198184030181529181526020820180516001600160e01b03166001600160e01b0319909416939093179092529051611f6491906136f2565b600060405180830381855af49150503d8060008114611f9f576040519150601f19603f3d011682016040523d82523d6000602084013e611fa4565b606091505b509150915081611fb357600080fd5b80806020019051810190611fc79190613121565b909890975095505050505050565b604051636eb1769f60e11b8152600160801b906001600160a01b0384169063dd62ed3e90612009903090869060040161387f565b60206040518083038186803b15801561202157600080fd5b505afa158015612035573d6000803e3d6000fd5b505050506040513d601f19601f8201168201806040525081019061205991906135c3565b1015611b4e5760405163095ea7b360e01b81526001600160a01b0383169063095ea7b390610f9190849060001990600401613945565b604080516001808252818301909252600091816020015b6120ae612a05565b8152602001906001900390816120a65790505090506001600160601b038316156120d95760056120dc565b60005b816000815181106120e957fe5b602002602001015160000190600681111561210057fe5b9081600681111561210d57fe5b81525050838160008151811061211f57fe5b60200260200101516020019061ffff16908161ffff1681525050826001600160601b03168160008151811061215057fe5b6020026020010151604001818152505060018160008151811061216f57fe5b60200260200101516080019015159081151581525050818160008151811061219357fe5b602090810291909101015190151560a090910152604051633735195360e11b81526001600160a01b037f00000000000000000000000000000000000000000000000000000000000000001690636e6a32a6906121f590309085906004016137e7565b600060405180830381600087803b15801561220f57600080fd5b505af1158015612223573d6000803e3d6000fd5b5050505050505050565b6040516370a0823160e01b81526001600160a01b037f0000000000000000000000000000000000000000000000000000000000000000169063de0e9a3e9082906370a082319061228190309060040161370e565b60206040518083038186803b15801561229957600080fd5b505afa1580156122ad573d6000803e3d6000fd5b505050506040513d601f19601f820116820180604052508101906122d191906135c3565b6040518263ffffffff1660e01b81526004016122ed9190613bd7565b602060405180830381600087803b15801561230757600080fd5b505af115801561231b573d6000803e3d6000fd5b505050506040513d601f19601f820116820180604052508101906110f891906135c3565b6000808212156123595761235282612846565b9050611d39565b5080611d39565b604080516001808252818301909252429160009190816020015b612382612a3c565b81526020019060019003908161237a579050509050600084116123a65760006123a9565b60015b816000815181106123b657fe5b60200260200101516000019060068111156123cd57fe5b908160068111156123da57fe5b8152505083816000815181106123ec57fe5b60200260200101516040018181525050868160008151811061240a57fe5b60200260200101516020019061ffff16908161ffff168152505060018160008151811061243357fe5b60200260200101516080019015159081151581525050828160008151811061245757fe5b602002602001015160a001901515908115158152505060008087516001600160401b038111801561248757600080fd5b506040519080825280602002602001820160405280156124b1578160200160208202803683370190505b50905060005b87518110156125a7578781815181106124cc57fe5b6020026020010151600014156124e15761259f565b60008061250360078c85815181106124f557fe5b602002602001015189612854565b91509150801561251457505061259f565b60986125328b858151811061252557fe5b602002602001015161233f565b6affffffffffffffffffffff16901b60f083901b60f860008d878151811061255657fe5b60200260200101511361256a57600061256d565b60015b600581111561257857fe5b901b171760001b84868151811061258b57fe5b602090810291909101015250506001909201915b6001016124b7565b508051821015612658576000826001600160401b03811180156125c957600080fd5b506040519080825280602002602001820160405280156125f3578160200160208202803683370190505b50905060005b838110156126345782818151811061260d57fe5b602002602001015182828151811061262157fe5b60209081029190910101526001016125f9565b50808460008151811061264357fe5b602002602001015160c0018190525050612676565b808360008151811061266657fe5b602002602001015160c001819052505b604051630276b64b60e01b81526001600160a01b037f00000000000000000000000000000000000000000000000000000000000000001690630276b64b906126c49030908790600401613722565b600060405180830381600087803b1580156126de57600080fd5b505af11580156126f2573d6000803e3d6000fd5b50505050505050505050505050565b600082821115612758576040805162461bcd60e51b815260206004820152601e60248201527f536166654d6174683a207375627472616374696f6e206f766572666c6f770000604482015290519081900360640190fd5b50900390565b6000807f00000000000000000000000000000000000000000000000000000000000000006001600160a01b0316634ebad18e846040518263ffffffff1660e01b81526004016127ad9190613b78565b6101406040518083038186803b1580156127c657600080fd5b505afa1580156127da573d6000803e3d6000fd5b505050506040513d601f19601f820116820180604052508101906127fe9190613540565b80519092506001600160a01b031615905061283f57805161283f907f0000000000000000000000000000000000000000000000000000000000000000611fd5565b5192915050565b6000611d36600019836128e3565b6000806000851161286457600080fd5b600785111561287257600080fd5b600061287d84612931565b905060015b8681116128d557600061289e6128978361294f565b84906129f3565b9050868114156128b657509250600091506128db9050565b868111156128cc57509250600191506128db9050565b50600101612882565b50600080fd5b935093915050565b8181026000198314156129135781158061290557508282828161290257fe5b05145b61290e57600080fd5b611baf565b82158061292857508183828161292557fe5b05145b611baf57600080fd5b60006276a70082101561294357600080fd5b506276a7008106900390565b6000816001141561296457506276a700611d39565b8160021415612977575062ed4e00611d39565b816003141561298b57506301da9c00611d39565b816004141561299f57506303b53800611d39565b81600514156129b357506309450c00611d39565b81600614156129c7575063128a1800611d39565b81600714156129db57506325143000611d39565b60405162461bcd60e51b81526004016108a890613b1c565b600082820183811015611bac57600080fd5b6040805160c08101909152806000815260006020820181905260408201819052606082018190526080820181905260a09091015290565b6040805160e081019091528060008152602001600061ffff1681526020016000815260200160008152602001600015158152602001600015158152602001606081525090565b8051611d3981613c83565b60008083601f840112612a9e578182fd5b5081356001600160401b03811115612ab4578182fd5b6020830191508360208083028501011115612ace57600080fd5b9250929050565b600082601f830112612ae5578081fd5b81516020612afa612af583613c19565b613bf6565b8281528181019085830183850287018401881015612b16578586fd5b855b85811015612b3457815184529284019290840190600101612b18565b5090979650505050505050565b8035611d3981613c98565b8051611d3981613c98565b60008083601f840112612b68578182fd5b5081356001600160401b03811115612b7e578182fd5b602083019150836020828501011115612ace57600080fd5b600082601f830112612ba6578081fd5b8135612bb4612af582613c36565b818152846020838601011115612bc8578283fd5b816020850160208301379081016020019190915292915050565b600082601f830112612bf2578081fd5b8151612c00612af582613c36565b818152846020838601011115612c14578283fd5b612c25826020830160208701613c57565b949350505050565b805160048110611d3957600080fd5b600060a08284031215612c4d578081fd5b60405160a081018181106001600160401b0382111715612c6957fe5b80604052508091508251612c7c81613c83565b81526020830151612c8c81613c98565b602082015260408381015190820152606083015160068110612cad57600080fd5b6060820152608092830151920191909152919050565b600060808284031215612cd4578081fd5b60408051608081016001600160401b038282108183111715612cf257fe5b8184528294508551915080821115612d0957600080fd5b9085019060e08288031215612d1d57600080fd5b612d2760e0613bf6565b612d3083612c2d565b8152612d3e60208401612a82565b6020820152612d4e858401612a82565b85820152606083015160608201526080830151608082015260a083015160a082015260c083015182811115612d8257600080fd5b612d8e89828601612be2565b60c083015250835250612da5905060208501612de9565b6020820152612db5828501612b4c565b82820152612dc560608501612df4565b6060820152505092915050565b80516001600160801b0381168114611d3957600080fd5b8051611d3981613ca6565b805163ffffffff81168114611d3957600080fd5b803560ff81168114611d3957600080fd5b80516001600160601b0381168114611d3957600080fd5b600060208284031215612e41578081fd5b8135611bac81613c83565b600060208284031215612e5d578081fd5b8151611bac81613c83565b60008060408385031215612e7a578081fd5b8235612e8581613c83565b946020939093013593505050565b60008060008060008060a08789031215612eab578182fd5b8635612eb681613c83565b95506020870135945060408701356001600160401b03811115612ed7578283fd5b612ee389828a01612b57565b9095509350506060870135612ef781613c83565b91506080870135612f0781613c83565b809150509295509295509295565b600080600060408486031215612f29578081fd5b83356001600160401b03811115612f3e578182fd5b612f4a86828701612a8d565b9094509250506020840135612f5e81613c83565b809150509250925092565b600080600080600080600080600060a08a8c031215612f86578687fd5b89356001600160401b0380821115612f9c578889fd5b612fa88d838e01612a8d565b909b50995060208c0135915080821115612fc0578889fd5b612fcc8d838e01612a8d565b909950975060408c0135915080821115612fe4578485fd5b612ff08d838e01612a8d565b909750955060608c0135915061300582613c83565b90935060808b0135908082111561301a578384fd5b506130278c828d01612b57565b915080935050809150509295985092959850929598565b60008060408385031215613050578182fd5b82516001600160401b03811115613065578283fd5b61307185828601612ad5565b925050602083015190509250929050565b60008060208385031215613094578182fd5b82356001600160401b038111156130a9578283fd5b6130b585828601612a8d565b90969095509350505050565b6000602082840312156130d2578081fd5b8151611bac81613c98565b600080604083850312156130ef578182fd5b8251915060208301516001600160401b0381111561310b578182fd5b61311785828601612ad5565b9150509250929050565b60008060408385031215613133578182fd5b505080516020909101519092909150565b600080600060608486031215613158578081fd5b8351925060208401519150604084015190509250925092565b600060208284031215613182578081fd5b81516001600160401b0380821115613198578283fd5b9083019060e082860312156131ab578283fd5b6131b560e0613bf6565b6131be83612a82565b81526131cc60208401612de9565b60208201526131dd60408401612de9565b60408201526131ee60608401612a82565b60608201526131ff60808401612dd2565b608082015261321060a08401612e19565b60a082015260c083015182811115613226578485fd5b61323287828601612cc3565b60c08301525095945050505050565b600060208284031215613252578081fd5b81516001600160401b0380821115613268578283fd5b818401915061010080838703121561327e578384fd5b61328781613bf6565b905061329283612a82565b81526132a060208401612de9565b60208201526132b160408401612de9565b60408201526132c260608401612a82565b60608201526132d360808401612a82565b608082015260a0830151828111156132e9578485fd5b6132f587828601612ad5565b60a08301525060c08301518281111561330c578485fd5b61331887828601612ad5565b60c08301525060e08301518281111561332f578485fd5b61333b87828601612cc3565b60e08301525095945050505050565b60006020828403121561335b578081fd5b81356001600160401b0380821115613371578283fd5b9083019060c08286031215613384578283fd5b61338e60c0613bf6565b61339783612e08565b81526133a560208401612b41565b60208201526133b660408401612b41565b60408201526133c760608401612b41565b60608201526080830135828111156133dd578485fd5b6133e987828601612b96565b60808301525060a083013582811115613400578485fd5b61340c87828601612b96565b60a08301525095945050505050565b60006060828403121561342c578081fd5b604051606081018181106001600160401b038211171561344857fe5b604052825161345681613c83565b8152602083015161346681613ca6565b602082015261347760408401612e19565b60408201529392505050565b600060208284031215613494578081fd5b81516001600160401b03808211156134aa578283fd5b90830190608082860312156134bd578283fd5b6040516080810181811083821117156134d257fe5b6040526134de83612a82565b81526134ec60208401612de9565b6020820152604083015182811115613502578485fd5b61350e87828601612ad5565b604083015250606083015182811115613525578485fd5b61353187828601612ad5565b60608301525095945050505050565b6000806101408385031215613553578182fd5b61355d8484612c3c565b915061356c8460a08501612c3c565b90509250929050565b600060208284031215613586578081fd5b81516001600160401b0381111561359b578182fd5b612c2584828501612cc3565b6000602082840312156135b8578081fd5b8135611bac81613ca6565b6000602082840312156135d4578081fd5b5051919050565b6001600160a01b03169052565b6000815180845260208085019450808401835b83811015613617578151875295820195908201906001016135fb565b509495945050505050565b60008284528282602086013780602084860101526020601f19601f85011685010190509392505050565b6007811061365657fe5b9052565b61ffff169052565b600081516004811061367057fe5b80845250602082015160018060a01b0380821660208601528060408501511660408601525050606082015160608401526080820151608084015260a082015160a084015260c082015160e060c085015280518060e08601526101006136db8282880160208601613c57565b80601f19601f840116870101935050505092915050565b60008251613704818460208701613c57565b9190910192915050565b6001600160a01b0391909116815260200190565b6001600160a01b0383168152604060208083018290528351838301819052600092916060918286019080830287018401888401875b838110156137d757605f198a8403018552815160e061377785835161364c565b8188015161ffff1685890152898201518a860152888201518986015260808083015115159086015260a08083015115159086015260c0918201519185018190526137c3818601836135e8565b968801969450505090850190600101613757565b50909a9950505050505050505050565b6001600160a01b03831681526040602080830182905283518383018190526000929160609182860190878301865b8281101561387057815161382a85825161364c565b8086015161ffff16858701528781015188860152868101518786015260808082015115159086015260a09081015115159085015260c09093019290840190600101613815565b50919998505050505050505050565b6001600160a01b0392831681529116602082015260400190565b6001600160a01b03898116825260e060208084018290528a519184018290526000928b820192909190610100860190855b818110156138e85785518516835294830194918301916001016138ca565b505085810360408701526138fc818d6135e8565b9350505050828103606084015261391381896135e8565b905061392260808401886135db565b82810360a0840152613935818688613622565b91505061084d60c083018461365a565b6001600160a01b03929092168252602082015260400190565b6001600160a01b038516815261ffff8416602082015260806040820181905260009061398c908301856135e8565b828103606084015261399e81856135e8565b979650505050505050565b6001600160a01b038616815261ffff85811660208301528416604082015260a0606082018190526000906139df908301856135e8565b82810360808401526139f181856135e8565b98975050505050505050565b6001600160a01b0397909716875261ffff95861660208801529390941660408601526001600160801b039190911660608501526001600160601b0316608084015290151560a0830152151560c082015260e00190565b6001600160a01b0393909316835261ffff919091166020830152604082015260600190565b6001600160a01b0393909316835261ffff9190911660208301526001600160601b0316604082015260600190565b901515815260200190565b60006040820184835260206040818501528185518084526060860191508287019350845b81811015612b3457845183529383019391830191600101613ad5565b60208082526011908201527034b73b30b634b2103732bb9037bbb732b960791b604082015260600190565b6020808252600d908201526c092dcecc2d8d2c840d2dcc8caf609b1b604082015260600190565b6020808252818101527f4f776e61626c653a2063616c6c6572206973206e6f7420746865206f776e6572604082015260600190565b61ffff91909116815260200190565b600061ffff8416825260406020830152612c256040830184613662565b600061ffff8516825260606020830152613bc16060830185613662565b905063ffffffff83166040830152949350505050565b90815260200190565b9283526020830191909152604082015260600190565b6040518181016001600160401b0381118282101715613c1157fe5b604052919050565b60006001600160401b03821115613c2c57fe5b5060209081020190565b60006001600160401b03821115613c4957fe5b50601f01601f191660200190565b60005b83811015613c72578181015183820152602001613c5a565b83811115610a995750506000910152565b6001600160a01b03811681146110f857600080fd5b80151581146110f857600080fd5b61ffff811681146110f857600080fdfea2646970667358221220e31dace944adf7997002f1281011466064219a8ae1f9c472a3fa72ee2ff9c5cf64736f6c63430007060033","bytecodeSha1":"f8b26b679c1585818d7b78b3b2d4567df8914b47","compiler":{"evm_version":"istanbul","optimizer":{"enabled":true,"runs":200},"version":"0.7.6+commit.7338295f"},"contractName":"FlashLiquidator","language":"Solidity","natspec":{"kind":"dev","methods":{"getFreeCollateral(address)":{"notice":"Used by bots to get free collateral for a given account via callStatic"}},"version":1},"opcodes":"PUSH1 0x80 PUSH1 0x40 MSTORE PUSH1 0x4 CALLDATASIZE LT PUSH2 0xEC JUMPI PUSH1 0x0 CALLDATALOAD PUSH1 0xE0 SHR DUP1 PUSH4 0xB12FFDAD GT PUSH2 0x8A JUMPI DUP1 PUSH4 0xD99A9C9C GT PUSH2 0x59 JUMPI DUP1 PUSH4 0xD99A9C9C EQ PUSH2 0x24B JUMPI DUP1 PUSH4 0xF2FDE38B EQ PUSH2 0x27A JUMPI DUP1 PUSH4 0xF3FEF3A3 EQ PUSH2 0x29A JUMPI DUP1 PUSH4 0xFC2DB717 EQ PUSH2 0x2BA JUMPI PUSH2 0xF3 JUMP JUMPDEST DUP1 PUSH4 0xB12FFDAD EQ PUSH2 0x1C8 JUMPI DUP1 PUSH4 0xB4DCFC77 EQ PUSH2 0x1E8 JUMPI DUP1 PUSH4 0xC2243379 EQ PUSH2 0x1FD JUMPI DUP1 PUSH4 0xC3999444 EQ PUSH2 0x21D JUMPI PUSH2 0xF3 JUMP JUMPDEST DUP1 PUSH4 0x8A3843E0 GT PUSH2 0xC6 JUMPI DUP1 PUSH4 0x8A3843E0 EQ PUSH2 0x15A JUMPI DUP1 PUSH4 0x8DA5CB5B EQ PUSH2 0x171 JUMPI DUP1 PUSH4 0x920F5C84 EQ PUSH2 0x186 JUMPI DUP1 PUSH4 0xAD5C4648 EQ PUSH2 0x1B3 JUMPI PUSH2 0xF3 JUMP JUMPDEST DUP1 PUSH4 0x6C63840 EQ PUSH2 0xF8 JUMPI DUP1 PUSH4 0x4AA07E64 EQ PUSH2 0x123 JUMPI DUP1 PUSH4 0x858DCCB3 EQ PUSH2 0x145 JUMPI PUSH2 0xF3 JUMP JUMPDEST CALLDATASIZE PUSH2 0xF3 JUMPI STOP JUMPDEST PUSH1 0x0 DUP1 REVERT JUMPDEST CALLVALUE DUP1 ISZERO PUSH2 0x104 JUMPI PUSH1 0x0 DUP1 REVERT JUMPDEST POP PUSH2 0x10D PUSH2 0x2CF JUMP JUMPDEST PUSH1 0x40 MLOAD PUSH2 0x11A SWAP2 SWAP1 PUSH2 0x3B78 JUMP JUMPDEST PUSH1 0x40 MLOAD DUP1 SWAP2 SUB SWAP1 RETURN JUMPDEST CALLVALUE DUP1 ISZERO PUSH2 0x12F JUMPI PUSH1 0x0 DUP1 REVERT JUMPDEST POP PUSH2 0x138 PUSH2 0x2E0 JUMP JUMPDEST PUSH1 0x40 MLOAD PUSH2 0x11A SWAP2 SWAP1 PUSH2 0x370E JUMP JUMPDEST CALLVALUE DUP1 ISZERO PUSH2 0x151 JUMPI PUSH1 0x0 DUP1 REVERT JUMPDEST POP PUSH2 0x138 PUSH2 0x304 JUMP JUMPDEST CALLVALUE DUP1 ISZERO PUSH2 0x166 JUMPI PUSH1 0x0 DUP1 REVERT JUMPDEST POP PUSH2 0x16F PUSH2 0x328 JUMP JUMPDEST STOP JUMPDEST CALLVALUE DUP1 ISZERO PUSH2 0x17D JUMPI PUSH1 0x0 DUP1 REVERT JUMPDEST POP PUSH2 0x138 PUSH2 0x332 JUMP JUMPDEST CALLVALUE DUP1 ISZERO PUSH2 0x192 JUMPI PUSH1 0x0 DUP1 REVERT JUMPDEST POP PUSH2 0x1A6 PUSH2 0x1A1 CALLDATASIZE PUSH1 0x4 PUSH2 0x2F69 JUMP JUMPDEST PUSH2 0x341 JUMP JUMPDEST PUSH1 0x40 MLOAD PUSH2 0x11A SWAP2 SWAP1 PUSH2 0x3AA6 JUMP JUMPDEST CALLVALUE DUP1 ISZERO PUSH2 0x1BF JUMPI PUSH1 0x0 DUP1 REVERT JUMPDEST POP PUSH2 0x138 PUSH2 0x85A JUMP JUMPDEST CALLVALUE DUP1 ISZERO PUSH2 0x1D4 JUMPI PUSH1 0x0 DUP1 REVERT JUMPDEST POP PUSH2 0x16F PUSH2 0x1E3 CALLDATASIZE PUSH1 0x4 PUSH2 0x3082 JUMP JUMPDEST PUSH2 0x87E JUMP JUMPDEST CALLVALUE DUP1 ISZERO PUSH2 0x1F4 JUMPI PUSH1 0x0 DUP1 REVERT JUMPDEST POP PUSH2 0x138 PUSH2 0x8F3 JUMP JUMPDEST CALLVALUE DUP1 ISZERO PUSH2 0x209 JUMPI PUSH1 0x0 DUP1 REVERT JUMPDEST POP PUSH2 0x16F PUSH2 0x218 CALLDATASIZE PUSH1 0x4 PUSH2 0x2F15 JUMP JUMPDEST PUSH2 0x917 JUMP JUMPDEST CALLVALUE DUP1 ISZERO PUSH2 0x229 JUMPI PUSH1 0x0 DUP1 REVERT JUMPDEST POP PUSH2 0x23D PUSH2 0x238 CALLDATASIZE PUSH1 0x4 PUSH2 0x2E30 JUMP JUMPDEST PUSH2 0xA9F JUMP JUMPDEST PUSH1 0x40 MLOAD PUSH2 0x11A SWAP3 SWAP2 SWAP1 PUSH2 0x3AB1 JUMP JUMPDEST CALLVALUE DUP1 ISZERO PUSH2 0x257 JUMPI PUSH1 0x0 DUP1 REVERT JUMPDEST POP PUSH2 0x26B PUSH2 0x266 CALLDATASIZE PUSH1 0x4 PUSH2 0x2E93 JUMP JUMPDEST PUSH2 0xBCA JUMP JUMPDEST PUSH1 0x40 MLOAD PUSH2 0x11A SWAP4 SWAP3 SWAP2 SWAP1 PUSH2 0x3BE0 JUMP JUMPDEST CALLVALUE DUP1 ISZERO PUSH2 0x286 JUMPI PUSH1 0x0 DUP1 REVERT JUMPDEST POP PUSH2 0x16F PUSH2 0x295 CALLDATASIZE PUSH1 0x4 PUSH2 0x2E30 JUMP JUMPDEST PUSH2 0xEEB JUMP JUMPDEST CALLVALUE DUP1 ISZERO PUSH2 0x2A6 JUMPI PUSH1 0x0 DUP1 REVERT JUMPDEST POP PUSH2 0x16F PUSH2 0x2B5 CALLDATASIZE PUSH1 0x4 PUSH2 0x2E68 JUMP JUMPDEST PUSH2 0xF5D JUMP JUMPDEST CALLVALUE DUP1 ISZERO PUSH2 0x2C6 JUMPI PUSH1 0x0 DUP1 REVERT JUMPDEST POP PUSH2 0x138 PUSH2 0xFE3 JUMP JUMPDEST PUSH1 0x1 SLOAD PUSH1 0x1 PUSH1 0xA0 SHL SWAP1 DIV PUSH2 0xFFFF AND DUP2 JUMP JUMPDEST PUSH32 0x0 DUP2 JUMP JUMPDEST PUSH32 0x0 DUP2 JUMP JUMPDEST PUSH2 0x330 PUSH2 0x1007 JUMP JUMPDEST JUMP JUMPDEST PUSH1 0x1 SLOAD PUSH1 0x1 PUSH1 0x1 PUSH1 0xA0 SHL SUB AND DUP2 JUMP JUMPDEST PUSH1 0x0 CALLER PUSH1 0x1 PUSH1 0x1 PUSH1 0xA0 SHL SUB PUSH32 0x0 AND EQ PUSH2 0x378 JUMPI PUSH1 0x0 DUP1 REVERT JUMPDEST PUSH1 0x0 PUSH2 0x386 DUP4 DUP6 ADD DUP6 PUSH2 0x334A JUMP JUMPDEST SWAP1 POP PUSH32 0x0 PUSH1 0x1 PUSH1 0x1 PUSH1 0xA0 SHL SUB AND DUP12 DUP12 PUSH1 0x0 DUP2 DUP2 LT PUSH2 0x3BF JUMPI INVALID JUMPDEST SWAP1 POP PUSH1 0x20 MUL ADD PUSH1 0x20 DUP2 ADD SWAP1 PUSH2 0x3D4 SWAP2 SWAP1 PUSH2 0x2E30 JUMP JUMPDEST PUSH1 0x1 PUSH1 0x1 PUSH1 0xA0 SHL SUB AND EQ ISZERO PUSH2 0x475 JUMPI PUSH32 0x0 PUSH1 0x1 PUSH1 0x1 PUSH1 0xA0 SHL SUB AND PUSH4 0x2E1A7D4D DUP11 DUP11 PUSH1 0x0 DUP2 DUP2 LT PUSH2 0x41F JUMPI INVALID JUMPDEST SWAP1 POP PUSH1 0x20 MUL ADD CALLDATALOAD PUSH1 0x40 MLOAD DUP3 PUSH4 0xFFFFFFFF AND PUSH1 0xE0 SHL DUP2 MSTORE PUSH1 0x4 ADD PUSH2 0x442 SWAP2 SWAP1 PUSH2 0x3BD7 JUMP JUMPDEST PUSH1 0x0 PUSH1 0x40 MLOAD DUP1 DUP4 SUB DUP2 PUSH1 0x0 DUP8 DUP1 EXTCODESIZE ISZERO DUP1 ISZERO PUSH2 0x45C JUMPI PUSH1 0x0 DUP1 REVERT JUMPDEST POP GAS CALL ISZERO DUP1 ISZERO PUSH2 0x470 JUMPI RETURNDATASIZE PUSH1 0x0 DUP1 RETURNDATACOPY RETURNDATASIZE PUSH1 0x0 REVERT JUMPDEST POP POP POP POP JUMPDEST PUSH1 0x80 DUP2 ADD MLOAD MLOAD ISZERO PUSH2 0x4A7 JUMPI PUSH1 0x0 DUP2 PUSH1 0x80 ADD MLOAD DUP1 PUSH1 0x20 ADD SWAP1 MLOAD DUP2 ADD SWAP1 PUSH2 0x49A SWAP2 SWAP1 PUSH2 0x3575 JUMP JUMPDEST SWAP1 POP PUSH2 0x4A5 DUP2 PUSH2 0x107D JUMP JUMPDEST POP JUMPDEST PUSH1 0x0 DUP2 MLOAD PUSH1 0xFF AND PUSH1 0x3 DUP2 GT ISZERO PUSH2 0x4B9 JUMPI INVALID JUMPDEST PUSH1 0x3 DUP2 GT ISZERO PUSH2 0x4C4 JUMPI INVALID JUMPDEST EQ ISZERO PUSH2 0x50C JUMPI PUSH2 0x507 DUP2 DUP13 DUP13 DUP1 DUP1 PUSH1 0x20 MUL PUSH1 0x20 ADD PUSH1 0x40 MLOAD SWAP1 DUP2 ADD PUSH1 0x40 MSTORE DUP1 SWAP4 SWAP3 SWAP2 SWAP1 DUP2 DUP2 MSTORE PUSH1 0x20 ADD DUP4 DUP4 PUSH1 0x20 MUL DUP1 DUP3 DUP5 CALLDATACOPY PUSH1 0x0 SWAP3 ADD SWAP2 SWAP1 SWAP2 MSTORE POP PUSH2 0x10FB SWAP3 POP POP POP JUMP JUMPDEST PUSH2 0x62C JUMP JUMPDEST PUSH1 0x1 DUP2 MLOAD PUSH1 0xFF AND PUSH1 0x3 DUP2 GT ISZERO PUSH2 0x51E JUMPI INVALID JUMPDEST PUSH1 0x3 DUP2 GT ISZERO PUSH2 0x529 JUMPI INVALID JUMPDEST EQ ISZERO PUSH2 0x56C JUMPI PUSH2 0x507 DUP2 DUP13 DUP13 DUP1 DUP1 PUSH1 0x20 MUL PUSH1 0x20 ADD PUSH1 0x40 MLOAD SWAP1 DUP2 ADD PUSH1 0x40 MSTORE DUP1 SWAP4 SWAP3 SWAP2 SWAP1 DUP2 DUP2 MSTORE PUSH1 0x20 ADD DUP4 DUP4 PUSH1 0x20 MUL DUP1 DUP3 DUP5 CALLDATACOPY PUSH1 0x0 SWAP3 ADD SWAP2 SWAP1 SWAP2 MSTORE POP PUSH2 0x135D SWAP3 POP POP POP JUMP JUMPDEST PUSH1 0x2 DUP2 MLOAD PUSH1 0xFF AND PUSH1 0x3 DUP2 GT ISZERO PUSH2 0x57E JUMPI INVALID JUMPDEST PUSH1 0x3 DUP2 GT ISZERO PUSH2 0x589 JUMPI INVALID JUMPDEST EQ ISZERO PUSH2 0x5CC JUMPI PUSH2 0x507 DUP2 DUP13 DUP13 DUP1 DUP1 PUSH1 0x20 MUL PUSH1 0x20 ADD PUSH1 0x40 MLOAD SWAP1 DUP2 ADD PUSH1 0x40 MSTORE DUP1 SWAP4 SWAP3 SWAP2 SWAP1 DUP2 DUP2 MSTORE PUSH1 0x20 ADD DUP4 DUP4 PUSH1 0x20 MUL DUP1 DUP3 DUP5 CALLDATACOPY PUSH1 0x0 SWAP3 ADD SWAP2 SWAP1 SWAP2 MSTORE POP PUSH2 0x1601 SWAP3 POP POP POP JUMP JUMPDEST PUSH1 0x3 DUP2 MLOAD PUSH1 0xFF AND PUSH1 0x3 DUP2 GT ISZERO PUSH2 0x5DE JUMPI INVALID JUMPDEST PUSH1 0x3 DUP2 GT ISZERO PUSH2 0x5E9 JUMPI INVALID JUMPDEST EQ ISZERO PUSH2 0x62C JUMPI PUSH2 0x62C DUP2 DUP13 DUP13 DUP1 DUP1 PUSH1 0x20 MUL PUSH1 0x20 ADD PUSH1 0x40 MLOAD SWAP1 DUP2 ADD PUSH1 0x40 MSTORE DUP1 SWAP4 SWAP3 SWAP2 SWAP1 DUP2 DUP2 MSTORE PUSH1 0x20 ADD DUP4 DUP4 PUSH1 0x20 MUL DUP1 DUP3 DUP5 CALLDATACOPY PUSH1 0x0 SWAP3 ADD SWAP2 SWAP1 SWAP2 MSTORE POP PUSH2 0x185F SWAP3 POP POP POP JUMP JUMPDEST DUP1 PUSH1 0x60 ADD MLOAD ISZERO PUSH2 0x6AB JUMPI PUSH32 0x0 PUSH1 0x1 PUSH1 0x1 PUSH1 0xA0 SHL SUB AND PUSH4 0xD0E30DB0 SELFBALANCE PUSH1 0x40 MLOAD DUP3 PUSH4 0xFFFFFFFF AND PUSH1 0xE0 SHL DUP2 MSTORE PUSH1 0x4 ADD PUSH1 0x0 PUSH1 0x40 MLOAD DUP1 DUP4 SUB DUP2 DUP6 DUP9 DUP1 EXTCODESIZE ISZERO DUP1 ISZERO PUSH2 0x691 JUMPI PUSH1 0x0 DUP1 REVERT JUMPDEST POP GAS CALL ISZERO DUP1 ISZERO PUSH2 0x6A5 JUMPI RETURNDATASIZE PUSH1 0x0 DUP1 RETURNDATACOPY RETURNDATASIZE PUSH1 0x0 REVERT JUMPDEST POP POP POP POP POP JUMPDEST PUSH1 0x1 DUP2 MLOAD PUSH1 0xFF AND PUSH1 0x3 DUP2 GT ISZERO PUSH2 0x6BD JUMPI INVALID JUMPDEST PUSH1 0x3 DUP2 GT ISZERO PUSH2 0x6C8 JUMPI INVALID JUMPDEST EQ DUP1 PUSH2 0x6EE JUMPI POP PUSH1 0x3 DUP2 MLOAD PUSH1 0xFF AND PUSH1 0x3 DUP2 GT ISZERO PUSH2 0x6E1 JUMPI INVALID JUMPDEST PUSH1 0x3 DUP2 GT ISZERO PUSH2 0x6EC JUMPI INVALID JUMPDEST EQ JUMPDEST ISZERO PUSH2 0x6FC JUMPI PUSH2 0x6FC DUP2 PUSH2 0x1AAC JUMP JUMPDEST DUP1 PUSH1 0x60 ADD MLOAD ISZERO DUP1 ISZERO PUSH2 0x760 JUMPI POP PUSH32 0x0 PUSH1 0x1 PUSH1 0x1 PUSH1 0xA0 SHL SUB AND DUP12 DUP12 PUSH1 0x0 DUP2 DUP2 LT PUSH2 0x740 JUMPI INVALID JUMPDEST SWAP1 POP PUSH1 0x20 MUL ADD PUSH1 0x20 DUP2 ADD SWAP1 PUSH2 0x755 SWAP2 SWAP1 PUSH2 0x2E30 JUMP JUMPDEST PUSH1 0x1 PUSH1 0x1 PUSH1 0xA0 SHL SUB AND EQ JUMPDEST ISZERO PUSH2 0x7DA JUMPI PUSH32 0x0 PUSH1 0x1 PUSH1 0x1 PUSH1 0xA0 SHL SUB AND PUSH4 0xD0E30DB0 SELFBALANCE PUSH1 0x40 MLOAD DUP3 PUSH4 0xFFFFFFFF AND PUSH1 0xE0 SHL DUP2 MSTORE PUSH1 0x4 ADD PUSH1 0x0 PUSH1 0x40 MLOAD DUP1 DUP4 SUB DUP2 DUP6 DUP9 DUP1 EXTCODESIZE ISZERO DUP1 ISZERO PUSH2 0x7C0 JUMPI PUSH1 0x0 DUP1 REVERT JUMPDEST POP GAS CALL ISZERO DUP1 ISZERO PUSH2 0x7D4 JUMPI RETURNDATASIZE PUSH1 0x0 DUP1 RETURNDATACOPY RETURNDATASIZE PUSH1 0x0 REVERT JUMPDEST POP POP POP POP POP JUMPDEST DUP1 PUSH1 0x20 ADD MLOAD ISZERO PUSH2 0x847 JUMPI PUSH2 0x847 DUP12 DUP12 PUSH1 0x0 DUP2 DUP2 LT PUSH2 0x7F4 JUMPI INVALID JUMPDEST SWAP1 POP PUSH1 0x20 MUL ADD PUSH1 0x20 DUP2 ADD SWAP1 PUSH2 0x809 SWAP2 SWAP1 PUSH2 0x2E30 JUMP JUMPDEST PUSH2 0x842 DUP10 DUP10 PUSH1 0x0 DUP2 DUP2 LT PUSH2 0x819 JUMPI INVALID JUMPDEST SWAP1 POP PUSH1 0x20 MUL ADD CALLDATALOAD DUP13 DUP13 PUSH1 0x0 DUP2 DUP2 LT PUSH2 0x82D JUMPI INVALID JUMPDEST SWAP1 POP PUSH1 0x20 MUL ADD CALLDATALOAD PUSH2 0x1B52 SWAP1 SWAP2 SWAP1 PUSH4 0xFFFFFFFF AND JUMP JUMPDEST PUSH2 0x1BB5 JUMP JUMPDEST PUSH1 0x1 SWAP2 POP POP JUMPDEST SWAP10 SWAP9 POP POP POP POP POP POP POP POP POP JUMP JUMPDEST PUSH32 0x0 DUP2 JUMP JUMPDEST PUSH1 0x1 SLOAD PUSH1 0x1 PUSH1 0x1 PUSH1 0xA0 SHL SUB AND CALLER EQ PUSH2 0x8B1 JUMPI PUSH1 0x40 MLOAD PUSH3 0x461BCD PUSH1 0xE5 SHL DUP2 MSTORE PUSH1 0x4 ADD PUSH2 0x8A8 SWAP1 PUSH2 0x3B43 JUMP JUMPDEST PUSH1 0x40 MLOAD DUP1 SWAP2 SUB SWAP1 REVERT JUMPDEST PUSH1 0x0 JUMPDEST DUP2 DUP2 LT ISZERO PUSH2 0x8EE JUMPI PUSH2 0x8E5 DUP4 DUP4 DUP4 DUP2 DUP2 LT PUSH2 0x8CB JUMPI INVALID JUMPDEST SWAP1 POP PUSH1 0x20 MUL ADD PUSH1 0x20 DUP2 ADD SWAP1 PUSH2 0x8E0 SWAP2 SWAP1 PUSH2 0x35A7 JUMP JUMPDEST PUSH2 0x1CCD JUMP JUMPDEST POP PUSH1 0x1 ADD PUSH2 0x8B4 JUMP JUMPDEST POP POP POP JUMP JUMPDEST PUSH32 0x0 DUP2 JUMP JUMPDEST PUSH1 0x1 SLOAD PUSH1 0x1 PUSH1 0x1 PUSH1 0xA0 SHL SUB AND CALLER EQ PUSH2 0x941 JUMPI PUSH1 0x40 MLOAD PUSH3 0x461BCD PUSH1 0xE5 SHL DUP2 MSTORE PUSH1 0x4 ADD PUSH2 0x8A8 SWAP1 PUSH2 0x3B43 JUMP JUMPDEST PUSH1 0x0 JUMPDEST DUP3 DUP2 LT ISZERO PUSH2 0xA99 JUMPI DUP4 DUP4 DUP3 DUP2 DUP2 LT PUSH2 0x958 JUMPI INVALID JUMPDEST SWAP1 POP PUSH1 0x20 MUL ADD PUSH1 0x20 DUP2 ADD SWAP1 PUSH2 0x96D SWAP2 SWAP1 PUSH2 0x2E30 JUMP JUMPDEST PUSH1 0x1 PUSH1 0x1 PUSH1 0xA0 SHL SUB AND PUSH4 0x95EA7B3 DUP4 PUSH1 0x0 PUSH1 0x40 MLOAD DUP4 PUSH4 0xFFFFFFFF AND PUSH1 0xE0 SHL DUP2 MSTORE PUSH1 0x4 ADD PUSH2 0x99B SWAP3 SWAP2 SWAP1 PUSH2 0x3945 JUMP JUMPDEST PUSH1 0x20 PUSH1 0x40 MLOAD DUP1 DUP4 SUB DUP2 PUSH1 0x0 DUP8 DUP1 EXTCODESIZE ISZERO DUP1 ISZERO PUSH2 0x9B5 JUMPI PUSH1 0x0 DUP1 REVERT JUMPDEST POP GAS CALL ISZERO DUP1 ISZERO PUSH2 0x9C9 JUMPI RETURNDATASIZE PUSH1 0x0 DUP1 RETURNDATACOPY RETURNDATASIZE PUSH1 0x0 REVERT JUMPDEST POP POP POP POP PUSH1 0x40 MLOAD RETURNDATASIZE PUSH1 0x1F NOT PUSH1 0x1F DUP3 ADD AND DUP3 ADD DUP1 PUSH1 0x40 MSTORE POP DUP2 ADD SWAP1 PUSH2 0x9ED SWAP2 SWAP1 PUSH2 0x30C1 JUMP JUMPDEST POP DUP4 DUP4 DUP3 DUP2 DUP2 LT PUSH2 0x9FA JUMPI INVALID JUMPDEST SWAP1 POP PUSH1 0x20 MUL ADD PUSH1 0x20 DUP2 ADD SWAP1 PUSH2 0xA0F SWAP2 SWAP1 PUSH2 0x2E30 JUMP JUMPDEST PUSH1 0x1 PUSH1 0x1 PUSH1 0xA0 SHL SUB AND PUSH4 0x95EA7B3 DUP4 PUSH1 0x0 NOT PUSH1 0x40 MLOAD DUP4 PUSH4 0xFFFFFFFF AND PUSH1 0xE0 SHL DUP2 MSTORE PUSH1 0x4 ADD PUSH2 0xA3E SWAP3 SWAP2 SWAP1 PUSH2 0x3945 JUMP JUMPDEST PUSH1 0x20 PUSH1 0x40 MLOAD DUP1 DUP4 SUB DUP2 PUSH1 0x0 DUP8 DUP1 EXTCODESIZE ISZERO DUP1 ISZERO PUSH2 0xA58 JUMPI PUSH1 0x0 DUP1 REVERT JUMPDEST POP GAS CALL ISZERO DUP1 ISZERO PUSH2 0xA6C JUMPI RETURNDATASIZE PUSH1 0x0 DUP1 RETURNDATACOPY RETURNDATASIZE PUSH1 0x0 REVERT JUMPDEST POP POP POP POP PUSH1 0x40 MLOAD RETURNDATASIZE PUSH1 0x1F NOT PUSH1 0x1F DUP3 ADD AND DUP3 ADD DUP1 PUSH1 0x40 MSTORE POP DUP2 ADD SWAP1 PUSH2 0xA90 SWAP2 SWAP1 PUSH2 0x30C1 JUMP JUMPDEST POP PUSH1 0x1 ADD PUSH2 0x944 JUMP JUMPDEST POP POP POP POP JUMP JUMPDEST PUSH1 0x0 PUSH1 0x60 PUSH32 0x0 PUSH1 0x1 PUSH1 0x1 PUSH1 0xA0 SHL SUB AND PUSH4 0xF667F897 DUP5 PUSH1 0x40 MLOAD DUP3 PUSH4 0xFFFFFFFF AND PUSH1 0xE0 SHL DUP2 MSTORE PUSH1 0x4 ADD PUSH2 0xAEF SWAP2 SWAP1 PUSH2 0x370E JUMP JUMPDEST PUSH1 0x0 PUSH1 0x40 MLOAD DUP1 DUP4 SUB DUP2 PUSH1 0x0 DUP8 DUP1 EXTCODESIZE ISZERO DUP1 ISZERO PUSH2 0xB09 JUMPI PUSH1 0x0 DUP1 REVERT JUMPDEST POP GAS CALL ISZERO DUP1 ISZERO PUSH2 0xB1D JUMPI RETURNDATASIZE PUSH1 0x0 DUP1 RETURNDATACOPY RETURNDATASIZE PUSH1 0x0 REVERT JUMPDEST POP POP PUSH1 0x40 MLOAD PUSH4 0x30E66511 PUSH1 0xE2 SHL DUP2 MSTORE PUSH1 0x1 PUSH1 0x1 PUSH1 0xA0 SHL SUB PUSH32 0x0 AND SWAP3 POP PUSH4 0xC3999444 SWAP2 POP PUSH2 0xB6D SWAP1 DUP7 SWAP1 PUSH1 0x4 ADD PUSH2 0x370E JUMP JUMPDEST PUSH1 0x0 PUSH1 0x40 MLOAD DUP1 DUP4 SUB DUP2 DUP7 DUP1 EXTCODESIZE ISZERO DUP1 ISZERO PUSH2 0xB85 JUMPI PUSH1 0x0 DUP1 REVERT JUMPDEST POP GAS STATICCALL ISZERO DUP1 ISZERO PUSH2 0xB99 JUMPI RETURNDATASIZE PUSH1 0x0 DUP1 RETURNDATACOPY RETURNDATASIZE PUSH1 0x0 REVERT JUMPDEST POP POP POP POP PUSH1 0x40 MLOAD RETURNDATASIZE PUSH1 0x0 DUP3 RETURNDATACOPY PUSH1 0x1F RETURNDATASIZE SWAP1 DUP2 ADD PUSH1 0x1F NOT AND DUP3 ADD PUSH1 0x40 MSTORE PUSH2 0xBC1 SWAP2 SWAP1 DUP2 ADD SWAP1 PUSH2 0x30DD JUMP JUMPDEST SWAP2 POP SWAP2 POP SWAP2 POP SWAP2 JUMP JUMPDEST PUSH1 0x1 SLOAD PUSH1 0x0 SWAP1 DUP2 SWAP1 DUP2 SWAP1 PUSH1 0x1 PUSH1 0x1 PUSH1 0xA0 SHL SUB AND CALLER EQ PUSH2 0xBFB JUMPI PUSH1 0x40 MLOAD PUSH3 0x461BCD PUSH1 0xE5 SHL DUP2 MSTORE PUSH1 0x4 ADD PUSH2 0x8A8 SWAP1 PUSH2 0x3B43 JUMP JUMPDEST PUSH1 0x40 DUP1 MLOAD PUSH1 0x1 DUP1 DUP3 MSTORE DUP2 DUP4 ADD SWAP1 SWAP3 MSTORE PUSH1 0x0 SWAP2 PUSH1 0x20 DUP1 DUP4 ADD SWAP1 DUP1 CALLDATASIZE DUP4 CALLDATACOPY POP POP PUSH1 0x40 DUP1 MLOAD PUSH1 0x1 DUP1 DUP3 MSTORE DUP2 DUP4 ADD SWAP1 SWAP3 MSTORE SWAP3 SWAP4 POP PUSH1 0x0 SWAP3 SWAP2 POP PUSH1 0x20 DUP1 DUP4 ADD SWAP1 DUP1 CALLDATASIZE DUP4 CALLDATACOPY ADD SWAP1 POP POP SWAP1 POP DUP11 DUP3 PUSH1 0x0 DUP2 MLOAD DUP2 LT PUSH2 0xC4E JUMPI INVALID JUMPDEST PUSH1 0x20 MUL PUSH1 0x20 ADD ADD SWAP1 PUSH1 0x1 PUSH1 0x1 PUSH1 0xA0 SHL SUB AND SWAP1 DUP2 PUSH1 0x1 PUSH1 0x1 PUSH1 0xA0 SHL SUB AND DUP2 MSTORE POP POP DUP10 DUP2 PUSH1 0x0 DUP2 MLOAD DUP2 LT PUSH2 0xC7C JUMPI INVALID JUMPDEST PUSH1 0x20 SWAP1 DUP2 MUL SWAP2 SWAP1 SWAP2 ADD ADD MSTORE PUSH1 0x40 DUP1 MLOAD PUSH1 0x1 DUP1 DUP3 MSTORE DUP2 DUP4 ADD SWAP1 SWAP3 MSTORE PUSH32 0x0 PUSH1 0x1 PUSH1 0x1 PUSH1 0xA0 SHL SUB AND SWAP2 PUSH4 0xAB9C4B5D SWAP2 ADDRESS SWAP2 DUP7 SWAP2 DUP7 SWAP2 DUP2 PUSH1 0x20 ADD PUSH1 0x20 DUP3 MUL DUP1 CALLDATASIZE DUP4 CALLDATACOPY ADD SWAP1 POP POP ADDRESS DUP16 DUP16 PUSH1 0x0 PUSH1 0x40 MLOAD DUP10 PUSH4 0xFFFFFFFF AND PUSH1 0xE0 SHL DUP2 MSTORE PUSH1 0x4 ADD PUSH2 0xD05 SWAP9 SWAP8 SWAP7 SWAP6 SWAP5 SWAP4 SWAP3 SWAP2 SWAP1 PUSH2 0x3899 JUMP JUMPDEST PUSH1 0x0 PUSH1 0x40 MLOAD DUP1 DUP4 SUB DUP2 PUSH1 0x0 DUP8 DUP1 EXTCODESIZE ISZERO DUP1 ISZERO PUSH2 0xD1F JUMPI PUSH1 0x0 DUP1 REVERT JUMPDEST POP GAS CALL ISZERO DUP1 ISZERO PUSH2 0xD33 JUMPI RETURNDATASIZE PUSH1 0x0 DUP1 RETURNDATACOPY RETURNDATASIZE PUSH1 0x0 REVERT JUMPDEST POP POP PUSH1 0x40 MLOAD PUSH4 0x70A08231 PUSH1 0xE0 SHL DUP2 MSTORE PUSH1 0x1 PUSH1 0x1 PUSH1 0xA0 SHL SUB DUP15 AND SWAP3 POP PUSH4 0x70A08231 SWAP2 POP PUSH2 0xD63 SWAP1 ADDRESS SWAP1 PUSH1 0x4 ADD PUSH2 0x370E JUMP JUMPDEST PUSH1 0x20 PUSH1 0x40 MLOAD DUP1 DUP4 SUB DUP2 DUP7 DUP1 EXTCODESIZE ISZERO DUP1 ISZERO PUSH2 0xD7B JUMPI PUSH1 0x0 DUP1 REVERT JUMPDEST POP GAS STATICCALL ISZERO DUP1 ISZERO PUSH2 0xD8F JUMPI RETURNDATASIZE PUSH1 0x0 DUP1 RETURNDATACOPY RETURNDATASIZE PUSH1 0x0 REVERT JUMPDEST POP POP POP POP PUSH1 0x40 MLOAD RETURNDATASIZE PUSH1 0x1F NOT PUSH1 0x1F DUP3 ADD AND DUP3 ADD DUP1 PUSH1 0x40 MSTORE POP DUP2 ADD SWAP1 PUSH2 0xDB3 SWAP2 SWAP1 PUSH2 0x35C3 JUMP JUMPDEST SWAP5 POP PUSH1 0x1 PUSH1 0x1 PUSH1 0xA0 SHL SUB DUP8 AND ISZERO PUSH2 0xE45 JUMPI PUSH1 0x40 MLOAD PUSH4 0x70A08231 PUSH1 0xE0 SHL DUP2 MSTORE PUSH1 0x1 PUSH1 0x1 PUSH1 0xA0 SHL SUB DUP9 AND SWAP1 PUSH4 0x70A08231 SWAP1 PUSH2 0xDF0 SWAP1 ADDRESS SWAP1 PUSH1 0x4 ADD PUSH2 0x370E JUMP JUMPDEST PUSH1 0x20 PUSH1 0x40 MLOAD DUP1 DUP4 SUB DUP2 DUP7 DUP1 EXTCODESIZE ISZERO DUP1 ISZERO PUSH2 0xE08 JUMPI PUSH1 0x0 DUP1 REVERT JUMPDEST POP GAS STATICCALL ISZERO DUP1 ISZERO PUSH2 0xE1C JUMPI RETURNDATASIZE PUSH1 0x0 DUP1 RETURNDATACOPY RETURNDATASIZE PUSH1 0x0 REVERT JUMPDEST POP POP POP POP PUSH1 0x40 MLOAD RETURNDATASIZE PUSH1 0x1F NOT PUSH1 0x1F DUP3 ADD AND DUP3 ADD DUP1 PUSH1 0x40 MSTORE POP DUP2 ADD SWAP1 PUSH2 0xE40 SWAP2 SWAP1 PUSH2 0x35C3 JUMP JUMPDEST PUSH2 0xE47 JUMP JUMPDEST SELFBALANCE JUMPDEST SWAP4 POP PUSH1 0x1 PUSH1 0x1 PUSH1 0xA0 SHL SUB DUP7 AND ISZERO PUSH2 0xED9 JUMPI PUSH1 0x40 MLOAD PUSH4 0x70A08231 PUSH1 0xE0 SHL DUP2 MSTORE PUSH1 0x1 PUSH1 0x1 PUSH1 0xA0 SHL SUB DUP8 AND SWAP1 PUSH4 0x70A08231 SWAP1 PUSH2 0xE84 SWAP1 ADDRESS SWAP1 PUSH1 0x4 ADD PUSH2 0x370E JUMP JUMPDEST PUSH1 0x20 PUSH1 0x40 MLOAD DUP1 DUP4 SUB DUP2 DUP7 DUP1 EXTCODESIZE ISZERO DUP1 ISZERO PUSH2 0xE9C JUMPI PUSH1 0x0 DUP1 REVERT JUMPDEST POP GAS STATICCALL ISZERO DUP1 ISZERO PUSH2 0xEB0 JUMPI RETURNDATASIZE PUSH1 0x0 DUP1 RETURNDATACOPY RETURNDATASIZE PUSH1 0x0 REVERT JUMPDEST POP POP POP POP PUSH1 0x40 MLOAD RETURNDATASIZE PUSH1 0x1F NOT PUSH1 0x1F DUP3 ADD AND DUP3 ADD DUP1 PUSH1 0x40 MSTORE POP DUP2 ADD SWAP1 PUSH2 0xED4 SWAP2 SWAP1 PUSH2 0x35C3 JUMP JUMPDEST PUSH2 0xEDB JUMP JUMPDEST SELFBALANCE JUMPDEST SWAP3 POP POP POP SWAP7 POP SWAP7 POP SWAP7 SWAP4 POP POP POP POP JUMP JUMPDEST PUSH1 0x1 SLOAD PUSH1 0x1 PUSH1 0x1 PUSH1 0xA0 SHL SUB AND CALLER EQ PUSH2 0xF15 JUMPI PUSH1 0x40 MLOAD PUSH3 0x461BCD PUSH1 0xE5 SHL DUP2 MSTORE PUSH1 0x4 ADD PUSH2 0x8A8 SWAP1 PUSH2 0x3B43 JUMP JUMPDEST PUSH1 0x1 PUSH1 0x1 PUSH1 0xA0 SHL SUB DUP2 AND PUSH2 0xF3B JUMPI PUSH1 0x40 MLOAD PUSH3 0x461BCD PUSH1 0xE5 SHL DUP2 MSTORE PUSH1 0x4 ADD PUSH2 0x8A8 SWAP1 PUSH2 0x3AF1 JUMP JUMPDEST PUSH1 0x1 DUP1 SLOAD PUSH1 0x1 PUSH1 0x1 PUSH1 0xA0 SHL SUB NOT AND PUSH1 0x1 PUSH1 0x1 PUSH1 0xA0 SHL SUB SWAP3 SWAP1 SWAP3 AND SWAP2 SWAP1 SWAP2 OR SWAP1 SSTORE JUMP JUMPDEST PUSH1 0x1 SLOAD PUSH1 0x40 MLOAD PUSH4 0xA9059CBB PUSH1 0xE0 SHL DUP2 MSTORE PUSH1 0x1 PUSH1 0x1 PUSH1 0xA0 SHL SUB DUP5 DUP2 AND SWAP3 PUSH4 0xA9059CBB SWAP3 PUSH2 0xF91 SWAP3 SWAP1 SWAP2 AND SWAP1 DUP6 SWAP1 PUSH1 0x4 ADD PUSH2 0x3945 JUMP JUMPDEST PUSH1 0x20 PUSH1 0x40 MLOAD DUP1 DUP4 SUB DUP2 PUSH1 0x0 DUP8 DUP1 EXTCODESIZE ISZERO DUP1 ISZERO PUSH2 0xFAB JUMPI PUSH1 0x0 DUP1 REVERT JUMPDEST POP GAS CALL ISZERO DUP1 ISZERO PUSH2 0xFBF JUMPI RETURNDATASIZE PUSH1 0x0 DUP1 RETURNDATACOPY RETURNDATASIZE PUSH1 0x0 REVERT JUMPDEST POP POP POP POP PUSH1 0x40 MLOAD RETURNDATASIZE PUSH1 0x1F NOT PUSH1 0x1F DUP3 ADD AND DUP3 ADD DUP1 PUSH1 0x40 MSTORE POP DUP2 ADD SWAP1 PUSH2 0x8EE SWAP2 SWAP1 PUSH2 0x30C1 JUMP JUMPDEST PUSH32 0x0 DUP2 JUMP JUMPDEST PUSH32 0x0 PUSH1 0x1 PUSH1 0x1 PUSH1 0xA0 SHL SUB AND PUSH4 0xD0E30DB0 SELFBALANCE PUSH1 0x40 MLOAD DUP3 PUSH4 0xFFFFFFFF AND PUSH1 0xE0 SHL DUP2 MSTORE PUSH1 0x4 ADD PUSH1 0x0 PUSH1 0x40 MLOAD DUP1 DUP4 SUB DUP2 DUP6 DUP9 DUP1 EXTCODESIZE ISZERO DUP1 ISZERO PUSH2 0x1062 JUMPI PUSH1 0x0 DUP1 REVERT JUMPDEST POP GAS CALL ISZERO DUP1 ISZERO PUSH2 0x1076 JUMPI RETURNDATASIZE PUSH1 0x0 DUP1 RETURNDATACOPY RETURNDATASIZE PUSH1 0x0 REVERT JUMPDEST POP POP POP POP POP JUMP JUMPDEST DUP1 PUSH1 0x40 ADD MLOAD ISZERO PUSH2 0x10C7 JUMPI PUSH1 0x20 DUP2 ADD MLOAD PUSH1 0x60 DUP3 ADD MLOAD DUP3 MLOAD PUSH2 0x10C0 SWAP3 SWAP1 SWAP2 PUSH32 0x0 SWAP1 PUSH2 0x1D3E JUMP JUMPDEST POP POP PUSH2 0x10F8 JUMP JUMPDEST PUSH1 0x20 DUP2 ADD MLOAD DUP2 MLOAD PUSH2 0x8EE SWAP2 PUSH32 0x0 PUSH2 0x1E8B JUMP JUMPDEST POP JUMP JUMPDEST PUSH1 0x0 DUP3 PUSH1 0xA0 ADD MLOAD DUP1 PUSH1 0x20 ADD SWAP1 MLOAD DUP2 ADD SWAP1 PUSH2 0x1115 SWAP2 SWAP1 PUSH2 0x341B JUMP JUMPDEST SWAP1 POP DUP3 PUSH1 0x40 ADD MLOAD ISZERO PUSH2 0x129B JUMPI PUSH1 0x0 DUP3 PUSH1 0x0 DUP2 MLOAD DUP2 LT PUSH2 0x1130 JUMPI INVALID JUMPDEST PUSH1 0x20 MUL PUSH1 0x20 ADD ADD MLOAD PUSH1 0x1 PUSH1 0x1 PUSH1 0xA0 SHL SUB AND PUSH4 0x70A08231 ADDRESS PUSH1 0x40 MLOAD DUP3 PUSH4 0xFFFFFFFF AND PUSH1 0xE0 SHL DUP2 MSTORE PUSH1 0x4 ADD PUSH2 0x1163 SWAP2 SWAP1 PUSH2 0x370E JUMP JUMPDEST PUSH1 0x20 PUSH1 0x40 MLOAD DUP1 DUP4 SUB DUP2 DUP7 DUP1 EXTCODESIZE ISZERO DUP1 ISZERO PUSH2 0x117B JUMPI PUSH1 0x0 DUP1 REVERT JUMPDEST POP GAS STATICCALL ISZERO DUP1 ISZERO PUSH2 0x118F JUMPI RETURNDATASIZE PUSH1 0x0 DUP1 RETURNDATACOPY RETURNDATASIZE PUSH1 0x0 REVERT JUMPDEST POP POP POP POP PUSH1 0x40 MLOAD RETURNDATASIZE PUSH1 0x1F NOT PUSH1 0x1F DUP3 ADD AND DUP3 ADD DUP1 PUSH1 0x40 MSTORE POP DUP2 ADD SWAP1 PUSH2 0x11B3 SWAP2 SWAP1 PUSH2 0x35C3 JUMP JUMPDEST SWAP1 POP PUSH2 0x11F3 DUP4 PUSH1 0x0 DUP2 MLOAD DUP2 LT PUSH2 0x11C5 JUMPI INVALID JUMPDEST PUSH1 0x20 MUL PUSH1 0x20 ADD ADD MLOAD PUSH32 0x0 PUSH2 0x1FD5 JUMP JUMPDEST PUSH1 0x20 DUP3 ADD MLOAD PUSH1 0x40 MLOAD PUSH4 0x2890FB65 PUSH1 0xE0 SHL DUP2 MSTORE PUSH1 0x1 PUSH1 0x1 PUSH1 0xA0 SHL SUB PUSH32 0x0 AND SWAP2 PUSH4 0x2890FB65 SWAP2 PUSH2 0x1246 SWAP2 ADDRESS SWAP2 DUP7 SWAP1 PUSH1 0x4 ADD PUSH2 0x3A53 JUMP JUMPDEST PUSH1 0x20 PUSH1 0x40 MLOAD DUP1 DUP4 SUB DUP2 PUSH1 0x0 DUP8 DUP1 EXTCODESIZE ISZERO DUP1 ISZERO PUSH2 0x1260 JUMPI PUSH1 0x0 DUP1 REVERT JUMPDEST POP GAS CALL ISZERO DUP1 ISZERO PUSH2 0x1274 JUMPI RETURNDATASIZE PUSH1 0x0 DUP1 RETURNDATACOPY RETURNDATASIZE PUSH1 0x0 REVERT JUMPDEST POP POP POP POP PUSH1 0x40 MLOAD RETURNDATASIZE PUSH1 0x1F NOT PUSH1 0x1F DUP3 ADD AND DUP3 ADD DUP1 PUSH1 0x40 MSTORE POP DUP2 ADD SWAP1 PUSH2 0x1298 SWAP2 SWAP1 PUSH2 0x35C3 JUMP JUMPDEST POP POP JUMPDEST DUP1 MLOAD PUSH1 0x20 DUP3 ADD MLOAD PUSH1 0x40 DUP1 DUP5 ADD MLOAD SWAP1 MLOAD PUSH4 0x2D10E6EB PUSH1 0xE0 SHL DUP2 MSTORE PUSH1 0x0 SWAP4 PUSH1 0x1 PUSH1 0x1 PUSH1 0xA0 SHL SUB PUSH32 0x0 AND SWAP4 PUSH4 0x2D10E6EB SWAP4 SELFBALANCE SWAP4 PUSH2 0x12F9 SWAP4 SWAP3 SWAP2 SWAP1 PUSH1 0x4 ADD PUSH2 0x3A78 JUMP JUMPDEST PUSH1 0x40 DUP1 MLOAD DUP1 DUP4 SUB DUP2 DUP6 DUP9 DUP1 EXTCODESIZE ISZERO DUP1 ISZERO PUSH2 0x1311 JUMPI PUSH1 0x0 DUP1 REVERT JUMPDEST POP GAS CALL ISZERO DUP1 ISZERO PUSH2 0x1325 JUMPI RETURNDATASIZE PUSH1 0x0 DUP1 RETURNDATACOPY RETURNDATASIZE PUSH1 0x0 REVERT JUMPDEST POP POP POP POP POP PUSH1 0x40 MLOAD RETURNDATASIZE PUSH1 0x1F NOT PUSH1 0x1F DUP3 ADD AND DUP3 ADD DUP1 PUSH1 0x40 MSTORE POP DUP2 ADD SWAP1 PUSH2 0x134A SWAP2 SWAP1 PUSH2 0x3121 JUMP JUMPDEST SWAP2 POP POP PUSH2 0xA99 DUP3 PUSH1 0x20 ADD MLOAD DUP3 PUSH1 0x0 PUSH2 0x208F JUMP JUMPDEST PUSH1 0x0 DUP3 PUSH1 0xA0 ADD MLOAD DUP1 PUSH1 0x20 ADD SWAP1 MLOAD DUP2 ADD SWAP1 PUSH2 0x1377 SWAP2 SWAP1 PUSH2 0x3171 JUMP JUMPDEST SWAP1 POP DUP3 PUSH1 0x40 ADD MLOAD ISZERO PUSH2 0x14CF JUMPI PUSH1 0x0 DUP3 PUSH1 0x0 DUP2 MLOAD DUP2 LT PUSH2 0x1392 JUMPI INVALID JUMPDEST PUSH1 0x20 MUL PUSH1 0x20 ADD ADD MLOAD PUSH1 0x1 PUSH1 0x1 PUSH1 0xA0 SHL SUB AND PUSH4 0x70A08231 ADDRESS PUSH1 0x40 MLOAD DUP3 PUSH4 0xFFFFFFFF AND PUSH1 0xE0 SHL DUP2 MSTORE PUSH1 0x4 ADD PUSH2 0x13C5 SWAP2 SWAP1 PUSH2 0x370E JUMP JUMPDEST PUSH1 0x20 PUSH1 0x40 MLOAD DUP1 DUP4 SUB DUP2 DUP7 DUP1 EXTCODESIZE ISZERO DUP1 ISZERO PUSH2 0x13DD JUMPI PUSH1 0x0 DUP1 REVERT JUMPDEST POP GAS STATICCALL ISZERO DUP1 ISZERO PUSH2 0x13F1 JUMPI RETURNDATASIZE PUSH1 0x0 DUP1 RETURNDATACOPY RETURNDATASIZE PUSH1 0x0 REVERT JUMPDEST POP POP POP POP PUSH1 0x40 MLOAD RETURNDATASIZE PUSH1 0x1F NOT PUSH1 0x1F DUP3 ADD AND DUP3 ADD DUP1 PUSH1 0x40 MSTORE POP DUP2 ADD SWAP1 PUSH2 0x1415 SWAP2 SWAP1 PUSH2 0x35C3 JUMP JUMPDEST SWAP1 POP PUSH2 0x1427 DUP4 PUSH1 0x0 DUP2 MLOAD DUP2 LT PUSH2 0x11C5 JUMPI INVALID JUMPDEST PUSH1 0x20 DUP3 ADD MLOAD PUSH1 0x40 MLOAD PUSH4 0x2890FB65 PUSH1 0xE0 SHL DUP2 MSTORE PUSH1 0x1 PUSH1 0x1 PUSH1 0xA0 SHL SUB PUSH32 0x0 AND SWAP2 PUSH4 0x2890FB65 SWAP2 PUSH2 0x147A SWAP2 ADDRESS SWAP2 DUP7 SWAP1 PUSH1 0x4 ADD PUSH2 0x3A53 JUMP JUMPDEST PUSH1 0x20 PUSH1 0x40 MLOAD DUP1 DUP4 SUB DUP2 PUSH1 0x0 DUP8 DUP1 EXTCODESIZE ISZERO DUP1 ISZERO PUSH2 0x1494 JUMPI PUSH1 0x0 DUP1 REVERT JUMPDEST POP GAS CALL ISZERO DUP1 ISZERO PUSH2 0x14A8 JUMPI RETURNDATASIZE PUSH1 0x0 DUP1 RETURNDATACOPY RETURNDATASIZE PUSH1 0x0 REVERT JUMPDEST POP POP POP POP PUSH1 0x40 MLOAD RETURNDATASIZE PUSH1 0x1F NOT PUSH1 0x1F DUP3 ADD AND DUP3 ADD DUP1 PUSH1 0x40 MSTORE POP DUP2 ADD SWAP1 PUSH2 0x14CC SWAP2 SWAP1 PUSH2 0x35C3 JUMP JUMPDEST POP POP JUMPDEST PUSH1 0x0 PUSH32 0x0 PUSH1 0x1 PUSH1 0x1 PUSH1 0xA0 SHL SUB AND PUSH4 0x6633AF39 SELFBALANCE DUP5 PUSH1 0x0 ADD MLOAD DUP6 PUSH1 0x20 ADD MLOAD DUP7 PUSH1 0x40 ADD MLOAD DUP8 PUSH1 0x80 ADD MLOAD DUP9 PUSH1 0xA0 ADD MLOAD PUSH1 0x1 DUP1 PUSH1 0x40 MLOAD DUP10 PUSH4 0xFFFFFFFF AND PUSH1 0xE0 SHL DUP2 MSTORE PUSH1 0x4 ADD PUSH2 0x153F SWAP8 SWAP7 SWAP6 SWAP5 SWAP4 SWAP3 SWAP2 SWAP1 PUSH2 0x39FD JUMP JUMPDEST PUSH1 0x60 PUSH1 0x40 MLOAD DUP1 DUP4 SUB DUP2 DUP6 DUP9 DUP1 EXTCODESIZE ISZERO DUP1 ISZERO PUSH2 0x1558 JUMPI PUSH1 0x0 DUP1 REVERT JUMPDEST POP GAS CALL ISZERO DUP1 ISZERO PUSH2 0x156C JUMPI RETURNDATASIZE PUSH1 0x0 DUP1 RETURNDATACOPY RETURNDATASIZE PUSH1 0x0 REVERT JUMPDEST POP POP POP POP POP PUSH1 0x40 MLOAD RETURNDATASIZE PUSH1 0x1F NOT PUSH1 0x1F DUP3 ADD AND DUP3 ADD DUP1 PUSH1 0x40 MSTORE POP DUP2 ADD SWAP1 PUSH2 0x1591 SWAP2 SWAP1 PUSH2 0x3144 JUMP JUMPDEST SWAP3 POP POP POP PUSH2 0x15A5 DUP3 PUSH1 0x40 ADD MLOAD DUP3 PUSH1 0x1 PUSH2 0x208F JUMP JUMPDEST PUSH32 0x0 DUP1 ISZERO PUSH2 0x15DA JUMPI POP PUSH1 0x5 DUP3 PUSH1 0x40 ADD MLOAD PUSH2 0xFFFF AND EQ JUMPDEST ISZERO PUSH2 0x15E7 JUMPI PUSH2 0x15E7 PUSH2 0x222D JUMP JUMPDEST DUP4 PUSH1 0x40 ADD MLOAD ISZERO PUSH2 0xA99 JUMPI PUSH2 0xA99 DUP3 PUSH1 0x20 ADD MLOAD PUSH1 0x0 DUP1 PUSH2 0x208F JUMP JUMPDEST PUSH1 0x0 DUP3 PUSH1 0xA0 ADD MLOAD DUP1 PUSH1 0x20 ADD SWAP1 MLOAD DUP2 ADD SWAP1 PUSH2 0x161B SWAP2 SWAP1 PUSH2 0x3483 JUMP JUMPDEST SWAP1 POP DUP3 PUSH1 0x40 ADD MLOAD ISZERO PUSH2 0x1773 JUMPI PUSH1 0x0 DUP3 PUSH1 0x0 DUP2 MLOAD DUP2 LT PUSH2 0x1636 JUMPI INVALID JUMPDEST PUSH1 0x20 MUL PUSH1 0x20 ADD ADD MLOAD PUSH1 0x1 PUSH1 0x1 PUSH1 0xA0 SHL SUB AND PUSH4 0x70A08231 ADDRESS PUSH1 0x40 MLOAD DUP3 PUSH4 0xFFFFFFFF AND PUSH1 0xE0 SHL DUP2 MSTORE PUSH1 0x4 ADD PUSH2 0x1669 SWAP2 SWAP1 PUSH2 0x370E JUMP JUMPDEST PUSH1 0x20 PUSH1 0x40 MLOAD DUP1 DUP4 SUB DUP2 DUP7 DUP1 EXTCODESIZE ISZERO DUP1 ISZERO PUSH2 0x1681 JUMPI PUSH1 0x0 DUP1 REVERT JUMPDEST POP GAS STATICCALL ISZERO DUP1 ISZERO PUSH2 0x1695 JUMPI RETURNDATASIZE PUSH1 0x0 DUP1 RETURNDATACOPY RETURNDATASIZE PUSH1 0x0 REVERT JUMPDEST POP POP POP POP PUSH1 0x40 MLOAD RETURNDATASIZE PUSH1 0x1F NOT PUSH1 0x1F DUP3 ADD AND DUP3 ADD DUP1 PUSH1 0x40 MSTORE POP DUP2 ADD SWAP1 PUSH2 0x16B9 SWAP2 SWAP1 PUSH2 0x35C3 JUMP JUMPDEST SWAP1 POP PUSH2 0x16CB DUP4 PUSH1 0x0 DUP2 MLOAD DUP2 LT PUSH2 0x11C5 JUMPI INVALID JUMPDEST PUSH1 0x20 DUP3 ADD MLOAD PUSH1 0x40 MLOAD PUSH4 0x2890FB65 PUSH1 0xE0 SHL DUP2 MSTORE PUSH1 0x1 PUSH1 0x1 PUSH1 0xA0 SHL SUB PUSH32 0x0 AND SWAP2 PUSH4 0x2890FB65 SWAP2 PUSH2 0x171E SWAP2 ADDRESS SWAP2 DUP7 SWAP1 PUSH1 0x4 ADD PUSH2 0x3A53 JUMP JUMPDEST PUSH1 0x20 PUSH1 0x40 MLOAD DUP1 DUP4 SUB DUP2 PUSH1 0x0 DUP8 DUP1 EXTCODESIZE ISZERO DUP1 ISZERO PUSH2 0x1738 JUMPI PUSH1 0x0 DUP1 REVERT JUMPDEST POP GAS CALL ISZERO DUP1 ISZERO PUSH2 0x174C JUMPI RETURNDATASIZE PUSH1 0x0 DUP1 RETURNDATACOPY RETURNDATASIZE PUSH1 0x0 REVERT JUMPDEST POP POP POP POP PUSH1 0x40 MLOAD RETURNDATASIZE PUSH1 0x1F NOT PUSH1 0x1F DUP3 ADD AND DUP3 ADD DUP1 PUSH1 0x40 MSTORE POP DUP2 ADD SWAP1 PUSH2 0x1770 SWAP2 SWAP1 PUSH2 0x35C3 JUMP JUMPDEST POP POP JUMPDEST DUP1 MLOAD PUSH1 0x20 DUP3 ADD MLOAD PUSH1 0x40 DUP1 DUP5 ADD MLOAD PUSH1 0x60 DUP6 ADD MLOAD SWAP2 MLOAD PUSH4 0x1FF7AEFD PUSH1 0xE2 SHL DUP2 MSTORE PUSH1 0x0 SWAP5 DUP6 SWAP5 PUSH1 0x1 PUSH1 0x1 PUSH1 0xA0 SHL SUB PUSH32 0x0 AND SWAP5 PUSH4 0x7FDEBBF4 SWAP5 SELFBALANCE SWAP5 PUSH2 0x17D8 SWAP5 SWAP4 SWAP3 SWAP1 PUSH1 0x4 ADD PUSH2 0x395E JUMP JUMPDEST PUSH1 0x0 PUSH1 0x40 MLOAD DUP1 DUP4 SUB DUP2 DUP6 DUP9 DUP1 EXTCODESIZE ISZERO DUP1 ISZERO PUSH2 0x17F1 JUMPI PUSH1 0x0 DUP1 REVERT JUMPDEST POP GAS CALL ISZERO DUP1 ISZERO PUSH2 0x1805 JUMPI RETURNDATASIZE PUSH1 0x0 DUP1 RETURNDATACOPY RETURNDATASIZE PUSH1 0x0 REVERT JUMPDEST POP POP POP POP POP PUSH1 0x40 MLOAD RETURNDATASIZE PUSH1 0x0 DUP3 RETURNDATACOPY PUSH1 0x1F RETURNDATASIZE SWAP1 DUP2 ADD PUSH1 0x1F NOT AND DUP3 ADD PUSH1 0x40 MSTORE PUSH2 0x182E SWAP2 SWAP1 DUP2 ADD SWAP1 PUSH2 0x303E JUMP JUMPDEST SWAP2 POP SWAP2 POP PUSH2 0x1076 DUP4 PUSH1 0x20 ADD MLOAD DUP5 PUSH1 0x40 ADD MLOAD DUP5 PUSH1 0x0 DUP6 SLT PUSH2 0x184F JUMPI PUSH1 0x0 PUSH2 0x1858 JUMP JUMPDEST PUSH2 0x1858 DUP6 PUSH2 0x233F JUMP JUMPDEST PUSH1 0x1 PUSH2 0x2360 JUMP JUMPDEST PUSH1 0x0 DUP3 PUSH1 0xA0 ADD MLOAD DUP1 PUSH1 0x20 ADD SWAP1 MLOAD DUP2 ADD SWAP1 PUSH2 0x1879 SWAP2 SWAP1 PUSH2 0x3241 JUMP JUMPDEST SWAP1 POP DUP3 PUSH1 0x40 ADD MLOAD ISZERO PUSH2 0x19D1 JUMPI PUSH1 0x0 DUP3 PUSH1 0x0 DUP2 MLOAD DUP2 LT PUSH2 0x1894 JUMPI INVALID JUMPDEST PUSH1 0x20 MUL PUSH1 0x20 ADD ADD MLOAD PUSH1 0x1 PUSH1 0x1 PUSH1 0xA0 SHL SUB AND PUSH4 0x70A08231 ADDRESS PUSH1 0x40 MLOAD DUP3 PUSH4 0xFFFFFFFF AND PUSH1 0xE0 SHL DUP2 MSTORE PUSH1 0x4 ADD PUSH2 0x18C7 SWAP2 SWAP1 PUSH2 0x370E JUMP JUMPDEST PUSH1 0x20 PUSH1 0x40 MLOAD DUP1 DUP4 SUB DUP2 DUP7 DUP1 EXTCODESIZE ISZERO DUP1 ISZERO PUSH2 0x18DF JUMPI PUSH1 0x0 DUP1 REVERT JUMPDEST POP GAS STATICCALL ISZERO DUP1 ISZERO PUSH2 0x18F3 JUMPI RETURNDATASIZE PUSH1 0x0 DUP1 RETURNDATACOPY RETURNDATASIZE PUSH1 0x0 REVERT JUMPDEST POP POP POP POP PUSH1 0x40 MLOAD RETURNDATASIZE PUSH1 0x1F NOT PUSH1 0x1F DUP3 ADD AND DUP3 ADD DUP1 PUSH1 0x40 MSTORE POP DUP2 ADD SWAP1 PUSH2 0x1917 SWAP2 SWAP1 PUSH2 0x35C3 JUMP JUMPDEST SWAP1 POP PUSH2 0x1929 DUP4 PUSH1 0x0 DUP2 MLOAD DUP2 LT PUSH2 0x11C5 JUMPI INVALID JUMPDEST PUSH1 0x20 DUP3 ADD MLOAD PUSH1 0x40 MLOAD PUSH4 0x2890FB65 PUSH1 0xE0 SHL DUP2 MSTORE PUSH1 0x1 PUSH1 0x1 PUSH1 0xA0 SHL SUB PUSH32 0x0 AND SWAP2 PUSH4 0x2890FB65 SWAP2 PUSH2 0x197C SWAP2 ADDRESS SWAP2 DUP7 SWAP1 PUSH1 0x4 ADD PUSH2 0x3A53 JUMP JUMPDEST PUSH1 0x20 PUSH1 0x40 MLOAD DUP1 DUP4 SUB DUP2 PUSH1 0x0 DUP8 DUP1 EXTCODESIZE ISZERO DUP1 ISZERO PUSH2 0x1996 JUMPI PUSH1 0x0 DUP1 REVERT JUMPDEST POP GAS CALL ISZERO DUP1 ISZERO PUSH2 0x19AA JUMPI RETURNDATASIZE PUSH1 0x0 DUP1 RETURNDATACOPY RETURNDATASIZE PUSH1 0x0 REVERT JUMPDEST POP POP POP POP PUSH1 0x40 MLOAD RETURNDATASIZE PUSH1 0x1F NOT PUSH1 0x1F DUP3 ADD AND DUP3 ADD DUP1 PUSH1 0x40 MSTORE POP DUP2 ADD SWAP1 PUSH2 0x19CE SWAP2 SWAP1 PUSH2 0x35C3 JUMP JUMPDEST POP POP JUMPDEST PUSH1 0x0 PUSH32 0x0 PUSH1 0x1 PUSH1 0x1 PUSH1 0xA0 SHL SUB AND PUSH4 0xE816469D SELFBALANCE DUP5 PUSH1 0x0 ADD MLOAD DUP6 PUSH1 0x20 ADD MLOAD DUP7 PUSH1 0x40 ADD MLOAD DUP8 PUSH1 0xA0 ADD MLOAD DUP9 PUSH1 0xC0 ADD MLOAD PUSH1 0x40 MLOAD DUP8 PUSH4 0xFFFFFFFF AND PUSH1 0xE0 SHL DUP2 MSTORE PUSH1 0x4 ADD PUSH2 0x1A3C SWAP6 SWAP5 SWAP4 SWAP3 SWAP2 SWAP1 PUSH2 0x39A9 JUMP JUMPDEST PUSH1 0x0 PUSH1 0x40 MLOAD DUP1 DUP4 SUB DUP2 DUP6 DUP9 DUP1 EXTCODESIZE ISZERO DUP1 ISZERO PUSH2 0x1A55 JUMPI PUSH1 0x0 DUP1 REVERT JUMPDEST POP GAS CALL ISZERO DUP1 ISZERO PUSH2 0x1A69 JUMPI RETURNDATASIZE PUSH1 0x0 DUP1 RETURNDATACOPY RETURNDATASIZE PUSH1 0x0 REVERT JUMPDEST POP POP POP POP POP PUSH1 0x40 MLOAD RETURNDATASIZE PUSH1 0x0 DUP3 RETURNDATACOPY PUSH1 0x1F RETURNDATASIZE SWAP1 DUP2 ADD PUSH1 0x1F NOT AND DUP3 ADD PUSH1 0x40 MSTORE PUSH2 0x1A92 SWAP2 SWAP1 DUP2 ADD SWAP1 PUSH2 0x303E JUMP JUMPDEST POP SWAP1 POP PUSH2 0xA99 DUP3 PUSH1 0x40 ADD MLOAD DUP4 PUSH1 0xA0 ADD MLOAD DUP4 PUSH1 0x0 PUSH1 0x1 PUSH2 0x2360 JUMP JUMPDEST PUSH1 0x0 PUSH1 0x1 DUP3 MLOAD PUSH1 0xFF AND PUSH1 0x3 DUP2 GT ISZERO PUSH2 0x1AC0 JUMPI INVALID JUMPDEST PUSH1 0x3 DUP2 GT ISZERO PUSH2 0x1ACB JUMPI INVALID JUMPDEST EQ ISZERO PUSH2 0x1B07 JUMPI PUSH1 0x0 DUP3 PUSH1 0xA0 ADD MLOAD DUP1 PUSH1 0x20 ADD SWAP1 MLOAD DUP2 ADD SWAP1 PUSH2 0x1AEB SWAP2 SWAP1 PUSH2 0x3171 JUMP JUMPDEST SWAP1 POP DUP1 PUSH1 0x60 ADD MLOAD SWAP2 POP PUSH2 0x1B01 DUP2 PUSH1 0xC0 ADD MLOAD PUSH2 0x107D JUMP JUMPDEST POP PUSH2 0x1B39 JUMP JUMPDEST PUSH1 0x0 DUP3 PUSH1 0xA0 ADD MLOAD DUP1 PUSH1 0x20 ADD SWAP1 MLOAD DUP2 ADD SWAP1 PUSH2 0x1B21 SWAP2 SWAP1 PUSH2 0x3241 JUMP JUMPDEST SWAP1 POP DUP1 PUSH1 0x80 ADD MLOAD SWAP2 POP PUSH2 0x1B37 DUP2 PUSH1 0xE0 ADD MLOAD PUSH2 0x107D JUMP JUMPDEST POP JUMPDEST DUP2 PUSH1 0x20 ADD MLOAD ISZERO PUSH2 0x1B4E JUMPI PUSH2 0x1B4E DUP2 PUSH1 0x0 PUSH2 0x1BB5 JUMP JUMPDEST POP POP JUMP JUMPDEST PUSH1 0x0 DUP3 DUP3 ADD DUP4 DUP2 LT ISZERO PUSH2 0x1BAC JUMPI PUSH1 0x40 DUP1 MLOAD PUSH3 0x461BCD PUSH1 0xE5 SHL DUP2 MSTORE PUSH1 0x20 PUSH1 0x4 DUP3 ADD MSTORE PUSH1 0x1B PUSH1 0x24 DUP3 ADD MSTORE PUSH32 0x536166654D6174683A206164646974696F6E206F766572666C6F770000000000 PUSH1 0x44 DUP3 ADD MSTORE SWAP1 MLOAD SWAP1 DUP2 SWAP1 SUB PUSH1 0x64 ADD SWAP1 REVERT JUMPDEST SWAP1 POP JUMPDEST SWAP3 SWAP2 POP POP JUMP JUMPDEST PUSH1 0x40 MLOAD PUSH4 0x70A08231 PUSH1 0xE0 SHL DUP2 MSTORE PUSH1 0x0 SWAP1 PUSH1 0x1 PUSH1 0x1 PUSH1 0xA0 SHL SUB DUP5 AND SWAP1 PUSH4 0x70A08231 SWAP1 PUSH2 0x1BE4 SWAP1 ADDRESS SWAP1 PUSH1 0x4 ADD PUSH2 0x370E JUMP JUMPDEST PUSH1 0x20 PUSH1 0x40 MLOAD DUP1 DUP4 SUB DUP2 DUP7 DUP1 EXTCODESIZE ISZERO DUP1 ISZERO PUSH2 0x1BFC JUMPI PUSH1 0x0 DUP1 REVERT JUMPDEST POP GAS STATICCALL ISZERO DUP1 ISZERO PUSH2 0x1C10 JUMPI RETURNDATASIZE PUSH1 0x0 DUP1 RETURNDATACOPY RETURNDATASIZE PUSH1 0x0 REVERT JUMPDEST POP POP POP POP PUSH1 0x40 MLOAD RETURNDATASIZE PUSH1 0x1F NOT PUSH1 0x1F DUP3 ADD AND DUP3 ADD DUP1 PUSH1 0x40 MSTORE POP DUP2 ADD SWAP1 PUSH2 0x1C34 SWAP2 SWAP1 PUSH2 0x35C3 JUMP JUMPDEST SWAP1 POP DUP2 DUP2 GT ISZERO PUSH2 0x8EE JUMPI PUSH1 0x1 SLOAD PUSH1 0x1 PUSH1 0x1 PUSH1 0xA0 SHL SUB DUP1 DUP6 AND SWAP2 PUSH4 0xA9059CBB SWAP2 AND PUSH2 0x1C5E DUP5 DUP7 PUSH2 0x2701 JUMP JUMPDEST PUSH1 0x40 MLOAD DUP4 PUSH4 0xFFFFFFFF AND PUSH1 0xE0 SHL DUP2 MSTORE PUSH1 0x4 ADD PUSH2 0x1C7B SWAP3 SWAP2 SWAP1 PUSH2 0x3945 JUMP JUMPDEST PUSH1 0x20 PUSH1 0x40 MLOAD DUP1 DUP4 SUB DUP2 PUSH1 0x0 DUP8 DUP1 EXTCODESIZE ISZERO DUP1 ISZERO PUSH2 0x1C95 JUMPI PUSH1 0x0 DUP1 REVERT JUMPDEST POP GAS CALL ISZERO DUP1 ISZERO PUSH2 0x1CA9 JUMPI RETURNDATASIZE PUSH1 0x0 DUP1 RETURNDATACOPY RETURNDATASIZE PUSH1 0x0 REVERT JUMPDEST POP POP POP POP PUSH1 0x40 MLOAD RETURNDATASIZE PUSH1 0x1F NOT PUSH1 0x1F DUP3 ADD AND DUP3 ADD DUP1 PUSH1 0x40 MSTORE POP DUP2 ADD SWAP1 PUSH2 0xA99 SWAP2 SWAP1 PUSH2 0x30C1 JUMP JUMPDEST PUSH1 0x0 DUP1 PUSH2 0x1CD9 DUP4 PUSH2 0x275E JUMP JUMPDEST SWAP1 POP PUSH1 0x1 PUSH1 0x1 PUSH1 0xA0 SHL SUB DUP2 AND PUSH2 0x1D0C JUMPI POP PUSH32 0x0 JUMPDEST PUSH2 0x1D36 DUP2 PUSH32 0x0 PUSH2 0x1FD5 JUMP JUMPDEST SWAP1 POP JUMPDEST SWAP2 SWAP1 POP JUMP JUMPDEST PUSH1 0x0 DUP1 PUSH1 0x0 DUP1 DUP6 PUSH1 0x1 PUSH1 0x1 PUSH1 0xA0 SHL SUB AND PUSH4 0xAAF10F42 PUSH1 0x40 MLOAD DUP2 PUSH4 0xFFFFFFFF AND PUSH1 0xE0 SHL DUP2 MSTORE PUSH1 0x4 ADD PUSH1 0x20 PUSH1 0x40 MLOAD DUP1 DUP4 SUB DUP2 DUP7 DUP1 EXTCODESIZE ISZERO DUP1 ISZERO PUSH2 0x1D7D JUMPI PUSH1 0x0 DUP1 REVERT JUMPDEST POP GAS STATICCALL ISZERO DUP1 ISZERO PUSH2 0x1D91 JUMPI RETURNDATASIZE PUSH1 0x0 DUP1 RETURNDATACOPY RETURNDATASIZE PUSH1 0x0 REVERT JUMPDEST POP POP POP POP PUSH1 0x40 MLOAD RETURNDATASIZE PUSH1 0x1F NOT PUSH1 0x1F DUP3 ADD AND DUP3 ADD DUP1 PUSH1 0x40 MSTORE POP DUP2 ADD SWAP1 PUSH2 0x1DB5 SWAP2 SWAP1 PUSH2 0x2E4C JUMP JUMPDEST PUSH1 0x1 PUSH1 0x1 PUSH1 0xA0 SHL SUB AND PUSH4 0x5CAF9FDA PUSH1 0xE0 SHL DUP9 DUP11 DUP9 PUSH1 0x40 MLOAD PUSH1 0x24 ADD PUSH2 0x1DDB SWAP4 SWAP3 SWAP2 SWAP1 PUSH2 0x3BA4 JUMP JUMPDEST PUSH1 0x40 DUP1 MLOAD PUSH1 0x1F NOT DUP2 DUP5 SUB ADD DUP2 MSTORE SWAP2 DUP2 MSTORE PUSH1 0x20 DUP3 ADD DUP1 MLOAD PUSH1 0x1 PUSH1 0x1 PUSH1 0xE0 SHL SUB AND PUSH1 0x1 PUSH1 0x1 PUSH1 0xE0 SHL SUB NOT SWAP1 SWAP5 AND SWAP4 SWAP1 SWAP4 OR SWAP1 SWAP3 MSTORE SWAP1 MLOAD PUSH2 0x1E19 SWAP2 SWAP1 PUSH2 0x36F2 JUMP JUMPDEST PUSH1 0x0 PUSH1 0x40 MLOAD DUP1 DUP4 SUB DUP2 DUP6 GAS DELEGATECALL SWAP2 POP POP RETURNDATASIZE DUP1 PUSH1 0x0 DUP2 EQ PUSH2 0x1E54 JUMPI PUSH1 0x40 MLOAD SWAP2 POP PUSH1 0x1F NOT PUSH1 0x3F RETURNDATASIZE ADD AND DUP3 ADD PUSH1 0x40 MSTORE RETURNDATASIZE DUP3 MSTORE RETURNDATASIZE PUSH1 0x0 PUSH1 0x20 DUP5 ADD RETURNDATACOPY PUSH2 0x1E59 JUMP JUMPDEST PUSH1 0x60 SWAP2 POP JUMPDEST POP SWAP2 POP SWAP2 POP DUP2 PUSH2 0x1E68 JUMPI PUSH1 0x0 DUP1 REVERT JUMPDEST DUP1 DUP1 PUSH1 0x20 ADD SWAP1 MLOAD DUP2 ADD SWAP1 PUSH2 0x1E7C SWAP2 SWAP1 PUSH2 0x3121 JUMP JUMPDEST SWAP1 SWAP10 SWAP1 SWAP9 POP SWAP7 POP POP POP POP POP POP POP JUMP JUMPDEST PUSH1 0x0 DUP1 PUSH1 0x0 DUP1 DUP5 PUSH1 0x1 PUSH1 0x1 PUSH1 0xA0 SHL SUB AND PUSH4 0xAAF10F42 PUSH1 0x40 MLOAD DUP2 PUSH4 0xFFFFFFFF AND PUSH1 0xE0 SHL DUP2 MSTORE PUSH1 0x4 ADD PUSH1 0x20 PUSH1 0x40 MLOAD DUP1 DUP4 SUB DUP2 DUP7 DUP1 EXTCODESIZE ISZERO DUP1 ISZERO PUSH2 0x1ECA JUMPI PUSH1 0x0 DUP1 REVERT JUMPDEST POP GAS STATICCALL ISZERO DUP1 ISZERO PUSH2 0x1EDE JUMPI RETURNDATASIZE PUSH1 0x0 DUP1 RETURNDATACOPY RETURNDATASIZE PUSH1 0x0 REVERT JUMPDEST POP POP POP POP PUSH1 0x40 MLOAD RETURNDATASIZE PUSH1 0x1F NOT PUSH1 0x1F DUP3 ADD AND DUP3 ADD DUP1 PUSH1 0x40 MSTORE POP DUP2 ADD SWAP1 PUSH2 0x1F02 SWAP2 SWAP1 PUSH2 0x2E4C JUMP JUMPDEST PUSH1 0x1 PUSH1 0x1 PUSH1 0xA0 SHL SUB AND PUSH4 0x2BA8C23C PUSH1 0xE0 SHL DUP8 DUP10 PUSH1 0x40 MLOAD PUSH1 0x24 ADD PUSH2 0x1F26 SWAP3 SWAP2 SWAP1 PUSH2 0x3B87 JUMP JUMPDEST PUSH1 0x40 DUP1 MLOAD PUSH1 0x1F NOT DUP2 DUP5 SUB ADD DUP2 MSTORE SWAP2 DUP2 MSTORE PUSH1 0x20 DUP3 ADD DUP1 MLOAD PUSH1 0x1 PUSH1 0x1 PUSH1 0xE0 SHL SUB AND PUSH1 0x1 PUSH1 0x1 PUSH1 0xE0 SHL SUB NOT SWAP1 SWAP5 AND SWAP4 SWAP1 SWAP4 OR SWAP1 SWAP3 MSTORE SWAP1 MLOAD PUSH2 0x1F64 SWAP2 SWAP1 PUSH2 0x36F2 JUMP JUMPDEST PUSH1 0x0 PUSH1 0x40 MLOAD DUP1 DUP4 SUB DUP2 DUP6 GAS DELEGATECALL SWAP2 POP POP RETURNDATASIZE DUP1 PUSH1 0x0 DUP2 EQ PUSH2 0x1F9F JUMPI PUSH1 0x40 MLOAD SWAP2 POP PUSH1 0x1F NOT PUSH1 0x3F RETURNDATASIZE ADD AND DUP3 ADD PUSH1 0x40 MSTORE RETURNDATASIZE DUP3 MSTORE RETURNDATASIZE PUSH1 0x0 PUSH1 0x20 DUP5 ADD RETURNDATACOPY PUSH2 0x1FA4 JUMP JUMPDEST PUSH1 0x60 SWAP2 POP JUMPDEST POP SWAP2 POP SWAP2 POP DUP2 PUSH2 0x1FB3 JUMPI PUSH1 0x0 DUP1 REVERT JUMPDEST DUP1 DUP1 PUSH1 0x20 ADD SWAP1 MLOAD DUP2 ADD SWAP1 PUSH2 0x1FC7 SWAP2 SWAP1 PUSH2 0x3121 JUMP JUMPDEST SWAP1 SWAP9 SWAP1 SWAP8 POP SWAP6 POP POP POP POP POP POP JUMP JUMPDEST PUSH1 0x40 MLOAD PUSH4 0x6EB1769F PUSH1 0xE1 SHL DUP2 MSTORE PUSH1 0x1 PUSH1 0x80 SHL SWAP1 PUSH1 0x1 PUSH1 0x1 PUSH1 0xA0 SHL SUB DUP5 AND SWAP1 PUSH4 0xDD62ED3E SWAP1 PUSH2 0x2009 SWAP1 ADDRESS SWAP1 DUP7 SWAP1 PUSH1 0x4 ADD PUSH2 0x387F JUMP JUMPDEST PUSH1 0x20 PUSH1 0x40 MLOAD DUP1 DUP4 SUB DUP2 DUP7 DUP1 EXTCODESIZE ISZERO DUP1 ISZERO PUSH2 0x2021 JUMPI PUSH1 0x0 DUP1 REVERT JUMPDEST POP GAS STATICCALL ISZERO DUP1 ISZERO PUSH2 0x2035 JUMPI RETURNDATASIZE PUSH1 0x0 DUP1 RETURNDATACOPY RETURNDATASIZE PUSH1 0x0 REVERT JUMPDEST POP POP POP POP PUSH1 0x40 MLOAD RETURNDATASIZE PUSH1 0x1F NOT PUSH1 0x1F DUP3 ADD AND DUP3 ADD DUP1 PUSH1 0x40 MSTORE POP DUP2 ADD SWAP1 PUSH2 0x2059 SWAP2 SWAP1 PUSH2 0x35C3 JUMP JUMPDEST LT ISZERO PUSH2 0x1B4E JUMPI PUSH1 0x40 MLOAD PUSH4 0x95EA7B3 PUSH1 0xE0 SHL DUP2 MSTORE PUSH1 0x1 PUSH1 0x1 PUSH1 0xA0 SHL SUB DUP4 AND SWAP1 PUSH4 0x95EA7B3 SWAP1 PUSH2 0xF91 SWAP1 DUP5 SWAP1 PUSH1 0x0 NOT SWAP1 PUSH1 0x4 ADD PUSH2 0x3945 JUMP JUMPDEST PUSH1 0x40 DUP1 MLOAD PUSH1 0x1 DUP1 DUP3 MSTORE DUP2 DUP4 ADD SWAP1 SWAP3 MSTORE PUSH1 0x0 SWAP2 DUP2 PUSH1 0x20 ADD JUMPDEST PUSH2 0x20AE PUSH2 0x2A05 JUMP JUMPDEST DUP2 MSTORE PUSH1 0x20 ADD SWAP1 PUSH1 0x1 SWAP1 SUB SWAP1 DUP2 PUSH2 0x20A6 JUMPI SWAP1 POP POP SWAP1 POP PUSH1 0x1 PUSH1 0x1 PUSH1 0x60 SHL SUB DUP4 AND ISZERO PUSH2 0x20D9 JUMPI PUSH1 0x5 PUSH2 0x20DC JUMP JUMPDEST PUSH1 0x0 JUMPDEST DUP2 PUSH1 0x0 DUP2 MLOAD DUP2 LT PUSH2 0x20E9 JUMPI INVALID JUMPDEST PUSH1 0x20 MUL PUSH1 0x20 ADD ADD MLOAD PUSH1 0x0 ADD SWAP1 PUSH1 0x6 DUP2 GT ISZERO PUSH2 0x2100 JUMPI INVALID JUMPDEST SWAP1 DUP2 PUSH1 0x6 DUP2 GT ISZERO PUSH2 0x210D JUMPI INVALID JUMPDEST DUP2 MSTORE POP POP DUP4 DUP2 PUSH1 0x0 DUP2 MLOAD DUP2 LT PUSH2 0x211F JUMPI INVALID JUMPDEST PUSH1 0x20 MUL PUSH1 0x20 ADD ADD MLOAD PUSH1 0x20 ADD SWAP1 PUSH2 0xFFFF AND SWAP1 DUP2 PUSH2 0xFFFF AND DUP2 MSTORE POP POP DUP3 PUSH1 0x1 PUSH1 0x1 PUSH1 0x60 SHL SUB AND DUP2 PUSH1 0x0 DUP2 MLOAD DUP2 LT PUSH2 0x2150 JUMPI INVALID JUMPDEST PUSH1 0x20 MUL PUSH1 0x20 ADD ADD MLOAD PUSH1 0x40 ADD DUP2 DUP2 MSTORE POP POP PUSH1 0x1 DUP2 PUSH1 0x0 DUP2 MLOAD DUP2 LT PUSH2 0x216F JUMPI INVALID JUMPDEST PUSH1 0x20 MUL PUSH1 0x20 ADD ADD MLOAD PUSH1 0x80 ADD SWAP1 ISZERO ISZERO SWAP1 DUP2 ISZERO ISZERO DUP2 MSTORE POP POP DUP2 DUP2 PUSH1 0x0 DUP2 MLOAD DUP2 LT PUSH2 0x2193 JUMPI INVALID JUMPDEST PUSH1 0x20 SWAP1 DUP2 MUL SWAP2 SWAP1 SWAP2 ADD ADD MLOAD SWAP1 ISZERO ISZERO PUSH1 0xA0 SWAP1 SWAP2 ADD MSTORE PUSH1 0x40 MLOAD PUSH4 0x37351953 PUSH1 0xE1 SHL DUP2 MSTORE PUSH1 0x1 PUSH1 0x1 PUSH1 0xA0 SHL SUB PUSH32 0x0 AND SWAP1 PUSH4 0x6E6A32A6 SWAP1 PUSH2 0x21F5 SWAP1 ADDRESS SWAP1 DUP6 SWAP1 PUSH1 0x4 ADD PUSH2 0x37E7 JUMP JUMPDEST PUSH1 0x0 PUSH1 0x40 MLOAD DUP1 DUP4 SUB DUP2 PUSH1 0x0 DUP8 DUP1 EXTCODESIZE ISZERO DUP1 ISZERO PUSH2 0x220F JUMPI PUSH1 0x0 DUP1 REVERT JUMPDEST POP GAS CALL ISZERO DUP1 ISZERO PUSH2 0x2223 JUMPI RETURNDATASIZE PUSH1 0x0 DUP1 RETURNDATACOPY RETURNDATASIZE PUSH1 0x0 REVERT JUMPDEST POP POP POP POP POP POP POP POP JUMP JUMPDEST PUSH1 0x40 MLOAD PUSH4 0x70A08231 PUSH1 0xE0 SHL DUP2 MSTORE PUSH1 0x1 PUSH1 0x1 PUSH1 0xA0 SHL SUB PUSH32 0x0 AND SWAP1 PUSH4 0xDE0E9A3E SWAP1 DUP3 SWAP1 PUSH4 0x70A08231 SWAP1 PUSH2 0x2281 SWAP1 ADDRESS SWAP1 PUSH1 0x4 ADD PUSH2 0x370E JUMP JUMPDEST PUSH1 0x20 PUSH1 0x40 MLOAD DUP1 DUP4 SUB DUP2 DUP7 DUP1 EXTCODESIZE ISZERO DUP1 ISZERO PUSH2 0x2299 JUMPI PUSH1 0x0 DUP1 REVERT JUMPDEST POP GAS STATICCALL ISZERO DUP1 ISZERO PUSH2 0x22AD JUMPI RETURNDATASIZE PUSH1 0x0 DUP1 RETURNDATACOPY RETURNDATASIZE PUSH1 0x0 REVERT JUMPDEST POP POP POP POP PUSH1 0x40 MLOAD RETURNDATASIZE PUSH1 0x1F NOT PUSH1 0x1F DUP3 ADD AND DUP3 ADD DUP1 PUSH1 0x40 MSTORE POP DUP2 ADD SWAP1 PUSH2 0x22D1 SWAP2 SWAP1 PUSH2 0x35C3 JUMP JUMPDEST PUSH1 0x40 MLOAD DUP3 PUSH4 0xFFFFFFFF AND PUSH1 0xE0 SHL DUP2 MSTORE PUSH1 0x4 ADD PUSH2 0x22ED SWAP2 SWAP1 PUSH2 0x3BD7 JUMP JUMPDEST PUSH1 0x20 PUSH1 0x40 MLOAD DUP1 DUP4 SUB DUP2 PUSH1 0x0 DUP8 DUP1 EXTCODESIZE ISZERO DUP1 ISZERO PUSH2 0x2307 JUMPI PUSH1 0x0 DUP1 REVERT JUMPDEST POP GAS CALL ISZERO DUP1 ISZERO PUSH2 0x231B JUMPI RETURNDATASIZE PUSH1 0x0 DUP1 RETURNDATACOPY RETURNDATASIZE PUSH1 0x0 REVERT JUMPDEST POP POP POP POP PUSH1 0x40 MLOAD RETURNDATASIZE PUSH1 0x1F NOT PUSH1 0x1F DUP3 ADD AND DUP3 ADD DUP1 PUSH1 0x40 MSTORE POP DUP2 ADD SWAP1 PUSH2 0x10F8 SWAP2 SWAP1 PUSH2 0x35C3 JUMP JUMPDEST PUSH1 0x0 DUP1 DUP3 SLT ISZERO PUSH2 0x2359 JUMPI PUSH2 0x2352 DUP3 PUSH2 0x2846 JUMP JUMPDEST SWAP1 POP PUSH2 0x1D39 JUMP JUMPDEST POP DUP1 PUSH2 0x1D39 JUMP JUMPDEST PUSH1 0x40 DUP1 MLOAD PUSH1 0x1 DUP1 DUP3 MSTORE DUP2 DUP4 ADD SWAP1 SWAP3 MSTORE TIMESTAMP SWAP2 PUSH1 0x0 SWAP2 SWAP1 DUP2 PUSH1 0x20 ADD JUMPDEST PUSH2 0x2382 PUSH2 0x2A3C JUMP JUMPDEST DUP2 MSTORE PUSH1 0x20 ADD SWAP1 PUSH1 0x1 SWAP1 SUB SWAP1 DUP2 PUSH2 0x237A JUMPI SWAP1 POP POP SWAP1 POP PUSH1 0x0 DUP5 GT PUSH2 0x23A6 JUMPI PUSH1 0x0 PUSH2 0x23A9 JUMP JUMPDEST PUSH1 0x1 JUMPDEST DUP2 PUSH1 0x0 DUP2 MLOAD DUP2 LT PUSH2 0x23B6 JUMPI INVALID JUMPDEST PUSH1 0x20 MUL PUSH1 0x20 ADD ADD MLOAD PUSH1 0x0 ADD SWAP1 PUSH1 0x6 DUP2 GT ISZERO PUSH2 0x23CD JUMPI INVALID JUMPDEST SWAP1 DUP2 PUSH1 0x6 DUP2 GT ISZERO PUSH2 0x23DA JUMPI INVALID JUMPDEST DUP2 MSTORE POP POP DUP4 DUP2 PUSH1 0x0 DUP2 MLOAD DUP2 LT PUSH2 0x23EC JUMPI INVALID JUMPDEST PUSH1 0x20 MUL PUSH1 0x20 ADD ADD MLOAD PUSH1 0x40 ADD DUP2 DUP2 MSTORE POP POP DUP7 DUP2 PUSH1 0x0 DUP2 MLOAD DUP2 LT PUSH2 0x240A JUMPI INVALID JUMPDEST PUSH1 0x20 MUL PUSH1 0x20 ADD ADD MLOAD PUSH1 0x20 ADD SWAP1 PUSH2 0xFFFF AND SWAP1 DUP2 PUSH2 0xFFFF AND DUP2 MSTORE POP POP PUSH1 0x1 DUP2 PUSH1 0x0 DUP2 MLOAD DUP2 LT PUSH2 0x2433 JUMPI INVALID JUMPDEST PUSH1 0x20 MUL PUSH1 0x20 ADD ADD MLOAD PUSH1 0x80 ADD SWAP1 ISZERO ISZERO SWAP1 DUP2 ISZERO ISZERO DUP2 MSTORE POP POP DUP3 DUP2 PUSH1 0x0 DUP2 MLOAD DUP2 LT PUSH2 0x2457 JUMPI INVALID JUMPDEST PUSH1 0x20 MUL PUSH1 0x20 ADD ADD MLOAD PUSH1 0xA0 ADD SWAP1 ISZERO ISZERO SWAP1 DUP2 ISZERO ISZERO DUP2 MSTORE POP POP PUSH1 0x0 DUP1 DUP8 MLOAD PUSH1 0x1 PUSH1 0x1 PUSH1 0x40 SHL SUB DUP2 GT DUP1 ISZERO PUSH2 0x2487 JUMPI PUSH1 0x0 DUP1 REVERT JUMPDEST POP PUSH1 0x40 MLOAD SWAP1 DUP1 DUP3 MSTORE DUP1 PUSH1 0x20 MUL PUSH1 0x20 ADD DUP3 ADD PUSH1 0x40 MSTORE DUP1 ISZERO PUSH2 0x24B1 JUMPI DUP2 PUSH1 0x20 ADD PUSH1 0x20 DUP3 MUL DUP1 CALLDATASIZE DUP4 CALLDATACOPY ADD SWAP1 POP JUMPDEST POP SWAP1 POP PUSH1 0x0 JUMPDEST DUP8 MLOAD DUP2 LT ISZERO PUSH2 0x25A7 JUMPI DUP8 DUP2 DUP2 MLOAD DUP2 LT PUSH2 0x24CC JUMPI INVALID JUMPDEST PUSH1 0x20 MUL PUSH1 0x20 ADD ADD MLOAD PUSH1 0x0 EQ ISZERO PUSH2 0x24E1 JUMPI PUSH2 0x259F JUMP JUMPDEST PUSH1 0x0 DUP1 PUSH2 0x2503 PUSH1 0x7 DUP13 DUP6 DUP2 MLOAD DUP2 LT PUSH2 0x24F5 JUMPI INVALID JUMPDEST PUSH1 0x20 MUL PUSH1 0x20 ADD ADD MLOAD DUP10 PUSH2 0x2854 JUMP JUMPDEST SWAP2 POP SWAP2 POP DUP1 ISZERO PUSH2 0x2514 JUMPI POP POP PUSH2 0x259F JUMP JUMPDEST PUSH1 0x98 PUSH2 0x2532 DUP12 DUP6 DUP2 MLOAD DUP2 LT PUSH2 0x2525 JUMPI INVALID JUMPDEST PUSH1 0x20 MUL PUSH1 0x20 ADD ADD MLOAD PUSH2 0x233F JUMP JUMPDEST PUSH11 0xFFFFFFFFFFFFFFFFFFFFFF AND SWAP1 SHL PUSH1 0xF0 DUP4 SWAP1 SHL PUSH1 0xF8 PUSH1 0x0 DUP14 DUP8 DUP2 MLOAD DUP2 LT PUSH2 0x2556 JUMPI INVALID JUMPDEST PUSH1 0x20 MUL PUSH1 0x20 ADD ADD MLOAD SGT PUSH2 0x256A JUMPI PUSH1 0x0 PUSH2 0x256D JUMP JUMPDEST PUSH1 0x1 JUMPDEST PUSH1 0x5 DUP2 GT ISZERO PUSH2 0x2578 JUMPI INVALID JUMPDEST SWAP1 SHL OR OR PUSH1 0x0 SHL DUP5 DUP7 DUP2 MLOAD DUP2 LT PUSH2 0x258B JUMPI INVALID JUMPDEST PUSH1 0x20 SWAP1 DUP2 MUL SWAP2 SWAP1 SWAP2 ADD ADD MSTORE POP POP PUSH1 0x1 SWAP1 SWAP3 ADD SWAP2 JUMPDEST PUSH1 0x1 ADD PUSH2 0x24B7 JUMP JUMPDEST POP DUP1 MLOAD DUP3 LT ISZERO PUSH2 0x2658 JUMPI PUSH1 0x0 DUP3 PUSH1 0x1 PUSH1 0x1 PUSH1 0x40 SHL SUB DUP2 GT DUP1 ISZERO PUSH2 0x25C9 JUMPI PUSH1 0x0 DUP1 REVERT JUMPDEST POP PUSH1 0x40 MLOAD SWAP1 DUP1 DUP3 MSTORE DUP1 PUSH1 0x20 MUL PUSH1 0x20 ADD DUP3 ADD PUSH1 0x40 MSTORE DUP1 ISZERO PUSH2 0x25F3 JUMPI DUP2 PUSH1 0x20 ADD PUSH1 0x20 DUP3 MUL DUP1 CALLDATASIZE DUP4 CALLDATACOPY ADD SWAP1 POP JUMPDEST POP SWAP1 POP PUSH1 0x0 JUMPDEST DUP4 DUP2 LT ISZERO PUSH2 0x2634 JUMPI DUP3 DUP2 DUP2 MLOAD DUP2 LT PUSH2 0x260D JUMPI INVALID JUMPDEST PUSH1 0x20 MUL PUSH1 0x20 ADD ADD MLOAD DUP3 DUP3 DUP2 MLOAD DUP2 LT PUSH2 0x2621 JUMPI INVALID JUMPDEST PUSH1 0x20 SWAP1 DUP2 MUL SWAP2 SWAP1 SWAP2 ADD ADD MSTORE PUSH1 0x1 ADD PUSH2 0x25F9 JUMP JUMPDEST POP DUP1 DUP5 PUSH1 0x0 DUP2 MLOAD DUP2 LT PUSH2 0x2643 JUMPI INVALID JUMPDEST PUSH1 0x20 MUL PUSH1 0x20 ADD ADD MLOAD PUSH1 0xC0 ADD DUP2 SWAP1 MSTORE POP POP PUSH2 0x2676 JUMP JUMPDEST DUP1 DUP4 PUSH1 0x0 DUP2 MLOAD DUP2 LT PUSH2 0x2666 JUMPI INVALID JUMPDEST PUSH1 0x20 MUL PUSH1 0x20 ADD ADD MLOAD PUSH1 0xC0 ADD DUP2 SWAP1 MSTORE POP JUMPDEST PUSH1 0x40 MLOAD PUSH4 0x276B64B PUSH1 0xE0 SHL DUP2 MSTORE PUSH1 0x1 PUSH1 0x1 PUSH1 0xA0 SHL SUB PUSH32 0x0 AND SWAP1 PUSH4 0x276B64B SWAP1 PUSH2 0x26C4 SWAP1 ADDRESS SWAP1 DUP8 SWAP1 PUSH1 0x4 ADD PUSH2 0x3722 JUMP JUMPDEST PUSH1 0x0 PUSH1 0x40 MLOAD DUP1 DUP4 SUB DUP2 PUSH1 0x0 DUP8 DUP1 EXTCODESIZE ISZERO DUP1 ISZERO PUSH2 0x26DE JUMPI PUSH1 0x0 DUP1 REVERT JUMPDEST POP GAS CALL ISZERO DUP1 ISZERO PUSH2 0x26F2 JUMPI RETURNDATASIZE PUSH1 0x0 DUP1 RETURNDATACOPY RETURNDATASIZE PUSH1 0x0 REVERT JUMPDEST POP POP POP POP POP POP POP POP POP POP POP POP POP JUMP JUMPDEST PUSH1 0x0 DUP3 DUP3 GT ISZERO PUSH2 0x2758 JUMPI PUSH1 0x40 DUP1 MLOAD PUSH3 0x461BCD PUSH1 0xE5 SHL DUP2 MSTORE PUSH1 0x20 PUSH1 0x4 DUP3 ADD MSTORE PUSH1 0x1E PUSH1 0x24 DUP3 ADD MSTORE PUSH32 0x536166654D6174683A207375627472616374696F6E206F766572666C6F770000 PUSH1 0x44 DUP3 ADD MSTORE SWAP1 MLOAD SWAP1 DUP2 SWAP1 SUB PUSH1 0x64 ADD SWAP1 REVERT JUMPDEST POP SWAP1 SUB SWAP1 JUMP JUMPDEST PUSH1 0x0 DUP1 PUSH32 0x0 PUSH1 0x1 PUSH1 0x1 PUSH1 0xA0 SHL SUB AND PUSH4 0x4EBAD18E DUP5 PUSH1 0x40 MLOAD DUP3 PUSH4 0xFFFFFFFF AND PUSH1 0xE0 SHL DUP2 MSTORE PUSH1 0x4 ADD PUSH2 0x27AD SWAP2 SWAP1 PUSH2 0x3B78 JUMP JUMPDEST PUSH2 0x140 PUSH1 0x40 MLOAD DUP1 DUP4 SUB DUP2 DUP7 DUP1 EXTCODESIZE ISZERO DUP1 ISZERO PUSH2 0x27C6 JUMPI PUSH1 0x0 DUP1 REVERT JUMPDEST POP GAS STATICCALL ISZERO DUP1 ISZERO PUSH2 0x27DA JUMPI RETURNDATASIZE PUSH1 0x0 DUP1 RETURNDATACOPY RETURNDATASIZE PUSH1 0x0 REVERT JUMPDEST POP POP POP POP PUSH1 0x40 MLOAD RETURNDATASIZE PUSH1 0x1F NOT PUSH1 0x1F DUP3 ADD AND DUP3 ADD DUP1 PUSH1 0x40 MSTORE POP DUP2 ADD SWAP1 PUSH2 0x27FE SWAP2 SWAP1 PUSH2 0x3540 JUMP JUMPDEST DUP1 MLOAD SWAP1 SWAP3 POP PUSH1 0x1 PUSH1 0x1 PUSH1 0xA0 SHL SUB AND ISZERO SWAP1 POP PUSH2 0x283F JUMPI DUP1 MLOAD PUSH2 0x283F SWAP1 PUSH32 0x0 PUSH2 0x1FD5 JUMP JUMPDEST MLOAD SWAP3 SWAP2 POP POP JUMP JUMPDEST PUSH1 0x0 PUSH2 0x1D36 PUSH1 0x0 NOT DUP4 PUSH2 0x28E3 JUMP JUMPDEST PUSH1 0x0 DUP1 PUSH1 0x0 DUP6 GT PUSH2 0x2864 JUMPI PUSH1 0x0 DUP1 REVERT JUMPDEST PUSH1 0x7 DUP6 GT ISZERO PUSH2 0x2872 JUMPI PUSH1 0x0 DUP1 REVERT JUMPDEST PUSH1 0x0 PUSH2 0x287D DUP5 PUSH2 0x2931 JUMP JUMPDEST SWAP1 POP PUSH1 0x1 JUMPDEST DUP7 DUP2 GT PUSH2 0x28D5 JUMPI PUSH1 0x0 PUSH2 0x289E PUSH2 0x2897 DUP4 PUSH2 0x294F JUMP JUMPDEST DUP5 SWAP1 PUSH2 0x29F3 JUMP JUMPDEST SWAP1 POP DUP7 DUP2 EQ ISZERO PUSH2 0x28B6 JUMPI POP SWAP3 POP PUSH1 0x0 SWAP2 POP PUSH2 0x28DB SWAP1 POP JUMP JUMPDEST DUP7 DUP2 GT ISZERO PUSH2 0x28CC JUMPI POP SWAP3 POP PUSH1 0x1 SWAP2 POP PUSH2 0x28DB SWAP1 POP JUMP JUMPDEST POP PUSH1 0x1 ADD PUSH2 0x2882 JUMP JUMPDEST POP PUSH1 0x0 DUP1 REVERT JUMPDEST SWAP4 POP SWAP4 SWAP2 POP POP JUMP JUMPDEST DUP2 DUP2 MUL PUSH1 0x0 NOT DUP4 EQ ISZERO PUSH2 0x2913 JUMPI DUP2 ISZERO DUP1 PUSH2 0x2905 JUMPI POP DUP3 DUP3 DUP3 DUP2 PUSH2 0x2902 JUMPI INVALID JUMPDEST SDIV EQ JUMPDEST PUSH2 0x290E JUMPI PUSH1 0x0 DUP1 REVERT JUMPDEST PUSH2 0x1BAF JUMP JUMPDEST DUP3 ISZERO DUP1 PUSH2 0x2928 JUMPI POP DUP2 DUP4 DUP3 DUP2 PUSH2 0x2925 JUMPI INVALID JUMPDEST SDIV EQ JUMPDEST PUSH2 0x1BAF JUMPI PUSH1 0x0 DUP1 REVERT JUMPDEST PUSH1 0x0 PUSH3 0x76A700 DUP3 LT ISZERO PUSH2 0x2943 JUMPI PUSH1 0x0 DUP1 REVERT JUMPDEST POP PUSH3 0x76A700 DUP2 MOD SWAP1 SUB SWAP1 JUMP JUMPDEST PUSH1 0x0 DUP2 PUSH1 0x1 EQ ISZERO PUSH2 0x2964 JUMPI POP PUSH3 0x76A700 PUSH2 0x1D39 JUMP JUMPDEST DUP2 PUSH1 0x2 EQ ISZERO PUSH2 0x2977 JUMPI POP PUSH3 0xED4E00 PUSH2 0x1D39 JUMP JUMPDEST DUP2 PUSH1 0x3 EQ ISZERO PUSH2 0x298B JUMPI POP PUSH4 0x1DA9C00 PUSH2 0x1D39 JUMP JUMPDEST DUP2 PUSH1 0x4 EQ ISZERO PUSH2 0x299F JUMPI POP PUSH4 0x3B53800 PUSH2 0x1D39 JUMP JUMPDEST DUP2 PUSH1 0x5 EQ ISZERO PUSH2 0x29B3 JUMPI POP PUSH4 0x9450C00 PUSH2 0x1D39 JUMP JUMPDEST DUP2 PUSH1 0x6 EQ ISZERO PUSH2 0x29C7 JUMPI POP PUSH4 0x128A1800 PUSH2 0x1D39 JUMP JUMPDEST DUP2 PUSH1 0x7 EQ ISZERO PUSH2 0x29DB JUMPI POP PUSH4 0x25143000 PUSH2 0x1D39 JUMP JUMPDEST PUSH1 0x40 MLOAD PUSH3 0x461BCD PUSH1 0xE5 SHL DUP2 MSTORE PUSH1 0x4 ADD PUSH2 0x8A8 SWAP1 PUSH2 0x3B1C JUMP JUMPDEST PUSH1 0x0 DUP3 DUP3 ADD DUP4 DUP2 LT ISZERO PUSH2 0x1BAC JUMPI PUSH1 0x0 DUP1 REVERT JUMPDEST PUSH1 0x40 DUP1 MLOAD PUSH1 0xC0 DUP2 ADD SWAP1 SWAP2 MSTORE DUP1 PUSH1 0x0 DUP2 MSTORE PUSH1 0x0 PUSH1 0x20 DUP3 ADD DUP2 SWAP1 MSTORE PUSH1 0x40 DUP3 ADD DUP2 SWAP1 MSTORE PUSH1 0x60 DUP3 ADD DUP2 SWAP1 MSTORE PUSH1 0x80 DUP3 ADD DUP2 SWAP1 MSTORE PUSH1 0xA0 SWAP1 SWAP2 ADD MSTORE SWAP1 JUMP JUMPDEST PUSH1 0x40 DUP1 MLOAD PUSH1 0xE0 DUP2 ADD SWAP1 SWAP2 MSTORE DUP1 PUSH1 0x0 DUP2 MSTORE PUSH1 0x20 ADD PUSH1 0x0 PUSH2 0xFFFF AND DUP2 MSTORE PUSH1 0x20 ADD PUSH1 0x0 DUP2 MSTORE PUSH1 0x20 ADD PUSH1 0x0 DUP2 MSTORE PUSH1 0x20 ADD PUSH1 0x0 ISZERO ISZERO DUP2 MSTORE PUSH1 0x20 ADD PUSH1 0x0 ISZERO ISZERO DUP2 MSTORE PUSH1 0x20 ADD PUSH1 0x60 DUP2 MSTORE POP SWAP1 JUMP JUMPDEST DUP1 MLOAD PUSH2 0x1D39 DUP2 PUSH2 0x3C83 JUMP JUMPDEST PUSH1 0x0 DUP1 DUP4 PUSH1 0x1F DUP5 ADD SLT PUSH2 0x2A9E JUMPI DUP2 DUP3 REVERT JUMPDEST POP DUP2 CALLDATALOAD PUSH1 0x1 PUSH1 0x1 PUSH1 0x40 SHL SUB DUP2 GT ISZERO PUSH2 0x2AB4 JUMPI DUP2 DUP3 REVERT JUMPDEST PUSH1 0x20 DUP4 ADD SWAP2 POP DUP4 PUSH1 0x20 DUP1 DUP4 MUL DUP6 ADD ADD GT ISZERO PUSH2 0x2ACE JUMPI PUSH1 0x0 DUP1 REVERT JUMPDEST SWAP3 POP SWAP3 SWAP1 POP JUMP JUMPDEST PUSH1 0x0 DUP3 PUSH1 0x1F DUP4 ADD SLT PUSH2 0x2AE5 JUMPI DUP1 DUP2 REVERT JUMPDEST DUP2 MLOAD PUSH1 0x20 PUSH2 0x2AFA PUSH2 0x2AF5 DUP4 PUSH2 0x3C19 JUMP JUMPDEST PUSH2 0x3BF6 JUMP JUMPDEST DUP3 DUP2 MSTORE DUP2 DUP2 ADD SWAP1 DUP6 DUP4 ADD DUP4 DUP6 MUL DUP8 ADD DUP5 ADD DUP9 LT ISZERO PUSH2 0x2B16 JUMPI DUP6 DUP7 REVERT JUMPDEST DUP6 JUMPDEST DUP6 DUP2 LT ISZERO PUSH2 0x2B34 JUMPI DUP2 MLOAD DUP5 MSTORE SWAP3 DUP5 ADD SWAP3 SWAP1 DUP5 ADD SWAP1 PUSH1 0x1 ADD PUSH2 0x2B18 JUMP JUMPDEST POP SWAP1 SWAP8 SWAP7 POP POP POP POP POP POP POP JUMP JUMPDEST DUP1 CALLDATALOAD PUSH2 0x1D39 DUP2 PUSH2 0x3C98 JUMP JUMPDEST DUP1 MLOAD PUSH2 0x1D39 DUP2 PUSH2 0x3C98 JUMP JUMPDEST PUSH1 0x0 DUP1 DUP4 PUSH1 0x1F DUP5 ADD SLT PUSH2 0x2B68 JUMPI DUP2 DUP3 REVERT JUMPDEST POP DUP2 CALLDATALOAD PUSH1 0x1 PUSH1 0x1 PUSH1 0x40 SHL SUB DUP2 GT ISZERO PUSH2 0x2B7E JUMPI DUP2 DUP3 REVERT JUMPDEST PUSH1 0x20 DUP4 ADD SWAP2 POP DUP4 PUSH1 0x20 DUP3 DUP6 ADD ADD GT ISZERO PUSH2 0x2ACE JUMPI PUSH1 0x0 DUP1 REVERT JUMPDEST PUSH1 0x0 DUP3 PUSH1 0x1F DUP4 ADD SLT PUSH2 0x2BA6 JUMPI DUP1 DUP2 REVERT JUMPDEST DUP2 CALLDATALOAD PUSH2 0x2BB4 PUSH2 0x2AF5 DUP3 PUSH2 0x3C36 JUMP JUMPDEST DUP2 DUP2 MSTORE DUP5 PUSH1 0x20 DUP4 DUP7 ADD ADD GT ISZERO PUSH2 0x2BC8 JUMPI DUP3 DUP4 REVERT JUMPDEST DUP2 PUSH1 0x20 DUP6 ADD PUSH1 0x20 DUP4 ADD CALLDATACOPY SWAP1 DUP2 ADD PUSH1 0x20 ADD SWAP2 SWAP1 SWAP2 MSTORE SWAP3 SWAP2 POP POP JUMP JUMPDEST PUSH1 0x0 DUP3 PUSH1 0x1F DUP4 ADD SLT PUSH2 0x2BF2 JUMPI DUP1 DUP2 REVERT JUMPDEST DUP2 MLOAD PUSH2 0x2C00 PUSH2 0x2AF5 DUP3 PUSH2 0x3C36 JUMP JUMPDEST DUP2 DUP2 MSTORE DUP5 PUSH1 0x20 DUP4 DUP7 ADD ADD GT ISZERO PUSH2 0x2C14 JUMPI DUP3 DUP4 REVERT JUMPDEST PUSH2 0x2C25 DUP3 PUSH1 0x20 DUP4 ADD PUSH1 0x20 DUP8 ADD PUSH2 0x3C57 JUMP JUMPDEST SWAP5 SWAP4 POP POP POP POP JUMP JUMPDEST DUP1 MLOAD PUSH1 0x4 DUP2 LT PUSH2 0x1D39 JUMPI PUSH1 0x0 DUP1 REVERT JUMPDEST PUSH1 0x0 PUSH1 0xA0 DUP3 DUP5 SUB SLT ISZERO PUSH2 0x2C4D JUMPI DUP1 DUP2 REVERT JUMPDEST PUSH1 0x40 MLOAD PUSH1 0xA0 DUP2 ADD DUP2 DUP2 LT PUSH1 0x1 PUSH1 0x1 PUSH1 0x40 SHL SUB DUP3 GT OR ISZERO PUSH2 0x2C69 JUMPI INVALID JUMPDEST DUP1 PUSH1 0x40 MSTORE POP DUP1 SWAP2 POP DUP3 MLOAD PUSH2 0x2C7C DUP2 PUSH2 0x3C83 JUMP JUMPDEST DUP2 MSTORE PUSH1 0x20 DUP4 ADD MLOAD PUSH2 0x2C8C DUP2 PUSH2 0x3C98 JUMP JUMPDEST PUSH1 0x20 DUP3 ADD MSTORE PUSH1 0x40 DUP4 DUP2 ADD MLOAD SWAP1 DUP3 ADD MSTORE PUSH1 0x60 DUP4 ADD MLOAD PUSH1 0x6 DUP2 LT PUSH2 0x2CAD JUMPI PUSH1 0x0 DUP1 REVERT JUMPDEST PUSH1 0x60 DUP3 ADD MSTORE PUSH1 0x80 SWAP3 DUP4 ADD MLOAD SWAP3 ADD SWAP2 SWAP1 SWAP2 MSTORE SWAP2 SWAP1 POP JUMP JUMPDEST PUSH1 0x0 PUSH1 0x80 DUP3 DUP5 SUB SLT ISZERO PUSH2 0x2CD4 JUMPI DUP1 DUP2 REVERT JUMPDEST PUSH1 0x40 DUP1 MLOAD PUSH1 0x80 DUP2 ADD PUSH1 0x1 PUSH1 0x1 PUSH1 0x40 SHL SUB DUP3 DUP3 LT DUP2 DUP4 GT OR ISZERO PUSH2 0x2CF2 JUMPI INVALID JUMPDEST DUP2 DUP5 MSTORE DUP3 SWAP5 POP DUP6 MLOAD SWAP2 POP DUP1 DUP3 GT ISZERO PUSH2 0x2D09 JUMPI PUSH1 0x0 DUP1 REVERT JUMPDEST SWAP1 DUP6 ADD SWAP1 PUSH1 0xE0 DUP3 DUP9 SUB SLT ISZERO PUSH2 0x2D1D JUMPI PUSH1 0x0 DUP1 REVERT JUMPDEST PUSH2 0x2D27 PUSH1 0xE0 PUSH2 0x3BF6 JUMP JUMPDEST PUSH2 0x2D30 DUP4 PUSH2 0x2C2D JUMP JUMPDEST DUP2 MSTORE PUSH2 0x2D3E PUSH1 0x20 DUP5 ADD PUSH2 0x2A82 JUMP JUMPDEST PUSH1 0x20 DUP3 ADD MSTORE PUSH2 0x2D4E DUP6 DUP5 ADD PUSH2 0x2A82 JUMP JUMPDEST DUP6 DUP3 ADD MSTORE PUSH1 0x60 DUP4 ADD MLOAD PUSH1 0x60 DUP3 ADD MSTORE PUSH1 0x80 DUP4 ADD MLOAD PUSH1 0x80 DUP3 ADD MSTORE PUSH1 0xA0 DUP4 ADD MLOAD PUSH1 0xA0 DUP3 ADD MSTORE PUSH1 0xC0 DUP4 ADD MLOAD DUP3 DUP2 GT ISZERO PUSH2 0x2D82 JUMPI PUSH1 0x0 DUP1 REVERT JUMPDEST PUSH2 0x2D8E DUP10 DUP3 DUP7 ADD PUSH2 0x2BE2 JUMP JUMPDEST PUSH1 0xC0 DUP4 ADD MSTORE POP DUP4 MSTORE POP PUSH2 0x2DA5 SWAP1 POP PUSH1 0x20 DUP6 ADD PUSH2 0x2DE9 JUMP JUMPDEST PUSH1 0x20 DUP3 ADD MSTORE PUSH2 0x2DB5 DUP3 DUP6 ADD PUSH2 0x2B4C JUMP JUMPDEST DUP3 DUP3 ADD MSTORE PUSH2 0x2DC5 PUSH1 0x60 DUP6 ADD PUSH2 0x2DF4 JUMP JUMPDEST PUSH1 0x60 DUP3 ADD MSTORE POP POP SWAP3 SWAP2 POP POP JUMP JUMPDEST DUP1 MLOAD PUSH1 0x1 PUSH1 0x1 PUSH1 0x80 SHL SUB DUP2 AND DUP2 EQ PUSH2 0x1D39 JUMPI PUSH1 0x0 DUP1 REVERT JUMPDEST DUP1 MLOAD PUSH2 0x1D39 DUP2 PUSH2 0x3CA6 JUMP JUMPDEST DUP1 MLOAD PUSH4 0xFFFFFFFF DUP2 AND DUP2 EQ PUSH2 0x1D39 JUMPI PUSH1 0x0 DUP1 REVERT JUMPDEST DUP1 CALLDATALOAD PUSH1 0xFF DUP2 AND DUP2 EQ PUSH2 0x1D39 JUMPI PUSH1 0x0 DUP1 REVERT JUMPDEST DUP1 MLOAD PUSH1 0x1 PUSH1 0x1 PUSH1 0x60 SHL SUB DUP2 AND DUP2 EQ PUSH2 0x1D39 JUMPI PUSH1 0x0 DUP1 REVERT JUMPDEST PUSH1 0x0 PUSH1 0x20 DUP3 DUP5 SUB SLT ISZERO PUSH2 0x2E41 JUMPI DUP1 DUP2 REVERT JUMPDEST DUP2 CALLDATALOAD PUSH2 0x1BAC DUP2 PUSH2 0x3C83 JUMP JUMPDEST PUSH1 0x0 PUSH1 0x20 DUP3 DUP5 SUB SLT ISZERO PUSH2 0x2E5D JUMPI DUP1 DUP2 REVERT JUMPDEST DUP2 MLOAD PUSH2 0x1BAC DUP2 PUSH2 0x3C83 JUMP JUMPDEST PUSH1 0x0 DUP1 PUSH1 0x40 DUP4 DUP6 SUB SLT ISZERO PUSH2 0x2E7A JUMPI DUP1 DUP2 REVERT JUMPDEST DUP3 CALLDATALOAD PUSH2 0x2E85 DUP2 PUSH2 0x3C83 JUMP JUMPDEST SWAP5 PUSH1 0x20 SWAP4 SWAP1 SWAP4 ADD CALLDATALOAD SWAP4 POP POP POP JUMP JUMPDEST PUSH1 0x0 DUP1 PUSH1 0x0 DUP1 PUSH1 0x0 DUP1 PUSH1 0xA0 DUP8 DUP10 SUB SLT ISZERO PUSH2 0x2EAB JUMPI DUP2 DUP3 REVERT JUMPDEST DUP7 CALLDATALOAD PUSH2 0x2EB6 DUP2 PUSH2 0x3C83 JUMP JUMPDEST SWAP6 POP PUSH1 0x20 DUP8 ADD CALLDATALOAD SWAP5 POP PUSH1 0x40 DUP8 ADD CALLDATALOAD PUSH1 0x1 PUSH1 0x1 PUSH1 0x40 SHL SUB DUP2 GT ISZERO PUSH2 0x2ED7 JUMPI DUP3 DUP4 REVERT JUMPDEST PUSH2 0x2EE3 DUP10 DUP3 DUP11 ADD PUSH2 0x2B57 JUMP JUMPDEST SWAP1 SWAP6 POP SWAP4 POP POP PUSH1 0x60 DUP8 ADD CALLDATALOAD PUSH2 0x2EF7 DUP2 PUSH2 0x3C83 JUMP JUMPDEST SWAP2 POP PUSH1 0x80 DUP8 ADD CALLDATALOAD PUSH2 0x2F07 DUP2 PUSH2 0x3C83 JUMP JUMPDEST DUP1 SWAP2 POP POP SWAP3 SWAP6 POP SWAP3 SWAP6 POP SWAP3 SWAP6 JUMP JUMPDEST PUSH1 0x0 DUP1 PUSH1 0x0 PUSH1 0x40 DUP5 DUP7 SUB SLT ISZERO PUSH2 0x2F29 JUMPI DUP1 DUP2 REVERT JUMPDEST DUP4 CALLDATALOAD PUSH1 0x1 PUSH1 0x1 PUSH1 0x40 SHL SUB DUP2 GT ISZERO PUSH2 0x2F3E JUMPI DUP2 DUP3 REVERT JUMPDEST PUSH2 0x2F4A DUP7 DUP3 DUP8 ADD PUSH2 0x2A8D JUMP JUMPDEST SWAP1 SWAP5 POP SWAP3 POP POP PUSH1 0x20 DUP5 ADD CALLDATALOAD PUSH2 0x2F5E DUP2 PUSH2 0x3C83 JUMP JUMPDEST DUP1 SWAP2 POP POP SWAP3 POP SWAP3 POP SWAP3 JUMP JUMPDEST PUSH1 0x0 DUP1 PUSH1 0x0 DUP1 PUSH1 0x0 DUP1 PUSH1 0x0 DUP1 PUSH1 0x0 PUSH1 0xA0 DUP11 DUP13 SUB SLT ISZERO PUSH2 0x2F86 JUMPI DUP7 DUP8 REVERT JUMPDEST DUP10 CALLDATALOAD PUSH1 0x1 PUSH1 0x1 PUSH1 0x40 SHL SUB DUP1 DUP3 GT ISZERO PUSH2 0x2F9C JUMPI DUP9 DUP10 REVERT JUMPDEST PUSH2 0x2FA8 DUP14 DUP4 DUP15 ADD PUSH2 0x2A8D JUMP JUMPDEST SWAP1 SWAP12 POP SWAP10 POP PUSH1 0x20 DUP13 ADD CALLDATALOAD SWAP2 POP DUP1 DUP3 GT ISZERO PUSH2 0x2FC0 JUMPI DUP9 DUP10 REVERT JUMPDEST PUSH2 0x2FCC DUP14 DUP4 DUP15 ADD PUSH2 0x2A8D JUMP JUMPDEST SWAP1 SWAP10 POP SWAP8 POP PUSH1 0x40 DUP13 ADD CALLDATALOAD SWAP2 POP DUP1 DUP3 GT ISZERO PUSH2 0x2FE4 JUMPI DUP5 DUP6 REVERT JUMPDEST PUSH2 0x2FF0 DUP14 DUP4 DUP15 ADD PUSH2 0x2A8D JUMP JUMPDEST SWAP1 SWAP8 POP SWAP6 POP PUSH1 0x60 DUP13 ADD CALLDATALOAD SWAP2 POP PUSH2 0x3005 DUP3 PUSH2 0x3C83 JUMP JUMPDEST SWAP1 SWAP4 POP PUSH1 0x80 DUP12 ADD CALLDATALOAD SWAP1 DUP1 DUP3 GT ISZERO PUSH2 0x301A JUMPI DUP4 DUP5 REVERT JUMPDEST POP PUSH2 0x3027 DUP13 DUP3 DUP14 ADD PUSH2 0x2B57 JUMP JUMPDEST SWAP2 POP DUP1 SWAP4 POP POP DUP1 SWAP2 POP POP SWAP3 SWAP6 SWAP9 POP SWAP3 SWAP6 SWAP9 POP SWAP3 SWAP6 SWAP9 JUMP JUMPDEST PUSH1 0x0 DUP1 PUSH1 0x40 DUP4 DUP6 SUB SLT ISZERO PUSH2 0x3050 JUMPI DUP2 DUP3 REVERT JUMPDEST DUP3 MLOAD PUSH1 0x1 PUSH1 0x1 PUSH1 0x40 SHL SUB DUP2 GT ISZERO PUSH2 0x3065 JUMPI DUP3 DUP4 REVERT JUMPDEST PUSH2 0x3071 DUP6 DUP3 DUP7 ADD PUSH2 0x2AD5 JUMP JUMPDEST SWAP3 POP POP PUSH1 0x20 DUP4 ADD MLOAD SWAP1 POP SWAP3 POP SWAP3 SWAP1 POP JUMP JUMPDEST PUSH1 0x0 DUP1 PUSH1 0x20 DUP4 DUP6 SUB SLT ISZERO PUSH2 0x3094 JUMPI DUP2 DUP3 REVERT JUMPDEST DUP3 CALLDATALOAD PUSH1 0x1 PUSH1 0x1 PUSH1 0x40 SHL SUB DUP2 GT ISZERO PUSH2 0x30A9 JUMPI DUP3 DUP4 REVERT JUMPDEST PUSH2 0x30B5 DUP6 DUP3 DUP7 ADD PUSH2 0x2A8D JUMP JUMPDEST SWAP1 SWAP7 SWAP1 SWAP6 POP SWAP4 POP POP POP POP JUMP JUMPDEST PUSH1 0x0 PUSH1 0x20 DUP3 DUP5 SUB SLT ISZERO PUSH2 0x30D2 JUMPI DUP1 DUP2 REVERT JUMPDEST DUP2 MLOAD PUSH2 0x1BAC DUP2 PUSH2 0x3C98 JUMP JUMPDEST PUSH1 0x0 DUP1 PUSH1 0x40 DUP4 DUP6 SUB SLT ISZERO PUSH2 0x30EF JUMPI DUP2 DUP3 REVERT JUMPDEST DUP3 MLOAD SWAP2 POP PUSH1 0x20 DUP4 ADD MLOAD PUSH1 0x1 PUSH1 0x1 PUSH1 0x40 SHL SUB DUP2 GT ISZERO PUSH2 0x310B JUMPI DUP2 DUP3 REVERT JUMPDEST PUSH2 0x3117 DUP6 DUP3 DUP7 ADD PUSH2 0x2AD5 JUMP JUMPDEST SWAP2 POP POP SWAP3 POP SWAP3 SWAP1 POP JUMP JUMPDEST PUSH1 0x0 DUP1 PUSH1 0x40 DUP4 DUP6 SUB SLT ISZERO PUSH2 0x3133 JUMPI DUP2 DUP3 REVERT JUMPDEST POP POP DUP1 MLOAD PUSH1 0x20 SWAP1 SWAP2 ADD MLOAD SWAP1 SWAP3 SWAP1 SWAP2 POP JUMP JUMPDEST PUSH1 0x0 DUP1 PUSH1 0x0 PUSH1 0x60 DUP5 DUP7 SUB SLT ISZERO PUSH2 0x3158 JUMPI DUP1 DUP2 REVERT JUMPDEST DUP4 MLOAD SWAP3 POP PUSH1 0x20 DUP5 ADD MLOAD SWAP2 POP PUSH1 0x40 DUP5 ADD MLOAD SWAP1 POP SWAP3 POP SWAP3 POP SWAP3 JUMP JUMPDEST PUSH1 0x0 PUSH1 0x20 DUP3 DUP5 SUB SLT ISZERO PUSH2 0x3182 JUMPI DUP1 DUP2 REVERT JUMPDEST DUP2 MLOAD PUSH1 0x1 PUSH1 0x1 PUSH1 0x40 SHL SUB DUP1 DUP3 GT ISZERO PUSH2 0x3198 JUMPI DUP3 DUP4 REVERT JUMPDEST SWAP1 DUP4 ADD SWAP1 PUSH1 0xE0 DUP3 DUP7 SUB SLT ISZERO PUSH2 0x31AB JUMPI DUP3 DUP4 REVERT JUMPDEST PUSH2 0x31B5 PUSH1 0xE0 PUSH2 0x3BF6 JUMP JUMPDEST PUSH2 0x31BE DUP4 PUSH2 0x2A82 JUMP JUMPDEST DUP2 MSTORE PUSH2 0x31CC PUSH1 0x20 DUP5 ADD PUSH2 0x2DE9 JUMP JUMPDEST PUSH1 0x20 DUP3 ADD MSTORE PUSH2 0x31DD PUSH1 0x40 DUP5 ADD PUSH2 0x2DE9 JUMP JUMPDEST PUSH1 0x40 DUP3 ADD MSTORE PUSH2 0x31EE PUSH1 0x60 DUP5 ADD PUSH2 0x2A82 JUMP JUMPDEST PUSH1 0x60 DUP3 ADD MSTORE PUSH2 0x31FF PUSH1 0x80 DUP5 ADD PUSH2 0x2DD2 JUMP JUMPDEST PUSH1 0x80 DUP3 ADD MSTORE PUSH2 0x3210 PUSH1 0xA0 DUP5 ADD PUSH2 0x2E19 JUMP JUMPDEST PUSH1 0xA0 DUP3 ADD MSTORE PUSH1 0xC0 DUP4 ADD MLOAD DUP3 DUP2 GT ISZERO PUSH2 0x3226 JUMPI DUP5 DUP6 REVERT JUMPDEST PUSH2 0x3232 DUP8 DUP3 DUP7 ADD PUSH2 0x2CC3 JUMP JUMPDEST PUSH1 0xC0 DUP4 ADD MSTORE POP SWAP6 SWAP5 POP POP POP POP POP JUMP JUMPDEST PUSH1 0x0 PUSH1 0x20 DUP3 DUP5 SUB SLT ISZERO PUSH2 0x3252 JUMPI DUP1 DUP2 REVERT JUMPDEST DUP2 MLOAD PUSH1 0x1 PUSH1 0x1 PUSH1 0x40 SHL SUB DUP1 DUP3 GT ISZERO PUSH2 0x3268 JUMPI DUP3 DUP4 REVERT JUMPDEST DUP2 DUP5 ADD SWAP2 POP PUSH2 0x100 DUP1 DUP4 DUP8 SUB SLT ISZERO PUSH2 0x327E JUMPI DUP4 DUP5 REVERT JUMPDEST PUSH2 0x3287 DUP2 PUSH2 0x3BF6 JUMP JUMPDEST SWAP1 POP PUSH2 0x3292 DUP4 PUSH2 0x2A82 JUMP JUMPDEST DUP2 MSTORE PUSH2 0x32A0 PUSH1 0x20 DUP5 ADD PUSH2 0x2DE9 JUMP JUMPDEST PUSH1 0x20 DUP3 ADD MSTORE PUSH2 0x32B1 PUSH1 0x40 DUP5 ADD PUSH2 0x2DE9 JUMP JUMPDEST PUSH1 0x40 DUP3 ADD MSTORE PUSH2 0x32C2 PUSH1 0x60 DUP5 ADD PUSH2 0x2A82 JUMP JUMPDEST PUSH1 0x60 DUP3 ADD MSTORE PUSH2 0x32D3 PUSH1 0x80 DUP5 ADD PUSH2 0x2A82 JUMP JUMPDEST PUSH1 0x80 DUP3 ADD MSTORE PUSH1 0xA0 DUP4 ADD MLOAD DUP3 DUP2 GT ISZERO PUSH2 0x32E9 JUMPI DUP5 DUP6 REVERT JUMPDEST PUSH2 0x32F5 DUP8 DUP3 DUP7 ADD PUSH2 0x2AD5 JUMP JUMPDEST PUSH1 0xA0 DUP4 ADD MSTORE POP PUSH1 0xC0 DUP4 ADD MLOAD DUP3 DUP2 GT ISZERO PUSH2 0x330C JUMPI DUP5 DUP6 REVERT JUMPDEST PUSH2 0x3318 DUP8 DUP3 DUP7 ADD PUSH2 0x2AD5 JUMP JUMPDEST PUSH1 0xC0 DUP4 ADD MSTORE POP PUSH1 0xE0 DUP4 ADD MLOAD DUP3 DUP2 GT ISZERO PUSH2 0x332F JUMPI DUP5 DUP6 REVERT JUMPDEST PUSH2 0x333B DUP8 DUP3 DUP7 ADD PUSH2 0x2CC3 JUMP JUMPDEST PUSH1 0xE0 DUP4 ADD MSTORE POP SWAP6 SWAP5 POP POP POP POP POP JUMP JUMPDEST PUSH1 0x0 PUSH1 0x20 DUP3 DUP5 SUB SLT ISZERO PUSH2 0x335B JUMPI DUP1 DUP2 REVERT JUMPDEST DUP2 CALLDATALOAD PUSH1 0x1 PUSH1 0x1 PUSH1 0x40 SHL SUB DUP1 DUP3 GT ISZERO PUSH2 0x3371 JUMPI DUP3 DUP4 REVERT JUMPDEST SWAP1 DUP4 ADD SWAP1 PUSH1 0xC0 DUP3 DUP7 SUB SLT ISZERO PUSH2 0x3384 JUMPI DUP3 DUP4 REVERT JUMPDEST PUSH2 0x338E PUSH1 0xC0 PUSH2 0x3BF6 JUMP JUMPDEST PUSH2 0x3397 DUP4 PUSH2 0x2E08 JUMP JUMPDEST DUP2 MSTORE PUSH2 0x33A5 PUSH1 0x20 DUP5 ADD PUSH2 0x2B41 JUMP JUMPDEST PUSH1 0x20 DUP3 ADD MSTORE PUSH2 0x33B6 PUSH1 0x40 DUP5 ADD PUSH2 0x2B41 JUMP JUMPDEST PUSH1 0x40 DUP3 ADD MSTORE PUSH2 0x33C7 PUSH1 0x60 DUP5 ADD PUSH2 0x2B41 JUMP JUMPDEST PUSH1 0x60 DUP3 ADD MSTORE PUSH1 0x80 DUP4 ADD CALLDATALOAD DUP3 DUP2 GT ISZERO PUSH2 0x33DD JUMPI DUP5 DUP6 REVERT JUMPDEST PUSH2 0x33E9 DUP8 DUP3 DUP7 ADD PUSH2 0x2B96 JUMP JUMPDEST PUSH1 0x80 DUP4 ADD MSTORE POP PUSH1 0xA0 DUP4 ADD CALLDATALOAD DUP3 DUP2 GT ISZERO PUSH2 0x3400 JUMPI DUP5 DUP6 REVERT JUMPDEST PUSH2 0x340C DUP8 DUP3 DUP7 ADD PUSH2 0x2B96 JUMP JUMPDEST PUSH1 0xA0 DUP4 ADD MSTORE POP SWAP6 SWAP5 POP POP POP POP POP JUMP JUMPDEST PUSH1 0x0 PUSH1 0x60 DUP3 DUP5 SUB SLT ISZERO PUSH2 0x342C JUMPI DUP1 DUP2 REVERT JUMPDEST PUSH1 0x40 MLOAD PUSH1 0x60 DUP2 ADD DUP2 DUP2 LT PUSH1 0x1 PUSH1 0x1 PUSH1 0x40 SHL SUB DUP3 GT OR ISZERO PUSH2 0x3448 JUMPI INVALID JUMPDEST PUSH1 0x40 MSTORE DUP3 MLOAD PUSH2 0x3456 DUP2 PUSH2 0x3C83 JUMP JUMPDEST DUP2 MSTORE PUSH1 0x20 DUP4 ADD MLOAD PUSH2 0x3466 DUP2 PUSH2 0x3CA6 JUMP JUMPDEST PUSH1 0x20 DUP3 ADD MSTORE PUSH2 0x3477 PUSH1 0x40 DUP5 ADD PUSH2 0x2E19 JUMP JUMPDEST PUSH1 0x40 DUP3 ADD MSTORE SWAP4 SWAP3 POP POP POP JUMP JUMPDEST PUSH1 0x0 PUSH1 0x20 DUP3 DUP5 SUB SLT ISZERO PUSH2 0x3494 JUMPI DUP1 DUP2 REVERT JUMPDEST DUP2 MLOAD PUSH1 0x1 PUSH1 0x1 PUSH1 0x40 SHL SUB DUP1 DUP3 GT ISZERO PUSH2 0x34AA JUMPI DUP3 DUP4 REVERT JUMPDEST SWAP1 DUP4 ADD SWAP1 PUSH1 0x80 DUP3 DUP7 SUB SLT ISZERO PUSH2 0x34BD JUMPI DUP3 DUP4 REVERT JUMPDEST PUSH1 0x40 MLOAD PUSH1 0x80 DUP2 ADD DUP2 DUP2 LT DUP4 DUP3 GT OR ISZERO PUSH2 0x34D2 JUMPI INVALID JUMPDEST PUSH1 0x40 MSTORE PUSH2 0x34DE DUP4 PUSH2 0x2A82 JUMP JUMPDEST DUP2 MSTORE PUSH2 0x34EC PUSH1 0x20 DUP5 ADD PUSH2 0x2DE9 JUMP JUMPDEST PUSH1 0x20 DUP3 ADD MSTORE PUSH1 0x40 DUP4 ADD MLOAD DUP3 DUP2 GT ISZERO PUSH2 0x3502 JUMPI DUP5 DUP6 REVERT JUMPDEST PUSH2 0x350E DUP8 DUP3 DUP7 ADD PUSH2 0x2AD5 JUMP JUMPDEST PUSH1 0x40 DUP4 ADD MSTORE POP PUSH1 0x60 DUP4 ADD MLOAD DUP3 DUP2 GT ISZERO PUSH2 0x3525 JUMPI DUP5 DUP6 REVERT JUMPDEST PUSH2 0x3531 DUP8 DUP3 DUP7 ADD PUSH2 0x2AD5 JUMP JUMPDEST PUSH1 0x60 DUP4 ADD MSTORE POP SWAP6 SWAP5 POP POP POP POP POP JUMP JUMPDEST PUSH1 0x0 DUP1 PUSH2 0x140 DUP4 DUP6 SUB SLT ISZERO PUSH2 0x3553 JUMPI DUP2 DUP3 REVERT JUMPDEST PUSH2 0x355D DUP5 DUP5 PUSH2 0x2C3C JUMP JUMPDEST SWAP2 POP PUSH2 0x356C DUP5 PUSH1 0xA0 DUP6 ADD PUSH2 0x2C3C JUMP JUMPDEST SWAP1 POP SWAP3 POP SWAP3 SWAP1 POP JUMP JUMPDEST PUSH1 0x0 PUSH1 0x20 DUP3 DUP5 SUB SLT ISZERO PUSH2 0x3586 JUMPI DUP1 DUP2 REVERT JUMPDEST DUP2 MLOAD PUSH1 0x1 PUSH1 0x1 PUSH1 0x40 SHL SUB DUP2 GT ISZERO PUSH2 0x359B JUMPI DUP2 DUP3 REVERT JUMPDEST PUSH2 0x2C25 DUP5 DUP3 DUP6 ADD PUSH2 0x2CC3 JUMP JUMPDEST PUSH1 0x0 PUSH1 0x20 DUP3 DUP5 SUB SLT ISZERO PUSH2 0x35B8 JUMPI DUP1 DUP2 REVERT JUMPDEST DUP2 CALLDATALOAD PUSH2 0x1BAC DUP2 PUSH2 0x3CA6 JUMP JUMPDEST PUSH1 0x0 PUSH1 0x20 DUP3 DUP5 SUB SLT ISZERO PUSH2 0x35D4 JUMPI DUP1 DUP2 REVERT JUMPDEST POP MLOAD SWAP2 SWAP1 POP JUMP JUMPDEST PUSH1 0x1 PUSH1 0x1 PUSH1 0xA0 SHL SUB AND SWAP1 MSTORE JUMP JUMPDEST PUSH1 0x0 DUP2 MLOAD DUP1 DUP5 MSTORE PUSH1 0x20 DUP1 DUP6 ADD SWAP5 POP DUP1 DUP5 ADD DUP4 JUMPDEST DUP4 DUP2 LT ISZERO PUSH2 0x3617 JUMPI DUP2 MLOAD DUP8 MSTORE SWAP6 DUP3 ADD SWAP6 SWAP1 DUP3 ADD SWAP1 PUSH1 0x1 ADD PUSH2 0x35FB JUMP JUMPDEST POP SWAP5 SWAP6 SWAP5 POP POP POP POP POP JUMP JUMPDEST PUSH1 0x0 DUP3 DUP5 MSTORE DUP3 DUP3 PUSH1 0x20 DUP7 ADD CALLDATACOPY DUP1 PUSH1 0x20 DUP5 DUP7 ADD ADD MSTORE PUSH1 0x20 PUSH1 0x1F NOT PUSH1 0x1F DUP6 ADD AND DUP6 ADD ADD SWAP1 POP SWAP4 SWAP3 POP POP POP JUMP JUMPDEST PUSH1 0x7 DUP2 LT PUSH2 0x3656 JUMPI INVALID JUMPDEST SWAP1 MSTORE JUMP JUMPDEST PUSH2 0xFFFF AND SWAP1 MSTORE JUMP JUMPDEST PUSH1 0x0 DUP2 MLOAD PUSH1 0x4 DUP2 LT PUSH2 0x3670 JUMPI INVALID JUMPDEST DUP1 DUP5 MSTORE POP PUSH1 0x20 DUP3 ADD MLOAD PUSH1 0x1 DUP1 PUSH1 0xA0 SHL SUB DUP1 DUP3 AND PUSH1 0x20 DUP7 ADD MSTORE DUP1 PUSH1 0x40 DUP6 ADD MLOAD AND PUSH1 0x40 DUP7 ADD MSTORE POP POP PUSH1 0x60 DUP3 ADD MLOAD PUSH1 0x60 DUP5 ADD MSTORE PUSH1 0x80 DUP3 ADD MLOAD PUSH1 0x80 DUP5 ADD MSTORE PUSH1 0xA0 DUP3 ADD MLOAD PUSH1 0xA0 DUP5 ADD MSTORE PUSH1 0xC0 DUP3 ADD MLOAD PUSH1 0xE0 PUSH1 0xC0 DUP6 ADD MSTORE DUP1 MLOAD DUP1 PUSH1 0xE0 DUP7 ADD MSTORE PUSH2 0x100 PUSH2 0x36DB DUP3 DUP3 DUP9 ADD PUSH1 0x20 DUP7 ADD PUSH2 0x3C57 JUMP JUMPDEST DUP1 PUSH1 0x1F NOT PUSH1 0x1F DUP5 ADD AND DUP8 ADD ADD SWAP4 POP POP POP POP SWAP3 SWAP2 POP POP JUMP JUMPDEST PUSH1 0x0 DUP3 MLOAD PUSH2 0x3704 DUP2 DUP5 PUSH1 0x20 DUP8 ADD PUSH2 0x3C57 JUMP JUMPDEST SWAP2 SWAP1 SWAP2 ADD SWAP3 SWAP2 POP POP JUMP JUMPDEST PUSH1 0x1 PUSH1 0x1 PUSH1 0xA0 SHL SUB SWAP2 SWAP1 SWAP2 AND DUP2 MSTORE PUSH1 0x20 ADD SWAP1 JUMP JUMPDEST PUSH1 0x1 PUSH1 0x1 PUSH1 0xA0 SHL SUB DUP4 AND DUP2 MSTORE PUSH1 0x40 PUSH1 0x20 DUP1 DUP4 ADD DUP3 SWAP1 MSTORE DUP4 MLOAD DUP4 DUP4 ADD DUP2 SWAP1 MSTORE PUSH1 0x0 SWAP3 SWAP2 PUSH1 0x60 SWAP2 DUP3 DUP7 ADD SWAP1 DUP1 DUP4 MUL DUP8 ADD DUP5 ADD DUP9 DUP5 ADD DUP8 JUMPDEST DUP4 DUP2 LT ISZERO PUSH2 0x37D7 JUMPI PUSH1 0x5F NOT DUP11 DUP5 SUB ADD DUP6 MSTORE DUP2 MLOAD PUSH1 0xE0 PUSH2 0x3777 DUP6 DUP4 MLOAD PUSH2 0x364C JUMP JUMPDEST DUP2 DUP9 ADD MLOAD PUSH2 0xFFFF AND DUP6 DUP10 ADD MSTORE DUP10 DUP3 ADD MLOAD DUP11 DUP7 ADD MSTORE DUP9 DUP3 ADD MLOAD DUP10 DUP7 ADD MSTORE PUSH1 0x80 DUP1 DUP4 ADD MLOAD ISZERO ISZERO SWAP1 DUP7 ADD MSTORE PUSH1 0xA0 DUP1 DUP4 ADD MLOAD ISZERO ISZERO SWAP1 DUP7 ADD MSTORE PUSH1 0xC0 SWAP2 DUP3 ADD MLOAD SWAP2 DUP6 ADD DUP2 SWAP1 MSTORE PUSH2 0x37C3 DUP2 DUP7 ADD DUP4 PUSH2 0x35E8 JUMP JUMPDEST SWAP7 DUP9 ADD SWAP7 SWAP5 POP POP POP SWAP1 DUP6 ADD SWAP1 PUSH1 0x1 ADD PUSH2 0x3757 JUMP JUMPDEST POP SWAP1 SWAP11 SWAP10 POP POP POP POP POP POP POP POP POP POP JUMP JUMPDEST PUSH1 0x1 PUSH1 0x1 PUSH1 0xA0 SHL SUB DUP4 AND DUP2 MSTORE PUSH1 0x40 PUSH1 0x20 DUP1 DUP4 ADD DUP3 SWAP1 MSTORE DUP4 MLOAD DUP4 DUP4 ADD DUP2 SWAP1 MSTORE PUSH1 0x0 SWAP3 SWAP2 PUSH1 0x60 SWAP2 DUP3 DUP7 ADD SWAP1 DUP8 DUP4 ADD DUP7 JUMPDEST DUP3 DUP2 LT ISZERO PUSH2 0x3870 JUMPI DUP2 MLOAD PUSH2 0x382A DUP6 DUP3 MLOAD PUSH2 0x364C JUMP JUMPDEST DUP1 DUP7 ADD MLOAD PUSH2 0xFFFF AND DUP6 DUP8 ADD MSTORE DUP8 DUP2 ADD MLOAD DUP9 DUP7 ADD MSTORE DUP7 DUP2 ADD MLOAD DUP8 DUP7 ADD MSTORE PUSH1 0x80 DUP1 DUP3 ADD MLOAD ISZERO ISZERO SWAP1 DUP7 ADD MSTORE PUSH1 0xA0 SWAP1 DUP2 ADD MLOAD ISZERO ISZERO SWAP1 DUP6 ADD MSTORE PUSH1 0xC0 SWAP1 SWAP4 ADD SWAP3 SWAP1 DUP5 ADD SWAP1 PUSH1 0x1 ADD PUSH2 0x3815 JUMP JUMPDEST POP SWAP2 SWAP10 SWAP9 POP POP POP POP POP POP POP POP POP JUMP JUMPDEST PUSH1 0x1 PUSH1 0x1 PUSH1 0xA0 SHL SUB SWAP3 DUP4 AND DUP2 MSTORE SWAP2 AND PUSH1 0x20 DUP3 ADD MSTORE PUSH1 0x40 ADD SWAP1 JUMP JUMPDEST PUSH1 0x1 PUSH1 0x1 PUSH1 0xA0 SHL SUB DUP10 DUP2 AND DUP3 MSTORE PUSH1 0xE0 PUSH1 0x20 DUP1 DUP5 ADD DUP3 SWAP1 MSTORE DUP11 MLOAD SWAP2 DUP5 ADD DUP3 SWAP1 MSTORE PUSH1 0x0 SWAP3 DUP12 DUP3 ADD SWAP3 SWAP1 SWAP2 SWAP1 PUSH2 0x100 DUP7 ADD SWAP1 DUP6 JUMPDEST DUP2 DUP2 LT ISZERO PUSH2 0x38E8 JUMPI DUP6 MLOAD DUP6 AND DUP4 MSTORE SWAP5 DUP4 ADD SWAP5 SWAP2 DUP4 ADD SWAP2 PUSH1 0x1 ADD PUSH2 0x38CA JUMP JUMPDEST POP POP DUP6 DUP2 SUB PUSH1 0x40 DUP8 ADD MSTORE PUSH2 0x38FC DUP2 DUP14 PUSH2 0x35E8 JUMP JUMPDEST SWAP4 POP POP POP POP DUP3 DUP2 SUB PUSH1 0x60 DUP5 ADD MSTORE PUSH2 0x3913 DUP2 DUP10 PUSH2 0x35E8 JUMP JUMPDEST SWAP1 POP PUSH2 0x3922 PUSH1 0x80 DUP5 ADD DUP9 PUSH2 0x35DB JUMP JUMPDEST DUP3 DUP2 SUB PUSH1 0xA0 DUP5 ADD MSTORE PUSH2 0x3935 DUP2 DUP7 DUP9 PUSH2 0x3622 JUMP JUMPDEST SWAP2 POP POP PUSH2 0x84D PUSH1 0xC0 DUP4 ADD DUP5 PUSH2 0x365A JUMP JUMPDEST PUSH1 0x1 PUSH1 0x1 PUSH1 0xA0 SHL SUB SWAP3 SWAP1 SWAP3 AND DUP3 MSTORE PUSH1 0x20 DUP3 ADD MSTORE PUSH1 0x40 ADD SWAP1 JUMP JUMPDEST PUSH1 0x1 PUSH1 0x1 PUSH1 0xA0 SHL SUB DUP6 AND DUP2 MSTORE PUSH2 0xFFFF DUP5 AND PUSH1 0x20 DUP3 ADD MSTORE PUSH1 0x80 PUSH1 0x40 DUP3 ADD DUP2 SWAP1 MSTORE PUSH1 0x0 SWAP1 PUSH2 0x398C SWAP1 DUP4 ADD DUP6 PUSH2 0x35E8 JUMP JUMPDEST DUP3 DUP2 SUB PUSH1 0x60 DUP5 ADD MSTORE PUSH2 0x399E DUP2 DUP6 PUSH2 0x35E8 JUMP JUMPDEST SWAP8 SWAP7 POP POP POP POP POP POP POP JUMP JUMPDEST PUSH1 0x1 PUSH1 0x1 PUSH1 0xA0 SHL SUB DUP7 AND DUP2 MSTORE PUSH2 0xFFFF DUP6 DUP2 AND PUSH1 0x20 DUP4 ADD MSTORE DUP5 AND PUSH1 0x40 DUP3 ADD MSTORE PUSH1 0xA0 PUSH1 0x60 DUP3 ADD DUP2 SWAP1 MSTORE PUSH1 0x0 SWAP1 PUSH2 0x39DF SWAP1 DUP4 ADD DUP6 PUSH2 0x35E8 JUMP JUMPDEST DUP3 DUP2 SUB PUSH1 0x80 DUP5 ADD MSTORE PUSH2 0x39F1 DUP2 DUP6 PUSH2 0x35E8 JUMP JUMPDEST SWAP9 SWAP8 POP POP POP POP POP POP POP POP JUMP JUMPDEST PUSH1 0x1 PUSH1 0x1 PUSH1 0xA0 SHL SUB SWAP8 SWAP1 SWAP8 AND DUP8 MSTORE PUSH2 0xFFFF SWAP6 DUP7 AND PUSH1 0x20 DUP9 ADD MSTORE SWAP4 SWAP1 SWAP5 AND PUSH1 0x40 DUP7 ADD MSTORE PUSH1 0x1 PUSH1 0x1 PUSH1 0x80 SHL SUB SWAP2 SWAP1 SWAP2 AND PUSH1 0x60 DUP6 ADD MSTORE PUSH1 0x1 PUSH1 0x1 PUSH1 0x60 SHL SUB AND PUSH1 0x80 DUP5 ADD MSTORE SWAP1 ISZERO ISZERO PUSH1 0xA0 DUP4 ADD MSTORE ISZERO ISZERO PUSH1 0xC0 DUP3 ADD MSTORE PUSH1 0xE0 ADD SWAP1 JUMP JUMPDEST PUSH1 0x1 PUSH1 0x1 PUSH1 0xA0 SHL SUB SWAP4 SWAP1 SWAP4 AND DUP4 MSTORE PUSH2 0xFFFF SWAP2 SWAP1 SWAP2 AND PUSH1 0x20 DUP4 ADD MSTORE PUSH1 0x40 DUP3 ADD MSTORE PUSH1 0x60 ADD SWAP1 JUMP JUMPDEST PUSH1 0x1 PUSH1 0x1 PUSH1 0xA0 SHL SUB SWAP4 SWAP1 SWAP4 AND DUP4 MSTORE PUSH2 0xFFFF SWAP2 SWAP1 SWAP2 AND PUSH1 0x20 DUP4 ADD MSTORE PUSH1 0x1 PUSH1 0x1 PUSH1 0x60 SHL SUB AND PUSH1 0x40 DUP3 ADD MSTORE PUSH1 0x60 ADD SWAP1 JUMP JUMPDEST SWAP1 ISZERO ISZERO DUP2 MSTORE PUSH1 0x20 ADD SWAP1 JUMP JUMPDEST PUSH1 0x0 PUSH1 0x40 DUP3 ADD DUP5 DUP4 MSTORE PUSH1 0x20 PUSH1 0x40 DUP2 DUP6 ADD MSTORE DUP2 DUP6 MLOAD DUP1 DUP5 MSTORE PUSH1 0x60 DUP7 ADD SWAP2 POP DUP3 DUP8 ADD SWAP4 POP DUP5 JUMPDEST DUP2 DUP2 LT ISZERO PUSH2 0x2B34 JUMPI DUP5 MLOAD DUP4 MSTORE SWAP4 DUP4 ADD SWAP4 SWAP2 DUP4 ADD SWAP2 PUSH1 0x1 ADD PUSH2 0x3AD5 JUMP JUMPDEST PUSH1 0x20 DUP1 DUP3 MSTORE PUSH1 0x11 SWAP1 DUP3 ADD MSTORE PUSH17 0x34B73B30B634B2103732BB9037BBB732B9 PUSH1 0x79 SHL PUSH1 0x40 DUP3 ADD MSTORE PUSH1 0x60 ADD SWAP1 JUMP JUMPDEST PUSH1 0x20 DUP1 DUP3 MSTORE PUSH1 0xD SWAP1 DUP3 ADD MSTORE PUSH13 0x92DCECC2D8D2C840D2DCC8CAF PUSH1 0x9B SHL PUSH1 0x40 DUP3 ADD MSTORE PUSH1 0x60 ADD SWAP1 JUMP JUMPDEST PUSH1 0x20 DUP1 DUP3 MSTORE DUP2 DUP2 ADD MSTORE PUSH32 0x4F776E61626C653A2063616C6C6572206973206E6F7420746865206F776E6572 PUSH1 0x40 DUP3 ADD MSTORE PUSH1 0x60 ADD SWAP1 JUMP JUMPDEST PUSH2 0xFFFF SWAP2 SWAP1 SWAP2 AND DUP2 MSTORE PUSH1 0x20 ADD SWAP1 JUMP JUMPDEST PUSH1 0x0 PUSH2 0xFFFF DUP5 AND DUP3 MSTORE PUSH1 0x40 PUSH1 0x20 DUP4 ADD MSTORE PUSH2 0x2C25 PUSH1 0x40 DUP4 ADD DUP5 PUSH2 0x3662 JUMP JUMPDEST PUSH1 0x0 PUSH2 0xFFFF DUP6 AND DUP3 MSTORE PUSH1 0x60 PUSH1 0x20 DUP4 ADD MSTORE PUSH2 0x3BC1 PUSH1 0x60 DUP4 ADD DUP6 PUSH2 0x3662 JUMP JUMPDEST SWAP1 POP PUSH4 0xFFFFFFFF DUP4 AND PUSH1 0x40 DUP4 ADD MSTORE SWAP5 SWAP4 POP POP POP POP JUMP JUMPDEST SWAP1 DUP2 MSTORE PUSH1 0x20 ADD SWAP1 JUMP JUMPDEST SWAP3 DUP4 MSTORE PUSH1 0x20 DUP4 ADD SWAP2 SWAP1 SWAP2 MSTORE PUSH1 0x40 DUP3 ADD MSTORE PUSH1 0x60 ADD SWAP1 JUMP JUMPDEST PUSH1 0x40 MLOAD DUP2 DUP2 ADD PUSH1 0x1 PUSH1 0x1 PUSH1 0x40 SHL SUB DUP2 GT DUP3 DUP3 LT OR ISZERO PUSH2 0x3C11 JUMPI INVALID JUMPDEST PUSH1 0x40 MSTORE SWAP2 SWAP1 POP JUMP JUMPDEST PUSH1 0x0 PUSH1 0x1 PUSH1 0x1 PUSH1 0x40 SHL SUB DUP3 GT ISZERO PUSH2 0x3C2C JUMPI INVALID JUMPDEST POP PUSH1 0x20 SWAP1 DUP2 MUL ADD SWAP1 JUMP JUMPDEST PUSH1 0x0 PUSH1 0x1 PUSH1 0x1 PUSH1 0x40 SHL SUB DUP3 GT ISZERO PUSH2 0x3C49 JUMPI INVALID JUMPDEST POP PUSH1 0x1F ADD PUSH1 0x1F NOT AND PUSH1 0x20 ADD SWAP1 JUMP JUMPDEST PUSH1 0x0 JUMPDEST DUP4 DUP2 LT ISZERO PUSH2 0x3C72 JUMPI DUP2 DUP2 ADD MLOAD DUP4 DUP3 ADD MSTORE PUSH1 0x20 ADD PUSH2 0x3C5A JUMP JUMPDEST DUP4 DUP2 GT ISZERO PUSH2 0xA99 JUMPI POP POP PUSH1 0x0 SWAP2 ADD MSTORE JUMP JUMPDEST PUSH1 0x1 PUSH1 0x1 PUSH1 0xA0 SHL SUB DUP2 AND DUP2 EQ PUSH2 0x10F8 JUMPI PUSH1 0x0 DUP1 REVERT JUMPDEST DUP1 ISZERO ISZERO DUP2 EQ PUSH2 0x10F8 JUMPI PUSH1 0x0 DUP1 REVERT JUMPDEST PUSH2 0xFFFF DUP2 AND DUP2 EQ PUSH2 0x10F8 JUMPI PUSH1 0x0 DUP1 REVERT INVALID LOG2 PUSH5 0x6970667358 0x22 SLT KECCAK256 0xE3 SAR 0xAC 0xE9 DIFFICULTY 0xAD 0xF7 SWAP10 PUSH17 0x2F1281011466064219A8AE1F9C472A3FA PUSH19 0xEE2FF9C5CF64736F6C63430007060033000000 ","sha1":"5cee95b94336b250e7bcf3cc07895fa79149d711","source":"// SPDX-License-Identifier: GPL-3.0-only\npragma solidity =0.7.6;\npragma abicoder v2;\n\nimport {IERC20} from \"@openzeppelin/contracts/token/ERC20/IERC20.sol\";\nimport {SafeMath} from \"@openzeppelin/contracts/math/SafeMath.sol\";\nimport {FlashLiquidatorBase} from \"./FlashLiquidatorBase.sol\";\nimport {\n    TradeActionType,\n    DepositActionType, \n    BalanceAction, \n    BalanceActionWithTrades\n} from \"../../global/Types.sol\";\nimport {SafeInt256} from \"../../math/SafeInt256.sol\";\nimport {DateTime} from \"../../internal/markets/DateTime.sol\";\nimport {NotionalProxy} from \"../../../interfaces/notional/NotionalProxy.sol\";\nimport {IWstETH} from \"../../../interfaces/IWstETH.sol\";\n\ncontract FlashLiquidator is FlashLiquidatorBase {\n    using SafeInt256 for int256;\n    using SafeMath for uint256;\n\n    constructor(\n        NotionalProxy notional_,\n        address lendingPool_,\n        address weth_,\n        IWstETH wstETH_,\n        address owner_,\n        address tradingModule_,\n        bool unwrapStETH_\n    )\n        FlashLiquidatorBase(\n            notional_,\n            lendingPool_,\n            weth_,\n            wstETH_,\n            owner_,\n            tradingModule_,\n            unwrapStETH_\n        )\n    {}\n\n    function _redeemAndWithdraw(\n        uint16 nTokenCurrencyId,\n        uint96 nTokenBalance,\n        bool redeemToUnderlying\n    ) internal override {\n        BalanceAction[] memory action = new BalanceAction[](1);\n        // If nTokenBalance is zero still try to withdraw entire cash balance\n        action[0].actionType = nTokenBalance == 0\n            ? DepositActionType.None\n            : DepositActionType.RedeemNToken;\n        action[0].currencyId = nTokenCurrencyId;\n        action[0].depositActionAmount = nTokenBalance;\n        action[0].withdrawEntireCashBalance = true;\n        action[0].redeemToUnderlying = redeemToUnderlying;\n        NOTIONAL.batchBalanceAction(address(this), action);\n    }\n\n    function _sellfCashAssets(\n        uint16 fCashCurrency,\n        uint256[] memory fCashMaturities,\n        int256[] memory fCashNotional,\n        uint256 depositActionAmount,\n        bool redeemToUnderlying\n    ) internal override {\n        uint256 blockTime = block.timestamp;\n        BalanceActionWithTrades[] memory action = new BalanceActionWithTrades[](1);\n        action[0].actionType = depositActionAmount > 0\n            ? DepositActionType.DepositAsset\n            : DepositActionType.None;\n        action[0].depositActionAmount = depositActionAmount;\n        action[0].currencyId = fCashCurrency;\n        action[0].withdrawEntireCashBalance = true;\n        action[0].redeemToUnderlying = redeemToUnderlying;\n\n        uint256 numTrades;\n        bytes32[] memory trades = new bytes32[](fCashMaturities.length);\n        for (uint256 i; i < fCashNotional.length; i++) {\n            if (fCashNotional[i] == 0) continue;\n            (uint256 marketIndex, bool isIdiosyncratic) = DateTime.getMarketIndex(\n                7,\n                fCashMaturities[i],\n                blockTime\n            );\n            // We don't trade it out here but if the contract does take on idiosyncratic cash we need to be careful\n            if (isIdiosyncratic) continue;\n\n            trades[numTrades] = bytes32(\n                (uint256(fCashNotional[i] > 0 ? TradeActionType.Borrow : TradeActionType.Lend) <<\n                    248) |\n                    (marketIndex << 240) |\n                    (uint256(uint88(fCashNotional[i].abs())) << 152)\n            );\n            numTrades++;\n        }\n\n        if (numTrades < trades.length) {\n            // Shrink the trades array to length if it is not full\n            bytes32[] memory newTrades = new bytes32[](numTrades);\n            for (uint256 i; i < numTrades; i++) {\n                newTrades[i] = trades[i];\n            }\n            action[0].trades = newTrades;\n        } else {\n            action[0].trades = trades;\n        }\n\n        NOTIONAL.batchBalanceAndTradeAction(address(this), action);\n    }\n\n    function transferOwnership(address newOwner) external onlyOwner {\n        require(newOwner != address(0), \"invalid new owner\");\n        owner = newOwner;\n    }\n\n    function wrapToWETH() external {\n        _wrapToWETH();\n    }\n\n    function withdraw(address token, uint256 amount) external {\n        IERC20(token).transfer(owner, amount);\n    }\n\n    receive() external payable {}\n}\n","sourcePath":"contracts/external/liquidators/FlashLiquidator.sol","type":"contract","deployment":{"address":"0xCeF77C74C88B6deCeAF2E954038e7789A0F1bB33","chainid":"42161","blockHeight":146072233}}