{"abi":[{"inputs":[{"internalType":"address","name":"account","type":"address"},{"internalType":"uint16","name":"currencyId","type":"uint16"},{"internalType":"uint256","name":"amountExternalPrecision","type":"uint256"}],"name":"depositAssetToken","outputs":[{"internalType":"uint256","name":"","type":"uint256"}],"stateMutability":"nonpayable","type":"function"},{"inputs":[{"internalType":"address","name":"account","type":"address"},{"internalType":"uint16","name":"currencyId","type":"uint16"},{"internalType":"uint256","name":"amountExternalPrecision","type":"uint256"}],"name":"depositUnderlyingToken","outputs":[{"internalType":"uint256","name":"","type":"uint256"}],"stateMutability":"payable","type":"function"},{"inputs":[{"internalType":"uint16","name":"currencyId","type":"uint16"}],"name":"enableBitmapCurrency","outputs":[],"stateMutability":"nonpayable","type":"function"},{"inputs":[{"internalType":"bool","name":"allowPrimeBorrow","type":"bool"}],"name":"enablePrimeBorrow","outputs":[],"stateMutability":"nonpayable","type":"function"},{"inputs":[],"name":"getLibInfo","outputs":[{"internalType":"address","name":"","type":"address"},{"internalType":"address","name":"","type":"address"},{"internalType":"address","name":"","type":"address"},{"internalType":"address","name":"","type":"address"}],"stateMutability":"pure","type":"function"},{"inputs":[{"internalType":"address","name":"redeemer","type":"address"},{"internalType":"uint16","name":"currencyId","type":"uint16"},{"internalType":"uint96","name":"tokensToRedeem_","type":"uint96"},{"internalType":"bool","name":"sellTokenAssets","type":"bool"},{"internalType":"bool","name":"acceptResidualAssets","type":"bool"}],"name":"nTokenRedeem","outputs":[{"internalType":"int256","name":"","type":"int256"},{"internalType":"bool","name":"","type":"bool"}],"stateMutability":"nonpayable","type":"function"},{"inputs":[],"name":"owner","outputs":[{"internalType":"address","name":"","type":"address"}],"stateMutability":"view","type":"function"},{"inputs":[],"name":"pauseGuardian","outputs":[{"internalType":"address","name":"","type":"address"}],"stateMutability":"view","type":"function"},{"inputs":[],"name":"pauseRouter","outputs":[{"internalType":"address","name":"","type":"address"}],"stateMutability":"view","type":"function"},{"inputs":[{"internalType":"address","name":"account","type":"address"}],"name":"settleAccount","outputs":[{"internalType":"bool","name":"","type":"bool"}],"stateMutability":"nonpayable","type":"function"},{"inputs":[{"internalType":"uint16","name":"currencyId","type":"uint16"},{"internalType":"uint88","name":"amountInternalPrecision","type":"uint88"},{"internalType":"bool","name":"redeemToUnderlying","type":"bool"}],"name":"withdraw","outputs":[{"internalType":"uint256","name":"","type":"uint256"}],"stateMutability":"nonpayable","type":"function"}],"bytecode":"608060405234801561001057600080fd5b50614efd806100206000396000f3fe60806040526004361061009c5760003560e01c80638246336711610064578063824633671461015c5780638da5cb5b146101715780639c97945014610186578063b8a69455146101a6578063c4c96dae146101c6578063f667f897146101eb5761009c565b806302f332e8146100a157806324a3d622146100d75780632890fb65146100f957806361d0d61c1461010c578063668906431461012e575b600080fd5b3480156100ad57600080fd5b506100c16100bc36600461493f565b610218565b6040516100ce9190614e22565b60405180910390f35b3480156100e357600080fd5b506100ec61039a565b6040516100ce9190614a2a565b6100c1610107366004614591565b6103a9565b34801561011857600080fd5b5061012c61012736600461475a565b610462565b005b34801561013a57600080fd5b5061014e6101493660046145d1565b61049c565b6040516100ce929190614c15565b34801561016857600080fd5b506100ec610747565b34801561017d57600080fd5b506100ec610756565b34801561019257600080fd5b5061012c6101a1366004614923565b61076d565b3480156101b257600080fd5b506100c16101c1366004614591565b6107ba565b3480156101d257600080fd5b506101db610834565b6040516100ce9493929190614a3e565b3480156101f757600080fd5b5061020b610206366004614575565b61088e565b6040516100ce9190614c0a565b60006002600a54141561022a57600080fd5b6002600a5561ffff841660011461026157816102615760405162461bcd60e51b815260040161025890614d15565b60405180910390fd5b600061026c336108c2565b50905061027761422c565b61028381338885610987565b6001600160581b0385811614156102bc5760008160200151136102a557600080fd5b6102b281602001516109a8565b60808201526102d4565b6102ce856001600160581b03166109a8565b60808201525b60006102e382338588156109bc565b90506102ef83336109d7565b60208301516001600160f81b0319161561036b57604051636ccc642f60e01b815273__FreeCollateralExternal________________90636ccc642f9061033a903390600401614a2a565b60006040518083038186803b15801561035257600080fd5b505af4158015610366573d6000803e3d6000fd5b505050505b600081131561037957600080fd5b61038a610385826109a8565b610af4565b6001600a55979650505050505050565b6002546001600160a01b031681565b60006002600a5414156103bb57600080fd5b6002600a55333014156103cd57600080fd5b336001600160a01b038516146103e257600080fd5b6103eb84610b07565b60006103f685610b82565b905061040061422c565b61040c81878785610987565b60006104258761041b87610c30565b8491906000610c46565b90506000811361043457600080fd5b61043f828885610c98565b61044983886109d7565b6101208201516104599087610cb6565b61038a81610af4565b3330141561046f57600080fd5b61047833610b07565b6000610483336108c2565b5082151560a0820152905061049881336109d7565b5050565b6000806002600a5414156104af57600080fd5b6002600a55336001600160a01b03881614806104ca57503330145b6104e65760405162461bcd60e51b815260040161025890614cbf565b6001600160601b03851660006104fb896108c2565b50905061050661422c565b610512818b8b85610987565b82816040015112156105365760405162461bcd60e51b815260040161025890614df5565b61053f836109a8565b60c082015260405163b853e45760e01b8152600090819073__nTokenRedeemAction____________________9063b853e45790610588908f908f908a908f908f90600401614b77565b60006040518083038186803b1580156105a057600080fd5b505af41580156105b4573d6000803e3d6000fd5b505050506040513d6000823e601f3d908101601f191682016040526105dc9190810190614776565b6060850182905290925090506105f3838d86610c98565b80511561069c5760006106098c61ffff16610cf7565b905073__SettleAssetsExternal__________________63c108fc268e8388866040518563ffffffff1660e01b81526004016106489493929190614a69565b60c06040518083038186803b15801561066057600080fd5b505af4158015610674573d6000803e3d6000fd5b505050506040513d601f19601f820116820180604052508101906106989190614880565b9450505b6106a6848d6109d7565b60208401516001600160f81b0319161561072257604051636ccc642f60e01b815273__FreeCollateralExternal________________90636ccc642f906106f1908f90600401614a2a565b60006040518083038186803b15801561070957600080fd5b505af415801561071d573d6000803e3d6000fd5b505050505b61072e8c8c8488610d1d565b516001600a55909b9015159a5098505050505050505050565b6001546001600160a01b031681565b60005464010000000090046001600160a01b031681565b3330141561077a57600080fd5b60005461ffff908116908216111561079157600080fd5b33600061079d826108c2565b5090506107ab818442610ec1565b6107b581836109d7565b505050565b60006002600a5414156107cc57600080fd5b6002600a55333014156107de57600080fd5b336001600160a01b038516146107f357600080fd5b6107fc84610b07565b600061080785610b82565b905061081161422c565b61081d81878785610987565b60006104258761082c87610c30565b849190610fb9565b73__FreeCollateralExternal________________73__MigrateIncentives_____________________73__SettleAssetsExternal__________________73__nTokenRedeemAction____________________90919293565b600061089982610b07565b6000806108a5846108c2565b9150915080156108b9576108b982856109d7565b9150505b919050565b6108ca614288565b6000806108d684610b82565b90506108e181611095565b1561097b576040516337b5fc2160e11b815273__SettleAssetsExternal__________________90636f6bf8429061091f9087908590600401614b5a565b60c06040518083038186803b15801561093757600080fd5b505af415801561094b573d6000803e3d6000fd5b505050506040513d601f19601f8201168201806040525081019061096f9190614880565b60019250925050610982565b9150600090505b915091565b610990826110e9565b6101208501526109a2848484846110fb565b50505050565b60006109b6600019836111a3565b92915050565b60006109cc8585858560016111f1565b90505b949350505050565b60006109e16113a7565b6001600160a01b03831660008181526020838152604080832088518154938a01518a84015160608c015160808d015160a08e015164ffffffffff1990981664ffffffffff9095169490941765ff00000000001916600160281b60f89490941c939093029290921766ff0000000000001916600160301b60ff909216919091021768ffff000000000000001916600160381b61ffff90921691909102177affffffffffffffffffffffffffffffffffff0000000000000000001916600160481b60709290921c919091021760ff60d81b1916600160d81b93151593909302929092179091555192935090917f6bd4b121bca854a191536a2ca891155c42ee2fb23f307fb34e8bc65cfcb5412e9190a2505050565b600080821215610b0357600080fd5b5090565b6001600160a01b038116610b1a57600080fd5b6001600160a01b038116610fee1415610b3257600080fd5b6001600160a01b0381166105e71415610b4a57600080fd5b6001600160a01b038116301415610b6057600080fd5b6000610b6b826113b4565b5050505061ffff1690508060001461049857600080fd5b610b8a614288565b6000610b946113a7565b6001600160a01b03841660009081526020918252604090819020815160c081018352905464ffffffffff811682526001600160f81b0319600160281b820460f81b169382019390935260ff600160301b840481169282019290925261ffff600160381b84041660608201526001600160701b0319600160481b840460701b166080820152600160d81b90920416151560a0820152915050919050565b60006001600160ff1b03821115610b0357600080fd5b600082610c55575060006109cf565b60008313610c6257600080fd5b610c78848660000151858861012001518661141d565b6060870151909250610c8b9150826114df565b6060860152949350505050565b608083015115610ca757600080fd5b6109a2838383600060016111f1565b600080610cc384846114f5565b915091508160001415610cd7575050610498565b818111156109a25760405162461bcd60e51b815260040161025890614c25565b600080610d02611561565b6000938452602052505060409020546001600160a01b031690565b6000610d2761156e565b61ffff8516600090815260209190915260408120546001600160a01b03169150610d4f611561565b61ffff8616600090815260209190915260408120546001600160a01b0316915084138015610d7d5750600083135b15610eb9576040516323de665160e01b81526001600160a01b038316906323de665190610db29084908a908990600401614b1d565b600060405180830381600087803b158015610dcc57600080fd5b505af1158015610de0573d6000803e3d6000fd5b50505050610ded8561157b565b15610e505760006001600160a01b038716337fc3d58168c5ae7397731d063d5bbf3d657854427343f4c083240f7aacaa2d0f62610e2989611598565b610e35610385896115ae565b604051610e43929190614e2b565b60405180910390a4610eb9565b806001600160a01b031663ad1c095d87610e69866109a8565b6040518363ffffffff1660e01b8152600401610e86929190614b41565b600060405180830381600087803b158015610ea057600080fd5b505af1158015610eb4573d6000803e3d6000fd5b505050505b505050505050565b610eca836115cf565b15610ee75760405162461bcd60e51b815260040161025890614d4c565b8161ffff166000108015610f015750613fff61ffff831611155b610f1d5760405162461bcd60e51b815260040161025890614dc8565b604083015160ff1615610f425760405162461bcd60e51b815260040161025890614c93565b60208301516001600160f81b03191615610f6e5760405162461bcd60e51b815260040161025890614d7a565b610f838361ffff84166000600160fe1b6115dc565b61ffff821660608401526000610f98826117e2565b905064ffffffffff8110610fab57600080fd5b64ffffffffff169092525050565b600081610fc85750600061108e565b60008213610fd557600080fd5b6000610fe8856000015161ffff16611800565b80519091506001600160a01b0316610fff57600080fd5b60018160600151600581111561101157fe5b148061102c575060028160600151600581111561102a57fe5b145b1561106457845161012086015161104891839186908890611813565b606086015190925061105a90836114df565b606086015261108c565b60048160600151600581111561107657fe5b141561009c576110898585856000610c46565b91505b505b9392505050565b6000426110a1836115cf565b156110c2576110af816117e2565b835164ffffffffff161091506108bd9050565b825164ffffffffff16158015906110e15750825164ffffffffff168110155b9150506108bd565b6110f16142bd565b6109b682426118a4565b8161ffff1660001080156111155750613fff61ffff831611155b61111e57600080fd5b61ffff8216808552611131908290611965565b156111605761114683838661012001516119ef565b61010088015260e08701526040860152602085015261117e565b6000602085018190526040850181905260e085018190526101008501525b50506000606083018190526080830181905260a0830181905260c09092019190915250565b8181026000198314156111d3578115806111c55750828282816111c257fe5b05145b6111ce57600080fd5b6109b6565b8215806111e85750818382816111e557fe5b05145b6109b657600080fd5b60008061120e86886000015189608001518a610120015188611aa9565b9150600061122d886080015189606001516114df90919063ffffffff16565b905083801561123c5750600081125b80156112575750602088015160009061125590836114df565b125b1561127d578560a0015161127d5760405162461bcd60e51b815260040161025890614cec565b801561129c57602088015161129290826114df565b6020890152600191505b60a08801511515806112b1575060c088015115155b1561131a5760006112e18960c001516112db8b60a001518c604001516114df90919063ffffffff16565b906114df565b905060008112156113045760405162461bcd60e51b815260040161025890614da4565b61130f898983611b52565b506040890152600191505b8115611349576113498789600001518a602001518b604001518c60e001518d61010001518e6101200151611c3f565b875160208901516113769161ffff1690151580611369575060408a015115155b889190600160fe1b6115dc565b60008860200151121561139c57602086018051600160f91b176001600160f81b03191690525b505095945050505050565b6000806109b66001611d7a565b6000806000806000806113c5611d93565b6001600160a01b039097166000908152602097909752505060409094205461ffff81169563ffffffff62010000830481169650600160301b830416945060ff600160501b8304169350600160581b90910460d81b9150565b600080600061142b86610af4565b90508061143f5760008092509250506114d5565b600061144e8861ffff16611da0565b905060038160600151600581111561146257fe5b14156114a957348210156114825761147d8983340387611db3565b6114a1565b3482146114a15760405162461bcd60e51b815260040161025890614c4e565b8693506114c3565b6114c06114bb82600001518b85611e7b565b610c30565b93505b6114d0898986848a612003565b925050505b9550959350505050565b818101828112156000831215146109b657600080fd5b600080600061150261204a565b61ffff8516600090815260209190915260409020600181015490915061153490600160581b900463ffffffff16612057565b8154909350600160281b90046001600160581b03166115566103858783612065565b925050509250929050565b6000806109b66003611d7a565b6000806109b66021611d7a565b6000466001811480156108b957505050600461ffff909116111590565b600c60309190911b67ffff000000000000161790565b6000808212156115c8576115c1826109a8565b90506108bd565b50806108bd565b6060015161ffff16151590565b8260001080156115ee5750613fff8311155b6115f757600080fd5b81801561160b575082846060015161ffff16145b15611615576109a2565b6080840151600090815b6001600160701b03198216156117975760f082901c613fff1686811480156116445750855b1561167c57506080870180516001600160f01b0319861660109093029290921c919091176001600160701b0319169052506109a29050565b8681148015611689575085155b156116e5576001600160f01b03198516199290921691600360fe1b83166116c3576010836dffffffffffffffffffffffffffff1916901b92505b506001600160701b031991821660109091021c919091171660808501526109a2565b86811180156116f15750855b1561174b576080888101516001600160f01b031960f08a901b88178116601086021c9690961795911b161561172557600080fd5b506001600160701b03199182166001919091016010021c919091171660808501526109a2565b8681118015611758575085155b1561176657505050506109a2565b506001600160f01b0319821660108281029190911c93909317929190911b6001600160801b0319169060010161161f565b846117a4575050506109a2565b600981106117b157600080fd5b6001600160f01b031960f087901b85171660109091021c919091176001600160701b03191660808601525050505050565b6000620151808210156117f457600080fd5b50620151808106900390565b6118086142de565b6109b6826000612097565b600061182486600001518486611e7b565b935060006118358661ffff16611da0565b9050600060028860600151600581111561184b57fe5b14156118655761185e6114bb8988612131565b905061188b565b60018860600151600581111561187757fe5b141561009c5761185e6114bb8984896121e2565b6118988588838588612003565b98975050505050505050565b6118ac6142bd565b60006118b7846123a2565b905082816000015110156118f6576000806118d18661246a565b90506118df868483886124e7565b90935091506118ef86838561258b565b5050611903565b8051831461190357600080fd5b604051806060016040528061192c6114bb8460a001518560c001516127bf90919063ffffffff16565b815260200161194f6114bb8460a001518560e001516127bf90919063ffffffff16565b8152602001826060015181525091505092915050565b600081158015906119785750613fff8211155b61198157600080fd5b6080830151606084015161ffff168314156119a05760019150506109b6565b6001600160701b03198116156119e55760f081901c613fff16838114156119d25750600160fe1b9081161490506109b6565b5060101b6001600160801b0319166119a0565b5060009392505050565b60008060008060006119ff6127e6565b6001600160a01b03891660009081526020828152604080832061ffff8c168452909152902080546001600160501b0381169650600160501b900463ffffffff1694509091508315611a6c578054611a6590600160701b900466ffffffffffffff16612057565b9250611a81565b8054600160701b900466ffffffffffffff1692505b8054611a9c908890600160a81b9004600a90810b900b6127f3565b9550505093509350935093565b600083611ab857506000611b49565b60008412611ac557600080fd5b6000611ad48661ffff16611da0565b9050611ae981611ae48688612065565b612821565b91506000611af6836109a8565b9050611b03878383612859565b600382606001516005811115611b1557fe5b1415611b2b57611b26888286611db3565b611b38565b8151611b38908983612951565b611b458888858589612003565b5050505b95945050505050565b825160009042908290611b689061ffff16610cf7565b90506000611b7b828860c00151856129c8565b9050611b8987838388612aab565b93506000611b9683612bd8565b90506001600160a01b03811615611c2457806001600160a01b0316631d684dd2888a60000151611bc98c60400151610af4565b8a8d60c001518b6040518763ffffffff1660e01b8152600401611bf196959493929190614bad565b600060405180830381600087803b158015611c0b57600080fd5b505af1158015611c1f573d6000803e3d6000fd5b505050505b8415611c3457611c348786612c4a565b505050509392505050565b6000611c496127e6565b6001600160a01b03891660009081526020828152604080832061ffff8c168452909152902090915084611cb15766ffffffffffffff841115611c8a57600080fd5b805466ffffffffffffff60701b1916600160701b66ffffffffffffff861602178155611ccb565b8054600160501b900463ffffffff168514611ccb57600080fd5b611cd485612c69565b815463ffffffff91909116600160501b0263ffffffff60501b19909116178155611d05611d0087610af4565b612c7c565b815469ffffffffffffffffffff19166001600160501b039190911617808255611d4b90611d469085908c908c90600160a81b9004600a90810b900b8c612c92565b612cb5565b8154600a9190910b6001600160581b0316600160a81b026001600160a81b039091161790555050505050505050565b6000620f4240826026811115611d8c57fe5b0192915050565b6000806109b66002611d7a565b611da86142de565b6109b6826001612097565b8015611e45577382af49447d8a07e3bd95bd0d56f35241523fbab16001600160a01b031663d0e30db0836040518263ffffffff1660e01b81526004016000604051808303818588803b158015611e0857600080fd5b505af1158015611e1c573d6000803e3d6000fd5b5050505050611e407382af49447d8a07e3bd95bd0d56f35241523fbab18484612951565b6107b5565b6040516001600160a01b0384169083156108fc029084906000818181858888f193505050501580156109a2573d6000803e3d6000fd5b600080846001600160a01b03166370a08231306040518263ffffffff1660e01b815260040180826001600160a01b0316815260200191505060206040518083038186803b158015611ecb57600080fd5b505afa158015611edf573d6000803e3d6000fd5b505050506040513d6020811015611ef557600080fd5b5051604080516323b872dd60e01b81526001600160a01b038781166004830152306024830152604482018790529151929350908716916323b872dd9160648082019260009290919082900301818387803b158015611f5257600080fd5b505af1158015611f66573d6000803e3d6000fd5b50505050611f72612ce7565b6000856001600160a01b03166370a08231306040518263ffffffff1660e01b815260040180826001600160a01b0316815260200191505060206040518083038186803b158015611fc157600080fd5b505afa158015611fd5573d6000803e3d6000fd5b505050506040513d6020811015611feb57600080fd5b50519050611ff98183612d54565b9695505050505050565b6000806120108486612d69565b905061201c8382612d99565b9150612029878784612dbb565b612034868383612e3b565b83516120409086612f3f565b5095945050505050565b6000806109b6601d611d7a565b600881901c60ff9091161b90565b600061108e6ec097ce7bc90715b34b9f10000000006120918560000151856111a390919063ffffffff16565b90612f94565b61209f6142de565b60006120a9612fc5565b6000858152602082815260408083208715158452825291829020825160a08101845281546001600160a01b038116825260ff600160a01b82048116151594830194909452600160b01b81048416600a0a9482019490945293945092916060830191600160a81b90910416600581111561211e57fe5b8152600060209091015295945050505050565b815160405163db006a7560e01b8152600091479183916001600160a01b03169063db006a7590612165908790600401614e22565b602060405180830381600087803b15801561217f57600080fd5b505af1158015612193573d6000803e3d6000fd5b505050506040513d601f19601f820116820180604052508101906121b79190614994565b905080156121d75760405162461bcd60e51b815260040161025890614c73565b47611ff98184612d54565b60008083600001516001600160a01b03166370a08231306040518263ffffffff1660e01b81526004016122159190614a2a565b60206040518083038186803b15801561222d57600080fd5b505afa158015612241573d6000803e3d6000fd5b505050506040513d601f19601f820116820180604052508101906122659190614994565b9050600085600001516001600160a01b031663db006a75856040518263ffffffff1660e01b81526004016122999190614e22565b602060405180830381600087803b1580156122b357600080fd5b505af11580156122c7573d6000803e3d6000fd5b505050506040513d601f19601f820116820180604052508101906122eb9190614994565b9050801561230b5760405162461bcd60e51b815260040161025890614c73565b84516040516370a0823160e01b81526000916001600160a01b0316906370a082319061233b903090600401614a2a565b60206040518083038186803b15801561235357600080fd5b505afa158015612367573d6000803e3d6000fd5b505050506040513d601f19601f8201168201806040525081019061238b9190614994565b90506123978184612d54565b979650505050505050565b6123aa61430d565b60006123b461204a565b61ffff93841660009081526020918252604090819020805464ffffffffff81168652600160281b81046001600160581b03908116948701949094526001820154841692860192909252600160d81b820463ffffffff166060860152600160801b9091049091166080840152600201546001600160501b0380821660a0850152600160501b8204811660c0850152600160a01b82041660e0840152600160f01b900460ff1661012c02909216610100820152919050565b60008061247683612fd2565b6001600160a01b031663ef81f2166040518163ffffffff1660e01b81526004016040805180830381600087803b1580156124af57600080fd5b505af11580156124c3573d6000803e3d6000fd5b505050506040513d601f19601f820116820180604052508101906109cf91906149ac565b6124ef61430d565b60008060006124ff888689613002565b60c08b019290925260e08a019290925260208901519193509150612523908361310d565b602088015260808701516000901561255157608088015161254e906125488982612d54565b9061311f565b90505b612571612566670de0b6b3a76400008361310d565b60a08a01519061313c565b60a089015250506080860194909452505082529092909150565b600061259561204a565b60008561ffff16815260200190815260200160002090506125b98260000151613159565b815464ffffffffff191664ffffffffff9190911617815560a08201516125de90612c7c565b60028201805469ffffffffffffffffffff19166001600160501b039290921691909117905560c082015161261190612c7c565b81600201600a6101000a8154816001600160501b0302191690836001600160501b031602179055506126468260e00151612c7c565b8160020160146101000a8154816001600160501b0302191690836001600160501b0316021790555061267b826020015161316d565b81546001600160581b0391909116600160281b026fffffffffffffffffffffff00000000001990911617815560408201516126b59061316d565b6001820180546affffffffffffffffffffff19166001600160581b039290921691909117905560808201516126e99061316d565b81546001600160581b0391909116600160801b026affffffffffffffffffffff60801b19909116178155606082015161272190612c69565b815463ffffffff91909116600160d81b0263ffffffff60d81b19909116178155821561276d57600061275284610c30565b905061275e8582613183565b61276b610fee8683612dbb565b505b8361ffff167fef25641e225e493886510ca1ad6584fa7b442b9fea820a29d1de3ce27d270fd28360a001518460c001518560e001516040516127b193929190614e39565b60405180910390a250505050565b6000826127ce575060006109b6565b828202828482816127db57fe5b041461108e57600080fd5b6000806109b66006611d7a565b60008082126128035750806109b6565b8251602084015161281a91906120919085906111a3565b90506109b6565b60006305f5e1008360400151141561283a5750806109b6565b61108e6305f5e1006120918560400151856111a390919063ffffffff16565b60006128636131ba565b83516001600160a01b031660009081526020829052604090205490915080831161288e5750506107b5565b600061289986612fd2565b90506000816001600160a01b031663b5e4da238487036040518263ffffffff1660e01b81526004016128cb9190614e22565b60006040518083038186803b1580156128e357600080fd5b505afa1580156128f7573d6000803e3d6000fd5b505050506040513d6000823e601f3d908101601f1916820160405261291f919081019061464c565b9050600061292d87836131c7565b915061293b9050848261310d565b86111561294757600080fd5b5050505050505050565b826001600160a01b031663a9059cbb83836040518363ffffffff1660e01b815260040180836001600160a01b0316815260200182815260200192505050600060405180830381600087803b1580156129a857600080fd5b505af11580156129bc573d6000803e3d6000fd5b505050506107b5612ce7565b60008060006129d786856133de565b509150915060006129e6613474565b6001600160a01b0388166000908152602082905260408120919250612a0b85896114df565b905080600013158015612a2457506001600160601b0381105b612a2d57600080fd5b81546bffffffffffffffffffffffff19166001600160601b038216176fffffffffffffffffffffffffffffffff60601b1916600160601b6001600160801b0386160217825563ffffffff8710612a8257600080fd5b50805463ffffffff8716600160e01b026001600160e01b03909116179055509150509392505050565b60e084015160009015612b6c5773__MigrateIncentives_____________________63e0c01a7285612ae08860400151610af4565b8860e001518961010001516040518563ffffffff1660e01b8152600401612b0a9493929190614be4565b60206040518083038186803b158015612b2257600080fd5b505af4158015612b36573d6000803e3d6000fd5b505050506040513d601f19601f82011682018060405250810190612b5a9190614994565b600060e0870181905261010087015290505b612bae612ba7866101000151612ba1670de0b6b3a7640000612b9b88612b958c60400151610af4565b906127bf565b90613481565b90612d54565b829061310d565b9050612bc6670de0b6b3a7640000612b9b84866127bf565b85610100018181525050949350505050565b600080612be3611d93565b6001600160a01b0384166000908152602082905260409020805491925090600160f81b900460ff1615612c3f57612c186134a0565b6001600160a01b0380861660009081526020929092526040909120541692506108bd915050565b6000925050506108bd565b61049873019be259bc299f3f653688c7655c87f998bc7bc18383612951565b600063ffffffff821115610b0357600080fd5b60006001600160501b03821115610b0357600080fd5b6000612c9e86836134ad565b9050611b49868686612cb087866134ec565b613573565b60006a7fffffffffffffffffffff198212801590612cde57506a7fffffffffffffffffffff8213155b610b0357600080fd5b6000612cf1614359565b3d8015612d055760208114612d0e57600080fd5b60019250612d19565b60206000833e815192505b5081610498576040805162461bcd60e51b8152602060048201526005602482015264045524332360dc1b604482015290519081900360640190fd5b600082821115612d6357600080fd5b50900390565b60006305f5e10083604001511415612d825750806109b6565b604083015161108e90612091846305f5e1006111a3565b815160009061108e90612091846ec097ce7bc90715b34b9f10000000006111a3565b6000612dc561156e565b61ffff8416600090815260209190915260409081902054905163ad1c095d60e01b81526001600160a01b039091169150819063ad1c095d90612e0d9087908690600401614b41565b600060405180830381600087803b158015612e2757600080fd5b505af1158015612947573d6000803e3d6000fd5b6000612e4561204a565b61ffff8516600090815260209190915260409020805490915064ffffffffff164214612e7057600080fd5b8054600090612e8f90600160281b90046001600160581b0316856114df565b8254909150600090612eb190600160801b90046001600160581b0316856114df565b905080624c4b401315612ec357600080fd5b612ed4612ecf82610af4565b61316d565b83546001600160581b0391909116600160801b026affffffffffffffffffffff60801b19909116178355612f0a612ecf83610af4565b83546001600160581b0391909116600160281b026fffffffffffffffffffffff000000000019909116178355610eb9836135a7565b6000612f496131ba565b6001600160a01b038416600090815260208290526040902054909150612f7261038582856114df565b6001600160a01b03909416600090815260209290925250604090209190915550565b600081600019148015612faa5750600160ff1b83145b15612fb457600080fd5b818381612fbd57fe5b059392505050565b6000806109b66007611d7a565b600080612fdd613672565b61ffff939093166000908152602093909352505060409020546001600160a01b031690565b600080600080600080613015898861367f565b8951909550919350915060009061303c90613031908b90612d54565b633b9aca00906127bf565b905061307661306b6301da9c0061305385856127bf565b8161305a57fe5b670de0b6b3a764000091900461310d565b60e08a01519061313c565b965061309861308d6301da9c0061305387856127bf565b60c08a01519061313c565b9550818314156130af575060009350613104915050565b60006130d16130c66301da9c0061305387866127bf565b60e08b01519061313c565b905060006130df8983612d54565b90506130fc88612b9b838d604001516127bf90919063ffffffff16565b965050505050505b93509350935093565b60008282018381101561108e57600080fd5b600061108e61313684670de0b6b3a76400006127bf565b83613481565b600061108e61314b84846127bf565b670de0b6b3a7640000613481565b600064ffffffffff821115610b0357600080fd5b60006001600160581b03821115610b0357600080fd5b600081121561319157600080fd5b600061319f610fee84613719565b90506131ab81836114df565b90506107b5610fee8483613772565b6000806109b66026611d7a565b60008060005b83518110156133d65760008482815181106131e457fe5b60200260200101519050600081606001516001600160a01b03166370a08231306040518263ffffffff1660e01b81526004016132209190614a2a565b60206040518083038186803b15801561323857600080fd5b505afa15801561324c573d6000803e3d6000fd5b505050506040513d601f19601f820116820180604052508101906132709190614994565b9050600061327e88306137e6565b905060005b8351518110156132da576132c9846000015182815181106132a057fe5b60200260200101516000866020015184815181106132ba57fe5b60200260200101516001613890565b6132d257600196505b600101613283565b5060006132e789306137e6565b905060006132f58284612d54565b9050808560400151111561330857600080fd5b60608501516040516370a0823160e01b81526000916001600160a01b0316906370a082319061333b903090600401614a2a565b60206040518083038186803b15801561335357600080fd5b505afa158015613367573d6000803e3d6000fd5b505050506040513d601f19601f8201168201806040525081019061338b9190614994565b90508481111561339a57600080fd5b6133a986606001518683613afe565b6133b3888361310d565b97506133c48b600001518585613afe565b5050600190940193506131cd92505050565b509250929050565b60008060006133ec85613b7b565b9194509250905080841180156134025750600081115b801561340e5750600083115b1561346d57600061341e866113b4565b50505091505060006134496134406305f5e100846127bf90919063ffffffff16565b84880387613bd7565b9050613455848261310d565b93506001600160801b03841061346a57600080fd5b50505b9250925092565b6000806109b66011611d7a565b600080821161348f57600080fd5b81838161349857fe5b049392505050565b6000806109b66012611d7a565b6000808212156134e6576134e160016134db85602001516120918760000151876111a390919063ffffffff16565b90613bf9565b61108e565b50919050565b600081831480613509575060008312158015613509575060008212155b15613516575060006109b6565b600083131580156135275750816000125b156135335750816109b6565b600082131580156135445750826000125b156135525761281a826109a8565b60008313158015613564575060008213155b1561009c5761281a8383613bf9565b80156109a25783516020850151600091613592916120919085906111a3565b90506135a084848484613c0f565b5050505050565b805460028201546000916135e991600160281b9091046001600160581b0316906135e3906001600160501b03600160501b8204811691166111a3565b906111a3565b60018301546002840154919250600091613623916001600160581b0316906135e3906001600160501b03600160a01b8204811691166111a3565b835490915060009061365a9060016001600160581b03600160801b909204821601166ec097ce7bc90715b34b9f10000000006111a3565b9050806136678484613bf9565b13156109a257600080fd5b6000806109b6601f611d7a565b6000806000806000856020015111156136cc576136c96136b08660c0015187602001516127bf90919063ffffffff16565b60e087015160408801516136c3916127bf565b90613d55565b90505b60006136d787613d68565b90506136e38183613d9b565b945081156136fa576136f781866001613e54565b93505b60208601511561346a5761370e8583613ec5565b925050509250925092565b6000806137246127e6565b6001600160a01b03851660009081526020828152604080832061ffff8816845290915281208054600160a81b9004600a90810b900b945091925083121561376a57600080fd5b505092915050565b600081121561378057600080fd5b600061378a6127e6565b6001600160a01b03851660009081526020828152604080832061ffff8816845290915290209091506137bb83612cb5565b8154600a9190910b6001600160581b0316600160a81b026001600160a81b0390911617905550505050565b60006003836060015160058111156137fa57fe5b141561381157506001600160a01b038116316109b6565b82516040516370a0823160e01b81526001600160a01b03909116906370a0823190613840908590600401614a2a565b60206040518083038186803b15801561385857600080fd5b505afa15801561386c573d6000803e3d6000fd5b505050506040513d601f19601f8201168201806040525081019061281a9190614994565b6000806000866001600160a01b031686866040518082805190602001908083835b602083106138d05780518252601f1990920191602091820191016138b1565b6001836020036101000a03801982511681845116808217855250505050505090500191505060006040518083038185875af1925050503d8060008114613932576040519150601f19603f3d011682016040523d82523d6000602084013e613937565b606091505b5091509150836139da578161394b82613ede565b906139d45760405162461bcd60e51b81526004018080602001828103825283818151815260200191508051906020019080838360005b83811015613999578181015183820152602001613981565b50505050905090810190601f1680156139c65780820380516001836020036101000a031916815260200191505b509250505060405180910390fd5b50612040565b866001600160a01b03167f3c7e398c5e91088cae639370e35b25ea669d81fbdf0def5388e73661bc34e08e8787613a1085613ede565b604051808481526020018060200180602001838103835285818151815260200191508051906020019080838360005b83811015613a57578181015183820152602001613a3f565b50505050905090810190601f168015613a845780820380516001836020036101000a031916815260200191505b50838103825284518152845160209182019186019080838360005b83811015613ab7578181015183820152602001613a9f565b50505050905090810190601f168015613ae45780820380516001836020036101000a031916815260200191505b509550505050505060405180910390a25095945050505050565b6000613b086131ba565b6001600160a01b03851660009081526020829052604090205490915083811115613b3157600080fd5b6000613b48613b3f86610c30565b6134db86610c30565b9050613b5761038583836114df565b6001600160a01b039096166000908152602093909352505060409020929092555050565b600080600080613b89613474565b6001600160a01b0395909516600090815260209590955250506040909220546001600160601b03811693600160601b82046001600160801b03169350600160e01b90910463ffffffff169150565b60006109cf82612b9b6301da9c008188612b9589670de0b6b3a76400006127bf565b808203828113156000831215146109b657600080fd5b6000613c1961204a565b61ffff8516600090815260209190915260409020805490915064ffffffffff164214613c4457600080fd5b8054600160f81b900460ff16613c5957600080fd5b6001810154600090613c74906001600160581b0316856114df565b8254909150600090613c9690600160281b90046001600160581b0316856114df565b905081600919128015613ca95750600082125b15613cb357600091505b80600919128015613cc45750600081125b15613ccd575060005b613cd9612ecf83610af4565b6001840180546affffffffffffffffffffff19166001600160581b0392909216919091179055613d0b612ecf82610af4565b83546001600160581b0391909116600160281b026fffffffffffffffffffffff000000000019909116178355613d4387878688613fe5565b613d4c836135a7565b50505050505050565b600061108e61313684633b9aca006127bf565b613d70614377565b6000613d7a6140bf565b61ffff84166000908152602091909152604081205491506108b990826140cc565b600080836080015111613dad57600080fd5b633b9aca00821115613dbe57600080fd5b82518211613ddd578251604084015161281a9190612b9b9085906127bf565b82602001518211613e1b57604083015183516020850151606086015161281a9392613e159281900391612b9b918803908590036127bf565b9061310d565b61108e8360600151613e158560200151633b9aca0003612b9b8760600151886080015103886020015188036127bf90919063ffffffff16565b600080613e736064612b9b8760e00151876127bf90919063ffffffff16565b90508460a00151811015613e88575060a08401515b8460c00151811115613e9b575060c08401515b8215613eab57611089848261310d565b838111613eba57808403611089565b600095945050505050565b600061108e613ed484846127bf565b633b9aca00613481565b6060604482511015613f14575060408051808201909152600d81526c14da5b195b9d0814995d995c9d609a1b60208201526108bd565b6004820180519092602401906020811015613f2e57600080fd5b8101908080516040519392919084640100000000821115613f4e57600080fd5b908301906020820185811115613f6357600080fd5b8251640100000000811182820188101715613f7d57600080fd5b82525081516020918201929091019080838360005b83811015613faa578181015183820152602001613f92565b50505050905090810190601f168015613fd75780820380516001836020036101000a031916815260200191505b506040525050509050919050565b6000613fef61156e565b61ffff8516600090815260209190915260408120546001600160a01b031691506140176141eb565b61ffff8616600090815260209190915260409081902054905163ad1c095d60e01b81526001600160a01b039091169150819063ad1c095d9061405f9089908790600401614b41565b600060405180830381600087803b15801561407957600080fd5b505af115801561408d573d6000803e3d6000fd5b505060405163ad1c095d60e01b81526001600160a01b038516925063ad1c095d9150610e869089908890600401614b41565b6000806109b6601b611d7a565b6140d4614377565b6064633b9aca008360ff8616602081106140ea57fe5b1a02816140f357fe5b0481526064633b9aca008360ff86166001016020811061410f57fe5b1a028161411857fe5b0481602001818152505061413d8260028560ff16016020811061413757fe5b1a6141f8565b60808201819052610100908360ff86166003016020811061415a57fe5b1a028161416357fe5b0460408201526080810151610100908360ff86166004016020811061418457fe5b1a028161418d57fe5b0460608201526207a1208260ff8516600501602081106141a957fe5b1a0260a0820152622625a08260ff8516600601602081106141c657fe5b1a0260c08201528160ff8416600701602081106141df57fe5b1a60e082015292915050565b6000806109b66022611d7a565b60008160ff166096106142135760ff8216622625a0026109b6565b5060951960ff919091160162e4e1c00263165a0bc00190565b604051806101400160405280600061ffff16815260200160008152602001600081526020016000815260200160008152602001600081526020016000815260200160008152602001600081526020016142836142bd565b905290565b6040805160c081018252600080825260208201819052918101829052606081018290526080810182905260a081019190915290565b60405180606001604052806000815260200160008152602001600081525090565b6040805160a0810182526000808252602082018190529181018290529060608201908152602001600081525090565b6040518061012001604052806000815260200160008152602001600081526020016000815260200160008152602001600081526020016000815260200160008152602001600081525090565b60405180602001604052806001906020820280368337509192915050565b60405180610100016040528060008152602001600081526020016000815260200160008152602001600081526020016000815260200160008152602001600081525090565b80516108bd81614e91565b600082601f8301126143d7578081fd5b815160206143ec6143e783614e73565b614e4f565b8281528181019085830183850287018401881015614408578586fd5b855b8581101561442f57815161441d81614e91565b8452928401929084019060010161440a565b5090979650505050505050565b6000601f838184011261444d578182fd5b8251602061445d6143e783614e73565b82815281810190868301865b8581101561450157815189018a603f820112614483578889fd5b8581015167ffffffffffffffff81111561449957fe5b6144aa818a01601f19168801614e4f565b8181528c60408385010111156144be578a8bfd5b8a5b828110156144dc57838101604001518282018a015288016144c0565b828111156144ec578b8984840101525b50865250509284019290840190600101614469565b509098975050505050505050565b80516108bd81614ea9565b80516001600160701b0319811681146108bd57600080fd5b80516001600160f81b0319811681146108bd57600080fd5b8051600481106108bd57600080fd5b80516108bd81614eb7565b805160ff811681146108bd57600080fd5b600060208284031215614586578081fd5b813561108e81614e91565b6000806000606084860312156145a5578182fd5b83356145b081614e91565b925060208401356145c081614eb7565b929592945050506040919091013590565b600080600080600060a086880312156145e8578283fd5b85356145f381614e91565b9450602086013561460381614eb7565b935060408601356001600160601b038116811461461e578384fd5b9250606086013561462e81614ea9565b9150608086013561463e81614ea9565b809150509295509295909350565b6000602080838503121561465e578182fd5b825167ffffffffffffffff80821115614675578384fd5b818501915085601f830112614688578384fd5b81516146966143e782614e73565b81815284810190848601875b8481101561474b57815187016080818d03601f190112156146c157898afd5b60408051608081018181108a821117156146d757fe5b8252828b0151898111156146e9578c8dfd5b6146f78f8d838701016143c7565b825250818301518981111561470a578c8dfd5b6147188f8d8387010161443c565b8c83015250606083015182820152614732608084016143bc565b60608201528652505092870192908701906001016146a2565b50909998505050505050505050565b60006020828403121561476b578081fd5b813561108e81614ea9565b6000806040808486031215614789578283fd5b8351925060208085015167ffffffffffffffff808211156147a8578485fd5b818701915087601f8301126147bb578485fd5b81516147c96143e782614e73565b8181528481019084860160c0808502870188018d10156147e757898afd5b8996505b8487101561486e5780828e03121561480157898afd5b8851818101818110888211171561481457fe5b8a52825161482181614eb7565b81528289015189820152898301518a820152606080840151908201526080808401519082015260a061485481850161454a565b9082015284526001969096019592870192908101906147eb565b50989b909a5098505050505050505050565b600060c08284031215614891578081fd5b60405160c0810181811067ffffffffffffffff821117156148ae57fe5b604052825164ffffffffff811681146148c5578283fd5b81526148d360208401614532565b60208201526148e460408401614564565b60408201526148f560608401614559565b60608201526149066080840161451a565b608082015261491760a0840161450f565b60a08201529392505050565b600060208284031215614934578081fd5b813561108e81614eb7565b600080600060608486031215614953578081fd5b833561495e81614eb7565b925060208401356001600160581b0381168114614979578182fd5b9150604084013561498981614ea9565b809150509250925092565b6000602082840312156149a5578081fd5b5051919050565b600080604083850312156149be578182fd5b505080516020909101519092909150565b805164ffffffffff1682526020808201516001600160f81b0319169083015260408082015160ff169083015260608082015161ffff16908301526080808201516001600160701b0319169083015260a0908101511515910152565b6001600160a01b0391909116815260200190565b6001600160a01b03948516815292841660208401529083166040830152909116606082015260800190565b600061012080830160018060a01b03808916855260208189168187015260409150614a96828701896149cf565b61010086019390935285519182905261014085019280870192855b81811015614b0d578451805161ffff16875283810151848801528481015185880152606080820151908801526080808201519088015260a0908101519060048210614af857fe5b87015260c09095019493820193600101614ab1565b50939a9950505050505050505050565b6001600160a01b039384168152919092166020820152604081019190915260600190565b6001600160a01b03929092168252602082015260400190565b6001600160a01b038316815260e0810161108e60208301846149cf565b6001600160a01b0395909516855261ffff9390931660208501526040840191909152151560608301521515608082015260a00190565b6001600160a01b0396909616865261ffff94909416602086015260408501929092526060840152608083015260a082015260c00190565b6001600160a01b0394909416845260208401929092526040830152606082015260800190565b901515815260200190565b9182521515602082015260400190565b6020808252600f908201526e04f76657220537570706c792043617608c1b604082015260600190565b6020808252600b908201526a4554482042616c616e636560a81b604082015260600190565b60208082526006908201526552656465656d60d01b604082015260600190565b60208082526012908201527143616e6e6f7420686176652061737365747360701b604082015260600190565b6020808252601390820152722ab730baba3437b934bd32b21031b0b63632b960691b604082015260600190565b6020808252600f908201526e4e6f205072696d6520426f72726f7760881b604082015260600190565b6020808252601c908201527f446570726563617465643a2052656465656d20746f2063546f6b656e00000000604082015260600190565b602080825260149082015273043616e6e6f74206368616e6765206269746d61760641b604082015260600190565b60208082526010908201526f10d85b9b9bdd081a185d99481919589d60821b604082015260600190565b6020808252600a90820152692732b390372a37b5b2b760b11b604082015260600190565b602080825260139082015272125b9d985b1a590818dd5c9c995b98de481a59606a1b604082015260600190565b602080825260139082015272496e73756666696369656e7420746f6b656e7360681b604082015260600190565b90815260200190565b918252602082015260400190565b9283526020830191909152604082015260600190565b60405181810167ffffffffffffffff81118282101715614e6b57fe5b604052919050565b600067ffffffffffffffff821115614e8757fe5b5060209081020190565b6001600160a01b0381168114614ea657600080fd5b50565b8015158114614ea657600080fd5b61ffff81168114614ea657600080fdfea2646970667358221220cdf4e5d3ead837a6315abf21bf2415f3ecb388d033ada8efdeba5899898b278e64736f6c63430007060033","bytecodeSha1":"ea99f51716f1912e539020015479e50e5deb28ba","compiler":{"evm_version":"istanbul","optimizer":{"enabled":true,"runs":200},"version":"0.7.6+commit.7338295f"},"contractName":"AccountAction","deployedBytecode":"60806040526004361061009c5760003560e01c80638246336711610064578063824633671461015c5780638da5cb5b146101715780639c97945014610186578063b8a69455146101a6578063c4c96dae146101c6578063f667f897146101eb5761009c565b806302f332e8146100a157806324a3d622146100d75780632890fb65146100f957806361d0d61c1461010c578063668906431461012e575b600080fd5b3480156100ad57600080fd5b506100c16100bc36600461493f565b610218565b6040516100ce9190614e22565b60405180910390f35b3480156100e357600080fd5b506100ec61039a565b6040516100ce9190614a2a565b6100c1610107366004614591565b6103a9565b34801561011857600080fd5b5061012c61012736600461475a565b610462565b005b34801561013a57600080fd5b5061014e6101493660046145d1565b61049c565b6040516100ce929190614c15565b34801561016857600080fd5b506100ec610747565b34801561017d57600080fd5b506100ec610756565b34801561019257600080fd5b5061012c6101a1366004614923565b61076d565b3480156101b257600080fd5b506100c16101c1366004614591565b6107ba565b3480156101d257600080fd5b506101db610834565b6040516100ce9493929190614a3e565b3480156101f757600080fd5b5061020b610206366004614575565b61088e565b6040516100ce9190614c0a565b60006002600a54141561022a57600080fd5b6002600a5561ffff841660011461026157816102615760405162461bcd60e51b815260040161025890614d15565b60405180910390fd5b600061026c336108c2565b50905061027761422c565b61028381338885610987565b6001600160581b0385811614156102bc5760008160200151136102a557600080fd5b6102b281602001516109a8565b60808201526102d4565b6102ce856001600160581b03166109a8565b60808201525b60006102e382338588156109bc565b90506102ef83336109d7565b60208301516001600160f81b0319161561036b57604051636ccc642f60e01b815273__$841fddfe32830bb6dbc3a02d7f16c53722$__90636ccc642f9061033a903390600401614a2a565b60006040518083038186803b15801561035257600080fd5b505af4158015610366573d6000803e3d6000fd5b505050505b600081131561037957600080fd5b61038a610385826109a8565b610af4565b6001600a55979650505050505050565b6002546001600160a01b031681565b60006002600a5414156103bb57600080fd5b6002600a55333014156103cd57600080fd5b336001600160a01b038516146103e257600080fd5b6103eb84610b07565b60006103f685610b82565b905061040061422c565b61040c81878785610987565b60006104258761041b87610c30565b8491906000610c46565b90506000811361043457600080fd5b61043f828885610c98565b61044983886109d7565b6101208201516104599087610cb6565b61038a81610af4565b3330141561046f57600080fd5b61047833610b07565b6000610483336108c2565b5082151560a0820152905061049881336109d7565b5050565b6000806002600a5414156104af57600080fd5b6002600a55336001600160a01b03881614806104ca57503330145b6104e65760405162461bcd60e51b815260040161025890614cbf565b6001600160601b03851660006104fb896108c2565b50905061050661422c565b610512818b8b85610987565b82816040015112156105365760405162461bcd60e51b815260040161025890614df5565b61053f836109a8565b60c082015260405163b853e45760e01b8152600090819073__$43fd92ea4ea9b72ca0014644dbfd757564$__9063b853e45790610588908f908f908a908f908f90600401614b77565b60006040518083038186803b1580156105a057600080fd5b505af41580156105b4573d6000803e3d6000fd5b505050506040513d6000823e601f3d908101601f191682016040526105dc9190810190614776565b6060850182905290925090506105f3838d86610c98565b80511561069c5760006106098c61ffff16610cf7565b905073__$f6541b0d362a0c7d99a2a29cd3d373d61b$__63c108fc268e8388866040518563ffffffff1660e01b81526004016106489493929190614a69565b60c06040518083038186803b15801561066057600080fd5b505af4158015610674573d6000803e3d6000fd5b505050506040513d601f19601f820116820180604052508101906106989190614880565b9450505b6106a6848d6109d7565b60208401516001600160f81b0319161561072257604051636ccc642f60e01b815273__$841fddfe32830bb6dbc3a02d7f16c53722$__90636ccc642f906106f1908f90600401614a2a565b60006040518083038186803b15801561070957600080fd5b505af415801561071d573d6000803e3d6000fd5b505050505b61072e8c8c8488610d1d565b516001600a55909b9015159a5098505050505050505050565b6001546001600160a01b031681565b60005464010000000090046001600160a01b031681565b3330141561077a57600080fd5b60005461ffff908116908216111561079157600080fd5b33600061079d826108c2565b5090506107ab818442610ec1565b6107b581836109d7565b505050565b60006002600a5414156107cc57600080fd5b6002600a55333014156107de57600080fd5b336001600160a01b038516146107f357600080fd5b6107fc84610b07565b600061080785610b82565b905061081161422c565b61081d81878785610987565b60006104258761082c87610c30565b849190610fb9565b73__$841fddfe32830bb6dbc3a02d7f16c53722$__73__$b21a4dc043b77aa57922ad9143a3cb040e$__73__$f6541b0d362a0c7d99a2a29cd3d373d61b$__73__$43fd92ea4ea9b72ca0014644dbfd757564$__90919293565b600061089982610b07565b6000806108a5846108c2565b9150915080156108b9576108b982856109d7565b9150505b919050565b6108ca614288565b6000806108d684610b82565b90506108e181611095565b1561097b576040516337b5fc2160e11b815273__$f6541b0d362a0c7d99a2a29cd3d373d61b$__90636f6bf8429061091f9087908590600401614b5a565b60c06040518083038186803b15801561093757600080fd5b505af415801561094b573d6000803e3d6000fd5b505050506040513d601f19601f8201168201806040525081019061096f9190614880565b60019250925050610982565b9150600090505b915091565b610990826110e9565b6101208501526109a2848484846110fb565b50505050565b60006109b6600019836111a3565b92915050565b60006109cc8585858560016111f1565b90505b949350505050565b60006109e16113a7565b6001600160a01b03831660008181526020838152604080832088518154938a01518a84015160608c015160808d015160a08e015164ffffffffff1990981664ffffffffff9095169490941765ff00000000001916600160281b60f89490941c939093029290921766ff0000000000001916600160301b60ff909216919091021768ffff000000000000001916600160381b61ffff90921691909102177affffffffffffffffffffffffffffffffffff0000000000000000001916600160481b60709290921c919091021760ff60d81b1916600160d81b93151593909302929092179091555192935090917f6bd4b121bca854a191536a2ca891155c42ee2fb23f307fb34e8bc65cfcb5412e9190a2505050565b600080821215610b0357600080fd5b5090565b6001600160a01b038116610b1a57600080fd5b6001600160a01b038116610fee1415610b3257600080fd5b6001600160a01b0381166105e71415610b4a57600080fd5b6001600160a01b038116301415610b6057600080fd5b6000610b6b826113b4565b5050505061ffff1690508060001461049857600080fd5b610b8a614288565b6000610b946113a7565b6001600160a01b03841660009081526020918252604090819020815160c081018352905464ffffffffff811682526001600160f81b0319600160281b820460f81b169382019390935260ff600160301b840481169282019290925261ffff600160381b84041660608201526001600160701b0319600160481b840460701b166080820152600160d81b90920416151560a0820152915050919050565b60006001600160ff1b03821115610b0357600080fd5b600082610c55575060006109cf565b60008313610c6257600080fd5b610c78848660000151858861012001518661141d565b6060870151909250610c8b9150826114df565b6060860152949350505050565b608083015115610ca757600080fd5b6109a2838383600060016111f1565b600080610cc384846114f5565b915091508160001415610cd7575050610498565b818111156109a25760405162461bcd60e51b815260040161025890614c25565b600080610d02611561565b6000938452602052505060409020546001600160a01b031690565b6000610d2761156e565b61ffff8516600090815260209190915260408120546001600160a01b03169150610d4f611561565b61ffff8616600090815260209190915260408120546001600160a01b0316915084138015610d7d5750600083135b15610eb9576040516323de665160e01b81526001600160a01b038316906323de665190610db29084908a908990600401614b1d565b600060405180830381600087803b158015610dcc57600080fd5b505af1158015610de0573d6000803e3d6000fd5b50505050610ded8561157b565b15610e505760006001600160a01b038716337fc3d58168c5ae7397731d063d5bbf3d657854427343f4c083240f7aacaa2d0f62610e2989611598565b610e35610385896115ae565b604051610e43929190614e2b565b60405180910390a4610eb9565b806001600160a01b031663ad1c095d87610e69866109a8565b6040518363ffffffff1660e01b8152600401610e86929190614b41565b600060405180830381600087803b158015610ea057600080fd5b505af1158015610eb4573d6000803e3d6000fd5b505050505b505050505050565b610eca836115cf565b15610ee75760405162461bcd60e51b815260040161025890614d4c565b8161ffff166000108015610f015750613fff61ffff831611155b610f1d5760405162461bcd60e51b815260040161025890614dc8565b604083015160ff1615610f425760405162461bcd60e51b815260040161025890614c93565b60208301516001600160f81b03191615610f6e5760405162461bcd60e51b815260040161025890614d7a565b610f838361ffff84166000600160fe1b6115dc565b61ffff821660608401526000610f98826117e2565b905064ffffffffff8110610fab57600080fd5b64ffffffffff169092525050565b600081610fc85750600061108e565b60008213610fd557600080fd5b6000610fe8856000015161ffff16611800565b80519091506001600160a01b0316610fff57600080fd5b60018160600151600581111561101157fe5b148061102c575060028160600151600581111561102a57fe5b145b1561106457845161012086015161104891839186908890611813565b606086015190925061105a90836114df565b606086015261108c565b60048160600151600581111561107657fe5b141561009c576110898585856000610c46565b91505b505b9392505050565b6000426110a1836115cf565b156110c2576110af816117e2565b835164ffffffffff161091506108bd9050565b825164ffffffffff16158015906110e15750825164ffffffffff168110155b9150506108bd565b6110f16142bd565b6109b682426118a4565b8161ffff1660001080156111155750613fff61ffff831611155b61111e57600080fd5b61ffff8216808552611131908290611965565b156111605761114683838661012001516119ef565b61010088015260e08701526040860152602085015261117e565b6000602085018190526040850181905260e085018190526101008501525b50506000606083018190526080830181905260a0830181905260c09092019190915250565b8181026000198314156111d3578115806111c55750828282816111c257fe5b05145b6111ce57600080fd5b6109b6565b8215806111e85750818382816111e557fe5b05145b6109b657600080fd5b60008061120e86886000015189608001518a610120015188611aa9565b9150600061122d886080015189606001516114df90919063ffffffff16565b905083801561123c5750600081125b80156112575750602088015160009061125590836114df565b125b1561127d578560a0015161127d5760405162461bcd60e51b815260040161025890614cec565b801561129c57602088015161129290826114df565b6020890152600191505b60a08801511515806112b1575060c088015115155b1561131a5760006112e18960c001516112db8b60a001518c604001516114df90919063ffffffff16565b906114df565b905060008112156113045760405162461bcd60e51b815260040161025890614da4565b61130f898983611b52565b506040890152600191505b8115611349576113498789600001518a602001518b604001518c60e001518d61010001518e6101200151611c3f565b875160208901516113769161ffff1690151580611369575060408a015115155b889190600160fe1b6115dc565b60008860200151121561139c57602086018051600160f91b176001600160f81b03191690525b505095945050505050565b6000806109b66001611d7a565b6000806000806000806113c5611d93565b6001600160a01b039097166000908152602097909752505060409094205461ffff81169563ffffffff62010000830481169650600160301b830416945060ff600160501b8304169350600160581b90910460d81b9150565b600080600061142b86610af4565b90508061143f5760008092509250506114d5565b600061144e8861ffff16611da0565b905060038160600151600581111561146257fe5b14156114a957348210156114825761147d8983340387611db3565b6114a1565b3482146114a15760405162461bcd60e51b815260040161025890614c4e565b8693506114c3565b6114c06114bb82600001518b85611e7b565b610c30565b93505b6114d0898986848a612003565b925050505b9550959350505050565b818101828112156000831215146109b657600080fd5b600080600061150261204a565b61ffff8516600090815260209190915260409020600181015490915061153490600160581b900463ffffffff16612057565b8154909350600160281b90046001600160581b03166115566103858783612065565b925050509250929050565b6000806109b66003611d7a565b6000806109b66021611d7a565b6000466001811480156108b957505050600461ffff909116111590565b600c60309190911b67ffff000000000000161790565b6000808212156115c8576115c1826109a8565b90506108bd565b50806108bd565b6060015161ffff16151590565b8260001080156115ee5750613fff8311155b6115f757600080fd5b81801561160b575082846060015161ffff16145b15611615576109a2565b6080840151600090815b6001600160701b03198216156117975760f082901c613fff1686811480156116445750855b1561167c57506080870180516001600160f01b0319861660109093029290921c919091176001600160701b0319169052506109a29050565b8681148015611689575085155b156116e5576001600160f01b03198516199290921691600360fe1b83166116c3576010836dffffffffffffffffffffffffffff1916901b92505b506001600160701b031991821660109091021c919091171660808501526109a2565b86811180156116f15750855b1561174b576080888101516001600160f01b031960f08a901b88178116601086021c9690961795911b161561172557600080fd5b506001600160701b03199182166001919091016010021c919091171660808501526109a2565b8681118015611758575085155b1561176657505050506109a2565b506001600160f01b0319821660108281029190911c93909317929190911b6001600160801b0319169060010161161f565b846117a4575050506109a2565b600981106117b157600080fd5b6001600160f01b031960f087901b85171660109091021c919091176001600160701b03191660808601525050505050565b6000620151808210156117f457600080fd5b50620151808106900390565b6118086142de565b6109b6826000612097565b600061182486600001518486611e7b565b935060006118358661ffff16611da0565b9050600060028860600151600581111561184b57fe5b14156118655761185e6114bb8988612131565b905061188b565b60018860600151600581111561187757fe5b141561009c5761185e6114bb8984896121e2565b6118988588838588612003565b98975050505050505050565b6118ac6142bd565b60006118b7846123a2565b905082816000015110156118f6576000806118d18661246a565b90506118df868483886124e7565b90935091506118ef86838561258b565b5050611903565b8051831461190357600080fd5b604051806060016040528061192c6114bb8460a001518560c001516127bf90919063ffffffff16565b815260200161194f6114bb8460a001518560e001516127bf90919063ffffffff16565b8152602001826060015181525091505092915050565b600081158015906119785750613fff8211155b61198157600080fd5b6080830151606084015161ffff168314156119a05760019150506109b6565b6001600160701b03198116156119e55760f081901c613fff16838114156119d25750600160fe1b9081161490506109b6565b5060101b6001600160801b0319166119a0565b5060009392505050565b60008060008060006119ff6127e6565b6001600160a01b03891660009081526020828152604080832061ffff8c168452909152902080546001600160501b0381169650600160501b900463ffffffff1694509091508315611a6c578054611a6590600160701b900466ffffffffffffff16612057565b9250611a81565b8054600160701b900466ffffffffffffff1692505b8054611a9c908890600160a81b9004600a90810b900b6127f3565b9550505093509350935093565b600083611ab857506000611b49565b60008412611ac557600080fd5b6000611ad48661ffff16611da0565b9050611ae981611ae48688612065565b612821565b91506000611af6836109a8565b9050611b03878383612859565b600382606001516005811115611b1557fe5b1415611b2b57611b26888286611db3565b611b38565b8151611b38908983612951565b611b458888858589612003565b5050505b95945050505050565b825160009042908290611b689061ffff16610cf7565b90506000611b7b828860c00151856129c8565b9050611b8987838388612aab565b93506000611b9683612bd8565b90506001600160a01b03811615611c2457806001600160a01b0316631d684dd2888a60000151611bc98c60400151610af4565b8a8d60c001518b6040518763ffffffff1660e01b8152600401611bf196959493929190614bad565b600060405180830381600087803b158015611c0b57600080fd5b505af1158015611c1f573d6000803e3d6000fd5b505050505b8415611c3457611c348786612c4a565b505050509392505050565b6000611c496127e6565b6001600160a01b03891660009081526020828152604080832061ffff8c168452909152902090915084611cb15766ffffffffffffff841115611c8a57600080fd5b805466ffffffffffffff60701b1916600160701b66ffffffffffffff861602178155611ccb565b8054600160501b900463ffffffff168514611ccb57600080fd5b611cd485612c69565b815463ffffffff91909116600160501b0263ffffffff60501b19909116178155611d05611d0087610af4565b612c7c565b815469ffffffffffffffffffff19166001600160501b039190911617808255611d4b90611d469085908c908c90600160a81b9004600a90810b900b8c612c92565b612cb5565b8154600a9190910b6001600160581b0316600160a81b026001600160a81b039091161790555050505050505050565b6000620f4240826026811115611d8c57fe5b0192915050565b6000806109b66002611d7a565b611da86142de565b6109b6826001612097565b8015611e45577382af49447d8a07e3bd95bd0d56f35241523fbab16001600160a01b031663d0e30db0836040518263ffffffff1660e01b81526004016000604051808303818588803b158015611e0857600080fd5b505af1158015611e1c573d6000803e3d6000fd5b5050505050611e407382af49447d8a07e3bd95bd0d56f35241523fbab18484612951565b6107b5565b6040516001600160a01b0384169083156108fc029084906000818181858888f193505050501580156109a2573d6000803e3d6000fd5b600080846001600160a01b03166370a08231306040518263ffffffff1660e01b815260040180826001600160a01b0316815260200191505060206040518083038186803b158015611ecb57600080fd5b505afa158015611edf573d6000803e3d6000fd5b505050506040513d6020811015611ef557600080fd5b5051604080516323b872dd60e01b81526001600160a01b038781166004830152306024830152604482018790529151929350908716916323b872dd9160648082019260009290919082900301818387803b158015611f5257600080fd5b505af1158015611f66573d6000803e3d6000fd5b50505050611f72612ce7565b6000856001600160a01b03166370a08231306040518263ffffffff1660e01b815260040180826001600160a01b0316815260200191505060206040518083038186803b158015611fc157600080fd5b505afa158015611fd5573d6000803e3d6000fd5b505050506040513d6020811015611feb57600080fd5b50519050611ff98183612d54565b9695505050505050565b6000806120108486612d69565b905061201c8382612d99565b9150612029878784612dbb565b612034868383612e3b565b83516120409086612f3f565b5095945050505050565b6000806109b6601d611d7a565b600881901c60ff9091161b90565b600061108e6ec097ce7bc90715b34b9f10000000006120918560000151856111a390919063ffffffff16565b90612f94565b61209f6142de565b60006120a9612fc5565b6000858152602082815260408083208715158452825291829020825160a08101845281546001600160a01b038116825260ff600160a01b82048116151594830194909452600160b01b81048416600a0a9482019490945293945092916060830191600160a81b90910416600581111561211e57fe5b8152600060209091015295945050505050565b815160405163db006a7560e01b8152600091479183916001600160a01b03169063db006a7590612165908790600401614e22565b602060405180830381600087803b15801561217f57600080fd5b505af1158015612193573d6000803e3d6000fd5b505050506040513d601f19601f820116820180604052508101906121b79190614994565b905080156121d75760405162461bcd60e51b815260040161025890614c73565b47611ff98184612d54565b60008083600001516001600160a01b03166370a08231306040518263ffffffff1660e01b81526004016122159190614a2a565b60206040518083038186803b15801561222d57600080fd5b505afa158015612241573d6000803e3d6000fd5b505050506040513d601f19601f820116820180604052508101906122659190614994565b9050600085600001516001600160a01b031663db006a75856040518263ffffffff1660e01b81526004016122999190614e22565b602060405180830381600087803b1580156122b357600080fd5b505af11580156122c7573d6000803e3d6000fd5b505050506040513d601f19601f820116820180604052508101906122eb9190614994565b9050801561230b5760405162461bcd60e51b815260040161025890614c73565b84516040516370a0823160e01b81526000916001600160a01b0316906370a082319061233b903090600401614a2a565b60206040518083038186803b15801561235357600080fd5b505afa158015612367573d6000803e3d6000fd5b505050506040513d601f19601f8201168201806040525081019061238b9190614994565b90506123978184612d54565b979650505050505050565b6123aa61430d565b60006123b461204a565b61ffff93841660009081526020918252604090819020805464ffffffffff81168652600160281b81046001600160581b03908116948701949094526001820154841692860192909252600160d81b820463ffffffff166060860152600160801b9091049091166080840152600201546001600160501b0380821660a0850152600160501b8204811660c0850152600160a01b82041660e0840152600160f01b900460ff1661012c02909216610100820152919050565b60008061247683612fd2565b6001600160a01b031663ef81f2166040518163ffffffff1660e01b81526004016040805180830381600087803b1580156124af57600080fd5b505af11580156124c3573d6000803e3d6000fd5b505050506040513d601f19601f820116820180604052508101906109cf91906149ac565b6124ef61430d565b60008060006124ff888689613002565b60c08b019290925260e08a019290925260208901519193509150612523908361310d565b602088015260808701516000901561255157608088015161254e906125488982612d54565b9061311f565b90505b612571612566670de0b6b3a76400008361310d565b60a08a01519061313c565b60a089015250506080860194909452505082529092909150565b600061259561204a565b60008561ffff16815260200190815260200160002090506125b98260000151613159565b815464ffffffffff191664ffffffffff9190911617815560a08201516125de90612c7c565b60028201805469ffffffffffffffffffff19166001600160501b039290921691909117905560c082015161261190612c7c565b81600201600a6101000a8154816001600160501b0302191690836001600160501b031602179055506126468260e00151612c7c565b8160020160146101000a8154816001600160501b0302191690836001600160501b0316021790555061267b826020015161316d565b81546001600160581b0391909116600160281b026fffffffffffffffffffffff00000000001990911617815560408201516126b59061316d565b6001820180546affffffffffffffffffffff19166001600160581b039290921691909117905560808201516126e99061316d565b81546001600160581b0391909116600160801b026affffffffffffffffffffff60801b19909116178155606082015161272190612c69565b815463ffffffff91909116600160d81b0263ffffffff60d81b19909116178155821561276d57600061275284610c30565b905061275e8582613183565b61276b610fee8683612dbb565b505b8361ffff167fef25641e225e493886510ca1ad6584fa7b442b9fea820a29d1de3ce27d270fd28360a001518460c001518560e001516040516127b193929190614e39565b60405180910390a250505050565b6000826127ce575060006109b6565b828202828482816127db57fe5b041461108e57600080fd5b6000806109b66006611d7a565b60008082126128035750806109b6565b8251602084015161281a91906120919085906111a3565b90506109b6565b60006305f5e1008360400151141561283a5750806109b6565b61108e6305f5e1006120918560400151856111a390919063ffffffff16565b60006128636131ba565b83516001600160a01b031660009081526020829052604090205490915080831161288e5750506107b5565b600061289986612fd2565b90506000816001600160a01b031663b5e4da238487036040518263ffffffff1660e01b81526004016128cb9190614e22565b60006040518083038186803b1580156128e357600080fd5b505afa1580156128f7573d6000803e3d6000fd5b505050506040513d6000823e601f3d908101601f1916820160405261291f919081019061464c565b9050600061292d87836131c7565b915061293b9050848261310d565b86111561294757600080fd5b5050505050505050565b826001600160a01b031663a9059cbb83836040518363ffffffff1660e01b815260040180836001600160a01b0316815260200182815260200192505050600060405180830381600087803b1580156129a857600080fd5b505af11580156129bc573d6000803e3d6000fd5b505050506107b5612ce7565b60008060006129d786856133de565b509150915060006129e6613474565b6001600160a01b0388166000908152602082905260408120919250612a0b85896114df565b905080600013158015612a2457506001600160601b0381105b612a2d57600080fd5b81546bffffffffffffffffffffffff19166001600160601b038216176fffffffffffffffffffffffffffffffff60601b1916600160601b6001600160801b0386160217825563ffffffff8710612a8257600080fd5b50805463ffffffff8716600160e01b026001600160e01b03909116179055509150509392505050565b60e084015160009015612b6c5773__$b21a4dc043b77aa57922ad9143a3cb040e$__63e0c01a7285612ae08860400151610af4565b8860e001518961010001516040518563ffffffff1660e01b8152600401612b0a9493929190614be4565b60206040518083038186803b158015612b2257600080fd5b505af4158015612b36573d6000803e3d6000fd5b505050506040513d601f19601f82011682018060405250810190612b5a9190614994565b600060e0870181905261010087015290505b612bae612ba7866101000151612ba1670de0b6b3a7640000612b9b88612b958c60400151610af4565b906127bf565b90613481565b90612d54565b829061310d565b9050612bc6670de0b6b3a7640000612b9b84866127bf565b85610100018181525050949350505050565b600080612be3611d93565b6001600160a01b0384166000908152602082905260409020805491925090600160f81b900460ff1615612c3f57612c186134a0565b6001600160a01b0380861660009081526020929092526040909120541692506108bd915050565b6000925050506108bd565b61049873019be259bc299f3f653688c7655c87f998bc7bc18383612951565b600063ffffffff821115610b0357600080fd5b60006001600160501b03821115610b0357600080fd5b6000612c9e86836134ad565b9050611b49868686612cb087866134ec565b613573565b60006a7fffffffffffffffffffff198212801590612cde57506a7fffffffffffffffffffff8213155b610b0357600080fd5b6000612cf1614359565b3d8015612d055760208114612d0e57600080fd5b60019250612d19565b60206000833e815192505b5081610498576040805162461bcd60e51b8152602060048201526005602482015264045524332360dc1b604482015290519081900360640190fd5b600082821115612d6357600080fd5b50900390565b60006305f5e10083604001511415612d825750806109b6565b604083015161108e90612091846305f5e1006111a3565b815160009061108e90612091846ec097ce7bc90715b34b9f10000000006111a3565b6000612dc561156e565b61ffff8416600090815260209190915260409081902054905163ad1c095d60e01b81526001600160a01b039091169150819063ad1c095d90612e0d9087908690600401614b41565b600060405180830381600087803b158015612e2757600080fd5b505af1158015612947573d6000803e3d6000fd5b6000612e4561204a565b61ffff8516600090815260209190915260409020805490915064ffffffffff164214612e7057600080fd5b8054600090612e8f90600160281b90046001600160581b0316856114df565b8254909150600090612eb190600160801b90046001600160581b0316856114df565b905080624c4b401315612ec357600080fd5b612ed4612ecf82610af4565b61316d565b83546001600160581b0391909116600160801b026affffffffffffffffffffff60801b19909116178355612f0a612ecf83610af4565b83546001600160581b0391909116600160281b026fffffffffffffffffffffff000000000019909116178355610eb9836135a7565b6000612f496131ba565b6001600160a01b038416600090815260208290526040902054909150612f7261038582856114df565b6001600160a01b03909416600090815260209290925250604090209190915550565b600081600019148015612faa5750600160ff1b83145b15612fb457600080fd5b818381612fbd57fe5b059392505050565b6000806109b66007611d7a565b600080612fdd613672565b61ffff939093166000908152602093909352505060409020546001600160a01b031690565b600080600080600080613015898861367f565b8951909550919350915060009061303c90613031908b90612d54565b633b9aca00906127bf565b905061307661306b6301da9c0061305385856127bf565b8161305a57fe5b670de0b6b3a764000091900461310d565b60e08a01519061313c565b965061309861308d6301da9c0061305387856127bf565b60c08a01519061313c565b9550818314156130af575060009350613104915050565b60006130d16130c66301da9c0061305387866127bf565b60e08b01519061313c565b905060006130df8983612d54565b90506130fc88612b9b838d604001516127bf90919063ffffffff16565b965050505050505b93509350935093565b60008282018381101561108e57600080fd5b600061108e61313684670de0b6b3a76400006127bf565b83613481565b600061108e61314b84846127bf565b670de0b6b3a7640000613481565b600064ffffffffff821115610b0357600080fd5b60006001600160581b03821115610b0357600080fd5b600081121561319157600080fd5b600061319f610fee84613719565b90506131ab81836114df565b90506107b5610fee8483613772565b6000806109b66026611d7a565b60008060005b83518110156133d65760008482815181106131e457fe5b60200260200101519050600081606001516001600160a01b03166370a08231306040518263ffffffff1660e01b81526004016132209190614a2a565b60206040518083038186803b15801561323857600080fd5b505afa15801561324c573d6000803e3d6000fd5b505050506040513d601f19601f820116820180604052508101906132709190614994565b9050600061327e88306137e6565b905060005b8351518110156132da576132c9846000015182815181106132a057fe5b60200260200101516000866020015184815181106132ba57fe5b60200260200101516001613890565b6132d257600196505b600101613283565b5060006132e789306137e6565b905060006132f58284612d54565b9050808560400151111561330857600080fd5b60608501516040516370a0823160e01b81526000916001600160a01b0316906370a082319061333b903090600401614a2a565b60206040518083038186803b15801561335357600080fd5b505afa158015613367573d6000803e3d6000fd5b505050506040513d601f19601f8201168201806040525081019061338b9190614994565b90508481111561339a57600080fd5b6133a986606001518683613afe565b6133b3888361310d565b97506133c48b600001518585613afe565b5050600190940193506131cd92505050565b509250929050565b60008060006133ec85613b7b565b9194509250905080841180156134025750600081115b801561340e5750600083115b1561346d57600061341e866113b4565b50505091505060006134496134406305f5e100846127bf90919063ffffffff16565b84880387613bd7565b9050613455848261310d565b93506001600160801b03841061346a57600080fd5b50505b9250925092565b6000806109b66011611d7a565b600080821161348f57600080fd5b81838161349857fe5b049392505050565b6000806109b66012611d7a565b6000808212156134e6576134e160016134db85602001516120918760000151876111a390919063ffffffff16565b90613bf9565b61108e565b50919050565b600081831480613509575060008312158015613509575060008212155b15613516575060006109b6565b600083131580156135275750816000125b156135335750816109b6565b600082131580156135445750826000125b156135525761281a826109a8565b60008313158015613564575060008213155b1561009c5761281a8383613bf9565b80156109a25783516020850151600091613592916120919085906111a3565b90506135a084848484613c0f565b5050505050565b805460028201546000916135e991600160281b9091046001600160581b0316906135e3906001600160501b03600160501b8204811691166111a3565b906111a3565b60018301546002840154919250600091613623916001600160581b0316906135e3906001600160501b03600160a01b8204811691166111a3565b835490915060009061365a9060016001600160581b03600160801b909204821601166ec097ce7bc90715b34b9f10000000006111a3565b9050806136678484613bf9565b13156109a257600080fd5b6000806109b6601f611d7a565b6000806000806000856020015111156136cc576136c96136b08660c0015187602001516127bf90919063ffffffff16565b60e087015160408801516136c3916127bf565b90613d55565b90505b60006136d787613d68565b90506136e38183613d9b565b945081156136fa576136f781866001613e54565b93505b60208601511561346a5761370e8583613ec5565b925050509250925092565b6000806137246127e6565b6001600160a01b03851660009081526020828152604080832061ffff8816845290915281208054600160a81b9004600a90810b900b945091925083121561376a57600080fd5b505092915050565b600081121561378057600080fd5b600061378a6127e6565b6001600160a01b03851660009081526020828152604080832061ffff8816845290915290209091506137bb83612cb5565b8154600a9190910b6001600160581b0316600160a81b026001600160a81b0390911617905550505050565b60006003836060015160058111156137fa57fe5b141561381157506001600160a01b038116316109b6565b82516040516370a0823160e01b81526001600160a01b03909116906370a0823190613840908590600401614a2a565b60206040518083038186803b15801561385857600080fd5b505afa15801561386c573d6000803e3d6000fd5b505050506040513d601f19601f8201168201806040525081019061281a9190614994565b6000806000866001600160a01b031686866040518082805190602001908083835b602083106138d05780518252601f1990920191602091820191016138b1565b6001836020036101000a03801982511681845116808217855250505050505090500191505060006040518083038185875af1925050503d8060008114613932576040519150601f19603f3d011682016040523d82523d6000602084013e613937565b606091505b5091509150836139da578161394b82613ede565b906139d45760405162461bcd60e51b81526004018080602001828103825283818151815260200191508051906020019080838360005b83811015613999578181015183820152602001613981565b50505050905090810190601f1680156139c65780820380516001836020036101000a031916815260200191505b509250505060405180910390fd5b50612040565b866001600160a01b03167f3c7e398c5e91088cae639370e35b25ea669d81fbdf0def5388e73661bc34e08e8787613a1085613ede565b604051808481526020018060200180602001838103835285818151815260200191508051906020019080838360005b83811015613a57578181015183820152602001613a3f565b50505050905090810190601f168015613a845780820380516001836020036101000a031916815260200191505b50838103825284518152845160209182019186019080838360005b83811015613ab7578181015183820152602001613a9f565b50505050905090810190601f168015613ae45780820380516001836020036101000a031916815260200191505b509550505050505060405180910390a25095945050505050565b6000613b086131ba565b6001600160a01b03851660009081526020829052604090205490915083811115613b3157600080fd5b6000613b48613b3f86610c30565b6134db86610c30565b9050613b5761038583836114df565b6001600160a01b039096166000908152602093909352505060409020929092555050565b600080600080613b89613474565b6001600160a01b0395909516600090815260209590955250506040909220546001600160601b03811693600160601b82046001600160801b03169350600160e01b90910463ffffffff169150565b60006109cf82612b9b6301da9c008188612b9589670de0b6b3a76400006127bf565b808203828113156000831215146109b657600080fd5b6000613c1961204a565b61ffff8516600090815260209190915260409020805490915064ffffffffff164214613c4457600080fd5b8054600160f81b900460ff16613c5957600080fd5b6001810154600090613c74906001600160581b0316856114df565b8254909150600090613c9690600160281b90046001600160581b0316856114df565b905081600919128015613ca95750600082125b15613cb357600091505b80600919128015613cc45750600081125b15613ccd575060005b613cd9612ecf83610af4565b6001840180546affffffffffffffffffffff19166001600160581b0392909216919091179055613d0b612ecf82610af4565b83546001600160581b0391909116600160281b026fffffffffffffffffffffff000000000019909116178355613d4387878688613fe5565b613d4c836135a7565b50505050505050565b600061108e61313684633b9aca006127bf565b613d70614377565b6000613d7a6140bf565b61ffff84166000908152602091909152604081205491506108b990826140cc565b600080836080015111613dad57600080fd5b633b9aca00821115613dbe57600080fd5b82518211613ddd578251604084015161281a9190612b9b9085906127bf565b82602001518211613e1b57604083015183516020850151606086015161281a9392613e159281900391612b9b918803908590036127bf565b9061310d565b61108e8360600151613e158560200151633b9aca0003612b9b8760600151886080015103886020015188036127bf90919063ffffffff16565b600080613e736064612b9b8760e00151876127bf90919063ffffffff16565b90508460a00151811015613e88575060a08401515b8460c00151811115613e9b575060c08401515b8215613eab57611089848261310d565b838111613eba57808403611089565b600095945050505050565b600061108e613ed484846127bf565b633b9aca00613481565b6060604482511015613f14575060408051808201909152600d81526c14da5b195b9d0814995d995c9d609a1b60208201526108bd565b6004820180519092602401906020811015613f2e57600080fd5b8101908080516040519392919084640100000000821115613f4e57600080fd5b908301906020820185811115613f6357600080fd5b8251640100000000811182820188101715613f7d57600080fd5b82525081516020918201929091019080838360005b83811015613faa578181015183820152602001613f92565b50505050905090810190601f168015613fd75780820380516001836020036101000a031916815260200191505b506040525050509050919050565b6000613fef61156e565b61ffff8516600090815260209190915260408120546001600160a01b031691506140176141eb565b61ffff8616600090815260209190915260409081902054905163ad1c095d60e01b81526001600160a01b039091169150819063ad1c095d9061405f9089908790600401614b41565b600060405180830381600087803b15801561407957600080fd5b505af115801561408d573d6000803e3d6000fd5b505060405163ad1c095d60e01b81526001600160a01b038516925063ad1c095d9150610e869089908890600401614b41565b6000806109b6601b611d7a565b6140d4614377565b6064633b9aca008360ff8616602081106140ea57fe5b1a02816140f357fe5b0481526064633b9aca008360ff86166001016020811061410f57fe5b1a028161411857fe5b0481602001818152505061413d8260028560ff16016020811061413757fe5b1a6141f8565b60808201819052610100908360ff86166003016020811061415a57fe5b1a028161416357fe5b0460408201526080810151610100908360ff86166004016020811061418457fe5b1a028161418d57fe5b0460608201526207a1208260ff8516600501602081106141a957fe5b1a0260a0820152622625a08260ff8516600601602081106141c657fe5b1a0260c08201528160ff8416600701602081106141df57fe5b1a60e082015292915050565b6000806109b66022611d7a565b60008160ff166096106142135760ff8216622625a0026109b6565b5060951960ff919091160162e4e1c00263165a0bc00190565b604051806101400160405280600061ffff16815260200160008152602001600081526020016000815260200160008152602001600081526020016000815260200160008152602001600081526020016142836142bd565b905290565b6040805160c081018252600080825260208201819052918101829052606081018290526080810182905260a081019190915290565b60405180606001604052806000815260200160008152602001600081525090565b6040805160a0810182526000808252602082018190529181018290529060608201908152602001600081525090565b6040518061012001604052806000815260200160008152602001600081526020016000815260200160008152602001600081526020016000815260200160008152602001600081525090565b60405180602001604052806001906020820280368337509192915050565b60405180610100016040528060008152602001600081526020016000815260200160008152602001600081526020016000815260200160008152602001600081525090565b80516108bd81614e91565b600082601f8301126143d7578081fd5b815160206143ec6143e783614e73565b614e4f565b8281528181019085830183850287018401881015614408578586fd5b855b8581101561442f57815161441d81614e91565b8452928401929084019060010161440a565b5090979650505050505050565b6000601f838184011261444d578182fd5b8251602061445d6143e783614e73565b82815281810190868301865b8581101561450157815189018a603f820112614483578889fd5b8581015167ffffffffffffffff81111561449957fe5b6144aa818a01601f19168801614e4f565b8181528c60408385010111156144be578a8bfd5b8a5b828110156144dc57838101604001518282018a015288016144c0565b828111156144ec578b8984840101525b50865250509284019290840190600101614469565b509098975050505050505050565b80516108bd81614ea9565b80516001600160701b0319811681146108bd57600080fd5b80516001600160f81b0319811681146108bd57600080fd5b8051600481106108bd57600080fd5b80516108bd81614eb7565b805160ff811681146108bd57600080fd5b600060208284031215614586578081fd5b813561108e81614e91565b6000806000606084860312156145a5578182fd5b83356145b081614e91565b925060208401356145c081614eb7565b929592945050506040919091013590565b600080600080600060a086880312156145e8578283fd5b85356145f381614e91565b9450602086013561460381614eb7565b935060408601356001600160601b038116811461461e578384fd5b9250606086013561462e81614ea9565b9150608086013561463e81614ea9565b809150509295509295909350565b6000602080838503121561465e578182fd5b825167ffffffffffffffff80821115614675578384fd5b818501915085601f830112614688578384fd5b81516146966143e782614e73565b81815284810190848601875b8481101561474b57815187016080818d03601f190112156146c157898afd5b60408051608081018181108a821117156146d757fe5b8252828b0151898111156146e9578c8dfd5b6146f78f8d838701016143c7565b825250818301518981111561470a578c8dfd5b6147188f8d8387010161443c565b8c83015250606083015182820152614732608084016143bc565b60608201528652505092870192908701906001016146a2565b50909998505050505050505050565b60006020828403121561476b578081fd5b813561108e81614ea9565b6000806040808486031215614789578283fd5b8351925060208085015167ffffffffffffffff808211156147a8578485fd5b818701915087601f8301126147bb578485fd5b81516147c96143e782614e73565b8181528481019084860160c0808502870188018d10156147e757898afd5b8996505b8487101561486e5780828e03121561480157898afd5b8851818101818110888211171561481457fe5b8a52825161482181614eb7565b81528289015189820152898301518a820152606080840151908201526080808401519082015260a061485481850161454a565b9082015284526001969096019592870192908101906147eb565b50989b909a5098505050505050505050565b600060c08284031215614891578081fd5b60405160c0810181811067ffffffffffffffff821117156148ae57fe5b604052825164ffffffffff811681146148c5578283fd5b81526148d360208401614532565b60208201526148e460408401614564565b60408201526148f560608401614559565b60608201526149066080840161451a565b608082015261491760a0840161450f565b60a08201529392505050565b600060208284031215614934578081fd5b813561108e81614eb7565b600080600060608486031215614953578081fd5b833561495e81614eb7565b925060208401356001600160581b0381168114614979578182fd5b9150604084013561498981614ea9565b809150509250925092565b6000602082840312156149a5578081fd5b5051919050565b600080604083850312156149be578182fd5b505080516020909101519092909150565b805164ffffffffff1682526020808201516001600160f81b0319169083015260408082015160ff169083015260608082015161ffff16908301526080808201516001600160701b0319169083015260a0908101511515910152565b6001600160a01b0391909116815260200190565b6001600160a01b03948516815292841660208401529083166040830152909116606082015260800190565b600061012080830160018060a01b03808916855260208189168187015260409150614a96828701896149cf565b61010086019390935285519182905261014085019280870192855b81811015614b0d578451805161ffff16875283810151848801528481015185880152606080820151908801526080808201519088015260a0908101519060048210614af857fe5b87015260c09095019493820193600101614ab1565b50939a9950505050505050505050565b6001600160a01b039384168152919092166020820152604081019190915260600190565b6001600160a01b03929092168252602082015260400190565b6001600160a01b038316815260e0810161108e60208301846149cf565b6001600160a01b0395909516855261ffff9390931660208501526040840191909152151560608301521515608082015260a00190565b6001600160a01b0396909616865261ffff94909416602086015260408501929092526060840152608083015260a082015260c00190565b6001600160a01b0394909416845260208401929092526040830152606082015260800190565b901515815260200190565b9182521515602082015260400190565b6020808252600f908201526e04f76657220537570706c792043617608c1b604082015260600190565b6020808252600b908201526a4554482042616c616e636560a81b604082015260600190565b60208082526006908201526552656465656d60d01b604082015260600190565b60208082526012908201527143616e6e6f7420686176652061737365747360701b604082015260600190565b6020808252601390820152722ab730baba3437b934bd32b21031b0b63632b960691b604082015260600190565b6020808252600f908201526e4e6f205072696d6520426f72726f7760881b604082015260600190565b6020808252601c908201527f446570726563617465643a2052656465656d20746f2063546f6b656e00000000604082015260600190565b602080825260149082015273043616e6e6f74206368616e6765206269746d61760641b604082015260600190565b60208082526010908201526f10d85b9b9bdd081a185d99481919589d60821b604082015260600190565b6020808252600a90820152692732b390372a37b5b2b760b11b604082015260600190565b602080825260139082015272125b9d985b1a590818dd5c9c995b98de481a59606a1b604082015260600190565b602080825260139082015272496e73756666696369656e7420746f6b656e7360681b604082015260600190565b90815260200190565b918252602082015260400190565b9283526020830191909152604082015260600190565b60405181810167ffffffffffffffff81118282101715614e6b57fe5b604052919050565b600067ffffffffffffffff821115614e8757fe5b5060209081020190565b6001600160a01b0381168114614ea657600080fd5b50565b8015158114614ea657600080fd5b61ffff81168114614ea657600080fdfea2646970667358221220cdf4e5d3ead837a6315abf21bf2415f3ecb388d033ada8efdeba5899898b278e64736f6c63430007060033","language":"Solidity","natspec":{"kind":"dev","methods":{"depositAssetToken(address,uint16,uint256)":{"details":"emit:CashBalanceChange emit:AccountContextUpdateauth:none","notice":"DEPRECATED: deposits deprecated cTokens tokens as collateral into an account that were listed prior to the migration to prime cash. Future listed tokens will not have asset tokens and will revert in this method.","params":{"account":"the account to deposit into","amountExternalPrecision":"the amount of asset tokens in its native decimal precision (i.e. 8 decimals for cTokens).","currencyId":"currency id of the asset token"},"returns":{"_0":"asset tokens minted and deposited to the account in internal decimals (8)"}},"depositUnderlyingToken(address,uint16,uint256)":{"details":"emit:CashBalanceChange emit:AccountContextUpdateauth:none","notice":"Deposits and wraps the underlying token for a particular cToken. Does not settle assets or check free collateral, idea is to be as gas efficient as possible during potential liquidation events.","params":{"account":"the account to deposit into","amountExternalPrecision":"the amount of underlying tokens in its native decimal precision (i.e. 18 decimals for DAI or 6 decimals for USDC). This will be converted to 8 decimals during transfer.","currencyId":"currency id of the asset token that wraps this underlying"},"returns":{"_0":"asset tokens minted and deposited to the account in internal decimals (8)"}},"enableBitmapCurrency(uint16)":{"details":"emit:AccountSettled emit:AccountContextUpdateauth:msg.sender","notice":"Enables a bitmap currency for msg.sender, account cannot have any assets when this call occurs. Will revert if the account already has a bitmap currency set.","params":{"currencyId":"the currency to enable the bitmap for."}},"enablePrimeBorrow(bool)":{"details":"emit:AccountSettled emit:AccountContextUpdateauth:msg.sender","notice":"A per account setting that allows it to borrow prime cash (i.e. incur negative cash) as a result of account initiated actions. Accounts can still incur negative cash as a result of fCash settlement regardless of this setting.","params":{"allowPrimeBorrow":"true if the account can borrow prime cash"}},"getLibInfo()":{"notice":"Get a list of deployed library addresses (sorted by library name)"},"nTokenRedeem(address,uint16,uint96,bool,bool)":{"details":"auth:msg.sender auth:ERC1155","notice":"Allows accounts to redeem nTokens into constituent assets and then absorb the assets into their portfolio. Due to the complexity here, it is not allowed to be called during a batch trading operation and must be done separately.","params":{"acceptResidualAssets":"if true, will place any residual fCash that could not be sold (either due to slippage or because it was idiosyncratic) into the account's portfolio","currencyId":"the currency associated the nToken","redeemer":"the address that holds the nTokens to redeem","sellTokenAssets":"attempt to sell residual fCash and convert to cash","tokensToRedeem_":"the amount of nTokens to convert to cash"},"returns":{"_0":"total amount of asset cash redeemed","_1":"true or false if there were residuals that were placed into the portfolio"}},"settleAccount(address)":{"details":"emit:AccountSettled emit:AccountContextUpdateauth:none","notice":"Method for manually settling an account, generally should not be called because other methods will check if an account needs to be settled automatically. If a bitmap account has debt and is settled via this method, the hasDebt flag will not be cleared until a free collateral check is performed on the account.","params":{"account":"the account to settle"},"returns":{"_0":"returns true if account has been settled"}},"withdraw(uint16,uint88,bool)":{"details":"emit:CashBalanceChange emit:AccountContextUpdateauth:msg.sender","notice":"Withdraws balances from Notional, may also redeem to underlying tokens on user request. Will settle and do free collateral checks if required. Can only be called by msg.sender, operators who want to withdraw for an account must do an authenticated call via ERC1155Action `safeTransferFrom` or `safeBatchTransferFrom`","params":{"amountInternalPrecision":"the amount of cash balance in internal 8 decimal precision to withdraw, this is be denominated in prime cash. If set to uint88 max, will withdraw an entire cash balance.","currencyId":"currency id of the asset token","redeemToUnderlying":"DEPRECATED except for ETH balances. Prior to the prime cash upgrade, accounts could withdraw cTokens directly. However, post prime cash migration this is no longer the case. If withdrawing ETH, setting redeemToUnderlying to false will redeem ETH as WETH."},"returns":{"_0":"the amount of tokens received by the account denominated in the destination token precision (if"}}},"version":1},"opcodes":"PUSH1 0x80 PUSH1 0x40 MSTORE PUSH1 0x4 CALLDATASIZE LT PUSH2 0x9C JUMPI PUSH1 0x0 CALLDATALOAD PUSH1 0xE0 SHR DUP1 PUSH4 0x82463367 GT PUSH2 0x64 JUMPI DUP1 PUSH4 0x82463367 EQ PUSH2 0x15C JUMPI DUP1 PUSH4 0x8DA5CB5B EQ PUSH2 0x171 JUMPI DUP1 PUSH4 0x9C979450 EQ PUSH2 0x186 JUMPI DUP1 PUSH4 0xB8A69455 EQ PUSH2 0x1A6 JUMPI DUP1 PUSH4 0xC4C96DAE EQ PUSH2 0x1C6 JUMPI DUP1 PUSH4 0xF667F897 EQ PUSH2 0x1EB JUMPI PUSH2 0x9C JUMP JUMPDEST DUP1 PUSH4 0x2F332E8 EQ PUSH2 0xA1 JUMPI DUP1 PUSH4 0x24A3D622 EQ PUSH2 0xD7 JUMPI DUP1 PUSH4 0x2890FB65 EQ PUSH2 0xF9 JUMPI DUP1 PUSH4 0x61D0D61C EQ PUSH2 0x10C JUMPI DUP1 PUSH4 0x66890643 EQ PUSH2 0x12E JUMPI JUMPDEST PUSH1 0x0 DUP1 REVERT JUMPDEST CALLVALUE DUP1 ISZERO PUSH2 0xAD JUMPI PUSH1 0x0 DUP1 REVERT JUMPDEST POP PUSH2 0xC1 PUSH2 0xBC CALLDATASIZE PUSH1 0x4 PUSH2 0x493F JUMP JUMPDEST PUSH2 0x218 JUMP JUMPDEST PUSH1 0x40 MLOAD PUSH2 0xCE SWAP2 SWAP1 PUSH2 0x4E22 JUMP JUMPDEST PUSH1 0x40 MLOAD DUP1 SWAP2 SUB SWAP1 RETURN JUMPDEST CALLVALUE DUP1 ISZERO PUSH2 0xE3 JUMPI PUSH1 0x0 DUP1 REVERT JUMPDEST POP PUSH2 0xEC PUSH2 0x39A JUMP JUMPDEST PUSH1 0x40 MLOAD PUSH2 0xCE SWAP2 SWAP1 PUSH2 0x4A2A JUMP JUMPDEST PUSH2 0xC1 PUSH2 0x107 CALLDATASIZE PUSH1 0x4 PUSH2 0x4591 JUMP JUMPDEST PUSH2 0x3A9 JUMP JUMPDEST CALLVALUE DUP1 ISZERO PUSH2 0x118 JUMPI PUSH1 0x0 DUP1 REVERT JUMPDEST POP PUSH2 0x12C PUSH2 0x127 CALLDATASIZE PUSH1 0x4 PUSH2 0x475A JUMP JUMPDEST PUSH2 0x462 JUMP JUMPDEST STOP JUMPDEST CALLVALUE DUP1 ISZERO PUSH2 0x13A JUMPI PUSH1 0x0 DUP1 REVERT JUMPDEST POP PUSH2 0x14E PUSH2 0x149 CALLDATASIZE PUSH1 0x4 PUSH2 0x45D1 JUMP JUMPDEST PUSH2 0x49C JUMP JUMPDEST PUSH1 0x40 MLOAD PUSH2 0xCE SWAP3 SWAP2 SWAP1 PUSH2 0x4C15 JUMP JUMPDEST CALLVALUE DUP1 ISZERO PUSH2 0x168 JUMPI PUSH1 0x0 DUP1 REVERT JUMPDEST POP PUSH2 0xEC PUSH2 0x747 JUMP JUMPDEST CALLVALUE DUP1 ISZERO PUSH2 0x17D JUMPI PUSH1 0x0 DUP1 REVERT JUMPDEST POP PUSH2 0xEC PUSH2 0x756 JUMP JUMPDEST CALLVALUE DUP1 ISZERO PUSH2 0x192 JUMPI PUSH1 0x0 DUP1 REVERT JUMPDEST POP PUSH2 0x12C PUSH2 0x1A1 CALLDATASIZE PUSH1 0x4 PUSH2 0x4923 JUMP JUMPDEST PUSH2 0x76D JUMP JUMPDEST CALLVALUE DUP1 ISZERO PUSH2 0x1B2 JUMPI PUSH1 0x0 DUP1 REVERT JUMPDEST POP PUSH2 0xC1 PUSH2 0x1C1 CALLDATASIZE PUSH1 0x4 PUSH2 0x4591 JUMP JUMPDEST PUSH2 0x7BA JUMP JUMPDEST CALLVALUE DUP1 ISZERO PUSH2 0x1D2 JUMPI PUSH1 0x0 DUP1 REVERT JUMPDEST POP PUSH2 0x1DB PUSH2 0x834 JUMP JUMPDEST PUSH1 0x40 MLOAD PUSH2 0xCE SWAP5 SWAP4 SWAP3 SWAP2 SWAP1 PUSH2 0x4A3E JUMP JUMPDEST CALLVALUE DUP1 ISZERO PUSH2 0x1F7 JUMPI PUSH1 0x0 DUP1 REVERT JUMPDEST POP PUSH2 0x20B PUSH2 0x206 CALLDATASIZE PUSH1 0x4 PUSH2 0x4575 JUMP JUMPDEST PUSH2 0x88E JUMP JUMPDEST PUSH1 0x40 MLOAD PUSH2 0xCE SWAP2 SWAP1 PUSH2 0x4C0A JUMP JUMPDEST PUSH1 0x0 PUSH1 0x2 PUSH1 0xA SLOAD EQ ISZERO PUSH2 0x22A JUMPI PUSH1 0x0 DUP1 REVERT JUMPDEST PUSH1 0x2 PUSH1 0xA SSTORE PUSH2 0xFFFF DUP5 AND PUSH1 0x1 EQ PUSH2 0x261 JUMPI DUP2 PUSH2 0x261 JUMPI PUSH1 0x40 MLOAD PUSH3 0x461BCD PUSH1 0xE5 SHL DUP2 MSTORE PUSH1 0x4 ADD PUSH2 0x258 SWAP1 PUSH2 0x4D15 JUMP JUMPDEST PUSH1 0x40 MLOAD DUP1 SWAP2 SUB SWAP1 REVERT JUMPDEST PUSH1 0x0 PUSH2 0x26C CALLER PUSH2 0x8C2 JUMP JUMPDEST POP SWAP1 POP PUSH2 0x277 PUSH2 0x422C JUMP JUMPDEST PUSH2 0x283 DUP2 CALLER DUP9 DUP6 PUSH2 0x987 JUMP JUMPDEST PUSH1 0x1 PUSH1 0x1 PUSH1 0x58 SHL SUB DUP6 DUP2 AND EQ ISZERO PUSH2 0x2BC JUMPI PUSH1 0x0 DUP2 PUSH1 0x20 ADD MLOAD SGT PUSH2 0x2A5 JUMPI PUSH1 0x0 DUP1 REVERT JUMPDEST PUSH2 0x2B2 DUP2 PUSH1 0x20 ADD MLOAD PUSH2 0x9A8 JUMP JUMPDEST PUSH1 0x80 DUP3 ADD MSTORE PUSH2 0x2D4 JUMP JUMPDEST PUSH2 0x2CE DUP6 PUSH1 0x1 PUSH1 0x1 PUSH1 0x58 SHL SUB AND PUSH2 0x9A8 JUMP JUMPDEST PUSH1 0x80 DUP3 ADD MSTORE JUMPDEST PUSH1 0x0 PUSH2 0x2E3 DUP3 CALLER DUP6 DUP9 ISZERO PUSH2 0x9BC JUMP JUMPDEST SWAP1 POP PUSH2 0x2EF DUP4 CALLER PUSH2 0x9D7 JUMP JUMPDEST PUSH1 0x20 DUP4 ADD MLOAD PUSH1 0x1 PUSH1 0x1 PUSH1 0xF8 SHL SUB NOT AND ISZERO PUSH2 0x36B JUMPI PUSH1 0x40 MLOAD PUSH4 0x6CCC642F PUSH1 0xE0 SHL DUP2 MSTORE PUSH20 0x0 SWAP1 PUSH4 0x6CCC642F SWAP1 PUSH2 0x33A SWAP1 CALLER SWAP1 PUSH1 0x4 ADD PUSH2 0x4A2A JUMP JUMPDEST PUSH1 0x0 PUSH1 0x40 MLOAD DUP1 DUP4 SUB DUP2 DUP7 DUP1 EXTCODESIZE ISZERO DUP1 ISZERO PUSH2 0x352 JUMPI PUSH1 0x0 DUP1 REVERT JUMPDEST POP GAS DELEGATECALL ISZERO DUP1 ISZERO PUSH2 0x366 JUMPI RETURNDATASIZE PUSH1 0x0 DUP1 RETURNDATACOPY RETURNDATASIZE PUSH1 0x0 REVERT JUMPDEST POP POP POP POP JUMPDEST PUSH1 0x0 DUP2 SGT ISZERO PUSH2 0x379 JUMPI PUSH1 0x0 DUP1 REVERT JUMPDEST PUSH2 0x38A PUSH2 0x385 DUP3 PUSH2 0x9A8 JUMP JUMPDEST PUSH2 0xAF4 JUMP JUMPDEST PUSH1 0x1 PUSH1 0xA SSTORE SWAP8 SWAP7 POP POP POP POP POP POP POP JUMP JUMPDEST PUSH1 0x2 SLOAD PUSH1 0x1 PUSH1 0x1 PUSH1 0xA0 SHL SUB AND DUP2 JUMP JUMPDEST PUSH1 0x0 PUSH1 0x2 PUSH1 0xA SLOAD EQ ISZERO PUSH2 0x3BB JUMPI PUSH1 0x0 DUP1 REVERT JUMPDEST PUSH1 0x2 PUSH1 0xA SSTORE CALLER ADDRESS EQ ISZERO PUSH2 0x3CD JUMPI PUSH1 0x0 DUP1 REVERT JUMPDEST CALLER PUSH1 0x1 PUSH1 0x1 PUSH1 0xA0 SHL SUB DUP6 AND EQ PUSH2 0x3E2 JUMPI PUSH1 0x0 DUP1 REVERT JUMPDEST PUSH2 0x3EB DUP5 PUSH2 0xB07 JUMP JUMPDEST PUSH1 0x0 PUSH2 0x3F6 DUP6 PUSH2 0xB82 JUMP JUMPDEST SWAP1 POP PUSH2 0x400 PUSH2 0x422C JUMP JUMPDEST PUSH2 0x40C DUP2 DUP8 DUP8 DUP6 PUSH2 0x987 JUMP JUMPDEST PUSH1 0x0 PUSH2 0x425 DUP8 PUSH2 0x41B DUP8 PUSH2 0xC30 JUMP JUMPDEST DUP5 SWAP2 SWAP1 PUSH1 0x0 PUSH2 0xC46 JUMP JUMPDEST SWAP1 POP PUSH1 0x0 DUP2 SGT PUSH2 0x434 JUMPI PUSH1 0x0 DUP1 REVERT JUMPDEST PUSH2 0x43F DUP3 DUP9 DUP6 PUSH2 0xC98 JUMP JUMPDEST PUSH2 0x449 DUP4 DUP9 PUSH2 0x9D7 JUMP JUMPDEST PUSH2 0x120 DUP3 ADD MLOAD PUSH2 0x459 SWAP1 DUP8 PUSH2 0xCB6 JUMP JUMPDEST PUSH2 0x38A DUP2 PUSH2 0xAF4 JUMP JUMPDEST CALLER ADDRESS EQ ISZERO PUSH2 0x46F JUMPI PUSH1 0x0 DUP1 REVERT JUMPDEST PUSH2 0x478 CALLER PUSH2 0xB07 JUMP JUMPDEST PUSH1 0x0 PUSH2 0x483 CALLER PUSH2 0x8C2 JUMP JUMPDEST POP DUP3 ISZERO ISZERO PUSH1 0xA0 DUP3 ADD MSTORE SWAP1 POP PUSH2 0x498 DUP2 CALLER PUSH2 0x9D7 JUMP JUMPDEST POP POP JUMP JUMPDEST PUSH1 0x0 DUP1 PUSH1 0x2 PUSH1 0xA SLOAD EQ ISZERO PUSH2 0x4AF JUMPI PUSH1 0x0 DUP1 REVERT JUMPDEST PUSH1 0x2 PUSH1 0xA SSTORE CALLER PUSH1 0x1 PUSH1 0x1 PUSH1 0xA0 SHL SUB DUP9 AND EQ DUP1 PUSH2 0x4CA JUMPI POP CALLER ADDRESS EQ JUMPDEST PUSH2 0x4E6 JUMPI PUSH1 0x40 MLOAD PUSH3 0x461BCD PUSH1 0xE5 SHL DUP2 MSTORE PUSH1 0x4 ADD PUSH2 0x258 SWAP1 PUSH2 0x4CBF JUMP JUMPDEST PUSH1 0x1 PUSH1 0x1 PUSH1 0x60 SHL SUB DUP6 AND PUSH1 0x0 PUSH2 0x4FB DUP10 PUSH2 0x8C2 JUMP JUMPDEST POP SWAP1 POP PUSH2 0x506 PUSH2 0x422C JUMP JUMPDEST PUSH2 0x512 DUP2 DUP12 DUP12 DUP6 PUSH2 0x987 JUMP JUMPDEST DUP3 DUP2 PUSH1 0x40 ADD MLOAD SLT ISZERO PUSH2 0x536 JUMPI PUSH1 0x40 MLOAD PUSH3 0x461BCD PUSH1 0xE5 SHL DUP2 MSTORE PUSH1 0x4 ADD PUSH2 0x258 SWAP1 PUSH2 0x4DF5 JUMP JUMPDEST PUSH2 0x53F DUP4 PUSH2 0x9A8 JUMP JUMPDEST PUSH1 0xC0 DUP3 ADD MSTORE PUSH1 0x40 MLOAD PUSH4 0xB853E457 PUSH1 0xE0 SHL DUP2 MSTORE PUSH1 0x0 SWAP1 DUP2 SWAP1 PUSH20 0x0 SWAP1 PUSH4 0xB853E457 SWAP1 PUSH2 0x588 SWAP1 DUP16 SWAP1 DUP16 SWAP1 DUP11 SWAP1 DUP16 SWAP1 DUP16 SWAP1 PUSH1 0x4 ADD PUSH2 0x4B77 JUMP JUMPDEST PUSH1 0x0 PUSH1 0x40 MLOAD DUP1 DUP4 SUB DUP2 DUP7 DUP1 EXTCODESIZE ISZERO DUP1 ISZERO PUSH2 0x5A0 JUMPI PUSH1 0x0 DUP1 REVERT JUMPDEST POP GAS DELEGATECALL ISZERO DUP1 ISZERO PUSH2 0x5B4 JUMPI RETURNDATASIZE PUSH1 0x0 DUP1 RETURNDATACOPY RETURNDATASIZE PUSH1 0x0 REVERT JUMPDEST POP POP POP POP PUSH1 0x40 MLOAD RETURNDATASIZE PUSH1 0x0 DUP3 RETURNDATACOPY PUSH1 0x1F RETURNDATASIZE SWAP1 DUP2 ADD PUSH1 0x1F NOT AND DUP3 ADD PUSH1 0x40 MSTORE PUSH2 0x5DC SWAP2 SWAP1 DUP2 ADD SWAP1 PUSH2 0x4776 JUMP JUMPDEST PUSH1 0x60 DUP6 ADD DUP3 SWAP1 MSTORE SWAP1 SWAP3 POP SWAP1 POP PUSH2 0x5F3 DUP4 DUP14 DUP7 PUSH2 0xC98 JUMP JUMPDEST DUP1 MLOAD ISZERO PUSH2 0x69C JUMPI PUSH1 0x0 PUSH2 0x609 DUP13 PUSH2 0xFFFF AND PUSH2 0xCF7 JUMP JUMPDEST SWAP1 POP PUSH20 0x0 PUSH4 0xC108FC26 DUP15 DUP4 DUP9 DUP7 PUSH1 0x40 MLOAD DUP6 PUSH4 0xFFFFFFFF AND PUSH1 0xE0 SHL DUP2 MSTORE PUSH1 0x4 ADD PUSH2 0x648 SWAP5 SWAP4 SWAP3 SWAP2 SWAP1 PUSH2 0x4A69 JUMP JUMPDEST PUSH1 0xC0 PUSH1 0x40 MLOAD DUP1 DUP4 SUB DUP2 DUP7 DUP1 EXTCODESIZE ISZERO DUP1 ISZERO PUSH2 0x660 JUMPI PUSH1 0x0 DUP1 REVERT JUMPDEST POP GAS DELEGATECALL ISZERO DUP1 ISZERO PUSH2 0x674 JUMPI RETURNDATASIZE PUSH1 0x0 DUP1 RETURNDATACOPY RETURNDATASIZE PUSH1 0x0 REVERT JUMPDEST POP POP POP POP PUSH1 0x40 MLOAD RETURNDATASIZE PUSH1 0x1F NOT PUSH1 0x1F DUP3 ADD AND DUP3 ADD DUP1 PUSH1 0x40 MSTORE POP DUP2 ADD SWAP1 PUSH2 0x698 SWAP2 SWAP1 PUSH2 0x4880 JUMP JUMPDEST SWAP5 POP POP JUMPDEST PUSH2 0x6A6 DUP5 DUP14 PUSH2 0x9D7 JUMP JUMPDEST PUSH1 0x20 DUP5 ADD MLOAD PUSH1 0x1 PUSH1 0x1 PUSH1 0xF8 SHL SUB NOT AND ISZERO PUSH2 0x722 JUMPI PUSH1 0x40 MLOAD PUSH4 0x6CCC642F PUSH1 0xE0 SHL DUP2 MSTORE PUSH20 0x0 SWAP1 PUSH4 0x6CCC642F SWAP1 PUSH2 0x6F1 SWAP1 DUP16 SWAP1 PUSH1 0x4 ADD PUSH2 0x4A2A JUMP JUMPDEST PUSH1 0x0 PUSH1 0x40 MLOAD DUP1 DUP4 SUB DUP2 DUP7 DUP1 EXTCODESIZE ISZERO DUP1 ISZERO PUSH2 0x709 JUMPI PUSH1 0x0 DUP1 REVERT JUMPDEST POP GAS DELEGATECALL ISZERO DUP1 ISZERO PUSH2 0x71D JUMPI RETURNDATASIZE PUSH1 0x0 DUP1 RETURNDATACOPY RETURNDATASIZE PUSH1 0x0 REVERT JUMPDEST POP POP POP POP JUMPDEST PUSH2 0x72E DUP13 DUP13 DUP5 DUP9 PUSH2 0xD1D JUMP JUMPDEST MLOAD PUSH1 0x1 PUSH1 0xA SSTORE SWAP1 SWAP12 SWAP1 ISZERO ISZERO SWAP11 POP SWAP9 POP POP POP POP POP POP POP POP POP JUMP JUMPDEST PUSH1 0x1 SLOAD PUSH1 0x1 PUSH1 0x1 PUSH1 0xA0 SHL SUB AND DUP2 JUMP JUMPDEST PUSH1 0x0 SLOAD PUSH5 0x100000000 SWAP1 DIV PUSH1 0x1 PUSH1 0x1 PUSH1 0xA0 SHL SUB AND DUP2 JUMP JUMPDEST CALLER ADDRESS EQ ISZERO PUSH2 0x77A JUMPI PUSH1 0x0 DUP1 REVERT JUMPDEST PUSH1 0x0 SLOAD PUSH2 0xFFFF SWAP1 DUP2 AND SWAP1 DUP3 AND GT ISZERO PUSH2 0x791 JUMPI PUSH1 0x0 DUP1 REVERT JUMPDEST CALLER PUSH1 0x0 PUSH2 0x79D DUP3 PUSH2 0x8C2 JUMP JUMPDEST POP SWAP1 POP PUSH2 0x7AB DUP2 DUP5 TIMESTAMP PUSH2 0xEC1 JUMP JUMPDEST PUSH2 0x7B5 DUP2 DUP4 PUSH2 0x9D7 JUMP JUMPDEST POP POP POP JUMP JUMPDEST PUSH1 0x0 PUSH1 0x2 PUSH1 0xA SLOAD EQ ISZERO PUSH2 0x7CC JUMPI PUSH1 0x0 DUP1 REVERT JUMPDEST PUSH1 0x2 PUSH1 0xA SSTORE CALLER ADDRESS EQ ISZERO PUSH2 0x7DE JUMPI PUSH1 0x0 DUP1 REVERT JUMPDEST CALLER PUSH1 0x1 PUSH1 0x1 PUSH1 0xA0 SHL SUB DUP6 AND EQ PUSH2 0x7F3 JUMPI PUSH1 0x0 DUP1 REVERT JUMPDEST PUSH2 0x7FC DUP5 PUSH2 0xB07 JUMP JUMPDEST PUSH1 0x0 PUSH2 0x807 DUP6 PUSH2 0xB82 JUMP JUMPDEST SWAP1 POP PUSH2 0x811 PUSH2 0x422C JUMP JUMPDEST PUSH2 0x81D DUP2 DUP8 DUP8 DUP6 PUSH2 0x987 JUMP JUMPDEST PUSH1 0x0 PUSH2 0x425 DUP8 PUSH2 0x82C DUP8 PUSH2 0xC30 JUMP JUMPDEST DUP5 SWAP2 SWAP1 PUSH2 0xFB9 JUMP JUMPDEST PUSH20 0x0 PUSH20 0x0 PUSH20 0x0 PUSH20 0x0 SWAP1 SWAP2 SWAP3 SWAP4 JUMP JUMPDEST PUSH1 0x0 PUSH2 0x899 DUP3 PUSH2 0xB07 JUMP JUMPDEST PUSH1 0x0 DUP1 PUSH2 0x8A5 DUP5 PUSH2 0x8C2 JUMP JUMPDEST SWAP2 POP SWAP2 POP DUP1 ISZERO PUSH2 0x8B9 JUMPI PUSH2 0x8B9 DUP3 DUP6 PUSH2 0x9D7 JUMP JUMPDEST SWAP2 POP POP JUMPDEST SWAP2 SWAP1 POP JUMP JUMPDEST PUSH2 0x8CA PUSH2 0x4288 JUMP JUMPDEST PUSH1 0x0 DUP1 PUSH2 0x8D6 DUP5 PUSH2 0xB82 JUMP JUMPDEST SWAP1 POP PUSH2 0x8E1 DUP2 PUSH2 0x1095 JUMP JUMPDEST ISZERO PUSH2 0x97B JUMPI PUSH1 0x40 MLOAD PUSH4 0x37B5FC21 PUSH1 0xE1 SHL DUP2 MSTORE PUSH20 0x0 SWAP1 PUSH4 0x6F6BF842 SWAP1 PUSH2 0x91F SWAP1 DUP8 SWAP1 DUP6 SWAP1 PUSH1 0x4 ADD PUSH2 0x4B5A JUMP JUMPDEST PUSH1 0xC0 PUSH1 0x40 MLOAD DUP1 DUP4 SUB DUP2 DUP7 DUP1 EXTCODESIZE ISZERO DUP1 ISZERO PUSH2 0x937 JUMPI PUSH1 0x0 DUP1 REVERT JUMPDEST POP GAS DELEGATECALL ISZERO DUP1 ISZERO PUSH2 0x94B JUMPI RETURNDATASIZE PUSH1 0x0 DUP1 RETURNDATACOPY RETURNDATASIZE PUSH1 0x0 REVERT JUMPDEST POP POP POP POP PUSH1 0x40 MLOAD RETURNDATASIZE PUSH1 0x1F NOT PUSH1 0x1F DUP3 ADD AND DUP3 ADD DUP1 PUSH1 0x40 MSTORE POP DUP2 ADD SWAP1 PUSH2 0x96F SWAP2 SWAP1 PUSH2 0x4880 JUMP JUMPDEST PUSH1 0x1 SWAP3 POP SWAP3 POP POP PUSH2 0x982 JUMP JUMPDEST SWAP2 POP PUSH1 0x0 SWAP1 POP JUMPDEST SWAP2 POP SWAP2 JUMP JUMPDEST PUSH2 0x990 DUP3 PUSH2 0x10E9 JUMP JUMPDEST PUSH2 0x120 DUP6 ADD MSTORE PUSH2 0x9A2 DUP5 DUP5 DUP5 DUP5 PUSH2 0x10FB JUMP JUMPDEST POP POP POP POP JUMP JUMPDEST PUSH1 0x0 PUSH2 0x9B6 PUSH1 0x0 NOT DUP4 PUSH2 0x11A3 JUMP JUMPDEST SWAP3 SWAP2 POP POP JUMP JUMPDEST PUSH1 0x0 PUSH2 0x9CC DUP6 DUP6 DUP6 DUP6 PUSH1 0x1 PUSH2 0x11F1 JUMP JUMPDEST SWAP1 POP JUMPDEST SWAP5 SWAP4 POP POP POP POP JUMP JUMPDEST PUSH1 0x0 PUSH2 0x9E1 PUSH2 0x13A7 JUMP JUMPDEST PUSH1 0x1 PUSH1 0x1 PUSH1 0xA0 SHL SUB DUP4 AND PUSH1 0x0 DUP2 DUP2 MSTORE PUSH1 0x20 DUP4 DUP2 MSTORE PUSH1 0x40 DUP1 DUP4 KECCAK256 DUP9 MLOAD DUP2 SLOAD SWAP4 DUP11 ADD MLOAD DUP11 DUP5 ADD MLOAD PUSH1 0x60 DUP13 ADD MLOAD PUSH1 0x80 DUP14 ADD MLOAD PUSH1 0xA0 DUP15 ADD MLOAD PUSH5 0xFFFFFFFFFF NOT SWAP1 SWAP9 AND PUSH5 0xFFFFFFFFFF SWAP1 SWAP6 AND SWAP5 SWAP1 SWAP5 OR PUSH6 0xFF0000000000 NOT AND PUSH1 0x1 PUSH1 0x28 SHL PUSH1 0xF8 SWAP5 SWAP1 SWAP5 SHR SWAP4 SWAP1 SWAP4 MUL SWAP3 SWAP1 SWAP3 OR PUSH7 0xFF000000000000 NOT AND PUSH1 0x1 PUSH1 0x30 SHL PUSH1 0xFF SWAP1 SWAP3 AND SWAP2 SWAP1 SWAP2 MUL OR PUSH9 0xFFFF00000000000000 NOT AND PUSH1 0x1 PUSH1 0x38 SHL PUSH2 0xFFFF SWAP1 SWAP3 AND SWAP2 SWAP1 SWAP2 MUL OR PUSH27 0xFFFFFFFFFFFFFFFFFFFFFFFFFFFFFFFFFFFF000000000000000000 NOT AND PUSH1 0x1 PUSH1 0x48 SHL PUSH1 0x70 SWAP3 SWAP1 SWAP3 SHR SWAP2 SWAP1 SWAP2 MUL OR PUSH1 0xFF PUSH1 0xD8 SHL NOT AND PUSH1 0x1 PUSH1 0xD8 SHL SWAP4 ISZERO ISZERO SWAP4 SWAP1 SWAP4 MUL SWAP3 SWAP1 SWAP3 OR SWAP1 SWAP2 SSTORE MLOAD SWAP3 SWAP4 POP SWAP1 SWAP2 PUSH32 0x6BD4B121BCA854A191536A2CA891155C42EE2FB23F307FB34E8BC65CFCB5412E SWAP2 SWAP1 LOG2 POP POP POP JUMP JUMPDEST PUSH1 0x0 DUP1 DUP3 SLT ISZERO PUSH2 0xB03 JUMPI PUSH1 0x0 DUP1 REVERT JUMPDEST POP SWAP1 JUMP JUMPDEST PUSH1 0x1 PUSH1 0x1 PUSH1 0xA0 SHL SUB DUP2 AND PUSH2 0xB1A JUMPI PUSH1 0x0 DUP1 REVERT JUMPDEST PUSH1 0x1 PUSH1 0x1 PUSH1 0xA0 SHL SUB DUP2 AND PUSH2 0xFEE EQ ISZERO PUSH2 0xB32 JUMPI PUSH1 0x0 DUP1 REVERT JUMPDEST PUSH1 0x1 PUSH1 0x1 PUSH1 0xA0 SHL SUB DUP2 AND PUSH2 0x5E7 EQ ISZERO PUSH2 0xB4A JUMPI PUSH1 0x0 DUP1 REVERT JUMPDEST PUSH1 0x1 PUSH1 0x1 PUSH1 0xA0 SHL SUB DUP2 AND ADDRESS EQ ISZERO PUSH2 0xB60 JUMPI PUSH1 0x0 DUP1 REVERT JUMPDEST PUSH1 0x0 PUSH2 0xB6B DUP3 PUSH2 0x13B4 JUMP JUMPDEST POP POP POP POP PUSH2 0xFFFF AND SWAP1 POP DUP1 PUSH1 0x0 EQ PUSH2 0x498 JUMPI PUSH1 0x0 DUP1 REVERT JUMPDEST PUSH2 0xB8A PUSH2 0x4288 JUMP JUMPDEST PUSH1 0x0 PUSH2 0xB94 PUSH2 0x13A7 JUMP JUMPDEST PUSH1 0x1 PUSH1 0x1 PUSH1 0xA0 SHL SUB DUP5 AND PUSH1 0x0 SWAP1 DUP2 MSTORE PUSH1 0x20 SWAP2 DUP3 MSTORE PUSH1 0x40 SWAP1 DUP2 SWAP1 KECCAK256 DUP2 MLOAD PUSH1 0xC0 DUP2 ADD DUP4 MSTORE SWAP1 SLOAD PUSH5 0xFFFFFFFFFF DUP2 AND DUP3 MSTORE PUSH1 0x1 PUSH1 0x1 PUSH1 0xF8 SHL SUB NOT PUSH1 0x1 PUSH1 0x28 SHL DUP3 DIV PUSH1 0xF8 SHL AND SWAP4 DUP3 ADD SWAP4 SWAP1 SWAP4 MSTORE PUSH1 0xFF PUSH1 0x1 PUSH1 0x30 SHL DUP5 DIV DUP2 AND SWAP3 DUP3 ADD SWAP3 SWAP1 SWAP3 MSTORE PUSH2 0xFFFF PUSH1 0x1 PUSH1 0x38 SHL DUP5 DIV AND PUSH1 0x60 DUP3 ADD MSTORE PUSH1 0x1 PUSH1 0x1 PUSH1 0x70 SHL SUB NOT PUSH1 0x1 PUSH1 0x48 SHL DUP5 DIV PUSH1 0x70 SHL AND PUSH1 0x80 DUP3 ADD MSTORE PUSH1 0x1 PUSH1 0xD8 SHL SWAP1 SWAP3 DIV AND ISZERO ISZERO PUSH1 0xA0 DUP3 ADD MSTORE SWAP2 POP POP SWAP2 SWAP1 POP JUMP JUMPDEST PUSH1 0x0 PUSH1 0x1 PUSH1 0x1 PUSH1 0xFF SHL SUB DUP3 GT ISZERO PUSH2 0xB03 JUMPI PUSH1 0x0 DUP1 REVERT JUMPDEST PUSH1 0x0 DUP3 PUSH2 0xC55 JUMPI POP PUSH1 0x0 PUSH2 0x9CF JUMP JUMPDEST PUSH1 0x0 DUP4 SGT PUSH2 0xC62 JUMPI PUSH1 0x0 DUP1 REVERT JUMPDEST PUSH2 0xC78 DUP5 DUP7 PUSH1 0x0 ADD MLOAD DUP6 DUP9 PUSH2 0x120 ADD MLOAD DUP7 PUSH2 0x141D JUMP JUMPDEST PUSH1 0x60 DUP8 ADD MLOAD SWAP1 SWAP3 POP PUSH2 0xC8B SWAP2 POP DUP3 PUSH2 0x14DF JUMP JUMPDEST PUSH1 0x60 DUP7 ADD MSTORE SWAP5 SWAP4 POP POP POP POP JUMP JUMPDEST PUSH1 0x80 DUP4 ADD MLOAD ISZERO PUSH2 0xCA7 JUMPI PUSH1 0x0 DUP1 REVERT JUMPDEST PUSH2 0x9A2 DUP4 DUP4 DUP4 PUSH1 0x0 PUSH1 0x1 PUSH2 0x11F1 JUMP JUMPDEST PUSH1 0x0 DUP1 PUSH2 0xCC3 DUP5 DUP5 PUSH2 0x14F5 JUMP JUMPDEST SWAP2 POP SWAP2 POP DUP2 PUSH1 0x0 EQ ISZERO PUSH2 0xCD7 JUMPI POP POP PUSH2 0x498 JUMP JUMPDEST DUP2 DUP2 GT ISZERO PUSH2 0x9A2 JUMPI PUSH1 0x40 MLOAD PUSH3 0x461BCD PUSH1 0xE5 SHL DUP2 MSTORE PUSH1 0x4 ADD PUSH2 0x258 SWAP1 PUSH2 0x4C25 JUMP JUMPDEST PUSH1 0x0 DUP1 PUSH2 0xD02 PUSH2 0x1561 JUMP JUMPDEST PUSH1 0x0 SWAP4 DUP5 MSTORE PUSH1 0x20 MSTORE POP POP PUSH1 0x40 SWAP1 KECCAK256 SLOAD PUSH1 0x1 PUSH1 0x1 PUSH1 0xA0 SHL SUB AND SWAP1 JUMP JUMPDEST PUSH1 0x0 PUSH2 0xD27 PUSH2 0x156E JUMP JUMPDEST PUSH2 0xFFFF DUP6 AND PUSH1 0x0 SWAP1 DUP2 MSTORE PUSH1 0x20 SWAP2 SWAP1 SWAP2 MSTORE PUSH1 0x40 DUP2 KECCAK256 SLOAD PUSH1 0x1 PUSH1 0x1 PUSH1 0xA0 SHL SUB AND SWAP2 POP PUSH2 0xD4F PUSH2 0x1561 JUMP JUMPDEST PUSH2 0xFFFF DUP7 AND PUSH1 0x0 SWAP1 DUP2 MSTORE PUSH1 0x20 SWAP2 SWAP1 SWAP2 MSTORE PUSH1 0x40 DUP2 KECCAK256 SLOAD PUSH1 0x1 PUSH1 0x1 PUSH1 0xA0 SHL SUB AND SWAP2 POP DUP5 SGT DUP1 ISZERO PUSH2 0xD7D JUMPI POP PUSH1 0x0 DUP4 SGT JUMPDEST ISZERO PUSH2 0xEB9 JUMPI PUSH1 0x40 MLOAD PUSH4 0x23DE6651 PUSH1 0xE0 SHL DUP2 MSTORE PUSH1 0x1 PUSH1 0x1 PUSH1 0xA0 SHL SUB DUP4 AND SWAP1 PUSH4 0x23DE6651 SWAP1 PUSH2 0xDB2 SWAP1 DUP5 SWAP1 DUP11 SWAP1 DUP10 SWAP1 PUSH1 0x4 ADD PUSH2 0x4B1D JUMP JUMPDEST PUSH1 0x0 PUSH1 0x40 MLOAD DUP1 DUP4 SUB DUP2 PUSH1 0x0 DUP8 DUP1 EXTCODESIZE ISZERO DUP1 ISZERO PUSH2 0xDCC JUMPI PUSH1 0x0 DUP1 REVERT JUMPDEST POP GAS CALL ISZERO DUP1 ISZERO PUSH2 0xDE0 JUMPI RETURNDATASIZE PUSH1 0x0 DUP1 RETURNDATACOPY RETURNDATASIZE PUSH1 0x0 REVERT JUMPDEST POP POP POP POP PUSH2 0xDED DUP6 PUSH2 0x157B JUMP JUMPDEST ISZERO PUSH2 0xE50 JUMPI PUSH1 0x0 PUSH1 0x1 PUSH1 0x1 PUSH1 0xA0 SHL SUB DUP8 AND CALLER PUSH32 0xC3D58168C5AE7397731D063D5BBF3D657854427343F4C083240F7AACAA2D0F62 PUSH2 0xE29 DUP10 PUSH2 0x1598 JUMP JUMPDEST PUSH2 0xE35 PUSH2 0x385 DUP10 PUSH2 0x15AE JUMP JUMPDEST PUSH1 0x40 MLOAD PUSH2 0xE43 SWAP3 SWAP2 SWAP1 PUSH2 0x4E2B JUMP JUMPDEST PUSH1 0x40 MLOAD DUP1 SWAP2 SUB SWAP1 LOG4 PUSH2 0xEB9 JUMP JUMPDEST DUP1 PUSH1 0x1 PUSH1 0x1 PUSH1 0xA0 SHL SUB AND PUSH4 0xAD1C095D DUP8 PUSH2 0xE69 DUP7 PUSH2 0x9A8 JUMP JUMPDEST PUSH1 0x40 MLOAD DUP4 PUSH4 0xFFFFFFFF AND PUSH1 0xE0 SHL DUP2 MSTORE PUSH1 0x4 ADD PUSH2 0xE86 SWAP3 SWAP2 SWAP1 PUSH2 0x4B41 JUMP JUMPDEST PUSH1 0x0 PUSH1 0x40 MLOAD DUP1 DUP4 SUB DUP2 PUSH1 0x0 DUP8 DUP1 EXTCODESIZE ISZERO DUP1 ISZERO PUSH2 0xEA0 JUMPI PUSH1 0x0 DUP1 REVERT JUMPDEST POP GAS CALL ISZERO DUP1 ISZERO PUSH2 0xEB4 JUMPI RETURNDATASIZE PUSH1 0x0 DUP1 RETURNDATACOPY RETURNDATASIZE PUSH1 0x0 REVERT JUMPDEST POP POP POP POP JUMPDEST POP POP POP POP POP POP JUMP JUMPDEST PUSH2 0xECA DUP4 PUSH2 0x15CF JUMP JUMPDEST ISZERO PUSH2 0xEE7 JUMPI PUSH1 0x40 MLOAD PUSH3 0x461BCD PUSH1 0xE5 SHL DUP2 MSTORE PUSH1 0x4 ADD PUSH2 0x258 SWAP1 PUSH2 0x4D4C JUMP JUMPDEST DUP2 PUSH2 0xFFFF AND PUSH1 0x0 LT DUP1 ISZERO PUSH2 0xF01 JUMPI POP PUSH2 0x3FFF PUSH2 0xFFFF DUP4 AND GT ISZERO JUMPDEST PUSH2 0xF1D JUMPI PUSH1 0x40 MLOAD PUSH3 0x461BCD PUSH1 0xE5 SHL DUP2 MSTORE PUSH1 0x4 ADD PUSH2 0x258 SWAP1 PUSH2 0x4DC8 JUMP JUMPDEST PUSH1 0x40 DUP4 ADD MLOAD PUSH1 0xFF AND ISZERO PUSH2 0xF42 JUMPI PUSH1 0x40 MLOAD PUSH3 0x461BCD PUSH1 0xE5 SHL DUP2 MSTORE PUSH1 0x4 ADD PUSH2 0x258 SWAP1 PUSH2 0x4C93 JUMP JUMPDEST PUSH1 0x20 DUP4 ADD MLOAD PUSH1 0x1 PUSH1 0x1 PUSH1 0xF8 SHL SUB NOT AND ISZERO PUSH2 0xF6E JUMPI PUSH1 0x40 MLOAD PUSH3 0x461BCD PUSH1 0xE5 SHL DUP2 MSTORE PUSH1 0x4 ADD PUSH2 0x258 SWAP1 PUSH2 0x4D7A JUMP JUMPDEST PUSH2 0xF83 DUP4 PUSH2 0xFFFF DUP5 AND PUSH1 0x0 PUSH1 0x1 PUSH1 0xFE SHL PUSH2 0x15DC JUMP JUMPDEST PUSH2 0xFFFF DUP3 AND PUSH1 0x60 DUP5 ADD MSTORE PUSH1 0x0 PUSH2 0xF98 DUP3 PUSH2 0x17E2 JUMP JUMPDEST SWAP1 POP PUSH5 0xFFFFFFFFFF DUP2 LT PUSH2 0xFAB JUMPI PUSH1 0x0 DUP1 REVERT JUMPDEST PUSH5 0xFFFFFFFFFF AND SWAP1 SWAP3 MSTORE POP POP JUMP JUMPDEST PUSH1 0x0 DUP2 PUSH2 0xFC8 JUMPI POP PUSH1 0x0 PUSH2 0x108E JUMP JUMPDEST PUSH1 0x0 DUP3 SGT PUSH2 0xFD5 JUMPI PUSH1 0x0 DUP1 REVERT JUMPDEST PUSH1 0x0 PUSH2 0xFE8 DUP6 PUSH1 0x0 ADD MLOAD PUSH2 0xFFFF AND PUSH2 0x1800 JUMP JUMPDEST DUP1 MLOAD SWAP1 SWAP2 POP PUSH1 0x1 PUSH1 0x1 PUSH1 0xA0 SHL SUB AND PUSH2 0xFFF JUMPI PUSH1 0x0 DUP1 REVERT JUMPDEST PUSH1 0x1 DUP2 PUSH1 0x60 ADD MLOAD PUSH1 0x5 DUP2 GT ISZERO PUSH2 0x1011 JUMPI INVALID JUMPDEST EQ DUP1 PUSH2 0x102C JUMPI POP PUSH1 0x2 DUP2 PUSH1 0x60 ADD MLOAD PUSH1 0x5 DUP2 GT ISZERO PUSH2 0x102A JUMPI INVALID JUMPDEST EQ JUMPDEST ISZERO PUSH2 0x1064 JUMPI DUP5 MLOAD PUSH2 0x120 DUP7 ADD MLOAD PUSH2 0x1048 SWAP2 DUP4 SWAP2 DUP7 SWAP1 DUP9 SWAP1 PUSH2 0x1813 JUMP JUMPDEST PUSH1 0x60 DUP7 ADD MLOAD SWAP1 SWAP3 POP PUSH2 0x105A SWAP1 DUP4 PUSH2 0x14DF JUMP JUMPDEST PUSH1 0x60 DUP7 ADD MSTORE PUSH2 0x108C JUMP JUMPDEST PUSH1 0x4 DUP2 PUSH1 0x60 ADD MLOAD PUSH1 0x5 DUP2 GT ISZERO PUSH2 0x1076 JUMPI INVALID JUMPDEST EQ ISZERO PUSH2 0x9C JUMPI PUSH2 0x1089 DUP6 DUP6 DUP6 PUSH1 0x0 PUSH2 0xC46 JUMP JUMPDEST SWAP2 POP JUMPDEST POP JUMPDEST SWAP4 SWAP3 POP POP POP JUMP JUMPDEST PUSH1 0x0 TIMESTAMP PUSH2 0x10A1 DUP4 PUSH2 0x15CF JUMP JUMPDEST ISZERO PUSH2 0x10C2 JUMPI PUSH2 0x10AF DUP2 PUSH2 0x17E2 JUMP JUMPDEST DUP4 MLOAD PUSH5 0xFFFFFFFFFF AND LT SWAP2 POP PUSH2 0x8BD SWAP1 POP JUMP JUMPDEST DUP3 MLOAD PUSH5 0xFFFFFFFFFF AND ISZERO DUP1 ISZERO SWAP1 PUSH2 0x10E1 JUMPI POP DUP3 MLOAD PUSH5 0xFFFFFFFFFF AND DUP2 LT ISZERO JUMPDEST SWAP2 POP POP PUSH2 0x8BD JUMP JUMPDEST PUSH2 0x10F1 PUSH2 0x42BD JUMP JUMPDEST PUSH2 0x9B6 DUP3 TIMESTAMP PUSH2 0x18A4 JUMP JUMPDEST DUP2 PUSH2 0xFFFF AND PUSH1 0x0 LT DUP1 ISZERO PUSH2 0x1115 JUMPI POP PUSH2 0x3FFF PUSH2 0xFFFF DUP4 AND GT ISZERO JUMPDEST PUSH2 0x111E JUMPI PUSH1 0x0 DUP1 REVERT JUMPDEST PUSH2 0xFFFF DUP3 AND DUP1 DUP6 MSTORE PUSH2 0x1131 SWAP1 DUP3 SWAP1 PUSH2 0x1965 JUMP JUMPDEST ISZERO PUSH2 0x1160 JUMPI PUSH2 0x1146 DUP4 DUP4 DUP7 PUSH2 0x120 ADD MLOAD PUSH2 0x19EF JUMP JUMPDEST PUSH2 0x100 DUP9 ADD MSTORE PUSH1 0xE0 DUP8 ADD MSTORE PUSH1 0x40 DUP7 ADD MSTORE PUSH1 0x20 DUP6 ADD MSTORE PUSH2 0x117E JUMP JUMPDEST PUSH1 0x0 PUSH1 0x20 DUP6 ADD DUP2 SWAP1 MSTORE PUSH1 0x40 DUP6 ADD DUP2 SWAP1 MSTORE PUSH1 0xE0 DUP6 ADD DUP2 SWAP1 MSTORE PUSH2 0x100 DUP6 ADD MSTORE JUMPDEST POP POP PUSH1 0x0 PUSH1 0x60 DUP4 ADD DUP2 SWAP1 MSTORE PUSH1 0x80 DUP4 ADD DUP2 SWAP1 MSTORE PUSH1 0xA0 DUP4 ADD DUP2 SWAP1 MSTORE PUSH1 0xC0 SWAP1 SWAP3 ADD SWAP2 SWAP1 SWAP2 MSTORE POP JUMP JUMPDEST DUP2 DUP2 MUL PUSH1 0x0 NOT DUP4 EQ ISZERO PUSH2 0x11D3 JUMPI DUP2 ISZERO DUP1 PUSH2 0x11C5 JUMPI POP DUP3 DUP3 DUP3 DUP2 PUSH2 0x11C2 JUMPI INVALID JUMPDEST SDIV EQ JUMPDEST PUSH2 0x11CE JUMPI PUSH1 0x0 DUP1 REVERT JUMPDEST PUSH2 0x9B6 JUMP JUMPDEST DUP3 ISZERO DUP1 PUSH2 0x11E8 JUMPI POP DUP2 DUP4 DUP3 DUP2 PUSH2 0x11E5 JUMPI INVALID JUMPDEST SDIV EQ JUMPDEST PUSH2 0x9B6 JUMPI PUSH1 0x0 DUP1 REVERT JUMPDEST PUSH1 0x0 DUP1 PUSH2 0x120E DUP7 DUP9 PUSH1 0x0 ADD MLOAD DUP10 PUSH1 0x80 ADD MLOAD DUP11 PUSH2 0x120 ADD MLOAD DUP9 PUSH2 0x1AA9 JUMP JUMPDEST SWAP2 POP PUSH1 0x0 PUSH2 0x122D DUP9 PUSH1 0x80 ADD MLOAD DUP10 PUSH1 0x60 ADD MLOAD PUSH2 0x14DF SWAP1 SWAP2 SWAP1 PUSH4 0xFFFFFFFF AND JUMP JUMPDEST SWAP1 POP DUP4 DUP1 ISZERO PUSH2 0x123C JUMPI POP PUSH1 0x0 DUP2 SLT JUMPDEST DUP1 ISZERO PUSH2 0x1257 JUMPI POP PUSH1 0x20 DUP9 ADD MLOAD PUSH1 0x0 SWAP1 PUSH2 0x1255 SWAP1 DUP4 PUSH2 0x14DF JUMP JUMPDEST SLT JUMPDEST ISZERO PUSH2 0x127D JUMPI DUP6 PUSH1 0xA0 ADD MLOAD PUSH2 0x127D JUMPI PUSH1 0x40 MLOAD PUSH3 0x461BCD PUSH1 0xE5 SHL DUP2 MSTORE PUSH1 0x4 ADD PUSH2 0x258 SWAP1 PUSH2 0x4CEC JUMP JUMPDEST DUP1 ISZERO PUSH2 0x129C JUMPI PUSH1 0x20 DUP9 ADD MLOAD PUSH2 0x1292 SWAP1 DUP3 PUSH2 0x14DF JUMP JUMPDEST PUSH1 0x20 DUP10 ADD MSTORE PUSH1 0x1 SWAP2 POP JUMPDEST PUSH1 0xA0 DUP9 ADD MLOAD ISZERO ISZERO DUP1 PUSH2 0x12B1 JUMPI POP PUSH1 0xC0 DUP9 ADD MLOAD ISZERO ISZERO JUMPDEST ISZERO PUSH2 0x131A JUMPI PUSH1 0x0 PUSH2 0x12E1 DUP10 PUSH1 0xC0 ADD MLOAD PUSH2 0x12DB DUP12 PUSH1 0xA0 ADD MLOAD DUP13 PUSH1 0x40 ADD MLOAD PUSH2 0x14DF SWAP1 SWAP2 SWAP1 PUSH4 0xFFFFFFFF AND JUMP JUMPDEST SWAP1 PUSH2 0x14DF JUMP JUMPDEST SWAP1 POP PUSH1 0x0 DUP2 SLT ISZERO PUSH2 0x1304 JUMPI PUSH1 0x40 MLOAD PUSH3 0x461BCD PUSH1 0xE5 SHL DUP2 MSTORE PUSH1 0x4 ADD PUSH2 0x258 SWAP1 PUSH2 0x4DA4 JUMP JUMPDEST PUSH2 0x130F DUP10 DUP10 DUP4 PUSH2 0x1B52 JUMP JUMPDEST POP PUSH1 0x40 DUP10 ADD MSTORE PUSH1 0x1 SWAP2 POP JUMPDEST DUP2 ISZERO PUSH2 0x1349 JUMPI PUSH2 0x1349 DUP8 DUP10 PUSH1 0x0 ADD MLOAD DUP11 PUSH1 0x20 ADD MLOAD DUP12 PUSH1 0x40 ADD MLOAD DUP13 PUSH1 0xE0 ADD MLOAD DUP14 PUSH2 0x100 ADD MLOAD DUP15 PUSH2 0x120 ADD MLOAD PUSH2 0x1C3F JUMP JUMPDEST DUP8 MLOAD PUSH1 0x20 DUP10 ADD MLOAD PUSH2 0x1376 SWAP2 PUSH2 0xFFFF AND SWAP1 ISZERO ISZERO DUP1 PUSH2 0x1369 JUMPI POP PUSH1 0x40 DUP11 ADD MLOAD ISZERO ISZERO JUMPDEST DUP9 SWAP2 SWAP1 PUSH1 0x1 PUSH1 0xFE SHL PUSH2 0x15DC JUMP JUMPDEST PUSH1 0x0 DUP9 PUSH1 0x20 ADD MLOAD SLT ISZERO PUSH2 0x139C JUMPI PUSH1 0x20 DUP7 ADD DUP1 MLOAD PUSH1 0x1 PUSH1 0xF9 SHL OR PUSH1 0x1 PUSH1 0x1 PUSH1 0xF8 SHL SUB NOT AND SWAP1 MSTORE JUMPDEST POP POP SWAP6 SWAP5 POP POP POP POP POP JUMP JUMPDEST PUSH1 0x0 DUP1 PUSH2 0x9B6 PUSH1 0x1 PUSH2 0x1D7A JUMP JUMPDEST PUSH1 0x0 DUP1 PUSH1 0x0 DUP1 PUSH1 0x0 DUP1 PUSH2 0x13C5 PUSH2 0x1D93 JUMP JUMPDEST PUSH1 0x1 PUSH1 0x1 PUSH1 0xA0 SHL SUB SWAP1 SWAP8 AND PUSH1 0x0 SWAP1 DUP2 MSTORE PUSH1 0x20 SWAP8 SWAP1 SWAP8 MSTORE POP POP PUSH1 0x40 SWAP1 SWAP5 KECCAK256 SLOAD PUSH2 0xFFFF DUP2 AND SWAP6 PUSH4 0xFFFFFFFF PUSH3 0x10000 DUP4 DIV DUP2 AND SWAP7 POP PUSH1 0x1 PUSH1 0x30 SHL DUP4 DIV AND SWAP5 POP PUSH1 0xFF PUSH1 0x1 PUSH1 0x50 SHL DUP4 DIV AND SWAP4 POP PUSH1 0x1 PUSH1 0x58 SHL SWAP1 SWAP2 DIV PUSH1 0xD8 SHL SWAP2 POP JUMP JUMPDEST PUSH1 0x0 DUP1 PUSH1 0x0 PUSH2 0x142B DUP7 PUSH2 0xAF4 JUMP JUMPDEST SWAP1 POP DUP1 PUSH2 0x143F JUMPI PUSH1 0x0 DUP1 SWAP3 POP SWAP3 POP POP PUSH2 0x14D5 JUMP JUMPDEST PUSH1 0x0 PUSH2 0x144E DUP9 PUSH2 0xFFFF AND PUSH2 0x1DA0 JUMP JUMPDEST SWAP1 POP PUSH1 0x3 DUP2 PUSH1 0x60 ADD MLOAD PUSH1 0x5 DUP2 GT ISZERO PUSH2 0x1462 JUMPI INVALID JUMPDEST EQ ISZERO PUSH2 0x14A9 JUMPI CALLVALUE DUP3 LT ISZERO PUSH2 0x1482 JUMPI PUSH2 0x147D DUP10 DUP4 CALLVALUE SUB DUP8 PUSH2 0x1DB3 JUMP JUMPDEST PUSH2 0x14A1 JUMP JUMPDEST CALLVALUE DUP3 EQ PUSH2 0x14A1 JUMPI PUSH1 0x40 MLOAD PUSH3 0x461BCD PUSH1 0xE5 SHL DUP2 MSTORE PUSH1 0x4 ADD PUSH2 0x258 SWAP1 PUSH2 0x4C4E JUMP JUMPDEST DUP7 SWAP4 POP PUSH2 0x14C3 JUMP JUMPDEST PUSH2 0x14C0 PUSH2 0x14BB DUP3 PUSH1 0x0 ADD MLOAD DUP12 DUP6 PUSH2 0x1E7B JUMP JUMPDEST PUSH2 0xC30 JUMP JUMPDEST SWAP4 POP JUMPDEST PUSH2 0x14D0 DUP10 DUP10 DUP7 DUP5 DUP11 PUSH2 0x2003 JUMP JUMPDEST SWAP3 POP POP POP JUMPDEST SWAP6 POP SWAP6 SWAP4 POP POP POP POP JUMP JUMPDEST DUP2 DUP2 ADD DUP3 DUP2 SLT ISZERO PUSH1 0x0 DUP4 SLT ISZERO EQ PUSH2 0x9B6 JUMPI PUSH1 0x0 DUP1 REVERT JUMPDEST PUSH1 0x0 DUP1 PUSH1 0x0 PUSH2 0x1502 PUSH2 0x204A JUMP JUMPDEST PUSH2 0xFFFF DUP6 AND PUSH1 0x0 SWAP1 DUP2 MSTORE PUSH1 0x20 SWAP2 SWAP1 SWAP2 MSTORE PUSH1 0x40 SWAP1 KECCAK256 PUSH1 0x1 DUP2 ADD SLOAD SWAP1 SWAP2 POP PUSH2 0x1534 SWAP1 PUSH1 0x1 PUSH1 0x58 SHL SWAP1 DIV PUSH4 0xFFFFFFFF AND PUSH2 0x2057 JUMP JUMPDEST DUP2 SLOAD SWAP1 SWAP4 POP PUSH1 0x1 PUSH1 0x28 SHL SWAP1 DIV PUSH1 0x1 PUSH1 0x1 PUSH1 0x58 SHL SUB AND PUSH2 0x1556 PUSH2 0x385 DUP8 DUP4 PUSH2 0x2065 JUMP JUMPDEST SWAP3 POP POP POP SWAP3 POP SWAP3 SWAP1 POP JUMP JUMPDEST PUSH1 0x0 DUP1 PUSH2 0x9B6 PUSH1 0x3 PUSH2 0x1D7A JUMP JUMPDEST PUSH1 0x0 DUP1 PUSH2 0x9B6 PUSH1 0x21 PUSH2 0x1D7A JUMP JUMPDEST PUSH1 0x0 CHAINID PUSH1 0x1 DUP2 EQ DUP1 ISZERO PUSH2 0x8B9 JUMPI POP POP POP PUSH1 0x4 PUSH2 0xFFFF SWAP1 SWAP2 AND GT ISZERO SWAP1 JUMP JUMPDEST PUSH1 0xC PUSH1 0x30 SWAP2 SWAP1 SWAP2 SHL PUSH8 0xFFFF000000000000 AND OR SWAP1 JUMP JUMPDEST PUSH1 0x0 DUP1 DUP3 SLT ISZERO PUSH2 0x15C8 JUMPI PUSH2 0x15C1 DUP3 PUSH2 0x9A8 JUMP JUMPDEST SWAP1 POP PUSH2 0x8BD JUMP JUMPDEST POP DUP1 PUSH2 0x8BD JUMP JUMPDEST PUSH1 0x60 ADD MLOAD PUSH2 0xFFFF AND ISZERO ISZERO SWAP1 JUMP JUMPDEST DUP3 PUSH1 0x0 LT DUP1 ISZERO PUSH2 0x15EE JUMPI POP PUSH2 0x3FFF DUP4 GT ISZERO JUMPDEST PUSH2 0x15F7 JUMPI PUSH1 0x0 DUP1 REVERT JUMPDEST DUP2 DUP1 ISZERO PUSH2 0x160B JUMPI POP DUP3 DUP5 PUSH1 0x60 ADD MLOAD PUSH2 0xFFFF AND EQ JUMPDEST ISZERO PUSH2 0x1615 JUMPI PUSH2 0x9A2 JUMP JUMPDEST PUSH1 0x80 DUP5 ADD MLOAD PUSH1 0x0 SWAP1 DUP2 JUMPDEST PUSH1 0x1 PUSH1 0x1 PUSH1 0x70 SHL SUB NOT DUP3 AND ISZERO PUSH2 0x1797 JUMPI PUSH1 0xF0 DUP3 SWAP1 SHR PUSH2 0x3FFF AND DUP7 DUP2 EQ DUP1 ISZERO PUSH2 0x1644 JUMPI POP DUP6 JUMPDEST ISZERO PUSH2 0x167C JUMPI POP PUSH1 0x80 DUP8 ADD DUP1 MLOAD PUSH1 0x1 PUSH1 0x1 PUSH1 0xF0 SHL SUB NOT DUP7 AND PUSH1 0x10 SWAP1 SWAP4 MUL SWAP3 SWAP1 SWAP3 SHR SWAP2 SWAP1 SWAP2 OR PUSH1 0x1 PUSH1 0x1 PUSH1 0x70 SHL SUB NOT AND SWAP1 MSTORE POP PUSH2 0x9A2 SWAP1 POP JUMP JUMPDEST DUP7 DUP2 EQ DUP1 ISZERO PUSH2 0x1689 JUMPI POP DUP6 ISZERO JUMPDEST ISZERO PUSH2 0x16E5 JUMPI PUSH1 0x1 PUSH1 0x1 PUSH1 0xF0 SHL SUB NOT DUP6 AND NOT SWAP3 SWAP1 SWAP3 AND SWAP2 PUSH1 0x3 PUSH1 0xFE SHL DUP4 AND PUSH2 0x16C3 JUMPI PUSH1 0x10 DUP4 PUSH14 0xFFFFFFFFFFFFFFFFFFFFFFFFFFFF NOT AND SWAP1 SHL SWAP3 POP JUMPDEST POP PUSH1 0x1 PUSH1 0x1 PUSH1 0x70 SHL SUB NOT SWAP2 DUP3 AND PUSH1 0x10 SWAP1 SWAP2 MUL SHR SWAP2 SWAP1 SWAP2 OR AND PUSH1 0x80 DUP6 ADD MSTORE PUSH2 0x9A2 JUMP JUMPDEST DUP7 DUP2 GT DUP1 ISZERO PUSH2 0x16F1 JUMPI POP DUP6 JUMPDEST ISZERO PUSH2 0x174B JUMPI PUSH1 0x80 DUP9 DUP2 ADD MLOAD PUSH1 0x1 PUSH1 0x1 PUSH1 0xF0 SHL SUB NOT PUSH1 0xF0 DUP11 SWAP1 SHL DUP9 OR DUP2 AND PUSH1 0x10 DUP7 MUL SHR SWAP7 SWAP1 SWAP7 OR SWAP6 SWAP2 SHL AND ISZERO PUSH2 0x1725 JUMPI PUSH1 0x0 DUP1 REVERT JUMPDEST POP PUSH1 0x1 PUSH1 0x1 PUSH1 0x70 SHL SUB NOT SWAP2 DUP3 AND PUSH1 0x1 SWAP2 SWAP1 SWAP2 ADD PUSH1 0x10 MUL SHR SWAP2 SWAP1 SWAP2 OR AND PUSH1 0x80 DUP6 ADD MSTORE PUSH2 0x9A2 JUMP JUMPDEST DUP7 DUP2 GT DUP1 ISZERO PUSH2 0x1758 JUMPI POP DUP6 ISZERO JUMPDEST ISZERO PUSH2 0x1766 JUMPI POP POP POP POP PUSH2 0x9A2 JUMP JUMPDEST POP PUSH1 0x1 PUSH1 0x1 PUSH1 0xF0 SHL SUB NOT DUP3 AND PUSH1 0x10 DUP3 DUP2 MUL SWAP2 SWAP1 SWAP2 SHR SWAP4 SWAP1 SWAP4 OR SWAP3 SWAP2 SWAP1 SWAP2 SHL PUSH1 0x1 PUSH1 0x1 PUSH1 0x80 SHL SUB NOT AND SWAP1 PUSH1 0x1 ADD PUSH2 0x161F JUMP JUMPDEST DUP5 PUSH2 0x17A4 JUMPI POP POP POP PUSH2 0x9A2 JUMP JUMPDEST PUSH1 0x9 DUP2 LT PUSH2 0x17B1 JUMPI PUSH1 0x0 DUP1 REVERT JUMPDEST PUSH1 0x1 PUSH1 0x1 PUSH1 0xF0 SHL SUB NOT PUSH1 0xF0 DUP8 SWAP1 SHL DUP6 OR AND PUSH1 0x10 SWAP1 SWAP2 MUL SHR SWAP2 SWAP1 SWAP2 OR PUSH1 0x1 PUSH1 0x1 PUSH1 0x70 SHL SUB NOT AND PUSH1 0x80 DUP7 ADD MSTORE POP POP POP POP POP JUMP JUMPDEST PUSH1 0x0 PUSH3 0x15180 DUP3 LT ISZERO PUSH2 0x17F4 JUMPI PUSH1 0x0 DUP1 REVERT JUMPDEST POP PUSH3 0x15180 DUP2 MOD SWAP1 SUB SWAP1 JUMP JUMPDEST PUSH2 0x1808 PUSH2 0x42DE JUMP JUMPDEST PUSH2 0x9B6 DUP3 PUSH1 0x0 PUSH2 0x2097 JUMP JUMPDEST PUSH1 0x0 PUSH2 0x1824 DUP7 PUSH1 0x0 ADD MLOAD DUP5 DUP7 PUSH2 0x1E7B JUMP JUMPDEST SWAP4 POP PUSH1 0x0 PUSH2 0x1835 DUP7 PUSH2 0xFFFF AND PUSH2 0x1DA0 JUMP JUMPDEST SWAP1 POP PUSH1 0x0 PUSH1 0x2 DUP9 PUSH1 0x60 ADD MLOAD PUSH1 0x5 DUP2 GT ISZERO PUSH2 0x184B JUMPI INVALID JUMPDEST EQ ISZERO PUSH2 0x1865 JUMPI PUSH2 0x185E PUSH2 0x14BB DUP10 DUP9 PUSH2 0x2131 JUMP JUMPDEST SWAP1 POP PUSH2 0x188B JUMP JUMPDEST PUSH1 0x1 DUP9 PUSH1 0x60 ADD MLOAD PUSH1 0x5 DUP2 GT ISZERO PUSH2 0x1877 JUMPI INVALID JUMPDEST EQ ISZERO PUSH2 0x9C JUMPI PUSH2 0x185E PUSH2 0x14BB DUP10 DUP5 DUP10 PUSH2 0x21E2 JUMP JUMPDEST PUSH2 0x1898 DUP6 DUP9 DUP4 DUP6 DUP9 PUSH2 0x2003 JUMP JUMPDEST SWAP9 SWAP8 POP POP POP POP POP POP POP POP JUMP JUMPDEST PUSH2 0x18AC PUSH2 0x42BD JUMP JUMPDEST PUSH1 0x0 PUSH2 0x18B7 DUP5 PUSH2 0x23A2 JUMP JUMPDEST SWAP1 POP DUP3 DUP2 PUSH1 0x0 ADD MLOAD LT ISZERO PUSH2 0x18F6 JUMPI PUSH1 0x0 DUP1 PUSH2 0x18D1 DUP7 PUSH2 0x246A JUMP JUMPDEST SWAP1 POP PUSH2 0x18DF DUP7 DUP5 DUP4 DUP9 PUSH2 0x24E7 JUMP JUMPDEST SWAP1 SWAP4 POP SWAP2 POP PUSH2 0x18EF DUP7 DUP4 DUP6 PUSH2 0x258B JUMP JUMPDEST POP POP PUSH2 0x1903 JUMP JUMPDEST DUP1 MLOAD DUP4 EQ PUSH2 0x1903 JUMPI PUSH1 0x0 DUP1 REVERT JUMPDEST PUSH1 0x40 MLOAD DUP1 PUSH1 0x60 ADD PUSH1 0x40 MSTORE DUP1 PUSH2 0x192C PUSH2 0x14BB DUP5 PUSH1 0xA0 ADD MLOAD DUP6 PUSH1 0xC0 ADD MLOAD PUSH2 0x27BF SWAP1 SWAP2 SWAP1 PUSH4 0xFFFFFFFF AND JUMP JUMPDEST DUP2 MSTORE PUSH1 0x20 ADD PUSH2 0x194F PUSH2 0x14BB DUP5 PUSH1 0xA0 ADD MLOAD DUP6 PUSH1 0xE0 ADD MLOAD PUSH2 0x27BF SWAP1 SWAP2 SWAP1 PUSH4 0xFFFFFFFF AND JUMP JUMPDEST DUP2 MSTORE PUSH1 0x20 ADD DUP3 PUSH1 0x60 ADD MLOAD DUP2 MSTORE POP SWAP2 POP POP SWAP3 SWAP2 POP POP JUMP JUMPDEST PUSH1 0x0 DUP2 ISZERO DUP1 ISZERO SWAP1 PUSH2 0x1978 JUMPI POP PUSH2 0x3FFF DUP3 GT ISZERO JUMPDEST PUSH2 0x1981 JUMPI PUSH1 0x0 DUP1 REVERT JUMPDEST PUSH1 0x80 DUP4 ADD MLOAD PUSH1 0x60 DUP5 ADD MLOAD PUSH2 0xFFFF AND DUP4 EQ ISZERO PUSH2 0x19A0 JUMPI PUSH1 0x1 SWAP2 POP POP PUSH2 0x9B6 JUMP JUMPDEST PUSH1 0x1 PUSH1 0x1 PUSH1 0x70 SHL SUB NOT DUP2 AND ISZERO PUSH2 0x19E5 JUMPI PUSH1 0xF0 DUP2 SWAP1 SHR PUSH2 0x3FFF AND DUP4 DUP2 EQ ISZERO PUSH2 0x19D2 JUMPI POP PUSH1 0x1 PUSH1 0xFE SHL SWAP1 DUP2 AND EQ SWAP1 POP PUSH2 0x9B6 JUMP JUMPDEST POP PUSH1 0x10 SHL PUSH1 0x1 PUSH1 0x1 PUSH1 0x80 SHL SUB NOT AND PUSH2 0x19A0 JUMP JUMPDEST POP PUSH1 0x0 SWAP4 SWAP3 POP POP POP JUMP JUMPDEST PUSH1 0x0 DUP1 PUSH1 0x0 DUP1 PUSH1 0x0 PUSH2 0x19FF PUSH2 0x27E6 JUMP JUMPDEST PUSH1 0x1 PUSH1 0x1 PUSH1 0xA0 SHL SUB DUP10 AND PUSH1 0x0 SWAP1 DUP2 MSTORE PUSH1 0x20 DUP3 DUP2 MSTORE PUSH1 0x40 DUP1 DUP4 KECCAK256 PUSH2 0xFFFF DUP13 AND DUP5 MSTORE SWAP1 SWAP2 MSTORE SWAP1 KECCAK256 DUP1 SLOAD PUSH1 0x1 PUSH1 0x1 PUSH1 0x50 SHL SUB DUP2 AND SWAP7 POP PUSH1 0x1 PUSH1 0x50 SHL SWAP1 DIV PUSH4 0xFFFFFFFF AND SWAP5 POP SWAP1 SWAP2 POP DUP4 ISZERO PUSH2 0x1A6C JUMPI DUP1 SLOAD PUSH2 0x1A65 SWAP1 PUSH1 0x1 PUSH1 0x70 SHL SWAP1 DIV PUSH7 0xFFFFFFFFFFFFFF AND PUSH2 0x2057 JUMP JUMPDEST SWAP3 POP PUSH2 0x1A81 JUMP JUMPDEST DUP1 SLOAD PUSH1 0x1 PUSH1 0x70 SHL SWAP1 DIV PUSH7 0xFFFFFFFFFFFFFF AND SWAP3 POP JUMPDEST DUP1 SLOAD PUSH2 0x1A9C SWAP1 DUP9 SWAP1 PUSH1 0x1 PUSH1 0xA8 SHL SWAP1 DIV PUSH1 0xA SWAP1 DUP2 SIGNEXTEND SWAP1 SIGNEXTEND PUSH2 0x27F3 JUMP JUMPDEST SWAP6 POP POP POP SWAP4 POP SWAP4 POP SWAP4 POP SWAP4 JUMP JUMPDEST PUSH1 0x0 DUP4 PUSH2 0x1AB8 JUMPI POP PUSH1 0x0 PUSH2 0x1B49 JUMP JUMPDEST PUSH1 0x0 DUP5 SLT PUSH2 0x1AC5 JUMPI PUSH1 0x0 DUP1 REVERT JUMPDEST PUSH1 0x0 PUSH2 0x1AD4 DUP7 PUSH2 0xFFFF AND PUSH2 0x1DA0 JUMP JUMPDEST SWAP1 POP PUSH2 0x1AE9 DUP2 PUSH2 0x1AE4 DUP7 DUP9 PUSH2 0x2065 JUMP JUMPDEST PUSH2 0x2821 JUMP JUMPDEST SWAP2 POP PUSH1 0x0 PUSH2 0x1AF6 DUP4 PUSH2 0x9A8 JUMP JUMPDEST SWAP1 POP PUSH2 0x1B03 DUP8 DUP4 DUP4 PUSH2 0x2859 JUMP JUMPDEST PUSH1 0x3 DUP3 PUSH1 0x60 ADD MLOAD PUSH1 0x5 DUP2 GT ISZERO PUSH2 0x1B15 JUMPI INVALID JUMPDEST EQ ISZERO PUSH2 0x1B2B JUMPI PUSH2 0x1B26 DUP9 DUP3 DUP7 PUSH2 0x1DB3 JUMP JUMPDEST PUSH2 0x1B38 JUMP JUMPDEST DUP2 MLOAD PUSH2 0x1B38 SWAP1 DUP10 DUP4 PUSH2 0x2951 JUMP JUMPDEST PUSH2 0x1B45 DUP9 DUP9 DUP6 DUP6 DUP10 PUSH2 0x2003 JUMP JUMPDEST POP POP POP JUMPDEST SWAP6 SWAP5 POP POP POP POP POP JUMP JUMPDEST DUP3 MLOAD PUSH1 0x0 SWAP1 TIMESTAMP SWAP1 DUP3 SWAP1 PUSH2 0x1B68 SWAP1 PUSH2 0xFFFF AND PUSH2 0xCF7 JUMP JUMPDEST SWAP1 POP PUSH1 0x0 PUSH2 0x1B7B DUP3 DUP9 PUSH1 0xC0 ADD MLOAD DUP6 PUSH2 0x29C8 JUMP JUMPDEST SWAP1 POP PUSH2 0x1B89 DUP8 DUP4 DUP4 DUP9 PUSH2 0x2AAB JUMP JUMPDEST SWAP4 POP PUSH1 0x0 PUSH2 0x1B96 DUP4 PUSH2 0x2BD8 JUMP JUMPDEST SWAP1 POP PUSH1 0x1 PUSH1 0x1 PUSH1 0xA0 SHL SUB DUP2 AND ISZERO PUSH2 0x1C24 JUMPI DUP1 PUSH1 0x1 PUSH1 0x1 PUSH1 0xA0 SHL SUB AND PUSH4 0x1D684DD2 DUP9 DUP11 PUSH1 0x0 ADD MLOAD PUSH2 0x1BC9 DUP13 PUSH1 0x40 ADD MLOAD PUSH2 0xAF4 JUMP JUMPDEST DUP11 DUP14 PUSH1 0xC0 ADD MLOAD DUP12 PUSH1 0x40 MLOAD DUP8 PUSH4 0xFFFFFFFF AND PUSH1 0xE0 SHL DUP2 MSTORE PUSH1 0x4 ADD PUSH2 0x1BF1 SWAP7 SWAP6 SWAP5 SWAP4 SWAP3 SWAP2 SWAP1 PUSH2 0x4BAD JUMP JUMPDEST PUSH1 0x0 PUSH1 0x40 MLOAD DUP1 DUP4 SUB DUP2 PUSH1 0x0 DUP8 DUP1 EXTCODESIZE ISZERO DUP1 ISZERO PUSH2 0x1C0B JUMPI PUSH1 0x0 DUP1 REVERT JUMPDEST POP GAS CALL ISZERO DUP1 ISZERO PUSH2 0x1C1F JUMPI RETURNDATASIZE PUSH1 0x0 DUP1 RETURNDATACOPY RETURNDATASIZE PUSH1 0x0 REVERT JUMPDEST POP POP POP POP JUMPDEST DUP5 ISZERO PUSH2 0x1C34 JUMPI PUSH2 0x1C34 DUP8 DUP7 PUSH2 0x2C4A JUMP JUMPDEST POP POP POP POP SWAP4 SWAP3 POP POP POP JUMP JUMPDEST PUSH1 0x0 PUSH2 0x1C49 PUSH2 0x27E6 JUMP JUMPDEST PUSH1 0x1 PUSH1 0x1 PUSH1 0xA0 SHL SUB DUP10 AND PUSH1 0x0 SWAP1 DUP2 MSTORE PUSH1 0x20 DUP3 DUP2 MSTORE PUSH1 0x40 DUP1 DUP4 KECCAK256 PUSH2 0xFFFF DUP13 AND DUP5 MSTORE SWAP1 SWAP2 MSTORE SWAP1 KECCAK256 SWAP1 SWAP2 POP DUP5 PUSH2 0x1CB1 JUMPI PUSH7 0xFFFFFFFFFFFFFF DUP5 GT ISZERO PUSH2 0x1C8A JUMPI PUSH1 0x0 DUP1 REVERT JUMPDEST DUP1 SLOAD PUSH7 0xFFFFFFFFFFFFFF PUSH1 0x70 SHL NOT AND PUSH1 0x1 PUSH1 0x70 SHL PUSH7 0xFFFFFFFFFFFFFF DUP7 AND MUL OR DUP2 SSTORE PUSH2 0x1CCB JUMP JUMPDEST DUP1 SLOAD PUSH1 0x1 PUSH1 0x50 SHL SWAP1 DIV PUSH4 0xFFFFFFFF AND DUP6 EQ PUSH2 0x1CCB JUMPI PUSH1 0x0 DUP1 REVERT JUMPDEST PUSH2 0x1CD4 DUP6 PUSH2 0x2C69 JUMP JUMPDEST DUP2 SLOAD PUSH4 0xFFFFFFFF SWAP2 SWAP1 SWAP2 AND PUSH1 0x1 PUSH1 0x50 SHL MUL PUSH4 0xFFFFFFFF PUSH1 0x50 SHL NOT SWAP1 SWAP2 AND OR DUP2 SSTORE PUSH2 0x1D05 PUSH2 0x1D00 DUP8 PUSH2 0xAF4 JUMP JUMPDEST PUSH2 0x2C7C JUMP JUMPDEST DUP2 SLOAD PUSH10 0xFFFFFFFFFFFFFFFFFFFF NOT AND PUSH1 0x1 PUSH1 0x1 PUSH1 0x50 SHL SUB SWAP2 SWAP1 SWAP2 AND OR DUP1 DUP3 SSTORE PUSH2 0x1D4B SWAP1 PUSH2 0x1D46 SWAP1 DUP6 SWAP1 DUP13 SWAP1 DUP13 SWAP1 PUSH1 0x1 PUSH1 0xA8 SHL SWAP1 DIV PUSH1 0xA SWAP1 DUP2 SIGNEXTEND SWAP1 SIGNEXTEND DUP13 PUSH2 0x2C92 JUMP JUMPDEST PUSH2 0x2CB5 JUMP JUMPDEST DUP2 SLOAD PUSH1 0xA SWAP2 SWAP1 SWAP2 SIGNEXTEND PUSH1 0x1 PUSH1 0x1 PUSH1 0x58 SHL SUB AND PUSH1 0x1 PUSH1 0xA8 SHL MUL PUSH1 0x1 PUSH1 0x1 PUSH1 0xA8 SHL SUB SWAP1 SWAP2 AND OR SWAP1 SSTORE POP POP POP POP POP POP POP POP JUMP JUMPDEST PUSH1 0x0 PUSH3 0xF4240 DUP3 PUSH1 0x26 DUP2 GT ISZERO PUSH2 0x1D8C JUMPI INVALID JUMPDEST ADD SWAP3 SWAP2 POP POP JUMP JUMPDEST PUSH1 0x0 DUP1 PUSH2 0x9B6 PUSH1 0x2 PUSH2 0x1D7A JUMP JUMPDEST PUSH2 0x1DA8 PUSH2 0x42DE JUMP JUMPDEST PUSH2 0x9B6 DUP3 PUSH1 0x1 PUSH2 0x2097 JUMP JUMPDEST DUP1 ISZERO PUSH2 0x1E45 JUMPI PUSH20 0x82AF49447D8A07E3BD95BD0D56F35241523FBAB1 PUSH1 0x1 PUSH1 0x1 PUSH1 0xA0 SHL SUB AND PUSH4 0xD0E30DB0 DUP4 PUSH1 0x40 MLOAD DUP3 PUSH4 0xFFFFFFFF AND PUSH1 0xE0 SHL DUP2 MSTORE PUSH1 0x4 ADD PUSH1 0x0 PUSH1 0x40 MLOAD DUP1 DUP4 SUB DUP2 DUP6 DUP9 DUP1 EXTCODESIZE ISZERO DUP1 ISZERO PUSH2 0x1E08 JUMPI PUSH1 0x0 DUP1 REVERT JUMPDEST POP GAS CALL ISZERO DUP1 ISZERO PUSH2 0x1E1C JUMPI RETURNDATASIZE PUSH1 0x0 DUP1 RETURNDATACOPY RETURNDATASIZE PUSH1 0x0 REVERT JUMPDEST POP POP POP POP POP PUSH2 0x1E40 PUSH20 0x82AF49447D8A07E3BD95BD0D56F35241523FBAB1 DUP5 DUP5 PUSH2 0x2951 JUMP JUMPDEST PUSH2 0x7B5 JUMP JUMPDEST PUSH1 0x40 MLOAD PUSH1 0x1 PUSH1 0x1 PUSH1 0xA0 SHL SUB DUP5 AND SWAP1 DUP4 ISZERO PUSH2 0x8FC MUL SWAP1 DUP5 SWAP1 PUSH1 0x0 DUP2 DUP2 DUP2 DUP6 DUP9 DUP9 CALL SWAP4 POP POP POP POP ISZERO DUP1 ISZERO PUSH2 0x9A2 JUMPI RETURNDATASIZE PUSH1 0x0 DUP1 RETURNDATACOPY RETURNDATASIZE PUSH1 0x0 REVERT JUMPDEST PUSH1 0x0 DUP1 DUP5 PUSH1 0x1 PUSH1 0x1 PUSH1 0xA0 SHL SUB AND PUSH4 0x70A08231 ADDRESS PUSH1 0x40 MLOAD DUP3 PUSH4 0xFFFFFFFF AND PUSH1 0xE0 SHL DUP2 MSTORE PUSH1 0x4 ADD DUP1 DUP3 PUSH1 0x1 PUSH1 0x1 PUSH1 0xA0 SHL SUB AND DUP2 MSTORE PUSH1 0x20 ADD SWAP2 POP POP PUSH1 0x20 PUSH1 0x40 MLOAD DUP1 DUP4 SUB DUP2 DUP7 DUP1 EXTCODESIZE ISZERO DUP1 ISZERO PUSH2 0x1ECB JUMPI PUSH1 0x0 DUP1 REVERT JUMPDEST POP GAS STATICCALL ISZERO DUP1 ISZERO PUSH2 0x1EDF JUMPI RETURNDATASIZE PUSH1 0x0 DUP1 RETURNDATACOPY RETURNDATASIZE PUSH1 0x0 REVERT JUMPDEST POP POP POP POP PUSH1 0x40 MLOAD RETURNDATASIZE PUSH1 0x20 DUP2 LT ISZERO PUSH2 0x1EF5 JUMPI PUSH1 0x0 DUP1 REVERT JUMPDEST POP MLOAD PUSH1 0x40 DUP1 MLOAD PUSH4 0x23B872DD PUSH1 0xE0 SHL DUP2 MSTORE PUSH1 0x1 PUSH1 0x1 PUSH1 0xA0 SHL SUB DUP8 DUP2 AND PUSH1 0x4 DUP4 ADD MSTORE ADDRESS PUSH1 0x24 DUP4 ADD MSTORE PUSH1 0x44 DUP3 ADD DUP8 SWAP1 MSTORE SWAP2 MLOAD SWAP3 SWAP4 POP SWAP1 DUP8 AND SWAP2 PUSH4 0x23B872DD SWAP2 PUSH1 0x64 DUP1 DUP3 ADD SWAP3 PUSH1 0x0 SWAP3 SWAP1 SWAP2 SWAP1 DUP3 SWAP1 SUB ADD DUP2 DUP4 DUP8 DUP1 EXTCODESIZE ISZERO DUP1 ISZERO PUSH2 0x1F52 JUMPI PUSH1 0x0 DUP1 REVERT JUMPDEST POP GAS CALL ISZERO DUP1 ISZERO PUSH2 0x1F66 JUMPI RETURNDATASIZE PUSH1 0x0 DUP1 RETURNDATACOPY RETURNDATASIZE PUSH1 0x0 REVERT JUMPDEST POP POP POP POP PUSH2 0x1F72 PUSH2 0x2CE7 JUMP JUMPDEST PUSH1 0x0 DUP6 PUSH1 0x1 PUSH1 0x1 PUSH1 0xA0 SHL SUB AND PUSH4 0x70A08231 ADDRESS PUSH1 0x40 MLOAD DUP3 PUSH4 0xFFFFFFFF AND PUSH1 0xE0 SHL DUP2 MSTORE PUSH1 0x4 ADD DUP1 DUP3 PUSH1 0x1 PUSH1 0x1 PUSH1 0xA0 SHL SUB AND DUP2 MSTORE PUSH1 0x20 ADD SWAP2 POP POP PUSH1 0x20 PUSH1 0x40 MLOAD DUP1 DUP4 SUB DUP2 DUP7 DUP1 EXTCODESIZE ISZERO DUP1 ISZERO PUSH2 0x1FC1 JUMPI PUSH1 0x0 DUP1 REVERT JUMPDEST POP GAS STATICCALL ISZERO DUP1 ISZERO PUSH2 0x1FD5 JUMPI RETURNDATASIZE PUSH1 0x0 DUP1 RETURNDATACOPY RETURNDATASIZE PUSH1 0x0 REVERT JUMPDEST POP POP POP POP PUSH1 0x40 MLOAD RETURNDATASIZE PUSH1 0x20 DUP2 LT ISZERO PUSH2 0x1FEB JUMPI PUSH1 0x0 DUP1 REVERT JUMPDEST POP MLOAD SWAP1 POP PUSH2 0x1FF9 DUP2 DUP4 PUSH2 0x2D54 JUMP JUMPDEST SWAP7 SWAP6 POP POP POP POP POP POP JUMP JUMPDEST PUSH1 0x0 DUP1 PUSH2 0x2010 DUP5 DUP7 PUSH2 0x2D69 JUMP JUMPDEST SWAP1 POP PUSH2 0x201C DUP4 DUP3 PUSH2 0x2D99 JUMP JUMPDEST SWAP2 POP PUSH2 0x2029 DUP8 DUP8 DUP5 PUSH2 0x2DBB JUMP JUMPDEST PUSH2 0x2034 DUP7 DUP4 DUP4 PUSH2 0x2E3B JUMP JUMPDEST DUP4 MLOAD PUSH2 0x2040 SWAP1 DUP7 PUSH2 0x2F3F JUMP JUMPDEST POP SWAP6 SWAP5 POP POP POP POP POP JUMP JUMPDEST PUSH1 0x0 DUP1 PUSH2 0x9B6 PUSH1 0x1D PUSH2 0x1D7A JUMP JUMPDEST PUSH1 0x8 DUP2 SWAP1 SHR PUSH1 0xFF SWAP1 SWAP2 AND SHL SWAP1 JUMP JUMPDEST PUSH1 0x0 PUSH2 0x108E PUSH15 0xC097CE7BC90715B34B9F1000000000 PUSH2 0x2091 DUP6 PUSH1 0x0 ADD MLOAD DUP6 PUSH2 0x11A3 SWAP1 SWAP2 SWAP1 PUSH4 0xFFFFFFFF AND JUMP JUMPDEST SWAP1 PUSH2 0x2F94 JUMP JUMPDEST PUSH2 0x209F PUSH2 0x42DE JUMP JUMPDEST PUSH1 0x0 PUSH2 0x20A9 PUSH2 0x2FC5 JUMP JUMPDEST PUSH1 0x0 DUP6 DUP2 MSTORE PUSH1 0x20 DUP3 DUP2 MSTORE PUSH1 0x40 DUP1 DUP4 KECCAK256 DUP8 ISZERO ISZERO DUP5 MSTORE DUP3 MSTORE SWAP2 DUP3 SWAP1 KECCAK256 DUP3 MLOAD PUSH1 0xA0 DUP2 ADD DUP5 MSTORE DUP2 SLOAD PUSH1 0x1 PUSH1 0x1 PUSH1 0xA0 SHL SUB DUP2 AND DUP3 MSTORE PUSH1 0xFF PUSH1 0x1 PUSH1 0xA0 SHL DUP3 DIV DUP2 AND ISZERO ISZERO SWAP5 DUP4 ADD SWAP5 SWAP1 SWAP5 MSTORE PUSH1 0x1 PUSH1 0xB0 SHL DUP2 DIV DUP5 AND PUSH1 0xA EXP SWAP5 DUP3 ADD SWAP5 SWAP1 SWAP5 MSTORE SWAP4 SWAP5 POP SWAP3 SWAP2 PUSH1 0x60 DUP4 ADD SWAP2 PUSH1 0x1 PUSH1 0xA8 SHL SWAP1 SWAP2 DIV AND PUSH1 0x5 DUP2 GT ISZERO PUSH2 0x211E JUMPI INVALID JUMPDEST DUP2 MSTORE PUSH1 0x0 PUSH1 0x20 SWAP1 SWAP2 ADD MSTORE SWAP6 SWAP5 POP POP POP POP POP JUMP JUMPDEST DUP2 MLOAD PUSH1 0x40 MLOAD PUSH4 0xDB006A75 PUSH1 0xE0 SHL DUP2 MSTORE PUSH1 0x0 SWAP2 SELFBALANCE SWAP2 DUP4 SWAP2 PUSH1 0x1 PUSH1 0x1 PUSH1 0xA0 SHL SUB AND SWAP1 PUSH4 0xDB006A75 SWAP1 PUSH2 0x2165 SWAP1 DUP8 SWAP1 PUSH1 0x4 ADD PUSH2 0x4E22 JUMP JUMPDEST PUSH1 0x20 PUSH1 0x40 MLOAD DUP1 DUP4 SUB DUP2 PUSH1 0x0 DUP8 DUP1 EXTCODESIZE ISZERO DUP1 ISZERO PUSH2 0x217F JUMPI PUSH1 0x0 DUP1 REVERT JUMPDEST POP GAS CALL ISZERO DUP1 ISZERO PUSH2 0x2193 JUMPI RETURNDATASIZE PUSH1 0x0 DUP1 RETURNDATACOPY RETURNDATASIZE PUSH1 0x0 REVERT JUMPDEST POP POP POP POP PUSH1 0x40 MLOAD RETURNDATASIZE PUSH1 0x1F NOT PUSH1 0x1F DUP3 ADD AND DUP3 ADD DUP1 PUSH1 0x40 MSTORE POP DUP2 ADD SWAP1 PUSH2 0x21B7 SWAP2 SWAP1 PUSH2 0x4994 JUMP JUMPDEST SWAP1 POP DUP1 ISZERO PUSH2 0x21D7 JUMPI PUSH1 0x40 MLOAD PUSH3 0x461BCD PUSH1 0xE5 SHL DUP2 MSTORE PUSH1 0x4 ADD PUSH2 0x258 SWAP1 PUSH2 0x4C73 JUMP JUMPDEST SELFBALANCE PUSH2 0x1FF9 DUP2 DUP5 PUSH2 0x2D54 JUMP JUMPDEST PUSH1 0x0 DUP1 DUP4 PUSH1 0x0 ADD MLOAD PUSH1 0x1 PUSH1 0x1 PUSH1 0xA0 SHL SUB AND PUSH4 0x70A08231 ADDRESS PUSH1 0x40 MLOAD DUP3 PUSH4 0xFFFFFFFF AND PUSH1 0xE0 SHL DUP2 MSTORE PUSH1 0x4 ADD PUSH2 0x2215 SWAP2 SWAP1 PUSH2 0x4A2A JUMP JUMPDEST PUSH1 0x20 PUSH1 0x40 MLOAD DUP1 DUP4 SUB DUP2 DUP7 DUP1 EXTCODESIZE ISZERO DUP1 ISZERO PUSH2 0x222D JUMPI PUSH1 0x0 DUP1 REVERT JUMPDEST POP GAS STATICCALL ISZERO DUP1 ISZERO PUSH2 0x2241 JUMPI RETURNDATASIZE PUSH1 0x0 DUP1 RETURNDATACOPY RETURNDATASIZE PUSH1 0x0 REVERT JUMPDEST POP POP POP POP PUSH1 0x40 MLOAD RETURNDATASIZE PUSH1 0x1F NOT PUSH1 0x1F DUP3 ADD AND DUP3 ADD DUP1 PUSH1 0x40 MSTORE POP DUP2 ADD SWAP1 PUSH2 0x2265 SWAP2 SWAP1 PUSH2 0x4994 JUMP JUMPDEST SWAP1 POP PUSH1 0x0 DUP6 PUSH1 0x0 ADD MLOAD PUSH1 0x1 PUSH1 0x1 PUSH1 0xA0 SHL SUB AND PUSH4 0xDB006A75 DUP6 PUSH1 0x40 MLOAD DUP3 PUSH4 0xFFFFFFFF AND PUSH1 0xE0 SHL DUP2 MSTORE PUSH1 0x4 ADD PUSH2 0x2299 SWAP2 SWAP1 PUSH2 0x4E22 JUMP JUMPDEST PUSH1 0x20 PUSH1 0x40 MLOAD DUP1 DUP4 SUB DUP2 PUSH1 0x0 DUP8 DUP1 EXTCODESIZE ISZERO DUP1 ISZERO PUSH2 0x22B3 JUMPI PUSH1 0x0 DUP1 REVERT JUMPDEST POP GAS CALL ISZERO DUP1 ISZERO PUSH2 0x22C7 JUMPI RETURNDATASIZE PUSH1 0x0 DUP1 RETURNDATACOPY RETURNDATASIZE PUSH1 0x0 REVERT JUMPDEST POP POP POP POP PUSH1 0x40 MLOAD RETURNDATASIZE PUSH1 0x1F NOT PUSH1 0x1F DUP3 ADD AND DUP3 ADD DUP1 PUSH1 0x40 MSTORE POP DUP2 ADD SWAP1 PUSH2 0x22EB SWAP2 SWAP1 PUSH2 0x4994 JUMP JUMPDEST SWAP1 POP DUP1 ISZERO PUSH2 0x230B JUMPI PUSH1 0x40 MLOAD PUSH3 0x461BCD PUSH1 0xE5 SHL DUP2 MSTORE PUSH1 0x4 ADD PUSH2 0x258 SWAP1 PUSH2 0x4C73 JUMP JUMPDEST DUP5 MLOAD PUSH1 0x40 MLOAD PUSH4 0x70A08231 PUSH1 0xE0 SHL DUP2 MSTORE PUSH1 0x0 SWAP2 PUSH1 0x1 PUSH1 0x1 PUSH1 0xA0 SHL SUB AND SWAP1 PUSH4 0x70A08231 SWAP1 PUSH2 0x233B SWAP1 ADDRESS SWAP1 PUSH1 0x4 ADD PUSH2 0x4A2A JUMP JUMPDEST PUSH1 0x20 PUSH1 0x40 MLOAD DUP1 DUP4 SUB DUP2 DUP7 DUP1 EXTCODESIZE ISZERO DUP1 ISZERO PUSH2 0x2353 JUMPI PUSH1 0x0 DUP1 REVERT JUMPDEST POP GAS STATICCALL ISZERO DUP1 ISZERO PUSH2 0x2367 JUMPI RETURNDATASIZE PUSH1 0x0 DUP1 RETURNDATACOPY RETURNDATASIZE PUSH1 0x0 REVERT JUMPDEST POP POP POP POP PUSH1 0x40 MLOAD RETURNDATASIZE PUSH1 0x1F NOT PUSH1 0x1F DUP3 ADD AND DUP3 ADD DUP1 PUSH1 0x40 MSTORE POP DUP2 ADD SWAP1 PUSH2 0x238B SWAP2 SWAP1 PUSH2 0x4994 JUMP JUMPDEST SWAP1 POP PUSH2 0x2397 DUP2 DUP5 PUSH2 0x2D54 JUMP JUMPDEST SWAP8 SWAP7 POP POP POP POP POP POP POP JUMP JUMPDEST PUSH2 0x23AA PUSH2 0x430D JUMP JUMPDEST PUSH1 0x0 PUSH2 0x23B4 PUSH2 0x204A JUMP JUMPDEST PUSH2 0xFFFF SWAP4 DUP5 AND PUSH1 0x0 SWAP1 DUP2 MSTORE PUSH1 0x20 SWAP2 DUP3 MSTORE PUSH1 0x40 SWAP1 DUP2 SWAP1 KECCAK256 DUP1 SLOAD PUSH5 0xFFFFFFFFFF DUP2 AND DUP7 MSTORE PUSH1 0x1 PUSH1 0x28 SHL DUP2 DIV PUSH1 0x1 PUSH1 0x1 PUSH1 0x58 SHL SUB SWAP1 DUP2 AND SWAP5 DUP8 ADD SWAP5 SWAP1 SWAP5 MSTORE PUSH1 0x1 DUP3 ADD SLOAD DUP5 AND SWAP3 DUP7 ADD SWAP3 SWAP1 SWAP3 MSTORE PUSH1 0x1 PUSH1 0xD8 SHL DUP3 DIV PUSH4 0xFFFFFFFF AND PUSH1 0x60 DUP7 ADD MSTORE PUSH1 0x1 PUSH1 0x80 SHL SWAP1 SWAP2 DIV SWAP1 SWAP2 AND PUSH1 0x80 DUP5 ADD MSTORE PUSH1 0x2 ADD SLOAD PUSH1 0x1 PUSH1 0x1 PUSH1 0x50 SHL SUB DUP1 DUP3 AND PUSH1 0xA0 DUP6 ADD MSTORE PUSH1 0x1 PUSH1 0x50 SHL DUP3 DIV DUP2 AND PUSH1 0xC0 DUP6 ADD MSTORE PUSH1 0x1 PUSH1 0xA0 SHL DUP3 DIV AND PUSH1 0xE0 DUP5 ADD MSTORE PUSH1 0x1 PUSH1 0xF0 SHL SWAP1 DIV PUSH1 0xFF AND PUSH2 0x12C MUL SWAP1 SWAP3 AND PUSH2 0x100 DUP3 ADD MSTORE SWAP2 SWAP1 POP JUMP JUMPDEST PUSH1 0x0 DUP1 PUSH2 0x2476 DUP4 PUSH2 0x2FD2 JUMP JUMPDEST PUSH1 0x1 PUSH1 0x1 PUSH1 0xA0 SHL SUB AND PUSH4 0xEF81F216 PUSH1 0x40 MLOAD DUP2 PUSH4 0xFFFFFFFF AND PUSH1 0xE0 SHL DUP2 MSTORE PUSH1 0x4 ADD PUSH1 0x40 DUP1 MLOAD DUP1 DUP4 SUB DUP2 PUSH1 0x0 DUP8 DUP1 EXTCODESIZE ISZERO DUP1 ISZERO PUSH2 0x24AF JUMPI PUSH1 0x0 DUP1 REVERT JUMPDEST POP GAS CALL ISZERO DUP1 ISZERO PUSH2 0x24C3 JUMPI RETURNDATASIZE PUSH1 0x0 DUP1 RETURNDATACOPY RETURNDATASIZE PUSH1 0x0 REVERT JUMPDEST POP POP POP POP PUSH1 0x40 MLOAD RETURNDATASIZE PUSH1 0x1F NOT PUSH1 0x1F DUP3 ADD AND DUP3 ADD DUP1 PUSH1 0x40 MSTORE POP DUP2 ADD SWAP1 PUSH2 0x9CF SWAP2 SWAP1 PUSH2 0x49AC JUMP JUMPDEST PUSH2 0x24EF PUSH2 0x430D JUMP JUMPDEST PUSH1 0x0 DUP1 PUSH1 0x0 PUSH2 0x24FF DUP9 DUP7 DUP10 PUSH2 0x3002 JUMP JUMPDEST PUSH1 0xC0 DUP12 ADD SWAP3 SWAP1 SWAP3 MSTORE PUSH1 0xE0 DUP11 ADD SWAP3 SWAP1 SWAP3 MSTORE PUSH1 0x20 DUP10 ADD MLOAD SWAP2 SWAP4 POP SWAP2 POP PUSH2 0x2523 SWAP1 DUP4 PUSH2 0x310D JUMP JUMPDEST PUSH1 0x20 DUP9 ADD MSTORE PUSH1 0x80 DUP8 ADD MLOAD PUSH1 0x0 SWAP1 ISZERO PUSH2 0x2551 JUMPI PUSH1 0x80 DUP9 ADD MLOAD PUSH2 0x254E SWAP1 PUSH2 0x2548 DUP10 DUP3 PUSH2 0x2D54 JUMP JUMPDEST SWAP1 PUSH2 0x311F JUMP JUMPDEST SWAP1 POP JUMPDEST PUSH2 0x2571 PUSH2 0x2566 PUSH8 0xDE0B6B3A7640000 DUP4 PUSH2 0x310D JUMP JUMPDEST PUSH1 0xA0 DUP11 ADD MLOAD SWAP1 PUSH2 0x313C JUMP JUMPDEST PUSH1 0xA0 DUP10 ADD MSTORE POP POP PUSH1 0x80 DUP7 ADD SWAP5 SWAP1 SWAP5 MSTORE POP POP DUP3 MSTORE SWAP1 SWAP3 SWAP1 SWAP2 POP JUMP JUMPDEST PUSH1 0x0 PUSH2 0x2595 PUSH2 0x204A JUMP JUMPDEST PUSH1 0x0 DUP6 PUSH2 0xFFFF AND DUP2 MSTORE PUSH1 0x20 ADD SWAP1 DUP2 MSTORE PUSH1 0x20 ADD PUSH1 0x0 KECCAK256 SWAP1 POP PUSH2 0x25B9 DUP3 PUSH1 0x0 ADD MLOAD PUSH2 0x3159 JUMP JUMPDEST DUP2 SLOAD PUSH5 0xFFFFFFFFFF NOT AND PUSH5 0xFFFFFFFFFF SWAP2 SWAP1 SWAP2 AND OR DUP2 SSTORE PUSH1 0xA0 DUP3 ADD MLOAD PUSH2 0x25DE SWAP1 PUSH2 0x2C7C JUMP JUMPDEST PUSH1 0x2 DUP3 ADD DUP1 SLOAD PUSH10 0xFFFFFFFFFFFFFFFFFFFF NOT AND PUSH1 0x1 PUSH1 0x1 PUSH1 0x50 SHL SUB SWAP3 SWAP1 SWAP3 AND SWAP2 SWAP1 SWAP2 OR SWAP1 SSTORE PUSH1 0xC0 DUP3 ADD MLOAD PUSH2 0x2611 SWAP1 PUSH2 0x2C7C JUMP JUMPDEST DUP2 PUSH1 0x2 ADD PUSH1 0xA PUSH2 0x100 EXP DUP2 SLOAD DUP2 PUSH1 0x1 PUSH1 0x1 PUSH1 0x50 SHL SUB MUL NOT AND SWAP1 DUP4 PUSH1 0x1 PUSH1 0x1 PUSH1 0x50 SHL SUB AND MUL OR SWAP1 SSTORE POP PUSH2 0x2646 DUP3 PUSH1 0xE0 ADD MLOAD PUSH2 0x2C7C JUMP JUMPDEST DUP2 PUSH1 0x2 ADD PUSH1 0x14 PUSH2 0x100 EXP DUP2 SLOAD DUP2 PUSH1 0x1 PUSH1 0x1 PUSH1 0x50 SHL SUB MUL NOT AND SWAP1 DUP4 PUSH1 0x1 PUSH1 0x1 PUSH1 0x50 SHL SUB AND MUL OR SWAP1 SSTORE POP PUSH2 0x267B DUP3 PUSH1 0x20 ADD MLOAD PUSH2 0x316D JUMP JUMPDEST DUP2 SLOAD PUSH1 0x1 PUSH1 0x1 PUSH1 0x58 SHL SUB SWAP2 SWAP1 SWAP2 AND PUSH1 0x1 PUSH1 0x28 SHL MUL PUSH16 0xFFFFFFFFFFFFFFFFFFFFFF0000000000 NOT SWAP1 SWAP2 AND OR DUP2 SSTORE PUSH1 0x40 DUP3 ADD MLOAD PUSH2 0x26B5 SWAP1 PUSH2 0x316D JUMP JUMPDEST PUSH1 0x1 DUP3 ADD DUP1 SLOAD PUSH11 0xFFFFFFFFFFFFFFFFFFFFFF NOT AND PUSH1 0x1 PUSH1 0x1 PUSH1 0x58 SHL SUB SWAP3 SWAP1 SWAP3 AND SWAP2 SWAP1 SWAP2 OR SWAP1 SSTORE PUSH1 0x80 DUP3 ADD MLOAD PUSH2 0x26E9 SWAP1 PUSH2 0x316D JUMP JUMPDEST DUP2 SLOAD PUSH1 0x1 PUSH1 0x1 PUSH1 0x58 SHL SUB SWAP2 SWAP1 SWAP2 AND PUSH1 0x1 PUSH1 0x80 SHL MUL PUSH11 0xFFFFFFFFFFFFFFFFFFFFFF PUSH1 0x80 SHL NOT SWAP1 SWAP2 AND OR DUP2 SSTORE PUSH1 0x60 DUP3 ADD MLOAD PUSH2 0x2721 SWAP1 PUSH2 0x2C69 JUMP JUMPDEST DUP2 SLOAD PUSH4 0xFFFFFFFF SWAP2 SWAP1 SWAP2 AND PUSH1 0x1 PUSH1 0xD8 SHL MUL PUSH4 0xFFFFFFFF PUSH1 0xD8 SHL NOT SWAP1 SWAP2 AND OR DUP2 SSTORE DUP3 ISZERO PUSH2 0x276D JUMPI PUSH1 0x0 PUSH2 0x2752 DUP5 PUSH2 0xC30 JUMP JUMPDEST SWAP1 POP PUSH2 0x275E DUP6 DUP3 PUSH2 0x3183 JUMP JUMPDEST PUSH2 0x276B PUSH2 0xFEE DUP7 DUP4 PUSH2 0x2DBB JUMP JUMPDEST POP JUMPDEST DUP4 PUSH2 0xFFFF AND PUSH32 0xEF25641E225E493886510CA1AD6584FA7B442B9FEA820A29D1DE3CE27D270FD2 DUP4 PUSH1 0xA0 ADD MLOAD DUP5 PUSH1 0xC0 ADD MLOAD DUP6 PUSH1 0xE0 ADD MLOAD PUSH1 0x40 MLOAD PUSH2 0x27B1 SWAP4 SWAP3 SWAP2 SWAP1 PUSH2 0x4E39 JUMP JUMPDEST PUSH1 0x40 MLOAD DUP1 SWAP2 SUB SWAP1 LOG2 POP POP POP POP JUMP JUMPDEST PUSH1 0x0 DUP3 PUSH2 0x27CE JUMPI POP PUSH1 0x0 PUSH2 0x9B6 JUMP JUMPDEST DUP3 DUP3 MUL DUP3 DUP5 DUP3 DUP2 PUSH2 0x27DB JUMPI INVALID JUMPDEST DIV EQ PUSH2 0x108E JUMPI PUSH1 0x0 DUP1 REVERT JUMPDEST PUSH1 0x0 DUP1 PUSH2 0x9B6 PUSH1 0x6 PUSH2 0x1D7A JUMP JUMPDEST PUSH1 0x0 DUP1 DUP3 SLT PUSH2 0x2803 JUMPI POP DUP1 PUSH2 0x9B6 JUMP JUMPDEST DUP3 MLOAD PUSH1 0x20 DUP5 ADD MLOAD PUSH2 0x281A SWAP2 SWAP1 PUSH2 0x2091 SWAP1 DUP6 SWAP1 PUSH2 0x11A3 JUMP JUMPDEST SWAP1 POP PUSH2 0x9B6 JUMP JUMPDEST PUSH1 0x0 PUSH4 0x5F5E100 DUP4 PUSH1 0x40 ADD MLOAD EQ ISZERO PUSH2 0x283A JUMPI POP DUP1 PUSH2 0x9B6 JUMP JUMPDEST PUSH2 0x108E PUSH4 0x5F5E100 PUSH2 0x2091 DUP6 PUSH1 0x40 ADD MLOAD DUP6 PUSH2 0x11A3 SWAP1 SWAP2 SWAP1 PUSH4 0xFFFFFFFF AND JUMP JUMPDEST PUSH1 0x0 PUSH2 0x2863 PUSH2 0x31BA JUMP JUMPDEST DUP4 MLOAD PUSH1 0x1 PUSH1 0x1 PUSH1 0xA0 SHL SUB AND PUSH1 0x0 SWAP1 DUP2 MSTORE PUSH1 0x20 DUP3 SWAP1 MSTORE PUSH1 0x40 SWAP1 KECCAK256 SLOAD SWAP1 SWAP2 POP DUP1 DUP4 GT PUSH2 0x288E JUMPI POP POP PUSH2 0x7B5 JUMP JUMPDEST PUSH1 0x0 PUSH2 0x2899 DUP7 PUSH2 0x2FD2 JUMP JUMPDEST SWAP1 POP PUSH1 0x0 DUP2 PUSH1 0x1 PUSH1 0x1 PUSH1 0xA0 SHL SUB AND PUSH4 0xB5E4DA23 DUP5 DUP8 SUB PUSH1 0x40 MLOAD DUP3 PUSH4 0xFFFFFFFF AND PUSH1 0xE0 SHL DUP2 MSTORE PUSH1 0x4 ADD PUSH2 0x28CB SWAP2 SWAP1 PUSH2 0x4E22 JUMP JUMPDEST PUSH1 0x0 PUSH1 0x40 MLOAD DUP1 DUP4 SUB DUP2 DUP7 DUP1 EXTCODESIZE ISZERO DUP1 ISZERO PUSH2 0x28E3 JUMPI PUSH1 0x0 DUP1 REVERT JUMPDEST POP GAS STATICCALL ISZERO DUP1 ISZERO PUSH2 0x28F7 JUMPI RETURNDATASIZE PUSH1 0x0 DUP1 RETURNDATACOPY RETURNDATASIZE PUSH1 0x0 REVERT JUMPDEST POP POP POP POP PUSH1 0x40 MLOAD RETURNDATASIZE PUSH1 0x0 DUP3 RETURNDATACOPY PUSH1 0x1F RETURNDATASIZE SWAP1 DUP2 ADD PUSH1 0x1F NOT AND DUP3 ADD PUSH1 0x40 MSTORE PUSH2 0x291F SWAP2 SWAP1 DUP2 ADD SWAP1 PUSH2 0x464C JUMP JUMPDEST SWAP1 POP PUSH1 0x0 PUSH2 0x292D DUP8 DUP4 PUSH2 0x31C7 JUMP JUMPDEST SWAP2 POP PUSH2 0x293B SWAP1 POP DUP5 DUP3 PUSH2 0x310D JUMP JUMPDEST DUP7 GT ISZERO PUSH2 0x2947 JUMPI PUSH1 0x0 DUP1 REVERT JUMPDEST POP POP POP POP POP POP POP POP JUMP JUMPDEST DUP3 PUSH1 0x1 PUSH1 0x1 PUSH1 0xA0 SHL SUB AND PUSH4 0xA9059CBB DUP4 DUP4 PUSH1 0x40 MLOAD DUP4 PUSH4 0xFFFFFFFF AND PUSH1 0xE0 SHL DUP2 MSTORE PUSH1 0x4 ADD DUP1 DUP4 PUSH1 0x1 PUSH1 0x1 PUSH1 0xA0 SHL SUB AND DUP2 MSTORE PUSH1 0x20 ADD DUP3 DUP2 MSTORE PUSH1 0x20 ADD SWAP3 POP POP POP PUSH1 0x0 PUSH1 0x40 MLOAD DUP1 DUP4 SUB DUP2 PUSH1 0x0 DUP8 DUP1 EXTCODESIZE ISZERO DUP1 ISZERO PUSH2 0x29A8 JUMPI PUSH1 0x0 DUP1 REVERT JUMPDEST POP GAS CALL ISZERO DUP1 ISZERO PUSH2 0x29BC JUMPI RETURNDATASIZE PUSH1 0x0 DUP1 RETURNDATACOPY RETURNDATASIZE PUSH1 0x0 REVERT JUMPDEST POP POP POP POP PUSH2 0x7B5 PUSH2 0x2CE7 JUMP JUMPDEST PUSH1 0x0 DUP1 PUSH1 0x0 PUSH2 0x29D7 DUP7 DUP6 PUSH2 0x33DE JUMP JUMPDEST POP SWAP2 POP SWAP2 POP PUSH1 0x0 PUSH2 0x29E6 PUSH2 0x3474 JUMP JUMPDEST PUSH1 0x1 PUSH1 0x1 PUSH1 0xA0 SHL SUB DUP9 AND PUSH1 0x0 SWAP1 DUP2 MSTORE PUSH1 0x20 DUP3 SWAP1 MSTORE PUSH1 0x40 DUP2 KECCAK256 SWAP2 SWAP3 POP PUSH2 0x2A0B DUP6 DUP10 PUSH2 0x14DF JUMP JUMPDEST SWAP1 POP DUP1 PUSH1 0x0 SGT ISZERO DUP1 ISZERO PUSH2 0x2A24 JUMPI POP PUSH1 0x1 PUSH1 0x1 PUSH1 0x60 SHL SUB DUP2 LT JUMPDEST PUSH2 0x2A2D JUMPI PUSH1 0x0 DUP1 REVERT JUMPDEST DUP2 SLOAD PUSH12 0xFFFFFFFFFFFFFFFFFFFFFFFF NOT AND PUSH1 0x1 PUSH1 0x1 PUSH1 0x60 SHL SUB DUP3 AND OR PUSH16 0xFFFFFFFFFFFFFFFFFFFFFFFFFFFFFFFF PUSH1 0x60 SHL NOT AND PUSH1 0x1 PUSH1 0x60 SHL PUSH1 0x1 PUSH1 0x1 PUSH1 0x80 SHL SUB DUP7 AND MUL OR DUP3 SSTORE PUSH4 0xFFFFFFFF DUP8 LT PUSH2 0x2A82 JUMPI PUSH1 0x0 DUP1 REVERT JUMPDEST POP DUP1 SLOAD PUSH4 0xFFFFFFFF DUP8 AND PUSH1 0x1 PUSH1 0xE0 SHL MUL PUSH1 0x1 PUSH1 0x1 PUSH1 0xE0 SHL SUB SWAP1 SWAP2 AND OR SWAP1 SSTORE POP SWAP2 POP POP SWAP4 SWAP3 POP POP POP JUMP JUMPDEST PUSH1 0xE0 DUP5 ADD MLOAD PUSH1 0x0 SWAP1 ISZERO PUSH2 0x2B6C JUMPI PUSH20 0x0 PUSH4 0xE0C01A72 DUP6 PUSH2 0x2AE0 DUP9 PUSH1 0x40 ADD MLOAD PUSH2 0xAF4 JUMP JUMPDEST DUP9 PUSH1 0xE0 ADD MLOAD DUP10 PUSH2 0x100 ADD MLOAD PUSH1 0x40 MLOAD DUP6 PUSH4 0xFFFFFFFF AND PUSH1 0xE0 SHL DUP2 MSTORE PUSH1 0x4 ADD PUSH2 0x2B0A SWAP5 SWAP4 SWAP3 SWAP2 SWAP1 PUSH2 0x4BE4 JUMP JUMPDEST PUSH1 0x20 PUSH1 0x40 MLOAD DUP1 DUP4 SUB DUP2 DUP7 DUP1 EXTCODESIZE ISZERO DUP1 ISZERO PUSH2 0x2B22 JUMPI PUSH1 0x0 DUP1 REVERT JUMPDEST POP GAS DELEGATECALL ISZERO DUP1 ISZERO PUSH2 0x2B36 JUMPI RETURNDATASIZE PUSH1 0x0 DUP1 RETURNDATACOPY RETURNDATASIZE PUSH1 0x0 REVERT JUMPDEST POP POP POP POP PUSH1 0x40 MLOAD RETURNDATASIZE PUSH1 0x1F NOT PUSH1 0x1F DUP3 ADD AND DUP3 ADD DUP1 PUSH1 0x40 MSTORE POP DUP2 ADD SWAP1 PUSH2 0x2B5A SWAP2 SWAP1 PUSH2 0x4994 JUMP JUMPDEST PUSH1 0x0 PUSH1 0xE0 DUP8 ADD DUP2 SWAP1 MSTORE PUSH2 0x100 DUP8 ADD MSTORE SWAP1 POP JUMPDEST PUSH2 0x2BAE PUSH2 0x2BA7 DUP7 PUSH2 0x100 ADD MLOAD PUSH2 0x2BA1 PUSH8 0xDE0B6B3A7640000 PUSH2 0x2B9B DUP9 PUSH2 0x2B95 DUP13 PUSH1 0x40 ADD MLOAD PUSH2 0xAF4 JUMP JUMPDEST SWAP1 PUSH2 0x27BF JUMP JUMPDEST SWAP1 PUSH2 0x3481 JUMP JUMPDEST SWAP1 PUSH2 0x2D54 JUMP JUMPDEST DUP3 SWAP1 PUSH2 0x310D JUMP JUMPDEST SWAP1 POP PUSH2 0x2BC6 PUSH8 0xDE0B6B3A7640000 PUSH2 0x2B9B DUP5 DUP7 PUSH2 0x27BF JUMP JUMPDEST DUP6 PUSH2 0x100 ADD DUP2 DUP2 MSTORE POP POP SWAP5 SWAP4 POP POP POP POP JUMP JUMPDEST PUSH1 0x0 DUP1 PUSH2 0x2BE3 PUSH2 0x1D93 JUMP JUMPDEST PUSH1 0x1 PUSH1 0x1 PUSH1 0xA0 SHL SUB DUP5 AND PUSH1 0x0 SWAP1 DUP2 MSTORE PUSH1 0x20 DUP3 SWAP1 MSTORE PUSH1 0x40 SWAP1 KECCAK256 DUP1 SLOAD SWAP2 SWAP3 POP SWAP1 PUSH1 0x1 PUSH1 0xF8 SHL SWAP1 DIV PUSH1 0xFF AND ISZERO PUSH2 0x2C3F JUMPI PUSH2 0x2C18 PUSH2 0x34A0 JUMP JUMPDEST PUSH1 0x1 PUSH1 0x1 PUSH1 0xA0 SHL SUB DUP1 DUP7 AND PUSH1 0x0 SWAP1 DUP2 MSTORE PUSH1 0x20 SWAP3 SWAP1 SWAP3 MSTORE PUSH1 0x40 SWAP1 SWAP2 KECCAK256 SLOAD AND SWAP3 POP PUSH2 0x8BD SWAP2 POP POP JUMP JUMPDEST PUSH1 0x0 SWAP3 POP POP POP PUSH2 0x8BD JUMP JUMPDEST PUSH2 0x498 PUSH20 0x19BE259BC299F3F653688C7655C87F998BC7BC1 DUP4 DUP4 PUSH2 0x2951 JUMP JUMPDEST PUSH1 0x0 PUSH4 0xFFFFFFFF DUP3 GT ISZERO PUSH2 0xB03 JUMPI PUSH1 0x0 DUP1 REVERT JUMPDEST PUSH1 0x0 PUSH1 0x1 PUSH1 0x1 PUSH1 0x50 SHL SUB DUP3 GT ISZERO PUSH2 0xB03 JUMPI PUSH1 0x0 DUP1 REVERT JUMPDEST PUSH1 0x0 PUSH2 0x2C9E DUP7 DUP4 PUSH2 0x34AD JUMP JUMPDEST SWAP1 POP PUSH2 0x1B49 DUP7 DUP7 DUP7 PUSH2 0x2CB0 DUP8 DUP7 PUSH2 0x34EC JUMP JUMPDEST PUSH2 0x3573 JUMP JUMPDEST PUSH1 0x0 PUSH11 0x7FFFFFFFFFFFFFFFFFFFFF NOT DUP3 SLT DUP1 ISZERO SWAP1 PUSH2 0x2CDE JUMPI POP PUSH11 0x7FFFFFFFFFFFFFFFFFFFFF DUP3 SGT ISZERO JUMPDEST PUSH2 0xB03 JUMPI PUSH1 0x0 DUP1 REVERT JUMPDEST PUSH1 0x0 PUSH2 0x2CF1 PUSH2 0x4359 JUMP JUMPDEST RETURNDATASIZE DUP1 ISZERO PUSH2 0x2D05 JUMPI PUSH1 0x20 DUP2 EQ PUSH2 0x2D0E JUMPI PUSH1 0x0 DUP1 REVERT JUMPDEST PUSH1 0x1 SWAP3 POP PUSH2 0x2D19 JUMP JUMPDEST PUSH1 0x20 PUSH1 0x0 DUP4 RETURNDATACOPY DUP2 MLOAD SWAP3 POP JUMPDEST POP DUP2 PUSH2 0x498 JUMPI PUSH1 0x40 DUP1 MLOAD PUSH3 0x461BCD PUSH1 0xE5 SHL DUP2 MSTORE PUSH1 0x20 PUSH1 0x4 DUP3 ADD MSTORE PUSH1 0x5 PUSH1 0x24 DUP3 ADD MSTORE PUSH5 0x455243323 PUSH1 0xDC SHL PUSH1 0x44 DUP3 ADD MSTORE SWAP1 MLOAD SWAP1 DUP2 SWAP1 SUB PUSH1 0x64 ADD SWAP1 REVERT JUMPDEST PUSH1 0x0 DUP3 DUP3 GT ISZERO PUSH2 0x2D63 JUMPI PUSH1 0x0 DUP1 REVERT JUMPDEST POP SWAP1 SUB SWAP1 JUMP JUMPDEST PUSH1 0x0 PUSH4 0x5F5E100 DUP4 PUSH1 0x40 ADD MLOAD EQ ISZERO PUSH2 0x2D82 JUMPI POP DUP1 PUSH2 0x9B6 JUMP JUMPDEST PUSH1 0x40 DUP4 ADD MLOAD PUSH2 0x108E SWAP1 PUSH2 0x2091 DUP5 PUSH4 0x5F5E100 PUSH2 0x11A3 JUMP JUMPDEST DUP2 MLOAD PUSH1 0x0 SWAP1 PUSH2 0x108E SWAP1 PUSH2 0x2091 DUP5 PUSH15 0xC097CE7BC90715B34B9F1000000000 PUSH2 0x11A3 JUMP JUMPDEST PUSH1 0x0 PUSH2 0x2DC5 PUSH2 0x156E JUMP JUMPDEST PUSH2 0xFFFF DUP5 AND PUSH1 0x0 SWAP1 DUP2 MSTORE PUSH1 0x20 SWAP2 SWAP1 SWAP2 MSTORE PUSH1 0x40 SWAP1 DUP2 SWAP1 KECCAK256 SLOAD SWAP1 MLOAD PUSH4 0xAD1C095D PUSH1 0xE0 SHL DUP2 MSTORE PUSH1 0x1 PUSH1 0x1 PUSH1 0xA0 SHL SUB SWAP1 SWAP2 AND SWAP2 POP DUP2 SWAP1 PUSH4 0xAD1C095D SWAP1 PUSH2 0x2E0D SWAP1 DUP8 SWAP1 DUP7 SWAP1 PUSH1 0x4 ADD PUSH2 0x4B41 JUMP JUMPDEST PUSH1 0x0 PUSH1 0x40 MLOAD DUP1 DUP4 SUB DUP2 PUSH1 0x0 DUP8 DUP1 EXTCODESIZE ISZERO DUP1 ISZERO PUSH2 0x2E27 JUMPI PUSH1 0x0 DUP1 REVERT JUMPDEST POP GAS CALL ISZERO DUP1 ISZERO PUSH2 0x2947 JUMPI RETURNDATASIZE PUSH1 0x0 DUP1 RETURNDATACOPY RETURNDATASIZE PUSH1 0x0 REVERT JUMPDEST PUSH1 0x0 PUSH2 0x2E45 PUSH2 0x204A JUMP JUMPDEST PUSH2 0xFFFF DUP6 AND PUSH1 0x0 SWAP1 DUP2 MSTORE PUSH1 0x20 SWAP2 SWAP1 SWAP2 MSTORE PUSH1 0x40 SWAP1 KECCAK256 DUP1 SLOAD SWAP1 SWAP2 POP PUSH5 0xFFFFFFFFFF AND TIMESTAMP EQ PUSH2 0x2E70 JUMPI PUSH1 0x0 DUP1 REVERT JUMPDEST DUP1 SLOAD PUSH1 0x0 SWAP1 PUSH2 0x2E8F SWAP1 PUSH1 0x1 PUSH1 0x28 SHL SWAP1 DIV PUSH1 0x1 PUSH1 0x1 PUSH1 0x58 SHL SUB AND DUP6 PUSH2 0x14DF JUMP JUMPDEST DUP3 SLOAD SWAP1 SWAP2 POP PUSH1 0x0 SWAP1 PUSH2 0x2EB1 SWAP1 PUSH1 0x1 PUSH1 0x80 SHL SWAP1 DIV PUSH1 0x1 PUSH1 0x1 PUSH1 0x58 SHL SUB AND DUP6 PUSH2 0x14DF JUMP JUMPDEST SWAP1 POP DUP1 PUSH3 0x4C4B40 SGT ISZERO PUSH2 0x2EC3 JUMPI PUSH1 0x0 DUP1 REVERT JUMPDEST PUSH2 0x2ED4 PUSH2 0x2ECF DUP3 PUSH2 0xAF4 JUMP JUMPDEST PUSH2 0x316D JUMP JUMPDEST DUP4 SLOAD PUSH1 0x1 PUSH1 0x1 PUSH1 0x58 SHL SUB SWAP2 SWAP1 SWAP2 AND PUSH1 0x1 PUSH1 0x80 SHL MUL PUSH11 0xFFFFFFFFFFFFFFFFFFFFFF PUSH1 0x80 SHL NOT SWAP1 SWAP2 AND OR DUP4 SSTORE PUSH2 0x2F0A PUSH2 0x2ECF DUP4 PUSH2 0xAF4 JUMP JUMPDEST DUP4 SLOAD PUSH1 0x1 PUSH1 0x1 PUSH1 0x58 SHL SUB SWAP2 SWAP1 SWAP2 AND PUSH1 0x1 PUSH1 0x28 SHL MUL PUSH16 0xFFFFFFFFFFFFFFFFFFFFFF0000000000 NOT SWAP1 SWAP2 AND OR DUP4 SSTORE PUSH2 0xEB9 DUP4 PUSH2 0x35A7 JUMP JUMPDEST PUSH1 0x0 PUSH2 0x2F49 PUSH2 0x31BA JUMP JUMPDEST PUSH1 0x1 PUSH1 0x1 PUSH1 0xA0 SHL SUB DUP5 AND PUSH1 0x0 SWAP1 DUP2 MSTORE PUSH1 0x20 DUP3 SWAP1 MSTORE PUSH1 0x40 SWAP1 KECCAK256 SLOAD SWAP1 SWAP2 POP PUSH2 0x2F72 PUSH2 0x385 DUP3 DUP6 PUSH2 0x14DF JUMP JUMPDEST PUSH1 0x1 PUSH1 0x1 PUSH1 0xA0 SHL SUB SWAP1 SWAP5 AND PUSH1 0x0 SWAP1 DUP2 MSTORE PUSH1 0x20 SWAP3 SWAP1 SWAP3 MSTORE POP PUSH1 0x40 SWAP1 KECCAK256 SWAP2 SWAP1 SWAP2 SSTORE POP JUMP JUMPDEST PUSH1 0x0 DUP2 PUSH1 0x0 NOT EQ DUP1 ISZERO PUSH2 0x2FAA JUMPI POP PUSH1 0x1 PUSH1 0xFF SHL DUP4 EQ JUMPDEST ISZERO PUSH2 0x2FB4 JUMPI PUSH1 0x0 DUP1 REVERT JUMPDEST DUP2 DUP4 DUP2 PUSH2 0x2FBD JUMPI INVALID JUMPDEST SDIV SWAP4 SWAP3 POP POP POP JUMP JUMPDEST PUSH1 0x0 DUP1 PUSH2 0x9B6 PUSH1 0x7 PUSH2 0x1D7A JUMP JUMPDEST PUSH1 0x0 DUP1 PUSH2 0x2FDD PUSH2 0x3672 JUMP JUMPDEST PUSH2 0xFFFF SWAP4 SWAP1 SWAP4 AND PUSH1 0x0 SWAP1 DUP2 MSTORE PUSH1 0x20 SWAP4 SWAP1 SWAP4 MSTORE POP POP PUSH1 0x40 SWAP1 KECCAK256 SLOAD PUSH1 0x1 PUSH1 0x1 PUSH1 0xA0 SHL SUB AND SWAP1 JUMP JUMPDEST PUSH1 0x0 DUP1 PUSH1 0x0 DUP1 PUSH1 0x0 DUP1 PUSH2 0x3015 DUP10 DUP9 PUSH2 0x367F JUMP JUMPDEST DUP10 MLOAD SWAP1 SWAP6 POP SWAP2 SWAP4 POP SWAP2 POP PUSH1 0x0 SWAP1 PUSH2 0x303C SWAP1 PUSH2 0x3031 SWAP1 DUP12 SWAP1 PUSH2 0x2D54 JUMP JUMPDEST PUSH4 0x3B9ACA00 SWAP1 PUSH2 0x27BF JUMP JUMPDEST SWAP1 POP PUSH2 0x3076 PUSH2 0x306B PUSH4 0x1DA9C00 PUSH2 0x3053 DUP6 DUP6 PUSH2 0x27BF JUMP JUMPDEST DUP2 PUSH2 0x305A JUMPI INVALID JUMPDEST PUSH8 0xDE0B6B3A7640000 SWAP2 SWAP1 DIV PUSH2 0x310D JUMP JUMPDEST PUSH1 0xE0 DUP11 ADD MLOAD SWAP1 PUSH2 0x313C JUMP JUMPDEST SWAP7 POP PUSH2 0x3098 PUSH2 0x308D PUSH4 0x1DA9C00 PUSH2 0x3053 DUP8 DUP6 PUSH2 0x27BF JUMP JUMPDEST PUSH1 0xC0 DUP11 ADD MLOAD SWAP1 PUSH2 0x313C JUMP JUMPDEST SWAP6 POP DUP2 DUP4 EQ ISZERO PUSH2 0x30AF JUMPI POP PUSH1 0x0 SWAP4 POP PUSH2 0x3104 SWAP2 POP POP JUMP JUMPDEST PUSH1 0x0 PUSH2 0x30D1 PUSH2 0x30C6 PUSH4 0x1DA9C00 PUSH2 0x3053 DUP8 DUP7 PUSH2 0x27BF JUMP JUMPDEST PUSH1 0xE0 DUP12 ADD MLOAD SWAP1 PUSH2 0x313C JUMP JUMPDEST SWAP1 POP PUSH1 0x0 PUSH2 0x30DF DUP10 DUP4 PUSH2 0x2D54 JUMP JUMPDEST SWAP1 POP PUSH2 0x30FC DUP9 PUSH2 0x2B9B DUP4 DUP14 PUSH1 0x40 ADD MLOAD PUSH2 0x27BF SWAP1 SWAP2 SWAP1 PUSH4 0xFFFFFFFF AND JUMP JUMPDEST SWAP7 POP POP POP POP POP POP JUMPDEST SWAP4 POP SWAP4 POP SWAP4 POP SWAP4 JUMP JUMPDEST PUSH1 0x0 DUP3 DUP3 ADD DUP4 DUP2 LT ISZERO PUSH2 0x108E JUMPI PUSH1 0x0 DUP1 REVERT JUMPDEST PUSH1 0x0 PUSH2 0x108E PUSH2 0x3136 DUP5 PUSH8 0xDE0B6B3A7640000 PUSH2 0x27BF JUMP JUMPDEST DUP4 PUSH2 0x3481 JUMP JUMPDEST PUSH1 0x0 PUSH2 0x108E PUSH2 0x314B DUP5 DUP5 PUSH2 0x27BF JUMP JUMPDEST PUSH8 0xDE0B6B3A7640000 PUSH2 0x3481 JUMP JUMPDEST PUSH1 0x0 PUSH5 0xFFFFFFFFFF DUP3 GT ISZERO PUSH2 0xB03 JUMPI PUSH1 0x0 DUP1 REVERT JUMPDEST PUSH1 0x0 PUSH1 0x1 PUSH1 0x1 PUSH1 0x58 SHL SUB DUP3 GT ISZERO PUSH2 0xB03 JUMPI PUSH1 0x0 DUP1 REVERT JUMPDEST PUSH1 0x0 DUP2 SLT ISZERO PUSH2 0x3191 JUMPI PUSH1 0x0 DUP1 REVERT JUMPDEST PUSH1 0x0 PUSH2 0x319F PUSH2 0xFEE DUP5 PUSH2 0x3719 JUMP JUMPDEST SWAP1 POP PUSH2 0x31AB DUP2 DUP4 PUSH2 0x14DF JUMP JUMPDEST SWAP1 POP PUSH2 0x7B5 PUSH2 0xFEE DUP5 DUP4 PUSH2 0x3772 JUMP JUMPDEST PUSH1 0x0 DUP1 PUSH2 0x9B6 PUSH1 0x26 PUSH2 0x1D7A JUMP JUMPDEST PUSH1 0x0 DUP1 PUSH1 0x0 JUMPDEST DUP4 MLOAD DUP2 LT ISZERO PUSH2 0x33D6 JUMPI PUSH1 0x0 DUP5 DUP3 DUP2 MLOAD DUP2 LT PUSH2 0x31E4 JUMPI INVALID JUMPDEST PUSH1 0x20 MUL PUSH1 0x20 ADD ADD MLOAD SWAP1 POP PUSH1 0x0 DUP2 PUSH1 0x60 ADD MLOAD PUSH1 0x1 PUSH1 0x1 PUSH1 0xA0 SHL SUB AND PUSH4 0x70A08231 ADDRESS PUSH1 0x40 MLOAD DUP3 PUSH4 0xFFFFFFFF AND PUSH1 0xE0 SHL DUP2 MSTORE PUSH1 0x4 ADD PUSH2 0x3220 SWAP2 SWAP1 PUSH2 0x4A2A JUMP JUMPDEST PUSH1 0x20 PUSH1 0x40 MLOAD DUP1 DUP4 SUB DUP2 DUP7 DUP1 EXTCODESIZE ISZERO DUP1 ISZERO PUSH2 0x3238 JUMPI PUSH1 0x0 DUP1 REVERT JUMPDEST POP GAS STATICCALL ISZERO DUP1 ISZERO PUSH2 0x324C JUMPI RETURNDATASIZE PUSH1 0x0 DUP1 RETURNDATACOPY RETURNDATASIZE PUSH1 0x0 REVERT JUMPDEST POP POP POP POP PUSH1 0x40 MLOAD RETURNDATASIZE PUSH1 0x1F NOT PUSH1 0x1F DUP3 ADD AND DUP3 ADD DUP1 PUSH1 0x40 MSTORE POP DUP2 ADD SWAP1 PUSH2 0x3270 SWAP2 SWAP1 PUSH2 0x4994 JUMP JUMPDEST SWAP1 POP PUSH1 0x0 PUSH2 0x327E DUP9 ADDRESS PUSH2 0x37E6 JUMP JUMPDEST SWAP1 POP PUSH1 0x0 JUMPDEST DUP4 MLOAD MLOAD DUP2 LT ISZERO PUSH2 0x32DA JUMPI PUSH2 0x32C9 DUP5 PUSH1 0x0 ADD MLOAD DUP3 DUP2 MLOAD DUP2 LT PUSH2 0x32A0 JUMPI INVALID JUMPDEST PUSH1 0x20 MUL PUSH1 0x20 ADD ADD MLOAD PUSH1 0x0 DUP7 PUSH1 0x20 ADD MLOAD DUP5 DUP2 MLOAD DUP2 LT PUSH2 0x32BA JUMPI INVALID JUMPDEST PUSH1 0x20 MUL PUSH1 0x20 ADD ADD MLOAD PUSH1 0x1 PUSH2 0x3890 JUMP JUMPDEST PUSH2 0x32D2 JUMPI PUSH1 0x1 SWAP7 POP JUMPDEST PUSH1 0x1 ADD PUSH2 0x3283 JUMP JUMPDEST POP PUSH1 0x0 PUSH2 0x32E7 DUP10 ADDRESS PUSH2 0x37E6 JUMP JUMPDEST SWAP1 POP PUSH1 0x0 PUSH2 0x32F5 DUP3 DUP5 PUSH2 0x2D54 JUMP JUMPDEST SWAP1 POP DUP1 DUP6 PUSH1 0x40 ADD MLOAD GT ISZERO PUSH2 0x3308 JUMPI PUSH1 0x0 DUP1 REVERT JUMPDEST PUSH1 0x60 DUP6 ADD MLOAD PUSH1 0x40 MLOAD PUSH4 0x70A08231 PUSH1 0xE0 SHL DUP2 MSTORE PUSH1 0x0 SWAP2 PUSH1 0x1 PUSH1 0x1 PUSH1 0xA0 SHL SUB AND SWAP1 PUSH4 0x70A08231 SWAP1 PUSH2 0x333B SWAP1 ADDRESS SWAP1 PUSH1 0x4 ADD PUSH2 0x4A2A JUMP JUMPDEST PUSH1 0x20 PUSH1 0x40 MLOAD DUP1 DUP4 SUB DUP2 DUP7 DUP1 EXTCODESIZE ISZERO DUP1 ISZERO PUSH2 0x3353 JUMPI PUSH1 0x0 DUP1 REVERT JUMPDEST POP GAS STATICCALL ISZERO DUP1 ISZERO PUSH2 0x3367 JUMPI RETURNDATASIZE PUSH1 0x0 DUP1 RETURNDATACOPY RETURNDATASIZE PUSH1 0x0 REVERT JUMPDEST POP POP POP POP PUSH1 0x40 MLOAD RETURNDATASIZE PUSH1 0x1F NOT PUSH1 0x1F DUP3 ADD AND DUP3 ADD DUP1 PUSH1 0x40 MSTORE POP DUP2 ADD SWAP1 PUSH2 0x338B SWAP2 SWAP1 PUSH2 0x4994 JUMP JUMPDEST SWAP1 POP DUP5 DUP2 GT ISZERO PUSH2 0x339A JUMPI PUSH1 0x0 DUP1 REVERT JUMPDEST PUSH2 0x33A9 DUP7 PUSH1 0x60 ADD MLOAD DUP7 DUP4 PUSH2 0x3AFE JUMP JUMPDEST PUSH2 0x33B3 DUP9 DUP4 PUSH2 0x310D JUMP JUMPDEST SWAP8 POP PUSH2 0x33C4 DUP12 PUSH1 0x0 ADD MLOAD DUP6 DUP6 PUSH2 0x3AFE JUMP JUMPDEST POP POP PUSH1 0x1 SWAP1 SWAP5 ADD SWAP4 POP PUSH2 0x31CD SWAP3 POP POP POP JUMP JUMPDEST POP SWAP3 POP SWAP3 SWAP1 POP JUMP JUMPDEST PUSH1 0x0 DUP1 PUSH1 0x0 PUSH2 0x33EC DUP6 PUSH2 0x3B7B JUMP JUMPDEST SWAP2 SWAP5 POP SWAP3 POP SWAP1 POP DUP1 DUP5 GT DUP1 ISZERO PUSH2 0x3402 JUMPI POP PUSH1 0x0 DUP2 GT JUMPDEST DUP1 ISZERO PUSH2 0x340E JUMPI POP PUSH1 0x0 DUP4 GT JUMPDEST ISZERO PUSH2 0x346D JUMPI PUSH1 0x0 PUSH2 0x341E DUP7 PUSH2 0x13B4 JUMP JUMPDEST POP POP POP SWAP2 POP POP PUSH1 0x0 PUSH2 0x3449 PUSH2 0x3440 PUSH4 0x5F5E100 DUP5 PUSH2 0x27BF SWAP1 SWAP2 SWAP1 PUSH4 0xFFFFFFFF AND JUMP JUMPDEST DUP5 DUP9 SUB DUP8 PUSH2 0x3BD7 JUMP JUMPDEST SWAP1 POP PUSH2 0x3455 DUP5 DUP3 PUSH2 0x310D JUMP JUMPDEST SWAP4 POP PUSH1 0x1 PUSH1 0x1 PUSH1 0x80 SHL SUB DUP5 LT PUSH2 0x346A JUMPI PUSH1 0x0 DUP1 REVERT JUMPDEST POP POP JUMPDEST SWAP3 POP SWAP3 POP SWAP3 JUMP JUMPDEST PUSH1 0x0 DUP1 PUSH2 0x9B6 PUSH1 0x11 PUSH2 0x1D7A JUMP JUMPDEST PUSH1 0x0 DUP1 DUP3 GT PUSH2 0x348F JUMPI PUSH1 0x0 DUP1 REVERT JUMPDEST DUP2 DUP4 DUP2 PUSH2 0x3498 JUMPI INVALID JUMPDEST DIV SWAP4 SWAP3 POP POP POP JUMP JUMPDEST PUSH1 0x0 DUP1 PUSH2 0x9B6 PUSH1 0x12 PUSH2 0x1D7A JUMP JUMPDEST PUSH1 0x0 DUP1 DUP3 SLT ISZERO PUSH2 0x34E6 JUMPI PUSH2 0x34E1 PUSH1 0x1 PUSH2 0x34DB DUP6 PUSH1 0x20 ADD MLOAD PUSH2 0x2091 DUP8 PUSH1 0x0 ADD MLOAD DUP8 PUSH2 0x11A3 SWAP1 SWAP2 SWAP1 PUSH4 0xFFFFFFFF AND JUMP JUMPDEST SWAP1 PUSH2 0x3BF9 JUMP JUMPDEST PUSH2 0x108E JUMP JUMPDEST POP SWAP2 SWAP1 POP JUMP JUMPDEST PUSH1 0x0 DUP2 DUP4 EQ DUP1 PUSH2 0x3509 JUMPI POP PUSH1 0x0 DUP4 SLT ISZERO DUP1 ISZERO PUSH2 0x3509 JUMPI POP PUSH1 0x0 DUP3 SLT ISZERO JUMPDEST ISZERO PUSH2 0x3516 JUMPI POP PUSH1 0x0 PUSH2 0x9B6 JUMP JUMPDEST PUSH1 0x0 DUP4 SGT ISZERO DUP1 ISZERO PUSH2 0x3527 JUMPI POP DUP2 PUSH1 0x0 SLT JUMPDEST ISZERO PUSH2 0x3533 JUMPI POP DUP2 PUSH2 0x9B6 JUMP JUMPDEST PUSH1 0x0 DUP3 SGT ISZERO DUP1 ISZERO PUSH2 0x3544 JUMPI POP DUP3 PUSH1 0x0 SLT JUMPDEST ISZERO PUSH2 0x3552 JUMPI PUSH2 0x281A DUP3 PUSH2 0x9A8 JUMP JUMPDEST PUSH1 0x0 DUP4 SGT ISZERO DUP1 ISZERO PUSH2 0x3564 JUMPI POP PUSH1 0x0 DUP3 SGT ISZERO JUMPDEST ISZERO PUSH2 0x9C JUMPI PUSH2 0x281A DUP4 DUP4 PUSH2 0x3BF9 JUMP JUMPDEST DUP1 ISZERO PUSH2 0x9A2 JUMPI DUP4 MLOAD PUSH1 0x20 DUP6 ADD MLOAD PUSH1 0x0 SWAP2 PUSH2 0x3592 SWAP2 PUSH2 0x2091 SWAP1 DUP6 SWAP1 PUSH2 0x11A3 JUMP JUMPDEST SWAP1 POP PUSH2 0x35A0 DUP5 DUP5 DUP5 DUP5 PUSH2 0x3C0F JUMP JUMPDEST POP POP POP POP POP JUMP JUMPDEST DUP1 SLOAD PUSH1 0x2 DUP3 ADD SLOAD PUSH1 0x0 SWAP2 PUSH2 0x35E9 SWAP2 PUSH1 0x1 PUSH1 0x28 SHL SWAP1 SWAP2 DIV PUSH1 0x1 PUSH1 0x1 PUSH1 0x58 SHL SUB AND SWAP1 PUSH2 0x35E3 SWAP1 PUSH1 0x1 PUSH1 0x1 PUSH1 0x50 SHL SUB PUSH1 0x1 PUSH1 0x50 SHL DUP3 DIV DUP2 AND SWAP2 AND PUSH2 0x11A3 JUMP JUMPDEST SWAP1 PUSH2 0x11A3 JUMP JUMPDEST PUSH1 0x1 DUP4 ADD SLOAD PUSH1 0x2 DUP5 ADD SLOAD SWAP2 SWAP3 POP PUSH1 0x0 SWAP2 PUSH2 0x3623 SWAP2 PUSH1 0x1 PUSH1 0x1 PUSH1 0x58 SHL SUB AND SWAP1 PUSH2 0x35E3 SWAP1 PUSH1 0x1 PUSH1 0x1 PUSH1 0x50 SHL SUB PUSH1 0x1 PUSH1 0xA0 SHL DUP3 DIV DUP2 AND SWAP2 AND PUSH2 0x11A3 JUMP JUMPDEST DUP4 SLOAD SWAP1 SWAP2 POP PUSH1 0x0 SWAP1 PUSH2 0x365A SWAP1 PUSH1 0x1 PUSH1 0x1 PUSH1 0x1 PUSH1 0x58 SHL SUB PUSH1 0x1 PUSH1 0x80 SHL SWAP1 SWAP3 DIV DUP3 AND ADD AND PUSH15 0xC097CE7BC90715B34B9F1000000000 PUSH2 0x11A3 JUMP JUMPDEST SWAP1 POP DUP1 PUSH2 0x3667 DUP5 DUP5 PUSH2 0x3BF9 JUMP JUMPDEST SGT ISZERO PUSH2 0x9A2 JUMPI PUSH1 0x0 DUP1 REVERT JUMPDEST PUSH1 0x0 DUP1 PUSH2 0x9B6 PUSH1 0x1F PUSH2 0x1D7A JUMP JUMPDEST PUSH1 0x0 DUP1 PUSH1 0x0 DUP1 PUSH1 0x0 DUP6 PUSH1 0x20 ADD MLOAD GT ISZERO PUSH2 0x36CC JUMPI PUSH2 0x36C9 PUSH2 0x36B0 DUP7 PUSH1 0xC0 ADD MLOAD DUP8 PUSH1 0x20 ADD MLOAD PUSH2 0x27BF SWAP1 SWAP2 SWAP1 PUSH4 0xFFFFFFFF AND JUMP JUMPDEST PUSH1 0xE0 DUP8 ADD MLOAD PUSH1 0x40 DUP9 ADD MLOAD PUSH2 0x36C3 SWAP2 PUSH2 0x27BF JUMP JUMPDEST SWAP1 PUSH2 0x3D55 JUMP JUMPDEST SWAP1 POP JUMPDEST PUSH1 0x0 PUSH2 0x36D7 DUP8 PUSH2 0x3D68 JUMP JUMPDEST SWAP1 POP PUSH2 0x36E3 DUP2 DUP4 PUSH2 0x3D9B JUMP JUMPDEST SWAP5 POP DUP2 ISZERO PUSH2 0x36FA JUMPI PUSH2 0x36F7 DUP2 DUP7 PUSH1 0x1 PUSH2 0x3E54 JUMP JUMPDEST SWAP4 POP JUMPDEST PUSH1 0x20 DUP7 ADD MLOAD ISZERO PUSH2 0x346A JUMPI PUSH2 0x370E DUP6 DUP4 PUSH2 0x3EC5 JUMP JUMPDEST SWAP3 POP POP POP SWAP3 POP SWAP3 POP SWAP3 JUMP JUMPDEST PUSH1 0x0 DUP1 PUSH2 0x3724 PUSH2 0x27E6 JUMP JUMPDEST PUSH1 0x1 PUSH1 0x1 PUSH1 0xA0 SHL SUB DUP6 AND PUSH1 0x0 SWAP1 DUP2 MSTORE PUSH1 0x20 DUP3 DUP2 MSTORE PUSH1 0x40 DUP1 DUP4 KECCAK256 PUSH2 0xFFFF DUP9 AND DUP5 MSTORE SWAP1 SWAP2 MSTORE DUP2 KECCAK256 DUP1 SLOAD PUSH1 0x1 PUSH1 0xA8 SHL SWAP1 DIV PUSH1 0xA SWAP1 DUP2 SIGNEXTEND SWAP1 SIGNEXTEND SWAP5 POP SWAP2 SWAP3 POP DUP4 SLT ISZERO PUSH2 0x376A JUMPI PUSH1 0x0 DUP1 REVERT JUMPDEST POP POP SWAP3 SWAP2 POP POP JUMP JUMPDEST PUSH1 0x0 DUP2 SLT ISZERO PUSH2 0x3780 JUMPI PUSH1 0x0 DUP1 REVERT JUMPDEST PUSH1 0x0 PUSH2 0x378A PUSH2 0x27E6 JUMP JUMPDEST PUSH1 0x1 PUSH1 0x1 PUSH1 0xA0 SHL SUB DUP6 AND PUSH1 0x0 SWAP1 DUP2 MSTORE PUSH1 0x20 DUP3 DUP2 MSTORE PUSH1 0x40 DUP1 DUP4 KECCAK256 PUSH2 0xFFFF DUP9 AND DUP5 MSTORE SWAP1 SWAP2 MSTORE SWAP1 KECCAK256 SWAP1 SWAP2 POP PUSH2 0x37BB DUP4 PUSH2 0x2CB5 JUMP JUMPDEST DUP2 SLOAD PUSH1 0xA SWAP2 SWAP1 SWAP2 SIGNEXTEND PUSH1 0x1 PUSH1 0x1 PUSH1 0x58 SHL SUB AND PUSH1 0x1 PUSH1 0xA8 SHL MUL PUSH1 0x1 PUSH1 0x1 PUSH1 0xA8 SHL SUB SWAP1 SWAP2 AND OR SWAP1 SSTORE POP POP POP POP JUMP JUMPDEST PUSH1 0x0 PUSH1 0x3 DUP4 PUSH1 0x60 ADD MLOAD PUSH1 0x5 DUP2 GT ISZERO PUSH2 0x37FA JUMPI INVALID JUMPDEST EQ ISZERO PUSH2 0x3811 JUMPI POP PUSH1 0x1 PUSH1 0x1 PUSH1 0xA0 SHL SUB DUP2 AND BALANCE PUSH2 0x9B6 JUMP JUMPDEST DUP3 MLOAD PUSH1 0x40 MLOAD PUSH4 0x70A08231 PUSH1 0xE0 SHL DUP2 MSTORE PUSH1 0x1 PUSH1 0x1 PUSH1 0xA0 SHL SUB SWAP1 SWAP2 AND SWAP1 PUSH4 0x70A08231 SWAP1 PUSH2 0x3840 SWAP1 DUP6 SWAP1 PUSH1 0x4 ADD PUSH2 0x4A2A JUMP JUMPDEST PUSH1 0x20 PUSH1 0x40 MLOAD DUP1 DUP4 SUB DUP2 DUP7 DUP1 EXTCODESIZE ISZERO DUP1 ISZERO PUSH2 0x3858 JUMPI PUSH1 0x0 DUP1 REVERT JUMPDEST POP GAS STATICCALL ISZERO DUP1 ISZERO PUSH2 0x386C JUMPI RETURNDATASIZE PUSH1 0x0 DUP1 RETURNDATACOPY RETURNDATASIZE PUSH1 0x0 REVERT JUMPDEST POP POP POP POP PUSH1 0x40 MLOAD RETURNDATASIZE PUSH1 0x1F NOT PUSH1 0x1F DUP3 ADD AND DUP3 ADD DUP1 PUSH1 0x40 MSTORE POP DUP2 ADD SWAP1 PUSH2 0x281A SWAP2 SWAP1 PUSH2 0x4994 JUMP JUMPDEST PUSH1 0x0 DUP1 PUSH1 0x0 DUP7 PUSH1 0x1 PUSH1 0x1 PUSH1 0xA0 SHL SUB AND DUP7 DUP7 PUSH1 0x40 MLOAD DUP1 DUP3 DUP1 MLOAD SWAP1 PUSH1 0x20 ADD SWAP1 DUP1 DUP4 DUP4 JUMPDEST PUSH1 0x20 DUP4 LT PUSH2 0x38D0 JUMPI DUP1 MLOAD DUP3 MSTORE PUSH1 0x1F NOT SWAP1 SWAP3 ADD SWAP2 PUSH1 0x20 SWAP2 DUP3 ADD SWAP2 ADD PUSH2 0x38B1 JUMP JUMPDEST PUSH1 0x1 DUP4 PUSH1 0x20 SUB PUSH2 0x100 EXP SUB DUP1 NOT DUP3 MLOAD AND DUP2 DUP5 MLOAD AND DUP1 DUP3 OR DUP6 MSTORE POP POP POP POP POP POP SWAP1 POP ADD SWAP2 POP POP PUSH1 0x0 PUSH1 0x40 MLOAD DUP1 DUP4 SUB DUP2 DUP6 DUP8 GAS CALL SWAP3 POP POP POP RETURNDATASIZE DUP1 PUSH1 0x0 DUP2 EQ PUSH2 0x3932 JUMPI PUSH1 0x40 MLOAD SWAP2 POP PUSH1 0x1F NOT PUSH1 0x3F RETURNDATASIZE ADD AND DUP3 ADD PUSH1 0x40 MSTORE RETURNDATASIZE DUP3 MSTORE RETURNDATASIZE PUSH1 0x0 PUSH1 0x20 DUP5 ADD RETURNDATACOPY PUSH2 0x3937 JUMP JUMPDEST PUSH1 0x60 SWAP2 POP JUMPDEST POP SWAP2 POP SWAP2 POP DUP4 PUSH2 0x39DA JUMPI DUP2 PUSH2 0x394B DUP3 PUSH2 0x3EDE JUMP JUMPDEST SWAP1 PUSH2 0x39D4 JUMPI PUSH1 0x40 MLOAD PUSH3 0x461BCD PUSH1 0xE5 SHL DUP2 MSTORE PUSH1 0x4 ADD DUP1 DUP1 PUSH1 0x20 ADD DUP3 DUP2 SUB DUP3 MSTORE DUP4 DUP2 DUP2 MLOAD DUP2 MSTORE PUSH1 0x20 ADD SWAP2 POP DUP1 MLOAD SWAP1 PUSH1 0x20 ADD SWAP1 DUP1 DUP4 DUP4 PUSH1 0x0 JUMPDEST DUP4 DUP2 LT ISZERO PUSH2 0x3999 JUMPI DUP2 DUP2 ADD MLOAD DUP4 DUP3 ADD MSTORE PUSH1 0x20 ADD PUSH2 0x3981 JUMP JUMPDEST POP POP POP POP SWAP1 POP SWAP1 DUP2 ADD SWAP1 PUSH1 0x1F AND DUP1 ISZERO PUSH2 0x39C6 JUMPI DUP1 DUP3 SUB DUP1 MLOAD PUSH1 0x1 DUP4 PUSH1 0x20 SUB PUSH2 0x100 EXP SUB NOT AND DUP2 MSTORE PUSH1 0x20 ADD SWAP2 POP JUMPDEST POP SWAP3 POP POP POP PUSH1 0x40 MLOAD DUP1 SWAP2 SUB SWAP1 REVERT JUMPDEST POP PUSH2 0x2040 JUMP JUMPDEST DUP7 PUSH1 0x1 PUSH1 0x1 PUSH1 0xA0 SHL SUB AND PUSH32 0x3C7E398C5E91088CAE639370E35B25EA669D81FBDF0DEF5388E73661BC34E08E DUP8 DUP8 PUSH2 0x3A10 DUP6 PUSH2 0x3EDE JUMP JUMPDEST PUSH1 0x40 MLOAD DUP1 DUP5 DUP2 MSTORE PUSH1 0x20 ADD DUP1 PUSH1 0x20 ADD DUP1 PUSH1 0x20 ADD DUP4 DUP2 SUB DUP4 MSTORE DUP6 DUP2 DUP2 MLOAD DUP2 MSTORE PUSH1 0x20 ADD SWAP2 POP DUP1 MLOAD SWAP1 PUSH1 0x20 ADD SWAP1 DUP1 DUP4 DUP4 PUSH1 0x0 JUMPDEST DUP4 DUP2 LT ISZERO PUSH2 0x3A57 JUMPI DUP2 DUP2 ADD MLOAD DUP4 DUP3 ADD MSTORE PUSH1 0x20 ADD PUSH2 0x3A3F JUMP JUMPDEST POP POP POP POP SWAP1 POP SWAP1 DUP2 ADD SWAP1 PUSH1 0x1F AND DUP1 ISZERO PUSH2 0x3A84 JUMPI DUP1 DUP3 SUB DUP1 MLOAD PUSH1 0x1 DUP4 PUSH1 0x20 SUB PUSH2 0x100 EXP SUB NOT AND DUP2 MSTORE PUSH1 0x20 ADD SWAP2 POP JUMPDEST POP DUP4 DUP2 SUB DUP3 MSTORE DUP5 MLOAD DUP2 MSTORE DUP5 MLOAD PUSH1 0x20 SWAP2 DUP3 ADD SWAP2 DUP7 ADD SWAP1 DUP1 DUP4 DUP4 PUSH1 0x0 JUMPDEST DUP4 DUP2 LT ISZERO PUSH2 0x3AB7 JUMPI DUP2 DUP2 ADD MLOAD DUP4 DUP3 ADD MSTORE PUSH1 0x20 ADD PUSH2 0x3A9F JUMP JUMPDEST POP POP POP POP SWAP1 POP SWAP1 DUP2 ADD SWAP1 PUSH1 0x1F AND DUP1 ISZERO PUSH2 0x3AE4 JUMPI DUP1 DUP3 SUB DUP1 MLOAD PUSH1 0x1 DUP4 PUSH1 0x20 SUB PUSH2 0x100 EXP SUB NOT AND DUP2 MSTORE PUSH1 0x20 ADD SWAP2 POP JUMPDEST POP SWAP6 POP POP POP POP POP POP PUSH1 0x40 MLOAD DUP1 SWAP2 SUB SWAP1 LOG2 POP SWAP6 SWAP5 POP POP POP POP POP JUMP JUMPDEST PUSH1 0x0 PUSH2 0x3B08 PUSH2 0x31BA JUMP JUMPDEST PUSH1 0x1 PUSH1 0x1 PUSH1 0xA0 SHL SUB DUP6 AND PUSH1 0x0 SWAP1 DUP2 MSTORE PUSH1 0x20 DUP3 SWAP1 MSTORE PUSH1 0x40 SWAP1 KECCAK256 SLOAD SWAP1 SWAP2 POP DUP4 DUP2 GT ISZERO PUSH2 0x3B31 JUMPI PUSH1 0x0 DUP1 REVERT JUMPDEST PUSH1 0x0 PUSH2 0x3B48 PUSH2 0x3B3F DUP7 PUSH2 0xC30 JUMP JUMPDEST PUSH2 0x34DB DUP7 PUSH2 0xC30 JUMP JUMPDEST SWAP1 POP PUSH2 0x3B57 PUSH2 0x385 DUP4 DUP4 PUSH2 0x14DF JUMP JUMPDEST PUSH1 0x1 PUSH1 0x1 PUSH1 0xA0 SHL SUB SWAP1 SWAP7 AND PUSH1 0x0 SWAP1 DUP2 MSTORE PUSH1 0x20 SWAP4 SWAP1 SWAP4 MSTORE POP POP PUSH1 0x40 SWAP1 KECCAK256 SWAP3 SWAP1 SWAP3 SSTORE POP POP JUMP JUMPDEST PUSH1 0x0 DUP1 PUSH1 0x0 DUP1 PUSH2 0x3B89 PUSH2 0x3474 JUMP JUMPDEST PUSH1 0x1 PUSH1 0x1 PUSH1 0xA0 SHL SUB SWAP6 SWAP1 SWAP6 AND PUSH1 0x0 SWAP1 DUP2 MSTORE PUSH1 0x20 SWAP6 SWAP1 SWAP6 MSTORE POP POP PUSH1 0x40 SWAP1 SWAP3 KECCAK256 SLOAD PUSH1 0x1 PUSH1 0x1 PUSH1 0x60 SHL SUB DUP2 AND SWAP4 PUSH1 0x1 PUSH1 0x60 SHL DUP3 DIV PUSH1 0x1 PUSH1 0x1 PUSH1 0x80 SHL SUB AND SWAP4 POP PUSH1 0x1 PUSH1 0xE0 SHL SWAP1 SWAP2 DIV PUSH4 0xFFFFFFFF AND SWAP2 POP JUMP JUMPDEST PUSH1 0x0 PUSH2 0x9CF DUP3 PUSH2 0x2B9B PUSH4 0x1DA9C00 DUP2 DUP9 PUSH2 0x2B95 DUP10 PUSH8 0xDE0B6B3A7640000 PUSH2 0x27BF JUMP JUMPDEST DUP1 DUP3 SUB DUP3 DUP2 SGT ISZERO PUSH1 0x0 DUP4 SLT ISZERO EQ PUSH2 0x9B6 JUMPI PUSH1 0x0 DUP1 REVERT JUMPDEST PUSH1 0x0 PUSH2 0x3C19 PUSH2 0x204A JUMP JUMPDEST PUSH2 0xFFFF DUP6 AND PUSH1 0x0 SWAP1 DUP2 MSTORE PUSH1 0x20 SWAP2 SWAP1 SWAP2 MSTORE PUSH1 0x40 SWAP1 KECCAK256 DUP1 SLOAD SWAP1 SWAP2 POP PUSH5 0xFFFFFFFFFF AND TIMESTAMP EQ PUSH2 0x3C44 JUMPI PUSH1 0x0 DUP1 REVERT JUMPDEST DUP1 SLOAD PUSH1 0x1 PUSH1 0xF8 SHL SWAP1 DIV PUSH1 0xFF AND PUSH2 0x3C59 JUMPI PUSH1 0x0 DUP1 REVERT JUMPDEST PUSH1 0x1 DUP2 ADD SLOAD PUSH1 0x0 SWAP1 PUSH2 0x3C74 SWAP1 PUSH1 0x1 PUSH1 0x1 PUSH1 0x58 SHL SUB AND DUP6 PUSH2 0x14DF JUMP JUMPDEST DUP3 SLOAD SWAP1 SWAP2 POP PUSH1 0x0 SWAP1 PUSH2 0x3C96 SWAP1 PUSH1 0x1 PUSH1 0x28 SHL SWAP1 DIV PUSH1 0x1 PUSH1 0x1 PUSH1 0x58 SHL SUB AND DUP6 PUSH2 0x14DF JUMP JUMPDEST SWAP1 POP DUP2 PUSH1 0x9 NOT SLT DUP1 ISZERO PUSH2 0x3CA9 JUMPI POP PUSH1 0x0 DUP3 SLT JUMPDEST ISZERO PUSH2 0x3CB3 JUMPI PUSH1 0x0 SWAP2 POP JUMPDEST DUP1 PUSH1 0x9 NOT SLT DUP1 ISZERO PUSH2 0x3CC4 JUMPI POP PUSH1 0x0 DUP2 SLT JUMPDEST ISZERO PUSH2 0x3CCD JUMPI POP PUSH1 0x0 JUMPDEST PUSH2 0x3CD9 PUSH2 0x2ECF DUP4 PUSH2 0xAF4 JUMP JUMPDEST PUSH1 0x1 DUP5 ADD DUP1 SLOAD PUSH11 0xFFFFFFFFFFFFFFFFFFFFFF NOT AND PUSH1 0x1 PUSH1 0x1 PUSH1 0x58 SHL SUB SWAP3 SWAP1 SWAP3 AND SWAP2 SWAP1 SWAP2 OR SWAP1 SSTORE PUSH2 0x3D0B PUSH2 0x2ECF DUP3 PUSH2 0xAF4 JUMP JUMPDEST DUP4 SLOAD PUSH1 0x1 PUSH1 0x1 PUSH1 0x58 SHL SUB SWAP2 SWAP1 SWAP2 AND PUSH1 0x1 PUSH1 0x28 SHL MUL PUSH16 0xFFFFFFFFFFFFFFFFFFFFFF0000000000 NOT SWAP1 SWAP2 AND OR DUP4 SSTORE PUSH2 0x3D43 DUP8 DUP8 DUP7 DUP9 PUSH2 0x3FE5 JUMP JUMPDEST PUSH2 0x3D4C DUP4 PUSH2 0x35A7 JUMP JUMPDEST POP POP POP POP POP POP POP JUMP JUMPDEST PUSH1 0x0 PUSH2 0x108E PUSH2 0x3136 DUP5 PUSH4 0x3B9ACA00 PUSH2 0x27BF JUMP JUMPDEST PUSH2 0x3D70 PUSH2 0x4377 JUMP JUMPDEST PUSH1 0x0 PUSH2 0x3D7A PUSH2 0x40BF JUMP JUMPDEST PUSH2 0xFFFF DUP5 AND PUSH1 0x0 SWAP1 DUP2 MSTORE PUSH1 0x20 SWAP2 SWAP1 SWAP2 MSTORE PUSH1 0x40 DUP2 KECCAK256 SLOAD SWAP2 POP PUSH2 0x8B9 SWAP1 DUP3 PUSH2 0x40CC JUMP JUMPDEST PUSH1 0x0 DUP1 DUP4 PUSH1 0x80 ADD MLOAD GT PUSH2 0x3DAD JUMPI PUSH1 0x0 DUP1 REVERT JUMPDEST PUSH4 0x3B9ACA00 DUP3 GT ISZERO PUSH2 0x3DBE JUMPI PUSH1 0x0 DUP1 REVERT JUMPDEST DUP3 MLOAD DUP3 GT PUSH2 0x3DDD JUMPI DUP3 MLOAD PUSH1 0x40 DUP5 ADD MLOAD PUSH2 0x281A SWAP2 SWAP1 PUSH2 0x2B9B SWAP1 DUP6 SWAP1 PUSH2 0x27BF JUMP JUMPDEST DUP3 PUSH1 0x20 ADD MLOAD DUP3 GT PUSH2 0x3E1B JUMPI PUSH1 0x40 DUP4 ADD MLOAD DUP4 MLOAD PUSH1 0x20 DUP6 ADD MLOAD PUSH1 0x60 DUP7 ADD MLOAD PUSH2 0x281A SWAP4 SWAP3 PUSH2 0x3E15 SWAP3 DUP2 SWAP1 SUB SWAP2 PUSH2 0x2B9B SWAP2 DUP9 SUB SWAP1 DUP6 SWAP1 SUB PUSH2 0x27BF JUMP JUMPDEST SWAP1 PUSH2 0x310D JUMP JUMPDEST PUSH2 0x108E DUP4 PUSH1 0x60 ADD MLOAD PUSH2 0x3E15 DUP6 PUSH1 0x20 ADD MLOAD PUSH4 0x3B9ACA00 SUB PUSH2 0x2B9B DUP8 PUSH1 0x60 ADD MLOAD DUP9 PUSH1 0x80 ADD MLOAD SUB DUP9 PUSH1 0x20 ADD MLOAD DUP9 SUB PUSH2 0x27BF SWAP1 SWAP2 SWAP1 PUSH4 0xFFFFFFFF AND JUMP JUMPDEST PUSH1 0x0 DUP1 PUSH2 0x3E73 PUSH1 0x64 PUSH2 0x2B9B DUP8 PUSH1 0xE0 ADD MLOAD DUP8 PUSH2 0x27BF SWAP1 SWAP2 SWAP1 PUSH4 0xFFFFFFFF AND JUMP JUMPDEST SWAP1 POP DUP5 PUSH1 0xA0 ADD MLOAD DUP2 LT ISZERO PUSH2 0x3E88 JUMPI POP PUSH1 0xA0 DUP5 ADD MLOAD JUMPDEST DUP5 PUSH1 0xC0 ADD MLOAD DUP2 GT ISZERO PUSH2 0x3E9B JUMPI POP PUSH1 0xC0 DUP5 ADD MLOAD JUMPDEST DUP3 ISZERO PUSH2 0x3EAB JUMPI PUSH2 0x1089 DUP5 DUP3 PUSH2 0x310D JUMP JUMPDEST DUP4 DUP2 GT PUSH2 0x3EBA JUMPI DUP1 DUP5 SUB PUSH2 0x1089 JUMP JUMPDEST PUSH1 0x0 SWAP6 SWAP5 POP POP POP POP POP JUMP JUMPDEST PUSH1 0x0 PUSH2 0x108E PUSH2 0x3ED4 DUP5 DUP5 PUSH2 0x27BF JUMP JUMPDEST PUSH4 0x3B9ACA00 PUSH2 0x3481 JUMP JUMPDEST PUSH1 0x60 PUSH1 0x44 DUP3 MLOAD LT ISZERO PUSH2 0x3F14 JUMPI POP PUSH1 0x40 DUP1 MLOAD DUP1 DUP3 ADD SWAP1 SWAP2 MSTORE PUSH1 0xD DUP2 MSTORE PUSH13 0x14DA5B195B9D0814995D995C9D PUSH1 0x9A SHL PUSH1 0x20 DUP3 ADD MSTORE PUSH2 0x8BD JUMP JUMPDEST PUSH1 0x4 DUP3 ADD DUP1 MLOAD SWAP1 SWAP3 PUSH1 0x24 ADD SWAP1 PUSH1 0x20 DUP2 LT ISZERO PUSH2 0x3F2E JUMPI PUSH1 0x0 DUP1 REVERT JUMPDEST DUP2 ADD SWAP1 DUP1 DUP1 MLOAD PUSH1 0x40 MLOAD SWAP4 SWAP3 SWAP2 SWAP1 DUP5 PUSH5 0x100000000 DUP3 GT ISZERO PUSH2 0x3F4E JUMPI PUSH1 0x0 DUP1 REVERT JUMPDEST SWAP1 DUP4 ADD SWAP1 PUSH1 0x20 DUP3 ADD DUP6 DUP2 GT ISZERO PUSH2 0x3F63 JUMPI PUSH1 0x0 DUP1 REVERT JUMPDEST DUP3 MLOAD PUSH5 0x100000000 DUP2 GT DUP3 DUP3 ADD DUP9 LT OR ISZERO PUSH2 0x3F7D JUMPI PUSH1 0x0 DUP1 REVERT JUMPDEST DUP3 MSTORE POP DUP2 MLOAD PUSH1 0x20 SWAP2 DUP3 ADD SWAP3 SWAP1 SWAP2 ADD SWAP1 DUP1 DUP4 DUP4 PUSH1 0x0 JUMPDEST DUP4 DUP2 LT ISZERO PUSH2 0x3FAA JUMPI DUP2 DUP2 ADD MLOAD DUP4 DUP3 ADD MSTORE PUSH1 0x20 ADD PUSH2 0x3F92 JUMP JUMPDEST POP POP POP POP SWAP1 POP SWAP1 DUP2 ADD SWAP1 PUSH1 0x1F AND DUP1 ISZERO PUSH2 0x3FD7 JUMPI DUP1 DUP3 SUB DUP1 MLOAD PUSH1 0x1 DUP4 PUSH1 0x20 SUB PUSH2 0x100 EXP SUB NOT AND DUP2 MSTORE PUSH1 0x20 ADD SWAP2 POP JUMPDEST POP PUSH1 0x40 MSTORE POP POP POP SWAP1 POP SWAP2 SWAP1 POP JUMP JUMPDEST PUSH1 0x0 PUSH2 0x3FEF PUSH2 0x156E JUMP JUMPDEST PUSH2 0xFFFF DUP6 AND PUSH1 0x0 SWAP1 DUP2 MSTORE PUSH1 0x20 SWAP2 SWAP1 SWAP2 MSTORE PUSH1 0x40 DUP2 KECCAK256 SLOAD PUSH1 0x1 PUSH1 0x1 PUSH1 0xA0 SHL SUB AND SWAP2 POP PUSH2 0x4017 PUSH2 0x41EB JUMP JUMPDEST PUSH2 0xFFFF DUP7 AND PUSH1 0x0 SWAP1 DUP2 MSTORE PUSH1 0x20 SWAP2 SWAP1 SWAP2 MSTORE PUSH1 0x40 SWAP1 DUP2 SWAP1 KECCAK256 SLOAD SWAP1 MLOAD PUSH4 0xAD1C095D PUSH1 0xE0 SHL DUP2 MSTORE PUSH1 0x1 PUSH1 0x1 PUSH1 0xA0 SHL SUB SWAP1 SWAP2 AND SWAP2 POP DUP2 SWAP1 PUSH4 0xAD1C095D SWAP1 PUSH2 0x405F SWAP1 DUP10 SWAP1 DUP8 SWAP1 PUSH1 0x4 ADD PUSH2 0x4B41 JUMP JUMPDEST PUSH1 0x0 PUSH1 0x40 MLOAD DUP1 DUP4 SUB DUP2 PUSH1 0x0 DUP8 DUP1 EXTCODESIZE ISZERO DUP1 ISZERO PUSH2 0x4079 JUMPI PUSH1 0x0 DUP1 REVERT JUMPDEST POP GAS CALL ISZERO DUP1 ISZERO PUSH2 0x408D JUMPI RETURNDATASIZE PUSH1 0x0 DUP1 RETURNDATACOPY RETURNDATASIZE PUSH1 0x0 REVERT JUMPDEST POP POP PUSH1 0x40 MLOAD PUSH4 0xAD1C095D PUSH1 0xE0 SHL DUP2 MSTORE PUSH1 0x1 PUSH1 0x1 PUSH1 0xA0 SHL SUB DUP6 AND SWAP3 POP PUSH4 0xAD1C095D SWAP2 POP PUSH2 0xE86 SWAP1 DUP10 SWAP1 DUP9 SWAP1 PUSH1 0x4 ADD PUSH2 0x4B41 JUMP JUMPDEST PUSH1 0x0 DUP1 PUSH2 0x9B6 PUSH1 0x1B PUSH2 0x1D7A JUMP JUMPDEST PUSH2 0x40D4 PUSH2 0x4377 JUMP JUMPDEST PUSH1 0x64 PUSH4 0x3B9ACA00 DUP4 PUSH1 0xFF DUP7 AND PUSH1 0x20 DUP2 LT PUSH2 0x40EA JUMPI INVALID JUMPDEST BYTE MUL DUP2 PUSH2 0x40F3 JUMPI INVALID JUMPDEST DIV DUP2 MSTORE PUSH1 0x64 PUSH4 0x3B9ACA00 DUP4 PUSH1 0xFF DUP7 AND PUSH1 0x1 ADD PUSH1 0x20 DUP2 LT PUSH2 0x410F JUMPI INVALID JUMPDEST BYTE MUL DUP2 PUSH2 0x4118 JUMPI INVALID JUMPDEST DIV DUP2 PUSH1 0x20 ADD DUP2 DUP2 MSTORE POP POP PUSH2 0x413D DUP3 PUSH1 0x2 DUP6 PUSH1 0xFF AND ADD PUSH1 0x20 DUP2 LT PUSH2 0x4137 JUMPI INVALID JUMPDEST BYTE PUSH2 0x41F8 JUMP JUMPDEST PUSH1 0x80 DUP3 ADD DUP2 SWAP1 MSTORE PUSH2 0x100 SWAP1 DUP4 PUSH1 0xFF DUP7 AND PUSH1 0x3 ADD PUSH1 0x20 DUP2 LT PUSH2 0x415A JUMPI INVALID JUMPDEST BYTE MUL DUP2 PUSH2 0x4163 JUMPI INVALID JUMPDEST DIV PUSH1 0x40 DUP3 ADD MSTORE PUSH1 0x80 DUP2 ADD MLOAD PUSH2 0x100 SWAP1 DUP4 PUSH1 0xFF DUP7 AND PUSH1 0x4 ADD PUSH1 0x20 DUP2 LT PUSH2 0x4184 JUMPI INVALID JUMPDEST BYTE MUL DUP2 PUSH2 0x418D JUMPI INVALID JUMPDEST DIV PUSH1 0x60 DUP3 ADD MSTORE PUSH3 0x7A120 DUP3 PUSH1 0xFF DUP6 AND PUSH1 0x5 ADD PUSH1 0x20 DUP2 LT PUSH2 0x41A9 JUMPI INVALID JUMPDEST BYTE MUL PUSH1 0xA0 DUP3 ADD MSTORE PUSH3 0x2625A0 DUP3 PUSH1 0xFF DUP6 AND PUSH1 0x6 ADD PUSH1 0x20 DUP2 LT PUSH2 0x41C6 JUMPI INVALID JUMPDEST BYTE MUL PUSH1 0xC0 DUP3 ADD MSTORE DUP2 PUSH1 0xFF DUP5 AND PUSH1 0x7 ADD PUSH1 0x20 DUP2 LT PUSH2 0x41DF JUMPI INVALID JUMPDEST BYTE PUSH1 0xE0 DUP3 ADD MSTORE SWAP3 SWAP2 POP POP JUMP JUMPDEST PUSH1 0x0 DUP1 PUSH2 0x9B6 PUSH1 0x22 PUSH2 0x1D7A JUMP JUMPDEST PUSH1 0x0 DUP2 PUSH1 0xFF AND PUSH1 0x96 LT PUSH2 0x4213 JUMPI PUSH1 0xFF DUP3 AND PUSH3 0x2625A0 MUL PUSH2 0x9B6 JUMP JUMPDEST POP PUSH1 0x95 NOT PUSH1 0xFF SWAP2 SWAP1 SWAP2 AND ADD PUSH3 0xE4E1C0 MUL PUSH4 0x165A0BC0 ADD SWAP1 JUMP JUMPDEST PUSH1 0x40 MLOAD DUP1 PUSH2 0x140 ADD PUSH1 0x40 MSTORE DUP1 PUSH1 0x0 PUSH2 0xFFFF AND DUP2 MSTORE PUSH1 0x20 ADD PUSH1 0x0 DUP2 MSTORE PUSH1 0x20 ADD PUSH1 0x0 DUP2 MSTORE PUSH1 0x20 ADD PUSH1 0x0 DUP2 MSTORE PUSH1 0x20 ADD PUSH1 0x0 DUP2 MSTORE PUSH1 0x20 ADD PUSH1 0x0 DUP2 MSTORE PUSH1 0x20 ADD PUSH1 0x0 DUP2 MSTORE PUSH1 0x20 ADD PUSH1 0x0 DUP2 MSTORE PUSH1 0x20 ADD PUSH1 0x0 DUP2 MSTORE PUSH1 0x20 ADD PUSH2 0x4283 PUSH2 0x42BD JUMP JUMPDEST SWAP1 MSTORE SWAP1 JUMP JUMPDEST PUSH1 0x40 DUP1 MLOAD PUSH1 0xC0 DUP2 ADD DUP3 MSTORE PUSH1 0x0 DUP1 DUP3 MSTORE PUSH1 0x20 DUP3 ADD DUP2 SWAP1 MSTORE SWAP2 DUP2 ADD DUP3 SWAP1 MSTORE PUSH1 0x60 DUP2 ADD DUP3 SWAP1 MSTORE PUSH1 0x80 DUP2 ADD DUP3 SWAP1 MSTORE PUSH1 0xA0 DUP2 ADD SWAP2 SWAP1 SWAP2 MSTORE SWAP1 JUMP JUMPDEST PUSH1 0x40 MLOAD DUP1 PUSH1 0x60 ADD PUSH1 0x40 MSTORE DUP1 PUSH1 0x0 DUP2 MSTORE PUSH1 0x20 ADD PUSH1 0x0 DUP2 MSTORE PUSH1 0x20 ADD PUSH1 0x0 DUP2 MSTORE POP SWAP1 JUMP JUMPDEST PUSH1 0x40 DUP1 MLOAD PUSH1 0xA0 DUP2 ADD DUP3 MSTORE PUSH1 0x0 DUP1 DUP3 MSTORE PUSH1 0x20 DUP3 ADD DUP2 SWAP1 MSTORE SWAP2 DUP2 ADD DUP3 SWAP1 MSTORE SWAP1 PUSH1 0x60 DUP3 ADD SWAP1 DUP2 MSTORE PUSH1 0x20 ADD PUSH1 0x0 DUP2 MSTORE POP SWAP1 JUMP JUMPDEST PUSH1 0x40 MLOAD DUP1 PUSH2 0x120 ADD PUSH1 0x40 MSTORE DUP1 PUSH1 0x0 DUP2 MSTORE PUSH1 0x20 ADD PUSH1 0x0 DUP2 MSTORE PUSH1 0x20 ADD PUSH1 0x0 DUP2 MSTORE PUSH1 0x20 ADD PUSH1 0x0 DUP2 MSTORE PUSH1 0x20 ADD PUSH1 0x0 DUP2 MSTORE PUSH1 0x20 ADD PUSH1 0x0 DUP2 MSTORE PUSH1 0x20 ADD PUSH1 0x0 DUP2 MSTORE PUSH1 0x20 ADD PUSH1 0x0 DUP2 MSTORE PUSH1 0x20 ADD PUSH1 0x0 DUP2 MSTORE POP SWAP1 JUMP JUMPDEST PUSH1 0x40 MLOAD DUP1 PUSH1 0x20 ADD PUSH1 0x40 MSTORE DUP1 PUSH1 0x1 SWAP1 PUSH1 0x20 DUP3 MUL DUP1 CALLDATASIZE DUP4 CALLDATACOPY POP SWAP2 SWAP3 SWAP2 POP POP JUMP JUMPDEST PUSH1 0x40 MLOAD DUP1 PUSH2 0x100 ADD PUSH1 0x40 MSTORE DUP1 PUSH1 0x0 DUP2 MSTORE PUSH1 0x20 ADD PUSH1 0x0 DUP2 MSTORE PUSH1 0x20 ADD PUSH1 0x0 DUP2 MSTORE PUSH1 0x20 ADD PUSH1 0x0 DUP2 MSTORE PUSH1 0x20 ADD PUSH1 0x0 DUP2 MSTORE PUSH1 0x20 ADD PUSH1 0x0 DUP2 MSTORE PUSH1 0x20 ADD PUSH1 0x0 DUP2 MSTORE PUSH1 0x20 ADD PUSH1 0x0 DUP2 MSTORE POP SWAP1 JUMP JUMPDEST DUP1 MLOAD PUSH2 0x8BD DUP2 PUSH2 0x4E91 JUMP JUMPDEST PUSH1 0x0 DUP3 PUSH1 0x1F DUP4 ADD SLT PUSH2 0x43D7 JUMPI DUP1 DUP2 REVERT JUMPDEST DUP2 MLOAD PUSH1 0x20 PUSH2 0x43EC PUSH2 0x43E7 DUP4 PUSH2 0x4E73 JUMP JUMPDEST PUSH2 0x4E4F JUMP JUMPDEST DUP3 DUP2 MSTORE DUP2 DUP2 ADD SWAP1 DUP6 DUP4 ADD DUP4 DUP6 MUL DUP8 ADD DUP5 ADD DUP9 LT ISZERO PUSH2 0x4408 JUMPI DUP6 DUP7 REVERT JUMPDEST DUP6 JUMPDEST DUP6 DUP2 LT ISZERO PUSH2 0x442F JUMPI DUP2 MLOAD PUSH2 0x441D DUP2 PUSH2 0x4E91 JUMP JUMPDEST DUP5 MSTORE SWAP3 DUP5 ADD SWAP3 SWAP1 DUP5 ADD SWAP1 PUSH1 0x1 ADD PUSH2 0x440A JUMP JUMPDEST POP SWAP1 SWAP8 SWAP7 POP POP POP POP POP POP POP JUMP JUMPDEST PUSH1 0x0 PUSH1 0x1F DUP4 DUP2 DUP5 ADD SLT PUSH2 0x444D JUMPI DUP2 DUP3 REVERT JUMPDEST DUP3 MLOAD PUSH1 0x20 PUSH2 0x445D PUSH2 0x43E7 DUP4 PUSH2 0x4E73 JUMP JUMPDEST DUP3 DUP2 MSTORE DUP2 DUP2 ADD SWAP1 DUP7 DUP4 ADD DUP7 JUMPDEST DUP6 DUP2 LT ISZERO PUSH2 0x4501 JUMPI DUP2 MLOAD DUP10 ADD DUP11 PUSH1 0x3F DUP3 ADD SLT PUSH2 0x4483 JUMPI DUP9 DUP10 REVERT JUMPDEST DUP6 DUP2 ADD MLOAD PUSH8 0xFFFFFFFFFFFFFFFF DUP2 GT ISZERO PUSH2 0x4499 JUMPI INVALID JUMPDEST PUSH2 0x44AA DUP2 DUP11 ADD PUSH1 0x1F NOT AND DUP9 ADD PUSH2 0x4E4F JUMP JUMPDEST DUP2 DUP2 MSTORE DUP13 PUSH1 0x40 DUP4 DUP6 ADD ADD GT ISZERO PUSH2 0x44BE JUMPI DUP11 DUP12 REVERT JUMPDEST DUP11 JUMPDEST DUP3 DUP2 LT ISZERO PUSH2 0x44DC JUMPI DUP4 DUP2 ADD PUSH1 0x40 ADD MLOAD DUP3 DUP3 ADD DUP11 ADD MSTORE DUP9 ADD PUSH2 0x44C0 JUMP JUMPDEST DUP3 DUP2 GT ISZERO PUSH2 0x44EC JUMPI DUP12 DUP10 DUP5 DUP5 ADD ADD MSTORE JUMPDEST POP DUP7 MSTORE POP POP SWAP3 DUP5 ADD SWAP3 SWAP1 DUP5 ADD SWAP1 PUSH1 0x1 ADD PUSH2 0x4469 JUMP JUMPDEST POP SWAP1 SWAP9 SWAP8 POP POP POP POP POP POP POP POP JUMP JUMPDEST DUP1 MLOAD PUSH2 0x8BD DUP2 PUSH2 0x4EA9 JUMP JUMPDEST DUP1 MLOAD PUSH1 0x1 PUSH1 0x1 PUSH1 0x70 SHL SUB NOT DUP2 AND DUP2 EQ PUSH2 0x8BD JUMPI PUSH1 0x0 DUP1 REVERT JUMPDEST DUP1 MLOAD PUSH1 0x1 PUSH1 0x1 PUSH1 0xF8 SHL SUB NOT DUP2 AND DUP2 EQ PUSH2 0x8BD JUMPI PUSH1 0x0 DUP1 REVERT JUMPDEST DUP1 MLOAD PUSH1 0x4 DUP2 LT PUSH2 0x8BD JUMPI PUSH1 0x0 DUP1 REVERT JUMPDEST DUP1 MLOAD PUSH2 0x8BD DUP2 PUSH2 0x4EB7 JUMP JUMPDEST DUP1 MLOAD PUSH1 0xFF DUP2 AND DUP2 EQ PUSH2 0x8BD JUMPI PUSH1 0x0 DUP1 REVERT JUMPDEST PUSH1 0x0 PUSH1 0x20 DUP3 DUP5 SUB SLT ISZERO PUSH2 0x4586 JUMPI DUP1 DUP2 REVERT JUMPDEST DUP2 CALLDATALOAD PUSH2 0x108E DUP2 PUSH2 0x4E91 JUMP JUMPDEST PUSH1 0x0 DUP1 PUSH1 0x0 PUSH1 0x60 DUP5 DUP7 SUB SLT ISZERO PUSH2 0x45A5 JUMPI DUP2 DUP3 REVERT JUMPDEST DUP4 CALLDATALOAD PUSH2 0x45B0 DUP2 PUSH2 0x4E91 JUMP JUMPDEST SWAP3 POP PUSH1 0x20 DUP5 ADD CALLDATALOAD PUSH2 0x45C0 DUP2 PUSH2 0x4EB7 JUMP JUMPDEST SWAP3 SWAP6 SWAP3 SWAP5 POP POP POP PUSH1 0x40 SWAP2 SWAP1 SWAP2 ADD CALLDATALOAD SWAP1 JUMP JUMPDEST PUSH1 0x0 DUP1 PUSH1 0x0 DUP1 PUSH1 0x0 PUSH1 0xA0 DUP7 DUP9 SUB SLT ISZERO PUSH2 0x45E8 JUMPI DUP3 DUP4 REVERT JUMPDEST DUP6 CALLDATALOAD PUSH2 0x45F3 DUP2 PUSH2 0x4E91 JUMP JUMPDEST SWAP5 POP PUSH1 0x20 DUP7 ADD CALLDATALOAD PUSH2 0x4603 DUP2 PUSH2 0x4EB7 JUMP JUMPDEST SWAP4 POP PUSH1 0x40 DUP7 ADD CALLDATALOAD PUSH1 0x1 PUSH1 0x1 PUSH1 0x60 SHL SUB DUP2 AND DUP2 EQ PUSH2 0x461E JUMPI DUP4 DUP5 REVERT JUMPDEST SWAP3 POP PUSH1 0x60 DUP7 ADD CALLDATALOAD PUSH2 0x462E DUP2 PUSH2 0x4EA9 JUMP JUMPDEST SWAP2 POP PUSH1 0x80 DUP7 ADD CALLDATALOAD PUSH2 0x463E DUP2 PUSH2 0x4EA9 JUMP JUMPDEST DUP1 SWAP2 POP POP SWAP3 SWAP6 POP SWAP3 SWAP6 SWAP1 SWAP4 POP JUMP JUMPDEST PUSH1 0x0 PUSH1 0x20 DUP1 DUP4 DUP6 SUB SLT ISZERO PUSH2 0x465E JUMPI DUP2 DUP3 REVERT JUMPDEST DUP3 MLOAD PUSH8 0xFFFFFFFFFFFFFFFF DUP1 DUP3 GT ISZERO PUSH2 0x4675 JUMPI DUP4 DUP5 REVERT JUMPDEST DUP2 DUP6 ADD SWAP2 POP DUP6 PUSH1 0x1F DUP4 ADD SLT PUSH2 0x4688 JUMPI DUP4 DUP5 REVERT JUMPDEST DUP2 MLOAD PUSH2 0x4696 PUSH2 0x43E7 DUP3 PUSH2 0x4E73 JUMP JUMPDEST DUP2 DUP2 MSTORE DUP5 DUP2 ADD SWAP1 DUP5 DUP7 ADD DUP8 JUMPDEST DUP5 DUP2 LT ISZERO PUSH2 0x474B JUMPI DUP2 MLOAD DUP8 ADD PUSH1 0x80 DUP2 DUP14 SUB PUSH1 0x1F NOT ADD SLT ISZERO PUSH2 0x46C1 JUMPI DUP10 DUP11 REVERT JUMPDEST PUSH1 0x40 DUP1 MLOAD PUSH1 0x80 DUP2 ADD DUP2 DUP2 LT DUP11 DUP3 GT OR ISZERO PUSH2 0x46D7 JUMPI INVALID JUMPDEST DUP3 MSTORE DUP3 DUP12 ADD MLOAD DUP10 DUP2 GT ISZERO PUSH2 0x46E9 JUMPI DUP13 DUP14 REVERT JUMPDEST PUSH2 0x46F7 DUP16 DUP14 DUP4 DUP8 ADD ADD PUSH2 0x43C7 JUMP JUMPDEST DUP3 MSTORE POP DUP2 DUP4 ADD MLOAD DUP10 DUP2 GT ISZERO PUSH2 0x470A JUMPI DUP13 DUP14 REVERT JUMPDEST PUSH2 0x4718 DUP16 DUP14 DUP4 DUP8 ADD ADD PUSH2 0x443C JUMP JUMPDEST DUP13 DUP4 ADD MSTORE POP PUSH1 0x60 DUP4 ADD MLOAD DUP3 DUP3 ADD MSTORE PUSH2 0x4732 PUSH1 0x80 DUP5 ADD PUSH2 0x43BC JUMP JUMPDEST PUSH1 0x60 DUP3 ADD MSTORE DUP7 MSTORE POP POP SWAP3 DUP8 ADD SWAP3 SWAP1 DUP8 ADD SWAP1 PUSH1 0x1 ADD PUSH2 0x46A2 JUMP JUMPDEST POP SWAP1 SWAP10 SWAP9 POP POP POP POP POP POP POP POP POP JUMP JUMPDEST PUSH1 0x0 PUSH1 0x20 DUP3 DUP5 SUB SLT ISZERO PUSH2 0x476B JUMPI DUP1 DUP2 REVERT JUMPDEST DUP2 CALLDATALOAD PUSH2 0x108E DUP2 PUSH2 0x4EA9 JUMP JUMPDEST PUSH1 0x0 DUP1 PUSH1 0x40 DUP1 DUP5 DUP7 SUB SLT ISZERO PUSH2 0x4789 JUMPI DUP3 DUP4 REVERT JUMPDEST DUP4 MLOAD SWAP3 POP PUSH1 0x20 DUP1 DUP6 ADD MLOAD PUSH8 0xFFFFFFFFFFFFFFFF DUP1 DUP3 GT ISZERO PUSH2 0x47A8 JUMPI DUP5 DUP6 REVERT JUMPDEST DUP2 DUP8 ADD SWAP2 POP DUP8 PUSH1 0x1F DUP4 ADD SLT PUSH2 0x47BB JUMPI DUP5 DUP6 REVERT JUMPDEST DUP2 MLOAD PUSH2 0x47C9 PUSH2 0x43E7 DUP3 PUSH2 0x4E73 JUMP JUMPDEST DUP2 DUP2 MSTORE DUP5 DUP2 ADD SWAP1 DUP5 DUP7 ADD PUSH1 0xC0 DUP1 DUP6 MUL DUP8 ADD DUP9 ADD DUP14 LT ISZERO PUSH2 0x47E7 JUMPI DUP10 DUP11 REVERT JUMPDEST DUP10 SWAP7 POP JUMPDEST DUP5 DUP8 LT ISZERO PUSH2 0x486E JUMPI DUP1 DUP3 DUP15 SUB SLT ISZERO PUSH2 0x4801 JUMPI DUP10 DUP11 REVERT JUMPDEST DUP9 MLOAD DUP2 DUP2 ADD DUP2 DUP2 LT DUP9 DUP3 GT OR ISZERO PUSH2 0x4814 JUMPI INVALID JUMPDEST DUP11 MSTORE DUP3 MLOAD PUSH2 0x4821 DUP2 PUSH2 0x4EB7 JUMP JUMPDEST DUP2 MSTORE DUP3 DUP10 ADD MLOAD DUP10 DUP3 ADD MSTORE DUP10 DUP4 ADD MLOAD DUP11 DUP3 ADD MSTORE PUSH1 0x60 DUP1 DUP5 ADD MLOAD SWAP1 DUP3 ADD MSTORE PUSH1 0x80 DUP1 DUP5 ADD MLOAD SWAP1 DUP3 ADD MSTORE PUSH1 0xA0 PUSH2 0x4854 DUP2 DUP6 ADD PUSH2 0x454A JUMP JUMPDEST SWAP1 DUP3 ADD MSTORE DUP5 MSTORE PUSH1 0x1 SWAP7 SWAP1 SWAP7 ADD SWAP6 SWAP3 DUP8 ADD SWAP3 SWAP1 DUP2 ADD SWAP1 PUSH2 0x47EB JUMP JUMPDEST POP SWAP9 SWAP12 SWAP1 SWAP11 POP SWAP9 POP POP POP POP POP POP POP POP POP JUMP JUMPDEST PUSH1 0x0 PUSH1 0xC0 DUP3 DUP5 SUB SLT ISZERO PUSH2 0x4891 JUMPI DUP1 DUP2 REVERT JUMPDEST PUSH1 0x40 MLOAD PUSH1 0xC0 DUP2 ADD DUP2 DUP2 LT PUSH8 0xFFFFFFFFFFFFFFFF DUP3 GT OR ISZERO PUSH2 0x48AE JUMPI INVALID JUMPDEST PUSH1 0x40 MSTORE DUP3 MLOAD PUSH5 0xFFFFFFFFFF DUP2 AND DUP2 EQ PUSH2 0x48C5 JUMPI DUP3 DUP4 REVERT JUMPDEST DUP2 MSTORE PUSH2 0x48D3 PUSH1 0x20 DUP5 ADD PUSH2 0x4532 JUMP JUMPDEST PUSH1 0x20 DUP3 ADD MSTORE PUSH2 0x48E4 PUSH1 0x40 DUP5 ADD PUSH2 0x4564 JUMP JUMPDEST PUSH1 0x40 DUP3 ADD MSTORE PUSH2 0x48F5 PUSH1 0x60 DUP5 ADD PUSH2 0x4559 JUMP JUMPDEST PUSH1 0x60 DUP3 ADD MSTORE PUSH2 0x4906 PUSH1 0x80 DUP5 ADD PUSH2 0x451A JUMP JUMPDEST PUSH1 0x80 DUP3 ADD MSTORE PUSH2 0x4917 PUSH1 0xA0 DUP5 ADD PUSH2 0x450F JUMP JUMPDEST PUSH1 0xA0 DUP3 ADD MSTORE SWAP4 SWAP3 POP POP POP JUMP JUMPDEST PUSH1 0x0 PUSH1 0x20 DUP3 DUP5 SUB SLT ISZERO PUSH2 0x4934 JUMPI DUP1 DUP2 REVERT JUMPDEST DUP2 CALLDATALOAD PUSH2 0x108E DUP2 PUSH2 0x4EB7 JUMP JUMPDEST PUSH1 0x0 DUP1 PUSH1 0x0 PUSH1 0x60 DUP5 DUP7 SUB SLT ISZERO PUSH2 0x4953 JUMPI DUP1 DUP2 REVERT JUMPDEST DUP4 CALLDATALOAD PUSH2 0x495E DUP2 PUSH2 0x4EB7 JUMP JUMPDEST SWAP3 POP PUSH1 0x20 DUP5 ADD CALLDATALOAD PUSH1 0x1 PUSH1 0x1 PUSH1 0x58 SHL SUB DUP2 AND DUP2 EQ PUSH2 0x4979 JUMPI DUP2 DUP3 REVERT JUMPDEST SWAP2 POP PUSH1 0x40 DUP5 ADD CALLDATALOAD PUSH2 0x4989 DUP2 PUSH2 0x4EA9 JUMP JUMPDEST DUP1 SWAP2 POP POP SWAP3 POP SWAP3 POP SWAP3 JUMP JUMPDEST PUSH1 0x0 PUSH1 0x20 DUP3 DUP5 SUB SLT ISZERO PUSH2 0x49A5 JUMPI DUP1 DUP2 REVERT JUMPDEST POP MLOAD SWAP2 SWAP1 POP JUMP JUMPDEST PUSH1 0x0 DUP1 PUSH1 0x40 DUP4 DUP6 SUB SLT ISZERO PUSH2 0x49BE JUMPI DUP2 DUP3 REVERT JUMPDEST POP POP DUP1 MLOAD PUSH1 0x20 SWAP1 SWAP2 ADD MLOAD SWAP1 SWAP3 SWAP1 SWAP2 POP JUMP JUMPDEST DUP1 MLOAD PUSH5 0xFFFFFFFFFF AND DUP3 MSTORE PUSH1 0x20 DUP1 DUP3 ADD MLOAD PUSH1 0x1 PUSH1 0x1 PUSH1 0xF8 SHL SUB NOT AND SWAP1 DUP4 ADD MSTORE PUSH1 0x40 DUP1 DUP3 ADD MLOAD PUSH1 0xFF AND SWAP1 DUP4 ADD MSTORE PUSH1 0x60 DUP1 DUP3 ADD MLOAD PUSH2 0xFFFF AND SWAP1 DUP4 ADD MSTORE PUSH1 0x80 DUP1 DUP3 ADD MLOAD PUSH1 0x1 PUSH1 0x1 PUSH1 0x70 SHL SUB NOT AND SWAP1 DUP4 ADD MSTORE PUSH1 0xA0 SWAP1 DUP2 ADD MLOAD ISZERO ISZERO SWAP2 ADD MSTORE JUMP JUMPDEST PUSH1 0x1 PUSH1 0x1 PUSH1 0xA0 SHL SUB SWAP2 SWAP1 SWAP2 AND DUP2 MSTORE PUSH1 0x20 ADD SWAP1 JUMP JUMPDEST PUSH1 0x1 PUSH1 0x1 PUSH1 0xA0 SHL SUB SWAP5 DUP6 AND DUP2 MSTORE SWAP3 DUP5 AND PUSH1 0x20 DUP5 ADD MSTORE SWAP1 DUP4 AND PUSH1 0x40 DUP4 ADD MSTORE SWAP1 SWAP2 AND PUSH1 0x60 DUP3 ADD MSTORE PUSH1 0x80 ADD SWAP1 JUMP JUMPDEST PUSH1 0x0 PUSH2 0x120 DUP1 DUP4 ADD PUSH1 0x1 DUP1 PUSH1 0xA0 SHL SUB DUP1 DUP10 AND DUP6 MSTORE PUSH1 0x20 DUP2 DUP10 AND DUP2 DUP8 ADD MSTORE PUSH1 0x40 SWAP2 POP PUSH2 0x4A96 DUP3 DUP8 ADD DUP10 PUSH2 0x49CF JUMP JUMPDEST PUSH2 0x100 DUP7 ADD SWAP4 SWAP1 SWAP4 MSTORE DUP6 MLOAD SWAP2 DUP3 SWAP1 MSTORE PUSH2 0x140 DUP6 ADD SWAP3 DUP1 DUP8 ADD SWAP3 DUP6 JUMPDEST DUP2 DUP2 LT ISZERO PUSH2 0x4B0D JUMPI DUP5 MLOAD DUP1 MLOAD PUSH2 0xFFFF AND DUP8 MSTORE DUP4 DUP2 ADD MLOAD DUP5 DUP9 ADD MSTORE DUP5 DUP2 ADD MLOAD DUP6 DUP9 ADD MSTORE PUSH1 0x60 DUP1 DUP3 ADD MLOAD SWAP1 DUP9 ADD MSTORE PUSH1 0x80 DUP1 DUP3 ADD MLOAD SWAP1 DUP9 ADD MSTORE PUSH1 0xA0 SWAP1 DUP2 ADD MLOAD SWAP1 PUSH1 0x4 DUP3 LT PUSH2 0x4AF8 JUMPI INVALID JUMPDEST DUP8 ADD MSTORE PUSH1 0xC0 SWAP1 SWAP6 ADD SWAP5 SWAP4 DUP3 ADD SWAP4 PUSH1 0x1 ADD PUSH2 0x4AB1 JUMP JUMPDEST POP SWAP4 SWAP11 SWAP10 POP POP POP POP POP POP POP POP POP POP JUMP JUMPDEST PUSH1 0x1 PUSH1 0x1 PUSH1 0xA0 SHL SUB SWAP4 DUP5 AND DUP2 MSTORE SWAP2 SWAP1 SWAP3 AND PUSH1 0x20 DUP3 ADD MSTORE PUSH1 0x40 DUP2 ADD SWAP2 SWAP1 SWAP2 MSTORE PUSH1 0x60 ADD SWAP1 JUMP JUMPDEST PUSH1 0x1 PUSH1 0x1 PUSH1 0xA0 SHL SUB SWAP3 SWAP1 SWAP3 AND DUP3 MSTORE PUSH1 0x20 DUP3 ADD MSTORE PUSH1 0x40 ADD SWAP1 JUMP JUMPDEST PUSH1 0x1 PUSH1 0x1 PUSH1 0xA0 SHL SUB DUP4 AND DUP2 MSTORE PUSH1 0xE0 DUP2 ADD PUSH2 0x108E PUSH1 0x20 DUP4 ADD DUP5 PUSH2 0x49CF JUMP JUMPDEST PUSH1 0x1 PUSH1 0x1 PUSH1 0xA0 SHL SUB SWAP6 SWAP1 SWAP6 AND DUP6 MSTORE PUSH2 0xFFFF SWAP4 SWAP1 SWAP4 AND PUSH1 0x20 DUP6 ADD MSTORE PUSH1 0x40 DUP5 ADD SWAP2 SWAP1 SWAP2 MSTORE ISZERO ISZERO PUSH1 0x60 DUP4 ADD MSTORE ISZERO ISZERO PUSH1 0x80 DUP3 ADD MSTORE PUSH1 0xA0 ADD SWAP1 JUMP JUMPDEST PUSH1 0x1 PUSH1 0x1 PUSH1 0xA0 SHL SUB SWAP7 SWAP1 SWAP7 AND DUP7 MSTORE PUSH2 0xFFFF SWAP5 SWAP1 SWAP5 AND PUSH1 0x20 DUP7 ADD MSTORE PUSH1 0x40 DUP6 ADD SWAP3 SWAP1 SWAP3 MSTORE PUSH1 0x60 DUP5 ADD MSTORE PUSH1 0x80 DUP4 ADD MSTORE PUSH1 0xA0 DUP3 ADD MSTORE PUSH1 0xC0 ADD SWAP1 JUMP JUMPDEST PUSH1 0x1 PUSH1 0x1 PUSH1 0xA0 SHL SUB SWAP5 SWAP1 SWAP5 AND DUP5 MSTORE PUSH1 0x20 DUP5 ADD SWAP3 SWAP1 SWAP3 MSTORE PUSH1 0x40 DUP4 ADD MSTORE PUSH1 0x60 DUP3 ADD MSTORE PUSH1 0x80 ADD SWAP1 JUMP JUMPDEST SWAP1 ISZERO ISZERO DUP2 MSTORE PUSH1 0x20 ADD SWAP1 JUMP JUMPDEST SWAP2 DUP3 MSTORE ISZERO ISZERO PUSH1 0x20 DUP3 ADD MSTORE PUSH1 0x40 ADD SWAP1 JUMP JUMPDEST PUSH1 0x20 DUP1 DUP3 MSTORE PUSH1 0xF SWAP1 DUP3 ADD MSTORE PUSH15 0x4F76657220537570706C792043617 PUSH1 0x8C SHL PUSH1 0x40 DUP3 ADD MSTORE PUSH1 0x60 ADD SWAP1 JUMP JUMPDEST PUSH1 0x20 DUP1 DUP3 MSTORE PUSH1 0xB SWAP1 DUP3 ADD MSTORE PUSH11 0x4554482042616C616E6365 PUSH1 0xA8 SHL PUSH1 0x40 DUP3 ADD MSTORE PUSH1 0x60 ADD SWAP1 JUMP JUMPDEST PUSH1 0x20 DUP1 DUP3 MSTORE PUSH1 0x6 SWAP1 DUP3 ADD MSTORE PUSH6 0x52656465656D PUSH1 0xD0 SHL PUSH1 0x40 DUP3 ADD MSTORE PUSH1 0x60 ADD SWAP1 JUMP JUMPDEST PUSH1 0x20 DUP1 DUP3 MSTORE PUSH1 0x12 SWAP1 DUP3 ADD MSTORE PUSH18 0x43616E6E6F74206861766520617373657473 PUSH1 0x70 SHL PUSH1 0x40 DUP3 ADD MSTORE PUSH1 0x60 ADD SWAP1 JUMP JUMPDEST PUSH1 0x20 DUP1 DUP3 MSTORE PUSH1 0x13 SWAP1 DUP3 ADD MSTORE PUSH19 0x2AB730BABA3437B934BD32B21031B0B63632B9 PUSH1 0x69 SHL PUSH1 0x40 DUP3 ADD MSTORE PUSH1 0x60 ADD SWAP1 JUMP JUMPDEST PUSH1 0x20 DUP1 DUP3 MSTORE PUSH1 0xF SWAP1 DUP3 ADD MSTORE PUSH15 0x4E6F205072696D6520426F72726F77 PUSH1 0x88 SHL PUSH1 0x40 DUP3 ADD MSTORE PUSH1 0x60 ADD SWAP1 JUMP JUMPDEST PUSH1 0x20 DUP1 DUP3 MSTORE PUSH1 0x1C SWAP1 DUP3 ADD MSTORE PUSH32 0x446570726563617465643A2052656465656D20746F2063546F6B656E00000000 PUSH1 0x40 DUP3 ADD MSTORE PUSH1 0x60 ADD SWAP1 JUMP JUMPDEST PUSH1 0x20 DUP1 DUP3 MSTORE PUSH1 0x14 SWAP1 DUP3 ADD MSTORE PUSH20 0x43616E6E6F74206368616E6765206269746D617 PUSH1 0x64 SHL PUSH1 0x40 DUP3 ADD MSTORE PUSH1 0x60 ADD SWAP1 JUMP JUMPDEST PUSH1 0x20 DUP1 DUP3 MSTORE PUSH1 0x10 SWAP1 DUP3 ADD MSTORE PUSH16 0x10D85B9B9BDD081A185D99481919589D PUSH1 0x82 SHL PUSH1 0x40 DUP3 ADD MSTORE PUSH1 0x60 ADD SWAP1 JUMP JUMPDEST PUSH1 0x20 DUP1 DUP3 MSTORE PUSH1 0xA SWAP1 DUP3 ADD MSTORE PUSH10 0x2732B390372A37B5B2B7 PUSH1 0xB1 SHL PUSH1 0x40 DUP3 ADD MSTORE PUSH1 0x60 ADD SWAP1 JUMP JUMPDEST PUSH1 0x20 DUP1 DUP3 MSTORE PUSH1 0x13 SWAP1 DUP3 ADD MSTORE PUSH19 0x125B9D985B1A590818DD5C9C995B98DE481A59 PUSH1 0x6A SHL PUSH1 0x40 DUP3 ADD MSTORE PUSH1 0x60 ADD SWAP1 JUMP JUMPDEST PUSH1 0x20 DUP1 DUP3 MSTORE PUSH1 0x13 SWAP1 DUP3 ADD MSTORE PUSH19 0x496E73756666696369656E7420746F6B656E73 PUSH1 0x68 SHL PUSH1 0x40 DUP3 ADD MSTORE PUSH1 0x60 ADD SWAP1 JUMP JUMPDEST SWAP1 DUP2 MSTORE PUSH1 0x20 ADD SWAP1 JUMP JUMPDEST SWAP2 DUP3 MSTORE PUSH1 0x20 DUP3 ADD MSTORE PUSH1 0x40 ADD SWAP1 JUMP JUMPDEST SWAP3 DUP4 MSTORE PUSH1 0x20 DUP4 ADD SWAP2 SWAP1 SWAP2 MSTORE PUSH1 0x40 DUP3 ADD MSTORE PUSH1 0x60 ADD SWAP1 JUMP JUMPDEST PUSH1 0x40 MLOAD DUP2 DUP2 ADD PUSH8 0xFFFFFFFFFFFFFFFF DUP2 GT DUP3 DUP3 LT OR ISZERO PUSH2 0x4E6B JUMPI INVALID JUMPDEST PUSH1 0x40 MSTORE SWAP2 SWAP1 POP JUMP JUMPDEST PUSH1 0x0 PUSH8 0xFFFFFFFFFFFFFFFF DUP3 GT ISZERO PUSH2 0x4E87 JUMPI INVALID JUMPDEST POP PUSH1 0x20 SWAP1 DUP2 MUL ADD SWAP1 JUMP JUMPDEST PUSH1 0x1 PUSH1 0x1 PUSH1 0xA0 SHL SUB DUP2 AND DUP2 EQ PUSH2 0x4EA6 JUMPI PUSH1 0x0 DUP1 REVERT JUMPDEST POP JUMP JUMPDEST DUP1 ISZERO ISZERO DUP2 EQ PUSH2 0x4EA6 JUMPI PUSH1 0x0 DUP1 REVERT JUMPDEST PUSH2 0xFFFF DUP2 AND DUP2 EQ PUSH2 0x4EA6 JUMPI PUSH1 0x0 DUP1 REVERT INVALID LOG2 PUSH5 0x6970667358 0x22 SLT KECCAK256 0xCD DELEGATECALL 0xE5 0xD3 0xEA 0xD8 CALLDATACOPY 0xA6 BALANCE GAS 0xBF 0x21 0xBF 0x24 ISZERO RETURN 0xEC 0xB3 DUP9 0xD0 CALLER 0xAD 0xA8 0xEF 0xDE 0xBA PC SWAP10 DUP10 DUP12 0x27 DUP15 PUSH5 0x736F6C6343 STOP SMOD MOD STOP CALLER ","sha1":"b24b9fdf415584f585897a04e9ba6ca47675e224","source":"// SPDX-License-Identifier: GPL-3.0-only\npragma solidity =0.7.6;\npragma abicoder v2;\n\nimport {\n    BalanceState,\n    AccountContext,\n    PortfolioAsset,\n    PrimeRate\n} from \"../../global/Types.sol\";\nimport {Constants} from \"../../global/Constants.sol\";\nimport {SafeInt256} from \"../../math/SafeInt256.sol\";\n\nimport {Emitter} from \"../../internal/Emitter.sol\";\nimport {TransferAssets} from \"../../internal/portfolio/TransferAssets.sol\";\nimport {BalanceHandler} from \"../../internal/balances/BalanceHandler.sol\";\nimport {nTokenHandler} from \"../../internal/nToken/nTokenHandler.sol\";\nimport {PrimeRateLib} from \"../../internal/pCash/PrimeRateLib.sol\";\nimport {AccountContextHandler} from \"../../internal/AccountContextHandler.sol\";\n\nimport {ActionGuards} from \"./ActionGuards.sol\";\nimport {nTokenRedeemAction} from \"./nTokenRedeemAction.sol\";\nimport {SettleAssetsExternal} from \"../SettleAssetsExternal.sol\";\nimport {FreeCollateralExternal} from \"../FreeCollateralExternal.sol\";\nimport {MigrateIncentives} from \"../MigrateIncentives.sol\";\n\ncontract AccountAction is ActionGuards {\n    using BalanceHandler for BalanceState;\n    using AccountContextHandler for AccountContext;\n    using PrimeRateLib for PrimeRate;\n    using SafeInt256 for int256;\n\n    /// @notice A per account setting that allows it to borrow prime cash (i.e. incur negative cash)\n    /// as a result of account initiated actions. Accounts can still incur negative cash as a result of\n    /// fCash settlement regardless of this setting.\n    /// @param allowPrimeBorrow true if the account can borrow prime cash\n    /// @dev emit:AccountSettled emit:AccountContextUpdate\n    /// @dev auth:msg.sender\n    function enablePrimeBorrow(bool allowPrimeBorrow) external {\n        require(msg.sender != address(this)); // dev: no internal call\n        requireValidAccount(msg.sender);\n        (AccountContext memory accountContext, /* didSettle */) = _settleAccountIfRequired(msg.sender);\n        accountContext.allowPrimeBorrow = allowPrimeBorrow;\n        accountContext.setAccountContext(msg.sender);\n    }\n\n    /// @notice Enables a bitmap currency for msg.sender, account cannot have any assets when this call\n    /// occurs. Will revert if the account already has a bitmap currency set.\n    /// @param currencyId the currency to enable the bitmap for.\n    /// @dev emit:AccountSettled emit:AccountContextUpdate\n    /// @dev auth:msg.sender\n    function enableBitmapCurrency(uint16 currencyId) external {\n        require(msg.sender != address(this)); // dev: no internal call to enableBitmapCurrency\n        require(currencyId <= maxCurrencyId); // dev: invalid currency id\n        address account = msg.sender;\n        (AccountContext memory accountContext, /* didSettle */) = _settleAccountIfRequired(account);\n        accountContext.enableBitmapForAccount(currencyId, block.timestamp);\n        accountContext.setAccountContext(account);\n    }\n\n    /// @notice Method for manually settling an account, generally should not be called because other\n    /// methods will check if an account needs to be settled automatically. If a bitmap account has debt\n    /// and is settled via this method, the hasDebt flag will not be cleared until a free collateral check\n    /// is performed on the account.\n    /// @param account the account to settle\n    /// @dev emit:AccountSettled emit:AccountContextUpdate\n    /// @dev auth:none\n    /// @return returns true if account has been settled\n    function settleAccount(address account) external returns (bool) {\n        requireValidAccount(account);\n        (AccountContext memory accountContext, bool didSettle) = _settleAccountIfRequired(account);\n        if (didSettle) accountContext.setAccountContext(account);\n        return didSettle;\n    }\n\n    /// @notice Deposits and wraps the underlying token for a particular cToken. Does not settle assets or check free\n    /// collateral, idea is to be as gas efficient as possible during potential liquidation events.\n    /// @param account the account to deposit into\n    /// @param currencyId currency id of the asset token that wraps this underlying\n    /// @param amountExternalPrecision the amount of underlying tokens in its native decimal precision\n    /// (i.e. 18 decimals for DAI or 6 decimals for USDC). This will be converted to 8 decimals during transfer.\n    /// @return asset tokens minted and deposited to the account in internal decimals (8)\n    /// @dev emit:CashBalanceChange emit:AccountContextUpdate\n    /// @dev auth:none\n    function depositUnderlyingToken(\n        address account,\n        uint16 currencyId,\n        uint256 amountExternalPrecision\n    ) external payable nonReentrant returns (uint256) {\n        require(msg.sender != address(this)); // dev: no internal call to deposit underlying\n        // Only the account can deposit into its balance, donations are not allowed.\n        require(msg.sender == account); // dev: unauthorized\n        requireValidAccount(account);\n\n        AccountContext memory accountContext = AccountContextHandler.getAccountContext(account);\n        BalanceState memory balanceState;\n        balanceState.loadBalanceState(account, currencyId, accountContext);\n\n        // NOTE: using msg.sender here allows for a different sender to deposit tokens into\n        // the specified account. This may be useful for on-demand collateral top ups from a\n        // third party.\n        int256 primeCashReceived = balanceState.depositUnderlyingToken(\n            account,\n            SafeInt256.toInt(amountExternalPrecision),\n            false // there should never be excess ETH here by definition\n        );\n\n        require(primeCashReceived > 0); // dev: asset tokens negative or zero\n\n        balanceState.finalizeNoWithdraw(account, accountContext);\n        accountContext.setAccountContext(account);\n\n        // Check the supply cap after all balances have been finalized\n        balanceState.primeRate.checkSupplyCap(currencyId);\n\n        // NOTE: no free collateral checks required for depositing\n        return primeCashReceived.toUint();\n    }\n\n    /// @notice DEPRECATED: deposits deprecated cTokens tokens as collateral into an account that\n    /// were listed prior to the migration to prime cash. Future listed tokens will not have asset\n    /// tokens and will revert in this method.\n    /// @param account the account to deposit into\n    /// @param currencyId currency id of the asset token\n    /// @param amountExternalPrecision the amount of asset tokens in its native decimal precision\n    /// (i.e. 8 decimals for cTokens).\n    /// @return asset tokens minted and deposited to the account in internal decimals (8)\n    /// @dev emit:CashBalanceChange emit:AccountContextUpdate\n    /// @dev auth:none\n    function depositAssetToken(\n        address account,\n        uint16 currencyId,\n        uint256 amountExternalPrecision\n    ) external nonReentrant returns (uint256) {\n        require(msg.sender != address(this)); // dev: no internal call to deposit asset\n        // Only the account can deposit into its balance, donations are not allowed.\n        require(msg.sender == account); // dev: unauthorized\n        requireValidAccount(account);\n\n        AccountContext memory accountContext = AccountContextHandler.getAccountContext(account);\n        BalanceState memory balanceState;\n        balanceState.loadBalanceState(account, currencyId, accountContext);\n\n        // Int conversion overflow check done inside this method call. msg.sender\n        // is used as the account in deposit to allow for other accounts to deposit\n        // on behalf of the given account. This always does an immediate transfer\n        // and marks the net prime cash change on the balance state.\n        int256 primeCashReceived = balanceState.depositDeprecatedAssetToken(\n            account,\n            SafeInt256.toInt(amountExternalPrecision)\n        );\n\n        require(primeCashReceived > 0); // dev: asset tokens negative or zero\n\n        balanceState.finalizeNoWithdraw(account, accountContext);\n        accountContext.setAccountContext(account);\n\n        // Check the supply cap after all balances have been finalized\n        balanceState.primeRate.checkSupplyCap(currencyId);\n\n        // NOTE: no free collateral checks required for depositing\n        return primeCashReceived.toUint();\n    }\n\n    /// @notice Withdraws balances from Notional, may also redeem to underlying tokens on user request. Will settle\n    /// and do free collateral checks if required. Can only be called by msg.sender, operators who want to withdraw for\n    /// an account must do an authenticated call via ERC1155Action `safeTransferFrom` or `safeBatchTransferFrom`\n    /// @param currencyId currency id of the asset token\n    /// @param amountInternalPrecision the amount of cash balance in internal 8 decimal precision to withdraw,\n    /// this is be denominated in prime cash. If set to uint88 max, will withdraw an entire cash balance.\n    /// @param redeemToUnderlying DEPRECATED except for ETH balances. Prior to the prime cash upgrade, accounts could withdraw\n    /// cTokens directly. However, post prime cash migration this is no longer the case. If withdrawing ETH, setting redeemToUnderlying\n    /// to false will redeem ETH as WETH.\n    /// @dev emit:CashBalanceChange emit:AccountContextUpdate\n    /// @dev auth:msg.sender\n    /// @return the amount of tokens received by the account denominated in the destination token precision (if\n    // redeeming to underlying the amount will be the underlying amount received in that token's native precision)\n    function withdraw(\n        uint16 currencyId,\n        uint88 amountInternalPrecision,\n        bool redeemToUnderlying\n    ) external nonReentrant returns (uint256) {\n        if (currencyId != Constants.ETH_CURRENCY_ID) {\n            require(redeemToUnderlying, \"Deprecated: Redeem to cToken\");\n        }\n        // This happens before reading the balance state to get the most up to date cash balance\n        (AccountContext memory accountContext, /* didSettle */) = _settleAccountIfRequired(msg.sender);\n\n        BalanceState memory balanceState;\n        balanceState.loadBalanceState(msg.sender, currencyId, accountContext);\n        if (amountInternalPrecision == type(uint88).max) {\n            // if set to uint88 max, withdraw the full stored balance. This feature only\n            // works if there is a positive balance\n            require(balanceState.storedCashBalance > 0);\n            balanceState.primeCashWithdraw = balanceState.storedCashBalance.neg();\n        } else {\n            // Overflow is not possible due to uint88\n            balanceState.primeCashWithdraw = int256(amountInternalPrecision).neg();\n        }\n\n        int256 underlyingWithdrawnExternal = balanceState.finalizeWithWithdraw(\n            msg.sender, accountContext, !redeemToUnderlying\n        );\n\n        accountContext.setAccountContext(msg.sender);\n\n        if (accountContext.hasDebt != 0x00) {\n            FreeCollateralExternal.checkFreeCollateralAndRevert(msg.sender);\n        }\n\n        require(underlyingWithdrawnExternal <= 0);\n\n        // No need to check supply caps\n        return underlyingWithdrawnExternal.neg().toUint();\n    }\n\n    /// @notice Allows accounts to redeem nTokens into constituent assets and then absorb the assets\n    /// into their portfolio. Due to the complexity here, it is not allowed to be called during a batch trading\n    /// operation and must be done separately.\n    /// @param redeemer the address that holds the nTokens to redeem\n    /// @param currencyId the currency associated the nToken\n    /// @param tokensToRedeem_ the amount of nTokens to convert to cash\n    /// @param sellTokenAssets attempt to sell residual fCash and convert to cash\n    /// @param acceptResidualAssets if true, will place any residual fCash that could not be sold (either due to slippage\n    /// or because it was idiosyncratic) into the account's portfolio\n    /// @dev auth:msg.sender auth:ERC1155\n    /// @return total amount of asset cash redeemed\n    /// @return true or false if there were residuals that were placed into the portfolio\n    function nTokenRedeem(\n        address redeemer,\n        uint16 currencyId,\n        uint96 tokensToRedeem_,\n        bool sellTokenAssets,\n        bool acceptResidualAssets\n    ) external nonReentrant returns (int256, bool) {\n        // ERC1155 can call this method during a post transfer event\n        require(msg.sender == redeemer || msg.sender == address(this), \"Unauthorized caller\");\n        int256 tokensToRedeem = int256(tokensToRedeem_);\n\n        (AccountContext memory context, /* didSettle */) = _settleAccountIfRequired(redeemer);\n\n        BalanceState memory balance;\n        balance.loadBalanceState(redeemer, currencyId, context);\n\n        require(balance.storedNTokenBalance >= tokensToRedeem, \"Insufficient tokens\");\n        balance.netNTokenSupplyChange = tokensToRedeem.neg();\n\n        (int256 totalPrimeCash, PortfolioAsset[] memory assets) = nTokenRedeemAction.redeem(\n            redeemer, currencyId, tokensToRedeem, sellTokenAssets, acceptResidualAssets\n        );\n\n        // Set balances before transferring assets\n        balance.netCashChange = totalPrimeCash;\n        balance.finalizeNoWithdraw(redeemer, context);\n\n        // The hasResidual flag is only set to true if selling residuals has failed, checking\n        // if the length of assets is greater than zero will detect the presence of ifCash\n        // assets that have not been sold.\n        if (assets.length > 0) {\n            // This method will store assets and return the memory location of the new account\n            // context.\n            address nTokenAddress = nTokenHandler.nTokenAddress(currencyId);\n            context = SettleAssetsExternal.placeAssetsInAccount(redeemer, nTokenAddress, context, assets);\n        }\n\n        context.setAccountContext(redeemer);\n        if (context.hasDebt != 0x00) {\n            FreeCollateralExternal.checkFreeCollateralAndRevert(redeemer);\n        }\n\n        // Do not check supply caps during nToken redemption, no deposits are taken during \n        // redemption so the supply should not change.\n        Emitter.emitNTokenBurn(redeemer, currencyId, totalPrimeCash, tokensToRedeem);\n\n        return (totalPrimeCash, assets.length > 0);\n    }\n\n    /// @notice Settle the account if required, returning a reference to the account context. Also\n    /// returns a boolean to indicate if it did settle.\n    function _settleAccountIfRequired(address account)\n        private\n        returns (AccountContext memory, bool)\n    {\n        AccountContext memory accountContext = AccountContextHandler.getAccountContext(account);\n        if (accountContext.mustSettleAssets()) {\n            return (SettleAssetsExternal.settleAccount(account, accountContext), true);\n        } else {\n            return (accountContext, false);\n        }\n    }\n\n    /// @notice Get a list of deployed library addresses (sorted by library name)\n    function getLibInfo() external pure returns (address, address, address, address) {\n        return (\n            address(FreeCollateralExternal),\n            address(MigrateIncentives), \n            address(SettleAssetsExternal), \n            address(nTokenRedeemAction)\n        );\n    }\n}\n","sourcePath":"contracts/external/actions/AccountAction.sol","type":"contract","deployment":{"address":"0xD4df1582c28Cd9aC2525bcf38374Ea55D6D5e8ac","chainid":"42161","blockHeight":119788220}}