{"abi":[{"anonymous":false,"inputs":[{"indexed":true,"internalType":"address","name":"liquidated","type":"address"},{"indexed":true,"internalType":"address","name":"liquidator","type":"address"},{"indexed":false,"internalType":"uint16","name":"localCurrencyId","type":"uint16"},{"indexed":false,"internalType":"uint16","name":"collateralCurrencyId","type":"uint16"},{"indexed":false,"internalType":"int256","name":"localPrimeCashFromLiquidator","type":"int256"},{"indexed":false,"internalType":"int256","name":"netCollateralTransfer","type":"int256"},{"indexed":false,"internalType":"int256","name":"netNTokenTransfer","type":"int256"}],"name":"LiquidateCollateralCurrency","type":"event"},{"anonymous":false,"inputs":[{"indexed":true,"internalType":"address","name":"liquidated","type":"address"},{"indexed":true,"internalType":"address","name":"liquidator","type":"address"},{"indexed":false,"internalType":"uint16","name":"localCurrencyId","type":"uint16"},{"indexed":false,"internalType":"int256","name":"localPrimeCashFromLiquidator","type":"int256"}],"name":"LiquidateLocalCurrency","type":"event"},{"inputs":[{"internalType":"address","name":"liquidateAccount","type":"address"},{"internalType":"uint16","name":"localCurrency","type":"uint16"},{"internalType":"uint16","name":"collateralCurrency","type":"uint16"},{"internalType":"uint128","name":"maxCollateralLiquidation","type":"uint128"},{"internalType":"uint96","name":"maxNTokenLiquidation","type":"uint96"}],"name":"calculateCollateralCurrencyLiquidation","outputs":[{"internalType":"int256","name":"","type":"int256"},{"internalType":"int256","name":"","type":"int256"},{"internalType":"int256","name":"","type":"int256"}],"stateMutability":"nonpayable","type":"function"},{"inputs":[{"internalType":"address","name":"liquidateAccount","type":"address"},{"internalType":"uint16","name":"localCurrency","type":"uint16"},{"internalType":"uint96","name":"maxNTokenLiquidation","type":"uint96"}],"name":"calculateLocalCurrencyLiquidation","outputs":[{"internalType":"int256","name":"","type":"int256"},{"internalType":"int256","name":"","type":"int256"}],"stateMutability":"nonpayable","type":"function"},{"inputs":[],"name":"getLibInfo","outputs":[{"internalType":"address","name":"","type":"address"},{"internalType":"address","name":"","type":"address"}],"stateMutability":"pure","type":"function"},{"inputs":[{"internalType":"address","name":"liquidateAccount","type":"address"},{"internalType":"uint16","name":"localCurrency","type":"uint16"},{"internalType":"uint16","name":"collateralCurrency","type":"uint16"},{"internalType":"uint128","name":"maxCollateralLiquidation","type":"uint128"},{"internalType":"uint96","name":"maxNTokenLiquidation","type":"uint96"},{"internalType":"bool","name":"withdrawCollateral","type":"bool"},{"internalType":"bool","name":"redeemToUnderlying","type":"bool"}],"name":"liquidateCollateralCurrency","outputs":[{"internalType":"int256","name":"","type":"int256"},{"internalType":"int256","name":"","type":"int256"},{"internalType":"int256","name":"","type":"int256"}],"stateMutability":"payable","type":"function"},{"inputs":[{"internalType":"address","name":"liquidateAccount","type":"address"},{"internalType":"uint16","name":"localCurrency","type":"uint16"},{"internalType":"uint96","name":"maxNTokenLiquidation","type":"uint96"}],"name":"liquidateLocalCurrency","outputs":[{"internalType":"int256","name":"","type":"int256"},{"internalType":"int256","name":"","type":"int256"}],"stateMutability":"payable","type":"function"},{"inputs":[],"name":"owner","outputs":[{"internalType":"address","name":"","type":"address"}],"stateMutability":"view","type":"function"},{"inputs":[],"name":"pauseGuardian","outputs":[{"internalType":"address","name":"","type":"address"}],"stateMutability":"view","type":"function"},{"inputs":[],"name":"pauseRouter","outputs":[{"internalType":"address","name":"","type":"address"}],"stateMutability":"view","type":"function"}],"bytecode":"608060405234801561001057600080fd5b50614e68806100206000396000f3fe60806040526004361061007b5760003560e01c80638da5cb5b1161004e5780638da5cb5b146101035780639a600eeb14610118578063c4c96dae14610138578063e3e7cb4f1461015b5761007b565b806324a3d622146100805780632d10e6eb146100ab5780636633af39146100cc57806382463367146100ee575b600080fd5b34801561008c57600080fd5b5061009561017b565b6040516100a29190614b20565b60405180910390f35b6100be6100b936600461489f565b61018a565b6040516100a2929190614c0d565b6100df6100da36600461480e565b610280565b6040516100a293929190614c1b565b3480156100fa57600080fd5b50610095610349565b34801561010f57600080fd5b50610095610358565b34801561012457600080fd5b506100df6101333660046147a4565b61036f565b34801561014457600080fd5b5061014d6103e6565b6040516100a2929190614b34565b34801561016757600080fd5b506100be61017636600461489f565b610414565b6002546001600160a01b031681565b6000806002600a5414156101b95760405162461bcd60e51b81526004016101b090614d25565b60405180910390fd5b6002600a55600080806101ce88888884610475565b92509250925060006101ef338a8a876101ea8860a001516104ce565b6104e4565b90506101fc838a846105da565b336001600160a01b0316896001600160a01b03167f4596c3b6545e97eb42b719442dd0afa8eb7680f3ff72c762763d4b292ee26ea78a87604051610241929190614d71565b60405180910390a361025381336105fe565b61025d828a6105fe565b8361026b8460a001516104ce565b6001600a55909a909950975050505050505050565b60008060006002600a5414156102a85760405162461bcd60e51b81526004016101b090614d25565b6002600a55600080806102bf8d8d8d8d8d8661071b565b92509250925060006102d68e8e8e87878e8e610776565b90506102e48e8e84876107c2565b6102ef838f846107ef565b6102fb8e8e868661080c565b610305828f6105fe565b61030f81336105fe565b8361031d84606001516104ce565b61032a8560a001516104ce565b965096509650505050506001600a819055509750975097945050505050565b6001546001600160a01b031681565b60005464010000000090046001600160a01b031681565b60008060006002600a5414156103975760405162461bcd60e51b81526004016101b090614d25565b6002600a556000806103ae8a8a8a8a8a600161071b565b5091509150816103c182606001516104ce565b6103ce8360a001516104ce565b6001600a55919c909b50909950975050505050505050565b73__FreeCollateralExternal________________73__MigrateIncentives_____________________9091565b6000806002600a54141561043a5760405162461bcd60e51b81526004016101b090614d25565b6002600a5560008061044f8787876001610475565b5091509150816104628260a001516104ce565b6001600a55909890975095505050505050565b600061047f614005565b610487614061565b61048f614096565b61049b88886000610881565b5090925090506104ad838989856109dd565b8415156101408201526104c18684836109f8565b9350509450945094915050565b60006104dc60001983610b3e565b90505b919050565b6104ec614061565b60006104fb8561ffff16610b92565b9050600061050888610ba5565b9050610512614005565b61051e818a89856109dd565b6000861361052b57600080fd5b8260200151156105845785816020015112158015610555575060208201516001600160f81b031916155b6105715760405162461bcd60e51b81526004016101b090614ca6565b61057a866104ce565b6060820152610599565b6105978988888461012001516000610c53565b505b6105a589898989610cb1565b60008513156105ba576105ba888a8988610d57565b60a081018590526105cc818a846105da565b509150505b95945050505050565b6080830151156105e957600080fd5b6105f883838360006001610e67565b50505050565b600061060861101d565b6001600160a01b03831660008181526020838152604080832088518154938a01518a84015160608c015160808d015160a08e015164ffffffffff1990981664ffffffffff9095169490941765ff00000000001916600160281b60f89490941c939093029290921766ff0000000000001916600160301b60ff909216919091021768ffff000000000000001916600160381b61ffff90921691909102177affffffffffffffffffffffffffffffffffff0000000000000000001916600160481b60709290921c919091021760ff60d81b1916600160d81b93151593909302929092179091555192935090917f6bd4b121bca854a191536a2ca891155c42ee2fb23f307fb34e8bc65cfcb5412e9190a2505050565b6000610725614005565b61072d614061565b610735614096565b6107408a8a8a610881565b509092509050610752838b8a856109dd565b8415156101408201526107678787858461102a565b93505096509650969350505050565b61077e614061565b61078c3389898860006104e4565b90506107b633828a896107a289606001516104ce565b6107af8a60a001516104ce565b898961113f565b50979650505050505050565b6107ca614005565b6107d6818686866109dd565b606081018290526107e88186856105da565b5050505050565b6080830151156107fe57600080fd5b6105f8838383600080610e67565b336001600160a01b0316846001600160a01b03167f88fff2f00941b1272999212de454ee8d15f54d132723b35e3423ef742109861c8584600001518661085587606001516104ce565b6108628860a001516104ce565b604051610873959493929190614d85565b60405180910390a350505050565b610889614061565b610891614096565b61089961411b565b336001600160a01b03871614156108af57600080fd5b61ffff85166108bd57600080fd5b8461ffff168461ffff1614156108d257600080fd5b600080600073__FreeCollateralExternal________________63451d958f8a8a8a6040518463ffffffff1660e01b815260040161091293929190614b8b565b60006040518083038186803b15801561092a57600080fd5b505af415801561093e573d6000803e3d6000fd5b505050506040513d6000823e601f3d908101601f1916820160405261096691908101906149f3565b91945092509050610977838a6105fe565b6040805160808101825282815281516000808252602082810190945292820190836109b8565b6109a5614143565b81526020019060019003908161099d5790505b5081526000602082015292516040909301929092525091989097509095509350505050565b6109e6826111db565b6101208501526105f8848484846111ed565b6000816040015160001415610a0c57600080fd5b6000610a34610a28846040015185602001518660c00151611295565b610100850151906112db565b9050600083608001511315610b365760a0830151600090600381901a90821a11610a5d57600080fd5b60a08401516080850151600382901a60009290921a9190910360ff1690610ab190610a889083610b3e565b60a08701516040890151610aab9160031a90610aa5908890610b3e565b90610b3e565b90611304565b915050610acc818660400151886001600160601b0316611335565b9050610ad7816104ce565b60a0868101919091526040860151908501516080860151600092610b10929091610aab91600381901a918391610aa5908990891a610b3e565b6060870151909150610b22908261137f565b6060870152610b31848261137f565b935050505b509392505050565b818102600019831415610b6e57811580610b60575082828281610b5d57fe5b05145b610b6957600080fd5b610b8c565b821580610b83575081838281610b8057fe5b05145b610b8c57600080fd5b92915050565b610b9a614182565b6104dc826001611395565b610bad614061565b6000610bb761101d565b6001600160a01b03841660009081526020918252604090819020815160c081018352905464ffffffffff811682526001600160f81b0319600160281b820460f81b169382019390935260ff600160301b840481169282019290925261ffff600160381b84041660608201526001600160701b0319600160481b840460701b166080820152600160d81b90920416151560a0820152915050919050565b600083610c62575060006105d1565b60008413610c6f57600080fd5b6000610c7e8661ffff16610b92565b90506000610c9582610c90878961142f565b61145b565b9050610ca48888838888611497565b5098975050505050505050565b6000610cbb611559565b61ffff8416600090815260209190915260408120546001600160a01b03169150821215610ce6579293925b806001600160a01b03166323de66518686610d0086611566565b6040518463ffffffff1660e01b8152600401610d1e93929190614b4e565b600060405180830381600087803b158015610d3857600080fd5b505af1158015610d4c573d6000803e3d6000fd5b505050505050505050565b6000610d61611587565b61ffff8416600090815260209190915260408120546001600160a01b03169150821215610d8c579293925b6000610d9783611566565b9050610da284611594565b15610dfc576001600160a01b03808616908716337fc3d58168c5ae7397731d063d5bbf3d657854427343f4c083240f7aacaa2d0f62610de0886115b1565b85604051610def929190614c0d565b60405180910390a4610e5f565b6040516323de665160e01b81526001600160a01b038316906323de665190610e2c90899089908690600401614b4e565b600060405180830381600087803b158015610e4657600080fd5b505af1158015610e5a573d6000803e3d6000fd5b505050505b505050505050565b600080610e8486886000015189608001518a6101200151886115c7565b91506000610ea38860800151896060015161137f90919063ffffffff16565b9050838015610eb25750600081125b8015610ecd57506020880151600090610ecb908361137f565b125b15610ef3578560a00151610ef35760405162461bcd60e51b81526004016101b090614c7d565b8015610f12576020880151610f08908261137f565b6020890152600191505b60a0880151151580610f27575060c088015115155b15610f90576000610f578960c00151610f518b60a001518c6040015161137f90919063ffffffff16565b9061137f565b90506000811215610f7a5760405162461bcd60e51b81526004016101b090614d4d565b610f8589898361166a565b506040890152600191505b8115610fbf57610fbf8789600001518a602001518b604001518c60e001518d61010001518e6101200151611757565b87516020890151610fec9161ffff1690151580610fdf575060408a015115155b889190600160fe1b611892565b60008860200151121561101257602086018051600160f91b176001600160f81b03191690525b505095945050505050565b600080610b8c6001611a98565b60008082604001511261104f5760405162461bcd60e51b81526004016101b090614c31565b60008260600151136110735760405162461bcd60e51b81526004016101b090614cc7565b60008061108984886001600160801b0316611ab1565b9150915060008290506000866020015113156110e557808660200151126110c0576110b3816104ce565b60608701525060006110e5565b6110cd86602001516104ce565b606087015260208601516110e2908290611b57565b90505b6000811380156110f9575060008560800151135b15611116576111138686838a6001600160601b0316611b73565b90505b600081131561113457606086015161112e9082611c31565b60608701525b509695505050505050565b611147614061565b816111645760405162461bcd60e51b81526004016101b090614cee565b61116c614005565b611178818b898c6109dd565b60608101869052851561119157611191888b8989610cb1565b84156111a3576111a3888b8988610d57565b83156111b8576111b2866104ce565b60808201525b60a081018590526111cc818b8b6000611c47565b50979998505050505050505050565b6111e36141b1565b6104dc8242611c57565b8161ffff1660001080156112075750613fff61ffff831611155b61121057600080fd5b61ffff8216808552611223908290611d18565b15611252576112388383866101200151611da2565b61010088015260e087015260408601526020850152611270565b6000602085018190526040850181905260e085018190526101008501525b50506000606083018190526080830181905260a0830181905260c09092019190915250565b600080600085136112aa5782604001516112b0565b82606001515b9050600081136112bf57600080fd5b6105d181610aab6064610aa56112d4896104ce565b8890611e5c565b81516000906112fd90610aab846ec097ce7bc90715b34b9f1000000000610b3e565b9392505050565b60008160001914801561131a5750600160ff1b83145b1561132457600080fd5b81838161132d57fe5b059392505050565b6000806113486064610aab866028610b3e565b905084848113156113565750835b818612156113615750805b60008413801561137057508381135b156105d1575091949350505050565b81810182811215600083121514610b8c57600080fd5b61139d614182565b60006113a7611e86565b6000858152602082815260408083208715158452825291829020825160a08101845281546001600160a01b038116825260ff600160a01b82048116151594830194909452600160b01b81048416600a0a9482019490945293945092916060830191600160a81b90910416600581111561141c57fe5b8152600060209091015295945050505050565b60006112fd6ec097ce7bc90715b34b9f1000000000610aab856000015185610b3e90919063ffffffff16565b60006305f5e100836040015112156114835761147c6001610f518585611e93565b9050610b8c565b6112fd8361149284600161137f565b611e93565b60008060006114a586611ecb565b9050806114b957600080925092505061154f565b60006114c88861ffff16610b92565b90506003816060015160058111156114dc57fe5b141561152357348210156114fc576114f78983340387611ede565b61151b565b34821461151b5760405162461bcd60e51b81526004016101b090614c58565b86935061153d565b61153a61153582600001518b85611fab565b612133565b93505b61154a898986848a612149565b925050505b9550959350505050565b600080610b8c6021611a98565b60008082121561158057611579826104ce565b90506104df565b50806104df565b600080610b8c6003611a98565b6000466001811480156112fd57505050600461ffff909116111590565b600c60309190911b67ffff000000000000161790565b6000836115d6575060006105d1565b600084126115e357600080fd5b60006115f28661ffff16610b92565b905061160281611492868861142f565b9150600061160f836104ce565b905061161c878383612190565b60038260600151600581111561162e57fe5b14156116445761163f888286611ede565b611651565b8151611651908983612284565b61165e8888858589612149565b50505095945050505050565b8251600090429082906116809061ffff166122fb565b90506000611693828860c0015185612321565b90506116a187838388612404565b935060006116ae83612531565b90506001600160a01b0381161561173c57806001600160a01b0316631d684dd2888a600001516116e18c60400151611ecb565b8a8d60c001518b6040518763ffffffff1660e01b815260040161170996959493929190614bb0565b600060405180830381600087803b15801561172357600080fd5b505af1158015611737573d6000803e3d6000fd5b505050505b841561174c5761174c87866125a3565b505050509392505050565b60006117616125c6565b6001600160a01b03891660009081526020828152604080832061ffff8c1684529091529020909150846117c95766ffffffffffffff8411156117a257600080fd5b805466ffffffffffffff60701b1916600160701b66ffffffffffffff8616021781556117e3565b8054600160501b900463ffffffff1685146117e357600080fd5b6117ec856125d3565b815463ffffffff91909116600160501b0263ffffffff60501b1990911617815561181d61181887611ecb565b6125e6565b815469ffffffffffffffffffff19166001600160501b0391909116178082556118639061185e9085908c908c90600160a81b9004600a90810b900b8c6125fc565b61261f565b8154600a9190910b6001600160581b0316600160a81b026001600160a81b039091161790555050505050505050565b8260001080156118a45750613fff8311155b6118ad57600080fd5b8180156118c1575082846060015161ffff16145b156118cb576105f8565b6080840151600090815b6001600160701b0319821615611a4d5760f082901c613fff1686811480156118fa5750855b1561193257506080870180516001600160f01b0319861660109093029290921c919091176001600160701b0319169052506105f89050565b868114801561193f575085155b1561199b576001600160f01b03198516199290921691600360fe1b8316611979576010836dffffffffffffffffffffffffffff1916901b92505b506001600160701b031991821660109091021c919091171660808501526105f8565b86811180156119a75750855b15611a01576080888101516001600160f01b031960f08a901b88178116601086021c9690961795911b16156119db57600080fd5b506001600160701b03199182166001919091016010021c919091171660808501526105f8565b8681118015611a0e575085155b15611a1c57505050506105f8565b506001600160f01b0319821660108281029190911c93909317929190911b6001600160801b031916906001016118d5565b84611a5a575050506105f8565b60098110611a6757600080fd5b6001600160f01b031960f087901b85171660109091021c919091176001600160701b03191660808601525050505050565b6000620f4240826026811115611aaa57fe5b0192915050565b600080600080611ac086612651565b915091506000611af88760e0015160600151611af284610aab60648c60c0015160400151610b3e90919063ffffffff16565b90611c31565b9050611b0981610aab856064610b3e565b945050611b1b84876060015187611335565b93506000611b3b858861012001516040015161142f90919063ffffffff16565b9050611b49878383886126a5565b909890975095505050505050565b6000611b638383611c31565b90506000811215610b8c57600080fd5b60a0830151608084015160009180831a9160039190911a908390611bb690611b9b9085610b3e565b610aab84610aa58c604001518b610b3e90919063ffffffff16565b9050600085138015611bc757508481135b15611bcf5750835b8760400151811315611be2575060408701515b611beb816104ce565b8860a0018181525050611c25611c1e8960400151610aab85610aab88610aa58e6080015189610b3e90919063ffffffff16565b8790611b57565b98975050505050505050565b80820382811315600083121514610b8c57600080fd5b60006105d1858585856001610e67565b611c5f6141b1565b6000611c6a84612732565b90508281600001511015611ca957600080611c84866127fa565b9050611c9286848388612877565b9093509150611ca2868385612978565b5050611cb6565b80518314611cb657600080fd5b6040518060600160405280611cdf6115358460a001518560c00151612bac90919063ffffffff16565b8152602001611d026115358460a001518560e00151612bac90919063ffffffff16565b8152602001826060015181525091505092915050565b60008115801590611d2b5750613fff8211155b611d3457600080fd5b6080830151606084015161ffff16831415611d53576001915050610b8c565b6001600160701b0319811615611d985760f081901c613fff1683811415611d855750600160fe1b908116149050610b8c565b5060101b6001600160801b031916611d53565b5060009392505050565b6000806000806000611db26125c6565b6001600160a01b03891660009081526020828152604080832061ffff8c168452909152902080546001600160501b0381169650600160501b900463ffffffff1694509091508315611e1f578054611e1890600160701b900466ffffffffffffff16612bd3565b9250611e34565b8054600160701b900466ffffffffffffff1692505b8054611e4f908890600160a81b9004600a90810b900b612be1565b9550505093509350935093565b600080611e7e8460200151610aab866000015186610b3e90919063ffffffff16565b949350505050565b600080610b8c6007611a98565b60006305f5e10083604001511415611eac575080610b8c565b6112fd6305f5e100610aab856040015185610b3e90919063ffffffff16565b600080821215611eda57600080fd5b5090565b8015611f70577382af49447d8a07e3bd95bd0d56f35241523fbab16001600160a01b031663d0e30db0836040518263ffffffff1660e01b81526004016000604051808303818588803b158015611f3357600080fd5b505af1158015611f47573d6000803e3d6000fd5b5050505050611f6b7382af49447d8a07e3bd95bd0d56f35241523fbab18484612284565b611fa6565b6040516001600160a01b0384169083156108fc029084906000818181858888f193505050501580156105f8573d6000803e3d6000fd5b505050565b600080846001600160a01b03166370a08231306040518263ffffffff1660e01b815260040180826001600160a01b0316815260200191505060206040518083038186803b158015611ffb57600080fd5b505afa15801561200f573d6000803e3d6000fd5b505050506040513d602081101561202557600080fd5b5051604080516323b872dd60e01b81526001600160a01b038781166004830152306024830152604482018790529151929350908716916323b872dd9160648082019260009290919082900301818387803b15801561208257600080fd5b505af1158015612096573d6000803e3d6000fd5b505050506120a2612c08565b6000856001600160a01b03166370a08231306040518263ffffffff1660e01b815260040180826001600160a01b0316815260200191505060206040518083038186803b1580156120f157600080fd5b505afa158015612105573d6000803e3d6000fd5b505050506040513d602081101561211b57600080fd5b505190506121298183612c75565b9695505050505050565b60006001600160ff1b03821115611eda57600080fd5b6000806121568486612c8a565b905061216283826112db565b915061216f878784612cba565b61217a868383612d3a565b83516121869086612e2d565b5095945050505050565b600061219a612e87565b83516001600160a01b03166000908152602082905260409020549091508083116121c5575050611fa6565b60006121d086612e94565b90506000816001600160a01b031663b5e4da23866040518263ffffffff1660e01b81526004016122009190614db1565b60006040518083038186803b15801561221857600080fd5b505afa15801561222c573d6000803e3d6000fd5b505050506040513d6000823e601f3d908101601f1916820160405261225491908101906148e5565b905060006122628783612ec4565b905061226e84826130cd565b86111561227a57600080fd5b5050505050505050565b826001600160a01b031663a9059cbb83836040518363ffffffff1660e01b815260040180836001600160a01b0316815260200182815260200192505050600060405180830381600087803b1580156122db57600080fd5b505af11580156122ef573d6000803e3d6000fd5b50505050611fa6612c08565b600080612306611587565b6000938452602052505060409020546001600160a01b031690565b600080600061233086856130df565b5091509150600061233f613175565b6001600160a01b0388166000908152602082905260408120919250612364858961137f565b90508060001315801561237d57506001600160601b0381105b61238657600080fd5b81546bffffffffffffffffffffffff19166001600160601b038216176fffffffffffffffffffffffffffffffff60601b1916600160601b6001600160801b0386160217825563ffffffff87106123db57600080fd5b50805463ffffffff8716600160e01b026001600160e01b03909116179055509150509392505050565b60e0840151600090156124c55773__MigrateIncentives_____________________63e0c01a72856124398860400151611ecb565b8860e001518961010001516040518563ffffffff1660e01b81526004016124639493929190614be7565b60206040518083038186803b15801561247b57600080fd5b505af415801561248f573d6000803e3d6000fd5b505050506040513d601f19601f820116820180604052508101906124b39190614ae5565b600060e0870181905261010087015290505b6125076125008661010001516124fa670de0b6b3a76400006124f4886124ee8c60400151611ecb565b90612bac565b90613182565b90612c75565b82906130cd565b905061251f670de0b6b3a76400006124f48486612bac565b85610100018181525050949350505050565b60008061253c6131a1565b6001600160a01b0384166000908152602082905260409020805491925090600160f81b900460ff1615612598576125716131ae565b6001600160a01b0380861660009081526020929092526040909120541692506104df915050565b6000925050506104df565b6125c273019be259bc299f3f653688c7655c87f998bc7bc18383612284565b5050565b600080610b8c6006611a98565b600063ffffffff821115611eda57600080fd5b60006001600160501b03821115611eda57600080fd5b600061260886836131bb565b90506105d186868661261a87866131f4565b61327b565b60006a7fffffffffffffffffffff19821280159061264857506a7fffffffffffffffffffff8213155b611eda57600080fd5b60008061268261267261266785602001516104ce565b60e086015190611e5c565b61012085015160400151906112db565b915061269e8360e00151608001518460c00151608001516132a8565b9050915091565b60008060006126d886610aab6126c38a60c001518b60e001516132be565b60c08b015151610aab90610aa58b6064610b3e565b905060006126f4828961010001516112db90919063ffffffff16565b9050600061270589604001516104ce565b9050808213156127235761271d82610aab8884610b3e565b95508091505b50939793965092945050505050565b61273a6141d2565b60006127446132e3565b61ffff93841660009081526020918252604090819020805464ffffffffff81168652600160281b81046001600160581b03908116948701949094526001820154841692860192909252600160d81b820463ffffffff166060860152600160801b9091049091166080840152600201546001600160501b0380821660a0850152600160501b8204811660c0850152600160a01b82041660e0840152600160f01b900460ff1661012c02909216610100820152919050565b60008061280683612e94565b6001600160a01b031663ef81f2166040518163ffffffff1660e01b81526004016040805180830381600087803b15801561283f57600080fd5b505af1158015612853573d6000803e3d6000fd5b505050506040513d601f19601f82011682018060405250810190611e7e9190614afd565b61287f6141d2565b600080600061288f8886896132f0565b60c08b019290925260e08a0192909252602089015191935091506128b390836130cd565b60208801526080870151600090156128e15760808801516128de906128d88982612c75565b906133fb565b90505b6129016128f6670de0b6b3a7640000836130cd565b60a08a015190613418565b60a089015250608087018690526000612918613435565b61ffff8a1660009081526020919091526040902054885163ffffffff600160a01b909204821692506129639161295290859085906130cd16565b8a606001518b61010001518a613442565b60608901525050928552509294909350915050565b60006129826132e3565b60008561ffff16815260200190815260200160002090506129a682600001516134d0565b815464ffffffffff191664ffffffffff9190911617815560a08201516129cb906125e6565b60028201805469ffffffffffffffffffff19166001600160501b039290921691909117905560c08201516129fe906125e6565b81600201600a6101000a8154816001600160501b0302191690836001600160501b03160217905550612a338260e001516125e6565b8160020160146101000a8154816001600160501b0302191690836001600160501b03160217905550612a6882602001516134e4565b81546001600160581b0391909116600160281b026fffffffffffffffffffffff0000000000199091161781556040820151612aa2906134e4565b6001820180546affffffffffffffffffffff19166001600160581b03929092169190911790556080820151612ad6906134e4565b81546001600160581b0391909116600160801b026affffffffffffffffffffff60801b199091161781556060820151612b0e906125d3565b815463ffffffff91909116600160d81b0263ffffffff60d81b199091161781558215612b5a576000612b3f84612133565b9050612b4b85826134fa565b612b58610fee8683612cba565b505b8361ffff167fef25641e225e493886510ca1ad6584fa7b442b9fea820a29d1de3ce27d270fd28360a001518460c001518560e00151604051612b9e93929190614c1b565b60405180910390a250505050565b600082612bbb57506000610b8c565b82820282848281612bc857fe5b04146112fd57600080fd5b600881901c60ff9091161b90565b6000808212612bf1575080610b8c565b8251602084015161147c9190610aab908590610b3e565b6000612c1261421e565b3d8015612c265760208114612c2f57600080fd5b60019250612c3a565b60206000833e815192505b50816125c2576040805162461bcd60e51b8152602060048201526005602482015264045524332360dc1b604482015290519081900360640190fd5b600082821115612c8457600080fd5b50900390565b60006305f5e10083604001511415612ca3575080610b8c565b60408301516112fd90610aab846305f5e100610b3e565b6000612cc4611559565b61ffff8416600090815260209190915260409081902054905163ad1c095d60e01b81526001600160a01b039091169150819063ad1c095d90612d0c9087908690600401614b72565b600060405180830381600087803b158015612d2657600080fd5b505af115801561227a573d6000803e3d6000fd5b6000612d446132e3565b61ffff8516600090815260209190915260409020805490915064ffffffffff164214612d6f57600080fd5b8054600090612d8e90600160281b90046001600160581b03168561137f565b8254909150600090612db090600160801b90046001600160581b03168561137f565b9050612dc3612dbe82611ecb565b6134e4565b83546001600160581b0391909116600160801b026affffffffffffffffffffff60801b19909116178355612df9612dbe83611ecb565b83546001600160581b0391909116600160281b026fffffffffffffffffffffff000000000019909116179092555050505050565b6000612e37612e87565b6001600160a01b038416600090815260208290526040902054909150612e65612e60828561137f565b611ecb565b6001600160a01b03909416600090815260209290925250604090209190915550565b600080610b8c6026611a98565b600080612e9f613531565b61ffff939093166000908152602093909352505060409020546001600160a01b031690565b6000805b82518110156130c6576000838281518110612edf57fe5b60200260200101519050600081606001516001600160a01b03166370a08231306040518263ffffffff1660e01b8152600401612f1b9190614b20565b60206040518083038186803b158015612f3357600080fd5b505afa158015612f47573d6000803e3d6000fd5b505050506040513d601f19601f82011682018060405250810190612f6b9190614ae5565b90506000612f79873061353e565b905060005b835151811015612fca57612fc284600001518281518110612f9b57fe5b6020026020010151600086602001518481518110612fb557fe5b60200260200101516135e8565b600101612f7e565b506000612fd7883061353e565b90506000612fe58284612c75565b90508085604001511115612ff857600080fd5b60608501516040516370a0823160e01b81526000916001600160a01b0316906370a082319061302b903090600401614b20565b60206040518083038186803b15801561304357600080fd5b505afa158015613057573d6000803e3d6000fd5b505050506040513d601f19601f8201168201806040525081019061307b9190614ae5565b90508481111561308a57600080fd5b61309986606001518683613725565b6130a388836130cd565b97506130b48a600001518585613725565b505060019094019350612ec892505050565b5092915050565b6000828201838110156112fd57600080fd5b60008060006130ed856137a2565b9194509250905080841180156131035750600081115b801561310f5750600083115b1561316e57600061311f866137fe565b505050915050600061314a6131416305f5e10084612bac90919063ffffffff16565b84880387613867565b905061315684826130cd565b93506001600160801b03841061316b57600080fd5b50505b9250925092565b600080610b8c6011611a98565b600080821161319057600080fd5b81838161319957fe5b049392505050565b600080610b8c6002611a98565b600080610b8c6012611a98565b6000808212156131ee576131e96001611af28560200151610aab876000015187610b3e90919063ffffffff16565b6112fd565b50919050565b600081831480613211575060008312158015613211575060008212155b1561321e57506000610b8c565b6000831315801561322f5750816000125b1561323b575081610b8c565b6000821315801561324c5750826000125b1561325a5761147c826104ce565b6000831315801561326c575060008213155b1561007b5761147c8383611c31565b80156105f8578351602085015160009161329a91610aab908590610b3e565b90506107e884848484613889565b60008183136132b757816112fd565b5090919050565b60006112fd8260200151610aab84600001518660200151610b3e90919063ffffffff16565b600080610b8c601d611a98565b60008060008060008061330389886139c6565b8951909550919350915060009061332a9061331f908b90612c75565b633b9aca0090612bac565b90506133646133596301da9c006133418585612bac565b8161334857fe5b670de0b6b3a76400009190046130cd565b60e08a015190613418565b965061338661337b6301da9c006133418785612bac565b60c08a015190613418565b95508183141561339d5750600093506133f2915050565b60006133bf6133b46301da9c006133418786612bac565b60e08b015190613418565b905060006133cd8983612c75565b90506133ea886124f4838d60400151612bac90919063ffffffff16565b965050505050505b93509350935093565b60006112fd61341284670de0b6b3a7640000612bac565b83613182565b60006112fd6134278484612bac565b670de0b6b3a7640000613182565b600080610b8c6025611a98565b600080831161345057600080fd5b8186111561345f5750836105d1565b600061346b8388612c75565b90508381111561347e57859150506105d1565b600061348a8286613a60565b9050600061349c633b9aca0083612c75565b90506134c3633b9aca006124f46134b38a85612bac565b6134bd8c87612bac565b906130cd565b9998505050505050505050565b600064ffffffffff821115611eda57600080fd5b60006001600160581b03821115611eda57600080fd5b600081121561350857600080fd5b6000613516610fee84613a73565b9050613522818361137f565b9050611fa6610fee8483613acc565b600080610b8c601f611a98565b600060038360600151600581111561355257fe5b141561356957506001600160a01b03811631610b8c565b82516040516370a0823160e01b81526001600160a01b03909116906370a0823190613598908590600401614b20565b60206040518083038186803b1580156135b057600080fd5b505afa1580156135c4573d6000803e3d6000fd5b505050506040513d601f19601f8201168201806040525081019061147c9190614ae5565b600080846001600160a01b031684846040518082805190602001908083835b602083106136265780518252601f199092019160209182019101613607565b6001836020036101000a03801982511681845116808217855250505050505090500191505060006040518083038185875af1925050503d8060008114613688576040519150601f19603f3d011682016040523d82523d6000602084013e61368d565b606091505b50915091508161369c82613b40565b90610e5f5760405162461bcd60e51b81526004018080602001828103825283818151815260200191508051906020019080838360005b838110156136ea5781810151838201526020016136d2565b50505050905090810190601f1680156137175780820380516001836020036101000a031916815260200191505b509250505060405180910390fd5b600061372f612e87565b6001600160a01b0385166000908152602082905260409020549091508381111561375857600080fd5b600061376f61376686612133565b611af286612133565b905061377e612e60838361137f565b6001600160a01b039096166000908152602093909352505060409020929092555050565b6000806000806137b0613175565b6001600160a01b0395909516600090815260209590955250506040909220546001600160601b03811693600160601b82046001600160801b03169350600160e01b90910463ffffffff169150565b60008060008060008061380f6131a1565b6001600160a01b039097166000908152602097909752505060409094205461ffff81169563ffffffff62010000830481169650600160301b830416945060ff600160501b8304169350600160581b90910460d81b9150565b6000611e7e826124f46301da9c0081886124ee89670de0b6b3a7640000612bac565b60006138936132e3565b61ffff8516600090815260209190915260409020805490915064ffffffffff1642146138be57600080fd5b8054600160f81b900460ff166138d357600080fd5b60018101546000906138ee906001600160581b03168561137f565b825490915060009061391090600160281b90046001600160581b03168561137f565b9050816009191280156139235750600082125b1561392d57600091505b8060091912801561393e5750600081125b15613947575060005b613953612dbe83611ecb565b6001840180546affffffffffffffffffffff19166001600160581b0392909216919091179055613985612dbe82611ecb565b83546001600160581b0391909116600160281b026fffffffffffffffffffffff0000000000199091161783556139bd87878688613c47565b50505050505050565b600080600080600085602001511115613a1357613a106139f78660c001518760200151612bac90919063ffffffff16565b60e08701516040880151613a0a91612bac565b90613a60565b90505b6000613a1e87613d21565b9050613a2a8183613d54565b94508115613a4157613a3e81866001613e07565b93505b60208601511561316b57613a558583613e7f565b925050509250925092565b60006112fd61341284633b9aca00612bac565b600080613a7e6125c6565b6001600160a01b03851660009081526020828152604080832061ffff8816845290915281208054600160a81b9004600a90810b900b9450919250831215613ac457600080fd5b505092915050565b6000811215613ada57600080fd5b6000613ae46125c6565b6001600160a01b03851660009081526020828152604080832061ffff881684529091529020909150613b158361261f565b8154600a9190910b6001600160581b0316600160a81b026001600160a81b0390911617905550505050565b6060604482511015613b76575060408051808201909152600d81526c14da5b195b9d0814995d995c9d609a1b60208201526104df565b6004820180519092602401906020811015613b9057600080fd5b8101908080516040519392919084640100000000821115613bb057600080fd5b908301906020820185811115613bc557600080fd5b8251640100000000811182820188101715613bdf57600080fd5b82525081516020918201929091019080838360005b83811015613c0c578181015183820152602001613bf4565b50505050905090810190601f168015613c395780820380516001836020036101000a031916815260200191505b506040525050509050919050565b6000613c51611559565b61ffff8516600090815260209190915260408120546001600160a01b03169150613c79613e98565b61ffff8616600090815260209190915260409081902054905163ad1c095d60e01b81526001600160a01b039091169150819063ad1c095d90613cc19089908790600401614b72565b600060405180830381600087803b158015613cdb57600080fd5b505af1158015613cef573d6000803e3d6000fd5b505060405163ad1c095d60e01b81526001600160a01b038516925063ad1c095d9150610e2c9089908890600401614b72565b613d2961423c565b6000613d33613ea5565b61ffff84166000908152602091909152604081205491506112fd9082613eb2565b600080836080015111613d6657600080fd5b633b9aca00821115613d7757600080fd5b82518211613d96578251604084015161147c91906124f4908590612bac565b82602001518211613dce57604083015183516020850151606086015161147c93926134bd92819003916124f491880390859003612bac565b6112fd83606001516134bd8560200151633b9aca00036124f4876060015188608001510388602001518803612bac90919063ffffffff16565b600080613e2660646124f48760e0015187612bac90919063ffffffff16565b90508460a00151811015613e3b575060a08401515b8460c00151811115613e4e575060c08401515b8215613e6557613e5e84826130cd565b9150610b36565b838111613e74578084036105d1565b506000949350505050565b60006112fd613e8e8484612bac565b633b9aca00613182565b600080610b8c6022611a98565b600080610b8c601b611a98565b613eba61423c565b6064633b9aca008360ff861660208110613ed057fe5b1a0281613ed957fe5b0481526064633b9aca008360ff861660010160208110613ef557fe5b1a0281613efe57fe5b04816020018181525050613f238260028560ff160160208110613f1d57fe5b1a613fd1565b60808201819052610100908360ff861660030160208110613f4057fe5b1a0281613f4957fe5b0460408201526080810151610100908360ff861660040160208110613f6a57fe5b1a0281613f7357fe5b0460608201526207a1208260ff851660050160208110613f8f57fe5b1a0260a0820152622625a08260ff851660060160208110613fac57fe5b1a0260c08201528160ff841660070160208110613fc557fe5b1a60e082015292915050565b60008160ff16609610613fec5760ff8216622625a0026104dc565b5060951960ff919091160162e4e1c00263165a0bc00190565b604051806101400160405280600061ffff168152602001600081526020016000815260200160008152602001600081526020016000815260200160008152602001600081526020016000815260200161405c6141b1565b905290565b6040805160c081018252600080825260208201819052918101829052606081018290526080810182905260a081019190915290565b60405180610160016040528060006001600160a01b031681526020016000815260200160008152602001600081526020016000815260200160006001600160d01b03191681526020016140e7614281565b81526020016140f4614281565b81526020016141016141b1565b815260200161410e6142b0565b8152600060209091015290565b6040518060800160405280606081526020016060815260200160008152602001600081525090565b6040518060c00160405280600061ffff168152602001600081526020016000815260200160008152602001600081526020016000600381111561405c57fe5b6040805160a0810182526000808252602082018190529181018290529060608201908152602001600081525090565b60405180606001604052806000815260200160008152602001600081525090565b6040518061012001604052806000815260200160008152602001600081526020016000815260200160008152602001600081526020016000815260200160008152602001600081525090565b60405180602001604052806001906020820280368337509192915050565b60405180610100016040528060008152602001600081526020016000815260200160008152602001600081526020016000815260200160008152602001600081525090565b6040518060a0016040528060008152602001600081526020016000815260200160008152602001600081525090565b604080516080810182526000808252602082015290810161410e6141b1565b80516104df81614dfc565b600082601f8301126142ea578081fd5b815160206142ff6142fa83614dde565b614dba565b828152818101908583018385028701840188101561431b578586fd5b855b8581101561434257815161433081614dfc565b8452928401929084019060010161431d565b5090979650505050505050565b6000601f8381840112614360578182fd5b825160206143706142fa83614dde565b82815281810190868301865b8581101561441557815189018a603f820112614396578889fd5b8581015167ffffffffffffffff8111156143ac57fe5b6143bd818a01601f19168801614dba565b81815260408d818486010111156143d2578b8cfd5b8b5b838110156143ef578481018201518382018b015289016143d4565b838111156143ff578c8a85850101525b505086525050928401929084019060010161437c565b509098975050505050505050565b600082601f830112614433578081fd5b815160206144436142fa83614dde565b8281528181019085830160c080860288018501891015614461578687fd5b865b868110156144f35781838b031215614479578788fd5b6040805183810181811067ffffffffffffffff8211171561449657fe5b825284516144a381614e22565b815284880151888201528185015191810191909152606080850151908201526080808501519082015260a0906144da828601614554565b9181019190915285529385019391810191600101614463565b509198975050505050505050565b80516104df81614e14565b80516001600160701b0319811681146104df57600080fd5b80516001600160f81b0319811681146104df57600080fd5b80516001600160d01b0319811681146104df57600080fd5b8051600481106104df57600080fd5b600060c08284031215614574578081fd5b6040516080810181811067ffffffffffffffff8211171561459157fe5b806040525080915082516145a481614e22565b8152602083810151908201526145bd8460408501614705565b604082015260a083015160608201525092915050565b600060a082840312156145e4578081fd5b60405160a0810181811067ffffffffffffffff8211171561460157fe5b806040525080915082518152602083015160208201526040830151604082015260608301516060820152608083015160808201525092915050565b6000610340828403121561464e578081fd5b61016061465a81614dba565b9150614665836142cf565b82526020830151602083015260408301516040830152606083015160608301526080830151608083015261469b60a0840161453c565b60a08301526146ad8460c085016145d3565b60c08301526146be848285016145d3565b60e0830152506146d2836102008401614705565b6101008201526146e6836102608401614563565b6101208201526146f96103208301614501565b61014082015292915050565b600060608284031215614716578081fd5b6040516060810181811067ffffffffffffffff8211171561473357fe5b80604052508091508251815260208301516020820152604083015160408201525092915050565b80356001600160801b03811681146104df57600080fd5b80516104df81614e22565b805160ff811681146104df57600080fd5b80356001600160601b03811681146104df57600080fd5b600080600080600060a086880312156147bb578081fd5b85356147c681614dfc565b945060208601356147d681614e22565b935060408601356147e681614e22565b92506147f46060870161475a565b91506148026080870161478d565b90509295509295909350565b600080600080600080600060e0888a031215614828578485fd5b873561483381614dfc565b9650602088013561484381614e22565b9550604088013561485381614e22565b94506148616060890161475a565b935061486f6080890161478d565b925060a088013561487f81614e14565b915060c088013561488f81614e14565b8091505092959891949750929550565b6000806000606084860312156148b3578081fd5b83356148be81614dfc565b925060208401356148ce81614e22565b91506148dc6040850161478d565b90509250925092565b600060208083850312156148f7578182fd5b825167ffffffffffffffff8082111561490e578384fd5b818501915085601f830112614921578384fd5b815161492f6142fa82614dde565b81815284810190848601875b848110156149e457815187016080818d03601f1901121561495a57898afd5b60408051608081018181108a8211171561497057fe5b8252828b015189811115614982578c8dfd5b6149908f8d838701016142da565b82525081830151898111156149a3578c8dfd5b6149b18f8d8387010161434f565b8c830152506060830151828201526149cb608084016142cf565b606082015286525050928701929087019060010161493b565b50909998505050505050505050565b6000806000838503610420811215614a09578182fd5b60c0811215614a16578182fd5b5060405160c0810167ffffffffffffffff8282108183111715614a3557fe5b816040528651915064ffffffffff82168214614a4f578384fd5b818352614a5e60208801614524565b6020840152614a6f6040880161477c565b6040840152614a8060608801614771565b6060840152614a916080880161450c565b6080840152614aa260a08801614501565b60a0840152829550614ab78860c0890161463c565b9450610400870151925080831115614acd578384fd5b5050614adb86828701614423565b9150509250925092565b600060208284031215614af6578081fd5b5051919050565b60008060408385031215614b0f578182fd5b505080516020909101519092909150565b6001600160a01b0391909116815260200190565b6001600160a01b0392831681529116602082015260400190565b6001600160a01b039384168152919092166020820152604081019190915260600190565b6001600160a01b03929092168252602082015260400190565b6001600160a01b0393909316835261ffff918216602084015216604082015260600190565b6001600160a01b0396909616865261ffff94909416602086015260408501929092526060840152608083015260a082015260c00190565b6001600160a01b0394909416845260208401929092526040830152606082015260800190565b918252602082015260400190565b9283526020830191909152604082015260600190565b6020808252600d908201526c139bc81b1bd8d85b081919589d609a1b604082015260600190565b6020808252600b908201526a4554482042616c616e636560a81b604082015260600190565b6020808252600f908201526e4e6f205072696d6520426f72726f7760881b604082015260600190565b60208082526007908201526609cde40c6c2e6d60cb1b604082015260600190565b6020808252600d908201526c139bc818dbdb1b185d195c985b609a1b604082015260600190565b6020808252601c908201527f446570726563617465643a2052656465656d20746f2063546f6b656e00000000604082015260600190565b6020808252600e908201526d1499595b9d1c985b9d0818d85b1b60921b604082015260600190565b6020808252600a90820152692732b390372a37b5b2b760b11b604082015260600190565b61ffff929092168252602082015260400190565b61ffff958616815293909416602084015260408301919091526060820152608081019190915260a00190565b90815260200190565b60405181810167ffffffffffffffff81118282101715614dd657fe5b604052919050565b600067ffffffffffffffff821115614df257fe5b5060209081020190565b6001600160a01b0381168114614e1157600080fd5b50565b8015158114614e1157600080fd5b61ffff81168114614e1157600080fdfea26469706673582212200cdf3a9f63fc71d0cc9d825fe1e43371fdf90d3d77c038984fed042a9c7f803a64736f6c63430007060033","bytecodeSha1":"84c7572d54337b81d5450d8ee2615d63263fb6bc","compiler":{"evm_version":"istanbul","optimizer":{"enabled":true,"runs":200},"version":"0.7.6+commit.7338295f"},"contractName":"LiquidateCurrencyAction","deployedBytecode":"60806040526004361061007b5760003560e01c80638da5cb5b1161004e5780638da5cb5b146101035780639a600eeb14610118578063c4c96dae14610138578063e3e7cb4f1461015b5761007b565b806324a3d622146100805780632d10e6eb146100ab5780636633af39146100cc57806382463367146100ee575b600080fd5b34801561008c57600080fd5b5061009561017b565b6040516100a29190614b20565b60405180910390f35b6100be6100b936600461489f565b61018a565b6040516100a2929190614c0d565b6100df6100da36600461480e565b610280565b6040516100a293929190614c1b565b3480156100fa57600080fd5b50610095610349565b34801561010f57600080fd5b50610095610358565b34801561012457600080fd5b506100df6101333660046147a4565b61036f565b34801561014457600080fd5b5061014d6103e6565b6040516100a2929190614b34565b34801561016757600080fd5b506100be61017636600461489f565b610414565b6002546001600160a01b031681565b6000806002600a5414156101b95760405162461bcd60e51b81526004016101b090614d25565b60405180910390fd5b6002600a55600080806101ce88888884610475565b92509250925060006101ef338a8a876101ea8860a001516104ce565b6104e4565b90506101fc838a846105da565b336001600160a01b0316896001600160a01b03167f4596c3b6545e97eb42b719442dd0afa8eb7680f3ff72c762763d4b292ee26ea78a87604051610241929190614d71565b60405180910390a361025381336105fe565b61025d828a6105fe565b8361026b8460a001516104ce565b6001600a55909a909950975050505050505050565b60008060006002600a5414156102a85760405162461bcd60e51b81526004016101b090614d25565b6002600a55600080806102bf8d8d8d8d8d8661071b565b92509250925060006102d68e8e8e87878e8e610776565b90506102e48e8e84876107c2565b6102ef838f846107ef565b6102fb8e8e868661080c565b610305828f6105fe565b61030f81336105fe565b8361031d84606001516104ce565b61032a8560a001516104ce565b965096509650505050506001600a819055509750975097945050505050565b6001546001600160a01b031681565b60005464010000000090046001600160a01b031681565b60008060006002600a5414156103975760405162461bcd60e51b81526004016101b090614d25565b6002600a556000806103ae8a8a8a8a8a600161071b565b5091509150816103c182606001516104ce565b6103ce8360a001516104ce565b6001600a55919c909b50909950975050505050505050565b73__$841fddfe32830bb6dbc3a02d7f16c53722$__73__$b21a4dc043b77aa57922ad9143a3cb040e$__9091565b6000806002600a54141561043a5760405162461bcd60e51b81526004016101b090614d25565b6002600a5560008061044f8787876001610475565b5091509150816104628260a001516104ce565b6001600a55909890975095505050505050565b600061047f614005565b610487614061565b61048f614096565b61049b88886000610881565b5090925090506104ad838989856109dd565b8415156101408201526104c18684836109f8565b9350509450945094915050565b60006104dc60001983610b3e565b90505b919050565b6104ec614061565b60006104fb8561ffff16610b92565b9050600061050888610ba5565b9050610512614005565b61051e818a89856109dd565b6000861361052b57600080fd5b8260200151156105845785816020015112158015610555575060208201516001600160f81b031916155b6105715760405162461bcd60e51b81526004016101b090614ca6565b61057a866104ce565b6060820152610599565b6105978988888461012001516000610c53565b505b6105a589898989610cb1565b60008513156105ba576105ba888a8988610d57565b60a081018590526105cc818a846105da565b509150505b95945050505050565b6080830151156105e957600080fd5b6105f883838360006001610e67565b50505050565b600061060861101d565b6001600160a01b03831660008181526020838152604080832088518154938a01518a84015160608c015160808d015160a08e015164ffffffffff1990981664ffffffffff9095169490941765ff00000000001916600160281b60f89490941c939093029290921766ff0000000000001916600160301b60ff909216919091021768ffff000000000000001916600160381b61ffff90921691909102177affffffffffffffffffffffffffffffffffff0000000000000000001916600160481b60709290921c919091021760ff60d81b1916600160d81b93151593909302929092179091555192935090917f6bd4b121bca854a191536a2ca891155c42ee2fb23f307fb34e8bc65cfcb5412e9190a2505050565b6000610725614005565b61072d614061565b610735614096565b6107408a8a8a610881565b509092509050610752838b8a856109dd565b8415156101408201526107678787858461102a565b93505096509650969350505050565b61077e614061565b61078c3389898860006104e4565b90506107b633828a896107a289606001516104ce565b6107af8a60a001516104ce565b898961113f565b50979650505050505050565b6107ca614005565b6107d6818686866109dd565b606081018290526107e88186856105da565b5050505050565b6080830151156107fe57600080fd5b6105f8838383600080610e67565b336001600160a01b0316846001600160a01b03167f88fff2f00941b1272999212de454ee8d15f54d132723b35e3423ef742109861c8584600001518661085587606001516104ce565b6108628860a001516104ce565b604051610873959493929190614d85565b60405180910390a350505050565b610889614061565b610891614096565b61089961411b565b336001600160a01b03871614156108af57600080fd5b61ffff85166108bd57600080fd5b8461ffff168461ffff1614156108d257600080fd5b600080600073__$841fddfe32830bb6dbc3a02d7f16c53722$__63451d958f8a8a8a6040518463ffffffff1660e01b815260040161091293929190614b8b565b60006040518083038186803b15801561092a57600080fd5b505af415801561093e573d6000803e3d6000fd5b505050506040513d6000823e601f3d908101601f1916820160405261096691908101906149f3565b91945092509050610977838a6105fe565b6040805160808101825282815281516000808252602082810190945292820190836109b8565b6109a5614143565b81526020019060019003908161099d5790505b5081526000602082015292516040909301929092525091989097509095509350505050565b6109e6826111db565b6101208501526105f8848484846111ed565b6000816040015160001415610a0c57600080fd5b6000610a34610a28846040015185602001518660c00151611295565b610100850151906112db565b9050600083608001511315610b365760a0830151600090600381901a90821a11610a5d57600080fd5b60a08401516080850151600382901a60009290921a9190910360ff1690610ab190610a889083610b3e565b60a08701516040890151610aab9160031a90610aa5908890610b3e565b90610b3e565b90611304565b915050610acc818660400151886001600160601b0316611335565b9050610ad7816104ce565b60a0868101919091526040860151908501516080860151600092610b10929091610aab91600381901a918391610aa5908990891a610b3e565b6060870151909150610b22908261137f565b6060870152610b31848261137f565b935050505b509392505050565b818102600019831415610b6e57811580610b60575082828281610b5d57fe5b05145b610b6957600080fd5b610b8c565b821580610b83575081838281610b8057fe5b05145b610b8c57600080fd5b92915050565b610b9a614182565b6104dc826001611395565b610bad614061565b6000610bb761101d565b6001600160a01b03841660009081526020918252604090819020815160c081018352905464ffffffffff811682526001600160f81b0319600160281b820460f81b169382019390935260ff600160301b840481169282019290925261ffff600160381b84041660608201526001600160701b0319600160481b840460701b166080820152600160d81b90920416151560a0820152915050919050565b600083610c62575060006105d1565b60008413610c6f57600080fd5b6000610c7e8661ffff16610b92565b90506000610c9582610c90878961142f565b61145b565b9050610ca48888838888611497565b5098975050505050505050565b6000610cbb611559565b61ffff8416600090815260209190915260408120546001600160a01b03169150821215610ce6579293925b806001600160a01b03166323de66518686610d0086611566565b6040518463ffffffff1660e01b8152600401610d1e93929190614b4e565b600060405180830381600087803b158015610d3857600080fd5b505af1158015610d4c573d6000803e3d6000fd5b505050505050505050565b6000610d61611587565b61ffff8416600090815260209190915260408120546001600160a01b03169150821215610d8c579293925b6000610d9783611566565b9050610da284611594565b15610dfc576001600160a01b03808616908716337fc3d58168c5ae7397731d063d5bbf3d657854427343f4c083240f7aacaa2d0f62610de0886115b1565b85604051610def929190614c0d565b60405180910390a4610e5f565b6040516323de665160e01b81526001600160a01b038316906323de665190610e2c90899089908690600401614b4e565b600060405180830381600087803b158015610e4657600080fd5b505af1158015610e5a573d6000803e3d6000fd5b505050505b505050505050565b600080610e8486886000015189608001518a6101200151886115c7565b91506000610ea38860800151896060015161137f90919063ffffffff16565b9050838015610eb25750600081125b8015610ecd57506020880151600090610ecb908361137f565b125b15610ef3578560a00151610ef35760405162461bcd60e51b81526004016101b090614c7d565b8015610f12576020880151610f08908261137f565b6020890152600191505b60a0880151151580610f27575060c088015115155b15610f90576000610f578960c00151610f518b60a001518c6040015161137f90919063ffffffff16565b9061137f565b90506000811215610f7a5760405162461bcd60e51b81526004016101b090614d4d565b610f8589898361166a565b506040890152600191505b8115610fbf57610fbf8789600001518a602001518b604001518c60e001518d61010001518e6101200151611757565b87516020890151610fec9161ffff1690151580610fdf575060408a015115155b889190600160fe1b611892565b60008860200151121561101257602086018051600160f91b176001600160f81b03191690525b505095945050505050565b600080610b8c6001611a98565b60008082604001511261104f5760405162461bcd60e51b81526004016101b090614c31565b60008260600151136110735760405162461bcd60e51b81526004016101b090614cc7565b60008061108984886001600160801b0316611ab1565b9150915060008290506000866020015113156110e557808660200151126110c0576110b3816104ce565b60608701525060006110e5565b6110cd86602001516104ce565b606087015260208601516110e2908290611b57565b90505b6000811380156110f9575060008560800151135b15611116576111138686838a6001600160601b0316611b73565b90505b600081131561113457606086015161112e9082611c31565b60608701525b509695505050505050565b611147614061565b816111645760405162461bcd60e51b81526004016101b090614cee565b61116c614005565b611178818b898c6109dd565b60608101869052851561119157611191888b8989610cb1565b84156111a3576111a3888b8988610d57565b83156111b8576111b2866104ce565b60808201525b60a081018590526111cc818b8b6000611c47565b50979998505050505050505050565b6111e36141b1565b6104dc8242611c57565b8161ffff1660001080156112075750613fff61ffff831611155b61121057600080fd5b61ffff8216808552611223908290611d18565b15611252576112388383866101200151611da2565b61010088015260e087015260408601526020850152611270565b6000602085018190526040850181905260e085018190526101008501525b50506000606083018190526080830181905260a0830181905260c09092019190915250565b600080600085136112aa5782604001516112b0565b82606001515b9050600081136112bf57600080fd5b6105d181610aab6064610aa56112d4896104ce565b8890611e5c565b81516000906112fd90610aab846ec097ce7bc90715b34b9f1000000000610b3e565b9392505050565b60008160001914801561131a5750600160ff1b83145b1561132457600080fd5b81838161132d57fe5b059392505050565b6000806113486064610aab866028610b3e565b905084848113156113565750835b818612156113615750805b60008413801561137057508381135b156105d1575091949350505050565b81810182811215600083121514610b8c57600080fd5b61139d614182565b60006113a7611e86565b6000858152602082815260408083208715158452825291829020825160a08101845281546001600160a01b038116825260ff600160a01b82048116151594830194909452600160b01b81048416600a0a9482019490945293945092916060830191600160a81b90910416600581111561141c57fe5b8152600060209091015295945050505050565b60006112fd6ec097ce7bc90715b34b9f1000000000610aab856000015185610b3e90919063ffffffff16565b60006305f5e100836040015112156114835761147c6001610f518585611e93565b9050610b8c565b6112fd8361149284600161137f565b611e93565b60008060006114a586611ecb565b9050806114b957600080925092505061154f565b60006114c88861ffff16610b92565b90506003816060015160058111156114dc57fe5b141561152357348210156114fc576114f78983340387611ede565b61151b565b34821461151b5760405162461bcd60e51b81526004016101b090614c58565b86935061153d565b61153a61153582600001518b85611fab565b612133565b93505b61154a898986848a612149565b925050505b9550959350505050565b600080610b8c6021611a98565b60008082121561158057611579826104ce565b90506104df565b50806104df565b600080610b8c6003611a98565b6000466001811480156112fd57505050600461ffff909116111590565b600c60309190911b67ffff000000000000161790565b6000836115d6575060006105d1565b600084126115e357600080fd5b60006115f28661ffff16610b92565b905061160281611492868861142f565b9150600061160f836104ce565b905061161c878383612190565b60038260600151600581111561162e57fe5b14156116445761163f888286611ede565b611651565b8151611651908983612284565b61165e8888858589612149565b50505095945050505050565b8251600090429082906116809061ffff166122fb565b90506000611693828860c0015185612321565b90506116a187838388612404565b935060006116ae83612531565b90506001600160a01b0381161561173c57806001600160a01b0316631d684dd2888a600001516116e18c60400151611ecb565b8a8d60c001518b6040518763ffffffff1660e01b815260040161170996959493929190614bb0565b600060405180830381600087803b15801561172357600080fd5b505af1158015611737573d6000803e3d6000fd5b505050505b841561174c5761174c87866125a3565b505050509392505050565b60006117616125c6565b6001600160a01b03891660009081526020828152604080832061ffff8c1684529091529020909150846117c95766ffffffffffffff8411156117a257600080fd5b805466ffffffffffffff60701b1916600160701b66ffffffffffffff8616021781556117e3565b8054600160501b900463ffffffff1685146117e357600080fd5b6117ec856125d3565b815463ffffffff91909116600160501b0263ffffffff60501b1990911617815561181d61181887611ecb565b6125e6565b815469ffffffffffffffffffff19166001600160501b0391909116178082556118639061185e9085908c908c90600160a81b9004600a90810b900b8c6125fc565b61261f565b8154600a9190910b6001600160581b0316600160a81b026001600160a81b039091161790555050505050505050565b8260001080156118a45750613fff8311155b6118ad57600080fd5b8180156118c1575082846060015161ffff16145b156118cb576105f8565b6080840151600090815b6001600160701b0319821615611a4d5760f082901c613fff1686811480156118fa5750855b1561193257506080870180516001600160f01b0319861660109093029290921c919091176001600160701b0319169052506105f89050565b868114801561193f575085155b1561199b576001600160f01b03198516199290921691600360fe1b8316611979576010836dffffffffffffffffffffffffffff1916901b92505b506001600160701b031991821660109091021c919091171660808501526105f8565b86811180156119a75750855b15611a01576080888101516001600160f01b031960f08a901b88178116601086021c9690961795911b16156119db57600080fd5b506001600160701b03199182166001919091016010021c919091171660808501526105f8565b8681118015611a0e575085155b15611a1c57505050506105f8565b506001600160f01b0319821660108281029190911c93909317929190911b6001600160801b031916906001016118d5565b84611a5a575050506105f8565b60098110611a6757600080fd5b6001600160f01b031960f087901b85171660109091021c919091176001600160701b03191660808601525050505050565b6000620f4240826026811115611aaa57fe5b0192915050565b600080600080611ac086612651565b915091506000611af88760e0015160600151611af284610aab60648c60c0015160400151610b3e90919063ffffffff16565b90611c31565b9050611b0981610aab856064610b3e565b945050611b1b84876060015187611335565b93506000611b3b858861012001516040015161142f90919063ffffffff16565b9050611b49878383886126a5565b909890975095505050505050565b6000611b638383611c31565b90506000811215610b8c57600080fd5b60a0830151608084015160009180831a9160039190911a908390611bb690611b9b9085610b3e565b610aab84610aa58c604001518b610b3e90919063ffffffff16565b9050600085138015611bc757508481135b15611bcf5750835b8760400151811315611be2575060408701515b611beb816104ce565b8860a0018181525050611c25611c1e8960400151610aab85610aab88610aa58e6080015189610b3e90919063ffffffff16565b8790611b57565b98975050505050505050565b80820382811315600083121514610b8c57600080fd5b60006105d1858585856001610e67565b611c5f6141b1565b6000611c6a84612732565b90508281600001511015611ca957600080611c84866127fa565b9050611c9286848388612877565b9093509150611ca2868385612978565b5050611cb6565b80518314611cb657600080fd5b6040518060600160405280611cdf6115358460a001518560c00151612bac90919063ffffffff16565b8152602001611d026115358460a001518560e00151612bac90919063ffffffff16565b8152602001826060015181525091505092915050565b60008115801590611d2b5750613fff8211155b611d3457600080fd5b6080830151606084015161ffff16831415611d53576001915050610b8c565b6001600160701b0319811615611d985760f081901c613fff1683811415611d855750600160fe1b908116149050610b8c565b5060101b6001600160801b031916611d53565b5060009392505050565b6000806000806000611db26125c6565b6001600160a01b03891660009081526020828152604080832061ffff8c168452909152902080546001600160501b0381169650600160501b900463ffffffff1694509091508315611e1f578054611e1890600160701b900466ffffffffffffff16612bd3565b9250611e34565b8054600160701b900466ffffffffffffff1692505b8054611e4f908890600160a81b9004600a90810b900b612be1565b9550505093509350935093565b600080611e7e8460200151610aab866000015186610b3e90919063ffffffff16565b949350505050565b600080610b8c6007611a98565b60006305f5e10083604001511415611eac575080610b8c565b6112fd6305f5e100610aab856040015185610b3e90919063ffffffff16565b600080821215611eda57600080fd5b5090565b8015611f70577382af49447d8a07e3bd95bd0d56f35241523fbab16001600160a01b031663d0e30db0836040518263ffffffff1660e01b81526004016000604051808303818588803b158015611f3357600080fd5b505af1158015611f47573d6000803e3d6000fd5b5050505050611f6b7382af49447d8a07e3bd95bd0d56f35241523fbab18484612284565b611fa6565b6040516001600160a01b0384169083156108fc029084906000818181858888f193505050501580156105f8573d6000803e3d6000fd5b505050565b600080846001600160a01b03166370a08231306040518263ffffffff1660e01b815260040180826001600160a01b0316815260200191505060206040518083038186803b158015611ffb57600080fd5b505afa15801561200f573d6000803e3d6000fd5b505050506040513d602081101561202557600080fd5b5051604080516323b872dd60e01b81526001600160a01b038781166004830152306024830152604482018790529151929350908716916323b872dd9160648082019260009290919082900301818387803b15801561208257600080fd5b505af1158015612096573d6000803e3d6000fd5b505050506120a2612c08565b6000856001600160a01b03166370a08231306040518263ffffffff1660e01b815260040180826001600160a01b0316815260200191505060206040518083038186803b1580156120f157600080fd5b505afa158015612105573d6000803e3d6000fd5b505050506040513d602081101561211b57600080fd5b505190506121298183612c75565b9695505050505050565b60006001600160ff1b03821115611eda57600080fd5b6000806121568486612c8a565b905061216283826112db565b915061216f878784612cba565b61217a868383612d3a565b83516121869086612e2d565b5095945050505050565b600061219a612e87565b83516001600160a01b03166000908152602082905260409020549091508083116121c5575050611fa6565b60006121d086612e94565b90506000816001600160a01b031663b5e4da23866040518263ffffffff1660e01b81526004016122009190614db1565b60006040518083038186803b15801561221857600080fd5b505afa15801561222c573d6000803e3d6000fd5b505050506040513d6000823e601f3d908101601f1916820160405261225491908101906148e5565b905060006122628783612ec4565b905061226e84826130cd565b86111561227a57600080fd5b5050505050505050565b826001600160a01b031663a9059cbb83836040518363ffffffff1660e01b815260040180836001600160a01b0316815260200182815260200192505050600060405180830381600087803b1580156122db57600080fd5b505af11580156122ef573d6000803e3d6000fd5b50505050611fa6612c08565b600080612306611587565b6000938452602052505060409020546001600160a01b031690565b600080600061233086856130df565b5091509150600061233f613175565b6001600160a01b0388166000908152602082905260408120919250612364858961137f565b90508060001315801561237d57506001600160601b0381105b61238657600080fd5b81546bffffffffffffffffffffffff19166001600160601b038216176fffffffffffffffffffffffffffffffff60601b1916600160601b6001600160801b0386160217825563ffffffff87106123db57600080fd5b50805463ffffffff8716600160e01b026001600160e01b03909116179055509150509392505050565b60e0840151600090156124c55773__$b21a4dc043b77aa57922ad9143a3cb040e$__63e0c01a72856124398860400151611ecb565b8860e001518961010001516040518563ffffffff1660e01b81526004016124639493929190614be7565b60206040518083038186803b15801561247b57600080fd5b505af415801561248f573d6000803e3d6000fd5b505050506040513d601f19601f820116820180604052508101906124b39190614ae5565b600060e0870181905261010087015290505b6125076125008661010001516124fa670de0b6b3a76400006124f4886124ee8c60400151611ecb565b90612bac565b90613182565b90612c75565b82906130cd565b905061251f670de0b6b3a76400006124f48486612bac565b85610100018181525050949350505050565b60008061253c6131a1565b6001600160a01b0384166000908152602082905260409020805491925090600160f81b900460ff1615612598576125716131ae565b6001600160a01b0380861660009081526020929092526040909120541692506104df915050565b6000925050506104df565b6125c273019be259bc299f3f653688c7655c87f998bc7bc18383612284565b5050565b600080610b8c6006611a98565b600063ffffffff821115611eda57600080fd5b60006001600160501b03821115611eda57600080fd5b600061260886836131bb565b90506105d186868661261a87866131f4565b61327b565b60006a7fffffffffffffffffffff19821280159061264857506a7fffffffffffffffffffff8213155b611eda57600080fd5b60008061268261267261266785602001516104ce565b60e086015190611e5c565b61012085015160400151906112db565b915061269e8360e00151608001518460c00151608001516132a8565b9050915091565b60008060006126d886610aab6126c38a60c001518b60e001516132be565b60c08b015151610aab90610aa58b6064610b3e565b905060006126f4828961010001516112db90919063ffffffff16565b9050600061270589604001516104ce565b9050808213156127235761271d82610aab8884610b3e565b95508091505b50939793965092945050505050565b61273a6141d2565b60006127446132e3565b61ffff93841660009081526020918252604090819020805464ffffffffff81168652600160281b81046001600160581b03908116948701949094526001820154841692860192909252600160d81b820463ffffffff166060860152600160801b9091049091166080840152600201546001600160501b0380821660a0850152600160501b8204811660c0850152600160a01b82041660e0840152600160f01b900460ff1661012c02909216610100820152919050565b60008061280683612e94565b6001600160a01b031663ef81f2166040518163ffffffff1660e01b81526004016040805180830381600087803b15801561283f57600080fd5b505af1158015612853573d6000803e3d6000fd5b505050506040513d601f19601f82011682018060405250810190611e7e9190614afd565b61287f6141d2565b600080600061288f8886896132f0565b60c08b019290925260e08a0192909252602089015191935091506128b390836130cd565b60208801526080870151600090156128e15760808801516128de906128d88982612c75565b906133fb565b90505b6129016128f6670de0b6b3a7640000836130cd565b60a08a015190613418565b60a089015250608087018690526000612918613435565b61ffff8a1660009081526020919091526040902054885163ffffffff600160a01b909204821692506129639161295290859085906130cd16565b8a606001518b61010001518a613442565b60608901525050928552509294909350915050565b60006129826132e3565b60008561ffff16815260200190815260200160002090506129a682600001516134d0565b815464ffffffffff191664ffffffffff9190911617815560a08201516129cb906125e6565b60028201805469ffffffffffffffffffff19166001600160501b039290921691909117905560c08201516129fe906125e6565b81600201600a6101000a8154816001600160501b0302191690836001600160501b03160217905550612a338260e001516125e6565b8160020160146101000a8154816001600160501b0302191690836001600160501b03160217905550612a6882602001516134e4565b81546001600160581b0391909116600160281b026fffffffffffffffffffffff0000000000199091161781556040820151612aa2906134e4565b6001820180546affffffffffffffffffffff19166001600160581b03929092169190911790556080820151612ad6906134e4565b81546001600160581b0391909116600160801b026affffffffffffffffffffff60801b199091161781556060820151612b0e906125d3565b815463ffffffff91909116600160d81b0263ffffffff60d81b199091161781558215612b5a576000612b3f84612133565b9050612b4b85826134fa565b612b58610fee8683612cba565b505b8361ffff167fef25641e225e493886510ca1ad6584fa7b442b9fea820a29d1de3ce27d270fd28360a001518460c001518560e00151604051612b9e93929190614c1b565b60405180910390a250505050565b600082612bbb57506000610b8c565b82820282848281612bc857fe5b04146112fd57600080fd5b600881901c60ff9091161b90565b6000808212612bf1575080610b8c565b8251602084015161147c9190610aab908590610b3e565b6000612c1261421e565b3d8015612c265760208114612c2f57600080fd5b60019250612c3a565b60206000833e815192505b50816125c2576040805162461bcd60e51b8152602060048201526005602482015264045524332360dc1b604482015290519081900360640190fd5b600082821115612c8457600080fd5b50900390565b60006305f5e10083604001511415612ca3575080610b8c565b60408301516112fd90610aab846305f5e100610b3e565b6000612cc4611559565b61ffff8416600090815260209190915260409081902054905163ad1c095d60e01b81526001600160a01b039091169150819063ad1c095d90612d0c9087908690600401614b72565b600060405180830381600087803b158015612d2657600080fd5b505af115801561227a573d6000803e3d6000fd5b6000612d446132e3565b61ffff8516600090815260209190915260409020805490915064ffffffffff164214612d6f57600080fd5b8054600090612d8e90600160281b90046001600160581b03168561137f565b8254909150600090612db090600160801b90046001600160581b03168561137f565b9050612dc3612dbe82611ecb565b6134e4565b83546001600160581b0391909116600160801b026affffffffffffffffffffff60801b19909116178355612df9612dbe83611ecb565b83546001600160581b0391909116600160281b026fffffffffffffffffffffff000000000019909116179092555050505050565b6000612e37612e87565b6001600160a01b038416600090815260208290526040902054909150612e65612e60828561137f565b611ecb565b6001600160a01b03909416600090815260209290925250604090209190915550565b600080610b8c6026611a98565b600080612e9f613531565b61ffff939093166000908152602093909352505060409020546001600160a01b031690565b6000805b82518110156130c6576000838281518110612edf57fe5b60200260200101519050600081606001516001600160a01b03166370a08231306040518263ffffffff1660e01b8152600401612f1b9190614b20565b60206040518083038186803b158015612f3357600080fd5b505afa158015612f47573d6000803e3d6000fd5b505050506040513d601f19601f82011682018060405250810190612f6b9190614ae5565b90506000612f79873061353e565b905060005b835151811015612fca57612fc284600001518281518110612f9b57fe5b6020026020010151600086602001518481518110612fb557fe5b60200260200101516135e8565b600101612f7e565b506000612fd7883061353e565b90506000612fe58284612c75565b90508085604001511115612ff857600080fd5b60608501516040516370a0823160e01b81526000916001600160a01b0316906370a082319061302b903090600401614b20565b60206040518083038186803b15801561304357600080fd5b505afa158015613057573d6000803e3d6000fd5b505050506040513d601f19601f8201168201806040525081019061307b9190614ae5565b90508481111561308a57600080fd5b61309986606001518683613725565b6130a388836130cd565b97506130b48a600001518585613725565b505060019094019350612ec892505050565b5092915050565b6000828201838110156112fd57600080fd5b60008060006130ed856137a2565b9194509250905080841180156131035750600081115b801561310f5750600083115b1561316e57600061311f866137fe565b505050915050600061314a6131416305f5e10084612bac90919063ffffffff16565b84880387613867565b905061315684826130cd565b93506001600160801b03841061316b57600080fd5b50505b9250925092565b600080610b8c6011611a98565b600080821161319057600080fd5b81838161319957fe5b049392505050565b600080610b8c6002611a98565b600080610b8c6012611a98565b6000808212156131ee576131e96001611af28560200151610aab876000015187610b3e90919063ffffffff16565b6112fd565b50919050565b600081831480613211575060008312158015613211575060008212155b1561321e57506000610b8c565b6000831315801561322f5750816000125b1561323b575081610b8c565b6000821315801561324c5750826000125b1561325a5761147c826104ce565b6000831315801561326c575060008213155b1561007b5761147c8383611c31565b80156105f8578351602085015160009161329a91610aab908590610b3e565b90506107e884848484613889565b60008183136132b757816112fd565b5090919050565b60006112fd8260200151610aab84600001518660200151610b3e90919063ffffffff16565b600080610b8c601d611a98565b60008060008060008061330389886139c6565b8951909550919350915060009061332a9061331f908b90612c75565b633b9aca0090612bac565b90506133646133596301da9c006133418585612bac565b8161334857fe5b670de0b6b3a76400009190046130cd565b60e08a015190613418565b965061338661337b6301da9c006133418785612bac565b60c08a015190613418565b95508183141561339d5750600093506133f2915050565b60006133bf6133b46301da9c006133418786612bac565b60e08b015190613418565b905060006133cd8983612c75565b90506133ea886124f4838d60400151612bac90919063ffffffff16565b965050505050505b93509350935093565b60006112fd61341284670de0b6b3a7640000612bac565b83613182565b60006112fd6134278484612bac565b670de0b6b3a7640000613182565b600080610b8c6025611a98565b600080831161345057600080fd5b8186111561345f5750836105d1565b600061346b8388612c75565b90508381111561347e57859150506105d1565b600061348a8286613a60565b9050600061349c633b9aca0083612c75565b90506134c3633b9aca006124f46134b38a85612bac565b6134bd8c87612bac565b906130cd565b9998505050505050505050565b600064ffffffffff821115611eda57600080fd5b60006001600160581b03821115611eda57600080fd5b600081121561350857600080fd5b6000613516610fee84613a73565b9050613522818361137f565b9050611fa6610fee8483613acc565b600080610b8c601f611a98565b600060038360600151600581111561355257fe5b141561356957506001600160a01b03811631610b8c565b82516040516370a0823160e01b81526001600160a01b03909116906370a0823190613598908590600401614b20565b60206040518083038186803b1580156135b057600080fd5b505afa1580156135c4573d6000803e3d6000fd5b505050506040513d601f19601f8201168201806040525081019061147c9190614ae5565b600080846001600160a01b031684846040518082805190602001908083835b602083106136265780518252601f199092019160209182019101613607565b6001836020036101000a03801982511681845116808217855250505050505090500191505060006040518083038185875af1925050503d8060008114613688576040519150601f19603f3d011682016040523d82523d6000602084013e61368d565b606091505b50915091508161369c82613b40565b90610e5f5760405162461bcd60e51b81526004018080602001828103825283818151815260200191508051906020019080838360005b838110156136ea5781810151838201526020016136d2565b50505050905090810190601f1680156137175780820380516001836020036101000a031916815260200191505b509250505060405180910390fd5b600061372f612e87565b6001600160a01b0385166000908152602082905260409020549091508381111561375857600080fd5b600061376f61376686612133565b611af286612133565b905061377e612e60838361137f565b6001600160a01b039096166000908152602093909352505060409020929092555050565b6000806000806137b0613175565b6001600160a01b0395909516600090815260209590955250506040909220546001600160601b03811693600160601b82046001600160801b03169350600160e01b90910463ffffffff169150565b60008060008060008061380f6131a1565b6001600160a01b039097166000908152602097909752505060409094205461ffff81169563ffffffff62010000830481169650600160301b830416945060ff600160501b8304169350600160581b90910460d81b9150565b6000611e7e826124f46301da9c0081886124ee89670de0b6b3a7640000612bac565b60006138936132e3565b61ffff8516600090815260209190915260409020805490915064ffffffffff1642146138be57600080fd5b8054600160f81b900460ff166138d357600080fd5b60018101546000906138ee906001600160581b03168561137f565b825490915060009061391090600160281b90046001600160581b03168561137f565b9050816009191280156139235750600082125b1561392d57600091505b8060091912801561393e5750600081125b15613947575060005b613953612dbe83611ecb565b6001840180546affffffffffffffffffffff19166001600160581b0392909216919091179055613985612dbe82611ecb565b83546001600160581b0391909116600160281b026fffffffffffffffffffffff0000000000199091161783556139bd87878688613c47565b50505050505050565b600080600080600085602001511115613a1357613a106139f78660c001518760200151612bac90919063ffffffff16565b60e08701516040880151613a0a91612bac565b90613a60565b90505b6000613a1e87613d21565b9050613a2a8183613d54565b94508115613a4157613a3e81866001613e07565b93505b60208601511561316b57613a558583613e7f565b925050509250925092565b60006112fd61341284633b9aca00612bac565b600080613a7e6125c6565b6001600160a01b03851660009081526020828152604080832061ffff8816845290915281208054600160a81b9004600a90810b900b9450919250831215613ac457600080fd5b505092915050565b6000811215613ada57600080fd5b6000613ae46125c6565b6001600160a01b03851660009081526020828152604080832061ffff881684529091529020909150613b158361261f565b8154600a9190910b6001600160581b0316600160a81b026001600160a81b0390911617905550505050565b6060604482511015613b76575060408051808201909152600d81526c14da5b195b9d0814995d995c9d609a1b60208201526104df565b6004820180519092602401906020811015613b9057600080fd5b8101908080516040519392919084640100000000821115613bb057600080fd5b908301906020820185811115613bc557600080fd5b8251640100000000811182820188101715613bdf57600080fd5b82525081516020918201929091019080838360005b83811015613c0c578181015183820152602001613bf4565b50505050905090810190601f168015613c395780820380516001836020036101000a031916815260200191505b506040525050509050919050565b6000613c51611559565b61ffff8516600090815260209190915260408120546001600160a01b03169150613c79613e98565b61ffff8616600090815260209190915260409081902054905163ad1c095d60e01b81526001600160a01b039091169150819063ad1c095d90613cc19089908790600401614b72565b600060405180830381600087803b158015613cdb57600080fd5b505af1158015613cef573d6000803e3d6000fd5b505060405163ad1c095d60e01b81526001600160a01b038516925063ad1c095d9150610e2c9089908890600401614b72565b613d2961423c565b6000613d33613ea5565b61ffff84166000908152602091909152604081205491506112fd9082613eb2565b600080836080015111613d6657600080fd5b633b9aca00821115613d7757600080fd5b82518211613d96578251604084015161147c91906124f4908590612bac565b82602001518211613dce57604083015183516020850151606086015161147c93926134bd92819003916124f491880390859003612bac565b6112fd83606001516134bd8560200151633b9aca00036124f4876060015188608001510388602001518803612bac90919063ffffffff16565b600080613e2660646124f48760e0015187612bac90919063ffffffff16565b90508460a00151811015613e3b575060a08401515b8460c00151811115613e4e575060c08401515b8215613e6557613e5e84826130cd565b9150610b36565b838111613e74578084036105d1565b506000949350505050565b60006112fd613e8e8484612bac565b633b9aca00613182565b600080610b8c6022611a98565b600080610b8c601b611a98565b613eba61423c565b6064633b9aca008360ff861660208110613ed057fe5b1a0281613ed957fe5b0481526064633b9aca008360ff861660010160208110613ef557fe5b1a0281613efe57fe5b04816020018181525050613f238260028560ff160160208110613f1d57fe5b1a613fd1565b60808201819052610100908360ff861660030160208110613f4057fe5b1a0281613f4957fe5b0460408201526080810151610100908360ff861660040160208110613f6a57fe5b1a0281613f7357fe5b0460608201526207a1208260ff851660050160208110613f8f57fe5b1a0260a0820152622625a08260ff851660060160208110613fac57fe5b1a0260c08201528160ff841660070160208110613fc557fe5b1a60e082015292915050565b60008160ff16609610613fec5760ff8216622625a0026104dc565b5060951960ff919091160162e4e1c00263165a0bc00190565b604051806101400160405280600061ffff168152602001600081526020016000815260200160008152602001600081526020016000815260200160008152602001600081526020016000815260200161405c6141b1565b905290565b6040805160c081018252600080825260208201819052918101829052606081018290526080810182905260a081019190915290565b60405180610160016040528060006001600160a01b031681526020016000815260200160008152602001600081526020016000815260200160006001600160d01b03191681526020016140e7614281565b81526020016140f4614281565b81526020016141016141b1565b815260200161410e6142b0565b8152600060209091015290565b6040518060800160405280606081526020016060815260200160008152602001600081525090565b6040518060c00160405280600061ffff168152602001600081526020016000815260200160008152602001600081526020016000600381111561405c57fe5b6040805160a0810182526000808252602082018190529181018290529060608201908152602001600081525090565b60405180606001604052806000815260200160008152602001600081525090565b6040518061012001604052806000815260200160008152602001600081526020016000815260200160008152602001600081526020016000815260200160008152602001600081525090565b60405180602001604052806001906020820280368337509192915050565b60405180610100016040528060008152602001600081526020016000815260200160008152602001600081526020016000815260200160008152602001600081525090565b6040518060a0016040528060008152602001600081526020016000815260200160008152602001600081525090565b604080516080810182526000808252602082015290810161410e6141b1565b80516104df81614dfc565b600082601f8301126142ea578081fd5b815160206142ff6142fa83614dde565b614dba565b828152818101908583018385028701840188101561431b578586fd5b855b8581101561434257815161433081614dfc565b8452928401929084019060010161431d565b5090979650505050505050565b6000601f8381840112614360578182fd5b825160206143706142fa83614dde565b82815281810190868301865b8581101561441557815189018a603f820112614396578889fd5b8581015167ffffffffffffffff8111156143ac57fe5b6143bd818a01601f19168801614dba565b81815260408d818486010111156143d2578b8cfd5b8b5b838110156143ef578481018201518382018b015289016143d4565b838111156143ff578c8a85850101525b505086525050928401929084019060010161437c565b509098975050505050505050565b600082601f830112614433578081fd5b815160206144436142fa83614dde565b8281528181019085830160c080860288018501891015614461578687fd5b865b868110156144f35781838b031215614479578788fd5b6040805183810181811067ffffffffffffffff8211171561449657fe5b825284516144a381614e22565b815284880151888201528185015191810191909152606080850151908201526080808501519082015260a0906144da828601614554565b9181019190915285529385019391810191600101614463565b509198975050505050505050565b80516104df81614e14565b80516001600160701b0319811681146104df57600080fd5b80516001600160f81b0319811681146104df57600080fd5b80516001600160d01b0319811681146104df57600080fd5b8051600481106104df57600080fd5b600060c08284031215614574578081fd5b6040516080810181811067ffffffffffffffff8211171561459157fe5b806040525080915082516145a481614e22565b8152602083810151908201526145bd8460408501614705565b604082015260a083015160608201525092915050565b600060a082840312156145e4578081fd5b60405160a0810181811067ffffffffffffffff8211171561460157fe5b806040525080915082518152602083015160208201526040830151604082015260608301516060820152608083015160808201525092915050565b6000610340828403121561464e578081fd5b61016061465a81614dba565b9150614665836142cf565b82526020830151602083015260408301516040830152606083015160608301526080830151608083015261469b60a0840161453c565b60a08301526146ad8460c085016145d3565b60c08301526146be848285016145d3565b60e0830152506146d2836102008401614705565b6101008201526146e6836102608401614563565b6101208201526146f96103208301614501565b61014082015292915050565b600060608284031215614716578081fd5b6040516060810181811067ffffffffffffffff8211171561473357fe5b80604052508091508251815260208301516020820152604083015160408201525092915050565b80356001600160801b03811681146104df57600080fd5b80516104df81614e22565b805160ff811681146104df57600080fd5b80356001600160601b03811681146104df57600080fd5b600080600080600060a086880312156147bb578081fd5b85356147c681614dfc565b945060208601356147d681614e22565b935060408601356147e681614e22565b92506147f46060870161475a565b91506148026080870161478d565b90509295509295909350565b600080600080600080600060e0888a031215614828578485fd5b873561483381614dfc565b9650602088013561484381614e22565b9550604088013561485381614e22565b94506148616060890161475a565b935061486f6080890161478d565b925060a088013561487f81614e14565b915060c088013561488f81614e14565b8091505092959891949750929550565b6000806000606084860312156148b3578081fd5b83356148be81614dfc565b925060208401356148ce81614e22565b91506148dc6040850161478d565b90509250925092565b600060208083850312156148f7578182fd5b825167ffffffffffffffff8082111561490e578384fd5b818501915085601f830112614921578384fd5b815161492f6142fa82614dde565b81815284810190848601875b848110156149e457815187016080818d03601f1901121561495a57898afd5b60408051608081018181108a8211171561497057fe5b8252828b015189811115614982578c8dfd5b6149908f8d838701016142da565b82525081830151898111156149a3578c8dfd5b6149b18f8d8387010161434f565b8c830152506060830151828201526149cb608084016142cf565b606082015286525050928701929087019060010161493b565b50909998505050505050505050565b6000806000838503610420811215614a09578182fd5b60c0811215614a16578182fd5b5060405160c0810167ffffffffffffffff8282108183111715614a3557fe5b816040528651915064ffffffffff82168214614a4f578384fd5b818352614a5e60208801614524565b6020840152614a6f6040880161477c565b6040840152614a8060608801614771565b6060840152614a916080880161450c565b6080840152614aa260a08801614501565b60a0840152829550614ab78860c0890161463c565b9450610400870151925080831115614acd578384fd5b5050614adb86828701614423565b9150509250925092565b600060208284031215614af6578081fd5b5051919050565b60008060408385031215614b0f578182fd5b505080516020909101519092909150565b6001600160a01b0391909116815260200190565b6001600160a01b0392831681529116602082015260400190565b6001600160a01b039384168152919092166020820152604081019190915260600190565b6001600160a01b03929092168252602082015260400190565b6001600160a01b0393909316835261ffff918216602084015216604082015260600190565b6001600160a01b0396909616865261ffff94909416602086015260408501929092526060840152608083015260a082015260c00190565b6001600160a01b0394909416845260208401929092526040830152606082015260800190565b918252602082015260400190565b9283526020830191909152604082015260600190565b6020808252600d908201526c139bc81b1bd8d85b081919589d609a1b604082015260600190565b6020808252600b908201526a4554482042616c616e636560a81b604082015260600190565b6020808252600f908201526e4e6f205072696d6520426f72726f7760881b604082015260600190565b60208082526007908201526609cde40c6c2e6d60cb1b604082015260600190565b6020808252600d908201526c139bc818dbdb1b185d195c985b609a1b604082015260600190565b6020808252601c908201527f446570726563617465643a2052656465656d20746f2063546f6b656e00000000604082015260600190565b6020808252600e908201526d1499595b9d1c985b9d0818d85b1b60921b604082015260600190565b6020808252600a90820152692732b390372a37b5b2b760b11b604082015260600190565b61ffff929092168252602082015260400190565b61ffff958616815293909416602084015260408301919091526060820152608081019190915260a00190565b90815260200190565b60405181810167ffffffffffffffff81118282101715614dd657fe5b604052919050565b600067ffffffffffffffff821115614df257fe5b5060209081020190565b6001600160a01b0381168114614e1157600080fd5b50565b8015158114614e1157600080fd5b61ffff81168114614e1157600080fdfea26469706673582212200cdf3a9f63fc71d0cc9d825fe1e43371fdf90d3d77c038984fed042a9c7f803a64736f6c63430007060033","language":"Solidity","natspec":{"kind":"dev","methods":{"calculateCollateralCurrencyLiquidation(address,uint16,uint16,uint128,uint96)":{"notice":"Calculates local and collateral currency transfers for a liquidation. This is a stateful method because it may settle the liquidated account if required. However, it can be called using staticcall off chain to determine the net currency amounts required before liquidating.","params":{"collateralCurrency":"id of the collateral currency","liquidateAccount":"account to liquidate","localCurrency":"id of the local currency","maxCollateralLiquidation":"maximum amount of collateral (inclusive of cash and nTokens) to liquidate","maxNTokenLiquidation":"maximum amount of nTokens to purchase (if any)"},"returns":{"_0":"local currency required from liquidator (negative)","_1":"collateral asset cash paid to liquidator (positive)","_2":"collateral nTokens paid to liquidator (positive)"}},"calculateLocalCurrencyLiquidation(address,uint16,uint96)":{"notice":"Calculates the net local currency required by the liquidator. This is a stateful method because it may settle the liquidated account if required. However, it can be called using staticcall off chain to determine the net local currency required before liquidating.","params":{"liquidateAccount":"account to liquidate","localCurrency":"id of the local currency","maxNTokenLiquidation":"maximum amount of nTokens to purchase (if any)"},"returns":{"_0":"local currency required from liquidator (positive or negative)","_1":"local nTokens paid to liquidator (positive)"}},"getLibInfo()":{"notice":"Get a list of deployed library addresses (sorted by library name)"},"liquidateCollateralCurrency(address,uint16,uint16,uint128,uint96,bool,bool)":{"notice":"Liquidates an account between local and collateral currency","params":{"collateralCurrency":"id of the collateral currency","liquidateAccount":"account to liquidate","localCurrency":"id of the local currency","maxCollateralLiquidation":"maximum amount of collateral (inclusive of cash and nTokens) to liquidate","maxNTokenLiquidation":"maximum amount of nTokens to purchase (if any)","redeemToUnderlying":"if true, converts collateral cash from asset cash to underlying","withdrawCollateral":"if true, withdraws collateral cash back to msg.sender"},"returns":{"_0":"local currency required from liquidator (negative)","_1":"collateral asset cash paid to liquidator (positive)","_2":"collateral nTokens paid to liquidator (positive)"}},"liquidateLocalCurrency(address,uint16,uint96)":{"notice":"Liquidates an account using local currency only","params":{"liquidateAccount":"account to liquidate","localCurrency":"id of the local currency","maxNTokenLiquidation":"maximum amount of nTokens to purchase (if any)"},"returns":{"_0":"local currency required from liquidator (positive or negative)","_1":"local nTokens paid to liquidator (positive)"}}},"version":1},"opcodes":"PUSH1 0x80 PUSH1 0x40 MSTORE PUSH1 0x4 CALLDATASIZE LT PUSH2 0x7B JUMPI PUSH1 0x0 CALLDATALOAD PUSH1 0xE0 SHR DUP1 PUSH4 0x8DA5CB5B GT PUSH2 0x4E JUMPI DUP1 PUSH4 0x8DA5CB5B EQ PUSH2 0x103 JUMPI DUP1 PUSH4 0x9A600EEB EQ PUSH2 0x118 JUMPI DUP1 PUSH4 0xC4C96DAE EQ PUSH2 0x138 JUMPI DUP1 PUSH4 0xE3E7CB4F EQ PUSH2 0x15B JUMPI PUSH2 0x7B JUMP JUMPDEST DUP1 PUSH4 0x24A3D622 EQ PUSH2 0x80 JUMPI DUP1 PUSH4 0x2D10E6EB EQ PUSH2 0xAB JUMPI DUP1 PUSH4 0x6633AF39 EQ PUSH2 0xCC JUMPI DUP1 PUSH4 0x82463367 EQ PUSH2 0xEE JUMPI JUMPDEST PUSH1 0x0 DUP1 REVERT JUMPDEST CALLVALUE DUP1 ISZERO PUSH2 0x8C JUMPI PUSH1 0x0 DUP1 REVERT JUMPDEST POP PUSH2 0x95 PUSH2 0x17B JUMP JUMPDEST PUSH1 0x40 MLOAD PUSH2 0xA2 SWAP2 SWAP1 PUSH2 0x4B20 JUMP JUMPDEST PUSH1 0x40 MLOAD DUP1 SWAP2 SUB SWAP1 RETURN JUMPDEST PUSH2 0xBE PUSH2 0xB9 CALLDATASIZE PUSH1 0x4 PUSH2 0x489F JUMP JUMPDEST PUSH2 0x18A JUMP JUMPDEST PUSH1 0x40 MLOAD PUSH2 0xA2 SWAP3 SWAP2 SWAP1 PUSH2 0x4C0D JUMP JUMPDEST PUSH2 0xDF PUSH2 0xDA CALLDATASIZE PUSH1 0x4 PUSH2 0x480E JUMP JUMPDEST PUSH2 0x280 JUMP JUMPDEST PUSH1 0x40 MLOAD PUSH2 0xA2 SWAP4 SWAP3 SWAP2 SWAP1 PUSH2 0x4C1B JUMP JUMPDEST CALLVALUE DUP1 ISZERO PUSH2 0xFA JUMPI PUSH1 0x0 DUP1 REVERT JUMPDEST POP PUSH2 0x95 PUSH2 0x349 JUMP JUMPDEST CALLVALUE DUP1 ISZERO PUSH2 0x10F JUMPI PUSH1 0x0 DUP1 REVERT JUMPDEST POP PUSH2 0x95 PUSH2 0x358 JUMP JUMPDEST CALLVALUE DUP1 ISZERO PUSH2 0x124 JUMPI PUSH1 0x0 DUP1 REVERT JUMPDEST POP PUSH2 0xDF PUSH2 0x133 CALLDATASIZE PUSH1 0x4 PUSH2 0x47A4 JUMP JUMPDEST PUSH2 0x36F JUMP JUMPDEST CALLVALUE DUP1 ISZERO PUSH2 0x144 JUMPI PUSH1 0x0 DUP1 REVERT JUMPDEST POP PUSH2 0x14D PUSH2 0x3E6 JUMP JUMPDEST PUSH1 0x40 MLOAD PUSH2 0xA2 SWAP3 SWAP2 SWAP1 PUSH2 0x4B34 JUMP JUMPDEST CALLVALUE DUP1 ISZERO PUSH2 0x167 JUMPI PUSH1 0x0 DUP1 REVERT JUMPDEST POP PUSH2 0xBE PUSH2 0x176 CALLDATASIZE PUSH1 0x4 PUSH2 0x489F JUMP JUMPDEST PUSH2 0x414 JUMP JUMPDEST PUSH1 0x2 SLOAD PUSH1 0x1 PUSH1 0x1 PUSH1 0xA0 SHL SUB AND DUP2 JUMP JUMPDEST PUSH1 0x0 DUP1 PUSH1 0x2 PUSH1 0xA SLOAD EQ ISZERO PUSH2 0x1B9 JUMPI PUSH1 0x40 MLOAD PUSH3 0x461BCD PUSH1 0xE5 SHL DUP2 MSTORE PUSH1 0x4 ADD PUSH2 0x1B0 SWAP1 PUSH2 0x4D25 JUMP JUMPDEST PUSH1 0x40 MLOAD DUP1 SWAP2 SUB SWAP1 REVERT JUMPDEST PUSH1 0x2 PUSH1 0xA SSTORE PUSH1 0x0 DUP1 DUP1 PUSH2 0x1CE DUP9 DUP9 DUP9 DUP5 PUSH2 0x475 JUMP JUMPDEST SWAP3 POP SWAP3 POP SWAP3 POP PUSH1 0x0 PUSH2 0x1EF CALLER DUP11 DUP11 DUP8 PUSH2 0x1EA DUP9 PUSH1 0xA0 ADD MLOAD PUSH2 0x4CE JUMP JUMPDEST PUSH2 0x4E4 JUMP JUMPDEST SWAP1 POP PUSH2 0x1FC DUP4 DUP11 DUP5 PUSH2 0x5DA JUMP JUMPDEST CALLER PUSH1 0x1 PUSH1 0x1 PUSH1 0xA0 SHL SUB AND DUP10 PUSH1 0x1 PUSH1 0x1 PUSH1 0xA0 SHL SUB AND PUSH32 0x4596C3B6545E97EB42B719442DD0AFA8EB7680F3FF72C762763D4B292EE26EA7 DUP11 DUP8 PUSH1 0x40 MLOAD PUSH2 0x241 SWAP3 SWAP2 SWAP1 PUSH2 0x4D71 JUMP JUMPDEST PUSH1 0x40 MLOAD DUP1 SWAP2 SUB SWAP1 LOG3 PUSH2 0x253 DUP2 CALLER PUSH2 0x5FE JUMP JUMPDEST PUSH2 0x25D DUP3 DUP11 PUSH2 0x5FE JUMP JUMPDEST DUP4 PUSH2 0x26B DUP5 PUSH1 0xA0 ADD MLOAD PUSH2 0x4CE JUMP JUMPDEST PUSH1 0x1 PUSH1 0xA SSTORE SWAP1 SWAP11 SWAP1 SWAP10 POP SWAP8 POP POP POP POP POP POP POP POP JUMP JUMPDEST PUSH1 0x0 DUP1 PUSH1 0x0 PUSH1 0x2 PUSH1 0xA SLOAD EQ ISZERO PUSH2 0x2A8 JUMPI PUSH1 0x40 MLOAD PUSH3 0x461BCD PUSH1 0xE5 SHL DUP2 MSTORE PUSH1 0x4 ADD PUSH2 0x1B0 SWAP1 PUSH2 0x4D25 JUMP JUMPDEST PUSH1 0x2 PUSH1 0xA SSTORE PUSH1 0x0 DUP1 DUP1 PUSH2 0x2BF DUP14 DUP14 DUP14 DUP14 DUP14 DUP7 PUSH2 0x71B JUMP JUMPDEST SWAP3 POP SWAP3 POP SWAP3 POP PUSH1 0x0 PUSH2 0x2D6 DUP15 DUP15 DUP15 DUP8 DUP8 DUP15 DUP15 PUSH2 0x776 JUMP JUMPDEST SWAP1 POP PUSH2 0x2E4 DUP15 DUP15 DUP5 DUP8 PUSH2 0x7C2 JUMP JUMPDEST PUSH2 0x2EF DUP4 DUP16 DUP5 PUSH2 0x7EF JUMP JUMPDEST PUSH2 0x2FB DUP15 DUP15 DUP7 DUP7 PUSH2 0x80C JUMP JUMPDEST PUSH2 0x305 DUP3 DUP16 PUSH2 0x5FE JUMP JUMPDEST PUSH2 0x30F DUP2 CALLER PUSH2 0x5FE JUMP JUMPDEST DUP4 PUSH2 0x31D DUP5 PUSH1 0x60 ADD MLOAD PUSH2 0x4CE JUMP JUMPDEST PUSH2 0x32A DUP6 PUSH1 0xA0 ADD MLOAD PUSH2 0x4CE JUMP JUMPDEST SWAP7 POP SWAP7 POP SWAP7 POP POP POP POP POP PUSH1 0x1 PUSH1 0xA DUP2 SWAP1 SSTORE POP SWAP8 POP SWAP8 POP SWAP8 SWAP5 POP POP POP POP POP JUMP JUMPDEST PUSH1 0x1 SLOAD PUSH1 0x1 PUSH1 0x1 PUSH1 0xA0 SHL SUB AND DUP2 JUMP JUMPDEST PUSH1 0x0 SLOAD PUSH5 0x100000000 SWAP1 DIV PUSH1 0x1 PUSH1 0x1 PUSH1 0xA0 SHL SUB AND DUP2 JUMP JUMPDEST PUSH1 0x0 DUP1 PUSH1 0x0 PUSH1 0x2 PUSH1 0xA SLOAD EQ ISZERO PUSH2 0x397 JUMPI PUSH1 0x40 MLOAD PUSH3 0x461BCD PUSH1 0xE5 SHL DUP2 MSTORE PUSH1 0x4 ADD PUSH2 0x1B0 SWAP1 PUSH2 0x4D25 JUMP JUMPDEST PUSH1 0x2 PUSH1 0xA SSTORE PUSH1 0x0 DUP1 PUSH2 0x3AE DUP11 DUP11 DUP11 DUP11 DUP11 PUSH1 0x1 PUSH2 0x71B JUMP JUMPDEST POP SWAP2 POP SWAP2 POP DUP2 PUSH2 0x3C1 DUP3 PUSH1 0x60 ADD MLOAD PUSH2 0x4CE JUMP JUMPDEST PUSH2 0x3CE DUP4 PUSH1 0xA0 ADD MLOAD PUSH2 0x4CE JUMP JUMPDEST PUSH1 0x1 PUSH1 0xA SSTORE SWAP2 SWAP13 SWAP1 SWAP12 POP SWAP1 SWAP10 POP SWAP8 POP POP POP POP POP POP POP POP JUMP JUMPDEST PUSH20 0x0 PUSH20 0x0 SWAP1 SWAP2 JUMP JUMPDEST PUSH1 0x0 DUP1 PUSH1 0x2 PUSH1 0xA SLOAD EQ ISZERO PUSH2 0x43A JUMPI PUSH1 0x40 MLOAD PUSH3 0x461BCD PUSH1 0xE5 SHL DUP2 MSTORE PUSH1 0x4 ADD PUSH2 0x1B0 SWAP1 PUSH2 0x4D25 JUMP JUMPDEST PUSH1 0x2 PUSH1 0xA SSTORE PUSH1 0x0 DUP1 PUSH2 0x44F DUP8 DUP8 DUP8 PUSH1 0x1 PUSH2 0x475 JUMP JUMPDEST POP SWAP2 POP SWAP2 POP DUP2 PUSH2 0x462 DUP3 PUSH1 0xA0 ADD MLOAD PUSH2 0x4CE JUMP JUMPDEST PUSH1 0x1 PUSH1 0xA SSTORE SWAP1 SWAP9 SWAP1 SWAP8 POP SWAP6 POP POP POP POP POP POP JUMP JUMPDEST PUSH1 0x0 PUSH2 0x47F PUSH2 0x4005 JUMP JUMPDEST PUSH2 0x487 PUSH2 0x4061 JUMP JUMPDEST PUSH2 0x48F PUSH2 0x4096 JUMP JUMPDEST PUSH2 0x49B DUP9 DUP9 PUSH1 0x0 PUSH2 0x881 JUMP JUMPDEST POP SWAP1 SWAP3 POP SWAP1 POP PUSH2 0x4AD DUP4 DUP10 DUP10 DUP6 PUSH2 0x9DD JUMP JUMPDEST DUP5 ISZERO ISZERO PUSH2 0x140 DUP3 ADD MSTORE PUSH2 0x4C1 DUP7 DUP5 DUP4 PUSH2 0x9F8 JUMP JUMPDEST SWAP4 POP POP SWAP5 POP SWAP5 POP SWAP5 SWAP2 POP POP JUMP JUMPDEST PUSH1 0x0 PUSH2 0x4DC PUSH1 0x0 NOT DUP4 PUSH2 0xB3E JUMP JUMPDEST SWAP1 POP JUMPDEST SWAP2 SWAP1 POP JUMP JUMPDEST PUSH2 0x4EC PUSH2 0x4061 JUMP JUMPDEST PUSH1 0x0 PUSH2 0x4FB DUP6 PUSH2 0xFFFF AND PUSH2 0xB92 JUMP JUMPDEST SWAP1 POP PUSH1 0x0 PUSH2 0x508 DUP9 PUSH2 0xBA5 JUMP JUMPDEST SWAP1 POP PUSH2 0x512 PUSH2 0x4005 JUMP JUMPDEST PUSH2 0x51E DUP2 DUP11 DUP10 DUP6 PUSH2 0x9DD JUMP JUMPDEST PUSH1 0x0 DUP7 SGT PUSH2 0x52B JUMPI PUSH1 0x0 DUP1 REVERT JUMPDEST DUP3 PUSH1 0x20 ADD MLOAD ISZERO PUSH2 0x584 JUMPI DUP6 DUP2 PUSH1 0x20 ADD MLOAD SLT ISZERO DUP1 ISZERO PUSH2 0x555 JUMPI POP PUSH1 0x20 DUP3 ADD MLOAD PUSH1 0x1 PUSH1 0x1 PUSH1 0xF8 SHL SUB NOT AND ISZERO JUMPDEST PUSH2 0x571 JUMPI PUSH1 0x40 MLOAD PUSH3 0x461BCD PUSH1 0xE5 SHL DUP2 MSTORE PUSH1 0x4 ADD PUSH2 0x1B0 SWAP1 PUSH2 0x4CA6 JUMP JUMPDEST PUSH2 0x57A DUP7 PUSH2 0x4CE JUMP JUMPDEST PUSH1 0x60 DUP3 ADD MSTORE PUSH2 0x599 JUMP JUMPDEST PUSH2 0x597 DUP10 DUP9 DUP9 DUP5 PUSH2 0x120 ADD MLOAD PUSH1 0x0 PUSH2 0xC53 JUMP JUMPDEST POP JUMPDEST PUSH2 0x5A5 DUP10 DUP10 DUP10 DUP10 PUSH2 0xCB1 JUMP JUMPDEST PUSH1 0x0 DUP6 SGT ISZERO PUSH2 0x5BA JUMPI PUSH2 0x5BA DUP9 DUP11 DUP10 DUP9 PUSH2 0xD57 JUMP JUMPDEST PUSH1 0xA0 DUP2 ADD DUP6 SWAP1 MSTORE PUSH2 0x5CC DUP2 DUP11 DUP5 PUSH2 0x5DA JUMP JUMPDEST POP SWAP2 POP POP JUMPDEST SWAP6 SWAP5 POP POP POP POP POP JUMP JUMPDEST PUSH1 0x80 DUP4 ADD MLOAD ISZERO PUSH2 0x5E9 JUMPI PUSH1 0x0 DUP1 REVERT JUMPDEST PUSH2 0x5F8 DUP4 DUP4 DUP4 PUSH1 0x0 PUSH1 0x1 PUSH2 0xE67 JUMP JUMPDEST POP POP POP POP JUMP JUMPDEST PUSH1 0x0 PUSH2 0x608 PUSH2 0x101D JUMP JUMPDEST PUSH1 0x1 PUSH1 0x1 PUSH1 0xA0 SHL SUB DUP4 AND PUSH1 0x0 DUP2 DUP2 MSTORE PUSH1 0x20 DUP4 DUP2 MSTORE PUSH1 0x40 DUP1 DUP4 KECCAK256 DUP9 MLOAD DUP2 SLOAD SWAP4 DUP11 ADD MLOAD DUP11 DUP5 ADD MLOAD PUSH1 0x60 DUP13 ADD MLOAD PUSH1 0x80 DUP14 ADD MLOAD PUSH1 0xA0 DUP15 ADD MLOAD PUSH5 0xFFFFFFFFFF NOT SWAP1 SWAP9 AND PUSH5 0xFFFFFFFFFF SWAP1 SWAP6 AND SWAP5 SWAP1 SWAP5 OR PUSH6 0xFF0000000000 NOT AND PUSH1 0x1 PUSH1 0x28 SHL PUSH1 0xF8 SWAP5 SWAP1 SWAP5 SHR SWAP4 SWAP1 SWAP4 MUL SWAP3 SWAP1 SWAP3 OR PUSH7 0xFF000000000000 NOT AND PUSH1 0x1 PUSH1 0x30 SHL PUSH1 0xFF SWAP1 SWAP3 AND SWAP2 SWAP1 SWAP2 MUL OR PUSH9 0xFFFF00000000000000 NOT AND PUSH1 0x1 PUSH1 0x38 SHL PUSH2 0xFFFF SWAP1 SWAP3 AND SWAP2 SWAP1 SWAP2 MUL OR PUSH27 0xFFFFFFFFFFFFFFFFFFFFFFFFFFFFFFFFFFFF000000000000000000 NOT AND PUSH1 0x1 PUSH1 0x48 SHL PUSH1 0x70 SWAP3 SWAP1 SWAP3 SHR SWAP2 SWAP1 SWAP2 MUL OR PUSH1 0xFF PUSH1 0xD8 SHL NOT AND PUSH1 0x1 PUSH1 0xD8 SHL SWAP4 ISZERO ISZERO SWAP4 SWAP1 SWAP4 MUL SWAP3 SWAP1 SWAP3 OR SWAP1 SWAP2 SSTORE MLOAD SWAP3 SWAP4 POP SWAP1 SWAP2 PUSH32 0x6BD4B121BCA854A191536A2CA891155C42EE2FB23F307FB34E8BC65CFCB5412E SWAP2 SWAP1 LOG2 POP POP POP JUMP JUMPDEST PUSH1 0x0 PUSH2 0x725 PUSH2 0x4005 JUMP JUMPDEST PUSH2 0x72D PUSH2 0x4061 JUMP JUMPDEST PUSH2 0x735 PUSH2 0x4096 JUMP JUMPDEST PUSH2 0x740 DUP11 DUP11 DUP11 PUSH2 0x881 JUMP JUMPDEST POP SWAP1 SWAP3 POP SWAP1 POP PUSH2 0x752 DUP4 DUP12 DUP11 DUP6 PUSH2 0x9DD JUMP JUMPDEST DUP5 ISZERO ISZERO PUSH2 0x140 DUP3 ADD MSTORE PUSH2 0x767 DUP8 DUP8 DUP6 DUP5 PUSH2 0x102A JUMP JUMPDEST SWAP4 POP POP SWAP7 POP SWAP7 POP SWAP7 SWAP4 POP POP POP POP JUMP JUMPDEST PUSH2 0x77E PUSH2 0x4061 JUMP JUMPDEST PUSH2 0x78C CALLER DUP10 DUP10 DUP9 PUSH1 0x0 PUSH2 0x4E4 JUMP JUMPDEST SWAP1 POP PUSH2 0x7B6 CALLER DUP3 DUP11 DUP10 PUSH2 0x7A2 DUP10 PUSH1 0x60 ADD MLOAD PUSH2 0x4CE JUMP JUMPDEST PUSH2 0x7AF DUP11 PUSH1 0xA0 ADD MLOAD PUSH2 0x4CE JUMP JUMPDEST DUP10 DUP10 PUSH2 0x113F JUMP JUMPDEST POP SWAP8 SWAP7 POP POP POP POP POP POP POP JUMP JUMPDEST PUSH2 0x7CA PUSH2 0x4005 JUMP JUMPDEST PUSH2 0x7D6 DUP2 DUP7 DUP7 DUP7 PUSH2 0x9DD JUMP JUMPDEST PUSH1 0x60 DUP2 ADD DUP3 SWAP1 MSTORE PUSH2 0x7E8 DUP2 DUP7 DUP6 PUSH2 0x5DA JUMP JUMPDEST POP POP POP POP POP JUMP JUMPDEST PUSH1 0x80 DUP4 ADD MLOAD ISZERO PUSH2 0x7FE JUMPI PUSH1 0x0 DUP1 REVERT JUMPDEST PUSH2 0x5F8 DUP4 DUP4 DUP4 PUSH1 0x0 DUP1 PUSH2 0xE67 JUMP JUMPDEST CALLER PUSH1 0x1 PUSH1 0x1 PUSH1 0xA0 SHL SUB AND DUP5 PUSH1 0x1 PUSH1 0x1 PUSH1 0xA0 SHL SUB AND PUSH32 0x88FFF2F00941B1272999212DE454EE8D15F54D132723B35E3423EF742109861C DUP6 DUP5 PUSH1 0x0 ADD MLOAD DUP7 PUSH2 0x855 DUP8 PUSH1 0x60 ADD MLOAD PUSH2 0x4CE JUMP JUMPDEST PUSH2 0x862 DUP9 PUSH1 0xA0 ADD MLOAD PUSH2 0x4CE JUMP JUMPDEST PUSH1 0x40 MLOAD PUSH2 0x873 SWAP6 SWAP5 SWAP4 SWAP3 SWAP2 SWAP1 PUSH2 0x4D85 JUMP JUMPDEST PUSH1 0x40 MLOAD DUP1 SWAP2 SUB SWAP1 LOG3 POP POP POP POP JUMP JUMPDEST PUSH2 0x889 PUSH2 0x4061 JUMP JUMPDEST PUSH2 0x891 PUSH2 0x4096 JUMP JUMPDEST PUSH2 0x899 PUSH2 0x411B JUMP JUMPDEST CALLER PUSH1 0x1 PUSH1 0x1 PUSH1 0xA0 SHL SUB DUP8 AND EQ ISZERO PUSH2 0x8AF JUMPI PUSH1 0x0 DUP1 REVERT JUMPDEST PUSH2 0xFFFF DUP6 AND PUSH2 0x8BD JUMPI PUSH1 0x0 DUP1 REVERT JUMPDEST DUP5 PUSH2 0xFFFF AND DUP5 PUSH2 0xFFFF AND EQ ISZERO PUSH2 0x8D2 JUMPI PUSH1 0x0 DUP1 REVERT JUMPDEST PUSH1 0x0 DUP1 PUSH1 0x0 PUSH20 0x0 PUSH4 0x451D958F DUP11 DUP11 DUP11 PUSH1 0x40 MLOAD DUP5 PUSH4 0xFFFFFFFF AND PUSH1 0xE0 SHL DUP2 MSTORE PUSH1 0x4 ADD PUSH2 0x912 SWAP4 SWAP3 SWAP2 SWAP1 PUSH2 0x4B8B JUMP JUMPDEST PUSH1 0x0 PUSH1 0x40 MLOAD DUP1 DUP4 SUB DUP2 DUP7 DUP1 EXTCODESIZE ISZERO DUP1 ISZERO PUSH2 0x92A JUMPI PUSH1 0x0 DUP1 REVERT JUMPDEST POP GAS DELEGATECALL ISZERO DUP1 ISZERO PUSH2 0x93E JUMPI RETURNDATASIZE PUSH1 0x0 DUP1 RETURNDATACOPY RETURNDATASIZE PUSH1 0x0 REVERT JUMPDEST POP POP POP POP PUSH1 0x40 MLOAD RETURNDATASIZE PUSH1 0x0 DUP3 RETURNDATACOPY PUSH1 0x1F RETURNDATASIZE SWAP1 DUP2 ADD PUSH1 0x1F NOT AND DUP3 ADD PUSH1 0x40 MSTORE PUSH2 0x966 SWAP2 SWAP1 DUP2 ADD SWAP1 PUSH2 0x49F3 JUMP JUMPDEST SWAP2 SWAP5 POP SWAP3 POP SWAP1 POP PUSH2 0x977 DUP4 DUP11 PUSH2 0x5FE JUMP JUMPDEST PUSH1 0x40 DUP1 MLOAD PUSH1 0x80 DUP2 ADD DUP3 MSTORE DUP3 DUP2 MSTORE DUP2 MLOAD PUSH1 0x0 DUP1 DUP3 MSTORE PUSH1 0x20 DUP3 DUP2 ADD SWAP1 SWAP5 MSTORE SWAP3 DUP3 ADD SWAP1 DUP4 PUSH2 0x9B8 JUMP JUMPDEST PUSH2 0x9A5 PUSH2 0x4143 JUMP JUMPDEST DUP2 MSTORE PUSH1 0x20 ADD SWAP1 PUSH1 0x1 SWAP1 SUB SWAP1 DUP2 PUSH2 0x99D JUMPI SWAP1 POP JUMPDEST POP DUP2 MSTORE PUSH1 0x0 PUSH1 0x20 DUP3 ADD MSTORE SWAP3 MLOAD PUSH1 0x40 SWAP1 SWAP4 ADD SWAP3 SWAP1 SWAP3 MSTORE POP SWAP2 SWAP9 SWAP1 SWAP8 POP SWAP1 SWAP6 POP SWAP4 POP POP POP POP JUMP JUMPDEST PUSH2 0x9E6 DUP3 PUSH2 0x11DB JUMP JUMPDEST PUSH2 0x120 DUP6 ADD MSTORE PUSH2 0x5F8 DUP5 DUP5 DUP5 DUP5 PUSH2 0x11ED JUMP JUMPDEST PUSH1 0x0 DUP2 PUSH1 0x40 ADD MLOAD PUSH1 0x0 EQ ISZERO PUSH2 0xA0C JUMPI PUSH1 0x0 DUP1 REVERT JUMPDEST PUSH1 0x0 PUSH2 0xA34 PUSH2 0xA28 DUP5 PUSH1 0x40 ADD MLOAD DUP6 PUSH1 0x20 ADD MLOAD DUP7 PUSH1 0xC0 ADD MLOAD PUSH2 0x1295 JUMP JUMPDEST PUSH2 0x100 DUP6 ADD MLOAD SWAP1 PUSH2 0x12DB JUMP JUMPDEST SWAP1 POP PUSH1 0x0 DUP4 PUSH1 0x80 ADD MLOAD SGT ISZERO PUSH2 0xB36 JUMPI PUSH1 0xA0 DUP4 ADD MLOAD PUSH1 0x0 SWAP1 PUSH1 0x3 DUP2 SWAP1 BYTE SWAP1 DUP3 BYTE GT PUSH2 0xA5D JUMPI PUSH1 0x0 DUP1 REVERT JUMPDEST PUSH1 0xA0 DUP5 ADD MLOAD PUSH1 0x80 DUP6 ADD MLOAD PUSH1 0x3 DUP3 SWAP1 BYTE PUSH1 0x0 SWAP3 SWAP1 SWAP3 BYTE SWAP2 SWAP1 SWAP2 SUB PUSH1 0xFF AND SWAP1 PUSH2 0xAB1 SWAP1 PUSH2 0xA88 SWAP1 DUP4 PUSH2 0xB3E JUMP JUMPDEST PUSH1 0xA0 DUP8 ADD MLOAD PUSH1 0x40 DUP10 ADD MLOAD PUSH2 0xAAB SWAP2 PUSH1 0x3 BYTE SWAP1 PUSH2 0xAA5 SWAP1 DUP9 SWAP1 PUSH2 0xB3E JUMP JUMPDEST SWAP1 PUSH2 0xB3E JUMP JUMPDEST SWAP1 PUSH2 0x1304 JUMP JUMPDEST SWAP2 POP POP PUSH2 0xACC DUP2 DUP7 PUSH1 0x40 ADD MLOAD DUP9 PUSH1 0x1 PUSH1 0x1 PUSH1 0x60 SHL SUB AND PUSH2 0x1335 JUMP JUMPDEST SWAP1 POP PUSH2 0xAD7 DUP2 PUSH2 0x4CE JUMP JUMPDEST PUSH1 0xA0 DUP7 DUP2 ADD SWAP2 SWAP1 SWAP2 MSTORE PUSH1 0x40 DUP7 ADD MLOAD SWAP1 DUP6 ADD MLOAD PUSH1 0x80 DUP7 ADD MLOAD PUSH1 0x0 SWAP3 PUSH2 0xB10 SWAP3 SWAP1 SWAP2 PUSH2 0xAAB SWAP2 PUSH1 0x3 DUP2 SWAP1 BYTE SWAP2 DUP4 SWAP2 PUSH2 0xAA5 SWAP1 DUP10 SWAP1 DUP10 BYTE PUSH2 0xB3E JUMP JUMPDEST PUSH1 0x60 DUP8 ADD MLOAD SWAP1 SWAP2 POP PUSH2 0xB22 SWAP1 DUP3 PUSH2 0x137F JUMP JUMPDEST PUSH1 0x60 DUP8 ADD MSTORE PUSH2 0xB31 DUP5 DUP3 PUSH2 0x137F JUMP JUMPDEST SWAP4 POP POP POP JUMPDEST POP SWAP4 SWAP3 POP POP POP JUMP JUMPDEST DUP2 DUP2 MUL PUSH1 0x0 NOT DUP4 EQ ISZERO PUSH2 0xB6E JUMPI DUP2 ISZERO DUP1 PUSH2 0xB60 JUMPI POP DUP3 DUP3 DUP3 DUP2 PUSH2 0xB5D JUMPI INVALID JUMPDEST SDIV EQ JUMPDEST PUSH2 0xB69 JUMPI PUSH1 0x0 DUP1 REVERT JUMPDEST PUSH2 0xB8C JUMP JUMPDEST DUP3 ISZERO DUP1 PUSH2 0xB83 JUMPI POP DUP2 DUP4 DUP3 DUP2 PUSH2 0xB80 JUMPI INVALID JUMPDEST SDIV EQ JUMPDEST PUSH2 0xB8C JUMPI PUSH1 0x0 DUP1 REVERT JUMPDEST SWAP3 SWAP2 POP POP JUMP JUMPDEST PUSH2 0xB9A PUSH2 0x4182 JUMP JUMPDEST PUSH2 0x4DC DUP3 PUSH1 0x1 PUSH2 0x1395 JUMP JUMPDEST PUSH2 0xBAD PUSH2 0x4061 JUMP JUMPDEST PUSH1 0x0 PUSH2 0xBB7 PUSH2 0x101D JUMP JUMPDEST PUSH1 0x1 PUSH1 0x1 PUSH1 0xA0 SHL SUB DUP5 AND PUSH1 0x0 SWAP1 DUP2 MSTORE PUSH1 0x20 SWAP2 DUP3 MSTORE PUSH1 0x40 SWAP1 DUP2 SWAP1 KECCAK256 DUP2 MLOAD PUSH1 0xC0 DUP2 ADD DUP4 MSTORE SWAP1 SLOAD PUSH5 0xFFFFFFFFFF DUP2 AND DUP3 MSTORE PUSH1 0x1 PUSH1 0x1 PUSH1 0xF8 SHL SUB NOT PUSH1 0x1 PUSH1 0x28 SHL DUP3 DIV PUSH1 0xF8 SHL AND SWAP4 DUP3 ADD SWAP4 SWAP1 SWAP4 MSTORE PUSH1 0xFF PUSH1 0x1 PUSH1 0x30 SHL DUP5 DIV DUP2 AND SWAP3 DUP3 ADD SWAP3 SWAP1 SWAP3 MSTORE PUSH2 0xFFFF PUSH1 0x1 PUSH1 0x38 SHL DUP5 DIV AND PUSH1 0x60 DUP3 ADD MSTORE PUSH1 0x1 PUSH1 0x1 PUSH1 0x70 SHL SUB NOT PUSH1 0x1 PUSH1 0x48 SHL DUP5 DIV PUSH1 0x70 SHL AND PUSH1 0x80 DUP3 ADD MSTORE PUSH1 0x1 PUSH1 0xD8 SHL SWAP1 SWAP3 DIV AND ISZERO ISZERO PUSH1 0xA0 DUP3 ADD MSTORE SWAP2 POP POP SWAP2 SWAP1 POP JUMP JUMPDEST PUSH1 0x0 DUP4 PUSH2 0xC62 JUMPI POP PUSH1 0x0 PUSH2 0x5D1 JUMP JUMPDEST PUSH1 0x0 DUP5 SGT PUSH2 0xC6F JUMPI PUSH1 0x0 DUP1 REVERT JUMPDEST PUSH1 0x0 PUSH2 0xC7E DUP7 PUSH2 0xFFFF AND PUSH2 0xB92 JUMP JUMPDEST SWAP1 POP PUSH1 0x0 PUSH2 0xC95 DUP3 PUSH2 0xC90 DUP8 DUP10 PUSH2 0x142F JUMP JUMPDEST PUSH2 0x145B JUMP JUMPDEST SWAP1 POP PUSH2 0xCA4 DUP9 DUP9 DUP4 DUP9 DUP9 PUSH2 0x1497 JUMP JUMPDEST POP SWAP9 SWAP8 POP POP POP POP POP POP POP POP JUMP JUMPDEST PUSH1 0x0 PUSH2 0xCBB PUSH2 0x1559 JUMP JUMPDEST PUSH2 0xFFFF DUP5 AND PUSH1 0x0 SWAP1 DUP2 MSTORE PUSH1 0x20 SWAP2 SWAP1 SWAP2 MSTORE PUSH1 0x40 DUP2 KECCAK256 SLOAD PUSH1 0x1 PUSH1 0x1 PUSH1 0xA0 SHL SUB AND SWAP2 POP DUP3 SLT ISZERO PUSH2 0xCE6 JUMPI SWAP3 SWAP4 SWAP3 JUMPDEST DUP1 PUSH1 0x1 PUSH1 0x1 PUSH1 0xA0 SHL SUB AND PUSH4 0x23DE6651 DUP7 DUP7 PUSH2 0xD00 DUP7 PUSH2 0x1566 JUMP JUMPDEST PUSH1 0x40 MLOAD DUP5 PUSH4 0xFFFFFFFF AND PUSH1 0xE0 SHL DUP2 MSTORE PUSH1 0x4 ADD PUSH2 0xD1E SWAP4 SWAP3 SWAP2 SWAP1 PUSH2 0x4B4E JUMP JUMPDEST PUSH1 0x0 PUSH1 0x40 MLOAD DUP1 DUP4 SUB DUP2 PUSH1 0x0 DUP8 DUP1 EXTCODESIZE ISZERO DUP1 ISZERO PUSH2 0xD38 JUMPI PUSH1 0x0 DUP1 REVERT JUMPDEST POP GAS CALL ISZERO DUP1 ISZERO PUSH2 0xD4C JUMPI RETURNDATASIZE PUSH1 0x0 DUP1 RETURNDATACOPY RETURNDATASIZE PUSH1 0x0 REVERT JUMPDEST POP POP POP POP POP POP POP POP POP JUMP JUMPDEST PUSH1 0x0 PUSH2 0xD61 PUSH2 0x1587 JUMP JUMPDEST PUSH2 0xFFFF DUP5 AND PUSH1 0x0 SWAP1 DUP2 MSTORE PUSH1 0x20 SWAP2 SWAP1 SWAP2 MSTORE PUSH1 0x40 DUP2 KECCAK256 SLOAD PUSH1 0x1 PUSH1 0x1 PUSH1 0xA0 SHL SUB AND SWAP2 POP DUP3 SLT ISZERO PUSH2 0xD8C JUMPI SWAP3 SWAP4 SWAP3 JUMPDEST PUSH1 0x0 PUSH2 0xD97 DUP4 PUSH2 0x1566 JUMP JUMPDEST SWAP1 POP PUSH2 0xDA2 DUP5 PUSH2 0x1594 JUMP JUMPDEST ISZERO PUSH2 0xDFC JUMPI PUSH1 0x1 PUSH1 0x1 PUSH1 0xA0 SHL SUB DUP1 DUP7 AND SWAP1 DUP8 AND CALLER PUSH32 0xC3D58168C5AE7397731D063D5BBF3D657854427343F4C083240F7AACAA2D0F62 PUSH2 0xDE0 DUP9 PUSH2 0x15B1 JUMP JUMPDEST DUP6 PUSH1 0x40 MLOAD PUSH2 0xDEF SWAP3 SWAP2 SWAP1 PUSH2 0x4C0D JUMP JUMPDEST PUSH1 0x40 MLOAD DUP1 SWAP2 SUB SWAP1 LOG4 PUSH2 0xE5F JUMP JUMPDEST PUSH1 0x40 MLOAD PUSH4 0x23DE6651 PUSH1 0xE0 SHL DUP2 MSTORE PUSH1 0x1 PUSH1 0x1 PUSH1 0xA0 SHL SUB DUP4 AND SWAP1 PUSH4 0x23DE6651 SWAP1 PUSH2 0xE2C SWAP1 DUP10 SWAP1 DUP10 SWAP1 DUP7 SWAP1 PUSH1 0x4 ADD PUSH2 0x4B4E JUMP JUMPDEST PUSH1 0x0 PUSH1 0x40 MLOAD DUP1 DUP4 SUB DUP2 PUSH1 0x0 DUP8 DUP1 EXTCODESIZE ISZERO DUP1 ISZERO PUSH2 0xE46 JUMPI PUSH1 0x0 DUP1 REVERT JUMPDEST POP GAS CALL ISZERO DUP1 ISZERO PUSH2 0xE5A JUMPI RETURNDATASIZE PUSH1 0x0 DUP1 RETURNDATACOPY RETURNDATASIZE PUSH1 0x0 REVERT JUMPDEST POP POP POP POP JUMPDEST POP POP POP POP POP POP JUMP JUMPDEST PUSH1 0x0 DUP1 PUSH2 0xE84 DUP7 DUP9 PUSH1 0x0 ADD MLOAD DUP10 PUSH1 0x80 ADD MLOAD DUP11 PUSH2 0x120 ADD MLOAD DUP9 PUSH2 0x15C7 JUMP JUMPDEST SWAP2 POP PUSH1 0x0 PUSH2 0xEA3 DUP9 PUSH1 0x80 ADD MLOAD DUP10 PUSH1 0x60 ADD MLOAD PUSH2 0x137F SWAP1 SWAP2 SWAP1 PUSH4 0xFFFFFFFF AND JUMP JUMPDEST SWAP1 POP DUP4 DUP1 ISZERO PUSH2 0xEB2 JUMPI POP PUSH1 0x0 DUP2 SLT JUMPDEST DUP1 ISZERO PUSH2 0xECD JUMPI POP PUSH1 0x20 DUP9 ADD MLOAD PUSH1 0x0 SWAP1 PUSH2 0xECB SWAP1 DUP4 PUSH2 0x137F JUMP JUMPDEST SLT JUMPDEST ISZERO PUSH2 0xEF3 JUMPI DUP6 PUSH1 0xA0 ADD MLOAD PUSH2 0xEF3 JUMPI PUSH1 0x40 MLOAD PUSH3 0x461BCD PUSH1 0xE5 SHL DUP2 MSTORE PUSH1 0x4 ADD PUSH2 0x1B0 SWAP1 PUSH2 0x4C7D JUMP JUMPDEST DUP1 ISZERO PUSH2 0xF12 JUMPI PUSH1 0x20 DUP9 ADD MLOAD PUSH2 0xF08 SWAP1 DUP3 PUSH2 0x137F JUMP JUMPDEST PUSH1 0x20 DUP10 ADD MSTORE PUSH1 0x1 SWAP2 POP JUMPDEST PUSH1 0xA0 DUP9 ADD MLOAD ISZERO ISZERO DUP1 PUSH2 0xF27 JUMPI POP PUSH1 0xC0 DUP9 ADD MLOAD ISZERO ISZERO JUMPDEST ISZERO PUSH2 0xF90 JUMPI PUSH1 0x0 PUSH2 0xF57 DUP10 PUSH1 0xC0 ADD MLOAD PUSH2 0xF51 DUP12 PUSH1 0xA0 ADD MLOAD DUP13 PUSH1 0x40 ADD MLOAD PUSH2 0x137F SWAP1 SWAP2 SWAP1 PUSH4 0xFFFFFFFF AND JUMP JUMPDEST SWAP1 PUSH2 0x137F JUMP JUMPDEST SWAP1 POP PUSH1 0x0 DUP2 SLT ISZERO PUSH2 0xF7A JUMPI PUSH1 0x40 MLOAD PUSH3 0x461BCD PUSH1 0xE5 SHL DUP2 MSTORE PUSH1 0x4 ADD PUSH2 0x1B0 SWAP1 PUSH2 0x4D4D JUMP JUMPDEST PUSH2 0xF85 DUP10 DUP10 DUP4 PUSH2 0x166A JUMP JUMPDEST POP PUSH1 0x40 DUP10 ADD MSTORE PUSH1 0x1 SWAP2 POP JUMPDEST DUP2 ISZERO PUSH2 0xFBF JUMPI PUSH2 0xFBF DUP8 DUP10 PUSH1 0x0 ADD MLOAD DUP11 PUSH1 0x20 ADD MLOAD DUP12 PUSH1 0x40 ADD MLOAD DUP13 PUSH1 0xE0 ADD MLOAD DUP14 PUSH2 0x100 ADD MLOAD DUP15 PUSH2 0x120 ADD MLOAD PUSH2 0x1757 JUMP JUMPDEST DUP8 MLOAD PUSH1 0x20 DUP10 ADD MLOAD PUSH2 0xFEC SWAP2 PUSH2 0xFFFF AND SWAP1 ISZERO ISZERO DUP1 PUSH2 0xFDF JUMPI POP PUSH1 0x40 DUP11 ADD MLOAD ISZERO ISZERO JUMPDEST DUP9 SWAP2 SWAP1 PUSH1 0x1 PUSH1 0xFE SHL PUSH2 0x1892 JUMP JUMPDEST PUSH1 0x0 DUP9 PUSH1 0x20 ADD MLOAD SLT ISZERO PUSH2 0x1012 JUMPI PUSH1 0x20 DUP7 ADD DUP1 MLOAD PUSH1 0x1 PUSH1 0xF9 SHL OR PUSH1 0x1 PUSH1 0x1 PUSH1 0xF8 SHL SUB NOT AND SWAP1 MSTORE JUMPDEST POP POP SWAP6 SWAP5 POP POP POP POP POP JUMP JUMPDEST PUSH1 0x0 DUP1 PUSH2 0xB8C PUSH1 0x1 PUSH2 0x1A98 JUMP JUMPDEST PUSH1 0x0 DUP1 DUP3 PUSH1 0x40 ADD MLOAD SLT PUSH2 0x104F JUMPI PUSH1 0x40 MLOAD PUSH3 0x461BCD PUSH1 0xE5 SHL DUP2 MSTORE PUSH1 0x4 ADD PUSH2 0x1B0 SWAP1 PUSH2 0x4C31 JUMP JUMPDEST PUSH1 0x0 DUP3 PUSH1 0x60 ADD MLOAD SGT PUSH2 0x1073 JUMPI PUSH1 0x40 MLOAD PUSH3 0x461BCD PUSH1 0xE5 SHL DUP2 MSTORE PUSH1 0x4 ADD PUSH2 0x1B0 SWAP1 PUSH2 0x4CC7 JUMP JUMPDEST PUSH1 0x0 DUP1 PUSH2 0x1089 DUP5 DUP9 PUSH1 0x1 PUSH1 0x1 PUSH1 0x80 SHL SUB AND PUSH2 0x1AB1 JUMP JUMPDEST SWAP2 POP SWAP2 POP PUSH1 0x0 DUP3 SWAP1 POP PUSH1 0x0 DUP7 PUSH1 0x20 ADD MLOAD SGT ISZERO PUSH2 0x10E5 JUMPI DUP1 DUP7 PUSH1 0x20 ADD MLOAD SLT PUSH2 0x10C0 JUMPI PUSH2 0x10B3 DUP2 PUSH2 0x4CE JUMP JUMPDEST PUSH1 0x60 DUP8 ADD MSTORE POP PUSH1 0x0 PUSH2 0x10E5 JUMP JUMPDEST PUSH2 0x10CD DUP7 PUSH1 0x20 ADD MLOAD PUSH2 0x4CE JUMP JUMPDEST PUSH1 0x60 DUP8 ADD MSTORE PUSH1 0x20 DUP7 ADD MLOAD PUSH2 0x10E2 SWAP1 DUP3 SWAP1 PUSH2 0x1B57 JUMP JUMPDEST SWAP1 POP JUMPDEST PUSH1 0x0 DUP2 SGT DUP1 ISZERO PUSH2 0x10F9 JUMPI POP PUSH1 0x0 DUP6 PUSH1 0x80 ADD MLOAD SGT JUMPDEST ISZERO PUSH2 0x1116 JUMPI PUSH2 0x1113 DUP7 DUP7 DUP4 DUP11 PUSH1 0x1 PUSH1 0x1 PUSH1 0x60 SHL SUB AND PUSH2 0x1B73 JUMP JUMPDEST SWAP1 POP JUMPDEST PUSH1 0x0 DUP2 SGT ISZERO PUSH2 0x1134 JUMPI PUSH1 0x60 DUP7 ADD MLOAD PUSH2 0x112E SWAP1 DUP3 PUSH2 0x1C31 JUMP JUMPDEST PUSH1 0x60 DUP8 ADD MSTORE JUMPDEST POP SWAP7 SWAP6 POP POP POP POP POP POP JUMP JUMPDEST PUSH2 0x1147 PUSH2 0x4061 JUMP JUMPDEST DUP2 PUSH2 0x1164 JUMPI PUSH1 0x40 MLOAD PUSH3 0x461BCD PUSH1 0xE5 SHL DUP2 MSTORE PUSH1 0x4 ADD PUSH2 0x1B0 SWAP1 PUSH2 0x4CEE JUMP JUMPDEST PUSH2 0x116C PUSH2 0x4005 JUMP JUMPDEST PUSH2 0x1178 DUP2 DUP12 DUP10 DUP13 PUSH2 0x9DD JUMP JUMPDEST PUSH1 0x60 DUP2 ADD DUP7 SWAP1 MSTORE DUP6 ISZERO PUSH2 0x1191 JUMPI PUSH2 0x1191 DUP9 DUP12 DUP10 DUP10 PUSH2 0xCB1 JUMP JUMPDEST DUP5 ISZERO PUSH2 0x11A3 JUMPI PUSH2 0x11A3 DUP9 DUP12 DUP10 DUP9 PUSH2 0xD57 JUMP JUMPDEST DUP4 ISZERO PUSH2 0x11B8 JUMPI PUSH2 0x11B2 DUP7 PUSH2 0x4CE JUMP JUMPDEST PUSH1 0x80 DUP3 ADD MSTORE JUMPDEST PUSH1 0xA0 DUP2 ADD DUP6 SWAP1 MSTORE PUSH2 0x11CC DUP2 DUP12 DUP12 PUSH1 0x0 PUSH2 0x1C47 JUMP JUMPDEST POP SWAP8 SWAP10 SWAP9 POP POP POP POP POP POP POP POP POP JUMP JUMPDEST PUSH2 0x11E3 PUSH2 0x41B1 JUMP JUMPDEST PUSH2 0x4DC DUP3 TIMESTAMP PUSH2 0x1C57 JUMP JUMPDEST DUP2 PUSH2 0xFFFF AND PUSH1 0x0 LT DUP1 ISZERO PUSH2 0x1207 JUMPI POP PUSH2 0x3FFF PUSH2 0xFFFF DUP4 AND GT ISZERO JUMPDEST PUSH2 0x1210 JUMPI PUSH1 0x0 DUP1 REVERT JUMPDEST PUSH2 0xFFFF DUP3 AND DUP1 DUP6 MSTORE PUSH2 0x1223 SWAP1 DUP3 SWAP1 PUSH2 0x1D18 JUMP JUMPDEST ISZERO PUSH2 0x1252 JUMPI PUSH2 0x1238 DUP4 DUP4 DUP7 PUSH2 0x120 ADD MLOAD PUSH2 0x1DA2 JUMP JUMPDEST PUSH2 0x100 DUP9 ADD MSTORE PUSH1 0xE0 DUP8 ADD MSTORE PUSH1 0x40 DUP7 ADD MSTORE PUSH1 0x20 DUP6 ADD MSTORE PUSH2 0x1270 JUMP JUMPDEST PUSH1 0x0 PUSH1 0x20 DUP6 ADD DUP2 SWAP1 MSTORE PUSH1 0x40 DUP6 ADD DUP2 SWAP1 MSTORE PUSH1 0xE0 DUP6 ADD DUP2 SWAP1 MSTORE PUSH2 0x100 DUP6 ADD MSTORE JUMPDEST POP POP PUSH1 0x0 PUSH1 0x60 DUP4 ADD DUP2 SWAP1 MSTORE PUSH1 0x80 DUP4 ADD DUP2 SWAP1 MSTORE PUSH1 0xA0 DUP4 ADD DUP2 SWAP1 MSTORE PUSH1 0xC0 SWAP1 SWAP3 ADD SWAP2 SWAP1 SWAP2 MSTORE POP JUMP JUMPDEST PUSH1 0x0 DUP1 PUSH1 0x0 DUP6 SGT PUSH2 0x12AA JUMPI DUP3 PUSH1 0x40 ADD MLOAD PUSH2 0x12B0 JUMP JUMPDEST DUP3 PUSH1 0x60 ADD MLOAD JUMPDEST SWAP1 POP PUSH1 0x0 DUP2 SGT PUSH2 0x12BF JUMPI PUSH1 0x0 DUP1 REVERT JUMPDEST PUSH2 0x5D1 DUP2 PUSH2 0xAAB PUSH1 0x64 PUSH2 0xAA5 PUSH2 0x12D4 DUP10 PUSH2 0x4CE JUMP JUMPDEST DUP9 SWAP1 PUSH2 0x1E5C JUMP JUMPDEST DUP2 MLOAD PUSH1 0x0 SWAP1 PUSH2 0x12FD SWAP1 PUSH2 0xAAB DUP5 PUSH15 0xC097CE7BC90715B34B9F1000000000 PUSH2 0xB3E JUMP JUMPDEST SWAP4 SWAP3 POP POP POP JUMP JUMPDEST PUSH1 0x0 DUP2 PUSH1 0x0 NOT EQ DUP1 ISZERO PUSH2 0x131A JUMPI POP PUSH1 0x1 PUSH1 0xFF SHL DUP4 EQ JUMPDEST ISZERO PUSH2 0x1324 JUMPI PUSH1 0x0 DUP1 REVERT JUMPDEST DUP2 DUP4 DUP2 PUSH2 0x132D JUMPI INVALID JUMPDEST SDIV SWAP4 SWAP3 POP POP POP JUMP JUMPDEST PUSH1 0x0 DUP1 PUSH2 0x1348 PUSH1 0x64 PUSH2 0xAAB DUP7 PUSH1 0x28 PUSH2 0xB3E JUMP JUMPDEST SWAP1 POP DUP5 DUP5 DUP2 SGT ISZERO PUSH2 0x1356 JUMPI POP DUP4 JUMPDEST DUP2 DUP7 SLT ISZERO PUSH2 0x1361 JUMPI POP DUP1 JUMPDEST PUSH1 0x0 DUP5 SGT DUP1 ISZERO PUSH2 0x1370 JUMPI POP DUP4 DUP2 SGT JUMPDEST ISZERO PUSH2 0x5D1 JUMPI POP SWAP2 SWAP5 SWAP4 POP POP POP POP JUMP JUMPDEST DUP2 DUP2 ADD DUP3 DUP2 SLT ISZERO PUSH1 0x0 DUP4 SLT ISZERO EQ PUSH2 0xB8C JUMPI PUSH1 0x0 DUP1 REVERT JUMPDEST PUSH2 0x139D PUSH2 0x4182 JUMP JUMPDEST PUSH1 0x0 PUSH2 0x13A7 PUSH2 0x1E86 JUMP JUMPDEST PUSH1 0x0 DUP6 DUP2 MSTORE PUSH1 0x20 DUP3 DUP2 MSTORE PUSH1 0x40 DUP1 DUP4 KECCAK256 DUP8 ISZERO ISZERO DUP5 MSTORE DUP3 MSTORE SWAP2 DUP3 SWAP1 KECCAK256 DUP3 MLOAD PUSH1 0xA0 DUP2 ADD DUP5 MSTORE DUP2 SLOAD PUSH1 0x1 PUSH1 0x1 PUSH1 0xA0 SHL SUB DUP2 AND DUP3 MSTORE PUSH1 0xFF PUSH1 0x1 PUSH1 0xA0 SHL DUP3 DIV DUP2 AND ISZERO ISZERO SWAP5 DUP4 ADD SWAP5 SWAP1 SWAP5 MSTORE PUSH1 0x1 PUSH1 0xB0 SHL DUP2 DIV DUP5 AND PUSH1 0xA EXP SWAP5 DUP3 ADD SWAP5 SWAP1 SWAP5 MSTORE SWAP4 SWAP5 POP SWAP3 SWAP2 PUSH1 0x60 DUP4 ADD SWAP2 PUSH1 0x1 PUSH1 0xA8 SHL SWAP1 SWAP2 DIV AND PUSH1 0x5 DUP2 GT ISZERO PUSH2 0x141C JUMPI INVALID JUMPDEST DUP2 MSTORE PUSH1 0x0 PUSH1 0x20 SWAP1 SWAP2 ADD MSTORE SWAP6 SWAP5 POP POP POP POP POP JUMP JUMPDEST PUSH1 0x0 PUSH2 0x12FD PUSH15 0xC097CE7BC90715B34B9F1000000000 PUSH2 0xAAB DUP6 PUSH1 0x0 ADD MLOAD DUP6 PUSH2 0xB3E SWAP1 SWAP2 SWAP1 PUSH4 0xFFFFFFFF AND JUMP JUMPDEST PUSH1 0x0 PUSH4 0x5F5E100 DUP4 PUSH1 0x40 ADD MLOAD SLT ISZERO PUSH2 0x1483 JUMPI PUSH2 0x147C PUSH1 0x1 PUSH2 0xF51 DUP6 DUP6 PUSH2 0x1E93 JUMP JUMPDEST SWAP1 POP PUSH2 0xB8C JUMP JUMPDEST PUSH2 0x12FD DUP4 PUSH2 0x1492 DUP5 PUSH1 0x1 PUSH2 0x137F JUMP JUMPDEST PUSH2 0x1E93 JUMP JUMPDEST PUSH1 0x0 DUP1 PUSH1 0x0 PUSH2 0x14A5 DUP7 PUSH2 0x1ECB JUMP JUMPDEST SWAP1 POP DUP1 PUSH2 0x14B9 JUMPI PUSH1 0x0 DUP1 SWAP3 POP SWAP3 POP POP PUSH2 0x154F JUMP JUMPDEST PUSH1 0x0 PUSH2 0x14C8 DUP9 PUSH2 0xFFFF AND PUSH2 0xB92 JUMP JUMPDEST SWAP1 POP PUSH1 0x3 DUP2 PUSH1 0x60 ADD MLOAD PUSH1 0x5 DUP2 GT ISZERO PUSH2 0x14DC JUMPI INVALID JUMPDEST EQ ISZERO PUSH2 0x1523 JUMPI CALLVALUE DUP3 LT ISZERO PUSH2 0x14FC JUMPI PUSH2 0x14F7 DUP10 DUP4 CALLVALUE SUB DUP8 PUSH2 0x1EDE JUMP JUMPDEST PUSH2 0x151B JUMP JUMPDEST CALLVALUE DUP3 EQ PUSH2 0x151B JUMPI PUSH1 0x40 MLOAD PUSH3 0x461BCD PUSH1 0xE5 SHL DUP2 MSTORE PUSH1 0x4 ADD PUSH2 0x1B0 SWAP1 PUSH2 0x4C58 JUMP JUMPDEST DUP7 SWAP4 POP PUSH2 0x153D JUMP JUMPDEST PUSH2 0x153A PUSH2 0x1535 DUP3 PUSH1 0x0 ADD MLOAD DUP12 DUP6 PUSH2 0x1FAB JUMP JUMPDEST PUSH2 0x2133 JUMP JUMPDEST SWAP4 POP JUMPDEST PUSH2 0x154A DUP10 DUP10 DUP7 DUP5 DUP11 PUSH2 0x2149 JUMP JUMPDEST SWAP3 POP POP POP JUMPDEST SWAP6 POP SWAP6 SWAP4 POP POP POP POP JUMP JUMPDEST PUSH1 0x0 DUP1 PUSH2 0xB8C PUSH1 0x21 PUSH2 0x1A98 JUMP JUMPDEST PUSH1 0x0 DUP1 DUP3 SLT ISZERO PUSH2 0x1580 JUMPI PUSH2 0x1579 DUP3 PUSH2 0x4CE JUMP JUMPDEST SWAP1 POP PUSH2 0x4DF JUMP JUMPDEST POP DUP1 PUSH2 0x4DF JUMP JUMPDEST PUSH1 0x0 DUP1 PUSH2 0xB8C PUSH1 0x3 PUSH2 0x1A98 JUMP JUMPDEST PUSH1 0x0 CHAINID PUSH1 0x1 DUP2 EQ DUP1 ISZERO PUSH2 0x12FD JUMPI POP POP POP PUSH1 0x4 PUSH2 0xFFFF SWAP1 SWAP2 AND GT ISZERO SWAP1 JUMP JUMPDEST PUSH1 0xC PUSH1 0x30 SWAP2 SWAP1 SWAP2 SHL PUSH8 0xFFFF000000000000 AND OR SWAP1 JUMP JUMPDEST PUSH1 0x0 DUP4 PUSH2 0x15D6 JUMPI POP PUSH1 0x0 PUSH2 0x5D1 JUMP JUMPDEST PUSH1 0x0 DUP5 SLT PUSH2 0x15E3 JUMPI PUSH1 0x0 DUP1 REVERT JUMPDEST PUSH1 0x0 PUSH2 0x15F2 DUP7 PUSH2 0xFFFF AND PUSH2 0xB92 JUMP JUMPDEST SWAP1 POP PUSH2 0x1602 DUP2 PUSH2 0x1492 DUP7 DUP9 PUSH2 0x142F JUMP JUMPDEST SWAP2 POP PUSH1 0x0 PUSH2 0x160F DUP4 PUSH2 0x4CE JUMP JUMPDEST SWAP1 POP PUSH2 0x161C DUP8 DUP4 DUP4 PUSH2 0x2190 JUMP JUMPDEST PUSH1 0x3 DUP3 PUSH1 0x60 ADD MLOAD PUSH1 0x5 DUP2 GT ISZERO PUSH2 0x162E JUMPI INVALID JUMPDEST EQ ISZERO PUSH2 0x1644 JUMPI PUSH2 0x163F DUP9 DUP3 DUP7 PUSH2 0x1EDE JUMP JUMPDEST PUSH2 0x1651 JUMP JUMPDEST DUP2 MLOAD PUSH2 0x1651 SWAP1 DUP10 DUP4 PUSH2 0x2284 JUMP JUMPDEST PUSH2 0x165E DUP9 DUP9 DUP6 DUP6 DUP10 PUSH2 0x2149 JUMP JUMPDEST POP POP POP SWAP6 SWAP5 POP POP POP POP POP JUMP JUMPDEST DUP3 MLOAD PUSH1 0x0 SWAP1 TIMESTAMP SWAP1 DUP3 SWAP1 PUSH2 0x1680 SWAP1 PUSH2 0xFFFF AND PUSH2 0x22FB JUMP JUMPDEST SWAP1 POP PUSH1 0x0 PUSH2 0x1693 DUP3 DUP9 PUSH1 0xC0 ADD MLOAD DUP6 PUSH2 0x2321 JUMP JUMPDEST SWAP1 POP PUSH2 0x16A1 DUP8 DUP4 DUP4 DUP9 PUSH2 0x2404 JUMP JUMPDEST SWAP4 POP PUSH1 0x0 PUSH2 0x16AE DUP4 PUSH2 0x2531 JUMP JUMPDEST SWAP1 POP PUSH1 0x1 PUSH1 0x1 PUSH1 0xA0 SHL SUB DUP2 AND ISZERO PUSH2 0x173C JUMPI DUP1 PUSH1 0x1 PUSH1 0x1 PUSH1 0xA0 SHL SUB AND PUSH4 0x1D684DD2 DUP9 DUP11 PUSH1 0x0 ADD MLOAD PUSH2 0x16E1 DUP13 PUSH1 0x40 ADD MLOAD PUSH2 0x1ECB JUMP JUMPDEST DUP11 DUP14 PUSH1 0xC0 ADD MLOAD DUP12 PUSH1 0x40 MLOAD DUP8 PUSH4 0xFFFFFFFF AND PUSH1 0xE0 SHL DUP2 MSTORE PUSH1 0x4 ADD PUSH2 0x1709 SWAP7 SWAP6 SWAP5 SWAP4 SWAP3 SWAP2 SWAP1 PUSH2 0x4BB0 JUMP JUMPDEST PUSH1 0x0 PUSH1 0x40 MLOAD DUP1 DUP4 SUB DUP2 PUSH1 0x0 DUP8 DUP1 EXTCODESIZE ISZERO DUP1 ISZERO PUSH2 0x1723 JUMPI PUSH1 0x0 DUP1 REVERT JUMPDEST POP GAS CALL ISZERO DUP1 ISZERO PUSH2 0x1737 JUMPI RETURNDATASIZE PUSH1 0x0 DUP1 RETURNDATACOPY RETURNDATASIZE PUSH1 0x0 REVERT JUMPDEST POP POP POP POP JUMPDEST DUP5 ISZERO PUSH2 0x174C JUMPI PUSH2 0x174C DUP8 DUP7 PUSH2 0x25A3 JUMP JUMPDEST POP POP POP POP SWAP4 SWAP3 POP POP POP JUMP JUMPDEST PUSH1 0x0 PUSH2 0x1761 PUSH2 0x25C6 JUMP JUMPDEST PUSH1 0x1 PUSH1 0x1 PUSH1 0xA0 SHL SUB DUP10 AND PUSH1 0x0 SWAP1 DUP2 MSTORE PUSH1 0x20 DUP3 DUP2 MSTORE PUSH1 0x40 DUP1 DUP4 KECCAK256 PUSH2 0xFFFF DUP13 AND DUP5 MSTORE SWAP1 SWAP2 MSTORE SWAP1 KECCAK256 SWAP1 SWAP2 POP DUP5 PUSH2 0x17C9 JUMPI PUSH7 0xFFFFFFFFFFFFFF DUP5 GT ISZERO PUSH2 0x17A2 JUMPI PUSH1 0x0 DUP1 REVERT JUMPDEST DUP1 SLOAD PUSH7 0xFFFFFFFFFFFFFF PUSH1 0x70 SHL NOT AND PUSH1 0x1 PUSH1 0x70 SHL PUSH7 0xFFFFFFFFFFFFFF DUP7 AND MUL OR DUP2 SSTORE PUSH2 0x17E3 JUMP JUMPDEST DUP1 SLOAD PUSH1 0x1 PUSH1 0x50 SHL SWAP1 DIV PUSH4 0xFFFFFFFF AND DUP6 EQ PUSH2 0x17E3 JUMPI PUSH1 0x0 DUP1 REVERT JUMPDEST PUSH2 0x17EC DUP6 PUSH2 0x25D3 JUMP JUMPDEST DUP2 SLOAD PUSH4 0xFFFFFFFF SWAP2 SWAP1 SWAP2 AND PUSH1 0x1 PUSH1 0x50 SHL MUL PUSH4 0xFFFFFFFF PUSH1 0x50 SHL NOT SWAP1 SWAP2 AND OR DUP2 SSTORE PUSH2 0x181D PUSH2 0x1818 DUP8 PUSH2 0x1ECB JUMP JUMPDEST PUSH2 0x25E6 JUMP JUMPDEST DUP2 SLOAD PUSH10 0xFFFFFFFFFFFFFFFFFFFF NOT AND PUSH1 0x1 PUSH1 0x1 PUSH1 0x50 SHL SUB SWAP2 SWAP1 SWAP2 AND OR DUP1 DUP3 SSTORE PUSH2 0x1863 SWAP1 PUSH2 0x185E SWAP1 DUP6 SWAP1 DUP13 SWAP1 DUP13 SWAP1 PUSH1 0x1 PUSH1 0xA8 SHL SWAP1 DIV PUSH1 0xA SWAP1 DUP2 SIGNEXTEND SWAP1 SIGNEXTEND DUP13 PUSH2 0x25FC JUMP JUMPDEST PUSH2 0x261F JUMP JUMPDEST DUP2 SLOAD PUSH1 0xA SWAP2 SWAP1 SWAP2 SIGNEXTEND PUSH1 0x1 PUSH1 0x1 PUSH1 0x58 SHL SUB AND PUSH1 0x1 PUSH1 0xA8 SHL MUL PUSH1 0x1 PUSH1 0x1 PUSH1 0xA8 SHL SUB SWAP1 SWAP2 AND OR SWAP1 SSTORE POP POP POP POP POP POP POP POP JUMP JUMPDEST DUP3 PUSH1 0x0 LT DUP1 ISZERO PUSH2 0x18A4 JUMPI POP PUSH2 0x3FFF DUP4 GT ISZERO JUMPDEST PUSH2 0x18AD JUMPI PUSH1 0x0 DUP1 REVERT JUMPDEST DUP2 DUP1 ISZERO PUSH2 0x18C1 JUMPI POP DUP3 DUP5 PUSH1 0x60 ADD MLOAD PUSH2 0xFFFF AND EQ JUMPDEST ISZERO PUSH2 0x18CB JUMPI PUSH2 0x5F8 JUMP JUMPDEST PUSH1 0x80 DUP5 ADD MLOAD PUSH1 0x0 SWAP1 DUP2 JUMPDEST PUSH1 0x1 PUSH1 0x1 PUSH1 0x70 SHL SUB NOT DUP3 AND ISZERO PUSH2 0x1A4D JUMPI PUSH1 0xF0 DUP3 SWAP1 SHR PUSH2 0x3FFF AND DUP7 DUP2 EQ DUP1 ISZERO PUSH2 0x18FA JUMPI POP DUP6 JUMPDEST ISZERO PUSH2 0x1932 JUMPI POP PUSH1 0x80 DUP8 ADD DUP1 MLOAD PUSH1 0x1 PUSH1 0x1 PUSH1 0xF0 SHL SUB NOT DUP7 AND PUSH1 0x10 SWAP1 SWAP4 MUL SWAP3 SWAP1 SWAP3 SHR SWAP2 SWAP1 SWAP2 OR PUSH1 0x1 PUSH1 0x1 PUSH1 0x70 SHL SUB NOT AND SWAP1 MSTORE POP PUSH2 0x5F8 SWAP1 POP JUMP JUMPDEST DUP7 DUP2 EQ DUP1 ISZERO PUSH2 0x193F JUMPI POP DUP6 ISZERO JUMPDEST ISZERO PUSH2 0x199B JUMPI PUSH1 0x1 PUSH1 0x1 PUSH1 0xF0 SHL SUB NOT DUP6 AND NOT SWAP3 SWAP1 SWAP3 AND SWAP2 PUSH1 0x3 PUSH1 0xFE SHL DUP4 AND PUSH2 0x1979 JUMPI PUSH1 0x10 DUP4 PUSH14 0xFFFFFFFFFFFFFFFFFFFFFFFFFFFF NOT AND SWAP1 SHL SWAP3 POP JUMPDEST POP PUSH1 0x1 PUSH1 0x1 PUSH1 0x70 SHL SUB NOT SWAP2 DUP3 AND PUSH1 0x10 SWAP1 SWAP2 MUL SHR SWAP2 SWAP1 SWAP2 OR AND PUSH1 0x80 DUP6 ADD MSTORE PUSH2 0x5F8 JUMP JUMPDEST DUP7 DUP2 GT DUP1 ISZERO PUSH2 0x19A7 JUMPI POP DUP6 JUMPDEST ISZERO PUSH2 0x1A01 JUMPI PUSH1 0x80 DUP9 DUP2 ADD MLOAD PUSH1 0x1 PUSH1 0x1 PUSH1 0xF0 SHL SUB NOT PUSH1 0xF0 DUP11 SWAP1 SHL DUP9 OR DUP2 AND PUSH1 0x10 DUP7 MUL SHR SWAP7 SWAP1 SWAP7 OR SWAP6 SWAP2 SHL AND ISZERO PUSH2 0x19DB JUMPI PUSH1 0x0 DUP1 REVERT JUMPDEST POP PUSH1 0x1 PUSH1 0x1 PUSH1 0x70 SHL SUB NOT SWAP2 DUP3 AND PUSH1 0x1 SWAP2 SWAP1 SWAP2 ADD PUSH1 0x10 MUL SHR SWAP2 SWAP1 SWAP2 OR AND PUSH1 0x80 DUP6 ADD MSTORE PUSH2 0x5F8 JUMP JUMPDEST DUP7 DUP2 GT DUP1 ISZERO PUSH2 0x1A0E JUMPI POP DUP6 ISZERO JUMPDEST ISZERO PUSH2 0x1A1C JUMPI POP POP POP POP PUSH2 0x5F8 JUMP JUMPDEST POP PUSH1 0x1 PUSH1 0x1 PUSH1 0xF0 SHL SUB NOT DUP3 AND PUSH1 0x10 DUP3 DUP2 MUL SWAP2 SWAP1 SWAP2 SHR SWAP4 SWAP1 SWAP4 OR SWAP3 SWAP2 SWAP1 SWAP2 SHL PUSH1 0x1 PUSH1 0x1 PUSH1 0x80 SHL SUB NOT AND SWAP1 PUSH1 0x1 ADD PUSH2 0x18D5 JUMP JUMPDEST DUP5 PUSH2 0x1A5A JUMPI POP POP POP PUSH2 0x5F8 JUMP JUMPDEST PUSH1 0x9 DUP2 LT PUSH2 0x1A67 JUMPI PUSH1 0x0 DUP1 REVERT JUMPDEST PUSH1 0x1 PUSH1 0x1 PUSH1 0xF0 SHL SUB NOT PUSH1 0xF0 DUP8 SWAP1 SHL DUP6 OR AND PUSH1 0x10 SWAP1 SWAP2 MUL SHR SWAP2 SWAP1 SWAP2 OR PUSH1 0x1 PUSH1 0x1 PUSH1 0x70 SHL SUB NOT AND PUSH1 0x80 DUP7 ADD MSTORE POP POP POP POP POP JUMP JUMPDEST PUSH1 0x0 PUSH3 0xF4240 DUP3 PUSH1 0x26 DUP2 GT ISZERO PUSH2 0x1AAA JUMPI INVALID JUMPDEST ADD SWAP3 SWAP2 POP POP JUMP JUMPDEST PUSH1 0x0 DUP1 PUSH1 0x0 DUP1 PUSH2 0x1AC0 DUP7 PUSH2 0x2651 JUMP JUMPDEST SWAP2 POP SWAP2 POP PUSH1 0x0 PUSH2 0x1AF8 DUP8 PUSH1 0xE0 ADD MLOAD PUSH1 0x60 ADD MLOAD PUSH2 0x1AF2 DUP5 PUSH2 0xAAB PUSH1 0x64 DUP13 PUSH1 0xC0 ADD MLOAD PUSH1 0x40 ADD MLOAD PUSH2 0xB3E SWAP1 SWAP2 SWAP1 PUSH4 0xFFFFFFFF AND JUMP JUMPDEST SWAP1 PUSH2 0x1C31 JUMP JUMPDEST SWAP1 POP PUSH2 0x1B09 DUP2 PUSH2 0xAAB DUP6 PUSH1 0x64 PUSH2 0xB3E JUMP JUMPDEST SWAP5 POP POP PUSH2 0x1B1B DUP5 DUP8 PUSH1 0x60 ADD MLOAD DUP8 PUSH2 0x1335 JUMP JUMPDEST SWAP4 POP PUSH1 0x0 PUSH2 0x1B3B DUP6 DUP9 PUSH2 0x120 ADD MLOAD PUSH1 0x40 ADD MLOAD PUSH2 0x142F SWAP1 SWAP2 SWAP1 PUSH4 0xFFFFFFFF AND JUMP JUMPDEST SWAP1 POP PUSH2 0x1B49 DUP8 DUP4 DUP4 DUP9 PUSH2 0x26A5 JUMP JUMPDEST SWAP1 SWAP9 SWAP1 SWAP8 POP SWAP6 POP POP POP POP POP POP JUMP JUMPDEST PUSH1 0x0 PUSH2 0x1B63 DUP4 DUP4 PUSH2 0x1C31 JUMP JUMPDEST SWAP1 POP PUSH1 0x0 DUP2 SLT ISZERO PUSH2 0xB8C JUMPI PUSH1 0x0 DUP1 REVERT JUMPDEST PUSH1 0xA0 DUP4 ADD MLOAD PUSH1 0x80 DUP5 ADD MLOAD PUSH1 0x0 SWAP2 DUP1 DUP4 BYTE SWAP2 PUSH1 0x3 SWAP2 SWAP1 SWAP2 BYTE SWAP1 DUP4 SWAP1 PUSH2 0x1BB6 SWAP1 PUSH2 0x1B9B SWAP1 DUP6 PUSH2 0xB3E JUMP JUMPDEST PUSH2 0xAAB DUP5 PUSH2 0xAA5 DUP13 PUSH1 0x40 ADD MLOAD DUP12 PUSH2 0xB3E SWAP1 SWAP2 SWAP1 PUSH4 0xFFFFFFFF AND JUMP JUMPDEST SWAP1 POP PUSH1 0x0 DUP6 SGT DUP1 ISZERO PUSH2 0x1BC7 JUMPI POP DUP5 DUP2 SGT JUMPDEST ISZERO PUSH2 0x1BCF JUMPI POP DUP4 JUMPDEST DUP8 PUSH1 0x40 ADD MLOAD DUP2 SGT ISZERO PUSH2 0x1BE2 JUMPI POP PUSH1 0x40 DUP8 ADD MLOAD JUMPDEST PUSH2 0x1BEB DUP2 PUSH2 0x4CE JUMP JUMPDEST DUP9 PUSH1 0xA0 ADD DUP2 DUP2 MSTORE POP POP PUSH2 0x1C25 PUSH2 0x1C1E DUP10 PUSH1 0x40 ADD MLOAD PUSH2 0xAAB DUP6 PUSH2 0xAAB DUP9 PUSH2 0xAA5 DUP15 PUSH1 0x80 ADD MLOAD DUP10 PUSH2 0xB3E SWAP1 SWAP2 SWAP1 PUSH4 0xFFFFFFFF AND JUMP JUMPDEST DUP8 SWAP1 PUSH2 0x1B57 JUMP JUMPDEST SWAP9 SWAP8 POP POP POP POP POP POP POP POP JUMP JUMPDEST DUP1 DUP3 SUB DUP3 DUP2 SGT ISZERO PUSH1 0x0 DUP4 SLT ISZERO EQ PUSH2 0xB8C JUMPI PUSH1 0x0 DUP1 REVERT JUMPDEST PUSH1 0x0 PUSH2 0x5D1 DUP6 DUP6 DUP6 DUP6 PUSH1 0x1 PUSH2 0xE67 JUMP JUMPDEST PUSH2 0x1C5F PUSH2 0x41B1 JUMP JUMPDEST PUSH1 0x0 PUSH2 0x1C6A DUP5 PUSH2 0x2732 JUMP JUMPDEST SWAP1 POP DUP3 DUP2 PUSH1 0x0 ADD MLOAD LT ISZERO PUSH2 0x1CA9 JUMPI PUSH1 0x0 DUP1 PUSH2 0x1C84 DUP7 PUSH2 0x27FA JUMP JUMPDEST SWAP1 POP PUSH2 0x1C92 DUP7 DUP5 DUP4 DUP9 PUSH2 0x2877 JUMP JUMPDEST SWAP1 SWAP4 POP SWAP2 POP PUSH2 0x1CA2 DUP7 DUP4 DUP6 PUSH2 0x2978 JUMP JUMPDEST POP POP PUSH2 0x1CB6 JUMP JUMPDEST DUP1 MLOAD DUP4 EQ PUSH2 0x1CB6 JUMPI PUSH1 0x0 DUP1 REVERT JUMPDEST PUSH1 0x40 MLOAD DUP1 PUSH1 0x60 ADD PUSH1 0x40 MSTORE DUP1 PUSH2 0x1CDF PUSH2 0x1535 DUP5 PUSH1 0xA0 ADD MLOAD DUP6 PUSH1 0xC0 ADD MLOAD PUSH2 0x2BAC SWAP1 SWAP2 SWAP1 PUSH4 0xFFFFFFFF AND JUMP JUMPDEST DUP2 MSTORE PUSH1 0x20 ADD PUSH2 0x1D02 PUSH2 0x1535 DUP5 PUSH1 0xA0 ADD MLOAD DUP6 PUSH1 0xE0 ADD MLOAD PUSH2 0x2BAC SWAP1 SWAP2 SWAP1 PUSH4 0xFFFFFFFF AND JUMP JUMPDEST DUP2 MSTORE PUSH1 0x20 ADD DUP3 PUSH1 0x60 ADD MLOAD DUP2 MSTORE POP SWAP2 POP POP SWAP3 SWAP2 POP POP JUMP JUMPDEST PUSH1 0x0 DUP2 ISZERO DUP1 ISZERO SWAP1 PUSH2 0x1D2B JUMPI POP PUSH2 0x3FFF DUP3 GT ISZERO JUMPDEST PUSH2 0x1D34 JUMPI PUSH1 0x0 DUP1 REVERT JUMPDEST PUSH1 0x80 DUP4 ADD MLOAD PUSH1 0x60 DUP5 ADD MLOAD PUSH2 0xFFFF AND DUP4 EQ ISZERO PUSH2 0x1D53 JUMPI PUSH1 0x1 SWAP2 POP POP PUSH2 0xB8C JUMP JUMPDEST PUSH1 0x1 PUSH1 0x1 PUSH1 0x70 SHL SUB NOT DUP2 AND ISZERO PUSH2 0x1D98 JUMPI PUSH1 0xF0 DUP2 SWAP1 SHR PUSH2 0x3FFF AND DUP4 DUP2 EQ ISZERO PUSH2 0x1D85 JUMPI POP PUSH1 0x1 PUSH1 0xFE SHL SWAP1 DUP2 AND EQ SWAP1 POP PUSH2 0xB8C JUMP JUMPDEST POP PUSH1 0x10 SHL PUSH1 0x1 PUSH1 0x1 PUSH1 0x80 SHL SUB NOT AND PUSH2 0x1D53 JUMP JUMPDEST POP PUSH1 0x0 SWAP4 SWAP3 POP POP POP JUMP JUMPDEST PUSH1 0x0 DUP1 PUSH1 0x0 DUP1 PUSH1 0x0 PUSH2 0x1DB2 PUSH2 0x25C6 JUMP JUMPDEST PUSH1 0x1 PUSH1 0x1 PUSH1 0xA0 SHL SUB DUP10 AND PUSH1 0x0 SWAP1 DUP2 MSTORE PUSH1 0x20 DUP3 DUP2 MSTORE PUSH1 0x40 DUP1 DUP4 KECCAK256 PUSH2 0xFFFF DUP13 AND DUP5 MSTORE SWAP1 SWAP2 MSTORE SWAP1 KECCAK256 DUP1 SLOAD PUSH1 0x1 PUSH1 0x1 PUSH1 0x50 SHL SUB DUP2 AND SWAP7 POP PUSH1 0x1 PUSH1 0x50 SHL SWAP1 DIV PUSH4 0xFFFFFFFF AND SWAP5 POP SWAP1 SWAP2 POP DUP4 ISZERO PUSH2 0x1E1F JUMPI DUP1 SLOAD PUSH2 0x1E18 SWAP1 PUSH1 0x1 PUSH1 0x70 SHL SWAP1 DIV PUSH7 0xFFFFFFFFFFFFFF AND PUSH2 0x2BD3 JUMP JUMPDEST SWAP3 POP PUSH2 0x1E34 JUMP JUMPDEST DUP1 SLOAD PUSH1 0x1 PUSH1 0x70 SHL SWAP1 DIV PUSH7 0xFFFFFFFFFFFFFF AND SWAP3 POP JUMPDEST DUP1 SLOAD PUSH2 0x1E4F SWAP1 DUP9 SWAP1 PUSH1 0x1 PUSH1 0xA8 SHL SWAP1 DIV PUSH1 0xA SWAP1 DUP2 SIGNEXTEND SWAP1 SIGNEXTEND PUSH2 0x2BE1 JUMP JUMPDEST SWAP6 POP POP POP SWAP4 POP SWAP4 POP SWAP4 POP SWAP4 JUMP JUMPDEST PUSH1 0x0 DUP1 PUSH2 0x1E7E DUP5 PUSH1 0x20 ADD MLOAD PUSH2 0xAAB DUP7 PUSH1 0x0 ADD MLOAD DUP7 PUSH2 0xB3E SWAP1 SWAP2 SWAP1 PUSH4 0xFFFFFFFF AND JUMP JUMPDEST SWAP5 SWAP4 POP POP POP POP JUMP JUMPDEST PUSH1 0x0 DUP1 PUSH2 0xB8C PUSH1 0x7 PUSH2 0x1A98 JUMP JUMPDEST PUSH1 0x0 PUSH4 0x5F5E100 DUP4 PUSH1 0x40 ADD MLOAD EQ ISZERO PUSH2 0x1EAC JUMPI POP DUP1 PUSH2 0xB8C JUMP JUMPDEST PUSH2 0x12FD PUSH4 0x5F5E100 PUSH2 0xAAB DUP6 PUSH1 0x40 ADD MLOAD DUP6 PUSH2 0xB3E SWAP1 SWAP2 SWAP1 PUSH4 0xFFFFFFFF AND JUMP JUMPDEST PUSH1 0x0 DUP1 DUP3 SLT ISZERO PUSH2 0x1EDA JUMPI PUSH1 0x0 DUP1 REVERT JUMPDEST POP SWAP1 JUMP JUMPDEST DUP1 ISZERO PUSH2 0x1F70 JUMPI PUSH20 0x82AF49447D8A07E3BD95BD0D56F35241523FBAB1 PUSH1 0x1 PUSH1 0x1 PUSH1 0xA0 SHL SUB AND PUSH4 0xD0E30DB0 DUP4 PUSH1 0x40 MLOAD DUP3 PUSH4 0xFFFFFFFF AND PUSH1 0xE0 SHL DUP2 MSTORE PUSH1 0x4 ADD PUSH1 0x0 PUSH1 0x40 MLOAD DUP1 DUP4 SUB DUP2 DUP6 DUP9 DUP1 EXTCODESIZE ISZERO DUP1 ISZERO PUSH2 0x1F33 JUMPI PUSH1 0x0 DUP1 REVERT JUMPDEST POP GAS CALL ISZERO DUP1 ISZERO PUSH2 0x1F47 JUMPI RETURNDATASIZE PUSH1 0x0 DUP1 RETURNDATACOPY RETURNDATASIZE PUSH1 0x0 REVERT JUMPDEST POP POP POP POP POP PUSH2 0x1F6B PUSH20 0x82AF49447D8A07E3BD95BD0D56F35241523FBAB1 DUP5 DUP5 PUSH2 0x2284 JUMP JUMPDEST PUSH2 0x1FA6 JUMP JUMPDEST PUSH1 0x40 MLOAD PUSH1 0x1 PUSH1 0x1 PUSH1 0xA0 SHL SUB DUP5 AND SWAP1 DUP4 ISZERO PUSH2 0x8FC MUL SWAP1 DUP5 SWAP1 PUSH1 0x0 DUP2 DUP2 DUP2 DUP6 DUP9 DUP9 CALL SWAP4 POP POP POP POP ISZERO DUP1 ISZERO PUSH2 0x5F8 JUMPI RETURNDATASIZE PUSH1 0x0 DUP1 RETURNDATACOPY RETURNDATASIZE PUSH1 0x0 REVERT JUMPDEST POP POP POP JUMP JUMPDEST PUSH1 0x0 DUP1 DUP5 PUSH1 0x1 PUSH1 0x1 PUSH1 0xA0 SHL SUB AND PUSH4 0x70A08231 ADDRESS PUSH1 0x40 MLOAD DUP3 PUSH4 0xFFFFFFFF AND PUSH1 0xE0 SHL DUP2 MSTORE PUSH1 0x4 ADD DUP1 DUP3 PUSH1 0x1 PUSH1 0x1 PUSH1 0xA0 SHL SUB AND DUP2 MSTORE PUSH1 0x20 ADD SWAP2 POP POP PUSH1 0x20 PUSH1 0x40 MLOAD DUP1 DUP4 SUB DUP2 DUP7 DUP1 EXTCODESIZE ISZERO DUP1 ISZERO PUSH2 0x1FFB JUMPI PUSH1 0x0 DUP1 REVERT JUMPDEST POP GAS STATICCALL ISZERO DUP1 ISZERO PUSH2 0x200F JUMPI RETURNDATASIZE PUSH1 0x0 DUP1 RETURNDATACOPY RETURNDATASIZE PUSH1 0x0 REVERT JUMPDEST POP POP POP POP PUSH1 0x40 MLOAD RETURNDATASIZE PUSH1 0x20 DUP2 LT ISZERO PUSH2 0x2025 JUMPI PUSH1 0x0 DUP1 REVERT JUMPDEST POP MLOAD PUSH1 0x40 DUP1 MLOAD PUSH4 0x23B872DD PUSH1 0xE0 SHL DUP2 MSTORE PUSH1 0x1 PUSH1 0x1 PUSH1 0xA0 SHL SUB DUP8 DUP2 AND PUSH1 0x4 DUP4 ADD MSTORE ADDRESS PUSH1 0x24 DUP4 ADD MSTORE PUSH1 0x44 DUP3 ADD DUP8 SWAP1 MSTORE SWAP2 MLOAD SWAP3 SWAP4 POP SWAP1 DUP8 AND SWAP2 PUSH4 0x23B872DD SWAP2 PUSH1 0x64 DUP1 DUP3 ADD SWAP3 PUSH1 0x0 SWAP3 SWAP1 SWAP2 SWAP1 DUP3 SWAP1 SUB ADD DUP2 DUP4 DUP8 DUP1 EXTCODESIZE ISZERO DUP1 ISZERO PUSH2 0x2082 JUMPI PUSH1 0x0 DUP1 REVERT JUMPDEST POP GAS CALL ISZERO DUP1 ISZERO PUSH2 0x2096 JUMPI RETURNDATASIZE PUSH1 0x0 DUP1 RETURNDATACOPY RETURNDATASIZE PUSH1 0x0 REVERT JUMPDEST POP POP POP POP PUSH2 0x20A2 PUSH2 0x2C08 JUMP JUMPDEST PUSH1 0x0 DUP6 PUSH1 0x1 PUSH1 0x1 PUSH1 0xA0 SHL SUB AND PUSH4 0x70A08231 ADDRESS PUSH1 0x40 MLOAD DUP3 PUSH4 0xFFFFFFFF AND PUSH1 0xE0 SHL DUP2 MSTORE PUSH1 0x4 ADD DUP1 DUP3 PUSH1 0x1 PUSH1 0x1 PUSH1 0xA0 SHL SUB AND DUP2 MSTORE PUSH1 0x20 ADD SWAP2 POP POP PUSH1 0x20 PUSH1 0x40 MLOAD DUP1 DUP4 SUB DUP2 DUP7 DUP1 EXTCODESIZE ISZERO DUP1 ISZERO PUSH2 0x20F1 JUMPI PUSH1 0x0 DUP1 REVERT JUMPDEST POP GAS STATICCALL ISZERO DUP1 ISZERO PUSH2 0x2105 JUMPI RETURNDATASIZE PUSH1 0x0 DUP1 RETURNDATACOPY RETURNDATASIZE PUSH1 0x0 REVERT JUMPDEST POP POP POP POP PUSH1 0x40 MLOAD RETURNDATASIZE PUSH1 0x20 DUP2 LT ISZERO PUSH2 0x211B JUMPI PUSH1 0x0 DUP1 REVERT JUMPDEST POP MLOAD SWAP1 POP PUSH2 0x2129 DUP2 DUP4 PUSH2 0x2C75 JUMP JUMPDEST SWAP7 SWAP6 POP POP POP POP POP POP JUMP JUMPDEST PUSH1 0x0 PUSH1 0x1 PUSH1 0x1 PUSH1 0xFF SHL SUB DUP3 GT ISZERO PUSH2 0x1EDA JUMPI PUSH1 0x0 DUP1 REVERT JUMPDEST PUSH1 0x0 DUP1 PUSH2 0x2156 DUP5 DUP7 PUSH2 0x2C8A JUMP JUMPDEST SWAP1 POP PUSH2 0x2162 DUP4 DUP3 PUSH2 0x12DB JUMP JUMPDEST SWAP2 POP PUSH2 0x216F DUP8 DUP8 DUP5 PUSH2 0x2CBA JUMP JUMPDEST PUSH2 0x217A DUP7 DUP4 DUP4 PUSH2 0x2D3A JUMP JUMPDEST DUP4 MLOAD PUSH2 0x2186 SWAP1 DUP7 PUSH2 0x2E2D JUMP JUMPDEST POP SWAP6 SWAP5 POP POP POP POP POP JUMP JUMPDEST PUSH1 0x0 PUSH2 0x219A PUSH2 0x2E87 JUMP JUMPDEST DUP4 MLOAD PUSH1 0x1 PUSH1 0x1 PUSH1 0xA0 SHL SUB AND PUSH1 0x0 SWAP1 DUP2 MSTORE PUSH1 0x20 DUP3 SWAP1 MSTORE PUSH1 0x40 SWAP1 KECCAK256 SLOAD SWAP1 SWAP2 POP DUP1 DUP4 GT PUSH2 0x21C5 JUMPI POP POP PUSH2 0x1FA6 JUMP JUMPDEST PUSH1 0x0 PUSH2 0x21D0 DUP7 PUSH2 0x2E94 JUMP JUMPDEST SWAP1 POP PUSH1 0x0 DUP2 PUSH1 0x1 PUSH1 0x1 PUSH1 0xA0 SHL SUB AND PUSH4 0xB5E4DA23 DUP7 PUSH1 0x40 MLOAD DUP3 PUSH4 0xFFFFFFFF AND PUSH1 0xE0 SHL DUP2 MSTORE PUSH1 0x4 ADD PUSH2 0x2200 SWAP2 SWAP1 PUSH2 0x4DB1 JUMP JUMPDEST PUSH1 0x0 PUSH1 0x40 MLOAD DUP1 DUP4 SUB DUP2 DUP7 DUP1 EXTCODESIZE ISZERO DUP1 ISZERO PUSH2 0x2218 JUMPI PUSH1 0x0 DUP1 REVERT JUMPDEST POP GAS STATICCALL ISZERO DUP1 ISZERO PUSH2 0x222C JUMPI RETURNDATASIZE PUSH1 0x0 DUP1 RETURNDATACOPY RETURNDATASIZE PUSH1 0x0 REVERT JUMPDEST POP POP POP POP PUSH1 0x40 MLOAD RETURNDATASIZE PUSH1 0x0 DUP3 RETURNDATACOPY PUSH1 0x1F RETURNDATASIZE SWAP1 DUP2 ADD PUSH1 0x1F NOT AND DUP3 ADD PUSH1 0x40 MSTORE PUSH2 0x2254 SWAP2 SWAP1 DUP2 ADD SWAP1 PUSH2 0x48E5 JUMP JUMPDEST SWAP1 POP PUSH1 0x0 PUSH2 0x2262 DUP8 DUP4 PUSH2 0x2EC4 JUMP JUMPDEST SWAP1 POP PUSH2 0x226E DUP5 DUP3 PUSH2 0x30CD JUMP JUMPDEST DUP7 GT ISZERO PUSH2 0x227A JUMPI PUSH1 0x0 DUP1 REVERT JUMPDEST POP POP POP POP POP POP POP POP JUMP JUMPDEST DUP3 PUSH1 0x1 PUSH1 0x1 PUSH1 0xA0 SHL SUB AND PUSH4 0xA9059CBB DUP4 DUP4 PUSH1 0x40 MLOAD DUP4 PUSH4 0xFFFFFFFF AND PUSH1 0xE0 SHL DUP2 MSTORE PUSH1 0x4 ADD DUP1 DUP4 PUSH1 0x1 PUSH1 0x1 PUSH1 0xA0 SHL SUB AND DUP2 MSTORE PUSH1 0x20 ADD DUP3 DUP2 MSTORE PUSH1 0x20 ADD SWAP3 POP POP POP PUSH1 0x0 PUSH1 0x40 MLOAD DUP1 DUP4 SUB DUP2 PUSH1 0x0 DUP8 DUP1 EXTCODESIZE ISZERO DUP1 ISZERO PUSH2 0x22DB JUMPI PUSH1 0x0 DUP1 REVERT JUMPDEST POP GAS CALL ISZERO DUP1 ISZERO PUSH2 0x22EF JUMPI RETURNDATASIZE PUSH1 0x0 DUP1 RETURNDATACOPY RETURNDATASIZE PUSH1 0x0 REVERT JUMPDEST POP POP POP POP PUSH2 0x1FA6 PUSH2 0x2C08 JUMP JUMPDEST PUSH1 0x0 DUP1 PUSH2 0x2306 PUSH2 0x1587 JUMP JUMPDEST PUSH1 0x0 SWAP4 DUP5 MSTORE PUSH1 0x20 MSTORE POP POP PUSH1 0x40 SWAP1 KECCAK256 SLOAD PUSH1 0x1 PUSH1 0x1 PUSH1 0xA0 SHL SUB AND SWAP1 JUMP JUMPDEST PUSH1 0x0 DUP1 PUSH1 0x0 PUSH2 0x2330 DUP7 DUP6 PUSH2 0x30DF JUMP JUMPDEST POP SWAP2 POP SWAP2 POP PUSH1 0x0 PUSH2 0x233F PUSH2 0x3175 JUMP JUMPDEST PUSH1 0x1 PUSH1 0x1 PUSH1 0xA0 SHL SUB DUP9 AND PUSH1 0x0 SWAP1 DUP2 MSTORE PUSH1 0x20 DUP3 SWAP1 MSTORE PUSH1 0x40 DUP2 KECCAK256 SWAP2 SWAP3 POP PUSH2 0x2364 DUP6 DUP10 PUSH2 0x137F JUMP JUMPDEST SWAP1 POP DUP1 PUSH1 0x0 SGT ISZERO DUP1 ISZERO PUSH2 0x237D JUMPI POP PUSH1 0x1 PUSH1 0x1 PUSH1 0x60 SHL SUB DUP2 LT JUMPDEST PUSH2 0x2386 JUMPI PUSH1 0x0 DUP1 REVERT JUMPDEST DUP2 SLOAD PUSH12 0xFFFFFFFFFFFFFFFFFFFFFFFF NOT AND PUSH1 0x1 PUSH1 0x1 PUSH1 0x60 SHL SUB DUP3 AND OR PUSH16 0xFFFFFFFFFFFFFFFFFFFFFFFFFFFFFFFF PUSH1 0x60 SHL NOT AND PUSH1 0x1 PUSH1 0x60 SHL PUSH1 0x1 PUSH1 0x1 PUSH1 0x80 SHL SUB DUP7 AND MUL OR DUP3 SSTORE PUSH4 0xFFFFFFFF DUP8 LT PUSH2 0x23DB JUMPI PUSH1 0x0 DUP1 REVERT JUMPDEST POP DUP1 SLOAD PUSH4 0xFFFFFFFF DUP8 AND PUSH1 0x1 PUSH1 0xE0 SHL MUL PUSH1 0x1 PUSH1 0x1 PUSH1 0xE0 SHL SUB SWAP1 SWAP2 AND OR SWAP1 SSTORE POP SWAP2 POP POP SWAP4 SWAP3 POP POP POP JUMP JUMPDEST PUSH1 0xE0 DUP5 ADD MLOAD PUSH1 0x0 SWAP1 ISZERO PUSH2 0x24C5 JUMPI PUSH20 0x0 PUSH4 0xE0C01A72 DUP6 PUSH2 0x2439 DUP9 PUSH1 0x40 ADD MLOAD PUSH2 0x1ECB JUMP JUMPDEST DUP9 PUSH1 0xE0 ADD MLOAD DUP10 PUSH2 0x100 ADD MLOAD PUSH1 0x40 MLOAD DUP6 PUSH4 0xFFFFFFFF AND PUSH1 0xE0 SHL DUP2 MSTORE PUSH1 0x4 ADD PUSH2 0x2463 SWAP5 SWAP4 SWAP3 SWAP2 SWAP1 PUSH2 0x4BE7 JUMP JUMPDEST PUSH1 0x20 PUSH1 0x40 MLOAD DUP1 DUP4 SUB DUP2 DUP7 DUP1 EXTCODESIZE ISZERO DUP1 ISZERO PUSH2 0x247B JUMPI PUSH1 0x0 DUP1 REVERT JUMPDEST POP GAS DELEGATECALL ISZERO DUP1 ISZERO PUSH2 0x248F JUMPI RETURNDATASIZE PUSH1 0x0 DUP1 RETURNDATACOPY RETURNDATASIZE PUSH1 0x0 REVERT JUMPDEST POP POP POP POP PUSH1 0x40 MLOAD RETURNDATASIZE PUSH1 0x1F NOT PUSH1 0x1F DUP3 ADD AND DUP3 ADD DUP1 PUSH1 0x40 MSTORE POP DUP2 ADD SWAP1 PUSH2 0x24B3 SWAP2 SWAP1 PUSH2 0x4AE5 JUMP JUMPDEST PUSH1 0x0 PUSH1 0xE0 DUP8 ADD DUP2 SWAP1 MSTORE PUSH2 0x100 DUP8 ADD MSTORE SWAP1 POP JUMPDEST PUSH2 0x2507 PUSH2 0x2500 DUP7 PUSH2 0x100 ADD MLOAD PUSH2 0x24FA PUSH8 0xDE0B6B3A7640000 PUSH2 0x24F4 DUP9 PUSH2 0x24EE DUP13 PUSH1 0x40 ADD MLOAD PUSH2 0x1ECB JUMP JUMPDEST SWAP1 PUSH2 0x2BAC JUMP JUMPDEST SWAP1 PUSH2 0x3182 JUMP JUMPDEST SWAP1 PUSH2 0x2C75 JUMP JUMPDEST DUP3 SWAP1 PUSH2 0x30CD JUMP JUMPDEST SWAP1 POP PUSH2 0x251F PUSH8 0xDE0B6B3A7640000 PUSH2 0x24F4 DUP5 DUP7 PUSH2 0x2BAC JUMP JUMPDEST DUP6 PUSH2 0x100 ADD DUP2 DUP2 MSTORE POP POP SWAP5 SWAP4 POP POP POP POP JUMP JUMPDEST PUSH1 0x0 DUP1 PUSH2 0x253C PUSH2 0x31A1 JUMP JUMPDEST PUSH1 0x1 PUSH1 0x1 PUSH1 0xA0 SHL SUB DUP5 AND PUSH1 0x0 SWAP1 DUP2 MSTORE PUSH1 0x20 DUP3 SWAP1 MSTORE PUSH1 0x40 SWAP1 KECCAK256 DUP1 SLOAD SWAP2 SWAP3 POP SWAP1 PUSH1 0x1 PUSH1 0xF8 SHL SWAP1 DIV PUSH1 0xFF AND ISZERO PUSH2 0x2598 JUMPI PUSH2 0x2571 PUSH2 0x31AE JUMP JUMPDEST PUSH1 0x1 PUSH1 0x1 PUSH1 0xA0 SHL SUB DUP1 DUP7 AND PUSH1 0x0 SWAP1 DUP2 MSTORE PUSH1 0x20 SWAP3 SWAP1 SWAP3 MSTORE PUSH1 0x40 SWAP1 SWAP2 KECCAK256 SLOAD AND SWAP3 POP PUSH2 0x4DF SWAP2 POP POP JUMP JUMPDEST PUSH1 0x0 SWAP3 POP POP POP PUSH2 0x4DF JUMP JUMPDEST PUSH2 0x25C2 PUSH20 0x19BE259BC299F3F653688C7655C87F998BC7BC1 DUP4 DUP4 PUSH2 0x2284 JUMP JUMPDEST POP POP JUMP JUMPDEST PUSH1 0x0 DUP1 PUSH2 0xB8C PUSH1 0x6 PUSH2 0x1A98 JUMP JUMPDEST PUSH1 0x0 PUSH4 0xFFFFFFFF DUP3 GT ISZERO PUSH2 0x1EDA JUMPI PUSH1 0x0 DUP1 REVERT JUMPDEST PUSH1 0x0 PUSH1 0x1 PUSH1 0x1 PUSH1 0x50 SHL SUB DUP3 GT ISZERO PUSH2 0x1EDA JUMPI PUSH1 0x0 DUP1 REVERT JUMPDEST PUSH1 0x0 PUSH2 0x2608 DUP7 DUP4 PUSH2 0x31BB JUMP JUMPDEST SWAP1 POP PUSH2 0x5D1 DUP7 DUP7 DUP7 PUSH2 0x261A DUP8 DUP7 PUSH2 0x31F4 JUMP JUMPDEST PUSH2 0x327B JUMP JUMPDEST PUSH1 0x0 PUSH11 0x7FFFFFFFFFFFFFFFFFFFFF NOT DUP3 SLT DUP1 ISZERO SWAP1 PUSH2 0x2648 JUMPI POP PUSH11 0x7FFFFFFFFFFFFFFFFFFFFF DUP3 SGT ISZERO JUMPDEST PUSH2 0x1EDA JUMPI PUSH1 0x0 DUP1 REVERT JUMPDEST PUSH1 0x0 DUP1 PUSH2 0x2682 PUSH2 0x2672 PUSH2 0x2667 DUP6 PUSH1 0x20 ADD MLOAD PUSH2 0x4CE JUMP JUMPDEST PUSH1 0xE0 DUP7 ADD MLOAD SWAP1 PUSH2 0x1E5C JUMP JUMPDEST PUSH2 0x120 DUP6 ADD MLOAD PUSH1 0x40 ADD MLOAD SWAP1 PUSH2 0x12DB JUMP JUMPDEST SWAP2 POP PUSH2 0x269E DUP4 PUSH1 0xE0 ADD MLOAD PUSH1 0x80 ADD MLOAD DUP5 PUSH1 0xC0 ADD MLOAD PUSH1 0x80 ADD MLOAD PUSH2 0x32A8 JUMP JUMPDEST SWAP1 POP SWAP2 POP SWAP2 JUMP JUMPDEST PUSH1 0x0 DUP1 PUSH1 0x0 PUSH2 0x26D8 DUP7 PUSH2 0xAAB PUSH2 0x26C3 DUP11 PUSH1 0xC0 ADD MLOAD DUP12 PUSH1 0xE0 ADD MLOAD PUSH2 0x32BE JUMP JUMPDEST PUSH1 0xC0 DUP12 ADD MLOAD MLOAD PUSH2 0xAAB SWAP1 PUSH2 0xAA5 DUP12 PUSH1 0x64 PUSH2 0xB3E JUMP JUMPDEST SWAP1 POP PUSH1 0x0 PUSH2 0x26F4 DUP3 DUP10 PUSH2 0x100 ADD MLOAD PUSH2 0x12DB SWAP1 SWAP2 SWAP1 PUSH4 0xFFFFFFFF AND JUMP JUMPDEST SWAP1 POP PUSH1 0x0 PUSH2 0x2705 DUP10 PUSH1 0x40 ADD MLOAD PUSH2 0x4CE JUMP JUMPDEST SWAP1 POP DUP1 DUP3 SGT ISZERO PUSH2 0x2723 JUMPI PUSH2 0x271D DUP3 PUSH2 0xAAB DUP9 DUP5 PUSH2 0xB3E JUMP JUMPDEST SWAP6 POP DUP1 SWAP2 POP JUMPDEST POP SWAP4 SWAP8 SWAP4 SWAP7 POP SWAP3 SWAP5 POP POP POP POP POP JUMP JUMPDEST PUSH2 0x273A PUSH2 0x41D2 JUMP JUMPDEST PUSH1 0x0 PUSH2 0x2744 PUSH2 0x32E3 JUMP JUMPDEST PUSH2 0xFFFF SWAP4 DUP5 AND PUSH1 0x0 SWAP1 DUP2 MSTORE PUSH1 0x20 SWAP2 DUP3 MSTORE PUSH1 0x40 SWAP1 DUP2 SWAP1 KECCAK256 DUP1 SLOAD PUSH5 0xFFFFFFFFFF DUP2 AND DUP7 MSTORE PUSH1 0x1 PUSH1 0x28 SHL DUP2 DIV PUSH1 0x1 PUSH1 0x1 PUSH1 0x58 SHL SUB SWAP1 DUP2 AND SWAP5 DUP8 ADD SWAP5 SWAP1 SWAP5 MSTORE PUSH1 0x1 DUP3 ADD SLOAD DUP5 AND SWAP3 DUP7 ADD SWAP3 SWAP1 SWAP3 MSTORE PUSH1 0x1 PUSH1 0xD8 SHL DUP3 DIV PUSH4 0xFFFFFFFF AND PUSH1 0x60 DUP7 ADD MSTORE PUSH1 0x1 PUSH1 0x80 SHL SWAP1 SWAP2 DIV SWAP1 SWAP2 AND PUSH1 0x80 DUP5 ADD MSTORE PUSH1 0x2 ADD SLOAD PUSH1 0x1 PUSH1 0x1 PUSH1 0x50 SHL SUB DUP1 DUP3 AND PUSH1 0xA0 DUP6 ADD MSTORE PUSH1 0x1 PUSH1 0x50 SHL DUP3 DIV DUP2 AND PUSH1 0xC0 DUP6 ADD MSTORE PUSH1 0x1 PUSH1 0xA0 SHL DUP3 DIV AND PUSH1 0xE0 DUP5 ADD MSTORE PUSH1 0x1 PUSH1 0xF0 SHL SWAP1 DIV PUSH1 0xFF AND PUSH2 0x12C MUL SWAP1 SWAP3 AND PUSH2 0x100 DUP3 ADD MSTORE SWAP2 SWAP1 POP JUMP JUMPDEST PUSH1 0x0 DUP1 PUSH2 0x2806 DUP4 PUSH2 0x2E94 JUMP JUMPDEST PUSH1 0x1 PUSH1 0x1 PUSH1 0xA0 SHL SUB AND PUSH4 0xEF81F216 PUSH1 0x40 MLOAD DUP2 PUSH4 0xFFFFFFFF AND PUSH1 0xE0 SHL DUP2 MSTORE PUSH1 0x4 ADD PUSH1 0x40 DUP1 MLOAD DUP1 DUP4 SUB DUP2 PUSH1 0x0 DUP8 DUP1 EXTCODESIZE ISZERO DUP1 ISZERO PUSH2 0x283F JUMPI PUSH1 0x0 DUP1 REVERT JUMPDEST POP GAS CALL ISZERO DUP1 ISZERO PUSH2 0x2853 JUMPI RETURNDATASIZE PUSH1 0x0 DUP1 RETURNDATACOPY RETURNDATASIZE PUSH1 0x0 REVERT JUMPDEST POP POP POP POP PUSH1 0x40 MLOAD RETURNDATASIZE PUSH1 0x1F NOT PUSH1 0x1F DUP3 ADD AND DUP3 ADD DUP1 PUSH1 0x40 MSTORE POP DUP2 ADD SWAP1 PUSH2 0x1E7E SWAP2 SWAP1 PUSH2 0x4AFD JUMP JUMPDEST PUSH2 0x287F PUSH2 0x41D2 JUMP JUMPDEST PUSH1 0x0 DUP1 PUSH1 0x0 PUSH2 0x288F DUP9 DUP7 DUP10 PUSH2 0x32F0 JUMP JUMPDEST PUSH1 0xC0 DUP12 ADD SWAP3 SWAP1 SWAP3 MSTORE PUSH1 0xE0 DUP11 ADD SWAP3 SWAP1 SWAP3 MSTORE PUSH1 0x20 DUP10 ADD MLOAD SWAP2 SWAP4 POP SWAP2 POP PUSH2 0x28B3 SWAP1 DUP4 PUSH2 0x30CD JUMP JUMPDEST PUSH1 0x20 DUP9 ADD MSTORE PUSH1 0x80 DUP8 ADD MLOAD PUSH1 0x0 SWAP1 ISZERO PUSH2 0x28E1 JUMPI PUSH1 0x80 DUP9 ADD MLOAD PUSH2 0x28DE SWAP1 PUSH2 0x28D8 DUP10 DUP3 PUSH2 0x2C75 JUMP JUMPDEST SWAP1 PUSH2 0x33FB JUMP JUMPDEST SWAP1 POP JUMPDEST PUSH2 0x2901 PUSH2 0x28F6 PUSH8 0xDE0B6B3A7640000 DUP4 PUSH2 0x30CD JUMP JUMPDEST PUSH1 0xA0 DUP11 ADD MLOAD SWAP1 PUSH2 0x3418 JUMP JUMPDEST PUSH1 0xA0 DUP10 ADD MSTORE POP PUSH1 0x80 DUP8 ADD DUP7 SWAP1 MSTORE PUSH1 0x0 PUSH2 0x2918 PUSH2 0x3435 JUMP JUMPDEST PUSH2 0xFFFF DUP11 AND PUSH1 0x0 SWAP1 DUP2 MSTORE PUSH1 0x20 SWAP2 SWAP1 SWAP2 MSTORE PUSH1 0x40 SWAP1 KECCAK256 SLOAD DUP9 MLOAD PUSH4 0xFFFFFFFF PUSH1 0x1 PUSH1 0xA0 SHL SWAP1 SWAP3 DIV DUP3 AND SWAP3 POP PUSH2 0x2963 SWAP2 PUSH2 0x2952 SWAP1 DUP6 SWAP1 DUP6 SWAP1 PUSH2 0x30CD AND JUMP JUMPDEST DUP11 PUSH1 0x60 ADD MLOAD DUP12 PUSH2 0x100 ADD MLOAD DUP11 PUSH2 0x3442 JUMP JUMPDEST PUSH1 0x60 DUP10 ADD MSTORE POP POP SWAP3 DUP6 MSTORE POP SWAP3 SWAP5 SWAP1 SWAP4 POP SWAP2 POP POP JUMP JUMPDEST PUSH1 0x0 PUSH2 0x2982 PUSH2 0x32E3 JUMP JUMPDEST PUSH1 0x0 DUP6 PUSH2 0xFFFF AND DUP2 MSTORE PUSH1 0x20 ADD SWAP1 DUP2 MSTORE PUSH1 0x20 ADD PUSH1 0x0 KECCAK256 SWAP1 POP PUSH2 0x29A6 DUP3 PUSH1 0x0 ADD MLOAD PUSH2 0x34D0 JUMP JUMPDEST DUP2 SLOAD PUSH5 0xFFFFFFFFFF NOT AND PUSH5 0xFFFFFFFFFF SWAP2 SWAP1 SWAP2 AND OR DUP2 SSTORE PUSH1 0xA0 DUP3 ADD MLOAD PUSH2 0x29CB SWAP1 PUSH2 0x25E6 JUMP JUMPDEST PUSH1 0x2 DUP3 ADD DUP1 SLOAD PUSH10 0xFFFFFFFFFFFFFFFFFFFF NOT AND PUSH1 0x1 PUSH1 0x1 PUSH1 0x50 SHL SUB SWAP3 SWAP1 SWAP3 AND SWAP2 SWAP1 SWAP2 OR SWAP1 SSTORE PUSH1 0xC0 DUP3 ADD MLOAD PUSH2 0x29FE SWAP1 PUSH2 0x25E6 JUMP JUMPDEST DUP2 PUSH1 0x2 ADD PUSH1 0xA PUSH2 0x100 EXP DUP2 SLOAD DUP2 PUSH1 0x1 PUSH1 0x1 PUSH1 0x50 SHL SUB MUL NOT AND SWAP1 DUP4 PUSH1 0x1 PUSH1 0x1 PUSH1 0x50 SHL SUB AND MUL OR SWAP1 SSTORE POP PUSH2 0x2A33 DUP3 PUSH1 0xE0 ADD MLOAD PUSH2 0x25E6 JUMP JUMPDEST DUP2 PUSH1 0x2 ADD PUSH1 0x14 PUSH2 0x100 EXP DUP2 SLOAD DUP2 PUSH1 0x1 PUSH1 0x1 PUSH1 0x50 SHL SUB MUL NOT AND SWAP1 DUP4 PUSH1 0x1 PUSH1 0x1 PUSH1 0x50 SHL SUB AND MUL OR SWAP1 SSTORE POP PUSH2 0x2A68 DUP3 PUSH1 0x20 ADD MLOAD PUSH2 0x34E4 JUMP JUMPDEST DUP2 SLOAD PUSH1 0x1 PUSH1 0x1 PUSH1 0x58 SHL SUB SWAP2 SWAP1 SWAP2 AND PUSH1 0x1 PUSH1 0x28 SHL MUL PUSH16 0xFFFFFFFFFFFFFFFFFFFFFF0000000000 NOT SWAP1 SWAP2 AND OR DUP2 SSTORE PUSH1 0x40 DUP3 ADD MLOAD PUSH2 0x2AA2 SWAP1 PUSH2 0x34E4 JUMP JUMPDEST PUSH1 0x1 DUP3 ADD DUP1 SLOAD PUSH11 0xFFFFFFFFFFFFFFFFFFFFFF NOT AND PUSH1 0x1 PUSH1 0x1 PUSH1 0x58 SHL SUB SWAP3 SWAP1 SWAP3 AND SWAP2 SWAP1 SWAP2 OR SWAP1 SSTORE PUSH1 0x80 DUP3 ADD MLOAD PUSH2 0x2AD6 SWAP1 PUSH2 0x34E4 JUMP JUMPDEST DUP2 SLOAD PUSH1 0x1 PUSH1 0x1 PUSH1 0x58 SHL SUB SWAP2 SWAP1 SWAP2 AND PUSH1 0x1 PUSH1 0x80 SHL MUL PUSH11 0xFFFFFFFFFFFFFFFFFFFFFF PUSH1 0x80 SHL NOT SWAP1 SWAP2 AND OR DUP2 SSTORE PUSH1 0x60 DUP3 ADD MLOAD PUSH2 0x2B0E SWAP1 PUSH2 0x25D3 JUMP JUMPDEST DUP2 SLOAD PUSH4 0xFFFFFFFF SWAP2 SWAP1 SWAP2 AND PUSH1 0x1 PUSH1 0xD8 SHL MUL PUSH4 0xFFFFFFFF PUSH1 0xD8 SHL NOT SWAP1 SWAP2 AND OR DUP2 SSTORE DUP3 ISZERO PUSH2 0x2B5A JUMPI PUSH1 0x0 PUSH2 0x2B3F DUP5 PUSH2 0x2133 JUMP JUMPDEST SWAP1 POP PUSH2 0x2B4B DUP6 DUP3 PUSH2 0x34FA JUMP JUMPDEST PUSH2 0x2B58 PUSH2 0xFEE DUP7 DUP4 PUSH2 0x2CBA JUMP JUMPDEST POP JUMPDEST DUP4 PUSH2 0xFFFF AND PUSH32 0xEF25641E225E493886510CA1AD6584FA7B442B9FEA820A29D1DE3CE27D270FD2 DUP4 PUSH1 0xA0 ADD MLOAD DUP5 PUSH1 0xC0 ADD MLOAD DUP6 PUSH1 0xE0 ADD MLOAD PUSH1 0x40 MLOAD PUSH2 0x2B9E SWAP4 SWAP3 SWAP2 SWAP1 PUSH2 0x4C1B JUMP JUMPDEST PUSH1 0x40 MLOAD DUP1 SWAP2 SUB SWAP1 LOG2 POP POP POP POP JUMP JUMPDEST PUSH1 0x0 DUP3 PUSH2 0x2BBB JUMPI POP PUSH1 0x0 PUSH2 0xB8C JUMP JUMPDEST DUP3 DUP3 MUL DUP3 DUP5 DUP3 DUP2 PUSH2 0x2BC8 JUMPI INVALID JUMPDEST DIV EQ PUSH2 0x12FD JUMPI PUSH1 0x0 DUP1 REVERT JUMPDEST PUSH1 0x8 DUP2 SWAP1 SHR PUSH1 0xFF SWAP1 SWAP2 AND SHL SWAP1 JUMP JUMPDEST PUSH1 0x0 DUP1 DUP3 SLT PUSH2 0x2BF1 JUMPI POP DUP1 PUSH2 0xB8C JUMP JUMPDEST DUP3 MLOAD PUSH1 0x20 DUP5 ADD MLOAD PUSH2 0x147C SWAP2 SWAP1 PUSH2 0xAAB SWAP1 DUP6 SWAP1 PUSH2 0xB3E JUMP JUMPDEST PUSH1 0x0 PUSH2 0x2C12 PUSH2 0x421E JUMP JUMPDEST RETURNDATASIZE DUP1 ISZERO PUSH2 0x2C26 JUMPI PUSH1 0x20 DUP2 EQ PUSH2 0x2C2F JUMPI PUSH1 0x0 DUP1 REVERT JUMPDEST PUSH1 0x1 SWAP3 POP PUSH2 0x2C3A JUMP JUMPDEST PUSH1 0x20 PUSH1 0x0 DUP4 RETURNDATACOPY DUP2 MLOAD SWAP3 POP JUMPDEST POP DUP2 PUSH2 0x25C2 JUMPI PUSH1 0x40 DUP1 MLOAD PUSH3 0x461BCD PUSH1 0xE5 SHL DUP2 MSTORE PUSH1 0x20 PUSH1 0x4 DUP3 ADD MSTORE PUSH1 0x5 PUSH1 0x24 DUP3 ADD MSTORE PUSH5 0x455243323 PUSH1 0xDC SHL PUSH1 0x44 DUP3 ADD MSTORE SWAP1 MLOAD SWAP1 DUP2 SWAP1 SUB PUSH1 0x64 ADD SWAP1 REVERT JUMPDEST PUSH1 0x0 DUP3 DUP3 GT ISZERO PUSH2 0x2C84 JUMPI PUSH1 0x0 DUP1 REVERT JUMPDEST POP SWAP1 SUB SWAP1 JUMP JUMPDEST PUSH1 0x0 PUSH4 0x5F5E100 DUP4 PUSH1 0x40 ADD MLOAD EQ ISZERO PUSH2 0x2CA3 JUMPI POP DUP1 PUSH2 0xB8C JUMP JUMPDEST PUSH1 0x40 DUP4 ADD MLOAD PUSH2 0x12FD SWAP1 PUSH2 0xAAB DUP5 PUSH4 0x5F5E100 PUSH2 0xB3E JUMP JUMPDEST PUSH1 0x0 PUSH2 0x2CC4 PUSH2 0x1559 JUMP JUMPDEST PUSH2 0xFFFF DUP5 AND PUSH1 0x0 SWAP1 DUP2 MSTORE PUSH1 0x20 SWAP2 SWAP1 SWAP2 MSTORE PUSH1 0x40 SWAP1 DUP2 SWAP1 KECCAK256 SLOAD SWAP1 MLOAD PUSH4 0xAD1C095D PUSH1 0xE0 SHL DUP2 MSTORE PUSH1 0x1 PUSH1 0x1 PUSH1 0xA0 SHL SUB SWAP1 SWAP2 AND SWAP2 POP DUP2 SWAP1 PUSH4 0xAD1C095D SWAP1 PUSH2 0x2D0C SWAP1 DUP8 SWAP1 DUP7 SWAP1 PUSH1 0x4 ADD PUSH2 0x4B72 JUMP JUMPDEST PUSH1 0x0 PUSH1 0x40 MLOAD DUP1 DUP4 SUB DUP2 PUSH1 0x0 DUP8 DUP1 EXTCODESIZE ISZERO DUP1 ISZERO PUSH2 0x2D26 JUMPI PUSH1 0x0 DUP1 REVERT JUMPDEST POP GAS CALL ISZERO DUP1 ISZERO PUSH2 0x227A JUMPI RETURNDATASIZE PUSH1 0x0 DUP1 RETURNDATACOPY RETURNDATASIZE PUSH1 0x0 REVERT JUMPDEST PUSH1 0x0 PUSH2 0x2D44 PUSH2 0x32E3 JUMP JUMPDEST PUSH2 0xFFFF DUP6 AND PUSH1 0x0 SWAP1 DUP2 MSTORE PUSH1 0x20 SWAP2 SWAP1 SWAP2 MSTORE PUSH1 0x40 SWAP1 KECCAK256 DUP1 SLOAD SWAP1 SWAP2 POP PUSH5 0xFFFFFFFFFF AND TIMESTAMP EQ PUSH2 0x2D6F JUMPI PUSH1 0x0 DUP1 REVERT JUMPDEST DUP1 SLOAD PUSH1 0x0 SWAP1 PUSH2 0x2D8E SWAP1 PUSH1 0x1 PUSH1 0x28 SHL SWAP1 DIV PUSH1 0x1 PUSH1 0x1 PUSH1 0x58 SHL SUB AND DUP6 PUSH2 0x137F JUMP JUMPDEST DUP3 SLOAD SWAP1 SWAP2 POP PUSH1 0x0 SWAP1 PUSH2 0x2DB0 SWAP1 PUSH1 0x1 PUSH1 0x80 SHL SWAP1 DIV PUSH1 0x1 PUSH1 0x1 PUSH1 0x58 SHL SUB AND DUP6 PUSH2 0x137F JUMP JUMPDEST SWAP1 POP PUSH2 0x2DC3 PUSH2 0x2DBE DUP3 PUSH2 0x1ECB JUMP JUMPDEST PUSH2 0x34E4 JUMP JUMPDEST DUP4 SLOAD PUSH1 0x1 PUSH1 0x1 PUSH1 0x58 SHL SUB SWAP2 SWAP1 SWAP2 AND PUSH1 0x1 PUSH1 0x80 SHL MUL PUSH11 0xFFFFFFFFFFFFFFFFFFFFFF PUSH1 0x80 SHL NOT SWAP1 SWAP2 AND OR DUP4 SSTORE PUSH2 0x2DF9 PUSH2 0x2DBE DUP4 PUSH2 0x1ECB JUMP JUMPDEST DUP4 SLOAD PUSH1 0x1 PUSH1 0x1 PUSH1 0x58 SHL SUB SWAP2 SWAP1 SWAP2 AND PUSH1 0x1 PUSH1 0x28 SHL MUL PUSH16 0xFFFFFFFFFFFFFFFFFFFFFF0000000000 NOT SWAP1 SWAP2 AND OR SWAP1 SWAP3 SSTORE POP POP POP POP POP JUMP JUMPDEST PUSH1 0x0 PUSH2 0x2E37 PUSH2 0x2E87 JUMP JUMPDEST PUSH1 0x1 PUSH1 0x1 PUSH1 0xA0 SHL SUB DUP5 AND PUSH1 0x0 SWAP1 DUP2 MSTORE PUSH1 0x20 DUP3 SWAP1 MSTORE PUSH1 0x40 SWAP1 KECCAK256 SLOAD SWAP1 SWAP2 POP PUSH2 0x2E65 PUSH2 0x2E60 DUP3 DUP6 PUSH2 0x137F JUMP JUMPDEST PUSH2 0x1ECB JUMP JUMPDEST PUSH1 0x1 PUSH1 0x1 PUSH1 0xA0 SHL SUB SWAP1 SWAP5 AND PUSH1 0x0 SWAP1 DUP2 MSTORE PUSH1 0x20 SWAP3 SWAP1 SWAP3 MSTORE POP PUSH1 0x40 SWAP1 KECCAK256 SWAP2 SWAP1 SWAP2 SSTORE POP JUMP JUMPDEST PUSH1 0x0 DUP1 PUSH2 0xB8C PUSH1 0x26 PUSH2 0x1A98 JUMP JUMPDEST PUSH1 0x0 DUP1 PUSH2 0x2E9F PUSH2 0x3531 JUMP JUMPDEST PUSH2 0xFFFF SWAP4 SWAP1 SWAP4 AND PUSH1 0x0 SWAP1 DUP2 MSTORE PUSH1 0x20 SWAP4 SWAP1 SWAP4 MSTORE POP POP PUSH1 0x40 SWAP1 KECCAK256 SLOAD PUSH1 0x1 PUSH1 0x1 PUSH1 0xA0 SHL SUB AND SWAP1 JUMP JUMPDEST PUSH1 0x0 DUP1 JUMPDEST DUP3 MLOAD DUP2 LT ISZERO PUSH2 0x30C6 JUMPI PUSH1 0x0 DUP4 DUP3 DUP2 MLOAD DUP2 LT PUSH2 0x2EDF JUMPI INVALID JUMPDEST PUSH1 0x20 MUL PUSH1 0x20 ADD ADD MLOAD SWAP1 POP PUSH1 0x0 DUP2 PUSH1 0x60 ADD MLOAD PUSH1 0x1 PUSH1 0x1 PUSH1 0xA0 SHL SUB AND PUSH4 0x70A08231 ADDRESS PUSH1 0x40 MLOAD DUP3 PUSH4 0xFFFFFFFF AND PUSH1 0xE0 SHL DUP2 MSTORE PUSH1 0x4 ADD PUSH2 0x2F1B SWAP2 SWAP1 PUSH2 0x4B20 JUMP JUMPDEST PUSH1 0x20 PUSH1 0x40 MLOAD DUP1 DUP4 SUB DUP2 DUP7 DUP1 EXTCODESIZE ISZERO DUP1 ISZERO PUSH2 0x2F33 JUMPI PUSH1 0x0 DUP1 REVERT JUMPDEST POP GAS STATICCALL ISZERO DUP1 ISZERO PUSH2 0x2F47 JUMPI RETURNDATASIZE PUSH1 0x0 DUP1 RETURNDATACOPY RETURNDATASIZE PUSH1 0x0 REVERT JUMPDEST POP POP POP POP PUSH1 0x40 MLOAD RETURNDATASIZE PUSH1 0x1F NOT PUSH1 0x1F DUP3 ADD AND DUP3 ADD DUP1 PUSH1 0x40 MSTORE POP DUP2 ADD SWAP1 PUSH2 0x2F6B SWAP2 SWAP1 PUSH2 0x4AE5 JUMP JUMPDEST SWAP1 POP PUSH1 0x0 PUSH2 0x2F79 DUP8 ADDRESS PUSH2 0x353E JUMP JUMPDEST SWAP1 POP PUSH1 0x0 JUMPDEST DUP4 MLOAD MLOAD DUP2 LT ISZERO PUSH2 0x2FCA JUMPI PUSH2 0x2FC2 DUP5 PUSH1 0x0 ADD MLOAD DUP3 DUP2 MLOAD DUP2 LT PUSH2 0x2F9B JUMPI INVALID JUMPDEST PUSH1 0x20 MUL PUSH1 0x20 ADD ADD MLOAD PUSH1 0x0 DUP7 PUSH1 0x20 ADD MLOAD DUP5 DUP2 MLOAD DUP2 LT PUSH2 0x2FB5 JUMPI INVALID JUMPDEST PUSH1 0x20 MUL PUSH1 0x20 ADD ADD MLOAD PUSH2 0x35E8 JUMP JUMPDEST PUSH1 0x1 ADD PUSH2 0x2F7E JUMP JUMPDEST POP PUSH1 0x0 PUSH2 0x2FD7 DUP9 ADDRESS PUSH2 0x353E JUMP JUMPDEST SWAP1 POP PUSH1 0x0 PUSH2 0x2FE5 DUP3 DUP5 PUSH2 0x2C75 JUMP JUMPDEST SWAP1 POP DUP1 DUP6 PUSH1 0x40 ADD MLOAD GT ISZERO PUSH2 0x2FF8 JUMPI PUSH1 0x0 DUP1 REVERT JUMPDEST PUSH1 0x60 DUP6 ADD MLOAD PUSH1 0x40 MLOAD PUSH4 0x70A08231 PUSH1 0xE0 SHL DUP2 MSTORE PUSH1 0x0 SWAP2 PUSH1 0x1 PUSH1 0x1 PUSH1 0xA0 SHL SUB AND SWAP1 PUSH4 0x70A08231 SWAP1 PUSH2 0x302B SWAP1 ADDRESS SWAP1 PUSH1 0x4 ADD PUSH2 0x4B20 JUMP JUMPDEST PUSH1 0x20 PUSH1 0x40 MLOAD DUP1 DUP4 SUB DUP2 DUP7 DUP1 EXTCODESIZE ISZERO DUP1 ISZERO PUSH2 0x3043 JUMPI PUSH1 0x0 DUP1 REVERT JUMPDEST POP GAS STATICCALL ISZERO DUP1 ISZERO PUSH2 0x3057 JUMPI RETURNDATASIZE PUSH1 0x0 DUP1 RETURNDATACOPY RETURNDATASIZE PUSH1 0x0 REVERT JUMPDEST POP POP POP POP PUSH1 0x40 MLOAD RETURNDATASIZE PUSH1 0x1F NOT PUSH1 0x1F DUP3 ADD AND DUP3 ADD DUP1 PUSH1 0x40 MSTORE POP DUP2 ADD SWAP1 PUSH2 0x307B SWAP2 SWAP1 PUSH2 0x4AE5 JUMP JUMPDEST SWAP1 POP DUP5 DUP2 GT ISZERO PUSH2 0x308A JUMPI PUSH1 0x0 DUP1 REVERT JUMPDEST PUSH2 0x3099 DUP7 PUSH1 0x60 ADD MLOAD DUP7 DUP4 PUSH2 0x3725 JUMP JUMPDEST PUSH2 0x30A3 DUP9 DUP4 PUSH2 0x30CD JUMP JUMPDEST SWAP8 POP PUSH2 0x30B4 DUP11 PUSH1 0x0 ADD MLOAD DUP6 DUP6 PUSH2 0x3725 JUMP JUMPDEST POP POP PUSH1 0x1 SWAP1 SWAP5 ADD SWAP4 POP PUSH2 0x2EC8 SWAP3 POP POP POP JUMP JUMPDEST POP SWAP3 SWAP2 POP POP JUMP JUMPDEST PUSH1 0x0 DUP3 DUP3 ADD DUP4 DUP2 LT ISZERO PUSH2 0x12FD JUMPI PUSH1 0x0 DUP1 REVERT JUMPDEST PUSH1 0x0 DUP1 PUSH1 0x0 PUSH2 0x30ED DUP6 PUSH2 0x37A2 JUMP JUMPDEST SWAP2 SWAP5 POP SWAP3 POP SWAP1 POP DUP1 DUP5 GT DUP1 ISZERO PUSH2 0x3103 JUMPI POP PUSH1 0x0 DUP2 GT JUMPDEST DUP1 ISZERO PUSH2 0x310F JUMPI POP PUSH1 0x0 DUP4 GT JUMPDEST ISZERO PUSH2 0x316E JUMPI PUSH1 0x0 PUSH2 0x311F DUP7 PUSH2 0x37FE JUMP JUMPDEST POP POP POP SWAP2 POP POP PUSH1 0x0 PUSH2 0x314A PUSH2 0x3141 PUSH4 0x5F5E100 DUP5 PUSH2 0x2BAC SWAP1 SWAP2 SWAP1 PUSH4 0xFFFFFFFF AND JUMP JUMPDEST DUP5 DUP9 SUB DUP8 PUSH2 0x3867 JUMP JUMPDEST SWAP1 POP PUSH2 0x3156 DUP5 DUP3 PUSH2 0x30CD JUMP JUMPDEST SWAP4 POP PUSH1 0x1 PUSH1 0x1 PUSH1 0x80 SHL SUB DUP5 LT PUSH2 0x316B JUMPI PUSH1 0x0 DUP1 REVERT JUMPDEST POP POP JUMPDEST SWAP3 POP SWAP3 POP SWAP3 JUMP JUMPDEST PUSH1 0x0 DUP1 PUSH2 0xB8C PUSH1 0x11 PUSH2 0x1A98 JUMP JUMPDEST PUSH1 0x0 DUP1 DUP3 GT PUSH2 0x3190 JUMPI PUSH1 0x0 DUP1 REVERT JUMPDEST DUP2 DUP4 DUP2 PUSH2 0x3199 JUMPI INVALID JUMPDEST DIV SWAP4 SWAP3 POP POP POP JUMP JUMPDEST PUSH1 0x0 DUP1 PUSH2 0xB8C PUSH1 0x2 PUSH2 0x1A98 JUMP JUMPDEST PUSH1 0x0 DUP1 PUSH2 0xB8C PUSH1 0x12 PUSH2 0x1A98 JUMP JUMPDEST PUSH1 0x0 DUP1 DUP3 SLT ISZERO PUSH2 0x31EE JUMPI PUSH2 0x31E9 PUSH1 0x1 PUSH2 0x1AF2 DUP6 PUSH1 0x20 ADD MLOAD PUSH2 0xAAB DUP8 PUSH1 0x0 ADD MLOAD DUP8 PUSH2 0xB3E SWAP1 SWAP2 SWAP1 PUSH4 0xFFFFFFFF AND JUMP JUMPDEST PUSH2 0x12FD JUMP JUMPDEST POP SWAP2 SWAP1 POP JUMP JUMPDEST PUSH1 0x0 DUP2 DUP4 EQ DUP1 PUSH2 0x3211 JUMPI POP PUSH1 0x0 DUP4 SLT ISZERO DUP1 ISZERO PUSH2 0x3211 JUMPI POP PUSH1 0x0 DUP3 SLT ISZERO JUMPDEST ISZERO PUSH2 0x321E JUMPI POP PUSH1 0x0 PUSH2 0xB8C JUMP JUMPDEST PUSH1 0x0 DUP4 SGT ISZERO DUP1 ISZERO PUSH2 0x322F JUMPI POP DUP2 PUSH1 0x0 SLT JUMPDEST ISZERO PUSH2 0x323B JUMPI POP DUP2 PUSH2 0xB8C JUMP JUMPDEST PUSH1 0x0 DUP3 SGT ISZERO DUP1 ISZERO PUSH2 0x324C JUMPI POP DUP3 PUSH1 0x0 SLT JUMPDEST ISZERO PUSH2 0x325A JUMPI PUSH2 0x147C DUP3 PUSH2 0x4CE JUMP JUMPDEST PUSH1 0x0 DUP4 SGT ISZERO DUP1 ISZERO PUSH2 0x326C JUMPI POP PUSH1 0x0 DUP3 SGT ISZERO JUMPDEST ISZERO PUSH2 0x7B JUMPI PUSH2 0x147C DUP4 DUP4 PUSH2 0x1C31 JUMP JUMPDEST DUP1 ISZERO PUSH2 0x5F8 JUMPI DUP4 MLOAD PUSH1 0x20 DUP6 ADD MLOAD PUSH1 0x0 SWAP2 PUSH2 0x329A SWAP2 PUSH2 0xAAB SWAP1 DUP6 SWAP1 PUSH2 0xB3E JUMP JUMPDEST SWAP1 POP PUSH2 0x7E8 DUP5 DUP5 DUP5 DUP5 PUSH2 0x3889 JUMP JUMPDEST PUSH1 0x0 DUP2 DUP4 SGT PUSH2 0x32B7 JUMPI DUP2 PUSH2 0x12FD JUMP JUMPDEST POP SWAP1 SWAP2 SWAP1 POP JUMP JUMPDEST PUSH1 0x0 PUSH2 0x12FD DUP3 PUSH1 0x20 ADD MLOAD PUSH2 0xAAB DUP5 PUSH1 0x0 ADD MLOAD DUP7 PUSH1 0x20 ADD MLOAD PUSH2 0xB3E SWAP1 SWAP2 SWAP1 PUSH4 0xFFFFFFFF AND JUMP JUMPDEST PUSH1 0x0 DUP1 PUSH2 0xB8C PUSH1 0x1D PUSH2 0x1A98 JUMP JUMPDEST PUSH1 0x0 DUP1 PUSH1 0x0 DUP1 PUSH1 0x0 DUP1 PUSH2 0x3303 DUP10 DUP9 PUSH2 0x39C6 JUMP JUMPDEST DUP10 MLOAD SWAP1 SWAP6 POP SWAP2 SWAP4 POP SWAP2 POP PUSH1 0x0 SWAP1 PUSH2 0x332A SWAP1 PUSH2 0x331F SWAP1 DUP12 SWAP1 PUSH2 0x2C75 JUMP JUMPDEST PUSH4 0x3B9ACA00 SWAP1 PUSH2 0x2BAC JUMP JUMPDEST SWAP1 POP PUSH2 0x3364 PUSH2 0x3359 PUSH4 0x1DA9C00 PUSH2 0x3341 DUP6 DUP6 PUSH2 0x2BAC JUMP JUMPDEST DUP2 PUSH2 0x3348 JUMPI INVALID JUMPDEST PUSH8 0xDE0B6B3A7640000 SWAP2 SWAP1 DIV PUSH2 0x30CD JUMP JUMPDEST PUSH1 0xE0 DUP11 ADD MLOAD SWAP1 PUSH2 0x3418 JUMP JUMPDEST SWAP7 POP PUSH2 0x3386 PUSH2 0x337B PUSH4 0x1DA9C00 PUSH2 0x3341 DUP8 DUP6 PUSH2 0x2BAC JUMP JUMPDEST PUSH1 0xC0 DUP11 ADD MLOAD SWAP1 PUSH2 0x3418 JUMP JUMPDEST SWAP6 POP DUP2 DUP4 EQ ISZERO PUSH2 0x339D JUMPI POP PUSH1 0x0 SWAP4 POP PUSH2 0x33F2 SWAP2 POP POP JUMP JUMPDEST PUSH1 0x0 PUSH2 0x33BF PUSH2 0x33B4 PUSH4 0x1DA9C00 PUSH2 0x3341 DUP8 DUP7 PUSH2 0x2BAC JUMP JUMPDEST PUSH1 0xE0 DUP12 ADD MLOAD SWAP1 PUSH2 0x3418 JUMP JUMPDEST SWAP1 POP PUSH1 0x0 PUSH2 0x33CD DUP10 DUP4 PUSH2 0x2C75 JUMP JUMPDEST SWAP1 POP PUSH2 0x33EA DUP9 PUSH2 0x24F4 DUP4 DUP14 PUSH1 0x40 ADD MLOAD PUSH2 0x2BAC SWAP1 SWAP2 SWAP1 PUSH4 0xFFFFFFFF AND JUMP JUMPDEST SWAP7 POP POP POP POP POP POP JUMPDEST SWAP4 POP SWAP4 POP SWAP4 POP SWAP4 JUMP JUMPDEST PUSH1 0x0 PUSH2 0x12FD PUSH2 0x3412 DUP5 PUSH8 0xDE0B6B3A7640000 PUSH2 0x2BAC JUMP JUMPDEST DUP4 PUSH2 0x3182 JUMP JUMPDEST PUSH1 0x0 PUSH2 0x12FD PUSH2 0x3427 DUP5 DUP5 PUSH2 0x2BAC JUMP JUMPDEST PUSH8 0xDE0B6B3A7640000 PUSH2 0x3182 JUMP JUMPDEST PUSH1 0x0 DUP1 PUSH2 0xB8C PUSH1 0x25 PUSH2 0x1A98 JUMP JUMPDEST PUSH1 0x0 DUP1 DUP4 GT PUSH2 0x3450 JUMPI PUSH1 0x0 DUP1 REVERT JUMPDEST DUP2 DUP7 GT ISZERO PUSH2 0x345F JUMPI POP DUP4 PUSH2 0x5D1 JUMP JUMPDEST PUSH1 0x0 PUSH2 0x346B DUP4 DUP9 PUSH2 0x2C75 JUMP JUMPDEST SWAP1 POP DUP4 DUP2 GT ISZERO PUSH2 0x347E JUMPI DUP6 SWAP2 POP POP PUSH2 0x5D1 JUMP JUMPDEST PUSH1 0x0 PUSH2 0x348A DUP3 DUP7 PUSH2 0x3A60 JUMP JUMPDEST SWAP1 POP PUSH1 0x0 PUSH2 0x349C PUSH4 0x3B9ACA00 DUP4 PUSH2 0x2C75 JUMP JUMPDEST SWAP1 POP PUSH2 0x34C3 PUSH4 0x3B9ACA00 PUSH2 0x24F4 PUSH2 0x34B3 DUP11 DUP6 PUSH2 0x2BAC JUMP JUMPDEST PUSH2 0x34BD DUP13 DUP8 PUSH2 0x2BAC JUMP JUMPDEST SWAP1 PUSH2 0x30CD JUMP JUMPDEST SWAP10 SWAP9 POP POP POP POP POP POP POP POP POP JUMP JUMPDEST PUSH1 0x0 PUSH5 0xFFFFFFFFFF DUP3 GT ISZERO PUSH2 0x1EDA JUMPI PUSH1 0x0 DUP1 REVERT JUMPDEST PUSH1 0x0 PUSH1 0x1 PUSH1 0x1 PUSH1 0x58 SHL SUB DUP3 GT ISZERO PUSH2 0x1EDA JUMPI PUSH1 0x0 DUP1 REVERT JUMPDEST PUSH1 0x0 DUP2 SLT ISZERO PUSH2 0x3508 JUMPI PUSH1 0x0 DUP1 REVERT JUMPDEST PUSH1 0x0 PUSH2 0x3516 PUSH2 0xFEE DUP5 PUSH2 0x3A73 JUMP JUMPDEST SWAP1 POP PUSH2 0x3522 DUP2 DUP4 PUSH2 0x137F JUMP JUMPDEST SWAP1 POP PUSH2 0x1FA6 PUSH2 0xFEE DUP5 DUP4 PUSH2 0x3ACC JUMP JUMPDEST PUSH1 0x0 DUP1 PUSH2 0xB8C PUSH1 0x1F PUSH2 0x1A98 JUMP JUMPDEST PUSH1 0x0 PUSH1 0x3 DUP4 PUSH1 0x60 ADD MLOAD PUSH1 0x5 DUP2 GT ISZERO PUSH2 0x3552 JUMPI INVALID JUMPDEST EQ ISZERO PUSH2 0x3569 JUMPI POP PUSH1 0x1 PUSH1 0x1 PUSH1 0xA0 SHL SUB DUP2 AND BALANCE PUSH2 0xB8C JUMP JUMPDEST DUP3 MLOAD PUSH1 0x40 MLOAD PUSH4 0x70A08231 PUSH1 0xE0 SHL DUP2 MSTORE PUSH1 0x1 PUSH1 0x1 PUSH1 0xA0 SHL SUB SWAP1 SWAP2 AND SWAP1 PUSH4 0x70A08231 SWAP1 PUSH2 0x3598 SWAP1 DUP6 SWAP1 PUSH1 0x4 ADD PUSH2 0x4B20 JUMP JUMPDEST PUSH1 0x20 PUSH1 0x40 MLOAD DUP1 DUP4 SUB DUP2 DUP7 DUP1 EXTCODESIZE ISZERO DUP1 ISZERO PUSH2 0x35B0 JUMPI PUSH1 0x0 DUP1 REVERT JUMPDEST POP GAS STATICCALL ISZERO DUP1 ISZERO PUSH2 0x35C4 JUMPI RETURNDATASIZE PUSH1 0x0 DUP1 RETURNDATACOPY RETURNDATASIZE PUSH1 0x0 REVERT JUMPDEST POP POP POP POP PUSH1 0x40 MLOAD RETURNDATASIZE PUSH1 0x1F NOT PUSH1 0x1F DUP3 ADD AND DUP3 ADD DUP1 PUSH1 0x40 MSTORE POP DUP2 ADD SWAP1 PUSH2 0x147C SWAP2 SWAP1 PUSH2 0x4AE5 JUMP JUMPDEST PUSH1 0x0 DUP1 DUP5 PUSH1 0x1 PUSH1 0x1 PUSH1 0xA0 SHL SUB AND DUP5 DUP5 PUSH1 0x40 MLOAD DUP1 DUP3 DUP1 MLOAD SWAP1 PUSH1 0x20 ADD SWAP1 DUP1 DUP4 DUP4 JUMPDEST PUSH1 0x20 DUP4 LT PUSH2 0x3626 JUMPI DUP1 MLOAD DUP3 MSTORE PUSH1 0x1F NOT SWAP1 SWAP3 ADD SWAP2 PUSH1 0x20 SWAP2 DUP3 ADD SWAP2 ADD PUSH2 0x3607 JUMP JUMPDEST PUSH1 0x1 DUP4 PUSH1 0x20 SUB PUSH2 0x100 EXP SUB DUP1 NOT DUP3 MLOAD AND DUP2 DUP5 MLOAD AND DUP1 DUP3 OR DUP6 MSTORE POP POP POP POP POP POP SWAP1 POP ADD SWAP2 POP POP PUSH1 0x0 PUSH1 0x40 MLOAD DUP1 DUP4 SUB DUP2 DUP6 DUP8 GAS CALL SWAP3 POP POP POP RETURNDATASIZE DUP1 PUSH1 0x0 DUP2 EQ PUSH2 0x3688 JUMPI PUSH1 0x40 MLOAD SWAP2 POP PUSH1 0x1F NOT PUSH1 0x3F RETURNDATASIZE ADD AND DUP3 ADD PUSH1 0x40 MSTORE RETURNDATASIZE DUP3 MSTORE RETURNDATASIZE PUSH1 0x0 PUSH1 0x20 DUP5 ADD RETURNDATACOPY PUSH2 0x368D JUMP JUMPDEST PUSH1 0x60 SWAP2 POP JUMPDEST POP SWAP2 POP SWAP2 POP DUP2 PUSH2 0x369C DUP3 PUSH2 0x3B40 JUMP JUMPDEST SWAP1 PUSH2 0xE5F JUMPI PUSH1 0x40 MLOAD PUSH3 0x461BCD PUSH1 0xE5 SHL DUP2 MSTORE PUSH1 0x4 ADD DUP1 DUP1 PUSH1 0x20 ADD DUP3 DUP2 SUB DUP3 MSTORE DUP4 DUP2 DUP2 MLOAD DUP2 MSTORE PUSH1 0x20 ADD SWAP2 POP DUP1 MLOAD SWAP1 PUSH1 0x20 ADD SWAP1 DUP1 DUP4 DUP4 PUSH1 0x0 JUMPDEST DUP4 DUP2 LT ISZERO PUSH2 0x36EA JUMPI DUP2 DUP2 ADD MLOAD DUP4 DUP3 ADD MSTORE PUSH1 0x20 ADD PUSH2 0x36D2 JUMP JUMPDEST POP POP POP POP SWAP1 POP SWAP1 DUP2 ADD SWAP1 PUSH1 0x1F AND DUP1 ISZERO PUSH2 0x3717 JUMPI DUP1 DUP3 SUB DUP1 MLOAD PUSH1 0x1 DUP4 PUSH1 0x20 SUB PUSH2 0x100 EXP SUB NOT AND DUP2 MSTORE PUSH1 0x20 ADD SWAP2 POP JUMPDEST POP SWAP3 POP POP POP PUSH1 0x40 MLOAD DUP1 SWAP2 SUB SWAP1 REVERT JUMPDEST PUSH1 0x0 PUSH2 0x372F PUSH2 0x2E87 JUMP JUMPDEST PUSH1 0x1 PUSH1 0x1 PUSH1 0xA0 SHL SUB DUP6 AND PUSH1 0x0 SWAP1 DUP2 MSTORE PUSH1 0x20 DUP3 SWAP1 MSTORE PUSH1 0x40 SWAP1 KECCAK256 SLOAD SWAP1 SWAP2 POP DUP4 DUP2 GT ISZERO PUSH2 0x3758 JUMPI PUSH1 0x0 DUP1 REVERT JUMPDEST PUSH1 0x0 PUSH2 0x376F PUSH2 0x3766 DUP7 PUSH2 0x2133 JUMP JUMPDEST PUSH2 0x1AF2 DUP7 PUSH2 0x2133 JUMP JUMPDEST SWAP1 POP PUSH2 0x377E PUSH2 0x2E60 DUP4 DUP4 PUSH2 0x137F JUMP JUMPDEST PUSH1 0x1 PUSH1 0x1 PUSH1 0xA0 SHL SUB SWAP1 SWAP7 AND PUSH1 0x0 SWAP1 DUP2 MSTORE PUSH1 0x20 SWAP4 SWAP1 SWAP4 MSTORE POP POP PUSH1 0x40 SWAP1 KECCAK256 SWAP3 SWAP1 SWAP3 SSTORE POP POP JUMP JUMPDEST PUSH1 0x0 DUP1 PUSH1 0x0 DUP1 PUSH2 0x37B0 PUSH2 0x3175 JUMP JUMPDEST PUSH1 0x1 PUSH1 0x1 PUSH1 0xA0 SHL SUB SWAP6 SWAP1 SWAP6 AND PUSH1 0x0 SWAP1 DUP2 MSTORE PUSH1 0x20 SWAP6 SWAP1 SWAP6 MSTORE POP POP PUSH1 0x40 SWAP1 SWAP3 KECCAK256 SLOAD PUSH1 0x1 PUSH1 0x1 PUSH1 0x60 SHL SUB DUP2 AND SWAP4 PUSH1 0x1 PUSH1 0x60 SHL DUP3 DIV PUSH1 0x1 PUSH1 0x1 PUSH1 0x80 SHL SUB AND SWAP4 POP PUSH1 0x1 PUSH1 0xE0 SHL SWAP1 SWAP2 DIV PUSH4 0xFFFFFFFF AND SWAP2 POP JUMP JUMPDEST PUSH1 0x0 DUP1 PUSH1 0x0 DUP1 PUSH1 0x0 DUP1 PUSH2 0x380F PUSH2 0x31A1 JUMP JUMPDEST PUSH1 0x1 PUSH1 0x1 PUSH1 0xA0 SHL SUB SWAP1 SWAP8 AND PUSH1 0x0 SWAP1 DUP2 MSTORE PUSH1 0x20 SWAP8 SWAP1 SWAP8 MSTORE POP POP PUSH1 0x40 SWAP1 SWAP5 KECCAK256 SLOAD PUSH2 0xFFFF DUP2 AND SWAP6 PUSH4 0xFFFFFFFF PUSH3 0x10000 DUP4 DIV DUP2 AND SWAP7 POP PUSH1 0x1 PUSH1 0x30 SHL DUP4 DIV AND SWAP5 POP PUSH1 0xFF PUSH1 0x1 PUSH1 0x50 SHL DUP4 DIV AND SWAP4 POP PUSH1 0x1 PUSH1 0x58 SHL SWAP1 SWAP2 DIV PUSH1 0xD8 SHL SWAP2 POP JUMP JUMPDEST PUSH1 0x0 PUSH2 0x1E7E DUP3 PUSH2 0x24F4 PUSH4 0x1DA9C00 DUP2 DUP9 PUSH2 0x24EE DUP10 PUSH8 0xDE0B6B3A7640000 PUSH2 0x2BAC JUMP JUMPDEST PUSH1 0x0 PUSH2 0x3893 PUSH2 0x32E3 JUMP JUMPDEST PUSH2 0xFFFF DUP6 AND PUSH1 0x0 SWAP1 DUP2 MSTORE PUSH1 0x20 SWAP2 SWAP1 SWAP2 MSTORE PUSH1 0x40 SWAP1 KECCAK256 DUP1 SLOAD SWAP1 SWAP2 POP PUSH5 0xFFFFFFFFFF AND TIMESTAMP EQ PUSH2 0x38BE JUMPI PUSH1 0x0 DUP1 REVERT JUMPDEST DUP1 SLOAD PUSH1 0x1 PUSH1 0xF8 SHL SWAP1 DIV PUSH1 0xFF AND PUSH2 0x38D3 JUMPI PUSH1 0x0 DUP1 REVERT JUMPDEST PUSH1 0x1 DUP2 ADD SLOAD PUSH1 0x0 SWAP1 PUSH2 0x38EE SWAP1 PUSH1 0x1 PUSH1 0x1 PUSH1 0x58 SHL SUB AND DUP6 PUSH2 0x137F JUMP JUMPDEST DUP3 SLOAD SWAP1 SWAP2 POP PUSH1 0x0 SWAP1 PUSH2 0x3910 SWAP1 PUSH1 0x1 PUSH1 0x28 SHL SWAP1 DIV PUSH1 0x1 PUSH1 0x1 PUSH1 0x58 SHL SUB AND DUP6 PUSH2 0x137F JUMP JUMPDEST SWAP1 POP DUP2 PUSH1 0x9 NOT SLT DUP1 ISZERO PUSH2 0x3923 JUMPI POP PUSH1 0x0 DUP3 SLT JUMPDEST ISZERO PUSH2 0x392D JUMPI PUSH1 0x0 SWAP2 POP JUMPDEST DUP1 PUSH1 0x9 NOT SLT DUP1 ISZERO PUSH2 0x393E JUMPI POP PUSH1 0x0 DUP2 SLT JUMPDEST ISZERO PUSH2 0x3947 JUMPI POP PUSH1 0x0 JUMPDEST PUSH2 0x3953 PUSH2 0x2DBE DUP4 PUSH2 0x1ECB JUMP JUMPDEST PUSH1 0x1 DUP5 ADD DUP1 SLOAD PUSH11 0xFFFFFFFFFFFFFFFFFFFFFF NOT AND PUSH1 0x1 PUSH1 0x1 PUSH1 0x58 SHL SUB SWAP3 SWAP1 SWAP3 AND SWAP2 SWAP1 SWAP2 OR SWAP1 SSTORE PUSH2 0x3985 PUSH2 0x2DBE DUP3 PUSH2 0x1ECB JUMP JUMPDEST DUP4 SLOAD PUSH1 0x1 PUSH1 0x1 PUSH1 0x58 SHL SUB SWAP2 SWAP1 SWAP2 AND PUSH1 0x1 PUSH1 0x28 SHL MUL PUSH16 0xFFFFFFFFFFFFFFFFFFFFFF0000000000 NOT SWAP1 SWAP2 AND OR DUP4 SSTORE PUSH2 0x39BD DUP8 DUP8 DUP7 DUP9 PUSH2 0x3C47 JUMP JUMPDEST POP POP POP POP POP POP POP JUMP JUMPDEST PUSH1 0x0 DUP1 PUSH1 0x0 DUP1 PUSH1 0x0 DUP6 PUSH1 0x20 ADD MLOAD GT ISZERO PUSH2 0x3A13 JUMPI PUSH2 0x3A10 PUSH2 0x39F7 DUP7 PUSH1 0xC0 ADD MLOAD DUP8 PUSH1 0x20 ADD MLOAD PUSH2 0x2BAC SWAP1 SWAP2 SWAP1 PUSH4 0xFFFFFFFF AND JUMP JUMPDEST PUSH1 0xE0 DUP8 ADD MLOAD PUSH1 0x40 DUP9 ADD MLOAD PUSH2 0x3A0A SWAP2 PUSH2 0x2BAC JUMP JUMPDEST SWAP1 PUSH2 0x3A60 JUMP JUMPDEST SWAP1 POP JUMPDEST PUSH1 0x0 PUSH2 0x3A1E DUP8 PUSH2 0x3D21 JUMP JUMPDEST SWAP1 POP PUSH2 0x3A2A DUP2 DUP4 PUSH2 0x3D54 JUMP JUMPDEST SWAP5 POP DUP2 ISZERO PUSH2 0x3A41 JUMPI PUSH2 0x3A3E DUP2 DUP7 PUSH1 0x1 PUSH2 0x3E07 JUMP JUMPDEST SWAP4 POP JUMPDEST PUSH1 0x20 DUP7 ADD MLOAD ISZERO PUSH2 0x316B JUMPI PUSH2 0x3A55 DUP6 DUP4 PUSH2 0x3E7F JUMP JUMPDEST SWAP3 POP POP POP SWAP3 POP SWAP3 POP SWAP3 JUMP JUMPDEST PUSH1 0x0 PUSH2 0x12FD PUSH2 0x3412 DUP5 PUSH4 0x3B9ACA00 PUSH2 0x2BAC JUMP JUMPDEST PUSH1 0x0 DUP1 PUSH2 0x3A7E PUSH2 0x25C6 JUMP JUMPDEST PUSH1 0x1 PUSH1 0x1 PUSH1 0xA0 SHL SUB DUP6 AND PUSH1 0x0 SWAP1 DUP2 MSTORE PUSH1 0x20 DUP3 DUP2 MSTORE PUSH1 0x40 DUP1 DUP4 KECCAK256 PUSH2 0xFFFF DUP9 AND DUP5 MSTORE SWAP1 SWAP2 MSTORE DUP2 KECCAK256 DUP1 SLOAD PUSH1 0x1 PUSH1 0xA8 SHL SWAP1 DIV PUSH1 0xA SWAP1 DUP2 SIGNEXTEND SWAP1 SIGNEXTEND SWAP5 POP SWAP2 SWAP3 POP DUP4 SLT ISZERO PUSH2 0x3AC4 JUMPI PUSH1 0x0 DUP1 REVERT JUMPDEST POP POP SWAP3 SWAP2 POP POP JUMP JUMPDEST PUSH1 0x0 DUP2 SLT ISZERO PUSH2 0x3ADA JUMPI PUSH1 0x0 DUP1 REVERT JUMPDEST PUSH1 0x0 PUSH2 0x3AE4 PUSH2 0x25C6 JUMP JUMPDEST PUSH1 0x1 PUSH1 0x1 PUSH1 0xA0 SHL SUB DUP6 AND PUSH1 0x0 SWAP1 DUP2 MSTORE PUSH1 0x20 DUP3 DUP2 MSTORE PUSH1 0x40 DUP1 DUP4 KECCAK256 PUSH2 0xFFFF DUP9 AND DUP5 MSTORE SWAP1 SWAP2 MSTORE SWAP1 KECCAK256 SWAP1 SWAP2 POP PUSH2 0x3B15 DUP4 PUSH2 0x261F JUMP JUMPDEST DUP2 SLOAD PUSH1 0xA SWAP2 SWAP1 SWAP2 SIGNEXTEND PUSH1 0x1 PUSH1 0x1 PUSH1 0x58 SHL SUB AND PUSH1 0x1 PUSH1 0xA8 SHL MUL PUSH1 0x1 PUSH1 0x1 PUSH1 0xA8 SHL SUB SWAP1 SWAP2 AND OR SWAP1 SSTORE POP POP POP POP JUMP JUMPDEST PUSH1 0x60 PUSH1 0x44 DUP3 MLOAD LT ISZERO PUSH2 0x3B76 JUMPI POP PUSH1 0x40 DUP1 MLOAD DUP1 DUP3 ADD SWAP1 SWAP2 MSTORE PUSH1 0xD DUP2 MSTORE PUSH13 0x14DA5B195B9D0814995D995C9D PUSH1 0x9A SHL PUSH1 0x20 DUP3 ADD MSTORE PUSH2 0x4DF JUMP JUMPDEST PUSH1 0x4 DUP3 ADD DUP1 MLOAD SWAP1 SWAP3 PUSH1 0x24 ADD SWAP1 PUSH1 0x20 DUP2 LT ISZERO PUSH2 0x3B90 JUMPI PUSH1 0x0 DUP1 REVERT JUMPDEST DUP2 ADD SWAP1 DUP1 DUP1 MLOAD PUSH1 0x40 MLOAD SWAP4 SWAP3 SWAP2 SWAP1 DUP5 PUSH5 0x100000000 DUP3 GT ISZERO PUSH2 0x3BB0 JUMPI PUSH1 0x0 DUP1 REVERT JUMPDEST SWAP1 DUP4 ADD SWAP1 PUSH1 0x20 DUP3 ADD DUP6 DUP2 GT ISZERO PUSH2 0x3BC5 JUMPI PUSH1 0x0 DUP1 REVERT JUMPDEST DUP3 MLOAD PUSH5 0x100000000 DUP2 GT DUP3 DUP3 ADD DUP9 LT OR ISZERO PUSH2 0x3BDF JUMPI PUSH1 0x0 DUP1 REVERT JUMPDEST DUP3 MSTORE POP DUP2 MLOAD PUSH1 0x20 SWAP2 DUP3 ADD SWAP3 SWAP1 SWAP2 ADD SWAP1 DUP1 DUP4 DUP4 PUSH1 0x0 JUMPDEST DUP4 DUP2 LT ISZERO PUSH2 0x3C0C JUMPI DUP2 DUP2 ADD MLOAD DUP4 DUP3 ADD MSTORE PUSH1 0x20 ADD PUSH2 0x3BF4 JUMP JUMPDEST POP POP POP POP SWAP1 POP SWAP1 DUP2 ADD SWAP1 PUSH1 0x1F AND DUP1 ISZERO PUSH2 0x3C39 JUMPI DUP1 DUP3 SUB DUP1 MLOAD PUSH1 0x1 DUP4 PUSH1 0x20 SUB PUSH2 0x100 EXP SUB NOT AND DUP2 MSTORE PUSH1 0x20 ADD SWAP2 POP JUMPDEST POP PUSH1 0x40 MSTORE POP POP POP SWAP1 POP SWAP2 SWAP1 POP JUMP JUMPDEST PUSH1 0x0 PUSH2 0x3C51 PUSH2 0x1559 JUMP JUMPDEST PUSH2 0xFFFF DUP6 AND PUSH1 0x0 SWAP1 DUP2 MSTORE PUSH1 0x20 SWAP2 SWAP1 SWAP2 MSTORE PUSH1 0x40 DUP2 KECCAK256 SLOAD PUSH1 0x1 PUSH1 0x1 PUSH1 0xA0 SHL SUB AND SWAP2 POP PUSH2 0x3C79 PUSH2 0x3E98 JUMP JUMPDEST PUSH2 0xFFFF DUP7 AND PUSH1 0x0 SWAP1 DUP2 MSTORE PUSH1 0x20 SWAP2 SWAP1 SWAP2 MSTORE PUSH1 0x40 SWAP1 DUP2 SWAP1 KECCAK256 SLOAD SWAP1 MLOAD PUSH4 0xAD1C095D PUSH1 0xE0 SHL DUP2 MSTORE PUSH1 0x1 PUSH1 0x1 PUSH1 0xA0 SHL SUB SWAP1 SWAP2 AND SWAP2 POP DUP2 SWAP1 PUSH4 0xAD1C095D SWAP1 PUSH2 0x3CC1 SWAP1 DUP10 SWAP1 DUP8 SWAP1 PUSH1 0x4 ADD PUSH2 0x4B72 JUMP JUMPDEST PUSH1 0x0 PUSH1 0x40 MLOAD DUP1 DUP4 SUB DUP2 PUSH1 0x0 DUP8 DUP1 EXTCODESIZE ISZERO DUP1 ISZERO PUSH2 0x3CDB JUMPI PUSH1 0x0 DUP1 REVERT JUMPDEST POP GAS CALL ISZERO DUP1 ISZERO PUSH2 0x3CEF JUMPI RETURNDATASIZE PUSH1 0x0 DUP1 RETURNDATACOPY RETURNDATASIZE PUSH1 0x0 REVERT JUMPDEST POP POP PUSH1 0x40 MLOAD PUSH4 0xAD1C095D PUSH1 0xE0 SHL DUP2 MSTORE PUSH1 0x1 PUSH1 0x1 PUSH1 0xA0 SHL SUB DUP6 AND SWAP3 POP PUSH4 0xAD1C095D SWAP2 POP PUSH2 0xE2C SWAP1 DUP10 SWAP1 DUP9 SWAP1 PUSH1 0x4 ADD PUSH2 0x4B72 JUMP JUMPDEST PUSH2 0x3D29 PUSH2 0x423C JUMP JUMPDEST PUSH1 0x0 PUSH2 0x3D33 PUSH2 0x3EA5 JUMP JUMPDEST PUSH2 0xFFFF DUP5 AND PUSH1 0x0 SWAP1 DUP2 MSTORE PUSH1 0x20 SWAP2 SWAP1 SWAP2 MSTORE PUSH1 0x40 DUP2 KECCAK256 SLOAD SWAP2 POP PUSH2 0x12FD SWAP1 DUP3 PUSH2 0x3EB2 JUMP JUMPDEST PUSH1 0x0 DUP1 DUP4 PUSH1 0x80 ADD MLOAD GT PUSH2 0x3D66 JUMPI PUSH1 0x0 DUP1 REVERT JUMPDEST PUSH4 0x3B9ACA00 DUP3 GT ISZERO PUSH2 0x3D77 JUMPI PUSH1 0x0 DUP1 REVERT JUMPDEST DUP3 MLOAD DUP3 GT PUSH2 0x3D96 JUMPI DUP3 MLOAD PUSH1 0x40 DUP5 ADD MLOAD PUSH2 0x147C SWAP2 SWAP1 PUSH2 0x24F4 SWAP1 DUP6 SWAP1 PUSH2 0x2BAC JUMP JUMPDEST DUP3 PUSH1 0x20 ADD MLOAD DUP3 GT PUSH2 0x3DCE JUMPI PUSH1 0x40 DUP4 ADD MLOAD DUP4 MLOAD PUSH1 0x20 DUP6 ADD MLOAD PUSH1 0x60 DUP7 ADD MLOAD PUSH2 0x147C SWAP4 SWAP3 PUSH2 0x34BD SWAP3 DUP2 SWAP1 SUB SWAP2 PUSH2 0x24F4 SWAP2 DUP9 SUB SWAP1 DUP6 SWAP1 SUB PUSH2 0x2BAC JUMP JUMPDEST PUSH2 0x12FD DUP4 PUSH1 0x60 ADD MLOAD PUSH2 0x34BD DUP6 PUSH1 0x20 ADD MLOAD PUSH4 0x3B9ACA00 SUB PUSH2 0x24F4 DUP8 PUSH1 0x60 ADD MLOAD DUP9 PUSH1 0x80 ADD MLOAD SUB DUP9 PUSH1 0x20 ADD MLOAD DUP9 SUB PUSH2 0x2BAC SWAP1 SWAP2 SWAP1 PUSH4 0xFFFFFFFF AND JUMP JUMPDEST PUSH1 0x0 DUP1 PUSH2 0x3E26 PUSH1 0x64 PUSH2 0x24F4 DUP8 PUSH1 0xE0 ADD MLOAD DUP8 PUSH2 0x2BAC SWAP1 SWAP2 SWAP1 PUSH4 0xFFFFFFFF AND JUMP JUMPDEST SWAP1 POP DUP5 PUSH1 0xA0 ADD MLOAD DUP2 LT ISZERO PUSH2 0x3E3B JUMPI POP PUSH1 0xA0 DUP5 ADD MLOAD JUMPDEST DUP5 PUSH1 0xC0 ADD MLOAD DUP2 GT ISZERO PUSH2 0x3E4E JUMPI POP PUSH1 0xC0 DUP5 ADD MLOAD JUMPDEST DUP3 ISZERO PUSH2 0x3E65 JUMPI PUSH2 0x3E5E DUP5 DUP3 PUSH2 0x30CD JUMP JUMPDEST SWAP2 POP PUSH2 0xB36 JUMP JUMPDEST DUP4 DUP2 GT PUSH2 0x3E74 JUMPI DUP1 DUP5 SUB PUSH2 0x5D1 JUMP JUMPDEST POP PUSH1 0x0 SWAP5 SWAP4 POP POP POP POP JUMP JUMPDEST PUSH1 0x0 PUSH2 0x12FD PUSH2 0x3E8E DUP5 DUP5 PUSH2 0x2BAC JUMP JUMPDEST PUSH4 0x3B9ACA00 PUSH2 0x3182 JUMP JUMPDEST PUSH1 0x0 DUP1 PUSH2 0xB8C PUSH1 0x22 PUSH2 0x1A98 JUMP JUMPDEST PUSH1 0x0 DUP1 PUSH2 0xB8C PUSH1 0x1B PUSH2 0x1A98 JUMP JUMPDEST PUSH2 0x3EBA PUSH2 0x423C JUMP JUMPDEST PUSH1 0x64 PUSH4 0x3B9ACA00 DUP4 PUSH1 0xFF DUP7 AND PUSH1 0x20 DUP2 LT PUSH2 0x3ED0 JUMPI INVALID JUMPDEST BYTE MUL DUP2 PUSH2 0x3ED9 JUMPI INVALID JUMPDEST DIV DUP2 MSTORE PUSH1 0x64 PUSH4 0x3B9ACA00 DUP4 PUSH1 0xFF DUP7 AND PUSH1 0x1 ADD PUSH1 0x20 DUP2 LT PUSH2 0x3EF5 JUMPI INVALID JUMPDEST BYTE MUL DUP2 PUSH2 0x3EFE JUMPI INVALID JUMPDEST DIV DUP2 PUSH1 0x20 ADD DUP2 DUP2 MSTORE POP POP PUSH2 0x3F23 DUP3 PUSH1 0x2 DUP6 PUSH1 0xFF AND ADD PUSH1 0x20 DUP2 LT PUSH2 0x3F1D JUMPI INVALID JUMPDEST BYTE PUSH2 0x3FD1 JUMP JUMPDEST PUSH1 0x80 DUP3 ADD DUP2 SWAP1 MSTORE PUSH2 0x100 SWAP1 DUP4 PUSH1 0xFF DUP7 AND PUSH1 0x3 ADD PUSH1 0x20 DUP2 LT PUSH2 0x3F40 JUMPI INVALID JUMPDEST BYTE MUL DUP2 PUSH2 0x3F49 JUMPI INVALID JUMPDEST DIV PUSH1 0x40 DUP3 ADD MSTORE PUSH1 0x80 DUP2 ADD MLOAD PUSH2 0x100 SWAP1 DUP4 PUSH1 0xFF DUP7 AND PUSH1 0x4 ADD PUSH1 0x20 DUP2 LT PUSH2 0x3F6A JUMPI INVALID JUMPDEST BYTE MUL DUP2 PUSH2 0x3F73 JUMPI INVALID JUMPDEST DIV PUSH1 0x60 DUP3 ADD MSTORE PUSH3 0x7A120 DUP3 PUSH1 0xFF DUP6 AND PUSH1 0x5 ADD PUSH1 0x20 DUP2 LT PUSH2 0x3F8F JUMPI INVALID JUMPDEST BYTE MUL PUSH1 0xA0 DUP3 ADD MSTORE PUSH3 0x2625A0 DUP3 PUSH1 0xFF DUP6 AND PUSH1 0x6 ADD PUSH1 0x20 DUP2 LT PUSH2 0x3FAC JUMPI INVALID JUMPDEST BYTE MUL PUSH1 0xC0 DUP3 ADD MSTORE DUP2 PUSH1 0xFF DUP5 AND PUSH1 0x7 ADD PUSH1 0x20 DUP2 LT PUSH2 0x3FC5 JUMPI INVALID JUMPDEST BYTE PUSH1 0xE0 DUP3 ADD MSTORE SWAP3 SWAP2 POP POP JUMP JUMPDEST PUSH1 0x0 DUP2 PUSH1 0xFF AND PUSH1 0x96 LT PUSH2 0x3FEC JUMPI PUSH1 0xFF DUP3 AND PUSH3 0x2625A0 MUL PUSH2 0x4DC JUMP JUMPDEST POP PUSH1 0x95 NOT PUSH1 0xFF SWAP2 SWAP1 SWAP2 AND ADD PUSH3 0xE4E1C0 MUL PUSH4 0x165A0BC0 ADD SWAP1 JUMP JUMPDEST PUSH1 0x40 MLOAD DUP1 PUSH2 0x140 ADD PUSH1 0x40 MSTORE DUP1 PUSH1 0x0 PUSH2 0xFFFF AND DUP2 MSTORE PUSH1 0x20 ADD PUSH1 0x0 DUP2 MSTORE PUSH1 0x20 ADD PUSH1 0x0 DUP2 MSTORE PUSH1 0x20 ADD PUSH1 0x0 DUP2 MSTORE PUSH1 0x20 ADD PUSH1 0x0 DUP2 MSTORE PUSH1 0x20 ADD PUSH1 0x0 DUP2 MSTORE PUSH1 0x20 ADD PUSH1 0x0 DUP2 MSTORE PUSH1 0x20 ADD PUSH1 0x0 DUP2 MSTORE PUSH1 0x20 ADD PUSH1 0x0 DUP2 MSTORE PUSH1 0x20 ADD PUSH2 0x405C PUSH2 0x41B1 JUMP JUMPDEST SWAP1 MSTORE SWAP1 JUMP JUMPDEST PUSH1 0x40 DUP1 MLOAD PUSH1 0xC0 DUP2 ADD DUP3 MSTORE PUSH1 0x0 DUP1 DUP3 MSTORE PUSH1 0x20 DUP3 ADD DUP2 SWAP1 MSTORE SWAP2 DUP2 ADD DUP3 SWAP1 MSTORE PUSH1 0x60 DUP2 ADD DUP3 SWAP1 MSTORE PUSH1 0x80 DUP2 ADD DUP3 SWAP1 MSTORE PUSH1 0xA0 DUP2 ADD SWAP2 SWAP1 SWAP2 MSTORE SWAP1 JUMP JUMPDEST PUSH1 0x40 MLOAD DUP1 PUSH2 0x160 ADD PUSH1 0x40 MSTORE DUP1 PUSH1 0x0 PUSH1 0x1 PUSH1 0x1 PUSH1 0xA0 SHL SUB AND DUP2 MSTORE PUSH1 0x20 ADD PUSH1 0x0 DUP2 MSTORE PUSH1 0x20 ADD PUSH1 0x0 DUP2 MSTORE PUSH1 0x20 ADD PUSH1 0x0 DUP2 MSTORE PUSH1 0x20 ADD PUSH1 0x0 DUP2 MSTORE PUSH1 0x20 ADD PUSH1 0x0 PUSH1 0x1 PUSH1 0x1 PUSH1 0xD0 SHL SUB NOT AND DUP2 MSTORE PUSH1 0x20 ADD PUSH2 0x40E7 PUSH2 0x4281 JUMP JUMPDEST DUP2 MSTORE PUSH1 0x20 ADD PUSH2 0x40F4 PUSH2 0x4281 JUMP JUMPDEST DUP2 MSTORE PUSH1 0x20 ADD PUSH2 0x4101 PUSH2 0x41B1 JUMP JUMPDEST DUP2 MSTORE PUSH1 0x20 ADD PUSH2 0x410E PUSH2 0x42B0 JUMP JUMPDEST DUP2 MSTORE PUSH1 0x0 PUSH1 0x20 SWAP1 SWAP2 ADD MSTORE SWAP1 JUMP JUMPDEST PUSH1 0x40 MLOAD DUP1 PUSH1 0x80 ADD PUSH1 0x40 MSTORE DUP1 PUSH1 0x60 DUP2 MSTORE PUSH1 0x20 ADD PUSH1 0x60 DUP2 MSTORE PUSH1 0x20 ADD PUSH1 0x0 DUP2 MSTORE PUSH1 0x20 ADD PUSH1 0x0 DUP2 MSTORE POP SWAP1 JUMP JUMPDEST PUSH1 0x40 MLOAD DUP1 PUSH1 0xC0 ADD PUSH1 0x40 MSTORE DUP1 PUSH1 0x0 PUSH2 0xFFFF AND DUP2 MSTORE PUSH1 0x20 ADD PUSH1 0x0 DUP2 MSTORE PUSH1 0x20 ADD PUSH1 0x0 DUP2 MSTORE PUSH1 0x20 ADD PUSH1 0x0 DUP2 MSTORE PUSH1 0x20 ADD PUSH1 0x0 DUP2 MSTORE PUSH1 0x20 ADD PUSH1 0x0 PUSH1 0x3 DUP2 GT ISZERO PUSH2 0x405C JUMPI INVALID JUMPDEST PUSH1 0x40 DUP1 MLOAD PUSH1 0xA0 DUP2 ADD DUP3 MSTORE PUSH1 0x0 DUP1 DUP3 MSTORE PUSH1 0x20 DUP3 ADD DUP2 SWAP1 MSTORE SWAP2 DUP2 ADD DUP3 SWAP1 MSTORE SWAP1 PUSH1 0x60 DUP3 ADD SWAP1 DUP2 MSTORE PUSH1 0x20 ADD PUSH1 0x0 DUP2 MSTORE POP SWAP1 JUMP JUMPDEST PUSH1 0x40 MLOAD DUP1 PUSH1 0x60 ADD PUSH1 0x40 MSTORE DUP1 PUSH1 0x0 DUP2 MSTORE PUSH1 0x20 ADD PUSH1 0x0 DUP2 MSTORE PUSH1 0x20 ADD PUSH1 0x0 DUP2 MSTORE POP SWAP1 JUMP JUMPDEST PUSH1 0x40 MLOAD DUP1 PUSH2 0x120 ADD PUSH1 0x40 MSTORE DUP1 PUSH1 0x0 DUP2 MSTORE PUSH1 0x20 ADD PUSH1 0x0 DUP2 MSTORE PUSH1 0x20 ADD PUSH1 0x0 DUP2 MSTORE PUSH1 0x20 ADD PUSH1 0x0 DUP2 MSTORE PUSH1 0x20 ADD PUSH1 0x0 DUP2 MSTORE PUSH1 0x20 ADD PUSH1 0x0 DUP2 MSTORE PUSH1 0x20 ADD PUSH1 0x0 DUP2 MSTORE PUSH1 0x20 ADD PUSH1 0x0 DUP2 MSTORE PUSH1 0x20 ADD PUSH1 0x0 DUP2 MSTORE POP SWAP1 JUMP JUMPDEST PUSH1 0x40 MLOAD DUP1 PUSH1 0x20 ADD PUSH1 0x40 MSTORE DUP1 PUSH1 0x1 SWAP1 PUSH1 0x20 DUP3 MUL DUP1 CALLDATASIZE DUP4 CALLDATACOPY POP SWAP2 SWAP3 SWAP2 POP POP JUMP JUMPDEST PUSH1 0x40 MLOAD DUP1 PUSH2 0x100 ADD PUSH1 0x40 MSTORE DUP1 PUSH1 0x0 DUP2 MSTORE PUSH1 0x20 ADD PUSH1 0x0 DUP2 MSTORE PUSH1 0x20 ADD PUSH1 0x0 DUP2 MSTORE PUSH1 0x20 ADD PUSH1 0x0 DUP2 MSTORE PUSH1 0x20 ADD PUSH1 0x0 DUP2 MSTORE PUSH1 0x20 ADD PUSH1 0x0 DUP2 MSTORE PUSH1 0x20 ADD PUSH1 0x0 DUP2 MSTORE PUSH1 0x20 ADD PUSH1 0x0 DUP2 MSTORE POP SWAP1 JUMP JUMPDEST PUSH1 0x40 MLOAD DUP1 PUSH1 0xA0 ADD PUSH1 0x40 MSTORE DUP1 PUSH1 0x0 DUP2 MSTORE PUSH1 0x20 ADD PUSH1 0x0 DUP2 MSTORE PUSH1 0x20 ADD PUSH1 0x0 DUP2 MSTORE PUSH1 0x20 ADD PUSH1 0x0 DUP2 MSTORE PUSH1 0x20 ADD PUSH1 0x0 DUP2 MSTORE POP SWAP1 JUMP JUMPDEST PUSH1 0x40 DUP1 MLOAD PUSH1 0x80 DUP2 ADD DUP3 MSTORE PUSH1 0x0 DUP1 DUP3 MSTORE PUSH1 0x20 DUP3 ADD MSTORE SWAP1 DUP2 ADD PUSH2 0x410E PUSH2 0x41B1 JUMP JUMPDEST DUP1 MLOAD PUSH2 0x4DF DUP2 PUSH2 0x4DFC JUMP JUMPDEST PUSH1 0x0 DUP3 PUSH1 0x1F DUP4 ADD SLT PUSH2 0x42EA JUMPI DUP1 DUP2 REVERT JUMPDEST DUP2 MLOAD PUSH1 0x20 PUSH2 0x42FF PUSH2 0x42FA DUP4 PUSH2 0x4DDE JUMP JUMPDEST PUSH2 0x4DBA JUMP JUMPDEST DUP3 DUP2 MSTORE DUP2 DUP2 ADD SWAP1 DUP6 DUP4 ADD DUP4 DUP6 MUL DUP8 ADD DUP5 ADD DUP9 LT ISZERO PUSH2 0x431B JUMPI DUP6 DUP7 REVERT JUMPDEST DUP6 JUMPDEST DUP6 DUP2 LT ISZERO PUSH2 0x4342 JUMPI DUP2 MLOAD PUSH2 0x4330 DUP2 PUSH2 0x4DFC JUMP JUMPDEST DUP5 MSTORE SWAP3 DUP5 ADD SWAP3 SWAP1 DUP5 ADD SWAP1 PUSH1 0x1 ADD PUSH2 0x431D JUMP JUMPDEST POP SWAP1 SWAP8 SWAP7 POP POP POP POP POP POP POP JUMP JUMPDEST PUSH1 0x0 PUSH1 0x1F DUP4 DUP2 DUP5 ADD SLT PUSH2 0x4360 JUMPI DUP2 DUP3 REVERT JUMPDEST DUP3 MLOAD PUSH1 0x20 PUSH2 0x4370 PUSH2 0x42FA DUP4 PUSH2 0x4DDE JUMP JUMPDEST DUP3 DUP2 MSTORE DUP2 DUP2 ADD SWAP1 DUP7 DUP4 ADD DUP7 JUMPDEST DUP6 DUP2 LT ISZERO PUSH2 0x4415 JUMPI DUP2 MLOAD DUP10 ADD DUP11 PUSH1 0x3F DUP3 ADD SLT PUSH2 0x4396 JUMPI DUP9 DUP10 REVERT JUMPDEST DUP6 DUP2 ADD MLOAD PUSH8 0xFFFFFFFFFFFFFFFF DUP2 GT ISZERO PUSH2 0x43AC JUMPI INVALID JUMPDEST PUSH2 0x43BD DUP2 DUP11 ADD PUSH1 0x1F NOT AND DUP9 ADD PUSH2 0x4DBA JUMP JUMPDEST DUP2 DUP2 MSTORE PUSH1 0x40 DUP14 DUP2 DUP5 DUP7 ADD ADD GT ISZERO PUSH2 0x43D2 JUMPI DUP12 DUP13 REVERT JUMPDEST DUP12 JUMPDEST DUP4 DUP2 LT ISZERO PUSH2 0x43EF JUMPI DUP5 DUP2 ADD DUP3 ADD MLOAD DUP4 DUP3 ADD DUP12 ADD MSTORE DUP10 ADD PUSH2 0x43D4 JUMP JUMPDEST DUP4 DUP2 GT ISZERO PUSH2 0x43FF JUMPI DUP13 DUP11 DUP6 DUP6 ADD ADD MSTORE JUMPDEST POP POP DUP7 MSTORE POP POP SWAP3 DUP5 ADD SWAP3 SWAP1 DUP5 ADD SWAP1 PUSH1 0x1 ADD PUSH2 0x437C JUMP JUMPDEST POP SWAP1 SWAP9 SWAP8 POP POP POP POP POP POP POP POP JUMP JUMPDEST PUSH1 0x0 DUP3 PUSH1 0x1F DUP4 ADD SLT PUSH2 0x4433 JUMPI DUP1 DUP2 REVERT JUMPDEST DUP2 MLOAD PUSH1 0x20 PUSH2 0x4443 PUSH2 0x42FA DUP4 PUSH2 0x4DDE JUMP JUMPDEST DUP3 DUP2 MSTORE DUP2 DUP2 ADD SWAP1 DUP6 DUP4 ADD PUSH1 0xC0 DUP1 DUP7 MUL DUP9 ADD DUP6 ADD DUP10 LT ISZERO PUSH2 0x4461 JUMPI DUP7 DUP8 REVERT JUMPDEST DUP7 JUMPDEST DUP7 DUP2 LT ISZERO PUSH2 0x44F3 JUMPI DUP2 DUP4 DUP12 SUB SLT ISZERO PUSH2 0x4479 JUMPI DUP8 DUP9 REVERT JUMPDEST PUSH1 0x40 DUP1 MLOAD DUP4 DUP2 ADD DUP2 DUP2 LT PUSH8 0xFFFFFFFFFFFFFFFF DUP3 GT OR ISZERO PUSH2 0x4496 JUMPI INVALID JUMPDEST DUP3 MSTORE DUP5 MLOAD PUSH2 0x44A3 DUP2 PUSH2 0x4E22 JUMP JUMPDEST DUP2 MSTORE DUP5 DUP9 ADD MLOAD DUP9 DUP3 ADD MSTORE DUP2 DUP6 ADD MLOAD SWAP2 DUP2 ADD SWAP2 SWAP1 SWAP2 MSTORE PUSH1 0x60 DUP1 DUP6 ADD MLOAD SWAP1 DUP3 ADD MSTORE PUSH1 0x80 DUP1 DUP6 ADD MLOAD SWAP1 DUP3 ADD MSTORE PUSH1 0xA0 SWAP1 PUSH2 0x44DA DUP3 DUP7 ADD PUSH2 0x4554 JUMP JUMPDEST SWAP2 DUP2 ADD SWAP2 SWAP1 SWAP2 MSTORE DUP6 MSTORE SWAP4 DUP6 ADD SWAP4 SWAP2 DUP2 ADD SWAP2 PUSH1 0x1 ADD PUSH2 0x4463 JUMP JUMPDEST POP SWAP2 SWAP9 SWAP8 POP POP POP POP POP POP POP POP JUMP JUMPDEST DUP1 MLOAD PUSH2 0x4DF DUP2 PUSH2 0x4E14 JUMP JUMPDEST DUP1 MLOAD PUSH1 0x1 PUSH1 0x1 PUSH1 0x70 SHL SUB NOT DUP2 AND DUP2 EQ PUSH2 0x4DF JUMPI PUSH1 0x0 DUP1 REVERT JUMPDEST DUP1 MLOAD PUSH1 0x1 PUSH1 0x1 PUSH1 0xF8 SHL SUB NOT DUP2 AND DUP2 EQ PUSH2 0x4DF JUMPI PUSH1 0x0 DUP1 REVERT JUMPDEST DUP1 MLOAD PUSH1 0x1 PUSH1 0x1 PUSH1 0xD0 SHL SUB NOT DUP2 AND DUP2 EQ PUSH2 0x4DF JUMPI PUSH1 0x0 DUP1 REVERT JUMPDEST DUP1 MLOAD PUSH1 0x4 DUP2 LT PUSH2 0x4DF JUMPI PUSH1 0x0 DUP1 REVERT JUMPDEST PUSH1 0x0 PUSH1 0xC0 DUP3 DUP5 SUB SLT ISZERO PUSH2 0x4574 JUMPI DUP1 DUP2 REVERT JUMPDEST PUSH1 0x40 MLOAD PUSH1 0x80 DUP2 ADD DUP2 DUP2 LT PUSH8 0xFFFFFFFFFFFFFFFF DUP3 GT OR ISZERO PUSH2 0x4591 JUMPI INVALID JUMPDEST DUP1 PUSH1 0x40 MSTORE POP DUP1 SWAP2 POP DUP3 MLOAD PUSH2 0x45A4 DUP2 PUSH2 0x4E22 JUMP JUMPDEST DUP2 MSTORE PUSH1 0x20 DUP4 DUP2 ADD MLOAD SWAP1 DUP3 ADD MSTORE PUSH2 0x45BD DUP5 PUSH1 0x40 DUP6 ADD PUSH2 0x4705 JUMP JUMPDEST PUSH1 0x40 DUP3 ADD MSTORE PUSH1 0xA0 DUP4 ADD MLOAD PUSH1 0x60 DUP3 ADD MSTORE POP SWAP3 SWAP2 POP POP JUMP JUMPDEST PUSH1 0x0 PUSH1 0xA0 DUP3 DUP5 SUB SLT ISZERO PUSH2 0x45E4 JUMPI DUP1 DUP2 REVERT JUMPDEST PUSH1 0x40 MLOAD PUSH1 0xA0 DUP2 ADD DUP2 DUP2 LT PUSH8 0xFFFFFFFFFFFFFFFF DUP3 GT OR ISZERO PUSH2 0x4601 JUMPI INVALID JUMPDEST DUP1 PUSH1 0x40 MSTORE POP DUP1 SWAP2 POP DUP3 MLOAD DUP2 MSTORE PUSH1 0x20 DUP4 ADD MLOAD PUSH1 0x20 DUP3 ADD MSTORE PUSH1 0x40 DUP4 ADD MLOAD PUSH1 0x40 DUP3 ADD MSTORE PUSH1 0x60 DUP4 ADD MLOAD PUSH1 0x60 DUP3 ADD MSTORE PUSH1 0x80 DUP4 ADD MLOAD PUSH1 0x80 DUP3 ADD MSTORE POP SWAP3 SWAP2 POP POP JUMP JUMPDEST PUSH1 0x0 PUSH2 0x340 DUP3 DUP5 SUB SLT ISZERO PUSH2 0x464E JUMPI DUP1 DUP2 REVERT JUMPDEST PUSH2 0x160 PUSH2 0x465A DUP2 PUSH2 0x4DBA JUMP JUMPDEST SWAP2 POP PUSH2 0x4665 DUP4 PUSH2 0x42CF JUMP JUMPDEST DUP3 MSTORE PUSH1 0x20 DUP4 ADD MLOAD PUSH1 0x20 DUP4 ADD MSTORE PUSH1 0x40 DUP4 ADD MLOAD PUSH1 0x40 DUP4 ADD MSTORE PUSH1 0x60 DUP4 ADD MLOAD PUSH1 0x60 DUP4 ADD MSTORE PUSH1 0x80 DUP4 ADD MLOAD PUSH1 0x80 DUP4 ADD MSTORE PUSH2 0x469B PUSH1 0xA0 DUP5 ADD PUSH2 0x453C JUMP JUMPDEST PUSH1 0xA0 DUP4 ADD MSTORE PUSH2 0x46AD DUP5 PUSH1 0xC0 DUP6 ADD PUSH2 0x45D3 JUMP JUMPDEST PUSH1 0xC0 DUP4 ADD MSTORE PUSH2 0x46BE DUP5 DUP3 DUP6 ADD PUSH2 0x45D3 JUMP JUMPDEST PUSH1 0xE0 DUP4 ADD MSTORE POP PUSH2 0x46D2 DUP4 PUSH2 0x200 DUP5 ADD PUSH2 0x4705 JUMP JUMPDEST PUSH2 0x100 DUP3 ADD MSTORE PUSH2 0x46E6 DUP4 PUSH2 0x260 DUP5 ADD PUSH2 0x4563 JUMP JUMPDEST PUSH2 0x120 DUP3 ADD MSTORE PUSH2 0x46F9 PUSH2 0x320 DUP4 ADD PUSH2 0x4501 JUMP JUMPDEST PUSH2 0x140 DUP3 ADD MSTORE SWAP3 SWAP2 POP POP JUMP JUMPDEST PUSH1 0x0 PUSH1 0x60 DUP3 DUP5 SUB SLT ISZERO PUSH2 0x4716 JUMPI DUP1 DUP2 REVERT JUMPDEST PUSH1 0x40 MLOAD PUSH1 0x60 DUP2 ADD DUP2 DUP2 LT PUSH8 0xFFFFFFFFFFFFFFFF DUP3 GT OR ISZERO PUSH2 0x4733 JUMPI INVALID JUMPDEST DUP1 PUSH1 0x40 MSTORE POP DUP1 SWAP2 POP DUP3 MLOAD DUP2 MSTORE PUSH1 0x20 DUP4 ADD MLOAD PUSH1 0x20 DUP3 ADD MSTORE PUSH1 0x40 DUP4 ADD MLOAD PUSH1 0x40 DUP3 ADD MSTORE POP SWAP3 SWAP2 POP POP JUMP JUMPDEST DUP1 CALLDATALOAD PUSH1 0x1 PUSH1 0x1 PUSH1 0x80 SHL SUB DUP2 AND DUP2 EQ PUSH2 0x4DF JUMPI PUSH1 0x0 DUP1 REVERT JUMPDEST DUP1 MLOAD PUSH2 0x4DF DUP2 PUSH2 0x4E22 JUMP JUMPDEST DUP1 MLOAD PUSH1 0xFF DUP2 AND DUP2 EQ PUSH2 0x4DF JUMPI PUSH1 0x0 DUP1 REVERT JUMPDEST DUP1 CALLDATALOAD PUSH1 0x1 PUSH1 0x1 PUSH1 0x60 SHL SUB DUP2 AND DUP2 EQ PUSH2 0x4DF JUMPI PUSH1 0x0 DUP1 REVERT JUMPDEST PUSH1 0x0 DUP1 PUSH1 0x0 DUP1 PUSH1 0x0 PUSH1 0xA0 DUP7 DUP9 SUB SLT ISZERO PUSH2 0x47BB JUMPI DUP1 DUP2 REVERT JUMPDEST DUP6 CALLDATALOAD PUSH2 0x47C6 DUP2 PUSH2 0x4DFC JUMP JUMPDEST SWAP5 POP PUSH1 0x20 DUP7 ADD CALLDATALOAD PUSH2 0x47D6 DUP2 PUSH2 0x4E22 JUMP JUMPDEST SWAP4 POP PUSH1 0x40 DUP7 ADD CALLDATALOAD PUSH2 0x47E6 DUP2 PUSH2 0x4E22 JUMP JUMPDEST SWAP3 POP PUSH2 0x47F4 PUSH1 0x60 DUP8 ADD PUSH2 0x475A JUMP JUMPDEST SWAP2 POP PUSH2 0x4802 PUSH1 0x80 DUP8 ADD PUSH2 0x478D JUMP JUMPDEST SWAP1 POP SWAP3 SWAP6 POP SWAP3 SWAP6 SWAP1 SWAP4 POP JUMP JUMPDEST PUSH1 0x0 DUP1 PUSH1 0x0 DUP1 PUSH1 0x0 DUP1 PUSH1 0x0 PUSH1 0xE0 DUP9 DUP11 SUB SLT ISZERO PUSH2 0x4828 JUMPI DUP5 DUP6 REVERT JUMPDEST DUP8 CALLDATALOAD PUSH2 0x4833 DUP2 PUSH2 0x4DFC JUMP JUMPDEST SWAP7 POP PUSH1 0x20 DUP9 ADD CALLDATALOAD PUSH2 0x4843 DUP2 PUSH2 0x4E22 JUMP JUMPDEST SWAP6 POP PUSH1 0x40 DUP9 ADD CALLDATALOAD PUSH2 0x4853 DUP2 PUSH2 0x4E22 JUMP JUMPDEST SWAP5 POP PUSH2 0x4861 PUSH1 0x60 DUP10 ADD PUSH2 0x475A JUMP JUMPDEST SWAP4 POP PUSH2 0x486F PUSH1 0x80 DUP10 ADD PUSH2 0x478D JUMP JUMPDEST SWAP3 POP PUSH1 0xA0 DUP9 ADD CALLDATALOAD PUSH2 0x487F DUP2 PUSH2 0x4E14 JUMP JUMPDEST SWAP2 POP PUSH1 0xC0 DUP9 ADD CALLDATALOAD PUSH2 0x488F DUP2 PUSH2 0x4E14 JUMP JUMPDEST DUP1 SWAP2 POP POP SWAP3 SWAP6 SWAP9 SWAP2 SWAP5 SWAP8 POP SWAP3 SWAP6 POP JUMP JUMPDEST PUSH1 0x0 DUP1 PUSH1 0x0 PUSH1 0x60 DUP5 DUP7 SUB SLT ISZERO PUSH2 0x48B3 JUMPI DUP1 DUP2 REVERT JUMPDEST DUP4 CALLDATALOAD PUSH2 0x48BE DUP2 PUSH2 0x4DFC JUMP JUMPDEST SWAP3 POP PUSH1 0x20 DUP5 ADD CALLDATALOAD PUSH2 0x48CE DUP2 PUSH2 0x4E22 JUMP JUMPDEST SWAP2 POP PUSH2 0x48DC PUSH1 0x40 DUP6 ADD PUSH2 0x478D JUMP JUMPDEST SWAP1 POP SWAP3 POP SWAP3 POP SWAP3 JUMP JUMPDEST PUSH1 0x0 PUSH1 0x20 DUP1 DUP4 DUP6 SUB SLT ISZERO PUSH2 0x48F7 JUMPI DUP2 DUP3 REVERT JUMPDEST DUP3 MLOAD PUSH8 0xFFFFFFFFFFFFFFFF DUP1 DUP3 GT ISZERO PUSH2 0x490E JUMPI DUP4 DUP5 REVERT JUMPDEST DUP2 DUP6 ADD SWAP2 POP DUP6 PUSH1 0x1F DUP4 ADD SLT PUSH2 0x4921 JUMPI DUP4 DUP5 REVERT JUMPDEST DUP2 MLOAD PUSH2 0x492F PUSH2 0x42FA DUP3 PUSH2 0x4DDE JUMP JUMPDEST DUP2 DUP2 MSTORE DUP5 DUP2 ADD SWAP1 DUP5 DUP7 ADD DUP8 JUMPDEST DUP5 DUP2 LT ISZERO PUSH2 0x49E4 JUMPI DUP2 MLOAD DUP8 ADD PUSH1 0x80 DUP2 DUP14 SUB PUSH1 0x1F NOT ADD SLT ISZERO PUSH2 0x495A JUMPI DUP10 DUP11 REVERT JUMPDEST PUSH1 0x40 DUP1 MLOAD PUSH1 0x80 DUP2 ADD DUP2 DUP2 LT DUP11 DUP3 GT OR ISZERO PUSH2 0x4970 JUMPI INVALID JUMPDEST DUP3 MSTORE DUP3 DUP12 ADD MLOAD DUP10 DUP2 GT ISZERO PUSH2 0x4982 JUMPI DUP13 DUP14 REVERT JUMPDEST PUSH2 0x4990 DUP16 DUP14 DUP4 DUP8 ADD ADD PUSH2 0x42DA JUMP JUMPDEST DUP3 MSTORE POP DUP2 DUP4 ADD MLOAD DUP10 DUP2 GT ISZERO PUSH2 0x49A3 JUMPI DUP13 DUP14 REVERT JUMPDEST PUSH2 0x49B1 DUP16 DUP14 DUP4 DUP8 ADD ADD PUSH2 0x434F JUMP JUMPDEST DUP13 DUP4 ADD MSTORE POP PUSH1 0x60 DUP4 ADD MLOAD DUP3 DUP3 ADD MSTORE PUSH2 0x49CB PUSH1 0x80 DUP5 ADD PUSH2 0x42CF JUMP JUMPDEST PUSH1 0x60 DUP3 ADD MSTORE DUP7 MSTORE POP POP SWAP3 DUP8 ADD SWAP3 SWAP1 DUP8 ADD SWAP1 PUSH1 0x1 ADD PUSH2 0x493B JUMP JUMPDEST POP SWAP1 SWAP10 SWAP9 POP POP POP POP POP POP POP POP POP JUMP JUMPDEST PUSH1 0x0 DUP1 PUSH1 0x0 DUP4 DUP6 SUB PUSH2 0x420 DUP2 SLT ISZERO PUSH2 0x4A09 JUMPI DUP2 DUP3 REVERT JUMPDEST PUSH1 0xC0 DUP2 SLT ISZERO PUSH2 0x4A16 JUMPI DUP2 DUP3 REVERT JUMPDEST POP PUSH1 0x40 MLOAD PUSH1 0xC0 DUP2 ADD PUSH8 0xFFFFFFFFFFFFFFFF DUP3 DUP3 LT DUP2 DUP4 GT OR ISZERO PUSH2 0x4A35 JUMPI INVALID JUMPDEST DUP2 PUSH1 0x40 MSTORE DUP7 MLOAD SWAP2 POP PUSH5 0xFFFFFFFFFF DUP3 AND DUP3 EQ PUSH2 0x4A4F JUMPI DUP4 DUP5 REVERT JUMPDEST DUP2 DUP4 MSTORE PUSH2 0x4A5E PUSH1 0x20 DUP9 ADD PUSH2 0x4524 JUMP JUMPDEST PUSH1 0x20 DUP5 ADD MSTORE PUSH2 0x4A6F PUSH1 0x40 DUP9 ADD PUSH2 0x477C JUMP JUMPDEST PUSH1 0x40 DUP5 ADD MSTORE PUSH2 0x4A80 PUSH1 0x60 DUP9 ADD PUSH2 0x4771 JUMP JUMPDEST PUSH1 0x60 DUP5 ADD MSTORE PUSH2 0x4A91 PUSH1 0x80 DUP9 ADD PUSH2 0x450C JUMP JUMPDEST PUSH1 0x80 DUP5 ADD MSTORE PUSH2 0x4AA2 PUSH1 0xA0 DUP9 ADD PUSH2 0x4501 JUMP JUMPDEST PUSH1 0xA0 DUP5 ADD MSTORE DUP3 SWAP6 POP PUSH2 0x4AB7 DUP9 PUSH1 0xC0 DUP10 ADD PUSH2 0x463C JUMP JUMPDEST SWAP5 POP PUSH2 0x400 DUP8 ADD MLOAD SWAP3 POP DUP1 DUP4 GT ISZERO PUSH2 0x4ACD JUMPI DUP4 DUP5 REVERT JUMPDEST POP POP PUSH2 0x4ADB DUP7 DUP3 DUP8 ADD PUSH2 0x4423 JUMP JUMPDEST SWAP2 POP POP SWAP3 POP SWAP3 POP SWAP3 JUMP JUMPDEST PUSH1 0x0 PUSH1 0x20 DUP3 DUP5 SUB SLT ISZERO PUSH2 0x4AF6 JUMPI DUP1 DUP2 REVERT JUMPDEST POP MLOAD SWAP2 SWAP1 POP JUMP JUMPDEST PUSH1 0x0 DUP1 PUSH1 0x40 DUP4 DUP6 SUB SLT ISZERO PUSH2 0x4B0F JUMPI DUP2 DUP3 REVERT JUMPDEST POP POP DUP1 MLOAD PUSH1 0x20 SWAP1 SWAP2 ADD MLOAD SWAP1 SWAP3 SWAP1 SWAP2 POP JUMP JUMPDEST PUSH1 0x1 PUSH1 0x1 PUSH1 0xA0 SHL SUB SWAP2 SWAP1 SWAP2 AND DUP2 MSTORE PUSH1 0x20 ADD SWAP1 JUMP JUMPDEST PUSH1 0x1 PUSH1 0x1 PUSH1 0xA0 SHL SUB SWAP3 DUP4 AND DUP2 MSTORE SWAP2 AND PUSH1 0x20 DUP3 ADD MSTORE PUSH1 0x40 ADD SWAP1 JUMP JUMPDEST PUSH1 0x1 PUSH1 0x1 PUSH1 0xA0 SHL SUB SWAP4 DUP5 AND DUP2 MSTORE SWAP2 SWAP1 SWAP3 AND PUSH1 0x20 DUP3 ADD MSTORE PUSH1 0x40 DUP2 ADD SWAP2 SWAP1 SWAP2 MSTORE PUSH1 0x60 ADD SWAP1 JUMP JUMPDEST PUSH1 0x1 PUSH1 0x1 PUSH1 0xA0 SHL SUB SWAP3 SWAP1 SWAP3 AND DUP3 MSTORE PUSH1 0x20 DUP3 ADD MSTORE PUSH1 0x40 ADD SWAP1 JUMP JUMPDEST PUSH1 0x1 PUSH1 0x1 PUSH1 0xA0 SHL SUB SWAP4 SWAP1 SWAP4 AND DUP4 MSTORE PUSH2 0xFFFF SWAP2 DUP3 AND PUSH1 0x20 DUP5 ADD MSTORE AND PUSH1 0x40 DUP3 ADD MSTORE PUSH1 0x60 ADD SWAP1 JUMP JUMPDEST PUSH1 0x1 PUSH1 0x1 PUSH1 0xA0 SHL SUB SWAP7 SWAP1 SWAP7 AND DUP7 MSTORE PUSH2 0xFFFF SWAP5 SWAP1 SWAP5 AND PUSH1 0x20 DUP7 ADD MSTORE PUSH1 0x40 DUP6 ADD SWAP3 SWAP1 SWAP3 MSTORE PUSH1 0x60 DUP5 ADD MSTORE PUSH1 0x80 DUP4 ADD MSTORE PUSH1 0xA0 DUP3 ADD MSTORE PUSH1 0xC0 ADD SWAP1 JUMP JUMPDEST PUSH1 0x1 PUSH1 0x1 PUSH1 0xA0 SHL SUB SWAP5 SWAP1 SWAP5 AND DUP5 MSTORE PUSH1 0x20 DUP5 ADD SWAP3 SWAP1 SWAP3 MSTORE PUSH1 0x40 DUP4 ADD MSTORE PUSH1 0x60 DUP3 ADD MSTORE PUSH1 0x80 ADD SWAP1 JUMP JUMPDEST SWAP2 DUP3 MSTORE PUSH1 0x20 DUP3 ADD MSTORE PUSH1 0x40 ADD SWAP1 JUMP JUMPDEST SWAP3 DUP4 MSTORE PUSH1 0x20 DUP4 ADD SWAP2 SWAP1 SWAP2 MSTORE PUSH1 0x40 DUP3 ADD MSTORE PUSH1 0x60 ADD SWAP1 JUMP JUMPDEST PUSH1 0x20 DUP1 DUP3 MSTORE PUSH1 0xD SWAP1 DUP3 ADD MSTORE PUSH13 0x139BC81B1BD8D85B081919589D PUSH1 0x9A SHL PUSH1 0x40 DUP3 ADD MSTORE PUSH1 0x60 ADD SWAP1 JUMP JUMPDEST PUSH1 0x20 DUP1 DUP3 MSTORE PUSH1 0xB SWAP1 DUP3 ADD MSTORE PUSH11 0x4554482042616C616E6365 PUSH1 0xA8 SHL PUSH1 0x40 DUP3 ADD MSTORE PUSH1 0x60 ADD SWAP1 JUMP JUMPDEST PUSH1 0x20 DUP1 DUP3 MSTORE PUSH1 0xF SWAP1 DUP3 ADD MSTORE PUSH15 0x4E6F205072696D6520426F72726F77 PUSH1 0x88 SHL PUSH1 0x40 DUP3 ADD MSTORE PUSH1 0x60 ADD SWAP1 JUMP JUMPDEST PUSH1 0x20 DUP1 DUP3 MSTORE PUSH1 0x7 SWAP1 DUP3 ADD MSTORE PUSH7 0x9CDE40C6C2E6D PUSH1 0xCB SHL PUSH1 0x40 DUP3 ADD MSTORE PUSH1 0x60 ADD SWAP1 JUMP JUMPDEST PUSH1 0x20 DUP1 DUP3 MSTORE PUSH1 0xD SWAP1 DUP3 ADD MSTORE PUSH13 0x139BC818DBDB1B185D195C985B PUSH1 0x9A SHL PUSH1 0x40 DUP3 ADD MSTORE PUSH1 0x60 ADD SWAP1 JUMP JUMPDEST PUSH1 0x20 DUP1 DUP3 MSTORE PUSH1 0x1C SWAP1 DUP3 ADD MSTORE PUSH32 0x446570726563617465643A2052656465656D20746F2063546F6B656E00000000 PUSH1 0x40 DUP3 ADD MSTORE PUSH1 0x60 ADD SWAP1 JUMP JUMPDEST PUSH1 0x20 DUP1 DUP3 MSTORE PUSH1 0xE SWAP1 DUP3 ADD MSTORE PUSH14 0x1499595B9D1C985B9D0818D85B1B PUSH1 0x92 SHL PUSH1 0x40 DUP3 ADD MSTORE PUSH1 0x60 ADD SWAP1 JUMP JUMPDEST PUSH1 0x20 DUP1 DUP3 MSTORE PUSH1 0xA SWAP1 DUP3 ADD MSTORE PUSH10 0x2732B390372A37B5B2B7 PUSH1 0xB1 SHL PUSH1 0x40 DUP3 ADD MSTORE PUSH1 0x60 ADD SWAP1 JUMP JUMPDEST PUSH2 0xFFFF SWAP3 SWAP1 SWAP3 AND DUP3 MSTORE PUSH1 0x20 DUP3 ADD MSTORE PUSH1 0x40 ADD SWAP1 JUMP JUMPDEST PUSH2 0xFFFF SWAP6 DUP7 AND DUP2 MSTORE SWAP4 SWAP1 SWAP5 AND PUSH1 0x20 DUP5 ADD MSTORE PUSH1 0x40 DUP4 ADD SWAP2 SWAP1 SWAP2 MSTORE PUSH1 0x60 DUP3 ADD MSTORE PUSH1 0x80 DUP2 ADD SWAP2 SWAP1 SWAP2 MSTORE PUSH1 0xA0 ADD SWAP1 JUMP JUMPDEST SWAP1 DUP2 MSTORE PUSH1 0x20 ADD SWAP1 JUMP JUMPDEST PUSH1 0x40 MLOAD DUP2 DUP2 ADD PUSH8 0xFFFFFFFFFFFFFFFF DUP2 GT DUP3 DUP3 LT OR ISZERO PUSH2 0x4DD6 JUMPI INVALID JUMPDEST PUSH1 0x40 MSTORE SWAP2 SWAP1 POP JUMP JUMPDEST PUSH1 0x0 PUSH8 0xFFFFFFFFFFFFFFFF DUP3 GT ISZERO PUSH2 0x4DF2 JUMPI INVALID JUMPDEST POP PUSH1 0x20 SWAP1 DUP2 MUL ADD SWAP1 JUMP JUMPDEST PUSH1 0x1 PUSH1 0x1 PUSH1 0xA0 SHL SUB DUP2 AND DUP2 EQ PUSH2 0x4E11 JUMPI PUSH1 0x0 DUP1 REVERT JUMPDEST POP JUMP JUMPDEST DUP1 ISZERO ISZERO DUP2 EQ PUSH2 0x4E11 JUMPI PUSH1 0x0 DUP1 REVERT JUMPDEST PUSH2 0xFFFF DUP2 AND DUP2 EQ PUSH2 0x4E11 JUMPI PUSH1 0x0 DUP1 REVERT INVALID LOG2 PUSH5 0x6970667358 0x22 SLT KECCAK256 0xC 0xDF GASPRICE SWAP16 PUSH4 0xFC71D0CC SWAP14 DUP3 0x5F 0xE1 0xE4 CALLER PUSH18 0xFDF90D3D77C038984FED042A9C7F803A6473 PUSH16 0x6C634300070600330000000000000000 ","sha1":"5d93fde7fa5bb1d068b1626ecc1d4fc592da14bb","source":"// SPDX-License-Identifier: GPL-3.0-only\npragma solidity =0.7.6;\npragma abicoder v2;\n\nimport {\n    BalanceState,\n    AccountContext,\n    LiquidationFactors\n} from \"../../global/Types.sol\";\nimport {SafeInt256} from \"../../math/SafeInt256.sol\";\n\nimport {AccountContextHandler} from \"../../internal/AccountContextHandler.sol\";\nimport {BalanceHandler} from \"../../internal/balances/BalanceHandler.sol\";\nimport {LiquidateCurrency} from \"../../internal/liquidation/LiquidateCurrency.sol\";\nimport {LiquidationHelpers} from \"../../internal/liquidation/LiquidationHelpers.sol\";\nimport {ActionGuards} from \"./ActionGuards.sol\";\n\nimport {MigrateIncentives} from \"../MigrateIncentives.sol\";\nimport {FreeCollateralExternal} from \"../FreeCollateralExternal.sol\";\n\ncontract LiquidateCurrencyAction is ActionGuards {\n    using AccountContextHandler for AccountContext;\n    using BalanceHandler for BalanceState;\n    using SafeInt256 for int256;\n\n    event LiquidateLocalCurrency(\n        address indexed liquidated,\n        address indexed liquidator,\n        uint16 localCurrencyId,\n        int256 localPrimeCashFromLiquidator\n    );\n\n    event LiquidateCollateralCurrency(\n        address indexed liquidated,\n        address indexed liquidator,\n        uint16 localCurrencyId,\n        uint16 collateralCurrencyId,\n        int256 localPrimeCashFromLiquidator,\n        int256 netCollateralTransfer,\n        int256 netNTokenTransfer\n    );\n\n    /// @notice Calculates the net local currency required by the liquidator. This is a stateful method\n    /// because it may settle the liquidated account if required. However, it can be called using staticcall\n    /// off chain to determine the net local currency required before liquidating.\n    /// @param liquidateAccount account to liquidate\n    /// @param localCurrency id of the local currency\n    /// @param maxNTokenLiquidation maximum amount of nTokens to purchase (if any)\n    /// @return local currency required from liquidator (positive or negative)\n    /// @return local nTokens paid to liquidator (positive)\n    function calculateLocalCurrencyLiquidation(\n        address liquidateAccount,\n        uint16 localCurrency,\n        uint96 maxNTokenLiquidation\n    ) external nonReentrant returns (int256, int256) {\n        // prettier-ignore\n        (\n            int256 localPrimeCashFromLiquidator,\n            BalanceState memory localBalanceState,\n            /* AccountContext memory accountContext */\n        ) = _localCurrencyLiquidation(\n            liquidateAccount,\n            localCurrency,\n            maxNTokenLiquidation,\n            true // Is Calculation\n        );\n\n        return (\n            localPrimeCashFromLiquidator,\n            localBalanceState.netNTokenTransfer.neg()\n        );\n    }\n\n    /// @notice Liquidates an account using local currency only\n    /// @param liquidateAccount account to liquidate\n    /// @param localCurrency id of the local currency\n    /// @param maxNTokenLiquidation maximum amount of nTokens to purchase (if any)\n    /// @return local currency required from liquidator (positive or negative)\n    /// @return local nTokens paid to liquidator (positive)\n    function liquidateLocalCurrency(\n        address liquidateAccount,\n        uint16 localCurrency,\n        uint96 maxNTokenLiquidation\n    ) external payable nonReentrant returns (int256, int256) {\n        // Calculates liquidation results:\n        //  - ntoken transfers\n        //  - amount of cash paid to/from the liquidator\n        (\n            int256 localPrimeCashFromLiquidator,\n            BalanceState memory localBalanceState,\n            AccountContext memory accountContext\n        ) = _localCurrencyLiquidation(\n            liquidateAccount,\n            localCurrency,\n            maxNTokenLiquidation,\n            false // is not calculation\n        );\n\n        // Finalizes liquidator account changes:\n        //  - transfers local asset cash to/from liquidator wallet (not notional cash\n        //    balance). Exception is with tokens that have a transfer fee\n        //  - transfers ntokens to liquidator\n        AccountContext memory liquidatorContext = LiquidationHelpers.finalizeLiquidatorLocal(\n            msg.sender,\n            liquidateAccount,\n            localCurrency,\n            localPrimeCashFromLiquidator,\n            localBalanceState.netNTokenTransfer.neg()\n        );\n        // Finalizes liquidated account changes:\n        //   - credits additional change in localBalanceChange.netCashChange\n        //   - removes transferred nTokens from the account\n        //   - sets the account context\n        localBalanceState.finalizeNoWithdraw(liquidateAccount, accountContext);\n\n        emit LiquidateLocalCurrency(\n            liquidateAccount,\n            msg.sender,\n            localCurrency,\n            localPrimeCashFromLiquidator\n        );\n\n        liquidatorContext.setAccountContext(msg.sender);\n        accountContext.setAccountContext(liquidateAccount);\n\n        return (\n            localPrimeCashFromLiquidator,\n            localBalanceState.netNTokenTransfer.neg()\n        );\n    }\n\n    /// @notice Calculates local and collateral currency transfers for a liquidation. This is a stateful method\n    /// because it may settle the liquidated account if required. However, it can be called using staticcall\n    /// off chain to determine the net currency amounts required before liquidating.\n    /// @param liquidateAccount account to liquidate\n    /// @param localCurrency id of the local currency\n    /// @param collateralCurrency id of the collateral currency\n    /// @param maxCollateralLiquidation maximum amount of collateral (inclusive of cash and nTokens) to liquidate\n    /// @param maxNTokenLiquidation maximum amount of nTokens to purchase (if any)\n    /// @return local currency required from liquidator (negative)\n    /// @return collateral asset cash paid to liquidator (positive)\n    /// @return collateral nTokens paid to liquidator (positive)\n    function calculateCollateralCurrencyLiquidation(\n        address liquidateAccount,\n        uint16 localCurrency,\n        uint16 collateralCurrency,\n        uint128 maxCollateralLiquidation,\n        uint96 maxNTokenLiquidation\n    ) external nonReentrant returns (int256, int256, int256) {\n        // prettier-ignore\n        (\n            int256 localPrimeCashFromLiquidator,\n            BalanceState memory collateralBalanceState,\n            /* */\n        ) = _collateralCurrencyLiquidation(\n                liquidateAccount,\n                localCurrency,\n                collateralCurrency,\n                maxCollateralLiquidation,\n                maxNTokenLiquidation,\n                true // is calculation\n            );\n\n        return (\n            localPrimeCashFromLiquidator,\n            collateralBalanceState.netCashChange.neg(),\n            collateralBalanceState.netNTokenTransfer.neg()\n        );\n    }\n\n    /// @notice Liquidates an account between local and collateral currency\n    /// @param liquidateAccount account to liquidate\n    /// @param localCurrency id of the local currency\n    /// @param collateralCurrency id of the collateral currency\n    /// @param maxCollateralLiquidation maximum amount of collateral (inclusive of cash and nTokens) to liquidate\n    /// @param maxNTokenLiquidation maximum amount of nTokens to purchase (if any)\n    /// @param withdrawCollateral if true, withdraws collateral cash back to msg.sender\n    /// @param redeemToUnderlying if true, converts collateral cash from asset cash to underlying\n    /// @return local currency required from liquidator (negative)\n    /// @return collateral asset cash paid to liquidator (positive)\n    /// @return collateral nTokens paid to liquidator (positive)\n    function liquidateCollateralCurrency(\n        address liquidateAccount,\n        uint16 localCurrency,\n        uint16 collateralCurrency,\n        uint128 maxCollateralLiquidation,\n        uint96 maxNTokenLiquidation,\n        bool withdrawCollateral,\n        bool redeemToUnderlying\n    ) external payable nonReentrant returns (int256, int256, int256) {\n        // Calculates currency liquidation:\n        //  - amount of collateral cash balance given to liquidator\n        //  - liquidity tokens withdrawn\n        //  - collateral ntokens transferred to liquidator\n        (\n            int256 localPrimeCashFromLiquidator,\n            BalanceState memory collateralBalanceState,\n            AccountContext memory accountContext\n        ) = _collateralCurrencyLiquidation(\n            liquidateAccount,\n            localCurrency,\n            collateralCurrency,\n            maxCollateralLiquidation,\n            maxNTokenLiquidation,\n            false // is not calculation\n        );\n\n        // Finalizes the liquidator side of the transaction:\n        //   - transfers local asset cash from the liquidator wallet (exception\n        //     is if local asset has transfer fees)\n        //   - transfers collateral cash to liquidator, withdrawing and redeeming\n        //     if specified\n        //   - transfers ntokens to liquidator\n        //   - sets account context\n        AccountContext memory liquidatorContext = _finalizeLiquidatorBalances(\n            liquidateAccount,\n            localCurrency,\n            collateralCurrency,\n            localPrimeCashFromLiquidator,\n            collateralBalanceState,\n            withdrawCollateral,\n            redeemToUnderlying\n        );\n\n        // Finalize liquidated account local balance:\n        //   - adds local asset cash to the balance\n        LiquidationHelpers.finalizeLiquidatedLocalBalance(\n            liquidateAccount,\n            localCurrency,\n            accountContext,\n            localPrimeCashFromLiquidator\n        );\n\n        // Finalizes the liquidated account collateral balance:\n        //   - removes collateral cash paid to liquidator from cash balance\n        //   - removes collateral nTokens from the account\n        //   - skips the allowPrimeBorrow check\n        //   - sets the account context\n        collateralBalanceState.finalizeCollateralLiquidation(liquidateAccount, accountContext);\n\n        _emitCollateralEvent(\n            liquidateAccount,\n            localCurrency,\n            localPrimeCashFromLiquidator,\n            collateralBalanceState\n        );\n\n        accountContext.setAccountContext(liquidateAccount);\n        liquidatorContext.setAccountContext(msg.sender);\n\n        return (\n            localPrimeCashFromLiquidator,\n            collateralBalanceState.netCashChange.neg(),\n            collateralBalanceState.netNTokenTransfer.neg()\n        );\n    }\n\n    function _emitCollateralEvent(\n        address liquidateAccount,\n        uint16 localCurrency,\n        int256 localPrimeCashFromLiquidator,\n        BalanceState memory collateralBalanceState\n    ) private {\n        emit LiquidateCollateralCurrency(\n            liquidateAccount,\n            msg.sender,\n            localCurrency,\n            uint16(collateralBalanceState.currencyId),\n            localPrimeCashFromLiquidator,\n            collateralBalanceState.netCashChange.neg(),\n            collateralBalanceState.netNTokenTransfer.neg()\n        );\n    }\n\n    function _localCurrencyLiquidation(\n        address liquidateAccount,\n        uint16 localCurrency,\n        uint96 maxNTokenLiquidation,\n        bool isCalculation\n    ) internal returns (\n        int256 localPrimeCashFromLiquidator,\n        BalanceState memory localBalanceState,\n        AccountContext memory accountContext\n    ) {\n        LiquidationFactors memory factors;\n        (accountContext, factors, /* */) = LiquidationHelpers.preLiquidationActions(\n            liquidateAccount, localCurrency, 0\n        );\n\n        localBalanceState.loadBalanceState(liquidateAccount, localCurrency, accountContext);\n        factors.isCalculation = isCalculation;\n\n        localPrimeCashFromLiquidator = LiquidateCurrency.liquidateLocalCurrency(\n            maxNTokenLiquidation,\n            localBalanceState,\n            factors\n        );\n    }\n\n    function _collateralCurrencyLiquidation(\n        address liquidateAccount,\n        uint16 localCurrency,\n        uint16 collateralCurrency,\n        uint128 maxCollateralLiquidation,\n        uint96 maxNTokenLiquidation,\n        bool isCalculation\n    ) private returns (\n        int256 localPrimeCashFromLiquidator,\n        BalanceState memory collateralBalanceState,\n        AccountContext memory accountContext\n    ) {\n        LiquidationFactors memory factors;\n        (accountContext, factors, /* */) = LiquidationHelpers.preLiquidationActions(\n            liquidateAccount, localCurrency, collateralCurrency\n        );\n\n        collateralBalanceState.loadBalanceState(liquidateAccount, collateralCurrency, accountContext);\n        factors.isCalculation = isCalculation;\n\n        localPrimeCashFromLiquidator = LiquidateCurrency.liquidateCollateralCurrency(\n            maxCollateralLiquidation,\n            maxNTokenLiquidation,\n            collateralBalanceState,\n            factors\n        );\n    }\n\n    /// @dev Only used for collateral currency liquidation\n    function _finalizeLiquidatorBalances(\n        address liquidateAccount,\n        uint16 localCurrency,\n        uint16 collateralCurrency,\n        int256 localPrimeCashFromLiquidator,\n        BalanceState memory collateralBalanceState,\n        bool withdrawCollateral,\n        bool redeemToUnderlying\n    ) private returns (AccountContext memory liquidatorContext) {\n        // Will transfer local currency from the liquidator\n        liquidatorContext = LiquidationHelpers.finalizeLiquidatorLocal(\n            msg.sender,\n            liquidateAccount,\n            localCurrency,\n            localPrimeCashFromLiquidator,\n            0 // No nToken transfers\n        );\n\n        // Will transfer collateral to the liquidator\n        LiquidationHelpers.finalizeLiquidatorCollateral(\n            msg.sender,\n            liquidatorContext,\n            liquidateAccount,\n            collateralCurrency,\n            collateralBalanceState.netCashChange.neg(),\n            collateralBalanceState.netNTokenTransfer.neg(),\n            withdrawCollateral,\n            redeemToUnderlying\n        );\n    }\n\n    /// @notice Get a list of deployed library addresses (sorted by library name)\n    function getLibInfo() external pure returns (address, address) {\n        return (address(FreeCollateralExternal), address(MigrateIncentives));\n    }\n}\n","sourcePath":"contracts/external/actions/LiquidateCurrencyAction.sol","type":"contract","deployment":{"address":"0xdfb618098fC858F43fe0E5Fb906AdFE96786832f","chainid":"42161","blockHeight":86536005}}