{"abi":[{"inputs":[{"internalType":"contract NotionalProxy","name":"notional_","type":"address"}],"stateMutability":"nonpayable","type":"constructor","name":"constructor"},{"anonymous":false,"inputs":[{"indexed":true,"internalType":"address","name":"owner","type":"address"},{"indexed":true,"internalType":"address","name":"spender","type":"address"},{"indexed":false,"internalType":"uint256","name":"value","type":"uint256"}],"name":"Approval","type":"event"},{"anonymous":false,"inputs":[{"indexed":true,"internalType":"address","name":"caller","type":"address"},{"indexed":true,"internalType":"address","name":"owner","type":"address"},{"indexed":false,"internalType":"uint256","name":"assets","type":"uint256"},{"indexed":false,"internalType":"uint256","name":"shares","type":"uint256"}],"name":"Deposit","type":"event"},{"anonymous":false,"inputs":[],"name":"ProxyRenamed","type":"event"},{"anonymous":false,"inputs":[{"indexed":true,"internalType":"address","name":"from","type":"address"},{"indexed":true,"internalType":"address","name":"to","type":"address"},{"indexed":false,"internalType":"uint256","name":"value","type":"uint256"}],"name":"Transfer","type":"event"},{"anonymous":false,"inputs":[{"indexed":true,"internalType":"address","name":"caller","type":"address"},{"indexed":true,"internalType":"address","name":"receiver","type":"address"},{"indexed":true,"internalType":"address","name":"owner","type":"address"},{"indexed":false,"internalType":"uint256","name":"assets","type":"uint256"},{"indexed":false,"internalType":"uint256","name":"shares","type":"uint256"}],"name":"Withdraw","type":"event"},{"inputs":[],"name":"EXCHANGE_RATE_PRECISION","outputs":[{"internalType":"uint256","name":"","type":"uint256"}],"stateMutability":"view","type":"function"},{"inputs":[],"name":"NOTIONAL","outputs":[{"internalType":"contract NotionalProxy","name":"","type":"address"}],"stateMutability":"view","type":"function"},{"inputs":[{"internalType":"address","name":"account","type":"address"},{"internalType":"address","name":"spender","type":"address"}],"name":"allowance","outputs":[{"internalType":"uint256","name":"","type":"uint256"}],"stateMutability":"view","type":"function"},{"inputs":[{"internalType":"address","name":"spender","type":"address"},{"internalType":"uint256","name":"amount","type":"uint256"}],"name":"approve","outputs":[{"internalType":"bool","name":"ret","type":"bool"}],"stateMutability":"nonpayable","type":"function"},{"inputs":[],"name":"asset","outputs":[{"internalType":"address","name":"","type":"address"}],"stateMutability":"view","type":"function"},{"inputs":[{"internalType":"address","name":"account","type":"address"}],"name":"balanceOf","outputs":[{"internalType":"uint256","name":"","type":"uint256"}],"stateMutability":"view","type":"function"},{"inputs":[{"internalType":"uint256","name":"shares","type":"uint256"}],"name":"convertToAssets","outputs":[{"internalType":"uint256","name":"assets","type":"uint256"}],"stateMutability":"view","type":"function"},{"inputs":[{"internalType":"uint256","name":"assets","type":"uint256"}],"name":"convertToShares","outputs":[{"internalType":"uint256","name":"shares","type":"uint256"}],"stateMutability":"view","type":"function"},{"inputs":[],"name":"currencyId","outputs":[{"internalType":"uint16","name":"","type":"uint16"}],"stateMutability":"view","type":"function"},{"inputs":[],"name":"decimals","outputs":[{"internalType":"uint8","name":"","type":"uint8"}],"stateMutability":"view","type":"function"},{"inputs":[{"internalType":"uint256","name":"assets","type":"uint256"},{"internalType":"address","name":"receiver","type":"address"}],"name":"deposit","outputs":[{"internalType":"uint256","name":"shares","type":"uint256"}],"stateMutability":"nonpayable","type":"function"},{"inputs":[{"internalType":"address","name":"account","type":"address"},{"internalType":"int256","name":"netBalance","type":"int256"}],"name":"emitMintOrBurn","outputs":[],"stateMutability":"nonpayable","type":"function"},{"inputs":[{"internalType":"address","name":"minter","type":"address"},{"internalType":"address","name":"burner","type":"address"},{"internalType":"uint256","name":"mintAmount","type":"uint256"},{"internalType":"uint256","name":"transferAndBurnAmount","type":"uint256"}],"name":"emitMintTransferBurn","outputs":[],"stateMutability":"nonpayable","type":"function"},{"inputs":[{"internalType":"address","name":"from","type":"address"},{"internalType":"address","name":"to","type":"address"},{"internalType":"uint256","name":"amount","type":"uint256"}],"name":"emitTransfer","outputs":[],"stateMutability":"nonpayable","type":"function"},{"inputs":[{"internalType":"address","name":"account","type":"address"},{"internalType":"address","name":"nToken","type":"address"},{"internalType":"int256","name":"accountToNToken","type":"int256"},{"internalType":"uint256","name":"cashToReserve","type":"uint256"}],"name":"emitfCashTradeTransfers","outputs":[],"stateMutability":"nonpayable","type":"function"},{"inputs":[],"name":"exchangeRate","outputs":[{"internalType":"uint256","name":"rate","type":"uint256"}],"stateMutability":"view","type":"function"},{"inputs":[{"internalType":"uint16","name":"currencyId_","type":"uint16"},{"internalType":"address","name":"underlying_","type":"address"},{"internalType":"string","name":"underlyingName_","type":"string"},{"internalType":"string","name":"underlyingSymbol_","type":"string"}],"name":"initialize","outputs":[],"stateMutability":"nonpayable","type":"function"},{"inputs":[{"internalType":"address","name":"","type":"address"}],"name":"maxDeposit","outputs":[{"internalType":"uint256","name":"maxAssets","type":"uint256"}],"stateMutability":"view","type":"function"},{"inputs":[{"internalType":"address","name":"","type":"address"}],"name":"maxMint","outputs":[{"internalType":"uint256","name":"maxShares","type":"uint256"}],"stateMutability":"view","type":"function"},{"inputs":[{"internalType":"address","name":"owner","type":"address"}],"name":"maxRedeem","outputs":[{"internalType":"uint256","name":"maxShares","type":"uint256"}],"stateMutability":"view","type":"function"},{"inputs":[{"internalType":"address","name":"owner","type":"address"}],"name":"maxWithdraw","outputs":[{"internalType":"uint256","name":"maxAssets","type":"uint256"}],"stateMutability":"view","type":"function"},{"inputs":[{"internalType":"uint256","name":"shares","type":"uint256"},{"internalType":"address","name":"receiver","type":"address"}],"name":"mint","outputs":[{"internalType":"uint256","name":"assets","type":"uint256"}],"stateMutability":"nonpayable","type":"function"},{"inputs":[],"name":"name","outputs":[{"internalType":"string","name":"","type":"string"}],"stateMutability":"view","type":"function"},{"inputs":[],"name":"nativeDecimals","outputs":[{"internalType":"uint8","name":"","type":"uint8"}],"stateMutability":"view","type":"function"},{"inputs":[{"internalType":"uint256","name":"assets","type":"uint256"}],"name":"previewDeposit","outputs":[{"internalType":"uint256","name":"shares","type":"uint256"}],"stateMutability":"view","type":"function"},{"inputs":[{"internalType":"uint256","name":"shares","type":"uint256"}],"name":"previewMint","outputs":[{"internalType":"uint256","name":"assets","type":"uint256"}],"stateMutability":"view","type":"function"},{"inputs":[{"internalType":"uint256","name":"shares","type":"uint256"}],"name":"previewRedeem","outputs":[{"internalType":"uint256","name":"assets","type":"uint256"}],"stateMutability":"view","type":"function"},{"inputs":[{"internalType":"uint256","name":"assets","type":"uint256"}],"name":"previewWithdraw","outputs":[{"internalType":"uint256","name":"shares","type":"uint256"}],"stateMutability":"view","type":"function"},{"inputs":[{"internalType":"uint256","name":"shares","type":"uint256"},{"internalType":"address","name":"receiver","type":"address"},{"internalType":"address","name":"owner","type":"address"}],"name":"redeem","outputs":[{"internalType":"uint256","name":"assets","type":"uint256"}],"stateMutability":"nonpayable","type":"function"},{"inputs":[{"internalType":"string","name":"underlyingName_","type":"string"},{"internalType":"string","name":"underlyingSymbol_","type":"string"}],"name":"rename","outputs":[],"stateMutability":"nonpayable","type":"function"},{"inputs":[],"name":"symbol","outputs":[{"internalType":"string","name":"","type":"string"}],"stateMutability":"view","type":"function"},{"inputs":[],"name":"totalAssets","outputs":[{"internalType":"uint256","name":"totalManagedAssets","type":"uint256"}],"stateMutability":"view","type":"function"},{"inputs":[],"name":"totalSupply","outputs":[{"internalType":"uint256","name":"","type":"uint256"}],"stateMutability":"view","type":"function"},{"inputs":[{"internalType":"address","name":"to","type":"address"},{"internalType":"uint256","name":"amount","type":"uint256"}],"name":"transfer","outputs":[{"internalType":"bool","name":"ret","type":"bool"}],"stateMutability":"nonpayable","type":"function"},{"inputs":[{"internalType":"address","name":"from","type":"address"},{"internalType":"address","name":"to","type":"address"},{"internalType":"uint256","name":"amount","type":"uint256"}],"name":"transferFrom","outputs":[{"internalType":"bool","name":"ret","type":"bool"}],"stateMutability":"nonpayable","type":"function"},{"inputs":[],"name":"underlying","outputs":[{"internalType":"address","name":"","type":"address"}],"stateMutability":"view","type":"function"},{"inputs":[{"internalType":"uint256","name":"assets","type":"uint256"},{"internalType":"address","name":"receiver","type":"address"},{"internalType":"address","name":"owner","type":"address"}],"name":"withdraw","outputs":[{"internalType":"uint256","name":"shares","type":"uint256"}],"stateMutability":"nonpayable","type":"function"}],"bytecode":"60a06040523480156200001157600080fd5b50604051620027b6380380620027b683398101604081905262000034916200011c565b6000548190610100900460ff168062000052575062000052620000f8565b8062000061575060005460ff16155b6200009e5760405162461bcd60e51b815260040180806020018281038252602e81526020018062002788602e913960400191505060405180910390fd5b600054610100900460ff16158015620000ca576000805460ff1961ff0019909116610100171660011790555b6001600160601b0319606083901b166080528015620000ef576000805461ff00191690555b5050506200014c565b600062000110306200011660201b6200135d1760201c565b15905090565b3b151590565b6000602082840312156200012e578081fd5b81516001600160a01b038116811462000145578182fd5b9392505050565b60805160601c6125e7620001a16000398061063a52806106e452806108375280610a095280610b3f5280610cf55280610ec15280610fc0528061124a528061138452806114ed528061178e52506125e76000f3fe608060405234801561001057600080fd5b50600436106102275760003560e01c806370a0823111610130578063b3d7f6b9116100b8578063ccb2d5ed1161007c578063ccb2d5ed1461044e578063ce96cb7714610461578063d905777e14610378578063dd62ed3e14610474578063ef8b30f71461029257610227565b8063b3d7f6b91461034a578063b460af9414610402578063ba08765214610415578063c63d75b614610428578063c6e6f5921461043b57610227565b806395d89b41116100ff57806395d89b41146103ae5780639c7c722b146103b6578063a9059cbb146103c9578063a992714e146103dc578063ad1c095d146103ef57610227565b806370a0823114610378578063768ea56a1461038b578063858dccb31461039357806394bf804d1461039b57610227565b8063313ce567116101b35780633ba0b9a9116101825780633ba0b9a91461032f578063402d267d146103375780634cdad5061461034a5780636e553f651461035d5780636f307dc31461037057610227565b8063313ce567146102ea57806338d52e0f146102ff57806339de9746146103145780633a01b9641461032757610227565b80630a28a477116101fa5780630a28a4771461029257806318160ddd146102a55780631feeece2146102ad57806323b872dd146102c257806323de6651146102d557610227565b806301e1d1141461022c57806306fdde031461024a57806307a2d13a1461025f578063095ea7b314610272575b600080fd5b610234610487565b6040516102419190612450565b60405180910390f35b610252610496565b6040516102419190612363565b61023461026d36600461223b565b610523565b610285610280366004612017565b610551565b6040516102419190612358565b6102346102a036600461223b565b6105b7565b6102346105c2565b6102b56105cc565b6040516102419190612410565b6102856102d0366004611fc2565b6105d6565b6102e86102e3366004611fc2565b61062f565b005b6102f26106be565b6040516102419190612467565b6103076106c3565b6040516102419190612344565b6102e8610322366004612002565b6106d9565b6102346107d4565b6102346107e0565b610234610345366004611f0d565b610816565b61023461035836600461223b565b610920565b61023461036b366004612253565b61092b565b6103076109d7565b610234610386366004611f0d565b6109ed565b6102f26109f8565b610307610a07565b6102346103a9366004612253565b610a2b565b610252610ae5565b6102e86103c436600461205a565b610b3d565b6102856103d7366004612017565b610c99565b6102e86103ea3660046121af565b610cea565b6102e86103fd366004612017565b610fb5565b610234610410366004612277565b611083565b610234610423366004612277565b611152565b610234610436366004611f0d565b6111fb565b61023461044936600461223b565b611220565b6102e861045c366004611f7d565b61123f565b61023461046f366004611f0d565b611343565b610234610482366004611f45565b611351565b6000610491611363565b905090565b60018054604080516020600284861615610100026000190190941693909304601f8101849004840282018401909252818152929183018282801561051b5780601f106104f05761010080835404028352916020019161051b565b820191906000526020600020905b8154815290600101906020018083116104fe57829003601f168201915b505050505081565b6000610549670de0b6b3a76400006105438461053d6107e0565b9061146e565b90611495565b90505b919050565b600061055d83836114b4565b905080156105b157826001600160a01b0316336001600160a01b03167f8c5be1e5ebec7d5bd14f71427d1e84f3dd0314c0f7b2291e5b200ac8c7c3b925846040516105a89190612450565b60405180910390a35b92915050565b600061054982611220565b60006104916114ce565b60035461ffff1681565b6000826001600160a01b0316846001600160a01b0316600080516020612532833981519152846040516106099190612450565b60405180910390a361061c8484846114b4565b90508061062857600080fd5b9392505050565b336001600160a01b037f000000000000000000000000000000000000000000000000000000000000000016146106805760405162461bcd60e51b8152600401610677906123bf565b60405180910390fd5b816001600160a01b0316836001600160a01b0316600080516020612532833981519152836040516106b19190612450565b60405180910390a3505050565b600881565b600354630100000090046001600160a01b031690565b336001600160a01b037f000000000000000000000000000000000000000000000000000000000000000016146107215760405162461bcd60e51b8152600401610677906123bf565b836001600160a01b031660006001600160a01b0316600080516020612532833981519152846040516107539190612450565b60405180910390a3826001600160a01b0316846001600160a01b03166000805160206125328339815191528360405161078c9190612450565b60405180910390a360006001600160a01b0316836001600160a01b0316600080516020612532833981519152836040516107c69190612450565b60405180910390a350505050565b670de0b6b3a764000081565b6000806107eb611363565b905060006107f76114ce565b905061080f8161054384670de0b6b3a764000061146e565b9250505090565b60035460405163206f279960e01b8152600091829182916001600160a01b037f0000000000000000000000000000000000000000000000000000000000000000169163206f2799916108739161ffff90911690429060040161243c565b6101c06040518083038186803b15801561088c57600080fd5b505afa1580156108a0573d6000803e3d6000fd5b505050506040513d601f19601f820116820180604052508101906108c491906120bb565b93509350505081600014156108df576000199250505061054c565b8082116108f15760009250505061054c565b600354610917906305f5e10090610543908486039062010000900460ff16600a0a61146e565b9250505061054c565b600061054982610523565b60008061093784611585565b9094509050610947848285611755565b9150826001600160a01b031660006001600160a01b03166000805160206125328339815191528460405161097b9190612450565b60405180910390a3826001600160a01b0316336001600160a01b03167fdcbc1c05240f31ff3ad067ef1ee35ce4997762752e3a095284754544f4c709d786856040516109c8929190612459565b60405180910390a35092915050565b600354630100000090046001600160a01b031681565b60006105498261176f565b60035462010000900460ff1681565b7f000000000000000000000000000000000000000000000000000000000000000081565b600080610a3784610920565b9150610a4282611585565b90925090506000610a54838386611755565b9050836001600160a01b031660006001600160a01b031660008051602061253283398151915283604051610a889190612450565b60405180910390a3836001600160a01b0316336001600160a01b03167fdcbc1c05240f31ff3ad067ef1ee35ce4997762752e3a095284754544f4c709d78584604051610ad5929190612459565b60405180910390a3505092915050565b6002805460408051602060018416156101000260001901909316849004601f8101849004840282018401909252818152929183018282801561051b5780601f106104f05761010080835404028352916020019161051b565b7f00000000000000000000000000000000000000000000000000000000000000006001600160a01b0316638da5cb5b6040518163ffffffff1660e01b815260040160206040518083038186803b158015610b9657600080fd5b505afa158015610baa573d6000803e3d6000fd5b505050506040513d601f19601f82011682018060405250810190610bce9190611f29565b6001600160a01b0316336001600160a01b031614610beb57600080fd5b600080610bf6611835565b915091508184604051602001610c0d929190612308565b60405160208183030381529060405260019080519060200190610c31929190611e10565b508083604051602001610c459291906122d9565b60405160208183030381529060405260029080519060200190610c69929190611e10565b506040517f8d4bc6886f1b5887a0c7da5cf5dbdf35c7bcced78089e0e522b49be05817699990600090a150505050565b6000826001600160a01b0316336001600160a01b031660008051602061253283398151915284604051610ccc9190612450565b60405180910390a3610cde83836114b4565b9050806105b157600080fd5b336001600160a01b037f00000000000000000000000000000000000000000000000000000000000000001614610d325760405162461bcd60e51b8152600401610677906123bf565b600054610100900460ff1680610d4b5750610d4b61186d565b80610d59575060005460ff16155b610d945760405162461bcd60e51b815260040180806020018281038252602e815260200180612504602e913960400191505060405180910390fd5b600054610100900460ff16158015610dbf576000805460ff1961ff0019909116610100171660011790555b6003805461ffff191661ffff8716179055600080610ddb611835565b915091508185604051602001610df2929190612308565b60405160208183030381529060405260019080519060200190610e16929190611e10565b508084604051602001610e2a9291906122d9565b60405160208183030381529060405260029080519060200190610e4e929190611e10565b506001600160a01b038616610e8e57600380546301000000600160b81b0319167682af49447d8a07e3bd95bd0d56f35241523fbab1000000179055610ee8565b600380546301000000600160b81b03191663010000006001600160a01b0389811682029290921792839055610ee89204167f000000000000000000000000000000000000000000000000000000000000000060001961187e565b60038054906101000a90046001600160a01b03166001600160a01b031663313ce5676040518163ffffffff1660e01b815260040160206040518083038186803b158015610f3457600080fd5b505afa158015610f48573d6000803e3d6000fd5b505050506040513d601f19601f82011682018060405250810190610f6c91906122b8565b6003805462ff000019166201000060ff938416810291909117918290556024910490911610610f9a57600080fd5b50508015610fae576000805461ff00191690555b5050505050565b336001600160a01b037f00000000000000000000000000000000000000000000000000000000000000001614610ffd5760405162461bcd60e51b8152600401610677906123bf565b60008112156110445760006001600160a01b03831660008051602061253283398151915261102a84611996565b6040516110379190612450565b60405180910390a361107f565b816001600160a01b031660006001600160a01b0316600080516020612532833981519152836040516110769190612450565b60405180910390a35b5050565b600061108e846105b7565b9050600061109b8361176f565b9050808211156110a9578091505b60006110b6838686611755565b905060006001600160a01b0316846001600160a01b0316600080516020612532833981519152856040516110ea9190612450565b60405180910390a3836001600160a01b0316856001600160a01b0316336001600160a01b03167ffbde797d201c681b91056529119e0b02407c7bb96a4a2c75c01fc9667232c8db8487604051611141929190612459565b60405180910390a450509392505050565b600080611160858585611755565b905060006001600160a01b0316836001600160a01b0316600080516020612532833981519152876040516111949190612450565b60405180910390a3826001600160a01b0316846001600160a01b0316336001600160a01b03167ffbde797d201c681b91056529119e0b02407c7bb96a4a2c75c01fc9667232c8db84896040516111eb929190612459565b60405180910390a4949350505050565b6000806112086000610816565b905060001981141561121b57905061054c565b610628815b600061054961122d6107e0565b61054384670de0b6b3a764000061146e565b336001600160a01b037f000000000000000000000000000000000000000000000000000000000000000016146112875760405162461bcd60e51b8152600401610677906123bf565b60008212156112d657826001600160a01b0316846001600160a01b03166000805160206125328339815191526112bc856119a4565b6040516112c99190612450565b60405180910390a3611310565b836001600160a01b0316836001600160a01b0316600080516020612532833981519152846040516113079190612450565b60405180910390a35b610fee6001600160a01b0316846001600160a01b0316600080516020612532833981519152836040516107c69190612450565b600061054961026d8361176f565b600061062883836114b4565b3b151590565b60035460405163206f279960e01b8152600091829182916001600160a01b037f0000000000000000000000000000000000000000000000000000000000000000169163206f2799916113c09161ffff90911690429060040161243c565b6101c06040518083038186803b1580156113d957600080fd5b505afa1580156113ed573d6000803e3d6000fd5b505050506040513d601f19601f8201168201806040525081019061141191906120bb565b50509150915061080f6114696114516305f5e100611463600360029054906101000a900460ff1660ff16600a0a61145d61145661145189604001516119c5565b611996565b89906119df565b90611a30565b90611a7e565b611aaf565b60008261147d575060006105b1565b8282028284828161148a57fe5b041461062857600080fd5b60008082116114a357600080fd5b8183816114ac57fe5b049392505050565b600060405162461bcd60e51b8152600401610677906123e5565b60035460405163206f279960e01b815260009182916001600160a01b037f0000000000000000000000000000000000000000000000000000000000000000169163206f2799916115279161ffff1690429060040161243c565b6101c06040518083038186803b15801561154057600080fd5b505afa158015611554573d6000803e3d6000fd5b505050506040513d601f19601f8201168201806040525081019061157891906120bb565b5050604001519250505090565b6003546040516370a0823160e01b815260009182918291630100000090046001600160a01b0316906370a08231906115c1903090600401612344565b60206040518083038186803b1580156115d957600080fd5b505afa1580156115ed573d6000803e3d6000fd5b505050506040513d601f19601f820116820180604052508101906116119190612042565b905061163260038054906101000a90046001600160a01b0316333087611abe565b6003546040516370a0823160e01b8152600091630100000090046001600160a01b0316906370a082319061166a903090600401612344565b60206040518083038186803b15801561168257600080fd5b505afa158015611696573d6000803e3d6000fd5b505050506040513d601f19601f820116820180604052508101906116ba9190612042565b90506116c68183611b1e565b60035490945061ffff166001141561174957604051632e1a7d4d60e01b81527382af49447d8a07e3bd95bd0d56f35241523fbab190632e1a7d4d9061170f908790600401612450565b600060405180830381600087803b15801561172957600080fd5b505af115801561173d573d6000803e3d6000fd5b5050505083925061174e565b600092505b5050915091565b600060405162461bcd60e51b815260040161067790612396565b600354604051631a79491d60e31b815260009182916001600160a01b037f0000000000000000000000000000000000000000000000000000000000000000169163d3ca48e8916117c89161ffff1690879060040161241f565b60206040518083038186803b1580156117e057600080fd5b505afa1580156117f4573d6000803e3d6000fd5b505050506040513d601f19601f820116820180604052508101906118189190612042565b905060008112611829576000610628565b61062861146982611996565b60408051808201825260058152641c1119589d60da1b602080830191909152825180840190935260028352611c1960f21b9083015291565b60006118783061135d565b15905090565b801580611904575060408051636eb1769f60e11b81523060048201526001600160a01b03848116602483015291519185169163dd62ed3e91604480820192602092909190829003018186803b1580156118d657600080fd5b505afa1580156118ea573d6000803e3d6000fd5b505050506040513d602081101561190057600080fd5b5051155b61193f5760405162461bcd60e51b815260040180806020018281038252603681526020018061257c6036913960400191505060405180910390fd5b604080516001600160a01b038416602482015260448082018490528251808303909101815260649091019091526020810180516001600160e01b031663095ea7b360e01b179052611991908490611b33565b505050565b600061054960001983611a30565b6000808212156119be576119b782611996565b905061054c565b508061054c565b60006001600160ff1b038211156119db57600080fd5b5090565b6000600182126119ee57600080fd5b816119fb575060006105b1565b6106286001611a2a6ec097ce7bc90715b34b9f1000000000611463876020015187611a3090919063ffffffff16565b90611be4565b818102600019831415611a6057811580611a52575082828281611a4f57fe5b05145b611a5b57600080fd5b6105b1565b821580611a75575081838281611a7257fe5b05145b6105b157600080fd5b600081600019148015611a945750600160ff1b83145b15611a9e57600080fd5b818381611aa757fe5b059392505050565b6000808212156119db57600080fd5b604080516001600160a01b0380861660248301528416604482015260648082018490528251808303909101815260849091019091526020810180516001600160e01b03166323b872dd60e01b179052611b18908590611b33565b50505050565b600082821115611b2d57600080fd5b50900390565b6000611b88826040518060400160405280602081526020017f5361666545524332303a206c6f772d6c6576656c2063616c6c206661696c6564815250856001600160a01b0316611bfa9092919063ffffffff16565b80519091501561199157808060200190516020811015611ba757600080fd5b50516119915760405162461bcd60e51b815260040180806020018281038252602a815260200180612552602a913960400191505060405180910390fd5b808203828113156000831215146105b157600080fd5b6060611c098484600085611c11565b949350505050565b606082471015611c525760405162461bcd60e51b81526004018080602001828103825260268152602001806124de6026913960400191505060405180910390fd5b611c5b8561135d565b611cac576040805162461bcd60e51b815260206004820152601d60248201527f416464726573733a2063616c6c20746f206e6f6e2d636f6e7472616374000000604482015290519081900360640190fd5b600080866001600160a01b031685876040518082805190602001908083835b60208310611cea5780518252601f199092019160209182019101611ccb565b6001836020036101000a03801982511681845116808217855250505050505090500191505060006040518083038185875af1925050503d8060008114611d4c576040519150601f19603f3d011682016040523d82523d6000602084013e611d51565b606091505b5091509150611d61828286611d6c565b979650505050505050565b60608315611d7b575081610628565b825115611d8b5782518084602001fd5b8160405162461bcd60e51b81526004018080602001828103825283818151815260200191508051906020019080838360005b83811015611dd5578181015183820152602001611dbd565b50505050905090810190601f168015611e025780820380516001836020036101000a031916815260200191505b509250505060405180910390fd5b828054600181600116156101000203166002900490600052602060002090601f016020900481019282611e465760008555611e8c565b82601f10611e5f57805160ff1916838001178555611e8c565b82800160010185558215611e8c579182015b82811115611e8c578251825591602001919060010190611e71565b506119db9291505b808211156119db5760008155600101611e94565b600082601f830112611eb8578081fd5b813567ffffffffffffffff811115611ecc57fe5b611edf601f8201601f1916602001612475565b818152846020838601011115611ef3578283fd5b816020850160208301379081016020019190915292915050565b600060208284031215611f1e578081fd5b8135610628816124c5565b600060208284031215611f3a578081fd5b8151610628816124c5565b60008060408385031215611f57578081fd5b8235611f62816124c5565b91506020830135611f72816124c5565b809150509250929050565b60008060008060808587031215611f92578182fd5b8435611f9d816124c5565b93506020850135611fad816124c5565b93969395505050506040820135916060013590565b600080600060608486031215611fd6578283fd5b8335611fe1816124c5565b92506020840135611ff1816124c5565b929592945050506040919091013590565b60008060008060808587031215611f92578384fd5b60008060408385031215612029578182fd5b8235612034816124c5565b946020939093013593505050565b600060208284031215612053578081fd5b5051919050565b6000806040838503121561206c578081fd5b823567ffffffffffffffff80821115612083578283fd5b61208f86838701611ea8565b935060208501359150808211156120a4578283fd5b506120b185828601611ea8565b9150509250929050565b6000806000808486036101c08112156120d2578283fd5b60608112156120df578283fd5b6040516060810181811067ffffffffffffffff821117156120fc57fe5b6040908152875182526020808901519083015287810151908201529450610120605f19820181131561212c578384fd5b61213581612475565b9150606087015182526080870151602083015260a0870151604083015260c0870151606083015260e0870151608083015261010087015160a08301528087015160c08301525061014086015160e08201526101608601516101008201528093505061018085015191506101a0850151905092959194509250565b600080600080608085870312156121c4578182fd5b843561ffff811681146121d5578283fd5b935060208501356121e5816124c5565b9250604085013567ffffffffffffffff80821115612201578384fd5b61220d88838901611ea8565b93506060870135915080821115612222578283fd5b5061222f87828801611ea8565b91505092959194509250565b60006020828403121561224c578081fd5b5035919050565b60008060408385031215612265578182fd5b823591506020830135611f72816124c5565b60008060006060848603121561228b578081fd5b83359250602084013561229d816124c5565b915060408401356122ad816124c5565b809150509250925092565b6000602082840312156122c9578081fd5b815160ff81168114610628578182fd5b600083516122eb818460208801612499565b8351908301906122ff818360208801612499565b01949350505050565b6000835161231a818460208801612499565b600160fd1b9083019081528351612338816001840160208801612499565b01600101949350505050565b6001600160a01b0391909116815260200190565b901515815260200190565b6000602082528251806020840152612382816040850160208701612499565b601f01601f19169190910160400192915050565b6020808252600f908201526e139bdd08125b5c1b195b595b9d1959608a1b604082015260600190565b6020808252600c908201526b155b985d5d1a1bdc9a5e995960a21b604082015260600190565b6020808252601190820152704e6f6e205472616e736665727261626c6560781b604082015260600190565b61ffff91909116815260200190565b61ffff9290921682526001600160a01b0316602082015260400190565b61ffff929092168252602082015260400190565b90815260200190565b918252602082015260400190565b60ff91909116815260200190565b60405181810167ffffffffffffffff8111828210171561249157fe5b604052919050565b60005b838110156124b457818101518382015260200161249c565b83811115611b185750506000910152565b6001600160a01b03811681146124da57600080fd5b5056fe416464726573733a20696e73756666696369656e742062616c616e636520666f722063616c6c496e697469616c697a61626c653a20636f6e747261637420697320616c726561647920696e697469616c697a6564ddf252ad1be2c89b69c2b068fc378daa952ba7f163c4a11628f55a4df523b3ef5361666545524332303a204552433230206f7065726174696f6e20646964206e6f7420737563636565645361666545524332303a20617070726f76652066726f6d206e6f6e2d7a65726f20746f206e6f6e2d7a65726f20616c6c6f77616e6365a2646970667358221220906132c3a9c733aaf523bc3e7c4d9a398911a1c97d2611ddb89817263b77dc1f64736f6c63430007060033496e697469616c697a61626c653a20636f6e747261637420697320616c726561647920696e697469616c697a6564","bytecodeSha1":"da39a3ee5e6b4b0d3255bfef95601890afd80709","compiler":{"evm_version":"istanbul","optimizer":{"enabled":true,"runs":200},"version":"0.7.6+commit.7338295f"},"contractName":"PrimeDebtProxy","language":"Solidity","natspec":{"kind":"dev","methods":{"EXCHANGE_RATE_PRECISION()":{"notice":"Precision for exchangeRate()"},"NOTIONAL()":{"notice":"Address of the notional proxy, proxies only have access to a subset of the methods"},"approve(address,uint256)":{"details":"Sets `amount` as the allowance of `spender` over the caller's tokens. Returns a boolean value indicating whether the operation succeeded. IMPORTANT: Beware that changing an allowance with this method brings the risk that someone may use both the old and the new allowance by unfortunate transaction ordering. One possible solution to mitigate this race condition is to first reduce the spender's allowance to 0 and set the desired value afterwards: https://github.com/ethereum/EIPs/issues/20#issuecomment-263524729 Emits an {Approval} event."},"asset()":{"notice":"Returns the asset token reference by IERC4626, uses the underlying token as the asset for ERC4626 so that it is compatible with more use cases."},"balanceOf(address)":{"notice":"Required ERC20 Methods "},"convertToAssets(uint256)":{"notice":"Converts nToken denomination to underlying denomination"},"convertToShares(uint256)":{"notice":"Converts an underlying token to an nToken denomination"},"currencyId()":{"notice":"Currency id that this nToken refers to"},"decimals()":{"notice":"Inherits from Constants.INTERNAL_TOKEN_PRECISION"},"deposit(uint256,address)":{"notice":"Deposits assets into nToken for the receiver's account. Requires that the ERC4626 token has approval to transfer assets from the msg.sender directly to Notional."},"emitMintOrBurn(address,int256)":{"notice":"Convenience method for minting and burning"},"emitMintTransferBurn(address,address,uint256,uint256)":{"notice":"Convenience method for mint, transfer and burn. Used in vaults to record margin deposits and withdraws."},"emitTransfer(address,address,uint256)":{"notice":"Allows ERC20 transfer events to be emitted from the proper address so that wallet tools can properly track balances."},"emitfCashTradeTransfers(address,address,int256,uint256)":{"notice":"Only used on pCash when fCash is traded."},"maxDeposit(address)":{"notice":"Gets the max underlying supply"},"maxMint(address)":{"notice":"Gets the max underlying supply and converts it to shares"},"maxRedeem(address)":{"details":"Returns the maximum amount of Vault shares that can be redeemed from the owner balance in the Vault, through a redeem call. - MUST return a limited value if owner is subject to some withdrawal limit or timelock. - MUST return balanceOf(owner) if owner is not subject to any withdrawal limit or timelock. - MUST NOT revert."},"maxWithdraw(address)":{"details":"Returns the maximum amount of the underlying asset that can be withdrawn from the owner balance in the Vault, through a withdraw call. - MUST return a limited value if owner is subject to some withdrawal limit or timelock. - MUST NOT revert."},"mint(uint256,address)":{"notice":"Deposits assets into nToken for the receiver's account. Requires that the ERC4626 token has approval to transfer assets from the msg.sender directly to Notional."},"name()":{"notice":"Will be \"[Staked] nToken {Underlying Token}.name()\", therefore \"USD Coin\" will be \"nToken USD Coin\" for the regular nToken and \"Staked nToken USD Coin\" for the staked version."},"nativeDecimals()":{"notice":"Native underlying decimal places"},"previewDeposit(uint256)":{"notice":"Deposits are based on the conversion rate assets to shares"},"previewMint(uint256)":{"notice":"Mints are based on the conversion rate from shares to assets"},"previewRedeem(uint256)":{"details":"Redemptions of nToken shares to underlying assets will experience slippage which is not easily calculated. In some situations, slippage may be so great that the shares are not able to be redeemed purely via the ERC4626 method and would require the account to call nTokenRedeem on AccountAction and take on illiquid fCash residuals.","notice":"Return value is an over-estimation of the assets that the user will receive via redemptions, this method does not account for slippage and potential illiquid residuals. This method is not completely ERC4626 compliant in that sense."},"previewWithdraw(uint256)":{"notice":"Return value is an under-estimation of the shares that the user will need to redeem to raise assets, this method does not account for slippage and potential illiquid residuals. This method is not completely ERC4626 compliant in that sense."},"redeem(uint256,address,address)":{"notice":"Redeems the specified amount of nTokens (shares) for some amount of assets."},"symbol()":{"notice":"Will be \"[s]n{Underlying Token}.symbol()\", therefore \"USDC\" will be \"nUSDC\""},"totalAssets()":{"notice":"Returns the total present value of the nTokens held in native underlying token precision"},"totalSupply()":{"details":"Returns the amount of tokens in existence."},"underlying()":{"notice":"ERC20 underlying token referred to as the \"asset\" in IERC4626"},"withdraw(uint256,address,address)":{"notice":"Redeems assets from the owner and sends them to the receiver. WARNING: the assets provided as a value here will not be what the method actually redeems due to estimation issues."}},"version":1},"opcodes":"PUSH1 0x80 PUSH1 0x40 MSTORE CALLVALUE DUP1 ISZERO PUSH2 0x10 JUMPI PUSH1 0x0 DUP1 REVERT JUMPDEST POP PUSH1 0x4 CALLDATASIZE LT PUSH2 0x227 JUMPI PUSH1 0x0 CALLDATALOAD PUSH1 0xE0 SHR DUP1 PUSH4 0x70A08231 GT PUSH2 0x130 JUMPI DUP1 PUSH4 0xB3D7F6B9 GT PUSH2 0xB8 JUMPI DUP1 PUSH4 0xCCB2D5ED GT PUSH2 0x7C JUMPI DUP1 PUSH4 0xCCB2D5ED EQ PUSH2 0x44E JUMPI DUP1 PUSH4 0xCE96CB77 EQ PUSH2 0x461 JUMPI DUP1 PUSH4 0xD905777E EQ PUSH2 0x378 JUMPI DUP1 PUSH4 0xDD62ED3E EQ PUSH2 0x474 JUMPI DUP1 PUSH4 0xEF8B30F7 EQ PUSH2 0x292 JUMPI PUSH2 0x227 JUMP JUMPDEST DUP1 PUSH4 0xB3D7F6B9 EQ PUSH2 0x34A JUMPI DUP1 PUSH4 0xB460AF94 EQ PUSH2 0x402 JUMPI DUP1 PUSH4 0xBA087652 EQ PUSH2 0x415 JUMPI DUP1 PUSH4 0xC63D75B6 EQ PUSH2 0x428 JUMPI DUP1 PUSH4 0xC6E6F592 EQ PUSH2 0x43B JUMPI PUSH2 0x227 JUMP JUMPDEST DUP1 PUSH4 0x95D89B41 GT PUSH2 0xFF JUMPI DUP1 PUSH4 0x95D89B41 EQ PUSH2 0x3AE JUMPI DUP1 PUSH4 0x9C7C722B EQ PUSH2 0x3B6 JUMPI DUP1 PUSH4 0xA9059CBB EQ PUSH2 0x3C9 JUMPI DUP1 PUSH4 0xA992714E EQ PUSH2 0x3DC JUMPI DUP1 PUSH4 0xAD1C095D EQ PUSH2 0x3EF JUMPI PUSH2 0x227 JUMP JUMPDEST DUP1 PUSH4 0x70A08231 EQ PUSH2 0x378 JUMPI DUP1 PUSH4 0x768EA56A EQ PUSH2 0x38B JUMPI DUP1 PUSH4 0x858DCCB3 EQ PUSH2 0x393 JUMPI DUP1 PUSH4 0x94BF804D EQ PUSH2 0x39B JUMPI PUSH2 0x227 JUMP JUMPDEST DUP1 PUSH4 0x313CE567 GT PUSH2 0x1B3 JUMPI DUP1 PUSH4 0x3BA0B9A9 GT PUSH2 0x182 JUMPI DUP1 PUSH4 0x3BA0B9A9 EQ PUSH2 0x32F JUMPI DUP1 PUSH4 0x402D267D EQ PUSH2 0x337 JUMPI DUP1 PUSH4 0x4CDAD506 EQ PUSH2 0x34A JUMPI DUP1 PUSH4 0x6E553F65 EQ PUSH2 0x35D JUMPI DUP1 PUSH4 0x6F307DC3 EQ PUSH2 0x370 JUMPI PUSH2 0x227 JUMP JUMPDEST DUP1 PUSH4 0x313CE567 EQ PUSH2 0x2EA JUMPI DUP1 PUSH4 0x38D52E0F EQ PUSH2 0x2FF JUMPI DUP1 PUSH4 0x39DE9746 EQ PUSH2 0x314 JUMPI DUP1 PUSH4 0x3A01B964 EQ PUSH2 0x327 JUMPI PUSH2 0x227 JUMP JUMPDEST DUP1 PUSH4 0xA28A477 GT PUSH2 0x1FA JUMPI DUP1 PUSH4 0xA28A477 EQ PUSH2 0x292 JUMPI DUP1 PUSH4 0x18160DDD EQ PUSH2 0x2A5 JUMPI DUP1 PUSH4 0x1FEEECE2 EQ PUSH2 0x2AD JUMPI DUP1 PUSH4 0x23B872DD EQ PUSH2 0x2C2 JUMPI DUP1 PUSH4 0x23DE6651 EQ PUSH2 0x2D5 JUMPI PUSH2 0x227 JUMP JUMPDEST DUP1 PUSH4 0x1E1D114 EQ PUSH2 0x22C JUMPI DUP1 PUSH4 0x6FDDE03 EQ PUSH2 0x24A JUMPI DUP1 PUSH4 0x7A2D13A EQ PUSH2 0x25F JUMPI DUP1 PUSH4 0x95EA7B3 EQ PUSH2 0x272 JUMPI JUMPDEST PUSH1 0x0 DUP1 REVERT JUMPDEST PUSH2 0x234 PUSH2 0x487 JUMP JUMPDEST PUSH1 0x40 MLOAD PUSH2 0x241 SWAP2 SWAP1 PUSH2 0x2450 JUMP JUMPDEST PUSH1 0x40 MLOAD DUP1 SWAP2 SUB SWAP1 RETURN JUMPDEST PUSH2 0x252 PUSH2 0x496 JUMP JUMPDEST PUSH1 0x40 MLOAD PUSH2 0x241 SWAP2 SWAP1 PUSH2 0x2363 JUMP JUMPDEST PUSH2 0x234 PUSH2 0x26D CALLDATASIZE PUSH1 0x4 PUSH2 0x223B JUMP JUMPDEST PUSH2 0x523 JUMP JUMPDEST PUSH2 0x285 PUSH2 0x280 CALLDATASIZE PUSH1 0x4 PUSH2 0x2017 JUMP JUMPDEST PUSH2 0x551 JUMP JUMPDEST PUSH1 0x40 MLOAD PUSH2 0x241 SWAP2 SWAP1 PUSH2 0x2358 JUMP JUMPDEST PUSH2 0x234 PUSH2 0x2A0 CALLDATASIZE PUSH1 0x4 PUSH2 0x223B JUMP JUMPDEST PUSH2 0x5B7 JUMP JUMPDEST PUSH2 0x234 PUSH2 0x5C2 JUMP JUMPDEST PUSH2 0x2B5 PUSH2 0x5CC JUMP JUMPDEST PUSH1 0x40 MLOAD PUSH2 0x241 SWAP2 SWAP1 PUSH2 0x2410 JUMP JUMPDEST PUSH2 0x285 PUSH2 0x2D0 CALLDATASIZE PUSH1 0x4 PUSH2 0x1FC2 JUMP JUMPDEST PUSH2 0x5D6 JUMP JUMPDEST PUSH2 0x2E8 PUSH2 0x2E3 CALLDATASIZE PUSH1 0x4 PUSH2 0x1FC2 JUMP JUMPDEST PUSH2 0x62F JUMP JUMPDEST STOP JUMPDEST PUSH2 0x2F2 PUSH2 0x6BE JUMP JUMPDEST PUSH1 0x40 MLOAD PUSH2 0x241 SWAP2 SWAP1 PUSH2 0x2467 JUMP JUMPDEST PUSH2 0x307 PUSH2 0x6C3 JUMP JUMPDEST PUSH1 0x40 MLOAD PUSH2 0x241 SWAP2 SWAP1 PUSH2 0x2344 JUMP JUMPDEST PUSH2 0x2E8 PUSH2 0x322 CALLDATASIZE PUSH1 0x4 PUSH2 0x2002 JUMP JUMPDEST PUSH2 0x6D9 JUMP JUMPDEST PUSH2 0x234 PUSH2 0x7D4 JUMP JUMPDEST PUSH2 0x234 PUSH2 0x7E0 JUMP JUMPDEST PUSH2 0x234 PUSH2 0x345 CALLDATASIZE PUSH1 0x4 PUSH2 0x1F0D JUMP JUMPDEST PUSH2 0x816 JUMP JUMPDEST PUSH2 0x234 PUSH2 0x358 CALLDATASIZE PUSH1 0x4 PUSH2 0x223B JUMP JUMPDEST PUSH2 0x920 JUMP JUMPDEST PUSH2 0x234 PUSH2 0x36B CALLDATASIZE PUSH1 0x4 PUSH2 0x2253 JUMP JUMPDEST PUSH2 0x92B JUMP JUMPDEST PUSH2 0x307 PUSH2 0x9D7 JUMP JUMPDEST PUSH2 0x234 PUSH2 0x386 CALLDATASIZE PUSH1 0x4 PUSH2 0x1F0D JUMP JUMPDEST PUSH2 0x9ED JUMP JUMPDEST PUSH2 0x2F2 PUSH2 0x9F8 JUMP JUMPDEST PUSH2 0x307 PUSH2 0xA07 JUMP JUMPDEST PUSH2 0x234 PUSH2 0x3A9 CALLDATASIZE PUSH1 0x4 PUSH2 0x2253 JUMP JUMPDEST PUSH2 0xA2B JUMP JUMPDEST PUSH2 0x252 PUSH2 0xAE5 JUMP JUMPDEST PUSH2 0x2E8 PUSH2 0x3C4 CALLDATASIZE PUSH1 0x4 PUSH2 0x205A JUMP JUMPDEST PUSH2 0xB3D JUMP JUMPDEST PUSH2 0x285 PUSH2 0x3D7 CALLDATASIZE PUSH1 0x4 PUSH2 0x2017 JUMP JUMPDEST PUSH2 0xC99 JUMP JUMPDEST PUSH2 0x2E8 PUSH2 0x3EA CALLDATASIZE PUSH1 0x4 PUSH2 0x21AF JUMP JUMPDEST PUSH2 0xCEA JUMP JUMPDEST PUSH2 0x2E8 PUSH2 0x3FD CALLDATASIZE PUSH1 0x4 PUSH2 0x2017 JUMP JUMPDEST PUSH2 0xFB5 JUMP JUMPDEST PUSH2 0x234 PUSH2 0x410 CALLDATASIZE PUSH1 0x4 PUSH2 0x2277 JUMP JUMPDEST PUSH2 0x1083 JUMP JUMPDEST PUSH2 0x234 PUSH2 0x423 CALLDATASIZE PUSH1 0x4 PUSH2 0x2277 JUMP JUMPDEST PUSH2 0x1152 JUMP JUMPDEST PUSH2 0x234 PUSH2 0x436 CALLDATASIZE PUSH1 0x4 PUSH2 0x1F0D JUMP JUMPDEST PUSH2 0x11FB JUMP JUMPDEST PUSH2 0x234 PUSH2 0x449 CALLDATASIZE PUSH1 0x4 PUSH2 0x223B JUMP JUMPDEST PUSH2 0x1220 JUMP JUMPDEST PUSH2 0x2E8 PUSH2 0x45C CALLDATASIZE PUSH1 0x4 PUSH2 0x1F7D JUMP JUMPDEST PUSH2 0x123F JUMP JUMPDEST PUSH2 0x234 PUSH2 0x46F CALLDATASIZE PUSH1 0x4 PUSH2 0x1F0D JUMP JUMPDEST PUSH2 0x1343 JUMP JUMPDEST PUSH2 0x234 PUSH2 0x482 CALLDATASIZE PUSH1 0x4 PUSH2 0x1F45 JUMP JUMPDEST PUSH2 0x1351 JUMP JUMPDEST PUSH1 0x0 PUSH2 0x491 PUSH2 0x1363 JUMP JUMPDEST SWAP1 POP SWAP1 JUMP JUMPDEST PUSH1 0x1 DUP1 SLOAD PUSH1 0x40 DUP1 MLOAD PUSH1 0x20 PUSH1 0x2 DUP5 DUP7 AND ISZERO PUSH2 0x100 MUL PUSH1 0x0 NOT ADD SWAP1 SWAP5 AND SWAP4 SWAP1 SWAP4 DIV PUSH1 0x1F DUP2 ADD DUP5 SWAP1 DIV DUP5 MUL DUP3 ADD DUP5 ADD SWAP1 SWAP3 MSTORE DUP2 DUP2 MSTORE SWAP3 SWAP2 DUP4 ADD DUP3 DUP3 DUP1 ISZERO PUSH2 0x51B JUMPI DUP1 PUSH1 0x1F LT PUSH2 0x4F0 JUMPI PUSH2 0x100 DUP1 DUP4 SLOAD DIV MUL DUP4 MSTORE SWAP2 PUSH1 0x20 ADD SWAP2 PUSH2 0x51B JUMP JUMPDEST DUP3 ADD SWAP2 SWAP1 PUSH1 0x0 MSTORE PUSH1 0x20 PUSH1 0x0 KECCAK256 SWAP1 JUMPDEST DUP2 SLOAD DUP2 MSTORE SWAP1 PUSH1 0x1 ADD SWAP1 PUSH1 0x20 ADD DUP1 DUP4 GT PUSH2 0x4FE JUMPI DUP3 SWAP1 SUB PUSH1 0x1F AND DUP3 ADD SWAP2 JUMPDEST POP POP POP POP POP DUP2 JUMP JUMPDEST PUSH1 0x0 PUSH2 0x549 PUSH8 0xDE0B6B3A7640000 PUSH2 0x543 DUP5 PUSH2 0x53D PUSH2 0x7E0 JUMP JUMPDEST SWAP1 PUSH2 0x146E JUMP JUMPDEST SWAP1 PUSH2 0x1495 JUMP JUMPDEST SWAP1 POP JUMPDEST SWAP2 SWAP1 POP JUMP JUMPDEST PUSH1 0x0 PUSH2 0x55D DUP4 DUP4 PUSH2 0x14B4 JUMP JUMPDEST SWAP1 POP DUP1 ISZERO PUSH2 0x5B1 JUMPI DUP3 PUSH1 0x1 PUSH1 0x1 PUSH1 0xA0 SHL SUB AND CALLER PUSH1 0x1 PUSH1 0x1 PUSH1 0xA0 SHL SUB AND PUSH32 0x8C5BE1E5EBEC7D5BD14F71427D1E84F3DD0314C0F7B2291E5B200AC8C7C3B925 DUP5 PUSH1 0x40 MLOAD PUSH2 0x5A8 SWAP2 SWAP1 PUSH2 0x2450 JUMP JUMPDEST PUSH1 0x40 MLOAD DUP1 SWAP2 SUB SWAP1 LOG3 JUMPDEST SWAP3 SWAP2 POP POP JUMP JUMPDEST PUSH1 0x0 PUSH2 0x549 DUP3 PUSH2 0x1220 JUMP JUMPDEST PUSH1 0x0 PUSH2 0x491 PUSH2 0x14CE JUMP JUMPDEST PUSH1 0x3 SLOAD PUSH2 0xFFFF AND DUP2 JUMP JUMPDEST PUSH1 0x0 DUP3 PUSH1 0x1 PUSH1 0x1 PUSH1 0xA0 SHL SUB AND DUP5 PUSH1 0x1 PUSH1 0x1 PUSH1 0xA0 SHL SUB AND PUSH1 0x0 DUP1 MLOAD PUSH1 0x20 PUSH2 0x2532 DUP4 CODECOPY DUP2 MLOAD SWAP2 MSTORE DUP5 PUSH1 0x40 MLOAD PUSH2 0x609 SWAP2 SWAP1 PUSH2 0x2450 JUMP JUMPDEST PUSH1 0x40 MLOAD DUP1 SWAP2 SUB SWAP1 LOG3 PUSH2 0x61C DUP5 DUP5 DUP5 PUSH2 0x14B4 JUMP JUMPDEST SWAP1 POP DUP1 PUSH2 0x628 JUMPI PUSH1 0x0 DUP1 REVERT JUMPDEST SWAP4 SWAP3 POP POP POP JUMP JUMPDEST CALLER PUSH1 0x1 PUSH1 0x1 PUSH1 0xA0 SHL SUB PUSH32 0x0 AND EQ PUSH2 0x680 JUMPI PUSH1 0x40 MLOAD PUSH3 0x461BCD PUSH1 0xE5 SHL DUP2 MSTORE PUSH1 0x4 ADD PUSH2 0x677 SWAP1 PUSH2 0x23BF JUMP JUMPDEST PUSH1 0x40 MLOAD DUP1 SWAP2 SUB SWAP1 REVERT JUMPDEST DUP2 PUSH1 0x1 PUSH1 0x1 PUSH1 0xA0 SHL SUB AND DUP4 PUSH1 0x1 PUSH1 0x1 PUSH1 0xA0 SHL SUB AND PUSH1 0x0 DUP1 MLOAD PUSH1 0x20 PUSH2 0x2532 DUP4 CODECOPY DUP2 MLOAD SWAP2 MSTORE DUP4 PUSH1 0x40 MLOAD PUSH2 0x6B1 SWAP2 SWAP1 PUSH2 0x2450 JUMP JUMPDEST PUSH1 0x40 MLOAD DUP1 SWAP2 SUB SWAP1 LOG3 POP POP POP JUMP JUMPDEST PUSH1 0x8 DUP2 JUMP JUMPDEST PUSH1 0x3 SLOAD PUSH4 0x1000000 SWAP1 DIV PUSH1 0x1 PUSH1 0x1 PUSH1 0xA0 SHL SUB AND SWAP1 JUMP JUMPDEST CALLER PUSH1 0x1 PUSH1 0x1 PUSH1 0xA0 SHL SUB PUSH32 0x0 AND EQ PUSH2 0x721 JUMPI PUSH1 0x40 MLOAD PUSH3 0x461BCD PUSH1 0xE5 SHL DUP2 MSTORE PUSH1 0x4 ADD PUSH2 0x677 SWAP1 PUSH2 0x23BF JUMP JUMPDEST DUP4 PUSH1 0x1 PUSH1 0x1 PUSH1 0xA0 SHL SUB AND PUSH1 0x0 PUSH1 0x1 PUSH1 0x1 PUSH1 0xA0 SHL SUB AND PUSH1 0x0 DUP1 MLOAD PUSH1 0x20 PUSH2 0x2532 DUP4 CODECOPY DUP2 MLOAD SWAP2 MSTORE DUP5 PUSH1 0x40 MLOAD PUSH2 0x753 SWAP2 SWAP1 PUSH2 0x2450 JUMP JUMPDEST PUSH1 0x40 MLOAD DUP1 SWAP2 SUB SWAP1 LOG3 DUP3 PUSH1 0x1 PUSH1 0x1 PUSH1 0xA0 SHL SUB AND DUP5 PUSH1 0x1 PUSH1 0x1 PUSH1 0xA0 SHL SUB AND PUSH1 0x0 DUP1 MLOAD PUSH1 0x20 PUSH2 0x2532 DUP4 CODECOPY DUP2 MLOAD SWAP2 MSTORE DUP4 PUSH1 0x40 MLOAD PUSH2 0x78C SWAP2 SWAP1 PUSH2 0x2450 JUMP JUMPDEST PUSH1 0x40 MLOAD DUP1 SWAP2 SUB SWAP1 LOG3 PUSH1 0x0 PUSH1 0x1 PUSH1 0x1 PUSH1 0xA0 SHL SUB AND DUP4 PUSH1 0x1 PUSH1 0x1 PUSH1 0xA0 SHL SUB AND PUSH1 0x0 DUP1 MLOAD PUSH1 0x20 PUSH2 0x2532 DUP4 CODECOPY DUP2 MLOAD SWAP2 MSTORE DUP4 PUSH1 0x40 MLOAD PUSH2 0x7C6 SWAP2 SWAP1 PUSH2 0x2450 JUMP JUMPDEST PUSH1 0x40 MLOAD DUP1 SWAP2 SUB SWAP1 LOG3 POP POP POP POP JUMP JUMPDEST PUSH8 0xDE0B6B3A7640000 DUP2 JUMP JUMPDEST PUSH1 0x0 DUP1 PUSH2 0x7EB PUSH2 0x1363 JUMP JUMPDEST SWAP1 POP PUSH1 0x0 PUSH2 0x7F7 PUSH2 0x14CE JUMP JUMPDEST SWAP1 POP PUSH2 0x80F DUP2 PUSH2 0x543 DUP5 PUSH8 0xDE0B6B3A7640000 PUSH2 0x146E JUMP JUMPDEST SWAP3 POP POP POP SWAP1 JUMP JUMPDEST PUSH1 0x3 SLOAD PUSH1 0x40 MLOAD PUSH4 0x206F2799 PUSH1 0xE0 SHL DUP2 MSTORE PUSH1 0x0 SWAP2 DUP3 SWAP2 DUP3 SWAP2 PUSH1 0x1 PUSH1 0x1 PUSH1 0xA0 SHL SUB PUSH32 0x0 AND SWAP2 PUSH4 0x206F2799 SWAP2 PUSH2 0x873 SWAP2 PUSH2 0xFFFF SWAP1 SWAP2 AND SWAP1 TIMESTAMP SWAP1 PUSH1 0x4 ADD PUSH2 0x243C JUMP JUMPDEST PUSH2 0x1C0 PUSH1 0x40 MLOAD DUP1 DUP4 SUB DUP2 DUP7 DUP1 EXTCODESIZE ISZERO DUP1 ISZERO PUSH2 0x88C JUMPI PUSH1 0x0 DUP1 REVERT JUMPDEST POP GAS STATICCALL ISZERO DUP1 ISZERO PUSH2 0x8A0 JUMPI RETURNDATASIZE PUSH1 0x0 DUP1 RETURNDATACOPY RETURNDATASIZE PUSH1 0x0 REVERT JUMPDEST POP POP POP POP PUSH1 0x40 MLOAD RETURNDATASIZE PUSH1 0x1F NOT PUSH1 0x1F DUP3 ADD AND DUP3 ADD DUP1 PUSH1 0x40 MSTORE POP DUP2 ADD SWAP1 PUSH2 0x8C4 SWAP2 SWAP1 PUSH2 0x20BB JUMP JUMPDEST SWAP4 POP SWAP4 POP POP POP DUP2 PUSH1 0x0 EQ ISZERO PUSH2 0x8DF JUMPI PUSH1 0x0 NOT SWAP3 POP POP POP PUSH2 0x54C JUMP JUMPDEST DUP1 DUP3 GT PUSH2 0x8F1 JUMPI PUSH1 0x0 SWAP3 POP POP POP PUSH2 0x54C JUMP JUMPDEST PUSH1 0x3 SLOAD PUSH2 0x917 SWAP1 PUSH4 0x5F5E100 SWAP1 PUSH2 0x543 SWAP1 DUP5 DUP7 SUB SWAP1 PUSH3 0x10000 SWAP1 DIV PUSH1 0xFF AND PUSH1 0xA EXP PUSH2 0x146E JUMP JUMPDEST SWAP3 POP POP POP PUSH2 0x54C JUMP JUMPDEST PUSH1 0x0 PUSH2 0x549 DUP3 PUSH2 0x523 JUMP JUMPDEST PUSH1 0x0 DUP1 PUSH2 0x937 DUP5 PUSH2 0x1585 JUMP JUMPDEST SWAP1 SWAP5 POP SWAP1 POP PUSH2 0x947 DUP5 DUP3 DUP6 PUSH2 0x1755 JUMP JUMPDEST SWAP2 POP DUP3 PUSH1 0x1 PUSH1 0x1 PUSH1 0xA0 SHL SUB AND PUSH1 0x0 PUSH1 0x1 PUSH1 0x1 PUSH1 0xA0 SHL SUB AND PUSH1 0x0 DUP1 MLOAD PUSH1 0x20 PUSH2 0x2532 DUP4 CODECOPY DUP2 MLOAD SWAP2 MSTORE DUP5 PUSH1 0x40 MLOAD PUSH2 0x97B SWAP2 SWAP1 PUSH2 0x2450 JUMP JUMPDEST PUSH1 0x40 MLOAD DUP1 SWAP2 SUB SWAP1 LOG3 DUP3 PUSH1 0x1 PUSH1 0x1 PUSH1 0xA0 SHL SUB AND CALLER PUSH1 0x1 PUSH1 0x1 PUSH1 0xA0 SHL SUB AND PUSH32 0xDCBC1C05240F31FF3AD067EF1EE35CE4997762752E3A095284754544F4C709D7 DUP7 DUP6 PUSH1 0x40 MLOAD PUSH2 0x9C8 SWAP3 SWAP2 SWAP1 PUSH2 0x2459 JUMP JUMPDEST PUSH1 0x40 MLOAD DUP1 SWAP2 SUB SWAP1 LOG3 POP SWAP3 SWAP2 POP POP JUMP JUMPDEST PUSH1 0x3 SLOAD PUSH4 0x1000000 SWAP1 DIV PUSH1 0x1 PUSH1 0x1 PUSH1 0xA0 SHL SUB AND DUP2 JUMP JUMPDEST PUSH1 0x0 PUSH2 0x549 DUP3 PUSH2 0x176F JUMP JUMPDEST PUSH1 0x3 SLOAD PUSH3 0x10000 SWAP1 DIV PUSH1 0xFF AND DUP2 JUMP JUMPDEST PUSH32 0x0 DUP2 JUMP JUMPDEST PUSH1 0x0 DUP1 PUSH2 0xA37 DUP5 PUSH2 0x920 JUMP JUMPDEST SWAP2 POP PUSH2 0xA42 DUP3 PUSH2 0x1585 JUMP JUMPDEST SWAP1 SWAP3 POP SWAP1 POP PUSH1 0x0 PUSH2 0xA54 DUP4 DUP4 DUP7 PUSH2 0x1755 JUMP JUMPDEST SWAP1 POP DUP4 PUSH1 0x1 PUSH1 0x1 PUSH1 0xA0 SHL SUB AND PUSH1 0x0 PUSH1 0x1 PUSH1 0x1 PUSH1 0xA0 SHL SUB AND PUSH1 0x0 DUP1 MLOAD PUSH1 0x20 PUSH2 0x2532 DUP4 CODECOPY DUP2 MLOAD SWAP2 MSTORE DUP4 PUSH1 0x40 MLOAD PUSH2 0xA88 SWAP2 SWAP1 PUSH2 0x2450 JUMP JUMPDEST PUSH1 0x40 MLOAD DUP1 SWAP2 SUB SWAP1 LOG3 DUP4 PUSH1 0x1 PUSH1 0x1 PUSH1 0xA0 SHL SUB AND CALLER PUSH1 0x1 PUSH1 0x1 PUSH1 0xA0 SHL SUB AND PUSH32 0xDCBC1C05240F31FF3AD067EF1EE35CE4997762752E3A095284754544F4C709D7 DUP6 DUP5 PUSH1 0x40 MLOAD PUSH2 0xAD5 SWAP3 SWAP2 SWAP1 PUSH2 0x2459 JUMP JUMPDEST PUSH1 0x40 MLOAD DUP1 SWAP2 SUB SWAP1 LOG3 POP POP SWAP3 SWAP2 POP POP JUMP JUMPDEST PUSH1 0x2 DUP1 SLOAD PUSH1 0x40 DUP1 MLOAD PUSH1 0x20 PUSH1 0x1 DUP5 AND ISZERO PUSH2 0x100 MUL PUSH1 0x0 NOT ADD SWAP1 SWAP4 AND DUP5 SWAP1 DIV PUSH1 0x1F DUP2 ADD DUP5 SWAP1 DIV DUP5 MUL DUP3 ADD DUP5 ADD SWAP1 SWAP3 MSTORE DUP2 DUP2 MSTORE SWAP3 SWAP2 DUP4 ADD DUP3 DUP3 DUP1 ISZERO PUSH2 0x51B JUMPI DUP1 PUSH1 0x1F LT PUSH2 0x4F0 JUMPI PUSH2 0x100 DUP1 DUP4 SLOAD DIV MUL DUP4 MSTORE SWAP2 PUSH1 0x20 ADD SWAP2 PUSH2 0x51B JUMP JUMPDEST PUSH32 0x0 PUSH1 0x1 PUSH1 0x1 PUSH1 0xA0 SHL SUB AND PUSH4 0x8DA5CB5B PUSH1 0x40 MLOAD DUP2 PUSH4 0xFFFFFFFF AND PUSH1 0xE0 SHL DUP2 MSTORE PUSH1 0x4 ADD PUSH1 0x20 PUSH1 0x40 MLOAD DUP1 DUP4 SUB DUP2 DUP7 DUP1 EXTCODESIZE ISZERO DUP1 ISZERO PUSH2 0xB96 JUMPI PUSH1 0x0 DUP1 REVERT JUMPDEST POP GAS STATICCALL ISZERO DUP1 ISZERO PUSH2 0xBAA JUMPI RETURNDATASIZE PUSH1 0x0 DUP1 RETURNDATACOPY RETURNDATASIZE PUSH1 0x0 REVERT JUMPDEST POP POP POP POP PUSH1 0x40 MLOAD RETURNDATASIZE PUSH1 0x1F NOT PUSH1 0x1F DUP3 ADD AND DUP3 ADD DUP1 PUSH1 0x40 MSTORE POP DUP2 ADD SWAP1 PUSH2 0xBCE SWAP2 SWAP1 PUSH2 0x1F29 JUMP JUMPDEST PUSH1 0x1 PUSH1 0x1 PUSH1 0xA0 SHL SUB AND CALLER PUSH1 0x1 PUSH1 0x1 PUSH1 0xA0 SHL SUB AND EQ PUSH2 0xBEB JUMPI PUSH1 0x0 DUP1 REVERT JUMPDEST PUSH1 0x0 DUP1 PUSH2 0xBF6 PUSH2 0x1835 JUMP JUMPDEST SWAP2 POP SWAP2 POP DUP2 DUP5 PUSH1 0x40 MLOAD PUSH1 0x20 ADD PUSH2 0xC0D SWAP3 SWAP2 SWAP1 PUSH2 0x2308 JUMP JUMPDEST PUSH1 0x40 MLOAD PUSH1 0x20 DUP2 DUP4 SUB SUB DUP2 MSTORE SWAP1 PUSH1 0x40 MSTORE PUSH1 0x1 SWAP1 DUP1 MLOAD SWAP1 PUSH1 0x20 ADD SWAP1 PUSH2 0xC31 SWAP3 SWAP2 SWAP1 PUSH2 0x1E10 JUMP JUMPDEST POP DUP1 DUP4 PUSH1 0x40 MLOAD PUSH1 0x20 ADD PUSH2 0xC45 SWAP3 SWAP2 SWAP1 PUSH2 0x22D9 JUMP JUMPDEST PUSH1 0x40 MLOAD PUSH1 0x20 DUP2 DUP4 SUB SUB DUP2 MSTORE SWAP1 PUSH1 0x40 MSTORE PUSH1 0x2 SWAP1 DUP1 MLOAD SWAP1 PUSH1 0x20 ADD SWAP1 PUSH2 0xC69 SWAP3 SWAP2 SWAP1 PUSH2 0x1E10 JUMP JUMPDEST POP PUSH1 0x40 MLOAD PUSH32 0x8D4BC6886F1B5887A0C7DA5CF5DBDF35C7BCCED78089E0E522B49BE058176999 SWAP1 PUSH1 0x0 SWAP1 LOG1 POP POP POP POP JUMP JUMPDEST PUSH1 0x0 DUP3 PUSH1 0x1 PUSH1 0x1 PUSH1 0xA0 SHL SUB AND CALLER PUSH1 0x1 PUSH1 0x1 PUSH1 0xA0 SHL SUB AND PUSH1 0x0 DUP1 MLOAD PUSH1 0x20 PUSH2 0x2532 DUP4 CODECOPY DUP2 MLOAD SWAP2 MSTORE DUP5 PUSH1 0x40 MLOAD PUSH2 0xCCC SWAP2 SWAP1 PUSH2 0x2450 JUMP JUMPDEST PUSH1 0x40 MLOAD DUP1 SWAP2 SUB SWAP1 LOG3 PUSH2 0xCDE DUP4 DUP4 PUSH2 0x14B4 JUMP JUMPDEST SWAP1 POP DUP1 PUSH2 0x5B1 JUMPI PUSH1 0x0 DUP1 REVERT JUMPDEST CALLER PUSH1 0x1 PUSH1 0x1 PUSH1 0xA0 SHL SUB PUSH32 0x0 AND EQ PUSH2 0xD32 JUMPI PUSH1 0x40 MLOAD PUSH3 0x461BCD PUSH1 0xE5 SHL DUP2 MSTORE PUSH1 0x4 ADD PUSH2 0x677 SWAP1 PUSH2 0x23BF JUMP JUMPDEST PUSH1 0x0 SLOAD PUSH2 0x100 SWAP1 DIV PUSH1 0xFF AND DUP1 PUSH2 0xD4B JUMPI POP PUSH2 0xD4B PUSH2 0x186D JUMP JUMPDEST DUP1 PUSH2 0xD59 JUMPI POP PUSH1 0x0 SLOAD PUSH1 0xFF AND ISZERO JUMPDEST PUSH2 0xD94 JUMPI PUSH1 0x40 MLOAD PUSH3 0x461BCD PUSH1 0xE5 SHL DUP2 MSTORE PUSH1 0x4 ADD DUP1 DUP1 PUSH1 0x20 ADD DUP3 DUP2 SUB DUP3 MSTORE PUSH1 0x2E DUP2 MSTORE PUSH1 0x20 ADD DUP1 PUSH2 0x2504 PUSH1 0x2E SWAP2 CODECOPY PUSH1 0x40 ADD SWAP2 POP POP PUSH1 0x40 MLOAD DUP1 SWAP2 SUB SWAP1 REVERT JUMPDEST PUSH1 0x0 SLOAD PUSH2 0x100 SWAP1 DIV PUSH1 0xFF AND ISZERO DUP1 ISZERO PUSH2 0xDBF JUMPI PUSH1 0x0 DUP1 SLOAD PUSH1 0xFF NOT PUSH2 0xFF00 NOT SWAP1 SWAP2 AND PUSH2 0x100 OR AND PUSH1 0x1 OR SWAP1 SSTORE JUMPDEST PUSH1 0x3 DUP1 SLOAD PUSH2 0xFFFF NOT AND PUSH2 0xFFFF DUP8 AND OR SWAP1 SSTORE PUSH1 0x0 DUP1 PUSH2 0xDDB PUSH2 0x1835 JUMP JUMPDEST SWAP2 POP SWAP2 POP DUP2 DUP6 PUSH1 0x40 MLOAD PUSH1 0x20 ADD PUSH2 0xDF2 SWAP3 SWAP2 SWAP1 PUSH2 0x2308 JUMP JUMPDEST PUSH1 0x40 MLOAD PUSH1 0x20 DUP2 DUP4 SUB SUB DUP2 MSTORE SWAP1 PUSH1 0x40 MSTORE PUSH1 0x1 SWAP1 DUP1 MLOAD SWAP1 PUSH1 0x20 ADD SWAP1 PUSH2 0xE16 SWAP3 SWAP2 SWAP1 PUSH2 0x1E10 JUMP JUMPDEST POP DUP1 DUP5 PUSH1 0x40 MLOAD PUSH1 0x20 ADD PUSH2 0xE2A SWAP3 SWAP2 SWAP1 PUSH2 0x22D9 JUMP JUMPDEST PUSH1 0x40 MLOAD PUSH1 0x20 DUP2 DUP4 SUB SUB DUP2 MSTORE SWAP1 PUSH1 0x40 MSTORE PUSH1 0x2 SWAP1 DUP1 MLOAD SWAP1 PUSH1 0x20 ADD SWAP1 PUSH2 0xE4E SWAP3 SWAP2 SWAP1 PUSH2 0x1E10 JUMP JUMPDEST POP PUSH1 0x1 PUSH1 0x1 PUSH1 0xA0 SHL SUB DUP7 AND PUSH2 0xE8E JUMPI PUSH1 0x3 DUP1 SLOAD PUSH4 0x1000000 PUSH1 0x1 PUSH1 0xB8 SHL SUB NOT AND PUSH23 0x82AF49447D8A07E3BD95BD0D56F35241523FBAB1000000 OR SWAP1 SSTORE PUSH2 0xEE8 JUMP JUMPDEST PUSH1 0x3 DUP1 SLOAD PUSH4 0x1000000 PUSH1 0x1 PUSH1 0xB8 SHL SUB NOT AND PUSH4 0x1000000 PUSH1 0x1 PUSH1 0x1 PUSH1 0xA0 SHL SUB DUP10 DUP2 AND DUP3 MUL SWAP3 SWAP1 SWAP3 OR SWAP3 DUP4 SWAP1 SSTORE PUSH2 0xEE8 SWAP3 DIV AND PUSH32 0x0 PUSH1 0x0 NOT PUSH2 0x187E JUMP JUMPDEST PUSH1 0x3 DUP1 SLOAD SWAP1 PUSH2 0x100 EXP SWAP1 DIV PUSH1 0x1 PUSH1 0x1 PUSH1 0xA0 SHL SUB AND PUSH1 0x1 PUSH1 0x1 PUSH1 0xA0 SHL SUB AND PUSH4 0x313CE567 PUSH1 0x40 MLOAD DUP2 PUSH4 0xFFFFFFFF AND PUSH1 0xE0 SHL DUP2 MSTORE PUSH1 0x4 ADD PUSH1 0x20 PUSH1 0x40 MLOAD DUP1 DUP4 SUB DUP2 DUP7 DUP1 EXTCODESIZE ISZERO DUP1 ISZERO PUSH2 0xF34 JUMPI PUSH1 0x0 DUP1 REVERT JUMPDEST POP GAS STATICCALL ISZERO DUP1 ISZERO PUSH2 0xF48 JUMPI RETURNDATASIZE PUSH1 0x0 DUP1 RETURNDATACOPY RETURNDATASIZE PUSH1 0x0 REVERT JUMPDEST POP POP POP POP PUSH1 0x40 MLOAD RETURNDATASIZE PUSH1 0x1F NOT PUSH1 0x1F DUP3 ADD AND DUP3 ADD DUP1 PUSH1 0x40 MSTORE POP DUP2 ADD SWAP1 PUSH2 0xF6C SWAP2 SWAP1 PUSH2 0x22B8 JUMP JUMPDEST PUSH1 0x3 DUP1 SLOAD PUSH3 0xFF0000 NOT AND PUSH3 0x10000 PUSH1 0xFF SWAP4 DUP5 AND DUP2 MUL SWAP2 SWAP1 SWAP2 OR SWAP2 DUP3 SWAP1 SSTORE PUSH1 0x24 SWAP2 DIV SWAP1 SWAP2 AND LT PUSH2 0xF9A JUMPI PUSH1 0x0 DUP1 REVERT JUMPDEST POP POP DUP1 ISZERO PUSH2 0xFAE JUMPI PUSH1 0x0 DUP1 SLOAD PUSH2 0xFF00 NOT AND SWAP1 SSTORE JUMPDEST POP POP POP POP POP JUMP JUMPDEST CALLER PUSH1 0x1 PUSH1 0x1 PUSH1 0xA0 SHL SUB PUSH32 0x0 AND EQ PUSH2 0xFFD JUMPI PUSH1 0x40 MLOAD PUSH3 0x461BCD PUSH1 0xE5 SHL DUP2 MSTORE PUSH1 0x4 ADD PUSH2 0x677 SWAP1 PUSH2 0x23BF JUMP JUMPDEST PUSH1 0x0 DUP2 SLT ISZERO PUSH2 0x1044 JUMPI PUSH1 0x0 PUSH1 0x1 PUSH1 0x1 PUSH1 0xA0 SHL SUB DUP4 AND PUSH1 0x0 DUP1 MLOAD PUSH1 0x20 PUSH2 0x2532 DUP4 CODECOPY DUP2 MLOAD SWAP2 MSTORE PUSH2 0x102A DUP5 PUSH2 0x1996 JUMP JUMPDEST PUSH1 0x40 MLOAD PUSH2 0x1037 SWAP2 SWAP1 PUSH2 0x2450 JUMP JUMPDEST PUSH1 0x40 MLOAD DUP1 SWAP2 SUB SWAP1 LOG3 PUSH2 0x107F JUMP JUMPDEST DUP2 PUSH1 0x1 PUSH1 0x1 PUSH1 0xA0 SHL SUB AND PUSH1 0x0 PUSH1 0x1 PUSH1 0x1 PUSH1 0xA0 SHL SUB AND PUSH1 0x0 DUP1 MLOAD PUSH1 0x20 PUSH2 0x2532 DUP4 CODECOPY DUP2 MLOAD SWAP2 MSTORE DUP4 PUSH1 0x40 MLOAD PUSH2 0x1076 SWAP2 SWAP1 PUSH2 0x2450 JUMP JUMPDEST PUSH1 0x40 MLOAD DUP1 SWAP2 SUB SWAP1 LOG3 JUMPDEST POP POP JUMP JUMPDEST PUSH1 0x0 PUSH2 0x108E DUP5 PUSH2 0x5B7 JUMP JUMPDEST SWAP1 POP PUSH1 0x0 PUSH2 0x109B DUP4 PUSH2 0x176F JUMP JUMPDEST SWAP1 POP DUP1 DUP3 GT ISZERO PUSH2 0x10A9 JUMPI DUP1 SWAP2 POP JUMPDEST PUSH1 0x0 PUSH2 0x10B6 DUP4 DUP7 DUP7 PUSH2 0x1755 JUMP JUMPDEST SWAP1 POP PUSH1 0x0 PUSH1 0x1 PUSH1 0x1 PUSH1 0xA0 SHL SUB AND DUP5 PUSH1 0x1 PUSH1 0x1 PUSH1 0xA0 SHL SUB AND PUSH1 0x0 DUP1 MLOAD PUSH1 0x20 PUSH2 0x2532 DUP4 CODECOPY DUP2 MLOAD SWAP2 MSTORE DUP6 PUSH1 0x40 MLOAD PUSH2 0x10EA SWAP2 SWAP1 PUSH2 0x2450 JUMP JUMPDEST PUSH1 0x40 MLOAD DUP1 SWAP2 SUB SWAP1 LOG3 DUP4 PUSH1 0x1 PUSH1 0x1 PUSH1 0xA0 SHL SUB AND DUP6 PUSH1 0x1 PUSH1 0x1 PUSH1 0xA0 SHL SUB AND CALLER PUSH1 0x1 PUSH1 0x1 PUSH1 0xA0 SHL SUB AND PUSH32 0xFBDE797D201C681B91056529119E0B02407C7BB96A4A2C75C01FC9667232C8DB DUP5 DUP8 PUSH1 0x40 MLOAD PUSH2 0x1141 SWAP3 SWAP2 SWAP1 PUSH2 0x2459 JUMP JUMPDEST PUSH1 0x40 MLOAD DUP1 SWAP2 SUB SWAP1 LOG4 POP POP SWAP4 SWAP3 POP POP POP JUMP JUMPDEST PUSH1 0x0 DUP1 PUSH2 0x1160 DUP6 DUP6 DUP6 PUSH2 0x1755 JUMP JUMPDEST SWAP1 POP PUSH1 0x0 PUSH1 0x1 PUSH1 0x1 PUSH1 0xA0 SHL SUB AND DUP4 PUSH1 0x1 PUSH1 0x1 PUSH1 0xA0 SHL SUB AND PUSH1 0x0 DUP1 MLOAD PUSH1 0x20 PUSH2 0x2532 DUP4 CODECOPY DUP2 MLOAD SWAP2 MSTORE DUP8 PUSH1 0x40 MLOAD PUSH2 0x1194 SWAP2 SWAP1 PUSH2 0x2450 JUMP JUMPDEST PUSH1 0x40 MLOAD DUP1 SWAP2 SUB SWAP1 LOG3 DUP3 PUSH1 0x1 PUSH1 0x1 PUSH1 0xA0 SHL SUB AND DUP5 PUSH1 0x1 PUSH1 0x1 PUSH1 0xA0 SHL SUB AND CALLER PUSH1 0x1 PUSH1 0x1 PUSH1 0xA0 SHL SUB AND PUSH32 0xFBDE797D201C681B91056529119E0B02407C7BB96A4A2C75C01FC9667232C8DB DUP5 DUP10 PUSH1 0x40 MLOAD PUSH2 0x11EB SWAP3 SWAP2 SWAP1 PUSH2 0x2459 JUMP JUMPDEST PUSH1 0x40 MLOAD DUP1 SWAP2 SUB SWAP1 LOG4 SWAP5 SWAP4 POP POP POP POP JUMP JUMPDEST PUSH1 0x0 DUP1 PUSH2 0x1208 PUSH1 0x0 PUSH2 0x816 JUMP JUMPDEST SWAP1 POP PUSH1 0x0 NOT DUP2 EQ ISZERO PUSH2 0x121B JUMPI SWAP1 POP PUSH2 0x54C JUMP JUMPDEST PUSH2 0x628 DUP2 JUMPDEST PUSH1 0x0 PUSH2 0x549 PUSH2 0x122D PUSH2 0x7E0 JUMP JUMPDEST PUSH2 0x543 DUP5 PUSH8 0xDE0B6B3A7640000 PUSH2 0x146E JUMP JUMPDEST CALLER PUSH1 0x1 PUSH1 0x1 PUSH1 0xA0 SHL SUB PUSH32 0x0 AND EQ PUSH2 0x1287 JUMPI PUSH1 0x40 MLOAD PUSH3 0x461BCD PUSH1 0xE5 SHL DUP2 MSTORE PUSH1 0x4 ADD PUSH2 0x677 SWAP1 PUSH2 0x23BF JUMP JUMPDEST PUSH1 0x0 DUP3 SLT ISZERO PUSH2 0x12D6 JUMPI DUP3 PUSH1 0x1 PUSH1 0x1 PUSH1 0xA0 SHL SUB AND DUP5 PUSH1 0x1 PUSH1 0x1 PUSH1 0xA0 SHL SUB AND PUSH1 0x0 DUP1 MLOAD PUSH1 0x20 PUSH2 0x2532 DUP4 CODECOPY DUP2 MLOAD SWAP2 MSTORE PUSH2 0x12BC DUP6 PUSH2 0x19A4 JUMP JUMPDEST PUSH1 0x40 MLOAD PUSH2 0x12C9 SWAP2 SWAP1 PUSH2 0x2450 JUMP JUMPDEST PUSH1 0x40 MLOAD DUP1 SWAP2 SUB SWAP1 LOG3 PUSH2 0x1310 JUMP JUMPDEST DUP4 PUSH1 0x1 PUSH1 0x1 PUSH1 0xA0 SHL SUB AND DUP4 PUSH1 0x1 PUSH1 0x1 PUSH1 0xA0 SHL SUB AND PUSH1 0x0 DUP1 MLOAD PUSH1 0x20 PUSH2 0x2532 DUP4 CODECOPY DUP2 MLOAD SWAP2 MSTORE DUP5 PUSH1 0x40 MLOAD PUSH2 0x1307 SWAP2 SWAP1 PUSH2 0x2450 JUMP JUMPDEST PUSH1 0x40 MLOAD DUP1 SWAP2 SUB SWAP1 LOG3 JUMPDEST PUSH2 0xFEE PUSH1 0x1 PUSH1 0x1 PUSH1 0xA0 SHL SUB AND DUP5 PUSH1 0x1 PUSH1 0x1 PUSH1 0xA0 SHL SUB AND PUSH1 0x0 DUP1 MLOAD PUSH1 0x20 PUSH2 0x2532 DUP4 CODECOPY DUP2 MLOAD SWAP2 MSTORE DUP4 PUSH1 0x40 MLOAD PUSH2 0x7C6 SWAP2 SWAP1 PUSH2 0x2450 JUMP JUMPDEST PUSH1 0x0 PUSH2 0x549 PUSH2 0x26D DUP4 PUSH2 0x176F JUMP JUMPDEST PUSH1 0x0 PUSH2 0x628 DUP4 DUP4 PUSH2 0x14B4 JUMP JUMPDEST EXTCODESIZE ISZERO ISZERO SWAP1 JUMP JUMPDEST PUSH1 0x3 SLOAD PUSH1 0x40 MLOAD PUSH4 0x206F2799 PUSH1 0xE0 SHL DUP2 MSTORE PUSH1 0x0 SWAP2 DUP3 SWAP2 DUP3 SWAP2 PUSH1 0x1 PUSH1 0x1 PUSH1 0xA0 SHL SUB PUSH32 0x0 AND SWAP2 PUSH4 0x206F2799 SWAP2 PUSH2 0x13C0 SWAP2 PUSH2 0xFFFF SWAP1 SWAP2 AND SWAP1 TIMESTAMP SWAP1 PUSH1 0x4 ADD PUSH2 0x243C JUMP JUMPDEST PUSH2 0x1C0 PUSH1 0x40 MLOAD DUP1 DUP4 SUB DUP2 DUP7 DUP1 EXTCODESIZE ISZERO DUP1 ISZERO PUSH2 0x13D9 JUMPI PUSH1 0x0 DUP1 REVERT JUMPDEST POP GAS STATICCALL ISZERO DUP1 ISZERO PUSH2 0x13ED JUMPI RETURNDATASIZE PUSH1 0x0 DUP1 RETURNDATACOPY RETURNDATASIZE PUSH1 0x0 REVERT JUMPDEST POP POP POP POP PUSH1 0x40 MLOAD RETURNDATASIZE PUSH1 0x1F NOT PUSH1 0x1F DUP3 ADD AND DUP3 ADD DUP1 PUSH1 0x40 MSTORE POP DUP2 ADD SWAP1 PUSH2 0x1411 SWAP2 SWAP1 PUSH2 0x20BB JUMP JUMPDEST POP POP SWAP2 POP SWAP2 POP PUSH2 0x80F PUSH2 0x1469 PUSH2 0x1451 PUSH4 0x5F5E100 PUSH2 0x1463 PUSH1 0x3 PUSH1 0x2 SWAP1 SLOAD SWAP1 PUSH2 0x100 EXP SWAP1 DIV PUSH1 0xFF AND PUSH1 0xFF AND PUSH1 0xA EXP PUSH2 0x145D PUSH2 0x1456 PUSH2 0x1451 DUP10 PUSH1 0x40 ADD MLOAD PUSH2 0x19C5 JUMP JUMPDEST PUSH2 0x1996 JUMP JUMPDEST DUP10 SWAP1 PUSH2 0x19DF JUMP JUMPDEST SWAP1 PUSH2 0x1A30 JUMP JUMPDEST SWAP1 PUSH2 0x1A7E JUMP JUMPDEST PUSH2 0x1AAF JUMP JUMPDEST PUSH1 0x0 DUP3 PUSH2 0x147D JUMPI POP PUSH1 0x0 PUSH2 0x5B1 JUMP JUMPDEST DUP3 DUP3 MUL DUP3 DUP5 DUP3 DUP2 PUSH2 0x148A JUMPI INVALID JUMPDEST DIV EQ PUSH2 0x628 JUMPI PUSH1 0x0 DUP1 REVERT JUMPDEST PUSH1 0x0 DUP1 DUP3 GT PUSH2 0x14A3 JUMPI PUSH1 0x0 DUP1 REVERT JUMPDEST DUP2 DUP4 DUP2 PUSH2 0x14AC JUMPI INVALID JUMPDEST DIV SWAP4 SWAP3 POP POP POP JUMP JUMPDEST PUSH1 0x0 PUSH1 0x40 MLOAD PUSH3 0x461BCD PUSH1 0xE5 SHL DUP2 MSTORE PUSH1 0x4 ADD PUSH2 0x677 SWAP1 PUSH2 0x23E5 JUMP JUMPDEST PUSH1 0x3 SLOAD PUSH1 0x40 MLOAD PUSH4 0x206F2799 PUSH1 0xE0 SHL DUP2 MSTORE PUSH1 0x0 SWAP2 DUP3 SWAP2 PUSH1 0x1 PUSH1 0x1 PUSH1 0xA0 SHL SUB PUSH32 0x0 AND SWAP2 PUSH4 0x206F2799 SWAP2 PUSH2 0x1527 SWAP2 PUSH2 0xFFFF AND SWAP1 TIMESTAMP SWAP1 PUSH1 0x4 ADD PUSH2 0x243C JUMP JUMPDEST PUSH2 0x1C0 PUSH1 0x40 MLOAD DUP1 DUP4 SUB DUP2 DUP7 DUP1 EXTCODESIZE ISZERO DUP1 ISZERO PUSH2 0x1540 JUMPI PUSH1 0x0 DUP1 REVERT JUMPDEST POP GAS STATICCALL ISZERO DUP1 ISZERO PUSH2 0x1554 JUMPI RETURNDATASIZE PUSH1 0x0 DUP1 RETURNDATACOPY RETURNDATASIZE PUSH1 0x0 REVERT JUMPDEST POP POP POP POP PUSH1 0x40 MLOAD RETURNDATASIZE PUSH1 0x1F NOT PUSH1 0x1F DUP3 ADD AND DUP3 ADD DUP1 PUSH1 0x40 MSTORE POP DUP2 ADD SWAP1 PUSH2 0x1578 SWAP2 SWAP1 PUSH2 0x20BB JUMP JUMPDEST POP POP PUSH1 0x40 ADD MLOAD SWAP3 POP POP POP SWAP1 JUMP JUMPDEST PUSH1 0x3 SLOAD PUSH1 0x40 MLOAD PUSH4 0x70A08231 PUSH1 0xE0 SHL DUP2 MSTORE PUSH1 0x0 SWAP2 DUP3 SWAP2 DUP3 SWAP2 PUSH4 0x1000000 SWAP1 DIV PUSH1 0x1 PUSH1 0x1 PUSH1 0xA0 SHL SUB AND SWAP1 PUSH4 0x70A08231 SWAP1 PUSH2 0x15C1 SWAP1 ADDRESS SWAP1 PUSH1 0x4 ADD PUSH2 0x2344 JUMP JUMPDEST PUSH1 0x20 PUSH1 0x40 MLOAD DUP1 DUP4 SUB DUP2 DUP7 DUP1 EXTCODESIZE ISZERO DUP1 ISZERO PUSH2 0x15D9 JUMPI PUSH1 0x0 DUP1 REVERT JUMPDEST POP GAS STATICCALL ISZERO DUP1 ISZERO PUSH2 0x15ED JUMPI RETURNDATASIZE PUSH1 0x0 DUP1 RETURNDATACOPY RETURNDATASIZE PUSH1 0x0 REVERT JUMPDEST POP POP POP POP PUSH1 0x40 MLOAD RETURNDATASIZE PUSH1 0x1F NOT PUSH1 0x1F DUP3 ADD AND DUP3 ADD DUP1 PUSH1 0x40 MSTORE POP DUP2 ADD SWAP1 PUSH2 0x1611 SWAP2 SWAP1 PUSH2 0x2042 JUMP JUMPDEST SWAP1 POP PUSH2 0x1632 PUSH1 0x3 DUP1 SLOAD SWAP1 PUSH2 0x100 EXP SWAP1 DIV PUSH1 0x1 PUSH1 0x1 PUSH1 0xA0 SHL SUB AND CALLER ADDRESS DUP8 PUSH2 0x1ABE JUMP JUMPDEST PUSH1 0x3 SLOAD PUSH1 0x40 MLOAD PUSH4 0x70A08231 PUSH1 0xE0 SHL DUP2 MSTORE PUSH1 0x0 SWAP2 PUSH4 0x1000000 SWAP1 DIV PUSH1 0x1 PUSH1 0x1 PUSH1 0xA0 SHL SUB AND SWAP1 PUSH4 0x70A08231 SWAP1 PUSH2 0x166A SWAP1 ADDRESS SWAP1 PUSH1 0x4 ADD PUSH2 0x2344 JUMP JUMPDEST PUSH1 0x20 PUSH1 0x40 MLOAD DUP1 DUP4 SUB DUP2 DUP7 DUP1 EXTCODESIZE ISZERO DUP1 ISZERO PUSH2 0x1682 JUMPI PUSH1 0x0 DUP1 REVERT JUMPDEST POP GAS STATICCALL ISZERO DUP1 ISZERO PUSH2 0x1696 JUMPI RETURNDATASIZE PUSH1 0x0 DUP1 RETURNDATACOPY RETURNDATASIZE PUSH1 0x0 REVERT JUMPDEST POP POP POP POP PUSH1 0x40 MLOAD RETURNDATASIZE PUSH1 0x1F NOT PUSH1 0x1F DUP3 ADD AND DUP3 ADD DUP1 PUSH1 0x40 MSTORE POP DUP2 ADD SWAP1 PUSH2 0x16BA SWAP2 SWAP1 PUSH2 0x2042 JUMP JUMPDEST SWAP1 POP PUSH2 0x16C6 DUP2 DUP4 PUSH2 0x1B1E JUMP JUMPDEST PUSH1 0x3 SLOAD SWAP1 SWAP5 POP PUSH2 0xFFFF AND PUSH1 0x1 EQ ISZERO PUSH2 0x1749 JUMPI PUSH1 0x40 MLOAD PUSH4 0x2E1A7D4D PUSH1 0xE0 SHL DUP2 MSTORE PUSH20 0x82AF49447D8A07E3BD95BD0D56F35241523FBAB1 SWAP1 PUSH4 0x2E1A7D4D SWAP1 PUSH2 0x170F SWAP1 DUP8 SWAP1 PUSH1 0x4 ADD PUSH2 0x2450 JUMP JUMPDEST PUSH1 0x0 PUSH1 0x40 MLOAD DUP1 DUP4 SUB DUP2 PUSH1 0x0 DUP8 DUP1 EXTCODESIZE ISZERO DUP1 ISZERO PUSH2 0x1729 JUMPI PUSH1 0x0 DUP1 REVERT JUMPDEST POP GAS CALL ISZERO DUP1 ISZERO PUSH2 0x173D JUMPI RETURNDATASIZE PUSH1 0x0 DUP1 RETURNDATACOPY RETURNDATASIZE PUSH1 0x0 REVERT JUMPDEST POP POP POP POP DUP4 SWAP3 POP PUSH2 0x174E JUMP JUMPDEST PUSH1 0x0 SWAP3 POP JUMPDEST POP POP SWAP2 POP SWAP2 JUMP JUMPDEST PUSH1 0x0 PUSH1 0x40 MLOAD PUSH3 0x461BCD PUSH1 0xE5 SHL DUP2 MSTORE PUSH1 0x4 ADD PUSH2 0x677 SWAP1 PUSH2 0x2396 JUMP JUMPDEST PUSH1 0x3 SLOAD PUSH1 0x40 MLOAD PUSH4 0x1A79491D PUSH1 0xE3 SHL DUP2 MSTORE PUSH1 0x0 SWAP2 DUP3 SWAP2 PUSH1 0x1 PUSH1 0x1 PUSH1 0xA0 SHL SUB PUSH32 0x0 AND SWAP2 PUSH4 0xD3CA48E8 SWAP2 PUSH2 0x17C8 SWAP2 PUSH2 0xFFFF AND SWAP1 DUP8 SWAP1 PUSH1 0x4 ADD PUSH2 0x241F JUMP JUMPDEST PUSH1 0x20 PUSH1 0x40 MLOAD DUP1 DUP4 SUB DUP2 DUP7 DUP1 EXTCODESIZE ISZERO DUP1 ISZERO PUSH2 0x17E0 JUMPI PUSH1 0x0 DUP1 REVERT JUMPDEST POP GAS STATICCALL ISZERO DUP1 ISZERO PUSH2 0x17F4 JUMPI RETURNDATASIZE PUSH1 0x0 DUP1 RETURNDATACOPY RETURNDATASIZE PUSH1 0x0 REVERT JUMPDEST POP POP POP POP PUSH1 0x40 MLOAD RETURNDATASIZE PUSH1 0x1F NOT PUSH1 0x1F DUP3 ADD AND DUP3 ADD DUP1 PUSH1 0x40 MSTORE POP DUP2 ADD SWAP1 PUSH2 0x1818 SWAP2 SWAP1 PUSH2 0x2042 JUMP JUMPDEST SWAP1 POP PUSH1 0x0 DUP2 SLT PUSH2 0x1829 JUMPI PUSH1 0x0 PUSH2 0x628 JUMP JUMPDEST PUSH2 0x628 PUSH2 0x1469 DUP3 PUSH2 0x1996 JUMP JUMPDEST PUSH1 0x40 DUP1 MLOAD DUP1 DUP3 ADD DUP3 MSTORE PUSH1 0x5 DUP2 MSTORE PUSH5 0x1C1119589D PUSH1 0xDA SHL PUSH1 0x20 DUP1 DUP4 ADD SWAP2 SWAP1 SWAP2 MSTORE DUP3 MLOAD DUP1 DUP5 ADD SWAP1 SWAP4 MSTORE PUSH1 0x2 DUP4 MSTORE PUSH2 0x1C19 PUSH1 0xF2 SHL SWAP1 DUP4 ADD MSTORE SWAP2 JUMP JUMPDEST PUSH1 0x0 PUSH2 0x1878 ADDRESS PUSH2 0x135D JUMP JUMPDEST ISZERO SWAP1 POP SWAP1 JUMP JUMPDEST DUP1 ISZERO DUP1 PUSH2 0x1904 JUMPI POP PUSH1 0x40 DUP1 MLOAD PUSH4 0x6EB1769F PUSH1 0xE1 SHL DUP2 MSTORE ADDRESS PUSH1 0x4 DUP3 ADD MSTORE PUSH1 0x1 PUSH1 0x1 PUSH1 0xA0 SHL SUB DUP5 DUP2 AND PUSH1 0x24 DUP4 ADD MSTORE SWAP2 MLOAD SWAP2 DUP6 AND SWAP2 PUSH4 0xDD62ED3E SWAP2 PUSH1 0x44 DUP1 DUP3 ADD SWAP3 PUSH1 0x20 SWAP3 SWAP1 SWAP2 SWAP1 DUP3 SWAP1 SUB ADD DUP2 DUP7 DUP1 EXTCODESIZE ISZERO DUP1 ISZERO PUSH2 0x18D6 JUMPI PUSH1 0x0 DUP1 REVERT JUMPDEST POP GAS STATICCALL ISZERO DUP1 ISZERO PUSH2 0x18EA JUMPI RETURNDATASIZE PUSH1 0x0 DUP1 RETURNDATACOPY RETURNDATASIZE PUSH1 0x0 REVERT JUMPDEST POP POP POP POP PUSH1 0x40 MLOAD RETURNDATASIZE PUSH1 0x20 DUP2 LT ISZERO PUSH2 0x1900 JUMPI PUSH1 0x0 DUP1 REVERT JUMPDEST POP MLOAD ISZERO JUMPDEST PUSH2 0x193F JUMPI PUSH1 0x40 MLOAD PUSH3 0x461BCD PUSH1 0xE5 SHL DUP2 MSTORE PUSH1 0x4 ADD DUP1 DUP1 PUSH1 0x20 ADD DUP3 DUP2 SUB DUP3 MSTORE PUSH1 0x36 DUP2 MSTORE PUSH1 0x20 ADD DUP1 PUSH2 0x257C PUSH1 0x36 SWAP2 CODECOPY PUSH1 0x40 ADD SWAP2 POP POP PUSH1 0x40 MLOAD DUP1 SWAP2 SUB SWAP1 REVERT JUMPDEST PUSH1 0x40 DUP1 MLOAD PUSH1 0x1 PUSH1 0x1 PUSH1 0xA0 SHL SUB DUP5 AND PUSH1 0x24 DUP3 ADD MSTORE PUSH1 0x44 DUP1 DUP3 ADD DUP5 SWAP1 MSTORE DUP3 MLOAD DUP1 DUP4 SUB SWAP1 SWAP2 ADD DUP2 MSTORE PUSH1 0x64 SWAP1 SWAP2 ADD SWAP1 SWAP2 MSTORE PUSH1 0x20 DUP2 ADD DUP1 MLOAD PUSH1 0x1 PUSH1 0x1 PUSH1 0xE0 SHL SUB AND PUSH4 0x95EA7B3 PUSH1 0xE0 SHL OR SWAP1 MSTORE PUSH2 0x1991 SWAP1 DUP5 SWAP1 PUSH2 0x1B33 JUMP JUMPDEST POP POP POP JUMP JUMPDEST PUSH1 0x0 PUSH2 0x549 PUSH1 0x0 NOT DUP4 PUSH2 0x1A30 JUMP JUMPDEST PUSH1 0x0 DUP1 DUP3 SLT ISZERO PUSH2 0x19BE JUMPI PUSH2 0x19B7 DUP3 PUSH2 0x1996 JUMP JUMPDEST SWAP1 POP PUSH2 0x54C JUMP JUMPDEST POP DUP1 PUSH2 0x54C JUMP JUMPDEST PUSH1 0x0 PUSH1 0x1 PUSH1 0x1 PUSH1 0xFF SHL SUB DUP3 GT ISZERO PUSH2 0x19DB JUMPI PUSH1 0x0 DUP1 REVERT JUMPDEST POP SWAP1 JUMP JUMPDEST PUSH1 0x0 PUSH1 0x1 DUP3 SLT PUSH2 0x19EE JUMPI PUSH1 0x0 DUP1 REVERT JUMPDEST DUP2 PUSH2 0x19FB JUMPI POP PUSH1 0x0 PUSH2 0x5B1 JUMP JUMPDEST PUSH2 0x628 PUSH1 0x1 PUSH2 0x1A2A PUSH15 0xC097CE7BC90715B34B9F1000000000 PUSH2 0x1463 DUP8 PUSH1 0x20 ADD MLOAD DUP8 PUSH2 0x1A30 SWAP1 SWAP2 SWAP1 PUSH4 0xFFFFFFFF AND JUMP JUMPDEST SWAP1 PUSH2 0x1BE4 JUMP JUMPDEST DUP2 DUP2 MUL PUSH1 0x0 NOT DUP4 EQ ISZERO PUSH2 0x1A60 JUMPI DUP2 ISZERO DUP1 PUSH2 0x1A52 JUMPI POP DUP3 DUP3 DUP3 DUP2 PUSH2 0x1A4F JUMPI INVALID JUMPDEST SDIV EQ JUMPDEST PUSH2 0x1A5B JUMPI PUSH1 0x0 DUP1 REVERT JUMPDEST PUSH2 0x5B1 JUMP JUMPDEST DUP3 ISZERO DUP1 PUSH2 0x1A75 JUMPI POP DUP2 DUP4 DUP3 DUP2 PUSH2 0x1A72 JUMPI INVALID JUMPDEST SDIV EQ JUMPDEST PUSH2 0x5B1 JUMPI PUSH1 0x0 DUP1 REVERT JUMPDEST PUSH1 0x0 DUP2 PUSH1 0x0 NOT EQ DUP1 ISZERO PUSH2 0x1A94 JUMPI POP PUSH1 0x1 PUSH1 0xFF SHL DUP4 EQ JUMPDEST ISZERO PUSH2 0x1A9E JUMPI PUSH1 0x0 DUP1 REVERT JUMPDEST DUP2 DUP4 DUP2 PUSH2 0x1AA7 JUMPI INVALID JUMPDEST SDIV SWAP4 SWAP3 POP POP POP JUMP JUMPDEST PUSH1 0x0 DUP1 DUP3 SLT ISZERO PUSH2 0x19DB JUMPI PUSH1 0x0 DUP1 REVERT JUMPDEST PUSH1 0x40 DUP1 MLOAD PUSH1 0x1 PUSH1 0x1 PUSH1 0xA0 SHL SUB DUP1 DUP7 AND PUSH1 0x24 DUP4 ADD MSTORE DUP5 AND PUSH1 0x44 DUP3 ADD MSTORE PUSH1 0x64 DUP1 DUP3 ADD DUP5 SWAP1 MSTORE DUP3 MLOAD DUP1 DUP4 SUB SWAP1 SWAP2 ADD DUP2 MSTORE PUSH1 0x84 SWAP1 SWAP2 ADD SWAP1 SWAP2 MSTORE PUSH1 0x20 DUP2 ADD DUP1 MLOAD PUSH1 0x1 PUSH1 0x1 PUSH1 0xE0 SHL SUB AND PUSH4 0x23B872DD PUSH1 0xE0 SHL OR SWAP1 MSTORE PUSH2 0x1B18 SWAP1 DUP6 SWAP1 PUSH2 0x1B33 JUMP JUMPDEST POP POP POP POP JUMP JUMPDEST PUSH1 0x0 DUP3 DUP3 GT ISZERO PUSH2 0x1B2D JUMPI PUSH1 0x0 DUP1 REVERT JUMPDEST POP SWAP1 SUB SWAP1 JUMP JUMPDEST PUSH1 0x0 PUSH2 0x1B88 DUP3 PUSH1 0x40 MLOAD DUP1 PUSH1 0x40 ADD PUSH1 0x40 MSTORE DUP1 PUSH1 0x20 DUP2 MSTORE PUSH1 0x20 ADD PUSH32 0x5361666545524332303A206C6F772D6C6576656C2063616C6C206661696C6564 DUP2 MSTORE POP DUP6 PUSH1 0x1 PUSH1 0x1 PUSH1 0xA0 SHL SUB AND PUSH2 0x1BFA SWAP1 SWAP3 SWAP2 SWAP1 PUSH4 0xFFFFFFFF AND JUMP JUMPDEST DUP1 MLOAD SWAP1 SWAP2 POP ISZERO PUSH2 0x1991 JUMPI DUP1 DUP1 PUSH1 0x20 ADD SWAP1 MLOAD PUSH1 0x20 DUP2 LT ISZERO PUSH2 0x1BA7 JUMPI PUSH1 0x0 DUP1 REVERT JUMPDEST POP MLOAD PUSH2 0x1991 JUMPI PUSH1 0x40 MLOAD PUSH3 0x461BCD PUSH1 0xE5 SHL DUP2 MSTORE PUSH1 0x4 ADD DUP1 DUP1 PUSH1 0x20 ADD DUP3 DUP2 SUB DUP3 MSTORE PUSH1 0x2A DUP2 MSTORE PUSH1 0x20 ADD DUP1 PUSH2 0x2552 PUSH1 0x2A SWAP2 CODECOPY PUSH1 0x40 ADD SWAP2 POP POP PUSH1 0x40 MLOAD DUP1 SWAP2 SUB SWAP1 REVERT JUMPDEST DUP1 DUP3 SUB DUP3 DUP2 SGT ISZERO PUSH1 0x0 DUP4 SLT ISZERO EQ PUSH2 0x5B1 JUMPI PUSH1 0x0 DUP1 REVERT JUMPDEST PUSH1 0x60 PUSH2 0x1C09 DUP5 DUP5 PUSH1 0x0 DUP6 PUSH2 0x1C11 JUMP JUMPDEST SWAP5 SWAP4 POP POP POP POP JUMP JUMPDEST PUSH1 0x60 DUP3 SELFBALANCE LT ISZERO PUSH2 0x1C52 JUMPI PUSH1 0x40 MLOAD PUSH3 0x461BCD PUSH1 0xE5 SHL DUP2 MSTORE PUSH1 0x4 ADD DUP1 DUP1 PUSH1 0x20 ADD DUP3 DUP2 SUB DUP3 MSTORE PUSH1 0x26 DUP2 MSTORE PUSH1 0x20 ADD DUP1 PUSH2 0x24DE PUSH1 0x26 SWAP2 CODECOPY PUSH1 0x40 ADD SWAP2 POP POP PUSH1 0x40 MLOAD DUP1 SWAP2 SUB SWAP1 REVERT JUMPDEST PUSH2 0x1C5B DUP6 PUSH2 0x135D JUMP JUMPDEST PUSH2 0x1CAC JUMPI PUSH1 0x40 DUP1 MLOAD PUSH3 0x461BCD PUSH1 0xE5 SHL DUP2 MSTORE PUSH1 0x20 PUSH1 0x4 DUP3 ADD MSTORE PUSH1 0x1D PUSH1 0x24 DUP3 ADD MSTORE PUSH32 0x416464726573733A2063616C6C20746F206E6F6E2D636F6E7472616374000000 PUSH1 0x44 DUP3 ADD MSTORE SWAP1 MLOAD SWAP1 DUP2 SWAP1 SUB PUSH1 0x64 ADD SWAP1 REVERT JUMPDEST PUSH1 0x0 DUP1 DUP7 PUSH1 0x1 PUSH1 0x1 PUSH1 0xA0 SHL SUB AND DUP6 DUP8 PUSH1 0x40 MLOAD DUP1 DUP3 DUP1 MLOAD SWAP1 PUSH1 0x20 ADD SWAP1 DUP1 DUP4 DUP4 JUMPDEST PUSH1 0x20 DUP4 LT PUSH2 0x1CEA JUMPI DUP1 MLOAD DUP3 MSTORE PUSH1 0x1F NOT SWAP1 SWAP3 ADD SWAP2 PUSH1 0x20 SWAP2 DUP3 ADD SWAP2 ADD PUSH2 0x1CCB JUMP JUMPDEST PUSH1 0x1 DUP4 PUSH1 0x20 SUB PUSH2 0x100 EXP SUB DUP1 NOT DUP3 MLOAD AND DUP2 DUP5 MLOAD AND DUP1 DUP3 OR DUP6 MSTORE POP POP POP POP POP POP SWAP1 POP ADD SWAP2 POP POP PUSH1 0x0 PUSH1 0x40 MLOAD DUP1 DUP4 SUB DUP2 DUP6 DUP8 GAS CALL SWAP3 POP POP POP RETURNDATASIZE DUP1 PUSH1 0x0 DUP2 EQ PUSH2 0x1D4C JUMPI PUSH1 0x40 MLOAD SWAP2 POP PUSH1 0x1F NOT PUSH1 0x3F RETURNDATASIZE ADD AND DUP3 ADD PUSH1 0x40 MSTORE RETURNDATASIZE DUP3 MSTORE RETURNDATASIZE PUSH1 0x0 PUSH1 0x20 DUP5 ADD RETURNDATACOPY PUSH2 0x1D51 JUMP JUMPDEST PUSH1 0x60 SWAP2 POP JUMPDEST POP SWAP2 POP SWAP2 POP PUSH2 0x1D61 DUP3 DUP3 DUP7 PUSH2 0x1D6C JUMP JUMPDEST SWAP8 SWAP7 POP POP POP POP POP POP POP JUMP JUMPDEST PUSH1 0x60 DUP4 ISZERO PUSH2 0x1D7B JUMPI POP DUP2 PUSH2 0x628 JUMP JUMPDEST DUP3 MLOAD ISZERO PUSH2 0x1D8B JUMPI DUP3 MLOAD DUP1 DUP5 PUSH1 0x20 ADD REVERT JUMPDEST DUP2 PUSH1 0x40 MLOAD PUSH3 0x461BCD PUSH1 0xE5 SHL DUP2 MSTORE PUSH1 0x4 ADD DUP1 DUP1 PUSH1 0x20 ADD DUP3 DUP2 SUB DUP3 MSTORE DUP4 DUP2 DUP2 MLOAD DUP2 MSTORE PUSH1 0x20 ADD SWAP2 POP DUP1 MLOAD SWAP1 PUSH1 0x20 ADD SWAP1 DUP1 DUP4 DUP4 PUSH1 0x0 JUMPDEST DUP4 DUP2 LT ISZERO PUSH2 0x1DD5 JUMPI DUP2 DUP2 ADD MLOAD DUP4 DUP3 ADD MSTORE PUSH1 0x20 ADD PUSH2 0x1DBD JUMP JUMPDEST POP POP POP POP SWAP1 POP SWAP1 DUP2 ADD SWAP1 PUSH1 0x1F AND DUP1 ISZERO PUSH2 0x1E02 JUMPI DUP1 DUP3 SUB DUP1 MLOAD PUSH1 0x1 DUP4 PUSH1 0x20 SUB PUSH2 0x100 EXP SUB NOT AND DUP2 MSTORE PUSH1 0x20 ADD SWAP2 POP JUMPDEST POP SWAP3 POP POP POP PUSH1 0x40 MLOAD DUP1 SWAP2 SUB SWAP1 REVERT JUMPDEST DUP3 DUP1 SLOAD PUSH1 0x1 DUP2 PUSH1 0x1 AND ISZERO PUSH2 0x100 MUL SUB AND PUSH1 0x2 SWAP1 DIV SWAP1 PUSH1 0x0 MSTORE PUSH1 0x20 PUSH1 0x0 KECCAK256 SWAP1 PUSH1 0x1F ADD PUSH1 0x20 SWAP1 DIV DUP2 ADD SWAP3 DUP3 PUSH2 0x1E46 JUMPI PUSH1 0x0 DUP6 SSTORE PUSH2 0x1E8C JUMP JUMPDEST DUP3 PUSH1 0x1F LT PUSH2 0x1E5F JUMPI DUP1 MLOAD PUSH1 0xFF NOT AND DUP4 DUP1 ADD OR DUP6 SSTORE PUSH2 0x1E8C JUMP JUMPDEST DUP3 DUP1 ADD PUSH1 0x1 ADD DUP6 SSTORE DUP3 ISZERO PUSH2 0x1E8C JUMPI SWAP2 DUP3 ADD JUMPDEST DUP3 DUP2 GT ISZERO PUSH2 0x1E8C JUMPI DUP3 MLOAD DUP3 SSTORE SWAP2 PUSH1 0x20 ADD SWAP2 SWAP1 PUSH1 0x1 ADD SWAP1 PUSH2 0x1E71 JUMP JUMPDEST POP PUSH2 0x19DB SWAP3 SWAP2 POP JUMPDEST DUP1 DUP3 GT ISZERO PUSH2 0x19DB JUMPI PUSH1 0x0 DUP2 SSTORE PUSH1 0x1 ADD PUSH2 0x1E94 JUMP JUMPDEST PUSH1 0x0 DUP3 PUSH1 0x1F DUP4 ADD SLT PUSH2 0x1EB8 JUMPI DUP1 DUP2 REVERT JUMPDEST DUP2 CALLDATALOAD PUSH8 0xFFFFFFFFFFFFFFFF DUP2 GT ISZERO PUSH2 0x1ECC JUMPI INVALID JUMPDEST PUSH2 0x1EDF PUSH1 0x1F DUP3 ADD PUSH1 0x1F NOT AND PUSH1 0x20 ADD PUSH2 0x2475 JUMP JUMPDEST DUP2 DUP2 MSTORE DUP5 PUSH1 0x20 DUP4 DUP7 ADD ADD GT ISZERO PUSH2 0x1EF3 JUMPI DUP3 DUP4 REVERT JUMPDEST DUP2 PUSH1 0x20 DUP6 ADD PUSH1 0x20 DUP4 ADD CALLDATACOPY SWAP1 DUP2 ADD PUSH1 0x20 ADD SWAP2 SWAP1 SWAP2 MSTORE SWAP3 SWAP2 POP POP JUMP JUMPDEST PUSH1 0x0 PUSH1 0x20 DUP3 DUP5 SUB SLT ISZERO PUSH2 0x1F1E JUMPI DUP1 DUP2 REVERT JUMPDEST DUP2 CALLDATALOAD PUSH2 0x628 DUP2 PUSH2 0x24C5 JUMP JUMPDEST PUSH1 0x0 PUSH1 0x20 DUP3 DUP5 SUB SLT ISZERO PUSH2 0x1F3A JUMPI DUP1 DUP2 REVERT JUMPDEST DUP2 MLOAD PUSH2 0x628 DUP2 PUSH2 0x24C5 JUMP JUMPDEST PUSH1 0x0 DUP1 PUSH1 0x40 DUP4 DUP6 SUB SLT ISZERO PUSH2 0x1F57 JUMPI DUP1 DUP2 REVERT JUMPDEST DUP3 CALLDATALOAD PUSH2 0x1F62 DUP2 PUSH2 0x24C5 JUMP JUMPDEST SWAP2 POP PUSH1 0x20 DUP4 ADD CALLDATALOAD PUSH2 0x1F72 DUP2 PUSH2 0x24C5 JUMP JUMPDEST DUP1 SWAP2 POP POP SWAP3 POP SWAP3 SWAP1 POP JUMP JUMPDEST PUSH1 0x0 DUP1 PUSH1 0x0 DUP1 PUSH1 0x80 DUP6 DUP8 SUB SLT ISZERO PUSH2 0x1F92 JUMPI DUP2 DUP3 REVERT JUMPDEST DUP5 CALLDATALOAD PUSH2 0x1F9D DUP2 PUSH2 0x24C5 JUMP JUMPDEST SWAP4 POP PUSH1 0x20 DUP6 ADD CALLDATALOAD PUSH2 0x1FAD DUP2 PUSH2 0x24C5 JUMP JUMPDEST SWAP4 SWAP7 SWAP4 SWAP6 POP POP POP POP PUSH1 0x40 DUP3 ADD CALLDATALOAD SWAP2 PUSH1 0x60 ADD CALLDATALOAD SWAP1 JUMP JUMPDEST PUSH1 0x0 DUP1 PUSH1 0x0 PUSH1 0x60 DUP5 DUP7 SUB SLT ISZERO PUSH2 0x1FD6 JUMPI DUP3 DUP4 REVERT JUMPDEST DUP4 CALLDATALOAD PUSH2 0x1FE1 DUP2 PUSH2 0x24C5 JUMP JUMPDEST SWAP3 POP PUSH1 0x20 DUP5 ADD CALLDATALOAD PUSH2 0x1FF1 DUP2 PUSH2 0x24C5 JUMP JUMPDEST SWAP3 SWAP6 SWAP3 SWAP5 POP POP POP PUSH1 0x40 SWAP2 SWAP1 SWAP2 ADD CALLDATALOAD SWAP1 JUMP JUMPDEST PUSH1 0x0 DUP1 PUSH1 0x0 DUP1 PUSH1 0x80 DUP6 DUP8 SUB SLT ISZERO PUSH2 0x1F92 JUMPI DUP4 DUP5 REVERT JUMPDEST PUSH1 0x0 DUP1 PUSH1 0x40 DUP4 DUP6 SUB SLT ISZERO PUSH2 0x2029 JUMPI DUP2 DUP3 REVERT JUMPDEST DUP3 CALLDATALOAD PUSH2 0x2034 DUP2 PUSH2 0x24C5 JUMP JUMPDEST SWAP5 PUSH1 0x20 SWAP4 SWAP1 SWAP4 ADD CALLDATALOAD SWAP4 POP POP POP JUMP JUMPDEST PUSH1 0x0 PUSH1 0x20 DUP3 DUP5 SUB SLT ISZERO PUSH2 0x2053 JUMPI DUP1 DUP2 REVERT JUMPDEST POP MLOAD SWAP2 SWAP1 POP JUMP JUMPDEST PUSH1 0x0 DUP1 PUSH1 0x40 DUP4 DUP6 SUB SLT ISZERO PUSH2 0x206C JUMPI DUP1 DUP2 REVERT JUMPDEST DUP3 CALLDATALOAD PUSH8 0xFFFFFFFFFFFFFFFF DUP1 DUP3 GT ISZERO PUSH2 0x2083 JUMPI DUP3 DUP4 REVERT JUMPDEST PUSH2 0x208F DUP7 DUP4 DUP8 ADD PUSH2 0x1EA8 JUMP JUMPDEST SWAP4 POP PUSH1 0x20 DUP6 ADD CALLDATALOAD SWAP2 POP DUP1 DUP3 GT ISZERO PUSH2 0x20A4 JUMPI DUP3 DUP4 REVERT JUMPDEST POP PUSH2 0x20B1 DUP6 DUP3 DUP7 ADD PUSH2 0x1EA8 JUMP JUMPDEST SWAP2 POP POP SWAP3 POP SWAP3 SWAP1 POP JUMP JUMPDEST PUSH1 0x0 DUP1 PUSH1 0x0 DUP1 DUP5 DUP7 SUB PUSH2 0x1C0 DUP2 SLT ISZERO PUSH2 0x20D2 JUMPI DUP3 DUP4 REVERT JUMPDEST PUSH1 0x60 DUP2 SLT ISZERO PUSH2 0x20DF JUMPI DUP3 DUP4 REVERT JUMPDEST PUSH1 0x40 MLOAD PUSH1 0x60 DUP2 ADD DUP2 DUP2 LT PUSH8 0xFFFFFFFFFFFFFFFF DUP3 GT OR ISZERO PUSH2 0x20FC JUMPI INVALID JUMPDEST PUSH1 0x40 SWAP1 DUP2 MSTORE DUP8 MLOAD DUP3 MSTORE PUSH1 0x20 DUP1 DUP10 ADD MLOAD SWAP1 DUP4 ADD MSTORE DUP8 DUP2 ADD MLOAD SWAP1 DUP3 ADD MSTORE SWAP5 POP PUSH2 0x120 PUSH1 0x5F NOT DUP3 ADD DUP2 SGT ISZERO PUSH2 0x212C JUMPI DUP4 DUP5 REVERT JUMPDEST PUSH2 0x2135 DUP2 PUSH2 0x2475 JUMP JUMPDEST SWAP2 POP PUSH1 0x60 DUP8 ADD MLOAD DUP3 MSTORE PUSH1 0x80 DUP8 ADD MLOAD PUSH1 0x20 DUP4 ADD MSTORE PUSH1 0xA0 DUP8 ADD MLOAD PUSH1 0x40 DUP4 ADD MSTORE PUSH1 0xC0 DUP8 ADD MLOAD PUSH1 0x60 DUP4 ADD MSTORE PUSH1 0xE0 DUP8 ADD MLOAD PUSH1 0x80 DUP4 ADD MSTORE PUSH2 0x100 DUP8 ADD MLOAD PUSH1 0xA0 DUP4 ADD MSTORE DUP1 DUP8 ADD MLOAD PUSH1 0xC0 DUP4 ADD MSTORE POP PUSH2 0x140 DUP7 ADD MLOAD PUSH1 0xE0 DUP3 ADD MSTORE PUSH2 0x160 DUP7 ADD MLOAD PUSH2 0x100 DUP3 ADD MSTORE DUP1 SWAP4 POP POP PUSH2 0x180 DUP6 ADD MLOAD SWAP2 POP PUSH2 0x1A0 DUP6 ADD MLOAD SWAP1 POP SWAP3 SWAP6 SWAP2 SWAP5 POP SWAP3 POP JUMP JUMPDEST PUSH1 0x0 DUP1 PUSH1 0x0 DUP1 PUSH1 0x80 DUP6 DUP8 SUB SLT ISZERO PUSH2 0x21C4 JUMPI DUP2 DUP3 REVERT JUMPDEST DUP5 CALLDATALOAD PUSH2 0xFFFF DUP2 AND DUP2 EQ PUSH2 0x21D5 JUMPI DUP3 DUP4 REVERT JUMPDEST SWAP4 POP PUSH1 0x20 DUP6 ADD CALLDATALOAD PUSH2 0x21E5 DUP2 PUSH2 0x24C5 JUMP JUMPDEST SWAP3 POP PUSH1 0x40 DUP6 ADD CALLDATALOAD PUSH8 0xFFFFFFFFFFFFFFFF DUP1 DUP3 GT ISZERO PUSH2 0x2201 JUMPI DUP4 DUP5 REVERT JUMPDEST PUSH2 0x220D DUP9 DUP4 DUP10 ADD PUSH2 0x1EA8 JUMP JUMPDEST SWAP4 POP PUSH1 0x60 DUP8 ADD CALLDATALOAD SWAP2 POP DUP1 DUP3 GT ISZERO PUSH2 0x2222 JUMPI DUP3 DUP4 REVERT JUMPDEST POP PUSH2 0x222F DUP8 DUP3 DUP9 ADD PUSH2 0x1EA8 JUMP JUMPDEST SWAP2 POP POP SWAP3 SWAP6 SWAP2 SWAP5 POP SWAP3 POP JUMP JUMPDEST PUSH1 0x0 PUSH1 0x20 DUP3 DUP5 SUB SLT ISZERO PUSH2 0x224C JUMPI DUP1 DUP2 REVERT JUMPDEST POP CALLDATALOAD SWAP2 SWAP1 POP JUMP JUMPDEST PUSH1 0x0 DUP1 PUSH1 0x40 DUP4 DUP6 SUB SLT ISZERO PUSH2 0x2265 JUMPI DUP2 DUP3 REVERT JUMPDEST DUP3 CALLDATALOAD SWAP2 POP PUSH1 0x20 DUP4 ADD CALLDATALOAD PUSH2 0x1F72 DUP2 PUSH2 0x24C5 JUMP JUMPDEST PUSH1 0x0 DUP1 PUSH1 0x0 PUSH1 0x60 DUP5 DUP7 SUB SLT ISZERO PUSH2 0x228B JUMPI DUP1 DUP2 REVERT JUMPDEST DUP4 CALLDATALOAD SWAP3 POP PUSH1 0x20 DUP5 ADD CALLDATALOAD PUSH2 0x229D DUP2 PUSH2 0x24C5 JUMP JUMPDEST SWAP2 POP PUSH1 0x40 DUP5 ADD CALLDATALOAD PUSH2 0x22AD DUP2 PUSH2 0x24C5 JUMP JUMPDEST DUP1 SWAP2 POP POP SWAP3 POP SWAP3 POP SWAP3 JUMP JUMPDEST PUSH1 0x0 PUSH1 0x20 DUP3 DUP5 SUB SLT ISZERO PUSH2 0x22C9 JUMPI DUP1 DUP2 REVERT JUMPDEST DUP2 MLOAD PUSH1 0xFF DUP2 AND DUP2 EQ PUSH2 0x628 JUMPI DUP2 DUP3 REVERT JUMPDEST PUSH1 0x0 DUP4 MLOAD PUSH2 0x22EB DUP2 DUP5 PUSH1 0x20 DUP9 ADD PUSH2 0x2499 JUMP JUMPDEST DUP4 MLOAD SWAP1 DUP4 ADD SWAP1 PUSH2 0x22FF DUP2 DUP4 PUSH1 0x20 DUP9 ADD PUSH2 0x2499 JUMP JUMPDEST ADD SWAP5 SWAP4 POP POP POP POP JUMP JUMPDEST PUSH1 0x0 DUP4 MLOAD PUSH2 0x231A DUP2 DUP5 PUSH1 0x20 DUP9 ADD PUSH2 0x2499 JUMP JUMPDEST PUSH1 0x1 PUSH1 0xFD SHL SWAP1 DUP4 ADD SWAP1 DUP2 MSTORE DUP4 MLOAD PUSH2 0x2338 DUP2 PUSH1 0x1 DUP5 ADD PUSH1 0x20 DUP9 ADD PUSH2 0x2499 JUMP JUMPDEST ADD PUSH1 0x1 ADD SWAP5 SWAP4 POP POP POP POP JUMP JUMPDEST PUSH1 0x1 PUSH1 0x1 PUSH1 0xA0 SHL SUB SWAP2 SWAP1 SWAP2 AND DUP2 MSTORE PUSH1 0x20 ADD SWAP1 JUMP JUMPDEST SWAP1 ISZERO ISZERO DUP2 MSTORE PUSH1 0x20 ADD SWAP1 JUMP JUMPDEST PUSH1 0x0 PUSH1 0x20 DUP3 MSTORE DUP3 MLOAD DUP1 PUSH1 0x20 DUP5 ADD MSTORE PUSH2 0x2382 DUP2 PUSH1 0x40 DUP6 ADD PUSH1 0x20 DUP8 ADD PUSH2 0x2499 JUMP JUMPDEST PUSH1 0x1F ADD PUSH1 0x1F NOT AND SWAP2 SWAP1 SWAP2 ADD PUSH1 0x40 ADD SWAP3 SWAP2 POP POP JUMP JUMPDEST PUSH1 0x20 DUP1 DUP3 MSTORE PUSH1 0xF SWAP1 DUP3 ADD MSTORE PUSH15 0x139BDD08125B5C1B195B595B9D1959 PUSH1 0x8A SHL PUSH1 0x40 DUP3 ADD MSTORE PUSH1 0x60 ADD SWAP1 JUMP JUMPDEST PUSH1 0x20 DUP1 DUP3 MSTORE PUSH1 0xC SWAP1 DUP3 ADD MSTORE PUSH12 0x155B985D5D1A1BDC9A5E9959 PUSH1 0xA2 SHL PUSH1 0x40 DUP3 ADD MSTORE PUSH1 0x60 ADD SWAP1 JUMP JUMPDEST PUSH1 0x20 DUP1 DUP3 MSTORE PUSH1 0x11 SWAP1 DUP3 ADD MSTORE PUSH17 0x4E6F6E205472616E736665727261626C65 PUSH1 0x78 SHL PUSH1 0x40 DUP3 ADD MSTORE PUSH1 0x60 ADD SWAP1 JUMP JUMPDEST PUSH2 0xFFFF SWAP2 SWAP1 SWAP2 AND DUP2 MSTORE PUSH1 0x20 ADD SWAP1 JUMP JUMPDEST PUSH2 0xFFFF SWAP3 SWAP1 SWAP3 AND DUP3 MSTORE PUSH1 0x1 PUSH1 0x1 PUSH1 0xA0 SHL SUB AND PUSH1 0x20 DUP3 ADD MSTORE PUSH1 0x40 ADD SWAP1 JUMP JUMPDEST PUSH2 0xFFFF SWAP3 SWAP1 SWAP3 AND DUP3 MSTORE PUSH1 0x20 DUP3 ADD MSTORE PUSH1 0x40 ADD SWAP1 JUMP JUMPDEST SWAP1 DUP2 MSTORE PUSH1 0x20 ADD SWAP1 JUMP JUMPDEST SWAP2 DUP3 MSTORE PUSH1 0x20 DUP3 ADD MSTORE PUSH1 0x40 ADD SWAP1 JUMP JUMPDEST PUSH1 0xFF SWAP2 SWAP1 SWAP2 AND DUP2 MSTORE PUSH1 0x20 ADD SWAP1 JUMP JUMPDEST PUSH1 0x40 MLOAD DUP2 DUP2 ADD PUSH8 0xFFFFFFFFFFFFFFFF DUP2 GT DUP3 DUP3 LT OR ISZERO PUSH2 0x2491 JUMPI INVALID JUMPDEST PUSH1 0x40 MSTORE SWAP2 SWAP1 POP JUMP JUMPDEST PUSH1 0x0 JUMPDEST DUP4 DUP2 LT ISZERO PUSH2 0x24B4 JUMPI DUP2 DUP2 ADD MLOAD DUP4 DUP3 ADD MSTORE PUSH1 0x20 ADD PUSH2 0x249C JUMP JUMPDEST DUP4 DUP2 GT ISZERO PUSH2 0x1B18 JUMPI POP POP PUSH1 0x0 SWAP2 ADD MSTORE JUMP JUMPDEST PUSH1 0x1 PUSH1 0x1 PUSH1 0xA0 SHL SUB DUP2 AND DUP2 EQ PUSH2 0x24DA JUMPI PUSH1 0x0 DUP1 REVERT JUMPDEST POP JUMP INVALID COINBASE PUSH5 0x6472657373 GASPRICE KECCAK256 PUSH10 0x6E73756666696369656E PUSH21 0x2062616C616E636520666F722063616C6C496E6974 PUSH10 0x616C697A61626C653A20 PUSH4 0x6F6E7472 PUSH2 0x6374 KECCAK256 PUSH10 0x7320616C726561647920 PUSH10 0x6E697469616C697A6564 0xDD CALLCODE MSTORE 0xAD SHL 0xE2 0xC8 SWAP12 PUSH10 0xC2B068FC378DAA952BA7 CALL PUSH4 0xC4A11628 CREATE2 GAS 0x4D CREATE2 0x23 0xB3 0xEF MSTORE8 PUSH2 0x6665 GASLIMIT MSTORE NUMBER ORIGIN ADDRESS GASPRICE KECCAK256 GASLIMIT MSTORE NUMBER ORIGIN ADDRESS KECCAK256 PUSH16 0x7065726174696F6E20646964206E6F74 KECCAK256 PUSH20 0x7563636565645361666545524332303A20617070 PUSH19 0x6F76652066726F6D206E6F6E2D7A65726F2074 PUSH16 0x206E6F6E2D7A65726F20616C6C6F7761 PUSH15 0x6365A2646970667358221220906132 0xC3 0xA9 0xC7 CALLER 0xAA CREATE2 0x23 0xBC RETURNDATACOPY PUSH29 0x4D9A398911A1C97D2611DDB89817263B77DC1F64736F6C634300070600 CALLER ","sha1":"cf782be4235706289ec5372c08e86e094c96a583","source":"// SPDX-License-Identifier: GPL-3.0-only\npragma solidity =0.7.6;\npragma abicoder v2;\n\nimport {SafeInt256} from \"../../math/SafeInt256.sol\";\nimport {SafeUint256} from \"../../math/SafeUint256.sol\";\nimport {Constants} from \"../../global/Constants.sol\";\nimport {PrimeCashFactors, PrimeRate} from \"../../global/Types.sol\";\n\nimport {PrimeRateLib} from \"../../internal/pCash/PrimeRateLib.sol\";\nimport {NotionalProxy, BaseERC4626Proxy} from \"./BaseERC4626Proxy.sol\";\n\ncontract PrimeDebtProxy is BaseERC4626Proxy {\n    using SafeInt256 for int256;\n    using SafeUint256 for uint256;\n    using PrimeRateLib for PrimeRate;\n\n    constructor(NotionalProxy notional_) BaseERC4626Proxy(notional_) {}\n\n    function _getPrefixes() internal pure override returns (string memory namePrefix, string memory symbolPrefix) {\n        namePrefix = \"pDebt\";\n        symbolPrefix = \"pd\";\n    }\n\n    function _totalSupply() internal view override returns (uint256 supply) {\n        // Total supply is looked up via the token address\n        (\n            /* */,\n            PrimeCashFactors memory factors,\n            /* */,\n            /* */\n        ) = NOTIONAL.getPrimeFactors(currencyId, block.timestamp);\n\n        return factors.totalPrimeDebt;\n    }\n\n    function _balanceOf(address account) internal view override returns (uint256 balance) {\n        int256 debtBalance = NOTIONAL.getAccountPrimeDebtBalance(\n            currencyId, account\n        );\n\n        return debtBalance < 0 ? debtBalance.neg().toUint() : 0;\n    }\n\n    function _allowance(address account, address spender) internal view override returns (uint256) {\n        revert(\"Non Transferrable\");\n    }\n\n    function _approve(address spender, uint256 amount) internal override returns (bool) {\n        revert(\"Non Transferrable\");\n    }\n\n    function _transfer(address to, uint256 amount) internal override returns (bool) {\n        revert(\"Non Transferrable\");\n    }\n\n    function _transferFrom(address from, address to, uint256 amount) internal override returns (bool) {\n        revert(\"Non Transferrable\");\n    }\n\n    function _getTotalValueExternal() internal view override returns (uint256 totalValueExternal) {\n        (\n            PrimeRate memory pr,\n            PrimeCashFactors memory factors,\n            /* */,\n            /* */\n        ) = NOTIONAL.getPrimeFactors(currencyId, block.timestamp);\n\n        totalValueExternal = pr.convertDebtStorageToUnderlying(factors.totalPrimeDebt.toInt().neg())\n            // No overflow, native decimals is restricted to < 36 in initialize\n            .mul(int256(10**nativeDecimals))\n            .div(Constants.INTERNAL_TOKEN_PRECISION).neg().toUint();\n    }\n\n    function _mint(uint256 assets, uint256 msgValue, address receiver) internal override returns (uint256 tokensMinted) {\n        revert(\"Not Implemented\");\n    }\n\n    function _redeem(uint256 shares, address receiver, address owner) internal override returns (uint256 assets) {\n        revert(\"Not Implemented\");\n    }\n\n}\n","sourcePath":"contracts/external/proxies/PrimeDebtProxy.sol","type":"contract","deployment":{"address":"0xe157571033113BE476ef333bb30A48EFC99B8e2D","chainid":"42161","blockHeight":119753875}}