{"abi":[{"inputs":[{"internalType":"address","name":"account","type":"address"}],"name":"getFreeCollateralView","outputs":[{"internalType":"int256","name":"","type":"int256"},{"internalType":"int256[]","name":"","type":"int256[]"}],"stateMutability":"view","type":"function"}],"bytecode":"614d81610026600b82828239805160001a60731461001957fe5b30600052607381538281f3fe730000000000000000000000000000000000000000301460806040526004361061004b5760003560e01c8063451d958f146100505780636cb65eaf146100885780636ccc642f146100a9575b600080fd5b81801561005c57600080fd5b5061007061006b3660046147ac565b6100cb565b60405161007f93929190614c52565b60405180910390f35b61009b610096366004614792565b6101c8565b60405161007f929190614a9c565b8180156100b557600080fd5b506100c96100c4366004614792565b61021d565b005b6100d36143ff565b6100db614434565b60606100e56102a1565b6100ee86610377565b92506100f983610426565b1561018a576040516337b5fc2160e11b815273__SettleAssetsExternal__________________90636f6bf842906101379089908790600401614a7f565b60c06040518083038186803b15801561014f57600080fd5b505af4158015610163573d6000803e3d6000fd5b505050506040513d601f19601f8201168201806040525081019061018791906147de565b92505b6101938361047a565b156101ac57826060015161ffff1685146101ac57600080fd5b6101b98684428888610487565b93979096509294509192505050565b6000606060006101d784610377565b90506101e281610426565b156102085760405162461bcd60e51b81526004016101ff90614b40565b60405180910390fd5b6102138482426106e6565b9250925050915091565b6102256102a1565b600061023082610377565b905061023b81610426565b156102585760405162461bcd60e51b81526004016101ff90614b40565b60008061026684844261092c565b91509150801561027a5761027a8385610b0a565b600082121561029b5760405162461bcd60e51b81526004016101ff90614c1b565b50505050565b60008073fdb631f5ee196f0ed6faa767959853a9f217697d6001600160a01b031663feaf968c6040518163ffffffff1660e01b815260040160a06040518083038186803b1580156102f157600080fd5b505afa158015610305573d6000803e3d6000fd5b505050506040513d601f19601f8201168201806040525081019061032991906148a4565b50509250925050816000146103505760405162461bcd60e51b81526004016101ff90614bc4565b804203610e10106103735760405162461bcd60e51b81526004016101ff90614b94565b5050565b61037f6143ff565b6000610389610c27565b6001600160a01b03841660009081526020918252604090819020815160c081018352905464ffffffffff811682526001600160f81b0319600160281b820460f81b169382019390935260ff600160301b840481169282019290925261ffff600160381b84041660608201526001600160701b0319600160481b840460701b166080820152600160d81b90920416151560a08201529150505b919050565b6000426104328361047a565b156104535761044081610c3a565b835164ffffffffff161091506104219050565b825164ffffffffff16158015906104725750825164ffffffffff168110155b915050610421565b6060015161ffff16151590565b61048f614434565b60606104996144b9565b6104a1614434565b6001600160a01b03891681526104b68861047a565b1561058f576104c88860600151610c5b565b6060830152600080806104dd8c8b8d88610c81565b92509250925060006104f18d8c8e89610cdc565b90506000610509826105038787610d95565b90610d95565b90508660600151604001518760a0018190525060006105318e6060015161ffff16838a610dab565b90508b8e6060015161ffff161415610584576040870182905260c0870181905260a08801516101008801528a610584576060880151610120880152608087018590526001600160d01b0319841660a08801525b5050505050506105a3565b61059d898960400151610df6565b60808301525b60808801515b6001600160701b0319811615610687576060890151819060009060f083901c613fff169061ffff168114156105dd57600080fd5b89811480156105ea575088155b806105f457508881145b9150506000610606868685858f610e0a565b905060f083901c613fff16600061061e82848a610dab565b90508a82141561064a5760a0880151610120880151604001526060870183905260e0870181905261066c565b8b82141561066c576040870183905260c0870181905260a08801516101008801525b6010866001600160701b031916901b955050505050506105a9565b8251602083018190526000136106af5760405162461bcd60e51b81526004016101ff90614bec565b604089015160ff16156106d0576106ca8a8a60400151610df6565b60808401525b5060809091015190925090509550959350505050565b600060606106f26144b9565b60408051600a808252610160820190925260009182919060208201610140803683370190505090506107238761047a565b156107cb576107358760600151610ec3565b60608401526000806107498a898b88610c81565b5091509150600061075c8b8a8c89610cdc565b905061076c816105038585610d95565b84868151811061077857fe5b6020026020010181815250508560600151604001518660a001819052506107bb8a6060015161ffff168587815181106107ad57fe5b602002602001015188610dab565b5050600190930192506107df9050565b6107d9888860400151610df6565b60808401525b60808701515b6001600160701b031981161561091a576060880151819060f082901c613fff169061ffff1681141561081657600080fd5b6000610822828b610ee4565b5060a08801819052610837908d908590610fa2565b86888151811061084357fe5b6020026020010181935082815250505061085c83610fe7565b806108675750600081135b156108d25761087582610ec3565b606088015260008061088889848e610ff3565b50915091506108b781610503848a8c815181106108a157fe5b6020026020010151610d9590919063ffffffff16565b8789815181106108c357fe5b60200260200101818152505050505b6108f48261ffff168688815181106108e657fe5b602002602001015189610dab565b505050600193909301925060101b6fffffffffffffffffffffffffffffffff19166107e5565b5091519350909150505b935093915050565b6000806109376144b9565b60006109428661047a565b156109c9576109548660600151610c5b565b606083015260008061096889888a87610c81565b5091509150600082121561097b57600192505b60006109898a898b88610cdc565b9050600061099b826105038686610d95565b6060808801516040015160a08901528b01519091506109bf9061ffff168288610dab565b50505050506109dd565b6109d7878760400151610df6565b60808301525b60808601515b6001600160701b0319811615610ac1576060870151819060f082901c613fff169061ffff16811415610a1457600080fd5b610a1d816110a3565b8560a00181905250600080610a378c858960a00151610fa2565b915091506000821215610a4957600195505b610a5284610fe7565b80610a5d5750600081135b15610a9757610a6b83610c5b565b6060880152600080610a7e89848e610ff3565b509092509050610a92816105038685610d95565b935050505b610aa68361ffff168389610dab565b506010856001600160701b031916901b9450505050506109e3565b6020870151600160f91b908116148015610ad9575081155b15610af4576020808801805160fd60f81b1690526001908401525b5050805160209091015190969095509350505050565b6000610b14610c27565b6001600160a01b03831660008181526020838152604080832088518154938a01518a84015160608c015160808d015160a08e015164ffffffffff1990981664ffffffffff9095169490941765ff00000000001916600160281b60f89490941c939093029290921766ff0000000000001916600160301b60ff909216919091021768ffff000000000000001916600160381b61ffff90921691909102177affffffffffffffffffffffffffffffffffff0000000000000000001916600160481b60709290921c919091021760ff60d81b1916600160d81b93151593909302929092179091555192935090917f6bd4b121bca854a191536a2ca891155c42ee2fb23f307fb34e8bc65cfcb5412e9190a2505050565b600080610c3460016110b5565b92915050565b600062015180821015610c4c57600080fd5b62015180825b06909103919050565b610c63614509565b6000610c6e836110a3565b9050610c7a83826110ce565b9392505050565b600080600080610c9e888760600151876060015160400151611111565b509195509150506000811315610ccc57610cc285606001518660c00151838a6111cb565b9093509150610cd1565b600092505b509450945094915050565b6000806000610d0787866060015161ffff16876000015164ffffffffff16898860600151600161123f565b60208701519193509150600160f81b90811614818015610d25575080155b15610d4e5760208681018051600160f81b176001600160f81b0319169052600190860152610d74565b81158015610d595750805b15610d745760208087018051607f60f91b1690526001908601525b606085015160400151610d87908461126f565b93505050505b949350505050565b81810182811215600083121514610c3457600080fd5b610db3614528565b6000610dbe85611291565b9050610dec610de4610ddd868660a001516113f490919063ffffffff16565b8390611420565b845190610d95565b9092525092915050565b6060610e028383611467565b509392505050565b600060f084901c613fff16610e1e816110a3565b60a0880181905286516000918291610e37918990610fa2565b91509150610e4487610fe7565b80610e4f5750600081135b15610eb557610e5d83610c5b565b60608a015260008080610e718c858a610ff3565b91945092509050610e86826105038786610d95565b94508815610eb15760608c01516101208c01526001600160d01b0319811660a08c015260808b018290525b5050505b509150505b95945050505050565b610ecb614509565b6000610ed78342610ee4565b509050610c7a83826110ce565b610eec614557565b610ef4614578565b610efd84611488565b90508281600001511015610f2e576000610f1685611550565b9050610f24858383876115cb565b509150610f3b9050565b80518314610f3b57600080fd5b6040518060600160405280610f69610f648460a001518560c0015161166f90919063ffffffff16565b611696565b8152602001610f8c610f648460a001518560e0015161166f90919063ffffffff16565b8152602001826060015181525091509250929050565b600080600160fe1b8481161415610fda5760f084901c613fff16600080610fca888488611111565b5091965094506109249350505050565b5060009485945092505050565b600160ff1b9081161490565b6000806000856080015151866040015110801561103e575085606001516000015161ffff16866080015187604001518151811061102c57fe5b60200260200101516000015161ffff16145b156110675761105b866080015187606001518689604001516116b0565b6040880152925061106c565b600092505b60008513156110935761108986606001518760c0015187876111cb565b909250905061109a565b5060009050805b93509350939050565b6110ab614557565b610c34824261175b565b6000620f42408260268111156110c757fe5b0192915050565b6110d6614509565b60006110e58461ffff1661181c565b6040805160808101825261ffff96909616865260ff821660208701528501939093525050606082015290565b6000806000806000611121611839565b6001600160a01b03891660009081526020828152604080832061ffff8c168452909152902080546001600160501b0381169650600160501b900463ffffffff169450909150831561118e57805461118790600160701b900466ffffffffffffff16611846565b92506111a3565b8054600160701b900466ffffffffffffff1692505b80546111be908890600160a81b9004600a90810b900b611854565b9550505093509350935093565b835160009081906111dd908690611882565b85855260006111ec868561191e565b9050600061122b876040015161122560646112258b60a00151600360ff166006811061121457fe5b1a61121f8c896119d6565b906119d6565b90611a24565b60a097909701519698969750505050505050565b600080600061124e8989611a55565b905061125f89898989898987611a8a565b9250925050965096945050505050565b8151600090610c7a90611225846ec097ce7bc90715b34b9f10000000006119d6565b611299614528565b60006112a3611b08565b60008481526020829052604081209192508060018614156112d05750670de0b6b3a7640000905080611393565b825460408051633fabe5a360e21b815290516001600160a01b039092169163feaf968c9160048082019260a092909190829003018186803b15801561131457600080fd5b505afa158015611328573d6000803e3d6000fd5b505050506040513d601f19601f8201168201806040525081019061134c91906148a4565b5091935050600083139150611362905057600080fd5b825460ff600160a01b82048116600a0a9350600160a81b9091041615611393576113908161122584806119d6565b90505b8254600160b01b900460ff1660968113156113b35760951901600a026096015b6040805160a081018252938452602084019290925290820152905460ff600160b81b820481166060840152600160c01b909104166080820152915050919050565b6000610c7a6ec097ce7bc90715b34b9f10000000006112258560000151856119d690919063ffffffff16565b6000806000831361143557836040015161143b565b83606001515b90506000610eba856000015161122560646112258661121f8b602001518b6119d690919063ffffffff16565b6060806114748484611b15565b915061147f82611c37565b90509250929050565b611490614578565b600061149a611df8565b61ffff93841660009081526020918252604090819020805464ffffffffff81168652600160281b81046001600160581b03908116948701949094526001820154841692860192909252600160d81b820463ffffffff166060860152600160801b9091049091166080840152600201546001600160501b0380821660a0850152600160501b8204811660c0850152600160a01b82041660e0840152600160f01b900460ff1661012c02909216610100820152919050565b60008061155c83611e05565b6001600160a01b031663a77c05b86040518163ffffffff1660e01b8152600401604080518083038186803b15801561159357600080fd5b505afa1580156115a7573d6000803e3d6000fd5b505050506040513d601f19601f82011682018060405250810190610d8d9190614881565b6115d3614578565b60008060006115e3888689611e35565b60c08b019290925260e08a0192909252602089015191935091506116079083611f46565b60208801526080870151600090156116355760808801516116329061162c8982611f58565b90611f6d565b90505b61165561164a670de0b6b3a764000083611f46565b60a08a015190611f8a565b60a089015250506080860194909452505082529092909150565b60008261167e57506000610c34565b8282028284828161168b57fe5b0414610c7a57600080fd5b60006001600160ff1b038211156116ac57600080fd5b5090565b6000808080845b88518110156117335760008982815181106116ce57fe5b60200260200101519050600160ff168160400151146116ed575061172b565b8851815161ffff9081169116146117045750611733565b600061171a8a836060015184602001518c611fa7565b90506117268482610d95565b935050505b6001016116b7565b604088015161174d90611746908461126f565b8490610d95565b999098509650505050505050565b611763614557565b600061176e84611488565b905082816000015110156117ad5760008061178886611ff7565b9050611796868483886115cb565b90935091506117a6868385612050565b50506117ba565b805183146117ba57600080fd5b60405180606001604052806117e3610f648460a001518560c0015161166f90919063ffffffff16565b8152602001611806610f648460a001518560e0015161166f90919063ffffffff16565b8152602001826060015181525091505092915050565b600080611827612284565b60009384526020525050604090205490565b600080610c3460066110b5565b600881901c60ff9091161b90565b6000808212611864575080610c34565b8251602084015161187b91906112259085906119d6565b9050610c34565b61188f8161ffff16612291565b6001600160a01b031660c08301819052600090819081906118af906122b7565b945094509450505060006118c68660c00151612320565b505060808701859052604087018190526001600160d81b0319831660a088015260c08701519091506118fa9084600061238a565b602087015260c086015161190e908661241d565b6060909601959095525050505050565b60008061192a84612476565b905082811161193a576001810392505b50600061194784846124a0565b50905060006119758560c0015186600001516000015161ffff168760800151878960000151602001516125ee565b9050600081156119a75760c08601518651805160808901516119a3939261ffff909216918990600088611a8a565b5090505b60608601518651604001516119cc9190610503906119c5908561126f565b8690610d95565b9695505050505050565b818102600019831415611a06578115806119f85750828282816119f557fe5b05145b611a0157600080fd5b610c34565b821580611a1b575081838281611a1857fe5b05145b610c3457600080fd5b600081600019148015611a3a5750600160ff1b83145b15611a4457600080fd5b818381611a4d57fe5b059392505050565b600080611a6061269a565b6001600160a01b038516600090815260209182526040808220868352909252205491505092915050565b6000806000611a98846126a7565b90505b8015611afb576000611aad89836126cc565b90506000611abf8c8c848c8c8c61277f565b9050611acb8582610d95565b94506000811215611adb57600193505b611ae7868460006127df565b9550611af2866126a7565b92505050611a9b565b5097509795505050505050565b600080610c3460106110b5565b606060088260ff161115611b2857600080fd5b6000611b3261282a565b6001600160a01b038516600090815260208290526040812091925060ff851667ffffffffffffffff81118015611b6757600080fd5b50604051908082528060200260200182016040528015611ba157816020015b611b8e6145c4565b815260200190600190039081611b865790505b50905060005b8560ff16811015611c2d576000838260088110611bc057fe5b0190506000838381518110611bd157fe5b602090810291909101810151835461ffff8116825264ffffffffff620100008204169282019290925260ff600160381b8304166040820152600160401b909104600a90810b900b60608201526080019190915250600101611ba7565b5095945050505050565b80516060908067ffffffffffffffff81118015611c5357600080fd5b50604051908082528060200260200182016040528015611c7d578160200160208202803683370190505b50915060005b81811015611cda576000848281518110611c9957fe5b60200260200101519050611cba816000015182602001518360400151612837565b848381518110611cc657fe5b602090810291909101015250600101611c83565b5060015b81811015611df157805b600081118015611d205750838181518110611cff57fe5b6020026020010151846001830381518110611d1657fe5b6020026020010151115b15611de857838181518110611d3157fe5b6020026020010151846001830381518110611d4857fe5b6020026020010151856001840381518110611d5f57fe5b60200260200101868481518110611d7257fe5b6020026020010182815250828152505050848181518110611d8f57fe5b6020026020010151856001830381518110611da657fe5b6020026020010151866001840381518110611dbd57fe5b60200260200101878481518110611dd057fe5b60209081029190910101919091525260001901611ce8565b50600101611cde565b5050919050565b600080610c34601d6110b5565b600080611e10612860565b61ffff939093166000908152602093909352505060409020546001600160a01b031690565b600080600080600080611e48898861286d565b89519095509193509150600090611e6f90611e64908b90611f58565b633b9aca009061166f565b9050611ea9611e9e6301da9c00611e86858561166f565b81611e8d57fe5b670de0b6b3a7640000919004611f46565b60e08a015190611f8a565b9650611ecb611ec06301da9c00611e86878561166f565b60c08a015190611f8a565b955081831415611ee2575060009350611f3d915050565b6000611f04611ef96301da9c00611e86878661166f565b60e08b015190611f8a565b90506000611f128983611f58565b9050611f3588611f2f838d6040015161166f90919063ffffffff16565b90612908565b965050505050505b93509350935093565b600082820183811015610c7a57600080fd5b600082821115611f6757600080fd5b50900390565b6000610c7a611f8484670de0b6b3a764000061166f565b83612908565b6000610c7a611f99848461166f565b670de0b6b3a7640000612908565b600083611fb657506000610d8d565b6000808513611fcf57611fca868585612927565b611fda565b611fda868585612963565b9050633b9aca00811315611fed57600080fd5b6119cc85826129a4565b60008061200383611e05565b6001600160a01b031663ef81f2166040518163ffffffff1660e01b81526004016040805180830381600087803b15801561203c57600080fd5b505af11580156115a7573d6000803e3d6000fd5b600061205a611df8565b60008561ffff168152602001908152602001600020905061207e82600001516129bd565b815464ffffffffff191664ffffffffff9190911617815560a08201516120a3906129d1565b60028201805469ffffffffffffffffffff19166001600160501b039290921691909117905560c08201516120d6906129d1565b81600201600a6101000a8154816001600160501b0302191690836001600160501b0316021790555061210b8260e001516129d1565b8160020160146101000a8154816001600160501b0302191690836001600160501b0316021790555061214082602001516129e7565b81546001600160581b0391909116600160281b026fffffffffffffffffffffff000000000019909116178155604082015161217a906129e7565b6001820180546affffffffffffffffffffff19166001600160581b039290921691909117905560808201516121ae906129e7565b81546001600160581b0391909116600160801b026affffffffffffffffffffff60801b1990911617815560608201516121e6906129fd565b815463ffffffff91909116600160d81b0263ffffffff60d81b19909116178155821561223257600061221784611696565b90506122238582612a10565b612230610fee8683612a4c565b505b8361ffff167fef25641e225e493886510ca1ad6584fa7b442b9fea820a29d1de3ce27d270fd28360a001518460c001518560e0015160405161227693929190614d35565b60405180910390a250505050565b600080610c3460096110b5565b60008061229c612ad6565b6000938452602052505060409020546001600160a01b031690565b6000806000806000806122c8612ae3565b6001600160a01b039097166000908152602097909752505060409094205461ffff81169563ffffffff62010000830481169650600160301b830416945060ff600160501b8304169350600160581b90910460d81b9150565b60008060008061232e612af0565b6001600160a01b0395909516600090815260209590955250506040909220546bffffffffffffffffffffffff811693600160601b82046fffffffffffffffffffffffffffffffff169350600160e01b90910463ffffffff169150565b612392614603565b61239a614603565b60ff84166123a9579050610c7a565b6123b38585610df6565b815260ff841660608201528267ffffffffffffffff811180156123d557600080fd5b5060405190808252806020026020018201604052801561240f57816020015b6123fc6145c4565b8152602001906001900390816123f45790505b506020820152949350505050565b600080612428611839565b6001600160a01b03851660009081526020828152604080832061ffff8816845290915281208054600160a81b9004600a90810b900b945091925083121561246e57600080fd5b505092915050565b600081608001516000141561248d57506000610421565b60808201516276a700906110c790612afd565b602082015151516000906060908067ffffffffffffffff811180156124c457600080fd5b506040519080825280602002602001820160405280156124ee578160200160208202803683370190505b5091506124f961462b565b60005b828110156125e457865161251790836001808501908a612b19565b6000876020015160000151828151811061252d57fe5b6020026020010151905060008160200151905060008061254d8487612b94565b9150915061257661256f8c60c001518d600001516000015161ffff1686612c06565b8290610d95565b88868151811061258257fe5b60200260200101818152505060006125c56117466125b98b89815181106125a557fe5b6020026020010151878f8c60c00151612c4b565b8e51604001519061126f565b90506125d18a82610d95565b995050600190940193506124fc92505050565b5050509250929050565b60006002821161260057506000610eba565b600061260c8787611a55565b90508061261a579050610eba565b600061262585612afd565b90508581141561264f57507440008000000200200000000200000020000000002019169050610eba565b60015b84811161268f57600061266482612c9c565b8301905060006126748983612d40565b509050612683858260006127df565b94505050600101612652565b508192505050610eba565b600080610c34600b6110b5565b6000816126b657506000610421565b6126bf82612e4b565b60ff036001019050919050565b6000816126d857600080fd5b6101008211156126e757600080fd5b60006126f284610c3a565b90506000605a841161270d5750620151808302019050610c34565b60878411612735575060591983016207e900908102908206909103016276a700019050610c34565b60c3841161275e5750608619830162278d00908102908206909103016301da9c00019050610c34565b5060c21983016276a70090810290820690910301630b1fa800019050610c34565b60008061278d888888612c06565b905084861161279d5790506119cc565b82156127b7576127af84828888611fa7565b9150506119cc565b60006127c4858888612ee4565b90506127d282888884612c4b565b9998505050505050505050565b6000600183101580156127f457506101008311155b6127fd57600080fd5b81156128165750600160ff1b60001983011c8317610c7a565b50600160ff1b60001983011c198316610c7a565b600080610c34600d6110b5565b67ffff000000000000603084901b1665ffffffffff00600884901b161760ff8216179392505050565b600080610c34601f6110b5565b6000806000806000856020015111156128ba576128b761289e8660c00151876020015161166f90919063ffffffff16565b60e087015160408801516128b19161166f565b90612fcd565b90505b60006128c587612fe0565b90506128d18183613013565b945081156128e8576128e5818660016130c6565b93505b6020860151156128ff576128fc858361313e565b92505b50509250925092565b600080821161291657600080fd5b81838161291f57fe5b049392505050565b600080612935858585613157565b905080156129555761295061294a8585611f58565b826131a7565b610eba565b633b9aca0095945050505050565b600080612971858585613214565b905061298061294a8585611f58565b9150600061298d86613255565b90508281121561299b578092505b50509392505050565b6000610c7a6129b384846119d6565b633b9aca00611a24565b600064ffffffffff8211156116ac57600080fd5b60006001600160501b038211156116ac57600080fd5b60006001600160581b038211156116ac57600080fd5b600063ffffffff8211156116ac57600080fd5b6000811215612a1e57600080fd5b6000612a2c610fee8461241d565b9050612a388183610d95565b9050612a47610fee8483613270565b505050565b6000612a566132e4565b61ffff8416600090815260209190915260409081902054905163ad1c095d60e01b81526001600160a01b039091169150819063ad1c095d90612a9e9087908690600401614a66565b600060405180830381600087803b158015612ab857600080fd5b505af1158015612acc573d6000803e3d6000fd5b5050505050505050565b600080610c3460036110b5565b600080610c3460026110b5565b600080610c3460116110b5565b60006276a700821015612b0f57600080fd5b6276a70082610c52565b82600111158015612b2e575084602001518311155b612b4a5760405162461bcd60e51b81526004016101ff90614b6c565b6000612b67612b5885612c9c565b612b6184612afd565b90611f46565b9050612b8c866000015161ffff16828486612b818b6132f1565b8a9493929190613305565b505050505050565b600080612ba4846040015161332f565b8015612bb557506000846060015112155b612bbe57600080fd5b612be18360800151611225866060015186606001516119d690919063ffffffff16565b915061147f8360800151611225866060015186604001516119d690919063ffffffff16565b600080612c11613345565b6001600160a01b03861660009081526020918252604080822087835283528082208683529092522054600f90810b900b9150509392505050565b600084612c5a57506000610d8d565b6000612c668585611f58565b90506000612c7482856131a7565b9050633b9aca00811315612c8757600080fd5b612c9187826129a4565b979650505050505050565b60008160011415612cb157506276a700610421565b8160021415612cc4575062ed4e00610421565b8160031415612cd857506301da9c00610421565b8160041415612cec57506303b53800610421565b8160051415612d0057506309450c00610421565b8160061415612d14575063128a1800610421565b8160071415612d2857506325143000610421565b60405162461bcd60e51b81526004016101ff90614b19565b6000806000612d4e85610c3a565b905062015180840615612d68576000809250925050612e44565b838110612d7c576000809250925050612e44565b6201518081850304605a8111612d9957925060019150612e449050565b6101688111612dd8576000620151806207e900840604820160591901905060068104605a0160068281612dc857fe5b0660001494509450505050612e44565b6108708111612e085760006201518062278d00840604820161016719019050601e8104608701601e8281612dc857fe5b611de28111612e38576000620151806276a700840604820161086f19019050605a810460c301605a8281612dc857fe5b61010060009350935050505b9250929050565b600081612e5757600080fd5b600160801b8210612e6a57608091821c91015b600160401b8210612e7d57604091821c91015b6401000000008210612e9157602091821c91015b620100008210612ea357601091821c91015b6101008210612eb457600891821c91015b60108210612ec457600491821c91015b60048210612ed457600291821c91015b6002821061042157600101919050565b6000806000612ef886602001518686613352565b915091506000612f07876132f1565b905081612f27578651612f209061ffff168783886133d9565b9350612fc3565b6000612f3286612afd565b90506000612f49612f4286612c9c565b8390611f46565b90506000612f618a6000015161ffff1683868b6133d9565b90506000808760011415612f7f5750506040808b0151015188612fae565b612f95612f8e60018a03612c9c565b8690611f46565b9050612fab8c6000015161ffff1682888d6133d9565b91505b612fbb818584868f613478565b985050505050505b5050509392505050565b6000610c7a611f8484633b9aca0061166f565b612fe8614673565b6000612ff26134d6565b61ffff8416600090815260209190915260408120549150610c7a90826134e3565b60008083608001511161302557600080fd5b633b9aca0082111561303657600080fd5b82518211613055578251604084015161187b9190611f2f90859061166f565b8260200151821161308d57604083015183516020850151606086015161187b9392612b619281900391611f2f9188039085900361166f565b610c7a8360600151612b618560200151633b9aca0003611f2f87606001518860800151038860200151880361166f90919063ffffffff16565b6000806130e56064611f2f8760e001518761166f90919063ffffffff16565b90508460a001518110156130fa575060a08401515b8460c0015181111561310d575060c08401515b82156131245761311d8482611f46565b9150610e02565b83811161313357808403610eba565b506000949350505050565b6000610c7a61314d848461166f565b633b9aca00612908565b6000613164848484612ee4565b9050600061317185613602565b9050808211613184576000915050610c7a565b808203915060006131948661360f565b90508281101561299b5795945050505050565b6000806131c46131bf6301da9c00611f2f868861166f565b61361c565b90506131d681621dcd6560491b61363a565b90506131e96131e48261368d565b6136af565b90506131fb81621dcd6560491b613704565b905060006132088261373a565b60070b95945050505050565b6000613221848484612ee4565b905061323661322f85613743565b8290611f46565b9050600061324385613750565b905080821015610e0257949350505050565b606001516207a12060109190911c60ff1602633b9aca000390565b600081121561327e57600080fd5b6000613288611839565b6001600160a01b03851660009081526020828152604080832061ffff8816845290915290209091506132b98361375d565b8154600a9190910b6001600160581b0316600160a81b026001600160a81b0390911617905550505050565b600080610c3460216110b5565b6060015161012c60089190911c60ff160290565b60006276a70061331485612afd565b0190506133268787878787878761378f565b50505050505050565b600060028210801590610c345750506008101590565b600080610c34600c6110b5565b6000806000851161336257600080fd5b600785111561337057600080fd5b600061337b84612afd565b905060015b8681116133d357600061339c61339583612c9c565b8490611f46565b9050868114156133b457509250600091506109249050565b868111156133ca57509250600191506109249050565b50600101613380565b50600080fd5b6000806133e46137c6565b905060006276a7006133f585612afd565b6000898152602085815260408083208b84528252808320949093018083529390522080549192509063ffffffff600160a01b8204811691600160c01b8104821691600160e01b909104168161345c5760405162461bcd60e51b81526004016101ff90614ae9565b6134698184848c8c6137d3565b9b9a5050505050505050505050565b600081861061348657600080fd5b84821061349257600080fd5b8383106134b8576134b184612b61888803611f2f8388038b880361166f565b9050610eba565b6134b16134cf878703611f2f8688038a870361166f565b8590611f58565b600080610c34601b6110b5565b6134eb614673565b6064633b9aca008360ff86166020811061350157fe5b1a028161350a57fe5b0481526064633b9aca008360ff86166001016020811061352657fe5b1a028161352f57fe5b048160200181815250506135548260028560ff16016020811061354e57fe5b1a61384e565b60808201819052610100908360ff86166003016020811061357157fe5b1a028161357a57fe5b0460408201526080810151610100908360ff86166004016020811061359b57fe5b1a02816135a457fe5b0460608201526207a1208260ff8516600501602081106135c057fe5b1a0260a0820152622625a08260ff8516600601602081106135dd57fe5b1a0260c08201528160ff8416600701602081106135f657fe5b1a60e082015292915050565b6000610c34826020613882565b6000610c34826048613882565b6000677fffffffffffffff82111561363357600080fd5b5060401b90565b600081600f0b6000141561364d57600080fd5b600082600f0b604085600f0b901b8161366257fe5b05905060016001607f1b03198112801590613684575060016001607f1b038113155b610c7a57600080fd5b6000600f82900b60016001607f1b031914156136a857600080fd5b5060000390565b6000600160461b82600f0b126136c457600080fd5b683fffffffffffffffff1982600f0b12156136e157506000610421565b610c34608083600f0b700171547652b82fe1777d0ffda0d23a7d1202901d613895565b6000600f83810b9083900b0260401d60016001607f1b03198112801590613684575060016001607f1b03811315610c7a57600080fd5b600f0b60401d90565b6000610c34826028613882565b6000610c34826030613882565b60006a7fffffffffffffffffffff19821280159061378657506a7fffffffffffffffffffff8213155b6116ac57600080fd5b61379c8787878685614345565b6137b58760e001518860a001518960c0015185886137d3565b60c090970196909652505050505050565b600080610c34600a6110b5565b60008083116137e157600080fd5b818611156137f0575083610eba565b60006137fc8388611f58565b90508381111561380f5785915050610eba565b600061381b8286612fcd565b9050600061382d633b9aca0083611f58565b90506127d2633b9aca00611f2f6138448a8561166f565b612b618c8761166f565b60008160ff166096106138695760ff8216622625a002610c34565b5060951960ff919091160162e4e1c00263165a0bc00190565b60609091015160ff911c16622625a00290565b6000600160461b82600f0b126138aa57600080fd5b683fffffffffffffffff1982600f0b12156138c757506000610421565b6001607f1b60006780000000000000008416600f0b13156138f95770016a09e667f3bcc908b2fb1366ea957d3e0260801c5b60008367400000000000000016600f0b1315613926577001306fe0a31b7152de8d5a46305c85edec0260801c5b60008367200000000000000016600f0b1315613953577001172b83c7d517adcdf7c8c50eb14a791f0260801c5b60008367100000000000000016600f0b13156139805770010b5586cf9890f6298b92b71842a983630260801c5b60008367080000000000000016600f0b13156139ad577001059b0d31585743ae7c548eb68ca417fd0260801c5b60008367040000000000000016600f0b13156139da57700102c9a3e778060ee6f7caca4f7a29bde80260801c5b60008367020000000000000016600f0b1315613a075770010163da9fb33356d84a66ae336dcdfa3f0260801c5b600083600160381b16600f0b1315613a3057700100b1afa5abcbed6129ab13ec11dc95430260801c5b600083668000000000000016600f0b1315613a5c5770010058c86da1c09ea1ff19d294cf2f679b0260801c5b600083664000000000000016600f0b1315613a88577001002c605e2e8cec506d21bfc89a23a00f0260801c5b600083662000000000000016600f0b1315613ab457700100162f3904051fa128bca9c55c31e5df0260801c5b600083661000000000000016600f0b1315613ae0577001000b175effdc76ba38e31671ca9397250260801c5b600083660800000000000016600f0b1315613b0c57700100058ba01fb9f96d6cacd4b180917c3d0260801c5b600083660400000000000016600f0b1315613b385770010002c5cc37da9491d0985c348c68e7b30260801c5b600083660200000000000016600f0b1315613b64577001000162e525ee054754457d59952920260260801c5b600083600160301b16600f0b1315613b8d5770010000b17255775c040618bf4a4ade83fc0260801c5b6000836580000000000016600f0b1315613bb8577001000058b91b5bc9ae2eed81e9b7d4cfab0260801c5b6000836540000000000016600f0b1315613be357700100002c5c89d5ec6ca4d7c8acc017b7c90260801c5b6000836520000000000016600f0b1315613c0e5770010000162e43f4f831060e02d839a9d16d0260801c5b6000836510000000000016600f0b1315613c3957700100000b1721bcfc99d9f890ea069117630260801c5b6000836508000000000016600f0b1315613c645770010000058b90cf1e6d97f9ca14dbcc16280260801c5b6000836504000000000016600f0b1315613c8f577001000002c5c863b73f016468f6bac5ca2b0260801c5b6000836502000000000016600f0b1315613cba57700100000162e430e5a18f6119e3c02282a50260801c5b600083600160281b16600f0b1315613ce3577001000000b1721835514b86e6d96efd1bfe0260801c5b60008364800000000016600f0b1315613d0d57700100000058b90c0b48c6be5df846c5b2ef0260801c5b60008364400000000016600f0b1315613d375770010000002c5c8601cc6b9e94213c72737a0260801c5b60008364200000000016600f0b1315613d61577001000000162e42fff037df38aa2b219f060260801c5b60008364100000000016600f0b1315613d8b5770010000000b17217fba9c739aa5819f44f90260801c5b60008364080000000016600f0b1315613db5577001000000058b90bfcdee5acd3c1cedc8230260801c5b60008364040000000016600f0b1315613ddf57700100000002c5c85fe31f35a6a30da1be500260801c5b60008364020000000016600f0b1315613e095770010000000162e42ff0999ce3541b9fffcf0260801c5b60008364010000000016600f0b1315613e3357700100000000b17217f80f4ef5aadda455540260801c5b600083638000000016600f0b1315613e5c5770010000000058b90bfbf8479bd5a81b51ad0260801c5b600083634000000016600f0b1315613e85577001000000002c5c85fdf84bd62ae30a74cc0260801c5b600083632000000016600f0b1315613eae57700100000000162e42fefb2fed257559bdaa0260801c5b600083631000000016600f0b1315613ed7577001000000000b17217f7d5a7716bba4a9ae0260801c5b600083630800000016600f0b1315613f0057700100000000058b90bfbe9ddbac5e109cce0260801c5b600083630400000016600f0b1315613f295770010000000002c5c85fdf4b15de6f17eb0d0260801c5b600083630200000016600f0b1315613f52577001000000000162e42fefa494f1478fde050260801c5b600083630100000016600f0b1315613f7b5770010000000000b17217f7d20cf927c8e94c0260801c5b6000836280000016600f0b1315613fa3577001000000000058b90bfbe8f71cb4e4b33d0260801c5b6000836240000016600f0b1315613fcb57700100000000002c5c85fdf477b662b269450260801c5b6000836220000016600f0b1315613ff35770010000000000162e42fefa3ae53369388c0260801c5b6000836210000016600f0b131561401b57700100000000000b17217f7d1d351a389d400260801c5b6000836208000016600f0b13156140435770010000000000058b90bfbe8e8b2d3d4ede0260801c5b6000836204000016600f0b131561406b577001000000000002c5c85fdf4741bea6e77e0260801c5b6000836202000016600f0b131561409357700100000000000162e42fefa39fe95583c20260801c5b6000836201000016600f0b13156140bb577001000000000000b17217f7d1cfb72b45e10260801c5b60008361800016600f0b13156140e257700100000000000058b90bfbe8e7cc35c3f00260801c5b60008361400016600f0b13156141095770010000000000002c5c85fdf473e242ea380260801c5b60008361200016600f0b1315614130577001000000000000162e42fefa39f02b772c0260801c5b60008361100016600f0b13156141575770010000000000000b17217f7d1cf7d83c1a0260801c5b60008361080016600f0b131561417e577001000000000000058b90bfbe8e7bdcbe2e0260801c5b60008361040016600f0b13156141a557700100000000000002c5c85fdf473dea871f0260801c5b60008361020016600f0b13156141cc5770010000000000000162e42fefa39ef44d910260801c5b60008361010016600f0b13156141f357700100000000000000b17217f7d1cf79e9490260801c5b600083608016600f0b13156142195770010000000000000058b90bfbe8e7bce5440260801c5b600083604016600f0b131561423f577001000000000000002c5c85fdf473de6eca0260801c5b600083602016600f0b131561426557700100000000000000162e42fefa39ef366f0260801c5b600083601016600f0b131561428b577001000000000000000b17217f7d1cf79afa0260801c5b600083600816600f0b13156142b157700100000000000000058b90bfbe8e7bcd6d0260801c5b600083600416600f0b13156142d75770010000000000000002c5c85fdf473de6b20260801c5b600083600216600f0b13156142fd577001000000000000000162e42fefa39ef3580260801c5b600083600116600f0b13156143235770010000000000000000b17217f7d1cf79ab0260801c5b600f83810b60401d603f03900b1c60016001607f1b03811115610c3457600080fd5b600061434f6137c6565b6000868152602082815260408083208884528252808320868452825291829020808a5290890187905280546001600160501b03808216938b0193909352600160501b810490921660608a015263ffffffff600160a01b8304811660a08b0152600160c01b8304811660c08b0152600160e01b90920490911660e08901529091508084156143ee5760018201546001600160501b03166080890152612acc565b600060808901525050505050505050565b6040805160c081018252600080825260208201819052918101829052606081018290526080810182905260a081019190915290565b60405180610160016040528060006001600160a01b031681526020016000815260200160008152602001600081526020016000815260200160006001600160d01b0319168152602001614485614528565b8152602001614492614528565b815260200161449f614557565b81526020016144ac614509565b8152600060209091015290565b6040518060e0016040528060008152602001600015158152602001600081526020016144e3614509565b8152602001606081526020016144f7614557565b81526020016145046146b8565b905290565b60408051608081018252600080825260208201529081016144ac614557565b6040518060a0016040528060008152602001600081526020016000815260200160008152602001600081525090565b60405180606001604052806000815260200160008152602001600081525090565b6040518061012001604052806000815260200160008152602001600081526020016000815260200160008152602001600081526020016000815260200160008152602001600081525090565b6040518060c00160405280600061ffff168152602001600081526020016000815260200160008152602001600081526020016000600381111561450457fe5b6040518060800160405280606081526020016060815260200160008152602001600081525090565b60405180610100016040528060008019168152602001600081526020016000815260200160008152602001600081526020016000815260200160008152602001600081525090565b60405180610100016040528060008152602001600081526020016000815260200160008152602001600081526020016000815260200160008152602001600081525090565b6040518060e001604052806146cb614509565b81526020016146d8614603565b815260006020820181905260408201819052606082018190526080820181905260a09091015290565b80356001600160a01b038116811461042157600080fd5b8051801515811461042157600080fd5b80516001600160701b03198116811461042157600080fd5b80516001600160f81b03198116811461042157600080fd5b805161ffff8116811461042157600080fd5b80516001600160501b038116811461042157600080fd5b805160ff8116811461042157600080fd5b6000602082840312156147a3578081fd5b610c7a82614701565b6000806000606084860312156147c0578182fd5b6147c984614701565b95602085013595506040909401359392505050565b600060c082840312156147ef578081fd5b60405160c0810181811067ffffffffffffffff8211171561480c57fe5b604052825164ffffffffff81168114614823578283fd5b815261483160208401614740565b602082015261484260408401614781565b604082015261485360608401614758565b606082015261486460808401614728565b608082015261487560a08401614718565b60a08201529392505050565b60008060408385031215614893578182fd5b505080516020909101519092909150565b600080600080600060a086880312156148bb578081fd5b6148c48661476a565b94506020860151935060408601519250606086015191506148e76080870161476a565b90509295509295909350565b6001600160a01b03169052565b6000815180845260208085019450808401835b83811015614971578151805161ffff168852838101518489015260408082015190890152606080820151908901526080808201519089015260a090810151906004821061495c57fe5b88015260c09096019590820190600101614913565b509495945050505050565b15159052565b6001600160d01b0319169052565b805164ffffffffff1682526020808201516001600160f81b0319169083015260408082015160ff169083015260608082015161ffff16908301526080808201516001600160701b0319169083015260a0908101511515910152565b61ffff8151168252602081015160208301526040810151614a0f6040840182614a4d565b506060015160a09190910152565b80518252602081015160208301526040810151604083015260608101516060830152608081015160808301525050565b8051825260208082015190830152604090810151910152565b6001600160a01b03929092168252602082015260400190565b6001600160a01b038316815260e08101610c7a6020830184614990565b60006040820184835260206040818501528185518084526060860191508287019350845b81811015614adc57845183529383019391830191600101614ac0565b5090979650505050505050565b60208082526016908201527513585c9ad95d081b9bdd081a5b9a5d1a585b1a5e995960521b604082015260600190565b6020808252600d908201526c092dcecc2d8d2c840d2dcc8caf609b1b604082015260600190565b602080825260129082015271105cdcd95d1cc81b9bdd081cd95d1d1b195960721b604082015260600190565b6020808252600e908201526d125b9d985b1a59081b585c9ad95d60921b604082015260600190565b60208082526016908201527514d95c5d595b98d95c8811dc9858d94814195c9a5bd960521b604082015260600190565b6020808252600e908201526d29b2b8bab2b731b2b9102237bbb760911b604082015260600190565b60208082526015908201527414dd59999a58da595b9d0818dbdb1b185d195c985b605a1b604082015260600190565b6020808252601c908201527f496e73756666696369656e74206672656520636f6c6c61746572616c00000000604082015260600190565b6000610420614c618387614990565b614c6f60c0840186516148f3565b602085015160e08401526040850151610100818186015260608701519150610120828187015260808801519250610140838188015260a08901519350614cb9610160880185614982565b60c08901519350614cce610180880185614a1d565b60e08901519350614ce3610220880185614a1d565b828901519350614cf76102c0880185614a4d565b818901519350614d0b6103208801856149eb565b8801519250614d219150506103e085018261497c565b50806104008401526119cc81840185614900565b928352602083019190915260408201526060019056fea26469706673582212204136f4835c185808c0b3b8a3be2d0226d5b0470d97b4988012ae7d59168e92fa64736f6c63430007060033","bytecodeSha1":"850cbabf01f0bf20a27035206a61e435f63c3020","compiler":{"evm_version":"istanbul","optimizer":{"enabled":true,"runs":200},"version":"0.7.6+commit.7338295f"},"contractName":"FreeCollateralExternal","deployedBytecode":"730000000000000000000000000000000000000000301460806040526004361061004b5760003560e01c8063451d958f146100505780636cb65eaf146100885780636ccc642f146100a9575b600080fd5b81801561005c57600080fd5b5061007061006b3660046147ac565b6100cb565b60405161007f93929190614c52565b60405180910390f35b61009b610096366004614792565b6101c8565b60405161007f929190614a9c565b8180156100b557600080fd5b506100c96100c4366004614792565b61021d565b005b6100d36143ff565b6100db614434565b60606100e56102a1565b6100ee86610377565b92506100f983610426565b1561018a576040516337b5fc2160e11b815273__$f6541b0d362a0c7d99a2a29cd3d373d61b$__90636f6bf842906101379089908790600401614a7f565b60c06040518083038186803b15801561014f57600080fd5b505af4158015610163573d6000803e3d6000fd5b505050506040513d601f19601f8201168201806040525081019061018791906147de565b92505b6101938361047a565b156101ac57826060015161ffff1685146101ac57600080fd5b6101b98684428888610487565b93979096509294509192505050565b6000606060006101d784610377565b90506101e281610426565b156102085760405162461bcd60e51b81526004016101ff90614b40565b60405180910390fd5b6102138482426106e6565b9250925050915091565b6102256102a1565b600061023082610377565b905061023b81610426565b156102585760405162461bcd60e51b81526004016101ff90614b40565b60008061026684844261092c565b91509150801561027a5761027a8385610b0a565b600082121561029b5760405162461bcd60e51b81526004016101ff90614c1b565b50505050565b60008073fdb631f5ee196f0ed6faa767959853a9f217697d6001600160a01b031663feaf968c6040518163ffffffff1660e01b815260040160a06040518083038186803b1580156102f157600080fd5b505afa158015610305573d6000803e3d6000fd5b505050506040513d601f19601f8201168201806040525081019061032991906148a4565b50509250925050816000146103505760405162461bcd60e51b81526004016101ff90614bc4565b804203610e10106103735760405162461bcd60e51b81526004016101ff90614b94565b5050565b61037f6143ff565b6000610389610c27565b6001600160a01b03841660009081526020918252604090819020815160c081018352905464ffffffffff811682526001600160f81b0319600160281b820460f81b169382019390935260ff600160301b840481169282019290925261ffff600160381b84041660608201526001600160701b0319600160481b840460701b166080820152600160d81b90920416151560a08201529150505b919050565b6000426104328361047a565b156104535761044081610c3a565b835164ffffffffff161091506104219050565b825164ffffffffff16158015906104725750825164ffffffffff168110155b915050610421565b6060015161ffff16151590565b61048f614434565b60606104996144b9565b6104a1614434565b6001600160a01b03891681526104b68861047a565b1561058f576104c88860600151610c5b565b6060830152600080806104dd8c8b8d88610c81565b92509250925060006104f18d8c8e89610cdc565b90506000610509826105038787610d95565b90610d95565b90508660600151604001518760a0018190525060006105318e6060015161ffff16838a610dab565b90508b8e6060015161ffff161415610584576040870182905260c0870181905260a08801516101008801528a610584576060880151610120880152608087018590526001600160d01b0319841660a08801525b5050505050506105a3565b61059d898960400151610df6565b60808301525b60808801515b6001600160701b0319811615610687576060890151819060009060f083901c613fff169061ffff168114156105dd57600080fd5b89811480156105ea575088155b806105f457508881145b9150506000610606868685858f610e0a565b905060f083901c613fff16600061061e82848a610dab565b90508a82141561064a5760a0880151610120880151604001526060870183905260e0870181905261066c565b8b82141561066c576040870183905260c0870181905260a08801516101008801525b6010866001600160701b031916901b955050505050506105a9565b8251602083018190526000136106af5760405162461bcd60e51b81526004016101ff90614bec565b604089015160ff16156106d0576106ca8a8a60400151610df6565b60808401525b5060809091015190925090509550959350505050565b600060606106f26144b9565b60408051600a808252610160820190925260009182919060208201610140803683370190505090506107238761047a565b156107cb576107358760600151610ec3565b60608401526000806107498a898b88610c81565b5091509150600061075c8b8a8c89610cdc565b905061076c816105038585610d95565b84868151811061077857fe5b6020026020010181815250508560600151604001518660a001819052506107bb8a6060015161ffff168587815181106107ad57fe5b602002602001015188610dab565b5050600190930192506107df9050565b6107d9888860400151610df6565b60808401525b60808701515b6001600160701b031981161561091a576060880151819060f082901c613fff169061ffff1681141561081657600080fd5b6000610822828b610ee4565b5060a08801819052610837908d908590610fa2565b86888151811061084357fe5b6020026020010181935082815250505061085c83610fe7565b806108675750600081135b156108d25761087582610ec3565b606088015260008061088889848e610ff3565b50915091506108b781610503848a8c815181106108a157fe5b6020026020010151610d9590919063ffffffff16565b8789815181106108c357fe5b60200260200101818152505050505b6108f48261ffff168688815181106108e657fe5b602002602001015189610dab565b505050600193909301925060101b6fffffffffffffffffffffffffffffffff19166107e5565b5091519350909150505b935093915050565b6000806109376144b9565b60006109428661047a565b156109c9576109548660600151610c5b565b606083015260008061096889888a87610c81565b5091509150600082121561097b57600192505b60006109898a898b88610cdc565b9050600061099b826105038686610d95565b6060808801516040015160a08901528b01519091506109bf9061ffff168288610dab565b50505050506109dd565b6109d7878760400151610df6565b60808301525b60808601515b6001600160701b0319811615610ac1576060870151819060f082901c613fff169061ffff16811415610a1457600080fd5b610a1d816110a3565b8560a00181905250600080610a378c858960a00151610fa2565b915091506000821215610a4957600195505b610a5284610fe7565b80610a5d5750600081135b15610a9757610a6b83610c5b565b6060880152600080610a7e89848e610ff3565b509092509050610a92816105038685610d95565b935050505b610aa68361ffff168389610dab565b506010856001600160701b031916901b9450505050506109e3565b6020870151600160f91b908116148015610ad9575081155b15610af4576020808801805160fd60f81b1690526001908401525b5050805160209091015190969095509350505050565b6000610b14610c27565b6001600160a01b03831660008181526020838152604080832088518154938a01518a84015160608c015160808d015160a08e015164ffffffffff1990981664ffffffffff9095169490941765ff00000000001916600160281b60f89490941c939093029290921766ff0000000000001916600160301b60ff909216919091021768ffff000000000000001916600160381b61ffff90921691909102177affffffffffffffffffffffffffffffffffff0000000000000000001916600160481b60709290921c919091021760ff60d81b1916600160d81b93151593909302929092179091555192935090917f6bd4b121bca854a191536a2ca891155c42ee2fb23f307fb34e8bc65cfcb5412e9190a2505050565b600080610c3460016110b5565b92915050565b600062015180821015610c4c57600080fd5b62015180825b06909103919050565b610c63614509565b6000610c6e836110a3565b9050610c7a83826110ce565b9392505050565b600080600080610c9e888760600151876060015160400151611111565b509195509150506000811315610ccc57610cc285606001518660c00151838a6111cb565b9093509150610cd1565b600092505b509450945094915050565b6000806000610d0787866060015161ffff16876000015164ffffffffff16898860600151600161123f565b60208701519193509150600160f81b90811614818015610d25575080155b15610d4e5760208681018051600160f81b176001600160f81b0319169052600190860152610d74565b81158015610d595750805b15610d745760208087018051607f60f91b1690526001908601525b606085015160400151610d87908461126f565b93505050505b949350505050565b81810182811215600083121514610c3457600080fd5b610db3614528565b6000610dbe85611291565b9050610dec610de4610ddd868660a001516113f490919063ffffffff16565b8390611420565b845190610d95565b9092525092915050565b6060610e028383611467565b509392505050565b600060f084901c613fff16610e1e816110a3565b60a0880181905286516000918291610e37918990610fa2565b91509150610e4487610fe7565b80610e4f5750600081135b15610eb557610e5d83610c5b565b60608a015260008080610e718c858a610ff3565b91945092509050610e86826105038786610d95565b94508815610eb15760608c01516101208c01526001600160d01b0319811660a08c015260808b018290525b5050505b509150505b95945050505050565b610ecb614509565b6000610ed78342610ee4565b509050610c7a83826110ce565b610eec614557565b610ef4614578565b610efd84611488565b90508281600001511015610f2e576000610f1685611550565b9050610f24858383876115cb565b509150610f3b9050565b80518314610f3b57600080fd5b6040518060600160405280610f69610f648460a001518560c0015161166f90919063ffffffff16565b611696565b8152602001610f8c610f648460a001518560e0015161166f90919063ffffffff16565b8152602001826060015181525091509250929050565b600080600160fe1b8481161415610fda5760f084901c613fff16600080610fca888488611111565b5091965094506109249350505050565b5060009485945092505050565b600160ff1b9081161490565b6000806000856080015151866040015110801561103e575085606001516000015161ffff16866080015187604001518151811061102c57fe5b60200260200101516000015161ffff16145b156110675761105b866080015187606001518689604001516116b0565b6040880152925061106c565b600092505b60008513156110935761108986606001518760c0015187876111cb565b909250905061109a565b5060009050805b93509350939050565b6110ab614557565b610c34824261175b565b6000620f42408260268111156110c757fe5b0192915050565b6110d6614509565b60006110e58461ffff1661181c565b6040805160808101825261ffff96909616865260ff821660208701528501939093525050606082015290565b6000806000806000611121611839565b6001600160a01b03891660009081526020828152604080832061ffff8c168452909152902080546001600160501b0381169650600160501b900463ffffffff169450909150831561118e57805461118790600160701b900466ffffffffffffff16611846565b92506111a3565b8054600160701b900466ffffffffffffff1692505b80546111be908890600160a81b9004600a90810b900b611854565b9550505093509350935093565b835160009081906111dd908690611882565b85855260006111ec868561191e565b9050600061122b876040015161122560646112258b60a00151600360ff166006811061121457fe5b1a61121f8c896119d6565b906119d6565b90611a24565b60a097909701519698969750505050505050565b600080600061124e8989611a55565b905061125f89898989898987611a8a565b9250925050965096945050505050565b8151600090610c7a90611225846ec097ce7bc90715b34b9f10000000006119d6565b611299614528565b60006112a3611b08565b60008481526020829052604081209192508060018614156112d05750670de0b6b3a7640000905080611393565b825460408051633fabe5a360e21b815290516001600160a01b039092169163feaf968c9160048082019260a092909190829003018186803b15801561131457600080fd5b505afa158015611328573d6000803e3d6000fd5b505050506040513d601f19601f8201168201806040525081019061134c91906148a4565b5091935050600083139150611362905057600080fd5b825460ff600160a01b82048116600a0a9350600160a81b9091041615611393576113908161122584806119d6565b90505b8254600160b01b900460ff1660968113156113b35760951901600a026096015b6040805160a081018252938452602084019290925290820152905460ff600160b81b820481166060840152600160c01b909104166080820152915050919050565b6000610c7a6ec097ce7bc90715b34b9f10000000006112258560000151856119d690919063ffffffff16565b6000806000831361143557836040015161143b565b83606001515b90506000610eba856000015161122560646112258661121f8b602001518b6119d690919063ffffffff16565b6060806114748484611b15565b915061147f82611c37565b90509250929050565b611490614578565b600061149a611df8565b61ffff93841660009081526020918252604090819020805464ffffffffff81168652600160281b81046001600160581b03908116948701949094526001820154841692860192909252600160d81b820463ffffffff166060860152600160801b9091049091166080840152600201546001600160501b0380821660a0850152600160501b8204811660c0850152600160a01b82041660e0840152600160f01b900460ff1661012c02909216610100820152919050565b60008061155c83611e05565b6001600160a01b031663a77c05b86040518163ffffffff1660e01b8152600401604080518083038186803b15801561159357600080fd5b505afa1580156115a7573d6000803e3d6000fd5b505050506040513d601f19601f82011682018060405250810190610d8d9190614881565b6115d3614578565b60008060006115e3888689611e35565b60c08b019290925260e08a0192909252602089015191935091506116079083611f46565b60208801526080870151600090156116355760808801516116329061162c8982611f58565b90611f6d565b90505b61165561164a670de0b6b3a764000083611f46565b60a08a015190611f8a565b60a089015250506080860194909452505082529092909150565b60008261167e57506000610c34565b8282028284828161168b57fe5b0414610c7a57600080fd5b60006001600160ff1b038211156116ac57600080fd5b5090565b6000808080845b88518110156117335760008982815181106116ce57fe5b60200260200101519050600160ff168160400151146116ed575061172b565b8851815161ffff9081169116146117045750611733565b600061171a8a836060015184602001518c611fa7565b90506117268482610d95565b935050505b6001016116b7565b604088015161174d90611746908461126f565b8490610d95565b999098509650505050505050565b611763614557565b600061176e84611488565b905082816000015110156117ad5760008061178886611ff7565b9050611796868483886115cb565b90935091506117a6868385612050565b50506117ba565b805183146117ba57600080fd5b60405180606001604052806117e3610f648460a001518560c0015161166f90919063ffffffff16565b8152602001611806610f648460a001518560e0015161166f90919063ffffffff16565b8152602001826060015181525091505092915050565b600080611827612284565b60009384526020525050604090205490565b600080610c3460066110b5565b600881901c60ff9091161b90565b6000808212611864575080610c34565b8251602084015161187b91906112259085906119d6565b9050610c34565b61188f8161ffff16612291565b6001600160a01b031660c08301819052600090819081906118af906122b7565b945094509450505060006118c68660c00151612320565b505060808701859052604087018190526001600160d81b0319831660a088015260c08701519091506118fa9084600061238a565b602087015260c086015161190e908661241d565b6060909601959095525050505050565b60008061192a84612476565b905082811161193a576001810392505b50600061194784846124a0565b50905060006119758560c0015186600001516000015161ffff168760800151878960000151602001516125ee565b9050600081156119a75760c08601518651805160808901516119a3939261ffff909216918990600088611a8a565b5090505b60608601518651604001516119cc9190610503906119c5908561126f565b8690610d95565b9695505050505050565b818102600019831415611a06578115806119f85750828282816119f557fe5b05145b611a0157600080fd5b610c34565b821580611a1b575081838281611a1857fe5b05145b610c3457600080fd5b600081600019148015611a3a5750600160ff1b83145b15611a4457600080fd5b818381611a4d57fe5b059392505050565b600080611a6061269a565b6001600160a01b038516600090815260209182526040808220868352909252205491505092915050565b6000806000611a98846126a7565b90505b8015611afb576000611aad89836126cc565b90506000611abf8c8c848c8c8c61277f565b9050611acb8582610d95565b94506000811215611adb57600193505b611ae7868460006127df565b9550611af2866126a7565b92505050611a9b565b5097509795505050505050565b600080610c3460106110b5565b606060088260ff161115611b2857600080fd5b6000611b3261282a565b6001600160a01b038516600090815260208290526040812091925060ff851667ffffffffffffffff81118015611b6757600080fd5b50604051908082528060200260200182016040528015611ba157816020015b611b8e6145c4565b815260200190600190039081611b865790505b50905060005b8560ff16811015611c2d576000838260088110611bc057fe5b0190506000838381518110611bd157fe5b602090810291909101810151835461ffff8116825264ffffffffff620100008204169282019290925260ff600160381b8304166040820152600160401b909104600a90810b900b60608201526080019190915250600101611ba7565b5095945050505050565b80516060908067ffffffffffffffff81118015611c5357600080fd5b50604051908082528060200260200182016040528015611c7d578160200160208202803683370190505b50915060005b81811015611cda576000848281518110611c9957fe5b60200260200101519050611cba816000015182602001518360400151612837565b848381518110611cc657fe5b602090810291909101015250600101611c83565b5060015b81811015611df157805b600081118015611d205750838181518110611cff57fe5b6020026020010151846001830381518110611d1657fe5b6020026020010151115b15611de857838181518110611d3157fe5b6020026020010151846001830381518110611d4857fe5b6020026020010151856001840381518110611d5f57fe5b60200260200101868481518110611d7257fe5b6020026020010182815250828152505050848181518110611d8f57fe5b6020026020010151856001830381518110611da657fe5b6020026020010151866001840381518110611dbd57fe5b60200260200101878481518110611dd057fe5b60209081029190910101919091525260001901611ce8565b50600101611cde565b5050919050565b600080610c34601d6110b5565b600080611e10612860565b61ffff939093166000908152602093909352505060409020546001600160a01b031690565b600080600080600080611e48898861286d565b89519095509193509150600090611e6f90611e64908b90611f58565b633b9aca009061166f565b9050611ea9611e9e6301da9c00611e86858561166f565b81611e8d57fe5b670de0b6b3a7640000919004611f46565b60e08a015190611f8a565b9650611ecb611ec06301da9c00611e86878561166f565b60c08a015190611f8a565b955081831415611ee2575060009350611f3d915050565b6000611f04611ef96301da9c00611e86878661166f565b60e08b015190611f8a565b90506000611f128983611f58565b9050611f3588611f2f838d6040015161166f90919063ffffffff16565b90612908565b965050505050505b93509350935093565b600082820183811015610c7a57600080fd5b600082821115611f6757600080fd5b50900390565b6000610c7a611f8484670de0b6b3a764000061166f565b83612908565b6000610c7a611f99848461166f565b670de0b6b3a7640000612908565b600083611fb657506000610d8d565b6000808513611fcf57611fca868585612927565b611fda565b611fda868585612963565b9050633b9aca00811315611fed57600080fd5b6119cc85826129a4565b60008061200383611e05565b6001600160a01b031663ef81f2166040518163ffffffff1660e01b81526004016040805180830381600087803b15801561203c57600080fd5b505af11580156115a7573d6000803e3d6000fd5b600061205a611df8565b60008561ffff168152602001908152602001600020905061207e82600001516129bd565b815464ffffffffff191664ffffffffff9190911617815560a08201516120a3906129d1565b60028201805469ffffffffffffffffffff19166001600160501b039290921691909117905560c08201516120d6906129d1565b81600201600a6101000a8154816001600160501b0302191690836001600160501b0316021790555061210b8260e001516129d1565b8160020160146101000a8154816001600160501b0302191690836001600160501b0316021790555061214082602001516129e7565b81546001600160581b0391909116600160281b026fffffffffffffffffffffff000000000019909116178155604082015161217a906129e7565b6001820180546affffffffffffffffffffff19166001600160581b039290921691909117905560808201516121ae906129e7565b81546001600160581b0391909116600160801b026affffffffffffffffffffff60801b1990911617815560608201516121e6906129fd565b815463ffffffff91909116600160d81b0263ffffffff60d81b19909116178155821561223257600061221784611696565b90506122238582612a10565b612230610fee8683612a4c565b505b8361ffff167fef25641e225e493886510ca1ad6584fa7b442b9fea820a29d1de3ce27d270fd28360a001518460c001518560e0015160405161227693929190614d35565b60405180910390a250505050565b600080610c3460096110b5565b60008061229c612ad6565b6000938452602052505060409020546001600160a01b031690565b6000806000806000806122c8612ae3565b6001600160a01b039097166000908152602097909752505060409094205461ffff81169563ffffffff62010000830481169650600160301b830416945060ff600160501b8304169350600160581b90910460d81b9150565b60008060008061232e612af0565b6001600160a01b0395909516600090815260209590955250506040909220546bffffffffffffffffffffffff811693600160601b82046fffffffffffffffffffffffffffffffff169350600160e01b90910463ffffffff169150565b612392614603565b61239a614603565b60ff84166123a9579050610c7a565b6123b38585610df6565b815260ff841660608201528267ffffffffffffffff811180156123d557600080fd5b5060405190808252806020026020018201604052801561240f57816020015b6123fc6145c4565b8152602001906001900390816123f45790505b506020820152949350505050565b600080612428611839565b6001600160a01b03851660009081526020828152604080832061ffff8816845290915281208054600160a81b9004600a90810b900b945091925083121561246e57600080fd5b505092915050565b600081608001516000141561248d57506000610421565b60808201516276a700906110c790612afd565b602082015151516000906060908067ffffffffffffffff811180156124c457600080fd5b506040519080825280602002602001820160405280156124ee578160200160208202803683370190505b5091506124f961462b565b60005b828110156125e457865161251790836001808501908a612b19565b6000876020015160000151828151811061252d57fe5b6020026020010151905060008160200151905060008061254d8487612b94565b9150915061257661256f8c60c001518d600001516000015161ffff1686612c06565b8290610d95565b88868151811061258257fe5b60200260200101818152505060006125c56117466125b98b89815181106125a557fe5b6020026020010151878f8c60c00151612c4b565b8e51604001519061126f565b90506125d18a82610d95565b995050600190940193506124fc92505050565b5050509250929050565b60006002821161260057506000610eba565b600061260c8787611a55565b90508061261a579050610eba565b600061262585612afd565b90508581141561264f57507440008000000200200000000200000020000000002019169050610eba565b60015b84811161268f57600061266482612c9c565b8301905060006126748983612d40565b509050612683858260006127df565b94505050600101612652565b508192505050610eba565b600080610c34600b6110b5565b6000816126b657506000610421565b6126bf82612e4b565b60ff036001019050919050565b6000816126d857600080fd5b6101008211156126e757600080fd5b60006126f284610c3a565b90506000605a841161270d5750620151808302019050610c34565b60878411612735575060591983016207e900908102908206909103016276a700019050610c34565b60c3841161275e5750608619830162278d00908102908206909103016301da9c00019050610c34565b5060c21983016276a70090810290820690910301630b1fa800019050610c34565b60008061278d888888612c06565b905084861161279d5790506119cc565b82156127b7576127af84828888611fa7565b9150506119cc565b60006127c4858888612ee4565b90506127d282888884612c4b565b9998505050505050505050565b6000600183101580156127f457506101008311155b6127fd57600080fd5b81156128165750600160ff1b60001983011c8317610c7a565b50600160ff1b60001983011c198316610c7a565b600080610c34600d6110b5565b67ffff000000000000603084901b1665ffffffffff00600884901b161760ff8216179392505050565b600080610c34601f6110b5565b6000806000806000856020015111156128ba576128b761289e8660c00151876020015161166f90919063ffffffff16565b60e087015160408801516128b19161166f565b90612fcd565b90505b60006128c587612fe0565b90506128d18183613013565b945081156128e8576128e5818660016130c6565b93505b6020860151156128ff576128fc858361313e565b92505b50509250925092565b600080821161291657600080fd5b81838161291f57fe5b049392505050565b600080612935858585613157565b905080156129555761295061294a8585611f58565b826131a7565b610eba565b633b9aca0095945050505050565b600080612971858585613214565b905061298061294a8585611f58565b9150600061298d86613255565b90508281121561299b578092505b50509392505050565b6000610c7a6129b384846119d6565b633b9aca00611a24565b600064ffffffffff8211156116ac57600080fd5b60006001600160501b038211156116ac57600080fd5b60006001600160581b038211156116ac57600080fd5b600063ffffffff8211156116ac57600080fd5b6000811215612a1e57600080fd5b6000612a2c610fee8461241d565b9050612a388183610d95565b9050612a47610fee8483613270565b505050565b6000612a566132e4565b61ffff8416600090815260209190915260409081902054905163ad1c095d60e01b81526001600160a01b039091169150819063ad1c095d90612a9e9087908690600401614a66565b600060405180830381600087803b158015612ab857600080fd5b505af1158015612acc573d6000803e3d6000fd5b5050505050505050565b600080610c3460036110b5565b600080610c3460026110b5565b600080610c3460116110b5565b60006276a700821015612b0f57600080fd5b6276a70082610c52565b82600111158015612b2e575084602001518311155b612b4a5760405162461bcd60e51b81526004016101ff90614b6c565b6000612b67612b5885612c9c565b612b6184612afd565b90611f46565b9050612b8c866000015161ffff16828486612b818b6132f1565b8a9493929190613305565b505050505050565b600080612ba4846040015161332f565b8015612bb557506000846060015112155b612bbe57600080fd5b612be18360800151611225866060015186606001516119d690919063ffffffff16565b915061147f8360800151611225866060015186604001516119d690919063ffffffff16565b600080612c11613345565b6001600160a01b03861660009081526020918252604080822087835283528082208683529092522054600f90810b900b9150509392505050565b600084612c5a57506000610d8d565b6000612c668585611f58565b90506000612c7482856131a7565b9050633b9aca00811315612c8757600080fd5b612c9187826129a4565b979650505050505050565b60008160011415612cb157506276a700610421565b8160021415612cc4575062ed4e00610421565b8160031415612cd857506301da9c00610421565b8160041415612cec57506303b53800610421565b8160051415612d0057506309450c00610421565b8160061415612d14575063128a1800610421565b8160071415612d2857506325143000610421565b60405162461bcd60e51b81526004016101ff90614b19565b6000806000612d4e85610c3a565b905062015180840615612d68576000809250925050612e44565b838110612d7c576000809250925050612e44565b6201518081850304605a8111612d9957925060019150612e449050565b6101688111612dd8576000620151806207e900840604820160591901905060068104605a0160068281612dc857fe5b0660001494509450505050612e44565b6108708111612e085760006201518062278d00840604820161016719019050601e8104608701601e8281612dc857fe5b611de28111612e38576000620151806276a700840604820161086f19019050605a810460c301605a8281612dc857fe5b61010060009350935050505b9250929050565b600081612e5757600080fd5b600160801b8210612e6a57608091821c91015b600160401b8210612e7d57604091821c91015b6401000000008210612e9157602091821c91015b620100008210612ea357601091821c91015b6101008210612eb457600891821c91015b60108210612ec457600491821c91015b60048210612ed457600291821c91015b6002821061042157600101919050565b6000806000612ef886602001518686613352565b915091506000612f07876132f1565b905081612f27578651612f209061ffff168783886133d9565b9350612fc3565b6000612f3286612afd565b90506000612f49612f4286612c9c565b8390611f46565b90506000612f618a6000015161ffff1683868b6133d9565b90506000808760011415612f7f5750506040808b0151015188612fae565b612f95612f8e60018a03612c9c565b8690611f46565b9050612fab8c6000015161ffff1682888d6133d9565b91505b612fbb818584868f613478565b985050505050505b5050509392505050565b6000610c7a611f8484633b9aca0061166f565b612fe8614673565b6000612ff26134d6565b61ffff8416600090815260209190915260408120549150610c7a90826134e3565b60008083608001511161302557600080fd5b633b9aca0082111561303657600080fd5b82518211613055578251604084015161187b9190611f2f90859061166f565b8260200151821161308d57604083015183516020850151606086015161187b9392612b619281900391611f2f9188039085900361166f565b610c7a8360600151612b618560200151633b9aca0003611f2f87606001518860800151038860200151880361166f90919063ffffffff16565b6000806130e56064611f2f8760e001518761166f90919063ffffffff16565b90508460a001518110156130fa575060a08401515b8460c0015181111561310d575060c08401515b82156131245761311d8482611f46565b9150610e02565b83811161313357808403610eba565b506000949350505050565b6000610c7a61314d848461166f565b633b9aca00612908565b6000613164848484612ee4565b9050600061317185613602565b9050808211613184576000915050610c7a565b808203915060006131948661360f565b90508281101561299b5795945050505050565b6000806131c46131bf6301da9c00611f2f868861166f565b61361c565b90506131d681621dcd6560491b61363a565b90506131e96131e48261368d565b6136af565b90506131fb81621dcd6560491b613704565b905060006132088261373a565b60070b95945050505050565b6000613221848484612ee4565b905061323661322f85613743565b8290611f46565b9050600061324385613750565b905080821015610e0257949350505050565b606001516207a12060109190911c60ff1602633b9aca000390565b600081121561327e57600080fd5b6000613288611839565b6001600160a01b03851660009081526020828152604080832061ffff8816845290915290209091506132b98361375d565b8154600a9190910b6001600160581b0316600160a81b026001600160a81b0390911617905550505050565b600080610c3460216110b5565b6060015161012c60089190911c60ff160290565b60006276a70061331485612afd565b0190506133268787878787878761378f565b50505050505050565b600060028210801590610c345750506008101590565b600080610c34600c6110b5565b6000806000851161336257600080fd5b600785111561337057600080fd5b600061337b84612afd565b905060015b8681116133d357600061339c61339583612c9c565b8490611f46565b9050868114156133b457509250600091506109249050565b868111156133ca57509250600191506109249050565b50600101613380565b50600080fd5b6000806133e46137c6565b905060006276a7006133f585612afd565b6000898152602085815260408083208b84528252808320949093018083529390522080549192509063ffffffff600160a01b8204811691600160c01b8104821691600160e01b909104168161345c5760405162461bcd60e51b81526004016101ff90614ae9565b6134698184848c8c6137d3565b9b9a5050505050505050505050565b600081861061348657600080fd5b84821061349257600080fd5b8383106134b8576134b184612b61888803611f2f8388038b880361166f565b9050610eba565b6134b16134cf878703611f2f8688038a870361166f565b8590611f58565b600080610c34601b6110b5565b6134eb614673565b6064633b9aca008360ff86166020811061350157fe5b1a028161350a57fe5b0481526064633b9aca008360ff86166001016020811061352657fe5b1a028161352f57fe5b048160200181815250506135548260028560ff16016020811061354e57fe5b1a61384e565b60808201819052610100908360ff86166003016020811061357157fe5b1a028161357a57fe5b0460408201526080810151610100908360ff86166004016020811061359b57fe5b1a02816135a457fe5b0460608201526207a1208260ff8516600501602081106135c057fe5b1a0260a0820152622625a08260ff8516600601602081106135dd57fe5b1a0260c08201528160ff8416600701602081106135f657fe5b1a60e082015292915050565b6000610c34826020613882565b6000610c34826048613882565b6000677fffffffffffffff82111561363357600080fd5b5060401b90565b600081600f0b6000141561364d57600080fd5b600082600f0b604085600f0b901b8161366257fe5b05905060016001607f1b03198112801590613684575060016001607f1b038113155b610c7a57600080fd5b6000600f82900b60016001607f1b031914156136a857600080fd5b5060000390565b6000600160461b82600f0b126136c457600080fd5b683fffffffffffffffff1982600f0b12156136e157506000610421565b610c34608083600f0b700171547652b82fe1777d0ffda0d23a7d1202901d613895565b6000600f83810b9083900b0260401d60016001607f1b03198112801590613684575060016001607f1b03811315610c7a57600080fd5b600f0b60401d90565b6000610c34826028613882565b6000610c34826030613882565b60006a7fffffffffffffffffffff19821280159061378657506a7fffffffffffffffffffff8213155b6116ac57600080fd5b61379c8787878685614345565b6137b58760e001518860a001518960c0015185886137d3565b60c090970196909652505050505050565b600080610c34600a6110b5565b60008083116137e157600080fd5b818611156137f0575083610eba565b60006137fc8388611f58565b90508381111561380f5785915050610eba565b600061381b8286612fcd565b9050600061382d633b9aca0083611f58565b90506127d2633b9aca00611f2f6138448a8561166f565b612b618c8761166f565b60008160ff166096106138695760ff8216622625a002610c34565b5060951960ff919091160162e4e1c00263165a0bc00190565b60609091015160ff911c16622625a00290565b6000600160461b82600f0b126138aa57600080fd5b683fffffffffffffffff1982600f0b12156138c757506000610421565b6001607f1b60006780000000000000008416600f0b13156138f95770016a09e667f3bcc908b2fb1366ea957d3e0260801c5b60008367400000000000000016600f0b1315613926577001306fe0a31b7152de8d5a46305c85edec0260801c5b60008367200000000000000016600f0b1315613953577001172b83c7d517adcdf7c8c50eb14a791f0260801c5b60008367100000000000000016600f0b13156139805770010b5586cf9890f6298b92b71842a983630260801c5b60008367080000000000000016600f0b13156139ad577001059b0d31585743ae7c548eb68ca417fd0260801c5b60008367040000000000000016600f0b13156139da57700102c9a3e778060ee6f7caca4f7a29bde80260801c5b60008367020000000000000016600f0b1315613a075770010163da9fb33356d84a66ae336dcdfa3f0260801c5b600083600160381b16600f0b1315613a3057700100b1afa5abcbed6129ab13ec11dc95430260801c5b600083668000000000000016600f0b1315613a5c5770010058c86da1c09ea1ff19d294cf2f679b0260801c5b600083664000000000000016600f0b1315613a88577001002c605e2e8cec506d21bfc89a23a00f0260801c5b600083662000000000000016600f0b1315613ab457700100162f3904051fa128bca9c55c31e5df0260801c5b600083661000000000000016600f0b1315613ae0577001000b175effdc76ba38e31671ca9397250260801c5b600083660800000000000016600f0b1315613b0c57700100058ba01fb9f96d6cacd4b180917c3d0260801c5b600083660400000000000016600f0b1315613b385770010002c5cc37da9491d0985c348c68e7b30260801c5b600083660200000000000016600f0b1315613b64577001000162e525ee054754457d59952920260260801c5b600083600160301b16600f0b1315613b8d5770010000b17255775c040618bf4a4ade83fc0260801c5b6000836580000000000016600f0b1315613bb8577001000058b91b5bc9ae2eed81e9b7d4cfab0260801c5b6000836540000000000016600f0b1315613be357700100002c5c89d5ec6ca4d7c8acc017b7c90260801c5b6000836520000000000016600f0b1315613c0e5770010000162e43f4f831060e02d839a9d16d0260801c5b6000836510000000000016600f0b1315613c3957700100000b1721bcfc99d9f890ea069117630260801c5b6000836508000000000016600f0b1315613c645770010000058b90cf1e6d97f9ca14dbcc16280260801c5b6000836504000000000016600f0b1315613c8f577001000002c5c863b73f016468f6bac5ca2b0260801c5b6000836502000000000016600f0b1315613cba57700100000162e430e5a18f6119e3c02282a50260801c5b600083600160281b16600f0b1315613ce3577001000000b1721835514b86e6d96efd1bfe0260801c5b60008364800000000016600f0b1315613d0d57700100000058b90c0b48c6be5df846c5b2ef0260801c5b60008364400000000016600f0b1315613d375770010000002c5c8601cc6b9e94213c72737a0260801c5b60008364200000000016600f0b1315613d61577001000000162e42fff037df38aa2b219f060260801c5b60008364100000000016600f0b1315613d8b5770010000000b17217fba9c739aa5819f44f90260801c5b60008364080000000016600f0b1315613db5577001000000058b90bfcdee5acd3c1cedc8230260801c5b60008364040000000016600f0b1315613ddf57700100000002c5c85fe31f35a6a30da1be500260801c5b60008364020000000016600f0b1315613e095770010000000162e42ff0999ce3541b9fffcf0260801c5b60008364010000000016600f0b1315613e3357700100000000b17217f80f4ef5aadda455540260801c5b600083638000000016600f0b1315613e5c5770010000000058b90bfbf8479bd5a81b51ad0260801c5b600083634000000016600f0b1315613e85577001000000002c5c85fdf84bd62ae30a74cc0260801c5b600083632000000016600f0b1315613eae57700100000000162e42fefb2fed257559bdaa0260801c5b600083631000000016600f0b1315613ed7577001000000000b17217f7d5a7716bba4a9ae0260801c5b600083630800000016600f0b1315613f0057700100000000058b90bfbe9ddbac5e109cce0260801c5b600083630400000016600f0b1315613f295770010000000002c5c85fdf4b15de6f17eb0d0260801c5b600083630200000016600f0b1315613f52577001000000000162e42fefa494f1478fde050260801c5b600083630100000016600f0b1315613f7b5770010000000000b17217f7d20cf927c8e94c0260801c5b6000836280000016600f0b1315613fa3577001000000000058b90bfbe8f71cb4e4b33d0260801c5b6000836240000016600f0b1315613fcb57700100000000002c5c85fdf477b662b269450260801c5b6000836220000016600f0b1315613ff35770010000000000162e42fefa3ae53369388c0260801c5b6000836210000016600f0b131561401b57700100000000000b17217f7d1d351a389d400260801c5b6000836208000016600f0b13156140435770010000000000058b90bfbe8e8b2d3d4ede0260801c5b6000836204000016600f0b131561406b577001000000000002c5c85fdf4741bea6e77e0260801c5b6000836202000016600f0b131561409357700100000000000162e42fefa39fe95583c20260801c5b6000836201000016600f0b13156140bb577001000000000000b17217f7d1cfb72b45e10260801c5b60008361800016600f0b13156140e257700100000000000058b90bfbe8e7cc35c3f00260801c5b60008361400016600f0b13156141095770010000000000002c5c85fdf473e242ea380260801c5b60008361200016600f0b1315614130577001000000000000162e42fefa39f02b772c0260801c5b60008361100016600f0b13156141575770010000000000000b17217f7d1cf7d83c1a0260801c5b60008361080016600f0b131561417e577001000000000000058b90bfbe8e7bdcbe2e0260801c5b60008361040016600f0b13156141a557700100000000000002c5c85fdf473dea871f0260801c5b60008361020016600f0b13156141cc5770010000000000000162e42fefa39ef44d910260801c5b60008361010016600f0b13156141f357700100000000000000b17217f7d1cf79e9490260801c5b600083608016600f0b13156142195770010000000000000058b90bfbe8e7bce5440260801c5b600083604016600f0b131561423f577001000000000000002c5c85fdf473de6eca0260801c5b600083602016600f0b131561426557700100000000000000162e42fefa39ef366f0260801c5b600083601016600f0b131561428b577001000000000000000b17217f7d1cf79afa0260801c5b600083600816600f0b13156142b157700100000000000000058b90bfbe8e7bcd6d0260801c5b600083600416600f0b13156142d75770010000000000000002c5c85fdf473de6b20260801c5b600083600216600f0b13156142fd577001000000000000000162e42fefa39ef3580260801c5b600083600116600f0b13156143235770010000000000000000b17217f7d1cf79ab0260801c5b600f83810b60401d603f03900b1c60016001607f1b03811115610c3457600080fd5b600061434f6137c6565b6000868152602082815260408083208884528252808320868452825291829020808a5290890187905280546001600160501b03808216938b0193909352600160501b810490921660608a015263ffffffff600160a01b8304811660a08b0152600160c01b8304811660c08b0152600160e01b90920490911660e08901529091508084156143ee5760018201546001600160501b03166080890152612acc565b600060808901525050505050505050565b6040805160c081018252600080825260208201819052918101829052606081018290526080810182905260a081019190915290565b60405180610160016040528060006001600160a01b031681526020016000815260200160008152602001600081526020016000815260200160006001600160d01b0319168152602001614485614528565b8152602001614492614528565b815260200161449f614557565b81526020016144ac614509565b8152600060209091015290565b6040518060e0016040528060008152602001600015158152602001600081526020016144e3614509565b8152602001606081526020016144f7614557565b81526020016145046146b8565b905290565b60408051608081018252600080825260208201529081016144ac614557565b6040518060a0016040528060008152602001600081526020016000815260200160008152602001600081525090565b60405180606001604052806000815260200160008152602001600081525090565b6040518061012001604052806000815260200160008152602001600081526020016000815260200160008152602001600081526020016000815260200160008152602001600081525090565b6040518060c00160405280600061ffff168152602001600081526020016000815260200160008152602001600081526020016000600381111561450457fe5b6040518060800160405280606081526020016060815260200160008152602001600081525090565b60405180610100016040528060008019168152602001600081526020016000815260200160008152602001600081526020016000815260200160008152602001600081525090565b60405180610100016040528060008152602001600081526020016000815260200160008152602001600081526020016000815260200160008152602001600081525090565b6040518060e001604052806146cb614509565b81526020016146d8614603565b815260006020820181905260408201819052606082018190526080820181905260a09091015290565b80356001600160a01b038116811461042157600080fd5b8051801515811461042157600080fd5b80516001600160701b03198116811461042157600080fd5b80516001600160f81b03198116811461042157600080fd5b805161ffff8116811461042157600080fd5b80516001600160501b038116811461042157600080fd5b805160ff8116811461042157600080fd5b6000602082840312156147a3578081fd5b610c7a82614701565b6000806000606084860312156147c0578182fd5b6147c984614701565b95602085013595506040909401359392505050565b600060c082840312156147ef578081fd5b60405160c0810181811067ffffffffffffffff8211171561480c57fe5b604052825164ffffffffff81168114614823578283fd5b815261483160208401614740565b602082015261484260408401614781565b604082015261485360608401614758565b606082015261486460808401614728565b608082015261487560a08401614718565b60a08201529392505050565b60008060408385031215614893578182fd5b505080516020909101519092909150565b600080600080600060a086880312156148bb578081fd5b6148c48661476a565b94506020860151935060408601519250606086015191506148e76080870161476a565b90509295509295909350565b6001600160a01b03169052565b6000815180845260208085019450808401835b83811015614971578151805161ffff168852838101518489015260408082015190890152606080820151908901526080808201519089015260a090810151906004821061495c57fe5b88015260c09096019590820190600101614913565b509495945050505050565b15159052565b6001600160d01b0319169052565b805164ffffffffff1682526020808201516001600160f81b0319169083015260408082015160ff169083015260608082015161ffff16908301526080808201516001600160701b0319169083015260a0908101511515910152565b61ffff8151168252602081015160208301526040810151614a0f6040840182614a4d565b506060015160a09190910152565b80518252602081015160208301526040810151604083015260608101516060830152608081015160808301525050565b8051825260208082015190830152604090810151910152565b6001600160a01b03929092168252602082015260400190565b6001600160a01b038316815260e08101610c7a6020830184614990565b60006040820184835260206040818501528185518084526060860191508287019350845b81811015614adc57845183529383019391830191600101614ac0565b5090979650505050505050565b60208082526016908201527513585c9ad95d081b9bdd081a5b9a5d1a585b1a5e995960521b604082015260600190565b6020808252600d908201526c092dcecc2d8d2c840d2dcc8caf609b1b604082015260600190565b602080825260129082015271105cdcd95d1cc81b9bdd081cd95d1d1b195960721b604082015260600190565b6020808252600e908201526d125b9d985b1a59081b585c9ad95d60921b604082015260600190565b60208082526016908201527514d95c5d595b98d95c8811dc9858d94814195c9a5bd960521b604082015260600190565b6020808252600e908201526d29b2b8bab2b731b2b9102237bbb760911b604082015260600190565b60208082526015908201527414dd59999a58da595b9d0818dbdb1b185d195c985b605a1b604082015260600190565b6020808252601c908201527f496e73756666696369656e74206672656520636f6c6c61746572616c00000000604082015260600190565b6000610420614c618387614990565b614c6f60c0840186516148f3565b602085015160e08401526040850151610100818186015260608701519150610120828187015260808801519250610140838188015260a08901519350614cb9610160880185614982565b60c08901519350614cce610180880185614a1d565b60e08901519350614ce3610220880185614a1d565b828901519350614cf76102c0880185614a4d565b818901519350614d0b6103208801856149eb565b8801519250614d219150506103e085018261497c565b50806104008401526119cc81840185614900565b928352602083019190915260408201526060019056fea26469706673582212204136f4835c185808c0b3b8a3be2d0226d5b0470d97b4988012ae7d59168e92fa64736f6c63430007060033","language":"Solidity","natspec":{"kind":"dev","methods":{"checkFreeCollateralAndRevert(address)":{"details":"Cannot be called directly by users, used during various actions that require an FC check. Must be called before the end of any transaction for accounts where FC can decrease.","notice":"Calculates free collateral and will revert if it falls below zero. If the account context must be updated due to changes in debt settings, will update. Cannot check free collateral if assets need to be settled first.","params":{"account":"account to calculate free collateral for"}},"getFreeCollateralView(address)":{"details":"Called via the Views.sol method to return an account's free collateral. Does not work for the nToken, the nToken does not have an account context.","notice":"Returns the ETH denominated free collateral of an account, represents the amount of debt that the account can incur before liquidation. If an account's assets need to be settled this will revert, either settle the account or use the off chain SDK to calculate free collateral.","params":{"account":"account to calculate free collateral for"},"returns":{"_0":"total free collateral in ETH w/ 8 decimal places","_1":"array of net local values in asset values ordered by currency id"}},"getLiquidationFactors(address,uint256,uint256)":{"details":"Only called internally by liquidation actions, does some initial validation of currencies. If a currency is specified that the account does not have, a asset available figure of zero will be returned. If this is the case then liquidation actions will revert.an ntoken account will return 0 FC and revert if called","notice":"Calculates liquidation factors for an account","params":{"account":"account to liquidate","collateralCurrencyId":"collateral currency to liquidate against, set to zero in the case of local currency liquidation","localCurrencyId":"currency that the debts are denominated in"},"returns":{"accountContext":"the accountContext of the liquidated account","factors":"struct of relevant factors for liquidation","portfolio":"the portfolio array of the account (bitmap accounts will return an empty array)"}}},"title":"Externally deployed library for free collateral calculations","version":1},"opcodes":"PUSH20 0x0 ADDRESS EQ PUSH1 0x80 PUSH1 0x40 MSTORE PUSH1 0x4 CALLDATASIZE LT PUSH2 0x4B JUMPI PUSH1 0x0 CALLDATALOAD PUSH1 0xE0 SHR DUP1 PUSH4 0x451D958F EQ PUSH2 0x50 JUMPI DUP1 PUSH4 0x6CB65EAF EQ PUSH2 0x88 JUMPI DUP1 PUSH4 0x6CCC642F EQ PUSH2 0xA9 JUMPI JUMPDEST PUSH1 0x0 DUP1 REVERT JUMPDEST DUP2 DUP1 ISZERO PUSH2 0x5C JUMPI PUSH1 0x0 DUP1 REVERT JUMPDEST POP PUSH2 0x70 PUSH2 0x6B CALLDATASIZE PUSH1 0x4 PUSH2 0x47AC JUMP JUMPDEST PUSH2 0xCB JUMP JUMPDEST PUSH1 0x40 MLOAD PUSH2 0x7F SWAP4 SWAP3 SWAP2 SWAP1 PUSH2 0x4C52 JUMP JUMPDEST PUSH1 0x40 MLOAD DUP1 SWAP2 SUB SWAP1 RETURN JUMPDEST PUSH2 0x9B PUSH2 0x96 CALLDATASIZE PUSH1 0x4 PUSH2 0x4792 JUMP JUMPDEST PUSH2 0x1C8 JUMP JUMPDEST PUSH1 0x40 MLOAD PUSH2 0x7F SWAP3 SWAP2 SWAP1 PUSH2 0x4A9C JUMP JUMPDEST DUP2 DUP1 ISZERO PUSH2 0xB5 JUMPI PUSH1 0x0 DUP1 REVERT JUMPDEST POP PUSH2 0xC9 PUSH2 0xC4 CALLDATASIZE PUSH1 0x4 PUSH2 0x4792 JUMP JUMPDEST PUSH2 0x21D JUMP JUMPDEST STOP JUMPDEST PUSH2 0xD3 PUSH2 0x43FF JUMP JUMPDEST PUSH2 0xDB PUSH2 0x4434 JUMP JUMPDEST PUSH1 0x60 PUSH2 0xE5 PUSH2 0x2A1 JUMP JUMPDEST PUSH2 0xEE DUP7 PUSH2 0x377 JUMP JUMPDEST SWAP3 POP PUSH2 0xF9 DUP4 PUSH2 0x426 JUMP JUMPDEST ISZERO PUSH2 0x18A JUMPI PUSH1 0x40 MLOAD PUSH4 0x37B5FC21 PUSH1 0xE1 SHL DUP2 MSTORE PUSH20 0x0 SWAP1 PUSH4 0x6F6BF842 SWAP1 PUSH2 0x137 SWAP1 DUP10 SWAP1 DUP8 SWAP1 PUSH1 0x4 ADD PUSH2 0x4A7F JUMP JUMPDEST PUSH1 0xC0 PUSH1 0x40 MLOAD DUP1 DUP4 SUB DUP2 DUP7 DUP1 EXTCODESIZE ISZERO DUP1 ISZERO PUSH2 0x14F JUMPI PUSH1 0x0 DUP1 REVERT JUMPDEST POP GAS DELEGATECALL ISZERO DUP1 ISZERO PUSH2 0x163 JUMPI RETURNDATASIZE PUSH1 0x0 DUP1 RETURNDATACOPY RETURNDATASIZE PUSH1 0x0 REVERT JUMPDEST POP POP POP POP PUSH1 0x40 MLOAD RETURNDATASIZE PUSH1 0x1F NOT PUSH1 0x1F DUP3 ADD AND DUP3 ADD DUP1 PUSH1 0x40 MSTORE POP DUP2 ADD SWAP1 PUSH2 0x187 SWAP2 SWAP1 PUSH2 0x47DE JUMP JUMPDEST SWAP3 POP JUMPDEST PUSH2 0x193 DUP4 PUSH2 0x47A JUMP JUMPDEST ISZERO PUSH2 0x1AC JUMPI DUP3 PUSH1 0x60 ADD MLOAD PUSH2 0xFFFF AND DUP6 EQ PUSH2 0x1AC JUMPI PUSH1 0x0 DUP1 REVERT JUMPDEST PUSH2 0x1B9 DUP7 DUP5 TIMESTAMP DUP9 DUP9 PUSH2 0x487 JUMP JUMPDEST SWAP4 SWAP8 SWAP1 SWAP7 POP SWAP3 SWAP5 POP SWAP2 SWAP3 POP POP POP JUMP JUMPDEST PUSH1 0x0 PUSH1 0x60 PUSH1 0x0 PUSH2 0x1D7 DUP5 PUSH2 0x377 JUMP JUMPDEST SWAP1 POP PUSH2 0x1E2 DUP2 PUSH2 0x426 JUMP JUMPDEST ISZERO PUSH2 0x208 JUMPI PUSH1 0x40 MLOAD PUSH3 0x461BCD PUSH1 0xE5 SHL DUP2 MSTORE PUSH1 0x4 ADD PUSH2 0x1FF SWAP1 PUSH2 0x4B40 JUMP JUMPDEST PUSH1 0x40 MLOAD DUP1 SWAP2 SUB SWAP1 REVERT JUMPDEST PUSH2 0x213 DUP5 DUP3 TIMESTAMP PUSH2 0x6E6 JUMP JUMPDEST SWAP3 POP SWAP3 POP POP SWAP2 POP SWAP2 JUMP JUMPDEST PUSH2 0x225 PUSH2 0x2A1 JUMP JUMPDEST PUSH1 0x0 PUSH2 0x230 DUP3 PUSH2 0x377 JUMP JUMPDEST SWAP1 POP PUSH2 0x23B DUP2 PUSH2 0x426 JUMP JUMPDEST ISZERO PUSH2 0x258 JUMPI PUSH1 0x40 MLOAD PUSH3 0x461BCD PUSH1 0xE5 SHL DUP2 MSTORE PUSH1 0x4 ADD PUSH2 0x1FF SWAP1 PUSH2 0x4B40 JUMP JUMPDEST PUSH1 0x0 DUP1 PUSH2 0x266 DUP5 DUP5 TIMESTAMP PUSH2 0x92C JUMP JUMPDEST SWAP2 POP SWAP2 POP DUP1 ISZERO PUSH2 0x27A JUMPI PUSH2 0x27A DUP4 DUP6 PUSH2 0xB0A JUMP JUMPDEST PUSH1 0x0 DUP3 SLT ISZERO PUSH2 0x29B JUMPI PUSH1 0x40 MLOAD PUSH3 0x461BCD PUSH1 0xE5 SHL DUP2 MSTORE PUSH1 0x4 ADD PUSH2 0x1FF SWAP1 PUSH2 0x4C1B JUMP JUMPDEST POP POP POP POP JUMP JUMPDEST PUSH1 0x0 DUP1 PUSH20 0xFDB631F5EE196F0ED6FAA767959853A9F217697D PUSH1 0x1 PUSH1 0x1 PUSH1 0xA0 SHL SUB AND PUSH4 0xFEAF968C PUSH1 0x40 MLOAD DUP2 PUSH4 0xFFFFFFFF AND PUSH1 0xE0 SHL DUP2 MSTORE PUSH1 0x4 ADD PUSH1 0xA0 PUSH1 0x40 MLOAD DUP1 DUP4 SUB DUP2 DUP7 DUP1 EXTCODESIZE ISZERO DUP1 ISZERO PUSH2 0x2F1 JUMPI PUSH1 0x0 DUP1 REVERT JUMPDEST POP GAS STATICCALL ISZERO DUP1 ISZERO PUSH2 0x305 JUMPI RETURNDATASIZE PUSH1 0x0 DUP1 RETURNDATACOPY RETURNDATASIZE PUSH1 0x0 REVERT JUMPDEST POP POP POP POP PUSH1 0x40 MLOAD RETURNDATASIZE PUSH1 0x1F NOT PUSH1 0x1F DUP3 ADD AND DUP3 ADD DUP1 PUSH1 0x40 MSTORE POP DUP2 ADD SWAP1 PUSH2 0x329 SWAP2 SWAP1 PUSH2 0x48A4 JUMP JUMPDEST POP POP SWAP3 POP SWAP3 POP POP DUP2 PUSH1 0x0 EQ PUSH2 0x350 JUMPI PUSH1 0x40 MLOAD PUSH3 0x461BCD PUSH1 0xE5 SHL DUP2 MSTORE PUSH1 0x4 ADD PUSH2 0x1FF SWAP1 PUSH2 0x4BC4 JUMP JUMPDEST DUP1 TIMESTAMP SUB PUSH2 0xE10 LT PUSH2 0x373 JUMPI PUSH1 0x40 MLOAD PUSH3 0x461BCD PUSH1 0xE5 SHL DUP2 MSTORE PUSH1 0x4 ADD PUSH2 0x1FF SWAP1 PUSH2 0x4B94 JUMP JUMPDEST POP POP JUMP JUMPDEST PUSH2 0x37F PUSH2 0x43FF JUMP JUMPDEST PUSH1 0x0 PUSH2 0x389 PUSH2 0xC27 JUMP JUMPDEST PUSH1 0x1 PUSH1 0x1 PUSH1 0xA0 SHL SUB DUP5 AND PUSH1 0x0 SWAP1 DUP2 MSTORE PUSH1 0x20 SWAP2 DUP3 MSTORE PUSH1 0x40 SWAP1 DUP2 SWAP1 KECCAK256 DUP2 MLOAD PUSH1 0xC0 DUP2 ADD DUP4 MSTORE SWAP1 SLOAD PUSH5 0xFFFFFFFFFF DUP2 AND DUP3 MSTORE PUSH1 0x1 PUSH1 0x1 PUSH1 0xF8 SHL SUB NOT PUSH1 0x1 PUSH1 0x28 SHL DUP3 DIV PUSH1 0xF8 SHL AND SWAP4 DUP3 ADD SWAP4 SWAP1 SWAP4 MSTORE PUSH1 0xFF PUSH1 0x1 PUSH1 0x30 SHL DUP5 DIV DUP2 AND SWAP3 DUP3 ADD SWAP3 SWAP1 SWAP3 MSTORE PUSH2 0xFFFF PUSH1 0x1 PUSH1 0x38 SHL DUP5 DIV AND PUSH1 0x60 DUP3 ADD MSTORE PUSH1 0x1 PUSH1 0x1 PUSH1 0x70 SHL SUB NOT PUSH1 0x1 PUSH1 0x48 SHL DUP5 DIV PUSH1 0x70 SHL AND PUSH1 0x80 DUP3 ADD MSTORE PUSH1 0x1 PUSH1 0xD8 SHL SWAP1 SWAP3 DIV AND ISZERO ISZERO PUSH1 0xA0 DUP3 ADD MSTORE SWAP2 POP POP JUMPDEST SWAP2 SWAP1 POP JUMP JUMPDEST PUSH1 0x0 TIMESTAMP PUSH2 0x432 DUP4 PUSH2 0x47A JUMP JUMPDEST ISZERO PUSH2 0x453 JUMPI PUSH2 0x440 DUP2 PUSH2 0xC3A JUMP JUMPDEST DUP4 MLOAD PUSH5 0xFFFFFFFFFF AND LT SWAP2 POP PUSH2 0x421 SWAP1 POP JUMP JUMPDEST DUP3 MLOAD PUSH5 0xFFFFFFFFFF AND ISZERO DUP1 ISZERO SWAP1 PUSH2 0x472 JUMPI POP DUP3 MLOAD PUSH5 0xFFFFFFFFFF AND DUP2 LT ISZERO JUMPDEST SWAP2 POP POP PUSH2 0x421 JUMP JUMPDEST PUSH1 0x60 ADD MLOAD PUSH2 0xFFFF AND ISZERO ISZERO SWAP1 JUMP JUMPDEST PUSH2 0x48F PUSH2 0x4434 JUMP JUMPDEST PUSH1 0x60 PUSH2 0x499 PUSH2 0x44B9 JUMP JUMPDEST PUSH2 0x4A1 PUSH2 0x4434 JUMP JUMPDEST PUSH1 0x1 PUSH1 0x1 PUSH1 0xA0 SHL SUB DUP10 AND DUP2 MSTORE PUSH2 0x4B6 DUP9 PUSH2 0x47A JUMP JUMPDEST ISZERO PUSH2 0x58F JUMPI PUSH2 0x4C8 DUP9 PUSH1 0x60 ADD MLOAD PUSH2 0xC5B JUMP JUMPDEST PUSH1 0x60 DUP4 ADD MSTORE PUSH1 0x0 DUP1 DUP1 PUSH2 0x4DD DUP13 DUP12 DUP14 DUP9 PUSH2 0xC81 JUMP JUMPDEST SWAP3 POP SWAP3 POP SWAP3 POP PUSH1 0x0 PUSH2 0x4F1 DUP14 DUP13 DUP15 DUP10 PUSH2 0xCDC JUMP JUMPDEST SWAP1 POP PUSH1 0x0 PUSH2 0x509 DUP3 PUSH2 0x503 DUP8 DUP8 PUSH2 0xD95 JUMP JUMPDEST SWAP1 PUSH2 0xD95 JUMP JUMPDEST SWAP1 POP DUP7 PUSH1 0x60 ADD MLOAD PUSH1 0x40 ADD MLOAD DUP8 PUSH1 0xA0 ADD DUP2 SWAP1 MSTORE POP PUSH1 0x0 PUSH2 0x531 DUP15 PUSH1 0x60 ADD MLOAD PUSH2 0xFFFF AND DUP4 DUP11 PUSH2 0xDAB JUMP JUMPDEST SWAP1 POP DUP12 DUP15 PUSH1 0x60 ADD MLOAD PUSH2 0xFFFF AND EQ ISZERO PUSH2 0x584 JUMPI PUSH1 0x40 DUP8 ADD DUP3 SWAP1 MSTORE PUSH1 0xC0 DUP8 ADD DUP2 SWAP1 MSTORE PUSH1 0xA0 DUP9 ADD MLOAD PUSH2 0x100 DUP9 ADD MSTORE DUP11 PUSH2 0x584 JUMPI PUSH1 0x60 DUP9 ADD MLOAD PUSH2 0x120 DUP9 ADD MSTORE PUSH1 0x80 DUP8 ADD DUP6 SWAP1 MSTORE PUSH1 0x1 PUSH1 0x1 PUSH1 0xD0 SHL SUB NOT DUP5 AND PUSH1 0xA0 DUP9 ADD MSTORE JUMPDEST POP POP POP POP POP POP PUSH2 0x5A3 JUMP JUMPDEST PUSH2 0x59D DUP10 DUP10 PUSH1 0x40 ADD MLOAD PUSH2 0xDF6 JUMP JUMPDEST PUSH1 0x80 DUP4 ADD MSTORE JUMPDEST PUSH1 0x80 DUP9 ADD MLOAD JUMPDEST PUSH1 0x1 PUSH1 0x1 PUSH1 0x70 SHL SUB NOT DUP2 AND ISZERO PUSH2 0x687 JUMPI PUSH1 0x60 DUP10 ADD MLOAD DUP2 SWAP1 PUSH1 0x0 SWAP1 PUSH1 0xF0 DUP4 SWAP1 SHR PUSH2 0x3FFF AND SWAP1 PUSH2 0xFFFF AND DUP2 EQ ISZERO PUSH2 0x5DD JUMPI PUSH1 0x0 DUP1 REVERT JUMPDEST DUP10 DUP2 EQ DUP1 ISZERO PUSH2 0x5EA JUMPI POP DUP9 ISZERO JUMPDEST DUP1 PUSH2 0x5F4 JUMPI POP DUP9 DUP2 EQ JUMPDEST SWAP2 POP POP PUSH1 0x0 PUSH2 0x606 DUP7 DUP7 DUP6 DUP6 DUP16 PUSH2 0xE0A JUMP JUMPDEST SWAP1 POP PUSH1 0xF0 DUP4 SWAP1 SHR PUSH2 0x3FFF AND PUSH1 0x0 PUSH2 0x61E DUP3 DUP5 DUP11 PUSH2 0xDAB JUMP JUMPDEST SWAP1 POP DUP11 DUP3 EQ ISZERO PUSH2 0x64A JUMPI PUSH1 0xA0 DUP9 ADD MLOAD PUSH2 0x120 DUP9 ADD MLOAD PUSH1 0x40 ADD MSTORE PUSH1 0x60 DUP8 ADD DUP4 SWAP1 MSTORE PUSH1 0xE0 DUP8 ADD DUP2 SWAP1 MSTORE PUSH2 0x66C JUMP JUMPDEST DUP12 DUP3 EQ ISZERO PUSH2 0x66C JUMPI PUSH1 0x40 DUP8 ADD DUP4 SWAP1 MSTORE PUSH1 0xC0 DUP8 ADD DUP2 SWAP1 MSTORE PUSH1 0xA0 DUP9 ADD MLOAD PUSH2 0x100 DUP9 ADD MSTORE JUMPDEST PUSH1 0x10 DUP7 PUSH1 0x1 PUSH1 0x1 PUSH1 0x70 SHL SUB NOT AND SWAP1 SHL SWAP6 POP POP POP POP POP POP PUSH2 0x5A9 JUMP JUMPDEST DUP3 MLOAD PUSH1 0x20 DUP4 ADD DUP2 SWAP1 MSTORE PUSH1 0x0 SGT PUSH2 0x6AF JUMPI PUSH1 0x40 MLOAD PUSH3 0x461BCD PUSH1 0xE5 SHL DUP2 MSTORE PUSH1 0x4 ADD PUSH2 0x1FF SWAP1 PUSH2 0x4BEC JUMP JUMPDEST PUSH1 0x40 DUP10 ADD MLOAD PUSH1 0xFF AND ISZERO PUSH2 0x6D0 JUMPI PUSH2 0x6CA DUP11 DUP11 PUSH1 0x40 ADD MLOAD PUSH2 0xDF6 JUMP JUMPDEST PUSH1 0x80 DUP5 ADD MSTORE JUMPDEST POP PUSH1 0x80 SWAP1 SWAP2 ADD MLOAD SWAP1 SWAP3 POP SWAP1 POP SWAP6 POP SWAP6 SWAP4 POP POP POP POP JUMP JUMPDEST PUSH1 0x0 PUSH1 0x60 PUSH2 0x6F2 PUSH2 0x44B9 JUMP JUMPDEST PUSH1 0x40 DUP1 MLOAD PUSH1 0xA DUP1 DUP3 MSTORE PUSH2 0x160 DUP3 ADD SWAP1 SWAP3 MSTORE PUSH1 0x0 SWAP2 DUP3 SWAP2 SWAP1 PUSH1 0x20 DUP3 ADD PUSH2 0x140 DUP1 CALLDATASIZE DUP4 CALLDATACOPY ADD SWAP1 POP POP SWAP1 POP PUSH2 0x723 DUP8 PUSH2 0x47A JUMP JUMPDEST ISZERO PUSH2 0x7CB JUMPI PUSH2 0x735 DUP8 PUSH1 0x60 ADD MLOAD PUSH2 0xEC3 JUMP JUMPDEST PUSH1 0x60 DUP5 ADD MSTORE PUSH1 0x0 DUP1 PUSH2 0x749 DUP11 DUP10 DUP12 DUP9 PUSH2 0xC81 JUMP JUMPDEST POP SWAP2 POP SWAP2 POP PUSH1 0x0 PUSH2 0x75C DUP12 DUP11 DUP13 DUP10 PUSH2 0xCDC JUMP JUMPDEST SWAP1 POP PUSH2 0x76C DUP2 PUSH2 0x503 DUP6 DUP6 PUSH2 0xD95 JUMP JUMPDEST DUP5 DUP7 DUP2 MLOAD DUP2 LT PUSH2 0x778 JUMPI INVALID JUMPDEST PUSH1 0x20 MUL PUSH1 0x20 ADD ADD DUP2 DUP2 MSTORE POP POP DUP6 PUSH1 0x60 ADD MLOAD PUSH1 0x40 ADD MLOAD DUP7 PUSH1 0xA0 ADD DUP2 SWAP1 MSTORE POP PUSH2 0x7BB DUP11 PUSH1 0x60 ADD MLOAD PUSH2 0xFFFF AND DUP6 DUP8 DUP2 MLOAD DUP2 LT PUSH2 0x7AD JUMPI INVALID JUMPDEST PUSH1 0x20 MUL PUSH1 0x20 ADD ADD MLOAD DUP9 PUSH2 0xDAB JUMP JUMPDEST POP POP PUSH1 0x1 SWAP1 SWAP4 ADD SWAP3 POP PUSH2 0x7DF SWAP1 POP JUMP JUMPDEST PUSH2 0x7D9 DUP9 DUP9 PUSH1 0x40 ADD MLOAD PUSH2 0xDF6 JUMP JUMPDEST PUSH1 0x80 DUP5 ADD MSTORE JUMPDEST PUSH1 0x80 DUP8 ADD MLOAD JUMPDEST PUSH1 0x1 PUSH1 0x1 PUSH1 0x70 SHL SUB NOT DUP2 AND ISZERO PUSH2 0x91A JUMPI PUSH1 0x60 DUP9 ADD MLOAD DUP2 SWAP1 PUSH1 0xF0 DUP3 SWAP1 SHR PUSH2 0x3FFF AND SWAP1 PUSH2 0xFFFF AND DUP2 EQ ISZERO PUSH2 0x816 JUMPI PUSH1 0x0 DUP1 REVERT JUMPDEST PUSH1 0x0 PUSH2 0x822 DUP3 DUP12 PUSH2 0xEE4 JUMP JUMPDEST POP PUSH1 0xA0 DUP9 ADD DUP2 SWAP1 MSTORE PUSH2 0x837 SWAP1 DUP14 SWAP1 DUP6 SWAP1 PUSH2 0xFA2 JUMP JUMPDEST DUP7 DUP9 DUP2 MLOAD DUP2 LT PUSH2 0x843 JUMPI INVALID JUMPDEST PUSH1 0x20 MUL PUSH1 0x20 ADD ADD DUP2 SWAP4 POP DUP3 DUP2 MSTORE POP POP POP PUSH2 0x85C DUP4 PUSH2 0xFE7 JUMP JUMPDEST DUP1 PUSH2 0x867 JUMPI POP PUSH1 0x0 DUP2 SGT JUMPDEST ISZERO PUSH2 0x8D2 JUMPI PUSH2 0x875 DUP3 PUSH2 0xEC3 JUMP JUMPDEST PUSH1 0x60 DUP9 ADD MSTORE PUSH1 0x0 DUP1 PUSH2 0x888 DUP10 DUP5 DUP15 PUSH2 0xFF3 JUMP JUMPDEST POP SWAP2 POP SWAP2 POP PUSH2 0x8B7 DUP2 PUSH2 0x503 DUP5 DUP11 DUP13 DUP2 MLOAD DUP2 LT PUSH2 0x8A1 JUMPI INVALID JUMPDEST PUSH1 0x20 MUL PUSH1 0x20 ADD ADD MLOAD PUSH2 0xD95 SWAP1 SWAP2 SWAP1 PUSH4 0xFFFFFFFF AND JUMP JUMPDEST DUP8 DUP10 DUP2 MLOAD DUP2 LT PUSH2 0x8C3 JUMPI INVALID JUMPDEST PUSH1 0x20 MUL PUSH1 0x20 ADD ADD DUP2 DUP2 MSTORE POP POP POP POP JUMPDEST PUSH2 0x8F4 DUP3 PUSH2 0xFFFF AND DUP7 DUP9 DUP2 MLOAD DUP2 LT PUSH2 0x8E6 JUMPI INVALID JUMPDEST PUSH1 0x20 MUL PUSH1 0x20 ADD ADD MLOAD DUP10 PUSH2 0xDAB JUMP JUMPDEST POP POP POP PUSH1 0x1 SWAP4 SWAP1 SWAP4 ADD SWAP3 POP PUSH1 0x10 SHL PUSH16 0xFFFFFFFFFFFFFFFFFFFFFFFFFFFFFFFF NOT AND PUSH2 0x7E5 JUMP JUMPDEST POP SWAP2 MLOAD SWAP4 POP SWAP1 SWAP2 POP POP JUMPDEST SWAP4 POP SWAP4 SWAP2 POP POP JUMP JUMPDEST PUSH1 0x0 DUP1 PUSH2 0x937 PUSH2 0x44B9 JUMP JUMPDEST PUSH1 0x0 PUSH2 0x942 DUP7 PUSH2 0x47A JUMP JUMPDEST ISZERO PUSH2 0x9C9 JUMPI PUSH2 0x954 DUP7 PUSH1 0x60 ADD MLOAD PUSH2 0xC5B JUMP JUMPDEST PUSH1 0x60 DUP4 ADD MSTORE PUSH1 0x0 DUP1 PUSH2 0x968 DUP10 DUP9 DUP11 DUP8 PUSH2 0xC81 JUMP JUMPDEST POP SWAP2 POP SWAP2 POP PUSH1 0x0 DUP3 SLT ISZERO PUSH2 0x97B JUMPI PUSH1 0x1 SWAP3 POP JUMPDEST PUSH1 0x0 PUSH2 0x989 DUP11 DUP10 DUP12 DUP9 PUSH2 0xCDC JUMP JUMPDEST SWAP1 POP PUSH1 0x0 PUSH2 0x99B DUP3 PUSH2 0x503 DUP7 DUP7 PUSH2 0xD95 JUMP JUMPDEST PUSH1 0x60 DUP1 DUP9 ADD MLOAD PUSH1 0x40 ADD MLOAD PUSH1 0xA0 DUP10 ADD MSTORE DUP12 ADD MLOAD SWAP1 SWAP2 POP PUSH2 0x9BF SWAP1 PUSH2 0xFFFF AND DUP3 DUP9 PUSH2 0xDAB JUMP JUMPDEST POP POP POP POP POP PUSH2 0x9DD JUMP JUMPDEST PUSH2 0x9D7 DUP8 DUP8 PUSH1 0x40 ADD MLOAD PUSH2 0xDF6 JUMP JUMPDEST PUSH1 0x80 DUP4 ADD MSTORE JUMPDEST PUSH1 0x80 DUP7 ADD MLOAD JUMPDEST PUSH1 0x1 PUSH1 0x1 PUSH1 0x70 SHL SUB NOT DUP2 AND ISZERO PUSH2 0xAC1 JUMPI PUSH1 0x60 DUP8 ADD MLOAD DUP2 SWAP1 PUSH1 0xF0 DUP3 SWAP1 SHR PUSH2 0x3FFF AND SWAP1 PUSH2 0xFFFF AND DUP2 EQ ISZERO PUSH2 0xA14 JUMPI PUSH1 0x0 DUP1 REVERT JUMPDEST PUSH2 0xA1D DUP2 PUSH2 0x10A3 JUMP JUMPDEST DUP6 PUSH1 0xA0 ADD DUP2 SWAP1 MSTORE POP PUSH1 0x0 DUP1 PUSH2 0xA37 DUP13 DUP6 DUP10 PUSH1 0xA0 ADD MLOAD PUSH2 0xFA2 JUMP JUMPDEST SWAP2 POP SWAP2 POP PUSH1 0x0 DUP3 SLT ISZERO PUSH2 0xA49 JUMPI PUSH1 0x1 SWAP6 POP JUMPDEST PUSH2 0xA52 DUP5 PUSH2 0xFE7 JUMP JUMPDEST DUP1 PUSH2 0xA5D JUMPI POP PUSH1 0x0 DUP2 SGT JUMPDEST ISZERO PUSH2 0xA97 JUMPI PUSH2 0xA6B DUP4 PUSH2 0xC5B JUMP JUMPDEST PUSH1 0x60 DUP9 ADD MSTORE PUSH1 0x0 DUP1 PUSH2 0xA7E DUP10 DUP5 DUP15 PUSH2 0xFF3 JUMP JUMPDEST POP SWAP1 SWAP3 POP SWAP1 POP PUSH2 0xA92 DUP2 PUSH2 0x503 DUP7 DUP6 PUSH2 0xD95 JUMP JUMPDEST SWAP4 POP POP POP JUMPDEST PUSH2 0xAA6 DUP4 PUSH2 0xFFFF AND DUP4 DUP10 PUSH2 0xDAB JUMP JUMPDEST POP PUSH1 0x10 DUP6 PUSH1 0x1 PUSH1 0x1 PUSH1 0x70 SHL SUB NOT AND SWAP1 SHL SWAP5 POP POP POP POP POP PUSH2 0x9E3 JUMP JUMPDEST PUSH1 0x20 DUP8 ADD MLOAD PUSH1 0x1 PUSH1 0xF9 SHL SWAP1 DUP2 AND EQ DUP1 ISZERO PUSH2 0xAD9 JUMPI POP DUP2 ISZERO JUMPDEST ISZERO PUSH2 0xAF4 JUMPI PUSH1 0x20 DUP1 DUP9 ADD DUP1 MLOAD PUSH1 0xFD PUSH1 0xF8 SHL AND SWAP1 MSTORE PUSH1 0x1 SWAP1 DUP5 ADD MSTORE JUMPDEST POP POP DUP1 MLOAD PUSH1 0x20 SWAP1 SWAP2 ADD MLOAD SWAP1 SWAP7 SWAP1 SWAP6 POP SWAP4 POP POP POP POP JUMP JUMPDEST PUSH1 0x0 PUSH2 0xB14 PUSH2 0xC27 JUMP JUMPDEST PUSH1 0x1 PUSH1 0x1 PUSH1 0xA0 SHL SUB DUP4 AND PUSH1 0x0 DUP2 DUP2 MSTORE PUSH1 0x20 DUP4 DUP2 MSTORE PUSH1 0x40 DUP1 DUP4 KECCAK256 DUP9 MLOAD DUP2 SLOAD SWAP4 DUP11 ADD MLOAD DUP11 DUP5 ADD MLOAD PUSH1 0x60 DUP13 ADD MLOAD PUSH1 0x80 DUP14 ADD MLOAD PUSH1 0xA0 DUP15 ADD MLOAD PUSH5 0xFFFFFFFFFF NOT SWAP1 SWAP9 AND PUSH5 0xFFFFFFFFFF SWAP1 SWAP6 AND SWAP5 SWAP1 SWAP5 OR PUSH6 0xFF0000000000 NOT AND PUSH1 0x1 PUSH1 0x28 SHL PUSH1 0xF8 SWAP5 SWAP1 SWAP5 SHR SWAP4 SWAP1 SWAP4 MUL SWAP3 SWAP1 SWAP3 OR PUSH7 0xFF000000000000 NOT AND PUSH1 0x1 PUSH1 0x30 SHL PUSH1 0xFF SWAP1 SWAP3 AND SWAP2 SWAP1 SWAP2 MUL OR PUSH9 0xFFFF00000000000000 NOT AND PUSH1 0x1 PUSH1 0x38 SHL PUSH2 0xFFFF SWAP1 SWAP3 AND SWAP2 SWAP1 SWAP2 MUL OR PUSH27 0xFFFFFFFFFFFFFFFFFFFFFFFFFFFFFFFFFFFF000000000000000000 NOT AND PUSH1 0x1 PUSH1 0x48 SHL PUSH1 0x70 SWAP3 SWAP1 SWAP3 SHR SWAP2 SWAP1 SWAP2 MUL OR PUSH1 0xFF PUSH1 0xD8 SHL NOT AND PUSH1 0x1 PUSH1 0xD8 SHL SWAP4 ISZERO ISZERO SWAP4 SWAP1 SWAP4 MUL SWAP3 SWAP1 SWAP3 OR SWAP1 SWAP2 SSTORE MLOAD SWAP3 SWAP4 POP SWAP1 SWAP2 PUSH32 0x6BD4B121BCA854A191536A2CA891155C42EE2FB23F307FB34E8BC65CFCB5412E SWAP2 SWAP1 LOG2 POP POP POP JUMP JUMPDEST PUSH1 0x0 DUP1 PUSH2 0xC34 PUSH1 0x1 PUSH2 0x10B5 JUMP JUMPDEST SWAP3 SWAP2 POP POP JUMP JUMPDEST PUSH1 0x0 PUSH3 0x15180 DUP3 LT ISZERO PUSH2 0xC4C JUMPI PUSH1 0x0 DUP1 REVERT JUMPDEST PUSH3 0x15180 DUP3 JUMPDEST MOD SWAP1 SWAP2 SUB SWAP2 SWAP1 POP JUMP JUMPDEST PUSH2 0xC63 PUSH2 0x4509 JUMP JUMPDEST PUSH1 0x0 PUSH2 0xC6E DUP4 PUSH2 0x10A3 JUMP JUMPDEST SWAP1 POP PUSH2 0xC7A DUP4 DUP3 PUSH2 0x10CE JUMP JUMPDEST SWAP4 SWAP3 POP POP POP JUMP JUMPDEST PUSH1 0x0 DUP1 PUSH1 0x0 DUP1 PUSH2 0xC9E DUP9 DUP8 PUSH1 0x60 ADD MLOAD DUP8 PUSH1 0x60 ADD MLOAD PUSH1 0x40 ADD MLOAD PUSH2 0x1111 JUMP JUMPDEST POP SWAP2 SWAP6 POP SWAP2 POP POP PUSH1 0x0 DUP2 SGT ISZERO PUSH2 0xCCC JUMPI PUSH2 0xCC2 DUP6 PUSH1 0x60 ADD MLOAD DUP7 PUSH1 0xC0 ADD MLOAD DUP4 DUP11 PUSH2 0x11CB JUMP JUMPDEST SWAP1 SWAP4 POP SWAP2 POP PUSH2 0xCD1 JUMP JUMPDEST PUSH1 0x0 SWAP3 POP JUMPDEST POP SWAP5 POP SWAP5 POP SWAP5 SWAP2 POP POP JUMP JUMPDEST PUSH1 0x0 DUP1 PUSH1 0x0 PUSH2 0xD07 DUP8 DUP7 PUSH1 0x60 ADD MLOAD PUSH2 0xFFFF AND DUP8 PUSH1 0x0 ADD MLOAD PUSH5 0xFFFFFFFFFF AND DUP10 DUP9 PUSH1 0x60 ADD MLOAD PUSH1 0x1 PUSH2 0x123F JUMP JUMPDEST PUSH1 0x20 DUP8 ADD MLOAD SWAP2 SWAP4 POP SWAP2 POP PUSH1 0x1 PUSH1 0xF8 SHL SWAP1 DUP2 AND EQ DUP2 DUP1 ISZERO PUSH2 0xD25 JUMPI POP DUP1 ISZERO JUMPDEST ISZERO PUSH2 0xD4E JUMPI PUSH1 0x20 DUP7 DUP2 ADD DUP1 MLOAD PUSH1 0x1 PUSH1 0xF8 SHL OR PUSH1 0x1 PUSH1 0x1 PUSH1 0xF8 SHL SUB NOT AND SWAP1 MSTORE PUSH1 0x1 SWAP1 DUP7 ADD MSTORE PUSH2 0xD74 JUMP JUMPDEST DUP2 ISZERO DUP1 ISZERO PUSH2 0xD59 JUMPI POP DUP1 JUMPDEST ISZERO PUSH2 0xD74 JUMPI PUSH1 0x20 DUP1 DUP8 ADD DUP1 MLOAD PUSH1 0x7F PUSH1 0xF9 SHL AND SWAP1 MSTORE PUSH1 0x1 SWAP1 DUP7 ADD MSTORE JUMPDEST PUSH1 0x60 DUP6 ADD MLOAD PUSH1 0x40 ADD MLOAD PUSH2 0xD87 SWAP1 DUP5 PUSH2 0x126F JUMP JUMPDEST SWAP4 POP POP POP POP JUMPDEST SWAP5 SWAP4 POP POP POP POP JUMP JUMPDEST DUP2 DUP2 ADD DUP3 DUP2 SLT ISZERO PUSH1 0x0 DUP4 SLT ISZERO EQ PUSH2 0xC34 JUMPI PUSH1 0x0 DUP1 REVERT JUMPDEST PUSH2 0xDB3 PUSH2 0x4528 JUMP JUMPDEST PUSH1 0x0 PUSH2 0xDBE DUP6 PUSH2 0x1291 JUMP JUMPDEST SWAP1 POP PUSH2 0xDEC PUSH2 0xDE4 PUSH2 0xDDD DUP7 DUP7 PUSH1 0xA0 ADD MLOAD PUSH2 0x13F4 SWAP1 SWAP2 SWAP1 PUSH4 0xFFFFFFFF AND JUMP JUMPDEST DUP4 SWAP1 PUSH2 0x1420 JUMP JUMPDEST DUP5 MLOAD SWAP1 PUSH2 0xD95 JUMP JUMPDEST SWAP1 SWAP3 MSTORE POP SWAP3 SWAP2 POP POP JUMP JUMPDEST PUSH1 0x60 PUSH2 0xE02 DUP4 DUP4 PUSH2 0x1467 JUMP JUMPDEST POP SWAP4 SWAP3 POP POP POP JUMP JUMPDEST PUSH1 0x0 PUSH1 0xF0 DUP5 SWAP1 SHR PUSH2 0x3FFF AND PUSH2 0xE1E DUP2 PUSH2 0x10A3 JUMP JUMPDEST PUSH1 0xA0 DUP9 ADD DUP2 SWAP1 MSTORE DUP7 MLOAD PUSH1 0x0 SWAP2 DUP3 SWAP2 PUSH2 0xE37 SWAP2 DUP10 SWAP1 PUSH2 0xFA2 JUMP JUMPDEST SWAP2 POP SWAP2 POP PUSH2 0xE44 DUP8 PUSH2 0xFE7 JUMP JUMPDEST DUP1 PUSH2 0xE4F JUMPI POP PUSH1 0x0 DUP2 SGT JUMPDEST ISZERO PUSH2 0xEB5 JUMPI PUSH2 0xE5D DUP4 PUSH2 0xC5B JUMP JUMPDEST PUSH1 0x60 DUP11 ADD MSTORE PUSH1 0x0 DUP1 DUP1 PUSH2 0xE71 DUP13 DUP6 DUP11 PUSH2 0xFF3 JUMP JUMPDEST SWAP2 SWAP5 POP SWAP3 POP SWAP1 POP PUSH2 0xE86 DUP3 PUSH2 0x503 DUP8 DUP7 PUSH2 0xD95 JUMP JUMPDEST SWAP5 POP DUP9 ISZERO PUSH2 0xEB1 JUMPI PUSH1 0x60 DUP13 ADD MLOAD PUSH2 0x120 DUP13 ADD MSTORE PUSH1 0x1 PUSH1 0x1 PUSH1 0xD0 SHL SUB NOT DUP2 AND PUSH1 0xA0 DUP13 ADD MSTORE PUSH1 0x80 DUP12 ADD DUP3 SWAP1 MSTORE JUMPDEST POP POP POP JUMPDEST POP SWAP2 POP POP JUMPDEST SWAP6 SWAP5 POP POP POP POP POP JUMP JUMPDEST PUSH2 0xECB PUSH2 0x4509 JUMP JUMPDEST PUSH1 0x0 PUSH2 0xED7 DUP4 TIMESTAMP PUSH2 0xEE4 JUMP JUMPDEST POP SWAP1 POP PUSH2 0xC7A DUP4 DUP3 PUSH2 0x10CE JUMP JUMPDEST PUSH2 0xEEC PUSH2 0x4557 JUMP JUMPDEST PUSH2 0xEF4 PUSH2 0x4578 JUMP JUMPDEST PUSH2 0xEFD DUP5 PUSH2 0x1488 JUMP JUMPDEST SWAP1 POP DUP3 DUP2 PUSH1 0x0 ADD MLOAD LT ISZERO PUSH2 0xF2E JUMPI PUSH1 0x0 PUSH2 0xF16 DUP6 PUSH2 0x1550 JUMP JUMPDEST SWAP1 POP PUSH2 0xF24 DUP6 DUP4 DUP4 DUP8 PUSH2 0x15CB JUMP JUMPDEST POP SWAP2 POP PUSH2 0xF3B SWAP1 POP JUMP JUMPDEST DUP1 MLOAD DUP4 EQ PUSH2 0xF3B JUMPI PUSH1 0x0 DUP1 REVERT JUMPDEST PUSH1 0x40 MLOAD DUP1 PUSH1 0x60 ADD PUSH1 0x40 MSTORE DUP1 PUSH2 0xF69 PUSH2 0xF64 DUP5 PUSH1 0xA0 ADD MLOAD DUP6 PUSH1 0xC0 ADD MLOAD PUSH2 0x166F SWAP1 SWAP2 SWAP1 PUSH4 0xFFFFFFFF AND JUMP JUMPDEST PUSH2 0x1696 JUMP JUMPDEST DUP2 MSTORE PUSH1 0x20 ADD PUSH2 0xF8C PUSH2 0xF64 DUP5 PUSH1 0xA0 ADD MLOAD DUP6 PUSH1 0xE0 ADD MLOAD PUSH2 0x166F SWAP1 SWAP2 SWAP1 PUSH4 0xFFFFFFFF AND JUMP JUMPDEST DUP2 MSTORE PUSH1 0x20 ADD DUP3 PUSH1 0x60 ADD MLOAD DUP2 MSTORE POP SWAP2 POP SWAP3 POP SWAP3 SWAP1 POP JUMP JUMPDEST PUSH1 0x0 DUP1 PUSH1 0x1 PUSH1 0xFE SHL DUP5 DUP2 AND EQ ISZERO PUSH2 0xFDA JUMPI PUSH1 0xF0 DUP5 SWAP1 SHR PUSH2 0x3FFF AND PUSH1 0x0 DUP1 PUSH2 0xFCA DUP9 DUP5 DUP9 PUSH2 0x1111 JUMP JUMPDEST POP SWAP2 SWAP7 POP SWAP5 POP PUSH2 0x924 SWAP4 POP POP POP POP JUMP JUMPDEST POP PUSH1 0x0 SWAP5 DUP6 SWAP5 POP SWAP3 POP POP POP JUMP JUMPDEST PUSH1 0x1 PUSH1 0xFF SHL SWAP1 DUP2 AND EQ SWAP1 JUMP JUMPDEST PUSH1 0x0 DUP1 PUSH1 0x0 DUP6 PUSH1 0x80 ADD MLOAD MLOAD DUP7 PUSH1 0x40 ADD MLOAD LT DUP1 ISZERO PUSH2 0x103E JUMPI POP DUP6 PUSH1 0x60 ADD MLOAD PUSH1 0x0 ADD MLOAD PUSH2 0xFFFF AND DUP7 PUSH1 0x80 ADD MLOAD DUP8 PUSH1 0x40 ADD MLOAD DUP2 MLOAD DUP2 LT PUSH2 0x102C JUMPI INVALID JUMPDEST PUSH1 0x20 MUL PUSH1 0x20 ADD ADD MLOAD PUSH1 0x0 ADD MLOAD PUSH2 0xFFFF AND EQ JUMPDEST ISZERO PUSH2 0x1067 JUMPI PUSH2 0x105B DUP7 PUSH1 0x80 ADD MLOAD DUP8 PUSH1 0x60 ADD MLOAD DUP7 DUP10 PUSH1 0x40 ADD MLOAD PUSH2 0x16B0 JUMP JUMPDEST PUSH1 0x40 DUP9 ADD MSTORE SWAP3 POP PUSH2 0x106C JUMP JUMPDEST PUSH1 0x0 SWAP3 POP JUMPDEST PUSH1 0x0 DUP6 SGT ISZERO PUSH2 0x1093 JUMPI PUSH2 0x1089 DUP7 PUSH1 0x60 ADD MLOAD DUP8 PUSH1 0xC0 ADD MLOAD DUP8 DUP8 PUSH2 0x11CB JUMP JUMPDEST SWAP1 SWAP3 POP SWAP1 POP PUSH2 0x109A JUMP JUMPDEST POP PUSH1 0x0 SWAP1 POP DUP1 JUMPDEST SWAP4 POP SWAP4 POP SWAP4 SWAP1 POP JUMP JUMPDEST PUSH2 0x10AB PUSH2 0x4557 JUMP JUMPDEST PUSH2 0xC34 DUP3 TIMESTAMP PUSH2 0x175B JUMP JUMPDEST PUSH1 0x0 PUSH3 0xF4240 DUP3 PUSH1 0x26 DUP2 GT ISZERO PUSH2 0x10C7 JUMPI INVALID JUMPDEST ADD SWAP3 SWAP2 POP POP JUMP JUMPDEST PUSH2 0x10D6 PUSH2 0x4509 JUMP JUMPDEST PUSH1 0x0 PUSH2 0x10E5 DUP5 PUSH2 0xFFFF AND PUSH2 0x181C JUMP JUMPDEST PUSH1 0x40 DUP1 MLOAD PUSH1 0x80 DUP2 ADD DUP3 MSTORE PUSH2 0xFFFF SWAP7 SWAP1 SWAP7 AND DUP7 MSTORE PUSH1 0xFF DUP3 AND PUSH1 0x20 DUP8 ADD MSTORE DUP6 ADD SWAP4 SWAP1 SWAP4 MSTORE POP POP PUSH1 0x60 DUP3 ADD MSTORE SWAP1 JUMP JUMPDEST PUSH1 0x0 DUP1 PUSH1 0x0 DUP1 PUSH1 0x0 PUSH2 0x1121 PUSH2 0x1839 JUMP JUMPDEST PUSH1 0x1 PUSH1 0x1 PUSH1 0xA0 SHL SUB DUP10 AND PUSH1 0x0 SWAP1 DUP2 MSTORE PUSH1 0x20 DUP3 DUP2 MSTORE PUSH1 0x40 DUP1 DUP4 KECCAK256 PUSH2 0xFFFF DUP13 AND DUP5 MSTORE SWAP1 SWAP2 MSTORE SWAP1 KECCAK256 DUP1 SLOAD PUSH1 0x1 PUSH1 0x1 PUSH1 0x50 SHL SUB DUP2 AND SWAP7 POP PUSH1 0x1 PUSH1 0x50 SHL SWAP1 DIV PUSH4 0xFFFFFFFF AND SWAP5 POP SWAP1 SWAP2 POP DUP4 ISZERO PUSH2 0x118E JUMPI DUP1 SLOAD PUSH2 0x1187 SWAP1 PUSH1 0x1 PUSH1 0x70 SHL SWAP1 DIV PUSH7 0xFFFFFFFFFFFFFF AND PUSH2 0x1846 JUMP JUMPDEST SWAP3 POP PUSH2 0x11A3 JUMP JUMPDEST DUP1 SLOAD PUSH1 0x1 PUSH1 0x70 SHL SWAP1 DIV PUSH7 0xFFFFFFFFFFFFFF AND SWAP3 POP JUMPDEST DUP1 SLOAD PUSH2 0x11BE SWAP1 DUP9 SWAP1 PUSH1 0x1 PUSH1 0xA8 SHL SWAP1 DIV PUSH1 0xA SWAP1 DUP2 SIGNEXTEND SWAP1 SIGNEXTEND PUSH2 0x1854 JUMP JUMPDEST SWAP6 POP POP POP SWAP4 POP SWAP4 POP SWAP4 POP SWAP4 JUMP JUMPDEST DUP4 MLOAD PUSH1 0x0 SWAP1 DUP2 SWAP1 PUSH2 0x11DD SWAP1 DUP7 SWAP1 PUSH2 0x1882 JUMP JUMPDEST DUP6 DUP6 MSTORE PUSH1 0x0 PUSH2 0x11EC DUP7 DUP6 PUSH2 0x191E JUMP JUMPDEST SWAP1 POP PUSH1 0x0 PUSH2 0x122B DUP8 PUSH1 0x40 ADD MLOAD PUSH2 0x1225 PUSH1 0x64 PUSH2 0x1225 DUP12 PUSH1 0xA0 ADD MLOAD PUSH1 0x3 PUSH1 0xFF AND PUSH1 0x6 DUP2 LT PUSH2 0x1214 JUMPI INVALID JUMPDEST BYTE PUSH2 0x121F DUP13 DUP10 PUSH2 0x19D6 JUMP JUMPDEST SWAP1 PUSH2 0x19D6 JUMP JUMPDEST SWAP1 PUSH2 0x1A24 JUMP JUMPDEST PUSH1 0xA0 SWAP8 SWAP1 SWAP8 ADD MLOAD SWAP7 SWAP9 SWAP7 SWAP8 POP POP POP POP POP POP POP JUMP JUMPDEST PUSH1 0x0 DUP1 PUSH1 0x0 PUSH2 0x124E DUP10 DUP10 PUSH2 0x1A55 JUMP JUMPDEST SWAP1 POP PUSH2 0x125F DUP10 DUP10 DUP10 DUP10 DUP10 DUP10 DUP8 PUSH2 0x1A8A JUMP JUMPDEST SWAP3 POP SWAP3 POP POP SWAP7 POP SWAP7 SWAP5 POP POP POP POP POP JUMP JUMPDEST DUP2 MLOAD PUSH1 0x0 SWAP1 PUSH2 0xC7A SWAP1 PUSH2 0x1225 DUP5 PUSH15 0xC097CE7BC90715B34B9F1000000000 PUSH2 0x19D6 JUMP JUMPDEST PUSH2 0x1299 PUSH2 0x4528 JUMP JUMPDEST PUSH1 0x0 PUSH2 0x12A3 PUSH2 0x1B08 JUMP JUMPDEST PUSH1 0x0 DUP5 DUP2 MSTORE PUSH1 0x20 DUP3 SWAP1 MSTORE PUSH1 0x40 DUP2 KECCAK256 SWAP2 SWAP3 POP DUP1 PUSH1 0x1 DUP7 EQ ISZERO PUSH2 0x12D0 JUMPI POP PUSH8 0xDE0B6B3A7640000 SWAP1 POP DUP1 PUSH2 0x1393 JUMP JUMPDEST DUP3 SLOAD PUSH1 0x40 DUP1 MLOAD PUSH4 0x3FABE5A3 PUSH1 0xE2 SHL DUP2 MSTORE SWAP1 MLOAD PUSH1 0x1 PUSH1 0x1 PUSH1 0xA0 SHL SUB SWAP1 SWAP3 AND SWAP2 PUSH4 0xFEAF968C SWAP2 PUSH1 0x4 DUP1 DUP3 ADD SWAP3 PUSH1 0xA0 SWAP3 SWAP1 SWAP2 SWAP1 DUP3 SWAP1 SUB ADD DUP2 DUP7 DUP1 EXTCODESIZE ISZERO DUP1 ISZERO PUSH2 0x1314 JUMPI PUSH1 0x0 DUP1 REVERT JUMPDEST POP GAS STATICCALL ISZERO DUP1 ISZERO PUSH2 0x1328 JUMPI RETURNDATASIZE PUSH1 0x0 DUP1 RETURNDATACOPY RETURNDATASIZE PUSH1 0x0 REVERT JUMPDEST POP POP POP POP PUSH1 0x40 MLOAD RETURNDATASIZE PUSH1 0x1F NOT PUSH1 0x1F DUP3 ADD AND DUP3 ADD DUP1 PUSH1 0x40 MSTORE POP DUP2 ADD SWAP1 PUSH2 0x134C SWAP2 SWAP1 PUSH2 0x48A4 JUMP JUMPDEST POP SWAP2 SWAP4 POP POP PUSH1 0x0 DUP4 SGT SWAP2 POP PUSH2 0x1362 SWAP1 POP JUMPI PUSH1 0x0 DUP1 REVERT JUMPDEST DUP3 SLOAD PUSH1 0xFF PUSH1 0x1 PUSH1 0xA0 SHL DUP3 DIV DUP2 AND PUSH1 0xA EXP SWAP4 POP PUSH1 0x1 PUSH1 0xA8 SHL SWAP1 SWAP2 DIV AND ISZERO PUSH2 0x1393 JUMPI PUSH2 0x1390 DUP2 PUSH2 0x1225 DUP5 DUP1 PUSH2 0x19D6 JUMP JUMPDEST SWAP1 POP JUMPDEST DUP3 SLOAD PUSH1 0x1 PUSH1 0xB0 SHL SWAP1 DIV PUSH1 0xFF AND PUSH1 0x96 DUP2 SGT ISZERO PUSH2 0x13B3 JUMPI PUSH1 0x95 NOT ADD PUSH1 0xA MUL PUSH1 0x96 ADD JUMPDEST PUSH1 0x40 DUP1 MLOAD PUSH1 0xA0 DUP2 ADD DUP3 MSTORE SWAP4 DUP5 MSTORE PUSH1 0x20 DUP5 ADD SWAP3 SWAP1 SWAP3 MSTORE SWAP1 DUP3 ADD MSTORE SWAP1 SLOAD PUSH1 0xFF PUSH1 0x1 PUSH1 0xB8 SHL DUP3 DIV DUP2 AND PUSH1 0x60 DUP5 ADD MSTORE PUSH1 0x1 PUSH1 0xC0 SHL SWAP1 SWAP2 DIV AND PUSH1 0x80 DUP3 ADD MSTORE SWAP2 POP POP SWAP2 SWAP1 POP JUMP JUMPDEST PUSH1 0x0 PUSH2 0xC7A PUSH15 0xC097CE7BC90715B34B9F1000000000 PUSH2 0x1225 DUP6 PUSH1 0x0 ADD MLOAD DUP6 PUSH2 0x19D6 SWAP1 SWAP2 SWAP1 PUSH4 0xFFFFFFFF AND JUMP JUMPDEST PUSH1 0x0 DUP1 PUSH1 0x0 DUP4 SGT PUSH2 0x1435 JUMPI DUP4 PUSH1 0x40 ADD MLOAD PUSH2 0x143B JUMP JUMPDEST DUP4 PUSH1 0x60 ADD MLOAD JUMPDEST SWAP1 POP PUSH1 0x0 PUSH2 0xEBA DUP6 PUSH1 0x0 ADD MLOAD PUSH2 0x1225 PUSH1 0x64 PUSH2 0x1225 DUP7 PUSH2 0x121F DUP12 PUSH1 0x20 ADD MLOAD DUP12 PUSH2 0x19D6 SWAP1 SWAP2 SWAP1 PUSH4 0xFFFFFFFF AND JUMP JUMPDEST PUSH1 0x60 DUP1 PUSH2 0x1474 DUP5 DUP5 PUSH2 0x1B15 JUMP JUMPDEST SWAP2 POP PUSH2 0x147F DUP3 PUSH2 0x1C37 JUMP JUMPDEST SWAP1 POP SWAP3 POP SWAP3 SWAP1 POP JUMP JUMPDEST PUSH2 0x1490 PUSH2 0x4578 JUMP JUMPDEST PUSH1 0x0 PUSH2 0x149A PUSH2 0x1DF8 JUMP JUMPDEST PUSH2 0xFFFF SWAP4 DUP5 AND PUSH1 0x0 SWAP1 DUP2 MSTORE PUSH1 0x20 SWAP2 DUP3 MSTORE PUSH1 0x40 SWAP1 DUP2 SWAP1 KECCAK256 DUP1 SLOAD PUSH5 0xFFFFFFFFFF DUP2 AND DUP7 MSTORE PUSH1 0x1 PUSH1 0x28 SHL DUP2 DIV PUSH1 0x1 PUSH1 0x1 PUSH1 0x58 SHL SUB SWAP1 DUP2 AND SWAP5 DUP8 ADD SWAP5 SWAP1 SWAP5 MSTORE PUSH1 0x1 DUP3 ADD SLOAD DUP5 AND SWAP3 DUP7 ADD SWAP3 SWAP1 SWAP3 MSTORE PUSH1 0x1 PUSH1 0xD8 SHL DUP3 DIV PUSH4 0xFFFFFFFF AND PUSH1 0x60 DUP7 ADD MSTORE PUSH1 0x1 PUSH1 0x80 SHL SWAP1 SWAP2 DIV SWAP1 SWAP2 AND PUSH1 0x80 DUP5 ADD MSTORE PUSH1 0x2 ADD SLOAD PUSH1 0x1 PUSH1 0x1 PUSH1 0x50 SHL SUB DUP1 DUP3 AND PUSH1 0xA0 DUP6 ADD MSTORE PUSH1 0x1 PUSH1 0x50 SHL DUP3 DIV DUP2 AND PUSH1 0xC0 DUP6 ADD MSTORE PUSH1 0x1 PUSH1 0xA0 SHL DUP3 DIV AND PUSH1 0xE0 DUP5 ADD MSTORE PUSH1 0x1 PUSH1 0xF0 SHL SWAP1 DIV PUSH1 0xFF AND PUSH2 0x12C MUL SWAP1 SWAP3 AND PUSH2 0x100 DUP3 ADD MSTORE SWAP2 SWAP1 POP JUMP JUMPDEST PUSH1 0x0 DUP1 PUSH2 0x155C DUP4 PUSH2 0x1E05 JUMP JUMPDEST PUSH1 0x1 PUSH1 0x1 PUSH1 0xA0 SHL SUB AND PUSH4 0xA77C05B8 PUSH1 0x40 MLOAD DUP2 PUSH4 0xFFFFFFFF AND PUSH1 0xE0 SHL DUP2 MSTORE PUSH1 0x4 ADD PUSH1 0x40 DUP1 MLOAD DUP1 DUP4 SUB DUP2 DUP7 DUP1 EXTCODESIZE ISZERO DUP1 ISZERO PUSH2 0x1593 JUMPI PUSH1 0x0 DUP1 REVERT JUMPDEST POP GAS STATICCALL ISZERO DUP1 ISZERO PUSH2 0x15A7 JUMPI RETURNDATASIZE PUSH1 0x0 DUP1 RETURNDATACOPY RETURNDATASIZE PUSH1 0x0 REVERT JUMPDEST POP POP POP POP PUSH1 0x40 MLOAD RETURNDATASIZE PUSH1 0x1F NOT PUSH1 0x1F DUP3 ADD AND DUP3 ADD DUP1 PUSH1 0x40 MSTORE POP DUP2 ADD SWAP1 PUSH2 0xD8D SWAP2 SWAP1 PUSH2 0x4881 JUMP JUMPDEST PUSH2 0x15D3 PUSH2 0x4578 JUMP JUMPDEST PUSH1 0x0 DUP1 PUSH1 0x0 PUSH2 0x15E3 DUP9 DUP7 DUP10 PUSH2 0x1E35 JUMP JUMPDEST PUSH1 0xC0 DUP12 ADD SWAP3 SWAP1 SWAP3 MSTORE PUSH1 0xE0 DUP11 ADD SWAP3 SWAP1 SWAP3 MSTORE PUSH1 0x20 DUP10 ADD MLOAD SWAP2 SWAP4 POP SWAP2 POP PUSH2 0x1607 SWAP1 DUP4 PUSH2 0x1F46 JUMP JUMPDEST PUSH1 0x20 DUP9 ADD MSTORE PUSH1 0x80 DUP8 ADD MLOAD PUSH1 0x0 SWAP1 ISZERO PUSH2 0x1635 JUMPI PUSH1 0x80 DUP9 ADD MLOAD PUSH2 0x1632 SWAP1 PUSH2 0x162C DUP10 DUP3 PUSH2 0x1F58 JUMP JUMPDEST SWAP1 PUSH2 0x1F6D JUMP JUMPDEST SWAP1 POP JUMPDEST PUSH2 0x1655 PUSH2 0x164A PUSH8 0xDE0B6B3A7640000 DUP4 PUSH2 0x1F46 JUMP JUMPDEST PUSH1 0xA0 DUP11 ADD MLOAD SWAP1 PUSH2 0x1F8A JUMP JUMPDEST PUSH1 0xA0 DUP10 ADD MSTORE POP POP PUSH1 0x80 DUP7 ADD SWAP5 SWAP1 SWAP5 MSTORE POP POP DUP3 MSTORE SWAP1 SWAP3 SWAP1 SWAP2 POP JUMP JUMPDEST PUSH1 0x0 DUP3 PUSH2 0x167E JUMPI POP PUSH1 0x0 PUSH2 0xC34 JUMP JUMPDEST DUP3 DUP3 MUL DUP3 DUP5 DUP3 DUP2 PUSH2 0x168B JUMPI INVALID JUMPDEST DIV EQ PUSH2 0xC7A JUMPI PUSH1 0x0 DUP1 REVERT JUMPDEST PUSH1 0x0 PUSH1 0x1 PUSH1 0x1 PUSH1 0xFF SHL SUB DUP3 GT ISZERO PUSH2 0x16AC JUMPI PUSH1 0x0 DUP1 REVERT JUMPDEST POP SWAP1 JUMP JUMPDEST PUSH1 0x0 DUP1 DUP1 DUP1 DUP5 JUMPDEST DUP9 MLOAD DUP2 LT ISZERO PUSH2 0x1733 JUMPI PUSH1 0x0 DUP10 DUP3 DUP2 MLOAD DUP2 LT PUSH2 0x16CE JUMPI INVALID JUMPDEST PUSH1 0x20 MUL PUSH1 0x20 ADD ADD MLOAD SWAP1 POP PUSH1 0x1 PUSH1 0xFF AND DUP2 PUSH1 0x40 ADD MLOAD EQ PUSH2 0x16ED JUMPI POP PUSH2 0x172B JUMP JUMPDEST DUP9 MLOAD DUP2 MLOAD PUSH2 0xFFFF SWAP1 DUP2 AND SWAP2 AND EQ PUSH2 0x1704 JUMPI POP PUSH2 0x1733 JUMP JUMPDEST PUSH1 0x0 PUSH2 0x171A DUP11 DUP4 PUSH1 0x60 ADD MLOAD DUP5 PUSH1 0x20 ADD MLOAD DUP13 PUSH2 0x1FA7 JUMP JUMPDEST SWAP1 POP PUSH2 0x1726 DUP5 DUP3 PUSH2 0xD95 JUMP JUMPDEST SWAP4 POP POP POP JUMPDEST PUSH1 0x1 ADD PUSH2 0x16B7 JUMP JUMPDEST PUSH1 0x40 DUP9 ADD MLOAD PUSH2 0x174D SWAP1 PUSH2 0x1746 SWAP1 DUP5 PUSH2 0x126F JUMP JUMPDEST DUP5 SWAP1 PUSH2 0xD95 JUMP JUMPDEST SWAP10 SWAP1 SWAP9 POP SWAP7 POP POP POP POP POP POP POP JUMP JUMPDEST PUSH2 0x1763 PUSH2 0x4557 JUMP JUMPDEST PUSH1 0x0 PUSH2 0x176E DUP5 PUSH2 0x1488 JUMP JUMPDEST SWAP1 POP DUP3 DUP2 PUSH1 0x0 ADD MLOAD LT ISZERO PUSH2 0x17AD JUMPI PUSH1 0x0 DUP1 PUSH2 0x1788 DUP7 PUSH2 0x1FF7 JUMP JUMPDEST SWAP1 POP PUSH2 0x1796 DUP7 DUP5 DUP4 DUP9 PUSH2 0x15CB JUMP JUMPDEST SWAP1 SWAP4 POP SWAP2 POP PUSH2 0x17A6 DUP7 DUP4 DUP6 PUSH2 0x2050 JUMP JUMPDEST POP POP PUSH2 0x17BA JUMP JUMPDEST DUP1 MLOAD DUP4 EQ PUSH2 0x17BA JUMPI PUSH1 0x0 DUP1 REVERT JUMPDEST PUSH1 0x40 MLOAD DUP1 PUSH1 0x60 ADD PUSH1 0x40 MSTORE DUP1 PUSH2 0x17E3 PUSH2 0xF64 DUP5 PUSH1 0xA0 ADD MLOAD DUP6 PUSH1 0xC0 ADD MLOAD PUSH2 0x166F SWAP1 SWAP2 SWAP1 PUSH4 0xFFFFFFFF AND JUMP JUMPDEST DUP2 MSTORE PUSH1 0x20 ADD PUSH2 0x1806 PUSH2 0xF64 DUP5 PUSH1 0xA0 ADD MLOAD DUP6 PUSH1 0xE0 ADD MLOAD PUSH2 0x166F SWAP1 SWAP2 SWAP1 PUSH4 0xFFFFFFFF AND JUMP JUMPDEST DUP2 MSTORE PUSH1 0x20 ADD DUP3 PUSH1 0x60 ADD MLOAD DUP2 MSTORE POP SWAP2 POP POP SWAP3 SWAP2 POP POP JUMP JUMPDEST PUSH1 0x0 DUP1 PUSH2 0x1827 PUSH2 0x2284 JUMP JUMPDEST PUSH1 0x0 SWAP4 DUP5 MSTORE PUSH1 0x20 MSTORE POP POP PUSH1 0x40 SWAP1 KECCAK256 SLOAD SWAP1 JUMP JUMPDEST PUSH1 0x0 DUP1 PUSH2 0xC34 PUSH1 0x6 PUSH2 0x10B5 JUMP JUMPDEST PUSH1 0x8 DUP2 SWAP1 SHR PUSH1 0xFF SWAP1 SWAP2 AND SHL SWAP1 JUMP JUMPDEST PUSH1 0x0 DUP1 DUP3 SLT PUSH2 0x1864 JUMPI POP DUP1 PUSH2 0xC34 JUMP JUMPDEST DUP3 MLOAD PUSH1 0x20 DUP5 ADD MLOAD PUSH2 0x187B SWAP2 SWAP1 PUSH2 0x1225 SWAP1 DUP6 SWAP1 PUSH2 0x19D6 JUMP JUMPDEST SWAP1 POP PUSH2 0xC34 JUMP JUMPDEST PUSH2 0x188F DUP2 PUSH2 0xFFFF AND PUSH2 0x2291 JUMP JUMPDEST PUSH1 0x1 PUSH1 0x1 PUSH1 0xA0 SHL SUB AND PUSH1 0xC0 DUP4 ADD DUP2 SWAP1 MSTORE PUSH1 0x0 SWAP1 DUP2 SWAP1 DUP2 SWAP1 PUSH2 0x18AF SWAP1 PUSH2 0x22B7 JUMP JUMPDEST SWAP5 POP SWAP5 POP SWAP5 POP POP POP PUSH1 0x0 PUSH2 0x18C6 DUP7 PUSH1 0xC0 ADD MLOAD PUSH2 0x2320 JUMP JUMPDEST POP POP PUSH1 0x80 DUP8 ADD DUP6 SWAP1 MSTORE PUSH1 0x40 DUP8 ADD DUP2 SWAP1 MSTORE PUSH1 0x1 PUSH1 0x1 PUSH1 0xD8 SHL SUB NOT DUP4 AND PUSH1 0xA0 DUP9 ADD MSTORE PUSH1 0xC0 DUP8 ADD MLOAD SWAP1 SWAP2 POP PUSH2 0x18FA SWAP1 DUP5 PUSH1 0x0 PUSH2 0x238A JUMP JUMPDEST PUSH1 0x20 DUP8 ADD MSTORE PUSH1 0xC0 DUP7 ADD MLOAD PUSH2 0x190E SWAP1 DUP7 PUSH2 0x241D JUMP JUMPDEST PUSH1 0x60 SWAP1 SWAP7 ADD SWAP6 SWAP1 SWAP6 MSTORE POP POP POP POP POP JUMP JUMPDEST PUSH1 0x0 DUP1 PUSH2 0x192A DUP5 PUSH2 0x2476 JUMP JUMPDEST SWAP1 POP DUP3 DUP2 GT PUSH2 0x193A JUMPI PUSH1 0x1 DUP2 SUB SWAP3 POP JUMPDEST POP PUSH1 0x0 PUSH2 0x1947 DUP5 DUP5 PUSH2 0x24A0 JUMP JUMPDEST POP SWAP1 POP PUSH1 0x0 PUSH2 0x1975 DUP6 PUSH1 0xC0 ADD MLOAD DUP7 PUSH1 0x0 ADD MLOAD PUSH1 0x0 ADD MLOAD PUSH2 0xFFFF AND DUP8 PUSH1 0x80 ADD MLOAD DUP8 DUP10 PUSH1 0x0 ADD MLOAD PUSH1 0x20 ADD MLOAD PUSH2 0x25EE JUMP JUMPDEST SWAP1 POP PUSH1 0x0 DUP2 ISZERO PUSH2 0x19A7 JUMPI PUSH1 0xC0 DUP7 ADD MLOAD DUP7 MLOAD DUP1 MLOAD PUSH1 0x80 DUP10 ADD MLOAD PUSH2 0x19A3 SWAP4 SWAP3 PUSH2 0xFFFF SWAP1 SWAP3 AND SWAP2 DUP10 SWAP1 PUSH1 0x0 DUP9 PUSH2 0x1A8A JUMP JUMPDEST POP SWAP1 POP JUMPDEST PUSH1 0x60 DUP7 ADD MLOAD DUP7 MLOAD PUSH1 0x40 ADD MLOAD PUSH2 0x19CC SWAP2 SWAP1 PUSH2 0x503 SWAP1 PUSH2 0x19C5 SWAP1 DUP6 PUSH2 0x126F JUMP JUMPDEST DUP7 SWAP1 PUSH2 0xD95 JUMP JUMPDEST SWAP7 SWAP6 POP POP POP POP POP POP JUMP JUMPDEST DUP2 DUP2 MUL PUSH1 0x0 NOT DUP4 EQ ISZERO PUSH2 0x1A06 JUMPI DUP2 ISZERO DUP1 PUSH2 0x19F8 JUMPI POP DUP3 DUP3 DUP3 DUP2 PUSH2 0x19F5 JUMPI INVALID JUMPDEST SDIV EQ JUMPDEST PUSH2 0x1A01 JUMPI PUSH1 0x0 DUP1 REVERT JUMPDEST PUSH2 0xC34 JUMP JUMPDEST DUP3 ISZERO DUP1 PUSH2 0x1A1B JUMPI POP DUP2 DUP4 DUP3 DUP2 PUSH2 0x1A18 JUMPI INVALID JUMPDEST SDIV EQ JUMPDEST PUSH2 0xC34 JUMPI PUSH1 0x0 DUP1 REVERT JUMPDEST PUSH1 0x0 DUP2 PUSH1 0x0 NOT EQ DUP1 ISZERO PUSH2 0x1A3A JUMPI POP PUSH1 0x1 PUSH1 0xFF SHL DUP4 EQ JUMPDEST ISZERO PUSH2 0x1A44 JUMPI PUSH1 0x0 DUP1 REVERT JUMPDEST DUP2 DUP4 DUP2 PUSH2 0x1A4D JUMPI INVALID JUMPDEST SDIV SWAP4 SWAP3 POP POP POP JUMP JUMPDEST PUSH1 0x0 DUP1 PUSH2 0x1A60 PUSH2 0x269A JUMP JUMPDEST PUSH1 0x1 PUSH1 0x1 PUSH1 0xA0 SHL SUB DUP6 AND PUSH1 0x0 SWAP1 DUP2 MSTORE PUSH1 0x20 SWAP2 DUP3 MSTORE PUSH1 0x40 DUP1 DUP3 KECCAK256 DUP7 DUP4 MSTORE SWAP1 SWAP3 MSTORE KECCAK256 SLOAD SWAP2 POP POP SWAP3 SWAP2 POP POP JUMP JUMPDEST PUSH1 0x0 DUP1 PUSH1 0x0 PUSH2 0x1A98 DUP5 PUSH2 0x26A7 JUMP JUMPDEST SWAP1 POP JUMPDEST DUP1 ISZERO PUSH2 0x1AFB JUMPI PUSH1 0x0 PUSH2 0x1AAD DUP10 DUP4 PUSH2 0x26CC JUMP JUMPDEST SWAP1 POP PUSH1 0x0 PUSH2 0x1ABF DUP13 DUP13 DUP5 DUP13 DUP13 DUP13 PUSH2 0x277F JUMP JUMPDEST SWAP1 POP PUSH2 0x1ACB DUP6 DUP3 PUSH2 0xD95 JUMP JUMPDEST SWAP5 POP PUSH1 0x0 DUP2 SLT ISZERO PUSH2 0x1ADB JUMPI PUSH1 0x1 SWAP4 POP JUMPDEST PUSH2 0x1AE7 DUP7 DUP5 PUSH1 0x0 PUSH2 0x27DF JUMP JUMPDEST SWAP6 POP PUSH2 0x1AF2 DUP7 PUSH2 0x26A7 JUMP JUMPDEST SWAP3 POP POP POP PUSH2 0x1A9B JUMP JUMPDEST POP SWAP8 POP SWAP8 SWAP6 POP POP POP POP POP POP JUMP JUMPDEST PUSH1 0x0 DUP1 PUSH2 0xC34 PUSH1 0x10 PUSH2 0x10B5 JUMP JUMPDEST PUSH1 0x60 PUSH1 0x8 DUP3 PUSH1 0xFF AND GT ISZERO PUSH2 0x1B28 JUMPI PUSH1 0x0 DUP1 REVERT JUMPDEST PUSH1 0x0 PUSH2 0x1B32 PUSH2 0x282A JUMP JUMPDEST PUSH1 0x1 PUSH1 0x1 PUSH1 0xA0 SHL SUB DUP6 AND PUSH1 0x0 SWAP1 DUP2 MSTORE PUSH1 0x20 DUP3 SWAP1 MSTORE PUSH1 0x40 DUP2 KECCAK256 SWAP2 SWAP3 POP PUSH1 0xFF DUP6 AND PUSH8 0xFFFFFFFFFFFFFFFF DUP2 GT DUP1 ISZERO PUSH2 0x1B67 JUMPI PUSH1 0x0 DUP1 REVERT JUMPDEST POP PUSH1 0x40 MLOAD SWAP1 DUP1 DUP3 MSTORE DUP1 PUSH1 0x20 MUL PUSH1 0x20 ADD DUP3 ADD PUSH1 0x40 MSTORE DUP1 ISZERO PUSH2 0x1BA1 JUMPI DUP2 PUSH1 0x20 ADD JUMPDEST PUSH2 0x1B8E PUSH2 0x45C4 JUMP JUMPDEST DUP2 MSTORE PUSH1 0x20 ADD SWAP1 PUSH1 0x1 SWAP1 SUB SWAP1 DUP2 PUSH2 0x1B86 JUMPI SWAP1 POP JUMPDEST POP SWAP1 POP PUSH1 0x0 JUMPDEST DUP6 PUSH1 0xFF AND DUP2 LT ISZERO PUSH2 0x1C2D JUMPI PUSH1 0x0 DUP4 DUP3 PUSH1 0x8 DUP2 LT PUSH2 0x1BC0 JUMPI INVALID JUMPDEST ADD SWAP1 POP PUSH1 0x0 DUP4 DUP4 DUP2 MLOAD DUP2 LT PUSH2 0x1BD1 JUMPI INVALID JUMPDEST PUSH1 0x20 SWAP1 DUP2 MUL SWAP2 SWAP1 SWAP2 ADD DUP2 ADD MLOAD DUP4 SLOAD PUSH2 0xFFFF DUP2 AND DUP3 MSTORE PUSH5 0xFFFFFFFFFF PUSH3 0x10000 DUP3 DIV AND SWAP3 DUP3 ADD SWAP3 SWAP1 SWAP3 MSTORE PUSH1 0xFF PUSH1 0x1 PUSH1 0x38 SHL DUP4 DIV AND PUSH1 0x40 DUP3 ADD MSTORE PUSH1 0x1 PUSH1 0x40 SHL SWAP1 SWAP2 DIV PUSH1 0xA SWAP1 DUP2 SIGNEXTEND SWAP1 SIGNEXTEND PUSH1 0x60 DUP3 ADD MSTORE PUSH1 0x80 ADD SWAP2 SWAP1 SWAP2 MSTORE POP PUSH1 0x1 ADD PUSH2 0x1BA7 JUMP JUMPDEST POP SWAP6 SWAP5 POP POP POP POP POP JUMP JUMPDEST DUP1 MLOAD PUSH1 0x60 SWAP1 DUP1 PUSH8 0xFFFFFFFFFFFFFFFF DUP2 GT DUP1 ISZERO PUSH2 0x1C53 JUMPI PUSH1 0x0 DUP1 REVERT JUMPDEST POP PUSH1 0x40 MLOAD SWAP1 DUP1 DUP3 MSTORE DUP1 PUSH1 0x20 MUL PUSH1 0x20 ADD DUP3 ADD PUSH1 0x40 MSTORE DUP1 ISZERO PUSH2 0x1C7D JUMPI DUP2 PUSH1 0x20 ADD PUSH1 0x20 DUP3 MUL DUP1 CALLDATASIZE DUP4 CALLDATACOPY ADD SWAP1 POP JUMPDEST POP SWAP2 POP PUSH1 0x0 JUMPDEST DUP2 DUP2 LT ISZERO PUSH2 0x1CDA JUMPI PUSH1 0x0 DUP5 DUP3 DUP2 MLOAD DUP2 LT PUSH2 0x1C99 JUMPI INVALID JUMPDEST PUSH1 0x20 MUL PUSH1 0x20 ADD ADD MLOAD SWAP1 POP PUSH2 0x1CBA DUP2 PUSH1 0x0 ADD MLOAD DUP3 PUSH1 0x20 ADD MLOAD DUP4 PUSH1 0x40 ADD MLOAD PUSH2 0x2837 JUMP JUMPDEST DUP5 DUP4 DUP2 MLOAD DUP2 LT PUSH2 0x1CC6 JUMPI INVALID JUMPDEST PUSH1 0x20 SWAP1 DUP2 MUL SWAP2 SWAP1 SWAP2 ADD ADD MSTORE POP PUSH1 0x1 ADD PUSH2 0x1C83 JUMP JUMPDEST POP PUSH1 0x1 JUMPDEST DUP2 DUP2 LT ISZERO PUSH2 0x1DF1 JUMPI DUP1 JUMPDEST PUSH1 0x0 DUP2 GT DUP1 ISZERO PUSH2 0x1D20 JUMPI POP DUP4 DUP2 DUP2 MLOAD DUP2 LT PUSH2 0x1CFF JUMPI INVALID JUMPDEST PUSH1 0x20 MUL PUSH1 0x20 ADD ADD MLOAD DUP5 PUSH1 0x1 DUP4 SUB DUP2 MLOAD DUP2 LT PUSH2 0x1D16 JUMPI INVALID JUMPDEST PUSH1 0x20 MUL PUSH1 0x20 ADD ADD MLOAD GT JUMPDEST ISZERO PUSH2 0x1DE8 JUMPI DUP4 DUP2 DUP2 MLOAD DUP2 LT PUSH2 0x1D31 JUMPI INVALID JUMPDEST PUSH1 0x20 MUL PUSH1 0x20 ADD ADD MLOAD DUP5 PUSH1 0x1 DUP4 SUB DUP2 MLOAD DUP2 LT PUSH2 0x1D48 JUMPI INVALID JUMPDEST PUSH1 0x20 MUL PUSH1 0x20 ADD ADD MLOAD DUP6 PUSH1 0x1 DUP5 SUB DUP2 MLOAD DUP2 LT PUSH2 0x1D5F JUMPI INVALID JUMPDEST PUSH1 0x20 MUL PUSH1 0x20 ADD ADD DUP7 DUP5 DUP2 MLOAD DUP2 LT PUSH2 0x1D72 JUMPI INVALID JUMPDEST PUSH1 0x20 MUL PUSH1 0x20 ADD ADD DUP3 DUP2 MSTORE POP DUP3 DUP2 MSTORE POP POP POP DUP5 DUP2 DUP2 MLOAD DUP2 LT PUSH2 0x1D8F JUMPI INVALID JUMPDEST PUSH1 0x20 MUL PUSH1 0x20 ADD ADD MLOAD DUP6 PUSH1 0x1 DUP4 SUB DUP2 MLOAD DUP2 LT PUSH2 0x1DA6 JUMPI INVALID JUMPDEST PUSH1 0x20 MUL PUSH1 0x20 ADD ADD MLOAD DUP7 PUSH1 0x1 DUP5 SUB DUP2 MLOAD DUP2 LT PUSH2 0x1DBD JUMPI INVALID JUMPDEST PUSH1 0x20 MUL PUSH1 0x20 ADD ADD DUP8 DUP5 DUP2 MLOAD DUP2 LT PUSH2 0x1DD0 JUMPI INVALID JUMPDEST PUSH1 0x20 SWAP1 DUP2 MUL SWAP2 SWAP1 SWAP2 ADD ADD SWAP2 SWAP1 SWAP2 MSTORE MSTORE PUSH1 0x0 NOT ADD PUSH2 0x1CE8 JUMP JUMPDEST POP PUSH1 0x1 ADD PUSH2 0x1CDE JUMP JUMPDEST POP POP SWAP2 SWAP1 POP JUMP JUMPDEST PUSH1 0x0 DUP1 PUSH2 0xC34 PUSH1 0x1D PUSH2 0x10B5 JUMP JUMPDEST PUSH1 0x0 DUP1 PUSH2 0x1E10 PUSH2 0x2860 JUMP JUMPDEST PUSH2 0xFFFF SWAP4 SWAP1 SWAP4 AND PUSH1 0x0 SWAP1 DUP2 MSTORE PUSH1 0x20 SWAP4 SWAP1 SWAP4 MSTORE POP POP PUSH1 0x40 SWAP1 KECCAK256 SLOAD PUSH1 0x1 PUSH1 0x1 PUSH1 0xA0 SHL SUB AND SWAP1 JUMP JUMPDEST PUSH1 0x0 DUP1 PUSH1 0x0 DUP1 PUSH1 0x0 DUP1 PUSH2 0x1E48 DUP10 DUP9 PUSH2 0x286D JUMP JUMPDEST DUP10 MLOAD SWAP1 SWAP6 POP SWAP2 SWAP4 POP SWAP2 POP PUSH1 0x0 SWAP1 PUSH2 0x1E6F SWAP1 PUSH2 0x1E64 SWAP1 DUP12 SWAP1 PUSH2 0x1F58 JUMP JUMPDEST PUSH4 0x3B9ACA00 SWAP1 PUSH2 0x166F JUMP JUMPDEST SWAP1 POP PUSH2 0x1EA9 PUSH2 0x1E9E PUSH4 0x1DA9C00 PUSH2 0x1E86 DUP6 DUP6 PUSH2 0x166F JUMP JUMPDEST DUP2 PUSH2 0x1E8D JUMPI INVALID JUMPDEST PUSH8 0xDE0B6B3A7640000 SWAP2 SWAP1 DIV PUSH2 0x1F46 JUMP JUMPDEST PUSH1 0xE0 DUP11 ADD MLOAD SWAP1 PUSH2 0x1F8A JUMP JUMPDEST SWAP7 POP PUSH2 0x1ECB PUSH2 0x1EC0 PUSH4 0x1DA9C00 PUSH2 0x1E86 DUP8 DUP6 PUSH2 0x166F JUMP JUMPDEST PUSH1 0xC0 DUP11 ADD MLOAD SWAP1 PUSH2 0x1F8A JUMP JUMPDEST SWAP6 POP DUP2 DUP4 EQ ISZERO PUSH2 0x1EE2 JUMPI POP PUSH1 0x0 SWAP4 POP PUSH2 0x1F3D SWAP2 POP POP JUMP JUMPDEST PUSH1 0x0 PUSH2 0x1F04 PUSH2 0x1EF9 PUSH4 0x1DA9C00 PUSH2 0x1E86 DUP8 DUP7 PUSH2 0x166F JUMP JUMPDEST PUSH1 0xE0 DUP12 ADD MLOAD SWAP1 PUSH2 0x1F8A JUMP JUMPDEST SWAP1 POP PUSH1 0x0 PUSH2 0x1F12 DUP10 DUP4 PUSH2 0x1F58 JUMP JUMPDEST SWAP1 POP PUSH2 0x1F35 DUP9 PUSH2 0x1F2F DUP4 DUP14 PUSH1 0x40 ADD MLOAD PUSH2 0x166F SWAP1 SWAP2 SWAP1 PUSH4 0xFFFFFFFF AND JUMP JUMPDEST SWAP1 PUSH2 0x2908 JUMP JUMPDEST SWAP7 POP POP POP POP POP POP JUMPDEST SWAP4 POP SWAP4 POP SWAP4 POP SWAP4 JUMP JUMPDEST PUSH1 0x0 DUP3 DUP3 ADD DUP4 DUP2 LT ISZERO PUSH2 0xC7A JUMPI PUSH1 0x0 DUP1 REVERT JUMPDEST PUSH1 0x0 DUP3 DUP3 GT ISZERO PUSH2 0x1F67 JUMPI PUSH1 0x0 DUP1 REVERT JUMPDEST POP SWAP1 SUB SWAP1 JUMP JUMPDEST PUSH1 0x0 PUSH2 0xC7A PUSH2 0x1F84 DUP5 PUSH8 0xDE0B6B3A7640000 PUSH2 0x166F JUMP JUMPDEST DUP4 PUSH2 0x2908 JUMP JUMPDEST PUSH1 0x0 PUSH2 0xC7A PUSH2 0x1F99 DUP5 DUP5 PUSH2 0x166F JUMP JUMPDEST PUSH8 0xDE0B6B3A7640000 PUSH2 0x2908 JUMP JUMPDEST PUSH1 0x0 DUP4 PUSH2 0x1FB6 JUMPI POP PUSH1 0x0 PUSH2 0xD8D JUMP JUMPDEST PUSH1 0x0 DUP1 DUP6 SGT PUSH2 0x1FCF JUMPI PUSH2 0x1FCA DUP7 DUP6 DUP6 PUSH2 0x2927 JUMP JUMPDEST PUSH2 0x1FDA JUMP JUMPDEST PUSH2 0x1FDA DUP7 DUP6 DUP6 PUSH2 0x2963 JUMP JUMPDEST SWAP1 POP PUSH4 0x3B9ACA00 DUP2 SGT ISZERO PUSH2 0x1FED JUMPI PUSH1 0x0 DUP1 REVERT JUMPDEST PUSH2 0x19CC DUP6 DUP3 PUSH2 0x29A4 JUMP JUMPDEST PUSH1 0x0 DUP1 PUSH2 0x2003 DUP4 PUSH2 0x1E05 JUMP JUMPDEST PUSH1 0x1 PUSH1 0x1 PUSH1 0xA0 SHL SUB AND PUSH4 0xEF81F216 PUSH1 0x40 MLOAD DUP2 PUSH4 0xFFFFFFFF AND PUSH1 0xE0 SHL DUP2 MSTORE PUSH1 0x4 ADD PUSH1 0x40 DUP1 MLOAD DUP1 DUP4 SUB DUP2 PUSH1 0x0 DUP8 DUP1 EXTCODESIZE ISZERO DUP1 ISZERO PUSH2 0x203C JUMPI PUSH1 0x0 DUP1 REVERT JUMPDEST POP GAS CALL ISZERO DUP1 ISZERO PUSH2 0x15A7 JUMPI RETURNDATASIZE PUSH1 0x0 DUP1 RETURNDATACOPY RETURNDATASIZE PUSH1 0x0 REVERT JUMPDEST PUSH1 0x0 PUSH2 0x205A PUSH2 0x1DF8 JUMP JUMPDEST PUSH1 0x0 DUP6 PUSH2 0xFFFF AND DUP2 MSTORE PUSH1 0x20 ADD SWAP1 DUP2 MSTORE PUSH1 0x20 ADD PUSH1 0x0 KECCAK256 SWAP1 POP PUSH2 0x207E DUP3 PUSH1 0x0 ADD MLOAD PUSH2 0x29BD JUMP JUMPDEST DUP2 SLOAD PUSH5 0xFFFFFFFFFF NOT AND PUSH5 0xFFFFFFFFFF SWAP2 SWAP1 SWAP2 AND OR DUP2 SSTORE PUSH1 0xA0 DUP3 ADD MLOAD PUSH2 0x20A3 SWAP1 PUSH2 0x29D1 JUMP JUMPDEST PUSH1 0x2 DUP3 ADD DUP1 SLOAD PUSH10 0xFFFFFFFFFFFFFFFFFFFF NOT AND PUSH1 0x1 PUSH1 0x1 PUSH1 0x50 SHL SUB SWAP3 SWAP1 SWAP3 AND SWAP2 SWAP1 SWAP2 OR SWAP1 SSTORE PUSH1 0xC0 DUP3 ADD MLOAD PUSH2 0x20D6 SWAP1 PUSH2 0x29D1 JUMP JUMPDEST DUP2 PUSH1 0x2 ADD PUSH1 0xA PUSH2 0x100 EXP DUP2 SLOAD DUP2 PUSH1 0x1 PUSH1 0x1 PUSH1 0x50 SHL SUB MUL NOT AND SWAP1 DUP4 PUSH1 0x1 PUSH1 0x1 PUSH1 0x50 SHL SUB AND MUL OR SWAP1 SSTORE POP PUSH2 0x210B DUP3 PUSH1 0xE0 ADD MLOAD PUSH2 0x29D1 JUMP JUMPDEST DUP2 PUSH1 0x2 ADD PUSH1 0x14 PUSH2 0x100 EXP DUP2 SLOAD DUP2 PUSH1 0x1 PUSH1 0x1 PUSH1 0x50 SHL SUB MUL NOT AND SWAP1 DUP4 PUSH1 0x1 PUSH1 0x1 PUSH1 0x50 SHL SUB AND MUL OR SWAP1 SSTORE POP PUSH2 0x2140 DUP3 PUSH1 0x20 ADD MLOAD PUSH2 0x29E7 JUMP JUMPDEST DUP2 SLOAD PUSH1 0x1 PUSH1 0x1 PUSH1 0x58 SHL SUB SWAP2 SWAP1 SWAP2 AND PUSH1 0x1 PUSH1 0x28 SHL MUL PUSH16 0xFFFFFFFFFFFFFFFFFFFFFF0000000000 NOT SWAP1 SWAP2 AND OR DUP2 SSTORE PUSH1 0x40 DUP3 ADD MLOAD PUSH2 0x217A SWAP1 PUSH2 0x29E7 JUMP JUMPDEST PUSH1 0x1 DUP3 ADD DUP1 SLOAD PUSH11 0xFFFFFFFFFFFFFFFFFFFFFF NOT AND PUSH1 0x1 PUSH1 0x1 PUSH1 0x58 SHL SUB SWAP3 SWAP1 SWAP3 AND SWAP2 SWAP1 SWAP2 OR SWAP1 SSTORE PUSH1 0x80 DUP3 ADD MLOAD PUSH2 0x21AE SWAP1 PUSH2 0x29E7 JUMP JUMPDEST DUP2 SLOAD PUSH1 0x1 PUSH1 0x1 PUSH1 0x58 SHL SUB SWAP2 SWAP1 SWAP2 AND PUSH1 0x1 PUSH1 0x80 SHL MUL PUSH11 0xFFFFFFFFFFFFFFFFFFFFFF PUSH1 0x80 SHL NOT SWAP1 SWAP2 AND OR DUP2 SSTORE PUSH1 0x60 DUP3 ADD MLOAD PUSH2 0x21E6 SWAP1 PUSH2 0x29FD JUMP JUMPDEST DUP2 SLOAD PUSH4 0xFFFFFFFF SWAP2 SWAP1 SWAP2 AND PUSH1 0x1 PUSH1 0xD8 SHL MUL PUSH4 0xFFFFFFFF PUSH1 0xD8 SHL NOT SWAP1 SWAP2 AND OR DUP2 SSTORE DUP3 ISZERO PUSH2 0x2232 JUMPI PUSH1 0x0 PUSH2 0x2217 DUP5 PUSH2 0x1696 JUMP JUMPDEST SWAP1 POP PUSH2 0x2223 DUP6 DUP3 PUSH2 0x2A10 JUMP JUMPDEST PUSH2 0x2230 PUSH2 0xFEE DUP7 DUP4 PUSH2 0x2A4C JUMP JUMPDEST POP JUMPDEST DUP4 PUSH2 0xFFFF AND PUSH32 0xEF25641E225E493886510CA1AD6584FA7B442B9FEA820A29D1DE3CE27D270FD2 DUP4 PUSH1 0xA0 ADD MLOAD DUP5 PUSH1 0xC0 ADD MLOAD DUP6 PUSH1 0xE0 ADD MLOAD PUSH1 0x40 MLOAD PUSH2 0x2276 SWAP4 SWAP3 SWAP2 SWAP1 PUSH2 0x4D35 JUMP JUMPDEST PUSH1 0x40 MLOAD DUP1 SWAP2 SUB SWAP1 LOG2 POP POP POP POP JUMP JUMPDEST PUSH1 0x0 DUP1 PUSH2 0xC34 PUSH1 0x9 PUSH2 0x10B5 JUMP JUMPDEST PUSH1 0x0 DUP1 PUSH2 0x229C PUSH2 0x2AD6 JUMP JUMPDEST PUSH1 0x0 SWAP4 DUP5 MSTORE PUSH1 0x20 MSTORE POP POP PUSH1 0x40 SWAP1 KECCAK256 SLOAD PUSH1 0x1 PUSH1 0x1 PUSH1 0xA0 SHL SUB AND SWAP1 JUMP JUMPDEST PUSH1 0x0 DUP1 PUSH1 0x0 DUP1 PUSH1 0x0 DUP1 PUSH2 0x22C8 PUSH2 0x2AE3 JUMP JUMPDEST PUSH1 0x1 PUSH1 0x1 PUSH1 0xA0 SHL SUB SWAP1 SWAP8 AND PUSH1 0x0 SWAP1 DUP2 MSTORE PUSH1 0x20 SWAP8 SWAP1 SWAP8 MSTORE POP POP PUSH1 0x40 SWAP1 SWAP5 KECCAK256 SLOAD PUSH2 0xFFFF DUP2 AND SWAP6 PUSH4 0xFFFFFFFF PUSH3 0x10000 DUP4 DIV DUP2 AND SWAP7 POP PUSH1 0x1 PUSH1 0x30 SHL DUP4 DIV AND SWAP5 POP PUSH1 0xFF PUSH1 0x1 PUSH1 0x50 SHL DUP4 DIV AND SWAP4 POP PUSH1 0x1 PUSH1 0x58 SHL SWAP1 SWAP2 DIV PUSH1 0xD8 SHL SWAP2 POP JUMP JUMPDEST PUSH1 0x0 DUP1 PUSH1 0x0 DUP1 PUSH2 0x232E PUSH2 0x2AF0 JUMP JUMPDEST PUSH1 0x1 PUSH1 0x1 PUSH1 0xA0 SHL SUB SWAP6 SWAP1 SWAP6 AND PUSH1 0x0 SWAP1 DUP2 MSTORE PUSH1 0x20 SWAP6 SWAP1 SWAP6 MSTORE POP POP PUSH1 0x40 SWAP1 SWAP3 KECCAK256 SLOAD PUSH12 0xFFFFFFFFFFFFFFFFFFFFFFFF DUP2 AND SWAP4 PUSH1 0x1 PUSH1 0x60 SHL DUP3 DIV PUSH16 0xFFFFFFFFFFFFFFFFFFFFFFFFFFFFFFFF AND SWAP4 POP PUSH1 0x1 PUSH1 0xE0 SHL SWAP1 SWAP2 DIV PUSH4 0xFFFFFFFF AND SWAP2 POP JUMP JUMPDEST PUSH2 0x2392 PUSH2 0x4603 JUMP JUMPDEST PUSH2 0x239A PUSH2 0x4603 JUMP JUMPDEST PUSH1 0xFF DUP5 AND PUSH2 0x23A9 JUMPI SWAP1 POP PUSH2 0xC7A JUMP JUMPDEST PUSH2 0x23B3 DUP6 DUP6 PUSH2 0xDF6 JUMP JUMPDEST DUP2 MSTORE PUSH1 0xFF DUP5 AND PUSH1 0x60 DUP3 ADD MSTORE DUP3 PUSH8 0xFFFFFFFFFFFFFFFF DUP2 GT DUP1 ISZERO PUSH2 0x23D5 JUMPI PUSH1 0x0 DUP1 REVERT JUMPDEST POP PUSH1 0x40 MLOAD SWAP1 DUP1 DUP3 MSTORE DUP1 PUSH1 0x20 MUL PUSH1 0x20 ADD DUP3 ADD PUSH1 0x40 MSTORE DUP1 ISZERO PUSH2 0x240F JUMPI DUP2 PUSH1 0x20 ADD JUMPDEST PUSH2 0x23FC PUSH2 0x45C4 JUMP JUMPDEST DUP2 MSTORE PUSH1 0x20 ADD SWAP1 PUSH1 0x1 SWAP1 SUB SWAP1 DUP2 PUSH2 0x23F4 JUMPI SWAP1 POP JUMPDEST POP PUSH1 0x20 DUP3 ADD MSTORE SWAP5 SWAP4 POP POP POP POP JUMP JUMPDEST PUSH1 0x0 DUP1 PUSH2 0x2428 PUSH2 0x1839 JUMP JUMPDEST PUSH1 0x1 PUSH1 0x1 PUSH1 0xA0 SHL SUB DUP6 AND PUSH1 0x0 SWAP1 DUP2 MSTORE PUSH1 0x20 DUP3 DUP2 MSTORE PUSH1 0x40 DUP1 DUP4 KECCAK256 PUSH2 0xFFFF DUP9 AND DUP5 MSTORE SWAP1 SWAP2 MSTORE DUP2 KECCAK256 DUP1 SLOAD PUSH1 0x1 PUSH1 0xA8 SHL SWAP1 DIV PUSH1 0xA SWAP1 DUP2 SIGNEXTEND SWAP1 SIGNEXTEND SWAP5 POP SWAP2 SWAP3 POP DUP4 SLT ISZERO PUSH2 0x246E JUMPI PUSH1 0x0 DUP1 REVERT JUMPDEST POP POP SWAP3 SWAP2 POP POP JUMP JUMPDEST PUSH1 0x0 DUP2 PUSH1 0x80 ADD MLOAD PUSH1 0x0 EQ ISZERO PUSH2 0x248D JUMPI POP PUSH1 0x0 PUSH2 0x421 JUMP JUMPDEST PUSH1 0x80 DUP3 ADD MLOAD PUSH3 0x76A700 SWAP1 PUSH2 0x10C7 SWAP1 PUSH2 0x2AFD JUMP JUMPDEST PUSH1 0x20 DUP3 ADD MLOAD MLOAD MLOAD PUSH1 0x0 SWAP1 PUSH1 0x60 SWAP1 DUP1 PUSH8 0xFFFFFFFFFFFFFFFF DUP2 GT DUP1 ISZERO PUSH2 0x24C4 JUMPI PUSH1 0x0 DUP1 REVERT JUMPDEST POP PUSH1 0x40 MLOAD SWAP1 DUP1 DUP3 MSTORE DUP1 PUSH1 0x20 MUL PUSH1 0x20 ADD DUP3 ADD PUSH1 0x40 MSTORE DUP1 ISZERO PUSH2 0x24EE JUMPI DUP2 PUSH1 0x20 ADD PUSH1 0x20 DUP3 MUL DUP1 CALLDATASIZE DUP4 CALLDATACOPY ADD SWAP1 POP JUMPDEST POP SWAP2 POP PUSH2 0x24F9 PUSH2 0x462B JUMP JUMPDEST PUSH1 0x0 JUMPDEST DUP3 DUP2 LT ISZERO PUSH2 0x25E4 JUMPI DUP7 MLOAD PUSH2 0x2517 SWAP1 DUP4 PUSH1 0x1 DUP1 DUP6 ADD SWAP1 DUP11 PUSH2 0x2B19 JUMP JUMPDEST PUSH1 0x0 DUP8 PUSH1 0x20 ADD MLOAD PUSH1 0x0 ADD MLOAD DUP3 DUP2 MLOAD DUP2 LT PUSH2 0x252D JUMPI INVALID JUMPDEST PUSH1 0x20 MUL PUSH1 0x20 ADD ADD MLOAD SWAP1 POP PUSH1 0x0 DUP2 PUSH1 0x20 ADD MLOAD SWAP1 POP PUSH1 0x0 DUP1 PUSH2 0x254D DUP5 DUP8 PUSH2 0x2B94 JUMP JUMPDEST SWAP2 POP SWAP2 POP PUSH2 0x2576 PUSH2 0x256F DUP13 PUSH1 0xC0 ADD MLOAD DUP14 PUSH1 0x0 ADD MLOAD PUSH1 0x0 ADD MLOAD PUSH2 0xFFFF AND DUP7 PUSH2 0x2C06 JUMP JUMPDEST DUP3 SWAP1 PUSH2 0xD95 JUMP JUMPDEST DUP9 DUP7 DUP2 MLOAD DUP2 LT PUSH2 0x2582 JUMPI INVALID JUMPDEST PUSH1 0x20 MUL PUSH1 0x20 ADD ADD DUP2 DUP2 MSTORE POP POP PUSH1 0x0 PUSH2 0x25C5 PUSH2 0x1746 PUSH2 0x25B9 DUP12 DUP10 DUP2 MLOAD DUP2 LT PUSH2 0x25A5 JUMPI INVALID JUMPDEST PUSH1 0x20 MUL PUSH1 0x20 ADD ADD MLOAD DUP8 DUP16 DUP13 PUSH1 0xC0 ADD MLOAD PUSH2 0x2C4B JUMP JUMPDEST DUP15 MLOAD PUSH1 0x40 ADD MLOAD SWAP1 PUSH2 0x126F JUMP JUMPDEST SWAP1 POP PUSH2 0x25D1 DUP11 DUP3 PUSH2 0xD95 JUMP JUMPDEST SWAP10 POP POP PUSH1 0x1 SWAP1 SWAP5 ADD SWAP4 POP PUSH2 0x24FC SWAP3 POP POP POP JUMP JUMPDEST POP POP POP SWAP3 POP SWAP3 SWAP1 POP JUMP JUMPDEST PUSH1 0x0 PUSH1 0x2 DUP3 GT PUSH2 0x2600 JUMPI POP PUSH1 0x0 PUSH2 0xEBA JUMP JUMPDEST PUSH1 0x0 PUSH2 0x260C DUP8 DUP8 PUSH2 0x1A55 JUMP JUMPDEST SWAP1 POP DUP1 PUSH2 0x261A JUMPI SWAP1 POP PUSH2 0xEBA JUMP JUMPDEST PUSH1 0x0 PUSH2 0x2625 DUP6 PUSH2 0x2AFD JUMP JUMPDEST SWAP1 POP DUP6 DUP2 EQ ISZERO PUSH2 0x264F JUMPI POP PUSH21 0x400080000002002000000002000000200000000020 NOT AND SWAP1 POP PUSH2 0xEBA JUMP JUMPDEST PUSH1 0x1 JUMPDEST DUP5 DUP2 GT PUSH2 0x268F JUMPI PUSH1 0x0 PUSH2 0x2664 DUP3 PUSH2 0x2C9C JUMP JUMPDEST DUP4 ADD SWAP1 POP PUSH1 0x0 PUSH2 0x2674 DUP10 DUP4 PUSH2 0x2D40 JUMP JUMPDEST POP SWAP1 POP PUSH2 0x2683 DUP6 DUP3 PUSH1 0x0 PUSH2 0x27DF JUMP JUMPDEST SWAP5 POP POP POP PUSH1 0x1 ADD PUSH2 0x2652 JUMP JUMPDEST POP DUP2 SWAP3 POP POP POP PUSH2 0xEBA JUMP JUMPDEST PUSH1 0x0 DUP1 PUSH2 0xC34 PUSH1 0xB PUSH2 0x10B5 JUMP JUMPDEST PUSH1 0x0 DUP2 PUSH2 0x26B6 JUMPI POP PUSH1 0x0 PUSH2 0x421 JUMP JUMPDEST PUSH2 0x26BF DUP3 PUSH2 0x2E4B JUMP JUMPDEST PUSH1 0xFF SUB PUSH1 0x1 ADD SWAP1 POP SWAP2 SWAP1 POP JUMP JUMPDEST PUSH1 0x0 DUP2 PUSH2 0x26D8 JUMPI PUSH1 0x0 DUP1 REVERT JUMPDEST PUSH2 0x100 DUP3 GT ISZERO PUSH2 0x26E7 JUMPI PUSH1 0x0 DUP1 REVERT JUMPDEST PUSH1 0x0 PUSH2 0x26F2 DUP5 PUSH2 0xC3A JUMP JUMPDEST SWAP1 POP PUSH1 0x0 PUSH1 0x5A DUP5 GT PUSH2 0x270D JUMPI POP PUSH3 0x15180 DUP4 MUL ADD SWAP1 POP PUSH2 0xC34 JUMP JUMPDEST PUSH1 0x87 DUP5 GT PUSH2 0x2735 JUMPI POP PUSH1 0x59 NOT DUP4 ADD PUSH3 0x7E900 SWAP1 DUP2 MUL SWAP1 DUP3 MOD SWAP1 SWAP2 SUB ADD PUSH3 0x76A700 ADD SWAP1 POP PUSH2 0xC34 JUMP JUMPDEST PUSH1 0xC3 DUP5 GT PUSH2 0x275E JUMPI POP PUSH1 0x86 NOT DUP4 ADD PUSH3 0x278D00 SWAP1 DUP2 MUL SWAP1 DUP3 MOD SWAP1 SWAP2 SUB ADD PUSH4 0x1DA9C00 ADD SWAP1 POP PUSH2 0xC34 JUMP JUMPDEST POP PUSH1 0xC2 NOT DUP4 ADD PUSH3 0x76A700 SWAP1 DUP2 MUL SWAP1 DUP3 MOD SWAP1 SWAP2 SUB ADD PUSH4 0xB1FA800 ADD SWAP1 POP PUSH2 0xC34 JUMP JUMPDEST PUSH1 0x0 DUP1 PUSH2 0x278D DUP9 DUP9 DUP9 PUSH2 0x2C06 JUMP JUMPDEST SWAP1 POP DUP5 DUP7 GT PUSH2 0x279D JUMPI SWAP1 POP PUSH2 0x19CC JUMP JUMPDEST DUP3 ISZERO PUSH2 0x27B7 JUMPI PUSH2 0x27AF DUP5 DUP3 DUP9 DUP9 PUSH2 0x1FA7 JUMP JUMPDEST SWAP2 POP POP PUSH2 0x19CC JUMP JUMPDEST PUSH1 0x0 PUSH2 0x27C4 DUP6 DUP9 DUP9 PUSH2 0x2EE4 JUMP JUMPDEST SWAP1 POP PUSH2 0x27D2 DUP3 DUP9 DUP9 DUP5 PUSH2 0x2C4B JUMP JUMPDEST SWAP10 SWAP9 POP POP POP POP POP POP POP POP POP JUMP JUMPDEST PUSH1 0x0 PUSH1 0x1 DUP4 LT ISZERO DUP1 ISZERO PUSH2 0x27F4 JUMPI POP PUSH2 0x100 DUP4 GT ISZERO JUMPDEST PUSH2 0x27FD JUMPI PUSH1 0x0 DUP1 REVERT JUMPDEST DUP2 ISZERO PUSH2 0x2816 JUMPI POP PUSH1 0x1 PUSH1 0xFF SHL PUSH1 0x0 NOT DUP4 ADD SHR DUP4 OR PUSH2 0xC7A JUMP JUMPDEST POP PUSH1 0x1 PUSH1 0xFF SHL PUSH1 0x0 NOT DUP4 ADD SHR NOT DUP4 AND PUSH2 0xC7A JUMP JUMPDEST PUSH1 0x0 DUP1 PUSH2 0xC34 PUSH1 0xD PUSH2 0x10B5 JUMP JUMPDEST PUSH8 0xFFFF000000000000 PUSH1 0x30 DUP5 SWAP1 SHL AND PUSH6 0xFFFFFFFFFF00 PUSH1 0x8 DUP5 SWAP1 SHL AND OR PUSH1 0xFF DUP3 AND OR SWAP4 SWAP3 POP POP POP JUMP JUMPDEST PUSH1 0x0 DUP1 PUSH2 0xC34 PUSH1 0x1F PUSH2 0x10B5 JUMP JUMPDEST PUSH1 0x0 DUP1 PUSH1 0x0 DUP1 PUSH1 0x0 DUP6 PUSH1 0x20 ADD MLOAD GT ISZERO PUSH2 0x28BA JUMPI PUSH2 0x28B7 PUSH2 0x289E DUP7 PUSH1 0xC0 ADD MLOAD DUP8 PUSH1 0x20 ADD MLOAD PUSH2 0x166F SWAP1 SWAP2 SWAP1 PUSH4 0xFFFFFFFF AND JUMP JUMPDEST PUSH1 0xE0 DUP8 ADD MLOAD PUSH1 0x40 DUP9 ADD MLOAD PUSH2 0x28B1 SWAP2 PUSH2 0x166F JUMP JUMPDEST SWAP1 PUSH2 0x2FCD JUMP JUMPDEST SWAP1 POP JUMPDEST PUSH1 0x0 PUSH2 0x28C5 DUP8 PUSH2 0x2FE0 JUMP JUMPDEST SWAP1 POP PUSH2 0x28D1 DUP2 DUP4 PUSH2 0x3013 JUMP JUMPDEST SWAP5 POP DUP2 ISZERO PUSH2 0x28E8 JUMPI PUSH2 0x28E5 DUP2 DUP7 PUSH1 0x1 PUSH2 0x30C6 JUMP JUMPDEST SWAP4 POP JUMPDEST PUSH1 0x20 DUP7 ADD MLOAD ISZERO PUSH2 0x28FF JUMPI PUSH2 0x28FC DUP6 DUP4 PUSH2 0x313E JUMP JUMPDEST SWAP3 POP JUMPDEST POP POP SWAP3 POP SWAP3 POP SWAP3 JUMP JUMPDEST PUSH1 0x0 DUP1 DUP3 GT PUSH2 0x2916 JUMPI PUSH1 0x0 DUP1 REVERT JUMPDEST DUP2 DUP4 DUP2 PUSH2 0x291F JUMPI INVALID JUMPDEST DIV SWAP4 SWAP3 POP POP POP JUMP JUMPDEST PUSH1 0x0 DUP1 PUSH2 0x2935 DUP6 DUP6 DUP6 PUSH2 0x3157 JUMP JUMPDEST SWAP1 POP DUP1 ISZERO PUSH2 0x2955 JUMPI PUSH2 0x2950 PUSH2 0x294A DUP6 DUP6 PUSH2 0x1F58 JUMP JUMPDEST DUP3 PUSH2 0x31A7 JUMP JUMPDEST PUSH2 0xEBA JUMP JUMPDEST PUSH4 0x3B9ACA00 SWAP6 SWAP5 POP POP POP POP POP JUMP JUMPDEST PUSH1 0x0 DUP1 PUSH2 0x2971 DUP6 DUP6 DUP6 PUSH2 0x3214 JUMP JUMPDEST SWAP1 POP PUSH2 0x2980 PUSH2 0x294A DUP6 DUP6 PUSH2 0x1F58 JUMP JUMPDEST SWAP2 POP PUSH1 0x0 PUSH2 0x298D DUP7 PUSH2 0x3255 JUMP JUMPDEST SWAP1 POP DUP3 DUP2 SLT ISZERO PUSH2 0x299B JUMPI DUP1 SWAP3 POP JUMPDEST POP POP SWAP4 SWAP3 POP POP POP JUMP JUMPDEST PUSH1 0x0 PUSH2 0xC7A PUSH2 0x29B3 DUP5 DUP5 PUSH2 0x19D6 JUMP JUMPDEST PUSH4 0x3B9ACA00 PUSH2 0x1A24 JUMP JUMPDEST PUSH1 0x0 PUSH5 0xFFFFFFFFFF DUP3 GT ISZERO PUSH2 0x16AC JUMPI PUSH1 0x0 DUP1 REVERT JUMPDEST PUSH1 0x0 PUSH1 0x1 PUSH1 0x1 PUSH1 0x50 SHL SUB DUP3 GT ISZERO PUSH2 0x16AC JUMPI PUSH1 0x0 DUP1 REVERT JUMPDEST PUSH1 0x0 PUSH1 0x1 PUSH1 0x1 PUSH1 0x58 SHL SUB DUP3 GT ISZERO PUSH2 0x16AC JUMPI PUSH1 0x0 DUP1 REVERT JUMPDEST PUSH1 0x0 PUSH4 0xFFFFFFFF DUP3 GT ISZERO PUSH2 0x16AC JUMPI PUSH1 0x0 DUP1 REVERT JUMPDEST PUSH1 0x0 DUP2 SLT ISZERO PUSH2 0x2A1E JUMPI PUSH1 0x0 DUP1 REVERT JUMPDEST PUSH1 0x0 PUSH2 0x2A2C PUSH2 0xFEE DUP5 PUSH2 0x241D JUMP JUMPDEST SWAP1 POP PUSH2 0x2A38 DUP2 DUP4 PUSH2 0xD95 JUMP JUMPDEST SWAP1 POP PUSH2 0x2A47 PUSH2 0xFEE DUP5 DUP4 PUSH2 0x3270 JUMP JUMPDEST POP POP POP JUMP JUMPDEST PUSH1 0x0 PUSH2 0x2A56 PUSH2 0x32E4 JUMP JUMPDEST PUSH2 0xFFFF DUP5 AND PUSH1 0x0 SWAP1 DUP2 MSTORE PUSH1 0x20 SWAP2 SWAP1 SWAP2 MSTORE PUSH1 0x40 SWAP1 DUP2 SWAP1 KECCAK256 SLOAD SWAP1 MLOAD PUSH4 0xAD1C095D PUSH1 0xE0 SHL DUP2 MSTORE PUSH1 0x1 PUSH1 0x1 PUSH1 0xA0 SHL SUB SWAP1 SWAP2 AND SWAP2 POP DUP2 SWAP1 PUSH4 0xAD1C095D SWAP1 PUSH2 0x2A9E SWAP1 DUP8 SWAP1 DUP7 SWAP1 PUSH1 0x4 ADD PUSH2 0x4A66 JUMP JUMPDEST PUSH1 0x0 PUSH1 0x40 MLOAD DUP1 DUP4 SUB DUP2 PUSH1 0x0 DUP8 DUP1 EXTCODESIZE ISZERO DUP1 ISZERO PUSH2 0x2AB8 JUMPI PUSH1 0x0 DUP1 REVERT JUMPDEST POP GAS CALL ISZERO DUP1 ISZERO PUSH2 0x2ACC JUMPI RETURNDATASIZE PUSH1 0x0 DUP1 RETURNDATACOPY RETURNDATASIZE PUSH1 0x0 REVERT JUMPDEST POP POP POP POP POP POP POP POP JUMP JUMPDEST PUSH1 0x0 DUP1 PUSH2 0xC34 PUSH1 0x3 PUSH2 0x10B5 JUMP JUMPDEST PUSH1 0x0 DUP1 PUSH2 0xC34 PUSH1 0x2 PUSH2 0x10B5 JUMP JUMPDEST PUSH1 0x0 DUP1 PUSH2 0xC34 PUSH1 0x11 PUSH2 0x10B5 JUMP JUMPDEST PUSH1 0x0 PUSH3 0x76A700 DUP3 LT ISZERO PUSH2 0x2B0F JUMPI PUSH1 0x0 DUP1 REVERT JUMPDEST PUSH3 0x76A700 DUP3 PUSH2 0xC52 JUMP JUMPDEST DUP3 PUSH1 0x1 GT ISZERO DUP1 ISZERO PUSH2 0x2B2E JUMPI POP DUP5 PUSH1 0x20 ADD MLOAD DUP4 GT ISZERO JUMPDEST PUSH2 0x2B4A JUMPI PUSH1 0x40 MLOAD PUSH3 0x461BCD PUSH1 0xE5 SHL DUP2 MSTORE PUSH1 0x4 ADD PUSH2 0x1FF SWAP1 PUSH2 0x4B6C JUMP JUMPDEST PUSH1 0x0 PUSH2 0x2B67 PUSH2 0x2B58 DUP6 PUSH2 0x2C9C JUMP JUMPDEST PUSH2 0x2B61 DUP5 PUSH2 0x2AFD JUMP JUMPDEST SWAP1 PUSH2 0x1F46 JUMP JUMPDEST SWAP1 POP PUSH2 0x2B8C DUP7 PUSH1 0x0 ADD MLOAD PUSH2 0xFFFF AND DUP3 DUP5 DUP7 PUSH2 0x2B81 DUP12 PUSH2 0x32F1 JUMP JUMPDEST DUP11 SWAP5 SWAP4 SWAP3 SWAP2 SWAP1 PUSH2 0x3305 JUMP JUMPDEST POP POP POP POP POP POP JUMP JUMPDEST PUSH1 0x0 DUP1 PUSH2 0x2BA4 DUP5 PUSH1 0x40 ADD MLOAD PUSH2 0x332F JUMP JUMPDEST DUP1 ISZERO PUSH2 0x2BB5 JUMPI POP PUSH1 0x0 DUP5 PUSH1 0x60 ADD MLOAD SLT ISZERO JUMPDEST PUSH2 0x2BBE JUMPI PUSH1 0x0 DUP1 REVERT JUMPDEST PUSH2 0x2BE1 DUP4 PUSH1 0x80 ADD MLOAD PUSH2 0x1225 DUP7 PUSH1 0x60 ADD MLOAD DUP7 PUSH1 0x60 ADD MLOAD PUSH2 0x19D6 SWAP1 SWAP2 SWAP1 PUSH4 0xFFFFFFFF AND JUMP JUMPDEST SWAP2 POP PUSH2 0x147F DUP4 PUSH1 0x80 ADD MLOAD PUSH2 0x1225 DUP7 PUSH1 0x60 ADD MLOAD DUP7 PUSH1 0x40 ADD MLOAD PUSH2 0x19D6 SWAP1 SWAP2 SWAP1 PUSH4 0xFFFFFFFF AND JUMP JUMPDEST PUSH1 0x0 DUP1 PUSH2 0x2C11 PUSH2 0x3345 JUMP JUMPDEST PUSH1 0x1 PUSH1 0x1 PUSH1 0xA0 SHL SUB DUP7 AND PUSH1 0x0 SWAP1 DUP2 MSTORE PUSH1 0x20 SWAP2 DUP3 MSTORE PUSH1 0x40 DUP1 DUP3 KECCAK256 DUP8 DUP4 MSTORE DUP4 MSTORE DUP1 DUP3 KECCAK256 DUP7 DUP4 MSTORE SWAP1 SWAP3 MSTORE KECCAK256 SLOAD PUSH1 0xF SWAP1 DUP2 SIGNEXTEND SWAP1 SIGNEXTEND SWAP2 POP POP SWAP4 SWAP3 POP POP POP JUMP JUMPDEST PUSH1 0x0 DUP5 PUSH2 0x2C5A JUMPI POP PUSH1 0x0 PUSH2 0xD8D JUMP JUMPDEST PUSH1 0x0 PUSH2 0x2C66 DUP6 DUP6 PUSH2 0x1F58 JUMP JUMPDEST SWAP1 POP PUSH1 0x0 PUSH2 0x2C74 DUP3 DUP6 PUSH2 0x31A7 JUMP JUMPDEST SWAP1 POP PUSH4 0x3B9ACA00 DUP2 SGT ISZERO PUSH2 0x2C87 JUMPI PUSH1 0x0 DUP1 REVERT JUMPDEST PUSH2 0x2C91 DUP8 DUP3 PUSH2 0x29A4 JUMP JUMPDEST SWAP8 SWAP7 POP POP POP POP POP POP POP JUMP JUMPDEST PUSH1 0x0 DUP2 PUSH1 0x1 EQ ISZERO PUSH2 0x2CB1 JUMPI POP PUSH3 0x76A700 PUSH2 0x421 JUMP JUMPDEST DUP2 PUSH1 0x2 EQ ISZERO PUSH2 0x2CC4 JUMPI POP PUSH3 0xED4E00 PUSH2 0x421 JUMP JUMPDEST DUP2 PUSH1 0x3 EQ ISZERO PUSH2 0x2CD8 JUMPI POP PUSH4 0x1DA9C00 PUSH2 0x421 JUMP JUMPDEST DUP2 PUSH1 0x4 EQ ISZERO PUSH2 0x2CEC JUMPI POP PUSH4 0x3B53800 PUSH2 0x421 JUMP JUMPDEST DUP2 PUSH1 0x5 EQ ISZERO PUSH2 0x2D00 JUMPI POP PUSH4 0x9450C00 PUSH2 0x421 JUMP JUMPDEST DUP2 PUSH1 0x6 EQ ISZERO PUSH2 0x2D14 JUMPI POP PUSH4 0x128A1800 PUSH2 0x421 JUMP JUMPDEST DUP2 PUSH1 0x7 EQ ISZERO PUSH2 0x2D28 JUMPI POP PUSH4 0x25143000 PUSH2 0x421 JUMP JUMPDEST PUSH1 0x40 MLOAD PUSH3 0x461BCD PUSH1 0xE5 SHL DUP2 MSTORE PUSH1 0x4 ADD PUSH2 0x1FF SWAP1 PUSH2 0x4B19 JUMP JUMPDEST PUSH1 0x0 DUP1 PUSH1 0x0 PUSH2 0x2D4E DUP6 PUSH2 0xC3A JUMP JUMPDEST SWAP1 POP PUSH3 0x15180 DUP5 MOD ISZERO PUSH2 0x2D68 JUMPI PUSH1 0x0 DUP1 SWAP3 POP SWAP3 POP POP PUSH2 0x2E44 JUMP JUMPDEST DUP4 DUP2 LT PUSH2 0x2D7C JUMPI PUSH1 0x0 DUP1 SWAP3 POP SWAP3 POP POP PUSH2 0x2E44 JUMP JUMPDEST PUSH3 0x15180 DUP2 DUP6 SUB DIV PUSH1 0x5A DUP2 GT PUSH2 0x2D99 JUMPI SWAP3 POP PUSH1 0x1 SWAP2 POP PUSH2 0x2E44 SWAP1 POP JUMP JUMPDEST PUSH2 0x168 DUP2 GT PUSH2 0x2DD8 JUMPI PUSH1 0x0 PUSH3 0x15180 PUSH3 0x7E900 DUP5 MOD DIV DUP3 ADD PUSH1 0x59 NOT ADD SWAP1 POP PUSH1 0x6 DUP2 DIV PUSH1 0x5A ADD PUSH1 0x6 DUP3 DUP2 PUSH2 0x2DC8 JUMPI INVALID JUMPDEST MOD PUSH1 0x0 EQ SWAP5 POP SWAP5 POP POP POP POP PUSH2 0x2E44 JUMP JUMPDEST PUSH2 0x870 DUP2 GT PUSH2 0x2E08 JUMPI PUSH1 0x0 PUSH3 0x15180 PUSH3 0x278D00 DUP5 MOD DIV DUP3 ADD PUSH2 0x167 NOT ADD SWAP1 POP PUSH1 0x1E DUP2 DIV PUSH1 0x87 ADD PUSH1 0x1E DUP3 DUP2 PUSH2 0x2DC8 JUMPI INVALID JUMPDEST PUSH2 0x1DE2 DUP2 GT PUSH2 0x2E38 JUMPI PUSH1 0x0 PUSH3 0x15180 PUSH3 0x76A700 DUP5 MOD DIV DUP3 ADD PUSH2 0x86F NOT ADD SWAP1 POP PUSH1 0x5A DUP2 DIV PUSH1 0xC3 ADD PUSH1 0x5A DUP3 DUP2 PUSH2 0x2DC8 JUMPI INVALID JUMPDEST PUSH2 0x100 PUSH1 0x0 SWAP4 POP SWAP4 POP POP POP JUMPDEST SWAP3 POP SWAP3 SWAP1 POP JUMP JUMPDEST PUSH1 0x0 DUP2 PUSH2 0x2E57 JUMPI PUSH1 0x0 DUP1 REVERT JUMPDEST PUSH1 0x1 PUSH1 0x80 SHL DUP3 LT PUSH2 0x2E6A JUMPI PUSH1 0x80 SWAP2 DUP3 SHR SWAP2 ADD JUMPDEST PUSH1 0x1 PUSH1 0x40 SHL DUP3 LT PUSH2 0x2E7D JUMPI PUSH1 0x40 SWAP2 DUP3 SHR SWAP2 ADD JUMPDEST PUSH5 0x100000000 DUP3 LT PUSH2 0x2E91 JUMPI PUSH1 0x20 SWAP2 DUP3 SHR SWAP2 ADD JUMPDEST PUSH3 0x10000 DUP3 LT PUSH2 0x2EA3 JUMPI PUSH1 0x10 SWAP2 DUP3 SHR SWAP2 ADD JUMPDEST PUSH2 0x100 DUP3 LT PUSH2 0x2EB4 JUMPI PUSH1 0x8 SWAP2 DUP3 SHR SWAP2 ADD JUMPDEST PUSH1 0x10 DUP3 LT PUSH2 0x2EC4 JUMPI PUSH1 0x4 SWAP2 DUP3 SHR SWAP2 ADD JUMPDEST PUSH1 0x4 DUP3 LT PUSH2 0x2ED4 JUMPI PUSH1 0x2 SWAP2 DUP3 SHR SWAP2 ADD JUMPDEST PUSH1 0x2 DUP3 LT PUSH2 0x421 JUMPI PUSH1 0x1 ADD SWAP2 SWAP1 POP JUMP JUMPDEST PUSH1 0x0 DUP1 PUSH1 0x0 PUSH2 0x2EF8 DUP7 PUSH1 0x20 ADD MLOAD DUP7 DUP7 PUSH2 0x3352 JUMP JUMPDEST SWAP2 POP SWAP2 POP PUSH1 0x0 PUSH2 0x2F07 DUP8 PUSH2 0x32F1 JUMP JUMPDEST SWAP1 POP DUP2 PUSH2 0x2F27 JUMPI DUP7 MLOAD PUSH2 0x2F20 SWAP1 PUSH2 0xFFFF AND DUP8 DUP4 DUP9 PUSH2 0x33D9 JUMP JUMPDEST SWAP4 POP PUSH2 0x2FC3 JUMP JUMPDEST PUSH1 0x0 PUSH2 0x2F32 DUP7 PUSH2 0x2AFD JUMP JUMPDEST SWAP1 POP PUSH1 0x0 PUSH2 0x2F49 PUSH2 0x2F42 DUP7 PUSH2 0x2C9C JUMP JUMPDEST DUP4 SWAP1 PUSH2 0x1F46 JUMP JUMPDEST SWAP1 POP PUSH1 0x0 PUSH2 0x2F61 DUP11 PUSH1 0x0 ADD MLOAD PUSH2 0xFFFF AND DUP4 DUP7 DUP12 PUSH2 0x33D9 JUMP JUMPDEST SWAP1 POP PUSH1 0x0 DUP1 DUP8 PUSH1 0x1 EQ ISZERO PUSH2 0x2F7F JUMPI POP POP PUSH1 0x40 DUP1 DUP12 ADD MLOAD ADD MLOAD DUP9 PUSH2 0x2FAE JUMP JUMPDEST PUSH2 0x2F95 PUSH2 0x2F8E PUSH1 0x1 DUP11 SUB PUSH2 0x2C9C JUMP JUMPDEST DUP7 SWAP1 PUSH2 0x1F46 JUMP JUMPDEST SWAP1 POP PUSH2 0x2FAB DUP13 PUSH1 0x0 ADD MLOAD PUSH2 0xFFFF AND DUP3 DUP9 DUP14 PUSH2 0x33D9 JUMP JUMPDEST SWAP2 POP JUMPDEST PUSH2 0x2FBB DUP2 DUP6 DUP5 DUP7 DUP16 PUSH2 0x3478 JUMP JUMPDEST SWAP9 POP POP POP POP POP POP JUMPDEST POP POP POP SWAP4 SWAP3 POP POP POP JUMP JUMPDEST PUSH1 0x0 PUSH2 0xC7A PUSH2 0x1F84 DUP5 PUSH4 0x3B9ACA00 PUSH2 0x166F JUMP JUMPDEST PUSH2 0x2FE8 PUSH2 0x4673 JUMP JUMPDEST PUSH1 0x0 PUSH2 0x2FF2 PUSH2 0x34D6 JUMP JUMPDEST PUSH2 0xFFFF DUP5 AND PUSH1 0x0 SWAP1 DUP2 MSTORE PUSH1 0x20 SWAP2 SWAP1 SWAP2 MSTORE PUSH1 0x40 DUP2 KECCAK256 SLOAD SWAP2 POP PUSH2 0xC7A SWAP1 DUP3 PUSH2 0x34E3 JUMP JUMPDEST PUSH1 0x0 DUP1 DUP4 PUSH1 0x80 ADD MLOAD GT PUSH2 0x3025 JUMPI PUSH1 0x0 DUP1 REVERT JUMPDEST PUSH4 0x3B9ACA00 DUP3 GT ISZERO PUSH2 0x3036 JUMPI PUSH1 0x0 DUP1 REVERT JUMPDEST DUP3 MLOAD DUP3 GT PUSH2 0x3055 JUMPI DUP3 MLOAD PUSH1 0x40 DUP5 ADD MLOAD PUSH2 0x187B SWAP2 SWAP1 PUSH2 0x1F2F SWAP1 DUP6 SWAP1 PUSH2 0x166F JUMP JUMPDEST DUP3 PUSH1 0x20 ADD MLOAD DUP3 GT PUSH2 0x308D JUMPI PUSH1 0x40 DUP4 ADD MLOAD DUP4 MLOAD PUSH1 0x20 DUP6 ADD MLOAD PUSH1 0x60 DUP7 ADD MLOAD PUSH2 0x187B SWAP4 SWAP3 PUSH2 0x2B61 SWAP3 DUP2 SWAP1 SUB SWAP2 PUSH2 0x1F2F SWAP2 DUP9 SUB SWAP1 DUP6 SWAP1 SUB PUSH2 0x166F JUMP JUMPDEST PUSH2 0xC7A DUP4 PUSH1 0x60 ADD MLOAD PUSH2 0x2B61 DUP6 PUSH1 0x20 ADD MLOAD PUSH4 0x3B9ACA00 SUB PUSH2 0x1F2F DUP8 PUSH1 0x60 ADD MLOAD DUP9 PUSH1 0x80 ADD MLOAD SUB DUP9 PUSH1 0x20 ADD MLOAD DUP9 SUB PUSH2 0x166F SWAP1 SWAP2 SWAP1 PUSH4 0xFFFFFFFF AND JUMP JUMPDEST PUSH1 0x0 DUP1 PUSH2 0x30E5 PUSH1 0x64 PUSH2 0x1F2F DUP8 PUSH1 0xE0 ADD MLOAD DUP8 PUSH2 0x166F SWAP1 SWAP2 SWAP1 PUSH4 0xFFFFFFFF AND JUMP JUMPDEST SWAP1 POP DUP5 PUSH1 0xA0 ADD MLOAD DUP2 LT ISZERO PUSH2 0x30FA JUMPI POP PUSH1 0xA0 DUP5 ADD MLOAD JUMPDEST DUP5 PUSH1 0xC0 ADD MLOAD DUP2 GT ISZERO PUSH2 0x310D JUMPI POP PUSH1 0xC0 DUP5 ADD MLOAD JUMPDEST DUP3 ISZERO PUSH2 0x3124 JUMPI PUSH2 0x311D DUP5 DUP3 PUSH2 0x1F46 JUMP JUMPDEST SWAP2 POP PUSH2 0xE02 JUMP JUMPDEST DUP4 DUP2 GT PUSH2 0x3133 JUMPI DUP1 DUP5 SUB PUSH2 0xEBA JUMP JUMPDEST POP PUSH1 0x0 SWAP5 SWAP4 POP POP POP POP JUMP JUMPDEST PUSH1 0x0 PUSH2 0xC7A PUSH2 0x314D DUP5 DUP5 PUSH2 0x166F JUMP JUMPDEST PUSH4 0x3B9ACA00 PUSH2 0x2908 JUMP JUMPDEST PUSH1 0x0 PUSH2 0x3164 DUP5 DUP5 DUP5 PUSH2 0x2EE4 JUMP JUMPDEST SWAP1 POP PUSH1 0x0 PUSH2 0x3171 DUP6 PUSH2 0x3602 JUMP JUMPDEST SWAP1 POP DUP1 DUP3 GT PUSH2 0x3184 JUMPI PUSH1 0x0 SWAP2 POP POP PUSH2 0xC7A JUMP JUMPDEST DUP1 DUP3 SUB SWAP2 POP PUSH1 0x0 PUSH2 0x3194 DUP7 PUSH2 0x360F JUMP JUMPDEST SWAP1 POP DUP3 DUP2 LT ISZERO PUSH2 0x299B JUMPI SWAP6 SWAP5 POP POP POP POP POP JUMP JUMPDEST PUSH1 0x0 DUP1 PUSH2 0x31C4 PUSH2 0x31BF PUSH4 0x1DA9C00 PUSH2 0x1F2F DUP7 DUP9 PUSH2 0x166F JUMP JUMPDEST PUSH2 0x361C JUMP JUMPDEST SWAP1 POP PUSH2 0x31D6 DUP2 PUSH3 0x1DCD65 PUSH1 0x49 SHL PUSH2 0x363A JUMP JUMPDEST SWAP1 POP PUSH2 0x31E9 PUSH2 0x31E4 DUP3 PUSH2 0x368D JUMP JUMPDEST PUSH2 0x36AF JUMP JUMPDEST SWAP1 POP PUSH2 0x31FB DUP2 PUSH3 0x1DCD65 PUSH1 0x49 SHL PUSH2 0x3704 JUMP JUMPDEST SWAP1 POP PUSH1 0x0 PUSH2 0x3208 DUP3 PUSH2 0x373A JUMP JUMPDEST PUSH1 0x7 SIGNEXTEND SWAP6 SWAP5 POP POP POP POP POP JUMP JUMPDEST PUSH1 0x0 PUSH2 0x3221 DUP5 DUP5 DUP5 PUSH2 0x2EE4 JUMP JUMPDEST SWAP1 POP PUSH2 0x3236 PUSH2 0x322F DUP6 PUSH2 0x3743 JUMP JUMPDEST DUP3 SWAP1 PUSH2 0x1F46 JUMP JUMPDEST SWAP1 POP PUSH1 0x0 PUSH2 0x3243 DUP6 PUSH2 0x3750 JUMP JUMPDEST SWAP1 POP DUP1 DUP3 LT ISZERO PUSH2 0xE02 JUMPI SWAP5 SWAP4 POP POP POP POP JUMP JUMPDEST PUSH1 0x60 ADD MLOAD PUSH3 0x7A120 PUSH1 0x10 SWAP2 SWAP1 SWAP2 SHR PUSH1 0xFF AND MUL PUSH4 0x3B9ACA00 SUB SWAP1 JUMP JUMPDEST PUSH1 0x0 DUP2 SLT ISZERO PUSH2 0x327E JUMPI PUSH1 0x0 DUP1 REVERT JUMPDEST PUSH1 0x0 PUSH2 0x3288 PUSH2 0x1839 JUMP JUMPDEST PUSH1 0x1 PUSH1 0x1 PUSH1 0xA0 SHL SUB DUP6 AND PUSH1 0x0 SWAP1 DUP2 MSTORE PUSH1 0x20 DUP3 DUP2 MSTORE PUSH1 0x40 DUP1 DUP4 KECCAK256 PUSH2 0xFFFF DUP9 AND DUP5 MSTORE SWAP1 SWAP2 MSTORE SWAP1 KECCAK256 SWAP1 SWAP2 POP PUSH2 0x32B9 DUP4 PUSH2 0x375D JUMP JUMPDEST DUP2 SLOAD PUSH1 0xA SWAP2 SWAP1 SWAP2 SIGNEXTEND PUSH1 0x1 PUSH1 0x1 PUSH1 0x58 SHL SUB AND PUSH1 0x1 PUSH1 0xA8 SHL MUL PUSH1 0x1 PUSH1 0x1 PUSH1 0xA8 SHL SUB SWAP1 SWAP2 AND OR SWAP1 SSTORE POP POP POP POP JUMP JUMPDEST PUSH1 0x0 DUP1 PUSH2 0xC34 PUSH1 0x21 PUSH2 0x10B5 JUMP JUMPDEST PUSH1 0x60 ADD MLOAD PUSH2 0x12C PUSH1 0x8 SWAP2 SWAP1 SWAP2 SHR PUSH1 0xFF AND MUL SWAP1 JUMP JUMPDEST PUSH1 0x0 PUSH3 0x76A700 PUSH2 0x3314 DUP6 PUSH2 0x2AFD JUMP JUMPDEST ADD SWAP1 POP PUSH2 0x3326 DUP8 DUP8 DUP8 DUP8 DUP8 DUP8 DUP8 PUSH2 0x378F JUMP JUMPDEST POP POP POP POP POP POP POP JUMP JUMPDEST PUSH1 0x0 PUSH1 0x2 DUP3 LT DUP1 ISZERO SWAP1 PUSH2 0xC34 JUMPI POP POP PUSH1 0x8 LT ISZERO SWAP1 JUMP JUMPDEST PUSH1 0x0 DUP1 PUSH2 0xC34 PUSH1 0xC PUSH2 0x10B5 JUMP JUMPDEST PUSH1 0x0 DUP1 PUSH1 0x0 DUP6 GT PUSH2 0x3362 JUMPI PUSH1 0x0 DUP1 REVERT JUMPDEST PUSH1 0x7 DUP6 GT ISZERO PUSH2 0x3370 JUMPI PUSH1 0x0 DUP1 REVERT JUMPDEST PUSH1 0x0 PUSH2 0x337B DUP5 PUSH2 0x2AFD JUMP JUMPDEST SWAP1 POP PUSH1 0x1 JUMPDEST DUP7 DUP2 GT PUSH2 0x33D3 JUMPI PUSH1 0x0 PUSH2 0x339C PUSH2 0x3395 DUP4 PUSH2 0x2C9C JUMP JUMPDEST DUP5 SWAP1 PUSH2 0x1F46 JUMP JUMPDEST SWAP1 POP DUP7 DUP2 EQ ISZERO PUSH2 0x33B4 JUMPI POP SWAP3 POP PUSH1 0x0 SWAP2 POP PUSH2 0x924 SWAP1 POP JUMP JUMPDEST DUP7 DUP2 GT ISZERO PUSH2 0x33CA JUMPI POP SWAP3 POP PUSH1 0x1 SWAP2 POP PUSH2 0x924 SWAP1 POP JUMP JUMPDEST POP PUSH1 0x1 ADD PUSH2 0x3380 JUMP JUMPDEST POP PUSH1 0x0 DUP1 REVERT JUMPDEST PUSH1 0x0 DUP1 PUSH2 0x33E4 PUSH2 0x37C6 JUMP JUMPDEST SWAP1 POP PUSH1 0x0 PUSH3 0x76A700 PUSH2 0x33F5 DUP6 PUSH2 0x2AFD JUMP JUMPDEST PUSH1 0x0 DUP10 DUP2 MSTORE PUSH1 0x20 DUP6 DUP2 MSTORE PUSH1 0x40 DUP1 DUP4 KECCAK256 DUP12 DUP5 MSTORE DUP3 MSTORE DUP1 DUP4 KECCAK256 SWAP5 SWAP1 SWAP4 ADD DUP1 DUP4 MSTORE SWAP4 SWAP1 MSTORE KECCAK256 DUP1 SLOAD SWAP2 SWAP3 POP SWAP1 PUSH4 0xFFFFFFFF PUSH1 0x1 PUSH1 0xA0 SHL DUP3 DIV DUP2 AND SWAP2 PUSH1 0x1 PUSH1 0xC0 SHL DUP2 DIV DUP3 AND SWAP2 PUSH1 0x1 PUSH1 0xE0 SHL SWAP1 SWAP2 DIV AND DUP2 PUSH2 0x345C JUMPI PUSH1 0x40 MLOAD PUSH3 0x461BCD PUSH1 0xE5 SHL DUP2 MSTORE PUSH1 0x4 ADD PUSH2 0x1FF SWAP1 PUSH2 0x4AE9 JUMP JUMPDEST PUSH2 0x3469 DUP2 DUP5 DUP5 DUP13 DUP13 PUSH2 0x37D3 JUMP JUMPDEST SWAP12 SWAP11 POP POP POP POP POP POP POP POP POP POP POP JUMP JUMPDEST PUSH1 0x0 DUP2 DUP7 LT PUSH2 0x3486 JUMPI PUSH1 0x0 DUP1 REVERT JUMPDEST DUP5 DUP3 LT PUSH2 0x3492 JUMPI PUSH1 0x0 DUP1 REVERT JUMPDEST DUP4 DUP4 LT PUSH2 0x34B8 JUMPI PUSH2 0x34B1 DUP5 PUSH2 0x2B61 DUP9 DUP9 SUB PUSH2 0x1F2F DUP4 DUP9 SUB DUP12 DUP9 SUB PUSH2 0x166F JUMP JUMPDEST SWAP1 POP PUSH2 0xEBA JUMP JUMPDEST PUSH2 0x34B1 PUSH2 0x34CF DUP8 DUP8 SUB PUSH2 0x1F2F DUP7 DUP9 SUB DUP11 DUP8 SUB PUSH2 0x166F JUMP JUMPDEST DUP6 SWAP1 PUSH2 0x1F58 JUMP JUMPDEST PUSH1 0x0 DUP1 PUSH2 0xC34 PUSH1 0x1B PUSH2 0x10B5 JUMP JUMPDEST PUSH2 0x34EB PUSH2 0x4673 JUMP JUMPDEST PUSH1 0x64 PUSH4 0x3B9ACA00 DUP4 PUSH1 0xFF DUP7 AND PUSH1 0x20 DUP2 LT PUSH2 0x3501 JUMPI INVALID JUMPDEST BYTE MUL DUP2 PUSH2 0x350A JUMPI INVALID JUMPDEST DIV DUP2 MSTORE PUSH1 0x64 PUSH4 0x3B9ACA00 DUP4 PUSH1 0xFF DUP7 AND PUSH1 0x1 ADD PUSH1 0x20 DUP2 LT PUSH2 0x3526 JUMPI INVALID JUMPDEST BYTE MUL DUP2 PUSH2 0x352F JUMPI INVALID JUMPDEST DIV DUP2 PUSH1 0x20 ADD DUP2 DUP2 MSTORE POP POP PUSH2 0x3554 DUP3 PUSH1 0x2 DUP6 PUSH1 0xFF AND ADD PUSH1 0x20 DUP2 LT PUSH2 0x354E JUMPI INVALID JUMPDEST BYTE PUSH2 0x384E JUMP JUMPDEST PUSH1 0x80 DUP3 ADD DUP2 SWAP1 MSTORE PUSH2 0x100 SWAP1 DUP4 PUSH1 0xFF DUP7 AND PUSH1 0x3 ADD PUSH1 0x20 DUP2 LT PUSH2 0x3571 JUMPI INVALID JUMPDEST BYTE MUL DUP2 PUSH2 0x357A JUMPI INVALID JUMPDEST DIV PUSH1 0x40 DUP3 ADD MSTORE PUSH1 0x80 DUP2 ADD MLOAD PUSH2 0x100 SWAP1 DUP4 PUSH1 0xFF DUP7 AND PUSH1 0x4 ADD PUSH1 0x20 DUP2 LT PUSH2 0x359B JUMPI INVALID JUMPDEST BYTE MUL DUP2 PUSH2 0x35A4 JUMPI INVALID JUMPDEST DIV PUSH1 0x60 DUP3 ADD MSTORE PUSH3 0x7A120 DUP3 PUSH1 0xFF DUP6 AND PUSH1 0x5 ADD PUSH1 0x20 DUP2 LT PUSH2 0x35C0 JUMPI INVALID JUMPDEST BYTE MUL PUSH1 0xA0 DUP3 ADD MSTORE PUSH3 0x2625A0 DUP3 PUSH1 0xFF DUP6 AND PUSH1 0x6 ADD PUSH1 0x20 DUP2 LT PUSH2 0x35DD JUMPI INVALID JUMPDEST BYTE MUL PUSH1 0xC0 DUP3 ADD MSTORE DUP2 PUSH1 0xFF DUP5 AND PUSH1 0x7 ADD PUSH1 0x20 DUP2 LT PUSH2 0x35F6 JUMPI INVALID JUMPDEST BYTE PUSH1 0xE0 DUP3 ADD MSTORE SWAP3 SWAP2 POP POP JUMP JUMPDEST PUSH1 0x0 PUSH2 0xC34 DUP3 PUSH1 0x20 PUSH2 0x3882 JUMP JUMPDEST PUSH1 0x0 PUSH2 0xC34 DUP3 PUSH1 0x48 PUSH2 0x3882 JUMP JUMPDEST PUSH1 0x0 PUSH8 0x7FFFFFFFFFFFFFFF DUP3 GT ISZERO PUSH2 0x3633 JUMPI PUSH1 0x0 DUP1 REVERT JUMPDEST POP PUSH1 0x40 SHL SWAP1 JUMP JUMPDEST PUSH1 0x0 DUP2 PUSH1 0xF SIGNEXTEND PUSH1 0x0 EQ ISZERO PUSH2 0x364D JUMPI PUSH1 0x0 DUP1 REVERT JUMPDEST PUSH1 0x0 DUP3 PUSH1 0xF SIGNEXTEND PUSH1 0x40 DUP6 PUSH1 0xF SIGNEXTEND SWAP1 SHL DUP2 PUSH2 0x3662 JUMPI INVALID JUMPDEST SDIV SWAP1 POP PUSH1 0x1 PUSH1 0x1 PUSH1 0x7F SHL SUB NOT DUP2 SLT DUP1 ISZERO SWAP1 PUSH2 0x3684 JUMPI POP PUSH1 0x1 PUSH1 0x1 PUSH1 0x7F SHL SUB DUP2 SGT ISZERO JUMPDEST PUSH2 0xC7A JUMPI PUSH1 0x0 DUP1 REVERT JUMPDEST PUSH1 0x0 PUSH1 0xF DUP3 SWAP1 SIGNEXTEND PUSH1 0x1 PUSH1 0x1 PUSH1 0x7F SHL SUB NOT EQ ISZERO PUSH2 0x36A8 JUMPI PUSH1 0x0 DUP1 REVERT JUMPDEST POP PUSH1 0x0 SUB SWAP1 JUMP JUMPDEST PUSH1 0x0 PUSH1 0x1 PUSH1 0x46 SHL DUP3 PUSH1 0xF SIGNEXTEND SLT PUSH2 0x36C4 JUMPI PUSH1 0x0 DUP1 REVERT JUMPDEST PUSH9 0x3FFFFFFFFFFFFFFFFF NOT DUP3 PUSH1 0xF SIGNEXTEND SLT ISZERO PUSH2 0x36E1 JUMPI POP PUSH1 0x0 PUSH2 0x421 JUMP JUMPDEST PUSH2 0xC34 PUSH1 0x80 DUP4 PUSH1 0xF SIGNEXTEND PUSH17 0x171547652B82FE1777D0FFDA0D23A7D12 MUL SWAP1 SAR PUSH2 0x3895 JUMP JUMPDEST PUSH1 0x0 PUSH1 0xF DUP4 DUP2 SIGNEXTEND SWAP1 DUP4 SWAP1 SIGNEXTEND MUL PUSH1 0x40 SAR PUSH1 0x1 PUSH1 0x1 PUSH1 0x7F SHL SUB NOT DUP2 SLT DUP1 ISZERO SWAP1 PUSH2 0x3684 JUMPI POP PUSH1 0x1 PUSH1 0x1 PUSH1 0x7F SHL SUB DUP2 SGT ISZERO PUSH2 0xC7A JUMPI PUSH1 0x0 DUP1 REVERT JUMPDEST PUSH1 0xF SIGNEXTEND PUSH1 0x40 SAR SWAP1 JUMP JUMPDEST PUSH1 0x0 PUSH2 0xC34 DUP3 PUSH1 0x28 PUSH2 0x3882 JUMP JUMPDEST PUSH1 0x0 PUSH2 0xC34 DUP3 PUSH1 0x30 PUSH2 0x3882 JUMP JUMPDEST PUSH1 0x0 PUSH11 0x7FFFFFFFFFFFFFFFFFFFFF NOT DUP3 SLT DUP1 ISZERO SWAP1 PUSH2 0x3786 JUMPI POP PUSH11 0x7FFFFFFFFFFFFFFFFFFFFF DUP3 SGT ISZERO JUMPDEST PUSH2 0x16AC JUMPI PUSH1 0x0 DUP1 REVERT JUMPDEST PUSH2 0x379C DUP8 DUP8 DUP8 DUP7 DUP6 PUSH2 0x4345 JUMP JUMPDEST PUSH2 0x37B5 DUP8 PUSH1 0xE0 ADD MLOAD DUP9 PUSH1 0xA0 ADD MLOAD DUP10 PUSH1 0xC0 ADD MLOAD DUP6 DUP9 PUSH2 0x37D3 JUMP JUMPDEST PUSH1 0xC0 SWAP1 SWAP8 ADD SWAP7 SWAP1 SWAP7 MSTORE POP POP POP POP POP POP JUMP JUMPDEST PUSH1 0x0 DUP1 PUSH2 0xC34 PUSH1 0xA PUSH2 0x10B5 JUMP JUMPDEST PUSH1 0x0 DUP1 DUP4 GT PUSH2 0x37E1 JUMPI PUSH1 0x0 DUP1 REVERT JUMPDEST DUP2 DUP7 GT ISZERO PUSH2 0x37F0 JUMPI POP DUP4 PUSH2 0xEBA JUMP JUMPDEST PUSH1 0x0 PUSH2 0x37FC DUP4 DUP9 PUSH2 0x1F58 JUMP JUMPDEST SWAP1 POP DUP4 DUP2 GT ISZERO PUSH2 0x380F JUMPI DUP6 SWAP2 POP POP PUSH2 0xEBA JUMP JUMPDEST PUSH1 0x0 PUSH2 0x381B DUP3 DUP7 PUSH2 0x2FCD JUMP JUMPDEST SWAP1 POP PUSH1 0x0 PUSH2 0x382D PUSH4 0x3B9ACA00 DUP4 PUSH2 0x1F58 JUMP JUMPDEST SWAP1 POP PUSH2 0x27D2 PUSH4 0x3B9ACA00 PUSH2 0x1F2F PUSH2 0x3844 DUP11 DUP6 PUSH2 0x166F JUMP JUMPDEST PUSH2 0x2B61 DUP13 DUP8 PUSH2 0x166F JUMP JUMPDEST PUSH1 0x0 DUP2 PUSH1 0xFF AND PUSH1 0x96 LT PUSH2 0x3869 JUMPI PUSH1 0xFF DUP3 AND PUSH3 0x2625A0 MUL PUSH2 0xC34 JUMP JUMPDEST POP PUSH1 0x95 NOT PUSH1 0xFF SWAP2 SWAP1 SWAP2 AND ADD PUSH3 0xE4E1C0 MUL PUSH4 0x165A0BC0 ADD SWAP1 JUMP JUMPDEST PUSH1 0x60 SWAP1 SWAP2 ADD MLOAD PUSH1 0xFF SWAP2 SHR AND PUSH3 0x2625A0 MUL SWAP1 JUMP JUMPDEST PUSH1 0x0 PUSH1 0x1 PUSH1 0x46 SHL DUP3 PUSH1 0xF SIGNEXTEND SLT PUSH2 0x38AA JUMPI PUSH1 0x0 DUP1 REVERT JUMPDEST PUSH9 0x3FFFFFFFFFFFFFFFFF NOT DUP3 PUSH1 0xF SIGNEXTEND SLT ISZERO PUSH2 0x38C7 JUMPI POP PUSH1 0x0 PUSH2 0x421 JUMP JUMPDEST PUSH1 0x1 PUSH1 0x7F SHL PUSH1 0x0 PUSH8 0x8000000000000000 DUP5 AND PUSH1 0xF SIGNEXTEND SGT ISZERO PUSH2 0x38F9 JUMPI PUSH17 0x16A09E667F3BCC908B2FB1366EA957D3E MUL PUSH1 0x80 SHR JUMPDEST PUSH1 0x0 DUP4 PUSH8 0x4000000000000000 AND PUSH1 0xF SIGNEXTEND SGT ISZERO PUSH2 0x3926 JUMPI PUSH17 0x1306FE0A31B7152DE8D5A46305C85EDEC MUL PUSH1 0x80 SHR JUMPDEST PUSH1 0x0 DUP4 PUSH8 0x2000000000000000 AND PUSH1 0xF SIGNEXTEND SGT ISZERO PUSH2 0x3953 JUMPI PUSH17 0x1172B83C7D517ADCDF7C8C50EB14A791F MUL PUSH1 0x80 SHR JUMPDEST PUSH1 0x0 DUP4 PUSH8 0x1000000000000000 AND PUSH1 0xF SIGNEXTEND SGT ISZERO PUSH2 0x3980 JUMPI PUSH17 0x10B5586CF9890F6298B92B71842A98363 MUL PUSH1 0x80 SHR JUMPDEST PUSH1 0x0 DUP4 PUSH8 0x800000000000000 AND PUSH1 0xF SIGNEXTEND SGT ISZERO PUSH2 0x39AD JUMPI PUSH17 0x1059B0D31585743AE7C548EB68CA417FD MUL PUSH1 0x80 SHR JUMPDEST PUSH1 0x0 DUP4 PUSH8 0x400000000000000 AND PUSH1 0xF SIGNEXTEND SGT ISZERO PUSH2 0x39DA JUMPI PUSH17 0x102C9A3E778060EE6F7CACA4F7A29BDE8 MUL PUSH1 0x80 SHR JUMPDEST PUSH1 0x0 DUP4 PUSH8 0x200000000000000 AND PUSH1 0xF SIGNEXTEND SGT ISZERO PUSH2 0x3A07 JUMPI PUSH17 0x10163DA9FB33356D84A66AE336DCDFA3F MUL PUSH1 0x80 SHR JUMPDEST PUSH1 0x0 DUP4 PUSH1 0x1 PUSH1 0x38 SHL AND PUSH1 0xF SIGNEXTEND SGT ISZERO PUSH2 0x3A30 JUMPI PUSH17 0x100B1AFA5ABCBED6129AB13EC11DC9543 MUL PUSH1 0x80 SHR JUMPDEST PUSH1 0x0 DUP4 PUSH7 0x80000000000000 AND PUSH1 0xF SIGNEXTEND SGT ISZERO PUSH2 0x3A5C JUMPI PUSH17 0x10058C86DA1C09EA1FF19D294CF2F679B MUL PUSH1 0x80 SHR JUMPDEST PUSH1 0x0 DUP4 PUSH7 0x40000000000000 AND PUSH1 0xF SIGNEXTEND SGT ISZERO PUSH2 0x3A88 JUMPI PUSH17 0x1002C605E2E8CEC506D21BFC89A23A00F MUL PUSH1 0x80 SHR JUMPDEST PUSH1 0x0 DUP4 PUSH7 0x20000000000000 AND PUSH1 0xF SIGNEXTEND SGT ISZERO PUSH2 0x3AB4 JUMPI PUSH17 0x100162F3904051FA128BCA9C55C31E5DF MUL PUSH1 0x80 SHR JUMPDEST PUSH1 0x0 DUP4 PUSH7 0x10000000000000 AND PUSH1 0xF SIGNEXTEND SGT ISZERO PUSH2 0x3AE0 JUMPI PUSH17 0x1000B175EFFDC76BA38E31671CA939725 MUL PUSH1 0x80 SHR JUMPDEST PUSH1 0x0 DUP4 PUSH7 0x8000000000000 AND PUSH1 0xF SIGNEXTEND SGT ISZERO PUSH2 0x3B0C JUMPI PUSH17 0x100058BA01FB9F96D6CACD4B180917C3D MUL PUSH1 0x80 SHR JUMPDEST PUSH1 0x0 DUP4 PUSH7 0x4000000000000 AND PUSH1 0xF SIGNEXTEND SGT ISZERO PUSH2 0x3B38 JUMPI PUSH17 0x10002C5CC37DA9491D0985C348C68E7B3 MUL PUSH1 0x80 SHR JUMPDEST PUSH1 0x0 DUP4 PUSH7 0x2000000000000 AND PUSH1 0xF SIGNEXTEND SGT ISZERO PUSH2 0x3B64 JUMPI PUSH17 0x1000162E525EE054754457D5995292026 MUL PUSH1 0x80 SHR JUMPDEST PUSH1 0x0 DUP4 PUSH1 0x1 PUSH1 0x30 SHL AND PUSH1 0xF SIGNEXTEND SGT ISZERO PUSH2 0x3B8D JUMPI PUSH17 0x10000B17255775C040618BF4A4ADE83FC MUL PUSH1 0x80 SHR JUMPDEST PUSH1 0x0 DUP4 PUSH6 0x800000000000 AND PUSH1 0xF SIGNEXTEND SGT ISZERO PUSH2 0x3BB8 JUMPI PUSH17 0x1000058B91B5BC9AE2EED81E9B7D4CFAB MUL PUSH1 0x80 SHR JUMPDEST PUSH1 0x0 DUP4 PUSH6 0x400000000000 AND PUSH1 0xF SIGNEXTEND SGT ISZERO PUSH2 0x3BE3 JUMPI PUSH17 0x100002C5C89D5EC6CA4D7C8ACC017B7C9 MUL PUSH1 0x80 SHR JUMPDEST PUSH1 0x0 DUP4 PUSH6 0x200000000000 AND PUSH1 0xF SIGNEXTEND SGT ISZERO PUSH2 0x3C0E JUMPI PUSH17 0x10000162E43F4F831060E02D839A9D16D MUL PUSH1 0x80 SHR JUMPDEST PUSH1 0x0 DUP4 PUSH6 0x100000000000 AND PUSH1 0xF SIGNEXTEND SGT ISZERO PUSH2 0x3C39 JUMPI PUSH17 0x100000B1721BCFC99D9F890EA06911763 MUL PUSH1 0x80 SHR JUMPDEST PUSH1 0x0 DUP4 PUSH6 0x80000000000 AND PUSH1 0xF SIGNEXTEND SGT ISZERO PUSH2 0x3C64 JUMPI PUSH17 0x10000058B90CF1E6D97F9CA14DBCC1628 MUL PUSH1 0x80 SHR JUMPDEST PUSH1 0x0 DUP4 PUSH6 0x40000000000 AND PUSH1 0xF SIGNEXTEND SGT ISZERO PUSH2 0x3C8F JUMPI PUSH17 0x1000002C5C863B73F016468F6BAC5CA2B MUL PUSH1 0x80 SHR JUMPDEST PUSH1 0x0 DUP4 PUSH6 0x20000000000 AND PUSH1 0xF SIGNEXTEND SGT ISZERO PUSH2 0x3CBA JUMPI PUSH17 0x100000162E430E5A18F6119E3C02282A5 MUL PUSH1 0x80 SHR JUMPDEST PUSH1 0x0 DUP4 PUSH1 0x1 PUSH1 0x28 SHL AND PUSH1 0xF SIGNEXTEND SGT ISZERO PUSH2 0x3CE3 JUMPI PUSH17 0x1000000B1721835514B86E6D96EFD1BFE MUL PUSH1 0x80 SHR JUMPDEST PUSH1 0x0 DUP4 PUSH5 0x8000000000 AND PUSH1 0xF SIGNEXTEND SGT ISZERO PUSH2 0x3D0D JUMPI PUSH17 0x100000058B90C0B48C6BE5DF846C5B2EF MUL PUSH1 0x80 SHR JUMPDEST PUSH1 0x0 DUP4 PUSH5 0x4000000000 AND PUSH1 0xF SIGNEXTEND SGT ISZERO PUSH2 0x3D37 JUMPI PUSH17 0x10000002C5C8601CC6B9E94213C72737A MUL PUSH1 0x80 SHR JUMPDEST PUSH1 0x0 DUP4 PUSH5 0x2000000000 AND PUSH1 0xF SIGNEXTEND SGT ISZERO PUSH2 0x3D61 JUMPI PUSH17 0x1000000162E42FFF037DF38AA2B219F06 MUL PUSH1 0x80 SHR JUMPDEST PUSH1 0x0 DUP4 PUSH5 0x1000000000 AND PUSH1 0xF SIGNEXTEND SGT ISZERO PUSH2 0x3D8B JUMPI PUSH17 0x10000000B17217FBA9C739AA5819F44F9 MUL PUSH1 0x80 SHR JUMPDEST PUSH1 0x0 DUP4 PUSH5 0x800000000 AND PUSH1 0xF SIGNEXTEND SGT ISZERO PUSH2 0x3DB5 JUMPI PUSH17 0x1000000058B90BFCDEE5ACD3C1CEDC823 MUL PUSH1 0x80 SHR JUMPDEST PUSH1 0x0 DUP4 PUSH5 0x400000000 AND PUSH1 0xF SIGNEXTEND SGT ISZERO PUSH2 0x3DDF JUMPI PUSH17 0x100000002C5C85FE31F35A6A30DA1BE50 MUL PUSH1 0x80 SHR JUMPDEST PUSH1 0x0 DUP4 PUSH5 0x200000000 AND PUSH1 0xF SIGNEXTEND SGT ISZERO PUSH2 0x3E09 JUMPI PUSH17 0x10000000162E42FF0999CE3541B9FFFCF MUL PUSH1 0x80 SHR JUMPDEST PUSH1 0x0 DUP4 PUSH5 0x100000000 AND PUSH1 0xF SIGNEXTEND SGT ISZERO PUSH2 0x3E33 JUMPI PUSH17 0x100000000B17217F80F4EF5AADDA45554 MUL PUSH1 0x80 SHR JUMPDEST PUSH1 0x0 DUP4 PUSH4 0x80000000 AND PUSH1 0xF SIGNEXTEND SGT ISZERO PUSH2 0x3E5C JUMPI PUSH17 0x10000000058B90BFBF8479BD5A81B51AD MUL PUSH1 0x80 SHR JUMPDEST PUSH1 0x0 DUP4 PUSH4 0x40000000 AND PUSH1 0xF SIGNEXTEND SGT ISZERO PUSH2 0x3E85 JUMPI PUSH17 0x1000000002C5C85FDF84BD62AE30A74CC MUL PUSH1 0x80 SHR JUMPDEST PUSH1 0x0 DUP4 PUSH4 0x20000000 AND PUSH1 0xF SIGNEXTEND SGT ISZERO PUSH2 0x3EAE JUMPI PUSH17 0x100000000162E42FEFB2FED257559BDAA MUL PUSH1 0x80 SHR JUMPDEST PUSH1 0x0 DUP4 PUSH4 0x10000000 AND PUSH1 0xF SIGNEXTEND SGT ISZERO PUSH2 0x3ED7 JUMPI PUSH17 0x1000000000B17217F7D5A7716BBA4A9AE MUL PUSH1 0x80 SHR JUMPDEST PUSH1 0x0 DUP4 PUSH4 0x8000000 AND PUSH1 0xF SIGNEXTEND SGT ISZERO PUSH2 0x3F00 JUMPI PUSH17 0x100000000058B90BFBE9DDBAC5E109CCE MUL PUSH1 0x80 SHR JUMPDEST PUSH1 0x0 DUP4 PUSH4 0x4000000 AND PUSH1 0xF SIGNEXTEND SGT ISZERO PUSH2 0x3F29 JUMPI PUSH17 0x10000000002C5C85FDF4B15DE6F17EB0D MUL PUSH1 0x80 SHR JUMPDEST PUSH1 0x0 DUP4 PUSH4 0x2000000 AND PUSH1 0xF SIGNEXTEND SGT ISZERO PUSH2 0x3F52 JUMPI PUSH17 0x1000000000162E42FEFA494F1478FDE05 MUL PUSH1 0x80 SHR JUMPDEST PUSH1 0x0 DUP4 PUSH4 0x1000000 AND PUSH1 0xF SIGNEXTEND SGT ISZERO PUSH2 0x3F7B JUMPI PUSH17 0x10000000000B17217F7D20CF927C8E94C MUL PUSH1 0x80 SHR JUMPDEST PUSH1 0x0 DUP4 PUSH3 0x800000 AND PUSH1 0xF SIGNEXTEND SGT ISZERO PUSH2 0x3FA3 JUMPI PUSH17 0x1000000000058B90BFBE8F71CB4E4B33D MUL PUSH1 0x80 SHR JUMPDEST PUSH1 0x0 DUP4 PUSH3 0x400000 AND PUSH1 0xF SIGNEXTEND SGT ISZERO PUSH2 0x3FCB JUMPI PUSH17 0x100000000002C5C85FDF477B662B26945 MUL PUSH1 0x80 SHR JUMPDEST PUSH1 0x0 DUP4 PUSH3 0x200000 AND PUSH1 0xF SIGNEXTEND SGT ISZERO PUSH2 0x3FF3 JUMPI PUSH17 0x10000000000162E42FEFA3AE53369388C MUL PUSH1 0x80 SHR JUMPDEST PUSH1 0x0 DUP4 PUSH3 0x100000 AND PUSH1 0xF SIGNEXTEND SGT ISZERO PUSH2 0x401B JUMPI PUSH17 0x100000000000B17217F7D1D351A389D40 MUL PUSH1 0x80 SHR JUMPDEST PUSH1 0x0 DUP4 PUSH3 0x80000 AND PUSH1 0xF SIGNEXTEND SGT ISZERO PUSH2 0x4043 JUMPI PUSH17 0x10000000000058B90BFBE8E8B2D3D4EDE MUL PUSH1 0x80 SHR JUMPDEST PUSH1 0x0 DUP4 PUSH3 0x40000 AND PUSH1 0xF SIGNEXTEND SGT ISZERO PUSH2 0x406B JUMPI PUSH17 0x1000000000002C5C85FDF4741BEA6E77E MUL PUSH1 0x80 SHR JUMPDEST PUSH1 0x0 DUP4 PUSH3 0x20000 AND PUSH1 0xF SIGNEXTEND SGT ISZERO PUSH2 0x4093 JUMPI PUSH17 0x100000000000162E42FEFA39FE95583C2 MUL PUSH1 0x80 SHR JUMPDEST PUSH1 0x0 DUP4 PUSH3 0x10000 AND PUSH1 0xF SIGNEXTEND SGT ISZERO PUSH2 0x40BB JUMPI PUSH17 0x1000000000000B17217F7D1CFB72B45E1 MUL PUSH1 0x80 SHR JUMPDEST PUSH1 0x0 DUP4 PUSH2 0x8000 AND PUSH1 0xF SIGNEXTEND SGT ISZERO PUSH2 0x40E2 JUMPI PUSH17 0x100000000000058B90BFBE8E7CC35C3F0 MUL PUSH1 0x80 SHR JUMPDEST PUSH1 0x0 DUP4 PUSH2 0x4000 AND PUSH1 0xF SIGNEXTEND SGT ISZERO PUSH2 0x4109 JUMPI PUSH17 0x10000000000002C5C85FDF473E242EA38 MUL PUSH1 0x80 SHR JUMPDEST PUSH1 0x0 DUP4 PUSH2 0x2000 AND PUSH1 0xF SIGNEXTEND SGT ISZERO PUSH2 0x4130 JUMPI PUSH17 0x1000000000000162E42FEFA39F02B772C MUL PUSH1 0x80 SHR JUMPDEST PUSH1 0x0 DUP4 PUSH2 0x1000 AND PUSH1 0xF SIGNEXTEND SGT ISZERO PUSH2 0x4157 JUMPI PUSH17 0x10000000000000B17217F7D1CF7D83C1A MUL PUSH1 0x80 SHR JUMPDEST PUSH1 0x0 DUP4 PUSH2 0x800 AND PUSH1 0xF SIGNEXTEND SGT ISZERO PUSH2 0x417E JUMPI PUSH17 0x1000000000000058B90BFBE8E7BDCBE2E MUL PUSH1 0x80 SHR JUMPDEST PUSH1 0x0 DUP4 PUSH2 0x400 AND PUSH1 0xF SIGNEXTEND SGT ISZERO PUSH2 0x41A5 JUMPI PUSH17 0x100000000000002C5C85FDF473DEA871F MUL PUSH1 0x80 SHR JUMPDEST PUSH1 0x0 DUP4 PUSH2 0x200 AND PUSH1 0xF SIGNEXTEND SGT ISZERO PUSH2 0x41CC JUMPI PUSH17 0x10000000000000162E42FEFA39EF44D91 MUL PUSH1 0x80 SHR JUMPDEST PUSH1 0x0 DUP4 PUSH2 0x100 AND PUSH1 0xF SIGNEXTEND SGT ISZERO PUSH2 0x41F3 JUMPI PUSH17 0x100000000000000B17217F7D1CF79E949 MUL PUSH1 0x80 SHR JUMPDEST PUSH1 0x0 DUP4 PUSH1 0x80 AND PUSH1 0xF SIGNEXTEND SGT ISZERO PUSH2 0x4219 JUMPI PUSH17 0x10000000000000058B90BFBE8E7BCE544 MUL PUSH1 0x80 SHR JUMPDEST PUSH1 0x0 DUP4 PUSH1 0x40 AND PUSH1 0xF SIGNEXTEND SGT ISZERO PUSH2 0x423F JUMPI PUSH17 0x1000000000000002C5C85FDF473DE6ECA MUL PUSH1 0x80 SHR JUMPDEST PUSH1 0x0 DUP4 PUSH1 0x20 AND PUSH1 0xF SIGNEXTEND SGT ISZERO PUSH2 0x4265 JUMPI PUSH17 0x100000000000000162E42FEFA39EF366F MUL PUSH1 0x80 SHR JUMPDEST PUSH1 0x0 DUP4 PUSH1 0x10 AND PUSH1 0xF SIGNEXTEND SGT ISZERO PUSH2 0x428B JUMPI PUSH17 0x1000000000000000B17217F7D1CF79AFA MUL PUSH1 0x80 SHR JUMPDEST PUSH1 0x0 DUP4 PUSH1 0x8 AND PUSH1 0xF SIGNEXTEND SGT ISZERO PUSH2 0x42B1 JUMPI PUSH17 0x100000000000000058B90BFBE8E7BCD6D MUL PUSH1 0x80 SHR JUMPDEST PUSH1 0x0 DUP4 PUSH1 0x4 AND PUSH1 0xF SIGNEXTEND SGT ISZERO PUSH2 0x42D7 JUMPI PUSH17 0x10000000000000002C5C85FDF473DE6B2 MUL PUSH1 0x80 SHR JUMPDEST PUSH1 0x0 DUP4 PUSH1 0x2 AND PUSH1 0xF SIGNEXTEND SGT ISZERO PUSH2 0x42FD JUMPI PUSH17 0x1000000000000000162E42FEFA39EF358 MUL PUSH1 0x80 SHR JUMPDEST PUSH1 0x0 DUP4 PUSH1 0x1 AND PUSH1 0xF SIGNEXTEND SGT ISZERO PUSH2 0x4323 JUMPI PUSH17 0x10000000000000000B17217F7D1CF79AB MUL PUSH1 0x80 SHR JUMPDEST PUSH1 0xF DUP4 DUP2 SIGNEXTEND PUSH1 0x40 SAR PUSH1 0x3F SUB SWAP1 SIGNEXTEND SHR PUSH1 0x1 PUSH1 0x1 PUSH1 0x7F SHL SUB DUP2 GT ISZERO PUSH2 0xC34 JUMPI PUSH1 0x0 DUP1 REVERT JUMPDEST PUSH1 0x0 PUSH2 0x434F PUSH2 0x37C6 JUMP JUMPDEST PUSH1 0x0 DUP7 DUP2 MSTORE PUSH1 0x20 DUP3 DUP2 MSTORE PUSH1 0x40 DUP1 DUP4 KECCAK256 DUP9 DUP5 MSTORE DUP3 MSTORE DUP1 DUP4 KECCAK256 DUP7 DUP5 MSTORE DUP3 MSTORE SWAP2 DUP3 SWAP1 KECCAK256 DUP1 DUP11 MSTORE SWAP1 DUP10 ADD DUP8 SWAP1 MSTORE DUP1 SLOAD PUSH1 0x1 PUSH1 0x1 PUSH1 0x50 SHL SUB DUP1 DUP3 AND SWAP4 DUP12 ADD SWAP4 SWAP1 SWAP4 MSTORE PUSH1 0x1 PUSH1 0x50 SHL DUP2 DIV SWAP1 SWAP3 AND PUSH1 0x60 DUP11 ADD MSTORE PUSH4 0xFFFFFFFF PUSH1 0x1 PUSH1 0xA0 SHL DUP4 DIV DUP2 AND PUSH1 0xA0 DUP12 ADD MSTORE PUSH1 0x1 PUSH1 0xC0 SHL DUP4 DIV DUP2 AND PUSH1 0xC0 DUP12 ADD MSTORE PUSH1 0x1 PUSH1 0xE0 SHL SWAP1 SWAP3 DIV SWAP1 SWAP2 AND PUSH1 0xE0 DUP10 ADD MSTORE SWAP1 SWAP2 POP DUP1 DUP5 ISZERO PUSH2 0x43EE JUMPI PUSH1 0x1 DUP3 ADD SLOAD PUSH1 0x1 PUSH1 0x1 PUSH1 0x50 SHL SUB AND PUSH1 0x80 DUP10 ADD MSTORE PUSH2 0x2ACC JUMP JUMPDEST PUSH1 0x0 PUSH1 0x80 DUP10 ADD MSTORE POP POP POP POP POP POP POP POP JUMP JUMPDEST PUSH1 0x40 DUP1 MLOAD PUSH1 0xC0 DUP2 ADD DUP3 MSTORE PUSH1 0x0 DUP1 DUP3 MSTORE PUSH1 0x20 DUP3 ADD DUP2 SWAP1 MSTORE SWAP2 DUP2 ADD DUP3 SWAP1 MSTORE PUSH1 0x60 DUP2 ADD DUP3 SWAP1 MSTORE PUSH1 0x80 DUP2 ADD DUP3 SWAP1 MSTORE PUSH1 0xA0 DUP2 ADD SWAP2 SWAP1 SWAP2 MSTORE SWAP1 JUMP JUMPDEST PUSH1 0x40 MLOAD DUP1 PUSH2 0x160 ADD PUSH1 0x40 MSTORE DUP1 PUSH1 0x0 PUSH1 0x1 PUSH1 0x1 PUSH1 0xA0 SHL SUB AND DUP2 MSTORE PUSH1 0x20 ADD PUSH1 0x0 DUP2 MSTORE PUSH1 0x20 ADD PUSH1 0x0 DUP2 MSTORE PUSH1 0x20 ADD PUSH1 0x0 DUP2 MSTORE PUSH1 0x20 ADD PUSH1 0x0 DUP2 MSTORE PUSH1 0x20 ADD PUSH1 0x0 PUSH1 0x1 PUSH1 0x1 PUSH1 0xD0 SHL SUB NOT AND DUP2 MSTORE PUSH1 0x20 ADD PUSH2 0x4485 PUSH2 0x4528 JUMP JUMPDEST DUP2 MSTORE PUSH1 0x20 ADD PUSH2 0x4492 PUSH2 0x4528 JUMP JUMPDEST DUP2 MSTORE PUSH1 0x20 ADD PUSH2 0x449F PUSH2 0x4557 JUMP JUMPDEST DUP2 MSTORE PUSH1 0x20 ADD PUSH2 0x44AC PUSH2 0x4509 JUMP JUMPDEST DUP2 MSTORE PUSH1 0x0 PUSH1 0x20 SWAP1 SWAP2 ADD MSTORE SWAP1 JUMP JUMPDEST PUSH1 0x40 MLOAD DUP1 PUSH1 0xE0 ADD PUSH1 0x40 MSTORE DUP1 PUSH1 0x0 DUP2 MSTORE PUSH1 0x20 ADD PUSH1 0x0 ISZERO ISZERO DUP2 MSTORE PUSH1 0x20 ADD PUSH1 0x0 DUP2 MSTORE PUSH1 0x20 ADD PUSH2 0x44E3 PUSH2 0x4509 JUMP JUMPDEST DUP2 MSTORE PUSH1 0x20 ADD PUSH1 0x60 DUP2 MSTORE PUSH1 0x20 ADD PUSH2 0x44F7 PUSH2 0x4557 JUMP JUMPDEST DUP2 MSTORE PUSH1 0x20 ADD PUSH2 0x4504 PUSH2 0x46B8 JUMP JUMPDEST SWAP1 MSTORE SWAP1 JUMP JUMPDEST PUSH1 0x40 DUP1 MLOAD PUSH1 0x80 DUP2 ADD DUP3 MSTORE PUSH1 0x0 DUP1 DUP3 MSTORE PUSH1 0x20 DUP3 ADD MSTORE SWAP1 DUP2 ADD PUSH2 0x44AC PUSH2 0x4557 JUMP JUMPDEST PUSH1 0x40 MLOAD DUP1 PUSH1 0xA0 ADD PUSH1 0x40 MSTORE DUP1 PUSH1 0x0 DUP2 MSTORE PUSH1 0x20 ADD PUSH1 0x0 DUP2 MSTORE PUSH1 0x20 ADD PUSH1 0x0 DUP2 MSTORE PUSH1 0x20 ADD PUSH1 0x0 DUP2 MSTORE PUSH1 0x20 ADD PUSH1 0x0 DUP2 MSTORE POP SWAP1 JUMP JUMPDEST PUSH1 0x40 MLOAD DUP1 PUSH1 0x60 ADD PUSH1 0x40 MSTORE DUP1 PUSH1 0x0 DUP2 MSTORE PUSH1 0x20 ADD PUSH1 0x0 DUP2 MSTORE PUSH1 0x20 ADD PUSH1 0x0 DUP2 MSTORE POP SWAP1 JUMP JUMPDEST PUSH1 0x40 MLOAD DUP1 PUSH2 0x120 ADD PUSH1 0x40 MSTORE DUP1 PUSH1 0x0 DUP2 MSTORE PUSH1 0x20 ADD PUSH1 0x0 DUP2 MSTORE PUSH1 0x20 ADD PUSH1 0x0 DUP2 MSTORE PUSH1 0x20 ADD PUSH1 0x0 DUP2 MSTORE PUSH1 0x20 ADD PUSH1 0x0 DUP2 MSTORE PUSH1 0x20 ADD PUSH1 0x0 DUP2 MSTORE PUSH1 0x20 ADD PUSH1 0x0 DUP2 MSTORE PUSH1 0x20 ADD PUSH1 0x0 DUP2 MSTORE PUSH1 0x20 ADD PUSH1 0x0 DUP2 MSTORE POP SWAP1 JUMP JUMPDEST PUSH1 0x40 MLOAD DUP1 PUSH1 0xC0 ADD PUSH1 0x40 MSTORE DUP1 PUSH1 0x0 PUSH2 0xFFFF AND DUP2 MSTORE PUSH1 0x20 ADD PUSH1 0x0 DUP2 MSTORE PUSH1 0x20 ADD PUSH1 0x0 DUP2 MSTORE PUSH1 0x20 ADD PUSH1 0x0 DUP2 MSTORE PUSH1 0x20 ADD PUSH1 0x0 DUP2 MSTORE PUSH1 0x20 ADD PUSH1 0x0 PUSH1 0x3 DUP2 GT ISZERO PUSH2 0x4504 JUMPI INVALID JUMPDEST PUSH1 0x40 MLOAD DUP1 PUSH1 0x80 ADD PUSH1 0x40 MSTORE DUP1 PUSH1 0x60 DUP2 MSTORE PUSH1 0x20 ADD PUSH1 0x60 DUP2 MSTORE PUSH1 0x20 ADD PUSH1 0x0 DUP2 MSTORE PUSH1 0x20 ADD PUSH1 0x0 DUP2 MSTORE POP SWAP1 JUMP JUMPDEST PUSH1 0x40 MLOAD DUP1 PUSH2 0x100 ADD PUSH1 0x40 MSTORE DUP1 PUSH1 0x0 DUP1 NOT AND DUP2 MSTORE PUSH1 0x20 ADD PUSH1 0x0 DUP2 MSTORE PUSH1 0x20 ADD PUSH1 0x0 DUP2 MSTORE PUSH1 0x20 ADD PUSH1 0x0 DUP2 MSTORE PUSH1 0x20 ADD PUSH1 0x0 DUP2 MSTORE PUSH1 0x20 ADD PUSH1 0x0 DUP2 MSTORE PUSH1 0x20 ADD PUSH1 0x0 DUP2 MSTORE PUSH1 0x20 ADD PUSH1 0x0 DUP2 MSTORE POP SWAP1 JUMP JUMPDEST PUSH1 0x40 MLOAD DUP1 PUSH2 0x100 ADD PUSH1 0x40 MSTORE DUP1 PUSH1 0x0 DUP2 MSTORE PUSH1 0x20 ADD PUSH1 0x0 DUP2 MSTORE PUSH1 0x20 ADD PUSH1 0x0 DUP2 MSTORE PUSH1 0x20 ADD PUSH1 0x0 DUP2 MSTORE PUSH1 0x20 ADD PUSH1 0x0 DUP2 MSTORE PUSH1 0x20 ADD PUSH1 0x0 DUP2 MSTORE PUSH1 0x20 ADD PUSH1 0x0 DUP2 MSTORE PUSH1 0x20 ADD PUSH1 0x0 DUP2 MSTORE POP SWAP1 JUMP JUMPDEST PUSH1 0x40 MLOAD DUP1 PUSH1 0xE0 ADD PUSH1 0x40 MSTORE DUP1 PUSH2 0x46CB PUSH2 0x4509 JUMP JUMPDEST DUP2 MSTORE PUSH1 0x20 ADD PUSH2 0x46D8 PUSH2 0x4603 JUMP JUMPDEST DUP2 MSTORE PUSH1 0x0 PUSH1 0x20 DUP3 ADD DUP2 SWAP1 MSTORE PUSH1 0x40 DUP3 ADD DUP2 SWAP1 MSTORE PUSH1 0x60 DUP3 ADD DUP2 SWAP1 MSTORE PUSH1 0x80 DUP3 ADD DUP2 SWAP1 MSTORE PUSH1 0xA0 SWAP1 SWAP2 ADD MSTORE SWAP1 JUMP JUMPDEST DUP1 CALLDATALOAD PUSH1 0x1 PUSH1 0x1 PUSH1 0xA0 SHL SUB DUP2 AND DUP2 EQ PUSH2 0x421 JUMPI PUSH1 0x0 DUP1 REVERT JUMPDEST DUP1 MLOAD DUP1 ISZERO ISZERO DUP2 EQ PUSH2 0x421 JUMPI PUSH1 0x0 DUP1 REVERT JUMPDEST DUP1 MLOAD PUSH1 0x1 PUSH1 0x1 PUSH1 0x70 SHL SUB NOT DUP2 AND DUP2 EQ PUSH2 0x421 JUMPI PUSH1 0x0 DUP1 REVERT JUMPDEST DUP1 MLOAD PUSH1 0x1 PUSH1 0x1 PUSH1 0xF8 SHL SUB NOT DUP2 AND DUP2 EQ PUSH2 0x421 JUMPI PUSH1 0x0 DUP1 REVERT JUMPDEST DUP1 MLOAD PUSH2 0xFFFF DUP2 AND DUP2 EQ PUSH2 0x421 JUMPI PUSH1 0x0 DUP1 REVERT JUMPDEST DUP1 MLOAD PUSH1 0x1 PUSH1 0x1 PUSH1 0x50 SHL SUB DUP2 AND DUP2 EQ PUSH2 0x421 JUMPI PUSH1 0x0 DUP1 REVERT JUMPDEST DUP1 MLOAD PUSH1 0xFF DUP2 AND DUP2 EQ PUSH2 0x421 JUMPI PUSH1 0x0 DUP1 REVERT JUMPDEST PUSH1 0x0 PUSH1 0x20 DUP3 DUP5 SUB SLT ISZERO PUSH2 0x47A3 JUMPI DUP1 DUP2 REVERT JUMPDEST PUSH2 0xC7A DUP3 PUSH2 0x4701 JUMP JUMPDEST PUSH1 0x0 DUP1 PUSH1 0x0 PUSH1 0x60 DUP5 DUP7 SUB SLT ISZERO PUSH2 0x47C0 JUMPI DUP2 DUP3 REVERT JUMPDEST PUSH2 0x47C9 DUP5 PUSH2 0x4701 JUMP JUMPDEST SWAP6 PUSH1 0x20 DUP6 ADD CALLDATALOAD SWAP6 POP PUSH1 0x40 SWAP1 SWAP5 ADD CALLDATALOAD SWAP4 SWAP3 POP POP POP JUMP JUMPDEST PUSH1 0x0 PUSH1 0xC0 DUP3 DUP5 SUB SLT ISZERO PUSH2 0x47EF JUMPI DUP1 DUP2 REVERT JUMPDEST PUSH1 0x40 MLOAD PUSH1 0xC0 DUP2 ADD DUP2 DUP2 LT PUSH8 0xFFFFFFFFFFFFFFFF DUP3 GT OR ISZERO PUSH2 0x480C JUMPI INVALID JUMPDEST PUSH1 0x40 MSTORE DUP3 MLOAD PUSH5 0xFFFFFFFFFF DUP2 AND DUP2 EQ PUSH2 0x4823 JUMPI DUP3 DUP4 REVERT JUMPDEST DUP2 MSTORE PUSH2 0x4831 PUSH1 0x20 DUP5 ADD PUSH2 0x4740 JUMP JUMPDEST PUSH1 0x20 DUP3 ADD MSTORE PUSH2 0x4842 PUSH1 0x40 DUP5 ADD PUSH2 0x4781 JUMP JUMPDEST PUSH1 0x40 DUP3 ADD MSTORE PUSH2 0x4853 PUSH1 0x60 DUP5 ADD PUSH2 0x4758 JUMP JUMPDEST PUSH1 0x60 DUP3 ADD MSTORE PUSH2 0x4864 PUSH1 0x80 DUP5 ADD PUSH2 0x4728 JUMP JUMPDEST PUSH1 0x80 DUP3 ADD MSTORE PUSH2 0x4875 PUSH1 0xA0 DUP5 ADD PUSH2 0x4718 JUMP JUMPDEST PUSH1 0xA0 DUP3 ADD MSTORE SWAP4 SWAP3 POP POP POP JUMP JUMPDEST PUSH1 0x0 DUP1 PUSH1 0x40 DUP4 DUP6 SUB SLT ISZERO PUSH2 0x4893 JUMPI DUP2 DUP3 REVERT JUMPDEST POP POP DUP1 MLOAD PUSH1 0x20 SWAP1 SWAP2 ADD MLOAD SWAP1 SWAP3 SWAP1 SWAP2 POP JUMP JUMPDEST PUSH1 0x0 DUP1 PUSH1 0x0 DUP1 PUSH1 0x0 PUSH1 0xA0 DUP7 DUP9 SUB SLT ISZERO PUSH2 0x48BB JUMPI DUP1 DUP2 REVERT JUMPDEST PUSH2 0x48C4 DUP7 PUSH2 0x476A JUMP JUMPDEST SWAP5 POP PUSH1 0x20 DUP7 ADD MLOAD SWAP4 POP PUSH1 0x40 DUP7 ADD MLOAD SWAP3 POP PUSH1 0x60 DUP7 ADD MLOAD SWAP2 POP PUSH2 0x48E7 PUSH1 0x80 DUP8 ADD PUSH2 0x476A JUMP JUMPDEST SWAP1 POP SWAP3 SWAP6 POP SWAP3 SWAP6 SWAP1 SWAP4 POP JUMP JUMPDEST PUSH1 0x1 PUSH1 0x1 PUSH1 0xA0 SHL SUB AND SWAP1 MSTORE JUMP JUMPDEST PUSH1 0x0 DUP2 MLOAD DUP1 DUP5 MSTORE PUSH1 0x20 DUP1 DUP6 ADD SWAP5 POP DUP1 DUP5 ADD DUP4 JUMPDEST DUP4 DUP2 LT ISZERO PUSH2 0x4971 JUMPI DUP2 MLOAD DUP1 MLOAD PUSH2 0xFFFF AND DUP9 MSTORE DUP4 DUP2 ADD MLOAD DUP5 DUP10 ADD MSTORE PUSH1 0x40 DUP1 DUP3 ADD MLOAD SWAP1 DUP10 ADD MSTORE PUSH1 0x60 DUP1 DUP3 ADD MLOAD SWAP1 DUP10 ADD MSTORE PUSH1 0x80 DUP1 DUP3 ADD MLOAD SWAP1 DUP10 ADD MSTORE PUSH1 0xA0 SWAP1 DUP2 ADD MLOAD SWAP1 PUSH1 0x4 DUP3 LT PUSH2 0x495C JUMPI INVALID JUMPDEST DUP9 ADD MSTORE PUSH1 0xC0 SWAP1 SWAP7 ADD SWAP6 SWAP1 DUP3 ADD SWAP1 PUSH1 0x1 ADD PUSH2 0x4913 JUMP JUMPDEST POP SWAP5 SWAP6 SWAP5 POP POP POP POP POP JUMP JUMPDEST ISZERO ISZERO SWAP1 MSTORE JUMP JUMPDEST PUSH1 0x1 PUSH1 0x1 PUSH1 0xD0 SHL SUB NOT AND SWAP1 MSTORE JUMP JUMPDEST DUP1 MLOAD PUSH5 0xFFFFFFFFFF AND DUP3 MSTORE PUSH1 0x20 DUP1 DUP3 ADD MLOAD PUSH1 0x1 PUSH1 0x1 PUSH1 0xF8 SHL SUB NOT AND SWAP1 DUP4 ADD MSTORE PUSH1 0x40 DUP1 DUP3 ADD MLOAD PUSH1 0xFF AND SWAP1 DUP4 ADD MSTORE PUSH1 0x60 DUP1 DUP3 ADD MLOAD PUSH2 0xFFFF AND SWAP1 DUP4 ADD MSTORE PUSH1 0x80 DUP1 DUP3 ADD MLOAD PUSH1 0x1 PUSH1 0x1 PUSH1 0x70 SHL SUB NOT AND SWAP1 DUP4 ADD MSTORE PUSH1 0xA0 SWAP1 DUP2 ADD MLOAD ISZERO ISZERO SWAP2 ADD MSTORE JUMP JUMPDEST PUSH2 0xFFFF DUP2 MLOAD AND DUP3 MSTORE PUSH1 0x20 DUP2 ADD MLOAD PUSH1 0x20 DUP4 ADD MSTORE PUSH1 0x40 DUP2 ADD MLOAD PUSH2 0x4A0F PUSH1 0x40 DUP5 ADD DUP3 PUSH2 0x4A4D JUMP JUMPDEST POP PUSH1 0x60 ADD MLOAD PUSH1 0xA0 SWAP2 SWAP1 SWAP2 ADD MSTORE JUMP JUMPDEST DUP1 MLOAD DUP3 MSTORE PUSH1 0x20 DUP2 ADD MLOAD PUSH1 0x20 DUP4 ADD MSTORE PUSH1 0x40 DUP2 ADD MLOAD PUSH1 0x40 DUP4 ADD MSTORE PUSH1 0x60 DUP2 ADD MLOAD PUSH1 0x60 DUP4 ADD MSTORE PUSH1 0x80 DUP2 ADD MLOAD PUSH1 0x80 DUP4 ADD MSTORE POP POP JUMP JUMPDEST DUP1 MLOAD DUP3 MSTORE PUSH1 0x20 DUP1 DUP3 ADD MLOAD SWAP1 DUP4 ADD MSTORE PUSH1 0x40 SWAP1 DUP2 ADD MLOAD SWAP2 ADD MSTORE JUMP JUMPDEST PUSH1 0x1 PUSH1 0x1 PUSH1 0xA0 SHL SUB SWAP3 SWAP1 SWAP3 AND DUP3 MSTORE PUSH1 0x20 DUP3 ADD MSTORE PUSH1 0x40 ADD SWAP1 JUMP JUMPDEST PUSH1 0x1 PUSH1 0x1 PUSH1 0xA0 SHL SUB DUP4 AND DUP2 MSTORE PUSH1 0xE0 DUP2 ADD PUSH2 0xC7A PUSH1 0x20 DUP4 ADD DUP5 PUSH2 0x4990 JUMP JUMPDEST PUSH1 0x0 PUSH1 0x40 DUP3 ADD DUP5 DUP4 MSTORE PUSH1 0x20 PUSH1 0x40 DUP2 DUP6 ADD MSTORE DUP2 DUP6 MLOAD DUP1 DUP5 MSTORE PUSH1 0x60 DUP7 ADD SWAP2 POP DUP3 DUP8 ADD SWAP4 POP DUP5 JUMPDEST DUP2 DUP2 LT ISZERO PUSH2 0x4ADC JUMPI DUP5 MLOAD DUP4 MSTORE SWAP4 DUP4 ADD SWAP4 SWAP2 DUP4 ADD SWAP2 PUSH1 0x1 ADD PUSH2 0x4AC0 JUMP JUMPDEST POP SWAP1 SWAP8 SWAP7 POP POP POP POP POP POP POP JUMP JUMPDEST PUSH1 0x20 DUP1 DUP3 MSTORE PUSH1 0x16 SWAP1 DUP3 ADD MSTORE PUSH22 0x13585C9AD95D081B9BDD081A5B9A5D1A585B1A5E9959 PUSH1 0x52 SHL PUSH1 0x40 DUP3 ADD MSTORE PUSH1 0x60 ADD SWAP1 JUMP JUMPDEST PUSH1 0x20 DUP1 DUP3 MSTORE PUSH1 0xD SWAP1 DUP3 ADD MSTORE PUSH13 0x92DCECC2D8D2C840D2DCC8CAF PUSH1 0x9B SHL PUSH1 0x40 DUP3 ADD MSTORE PUSH1 0x60 ADD SWAP1 JUMP JUMPDEST PUSH1 0x20 DUP1 DUP3 MSTORE PUSH1 0x12 SWAP1 DUP3 ADD MSTORE PUSH18 0x105CDCD95D1CC81B9BDD081CD95D1D1B1959 PUSH1 0x72 SHL PUSH1 0x40 DUP3 ADD MSTORE PUSH1 0x60 ADD SWAP1 JUMP JUMPDEST PUSH1 0x20 DUP1 DUP3 MSTORE PUSH1 0xE SWAP1 DUP3 ADD MSTORE PUSH14 0x125B9D985B1A59081B585C9AD95D PUSH1 0x92 SHL PUSH1 0x40 DUP3 ADD MSTORE PUSH1 0x60 ADD SWAP1 JUMP JUMPDEST PUSH1 0x20 DUP1 DUP3 MSTORE PUSH1 0x16 SWAP1 DUP3 ADD MSTORE PUSH22 0x14D95C5D595B98D95C8811DC9858D94814195C9A5BD9 PUSH1 0x52 SHL PUSH1 0x40 DUP3 ADD MSTORE PUSH1 0x60 ADD SWAP1 JUMP JUMPDEST PUSH1 0x20 DUP1 DUP3 MSTORE PUSH1 0xE SWAP1 DUP3 ADD MSTORE PUSH14 0x29B2B8BAB2B731B2B9102237BBB7 PUSH1 0x91 SHL PUSH1 0x40 DUP3 ADD MSTORE PUSH1 0x60 ADD SWAP1 JUMP JUMPDEST PUSH1 0x20 DUP1 DUP3 MSTORE PUSH1 0x15 SWAP1 DUP3 ADD MSTORE PUSH21 0x14DD59999A58DA595B9D0818DBDB1B185D195C985B PUSH1 0x5A SHL PUSH1 0x40 DUP3 ADD MSTORE PUSH1 0x60 ADD SWAP1 JUMP JUMPDEST PUSH1 0x20 DUP1 DUP3 MSTORE PUSH1 0x1C SWAP1 DUP3 ADD MSTORE PUSH32 0x496E73756666696369656E74206672656520636F6C6C61746572616C00000000 PUSH1 0x40 DUP3 ADD MSTORE PUSH1 0x60 ADD SWAP1 JUMP JUMPDEST PUSH1 0x0 PUSH2 0x420 PUSH2 0x4C61 DUP4 DUP8 PUSH2 0x4990 JUMP JUMPDEST PUSH2 0x4C6F PUSH1 0xC0 DUP5 ADD DUP7 MLOAD PUSH2 0x48F3 JUMP JUMPDEST PUSH1 0x20 DUP6 ADD MLOAD PUSH1 0xE0 DUP5 ADD MSTORE PUSH1 0x40 DUP6 ADD MLOAD PUSH2 0x100 DUP2 DUP2 DUP7 ADD MSTORE PUSH1 0x60 DUP8 ADD MLOAD SWAP2 POP PUSH2 0x120 DUP3 DUP2 DUP8 ADD MSTORE PUSH1 0x80 DUP9 ADD MLOAD SWAP3 POP PUSH2 0x140 DUP4 DUP2 DUP9 ADD MSTORE PUSH1 0xA0 DUP10 ADD MLOAD SWAP4 POP PUSH2 0x4CB9 PUSH2 0x160 DUP9 ADD DUP6 PUSH2 0x4982 JUMP JUMPDEST PUSH1 0xC0 DUP10 ADD MLOAD SWAP4 POP PUSH2 0x4CCE PUSH2 0x180 DUP9 ADD DUP6 PUSH2 0x4A1D JUMP JUMPDEST PUSH1 0xE0 DUP10 ADD MLOAD SWAP4 POP PUSH2 0x4CE3 PUSH2 0x220 DUP9 ADD DUP6 PUSH2 0x4A1D JUMP JUMPDEST DUP3 DUP10 ADD MLOAD SWAP4 POP PUSH2 0x4CF7 PUSH2 0x2C0 DUP9 ADD DUP6 PUSH2 0x4A4D JUMP JUMPDEST DUP2 DUP10 ADD MLOAD SWAP4 POP PUSH2 0x4D0B PUSH2 0x320 DUP9 ADD DUP6 PUSH2 0x49EB JUMP JUMPDEST DUP9 ADD MLOAD SWAP3 POP PUSH2 0x4D21 SWAP2 POP POP PUSH2 0x3E0 DUP6 ADD DUP3 PUSH2 0x497C JUMP JUMPDEST POP DUP1 PUSH2 0x400 DUP5 ADD MSTORE PUSH2 0x19CC DUP2 DUP5 ADD DUP6 PUSH2 0x4900 JUMP JUMPDEST SWAP3 DUP4 MSTORE PUSH1 0x20 DUP4 ADD SWAP2 SWAP1 SWAP2 MSTORE PUSH1 0x40 DUP3 ADD MSTORE PUSH1 0x60 ADD SWAP1 JUMP INVALID LOG2 PUSH5 0x6970667358 0x22 SLT KECCAK256 COINBASE CALLDATASIZE DELEGATECALL DUP4 0x5C XOR PC ADDMOD 0xC0 0xB3 0xB8 LOG3 0xBE 0x2D MUL 0x26 0xD5 0xB0 SELFBALANCE 0xD SWAP8 0xB4 SWAP9 DUP1 SLT 0xAE PUSH30 0x59168E92FA64736F6C634300070600330000000000000000000000000000 ","sha1":"e23150997a91992c33f593a3d734bbd4c5289e28","source":"// SPDX-License-Identifier: GPL-3.0-only\npragma solidity =0.7.6;\npragma abicoder v2;\n\nimport \"../global/Deployments.sol\";\nimport \"../external/SettleAssetsExternal.sol\";\nimport \"../internal/AccountContextHandler.sol\";\nimport \"../internal/valuation/FreeCollateral.sol\";\n\n/// @title Externally deployed library for free collateral calculations\nlibrary FreeCollateralExternal {\n    using AccountContextHandler for AccountContext;\n    // Grace period after a sequencer downtime has occurred\n    uint256 internal constant SEQUENCER_UPTIME_GRACE_PERIOD = 1 hours;\n\n    function _checkSequencer() private view {\n        // See: https://docs.chain.link/data-feeds/l2-sequencer-feeds/\n        if (address(Deployments.SEQUENCER_UPTIME_ORACLE) != address(0)) {\n            (\n                /*uint80 roundID*/,\n                int256 answer,\n                uint256 startedAt,\n                /*uint256 updatedAt*/,\n                /*uint80 answeredInRound*/\n            ) = Deployments.SEQUENCER_UPTIME_ORACLE.latestRoundData();\n            require(answer == 0, \"Sequencer Down\");\n            require(SEQUENCER_UPTIME_GRACE_PERIOD < block.timestamp - startedAt, \"Sequencer Grace Period\");\n        }\n    }\n\n    /// @notice Returns the ETH denominated free collateral of an account, represents the amount of\n    /// debt that the account can incur before liquidation. If an account's assets need to be settled this\n    /// will revert, either settle the account or use the off chain SDK to calculate free collateral.\n    /// @dev Called via the Views.sol method to return an account's free collateral. Does not work\n    /// for the nToken, the nToken does not have an account context.\n    /// @param account account to calculate free collateral for\n    /// @return total free collateral in ETH w/ 8 decimal places\n    /// @return array of net local values in asset values ordered by currency id\n    function getFreeCollateralView(address account)\n        external\n        view\n        returns (int256, int256[] memory)\n    {\n        AccountContext memory accountContext = AccountContextHandler.getAccountContext(account);\n        // The internal free collateral function does not account for settled assets. The Notional SDK\n        // can calculate the free collateral off chain if required at this point.\n        require(!accountContext.mustSettleAssets(), \"Assets not settled\");\n        return FreeCollateral.getFreeCollateralView(account, accountContext, block.timestamp);\n    }\n\n    /// @notice Calculates free collateral and will revert if it falls below zero. If the account context\n    /// must be updated due to changes in debt settings, will update. Cannot check free collateral if assets\n    /// need to be settled first.\n    /// @dev Cannot be called directly by users, used during various actions that require an FC check. Must be\n    /// called before the end of any transaction for accounts where FC can decrease.\n    /// @param account account to calculate free collateral for\n    function checkFreeCollateralAndRevert(address account) external {\n        // Prevents new debt positions from being initiated if the sequencer is down, only applies to L2 environments\n        // like Arbitrum and Optimism where this is a concern. Accounts with no risk do not get a free\n        // collateral check and will bypass this check.\n        _checkSequencer();\n\n        AccountContext memory accountContext = AccountContextHandler.getAccountContext(account);\n        require(!accountContext.mustSettleAssets(), \"Assets not settled\");\n\n        (int256 ethDenominatedFC, bool updateContext) =\n            FreeCollateral.getFreeCollateralStateful(account, accountContext, block.timestamp);\n\n        if (updateContext) {\n            accountContext.setAccountContext(account);\n        }\n\n        require(ethDenominatedFC >= 0, \"Insufficient free collateral\");\n    }\n\n    /// @notice Calculates liquidation factors for an account\n    /// @dev Only called internally by liquidation actions, does some initial validation of currencies. If a currency is\n    /// specified that the account does not have, a asset available figure of zero will be returned. If this is the case then\n    /// liquidation actions will revert.\n    /// @dev an ntoken account will return 0 FC and revert if called\n    /// @param account account to liquidate\n    /// @param localCurrencyId currency that the debts are denominated in\n    /// @param collateralCurrencyId collateral currency to liquidate against, set to zero in the case of local currency liquidation\n    /// @return accountContext the accountContext of the liquidated account\n    /// @return factors struct of relevant factors for liquidation\n    /// @return portfolio the portfolio array of the account (bitmap accounts will return an empty array)\n    function getLiquidationFactors(\n        address account,\n        uint256 localCurrencyId,\n        uint256 collateralCurrencyId\n    )\n        external\n        returns (\n            AccountContext memory accountContext,\n            LiquidationFactors memory factors,\n            PortfolioAsset[] memory portfolio\n        )\n    {\n        // Prevents new liquidations from being initiated if the sequencer is down, only applies to L2 environments\n        // like Arbitrum and Optimism where this is a concern.\n        _checkSequencer();\n\n        accountContext = AccountContextHandler.getAccountContext(account);\n        if (accountContext.mustSettleAssets()) {\n            accountContext = SettleAssetsExternal.settleAccount(account, accountContext);\n        }\n\n        if (accountContext.isBitmapEnabled()) {\n            // A bitmap currency can only ever hold debt in this currency\n            require(localCurrencyId == accountContext.bitmapCurrencyId);\n        }\n\n        (factors, portfolio) = FreeCollateral.getLiquidationFactors(\n            account,\n            accountContext,\n            block.timestamp,\n            localCurrencyId,\n            collateralCurrencyId\n        );\n    }\n}\n","sourcePath":"contracts/external/FreeCollateralExternal.sol","type":"library","deployment":{"address":"0xf09915D4B20E5B2B08b3aB18Daf15A5F0703585E","chainid":"42161","blockHeight":119784671}}