{"abi":[{"inputs":[{"internalType":"address","name":"tokenAddress","type":"address"},{"internalType":"uint256","name":"nTokenBalance","type":"uint256"},{"internalType":"uint256","name":"lastClaimTime","type":"uint256"},{"internalType":"uint256","name":"lastClaimIntegralSupply","type":"uint256"}],"name":"migrateAccountFromPreviousCalculation","outputs":[{"internalType":"uint256","name":"","type":"uint256"}],"stateMutability":"view","type":"function"}],"bytecode":"610360610026600b82828239805160001a60731461001957fe5b30600052607381538281f3fe73000000000000000000000000000000000000000030146080604052600436106100355760003560e01c8063e0c01a721461003a575b600080fd5b61004d6100483660046102bb565b610063565b60405161005a9190610300565b60405180910390f35b6000806000806100728861011f565b92509250925085600014806100875750808610155b156100985760009350505050610117565b85810360006100c56301da9c006100bf6305f5e1006100b989818884610189565b90610189565b906101eb565b905060006100d7836100bf878b610252565b9050806100ed5760009650505050505050610117565b60006100fd826100bf8d86610189565b905061010d816305f5e1006101eb565b9750505050505050505b949350505050565b60008060008061012d6102af565b6001600160a01b0395909516600090815260209590955250506040909220546bffffffffffffffffffffffff811693600160601b82046fffffffffffffffffffffffffffffffff169350600160e01b90910463ffffffff169150565b600082610198575060006101e5565b828202828482816101a557fe5b04146101e25760405162461bcd60e51b815260040180806020018281038252602181526020018061030a6021913960400191505060405180910390fd5b90505b92915050565b6000808211610241576040805162461bcd60e51b815260206004820152601a60248201527f536166654d6174683a206469766973696f6e206279207a65726f000000000000604482015290519081900360640190fd5b81838161024a57fe5b049392505050565b6000828211156102a9576040805162461bcd60e51b815260206004820152601e60248201527f536166654d6174683a207375627472616374696f6e206f766572666c6f770000604482015290519081900360640190fd5b50900390565b600080620f424e6101e5565b600080600080608085870312156102d0578384fd5b84356001600160a01b03811681146102e6578485fd5b966020860135965060408601359560600135945092505050565b9081526020019056fe536166654d6174683a206d756c7469706c69636174696f6e206f766572666c6f77a2646970667358221220fd0c48b3a627481a7880a7687c5a9db59f64c0e56fa156d7037483e264866f1964736f6c63430007060033","bytecodeSha1":"79e1343cbbdfb0b8905f41d3447149b36595116c","compiler":{"evm_version":"istanbul","optimizer":{"enabled":true,"runs":200},"version":"0.7.6+commit.7338295f"},"contractName":"MigrateIncentives","language":"Solidity","natspec":{"kind":"dev","methods":{"migrateAccountFromPreviousCalculation(address,uint256,uint256,uint256)":{"notice":"Calculates the claimable incentives for a particular nToken and account in the previous regime. This should only ever be called ONCE for an account / currency combination to get the incentives accrued up until the migration date."}},"notice":"Deployed library for migration of incentives from the old (inaccurate) calculation to a newer, more accurate calculation based on SushiSwap MasterChef math. The more accurate calculation is inside `Incentives.sol` and this library holds the legacy calculation. System migration code can be found in `MigrateIncentivesFix.sol`","version":1},"opcodes":"PUSH20 0x0 ADDRESS EQ PUSH1 0x80 PUSH1 0x40 MSTORE PUSH1 0x4 CALLDATASIZE LT PUSH2 0x35 JUMPI PUSH1 0x0 CALLDATALOAD PUSH1 0xE0 SHR DUP1 PUSH4 0xE0C01A72 EQ PUSH2 0x3A JUMPI JUMPDEST PUSH1 0x0 DUP1 REVERT JUMPDEST PUSH2 0x4D PUSH2 0x48 CALLDATASIZE PUSH1 0x4 PUSH2 0x2BB JUMP JUMPDEST PUSH2 0x63 JUMP JUMPDEST PUSH1 0x40 MLOAD PUSH2 0x5A SWAP2 SWAP1 PUSH2 0x300 JUMP JUMPDEST PUSH1 0x40 MLOAD DUP1 SWAP2 SUB SWAP1 RETURN JUMPDEST PUSH1 0x0 DUP1 PUSH1 0x0 DUP1 PUSH2 0x72 DUP9 PUSH2 0x11F JUMP JUMPDEST SWAP3 POP SWAP3 POP SWAP3 POP DUP6 PUSH1 0x0 EQ DUP1 PUSH2 0x87 JUMPI POP DUP1 DUP7 LT ISZERO JUMPDEST ISZERO PUSH2 0x98 JUMPI PUSH1 0x0 SWAP4 POP POP POP POP PUSH2 0x117 JUMP JUMPDEST DUP6 DUP2 SUB PUSH1 0x0 PUSH2 0xC5 PUSH4 0x1DA9C00 PUSH2 0xBF PUSH4 0x5F5E100 PUSH2 0xB9 DUP10 DUP2 DUP9 DUP5 PUSH2 0x189 JUMP JUMPDEST SWAP1 PUSH2 0x189 JUMP JUMPDEST SWAP1 PUSH2 0x1EB JUMP JUMPDEST SWAP1 POP PUSH1 0x0 PUSH2 0xD7 DUP4 PUSH2 0xBF DUP8 DUP12 PUSH2 0x252 JUMP JUMPDEST SWAP1 POP DUP1 PUSH2 0xED JUMPI PUSH1 0x0 SWAP7 POP POP POP POP POP POP POP PUSH2 0x117 JUMP JUMPDEST PUSH1 0x0 PUSH2 0xFD DUP3 PUSH2 0xBF DUP14 DUP7 PUSH2 0x189 JUMP JUMPDEST SWAP1 POP PUSH2 0x10D DUP2 PUSH4 0x5F5E100 PUSH2 0x1EB JUMP JUMPDEST SWAP8 POP POP POP POP POP POP POP POP JUMPDEST SWAP5 SWAP4 POP POP POP POP JUMP JUMPDEST PUSH1 0x0 DUP1 PUSH1 0x0 DUP1 PUSH2 0x12D PUSH2 0x2AF JUMP JUMPDEST PUSH1 0x1 PUSH1 0x1 PUSH1 0xA0 SHL SUB SWAP6 SWAP1 SWAP6 AND PUSH1 0x0 SWAP1 DUP2 MSTORE PUSH1 0x20 SWAP6 SWAP1 SWAP6 MSTORE POP POP PUSH1 0x40 SWAP1 SWAP3 KECCAK256 SLOAD PUSH12 0xFFFFFFFFFFFFFFFFFFFFFFFF DUP2 AND SWAP4 PUSH1 0x1 PUSH1 0x60 SHL DUP3 DIV PUSH16 0xFFFFFFFFFFFFFFFFFFFFFFFFFFFFFFFF AND SWAP4 POP PUSH1 0x1 PUSH1 0xE0 SHL SWAP1 SWAP2 DIV PUSH4 0xFFFFFFFF AND SWAP2 POP JUMP JUMPDEST PUSH1 0x0 DUP3 PUSH2 0x198 JUMPI POP PUSH1 0x0 PUSH2 0x1E5 JUMP JUMPDEST DUP3 DUP3 MUL DUP3 DUP5 DUP3 DUP2 PUSH2 0x1A5 JUMPI INVALID JUMPDEST DIV EQ PUSH2 0x1E2 JUMPI PUSH1 0x40 MLOAD PUSH3 0x461BCD PUSH1 0xE5 SHL DUP2 MSTORE PUSH1 0x4 ADD DUP1 DUP1 PUSH1 0x20 ADD DUP3 DUP2 SUB DUP3 MSTORE PUSH1 0x21 DUP2 MSTORE PUSH1 0x20 ADD DUP1 PUSH2 0x30A PUSH1 0x21 SWAP2 CODECOPY PUSH1 0x40 ADD SWAP2 POP POP PUSH1 0x40 MLOAD DUP1 SWAP2 SUB SWAP1 REVERT JUMPDEST SWAP1 POP JUMPDEST SWAP3 SWAP2 POP POP JUMP JUMPDEST PUSH1 0x0 DUP1 DUP3 GT PUSH2 0x241 JUMPI PUSH1 0x40 DUP1 MLOAD PUSH3 0x461BCD PUSH1 0xE5 SHL DUP2 MSTORE PUSH1 0x20 PUSH1 0x4 DUP3 ADD MSTORE PUSH1 0x1A PUSH1 0x24 DUP3 ADD MSTORE PUSH32 0x536166654D6174683A206469766973696F6E206279207A65726F000000000000 PUSH1 0x44 DUP3 ADD MSTORE SWAP1 MLOAD SWAP1 DUP2 SWAP1 SUB PUSH1 0x64 ADD SWAP1 REVERT JUMPDEST DUP2 DUP4 DUP2 PUSH2 0x24A JUMPI INVALID JUMPDEST DIV SWAP4 SWAP3 POP POP POP JUMP JUMPDEST PUSH1 0x0 DUP3 DUP3 GT ISZERO PUSH2 0x2A9 JUMPI PUSH1 0x40 DUP1 MLOAD PUSH3 0x461BCD PUSH1 0xE5 SHL DUP2 MSTORE PUSH1 0x20 PUSH1 0x4 DUP3 ADD MSTORE PUSH1 0x1E PUSH1 0x24 DUP3 ADD MSTORE PUSH32 0x536166654D6174683A207375627472616374696F6E206F766572666C6F770000 PUSH1 0x44 DUP3 ADD MSTORE SWAP1 MLOAD SWAP1 DUP2 SWAP1 SUB PUSH1 0x64 ADD SWAP1 REVERT JUMPDEST POP SWAP1 SUB SWAP1 JUMP JUMPDEST PUSH1 0x0 DUP1 PUSH3 0xF424E PUSH2 0x1E5 JUMP JUMPDEST PUSH1 0x0 DUP1 PUSH1 0x0 DUP1 PUSH1 0x80 DUP6 DUP8 SUB SLT ISZERO PUSH2 0x2D0 JUMPI DUP4 DUP5 REVERT JUMPDEST DUP5 CALLDATALOAD PUSH1 0x1 PUSH1 0x1 PUSH1 0xA0 SHL SUB DUP2 AND DUP2 EQ PUSH2 0x2E6 JUMPI DUP5 DUP6 REVERT JUMPDEST SWAP7 PUSH1 0x20 DUP7 ADD CALLDATALOAD SWAP7 POP PUSH1 0x40 DUP7 ADD CALLDATALOAD SWAP6 PUSH1 0x60 ADD CALLDATALOAD SWAP5 POP SWAP3 POP POP POP JUMP JUMPDEST SWAP1 DUP2 MSTORE PUSH1 0x20 ADD SWAP1 JUMP INVALID MSTORE8 PUSH2 0x6665 0x4D PUSH2 0x7468 GASPRICE KECCAK256 PUSH14 0x756C7469706C69636174696F6E20 PUSH16 0x766572666C6F77A26469706673582212 KECCAK256 REVERT 0xC 0x48 0xB3 0xA6 0x27 0x48 BYTE PUSH25 0x80A7687C5A9DB59F64C0E56FA156D7037483E264866F196473 PUSH16 0x6C634300070600330000000000000000 ","sha1":"6351521abcd2182e117b1b7a67c28a6b31837e1c","source":"// SPDX-License-Identifier: GPL-3.0-only\npragma solidity =0.7.6;\npragma abicoder v2;\n\nimport \"../global/LibStorage.sol\";\nimport \"../internal/nToken/nTokenHandler.sol\";\nimport \"@openzeppelin/contracts/math/SafeMath.sol\";\n\n/**\n * @notice Deployed library for migration of incentives from the old (inaccurate) calculation\n * to a newer, more accurate calculation based on SushiSwap MasterChef math. The more accurate\n * calculation is inside `Incentives.sol` and this library holds the legacy calculation. System\n * migration code can be found in `MigrateIncentivesFix.sol`\n */\nlibrary MigrateIncentives {\n    using SafeMath for uint256;\n\n    /// @notice Calculates the claimable incentives for a particular nToken and account in the\n    /// previous regime. This should only ever be called ONCE for an account / currency combination\n    /// to get the incentives accrued up until the migration date.\n    function migrateAccountFromPreviousCalculation(\n        address tokenAddress,\n        uint256 nTokenBalance,\n        uint256 lastClaimTime,\n        uint256 lastClaimIntegralSupply\n    ) external view returns (uint256) {\n        (\n            uint256 finalEmissionRatePerYear,\n            uint256 finalTotalIntegralSupply,\n            uint256 finalMigrationTime\n        ) = _getMigratedIncentiveValues(tokenAddress);\n\n        // This if statement should never be true but we return 0 just in case\n        if (lastClaimTime == 0 || lastClaimTime >= finalMigrationTime) return 0;\n\n        // No overflow here, checked above. All incentives are claimed up until finalMigrationTime\n        // using the finalTotalIntegralSupply. Both these values are set on migration and will not\n        // change.\n        uint256 timeSinceMigration = finalMigrationTime - lastClaimTime;\n\n        // (timeSinceMigration * INTERNAL_TOKEN_PRECISION * finalEmissionRatePerYear) / YEAR\n        uint256 incentiveRate =\n            timeSinceMigration\n                .mul(uint256(Constants.INTERNAL_TOKEN_PRECISION))\n                // Migration emission rate is stored as is, denominated in whole tokens\n                .mul(finalEmissionRatePerYear).mul(uint256(Constants.INTERNAL_TOKEN_PRECISION))\n                .div(Constants.YEAR);\n\n        // Returns the average supply using the integral of the total supply.\n        uint256 avgTotalSupply = finalTotalIntegralSupply.sub(lastClaimIntegralSupply).div(timeSinceMigration);\n        if (avgTotalSupply == 0) return 0;\n\n        uint256 incentivesToClaim = nTokenBalance.mul(incentiveRate).div(avgTotalSupply);\n        // incentiveRate has a decimal basis of 1e16 so divide by token precision to reduce to 1e8\n        incentivesToClaim = incentivesToClaim.div(uint256(Constants.INTERNAL_TOKEN_PRECISION));\n\n        return incentivesToClaim;\n    }\n\n    function _getMigratedIncentiveValues(\n        address tokenAddress\n    ) private view returns (\n        uint256 finalEmissionRatePerYear,\n        uint256 finalTotalIntegralSupply,\n        uint256 finalMigrationTime\n    ) {\n        mapping(address => nTokenTotalSupplyStorage_deprecated) storage store = LibStorage.getDeprecatedNTokenTotalSupplyStorage();\n        nTokenTotalSupplyStorage_deprecated storage d_nTokenStorage = store[tokenAddress];\n\n        // The total supply value is overridden as emissionRatePerYear during the initialization\n        finalEmissionRatePerYear = d_nTokenStorage.totalSupply;\n        finalTotalIntegralSupply = d_nTokenStorage.integralTotalSupply;\n        finalMigrationTime = d_nTokenStorage.lastSupplyChangeTime;\n    }\n\n}","sourcePath":"contracts/external/MigrateIncentives.sol","type":"library","deployment":{"address":"0xF3101e69B3D14B611037F47CD169ad60991c64f2","chainid":"42161","blockHeight":119785702}}