{"bytecode":"608060405234801561001057600080fd5b5061593a80620000216000396000f3fe6080604052600436106100fe5760003560e01c80636a96e86f116100955780638a0107be116100645780638a0107be1461029d5780638da5cb5b146102b0578063a78dbfff146102c5578063c4c96dae146102e5578063daca07a61461030b576100fe565b80636a96e86f146102285780637db31ab9146102485780638246336714610268578063884a70921461027d576100fe565b8063309c00a6116100d1578063309c00a6146101a85780633b2987b3146101c85780634cb6b359146101e857806363c2983214610208576100fe565b806318ae40d7146101035780631a05bce11461013957806324a3d622146101665780632e0ecba814610188575b600080fd5b34801561010f57600080fd5b5061012361011e366004615458565b610320565b6040516101309190615685565b60405180910390f35b34801561014557600080fd5b50610159610154366004615370565b6103b6565b6040516101309190615690565b34801561017257600080fd5b5061017b6103c8565b6040516101309190615526565b34801561019457600080fd5b506101236101a336600461528f565b6103d7565b3480156101b457600080fd5b506101236101c3366004615458565b610442565b3480156101d457600080fd5b506101596101e3366004615370565b6104ce565b3480156101f457600080fd5b50610159610203366004615370565b6104f1565b34801561021457600080fd5b506101596102233660046154d8565b610550565b34801561023457600080fd5b50610159610243366004615275565b6107d1565b34801561025457600080fd5b506101596102633660046153b7565b6107e5565b34801561027457600080fd5b5061017b61085c565b34801561028957600080fd5b506101236102983660046153fb565b61086b565b6101596102ab3660046154a4565b6109fd565b3480156102bc57600080fd5b5061017b610b74565b3480156102d157600080fd5b506101596102e036600461538c565b610b8b565b3480156102f157600080fd5b506102fa610baa565b60405161013095949392919061553a565b34801561031757600080fd5b50610159610c1a565b6000806103308661ffff16610cda565b9050336001600160a01b038216146103635760405162461bcd60e51b815260040161035a9061578d565b60405180910390fd5b836001600160a01b0316856001600160a01b031614156103955760405162461bcd60e51b815260040161035a90615834565b61039e84610d07565b6103aa86868686610d56565b9150505b949350505050565b60006103c182610f11565b5092915050565b6002546001600160a01b031681565b3360008181526004602090815260408083206001600160a01b038716808552925280832085905551919290917f822ca733b0e03e3b0cbc1e998614c93cb0aa4a896ea2bdceff5071098b4c907690610430908690615690565b60405180910390a35060015b92915050565b6000806104528661ffff16610cda565b9050336001600160a01b0382161461047c5760405162461bcd60e51b815260040161035a9061578d565b6001600160a01b03851661048f57600080fd5b50506001600160a01b03928316600090815260056020908152604080832094909516825292835283812061ffff95909516815293909152912055600190565b60008060006104dc84610f11565b80516040015191935091506103ae9083610f36565b60008060006104ff84610f11565b91509150600081600001516040015190506105476105426305f5e10061053c84604001516105368887610f3690919063ffffffff16565b90610f61565b90610faf565b610fe0565b95945050505050565b6000806105608661ffff16610cda565b9050336001600160a01b03821614801561058b5750826001600160a01b0316846001600160a01b0316145b6105a75760405162461bcd60e51b815260040161035a9061578d565b60006105b286610ff3565b90506105bc615010565b60006105c786611009565b90506105d2816110aa565b15610663576040516337b5fc2160e11b815273__SettleAssetsExternal__________________90636f6bf84290610610908990859060040161556c565b60a06040518083038186803b15801561062857600080fd5b505af415801561063c573d6000803e3d6000fd5b505050506040513d601f19601f8201168201806040525081019061066091906152d0565b90505b61066f82878b846110fe565b60c082015161067e90846111a4565b60c08301526040516352e73f7760e01b815260009073__nTokenRedeemAction____________________906352e73f77906106bf908d9088906004016158bc565b60206040518083038186803b1580156106d757600080fd5b505af41580156106eb573d6000803e3d6000fd5b505050506040513d601f19601f8201168201806040525081019061070f91906152b8565b606084018190529050610721816111ba565b608084015261073383888460016111c8565b5061073e8288611449565b60208201516001600160f81b031916156107ba57604051636ccc642f60e01b815273__FreeCollateralExternal________________90636ccc642f90610789908a90600401615526565b60006040518083038186803b1580156107a157600080fd5b505af41580156107b5573d6000803e3d6000fd5b505050505b6107c381610fe0565b9a9950505050505050505050565b60006107dc8261154d565b50909392505050565b6001600160a01b038083166000908152600560209081526040808320938516835292815282822061ffff871683529052908120548015610826579050610855565b50506001600160a01b03808316600090815260046020908152604080832093851683529290522054610855565b505b9392505050565b6001546001600160a01b031681565b60008061087b8761ffff16610cda565b9050336001600160a01b038216146108a55760405162461bcd60e51b815260040161035a9061578d565b836001600160a01b0316856001600160a01b031614156108d75760405162461bcd60e51b815260040161035a90615834565b6108e084610d07565b6001600160a01b038086166000908152600560209081526040808320938a16835292815282822061ffff8b16835290522054801561097357838110156109385760405162461bcd60e51b815260040161035a9061575d565b6001600160a01b038087166000908152600560209081526040808320938b16835292815282822061ffff8c16835290522084820390556109e5565b506001600160a01b038086166000908152600460209081526040808320938a1683529290522054838110156109ba5760405162461bcd60e51b815260040161035a9061575d565b6001600160a01b038087166000908152600460209081526040808320938b1683529290522084820390555b6109f188878787610d56565b98975050505050505050565b600080610a0d8561ffff16610cda565b9050336001600160a01b03821614610a375760405162461bcd60e51b815260040161035a9061578d565b60018561ffff161415610a5057348414610a5057600080fd5b6000610a5f8661ffff166115a9565b90506000600482606001516005811115610a7557fe5b1415610a9557610a8e610a8787610ff3565b83906115bc565b9050610aa6565b610aa3610a878389896115ec565b90505b610aae615010565b6000610ab987611009565b9050610ac782888b846110fe565b604051632128561360e11b815260009073__nTokenMintAction______________________90634250ac2690610b03908d9088906004016158bc565b60206040518083038186803b158015610b1b57600080fd5b505af4158015610b2f573d6000803e3d6000fd5b505050506040513d601f19601f82011682018060405250810190610b5391906152b8565b60c084018190529050610b6983898460016111c8565b506107ba8289611449565b60005464010000000090046001600160a01b031681565b600080610b9c838561ffff166116e3565b50509150506103ae81610fe0565b73__FreeCollateralExternal________________73__MigrateIncentives_____________________73__SettleAssetsExternal__________________73__nTokenMintAction______________________73__nTokenRedeemAction____________________9091929394565b60003381610c2782611009565b90506000610c33615010565b610c3c8361178c565b15610c6e576060830151610c549082908690866110fe565b600081604001511315610c6e57610c6b8185611799565b91505b60808301515b6001600160701b0319811615610cd05760f081901c613fff16610c99838783886110fe565b600083604001511315610cbd57610cba610cb38488611799565b85906117d6565b93505b5060101b6001600160801b031916610c74565b5090935050505090565b600080610ce56117e8565b600084815260209190915260409020546001600160a01b03169150505b919050565b6001600160a01b038116610d1a57600080fd5b6001600160a01b038116301415610d3057600080fd5b6000610d3b826117f5565b5050505061ffff16905080600014610d5257600080fd5b5050565b600080610d6283610ff3565b90506000610d6f86611009565b9050610d7a816110aa565b15610e0b576040516337b5fc2160e11b815273__SettleAssetsExternal__________________90636f6bf84290610db8908990859060040161556c565b60a06040518083038186803b158015610dd057600080fd5b505af4158015610de4573d6000803e3d6000fd5b505050506040513d601f19601f82011682018060405250810190610e0891906152d0565b90505b610e13615010565b610e1f81888a856110fe565b610e28836111ba565b60a0820152610e3a81888460006111c8565b50610e458288611449565b6000610e5087611009565b9050610e5a615010565b610e6681898c856110fe565b60a08101859052610e7a81898460006111c8565b50610e858289611449565b60208401516001600160f81b03191615610f0157604051636ccc642f60e01b815273__FreeCollateralExternal________________90636ccc642f90610ed0908c90600401615526565b60006040518083038186803b158015610ee857600080fd5b505af4158015610efc573d6000803e3d6000fd5b505050505b5060019998505050505050505050565b6000610f1b615060565b610f25818461185e565b610f2f8142611877565b9150915091565b6000806103ae846040015161053c6402540be40061053c878960200151610f6190919063ffffffff16565b818102600019831415610f9157811580610f83575082828281610f8057fe5b05145b610f8c57600080fd5b61043c565b821580610fa6575081838281610fa357fe5b05145b61043c57600080fd5b600081600019148015610fc55750600160ff1b83145b15610fcf57600080fd5b818381610fd857fe5b059392505050565b600080821215610fef57600080fd5b5090565b60006001600160ff1b03821115610fef57600080fd5b6110116150a9565b600061101b61192f565b6001600160a01b039390931660009081526020938452604090819020815160a081018352905464ffffffffff8116825265010000000000810460f81b6001600160f81b03191695820195909552600160301b850460ff1691810191909152600160381b840461ffff166060820152600160481b90930460701b6001600160701b03191660808401525090919050565b6000426110b68361178c565b156110d7576110c48161193c565b835164ffffffffff16109150610d029050565b825164ffffffffff16158015906110f65750825164ffffffffff168110155b915050610d02565b8161ffff1660001080156111185750613fff61ffff831611155b61112157600080fd5b61ffff821680855261113490829061195d565b1561116157611147838361ffff166116e3565b61010088015260e08701526040860152602085015261117f565b6000602085018190526040850181905260e085018190526101008501525b50506000606083018190526080830181905260a0830181905260c09092019190915250565b8082038281131560008312151461043c57600080fd5b600061043c60001983610f61565b60008060008660a0015112156112215760006112038760a001516111fd8960c001518a604001516119e790919063ffffffff16565b906119e7565b12156112215760405162461bcd60e51b815260040161035a9061586b565b60008660800151121561127157600061125387608001516111fd89606001518a602001516119e790919063ffffffff16565b12156112715760405162461bcd60e51b815260040161035a90615812565b61127c8686856119fd565b608088018190526060880151919350600091611297916119e7565b905080156113045760208701516112ae90826119e7565b602088015286516040516001935061ffff909116906001600160a01b038816907f5441e4a5fac93a951d782e6f1cdb82e95c8fc58561a013953d17e395c5e69b4b906112fb908590615690565b60405180910390a35b60a0870151151580611319575060c087015115155b156113bf5760006113438860c001516111fd8a60a001518b604001516119e790919063ffffffff16565b9050611358888861135384610fe0565b611ab3565b506040880181905260c0880151156113b957876000015161ffff16876001600160a01b03167f412bc13d202a2ea5119e55fec9c5e420dddb18faf186373ad9795ad4f4545aa98a60c001516040516113b09190615690565b60405180910390a35b60019250505b81156113ec576113ec86886000015161ffff1689602001518a604001518b60e001518c6101000151611ba0565b865160208801516114199161ffff169015158061140c5750604089015115155b879190600160fe1b611cea565b60008760200151121561143f57602085018051600160f91b176001600160f81b03191690525b5050949350505050565b600061145361192f565b6001600160a01b03831660008181526020838152604080832088518154938a0151838b015160608c015160808d015160701c600160481b027affffffffffffffffffffffffffffffffffff0000000000000000001961ffff909216600160381b0268ffff000000000000001960ff94909416600160301b0266ff0000000000001960f89690961c650100000000000265ff00000000001964ffffffffff90981664ffffffffff19909b169a909a1796909616989098179390931693909317169490941716929092179091555192935090917f6bd4b121bca854a191536a2ca891155c42ee2fb23f307fb34e8bc65cfcb5412e9190a2505050565b60008060008061155b611ef1565b6001600160a01b0395909516600090815260209590955250506040909220546001600160601b03811693600160601b82046001600160801b03169350600160e01b90910463ffffffff169150565b6115b16150d7565b61043c826000611efe565b60006305f5e100836040015114156115d557508061043c565b60408301516108559061053c846305f5e100610f61565b60008060058560600151600581111561160157fe5b14611613576370a0823160e01b61161c565b630ed1279f60e11b5b9050600061162f86600001513084611fac565b905060058660600151600581111561164357fe5b141561166a5760006116588661ffff166120be565b905061166481866120d1565b506116b3565b60018660600151600581111561167c57fe5b14156116915761168c8685612144565b6116b3565b6002866060015160058111156116a357fe5b14156100fe5761168c86856121eb565b60006116c487600001513085611fac565b90506116d86116d38284612247565b610ff3565b979650505050505050565b60008060008060006116f36122a4565b6001600160a01b0388166000908152602082815260408083208a8452909152902080546001600160501b0381169650600160501b900463ffffffff169450909150831561175c57805461175590600160701b900466ffffffffffffff166122b1565b9250611771565b8054600160701b900466ffffffffffffff1692505b54600160a81b9004600a90810b900b97939650919450925050565b6060015161ffff16151590565b60006117ad83836113538660400151610fe0565b905061043c82846000015161ffff16856020015186604001518760e00151886101000151611ba0565b60008282018381101561085557600080fd5b60008061043c60036122bf565b6000806000806000806118066122d8565b6001600160a01b039097166000908152602097909752505060409094205461ffff81169563ffffffff62010000830481169650600160301b830416945060ff600160501b8304169350600160581b90910460d81b9150565b61186882826122e5565b61187181612388565b90915250565b600080611883846123ab565b9050828111611893576001810392505b5060006118a084846123d5565b50905060006118ce8560c0015186600001516000015161ffff1687608001518789600001516020015161252a565b9050600081156119005760c08601518651805160808901516118fc939261ffff9092169189906000886125d6565b5090505b606086015186516040015161192591906111fd9061191e9085612654565b86906119e7565b9695505050505050565b60008061043c60016122bf565b60006201518082101561194e57600080fd5b62015180825b06909103919050565b600081158015906119705750613fff8211155b61197957600080fd5b6080830151606084015161ffff1683141561199857600191505061043c565b6001600160701b03198116156119dd5760f081901c613fff16838114156119ca5750600160fe1b90811614905061043c565b5060101b6001600160801b031916611998565b5060009392505050565b8181018281121560008312151461043c57600080fd5b6000806000611a13866000015161ffff166115a9565b90506000611a2e87608001518361267f90919063ffffffff16565b905080611a4357600080935093505050611aab565b848015611a505750600081125b15611a85578651611a729061ffff1687611a69846111ba565b859291906126b7565b9350611a7e82826115bc565b9250611aa8565b8651611a99908390889061ffff1684612752565b9350611aa582856115bc565b92505b50505b935093915050565b825160009042908290611ac99061ffff16610cda565b90506000611adc828860c00151856127fa565b9050611aea878383886128dd565b93506000611af783612a0a565b90506001600160a01b03811615611b8557806001600160a01b0316631d684dd2888a60000151611b2a8c60400151610fe0565b8a8d60c001518b6040518763ffffffff1660e01b8152600401611b52969594939291906155d8565b600060405180830381600087803b158015611b6c57600080fd5b505af1158015611b80573d6000803e3d6000fd5b505050505b8415611b9557611b958786612a7c565b505050509392505050565b6000611baa6122a4565b6001600160a01b0388166000908152602082815260408083208a845290915290209091506a7fffffffffffffffffffff198612801590611bf557506a7fffffffffffffffffffff8613155b611bfe57600080fd5b60008512158015611c1657506001600160501b038513155b611c1f57600080fd5b83611c5f5766ffffffffffffff831115611c3857600080fd5b805466ffffffffffffff60701b1916600160701b66ffffffffffffff851602178155611c79565b8054600160501b900463ffffffff168414611c7957600080fd5b8054600a9690960b6affffffffffffffffffffff16600160a81b026001600160a81b036001600160501b0390961669ffffffffffffffffffff1963ffffffff909616600160501b0263ffffffff60501b19909816979097179490941695909517939093169190911790925550505050565b826000108015611cfc5750613fff8311155b611d0557600080fd5b818015611d19575082846060015161ffff16145b15611d2357611eeb565b6080840151600090815b6001600160701b0319821615611ea55760f082901c613fff168681148015611d525750855b15611d8a57506080870180516001600160f01b0319861660109093029290921c919091176001600160701b031916905250611eeb9050565b8681148015611d97575085155b15611df3576001600160f01b03198516199290921691600360fe1b8316611dd1576010836dffffffffffffffffffffffffffff1916901b92505b506001600160701b031991821660109091021c91909117166080850152611eeb565b8681118015611dff5750855b15611e59576080888101516001600160f01b031960f08a901b88178116601086021c9690961795911b1615611e3357600080fd5b506001600160701b03199182166001919091016010021c91909117166080850152611eeb565b8681118015611e66575085155b15611e745750505050611eeb565b506001600160f01b0319821660108281029190911c93909317929190911b6001600160801b03191690600101611d2d565b84611eb257505050611eeb565b60098110611ebf57600080fd5b6001600160f01b031960f087901b85171660109091021c919091176001600160701b0319166080860152505b50505050565b60008061043c60116122bf565b611f066150d7565b6000611f10612a9b565b6000858152602082815260408083208715158452825291829020825160a08101845281546001600160a01b038116825260ff600160a01b82048116151594830194909452600160b01b81048416600a0a9482019490945293945092916060830191600160a81b909104166005811115611f8557fe5b81529154600160b81b900468ffffffffffffffffff16602090920191909152949350505050565b604080516001600160a01b0384811660248084019190915283518084039091018152604490920183526020820180516001600160e01b03166001600160e01b0319861617815292518251600094859485948a16939092909182918083835b602083106120295780518252601f19909201916020918201910161200a565b6001836020036101000a038019825116818451168082178552505050505050905001915050600060405180830381855afa9150503d8060008114612089576040519150601f19603f3d011682016040523d82523d6000602084013e61208e565b606091505b50915091508161209d57600080fd5b8080602001905160208110156120b257600080fd5b50519695505050505050565b6120c66150d7565b61043c826001611efe565b6120d9612aa8565b54825160405163e8eda9df60e01b81526001600160a01b039092169163e8eda9df9161210e9185903090600090600401615632565b600060405180830381600087803b15801561212857600080fd5b505af115801561213c573d6000803e3d6000fd5b505050505050565b815160405163140e25ad60e31b81526000916001600160a01b03169063a0712d6890612174908590600401615690565b602060405180830381600087803b15801561218e57600080fd5b505af11580156121a2573d6000803e3d6000fd5b505050506040513d601f19601f820116820180604052508101906121c691906152b8565b905080156121e65760405162461bcd60e51b815260040161035a906156c9565b505050565b81600001516001600160a01b0316631249c58b826040518263ffffffff1660e01b81526004016000604051808303818588803b15801561222a57600080fd5b505af115801561223e573d6000803e3d6000fd5b50505050505050565b60008282111561229e576040805162461bcd60e51b815260206004820152601e60248201527f536166654d6174683a207375627472616374696f6e206f766572666c6f770000604482015290519081900360640190fd5b50900390565b60008061043c60066122bf565b600881901c60ff9091161b90565b6000620f424082601a8111156122d157fe5b0192915050565b60008061043c60026122bf565b6122f28161ffff16610cda565b6001600160a01b031660c0830181905260009081908190612312906117f5565b945094509450505060006123298660c0015161154d565b505060808701859052604087018190526001600160d81b0319831660a088015260c087015190915061235d90846000612ab5565b602087015260c08601516123759061ffff87166116e3565b5050506060909601959095525050505050565b612390615106565b600061239f8361ffff16612b48565b90506108558382612b94565b60008160800151600014156123c257506000610d02565b60808201516276a700906122d190612bd7565b602082015151516000906060908067ffffffffffffffff811180156123f957600080fd5b50604051908082528060200260200182016040528015612423578160200160208202803683370190505b50915061242e615132565b60005b8281101561252057865161244c90836001808501908a612bf3565b6000876020015160000151828151811061246257fe5b602002602001015190506000816020015190506000806124828487612c66565b915091506124ab6124a48c60c001518d600001516000015161ffff1686612ce1565b82906119e7565b8886815181106124b757fe5b60200260200101818152505060006125016124fa6124ee8b89815181106124da57fe5b6020026020010151878f8c60c00151612d26565b8e516040015190612654565b84906119e7565b905061250d8a826119e7565b9950506001909401935061243192505050565b5050509250929050565b60006002821161253c57506000610547565b60006125488787612d6c565b905080612556579050610547565b600061256185612bd7565b90508581141561258b57507440008000000200200000000200000020000000002019169050610547565b60015b8481116125cb5760006125a082612da1565b8301905060006125b08983612e45565b5090506125bf85826000612f50565b9450505060010161258e565b508192505050610547565b60008060006125e484612f9b565b90505b80156126475760006125f98983612fc0565b9050600061260b8c8c848c8c8c613073565b905061261785826119e7565b9450600081121561262757600193505b61263386846000612f50565b955061263e86612f9b565b925050506125e7565b5097509795505050505050565b6000806103ae846020015161053c86604001516105366402540be40088610f6190919063ffffffff16565b60006305f5e1008360400151141561269857508061043c565b6108556305f5e10061053c856040015185610f6190919063ffffffff16565b6000806002866060015160058111156126cc57fe5b14156126e4576126dd8685856130c8565b9050612741565b60006126ef866120be565b905060058760600151600581111561270357fe5b141561271b5761271481868661318f565b915061273f565b60018760600151600581111561272d57fe5b14156100fe5761271487828787613238565b505b6103aa61274d82610ff3565b6111ba565b8060058560600151600581111561276557fe5b141561278a576000612776846120be565b9050612786816000015184613336565b9250505b60008213156127b65760006127a08686856133bc565b90508560200151156127b0578091505b506103ae565b6003856060015160058111156127c857fe5b14156127e5576127e0846127db846111ba565b6134a5565b6103ae565b84516103ae90856127f5856111ba565b6134db565b60008060006128098685613552565b50915091506000612818611ef1565b6001600160a01b038816600090815260208290526040812091925061283d85896119e7565b90508060001315801561285657506001600160601b0381105b61285f57600080fd5b81546bffffffffffffffffffffffff19166001600160601b038216176fffffffffffffffffffffffffffffffff60601b1916600160601b6001600160801b0386160217825563ffffffff87106128b457600080fd5b50805463ffffffff8716600160e01b026001600160e01b03909116179055509150509392505050565b60e08401516000901561299e5773__MigrateIncentives_____________________63e0c01a72856129128860400151610fe0565b8860e001518961010001516040518563ffffffff1660e01b815260040161293c949392919061565f565b60206040518083038186803b15801561295457600080fd5b505af4158015612968573d6000803e3d6000fd5b505050506040513d601f19601f8201168201806040525081019061298c91906152b8565b600060e0870181905261010087015290505b6129e06129d98661010001516129d3670de0b6b3a76400006129cd886129c78c60400151610fe0565b906135e8565b90613641565b90612247565b82906136a8565b90506129f8670de0b6b3a76400006129cd84866135e8565b85610100018181525050949350505050565b600080612a156122d8565b6001600160a01b0384166000908152602082905260409020805491925090600160f81b900460ff1615612a7157612a4a613702565b6001600160a01b038086166000908152602092909252604090912054169250610d02915050565b600092505050610d02565b610d5273c5e91b01f9b23952821410be7aa3c45b6429c67083836134db565b60008061043c60076122bf565b60008061043c60136122bf565b612abd61517a565b612ac561517a565b60ff8416612ad4579050610855565b612ade858561370f565b815260ff841660608201528267ffffffffffffffff81118015612b0057600080fd5b50604051908082528060200260200182016040528015612b3a57816020015b612b276151a2565b815260200190600190039081612b1f5790505b506020820152949350505050565b612b506151e2565b6000806000612b5e85613738565b604080516060810182526001600160a01b039093168352602083019390935260ff16600a0a918101919091529350505050919050565b612b9c615106565b6000612bab8461ffff166137f9565b6040805160808101825261ffff96909616865260ff821660208701528501939093525050606082015290565b60006276a700821015612be957600080fd5b6276a70082611954565b82600111158015612c08575084602001518311155b612c245760405162461bcd60e51b815260040161035a906157ea565b6000612c41612c3285612da1565b612c3b84612bd7565b906136a8565b905061213c866000015161ffff16828486612c5b8b613816565b8a949392919061382a565b600080612c76846040015161384b565b8015612c8757506000846060015112155b612c9057600080fd5b612cb3836080015161053c86606001518660600151610f6190919063ffffffff16565b9150612cd8836080015161053c86606001518660400151610f6190919063ffffffff16565b90509250929050565b600080612cec613861565b6001600160a01b03861660009081526020918252604080822087835283528082208683529092522054600f90810b900b9150509392505050565b600084612d35575060006103ae565b6000612d418585612247565b90506000612d4f828561386e565b9050633b9aca00811315612d6257600080fd5b6116d887826138db565b600080612d776138f4565b6001600160a01b038516600090815260209182526040808220868352909252205491505092915050565b60008160011415612db657506276a700610d02565b8160021415612dc9575062ed4e00610d02565b8160031415612ddd57506301da9c00610d02565b8160041415612df157506303b53800610d02565b8160051415612e0557506309450c00610d02565b8160061415612e19575063128a1800610d02565b8160071415612e2d57506325143000610d02565b60405162461bcd60e51b815260040161035a90615736565b6000806000612e538561193c565b905062015180840615612e6d576000809250925050612f49565b838110612e81576000809250925050612f49565b6201518081850304605a8111612e9e57925060019150612f499050565b6101688111612edd576000620151806207e900840604820160591901905060068104605a0160068281612ecd57fe5b0660001494509450505050612f49565b6108708111612f0d5760006201518062278d00840604820161016719019050601e8104608701601e8281612ecd57fe5b611de28111612f3d576000620151806276a700840604820161086f19019050605a810460c301605a8281612ecd57fe5b61010060009350935050505b9250929050565b600060018310158015612f6557506101008311155b612f6e57600080fd5b8115612f875750600160ff1b60001983011c8317610855565b50600160ff1b60001983011c198316610855565b600081612faa57506000610d02565b612fb382613901565b60ff036001019050919050565b600081612fcc57600080fd5b610100821115612fdb57600080fd5b6000612fe68461193c565b90506000605a8411613001575062015180830201905061043c565b60878411613029575060591983016207e900908102908206909103016276a70001905061043c565b60c384116130525750608619830162278d00908102908206909103016301da9c0001905061043c565b5060c21983016276a70090810290820690910301630b1fa80001905061043c565b600080613081888888612ce1565b9050848611613091579050611925565b600061309e85888861399a565b905083156130bc576130b38583898985613a80565b92505050611925565b6130b382888884612d26565b825160405163db006a7560e01b8152600091479183916001600160a01b03169063db006a75906130fc908790600401615690565b602060405180830381600087803b15801561311657600080fd5b505af115801561312a573d6000803e3d6000fd5b505050506040513d601f19601f8201168201806040525081019061314e91906152b8565b9050801561316e5760405162461bcd60e51b815260040161035a906156e7565b476131798184612247565b935061318586856134a5565b5050509392505050565b60006131aa61054285600001516131a585610ff3565b613336565b90506131b4612aa8565b548451604051631a4ca37b60e21b81526001600160a01b03909216916369328dec916131e6918590889060040161560f565b602060405180830381600087803b15801561320057600080fd5b505af1158015613214573d6000803e3d6000fd5b505050506040513d601f19601f8201168201806040525081019061085391906152b8565b8251600090819061325190306370a0823160e01b611fac565b9050600086600001516001600160a01b031663db006a75856040518263ffffffff1660e01b81526004016132859190615690565b602060405180830381600087803b15801561329f57600080fd5b505af11580156132b3573d6000803e3d6000fd5b505050506040513d601f19601f820116820180604052508101906132d791906152b8565b905080156132f75760405162461bcd60e51b815260040161035a906156e7565b855160009061330e90306370a0823160e01b611fac565b905061331a8184612247565b935061332b876000015187866134db565b505050949350505050565b6000816133455750600061043c565b600061335084613b14565b9050600061335d84613b9f565b9050816b019d971e4fe8401e74000001600160ff1b038161337a57fe5b0581131561338757600080fd5b6b033b2e3c9fd0803ce80000006b019d971e4fe8401e74000000838302010560008513610547576133b7816111ba565b611925565b60008080806005876060015160058111156133d357fe5b146133e5576370a0823160e01b6133ee565b630ed1279f60e11b5b905086602001511561340a578651613407903083611fac565b92505b8651613417908787613bc0565b86602001518061342b575060008760800151115b1561344057865161343d903083611fac565b91505b60808701511561347b57600061345e8861345985610ff3565b6115bc565b905061346d8860800151610ff3565b81131561347957600080fd5b505b86602001511561349c576134926116d38385612247565b9350505050610855565b61349285610ff3565b6040516001600160a01b0383169082156108fc029083906000818181858888f193505050501580156121e6573d6000803e3d6000fd5b826001600160a01b031663a9059cbb83836040518363ffffffff1660e01b815260040180836001600160a01b0316815260200182815260200192505050600060405180830381600087803b15801561353257600080fd5b505af1158015613546573d6000803e3d6000fd5b505050506121e6613c18565b60008060006135608561154d565b9194509250905080841180156135765750600081115b80156135825750600083115b156135e1576000613592866117f5565b50505091505060006135bd6135b46305f5e100846135e890919063ffffffff16565b84880387613c85565b90506135c984826136a8565b93506001600160801b0384106135de57600080fd5b50505b9250925092565b6000826135f75750600061043c565b8282028284828161360457fe5b04146108555760405162461bcd60e51b81526004018080602001828103825260218152602001806158e46021913960400191505060405180910390fd5b6000808211613697576040805162461bcd60e51b815260206004820152601a60248201527f536166654d6174683a206469766973696f6e206279207a65726f000000000000604482015290519081900360640190fd5b8183816136a057fe5b049392505050565b600082820183811015610855576040805162461bcd60e51b815260206004820152601b60248201527f536166654d6174683a206164646974696f6e206f766572666c6f770000000000604482015290519081900360640190fd5b60008061043c60126122bf565b6060600061371d8484613ca7565b9050600181511161372f57905061043c565b61085581613dc9565b600080600080600061374986613f82565b909250905060006001600160a01b03831661376e5750600090506402540be4006137ee565b826001600160a01b031663b2fffb046040518163ffffffff1660e01b815260040160206040518083038186803b1580156137a757600080fd5b505afa1580156137bb573d6000803e3d6000fd5b505050506040513d601f19601f820116820180604052508101906137df91906152b8565b9050600081136137ee57600080fd5b969195509350915050565b600080613804613fb9565b60009384526020525050604090205490565b6060015161012c60089190911c60ff160290565b60006276a70061383985612bd7565b01905061223e87878787878787613fc6565b60006002821080159061043c5750506008101590565b60008061043c600c6122bf565b60008061388b6138866301da9c006129cd86886135e8565b613ffd565b905061389d81621dcd6560491b61401b565b90506138b06138ab8261406e565b614090565b90506138c281621dcd6560491b6140e5565b905060006138cf8261411b565b60070b95945050505050565b60006108556138ea8484610f61565b633b9aca00610faf565b60008061043c600b6122bf565b60008161390d57600080fd5b600160801b821061392057608091821c91015b600160401b821061393357604091821c91015b640100000000821061394757602091821c91015b62010000821061395957601091821c91015b610100821061396a57600891821c91015b6010821061397a57600491821c91015b6004821061398a57600291821c91015b60028210610d0257600101919050565b60008060006139ae86602001518686614124565b9150915060006139bd87613816565b9050816139d65786516134929061ffff168783886141e4565b60006139e186612bd7565b905060006139f86139f186612da1565b83906136a8565b90506000613a108a6000015161ffff1683868b6141e4565b90506000808760011415613a3557899150613a2e8c60400151614283565b9050613a64565b613a4b613a4460018a03612da1565b86906136a8565b9150613a618c6000015161ffff1683888d6141e4565b90505b613a71828583868f614314565b98505050505050505050610855565b600084613a8f57506000610547565b6000613a9b8585612247565b9050600080871315613aca57613ac382613abe613ab78b614372565b87906136a8565b61386e565b9050613af9565b6000613ad589614387565b9050848110613ae957879350505050610547565b613af58382870361386e565b9150505b633b9aca00811315613b0a57600080fd5b6109f187826138db565b600061043c613b21612aa8565b5460405163d15e005360e01b81526001600160a01b039091169063d15e005390613b4f908690600401615526565b60206040518083038186803b158015613b6757600080fd5b505afa158015613b7b573d6000803e3d6000fd5b505050506040513d601f19601f820116820180604052508101906116d391906152b8565b600080821215613bb957613bb2826111ba565b9050610d02565b5080610d02565b604080516323b872dd60e01b81526001600160a01b038481166004830152306024830152604482018490529151918516916323b872dd9160648082019260009290919082900301818387803b15801561353257600080fd5b6000613c2261520c565b3d8015613c365760208114613c3f57600080fd5b60019250613c4a565b60206000833e815192505b5081610d52576040805162461bcd60e51b8152602060048201526005602482015264045524332360dc1b604482015290519081900360640190fd5b60006103ae826129cd6301da9c0081886129c789670de0b6b3a76400006135e8565b606060108260ff161115613cba57600080fd5b6000613cc461439c565b6001600160a01b038516600090815260208290526040812091925060ff851667ffffffffffffffff81118015613cf957600080fd5b50604051908082528060200260200182016040528015613d3357816020015b613d206151a2565b815260200190600190039081613d185790505b50905060005b8560ff16811015613dbf576000838260108110613d5257fe5b0190506000838381518110613d6357fe5b602090810291909101810151835461ffff8116825264ffffffffff620100008204169282019290925260ff600160381b8304166040820152600160401b909104600a90810b900b60608201526080019190915250600101613d39565b5095945050505050565b805160008167ffffffffffffffff81118015613de457600080fd5b50604051908082528060200260200182016040528015613e0e578160200160208202803683370190505b50905060005b82811015613e6b576000848281518110613e2a57fe5b60200260200101519050613e4b8160000151826020015183604001516143a9565b838381518110613e5757fe5b602090810291909101015250600101613e14565b5060015b82811015611eeb57805b600081118015613eb15750828181518110613e9057fe5b6020026020010151836001830381518110613ea757fe5b6020026020010151115b15613f7957828181518110613ec257fe5b6020026020010151836001830381518110613ed957fe5b6020026020010151846001840381518110613ef057fe5b60200260200101858481518110613f0357fe5b6020026020010182815250828152505050848181518110613f2057fe5b6020026020010151856001830381518110613f3757fe5b6020026020010151866001840381518110613f4e57fe5b60200260200101878481518110613f6157fe5b60209081029190910101919091525260001901613e79565b50600101613e6f565b6000806000613f8f614404565b600094855260205250506040909120546001600160a01b03811692600160a01b90910460ff169150565b60008061043c60096122bf565b613fd38787878685614411565b613fec8760e001518860a001518960c0015185886144cc565b60c090970196909652505050505050565b6000677fffffffffffffff82111561401457600080fd5b5060401b90565b600081600f0b6000141561402e57600080fd5b600082600f0b604085600f0b901b8161404357fe5b05905060016001607f1b03198112801590614065575060016001607f1b038113155b61085557600080fd5b6000600f82900b60016001607f1b0319141561408957600080fd5b5060000390565b6000600160461b82600f0b126140a557600080fd5b683fffffffffffffffff1982600f0b12156140c257506000610d02565b61043c608083600f0b700171547652b82fe1777d0ffda0d23a7d1202901d614551565b6000600f83810b9083900b0260401d60016001607f1b03198112801590614065575060016001607f1b0381131561085557600080fd5b600f0b60401d90565b600080600085116141475760405162461bcd60e51b815260040161035a90615707565b60078511156141685760405162461bcd60e51b815260040161035a906157ba565b600061417384612bd7565b905060015b8681116141cb57600061419461418d83612da1565b84906136a8565b9050868114156141ac5750925060009150611aab9050565b868111156141c25750925060019150611aab9050565b50600101614178565b5060405162461bcd60e51b815260040161035a9061588f565b6000806141ef615003565b905060006276a70061420085612bd7565b6000898152602085815260408083208b84528252808320949093018083529390522080549192509063ffffffff600160a01b8204811691600160c01b8104821691600160e01b90910416816142675760405162461bcd60e51b815260040161035a90615699565b6142748184848c8c6144cc565b9b9a5050505050505050505050565b80516000906001600160a01b031661429d57506000610d02565b600082600001516001600160a01b031663dd30a6666040518163ffffffff1660e01b815260040160206040518083038186803b1580156142dc57600080fd5b505afa1580156142f0573d6000803e3d6000fd5b505050506040513d601f19601f8201168201806040525081019061085591906152b8565b600081861061432257600080fd5b84821061432e57600080fd5b8383106143545761434d84612c3b8888036129cd8388038b88036135e8565b9050610547565b61434d61436b8787036129cd8688038a87036135e8565b8590612247565b606001516207a12060289190911c60ff160290565b606001516207a12060209190911c60ff160290565b60008061043c600d6122bf565b6000613fff8411156143ba57600080fd5b64ffffffffff8311156143cc57600080fd5b60088211156143da57600080fd5b5067ffff000000000000603084901b1665ffffffffff00600884901b161760ff8216179392505050565b60008061043c600f6122bf565b600061441b615003565b6000868152602082815260408083208884528252808320868452825291829020808a5290890187905280546001600160501b03808216938b0193909352600160501b810490921660608a015263ffffffff600160a01b8304811660a08b0152600160c01b8304811660c08b0152600160e01b90920490911660e08901529091508084156144ba5760018201546001600160501b031660808901526144c2565b600060808901525b5050505050505050565b60008083116144da57600080fd5b818611156144e9575083610547565b60006144f58388612247565b9050838111156145085785915050610547565b600061451c856129cd84633b9aca006135e8565b9050600061452e633b9aca0083612247565b905060006107c3633b9aca006129cd6145478b866135e8565b612c3b8d886135e8565b6000600160461b82600f0b1261456657600080fd5b683fffffffffffffffff1982600f0b121561458357506000610d02565b6001607f1b60006780000000000000008416600f0b13156145b55770016a09e667f3bcc908b2fb1366ea957d3e0260801c5b60008367400000000000000016600f0b13156145e2577001306fe0a31b7152de8d5a46305c85edec0260801c5b60008367200000000000000016600f0b131561460f577001172b83c7d517adcdf7c8c50eb14a791f0260801c5b60008367100000000000000016600f0b131561463c5770010b5586cf9890f6298b92b71842a983630260801c5b60008367080000000000000016600f0b1315614669577001059b0d31585743ae7c548eb68ca417fd0260801c5b60008367040000000000000016600f0b131561469657700102c9a3e778060ee6f7caca4f7a29bde80260801c5b60008367020000000000000016600f0b13156146c35770010163da9fb33356d84a66ae336dcdfa3f0260801c5b600083600160381b16600f0b13156146ec57700100b1afa5abcbed6129ab13ec11dc95430260801c5b600083668000000000000016600f0b13156147185770010058c86da1c09ea1ff19d294cf2f679b0260801c5b600083664000000000000016600f0b1315614744577001002c605e2e8cec506d21bfc89a23a00f0260801c5b600083662000000000000016600f0b131561477057700100162f3904051fa128bca9c55c31e5df0260801c5b600083661000000000000016600f0b131561479c577001000b175effdc76ba38e31671ca9397250260801c5b600083660800000000000016600f0b13156147c857700100058ba01fb9f96d6cacd4b180917c3d0260801c5b600083660400000000000016600f0b13156147f45770010002c5cc37da9491d0985c348c68e7b30260801c5b600083660200000000000016600f0b1315614820577001000162e525ee054754457d59952920260260801c5b600083600160301b16600f0b13156148495770010000b17255775c040618bf4a4ade83fc0260801c5b6000836580000000000016600f0b1315614874577001000058b91b5bc9ae2eed81e9b7d4cfab0260801c5b6000836540000000000016600f0b131561489f57700100002c5c89d5ec6ca4d7c8acc017b7c90260801c5b6000836520000000000016600f0b13156148ca5770010000162e43f4f831060e02d839a9d16d0260801c5b6000836510000000000016600f0b13156148f557700100000b1721bcfc99d9f890ea069117630260801c5b6000836508000000000016600f0b13156149205770010000058b90cf1e6d97f9ca14dbcc16280260801c5b6000836504000000000016600f0b131561494b577001000002c5c863b73f016468f6bac5ca2b0260801c5b6000836502000000000016600f0b131561497657700100000162e430e5a18f6119e3c02282a50260801c5b6000836501000000000016600f0b13156149a1577001000000b1721835514b86e6d96efd1bfe0260801c5b60008364800000000016600f0b13156149cb57700100000058b90c0b48c6be5df846c5b2ef0260801c5b60008364400000000016600f0b13156149f55770010000002c5c8601cc6b9e94213c72737a0260801c5b60008364200000000016600f0b1315614a1f577001000000162e42fff037df38aa2b219f060260801c5b60008364100000000016600f0b1315614a495770010000000b17217fba9c739aa5819f44f90260801c5b60008364080000000016600f0b1315614a73577001000000058b90bfcdee5acd3c1cedc8230260801c5b60008364040000000016600f0b1315614a9d57700100000002c5c85fe31f35a6a30da1be500260801c5b60008364020000000016600f0b1315614ac75770010000000162e42ff0999ce3541b9fffcf0260801c5b60008364010000000016600f0b1315614af157700100000000b17217f80f4ef5aadda455540260801c5b600083638000000016600f0b1315614b1a5770010000000058b90bfbf8479bd5a81b51ad0260801c5b600083634000000016600f0b1315614b43577001000000002c5c85fdf84bd62ae30a74cc0260801c5b600083632000000016600f0b1315614b6c57700100000000162e42fefb2fed257559bdaa0260801c5b600083631000000016600f0b1315614b95577001000000000b17217f7d5a7716bba4a9ae0260801c5b600083630800000016600f0b1315614bbe57700100000000058b90bfbe9ddbac5e109cce0260801c5b600083630400000016600f0b1315614be75770010000000002c5c85fdf4b15de6f17eb0d0260801c5b600083630200000016600f0b1315614c10577001000000000162e42fefa494f1478fde050260801c5b600083630100000016600f0b1315614c395770010000000000b17217f7d20cf927c8e94c0260801c5b6000836280000016600f0b1315614c61577001000000000058b90bfbe8f71cb4e4b33d0260801c5b6000836240000016600f0b1315614c8957700100000000002c5c85fdf477b662b269450260801c5b6000836220000016600f0b1315614cb15770010000000000162e42fefa3ae53369388c0260801c5b6000836210000016600f0b1315614cd957700100000000000b17217f7d1d351a389d400260801c5b6000836208000016600f0b1315614d015770010000000000058b90bfbe8e8b2d3d4ede0260801c5b6000836204000016600f0b1315614d29577001000000000002c5c85fdf4741bea6e77e0260801c5b6000836202000016600f0b1315614d5157700100000000000162e42fefa39fe95583c20260801c5b6000836201000016600f0b1315614d79577001000000000000b17217f7d1cfb72b45e10260801c5b60008361800016600f0b1315614da057700100000000000058b90bfbe8e7cc35c3f00260801c5b60008361400016600f0b1315614dc75770010000000000002c5c85fdf473e242ea380260801c5b60008361200016600f0b1315614dee577001000000000000162e42fefa39f02b772c0260801c5b60008361100016600f0b1315614e155770010000000000000b17217f7d1cf7d83c1a0260801c5b60008361080016600f0b1315614e3c577001000000000000058b90bfbe8e7bdcbe2e0260801c5b60008361040016600f0b1315614e6357700100000000000002c5c85fdf473dea871f0260801c5b60008361020016600f0b1315614e8a5770010000000000000162e42fefa39ef44d910260801c5b60008361010016600f0b1315614eb157700100000000000000b17217f7d1cf79e9490260801c5b600083608016600f0b1315614ed75770010000000000000058b90bfbe8e7bce5440260801c5b600083604016600f0b1315614efd577001000000000000002c5c85fdf473de6eca0260801c5b600083602016600f0b1315614f2357700100000000000000162e42fefa39ef366f0260801c5b600083601016600f0b1315614f49577001000000000000000b17217f7d1cf79afa0260801c5b600083600816600f0b1315614f6f57700100000000000000058b90bfbe8e7bcd6d0260801c5b600083600416600f0b1315614f955770010000000000000002c5c85fdf473de6b20260801c5b600083600216600f0b1315614fbb577001000000000000000162e42fefa39ef3580260801c5b600083600116600f0b1315614fe15770010000000000000000b17217f7d1cf79ab0260801c5b600f83810b60401d603f03900b1c60016001607f1b0381111561043c57600080fd5b60008061043c600a6122bf565b604051806101200160405280600061ffff16815260200160008152602001600081526020016000815260200160008152602001600081526020016000815260200160008152602001600081525090565b6040518060e00160405280615073615106565b815260200161508061517a565b815260006020820181905260408201819052606082018190526080820181905260a09091015290565b6040805160a08101825260008082526020820181905291810182905260608101829052608081019190915290565b6040805160a0810182526000808252602082018190529181018290529060608201908152602001600081525090565b60408051608081018252600080825260208201529081016151256151e2565b8152600060209091015290565b60405180610100016040528060008019168152602001600081526020016000815260200160008152602001600081526020016000815260200160008152602001600081525090565b6040518060800160405280606081526020016060815260200160008152602001600081525090565b6040518060c001604052806000815260200160008152602001600081526020016000815260200160008152602001600060038111156151dd57fe5b905290565b604051806060016040528060006001600160a01b0316815260200160008152602001600081525090565b60405180602001604052806001906020820280368337509192915050565b80356001600160a01b0381168114610d0257600080fd5b80516001600160701b031981168114610d0257600080fd5b8051610d02816158d0565b805160ff81168114610d0257600080fd5b600060208284031215615286578081fd5b6108558261522a565b600080604083850312156152a1578081fd5b6152aa8361522a565b946020939093013593505050565b6000602082840312156152c9578081fd5b5051919050565b600060a082840312156152e1578081fd5b60405160a0810181811067ffffffffffffffff821117156152fe57fe5b604052825164ffffffffff81168114615315578283fd5b815260208301516001600160f81b031981168114615331578283fd5b602082015261534260408401615264565b604082015261535360608401615259565b606082015261536460808401615241565b60808201529392505050565b600060208284031215615381578081fd5b8135610855816158d0565b6000806040838503121561539e578182fd5b82356153a9816158d0565b9150612cd86020840161522a565b6000806000606084860312156153cb578081fd5b83356153d6816158d0565b92506153e46020850161522a565b91506153f26040850161522a565b90509250925092565b600080600080600060a08688031215615412578081fd5b853561541d816158d0565b945061542b6020870161522a565b93506154396040870161522a565b92506154476060870161522a565b949793965091946080013592915050565b6000806000806080858703121561546d578384fd5b8435615478816158d0565b93506154866020860161522a565b92506154946040860161522a565b9396929550929360600135925050565b6000806000606084860312156154b8578283fd5b83356154c3816158d0565b9250602084013591506153f26040850161522a565b600080600080608085870312156154ed578081fd5b84356154f8816158d0565b93506020850135925061550d6040860161522a565b915061551b6060860161522a565b905092959194509250565b6001600160a01b0391909116815260200190565b6001600160a01b0395861681529385166020850152918416604084015283166060830152909116608082015260a00190565b6001600160a01b03929092168252805164ffffffffff166020808401919091528101516001600160f81b03191660408084019190915281015160ff1660608084019190915281015161ffff1660808084019190915201516001600160701b03191660a082015260c00190565b6001600160a01b0396909616865261ffff94909416602086015260408501929092526060840152608083015260a082015260c00190565b6001600160a01b0393841681526020810192909252909116604082015260600190565b6001600160a01b03948516815260208101939093529216604082015261ffff909116606082015260800190565b6001600160a01b0394909416845260208401929092526040830152606082015260800190565b901515815260200190565b90815260200190565b60208082526016908201527513585c9ad95d081b9bdd081a5b9a5d1a585b1a5e995960521b604082015260600190565b602080825260049082015263135a5b9d60e21b604082015260600190565b60208082526006908201526552656465656d60d01b604082015260600190565b60208082526015908201527410d1ce881b9bc81b585c9ad95d1cc81b1a5cdd1959605a1b604082015260600190565b6020808252600d908201526c092dcecc2d8d2c840d2dcc8caf609b1b604082015260600190565b602080825260169082015275496e73756666696369656e7420616c6c6f77616e636560501b604082015260600190565b6020808252601390820152722ab730baba3437b934bd32b21031b0b63632b960691b604082015260600190565b60208082526016908201527510d1ce881b585c9ad95d081a5b99195e08189bdd5b9960521b604082015260600190565b6020808252600e908201526d125b9d985b1a59081b585c9ad95d60921b604082015260600190565b60208082526008908201526709ccace4086c2e6d60c31b604082015260600190565b60208082526017908201527f43616e6e6f74207472616e7366657220746f2073656c66000000000000000000604082015260600190565b6020808252600a90820152692732b390372a37b5b2b760b11b604082015260600190565b60208082526013908201527210d1ce881b9bc81b585c9ad95d08199bdd5b99606a1b604082015260600190565b61ffff929092168252602082015260400190565b61ffff811681146158e057600080fd5b5056fe536166654d6174683a206d756c7469706c69636174696f6e206f766572666c6f77a264697066735822122062f58c809cfd50614d3d7a2a990d8659c99b2c37b861b25d58e29c5ee350cdaa64736f6c63430007060033","bytecodeSha1":"53862124245cd7b27524448c5f070451f7fcc425","type":"contract","abi":[{"anonymous":false,"inputs":[{"indexed":true,"internalType":"address","name":"owner","type":"address"},{"indexed":true,"internalType":"address","name":"spender","type":"address"},{"indexed":false,"internalType":"uint256","name":"amount","type":"uint256"}],"name":"nTokenApproveAll","type":"event"},{"inputs":[],"name":"getLibInfo","outputs":[{"internalType":"address","name":"","type":"address"},{"internalType":"address","name":"","type":"address"},{"internalType":"address","name":"","type":"address"},{"internalType":"address","name":"","type":"address"},{"internalType":"address","name":"","type":"address"}],"stateMutability":"pure","type":"function"},{"inputs":[{"internalType":"uint16","name":"currencyId","type":"uint16"},{"internalType":"address","name":"account","type":"address"}],"name":"nTokenBalanceOf","outputs":[{"internalType":"uint256","name":"","type":"uint256"}],"stateMutability":"view","type":"function"},{"inputs":[],"name":"nTokenClaimIncentives","outputs":[{"internalType":"uint256","name":"","type":"uint256"}],"stateMutability":"nonpayable","type":"function"},{"inputs":[{"internalType":"uint16","name":"currencyId","type":"uint16"},{"internalType":"uint256","name":"assets","type":"uint256"},{"internalType":"address","name":"receiver","type":"address"}],"name":"nTokenMintViaProxy","outputs":[{"internalType":"uint256","name":"","type":"uint256"}],"stateMutability":"payable","type":"function"},{"inputs":[{"internalType":"uint16","name":"currencyId","type":"uint16"}],"name":"nTokenPresentValueAssetDenominated","outputs":[{"internalType":"int256","name":"totalAssetPV","type":"int256"}],"stateMutability":"view","type":"function"},{"inputs":[{"internalType":"uint16","name":"currencyId","type":"uint16"}],"name":"nTokenPresentValueUnderlyingDenominated","outputs":[{"internalType":"int256","name":"totalUnderlyingPVInternal","type":"int256"}],"stateMutability":"view","type":"function"},{"inputs":[{"internalType":"uint16","name":"currencyId","type":"uint16"}],"name":"nTokenPresentValueUnderlyingExternal","outputs":[{"internalType":"uint256","name":"underlyingExternal","type":"uint256"}],"stateMutability":"view","type":"function"},{"inputs":[{"internalType":"uint16","name":"currencyId","type":"uint16"},{"internalType":"uint256","name":"shares","type":"uint256"},{"internalType":"address","name":"receiver","type":"address"},{"internalType":"address","name":"owner","type":"address"}],"name":"nTokenRedeemViaProxy","outputs":[{"internalType":"uint256","name":"","type":"uint256"}],"stateMutability":"nonpayable","type":"function"},{"inputs":[{"internalType":"address","name":"nTokenAddress","type":"address"}],"name":"nTokenTotalSupply","outputs":[{"internalType":"uint256","name":"totalSupply","type":"uint256"}],"stateMutability":"view","type":"function"},{"inputs":[{"internalType":"uint16","name":"currencyId","type":"uint16"},{"internalType":"address","name":"from","type":"address"},{"internalType":"address","name":"to","type":"address"},{"internalType":"uint256","name":"amount","type":"uint256"}],"name":"nTokenTransfer","outputs":[{"internalType":"bool","name":"","type":"bool"}],"stateMutability":"nonpayable","type":"function"},{"inputs":[{"internalType":"uint16","name":"currencyId","type":"uint16"},{"internalType":"address","name":"tokenHolder","type":"address"},{"internalType":"address","name":"spender","type":"address"}],"name":"nTokenTransferAllowance","outputs":[{"internalType":"uint256","name":"","type":"uint256"}],"stateMutability":"view","type":"function"},{"inputs":[{"internalType":"uint16","name":"currencyId","type":"uint16"},{"internalType":"address","name":"tokenHolder","type":"address"},{"internalType":"address","name":"spender","type":"address"},{"internalType":"uint256","name":"amount","type":"uint256"}],"name":"nTokenTransferApprove","outputs":[{"internalType":"bool","name":"","type":"bool"}],"stateMutability":"nonpayable","type":"function"},{"inputs":[{"internalType":"address","name":"spender","type":"address"},{"internalType":"uint256","name":"amount","type":"uint256"}],"name":"nTokenTransferApproveAll","outputs":[{"internalType":"bool","name":"","type":"bool"}],"stateMutability":"nonpayable","type":"function"},{"inputs":[{"internalType":"uint16","name":"currencyId","type":"uint16"},{"internalType":"address","name":"spender","type":"address"},{"internalType":"address","name":"from","type":"address"},{"internalType":"address","name":"to","type":"address"},{"internalType":"uint256","name":"amount","type":"uint256"}],"name":"nTokenTransferFrom","outputs":[{"internalType":"bool","name":"","type":"bool"}],"stateMutability":"nonpayable","type":"function"},{"inputs":[],"name":"owner","outputs":[{"internalType":"address","name":"","type":"address"}],"stateMutability":"view","type":"function"},{"inputs":[],"name":"pauseGuardian","outputs":[{"internalType":"address","name":"","type":"address"}],"stateMutability":"view","type":"function"},{"inputs":[],"name":"pauseRouter","outputs":[{"internalType":"address","name":"","type":"address"}],"stateMutability":"view","type":"function"}],"compiler":{"version":"0.7.6+commit.7338295f","evm_version":"istanbul","optimizer":{"enabled":true,"runs":200}},"contractName":"nTokenAction","deployedBytecode":"6080604052600436106100fe5760003560e01c80636a96e86f116100955780638a0107be116100645780638a0107be1461029d5780638da5cb5b146102b0578063a78dbfff146102c5578063c4c96dae146102e5578063daca07a61461030b576100fe565b80636a96e86f146102285780637db31ab9146102485780638246336714610268578063884a70921461027d576100fe565b8063309c00a6116100d1578063309c00a6146101a85780633b2987b3146101c85780634cb6b359146101e857806363c2983214610208576100fe565b806318ae40d7146101035780631a05bce11461013957806324a3d622146101665780632e0ecba814610188575b600080fd5b34801561010f57600080fd5b5061012361011e366004615458565b610320565b6040516101309190615685565b60405180910390f35b34801561014557600080fd5b50610159610154366004615370565b6103b6565b6040516101309190615690565b34801561017257600080fd5b5061017b6103c8565b6040516101309190615526565b34801561019457600080fd5b506101236101a336600461528f565b6103d7565b3480156101b457600080fd5b506101236101c3366004615458565b610442565b3480156101d457600080fd5b506101596101e3366004615370565b6104ce565b3480156101f457600080fd5b50610159610203366004615370565b6104f1565b34801561021457600080fd5b506101596102233660046154d8565b610550565b34801561023457600080fd5b50610159610243366004615275565b6107d1565b34801561025457600080fd5b506101596102633660046153b7565b6107e5565b34801561027457600080fd5b5061017b61085c565b34801561028957600080fd5b506101236102983660046153fb565b61086b565b6101596102ab3660046154a4565b6109fd565b3480156102bc57600080fd5b5061017b610b74565b3480156102d157600080fd5b506101596102e036600461538c565b610b8b565b3480156102f157600080fd5b506102fa610baa565b60405161013095949392919061553a565b34801561031757600080fd5b50610159610c1a565b6000806103308661ffff16610cda565b9050336001600160a01b038216146103635760405162461bcd60e51b815260040161035a9061578d565b60405180910390fd5b836001600160a01b0316856001600160a01b031614156103955760405162461bcd60e51b815260040161035a90615834565b61039e84610d07565b6103aa86868686610d56565b9150505b949350505050565b60006103c182610f11565b5092915050565b6002546001600160a01b031681565b3360008181526004602090815260408083206001600160a01b038716808552925280832085905551919290917f822ca733b0e03e3b0cbc1e998614c93cb0aa4a896ea2bdceff5071098b4c907690610430908690615690565b60405180910390a35060015b92915050565b6000806104528661ffff16610cda565b9050336001600160a01b0382161461047c5760405162461bcd60e51b815260040161035a9061578d565b6001600160a01b03851661048f57600080fd5b50506001600160a01b03928316600090815260056020908152604080832094909516825292835283812061ffff95909516815293909152912055600190565b60008060006104dc84610f11565b80516040015191935091506103ae9083610f36565b60008060006104ff84610f11565b91509150600081600001516040015190506105476105426305f5e10061053c84604001516105368887610f3690919063ffffffff16565b90610f61565b90610faf565b610fe0565b95945050505050565b6000806105608661ffff16610cda565b9050336001600160a01b03821614801561058b5750826001600160a01b0316846001600160a01b0316145b6105a75760405162461bcd60e51b815260040161035a9061578d565b60006105b286610ff3565b90506105bc615010565b60006105c786611009565b90506105d2816110aa565b15610663576040516337b5fc2160e11b815273__$f6541b0d362a0c7d99a2a29cd3d373d61b$__90636f6bf84290610610908990859060040161556c565b60a06040518083038186803b15801561062857600080fd5b505af415801561063c573d6000803e3d6000fd5b505050506040513d601f19601f8201168201806040525081019061066091906152d0565b90505b61066f82878b846110fe565b60c082015161067e90846111a4565b60c08301526040516352e73f7760e01b815260009073__$43fd92ea4ea9b72ca0014644dbfd757564$__906352e73f77906106bf908d9088906004016158bc565b60206040518083038186803b1580156106d757600080fd5b505af41580156106eb573d6000803e3d6000fd5b505050506040513d601f19601f8201168201806040525081019061070f91906152b8565b606084018190529050610721816111ba565b608084015261073383888460016111c8565b5061073e8288611449565b60208201516001600160f81b031916156107ba57604051636ccc642f60e01b815273__$841fddfe32830bb6dbc3a02d7f16c53722$__90636ccc642f90610789908a90600401615526565b60006040518083038186803b1580156107a157600080fd5b505af41580156107b5573d6000803e3d6000fd5b505050505b6107c381610fe0565b9a9950505050505050505050565b60006107dc8261154d565b50909392505050565b6001600160a01b038083166000908152600560209081526040808320938516835292815282822061ffff871683529052908120548015610826579050610855565b50506001600160a01b03808316600090815260046020908152604080832093851683529290522054610855565b505b9392505050565b6001546001600160a01b031681565b60008061087b8761ffff16610cda565b9050336001600160a01b038216146108a55760405162461bcd60e51b815260040161035a9061578d565b836001600160a01b0316856001600160a01b031614156108d75760405162461bcd60e51b815260040161035a90615834565b6108e084610d07565b6001600160a01b038086166000908152600560209081526040808320938a16835292815282822061ffff8b16835290522054801561097357838110156109385760405162461bcd60e51b815260040161035a9061575d565b6001600160a01b038087166000908152600560209081526040808320938b16835292815282822061ffff8c16835290522084820390556109e5565b506001600160a01b038086166000908152600460209081526040808320938a1683529290522054838110156109ba5760405162461bcd60e51b815260040161035a9061575d565b6001600160a01b038087166000908152600460209081526040808320938b1683529290522084820390555b6109f188878787610d56565b98975050505050505050565b600080610a0d8561ffff16610cda565b9050336001600160a01b03821614610a375760405162461bcd60e51b815260040161035a9061578d565b60018561ffff161415610a5057348414610a5057600080fd5b6000610a5f8661ffff166115a9565b90506000600482606001516005811115610a7557fe5b1415610a9557610a8e610a8787610ff3565b83906115bc565b9050610aa6565b610aa3610a878389896115ec565b90505b610aae615010565b6000610ab987611009565b9050610ac782888b846110fe565b604051632128561360e11b815260009073__$892f367d396be2b92d3b049e6e62920984$__90634250ac2690610b03908d9088906004016158bc565b60206040518083038186803b158015610b1b57600080fd5b505af4158015610b2f573d6000803e3d6000fd5b505050506040513d601f19601f82011682018060405250810190610b5391906152b8565b60c084018190529050610b6983898460016111c8565b506107ba8289611449565b60005464010000000090046001600160a01b031681565b600080610b9c838561ffff166116e3565b50509150506103ae81610fe0565b73__$841fddfe32830bb6dbc3a02d7f16c53722$__73__$b21a4dc043b77aa57922ad9143a3cb040e$__73__$f6541b0d362a0c7d99a2a29cd3d373d61b$__73__$892f367d396be2b92d3b049e6e62920984$__73__$43fd92ea4ea9b72ca0014644dbfd757564$__9091929394565b60003381610c2782611009565b90506000610c33615010565b610c3c8361178c565b15610c6e576060830151610c549082908690866110fe565b600081604001511315610c6e57610c6b8185611799565b91505b60808301515b6001600160701b0319811615610cd05760f081901c613fff16610c99838783886110fe565b600083604001511315610cbd57610cba610cb38488611799565b85906117d6565b93505b5060101b6001600160801b031916610c74565b5090935050505090565b600080610ce56117e8565b600084815260209190915260409020546001600160a01b03169150505b919050565b6001600160a01b038116610d1a57600080fd5b6001600160a01b038116301415610d3057600080fd5b6000610d3b826117f5565b5050505061ffff16905080600014610d5257600080fd5b5050565b600080610d6283610ff3565b90506000610d6f86611009565b9050610d7a816110aa565b15610e0b576040516337b5fc2160e11b815273__$f6541b0d362a0c7d99a2a29cd3d373d61b$__90636f6bf84290610db8908990859060040161556c565b60a06040518083038186803b158015610dd057600080fd5b505af4158015610de4573d6000803e3d6000fd5b505050506040513d601f19601f82011682018060405250810190610e0891906152d0565b90505b610e13615010565b610e1f81888a856110fe565b610e28836111ba565b60a0820152610e3a81888460006111c8565b50610e458288611449565b6000610e5087611009565b9050610e5a615010565b610e6681898c856110fe565b60a08101859052610e7a81898460006111c8565b50610e858289611449565b60208401516001600160f81b03191615610f0157604051636ccc642f60e01b815273__$841fddfe32830bb6dbc3a02d7f16c53722$__90636ccc642f90610ed0908c90600401615526565b60006040518083038186803b158015610ee857600080fd5b505af4158015610efc573d6000803e3d6000fd5b505050505b5060019998505050505050505050565b6000610f1b615060565b610f25818461185e565b610f2f8142611877565b9150915091565b6000806103ae846040015161053c6402540be40061053c878960200151610f6190919063ffffffff16565b818102600019831415610f9157811580610f83575082828281610f8057fe5b05145b610f8c57600080fd5b61043c565b821580610fa6575081838281610fa357fe5b05145b61043c57600080fd5b600081600019148015610fc55750600160ff1b83145b15610fcf57600080fd5b818381610fd857fe5b059392505050565b600080821215610fef57600080fd5b5090565b60006001600160ff1b03821115610fef57600080fd5b6110116150a9565b600061101b61192f565b6001600160a01b039390931660009081526020938452604090819020815160a081018352905464ffffffffff8116825265010000000000810460f81b6001600160f81b03191695820195909552600160301b850460ff1691810191909152600160381b840461ffff166060820152600160481b90930460701b6001600160701b03191660808401525090919050565b6000426110b68361178c565b156110d7576110c48161193c565b835164ffffffffff16109150610d029050565b825164ffffffffff16158015906110f65750825164ffffffffff168110155b915050610d02565b8161ffff1660001080156111185750613fff61ffff831611155b61112157600080fd5b61ffff821680855261113490829061195d565b1561116157611147838361ffff166116e3565b61010088015260e08701526040860152602085015261117f565b6000602085018190526040850181905260e085018190526101008501525b50506000606083018190526080830181905260a0830181905260c09092019190915250565b8082038281131560008312151461043c57600080fd5b600061043c60001983610f61565b60008060008660a0015112156112215760006112038760a001516111fd8960c001518a604001516119e790919063ffffffff16565b906119e7565b12156112215760405162461bcd60e51b815260040161035a9061586b565b60008660800151121561127157600061125387608001516111fd89606001518a602001516119e790919063ffffffff16565b12156112715760405162461bcd60e51b815260040161035a90615812565b61127c8686856119fd565b608088018190526060880151919350600091611297916119e7565b905080156113045760208701516112ae90826119e7565b602088015286516040516001935061ffff909116906001600160a01b038816907f5441e4a5fac93a951d782e6f1cdb82e95c8fc58561a013953d17e395c5e69b4b906112fb908590615690565b60405180910390a35b60a0870151151580611319575060c087015115155b156113bf5760006113438860c001516111fd8a60a001518b604001516119e790919063ffffffff16565b9050611358888861135384610fe0565b611ab3565b506040880181905260c0880151156113b957876000015161ffff16876001600160a01b03167f412bc13d202a2ea5119e55fec9c5e420dddb18faf186373ad9795ad4f4545aa98a60c001516040516113b09190615690565b60405180910390a35b60019250505b81156113ec576113ec86886000015161ffff1689602001518a604001518b60e001518c6101000151611ba0565b865160208801516114199161ffff169015158061140c5750604089015115155b879190600160fe1b611cea565b60008760200151121561143f57602085018051600160f91b176001600160f81b03191690525b5050949350505050565b600061145361192f565b6001600160a01b03831660008181526020838152604080832088518154938a0151838b015160608c015160808d015160701c600160481b027affffffffffffffffffffffffffffffffffff0000000000000000001961ffff909216600160381b0268ffff000000000000001960ff94909416600160301b0266ff0000000000001960f89690961c650100000000000265ff00000000001964ffffffffff90981664ffffffffff19909b169a909a1796909616989098179390931693909317169490941716929092179091555192935090917f6bd4b121bca854a191536a2ca891155c42ee2fb23f307fb34e8bc65cfcb5412e9190a2505050565b60008060008061155b611ef1565b6001600160a01b0395909516600090815260209590955250506040909220546001600160601b03811693600160601b82046001600160801b03169350600160e01b90910463ffffffff169150565b6115b16150d7565b61043c826000611efe565b60006305f5e100836040015114156115d557508061043c565b60408301516108559061053c846305f5e100610f61565b60008060058560600151600581111561160157fe5b14611613576370a0823160e01b61161c565b630ed1279f60e11b5b9050600061162f86600001513084611fac565b905060058660600151600581111561164357fe5b141561166a5760006116588661ffff166120be565b905061166481866120d1565b506116b3565b60018660600151600581111561167c57fe5b14156116915761168c8685612144565b6116b3565b6002866060015160058111156116a357fe5b14156100fe5761168c86856121eb565b60006116c487600001513085611fac565b90506116d86116d38284612247565b610ff3565b979650505050505050565b60008060008060006116f36122a4565b6001600160a01b0388166000908152602082815260408083208a8452909152902080546001600160501b0381169650600160501b900463ffffffff169450909150831561175c57805461175590600160701b900466ffffffffffffff166122b1565b9250611771565b8054600160701b900466ffffffffffffff1692505b54600160a81b9004600a90810b900b97939650919450925050565b6060015161ffff16151590565b60006117ad83836113538660400151610fe0565b905061043c82846000015161ffff16856020015186604001518760e00151886101000151611ba0565b60008282018381101561085557600080fd5b60008061043c60036122bf565b6000806000806000806118066122d8565b6001600160a01b039097166000908152602097909752505060409094205461ffff81169563ffffffff62010000830481169650600160301b830416945060ff600160501b8304169350600160581b90910460d81b9150565b61186882826122e5565b61187181612388565b90915250565b600080611883846123ab565b9050828111611893576001810392505b5060006118a084846123d5565b50905060006118ce8560c0015186600001516000015161ffff1687608001518789600001516020015161252a565b9050600081156119005760c08601518651805160808901516118fc939261ffff9092169189906000886125d6565b5090505b606086015186516040015161192591906111fd9061191e9085612654565b86906119e7565b9695505050505050565b60008061043c60016122bf565b60006201518082101561194e57600080fd5b62015180825b06909103919050565b600081158015906119705750613fff8211155b61197957600080fd5b6080830151606084015161ffff1683141561199857600191505061043c565b6001600160701b03198116156119dd5760f081901c613fff16838114156119ca5750600160fe1b90811614905061043c565b5060101b6001600160801b031916611998565b5060009392505050565b8181018281121560008312151461043c57600080fd5b6000806000611a13866000015161ffff166115a9565b90506000611a2e87608001518361267f90919063ffffffff16565b905080611a4357600080935093505050611aab565b848015611a505750600081125b15611a85578651611a729061ffff1687611a69846111ba565b859291906126b7565b9350611a7e82826115bc565b9250611aa8565b8651611a99908390889061ffff1684612752565b9350611aa582856115bc565b92505b50505b935093915050565b825160009042908290611ac99061ffff16610cda565b90506000611adc828860c00151856127fa565b9050611aea878383886128dd565b93506000611af783612a0a565b90506001600160a01b03811615611b8557806001600160a01b0316631d684dd2888a60000151611b2a8c60400151610fe0565b8a8d60c001518b6040518763ffffffff1660e01b8152600401611b52969594939291906155d8565b600060405180830381600087803b158015611b6c57600080fd5b505af1158015611b80573d6000803e3d6000fd5b505050505b8415611b9557611b958786612a7c565b505050509392505050565b6000611baa6122a4565b6001600160a01b0388166000908152602082815260408083208a845290915290209091506a7fffffffffffffffffffff198612801590611bf557506a7fffffffffffffffffffff8613155b611bfe57600080fd5b60008512158015611c1657506001600160501b038513155b611c1f57600080fd5b83611c5f5766ffffffffffffff831115611c3857600080fd5b805466ffffffffffffff60701b1916600160701b66ffffffffffffff851602178155611c79565b8054600160501b900463ffffffff168414611c7957600080fd5b8054600a9690960b6affffffffffffffffffffff16600160a81b026001600160a81b036001600160501b0390961669ffffffffffffffffffff1963ffffffff909616600160501b0263ffffffff60501b19909816979097179490941695909517939093169190911790925550505050565b826000108015611cfc5750613fff8311155b611d0557600080fd5b818015611d19575082846060015161ffff16145b15611d2357611eeb565b6080840151600090815b6001600160701b0319821615611ea55760f082901c613fff168681148015611d525750855b15611d8a57506080870180516001600160f01b0319861660109093029290921c919091176001600160701b031916905250611eeb9050565b8681148015611d97575085155b15611df3576001600160f01b03198516199290921691600360fe1b8316611dd1576010836dffffffffffffffffffffffffffff1916901b92505b506001600160701b031991821660109091021c91909117166080850152611eeb565b8681118015611dff5750855b15611e59576080888101516001600160f01b031960f08a901b88178116601086021c9690961795911b1615611e3357600080fd5b506001600160701b03199182166001919091016010021c91909117166080850152611eeb565b8681118015611e66575085155b15611e745750505050611eeb565b506001600160f01b0319821660108281029190911c93909317929190911b6001600160801b03191690600101611d2d565b84611eb257505050611eeb565b60098110611ebf57600080fd5b6001600160f01b031960f087901b85171660109091021c919091176001600160701b0319166080860152505b50505050565b60008061043c60116122bf565b611f066150d7565b6000611f10612a9b565b6000858152602082815260408083208715158452825291829020825160a08101845281546001600160a01b038116825260ff600160a01b82048116151594830194909452600160b01b81048416600a0a9482019490945293945092916060830191600160a81b909104166005811115611f8557fe5b81529154600160b81b900468ffffffffffffffffff16602090920191909152949350505050565b604080516001600160a01b0384811660248084019190915283518084039091018152604490920183526020820180516001600160e01b03166001600160e01b0319861617815292518251600094859485948a16939092909182918083835b602083106120295780518252601f19909201916020918201910161200a565b6001836020036101000a038019825116818451168082178552505050505050905001915050600060405180830381855afa9150503d8060008114612089576040519150601f19603f3d011682016040523d82523d6000602084013e61208e565b606091505b50915091508161209d57600080fd5b8080602001905160208110156120b257600080fd5b50519695505050505050565b6120c66150d7565b61043c826001611efe565b6120d9612aa8565b54825160405163e8eda9df60e01b81526001600160a01b039092169163e8eda9df9161210e9185903090600090600401615632565b600060405180830381600087803b15801561212857600080fd5b505af115801561213c573d6000803e3d6000fd5b505050505050565b815160405163140e25ad60e31b81526000916001600160a01b03169063a0712d6890612174908590600401615690565b602060405180830381600087803b15801561218e57600080fd5b505af11580156121a2573d6000803e3d6000fd5b505050506040513d601f19601f820116820180604052508101906121c691906152b8565b905080156121e65760405162461bcd60e51b815260040161035a906156c9565b505050565b81600001516001600160a01b0316631249c58b826040518263ffffffff1660e01b81526004016000604051808303818588803b15801561222a57600080fd5b505af115801561223e573d6000803e3d6000fd5b50505050505050565b60008282111561229e576040805162461bcd60e51b815260206004820152601e60248201527f536166654d6174683a207375627472616374696f6e206f766572666c6f770000604482015290519081900360640190fd5b50900390565b60008061043c60066122bf565b600881901c60ff9091161b90565b6000620f424082601a8111156122d157fe5b0192915050565b60008061043c60026122bf565b6122f28161ffff16610cda565b6001600160a01b031660c0830181905260009081908190612312906117f5565b945094509450505060006123298660c0015161154d565b505060808701859052604087018190526001600160d81b0319831660a088015260c087015190915061235d90846000612ab5565b602087015260c08601516123759061ffff87166116e3565b5050506060909601959095525050505050565b612390615106565b600061239f8361ffff16612b48565b90506108558382612b94565b60008160800151600014156123c257506000610d02565b60808201516276a700906122d190612bd7565b602082015151516000906060908067ffffffffffffffff811180156123f957600080fd5b50604051908082528060200260200182016040528015612423578160200160208202803683370190505b50915061242e615132565b60005b8281101561252057865161244c90836001808501908a612bf3565b6000876020015160000151828151811061246257fe5b602002602001015190506000816020015190506000806124828487612c66565b915091506124ab6124a48c60c001518d600001516000015161ffff1686612ce1565b82906119e7565b8886815181106124b757fe5b60200260200101818152505060006125016124fa6124ee8b89815181106124da57fe5b6020026020010151878f8c60c00151612d26565b8e516040015190612654565b84906119e7565b905061250d8a826119e7565b9950506001909401935061243192505050565b5050509250929050565b60006002821161253c57506000610547565b60006125488787612d6c565b905080612556579050610547565b600061256185612bd7565b90508581141561258b57507440008000000200200000000200000020000000002019169050610547565b60015b8481116125cb5760006125a082612da1565b8301905060006125b08983612e45565b5090506125bf85826000612f50565b9450505060010161258e565b508192505050610547565b60008060006125e484612f9b565b90505b80156126475760006125f98983612fc0565b9050600061260b8c8c848c8c8c613073565b905061261785826119e7565b9450600081121561262757600193505b61263386846000612f50565b955061263e86612f9b565b925050506125e7565b5097509795505050505050565b6000806103ae846020015161053c86604001516105366402540be40088610f6190919063ffffffff16565b60006305f5e1008360400151141561269857508061043c565b6108556305f5e10061053c856040015185610f6190919063ffffffff16565b6000806002866060015160058111156126cc57fe5b14156126e4576126dd8685856130c8565b9050612741565b60006126ef866120be565b905060058760600151600581111561270357fe5b141561271b5761271481868661318f565b915061273f565b60018760600151600581111561272d57fe5b14156100fe5761271487828787613238565b505b6103aa61274d82610ff3565b6111ba565b8060058560600151600581111561276557fe5b141561278a576000612776846120be565b9050612786816000015184613336565b9250505b60008213156127b65760006127a08686856133bc565b90508560200151156127b0578091505b506103ae565b6003856060015160058111156127c857fe5b14156127e5576127e0846127db846111ba565b6134a5565b6103ae565b84516103ae90856127f5856111ba565b6134db565b60008060006128098685613552565b50915091506000612818611ef1565b6001600160a01b038816600090815260208290526040812091925061283d85896119e7565b90508060001315801561285657506001600160601b0381105b61285f57600080fd5b81546bffffffffffffffffffffffff19166001600160601b038216176fffffffffffffffffffffffffffffffff60601b1916600160601b6001600160801b0386160217825563ffffffff87106128b457600080fd5b50805463ffffffff8716600160e01b026001600160e01b03909116179055509150509392505050565b60e08401516000901561299e5773__$b21a4dc043b77aa57922ad9143a3cb040e$__63e0c01a72856129128860400151610fe0565b8860e001518961010001516040518563ffffffff1660e01b815260040161293c949392919061565f565b60206040518083038186803b15801561295457600080fd5b505af4158015612968573d6000803e3d6000fd5b505050506040513d601f19601f8201168201806040525081019061298c91906152b8565b600060e0870181905261010087015290505b6129e06129d98661010001516129d3670de0b6b3a76400006129cd886129c78c60400151610fe0565b906135e8565b90613641565b90612247565b82906136a8565b90506129f8670de0b6b3a76400006129cd84866135e8565b85610100018181525050949350505050565b600080612a156122d8565b6001600160a01b0384166000908152602082905260409020805491925090600160f81b900460ff1615612a7157612a4a613702565b6001600160a01b038086166000908152602092909252604090912054169250610d02915050565b600092505050610d02565b610d5273c5e91b01f9b23952821410be7aa3c45b6429c67083836134db565b60008061043c60076122bf565b60008061043c60136122bf565b612abd61517a565b612ac561517a565b60ff8416612ad4579050610855565b612ade858561370f565b815260ff841660608201528267ffffffffffffffff81118015612b0057600080fd5b50604051908082528060200260200182016040528015612b3a57816020015b612b276151a2565b815260200190600190039081612b1f5790505b506020820152949350505050565b612b506151e2565b6000806000612b5e85613738565b604080516060810182526001600160a01b039093168352602083019390935260ff16600a0a918101919091529350505050919050565b612b9c615106565b6000612bab8461ffff166137f9565b6040805160808101825261ffff96909616865260ff821660208701528501939093525050606082015290565b60006276a700821015612be957600080fd5b6276a70082611954565b82600111158015612c08575084602001518311155b612c245760405162461bcd60e51b815260040161035a906157ea565b6000612c41612c3285612da1565b612c3b84612bd7565b906136a8565b905061213c866000015161ffff16828486612c5b8b613816565b8a949392919061382a565b600080612c76846040015161384b565b8015612c8757506000846060015112155b612c9057600080fd5b612cb3836080015161053c86606001518660600151610f6190919063ffffffff16565b9150612cd8836080015161053c86606001518660400151610f6190919063ffffffff16565b90509250929050565b600080612cec613861565b6001600160a01b03861660009081526020918252604080822087835283528082208683529092522054600f90810b900b9150509392505050565b600084612d35575060006103ae565b6000612d418585612247565b90506000612d4f828561386e565b9050633b9aca00811315612d6257600080fd5b6116d887826138db565b600080612d776138f4565b6001600160a01b038516600090815260209182526040808220868352909252205491505092915050565b60008160011415612db657506276a700610d02565b8160021415612dc9575062ed4e00610d02565b8160031415612ddd57506301da9c00610d02565b8160041415612df157506303b53800610d02565b8160051415612e0557506309450c00610d02565b8160061415612e19575063128a1800610d02565b8160071415612e2d57506325143000610d02565b60405162461bcd60e51b815260040161035a90615736565b6000806000612e538561193c565b905062015180840615612e6d576000809250925050612f49565b838110612e81576000809250925050612f49565b6201518081850304605a8111612e9e57925060019150612f499050565b6101688111612edd576000620151806207e900840604820160591901905060068104605a0160068281612ecd57fe5b0660001494509450505050612f49565b6108708111612f0d5760006201518062278d00840604820161016719019050601e8104608701601e8281612ecd57fe5b611de28111612f3d576000620151806276a700840604820161086f19019050605a810460c301605a8281612ecd57fe5b61010060009350935050505b9250929050565b600060018310158015612f6557506101008311155b612f6e57600080fd5b8115612f875750600160ff1b60001983011c8317610855565b50600160ff1b60001983011c198316610855565b600081612faa57506000610d02565b612fb382613901565b60ff036001019050919050565b600081612fcc57600080fd5b610100821115612fdb57600080fd5b6000612fe68461193c565b90506000605a8411613001575062015180830201905061043c565b60878411613029575060591983016207e900908102908206909103016276a70001905061043c565b60c384116130525750608619830162278d00908102908206909103016301da9c0001905061043c565b5060c21983016276a70090810290820690910301630b1fa80001905061043c565b600080613081888888612ce1565b9050848611613091579050611925565b600061309e85888861399a565b905083156130bc576130b38583898985613a80565b92505050611925565b6130b382888884612d26565b825160405163db006a7560e01b8152600091479183916001600160a01b03169063db006a75906130fc908790600401615690565b602060405180830381600087803b15801561311657600080fd5b505af115801561312a573d6000803e3d6000fd5b505050506040513d601f19601f8201168201806040525081019061314e91906152b8565b9050801561316e5760405162461bcd60e51b815260040161035a906156e7565b476131798184612247565b935061318586856134a5565b5050509392505050565b60006131aa61054285600001516131a585610ff3565b613336565b90506131b4612aa8565b548451604051631a4ca37b60e21b81526001600160a01b03909216916369328dec916131e6918590889060040161560f565b602060405180830381600087803b15801561320057600080fd5b505af1158015613214573d6000803e3d6000fd5b505050506040513d601f19601f8201168201806040525081019061085391906152b8565b8251600090819061325190306370a0823160e01b611fac565b9050600086600001516001600160a01b031663db006a75856040518263ffffffff1660e01b81526004016132859190615690565b602060405180830381600087803b15801561329f57600080fd5b505af11580156132b3573d6000803e3d6000fd5b505050506040513d601f19601f820116820180604052508101906132d791906152b8565b905080156132f75760405162461bcd60e51b815260040161035a906156e7565b855160009061330e90306370a0823160e01b611fac565b905061331a8184612247565b935061332b876000015187866134db565b505050949350505050565b6000816133455750600061043c565b600061335084613b14565b9050600061335d84613b9f565b9050816b019d971e4fe8401e74000001600160ff1b038161337a57fe5b0581131561338757600080fd5b6b033b2e3c9fd0803ce80000006b019d971e4fe8401e74000000838302010560008513610547576133b7816111ba565b611925565b60008080806005876060015160058111156133d357fe5b146133e5576370a0823160e01b6133ee565b630ed1279f60e11b5b905086602001511561340a578651613407903083611fac565b92505b8651613417908787613bc0565b86602001518061342b575060008760800151115b1561344057865161343d903083611fac565b91505b60808701511561347b57600061345e8861345985610ff3565b6115bc565b905061346d8860800151610ff3565b81131561347957600080fd5b505b86602001511561349c576134926116d38385612247565b9350505050610855565b61349285610ff3565b6040516001600160a01b0383169082156108fc029083906000818181858888f193505050501580156121e6573d6000803e3d6000fd5b826001600160a01b031663a9059cbb83836040518363ffffffff1660e01b815260040180836001600160a01b0316815260200182815260200192505050600060405180830381600087803b15801561353257600080fd5b505af1158015613546573d6000803e3d6000fd5b505050506121e6613c18565b60008060006135608561154d565b9194509250905080841180156135765750600081115b80156135825750600083115b156135e1576000613592866117f5565b50505091505060006135bd6135b46305f5e100846135e890919063ffffffff16565b84880387613c85565b90506135c984826136a8565b93506001600160801b0384106135de57600080fd5b50505b9250925092565b6000826135f75750600061043c565b8282028284828161360457fe5b04146108555760405162461bcd60e51b81526004018080602001828103825260218152602001806158e46021913960400191505060405180910390fd5b6000808211613697576040805162461bcd60e51b815260206004820152601a60248201527f536166654d6174683a206469766973696f6e206279207a65726f000000000000604482015290519081900360640190fd5b8183816136a057fe5b049392505050565b600082820183811015610855576040805162461bcd60e51b815260206004820152601b60248201527f536166654d6174683a206164646974696f6e206f766572666c6f770000000000604482015290519081900360640190fd5b60008061043c60126122bf565b6060600061371d8484613ca7565b9050600181511161372f57905061043c565b61085581613dc9565b600080600080600061374986613f82565b909250905060006001600160a01b03831661376e5750600090506402540be4006137ee565b826001600160a01b031663b2fffb046040518163ffffffff1660e01b815260040160206040518083038186803b1580156137a757600080fd5b505afa1580156137bb573d6000803e3d6000fd5b505050506040513d601f19601f820116820180604052508101906137df91906152b8565b9050600081136137ee57600080fd5b969195509350915050565b600080613804613fb9565b60009384526020525050604090205490565b6060015161012c60089190911c60ff160290565b60006276a70061383985612bd7565b01905061223e87878787878787613fc6565b60006002821080159061043c5750506008101590565b60008061043c600c6122bf565b60008061388b6138866301da9c006129cd86886135e8565b613ffd565b905061389d81621dcd6560491b61401b565b90506138b06138ab8261406e565b614090565b90506138c281621dcd6560491b6140e5565b905060006138cf8261411b565b60070b95945050505050565b60006108556138ea8484610f61565b633b9aca00610faf565b60008061043c600b6122bf565b60008161390d57600080fd5b600160801b821061392057608091821c91015b600160401b821061393357604091821c91015b640100000000821061394757602091821c91015b62010000821061395957601091821c91015b610100821061396a57600891821c91015b6010821061397a57600491821c91015b6004821061398a57600291821c91015b60028210610d0257600101919050565b60008060006139ae86602001518686614124565b9150915060006139bd87613816565b9050816139d65786516134929061ffff168783886141e4565b60006139e186612bd7565b905060006139f86139f186612da1565b83906136a8565b90506000613a108a6000015161ffff1683868b6141e4565b90506000808760011415613a3557899150613a2e8c60400151614283565b9050613a64565b613a4b613a4460018a03612da1565b86906136a8565b9150613a618c6000015161ffff1683888d6141e4565b90505b613a71828583868f614314565b98505050505050505050610855565b600084613a8f57506000610547565b6000613a9b8585612247565b9050600080871315613aca57613ac382613abe613ab78b614372565b87906136a8565b61386e565b9050613af9565b6000613ad589614387565b9050848110613ae957879350505050610547565b613af58382870361386e565b9150505b633b9aca00811315613b0a57600080fd5b6109f187826138db565b600061043c613b21612aa8565b5460405163d15e005360e01b81526001600160a01b039091169063d15e005390613b4f908690600401615526565b60206040518083038186803b158015613b6757600080fd5b505afa158015613b7b573d6000803e3d6000fd5b505050506040513d601f19601f820116820180604052508101906116d391906152b8565b600080821215613bb957613bb2826111ba565b9050610d02565b5080610d02565b604080516323b872dd60e01b81526001600160a01b038481166004830152306024830152604482018490529151918516916323b872dd9160648082019260009290919082900301818387803b15801561353257600080fd5b6000613c2261520c565b3d8015613c365760208114613c3f57600080fd5b60019250613c4a565b60206000833e815192505b5081610d52576040805162461bcd60e51b8152602060048201526005602482015264045524332360dc1b604482015290519081900360640190fd5b60006103ae826129cd6301da9c0081886129c789670de0b6b3a76400006135e8565b606060108260ff161115613cba57600080fd5b6000613cc461439c565b6001600160a01b038516600090815260208290526040812091925060ff851667ffffffffffffffff81118015613cf957600080fd5b50604051908082528060200260200182016040528015613d3357816020015b613d206151a2565b815260200190600190039081613d185790505b50905060005b8560ff16811015613dbf576000838260108110613d5257fe5b0190506000838381518110613d6357fe5b602090810291909101810151835461ffff8116825264ffffffffff620100008204169282019290925260ff600160381b8304166040820152600160401b909104600a90810b900b60608201526080019190915250600101613d39565b5095945050505050565b805160008167ffffffffffffffff81118015613de457600080fd5b50604051908082528060200260200182016040528015613e0e578160200160208202803683370190505b50905060005b82811015613e6b576000848281518110613e2a57fe5b60200260200101519050613e4b8160000151826020015183604001516143a9565b838381518110613e5757fe5b602090810291909101015250600101613e14565b5060015b82811015611eeb57805b600081118015613eb15750828181518110613e9057fe5b6020026020010151836001830381518110613ea757fe5b6020026020010151115b15613f7957828181518110613ec257fe5b6020026020010151836001830381518110613ed957fe5b6020026020010151846001840381518110613ef057fe5b60200260200101858481518110613f0357fe5b6020026020010182815250828152505050848181518110613f2057fe5b6020026020010151856001830381518110613f3757fe5b6020026020010151866001840381518110613f4e57fe5b60200260200101878481518110613f6157fe5b60209081029190910101919091525260001901613e79565b50600101613e6f565b6000806000613f8f614404565b600094855260205250506040909120546001600160a01b03811692600160a01b90910460ff169150565b60008061043c60096122bf565b613fd38787878685614411565b613fec8760e001518860a001518960c0015185886144cc565b60c090970196909652505050505050565b6000677fffffffffffffff82111561401457600080fd5b5060401b90565b600081600f0b6000141561402e57600080fd5b600082600f0b604085600f0b901b8161404357fe5b05905060016001607f1b03198112801590614065575060016001607f1b038113155b61085557600080fd5b6000600f82900b60016001607f1b0319141561408957600080fd5b5060000390565b6000600160461b82600f0b126140a557600080fd5b683fffffffffffffffff1982600f0b12156140c257506000610d02565b61043c608083600f0b700171547652b82fe1777d0ffda0d23a7d1202901d614551565b6000600f83810b9083900b0260401d60016001607f1b03198112801590614065575060016001607f1b0381131561085557600080fd5b600f0b60401d90565b600080600085116141475760405162461bcd60e51b815260040161035a90615707565b60078511156141685760405162461bcd60e51b815260040161035a906157ba565b600061417384612bd7565b905060015b8681116141cb57600061419461418d83612da1565b84906136a8565b9050868114156141ac5750925060009150611aab9050565b868111156141c25750925060019150611aab9050565b50600101614178565b5060405162461bcd60e51b815260040161035a9061588f565b6000806141ef615003565b905060006276a70061420085612bd7565b6000898152602085815260408083208b84528252808320949093018083529390522080549192509063ffffffff600160a01b8204811691600160c01b8104821691600160e01b90910416816142675760405162461bcd60e51b815260040161035a90615699565b6142748184848c8c6144cc565b9b9a5050505050505050505050565b80516000906001600160a01b031661429d57506000610d02565b600082600001516001600160a01b031663dd30a6666040518163ffffffff1660e01b815260040160206040518083038186803b1580156142dc57600080fd5b505afa1580156142f0573d6000803e3d6000fd5b505050506040513d601f19601f8201168201806040525081019061085591906152b8565b600081861061432257600080fd5b84821061432e57600080fd5b8383106143545761434d84612c3b8888036129cd8388038b88036135e8565b9050610547565b61434d61436b8787036129cd8688038a87036135e8565b8590612247565b606001516207a12060289190911c60ff160290565b606001516207a12060209190911c60ff160290565b60008061043c600d6122bf565b6000613fff8411156143ba57600080fd5b64ffffffffff8311156143cc57600080fd5b60088211156143da57600080fd5b5067ffff000000000000603084901b1665ffffffffff00600884901b161760ff8216179392505050565b60008061043c600f6122bf565b600061441b615003565b6000868152602082815260408083208884528252808320868452825291829020808a5290890187905280546001600160501b03808216938b0193909352600160501b810490921660608a015263ffffffff600160a01b8304811660a08b0152600160c01b8304811660c08b0152600160e01b90920490911660e08901529091508084156144ba5760018201546001600160501b031660808901526144c2565b600060808901525b5050505050505050565b60008083116144da57600080fd5b818611156144e9575083610547565b60006144f58388612247565b9050838111156145085785915050610547565b600061451c856129cd84633b9aca006135e8565b9050600061452e633b9aca0083612247565b905060006107c3633b9aca006129cd6145478b866135e8565b612c3b8d886135e8565b6000600160461b82600f0b1261456657600080fd5b683fffffffffffffffff1982600f0b121561458357506000610d02565b6001607f1b60006780000000000000008416600f0b13156145b55770016a09e667f3bcc908b2fb1366ea957d3e0260801c5b60008367400000000000000016600f0b13156145e2577001306fe0a31b7152de8d5a46305c85edec0260801c5b60008367200000000000000016600f0b131561460f577001172b83c7d517adcdf7c8c50eb14a791f0260801c5b60008367100000000000000016600f0b131561463c5770010b5586cf9890f6298b92b71842a983630260801c5b60008367080000000000000016600f0b1315614669577001059b0d31585743ae7c548eb68ca417fd0260801c5b60008367040000000000000016600f0b131561469657700102c9a3e778060ee6f7caca4f7a29bde80260801c5b60008367020000000000000016600f0b13156146c35770010163da9fb33356d84a66ae336dcdfa3f0260801c5b600083600160381b16600f0b13156146ec57700100b1afa5abcbed6129ab13ec11dc95430260801c5b600083668000000000000016600f0b13156147185770010058c86da1c09ea1ff19d294cf2f679b0260801c5b600083664000000000000016600f0b1315614744577001002c605e2e8cec506d21bfc89a23a00f0260801c5b600083662000000000000016600f0b131561477057700100162f3904051fa128bca9c55c31e5df0260801c5b600083661000000000000016600f0b131561479c577001000b175effdc76ba38e31671ca9397250260801c5b600083660800000000000016600f0b13156147c857700100058ba01fb9f96d6cacd4b180917c3d0260801c5b600083660400000000000016600f0b13156147f45770010002c5cc37da9491d0985c348c68e7b30260801c5b600083660200000000000016600f0b1315614820577001000162e525ee054754457d59952920260260801c5b600083600160301b16600f0b13156148495770010000b17255775c040618bf4a4ade83fc0260801c5b6000836580000000000016600f0b1315614874577001000058b91b5bc9ae2eed81e9b7d4cfab0260801c5b6000836540000000000016600f0b131561489f57700100002c5c89d5ec6ca4d7c8acc017b7c90260801c5b6000836520000000000016600f0b13156148ca5770010000162e43f4f831060e02d839a9d16d0260801c5b6000836510000000000016600f0b13156148f557700100000b1721bcfc99d9f890ea069117630260801c5b6000836508000000000016600f0b13156149205770010000058b90cf1e6d97f9ca14dbcc16280260801c5b6000836504000000000016600f0b131561494b577001000002c5c863b73f016468f6bac5ca2b0260801c5b6000836502000000000016600f0b131561497657700100000162e430e5a18f6119e3c02282a50260801c5b6000836501000000000016600f0b13156149a1577001000000b1721835514b86e6d96efd1bfe0260801c5b60008364800000000016600f0b13156149cb57700100000058b90c0b48c6be5df846c5b2ef0260801c5b60008364400000000016600f0b13156149f55770010000002c5c8601cc6b9e94213c72737a0260801c5b60008364200000000016600f0b1315614a1f577001000000162e42fff037df38aa2b219f060260801c5b60008364100000000016600f0b1315614a495770010000000b17217fba9c739aa5819f44f90260801c5b60008364080000000016600f0b1315614a73577001000000058b90bfcdee5acd3c1cedc8230260801c5b60008364040000000016600f0b1315614a9d57700100000002c5c85fe31f35a6a30da1be500260801c5b60008364020000000016600f0b1315614ac75770010000000162e42ff0999ce3541b9fffcf0260801c5b60008364010000000016600f0b1315614af157700100000000b17217f80f4ef5aadda455540260801c5b600083638000000016600f0b1315614b1a5770010000000058b90bfbf8479bd5a81b51ad0260801c5b600083634000000016600f0b1315614b43577001000000002c5c85fdf84bd62ae30a74cc0260801c5b600083632000000016600f0b1315614b6c57700100000000162e42fefb2fed257559bdaa0260801c5b600083631000000016600f0b1315614b95577001000000000b17217f7d5a7716bba4a9ae0260801c5b600083630800000016600f0b1315614bbe57700100000000058b90bfbe9ddbac5e109cce0260801c5b600083630400000016600f0b1315614be75770010000000002c5c85fdf4b15de6f17eb0d0260801c5b600083630200000016600f0b1315614c10577001000000000162e42fefa494f1478fde050260801c5b600083630100000016600f0b1315614c395770010000000000b17217f7d20cf927c8e94c0260801c5b6000836280000016600f0b1315614c61577001000000000058b90bfbe8f71cb4e4b33d0260801c5b6000836240000016600f0b1315614c8957700100000000002c5c85fdf477b662b269450260801c5b6000836220000016600f0b1315614cb15770010000000000162e42fefa3ae53369388c0260801c5b6000836210000016600f0b1315614cd957700100000000000b17217f7d1d351a389d400260801c5b6000836208000016600f0b1315614d015770010000000000058b90bfbe8e8b2d3d4ede0260801c5b6000836204000016600f0b1315614d29577001000000000002c5c85fdf4741bea6e77e0260801c5b6000836202000016600f0b1315614d5157700100000000000162e42fefa39fe95583c20260801c5b6000836201000016600f0b1315614d79577001000000000000b17217f7d1cfb72b45e10260801c5b60008361800016600f0b1315614da057700100000000000058b90bfbe8e7cc35c3f00260801c5b60008361400016600f0b1315614dc75770010000000000002c5c85fdf473e242ea380260801c5b60008361200016600f0b1315614dee577001000000000000162e42fefa39f02b772c0260801c5b60008361100016600f0b1315614e155770010000000000000b17217f7d1cf7d83c1a0260801c5b60008361080016600f0b1315614e3c577001000000000000058b90bfbe8e7bdcbe2e0260801c5b60008361040016600f0b1315614e6357700100000000000002c5c85fdf473dea871f0260801c5b60008361020016600f0b1315614e8a5770010000000000000162e42fefa39ef44d910260801c5b60008361010016600f0b1315614eb157700100000000000000b17217f7d1cf79e9490260801c5b600083608016600f0b1315614ed75770010000000000000058b90bfbe8e7bce5440260801c5b600083604016600f0b1315614efd577001000000000000002c5c85fdf473de6eca0260801c5b600083602016600f0b1315614f2357700100000000000000162e42fefa39ef366f0260801c5b600083601016600f0b1315614f49577001000000000000000b17217f7d1cf79afa0260801c5b600083600816600f0b1315614f6f57700100000000000000058b90bfbe8e7bcd6d0260801c5b600083600416600f0b1315614f955770010000000000000002c5c85fdf473de6b20260801c5b600083600216600f0b1315614fbb577001000000000000000162e42fefa39ef3580260801c5b600083600116600f0b1315614fe15770010000000000000000b17217f7d1cf79ab0260801c5b600f83810b60401d603f03900b1c60016001607f1b0381111561043c57600080fd5b60008061043c600a6122bf565b604051806101200160405280600061ffff16815260200160008152602001600081526020016000815260200160008152602001600081526020016000815260200160008152602001600081525090565b6040518060e00160405280615073615106565b815260200161508061517a565b815260006020820181905260408201819052606082018190526080820181905260a09091015290565b6040805160a08101825260008082526020820181905291810182905260608101829052608081019190915290565b6040805160a0810182526000808252602082018190529181018290529060608201908152602001600081525090565b60408051608081018252600080825260208201529081016151256151e2565b8152600060209091015290565b60405180610100016040528060008019168152602001600081526020016000815260200160008152602001600081526020016000815260200160008152602001600081525090565b6040518060800160405280606081526020016060815260200160008152602001600081525090565b6040518060c001604052806000815260200160008152602001600081526020016000815260200160008152602001600060038111156151dd57fe5b905290565b604051806060016040528060006001600160a01b0316815260200160008152602001600081525090565b60405180602001604052806001906020820280368337509192915050565b80356001600160a01b0381168114610d0257600080fd5b80516001600160701b031981168114610d0257600080fd5b8051610d02816158d0565b805160ff81168114610d0257600080fd5b600060208284031215615286578081fd5b6108558261522a565b600080604083850312156152a1578081fd5b6152aa8361522a565b946020939093013593505050565b6000602082840312156152c9578081fd5b5051919050565b600060a082840312156152e1578081fd5b60405160a0810181811067ffffffffffffffff821117156152fe57fe5b604052825164ffffffffff81168114615315578283fd5b815260208301516001600160f81b031981168114615331578283fd5b602082015261534260408401615264565b604082015261535360608401615259565b606082015261536460808401615241565b60808201529392505050565b600060208284031215615381578081fd5b8135610855816158d0565b6000806040838503121561539e578182fd5b82356153a9816158d0565b9150612cd86020840161522a565b6000806000606084860312156153cb578081fd5b83356153d6816158d0565b92506153e46020850161522a565b91506153f26040850161522a565b90509250925092565b600080600080600060a08688031215615412578081fd5b853561541d816158d0565b945061542b6020870161522a565b93506154396040870161522a565b92506154476060870161522a565b949793965091946080013592915050565b6000806000806080858703121561546d578384fd5b8435615478816158d0565b93506154866020860161522a565b92506154946040860161522a565b9396929550929360600135925050565b6000806000606084860312156154b8578283fd5b83356154c3816158d0565b9250602084013591506153f26040850161522a565b600080600080608085870312156154ed578081fd5b84356154f8816158d0565b93506020850135925061550d6040860161522a565b915061551b6060860161522a565b905092959194509250565b6001600160a01b0391909116815260200190565b6001600160a01b0395861681529385166020850152918416604084015283166060830152909116608082015260a00190565b6001600160a01b03929092168252805164ffffffffff166020808401919091528101516001600160f81b03191660408084019190915281015160ff1660608084019190915281015161ffff1660808084019190915201516001600160701b03191660a082015260c00190565b6001600160a01b0396909616865261ffff94909416602086015260408501929092526060840152608083015260a082015260c00190565b6001600160a01b0393841681526020810192909252909116604082015260600190565b6001600160a01b03948516815260208101939093529216604082015261ffff909116606082015260800190565b6001600160a01b0394909416845260208401929092526040830152606082015260800190565b901515815260200190565b90815260200190565b60208082526016908201527513585c9ad95d081b9bdd081a5b9a5d1a585b1a5e995960521b604082015260600190565b602080825260049082015263135a5b9d60e21b604082015260600190565b60208082526006908201526552656465656d60d01b604082015260600190565b60208082526015908201527410d1ce881b9bc81b585c9ad95d1cc81b1a5cdd1959605a1b604082015260600190565b6020808252600d908201526c092dcecc2d8d2c840d2dcc8caf609b1b604082015260600190565b602080825260169082015275496e73756666696369656e7420616c6c6f77616e636560501b604082015260600190565b6020808252601390820152722ab730baba3437b934bd32b21031b0b63632b960691b604082015260600190565b60208082526016908201527510d1ce881b585c9ad95d081a5b99195e08189bdd5b9960521b604082015260600190565b6020808252600e908201526d125b9d985b1a59081b585c9ad95d60921b604082015260600190565b60208082526008908201526709ccace4086c2e6d60c31b604082015260600190565b60208082526017908201527f43616e6e6f74207472616e7366657220746f2073656c66000000000000000000604082015260600190565b6020808252600a90820152692732b390372a37b5b2b760b11b604082015260600190565b60208082526013908201527210d1ce881b9bc81b585c9ad95d08199bdd5b99606a1b604082015260600190565b61ffff929092168252602082015260400190565b61ffff811681146158e057600080fd5b5056fe536166654d6174683a206d756c7469706c69636174696f6e206f766572666c6f77a264697066735822122062f58c809cfd50614d3d7a2a990d8659c99b2c37b861b25d58e29c5ee350cdaa64736f6c63430007060033","language":"Solidity","natspec":{"methods":{"nTokenBalanceOf(uint16,address)":{"notice":"Get the number of tokens held by the `account`","params":{"account":"The address of the account to get the balance of"},"returns":{"_0":"The number of tokens held"}},"nTokenClaimIncentives()":{"notice":"Claims incentives accrued on all nToken balances and transfers them to the msg.sender","details":"auth:msg.sender","returns":{"_0":"Total amount of incentives claimed"}},"nTokenTotalSupply(address)":{"notice":"Total number of tokens in circulation","params":{"nTokenAddress":"The address of the nToken"},"returns":{"totalSupply":"number of tokens held"}},"nTokenTransfer(uint16,address,address,uint256)":{"notice":"Transfer `amount` tokens from `msg.sender` to `dst`","details":"auth:nTokenProxy","params":{"amount":"The number of tokens to transfer","from":"The address of the destination account","to":"The address of the destination account"},"returns":{"_0":"Whether or not the transfer succeeded"}},"nTokenTransferAllowance(uint16,address,address)":{"notice":"Get the number of tokens `spender` is approved to spend on behalf of `account`","params":{"currencyId":"Currency id of the nToken account","spender":"The address of the account spending the funds","tokenHolder":"The address of the account holding the funds"},"returns":{"_0":"The number of tokens approved"}},"nTokenTransferApprove(uint16,address,address,uint256)":{"notice":"Approve `spender` to transfer up to `amount` from `src`","details":"auth:nTokenProxy","params":{"amount":"The number of tokens that are approved (2^256-1 means infinite)","currencyId":"Currency id of the nToken account","spender":"The address of the account which may transfer tokens","tokenHolder":"The address of the account holding the funds"},"returns":{"_0":"Whether or not the approval succeeded"}},"nTokenTransferApproveAll(address,uint256)":{"notice":"Will approve all nToken transfers to the specific sender. This is used for simplifying UX, a user can approve all token transfers to an external exchange or protocol in a single txn. This must be called directly on the Notional contract, not available via the ERC20 proxy.","details":"emit:Approvalauth:msg.sender","params":{"amount":"The number of tokens that are approved","spender":"The address of the account which may transfer tokens"},"returns":{"_0":"Whether or not the approval succeeded"}},"nTokenTransferFrom(uint16,address,address,address,uint256)":{"notice":"Transfer `amount` tokens from `src` to `dst`","details":"auth:nTokenProxy","params":{"amount":"The number of tokens to transfer","currencyId":"Currency id of the nToken","from":"The address of the source account","spender":"The address of the original caller","to":"The address of the destination account"},"returns":{"_0":"Whether or not the transfer succeeded"}},"getLibInfo()":{"notice":"Get a list of deployed library addresses (sorted by library name)"},"nTokenPresentValueUnderlyingExternal(uint16)":{"notice":"Returns the present value of the nToken's assets denominated in the underlying's native token precision"},"nTokenPresentValueUnderlyingDenominated(uint16)":{"notice":"Returns the present value of the nToken's assets denominated in underlying"},"nTokenMintViaProxy(uint16,uint256,address)":{"notice":"Mints nTokens via the ERC4626 proxy which means that the proxy will have transferred underlying tokens to Notional before this method is called."},"nTokenPresentValueAssetDenominated(uint16)":{"notice":"Returns the present value of the nToken's assets denominated in asset tokens"},"nTokenRedeemViaProxy(uint16,uint256,address,address)":{"notice":"Redeems nTokens via the ERC4626 proxy which means that the shares (nTokens to redeem) are always redeemed to underlying (reverting on residuals) and transferred back to the owner. Due to how BalanceState.finalize is structured, we do not handle cases where receiver != owner."}},"kind":"dev","version":1},"opcodes":"PUSH1 0x80 PUSH1 0x40 MSTORE PUSH1 0x4 CALLDATASIZE LT PUSH2 0xFE JUMPI PUSH1 0x0 CALLDATALOAD PUSH1 0xE0 SHR DUP1 PUSH4 0x6A96E86F GT PUSH2 0x95 JUMPI DUP1 PUSH4 0x8A0107BE GT PUSH2 0x64 JUMPI DUP1 PUSH4 0x8A0107BE EQ PUSH2 0x29D JUMPI DUP1 PUSH4 0x8DA5CB5B EQ PUSH2 0x2B0 JUMPI DUP1 PUSH4 0xA78DBFFF EQ PUSH2 0x2C5 JUMPI DUP1 PUSH4 0xC4C96DAE EQ PUSH2 0x2E5 JUMPI DUP1 PUSH4 0xDACA07A6 EQ PUSH2 0x30B JUMPI PUSH2 0xFE JUMP JUMPDEST DUP1 PUSH4 0x6A96E86F EQ PUSH2 0x228 JUMPI DUP1 PUSH4 0x7DB31AB9 EQ PUSH2 0x248 JUMPI DUP1 PUSH4 0x82463367 EQ PUSH2 0x268 JUMPI DUP1 PUSH4 0x884A7092 EQ PUSH2 0x27D JUMPI PUSH2 0xFE JUMP JUMPDEST DUP1 PUSH4 0x309C00A6 GT PUSH2 0xD1 JUMPI DUP1 PUSH4 0x309C00A6 EQ PUSH2 0x1A8 JUMPI DUP1 PUSH4 0x3B2987B3 EQ PUSH2 0x1C8 JUMPI DUP1 PUSH4 0x4CB6B359 EQ PUSH2 0x1E8 JUMPI DUP1 PUSH4 0x63C29832 EQ PUSH2 0x208 JUMPI PUSH2 0xFE JUMP JUMPDEST DUP1 PUSH4 0x18AE40D7 EQ PUSH2 0x103 JUMPI DUP1 PUSH4 0x1A05BCE1 EQ PUSH2 0x139 JUMPI DUP1 PUSH4 0x24A3D622 EQ PUSH2 0x166 JUMPI DUP1 PUSH4 0x2E0ECBA8 EQ PUSH2 0x188 JUMPI JUMPDEST PUSH1 0x0 DUP1 REVERT JUMPDEST CALLVALUE DUP1 ISZERO PUSH2 0x10F JUMPI PUSH1 0x0 DUP1 REVERT JUMPDEST POP PUSH2 0x123 PUSH2 0x11E CALLDATASIZE PUSH1 0x4 PUSH2 0x5458 JUMP JUMPDEST PUSH2 0x320 JUMP JUMPDEST PUSH1 0x40 MLOAD PUSH2 0x130 SWAP2 SWAP1 PUSH2 0x5685 JUMP JUMPDEST PUSH1 0x40 MLOAD DUP1 SWAP2 SUB SWAP1 RETURN JUMPDEST CALLVALUE DUP1 ISZERO PUSH2 0x145 JUMPI PUSH1 0x0 DUP1 REVERT JUMPDEST POP PUSH2 0x159 PUSH2 0x154 CALLDATASIZE PUSH1 0x4 PUSH2 0x5370 JUMP JUMPDEST PUSH2 0x3B6 JUMP JUMPDEST PUSH1 0x40 MLOAD PUSH2 0x130 SWAP2 SWAP1 PUSH2 0x5690 JUMP JUMPDEST CALLVALUE DUP1 ISZERO PUSH2 0x172 JUMPI PUSH1 0x0 DUP1 REVERT JUMPDEST POP PUSH2 0x17B PUSH2 0x3C8 JUMP JUMPDEST PUSH1 0x40 MLOAD PUSH2 0x130 SWAP2 SWAP1 PUSH2 0x5526 JUMP JUMPDEST CALLVALUE DUP1 ISZERO PUSH2 0x194 JUMPI PUSH1 0x0 DUP1 REVERT JUMPDEST POP PUSH2 0x123 PUSH2 0x1A3 CALLDATASIZE PUSH1 0x4 PUSH2 0x528F JUMP JUMPDEST PUSH2 0x3D7 JUMP JUMPDEST CALLVALUE DUP1 ISZERO PUSH2 0x1B4 JUMPI PUSH1 0x0 DUP1 REVERT JUMPDEST POP PUSH2 0x123 PUSH2 0x1C3 CALLDATASIZE PUSH1 0x4 PUSH2 0x5458 JUMP JUMPDEST PUSH2 0x442 JUMP JUMPDEST CALLVALUE DUP1 ISZERO PUSH2 0x1D4 JUMPI PUSH1 0x0 DUP1 REVERT JUMPDEST POP PUSH2 0x159 PUSH2 0x1E3 CALLDATASIZE PUSH1 0x4 PUSH2 0x5370 JUMP JUMPDEST PUSH2 0x4CE JUMP JUMPDEST CALLVALUE DUP1 ISZERO PUSH2 0x1F4 JUMPI PUSH1 0x0 DUP1 REVERT JUMPDEST POP PUSH2 0x159 PUSH2 0x203 CALLDATASIZE PUSH1 0x4 PUSH2 0x5370 JUMP JUMPDEST PUSH2 0x4F1 JUMP JUMPDEST CALLVALUE DUP1 ISZERO PUSH2 0x214 JUMPI PUSH1 0x0 DUP1 REVERT JUMPDEST POP PUSH2 0x159 PUSH2 0x223 CALLDATASIZE PUSH1 0x4 PUSH2 0x54D8 JUMP JUMPDEST PUSH2 0x550 JUMP JUMPDEST CALLVALUE DUP1 ISZERO PUSH2 0x234 JUMPI PUSH1 0x0 DUP1 REVERT JUMPDEST POP PUSH2 0x159 PUSH2 0x243 CALLDATASIZE PUSH1 0x4 PUSH2 0x5275 JUMP JUMPDEST PUSH2 0x7D1 JUMP JUMPDEST CALLVALUE DUP1 ISZERO PUSH2 0x254 JUMPI PUSH1 0x0 DUP1 REVERT JUMPDEST POP PUSH2 0x159 PUSH2 0x263 CALLDATASIZE PUSH1 0x4 PUSH2 0x53B7 JUMP JUMPDEST PUSH2 0x7E5 JUMP JUMPDEST CALLVALUE DUP1 ISZERO PUSH2 0x274 JUMPI PUSH1 0x0 DUP1 REVERT JUMPDEST POP PUSH2 0x17B PUSH2 0x85C JUMP JUMPDEST CALLVALUE DUP1 ISZERO PUSH2 0x289 JUMPI PUSH1 0x0 DUP1 REVERT JUMPDEST POP PUSH2 0x123 PUSH2 0x298 CALLDATASIZE PUSH1 0x4 PUSH2 0x53FB JUMP JUMPDEST PUSH2 0x86B JUMP JUMPDEST PUSH2 0x159 PUSH2 0x2AB CALLDATASIZE PUSH1 0x4 PUSH2 0x54A4 JUMP JUMPDEST PUSH2 0x9FD JUMP JUMPDEST CALLVALUE DUP1 ISZERO PUSH2 0x2BC JUMPI PUSH1 0x0 DUP1 REVERT JUMPDEST POP PUSH2 0x17B PUSH2 0xB74 JUMP JUMPDEST CALLVALUE DUP1 ISZERO PUSH2 0x2D1 JUMPI PUSH1 0x0 DUP1 REVERT JUMPDEST POP PUSH2 0x159 PUSH2 0x2E0 CALLDATASIZE PUSH1 0x4 PUSH2 0x538C JUMP JUMPDEST PUSH2 0xB8B JUMP JUMPDEST CALLVALUE DUP1 ISZERO PUSH2 0x2F1 JUMPI PUSH1 0x0 DUP1 REVERT JUMPDEST POP PUSH2 0x2FA PUSH2 0xBAA JUMP JUMPDEST PUSH1 0x40 MLOAD PUSH2 0x130 SWAP6 SWAP5 SWAP4 SWAP3 SWAP2 SWAP1 PUSH2 0x553A JUMP JUMPDEST CALLVALUE DUP1 ISZERO PUSH2 0x317 JUMPI PUSH1 0x0 DUP1 REVERT JUMPDEST POP PUSH2 0x159 PUSH2 0xC1A JUMP JUMPDEST PUSH1 0x0 DUP1 PUSH2 0x330 DUP7 PUSH2 0xFFFF AND PUSH2 0xCDA JUMP JUMPDEST SWAP1 POP CALLER PUSH1 0x1 PUSH1 0x1 PUSH1 0xA0 SHL SUB DUP3 AND EQ PUSH2 0x363 JUMPI PUSH1 0x40 MLOAD PUSH3 0x461BCD PUSH1 0xE5 SHL DUP2 MSTORE PUSH1 0x4 ADD PUSH2 0x35A SWAP1 PUSH2 0x578D JUMP JUMPDEST PUSH1 0x40 MLOAD DUP1 SWAP2 SUB SWAP1 REVERT JUMPDEST DUP4 PUSH1 0x1 PUSH1 0x1 PUSH1 0xA0 SHL SUB AND DUP6 PUSH1 0x1 PUSH1 0x1 PUSH1 0xA0 SHL SUB AND EQ ISZERO PUSH2 0x395 JUMPI PUSH1 0x40 MLOAD PUSH3 0x461BCD PUSH1 0xE5 SHL DUP2 MSTORE PUSH1 0x4 ADD PUSH2 0x35A SWAP1 PUSH2 0x5834 JUMP JUMPDEST PUSH2 0x39E DUP5 PUSH2 0xD07 JUMP JUMPDEST PUSH2 0x3AA DUP7 DUP7 DUP7 DUP7 PUSH2 0xD56 JUMP JUMPDEST SWAP2 POP POP JUMPDEST SWAP5 SWAP4 POP POP POP POP JUMP JUMPDEST PUSH1 0x0 PUSH2 0x3C1 DUP3 PUSH2 0xF11 JUMP JUMPDEST POP SWAP3 SWAP2 POP POP JUMP JUMPDEST PUSH1 0x2 SLOAD PUSH1 0x1 PUSH1 0x1 PUSH1 0xA0 SHL SUB AND DUP2 JUMP JUMPDEST CALLER PUSH1 0x0 DUP2 DUP2 MSTORE PUSH1 0x4 PUSH1 0x20 SWAP1 DUP2 MSTORE PUSH1 0x40 DUP1 DUP4 KECCAK256 PUSH1 0x1 PUSH1 0x1 PUSH1 0xA0 SHL SUB DUP8 AND DUP1 DUP6 MSTORE SWAP3 MSTORE DUP1 DUP4 KECCAK256 DUP6 SWAP1 SSTORE MLOAD SWAP2 SWAP3 SWAP1 SWAP2 PUSH32 0x822CA733B0E03E3B0CBC1E998614C93CB0AA4A896EA2BDCEFF5071098B4C9076 SWAP1 PUSH2 0x430 SWAP1 DUP7 SWAP1 PUSH2 0x5690 JUMP JUMPDEST PUSH1 0x40 MLOAD DUP1 SWAP2 SUB SWAP1 LOG3 POP PUSH1 0x1 JUMPDEST SWAP3 SWAP2 POP POP JUMP JUMPDEST PUSH1 0x0 DUP1 PUSH2 0x452 DUP7 PUSH2 0xFFFF AND PUSH2 0xCDA JUMP JUMPDEST SWAP1 POP CALLER PUSH1 0x1 PUSH1 0x1 PUSH1 0xA0 SHL SUB DUP3 AND EQ PUSH2 0x47C JUMPI PUSH1 0x40 MLOAD PUSH3 0x461BCD PUSH1 0xE5 SHL DUP2 MSTORE PUSH1 0x4 ADD PUSH2 0x35A SWAP1 PUSH2 0x578D JUMP JUMPDEST PUSH1 0x1 PUSH1 0x1 PUSH1 0xA0 SHL SUB DUP6 AND PUSH2 0x48F JUMPI PUSH1 0x0 DUP1 REVERT JUMPDEST POP POP PUSH1 0x1 PUSH1 0x1 PUSH1 0xA0 SHL SUB SWAP3 DUP4 AND PUSH1 0x0 SWAP1 DUP2 MSTORE PUSH1 0x5 PUSH1 0x20 SWAP1 DUP2 MSTORE PUSH1 0x40 DUP1 DUP4 KECCAK256 SWAP5 SWAP1 SWAP6 AND DUP3 MSTORE SWAP3 DUP4 MSTORE DUP4 DUP2 KECCAK256 PUSH2 0xFFFF SWAP6 SWAP1 SWAP6 AND DUP2 MSTORE SWAP4 SWAP1 SWAP2 MSTORE SWAP2 KECCAK256 SSTORE PUSH1 0x1 SWAP1 JUMP JUMPDEST PUSH1 0x0 DUP1 PUSH1 0x0 PUSH2 0x4DC DUP5 PUSH2 0xF11 JUMP JUMPDEST DUP1 MLOAD PUSH1 0x40 ADD MLOAD SWAP2 SWAP4 POP SWAP2 POP PUSH2 0x3AE SWAP1 DUP4 PUSH2 0xF36 JUMP JUMPDEST PUSH1 0x0 DUP1 PUSH1 0x0 PUSH2 0x4FF DUP5 PUSH2 0xF11 JUMP JUMPDEST SWAP2 POP SWAP2 POP PUSH1 0x0 DUP2 PUSH1 0x0 ADD MLOAD PUSH1 0x40 ADD MLOAD SWAP1 POP PUSH2 0x547 PUSH2 0x542 PUSH4 0x5F5E100 PUSH2 0x53C DUP5 PUSH1 0x40 ADD MLOAD PUSH2 0x536 DUP9 DUP8 PUSH2 0xF36 SWAP1 SWAP2 SWAP1 PUSH4 0xFFFFFFFF AND JUMP JUMPDEST SWAP1 PUSH2 0xF61 JUMP JUMPDEST SWAP1 PUSH2 0xFAF JUMP JUMPDEST PUSH2 0xFE0 JUMP JUMPDEST SWAP6 SWAP5 POP POP POP POP POP JUMP JUMPDEST PUSH1 0x0 DUP1 PUSH2 0x560 DUP7 PUSH2 0xFFFF AND PUSH2 0xCDA JUMP JUMPDEST SWAP1 POP CALLER PUSH1 0x1 PUSH1 0x1 PUSH1 0xA0 SHL SUB DUP3 AND EQ DUP1 ISZERO PUSH2 0x58B JUMPI POP DUP3 PUSH1 0x1 PUSH1 0x1 PUSH1 0xA0 SHL SUB AND DUP5 PUSH1 0x1 PUSH1 0x1 PUSH1 0xA0 SHL SUB AND EQ JUMPDEST PUSH2 0x5A7 JUMPI PUSH1 0x40 MLOAD PUSH3 0x461BCD PUSH1 0xE5 SHL DUP2 MSTORE PUSH1 0x4 ADD PUSH2 0x35A SWAP1 PUSH2 0x578D JUMP JUMPDEST PUSH1 0x0 PUSH2 0x5B2 DUP7 PUSH2 0xFF3 JUMP JUMPDEST SWAP1 POP PUSH2 0x5BC PUSH2 0x5010 JUMP JUMPDEST PUSH1 0x0 PUSH2 0x5C7 DUP7 PUSH2 0x1009 JUMP JUMPDEST SWAP1 POP PUSH2 0x5D2 DUP2 PUSH2 0x10AA JUMP JUMPDEST ISZERO PUSH2 0x663 JUMPI PUSH1 0x40 MLOAD PUSH4 0x37B5FC21 PUSH1 0xE1 SHL DUP2 MSTORE PUSH20 0x0 SWAP1 PUSH4 0x6F6BF842 SWAP1 PUSH2 0x610 SWAP1 DUP10 SWAP1 DUP6 SWAP1 PUSH1 0x4 ADD PUSH2 0x556C JUMP JUMPDEST PUSH1 0xA0 PUSH1 0x40 MLOAD DUP1 DUP4 SUB DUP2 DUP7 DUP1 EXTCODESIZE ISZERO DUP1 ISZERO PUSH2 0x628 JUMPI PUSH1 0x0 DUP1 REVERT JUMPDEST POP GAS DELEGATECALL ISZERO DUP1 ISZERO PUSH2 0x63C JUMPI RETURNDATASIZE PUSH1 0x0 DUP1 RETURNDATACOPY RETURNDATASIZE PUSH1 0x0 REVERT JUMPDEST POP POP POP POP PUSH1 0x40 MLOAD RETURNDATASIZE PUSH1 0x1F NOT PUSH1 0x1F DUP3 ADD AND DUP3 ADD DUP1 PUSH1 0x40 MSTORE POP DUP2 ADD SWAP1 PUSH2 0x660 SWAP2 SWAP1 PUSH2 0x52D0 JUMP JUMPDEST SWAP1 POP JUMPDEST PUSH2 0x66F DUP3 DUP8 DUP12 DUP5 PUSH2 0x10FE JUMP JUMPDEST PUSH1 0xC0 DUP3 ADD MLOAD PUSH2 0x67E SWAP1 DUP5 PUSH2 0x11A4 JUMP JUMPDEST PUSH1 0xC0 DUP4 ADD MSTORE PUSH1 0x40 MLOAD PUSH4 0x52E73F77 PUSH1 0xE0 SHL DUP2 MSTORE PUSH1 0x0 SWAP1 PUSH20 0x0 SWAP1 PUSH4 0x52E73F77 SWAP1 PUSH2 0x6BF SWAP1 DUP14 SWAP1 DUP9 SWAP1 PUSH1 0x4 ADD PUSH2 0x58BC JUMP JUMPDEST PUSH1 0x20 PUSH1 0x40 MLOAD DUP1 DUP4 SUB DUP2 DUP7 DUP1 EXTCODESIZE ISZERO DUP1 ISZERO PUSH2 0x6D7 JUMPI PUSH1 0x0 DUP1 REVERT JUMPDEST POP GAS DELEGATECALL ISZERO DUP1 ISZERO PUSH2 0x6EB JUMPI RETURNDATASIZE PUSH1 0x0 DUP1 RETURNDATACOPY RETURNDATASIZE PUSH1 0x0 REVERT JUMPDEST POP POP POP POP PUSH1 0x40 MLOAD RETURNDATASIZE PUSH1 0x1F NOT PUSH1 0x1F DUP3 ADD AND DUP3 ADD DUP1 PUSH1 0x40 MSTORE POP DUP2 ADD SWAP1 PUSH2 0x70F SWAP2 SWAP1 PUSH2 0x52B8 JUMP JUMPDEST PUSH1 0x60 DUP5 ADD DUP2 SWAP1 MSTORE SWAP1 POP PUSH2 0x721 DUP2 PUSH2 0x11BA JUMP JUMPDEST PUSH1 0x80 DUP5 ADD MSTORE PUSH2 0x733 DUP4 DUP9 DUP5 PUSH1 0x1 PUSH2 0x11C8 JUMP JUMPDEST POP PUSH2 0x73E DUP3 DUP9 PUSH2 0x1449 JUMP JUMPDEST PUSH1 0x20 DUP3 ADD MLOAD PUSH1 0x1 PUSH1 0x1 PUSH1 0xF8 SHL SUB NOT AND ISZERO PUSH2 0x7BA JUMPI PUSH1 0x40 MLOAD PUSH4 0x6CCC642F PUSH1 0xE0 SHL DUP2 MSTORE PUSH20 0x0 SWAP1 PUSH4 0x6CCC642F SWAP1 PUSH2 0x789 SWAP1 DUP11 SWAP1 PUSH1 0x4 ADD PUSH2 0x5526 JUMP JUMPDEST PUSH1 0x0 PUSH1 0x40 MLOAD DUP1 DUP4 SUB DUP2 DUP7 DUP1 EXTCODESIZE ISZERO DUP1 ISZERO PUSH2 0x7A1 JUMPI PUSH1 0x0 DUP1 REVERT JUMPDEST POP GAS DELEGATECALL ISZERO DUP1 ISZERO PUSH2 0x7B5 JUMPI RETURNDATASIZE PUSH1 0x0 DUP1 RETURNDATACOPY RETURNDATASIZE PUSH1 0x0 REVERT JUMPDEST POP POP POP POP JUMPDEST PUSH2 0x7C3 DUP2 PUSH2 0xFE0 JUMP JUMPDEST SWAP11 SWAP10 POP POP POP POP POP POP POP POP POP POP JUMP JUMPDEST PUSH1 0x0 PUSH2 0x7DC DUP3 PUSH2 0x154D JUMP JUMPDEST POP SWAP1 SWAP4 SWAP3 POP POP POP JUMP JUMPDEST PUSH1 0x1 PUSH1 0x1 PUSH1 0xA0 SHL SUB DUP1 DUP4 AND PUSH1 0x0 SWAP1 DUP2 MSTORE PUSH1 0x5 PUSH1 0x20 SWAP1 DUP2 MSTORE PUSH1 0x40 DUP1 DUP4 KECCAK256 SWAP4 DUP6 AND DUP4 MSTORE SWAP3 DUP2 MSTORE DUP3 DUP3 KECCAK256 PUSH2 0xFFFF DUP8 AND DUP4 MSTORE SWAP1 MSTORE SWAP1 DUP2 KECCAK256 SLOAD DUP1 ISZERO PUSH2 0x826 JUMPI SWAP1 POP PUSH2 0x855 JUMP JUMPDEST POP POP PUSH1 0x1 PUSH1 0x1 PUSH1 0xA0 SHL SUB DUP1 DUP4 AND PUSH1 0x0 SWAP1 DUP2 MSTORE PUSH1 0x4 PUSH1 0x20 SWAP1 DUP2 MSTORE PUSH1 0x40 DUP1 DUP4 KECCAK256 SWAP4 DUP6 AND DUP4 MSTORE SWAP3 SWAP1 MSTORE KECCAK256 SLOAD PUSH2 0x855 JUMP JUMPDEST POP JUMPDEST SWAP4 SWAP3 POP POP POP JUMP JUMPDEST PUSH1 0x1 SLOAD PUSH1 0x1 PUSH1 0x1 PUSH1 0xA0 SHL SUB AND DUP2 JUMP JUMPDEST PUSH1 0x0 DUP1 PUSH2 0x87B DUP8 PUSH2 0xFFFF AND PUSH2 0xCDA JUMP JUMPDEST SWAP1 POP CALLER PUSH1 0x1 PUSH1 0x1 PUSH1 0xA0 SHL SUB DUP3 AND EQ PUSH2 0x8A5 JUMPI PUSH1 0x40 MLOAD PUSH3 0x461BCD PUSH1 0xE5 SHL DUP2 MSTORE PUSH1 0x4 ADD PUSH2 0x35A SWAP1 PUSH2 0x578D JUMP JUMPDEST DUP4 PUSH1 0x1 PUSH1 0x1 PUSH1 0xA0 SHL SUB AND DUP6 PUSH1 0x1 PUSH1 0x1 PUSH1 0xA0 SHL SUB AND EQ ISZERO PUSH2 0x8D7 JUMPI PUSH1 0x40 MLOAD PUSH3 0x461BCD PUSH1 0xE5 SHL DUP2 MSTORE PUSH1 0x4 ADD PUSH2 0x35A SWAP1 PUSH2 0x5834 JUMP JUMPDEST PUSH2 0x8E0 DUP5 PUSH2 0xD07 JUMP JUMPDEST PUSH1 0x1 PUSH1 0x1 PUSH1 0xA0 SHL SUB DUP1 DUP7 AND PUSH1 0x0 SWAP1 DUP2 MSTORE PUSH1 0x5 PUSH1 0x20 SWAP1 DUP2 MSTORE PUSH1 0x40 DUP1 DUP4 KECCAK256 SWAP4 DUP11 AND DUP4 MSTORE SWAP3 DUP2 MSTORE DUP3 DUP3 KECCAK256 PUSH2 0xFFFF DUP12 AND DUP4 MSTORE SWAP1 MSTORE KECCAK256 SLOAD DUP1 ISZERO PUSH2 0x973 JUMPI DUP4 DUP2 LT ISZERO PUSH2 0x938 JUMPI PUSH1 0x40 MLOAD PUSH3 0x461BCD PUSH1 0xE5 SHL DUP2 MSTORE PUSH1 0x4 ADD PUSH2 0x35A SWAP1 PUSH2 0x575D JUMP JUMPDEST PUSH1 0x1 PUSH1 0x1 PUSH1 0xA0 SHL SUB DUP1 DUP8 AND PUSH1 0x0 SWAP1 DUP2 MSTORE PUSH1 0x5 PUSH1 0x20 SWAP1 DUP2 MSTORE PUSH1 0x40 DUP1 DUP4 KECCAK256 SWAP4 DUP12 AND DUP4 MSTORE SWAP3 DUP2 MSTORE DUP3 DUP3 KECCAK256 PUSH2 0xFFFF DUP13 AND DUP4 MSTORE SWAP1 MSTORE KECCAK256 DUP5 DUP3 SUB SWAP1 SSTORE PUSH2 0x9E5 JUMP JUMPDEST POP PUSH1 0x1 PUSH1 0x1 PUSH1 0xA0 SHL SUB DUP1 DUP7 AND PUSH1 0x0 SWAP1 DUP2 MSTORE PUSH1 0x4 PUSH1 0x20 SWAP1 DUP2 MSTORE PUSH1 0x40 DUP1 DUP4 KECCAK256 SWAP4 DUP11 AND DUP4 MSTORE SWAP3 SWAP1 MSTORE KECCAK256 SLOAD DUP4 DUP2 LT ISZERO PUSH2 0x9BA JUMPI PUSH1 0x40 MLOAD PUSH3 0x461BCD PUSH1 0xE5 SHL DUP2 MSTORE PUSH1 0x4 ADD PUSH2 0x35A SWAP1 PUSH2 0x575D JUMP JUMPDEST PUSH1 0x1 PUSH1 0x1 PUSH1 0xA0 SHL SUB DUP1 DUP8 AND PUSH1 0x0 SWAP1 DUP2 MSTORE PUSH1 0x4 PUSH1 0x20 SWAP1 DUP2 MSTORE PUSH1 0x40 DUP1 DUP4 KECCAK256 SWAP4 DUP12 AND DUP4 MSTORE SWAP3 SWAP1 MSTORE KECCAK256 DUP5 DUP3 SUB SWAP1 SSTORE JUMPDEST PUSH2 0x9F1 DUP9 DUP8 DUP8 DUP8 PUSH2 0xD56 JUMP JUMPDEST SWAP9 SWAP8 POP POP POP POP POP POP POP POP JUMP JUMPDEST PUSH1 0x0 DUP1 PUSH2 0xA0D DUP6 PUSH2 0xFFFF AND PUSH2 0xCDA JUMP JUMPDEST SWAP1 POP CALLER PUSH1 0x1 PUSH1 0x1 PUSH1 0xA0 SHL SUB DUP3 AND EQ PUSH2 0xA37 JUMPI PUSH1 0x40 MLOAD PUSH3 0x461BCD PUSH1 0xE5 SHL DUP2 MSTORE PUSH1 0x4 ADD PUSH2 0x35A SWAP1 PUSH2 0x578D JUMP JUMPDEST PUSH1 0x1 DUP6 PUSH2 0xFFFF AND EQ ISZERO PUSH2 0xA50 JUMPI CALLVALUE DUP5 EQ PUSH2 0xA50 JUMPI PUSH1 0x0 DUP1 REVERT JUMPDEST PUSH1 0x0 PUSH2 0xA5F DUP7 PUSH2 0xFFFF AND PUSH2 0x15A9 JUMP JUMPDEST SWAP1 POP PUSH1 0x0 PUSH1 0x4 DUP3 PUSH1 0x60 ADD MLOAD PUSH1 0x5 DUP2 GT ISZERO PUSH2 0xA75 JUMPI INVALID JUMPDEST EQ ISZERO PUSH2 0xA95 JUMPI PUSH2 0xA8E PUSH2 0xA87 DUP8 PUSH2 0xFF3 JUMP JUMPDEST DUP4 SWAP1 PUSH2 0x15BC JUMP JUMPDEST SWAP1 POP PUSH2 0xAA6 JUMP JUMPDEST PUSH2 0xAA3 PUSH2 0xA87 DUP4 DUP10 DUP10 PUSH2 0x15EC JUMP JUMPDEST SWAP1 POP JUMPDEST PUSH2 0xAAE PUSH2 0x5010 JUMP JUMPDEST PUSH1 0x0 PUSH2 0xAB9 DUP8 PUSH2 0x1009 JUMP JUMPDEST SWAP1 POP PUSH2 0xAC7 DUP3 DUP9 DUP12 DUP5 PUSH2 0x10FE JUMP JUMPDEST PUSH1 0x40 MLOAD PUSH4 0x21285613 PUSH1 0xE1 SHL DUP2 MSTORE PUSH1 0x0 SWAP1 PUSH20 0x0 SWAP1 PUSH4 0x4250AC26 SWAP1 PUSH2 0xB03 SWAP1 DUP14 SWAP1 DUP9 SWAP1 PUSH1 0x4 ADD PUSH2 0x58BC JUMP JUMPDEST PUSH1 0x20 PUSH1 0x40 MLOAD DUP1 DUP4 SUB DUP2 DUP7 DUP1 EXTCODESIZE ISZERO DUP1 ISZERO PUSH2 0xB1B JUMPI PUSH1 0x0 DUP1 REVERT JUMPDEST POP GAS DELEGATECALL ISZERO DUP1 ISZERO PUSH2 0xB2F JUMPI RETURNDATASIZE PUSH1 0x0 DUP1 RETURNDATACOPY RETURNDATASIZE PUSH1 0x0 REVERT JUMPDEST POP POP POP POP PUSH1 0x40 MLOAD RETURNDATASIZE PUSH1 0x1F NOT PUSH1 0x1F DUP3 ADD AND DUP3 ADD DUP1 PUSH1 0x40 MSTORE POP DUP2 ADD SWAP1 PUSH2 0xB53 SWAP2 SWAP1 PUSH2 0x52B8 JUMP JUMPDEST PUSH1 0xC0 DUP5 ADD DUP2 SWAP1 MSTORE SWAP1 POP PUSH2 0xB69 DUP4 DUP10 DUP5 PUSH1 0x1 PUSH2 0x11C8 JUMP JUMPDEST POP PUSH2 0x7BA DUP3 DUP10 PUSH2 0x1449 JUMP JUMPDEST PUSH1 0x0 SLOAD PUSH5 0x100000000 SWAP1 DIV PUSH1 0x1 PUSH1 0x1 PUSH1 0xA0 SHL SUB AND DUP2 JUMP JUMPDEST PUSH1 0x0 DUP1 PUSH2 0xB9C DUP4 DUP6 PUSH2 0xFFFF AND PUSH2 0x16E3 JUMP JUMPDEST POP POP SWAP2 POP POP PUSH2 0x3AE DUP2 PUSH2 0xFE0 JUMP JUMPDEST PUSH20 0x0 PUSH20 0x0 PUSH20 0x0 PUSH20 0x0 PUSH20 0x0 SWAP1 SWAP2 SWAP3 SWAP4 SWAP5 JUMP JUMPDEST PUSH1 0x0 CALLER DUP2 PUSH2 0xC27 DUP3 PUSH2 0x1009 JUMP JUMPDEST SWAP1 POP PUSH1 0x0 PUSH2 0xC33 PUSH2 0x5010 JUMP JUMPDEST PUSH2 0xC3C DUP4 PUSH2 0x178C JUMP JUMPDEST ISZERO PUSH2 0xC6E JUMPI PUSH1 0x60 DUP4 ADD MLOAD PUSH2 0xC54 SWAP1 DUP3 SWAP1 DUP7 SWAP1 DUP7 PUSH2 0x10FE JUMP JUMPDEST PUSH1 0x0 DUP2 PUSH1 0x40 ADD MLOAD SGT ISZERO PUSH2 0xC6E JUMPI PUSH2 0xC6B DUP2 DUP6 PUSH2 0x1799 JUMP JUMPDEST SWAP2 POP JUMPDEST PUSH1 0x80 DUP4 ADD MLOAD JUMPDEST PUSH1 0x1 PUSH1 0x1 PUSH1 0x70 SHL SUB NOT DUP2 AND ISZERO PUSH2 0xCD0 JUMPI PUSH1 0xF0 DUP2 SWAP1 SHR PUSH2 0x3FFF AND PUSH2 0xC99 DUP4 DUP8 DUP4 DUP9 PUSH2 0x10FE JUMP JUMPDEST PUSH1 0x0 DUP4 PUSH1 0x40 ADD MLOAD SGT ISZERO PUSH2 0xCBD JUMPI PUSH2 0xCBA PUSH2 0xCB3 DUP5 DUP9 PUSH2 0x1799 JUMP JUMPDEST DUP6 SWAP1 PUSH2 0x17D6 JUMP JUMPDEST SWAP4 POP JUMPDEST POP PUSH1 0x10 SHL PUSH1 0x1 PUSH1 0x1 PUSH1 0x80 SHL SUB NOT AND PUSH2 0xC74 JUMP JUMPDEST POP SWAP1 SWAP4 POP POP POP POP SWAP1 JUMP JUMPDEST PUSH1 0x0 DUP1 PUSH2 0xCE5 PUSH2 0x17E8 JUMP JUMPDEST PUSH1 0x0 DUP5 DUP2 MSTORE PUSH1 0x20 SWAP2 SWAP1 SWAP2 MSTORE PUSH1 0x40 SWAP1 KECCAK256 SLOAD PUSH1 0x1 PUSH1 0x1 PUSH1 0xA0 SHL SUB AND SWAP2 POP POP JUMPDEST SWAP2 SWAP1 POP JUMP JUMPDEST PUSH1 0x1 PUSH1 0x1 PUSH1 0xA0 SHL SUB DUP2 AND PUSH2 0xD1A JUMPI PUSH1 0x0 DUP1 REVERT JUMPDEST PUSH1 0x1 PUSH1 0x1 PUSH1 0xA0 SHL SUB DUP2 AND ADDRESS EQ ISZERO PUSH2 0xD30 JUMPI PUSH1 0x0 DUP1 REVERT JUMPDEST PUSH1 0x0 PUSH2 0xD3B DUP3 PUSH2 0x17F5 JUMP JUMPDEST POP POP POP POP PUSH2 0xFFFF AND SWAP1 POP DUP1 PUSH1 0x0 EQ PUSH2 0xD52 JUMPI PUSH1 0x0 DUP1 REVERT JUMPDEST POP POP JUMP JUMPDEST PUSH1 0x0 DUP1 PUSH2 0xD62 DUP4 PUSH2 0xFF3 JUMP JUMPDEST SWAP1 POP PUSH1 0x0 PUSH2 0xD6F DUP7 PUSH2 0x1009 JUMP JUMPDEST SWAP1 POP PUSH2 0xD7A DUP2 PUSH2 0x10AA JUMP JUMPDEST ISZERO PUSH2 0xE0B JUMPI PUSH1 0x40 MLOAD PUSH4 0x37B5FC21 PUSH1 0xE1 SHL DUP2 MSTORE PUSH20 0x0 SWAP1 PUSH4 0x6F6BF842 SWAP1 PUSH2 0xDB8 SWAP1 DUP10 SWAP1 DUP6 SWAP1 PUSH1 0x4 ADD PUSH2 0x556C JUMP JUMPDEST PUSH1 0xA0 PUSH1 0x40 MLOAD DUP1 DUP4 SUB DUP2 DUP7 DUP1 EXTCODESIZE ISZERO DUP1 ISZERO PUSH2 0xDD0 JUMPI PUSH1 0x0 DUP1 REVERT JUMPDEST POP GAS DELEGATECALL ISZERO DUP1 ISZERO PUSH2 0xDE4 JUMPI RETURNDATASIZE PUSH1 0x0 DUP1 RETURNDATACOPY RETURNDATASIZE PUSH1 0x0 REVERT JUMPDEST POP POP POP POP PUSH1 0x40 MLOAD RETURNDATASIZE PUSH1 0x1F NOT PUSH1 0x1F DUP3 ADD AND DUP3 ADD DUP1 PUSH1 0x40 MSTORE POP DUP2 ADD SWAP1 PUSH2 0xE08 SWAP2 SWAP1 PUSH2 0x52D0 JUMP JUMPDEST SWAP1 POP JUMPDEST PUSH2 0xE13 PUSH2 0x5010 JUMP JUMPDEST PUSH2 0xE1F DUP2 DUP9 DUP11 DUP6 PUSH2 0x10FE JUMP JUMPDEST PUSH2 0xE28 DUP4 PUSH2 0x11BA JUMP JUMPDEST PUSH1 0xA0 DUP3 ADD MSTORE PUSH2 0xE3A DUP2 DUP9 DUP5 PUSH1 0x0 PUSH2 0x11C8 JUMP JUMPDEST POP PUSH2 0xE45 DUP3 DUP9 PUSH2 0x1449 JUMP JUMPDEST PUSH1 0x0 PUSH2 0xE50 DUP8 PUSH2 0x1009 JUMP JUMPDEST SWAP1 POP PUSH2 0xE5A PUSH2 0x5010 JUMP JUMPDEST PUSH2 0xE66 DUP2 DUP10 DUP13 DUP6 PUSH2 0x10FE JUMP JUMPDEST PUSH1 0xA0 DUP2 ADD DUP6 SWAP1 MSTORE PUSH2 0xE7A DUP2 DUP10 DUP5 PUSH1 0x0 PUSH2 0x11C8 JUMP JUMPDEST POP PUSH2 0xE85 DUP3 DUP10 PUSH2 0x1449 JUMP JUMPDEST PUSH1 0x20 DUP5 ADD MLOAD PUSH1 0x1 PUSH1 0x1 PUSH1 0xF8 SHL SUB NOT AND ISZERO PUSH2 0xF01 JUMPI PUSH1 0x40 MLOAD PUSH4 0x6CCC642F PUSH1 0xE0 SHL DUP2 MSTORE PUSH20 0x0 SWAP1 PUSH4 0x6CCC642F SWAP1 PUSH2 0xED0 SWAP1 DUP13 SWAP1 PUSH1 0x4 ADD PUSH2 0x5526 JUMP JUMPDEST PUSH1 0x0 PUSH1 0x40 MLOAD DUP1 DUP4 SUB DUP2 DUP7 DUP1 EXTCODESIZE ISZERO DUP1 ISZERO PUSH2 0xEE8 JUMPI PUSH1 0x0 DUP1 REVERT JUMPDEST POP GAS DELEGATECALL ISZERO DUP1 ISZERO PUSH2 0xEFC JUMPI RETURNDATASIZE PUSH1 0x0 DUP1 RETURNDATACOPY RETURNDATASIZE PUSH1 0x0 REVERT JUMPDEST POP POP POP POP JUMPDEST POP PUSH1 0x1 SWAP10 SWAP9 POP POP POP POP POP POP POP POP POP JUMP JUMPDEST PUSH1 0x0 PUSH2 0xF1B PUSH2 0x5060 JUMP JUMPDEST PUSH2 0xF25 DUP2 DUP5 PUSH2 0x185E JUMP JUMPDEST PUSH2 0xF2F DUP2 TIMESTAMP PUSH2 0x1877 JUMP JUMPDEST SWAP2 POP SWAP2 POP SWAP2 JUMP JUMPDEST PUSH1 0x0 DUP1 PUSH2 0x3AE DUP5 PUSH1 0x40 ADD MLOAD PUSH2 0x53C PUSH5 0x2540BE400 PUSH2 0x53C DUP8 DUP10 PUSH1 0x20 ADD MLOAD PUSH2 0xF61 SWAP1 SWAP2 SWAP1 PUSH4 0xFFFFFFFF AND JUMP JUMPDEST DUP2 DUP2 MUL PUSH1 0x0 NOT DUP4 EQ ISZERO PUSH2 0xF91 JUMPI DUP2 ISZERO DUP1 PUSH2 0xF83 JUMPI POP DUP3 DUP3 DUP3 DUP2 PUSH2 0xF80 JUMPI INVALID JUMPDEST SDIV EQ JUMPDEST PUSH2 0xF8C JUMPI PUSH1 0x0 DUP1 REVERT JUMPDEST PUSH2 0x43C JUMP JUMPDEST DUP3 ISZERO DUP1 PUSH2 0xFA6 JUMPI POP DUP2 DUP4 DUP3 DUP2 PUSH2 0xFA3 JUMPI INVALID JUMPDEST SDIV EQ JUMPDEST PUSH2 0x43C JUMPI PUSH1 0x0 DUP1 REVERT JUMPDEST PUSH1 0x0 DUP2 PUSH1 0x0 NOT EQ DUP1 ISZERO PUSH2 0xFC5 JUMPI POP PUSH1 0x1 PUSH1 0xFF SHL DUP4 EQ JUMPDEST ISZERO PUSH2 0xFCF JUMPI PUSH1 0x0 DUP1 REVERT JUMPDEST DUP2 DUP4 DUP2 PUSH2 0xFD8 JUMPI INVALID JUMPDEST SDIV SWAP4 SWAP3 POP POP POP JUMP JUMPDEST PUSH1 0x0 DUP1 DUP3 SLT ISZERO PUSH2 0xFEF JUMPI PUSH1 0x0 DUP1 REVERT JUMPDEST POP SWAP1 JUMP JUMPDEST PUSH1 0x0 PUSH1 0x1 PUSH1 0x1 PUSH1 0xFF SHL SUB DUP3 GT ISZERO PUSH2 0xFEF JUMPI PUSH1 0x0 DUP1 REVERT JUMPDEST PUSH2 0x1011 PUSH2 0x50A9 JUMP JUMPDEST PUSH1 0x0 PUSH2 0x101B PUSH2 0x192F JUMP JUMPDEST PUSH1 0x1 PUSH1 0x1 PUSH1 0xA0 SHL SUB SWAP4 SWAP1 SWAP4 AND PUSH1 0x0 SWAP1 DUP2 MSTORE PUSH1 0x20 SWAP4 DUP5 MSTORE PUSH1 0x40 SWAP1 DUP2 SWAP1 KECCAK256 DUP2 MLOAD PUSH1 0xA0 DUP2 ADD DUP4 MSTORE SWAP1 SLOAD PUSH5 0xFFFFFFFFFF DUP2 AND DUP3 MSTORE PUSH6 0x10000000000 DUP2 DIV PUSH1 0xF8 SHL PUSH1 0x1 PUSH1 0x1 PUSH1 0xF8 SHL SUB NOT AND SWAP6 DUP3 ADD SWAP6 SWAP1 SWAP6 MSTORE PUSH1 0x1 PUSH1 0x30 SHL DUP6 DIV PUSH1 0xFF AND SWAP2 DUP2 ADD SWAP2 SWAP1 SWAP2 MSTORE PUSH1 0x1 PUSH1 0x38 SHL DUP5 DIV PUSH2 0xFFFF AND PUSH1 0x60 DUP3 ADD MSTORE PUSH1 0x1 PUSH1 0x48 SHL SWAP1 SWAP4 DIV PUSH1 0x70 SHL PUSH1 0x1 PUSH1 0x1 PUSH1 0x70 SHL SUB NOT AND PUSH1 0x80 DUP5 ADD MSTORE POP SWAP1 SWAP2 SWAP1 POP JUMP JUMPDEST PUSH1 0x0 TIMESTAMP PUSH2 0x10B6 DUP4 PUSH2 0x178C JUMP JUMPDEST ISZERO PUSH2 0x10D7 JUMPI PUSH2 0x10C4 DUP2 PUSH2 0x193C JUMP JUMPDEST DUP4 MLOAD PUSH5 0xFFFFFFFFFF AND LT SWAP2 POP PUSH2 0xD02 SWAP1 POP JUMP JUMPDEST DUP3 MLOAD PUSH5 0xFFFFFFFFFF AND ISZERO DUP1 ISZERO SWAP1 PUSH2 0x10F6 JUMPI POP DUP3 MLOAD PUSH5 0xFFFFFFFFFF AND DUP2 LT ISZERO JUMPDEST SWAP2 POP POP PUSH2 0xD02 JUMP JUMPDEST DUP2 PUSH2 0xFFFF AND PUSH1 0x0 LT DUP1 ISZERO PUSH2 0x1118 JUMPI POP PUSH2 0x3FFF PUSH2 0xFFFF DUP4 AND GT ISZERO JUMPDEST PUSH2 0x1121 JUMPI PUSH1 0x0 DUP1 REVERT JUMPDEST PUSH2 0xFFFF DUP3 AND DUP1 DUP6 MSTORE PUSH2 0x1134 SWAP1 DUP3 SWAP1 PUSH2 0x195D JUMP JUMPDEST ISZERO PUSH2 0x1161 JUMPI PUSH2 0x1147 DUP4 DUP4 PUSH2 0xFFFF AND PUSH2 0x16E3 JUMP JUMPDEST PUSH2 0x100 DUP9 ADD MSTORE PUSH1 0xE0 DUP8 ADD MSTORE PUSH1 0x40 DUP7 ADD MSTORE PUSH1 0x20 DUP6 ADD MSTORE PUSH2 0x117F JUMP JUMPDEST PUSH1 0x0 PUSH1 0x20 DUP6 ADD DUP2 SWAP1 MSTORE PUSH1 0x40 DUP6 ADD DUP2 SWAP1 MSTORE PUSH1 0xE0 DUP6 ADD DUP2 SWAP1 MSTORE PUSH2 0x100 DUP6 ADD MSTORE JUMPDEST POP POP PUSH1 0x0 PUSH1 0x60 DUP4 ADD DUP2 SWAP1 MSTORE PUSH1 0x80 DUP4 ADD DUP2 SWAP1 MSTORE PUSH1 0xA0 DUP4 ADD DUP2 SWAP1 MSTORE PUSH1 0xC0 SWAP1 SWAP3 ADD SWAP2 SWAP1 SWAP2 MSTORE POP JUMP JUMPDEST DUP1 DUP3 SUB DUP3 DUP2 SGT ISZERO PUSH1 0x0 DUP4 SLT ISZERO EQ PUSH2 0x43C JUMPI PUSH1 0x0 DUP1 REVERT JUMPDEST PUSH1 0x0 PUSH2 0x43C PUSH1 0x0 NOT DUP4 PUSH2 0xF61 JUMP JUMPDEST PUSH1 0x0 DUP1 PUSH1 0x0 DUP7 PUSH1 0xA0 ADD MLOAD SLT ISZERO PUSH2 0x1221 JUMPI PUSH1 0x0 PUSH2 0x1203 DUP8 PUSH1 0xA0 ADD MLOAD PUSH2 0x11FD DUP10 PUSH1 0xC0 ADD MLOAD DUP11 PUSH1 0x40 ADD MLOAD PUSH2 0x19E7 SWAP1 SWAP2 SWAP1 PUSH4 0xFFFFFFFF AND JUMP JUMPDEST SWAP1 PUSH2 0x19E7 JUMP JUMPDEST SLT ISZERO PUSH2 0x1221 JUMPI PUSH1 0x40 MLOAD PUSH3 0x461BCD PUSH1 0xE5 SHL DUP2 MSTORE PUSH1 0x4 ADD PUSH2 0x35A SWAP1 PUSH2 0x586B JUMP JUMPDEST PUSH1 0x0 DUP7 PUSH1 0x80 ADD MLOAD SLT ISZERO PUSH2 0x1271 JUMPI PUSH1 0x0 PUSH2 0x1253 DUP8 PUSH1 0x80 ADD MLOAD PUSH2 0x11FD DUP10 PUSH1 0x60 ADD MLOAD DUP11 PUSH1 0x20 ADD MLOAD PUSH2 0x19E7 SWAP1 SWAP2 SWAP1 PUSH4 0xFFFFFFFF AND JUMP JUMPDEST SLT ISZERO PUSH2 0x1271 JUMPI PUSH1 0x40 MLOAD PUSH3 0x461BCD PUSH1 0xE5 SHL DUP2 MSTORE PUSH1 0x4 ADD PUSH2 0x35A SWAP1 PUSH2 0x5812 JUMP JUMPDEST PUSH2 0x127C DUP7 DUP7 DUP6 PUSH2 0x19FD JUMP JUMPDEST PUSH1 0x80 DUP9 ADD DUP2 SWAP1 MSTORE PUSH1 0x60 DUP9 ADD MLOAD SWAP2 SWAP4 POP PUSH1 0x0 SWAP2 PUSH2 0x1297 SWAP2 PUSH2 0x19E7 JUMP JUMPDEST SWAP1 POP DUP1 ISZERO PUSH2 0x1304 JUMPI PUSH1 0x20 DUP8 ADD MLOAD PUSH2 0x12AE SWAP1 DUP3 PUSH2 0x19E7 JUMP JUMPDEST PUSH1 0x20 DUP9 ADD MSTORE DUP7 MLOAD PUSH1 0x40 MLOAD PUSH1 0x1 SWAP4 POP PUSH2 0xFFFF SWAP1 SWAP2 AND SWAP1 PUSH1 0x1 PUSH1 0x1 PUSH1 0xA0 SHL SUB DUP9 AND SWAP1 PUSH32 0x5441E4A5FAC93A951D782E6F1CDB82E95C8FC58561A013953D17E395C5E69B4B SWAP1 PUSH2 0x12FB SWAP1 DUP6 SWAP1 PUSH2 0x5690 JUMP JUMPDEST PUSH1 0x40 MLOAD DUP1 SWAP2 SUB SWAP1 LOG3 JUMPDEST PUSH1 0xA0 DUP8 ADD MLOAD ISZERO ISZERO DUP1 PUSH2 0x1319 JUMPI POP PUSH1 0xC0 DUP8 ADD MLOAD ISZERO ISZERO JUMPDEST ISZERO PUSH2 0x13BF JUMPI PUSH1 0x0 PUSH2 0x1343 DUP9 PUSH1 0xC0 ADD MLOAD PUSH2 0x11FD DUP11 PUSH1 0xA0 ADD MLOAD DUP12 PUSH1 0x40 ADD MLOAD PUSH2 0x19E7 SWAP1 SWAP2 SWAP1 PUSH4 0xFFFFFFFF AND JUMP JUMPDEST SWAP1 POP PUSH2 0x1358 DUP9 DUP9 PUSH2 0x1353 DUP5 PUSH2 0xFE0 JUMP JUMPDEST PUSH2 0x1AB3 JUMP JUMPDEST POP PUSH1 0x40 DUP9 ADD DUP2 SWAP1 MSTORE PUSH1 0xC0 DUP9 ADD MLOAD ISZERO PUSH2 0x13B9 JUMPI DUP8 PUSH1 0x0 ADD MLOAD PUSH2 0xFFFF AND DUP8 PUSH1 0x1 PUSH1 0x1 PUSH1 0xA0 SHL SUB AND PUSH32 0x412BC13D202A2EA5119E55FEC9C5E420DDDB18FAF186373AD9795AD4F4545AA9 DUP11 PUSH1 0xC0 ADD MLOAD PUSH1 0x40 MLOAD PUSH2 0x13B0 SWAP2 SWAP1 PUSH2 0x5690 JUMP JUMPDEST PUSH1 0x40 MLOAD DUP1 SWAP2 SUB SWAP1 LOG3 JUMPDEST PUSH1 0x1 SWAP3 POP POP JUMPDEST DUP2 ISZERO PUSH2 0x13EC JUMPI PUSH2 0x13EC DUP7 DUP9 PUSH1 0x0 ADD MLOAD PUSH2 0xFFFF AND DUP10 PUSH1 0x20 ADD MLOAD DUP11 PUSH1 0x40 ADD MLOAD DUP12 PUSH1 0xE0 ADD MLOAD DUP13 PUSH2 0x100 ADD MLOAD PUSH2 0x1BA0 JUMP JUMPDEST DUP7 MLOAD PUSH1 0x20 DUP9 ADD MLOAD PUSH2 0x1419 SWAP2 PUSH2 0xFFFF AND SWAP1 ISZERO ISZERO DUP1 PUSH2 0x140C JUMPI POP PUSH1 0x40 DUP10 ADD MLOAD ISZERO ISZERO JUMPDEST DUP8 SWAP2 SWAP1 PUSH1 0x1 PUSH1 0xFE SHL PUSH2 0x1CEA JUMP JUMPDEST PUSH1 0x0 DUP8 PUSH1 0x20 ADD MLOAD SLT ISZERO PUSH2 0x143F JUMPI PUSH1 0x20 DUP6 ADD DUP1 MLOAD PUSH1 0x1 PUSH1 0xF9 SHL OR PUSH1 0x1 PUSH1 0x1 PUSH1 0xF8 SHL SUB NOT AND SWAP1 MSTORE JUMPDEST POP POP SWAP5 SWAP4 POP POP POP POP JUMP JUMPDEST PUSH1 0x0 PUSH2 0x1453 PUSH2 0x192F JUMP JUMPDEST PUSH1 0x1 PUSH1 0x1 PUSH1 0xA0 SHL SUB DUP4 AND PUSH1 0x0 DUP2 DUP2 MSTORE PUSH1 0x20 DUP4 DUP2 MSTORE PUSH1 0x40 DUP1 DUP4 KECCAK256 DUP9 MLOAD DUP2 SLOAD SWAP4 DUP11 ADD MLOAD DUP4 DUP12 ADD MLOAD PUSH1 0x60 DUP13 ADD MLOAD PUSH1 0x80 DUP14 ADD MLOAD PUSH1 0x70 SHR PUSH1 0x1 PUSH1 0x48 SHL MUL PUSH27 0xFFFFFFFFFFFFFFFFFFFFFFFFFFFFFFFFFFFF000000000000000000 NOT PUSH2 0xFFFF SWAP1 SWAP3 AND PUSH1 0x1 PUSH1 0x38 SHL MUL PUSH9 0xFFFF00000000000000 NOT PUSH1 0xFF SWAP5 SWAP1 SWAP5 AND PUSH1 0x1 PUSH1 0x30 SHL MUL PUSH7 0xFF000000000000 NOT PUSH1 0xF8 SWAP7 SWAP1 SWAP7 SHR PUSH6 0x10000000000 MUL PUSH6 0xFF0000000000 NOT PUSH5 0xFFFFFFFFFF SWAP1 SWAP9 AND PUSH5 0xFFFFFFFFFF NOT SWAP1 SWAP12 AND SWAP11 SWAP1 SWAP11 OR SWAP7 SWAP1 SWAP7 AND SWAP9 SWAP1 SWAP9 OR SWAP4 SWAP1 SWAP4 AND SWAP4 SWAP1 SWAP4 OR AND SWAP5 SWAP1 SWAP5 OR AND SWAP3 SWAP1 SWAP3 OR SWAP1 SWAP2 SSTORE MLOAD SWAP3 SWAP4 POP SWAP1 SWAP2 PUSH32 0x6BD4B121BCA854A191536A2CA891155C42EE2FB23F307FB34E8BC65CFCB5412E SWAP2 SWAP1 LOG2 POP POP POP JUMP JUMPDEST PUSH1 0x0 DUP1 PUSH1 0x0 DUP1 PUSH2 0x155B PUSH2 0x1EF1 JUMP JUMPDEST PUSH1 0x1 PUSH1 0x1 PUSH1 0xA0 SHL SUB SWAP6 SWAP1 SWAP6 AND PUSH1 0x0 SWAP1 DUP2 MSTORE PUSH1 0x20 SWAP6 SWAP1 SWAP6 MSTORE POP POP PUSH1 0x40 SWAP1 SWAP3 KECCAK256 SLOAD PUSH1 0x1 PUSH1 0x1 PUSH1 0x60 SHL SUB DUP2 AND SWAP4 PUSH1 0x1 PUSH1 0x60 SHL DUP3 DIV PUSH1 0x1 PUSH1 0x1 PUSH1 0x80 SHL SUB AND SWAP4 POP PUSH1 0x1 PUSH1 0xE0 SHL SWAP1 SWAP2 DIV PUSH4 0xFFFFFFFF AND SWAP2 POP JUMP JUMPDEST PUSH2 0x15B1 PUSH2 0x50D7 JUMP JUMPDEST PUSH2 0x43C DUP3 PUSH1 0x0 PUSH2 0x1EFE JUMP JUMPDEST PUSH1 0x0 PUSH4 0x5F5E100 DUP4 PUSH1 0x40 ADD MLOAD EQ ISZERO PUSH2 0x15D5 JUMPI POP DUP1 PUSH2 0x43C JUMP JUMPDEST PUSH1 0x40 DUP4 ADD MLOAD PUSH2 0x855 SWAP1 PUSH2 0x53C DUP5 PUSH4 0x5F5E100 PUSH2 0xF61 JUMP JUMPDEST PUSH1 0x0 DUP1 PUSH1 0x5 DUP6 PUSH1 0x60 ADD MLOAD PUSH1 0x5 DUP2 GT ISZERO PUSH2 0x1601 JUMPI INVALID JUMPDEST EQ PUSH2 0x1613 JUMPI PUSH4 0x70A08231 PUSH1 0xE0 SHL PUSH2 0x161C JUMP JUMPDEST PUSH4 0xED1279F PUSH1 0xE1 SHL JUMPDEST SWAP1 POP PUSH1 0x0 PUSH2 0x162F DUP7 PUSH1 0x0 ADD MLOAD ADDRESS DUP5 PUSH2 0x1FAC JUMP JUMPDEST SWAP1 POP PUSH1 0x5 DUP7 PUSH1 0x60 ADD MLOAD PUSH1 0x5 DUP2 GT ISZERO PUSH2 0x1643 JUMPI INVALID JUMPDEST EQ ISZERO PUSH2 0x166A JUMPI PUSH1 0x0 PUSH2 0x1658 DUP7 PUSH2 0xFFFF AND PUSH2 0x20BE JUMP JUMPDEST SWAP1 POP PUSH2 0x1664 DUP2 DUP7 PUSH2 0x20D1 JUMP JUMPDEST POP PUSH2 0x16B3 JUMP JUMPDEST PUSH1 0x1 DUP7 PUSH1 0x60 ADD MLOAD PUSH1 0x5 DUP2 GT ISZERO PUSH2 0x167C JUMPI INVALID JUMPDEST EQ ISZERO PUSH2 0x1691 JUMPI PUSH2 0x168C DUP7 DUP6 PUSH2 0x2144 JUMP JUMPDEST PUSH2 0x16B3 JUMP JUMPDEST PUSH1 0x2 DUP7 PUSH1 0x60 ADD MLOAD PUSH1 0x5 DUP2 GT ISZERO PUSH2 0x16A3 JUMPI INVALID JUMPDEST EQ ISZERO PUSH2 0xFE JUMPI PUSH2 0x168C DUP7 DUP6 PUSH2 0x21EB JUMP JUMPDEST PUSH1 0x0 PUSH2 0x16C4 DUP8 PUSH1 0x0 ADD MLOAD ADDRESS DUP6 PUSH2 0x1FAC JUMP JUMPDEST SWAP1 POP PUSH2 0x16D8 PUSH2 0x16D3 DUP3 DUP5 PUSH2 0x2247 JUMP JUMPDEST PUSH2 0xFF3 JUMP JUMPDEST SWAP8 SWAP7 POP POP POP POP POP POP POP JUMP JUMPDEST PUSH1 0x0 DUP1 PUSH1 0x0 DUP1 PUSH1 0x0 PUSH2 0x16F3 PUSH2 0x22A4 JUMP JUMPDEST PUSH1 0x1 PUSH1 0x1 PUSH1 0xA0 SHL SUB DUP9 AND PUSH1 0x0 SWAP1 DUP2 MSTORE PUSH1 0x20 DUP3 DUP2 MSTORE PUSH1 0x40 DUP1 DUP4 KECCAK256 DUP11 DUP5 MSTORE SWAP1 SWAP2 MSTORE SWAP1 KECCAK256 DUP1 SLOAD PUSH1 0x1 PUSH1 0x1 PUSH1 0x50 SHL SUB DUP2 AND SWAP7 POP PUSH1 0x1 PUSH1 0x50 SHL SWAP1 DIV PUSH4 0xFFFFFFFF AND SWAP5 POP SWAP1 SWAP2 POP DUP4 ISZERO PUSH2 0x175C JUMPI DUP1 SLOAD PUSH2 0x1755 SWAP1 PUSH1 0x1 PUSH1 0x70 SHL SWAP1 DIV PUSH7 0xFFFFFFFFFFFFFF AND PUSH2 0x22B1 JUMP JUMPDEST SWAP3 POP PUSH2 0x1771 JUMP JUMPDEST DUP1 SLOAD PUSH1 0x1 PUSH1 0x70 SHL SWAP1 DIV PUSH7 0xFFFFFFFFFFFFFF AND SWAP3 POP JUMPDEST SLOAD PUSH1 0x1 PUSH1 0xA8 SHL SWAP1 DIV PUSH1 0xA SWAP1 DUP2 SIGNEXTEND SWAP1 SIGNEXTEND SWAP8 SWAP4 SWAP7 POP SWAP2 SWAP5 POP SWAP3 POP POP JUMP JUMPDEST PUSH1 0x60 ADD MLOAD PUSH2 0xFFFF AND ISZERO ISZERO SWAP1 JUMP JUMPDEST PUSH1 0x0 PUSH2 0x17AD DUP4 DUP4 PUSH2 0x1353 DUP7 PUSH1 0x40 ADD MLOAD PUSH2 0xFE0 JUMP JUMPDEST SWAP1 POP PUSH2 0x43C DUP3 DUP5 PUSH1 0x0 ADD MLOAD PUSH2 0xFFFF AND DUP6 PUSH1 0x20 ADD MLOAD DUP7 PUSH1 0x40 ADD MLOAD DUP8 PUSH1 0xE0 ADD MLOAD DUP9 PUSH2 0x100 ADD MLOAD PUSH2 0x1BA0 JUMP JUMPDEST PUSH1 0x0 DUP3 DUP3 ADD DUP4 DUP2 LT ISZERO PUSH2 0x855 JUMPI PUSH1 0x0 DUP1 REVERT JUMPDEST PUSH1 0x0 DUP1 PUSH2 0x43C PUSH1 0x3 PUSH2 0x22BF JUMP JUMPDEST PUSH1 0x0 DUP1 PUSH1 0x0 DUP1 PUSH1 0x0 DUP1 PUSH2 0x1806 PUSH2 0x22D8 JUMP JUMPDEST PUSH1 0x1 PUSH1 0x1 PUSH1 0xA0 SHL SUB SWAP1 SWAP8 AND PUSH1 0x0 SWAP1 DUP2 MSTORE PUSH1 0x20 SWAP8 SWAP1 SWAP8 MSTORE POP POP PUSH1 0x40 SWAP1 SWAP5 KECCAK256 SLOAD PUSH2 0xFFFF DUP2 AND SWAP6 PUSH4 0xFFFFFFFF PUSH3 0x10000 DUP4 DIV DUP2 AND SWAP7 POP PUSH1 0x1 PUSH1 0x30 SHL DUP4 DIV AND SWAP5 POP PUSH1 0xFF PUSH1 0x1 PUSH1 0x50 SHL DUP4 DIV AND SWAP4 POP PUSH1 0x1 PUSH1 0x58 SHL SWAP1 SWAP2 DIV PUSH1 0xD8 SHL SWAP2 POP JUMP JUMPDEST PUSH2 0x1868 DUP3 DUP3 PUSH2 0x22E5 JUMP JUMPDEST PUSH2 0x1871 DUP2 PUSH2 0x2388 JUMP JUMPDEST SWAP1 SWAP2 MSTORE POP JUMP JUMPDEST PUSH1 0x0 DUP1 PUSH2 0x1883 DUP5 PUSH2 0x23AB JUMP JUMPDEST SWAP1 POP DUP3 DUP2 GT PUSH2 0x1893 JUMPI PUSH1 0x1 DUP2 SUB SWAP3 POP JUMPDEST POP PUSH1 0x0 PUSH2 0x18A0 DUP5 DUP5 PUSH2 0x23D5 JUMP JUMPDEST POP SWAP1 POP PUSH1 0x0 PUSH2 0x18CE DUP6 PUSH1 0xC0 ADD MLOAD DUP7 PUSH1 0x0 ADD MLOAD PUSH1 0x0 ADD MLOAD PUSH2 0xFFFF AND DUP8 PUSH1 0x80 ADD MLOAD DUP8 DUP10 PUSH1 0x0 ADD MLOAD PUSH1 0x20 ADD MLOAD PUSH2 0x252A JUMP JUMPDEST SWAP1 POP PUSH1 0x0 DUP2 ISZERO PUSH2 0x1900 JUMPI PUSH1 0xC0 DUP7 ADD MLOAD DUP7 MLOAD DUP1 MLOAD PUSH1 0x80 DUP10 ADD MLOAD PUSH2 0x18FC SWAP4 SWAP3 PUSH2 0xFFFF SWAP1 SWAP3 AND SWAP2 DUP10 SWAP1 PUSH1 0x0 DUP9 PUSH2 0x25D6 JUMP JUMPDEST POP SWAP1 POP JUMPDEST PUSH1 0x60 DUP7 ADD MLOAD DUP7 MLOAD PUSH1 0x40 ADD MLOAD PUSH2 0x1925 SWAP2 SWAP1 PUSH2 0x11FD SWAP1 PUSH2 0x191E SWAP1 DUP6 PUSH2 0x2654 JUMP JUMPDEST DUP7 SWAP1 PUSH2 0x19E7 JUMP JUMPDEST SWAP7 SWAP6 POP POP POP POP POP POP JUMP JUMPDEST PUSH1 0x0 DUP1 PUSH2 0x43C PUSH1 0x1 PUSH2 0x22BF JUMP JUMPDEST PUSH1 0x0 PUSH3 0x15180 DUP3 LT ISZERO PUSH2 0x194E JUMPI PUSH1 0x0 DUP1 REVERT JUMPDEST PUSH3 0x15180 DUP3 JUMPDEST MOD SWAP1 SWAP2 SUB SWAP2 SWAP1 POP JUMP JUMPDEST PUSH1 0x0 DUP2 ISZERO DUP1 ISZERO SWAP1 PUSH2 0x1970 JUMPI POP PUSH2 0x3FFF DUP3 GT ISZERO JUMPDEST PUSH2 0x1979 JUMPI PUSH1 0x0 DUP1 REVERT JUMPDEST PUSH1 0x80 DUP4 ADD MLOAD PUSH1 0x60 DUP5 ADD MLOAD PUSH2 0xFFFF AND DUP4 EQ ISZERO PUSH2 0x1998 JUMPI PUSH1 0x1 SWAP2 POP POP PUSH2 0x43C JUMP JUMPDEST PUSH1 0x1 PUSH1 0x1 PUSH1 0x70 SHL SUB NOT DUP2 AND ISZERO PUSH2 0x19DD JUMPI PUSH1 0xF0 DUP2 SWAP1 SHR PUSH2 0x3FFF AND DUP4 DUP2 EQ ISZERO PUSH2 0x19CA JUMPI POP PUSH1 0x1 PUSH1 0xFE SHL SWAP1 DUP2 AND EQ SWAP1 POP PUSH2 0x43C JUMP JUMPDEST POP PUSH1 0x10 SHL PUSH1 0x1 PUSH1 0x1 PUSH1 0x80 SHL SUB NOT AND PUSH2 0x1998 JUMP JUMPDEST POP PUSH1 0x0 SWAP4 SWAP3 POP POP POP JUMP JUMPDEST DUP2 DUP2 ADD DUP3 DUP2 SLT ISZERO PUSH1 0x0 DUP4 SLT ISZERO EQ PUSH2 0x43C JUMPI PUSH1 0x0 DUP1 REVERT JUMPDEST PUSH1 0x0 DUP1 PUSH1 0x0 PUSH2 0x1A13 DUP7 PUSH1 0x0 ADD MLOAD PUSH2 0xFFFF AND PUSH2 0x15A9 JUMP JUMPDEST SWAP1 POP PUSH1 0x0 PUSH2 0x1A2E DUP8 PUSH1 0x80 ADD MLOAD DUP4 PUSH2 0x267F SWAP1 SWAP2 SWAP1 PUSH4 0xFFFFFFFF AND JUMP JUMPDEST SWAP1 POP DUP1 PUSH2 0x1A43 JUMPI PUSH1 0x0 DUP1 SWAP4 POP SWAP4 POP POP POP PUSH2 0x1AAB JUMP JUMPDEST DUP5 DUP1 ISZERO PUSH2 0x1A50 JUMPI POP PUSH1 0x0 DUP2 SLT JUMPDEST ISZERO PUSH2 0x1A85 JUMPI DUP7 MLOAD PUSH2 0x1A72 SWAP1 PUSH2 0xFFFF AND DUP8 PUSH2 0x1A69 DUP5 PUSH2 0x11BA JUMP JUMPDEST DUP6 SWAP3 SWAP2 SWAP1 PUSH2 0x26B7 JUMP JUMPDEST SWAP4 POP PUSH2 0x1A7E DUP3 DUP3 PUSH2 0x15BC JUMP JUMPDEST SWAP3 POP PUSH2 0x1AA8 JUMP JUMPDEST DUP7 MLOAD PUSH2 0x1A99 SWAP1 DUP4 SWAP1 DUP9 SWAP1 PUSH2 0xFFFF AND DUP5 PUSH2 0x2752 JUMP JUMPDEST SWAP4 POP PUSH2 0x1AA5 DUP3 DUP6 PUSH2 0x15BC JUMP JUMPDEST SWAP3 POP JUMPDEST POP POP JUMPDEST SWAP4 POP SWAP4 SWAP2 POP POP JUMP JUMPDEST DUP3 MLOAD PUSH1 0x0 SWAP1 TIMESTAMP SWAP1 DUP3 SWAP1 PUSH2 0x1AC9 SWAP1 PUSH2 0xFFFF AND PUSH2 0xCDA JUMP JUMPDEST SWAP1 POP PUSH1 0x0 PUSH2 0x1ADC DUP3 DUP9 PUSH1 0xC0 ADD MLOAD DUP6 PUSH2 0x27FA JUMP JUMPDEST SWAP1 POP PUSH2 0x1AEA DUP8 DUP4 DUP4 DUP9 PUSH2 0x28DD JUMP JUMPDEST SWAP4 POP PUSH1 0x0 PUSH2 0x1AF7 DUP4 PUSH2 0x2A0A JUMP JUMPDEST SWAP1 POP PUSH1 0x1 PUSH1 0x1 PUSH1 0xA0 SHL SUB DUP2 AND ISZERO PUSH2 0x1B85 JUMPI DUP1 PUSH1 0x1 PUSH1 0x1 PUSH1 0xA0 SHL SUB AND PUSH4 0x1D684DD2 DUP9 DUP11 PUSH1 0x0 ADD MLOAD PUSH2 0x1B2A DUP13 PUSH1 0x40 ADD MLOAD PUSH2 0xFE0 JUMP JUMPDEST DUP11 DUP14 PUSH1 0xC0 ADD MLOAD DUP12 PUSH1 0x40 MLOAD DUP8 PUSH4 0xFFFFFFFF AND PUSH1 0xE0 SHL DUP2 MSTORE PUSH1 0x4 ADD PUSH2 0x1B52 SWAP7 SWAP6 SWAP5 SWAP4 SWAP3 SWAP2 SWAP1 PUSH2 0x55D8 JUMP JUMPDEST PUSH1 0x0 PUSH1 0x40 MLOAD DUP1 DUP4 SUB DUP2 PUSH1 0x0 DUP8 DUP1 EXTCODESIZE ISZERO DUP1 ISZERO PUSH2 0x1B6C JUMPI PUSH1 0x0 DUP1 REVERT JUMPDEST POP GAS CALL ISZERO DUP1 ISZERO PUSH2 0x1B80 JUMPI RETURNDATASIZE PUSH1 0x0 DUP1 RETURNDATACOPY RETURNDATASIZE PUSH1 0x0 REVERT JUMPDEST POP POP POP POP JUMPDEST DUP5 ISZERO PUSH2 0x1B95 JUMPI PUSH2 0x1B95 DUP8 DUP7 PUSH2 0x2A7C JUMP JUMPDEST POP POP POP POP SWAP4 SWAP3 POP POP POP JUMP JUMPDEST PUSH1 0x0 PUSH2 0x1BAA PUSH2 0x22A4 JUMP JUMPDEST PUSH1 0x1 PUSH1 0x1 PUSH1 0xA0 SHL SUB DUP9 AND PUSH1 0x0 SWAP1 DUP2 MSTORE PUSH1 0x20 DUP3 DUP2 MSTORE PUSH1 0x40 DUP1 DUP4 KECCAK256 DUP11 DUP5 MSTORE SWAP1 SWAP2 MSTORE SWAP1 KECCAK256 SWAP1 SWAP2 POP PUSH11 0x7FFFFFFFFFFFFFFFFFFFFF NOT DUP7 SLT DUP1 ISZERO SWAP1 PUSH2 0x1BF5 JUMPI POP PUSH11 0x7FFFFFFFFFFFFFFFFFFFFF DUP7 SGT ISZERO JUMPDEST PUSH2 0x1BFE JUMPI PUSH1 0x0 DUP1 REVERT JUMPDEST PUSH1 0x0 DUP6 SLT ISZERO DUP1 ISZERO PUSH2 0x1C16 JUMPI POP PUSH1 0x1 PUSH1 0x1 PUSH1 0x50 SHL SUB DUP6 SGT ISZERO JUMPDEST PUSH2 0x1C1F JUMPI PUSH1 0x0 DUP1 REVERT JUMPDEST DUP4 PUSH2 0x1C5F JUMPI PUSH7 0xFFFFFFFFFFFFFF DUP4 GT ISZERO PUSH2 0x1C38 JUMPI PUSH1 0x0 DUP1 REVERT JUMPDEST DUP1 SLOAD PUSH7 0xFFFFFFFFFFFFFF PUSH1 0x70 SHL NOT AND PUSH1 0x1 PUSH1 0x70 SHL PUSH7 0xFFFFFFFFFFFFFF DUP6 AND MUL OR DUP2 SSTORE PUSH2 0x1C79 JUMP JUMPDEST DUP1 SLOAD PUSH1 0x1 PUSH1 0x50 SHL SWAP1 DIV PUSH4 0xFFFFFFFF AND DUP5 EQ PUSH2 0x1C79 JUMPI PUSH1 0x0 DUP1 REVERT JUMPDEST DUP1 SLOAD PUSH1 0xA SWAP7 SWAP1 SWAP7 SIGNEXTEND PUSH11 0xFFFFFFFFFFFFFFFFFFFFFF AND PUSH1 0x1 PUSH1 0xA8 SHL MUL PUSH1 0x1 PUSH1 0x1 PUSH1 0xA8 SHL SUB PUSH1 0x1 PUSH1 0x1 PUSH1 0x50 SHL SUB SWAP1 SWAP7 AND PUSH10 0xFFFFFFFFFFFFFFFFFFFF NOT PUSH4 0xFFFFFFFF SWAP1 SWAP7 AND PUSH1 0x1 PUSH1 0x50 SHL MUL PUSH4 0xFFFFFFFF PUSH1 0x50 SHL NOT SWAP1 SWAP9 AND SWAP8 SWAP1 SWAP8 OR SWAP5 SWAP1 SWAP5 AND SWAP6 SWAP1 SWAP6 OR SWAP4 SWAP1 SWAP4 AND SWAP2 SWAP1 SWAP2 OR SWAP1 SWAP3 SSTORE POP POP POP POP JUMP JUMPDEST DUP3 PUSH1 0x0 LT DUP1 ISZERO PUSH2 0x1CFC JUMPI POP PUSH2 0x3FFF DUP4 GT ISZERO JUMPDEST PUSH2 0x1D05 JUMPI PUSH1 0x0 DUP1 REVERT JUMPDEST DUP2 DUP1 ISZERO PUSH2 0x1D19 JUMPI POP DUP3 DUP5 PUSH1 0x60 ADD MLOAD PUSH2 0xFFFF AND EQ JUMPDEST ISZERO PUSH2 0x1D23 JUMPI PUSH2 0x1EEB JUMP JUMPDEST PUSH1 0x80 DUP5 ADD MLOAD PUSH1 0x0 SWAP1 DUP2 JUMPDEST PUSH1 0x1 PUSH1 0x1 PUSH1 0x70 SHL SUB NOT DUP3 AND ISZERO PUSH2 0x1EA5 JUMPI PUSH1 0xF0 DUP3 SWAP1 SHR PUSH2 0x3FFF AND DUP7 DUP2 EQ DUP1 ISZERO PUSH2 0x1D52 JUMPI POP DUP6 JUMPDEST ISZERO PUSH2 0x1D8A JUMPI POP PUSH1 0x80 DUP8 ADD DUP1 MLOAD PUSH1 0x1 PUSH1 0x1 PUSH1 0xF0 SHL SUB NOT DUP7 AND PUSH1 0x10 SWAP1 SWAP4 MUL SWAP3 SWAP1 SWAP3 SHR SWAP2 SWAP1 SWAP2 OR PUSH1 0x1 PUSH1 0x1 PUSH1 0x70 SHL SUB NOT AND SWAP1 MSTORE POP PUSH2 0x1EEB SWAP1 POP JUMP JUMPDEST DUP7 DUP2 EQ DUP1 ISZERO PUSH2 0x1D97 JUMPI POP DUP6 ISZERO JUMPDEST ISZERO PUSH2 0x1DF3 JUMPI PUSH1 0x1 PUSH1 0x1 PUSH1 0xF0 SHL SUB NOT DUP6 AND NOT SWAP3 SWAP1 SWAP3 AND SWAP2 PUSH1 0x3 PUSH1 0xFE SHL DUP4 AND PUSH2 0x1DD1 JUMPI PUSH1 0x10 DUP4 PUSH14 0xFFFFFFFFFFFFFFFFFFFFFFFFFFFF NOT AND SWAP1 SHL SWAP3 POP JUMPDEST POP PUSH1 0x1 PUSH1 0x1 PUSH1 0x70 SHL SUB NOT SWAP2 DUP3 AND PUSH1 0x10 SWAP1 SWAP2 MUL SHR SWAP2 SWAP1 SWAP2 OR AND PUSH1 0x80 DUP6 ADD MSTORE PUSH2 0x1EEB JUMP JUMPDEST DUP7 DUP2 GT DUP1 ISZERO PUSH2 0x1DFF JUMPI POP DUP6 JUMPDEST ISZERO PUSH2 0x1E59 JUMPI PUSH1 0x80 DUP9 DUP2 ADD MLOAD PUSH1 0x1 PUSH1 0x1 PUSH1 0xF0 SHL SUB NOT PUSH1 0xF0 DUP11 SWAP1 SHL DUP9 OR DUP2 AND PUSH1 0x10 DUP7 MUL SHR SWAP7 SWAP1 SWAP7 OR SWAP6 SWAP2 SHL AND ISZERO PUSH2 0x1E33 JUMPI PUSH1 0x0 DUP1 REVERT JUMPDEST POP PUSH1 0x1 PUSH1 0x1 PUSH1 0x70 SHL SUB NOT SWAP2 DUP3 AND PUSH1 0x1 SWAP2 SWAP1 SWAP2 ADD PUSH1 0x10 MUL SHR SWAP2 SWAP1 SWAP2 OR AND PUSH1 0x80 DUP6 ADD MSTORE PUSH2 0x1EEB JUMP JUMPDEST DUP7 DUP2 GT DUP1 ISZERO PUSH2 0x1E66 JUMPI POP DUP6 ISZERO JUMPDEST ISZERO PUSH2 0x1E74 JUMPI POP POP POP POP PUSH2 0x1EEB JUMP JUMPDEST POP PUSH1 0x1 PUSH1 0x1 PUSH1 0xF0 SHL SUB NOT DUP3 AND PUSH1 0x10 DUP3 DUP2 MUL SWAP2 SWAP1 SWAP2 SHR SWAP4 SWAP1 SWAP4 OR SWAP3 SWAP2 SWAP1 SWAP2 SHL PUSH1 0x1 PUSH1 0x1 PUSH1 0x80 SHL SUB NOT AND SWAP1 PUSH1 0x1 ADD PUSH2 0x1D2D JUMP JUMPDEST DUP5 PUSH2 0x1EB2 JUMPI POP POP POP PUSH2 0x1EEB JUMP JUMPDEST PUSH1 0x9 DUP2 LT PUSH2 0x1EBF JUMPI PUSH1 0x0 DUP1 REVERT JUMPDEST PUSH1 0x1 PUSH1 0x1 PUSH1 0xF0 SHL SUB NOT PUSH1 0xF0 DUP8 SWAP1 SHL DUP6 OR AND PUSH1 0x10 SWAP1 SWAP2 MUL SHR SWAP2 SWAP1 SWAP2 OR PUSH1 0x1 PUSH1 0x1 PUSH1 0x70 SHL SUB NOT AND PUSH1 0x80 DUP7 ADD MSTORE POP JUMPDEST POP POP POP POP JUMP JUMPDEST PUSH1 0x0 DUP1 PUSH2 0x43C PUSH1 0x11 PUSH2 0x22BF JUMP JUMPDEST PUSH2 0x1F06 PUSH2 0x50D7 JUMP JUMPDEST PUSH1 0x0 PUSH2 0x1F10 PUSH2 0x2A9B JUMP JUMPDEST PUSH1 0x0 DUP6 DUP2 MSTORE PUSH1 0x20 DUP3 DUP2 MSTORE PUSH1 0x40 DUP1 DUP4 KECCAK256 DUP8 ISZERO ISZERO DUP5 MSTORE DUP3 MSTORE SWAP2 DUP3 SWAP1 KECCAK256 DUP3 MLOAD PUSH1 0xA0 DUP2 ADD DUP5 MSTORE DUP2 SLOAD PUSH1 0x1 PUSH1 0x1 PUSH1 0xA0 SHL SUB DUP2 AND DUP3 MSTORE PUSH1 0xFF PUSH1 0x1 PUSH1 0xA0 SHL DUP3 DIV DUP2 AND ISZERO ISZERO SWAP5 DUP4 ADD SWAP5 SWAP1 SWAP5 MSTORE PUSH1 0x1 PUSH1 0xB0 SHL DUP2 DIV DUP5 AND PUSH1 0xA EXP SWAP5 DUP3 ADD SWAP5 SWAP1 SWAP5 MSTORE SWAP4 SWAP5 POP SWAP3 SWAP2 PUSH1 0x60 DUP4 ADD SWAP2 PUSH1 0x1 PUSH1 0xA8 SHL SWAP1 SWAP2 DIV AND PUSH1 0x5 DUP2 GT ISZERO PUSH2 0x1F85 JUMPI INVALID JUMPDEST DUP2 MSTORE SWAP2 SLOAD PUSH1 0x1 PUSH1 0xB8 SHL SWAP1 DIV PUSH9 0xFFFFFFFFFFFFFFFFFF AND PUSH1 0x20 SWAP1 SWAP3 ADD SWAP2 SWAP1 SWAP2 MSTORE SWAP5 SWAP4 POP POP POP POP JUMP JUMPDEST PUSH1 0x40 DUP1 MLOAD PUSH1 0x1 PUSH1 0x1 PUSH1 0xA0 SHL SUB DUP5 DUP2 AND PUSH1 0x24 DUP1 DUP5 ADD SWAP2 SWAP1 SWAP2 MSTORE DUP4 MLOAD DUP1 DUP5 SUB SWAP1 SWAP2 ADD DUP2 MSTORE PUSH1 0x44 SWAP1 SWAP3 ADD DUP4 MSTORE PUSH1 0x20 DUP3 ADD DUP1 MLOAD PUSH1 0x1 PUSH1 0x1 PUSH1 0xE0 SHL SUB AND PUSH1 0x1 PUSH1 0x1 PUSH1 0xE0 SHL SUB NOT DUP7 AND OR DUP2 MSTORE SWAP3 MLOAD DUP3 MLOAD PUSH1 0x0 SWAP5 DUP6 SWAP5 DUP6 SWAP5 DUP11 AND SWAP4 SWAP1 SWAP3 SWAP1 SWAP2 DUP3 SWAP2 DUP1 DUP4 DUP4 JUMPDEST PUSH1 0x20 DUP4 LT PUSH2 0x2029 JUMPI DUP1 MLOAD DUP3 MSTORE PUSH1 0x1F NOT SWAP1 SWAP3 ADD SWAP2 PUSH1 0x20 SWAP2 DUP3 ADD SWAP2 ADD PUSH2 0x200A JUMP JUMPDEST PUSH1 0x1 DUP4 PUSH1 0x20 SUB PUSH2 0x100 EXP SUB DUP1 NOT DUP3 MLOAD AND DUP2 DUP5 MLOAD AND DUP1 DUP3 OR DUP6 MSTORE POP POP POP POP POP POP SWAP1 POP ADD SWAP2 POP POP PUSH1 0x0 PUSH1 0x40 MLOAD DUP1 DUP4 SUB DUP2 DUP6 GAS STATICCALL SWAP2 POP POP RETURNDATASIZE DUP1 PUSH1 0x0 DUP2 EQ PUSH2 0x2089 JUMPI PUSH1 0x40 MLOAD SWAP2 POP PUSH1 0x1F NOT PUSH1 0x3F RETURNDATASIZE ADD AND DUP3 ADD PUSH1 0x40 MSTORE RETURNDATASIZE DUP3 MSTORE RETURNDATASIZE PUSH1 0x0 PUSH1 0x20 DUP5 ADD RETURNDATACOPY PUSH2 0x208E JUMP JUMPDEST PUSH1 0x60 SWAP2 POP JUMPDEST POP SWAP2 POP SWAP2 POP DUP2 PUSH2 0x209D JUMPI PUSH1 0x0 DUP1 REVERT JUMPDEST DUP1 DUP1 PUSH1 0x20 ADD SWAP1 MLOAD PUSH1 0x20 DUP2 LT ISZERO PUSH2 0x20B2 JUMPI PUSH1 0x0 DUP1 REVERT JUMPDEST POP MLOAD SWAP7 SWAP6 POP POP POP POP POP POP JUMP JUMPDEST PUSH2 0x20C6 PUSH2 0x50D7 JUMP JUMPDEST PUSH2 0x43C DUP3 PUSH1 0x1 PUSH2 0x1EFE JUMP JUMPDEST PUSH2 0x20D9 PUSH2 0x2AA8 JUMP JUMPDEST SLOAD DUP3 MLOAD PUSH1 0x40 MLOAD PUSH4 0xE8EDA9DF PUSH1 0xE0 SHL DUP2 MSTORE PUSH1 0x1 PUSH1 0x1 PUSH1 0xA0 SHL SUB SWAP1 SWAP3 AND SWAP2 PUSH4 0xE8EDA9DF SWAP2 PUSH2 0x210E SWAP2 DUP6 SWAP1 ADDRESS SWAP1 PUSH1 0x0 SWAP1 PUSH1 0x4 ADD PUSH2 0x5632 JUMP JUMPDEST PUSH1 0x0 PUSH1 0x40 MLOAD DUP1 DUP4 SUB DUP2 PUSH1 0x0 DUP8 DUP1 EXTCODESIZE ISZERO DUP1 ISZERO PUSH2 0x2128 JUMPI PUSH1 0x0 DUP1 REVERT JUMPDEST POP GAS CALL ISZERO DUP1 ISZERO PUSH2 0x213C JUMPI RETURNDATASIZE PUSH1 0x0 DUP1 RETURNDATACOPY RETURNDATASIZE PUSH1 0x0 REVERT JUMPDEST POP POP POP POP POP POP JUMP JUMPDEST DUP2 MLOAD PUSH1 0x40 MLOAD PUSH4 0x140E25AD PUSH1 0xE3 SHL DUP2 MSTORE PUSH1 0x0 SWAP2 PUSH1 0x1 PUSH1 0x1 PUSH1 0xA0 SHL SUB AND SWAP1 PUSH4 0xA0712D68 SWAP1 PUSH2 0x2174 SWAP1 DUP6 SWAP1 PUSH1 0x4 ADD PUSH2 0x5690 JUMP JUMPDEST PUSH1 0x20 PUSH1 0x40 MLOAD DUP1 DUP4 SUB DUP2 PUSH1 0x0 DUP8 DUP1 EXTCODESIZE ISZERO DUP1 ISZERO PUSH2 0x218E JUMPI PUSH1 0x0 DUP1 REVERT JUMPDEST POP GAS CALL ISZERO DUP1 ISZERO PUSH2 0x21A2 JUMPI RETURNDATASIZE PUSH1 0x0 DUP1 RETURNDATACOPY RETURNDATASIZE PUSH1 0x0 REVERT JUMPDEST POP POP POP POP PUSH1 0x40 MLOAD RETURNDATASIZE PUSH1 0x1F NOT PUSH1 0x1F DUP3 ADD AND DUP3 ADD DUP1 PUSH1 0x40 MSTORE POP DUP2 ADD SWAP1 PUSH2 0x21C6 SWAP2 SWAP1 PUSH2 0x52B8 JUMP JUMPDEST SWAP1 POP DUP1 ISZERO PUSH2 0x21E6 JUMPI PUSH1 0x40 MLOAD PUSH3 0x461BCD PUSH1 0xE5 SHL DUP2 MSTORE PUSH1 0x4 ADD PUSH2 0x35A SWAP1 PUSH2 0x56C9 JUMP JUMPDEST POP POP POP JUMP JUMPDEST DUP2 PUSH1 0x0 ADD MLOAD PUSH1 0x1 PUSH1 0x1 PUSH1 0xA0 SHL SUB AND PUSH4 0x1249C58B DUP3 PUSH1 0x40 MLOAD DUP3 PUSH4 0xFFFFFFFF AND PUSH1 0xE0 SHL DUP2 MSTORE PUSH1 0x4 ADD PUSH1 0x0 PUSH1 0x40 MLOAD DUP1 DUP4 SUB DUP2 DUP6 DUP9 DUP1 EXTCODESIZE ISZERO DUP1 ISZERO PUSH2 0x222A JUMPI PUSH1 0x0 DUP1 REVERT JUMPDEST POP GAS CALL ISZERO DUP1 ISZERO PUSH2 0x223E JUMPI RETURNDATASIZE PUSH1 0x0 DUP1 RETURNDATACOPY RETURNDATASIZE PUSH1 0x0 REVERT JUMPDEST POP POP POP POP POP POP POP JUMP JUMPDEST PUSH1 0x0 DUP3 DUP3 GT ISZERO PUSH2 0x229E JUMPI PUSH1 0x40 DUP1 MLOAD PUSH3 0x461BCD PUSH1 0xE5 SHL DUP2 MSTORE PUSH1 0x20 PUSH1 0x4 DUP3 ADD MSTORE PUSH1 0x1E PUSH1 0x24 DUP3 ADD MSTORE PUSH32 0x536166654D6174683A207375627472616374696F6E206F766572666C6F770000 PUSH1 0x44 DUP3 ADD MSTORE SWAP1 MLOAD SWAP1 DUP2 SWAP1 SUB PUSH1 0x64 ADD SWAP1 REVERT JUMPDEST POP SWAP1 SUB SWAP1 JUMP JUMPDEST PUSH1 0x0 DUP1 PUSH2 0x43C PUSH1 0x6 PUSH2 0x22BF JUMP JUMPDEST PUSH1 0x8 DUP2 SWAP1 SHR PUSH1 0xFF SWAP1 SWAP2 AND SHL SWAP1 JUMP JUMPDEST PUSH1 0x0 PUSH3 0xF4240 DUP3 PUSH1 0x1A DUP2 GT ISZERO PUSH2 0x22D1 JUMPI INVALID JUMPDEST ADD SWAP3 SWAP2 POP POP JUMP JUMPDEST PUSH1 0x0 DUP1 PUSH2 0x43C PUSH1 0x2 PUSH2 0x22BF JUMP JUMPDEST PUSH2 0x22F2 DUP2 PUSH2 0xFFFF AND PUSH2 0xCDA JUMP JUMPDEST PUSH1 0x1 PUSH1 0x1 PUSH1 0xA0 SHL SUB AND PUSH1 0xC0 DUP4 ADD DUP2 SWAP1 MSTORE PUSH1 0x0 SWAP1 DUP2 SWAP1 DUP2 SWAP1 PUSH2 0x2312 SWAP1 PUSH2 0x17F5 JUMP JUMPDEST SWAP5 POP SWAP5 POP SWAP5 POP POP POP PUSH1 0x0 PUSH2 0x2329 DUP7 PUSH1 0xC0 ADD MLOAD PUSH2 0x154D JUMP JUMPDEST POP POP PUSH1 0x80 DUP8 ADD DUP6 SWAP1 MSTORE PUSH1 0x40 DUP8 ADD DUP2 SWAP1 MSTORE PUSH1 0x1 PUSH1 0x1 PUSH1 0xD8 SHL SUB NOT DUP4 AND PUSH1 0xA0 DUP9 ADD MSTORE PUSH1 0xC0 DUP8 ADD MLOAD SWAP1 SWAP2 POP PUSH2 0x235D SWAP1 DUP5 PUSH1 0x0 PUSH2 0x2AB5 JUMP JUMPDEST PUSH1 0x20 DUP8 ADD MSTORE PUSH1 0xC0 DUP7 ADD MLOAD PUSH2 0x2375 SWAP1 PUSH2 0xFFFF DUP8 AND PUSH2 0x16E3 JUMP JUMPDEST POP POP POP PUSH1 0x60 SWAP1 SWAP7 ADD SWAP6 SWAP1 SWAP6 MSTORE POP POP POP POP POP JUMP JUMPDEST PUSH2 0x2390 PUSH2 0x5106 JUMP JUMPDEST PUSH1 0x0 PUSH2 0x239F DUP4 PUSH2 0xFFFF AND PUSH2 0x2B48 JUMP JUMPDEST SWAP1 POP PUSH2 0x855 DUP4 DUP3 PUSH2 0x2B94 JUMP JUMPDEST PUSH1 0x0 DUP2 PUSH1 0x80 ADD MLOAD PUSH1 0x0 EQ ISZERO PUSH2 0x23C2 JUMPI POP PUSH1 0x0 PUSH2 0xD02 JUMP JUMPDEST PUSH1 0x80 DUP3 ADD MLOAD PUSH3 0x76A700 SWAP1 PUSH2 0x22D1 SWAP1 PUSH2 0x2BD7 JUMP JUMPDEST PUSH1 0x20 DUP3 ADD MLOAD MLOAD MLOAD PUSH1 0x0 SWAP1 PUSH1 0x60 SWAP1 DUP1 PUSH8 0xFFFFFFFFFFFFFFFF DUP2 GT DUP1 ISZERO PUSH2 0x23F9 JUMPI PUSH1 0x0 DUP1 REVERT JUMPDEST POP PUSH1 0x40 MLOAD SWAP1 DUP1 DUP3 MSTORE DUP1 PUSH1 0x20 MUL PUSH1 0x20 ADD DUP3 ADD PUSH1 0x40 MSTORE DUP1 ISZERO PUSH2 0x2423 JUMPI DUP2 PUSH1 0x20 ADD PUSH1 0x20 DUP3 MUL DUP1 CALLDATASIZE DUP4 CALLDATACOPY ADD SWAP1 POP JUMPDEST POP SWAP2 POP PUSH2 0x242E PUSH2 0x5132 JUMP JUMPDEST PUSH1 0x0 JUMPDEST DUP3 DUP2 LT ISZERO PUSH2 0x2520 JUMPI DUP7 MLOAD PUSH2 0x244C SWAP1 DUP4 PUSH1 0x1 DUP1 DUP6 ADD SWAP1 DUP11 PUSH2 0x2BF3 JUMP JUMPDEST PUSH1 0x0 DUP8 PUSH1 0x20 ADD MLOAD PUSH1 0x0 ADD MLOAD DUP3 DUP2 MLOAD DUP2 LT PUSH2 0x2462 JUMPI INVALID JUMPDEST PUSH1 0x20 MUL PUSH1 0x20 ADD ADD MLOAD SWAP1 POP PUSH1 0x0 DUP2 PUSH1 0x20 ADD MLOAD SWAP1 POP PUSH1 0x0 DUP1 PUSH2 0x2482 DUP5 DUP8 PUSH2 0x2C66 JUMP JUMPDEST SWAP2 POP SWAP2 POP PUSH2 0x24AB PUSH2 0x24A4 DUP13 PUSH1 0xC0 ADD MLOAD DUP14 PUSH1 0x0 ADD MLOAD PUSH1 0x0 ADD MLOAD PUSH2 0xFFFF AND DUP7 PUSH2 0x2CE1 JUMP JUMPDEST DUP3 SWAP1 PUSH2 0x19E7 JUMP JUMPDEST DUP9 DUP7 DUP2 MLOAD DUP2 LT PUSH2 0x24B7 JUMPI INVALID JUMPDEST PUSH1 0x20 MUL PUSH1 0x20 ADD ADD DUP2 DUP2 MSTORE POP POP PUSH1 0x0 PUSH2 0x2501 PUSH2 0x24FA PUSH2 0x24EE DUP12 DUP10 DUP2 MLOAD DUP2 LT PUSH2 0x24DA JUMPI INVALID JUMPDEST PUSH1 0x20 MUL PUSH1 0x20 ADD ADD MLOAD DUP8 DUP16 DUP13 PUSH1 0xC0 ADD MLOAD PUSH2 0x2D26 JUMP JUMPDEST DUP15 MLOAD PUSH1 0x40 ADD MLOAD SWAP1 PUSH2 0x2654 JUMP JUMPDEST DUP5 SWAP1 PUSH2 0x19E7 JUMP JUMPDEST SWAP1 POP PUSH2 0x250D DUP11 DUP3 PUSH2 0x19E7 JUMP JUMPDEST SWAP10 POP POP PUSH1 0x1 SWAP1 SWAP5 ADD SWAP4 POP PUSH2 0x2431 SWAP3 POP POP POP JUMP JUMPDEST POP POP POP SWAP3 POP SWAP3 SWAP1 POP JUMP JUMPDEST PUSH1 0x0 PUSH1 0x2 DUP3 GT PUSH2 0x253C JUMPI POP PUSH1 0x0 PUSH2 0x547 JUMP JUMPDEST PUSH1 0x0 PUSH2 0x2548 DUP8 DUP8 PUSH2 0x2D6C JUMP JUMPDEST SWAP1 POP DUP1 PUSH2 0x2556 JUMPI SWAP1 POP PUSH2 0x547 JUMP JUMPDEST PUSH1 0x0 PUSH2 0x2561 DUP6 PUSH2 0x2BD7 JUMP JUMPDEST SWAP1 POP DUP6 DUP2 EQ ISZERO PUSH2 0x258B JUMPI POP PUSH21 0x400080000002002000000002000000200000000020 NOT AND SWAP1 POP PUSH2 0x547 JUMP JUMPDEST PUSH1 0x1 JUMPDEST DUP5 DUP2 GT PUSH2 0x25CB JUMPI PUSH1 0x0 PUSH2 0x25A0 DUP3 PUSH2 0x2DA1 JUMP JUMPDEST DUP4 ADD SWAP1 POP PUSH1 0x0 PUSH2 0x25B0 DUP10 DUP4 PUSH2 0x2E45 JUMP JUMPDEST POP SWAP1 POP PUSH2 0x25BF DUP6 DUP3 PUSH1 0x0 PUSH2 0x2F50 JUMP JUMPDEST SWAP5 POP POP POP PUSH1 0x1 ADD PUSH2 0x258E JUMP JUMPDEST POP DUP2 SWAP3 POP POP POP PUSH2 0x547 JUMP JUMPDEST PUSH1 0x0 DUP1 PUSH1 0x0 PUSH2 0x25E4 DUP5 PUSH2 0x2F9B JUMP JUMPDEST SWAP1 POP JUMPDEST DUP1 ISZERO PUSH2 0x2647 JUMPI PUSH1 0x0 PUSH2 0x25F9 DUP10 DUP4 PUSH2 0x2FC0 JUMP JUMPDEST SWAP1 POP PUSH1 0x0 PUSH2 0x260B DUP13 DUP13 DUP5 DUP13 DUP13 DUP13 PUSH2 0x3073 JUMP JUMPDEST SWAP1 POP PUSH2 0x2617 DUP6 DUP3 PUSH2 0x19E7 JUMP JUMPDEST SWAP5 POP PUSH1 0x0 DUP2 SLT ISZERO PUSH2 0x2627 JUMPI PUSH1 0x1 SWAP4 POP JUMPDEST PUSH2 0x2633 DUP7 DUP5 PUSH1 0x0 PUSH2 0x2F50 JUMP JUMPDEST SWAP6 POP PUSH2 0x263E DUP7 PUSH2 0x2F9B JUMP JUMPDEST SWAP3 POP POP POP PUSH2 0x25E7 JUMP JUMPDEST POP SWAP8 POP SWAP8 SWAP6 POP POP POP POP POP POP JUMP JUMPDEST PUSH1 0x0 DUP1 PUSH2 0x3AE DUP5 PUSH1 0x20 ADD MLOAD PUSH2 0x53C DUP7 PUSH1 0x40 ADD MLOAD PUSH2 0x536 PUSH5 0x2540BE400 DUP9 PUSH2 0xF61 SWAP1 SWAP2 SWAP1 PUSH4 0xFFFFFFFF AND JUMP JUMPDEST PUSH1 0x0 PUSH4 0x5F5E100 DUP4 PUSH1 0x40 ADD MLOAD EQ ISZERO PUSH2 0x2698 JUMPI POP DUP1 PUSH2 0x43C JUMP JUMPDEST PUSH2 0x855 PUSH4 0x5F5E100 PUSH2 0x53C DUP6 PUSH1 0x40 ADD MLOAD DUP6 PUSH2 0xF61 SWAP1 SWAP2 SWAP1 PUSH4 0xFFFFFFFF AND JUMP JUMPDEST PUSH1 0x0 DUP1 PUSH1 0x2 DUP7 PUSH1 0x60 ADD MLOAD PUSH1 0x5 DUP2 GT ISZERO PUSH2 0x26CC JUMPI INVALID JUMPDEST EQ ISZERO PUSH2 0x26E4 JUMPI PUSH2 0x26DD DUP7 DUP6 DUP6 PUSH2 0x30C8 JUMP JUMPDEST SWAP1 POP PUSH2 0x2741 JUMP JUMPDEST PUSH1 0x0 PUSH2 0x26EF DUP7 PUSH2 0x20BE JUMP JUMPDEST SWAP1 POP PUSH1 0x5 DUP8 PUSH1 0x60 ADD MLOAD PUSH1 0x5 DUP2 GT ISZERO PUSH2 0x2703 JUMPI INVALID JUMPDEST EQ ISZERO PUSH2 0x271B JUMPI PUSH2 0x2714 DUP2 DUP7 DUP7 PUSH2 0x318F JUMP JUMPDEST SWAP2 POP PUSH2 0x273F JUMP JUMPDEST PUSH1 0x1 DUP8 PUSH1 0x60 ADD MLOAD PUSH1 0x5 DUP2 GT ISZERO PUSH2 0x272D JUMPI INVALID JUMPDEST EQ ISZERO PUSH2 0xFE JUMPI PUSH2 0x2714 DUP8 DUP3 DUP8 DUP8 PUSH2 0x3238 JUMP JUMPDEST POP JUMPDEST PUSH2 0x3AA PUSH2 0x274D DUP3 PUSH2 0xFF3 JUMP JUMPDEST PUSH2 0x11BA JUMP JUMPDEST DUP1 PUSH1 0x5 DUP6 PUSH1 0x60 ADD MLOAD PUSH1 0x5 DUP2 GT ISZERO PUSH2 0x2765 JUMPI INVALID JUMPDEST EQ ISZERO PUSH2 0x278A JUMPI PUSH1 0x0 PUSH2 0x2776 DUP5 PUSH2 0x20BE JUMP JUMPDEST SWAP1 POP PUSH2 0x2786 DUP2 PUSH1 0x0 ADD MLOAD DUP5 PUSH2 0x3336 JUMP JUMPDEST SWAP3 POP POP JUMPDEST PUSH1 0x0 DUP3 SGT ISZERO PUSH2 0x27B6 JUMPI PUSH1 0x0 PUSH2 0x27A0 DUP7 DUP7 DUP6 PUSH2 0x33BC JUMP JUMPDEST SWAP1 POP DUP6 PUSH1 0x20 ADD MLOAD ISZERO PUSH2 0x27B0 JUMPI DUP1 SWAP2 POP JUMPDEST POP PUSH2 0x3AE JUMP JUMPDEST PUSH1 0x3 DUP6 PUSH1 0x60 ADD MLOAD PUSH1 0x5 DUP2 GT ISZERO PUSH2 0x27C8 JUMPI INVALID JUMPDEST EQ ISZERO PUSH2 0x27E5 JUMPI PUSH2 0x27E0 DUP5 PUSH2 0x27DB DUP5 PUSH2 0x11BA JUMP JUMPDEST PUSH2 0x34A5 JUMP JUMPDEST PUSH2 0x3AE JUMP JUMPDEST DUP5 MLOAD PUSH2 0x3AE SWAP1 DUP6 PUSH2 0x27F5 DUP6 PUSH2 0x11BA JUMP JUMPDEST PUSH2 0x34DB JUMP JUMPDEST PUSH1 0x0 DUP1 PUSH1 0x0 PUSH2 0x2809 DUP7 DUP6 PUSH2 0x3552 JUMP JUMPDEST POP SWAP2 POP SWAP2 POP PUSH1 0x0 PUSH2 0x2818 PUSH2 0x1EF1 JUMP JUMPDEST PUSH1 0x1 PUSH1 0x1 PUSH1 0xA0 SHL SUB DUP9 AND PUSH1 0x0 SWAP1 DUP2 MSTORE PUSH1 0x20 DUP3 SWAP1 MSTORE PUSH1 0x40 DUP2 KECCAK256 SWAP2 SWAP3 POP PUSH2 0x283D DUP6 DUP10 PUSH2 0x19E7 JUMP JUMPDEST SWAP1 POP DUP1 PUSH1 0x0 SGT ISZERO DUP1 ISZERO PUSH2 0x2856 JUMPI POP PUSH1 0x1 PUSH1 0x1 PUSH1 0x60 SHL SUB DUP2 LT JUMPDEST PUSH2 0x285F JUMPI PUSH1 0x0 DUP1 REVERT JUMPDEST DUP2 SLOAD PUSH12 0xFFFFFFFFFFFFFFFFFFFFFFFF NOT AND PUSH1 0x1 PUSH1 0x1 PUSH1 0x60 SHL SUB DUP3 AND OR PUSH16 0xFFFFFFFFFFFFFFFFFFFFFFFFFFFFFFFF PUSH1 0x60 SHL NOT AND PUSH1 0x1 PUSH1 0x60 SHL PUSH1 0x1 PUSH1 0x1 PUSH1 0x80 SHL SUB DUP7 AND MUL OR DUP3 SSTORE PUSH4 0xFFFFFFFF DUP8 LT PUSH2 0x28B4 JUMPI PUSH1 0x0 DUP1 REVERT JUMPDEST POP DUP1 SLOAD PUSH4 0xFFFFFFFF DUP8 AND PUSH1 0x1 PUSH1 0xE0 SHL MUL PUSH1 0x1 PUSH1 0x1 PUSH1 0xE0 SHL SUB SWAP1 SWAP2 AND OR SWAP1 SSTORE POP SWAP2 POP POP SWAP4 SWAP3 POP POP POP JUMP JUMPDEST PUSH1 0xE0 DUP5 ADD MLOAD PUSH1 0x0 SWAP1 ISZERO PUSH2 0x299E JUMPI PUSH20 0x0 PUSH4 0xE0C01A72 DUP6 PUSH2 0x2912 DUP9 PUSH1 0x40 ADD MLOAD PUSH2 0xFE0 JUMP JUMPDEST DUP9 PUSH1 0xE0 ADD MLOAD DUP10 PUSH2 0x100 ADD MLOAD PUSH1 0x40 MLOAD DUP6 PUSH4 0xFFFFFFFF AND PUSH1 0xE0 SHL DUP2 MSTORE PUSH1 0x4 ADD PUSH2 0x293C SWAP5 SWAP4 SWAP3 SWAP2 SWAP1 PUSH2 0x565F JUMP JUMPDEST PUSH1 0x20 PUSH1 0x40 MLOAD DUP1 DUP4 SUB DUP2 DUP7 DUP1 EXTCODESIZE ISZERO DUP1 ISZERO PUSH2 0x2954 JUMPI PUSH1 0x0 DUP1 REVERT JUMPDEST POP GAS DELEGATECALL ISZERO DUP1 ISZERO PUSH2 0x2968 JUMPI RETURNDATASIZE PUSH1 0x0 DUP1 RETURNDATACOPY RETURNDATASIZE PUSH1 0x0 REVERT JUMPDEST POP POP POP POP PUSH1 0x40 MLOAD RETURNDATASIZE PUSH1 0x1F NOT PUSH1 0x1F DUP3 ADD AND DUP3 ADD DUP1 PUSH1 0x40 MSTORE POP DUP2 ADD SWAP1 PUSH2 0x298C SWAP2 SWAP1 PUSH2 0x52B8 JUMP JUMPDEST PUSH1 0x0 PUSH1 0xE0 DUP8 ADD DUP2 SWAP1 MSTORE PUSH2 0x100 DUP8 ADD MSTORE SWAP1 POP JUMPDEST PUSH2 0x29E0 PUSH2 0x29D9 DUP7 PUSH2 0x100 ADD MLOAD PUSH2 0x29D3 PUSH8 0xDE0B6B3A7640000 PUSH2 0x29CD DUP9 PUSH2 0x29C7 DUP13 PUSH1 0x40 ADD MLOAD PUSH2 0xFE0 JUMP JUMPDEST SWAP1 PUSH2 0x35E8 JUMP JUMPDEST SWAP1 PUSH2 0x3641 JUMP JUMPDEST SWAP1 PUSH2 0x2247 JUMP JUMPDEST DUP3 SWAP1 PUSH2 0x36A8 JUMP JUMPDEST SWAP1 POP PUSH2 0x29F8 PUSH8 0xDE0B6B3A7640000 PUSH2 0x29CD DUP5 DUP7 PUSH2 0x35E8 JUMP JUMPDEST DUP6 PUSH2 0x100 ADD DUP2 DUP2 MSTORE POP POP SWAP5 SWAP4 POP POP POP POP JUMP JUMPDEST PUSH1 0x0 DUP1 PUSH2 0x2A15 PUSH2 0x22D8 JUMP JUMPDEST PUSH1 0x1 PUSH1 0x1 PUSH1 0xA0 SHL SUB DUP5 AND PUSH1 0x0 SWAP1 DUP2 MSTORE PUSH1 0x20 DUP3 SWAP1 MSTORE PUSH1 0x40 SWAP1 KECCAK256 DUP1 SLOAD SWAP2 SWAP3 POP SWAP1 PUSH1 0x1 PUSH1 0xF8 SHL SWAP1 DIV PUSH1 0xFF AND ISZERO PUSH2 0x2A71 JUMPI PUSH2 0x2A4A PUSH2 0x3702 JUMP JUMPDEST PUSH1 0x1 PUSH1 0x1 PUSH1 0xA0 SHL SUB DUP1 DUP7 AND PUSH1 0x0 SWAP1 DUP2 MSTORE PUSH1 0x20 SWAP3 SWAP1 SWAP3 MSTORE PUSH1 0x40 SWAP1 SWAP2 KECCAK256 SLOAD AND SWAP3 POP PUSH2 0xD02 SWAP2 POP POP JUMP JUMPDEST PUSH1 0x0 SWAP3 POP POP POP PUSH2 0xD02 JUMP JUMPDEST PUSH2 0xD52 PUSH20 0xC5E91B01F9B23952821410BE7AA3C45B6429C670 DUP4 DUP4 PUSH2 0x34DB JUMP JUMPDEST PUSH1 0x0 DUP1 PUSH2 0x43C PUSH1 0x7 PUSH2 0x22BF JUMP JUMPDEST PUSH1 0x0 DUP1 PUSH2 0x43C PUSH1 0x13 PUSH2 0x22BF JUMP JUMPDEST PUSH2 0x2ABD PUSH2 0x517A JUMP JUMPDEST PUSH2 0x2AC5 PUSH2 0x517A JUMP JUMPDEST PUSH1 0xFF DUP5 AND PUSH2 0x2AD4 JUMPI SWAP1 POP PUSH2 0x855 JUMP JUMPDEST PUSH2 0x2ADE DUP6 DUP6 PUSH2 0x370F JUMP JUMPDEST DUP2 MSTORE PUSH1 0xFF DUP5 AND PUSH1 0x60 DUP3 ADD MSTORE DUP3 PUSH8 0xFFFFFFFFFFFFFFFF DUP2 GT DUP1 ISZERO PUSH2 0x2B00 JUMPI PUSH1 0x0 DUP1 REVERT JUMPDEST POP PUSH1 0x40 MLOAD SWAP1 DUP1 DUP3 MSTORE DUP1 PUSH1 0x20 MUL PUSH1 0x20 ADD DUP3 ADD PUSH1 0x40 MSTORE DUP1 ISZERO PUSH2 0x2B3A JUMPI DUP2 PUSH1 0x20 ADD JUMPDEST PUSH2 0x2B27 PUSH2 0x51A2 JUMP JUMPDEST DUP2 MSTORE PUSH1 0x20 ADD SWAP1 PUSH1 0x1 SWAP1 SUB SWAP1 DUP2 PUSH2 0x2B1F JUMPI SWAP1 POP JUMPDEST POP PUSH1 0x20 DUP3 ADD MSTORE SWAP5 SWAP4 POP POP POP POP JUMP JUMPDEST PUSH2 0x2B50 PUSH2 0x51E2 JUMP JUMPDEST PUSH1 0x0 DUP1 PUSH1 0x0 PUSH2 0x2B5E DUP6 PUSH2 0x3738 JUMP JUMPDEST PUSH1 0x40 DUP1 MLOAD PUSH1 0x60 DUP2 ADD DUP3 MSTORE PUSH1 0x1 PUSH1 0x1 PUSH1 0xA0 SHL SUB SWAP1 SWAP4 AND DUP4 MSTORE PUSH1 0x20 DUP4 ADD SWAP4 SWAP1 SWAP4 MSTORE PUSH1 0xFF AND PUSH1 0xA EXP SWAP2 DUP2 ADD SWAP2 SWAP1 SWAP2 MSTORE SWAP4 POP POP POP POP SWAP2 SWAP1 POP JUMP JUMPDEST PUSH2 0x2B9C PUSH2 0x5106 JUMP JUMPDEST PUSH1 0x0 PUSH2 0x2BAB DUP5 PUSH2 0xFFFF AND PUSH2 0x37F9 JUMP JUMPDEST PUSH1 0x40 DUP1 MLOAD PUSH1 0x80 DUP2 ADD DUP3 MSTORE PUSH2 0xFFFF SWAP7 SWAP1 SWAP7 AND DUP7 MSTORE PUSH1 0xFF DUP3 AND PUSH1 0x20 DUP8 ADD MSTORE DUP6 ADD SWAP4 SWAP1 SWAP4 MSTORE POP POP PUSH1 0x60 DUP3 ADD MSTORE SWAP1 JUMP JUMPDEST PUSH1 0x0 PUSH3 0x76A700 DUP3 LT ISZERO PUSH2 0x2BE9 JUMPI PUSH1 0x0 DUP1 REVERT JUMPDEST PUSH3 0x76A700 DUP3 PUSH2 0x1954 JUMP JUMPDEST DUP3 PUSH1 0x1 GT ISZERO DUP1 ISZERO PUSH2 0x2C08 JUMPI POP DUP5 PUSH1 0x20 ADD MLOAD DUP4 GT ISZERO JUMPDEST PUSH2 0x2C24 JUMPI PUSH1 0x40 MLOAD PUSH3 0x461BCD PUSH1 0xE5 SHL DUP2 MSTORE PUSH1 0x4 ADD PUSH2 0x35A SWAP1 PUSH2 0x57EA JUMP JUMPDEST PUSH1 0x0 PUSH2 0x2C41 PUSH2 0x2C32 DUP6 PUSH2 0x2DA1 JUMP JUMPDEST PUSH2 0x2C3B DUP5 PUSH2 0x2BD7 JUMP JUMPDEST SWAP1 PUSH2 0x36A8 JUMP JUMPDEST SWAP1 POP PUSH2 0x213C DUP7 PUSH1 0x0 ADD MLOAD PUSH2 0xFFFF AND DUP3 DUP5 DUP7 PUSH2 0x2C5B DUP12 PUSH2 0x3816 JUMP JUMPDEST DUP11 SWAP5 SWAP4 SWAP3 SWAP2 SWAP1 PUSH2 0x382A JUMP JUMPDEST PUSH1 0x0 DUP1 PUSH2 0x2C76 DUP5 PUSH1 0x40 ADD MLOAD PUSH2 0x384B JUMP JUMPDEST DUP1 ISZERO PUSH2 0x2C87 JUMPI POP PUSH1 0x0 DUP5 PUSH1 0x60 ADD MLOAD SLT ISZERO JUMPDEST PUSH2 0x2C90 JUMPI PUSH1 0x0 DUP1 REVERT JUMPDEST PUSH2 0x2CB3 DUP4 PUSH1 0x80 ADD MLOAD PUSH2 0x53C DUP7 PUSH1 0x60 ADD MLOAD DUP7 PUSH1 0x60 ADD MLOAD PUSH2 0xF61 SWAP1 SWAP2 SWAP1 PUSH4 0xFFFFFFFF AND JUMP JUMPDEST SWAP2 POP PUSH2 0x2CD8 DUP4 PUSH1 0x80 ADD MLOAD PUSH2 0x53C DUP7 PUSH1 0x60 ADD MLOAD DUP7 PUSH1 0x40 ADD MLOAD PUSH2 0xF61 SWAP1 SWAP2 SWAP1 PUSH4 0xFFFFFFFF AND JUMP JUMPDEST SWAP1 POP SWAP3 POP SWAP3 SWAP1 POP JUMP JUMPDEST PUSH1 0x0 DUP1 PUSH2 0x2CEC PUSH2 0x3861 JUMP JUMPDEST PUSH1 0x1 PUSH1 0x1 PUSH1 0xA0 SHL SUB DUP7 AND PUSH1 0x0 SWAP1 DUP2 MSTORE PUSH1 0x20 SWAP2 DUP3 MSTORE PUSH1 0x40 DUP1 DUP3 KECCAK256 DUP8 DUP4 MSTORE DUP4 MSTORE DUP1 DUP3 KECCAK256 DUP7 DUP4 MSTORE SWAP1 SWAP3 MSTORE KECCAK256 SLOAD PUSH1 0xF SWAP1 DUP2 SIGNEXTEND SWAP1 SIGNEXTEND SWAP2 POP POP SWAP4 SWAP3 POP POP POP JUMP JUMPDEST PUSH1 0x0 DUP5 PUSH2 0x2D35 JUMPI POP PUSH1 0x0 PUSH2 0x3AE JUMP JUMPDEST PUSH1 0x0 PUSH2 0x2D41 DUP6 DUP6 PUSH2 0x2247 JUMP JUMPDEST SWAP1 POP PUSH1 0x0 PUSH2 0x2D4F DUP3 DUP6 PUSH2 0x386E JUMP JUMPDEST SWAP1 POP PUSH4 0x3B9ACA00 DUP2 SGT ISZERO PUSH2 0x2D62 JUMPI PUSH1 0x0 DUP1 REVERT JUMPDEST PUSH2 0x16D8 DUP8 DUP3 PUSH2 0x38DB JUMP JUMPDEST PUSH1 0x0 DUP1 PUSH2 0x2D77 PUSH2 0x38F4 JUMP JUMPDEST PUSH1 0x1 PUSH1 0x1 PUSH1 0xA0 SHL SUB DUP6 AND PUSH1 0x0 SWAP1 DUP2 MSTORE PUSH1 0x20 SWAP2 DUP3 MSTORE PUSH1 0x40 DUP1 DUP3 KECCAK256 DUP7 DUP4 MSTORE SWAP1 SWAP3 MSTORE KECCAK256 SLOAD SWAP2 POP POP SWAP3 SWAP2 POP POP JUMP JUMPDEST PUSH1 0x0 DUP2 PUSH1 0x1 EQ ISZERO PUSH2 0x2DB6 JUMPI POP PUSH3 0x76A700 PUSH2 0xD02 JUMP JUMPDEST DUP2 PUSH1 0x2 EQ ISZERO PUSH2 0x2DC9 JUMPI POP PUSH3 0xED4E00 PUSH2 0xD02 JUMP JUMPDEST DUP2 PUSH1 0x3 EQ ISZERO PUSH2 0x2DDD JUMPI POP PUSH4 0x1DA9C00 PUSH2 0xD02 JUMP JUMPDEST DUP2 PUSH1 0x4 EQ ISZERO PUSH2 0x2DF1 JUMPI POP PUSH4 0x3B53800 PUSH2 0xD02 JUMP JUMPDEST DUP2 PUSH1 0x5 EQ ISZERO PUSH2 0x2E05 JUMPI POP PUSH4 0x9450C00 PUSH2 0xD02 JUMP JUMPDEST DUP2 PUSH1 0x6 EQ ISZERO PUSH2 0x2E19 JUMPI POP PUSH4 0x128A1800 PUSH2 0xD02 JUMP JUMPDEST DUP2 PUSH1 0x7 EQ ISZERO PUSH2 0x2E2D JUMPI POP PUSH4 0x25143000 PUSH2 0xD02 JUMP JUMPDEST PUSH1 0x40 MLOAD PUSH3 0x461BCD PUSH1 0xE5 SHL DUP2 MSTORE PUSH1 0x4 ADD PUSH2 0x35A SWAP1 PUSH2 0x5736 JUMP JUMPDEST PUSH1 0x0 DUP1 PUSH1 0x0 PUSH2 0x2E53 DUP6 PUSH2 0x193C JUMP JUMPDEST SWAP1 POP PUSH3 0x15180 DUP5 MOD ISZERO PUSH2 0x2E6D JUMPI PUSH1 0x0 DUP1 SWAP3 POP SWAP3 POP POP PUSH2 0x2F49 JUMP JUMPDEST DUP4 DUP2 LT PUSH2 0x2E81 JUMPI PUSH1 0x0 DUP1 SWAP3 POP SWAP3 POP POP PUSH2 0x2F49 JUMP JUMPDEST PUSH3 0x15180 DUP2 DUP6 SUB DIV PUSH1 0x5A DUP2 GT PUSH2 0x2E9E JUMPI SWAP3 POP PUSH1 0x1 SWAP2 POP PUSH2 0x2F49 SWAP1 POP JUMP JUMPDEST PUSH2 0x168 DUP2 GT PUSH2 0x2EDD JUMPI PUSH1 0x0 PUSH3 0x15180 PUSH3 0x7E900 DUP5 MOD DIV DUP3 ADD PUSH1 0x59 NOT ADD SWAP1 POP PUSH1 0x6 DUP2 DIV PUSH1 0x5A ADD PUSH1 0x6 DUP3 DUP2 PUSH2 0x2ECD JUMPI INVALID JUMPDEST MOD PUSH1 0x0 EQ SWAP5 POP SWAP5 POP POP POP POP PUSH2 0x2F49 JUMP JUMPDEST PUSH2 0x870 DUP2 GT PUSH2 0x2F0D JUMPI PUSH1 0x0 PUSH3 0x15180 PUSH3 0x278D00 DUP5 MOD DIV DUP3 ADD PUSH2 0x167 NOT ADD SWAP1 POP PUSH1 0x1E DUP2 DIV PUSH1 0x87 ADD PUSH1 0x1E DUP3 DUP2 PUSH2 0x2ECD JUMPI INVALID JUMPDEST PUSH2 0x1DE2 DUP2 GT PUSH2 0x2F3D JUMPI PUSH1 0x0 PUSH3 0x15180 PUSH3 0x76A700 DUP5 MOD DIV DUP3 ADD PUSH2 0x86F NOT ADD SWAP1 POP PUSH1 0x5A DUP2 DIV PUSH1 0xC3 ADD PUSH1 0x5A DUP3 DUP2 PUSH2 0x2ECD JUMPI INVALID JUMPDEST PUSH2 0x100 PUSH1 0x0 SWAP4 POP SWAP4 POP POP POP JUMPDEST SWAP3 POP SWAP3 SWAP1 POP JUMP JUMPDEST PUSH1 0x0 PUSH1 0x1 DUP4 LT ISZERO DUP1 ISZERO PUSH2 0x2F65 JUMPI POP PUSH2 0x100 DUP4 GT ISZERO JUMPDEST PUSH2 0x2F6E JUMPI PUSH1 0x0 DUP1 REVERT JUMPDEST DUP2 ISZERO PUSH2 0x2F87 JUMPI POP PUSH1 0x1 PUSH1 0xFF SHL PUSH1 0x0 NOT DUP4 ADD SHR DUP4 OR PUSH2 0x855 JUMP JUMPDEST POP PUSH1 0x1 PUSH1 0xFF SHL PUSH1 0x0 NOT DUP4 ADD SHR NOT DUP4 AND PUSH2 0x855 JUMP JUMPDEST PUSH1 0x0 DUP2 PUSH2 0x2FAA JUMPI POP PUSH1 0x0 PUSH2 0xD02 JUMP JUMPDEST PUSH2 0x2FB3 DUP3 PUSH2 0x3901 JUMP JUMPDEST PUSH1 0xFF SUB PUSH1 0x1 ADD SWAP1 POP SWAP2 SWAP1 POP JUMP JUMPDEST PUSH1 0x0 DUP2 PUSH2 0x2FCC JUMPI PUSH1 0x0 DUP1 REVERT JUMPDEST PUSH2 0x100 DUP3 GT ISZERO PUSH2 0x2FDB JUMPI PUSH1 0x0 DUP1 REVERT JUMPDEST PUSH1 0x0 PUSH2 0x2FE6 DUP5 PUSH2 0x193C JUMP JUMPDEST SWAP1 POP PUSH1 0x0 PUSH1 0x5A DUP5 GT PUSH2 0x3001 JUMPI POP PUSH3 0x15180 DUP4 MUL ADD SWAP1 POP PUSH2 0x43C JUMP JUMPDEST PUSH1 0x87 DUP5 GT PUSH2 0x3029 JUMPI POP PUSH1 0x59 NOT DUP4 ADD PUSH3 0x7E900 SWAP1 DUP2 MUL SWAP1 DUP3 MOD SWAP1 SWAP2 SUB ADD PUSH3 0x76A700 ADD SWAP1 POP PUSH2 0x43C JUMP JUMPDEST PUSH1 0xC3 DUP5 GT PUSH2 0x3052 JUMPI POP PUSH1 0x86 NOT DUP4 ADD PUSH3 0x278D00 SWAP1 DUP2 MUL SWAP1 DUP3 MOD SWAP1 SWAP2 SUB ADD PUSH4 0x1DA9C00 ADD SWAP1 POP PUSH2 0x43C JUMP JUMPDEST POP PUSH1 0xC2 NOT DUP4 ADD PUSH3 0x76A700 SWAP1 DUP2 MUL SWAP1 DUP3 MOD SWAP1 SWAP2 SUB ADD PUSH4 0xB1FA800 ADD SWAP1 POP PUSH2 0x43C JUMP JUMPDEST PUSH1 0x0 DUP1 PUSH2 0x3081 DUP9 DUP9 DUP9 PUSH2 0x2CE1 JUMP JUMPDEST SWAP1 POP DUP5 DUP7 GT PUSH2 0x3091 JUMPI SWAP1 POP PUSH2 0x1925 JUMP JUMPDEST PUSH1 0x0 PUSH2 0x309E DUP6 DUP9 DUP9 PUSH2 0x399A JUMP JUMPDEST SWAP1 POP DUP4 ISZERO PUSH2 0x30BC JUMPI PUSH2 0x30B3 DUP6 DUP4 DUP10 DUP10 DUP6 PUSH2 0x3A80 JUMP JUMPDEST SWAP3 POP POP POP PUSH2 0x1925 JUMP JUMPDEST PUSH2 0x30B3 DUP3 DUP9 DUP9 DUP5 PUSH2 0x2D26 JUMP JUMPDEST DUP3 MLOAD PUSH1 0x40 MLOAD PUSH4 0xDB006A75 PUSH1 0xE0 SHL DUP2 MSTORE PUSH1 0x0 SWAP2 SELFBALANCE SWAP2 DUP4 SWAP2 PUSH1 0x1 PUSH1 0x1 PUSH1 0xA0 SHL SUB AND SWAP1 PUSH4 0xDB006A75 SWAP1 PUSH2 0x30FC SWAP1 DUP8 SWAP1 PUSH1 0x4 ADD PUSH2 0x5690 JUMP JUMPDEST PUSH1 0x20 PUSH1 0x40 MLOAD DUP1 DUP4 SUB DUP2 PUSH1 0x0 DUP8 DUP1 EXTCODESIZE ISZERO DUP1 ISZERO PUSH2 0x3116 JUMPI PUSH1 0x0 DUP1 REVERT JUMPDEST POP GAS CALL ISZERO DUP1 ISZERO PUSH2 0x312A JUMPI RETURNDATASIZE PUSH1 0x0 DUP1 RETURNDATACOPY RETURNDATASIZE PUSH1 0x0 REVERT JUMPDEST POP POP POP POP PUSH1 0x40 MLOAD RETURNDATASIZE PUSH1 0x1F NOT PUSH1 0x1F DUP3 ADD AND DUP3 ADD DUP1 PUSH1 0x40 MSTORE POP DUP2 ADD SWAP1 PUSH2 0x314E SWAP2 SWAP1 PUSH2 0x52B8 JUMP JUMPDEST SWAP1 POP DUP1 ISZERO PUSH2 0x316E JUMPI PUSH1 0x40 MLOAD PUSH3 0x461BCD PUSH1 0xE5 SHL DUP2 MSTORE PUSH1 0x4 ADD PUSH2 0x35A SWAP1 PUSH2 0x56E7 JUMP JUMPDEST SELFBALANCE PUSH2 0x3179 DUP2 DUP5 PUSH2 0x2247 JUMP JUMPDEST SWAP4 POP PUSH2 0x3185 DUP7 DUP6 PUSH2 0x34A5 JUMP JUMPDEST POP POP POP SWAP4 SWAP3 POP POP POP JUMP JUMPDEST PUSH1 0x0 PUSH2 0x31AA PUSH2 0x542 DUP6 PUSH1 0x0 ADD MLOAD PUSH2 0x31A5 DUP6 PUSH2 0xFF3 JUMP JUMPDEST PUSH2 0x3336 JUMP JUMPDEST SWAP1 POP PUSH2 0x31B4 PUSH2 0x2AA8 JUMP JUMPDEST SLOAD DUP5 MLOAD PUSH1 0x40 MLOAD PUSH4 0x1A4CA37B PUSH1 0xE2 SHL DUP2 MSTORE PUSH1 0x1 PUSH1 0x1 PUSH1 0xA0 SHL SUB SWAP1 SWAP3 AND SWAP2 PUSH4 0x69328DEC SWAP2 PUSH2 0x31E6 SWAP2 DUP6 SWAP1 DUP9 SWAP1 PUSH1 0x4 ADD PUSH2 0x560F JUMP JUMPDEST PUSH1 0x20 PUSH1 0x40 MLOAD DUP1 DUP4 SUB DUP2 PUSH1 0x0 DUP8 DUP1 EXTCODESIZE ISZERO DUP1 ISZERO PUSH2 0x3200 JUMPI PUSH1 0x0 DUP1 REVERT JUMPDEST POP GAS CALL ISZERO DUP1 ISZERO PUSH2 0x3214 JUMPI RETURNDATASIZE PUSH1 0x0 DUP1 RETURNDATACOPY RETURNDATASIZE PUSH1 0x0 REVERT JUMPDEST POP POP POP POP PUSH1 0x40 MLOAD RETURNDATASIZE PUSH1 0x1F NOT PUSH1 0x1F DUP3 ADD AND DUP3 ADD DUP1 PUSH1 0x40 MSTORE POP DUP2 ADD SWAP1 PUSH2 0x853 SWAP2 SWAP1 PUSH2 0x52B8 JUMP JUMPDEST DUP3 MLOAD PUSH1 0x0 SWAP1 DUP2 SWAP1 PUSH2 0x3251 SWAP1 ADDRESS PUSH4 0x70A08231 PUSH1 0xE0 SHL PUSH2 0x1FAC JUMP JUMPDEST SWAP1 POP PUSH1 0x0 DUP7 PUSH1 0x0 ADD MLOAD PUSH1 0x1 PUSH1 0x1 PUSH1 0xA0 SHL SUB AND PUSH4 0xDB006A75 DUP6 PUSH1 0x40 MLOAD DUP3 PUSH4 0xFFFFFFFF AND PUSH1 0xE0 SHL DUP2 MSTORE PUSH1 0x4 ADD PUSH2 0x3285 SWAP2 SWAP1 PUSH2 0x5690 JUMP JUMPDEST PUSH1 0x20 PUSH1 0x40 MLOAD DUP1 DUP4 SUB DUP2 PUSH1 0x0 DUP8 DUP1 EXTCODESIZE ISZERO DUP1 ISZERO PUSH2 0x329F JUMPI PUSH1 0x0 DUP1 REVERT JUMPDEST POP GAS CALL ISZERO DUP1 ISZERO PUSH2 0x32B3 JUMPI RETURNDATASIZE PUSH1 0x0 DUP1 RETURNDATACOPY RETURNDATASIZE PUSH1 0x0 REVERT JUMPDEST POP POP POP POP PUSH1 0x40 MLOAD RETURNDATASIZE PUSH1 0x1F NOT PUSH1 0x1F DUP3 ADD AND DUP3 ADD DUP1 PUSH1 0x40 MSTORE POP DUP2 ADD SWAP1 PUSH2 0x32D7 SWAP2 SWAP1 PUSH2 0x52B8 JUMP JUMPDEST SWAP1 POP DUP1 ISZERO PUSH2 0x32F7 JUMPI PUSH1 0x40 MLOAD PUSH3 0x461BCD PUSH1 0xE5 SHL DUP2 MSTORE PUSH1 0x4 ADD PUSH2 0x35A SWAP1 PUSH2 0x56E7 JUMP JUMPDEST DUP6 MLOAD PUSH1 0x0 SWAP1 PUSH2 0x330E SWAP1 ADDRESS PUSH4 0x70A08231 PUSH1 0xE0 SHL PUSH2 0x1FAC JUMP JUMPDEST SWAP1 POP PUSH2 0x331A DUP2 DUP5 PUSH2 0x2247 JUMP JUMPDEST SWAP4 POP PUSH2 0x332B DUP8 PUSH1 0x0 ADD MLOAD DUP8 DUP7 PUSH2 0x34DB JUMP JUMPDEST POP POP POP SWAP5 SWAP4 POP POP POP POP JUMP JUMPDEST PUSH1 0x0 DUP2 PUSH2 0x3345 JUMPI POP PUSH1 0x0 PUSH2 0x43C JUMP JUMPDEST PUSH1 0x0 PUSH2 0x3350 DUP5 PUSH2 0x3B14 JUMP JUMPDEST SWAP1 POP PUSH1 0x0 PUSH2 0x335D DUP5 PUSH2 0x3B9F JUMP JUMPDEST SWAP1 POP DUP2 PUSH12 0x19D971E4FE8401E74000001 PUSH1 0x1 PUSH1 0xFF SHL SUB DUP2 PUSH2 0x337A JUMPI INVALID JUMPDEST SDIV DUP2 SGT ISZERO PUSH2 0x3387 JUMPI PUSH1 0x0 DUP1 REVERT JUMPDEST PUSH12 0x33B2E3C9FD0803CE8000000 PUSH12 0x19D971E4FE8401E74000000 DUP4 DUP4 MUL ADD SDIV PUSH1 0x0 DUP6 SGT PUSH2 0x547 JUMPI PUSH2 0x33B7 DUP2 PUSH2 0x11BA JUMP JUMPDEST PUSH2 0x1925 JUMP JUMPDEST PUSH1 0x0 DUP1 DUP1 DUP1 PUSH1 0x5 DUP8 PUSH1 0x60 ADD MLOAD PUSH1 0x5 DUP2 GT ISZERO PUSH2 0x33D3 JUMPI INVALID JUMPDEST EQ PUSH2 0x33E5 JUMPI PUSH4 0x70A08231 PUSH1 0xE0 SHL PUSH2 0x33EE JUMP JUMPDEST PUSH4 0xED1279F PUSH1 0xE1 SHL JUMPDEST SWAP1 POP DUP7 PUSH1 0x20 ADD MLOAD ISZERO PUSH2 0x340A JUMPI DUP7 MLOAD PUSH2 0x3407 SWAP1 ADDRESS DUP4 PUSH2 0x1FAC JUMP JUMPDEST SWAP3 POP JUMPDEST DUP7 MLOAD PUSH2 0x3417 SWAP1 DUP8 DUP8 PUSH2 0x3BC0 JUMP JUMPDEST DUP7 PUSH1 0x20 ADD MLOAD DUP1 PUSH2 0x342B JUMPI POP PUSH1 0x0 DUP8 PUSH1 0x80 ADD MLOAD GT JUMPDEST ISZERO PUSH2 0x3440 JUMPI DUP7 MLOAD PUSH2 0x343D SWAP1 ADDRESS DUP4 PUSH2 0x1FAC JUMP JUMPDEST SWAP2 POP JUMPDEST PUSH1 0x80 DUP8 ADD MLOAD ISZERO PUSH2 0x347B JUMPI PUSH1 0x0 PUSH2 0x345E DUP9 PUSH2 0x3459 DUP6 PUSH2 0xFF3 JUMP JUMPDEST PUSH2 0x15BC JUMP JUMPDEST SWAP1 POP PUSH2 0x346D DUP9 PUSH1 0x80 ADD MLOAD PUSH2 0xFF3 JUMP JUMPDEST DUP2 SGT ISZERO PUSH2 0x3479 JUMPI PUSH1 0x0 DUP1 REVERT JUMPDEST POP JUMPDEST DUP7 PUSH1 0x20 ADD MLOAD ISZERO PUSH2 0x349C JUMPI PUSH2 0x3492 PUSH2 0x16D3 DUP4 DUP6 PUSH2 0x2247 JUMP JUMPDEST SWAP4 POP POP POP POP PUSH2 0x855 JUMP JUMPDEST PUSH2 0x3492 DUP6 PUSH2 0xFF3 JUMP JUMPDEST PUSH1 0x40 MLOAD PUSH1 0x1 PUSH1 0x1 PUSH1 0xA0 SHL SUB DUP4 AND SWAP1 DUP3 ISZERO PUSH2 0x8FC MUL SWAP1 DUP4 SWAP1 PUSH1 0x0 DUP2 DUP2 DUP2 DUP6 DUP9 DUP9 CALL SWAP4 POP POP POP POP ISZERO DUP1 ISZERO PUSH2 0x21E6 JUMPI RETURNDATASIZE PUSH1 0x0 DUP1 RETURNDATACOPY RETURNDATASIZE PUSH1 0x0 REVERT JUMPDEST DUP3 PUSH1 0x1 PUSH1 0x1 PUSH1 0xA0 SHL SUB AND PUSH4 0xA9059CBB DUP4 DUP4 PUSH1 0x40 MLOAD DUP4 PUSH4 0xFFFFFFFF AND PUSH1 0xE0 SHL DUP2 MSTORE PUSH1 0x4 ADD DUP1 DUP4 PUSH1 0x1 PUSH1 0x1 PUSH1 0xA0 SHL SUB AND DUP2 MSTORE PUSH1 0x20 ADD DUP3 DUP2 MSTORE PUSH1 0x20 ADD SWAP3 POP POP POP PUSH1 0x0 PUSH1 0x40 MLOAD DUP1 DUP4 SUB DUP2 PUSH1 0x0 DUP8 DUP1 EXTCODESIZE ISZERO DUP1 ISZERO PUSH2 0x3532 JUMPI PUSH1 0x0 DUP1 REVERT JUMPDEST POP GAS CALL ISZERO DUP1 ISZERO PUSH2 0x3546 JUMPI RETURNDATASIZE PUSH1 0x0 DUP1 RETURNDATACOPY RETURNDATASIZE PUSH1 0x0 REVERT JUMPDEST POP POP POP POP PUSH2 0x21E6 PUSH2 0x3C18 JUMP JUMPDEST PUSH1 0x0 DUP1 PUSH1 0x0 PUSH2 0x3560 DUP6 PUSH2 0x154D JUMP JUMPDEST SWAP2 SWAP5 POP SWAP3 POP SWAP1 POP DUP1 DUP5 GT DUP1 ISZERO PUSH2 0x3576 JUMPI POP PUSH1 0x0 DUP2 GT JUMPDEST DUP1 ISZERO PUSH2 0x3582 JUMPI POP PUSH1 0x0 DUP4 GT JUMPDEST ISZERO PUSH2 0x35E1 JUMPI PUSH1 0x0 PUSH2 0x3592 DUP7 PUSH2 0x17F5 JUMP JUMPDEST POP POP POP SWAP2 POP POP PUSH1 0x0 PUSH2 0x35BD PUSH2 0x35B4 PUSH4 0x5F5E100 DUP5 PUSH2 0x35E8 SWAP1 SWAP2 SWAP1 PUSH4 0xFFFFFFFF AND JUMP JUMPDEST DUP5 DUP9 SUB DUP8 PUSH2 0x3C85 JUMP JUMPDEST SWAP1 POP PUSH2 0x35C9 DUP5 DUP3 PUSH2 0x36A8 JUMP JUMPDEST SWAP4 POP PUSH1 0x1 PUSH1 0x1 PUSH1 0x80 SHL SUB DUP5 LT PUSH2 0x35DE JUMPI PUSH1 0x0 DUP1 REVERT JUMPDEST POP POP JUMPDEST SWAP3 POP SWAP3 POP SWAP3 JUMP JUMPDEST PUSH1 0x0 DUP3 PUSH2 0x35F7 JUMPI POP PUSH1 0x0 PUSH2 0x43C JUMP JUMPDEST DUP3 DUP3 MUL DUP3 DUP5 DUP3 DUP2 PUSH2 0x3604 JUMPI INVALID JUMPDEST DIV EQ PUSH2 0x855 JUMPI PUSH1 0x40 MLOAD PUSH3 0x461BCD PUSH1 0xE5 SHL DUP2 MSTORE PUSH1 0x4 ADD DUP1 DUP1 PUSH1 0x20 ADD DUP3 DUP2 SUB DUP3 MSTORE PUSH1 0x21 DUP2 MSTORE PUSH1 0x20 ADD DUP1 PUSH2 0x58E4 PUSH1 0x21 SWAP2 CODECOPY PUSH1 0x40 ADD SWAP2 POP POP PUSH1 0x40 MLOAD DUP1 SWAP2 SUB SWAP1 REVERT JUMPDEST PUSH1 0x0 DUP1 DUP3 GT PUSH2 0x3697 JUMPI PUSH1 0x40 DUP1 MLOAD PUSH3 0x461BCD PUSH1 0xE5 SHL DUP2 MSTORE PUSH1 0x20 PUSH1 0x4 DUP3 ADD MSTORE PUSH1 0x1A PUSH1 0x24 DUP3 ADD MSTORE PUSH32 0x536166654D6174683A206469766973696F6E206279207A65726F000000000000 PUSH1 0x44 DUP3 ADD MSTORE SWAP1 MLOAD SWAP1 DUP2 SWAP1 SUB PUSH1 0x64 ADD SWAP1 REVERT JUMPDEST DUP2 DUP4 DUP2 PUSH2 0x36A0 JUMPI INVALID JUMPDEST DIV SWAP4 SWAP3 POP POP POP JUMP JUMPDEST PUSH1 0x0 DUP3 DUP3 ADD DUP4 DUP2 LT ISZERO PUSH2 0x855 JUMPI PUSH1 0x40 DUP1 MLOAD PUSH3 0x461BCD PUSH1 0xE5 SHL DUP2 MSTORE PUSH1 0x20 PUSH1 0x4 DUP3 ADD MSTORE PUSH1 0x1B PUSH1 0x24 DUP3 ADD MSTORE PUSH32 0x536166654D6174683A206164646974696F6E206F766572666C6F770000000000 PUSH1 0x44 DUP3 ADD MSTORE SWAP1 MLOAD SWAP1 DUP2 SWAP1 SUB PUSH1 0x64 ADD SWAP1 REVERT JUMPDEST PUSH1 0x0 DUP1 PUSH2 0x43C PUSH1 0x12 PUSH2 0x22BF JUMP JUMPDEST PUSH1 0x60 PUSH1 0x0 PUSH2 0x371D DUP5 DUP5 PUSH2 0x3CA7 JUMP JUMPDEST SWAP1 POP PUSH1 0x1 DUP2 MLOAD GT PUSH2 0x372F JUMPI SWAP1 POP PUSH2 0x43C JUMP JUMPDEST PUSH2 0x855 DUP2 PUSH2 0x3DC9 JUMP JUMPDEST PUSH1 0x0 DUP1 PUSH1 0x0 DUP1 PUSH1 0x0 PUSH2 0x3749 DUP7 PUSH2 0x3F82 JUMP JUMPDEST SWAP1 SWAP3 POP SWAP1 POP PUSH1 0x0 PUSH1 0x1 PUSH1 0x1 PUSH1 0xA0 SHL SUB DUP4 AND PUSH2 0x376E JUMPI POP PUSH1 0x0 SWAP1 POP PUSH5 0x2540BE400 PUSH2 0x37EE JUMP JUMPDEST DUP3 PUSH1 0x1 PUSH1 0x1 PUSH1 0xA0 SHL SUB AND PUSH4 0xB2FFFB04 PUSH1 0x40 MLOAD DUP2 PUSH4 0xFFFFFFFF AND PUSH1 0xE0 SHL DUP2 MSTORE PUSH1 0x4 ADD PUSH1 0x20 PUSH1 0x40 MLOAD DUP1 DUP4 SUB DUP2 DUP7 DUP1 EXTCODESIZE ISZERO DUP1 ISZERO PUSH2 0x37A7 JUMPI PUSH1 0x0 DUP1 REVERT JUMPDEST POP GAS STATICCALL ISZERO DUP1 ISZERO PUSH2 0x37BB JUMPI RETURNDATASIZE PUSH1 0x0 DUP1 RETURNDATACOPY RETURNDATASIZE PUSH1 0x0 REVERT JUMPDEST POP POP POP POP PUSH1 0x40 MLOAD RETURNDATASIZE PUSH1 0x1F NOT PUSH1 0x1F DUP3 ADD AND DUP3 ADD DUP1 PUSH1 0x40 MSTORE POP DUP2 ADD SWAP1 PUSH2 0x37DF SWAP2 SWAP1 PUSH2 0x52B8 JUMP JUMPDEST SWAP1 POP PUSH1 0x0 DUP2 SGT PUSH2 0x37EE JUMPI PUSH1 0x0 DUP1 REVERT JUMPDEST SWAP7 SWAP2 SWAP6 POP SWAP4 POP SWAP2 POP POP JUMP JUMPDEST PUSH1 0x0 DUP1 PUSH2 0x3804 PUSH2 0x3FB9 JUMP JUMPDEST PUSH1 0x0 SWAP4 DUP5 MSTORE PUSH1 0x20 MSTORE POP POP PUSH1 0x40 SWAP1 KECCAK256 SLOAD SWAP1 JUMP JUMPDEST PUSH1 0x60 ADD MLOAD PUSH2 0x12C PUSH1 0x8 SWAP2 SWAP1 SWAP2 SHR PUSH1 0xFF AND MUL SWAP1 JUMP JUMPDEST PUSH1 0x0 PUSH3 0x76A700 PUSH2 0x3839 DUP6 PUSH2 0x2BD7 JUMP JUMPDEST ADD SWAP1 POP PUSH2 0x223E DUP8 DUP8 DUP8 DUP8 DUP8 DUP8 DUP8 PUSH2 0x3FC6 JUMP JUMPDEST PUSH1 0x0 PUSH1 0x2 DUP3 LT DUP1 ISZERO SWAP1 PUSH2 0x43C JUMPI POP POP PUSH1 0x8 LT ISZERO SWAP1 JUMP JUMPDEST PUSH1 0x0 DUP1 PUSH2 0x43C PUSH1 0xC PUSH2 0x22BF JUMP JUMPDEST PUSH1 0x0 DUP1 PUSH2 0x388B PUSH2 0x3886 PUSH4 0x1DA9C00 PUSH2 0x29CD DUP7 DUP9 PUSH2 0x35E8 JUMP JUMPDEST PUSH2 0x3FFD JUMP JUMPDEST SWAP1 POP PUSH2 0x389D DUP2 PUSH3 0x1DCD65 PUSH1 0x49 SHL PUSH2 0x401B JUMP JUMPDEST SWAP1 POP PUSH2 0x38B0 PUSH2 0x38AB DUP3 PUSH2 0x406E JUMP JUMPDEST PUSH2 0x4090 JUMP JUMPDEST SWAP1 POP PUSH2 0x38C2 DUP2 PUSH3 0x1DCD65 PUSH1 0x49 SHL PUSH2 0x40E5 JUMP JUMPDEST SWAP1 POP PUSH1 0x0 PUSH2 0x38CF DUP3 PUSH2 0x411B JUMP JUMPDEST PUSH1 0x7 SIGNEXTEND SWAP6 SWAP5 POP POP POP POP POP JUMP JUMPDEST PUSH1 0x0 PUSH2 0x855 PUSH2 0x38EA DUP5 DUP5 PUSH2 0xF61 JUMP JUMPDEST PUSH4 0x3B9ACA00 PUSH2 0xFAF JUMP JUMPDEST PUSH1 0x0 DUP1 PUSH2 0x43C PUSH1 0xB PUSH2 0x22BF JUMP JUMPDEST PUSH1 0x0 DUP2 PUSH2 0x390D JUMPI PUSH1 0x0 DUP1 REVERT JUMPDEST PUSH1 0x1 PUSH1 0x80 SHL DUP3 LT PUSH2 0x3920 JUMPI PUSH1 0x80 SWAP2 DUP3 SHR SWAP2 ADD JUMPDEST PUSH1 0x1 PUSH1 0x40 SHL DUP3 LT PUSH2 0x3933 JUMPI PUSH1 0x40 SWAP2 DUP3 SHR SWAP2 ADD JUMPDEST PUSH5 0x100000000 DUP3 LT PUSH2 0x3947 JUMPI PUSH1 0x20 SWAP2 DUP3 SHR SWAP2 ADD JUMPDEST PUSH3 0x10000 DUP3 LT PUSH2 0x3959 JUMPI PUSH1 0x10 SWAP2 DUP3 SHR SWAP2 ADD JUMPDEST PUSH2 0x100 DUP3 LT PUSH2 0x396A JUMPI PUSH1 0x8 SWAP2 DUP3 SHR SWAP2 ADD JUMPDEST PUSH1 0x10 DUP3 LT PUSH2 0x397A JUMPI PUSH1 0x4 SWAP2 DUP3 SHR SWAP2 ADD JUMPDEST PUSH1 0x4 DUP3 LT PUSH2 0x398A JUMPI PUSH1 0x2 SWAP2 DUP3 SHR SWAP2 ADD JUMPDEST PUSH1 0x2 DUP3 LT PUSH2 0xD02 JUMPI PUSH1 0x1 ADD SWAP2 SWAP1 POP JUMP JUMPDEST PUSH1 0x0 DUP1 PUSH1 0x0 PUSH2 0x39AE DUP7 PUSH1 0x20 ADD MLOAD DUP7 DUP7 PUSH2 0x4124 JUMP JUMPDEST SWAP2 POP SWAP2 POP PUSH1 0x0 PUSH2 0x39BD DUP8 PUSH2 0x3816 JUMP JUMPDEST SWAP1 POP DUP2 PUSH2 0x39D6 JUMPI DUP7 MLOAD PUSH2 0x3492 SWAP1 PUSH2 0xFFFF AND DUP8 DUP4 DUP9 PUSH2 0x41E4 JUMP JUMPDEST PUSH1 0x0 PUSH2 0x39E1 DUP7 PUSH2 0x2BD7 JUMP JUMPDEST SWAP1 POP PUSH1 0x0 PUSH2 0x39F8 PUSH2 0x39F1 DUP7 PUSH2 0x2DA1 JUMP JUMPDEST DUP4 SWAP1 PUSH2 0x36A8 JUMP JUMPDEST SWAP1 POP PUSH1 0x0 PUSH2 0x3A10 DUP11 PUSH1 0x0 ADD MLOAD PUSH2 0xFFFF AND DUP4 DUP7 DUP12 PUSH2 0x41E4 JUMP JUMPDEST SWAP1 POP PUSH1 0x0 DUP1 DUP8 PUSH1 0x1 EQ ISZERO PUSH2 0x3A35 JUMPI DUP10 SWAP2 POP PUSH2 0x3A2E DUP13 PUSH1 0x40 ADD MLOAD PUSH2 0x4283 JUMP JUMPDEST SWAP1 POP PUSH2 0x3A64 JUMP JUMPDEST PUSH2 0x3A4B PUSH2 0x3A44 PUSH1 0x1 DUP11 SUB PUSH2 0x2DA1 JUMP JUMPDEST DUP7 SWAP1 PUSH2 0x36A8 JUMP JUMPDEST SWAP2 POP PUSH2 0x3A61 DUP13 PUSH1 0x0 ADD MLOAD PUSH2 0xFFFF AND DUP4 DUP9 DUP14 PUSH2 0x41E4 JUMP JUMPDEST SWAP1 POP JUMPDEST PUSH2 0x3A71 DUP3 DUP6 DUP4 DUP7 DUP16 PUSH2 0x4314 JUMP JUMPDEST SWAP9 POP POP POP POP POP POP POP POP POP PUSH2 0x855 JUMP JUMPDEST PUSH1 0x0 DUP5 PUSH2 0x3A8F JUMPI POP PUSH1 0x0 PUSH2 0x547 JUMP JUMPDEST PUSH1 0x0 PUSH2 0x3A9B DUP6 DUP6 PUSH2 0x2247 JUMP JUMPDEST SWAP1 POP PUSH1 0x0 DUP1 DUP8 SGT ISZERO PUSH2 0x3ACA JUMPI PUSH2 0x3AC3 DUP3 PUSH2 0x3ABE PUSH2 0x3AB7 DUP12 PUSH2 0x4372 JUMP JUMPDEST DUP8 SWAP1 PUSH2 0x36A8 JUMP JUMPDEST PUSH2 0x386E JUMP JUMPDEST SWAP1 POP PUSH2 0x3AF9 JUMP JUMPDEST PUSH1 0x0 PUSH2 0x3AD5 DUP10 PUSH2 0x4387 JUMP JUMPDEST SWAP1 POP DUP5 DUP2 LT PUSH2 0x3AE9 JUMPI DUP8 SWAP4 POP POP POP POP PUSH2 0x547 JUMP JUMPDEST PUSH2 0x3AF5 DUP4 DUP3 DUP8 SUB PUSH2 0x386E JUMP JUMPDEST SWAP2 POP POP JUMPDEST PUSH4 0x3B9ACA00 DUP2 SGT ISZERO PUSH2 0x3B0A JUMPI PUSH1 0x0 DUP1 REVERT JUMPDEST PUSH2 0x9F1 DUP8 DUP3 PUSH2 0x38DB JUMP JUMPDEST PUSH1 0x0 PUSH2 0x43C PUSH2 0x3B21 PUSH2 0x2AA8 JUMP JUMPDEST SLOAD PUSH1 0x40 MLOAD PUSH4 0xD15E0053 PUSH1 0xE0 SHL DUP2 MSTORE PUSH1 0x1 PUSH1 0x1 PUSH1 0xA0 SHL SUB SWAP1 SWAP2 AND SWAP1 PUSH4 0xD15E0053 SWAP1 PUSH2 0x3B4F SWAP1 DUP7 SWAP1 PUSH1 0x4 ADD PUSH2 0x5526 JUMP JUMPDEST PUSH1 0x20 PUSH1 0x40 MLOAD DUP1 DUP4 SUB DUP2 DUP7 DUP1 EXTCODESIZE ISZERO DUP1 ISZERO PUSH2 0x3B67 JUMPI PUSH1 0x0 DUP1 REVERT JUMPDEST POP GAS STATICCALL ISZERO DUP1 ISZERO PUSH2 0x3B7B JUMPI RETURNDATASIZE PUSH1 0x0 DUP1 RETURNDATACOPY RETURNDATASIZE PUSH1 0x0 REVERT JUMPDEST POP POP POP POP PUSH1 0x40 MLOAD RETURNDATASIZE PUSH1 0x1F NOT PUSH1 0x1F DUP3 ADD AND DUP3 ADD DUP1 PUSH1 0x40 MSTORE POP DUP2 ADD SWAP1 PUSH2 0x16D3 SWAP2 SWAP1 PUSH2 0x52B8 JUMP JUMPDEST PUSH1 0x0 DUP1 DUP3 SLT ISZERO PUSH2 0x3BB9 JUMPI PUSH2 0x3BB2 DUP3 PUSH2 0x11BA JUMP JUMPDEST SWAP1 POP PUSH2 0xD02 JUMP JUMPDEST POP DUP1 PUSH2 0xD02 JUMP JUMPDEST PUSH1 0x40 DUP1 MLOAD PUSH4 0x23B872DD PUSH1 0xE0 SHL DUP2 MSTORE PUSH1 0x1 PUSH1 0x1 PUSH1 0xA0 SHL SUB DUP5 DUP2 AND PUSH1 0x4 DUP4 ADD MSTORE ADDRESS PUSH1 0x24 DUP4 ADD MSTORE PUSH1 0x44 DUP3 ADD DUP5 SWAP1 MSTORE SWAP2 MLOAD SWAP2 DUP6 AND SWAP2 PUSH4 0x23B872DD SWAP2 PUSH1 0x64 DUP1 DUP3 ADD SWAP3 PUSH1 0x0 SWAP3 SWAP1 SWAP2 SWAP1 DUP3 SWAP1 SUB ADD DUP2 DUP4 DUP8 DUP1 EXTCODESIZE ISZERO DUP1 ISZERO PUSH2 0x3532 JUMPI PUSH1 0x0 DUP1 REVERT JUMPDEST PUSH1 0x0 PUSH2 0x3C22 PUSH2 0x520C JUMP JUMPDEST RETURNDATASIZE DUP1 ISZERO PUSH2 0x3C36 JUMPI PUSH1 0x20 DUP2 EQ PUSH2 0x3C3F JUMPI PUSH1 0x0 DUP1 REVERT JUMPDEST PUSH1 0x1 SWAP3 POP PUSH2 0x3C4A JUMP JUMPDEST PUSH1 0x20 PUSH1 0x0 DUP4 RETURNDATACOPY DUP2 MLOAD SWAP3 POP JUMPDEST POP DUP2 PUSH2 0xD52 JUMPI PUSH1 0x40 DUP1 MLOAD PUSH3 0x461BCD PUSH1 0xE5 SHL DUP2 MSTORE PUSH1 0x20 PUSH1 0x4 DUP3 ADD MSTORE PUSH1 0x5 PUSH1 0x24 DUP3 ADD MSTORE PUSH5 0x455243323 PUSH1 0xDC SHL PUSH1 0x44 DUP3 ADD MSTORE SWAP1 MLOAD SWAP1 DUP2 SWAP1 SUB PUSH1 0x64 ADD SWAP1 REVERT JUMPDEST PUSH1 0x0 PUSH2 0x3AE DUP3 PUSH2 0x29CD PUSH4 0x1DA9C00 DUP2 DUP9 PUSH2 0x29C7 DUP10 PUSH8 0xDE0B6B3A7640000 PUSH2 0x35E8 JUMP JUMPDEST PUSH1 0x60 PUSH1 0x10 DUP3 PUSH1 0xFF AND GT ISZERO PUSH2 0x3CBA JUMPI PUSH1 0x0 DUP1 REVERT JUMPDEST PUSH1 0x0 PUSH2 0x3CC4 PUSH2 0x439C JUMP JUMPDEST PUSH1 0x1 PUSH1 0x1 PUSH1 0xA0 SHL SUB DUP6 AND PUSH1 0x0 SWAP1 DUP2 MSTORE PUSH1 0x20 DUP3 SWAP1 MSTORE PUSH1 0x40 DUP2 KECCAK256 SWAP2 SWAP3 POP PUSH1 0xFF DUP6 AND PUSH8 0xFFFFFFFFFFFFFFFF DUP2 GT DUP1 ISZERO PUSH2 0x3CF9 JUMPI PUSH1 0x0 DUP1 REVERT JUMPDEST POP PUSH1 0x40 MLOAD SWAP1 DUP1 DUP3 MSTORE DUP1 PUSH1 0x20 MUL PUSH1 0x20 ADD DUP3 ADD PUSH1 0x40 MSTORE DUP1 ISZERO PUSH2 0x3D33 JUMPI DUP2 PUSH1 0x20 ADD JUMPDEST PUSH2 0x3D20 PUSH2 0x51A2 JUMP JUMPDEST DUP2 MSTORE PUSH1 0x20 ADD SWAP1 PUSH1 0x1 SWAP1 SUB SWAP1 DUP2 PUSH2 0x3D18 JUMPI SWAP1 POP JUMPDEST POP SWAP1 POP PUSH1 0x0 JUMPDEST DUP6 PUSH1 0xFF AND DUP2 LT ISZERO PUSH2 0x3DBF JUMPI PUSH1 0x0 DUP4 DUP3 PUSH1 0x10 DUP2 LT PUSH2 0x3D52 JUMPI INVALID JUMPDEST ADD SWAP1 POP PUSH1 0x0 DUP4 DUP4 DUP2 MLOAD DUP2 LT PUSH2 0x3D63 JUMPI INVALID JUMPDEST PUSH1 0x20 SWAP1 DUP2 MUL SWAP2 SWAP1 SWAP2 ADD DUP2 ADD MLOAD DUP4 SLOAD PUSH2 0xFFFF DUP2 AND DUP3 MSTORE PUSH5 0xFFFFFFFFFF PUSH3 0x10000 DUP3 DIV AND SWAP3 DUP3 ADD SWAP3 SWAP1 SWAP3 MSTORE PUSH1 0xFF PUSH1 0x1 PUSH1 0x38 SHL DUP4 DIV AND PUSH1 0x40 DUP3 ADD MSTORE PUSH1 0x1 PUSH1 0x40 SHL SWAP1 SWAP2 DIV PUSH1 0xA SWAP1 DUP2 SIGNEXTEND SWAP1 SIGNEXTEND PUSH1 0x60 DUP3 ADD MSTORE PUSH1 0x80 ADD SWAP2 SWAP1 SWAP2 MSTORE POP PUSH1 0x1 ADD PUSH2 0x3D39 JUMP JUMPDEST POP SWAP6 SWAP5 POP POP POP POP POP JUMP JUMPDEST DUP1 MLOAD PUSH1 0x0 DUP2 PUSH8 0xFFFFFFFFFFFFFFFF DUP2 GT DUP1 ISZERO PUSH2 0x3DE4 JUMPI PUSH1 0x0 DUP1 REVERT JUMPDEST POP PUSH1 0x40 MLOAD SWAP1 DUP1 DUP3 MSTORE DUP1 PUSH1 0x20 MUL PUSH1 0x20 ADD DUP3 ADD PUSH1 0x40 MSTORE DUP1 ISZERO PUSH2 0x3E0E JUMPI DUP2 PUSH1 0x20 ADD PUSH1 0x20 DUP3 MUL DUP1 CALLDATASIZE DUP4 CALLDATACOPY ADD SWAP1 POP JUMPDEST POP SWAP1 POP PUSH1 0x0 JUMPDEST DUP3 DUP2 LT ISZERO PUSH2 0x3E6B JUMPI PUSH1 0x0 DUP5 DUP3 DUP2 MLOAD DUP2 LT PUSH2 0x3E2A JUMPI INVALID JUMPDEST PUSH1 0x20 MUL PUSH1 0x20 ADD ADD MLOAD SWAP1 POP PUSH2 0x3E4B DUP2 PUSH1 0x0 ADD MLOAD DUP3 PUSH1 0x20 ADD MLOAD DUP4 PUSH1 0x40 ADD MLOAD PUSH2 0x43A9 JUMP JUMPDEST DUP4 DUP4 DUP2 MLOAD DUP2 LT PUSH2 0x3E57 JUMPI INVALID JUMPDEST PUSH1 0x20 SWAP1 DUP2 MUL SWAP2 SWAP1 SWAP2 ADD ADD MSTORE POP PUSH1 0x1 ADD PUSH2 0x3E14 JUMP JUMPDEST POP PUSH1 0x1 JUMPDEST DUP3 DUP2 LT ISZERO PUSH2 0x1EEB JUMPI DUP1 JUMPDEST PUSH1 0x0 DUP2 GT DUP1 ISZERO PUSH2 0x3EB1 JUMPI POP DUP3 DUP2 DUP2 MLOAD DUP2 LT PUSH2 0x3E90 JUMPI INVALID JUMPDEST PUSH1 0x20 MUL PUSH1 0x20 ADD ADD MLOAD DUP4 PUSH1 0x1 DUP4 SUB DUP2 MLOAD DUP2 LT PUSH2 0x3EA7 JUMPI INVALID JUMPDEST PUSH1 0x20 MUL PUSH1 0x20 ADD ADD MLOAD GT JUMPDEST ISZERO PUSH2 0x3F79 JUMPI DUP3 DUP2 DUP2 MLOAD DUP2 LT PUSH2 0x3EC2 JUMPI INVALID JUMPDEST PUSH1 0x20 MUL PUSH1 0x20 ADD ADD MLOAD DUP4 PUSH1 0x1 DUP4 SUB DUP2 MLOAD DUP2 LT PUSH2 0x3ED9 JUMPI INVALID JUMPDEST PUSH1 0x20 MUL PUSH1 0x20 ADD ADD MLOAD DUP5 PUSH1 0x1 DUP5 SUB DUP2 MLOAD DUP2 LT PUSH2 0x3EF0 JUMPI INVALID JUMPDEST PUSH1 0x20 MUL PUSH1 0x20 ADD ADD DUP6 DUP5 DUP2 MLOAD DUP2 LT PUSH2 0x3F03 JUMPI INVALID JUMPDEST PUSH1 0x20 MUL PUSH1 0x20 ADD ADD DUP3 DUP2 MSTORE POP DUP3 DUP2 MSTORE POP POP POP DUP5 DUP2 DUP2 MLOAD DUP2 LT PUSH2 0x3F20 JUMPI INVALID JUMPDEST PUSH1 0x20 MUL PUSH1 0x20 ADD ADD MLOAD DUP6 PUSH1 0x1 DUP4 SUB DUP2 MLOAD DUP2 LT PUSH2 0x3F37 JUMPI INVALID JUMPDEST PUSH1 0x20 MUL PUSH1 0x20 ADD ADD MLOAD DUP7 PUSH1 0x1 DUP5 SUB DUP2 MLOAD DUP2 LT PUSH2 0x3F4E JUMPI INVALID JUMPDEST PUSH1 0x20 MUL PUSH1 0x20 ADD ADD DUP8 DUP5 DUP2 MLOAD DUP2 LT PUSH2 0x3F61 JUMPI INVALID JUMPDEST PUSH1 0x20 SWAP1 DUP2 MUL SWAP2 SWAP1 SWAP2 ADD ADD SWAP2 SWAP1 SWAP2 MSTORE MSTORE PUSH1 0x0 NOT ADD PUSH2 0x3E79 JUMP JUMPDEST POP PUSH1 0x1 ADD PUSH2 0x3E6F JUMP JUMPDEST PUSH1 0x0 DUP1 PUSH1 0x0 PUSH2 0x3F8F PUSH2 0x4404 JUMP JUMPDEST PUSH1 0x0 SWAP5 DUP6 MSTORE PUSH1 0x20 MSTORE POP POP PUSH1 0x40 SWAP1 SWAP2 KECCAK256 SLOAD PUSH1 0x1 PUSH1 0x1 PUSH1 0xA0 SHL SUB DUP2 AND SWAP3 PUSH1 0x1 PUSH1 0xA0 SHL SWAP1 SWAP2 DIV PUSH1 0xFF AND SWAP2 POP JUMP JUMPDEST PUSH1 0x0 DUP1 PUSH2 0x43C PUSH1 0x9 PUSH2 0x22BF JUMP JUMPDEST PUSH2 0x3FD3 DUP8 DUP8 DUP8 DUP7 DUP6 PUSH2 0x4411 JUMP JUMPDEST PUSH2 0x3FEC DUP8 PUSH1 0xE0 ADD MLOAD DUP9 PUSH1 0xA0 ADD MLOAD DUP10 PUSH1 0xC0 ADD MLOAD DUP6 DUP9 PUSH2 0x44CC JUMP JUMPDEST PUSH1 0xC0 SWAP1 SWAP8 ADD SWAP7 SWAP1 SWAP7 MSTORE POP POP POP POP POP POP JUMP JUMPDEST PUSH1 0x0 PUSH8 0x7FFFFFFFFFFFFFFF DUP3 GT ISZERO PUSH2 0x4014 JUMPI PUSH1 0x0 DUP1 REVERT JUMPDEST POP PUSH1 0x40 SHL SWAP1 JUMP JUMPDEST PUSH1 0x0 DUP2 PUSH1 0xF SIGNEXTEND PUSH1 0x0 EQ ISZERO PUSH2 0x402E JUMPI PUSH1 0x0 DUP1 REVERT JUMPDEST PUSH1 0x0 DUP3 PUSH1 0xF SIGNEXTEND PUSH1 0x40 DUP6 PUSH1 0xF SIGNEXTEND SWAP1 SHL DUP2 PUSH2 0x4043 JUMPI INVALID JUMPDEST SDIV SWAP1 POP PUSH1 0x1 PUSH1 0x1 PUSH1 0x7F SHL SUB NOT DUP2 SLT DUP1 ISZERO SWAP1 PUSH2 0x4065 JUMPI POP PUSH1 0x1 PUSH1 0x1 PUSH1 0x7F SHL SUB DUP2 SGT ISZERO JUMPDEST PUSH2 0x855 JUMPI PUSH1 0x0 DUP1 REVERT JUMPDEST PUSH1 0x0 PUSH1 0xF DUP3 SWAP1 SIGNEXTEND PUSH1 0x1 PUSH1 0x1 PUSH1 0x7F SHL SUB NOT EQ ISZERO PUSH2 0x4089 JUMPI PUSH1 0x0 DUP1 REVERT JUMPDEST POP PUSH1 0x0 SUB SWAP1 JUMP JUMPDEST PUSH1 0x0 PUSH1 0x1 PUSH1 0x46 SHL DUP3 PUSH1 0xF SIGNEXTEND SLT PUSH2 0x40A5 JUMPI PUSH1 0x0 DUP1 REVERT JUMPDEST PUSH9 0x3FFFFFFFFFFFFFFFFF NOT DUP3 PUSH1 0xF SIGNEXTEND SLT ISZERO PUSH2 0x40C2 JUMPI POP PUSH1 0x0 PUSH2 0xD02 JUMP JUMPDEST PUSH2 0x43C PUSH1 0x80 DUP4 PUSH1 0xF SIGNEXTEND PUSH17 0x171547652B82FE1777D0FFDA0D23A7D12 MUL SWAP1 SAR PUSH2 0x4551 JUMP JUMPDEST PUSH1 0x0 PUSH1 0xF DUP4 DUP2 SIGNEXTEND SWAP1 DUP4 SWAP1 SIGNEXTEND MUL PUSH1 0x40 SAR PUSH1 0x1 PUSH1 0x1 PUSH1 0x7F SHL SUB NOT DUP2 SLT DUP1 ISZERO SWAP1 PUSH2 0x4065 JUMPI POP PUSH1 0x1 PUSH1 0x1 PUSH1 0x7F SHL SUB DUP2 SGT ISZERO PUSH2 0x855 JUMPI PUSH1 0x0 DUP1 REVERT JUMPDEST PUSH1 0xF SIGNEXTEND PUSH1 0x40 SAR SWAP1 JUMP JUMPDEST PUSH1 0x0 DUP1 PUSH1 0x0 DUP6 GT PUSH2 0x4147 JUMPI PUSH1 0x40 MLOAD PUSH3 0x461BCD PUSH1 0xE5 SHL DUP2 MSTORE PUSH1 0x4 ADD PUSH2 0x35A SWAP1 PUSH2 0x5707 JUMP JUMPDEST PUSH1 0x7 DUP6 GT ISZERO PUSH2 0x4168 JUMPI PUSH1 0x40 MLOAD PUSH3 0x461BCD PUSH1 0xE5 SHL DUP2 MSTORE PUSH1 0x4 ADD PUSH2 0x35A SWAP1 PUSH2 0x57BA JUMP JUMPDEST PUSH1 0x0 PUSH2 0x4173 DUP5 PUSH2 0x2BD7 JUMP JUMPDEST SWAP1 POP PUSH1 0x1 JUMPDEST DUP7 DUP2 GT PUSH2 0x41CB JUMPI PUSH1 0x0 PUSH2 0x4194 PUSH2 0x418D DUP4 PUSH2 0x2DA1 JUMP JUMPDEST DUP5 SWAP1 PUSH2 0x36A8 JUMP JUMPDEST SWAP1 POP DUP7 DUP2 EQ ISZERO PUSH2 0x41AC JUMPI POP SWAP3 POP PUSH1 0x0 SWAP2 POP PUSH2 0x1AAB SWAP1 POP JUMP JUMPDEST DUP7 DUP2 GT ISZERO PUSH2 0x41C2 JUMPI POP SWAP3 POP PUSH1 0x1 SWAP2 POP PUSH2 0x1AAB SWAP1 POP JUMP JUMPDEST POP PUSH1 0x1 ADD PUSH2 0x4178 JUMP JUMPDEST POP PUSH1 0x40 MLOAD PUSH3 0x461BCD PUSH1 0xE5 SHL DUP2 MSTORE PUSH1 0x4 ADD PUSH2 0x35A SWAP1 PUSH2 0x588F JUMP JUMPDEST PUSH1 0x0 DUP1 PUSH2 0x41EF PUSH2 0x5003 JUMP JUMPDEST SWAP1 POP PUSH1 0x0 PUSH3 0x76A700 PUSH2 0x4200 DUP6 PUSH2 0x2BD7 JUMP JUMPDEST PUSH1 0x0 DUP10 DUP2 MSTORE PUSH1 0x20 DUP6 DUP2 MSTORE PUSH1 0x40 DUP1 DUP4 KECCAK256 DUP12 DUP5 MSTORE DUP3 MSTORE DUP1 DUP4 KECCAK256 SWAP5 SWAP1 SWAP4 ADD DUP1 DUP4 MSTORE SWAP4 SWAP1 MSTORE KECCAK256 DUP1 SLOAD SWAP2 SWAP3 POP SWAP1 PUSH4 0xFFFFFFFF PUSH1 0x1 PUSH1 0xA0 SHL DUP3 DIV DUP2 AND SWAP2 PUSH1 0x1 PUSH1 0xC0 SHL DUP2 DIV DUP3 AND SWAP2 PUSH1 0x1 PUSH1 0xE0 SHL SWAP1 SWAP2 DIV AND DUP2 PUSH2 0x4267 JUMPI PUSH1 0x40 MLOAD PUSH3 0x461BCD PUSH1 0xE5 SHL DUP2 MSTORE PUSH1 0x4 ADD PUSH2 0x35A SWAP1 PUSH2 0x5699 JUMP JUMPDEST PUSH2 0x4274 DUP2 DUP5 DUP5 DUP13 DUP13 PUSH2 0x44CC JUMP JUMPDEST SWAP12 SWAP11 POP POP POP POP POP POP POP POP POP POP POP JUMP JUMPDEST DUP1 MLOAD PUSH1 0x0 SWAP1 PUSH1 0x1 PUSH1 0x1 PUSH1 0xA0 SHL SUB AND PUSH2 0x429D JUMPI POP PUSH1 0x0 PUSH2 0xD02 JUMP JUMPDEST PUSH1 0x0 DUP3 PUSH1 0x0 ADD MLOAD PUSH1 0x1 PUSH1 0x1 PUSH1 0xA0 SHL SUB AND PUSH4 0xDD30A666 PUSH1 0x40 MLOAD DUP2 PUSH4 0xFFFFFFFF AND PUSH1 0xE0 SHL DUP2 MSTORE PUSH1 0x4 ADD PUSH1 0x20 PUSH1 0x40 MLOAD DUP1 DUP4 SUB DUP2 DUP7 DUP1 EXTCODESIZE ISZERO DUP1 ISZERO PUSH2 0x42DC JUMPI PUSH1 0x0 DUP1 REVERT JUMPDEST POP GAS STATICCALL ISZERO DUP1 ISZERO PUSH2 0x42F0 JUMPI RETURNDATASIZE PUSH1 0x0 DUP1 RETURNDATACOPY RETURNDATASIZE PUSH1 0x0 REVERT JUMPDEST POP POP POP POP PUSH1 0x40 MLOAD RETURNDATASIZE PUSH1 0x1F NOT PUSH1 0x1F DUP3 ADD AND DUP3 ADD DUP1 PUSH1 0x40 MSTORE POP DUP2 ADD SWAP1 PUSH2 0x855 SWAP2 SWAP1 PUSH2 0x52B8 JUMP JUMPDEST PUSH1 0x0 DUP2 DUP7 LT PUSH2 0x4322 JUMPI PUSH1 0x0 DUP1 REVERT JUMPDEST DUP5 DUP3 LT PUSH2 0x432E JUMPI PUSH1 0x0 DUP1 REVERT JUMPDEST DUP4 DUP4 LT PUSH2 0x4354 JUMPI PUSH2 0x434D DUP5 PUSH2 0x2C3B DUP9 DUP9 SUB PUSH2 0x29CD DUP4 DUP9 SUB DUP12 DUP9 SUB PUSH2 0x35E8 JUMP JUMPDEST SWAP1 POP PUSH2 0x547 JUMP JUMPDEST PUSH2 0x434D PUSH2 0x436B DUP8 DUP8 SUB PUSH2 0x29CD DUP7 DUP9 SUB DUP11 DUP8 SUB PUSH2 0x35E8 JUMP JUMPDEST DUP6 SWAP1 PUSH2 0x2247 JUMP JUMPDEST PUSH1 0x60 ADD MLOAD PUSH3 0x7A120 PUSH1 0x28 SWAP2 SWAP1 SWAP2 SHR PUSH1 0xFF AND MUL SWAP1 JUMP JUMPDEST PUSH1 0x60 ADD MLOAD PUSH3 0x7A120 PUSH1 0x20 SWAP2 SWAP1 SWAP2 SHR PUSH1 0xFF AND MUL SWAP1 JUMP JUMPDEST PUSH1 0x0 DUP1 PUSH2 0x43C PUSH1 0xD PUSH2 0x22BF JUMP JUMPDEST PUSH1 0x0 PUSH2 0x3FFF DUP5 GT ISZERO PUSH2 0x43BA JUMPI PUSH1 0x0 DUP1 REVERT JUMPDEST PUSH5 0xFFFFFFFFFF DUP4 GT ISZERO PUSH2 0x43CC JUMPI PUSH1 0x0 DUP1 REVERT JUMPDEST PUSH1 0x8 DUP3 GT ISZERO PUSH2 0x43DA JUMPI PUSH1 0x0 DUP1 REVERT JUMPDEST POP PUSH8 0xFFFF000000000000 PUSH1 0x30 DUP5 SWAP1 SHL AND PUSH6 0xFFFFFFFFFF00 PUSH1 0x8 DUP5 SWAP1 SHL AND OR PUSH1 0xFF DUP3 AND OR SWAP4 SWAP3 POP POP POP JUMP JUMPDEST PUSH1 0x0 DUP1 PUSH2 0x43C PUSH1 0xF PUSH2 0x22BF JUMP JUMPDEST PUSH1 0x0 PUSH2 0x441B PUSH2 0x5003 JUMP JUMPDEST PUSH1 0x0 DUP7 DUP2 MSTORE PUSH1 0x20 DUP3 DUP2 MSTORE PUSH1 0x40 DUP1 DUP4 KECCAK256 DUP9 DUP5 MSTORE DUP3 MSTORE DUP1 DUP4 KECCAK256 DUP7 DUP5 MSTORE DUP3 MSTORE SWAP2 DUP3 SWAP1 KECCAK256 DUP1 DUP11 MSTORE SWAP1 DUP10 ADD DUP8 SWAP1 MSTORE DUP1 SLOAD PUSH1 0x1 PUSH1 0x1 PUSH1 0x50 SHL SUB DUP1 DUP3 AND SWAP4 DUP12 ADD SWAP4 SWAP1 SWAP4 MSTORE PUSH1 0x1 PUSH1 0x50 SHL DUP2 DIV SWAP1 SWAP3 AND PUSH1 0x60 DUP11 ADD MSTORE PUSH4 0xFFFFFFFF PUSH1 0x1 PUSH1 0xA0 SHL DUP4 DIV DUP2 AND PUSH1 0xA0 DUP12 ADD MSTORE PUSH1 0x1 PUSH1 0xC0 SHL DUP4 DIV DUP2 AND PUSH1 0xC0 DUP12 ADD MSTORE PUSH1 0x1 PUSH1 0xE0 SHL SWAP1 SWAP3 DIV SWAP1 SWAP2 AND PUSH1 0xE0 DUP10 ADD MSTORE SWAP1 SWAP2 POP DUP1 DUP5 ISZERO PUSH2 0x44BA JUMPI PUSH1 0x1 DUP3 ADD SLOAD PUSH1 0x1 PUSH1 0x1 PUSH1 0x50 SHL SUB AND PUSH1 0x80 DUP10 ADD MSTORE PUSH2 0x44C2 JUMP JUMPDEST PUSH1 0x0 PUSH1 0x80 DUP10 ADD MSTORE JUMPDEST POP POP POP POP POP POP POP POP JUMP JUMPDEST PUSH1 0x0 DUP1 DUP4 GT PUSH2 0x44DA JUMPI PUSH1 0x0 DUP1 REVERT JUMPDEST DUP2 DUP7 GT ISZERO PUSH2 0x44E9 JUMPI POP DUP4 PUSH2 0x547 JUMP JUMPDEST PUSH1 0x0 PUSH2 0x44F5 DUP4 DUP9 PUSH2 0x2247 JUMP JUMPDEST SWAP1 POP DUP4 DUP2 GT ISZERO PUSH2 0x4508 JUMPI DUP6 SWAP2 POP POP PUSH2 0x547 JUMP JUMPDEST PUSH1 0x0 PUSH2 0x451C DUP6 PUSH2 0x29CD DUP5 PUSH4 0x3B9ACA00 PUSH2 0x35E8 JUMP JUMPDEST SWAP1 POP PUSH1 0x0 PUSH2 0x452E PUSH4 0x3B9ACA00 DUP4 PUSH2 0x2247 JUMP JUMPDEST SWAP1 POP PUSH1 0x0 PUSH2 0x7C3 PUSH4 0x3B9ACA00 PUSH2 0x29CD PUSH2 0x4547 DUP12 DUP7 PUSH2 0x35E8 JUMP JUMPDEST PUSH2 0x2C3B DUP14 DUP9 PUSH2 0x35E8 JUMP JUMPDEST PUSH1 0x0 PUSH1 0x1 PUSH1 0x46 SHL DUP3 PUSH1 0xF SIGNEXTEND SLT PUSH2 0x4566 JUMPI PUSH1 0x0 DUP1 REVERT JUMPDEST PUSH9 0x3FFFFFFFFFFFFFFFFF NOT DUP3 PUSH1 0xF SIGNEXTEND SLT ISZERO PUSH2 0x4583 JUMPI POP PUSH1 0x0 PUSH2 0xD02 JUMP JUMPDEST PUSH1 0x1 PUSH1 0x7F SHL PUSH1 0x0 PUSH8 0x8000000000000000 DUP5 AND PUSH1 0xF SIGNEXTEND SGT ISZERO PUSH2 0x45B5 JUMPI PUSH17 0x16A09E667F3BCC908B2FB1366EA957D3E MUL PUSH1 0x80 SHR JUMPDEST PUSH1 0x0 DUP4 PUSH8 0x4000000000000000 AND PUSH1 0xF SIGNEXTEND SGT ISZERO PUSH2 0x45E2 JUMPI PUSH17 0x1306FE0A31B7152DE8D5A46305C85EDEC MUL PUSH1 0x80 SHR JUMPDEST PUSH1 0x0 DUP4 PUSH8 0x2000000000000000 AND PUSH1 0xF SIGNEXTEND SGT ISZERO PUSH2 0x460F JUMPI PUSH17 0x1172B83C7D517ADCDF7C8C50EB14A791F MUL PUSH1 0x80 SHR JUMPDEST PUSH1 0x0 DUP4 PUSH8 0x1000000000000000 AND PUSH1 0xF SIGNEXTEND SGT ISZERO PUSH2 0x463C JUMPI PUSH17 0x10B5586CF9890F6298B92B71842A98363 MUL PUSH1 0x80 SHR JUMPDEST PUSH1 0x0 DUP4 PUSH8 0x800000000000000 AND PUSH1 0xF SIGNEXTEND SGT ISZERO PUSH2 0x4669 JUMPI PUSH17 0x1059B0D31585743AE7C548EB68CA417FD MUL PUSH1 0x80 SHR JUMPDEST PUSH1 0x0 DUP4 PUSH8 0x400000000000000 AND PUSH1 0xF SIGNEXTEND SGT ISZERO PUSH2 0x4696 JUMPI PUSH17 0x102C9A3E778060EE6F7CACA4F7A29BDE8 MUL PUSH1 0x80 SHR JUMPDEST PUSH1 0x0 DUP4 PUSH8 0x200000000000000 AND PUSH1 0xF SIGNEXTEND SGT ISZERO PUSH2 0x46C3 JUMPI PUSH17 0x10163DA9FB33356D84A66AE336DCDFA3F MUL PUSH1 0x80 SHR JUMPDEST PUSH1 0x0 DUP4 PUSH1 0x1 PUSH1 0x38 SHL AND PUSH1 0xF SIGNEXTEND SGT ISZERO PUSH2 0x46EC JUMPI PUSH17 0x100B1AFA5ABCBED6129AB13EC11DC9543 MUL PUSH1 0x80 SHR JUMPDEST PUSH1 0x0 DUP4 PUSH7 0x80000000000000 AND PUSH1 0xF SIGNEXTEND SGT ISZERO PUSH2 0x4718 JUMPI PUSH17 0x10058C86DA1C09EA1FF19D294CF2F679B MUL PUSH1 0x80 SHR JUMPDEST PUSH1 0x0 DUP4 PUSH7 0x40000000000000 AND PUSH1 0xF SIGNEXTEND SGT ISZERO PUSH2 0x4744 JUMPI PUSH17 0x1002C605E2E8CEC506D21BFC89A23A00F MUL PUSH1 0x80 SHR JUMPDEST PUSH1 0x0 DUP4 PUSH7 0x20000000000000 AND PUSH1 0xF SIGNEXTEND SGT ISZERO PUSH2 0x4770 JUMPI PUSH17 0x100162F3904051FA128BCA9C55C31E5DF MUL PUSH1 0x80 SHR JUMPDEST PUSH1 0x0 DUP4 PUSH7 0x10000000000000 AND PUSH1 0xF SIGNEXTEND SGT ISZERO PUSH2 0x479C JUMPI PUSH17 0x1000B175EFFDC76BA38E31671CA939725 MUL PUSH1 0x80 SHR JUMPDEST PUSH1 0x0 DUP4 PUSH7 0x8000000000000 AND PUSH1 0xF SIGNEXTEND SGT ISZERO PUSH2 0x47C8 JUMPI PUSH17 0x100058BA01FB9F96D6CACD4B180917C3D MUL PUSH1 0x80 SHR JUMPDEST PUSH1 0x0 DUP4 PUSH7 0x4000000000000 AND PUSH1 0xF SIGNEXTEND SGT ISZERO PUSH2 0x47F4 JUMPI PUSH17 0x10002C5CC37DA9491D0985C348C68E7B3 MUL PUSH1 0x80 SHR JUMPDEST PUSH1 0x0 DUP4 PUSH7 0x2000000000000 AND PUSH1 0xF SIGNEXTEND SGT ISZERO PUSH2 0x4820 JUMPI PUSH17 0x1000162E525EE054754457D5995292026 MUL PUSH1 0x80 SHR JUMPDEST PUSH1 0x0 DUP4 PUSH1 0x1 PUSH1 0x30 SHL AND PUSH1 0xF SIGNEXTEND SGT ISZERO PUSH2 0x4849 JUMPI PUSH17 0x10000B17255775C040618BF4A4ADE83FC MUL PUSH1 0x80 SHR JUMPDEST PUSH1 0x0 DUP4 PUSH6 0x800000000000 AND PUSH1 0xF SIGNEXTEND SGT ISZERO PUSH2 0x4874 JUMPI PUSH17 0x1000058B91B5BC9AE2EED81E9B7D4CFAB MUL PUSH1 0x80 SHR JUMPDEST PUSH1 0x0 DUP4 PUSH6 0x400000000000 AND PUSH1 0xF SIGNEXTEND SGT ISZERO PUSH2 0x489F JUMPI PUSH17 0x100002C5C89D5EC6CA4D7C8ACC017B7C9 MUL PUSH1 0x80 SHR JUMPDEST PUSH1 0x0 DUP4 PUSH6 0x200000000000 AND PUSH1 0xF SIGNEXTEND SGT ISZERO PUSH2 0x48CA JUMPI PUSH17 0x10000162E43F4F831060E02D839A9D16D MUL PUSH1 0x80 SHR JUMPDEST PUSH1 0x0 DUP4 PUSH6 0x100000000000 AND PUSH1 0xF SIGNEXTEND SGT ISZERO PUSH2 0x48F5 JUMPI PUSH17 0x100000B1721BCFC99D9F890EA06911763 MUL PUSH1 0x80 SHR JUMPDEST PUSH1 0x0 DUP4 PUSH6 0x80000000000 AND PUSH1 0xF SIGNEXTEND SGT ISZERO PUSH2 0x4920 JUMPI PUSH17 0x10000058B90CF1E6D97F9CA14DBCC1628 MUL PUSH1 0x80 SHR JUMPDEST PUSH1 0x0 DUP4 PUSH6 0x40000000000 AND PUSH1 0xF SIGNEXTEND SGT ISZERO PUSH2 0x494B JUMPI PUSH17 0x1000002C5C863B73F016468F6BAC5CA2B MUL PUSH1 0x80 SHR JUMPDEST PUSH1 0x0 DUP4 PUSH6 0x20000000000 AND PUSH1 0xF SIGNEXTEND SGT ISZERO PUSH2 0x4976 JUMPI PUSH17 0x100000162E430E5A18F6119E3C02282A5 MUL PUSH1 0x80 SHR JUMPDEST PUSH1 0x0 DUP4 PUSH6 0x10000000000 AND PUSH1 0xF SIGNEXTEND SGT ISZERO PUSH2 0x49A1 JUMPI PUSH17 0x1000000B1721835514B86E6D96EFD1BFE MUL PUSH1 0x80 SHR JUMPDEST PUSH1 0x0 DUP4 PUSH5 0x8000000000 AND PUSH1 0xF SIGNEXTEND SGT ISZERO PUSH2 0x49CB JUMPI PUSH17 0x100000058B90C0B48C6BE5DF846C5B2EF MUL PUSH1 0x80 SHR JUMPDEST PUSH1 0x0 DUP4 PUSH5 0x4000000000 AND PUSH1 0xF SIGNEXTEND SGT ISZERO PUSH2 0x49F5 JUMPI PUSH17 0x10000002C5C8601CC6B9E94213C72737A MUL PUSH1 0x80 SHR JUMPDEST PUSH1 0x0 DUP4 PUSH5 0x2000000000 AND PUSH1 0xF SIGNEXTEND SGT ISZERO PUSH2 0x4A1F JUMPI PUSH17 0x1000000162E42FFF037DF38AA2B219F06 MUL PUSH1 0x80 SHR JUMPDEST PUSH1 0x0 DUP4 PUSH5 0x1000000000 AND PUSH1 0xF SIGNEXTEND SGT ISZERO PUSH2 0x4A49 JUMPI PUSH17 0x10000000B17217FBA9C739AA5819F44F9 MUL PUSH1 0x80 SHR JUMPDEST PUSH1 0x0 DUP4 PUSH5 0x800000000 AND PUSH1 0xF SIGNEXTEND SGT ISZERO PUSH2 0x4A73 JUMPI PUSH17 0x1000000058B90BFCDEE5ACD3C1CEDC823 MUL PUSH1 0x80 SHR JUMPDEST PUSH1 0x0 DUP4 PUSH5 0x400000000 AND PUSH1 0xF SIGNEXTEND SGT ISZERO PUSH2 0x4A9D JUMPI PUSH17 0x100000002C5C85FE31F35A6A30DA1BE50 MUL PUSH1 0x80 SHR JUMPDEST PUSH1 0x0 DUP4 PUSH5 0x200000000 AND PUSH1 0xF SIGNEXTEND SGT ISZERO PUSH2 0x4AC7 JUMPI PUSH17 0x10000000162E42FF0999CE3541B9FFFCF MUL PUSH1 0x80 SHR JUMPDEST PUSH1 0x0 DUP4 PUSH5 0x100000000 AND PUSH1 0xF SIGNEXTEND SGT ISZERO PUSH2 0x4AF1 JUMPI PUSH17 0x100000000B17217F80F4EF5AADDA45554 MUL PUSH1 0x80 SHR JUMPDEST PUSH1 0x0 DUP4 PUSH4 0x80000000 AND PUSH1 0xF SIGNEXTEND SGT ISZERO PUSH2 0x4B1A JUMPI PUSH17 0x10000000058B90BFBF8479BD5A81B51AD MUL PUSH1 0x80 SHR JUMPDEST PUSH1 0x0 DUP4 PUSH4 0x40000000 AND PUSH1 0xF SIGNEXTEND SGT ISZERO PUSH2 0x4B43 JUMPI PUSH17 0x1000000002C5C85FDF84BD62AE30A74CC MUL PUSH1 0x80 SHR JUMPDEST PUSH1 0x0 DUP4 PUSH4 0x20000000 AND PUSH1 0xF SIGNEXTEND SGT ISZERO PUSH2 0x4B6C JUMPI PUSH17 0x100000000162E42FEFB2FED257559BDAA MUL PUSH1 0x80 SHR JUMPDEST PUSH1 0x0 DUP4 PUSH4 0x10000000 AND PUSH1 0xF SIGNEXTEND SGT ISZERO PUSH2 0x4B95 JUMPI PUSH17 0x1000000000B17217F7D5A7716BBA4A9AE MUL PUSH1 0x80 SHR JUMPDEST PUSH1 0x0 DUP4 PUSH4 0x8000000 AND PUSH1 0xF SIGNEXTEND SGT ISZERO PUSH2 0x4BBE JUMPI PUSH17 0x100000000058B90BFBE9DDBAC5E109CCE MUL PUSH1 0x80 SHR JUMPDEST PUSH1 0x0 DUP4 PUSH4 0x4000000 AND PUSH1 0xF SIGNEXTEND SGT ISZERO PUSH2 0x4BE7 JUMPI PUSH17 0x10000000002C5C85FDF4B15DE6F17EB0D MUL PUSH1 0x80 SHR JUMPDEST PUSH1 0x0 DUP4 PUSH4 0x2000000 AND PUSH1 0xF SIGNEXTEND SGT ISZERO PUSH2 0x4C10 JUMPI PUSH17 0x1000000000162E42FEFA494F1478FDE05 MUL PUSH1 0x80 SHR JUMPDEST PUSH1 0x0 DUP4 PUSH4 0x1000000 AND PUSH1 0xF SIGNEXTEND SGT ISZERO PUSH2 0x4C39 JUMPI PUSH17 0x10000000000B17217F7D20CF927C8E94C MUL PUSH1 0x80 SHR JUMPDEST PUSH1 0x0 DUP4 PUSH3 0x800000 AND PUSH1 0xF SIGNEXTEND SGT ISZERO PUSH2 0x4C61 JUMPI PUSH17 0x1000000000058B90BFBE8F71CB4E4B33D MUL PUSH1 0x80 SHR JUMPDEST PUSH1 0x0 DUP4 PUSH3 0x400000 AND PUSH1 0xF SIGNEXTEND SGT ISZERO PUSH2 0x4C89 JUMPI PUSH17 0x100000000002C5C85FDF477B662B26945 MUL PUSH1 0x80 SHR JUMPDEST PUSH1 0x0 DUP4 PUSH3 0x200000 AND PUSH1 0xF SIGNEXTEND SGT ISZERO PUSH2 0x4CB1 JUMPI PUSH17 0x10000000000162E42FEFA3AE53369388C MUL PUSH1 0x80 SHR JUMPDEST PUSH1 0x0 DUP4 PUSH3 0x100000 AND PUSH1 0xF SIGNEXTEND SGT ISZERO PUSH2 0x4CD9 JUMPI PUSH17 0x100000000000B17217F7D1D351A389D40 MUL PUSH1 0x80 SHR JUMPDEST PUSH1 0x0 DUP4 PUSH3 0x80000 AND PUSH1 0xF SIGNEXTEND SGT ISZERO PUSH2 0x4D01 JUMPI PUSH17 0x10000000000058B90BFBE8E8B2D3D4EDE MUL PUSH1 0x80 SHR JUMPDEST PUSH1 0x0 DUP4 PUSH3 0x40000 AND PUSH1 0xF SIGNEXTEND SGT ISZERO PUSH2 0x4D29 JUMPI PUSH17 0x1000000000002C5C85FDF4741BEA6E77E MUL PUSH1 0x80 SHR JUMPDEST PUSH1 0x0 DUP4 PUSH3 0x20000 AND PUSH1 0xF SIGNEXTEND SGT ISZERO PUSH2 0x4D51 JUMPI PUSH17 0x100000000000162E42FEFA39FE95583C2 MUL PUSH1 0x80 SHR JUMPDEST PUSH1 0x0 DUP4 PUSH3 0x10000 AND PUSH1 0xF SIGNEXTEND SGT ISZERO PUSH2 0x4D79 JUMPI PUSH17 0x1000000000000B17217F7D1CFB72B45E1 MUL PUSH1 0x80 SHR JUMPDEST PUSH1 0x0 DUP4 PUSH2 0x8000 AND PUSH1 0xF SIGNEXTEND SGT ISZERO PUSH2 0x4DA0 JUMPI PUSH17 0x100000000000058B90BFBE8E7CC35C3F0 MUL PUSH1 0x80 SHR JUMPDEST PUSH1 0x0 DUP4 PUSH2 0x4000 AND PUSH1 0xF SIGNEXTEND SGT ISZERO PUSH2 0x4DC7 JUMPI PUSH17 0x10000000000002C5C85FDF473E242EA38 MUL PUSH1 0x80 SHR JUMPDEST PUSH1 0x0 DUP4 PUSH2 0x2000 AND PUSH1 0xF SIGNEXTEND SGT ISZERO PUSH2 0x4DEE JUMPI PUSH17 0x1000000000000162E42FEFA39F02B772C MUL PUSH1 0x80 SHR JUMPDEST PUSH1 0x0 DUP4 PUSH2 0x1000 AND PUSH1 0xF SIGNEXTEND SGT ISZERO PUSH2 0x4E15 JUMPI PUSH17 0x10000000000000B17217F7D1CF7D83C1A MUL PUSH1 0x80 SHR JUMPDEST PUSH1 0x0 DUP4 PUSH2 0x800 AND PUSH1 0xF SIGNEXTEND SGT ISZERO PUSH2 0x4E3C JUMPI PUSH17 0x1000000000000058B90BFBE8E7BDCBE2E MUL PUSH1 0x80 SHR JUMPDEST PUSH1 0x0 DUP4 PUSH2 0x400 AND PUSH1 0xF SIGNEXTEND SGT ISZERO PUSH2 0x4E63 JUMPI PUSH17 0x100000000000002C5C85FDF473DEA871F MUL PUSH1 0x80 SHR JUMPDEST PUSH1 0x0 DUP4 PUSH2 0x200 AND PUSH1 0xF SIGNEXTEND SGT ISZERO PUSH2 0x4E8A JUMPI PUSH17 0x10000000000000162E42FEFA39EF44D91 MUL PUSH1 0x80 SHR JUMPDEST PUSH1 0x0 DUP4 PUSH2 0x100 AND PUSH1 0xF SIGNEXTEND SGT ISZERO PUSH2 0x4EB1 JUMPI PUSH17 0x100000000000000B17217F7D1CF79E949 MUL PUSH1 0x80 SHR JUMPDEST PUSH1 0x0 DUP4 PUSH1 0x80 AND PUSH1 0xF SIGNEXTEND SGT ISZERO PUSH2 0x4ED7 JUMPI PUSH17 0x10000000000000058B90BFBE8E7BCE544 MUL PUSH1 0x80 SHR JUMPDEST PUSH1 0x0 DUP4 PUSH1 0x40 AND PUSH1 0xF SIGNEXTEND SGT ISZERO PUSH2 0x4EFD JUMPI PUSH17 0x1000000000000002C5C85FDF473DE6ECA MUL PUSH1 0x80 SHR JUMPDEST PUSH1 0x0 DUP4 PUSH1 0x20 AND PUSH1 0xF SIGNEXTEND SGT ISZERO PUSH2 0x4F23 JUMPI PUSH17 0x100000000000000162E42FEFA39EF366F MUL PUSH1 0x80 SHR JUMPDEST PUSH1 0x0 DUP4 PUSH1 0x10 AND PUSH1 0xF SIGNEXTEND SGT ISZERO PUSH2 0x4F49 JUMPI PUSH17 0x1000000000000000B17217F7D1CF79AFA MUL PUSH1 0x80 SHR JUMPDEST PUSH1 0x0 DUP4 PUSH1 0x8 AND PUSH1 0xF SIGNEXTEND SGT ISZERO PUSH2 0x4F6F JUMPI PUSH17 0x100000000000000058B90BFBE8E7BCD6D MUL PUSH1 0x80 SHR JUMPDEST PUSH1 0x0 DUP4 PUSH1 0x4 AND PUSH1 0xF SIGNEXTEND SGT ISZERO PUSH2 0x4F95 JUMPI PUSH17 0x10000000000000002C5C85FDF473DE6B2 MUL PUSH1 0x80 SHR JUMPDEST PUSH1 0x0 DUP4 PUSH1 0x2 AND PUSH1 0xF SIGNEXTEND SGT ISZERO PUSH2 0x4FBB JUMPI PUSH17 0x1000000000000000162E42FEFA39EF358 MUL PUSH1 0x80 SHR JUMPDEST PUSH1 0x0 DUP4 PUSH1 0x1 AND PUSH1 0xF SIGNEXTEND SGT ISZERO PUSH2 0x4FE1 JUMPI PUSH17 0x10000000000000000B17217F7D1CF79AB MUL PUSH1 0x80 SHR JUMPDEST PUSH1 0xF DUP4 DUP2 SIGNEXTEND PUSH1 0x40 SAR PUSH1 0x3F SUB SWAP1 SIGNEXTEND SHR PUSH1 0x1 PUSH1 0x1 PUSH1 0x7F SHL SUB DUP2 GT ISZERO PUSH2 0x43C JUMPI PUSH1 0x0 DUP1 REVERT JUMPDEST PUSH1 0x0 DUP1 PUSH2 0x43C PUSH1 0xA PUSH2 0x22BF JUMP JUMPDEST PUSH1 0x40 MLOAD DUP1 PUSH2 0x120 ADD PUSH1 0x40 MSTORE DUP1 PUSH1 0x0 PUSH2 0xFFFF AND DUP2 MSTORE PUSH1 0x20 ADD PUSH1 0x0 DUP2 MSTORE PUSH1 0x20 ADD PUSH1 0x0 DUP2 MSTORE PUSH1 0x20 ADD PUSH1 0x0 DUP2 MSTORE PUSH1 0x20 ADD PUSH1 0x0 DUP2 MSTORE PUSH1 0x20 ADD PUSH1 0x0 DUP2 MSTORE PUSH1 0x20 ADD PUSH1 0x0 DUP2 MSTORE PUSH1 0x20 ADD PUSH1 0x0 DUP2 MSTORE PUSH1 0x20 ADD PUSH1 0x0 DUP2 MSTORE POP SWAP1 JUMP JUMPDEST PUSH1 0x40 MLOAD DUP1 PUSH1 0xE0 ADD PUSH1 0x40 MSTORE DUP1 PUSH2 0x5073 PUSH2 0x5106 JUMP JUMPDEST DUP2 MSTORE PUSH1 0x20 ADD PUSH2 0x5080 PUSH2 0x517A JUMP JUMPDEST DUP2 MSTORE PUSH1 0x0 PUSH1 0x20 DUP3 ADD DUP2 SWAP1 MSTORE PUSH1 0x40 DUP3 ADD DUP2 SWAP1 MSTORE PUSH1 0x60 DUP3 ADD DUP2 SWAP1 MSTORE PUSH1 0x80 DUP3 ADD DUP2 SWAP1 MSTORE PUSH1 0xA0 SWAP1 SWAP2 ADD MSTORE SWAP1 JUMP JUMPDEST PUSH1 0x40 DUP1 MLOAD PUSH1 0xA0 DUP2 ADD DUP3 MSTORE PUSH1 0x0 DUP1 DUP3 MSTORE PUSH1 0x20 DUP3 ADD DUP2 SWAP1 MSTORE SWAP2 DUP2 ADD DUP3 SWAP1 MSTORE PUSH1 0x60 DUP2 ADD DUP3 SWAP1 MSTORE PUSH1 0x80 DUP2 ADD SWAP2 SWAP1 SWAP2 MSTORE SWAP1 JUMP JUMPDEST PUSH1 0x40 DUP1 MLOAD PUSH1 0xA0 DUP2 ADD DUP3 MSTORE PUSH1 0x0 DUP1 DUP3 MSTORE PUSH1 0x20 DUP3 ADD DUP2 SWAP1 MSTORE SWAP2 DUP2 ADD DUP3 SWAP1 MSTORE SWAP1 PUSH1 0x60 DUP3 ADD SWAP1 DUP2 MSTORE PUSH1 0x20 ADD PUSH1 0x0 DUP2 MSTORE POP SWAP1 JUMP JUMPDEST PUSH1 0x40 DUP1 MLOAD PUSH1 0x80 DUP2 ADD DUP3 MSTORE PUSH1 0x0 DUP1 DUP3 MSTORE PUSH1 0x20 DUP3 ADD MSTORE SWAP1 DUP2 ADD PUSH2 0x5125 PUSH2 0x51E2 JUMP JUMPDEST DUP2 MSTORE PUSH1 0x0 PUSH1 0x20 SWAP1 SWAP2 ADD MSTORE SWAP1 JUMP JUMPDEST PUSH1 0x40 MLOAD DUP1 PUSH2 0x100 ADD PUSH1 0x40 MSTORE DUP1 PUSH1 0x0 DUP1 NOT AND DUP2 MSTORE PUSH1 0x20 ADD PUSH1 0x0 DUP2 MSTORE PUSH1 0x20 ADD PUSH1 0x0 DUP2 MSTORE PUSH1 0x20 ADD PUSH1 0x0 DUP2 MSTORE PUSH1 0x20 ADD PUSH1 0x0 DUP2 MSTORE PUSH1 0x20 ADD PUSH1 0x0 DUP2 MSTORE PUSH1 0x20 ADD PUSH1 0x0 DUP2 MSTORE PUSH1 0x20 ADD PUSH1 0x0 DUP2 MSTORE POP SWAP1 JUMP JUMPDEST PUSH1 0x40 MLOAD DUP1 PUSH1 0x80 ADD PUSH1 0x40 MSTORE DUP1 PUSH1 0x60 DUP2 MSTORE PUSH1 0x20 ADD PUSH1 0x60 DUP2 MSTORE PUSH1 0x20 ADD PUSH1 0x0 DUP2 MSTORE PUSH1 0x20 ADD PUSH1 0x0 DUP2 MSTORE POP SWAP1 JUMP JUMPDEST PUSH1 0x40 MLOAD DUP1 PUSH1 0xC0 ADD PUSH1 0x40 MSTORE DUP1 PUSH1 0x0 DUP2 MSTORE PUSH1 0x20 ADD PUSH1 0x0 DUP2 MSTORE PUSH1 0x20 ADD PUSH1 0x0 DUP2 MSTORE PUSH1 0x20 ADD PUSH1 0x0 DUP2 MSTORE PUSH1 0x20 ADD PUSH1 0x0 DUP2 MSTORE PUSH1 0x20 ADD PUSH1 0x0 PUSH1 0x3 DUP2 GT ISZERO PUSH2 0x51DD JUMPI INVALID JUMPDEST SWAP1 MSTORE SWAP1 JUMP JUMPDEST PUSH1 0x40 MLOAD DUP1 PUSH1 0x60 ADD PUSH1 0x40 MSTORE DUP1 PUSH1 0x0 PUSH1 0x1 PUSH1 0x1 PUSH1 0xA0 SHL SUB AND DUP2 MSTORE PUSH1 0x20 ADD PUSH1 0x0 DUP2 MSTORE PUSH1 0x20 ADD PUSH1 0x0 DUP2 MSTORE POP SWAP1 JUMP JUMPDEST PUSH1 0x40 MLOAD DUP1 PUSH1 0x20 ADD PUSH1 0x40 MSTORE DUP1 PUSH1 0x1 SWAP1 PUSH1 0x20 DUP3 MUL DUP1 CALLDATASIZE DUP4 CALLDATACOPY POP SWAP2 SWAP3 SWAP2 POP POP JUMP JUMPDEST DUP1 CALLDATALOAD PUSH1 0x1 PUSH1 0x1 PUSH1 0xA0 SHL SUB DUP2 AND DUP2 EQ PUSH2 0xD02 JUMPI PUSH1 0x0 DUP1 REVERT JUMPDEST DUP1 MLOAD PUSH1 0x1 PUSH1 0x1 PUSH1 0x70 SHL SUB NOT DUP2 AND DUP2 EQ PUSH2 0xD02 JUMPI PUSH1 0x0 DUP1 REVERT JUMPDEST DUP1 MLOAD PUSH2 0xD02 DUP2 PUSH2 0x58D0 JUMP JUMPDEST DUP1 MLOAD PUSH1 0xFF DUP2 AND DUP2 EQ PUSH2 0xD02 JUMPI PUSH1 0x0 DUP1 REVERT JUMPDEST PUSH1 0x0 PUSH1 0x20 DUP3 DUP5 SUB SLT ISZERO PUSH2 0x5286 JUMPI DUP1 DUP2 REVERT JUMPDEST PUSH2 0x855 DUP3 PUSH2 0x522A JUMP JUMPDEST PUSH1 0x0 DUP1 PUSH1 0x40 DUP4 DUP6 SUB SLT ISZERO PUSH2 0x52A1 JUMPI DUP1 DUP2 REVERT JUMPDEST PUSH2 0x52AA DUP4 PUSH2 0x522A JUMP JUMPDEST SWAP5 PUSH1 0x20 SWAP4 SWAP1 SWAP4 ADD CALLDATALOAD SWAP4 POP POP POP JUMP JUMPDEST PUSH1 0x0 PUSH1 0x20 DUP3 DUP5 SUB SLT ISZERO PUSH2 0x52C9 JUMPI DUP1 DUP2 REVERT JUMPDEST POP MLOAD SWAP2 SWAP1 POP JUMP JUMPDEST PUSH1 0x0 PUSH1 0xA0 DUP3 DUP5 SUB SLT ISZERO PUSH2 0x52E1 JUMPI DUP1 DUP2 REVERT JUMPDEST PUSH1 0x40 MLOAD PUSH1 0xA0 DUP2 ADD DUP2 DUP2 LT PUSH8 0xFFFFFFFFFFFFFFFF DUP3 GT OR ISZERO PUSH2 0x52FE JUMPI INVALID JUMPDEST PUSH1 0x40 MSTORE DUP3 MLOAD PUSH5 0xFFFFFFFFFF DUP2 AND DUP2 EQ PUSH2 0x5315 JUMPI DUP3 DUP4 REVERT JUMPDEST DUP2 MSTORE PUSH1 0x20 DUP4 ADD MLOAD PUSH1 0x1 PUSH1 0x1 PUSH1 0xF8 SHL SUB NOT DUP2 AND DUP2 EQ PUSH2 0x5331 JUMPI DUP3 DUP4 REVERT JUMPDEST PUSH1 0x20 DUP3 ADD MSTORE PUSH2 0x5342 PUSH1 0x40 DUP5 ADD PUSH2 0x5264 JUMP JUMPDEST PUSH1 0x40 DUP3 ADD MSTORE PUSH2 0x5353 PUSH1 0x60 DUP5 ADD PUSH2 0x5259 JUMP JUMPDEST PUSH1 0x60 DUP3 ADD MSTORE PUSH2 0x5364 PUSH1 0x80 DUP5 ADD PUSH2 0x5241 JUMP JUMPDEST PUSH1 0x80 DUP3 ADD MSTORE SWAP4 SWAP3 POP POP POP JUMP JUMPDEST PUSH1 0x0 PUSH1 0x20 DUP3 DUP5 SUB SLT ISZERO PUSH2 0x5381 JUMPI DUP1 DUP2 REVERT JUMPDEST DUP2 CALLDATALOAD PUSH2 0x855 DUP2 PUSH2 0x58D0 JUMP JUMPDEST PUSH1 0x0 DUP1 PUSH1 0x40 DUP4 DUP6 SUB SLT ISZERO PUSH2 0x539E JUMPI DUP2 DUP3 REVERT JUMPDEST DUP3 CALLDATALOAD PUSH2 0x53A9 DUP2 PUSH2 0x58D0 JUMP JUMPDEST SWAP2 POP PUSH2 0x2CD8 PUSH1 0x20 DUP5 ADD PUSH2 0x522A JUMP JUMPDEST PUSH1 0x0 DUP1 PUSH1 0x0 PUSH1 0x60 DUP5 DUP7 SUB SLT ISZERO PUSH2 0x53CB JUMPI DUP1 DUP2 REVERT JUMPDEST DUP4 CALLDATALOAD PUSH2 0x53D6 DUP2 PUSH2 0x58D0 JUMP JUMPDEST SWAP3 POP PUSH2 0x53E4 PUSH1 0x20 DUP6 ADD PUSH2 0x522A JUMP JUMPDEST SWAP2 POP PUSH2 0x53F2 PUSH1 0x40 DUP6 ADD PUSH2 0x522A JUMP JUMPDEST SWAP1 POP SWAP3 POP SWAP3 POP SWAP3 JUMP JUMPDEST PUSH1 0x0 DUP1 PUSH1 0x0 DUP1 PUSH1 0x0 PUSH1 0xA0 DUP7 DUP9 SUB SLT ISZERO PUSH2 0x5412 JUMPI DUP1 DUP2 REVERT JUMPDEST DUP6 CALLDATALOAD PUSH2 0x541D DUP2 PUSH2 0x58D0 JUMP JUMPDEST SWAP5 POP PUSH2 0x542B PUSH1 0x20 DUP8 ADD PUSH2 0x522A JUMP JUMPDEST SWAP4 POP PUSH2 0x5439 PUSH1 0x40 DUP8 ADD PUSH2 0x522A JUMP JUMPDEST SWAP3 POP PUSH2 0x5447 PUSH1 0x60 DUP8 ADD PUSH2 0x522A JUMP JUMPDEST SWAP5 SWAP8 SWAP4 SWAP7 POP SWAP2 SWAP5 PUSH1 0x80 ADD CALLDATALOAD SWAP3 SWAP2 POP POP JUMP JUMPDEST PUSH1 0x0 DUP1 PUSH1 0x0 DUP1 PUSH1 0x80 DUP6 DUP8 SUB SLT ISZERO PUSH2 0x546D JUMPI DUP4 DUP5 REVERT JUMPDEST DUP5 CALLDATALOAD PUSH2 0x5478 DUP2 PUSH2 0x58D0 JUMP JUMPDEST SWAP4 POP PUSH2 0x5486 PUSH1 0x20 DUP7 ADD PUSH2 0x522A JUMP JUMPDEST SWAP3 POP PUSH2 0x5494 PUSH1 0x40 DUP7 ADD PUSH2 0x522A JUMP JUMPDEST SWAP4 SWAP7 SWAP3 SWAP6 POP SWAP3 SWAP4 PUSH1 0x60 ADD CALLDATALOAD SWAP3 POP POP JUMP JUMPDEST PUSH1 0x0 DUP1 PUSH1 0x0 PUSH1 0x60 DUP5 DUP7 SUB SLT ISZERO PUSH2 0x54B8 JUMPI DUP3 DUP4 REVERT JUMPDEST DUP4 CALLDATALOAD PUSH2 0x54C3 DUP2 PUSH2 0x58D0 JUMP JUMPDEST SWAP3 POP PUSH1 0x20 DUP5 ADD CALLDATALOAD SWAP2 POP PUSH2 0x53F2 PUSH1 0x40 DUP6 ADD PUSH2 0x522A JUMP JUMPDEST PUSH1 0x0 DUP1 PUSH1 0x0 DUP1 PUSH1 0x80 DUP6 DUP8 SUB SLT ISZERO PUSH2 0x54ED JUMPI DUP1 DUP2 REVERT JUMPDEST DUP5 CALLDATALOAD PUSH2 0x54F8 DUP2 PUSH2 0x58D0 JUMP JUMPDEST SWAP4 POP PUSH1 0x20 DUP6 ADD CALLDATALOAD SWAP3 POP PUSH2 0x550D PUSH1 0x40 DUP7 ADD PUSH2 0x522A JUMP JUMPDEST SWAP2 POP PUSH2 0x551B PUSH1 0x60 DUP7 ADD PUSH2 0x522A JUMP JUMPDEST SWAP1 POP SWAP3 SWAP6 SWAP2 SWAP5 POP SWAP3 POP JUMP JUMPDEST PUSH1 0x1 PUSH1 0x1 PUSH1 0xA0 SHL SUB SWAP2 SWAP1 SWAP2 AND DUP2 MSTORE PUSH1 0x20 ADD SWAP1 JUMP JUMPDEST PUSH1 0x1 PUSH1 0x1 PUSH1 0xA0 SHL SUB SWAP6 DUP7 AND DUP2 MSTORE SWAP4 DUP6 AND PUSH1 0x20 DUP6 ADD MSTORE SWAP2 DUP5 AND PUSH1 0x40 DUP5 ADD MSTORE DUP4 AND PUSH1 0x60 DUP4 ADD MSTORE SWAP1 SWAP2 AND PUSH1 0x80 DUP3 ADD MSTORE PUSH1 0xA0 ADD SWAP1 JUMP JUMPDEST PUSH1 0x1 PUSH1 0x1 PUSH1 0xA0 SHL SUB SWAP3 SWAP1 SWAP3 AND DUP3 MSTORE DUP1 MLOAD PUSH5 0xFFFFFFFFFF AND PUSH1 0x20 DUP1 DUP5 ADD SWAP2 SWAP1 SWAP2 MSTORE DUP2 ADD MLOAD PUSH1 0x1 PUSH1 0x1 PUSH1 0xF8 SHL SUB NOT AND PUSH1 0x40 DUP1 DUP5 ADD SWAP2 SWAP1 SWAP2 MSTORE DUP2 ADD MLOAD PUSH1 0xFF AND PUSH1 0x60 DUP1 DUP5 ADD SWAP2 SWAP1 SWAP2 MSTORE DUP2 ADD MLOAD PUSH2 0xFFFF AND PUSH1 0x80 DUP1 DUP5 ADD SWAP2 SWAP1 SWAP2 MSTORE ADD MLOAD PUSH1 0x1 PUSH1 0x1 PUSH1 0x70 SHL SUB NOT AND PUSH1 0xA0 DUP3 ADD MSTORE PUSH1 0xC0 ADD SWAP1 JUMP JUMPDEST PUSH1 0x1 PUSH1 0x1 PUSH1 0xA0 SHL SUB SWAP7 SWAP1 SWAP7 AND DUP7 MSTORE PUSH2 0xFFFF SWAP5 SWAP1 SWAP5 AND PUSH1 0x20 DUP7 ADD MSTORE PUSH1 0x40 DUP6 ADD SWAP3 SWAP1 SWAP3 MSTORE PUSH1 0x60 DUP5 ADD MSTORE PUSH1 0x80 DUP4 ADD MSTORE PUSH1 0xA0 DUP3 ADD MSTORE PUSH1 0xC0 ADD SWAP1 JUMP JUMPDEST PUSH1 0x1 PUSH1 0x1 PUSH1 0xA0 SHL SUB SWAP4 DUP5 AND DUP2 MSTORE PUSH1 0x20 DUP2 ADD SWAP3 SWAP1 SWAP3 MSTORE SWAP1 SWAP2 AND PUSH1 0x40 DUP3 ADD MSTORE PUSH1 0x60 ADD SWAP1 JUMP JUMPDEST PUSH1 0x1 PUSH1 0x1 PUSH1 0xA0 SHL SUB SWAP5 DUP6 AND DUP2 MSTORE PUSH1 0x20 DUP2 ADD SWAP4 SWAP1 SWAP4 MSTORE SWAP3 AND PUSH1 0x40 DUP3 ADD MSTORE PUSH2 0xFFFF SWAP1 SWAP2 AND PUSH1 0x60 DUP3 ADD MSTORE PUSH1 0x80 ADD SWAP1 JUMP JUMPDEST PUSH1 0x1 PUSH1 0x1 PUSH1 0xA0 SHL SUB SWAP5 SWAP1 SWAP5 AND DUP5 MSTORE PUSH1 0x20 DUP5 ADD SWAP3 SWAP1 SWAP3 MSTORE PUSH1 0x40 DUP4 ADD MSTORE PUSH1 0x60 DUP3 ADD MSTORE PUSH1 0x80 ADD SWAP1 JUMP JUMPDEST SWAP1 ISZERO ISZERO DUP2 MSTORE PUSH1 0x20 ADD SWAP1 JUMP JUMPDEST SWAP1 DUP2 MSTORE PUSH1 0x20 ADD SWAP1 JUMP JUMPDEST PUSH1 0x20 DUP1 DUP3 MSTORE PUSH1 0x16 SWAP1 DUP3 ADD MSTORE PUSH22 0x13585C9AD95D081B9BDD081A5B9A5D1A585B1A5E9959 PUSH1 0x52 SHL PUSH1 0x40 DUP3 ADD MSTORE PUSH1 0x60 ADD SWAP1 JUMP JUMPDEST PUSH1 0x20 DUP1 DUP3 MSTORE PUSH1 0x4 SWAP1 DUP3 ADD MSTORE PUSH4 0x135A5B9D PUSH1 0xE2 SHL PUSH1 0x40 DUP3 ADD MSTORE PUSH1 0x60 ADD SWAP1 JUMP JUMPDEST PUSH1 0x20 DUP1 DUP3 MSTORE PUSH1 0x6 SWAP1 DUP3 ADD MSTORE PUSH6 0x52656465656D PUSH1 0xD0 SHL PUSH1 0x40 DUP3 ADD MSTORE PUSH1 0x60 ADD SWAP1 JUMP JUMPDEST PUSH1 0x20 DUP1 DUP3 MSTORE PUSH1 0x15 SWAP1 DUP3 ADD MSTORE PUSH21 0x10D1CE881B9BC81B585C9AD95D1CC81B1A5CDD1959 PUSH1 0x5A SHL PUSH1 0x40 DUP3 ADD MSTORE PUSH1 0x60 ADD SWAP1 JUMP JUMPDEST PUSH1 0x20 DUP1 DUP3 MSTORE PUSH1 0xD SWAP1 DUP3 ADD MSTORE PUSH13 0x92DCECC2D8D2C840D2DCC8CAF PUSH1 0x9B SHL PUSH1 0x40 DUP3 ADD MSTORE PUSH1 0x60 ADD SWAP1 JUMP JUMPDEST PUSH1 0x20 DUP1 DUP3 MSTORE PUSH1 0x16 SWAP1 DUP3 ADD MSTORE PUSH22 0x496E73756666696369656E7420616C6C6F77616E6365 PUSH1 0x50 SHL PUSH1 0x40 DUP3 ADD MSTORE PUSH1 0x60 ADD SWAP1 JUMP JUMPDEST PUSH1 0x20 DUP1 DUP3 MSTORE PUSH1 0x13 SWAP1 DUP3 ADD MSTORE PUSH19 0x2AB730BABA3437B934BD32B21031B0B63632B9 PUSH1 0x69 SHL PUSH1 0x40 DUP3 ADD MSTORE PUSH1 0x60 ADD SWAP1 JUMP JUMPDEST PUSH1 0x20 DUP1 DUP3 MSTORE PUSH1 0x16 SWAP1 DUP3 ADD MSTORE PUSH22 0x10D1CE881B585C9AD95D081A5B99195E08189BDD5B99 PUSH1 0x52 SHL PUSH1 0x40 DUP3 ADD MSTORE PUSH1 0x60 ADD SWAP1 JUMP JUMPDEST PUSH1 0x20 DUP1 DUP3 MSTORE PUSH1 0xE SWAP1 DUP3 ADD MSTORE PUSH14 0x125B9D985B1A59081B585C9AD95D PUSH1 0x92 SHL PUSH1 0x40 DUP3 ADD MSTORE PUSH1 0x60 ADD SWAP1 JUMP JUMPDEST PUSH1 0x20 DUP1 DUP3 MSTORE PUSH1 0x8 SWAP1 DUP3 ADD MSTORE PUSH8 0x9CCACE4086C2E6D PUSH1 0xC3 SHL PUSH1 0x40 DUP3 ADD MSTORE PUSH1 0x60 ADD SWAP1 JUMP JUMPDEST PUSH1 0x20 DUP1 DUP3 MSTORE PUSH1 0x17 SWAP1 DUP3 ADD MSTORE PUSH32 0x43616E6E6F74207472616E7366657220746F2073656C66000000000000000000 PUSH1 0x40 DUP3 ADD MSTORE PUSH1 0x60 ADD SWAP1 JUMP JUMPDEST PUSH1 0x20 DUP1 DUP3 MSTORE PUSH1 0xA SWAP1 DUP3 ADD MSTORE PUSH10 0x2732B390372A37B5B2B7 PUSH1 0xB1 SHL PUSH1 0x40 DUP3 ADD MSTORE PUSH1 0x60 ADD SWAP1 JUMP JUMPDEST PUSH1 0x20 DUP1 DUP3 MSTORE PUSH1 0x13 SWAP1 DUP3 ADD MSTORE PUSH19 0x10D1CE881B9BC81B585C9AD95D08199BDD5B99 PUSH1 0x6A SHL PUSH1 0x40 DUP3 ADD MSTORE PUSH1 0x60 ADD SWAP1 JUMP JUMPDEST PUSH2 0xFFFF SWAP3 SWAP1 SWAP3 AND DUP3 MSTORE PUSH1 0x20 DUP3 ADD MSTORE PUSH1 0x40 ADD SWAP1 JUMP JUMPDEST PUSH2 0xFFFF DUP2 AND DUP2 EQ PUSH2 0x58E0 JUMPI PUSH1 0x0 DUP1 REVERT JUMPDEST POP JUMP INVALID MSTORE8 PUSH2 0x6665 0x4D PUSH2 0x7468 GASPRICE KECCAK256 PUSH14 0x756C7469706C69636174696F6E20 PUSH16 0x766572666C6F77A26469706673582212 KECCAK256 PUSH3 0xF58C80 SWAP13 REVERT POP PUSH2 0x4D3D PUSH27 0x2A990D8659C99B2C37B861B25D58E29C5EE350CDAA64736F6C6343 STOP SMOD MOD STOP CALLER ","sha1":"217c10a08d88498699508ad2ab5a2b4b5340a082","source":"// SPDX-License-Identifier: GPL-3.0-only\npragma solidity =0.7.6;\npragma abicoder v2;\n\nimport {StorageLayoutV1} from \"../../global/StorageLayoutV1.sol\";\nimport {Constants} from \"../../global/Constants.sol\";\nimport {nTokenHandler, nTokenPortfolio} from \"../../internal/nToken/nTokenHandler.sol\";\nimport {AccountContext, AccountContextHandler} from \"../../internal/AccountContextHandler.sol\";\nimport {nTokenSupply} from \"../../internal/nToken/nTokenSupply.sol\";\nimport {nTokenCalculations} from \"../../internal/nToken/nTokenCalculations.sol\";\nimport {AssetRate, AssetRateParameters} from \"../../internal/markets/AssetRate.sol\";\nimport {BalanceHandler, BalanceState} from \"../../internal/balances/BalanceHandler.sol\";\nimport {Token, TokenType, TokenHandler} from \"../../internal/balances/TokenHandler.sol\";\nimport {Incentives} from \"../../internal/balances/Incentives.sol\";\n\nimport {ActionGuards} from \"./ActionGuards.sol\";\nimport {nTokenRedeemAction} from \"./nTokenRedeemAction.sol\";\nimport {nTokenMintAction} from \"./nTokenMintAction.sol\";\nimport {FreeCollateralExternal} from \"../FreeCollateralExternal.sol\";\nimport {SettleAssetsExternal} from \"../SettleAssetsExternal.sol\";\nimport {MigrateIncentives} from \"../MigrateIncentives.sol\";\nimport {INTokenAction} from \"../../../interfaces/notional/INTokenAction.sol\";\nimport {SafeInt256} from \"../../math/SafeInt256.sol\";\nimport {SafeUint256} from \"../../math/SafeUint256.sol\";\n\ncontract nTokenAction is StorageLayoutV1, INTokenAction, ActionGuards {\n    using BalanceHandler for BalanceState;\n    using AssetRate for AssetRateParameters;\n    using AccountContextHandler for AccountContext;\n    using nTokenHandler for nTokenPortfolio;\n    using TokenHandler for Token;\n    using SafeInt256 for int256;\n    using SafeUint256 for uint256;\n\n    /// @notice Total number of tokens in circulation\n    /// @param nTokenAddress The address of the nToken\n    /// @return totalSupply number of tokens held\n    function nTokenTotalSupply(address nTokenAddress) external view override returns (uint256 totalSupply) {\n        (totalSupply, /* */, /* */) = nTokenSupply.getStoredNTokenSupplyFactors(nTokenAddress);\n    }\n\n    /// @notice Get the number of tokens held by the `account`\n    /// @param account The address of the account to get the balance of\n    /// @return The number of tokens held\n    function nTokenBalanceOf(uint16 currencyId, address account) external view override returns (uint256) {\n        ( /* */, int256 nTokenBalance, /* */, /*  */) = BalanceHandler.getBalanceStorage(account, currencyId);\n        return nTokenBalance.toUint();\n    }\n\n    /// @notice Get the number of tokens `spender` is approved to spend on behalf of `account`\n    /// @param currencyId Currency id of the nToken account\n    /// @param tokenHolder The address of the account holding the funds\n    /// @param spender The address of the account spending the funds\n    /// @return The number of tokens approved\n    function nTokenTransferAllowance(\n        uint16 currencyId,\n        address tokenHolder,\n        address spender\n    ) external view override returns (uint256) {\n        // The specific allowance overrides the blanket whitelist\n        uint256 allowance = nTokenAllowance[tokenHolder][spender][currencyId];\n        if (allowance > 0) {\n            return allowance;\n        } else {\n            return nTokenWhitelist[tokenHolder][spender];\n        }\n    }\n\n    /// @notice Approve `spender` to transfer up to `amount` from `src`\n    /// @dev auth:nTokenProxy\n    /// @param currencyId Currency id of the nToken account\n    /// @param tokenHolder The address of the account holding the funds\n    /// @param spender The address of the account which may transfer tokens\n    /// @param amount The number of tokens that are approved (2^256-1 means infinite)\n    /// @return Whether or not the approval succeeded\n    function nTokenTransferApprove(\n        uint16 currencyId,\n        address tokenHolder,\n        address spender,\n        uint256 amount\n    ) external override returns (bool) {\n        address nTokenAddress = nTokenHandler.nTokenAddress(currencyId);\n        require(msg.sender == nTokenAddress, \"Unauthorized caller\");\n        require(tokenHolder != address(0));\n\n        nTokenAllowance[tokenHolder][spender][currencyId] = amount;\n\n        return true;\n    }\n\n    /// @notice Transfer `amount` tokens from `msg.sender` to `dst`\n    /// @dev auth:nTokenProxy\n    /// @param from The address of the destination account\n    /// @param to The address of the destination account\n    /// @param amount The number of tokens to transfer\n    /// @return Whether or not the transfer succeeded\n    function nTokenTransfer(\n        uint16 currencyId,\n        address from,\n        address to,\n        uint256 amount\n    ) external override returns (bool) {\n        address nTokenAddress = nTokenHandler.nTokenAddress(currencyId);\n        require(msg.sender == nTokenAddress, \"Unauthorized caller\");\n        require(from != to, \"Cannot transfer to self\");\n        requireValidAccount(to);\n\n        return _transfer(currencyId, from, to, amount);\n    }\n\n    /// @notice Transfer `amount` tokens from `src` to `dst`\n    /// @dev auth:nTokenProxy\n    /// @param currencyId Currency id of the nToken\n    /// @param spender The address of the original caller\n    /// @param from The address of the source account\n    /// @param to The address of the destination account\n    /// @param amount The number of tokens to transfer\n    /// @return Whether or not the transfer succeeded\n    function nTokenTransferFrom(\n        uint16 currencyId,\n        address spender,\n        address from,\n        address to,\n        uint256 amount\n    ) external override returns (bool) {\n        address nTokenAddress = nTokenHandler.nTokenAddress(currencyId);\n        require(msg.sender == nTokenAddress, \"Unauthorized caller\");\n        require(from != to, \"Cannot transfer to self\");\n        requireValidAccount(to);\n\n        uint256 allowance = nTokenAllowance[from][spender][currencyId];\n\n        if (allowance > 0) {\n            // This is the specific allowance for the nToken.\n            require(allowance >= amount, \"Insufficient allowance\");\n            // Overflow checked above\n            nTokenAllowance[from][spender][currencyId] = allowance - amount;\n        } else {\n            // This whitelist allowance works across all nTokens\n            allowance = nTokenWhitelist[from][spender];\n            require(allowance >= amount, \"Insufficient allowance\");\n            // Overflow checked above\n            nTokenWhitelist[from][spender] = allowance - amount;\n        }\n\n        return _transfer(currencyId, from, to, amount);\n    }\n\n    /// @notice Will approve all nToken transfers to the specific sender. This is used for simplifying UX, a user can approve\n    /// all token transfers to an external exchange or protocol in a single txn. This must be called directly\n    /// on the Notional contract, not available via the ERC20 proxy.\n    /// @dev emit:Approval\n    /// @dev auth:msg.sender\n    /// @param spender The address of the account which may transfer tokens\n    /// @param amount The number of tokens that are approved\n    /// @return Whether or not the approval succeeded\n    function nTokenTransferApproveAll(address spender, uint256 amount)\n        external\n        override\n        returns (bool)\n    {\n        nTokenWhitelist[msg.sender][spender] = amount;\n        emit nTokenApproveAll(msg.sender, spender, amount);\n        return true;\n    }\n\n    /// @notice Claims incentives accrued on all nToken balances and transfers them to the msg.sender\n    /// @dev auth:msg.sender\n    /// @return Total amount of incentives claimed\n    function nTokenClaimIncentives() external override returns (uint256) {\n        address account = msg.sender;\n        AccountContext memory accountContext = AccountContextHandler.getAccountContext(account);\n        uint256 totalIncentivesClaimed = 0;\n        BalanceState memory balanceState;\n\n        if (accountContext.isBitmapEnabled()) {\n            balanceState.loadBalanceState(account, accountContext.bitmapCurrencyId, accountContext);\n            if (balanceState.storedNTokenBalance > 0) {\n                // balance state is updated inside claim incentives manual\n                totalIncentivesClaimed = balanceState.claimIncentivesManual(account);\n            }\n        }\n\n        bytes18 currencies = accountContext.activeCurrencies;\n        while (currencies != 0) {\n            uint16 currencyId = uint16(bytes2(currencies) & Constants.UNMASK_FLAGS);\n\n            balanceState.loadBalanceState(account, currencyId, accountContext);\n            if (balanceState.storedNTokenBalance > 0) {\n                // balance state is updated inside claim incentives manual\n                totalIncentivesClaimed = totalIncentivesClaimed\n                    .add(balanceState.claimIncentivesManual(account));\n            }\n\n            currencies = currencies << 16;\n        }\n\n        // NOTE: no need to set account context after claiming incentives. No currencies\n        // or fCash assets have been added or changed.\n        return totalIncentivesClaimed;\n    }\n\n    /// @notice Returns the present value of the nToken's assets denominated in asset tokens\n    function nTokenPresentValueAssetDenominated(uint16 currencyId) external view override returns (\n        int256 totalAssetPV\n    ) {\n        (totalAssetPV, /* portfolio */) = _getNTokenPV(currencyId);\n    }\n\n    /// @notice Returns the present value of the nToken's assets denominated in underlying\n    function nTokenPresentValueUnderlyingDenominated(uint16 currencyId) external view override returns (\n        int256 totalUnderlyingPVInternal\n    ) {\n        (int256 totalAssetPV, nTokenPortfolio memory nToken) = _getNTokenPV(currencyId);\n        totalUnderlyingPVInternal = nToken.cashGroup.assetRate.convertToUnderlying(totalAssetPV);\n    }\n\n    /// @notice Returns the present value of the nToken's assets denominated in the underlying's native\n    /// token precision\n    function nTokenPresentValueUnderlyingExternal(uint16 currencyId) external view override returns (\n        uint256 underlyingExternal\n    ) {\n        (int256 totalAssetPV, nTokenPortfolio memory nToken) = _getNTokenPV(currencyId);\n        AssetRateParameters memory assetRate = nToken.cashGroup.assetRate;\n        underlyingExternal = SafeInt256.toUint(\n            assetRate.convertToUnderlying(totalAssetPV)\n                .mul(assetRate.underlyingDecimals)\n                .div(Constants.INTERNAL_TOKEN_PRECISION)\n        );\n    }\n\n    function _getNTokenPV(uint16 currencyId) private view returns (\n        int256 totalAssetPV, nTokenPortfolio memory nToken\n    ) {\n        nToken.loadNTokenPortfolioView(currencyId);\n        totalAssetPV = nTokenCalculations.getNTokenAssetPV(nToken, block.timestamp);\n    }\n\n    /// @notice Redeems nTokens via the ERC4626 proxy which means that the shares (nTokens to redeem)\n    /// are always redeemed to underlying (reverting on residuals) and transferred back to the owner.\n    /// Due to how BalanceState.finalize is structured, we do not handle cases where receiver != owner.\n    function nTokenRedeemViaProxy(uint16 currencyId, uint256 shares, address receiver, address owner)\n        external override returns (uint256) \n    {\n        address nTokenAddress = nTokenHandler.nTokenAddress(currencyId);\n        // We don't implement separate receivers for ERC4626\n        require(msg.sender == nTokenAddress && receiver == owner, \"Unauthorized caller\");\n        int256 tokensToRedeem = shares.toInt();\n        BalanceState memory balanceState;\n        AccountContext memory ownerContext = AccountContextHandler.getAccountContext(owner);\n        // If the owner has debt we will have to do a FC check, so here we settle assets first.\n        if (ownerContext.mustSettleAssets()) {\n            ownerContext = SettleAssetsExternal.settleAccount(owner, ownerContext);\n        }\n\n        balanceState.loadBalanceState(owner, currencyId, ownerContext);\n        balanceState.netNTokenSupplyChange = balanceState.netNTokenSupplyChange.sub(tokensToRedeem);\n        int256 assetCash = nTokenRedeemAction.nTokenRedeemViaBatch(currencyId, tokensToRedeem);\n        // All of the tokens redeemed will be transferred back to the owner and redeemed to underlying\n        balanceState.netCashChange = assetCash;\n        balanceState.netAssetTransferInternalPrecision = assetCash.neg();\n        balanceState.finalize({account: owner, accountContext: ownerContext, redeemToUnderlying: true});\n        ownerContext.setAccountContext(owner);\n\n        // If the owner has debts, we must nee a free collateral check here\n        if (ownerContext.hasDebt != 0x00) {\n            FreeCollateralExternal.checkFreeCollateralAndRevert(owner);\n        }\n\n        // Calling proxy will emit the proper transfer event\n        return assetCash.toUint();\n    }\n\n    /// @notice Mints nTokens via the ERC4626 proxy which means that the proxy will have transferred underlying\n    /// tokens to Notional before this method is called.\n    function nTokenMintViaProxy(uint16 currencyId, uint256 assets, address receiver)\n        external payable override returns (uint256) {\n        address nTokenAddress = nTokenHandler.nTokenAddress(currencyId);\n        require(msg.sender == nTokenAddress, \"Unauthorized caller\");\n\n        // If we are minting nETH then we assets must equal the ETH sent\n        if (currencyId == Constants.ETH_CURRENCY_ID) require(assets == msg.value);\n\n        // At this point the proxy will have transferred underlying so we convert it to asset tokens.\n        Token memory assetToken = TokenHandler.getAssetToken(currencyId);\n        int256 assetTokensReceivedInternal;\n        if (assetToken.tokenType == TokenType.NonMintable) {\n            // NonMintable asset tokens are just converted to internal precision\n            assetTokensReceivedInternal = assetToken.convertToInternal(assets.toInt());\n        } else {\n            assetTokensReceivedInternal = assetToken.convertToInternal(\n                assetToken.mint({currencyId: currencyId, underlyingAmountExternal: assets})\n            );\n        }\n\n        BalanceState memory balanceState;\n        AccountContext memory receiverContext = AccountContextHandler.getAccountContext(receiver);\n        balanceState.loadBalanceState(receiver, currencyId, receiverContext);\n\n        int256 nTokensMinted = nTokenMintAction.nTokenMint(currencyId, assetTokensReceivedInternal);\n        balanceState.netNTokenSupplyChange = nTokensMinted;\n        balanceState.finalize(receiver, receiverContext, true);\n        receiverContext.setAccountContext(receiver);\n\n        // No need for a free collateral check, we are depositing into the account and their collateral\n        // position will necessarily increase.\n        return nTokensMinted.toUint();\n    }\n\n    /// @notice Transferring tokens will also claim incentives at the same time\n    function _transfer(\n        uint16 currencyId,\n        address sender,\n        address recipient,\n        uint256 amount\n    ) internal returns (bool) {\n        // This prevents amountInt from being negative\n        int256 amountInt = SafeInt256.toInt(amount);\n\n        AccountContext memory senderContext = AccountContextHandler.getAccountContext(sender);\n        // If sender has debt then we will check free collateral which will revert if we have not\n        // settled assets first. To prevent this we settle sender context if required.\n        if (senderContext.mustSettleAssets()) {\n            senderContext = SettleAssetsExternal.settleAccount(sender, senderContext);\n        }\n\n        BalanceState memory senderBalance;\n        senderBalance.loadBalanceState(sender, currencyId, senderContext);\n        senderBalance.netNTokenTransfer = amountInt.neg();\n        senderBalance.finalize(sender, senderContext, false);\n        senderContext.setAccountContext(sender);\n\n        AccountContext memory recipientContext = AccountContextHandler.getAccountContext(recipient);\n        BalanceState memory recipientBalance;\n        recipientBalance.loadBalanceState(recipient, currencyId, recipientContext);\n        recipientBalance.netNTokenTransfer = amountInt;\n        recipientBalance.finalize(recipient, recipientContext, false);\n        recipientContext.setAccountContext(recipient);\n\n        // nTokens are used as collateral so we have to check the free collateral when we transfer. Only the\n        // sender needs a free collateral check, the receiver's net free collateral position will only increase\n        if (senderContext.hasDebt != 0x00) {\n            FreeCollateralExternal.checkFreeCollateralAndRevert(sender);\n        }\n\n        return true;\n    }\n\n    /// @notice Get a list of deployed library addresses (sorted by library name)\n    function getLibInfo() external pure returns (address, address, address, address, address) {\n        return (\n            address(FreeCollateralExternal),\n            address(MigrateIncentives),\n            address(SettleAssetsExternal),\n            address(nTokenMintAction),\n            address(nTokenRedeemAction)\n        );\n    }\n}\n","sourcePath":"contracts/external/actions/nTokenAction.sol","deployment":{"address":"0x03CeAC91e716864E40b04d8ae9bCa343Be0179A0","chainid":"5","blockHeight":7454259}}