{"abi":[{"anonymous":false,"inputs":[{"indexed":false,"internalType":"uint16","name":"currencyId","type":"uint16"},{"indexed":false,"internalType":"address","name":"vault","type":"address"},{"indexed":false,"internalType":"int256","name":"shortfall","type":"int256"}],"name":"ProtocolInsolvency","type":"event"},{"anonymous":false,"inputs":[{"indexed":false,"internalType":"address","name":"vaultAddress","type":"address"},{"indexed":false,"internalType":"bool","name":"enabled","type":"bool"}],"name":"VaultChange","type":"event"},{"anonymous":false,"inputs":[{"indexed":false,"internalType":"address","name":"vaultAddress","type":"address"},{"indexed":false,"internalType":"bool","name":"enabled","type":"bool"}],"name":"VaultPauseStatus","type":"event"},{"inputs":[{"internalType":"uint256","name":"maturity","type":"uint256"},{"internalType":"uint256","name":"assetCashToDepositExternal","type":"uint256"},{"internalType":"bytes","name":"vaultData","type":"bytes"}],"name":"depositVaultCashToStrategyTokens","outputs":[],"stateMutability":"nonpayable","type":"function"},{"inputs":[{"internalType":"address","name":"vault","type":"address"},{"internalType":"uint256","name":"maturity","type":"uint256"}],"name":"getCashRequiredToSettle","outputs":[{"internalType":"int256","name":"assetCashRequiredToSettle","type":"int256"},{"internalType":"int256","name":"underlyingCashRequiredToSettle","type":"int256"}],"stateMutability":"view","type":"function"},{"inputs":[{"internalType":"address","name":"vault","type":"address"}],"name":"getCashRequiredToSettleCurrent","outputs":[{"internalType":"int256","name":"assetCashRequiredToSettle","type":"int256"},{"internalType":"int256","name":"underlyingCashRequiredToSettle","type":"int256"}],"stateMutability":"view","type":"function"},{"inputs":[{"internalType":"address","name":"vault","type":"address"}],"name":"getCurrentVaultMaturity","outputs":[{"internalType":"uint256","name":"","type":"uint256"}],"stateMutability":"view","type":"function"},{"inputs":[{"internalType":"address","name":"vault","type":"address"}],"name":"getCurrentVaultState","outputs":[{"components":[{"internalType":"uint256","name":"maturity","type":"uint256"},{"internalType":"int256","name":"totalfCash","type":"int256"},{"internalType":"int256","name":"totalfCashRequiringSettlement","type":"int256"},{"internalType":"bool","name":"isFullySettled","type":"bool"},{"internalType":"uint256","name":"accountsRequiringSettlement","type":"uint256"},{"internalType":"uint256","name":"totalVaultShares","type":"uint256"},{"internalType":"uint256","name":"totalAssetCash","type":"uint256"},{"internalType":"uint256","name":"totalStrategyTokens","type":"uint256"}],"internalType":"struct VaultState","name":"vaultState","type":"tuple"}],"stateMutability":"view","type":"function"},{"inputs":[{"internalType":"address","name":"vault","type":"address"}],"name":"getVaultConfig","outputs":[{"components":[{"internalType":"address","name":"vault","type":"address"},{"internalType":"uint16","name":"flags","type":"uint16"},{"internalType":"uint16","name":"borrowCurrencyId","type":"uint16"},{"internalType":"int256","name":"maxVaultBorrowCapacity","type":"int256"},{"internalType":"int256","name":"minAccountBorrowSize","type":"int256"},{"internalType":"uint256","name":"termLengthInSeconds","type":"uint256"},{"internalType":"uint256","name":"termOffsetInSeconds","type":"uint256"},{"internalType":"int256","name":"feeRate","type":"int256"},{"internalType":"int256","name":"minCollateralRatio","type":"int256"},{"internalType":"uint256","name":"liquidationRate","type":"uint256"},{"internalType":"int256","name":"reserveFeeShare","type":"int256"},{"components":[{"internalType":"contract AssetRateAdapter","name":"rateOracle","type":"address"},{"internalType":"int256","name":"rate","type":"int256"},{"internalType":"int256","name":"underlyingDecimals","type":"int256"}],"internalType":"struct AssetRateParameters","name":"assetRate","type":"tuple"}],"internalType":"struct VaultConfig","name":"vaultConfig","type":"tuple"}],"stateMutability":"view","type":"function"},{"inputs":[{"internalType":"address","name":"vault","type":"address"},{"internalType":"uint256","name":"maturity","type":"uint256"}],"name":"getVaultState","outputs":[{"components":[{"internalType":"uint256","name":"maturity","type":"uint256"},{"internalType":"int256","name":"totalfCash","type":"int256"},{"internalType":"int256","name":"totalfCashRequiringSettlement","type":"int256"},{"internalType":"bool","name":"isFullySettled","type":"bool"},{"internalType":"uint256","name":"accountsRequiringSettlement","type":"uint256"},{"internalType":"uint256","name":"totalVaultShares","type":"uint256"},{"internalType":"uint256","name":"totalAssetCash","type":"uint256"},{"internalType":"uint256","name":"totalStrategyTokens","type":"uint256"}],"internalType":"struct VaultState","name":"vaultState","type":"tuple"}],"stateMutability":"view","type":"function"},{"inputs":[],"name":"owner","outputs":[{"internalType":"address","name":"","type":"address"}],"stateMutability":"view","type":"function"},{"inputs":[],"name":"pauseGuardian","outputs":[{"internalType":"address","name":"","type":"address"}],"stateMutability":"view","type":"function"},{"inputs":[],"name":"pauseRouter","outputs":[{"internalType":"address","name":"","type":"address"}],"stateMutability":"view","type":"function"},{"inputs":[{"internalType":"uint256","name":"maturity","type":"uint256"},{"internalType":"uint256","name":"strategyTokensToRedeem","type":"uint256"},{"internalType":"bytes","name":"vaultData","type":"bytes"}],"name":"redeemStrategyTokensToCash","outputs":[{"internalType":"int256","name":"assetCashRequiredToSettle","type":"int256"},{"internalType":"int256","name":"underlyingCashRequiredToSettle","type":"int256"}],"stateMutability":"nonpayable","type":"function"},{"inputs":[{"internalType":"address","name":"vaultAddress","type":"address"},{"internalType":"uint80","name":"maxVaultBorrowCapacity","type":"uint80"},{"internalType":"uint256","name":"maturity","type":"uint256"},{"internalType":"uint256","name":"strategyTokensToRedeem","type":"uint256"},{"internalType":"bytes","name":"vaultData","type":"bytes"}],"name":"reduceMaxBorrowCapacity","outputs":[],"stateMutability":"nonpayable","type":"function"},{"inputs":[{"internalType":"address","name":"vaultAddress","type":"address"},{"internalType":"bool","name":"enable","type":"bool"}],"name":"setVaultPauseStatus","outputs":[],"stateMutability":"nonpayable","type":"function"},{"inputs":[{"internalType":"address","name":"vault","type":"address"},{"internalType":"uint256","name":"maturity","type":"uint256"},{"internalType":"address[]","name":"settleAccounts","type":"address[]"},{"internalType":"uint256[]","name":"vaultSharesToRedeem","type":"uint256[]"},{"internalType":"bytes","name":"redeemCallData","type":"bytes"}],"name":"settleVault","outputs":[],"stateMutability":"nonpayable","type":"function"},{"inputs":[{"internalType":"address","name":"vaultAddress","type":"address"},{"components":[{"internalType":"uint16","name":"flags","type":"uint16"},{"internalType":"uint16","name":"borrowCurrencyId","type":"uint16"},{"internalType":"uint80","name":"maxVaultBorrowCapacity","type":"uint80"},{"internalType":"uint32","name":"minAccountBorrowSize","type":"uint32"},{"internalType":"uint16","name":"minCollateralRatioBPS","type":"uint16"},{"internalType":"uint16","name":"termLengthInDays","type":"uint16"},{"internalType":"uint16","name":"termOffsetInDays","type":"uint16"},{"internalType":"uint8","name":"feeRate5BPS","type":"uint8"},{"internalType":"uint8","name":"liquidationRate","type":"uint8"},{"internalType":"uint8","name":"reserveFeeShare","type":"uint8"}],"internalType":"struct VaultConfigStorage","name":"vaultConfig","type":"tuple"}],"name":"updateVault","outputs":[],"stateMutability":"nonpayable","type":"function"}],"bytecode":"608060405234801561001057600080fd5b506140ee806100206000396000f3fe608060405234801561001057600080fd5b50600436106100f55760003560e01c80636c346c0911610097578063d04c16ac11610066578063d04c16ac146101ea578063d6ddeb9a146101fd578063de1eb9a314610210578063ee01436b14610230576100f5565b80636c346c09146101b457806382463367146101c75780638da5cb5b146101cf578063aa0be025146101d7576100f5565b806327abb234116100d357806327abb2341461014e578063315722811461016e5780633a1141eb1461018e57806356f428c4146101a1576100f5565b806310cad956146100fa5780631caf5ee01461010f57806324a3d62214610139575b600080fd5b61010d610108366004613860565b610243565b005b61012261011d3660046137a8565b610488565b604051610130929190613b04565b60405180910390f35b6101416104cf565b6040516101309190613a7c565b61016161015c3660046137a8565b6104de565b6040516101309190613afb565b61018161017c366004613837565b6104ff565b6040516101309190613d44565b61018161019c3660046137a8565b610518565b61010d6101af3660046137c2565b610540565b6101226101c2366004613837565b6105b9565b6101416105f4565b610141610603565b61010d6101e53660046137f8565b61061a565b61010d6101f83660046139d8565b6106ae565b61010d61020b366004613910565b6107cf565b61022361021e3660046137a8565b610830565b6040516101309190613c99565b61012261023e3660046139d8565b610847565b6002600a54141561026f5760405162461bcd60e51b815260040161026690613c4d565b60405180910390fd5b6002600a55600061027f89610899565b9050600061028d8a8a6108c8565b905061029a82608061097b565b156102a5576001600a555b4289111580156102b457508685145b80156102c257506060810151155b8015610345575060405163644a478f60e01b81526001600160a01b038b169063644a478f906102f5908c90600401613afb565b60206040518083038186803b15801561030d57600080fd5b505afa158015610321573d6000803e3d6000fd5b505050506040513d601f19601f820116820180604052508101906103459190613988565b6103615760405162461bcd60e51b815260040161026690613bba565b6000610376836040015161ffff168b42610990565b9050600061038b8385848d8d8d8d8d8d610b00565b905060006103ae6103a96103a28660400151610b87565b8590610b95565b610bd4565b9050808460c00151106103cb5760c0840180518290039052610410565b60e0840151156103ed5760405162461bcd60e51b815260040161026690613b12565b6104066103ff8560c001518303610be7565b8390610bfd565b600060c086015291505b6040840151602085015161042391610c13565b602085015260006040850181905282131561044f576104428583610c29565b845161044f906000610cbc565b602084015115801561046357506080840151155b15156060850152610474848e610d1c565b50506001600a555050505050505050505050565b600080600061049684610ee4565b905060006104a48242610f08565b905060006104b68360000151836108c8565b90506104c3838284610f5a565b94509450505050915091565b6002546001600160a01b031681565b6000806104ea83610ee4565b90506104f68142610f08565b9150505b919050565b61050761359b565b61051183836108c8565b9392505050565b61052061359b565b600061052b83610ee4565b90506104f68361053b8342610f08565b6108c8565b60005464010000000090046001600160a01b031633146105725760405162461bcd60e51b815260040161026690613be1565b61057c8282610cbc565b7f7c51c6aa77346c54cb051d9e792f9b7bde5c28a9b57e6fb2d2dd727b38438ca982826040516105ad929190613a90565b60405180910390a15050565b60008060006105c785610ee4565b905060006105d98260000151866108c8565b90506105e6828287610f5a565b9350935050505b9250929050565b6001546001600160a01b031681565b60005464010000000090046001600160a01b031681565b60005464010000000090046001600160a01b0316331461064c5760405162461bcd60e51b815260040161026690613be1565b6106568282610ffd565b600060018061066860208501856139bc565b1661ffff161490507fbe3a36b9889e71d651c5e46a9d6a110c243e04a771bd479378feec68718985aa83826040516106a1929190613a90565b60405180910390a1505050565b6002600a5414156106d15760405162461bcd60e51b815260040161026690613c4d565b6002600a5560006106e133610899565b90506106ee81608061097b565b156106f9576001600a555b61070481600161097b565b6107205760405162461bcd60e51b815260040161026690613b3d565b600061072c33876108c8565b90506000610741836040015161ffff166110ea565b9050600061075861075188610be7565b83906110fd565b9050600061076985838b8a8a61112d565b905061078261077783610bd4565b60c08601519061135d565b60c085015260e08401516107969082611372565b60e08501526107a58433610d1c565b60a084015160208501516107bf9187918791906000611384565b50506001600a5550505050505050565b60005464010000000090046001600160a01b031633146108015760405162461bcd60e51b815260040161026690613be1565b61080b86866113c2565b600061081687610899565b90506108258186868686611417565b505050505050505050565b6108386135e2565b61084182610ee4565b92915050565b600080600061085533610899565b905061086281600161097b565b61087e5760405162461bcd60e51b815260040161026690613b3d565b61088b8188888888611417565b925092505094509492505050565b6108a16135e2565b6108aa826114dd565b90506108bd816040015161ffff1661160d565b610160820152919050565b6108d061359b565b60006108da611659565b6001600160a01b039490941660009081526020948552604080822085835286528082209484528454600160501b8082046001600160501b03908116600990810b86039488019490945280831690930b90930396850196909652600160f01b860460ff1615156060850152600190940154600160a01b80820463ffffffff166080860152909504841660c08401528404831660e083015250911660a082015290565b60209190910151811661ffff90811691161490565b610998613659565b6000806109a58686611666565b915091508160001415610ad55760006109bd876116af565b91945090925090506001600160a01b03811615610ad35760006109de611772565b90508560001080156109f05750858711155b8015610a01575064ffffffffff8611155b610a0a57600080fd5b836000128015610a2157506001600160801b038413155b610a2a57600080fd5b6000888152602082815260408083208a845290915290819020805464ffffffffff191664ffffffffff89161774ffffffffffffffffffffffffffffffff00000000001916650100000000006001600160801b038816021760ff60a81b1916600160a81b60ff871602178155905188908a907f0fdfa6885701e2f1f42e4187b9231cf81c1fe23671ef64fa46f34ddb56c1dc1890610ac8908990613d9f565b60405180910390a350505b505b6040805160608101825260008152602081019390935260ff909116600a0a9082015290509392505050565b6000806000610b138c8c8989898961177f565b9150915060005b88811015610b7757610b6d610b668e8e8e8e8e87818110610b3757fe5b9050602002016020810190610b4c91906137a8565b8d8d88818110610b5857fe5b90506020020135888a6117ef565b8590610bfd565b9350600101610b1a565b5050509998505050505050505050565b6000610841600019836118cb565b600080610bcc8460200151610bc68660400151610bc06402540be400886118cb90919063ffffffff16565b906118cb565b90611919565b949350505050565b600080821215610be357600080fd5b5090565b60006001600160ff1b03821115610be357600080fd5b8181018281121560008312151461084157600080fd5b8082038281131560008312151461084157600080fd5b604082015160008213610c3c5750610cb8565b6000610c4d60008361ffff1661194a565b5050509050808313610c6a57610c65828483036119f3565b610cb5565b610c758260006119f3565b83516040517f9982ba522274fa0cc3ee3b56025595a76649b07f4b8a39f0bd8e546ca0f9646f91610cac9185919085880390613db3565b60405180910390a15b50505b5050565b6000610cc6611a56565b6001600160a01b038416600090815260208290526040902080549192509061ffff168315610d0557815461ffff19166001821761ffff16178255610d15565b815461ffff191661fffe82161782555b5050505050565b6000610d26611659565b6001600160a01b03831660009081526020828152604080832087518452909152902060808501519192509063ffffffff1015610d6157600080fd5b836040015184602001511315610d895760405162461bcd60e51b815260040161026690613b9b565b610d9e610d998560400151610b87565b611a63565b81546001600160501b0391909116600160501b0269ffffffffffffffffffff60501b199091161781556020840151610dd990610d9990610b87565b815460608601511515600160f01b0260ff60f01b196001600160501b039390931669ffffffffffffffffffff199092169190911791909116178155608084015160018201805463ffffffff909216600160a01b0263ffffffff60a01b1990921691909117905560c0840151610e4d90611a85565b81546001600160501b0391909116600160a01b0269ffffffffffffffffffff60a01b1990911617815560e0840151610e8490611a85565b81600101600a6101000a8154816001600160501b0302191690836001600160501b03160217905550610eb98460a00151611a85565b600191909101805469ffffffffffffffffffff19166001600160501b03909216919091179055505050565b610eec6135e2565b610ef5826114dd565b90506108bd816040015161ffff16611a9a565b600080610f1483611ab0565b905060008460a001518281610f2557fe5b069050610f518560c00151610f4b8760a00151610f4b858761135d90919063ffffffff16565b90611372565b95945050505050565b6000806000610f71866040015161ffff1685611ace565b90506000610fa3610f9e610f888860c00151610be7565b6040890151610f98908690610b95565b90610bfd565b610b87565b90506000610fb8886040015161ffff166110ea565b90506000610fcd896040015161ffff16611b2b565b9050610fd98284611b3e565b9550610fef610fe88585611b76565b8290611b3e565b945050505050935093915050565b6000611007611a56565b905061101b61012083016101008401613a29565b60ff166064131561102b57600080fd5b606461103f61014084016101208501613a29565b60ff16131561104d57600080fd5b61105d60c0830160a084016139bc565b61ffff1661106a57600080fd5b61107a60e0830160c084016139bc565b61ffff1615806110bd575061109560e0830160c084016139bc565b61ffff166110a960c0840160a085016139bc565b61ffff16816110b457fe5b0661ffff166000145b6110c657600080fd5b6001600160a01b03831660009081526020829052604090208290610d158282613e51565b6110f2613683565b610841826000611ba1565b60006305f5e10083604001511415611116575080610841565b604083015161051190610bc6846305f5e1006118cb565b60008461113c57506000610f51565b600061114f876040015161ffff166110ea565b9050600061115d8288611b3e565b905060058260600151600581111561117157fe5b141561119e57600061118a896040015161ffff16611b2b565b905061119a816000015183611c4f565b9150505b60006111a982610bd4565b895184516040516370a0823160e01b815292935090916000906001600160a01b038316906370a08231906111e1908690600401613a7c565b60206040518083038186803b1580156111f957600080fd5b505afa15801561120d573d6000803e3d6000fd5b505050506040513d601f19601f8201168201806040525081019061123191906139a4565b905061123e828486611ce1565b6040516370a0823160e01b81526000906001600160a01b038416906370a082319061126d908790600401613a7c565b60206040518083038186803b15801561128557600080fd5b505afa158015611299573d6000803e3d6000fd5b505050506040513d601f19601f820116820180604052508101906112bd91906139a4565b90506001600160a01b03841663d302ee126112d8838561135d565b8d8d8d6040518563ffffffff1660e01b81526004016112fa9493929190613dd8565b602060405180830381600087803b15801561131457600080fd5b505af1158015611328573d6000803e3d6000fd5b505050506040513d601f19601f8201168201806040525081019061134c91906139a4565b9d9c50505050505050505050505050565b60008282111561136c57600080fd5b50900390565b60008282018381101561051157600080fd5b60006113938686868686611d5d565b90508086610100015113156113ba5760405162461bcd60e51b815260040161026690613c16565b505050505050565b60006113cc611a56565b6001600160a01b03909316600090815260209390935250604090912080546001600160501b03909216640100000000026dffffffffffffffffffff0000000019909216919091179055565b6000806002600a54141561143d5760405162461bcd60e51b815260040161026690613c4d565b6002600a5561144d87608061097b565b15611458576001600a555b60006114688860000151886108c8565b9050600061147989888a8989611de5565b90506000811361148857600080fd5b60c08201516114979082611372565b60c083015260e08201516114ab908861135d565b60e083015288516114bd908390610d1c565b6114c889838a610f5a565b6001600a55909a909950975050505050505050565b6114e56135e2565b60006114ef611a56565b6001600160a01b03841660008181526020838152604091829020928652825461ffff80821692880192909252620100008104909116918601919091526001600160501b036401000000008204166060860152919250906115659063ffffffff600160701b9091048116906305f5e100906118cb16565b6080840152805461158490600160a01b900461ffff1662015180611fbf565b60a084015280546115a390600160b01b900461ffff1662015180611fbf565b60c084015280546115c190600160c01b900460ff166207a120611fbf565b60e084015280546115e090600160901b900461ffff16620186a0611fbf565b6101008401525460ff600160c81b82048116610120850152600160d01b9091041661014083015250919050565b611615613659565b6000806000611623856116af565b604080516060810182526001600160a01b039093168352602083019390935260ff16600a0a918101919091529350505050919050565b6000806108416015611fe6565b6000806000611673611772565b6000958652602090815260408087209587529490525050509020546501000000000081046001600160801b031691600160a81b90910460ff1690565b60008060008060006116c086611fff565b909250905060006001600160a01b0383166116e55750600090506402540be400611767565b826001600160a01b0316631ee108336040518163ffffffff1660e01b8152600401602060405180830381600087803b15801561172057600080fd5b505af1158015611734573d6000803e3d6000fd5b505050506040513d601f19601f8201168201806040525081019061175891906139a4565b90506000811361176757600080fd5b969195509350915050565b6000806108416008611fe6565b6000806000805b868110156117bd576117b388888381811061179d57fe5b905060200201358361137290919063ffffffff16565b9150600101611786565b506117c88982612036565b8a519094506117e191506103a9908a9086908989611de5565b915050965096945050505050565b6000806117fc8689612088565b60408101518a51919250148015611817575061181781612142565b61182057600080fd5b600061182d8a8388612166565b905061185961184e611849866118438986611fbf565b906121c5565b610be7565b60a084015190610bfd565b60a0830152611869828b8a6121e4565b60008260a001511261188657611881828a6000612276565b6118b4565b6118938260a00151610b87565b600060a084015260808b0151909350156118b45760808a0180516000190190525b6118be828a6123af565b5050979650505050505050565b8181026000198314156118fb578115806118ed5750828282816118ea57fe5b05145b6118f657600080fd5b610841565b82158061191057508183828161190d57fe5b05145b61084157600080fd5b60008160001914801561192f5750600160ff1b83145b1561193957600080fd5b81838161194257fe5b059392505050565b600080600080600061195a612506565b6001600160a01b0388166000908152602082815260408083208a8452909152902080546001600160501b0381169650600160501b900463ffffffff16945090915083156119c35780546119bc90600160701b900466ffffffffffffff16612513565b92506119d8565b8054600160701b900466ffffffffffffff1692505b54600160a81b9004600a90810b900b97939650919450925050565b6000811215611a0157600080fd5b611a1660008361ffff16836000806000612521565b8161ffff167fd3625f7b5926828151efe19f7ae655488287357d99ebe67e5fb20522ca739c0b82604051611a4a9190613afb565b60405180910390a25050565b6000806108416014611fe6565b600081600013158015611a7c57506001600160501b0382125b610be357600080fd5b60006001600160501b038210610be357600080fd5b611aa2613659565b60008060006116238561266b565b600062015180821015611ac257600080fd5b50620151808106900390565b611ad6613659565b600080611ae38585611666565b915091508160001415611b0157611af98561266b565b919350909150505b6040805160608101825260008152602081019390935260ff909116600a0a90820152905092915050565b611b33613683565b610841826001611ba1565b60006305f5e10083604001511415611b57575080610841565b6105116305f5e100610bc68560400151856118cb90919063ffffffff16565b600080610bcc8460400151610bc66402540be400610bc68789602001516118cb90919063ffffffff16565b611ba9613683565b6000611bb36126ee565b6000858152602082815260408083208715158452825291829020825160a08101845281546001600160a01b038116825260ff600160a01b82048116151594830194909452600160b01b81048416600a0a9482019490945293945092916060830191600160a81b909104166005811115611c2857fe5b81529154600160b81b900468ffffffffffffffffff16602090920191909152949350505050565b600081611c5e57506000610841565b6000611c69846126fb565b90506000611c7684612786565b9050816b019d971e4fe8401e74000001600160ff1b0381611c9357fe5b05811315611ca057600080fd5b6b033b2e3c9fd0803ce80000006b019d971e4fe8401e74000000838302010560008513611cd557611cd081610b87565b611cd7565b805b9695505050505050565b826001600160a01b031663a9059cbb83836040518363ffffffff1660e01b815260040180836001600160a01b0316815260200182815260200192505050600060405180830381600087803b158015611d3857600080fd5b505af1158015611d4c573d6000803e3d6000fd5b50505050611d586127a7565b505050565b60008080611d6c878988612814565b915091506000611d9a610f9e611d90888c6101600151610b9590919063ffffffff16565b610f988886610bfd565b90506000611db282611dac8686610c13565b90610c13565b905060008213611dcb576001600160ff1b039450611dd8565b611dd58183612906565b94505b5050505095945050505050565b600084611df457506000610f51565b6000611e07876040015161ffff166110ea565b9050600081600001516001600160a01b03166370a08231306040518263ffffffff1660e01b8152600401611e3b9190613a7c565b60206040518083038186803b158015611e5357600080fd5b505afa158015611e67573d6000803e3d6000fd5b505050506040513d601f19601f82011682018060405250810190611e8b91906139a4565b885160405163902317c960e01b81529192506001600160a01b03169063902317c990611ec1908a908a908a908a90600401613dd8565b600060405180830381600087803b158015611edb57600080fd5b505af1158015611eef573d6000803e3d6000fd5b505083516040516370a0823160e01b8152600093506001600160a01b0390911691506370a0823190611f25903090600401613a7c565b60206040518083038186803b158015611f3d57600080fd5b505afa158015611f51573d6000803e3d6000fd5b505050506040513d601f19601f82011682018060405250810190611f7591906139a4565b90506000611f86611849838561135d565b9050600584606001516005811115611f9a57fe5b1415611fb557611fb28a6040015161ffff168261291f565b90505b611dd584826110fd565b600082611fce57506000610841565b82820282848281611fdb57fe5b041461051157600080fd5b6000620f4240826016811115611ff857fe5b0192915050565b600080600061200c6129a6565b600094855260205250506040909120546001600160a01b03811692600160a01b90910460ff169150565b60008061205e8460a001516120588660c00151866129b390919063ffffffff16565b90612a0c565b915061207f8460a001516120588660e00151866129b390919063ffffffff16565b90509250929050565b6120906136b2565b600061209a612a62565b6001600160a01b038581166000908152602083815260408083208851909416835292815291812080546001600160501b038082169093038752600160501b81049092169286019290925260a086015160c0870151939450919261210a92600160f01b90920461ffff169190612a6f565b6040840152546001600160501b03600160a01b909104166060830152506001600160a01b03909216608083015250600060a082015290565b60008082602001511380610841575081516000138015610841575050606001511590565b825160408301516000911461217a57600080fd5b60608301516121899083612aa4565b6060840152600061219a8584612afb565b925090506121b56121aa82610be7565b60a086015190610bfd565b60a0909401939093529392505050565b60008082116121d357600080fd5b8183816121dc57fe5b049392505050565b82516000906121f890610f9e908490610b95565b905061221981611dac86602001518760a00151610bfd90919063ffffffff16565b60a0850152600060208086019190915284519084015161223891610c13565b6020840152600080855260a0850151121561225c57606084015115610c6557600080fd5b608083015115610cb5575050608001805160001901905250565b6040820151600061228a61ffff83166110ea565b905060006122a561229e8760a00151610b87565b8390611b3e565b905060008112156123025783156122de576122d88361ffff1687608001516122cf6103a985610b87565b85929190612b52565b506122f6565b60808601516122f490839061ffff861684612be8565b505b600060a08701526113ba565b600084156123645760006123198561ffff16611b2b565b905061234161233a61232e8a60a00151610b87565b6101608a015190611b76565b8290612c90565b92506305f5e1008160400151121561235d576127109150612362565b606491505b505b61237d8788608001518661237786610bd4565b89612ccc565b8660a001516000131580156123965750808760a0015113155b61239f57600080fd5b50600060a0870152505050505050565b60006123b9612a62565b60808401516001600160a01b03908116600090815260208381526040808320875190941683529290522060a085015191925090156123f657600080fd5b835115806124125750835161240a90610b87565b836080015113155b61242e5760405162461bcd60e51b815260040161026690613c75565b61243e610d998560000151610b87565b815469ffffffffffffffffffff19166001600160501b0391909116178155602084015161246a90611a63565b81546001600160501b0391909116600160501b0269ffffffffffffffffffff60501b1990911617815560608401516124a190611a85565b81546001600160501b0391909116600160a01b0269ffffffffffffffffffff60a01b19909116178155604084015160a084015160c08501516124e4929190612da2565b815461ffff91909116600160f01b026001600160f01b03909116179055505050565b6000806108416006611fe6565b600881901c60ff9091161b90565b600061252b612506565b6001600160a01b0388166000908152602082815260408083208a845290915290209091506a7fffffffffffffffffffff19861280159061257657506a7fffffffffffffffffffff8613155b61257f57600080fd5b6000851215801561259757506001600160501b038513155b6125a057600080fd5b836125e05766ffffffffffffff8311156125b957600080fd5b805466ffffffffffffff60701b1916600160701b66ffffffffffffff8516021781556125fa565b8054600160501b900463ffffffff1684146125fa57600080fd5b8054600a9690960b6affffffffffffffffffffff16600160a81b026001600160a81b036001600160501b0390961669ffffffffffffffffffff1963ffffffff909616600160501b0263ffffffff60501b19909816979097179490941695909517939093169190911790925550505050565b600080600080600061267c86611fff565b909250905060006001600160a01b0383166126a15750600090506402540be400611767565b826001600160a01b031663b2fffb046040518163ffffffff1660e01b815260040160206040518083038186803b1580156126da57600080fd5b505afa158015611734573d6000803e3d6000fd5b6000806108416007611fe6565b6000610841612708612df8565b5460405163d15e005360e01b81526001600160a01b039091169063d15e005390612736908690600401613a7c565b60206040518083038186803b15801561274e57600080fd5b505afa158015612762573d6000803e3d6000fd5b505050506040513d601f19601f8201168201806040525081019061184991906139a4565b6000808212156127a05761279982610b87565b90506104fa565b50806104fa565b60006127b16136f1565b3d80156127c557602081146127ce57600080fd5b600192506127d9565b60206000833e815192505b5081610cb8576040805162461bcd60e51b8152602060048201526005602482015264045524332360dc1b604482015290519081900360640190fd5b60008082612827575060009050806128fe565b6000806128348786612036565b91509150600086600001516001600160a01b03166352cfbe19836040518263ffffffff1660e01b815260040161286a9190613afb565b60206040518083038186803b15801561288257600080fd5b505afa158015612896573d6000803e3d6000fd5b505050506040513d601f19601f820116820180604052508101906128ba91906139a4565b90506128c583610be7565b93506128f884610f986128ec8a610160015160400151610bc66305f5e100610bc088610be7565b6101608b015190610b95565b94505050505b935093915050565b600061051161291984633b9aca006118cb565b83611919565b60008161292e57506000610841565b6000821361293b57600080fd5b600061294684611b2b565b9050600061295782600001516126fb565b9050600281056b033b2e3c9fd0803ce80000006001600160ff1b038290030585131561298257600080fd5b81816b033b2e3c9fd0803ce80000008702018161299b57fe5b059695505050505050565b600080610841600f611fe6565b6000826129c257506000610841565b828202828482816129cf57fe5b04146105115760405162461bcd60e51b81526004018080602001828103825260218152602001806140986021913960400191505060405180910390fd5b60008082116121d3576040805162461bcd60e51b815260206004820152601a60248201527f536166654d6174683a206469766973696f6e206279207a65726f000000000000604482015290519081900360640190fd5b6000806108416016611fe6565b600083612a7e57506000610511565b6000612a8e6361cba50084612e05565b9050610f5181612a9e87876129b3565b90612e05565b60008282111561136c576040805162461bcd60e51b815260206004820152601e60248201527f536166654d6174683a207375627472616374696f6e206f766572666c6f770000604482015290519081900360640190fd5b600080612b088484612036565b60c08601519193509150612b1c9083612aa4565b60c085015260e0840151612b309082612aa4565b60e085015260a0840151612b449084612aa4565b60a090940193909352929050565b600080600286606001516005811115612b6757fe5b1415612b7f57612b78868585612e5f565b9050612bdc565b6000612b8a86611b2b565b9050600587606001516005811115612b9e57fe5b1415612bb657612baf818686612f26565b9150612bda565b600187606001516005811115612bc857fe5b14156100f557612baf87828787612fd7565b505b611cd7610f9e82610be7565b80600585606001516005811115612bfb57fe5b1415612c20576000612c0c84611b2b565b9050612c1c816000015184611c4f565b9250505b6000821315612c4c576000612c368686856130d5565b9050856020015115612c46578091505b50610bcc565b600385606001516005811115612c5e57fe5b1415612c7b57612c7684612c7184610b87565b6131be565b610bcc565b8451610bcc9085612c8b85610b87565b611ce1565b60006305f5e10083604001511215612cb857612cb16001610f988585611b3e565b9050610841565b61051183612cc7846001610bfd565b611b3e565b81612cd657610d15565b6000612ce183610be7565b90506000612cf28561ffff166110ea565b905060008315612d3f576000612d0b8761ffff16611b2b565b90506000612d1f828a61ffff8b1688612be8565b9050612d3688612d2e83610bd4565b8691906131f4565b92505050612d7b565b600582606001516005811115612d5157fe5b1415612d6857612d658661ffff168461291f565b92505b612d78828861ffff891686612be8565b90505b612d93612d8883836110fd565b60a08a015190610bfd565b60a08901525050505050505050565b600083612db157506000610511565b828481612dba57fe5b0615612dc557600080fd5b6000612dd56361cba50084612e05565b90506000612de7856120588885612aa4565b905061ffff811115610f5157600080fd5b6000806108416013611fe6565b600082820183811015610511576040805162461bcd60e51b815260206004820152601b60248201527f536166654d6174683a206164646974696f6e206f766572666c6f770000000000604482015290519081900360640190fd5b825160405163db006a7560e01b8152600091479183916001600160a01b03169063db006a7590612e93908790600401613afb565b602060405180830381600087803b158015612ead57600080fd5b505af1158015612ec1573d6000803e3d6000fd5b505050506040513d601f19601f82011682018060405250810190612ee591906139a4565b90508015612f055760405162461bcd60e51b815260040161026690613b7b565b47612f108184612aa4565b9350612f1c86856131be565b5050509392505050565b6000612f416103a98560000151612f3c85610be7565b611c4f565b9050612f4b612df8565b548451604051631a4ca37b60e21b81526001600160a01b03909216916369328dec91612f7d9185908890600401613aab565b602060405180830381600087803b158015612f9757600080fd5b505af1158015612fab573d6000803e3d6000fd5b505050506040513d601f19601f82011682018060405250810190612fcf91906139a4565b509392505050565b82516000908190612ff090306370a0823160e01b6132e5565b9050600086600001516001600160a01b031663db006a75856040518263ffffffff1660e01b81526004016130249190613afb565b602060405180830381600087803b15801561303e57600080fd5b505af1158015613052573d6000803e3d6000fd5b505050506040513d601f19601f8201168201806040525081019061307691906139a4565b905080156130965760405162461bcd60e51b815260040161026690613b7b565b85516000906130ad90306370a0823160e01b6132e5565b90506130b98184612aa4565b93506130ca87600001518786611ce1565b505050949350505050565b60008080806005876060015160058111156130ec57fe5b146130fe576370a0823160e01b613107565b630ed1279f60e11b5b90508660200151156131235786516131209030836132e5565b92505b86516131309087876133f7565b866020015180613144575060008760800151115b156131595786516131569030836132e5565b91505b6080870151156131945760006131778861317285610be7565b6110fd565b90506131868860800151610be7565b81131561319257600080fd5b505b8660200151156131b5576131ab6118498385612aa4565b9350505050610511565b6131ab85610be7565b6040516001600160a01b0383169082156108fc029083906000818181858888f19350505050158015611d58573d6000803e3d6000fd5b60008060058560600151600581111561320957fe5b1461321b576370a0823160e01b613224565b630ed1279f60e11b5b90506000613237866000015130846132e5565b905060058660600151600581111561324b57fe5b14156132725760006132608661ffff16611b2b565b905061326c818661344f565b506132ba565b60018660600151600581111561328457fe5b14156132995761329486856134ba565b6132ba565b6002866060015160058111156132ab57fe5b14156100f5576132948661355c565b60006132cb876000015130856132e5565b90506132da6118498284612aa4565b979650505050505050565b604080516001600160a01b0384811660248084019190915283518084039091018152604490920183526020820180516001600160e01b03166001600160e01b0319861617815292518251600094859485948a16939092909182918083835b602083106133625780518252601f199092019160209182019101613343565b6001836020036101000a038019825116818451168082178552505050505050905001915050600060405180830381855afa9150503d80600081146133c2576040519150601f19603f3d011682016040523d82523d6000602084013e6133c7565b606091505b5091509150816133d657600080fd5b8080602001905160208110156133eb57600080fd5b50519695505050505050565b604080516323b872dd60e01b81526001600160a01b038481166004830152306024830152604482018490529151918516916323b872dd9160648082019260009290919082900301818387803b158015611d3857600080fd5b613457612df8565b54825160405163e8eda9df60e01b81526001600160a01b039092169163e8eda9df9161348c9185903090600090600401613ace565b600060405180830381600087803b1580156134a657600080fd5b505af11580156113ba573d6000803e3d6000fd5b815160405163140e25ad60e31b81526000916001600160a01b03169063a0712d68906134ea908590600401613afb565b602060405180830381600087803b15801561350457600080fd5b505af1158015613518573d6000803e3d6000fd5b505050506040513d601f19601f8201168201806040525081019061353c91906139a4565b90508015611d585760405162461bcd60e51b815260040161026690613b5d565b80600001516001600160a01b0316631249c58b346040518263ffffffff1660e01b81526004016000604051808303818588803b1580156134a657600080fd5b604051806101000160405280600081526020016000815260200160008152602001600015158152602001600081526020016000815260200160008152602001600081525090565b60405180610180016040528060006001600160a01b03168152602001600061ffff168152602001600061ffff1681526020016000815260200160008152602001600081526020016000815260200160008152602001600081526020016000815260200160008152602001613654613659565b905290565b604051806060016040528060006001600160a01b0316815260200160008152602001600081525090565b6040805160a0810182526000808252602082018190529181018290529060608201908152602001600081525090565b6040518060c001604052806000815260200160008152602001600081526020016000815260200160006001600160a01b03168152602001600081525090565b60405180602001604052806001906020820280368337509192915050565b80356001600160a01b03811681146104fa57600080fd5b60008083601f840112613737578182fd5b50813567ffffffffffffffff81111561374e578182fd5b60208301915083602080830285010111156105ed57600080fd5b60008083601f840112613779578182fd5b50813567ffffffffffffffff811115613790578182fd5b6020830191508360208285010111156105ed57600080fd5b6000602082840312156137b9578081fd5b6105118261370f565b600080604083850312156137d4578081fd5b6137dd8361370f565b915060208301356137ed81614052565b809150509250929050565b60008082840361016081121561380c578283fd5b6138158461370f565b9250610140601f1982011215613829578182fd5b506020830190509250929050565b60008060408385031215613849578182fd5b6138528361370f565b946020939093013593505050565b60008060008060008060008060a0898b03121561387b578384fd5b6138848961370f565b975060208901359650604089013567ffffffffffffffff808211156138a7578586fd5b6138b38c838d01613726565b909850965060608b01359150808211156138cb578586fd5b6138d78c838d01613726565b909650945060808b01359150808211156138ef578384fd5b506138fc8b828c01613768565b999c989b5096995094979396929594505050565b60008060008060008060a08789031215613928578182fd5b6139318761370f565b9550602087013561394181614082565b94506040870135935060608701359250608087013567ffffffffffffffff81111561396a578283fd5b61397689828a01613768565b979a9699509497509295939492505050565b600060208284031215613999578081fd5b815161051181614052565b6000602082840312156139b5578081fd5b5051919050565b6000602082840312156139cd578081fd5b813561051181614063565b600080600080606085870312156139ed578384fd5b8435935060208501359250604085013567ffffffffffffffff811115613a11578283fd5b613a1d87828801613768565b95989497509550505050565b600060208284031215613a3a578081fd5b813561051181614073565b6001600160a01b03169052565b80516001600160a01b0316825260208082015190830152604090810151910152565b61ffff169052565b6001600160a01b0391909116815260200190565b6001600160a01b039290921682521515602082015260400190565b6001600160a01b0393841681526020810192909252909116604082015260600190565b6001600160a01b03948516815260208101939093529216604082015261ffff909116606082015260800190565b90815260200190565b918252602082015260400190565b60208082526011908201527052656465656d20616c6c20746f6b656e7360781b604082015260600190565b60208082526006908201526514185d5cd95960d21b604082015260600190565b602080825260049082015263135a5b9d60e21b604082015260600190565b60208082526006908201526552656465656d60d01b604082015260600190565b6020808252600590820152640cc86c2e6d60db1b604082015260600190565b6020808252600d908201526c43616e6e6f7420536574746c6560981b604082015260600190565b6020808252818101527f4f776e61626c653a2063616c6c6572206973206e6f7420746865206f776e6572604082015260600190565b60208082526017908201527f496e73756666696369656e7420436f6c6c61746572616c000000000000000000604082015260600190565b6020808252600e908201526d1499595b9d1c985b9d0818d85b1b60921b604082015260600190565b6020808252600a90820152694d696e20426f72726f7760b01b604082015260600190565b60006101c082019050613cad828451613a45565b6020830151613cbf6020840182613a74565b506040830151613cd26040840182613a74565b50606083015160608301526080830151608083015260a083015160a083015260c083015160c083015260e083015160e083015261010080840151818401525061012080840151818401525061014080840151818401525061016080840151613d3c82850182613a52565b505092915050565b6000610100820190508251825260208301516020830152604083015160408301526060830151151560608301526080830151608083015260a083015160a083015260c083015160c083015260e083015160e083015292915050565b6001600160801b0391909116815260200190565b61ffff9390931683526001600160a01b03919091166020830152604082015260600190565b60008582528460208301526060604083015282606083015282846080840137818301608090810191909152601f909201601f191601019392505050565b6000813561084181614063565b6000813563ffffffff81168114610841578182fd5b6000813561084181614073565b6000813561084181614082565b8135613e5c81614063565b61ffff811661ffff19835416178255506020820135613e7a81614063565b613e848183614006565b50613e9a613e9460408401613e44565b82614022565b613eaf613ea960608401613e22565b82613f2f565b613ec4613ebe60808401613e15565b82613f52565b613ed9613ed360a08401613e15565b82613f71565b613eee613ee860c08401613e15565b82613f90565b613f03613efd60e08401613e37565b82613faf565b613f19613f136101008401613e37565b82613fcc565b610cb8613f296101208401613e37565b82613fe9565b805463ffffffff60701b191660709290921b63ffffffff60701b16919091179055565b805461ffff60901b191660909290921b61ffff60901b16919091179055565b805461ffff60a01b191660a09290921b61ffff60a01b16919091179055565b805461ffff60b01b191660b09290921b61ffff60b01b16919091179055565b805460ff60c01b191660c09290921b60ff60c01b16919091179055565b805460ff60c81b191660c89290921b60ff60c81b16919091179055565b805460ff60d01b191660d09290921b60ff60d01b16919091179055565b805463ffff00008360101b1663ffff0000198216178255505050565b80546dffffffffffffffffffff000000008360201b166dffffffffffffffffffff00000000198216178255505050565b801515811461406057600080fd5b50565b61ffff8116811461406057600080fd5b60ff8116811461406057600080fd5b6001600160501b038116811461406057600080fdfe536166654d6174683a206d756c7469706c69636174696f6e206f766572666c6f77a2646970667358221220104e8df6021a9771aa602b4db67f4cc2ad76d3a16cc671ac51b6ad92bb74ebf764736f6c63430007060033","bytecodeSha1":"d6d8ec95865898c8ae361a76a8b8e663b765d3ca","compiler":{"evm_version":"istanbul","optimizer":{"enabled":true,"runs":200},"version":"0.7.6+commit.7338295f"},"contractName":"VaultAction","language":"Solidity","natspec":{"kind":"dev","methods":{"depositVaultCashToStrategyTokens(uint256,uint256,bytes)":{"notice":"Strategy vaults can call this method to deposit asset cash into strategy tokens.","params":{"assetCashToDepositExternal":"the number of asset cash tokens to deposit (external)","maturity":"the maturity of the vault where the redemption will take place","vaultData":"arbitrary data to pass back to the vault for deposit"}},"getVaultConfig(address)":{"notice":"View Methods *"},"redeemStrategyTokensToCash(uint256,uint256,bytes)":{"notice":"Strategy vaults can call this method to redeem strategy tokens to cash and hold them as asset cash within the pool. This should typically be used during settlement but can also be used for vault-wide deleveraging.","params":{"maturity":"the maturity of the vault where the redemption will take place","strategyTokensToRedeem":"the number of strategy tokens redeemed","vaultData":"arbitrary data to pass back to the vault"},"returns":{"assetCashRequiredToSettle":"amount of asset cash still remaining to settle the debt","underlyingCashRequiredToSettle":"amount of underlying cash still remaining to settle the debt"}},"reduceMaxBorrowCapacity(address,uint80,uint256,uint256,bytes)":{"notice":"Allows the owner to reduce the max borrow capacity on the vault and force the redemption of strategy tokens to cash to reduce the overall risk of the vault. This method is intended to be used in emergencies to mitigate insolvency risk.","params":{"maturity":"the maturity to redeem tokens in, will generally be either the current maturity or the next maturity.","maxVaultBorrowCapacity":"the new max vault borrow capacity","strategyTokensToRedeem":"how many tokens we would want to redeem in the maturity","vaultAddress":"address of the vault","vaultData":"vault data to pass to the vault"}},"setVaultPauseStatus(address,bool)":{"notice":"Enables or disables a vault. If a vault is disabled, no one can enter the vault anymore.","params":{"enable":"bool if the vault should be enabled immediately","vaultAddress":"address of deployed vault"}},"settleVault(address,uint256,address[],uint256[],bytes)":{"notice":"Settles an entire vault, can only be called during an emergency stop out or during the vault's defined settlement period. May be called multiple times during a vault term if the vault has been stopped out early.","params":{"maturity":"the maturity of the vault","redeemCallData":"call data passed to redeem for all accounts being settled","settleAccounts":"a list of accounts to manually settle (if any)","vault":"the vault to settle","vaultSharesToRedeem":"the amount of vault shares to settle on each account"}},"updateVault(address,(uint16,uint16,uint80,uint32,uint16,uint16,uint16,uint8,uint8,uint8))":{"notice":"Updates or lists a deployed vault along with its configuration.","params":{"vaultAddress":"address of deployed vault","vaultConfig":"struct of vault configuration"}}},"version":1},"opcodes":"PUSH1 0x80 PUSH1 0x40 MSTORE CALLVALUE DUP1 ISZERO PUSH2 0x10 JUMPI PUSH1 0x0 DUP1 REVERT JUMPDEST POP PUSH1 0x4 CALLDATASIZE LT PUSH2 0xF5 JUMPI PUSH1 0x0 CALLDATALOAD PUSH1 0xE0 SHR DUP1 PUSH4 0x6C346C09 GT PUSH2 0x97 JUMPI DUP1 PUSH4 0xD04C16AC GT PUSH2 0x66 JUMPI DUP1 PUSH4 0xD04C16AC EQ PUSH2 0x1EA JUMPI DUP1 PUSH4 0xD6DDEB9A EQ PUSH2 0x1FD JUMPI DUP1 PUSH4 0xDE1EB9A3 EQ PUSH2 0x210 JUMPI DUP1 PUSH4 0xEE01436B EQ PUSH2 0x230 JUMPI PUSH2 0xF5 JUMP JUMPDEST DUP1 PUSH4 0x6C346C09 EQ PUSH2 0x1B4 JUMPI DUP1 PUSH4 0x82463367 EQ PUSH2 0x1C7 JUMPI DUP1 PUSH4 0x8DA5CB5B EQ PUSH2 0x1CF JUMPI DUP1 PUSH4 0xAA0BE025 EQ PUSH2 0x1D7 JUMPI PUSH2 0xF5 JUMP JUMPDEST DUP1 PUSH4 0x27ABB234 GT PUSH2 0xD3 JUMPI DUP1 PUSH4 0x27ABB234 EQ PUSH2 0x14E JUMPI DUP1 PUSH4 0x31572281 EQ PUSH2 0x16E JUMPI DUP1 PUSH4 0x3A1141EB EQ PUSH2 0x18E JUMPI DUP1 PUSH4 0x56F428C4 EQ PUSH2 0x1A1 JUMPI PUSH2 0xF5 JUMP JUMPDEST DUP1 PUSH4 0x10CAD956 EQ PUSH2 0xFA JUMPI DUP1 PUSH4 0x1CAF5EE0 EQ PUSH2 0x10F JUMPI DUP1 PUSH4 0x24A3D622 EQ PUSH2 0x139 JUMPI JUMPDEST PUSH1 0x0 DUP1 REVERT JUMPDEST PUSH2 0x10D PUSH2 0x108 CALLDATASIZE PUSH1 0x4 PUSH2 0x3860 JUMP JUMPDEST PUSH2 0x243 JUMP JUMPDEST STOP JUMPDEST PUSH2 0x122 PUSH2 0x11D CALLDATASIZE PUSH1 0x4 PUSH2 0x37A8 JUMP JUMPDEST PUSH2 0x488 JUMP JUMPDEST PUSH1 0x40 MLOAD PUSH2 0x130 SWAP3 SWAP2 SWAP1 PUSH2 0x3B04 JUMP JUMPDEST PUSH1 0x40 MLOAD DUP1 SWAP2 SUB SWAP1 RETURN JUMPDEST PUSH2 0x141 PUSH2 0x4CF JUMP JUMPDEST PUSH1 0x40 MLOAD PUSH2 0x130 SWAP2 SWAP1 PUSH2 0x3A7C JUMP JUMPDEST PUSH2 0x161 PUSH2 0x15C CALLDATASIZE PUSH1 0x4 PUSH2 0x37A8 JUMP JUMPDEST PUSH2 0x4DE JUMP JUMPDEST PUSH1 0x40 MLOAD PUSH2 0x130 SWAP2 SWAP1 PUSH2 0x3AFB JUMP JUMPDEST PUSH2 0x181 PUSH2 0x17C CALLDATASIZE PUSH1 0x4 PUSH2 0x3837 JUMP JUMPDEST PUSH2 0x4FF JUMP JUMPDEST PUSH1 0x40 MLOAD PUSH2 0x130 SWAP2 SWAP1 PUSH2 0x3D44 JUMP JUMPDEST PUSH2 0x181 PUSH2 0x19C CALLDATASIZE PUSH1 0x4 PUSH2 0x37A8 JUMP JUMPDEST PUSH2 0x518 JUMP JUMPDEST PUSH2 0x10D PUSH2 0x1AF CALLDATASIZE PUSH1 0x4 PUSH2 0x37C2 JUMP JUMPDEST PUSH2 0x540 JUMP JUMPDEST PUSH2 0x122 PUSH2 0x1C2 CALLDATASIZE PUSH1 0x4 PUSH2 0x3837 JUMP JUMPDEST PUSH2 0x5B9 JUMP JUMPDEST PUSH2 0x141 PUSH2 0x5F4 JUMP JUMPDEST PUSH2 0x141 PUSH2 0x603 JUMP JUMPDEST PUSH2 0x10D PUSH2 0x1E5 CALLDATASIZE PUSH1 0x4 PUSH2 0x37F8 JUMP JUMPDEST PUSH2 0x61A JUMP JUMPDEST PUSH2 0x10D PUSH2 0x1F8 CALLDATASIZE PUSH1 0x4 PUSH2 0x39D8 JUMP JUMPDEST PUSH2 0x6AE JUMP JUMPDEST PUSH2 0x10D PUSH2 0x20B CALLDATASIZE PUSH1 0x4 PUSH2 0x3910 JUMP JUMPDEST PUSH2 0x7CF JUMP JUMPDEST PUSH2 0x223 PUSH2 0x21E CALLDATASIZE PUSH1 0x4 PUSH2 0x37A8 JUMP JUMPDEST PUSH2 0x830 JUMP JUMPDEST PUSH1 0x40 MLOAD PUSH2 0x130 SWAP2 SWAP1 PUSH2 0x3C99 JUMP JUMPDEST PUSH2 0x122 PUSH2 0x23E CALLDATASIZE PUSH1 0x4 PUSH2 0x39D8 JUMP JUMPDEST PUSH2 0x847 JUMP JUMPDEST PUSH1 0x2 PUSH1 0xA SLOAD EQ ISZERO PUSH2 0x26F JUMPI PUSH1 0x40 MLOAD PUSH3 0x461BCD PUSH1 0xE5 SHL DUP2 MSTORE PUSH1 0x4 ADD PUSH2 0x266 SWAP1 PUSH2 0x3C4D JUMP JUMPDEST PUSH1 0x40 MLOAD DUP1 SWAP2 SUB SWAP1 REVERT JUMPDEST PUSH1 0x2 PUSH1 0xA SSTORE PUSH1 0x0 PUSH2 0x27F DUP10 PUSH2 0x899 JUMP JUMPDEST SWAP1 POP PUSH1 0x0 PUSH2 0x28D DUP11 DUP11 PUSH2 0x8C8 JUMP JUMPDEST SWAP1 POP PUSH2 0x29A DUP3 PUSH1 0x80 PUSH2 0x97B JUMP JUMPDEST ISZERO PUSH2 0x2A5 JUMPI PUSH1 0x1 PUSH1 0xA SSTORE JUMPDEST TIMESTAMP DUP10 GT ISZERO DUP1 ISZERO PUSH2 0x2B4 JUMPI POP DUP7 DUP6 EQ JUMPDEST DUP1 ISZERO PUSH2 0x2C2 JUMPI POP PUSH1 0x60 DUP2 ADD MLOAD ISZERO JUMPDEST DUP1 ISZERO PUSH2 0x345 JUMPI POP PUSH1 0x40 MLOAD PUSH4 0x644A478F PUSH1 0xE0 SHL DUP2 MSTORE PUSH1 0x1 PUSH1 0x1 PUSH1 0xA0 SHL SUB DUP12 AND SWAP1 PUSH4 0x644A478F SWAP1 PUSH2 0x2F5 SWAP1 DUP13 SWAP1 PUSH1 0x4 ADD PUSH2 0x3AFB JUMP JUMPDEST PUSH1 0x20 PUSH1 0x40 MLOAD DUP1 DUP4 SUB DUP2 DUP7 DUP1 EXTCODESIZE ISZERO DUP1 ISZERO PUSH2 0x30D JUMPI PUSH1 0x0 DUP1 REVERT JUMPDEST POP GAS STATICCALL ISZERO DUP1 ISZERO PUSH2 0x321 JUMPI RETURNDATASIZE PUSH1 0x0 DUP1 RETURNDATACOPY RETURNDATASIZE PUSH1 0x0 REVERT JUMPDEST POP POP POP POP PUSH1 0x40 MLOAD RETURNDATASIZE PUSH1 0x1F NOT PUSH1 0x1F DUP3 ADD AND DUP3 ADD DUP1 PUSH1 0x40 MSTORE POP DUP2 ADD SWAP1 PUSH2 0x345 SWAP2 SWAP1 PUSH2 0x3988 JUMP JUMPDEST PUSH2 0x361 JUMPI PUSH1 0x40 MLOAD PUSH3 0x461BCD PUSH1 0xE5 SHL DUP2 MSTORE PUSH1 0x4 ADD PUSH2 0x266 SWAP1 PUSH2 0x3BBA JUMP JUMPDEST PUSH1 0x0 PUSH2 0x376 DUP4 PUSH1 0x40 ADD MLOAD PUSH2 0xFFFF AND DUP12 TIMESTAMP PUSH2 0x990 JUMP JUMPDEST SWAP1 POP PUSH1 0x0 PUSH2 0x38B DUP4 DUP6 DUP5 DUP14 DUP14 DUP14 DUP14 DUP14 DUP14 PUSH2 0xB00 JUMP JUMPDEST SWAP1 POP PUSH1 0x0 PUSH2 0x3AE PUSH2 0x3A9 PUSH2 0x3A2 DUP7 PUSH1 0x40 ADD MLOAD PUSH2 0xB87 JUMP JUMPDEST DUP6 SWAP1 PUSH2 0xB95 JUMP JUMPDEST PUSH2 0xBD4 JUMP JUMPDEST SWAP1 POP DUP1 DUP5 PUSH1 0xC0 ADD MLOAD LT PUSH2 0x3CB JUMPI PUSH1 0xC0 DUP5 ADD DUP1 MLOAD DUP3 SWAP1 SUB SWAP1 MSTORE PUSH2 0x410 JUMP JUMPDEST PUSH1 0xE0 DUP5 ADD MLOAD ISZERO PUSH2 0x3ED JUMPI PUSH1 0x40 MLOAD PUSH3 0x461BCD PUSH1 0xE5 SHL DUP2 MSTORE PUSH1 0x4 ADD PUSH2 0x266 SWAP1 PUSH2 0x3B12 JUMP JUMPDEST PUSH2 0x406 PUSH2 0x3FF DUP6 PUSH1 0xC0 ADD MLOAD DUP4 SUB PUSH2 0xBE7 JUMP JUMPDEST DUP4 SWAP1 PUSH2 0xBFD JUMP JUMPDEST PUSH1 0x0 PUSH1 0xC0 DUP7 ADD MSTORE SWAP2 POP JUMPDEST PUSH1 0x40 DUP5 ADD MLOAD PUSH1 0x20 DUP6 ADD MLOAD PUSH2 0x423 SWAP2 PUSH2 0xC13 JUMP JUMPDEST PUSH1 0x20 DUP6 ADD MSTORE PUSH1 0x0 PUSH1 0x40 DUP6 ADD DUP2 SWAP1 MSTORE DUP3 SGT ISZERO PUSH2 0x44F JUMPI PUSH2 0x442 DUP6 DUP4 PUSH2 0xC29 JUMP JUMPDEST DUP5 MLOAD PUSH2 0x44F SWAP1 PUSH1 0x0 PUSH2 0xCBC JUMP JUMPDEST PUSH1 0x20 DUP5 ADD MLOAD ISZERO DUP1 ISZERO PUSH2 0x463 JUMPI POP PUSH1 0x80 DUP5 ADD MLOAD ISZERO JUMPDEST ISZERO ISZERO PUSH1 0x60 DUP6 ADD MSTORE PUSH2 0x474 DUP5 DUP15 PUSH2 0xD1C JUMP JUMPDEST POP POP PUSH1 0x1 PUSH1 0xA SSTORE POP POP POP POP POP POP POP POP POP POP POP JUMP JUMPDEST PUSH1 0x0 DUP1 PUSH1 0x0 PUSH2 0x496 DUP5 PUSH2 0xEE4 JUMP JUMPDEST SWAP1 POP PUSH1 0x0 PUSH2 0x4A4 DUP3 TIMESTAMP PUSH2 0xF08 JUMP JUMPDEST SWAP1 POP PUSH1 0x0 PUSH2 0x4B6 DUP4 PUSH1 0x0 ADD MLOAD DUP4 PUSH2 0x8C8 JUMP JUMPDEST SWAP1 POP PUSH2 0x4C3 DUP4 DUP3 DUP5 PUSH2 0xF5A JUMP JUMPDEST SWAP5 POP SWAP5 POP POP POP POP SWAP2 POP SWAP2 JUMP JUMPDEST PUSH1 0x2 SLOAD PUSH1 0x1 PUSH1 0x1 PUSH1 0xA0 SHL SUB AND DUP2 JUMP JUMPDEST PUSH1 0x0 DUP1 PUSH2 0x4EA DUP4 PUSH2 0xEE4 JUMP JUMPDEST SWAP1 POP PUSH2 0x4F6 DUP2 TIMESTAMP PUSH2 0xF08 JUMP JUMPDEST SWAP2 POP POP JUMPDEST SWAP2 SWAP1 POP JUMP JUMPDEST PUSH2 0x507 PUSH2 0x359B JUMP JUMPDEST PUSH2 0x511 DUP4 DUP4 PUSH2 0x8C8 JUMP JUMPDEST SWAP4 SWAP3 POP POP POP JUMP JUMPDEST PUSH2 0x520 PUSH2 0x359B JUMP JUMPDEST PUSH1 0x0 PUSH2 0x52B DUP4 PUSH2 0xEE4 JUMP JUMPDEST SWAP1 POP PUSH2 0x4F6 DUP4 PUSH2 0x53B DUP4 TIMESTAMP PUSH2 0xF08 JUMP JUMPDEST PUSH2 0x8C8 JUMP JUMPDEST PUSH1 0x0 SLOAD PUSH5 0x100000000 SWAP1 DIV PUSH1 0x1 PUSH1 0x1 PUSH1 0xA0 SHL SUB AND CALLER EQ PUSH2 0x572 JUMPI PUSH1 0x40 MLOAD PUSH3 0x461BCD PUSH1 0xE5 SHL DUP2 MSTORE PUSH1 0x4 ADD PUSH2 0x266 SWAP1 PUSH2 0x3BE1 JUMP JUMPDEST PUSH2 0x57C DUP3 DUP3 PUSH2 0xCBC JUMP JUMPDEST PUSH32 0x7C51C6AA77346C54CB051D9E792F9B7BDE5C28A9B57E6FB2D2DD727B38438CA9 DUP3 DUP3 PUSH1 0x40 MLOAD PUSH2 0x5AD SWAP3 SWAP2 SWAP1 PUSH2 0x3A90 JUMP JUMPDEST PUSH1 0x40 MLOAD DUP1 SWAP2 SUB SWAP1 LOG1 POP POP JUMP JUMPDEST PUSH1 0x0 DUP1 PUSH1 0x0 PUSH2 0x5C7 DUP6 PUSH2 0xEE4 JUMP JUMPDEST SWAP1 POP PUSH1 0x0 PUSH2 0x5D9 DUP3 PUSH1 0x0 ADD MLOAD DUP7 PUSH2 0x8C8 JUMP JUMPDEST SWAP1 POP PUSH2 0x5E6 DUP3 DUP3 DUP8 PUSH2 0xF5A JUMP JUMPDEST SWAP4 POP SWAP4 POP POP POP JUMPDEST SWAP3 POP SWAP3 SWAP1 POP JUMP JUMPDEST PUSH1 0x1 SLOAD PUSH1 0x1 PUSH1 0x1 PUSH1 0xA0 SHL SUB AND DUP2 JUMP JUMPDEST PUSH1 0x0 SLOAD PUSH5 0x100000000 SWAP1 DIV PUSH1 0x1 PUSH1 0x1 PUSH1 0xA0 SHL SUB AND DUP2 JUMP JUMPDEST PUSH1 0x0 SLOAD PUSH5 0x100000000 SWAP1 DIV PUSH1 0x1 PUSH1 0x1 PUSH1 0xA0 SHL SUB AND CALLER EQ PUSH2 0x64C JUMPI PUSH1 0x40 MLOAD PUSH3 0x461BCD PUSH1 0xE5 SHL DUP2 MSTORE PUSH1 0x4 ADD PUSH2 0x266 SWAP1 PUSH2 0x3BE1 JUMP JUMPDEST PUSH2 0x656 DUP3 DUP3 PUSH2 0xFFD JUMP JUMPDEST PUSH1 0x0 PUSH1 0x1 DUP1 PUSH2 0x668 PUSH1 0x20 DUP6 ADD DUP6 PUSH2 0x39BC JUMP JUMPDEST AND PUSH2 0xFFFF AND EQ SWAP1 POP PUSH32 0xBE3A36B9889E71D651C5E46A9D6A110C243E04A771BD479378FEEC68718985AA DUP4 DUP3 PUSH1 0x40 MLOAD PUSH2 0x6A1 SWAP3 SWAP2 SWAP1 PUSH2 0x3A90 JUMP JUMPDEST PUSH1 0x40 MLOAD DUP1 SWAP2 SUB SWAP1 LOG1 POP POP POP JUMP JUMPDEST PUSH1 0x2 PUSH1 0xA SLOAD EQ ISZERO PUSH2 0x6D1 JUMPI PUSH1 0x40 MLOAD PUSH3 0x461BCD PUSH1 0xE5 SHL DUP2 MSTORE PUSH1 0x4 ADD PUSH2 0x266 SWAP1 PUSH2 0x3C4D JUMP JUMPDEST PUSH1 0x2 PUSH1 0xA SSTORE PUSH1 0x0 PUSH2 0x6E1 CALLER PUSH2 0x899 JUMP JUMPDEST SWAP1 POP PUSH2 0x6EE DUP2 PUSH1 0x80 PUSH2 0x97B JUMP JUMPDEST ISZERO PUSH2 0x6F9 JUMPI PUSH1 0x1 PUSH1 0xA SSTORE JUMPDEST PUSH2 0x704 DUP2 PUSH1 0x1 PUSH2 0x97B JUMP JUMPDEST PUSH2 0x720 JUMPI PUSH1 0x40 MLOAD PUSH3 0x461BCD PUSH1 0xE5 SHL DUP2 MSTORE PUSH1 0x4 ADD PUSH2 0x266 SWAP1 PUSH2 0x3B3D JUMP JUMPDEST PUSH1 0x0 PUSH2 0x72C CALLER DUP8 PUSH2 0x8C8 JUMP JUMPDEST SWAP1 POP PUSH1 0x0 PUSH2 0x741 DUP4 PUSH1 0x40 ADD MLOAD PUSH2 0xFFFF AND PUSH2 0x10EA JUMP JUMPDEST SWAP1 POP PUSH1 0x0 PUSH2 0x758 PUSH2 0x751 DUP9 PUSH2 0xBE7 JUMP JUMPDEST DUP4 SWAP1 PUSH2 0x10FD JUMP JUMPDEST SWAP1 POP PUSH1 0x0 PUSH2 0x769 DUP6 DUP4 DUP12 DUP11 DUP11 PUSH2 0x112D JUMP JUMPDEST SWAP1 POP PUSH2 0x782 PUSH2 0x777 DUP4 PUSH2 0xBD4 JUMP JUMPDEST PUSH1 0xC0 DUP7 ADD MLOAD SWAP1 PUSH2 0x135D JUMP JUMPDEST PUSH1 0xC0 DUP6 ADD MSTORE PUSH1 0xE0 DUP5 ADD MLOAD PUSH2 0x796 SWAP1 DUP3 PUSH2 0x1372 JUMP JUMPDEST PUSH1 0xE0 DUP6 ADD MSTORE PUSH2 0x7A5 DUP5 CALLER PUSH2 0xD1C JUMP JUMPDEST PUSH1 0xA0 DUP5 ADD MLOAD PUSH1 0x20 DUP6 ADD MLOAD PUSH2 0x7BF SWAP2 DUP8 SWAP2 DUP8 SWAP2 SWAP1 PUSH1 0x0 PUSH2 0x1384 JUMP JUMPDEST POP POP PUSH1 0x1 PUSH1 0xA SSTORE POP POP POP POP POP POP POP JUMP JUMPDEST PUSH1 0x0 SLOAD PUSH5 0x100000000 SWAP1 DIV PUSH1 0x1 PUSH1 0x1 PUSH1 0xA0 SHL SUB AND CALLER EQ PUSH2 0x801 JUMPI PUSH1 0x40 MLOAD PUSH3 0x461BCD PUSH1 0xE5 SHL DUP2 MSTORE PUSH1 0x4 ADD PUSH2 0x266 SWAP1 PUSH2 0x3BE1 JUMP JUMPDEST PUSH2 0x80B DUP7 DUP7 PUSH2 0x13C2 JUMP JUMPDEST PUSH1 0x0 PUSH2 0x816 DUP8 PUSH2 0x899 JUMP JUMPDEST SWAP1 POP PUSH2 0x825 DUP2 DUP7 DUP7 DUP7 DUP7 PUSH2 0x1417 JUMP JUMPDEST POP POP POP POP POP POP POP POP POP JUMP JUMPDEST PUSH2 0x838 PUSH2 0x35E2 JUMP JUMPDEST PUSH2 0x841 DUP3 PUSH2 0xEE4 JUMP JUMPDEST SWAP3 SWAP2 POP POP JUMP JUMPDEST PUSH1 0x0 DUP1 PUSH1 0x0 PUSH2 0x855 CALLER PUSH2 0x899 JUMP JUMPDEST SWAP1 POP PUSH2 0x862 DUP2 PUSH1 0x1 PUSH2 0x97B JUMP JUMPDEST PUSH2 0x87E JUMPI PUSH1 0x40 MLOAD PUSH3 0x461BCD PUSH1 0xE5 SHL DUP2 MSTORE PUSH1 0x4 ADD PUSH2 0x266 SWAP1 PUSH2 0x3B3D JUMP JUMPDEST PUSH2 0x88B DUP2 DUP9 DUP9 DUP9 DUP9 PUSH2 0x1417 JUMP JUMPDEST SWAP3 POP SWAP3 POP POP SWAP5 POP SWAP5 SWAP3 POP POP POP JUMP JUMPDEST PUSH2 0x8A1 PUSH2 0x35E2 JUMP JUMPDEST PUSH2 0x8AA DUP3 PUSH2 0x14DD JUMP JUMPDEST SWAP1 POP PUSH2 0x8BD DUP2 PUSH1 0x40 ADD MLOAD PUSH2 0xFFFF AND PUSH2 0x160D JUMP JUMPDEST PUSH2 0x160 DUP3 ADD MSTORE SWAP2 SWAP1 POP JUMP JUMPDEST PUSH2 0x8D0 PUSH2 0x359B JUMP JUMPDEST PUSH1 0x0 PUSH2 0x8DA PUSH2 0x1659 JUMP JUMPDEST PUSH1 0x1 PUSH1 0x1 PUSH1 0xA0 SHL SUB SWAP5 SWAP1 SWAP5 AND PUSH1 0x0 SWAP1 DUP2 MSTORE PUSH1 0x20 SWAP5 DUP6 MSTORE PUSH1 0x40 DUP1 DUP3 KECCAK256 DUP6 DUP4 MSTORE DUP7 MSTORE DUP1 DUP3 KECCAK256 SWAP5 DUP5 MSTORE DUP5 SLOAD PUSH1 0x1 PUSH1 0x50 SHL DUP1 DUP3 DIV PUSH1 0x1 PUSH1 0x1 PUSH1 0x50 SHL SUB SWAP1 DUP2 AND PUSH1 0x9 SWAP1 DUP2 SIGNEXTEND DUP7 SUB SWAP5 DUP9 ADD SWAP5 SWAP1 SWAP5 MSTORE DUP1 DUP4 AND SWAP1 SWAP4 SIGNEXTEND SWAP1 SWAP4 SUB SWAP7 DUP6 ADD SWAP7 SWAP1 SWAP7 MSTORE PUSH1 0x1 PUSH1 0xF0 SHL DUP7 DIV PUSH1 0xFF AND ISZERO ISZERO PUSH1 0x60 DUP6 ADD MSTORE PUSH1 0x1 SWAP1 SWAP5 ADD SLOAD PUSH1 0x1 PUSH1 0xA0 SHL DUP1 DUP3 DIV PUSH4 0xFFFFFFFF AND PUSH1 0x80 DUP7 ADD MSTORE SWAP1 SWAP6 DIV DUP5 AND PUSH1 0xC0 DUP5 ADD MSTORE DUP5 DIV DUP4 AND PUSH1 0xE0 DUP4 ADD MSTORE POP SWAP2 AND PUSH1 0xA0 DUP3 ADD MSTORE SWAP1 JUMP JUMPDEST PUSH1 0x20 SWAP2 SWAP1 SWAP2 ADD MLOAD DUP2 AND PUSH2 0xFFFF SWAP1 DUP2 AND SWAP2 AND EQ SWAP1 JUMP JUMPDEST PUSH2 0x998 PUSH2 0x3659 JUMP JUMPDEST PUSH1 0x0 DUP1 PUSH2 0x9A5 DUP7 DUP7 PUSH2 0x1666 JUMP JUMPDEST SWAP2 POP SWAP2 POP DUP2 PUSH1 0x0 EQ ISZERO PUSH2 0xAD5 JUMPI PUSH1 0x0 PUSH2 0x9BD DUP8 PUSH2 0x16AF JUMP JUMPDEST SWAP2 SWAP5 POP SWAP1 SWAP3 POP SWAP1 POP PUSH1 0x1 PUSH1 0x1 PUSH1 0xA0 SHL SUB DUP2 AND ISZERO PUSH2 0xAD3 JUMPI PUSH1 0x0 PUSH2 0x9DE PUSH2 0x1772 JUMP JUMPDEST SWAP1 POP DUP6 PUSH1 0x0 LT DUP1 ISZERO PUSH2 0x9F0 JUMPI POP DUP6 DUP8 GT ISZERO JUMPDEST DUP1 ISZERO PUSH2 0xA01 JUMPI POP PUSH5 0xFFFFFFFFFF DUP7 GT ISZERO JUMPDEST PUSH2 0xA0A JUMPI PUSH1 0x0 DUP1 REVERT JUMPDEST DUP4 PUSH1 0x0 SLT DUP1 ISZERO PUSH2 0xA21 JUMPI POP PUSH1 0x1 PUSH1 0x1 PUSH1 0x80 SHL SUB DUP5 SGT ISZERO JUMPDEST PUSH2 0xA2A JUMPI PUSH1 0x0 DUP1 REVERT JUMPDEST PUSH1 0x0 DUP9 DUP2 MSTORE PUSH1 0x20 DUP3 DUP2 MSTORE PUSH1 0x40 DUP1 DUP4 KECCAK256 DUP11 DUP5 MSTORE SWAP1 SWAP2 MSTORE SWAP1 DUP2 SWAP1 KECCAK256 DUP1 SLOAD PUSH5 0xFFFFFFFFFF NOT AND PUSH5 0xFFFFFFFFFF DUP10 AND OR PUSH21 0xFFFFFFFFFFFFFFFFFFFFFFFFFFFFFFFF0000000000 NOT AND PUSH6 0x10000000000 PUSH1 0x1 PUSH1 0x1 PUSH1 0x80 SHL SUB DUP9 AND MUL OR PUSH1 0xFF PUSH1 0xA8 SHL NOT AND PUSH1 0x1 PUSH1 0xA8 SHL PUSH1 0xFF DUP8 AND MUL OR DUP2 SSTORE SWAP1 MLOAD DUP9 SWAP1 DUP11 SWAP1 PUSH32 0xFDFA6885701E2F1F42E4187B9231CF81C1FE23671EF64FA46F34DDB56C1DC18 SWAP1 PUSH2 0xAC8 SWAP1 DUP10 SWAP1 PUSH2 0x3D9F JUMP JUMPDEST PUSH1 0x40 MLOAD DUP1 SWAP2 SUB SWAP1 LOG3 POP POP JUMPDEST POP JUMPDEST PUSH1 0x40 DUP1 MLOAD PUSH1 0x60 DUP2 ADD DUP3 MSTORE PUSH1 0x0 DUP2 MSTORE PUSH1 0x20 DUP2 ADD SWAP4 SWAP1 SWAP4 MSTORE PUSH1 0xFF SWAP1 SWAP2 AND PUSH1 0xA EXP SWAP1 DUP3 ADD MSTORE SWAP1 POP SWAP4 SWAP3 POP POP POP JUMP JUMPDEST PUSH1 0x0 DUP1 PUSH1 0x0 PUSH2 0xB13 DUP13 DUP13 DUP10 DUP10 DUP10 DUP10 PUSH2 0x177F JUMP JUMPDEST SWAP2 POP SWAP2 POP PUSH1 0x0 JUMPDEST DUP9 DUP2 LT ISZERO PUSH2 0xB77 JUMPI PUSH2 0xB6D PUSH2 0xB66 DUP15 DUP15 DUP15 DUP15 DUP15 DUP8 DUP2 DUP2 LT PUSH2 0xB37 JUMPI INVALID JUMPDEST SWAP1 POP PUSH1 0x20 MUL ADD PUSH1 0x20 DUP2 ADD SWAP1 PUSH2 0xB4C SWAP2 SWAP1 PUSH2 0x37A8 JUMP JUMPDEST DUP14 DUP14 DUP9 DUP2 DUP2 LT PUSH2 0xB58 JUMPI INVALID JUMPDEST SWAP1 POP PUSH1 0x20 MUL ADD CALLDATALOAD DUP9 DUP11 PUSH2 0x17EF JUMP JUMPDEST DUP6 SWAP1 PUSH2 0xBFD JUMP JUMPDEST SWAP4 POP PUSH1 0x1 ADD PUSH2 0xB1A JUMP JUMPDEST POP POP POP SWAP10 SWAP9 POP POP POP POP POP POP POP POP POP JUMP JUMPDEST PUSH1 0x0 PUSH2 0x841 PUSH1 0x0 NOT DUP4 PUSH2 0x18CB JUMP JUMPDEST PUSH1 0x0 DUP1 PUSH2 0xBCC DUP5 PUSH1 0x20 ADD MLOAD PUSH2 0xBC6 DUP7 PUSH1 0x40 ADD MLOAD PUSH2 0xBC0 PUSH5 0x2540BE400 DUP9 PUSH2 0x18CB SWAP1 SWAP2 SWAP1 PUSH4 0xFFFFFFFF AND JUMP JUMPDEST SWAP1 PUSH2 0x18CB JUMP JUMPDEST SWAP1 PUSH2 0x1919 JUMP JUMPDEST SWAP5 SWAP4 POP POP POP POP JUMP JUMPDEST PUSH1 0x0 DUP1 DUP3 SLT ISZERO PUSH2 0xBE3 JUMPI PUSH1 0x0 DUP1 REVERT JUMPDEST POP SWAP1 JUMP JUMPDEST PUSH1 0x0 PUSH1 0x1 PUSH1 0x1 PUSH1 0xFF SHL SUB DUP3 GT ISZERO PUSH2 0xBE3 JUMPI PUSH1 0x0 DUP1 REVERT JUMPDEST DUP2 DUP2 ADD DUP3 DUP2 SLT ISZERO PUSH1 0x0 DUP4 SLT ISZERO EQ PUSH2 0x841 JUMPI PUSH1 0x0 DUP1 REVERT JUMPDEST DUP1 DUP3 SUB DUP3 DUP2 SGT ISZERO PUSH1 0x0 DUP4 SLT ISZERO EQ PUSH2 0x841 JUMPI PUSH1 0x0 DUP1 REVERT JUMPDEST PUSH1 0x40 DUP3 ADD MLOAD PUSH1 0x0 DUP3 SGT PUSH2 0xC3C JUMPI POP PUSH2 0xCB8 JUMP JUMPDEST PUSH1 0x0 PUSH2 0xC4D PUSH1 0x0 DUP4 PUSH2 0xFFFF AND PUSH2 0x194A JUMP JUMPDEST POP POP POP SWAP1 POP DUP1 DUP4 SGT PUSH2 0xC6A JUMPI PUSH2 0xC65 DUP3 DUP5 DUP4 SUB PUSH2 0x19F3 JUMP JUMPDEST PUSH2 0xCB5 JUMP JUMPDEST PUSH2 0xC75 DUP3 PUSH1 0x0 PUSH2 0x19F3 JUMP JUMPDEST DUP4 MLOAD PUSH1 0x40 MLOAD PUSH32 0x9982BA522274FA0CC3EE3B56025595A76649B07F4B8A39F0BD8E546CA0F9646F SWAP2 PUSH2 0xCAC SWAP2 DUP6 SWAP2 SWAP1 DUP6 DUP9 SUB SWAP1 PUSH2 0x3DB3 JUMP JUMPDEST PUSH1 0x40 MLOAD DUP1 SWAP2 SUB SWAP1 LOG1 JUMPDEST POP POP JUMPDEST POP POP JUMP JUMPDEST PUSH1 0x0 PUSH2 0xCC6 PUSH2 0x1A56 JUMP JUMPDEST PUSH1 0x1 PUSH1 0x1 PUSH1 0xA0 SHL SUB DUP5 AND PUSH1 0x0 SWAP1 DUP2 MSTORE PUSH1 0x20 DUP3 SWAP1 MSTORE PUSH1 0x40 SWAP1 KECCAK256 DUP1 SLOAD SWAP2 SWAP3 POP SWAP1 PUSH2 0xFFFF AND DUP4 ISZERO PUSH2 0xD05 JUMPI DUP2 SLOAD PUSH2 0xFFFF NOT AND PUSH1 0x1 DUP3 OR PUSH2 0xFFFF AND OR DUP3 SSTORE PUSH2 0xD15 JUMP JUMPDEST DUP2 SLOAD PUSH2 0xFFFF NOT AND PUSH2 0xFFFE DUP3 AND OR DUP3 SSTORE JUMPDEST POP POP POP POP POP JUMP JUMPDEST PUSH1 0x0 PUSH2 0xD26 PUSH2 0x1659 JUMP JUMPDEST PUSH1 0x1 PUSH1 0x1 PUSH1 0xA0 SHL SUB DUP4 AND PUSH1 0x0 SWAP1 DUP2 MSTORE PUSH1 0x20 DUP3 DUP2 MSTORE PUSH1 0x40 DUP1 DUP4 KECCAK256 DUP8 MLOAD DUP5 MSTORE SWAP1 SWAP2 MSTORE SWAP1 KECCAK256 PUSH1 0x80 DUP6 ADD MLOAD SWAP2 SWAP3 POP SWAP1 PUSH4 0xFFFFFFFF LT ISZERO PUSH2 0xD61 JUMPI PUSH1 0x0 DUP1 REVERT JUMPDEST DUP4 PUSH1 0x40 ADD MLOAD DUP5 PUSH1 0x20 ADD MLOAD SGT ISZERO PUSH2 0xD89 JUMPI PUSH1 0x40 MLOAD PUSH3 0x461BCD PUSH1 0xE5 SHL DUP2 MSTORE PUSH1 0x4 ADD PUSH2 0x266 SWAP1 PUSH2 0x3B9B JUMP JUMPDEST PUSH2 0xD9E PUSH2 0xD99 DUP6 PUSH1 0x40 ADD MLOAD PUSH2 0xB87 JUMP JUMPDEST PUSH2 0x1A63 JUMP JUMPDEST DUP2 SLOAD PUSH1 0x1 PUSH1 0x1 PUSH1 0x50 SHL SUB SWAP2 SWAP1 SWAP2 AND PUSH1 0x1 PUSH1 0x50 SHL MUL PUSH10 0xFFFFFFFFFFFFFFFFFFFF PUSH1 0x50 SHL NOT SWAP1 SWAP2 AND OR DUP2 SSTORE PUSH1 0x20 DUP5 ADD MLOAD PUSH2 0xDD9 SWAP1 PUSH2 0xD99 SWAP1 PUSH2 0xB87 JUMP JUMPDEST DUP2 SLOAD PUSH1 0x60 DUP7 ADD MLOAD ISZERO ISZERO PUSH1 0x1 PUSH1 0xF0 SHL MUL PUSH1 0xFF PUSH1 0xF0 SHL NOT PUSH1 0x1 PUSH1 0x1 PUSH1 0x50 SHL SUB SWAP4 SWAP1 SWAP4 AND PUSH10 0xFFFFFFFFFFFFFFFFFFFF NOT SWAP1 SWAP3 AND SWAP2 SWAP1 SWAP2 OR SWAP2 SWAP1 SWAP2 AND OR DUP2 SSTORE PUSH1 0x80 DUP5 ADD MLOAD PUSH1 0x1 DUP3 ADD DUP1 SLOAD PUSH4 0xFFFFFFFF SWAP1 SWAP3 AND PUSH1 0x1 PUSH1 0xA0 SHL MUL PUSH4 0xFFFFFFFF PUSH1 0xA0 SHL NOT SWAP1 SWAP3 AND SWAP2 SWAP1 SWAP2 OR SWAP1 SSTORE PUSH1 0xC0 DUP5 ADD MLOAD PUSH2 0xE4D SWAP1 PUSH2 0x1A85 JUMP JUMPDEST DUP2 SLOAD PUSH1 0x1 PUSH1 0x1 PUSH1 0x50 SHL SUB SWAP2 SWAP1 SWAP2 AND PUSH1 0x1 PUSH1 0xA0 SHL MUL PUSH10 0xFFFFFFFFFFFFFFFFFFFF PUSH1 0xA0 SHL NOT SWAP1 SWAP2 AND OR DUP2 SSTORE PUSH1 0xE0 DUP5 ADD MLOAD PUSH2 0xE84 SWAP1 PUSH2 0x1A85 JUMP JUMPDEST DUP2 PUSH1 0x1 ADD PUSH1 0xA PUSH2 0x100 EXP DUP2 SLOAD DUP2 PUSH1 0x1 PUSH1 0x1 PUSH1 0x50 SHL SUB MUL NOT AND SWAP1 DUP4 PUSH1 0x1 PUSH1 0x1 PUSH1 0x50 SHL SUB AND MUL OR SWAP1 SSTORE POP PUSH2 0xEB9 DUP5 PUSH1 0xA0 ADD MLOAD PUSH2 0x1A85 JUMP JUMPDEST PUSH1 0x1 SWAP2 SWAP1 SWAP2 ADD DUP1 SLOAD PUSH10 0xFFFFFFFFFFFFFFFFFFFF NOT AND PUSH1 0x1 PUSH1 0x1 PUSH1 0x50 SHL SUB SWAP1 SWAP3 AND SWAP2 SWAP1 SWAP2 OR SWAP1 SSTORE POP POP POP JUMP JUMPDEST PUSH2 0xEEC PUSH2 0x35E2 JUMP JUMPDEST PUSH2 0xEF5 DUP3 PUSH2 0x14DD JUMP JUMPDEST SWAP1 POP PUSH2 0x8BD DUP2 PUSH1 0x40 ADD MLOAD PUSH2 0xFFFF AND PUSH2 0x1A9A JUMP JUMPDEST PUSH1 0x0 DUP1 PUSH2 0xF14 DUP4 PUSH2 0x1AB0 JUMP JUMPDEST SWAP1 POP PUSH1 0x0 DUP5 PUSH1 0xA0 ADD MLOAD DUP3 DUP2 PUSH2 0xF25 JUMPI INVALID JUMPDEST MOD SWAP1 POP PUSH2 0xF51 DUP6 PUSH1 0xC0 ADD MLOAD PUSH2 0xF4B DUP8 PUSH1 0xA0 ADD MLOAD PUSH2 0xF4B DUP6 DUP8 PUSH2 0x135D SWAP1 SWAP2 SWAP1 PUSH4 0xFFFFFFFF AND JUMP JUMPDEST SWAP1 PUSH2 0x1372 JUMP JUMPDEST SWAP6 SWAP5 POP POP POP POP POP JUMP JUMPDEST PUSH1 0x0 DUP1 PUSH1 0x0 PUSH2 0xF71 DUP7 PUSH1 0x40 ADD MLOAD PUSH2 0xFFFF AND DUP6 PUSH2 0x1ACE JUMP JUMPDEST SWAP1 POP PUSH1 0x0 PUSH2 0xFA3 PUSH2 0xF9E PUSH2 0xF88 DUP9 PUSH1 0xC0 ADD MLOAD PUSH2 0xBE7 JUMP JUMPDEST PUSH1 0x40 DUP10 ADD MLOAD PUSH2 0xF98 SWAP1 DUP7 SWAP1 PUSH2 0xB95 JUMP JUMPDEST SWAP1 PUSH2 0xBFD JUMP JUMPDEST PUSH2 0xB87 JUMP JUMPDEST SWAP1 POP PUSH1 0x0 PUSH2 0xFB8 DUP9 PUSH1 0x40 ADD MLOAD PUSH2 0xFFFF AND PUSH2 0x10EA JUMP JUMPDEST SWAP1 POP PUSH1 0x0 PUSH2 0xFCD DUP10 PUSH1 0x40 ADD MLOAD PUSH2 0xFFFF AND PUSH2 0x1B2B JUMP JUMPDEST SWAP1 POP PUSH2 0xFD9 DUP3 DUP5 PUSH2 0x1B3E JUMP JUMPDEST SWAP6 POP PUSH2 0xFEF PUSH2 0xFE8 DUP6 DUP6 PUSH2 0x1B76 JUMP JUMPDEST DUP3 SWAP1 PUSH2 0x1B3E JUMP JUMPDEST SWAP5 POP POP POP POP POP SWAP4 POP SWAP4 SWAP2 POP POP JUMP JUMPDEST PUSH1 0x0 PUSH2 0x1007 PUSH2 0x1A56 JUMP JUMPDEST SWAP1 POP PUSH2 0x101B PUSH2 0x120 DUP4 ADD PUSH2 0x100 DUP5 ADD PUSH2 0x3A29 JUMP JUMPDEST PUSH1 0xFF AND PUSH1 0x64 SGT ISZERO PUSH2 0x102B JUMPI PUSH1 0x0 DUP1 REVERT JUMPDEST PUSH1 0x64 PUSH2 0x103F PUSH2 0x140 DUP5 ADD PUSH2 0x120 DUP6 ADD PUSH2 0x3A29 JUMP JUMPDEST PUSH1 0xFF AND SGT ISZERO PUSH2 0x104D JUMPI PUSH1 0x0 DUP1 REVERT JUMPDEST PUSH2 0x105D PUSH1 0xC0 DUP4 ADD PUSH1 0xA0 DUP5 ADD PUSH2 0x39BC JUMP JUMPDEST PUSH2 0xFFFF AND PUSH2 0x106A JUMPI PUSH1 0x0 DUP1 REVERT JUMPDEST PUSH2 0x107A PUSH1 0xE0 DUP4 ADD PUSH1 0xC0 DUP5 ADD PUSH2 0x39BC JUMP JUMPDEST PUSH2 0xFFFF AND ISZERO DUP1 PUSH2 0x10BD JUMPI POP PUSH2 0x1095 PUSH1 0xE0 DUP4 ADD PUSH1 0xC0 DUP5 ADD PUSH2 0x39BC JUMP JUMPDEST PUSH2 0xFFFF AND PUSH2 0x10A9 PUSH1 0xC0 DUP5 ADD PUSH1 0xA0 DUP6 ADD PUSH2 0x39BC JUMP JUMPDEST PUSH2 0xFFFF AND DUP2 PUSH2 0x10B4 JUMPI INVALID JUMPDEST MOD PUSH2 0xFFFF AND PUSH1 0x0 EQ JUMPDEST PUSH2 0x10C6 JUMPI PUSH1 0x0 DUP1 REVERT JUMPDEST PUSH1 0x1 PUSH1 0x1 PUSH1 0xA0 SHL SUB DUP4 AND PUSH1 0x0 SWAP1 DUP2 MSTORE PUSH1 0x20 DUP3 SWAP1 MSTORE PUSH1 0x40 SWAP1 KECCAK256 DUP3 SWAP1 PUSH2 0xD15 DUP3 DUP3 PUSH2 0x3E51 JUMP JUMPDEST PUSH2 0x10F2 PUSH2 0x3683 JUMP JUMPDEST PUSH2 0x841 DUP3 PUSH1 0x0 PUSH2 0x1BA1 JUMP JUMPDEST PUSH1 0x0 PUSH4 0x5F5E100 DUP4 PUSH1 0x40 ADD MLOAD EQ ISZERO PUSH2 0x1116 JUMPI POP DUP1 PUSH2 0x841 JUMP JUMPDEST PUSH1 0x40 DUP4 ADD MLOAD PUSH2 0x511 SWAP1 PUSH2 0xBC6 DUP5 PUSH4 0x5F5E100 PUSH2 0x18CB JUMP JUMPDEST PUSH1 0x0 DUP5 PUSH2 0x113C JUMPI POP PUSH1 0x0 PUSH2 0xF51 JUMP JUMPDEST PUSH1 0x0 PUSH2 0x114F DUP8 PUSH1 0x40 ADD MLOAD PUSH2 0xFFFF AND PUSH2 0x10EA JUMP JUMPDEST SWAP1 POP PUSH1 0x0 PUSH2 0x115D DUP3 DUP9 PUSH2 0x1B3E JUMP JUMPDEST SWAP1 POP PUSH1 0x5 DUP3 PUSH1 0x60 ADD MLOAD PUSH1 0x5 DUP2 GT ISZERO PUSH2 0x1171 JUMPI INVALID JUMPDEST EQ ISZERO PUSH2 0x119E JUMPI PUSH1 0x0 PUSH2 0x118A DUP10 PUSH1 0x40 ADD MLOAD PUSH2 0xFFFF AND PUSH2 0x1B2B JUMP JUMPDEST SWAP1 POP PUSH2 0x119A DUP2 PUSH1 0x0 ADD MLOAD DUP4 PUSH2 0x1C4F JUMP JUMPDEST SWAP2 POP POP JUMPDEST PUSH1 0x0 PUSH2 0x11A9 DUP3 PUSH2 0xBD4 JUMP JUMPDEST DUP10 MLOAD DUP5 MLOAD PUSH1 0x40 MLOAD PUSH4 0x70A08231 PUSH1 0xE0 SHL DUP2 MSTORE SWAP3 SWAP4 POP SWAP1 SWAP2 PUSH1 0x0 SWAP1 PUSH1 0x1 PUSH1 0x1 PUSH1 0xA0 SHL SUB DUP4 AND SWAP1 PUSH4 0x70A08231 SWAP1 PUSH2 0x11E1 SWAP1 DUP7 SWAP1 PUSH1 0x4 ADD PUSH2 0x3A7C JUMP JUMPDEST PUSH1 0x20 PUSH1 0x40 MLOAD DUP1 DUP4 SUB DUP2 DUP7 DUP1 EXTCODESIZE ISZERO DUP1 ISZERO PUSH2 0x11F9 JUMPI PUSH1 0x0 DUP1 REVERT JUMPDEST POP GAS STATICCALL ISZERO DUP1 ISZERO PUSH2 0x120D JUMPI RETURNDATASIZE PUSH1 0x0 DUP1 RETURNDATACOPY RETURNDATASIZE PUSH1 0x0 REVERT JUMPDEST POP POP POP POP PUSH1 0x40 MLOAD RETURNDATASIZE PUSH1 0x1F NOT PUSH1 0x1F DUP3 ADD AND DUP3 ADD DUP1 PUSH1 0x40 MSTORE POP DUP2 ADD SWAP1 PUSH2 0x1231 SWAP2 SWAP1 PUSH2 0x39A4 JUMP JUMPDEST SWAP1 POP PUSH2 0x123E DUP3 DUP5 DUP7 PUSH2 0x1CE1 JUMP JUMPDEST PUSH1 0x40 MLOAD PUSH4 0x70A08231 PUSH1 0xE0 SHL DUP2 MSTORE PUSH1 0x0 SWAP1 PUSH1 0x1 PUSH1 0x1 PUSH1 0xA0 SHL SUB DUP5 AND SWAP1 PUSH4 0x70A08231 SWAP1 PUSH2 0x126D SWAP1 DUP8 SWAP1 PUSH1 0x4 ADD PUSH2 0x3A7C JUMP JUMPDEST PUSH1 0x20 PUSH1 0x40 MLOAD DUP1 DUP4 SUB DUP2 DUP7 DUP1 EXTCODESIZE ISZERO DUP1 ISZERO PUSH2 0x1285 JUMPI PUSH1 0x0 DUP1 REVERT JUMPDEST POP GAS STATICCALL ISZERO DUP1 ISZERO PUSH2 0x1299 JUMPI RETURNDATASIZE PUSH1 0x0 DUP1 RETURNDATACOPY RETURNDATASIZE PUSH1 0x0 REVERT JUMPDEST POP POP POP POP PUSH1 0x40 MLOAD RETURNDATASIZE PUSH1 0x1F NOT PUSH1 0x1F DUP3 ADD AND DUP3 ADD DUP1 PUSH1 0x40 MSTORE POP DUP2 ADD SWAP1 PUSH2 0x12BD SWAP2 SWAP1 PUSH2 0x39A4 JUMP JUMPDEST SWAP1 POP PUSH1 0x1 PUSH1 0x1 PUSH1 0xA0 SHL SUB DUP5 AND PUSH4 0xD302EE12 PUSH2 0x12D8 DUP4 DUP6 PUSH2 0x135D JUMP JUMPDEST DUP14 DUP14 DUP14 PUSH1 0x40 MLOAD DUP6 PUSH4 0xFFFFFFFF AND PUSH1 0xE0 SHL DUP2 MSTORE PUSH1 0x4 ADD PUSH2 0x12FA SWAP5 SWAP4 SWAP3 SWAP2 SWAP1 PUSH2 0x3DD8 JUMP JUMPDEST PUSH1 0x20 PUSH1 0x40 MLOAD DUP1 DUP4 SUB DUP2 PUSH1 0x0 DUP8 DUP1 EXTCODESIZE ISZERO DUP1 ISZERO PUSH2 0x1314 JUMPI PUSH1 0x0 DUP1 REVERT JUMPDEST POP GAS CALL ISZERO DUP1 ISZERO PUSH2 0x1328 JUMPI RETURNDATASIZE PUSH1 0x0 DUP1 RETURNDATACOPY RETURNDATASIZE PUSH1 0x0 REVERT JUMPDEST POP POP POP POP PUSH1 0x40 MLOAD RETURNDATASIZE PUSH1 0x1F NOT PUSH1 0x1F DUP3 ADD AND DUP3 ADD DUP1 PUSH1 0x40 MSTORE POP DUP2 ADD SWAP1 PUSH2 0x134C SWAP2 SWAP1 PUSH2 0x39A4 JUMP JUMPDEST SWAP14 SWAP13 POP POP POP POP POP POP POP POP POP POP POP POP POP JUMP JUMPDEST PUSH1 0x0 DUP3 DUP3 GT ISZERO PUSH2 0x136C JUMPI PUSH1 0x0 DUP1 REVERT JUMPDEST POP SWAP1 SUB SWAP1 JUMP JUMPDEST PUSH1 0x0 DUP3 DUP3 ADD DUP4 DUP2 LT ISZERO PUSH2 0x511 JUMPI PUSH1 0x0 DUP1 REVERT JUMPDEST PUSH1 0x0 PUSH2 0x1393 DUP7 DUP7 DUP7 DUP7 DUP7 PUSH2 0x1D5D JUMP JUMPDEST SWAP1 POP DUP1 DUP7 PUSH2 0x100 ADD MLOAD SGT ISZERO PUSH2 0x13BA JUMPI PUSH1 0x40 MLOAD PUSH3 0x461BCD PUSH1 0xE5 SHL DUP2 MSTORE PUSH1 0x4 ADD PUSH2 0x266 SWAP1 PUSH2 0x3C16 JUMP JUMPDEST POP POP POP POP POP POP JUMP JUMPDEST PUSH1 0x0 PUSH2 0x13CC PUSH2 0x1A56 JUMP JUMPDEST PUSH1 0x1 PUSH1 0x1 PUSH1 0xA0 SHL SUB SWAP1 SWAP4 AND PUSH1 0x0 SWAP1 DUP2 MSTORE PUSH1 0x20 SWAP4 SWAP1 SWAP4 MSTORE POP PUSH1 0x40 SWAP1 SWAP2 KECCAK256 DUP1 SLOAD PUSH1 0x1 PUSH1 0x1 PUSH1 0x50 SHL SUB SWAP1 SWAP3 AND PUSH5 0x100000000 MUL PUSH14 0xFFFFFFFFFFFFFFFFFFFF00000000 NOT SWAP1 SWAP3 AND SWAP2 SWAP1 SWAP2 OR SWAP1 SSTORE JUMP JUMPDEST PUSH1 0x0 DUP1 PUSH1 0x2 PUSH1 0xA SLOAD EQ ISZERO PUSH2 0x143D JUMPI PUSH1 0x40 MLOAD PUSH3 0x461BCD PUSH1 0xE5 SHL DUP2 MSTORE PUSH1 0x4 ADD PUSH2 0x266 SWAP1 PUSH2 0x3C4D JUMP JUMPDEST PUSH1 0x2 PUSH1 0xA SSTORE PUSH2 0x144D DUP8 PUSH1 0x80 PUSH2 0x97B JUMP JUMPDEST ISZERO PUSH2 0x1458 JUMPI PUSH1 0x1 PUSH1 0xA SSTORE JUMPDEST PUSH1 0x0 PUSH2 0x1468 DUP9 PUSH1 0x0 ADD MLOAD DUP9 PUSH2 0x8C8 JUMP JUMPDEST SWAP1 POP PUSH1 0x0 PUSH2 0x1479 DUP10 DUP9 DUP11 DUP10 DUP10 PUSH2 0x1DE5 JUMP JUMPDEST SWAP1 POP PUSH1 0x0 DUP2 SGT PUSH2 0x1488 JUMPI PUSH1 0x0 DUP1 REVERT JUMPDEST PUSH1 0xC0 DUP3 ADD MLOAD PUSH2 0x1497 SWAP1 DUP3 PUSH2 0x1372 JUMP JUMPDEST PUSH1 0xC0 DUP4 ADD MSTORE PUSH1 0xE0 DUP3 ADD MLOAD PUSH2 0x14AB SWAP1 DUP9 PUSH2 0x135D JUMP JUMPDEST PUSH1 0xE0 DUP4 ADD MSTORE DUP9 MLOAD PUSH2 0x14BD SWAP1 DUP4 SWAP1 PUSH2 0xD1C JUMP JUMPDEST PUSH2 0x14C8 DUP10 DUP4 DUP11 PUSH2 0xF5A JUMP JUMPDEST PUSH1 0x1 PUSH1 0xA SSTORE SWAP1 SWAP11 SWAP1 SWAP10 POP SWAP8 POP POP POP POP POP POP POP POP JUMP JUMPDEST PUSH2 0x14E5 PUSH2 0x35E2 JUMP JUMPDEST PUSH1 0x0 PUSH2 0x14EF PUSH2 0x1A56 JUMP JUMPDEST PUSH1 0x1 PUSH1 0x1 PUSH1 0xA0 SHL SUB DUP5 AND PUSH1 0x0 DUP2 DUP2 MSTORE PUSH1 0x20 DUP4 DUP2 MSTORE PUSH1 0x40 SWAP2 DUP3 SWAP1 KECCAK256 SWAP3 DUP7 MSTORE DUP3 SLOAD PUSH2 0xFFFF DUP1 DUP3 AND SWAP3 DUP9 ADD SWAP3 SWAP1 SWAP3 MSTORE PUSH3 0x10000 DUP2 DIV SWAP1 SWAP2 AND SWAP2 DUP7 ADD SWAP2 SWAP1 SWAP2 MSTORE PUSH1 0x1 PUSH1 0x1 PUSH1 0x50 SHL SUB PUSH5 0x100000000 DUP3 DIV AND PUSH1 0x60 DUP7 ADD MSTORE SWAP2 SWAP3 POP SWAP1 PUSH2 0x1565 SWAP1 PUSH4 0xFFFFFFFF PUSH1 0x1 PUSH1 0x70 SHL SWAP1 SWAP2 DIV DUP2 AND SWAP1 PUSH4 0x5F5E100 SWAP1 PUSH2 0x18CB AND JUMP JUMPDEST PUSH1 0x80 DUP5 ADD MSTORE DUP1 SLOAD PUSH2 0x1584 SWAP1 PUSH1 0x1 PUSH1 0xA0 SHL SWAP1 DIV PUSH2 0xFFFF AND PUSH3 0x15180 PUSH2 0x1FBF JUMP JUMPDEST PUSH1 0xA0 DUP5 ADD MSTORE DUP1 SLOAD PUSH2 0x15A3 SWAP1 PUSH1 0x1 PUSH1 0xB0 SHL SWAP1 DIV PUSH2 0xFFFF AND PUSH3 0x15180 PUSH2 0x1FBF JUMP JUMPDEST PUSH1 0xC0 DUP5 ADD MSTORE DUP1 SLOAD PUSH2 0x15C1 SWAP1 PUSH1 0x1 PUSH1 0xC0 SHL SWAP1 DIV PUSH1 0xFF AND PUSH3 0x7A120 PUSH2 0x1FBF JUMP JUMPDEST PUSH1 0xE0 DUP5 ADD MSTORE DUP1 SLOAD PUSH2 0x15E0 SWAP1 PUSH1 0x1 PUSH1 0x90 SHL SWAP1 DIV PUSH2 0xFFFF AND PUSH3 0x186A0 PUSH2 0x1FBF JUMP JUMPDEST PUSH2 0x100 DUP5 ADD MSTORE SLOAD PUSH1 0xFF PUSH1 0x1 PUSH1 0xC8 SHL DUP3 DIV DUP2 AND PUSH2 0x120 DUP6 ADD MSTORE PUSH1 0x1 PUSH1 0xD0 SHL SWAP1 SWAP2 DIV AND PUSH2 0x140 DUP4 ADD MSTORE POP SWAP2 SWAP1 POP JUMP JUMPDEST PUSH2 0x1615 PUSH2 0x3659 JUMP JUMPDEST PUSH1 0x0 DUP1 PUSH1 0x0 PUSH2 0x1623 DUP6 PUSH2 0x16AF JUMP JUMPDEST PUSH1 0x40 DUP1 MLOAD PUSH1 0x60 DUP2 ADD DUP3 MSTORE PUSH1 0x1 PUSH1 0x1 PUSH1 0xA0 SHL SUB SWAP1 SWAP4 AND DUP4 MSTORE PUSH1 0x20 DUP4 ADD SWAP4 SWAP1 SWAP4 MSTORE PUSH1 0xFF AND PUSH1 0xA EXP SWAP2 DUP2 ADD SWAP2 SWAP1 SWAP2 MSTORE SWAP4 POP POP POP POP SWAP2 SWAP1 POP JUMP JUMPDEST PUSH1 0x0 DUP1 PUSH2 0x841 PUSH1 0x15 PUSH2 0x1FE6 JUMP JUMPDEST PUSH1 0x0 DUP1 PUSH1 0x0 PUSH2 0x1673 PUSH2 0x1772 JUMP JUMPDEST PUSH1 0x0 SWAP6 DUP7 MSTORE PUSH1 0x20 SWAP1 DUP2 MSTORE PUSH1 0x40 DUP1 DUP8 KECCAK256 SWAP6 DUP8 MSTORE SWAP5 SWAP1 MSTORE POP POP POP SWAP1 KECCAK256 SLOAD PUSH6 0x10000000000 DUP2 DIV PUSH1 0x1 PUSH1 0x1 PUSH1 0x80 SHL SUB AND SWAP2 PUSH1 0x1 PUSH1 0xA8 SHL SWAP1 SWAP2 DIV PUSH1 0xFF AND SWAP1 JUMP JUMPDEST PUSH1 0x0 DUP1 PUSH1 0x0 DUP1 PUSH1 0x0 PUSH2 0x16C0 DUP7 PUSH2 0x1FFF JUMP JUMPDEST SWAP1 SWAP3 POP SWAP1 POP PUSH1 0x0 PUSH1 0x1 PUSH1 0x1 PUSH1 0xA0 SHL SUB DUP4 AND PUSH2 0x16E5 JUMPI POP PUSH1 0x0 SWAP1 POP PUSH5 0x2540BE400 PUSH2 0x1767 JUMP JUMPDEST DUP3 PUSH1 0x1 PUSH1 0x1 PUSH1 0xA0 SHL SUB AND PUSH4 0x1EE10833 PUSH1 0x40 MLOAD DUP2 PUSH4 0xFFFFFFFF AND PUSH1 0xE0 SHL DUP2 MSTORE PUSH1 0x4 ADD PUSH1 0x20 PUSH1 0x40 MLOAD DUP1 DUP4 SUB DUP2 PUSH1 0x0 DUP8 DUP1 EXTCODESIZE ISZERO DUP1 ISZERO PUSH2 0x1720 JUMPI PUSH1 0x0 DUP1 REVERT JUMPDEST POP GAS CALL ISZERO DUP1 ISZERO PUSH2 0x1734 JUMPI RETURNDATASIZE PUSH1 0x0 DUP1 RETURNDATACOPY RETURNDATASIZE PUSH1 0x0 REVERT JUMPDEST POP POP POP POP PUSH1 0x40 MLOAD RETURNDATASIZE PUSH1 0x1F NOT PUSH1 0x1F DUP3 ADD AND DUP3 ADD DUP1 PUSH1 0x40 MSTORE POP DUP2 ADD SWAP1 PUSH2 0x1758 SWAP2 SWAP1 PUSH2 0x39A4 JUMP JUMPDEST SWAP1 POP PUSH1 0x0 DUP2 SGT PUSH2 0x1767 JUMPI PUSH1 0x0 DUP1 REVERT JUMPDEST SWAP7 SWAP2 SWAP6 POP SWAP4 POP SWAP2 POP POP JUMP JUMPDEST PUSH1 0x0 DUP1 PUSH2 0x841 PUSH1 0x8 PUSH2 0x1FE6 JUMP JUMPDEST PUSH1 0x0 DUP1 PUSH1 0x0 DUP1 JUMPDEST DUP7 DUP2 LT ISZERO PUSH2 0x17BD JUMPI PUSH2 0x17B3 DUP9 DUP9 DUP4 DUP2 DUP2 LT PUSH2 0x179D JUMPI INVALID JUMPDEST SWAP1 POP PUSH1 0x20 MUL ADD CALLDATALOAD DUP4 PUSH2 0x1372 SWAP1 SWAP2 SWAP1 PUSH4 0xFFFFFFFF AND JUMP JUMPDEST SWAP2 POP PUSH1 0x1 ADD PUSH2 0x1786 JUMP JUMPDEST POP PUSH2 0x17C8 DUP10 DUP3 PUSH2 0x2036 JUMP JUMPDEST DUP11 MLOAD SWAP1 SWAP5 POP PUSH2 0x17E1 SWAP2 POP PUSH2 0x3A9 SWAP1 DUP11 SWAP1 DUP7 SWAP1 DUP10 DUP10 PUSH2 0x1DE5 JUMP JUMPDEST SWAP2 POP POP SWAP7 POP SWAP7 SWAP5 POP POP POP POP POP JUMP JUMPDEST PUSH1 0x0 DUP1 PUSH2 0x17FC DUP7 DUP10 PUSH2 0x2088 JUMP JUMPDEST PUSH1 0x40 DUP2 ADD MLOAD DUP11 MLOAD SWAP2 SWAP3 POP EQ DUP1 ISZERO PUSH2 0x1817 JUMPI POP PUSH2 0x1817 DUP2 PUSH2 0x2142 JUMP JUMPDEST PUSH2 0x1820 JUMPI PUSH1 0x0 DUP1 REVERT JUMPDEST PUSH1 0x0 PUSH2 0x182D DUP11 DUP4 DUP9 PUSH2 0x2166 JUMP JUMPDEST SWAP1 POP PUSH2 0x1859 PUSH2 0x184E PUSH2 0x1849 DUP7 PUSH2 0x1843 DUP10 DUP7 PUSH2 0x1FBF JUMP JUMPDEST SWAP1 PUSH2 0x21C5 JUMP JUMPDEST PUSH2 0xBE7 JUMP JUMPDEST PUSH1 0xA0 DUP5 ADD MLOAD SWAP1 PUSH2 0xBFD JUMP JUMPDEST PUSH1 0xA0 DUP4 ADD MSTORE PUSH2 0x1869 DUP3 DUP12 DUP11 PUSH2 0x21E4 JUMP JUMPDEST PUSH1 0x0 DUP3 PUSH1 0xA0 ADD MLOAD SLT PUSH2 0x1886 JUMPI PUSH2 0x1881 DUP3 DUP11 PUSH1 0x0 PUSH2 0x2276 JUMP JUMPDEST PUSH2 0x18B4 JUMP JUMPDEST PUSH2 0x1893 DUP3 PUSH1 0xA0 ADD MLOAD PUSH2 0xB87 JUMP JUMPDEST PUSH1 0x0 PUSH1 0xA0 DUP5 ADD MSTORE PUSH1 0x80 DUP12 ADD MLOAD SWAP1 SWAP4 POP ISZERO PUSH2 0x18B4 JUMPI PUSH1 0x80 DUP11 ADD DUP1 MLOAD PUSH1 0x0 NOT ADD SWAP1 MSTORE JUMPDEST PUSH2 0x18BE DUP3 DUP11 PUSH2 0x23AF JUMP JUMPDEST POP POP SWAP8 SWAP7 POP POP POP POP POP POP POP JUMP JUMPDEST DUP2 DUP2 MUL PUSH1 0x0 NOT DUP4 EQ ISZERO PUSH2 0x18FB JUMPI DUP2 ISZERO DUP1 PUSH2 0x18ED JUMPI POP DUP3 DUP3 DUP3 DUP2 PUSH2 0x18EA JUMPI INVALID JUMPDEST SDIV EQ JUMPDEST PUSH2 0x18F6 JUMPI PUSH1 0x0 DUP1 REVERT JUMPDEST PUSH2 0x841 JUMP JUMPDEST DUP3 ISZERO DUP1 PUSH2 0x1910 JUMPI POP DUP2 DUP4 DUP3 DUP2 PUSH2 0x190D JUMPI INVALID JUMPDEST SDIV EQ JUMPDEST PUSH2 0x841 JUMPI PUSH1 0x0 DUP1 REVERT JUMPDEST PUSH1 0x0 DUP2 PUSH1 0x0 NOT EQ DUP1 ISZERO PUSH2 0x192F JUMPI POP PUSH1 0x1 PUSH1 0xFF SHL DUP4 EQ JUMPDEST ISZERO PUSH2 0x1939 JUMPI PUSH1 0x0 DUP1 REVERT JUMPDEST DUP2 DUP4 DUP2 PUSH2 0x1942 JUMPI INVALID JUMPDEST SDIV SWAP4 SWAP3 POP POP POP JUMP JUMPDEST PUSH1 0x0 DUP1 PUSH1 0x0 DUP1 PUSH1 0x0 PUSH2 0x195A PUSH2 0x2506 JUMP JUMPDEST PUSH1 0x1 PUSH1 0x1 PUSH1 0xA0 SHL SUB DUP9 AND PUSH1 0x0 SWAP1 DUP2 MSTORE PUSH1 0x20 DUP3 DUP2 MSTORE PUSH1 0x40 DUP1 DUP4 KECCAK256 DUP11 DUP5 MSTORE SWAP1 SWAP2 MSTORE SWAP1 KECCAK256 DUP1 SLOAD PUSH1 0x1 PUSH1 0x1 PUSH1 0x50 SHL SUB DUP2 AND SWAP7 POP PUSH1 0x1 PUSH1 0x50 SHL SWAP1 DIV PUSH4 0xFFFFFFFF AND SWAP5 POP SWAP1 SWAP2 POP DUP4 ISZERO PUSH2 0x19C3 JUMPI DUP1 SLOAD PUSH2 0x19BC SWAP1 PUSH1 0x1 PUSH1 0x70 SHL SWAP1 DIV PUSH7 0xFFFFFFFFFFFFFF AND PUSH2 0x2513 JUMP JUMPDEST SWAP3 POP PUSH2 0x19D8 JUMP JUMPDEST DUP1 SLOAD PUSH1 0x1 PUSH1 0x70 SHL SWAP1 DIV PUSH7 0xFFFFFFFFFFFFFF AND SWAP3 POP JUMPDEST SLOAD PUSH1 0x1 PUSH1 0xA8 SHL SWAP1 DIV PUSH1 0xA SWAP1 DUP2 SIGNEXTEND SWAP1 SIGNEXTEND SWAP8 SWAP4 SWAP7 POP SWAP2 SWAP5 POP SWAP3 POP POP JUMP JUMPDEST PUSH1 0x0 DUP2 SLT ISZERO PUSH2 0x1A01 JUMPI PUSH1 0x0 DUP1 REVERT JUMPDEST PUSH2 0x1A16 PUSH1 0x0 DUP4 PUSH2 0xFFFF AND DUP4 PUSH1 0x0 DUP1 PUSH1 0x0 PUSH2 0x2521 JUMP JUMPDEST DUP2 PUSH2 0xFFFF AND PUSH32 0xD3625F7B5926828151EFE19F7AE655488287357D99EBE67E5FB20522CA739C0B DUP3 PUSH1 0x40 MLOAD PUSH2 0x1A4A SWAP2 SWAP1 PUSH2 0x3AFB JUMP JUMPDEST PUSH1 0x40 MLOAD DUP1 SWAP2 SUB SWAP1 LOG2 POP POP JUMP JUMPDEST PUSH1 0x0 DUP1 PUSH2 0x841 PUSH1 0x14 PUSH2 0x1FE6 JUMP JUMPDEST PUSH1 0x0 DUP2 PUSH1 0x0 SGT ISZERO DUP1 ISZERO PUSH2 0x1A7C JUMPI POP PUSH1 0x1 PUSH1 0x1 PUSH1 0x50 SHL SUB DUP3 SLT JUMPDEST PUSH2 0xBE3 JUMPI PUSH1 0x0 DUP1 REVERT JUMPDEST PUSH1 0x0 PUSH1 0x1 PUSH1 0x1 PUSH1 0x50 SHL SUB DUP3 LT PUSH2 0xBE3 JUMPI PUSH1 0x0 DUP1 REVERT JUMPDEST PUSH2 0x1AA2 PUSH2 0x3659 JUMP JUMPDEST PUSH1 0x0 DUP1 PUSH1 0x0 PUSH2 0x1623 DUP6 PUSH2 0x266B JUMP JUMPDEST PUSH1 0x0 PUSH3 0x15180 DUP3 LT ISZERO PUSH2 0x1AC2 JUMPI PUSH1 0x0 DUP1 REVERT JUMPDEST POP PUSH3 0x15180 DUP2 MOD SWAP1 SUB SWAP1 JUMP JUMPDEST PUSH2 0x1AD6 PUSH2 0x3659 JUMP JUMPDEST PUSH1 0x0 DUP1 PUSH2 0x1AE3 DUP6 DUP6 PUSH2 0x1666 JUMP JUMPDEST SWAP2 POP SWAP2 POP DUP2 PUSH1 0x0 EQ ISZERO PUSH2 0x1B01 JUMPI PUSH2 0x1AF9 DUP6 PUSH2 0x266B JUMP JUMPDEST SWAP2 SWAP4 POP SWAP1 SWAP2 POP POP JUMPDEST PUSH1 0x40 DUP1 MLOAD PUSH1 0x60 DUP2 ADD DUP3 MSTORE PUSH1 0x0 DUP2 MSTORE PUSH1 0x20 DUP2 ADD SWAP4 SWAP1 SWAP4 MSTORE PUSH1 0xFF SWAP1 SWAP2 AND PUSH1 0xA EXP SWAP1 DUP3 ADD MSTORE SWAP1 POP SWAP3 SWAP2 POP POP JUMP JUMPDEST PUSH2 0x1B33 PUSH2 0x3683 JUMP JUMPDEST PUSH2 0x841 DUP3 PUSH1 0x1 PUSH2 0x1BA1 JUMP JUMPDEST PUSH1 0x0 PUSH4 0x5F5E100 DUP4 PUSH1 0x40 ADD MLOAD EQ ISZERO PUSH2 0x1B57 JUMPI POP DUP1 PUSH2 0x841 JUMP JUMPDEST PUSH2 0x511 PUSH4 0x5F5E100 PUSH2 0xBC6 DUP6 PUSH1 0x40 ADD MLOAD DUP6 PUSH2 0x18CB SWAP1 SWAP2 SWAP1 PUSH4 0xFFFFFFFF AND JUMP JUMPDEST PUSH1 0x0 DUP1 PUSH2 0xBCC DUP5 PUSH1 0x40 ADD MLOAD PUSH2 0xBC6 PUSH5 0x2540BE400 PUSH2 0xBC6 DUP8 DUP10 PUSH1 0x20 ADD MLOAD PUSH2 0x18CB SWAP1 SWAP2 SWAP1 PUSH4 0xFFFFFFFF AND JUMP JUMPDEST PUSH2 0x1BA9 PUSH2 0x3683 JUMP JUMPDEST PUSH1 0x0 PUSH2 0x1BB3 PUSH2 0x26EE JUMP JUMPDEST PUSH1 0x0 DUP6 DUP2 MSTORE PUSH1 0x20 DUP3 DUP2 MSTORE PUSH1 0x40 DUP1 DUP4 KECCAK256 DUP8 ISZERO ISZERO DUP5 MSTORE DUP3 MSTORE SWAP2 DUP3 SWAP1 KECCAK256 DUP3 MLOAD PUSH1 0xA0 DUP2 ADD DUP5 MSTORE DUP2 SLOAD PUSH1 0x1 PUSH1 0x1 PUSH1 0xA0 SHL SUB DUP2 AND DUP3 MSTORE PUSH1 0xFF PUSH1 0x1 PUSH1 0xA0 SHL DUP3 DIV DUP2 AND ISZERO ISZERO SWAP5 DUP4 ADD SWAP5 SWAP1 SWAP5 MSTORE PUSH1 0x1 PUSH1 0xB0 SHL DUP2 DIV DUP5 AND PUSH1 0xA EXP SWAP5 DUP3 ADD SWAP5 SWAP1 SWAP5 MSTORE SWAP4 SWAP5 POP SWAP3 SWAP2 PUSH1 0x60 DUP4 ADD SWAP2 PUSH1 0x1 PUSH1 0xA8 SHL SWAP1 SWAP2 DIV AND PUSH1 0x5 DUP2 GT ISZERO PUSH2 0x1C28 JUMPI INVALID JUMPDEST DUP2 MSTORE SWAP2 SLOAD PUSH1 0x1 PUSH1 0xB8 SHL SWAP1 DIV PUSH9 0xFFFFFFFFFFFFFFFFFF AND PUSH1 0x20 SWAP1 SWAP3 ADD SWAP2 SWAP1 SWAP2 MSTORE SWAP5 SWAP4 POP POP POP POP JUMP JUMPDEST PUSH1 0x0 DUP2 PUSH2 0x1C5E JUMPI POP PUSH1 0x0 PUSH2 0x841 JUMP JUMPDEST PUSH1 0x0 PUSH2 0x1C69 DUP5 PUSH2 0x26FB JUMP JUMPDEST SWAP1 POP PUSH1 0x0 PUSH2 0x1C76 DUP5 PUSH2 0x2786 JUMP JUMPDEST SWAP1 POP DUP2 PUSH12 0x19D971E4FE8401E74000001 PUSH1 0x1 PUSH1 0xFF SHL SUB DUP2 PUSH2 0x1C93 JUMPI INVALID JUMPDEST SDIV DUP2 SGT ISZERO PUSH2 0x1CA0 JUMPI PUSH1 0x0 DUP1 REVERT JUMPDEST PUSH12 0x33B2E3C9FD0803CE8000000 PUSH12 0x19D971E4FE8401E74000000 DUP4 DUP4 MUL ADD SDIV PUSH1 0x0 DUP6 SGT PUSH2 0x1CD5 JUMPI PUSH2 0x1CD0 DUP2 PUSH2 0xB87 JUMP JUMPDEST PUSH2 0x1CD7 JUMP JUMPDEST DUP1 JUMPDEST SWAP7 SWAP6 POP POP POP POP POP POP JUMP JUMPDEST DUP3 PUSH1 0x1 PUSH1 0x1 PUSH1 0xA0 SHL SUB AND PUSH4 0xA9059CBB DUP4 DUP4 PUSH1 0x40 MLOAD DUP4 PUSH4 0xFFFFFFFF AND PUSH1 0xE0 SHL DUP2 MSTORE PUSH1 0x4 ADD DUP1 DUP4 PUSH1 0x1 PUSH1 0x1 PUSH1 0xA0 SHL SUB AND DUP2 MSTORE PUSH1 0x20 ADD DUP3 DUP2 MSTORE PUSH1 0x20 ADD SWAP3 POP POP POP PUSH1 0x0 PUSH1 0x40 MLOAD DUP1 DUP4 SUB DUP2 PUSH1 0x0 DUP8 DUP1 EXTCODESIZE ISZERO DUP1 ISZERO PUSH2 0x1D38 JUMPI PUSH1 0x0 DUP1 REVERT JUMPDEST POP GAS CALL ISZERO DUP1 ISZERO PUSH2 0x1D4C JUMPI RETURNDATASIZE PUSH1 0x0 DUP1 RETURNDATACOPY RETURNDATASIZE PUSH1 0x0 REVERT JUMPDEST POP POP POP POP PUSH2 0x1D58 PUSH2 0x27A7 JUMP JUMPDEST POP POP POP JUMP JUMPDEST PUSH1 0x0 DUP1 DUP1 PUSH2 0x1D6C DUP8 DUP10 DUP9 PUSH2 0x2814 JUMP JUMPDEST SWAP2 POP SWAP2 POP PUSH1 0x0 PUSH2 0x1D9A PUSH2 0xF9E PUSH2 0x1D90 DUP9 DUP13 PUSH2 0x160 ADD MLOAD PUSH2 0xB95 SWAP1 SWAP2 SWAP1 PUSH4 0xFFFFFFFF AND JUMP JUMPDEST PUSH2 0xF98 DUP9 DUP7 PUSH2 0xBFD JUMP JUMPDEST SWAP1 POP PUSH1 0x0 PUSH2 0x1DB2 DUP3 PUSH2 0x1DAC DUP7 DUP7 PUSH2 0xC13 JUMP JUMPDEST SWAP1 PUSH2 0xC13 JUMP JUMPDEST SWAP1 POP PUSH1 0x0 DUP3 SGT PUSH2 0x1DCB JUMPI PUSH1 0x1 PUSH1 0x1 PUSH1 0xFF SHL SUB SWAP5 POP PUSH2 0x1DD8 JUMP JUMPDEST PUSH2 0x1DD5 DUP2 DUP4 PUSH2 0x2906 JUMP JUMPDEST SWAP5 POP JUMPDEST POP POP POP POP SWAP6 SWAP5 POP POP POP POP POP JUMP JUMPDEST PUSH1 0x0 DUP5 PUSH2 0x1DF4 JUMPI POP PUSH1 0x0 PUSH2 0xF51 JUMP JUMPDEST PUSH1 0x0 PUSH2 0x1E07 DUP8 PUSH1 0x40 ADD MLOAD PUSH2 0xFFFF AND PUSH2 0x10EA JUMP JUMPDEST SWAP1 POP PUSH1 0x0 DUP2 PUSH1 0x0 ADD MLOAD PUSH1 0x1 PUSH1 0x1 PUSH1 0xA0 SHL SUB AND PUSH4 0x70A08231 ADDRESS PUSH1 0x40 MLOAD DUP3 PUSH4 0xFFFFFFFF AND PUSH1 0xE0 SHL DUP2 MSTORE PUSH1 0x4 ADD PUSH2 0x1E3B SWAP2 SWAP1 PUSH2 0x3A7C JUMP JUMPDEST PUSH1 0x20 PUSH1 0x40 MLOAD DUP1 DUP4 SUB DUP2 DUP7 DUP1 EXTCODESIZE ISZERO DUP1 ISZERO PUSH2 0x1E53 JUMPI PUSH1 0x0 DUP1 REVERT JUMPDEST POP GAS STATICCALL ISZERO DUP1 ISZERO PUSH2 0x1E67 JUMPI RETURNDATASIZE PUSH1 0x0 DUP1 RETURNDATACOPY RETURNDATASIZE PUSH1 0x0 REVERT JUMPDEST POP POP POP POP PUSH1 0x40 MLOAD RETURNDATASIZE PUSH1 0x1F NOT PUSH1 0x1F DUP3 ADD AND DUP3 ADD DUP1 PUSH1 0x40 MSTORE POP DUP2 ADD SWAP1 PUSH2 0x1E8B SWAP2 SWAP1 PUSH2 0x39A4 JUMP JUMPDEST DUP9 MLOAD PUSH1 0x40 MLOAD PUSH4 0x902317C9 PUSH1 0xE0 SHL DUP2 MSTORE SWAP2 SWAP3 POP PUSH1 0x1 PUSH1 0x1 PUSH1 0xA0 SHL SUB AND SWAP1 PUSH4 0x902317C9 SWAP1 PUSH2 0x1EC1 SWAP1 DUP11 SWAP1 DUP11 SWAP1 DUP11 SWAP1 DUP11 SWAP1 PUSH1 0x4 ADD PUSH2 0x3DD8 JUMP JUMPDEST PUSH1 0x0 PUSH1 0x40 MLOAD DUP1 DUP4 SUB DUP2 PUSH1 0x0 DUP8 DUP1 EXTCODESIZE ISZERO DUP1 ISZERO PUSH2 0x1EDB JUMPI PUSH1 0x0 DUP1 REVERT JUMPDEST POP GAS CALL ISZERO DUP1 ISZERO PUSH2 0x1EEF JUMPI RETURNDATASIZE PUSH1 0x0 DUP1 RETURNDATACOPY RETURNDATASIZE PUSH1 0x0 REVERT JUMPDEST POP POP DUP4 MLOAD PUSH1 0x40 MLOAD PUSH4 0x70A08231 PUSH1 0xE0 SHL DUP2 MSTORE PUSH1 0x0 SWAP4 POP PUSH1 0x1 PUSH1 0x1 PUSH1 0xA0 SHL SUB SWAP1 SWAP2 AND SWAP2 POP PUSH4 0x70A08231 SWAP1 PUSH2 0x1F25 SWAP1 ADDRESS SWAP1 PUSH1 0x4 ADD PUSH2 0x3A7C JUMP JUMPDEST PUSH1 0x20 PUSH1 0x40 MLOAD DUP1 DUP4 SUB DUP2 DUP7 DUP1 EXTCODESIZE ISZERO DUP1 ISZERO PUSH2 0x1F3D JUMPI PUSH1 0x0 DUP1 REVERT JUMPDEST POP GAS STATICCALL ISZERO DUP1 ISZERO PUSH2 0x1F51 JUMPI RETURNDATASIZE PUSH1 0x0 DUP1 RETURNDATACOPY RETURNDATASIZE PUSH1 0x0 REVERT JUMPDEST POP POP POP POP PUSH1 0x40 MLOAD RETURNDATASIZE PUSH1 0x1F NOT PUSH1 0x1F DUP3 ADD AND DUP3 ADD DUP1 PUSH1 0x40 MSTORE POP DUP2 ADD SWAP1 PUSH2 0x1F75 SWAP2 SWAP1 PUSH2 0x39A4 JUMP JUMPDEST SWAP1 POP PUSH1 0x0 PUSH2 0x1F86 PUSH2 0x1849 DUP4 DUP6 PUSH2 0x135D JUMP JUMPDEST SWAP1 POP PUSH1 0x5 DUP5 PUSH1 0x60 ADD MLOAD PUSH1 0x5 DUP2 GT ISZERO PUSH2 0x1F9A JUMPI INVALID JUMPDEST EQ ISZERO PUSH2 0x1FB5 JUMPI PUSH2 0x1FB2 DUP11 PUSH1 0x40 ADD MLOAD PUSH2 0xFFFF AND DUP3 PUSH2 0x291F JUMP JUMPDEST SWAP1 POP JUMPDEST PUSH2 0x1DD5 DUP5 DUP3 PUSH2 0x10FD JUMP JUMPDEST PUSH1 0x0 DUP3 PUSH2 0x1FCE JUMPI POP PUSH1 0x0 PUSH2 0x841 JUMP JUMPDEST DUP3 DUP3 MUL DUP3 DUP5 DUP3 DUP2 PUSH2 0x1FDB JUMPI INVALID JUMPDEST DIV EQ PUSH2 0x511 JUMPI PUSH1 0x0 DUP1 REVERT JUMPDEST PUSH1 0x0 PUSH3 0xF4240 DUP3 PUSH1 0x16 DUP2 GT ISZERO PUSH2 0x1FF8 JUMPI INVALID JUMPDEST ADD SWAP3 SWAP2 POP POP JUMP JUMPDEST PUSH1 0x0 DUP1 PUSH1 0x0 PUSH2 0x200C PUSH2 0x29A6 JUMP JUMPDEST PUSH1 0x0 SWAP5 DUP6 MSTORE PUSH1 0x20 MSTORE POP POP PUSH1 0x40 SWAP1 SWAP2 KECCAK256 SLOAD PUSH1 0x1 PUSH1 0x1 PUSH1 0xA0 SHL SUB DUP2 AND SWAP3 PUSH1 0x1 PUSH1 0xA0 SHL SWAP1 SWAP2 DIV PUSH1 0xFF AND SWAP2 POP JUMP JUMPDEST PUSH1 0x0 DUP1 PUSH2 0x205E DUP5 PUSH1 0xA0 ADD MLOAD PUSH2 0x2058 DUP7 PUSH1 0xC0 ADD MLOAD DUP7 PUSH2 0x29B3 SWAP1 SWAP2 SWAP1 PUSH4 0xFFFFFFFF AND JUMP JUMPDEST SWAP1 PUSH2 0x2A0C JUMP JUMPDEST SWAP2 POP PUSH2 0x207F DUP5 PUSH1 0xA0 ADD MLOAD PUSH2 0x2058 DUP7 PUSH1 0xE0 ADD MLOAD DUP7 PUSH2 0x29B3 SWAP1 SWAP2 SWAP1 PUSH4 0xFFFFFFFF AND JUMP JUMPDEST SWAP1 POP SWAP3 POP SWAP3 SWAP1 POP JUMP JUMPDEST PUSH2 0x2090 PUSH2 0x36B2 JUMP JUMPDEST PUSH1 0x0 PUSH2 0x209A PUSH2 0x2A62 JUMP JUMPDEST PUSH1 0x1 PUSH1 0x1 PUSH1 0xA0 SHL SUB DUP6 DUP2 AND PUSH1 0x0 SWAP1 DUP2 MSTORE PUSH1 0x20 DUP4 DUP2 MSTORE PUSH1 0x40 DUP1 DUP4 KECCAK256 DUP9 MLOAD SWAP1 SWAP5 AND DUP4 MSTORE SWAP3 DUP2 MSTORE SWAP2 DUP2 KECCAK256 DUP1 SLOAD PUSH1 0x1 PUSH1 0x1 PUSH1 0x50 SHL SUB DUP1 DUP3 AND SWAP1 SWAP4 SUB DUP8 MSTORE PUSH1 0x1 PUSH1 0x50 SHL DUP2 DIV SWAP1 SWAP3 AND SWAP3 DUP7 ADD SWAP3 SWAP1 SWAP3 MSTORE PUSH1 0xA0 DUP7 ADD MLOAD PUSH1 0xC0 DUP8 ADD MLOAD SWAP4 SWAP5 POP SWAP2 SWAP3 PUSH2 0x210A SWAP3 PUSH1 0x1 PUSH1 0xF0 SHL SWAP1 SWAP3 DIV PUSH2 0xFFFF AND SWAP2 SWAP1 PUSH2 0x2A6F JUMP JUMPDEST PUSH1 0x40 DUP5 ADD MSTORE SLOAD PUSH1 0x1 PUSH1 0x1 PUSH1 0x50 SHL SUB PUSH1 0x1 PUSH1 0xA0 SHL SWAP1 SWAP2 DIV AND PUSH1 0x60 DUP4 ADD MSTORE POP PUSH1 0x1 PUSH1 0x1 PUSH1 0xA0 SHL SUB SWAP1 SWAP3 AND PUSH1 0x80 DUP4 ADD MSTORE POP PUSH1 0x0 PUSH1 0xA0 DUP3 ADD MSTORE SWAP1 JUMP JUMPDEST PUSH1 0x0 DUP1 DUP3 PUSH1 0x20 ADD MLOAD SGT DUP1 PUSH2 0x841 JUMPI POP DUP2 MLOAD PUSH1 0x0 SGT DUP1 ISZERO PUSH2 0x841 JUMPI POP POP PUSH1 0x60 ADD MLOAD ISZERO SWAP1 JUMP JUMPDEST DUP3 MLOAD PUSH1 0x40 DUP4 ADD MLOAD PUSH1 0x0 SWAP2 EQ PUSH2 0x217A JUMPI PUSH1 0x0 DUP1 REVERT JUMPDEST PUSH1 0x60 DUP4 ADD MLOAD PUSH2 0x2189 SWAP1 DUP4 PUSH2 0x2AA4 JUMP JUMPDEST PUSH1 0x60 DUP5 ADD MSTORE PUSH1 0x0 PUSH2 0x219A DUP6 DUP5 PUSH2 0x2AFB JUMP JUMPDEST SWAP3 POP SWAP1 POP PUSH2 0x21B5 PUSH2 0x21AA DUP3 PUSH2 0xBE7 JUMP JUMPDEST PUSH1 0xA0 DUP7 ADD MLOAD SWAP1 PUSH2 0xBFD JUMP JUMPDEST PUSH1 0xA0 SWAP1 SWAP5 ADD SWAP4 SWAP1 SWAP4 MSTORE SWAP4 SWAP3 POP POP POP JUMP JUMPDEST PUSH1 0x0 DUP1 DUP3 GT PUSH2 0x21D3 JUMPI PUSH1 0x0 DUP1 REVERT JUMPDEST DUP2 DUP4 DUP2 PUSH2 0x21DC JUMPI INVALID JUMPDEST DIV SWAP4 SWAP3 POP POP POP JUMP JUMPDEST DUP3 MLOAD PUSH1 0x0 SWAP1 PUSH2 0x21F8 SWAP1 PUSH2 0xF9E SWAP1 DUP5 SWAP1 PUSH2 0xB95 JUMP JUMPDEST SWAP1 POP PUSH2 0x2219 DUP2 PUSH2 0x1DAC DUP7 PUSH1 0x20 ADD MLOAD DUP8 PUSH1 0xA0 ADD MLOAD PUSH2 0xBFD SWAP1 SWAP2 SWAP1 PUSH4 0xFFFFFFFF AND JUMP JUMPDEST PUSH1 0xA0 DUP6 ADD MSTORE PUSH1 0x0 PUSH1 0x20 DUP1 DUP7 ADD SWAP2 SWAP1 SWAP2 MSTORE DUP5 MLOAD SWAP1 DUP5 ADD MLOAD PUSH2 0x2238 SWAP2 PUSH2 0xC13 JUMP JUMPDEST PUSH1 0x20 DUP5 ADD MSTORE PUSH1 0x0 DUP1 DUP6 MSTORE PUSH1 0xA0 DUP6 ADD MLOAD SLT ISZERO PUSH2 0x225C JUMPI PUSH1 0x60 DUP5 ADD MLOAD ISZERO PUSH2 0xC65 JUMPI PUSH1 0x0 DUP1 REVERT JUMPDEST PUSH1 0x80 DUP4 ADD MLOAD ISZERO PUSH2 0xCB5 JUMPI POP POP PUSH1 0x80 ADD DUP1 MLOAD PUSH1 0x0 NOT ADD SWAP1 MSTORE POP JUMP JUMPDEST PUSH1 0x40 DUP3 ADD MLOAD PUSH1 0x0 PUSH2 0x228A PUSH2 0xFFFF DUP4 AND PUSH2 0x10EA JUMP JUMPDEST SWAP1 POP PUSH1 0x0 PUSH2 0x22A5 PUSH2 0x229E DUP8 PUSH1 0xA0 ADD MLOAD PUSH2 0xB87 JUMP JUMPDEST DUP4 SWAP1 PUSH2 0x1B3E JUMP JUMPDEST SWAP1 POP PUSH1 0x0 DUP2 SLT ISZERO PUSH2 0x2302 JUMPI DUP4 ISZERO PUSH2 0x22DE JUMPI PUSH2 0x22D8 DUP4 PUSH2 0xFFFF AND DUP8 PUSH1 0x80 ADD MLOAD PUSH2 0x22CF PUSH2 0x3A9 DUP6 PUSH2 0xB87 JUMP JUMPDEST DUP6 SWAP3 SWAP2 SWAP1 PUSH2 0x2B52 JUMP JUMPDEST POP PUSH2 0x22F6 JUMP JUMPDEST PUSH1 0x80 DUP7 ADD MLOAD PUSH2 0x22F4 SWAP1 DUP4 SWAP1 PUSH2 0xFFFF DUP7 AND DUP5 PUSH2 0x2BE8 JUMP JUMPDEST POP JUMPDEST PUSH1 0x0 PUSH1 0xA0 DUP8 ADD MSTORE PUSH2 0x13BA JUMP JUMPDEST PUSH1 0x0 DUP5 ISZERO PUSH2 0x2364 JUMPI PUSH1 0x0 PUSH2 0x2319 DUP6 PUSH2 0xFFFF AND PUSH2 0x1B2B JUMP JUMPDEST SWAP1 POP PUSH2 0x2341 PUSH2 0x233A PUSH2 0x232E DUP11 PUSH1 0xA0 ADD MLOAD PUSH2 0xB87 JUMP JUMPDEST PUSH2 0x160 DUP11 ADD MLOAD SWAP1 PUSH2 0x1B76 JUMP JUMPDEST DUP3 SWAP1 PUSH2 0x2C90 JUMP JUMPDEST SWAP3 POP PUSH4 0x5F5E100 DUP2 PUSH1 0x40 ADD MLOAD SLT ISZERO PUSH2 0x235D JUMPI PUSH2 0x2710 SWAP2 POP PUSH2 0x2362 JUMP JUMPDEST PUSH1 0x64 SWAP2 POP JUMPDEST POP JUMPDEST PUSH2 0x237D DUP8 DUP9 PUSH1 0x80 ADD MLOAD DUP7 PUSH2 0x2377 DUP7 PUSH2 0xBD4 JUMP JUMPDEST DUP10 PUSH2 0x2CCC JUMP JUMPDEST DUP7 PUSH1 0xA0 ADD MLOAD PUSH1 0x0 SGT ISZERO DUP1 ISZERO PUSH2 0x2396 JUMPI POP DUP1 DUP8 PUSH1 0xA0 ADD MLOAD SGT ISZERO JUMPDEST PUSH2 0x239F JUMPI PUSH1 0x0 DUP1 REVERT JUMPDEST POP PUSH1 0x0 PUSH1 0xA0 DUP8 ADD MSTORE POP POP POP POP POP POP JUMP JUMPDEST PUSH1 0x0 PUSH2 0x23B9 PUSH2 0x2A62 JUMP JUMPDEST PUSH1 0x80 DUP5 ADD MLOAD PUSH1 0x1 PUSH1 0x1 PUSH1 0xA0 SHL SUB SWAP1 DUP2 AND PUSH1 0x0 SWAP1 DUP2 MSTORE PUSH1 0x20 DUP4 DUP2 MSTORE PUSH1 0x40 DUP1 DUP4 KECCAK256 DUP8 MLOAD SWAP1 SWAP5 AND DUP4 MSTORE SWAP3 SWAP1 MSTORE KECCAK256 PUSH1 0xA0 DUP6 ADD MLOAD SWAP2 SWAP3 POP SWAP1 ISZERO PUSH2 0x23F6 JUMPI PUSH1 0x0 DUP1 REVERT JUMPDEST DUP4 MLOAD ISZERO DUP1 PUSH2 0x2412 JUMPI POP DUP4 MLOAD PUSH2 0x240A SWAP1 PUSH2 0xB87 JUMP JUMPDEST DUP4 PUSH1 0x80 ADD MLOAD SGT ISZERO JUMPDEST PUSH2 0x242E JUMPI PUSH1 0x40 MLOAD PUSH3 0x461BCD PUSH1 0xE5 SHL DUP2 MSTORE PUSH1 0x4 ADD PUSH2 0x266 SWAP1 PUSH2 0x3C75 JUMP JUMPDEST PUSH2 0x243E PUSH2 0xD99 DUP6 PUSH1 0x0 ADD MLOAD PUSH2 0xB87 JUMP JUMPDEST DUP2 SLOAD PUSH10 0xFFFFFFFFFFFFFFFFFFFF NOT AND PUSH1 0x1 PUSH1 0x1 PUSH1 0x50 SHL SUB SWAP2 SWAP1 SWAP2 AND OR DUP2 SSTORE PUSH1 0x20 DUP5 ADD MLOAD PUSH2 0x246A SWAP1 PUSH2 0x1A63 JUMP JUMPDEST DUP2 SLOAD PUSH1 0x1 PUSH1 0x1 PUSH1 0x50 SHL SUB SWAP2 SWAP1 SWAP2 AND PUSH1 0x1 PUSH1 0x50 SHL MUL PUSH10 0xFFFFFFFFFFFFFFFFFFFF PUSH1 0x50 SHL NOT SWAP1 SWAP2 AND OR DUP2 SSTORE PUSH1 0x60 DUP5 ADD MLOAD PUSH2 0x24A1 SWAP1 PUSH2 0x1A85 JUMP JUMPDEST DUP2 SLOAD PUSH1 0x1 PUSH1 0x1 PUSH1 0x50 SHL SUB SWAP2 SWAP1 SWAP2 AND PUSH1 0x1 PUSH1 0xA0 SHL MUL PUSH10 0xFFFFFFFFFFFFFFFFFFFF PUSH1 0xA0 SHL NOT SWAP1 SWAP2 AND OR DUP2 SSTORE PUSH1 0x40 DUP5 ADD MLOAD PUSH1 0xA0 DUP5 ADD MLOAD PUSH1 0xC0 DUP6 ADD MLOAD PUSH2 0x24E4 SWAP3 SWAP2 SWAP1 PUSH2 0x2DA2 JUMP JUMPDEST DUP2 SLOAD PUSH2 0xFFFF SWAP2 SWAP1 SWAP2 AND PUSH1 0x1 PUSH1 0xF0 SHL MUL PUSH1 0x1 PUSH1 0x1 PUSH1 0xF0 SHL SUB SWAP1 SWAP2 AND OR SWAP1 SSTORE POP POP POP JUMP JUMPDEST PUSH1 0x0 DUP1 PUSH2 0x841 PUSH1 0x6 PUSH2 0x1FE6 JUMP JUMPDEST PUSH1 0x8 DUP2 SWAP1 SHR PUSH1 0xFF SWAP1 SWAP2 AND SHL SWAP1 JUMP JUMPDEST PUSH1 0x0 PUSH2 0x252B PUSH2 0x2506 JUMP JUMPDEST PUSH1 0x1 PUSH1 0x1 PUSH1 0xA0 SHL SUB DUP9 AND PUSH1 0x0 SWAP1 DUP2 MSTORE PUSH1 0x20 DUP3 DUP2 MSTORE PUSH1 0x40 DUP1 DUP4 KECCAK256 DUP11 DUP5 MSTORE SWAP1 SWAP2 MSTORE SWAP1 KECCAK256 SWAP1 SWAP2 POP PUSH11 0x7FFFFFFFFFFFFFFFFFFFFF NOT DUP7 SLT DUP1 ISZERO SWAP1 PUSH2 0x2576 JUMPI POP PUSH11 0x7FFFFFFFFFFFFFFFFFFFFF DUP7 SGT ISZERO JUMPDEST PUSH2 0x257F JUMPI PUSH1 0x0 DUP1 REVERT JUMPDEST PUSH1 0x0 DUP6 SLT ISZERO DUP1 ISZERO PUSH2 0x2597 JUMPI POP PUSH1 0x1 PUSH1 0x1 PUSH1 0x50 SHL SUB DUP6 SGT ISZERO JUMPDEST PUSH2 0x25A0 JUMPI PUSH1 0x0 DUP1 REVERT JUMPDEST DUP4 PUSH2 0x25E0 JUMPI PUSH7 0xFFFFFFFFFFFFFF DUP4 GT ISZERO PUSH2 0x25B9 JUMPI PUSH1 0x0 DUP1 REVERT JUMPDEST DUP1 SLOAD PUSH7 0xFFFFFFFFFFFFFF PUSH1 0x70 SHL NOT AND PUSH1 0x1 PUSH1 0x70 SHL PUSH7 0xFFFFFFFFFFFFFF DUP6 AND MUL OR DUP2 SSTORE PUSH2 0x25FA JUMP JUMPDEST DUP1 SLOAD PUSH1 0x1 PUSH1 0x50 SHL SWAP1 DIV PUSH4 0xFFFFFFFF AND DUP5 EQ PUSH2 0x25FA JUMPI PUSH1 0x0 DUP1 REVERT JUMPDEST DUP1 SLOAD PUSH1 0xA SWAP7 SWAP1 SWAP7 SIGNEXTEND PUSH11 0xFFFFFFFFFFFFFFFFFFFFFF AND PUSH1 0x1 PUSH1 0xA8 SHL MUL PUSH1 0x1 PUSH1 0x1 PUSH1 0xA8 SHL SUB PUSH1 0x1 PUSH1 0x1 PUSH1 0x50 SHL SUB SWAP1 SWAP7 AND PUSH10 0xFFFFFFFFFFFFFFFFFFFF NOT PUSH4 0xFFFFFFFF SWAP1 SWAP7 AND PUSH1 0x1 PUSH1 0x50 SHL MUL PUSH4 0xFFFFFFFF PUSH1 0x50 SHL NOT SWAP1 SWAP9 AND SWAP8 SWAP1 SWAP8 OR SWAP5 SWAP1 SWAP5 AND SWAP6 SWAP1 SWAP6 OR SWAP4 SWAP1 SWAP4 AND SWAP2 SWAP1 SWAP2 OR SWAP1 SWAP3 SSTORE POP POP POP POP JUMP JUMPDEST PUSH1 0x0 DUP1 PUSH1 0x0 DUP1 PUSH1 0x0 PUSH2 0x267C DUP7 PUSH2 0x1FFF JUMP JUMPDEST SWAP1 SWAP3 POP SWAP1 POP PUSH1 0x0 PUSH1 0x1 PUSH1 0x1 PUSH1 0xA0 SHL SUB DUP4 AND PUSH2 0x26A1 JUMPI POP PUSH1 0x0 SWAP1 POP PUSH5 0x2540BE400 PUSH2 0x1767 JUMP JUMPDEST DUP3 PUSH1 0x1 PUSH1 0x1 PUSH1 0xA0 SHL SUB AND PUSH4 0xB2FFFB04 PUSH1 0x40 MLOAD DUP2 PUSH4 0xFFFFFFFF AND PUSH1 0xE0 SHL DUP2 MSTORE PUSH1 0x4 ADD PUSH1 0x20 PUSH1 0x40 MLOAD DUP1 DUP4 SUB DUP2 DUP7 DUP1 EXTCODESIZE ISZERO DUP1 ISZERO PUSH2 0x26DA JUMPI PUSH1 0x0 DUP1 REVERT JUMPDEST POP GAS STATICCALL ISZERO DUP1 ISZERO PUSH2 0x1734 JUMPI RETURNDATASIZE PUSH1 0x0 DUP1 RETURNDATACOPY RETURNDATASIZE PUSH1 0x0 REVERT JUMPDEST PUSH1 0x0 DUP1 PUSH2 0x841 PUSH1 0x7 PUSH2 0x1FE6 JUMP JUMPDEST PUSH1 0x0 PUSH2 0x841 PUSH2 0x2708 PUSH2 0x2DF8 JUMP JUMPDEST SLOAD PUSH1 0x40 MLOAD PUSH4 0xD15E0053 PUSH1 0xE0 SHL DUP2 MSTORE PUSH1 0x1 PUSH1 0x1 PUSH1 0xA0 SHL SUB SWAP1 SWAP2 AND SWAP1 PUSH4 0xD15E0053 SWAP1 PUSH2 0x2736 SWAP1 DUP7 SWAP1 PUSH1 0x4 ADD PUSH2 0x3A7C JUMP JUMPDEST PUSH1 0x20 PUSH1 0x40 MLOAD DUP1 DUP4 SUB DUP2 DUP7 DUP1 EXTCODESIZE ISZERO DUP1 ISZERO PUSH2 0x274E JUMPI PUSH1 0x0 DUP1 REVERT JUMPDEST POP GAS STATICCALL ISZERO DUP1 ISZERO PUSH2 0x2762 JUMPI RETURNDATASIZE PUSH1 0x0 DUP1 RETURNDATACOPY RETURNDATASIZE PUSH1 0x0 REVERT JUMPDEST POP POP POP POP PUSH1 0x40 MLOAD RETURNDATASIZE PUSH1 0x1F NOT PUSH1 0x1F DUP3 ADD AND DUP3 ADD DUP1 PUSH1 0x40 MSTORE POP DUP2 ADD SWAP1 PUSH2 0x1849 SWAP2 SWAP1 PUSH2 0x39A4 JUMP JUMPDEST PUSH1 0x0 DUP1 DUP3 SLT ISZERO PUSH2 0x27A0 JUMPI PUSH2 0x2799 DUP3 PUSH2 0xB87 JUMP JUMPDEST SWAP1 POP PUSH2 0x4FA JUMP JUMPDEST POP DUP1 PUSH2 0x4FA JUMP JUMPDEST PUSH1 0x0 PUSH2 0x27B1 PUSH2 0x36F1 JUMP JUMPDEST RETURNDATASIZE DUP1 ISZERO PUSH2 0x27C5 JUMPI PUSH1 0x20 DUP2 EQ PUSH2 0x27CE JUMPI PUSH1 0x0 DUP1 REVERT JUMPDEST PUSH1 0x1 SWAP3 POP PUSH2 0x27D9 JUMP JUMPDEST PUSH1 0x20 PUSH1 0x0 DUP4 RETURNDATACOPY DUP2 MLOAD SWAP3 POP JUMPDEST POP DUP2 PUSH2 0xCB8 JUMPI PUSH1 0x40 DUP1 MLOAD PUSH3 0x461BCD PUSH1 0xE5 SHL DUP2 MSTORE PUSH1 0x20 PUSH1 0x4 DUP3 ADD MSTORE PUSH1 0x5 PUSH1 0x24 DUP3 ADD MSTORE PUSH5 0x455243323 PUSH1 0xDC SHL PUSH1 0x44 DUP3 ADD MSTORE SWAP1 MLOAD SWAP1 DUP2 SWAP1 SUB PUSH1 0x64 ADD SWAP1 REVERT JUMPDEST PUSH1 0x0 DUP1 DUP3 PUSH2 0x2827 JUMPI POP PUSH1 0x0 SWAP1 POP DUP1 PUSH2 0x28FE JUMP JUMPDEST PUSH1 0x0 DUP1 PUSH2 0x2834 DUP8 DUP7 PUSH2 0x2036 JUMP JUMPDEST SWAP2 POP SWAP2 POP PUSH1 0x0 DUP7 PUSH1 0x0 ADD MLOAD PUSH1 0x1 PUSH1 0x1 PUSH1 0xA0 SHL SUB AND PUSH4 0x52CFBE19 DUP4 PUSH1 0x40 MLOAD DUP3 PUSH4 0xFFFFFFFF AND PUSH1 0xE0 SHL DUP2 MSTORE PUSH1 0x4 ADD PUSH2 0x286A SWAP2 SWAP1 PUSH2 0x3AFB JUMP JUMPDEST PUSH1 0x20 PUSH1 0x40 MLOAD DUP1 DUP4 SUB DUP2 DUP7 DUP1 EXTCODESIZE ISZERO DUP1 ISZERO PUSH2 0x2882 JUMPI PUSH1 0x0 DUP1 REVERT JUMPDEST POP GAS STATICCALL ISZERO DUP1 ISZERO PUSH2 0x2896 JUMPI RETURNDATASIZE PUSH1 0x0 DUP1 RETURNDATACOPY RETURNDATASIZE PUSH1 0x0 REVERT JUMPDEST POP POP POP POP PUSH1 0x40 MLOAD RETURNDATASIZE PUSH1 0x1F NOT PUSH1 0x1F DUP3 ADD AND DUP3 ADD DUP1 PUSH1 0x40 MSTORE POP DUP2 ADD SWAP1 PUSH2 0x28BA SWAP2 SWAP1 PUSH2 0x39A4 JUMP JUMPDEST SWAP1 POP PUSH2 0x28C5 DUP4 PUSH2 0xBE7 JUMP JUMPDEST SWAP4 POP PUSH2 0x28F8 DUP5 PUSH2 0xF98 PUSH2 0x28EC DUP11 PUSH2 0x160 ADD MLOAD PUSH1 0x40 ADD MLOAD PUSH2 0xBC6 PUSH4 0x5F5E100 PUSH2 0xBC0 DUP9 PUSH2 0xBE7 JUMP JUMPDEST PUSH2 0x160 DUP12 ADD MLOAD SWAP1 PUSH2 0xB95 JUMP JUMPDEST SWAP5 POP POP POP POP JUMPDEST SWAP4 POP SWAP4 SWAP2 POP POP JUMP JUMPDEST PUSH1 0x0 PUSH2 0x511 PUSH2 0x2919 DUP5 PUSH4 0x3B9ACA00 PUSH2 0x18CB JUMP JUMPDEST DUP4 PUSH2 0x1919 JUMP JUMPDEST PUSH1 0x0 DUP2 PUSH2 0x292E JUMPI POP PUSH1 0x0 PUSH2 0x841 JUMP JUMPDEST PUSH1 0x0 DUP3 SGT PUSH2 0x293B JUMPI PUSH1 0x0 DUP1 REVERT JUMPDEST PUSH1 0x0 PUSH2 0x2946 DUP5 PUSH2 0x1B2B JUMP JUMPDEST SWAP1 POP PUSH1 0x0 PUSH2 0x2957 DUP3 PUSH1 0x0 ADD MLOAD PUSH2 0x26FB JUMP JUMPDEST SWAP1 POP PUSH1 0x2 DUP2 SDIV PUSH12 0x33B2E3C9FD0803CE8000000 PUSH1 0x1 PUSH1 0x1 PUSH1 0xFF SHL SUB DUP3 SWAP1 SUB SDIV DUP6 SGT ISZERO PUSH2 0x2982 JUMPI PUSH1 0x0 DUP1 REVERT JUMPDEST DUP2 DUP2 PUSH12 0x33B2E3C9FD0803CE8000000 DUP8 MUL ADD DUP2 PUSH2 0x299B JUMPI INVALID JUMPDEST SDIV SWAP7 SWAP6 POP POP POP POP POP POP JUMP JUMPDEST PUSH1 0x0 DUP1 PUSH2 0x841 PUSH1 0xF PUSH2 0x1FE6 JUMP JUMPDEST PUSH1 0x0 DUP3 PUSH2 0x29C2 JUMPI POP PUSH1 0x0 PUSH2 0x841 JUMP JUMPDEST DUP3 DUP3 MUL DUP3 DUP5 DUP3 DUP2 PUSH2 0x29CF JUMPI INVALID JUMPDEST DIV EQ PUSH2 0x511 JUMPI PUSH1 0x40 MLOAD PUSH3 0x461BCD PUSH1 0xE5 SHL DUP2 MSTORE PUSH1 0x4 ADD DUP1 DUP1 PUSH1 0x20 ADD DUP3 DUP2 SUB DUP3 MSTORE PUSH1 0x21 DUP2 MSTORE PUSH1 0x20 ADD DUP1 PUSH2 0x4098 PUSH1 0x21 SWAP2 CODECOPY PUSH1 0x40 ADD SWAP2 POP POP PUSH1 0x40 MLOAD DUP1 SWAP2 SUB SWAP1 REVERT JUMPDEST PUSH1 0x0 DUP1 DUP3 GT PUSH2 0x21D3 JUMPI PUSH1 0x40 DUP1 MLOAD PUSH3 0x461BCD PUSH1 0xE5 SHL DUP2 MSTORE PUSH1 0x20 PUSH1 0x4 DUP3 ADD MSTORE PUSH1 0x1A PUSH1 0x24 DUP3 ADD MSTORE PUSH32 0x536166654D6174683A206469766973696F6E206279207A65726F000000000000 PUSH1 0x44 DUP3 ADD MSTORE SWAP1 MLOAD SWAP1 DUP2 SWAP1 SUB PUSH1 0x64 ADD SWAP1 REVERT JUMPDEST PUSH1 0x0 DUP1 PUSH2 0x841 PUSH1 0x16 PUSH2 0x1FE6 JUMP JUMPDEST PUSH1 0x0 DUP4 PUSH2 0x2A7E JUMPI POP PUSH1 0x0 PUSH2 0x511 JUMP JUMPDEST PUSH1 0x0 PUSH2 0x2A8E PUSH4 0x61CBA500 DUP5 PUSH2 0x2E05 JUMP JUMPDEST SWAP1 POP PUSH2 0xF51 DUP2 PUSH2 0x2A9E DUP8 DUP8 PUSH2 0x29B3 JUMP JUMPDEST SWAP1 PUSH2 0x2E05 JUMP JUMPDEST PUSH1 0x0 DUP3 DUP3 GT ISZERO PUSH2 0x136C JUMPI PUSH1 0x40 DUP1 MLOAD PUSH3 0x461BCD PUSH1 0xE5 SHL DUP2 MSTORE PUSH1 0x20 PUSH1 0x4 DUP3 ADD MSTORE PUSH1 0x1E PUSH1 0x24 DUP3 ADD MSTORE PUSH32 0x536166654D6174683A207375627472616374696F6E206F766572666C6F770000 PUSH1 0x44 DUP3 ADD MSTORE SWAP1 MLOAD SWAP1 DUP2 SWAP1 SUB PUSH1 0x64 ADD SWAP1 REVERT JUMPDEST PUSH1 0x0 DUP1 PUSH2 0x2B08 DUP5 DUP5 PUSH2 0x2036 JUMP JUMPDEST PUSH1 0xC0 DUP7 ADD MLOAD SWAP2 SWAP4 POP SWAP2 POP PUSH2 0x2B1C SWAP1 DUP4 PUSH2 0x2AA4 JUMP JUMPDEST PUSH1 0xC0 DUP6 ADD MSTORE PUSH1 0xE0 DUP5 ADD MLOAD PUSH2 0x2B30 SWAP1 DUP3 PUSH2 0x2AA4 JUMP JUMPDEST PUSH1 0xE0 DUP6 ADD MSTORE PUSH1 0xA0 DUP5 ADD MLOAD PUSH2 0x2B44 SWAP1 DUP5 PUSH2 0x2AA4 JUMP JUMPDEST PUSH1 0xA0 SWAP1 SWAP5 ADD SWAP4 SWAP1 SWAP4 MSTORE SWAP3 SWAP1 POP JUMP JUMPDEST PUSH1 0x0 DUP1 PUSH1 0x2 DUP7 PUSH1 0x60 ADD MLOAD PUSH1 0x5 DUP2 GT ISZERO PUSH2 0x2B67 JUMPI INVALID JUMPDEST EQ ISZERO PUSH2 0x2B7F JUMPI PUSH2 0x2B78 DUP7 DUP6 DUP6 PUSH2 0x2E5F JUMP JUMPDEST SWAP1 POP PUSH2 0x2BDC JUMP JUMPDEST PUSH1 0x0 PUSH2 0x2B8A DUP7 PUSH2 0x1B2B JUMP JUMPDEST SWAP1 POP PUSH1 0x5 DUP8 PUSH1 0x60 ADD MLOAD PUSH1 0x5 DUP2 GT ISZERO PUSH2 0x2B9E JUMPI INVALID JUMPDEST EQ ISZERO PUSH2 0x2BB6 JUMPI PUSH2 0x2BAF DUP2 DUP7 DUP7 PUSH2 0x2F26 JUMP JUMPDEST SWAP2 POP PUSH2 0x2BDA JUMP JUMPDEST PUSH1 0x1 DUP8 PUSH1 0x60 ADD MLOAD PUSH1 0x5 DUP2 GT ISZERO PUSH2 0x2BC8 JUMPI INVALID JUMPDEST EQ ISZERO PUSH2 0xF5 JUMPI PUSH2 0x2BAF DUP8 DUP3 DUP8 DUP8 PUSH2 0x2FD7 JUMP JUMPDEST POP JUMPDEST PUSH2 0x1CD7 PUSH2 0xF9E DUP3 PUSH2 0xBE7 JUMP JUMPDEST DUP1 PUSH1 0x5 DUP6 PUSH1 0x60 ADD MLOAD PUSH1 0x5 DUP2 GT ISZERO PUSH2 0x2BFB JUMPI INVALID JUMPDEST EQ ISZERO PUSH2 0x2C20 JUMPI PUSH1 0x0 PUSH2 0x2C0C DUP5 PUSH2 0x1B2B JUMP JUMPDEST SWAP1 POP PUSH2 0x2C1C DUP2 PUSH1 0x0 ADD MLOAD DUP5 PUSH2 0x1C4F JUMP JUMPDEST SWAP3 POP POP JUMPDEST PUSH1 0x0 DUP3 SGT ISZERO PUSH2 0x2C4C JUMPI PUSH1 0x0 PUSH2 0x2C36 DUP7 DUP7 DUP6 PUSH2 0x30D5 JUMP JUMPDEST SWAP1 POP DUP6 PUSH1 0x20 ADD MLOAD ISZERO PUSH2 0x2C46 JUMPI DUP1 SWAP2 POP JUMPDEST POP PUSH2 0xBCC JUMP JUMPDEST PUSH1 0x3 DUP6 PUSH1 0x60 ADD MLOAD PUSH1 0x5 DUP2 GT ISZERO PUSH2 0x2C5E JUMPI INVALID JUMPDEST EQ ISZERO PUSH2 0x2C7B JUMPI PUSH2 0x2C76 DUP5 PUSH2 0x2C71 DUP5 PUSH2 0xB87 JUMP JUMPDEST PUSH2 0x31BE JUMP JUMPDEST PUSH2 0xBCC JUMP JUMPDEST DUP5 MLOAD PUSH2 0xBCC SWAP1 DUP6 PUSH2 0x2C8B DUP6 PUSH2 0xB87 JUMP JUMPDEST PUSH2 0x1CE1 JUMP JUMPDEST PUSH1 0x0 PUSH4 0x5F5E100 DUP4 PUSH1 0x40 ADD MLOAD SLT ISZERO PUSH2 0x2CB8 JUMPI PUSH2 0x2CB1 PUSH1 0x1 PUSH2 0xF98 DUP6 DUP6 PUSH2 0x1B3E JUMP JUMPDEST SWAP1 POP PUSH2 0x841 JUMP JUMPDEST PUSH2 0x511 DUP4 PUSH2 0x2CC7 DUP5 PUSH1 0x1 PUSH2 0xBFD JUMP JUMPDEST PUSH2 0x1B3E JUMP JUMPDEST DUP2 PUSH2 0x2CD6 JUMPI PUSH2 0xD15 JUMP JUMPDEST PUSH1 0x0 PUSH2 0x2CE1 DUP4 PUSH2 0xBE7 JUMP JUMPDEST SWAP1 POP PUSH1 0x0 PUSH2 0x2CF2 DUP6 PUSH2 0xFFFF AND PUSH2 0x10EA JUMP JUMPDEST SWAP1 POP PUSH1 0x0 DUP4 ISZERO PUSH2 0x2D3F JUMPI PUSH1 0x0 PUSH2 0x2D0B DUP8 PUSH2 0xFFFF AND PUSH2 0x1B2B JUMP JUMPDEST SWAP1 POP PUSH1 0x0 PUSH2 0x2D1F DUP3 DUP11 PUSH2 0xFFFF DUP12 AND DUP9 PUSH2 0x2BE8 JUMP JUMPDEST SWAP1 POP PUSH2 0x2D36 DUP9 PUSH2 0x2D2E DUP4 PUSH2 0xBD4 JUMP JUMPDEST DUP7 SWAP2 SWAP1 PUSH2 0x31F4 JUMP JUMPDEST SWAP3 POP POP POP PUSH2 0x2D7B JUMP JUMPDEST PUSH1 0x5 DUP3 PUSH1 0x60 ADD MLOAD PUSH1 0x5 DUP2 GT ISZERO PUSH2 0x2D51 JUMPI INVALID JUMPDEST EQ ISZERO PUSH2 0x2D68 JUMPI PUSH2 0x2D65 DUP7 PUSH2 0xFFFF AND DUP5 PUSH2 0x291F JUMP JUMPDEST SWAP3 POP JUMPDEST PUSH2 0x2D78 DUP3 DUP9 PUSH2 0xFFFF DUP10 AND DUP7 PUSH2 0x2BE8 JUMP JUMPDEST SWAP1 POP JUMPDEST PUSH2 0x2D93 PUSH2 0x2D88 DUP4 DUP4 PUSH2 0x10FD JUMP JUMPDEST PUSH1 0xA0 DUP11 ADD MLOAD SWAP1 PUSH2 0xBFD JUMP JUMPDEST PUSH1 0xA0 DUP10 ADD MSTORE POP POP POP POP POP POP POP POP JUMP JUMPDEST PUSH1 0x0 DUP4 PUSH2 0x2DB1 JUMPI POP PUSH1 0x0 PUSH2 0x511 JUMP JUMPDEST DUP3 DUP5 DUP2 PUSH2 0x2DBA JUMPI INVALID JUMPDEST MOD ISZERO PUSH2 0x2DC5 JUMPI PUSH1 0x0 DUP1 REVERT JUMPDEST PUSH1 0x0 PUSH2 0x2DD5 PUSH4 0x61CBA500 DUP5 PUSH2 0x2E05 JUMP JUMPDEST SWAP1 POP PUSH1 0x0 PUSH2 0x2DE7 DUP6 PUSH2 0x2058 DUP9 DUP6 PUSH2 0x2AA4 JUMP JUMPDEST SWAP1 POP PUSH2 0xFFFF DUP2 GT ISZERO PUSH2 0xF51 JUMPI PUSH1 0x0 DUP1 REVERT JUMPDEST PUSH1 0x0 DUP1 PUSH2 0x841 PUSH1 0x13 PUSH2 0x1FE6 JUMP JUMPDEST PUSH1 0x0 DUP3 DUP3 ADD DUP4 DUP2 LT ISZERO PUSH2 0x511 JUMPI PUSH1 0x40 DUP1 MLOAD PUSH3 0x461BCD PUSH1 0xE5 SHL DUP2 MSTORE PUSH1 0x20 PUSH1 0x4 DUP3 ADD MSTORE PUSH1 0x1B PUSH1 0x24 DUP3 ADD MSTORE PUSH32 0x536166654D6174683A206164646974696F6E206F766572666C6F770000000000 PUSH1 0x44 DUP3 ADD MSTORE SWAP1 MLOAD SWAP1 DUP2 SWAP1 SUB PUSH1 0x64 ADD SWAP1 REVERT JUMPDEST DUP3 MLOAD PUSH1 0x40 MLOAD PUSH4 0xDB006A75 PUSH1 0xE0 SHL DUP2 MSTORE PUSH1 0x0 SWAP2 SELFBALANCE SWAP2 DUP4 SWAP2 PUSH1 0x1 PUSH1 0x1 PUSH1 0xA0 SHL SUB AND SWAP1 PUSH4 0xDB006A75 SWAP1 PUSH2 0x2E93 SWAP1 DUP8 SWAP1 PUSH1 0x4 ADD PUSH2 0x3AFB JUMP JUMPDEST PUSH1 0x20 PUSH1 0x40 MLOAD DUP1 DUP4 SUB DUP2 PUSH1 0x0 DUP8 DUP1 EXTCODESIZE ISZERO DUP1 ISZERO PUSH2 0x2EAD JUMPI PUSH1 0x0 DUP1 REVERT JUMPDEST POP GAS CALL ISZERO DUP1 ISZERO PUSH2 0x2EC1 JUMPI RETURNDATASIZE PUSH1 0x0 DUP1 RETURNDATACOPY RETURNDATASIZE PUSH1 0x0 REVERT JUMPDEST POP POP POP POP PUSH1 0x40 MLOAD RETURNDATASIZE PUSH1 0x1F NOT PUSH1 0x1F DUP3 ADD AND DUP3 ADD DUP1 PUSH1 0x40 MSTORE POP DUP2 ADD SWAP1 PUSH2 0x2EE5 SWAP2 SWAP1 PUSH2 0x39A4 JUMP JUMPDEST SWAP1 POP DUP1 ISZERO PUSH2 0x2F05 JUMPI PUSH1 0x40 MLOAD PUSH3 0x461BCD PUSH1 0xE5 SHL DUP2 MSTORE PUSH1 0x4 ADD PUSH2 0x266 SWAP1 PUSH2 0x3B7B JUMP JUMPDEST SELFBALANCE PUSH2 0x2F10 DUP2 DUP5 PUSH2 0x2AA4 JUMP JUMPDEST SWAP4 POP PUSH2 0x2F1C DUP7 DUP6 PUSH2 0x31BE JUMP JUMPDEST POP POP POP SWAP4 SWAP3 POP POP POP JUMP JUMPDEST PUSH1 0x0 PUSH2 0x2F41 PUSH2 0x3A9 DUP6 PUSH1 0x0 ADD MLOAD PUSH2 0x2F3C DUP6 PUSH2 0xBE7 JUMP JUMPDEST PUSH2 0x1C4F JUMP JUMPDEST SWAP1 POP PUSH2 0x2F4B PUSH2 0x2DF8 JUMP JUMPDEST SLOAD DUP5 MLOAD PUSH1 0x40 MLOAD PUSH4 0x1A4CA37B PUSH1 0xE2 SHL DUP2 MSTORE PUSH1 0x1 PUSH1 0x1 PUSH1 0xA0 SHL SUB SWAP1 SWAP3 AND SWAP2 PUSH4 0x69328DEC SWAP2 PUSH2 0x2F7D SWAP2 DUP6 SWAP1 DUP9 SWAP1 PUSH1 0x4 ADD PUSH2 0x3AAB JUMP JUMPDEST PUSH1 0x20 PUSH1 0x40 MLOAD DUP1 DUP4 SUB DUP2 PUSH1 0x0 DUP8 DUP1 EXTCODESIZE ISZERO DUP1 ISZERO PUSH2 0x2F97 JUMPI PUSH1 0x0 DUP1 REVERT JUMPDEST POP GAS CALL ISZERO DUP1 ISZERO PUSH2 0x2FAB JUMPI RETURNDATASIZE PUSH1 0x0 DUP1 RETURNDATACOPY RETURNDATASIZE PUSH1 0x0 REVERT JUMPDEST POP POP POP POP PUSH1 0x40 MLOAD RETURNDATASIZE PUSH1 0x1F NOT PUSH1 0x1F DUP3 ADD AND DUP3 ADD DUP1 PUSH1 0x40 MSTORE POP DUP2 ADD SWAP1 PUSH2 0x2FCF SWAP2 SWAP1 PUSH2 0x39A4 JUMP JUMPDEST POP SWAP4 SWAP3 POP POP POP JUMP JUMPDEST DUP3 MLOAD PUSH1 0x0 SWAP1 DUP2 SWAP1 PUSH2 0x2FF0 SWAP1 ADDRESS PUSH4 0x70A08231 PUSH1 0xE0 SHL PUSH2 0x32E5 JUMP JUMPDEST SWAP1 POP PUSH1 0x0 DUP7 PUSH1 0x0 ADD MLOAD PUSH1 0x1 PUSH1 0x1 PUSH1 0xA0 SHL SUB AND PUSH4 0xDB006A75 DUP6 PUSH1 0x40 MLOAD DUP3 PUSH4 0xFFFFFFFF AND PUSH1 0xE0 SHL DUP2 MSTORE PUSH1 0x4 ADD PUSH2 0x3024 SWAP2 SWAP1 PUSH2 0x3AFB JUMP JUMPDEST PUSH1 0x20 PUSH1 0x40 MLOAD DUP1 DUP4 SUB DUP2 PUSH1 0x0 DUP8 DUP1 EXTCODESIZE ISZERO DUP1 ISZERO PUSH2 0x303E JUMPI PUSH1 0x0 DUP1 REVERT JUMPDEST POP GAS CALL ISZERO DUP1 ISZERO PUSH2 0x3052 JUMPI RETURNDATASIZE PUSH1 0x0 DUP1 RETURNDATACOPY RETURNDATASIZE PUSH1 0x0 REVERT JUMPDEST POP POP POP POP PUSH1 0x40 MLOAD RETURNDATASIZE PUSH1 0x1F NOT PUSH1 0x1F DUP3 ADD AND DUP3 ADD DUP1 PUSH1 0x40 MSTORE POP DUP2 ADD SWAP1 PUSH2 0x3076 SWAP2 SWAP1 PUSH2 0x39A4 JUMP JUMPDEST SWAP1 POP DUP1 ISZERO PUSH2 0x3096 JUMPI PUSH1 0x40 MLOAD PUSH3 0x461BCD PUSH1 0xE5 SHL DUP2 MSTORE PUSH1 0x4 ADD PUSH2 0x266 SWAP1 PUSH2 0x3B7B JUMP JUMPDEST DUP6 MLOAD PUSH1 0x0 SWAP1 PUSH2 0x30AD SWAP1 ADDRESS PUSH4 0x70A08231 PUSH1 0xE0 SHL PUSH2 0x32E5 JUMP JUMPDEST SWAP1 POP PUSH2 0x30B9 DUP2 DUP5 PUSH2 0x2AA4 JUMP JUMPDEST SWAP4 POP PUSH2 0x30CA DUP8 PUSH1 0x0 ADD MLOAD DUP8 DUP7 PUSH2 0x1CE1 JUMP JUMPDEST POP POP POP SWAP5 SWAP4 POP POP POP POP JUMP JUMPDEST PUSH1 0x0 DUP1 DUP1 DUP1 PUSH1 0x5 DUP8 PUSH1 0x60 ADD MLOAD PUSH1 0x5 DUP2 GT ISZERO PUSH2 0x30EC JUMPI INVALID JUMPDEST EQ PUSH2 0x30FE JUMPI PUSH4 0x70A08231 PUSH1 0xE0 SHL PUSH2 0x3107 JUMP JUMPDEST PUSH4 0xED1279F PUSH1 0xE1 SHL JUMPDEST SWAP1 POP DUP7 PUSH1 0x20 ADD MLOAD ISZERO PUSH2 0x3123 JUMPI DUP7 MLOAD PUSH2 0x3120 SWAP1 ADDRESS DUP4 PUSH2 0x32E5 JUMP JUMPDEST SWAP3 POP JUMPDEST DUP7 MLOAD PUSH2 0x3130 SWAP1 DUP8 DUP8 PUSH2 0x33F7 JUMP JUMPDEST DUP7 PUSH1 0x20 ADD MLOAD DUP1 PUSH2 0x3144 JUMPI POP PUSH1 0x0 DUP8 PUSH1 0x80 ADD MLOAD GT JUMPDEST ISZERO PUSH2 0x3159 JUMPI DUP7 MLOAD PUSH2 0x3156 SWAP1 ADDRESS DUP4 PUSH2 0x32E5 JUMP JUMPDEST SWAP2 POP JUMPDEST PUSH1 0x80 DUP8 ADD MLOAD ISZERO PUSH2 0x3194 JUMPI PUSH1 0x0 PUSH2 0x3177 DUP9 PUSH2 0x3172 DUP6 PUSH2 0xBE7 JUMP JUMPDEST PUSH2 0x10FD JUMP JUMPDEST SWAP1 POP PUSH2 0x3186 DUP9 PUSH1 0x80 ADD MLOAD PUSH2 0xBE7 JUMP JUMPDEST DUP2 SGT ISZERO PUSH2 0x3192 JUMPI PUSH1 0x0 DUP1 REVERT JUMPDEST POP JUMPDEST DUP7 PUSH1 0x20 ADD MLOAD ISZERO PUSH2 0x31B5 JUMPI PUSH2 0x31AB PUSH2 0x1849 DUP4 DUP6 PUSH2 0x2AA4 JUMP JUMPDEST SWAP4 POP POP POP POP PUSH2 0x511 JUMP JUMPDEST PUSH2 0x31AB DUP6 PUSH2 0xBE7 JUMP JUMPDEST PUSH1 0x40 MLOAD PUSH1 0x1 PUSH1 0x1 PUSH1 0xA0 SHL SUB DUP4 AND SWAP1 DUP3 ISZERO PUSH2 0x8FC MUL SWAP1 DUP4 SWAP1 PUSH1 0x0 DUP2 DUP2 DUP2 DUP6 DUP9 DUP9 CALL SWAP4 POP POP POP POP ISZERO DUP1 ISZERO PUSH2 0x1D58 JUMPI RETURNDATASIZE PUSH1 0x0 DUP1 RETURNDATACOPY RETURNDATASIZE PUSH1 0x0 REVERT JUMPDEST PUSH1 0x0 DUP1 PUSH1 0x5 DUP6 PUSH1 0x60 ADD MLOAD PUSH1 0x5 DUP2 GT ISZERO PUSH2 0x3209 JUMPI INVALID JUMPDEST EQ PUSH2 0x321B JUMPI PUSH4 0x70A08231 PUSH1 0xE0 SHL PUSH2 0x3224 JUMP JUMPDEST PUSH4 0xED1279F PUSH1 0xE1 SHL JUMPDEST SWAP1 POP PUSH1 0x0 PUSH2 0x3237 DUP7 PUSH1 0x0 ADD MLOAD ADDRESS DUP5 PUSH2 0x32E5 JUMP JUMPDEST SWAP1 POP PUSH1 0x5 DUP7 PUSH1 0x60 ADD MLOAD PUSH1 0x5 DUP2 GT ISZERO PUSH2 0x324B JUMPI INVALID JUMPDEST EQ ISZERO PUSH2 0x3272 JUMPI PUSH1 0x0 PUSH2 0x3260 DUP7 PUSH2 0xFFFF AND PUSH2 0x1B2B JUMP JUMPDEST SWAP1 POP PUSH2 0x326C DUP2 DUP7 PUSH2 0x344F JUMP JUMPDEST POP PUSH2 0x32BA JUMP JUMPDEST PUSH1 0x1 DUP7 PUSH1 0x60 ADD MLOAD PUSH1 0x5 DUP2 GT ISZERO PUSH2 0x3284 JUMPI INVALID JUMPDEST EQ ISZERO PUSH2 0x3299 JUMPI PUSH2 0x3294 DUP7 DUP6 PUSH2 0x34BA JUMP JUMPDEST PUSH2 0x32BA JUMP JUMPDEST PUSH1 0x2 DUP7 PUSH1 0x60 ADD MLOAD PUSH1 0x5 DUP2 GT ISZERO PUSH2 0x32AB JUMPI INVALID JUMPDEST EQ ISZERO PUSH2 0xF5 JUMPI PUSH2 0x3294 DUP7 PUSH2 0x355C JUMP JUMPDEST PUSH1 0x0 PUSH2 0x32CB DUP8 PUSH1 0x0 ADD MLOAD ADDRESS DUP6 PUSH2 0x32E5 JUMP JUMPDEST SWAP1 POP PUSH2 0x32DA PUSH2 0x1849 DUP3 DUP5 PUSH2 0x2AA4 JUMP JUMPDEST SWAP8 SWAP7 POP POP POP POP POP POP POP JUMP JUMPDEST PUSH1 0x40 DUP1 MLOAD PUSH1 0x1 PUSH1 0x1 PUSH1 0xA0 SHL SUB DUP5 DUP2 AND PUSH1 0x24 DUP1 DUP5 ADD SWAP2 SWAP1 SWAP2 MSTORE DUP4 MLOAD DUP1 DUP5 SUB SWAP1 SWAP2 ADD DUP2 MSTORE PUSH1 0x44 SWAP1 SWAP3 ADD DUP4 MSTORE PUSH1 0x20 DUP3 ADD DUP1 MLOAD PUSH1 0x1 PUSH1 0x1 PUSH1 0xE0 SHL SUB AND PUSH1 0x1 PUSH1 0x1 PUSH1 0xE0 SHL SUB NOT DUP7 AND OR DUP2 MSTORE SWAP3 MLOAD DUP3 MLOAD PUSH1 0x0 SWAP5 DUP6 SWAP5 DUP6 SWAP5 DUP11 AND SWAP4 SWAP1 SWAP3 SWAP1 SWAP2 DUP3 SWAP2 DUP1 DUP4 DUP4 JUMPDEST PUSH1 0x20 DUP4 LT PUSH2 0x3362 JUMPI DUP1 MLOAD DUP3 MSTORE PUSH1 0x1F NOT SWAP1 SWAP3 ADD SWAP2 PUSH1 0x20 SWAP2 DUP3 ADD SWAP2 ADD PUSH2 0x3343 JUMP JUMPDEST PUSH1 0x1 DUP4 PUSH1 0x20 SUB PUSH2 0x100 EXP SUB DUP1 NOT DUP3 MLOAD AND DUP2 DUP5 MLOAD AND DUP1 DUP3 OR DUP6 MSTORE POP POP POP POP POP POP SWAP1 POP ADD SWAP2 POP POP PUSH1 0x0 PUSH1 0x40 MLOAD DUP1 DUP4 SUB DUP2 DUP6 GAS STATICCALL SWAP2 POP POP RETURNDATASIZE DUP1 PUSH1 0x0 DUP2 EQ PUSH2 0x33C2 JUMPI PUSH1 0x40 MLOAD SWAP2 POP PUSH1 0x1F NOT PUSH1 0x3F RETURNDATASIZE ADD AND DUP3 ADD PUSH1 0x40 MSTORE RETURNDATASIZE DUP3 MSTORE RETURNDATASIZE PUSH1 0x0 PUSH1 0x20 DUP5 ADD RETURNDATACOPY PUSH2 0x33C7 JUMP JUMPDEST PUSH1 0x60 SWAP2 POP JUMPDEST POP SWAP2 POP SWAP2 POP DUP2 PUSH2 0x33D6 JUMPI PUSH1 0x0 DUP1 REVERT JUMPDEST DUP1 DUP1 PUSH1 0x20 ADD SWAP1 MLOAD PUSH1 0x20 DUP2 LT ISZERO PUSH2 0x33EB JUMPI PUSH1 0x0 DUP1 REVERT JUMPDEST POP MLOAD SWAP7 SWAP6 POP POP POP POP POP POP JUMP JUMPDEST PUSH1 0x40 DUP1 MLOAD PUSH4 0x23B872DD PUSH1 0xE0 SHL DUP2 MSTORE PUSH1 0x1 PUSH1 0x1 PUSH1 0xA0 SHL SUB DUP5 DUP2 AND PUSH1 0x4 DUP4 ADD MSTORE ADDRESS PUSH1 0x24 DUP4 ADD MSTORE PUSH1 0x44 DUP3 ADD DUP5 SWAP1 MSTORE SWAP2 MLOAD SWAP2 DUP6 AND SWAP2 PUSH4 0x23B872DD SWAP2 PUSH1 0x64 DUP1 DUP3 ADD SWAP3 PUSH1 0x0 SWAP3 SWAP1 SWAP2 SWAP1 DUP3 SWAP1 SUB ADD DUP2 DUP4 DUP8 DUP1 EXTCODESIZE ISZERO DUP1 ISZERO PUSH2 0x1D38 JUMPI PUSH1 0x0 DUP1 REVERT JUMPDEST PUSH2 0x3457 PUSH2 0x2DF8 JUMP JUMPDEST SLOAD DUP3 MLOAD PUSH1 0x40 MLOAD PUSH4 0xE8EDA9DF PUSH1 0xE0 SHL DUP2 MSTORE PUSH1 0x1 PUSH1 0x1 PUSH1 0xA0 SHL SUB SWAP1 SWAP3 AND SWAP2 PUSH4 0xE8EDA9DF SWAP2 PUSH2 0x348C SWAP2 DUP6 SWAP1 ADDRESS SWAP1 PUSH1 0x0 SWAP1 PUSH1 0x4 ADD PUSH2 0x3ACE JUMP JUMPDEST PUSH1 0x0 PUSH1 0x40 MLOAD DUP1 DUP4 SUB DUP2 PUSH1 0x0 DUP8 DUP1 EXTCODESIZE ISZERO DUP1 ISZERO PUSH2 0x34A6 JUMPI PUSH1 0x0 DUP1 REVERT JUMPDEST POP GAS CALL ISZERO DUP1 ISZERO PUSH2 0x13BA JUMPI RETURNDATASIZE PUSH1 0x0 DUP1 RETURNDATACOPY RETURNDATASIZE PUSH1 0x0 REVERT JUMPDEST DUP2 MLOAD PUSH1 0x40 MLOAD PUSH4 0x140E25AD PUSH1 0xE3 SHL DUP2 MSTORE PUSH1 0x0 SWAP2 PUSH1 0x1 PUSH1 0x1 PUSH1 0xA0 SHL SUB AND SWAP1 PUSH4 0xA0712D68 SWAP1 PUSH2 0x34EA SWAP1 DUP6 SWAP1 PUSH1 0x4 ADD PUSH2 0x3AFB JUMP JUMPDEST PUSH1 0x20 PUSH1 0x40 MLOAD DUP1 DUP4 SUB DUP2 PUSH1 0x0 DUP8 DUP1 EXTCODESIZE ISZERO DUP1 ISZERO PUSH2 0x3504 JUMPI PUSH1 0x0 DUP1 REVERT JUMPDEST POP GAS CALL ISZERO DUP1 ISZERO PUSH2 0x3518 JUMPI RETURNDATASIZE PUSH1 0x0 DUP1 RETURNDATACOPY RETURNDATASIZE PUSH1 0x0 REVERT JUMPDEST POP POP POP POP PUSH1 0x40 MLOAD RETURNDATASIZE PUSH1 0x1F NOT PUSH1 0x1F DUP3 ADD AND DUP3 ADD DUP1 PUSH1 0x40 MSTORE POP DUP2 ADD SWAP1 PUSH2 0x353C SWAP2 SWAP1 PUSH2 0x39A4 JUMP JUMPDEST SWAP1 POP DUP1 ISZERO PUSH2 0x1D58 JUMPI PUSH1 0x40 MLOAD PUSH3 0x461BCD PUSH1 0xE5 SHL DUP2 MSTORE PUSH1 0x4 ADD PUSH2 0x266 SWAP1 PUSH2 0x3B5D JUMP JUMPDEST DUP1 PUSH1 0x0 ADD MLOAD PUSH1 0x1 PUSH1 0x1 PUSH1 0xA0 SHL SUB AND PUSH4 0x1249C58B CALLVALUE PUSH1 0x40 MLOAD DUP3 PUSH4 0xFFFFFFFF AND PUSH1 0xE0 SHL DUP2 MSTORE PUSH1 0x4 ADD PUSH1 0x0 PUSH1 0x40 MLOAD DUP1 DUP4 SUB DUP2 DUP6 DUP9 DUP1 EXTCODESIZE ISZERO DUP1 ISZERO PUSH2 0x34A6 JUMPI PUSH1 0x0 DUP1 REVERT JUMPDEST PUSH1 0x40 MLOAD DUP1 PUSH2 0x100 ADD PUSH1 0x40 MSTORE DUP1 PUSH1 0x0 DUP2 MSTORE PUSH1 0x20 ADD PUSH1 0x0 DUP2 MSTORE PUSH1 0x20 ADD PUSH1 0x0 DUP2 MSTORE PUSH1 0x20 ADD PUSH1 0x0 ISZERO ISZERO DUP2 MSTORE PUSH1 0x20 ADD PUSH1 0x0 DUP2 MSTORE PUSH1 0x20 ADD PUSH1 0x0 DUP2 MSTORE PUSH1 0x20 ADD PUSH1 0x0 DUP2 MSTORE PUSH1 0x20 ADD PUSH1 0x0 DUP2 MSTORE POP SWAP1 JUMP JUMPDEST PUSH1 0x40 MLOAD DUP1 PUSH2 0x180 ADD PUSH1 0x40 MSTORE DUP1 PUSH1 0x0 PUSH1 0x1 PUSH1 0x1 PUSH1 0xA0 SHL SUB AND DUP2 MSTORE PUSH1 0x20 ADD PUSH1 0x0 PUSH2 0xFFFF AND DUP2 MSTORE PUSH1 0x20 ADD PUSH1 0x0 PUSH2 0xFFFF AND DUP2 MSTORE PUSH1 0x20 ADD PUSH1 0x0 DUP2 MSTORE PUSH1 0x20 ADD PUSH1 0x0 DUP2 MSTORE PUSH1 0x20 ADD PUSH1 0x0 DUP2 MSTORE PUSH1 0x20 ADD PUSH1 0x0 DUP2 MSTORE PUSH1 0x20 ADD PUSH1 0x0 DUP2 MSTORE PUSH1 0x20 ADD PUSH1 0x0 DUP2 MSTORE PUSH1 0x20 ADD PUSH1 0x0 DUP2 MSTORE PUSH1 0x20 ADD PUSH1 0x0 DUP2 MSTORE PUSH1 0x20 ADD PUSH2 0x3654 PUSH2 0x3659 JUMP JUMPDEST SWAP1 MSTORE SWAP1 JUMP JUMPDEST PUSH1 0x40 MLOAD DUP1 PUSH1 0x60 ADD PUSH1 0x40 MSTORE DUP1 PUSH1 0x0 PUSH1 0x1 PUSH1 0x1 PUSH1 0xA0 SHL SUB AND DUP2 MSTORE PUSH1 0x20 ADD PUSH1 0x0 DUP2 MSTORE PUSH1 0x20 ADD PUSH1 0x0 DUP2 MSTORE POP SWAP1 JUMP JUMPDEST PUSH1 0x40 DUP1 MLOAD PUSH1 0xA0 DUP2 ADD DUP3 MSTORE PUSH1 0x0 DUP1 DUP3 MSTORE PUSH1 0x20 DUP3 ADD DUP2 SWAP1 MSTORE SWAP2 DUP2 ADD DUP3 SWAP1 MSTORE SWAP1 PUSH1 0x60 DUP3 ADD SWAP1 DUP2 MSTORE PUSH1 0x20 ADD PUSH1 0x0 DUP2 MSTORE POP SWAP1 JUMP JUMPDEST PUSH1 0x40 MLOAD DUP1 PUSH1 0xC0 ADD PUSH1 0x40 MSTORE DUP1 PUSH1 0x0 DUP2 MSTORE PUSH1 0x20 ADD PUSH1 0x0 DUP2 MSTORE PUSH1 0x20 ADD PUSH1 0x0 DUP2 MSTORE PUSH1 0x20 ADD PUSH1 0x0 DUP2 MSTORE PUSH1 0x20 ADD PUSH1 0x0 PUSH1 0x1 PUSH1 0x1 PUSH1 0xA0 SHL SUB AND DUP2 MSTORE PUSH1 0x20 ADD PUSH1 0x0 DUP2 MSTORE POP SWAP1 JUMP JUMPDEST PUSH1 0x40 MLOAD DUP1 PUSH1 0x20 ADD PUSH1 0x40 MSTORE DUP1 PUSH1 0x1 SWAP1 PUSH1 0x20 DUP3 MUL DUP1 CALLDATASIZE DUP4 CALLDATACOPY POP SWAP2 SWAP3 SWAP2 POP POP JUMP JUMPDEST DUP1 CALLDATALOAD PUSH1 0x1 PUSH1 0x1 PUSH1 0xA0 SHL SUB DUP2 AND DUP2 EQ PUSH2 0x4FA JUMPI PUSH1 0x0 DUP1 REVERT JUMPDEST PUSH1 0x0 DUP1 DUP4 PUSH1 0x1F DUP5 ADD SLT PUSH2 0x3737 JUMPI DUP2 DUP3 REVERT JUMPDEST POP DUP2 CALLDATALOAD PUSH8 0xFFFFFFFFFFFFFFFF DUP2 GT ISZERO PUSH2 0x374E JUMPI DUP2 DUP3 REVERT JUMPDEST PUSH1 0x20 DUP4 ADD SWAP2 POP DUP4 PUSH1 0x20 DUP1 DUP4 MUL DUP6 ADD ADD GT ISZERO PUSH2 0x5ED JUMPI PUSH1 0x0 DUP1 REVERT JUMPDEST PUSH1 0x0 DUP1 DUP4 PUSH1 0x1F DUP5 ADD SLT PUSH2 0x3779 JUMPI DUP2 DUP3 REVERT JUMPDEST POP DUP2 CALLDATALOAD PUSH8 0xFFFFFFFFFFFFFFFF DUP2 GT ISZERO PUSH2 0x3790 JUMPI DUP2 DUP3 REVERT JUMPDEST PUSH1 0x20 DUP4 ADD SWAP2 POP DUP4 PUSH1 0x20 DUP3 DUP6 ADD ADD GT ISZERO PUSH2 0x5ED JUMPI PUSH1 0x0 DUP1 REVERT JUMPDEST PUSH1 0x0 PUSH1 0x20 DUP3 DUP5 SUB SLT ISZERO PUSH2 0x37B9 JUMPI DUP1 DUP2 REVERT JUMPDEST PUSH2 0x511 DUP3 PUSH2 0x370F JUMP JUMPDEST PUSH1 0x0 DUP1 PUSH1 0x40 DUP4 DUP6 SUB SLT ISZERO PUSH2 0x37D4 JUMPI DUP1 DUP2 REVERT JUMPDEST PUSH2 0x37DD DUP4 PUSH2 0x370F JUMP JUMPDEST SWAP2 POP PUSH1 0x20 DUP4 ADD CALLDATALOAD PUSH2 0x37ED DUP2 PUSH2 0x4052 JUMP JUMPDEST DUP1 SWAP2 POP POP SWAP3 POP SWAP3 SWAP1 POP JUMP JUMPDEST PUSH1 0x0 DUP1 DUP3 DUP5 SUB PUSH2 0x160 DUP2 SLT ISZERO PUSH2 0x380C JUMPI DUP3 DUP4 REVERT JUMPDEST PUSH2 0x3815 DUP5 PUSH2 0x370F JUMP JUMPDEST SWAP3 POP PUSH2 0x140 PUSH1 0x1F NOT DUP3 ADD SLT ISZERO PUSH2 0x3829 JUMPI DUP2 DUP3 REVERT JUMPDEST POP PUSH1 0x20 DUP4 ADD SWAP1 POP SWAP3 POP SWAP3 SWAP1 POP JUMP JUMPDEST PUSH1 0x0 DUP1 PUSH1 0x40 DUP4 DUP6 SUB SLT ISZERO PUSH2 0x3849 JUMPI DUP2 DUP3 REVERT JUMPDEST PUSH2 0x3852 DUP4 PUSH2 0x370F JUMP JUMPDEST SWAP5 PUSH1 0x20 SWAP4 SWAP1 SWAP4 ADD CALLDATALOAD SWAP4 POP POP POP JUMP JUMPDEST PUSH1 0x0 DUP1 PUSH1 0x0 DUP1 PUSH1 0x0 DUP1 PUSH1 0x0 DUP1 PUSH1 0xA0 DUP10 DUP12 SUB SLT ISZERO PUSH2 0x387B JUMPI DUP4 DUP5 REVERT JUMPDEST PUSH2 0x3884 DUP10 PUSH2 0x370F JUMP JUMPDEST SWAP8 POP PUSH1 0x20 DUP10 ADD CALLDATALOAD SWAP7 POP PUSH1 0x40 DUP10 ADD CALLDATALOAD PUSH8 0xFFFFFFFFFFFFFFFF DUP1 DUP3 GT ISZERO PUSH2 0x38A7 JUMPI DUP6 DUP7 REVERT JUMPDEST PUSH2 0x38B3 DUP13 DUP4 DUP14 ADD PUSH2 0x3726 JUMP JUMPDEST SWAP1 SWAP9 POP SWAP7 POP PUSH1 0x60 DUP12 ADD CALLDATALOAD SWAP2 POP DUP1 DUP3 GT ISZERO PUSH2 0x38CB JUMPI DUP6 DUP7 REVERT JUMPDEST PUSH2 0x38D7 DUP13 DUP4 DUP14 ADD PUSH2 0x3726 JUMP JUMPDEST SWAP1 SWAP7 POP SWAP5 POP PUSH1 0x80 DUP12 ADD CALLDATALOAD SWAP2 POP DUP1 DUP3 GT ISZERO PUSH2 0x38EF JUMPI DUP4 DUP5 REVERT JUMPDEST POP PUSH2 0x38FC DUP12 DUP3 DUP13 ADD PUSH2 0x3768 JUMP JUMPDEST SWAP10 SWAP13 SWAP9 SWAP12 POP SWAP7 SWAP10 POP SWAP5 SWAP8 SWAP4 SWAP7 SWAP3 SWAP6 SWAP5 POP POP POP JUMP JUMPDEST PUSH1 0x0 DUP1 PUSH1 0x0 DUP1 PUSH1 0x0 DUP1 PUSH1 0xA0 DUP8 DUP10 SUB SLT ISZERO PUSH2 0x3928 JUMPI DUP2 DUP3 REVERT JUMPDEST PUSH2 0x3931 DUP8 PUSH2 0x370F JUMP JUMPDEST SWAP6 POP PUSH1 0x20 DUP8 ADD CALLDATALOAD PUSH2 0x3941 DUP2 PUSH2 0x4082 JUMP JUMPDEST SWAP5 POP PUSH1 0x40 DUP8 ADD CALLDATALOAD SWAP4 POP PUSH1 0x60 DUP8 ADD CALLDATALOAD SWAP3 POP PUSH1 0x80 DUP8 ADD CALLDATALOAD PUSH8 0xFFFFFFFFFFFFFFFF DUP2 GT ISZERO PUSH2 0x396A JUMPI DUP3 DUP4 REVERT JUMPDEST PUSH2 0x3976 DUP10 DUP3 DUP11 ADD PUSH2 0x3768 JUMP JUMPDEST SWAP8 SWAP11 SWAP7 SWAP10 POP SWAP5 SWAP8 POP SWAP3 SWAP6 SWAP4 SWAP5 SWAP3 POP POP POP JUMP JUMPDEST PUSH1 0x0 PUSH1 0x20 DUP3 DUP5 SUB SLT ISZERO PUSH2 0x3999 JUMPI DUP1 DUP2 REVERT JUMPDEST DUP2 MLOAD PUSH2 0x511 DUP2 PUSH2 0x4052 JUMP JUMPDEST PUSH1 0x0 PUSH1 0x20 DUP3 DUP5 SUB SLT ISZERO PUSH2 0x39B5 JUMPI DUP1 DUP2 REVERT JUMPDEST POP MLOAD SWAP2 SWAP1 POP JUMP JUMPDEST PUSH1 0x0 PUSH1 0x20 DUP3 DUP5 SUB SLT ISZERO PUSH2 0x39CD JUMPI DUP1 DUP2 REVERT JUMPDEST DUP2 CALLDATALOAD PUSH2 0x511 DUP2 PUSH2 0x4063 JUMP JUMPDEST PUSH1 0x0 DUP1 PUSH1 0x0 DUP1 PUSH1 0x60 DUP6 DUP8 SUB SLT ISZERO PUSH2 0x39ED JUMPI DUP4 DUP5 REVERT JUMPDEST DUP5 CALLDATALOAD SWAP4 POP PUSH1 0x20 DUP6 ADD CALLDATALOAD SWAP3 POP PUSH1 0x40 DUP6 ADD CALLDATALOAD PUSH8 0xFFFFFFFFFFFFFFFF DUP2 GT ISZERO PUSH2 0x3A11 JUMPI DUP3 DUP4 REVERT JUMPDEST PUSH2 0x3A1D DUP8 DUP3 DUP9 ADD PUSH2 0x3768 JUMP JUMPDEST SWAP6 SWAP9 SWAP5 SWAP8 POP SWAP6 POP POP POP POP JUMP JUMPDEST PUSH1 0x0 PUSH1 0x20 DUP3 DUP5 SUB SLT ISZERO PUSH2 0x3A3A JUMPI DUP1 DUP2 REVERT JUMPDEST DUP2 CALLDATALOAD PUSH2 0x511 DUP2 PUSH2 0x4073 JUMP JUMPDEST PUSH1 0x1 PUSH1 0x1 PUSH1 0xA0 SHL SUB AND SWAP1 MSTORE JUMP JUMPDEST DUP1 MLOAD PUSH1 0x1 PUSH1 0x1 PUSH1 0xA0 SHL SUB AND DUP3 MSTORE PUSH1 0x20 DUP1 DUP3 ADD MLOAD SWAP1 DUP4 ADD MSTORE PUSH1 0x40 SWAP1 DUP2 ADD MLOAD SWAP2 ADD MSTORE JUMP JUMPDEST PUSH2 0xFFFF AND SWAP1 MSTORE JUMP JUMPDEST PUSH1 0x1 PUSH1 0x1 PUSH1 0xA0 SHL SUB SWAP2 SWAP1 SWAP2 AND DUP2 MSTORE PUSH1 0x20 ADD SWAP1 JUMP JUMPDEST PUSH1 0x1 PUSH1 0x1 PUSH1 0xA0 SHL SUB SWAP3 SWAP1 SWAP3 AND DUP3 MSTORE ISZERO ISZERO PUSH1 0x20 DUP3 ADD MSTORE PUSH1 0x40 ADD SWAP1 JUMP JUMPDEST PUSH1 0x1 PUSH1 0x1 PUSH1 0xA0 SHL SUB SWAP4 DUP5 AND DUP2 MSTORE PUSH1 0x20 DUP2 ADD SWAP3 SWAP1 SWAP3 MSTORE SWAP1 SWAP2 AND PUSH1 0x40 DUP3 ADD MSTORE PUSH1 0x60 ADD SWAP1 JUMP JUMPDEST PUSH1 0x1 PUSH1 0x1 PUSH1 0xA0 SHL SUB SWAP5 DUP6 AND DUP2 MSTORE PUSH1 0x20 DUP2 ADD SWAP4 SWAP1 SWAP4 MSTORE SWAP3 AND PUSH1 0x40 DUP3 ADD MSTORE PUSH2 0xFFFF SWAP1 SWAP2 AND PUSH1 0x60 DUP3 ADD MSTORE PUSH1 0x80 ADD SWAP1 JUMP JUMPDEST SWAP1 DUP2 MSTORE PUSH1 0x20 ADD SWAP1 JUMP JUMPDEST SWAP2 DUP3 MSTORE PUSH1 0x20 DUP3 ADD MSTORE PUSH1 0x40 ADD SWAP1 JUMP JUMPDEST PUSH1 0x20 DUP1 DUP3 MSTORE PUSH1 0x11 SWAP1 DUP3 ADD MSTORE PUSH17 0x52656465656D20616C6C20746F6B656E73 PUSH1 0x78 SHL PUSH1 0x40 DUP3 ADD MSTORE PUSH1 0x60 ADD SWAP1 JUMP JUMPDEST PUSH1 0x20 DUP1 DUP3 MSTORE PUSH1 0x6 SWAP1 DUP3 ADD MSTORE PUSH6 0x14185D5CD959 PUSH1 0xD2 SHL PUSH1 0x40 DUP3 ADD MSTORE PUSH1 0x60 ADD SWAP1 JUMP JUMPDEST PUSH1 0x20 DUP1 DUP3 MSTORE PUSH1 0x4 SWAP1 DUP3 ADD MSTORE PUSH4 0x135A5B9D PUSH1 0xE2 SHL PUSH1 0x40 DUP3 ADD MSTORE PUSH1 0x60 ADD SWAP1 JUMP JUMPDEST PUSH1 0x20 DUP1 DUP3 MSTORE PUSH1 0x6 SWAP1 DUP3 ADD MSTORE PUSH6 0x52656465656D PUSH1 0xD0 SHL PUSH1 0x40 DUP3 ADD MSTORE PUSH1 0x60 ADD SWAP1 JUMP JUMPDEST PUSH1 0x20 DUP1 DUP3 MSTORE PUSH1 0x5 SWAP1 DUP3 ADD MSTORE PUSH5 0xCC86C2E6D PUSH1 0xDB SHL PUSH1 0x40 DUP3 ADD MSTORE PUSH1 0x60 ADD SWAP1 JUMP JUMPDEST PUSH1 0x20 DUP1 DUP3 MSTORE PUSH1 0xD SWAP1 DUP3 ADD MSTORE PUSH13 0x43616E6E6F7420536574746C65 PUSH1 0x98 SHL PUSH1 0x40 DUP3 ADD MSTORE PUSH1 0x60 ADD SWAP1 JUMP JUMPDEST PUSH1 0x20 DUP1 DUP3 MSTORE DUP2 DUP2 ADD MSTORE PUSH32 0x4F776E61626C653A2063616C6C6572206973206E6F7420746865206F776E6572 PUSH1 0x40 DUP3 ADD MSTORE PUSH1 0x60 ADD SWAP1 JUMP JUMPDEST PUSH1 0x20 DUP1 DUP3 MSTORE PUSH1 0x17 SWAP1 DUP3 ADD MSTORE PUSH32 0x496E73756666696369656E7420436F6C6C61746572616C000000000000000000 PUSH1 0x40 DUP3 ADD MSTORE PUSH1 0x60 ADD SWAP1 JUMP JUMPDEST PUSH1 0x20 DUP1 DUP3 MSTORE PUSH1 0xE SWAP1 DUP3 ADD MSTORE PUSH14 0x1499595B9D1C985B9D0818D85B1B PUSH1 0x92 SHL PUSH1 0x40 DUP3 ADD MSTORE PUSH1 0x60 ADD SWAP1 JUMP JUMPDEST PUSH1 0x20 DUP1 DUP3 MSTORE PUSH1 0xA SWAP1 DUP3 ADD MSTORE PUSH10 0x4D696E20426F72726F77 PUSH1 0xB0 SHL PUSH1 0x40 DUP3 ADD MSTORE PUSH1 0x60 ADD SWAP1 JUMP JUMPDEST PUSH1 0x0 PUSH2 0x1C0 DUP3 ADD SWAP1 POP PUSH2 0x3CAD DUP3 DUP5 MLOAD PUSH2 0x3A45 JUMP JUMPDEST PUSH1 0x20 DUP4 ADD MLOAD PUSH2 0x3CBF PUSH1 0x20 DUP5 ADD DUP3 PUSH2 0x3A74 JUMP JUMPDEST POP PUSH1 0x40 DUP4 ADD MLOAD PUSH2 0x3CD2 PUSH1 0x40 DUP5 ADD DUP3 PUSH2 0x3A74 JUMP JUMPDEST POP PUSH1 0x60 DUP4 ADD MLOAD PUSH1 0x60 DUP4 ADD MSTORE PUSH1 0x80 DUP4 ADD MLOAD PUSH1 0x80 DUP4 ADD MSTORE PUSH1 0xA0 DUP4 ADD MLOAD PUSH1 0xA0 DUP4 ADD MSTORE PUSH1 0xC0 DUP4 ADD MLOAD PUSH1 0xC0 DUP4 ADD MSTORE PUSH1 0xE0 DUP4 ADD MLOAD PUSH1 0xE0 DUP4 ADD MSTORE PUSH2 0x100 DUP1 DUP5 ADD MLOAD DUP2 DUP5 ADD MSTORE POP PUSH2 0x120 DUP1 DUP5 ADD MLOAD DUP2 DUP5 ADD MSTORE POP PUSH2 0x140 DUP1 DUP5 ADD MLOAD DUP2 DUP5 ADD MSTORE POP PUSH2 0x160 DUP1 DUP5 ADD MLOAD PUSH2 0x3D3C DUP3 DUP6 ADD DUP3 PUSH2 0x3A52 JUMP JUMPDEST POP POP SWAP3 SWAP2 POP POP JUMP JUMPDEST PUSH1 0x0 PUSH2 0x100 DUP3 ADD SWAP1 POP DUP3 MLOAD DUP3 MSTORE PUSH1 0x20 DUP4 ADD MLOAD PUSH1 0x20 DUP4 ADD MSTORE PUSH1 0x40 DUP4 ADD MLOAD PUSH1 0x40 DUP4 ADD MSTORE PUSH1 0x60 DUP4 ADD MLOAD ISZERO ISZERO PUSH1 0x60 DUP4 ADD MSTORE PUSH1 0x80 DUP4 ADD MLOAD PUSH1 0x80 DUP4 ADD MSTORE PUSH1 0xA0 DUP4 ADD MLOAD PUSH1 0xA0 DUP4 ADD MSTORE PUSH1 0xC0 DUP4 ADD MLOAD PUSH1 0xC0 DUP4 ADD MSTORE PUSH1 0xE0 DUP4 ADD MLOAD PUSH1 0xE0 DUP4 ADD MSTORE SWAP3 SWAP2 POP POP JUMP JUMPDEST PUSH1 0x1 PUSH1 0x1 PUSH1 0x80 SHL SUB SWAP2 SWAP1 SWAP2 AND DUP2 MSTORE PUSH1 0x20 ADD SWAP1 JUMP JUMPDEST PUSH2 0xFFFF SWAP4 SWAP1 SWAP4 AND DUP4 MSTORE PUSH1 0x1 PUSH1 0x1 PUSH1 0xA0 SHL SUB SWAP2 SWAP1 SWAP2 AND PUSH1 0x20 DUP4 ADD MSTORE PUSH1 0x40 DUP3 ADD MSTORE PUSH1 0x60 ADD SWAP1 JUMP JUMPDEST PUSH1 0x0 DUP6 DUP3 MSTORE DUP5 PUSH1 0x20 DUP4 ADD MSTORE PUSH1 0x60 PUSH1 0x40 DUP4 ADD MSTORE DUP3 PUSH1 0x60 DUP4 ADD MSTORE DUP3 DUP5 PUSH1 0x80 DUP5 ADD CALLDATACOPY DUP2 DUP4 ADD PUSH1 0x80 SWAP1 DUP2 ADD SWAP2 SWAP1 SWAP2 MSTORE PUSH1 0x1F SWAP1 SWAP3 ADD PUSH1 0x1F NOT AND ADD ADD SWAP4 SWAP3 POP POP POP JUMP JUMPDEST PUSH1 0x0 DUP2 CALLDATALOAD PUSH2 0x841 DUP2 PUSH2 0x4063 JUMP JUMPDEST PUSH1 0x0 DUP2 CALLDATALOAD PUSH4 0xFFFFFFFF DUP2 AND DUP2 EQ PUSH2 0x841 JUMPI DUP2 DUP3 REVERT JUMPDEST PUSH1 0x0 DUP2 CALLDATALOAD PUSH2 0x841 DUP2 PUSH2 0x4073 JUMP JUMPDEST PUSH1 0x0 DUP2 CALLDATALOAD PUSH2 0x841 DUP2 PUSH2 0x4082 JUMP JUMPDEST DUP2 CALLDATALOAD PUSH2 0x3E5C DUP2 PUSH2 0x4063 JUMP JUMPDEST PUSH2 0xFFFF DUP2 AND PUSH2 0xFFFF NOT DUP4 SLOAD AND OR DUP3 SSTORE POP PUSH1 0x20 DUP3 ADD CALLDATALOAD PUSH2 0x3E7A DUP2 PUSH2 0x4063 JUMP JUMPDEST PUSH2 0x3E84 DUP2 DUP4 PUSH2 0x4006 JUMP JUMPDEST POP PUSH2 0x3E9A PUSH2 0x3E94 PUSH1 0x40 DUP5 ADD PUSH2 0x3E44 JUMP JUMPDEST DUP3 PUSH2 0x4022 JUMP JUMPDEST PUSH2 0x3EAF PUSH2 0x3EA9 PUSH1 0x60 DUP5 ADD PUSH2 0x3E22 JUMP JUMPDEST DUP3 PUSH2 0x3F2F JUMP JUMPDEST PUSH2 0x3EC4 PUSH2 0x3EBE PUSH1 0x80 DUP5 ADD PUSH2 0x3E15 JUMP JUMPDEST DUP3 PUSH2 0x3F52 JUMP JUMPDEST PUSH2 0x3ED9 PUSH2 0x3ED3 PUSH1 0xA0 DUP5 ADD PUSH2 0x3E15 JUMP JUMPDEST DUP3 PUSH2 0x3F71 JUMP JUMPDEST PUSH2 0x3EEE PUSH2 0x3EE8 PUSH1 0xC0 DUP5 ADD PUSH2 0x3E15 JUMP JUMPDEST DUP3 PUSH2 0x3F90 JUMP JUMPDEST PUSH2 0x3F03 PUSH2 0x3EFD PUSH1 0xE0 DUP5 ADD PUSH2 0x3E37 JUMP JUMPDEST DUP3 PUSH2 0x3FAF JUMP JUMPDEST PUSH2 0x3F19 PUSH2 0x3F13 PUSH2 0x100 DUP5 ADD PUSH2 0x3E37 JUMP JUMPDEST DUP3 PUSH2 0x3FCC JUMP JUMPDEST PUSH2 0xCB8 PUSH2 0x3F29 PUSH2 0x120 DUP5 ADD PUSH2 0x3E37 JUMP JUMPDEST DUP3 PUSH2 0x3FE9 JUMP JUMPDEST DUP1 SLOAD PUSH4 0xFFFFFFFF PUSH1 0x70 SHL NOT AND PUSH1 0x70 SWAP3 SWAP1 SWAP3 SHL PUSH4 0xFFFFFFFF PUSH1 0x70 SHL AND SWAP2 SWAP1 SWAP2 OR SWAP1 SSTORE JUMP JUMPDEST DUP1 SLOAD PUSH2 0xFFFF PUSH1 0x90 SHL NOT AND PUSH1 0x90 SWAP3 SWAP1 SWAP3 SHL PUSH2 0xFFFF PUSH1 0x90 SHL AND SWAP2 SWAP1 SWAP2 OR SWAP1 SSTORE JUMP JUMPDEST DUP1 SLOAD PUSH2 0xFFFF PUSH1 0xA0 SHL NOT AND PUSH1 0xA0 SWAP3 SWAP1 SWAP3 SHL PUSH2 0xFFFF PUSH1 0xA0 SHL AND SWAP2 SWAP1 SWAP2 OR SWAP1 SSTORE JUMP JUMPDEST DUP1 SLOAD PUSH2 0xFFFF PUSH1 0xB0 SHL NOT AND PUSH1 0xB0 SWAP3 SWAP1 SWAP3 SHL PUSH2 0xFFFF PUSH1 0xB0 SHL AND SWAP2 SWAP1 SWAP2 OR SWAP1 SSTORE JUMP JUMPDEST DUP1 SLOAD PUSH1 0xFF PUSH1 0xC0 SHL NOT AND PUSH1 0xC0 SWAP3 SWAP1 SWAP3 SHL PUSH1 0xFF PUSH1 0xC0 SHL AND SWAP2 SWAP1 SWAP2 OR SWAP1 SSTORE JUMP JUMPDEST DUP1 SLOAD PUSH1 0xFF PUSH1 0xC8 SHL NOT AND PUSH1 0xC8 SWAP3 SWAP1 SWAP3 SHL PUSH1 0xFF PUSH1 0xC8 SHL AND SWAP2 SWAP1 SWAP2 OR SWAP1 SSTORE JUMP JUMPDEST DUP1 SLOAD PUSH1 0xFF PUSH1 0xD0 SHL NOT AND PUSH1 0xD0 SWAP3 SWAP1 SWAP3 SHL PUSH1 0xFF PUSH1 0xD0 SHL AND SWAP2 SWAP1 SWAP2 OR SWAP1 SSTORE JUMP JUMPDEST DUP1 SLOAD PUSH4 0xFFFF0000 DUP4 PUSH1 0x10 SHL AND PUSH4 0xFFFF0000 NOT DUP3 AND OR DUP3 SSTORE POP POP POP JUMP JUMPDEST DUP1 SLOAD PUSH14 0xFFFFFFFFFFFFFFFFFFFF00000000 DUP4 PUSH1 0x20 SHL AND PUSH14 0xFFFFFFFFFFFFFFFFFFFF00000000 NOT DUP3 AND OR DUP3 SSTORE POP POP POP JUMP JUMPDEST DUP1 ISZERO ISZERO DUP2 EQ PUSH2 0x4060 JUMPI PUSH1 0x0 DUP1 REVERT JUMPDEST POP JUMP JUMPDEST PUSH2 0xFFFF DUP2 AND DUP2 EQ PUSH2 0x4060 JUMPI PUSH1 0x0 DUP1 REVERT JUMPDEST PUSH1 0xFF DUP2 AND DUP2 EQ PUSH2 0x4060 JUMPI PUSH1 0x0 DUP1 REVERT JUMPDEST PUSH1 0x1 PUSH1 0x1 PUSH1 0x50 SHL SUB DUP2 AND DUP2 EQ PUSH2 0x4060 JUMPI PUSH1 0x0 DUP1 REVERT INVALID MSTORE8 PUSH2 0x6665 0x4D PUSH2 0x7468 GASPRICE KECCAK256 PUSH14 0x756C7469706C69636174696F6E20 PUSH16 0x766572666C6F77A26469706673582212 KECCAK256 LT 0x4E DUP14 0xF6 MUL BYTE SWAP8 PUSH18 0xAA602B4DB67F4CC2AD76D3A16CC671AC51B6 0xAD SWAP3 0xBB PUSH21 0xEBF764736F6C634300070600330000000000000000 ","sha1":"fa378eaf5ab3805422417c56fabeb4d32781db2a","source":"// SPDX-License-Identifier: GPL-3.0-only\npragma solidity =0.7.6;\npragma abicoder v2;\n\nimport {ActionGuards} from \"./ActionGuards.sol\";\nimport {IVaultAction} from \"../../../../interfaces/notional/IVaultController.sol\";\nimport \"../../internal/vaults/VaultConfiguration.sol\";\nimport \"../../internal/vaults/VaultAccount.sol\";\nimport {VaultStateLib, VaultState} from \"../../internal/vaults/VaultState.sol\";\nimport {SafeUint256} from \"../../math/SafeUint256.sol\";\n\ncontract VaultAction is ActionGuards, IVaultAction {\n    using VaultConfiguration for VaultConfig;\n    using VaultAccountLib for VaultAccount;\n    using VaultStateLib for VaultState;\n    using AssetRate for AssetRateParameters;\n    using TokenHandler for Token;\n    using SafeInt256 for int256;\n    using SafeUint256 for uint256;\n\n    /**\n     * @notice Updates or lists a deployed vault along with its configuration.\n     *\n     * @param vaultAddress address of deployed vault\n     * @param vaultConfig struct of vault configuration\n     */\n    function updateVault(\n        address vaultAddress,\n        VaultConfigStorage calldata vaultConfig\n    ) external override onlyOwner {\n        VaultConfiguration.setVaultConfig(vaultAddress, vaultConfig);\n        bool enabled = (vaultConfig.flags & VaultConfiguration.ENABLED) == VaultConfiguration.ENABLED;\n        emit VaultChange(vaultAddress, enabled);\n    }\n\n    /**\n     * @notice Enables or disables a vault. If a vault is disabled, no one can enter\n     * the vault anymore.\n     *\n     * @param vaultAddress address of deployed vault\n     * @param enable bool if the vault should be enabled immediately\n     */\n    function setVaultPauseStatus(\n        address vaultAddress,\n        bool enable\n    ) external override onlyOwner {\n        VaultConfiguration.setVaultEnabledStatus(vaultAddress, enable);\n        emit VaultPauseStatus(vaultAddress, enable);\n    }\n\n    /**\n     * @notice Allows the owner to reduce the max borrow capacity on the vault and force\n     * the redemption of strategy tokens to cash to reduce the overall risk of the vault.\n     * This method is intended to be used in emergencies to mitigate insolvency risk.\n     * @param vaultAddress address of the vault\n     * @param maxVaultBorrowCapacity the new max vault borrow capacity\n     * @param maturity the maturity to redeem tokens in, will generally be either the current\n     * maturity or the next maturity.\n     * @param strategyTokensToRedeem how many tokens we would want to redeem in the maturity\n     * @param vaultData vault data to pass to the vault\n     */\n    function reduceMaxBorrowCapacity(\n        address vaultAddress,\n        uint80 maxVaultBorrowCapacity,\n        uint256 maturity,\n        uint256 strategyTokensToRedeem,\n        bytes calldata vaultData\n    ) external override onlyOwner {\n        VaultConfiguration.setMaxBorrowCapacity(vaultAddress, maxVaultBorrowCapacity);\n        VaultConfig memory vaultConfig = VaultConfiguration.getVaultConfigStateful(vaultAddress);\n        _redeemStrategyTokensToCashInternal(vaultConfig, maturity, strategyTokensToRedeem, vaultData);\n    }\n\n    /**\n     * @notice Strategy vaults can call this method to redeem strategy tokens to cash\n     * and hold them as asset cash within the pool. This should typically be used\n     * during settlement but can also be used for vault-wide deleveraging.\n     * @param maturity the maturity of the vault where the redemption will take place\n     * @param strategyTokensToRedeem the number of strategy tokens redeemed\n     * @param vaultData arbitrary data to pass back to the vault\n     * @return assetCashRequiredToSettle amount of asset cash still remaining to settle the debt\n     * @return underlyingCashRequiredToSettle amount of underlying cash still remaining to settle the debt\n     */\n    function redeemStrategyTokensToCash(\n        uint256 maturity,\n        uint256 strategyTokensToRedeem,\n        bytes calldata vaultData\n    ) external override returns (\n        int256 assetCashRequiredToSettle,\n        int256 underlyingCashRequiredToSettle\n    ) {\n        // NOTE: this call must come from the vault itself\n        VaultConfig memory vaultConfig = VaultConfiguration.getVaultConfigStateful(msg.sender);\n        // NOTE: if the msg.sender is not the vault itself this will revert\n        require(vaultConfig.getFlag(VaultConfiguration.ENABLED), \"Paused\");\n        return _redeemStrategyTokensToCashInternal(vaultConfig, maturity, strategyTokensToRedeem, vaultData);\n    }\n\n    function _redeemStrategyTokensToCashInternal(\n        VaultConfig memory vaultConfig,\n        uint256 maturity,\n        uint256 strategyTokensToRedeem,\n        bytes calldata vaultData\n    ) private nonReentrant returns (\n        int256 assetCashRequiredToSettle,\n        int256 underlyingCashRequiredToSettle\n    ) {\n        // If the vault allows further re-entrancy then set the status back to the default\n        if (vaultConfig.getFlag(VaultConfiguration.ALLOW_REENTRANCY)) {\n            reentrancyStatus = _NOT_ENTERED;\n        }\n\n        VaultState memory vaultState = VaultStateLib.getVaultState(vaultConfig.vault, maturity);\n        int256 assetCashReceived = vaultConfig.redeem(strategyTokensToRedeem, maturity, vaultData);\n        require(assetCashReceived > 0);\n\n        vaultState.totalAssetCash = vaultState.totalAssetCash.add(uint256(assetCashReceived));\n        vaultState.totalStrategyTokens = vaultState.totalStrategyTokens.sub(strategyTokensToRedeem);\n        vaultState.setVaultState(vaultConfig.vault);\n\n        return _getCashRequiredToSettle(vaultConfig, vaultState, maturity);\n    }\n\n    /**\n     * @notice Strategy vaults can call this method to deposit asset cash into strategy tokens.\n     * @param maturity the maturity of the vault where the redemption will take place\n     * @param assetCashToDepositExternal the number of asset cash tokens to deposit (external)\n     * @param vaultData arbitrary data to pass back to the vault for deposit\n     */\n    function depositVaultCashToStrategyTokens(\n        uint256 maturity,\n        uint256 assetCashToDepositExternal,\n        bytes calldata vaultData\n    ) external override nonReentrant {\n        VaultConfig memory vaultConfig = VaultConfiguration.getVaultConfigStateful(msg.sender);\n        // If the vault allows further re-entrancy then set the status back to the default\n        if (vaultConfig.getFlag(VaultConfiguration.ALLOW_REENTRANCY)) {\n            reentrancyStatus = _NOT_ENTERED;\n        }\n\n        // NOTE: if the msg.sender is not the vault itself this will revert\n        require(vaultConfig.getFlag(VaultConfiguration.ENABLED), \"Paused\");\n\n        VaultState memory vaultState = VaultStateLib.getVaultState(msg.sender, maturity);\n        Token memory assetToken = TokenHandler.getAssetToken(vaultConfig.borrowCurrencyId);\n\n        int256 assetCashInternal = assetToken.convertToInternal(SafeInt256.toInt(assetCashToDepositExternal));\n        uint256 strategyTokensMinted = vaultConfig.deposit(assetCashInternal, maturity, vaultData);\n\n        vaultState.totalAssetCash = vaultState.totalAssetCash.sub(SafeInt256.toUint(assetCashInternal));\n        vaultState.totalStrategyTokens = vaultState.totalStrategyTokens.add(strategyTokensMinted);\n        vaultState.setVaultState(msg.sender);\n\n        // When exchanging asset cash for strategy tokens we will decrease the vault's collateral, ensure that\n        // we don't go under the configured minimum here.\n\n        // NOTE: this debt outstanding does not net off escrowed asset cash held in individual accounts so it\n        // is a more pessimistic view of the vault's collateral ratio than reality. It's better to be on the safe\n        // side here than overestimate the collateral ratio. If there is a lot of escrowed asset cash held in\n        // individual accounts it means there has been a lot of deleveraging or lend rates are near zero. Neither\n        // of those things are good economic conditions.\n        vaultConfig.checkCollateralRatio(vaultState, vaultState.totalVaultShares, vaultState.totalfCash, 0);\n    }\n\n    /**\n     * @notice Settles an entire vault, can only be called during an emergency stop out or during\n     * the vault's defined settlement period. May be called multiple times during a vault term if\n     * the vault has been stopped out early.\n     *\n     * @param vault the vault to settle\n     * @param maturity the maturity of the vault\n     * @param settleAccounts a list of accounts to manually settle (if any)\n     * @param vaultSharesToRedeem the amount of vault shares to settle on each account\n     * @param redeemCallData call data passed to redeem for all accounts being settled\n     */\n    function settleVault(\n        address vault,\n        uint256 maturity,\n        address[] calldata settleAccounts,\n        uint256[] calldata vaultSharesToRedeem,\n        bytes calldata redeemCallData\n    ) external override nonReentrant {\n        VaultConfig memory vaultConfig = VaultConfiguration.getVaultConfigStateful(vault);\n        VaultState memory vaultState = VaultStateLib.getVaultState(vault, maturity);\n\n        // If the vault allows further re-entrancy then set the status back to the default\n        if (vaultConfig.getFlag(VaultConfiguration.ALLOW_REENTRANCY)) {\n            reentrancyStatus = _NOT_ENTERED;\n        }\n\n        // Ensure that we are past maturity and the vault is able to settle\n        require(\n            maturity <= block.timestamp &&\n            settleAccounts.length == vaultSharesToRedeem.length &&\n            vaultState.isFullySettled == false &&\n            IStrategyVault(vault).canSettleMaturity(maturity),\n            \"Cannot Settle\"\n        );\n\n        AssetRateParameters memory settlementRate = AssetRate.buildSettlementRateStateful(\n            vaultConfig.borrowCurrencyId,\n            maturity,\n            block.timestamp\n        );\n\n        // This settles any accounts passed into the method that have escrowed asset cash\n        int256 assetCashShortfall =  _settleAccountsLoop(\n            vaultState, vaultConfig, settlementRate, settleAccounts, vaultSharesToRedeem, redeemCallData\n        );\n\n        // This is how much it costs in asset cash to settle the pooled portion of the vault\n        uint256 assetCashRequiredToSettle = settlementRate.convertFromUnderlying(\n            vaultState.totalfCashRequiringSettlement.neg()\n        ).toUint();\n\n        if (vaultState.totalAssetCash >= assetCashRequiredToSettle) {\n            // In this case, we have sufficient cash to settle the pooled portion and perhaps\n            // some extra left to return to accounts\n            vaultState.totalAssetCash = vaultState.totalAssetCash - assetCashRequiredToSettle;\n        } else {\n            // Don't allow the pooled portion of the vault to have a cash shortfall unless all\n            // strategy tokens have been redeemed to asset cash. This implies that accounts with\n            // escrowed asset cash may end up paying for a broader insolvency in the vault.\n            //\n            // For the vault to be insolvent, it would be the case that one or more accounts\n            // inside the vault are insolvent. Insolvent accounts should be liquidated before\n            // settling the vault such that they can be individually settled inside the\n            // _settleAccountsLoop to isolate their vault shares. If all insolvent accounts are\n            // inside _settleAccountsLoop then there should be no shortfall in the pooled portion.\n            //\n            // If for some reason every account is insolvent in the vault, then we would still need\n            // to redeem all the tokens before we could declare a shortfall in the vault.\n            require(vaultState.totalStrategyTokens == 0, \"Redeem all tokens\");\n            assetCashShortfall = assetCashShortfall.add((assetCashRequiredToSettle - vaultState.totalAssetCash).toInt());\n            vaultState.totalAssetCash = 0;\n        }\n\n        // We always clear fCash requiring settlement because if there is a shortfall we will\n        // always attempt to resolve it before exiting the method.\n        vaultState.totalfCash = vaultState.totalfCash.sub(vaultState.totalfCashRequiringSettlement);\n        vaultState.totalfCashRequiringSettlement = 0;\n\n        if (assetCashShortfall > 0) {\n            vaultConfig.resolveCashShortfall(assetCashShortfall);\n\n            // If there is any cash shortfall, we automatically disable the vault. Accounts can still\n            // exit but no one can enter. Governance can re-enable the vault.\n            VaultConfiguration.setVaultEnabledStatus(vaultConfig.vault, false);\n        }\n\n        // TODO: is this the correct behavior if we are in an insolvency\n        vaultState.isFullySettled = vaultState.totalfCash == 0 && vaultState.accountsRequiringSettlement == 0;\n        vaultState.setVaultState(vault);\n    }\n\n    function _settleAccountsLoop(\n        VaultState memory vaultState,\n        VaultConfig memory vaultConfig,\n        AssetRateParameters memory settlementRate,\n        address[] calldata settleAccounts,\n        uint256[] calldata vaultSharesToRedeem,\n        bytes calldata redeemCallData\n    ) private returns (int256 assetCashShortfall) {\n        (uint256 totalStrategyTokens, uint256 assetCashRedeemed) = _redeemVaultShares(\n            vaultState,\n            vaultConfig,\n            vaultSharesToRedeem,\n            redeemCallData\n        );\n\n        for (uint i; i < settleAccounts.length; i++) {\n            assetCashShortfall = assetCashShortfall.add(\n                _settleAccount(\n                    vaultState,\n                    vaultConfig,\n                    settlementRate,\n                    settleAccounts[i],\n                    vaultSharesToRedeem[i],\n                    assetCashRedeemed,\n                    totalStrategyTokens\n                )\n            );\n        }\n    }\n\n    function _redeemVaultShares(\n        VaultState memory vaultState,\n        VaultConfig memory vaultConfig,\n        uint256[] calldata vaultSharesToRedeem,\n        bytes calldata redeemCallData\n    ) internal returns (uint256 totalStrategyTokens, uint256 assetCashRedeemed) {\n        // Calculate the total vault shares to redeem per account and then redeem all the strategy tokens\n        // in one call to the vault for gas efficiency. Will split the cash redeemed back to each account\n        // proportionately\n        uint256 totalVaultShares;\n        for (uint i; i < vaultSharesToRedeem.length; i++) {\n            totalVaultShares = totalVaultShares.add(vaultSharesToRedeem[i]);\n        }\n        (/* */, totalStrategyTokens) = vaultState.getPoolShare(totalVaultShares);\n        assetCashRedeemed = vaultConfig.redeem(totalStrategyTokens, vaultState.maturity, redeemCallData).toUint();\n    }\n\n    function _settleAccount(\n        VaultState memory vaultState,\n        VaultConfig memory vaultConfig,\n        AssetRateParameters memory settlementRate,\n        address account,\n        uint256 vaultSharesToRedeem,\n        uint256 assetCashRedeemed,\n        uint256 totalStrategyTokens\n    ) private returns (int256 assetCashShortfall) {\n        VaultAccount memory vaultAccount = VaultAccountLib.getVaultAccount(account, vaultConfig);\n        require(\n            vaultState.maturity == vaultAccount.maturity &&\n            vaultAccount.requiresSettlement()\n        );\n        // Vaults must have some default behavior defined for redemptions and not rely on\n        // calldata to make redemption decisions.\n        uint256 strategyTokens = vaultState.exitMaturityPool(vaultAccount, vaultSharesToRedeem);\n\n        // Return the portion of the strategy token redemption that the account is owed\n        vaultAccount.tempCashBalance = vaultAccount.tempCashBalance.add(\n            SafeInt256.toInt(assetCashRedeemed.mul(strategyTokens).div(totalStrategyTokens))\n        );\n\n        // fCash is zeroed out inside this method\n        vaultAccount.settleEscrowedAccount(vaultState, settlementRate);\n\n        if (vaultAccount.tempCashBalance >= 0) {\n            // TODO: need to authenticate that there is not excess vault shares sold here...\n            // Return excess asset cash to the account\n            vaultAccount.transferTempCashBalance(vaultConfig, false);\n        } else {\n            // Account is insolvent here, add the balance to the shortfall required\n            // and clear the account requiring settlement\n            assetCashShortfall = vaultAccount.tempCashBalance.neg();\n\n            // Pre-emptive clear the vault account assuming the shortfall will be cleared\n            vaultAccount.tempCashBalance = 0;\n\n            if (vaultState.accountsRequiringSettlement > 0) {\n                // Don't revert on underflow here, just floor the value at 0 in case\n                // we somehow miss an insolvent account in tracking.\n                vaultState.accountsRequiringSettlement -= 1;\n            }\n        }\n        vaultAccount.setVaultAccount(vaultConfig);\n    }\n\n    /** View Methods **/\n    function getVaultConfig(\n        address vault\n    ) external view override returns (VaultConfig memory vaultConfig) {\n        vaultConfig = VaultConfiguration.getVaultConfigView(vault);\n    }\n\n    function getVaultState(\n        address vault,\n        uint256 maturity\n    ) external view override returns (VaultState memory vaultState) {\n        vaultState = VaultStateLib.getVaultState(vault, maturity);\n    }\n\n    function getCurrentVaultState(\n        address vault\n    ) external view override returns (VaultState memory vaultState) {\n        VaultConfig memory vaultConfig = VaultConfiguration.getVaultConfigView(vault);\n        vaultState = VaultStateLib.getVaultState(vault, vaultConfig.getCurrentMaturity(block.timestamp));\n    }\n\n    function getCurrentVaultMaturity(\n        address vault\n    ) external override view returns (uint256) {\n        VaultConfig memory vaultConfig = VaultConfiguration.getVaultConfigView(vault);\n        return vaultConfig.getCurrentMaturity(block.timestamp);\n    }\n\n    function getCashRequiredToSettle(\n        address vault,\n        uint256 maturity\n    ) external view override returns (\n        int256 assetCashRequiredToSettle,\n        int256 underlyingCashRequiredToSettle\n    ) {\n        VaultConfig memory vaultConfig = VaultConfiguration.getVaultConfigView(vault);\n        VaultState memory vaultState = VaultStateLib.getVaultState(vaultConfig.vault, maturity);\n        return _getCashRequiredToSettle(vaultConfig, vaultState, maturity);\n    }\n\n    function getCashRequiredToSettleCurrent(\n        address vault\n    ) external view override returns (\n        int256 assetCashRequiredToSettle,\n        int256 underlyingCashRequiredToSettle\n    ) {\n        VaultConfig memory vaultConfig = VaultConfiguration.getVaultConfigView(vault);\n        uint256 currentMaturity = vaultConfig.getCurrentMaturity(block.timestamp);\n        VaultState memory vaultState = VaultStateLib.getVaultState(vaultConfig.vault, currentMaturity);\n\n        return _getCashRequiredToSettle(vaultConfig, vaultState, currentMaturity);\n    }\n\n    function _getCashRequiredToSettle(\n        VaultConfig memory vaultConfig,\n        VaultState memory vaultState,\n        uint256 maturity\n    ) private view returns (\n        int256 assetCashRequiredToSettle,\n        int256 underlyingCashRequiredToSettle\n    ) {\n        // If this is prior to maturity, it will return the current asset rate. After maturity it will\n        // return the settlement rate.\n        AssetRateParameters memory ar = AssetRate.buildSettlementRateView(vaultConfig.borrowCurrencyId, maturity);\n        \n        // If this is a positive number, there is more cash remaining to be settled.\n        // If this is a negative number, there is more cash than required to repay the debt\n        int256 assetCashInternal = ar.convertFromUnderlying(vaultState.totalfCashRequiringSettlement)\n            .add(vaultState.totalAssetCash.toInt())\n            .neg();\n\n        Token memory assetToken = TokenHandler.getAssetToken(vaultConfig.borrowCurrencyId);\n        Token memory underlyingToken = TokenHandler.getUnderlyingToken(vaultConfig.borrowCurrencyId);\n        assetCashRequiredToSettle = assetToken.convertToExternal(assetCashInternal);\n        underlyingCashRequiredToSettle = underlyingToken.convertToExternal(ar.convertToUnderlying(assetCashInternal));\n    }\n}","sourcePath":"contracts/external/actions/VaultAction.sol","type":"contract","deployment":{"address":"0x0e4ca92b71f283C6DfBffd21a05F7aDfC1b28D64","chainid":"5","blockHeight":7023378}}