{"abi":[{"inputs":[{"internalType":"address","name":"governance_","type":"address"},{"internalType":"address","name":"views_","type":"address"},{"internalType":"address","name":"initializeMarket_","type":"address"},{"internalType":"address","name":"nTokenActions_","type":"address"},{"internalType":"address","name":"batchAction_","type":"address"},{"internalType":"address","name":"accountAction_","type":"address"},{"internalType":"address","name":"erc1155_","type":"address"},{"internalType":"address","name":"liquidateCurrency_","type":"address"},{"internalType":"address","name":"liquidatefCash_","type":"address"},{"internalType":"address","name":"cETH_","type":"address"},{"internalType":"address","name":"treasury_","type":"address"},{"internalType":"address","name":"calculationViews_","type":"address"}],"stateMutability":"nonpayable","type":"constructor","name":"constructor"},{"stateMutability":"payable","type":"fallback"},{"inputs":[],"name":"ACCOUNT_ACTION","outputs":[{"internalType":"address","name":"","type":"address"}],"stateMutability":"view","type":"function"},{"inputs":[],"name":"BATCH_ACTION","outputs":[{"internalType":"address","name":"","type":"address"}],"stateMutability":"view","type":"function"},{"inputs":[],"name":"CALCULATION_VIEWS","outputs":[{"internalType":"address","name":"","type":"address"}],"stateMutability":"view","type":"function"},{"inputs":[],"name":"ERC1155","outputs":[{"internalType":"address","name":"","type":"address"}],"stateMutability":"view","type":"function"},{"inputs":[],"name":"GOVERNANCE","outputs":[{"internalType":"address","name":"","type":"address"}],"stateMutability":"view","type":"function"},{"inputs":[],"name":"INITIALIZE_MARKET","outputs":[{"internalType":"address","name":"","type":"address"}],"stateMutability":"view","type":"function"},{"inputs":[],"name":"LIQUIDATE_CURRENCY","outputs":[{"internalType":"address","name":"","type":"address"}],"stateMutability":"view","type":"function"},{"inputs":[],"name":"LIQUIDATE_FCASH","outputs":[{"internalType":"address","name":"","type":"address"}],"stateMutability":"view","type":"function"},{"inputs":[],"name":"NTOKEN_ACTIONS","outputs":[{"internalType":"address","name":"","type":"address"}],"stateMutability":"view","type":"function"},{"inputs":[],"name":"TREASURY","outputs":[{"internalType":"address","name":"","type":"address"}],"stateMutability":"view","type":"function"},{"inputs":[],"name":"VIEWS","outputs":[{"internalType":"address","name":"","type":"address"}],"stateMutability":"view","type":"function"},{"inputs":[],"name":"cETH","outputs":[{"internalType":"address","name":"","type":"address"}],"stateMutability":"view","type":"function"},{"inputs":[{"internalType":"bytes4","name":"sig","type":"bytes4"}],"name":"getRouterImplementation","outputs":[{"internalType":"address","name":"","type":"address"}],"stateMutability":"view","type":"function"},{"inputs":[{"internalType":"address","name":"owner_","type":"address"},{"internalType":"address","name":"pauseRouter_","type":"address"},{"internalType":"address","name":"pauseGuardian_","type":"address"}],"name":"initialize","outputs":[],"stateMutability":"nonpayable","type":"function"},{"inputs":[],"name":"owner","outputs":[{"internalType":"address","name":"","type":"address"}],"stateMutability":"view","type":"function"},{"inputs":[],"name":"pauseGuardian","outputs":[{"internalType":"address","name":"","type":"address"}],"stateMutability":"view","type":"function"},{"inputs":[],"name":"pauseRouter","outputs":[{"internalType":"address","name":"","type":"address"}],"stateMutability":"view","type":"function"}],"bytecode":"6102206040523480156200001257600080fd5b50604051620014ab380380620014ab8339810160408190526200003591620000e0565b6001600160601b031960609c8d1b81166080529a8c1b8b1660a052988b1b8a1660c052968a1b891660e05294891b88166101005292881b87166101205290871b861661014052861b851661016052851b841661018052841b83166101a05233841b61020052831b82166101c05290911b166101e0526000805463ff00000019166301000000179055620001d4565b80516001600160a01b0381168114620000db57600080fd5b919050565b6000806000806000806000806000806000806101808d8f03121562000103578788fd5b6200010e8d620000c3565b9b506200011e60208e01620000c3565b9a506200012e60408e01620000c3565b99506200013e60608e01620000c3565b98506200014e60808e01620000c3565b97506200015e60a08e01620000c3565b96506200016e60c08e01620000c3565b95506200017e60e08e01620000c3565b94506200018f6101008e01620000c3565b9350620001a06101208e01620000c3565b9250620001b16101408e01620000c3565b9150620001c26101608e01620000c3565b90509295989b509295989b509295989b565b60805160601c60a05160601c60c05160601c60e05160601c6101005160601c6101205160601c6101405160601c6101605160601c6101805160601c6101a05160601c6101c05160601c6101e05160601c6102005160601c6111df620002cc60003980610e06525080610bca5280610d8f525080610a7c5280610d23525080610dd95280610e775250806107855280610ca85250806106f45280610cdb5250806106635280610cff5250806105165280610d4752508061031d5280610d6b5250806104505280610c845250806107e05280611009525080610bf15280610c3c5250806109d05280610c605280610ea352506111df6000f3fe6080604052600436106100fe5760003560e01c80636009b8e6116100955780638246336711610064578063824633671461023a5780638da5cb5b1461024f578063a1b4d01114610264578063c0c53b8b14610279578063dcc1a73814610299576100fe565b80636009b8e6146101db5780636d7cdbbf146101f057806372d271341461020557806376e1df481461021a576100fe565b806324a3d622116100d157806324a3d622146101875780632be758951461019c5780632d255471146101b15780632d2c5565146101c6576100fe565b80630c4e79351461011d578063146278341461014857806315beeb931461015d578063206109b514610172575b61011b6101166000356001600160e01b0319166102ae565b610c16565b005b34801561012957600080fd5b50610132610c3a565b60405161013f919061113c565b60405180910390f35b34801561015457600080fd5b50610132610c5e565b34801561016957600080fd5b50610132610c82565b34801561017e57600080fd5b50610132610ca6565b34801561019357600080fd5b50610132610cca565b3480156101a857600080fd5b50610132610cd9565b3480156101bd57600080fd5b50610132610cfd565b3480156101d257600080fd5b50610132610d21565b3480156101e757600080fd5b50610132610d45565b3480156101fc57600080fd5b50610132610d69565b34801561021157600080fd5b50610132610d8d565b34801561022657600080fd5b50610132610235366004611084565b6102ae565b34801561024657600080fd5b50610132610db1565b34801561025b57600080fd5b50610132610dc0565b34801561027057600080fd5b50610132610dd7565b34801561028557600080fd5b5061011b610294366004611042565b610dfb565b3480156102a557600080fd5b50610132611007565b60006001600160e01b03198216633735195360e11b14806102df57506001600160e01b03198216630276b64b60e01b145b806102fa57506001600160e01b03198216635950d8e960e01b145b8061031557506001600160e01b03198216630541f52760e41b145b1561034157507f0000000000000000000000000000000000000000000000000000000000000000610c11565b6001600160e01b03198216636a96e86f60e01b148061037057506001600160e01b0319821663a78dbfff60e01b145b8061038b57506001600160e01b03198216637db31ab960e01b145b806103a657506001600160e01b0319821663184e005360e11b145b806103c157506001600160e01b031982166318ae40d760e01b145b806103dc57506001600160e01b03198216634425384960e11b145b806103f757506001600160e01b03198216636d6503d360e11b145b8061041257506001600160e01b031982166305c1d97560e31b145b8061042d57506001600160e01b03198216631a05bce160e01b145b8061044857506001600160e01b03198216633b2987b360e01b145b1561047457507f0000000000000000000000000000000000000000000000000000000000000000610c11565b6001600160e01b03198216632890fb6560e01b14806104a357506001600160e01b0319821663b8a6945560e01b145b806104bd57506001600160e01b03198216625e665d60e31b145b806104d857506001600160e01b0319821663f667f89760e01b145b806104f357506001600160e01b03198216636689064360e01b145b8061050e57506001600160e01b031982166309c9794560e41b145b1561053a57507f0000000000000000000000000000000000000000000000000000000000000000610c11565b6001600160e01b031982166301ffc9a760e01b148061056857506001600160e01b03198216627eeac760e11b145b8061058357506001600160e01b031982166313849cfd60e21b145b8061059e57506001600160e01b03198216630fac8f0960e01b145b806105b957506001600160e01b031982166381a8685560e01b145b806105d457506001600160e01b03198216637921219560e11b145b806105ef57506001600160e01b03198216631759616b60e11b145b8061060a57506001600160e01b031982166307f4d70160e31b145b8061062557506001600160e01b03198216630e6b43b960e31b145b8061064057506001600160e01b0319821663a22cb46560e01b145b8061065b57506001600160e01b0319821663e985e9c560e01b145b1561068757507f0000000000000000000000000000000000000000000000000000000000000000610c11565b6001600160e01b03198216632d10e6eb60e01b14806106b657506001600160e01b03198216636633af3960e01b145b806106d157506001600160e01b0319821663e3e7cb4f60e01b145b806106ec57506001600160e01b03198216639a600eeb60e01b145b1561071857507f0000000000000000000000000000000000000000000000000000000000000000610c11565b6001600160e01b03198216631ff7aefd60e21b148061074757506001600160e01b0319821663e816469d60e01b145b8061076257506001600160e01b03198216630fb281d960e01b145b8061077d57506001600160e01b0319821663fa37e39560e01b145b156107a957507f0000000000000000000000000000000000000000000000000000000000000000610c11565b6001600160e01b03198216630343819360e61b14806107d857506001600160e01b03198216635db6eac760e11b145b1561080457507f0000000000000000000000000000000000000000000000000000000000000000610c11565b6001600160e01b03198216637abaf27160e11b148061083357506001600160e01b0319821663e31051a160e01b145b8061084e57506001600160e01b0319821663a11a429360e01b145b8061086957506001600160e01b03198216630528476560e51b145b8061088457506001600160e01b0319821663315cb2b960e21b145b8061089f57506001600160e01b03198216632c90b94d60e21b145b806108ba57506001600160e01b031982166309ce3c1960e31b145b806108d557506001600160e01b031982166354ebde2960e11b145b806108f057506001600160e01b031982166398dcbc2360e01b145b8061090b57506001600160e01b031982166333eabd1d60e21b145b8061092657506001600160e01b0319821663413f2c5f60e01b145b8061094157506001600160e01b03198216630d0da86760e21b145b8061095c57506001600160e01b0319821663353abc5d60e01b145b8061097757506001600160e01b0319821663fa17b5f160e01b145b8061099257506001600160e01b0319821663113aa8b160e01b145b806109ad57506001600160e01b03198216631b2ce7f360e11b145b806109c857506001600160e01b0319821663278f794360e11b145b156109f457507f0000000000000000000000000000000000000000000000000000000000000000610c11565b6001600160e01b03198216637d6dbff760e11b1480610a2357506001600160e01b03198216636d7a00eb60e01b145b80610a3e57506001600160e01b03198216637f23d4f960e11b145b80610a5957506001600160e01b0319821663239cec8f60e21b145b80610a7457506001600160e01b031982166312adc47b60e01b145b15610aa057507f0000000000000000000000000000000000000000000000000000000000000000610c11565b6001600160e01b03198216636a09a2a360e01b1480610acf57506001600160e01b03198216638355e89560e01b145b80610aea57506001600160e01b0319821663094614df60e01b145b80610b0557506001600160e01b03198216634beb6d9760e11b145b80610b2057506001600160e01b0319821663c52c43e160e01b145b80610b3b57506001600160e01b03198216635953c77b60e01b145b80610b5657506001600160e01b03198216631f0750c160e31b145b80610b7157506001600160e01b0319821663bac9e8b160e01b145b80610b8c57506001600160e01b0319821663aaae47b560e01b145b80610ba757506001600160e01b0319821663416a158760e01b145b80610bc257506001600160e01b03198216631baefc5d60e21b145b15610bee57507f0000000000000000000000000000000000000000000000000000000000000000610c11565b507f00000000000000000000000000000000000000000000000000000000000000005b919050565b3660008037600080366000845af43d6000803e808015610c35573d6000f35b3d6000fd5b7f000000000000000000000000000000000000000000000000000000000000000081565b7f000000000000000000000000000000000000000000000000000000000000000081565b7f000000000000000000000000000000000000000000000000000000000000000081565b7f000000000000000000000000000000000000000000000000000000000000000081565b6002546001600160a01b031681565b7f000000000000000000000000000000000000000000000000000000000000000081565b7f000000000000000000000000000000000000000000000000000000000000000081565b7f000000000000000000000000000000000000000000000000000000000000000081565b7f000000000000000000000000000000000000000000000000000000000000000081565b7f000000000000000000000000000000000000000000000000000000000000000081565b7f000000000000000000000000000000000000000000000000000000000000000081565b6001546001600160a01b031681565b60005464010000000090046001600160a01b031681565b7f000000000000000000000000000000000000000000000000000000000000000081565b336001600160a01b037f000000000000000000000000000000000000000000000000000000000000000016148015610e3d57506000546301000000900460ff16155b610e4657600080fd5b60008054640100000000600160c01b03191633640100000000021781556040805160a0810182526001600160a01b037f000000000000000000000000000000000000000000000000000000000000000081168252602082018490527f00000000000000000000000000000000000000000000000000000000000000001691637abaf27160e11b9190810160028152600860208083019190915260006040928301819052825160a081018452818152918201529081016003815260126020820152600060409182018190529051610f2c939291908190608590604b90606c90602401611150565b60408051601f198184030181529181526020820180516001600160e01b03166001600160e01b0319909416939093179092529051610f6a9190611103565b600060405180830381855af49150503d8060008114610fa5576040519150601f19603f3d011682016040523d82523d6000602084013e610faa565b606091505b5050905080610fb857600080fd5b50600080546001600160a01b0394851664010000000002640100000000600160c01b0319909116179055600180549284166001600160a01b031993841617905560028054919093169116179055565b7f000000000000000000000000000000000000000000000000000000000000000081565b80356001600160a01b0381168114610c1157600080fd5b600080600060608486031215611056578283fd5b61105f8461102b565b925061106d6020850161102b565b915061107b6040850161102b565b90509250925092565b600060208284031215611095578081fd5b81356001600160e01b0319811681146110ac578182fd5b9392505050565b80516001600160a01b031682526020808201511515908301526040810151600681106110db57fe5b604083015260608181015160ff169083015260809081015168ffffffffffffffffff16910152565b60008251815b818110156111235760208186018101518583015201611109565b818111156111315782828501525b509190910192915050565b6001600160a01b0391909116815260200190565b6101e0810161115f828a6110b3565b61116c60a08301896110b3565b6001600160a01b039690961661014082015293151561016085015260ff9283166101808501529082166101a0840152166101c0909101529291505056fea2646970667358221220b1c0c715404ba3d3880d660fca5f515309a12c2a0b55e8a64a8ebf1009f5932c64736f6c63430007060033","bytecodeSha1":"6109c66451e5589bfd836582a8f7d136a102a24d","compiler":{"evm_version":"istanbul","optimizer":{"enabled":true,"runs":200},"version":"0.7.6+commit.7338295f"},"contractName":"Router","language":"Solidity","natspec":{"kind":"dev","methods":{"getRouterImplementation(bytes4)":{"notice":"Returns the implementation contract for the method signature","params":{"sig":"method signature to call"},"returns":{"_0":"implementation address"}}},"notice":"Sits behind an upgradeable proxy and routes methods to an appropriate implementation contract. All storage will sit inside the upgradeable proxy and this router will authorize the call and re-route the calls to implementing contracts. This pattern adds an additional hop between the proxy and the ultimate implementation contract, however, it also allows for atomic upgrades of the entire system. Individual implementation contracts will be deployed and then a new Router with the new hardcoded addresses will then be deployed and upgraded into place.","version":1},"opcodes":"PUSH1 0x80 PUSH1 0x40 MSTORE PUSH1 0x4 CALLDATASIZE LT PUSH2 0xFE JUMPI PUSH1 0x0 CALLDATALOAD PUSH1 0xE0 SHR DUP1 PUSH4 0x6009B8E6 GT PUSH2 0x95 JUMPI DUP1 PUSH4 0x82463367 GT PUSH2 0x64 JUMPI DUP1 PUSH4 0x82463367 EQ PUSH2 0x23A JUMPI DUP1 PUSH4 0x8DA5CB5B EQ PUSH2 0x24F JUMPI DUP1 PUSH4 0xA1B4D011 EQ PUSH2 0x264 JUMPI DUP1 PUSH4 0xC0C53B8B EQ PUSH2 0x279 JUMPI DUP1 PUSH4 0xDCC1A738 EQ PUSH2 0x299 JUMPI PUSH2 0xFE JUMP JUMPDEST DUP1 PUSH4 0x6009B8E6 EQ PUSH2 0x1DB JUMPI DUP1 PUSH4 0x6D7CDBBF EQ PUSH2 0x1F0 JUMPI DUP1 PUSH4 0x72D27134 EQ PUSH2 0x205 JUMPI DUP1 PUSH4 0x76E1DF48 EQ PUSH2 0x21A JUMPI PUSH2 0xFE JUMP JUMPDEST DUP1 PUSH4 0x24A3D622 GT PUSH2 0xD1 JUMPI DUP1 PUSH4 0x24A3D622 EQ PUSH2 0x187 JUMPI DUP1 PUSH4 0x2BE75895 EQ PUSH2 0x19C JUMPI DUP1 PUSH4 0x2D255471 EQ PUSH2 0x1B1 JUMPI DUP1 PUSH4 0x2D2C5565 EQ PUSH2 0x1C6 JUMPI PUSH2 0xFE JUMP JUMPDEST DUP1 PUSH4 0xC4E7935 EQ PUSH2 0x11D JUMPI DUP1 PUSH4 0x14627834 EQ PUSH2 0x148 JUMPI DUP1 PUSH4 0x15BEEB93 EQ PUSH2 0x15D JUMPI DUP1 PUSH4 0x206109B5 EQ PUSH2 0x172 JUMPI JUMPDEST PUSH2 0x11B PUSH2 0x116 PUSH1 0x0 CALLDATALOAD PUSH1 0x1 PUSH1 0x1 PUSH1 0xE0 SHL SUB NOT AND PUSH2 0x2AE JUMP JUMPDEST PUSH2 0xC16 JUMP JUMPDEST STOP JUMPDEST CALLVALUE DUP1 ISZERO PUSH2 0x129 JUMPI PUSH1 0x0 DUP1 REVERT JUMPDEST POP PUSH2 0x132 PUSH2 0xC3A JUMP JUMPDEST PUSH1 0x40 MLOAD PUSH2 0x13F SWAP2 SWAP1 PUSH2 0x113C JUMP JUMPDEST PUSH1 0x40 MLOAD DUP1 SWAP2 SUB SWAP1 RETURN JUMPDEST CALLVALUE DUP1 ISZERO PUSH2 0x154 JUMPI PUSH1 0x0 DUP1 REVERT JUMPDEST POP PUSH2 0x132 PUSH2 0xC5E JUMP JUMPDEST CALLVALUE DUP1 ISZERO PUSH2 0x169 JUMPI PUSH1 0x0 DUP1 REVERT JUMPDEST POP PUSH2 0x132 PUSH2 0xC82 JUMP JUMPDEST CALLVALUE DUP1 ISZERO PUSH2 0x17E JUMPI PUSH1 0x0 DUP1 REVERT JUMPDEST POP PUSH2 0x132 PUSH2 0xCA6 JUMP JUMPDEST CALLVALUE DUP1 ISZERO PUSH2 0x193 JUMPI PUSH1 0x0 DUP1 REVERT JUMPDEST POP PUSH2 0x132 PUSH2 0xCCA JUMP JUMPDEST CALLVALUE DUP1 ISZERO PUSH2 0x1A8 JUMPI PUSH1 0x0 DUP1 REVERT JUMPDEST POP PUSH2 0x132 PUSH2 0xCD9 JUMP JUMPDEST CALLVALUE DUP1 ISZERO PUSH2 0x1BD JUMPI PUSH1 0x0 DUP1 REVERT JUMPDEST POP PUSH2 0x132 PUSH2 0xCFD JUMP JUMPDEST CALLVALUE DUP1 ISZERO PUSH2 0x1D2 JUMPI PUSH1 0x0 DUP1 REVERT JUMPDEST POP PUSH2 0x132 PUSH2 0xD21 JUMP JUMPDEST CALLVALUE DUP1 ISZERO PUSH2 0x1E7 JUMPI PUSH1 0x0 DUP1 REVERT JUMPDEST POP PUSH2 0x132 PUSH2 0xD45 JUMP JUMPDEST CALLVALUE DUP1 ISZERO PUSH2 0x1FC JUMPI PUSH1 0x0 DUP1 REVERT JUMPDEST POP PUSH2 0x132 PUSH2 0xD69 JUMP JUMPDEST CALLVALUE DUP1 ISZERO PUSH2 0x211 JUMPI PUSH1 0x0 DUP1 REVERT JUMPDEST POP PUSH2 0x132 PUSH2 0xD8D JUMP JUMPDEST CALLVALUE DUP1 ISZERO PUSH2 0x226 JUMPI PUSH1 0x0 DUP1 REVERT JUMPDEST POP PUSH2 0x132 PUSH2 0x235 CALLDATASIZE PUSH1 0x4 PUSH2 0x1084 JUMP JUMPDEST PUSH2 0x2AE JUMP JUMPDEST CALLVALUE DUP1 ISZERO PUSH2 0x246 JUMPI PUSH1 0x0 DUP1 REVERT JUMPDEST POP PUSH2 0x132 PUSH2 0xDB1 JUMP JUMPDEST CALLVALUE DUP1 ISZERO PUSH2 0x25B JUMPI PUSH1 0x0 DUP1 REVERT JUMPDEST POP PUSH2 0x132 PUSH2 0xDC0 JUMP JUMPDEST CALLVALUE DUP1 ISZERO PUSH2 0x270 JUMPI PUSH1 0x0 DUP1 REVERT JUMPDEST POP PUSH2 0x132 PUSH2 0xDD7 JUMP JUMPDEST CALLVALUE DUP1 ISZERO PUSH2 0x285 JUMPI PUSH1 0x0 DUP1 REVERT JUMPDEST POP PUSH2 0x11B PUSH2 0x294 CALLDATASIZE PUSH1 0x4 PUSH2 0x1042 JUMP JUMPDEST PUSH2 0xDFB JUMP JUMPDEST CALLVALUE DUP1 ISZERO PUSH2 0x2A5 JUMPI PUSH1 0x0 DUP1 REVERT JUMPDEST POP PUSH2 0x132 PUSH2 0x1007 JUMP JUMPDEST PUSH1 0x0 PUSH1 0x1 PUSH1 0x1 PUSH1 0xE0 SHL SUB NOT DUP3 AND PUSH4 0x37351953 PUSH1 0xE1 SHL EQ DUP1 PUSH2 0x2DF JUMPI POP PUSH1 0x1 PUSH1 0x1 PUSH1 0xE0 SHL SUB NOT DUP3 AND PUSH4 0x276B64B PUSH1 0xE0 SHL EQ JUMPDEST DUP1 PUSH2 0x2FA JUMPI POP PUSH1 0x1 PUSH1 0x1 PUSH1 0xE0 SHL SUB NOT DUP3 AND PUSH4 0x5950D8E9 PUSH1 0xE0 SHL EQ JUMPDEST DUP1 PUSH2 0x315 JUMPI POP PUSH1 0x1 PUSH1 0x1 PUSH1 0xE0 SHL SUB NOT DUP3 AND PUSH4 0x541F527 PUSH1 0xE4 SHL EQ JUMPDEST ISZERO PUSH2 0x341 JUMPI POP PUSH32 0x0 PUSH2 0xC11 JUMP JUMPDEST PUSH1 0x1 PUSH1 0x1 PUSH1 0xE0 SHL SUB NOT DUP3 AND PUSH4 0x6A96E86F PUSH1 0xE0 SHL EQ DUP1 PUSH2 0x370 JUMPI POP PUSH1 0x1 PUSH1 0x1 PUSH1 0xE0 SHL SUB NOT DUP3 AND PUSH4 0xA78DBFFF PUSH1 0xE0 SHL EQ JUMPDEST DUP1 PUSH2 0x38B JUMPI POP PUSH1 0x1 PUSH1 0x1 PUSH1 0xE0 SHL SUB NOT DUP3 AND PUSH4 0x7DB31AB9 PUSH1 0xE0 SHL EQ JUMPDEST DUP1 PUSH2 0x3A6 JUMPI POP PUSH1 0x1 PUSH1 0x1 PUSH1 0xE0 SHL SUB NOT DUP3 AND PUSH4 0x184E0053 PUSH1 0xE1 SHL EQ JUMPDEST DUP1 PUSH2 0x3C1 JUMPI POP PUSH1 0x1 PUSH1 0x1 PUSH1 0xE0 SHL SUB NOT DUP3 AND PUSH4 0x18AE40D7 PUSH1 0xE0 SHL EQ JUMPDEST DUP1 PUSH2 0x3DC JUMPI POP PUSH1 0x1 PUSH1 0x1 PUSH1 0xE0 SHL SUB NOT DUP3 AND PUSH4 0x44253849 PUSH1 0xE1 SHL EQ JUMPDEST DUP1 PUSH2 0x3F7 JUMPI POP PUSH1 0x1 PUSH1 0x1 PUSH1 0xE0 SHL SUB NOT DUP3 AND PUSH4 0x6D6503D3 PUSH1 0xE1 SHL EQ JUMPDEST DUP1 PUSH2 0x412 JUMPI POP PUSH1 0x1 PUSH1 0x1 PUSH1 0xE0 SHL SUB NOT DUP3 AND PUSH4 0x5C1D975 PUSH1 0xE3 SHL EQ JUMPDEST DUP1 PUSH2 0x42D JUMPI POP PUSH1 0x1 PUSH1 0x1 PUSH1 0xE0 SHL SUB NOT DUP3 AND PUSH4 0x1A05BCE1 PUSH1 0xE0 SHL EQ JUMPDEST DUP1 PUSH2 0x448 JUMPI POP PUSH1 0x1 PUSH1 0x1 PUSH1 0xE0 SHL SUB NOT DUP3 AND PUSH4 0x3B2987B3 PUSH1 0xE0 SHL EQ JUMPDEST ISZERO PUSH2 0x474 JUMPI POP PUSH32 0x0 PUSH2 0xC11 JUMP JUMPDEST PUSH1 0x1 PUSH1 0x1 PUSH1 0xE0 SHL SUB NOT DUP3 AND PUSH4 0x2890FB65 PUSH1 0xE0 SHL EQ DUP1 PUSH2 0x4A3 JUMPI POP PUSH1 0x1 PUSH1 0x1 PUSH1 0xE0 SHL SUB NOT DUP3 AND PUSH4 0xB8A69455 PUSH1 0xE0 SHL EQ JUMPDEST DUP1 PUSH2 0x4BD JUMPI POP PUSH1 0x1 PUSH1 0x1 PUSH1 0xE0 SHL SUB NOT DUP3 AND PUSH3 0x5E665D PUSH1 0xE3 SHL EQ JUMPDEST DUP1 PUSH2 0x4D8 JUMPI POP PUSH1 0x1 PUSH1 0x1 PUSH1 0xE0 SHL SUB NOT DUP3 AND PUSH4 0xF667F897 PUSH1 0xE0 SHL EQ JUMPDEST DUP1 PUSH2 0x4F3 JUMPI POP PUSH1 0x1 PUSH1 0x1 PUSH1 0xE0 SHL SUB NOT DUP3 AND PUSH4 0x66890643 PUSH1 0xE0 SHL EQ JUMPDEST DUP1 PUSH2 0x50E JUMPI POP PUSH1 0x1 PUSH1 0x1 PUSH1 0xE0 SHL SUB NOT DUP3 AND PUSH4 0x9C97945 PUSH1 0xE4 SHL EQ JUMPDEST ISZERO PUSH2 0x53A JUMPI POP PUSH32 0x0 PUSH2 0xC11 JUMP JUMPDEST PUSH1 0x1 PUSH1 0x1 PUSH1 0xE0 SHL SUB NOT DUP3 AND PUSH4 0x1FFC9A7 PUSH1 0xE0 SHL EQ DUP1 PUSH2 0x568 JUMPI POP PUSH1 0x1 PUSH1 0x1 PUSH1 0xE0 SHL SUB NOT DUP3 AND PUSH3 0x7EEAC7 PUSH1 0xE1 SHL EQ JUMPDEST DUP1 PUSH2 0x583 JUMPI POP PUSH1 0x1 PUSH1 0x1 PUSH1 0xE0 SHL SUB NOT DUP3 AND PUSH4 0x13849CFD PUSH1 0xE2 SHL EQ JUMPDEST DUP1 PUSH2 0x59E JUMPI POP PUSH1 0x1 PUSH1 0x1 PUSH1 0xE0 SHL SUB NOT DUP3 AND PUSH4 0xFAC8F09 PUSH1 0xE0 SHL EQ JUMPDEST DUP1 PUSH2 0x5B9 JUMPI POP PUSH1 0x1 PUSH1 0x1 PUSH1 0xE0 SHL SUB NOT DUP3 AND PUSH4 0x81A86855 PUSH1 0xE0 SHL EQ JUMPDEST DUP1 PUSH2 0x5D4 JUMPI POP PUSH1 0x1 PUSH1 0x1 PUSH1 0xE0 SHL SUB NOT DUP3 AND PUSH4 0x79212195 PUSH1 0xE1 SHL EQ JUMPDEST DUP1 PUSH2 0x5EF JUMPI POP PUSH1 0x1 PUSH1 0x1 PUSH1 0xE0 SHL SUB NOT DUP3 AND PUSH4 0x1759616B PUSH1 0xE1 SHL EQ JUMPDEST DUP1 PUSH2 0x60A JUMPI POP PUSH1 0x1 PUSH1 0x1 PUSH1 0xE0 SHL SUB NOT DUP3 AND PUSH4 0x7F4D701 PUSH1 0xE3 SHL EQ JUMPDEST DUP1 PUSH2 0x625 JUMPI POP PUSH1 0x1 PUSH1 0x1 PUSH1 0xE0 SHL SUB NOT DUP3 AND PUSH4 0xE6B43B9 PUSH1 0xE3 SHL EQ JUMPDEST DUP1 PUSH2 0x640 JUMPI POP PUSH1 0x1 PUSH1 0x1 PUSH1 0xE0 SHL SUB NOT DUP3 AND PUSH4 0xA22CB465 PUSH1 0xE0 SHL EQ JUMPDEST DUP1 PUSH2 0x65B JUMPI POP PUSH1 0x1 PUSH1 0x1 PUSH1 0xE0 SHL SUB NOT DUP3 AND PUSH4 0xE985E9C5 PUSH1 0xE0 SHL EQ JUMPDEST ISZERO PUSH2 0x687 JUMPI POP PUSH32 0x0 PUSH2 0xC11 JUMP JUMPDEST PUSH1 0x1 PUSH1 0x1 PUSH1 0xE0 SHL SUB NOT DUP3 AND PUSH4 0x2D10E6EB PUSH1 0xE0 SHL EQ DUP1 PUSH2 0x6B6 JUMPI POP PUSH1 0x1 PUSH1 0x1 PUSH1 0xE0 SHL SUB NOT DUP3 AND PUSH4 0x6633AF39 PUSH1 0xE0 SHL EQ JUMPDEST DUP1 PUSH2 0x6D1 JUMPI POP PUSH1 0x1 PUSH1 0x1 PUSH1 0xE0 SHL SUB NOT DUP3 AND PUSH4 0xE3E7CB4F PUSH1 0xE0 SHL EQ JUMPDEST DUP1 PUSH2 0x6EC JUMPI POP PUSH1 0x1 PUSH1 0x1 PUSH1 0xE0 SHL SUB NOT DUP3 AND PUSH4 0x9A600EEB PUSH1 0xE0 SHL EQ JUMPDEST ISZERO PUSH2 0x718 JUMPI POP PUSH32 0x0 PUSH2 0xC11 JUMP JUMPDEST PUSH1 0x1 PUSH1 0x1 PUSH1 0xE0 SHL SUB NOT DUP3 AND PUSH4 0x1FF7AEFD PUSH1 0xE2 SHL EQ DUP1 PUSH2 0x747 JUMPI POP PUSH1 0x1 PUSH1 0x1 PUSH1 0xE0 SHL SUB NOT DUP3 AND PUSH4 0xE816469D PUSH1 0xE0 SHL EQ JUMPDEST DUP1 PUSH2 0x762 JUMPI POP PUSH1 0x1 PUSH1 0x1 PUSH1 0xE0 SHL SUB NOT DUP3 AND PUSH4 0xFB281D9 PUSH1 0xE0 SHL EQ JUMPDEST DUP1 PUSH2 0x77D JUMPI POP PUSH1 0x1 PUSH1 0x1 PUSH1 0xE0 SHL SUB NOT DUP3 AND PUSH4 0xFA37E395 PUSH1 0xE0 SHL EQ JUMPDEST ISZERO PUSH2 0x7A9 JUMPI POP PUSH32 0x0 PUSH2 0xC11 JUMP JUMPDEST PUSH1 0x1 PUSH1 0x1 PUSH1 0xE0 SHL SUB NOT DUP3 AND PUSH4 0x3438193 PUSH1 0xE6 SHL EQ DUP1 PUSH2 0x7D8 JUMPI POP PUSH1 0x1 PUSH1 0x1 PUSH1 0xE0 SHL SUB NOT DUP3 AND PUSH4 0x5DB6EAC7 PUSH1 0xE1 SHL EQ JUMPDEST ISZERO PUSH2 0x804 JUMPI POP PUSH32 0x0 PUSH2 0xC11 JUMP JUMPDEST PUSH1 0x1 PUSH1 0x1 PUSH1 0xE0 SHL SUB NOT DUP3 AND PUSH4 0x7ABAF271 PUSH1 0xE1 SHL EQ DUP1 PUSH2 0x833 JUMPI POP PUSH1 0x1 PUSH1 0x1 PUSH1 0xE0 SHL SUB NOT DUP3 AND PUSH4 0xE31051A1 PUSH1 0xE0 SHL EQ JUMPDEST DUP1 PUSH2 0x84E JUMPI POP PUSH1 0x1 PUSH1 0x1 PUSH1 0xE0 SHL SUB NOT DUP3 AND PUSH4 0xA11A4293 PUSH1 0xE0 SHL EQ JUMPDEST DUP1 PUSH2 0x869 JUMPI POP PUSH1 0x1 PUSH1 0x1 PUSH1 0xE0 SHL SUB NOT DUP3 AND PUSH4 0x5284765 PUSH1 0xE5 SHL EQ JUMPDEST DUP1 PUSH2 0x884 JUMPI POP PUSH1 0x1 PUSH1 0x1 PUSH1 0xE0 SHL SUB NOT DUP3 AND PUSH4 0x315CB2B9 PUSH1 0xE2 SHL EQ JUMPDEST DUP1 PUSH2 0x89F JUMPI POP PUSH1 0x1 PUSH1 0x1 PUSH1 0xE0 SHL SUB NOT DUP3 AND PUSH4 0x2C90B94D PUSH1 0xE2 SHL EQ JUMPDEST DUP1 PUSH2 0x8BA JUMPI POP PUSH1 0x1 PUSH1 0x1 PUSH1 0xE0 SHL SUB NOT DUP3 AND PUSH4 0x9CE3C19 PUSH1 0xE3 SHL EQ JUMPDEST DUP1 PUSH2 0x8D5 JUMPI POP PUSH1 0x1 PUSH1 0x1 PUSH1 0xE0 SHL SUB NOT DUP3 AND PUSH4 0x54EBDE29 PUSH1 0xE1 SHL EQ JUMPDEST DUP1 PUSH2 0x8F0 JUMPI POP PUSH1 0x1 PUSH1 0x1 PUSH1 0xE0 SHL SUB NOT DUP3 AND PUSH4 0x98DCBC23 PUSH1 0xE0 SHL EQ JUMPDEST DUP1 PUSH2 0x90B JUMPI POP PUSH1 0x1 PUSH1 0x1 PUSH1 0xE0 SHL SUB NOT DUP3 AND PUSH4 0x33EABD1D PUSH1 0xE2 SHL EQ JUMPDEST DUP1 PUSH2 0x926 JUMPI POP PUSH1 0x1 PUSH1 0x1 PUSH1 0xE0 SHL SUB NOT DUP3 AND PUSH4 0x413F2C5F PUSH1 0xE0 SHL EQ JUMPDEST DUP1 PUSH2 0x941 JUMPI POP PUSH1 0x1 PUSH1 0x1 PUSH1 0xE0 SHL SUB NOT DUP3 AND PUSH4 0xD0DA867 PUSH1 0xE2 SHL EQ JUMPDEST DUP1 PUSH2 0x95C JUMPI POP PUSH1 0x1 PUSH1 0x1 PUSH1 0xE0 SHL SUB NOT DUP3 AND PUSH4 0x353ABC5D PUSH1 0xE0 SHL EQ JUMPDEST DUP1 PUSH2 0x977 JUMPI POP PUSH1 0x1 PUSH1 0x1 PUSH1 0xE0 SHL SUB NOT DUP3 AND PUSH4 0xFA17B5F1 PUSH1 0xE0 SHL EQ JUMPDEST DUP1 PUSH2 0x992 JUMPI POP PUSH1 0x1 PUSH1 0x1 PUSH1 0xE0 SHL SUB NOT DUP3 AND PUSH4 0x113AA8B1 PUSH1 0xE0 SHL EQ JUMPDEST DUP1 PUSH2 0x9AD JUMPI POP PUSH1 0x1 PUSH1 0x1 PUSH1 0xE0 SHL SUB NOT DUP3 AND PUSH4 0x1B2CE7F3 PUSH1 0xE1 SHL EQ JUMPDEST DUP1 PUSH2 0x9C8 JUMPI POP PUSH1 0x1 PUSH1 0x1 PUSH1 0xE0 SHL SUB NOT DUP3 AND PUSH4 0x278F7943 PUSH1 0xE1 SHL EQ JUMPDEST ISZERO PUSH2 0x9F4 JUMPI POP PUSH32 0x0 PUSH2 0xC11 JUMP JUMPDEST PUSH1 0x1 PUSH1 0x1 PUSH1 0xE0 SHL SUB NOT DUP3 AND PUSH4 0x7D6DBFF7 PUSH1 0xE1 SHL EQ DUP1 PUSH2 0xA23 JUMPI POP PUSH1 0x1 PUSH1 0x1 PUSH1 0xE0 SHL SUB NOT DUP3 AND PUSH4 0x6D7A00EB PUSH1 0xE0 SHL EQ JUMPDEST DUP1 PUSH2 0xA3E JUMPI POP PUSH1 0x1 PUSH1 0x1 PUSH1 0xE0 SHL SUB NOT DUP3 AND PUSH4 0x7F23D4F9 PUSH1 0xE1 SHL EQ JUMPDEST DUP1 PUSH2 0xA59 JUMPI POP PUSH1 0x1 PUSH1 0x1 PUSH1 0xE0 SHL SUB NOT DUP3 AND PUSH4 0x239CEC8F PUSH1 0xE2 SHL EQ JUMPDEST DUP1 PUSH2 0xA74 JUMPI POP PUSH1 0x1 PUSH1 0x1 PUSH1 0xE0 SHL SUB NOT DUP3 AND PUSH4 0x12ADC47B PUSH1 0xE0 SHL EQ JUMPDEST ISZERO PUSH2 0xAA0 JUMPI POP PUSH32 0x0 PUSH2 0xC11 JUMP JUMPDEST PUSH1 0x1 PUSH1 0x1 PUSH1 0xE0 SHL SUB NOT DUP3 AND PUSH4 0x6A09A2A3 PUSH1 0xE0 SHL EQ DUP1 PUSH2 0xACF JUMPI POP PUSH1 0x1 PUSH1 0x1 PUSH1 0xE0 SHL SUB NOT DUP3 AND PUSH4 0x8355E895 PUSH1 0xE0 SHL EQ JUMPDEST DUP1 PUSH2 0xAEA JUMPI POP PUSH1 0x1 PUSH1 0x1 PUSH1 0xE0 SHL SUB NOT DUP3 AND PUSH4 0x94614DF PUSH1 0xE0 SHL EQ JUMPDEST DUP1 PUSH2 0xB05 JUMPI POP PUSH1 0x1 PUSH1 0x1 PUSH1 0xE0 SHL SUB NOT DUP3 AND PUSH4 0x4BEB6D97 PUSH1 0xE1 SHL EQ JUMPDEST DUP1 PUSH2 0xB20 JUMPI POP PUSH1 0x1 PUSH1 0x1 PUSH1 0xE0 SHL SUB NOT DUP3 AND PUSH4 0xC52C43E1 PUSH1 0xE0 SHL EQ JUMPDEST DUP1 PUSH2 0xB3B JUMPI POP PUSH1 0x1 PUSH1 0x1 PUSH1 0xE0 SHL SUB NOT DUP3 AND PUSH4 0x5953C77B PUSH1 0xE0 SHL EQ JUMPDEST DUP1 PUSH2 0xB56 JUMPI POP PUSH1 0x1 PUSH1 0x1 PUSH1 0xE0 SHL SUB NOT DUP3 AND PUSH4 0x1F0750C1 PUSH1 0xE3 SHL EQ JUMPDEST DUP1 PUSH2 0xB71 JUMPI POP PUSH1 0x1 PUSH1 0x1 PUSH1 0xE0 SHL SUB NOT DUP3 AND PUSH4 0xBAC9E8B1 PUSH1 0xE0 SHL EQ JUMPDEST DUP1 PUSH2 0xB8C JUMPI POP PUSH1 0x1 PUSH1 0x1 PUSH1 0xE0 SHL SUB NOT DUP3 AND PUSH4 0xAAAE47B5 PUSH1 0xE0 SHL EQ JUMPDEST DUP1 PUSH2 0xBA7 JUMPI POP PUSH1 0x1 PUSH1 0x1 PUSH1 0xE0 SHL SUB NOT DUP3 AND PUSH4 0x416A1587 PUSH1 0xE0 SHL EQ JUMPDEST DUP1 PUSH2 0xBC2 JUMPI POP PUSH1 0x1 PUSH1 0x1 PUSH1 0xE0 SHL SUB NOT DUP3 AND PUSH4 0x1BAEFC5D PUSH1 0xE2 SHL EQ JUMPDEST ISZERO PUSH2 0xBEE JUMPI POP PUSH32 0x0 PUSH2 0xC11 JUMP JUMPDEST POP PUSH32 0x0 JUMPDEST SWAP2 SWAP1 POP JUMP JUMPDEST CALLDATASIZE PUSH1 0x0 DUP1 CALLDATACOPY PUSH1 0x0 DUP1 CALLDATASIZE PUSH1 0x0 DUP5 GAS DELEGATECALL RETURNDATASIZE PUSH1 0x0 DUP1 RETURNDATACOPY DUP1 DUP1 ISZERO PUSH2 0xC35 JUMPI RETURNDATASIZE PUSH1 0x0 RETURN JUMPDEST RETURNDATASIZE PUSH1 0x0 REVERT JUMPDEST PUSH32 0x0 DUP2 JUMP JUMPDEST PUSH32 0x0 DUP2 JUMP JUMPDEST PUSH32 0x0 DUP2 JUMP JUMPDEST PUSH32 0x0 DUP2 JUMP JUMPDEST PUSH1 0x2 SLOAD PUSH1 0x1 PUSH1 0x1 PUSH1 0xA0 SHL SUB AND DUP2 JUMP JUMPDEST PUSH32 0x0 DUP2 JUMP JUMPDEST PUSH32 0x0 DUP2 JUMP JUMPDEST PUSH32 0x0 DUP2 JUMP JUMPDEST PUSH32 0x0 DUP2 JUMP JUMPDEST PUSH32 0x0 DUP2 JUMP JUMPDEST PUSH32 0x0 DUP2 JUMP JUMPDEST PUSH1 0x1 SLOAD PUSH1 0x1 PUSH1 0x1 PUSH1 0xA0 SHL SUB AND DUP2 JUMP JUMPDEST PUSH1 0x0 SLOAD PUSH5 0x100000000 SWAP1 DIV PUSH1 0x1 PUSH1 0x1 PUSH1 0xA0 SHL SUB AND DUP2 JUMP JUMPDEST PUSH32 0x0 DUP2 JUMP JUMPDEST CALLER PUSH1 0x1 PUSH1 0x1 PUSH1 0xA0 SHL SUB PUSH32 0x0 AND EQ DUP1 ISZERO PUSH2 0xE3D JUMPI POP PUSH1 0x0 SLOAD PUSH4 0x1000000 SWAP1 DIV PUSH1 0xFF AND ISZERO JUMPDEST PUSH2 0xE46 JUMPI PUSH1 0x0 DUP1 REVERT JUMPDEST PUSH1 0x0 DUP1 SLOAD PUSH5 0x100000000 PUSH1 0x1 PUSH1 0xC0 SHL SUB NOT AND CALLER PUSH5 0x100000000 MUL OR DUP2 SSTORE PUSH1 0x40 DUP1 MLOAD PUSH1 0xA0 DUP2 ADD DUP3 MSTORE PUSH1 0x1 PUSH1 0x1 PUSH1 0xA0 SHL SUB PUSH32 0x0 DUP2 AND DUP3 MSTORE PUSH1 0x20 DUP3 ADD DUP5 SWAP1 MSTORE PUSH32 0x0 AND SWAP2 PUSH4 0x7ABAF271 PUSH1 0xE1 SHL SWAP2 SWAP1 DUP2 ADD PUSH1 0x2 DUP2 MSTORE PUSH1 0x8 PUSH1 0x20 DUP1 DUP4 ADD SWAP2 SWAP1 SWAP2 MSTORE PUSH1 0x0 PUSH1 0x40 SWAP3 DUP4 ADD DUP2 SWAP1 MSTORE DUP3 MLOAD PUSH1 0xA0 DUP2 ADD DUP5 MSTORE DUP2 DUP2 MSTORE SWAP2 DUP3 ADD MSTORE SWAP1 DUP2 ADD PUSH1 0x3 DUP2 MSTORE PUSH1 0x12 PUSH1 0x20 DUP3 ADD MSTORE PUSH1 0x0 PUSH1 0x40 SWAP2 DUP3 ADD DUP2 SWAP1 MSTORE SWAP1 MLOAD PUSH2 0xF2C SWAP4 SWAP3 SWAP2 SWAP1 DUP2 SWAP1 PUSH1 0x85 SWAP1 PUSH1 0x4B SWAP1 PUSH1 0x6C SWAP1 PUSH1 0x24 ADD PUSH2 0x1150 JUMP JUMPDEST PUSH1 0x40 DUP1 MLOAD PUSH1 0x1F NOT DUP2 DUP5 SUB ADD DUP2 MSTORE SWAP2 DUP2 MSTORE PUSH1 0x20 DUP3 ADD DUP1 MLOAD PUSH1 0x1 PUSH1 0x1 PUSH1 0xE0 SHL SUB AND PUSH1 0x1 PUSH1 0x1 PUSH1 0xE0 SHL SUB NOT SWAP1 SWAP5 AND SWAP4 SWAP1 SWAP4 OR SWAP1 SWAP3 MSTORE SWAP1 MLOAD PUSH2 0xF6A SWAP2 SWAP1 PUSH2 0x1103 JUMP JUMPDEST PUSH1 0x0 PUSH1 0x40 MLOAD DUP1 DUP4 SUB DUP2 DUP6 GAS DELEGATECALL SWAP2 POP POP RETURNDATASIZE DUP1 PUSH1 0x0 DUP2 EQ PUSH2 0xFA5 JUMPI PUSH1 0x40 MLOAD SWAP2 POP PUSH1 0x1F NOT PUSH1 0x3F RETURNDATASIZE ADD AND DUP3 ADD PUSH1 0x40 MSTORE RETURNDATASIZE DUP3 MSTORE RETURNDATASIZE PUSH1 0x0 PUSH1 0x20 DUP5 ADD RETURNDATACOPY PUSH2 0xFAA JUMP JUMPDEST PUSH1 0x60 SWAP2 POP JUMPDEST POP POP SWAP1 POP DUP1 PUSH2 0xFB8 JUMPI PUSH1 0x0 DUP1 REVERT JUMPDEST POP PUSH1 0x0 DUP1 SLOAD PUSH1 0x1 PUSH1 0x1 PUSH1 0xA0 SHL SUB SWAP5 DUP6 AND PUSH5 0x100000000 MUL PUSH5 0x100000000 PUSH1 0x1 PUSH1 0xC0 SHL SUB NOT SWAP1 SWAP2 AND OR SWAP1 SSTORE PUSH1 0x1 DUP1 SLOAD SWAP3 DUP5 AND PUSH1 0x1 PUSH1 0x1 PUSH1 0xA0 SHL SUB NOT SWAP4 DUP5 AND OR SWAP1 SSTORE PUSH1 0x2 DUP1 SLOAD SWAP2 SWAP1 SWAP4 AND SWAP2 AND OR SWAP1 SSTORE JUMP JUMPDEST PUSH32 0x0 DUP2 JUMP JUMPDEST DUP1 CALLDATALOAD PUSH1 0x1 PUSH1 0x1 PUSH1 0xA0 SHL SUB DUP2 AND DUP2 EQ PUSH2 0xC11 JUMPI PUSH1 0x0 DUP1 REVERT JUMPDEST PUSH1 0x0 DUP1 PUSH1 0x0 PUSH1 0x60 DUP5 DUP7 SUB SLT ISZERO PUSH2 0x1056 JUMPI DUP3 DUP4 REVERT JUMPDEST PUSH2 0x105F DUP5 PUSH2 0x102B JUMP JUMPDEST SWAP3 POP PUSH2 0x106D PUSH1 0x20 DUP6 ADD PUSH2 0x102B JUMP JUMPDEST SWAP2 POP PUSH2 0x107B PUSH1 0x40 DUP6 ADD PUSH2 0x102B JUMP JUMPDEST SWAP1 POP SWAP3 POP SWAP3 POP SWAP3 JUMP JUMPDEST PUSH1 0x0 PUSH1 0x20 DUP3 DUP5 SUB SLT ISZERO PUSH2 0x1095 JUMPI DUP1 DUP2 REVERT JUMPDEST DUP2 CALLDATALOAD PUSH1 0x1 PUSH1 0x1 PUSH1 0xE0 SHL SUB NOT DUP2 AND DUP2 EQ PUSH2 0x10AC JUMPI DUP2 DUP3 REVERT JUMPDEST SWAP4 SWAP3 POP POP POP JUMP JUMPDEST DUP1 MLOAD PUSH1 0x1 PUSH1 0x1 PUSH1 0xA0 SHL SUB AND DUP3 MSTORE PUSH1 0x20 DUP1 DUP3 ADD MLOAD ISZERO ISZERO SWAP1 DUP4 ADD MSTORE PUSH1 0x40 DUP2 ADD MLOAD PUSH1 0x6 DUP2 LT PUSH2 0x10DB JUMPI INVALID JUMPDEST PUSH1 0x40 DUP4 ADD MSTORE PUSH1 0x60 DUP2 DUP2 ADD MLOAD PUSH1 0xFF AND SWAP1 DUP4 ADD MSTORE PUSH1 0x80 SWAP1 DUP2 ADD MLOAD PUSH9 0xFFFFFFFFFFFFFFFFFF AND SWAP2 ADD MSTORE JUMP JUMPDEST PUSH1 0x0 DUP3 MLOAD DUP2 JUMPDEST DUP2 DUP2 LT ISZERO PUSH2 0x1123 JUMPI PUSH1 0x20 DUP2 DUP7 ADD DUP2 ADD MLOAD DUP6 DUP4 ADD MSTORE ADD PUSH2 0x1109 JUMP JUMPDEST DUP2 DUP2 GT ISZERO PUSH2 0x1131 JUMPI DUP3 DUP3 DUP6 ADD MSTORE JUMPDEST POP SWAP2 SWAP1 SWAP2 ADD SWAP3 SWAP2 POP POP JUMP JUMPDEST PUSH1 0x1 PUSH1 0x1 PUSH1 0xA0 SHL SUB SWAP2 SWAP1 SWAP2 AND DUP2 MSTORE PUSH1 0x20 ADD SWAP1 JUMP JUMPDEST PUSH2 0x1E0 DUP2 ADD PUSH2 0x115F DUP3 DUP11 PUSH2 0x10B3 JUMP JUMPDEST PUSH2 0x116C PUSH1 0xA0 DUP4 ADD DUP10 PUSH2 0x10B3 JUMP JUMPDEST PUSH1 0x1 PUSH1 0x1 PUSH1 0xA0 SHL SUB SWAP7 SWAP1 SWAP7 AND PUSH2 0x140 DUP3 ADD MSTORE SWAP4 ISZERO ISZERO PUSH2 0x160 DUP6 ADD MSTORE PUSH1 0xFF SWAP3 DUP4 AND PUSH2 0x180 DUP6 ADD MSTORE SWAP1 DUP3 AND PUSH2 0x1A0 DUP5 ADD MSTORE AND PUSH2 0x1C0 SWAP1 SWAP2 ADD MSTORE SWAP3 SWAP2 POP POP JUMP INVALID LOG2 PUSH5 0x6970667358 0x22 SLT KECCAK256 0xB1 0xC0 0xC7 ISZERO BLOCKHASH 0x4B LOG3 0xD3 DUP9 0xD PUSH7 0xFCA5F515309A1 0x2C 0x2A SIGNEXTEND SSTORE 0xE8 0xA6 0x4A DUP15 0xBF LT MULMOD CREATE2 SWAP4 0x2C PUSH5 0x736F6C6343 STOP SMOD MOD STOP CALLER ","sha1":"d21f4cfb62386417f8a75caf4df2f9eacac39e80","source":"// SPDX-License-Identifier: GPL-3.0-only\npragma solidity ^0.7.0;\npragma abicoder v2;\n\nimport \"./actions/nTokenAction.sol\";\nimport \"./actions/nTokenMintAction.sol\";\nimport \"../global/StorageLayoutV1.sol\";\nimport \"../global/Types.sol\";\nimport \"../../interfaces/notional/NotionalProxy.sol\";\nimport \"../../interfaces/notional/nERC1155Interface.sol\";\nimport \"../../interfaces/notional/NotionalGovernance.sol\";\nimport \"../../interfaces/notional/NotionalCalculations.sol\";\n\n/**\n * @notice Sits behind an upgradeable proxy and routes methods to an appropriate implementation contract. All storage\n * will sit inside the upgradeable proxy and this router will authorize the call and re-route the calls to implementing\n * contracts.\n *\n * This pattern adds an additional hop between the proxy and the ultimate implementation contract, however, it also\n * allows for atomic upgrades of the entire system. Individual implementation contracts will be deployed and then a\n * new Router with the new hardcoded addresses will then be deployed and upgraded into place.\n */\ncontract Router is StorageLayoutV1 {\n    // These contract addresses cannot be changed once set by the constructor\n    address public immutable GOVERNANCE;\n    address public immutable VIEWS;\n    address public immutable INITIALIZE_MARKET;\n    address public immutable NTOKEN_ACTIONS;\n    address public immutable BATCH_ACTION;\n    address public immutable ACCOUNT_ACTION;\n    address public immutable ERC1155;\n    address public immutable LIQUIDATE_CURRENCY;\n    address public immutable LIQUIDATE_FCASH;\n    address public immutable cETH;\n    address public immutable TREASURY;\n    address public immutable CALCULATION_VIEWS;\n    address private immutable DEPLOYER;\n\n    constructor(\n        address governance_,\n        address views_,\n        address initializeMarket_,\n        address nTokenActions_,\n        address batchAction_,\n        address accountAction_,\n        address erc1155_,\n        address liquidateCurrency_,\n        address liquidatefCash_,\n        address cETH_,\n        address treasury_,\n        address calculationViews_\n    ) {\n        GOVERNANCE = governance_;\n        VIEWS = views_;\n        INITIALIZE_MARKET = initializeMarket_;\n        NTOKEN_ACTIONS = nTokenActions_;\n        BATCH_ACTION = batchAction_;\n        ACCOUNT_ACTION = accountAction_;\n        ERC1155 = erc1155_;\n        LIQUIDATE_CURRENCY = liquidateCurrency_;\n        LIQUIDATE_FCASH = liquidatefCash_;\n        cETH = cETH_;\n        DEPLOYER = msg.sender;\n        TREASURY = treasury_;\n        CALCULATION_VIEWS = calculationViews_;\n\n        // This will lock everyone from calling initialize on the implementation contract\n        hasInitialized = true;\n    }\n\n    function initialize(address owner_, address pauseRouter_, address pauseGuardian_) public {\n        // Check that only the deployer can initialize\n        require(msg.sender == DEPLOYER && !hasInitialized);\n\n        // Allow list currency to be called by this contract for the purposes of\n        // initializing ETH as a currency\n        owner = msg.sender;\n        // List ETH as currency id == 1, NOTE: return value is ignored here\n\n        // FIXME: on non-mainnet deployments we should be using WETH instead here...\n        (bool status, ) =\n            address(GOVERNANCE).delegatecall(\n                abi.encodeWithSelector(\n                    NotionalGovernance.listCurrency.selector,\n                    TokenStorage(cETH, false, TokenType.cETH, Constants.CETH_DECIMAL_PLACES, 0),\n                    // No underlying set for cETH\n                    TokenStorage(address(0), false, TokenType.Ether, Constants.ETH_DECIMAL_PLACES, 0),\n                    address(0),\n                    false,\n                    133, // Initial settings of 133% buffer\n                    75,  // 75% haircut\n                    108  // 8% liquidation discount\n                )\n            );\n        require(status);\n\n        owner = owner_;\n        // The pause guardian may downgrade the router to the pauseRouter\n        pauseRouter = pauseRouter_;\n        pauseGuardian = pauseGuardian_;\n\n        hasInitialized == true;\n    }\n\n    /// @notice Returns the implementation contract for the method signature\n    /// @param sig method signature to call\n    /// @return implementation address\n    function getRouterImplementation(bytes4 sig) public view returns (address) {\n        if (\n            sig == NotionalProxy.batchBalanceAction.selector ||\n            sig == NotionalProxy.batchBalanceAndTradeAction.selector ||\n            sig == NotionalProxy.batchBalanceAndTradeActionWithCallback.selector ||\n            sig == NotionalProxy.batchLend.selector\n        ) {\n            return BATCH_ACTION;\n        } else if (\n            sig == nTokenAction.nTokenTotalSupply.selector ||\n            sig == nTokenAction.nTokenBalanceOf.selector ||\n            sig == nTokenAction.nTokenTransferAllowance.selector ||\n            sig == nTokenAction.nTokenTransferApprove.selector ||\n            sig == nTokenAction.nTokenTransfer.selector ||\n            sig == nTokenAction.nTokenTransferFrom.selector ||\n            sig == nTokenAction.nTokenClaimIncentives.selector ||\n            sig == nTokenAction.nTokenTransferApproveAll.selector ||\n            sig == nTokenAction.nTokenPresentValueAssetDenominated.selector ||\n            sig == nTokenAction.nTokenPresentValueUnderlyingDenominated.selector\n        ) {\n            return NTOKEN_ACTIONS;\n        } else if (\n            sig == NotionalProxy.depositUnderlyingToken.selector ||\n            sig == NotionalProxy.depositAssetToken.selector ||\n            sig == NotionalProxy.withdraw.selector ||\n            sig == NotionalProxy.settleAccount.selector ||\n            sig == NotionalProxy.nTokenRedeem.selector ||\n            sig == NotionalProxy.enableBitmapCurrency.selector\n        ) {\n            return ACCOUNT_ACTION;\n        } else if (\n            sig == nERC1155Interface.supportsInterface.selector ||\n            sig == nERC1155Interface.balanceOf.selector ||\n            sig == nERC1155Interface.balanceOfBatch.selector ||\n            sig == nERC1155Interface.signedBalanceOf.selector ||\n            sig == nERC1155Interface.signedBalanceOfBatch.selector ||\n            sig == nERC1155Interface.safeTransferFrom.selector ||\n            sig == nERC1155Interface.safeBatchTransferFrom.selector ||\n            sig == nERC1155Interface.decodeToAssets.selector ||\n            sig == nERC1155Interface.encodeToId.selector ||\n            sig == nERC1155Interface.setApprovalForAll.selector ||\n            sig == nERC1155Interface.isApprovedForAll.selector\n        ) {\n            return ERC1155;\n        } else if (\n            sig == NotionalProxy.liquidateLocalCurrency.selector ||\n            sig == NotionalProxy.liquidateCollateralCurrency.selector ||\n            sig == NotionalProxy.calculateLocalCurrencyLiquidation.selector ||\n            sig == NotionalProxy.calculateCollateralCurrencyLiquidation.selector\n        ) {\n            return LIQUIDATE_CURRENCY;\n        } else if (\n            sig == NotionalProxy.liquidatefCashLocal.selector ||\n            sig == NotionalProxy.liquidatefCashCrossCurrency.selector ||\n            sig == NotionalProxy.calculatefCashLocalLiquidation.selector ||\n            sig == NotionalProxy.calculatefCashCrossCurrencyLiquidation.selector\n        ) {\n            return LIQUIDATE_FCASH;\n        } else if (\n            sig == NotionalProxy.initializeMarkets.selector ||\n            sig == NotionalProxy.sweepCashIntoMarkets.selector\n        ) {\n            return INITIALIZE_MARKET;\n        } else if (\n            sig == NotionalGovernance.listCurrency.selector ||\n            sig == NotionalGovernance.enableCashGroup.selector ||\n            sig == NotionalGovernance.updateCashGroup.selector ||\n            sig == NotionalGovernance.updateAssetRate.selector ||\n            sig == NotionalGovernance.updateETHRate.selector ||\n            sig == NotionalGovernance.transferOwnership.selector ||\n            sig == NotionalGovernance.claimOwnership.selector ||\n            sig == NotionalGovernance.updateIncentiveEmissionRate.selector ||\n            sig == NotionalGovernance.updateMaxCollateralBalance.selector ||\n            sig == NotionalGovernance.updateDepositParameters.selector ||\n            sig == NotionalGovernance.updateInitializationParameters.selector ||\n            sig == NotionalGovernance.updateTokenCollateralParameters.selector ||\n            sig == NotionalGovernance.updateGlobalTransferOperator.selector ||\n            sig == NotionalGovernance.updateAuthorizedCallbackContract.selector ||\n            sig == NotionalGovernance.setLendingPool.selector ||\n            sig == NotionalProxy.upgradeTo.selector ||\n            sig == NotionalProxy.upgradeToAndCall.selector\n        ) {\n            return GOVERNANCE;\n        } else if (\n            sig == NotionalTreasury.claimCOMPAndTransfer.selector ||\n            sig == NotionalTreasury.transferReserveToTreasury.selector ||\n            sig == NotionalTreasury.setTreasuryManager.selector ||\n            sig == NotionalTreasury.setReserveBuffer.selector ||\n            sig == NotionalTreasury.setReserveCashBalance.selector\n        ) {\n            return TREASURY;\n        } else if (\n            sig == NotionalCalculations.calculateNTokensToMint.selector ||\n            sig == NotionalCalculations.getfCashAmountGivenCashAmount.selector ||\n            sig == NotionalCalculations.getCashAmountGivenfCashAmount.selector ||\n            sig == NotionalCalculations.nTokenGetClaimableIncentives.selector ||\n            sig == NotionalCalculations.getPresentfCashValue.selector ||\n            sig == NotionalCalculations.getMarketIndex.selector ||\n            sig == NotionalCalculations.getfCashLendFromDeposit.selector ||\n            sig == NotionalCalculations.getfCashBorrowFromPrincipal.selector ||\n            sig == NotionalCalculations.getDepositFromfCashLend.selector ||\n            sig == NotionalCalculations.getPrincipalFromfCashBorrow.selector ||\n            sig == NotionalCalculations.convertCashBalanceToExternal.selector\n        ) {\n            return CALCULATION_VIEWS;\n        } else {\n            // If not found then delegate to views. This will revert if there is no method on\n            // the view contract\n            return VIEWS;\n        }\n    }\n\n    /// @dev Delegates the current call to `implementation`.\n    /// This function does not return to its internal call site, it will return directly to the external caller.\n    function _delegate(address implementation) private {\n        // solhint-disable-next-line no-inline-assembly\n        assembly {\n            // Copy msg.data. We take full control of memory in this inline assembly\n            // block because it will not return to Solidity code. We overwrite the\n            // Solidity scratch pad at memory position 0.\n            calldatacopy(0, 0, calldatasize())\n\n            // Call the implementation.\n            // out and outsize are 0 because we don't know the size yet.\n            let result := delegatecall(gas(), implementation, 0, calldatasize(), 0, 0)\n\n            // Copy the returned data.\n            returndatacopy(0, 0, returndatasize())\n\n            switch result\n                // delegatecall returns 0 on error.\n                case 0 {\n                    revert(0, returndatasize())\n                }\n                default {\n                    return(0, returndatasize())\n                }\n        }\n    }\n\n    fallback() external payable {\n        _delegate(getRouterImplementation(msg.sig));\n    }\n\n    // NOTE: receive() is overridden in \"nProxy\" to allow for eth transfers to succeed\n}\n","sourcePath":"contracts/external/Router.sol","type":"contract","deployment":{"address":"0x14cf27E32E35E08E2662515C2cDB422358825507","chainid":"5","blockHeight":7182812}}