{"abi":[{"anonymous":false,"inputs":[{"indexed":true,"internalType":"address","name":"vault","type":"address"},{"indexed":true,"internalType":"uint16","name":"currencyId","type":"uint16"},{"indexed":true,"internalType":"uint256","name":"maturity","type":"uint256"},{"indexed":false,"internalType":"int256","name":"shortfall","type":"int256"}],"name":"ProtocolInsolvency","type":"event"},{"anonymous":false,"inputs":[{"indexed":true,"internalType":"address","name":"vault","type":"address"},{"indexed":true,"internalType":"uint16","name":"currencyId","type":"uint16"},{"indexed":false,"internalType":"uint256","name":"totalUsedBorrowCapacity","type":"uint256"}],"name":"VaultBorrowCapacityChange","type":"event"},{"anonymous":false,"inputs":[{"indexed":true,"internalType":"address","name":"vault","type":"address"},{"indexed":true,"internalType":"uint16","name":"currencyId","type":"uint16"},{"indexed":true,"internalType":"uint256","name":"maturity","type":"uint256"},{"indexed":false,"internalType":"int256","name":"reserveFee","type":"int256"},{"indexed":false,"internalType":"int256","name":"nTokenFee","type":"int256"}],"name":"VaultFeeAccrued","type":"event"},{"anonymous":false,"inputs":[{"indexed":true,"internalType":"address","name":"vault","type":"address"},{"indexed":true,"internalType":"uint256","name":"maturity","type":"uint256"},{"indexed":false,"internalType":"uint256","name":"assetCashDeposited","type":"uint256"},{"indexed":false,"internalType":"uint256","name":"strategyTokensMinted","type":"uint256"}],"name":"VaultMintStrategyToken","type":"event"},{"anonymous":false,"inputs":[{"indexed":true,"internalType":"address","name":"vault","type":"address"},{"indexed":false,"internalType":"bool","name":"enabled","type":"bool"}],"name":"VaultPauseStatus","type":"event"},{"anonymous":false,"inputs":[{"indexed":true,"internalType":"address","name":"vault","type":"address"},{"indexed":true,"internalType":"uint256","name":"maturity","type":"uint256"},{"indexed":false,"internalType":"int256","name":"assetCashReceived","type":"int256"},{"indexed":false,"internalType":"uint256","name":"strategyTokensRedeemed","type":"uint256"}],"name":"VaultRedeemStrategyToken","type":"event"},{"anonymous":false,"inputs":[{"indexed":true,"internalType":"address","name":"vault","type":"address"},{"indexed":true,"internalType":"address","name":"account","type":"address"},{"indexed":true,"internalType":"uint16","name":"currencyId","type":"uint16"},{"indexed":false,"internalType":"uint256","name":"maturity","type":"uint256"},{"indexed":false,"internalType":"uint256","name":"debtSharesRepaid","type":"uint256"},{"indexed":false,"internalType":"uint256","name":"fCashLent","type":"uint256"}],"name":"VaultRepaySecondaryBorrow","type":"event"},{"anonymous":false,"inputs":[{"indexed":true,"internalType":"address","name":"vault","type":"address"},{"indexed":true,"internalType":"address","name":"account","type":"address"},{"indexed":true,"internalType":"uint16","name":"currencyId","type":"uint16"},{"indexed":false,"internalType":"uint256","name":"maturity","type":"uint256"},{"indexed":false,"internalType":"uint256","name":"debtSharesMinted","type":"uint256"},{"indexed":false,"internalType":"uint256","name":"fCashBorrowed","type":"uint256"}],"name":"VaultSecondaryBorrow","type":"event"},{"anonymous":false,"inputs":[{"indexed":true,"internalType":"address","name":"vault","type":"address"},{"indexed":true,"internalType":"uint16","name":"currencyId","type":"uint16"},{"indexed":true,"internalType":"uint256","name":"maturity","type":"uint256"},{"indexed":false,"internalType":"int256","name":"totalfCashBorrowedInPrimarySnapshot","type":"int256"},{"indexed":false,"internalType":"int256","name":"exchangeRate","type":"int256"}],"name":"VaultSecondaryBorrowSnapshot","type":"event"},{"anonymous":false,"inputs":[{"indexed":true,"internalType":"address","name":"vault","type":"address"},{"indexed":true,"internalType":"uint256","name":"maturity","type":"uint256"},{"indexed":false,"internalType":"int256","name":"totalfCash","type":"int256"},{"indexed":false,"internalType":"uint256","name":"totalAssetCash","type":"uint256"},{"indexed":false,"internalType":"uint256","name":"totalStrategyTokens","type":"uint256"},{"indexed":false,"internalType":"uint256","name":"totalVaultShares","type":"uint256"},{"indexed":false,"internalType":"int256","name":"strategyTokenValue","type":"int256"}],"name":"VaultSettled","type":"event"},{"anonymous":false,"inputs":[{"indexed":true,"internalType":"address","name":"vault","type":"address"},{"indexed":true,"internalType":"uint256","name":"maturity","type":"uint256"},{"indexed":false,"internalType":"int256","name":"remainingAssetCash","type":"int256"},{"indexed":false,"internalType":"uint256","name":"remainingStrategyTokens","type":"uint256"}],"name":"VaultSettledAssetsRemaining","type":"event"},{"anonymous":false,"inputs":[{"indexed":true,"internalType":"address","name":"vault","type":"address"},{"indexed":true,"internalType":"uint16","name":"currencyId","type":"uint16"},{"indexed":true,"internalType":"uint256","name":"maturity","type":"uint256"},{"indexed":false,"internalType":"int256","name":"shortfall","type":"int256"}],"name":"VaultShortfall","type":"event"},{"anonymous":false,"inputs":[{"indexed":true,"internalType":"address","name":"vault","type":"address"},{"indexed":true,"internalType":"uint256","name":"maturity","type":"uint256"},{"indexed":false,"internalType":"int256","name":"totalfCash","type":"int256"},{"indexed":false,"internalType":"uint256","name":"totalAssetCash","type":"uint256"},{"indexed":false,"internalType":"uint256","name":"totalStrategyTokens","type":"uint256"},{"indexed":false,"internalType":"uint256","name":"totalVaultShares","type":"uint256"}],"name":"VaultStateUpdate","type":"event"},{"anonymous":false,"inputs":[{"indexed":true,"internalType":"address","name":"vault","type":"address"},{"indexed":true,"internalType":"uint16","name":"currencyId","type":"uint16"},{"indexed":false,"internalType":"uint80","name":"maxSecondaryBorrowCapacity","type":"uint80"}],"name":"VaultUpdateSecondaryBorrowCapacity","type":"event"},{"anonymous":false,"inputs":[{"indexed":true,"internalType":"address","name":"vault","type":"address"},{"indexed":false,"internalType":"bool","name":"enabled","type":"bool"},{"indexed":false,"internalType":"uint80","name":"maxPrimaryBorrowCapacity","type":"uint80"}],"name":"VaultUpdated","type":"event"},{"inputs":[{"internalType":"address","name":"account","type":"address"},{"internalType":"uint256","name":"maturity","type":"uint256"},{"internalType":"uint256[2]","name":"fCashToBorrow","type":"uint256[2]"},{"internalType":"uint32[2]","name":"maxBorrowRate","type":"uint32[2]"},{"internalType":"uint32[2]","name":"minRollLendRate","type":"uint32[2]"}],"name":"borrowSecondaryCurrencyToVault","outputs":[{"internalType":"uint256[2]","name":"underlyingTokensTransferred","type":"uint256[2]"}],"stateMutability":"nonpayable","type":"function"},{"inputs":[{"internalType":"uint256","name":"maturity","type":"uint256"},{"internalType":"uint256","name":"assetCashInternal","type":"uint256"},{"internalType":"bytes","name":"vaultData","type":"bytes"}],"name":"depositVaultCashToStrategyTokens","outputs":[],"stateMutability":"nonpayable","type":"function"},{"inputs":[{"internalType":"address","name":"vault","type":"address"},{"internalType":"uint16","name":"currencyId","type":"uint16"}],"name":"getBorrowCapacity","outputs":[{"internalType":"uint256","name":"totalUsedBorrowCapacity","type":"uint256"},{"internalType":"uint256","name":"maxBorrowCapacity","type":"uint256"}],"stateMutability":"view","type":"function"},{"inputs":[{"internalType":"address","name":"vault","type":"address"},{"internalType":"uint256","name":"maturity","type":"uint256"}],"name":"getCashRequiredToSettle","outputs":[{"internalType":"int256","name":"assetCashRequiredToSettle","type":"int256"},{"internalType":"int256","name":"underlyingCashRequiredToSettle","type":"int256"}],"stateMutability":"view","type":"function"},{"inputs":[],"name":"getLibInfo","outputs":[{"internalType":"address","name":"","type":"address"}],"stateMutability":"pure","type":"function"},{"inputs":[{"internalType":"address","name":"vault","type":"address"},{"internalType":"uint16","name":"currencyId","type":"uint16"},{"internalType":"uint256","name":"maturity","type":"uint256"}],"name":"getSecondaryBorrow","outputs":[{"internalType":"uint256","name":"totalfCashBorrowed","type":"uint256"},{"internalType":"uint256","name":"totalAccountDebtShares","type":"uint256"},{"internalType":"uint256","name":"totalfCashBorrowedInPrimarySnapshot","type":"uint256"}],"stateMutability":"view","type":"function"},{"inputs":[{"internalType":"address","name":"vault","type":"address"}],"name":"getVaultConfig","outputs":[{"components":[{"internalType":"address","name":"vault","type":"address"},{"internalType":"uint16","name":"flags","type":"uint16"},{"internalType":"uint16","name":"borrowCurrencyId","type":"uint16"},{"internalType":"int256","name":"minAccountBorrowSize","type":"int256"},{"internalType":"int256","name":"feeRate","type":"int256"},{"internalType":"int256","name":"minCollateralRatio","type":"int256"},{"internalType":"int256","name":"liquidationRate","type":"int256"},{"internalType":"int256","name":"reserveFeeShare","type":"int256"},{"internalType":"uint256","name":"maxBorrowMarketIndex","type":"uint256"},{"internalType":"int256","name":"maxDeleverageCollateralRatio","type":"int256"},{"internalType":"uint16[2]","name":"secondaryBorrowCurrencies","type":"uint16[2]"},{"components":[{"internalType":"contract AssetRateAdapter","name":"rateOracle","type":"address"},{"internalType":"int256","name":"rate","type":"int256"},{"internalType":"int256","name":"underlyingDecimals","type":"int256"}],"internalType":"struct AssetRateParameters","name":"assetRate","type":"tuple"}],"internalType":"struct VaultConfig","name":"vaultConfig","type":"tuple"}],"stateMutability":"view","type":"function"},{"inputs":[{"internalType":"address","name":"vault","type":"address"},{"internalType":"uint256","name":"maturity","type":"uint256"}],"name":"getVaultState","outputs":[{"components":[{"internalType":"uint256","name":"maturity","type":"uint256"},{"internalType":"int256","name":"totalfCash","type":"int256"},{"internalType":"bool","name":"isSettled","type":"bool"},{"internalType":"uint256","name":"totalVaultShares","type":"uint256"},{"internalType":"uint256","name":"totalAssetCash","type":"uint256"},{"internalType":"uint256","name":"totalStrategyTokens","type":"uint256"},{"internalType":"int256","name":"settlementStrategyTokenValue","type":"int256"}],"internalType":"struct VaultState","name":"vaultState","type":"tuple"}],"stateMutability":"view","type":"function"},{"inputs":[{"internalType":"uint256","name":"maturity","type":"uint256"}],"name":"initiateSecondaryBorrowSettlement","outputs":[{"internalType":"uint256[2]","name":"secondaryBorrowSnapshot","type":"uint256[2]"}],"stateMutability":"nonpayable","type":"function"},{"inputs":[],"name":"owner","outputs":[{"internalType":"address","name":"","type":"address"}],"stateMutability":"view","type":"function"},{"inputs":[],"name":"pauseGuardian","outputs":[{"internalType":"address","name":"","type":"address"}],"stateMutability":"view","type":"function"},{"inputs":[],"name":"pauseRouter","outputs":[{"internalType":"address","name":"","type":"address"}],"stateMutability":"view","type":"function"},{"inputs":[{"internalType":"uint256","name":"maturity","type":"uint256"},{"internalType":"uint256","name":"strategyTokensToRedeem","type":"uint256"},{"internalType":"bytes","name":"vaultData","type":"bytes"}],"name":"redeemStrategyTokensToCash","outputs":[{"internalType":"int256","name":"assetCashRequiredToSettle","type":"int256"},{"internalType":"int256","name":"underlyingCashRequiredToSettle","type":"int256"}],"stateMutability":"nonpayable","type":"function"},{"inputs":[{"internalType":"address","name":"vaultAddress","type":"address"},{"internalType":"uint80","name":"maxVaultBorrowCapacity","type":"uint80"},{"internalType":"uint256","name":"maturity","type":"uint256"},{"internalType":"uint256","name":"strategyTokensToRedeem","type":"uint256"},{"internalType":"bytes","name":"vaultData","type":"bytes"}],"name":"reduceMaxBorrowCapacity","outputs":[],"stateMutability":"nonpayable","type":"function"},{"inputs":[{"internalType":"address","name":"account","type":"address"},{"internalType":"uint16","name":"currencyId","type":"uint16"},{"internalType":"uint256","name":"maturity","type":"uint256"},{"internalType":"uint256","name":"debtSharesToRepay","type":"uint256"},{"internalType":"uint32","name":"minLendRate","type":"uint32"},{"internalType":"bytes","name":"callbackData","type":"bytes"}],"name":"repaySecondaryCurrencyFromVault","outputs":[{"internalType":"bytes","name":"returnData","type":"bytes"}],"stateMutability":"nonpayable","type":"function"},{"inputs":[{"internalType":"address","name":"vaultAddress","type":"address"},{"internalType":"bool","name":"enable","type":"bool"}],"name":"setVaultPauseStatus","outputs":[],"stateMutability":"nonpayable","type":"function"},{"inputs":[{"internalType":"address","name":"vault","type":"address"},{"internalType":"uint256","name":"maturity","type":"uint256"}],"name":"settleVault","outputs":[],"stateMutability":"nonpayable","type":"function"},{"inputs":[{"internalType":"address","name":"vaultAddress","type":"address"},{"internalType":"uint16","name":"secondaryCurrencyId","type":"uint16"},{"internalType":"uint80","name":"maxBorrowCapacity","type":"uint80"}],"name":"updateSecondaryBorrowCapacity","outputs":[],"stateMutability":"nonpayable","type":"function"},{"inputs":[{"internalType":"address","name":"vaultAddress","type":"address"},{"components":[{"internalType":"uint16","name":"flags","type":"uint16"},{"internalType":"uint16","name":"borrowCurrencyId","type":"uint16"},{"internalType":"uint32","name":"minAccountBorrowSize","type":"uint32"},{"internalType":"uint16","name":"minCollateralRatioBPS","type":"uint16"},{"internalType":"uint8","name":"feeRate5BPS","type":"uint8"},{"internalType":"uint8","name":"liquidationRate","type":"uint8"},{"internalType":"uint8","name":"reserveFeeShare","type":"uint8"},{"internalType":"uint8","name":"maxBorrowMarketIndex","type":"uint8"},{"internalType":"uint16","name":"maxDeleverageCollateralRatioBPS","type":"uint16"},{"internalType":"uint16[2]","name":"secondaryBorrowCurrencies","type":"uint16[2]"}],"internalType":"struct VaultConfigStorage","name":"vaultConfig","type":"tuple"},{"internalType":"uint80","name":"maxPrimaryBorrowCapacity","type":"uint80"}],"name":"updateVault","outputs":[],"stateMutability":"nonpayable","type":"function"}],"bytecode":"608060405234801561001057600080fd5b5061572180620000216000396000f3fe608060405234801561001057600080fd5b50600436106101215760003560e01c80636c346c09116100ad578063c4c96dae11610071578063c4c96dae1461026b578063d04c16ac14610273578063d6ddeb9a14610286578063de1eb9a314610299578063ee01436b146102b957610121565b80636c346c091461021357806382463367146102265780638da5cb5b1461022e578063a14db57c14610236578063b3c475461461025857610121565b8063295e6b7f116100f4578063295e6b7f1461018c578063315722811461019f57806350e4f223146101bf57806356f428c4146101df57806367515776146101f257610121565b806301ac8852146101265780630bc08cdc1461014f57806324a3d62214610162578063291afdf314610177575b600080fd5b610139610134366004614b1d565b6102cc565b6040516101469190614dc9565b60405180910390f35b61013961015d366004614983565b610356565b61016a61050b565b6040516101469190614ca3565b61018a61018536600461491d565b61051a565b005b61018a61019a36600461495a565b610636565b6101b26101ad36600461495a565b610871565b6040516101469190615385565b6101d26101cd366004614892565b61088a565b6040516101469190614e1e565b61018a6101ed36600461479b565b610a4d565b610205610200366004614829565b610acd565b604051610146929190614e5a565b61020561022136600461495a565b610b1d565b61016a610b58565b61016a610b67565b610249610244366004614854565b610b7d565b604051610146939291906153fd565b61018a6102663660046147d5565b610be3565b61016a610c9b565b61018a610281366004614b35565b610cb3565b61018a6102943660046149e4565b610e25565b6102ac6102a7366004614781565b610ed7565b60405161014691906152d1565b6102056102c7366004614b35565b610eee565b6102d4614599565b60006102df33610f40565b90506102ec816001610f6f565b6103115760405162461bcd60e51b815260040161030890614f2f565b60405180910390fd5b6101408101516103349061032f9060005b6020020151839086610f84565b6110fd565b825261014081015161034b9061032f906001610322565b602083015250919050565b61035e614599565b600061036933610f40565b9050610376816001610f6f565b6103925760405162461bcd60e51b815260040161030890614f2f565b610140810151805161ffff161515806103b25750602081015161ffff1615155b6103bb57600080fd5b6103c3614599565b6103ce836002610f6f565b80156103e357506001600160a01b0389163314155b156104a85760006103f2611114565b6001600160a01b03808c1660009081526020928352604080822088519093168252919092529020805490915063ffffffff1680156104a55789811061043657600080fd5b610473858c866000602002015185548590600160201b90046001600160501b03168c60005b60200201602081019061046e9190614b86565b611121565b83526020840151825461049f9187918e91908590600160701b90046001600160501b03168c600161045b565b60208401525b50505b815181516104d59185918c91908c908c358c60005b6020020160208101906104d09190614b86565b611156565b8452602082810151828201516104f99286928d9290918d91908d01358c60016104bd565b60208501525091979650505050505050565b6002546001600160a01b031681565b600054600160201b90046001600160a01b0316331461054b5760405162461bcd60e51b815260040161030890615197565b600061055684610f40565b905060006105678461ffff166111d0565b905060006105788561ffff166111e3565b9050816020015115801561058e57508060200151155b61059757600080fd5b6101408301515161ffff868116911614806105c157506101408301516020015161ffff8681169116145b6105dd5760405162461bcd60e51b81526004016103089061513e565b6105e88686866111f6565b8461ffff16866001600160a01b03167f8f868f60e49b80b48ee5de8b7bc703cfc4b5c826a05d3ea1b00cf4159c155a90866040516106269190615413565b60405180910390a3505050505050565b6002600a5414156106595760405162461bcd60e51b815260040161030890615250565b6002600a55600061066983610f40565b90506106778133604061124a565b600061068384846112b4565b905042831115801561069757506040810151155b6106b35760405162461bcd60e51b8152600401610308906150c1565b60006106c8836040015161ffff16854261134f565b905060006106e661032f6106df85602001516114bf565b84906114cd565b905060006106f2611506565b6001600160a01b038816600090815260209182526040808220898352909252206101408601515190915061ffff1615610765576101408501515161ffff166000908152602082905260409020546001600160501b0316156107655760405162461bcd60e51b815260040161030890614fb3565b6101408501516020015161ffff16156107bc5761014085015160209081015161ffff1660009081529082905260409020546001600160501b0316156107bc5760405162461bcd60e51b815260040161030890614fb3565b818460800151101561083a5760a0840151156107ea5760405162461bcd60e51b815260040161030890614f04565b60006107fb85608001518403611513565b9050600061081661032f88600001518960400151858c611529565b60808701519091506108289082611651565b6080870152610837868a611663565b50505b61085587866040015161085087602001516114bf565b6117cd565b5061086384868589426118d3565b50506001600a555050505050565b6108796145b7565b61088383836112b4565b9392505050565b6060600061089733610f40565b90506108a4816001610f6f565b6108c05760405162461bcd60e51b815260040161030890614f2f565b60006108d0828b8b8b8b8b611a99565b50905060006108e28a61ffff166111d0565b90506000806004836060015160058111156108f957fe5b146109105761090b8c61ffff166111e3565b610912565b825b9050600061094361032f61093c610937888a6101600151611c6390919063ffffffff16565b6114bf565b8490611c8e565b905060006109518330611cca565b8351604051637efbe0e760e11b8152919250339163fdf7c1ce9161097d9186908f908f90600401614d52565b600060405180830381600087803b15801561099757600080fd5b505af11580156109ab573d6000803e3d6000fd5b505050506040513d6000823e601f3d908101601f191682016040526109d39190810190614a5c565b975060006109e18430611cca565b90506109ed8183611d74565b945082851015610a0f5760405162461bcd60e51b815260040161030890615278565b5060049250610a1c915050565b82606001516005811115610a2c57fe5b14610a3e57610a3c828c83611d89565b505b50505050979650505050505050565b600054600160201b90046001600160a01b03163314610a7e5760405162461bcd60e51b815260040161030890615197565b610a888282611e70565b816001600160a01b03167f7c51c6aa77346c54cb051d9e792f9b7bde5c28a9b57e6fb2d2dd727b38438ca982604051610ac19190614dfa565b60405180910390a25050565b6000806000610ada611ed0565b6001600160a01b0390951660009081526020958652604080822061ffff9096168252949095525050509020546001600160501b03600160501b8204811692911690565b6000806000610b2b85611edd565b90506000610b3d8260000151866112b4565b9050610b4a828287611f01565b9350935050505b9250929050565b6001546001600160a01b031681565b600054600160201b90046001600160a01b031681565b600080600080610b8b611506565b6001600160a01b0390971660009081526020978852604080822096825295885285812061ffff9097168152959096525050509020546001600160501b0380821693600160501b830482169350600160a01b9092041690565b600054600160201b90046001600160a01b03163314610c145760405162461bcd60e51b815260040161030890615197565b610c1e8383611fba565b610c3883610c326040850160208601614b01565b836111f6565b6000600180610c4a6020860186614b01565b1661ffff16149050836001600160a01b03167fb441d7ca09abc712b4504256717707ce40e8d43895266b46abf9cd58619c07dc8284604051610c8d929190614e05565b60405180910390a250505050565b73__TradingAction_________________________90565b6002600a541415610cd65760405162461bcd60e51b815260040161030890615250565b6002600a556000610ce633610f40565b9050610cf3816001610f6f565b610d0f5760405162461bcd60e51b815260040161030890614f2f565b610d1a816080610f6f565b15610d25576001600a555b6000610d3133876112b4565b90506000610d538360000151610d4688611513565b8591908a60008a8a6121bf565b6080830151909150610d659087611d74565b608083015260a0820151610d799082611651565b60a0830152610d888233611663565b6000610dab8333856060015186602001518861226890949392919063ffffffff16565b509050808460a001511315610dd25760405162461bcd60e51b8152600401610308906151f3565b87336001600160a01b03167fbba43506b1f3723add796bf603adde56bc018392a95775b9f76c31213b4161bb8985604051610e0e929190614e5a565b60405180910390a350506001600a55505050505050565b600054600160201b90046001600160a01b03163314610e565760405162461bcd60e51b815260040161030890615197565b6000610e6187610f40565b9050610e72878260400151886111f6565b610e7f81868686866122d0565b50506001600160a01b0387167fb441d7ca09abc712b4504256717707ce40e8d43895266b46abf9cd58619c07dc610eb7836001610f6f565b88604051610ec6929190614e05565b60405180910390a250505050505050565b610edf6145f6565b610ee882611edd565b92915050565b6000806000610efc33610f40565b9050610f09816001610f6f565b610f255760405162461bcd60e51b815260040161030890614f2f565b610f3281888888886122d0565b925092505094509492505050565b610f486145f6565b610f51826123e4565b9050610f64816040015161ffff16612561565b610160820152919050565b60209190910151811661ffff90811691161490565b600061ffff8316610f9757506000610883565b6000610fa1611506565b85516001600160a01b0316600090815260209182526040808220868352835280822061ffff88168352909252208054909150600160a01b90046001600160501b0316156110005760405162461bcd60e51b815260040161030890615168565b805460408601516001600160501b03909116906000906110239061ffff166125ad565b905060006110348761ffff166125ad565b905060006110428383612710565b90506110658161105f85600001518761273590919063ffffffff16565b90612783565b9550611078611073876110fd565b6127b4565b85546001600160501b0391909116600160a01b0269ffffffffffffffffffff60a01b199091161785558851604051889161ffff8b16916001600160a01b03909116907f744b6e0d7db0666a7c17a4868d11d5f7f909a7b04d458b5eace97646ba7a0ee8906110e9908b908790614e5a565b60405180910390a450505050509392505050565b60008082121561110c57600080fd5b50805b919050565b600080610ee8601a6127ca565b600061ffff85161580159061113557508215155b1561114c57611148878787878787611a99565b5090505b9695505050505050565b600061ffff86161580611167575082155b15611174575060006111c5565b60006111848989898988886127e3565b5090506111918186612984565b905060008112156111b45760405162461bcd60e51b81526004016103089061508a565b88516111c190888361299a565b9150505b979650505050505050565b6111d8614673565b610ee8826000612a42565b6111eb614673565b610ee8826001612a42565b6000611200611ed0565b6001600160a01b0390941660009081526020948552604080822061ffff90951682529390945250912080546001600160501b039092166001600160501b0319909216919091179055565b6112548382610f6f565b156112875782516001600160a01b031633146112825760405162461bcd60e51b815260040161030890614f4f565b6112af565b6001600160a01b03821633146112af5760405162461bcd60e51b815260040161030890614f4f565b505050565b6112bc6145b7565b60006112c6612af0565b6001600160a01b03909416600090815260209485526040808220858352865280822094845284546001600160501b038082169093039685019690965260ff600160f01b870416151590840152600160501b8086048216608085015260019094015480821660a0850152600160a01b909504166060830152509104600990810b900b60c082015290565b6113576146a2565b6000806113648686612afd565b91509150816000141561149457600061137c87612b46565b91945090925090506001600160a01b0381161561149257600061139d612c09565b90508560001080156113af5750858711155b80156113c0575064ffffffffff8611155b6113c957600080fd5b8360001280156113e057506001600160801b038413155b6113e957600080fd5b6000888152602082815260408083208a845290915290819020805464ffffffffff191664ffffffffff89161774ffffffffffffffffffffffffffffffff00000000001916650100000000006001600160801b038816021760ff60a81b1916600160a81b60ff871602178155905188908a907f0fdfa6885701e2f1f42e4187b9231cf81c1fe23671ef64fa46f34ddb56c1dc18906114879089906153d5565b60405180910390a350505b505b6040805160608101825260008152602081019390935260ff909116600a0a9082015290509392505050565b6000610ee860001983612735565b6000806114fe846020015161105f86604001516114f86402540be4008861273590919063ffffffff16565b90612735565b949350505050565b600080610ee860186127ca565b60006001600160ff1b0382111561110c57600080fd5b6000611536856000611e70565b846001600160a01b03167f7c51c6aa77346c54cb051d9e792f9b7bde5c28a9b57e6fb2d2dd727b38438ca960006040516115709190614dfa565b60405180910390a2818461ffff16866001600160a01b03167f823b641d46550301006f807a26587634f15bd13749efdc8859734377d5304a3b866040516115b79190614e51565b60405180910390a460006115d060008661ffff16612c16565b50505090508084136115f0576115e885858303612cbf565b839150611648565b6115fb856000612cbf565b828561ffff16876001600160a01b03167f3a717b6924e3ad05b8c7609a2401472af90869b52cc3c9ca69b50100b4be631684880360405161163c9190614e51565b60405180910390a48091505b50949350505050565b60008282018381101561088357600080fd5b600061166d612af0565b6001600160a01b03831660009081526020828152604080832087518452909152908190209085015191925090156116a357600080fd5b6116b661107361032f86602001516114bf565b81546001600160501b0319166001600160501b039190911617815560808401516116df906127b4565b81546001600160501b0391909116600160501b02600160501b600160a01b031990911617815560a0840151611713906127b4565b6001820180546001600160501b0319166001600160501b03929092169190911790556060840151611743906127b4565b81546001600160501b0391909116600160a01b0269ffffffffffffffffffff60a01b1990911617815583516020850151608086015160a087015160608801516040516001600160a01b038916947f3a0fdaecf7b5da75a56077f5b1c8fbc88f9b08e9d0c4db31eb34e25bc6700cde946117bf9491939092614e68565b60405180910390a350505050565b6000806117d8611ed0565b6001600160a01b03861660009081526020918252604080822061ffff8816835290925220805490915061181b90600160501b90046001600160501b031684612d16565b915060008312156118505780546001600160501b03168213156118505760405162461bcd60e51b8152600401610308906150e8565b61185c611073836110fd565b81546001600160501b0391909116600160501b02600160501b600160a01b031990911617815560405161ffff8516906001600160a01b038716907f20478ef460e49d010960d4f3fff35d8dae385443abfac09035d6a2ccbcd834c4906118c3908690614e51565b60405180910390a3509392505050565b60006118dd612af0565b85516001600160a01b03166000908152602082815260408083208784529091529020805491925090600160f01b900460ff161561191957600080fd5b8284111561192657600080fd5b6040860151865160009161194091806305f5e10089612d2c565b825460ff60f01b1916600160f01b178355905061195c81612df3565b82600101600a6101000a8154816001600160501b03021916908360090b6001600160501b031602179055506000611991612e23565b88516001600160a01b031660009081526020918252604080822089835283529020600185015481546001600160501b0319166001600160501b03909116178155908a0151909150611a03906119fe906119eb908a906114cd565b6119f88c60800151611513565b90612984565b612df3565b815460099190910b6001600160501b0316600160501b02600160501b600160a01b03199091161781558851885160208b015160808c015160a08d015160608e01516040516001600160a01b03909516947fe66a863186dba5a66d19d3d91a66b76a7cbfdefd0d8c29c662274b13febb166e94611a86949093909290918a90614e83565b60405180910390a3505050505050505050565b6000806000611aa6611506565b89516001600160a01b0316600090815260209182526040808220898352835280822061ffff8b168352909252208054909150600160a01b90046001600160501b03161580611b00575088516001600160a01b038981169116145b611b1c5760405162461bcd60e51b8152600401610308906151cc565b80546001600160501b0380821691600160501b900416611b4e611b4982611b438a86612e30565b90612e57565b611513565b93508a600001516001600160a01b03168a6001600160a01b031614611bb857611b7a6110738289611d74565b83546001600160501b0391909116600160501b02600160501b600160a01b0319909116178355611bb88b8b8b8b611bb36109378d611513565b612e76565b8a51611bc5908a866117cd565b50611bd36110738386611d74565b83546001600160501b0319166001600160501b0391909116178355611bfb8b8a8a878a612ffe565b94508861ffff168a6001600160a01b03168c600001516001600160a01b03167f38db3b2568ca34833805148705b1440a4f80962ce663ba509811abc652de434a8b8b89604051611c4d939291906153fd565b60405180910390a4505050965096945050505050565b6000806114fe846040015161105f6402540be40061105f87896020015161273590919063ffffffff16565b60006305f5e10083604001511215611cb657611caf60016119f885856130cb565b9050610ee8565b61088383611cc5846001612984565b6130cb565b6000600383606001516005811115611cde57fe5b1415611cf557506001600160a01b03811631610ee8565b82516040516370a0823160e01b81526001600160a01b03909116906370a0823190611d24908590600401614ca3565b60206040518083038186803b158015611d3c57600080fd5b505afa158015611d50573d6000803e3d6000fd5b505050506040513d601f19601f82011682018060405250810190611caf9190614ae9565b600082821115611d8357600080fd5b50900390565b600080600585606001516005811115611d9e57fe5b14611db0576370a0823160e01b611db9565b630ed1279f60e11b5b90506000611dcc86600001513084613103565b9050600586606001516005811115611de057fe5b1415611e07576000611df58661ffff166111e3565b9050611e018186613215565b50611e50565b600186606001516005811115611e1957fe5b1415611e2e57611e298685613288565b611e50565b600286606001516005811115611e4057fe5b141561012157611e29868561332a565b6000611e6187600001513085613103565b90506111c5611b49828461337d565b6000611e7a6133d4565b6001600160a01b038416600090815260208290526040902080549192509061ffff168315611eb957815461ffff19166001821761ffff16178255611ec9565b815461ffff191661fffe82161782555b5050505050565b600080610ee860176127ca565b611ee56145f6565b611eee826123e4565b9050610f64816040015161ffff166133e1565b6000806000611f18866040015161ffff16856133f7565b90506000611f3f610937611f2f8860800151611513565b60208901516119f89086906114cd565b90506000611f54886040015161ffff166111d0565b9050611f6081836130cb565b9450600481606001516005811115611f7457fe5b1415611f8257849350611faf565b6000611f95896040015161ffff166111e3565b9050611fab611fa48585611c63565b8290611c8e565b9450505b505050935093915050565b6000611fc46133d4565b9050611fd660c0830160a08401614ba2565b60ff1660641315611fe657600080fd5b6064611ff860e0840160c08501614ba2565b60ff16131561200657600080fd5b612017610100830160e08401614ba2565b60ff1661202357600080fd5b61203561012083016101008401614b01565b61ffff166120496080840160608501614b01565b61ffff161061205757600080fd5b61206961014083016101208401614b01565b61ffff1661207d6040840160208501614b01565b61ffff16141561208c57600080fd5b61209e61016083016101408401614b01565b61ffff166120b26040840160208501614b01565b61ffff1614156120c157600080fd5b6120d361014083016101208401614b01565b61ffff16158015906120f957506120f261016083016101408401614b01565b61ffff1615155b156121355761211061016083016101408401614b01565b61ffff1661212661014084016101208501614b01565b61ffff16141561213557600080fd5b600061215361214a6040850160208601614b01565b61ffff166111d0565b9050600061217361216a6040860160208701614b01565b61ffff166111e3565b9050816020015115801561218957508060200151155b61219257600080fd5b6001600160a01b038516600090815260208490526040902084906121b682826154dc565b50505050505050565b6000806121d589600001518a604001518961299a565b89519091506001600160a01b031663dc6679c5896121f38489611651565b8988886040518663ffffffff1660e01b8152600401612216959493929190614d9b565b602060405180830381600087803b15801561223057600080fd5b505af1158015612244573d6000803e3d6000fd5b505050506040513d601f19601f820116820180604052508101906111c19190614ae9565b60008061227786888787613454565b90506000612293612287856114bf565b6101608a0151906114cd565b905060006122a18383612d16565b9050816122b7576001600160ff1b0393506122c4565b6122c181836134b9565b93505b50509550959350505050565b6000806002600a5414156122f65760405162461bcd60e51b815260040161030890615250565b6002600a55612306876080610f6f565b15612311576001600a555b60006123218860000151886112b4565b8851909150600090612338908a90898b8a8a6134d2565b90506000811361234757600080fd5b60808201516123569082611651565b608083015260a082015161236a9088611d74565b60a0830152885161237c908390611663565b8789600001516001600160a01b03167fb2f70c3fe73b5aee7e8c59b77222111306f1e4d7170f8fa1c09979bb847eb9d9838a6040516123bc929190614e5a565b60405180910390a36123cf89838a611f01565b6001600a55909a909950975050505050505050565b6123ec6145f6565b60006123f66133d4565b6001600160a01b03841660008181526020838152604091829020928652825461ffff8082169288019290925262010000810490911691860191909152919250906124569063ffffffff600160201b9091048116906305f5e1009061273516565b6060840152805461247490600160501b900460ff166207a120612e30565b608084015280546124989068010000000000000000900461ffff16620186a0612e30565b60a084015280546124b790600160701b900461ffff16620186a0612e30565b610120840152805460649060ff600160581b90910416633b9aca00020560c08401528054600160601b810460ff90811660e0860152600160681b909104166101008401526040805180820191829052906001830190600290826000855b82829054906101000a900461ffff1661ffff168152602001906002019060208260010104928301926001038202915080841161251457905050505050508361014001819052505050919050565b6125696146a2565b600080600061257785612b46565b604080516060810182526001600160a01b039093168352602083019390935260ff16600a0a918101919091529350505050919050565b6125b56146cc565b60006125bf613519565b60008481526020829052604081209192508060018614156125ec5750670de0b6b3a76400009050806126c2565b825460408051633fabe5a360e21b815290516001600160a01b039092169163feaf968c9160048082019260a092909190829003018186803b15801561263057600080fd5b505afa158015612644573d6000803e3d6000fd5b505050506040513d601f19601f820116820180604052508101906126689190614bbe565b509193505060008313915061269190505760405162461bcd60e51b81526004016103089061522a565b825460ff600160a01b82048116600a0a9350600160a81b90910416156126c2576126bf8161105f8480612735565b90505b6040805160a0810182529283526020830191909152915460ff600160b01b8204811693830193909352600160b81b810483166060830152600160c01b90049091166080820152915050919050565b6000610883826020015161105f8460000151866020015161273590919063ffffffff16565b8181026000198314156127655781158061275757508282828161275457fe5b05145b61276057600080fd5b610ee8565b82158061277a57508183828161277757fe5b05145b610ee857600080fd5b6000816000191480156127995750600160ff1b83145b156127a357600080fd5b8183816127ac57fe5b059392505050565b60006001600160501b0382111561110c57600080fd5b6000620f424082601a8111156127dc57fe5b0192915050565b6000806127fb88600001518761085061093788611513565b506000612806611506565b89516001600160a01b0316600090815260209182526040808220898352835280822061ffff8b168352909252208054909150600160a01b90046001600160501b0316156128655760405162461bcd60e51b8152600401610308906151cc565b805489516001600160501b0380831692600160501b900416906001600160a01b038b81169116146128f2578161289d578693506128ae565b6128ab82611b438984612e30565b93505b6128be8b8b8b8b611bb389611513565b6128cb6110738286611651565b83546001600160501b0391909116600160501b02600160501b600160a01b03199091161783555b6128ff6110738389611651565b83546001600160501b0319166001600160501b03919091161783556129328b8a8a61292c6109378c611513565b8a612ffe565b94508861ffff168a6001600160a01b03168c600001516001600160a01b03167fa119a38e8bbbf2cbe78427cb9e63ef28678b56e3ceecc10bda7c00503ea947398b888c604051611c4d939291906153fd565b81810182811215600083121514610ee857600080fd5b6000816129a957506000610883565b600082136129b657600080fd5b60006129c58461ffff166111d0565b905060006129d382856130cb565b90506004826060015160058111156129e757fe5b1415612a1557612a0e61032f610937888861ffff16612a05866114bf565b87929190613526565b9250612a39565b612a3661032f6109378761ffff1689612a2d866110fd565b879291906135ce565b92505b50509392505050565b612a4a614673565b6000612a54613664565b6000858152602082815260408083208715158452825291829020825160a08101845281546001600160a01b038116825260ff600160a01b82048116151594830194909452600160b01b81048416600a0a9482019490945293945092916060830191600160a81b909104166005811115612ac957fe5b81529154600160b81b900468ffffffffffffffffff16602090920191909152949350505050565b600080610ee860156127ca565b6000806000612b0a612c09565b6000958652602090815260408087209587529490525050509020546501000000000081046001600160801b031691600160a81b90910460ff1690565b6000806000806000612b5786613671565b909250905060006001600160a01b038316612b7c5750600090506402540be400612bfe565b826001600160a01b0316631ee108336040518163ffffffff1660e01b8152600401602060405180830381600087803b158015612bb757600080fd5b505af1158015612bcb573d6000803e3d6000fd5b505050506040513d601f19601f82011682018060405250810190612bef9190614ae9565b905060008113612bfe57600080fd5b969195509350915050565b600080610ee860086127ca565b6000806000806000612c266136a8565b6001600160a01b0388166000908152602082815260408083208a8452909152902080546001600160501b0381169650600160501b900463ffffffff1694509091508315612c8f578054612c8890600160701b900466ffffffffffffff166136b5565b9250612ca4565b8054600160701b900466ffffffffffffff1692505b54600160a81b9004600a90810b900b97939650919450925050565b6000811215612ccd57600080fd5b612ce260008361ffff168360008060006136c3565b8161ffff167fd3625f7b5926828151efe19f7ae655488287357d99ebe67e5fb20522ca739c0b82604051610ac19190614e51565b80820382811315600083121514610ee857600080fd5b600080612d3c8761ffff166111e3565b9050806040015160001415612d5b57612d588761ffff166111d0565b90505b60405163e937711160e01b8152612de6906001600160a01b0388169063e937711190612d8f90899089908990600401614d7a565b60206040518083038186803b158015612da757600080fd5b505afa158015612dbb573d6000803e3d6000fd5b505050506040513d601f19601f82011682018060405250810190612ddf9190614ae9565b829061380a565b9150505b95945050505050565b6000697fffffffffffffffffff198212801590612e1a5750697fffffffffffffffffff8213155b61110c57600080fd5b600080610ee860196127ca565b600082612e3f57506000610ee8565b82820282848281612e4c57fe5b041461088357600080fd5b6000808211612e6557600080fd5b818381612e6e57fe5b049392505050565b6000612e80611114565b6001600160a01b038087166000908152602092835260408082208a519093168252919092529020805490915063ffffffff1683811480612ebe575080155b612eda5760405162461bcd60e51b815260040161030890614ea6565b815461014088015151600160201b82046001600160501b0390811692600160701b9004169061ffff88811691161415612f5457612f178286612984565b9150612f25611073836110fd565b84546001600160501b0391909116600160201b026dffffffffffffffffffff0000000019909116178455612fae565b6101408901516020015161ffff8881169116141561012157612f768186612984565b9050612f84611073826110fd565b84546001600160501b0391909116600160701b0269ffffffffffffffffffff60701b199091161784555b81158015612fba575080155b15612fcf57835463ffffffff19168455612ff3565b82612ff357612fdd8661383a565b845463ffffffff191663ffffffff919091161784555b505050505050505050565b6000856040015161ffff168561ffff16141561301957600080fd5b8261302657506000612dea565b42841161306357600083121561303b57600080fd5b600061304c8661ffff16864261134f565b905061305b61093782866114cd565b915050612dea565b613076858585858a61010001514261384d565b9050600083138015613086575080155b156130a25761016086015161309f9061093790856114cd565b90505b6000831215612dea5760008113612dea5760405162461bcd60e51b815260040161030890614edd565b60006305f5e100836040015114156130e4575080610ee8565b6108836305f5e10061105f85604001518561273590919063ffffffff16565b604080516001600160a01b0384811660248084019190915283518084039091018152604490920183526020820180516001600160e01b03166001600160e01b0319861617815292518251600094859485948a16939092909182918083835b602083106131805780518252601f199092019160209182019101613161565b6001836020036101000a038019825116818451168082178552505050505050905001915050600060405180830381855afa9150503d80600081146131e0576040519150601f19603f3d011682016040523d82523d6000602084013e6131e5565b606091505b5091509150816131f457600080fd5b80806020019051602081101561320957600080fd5b50519695505050505050565b61321d61395c565b54825160405163e8eda9df60e01b81526001600160a01b039092169163e8eda9df916132529185903090600090600401614d25565b600060405180830381600087803b15801561326c57600080fd5b505af1158015613280573d6000803e3d6000fd5b505050505050565b815160405163140e25ad60e31b81526000916001600160a01b03169063a0712d68906132b8908590600401614e51565b602060405180830381600087803b1580156132d257600080fd5b505af11580156132e6573d6000803e3d6000fd5b505050506040513d601f19601f8201168201806040525081019061330a9190614ae9565b905080156112af5760405162461bcd60e51b815260040161030890614f75565b81600001516001600160a01b0316631249c58b826040518263ffffffff1660e01b81526004016000604051808303818588803b15801561336957600080fd5b505af11580156121b6573d6000803e3d6000fd5b600082821115611d83576040805162461bcd60e51b815260206004820152601e60248201527f536166654d6174683a207375627472616374696f6e206f766572666c6f770000604482015290519081900360640190fd5b600080610ee860146127ca565b6133e96146a2565b600080600061257785613969565b6133ff6146a2565b60008061340c8585612afd565b91509150816000141561342a5761342285613969565b919350909150505b6040805160608101825260008152602081019390935260ff909116600a0a90820152905092915050565b600081613463575060006114fe565b60008061347087856139ec565b91509150600061348f8760400151886000015188858c60000151612d2c565b90506134ad61349d84611513565b6101608901516119f890846114cd565b98975050505050505050565b60006108836134cc84633b9aca00612735565b83612783565b6000611148876040518060a00160405280896001600160a01b03168152602001896001600160a01b0316815260200188815260200187815260200160008152508585613a45565b600080610ee860106127ca565b8060058560600151600581111561353957fe5b141561355e57600061354a846111e3565b905061355a816000015184613cf2565b9250505b600082131561358a576000613574868685613d78565b9050856020015115613584578091505b506114fe565b60038560600151600581111561359c57fe5b14156135b9576135b4846135af846114bf565b613e6b565b6114fe565b84516114fe90856135c9856114bf565b613ea1565b6000806002866060015160058111156135e357fe5b14156135fb576135f4868585613f18565b9050613658565b6000613606866111e3565b905060058760600151600581111561361a57fe5b14156136325761362b818686613fd5565b9150613656565b60018760600151600581111561364457fe5b14156101215761362b87828787614086565b505b61114c61093782611513565b600080610ee860076127ca565b600080600061367e614184565b600094855260205250506040909120546001600160a01b03811692600160a01b90910460ff169150565b600080610ee860066127ca565b600881901c60ff9091161b90565b60006136cd6136a8565b6001600160a01b0388166000908152602082815260408083208a845290915290209091506a7fffffffffffffffffffff19861280159061371857506a7fffffffffffffffffffff8613155b61372157600080fd5b6000851215801561373957506001600160501b038513155b61374257600080fd5b836137825766ffffffffffffff83111561375b57600080fd5b805466ffffffffffffff60701b1916600160701b66ffffffffffffff85160217815561379c565b8054600160501b900463ffffffff16841461379c57600080fd5b8054600a9690960b6affffffffffffffffffffff16600160a81b026001600160a81b036001600160501b039096166001600160501b031963ffffffff909616600160501b0263ffffffff60501b19909816979097179490941695909517939093169190911790925550505050565b60006305f5e10083604001511415613823575080610ee8565b60408301516108839061105f846305f5e100612735565b600063ffffffff82111561110c57600080fd5b60008061385c88888686614191565b9050600061386987614200565b90506affffffffffffffffffffff811061388257600080fd5b600060788763ffffffff16901b609883901b60f085901b60f860008c136138aa5760016138ad565b60005b60058111156138b857fe5b60ff16901b17171760001b905073__TradingAction_________________________63e50f349e8b836040518363ffffffff1660e01b81526004016138fe9291906153e9565b60206040518083038186803b15801561391657600080fd5b505af415801561392a573d6000803e3d6000fd5b505050506040513d601f19601f8201168201806040525081019061394e9190614ae9565b9a9950505050505050505050565b600080610ee860136127ca565b600080600080600061397a86613671565b909250905060006001600160a01b03831661399f5750600090506402540be400612bfe565b826001600160a01b031663b2fffb046040518163ffffffff1660e01b815260040160206040518083038186803b1580156139d857600080fd5b505afa158015612bcb573d6000803e3d6000fd5b600080600084606001511115610b5157613a1b8460600151611b43866080015186612e3090919063ffffffff16565b9150613a3c8460600151611b438660a0015186612e3090919063ffffffff16565b90509250929050565b6000806000613a5b876040015161ffff166111d0565b90506000600482606001516005811115613a7157fe5b14613a8c57613a87886040015161ffff166111e3565b613a8e565b815b905060008088608001511215613b0157600483606001516005811115613ab057fe5b1415613acd57613ac661032f89608001516114bf565b9050613b01565b6000613aee6109378a608001518c6101600151611c6390919063ffffffff16565b9050613afd61032f8483611c8e565b9150505b604088015160009015613bd9576000613b1a8430611cca565b90508a600001516001600160a01b03166344f051088b600001518c602001518d604001518e60600151888f8f6040518863ffffffff1660e01b8152600401613b689796959493929190614cb7565b602060405180830381600087803b158015613b8257600080fd5b505af1158015613b96573d6000803e3d6000fd5b505050506040513d601f19601f82011682018060405250810190613bba9190614ae9565b95506000613bc88530611cca565b9050613bd48183611d74565b925050505b81811015613c7457808203600384606001516005811115613bf657fe5b1415613c345734811115613c1c5760405162461bcd60e51b815260040161030890614fda565b613c2c8a60000151823403613e6b565b829150613c72565b6000613c598b600001518d6040015161ffff16613c5085611513565b88929190613526565b9050613c6e613c67826110fd565b8490611651565b9250505b505b81811015613c945760405162461bcd60e51b815260040161030890614fda565b6000600485606001516005811115613ca857fe5b1415613cbe57613cb782611513565b9050613cd8565b8115613cd85760408b0151613cd590869084611d89565b90505b613ce2858261380a565b9650505050505094509492505050565b600081613d0157506000610ee8565b6000613d0c84614221565b90506000613d1984614200565b9050816b019d971e4fe8401e74000001600160ff1b0381613d3657fe5b05811315613d4357600080fd5b6b033b2e3c9fd0803ce80000006b019d971e4fe8401e74000000838302010560008513612dea57613d73816114bf565b61114c565b6000808080600587606001516005811115613d8f57fe5b14613da1576370a0823160e01b613daa565b630ed1279f60e11b5b9050866020015115613dc6578651613dc3903083613103565b92505b8651613dd39087876142ac565b866020015180613de7575060008760800151115b15613dfc578651613df9903083613103565b91505b608087015115613e37576000613e1a88613e1585611513565b61380a565b9050613e298860800151611513565b811315613e3557600080fd5b505b866020015115613e5857613e4e611b49838561337d565b9350505050610883565b613e4e85611513565b5050509392505050565b6040516001600160a01b0383169082156108fc029083906000818181858888f193505050501580156112af573d6000803e3d6000fd5b826001600160a01b031663a9059cbb83836040518363ffffffff1660e01b815260040180836001600160a01b0316815260200182815260200192505050600060405180830381600087803b158015613ef857600080fd5b505af1158015613f0c573d6000803e3d6000fd5b505050506112af614304565b825160405163db006a7560e01b8152600091479183916001600160a01b03169063db006a7590613f4c908790600401614e51565b602060405180830381600087803b158015613f6657600080fd5b505af1158015613f7a573d6000803e3d6000fd5b505050506040513d601f19601f82011682018060405250810190613f9e9190614ae9565b90508015613fbe5760405162461bcd60e51b815260040161030890614f93565b47613fc9818461337d565b9350613e618685613e6b565b6000613ff061032f8560000151613feb85611513565b613cf2565b9050613ffa61395c565b548451604051631a4ca37b60e21b81526001600160a01b03909216916369328dec9161402c9185908890600401614d02565b602060405180830381600087803b15801561404657600080fd5b505af115801561405a573d6000803e3d6000fd5b505050506040513d601f19601f8201168201806040525081019061407e9190614ae9565b509392505050565b8251600090819061409f90306370a0823160e01b613103565b9050600086600001516001600160a01b031663db006a75856040518263ffffffff1660e01b81526004016140d39190614e51565b602060405180830381600087803b1580156140ed57600080fd5b505af1158015614101573d6000803e3d6000fd5b505050506040513d601f19601f820116820180604052508101906141259190614ae9565b905080156141455760405162461bcd60e51b815260040161030890614f93565b855160009061415c90306370a0823160e01b613103565b9050614168818461337d565b935061417987600001518786613ea1565b505050949350505050565b600080610ee8600f6127ca565b60008060006141a38761ffff16614375565b90506141b38160ff16878661438b565b9093509150848311156141d85760405162461bcd60e51b815260040161030890615060565b81156141f65760405162461bcd60e51b815260040161030890615060565b5050949350505050565b60008082121561421a57614213826114bf565b905061110f565b508061110f565b6000610ee861422e61395c565b5460405163d15e005360e01b81526001600160a01b039091169063d15e00539061425c908690600401614ca3565b60206040518083038186803b15801561427457600080fd5b505afa158015614288573d6000803e3d6000fd5b505050506040513d601f19601f82011682018060405250810190611b499190614ae9565b604080516323b872dd60e01b81526001600160a01b038481166004830152306024830152604482018490529151918516916323b872dd9160648082019260009290919082900301818387803b158015613ef857600080fd5b600061430e6146fb565b3d8015614322576020811461432b57600080fd5b60019250614336565b60206000833e815192505b5081614371576040805162461bcd60e51b8152602060048201526005602482015264045524332360dc1b604482015290519081900360640190fd5b5050565b60008061438183614453565b60ff169392505050565b600080600085116143ae5760405162461bcd60e51b81526004016103089061500a565b60078511156143cf5760405162461bcd60e51b81526004016103089061510e565b60006143da84614470565b905060015b8681116144325760006143fb6143f48361448e565b8490614532565b905086811415614413575092506000915061444b9050565b86811115614429575092506001915061444b9050565b506001016143df565b5060405162461bcd60e51b8152600401610308906152a4565b935093915050565b60008061445e61458c565b60009384526020525050604090205490565b60006276a70082101561448257600080fd5b506276a7008106900390565b600081600114156144a357506276a70061110f565b81600214156144b6575062ed4e0061110f565b81600314156144ca57506301da9c0061110f565b81600414156144de57506303b5380061110f565b81600514156144f257506309450c0061110f565b8160061415614506575063128a180061110f565b816007141561451a5750632514300061110f565b60405162461bcd60e51b815260040161030890615039565b600082820183811015610883576040805162461bcd60e51b815260206004820152601b60248201527f536166654d6174683a206164646974696f6e206f766572666c6f770000000000604482015290519081900360640190fd5b600080610ee860096127ca565b60405180604001604052806002906020820280368337509192915050565b6040518060e001604052806000815260200160008152602001600015158152602001600081526020016000815260200160008152602001600081525090565b60405180610180016040528060006001600160a01b03168152602001600061ffff168152602001600061ffff16815260200160008152602001600081526020016000815260200160008152602001600081526020016000815260200160008152602001614661614599565b815260200161466e6146a2565b905290565b6040805160a0810182526000808252602082018190529181018290529060608201908152602001600081525090565b604051806060016040528060006001600160a01b0316815260200160008152602001600081525090565b6040518060a0016040528060008152602001600081526020016000815260200160008152602001600081525090565b60405180602001604052806001906020820280368337509192915050565b80356001600160a01b038116811461110f57600080fd5b8060408101831015610ee857600080fd5b60008083601f840112614752578182fd5b50813567ffffffffffffffff811115614769578182fd5b602083019150836020828501011115610b5157600080fd5b600060208284031215614792578081fd5b61088382614719565b600080604083850312156147ad578081fd5b6147b683614719565b9150602083013580151581146147ca578182fd5b809150509250929050565b60008060008385036101a08112156147eb578182fd5b6147f485614719565b9350610160601f1982011215614808578182fd5b5060208401915061018084013561481e816156d6565b809150509250925092565b6000806040838503121561483b578182fd5b61484483614719565b915060208301356147ca816156a2565b600080600060608486031215614868578283fd5b61487184614719565b92506020840135614881816156a2565b929592945050506040919091013590565b600080600080600080600060c0888a0312156148ac578283fd5b6148b588614719565b965060208801356148c5816156a2565b9550604088013594506060880135935060808801356148e3816156b5565b925060a088013567ffffffffffffffff8111156148fe578283fd5b61490a8a828b01614741565b989b979a50959850939692959293505050565b600080600060608486031215614931578283fd5b61493a84614719565b9250602084013561494a816156a2565b9150604084013561481e816156d6565b6000806040838503121561496c578182fd5b61497583614719565b946020939093013593505050565b6000806000806000610100868803121561499b578283fd5b6149a486614719565b9450602086013593506149ba8760408801614730565b92506149c98760808801614730565b91506149d88760c08801614730565b90509295509295909350565b60008060008060008060a087890312156149fc578384fd5b614a0587614719565b95506020870135614a15816156d6565b94506040870135935060608701359250608087013567ffffffffffffffff811115614a3e578283fd5b614a4a89828a01614741565b979a9699509497509295939492505050565b600060208284031215614a6d578081fd5b815167ffffffffffffffff80821115614a84578283fd5b818401915084601f830112614a97578283fd5b815181811115614aa357fe5b604051601f8201601f191681016020018381118282101715614ac157fe5b604052818152838201602001871015614ad8578485fd5b61114c826020830160208701615489565b600060208284031215614afa578081fd5b5051919050565b600060208284031215614b12578081fd5b8135610883816156a2565b600060208284031215614b2e578081fd5b5035919050565b60008060008060608587031215614b4a578182fd5b8435935060208501359250604085013567ffffffffffffffff811115614b6e578283fd5b614b7a87828801614741565b95989497509550505050565b600060208284031215614b97578081fd5b8135610883816156b5565b600060208284031215614bb3578081fd5b8135610883816156c7565b600080600080600060a08688031215614bd5578283fd5b8551614be0816156d6565b809550506020860151935060408601519250606086015191506080860151614c07816156d6565b809150509295509295909350565b6001600160a01b03169052565b8060005b6002811015614c4957815161ffff16845260209384019390910190600101614c26565b50505050565b60008284528282602086013780602084860101526020601f19601f85011685010190509392505050565b80516001600160a01b0316825260208082015190830152604090810151910152565b61ffff169052565b6001600160a01b0391909116815260200190565b600060018060a01b03808a16835280891660208401525086604083015285606083015284608083015260c060a0830152614cf560c083018486614c4f565b9998505050505050505050565b6001600160a01b0393841681526020810192909252909116604082015260600190565b6001600160a01b03948516815260208101939093529216604082015261ffff909116606082015260800190565b600060018060a01b03861682528460208301526060604083015261114c606083018486614c4f565b6001600160a01b039390931683526020830191909152604082015260600190565b600060018060a01b0387168252856020830152846040830152608060608301526111c5608083018486614c4f565b60408101818360005b6002811015614df1578151835260209283019290910190600101614dd2565b50505092915050565b901515815260200190565b91151582526001600160501b0316602082015260400190565b6000602082528251806020840152614e3d816040850160208701615489565b601f01601f19169190910160400192915050565b90815260200190565b918252602082015260400190565b93845260208401929092526040830152606082015260800190565b948552602085019390935260408401919091526060830152608082015260a00190565b6020808252601a908201527f496e76616c6964205365636f6e64617279204d61747572697479000000000000604082015260600190565b6020808252600d908201526c109bdc9c9bddc811985a5b1959609a1b604082015260600190565b60208082526011908201527052656465656d20616c6c20746f6b656e7360781b604082015260600190565b60208082526006908201526514185d5cd95960d21b604082015260600190565b6020808252600c908201526b155b985d5d1a1bdc9a5e995960a21b604082015260600190565b602080825260049082015263135a5b9d60e21b604082015260600190565b60208082526006908201526552656465656d60d01b604082015260600190565b6020808252600d908201526c556e7061696420426f72726f7760981b604082015260600190565b602080825260169082015275125b9cdd59999a58da595b9d081c995c185e5b595b9d60521b604082015260600190565b60208082526015908201527410d1ce881b9bc81b585c9ad95d1cc81b1a5cdd1959605a1b604082015260600190565b6020808252600d908201526c092dcecc2d8d2c840d2dcc8caf609b1b604082015260600190565b60208082526010908201526f496e76616c6964204d6174757269747960801b604082015260600190565b6020808252601d908201527f496e73756666696369656e74205365636f6e6461727920426f72726f77000000604082015260600190565b6020808252600d908201526c43616e6e6f7420536574746c6560981b604082015260600190565b6020808252600c908201526b4d617820436170616369747960a01b604082015260600190565b60208082526016908201527510d1ce881b585c9ad95d081a5b99195e08189bdd5b9960521b604082015260600190565b60208082526010908201526f496e76616c69642043757272656e637960801b604082015260600190565b60208082526015908201527410d85b9b9bdd0814995cd95d0814db985c1cda1bdd605a1b604082015260600190565b6020808252818101527f4f776e61626c653a2063616c6c6572206973206e6f7420746865206f776e6572604082015260600190565b6020808252600d908201526c125b8814d95d1d1b195b595b9d609a1b604082015260600190565b60208082526017908201527f496e73756666696369656e7420436f6c6c61746572616c000000000000000000604082015260600190565b6020808252600c908201526b496e76616c6964207261746560a01b604082015260600190565b6020808252600e908201526d1499595b9d1c985b9d0818d85b1b60921b604082015260600190565b602080825260129082015271496e73756666696369656e7420526570617960701b604082015260600190565b60208082526013908201527210d1ce881b9bc81b585c9ad95d08199bdd5b99606a1b604082015260600190565b60006101e0820190506152e5828451614c15565b60208301516152f76020840182614c9b565b50604083015161530a6040840182614c9b565b50606083015160608301526080830151608083015260a083015160a083015260c083015160c083015260e083015160e08301526101008084015181840152506101208084015181840152506101408084015161536882850182614c22565b505061016083015161537e610180840182614c79565b5092915050565b600060e0820190508251825260208301516020830152604083015115156040830152606083015160608301526080830151608083015260a083015160a083015260c083015160c083015292915050565b6001600160801b0391909116815260200190565b61ffff929092168252602082015260400190565b9283526020830191909152604082015260600190565b6001600160501b0391909116815260200190565b81816000805b600280821061543c5750613280565b8435615447816156a2565b845461ffff6008860281811b801990931693909116901b161784556020949094019390910190601e82111561548157600091506001830192505b60010161542d565b60005b838110156154a457818101518382015260200161548c565b83811115614c495750506000910152565b60008135610ee8816156a2565b60008135610ee8816156b5565b60008135610ee8816156c7565b81356154e7816156a2565b61ffff811661ffff198354161782555061550c615506602084016154b5565b82615644565b61552161551b604084016154c2565b82615660565b615536615530606084016154b5565b82615684565b61554b615545608084016154cf565b826155b1565b61556061555a60a084016154cf565b826155ce565b61557561556f60c084016154cf565b826155eb565b61558a61558460e084016154cf565b82615608565b6155a061559a61010084016154b5565b82615625565b614371610120830160018301615427565b805460ff60501b191660509290921b60ff60501b16919091179055565b805460ff60581b191660589290921b60ff60581b16919091179055565b805460ff60601b191660609290921b60ff60601b16919091179055565b805460ff60681b191660689290921b60ff60681b16919091179055565b805461ffff60701b191660709290921b61ffff60701b16919091179055565b805463ffff00008360101b1663ffff0000198216178255505050565b805467ffffffff000000008360201b1667ffffffff00000000198216178255505050565b805461ffff60401b8360401b1661ffff60401b198216178255505050565b61ffff811681146156b257600080fd5b50565b63ffffffff811681146156b257600080fd5b60ff811681146156b257600080fd5b6001600160501b03811681146156b257600080fdfea2646970667358221220798987c073f06e086e86f61d34415a0b3ee777d473402754a89664a32244516e64736f6c63430007060033","bytecodeSha1":"0cb1cc45ad47b1c54f866bfebab1eeaf942a6a5d","compiler":{"evm_version":"istanbul","optimizer":{"enabled":true,"runs":200},"version":"0.7.6+commit.7338295f"},"contractName":"VaultAction","deployedBytecode":"608060405234801561001057600080fd5b50600436106101215760003560e01c80636c346c09116100ad578063c4c96dae11610071578063c4c96dae1461026b578063d04c16ac14610273578063d6ddeb9a14610286578063de1eb9a314610299578063ee01436b146102b957610121565b80636c346c091461021357806382463367146102265780638da5cb5b1461022e578063a14db57c14610236578063b3c475461461025857610121565b8063295e6b7f116100f4578063295e6b7f1461018c578063315722811461019f57806350e4f223146101bf57806356f428c4146101df57806367515776146101f257610121565b806301ac8852146101265780630bc08cdc1461014f57806324a3d62214610162578063291afdf314610177575b600080fd5b610139610134366004614b1d565b6102cc565b6040516101469190614dc9565b60405180910390f35b61013961015d366004614983565b610356565b61016a61050b565b6040516101469190614ca3565b61018a61018536600461491d565b61051a565b005b61018a61019a36600461495a565b610636565b6101b26101ad36600461495a565b610871565b6040516101469190615385565b6101d26101cd366004614892565b61088a565b6040516101469190614e1e565b61018a6101ed36600461479b565b610a4d565b610205610200366004614829565b610acd565b604051610146929190614e5a565b61020561022136600461495a565b610b1d565b61016a610b58565b61016a610b67565b610249610244366004614854565b610b7d565b604051610146939291906153fd565b61018a6102663660046147d5565b610be3565b61016a610c9b565b61018a610281366004614b35565b610cb3565b61018a6102943660046149e4565b610e25565b6102ac6102a7366004614781565b610ed7565b60405161014691906152d1565b6102056102c7366004614b35565b610eee565b6102d4614599565b60006102df33610f40565b90506102ec816001610f6f565b6103115760405162461bcd60e51b815260040161030890614f2f565b60405180910390fd5b6101408101516103349061032f9060005b6020020151839086610f84565b6110fd565b825261014081015161034b9061032f906001610322565b602083015250919050565b61035e614599565b600061036933610f40565b9050610376816001610f6f565b6103925760405162461bcd60e51b815260040161030890614f2f565b610140810151805161ffff161515806103b25750602081015161ffff1615155b6103bb57600080fd5b6103c3614599565b6103ce836002610f6f565b80156103e357506001600160a01b0389163314155b156104a85760006103f2611114565b6001600160a01b03808c1660009081526020928352604080822088519093168252919092529020805490915063ffffffff1680156104a55789811061043657600080fd5b610473858c866000602002015185548590600160201b90046001600160501b03168c60005b60200201602081019061046e9190614b86565b611121565b83526020840151825461049f9187918e91908590600160701b90046001600160501b03168c600161045b565b60208401525b50505b815181516104d59185918c91908c908c358c60005b6020020160208101906104d09190614b86565b611156565b8452602082810151828201516104f99286928d9290918d91908d01358c60016104bd565b60208501525091979650505050505050565b6002546001600160a01b031681565b600054600160201b90046001600160a01b0316331461054b5760405162461bcd60e51b815260040161030890615197565b600061055684610f40565b905060006105678461ffff166111d0565b905060006105788561ffff166111e3565b9050816020015115801561058e57508060200151155b61059757600080fd5b6101408301515161ffff868116911614806105c157506101408301516020015161ffff8681169116145b6105dd5760405162461bcd60e51b81526004016103089061513e565b6105e88686866111f6565b8461ffff16866001600160a01b03167f8f868f60e49b80b48ee5de8b7bc703cfc4b5c826a05d3ea1b00cf4159c155a90866040516106269190615413565b60405180910390a3505050505050565b6002600a5414156106595760405162461bcd60e51b815260040161030890615250565b6002600a55600061066983610f40565b90506106778133604061124a565b600061068384846112b4565b905042831115801561069757506040810151155b6106b35760405162461bcd60e51b8152600401610308906150c1565b60006106c8836040015161ffff16854261134f565b905060006106e661032f6106df85602001516114bf565b84906114cd565b905060006106f2611506565b6001600160a01b038816600090815260209182526040808220898352909252206101408601515190915061ffff1615610765576101408501515161ffff166000908152602082905260409020546001600160501b0316156107655760405162461bcd60e51b815260040161030890614fb3565b6101408501516020015161ffff16156107bc5761014085015160209081015161ffff1660009081529082905260409020546001600160501b0316156107bc5760405162461bcd60e51b815260040161030890614fb3565b818460800151101561083a5760a0840151156107ea5760405162461bcd60e51b815260040161030890614f04565b60006107fb85608001518403611513565b9050600061081661032f88600001518960400151858c611529565b60808701519091506108289082611651565b6080870152610837868a611663565b50505b61085587866040015161085087602001516114bf565b6117cd565b5061086384868589426118d3565b50506001600a555050505050565b6108796145b7565b61088383836112b4565b9392505050565b6060600061089733610f40565b90506108a4816001610f6f565b6108c05760405162461bcd60e51b815260040161030890614f2f565b60006108d0828b8b8b8b8b611a99565b50905060006108e28a61ffff166111d0565b90506000806004836060015160058111156108f957fe5b146109105761090b8c61ffff166111e3565b610912565b825b9050600061094361032f61093c610937888a6101600151611c6390919063ffffffff16565b6114bf565b8490611c8e565b905060006109518330611cca565b8351604051637efbe0e760e11b8152919250339163fdf7c1ce9161097d9186908f908f90600401614d52565b600060405180830381600087803b15801561099757600080fd5b505af11580156109ab573d6000803e3d6000fd5b505050506040513d6000823e601f3d908101601f191682016040526109d39190810190614a5c565b975060006109e18430611cca565b90506109ed8183611d74565b945082851015610a0f5760405162461bcd60e51b815260040161030890615278565b5060049250610a1c915050565b82606001516005811115610a2c57fe5b14610a3e57610a3c828c83611d89565b505b50505050979650505050505050565b600054600160201b90046001600160a01b03163314610a7e5760405162461bcd60e51b815260040161030890615197565b610a888282611e70565b816001600160a01b03167f7c51c6aa77346c54cb051d9e792f9b7bde5c28a9b57e6fb2d2dd727b38438ca982604051610ac19190614dfa565b60405180910390a25050565b6000806000610ada611ed0565b6001600160a01b0390951660009081526020958652604080822061ffff9096168252949095525050509020546001600160501b03600160501b8204811692911690565b6000806000610b2b85611edd565b90506000610b3d8260000151866112b4565b9050610b4a828287611f01565b9350935050505b9250929050565b6001546001600160a01b031681565b600054600160201b90046001600160a01b031681565b600080600080610b8b611506565b6001600160a01b0390971660009081526020978852604080822096825295885285812061ffff9097168152959096525050509020546001600160501b0380821693600160501b830482169350600160a01b9092041690565b600054600160201b90046001600160a01b03163314610c145760405162461bcd60e51b815260040161030890615197565b610c1e8383611fba565b610c3883610c326040850160208601614b01565b836111f6565b6000600180610c4a6020860186614b01565b1661ffff16149050836001600160a01b03167fb441d7ca09abc712b4504256717707ce40e8d43895266b46abf9cd58619c07dc8284604051610c8d929190614e05565b60405180910390a250505050565b73__$7ac922d04bd7a1b42c7f6e5f1dd89a70af$__90565b6002600a541415610cd65760405162461bcd60e51b815260040161030890615250565b6002600a556000610ce633610f40565b9050610cf3816001610f6f565b610d0f5760405162461bcd60e51b815260040161030890614f2f565b610d1a816080610f6f565b15610d25576001600a555b6000610d3133876112b4565b90506000610d538360000151610d4688611513565b8591908a60008a8a6121bf565b6080830151909150610d659087611d74565b608083015260a0820151610d799082611651565b60a0830152610d888233611663565b6000610dab8333856060015186602001518861226890949392919063ffffffff16565b509050808460a001511315610dd25760405162461bcd60e51b8152600401610308906151f3565b87336001600160a01b03167fbba43506b1f3723add796bf603adde56bc018392a95775b9f76c31213b4161bb8985604051610e0e929190614e5a565b60405180910390a350506001600a55505050505050565b600054600160201b90046001600160a01b03163314610e565760405162461bcd60e51b815260040161030890615197565b6000610e6187610f40565b9050610e72878260400151886111f6565b610e7f81868686866122d0565b50506001600160a01b0387167fb441d7ca09abc712b4504256717707ce40e8d43895266b46abf9cd58619c07dc610eb7836001610f6f565b88604051610ec6929190614e05565b60405180910390a250505050505050565b610edf6145f6565b610ee882611edd565b92915050565b6000806000610efc33610f40565b9050610f09816001610f6f565b610f255760405162461bcd60e51b815260040161030890614f2f565b610f3281888888886122d0565b925092505094509492505050565b610f486145f6565b610f51826123e4565b9050610f64816040015161ffff16612561565b610160820152919050565b60209190910151811661ffff90811691161490565b600061ffff8316610f9757506000610883565b6000610fa1611506565b85516001600160a01b0316600090815260209182526040808220868352835280822061ffff88168352909252208054909150600160a01b90046001600160501b0316156110005760405162461bcd60e51b815260040161030890615168565b805460408601516001600160501b03909116906000906110239061ffff166125ad565b905060006110348761ffff166125ad565b905060006110428383612710565b90506110658161105f85600001518761273590919063ffffffff16565b90612783565b9550611078611073876110fd565b6127b4565b85546001600160501b0391909116600160a01b0269ffffffffffffffffffff60a01b199091161785558851604051889161ffff8b16916001600160a01b03909116907f744b6e0d7db0666a7c17a4868d11d5f7f909a7b04d458b5eace97646ba7a0ee8906110e9908b908790614e5a565b60405180910390a450505050509392505050565b60008082121561110c57600080fd5b50805b919050565b600080610ee8601a6127ca565b600061ffff85161580159061113557508215155b1561114c57611148878787878787611a99565b5090505b9695505050505050565b600061ffff86161580611167575082155b15611174575060006111c5565b60006111848989898988886127e3565b5090506111918186612984565b905060008112156111b45760405162461bcd60e51b81526004016103089061508a565b88516111c190888361299a565b9150505b979650505050505050565b6111d8614673565b610ee8826000612a42565b6111eb614673565b610ee8826001612a42565b6000611200611ed0565b6001600160a01b0390941660009081526020948552604080822061ffff90951682529390945250912080546001600160501b039092166001600160501b0319909216919091179055565b6112548382610f6f565b156112875782516001600160a01b031633146112825760405162461bcd60e51b815260040161030890614f4f565b6112af565b6001600160a01b03821633146112af5760405162461bcd60e51b815260040161030890614f4f565b505050565b6112bc6145b7565b60006112c6612af0565b6001600160a01b03909416600090815260209485526040808220858352865280822094845284546001600160501b038082169093039685019690965260ff600160f01b870416151590840152600160501b8086048216608085015260019094015480821660a0850152600160a01b909504166060830152509104600990810b900b60c082015290565b6113576146a2565b6000806113648686612afd565b91509150816000141561149457600061137c87612b46565b91945090925090506001600160a01b0381161561149257600061139d612c09565b90508560001080156113af5750858711155b80156113c0575064ffffffffff8611155b6113c957600080fd5b8360001280156113e057506001600160801b038413155b6113e957600080fd5b6000888152602082815260408083208a845290915290819020805464ffffffffff191664ffffffffff89161774ffffffffffffffffffffffffffffffff00000000001916650100000000006001600160801b038816021760ff60a81b1916600160a81b60ff871602178155905188908a907f0fdfa6885701e2f1f42e4187b9231cf81c1fe23671ef64fa46f34ddb56c1dc18906114879089906153d5565b60405180910390a350505b505b6040805160608101825260008152602081019390935260ff909116600a0a9082015290509392505050565b6000610ee860001983612735565b6000806114fe846020015161105f86604001516114f86402540be4008861273590919063ffffffff16565b90612735565b949350505050565b600080610ee860186127ca565b60006001600160ff1b0382111561110c57600080fd5b6000611536856000611e70565b846001600160a01b03167f7c51c6aa77346c54cb051d9e792f9b7bde5c28a9b57e6fb2d2dd727b38438ca960006040516115709190614dfa565b60405180910390a2818461ffff16866001600160a01b03167f823b641d46550301006f807a26587634f15bd13749efdc8859734377d5304a3b866040516115b79190614e51565b60405180910390a460006115d060008661ffff16612c16565b50505090508084136115f0576115e885858303612cbf565b839150611648565b6115fb856000612cbf565b828561ffff16876001600160a01b03167f3a717b6924e3ad05b8c7609a2401472af90869b52cc3c9ca69b50100b4be631684880360405161163c9190614e51565b60405180910390a48091505b50949350505050565b60008282018381101561088357600080fd5b600061166d612af0565b6001600160a01b03831660009081526020828152604080832087518452909152908190209085015191925090156116a357600080fd5b6116b661107361032f86602001516114bf565b81546001600160501b0319166001600160501b039190911617815560808401516116df906127b4565b81546001600160501b0391909116600160501b02600160501b600160a01b031990911617815560a0840151611713906127b4565b6001820180546001600160501b0319166001600160501b03929092169190911790556060840151611743906127b4565b81546001600160501b0391909116600160a01b0269ffffffffffffffffffff60a01b1990911617815583516020850151608086015160a087015160608801516040516001600160a01b038916947f3a0fdaecf7b5da75a56077f5b1c8fbc88f9b08e9d0c4db31eb34e25bc6700cde946117bf9491939092614e68565b60405180910390a350505050565b6000806117d8611ed0565b6001600160a01b03861660009081526020918252604080822061ffff8816835290925220805490915061181b90600160501b90046001600160501b031684612d16565b915060008312156118505780546001600160501b03168213156118505760405162461bcd60e51b8152600401610308906150e8565b61185c611073836110fd565b81546001600160501b0391909116600160501b02600160501b600160a01b031990911617815560405161ffff8516906001600160a01b038716907f20478ef460e49d010960d4f3fff35d8dae385443abfac09035d6a2ccbcd834c4906118c3908690614e51565b60405180910390a3509392505050565b60006118dd612af0565b85516001600160a01b03166000908152602082815260408083208784529091529020805491925090600160f01b900460ff161561191957600080fd5b8284111561192657600080fd5b6040860151865160009161194091806305f5e10089612d2c565b825460ff60f01b1916600160f01b178355905061195c81612df3565b82600101600a6101000a8154816001600160501b03021916908360090b6001600160501b031602179055506000611991612e23565b88516001600160a01b031660009081526020918252604080822089835283529020600185015481546001600160501b0319166001600160501b03909116178155908a0151909150611a03906119fe906119eb908a906114cd565b6119f88c60800151611513565b90612984565b612df3565b815460099190910b6001600160501b0316600160501b02600160501b600160a01b03199091161781558851885160208b015160808c015160a08d015160608e01516040516001600160a01b03909516947fe66a863186dba5a66d19d3d91a66b76a7cbfdefd0d8c29c662274b13febb166e94611a86949093909290918a90614e83565b60405180910390a3505050505050505050565b6000806000611aa6611506565b89516001600160a01b0316600090815260209182526040808220898352835280822061ffff8b168352909252208054909150600160a01b90046001600160501b03161580611b00575088516001600160a01b038981169116145b611b1c5760405162461bcd60e51b8152600401610308906151cc565b80546001600160501b0380821691600160501b900416611b4e611b4982611b438a86612e30565b90612e57565b611513565b93508a600001516001600160a01b03168a6001600160a01b031614611bb857611b7a6110738289611d74565b83546001600160501b0391909116600160501b02600160501b600160a01b0319909116178355611bb88b8b8b8b611bb36109378d611513565b612e76565b8a51611bc5908a866117cd565b50611bd36110738386611d74565b83546001600160501b0319166001600160501b0391909116178355611bfb8b8a8a878a612ffe565b94508861ffff168a6001600160a01b03168c600001516001600160a01b03167f38db3b2568ca34833805148705b1440a4f80962ce663ba509811abc652de434a8b8b89604051611c4d939291906153fd565b60405180910390a4505050965096945050505050565b6000806114fe846040015161105f6402540be40061105f87896020015161273590919063ffffffff16565b60006305f5e10083604001511215611cb657611caf60016119f885856130cb565b9050610ee8565b61088383611cc5846001612984565b6130cb565b6000600383606001516005811115611cde57fe5b1415611cf557506001600160a01b03811631610ee8565b82516040516370a0823160e01b81526001600160a01b03909116906370a0823190611d24908590600401614ca3565b60206040518083038186803b158015611d3c57600080fd5b505afa158015611d50573d6000803e3d6000fd5b505050506040513d601f19601f82011682018060405250810190611caf9190614ae9565b600082821115611d8357600080fd5b50900390565b600080600585606001516005811115611d9e57fe5b14611db0576370a0823160e01b611db9565b630ed1279f60e11b5b90506000611dcc86600001513084613103565b9050600586606001516005811115611de057fe5b1415611e07576000611df58661ffff166111e3565b9050611e018186613215565b50611e50565b600186606001516005811115611e1957fe5b1415611e2e57611e298685613288565b611e50565b600286606001516005811115611e4057fe5b141561012157611e29868561332a565b6000611e6187600001513085613103565b90506111c5611b49828461337d565b6000611e7a6133d4565b6001600160a01b038416600090815260208290526040902080549192509061ffff168315611eb957815461ffff19166001821761ffff16178255611ec9565b815461ffff191661fffe82161782555b5050505050565b600080610ee860176127ca565b611ee56145f6565b611eee826123e4565b9050610f64816040015161ffff166133e1565b6000806000611f18866040015161ffff16856133f7565b90506000611f3f610937611f2f8860800151611513565b60208901516119f89086906114cd565b90506000611f54886040015161ffff166111d0565b9050611f6081836130cb565b9450600481606001516005811115611f7457fe5b1415611f8257849350611faf565b6000611f95896040015161ffff166111e3565b9050611fab611fa48585611c63565b8290611c8e565b9450505b505050935093915050565b6000611fc46133d4565b9050611fd660c0830160a08401614ba2565b60ff1660641315611fe657600080fd5b6064611ff860e0840160c08501614ba2565b60ff16131561200657600080fd5b612017610100830160e08401614ba2565b60ff1661202357600080fd5b61203561012083016101008401614b01565b61ffff166120496080840160608501614b01565b61ffff161061205757600080fd5b61206961014083016101208401614b01565b61ffff1661207d6040840160208501614b01565b61ffff16141561208c57600080fd5b61209e61016083016101408401614b01565b61ffff166120b26040840160208501614b01565b61ffff1614156120c157600080fd5b6120d361014083016101208401614b01565b61ffff16158015906120f957506120f261016083016101408401614b01565b61ffff1615155b156121355761211061016083016101408401614b01565b61ffff1661212661014084016101208501614b01565b61ffff16141561213557600080fd5b600061215361214a6040850160208601614b01565b61ffff166111d0565b9050600061217361216a6040860160208701614b01565b61ffff166111e3565b9050816020015115801561218957508060200151155b61219257600080fd5b6001600160a01b038516600090815260208490526040902084906121b682826154dc565b50505050505050565b6000806121d589600001518a604001518961299a565b89519091506001600160a01b031663dc6679c5896121f38489611651565b8988886040518663ffffffff1660e01b8152600401612216959493929190614d9b565b602060405180830381600087803b15801561223057600080fd5b505af1158015612244573d6000803e3d6000fd5b505050506040513d601f19601f820116820180604052508101906111c19190614ae9565b60008061227786888787613454565b90506000612293612287856114bf565b6101608a0151906114cd565b905060006122a18383612d16565b9050816122b7576001600160ff1b0393506122c4565b6122c181836134b9565b93505b50509550959350505050565b6000806002600a5414156122f65760405162461bcd60e51b815260040161030890615250565b6002600a55612306876080610f6f565b15612311576001600a555b60006123218860000151886112b4565b8851909150600090612338908a90898b8a8a6134d2565b90506000811361234757600080fd5b60808201516123569082611651565b608083015260a082015161236a9088611d74565b60a0830152885161237c908390611663565b8789600001516001600160a01b03167fb2f70c3fe73b5aee7e8c59b77222111306f1e4d7170f8fa1c09979bb847eb9d9838a6040516123bc929190614e5a565b60405180910390a36123cf89838a611f01565b6001600a55909a909950975050505050505050565b6123ec6145f6565b60006123f66133d4565b6001600160a01b03841660008181526020838152604091829020928652825461ffff8082169288019290925262010000810490911691860191909152919250906124569063ffffffff600160201b9091048116906305f5e1009061273516565b6060840152805461247490600160501b900460ff166207a120612e30565b608084015280546124989068010000000000000000900461ffff16620186a0612e30565b60a084015280546124b790600160701b900461ffff16620186a0612e30565b610120840152805460649060ff600160581b90910416633b9aca00020560c08401528054600160601b810460ff90811660e0860152600160681b909104166101008401526040805180820191829052906001830190600290826000855b82829054906101000a900461ffff1661ffff168152602001906002019060208260010104928301926001038202915080841161251457905050505050508361014001819052505050919050565b6125696146a2565b600080600061257785612b46565b604080516060810182526001600160a01b039093168352602083019390935260ff16600a0a918101919091529350505050919050565b6125b56146cc565b60006125bf613519565b60008481526020829052604081209192508060018614156125ec5750670de0b6b3a76400009050806126c2565b825460408051633fabe5a360e21b815290516001600160a01b039092169163feaf968c9160048082019260a092909190829003018186803b15801561263057600080fd5b505afa158015612644573d6000803e3d6000fd5b505050506040513d601f19601f820116820180604052508101906126689190614bbe565b509193505060008313915061269190505760405162461bcd60e51b81526004016103089061522a565b825460ff600160a01b82048116600a0a9350600160a81b90910416156126c2576126bf8161105f8480612735565b90505b6040805160a0810182529283526020830191909152915460ff600160b01b8204811693830193909352600160b81b810483166060830152600160c01b90049091166080820152915050919050565b6000610883826020015161105f8460000151866020015161273590919063ffffffff16565b8181026000198314156127655781158061275757508282828161275457fe5b05145b61276057600080fd5b610ee8565b82158061277a57508183828161277757fe5b05145b610ee857600080fd5b6000816000191480156127995750600160ff1b83145b156127a357600080fd5b8183816127ac57fe5b059392505050565b60006001600160501b0382111561110c57600080fd5b6000620f424082601a8111156127dc57fe5b0192915050565b6000806127fb88600001518761085061093788611513565b506000612806611506565b89516001600160a01b0316600090815260209182526040808220898352835280822061ffff8b168352909252208054909150600160a01b90046001600160501b0316156128655760405162461bcd60e51b8152600401610308906151cc565b805489516001600160501b0380831692600160501b900416906001600160a01b038b81169116146128f2578161289d578693506128ae565b6128ab82611b438984612e30565b93505b6128be8b8b8b8b611bb389611513565b6128cb6110738286611651565b83546001600160501b0391909116600160501b02600160501b600160a01b03199091161783555b6128ff6110738389611651565b83546001600160501b0319166001600160501b03919091161783556129328b8a8a61292c6109378c611513565b8a612ffe565b94508861ffff168a6001600160a01b03168c600001516001600160a01b03167fa119a38e8bbbf2cbe78427cb9e63ef28678b56e3ceecc10bda7c00503ea947398b888c604051611c4d939291906153fd565b81810182811215600083121514610ee857600080fd5b6000816129a957506000610883565b600082136129b657600080fd5b60006129c58461ffff166111d0565b905060006129d382856130cb565b90506004826060015160058111156129e757fe5b1415612a1557612a0e61032f610937888861ffff16612a05866114bf565b87929190613526565b9250612a39565b612a3661032f6109378761ffff1689612a2d866110fd565b879291906135ce565b92505b50509392505050565b612a4a614673565b6000612a54613664565b6000858152602082815260408083208715158452825291829020825160a08101845281546001600160a01b038116825260ff600160a01b82048116151594830194909452600160b01b81048416600a0a9482019490945293945092916060830191600160a81b909104166005811115612ac957fe5b81529154600160b81b900468ffffffffffffffffff16602090920191909152949350505050565b600080610ee860156127ca565b6000806000612b0a612c09565b6000958652602090815260408087209587529490525050509020546501000000000081046001600160801b031691600160a81b90910460ff1690565b6000806000806000612b5786613671565b909250905060006001600160a01b038316612b7c5750600090506402540be400612bfe565b826001600160a01b0316631ee108336040518163ffffffff1660e01b8152600401602060405180830381600087803b158015612bb757600080fd5b505af1158015612bcb573d6000803e3d6000fd5b505050506040513d601f19601f82011682018060405250810190612bef9190614ae9565b905060008113612bfe57600080fd5b969195509350915050565b600080610ee860086127ca565b6000806000806000612c266136a8565b6001600160a01b0388166000908152602082815260408083208a8452909152902080546001600160501b0381169650600160501b900463ffffffff1694509091508315612c8f578054612c8890600160701b900466ffffffffffffff166136b5565b9250612ca4565b8054600160701b900466ffffffffffffff1692505b54600160a81b9004600a90810b900b97939650919450925050565b6000811215612ccd57600080fd5b612ce260008361ffff168360008060006136c3565b8161ffff167fd3625f7b5926828151efe19f7ae655488287357d99ebe67e5fb20522ca739c0b82604051610ac19190614e51565b80820382811315600083121514610ee857600080fd5b600080612d3c8761ffff166111e3565b9050806040015160001415612d5b57612d588761ffff166111d0565b90505b60405163e937711160e01b8152612de6906001600160a01b0388169063e937711190612d8f90899089908990600401614d7a565b60206040518083038186803b158015612da757600080fd5b505afa158015612dbb573d6000803e3d6000fd5b505050506040513d601f19601f82011682018060405250810190612ddf9190614ae9565b829061380a565b9150505b95945050505050565b6000697fffffffffffffffffff198212801590612e1a5750697fffffffffffffffffff8213155b61110c57600080fd5b600080610ee860196127ca565b600082612e3f57506000610ee8565b82820282848281612e4c57fe5b041461088357600080fd5b6000808211612e6557600080fd5b818381612e6e57fe5b049392505050565b6000612e80611114565b6001600160a01b038087166000908152602092835260408082208a519093168252919092529020805490915063ffffffff1683811480612ebe575080155b612eda5760405162461bcd60e51b815260040161030890614ea6565b815461014088015151600160201b82046001600160501b0390811692600160701b9004169061ffff88811691161415612f5457612f178286612984565b9150612f25611073836110fd565b84546001600160501b0391909116600160201b026dffffffffffffffffffff0000000019909116178455612fae565b6101408901516020015161ffff8881169116141561012157612f768186612984565b9050612f84611073826110fd565b84546001600160501b0391909116600160701b0269ffffffffffffffffffff60701b199091161784555b81158015612fba575080155b15612fcf57835463ffffffff19168455612ff3565b82612ff357612fdd8661383a565b845463ffffffff191663ffffffff919091161784555b505050505050505050565b6000856040015161ffff168561ffff16141561301957600080fd5b8261302657506000612dea565b42841161306357600083121561303b57600080fd5b600061304c8661ffff16864261134f565b905061305b61093782866114cd565b915050612dea565b613076858585858a61010001514261384d565b9050600083138015613086575080155b156130a25761016086015161309f9061093790856114cd565b90505b6000831215612dea5760008113612dea5760405162461bcd60e51b815260040161030890614edd565b60006305f5e100836040015114156130e4575080610ee8565b6108836305f5e10061105f85604001518561273590919063ffffffff16565b604080516001600160a01b0384811660248084019190915283518084039091018152604490920183526020820180516001600160e01b03166001600160e01b0319861617815292518251600094859485948a16939092909182918083835b602083106131805780518252601f199092019160209182019101613161565b6001836020036101000a038019825116818451168082178552505050505050905001915050600060405180830381855afa9150503d80600081146131e0576040519150601f19603f3d011682016040523d82523d6000602084013e6131e5565b606091505b5091509150816131f457600080fd5b80806020019051602081101561320957600080fd5b50519695505050505050565b61321d61395c565b54825160405163e8eda9df60e01b81526001600160a01b039092169163e8eda9df916132529185903090600090600401614d25565b600060405180830381600087803b15801561326c57600080fd5b505af1158015613280573d6000803e3d6000fd5b505050505050565b815160405163140e25ad60e31b81526000916001600160a01b03169063a0712d68906132b8908590600401614e51565b602060405180830381600087803b1580156132d257600080fd5b505af11580156132e6573d6000803e3d6000fd5b505050506040513d601f19601f8201168201806040525081019061330a9190614ae9565b905080156112af5760405162461bcd60e51b815260040161030890614f75565b81600001516001600160a01b0316631249c58b826040518263ffffffff1660e01b81526004016000604051808303818588803b15801561336957600080fd5b505af11580156121b6573d6000803e3d6000fd5b600082821115611d83576040805162461bcd60e51b815260206004820152601e60248201527f536166654d6174683a207375627472616374696f6e206f766572666c6f770000604482015290519081900360640190fd5b600080610ee860146127ca565b6133e96146a2565b600080600061257785613969565b6133ff6146a2565b60008061340c8585612afd565b91509150816000141561342a5761342285613969565b919350909150505b6040805160608101825260008152602081019390935260ff909116600a0a90820152905092915050565b600081613463575060006114fe565b60008061347087856139ec565b91509150600061348f8760400151886000015188858c60000151612d2c565b90506134ad61349d84611513565b6101608901516119f890846114cd565b98975050505050505050565b60006108836134cc84633b9aca00612735565b83612783565b6000611148876040518060a00160405280896001600160a01b03168152602001896001600160a01b0316815260200188815260200187815260200160008152508585613a45565b600080610ee860106127ca565b8060058560600151600581111561353957fe5b141561355e57600061354a846111e3565b905061355a816000015184613cf2565b9250505b600082131561358a576000613574868685613d78565b9050856020015115613584578091505b506114fe565b60038560600151600581111561359c57fe5b14156135b9576135b4846135af846114bf565b613e6b565b6114fe565b84516114fe90856135c9856114bf565b613ea1565b6000806002866060015160058111156135e357fe5b14156135fb576135f4868585613f18565b9050613658565b6000613606866111e3565b905060058760600151600581111561361a57fe5b14156136325761362b818686613fd5565b9150613656565b60018760600151600581111561364457fe5b14156101215761362b87828787614086565b505b61114c61093782611513565b600080610ee860076127ca565b600080600061367e614184565b600094855260205250506040909120546001600160a01b03811692600160a01b90910460ff169150565b600080610ee860066127ca565b600881901c60ff9091161b90565b60006136cd6136a8565b6001600160a01b0388166000908152602082815260408083208a845290915290209091506a7fffffffffffffffffffff19861280159061371857506a7fffffffffffffffffffff8613155b61372157600080fd5b6000851215801561373957506001600160501b038513155b61374257600080fd5b836137825766ffffffffffffff83111561375b57600080fd5b805466ffffffffffffff60701b1916600160701b66ffffffffffffff85160217815561379c565b8054600160501b900463ffffffff16841461379c57600080fd5b8054600a9690960b6affffffffffffffffffffff16600160a81b026001600160a81b036001600160501b039096166001600160501b031963ffffffff909616600160501b0263ffffffff60501b19909816979097179490941695909517939093169190911790925550505050565b60006305f5e10083604001511415613823575080610ee8565b60408301516108839061105f846305f5e100612735565b600063ffffffff82111561110c57600080fd5b60008061385c88888686614191565b9050600061386987614200565b90506affffffffffffffffffffff811061388257600080fd5b600060788763ffffffff16901b609883901b60f085901b60f860008c136138aa5760016138ad565b60005b60058111156138b857fe5b60ff16901b17171760001b905073__$7ac922d04bd7a1b42c7f6e5f1dd89a70af$__63e50f349e8b836040518363ffffffff1660e01b81526004016138fe9291906153e9565b60206040518083038186803b15801561391657600080fd5b505af415801561392a573d6000803e3d6000fd5b505050506040513d601f19601f8201168201806040525081019061394e9190614ae9565b9a9950505050505050505050565b600080610ee860136127ca565b600080600080600061397a86613671565b909250905060006001600160a01b03831661399f5750600090506402540be400612bfe565b826001600160a01b031663b2fffb046040518163ffffffff1660e01b815260040160206040518083038186803b1580156139d857600080fd5b505afa158015612bcb573d6000803e3d6000fd5b600080600084606001511115610b5157613a1b8460600151611b43866080015186612e3090919063ffffffff16565b9150613a3c8460600151611b438660a0015186612e3090919063ffffffff16565b90509250929050565b6000806000613a5b876040015161ffff166111d0565b90506000600482606001516005811115613a7157fe5b14613a8c57613a87886040015161ffff166111e3565b613a8e565b815b905060008088608001511215613b0157600483606001516005811115613ab057fe5b1415613acd57613ac661032f89608001516114bf565b9050613b01565b6000613aee6109378a608001518c6101600151611c6390919063ffffffff16565b9050613afd61032f8483611c8e565b9150505b604088015160009015613bd9576000613b1a8430611cca565b90508a600001516001600160a01b03166344f051088b600001518c602001518d604001518e60600151888f8f6040518863ffffffff1660e01b8152600401613b689796959493929190614cb7565b602060405180830381600087803b158015613b8257600080fd5b505af1158015613b96573d6000803e3d6000fd5b505050506040513d601f19601f82011682018060405250810190613bba9190614ae9565b95506000613bc88530611cca565b9050613bd48183611d74565b925050505b81811015613c7457808203600384606001516005811115613bf657fe5b1415613c345734811115613c1c5760405162461bcd60e51b815260040161030890614fda565b613c2c8a60000151823403613e6b565b829150613c72565b6000613c598b600001518d6040015161ffff16613c5085611513565b88929190613526565b9050613c6e613c67826110fd565b8490611651565b9250505b505b81811015613c945760405162461bcd60e51b815260040161030890614fda565b6000600485606001516005811115613ca857fe5b1415613cbe57613cb782611513565b9050613cd8565b8115613cd85760408b0151613cd590869084611d89565b90505b613ce2858261380a565b9650505050505094509492505050565b600081613d0157506000610ee8565b6000613d0c84614221565b90506000613d1984614200565b9050816b019d971e4fe8401e74000001600160ff1b0381613d3657fe5b05811315613d4357600080fd5b6b033b2e3c9fd0803ce80000006b019d971e4fe8401e74000000838302010560008513612dea57613d73816114bf565b61114c565b6000808080600587606001516005811115613d8f57fe5b14613da1576370a0823160e01b613daa565b630ed1279f60e11b5b9050866020015115613dc6578651613dc3903083613103565b92505b8651613dd39087876142ac565b866020015180613de7575060008760800151115b15613dfc578651613df9903083613103565b91505b608087015115613e37576000613e1a88613e1585611513565b61380a565b9050613e298860800151611513565b811315613e3557600080fd5b505b866020015115613e5857613e4e611b49838561337d565b9350505050610883565b613e4e85611513565b5050509392505050565b6040516001600160a01b0383169082156108fc029083906000818181858888f193505050501580156112af573d6000803e3d6000fd5b826001600160a01b031663a9059cbb83836040518363ffffffff1660e01b815260040180836001600160a01b0316815260200182815260200192505050600060405180830381600087803b158015613ef857600080fd5b505af1158015613f0c573d6000803e3d6000fd5b505050506112af614304565b825160405163db006a7560e01b8152600091479183916001600160a01b03169063db006a7590613f4c908790600401614e51565b602060405180830381600087803b158015613f6657600080fd5b505af1158015613f7a573d6000803e3d6000fd5b505050506040513d601f19601f82011682018060405250810190613f9e9190614ae9565b90508015613fbe5760405162461bcd60e51b815260040161030890614f93565b47613fc9818461337d565b9350613e618685613e6b565b6000613ff061032f8560000151613feb85611513565b613cf2565b9050613ffa61395c565b548451604051631a4ca37b60e21b81526001600160a01b03909216916369328dec9161402c9185908890600401614d02565b602060405180830381600087803b15801561404657600080fd5b505af115801561405a573d6000803e3d6000fd5b505050506040513d601f19601f8201168201806040525081019061407e9190614ae9565b509392505050565b8251600090819061409f90306370a0823160e01b613103565b9050600086600001516001600160a01b031663db006a75856040518263ffffffff1660e01b81526004016140d39190614e51565b602060405180830381600087803b1580156140ed57600080fd5b505af1158015614101573d6000803e3d6000fd5b505050506040513d601f19601f820116820180604052508101906141259190614ae9565b905080156141455760405162461bcd60e51b815260040161030890614f93565b855160009061415c90306370a0823160e01b613103565b9050614168818461337d565b935061417987600001518786613ea1565b505050949350505050565b600080610ee8600f6127ca565b60008060006141a38761ffff16614375565b90506141b38160ff16878661438b565b9093509150848311156141d85760405162461bcd60e51b815260040161030890615060565b81156141f65760405162461bcd60e51b815260040161030890615060565b5050949350505050565b60008082121561421a57614213826114bf565b905061110f565b508061110f565b6000610ee861422e61395c565b5460405163d15e005360e01b81526001600160a01b039091169063d15e00539061425c908690600401614ca3565b60206040518083038186803b15801561427457600080fd5b505afa158015614288573d6000803e3d6000fd5b505050506040513d601f19601f82011682018060405250810190611b499190614ae9565b604080516323b872dd60e01b81526001600160a01b038481166004830152306024830152604482018490529151918516916323b872dd9160648082019260009290919082900301818387803b158015613ef857600080fd5b600061430e6146fb565b3d8015614322576020811461432b57600080fd5b60019250614336565b60206000833e815192505b5081614371576040805162461bcd60e51b8152602060048201526005602482015264045524332360dc1b604482015290519081900360640190fd5b5050565b60008061438183614453565b60ff169392505050565b600080600085116143ae5760405162461bcd60e51b81526004016103089061500a565b60078511156143cf5760405162461bcd60e51b81526004016103089061510e565b60006143da84614470565b905060015b8681116144325760006143fb6143f48361448e565b8490614532565b905086811415614413575092506000915061444b9050565b86811115614429575092506001915061444b9050565b506001016143df565b5060405162461bcd60e51b8152600401610308906152a4565b935093915050565b60008061445e61458c565b60009384526020525050604090205490565b60006276a70082101561448257600080fd5b506276a7008106900390565b600081600114156144a357506276a70061110f565b81600214156144b6575062ed4e0061110f565b81600314156144ca57506301da9c0061110f565b81600414156144de57506303b5380061110f565b81600514156144f257506309450c0061110f565b8160061415614506575063128a180061110f565b816007141561451a5750632514300061110f565b60405162461bcd60e51b815260040161030890615039565b600082820183811015610883576040805162461bcd60e51b815260206004820152601b60248201527f536166654d6174683a206164646974696f6e206f766572666c6f770000000000604482015290519081900360640190fd5b600080610ee860096127ca565b60405180604001604052806002906020820280368337509192915050565b6040518060e001604052806000815260200160008152602001600015158152602001600081526020016000815260200160008152602001600081525090565b60405180610180016040528060006001600160a01b03168152602001600061ffff168152602001600061ffff16815260200160008152602001600081526020016000815260200160008152602001600081526020016000815260200160008152602001614661614599565b815260200161466e6146a2565b905290565b6040805160a0810182526000808252602082018190529181018290529060608201908152602001600081525090565b604051806060016040528060006001600160a01b0316815260200160008152602001600081525090565b6040518060a0016040528060008152602001600081526020016000815260200160008152602001600081525090565b60405180602001604052806001906020820280368337509192915050565b80356001600160a01b038116811461110f57600080fd5b8060408101831015610ee857600080fd5b60008083601f840112614752578182fd5b50813567ffffffffffffffff811115614769578182fd5b602083019150836020828501011115610b5157600080fd5b600060208284031215614792578081fd5b61088382614719565b600080604083850312156147ad578081fd5b6147b683614719565b9150602083013580151581146147ca578182fd5b809150509250929050565b60008060008385036101a08112156147eb578182fd5b6147f485614719565b9350610160601f1982011215614808578182fd5b5060208401915061018084013561481e816156d6565b809150509250925092565b6000806040838503121561483b578182fd5b61484483614719565b915060208301356147ca816156a2565b600080600060608486031215614868578283fd5b61487184614719565b92506020840135614881816156a2565b929592945050506040919091013590565b600080600080600080600060c0888a0312156148ac578283fd5b6148b588614719565b965060208801356148c5816156a2565b9550604088013594506060880135935060808801356148e3816156b5565b925060a088013567ffffffffffffffff8111156148fe578283fd5b61490a8a828b01614741565b989b979a50959850939692959293505050565b600080600060608486031215614931578283fd5b61493a84614719565b9250602084013561494a816156a2565b9150604084013561481e816156d6565b6000806040838503121561496c578182fd5b61497583614719565b946020939093013593505050565b6000806000806000610100868803121561499b578283fd5b6149a486614719565b9450602086013593506149ba8760408801614730565b92506149c98760808801614730565b91506149d88760c08801614730565b90509295509295909350565b60008060008060008060a087890312156149fc578384fd5b614a0587614719565b95506020870135614a15816156d6565b94506040870135935060608701359250608087013567ffffffffffffffff811115614a3e578283fd5b614a4a89828a01614741565b979a9699509497509295939492505050565b600060208284031215614a6d578081fd5b815167ffffffffffffffff80821115614a84578283fd5b818401915084601f830112614a97578283fd5b815181811115614aa357fe5b604051601f8201601f191681016020018381118282101715614ac157fe5b604052818152838201602001871015614ad8578485fd5b61114c826020830160208701615489565b600060208284031215614afa578081fd5b5051919050565b600060208284031215614b12578081fd5b8135610883816156a2565b600060208284031215614b2e578081fd5b5035919050565b60008060008060608587031215614b4a578182fd5b8435935060208501359250604085013567ffffffffffffffff811115614b6e578283fd5b614b7a87828801614741565b95989497509550505050565b600060208284031215614b97578081fd5b8135610883816156b5565b600060208284031215614bb3578081fd5b8135610883816156c7565b600080600080600060a08688031215614bd5578283fd5b8551614be0816156d6565b809550506020860151935060408601519250606086015191506080860151614c07816156d6565b809150509295509295909350565b6001600160a01b03169052565b8060005b6002811015614c4957815161ffff16845260209384019390910190600101614c26565b50505050565b60008284528282602086013780602084860101526020601f19601f85011685010190509392505050565b80516001600160a01b0316825260208082015190830152604090810151910152565b61ffff169052565b6001600160a01b0391909116815260200190565b600060018060a01b03808a16835280891660208401525086604083015285606083015284608083015260c060a0830152614cf560c083018486614c4f565b9998505050505050505050565b6001600160a01b0393841681526020810192909252909116604082015260600190565b6001600160a01b03948516815260208101939093529216604082015261ffff909116606082015260800190565b600060018060a01b03861682528460208301526060604083015261114c606083018486614c4f565b6001600160a01b039390931683526020830191909152604082015260600190565b600060018060a01b0387168252856020830152846040830152608060608301526111c5608083018486614c4f565b60408101818360005b6002811015614df1578151835260209283019290910190600101614dd2565b50505092915050565b901515815260200190565b91151582526001600160501b0316602082015260400190565b6000602082528251806020840152614e3d816040850160208701615489565b601f01601f19169190910160400192915050565b90815260200190565b918252602082015260400190565b93845260208401929092526040830152606082015260800190565b948552602085019390935260408401919091526060830152608082015260a00190565b6020808252601a908201527f496e76616c6964205365636f6e64617279204d61747572697479000000000000604082015260600190565b6020808252600d908201526c109bdc9c9bddc811985a5b1959609a1b604082015260600190565b60208082526011908201527052656465656d20616c6c20746f6b656e7360781b604082015260600190565b60208082526006908201526514185d5cd95960d21b604082015260600190565b6020808252600c908201526b155b985d5d1a1bdc9a5e995960a21b604082015260600190565b602080825260049082015263135a5b9d60e21b604082015260600190565b60208082526006908201526552656465656d60d01b604082015260600190565b6020808252600d908201526c556e7061696420426f72726f7760981b604082015260600190565b602080825260169082015275125b9cdd59999a58da595b9d081c995c185e5b595b9d60521b604082015260600190565b60208082526015908201527410d1ce881b9bc81b585c9ad95d1cc81b1a5cdd1959605a1b604082015260600190565b6020808252600d908201526c092dcecc2d8d2c840d2dcc8caf609b1b604082015260600190565b60208082526010908201526f496e76616c6964204d6174757269747960801b604082015260600190565b6020808252601d908201527f496e73756666696369656e74205365636f6e6461727920426f72726f77000000604082015260600190565b6020808252600d908201526c43616e6e6f7420536574746c6560981b604082015260600190565b6020808252600c908201526b4d617820436170616369747960a01b604082015260600190565b60208082526016908201527510d1ce881b585c9ad95d081a5b99195e08189bdd5b9960521b604082015260600190565b60208082526010908201526f496e76616c69642043757272656e637960801b604082015260600190565b60208082526015908201527410d85b9b9bdd0814995cd95d0814db985c1cda1bdd605a1b604082015260600190565b6020808252818101527f4f776e61626c653a2063616c6c6572206973206e6f7420746865206f776e6572604082015260600190565b6020808252600d908201526c125b8814d95d1d1b195b595b9d609a1b604082015260600190565b60208082526017908201527f496e73756666696369656e7420436f6c6c61746572616c000000000000000000604082015260600190565b6020808252600c908201526b496e76616c6964207261746560a01b604082015260600190565b6020808252600e908201526d1499595b9d1c985b9d0818d85b1b60921b604082015260600190565b602080825260129082015271496e73756666696369656e7420526570617960701b604082015260600190565b60208082526013908201527210d1ce881b9bc81b585c9ad95d08199bdd5b99606a1b604082015260600190565b60006101e0820190506152e5828451614c15565b60208301516152f76020840182614c9b565b50604083015161530a6040840182614c9b565b50606083015160608301526080830151608083015260a083015160a083015260c083015160c083015260e083015160e08301526101008084015181840152506101208084015181840152506101408084015161536882850182614c22565b505061016083015161537e610180840182614c79565b5092915050565b600060e0820190508251825260208301516020830152604083015115156040830152606083015160608301526080830151608083015260a083015160a083015260c083015160c083015292915050565b6001600160801b0391909116815260200190565b61ffff929092168252602082015260400190565b9283526020830191909152604082015260600190565b6001600160501b0391909116815260200190565b81816000805b600280821061543c5750613280565b8435615447816156a2565b845461ffff6008860281811b801990931693909116901b161784556020949094019390910190601e82111561548157600091506001830192505b60010161542d565b60005b838110156154a457818101518382015260200161548c565b83811115614c495750506000910152565b60008135610ee8816156a2565b60008135610ee8816156b5565b60008135610ee8816156c7565b81356154e7816156a2565b61ffff811661ffff198354161782555061550c615506602084016154b5565b82615644565b61552161551b604084016154c2565b82615660565b615536615530606084016154b5565b82615684565b61554b615545608084016154cf565b826155b1565b61556061555a60a084016154cf565b826155ce565b61557561556f60c084016154cf565b826155eb565b61558a61558460e084016154cf565b82615608565b6155a061559a61010084016154b5565b82615625565b614371610120830160018301615427565b805460ff60501b191660509290921b60ff60501b16919091179055565b805460ff60581b191660589290921b60ff60581b16919091179055565b805460ff60601b191660609290921b60ff60601b16919091179055565b805460ff60681b191660689290921b60ff60681b16919091179055565b805461ffff60701b191660709290921b61ffff60701b16919091179055565b805463ffff00008360101b1663ffff0000198216178255505050565b805467ffffffff000000008360201b1667ffffffff00000000198216178255505050565b805461ffff60401b8360401b1661ffff60401b198216178255505050565b61ffff811681146156b257600080fd5b50565b63ffffffff811681146156b257600080fd5b60ff811681146156b257600080fd5b6001600160501b03811681146156b257600080fdfea2646970667358221220798987c073f06e086e86f61d34415a0b3ee777d473402754a89664a32244516e64736f6c63430007060033","language":"Solidity","natspec":{"kind":"dev","methods":{"borrowSecondaryCurrencyToVault(address,uint256,uint256[2],uint32[2],uint32[2])":{"notice":"Allows a vault to borrow a secondary currency if it is whitelisted to do so","params":{"account":"account that is borrowing the secondary currency","fCashToBorrow":"fCash to borrow for the first and second secondary currencies","maturity":"the maturity to borrow at","maxBorrowRate":"maximum borrow rate for the first and second secondary currencies","minRollLendRate":"max roll lend rate for the first and second borrow currencies"},"returns":{"underlyingTokensTransferred":"amount of tokens transferred back to the vault"}},"depositVaultCashToStrategyTokens(uint256,uint256,bytes)":{"notice":"Strategy vaults can call this method to deposit asset cash into strategy tokens.","params":{"assetCashInternal":"the number of asset cash tokens to deposit (external)","maturity":"the maturity of the vault where the redemption will take place","vaultData":"arbitrary data to pass back to the vault for deposit"}},"getCashRequiredToSettle(address,uint256)":{"notice":"View method to get the current amount of cash remaining to settle the vault"},"getVaultConfig(address)":{"notice":"View Methods *"},"getVaultState(address,uint256)":{"notice":"View method to get vault state"},"initiateSecondaryBorrowSettlement(uint256)":{"notice":"MUST be called by vaults that are using secondary borrows to initiate the settlement process. Once settlement process has been initiated, no further secondary borrows may occur in this maturity. Repayments can only occur via the vault itself, individual accounts cannot repay secondary borrows after this occurs. Can only be called by the vault.","params":{"maturity":"maturity in which to initiate settlement"},"returns":{"secondaryBorrowSnapshot":"value of fCash in primary currency terms for both secondary borrow currencies"}},"redeemStrategyTokensToCash(uint256,uint256,bytes)":{"notice":"Strategy vaults can call this method to redeem strategy tokens to cash and hold them as asset cash within the pool. This should typically be used during settlement but can also be used for vault-wide deleveraging.","params":{"maturity":"the maturity of the vault where the redemption will take place","strategyTokensToRedeem":"the number of strategy tokens redeemed","vaultData":"arbitrary data to pass back to the vault"},"returns":{"assetCashRequiredToSettle":"amount of asset cash still remaining to settle the debt","underlyingCashRequiredToSettle":"amount of underlying cash still remaining to settle the debt"}},"reduceMaxBorrowCapacity(address,uint80,uint256,uint256,bytes)":{"notice":"Allows the owner to reduce the max borrow capacity on the vault and force the redemption of strategy tokens to cash to reduce the overall risk of the vault. This method is intended to be used in emergencies to mitigate insolvency risk. The effect of this method will mean that the overall max borrow capacity is reduced, the total used capacity will be unchanged (redeemStrategyTokensToCash does not do any lending to reduce the outstanding fCash), and accounts will be locked out of entering the maturity which was targeted by this method. Other maturities for that vault may still be entered depending on whether or not the vault is above or below the max vault borrow capacity.","params":{"maturity":"the maturity to redeem tokens in, will generally be either the current maturity or the next maturity.","maxVaultBorrowCapacity":"the new max vault borrow capacity on the primary currency","strategyTokensToRedeem":"how many tokens we would want to redeem in the maturity","vaultAddress":"address of the vault","vaultData":"vault data to pass to the vault"}},"repaySecondaryCurrencyFromVault(address,uint16,uint256,uint256,uint32,bytes)":{"notice":"Allows a vault to repay a secondary currency that it has borrowed. Will be executed via a callback which will request that the vault repay a specific amount of underlying tokens.","params":{"account":"account that is repaying the secondary currency","currencyId":"currency id of the secondary currency","debtSharesToRepay":"amount of debt shares to repay (used to calculate fCashToLend)","maturity":"the maturity to lend at","minLendRate":"minimum lend rate"},"returns":{"returnData":"arbitrary return data to pass back to the vault"}},"setVaultPauseStatus(address,bool)":{"notice":"Enables or disables a vault. If a vault is disabled, no one can enter the vault but exits are still possible.","params":{"enable":"true if the vault should be enabled immediately","vaultAddress":"address of deployed vault"}},"settleVault(address,uint256)":{"notice":"Settles a vault and sets the final settlement rates","params":{"maturity":"the maturity of the vault","vault":"the vault to settle"}},"updateSecondaryBorrowCapacity(address,uint16,uint80)":{"notice":"Whitelists a secondary borrow currency for a vault, vaults can borrow up to the capacity using the `borrowSecondaryCurrencyToVault` and `repaySecondaryCurrencyToVault` methods. Vaults that use a secondary currency must ALWAYS repay the secondary debt during redemption and handle accounting for the secondary currency themselves.","params":{"maxBorrowCapacity":"maximum borrow capacity","secondaryCurrencyId":"struct of vault configuration","vaultAddress":"address of deployed vault"}},"updateVault(address,(uint16,uint16,uint32,uint16,uint8,uint8,uint8,uint8,uint16,uint16[2]),uint80)":{"notice":"Updates or lists a deployed vault along with its configuration.","params":{"maxPrimaryBorrowCapacity":"maximum borrow capacity","vaultAddress":"address of deployed vault","vaultConfig":"struct of vault configuration"}}},"version":1},"opcodes":"PUSH1 0x80 PUSH1 0x40 MSTORE CALLVALUE DUP1 ISZERO PUSH2 0x10 JUMPI PUSH1 0x0 DUP1 REVERT JUMPDEST POP PUSH1 0x4 CALLDATASIZE LT PUSH2 0x121 JUMPI PUSH1 0x0 CALLDATALOAD PUSH1 0xE0 SHR DUP1 PUSH4 0x6C346C09 GT PUSH2 0xAD JUMPI DUP1 PUSH4 0xC4C96DAE GT PUSH2 0x71 JUMPI DUP1 PUSH4 0xC4C96DAE EQ PUSH2 0x26B JUMPI DUP1 PUSH4 0xD04C16AC EQ PUSH2 0x273 JUMPI DUP1 PUSH4 0xD6DDEB9A EQ PUSH2 0x286 JUMPI DUP1 PUSH4 0xDE1EB9A3 EQ PUSH2 0x299 JUMPI DUP1 PUSH4 0xEE01436B EQ PUSH2 0x2B9 JUMPI PUSH2 0x121 JUMP JUMPDEST DUP1 PUSH4 0x6C346C09 EQ PUSH2 0x213 JUMPI DUP1 PUSH4 0x82463367 EQ PUSH2 0x226 JUMPI DUP1 PUSH4 0x8DA5CB5B EQ PUSH2 0x22E JUMPI DUP1 PUSH4 0xA14DB57C EQ PUSH2 0x236 JUMPI DUP1 PUSH4 0xB3C47546 EQ PUSH2 0x258 JUMPI PUSH2 0x121 JUMP JUMPDEST DUP1 PUSH4 0x295E6B7F GT PUSH2 0xF4 JUMPI DUP1 PUSH4 0x295E6B7F EQ PUSH2 0x18C JUMPI DUP1 PUSH4 0x31572281 EQ PUSH2 0x19F JUMPI DUP1 PUSH4 0x50E4F223 EQ PUSH2 0x1BF JUMPI DUP1 PUSH4 0x56F428C4 EQ PUSH2 0x1DF JUMPI DUP1 PUSH4 0x67515776 EQ PUSH2 0x1F2 JUMPI PUSH2 0x121 JUMP JUMPDEST DUP1 PUSH4 0x1AC8852 EQ PUSH2 0x126 JUMPI DUP1 PUSH4 0xBC08CDC EQ PUSH2 0x14F JUMPI DUP1 PUSH4 0x24A3D622 EQ PUSH2 0x162 JUMPI DUP1 PUSH4 0x291AFDF3 EQ PUSH2 0x177 JUMPI JUMPDEST PUSH1 0x0 DUP1 REVERT JUMPDEST PUSH2 0x139 PUSH2 0x134 CALLDATASIZE PUSH1 0x4 PUSH2 0x4B1D JUMP JUMPDEST PUSH2 0x2CC JUMP JUMPDEST PUSH1 0x40 MLOAD PUSH2 0x146 SWAP2 SWAP1 PUSH2 0x4DC9 JUMP JUMPDEST PUSH1 0x40 MLOAD DUP1 SWAP2 SUB SWAP1 RETURN JUMPDEST PUSH2 0x139 PUSH2 0x15D CALLDATASIZE PUSH1 0x4 PUSH2 0x4983 JUMP JUMPDEST PUSH2 0x356 JUMP JUMPDEST PUSH2 0x16A PUSH2 0x50B JUMP JUMPDEST PUSH1 0x40 MLOAD PUSH2 0x146 SWAP2 SWAP1 PUSH2 0x4CA3 JUMP JUMPDEST PUSH2 0x18A PUSH2 0x185 CALLDATASIZE PUSH1 0x4 PUSH2 0x491D JUMP JUMPDEST PUSH2 0x51A JUMP JUMPDEST STOP JUMPDEST PUSH2 0x18A PUSH2 0x19A CALLDATASIZE PUSH1 0x4 PUSH2 0x495A JUMP JUMPDEST PUSH2 0x636 JUMP JUMPDEST PUSH2 0x1B2 PUSH2 0x1AD CALLDATASIZE PUSH1 0x4 PUSH2 0x495A JUMP JUMPDEST PUSH2 0x871 JUMP JUMPDEST PUSH1 0x40 MLOAD PUSH2 0x146 SWAP2 SWAP1 PUSH2 0x5385 JUMP JUMPDEST PUSH2 0x1D2 PUSH2 0x1CD CALLDATASIZE PUSH1 0x4 PUSH2 0x4892 JUMP JUMPDEST PUSH2 0x88A JUMP JUMPDEST PUSH1 0x40 MLOAD PUSH2 0x146 SWAP2 SWAP1 PUSH2 0x4E1E JUMP JUMPDEST PUSH2 0x18A PUSH2 0x1ED CALLDATASIZE PUSH1 0x4 PUSH2 0x479B JUMP JUMPDEST PUSH2 0xA4D JUMP JUMPDEST PUSH2 0x205 PUSH2 0x200 CALLDATASIZE PUSH1 0x4 PUSH2 0x4829 JUMP JUMPDEST PUSH2 0xACD JUMP JUMPDEST PUSH1 0x40 MLOAD PUSH2 0x146 SWAP3 SWAP2 SWAP1 PUSH2 0x4E5A JUMP JUMPDEST PUSH2 0x205 PUSH2 0x221 CALLDATASIZE PUSH1 0x4 PUSH2 0x495A JUMP JUMPDEST PUSH2 0xB1D JUMP JUMPDEST PUSH2 0x16A PUSH2 0xB58 JUMP JUMPDEST PUSH2 0x16A PUSH2 0xB67 JUMP JUMPDEST PUSH2 0x249 PUSH2 0x244 CALLDATASIZE PUSH1 0x4 PUSH2 0x4854 JUMP JUMPDEST PUSH2 0xB7D JUMP JUMPDEST PUSH1 0x40 MLOAD PUSH2 0x146 SWAP4 SWAP3 SWAP2 SWAP1 PUSH2 0x53FD JUMP JUMPDEST PUSH2 0x18A PUSH2 0x266 CALLDATASIZE PUSH1 0x4 PUSH2 0x47D5 JUMP JUMPDEST PUSH2 0xBE3 JUMP JUMPDEST PUSH2 0x16A PUSH2 0xC9B JUMP JUMPDEST PUSH2 0x18A PUSH2 0x281 CALLDATASIZE PUSH1 0x4 PUSH2 0x4B35 JUMP JUMPDEST PUSH2 0xCB3 JUMP JUMPDEST PUSH2 0x18A PUSH2 0x294 CALLDATASIZE PUSH1 0x4 PUSH2 0x49E4 JUMP JUMPDEST PUSH2 0xE25 JUMP JUMPDEST PUSH2 0x2AC PUSH2 0x2A7 CALLDATASIZE PUSH1 0x4 PUSH2 0x4781 JUMP JUMPDEST PUSH2 0xED7 JUMP JUMPDEST PUSH1 0x40 MLOAD PUSH2 0x146 SWAP2 SWAP1 PUSH2 0x52D1 JUMP JUMPDEST PUSH2 0x205 PUSH2 0x2C7 CALLDATASIZE PUSH1 0x4 PUSH2 0x4B35 JUMP JUMPDEST PUSH2 0xEEE JUMP JUMPDEST PUSH2 0x2D4 PUSH2 0x4599 JUMP JUMPDEST PUSH1 0x0 PUSH2 0x2DF CALLER PUSH2 0xF40 JUMP JUMPDEST SWAP1 POP PUSH2 0x2EC DUP2 PUSH1 0x1 PUSH2 0xF6F JUMP JUMPDEST PUSH2 0x311 JUMPI PUSH1 0x40 MLOAD PUSH3 0x461BCD PUSH1 0xE5 SHL DUP2 MSTORE PUSH1 0x4 ADD PUSH2 0x308 SWAP1 PUSH2 0x4F2F JUMP JUMPDEST PUSH1 0x40 MLOAD DUP1 SWAP2 SUB SWAP1 REVERT JUMPDEST PUSH2 0x140 DUP2 ADD MLOAD PUSH2 0x334 SWAP1 PUSH2 0x32F SWAP1 PUSH1 0x0 JUMPDEST PUSH1 0x20 MUL ADD MLOAD DUP4 SWAP1 DUP7 PUSH2 0xF84 JUMP JUMPDEST PUSH2 0x10FD JUMP JUMPDEST DUP3 MSTORE PUSH2 0x140 DUP2 ADD MLOAD PUSH2 0x34B SWAP1 PUSH2 0x32F SWAP1 PUSH1 0x1 PUSH2 0x322 JUMP JUMPDEST PUSH1 0x20 DUP4 ADD MSTORE POP SWAP2 SWAP1 POP JUMP JUMPDEST PUSH2 0x35E PUSH2 0x4599 JUMP JUMPDEST PUSH1 0x0 PUSH2 0x369 CALLER PUSH2 0xF40 JUMP JUMPDEST SWAP1 POP PUSH2 0x376 DUP2 PUSH1 0x1 PUSH2 0xF6F JUMP JUMPDEST PUSH2 0x392 JUMPI PUSH1 0x40 MLOAD PUSH3 0x461BCD PUSH1 0xE5 SHL DUP2 MSTORE PUSH1 0x4 ADD PUSH2 0x308 SWAP1 PUSH2 0x4F2F JUMP JUMPDEST PUSH2 0x140 DUP2 ADD MLOAD DUP1 MLOAD PUSH2 0xFFFF AND ISZERO ISZERO DUP1 PUSH2 0x3B2 JUMPI POP PUSH1 0x20 DUP2 ADD MLOAD PUSH2 0xFFFF AND ISZERO ISZERO JUMPDEST PUSH2 0x3BB JUMPI PUSH1 0x0 DUP1 REVERT JUMPDEST PUSH2 0x3C3 PUSH2 0x4599 JUMP JUMPDEST PUSH2 0x3CE DUP4 PUSH1 0x2 PUSH2 0xF6F JUMP JUMPDEST DUP1 ISZERO PUSH2 0x3E3 JUMPI POP PUSH1 0x1 PUSH1 0x1 PUSH1 0xA0 SHL SUB DUP10 AND CALLER EQ ISZERO JUMPDEST ISZERO PUSH2 0x4A8 JUMPI PUSH1 0x0 PUSH2 0x3F2 PUSH2 0x1114 JUMP JUMPDEST PUSH1 0x1 PUSH1 0x1 PUSH1 0xA0 SHL SUB DUP1 DUP13 AND PUSH1 0x0 SWAP1 DUP2 MSTORE PUSH1 0x20 SWAP3 DUP4 MSTORE PUSH1 0x40 DUP1 DUP3 KECCAK256 DUP9 MLOAD SWAP1 SWAP4 AND DUP3 MSTORE SWAP2 SWAP1 SWAP3 MSTORE SWAP1 KECCAK256 DUP1 SLOAD SWAP1 SWAP2 POP PUSH4 0xFFFFFFFF AND DUP1 ISZERO PUSH2 0x4A5 JUMPI DUP10 DUP2 LT PUSH2 0x436 JUMPI PUSH1 0x0 DUP1 REVERT JUMPDEST PUSH2 0x473 DUP6 DUP13 DUP7 PUSH1 0x0 PUSH1 0x20 MUL ADD MLOAD DUP6 SLOAD DUP6 SWAP1 PUSH1 0x1 PUSH1 0x20 SHL SWAP1 DIV PUSH1 0x1 PUSH1 0x1 PUSH1 0x50 SHL SUB AND DUP13 PUSH1 0x0 JUMPDEST PUSH1 0x20 MUL ADD PUSH1 0x20 DUP2 ADD SWAP1 PUSH2 0x46E SWAP2 SWAP1 PUSH2 0x4B86 JUMP JUMPDEST PUSH2 0x1121 JUMP JUMPDEST DUP4 MSTORE PUSH1 0x20 DUP5 ADD MLOAD DUP3 SLOAD PUSH2 0x49F SWAP2 DUP8 SWAP2 DUP15 SWAP2 SWAP1 DUP6 SWAP1 PUSH1 0x1 PUSH1 0x70 SHL SWAP1 DIV PUSH1 0x1 PUSH1 0x1 PUSH1 0x50 SHL SUB AND DUP13 PUSH1 0x1 PUSH2 0x45B JUMP JUMPDEST PUSH1 0x20 DUP5 ADD MSTORE JUMPDEST POP POP JUMPDEST DUP2 MLOAD DUP2 MLOAD PUSH2 0x4D5 SWAP2 DUP6 SWAP2 DUP13 SWAP2 SWAP1 DUP13 SWAP1 DUP13 CALLDATALOAD DUP13 PUSH1 0x0 JUMPDEST PUSH1 0x20 MUL ADD PUSH1 0x20 DUP2 ADD SWAP1 PUSH2 0x4D0 SWAP2 SWAP1 PUSH2 0x4B86 JUMP JUMPDEST PUSH2 0x1156 JUMP JUMPDEST DUP5 MSTORE PUSH1 0x20 DUP3 DUP2 ADD MLOAD DUP3 DUP3 ADD MLOAD PUSH2 0x4F9 SWAP3 DUP7 SWAP3 DUP14 SWAP3 SWAP1 SWAP2 DUP14 SWAP2 SWAP1 DUP14 ADD CALLDATALOAD DUP13 PUSH1 0x1 PUSH2 0x4BD JUMP JUMPDEST PUSH1 0x20 DUP6 ADD MSTORE POP SWAP2 SWAP8 SWAP7 POP POP POP POP POP POP POP JUMP JUMPDEST PUSH1 0x2 SLOAD PUSH1 0x1 PUSH1 0x1 PUSH1 0xA0 SHL SUB AND DUP2 JUMP JUMPDEST PUSH1 0x0 SLOAD PUSH1 0x1 PUSH1 0x20 SHL SWAP1 DIV PUSH1 0x1 PUSH1 0x1 PUSH1 0xA0 SHL SUB AND CALLER EQ PUSH2 0x54B JUMPI PUSH1 0x40 MLOAD PUSH3 0x461BCD PUSH1 0xE5 SHL DUP2 MSTORE PUSH1 0x4 ADD PUSH2 0x308 SWAP1 PUSH2 0x5197 JUMP JUMPDEST PUSH1 0x0 PUSH2 0x556 DUP5 PUSH2 0xF40 JUMP JUMPDEST SWAP1 POP PUSH1 0x0 PUSH2 0x567 DUP5 PUSH2 0xFFFF AND PUSH2 0x11D0 JUMP JUMPDEST SWAP1 POP PUSH1 0x0 PUSH2 0x578 DUP6 PUSH2 0xFFFF AND PUSH2 0x11E3 JUMP JUMPDEST SWAP1 POP DUP2 PUSH1 0x20 ADD MLOAD ISZERO DUP1 ISZERO PUSH2 0x58E JUMPI POP DUP1 PUSH1 0x20 ADD MLOAD ISZERO JUMPDEST PUSH2 0x597 JUMPI PUSH1 0x0 DUP1 REVERT JUMPDEST PUSH2 0x140 DUP4 ADD MLOAD MLOAD PUSH2 0xFFFF DUP7 DUP2 AND SWAP2 AND EQ DUP1 PUSH2 0x5C1 JUMPI POP PUSH2 0x140 DUP4 ADD MLOAD PUSH1 0x20 ADD MLOAD PUSH2 0xFFFF DUP7 DUP2 AND SWAP2 AND EQ JUMPDEST PUSH2 0x5DD JUMPI PUSH1 0x40 MLOAD PUSH3 0x461BCD PUSH1 0xE5 SHL DUP2 MSTORE PUSH1 0x4 ADD PUSH2 0x308 SWAP1 PUSH2 0x513E JUMP JUMPDEST PUSH2 0x5E8 DUP7 DUP7 DUP7 PUSH2 0x11F6 JUMP JUMPDEST DUP5 PUSH2 0xFFFF AND DUP7 PUSH1 0x1 PUSH1 0x1 PUSH1 0xA0 SHL SUB AND PUSH32 0x8F868F60E49B80B48EE5DE8B7BC703CFC4B5C826A05D3EA1B00CF4159C155A90 DUP7 PUSH1 0x40 MLOAD PUSH2 0x626 SWAP2 SWAP1 PUSH2 0x5413 JUMP JUMPDEST PUSH1 0x40 MLOAD DUP1 SWAP2 SUB SWAP1 LOG3 POP POP POP POP POP POP JUMP JUMPDEST PUSH1 0x2 PUSH1 0xA SLOAD EQ ISZERO PUSH2 0x659 JUMPI PUSH1 0x40 MLOAD PUSH3 0x461BCD PUSH1 0xE5 SHL DUP2 MSTORE PUSH1 0x4 ADD PUSH2 0x308 SWAP1 PUSH2 0x5250 JUMP JUMPDEST PUSH1 0x2 PUSH1 0xA SSTORE PUSH1 0x0 PUSH2 0x669 DUP4 PUSH2 0xF40 JUMP JUMPDEST SWAP1 POP PUSH2 0x677 DUP2 CALLER PUSH1 0x40 PUSH2 0x124A JUMP JUMPDEST PUSH1 0x0 PUSH2 0x683 DUP5 DUP5 PUSH2 0x12B4 JUMP JUMPDEST SWAP1 POP TIMESTAMP DUP4 GT ISZERO DUP1 ISZERO PUSH2 0x697 JUMPI POP PUSH1 0x40 DUP2 ADD MLOAD ISZERO JUMPDEST PUSH2 0x6B3 JUMPI PUSH1 0x40 MLOAD PUSH3 0x461BCD PUSH1 0xE5 SHL DUP2 MSTORE PUSH1 0x4 ADD PUSH2 0x308 SWAP1 PUSH2 0x50C1 JUMP JUMPDEST PUSH1 0x0 PUSH2 0x6C8 DUP4 PUSH1 0x40 ADD MLOAD PUSH2 0xFFFF AND DUP6 TIMESTAMP PUSH2 0x134F JUMP JUMPDEST SWAP1 POP PUSH1 0x0 PUSH2 0x6E6 PUSH2 0x32F PUSH2 0x6DF DUP6 PUSH1 0x20 ADD MLOAD PUSH2 0x14BF JUMP JUMPDEST DUP5 SWAP1 PUSH2 0x14CD JUMP JUMPDEST SWAP1 POP PUSH1 0x0 PUSH2 0x6F2 PUSH2 0x1506 JUMP JUMPDEST PUSH1 0x1 PUSH1 0x1 PUSH1 0xA0 SHL SUB DUP9 AND PUSH1 0x0 SWAP1 DUP2 MSTORE PUSH1 0x20 SWAP2 DUP3 MSTORE PUSH1 0x40 DUP1 DUP3 KECCAK256 DUP10 DUP4 MSTORE SWAP1 SWAP3 MSTORE KECCAK256 PUSH2 0x140 DUP7 ADD MLOAD MLOAD SWAP1 SWAP2 POP PUSH2 0xFFFF AND ISZERO PUSH2 0x765 JUMPI PUSH2 0x140 DUP6 ADD MLOAD MLOAD PUSH2 0xFFFF AND PUSH1 0x0 SWAP1 DUP2 MSTORE PUSH1 0x20 DUP3 SWAP1 MSTORE PUSH1 0x40 SWAP1 KECCAK256 SLOAD PUSH1 0x1 PUSH1 0x1 PUSH1 0x50 SHL SUB AND ISZERO PUSH2 0x765 JUMPI PUSH1 0x40 MLOAD PUSH3 0x461BCD PUSH1 0xE5 SHL DUP2 MSTORE PUSH1 0x4 ADD PUSH2 0x308 SWAP1 PUSH2 0x4FB3 JUMP JUMPDEST PUSH2 0x140 DUP6 ADD MLOAD PUSH1 0x20 ADD MLOAD PUSH2 0xFFFF AND ISZERO PUSH2 0x7BC JUMPI PUSH2 0x140 DUP6 ADD MLOAD PUSH1 0x20 SWAP1 DUP2 ADD MLOAD PUSH2 0xFFFF AND PUSH1 0x0 SWAP1 DUP2 MSTORE SWAP1 DUP3 SWAP1 MSTORE PUSH1 0x40 SWAP1 KECCAK256 SLOAD PUSH1 0x1 PUSH1 0x1 PUSH1 0x50 SHL SUB AND ISZERO PUSH2 0x7BC JUMPI PUSH1 0x40 MLOAD PUSH3 0x461BCD PUSH1 0xE5 SHL DUP2 MSTORE PUSH1 0x4 ADD PUSH2 0x308 SWAP1 PUSH2 0x4FB3 JUMP JUMPDEST DUP2 DUP5 PUSH1 0x80 ADD MLOAD LT ISZERO PUSH2 0x83A JUMPI PUSH1 0xA0 DUP5 ADD MLOAD ISZERO PUSH2 0x7EA JUMPI PUSH1 0x40 MLOAD PUSH3 0x461BCD PUSH1 0xE5 SHL DUP2 MSTORE PUSH1 0x4 ADD PUSH2 0x308 SWAP1 PUSH2 0x4F04 JUMP JUMPDEST PUSH1 0x0 PUSH2 0x7FB DUP6 PUSH1 0x80 ADD MLOAD DUP5 SUB PUSH2 0x1513 JUMP JUMPDEST SWAP1 POP PUSH1 0x0 PUSH2 0x816 PUSH2 0x32F DUP9 PUSH1 0x0 ADD MLOAD DUP10 PUSH1 0x40 ADD MLOAD DUP6 DUP13 PUSH2 0x1529 JUMP JUMPDEST PUSH1 0x80 DUP8 ADD MLOAD SWAP1 SWAP2 POP PUSH2 0x828 SWAP1 DUP3 PUSH2 0x1651 JUMP JUMPDEST PUSH1 0x80 DUP8 ADD MSTORE PUSH2 0x837 DUP7 DUP11 PUSH2 0x1663 JUMP JUMPDEST POP POP JUMPDEST PUSH2 0x855 DUP8 DUP7 PUSH1 0x40 ADD MLOAD PUSH2 0x850 DUP8 PUSH1 0x20 ADD MLOAD PUSH2 0x14BF JUMP JUMPDEST PUSH2 0x17CD JUMP JUMPDEST POP PUSH2 0x863 DUP5 DUP7 DUP6 DUP10 TIMESTAMP PUSH2 0x18D3 JUMP JUMPDEST POP POP PUSH1 0x1 PUSH1 0xA SSTORE POP POP POP POP POP JUMP JUMPDEST PUSH2 0x879 PUSH2 0x45B7 JUMP JUMPDEST PUSH2 0x883 DUP4 DUP4 PUSH2 0x12B4 JUMP JUMPDEST SWAP4 SWAP3 POP POP POP JUMP JUMPDEST PUSH1 0x60 PUSH1 0x0 PUSH2 0x897 CALLER PUSH2 0xF40 JUMP JUMPDEST SWAP1 POP PUSH2 0x8A4 DUP2 PUSH1 0x1 PUSH2 0xF6F JUMP JUMPDEST PUSH2 0x8C0 JUMPI PUSH1 0x40 MLOAD PUSH3 0x461BCD PUSH1 0xE5 SHL DUP2 MSTORE PUSH1 0x4 ADD PUSH2 0x308 SWAP1 PUSH2 0x4F2F JUMP JUMPDEST PUSH1 0x0 PUSH2 0x8D0 DUP3 DUP12 DUP12 DUP12 DUP12 DUP12 PUSH2 0x1A99 JUMP JUMPDEST POP SWAP1 POP PUSH1 0x0 PUSH2 0x8E2 DUP11 PUSH2 0xFFFF AND PUSH2 0x11D0 JUMP JUMPDEST SWAP1 POP PUSH1 0x0 DUP1 PUSH1 0x4 DUP4 PUSH1 0x60 ADD MLOAD PUSH1 0x5 DUP2 GT ISZERO PUSH2 0x8F9 JUMPI INVALID JUMPDEST EQ PUSH2 0x910 JUMPI PUSH2 0x90B DUP13 PUSH2 0xFFFF AND PUSH2 0x11E3 JUMP JUMPDEST PUSH2 0x912 JUMP JUMPDEST DUP3 JUMPDEST SWAP1 POP PUSH1 0x0 PUSH2 0x943 PUSH2 0x32F PUSH2 0x93C PUSH2 0x937 DUP9 DUP11 PUSH2 0x160 ADD MLOAD PUSH2 0x1C63 SWAP1 SWAP2 SWAP1 PUSH4 0xFFFFFFFF AND JUMP JUMPDEST PUSH2 0x14BF JUMP JUMPDEST DUP5 SWAP1 PUSH2 0x1C8E JUMP JUMPDEST SWAP1 POP PUSH1 0x0 PUSH2 0x951 DUP4 ADDRESS PUSH2 0x1CCA JUMP JUMPDEST DUP4 MLOAD PUSH1 0x40 MLOAD PUSH4 0x7EFBE0E7 PUSH1 0xE1 SHL DUP2 MSTORE SWAP2 SWAP3 POP CALLER SWAP2 PUSH4 0xFDF7C1CE SWAP2 PUSH2 0x97D SWAP2 DUP7 SWAP1 DUP16 SWAP1 DUP16 SWAP1 PUSH1 0x4 ADD PUSH2 0x4D52 JUMP JUMPDEST PUSH1 0x0 PUSH1 0x40 MLOAD DUP1 DUP4 SUB DUP2 PUSH1 0x0 DUP8 DUP1 EXTCODESIZE ISZERO DUP1 ISZERO PUSH2 0x997 JUMPI PUSH1 0x0 DUP1 REVERT JUMPDEST POP GAS CALL ISZERO DUP1 ISZERO PUSH2 0x9AB JUMPI RETURNDATASIZE PUSH1 0x0 DUP1 RETURNDATACOPY RETURNDATASIZE PUSH1 0x0 REVERT JUMPDEST POP POP POP POP PUSH1 0x40 MLOAD RETURNDATASIZE PUSH1 0x0 DUP3 RETURNDATACOPY PUSH1 0x1F RETURNDATASIZE SWAP1 DUP2 ADD PUSH1 0x1F NOT AND DUP3 ADD PUSH1 0x40 MSTORE PUSH2 0x9D3 SWAP2 SWAP1 DUP2 ADD SWAP1 PUSH2 0x4A5C JUMP JUMPDEST SWAP8 POP PUSH1 0x0 PUSH2 0x9E1 DUP5 ADDRESS PUSH2 0x1CCA JUMP JUMPDEST SWAP1 POP PUSH2 0x9ED DUP2 DUP4 PUSH2 0x1D74 JUMP JUMPDEST SWAP5 POP DUP3 DUP6 LT ISZERO PUSH2 0xA0F JUMPI PUSH1 0x40 MLOAD PUSH3 0x461BCD PUSH1 0xE5 SHL DUP2 MSTORE PUSH1 0x4 ADD PUSH2 0x308 SWAP1 PUSH2 0x5278 JUMP JUMPDEST POP PUSH1 0x4 SWAP3 POP PUSH2 0xA1C SWAP2 POP POP JUMP JUMPDEST DUP3 PUSH1 0x60 ADD MLOAD PUSH1 0x5 DUP2 GT ISZERO PUSH2 0xA2C JUMPI INVALID JUMPDEST EQ PUSH2 0xA3E JUMPI PUSH2 0xA3C DUP3 DUP13 DUP4 PUSH2 0x1D89 JUMP JUMPDEST POP JUMPDEST POP POP POP POP SWAP8 SWAP7 POP POP POP POP POP POP POP JUMP JUMPDEST PUSH1 0x0 SLOAD PUSH1 0x1 PUSH1 0x20 SHL SWAP1 DIV PUSH1 0x1 PUSH1 0x1 PUSH1 0xA0 SHL SUB AND CALLER EQ PUSH2 0xA7E JUMPI PUSH1 0x40 MLOAD PUSH3 0x461BCD PUSH1 0xE5 SHL DUP2 MSTORE PUSH1 0x4 ADD PUSH2 0x308 SWAP1 PUSH2 0x5197 JUMP JUMPDEST PUSH2 0xA88 DUP3 DUP3 PUSH2 0x1E70 JUMP JUMPDEST DUP2 PUSH1 0x1 PUSH1 0x1 PUSH1 0xA0 SHL SUB AND PUSH32 0x7C51C6AA77346C54CB051D9E792F9B7BDE5C28A9B57E6FB2D2DD727B38438CA9 DUP3 PUSH1 0x40 MLOAD PUSH2 0xAC1 SWAP2 SWAP1 PUSH2 0x4DFA JUMP JUMPDEST PUSH1 0x40 MLOAD DUP1 SWAP2 SUB SWAP1 LOG2 POP POP JUMP JUMPDEST PUSH1 0x0 DUP1 PUSH1 0x0 PUSH2 0xADA PUSH2 0x1ED0 JUMP JUMPDEST PUSH1 0x1 PUSH1 0x1 PUSH1 0xA0 SHL SUB SWAP1 SWAP6 AND PUSH1 0x0 SWAP1 DUP2 MSTORE PUSH1 0x20 SWAP6 DUP7 MSTORE PUSH1 0x40 DUP1 DUP3 KECCAK256 PUSH2 0xFFFF SWAP1 SWAP7 AND DUP3 MSTORE SWAP5 SWAP1 SWAP6 MSTORE POP POP POP SWAP1 KECCAK256 SLOAD PUSH1 0x1 PUSH1 0x1 PUSH1 0x50 SHL SUB PUSH1 0x1 PUSH1 0x50 SHL DUP3 DIV DUP2 AND SWAP3 SWAP2 AND SWAP1 JUMP JUMPDEST PUSH1 0x0 DUP1 PUSH1 0x0 PUSH2 0xB2B DUP6 PUSH2 0x1EDD JUMP JUMPDEST SWAP1 POP PUSH1 0x0 PUSH2 0xB3D DUP3 PUSH1 0x0 ADD MLOAD DUP7 PUSH2 0x12B4 JUMP JUMPDEST SWAP1 POP PUSH2 0xB4A DUP3 DUP3 DUP8 PUSH2 0x1F01 JUMP JUMPDEST SWAP4 POP SWAP4 POP POP POP JUMPDEST SWAP3 POP SWAP3 SWAP1 POP JUMP JUMPDEST PUSH1 0x1 SLOAD PUSH1 0x1 PUSH1 0x1 PUSH1 0xA0 SHL SUB AND DUP2 JUMP JUMPDEST PUSH1 0x0 SLOAD PUSH1 0x1 PUSH1 0x20 SHL SWAP1 DIV PUSH1 0x1 PUSH1 0x1 PUSH1 0xA0 SHL SUB AND DUP2 JUMP JUMPDEST PUSH1 0x0 DUP1 PUSH1 0x0 DUP1 PUSH2 0xB8B PUSH2 0x1506 JUMP JUMPDEST PUSH1 0x1 PUSH1 0x1 PUSH1 0xA0 SHL SUB SWAP1 SWAP8 AND PUSH1 0x0 SWAP1 DUP2 MSTORE PUSH1 0x20 SWAP8 DUP9 MSTORE PUSH1 0x40 DUP1 DUP3 KECCAK256 SWAP7 DUP3 MSTORE SWAP6 DUP9 MSTORE DUP6 DUP2 KECCAK256 PUSH2 0xFFFF SWAP1 SWAP8 AND DUP2 MSTORE SWAP6 SWAP1 SWAP7 MSTORE POP POP POP SWAP1 KECCAK256 SLOAD PUSH1 0x1 PUSH1 0x1 PUSH1 0x50 SHL SUB DUP1 DUP3 AND SWAP4 PUSH1 0x1 PUSH1 0x50 SHL DUP4 DIV DUP3 AND SWAP4 POP PUSH1 0x1 PUSH1 0xA0 SHL SWAP1 SWAP3 DIV AND SWAP1 JUMP JUMPDEST PUSH1 0x0 SLOAD PUSH1 0x1 PUSH1 0x20 SHL SWAP1 DIV PUSH1 0x1 PUSH1 0x1 PUSH1 0xA0 SHL SUB AND CALLER EQ PUSH2 0xC14 JUMPI PUSH1 0x40 MLOAD PUSH3 0x461BCD PUSH1 0xE5 SHL DUP2 MSTORE PUSH1 0x4 ADD PUSH2 0x308 SWAP1 PUSH2 0x5197 JUMP JUMPDEST PUSH2 0xC1E DUP4 DUP4 PUSH2 0x1FBA JUMP JUMPDEST PUSH2 0xC38 DUP4 PUSH2 0xC32 PUSH1 0x40 DUP6 ADD PUSH1 0x20 DUP7 ADD PUSH2 0x4B01 JUMP JUMPDEST DUP4 PUSH2 0x11F6 JUMP JUMPDEST PUSH1 0x0 PUSH1 0x1 DUP1 PUSH2 0xC4A PUSH1 0x20 DUP7 ADD DUP7 PUSH2 0x4B01 JUMP JUMPDEST AND PUSH2 0xFFFF AND EQ SWAP1 POP DUP4 PUSH1 0x1 PUSH1 0x1 PUSH1 0xA0 SHL SUB AND PUSH32 0xB441D7CA09ABC712B4504256717707CE40E8D43895266B46ABF9CD58619C07DC DUP3 DUP5 PUSH1 0x40 MLOAD PUSH2 0xC8D SWAP3 SWAP2 SWAP1 PUSH2 0x4E05 JUMP JUMPDEST PUSH1 0x40 MLOAD DUP1 SWAP2 SUB SWAP1 LOG2 POP POP POP POP JUMP JUMPDEST PUSH20 0x0 SWAP1 JUMP JUMPDEST PUSH1 0x2 PUSH1 0xA SLOAD EQ ISZERO PUSH2 0xCD6 JUMPI PUSH1 0x40 MLOAD PUSH3 0x461BCD PUSH1 0xE5 SHL DUP2 MSTORE PUSH1 0x4 ADD PUSH2 0x308 SWAP1 PUSH2 0x5250 JUMP JUMPDEST PUSH1 0x2 PUSH1 0xA SSTORE PUSH1 0x0 PUSH2 0xCE6 CALLER PUSH2 0xF40 JUMP JUMPDEST SWAP1 POP PUSH2 0xCF3 DUP2 PUSH1 0x1 PUSH2 0xF6F JUMP JUMPDEST PUSH2 0xD0F JUMPI PUSH1 0x40 MLOAD PUSH3 0x461BCD PUSH1 0xE5 SHL DUP2 MSTORE PUSH1 0x4 ADD PUSH2 0x308 SWAP1 PUSH2 0x4F2F JUMP JUMPDEST PUSH2 0xD1A DUP2 PUSH1 0x80 PUSH2 0xF6F JUMP JUMPDEST ISZERO PUSH2 0xD25 JUMPI PUSH1 0x1 PUSH1 0xA SSTORE JUMPDEST PUSH1 0x0 PUSH2 0xD31 CALLER DUP8 PUSH2 0x12B4 JUMP JUMPDEST SWAP1 POP PUSH1 0x0 PUSH2 0xD53 DUP4 PUSH1 0x0 ADD MLOAD PUSH2 0xD46 DUP9 PUSH2 0x1513 JUMP JUMPDEST DUP6 SWAP2 SWAP1 DUP11 PUSH1 0x0 DUP11 DUP11 PUSH2 0x21BF JUMP JUMPDEST PUSH1 0x80 DUP4 ADD MLOAD SWAP1 SWAP2 POP PUSH2 0xD65 SWAP1 DUP8 PUSH2 0x1D74 JUMP JUMPDEST PUSH1 0x80 DUP4 ADD MSTORE PUSH1 0xA0 DUP3 ADD MLOAD PUSH2 0xD79 SWAP1 DUP3 PUSH2 0x1651 JUMP JUMPDEST PUSH1 0xA0 DUP4 ADD MSTORE PUSH2 0xD88 DUP3 CALLER PUSH2 0x1663 JUMP JUMPDEST PUSH1 0x0 PUSH2 0xDAB DUP4 CALLER DUP6 PUSH1 0x60 ADD MLOAD DUP7 PUSH1 0x20 ADD MLOAD DUP9 PUSH2 0x2268 SWAP1 SWAP5 SWAP4 SWAP3 SWAP2 SWAP1 PUSH4 0xFFFFFFFF AND JUMP JUMPDEST POP SWAP1 POP DUP1 DUP5 PUSH1 0xA0 ADD MLOAD SGT ISZERO PUSH2 0xDD2 JUMPI PUSH1 0x40 MLOAD PUSH3 0x461BCD PUSH1 0xE5 SHL DUP2 MSTORE PUSH1 0x4 ADD PUSH2 0x308 SWAP1 PUSH2 0x51F3 JUMP JUMPDEST DUP8 CALLER PUSH1 0x1 PUSH1 0x1 PUSH1 0xA0 SHL SUB AND PUSH32 0xBBA43506B1F3723ADD796BF603ADDE56BC018392A95775B9F76C31213B4161BB DUP10 DUP6 PUSH1 0x40 MLOAD PUSH2 0xE0E SWAP3 SWAP2 SWAP1 PUSH2 0x4E5A JUMP JUMPDEST PUSH1 0x40 MLOAD DUP1 SWAP2 SUB SWAP1 LOG3 POP POP PUSH1 0x1 PUSH1 0xA SSTORE POP POP POP POP POP POP JUMP JUMPDEST PUSH1 0x0 SLOAD PUSH1 0x1 PUSH1 0x20 SHL SWAP1 DIV PUSH1 0x1 PUSH1 0x1 PUSH1 0xA0 SHL SUB AND CALLER EQ PUSH2 0xE56 JUMPI PUSH1 0x40 MLOAD PUSH3 0x461BCD PUSH1 0xE5 SHL DUP2 MSTORE PUSH1 0x4 ADD PUSH2 0x308 SWAP1 PUSH2 0x5197 JUMP JUMPDEST PUSH1 0x0 PUSH2 0xE61 DUP8 PUSH2 0xF40 JUMP JUMPDEST SWAP1 POP PUSH2 0xE72 DUP8 DUP3 PUSH1 0x40 ADD MLOAD DUP9 PUSH2 0x11F6 JUMP JUMPDEST PUSH2 0xE7F DUP2 DUP7 DUP7 DUP7 DUP7 PUSH2 0x22D0 JUMP JUMPDEST POP POP PUSH1 0x1 PUSH1 0x1 PUSH1 0xA0 SHL SUB DUP8 AND PUSH32 0xB441D7CA09ABC712B4504256717707CE40E8D43895266B46ABF9CD58619C07DC PUSH2 0xEB7 DUP4 PUSH1 0x1 PUSH2 0xF6F JUMP JUMPDEST DUP9 PUSH1 0x40 MLOAD PUSH2 0xEC6 SWAP3 SWAP2 SWAP1 PUSH2 0x4E05 JUMP JUMPDEST PUSH1 0x40 MLOAD DUP1 SWAP2 SUB SWAP1 LOG2 POP POP POP POP POP POP POP JUMP JUMPDEST PUSH2 0xEDF PUSH2 0x45F6 JUMP JUMPDEST PUSH2 0xEE8 DUP3 PUSH2 0x1EDD JUMP JUMPDEST SWAP3 SWAP2 POP POP JUMP JUMPDEST PUSH1 0x0 DUP1 PUSH1 0x0 PUSH2 0xEFC CALLER PUSH2 0xF40 JUMP JUMPDEST SWAP1 POP PUSH2 0xF09 DUP2 PUSH1 0x1 PUSH2 0xF6F JUMP JUMPDEST PUSH2 0xF25 JUMPI PUSH1 0x40 MLOAD PUSH3 0x461BCD PUSH1 0xE5 SHL DUP2 MSTORE PUSH1 0x4 ADD PUSH2 0x308 SWAP1 PUSH2 0x4F2F JUMP JUMPDEST PUSH2 0xF32 DUP2 DUP9 DUP9 DUP9 DUP9 PUSH2 0x22D0 JUMP JUMPDEST SWAP3 POP SWAP3 POP POP SWAP5 POP SWAP5 SWAP3 POP POP POP JUMP JUMPDEST PUSH2 0xF48 PUSH2 0x45F6 JUMP JUMPDEST PUSH2 0xF51 DUP3 PUSH2 0x23E4 JUMP JUMPDEST SWAP1 POP PUSH2 0xF64 DUP2 PUSH1 0x40 ADD MLOAD PUSH2 0xFFFF AND PUSH2 0x2561 JUMP JUMPDEST PUSH2 0x160 DUP3 ADD MSTORE SWAP2 SWAP1 POP JUMP JUMPDEST PUSH1 0x20 SWAP2 SWAP1 SWAP2 ADD MLOAD DUP2 AND PUSH2 0xFFFF SWAP1 DUP2 AND SWAP2 AND EQ SWAP1 JUMP JUMPDEST PUSH1 0x0 PUSH2 0xFFFF DUP4 AND PUSH2 0xF97 JUMPI POP PUSH1 0x0 PUSH2 0x883 JUMP JUMPDEST PUSH1 0x0 PUSH2 0xFA1 PUSH2 0x1506 JUMP JUMPDEST DUP6 MLOAD PUSH1 0x1 PUSH1 0x1 PUSH1 0xA0 SHL SUB AND PUSH1 0x0 SWAP1 DUP2 MSTORE PUSH1 0x20 SWAP2 DUP3 MSTORE PUSH1 0x40 DUP1 DUP3 KECCAK256 DUP7 DUP4 MSTORE DUP4 MSTORE DUP1 DUP3 KECCAK256 PUSH2 0xFFFF DUP9 AND DUP4 MSTORE SWAP1 SWAP3 MSTORE KECCAK256 DUP1 SLOAD SWAP1 SWAP2 POP PUSH1 0x1 PUSH1 0xA0 SHL SWAP1 DIV PUSH1 0x1 PUSH1 0x1 PUSH1 0x50 SHL SUB AND ISZERO PUSH2 0x1000 JUMPI PUSH1 0x40 MLOAD PUSH3 0x461BCD PUSH1 0xE5 SHL DUP2 MSTORE PUSH1 0x4 ADD PUSH2 0x308 SWAP1 PUSH2 0x5168 JUMP JUMPDEST DUP1 SLOAD PUSH1 0x40 DUP7 ADD MLOAD PUSH1 0x1 PUSH1 0x1 PUSH1 0x50 SHL SUB SWAP1 SWAP2 AND SWAP1 PUSH1 0x0 SWAP1 PUSH2 0x1023 SWAP1 PUSH2 0xFFFF AND PUSH2 0x25AD JUMP JUMPDEST SWAP1 POP PUSH1 0x0 PUSH2 0x1034 DUP8 PUSH2 0xFFFF AND PUSH2 0x25AD JUMP JUMPDEST SWAP1 POP PUSH1 0x0 PUSH2 0x1042 DUP4 DUP4 PUSH2 0x2710 JUMP JUMPDEST SWAP1 POP PUSH2 0x1065 DUP2 PUSH2 0x105F DUP6 PUSH1 0x0 ADD MLOAD DUP8 PUSH2 0x2735 SWAP1 SWAP2 SWAP1 PUSH4 0xFFFFFFFF AND JUMP JUMPDEST SWAP1 PUSH2 0x2783 JUMP JUMPDEST SWAP6 POP PUSH2 0x1078 PUSH2 0x1073 DUP8 PUSH2 0x10FD JUMP JUMPDEST PUSH2 0x27B4 JUMP JUMPDEST DUP6 SLOAD PUSH1 0x1 PUSH1 0x1 PUSH1 0x50 SHL SUB SWAP2 SWAP1 SWAP2 AND PUSH1 0x1 PUSH1 0xA0 SHL MUL PUSH10 0xFFFFFFFFFFFFFFFFFFFF PUSH1 0xA0 SHL NOT SWAP1 SWAP2 AND OR DUP6 SSTORE DUP9 MLOAD PUSH1 0x40 MLOAD DUP9 SWAP2 PUSH2 0xFFFF DUP12 AND SWAP2 PUSH1 0x1 PUSH1 0x1 PUSH1 0xA0 SHL SUB SWAP1 SWAP2 AND SWAP1 PUSH32 0x744B6E0D7DB0666A7C17A4868D11D5F7F909A7B04D458B5EACE97646BA7A0EE8 SWAP1 PUSH2 0x10E9 SWAP1 DUP12 SWAP1 DUP8 SWAP1 PUSH2 0x4E5A JUMP JUMPDEST PUSH1 0x40 MLOAD DUP1 SWAP2 SUB SWAP1 LOG4 POP POP POP POP POP SWAP4 SWAP3 POP POP POP JUMP JUMPDEST PUSH1 0x0 DUP1 DUP3 SLT ISZERO PUSH2 0x110C JUMPI PUSH1 0x0 DUP1 REVERT JUMPDEST POP DUP1 JUMPDEST SWAP2 SWAP1 POP JUMP JUMPDEST PUSH1 0x0 DUP1 PUSH2 0xEE8 PUSH1 0x1A PUSH2 0x27CA JUMP JUMPDEST PUSH1 0x0 PUSH2 0xFFFF DUP6 AND ISZERO DUP1 ISZERO SWAP1 PUSH2 0x1135 JUMPI POP DUP3 ISZERO ISZERO JUMPDEST ISZERO PUSH2 0x114C JUMPI PUSH2 0x1148 DUP8 DUP8 DUP8 DUP8 DUP8 DUP8 PUSH2 0x1A99 JUMP JUMPDEST POP SWAP1 POP JUMPDEST SWAP7 SWAP6 POP POP POP POP POP POP JUMP JUMPDEST PUSH1 0x0 PUSH2 0xFFFF DUP7 AND ISZERO DUP1 PUSH2 0x1167 JUMPI POP DUP3 ISZERO JUMPDEST ISZERO PUSH2 0x1174 JUMPI POP PUSH1 0x0 PUSH2 0x11C5 JUMP JUMPDEST PUSH1 0x0 PUSH2 0x1184 DUP10 DUP10 DUP10 DUP10 DUP9 DUP9 PUSH2 0x27E3 JUMP JUMPDEST POP SWAP1 POP PUSH2 0x1191 DUP2 DUP7 PUSH2 0x2984 JUMP JUMPDEST SWAP1 POP PUSH1 0x0 DUP2 SLT ISZERO PUSH2 0x11B4 JUMPI PUSH1 0x40 MLOAD PUSH3 0x461BCD PUSH1 0xE5 SHL DUP2 MSTORE PUSH1 0x4 ADD PUSH2 0x308 SWAP1 PUSH2 0x508A JUMP JUMPDEST DUP9 MLOAD PUSH2 0x11C1 SWAP1 DUP9 DUP4 PUSH2 0x299A JUMP JUMPDEST SWAP2 POP POP JUMPDEST SWAP8 SWAP7 POP POP POP POP POP POP POP JUMP JUMPDEST PUSH2 0x11D8 PUSH2 0x4673 JUMP JUMPDEST PUSH2 0xEE8 DUP3 PUSH1 0x0 PUSH2 0x2A42 JUMP JUMPDEST PUSH2 0x11EB PUSH2 0x4673 JUMP JUMPDEST PUSH2 0xEE8 DUP3 PUSH1 0x1 PUSH2 0x2A42 JUMP JUMPDEST PUSH1 0x0 PUSH2 0x1200 PUSH2 0x1ED0 JUMP JUMPDEST PUSH1 0x1 PUSH1 0x1 PUSH1 0xA0 SHL SUB SWAP1 SWAP5 AND PUSH1 0x0 SWAP1 DUP2 MSTORE PUSH1 0x20 SWAP5 DUP6 MSTORE PUSH1 0x40 DUP1 DUP3 KECCAK256 PUSH2 0xFFFF SWAP1 SWAP6 AND DUP3 MSTORE SWAP4 SWAP1 SWAP5 MSTORE POP SWAP2 KECCAK256 DUP1 SLOAD PUSH1 0x1 PUSH1 0x1 PUSH1 0x50 SHL SUB SWAP1 SWAP3 AND PUSH1 0x1 PUSH1 0x1 PUSH1 0x50 SHL SUB NOT SWAP1 SWAP3 AND SWAP2 SWAP1 SWAP2 OR SWAP1 SSTORE JUMP JUMPDEST PUSH2 0x1254 DUP4 DUP3 PUSH2 0xF6F JUMP JUMPDEST ISZERO PUSH2 0x1287 JUMPI DUP3 MLOAD PUSH1 0x1 PUSH1 0x1 PUSH1 0xA0 SHL SUB AND CALLER EQ PUSH2 0x1282 JUMPI PUSH1 0x40 MLOAD PUSH3 0x461BCD PUSH1 0xE5 SHL DUP2 MSTORE PUSH1 0x4 ADD PUSH2 0x308 SWAP1 PUSH2 0x4F4F JUMP JUMPDEST PUSH2 0x12AF JUMP JUMPDEST PUSH1 0x1 PUSH1 0x1 PUSH1 0xA0 SHL SUB DUP3 AND CALLER EQ PUSH2 0x12AF JUMPI PUSH1 0x40 MLOAD PUSH3 0x461BCD PUSH1 0xE5 SHL DUP2 MSTORE PUSH1 0x4 ADD PUSH2 0x308 SWAP1 PUSH2 0x4F4F JUMP JUMPDEST POP POP POP JUMP JUMPDEST PUSH2 0x12BC PUSH2 0x45B7 JUMP JUMPDEST PUSH1 0x0 PUSH2 0x12C6 PUSH2 0x2AF0 JUMP JUMPDEST PUSH1 0x1 PUSH1 0x1 PUSH1 0xA0 SHL SUB SWAP1 SWAP5 AND PUSH1 0x0 SWAP1 DUP2 MSTORE PUSH1 0x20 SWAP5 DUP6 MSTORE PUSH1 0x40 DUP1 DUP3 KECCAK256 DUP6 DUP4 MSTORE DUP7 MSTORE DUP1 DUP3 KECCAK256 SWAP5 DUP5 MSTORE DUP5 SLOAD PUSH1 0x1 PUSH1 0x1 PUSH1 0x50 SHL SUB DUP1 DUP3 AND SWAP1 SWAP4 SUB SWAP7 DUP6 ADD SWAP7 SWAP1 SWAP7 MSTORE PUSH1 0xFF PUSH1 0x1 PUSH1 0xF0 SHL DUP8 DIV AND ISZERO ISZERO SWAP1 DUP5 ADD MSTORE PUSH1 0x1 PUSH1 0x50 SHL DUP1 DUP7 DIV DUP3 AND PUSH1 0x80 DUP6 ADD MSTORE PUSH1 0x1 SWAP1 SWAP5 ADD SLOAD DUP1 DUP3 AND PUSH1 0xA0 DUP6 ADD MSTORE PUSH1 0x1 PUSH1 0xA0 SHL SWAP1 SWAP6 DIV AND PUSH1 0x60 DUP4 ADD MSTORE POP SWAP2 DIV PUSH1 0x9 SWAP1 DUP2 SIGNEXTEND SWAP1 SIGNEXTEND PUSH1 0xC0 DUP3 ADD MSTORE SWAP1 JUMP JUMPDEST PUSH2 0x1357 PUSH2 0x46A2 JUMP JUMPDEST PUSH1 0x0 DUP1 PUSH2 0x1364 DUP7 DUP7 PUSH2 0x2AFD JUMP JUMPDEST SWAP2 POP SWAP2 POP DUP2 PUSH1 0x0 EQ ISZERO PUSH2 0x1494 JUMPI PUSH1 0x0 PUSH2 0x137C DUP8 PUSH2 0x2B46 JUMP JUMPDEST SWAP2 SWAP5 POP SWAP1 SWAP3 POP SWAP1 POP PUSH1 0x1 PUSH1 0x1 PUSH1 0xA0 SHL SUB DUP2 AND ISZERO PUSH2 0x1492 JUMPI PUSH1 0x0 PUSH2 0x139D PUSH2 0x2C09 JUMP JUMPDEST SWAP1 POP DUP6 PUSH1 0x0 LT DUP1 ISZERO PUSH2 0x13AF JUMPI POP DUP6 DUP8 GT ISZERO JUMPDEST DUP1 ISZERO PUSH2 0x13C0 JUMPI POP PUSH5 0xFFFFFFFFFF DUP7 GT ISZERO JUMPDEST PUSH2 0x13C9 JUMPI PUSH1 0x0 DUP1 REVERT JUMPDEST DUP4 PUSH1 0x0 SLT DUP1 ISZERO PUSH2 0x13E0 JUMPI POP PUSH1 0x1 PUSH1 0x1 PUSH1 0x80 SHL SUB DUP5 SGT ISZERO JUMPDEST PUSH2 0x13E9 JUMPI PUSH1 0x0 DUP1 REVERT JUMPDEST PUSH1 0x0 DUP9 DUP2 MSTORE PUSH1 0x20 DUP3 DUP2 MSTORE PUSH1 0x40 DUP1 DUP4 KECCAK256 DUP11 DUP5 MSTORE SWAP1 SWAP2 MSTORE SWAP1 DUP2 SWAP1 KECCAK256 DUP1 SLOAD PUSH5 0xFFFFFFFFFF NOT AND PUSH5 0xFFFFFFFFFF DUP10 AND OR PUSH21 0xFFFFFFFFFFFFFFFFFFFFFFFFFFFFFFFF0000000000 NOT AND PUSH6 0x10000000000 PUSH1 0x1 PUSH1 0x1 PUSH1 0x80 SHL SUB DUP9 AND MUL OR PUSH1 0xFF PUSH1 0xA8 SHL NOT AND PUSH1 0x1 PUSH1 0xA8 SHL PUSH1 0xFF DUP8 AND MUL OR DUP2 SSTORE SWAP1 MLOAD DUP9 SWAP1 DUP11 SWAP1 PUSH32 0xFDFA6885701E2F1F42E4187B9231CF81C1FE23671EF64FA46F34DDB56C1DC18 SWAP1 PUSH2 0x1487 SWAP1 DUP10 SWAP1 PUSH2 0x53D5 JUMP JUMPDEST PUSH1 0x40 MLOAD DUP1 SWAP2 SUB SWAP1 LOG3 POP POP JUMPDEST POP JUMPDEST PUSH1 0x40 DUP1 MLOAD PUSH1 0x60 DUP2 ADD DUP3 MSTORE PUSH1 0x0 DUP2 MSTORE PUSH1 0x20 DUP2 ADD SWAP4 SWAP1 SWAP4 MSTORE PUSH1 0xFF SWAP1 SWAP2 AND PUSH1 0xA EXP SWAP1 DUP3 ADD MSTORE SWAP1 POP SWAP4 SWAP3 POP POP POP JUMP JUMPDEST PUSH1 0x0 PUSH2 0xEE8 PUSH1 0x0 NOT DUP4 PUSH2 0x2735 JUMP JUMPDEST PUSH1 0x0 DUP1 PUSH2 0x14FE DUP5 PUSH1 0x20 ADD MLOAD PUSH2 0x105F DUP7 PUSH1 0x40 ADD MLOAD PUSH2 0x14F8 PUSH5 0x2540BE400 DUP9 PUSH2 0x2735 SWAP1 SWAP2 SWAP1 PUSH4 0xFFFFFFFF AND JUMP JUMPDEST SWAP1 PUSH2 0x2735 JUMP JUMPDEST SWAP5 SWAP4 POP POP POP POP JUMP JUMPDEST PUSH1 0x0 DUP1 PUSH2 0xEE8 PUSH1 0x18 PUSH2 0x27CA JUMP JUMPDEST PUSH1 0x0 PUSH1 0x1 PUSH1 0x1 PUSH1 0xFF SHL SUB DUP3 GT ISZERO PUSH2 0x110C JUMPI PUSH1 0x0 DUP1 REVERT JUMPDEST PUSH1 0x0 PUSH2 0x1536 DUP6 PUSH1 0x0 PUSH2 0x1E70 JUMP JUMPDEST DUP5 PUSH1 0x1 PUSH1 0x1 PUSH1 0xA0 SHL SUB AND PUSH32 0x7C51C6AA77346C54CB051D9E792F9B7BDE5C28A9B57E6FB2D2DD727B38438CA9 PUSH1 0x0 PUSH1 0x40 MLOAD PUSH2 0x1570 SWAP2 SWAP1 PUSH2 0x4DFA JUMP JUMPDEST PUSH1 0x40 MLOAD DUP1 SWAP2 SUB SWAP1 LOG2 DUP2 DUP5 PUSH2 0xFFFF AND DUP7 PUSH1 0x1 PUSH1 0x1 PUSH1 0xA0 SHL SUB AND PUSH32 0x823B641D46550301006F807A26587634F15BD13749EFDC8859734377D5304A3B DUP7 PUSH1 0x40 MLOAD PUSH2 0x15B7 SWAP2 SWAP1 PUSH2 0x4E51 JUMP JUMPDEST PUSH1 0x40 MLOAD DUP1 SWAP2 SUB SWAP1 LOG4 PUSH1 0x0 PUSH2 0x15D0 PUSH1 0x0 DUP7 PUSH2 0xFFFF AND PUSH2 0x2C16 JUMP JUMPDEST POP POP POP SWAP1 POP DUP1 DUP5 SGT PUSH2 0x15F0 JUMPI PUSH2 0x15E8 DUP6 DUP6 DUP4 SUB PUSH2 0x2CBF JUMP JUMPDEST DUP4 SWAP2 POP PUSH2 0x1648 JUMP JUMPDEST PUSH2 0x15FB DUP6 PUSH1 0x0 PUSH2 0x2CBF JUMP JUMPDEST DUP3 DUP6 PUSH2 0xFFFF AND DUP8 PUSH1 0x1 PUSH1 0x1 PUSH1 0xA0 SHL SUB AND PUSH32 0x3A717B6924E3AD05B8C7609A2401472AF90869B52CC3C9CA69B50100B4BE6316 DUP5 DUP9 SUB PUSH1 0x40 MLOAD PUSH2 0x163C SWAP2 SWAP1 PUSH2 0x4E51 JUMP JUMPDEST PUSH1 0x40 MLOAD DUP1 SWAP2 SUB SWAP1 LOG4 DUP1 SWAP2 POP JUMPDEST POP SWAP5 SWAP4 POP POP POP POP JUMP JUMPDEST PUSH1 0x0 DUP3 DUP3 ADD DUP4 DUP2 LT ISZERO PUSH2 0x883 JUMPI PUSH1 0x0 DUP1 REVERT JUMPDEST PUSH1 0x0 PUSH2 0x166D PUSH2 0x2AF0 JUMP JUMPDEST PUSH1 0x1 PUSH1 0x1 PUSH1 0xA0 SHL SUB DUP4 AND PUSH1 0x0 SWAP1 DUP2 MSTORE PUSH1 0x20 DUP3 DUP2 MSTORE PUSH1 0x40 DUP1 DUP4 KECCAK256 DUP8 MLOAD DUP5 MSTORE SWAP1 SWAP2 MSTORE SWAP1 DUP2 SWAP1 KECCAK256 SWAP1 DUP6 ADD MLOAD SWAP2 SWAP3 POP SWAP1 ISZERO PUSH2 0x16A3 JUMPI PUSH1 0x0 DUP1 REVERT JUMPDEST PUSH2 0x16B6 PUSH2 0x1073 PUSH2 0x32F DUP7 PUSH1 0x20 ADD MLOAD PUSH2 0x14BF JUMP JUMPDEST DUP2 SLOAD PUSH1 0x1 PUSH1 0x1 PUSH1 0x50 SHL SUB NOT AND PUSH1 0x1 PUSH1 0x1 PUSH1 0x50 SHL SUB SWAP2 SWAP1 SWAP2 AND OR DUP2 SSTORE PUSH1 0x80 DUP5 ADD MLOAD PUSH2 0x16DF SWAP1 PUSH2 0x27B4 JUMP JUMPDEST DUP2 SLOAD PUSH1 0x1 PUSH1 0x1 PUSH1 0x50 SHL SUB SWAP2 SWAP1 SWAP2 AND PUSH1 0x1 PUSH1 0x50 SHL MUL PUSH1 0x1 PUSH1 0x50 SHL PUSH1 0x1 PUSH1 0xA0 SHL SUB NOT SWAP1 SWAP2 AND OR DUP2 SSTORE PUSH1 0xA0 DUP5 ADD MLOAD PUSH2 0x1713 SWAP1 PUSH2 0x27B4 JUMP JUMPDEST PUSH1 0x1 DUP3 ADD DUP1 SLOAD PUSH1 0x1 PUSH1 0x1 PUSH1 0x50 SHL SUB NOT AND PUSH1 0x1 PUSH1 0x1 PUSH1 0x50 SHL SUB SWAP3 SWAP1 SWAP3 AND SWAP2 SWAP1 SWAP2 OR SWAP1 SSTORE PUSH1 0x60 DUP5 ADD MLOAD PUSH2 0x1743 SWAP1 PUSH2 0x27B4 JUMP JUMPDEST DUP2 SLOAD PUSH1 0x1 PUSH1 0x1 PUSH1 0x50 SHL SUB SWAP2 SWAP1 SWAP2 AND PUSH1 0x1 PUSH1 0xA0 SHL MUL PUSH10 0xFFFFFFFFFFFFFFFFFFFF PUSH1 0xA0 SHL NOT SWAP1 SWAP2 AND OR DUP2 SSTORE DUP4 MLOAD PUSH1 0x20 DUP6 ADD MLOAD PUSH1 0x80 DUP7 ADD MLOAD PUSH1 0xA0 DUP8 ADD MLOAD PUSH1 0x60 DUP9 ADD MLOAD PUSH1 0x40 MLOAD PUSH1 0x1 PUSH1 0x1 PUSH1 0xA0 SHL SUB DUP10 AND SWAP5 PUSH32 0x3A0FDAECF7B5DA75A56077F5B1C8FBC88F9B08E9D0C4DB31EB34E25BC6700CDE SWAP5 PUSH2 0x17BF SWAP5 SWAP2 SWAP4 SWAP1 SWAP3 PUSH2 0x4E68 JUMP JUMPDEST PUSH1 0x40 MLOAD DUP1 SWAP2 SUB SWAP1 LOG3 POP POP POP POP JUMP JUMPDEST PUSH1 0x0 DUP1 PUSH2 0x17D8 PUSH2 0x1ED0 JUMP JUMPDEST PUSH1 0x1 PUSH1 0x1 PUSH1 0xA0 SHL SUB DUP7 AND PUSH1 0x0 SWAP1 DUP2 MSTORE PUSH1 0x20 SWAP2 DUP3 MSTORE PUSH1 0x40 DUP1 DUP3 KECCAK256 PUSH2 0xFFFF DUP9 AND DUP4 MSTORE SWAP1 SWAP3 MSTORE KECCAK256 DUP1 SLOAD SWAP1 SWAP2 POP PUSH2 0x181B SWAP1 PUSH1 0x1 PUSH1 0x50 SHL SWAP1 DIV PUSH1 0x1 PUSH1 0x1 PUSH1 0x50 SHL SUB AND DUP5 PUSH2 0x2D16 JUMP JUMPDEST SWAP2 POP PUSH1 0x0 DUP4 SLT ISZERO PUSH2 0x1850 JUMPI DUP1 SLOAD PUSH1 0x1 PUSH1 0x1 PUSH1 0x50 SHL SUB AND DUP3 SGT ISZERO PUSH2 0x1850 JUMPI PUSH1 0x40 MLOAD PUSH3 0x461BCD PUSH1 0xE5 SHL DUP2 MSTORE PUSH1 0x4 ADD PUSH2 0x308 SWAP1 PUSH2 0x50E8 JUMP JUMPDEST PUSH2 0x185C PUSH2 0x1073 DUP4 PUSH2 0x10FD JUMP JUMPDEST DUP2 SLOAD PUSH1 0x1 PUSH1 0x1 PUSH1 0x50 SHL SUB SWAP2 SWAP1 SWAP2 AND PUSH1 0x1 PUSH1 0x50 SHL MUL PUSH1 0x1 PUSH1 0x50 SHL PUSH1 0x1 PUSH1 0xA0 SHL SUB NOT SWAP1 SWAP2 AND OR DUP2 SSTORE PUSH1 0x40 MLOAD PUSH2 0xFFFF DUP6 AND SWAP1 PUSH1 0x1 PUSH1 0x1 PUSH1 0xA0 SHL SUB DUP8 AND SWAP1 PUSH32 0x20478EF460E49D010960D4F3FFF35D8DAE385443ABFAC09035D6A2CCBCD834C4 SWAP1 PUSH2 0x18C3 SWAP1 DUP7 SWAP1 PUSH2 0x4E51 JUMP JUMPDEST PUSH1 0x40 MLOAD DUP1 SWAP2 SUB SWAP1 LOG3 POP SWAP4 SWAP3 POP POP POP JUMP JUMPDEST PUSH1 0x0 PUSH2 0x18DD PUSH2 0x2AF0 JUMP JUMPDEST DUP6 MLOAD PUSH1 0x1 PUSH1 0x1 PUSH1 0xA0 SHL SUB AND PUSH1 0x0 SWAP1 DUP2 MSTORE PUSH1 0x20 DUP3 DUP2 MSTORE PUSH1 0x40 DUP1 DUP4 KECCAK256 DUP8 DUP5 MSTORE SWAP1 SWAP2 MSTORE SWAP1 KECCAK256 DUP1 SLOAD SWAP2 SWAP3 POP SWAP1 PUSH1 0x1 PUSH1 0xF0 SHL SWAP1 DIV PUSH1 0xFF AND ISZERO PUSH2 0x1919 JUMPI PUSH1 0x0 DUP1 REVERT JUMPDEST DUP3 DUP5 GT ISZERO PUSH2 0x1926 JUMPI PUSH1 0x0 DUP1 REVERT JUMPDEST PUSH1 0x40 DUP7 ADD MLOAD DUP7 MLOAD PUSH1 0x0 SWAP2 PUSH2 0x1940 SWAP2 DUP1 PUSH4 0x5F5E100 DUP10 PUSH2 0x2D2C JUMP JUMPDEST DUP3 SLOAD PUSH1 0xFF PUSH1 0xF0 SHL NOT AND PUSH1 0x1 PUSH1 0xF0 SHL OR DUP4 SSTORE SWAP1 POP PUSH2 0x195C DUP2 PUSH2 0x2DF3 JUMP JUMPDEST DUP3 PUSH1 0x1 ADD PUSH1 0xA PUSH2 0x100 EXP DUP2 SLOAD DUP2 PUSH1 0x1 PUSH1 0x1 PUSH1 0x50 SHL SUB MUL NOT AND SWAP1 DUP4 PUSH1 0x9 SIGNEXTEND PUSH1 0x1 PUSH1 0x1 PUSH1 0x50 SHL SUB AND MUL OR SWAP1 SSTORE POP PUSH1 0x0 PUSH2 0x1991 PUSH2 0x2E23 JUMP JUMPDEST DUP9 MLOAD PUSH1 0x1 PUSH1 0x1 PUSH1 0xA0 SHL SUB AND PUSH1 0x0 SWAP1 DUP2 MSTORE PUSH1 0x20 SWAP2 DUP3 MSTORE PUSH1 0x40 DUP1 DUP3 KECCAK256 DUP10 DUP4 MSTORE DUP4 MSTORE SWAP1 KECCAK256 PUSH1 0x1 DUP6 ADD SLOAD DUP2 SLOAD PUSH1 0x1 PUSH1 0x1 PUSH1 0x50 SHL SUB NOT AND PUSH1 0x1 PUSH1 0x1 PUSH1 0x50 SHL SUB SWAP1 SWAP2 AND OR DUP2 SSTORE SWAP1 DUP11 ADD MLOAD SWAP1 SWAP2 POP PUSH2 0x1A03 SWAP1 PUSH2 0x19FE SWAP1 PUSH2 0x19EB SWAP1 DUP11 SWAP1 PUSH2 0x14CD JUMP JUMPDEST PUSH2 0x19F8 DUP13 PUSH1 0x80 ADD MLOAD PUSH2 0x1513 JUMP JUMPDEST SWAP1 PUSH2 0x2984 JUMP JUMPDEST PUSH2 0x2DF3 JUMP JUMPDEST DUP2 SLOAD PUSH1 0x9 SWAP2 SWAP1 SWAP2 SIGNEXTEND PUSH1 0x1 PUSH1 0x1 PUSH1 0x50 SHL SUB AND PUSH1 0x1 PUSH1 0x50 SHL MUL PUSH1 0x1 PUSH1 0x50 SHL PUSH1 0x1 PUSH1 0xA0 SHL SUB NOT SWAP1 SWAP2 AND OR DUP2 SSTORE DUP9 MLOAD DUP9 MLOAD PUSH1 0x20 DUP12 ADD MLOAD PUSH1 0x80 DUP13 ADD MLOAD PUSH1 0xA0 DUP14 ADD MLOAD PUSH1 0x60 DUP15 ADD MLOAD PUSH1 0x40 MLOAD PUSH1 0x1 PUSH1 0x1 PUSH1 0xA0 SHL SUB SWAP1 SWAP6 AND SWAP5 PUSH32 0xE66A863186DBA5A66D19D3D91A66B76A7CBFDEFD0D8C29C662274B13FEBB166E SWAP5 PUSH2 0x1A86 SWAP5 SWAP1 SWAP4 SWAP1 SWAP3 SWAP1 SWAP2 DUP11 SWAP1 PUSH2 0x4E83 JUMP JUMPDEST PUSH1 0x40 MLOAD DUP1 SWAP2 SUB SWAP1 LOG3 POP POP POP POP POP POP POP POP POP JUMP JUMPDEST PUSH1 0x0 DUP1 PUSH1 0x0 PUSH2 0x1AA6 PUSH2 0x1506 JUMP JUMPDEST DUP10 MLOAD PUSH1 0x1 PUSH1 0x1 PUSH1 0xA0 SHL SUB AND PUSH1 0x0 SWAP1 DUP2 MSTORE PUSH1 0x20 SWAP2 DUP3 MSTORE PUSH1 0x40 DUP1 DUP3 KECCAK256 DUP10 DUP4 MSTORE DUP4 MSTORE DUP1 DUP3 KECCAK256 PUSH2 0xFFFF DUP12 AND DUP4 MSTORE SWAP1 SWAP3 MSTORE KECCAK256 DUP1 SLOAD SWAP1 SWAP2 POP PUSH1 0x1 PUSH1 0xA0 SHL SWAP1 DIV PUSH1 0x1 PUSH1 0x1 PUSH1 0x50 SHL SUB AND ISZERO DUP1 PUSH2 0x1B00 JUMPI POP DUP9 MLOAD PUSH1 0x1 PUSH1 0x1 PUSH1 0xA0 SHL SUB DUP10 DUP2 AND SWAP2 AND EQ JUMPDEST PUSH2 0x1B1C JUMPI PUSH1 0x40 MLOAD PUSH3 0x461BCD PUSH1 0xE5 SHL DUP2 MSTORE PUSH1 0x4 ADD PUSH2 0x308 SWAP1 PUSH2 0x51CC JUMP JUMPDEST DUP1 SLOAD PUSH1 0x1 PUSH1 0x1 PUSH1 0x50 SHL SUB DUP1 DUP3 AND SWAP2 PUSH1 0x1 PUSH1 0x50 SHL SWAP1 DIV AND PUSH2 0x1B4E PUSH2 0x1B49 DUP3 PUSH2 0x1B43 DUP11 DUP7 PUSH2 0x2E30 JUMP JUMPDEST SWAP1 PUSH2 0x2E57 JUMP JUMPDEST PUSH2 0x1513 JUMP JUMPDEST SWAP4 POP DUP11 PUSH1 0x0 ADD MLOAD PUSH1 0x1 PUSH1 0x1 PUSH1 0xA0 SHL SUB AND DUP11 PUSH1 0x1 PUSH1 0x1 PUSH1 0xA0 SHL SUB AND EQ PUSH2 0x1BB8 JUMPI PUSH2 0x1B7A PUSH2 0x1073 DUP3 DUP10 PUSH2 0x1D74 JUMP JUMPDEST DUP4 SLOAD PUSH1 0x1 PUSH1 0x1 PUSH1 0x50 SHL SUB SWAP2 SWAP1 SWAP2 AND PUSH1 0x1 PUSH1 0x50 SHL MUL PUSH1 0x1 PUSH1 0x50 SHL PUSH1 0x1 PUSH1 0xA0 SHL SUB NOT SWAP1 SWAP2 AND OR DUP4 SSTORE PUSH2 0x1BB8 DUP12 DUP12 DUP12 DUP12 PUSH2 0x1BB3 PUSH2 0x937 DUP14 PUSH2 0x1513 JUMP JUMPDEST PUSH2 0x2E76 JUMP JUMPDEST DUP11 MLOAD PUSH2 0x1BC5 SWAP1 DUP11 DUP7 PUSH2 0x17CD JUMP JUMPDEST POP PUSH2 0x1BD3 PUSH2 0x1073 DUP4 DUP7 PUSH2 0x1D74 JUMP JUMPDEST DUP4 SLOAD PUSH1 0x1 PUSH1 0x1 PUSH1 0x50 SHL SUB NOT AND PUSH1 0x1 PUSH1 0x1 PUSH1 0x50 SHL SUB SWAP2 SWAP1 SWAP2 AND OR DUP4 SSTORE PUSH2 0x1BFB DUP12 DUP11 DUP11 DUP8 DUP11 PUSH2 0x2FFE JUMP JUMPDEST SWAP5 POP DUP9 PUSH2 0xFFFF AND DUP11 PUSH1 0x1 PUSH1 0x1 PUSH1 0xA0 SHL SUB AND DUP13 PUSH1 0x0 ADD MLOAD PUSH1 0x1 PUSH1 0x1 PUSH1 0xA0 SHL SUB AND PUSH32 0x38DB3B2568CA34833805148705B1440A4F80962CE663BA509811ABC652DE434A DUP12 DUP12 DUP10 PUSH1 0x40 MLOAD PUSH2 0x1C4D SWAP4 SWAP3 SWAP2 SWAP1 PUSH2 0x53FD JUMP JUMPDEST PUSH1 0x40 MLOAD DUP1 SWAP2 SUB SWAP1 LOG4 POP POP POP SWAP7 POP SWAP7 SWAP5 POP POP POP POP POP JUMP JUMPDEST PUSH1 0x0 DUP1 PUSH2 0x14FE DUP5 PUSH1 0x40 ADD MLOAD PUSH2 0x105F PUSH5 0x2540BE400 PUSH2 0x105F DUP8 DUP10 PUSH1 0x20 ADD MLOAD PUSH2 0x2735 SWAP1 SWAP2 SWAP1 PUSH4 0xFFFFFFFF AND JUMP JUMPDEST PUSH1 0x0 PUSH4 0x5F5E100 DUP4 PUSH1 0x40 ADD MLOAD SLT ISZERO PUSH2 0x1CB6 JUMPI PUSH2 0x1CAF PUSH1 0x1 PUSH2 0x19F8 DUP6 DUP6 PUSH2 0x30CB JUMP JUMPDEST SWAP1 POP PUSH2 0xEE8 JUMP JUMPDEST PUSH2 0x883 DUP4 PUSH2 0x1CC5 DUP5 PUSH1 0x1 PUSH2 0x2984 JUMP JUMPDEST PUSH2 0x30CB JUMP JUMPDEST PUSH1 0x0 PUSH1 0x3 DUP4 PUSH1 0x60 ADD MLOAD PUSH1 0x5 DUP2 GT ISZERO PUSH2 0x1CDE JUMPI INVALID JUMPDEST EQ ISZERO PUSH2 0x1CF5 JUMPI POP PUSH1 0x1 PUSH1 0x1 PUSH1 0xA0 SHL SUB DUP2 AND BALANCE PUSH2 0xEE8 JUMP JUMPDEST DUP3 MLOAD PUSH1 0x40 MLOAD PUSH4 0x70A08231 PUSH1 0xE0 SHL DUP2 MSTORE PUSH1 0x1 PUSH1 0x1 PUSH1 0xA0 SHL SUB SWAP1 SWAP2 AND SWAP1 PUSH4 0x70A08231 SWAP1 PUSH2 0x1D24 SWAP1 DUP6 SWAP1 PUSH1 0x4 ADD PUSH2 0x4CA3 JUMP JUMPDEST PUSH1 0x20 PUSH1 0x40 MLOAD DUP1 DUP4 SUB DUP2 DUP7 DUP1 EXTCODESIZE ISZERO DUP1 ISZERO PUSH2 0x1D3C JUMPI PUSH1 0x0 DUP1 REVERT JUMPDEST POP GAS STATICCALL ISZERO DUP1 ISZERO PUSH2 0x1D50 JUMPI RETURNDATASIZE PUSH1 0x0 DUP1 RETURNDATACOPY RETURNDATASIZE PUSH1 0x0 REVERT JUMPDEST POP POP POP POP PUSH1 0x40 MLOAD RETURNDATASIZE PUSH1 0x1F NOT PUSH1 0x1F DUP3 ADD AND DUP3 ADD DUP1 PUSH1 0x40 MSTORE POP DUP2 ADD SWAP1 PUSH2 0x1CAF SWAP2 SWAP1 PUSH2 0x4AE9 JUMP JUMPDEST PUSH1 0x0 DUP3 DUP3 GT ISZERO PUSH2 0x1D83 JUMPI PUSH1 0x0 DUP1 REVERT JUMPDEST POP SWAP1 SUB SWAP1 JUMP JUMPDEST PUSH1 0x0 DUP1 PUSH1 0x5 DUP6 PUSH1 0x60 ADD MLOAD PUSH1 0x5 DUP2 GT ISZERO PUSH2 0x1D9E JUMPI INVALID JUMPDEST EQ PUSH2 0x1DB0 JUMPI PUSH4 0x70A08231 PUSH1 0xE0 SHL PUSH2 0x1DB9 JUMP JUMPDEST PUSH4 0xED1279F PUSH1 0xE1 SHL JUMPDEST SWAP1 POP PUSH1 0x0 PUSH2 0x1DCC DUP7 PUSH1 0x0 ADD MLOAD ADDRESS DUP5 PUSH2 0x3103 JUMP JUMPDEST SWAP1 POP PUSH1 0x5 DUP7 PUSH1 0x60 ADD MLOAD PUSH1 0x5 DUP2 GT ISZERO PUSH2 0x1DE0 JUMPI INVALID JUMPDEST EQ ISZERO PUSH2 0x1E07 JUMPI PUSH1 0x0 PUSH2 0x1DF5 DUP7 PUSH2 0xFFFF AND PUSH2 0x11E3 JUMP JUMPDEST SWAP1 POP PUSH2 0x1E01 DUP2 DUP7 PUSH2 0x3215 JUMP JUMPDEST POP PUSH2 0x1E50 JUMP JUMPDEST PUSH1 0x1 DUP7 PUSH1 0x60 ADD MLOAD PUSH1 0x5 DUP2 GT ISZERO PUSH2 0x1E19 JUMPI INVALID JUMPDEST EQ ISZERO PUSH2 0x1E2E JUMPI PUSH2 0x1E29 DUP7 DUP6 PUSH2 0x3288 JUMP JUMPDEST PUSH2 0x1E50 JUMP JUMPDEST PUSH1 0x2 DUP7 PUSH1 0x60 ADD MLOAD PUSH1 0x5 DUP2 GT ISZERO PUSH2 0x1E40 JUMPI INVALID JUMPDEST EQ ISZERO PUSH2 0x121 JUMPI PUSH2 0x1E29 DUP7 DUP6 PUSH2 0x332A JUMP JUMPDEST PUSH1 0x0 PUSH2 0x1E61 DUP8 PUSH1 0x0 ADD MLOAD ADDRESS DUP6 PUSH2 0x3103 JUMP JUMPDEST SWAP1 POP PUSH2 0x11C5 PUSH2 0x1B49 DUP3 DUP5 PUSH2 0x337D JUMP JUMPDEST PUSH1 0x0 PUSH2 0x1E7A PUSH2 0x33D4 JUMP JUMPDEST PUSH1 0x1 PUSH1 0x1 PUSH1 0xA0 SHL SUB DUP5 AND PUSH1 0x0 SWAP1 DUP2 MSTORE PUSH1 0x20 DUP3 SWAP1 MSTORE PUSH1 0x40 SWAP1 KECCAK256 DUP1 SLOAD SWAP2 SWAP3 POP SWAP1 PUSH2 0xFFFF AND DUP4 ISZERO PUSH2 0x1EB9 JUMPI DUP2 SLOAD PUSH2 0xFFFF NOT AND PUSH1 0x1 DUP3 OR PUSH2 0xFFFF AND OR DUP3 SSTORE PUSH2 0x1EC9 JUMP JUMPDEST DUP2 SLOAD PUSH2 0xFFFF NOT AND PUSH2 0xFFFE DUP3 AND OR DUP3 SSTORE JUMPDEST POP POP POP POP POP JUMP JUMPDEST PUSH1 0x0 DUP1 PUSH2 0xEE8 PUSH1 0x17 PUSH2 0x27CA JUMP JUMPDEST PUSH2 0x1EE5 PUSH2 0x45F6 JUMP JUMPDEST PUSH2 0x1EEE DUP3 PUSH2 0x23E4 JUMP JUMPDEST SWAP1 POP PUSH2 0xF64 DUP2 PUSH1 0x40 ADD MLOAD PUSH2 0xFFFF AND PUSH2 0x33E1 JUMP JUMPDEST PUSH1 0x0 DUP1 PUSH1 0x0 PUSH2 0x1F18 DUP7 PUSH1 0x40 ADD MLOAD PUSH2 0xFFFF AND DUP6 PUSH2 0x33F7 JUMP JUMPDEST SWAP1 POP PUSH1 0x0 PUSH2 0x1F3F PUSH2 0x937 PUSH2 0x1F2F DUP9 PUSH1 0x80 ADD MLOAD PUSH2 0x1513 JUMP JUMPDEST PUSH1 0x20 DUP10 ADD MLOAD PUSH2 0x19F8 SWAP1 DUP7 SWAP1 PUSH2 0x14CD JUMP JUMPDEST SWAP1 POP PUSH1 0x0 PUSH2 0x1F54 DUP9 PUSH1 0x40 ADD MLOAD PUSH2 0xFFFF AND PUSH2 0x11D0 JUMP JUMPDEST SWAP1 POP PUSH2 0x1F60 DUP2 DUP4 PUSH2 0x30CB JUMP JUMPDEST SWAP5 POP PUSH1 0x4 DUP2 PUSH1 0x60 ADD MLOAD PUSH1 0x5 DUP2 GT ISZERO PUSH2 0x1F74 JUMPI INVALID JUMPDEST EQ ISZERO PUSH2 0x1F82 JUMPI DUP5 SWAP4 POP PUSH2 0x1FAF JUMP JUMPDEST PUSH1 0x0 PUSH2 0x1F95 DUP10 PUSH1 0x40 ADD MLOAD PUSH2 0xFFFF AND PUSH2 0x11E3 JUMP JUMPDEST SWAP1 POP PUSH2 0x1FAB PUSH2 0x1FA4 DUP6 DUP6 PUSH2 0x1C63 JUMP JUMPDEST DUP3 SWAP1 PUSH2 0x1C8E JUMP JUMPDEST SWAP5 POP POP JUMPDEST POP POP POP SWAP4 POP SWAP4 SWAP2 POP POP JUMP JUMPDEST PUSH1 0x0 PUSH2 0x1FC4 PUSH2 0x33D4 JUMP JUMPDEST SWAP1 POP PUSH2 0x1FD6 PUSH1 0xC0 DUP4 ADD PUSH1 0xA0 DUP5 ADD PUSH2 0x4BA2 JUMP JUMPDEST PUSH1 0xFF AND PUSH1 0x64 SGT ISZERO PUSH2 0x1FE6 JUMPI PUSH1 0x0 DUP1 REVERT JUMPDEST PUSH1 0x64 PUSH2 0x1FF8 PUSH1 0xE0 DUP5 ADD PUSH1 0xC0 DUP6 ADD PUSH2 0x4BA2 JUMP JUMPDEST PUSH1 0xFF AND SGT ISZERO PUSH2 0x2006 JUMPI PUSH1 0x0 DUP1 REVERT JUMPDEST PUSH2 0x2017 PUSH2 0x100 DUP4 ADD PUSH1 0xE0 DUP5 ADD PUSH2 0x4BA2 JUMP JUMPDEST PUSH1 0xFF AND PUSH2 0x2023 JUMPI PUSH1 0x0 DUP1 REVERT JUMPDEST PUSH2 0x2035 PUSH2 0x120 DUP4 ADD PUSH2 0x100 DUP5 ADD PUSH2 0x4B01 JUMP JUMPDEST PUSH2 0xFFFF AND PUSH2 0x2049 PUSH1 0x80 DUP5 ADD PUSH1 0x60 DUP6 ADD PUSH2 0x4B01 JUMP JUMPDEST PUSH2 0xFFFF AND LT PUSH2 0x2057 JUMPI PUSH1 0x0 DUP1 REVERT JUMPDEST PUSH2 0x2069 PUSH2 0x140 DUP4 ADD PUSH2 0x120 DUP5 ADD PUSH2 0x4B01 JUMP JUMPDEST PUSH2 0xFFFF AND PUSH2 0x207D PUSH1 0x40 DUP5 ADD PUSH1 0x20 DUP6 ADD PUSH2 0x4B01 JUMP JUMPDEST PUSH2 0xFFFF AND EQ ISZERO PUSH2 0x208C JUMPI PUSH1 0x0 DUP1 REVERT JUMPDEST PUSH2 0x209E PUSH2 0x160 DUP4 ADD PUSH2 0x140 DUP5 ADD PUSH2 0x4B01 JUMP JUMPDEST PUSH2 0xFFFF AND PUSH2 0x20B2 PUSH1 0x40 DUP5 ADD PUSH1 0x20 DUP6 ADD PUSH2 0x4B01 JUMP JUMPDEST PUSH2 0xFFFF AND EQ ISZERO PUSH2 0x20C1 JUMPI PUSH1 0x0 DUP1 REVERT JUMPDEST PUSH2 0x20D3 PUSH2 0x140 DUP4 ADD PUSH2 0x120 DUP5 ADD PUSH2 0x4B01 JUMP JUMPDEST PUSH2 0xFFFF AND ISZERO DUP1 ISZERO SWAP1 PUSH2 0x20F9 JUMPI POP PUSH2 0x20F2 PUSH2 0x160 DUP4 ADD PUSH2 0x140 DUP5 ADD PUSH2 0x4B01 JUMP JUMPDEST PUSH2 0xFFFF AND ISZERO ISZERO JUMPDEST ISZERO PUSH2 0x2135 JUMPI PUSH2 0x2110 PUSH2 0x160 DUP4 ADD PUSH2 0x140 DUP5 ADD PUSH2 0x4B01 JUMP JUMPDEST PUSH2 0xFFFF AND PUSH2 0x2126 PUSH2 0x140 DUP5 ADD PUSH2 0x120 DUP6 ADD PUSH2 0x4B01 JUMP JUMPDEST PUSH2 0xFFFF AND EQ ISZERO PUSH2 0x2135 JUMPI PUSH1 0x0 DUP1 REVERT JUMPDEST PUSH1 0x0 PUSH2 0x2153 PUSH2 0x214A PUSH1 0x40 DUP6 ADD PUSH1 0x20 DUP7 ADD PUSH2 0x4B01 JUMP JUMPDEST PUSH2 0xFFFF AND PUSH2 0x11D0 JUMP JUMPDEST SWAP1 POP PUSH1 0x0 PUSH2 0x2173 PUSH2 0x216A PUSH1 0x40 DUP7 ADD PUSH1 0x20 DUP8 ADD PUSH2 0x4B01 JUMP JUMPDEST PUSH2 0xFFFF AND PUSH2 0x11E3 JUMP JUMPDEST SWAP1 POP DUP2 PUSH1 0x20 ADD MLOAD ISZERO DUP1 ISZERO PUSH2 0x2189 JUMPI POP DUP1 PUSH1 0x20 ADD MLOAD ISZERO JUMPDEST PUSH2 0x2192 JUMPI PUSH1 0x0 DUP1 REVERT JUMPDEST PUSH1 0x1 PUSH1 0x1 PUSH1 0xA0 SHL SUB DUP6 AND PUSH1 0x0 SWAP1 DUP2 MSTORE PUSH1 0x20 DUP5 SWAP1 MSTORE PUSH1 0x40 SWAP1 KECCAK256 DUP5 SWAP1 PUSH2 0x21B6 DUP3 DUP3 PUSH2 0x54DC JUMP JUMPDEST POP POP POP POP POP POP POP JUMP JUMPDEST PUSH1 0x0 DUP1 PUSH2 0x21D5 DUP10 PUSH1 0x0 ADD MLOAD DUP11 PUSH1 0x40 ADD MLOAD DUP10 PUSH2 0x299A JUMP JUMPDEST DUP10 MLOAD SWAP1 SWAP2 POP PUSH1 0x1 PUSH1 0x1 PUSH1 0xA0 SHL SUB AND PUSH4 0xDC6679C5 DUP10 PUSH2 0x21F3 DUP5 DUP10 PUSH2 0x1651 JUMP JUMPDEST DUP10 DUP9 DUP9 PUSH1 0x40 MLOAD DUP7 PUSH4 0xFFFFFFFF AND PUSH1 0xE0 SHL DUP2 MSTORE PUSH1 0x4 ADD PUSH2 0x2216 SWAP6 SWAP5 SWAP4 SWAP3 SWAP2 SWAP1 PUSH2 0x4D9B JUMP JUMPDEST PUSH1 0x20 PUSH1 0x40 MLOAD DUP1 DUP4 SUB DUP2 PUSH1 0x0 DUP8 DUP1 EXTCODESIZE ISZERO DUP1 ISZERO PUSH2 0x2230 JUMPI PUSH1 0x0 DUP1 REVERT JUMPDEST POP GAS CALL ISZERO DUP1 ISZERO PUSH2 0x2244 JUMPI RETURNDATASIZE PUSH1 0x0 DUP1 RETURNDATACOPY RETURNDATASIZE PUSH1 0x0 REVERT JUMPDEST POP POP POP POP PUSH1 0x40 MLOAD RETURNDATASIZE PUSH1 0x1F NOT PUSH1 0x1F DUP3 ADD AND DUP3 ADD DUP1 PUSH1 0x40 MSTORE POP DUP2 ADD SWAP1 PUSH2 0x11C1 SWAP2 SWAP1 PUSH2 0x4AE9 JUMP JUMPDEST PUSH1 0x0 DUP1 PUSH2 0x2277 DUP7 DUP9 DUP8 DUP8 PUSH2 0x3454 JUMP JUMPDEST SWAP1 POP PUSH1 0x0 PUSH2 0x2293 PUSH2 0x2287 DUP6 PUSH2 0x14BF JUMP JUMPDEST PUSH2 0x160 DUP11 ADD MLOAD SWAP1 PUSH2 0x14CD JUMP JUMPDEST SWAP1 POP PUSH1 0x0 PUSH2 0x22A1 DUP4 DUP4 PUSH2 0x2D16 JUMP JUMPDEST SWAP1 POP DUP2 PUSH2 0x22B7 JUMPI PUSH1 0x1 PUSH1 0x1 PUSH1 0xFF SHL SUB SWAP4 POP PUSH2 0x22C4 JUMP JUMPDEST PUSH2 0x22C1 DUP2 DUP4 PUSH2 0x34B9 JUMP JUMPDEST SWAP4 POP JUMPDEST POP POP SWAP6 POP SWAP6 SWAP4 POP POP POP POP JUMP JUMPDEST PUSH1 0x0 DUP1 PUSH1 0x2 PUSH1 0xA SLOAD EQ ISZERO PUSH2 0x22F6 JUMPI PUSH1 0x40 MLOAD PUSH3 0x461BCD PUSH1 0xE5 SHL DUP2 MSTORE PUSH1 0x4 ADD PUSH2 0x308 SWAP1 PUSH2 0x5250 JUMP JUMPDEST PUSH1 0x2 PUSH1 0xA SSTORE PUSH2 0x2306 DUP8 PUSH1 0x80 PUSH2 0xF6F JUMP JUMPDEST ISZERO PUSH2 0x2311 JUMPI PUSH1 0x1 PUSH1 0xA SSTORE JUMPDEST PUSH1 0x0 PUSH2 0x2321 DUP9 PUSH1 0x0 ADD MLOAD DUP9 PUSH2 0x12B4 JUMP JUMPDEST DUP9 MLOAD SWAP1 SWAP2 POP PUSH1 0x0 SWAP1 PUSH2 0x2338 SWAP1 DUP11 SWAP1 DUP10 DUP12 DUP11 DUP11 PUSH2 0x34D2 JUMP JUMPDEST SWAP1 POP PUSH1 0x0 DUP2 SGT PUSH2 0x2347 JUMPI PUSH1 0x0 DUP1 REVERT JUMPDEST PUSH1 0x80 DUP3 ADD MLOAD PUSH2 0x2356 SWAP1 DUP3 PUSH2 0x1651 JUMP JUMPDEST PUSH1 0x80 DUP4 ADD MSTORE PUSH1 0xA0 DUP3 ADD MLOAD PUSH2 0x236A SWAP1 DUP9 PUSH2 0x1D74 JUMP JUMPDEST PUSH1 0xA0 DUP4 ADD MSTORE DUP9 MLOAD PUSH2 0x237C SWAP1 DUP4 SWAP1 PUSH2 0x1663 JUMP JUMPDEST DUP8 DUP10 PUSH1 0x0 ADD MLOAD PUSH1 0x1 PUSH1 0x1 PUSH1 0xA0 SHL SUB AND PUSH32 0xB2F70C3FE73B5AEE7E8C59B77222111306F1E4D7170F8FA1C09979BB847EB9D9 DUP4 DUP11 PUSH1 0x40 MLOAD PUSH2 0x23BC SWAP3 SWAP2 SWAP1 PUSH2 0x4E5A JUMP JUMPDEST PUSH1 0x40 MLOAD DUP1 SWAP2 SUB SWAP1 LOG3 PUSH2 0x23CF DUP10 DUP4 DUP11 PUSH2 0x1F01 JUMP JUMPDEST PUSH1 0x1 PUSH1 0xA SSTORE SWAP1 SWAP11 SWAP1 SWAP10 POP SWAP8 POP POP POP POP POP POP POP POP JUMP JUMPDEST PUSH2 0x23EC PUSH2 0x45F6 JUMP JUMPDEST PUSH1 0x0 PUSH2 0x23F6 PUSH2 0x33D4 JUMP JUMPDEST PUSH1 0x1 PUSH1 0x1 PUSH1 0xA0 SHL SUB DUP5 AND PUSH1 0x0 DUP2 DUP2 MSTORE PUSH1 0x20 DUP4 DUP2 MSTORE PUSH1 0x40 SWAP2 DUP3 SWAP1 KECCAK256 SWAP3 DUP7 MSTORE DUP3 SLOAD PUSH2 0xFFFF DUP1 DUP3 AND SWAP3 DUP9 ADD SWAP3 SWAP1 SWAP3 MSTORE PUSH3 0x10000 DUP2 DIV SWAP1 SWAP2 AND SWAP2 DUP7 ADD SWAP2 SWAP1 SWAP2 MSTORE SWAP2 SWAP3 POP SWAP1 PUSH2 0x2456 SWAP1 PUSH4 0xFFFFFFFF PUSH1 0x1 PUSH1 0x20 SHL SWAP1 SWAP2 DIV DUP2 AND SWAP1 PUSH4 0x5F5E100 SWAP1 PUSH2 0x2735 AND JUMP JUMPDEST PUSH1 0x60 DUP5 ADD MSTORE DUP1 SLOAD PUSH2 0x2474 SWAP1 PUSH1 0x1 PUSH1 0x50 SHL SWAP1 DIV PUSH1 0xFF AND PUSH3 0x7A120 PUSH2 0x2E30 JUMP JUMPDEST PUSH1 0x80 DUP5 ADD MSTORE DUP1 SLOAD PUSH2 0x2498 SWAP1 PUSH9 0x10000000000000000 SWAP1 DIV PUSH2 0xFFFF AND PUSH3 0x186A0 PUSH2 0x2E30 JUMP JUMPDEST PUSH1 0xA0 DUP5 ADD MSTORE DUP1 SLOAD PUSH2 0x24B7 SWAP1 PUSH1 0x1 PUSH1 0x70 SHL SWAP1 DIV PUSH2 0xFFFF AND PUSH3 0x186A0 PUSH2 0x2E30 JUMP JUMPDEST PUSH2 0x120 DUP5 ADD MSTORE DUP1 SLOAD PUSH1 0x64 SWAP1 PUSH1 0xFF PUSH1 0x1 PUSH1 0x58 SHL SWAP1 SWAP2 DIV AND PUSH4 0x3B9ACA00 MUL SDIV PUSH1 0xC0 DUP5 ADD MSTORE DUP1 SLOAD PUSH1 0x1 PUSH1 0x60 SHL DUP2 DIV PUSH1 0xFF SWAP1 DUP2 AND PUSH1 0xE0 DUP7 ADD MSTORE PUSH1 0x1 PUSH1 0x68 SHL SWAP1 SWAP2 DIV AND PUSH2 0x100 DUP5 ADD MSTORE PUSH1 0x40 DUP1 MLOAD DUP1 DUP3 ADD SWAP2 DUP3 SWAP1 MSTORE SWAP1 PUSH1 0x1 DUP4 ADD SWAP1 PUSH1 0x2 SWAP1 DUP3 PUSH1 0x0 DUP6 JUMPDEST DUP3 DUP3 SWAP1 SLOAD SWAP1 PUSH2 0x100 EXP SWAP1 DIV PUSH2 0xFFFF AND PUSH2 0xFFFF AND DUP2 MSTORE PUSH1 0x20 ADD SWAP1 PUSH1 0x2 ADD SWAP1 PUSH1 0x20 DUP3 PUSH1 0x1 ADD DIV SWAP3 DUP4 ADD SWAP3 PUSH1 0x1 SUB DUP3 MUL SWAP2 POP DUP1 DUP5 GT PUSH2 0x2514 JUMPI SWAP1 POP POP POP POP POP POP DUP4 PUSH2 0x140 ADD DUP2 SWAP1 MSTORE POP POP POP SWAP2 SWAP1 POP JUMP JUMPDEST PUSH2 0x2569 PUSH2 0x46A2 JUMP JUMPDEST PUSH1 0x0 DUP1 PUSH1 0x0 PUSH2 0x2577 DUP6 PUSH2 0x2B46 JUMP JUMPDEST PUSH1 0x40 DUP1 MLOAD PUSH1 0x60 DUP2 ADD DUP3 MSTORE PUSH1 0x1 PUSH1 0x1 PUSH1 0xA0 SHL SUB SWAP1 SWAP4 AND DUP4 MSTORE PUSH1 0x20 DUP4 ADD SWAP4 SWAP1 SWAP4 MSTORE PUSH1 0xFF AND PUSH1 0xA EXP SWAP2 DUP2 ADD SWAP2 SWAP1 SWAP2 MSTORE SWAP4 POP POP POP POP SWAP2 SWAP1 POP JUMP JUMPDEST PUSH2 0x25B5 PUSH2 0x46CC JUMP JUMPDEST PUSH1 0x0 PUSH2 0x25BF PUSH2 0x3519 JUMP JUMPDEST PUSH1 0x0 DUP5 DUP2 MSTORE PUSH1 0x20 DUP3 SWAP1 MSTORE PUSH1 0x40 DUP2 KECCAK256 SWAP2 SWAP3 POP DUP1 PUSH1 0x1 DUP7 EQ ISZERO PUSH2 0x25EC JUMPI POP PUSH8 0xDE0B6B3A7640000 SWAP1 POP DUP1 PUSH2 0x26C2 JUMP JUMPDEST DUP3 SLOAD PUSH1 0x40 DUP1 MLOAD PUSH4 0x3FABE5A3 PUSH1 0xE2 SHL DUP2 MSTORE SWAP1 MLOAD PUSH1 0x1 PUSH1 0x1 PUSH1 0xA0 SHL SUB SWAP1 SWAP3 AND SWAP2 PUSH4 0xFEAF968C SWAP2 PUSH1 0x4 DUP1 DUP3 ADD SWAP3 PUSH1 0xA0 SWAP3 SWAP1 SWAP2 SWAP1 DUP3 SWAP1 SUB ADD DUP2 DUP7 DUP1 EXTCODESIZE ISZERO DUP1 ISZERO PUSH2 0x2630 JUMPI PUSH1 0x0 DUP1 REVERT JUMPDEST POP GAS STATICCALL ISZERO DUP1 ISZERO PUSH2 0x2644 JUMPI RETURNDATASIZE PUSH1 0x0 DUP1 RETURNDATACOPY RETURNDATASIZE PUSH1 0x0 REVERT JUMPDEST POP POP POP POP PUSH1 0x40 MLOAD RETURNDATASIZE PUSH1 0x1F NOT PUSH1 0x1F DUP3 ADD AND DUP3 ADD DUP1 PUSH1 0x40 MSTORE POP DUP2 ADD SWAP1 PUSH2 0x2668 SWAP2 SWAP1 PUSH2 0x4BBE JUMP JUMPDEST POP SWAP2 SWAP4 POP POP PUSH1 0x0 DUP4 SGT SWAP2 POP PUSH2 0x2691 SWAP1 POP JUMPI PUSH1 0x40 MLOAD PUSH3 0x461BCD PUSH1 0xE5 SHL DUP2 MSTORE PUSH1 0x4 ADD PUSH2 0x308 SWAP1 PUSH2 0x522A JUMP JUMPDEST DUP3 SLOAD PUSH1 0xFF PUSH1 0x1 PUSH1 0xA0 SHL DUP3 DIV DUP2 AND PUSH1 0xA EXP SWAP4 POP PUSH1 0x1 PUSH1 0xA8 SHL SWAP1 SWAP2 DIV AND ISZERO PUSH2 0x26C2 JUMPI PUSH2 0x26BF DUP2 PUSH2 0x105F DUP5 DUP1 PUSH2 0x2735 JUMP JUMPDEST SWAP1 POP JUMPDEST PUSH1 0x40 DUP1 MLOAD PUSH1 0xA0 DUP2 ADD DUP3 MSTORE SWAP3 DUP4 MSTORE PUSH1 0x20 DUP4 ADD SWAP2 SWAP1 SWAP2 MSTORE SWAP2 SLOAD PUSH1 0xFF PUSH1 0x1 PUSH1 0xB0 SHL DUP3 DIV DUP2 AND SWAP4 DUP4 ADD SWAP4 SWAP1 SWAP4 MSTORE PUSH1 0x1 PUSH1 0xB8 SHL DUP2 DIV DUP4 AND PUSH1 0x60 DUP4 ADD MSTORE PUSH1 0x1 PUSH1 0xC0 SHL SWAP1 DIV SWAP1 SWAP2 AND PUSH1 0x80 DUP3 ADD MSTORE SWAP2 POP POP SWAP2 SWAP1 POP JUMP JUMPDEST PUSH1 0x0 PUSH2 0x883 DUP3 PUSH1 0x20 ADD MLOAD PUSH2 0x105F DUP5 PUSH1 0x0 ADD MLOAD DUP7 PUSH1 0x20 ADD MLOAD PUSH2 0x2735 SWAP1 SWAP2 SWAP1 PUSH4 0xFFFFFFFF AND JUMP JUMPDEST DUP2 DUP2 MUL PUSH1 0x0 NOT DUP4 EQ ISZERO PUSH2 0x2765 JUMPI DUP2 ISZERO DUP1 PUSH2 0x2757 JUMPI POP DUP3 DUP3 DUP3 DUP2 PUSH2 0x2754 JUMPI INVALID JUMPDEST SDIV EQ JUMPDEST PUSH2 0x2760 JUMPI PUSH1 0x0 DUP1 REVERT JUMPDEST PUSH2 0xEE8 JUMP JUMPDEST DUP3 ISZERO DUP1 PUSH2 0x277A JUMPI POP DUP2 DUP4 DUP3 DUP2 PUSH2 0x2777 JUMPI INVALID JUMPDEST SDIV EQ JUMPDEST PUSH2 0xEE8 JUMPI PUSH1 0x0 DUP1 REVERT JUMPDEST PUSH1 0x0 DUP2 PUSH1 0x0 NOT EQ DUP1 ISZERO PUSH2 0x2799 JUMPI POP PUSH1 0x1 PUSH1 0xFF SHL DUP4 EQ JUMPDEST ISZERO PUSH2 0x27A3 JUMPI PUSH1 0x0 DUP1 REVERT JUMPDEST DUP2 DUP4 DUP2 PUSH2 0x27AC JUMPI INVALID JUMPDEST SDIV SWAP4 SWAP3 POP POP POP JUMP JUMPDEST PUSH1 0x0 PUSH1 0x1 PUSH1 0x1 PUSH1 0x50 SHL SUB DUP3 GT ISZERO PUSH2 0x110C JUMPI PUSH1 0x0 DUP1 REVERT JUMPDEST PUSH1 0x0 PUSH3 0xF4240 DUP3 PUSH1 0x1A DUP2 GT ISZERO PUSH2 0x27DC JUMPI INVALID JUMPDEST ADD SWAP3 SWAP2 POP POP JUMP JUMPDEST PUSH1 0x0 DUP1 PUSH2 0x27FB DUP9 PUSH1 0x0 ADD MLOAD DUP8 PUSH2 0x850 PUSH2 0x937 DUP9 PUSH2 0x1513 JUMP JUMPDEST POP PUSH1 0x0 PUSH2 0x2806 PUSH2 0x1506 JUMP JUMPDEST DUP10 MLOAD PUSH1 0x1 PUSH1 0x1 PUSH1 0xA0 SHL SUB AND PUSH1 0x0 SWAP1 DUP2 MSTORE PUSH1 0x20 SWAP2 DUP3 MSTORE PUSH1 0x40 DUP1 DUP3 KECCAK256 DUP10 DUP4 MSTORE DUP4 MSTORE DUP1 DUP3 KECCAK256 PUSH2 0xFFFF DUP12 AND DUP4 MSTORE SWAP1 SWAP3 MSTORE KECCAK256 DUP1 SLOAD SWAP1 SWAP2 POP PUSH1 0x1 PUSH1 0xA0 SHL SWAP1 DIV PUSH1 0x1 PUSH1 0x1 PUSH1 0x50 SHL SUB AND ISZERO PUSH2 0x2865 JUMPI PUSH1 0x40 MLOAD PUSH3 0x461BCD PUSH1 0xE5 SHL DUP2 MSTORE PUSH1 0x4 ADD PUSH2 0x308 SWAP1 PUSH2 0x51CC JUMP JUMPDEST DUP1 SLOAD DUP10 MLOAD PUSH1 0x1 PUSH1 0x1 PUSH1 0x50 SHL SUB DUP1 DUP4 AND SWAP3 PUSH1 0x1 PUSH1 0x50 SHL SWAP1 DIV AND SWAP1 PUSH1 0x1 PUSH1 0x1 PUSH1 0xA0 SHL SUB DUP12 DUP2 AND SWAP2 AND EQ PUSH2 0x28F2 JUMPI DUP2 PUSH2 0x289D JUMPI DUP7 SWAP4 POP PUSH2 0x28AE JUMP JUMPDEST PUSH2 0x28AB DUP3 PUSH2 0x1B43 DUP10 DUP5 PUSH2 0x2E30 JUMP JUMPDEST SWAP4 POP JUMPDEST PUSH2 0x28BE DUP12 DUP12 DUP12 DUP12 PUSH2 0x1BB3 DUP10 PUSH2 0x1513 JUMP JUMPDEST PUSH2 0x28CB PUSH2 0x1073 DUP3 DUP7 PUSH2 0x1651 JUMP JUMPDEST DUP4 SLOAD PUSH1 0x1 PUSH1 0x1 PUSH1 0x50 SHL SUB SWAP2 SWAP1 SWAP2 AND PUSH1 0x1 PUSH1 0x50 SHL MUL PUSH1 0x1 PUSH1 0x50 SHL PUSH1 0x1 PUSH1 0xA0 SHL SUB NOT SWAP1 SWAP2 AND OR DUP4 SSTORE JUMPDEST PUSH2 0x28FF PUSH2 0x1073 DUP4 DUP10 PUSH2 0x1651 JUMP JUMPDEST DUP4 SLOAD PUSH1 0x1 PUSH1 0x1 PUSH1 0x50 SHL SUB NOT AND PUSH1 0x1 PUSH1 0x1 PUSH1 0x50 SHL SUB SWAP2 SWAP1 SWAP2 AND OR DUP4 SSTORE PUSH2 0x2932 DUP12 DUP11 DUP11 PUSH2 0x292C PUSH2 0x937 DUP13 PUSH2 0x1513 JUMP JUMPDEST DUP11 PUSH2 0x2FFE JUMP JUMPDEST SWAP5 POP DUP9 PUSH2 0xFFFF AND DUP11 PUSH1 0x1 PUSH1 0x1 PUSH1 0xA0 SHL SUB AND DUP13 PUSH1 0x0 ADD MLOAD PUSH1 0x1 PUSH1 0x1 PUSH1 0xA0 SHL SUB AND PUSH32 0xA119A38E8BBBF2CBE78427CB9E63EF28678B56E3CEECC10BDA7C00503EA94739 DUP12 DUP9 DUP13 PUSH1 0x40 MLOAD PUSH2 0x1C4D SWAP4 SWAP3 SWAP2 SWAP1 PUSH2 0x53FD JUMP JUMPDEST DUP2 DUP2 ADD DUP3 DUP2 SLT ISZERO PUSH1 0x0 DUP4 SLT ISZERO EQ PUSH2 0xEE8 JUMPI PUSH1 0x0 DUP1 REVERT JUMPDEST PUSH1 0x0 DUP2 PUSH2 0x29A9 JUMPI POP PUSH1 0x0 PUSH2 0x883 JUMP JUMPDEST PUSH1 0x0 DUP3 SGT PUSH2 0x29B6 JUMPI PUSH1 0x0 DUP1 REVERT JUMPDEST PUSH1 0x0 PUSH2 0x29C5 DUP5 PUSH2 0xFFFF AND PUSH2 0x11D0 JUMP JUMPDEST SWAP1 POP PUSH1 0x0 PUSH2 0x29D3 DUP3 DUP6 PUSH2 0x30CB JUMP JUMPDEST SWAP1 POP PUSH1 0x4 DUP3 PUSH1 0x60 ADD MLOAD PUSH1 0x5 DUP2 GT ISZERO PUSH2 0x29E7 JUMPI INVALID JUMPDEST EQ ISZERO PUSH2 0x2A15 JUMPI PUSH2 0x2A0E PUSH2 0x32F PUSH2 0x937 DUP9 DUP9 PUSH2 0xFFFF AND PUSH2 0x2A05 DUP7 PUSH2 0x14BF JUMP JUMPDEST DUP8 SWAP3 SWAP2 SWAP1 PUSH2 0x3526 JUMP JUMPDEST SWAP3 POP PUSH2 0x2A39 JUMP JUMPDEST PUSH2 0x2A36 PUSH2 0x32F PUSH2 0x937 DUP8 PUSH2 0xFFFF AND DUP10 PUSH2 0x2A2D DUP7 PUSH2 0x10FD JUMP JUMPDEST DUP8 SWAP3 SWAP2 SWAP1 PUSH2 0x35CE JUMP JUMPDEST SWAP3 POP JUMPDEST POP POP SWAP4 SWAP3 POP POP POP JUMP JUMPDEST PUSH2 0x2A4A PUSH2 0x4673 JUMP JUMPDEST PUSH1 0x0 PUSH2 0x2A54 PUSH2 0x3664 JUMP JUMPDEST PUSH1 0x0 DUP6 DUP2 MSTORE PUSH1 0x20 DUP3 DUP2 MSTORE PUSH1 0x40 DUP1 DUP4 KECCAK256 DUP8 ISZERO ISZERO DUP5 MSTORE DUP3 MSTORE SWAP2 DUP3 SWAP1 KECCAK256 DUP3 MLOAD PUSH1 0xA0 DUP2 ADD DUP5 MSTORE DUP2 SLOAD PUSH1 0x1 PUSH1 0x1 PUSH1 0xA0 SHL SUB DUP2 AND DUP3 MSTORE PUSH1 0xFF PUSH1 0x1 PUSH1 0xA0 SHL DUP3 DIV DUP2 AND ISZERO ISZERO SWAP5 DUP4 ADD SWAP5 SWAP1 SWAP5 MSTORE PUSH1 0x1 PUSH1 0xB0 SHL DUP2 DIV DUP5 AND PUSH1 0xA EXP SWAP5 DUP3 ADD SWAP5 SWAP1 SWAP5 MSTORE SWAP4 SWAP5 POP SWAP3 SWAP2 PUSH1 0x60 DUP4 ADD SWAP2 PUSH1 0x1 PUSH1 0xA8 SHL SWAP1 SWAP2 DIV AND PUSH1 0x5 DUP2 GT ISZERO PUSH2 0x2AC9 JUMPI INVALID JUMPDEST DUP2 MSTORE SWAP2 SLOAD PUSH1 0x1 PUSH1 0xB8 SHL SWAP1 DIV PUSH9 0xFFFFFFFFFFFFFFFFFF AND PUSH1 0x20 SWAP1 SWAP3 ADD SWAP2 SWAP1 SWAP2 MSTORE SWAP5 SWAP4 POP POP POP POP JUMP JUMPDEST PUSH1 0x0 DUP1 PUSH2 0xEE8 PUSH1 0x15 PUSH2 0x27CA JUMP JUMPDEST PUSH1 0x0 DUP1 PUSH1 0x0 PUSH2 0x2B0A PUSH2 0x2C09 JUMP JUMPDEST PUSH1 0x0 SWAP6 DUP7 MSTORE PUSH1 0x20 SWAP1 DUP2 MSTORE PUSH1 0x40 DUP1 DUP8 KECCAK256 SWAP6 DUP8 MSTORE SWAP5 SWAP1 MSTORE POP POP POP SWAP1 KECCAK256 SLOAD PUSH6 0x10000000000 DUP2 DIV PUSH1 0x1 PUSH1 0x1 PUSH1 0x80 SHL SUB AND SWAP2 PUSH1 0x1 PUSH1 0xA8 SHL SWAP1 SWAP2 DIV PUSH1 0xFF AND SWAP1 JUMP JUMPDEST PUSH1 0x0 DUP1 PUSH1 0x0 DUP1 PUSH1 0x0 PUSH2 0x2B57 DUP7 PUSH2 0x3671 JUMP JUMPDEST SWAP1 SWAP3 POP SWAP1 POP PUSH1 0x0 PUSH1 0x1 PUSH1 0x1 PUSH1 0xA0 SHL SUB DUP4 AND PUSH2 0x2B7C JUMPI POP PUSH1 0x0 SWAP1 POP PUSH5 0x2540BE400 PUSH2 0x2BFE JUMP JUMPDEST DUP3 PUSH1 0x1 PUSH1 0x1 PUSH1 0xA0 SHL SUB AND PUSH4 0x1EE10833 PUSH1 0x40 MLOAD DUP2 PUSH4 0xFFFFFFFF AND PUSH1 0xE0 SHL DUP2 MSTORE PUSH1 0x4 ADD PUSH1 0x20 PUSH1 0x40 MLOAD DUP1 DUP4 SUB DUP2 PUSH1 0x0 DUP8 DUP1 EXTCODESIZE ISZERO DUP1 ISZERO PUSH2 0x2BB7 JUMPI PUSH1 0x0 DUP1 REVERT JUMPDEST POP GAS CALL ISZERO DUP1 ISZERO PUSH2 0x2BCB JUMPI RETURNDATASIZE PUSH1 0x0 DUP1 RETURNDATACOPY RETURNDATASIZE PUSH1 0x0 REVERT JUMPDEST POP POP POP POP PUSH1 0x40 MLOAD RETURNDATASIZE PUSH1 0x1F NOT PUSH1 0x1F DUP3 ADD AND DUP3 ADD DUP1 PUSH1 0x40 MSTORE POP DUP2 ADD SWAP1 PUSH2 0x2BEF SWAP2 SWAP1 PUSH2 0x4AE9 JUMP JUMPDEST SWAP1 POP PUSH1 0x0 DUP2 SGT PUSH2 0x2BFE JUMPI PUSH1 0x0 DUP1 REVERT JUMPDEST SWAP7 SWAP2 SWAP6 POP SWAP4 POP SWAP2 POP POP JUMP JUMPDEST PUSH1 0x0 DUP1 PUSH2 0xEE8 PUSH1 0x8 PUSH2 0x27CA JUMP JUMPDEST PUSH1 0x0 DUP1 PUSH1 0x0 DUP1 PUSH1 0x0 PUSH2 0x2C26 PUSH2 0x36A8 JUMP JUMPDEST PUSH1 0x1 PUSH1 0x1 PUSH1 0xA0 SHL SUB DUP9 AND PUSH1 0x0 SWAP1 DUP2 MSTORE PUSH1 0x20 DUP3 DUP2 MSTORE PUSH1 0x40 DUP1 DUP4 KECCAK256 DUP11 DUP5 MSTORE SWAP1 SWAP2 MSTORE SWAP1 KECCAK256 DUP1 SLOAD PUSH1 0x1 PUSH1 0x1 PUSH1 0x50 SHL SUB DUP2 AND SWAP7 POP PUSH1 0x1 PUSH1 0x50 SHL SWAP1 DIV PUSH4 0xFFFFFFFF AND SWAP5 POP SWAP1 SWAP2 POP DUP4 ISZERO PUSH2 0x2C8F JUMPI DUP1 SLOAD PUSH2 0x2C88 SWAP1 PUSH1 0x1 PUSH1 0x70 SHL SWAP1 DIV PUSH7 0xFFFFFFFFFFFFFF AND PUSH2 0x36B5 JUMP JUMPDEST SWAP3 POP PUSH2 0x2CA4 JUMP JUMPDEST DUP1 SLOAD PUSH1 0x1 PUSH1 0x70 SHL SWAP1 DIV PUSH7 0xFFFFFFFFFFFFFF AND SWAP3 POP JUMPDEST SLOAD PUSH1 0x1 PUSH1 0xA8 SHL SWAP1 DIV PUSH1 0xA SWAP1 DUP2 SIGNEXTEND SWAP1 SIGNEXTEND SWAP8 SWAP4 SWAP7 POP SWAP2 SWAP5 POP SWAP3 POP POP JUMP JUMPDEST PUSH1 0x0 DUP2 SLT ISZERO PUSH2 0x2CCD JUMPI PUSH1 0x0 DUP1 REVERT JUMPDEST PUSH2 0x2CE2 PUSH1 0x0 DUP4 PUSH2 0xFFFF AND DUP4 PUSH1 0x0 DUP1 PUSH1 0x0 PUSH2 0x36C3 JUMP JUMPDEST DUP2 PUSH2 0xFFFF AND PUSH32 0xD3625F7B5926828151EFE19F7AE655488287357D99EBE67E5FB20522CA739C0B DUP3 PUSH1 0x40 MLOAD PUSH2 0xAC1 SWAP2 SWAP1 PUSH2 0x4E51 JUMP JUMPDEST DUP1 DUP3 SUB DUP3 DUP2 SGT ISZERO PUSH1 0x0 DUP4 SLT ISZERO EQ PUSH2 0xEE8 JUMPI PUSH1 0x0 DUP1 REVERT JUMPDEST PUSH1 0x0 DUP1 PUSH2 0x2D3C DUP8 PUSH2 0xFFFF AND PUSH2 0x11E3 JUMP JUMPDEST SWAP1 POP DUP1 PUSH1 0x40 ADD MLOAD PUSH1 0x0 EQ ISZERO PUSH2 0x2D5B JUMPI PUSH2 0x2D58 DUP8 PUSH2 0xFFFF AND PUSH2 0x11D0 JUMP JUMPDEST SWAP1 POP JUMPDEST PUSH1 0x40 MLOAD PUSH4 0xE9377111 PUSH1 0xE0 SHL DUP2 MSTORE PUSH2 0x2DE6 SWAP1 PUSH1 0x1 PUSH1 0x1 PUSH1 0xA0 SHL SUB DUP9 AND SWAP1 PUSH4 0xE9377111 SWAP1 PUSH2 0x2D8F SWAP1 DUP10 SWAP1 DUP10 SWAP1 DUP10 SWAP1 PUSH1 0x4 ADD PUSH2 0x4D7A JUMP JUMPDEST PUSH1 0x20 PUSH1 0x40 MLOAD DUP1 DUP4 SUB DUP2 DUP7 DUP1 EXTCODESIZE ISZERO DUP1 ISZERO PUSH2 0x2DA7 JUMPI PUSH1 0x0 DUP1 REVERT JUMPDEST POP GAS STATICCALL ISZERO DUP1 ISZERO PUSH2 0x2DBB JUMPI RETURNDATASIZE PUSH1 0x0 DUP1 RETURNDATACOPY RETURNDATASIZE PUSH1 0x0 REVERT JUMPDEST POP POP POP POP PUSH1 0x40 MLOAD RETURNDATASIZE PUSH1 0x1F NOT PUSH1 0x1F DUP3 ADD AND DUP3 ADD DUP1 PUSH1 0x40 MSTORE POP DUP2 ADD SWAP1 PUSH2 0x2DDF SWAP2 SWAP1 PUSH2 0x4AE9 JUMP JUMPDEST DUP3 SWAP1 PUSH2 0x380A JUMP JUMPDEST SWAP2 POP POP JUMPDEST SWAP6 SWAP5 POP POP POP POP POP JUMP JUMPDEST PUSH1 0x0 PUSH10 0x7FFFFFFFFFFFFFFFFFFF NOT DUP3 SLT DUP1 ISZERO SWAP1 PUSH2 0x2E1A JUMPI POP PUSH10 0x7FFFFFFFFFFFFFFFFFFF DUP3 SGT ISZERO JUMPDEST PUSH2 0x110C JUMPI PUSH1 0x0 DUP1 REVERT JUMPDEST PUSH1 0x0 DUP1 PUSH2 0xEE8 PUSH1 0x19 PUSH2 0x27CA JUMP JUMPDEST PUSH1 0x0 DUP3 PUSH2 0x2E3F JUMPI POP PUSH1 0x0 PUSH2 0xEE8 JUMP JUMPDEST DUP3 DUP3 MUL DUP3 DUP5 DUP3 DUP2 PUSH2 0x2E4C JUMPI INVALID JUMPDEST DIV EQ PUSH2 0x883 JUMPI PUSH1 0x0 DUP1 REVERT JUMPDEST PUSH1 0x0 DUP1 DUP3 GT PUSH2 0x2E65 JUMPI PUSH1 0x0 DUP1 REVERT JUMPDEST DUP2 DUP4 DUP2 PUSH2 0x2E6E JUMPI INVALID JUMPDEST DIV SWAP4 SWAP3 POP POP POP JUMP JUMPDEST PUSH1 0x0 PUSH2 0x2E80 PUSH2 0x1114 JUMP JUMPDEST PUSH1 0x1 PUSH1 0x1 PUSH1 0xA0 SHL SUB DUP1 DUP8 AND PUSH1 0x0 SWAP1 DUP2 MSTORE PUSH1 0x20 SWAP3 DUP4 MSTORE PUSH1 0x40 DUP1 DUP3 KECCAK256 DUP11 MLOAD SWAP1 SWAP4 AND DUP3 MSTORE SWAP2 SWAP1 SWAP3 MSTORE SWAP1 KECCAK256 DUP1 SLOAD SWAP1 SWAP2 POP PUSH4 0xFFFFFFFF AND DUP4 DUP2 EQ DUP1 PUSH2 0x2EBE JUMPI POP DUP1 ISZERO JUMPDEST PUSH2 0x2EDA JUMPI PUSH1 0x40 MLOAD PUSH3 0x461BCD PUSH1 0xE5 SHL DUP2 MSTORE PUSH1 0x4 ADD PUSH2 0x308 SWAP1 PUSH2 0x4EA6 JUMP JUMPDEST DUP2 SLOAD PUSH2 0x140 DUP9 ADD MLOAD MLOAD PUSH1 0x1 PUSH1 0x20 SHL DUP3 DIV PUSH1 0x1 PUSH1 0x1 PUSH1 0x50 SHL SUB SWAP1 DUP2 AND SWAP3 PUSH1 0x1 PUSH1 0x70 SHL SWAP1 DIV AND SWAP1 PUSH2 0xFFFF DUP9 DUP2 AND SWAP2 AND EQ ISZERO PUSH2 0x2F54 JUMPI PUSH2 0x2F17 DUP3 DUP7 PUSH2 0x2984 JUMP JUMPDEST SWAP2 POP PUSH2 0x2F25 PUSH2 0x1073 DUP4 PUSH2 0x10FD JUMP JUMPDEST DUP5 SLOAD PUSH1 0x1 PUSH1 0x1 PUSH1 0x50 SHL SUB SWAP2 SWAP1 SWAP2 AND PUSH1 0x1 PUSH1 0x20 SHL MUL PUSH14 0xFFFFFFFFFFFFFFFFFFFF00000000 NOT SWAP1 SWAP2 AND OR DUP5 SSTORE PUSH2 0x2FAE JUMP JUMPDEST PUSH2 0x140 DUP10 ADD MLOAD PUSH1 0x20 ADD MLOAD PUSH2 0xFFFF DUP9 DUP2 AND SWAP2 AND EQ ISZERO PUSH2 0x121 JUMPI PUSH2 0x2F76 DUP2 DUP7 PUSH2 0x2984 JUMP JUMPDEST SWAP1 POP PUSH2 0x2F84 PUSH2 0x1073 DUP3 PUSH2 0x10FD JUMP JUMPDEST DUP5 SLOAD PUSH1 0x1 PUSH1 0x1 PUSH1 0x50 SHL SUB SWAP2 SWAP1 SWAP2 AND PUSH1 0x1 PUSH1 0x70 SHL MUL PUSH10 0xFFFFFFFFFFFFFFFFFFFF PUSH1 0x70 SHL NOT SWAP1 SWAP2 AND OR DUP5 SSTORE JUMPDEST DUP2 ISZERO DUP1 ISZERO PUSH2 0x2FBA JUMPI POP DUP1 ISZERO JUMPDEST ISZERO PUSH2 0x2FCF JUMPI DUP4 SLOAD PUSH4 0xFFFFFFFF NOT AND DUP5 SSTORE PUSH2 0x2FF3 JUMP JUMPDEST DUP3 PUSH2 0x2FF3 JUMPI PUSH2 0x2FDD DUP7 PUSH2 0x383A JUMP JUMPDEST DUP5 SLOAD PUSH4 0xFFFFFFFF NOT AND PUSH4 0xFFFFFFFF SWAP2 SWAP1 SWAP2 AND OR DUP5 SSTORE JUMPDEST POP POP POP POP POP POP POP POP POP JUMP JUMPDEST PUSH1 0x0 DUP6 PUSH1 0x40 ADD MLOAD PUSH2 0xFFFF AND DUP6 PUSH2 0xFFFF AND EQ ISZERO PUSH2 0x3019 JUMPI PUSH1 0x0 DUP1 REVERT JUMPDEST DUP3 PUSH2 0x3026 JUMPI POP PUSH1 0x0 PUSH2 0x2DEA JUMP JUMPDEST TIMESTAMP DUP5 GT PUSH2 0x3063 JUMPI PUSH1 0x0 DUP4 SLT ISZERO PUSH2 0x303B JUMPI PUSH1 0x0 DUP1 REVERT JUMPDEST PUSH1 0x0 PUSH2 0x304C DUP7 PUSH2 0xFFFF AND DUP7 TIMESTAMP PUSH2 0x134F JUMP JUMPDEST SWAP1 POP PUSH2 0x305B PUSH2 0x937 DUP3 DUP7 PUSH2 0x14CD JUMP JUMPDEST SWAP2 POP POP PUSH2 0x2DEA JUMP JUMPDEST PUSH2 0x3076 DUP6 DUP6 DUP6 DUP6 DUP11 PUSH2 0x100 ADD MLOAD TIMESTAMP PUSH2 0x384D JUMP JUMPDEST SWAP1 POP PUSH1 0x0 DUP4 SGT DUP1 ISZERO PUSH2 0x3086 JUMPI POP DUP1 ISZERO JUMPDEST ISZERO PUSH2 0x30A2 JUMPI PUSH2 0x160 DUP7 ADD MLOAD PUSH2 0x309F SWAP1 PUSH2 0x937 SWAP1 DUP6 PUSH2 0x14CD JUMP JUMPDEST SWAP1 POP JUMPDEST PUSH1 0x0 DUP4 SLT ISZERO PUSH2 0x2DEA JUMPI PUSH1 0x0 DUP2 SGT PUSH2 0x2DEA JUMPI PUSH1 0x40 MLOAD PUSH3 0x461BCD PUSH1 0xE5 SHL DUP2 MSTORE PUSH1 0x4 ADD PUSH2 0x308 SWAP1 PUSH2 0x4EDD JUMP JUMPDEST PUSH1 0x0 PUSH4 0x5F5E100 DUP4 PUSH1 0x40 ADD MLOAD EQ ISZERO PUSH2 0x30E4 JUMPI POP DUP1 PUSH2 0xEE8 JUMP JUMPDEST PUSH2 0x883 PUSH4 0x5F5E100 PUSH2 0x105F DUP6 PUSH1 0x40 ADD MLOAD DUP6 PUSH2 0x2735 SWAP1 SWAP2 SWAP1 PUSH4 0xFFFFFFFF AND JUMP JUMPDEST PUSH1 0x40 DUP1 MLOAD PUSH1 0x1 PUSH1 0x1 PUSH1 0xA0 SHL SUB DUP5 DUP2 AND PUSH1 0x24 DUP1 DUP5 ADD SWAP2 SWAP1 SWAP2 MSTORE DUP4 MLOAD DUP1 DUP5 SUB SWAP1 SWAP2 ADD DUP2 MSTORE PUSH1 0x44 SWAP1 SWAP3 ADD DUP4 MSTORE PUSH1 0x20 DUP3 ADD DUP1 MLOAD PUSH1 0x1 PUSH1 0x1 PUSH1 0xE0 SHL SUB AND PUSH1 0x1 PUSH1 0x1 PUSH1 0xE0 SHL SUB NOT DUP7 AND OR DUP2 MSTORE SWAP3 MLOAD DUP3 MLOAD PUSH1 0x0 SWAP5 DUP6 SWAP5 DUP6 SWAP5 DUP11 AND SWAP4 SWAP1 SWAP3 SWAP1 SWAP2 DUP3 SWAP2 DUP1 DUP4 DUP4 JUMPDEST PUSH1 0x20 DUP4 LT PUSH2 0x3180 JUMPI DUP1 MLOAD DUP3 MSTORE PUSH1 0x1F NOT SWAP1 SWAP3 ADD SWAP2 PUSH1 0x20 SWAP2 DUP3 ADD SWAP2 ADD PUSH2 0x3161 JUMP JUMPDEST PUSH1 0x1 DUP4 PUSH1 0x20 SUB PUSH2 0x100 EXP SUB DUP1 NOT DUP3 MLOAD AND DUP2 DUP5 MLOAD AND DUP1 DUP3 OR DUP6 MSTORE POP POP POP POP POP POP SWAP1 POP ADD SWAP2 POP POP PUSH1 0x0 PUSH1 0x40 MLOAD DUP1 DUP4 SUB DUP2 DUP6 GAS STATICCALL SWAP2 POP POP RETURNDATASIZE DUP1 PUSH1 0x0 DUP2 EQ PUSH2 0x31E0 JUMPI PUSH1 0x40 MLOAD SWAP2 POP PUSH1 0x1F NOT PUSH1 0x3F RETURNDATASIZE ADD AND DUP3 ADD PUSH1 0x40 MSTORE RETURNDATASIZE DUP3 MSTORE RETURNDATASIZE PUSH1 0x0 PUSH1 0x20 DUP5 ADD RETURNDATACOPY PUSH2 0x31E5 JUMP JUMPDEST PUSH1 0x60 SWAP2 POP JUMPDEST POP SWAP2 POP SWAP2 POP DUP2 PUSH2 0x31F4 JUMPI PUSH1 0x0 DUP1 REVERT JUMPDEST DUP1 DUP1 PUSH1 0x20 ADD SWAP1 MLOAD PUSH1 0x20 DUP2 LT ISZERO PUSH2 0x3209 JUMPI PUSH1 0x0 DUP1 REVERT JUMPDEST POP MLOAD SWAP7 SWAP6 POP POP POP POP POP POP JUMP JUMPDEST PUSH2 0x321D PUSH2 0x395C JUMP JUMPDEST SLOAD DUP3 MLOAD PUSH1 0x40 MLOAD PUSH4 0xE8EDA9DF PUSH1 0xE0 SHL DUP2 MSTORE PUSH1 0x1 PUSH1 0x1 PUSH1 0xA0 SHL SUB SWAP1 SWAP3 AND SWAP2 PUSH4 0xE8EDA9DF SWAP2 PUSH2 0x3252 SWAP2 DUP6 SWAP1 ADDRESS SWAP1 PUSH1 0x0 SWAP1 PUSH1 0x4 ADD PUSH2 0x4D25 JUMP JUMPDEST PUSH1 0x0 PUSH1 0x40 MLOAD DUP1 DUP4 SUB DUP2 PUSH1 0x0 DUP8 DUP1 EXTCODESIZE ISZERO DUP1 ISZERO PUSH2 0x326C JUMPI PUSH1 0x0 DUP1 REVERT JUMPDEST POP GAS CALL ISZERO DUP1 ISZERO PUSH2 0x3280 JUMPI RETURNDATASIZE PUSH1 0x0 DUP1 RETURNDATACOPY RETURNDATASIZE PUSH1 0x0 REVERT JUMPDEST POP POP POP POP POP POP JUMP JUMPDEST DUP2 MLOAD PUSH1 0x40 MLOAD PUSH4 0x140E25AD PUSH1 0xE3 SHL DUP2 MSTORE PUSH1 0x0 SWAP2 PUSH1 0x1 PUSH1 0x1 PUSH1 0xA0 SHL SUB AND SWAP1 PUSH4 0xA0712D68 SWAP1 PUSH2 0x32B8 SWAP1 DUP6 SWAP1 PUSH1 0x4 ADD PUSH2 0x4E51 JUMP JUMPDEST PUSH1 0x20 PUSH1 0x40 MLOAD DUP1 DUP4 SUB DUP2 PUSH1 0x0 DUP8 DUP1 EXTCODESIZE ISZERO DUP1 ISZERO PUSH2 0x32D2 JUMPI PUSH1 0x0 DUP1 REVERT JUMPDEST POP GAS CALL ISZERO DUP1 ISZERO PUSH2 0x32E6 JUMPI RETURNDATASIZE PUSH1 0x0 DUP1 RETURNDATACOPY RETURNDATASIZE PUSH1 0x0 REVERT JUMPDEST POP POP POP POP PUSH1 0x40 MLOAD RETURNDATASIZE PUSH1 0x1F NOT PUSH1 0x1F DUP3 ADD AND DUP3 ADD DUP1 PUSH1 0x40 MSTORE POP DUP2 ADD SWAP1 PUSH2 0x330A SWAP2 SWAP1 PUSH2 0x4AE9 JUMP JUMPDEST SWAP1 POP DUP1 ISZERO PUSH2 0x12AF JUMPI PUSH1 0x40 MLOAD PUSH3 0x461BCD PUSH1 0xE5 SHL DUP2 MSTORE PUSH1 0x4 ADD PUSH2 0x308 SWAP1 PUSH2 0x4F75 JUMP JUMPDEST DUP2 PUSH1 0x0 ADD MLOAD PUSH1 0x1 PUSH1 0x1 PUSH1 0xA0 SHL SUB AND PUSH4 0x1249C58B DUP3 PUSH1 0x40 MLOAD DUP3 PUSH4 0xFFFFFFFF AND PUSH1 0xE0 SHL DUP2 MSTORE PUSH1 0x4 ADD PUSH1 0x0 PUSH1 0x40 MLOAD DUP1 DUP4 SUB DUP2 DUP6 DUP9 DUP1 EXTCODESIZE ISZERO DUP1 ISZERO PUSH2 0x3369 JUMPI PUSH1 0x0 DUP1 REVERT JUMPDEST POP GAS CALL ISZERO DUP1 ISZERO PUSH2 0x21B6 JUMPI RETURNDATASIZE PUSH1 0x0 DUP1 RETURNDATACOPY RETURNDATASIZE PUSH1 0x0 REVERT JUMPDEST PUSH1 0x0 DUP3 DUP3 GT ISZERO PUSH2 0x1D83 JUMPI PUSH1 0x40 DUP1 MLOAD PUSH3 0x461BCD PUSH1 0xE5 SHL DUP2 MSTORE PUSH1 0x20 PUSH1 0x4 DUP3 ADD MSTORE PUSH1 0x1E PUSH1 0x24 DUP3 ADD MSTORE PUSH32 0x536166654D6174683A207375627472616374696F6E206F766572666C6F770000 PUSH1 0x44 DUP3 ADD MSTORE SWAP1 MLOAD SWAP1 DUP2 SWAP1 SUB PUSH1 0x64 ADD SWAP1 REVERT JUMPDEST PUSH1 0x0 DUP1 PUSH2 0xEE8 PUSH1 0x14 PUSH2 0x27CA JUMP JUMPDEST PUSH2 0x33E9 PUSH2 0x46A2 JUMP JUMPDEST PUSH1 0x0 DUP1 PUSH1 0x0 PUSH2 0x2577 DUP6 PUSH2 0x3969 JUMP JUMPDEST PUSH2 0x33FF PUSH2 0x46A2 JUMP JUMPDEST PUSH1 0x0 DUP1 PUSH2 0x340C DUP6 DUP6 PUSH2 0x2AFD JUMP JUMPDEST SWAP2 POP SWAP2 POP DUP2 PUSH1 0x0 EQ ISZERO PUSH2 0x342A JUMPI PUSH2 0x3422 DUP6 PUSH2 0x3969 JUMP JUMPDEST SWAP2 SWAP4 POP SWAP1 SWAP2 POP POP JUMPDEST PUSH1 0x40 DUP1 MLOAD PUSH1 0x60 DUP2 ADD DUP3 MSTORE PUSH1 0x0 DUP2 MSTORE PUSH1 0x20 DUP2 ADD SWAP4 SWAP1 SWAP4 MSTORE PUSH1 0xFF SWAP1 SWAP2 AND PUSH1 0xA EXP SWAP1 DUP3 ADD MSTORE SWAP1 POP SWAP3 SWAP2 POP POP JUMP JUMPDEST PUSH1 0x0 DUP2 PUSH2 0x3463 JUMPI POP PUSH1 0x0 PUSH2 0x14FE JUMP JUMPDEST PUSH1 0x0 DUP1 PUSH2 0x3470 DUP8 DUP6 PUSH2 0x39EC JUMP JUMPDEST SWAP2 POP SWAP2 POP PUSH1 0x0 PUSH2 0x348F DUP8 PUSH1 0x40 ADD MLOAD DUP9 PUSH1 0x0 ADD MLOAD DUP9 DUP6 DUP13 PUSH1 0x0 ADD MLOAD PUSH2 0x2D2C JUMP JUMPDEST SWAP1 POP PUSH2 0x34AD PUSH2 0x349D DUP5 PUSH2 0x1513 JUMP JUMPDEST PUSH2 0x160 DUP10 ADD MLOAD PUSH2 0x19F8 SWAP1 DUP5 PUSH2 0x14CD JUMP JUMPDEST SWAP9 SWAP8 POP POP POP POP POP POP POP POP JUMP JUMPDEST PUSH1 0x0 PUSH2 0x883 PUSH2 0x34CC DUP5 PUSH4 0x3B9ACA00 PUSH2 0x2735 JUMP JUMPDEST DUP4 PUSH2 0x2783 JUMP JUMPDEST PUSH1 0x0 PUSH2 0x1148 DUP8 PUSH1 0x40 MLOAD DUP1 PUSH1 0xA0 ADD PUSH1 0x40 MSTORE DUP1 DUP10 PUSH1 0x1 PUSH1 0x1 PUSH1 0xA0 SHL SUB AND DUP2 MSTORE PUSH1 0x20 ADD DUP10 PUSH1 0x1 PUSH1 0x1 PUSH1 0xA0 SHL SUB AND DUP2 MSTORE PUSH1 0x20 ADD DUP9 DUP2 MSTORE PUSH1 0x20 ADD DUP8 DUP2 MSTORE PUSH1 0x20 ADD PUSH1 0x0 DUP2 MSTORE POP DUP6 DUP6 PUSH2 0x3A45 JUMP JUMPDEST PUSH1 0x0 DUP1 PUSH2 0xEE8 PUSH1 0x10 PUSH2 0x27CA JUMP JUMPDEST DUP1 PUSH1 0x5 DUP6 PUSH1 0x60 ADD MLOAD PUSH1 0x5 DUP2 GT ISZERO PUSH2 0x3539 JUMPI INVALID JUMPDEST EQ ISZERO PUSH2 0x355E JUMPI PUSH1 0x0 PUSH2 0x354A DUP5 PUSH2 0x11E3 JUMP JUMPDEST SWAP1 POP PUSH2 0x355A DUP2 PUSH1 0x0 ADD MLOAD DUP5 PUSH2 0x3CF2 JUMP JUMPDEST SWAP3 POP POP JUMPDEST PUSH1 0x0 DUP3 SGT ISZERO PUSH2 0x358A JUMPI PUSH1 0x0 PUSH2 0x3574 DUP7 DUP7 DUP6 PUSH2 0x3D78 JUMP JUMPDEST SWAP1 POP DUP6 PUSH1 0x20 ADD MLOAD ISZERO PUSH2 0x3584 JUMPI DUP1 SWAP2 POP JUMPDEST POP PUSH2 0x14FE JUMP JUMPDEST PUSH1 0x3 DUP6 PUSH1 0x60 ADD MLOAD PUSH1 0x5 DUP2 GT ISZERO PUSH2 0x359C JUMPI INVALID JUMPDEST EQ ISZERO PUSH2 0x35B9 JUMPI PUSH2 0x35B4 DUP5 PUSH2 0x35AF DUP5 PUSH2 0x14BF JUMP JUMPDEST PUSH2 0x3E6B JUMP JUMPDEST PUSH2 0x14FE JUMP JUMPDEST DUP5 MLOAD PUSH2 0x14FE SWAP1 DUP6 PUSH2 0x35C9 DUP6 PUSH2 0x14BF JUMP JUMPDEST PUSH2 0x3EA1 JUMP JUMPDEST PUSH1 0x0 DUP1 PUSH1 0x2 DUP7 PUSH1 0x60 ADD MLOAD PUSH1 0x5 DUP2 GT ISZERO PUSH2 0x35E3 JUMPI INVALID JUMPDEST EQ ISZERO PUSH2 0x35FB JUMPI PUSH2 0x35F4 DUP7 DUP6 DUP6 PUSH2 0x3F18 JUMP JUMPDEST SWAP1 POP PUSH2 0x3658 JUMP JUMPDEST PUSH1 0x0 PUSH2 0x3606 DUP7 PUSH2 0x11E3 JUMP JUMPDEST SWAP1 POP PUSH1 0x5 DUP8 PUSH1 0x60 ADD MLOAD PUSH1 0x5 DUP2 GT ISZERO PUSH2 0x361A JUMPI INVALID JUMPDEST EQ ISZERO PUSH2 0x3632 JUMPI PUSH2 0x362B DUP2 DUP7 DUP7 PUSH2 0x3FD5 JUMP JUMPDEST SWAP2 POP PUSH2 0x3656 JUMP JUMPDEST PUSH1 0x1 DUP8 PUSH1 0x60 ADD MLOAD PUSH1 0x5 DUP2 GT ISZERO PUSH2 0x3644 JUMPI INVALID JUMPDEST EQ ISZERO PUSH2 0x121 JUMPI PUSH2 0x362B DUP8 DUP3 DUP8 DUP8 PUSH2 0x4086 JUMP JUMPDEST POP JUMPDEST PUSH2 0x114C PUSH2 0x937 DUP3 PUSH2 0x1513 JUMP JUMPDEST PUSH1 0x0 DUP1 PUSH2 0xEE8 PUSH1 0x7 PUSH2 0x27CA JUMP JUMPDEST PUSH1 0x0 DUP1 PUSH1 0x0 PUSH2 0x367E PUSH2 0x4184 JUMP JUMPDEST PUSH1 0x0 SWAP5 DUP6 MSTORE PUSH1 0x20 MSTORE POP POP PUSH1 0x40 SWAP1 SWAP2 KECCAK256 SLOAD PUSH1 0x1 PUSH1 0x1 PUSH1 0xA0 SHL SUB DUP2 AND SWAP3 PUSH1 0x1 PUSH1 0xA0 SHL SWAP1 SWAP2 DIV PUSH1 0xFF AND SWAP2 POP JUMP JUMPDEST PUSH1 0x0 DUP1 PUSH2 0xEE8 PUSH1 0x6 PUSH2 0x27CA JUMP JUMPDEST PUSH1 0x8 DUP2 SWAP1 SHR PUSH1 0xFF SWAP1 SWAP2 AND SHL SWAP1 JUMP JUMPDEST PUSH1 0x0 PUSH2 0x36CD PUSH2 0x36A8 JUMP JUMPDEST PUSH1 0x1 PUSH1 0x1 PUSH1 0xA0 SHL SUB DUP9 AND PUSH1 0x0 SWAP1 DUP2 MSTORE PUSH1 0x20 DUP3 DUP2 MSTORE PUSH1 0x40 DUP1 DUP4 KECCAK256 DUP11 DUP5 MSTORE SWAP1 SWAP2 MSTORE SWAP1 KECCAK256 SWAP1 SWAP2 POP PUSH11 0x7FFFFFFFFFFFFFFFFFFFFF NOT DUP7 SLT DUP1 ISZERO SWAP1 PUSH2 0x3718 JUMPI POP PUSH11 0x7FFFFFFFFFFFFFFFFFFFFF DUP7 SGT ISZERO JUMPDEST PUSH2 0x3721 JUMPI PUSH1 0x0 DUP1 REVERT JUMPDEST PUSH1 0x0 DUP6 SLT ISZERO DUP1 ISZERO PUSH2 0x3739 JUMPI POP PUSH1 0x1 PUSH1 0x1 PUSH1 0x50 SHL SUB DUP6 SGT ISZERO JUMPDEST PUSH2 0x3742 JUMPI PUSH1 0x0 DUP1 REVERT JUMPDEST DUP4 PUSH2 0x3782 JUMPI PUSH7 0xFFFFFFFFFFFFFF DUP4 GT ISZERO PUSH2 0x375B JUMPI PUSH1 0x0 DUP1 REVERT JUMPDEST DUP1 SLOAD PUSH7 0xFFFFFFFFFFFFFF PUSH1 0x70 SHL NOT AND PUSH1 0x1 PUSH1 0x70 SHL PUSH7 0xFFFFFFFFFFFFFF DUP6 AND MUL OR DUP2 SSTORE PUSH2 0x379C JUMP JUMPDEST DUP1 SLOAD PUSH1 0x1 PUSH1 0x50 SHL SWAP1 DIV PUSH4 0xFFFFFFFF AND DUP5 EQ PUSH2 0x379C JUMPI PUSH1 0x0 DUP1 REVERT JUMPDEST DUP1 SLOAD PUSH1 0xA SWAP7 SWAP1 SWAP7 SIGNEXTEND PUSH11 0xFFFFFFFFFFFFFFFFFFFFFF AND PUSH1 0x1 PUSH1 0xA8 SHL MUL PUSH1 0x1 PUSH1 0x1 PUSH1 0xA8 SHL SUB PUSH1 0x1 PUSH1 0x1 PUSH1 0x50 SHL SUB SWAP1 SWAP7 AND PUSH1 0x1 PUSH1 0x1 PUSH1 0x50 SHL SUB NOT PUSH4 0xFFFFFFFF SWAP1 SWAP7 AND PUSH1 0x1 PUSH1 0x50 SHL MUL PUSH4 0xFFFFFFFF PUSH1 0x50 SHL NOT SWAP1 SWAP9 AND SWAP8 SWAP1 SWAP8 OR SWAP5 SWAP1 SWAP5 AND SWAP6 SWAP1 SWAP6 OR SWAP4 SWAP1 SWAP4 AND SWAP2 SWAP1 SWAP2 OR SWAP1 SWAP3 SSTORE POP POP POP POP JUMP JUMPDEST PUSH1 0x0 PUSH4 0x5F5E100 DUP4 PUSH1 0x40 ADD MLOAD EQ ISZERO PUSH2 0x3823 JUMPI POP DUP1 PUSH2 0xEE8 JUMP JUMPDEST PUSH1 0x40 DUP4 ADD MLOAD PUSH2 0x883 SWAP1 PUSH2 0x105F DUP5 PUSH4 0x5F5E100 PUSH2 0x2735 JUMP JUMPDEST PUSH1 0x0 PUSH4 0xFFFFFFFF DUP3 GT ISZERO PUSH2 0x110C JUMPI PUSH1 0x0 DUP1 REVERT JUMPDEST PUSH1 0x0 DUP1 PUSH2 0x385C DUP9 DUP9 DUP7 DUP7 PUSH2 0x4191 JUMP JUMPDEST SWAP1 POP PUSH1 0x0 PUSH2 0x3869 DUP8 PUSH2 0x4200 JUMP JUMPDEST SWAP1 POP PUSH11 0xFFFFFFFFFFFFFFFFFFFFFF DUP2 LT PUSH2 0x3882 JUMPI PUSH1 0x0 DUP1 REVERT JUMPDEST PUSH1 0x0 PUSH1 0x78 DUP8 PUSH4 0xFFFFFFFF AND SWAP1 SHL PUSH1 0x98 DUP4 SWAP1 SHL PUSH1 0xF0 DUP6 SWAP1 SHL PUSH1 0xF8 PUSH1 0x0 DUP13 SGT PUSH2 0x38AA JUMPI PUSH1 0x1 PUSH2 0x38AD JUMP JUMPDEST PUSH1 0x0 JUMPDEST PUSH1 0x5 DUP2 GT ISZERO PUSH2 0x38B8 JUMPI INVALID JUMPDEST PUSH1 0xFF AND SWAP1 SHL OR OR OR PUSH1 0x0 SHL SWAP1 POP PUSH20 0x0 PUSH4 0xE50F349E DUP12 DUP4 PUSH1 0x40 MLOAD DUP4 PUSH4 0xFFFFFFFF AND PUSH1 0xE0 SHL DUP2 MSTORE PUSH1 0x4 ADD PUSH2 0x38FE SWAP3 SWAP2 SWAP1 PUSH2 0x53E9 JUMP JUMPDEST PUSH1 0x20 PUSH1 0x40 MLOAD DUP1 DUP4 SUB DUP2 DUP7 DUP1 EXTCODESIZE ISZERO DUP1 ISZERO PUSH2 0x3916 JUMPI PUSH1 0x0 DUP1 REVERT JUMPDEST POP GAS DELEGATECALL ISZERO DUP1 ISZERO PUSH2 0x392A JUMPI RETURNDATASIZE PUSH1 0x0 DUP1 RETURNDATACOPY RETURNDATASIZE PUSH1 0x0 REVERT JUMPDEST POP POP POP POP PUSH1 0x40 MLOAD RETURNDATASIZE PUSH1 0x1F NOT PUSH1 0x1F DUP3 ADD AND DUP3 ADD DUP1 PUSH1 0x40 MSTORE POP DUP2 ADD SWAP1 PUSH2 0x394E SWAP2 SWAP1 PUSH2 0x4AE9 JUMP JUMPDEST SWAP11 SWAP10 POP POP POP POP POP POP POP POP POP POP JUMP JUMPDEST PUSH1 0x0 DUP1 PUSH2 0xEE8 PUSH1 0x13 PUSH2 0x27CA JUMP JUMPDEST PUSH1 0x0 DUP1 PUSH1 0x0 DUP1 PUSH1 0x0 PUSH2 0x397A DUP7 PUSH2 0x3671 JUMP JUMPDEST SWAP1 SWAP3 POP SWAP1 POP PUSH1 0x0 PUSH1 0x1 PUSH1 0x1 PUSH1 0xA0 SHL SUB DUP4 AND PUSH2 0x399F JUMPI POP PUSH1 0x0 SWAP1 POP PUSH5 0x2540BE400 PUSH2 0x2BFE JUMP JUMPDEST DUP3 PUSH1 0x1 PUSH1 0x1 PUSH1 0xA0 SHL SUB AND PUSH4 0xB2FFFB04 PUSH1 0x40 MLOAD DUP2 PUSH4 0xFFFFFFFF AND PUSH1 0xE0 SHL DUP2 MSTORE PUSH1 0x4 ADD PUSH1 0x20 PUSH1 0x40 MLOAD DUP1 DUP4 SUB DUP2 DUP7 DUP1 EXTCODESIZE ISZERO DUP1 ISZERO PUSH2 0x39D8 JUMPI PUSH1 0x0 DUP1 REVERT JUMPDEST POP GAS STATICCALL ISZERO DUP1 ISZERO PUSH2 0x2BCB JUMPI RETURNDATASIZE PUSH1 0x0 DUP1 RETURNDATACOPY RETURNDATASIZE PUSH1 0x0 REVERT JUMPDEST PUSH1 0x0 DUP1 PUSH1 0x0 DUP5 PUSH1 0x60 ADD MLOAD GT ISZERO PUSH2 0xB51 JUMPI PUSH2 0x3A1B DUP5 PUSH1 0x60 ADD MLOAD PUSH2 0x1B43 DUP7 PUSH1 0x80 ADD MLOAD DUP7 PUSH2 0x2E30 SWAP1 SWAP2 SWAP1 PUSH4 0xFFFFFFFF AND JUMP JUMPDEST SWAP2 POP PUSH2 0x3A3C DUP5 PUSH1 0x60 ADD MLOAD PUSH2 0x1B43 DUP7 PUSH1 0xA0 ADD MLOAD DUP7 PUSH2 0x2E30 SWAP1 SWAP2 SWAP1 PUSH4 0xFFFFFFFF AND JUMP JUMPDEST SWAP1 POP SWAP3 POP SWAP3 SWAP1 POP JUMP JUMPDEST PUSH1 0x0 DUP1 PUSH1 0x0 PUSH2 0x3A5B DUP8 PUSH1 0x40 ADD MLOAD PUSH2 0xFFFF AND PUSH2 0x11D0 JUMP JUMPDEST SWAP1 POP PUSH1 0x0 PUSH1 0x4 DUP3 PUSH1 0x60 ADD MLOAD PUSH1 0x5 DUP2 GT ISZERO PUSH2 0x3A71 JUMPI INVALID JUMPDEST EQ PUSH2 0x3A8C JUMPI PUSH2 0x3A87 DUP9 PUSH1 0x40 ADD MLOAD PUSH2 0xFFFF AND PUSH2 0x11E3 JUMP JUMPDEST PUSH2 0x3A8E JUMP JUMPDEST DUP2 JUMPDEST SWAP1 POP PUSH1 0x0 DUP1 DUP9 PUSH1 0x80 ADD MLOAD SLT ISZERO PUSH2 0x3B01 JUMPI PUSH1 0x4 DUP4 PUSH1 0x60 ADD MLOAD PUSH1 0x5 DUP2 GT ISZERO PUSH2 0x3AB0 JUMPI INVALID JUMPDEST EQ ISZERO PUSH2 0x3ACD JUMPI PUSH2 0x3AC6 PUSH2 0x32F DUP10 PUSH1 0x80 ADD MLOAD PUSH2 0x14BF JUMP JUMPDEST SWAP1 POP PUSH2 0x3B01 JUMP JUMPDEST PUSH1 0x0 PUSH2 0x3AEE PUSH2 0x937 DUP11 PUSH1 0x80 ADD MLOAD DUP13 PUSH2 0x160 ADD MLOAD PUSH2 0x1C63 SWAP1 SWAP2 SWAP1 PUSH4 0xFFFFFFFF AND JUMP JUMPDEST SWAP1 POP PUSH2 0x3AFD PUSH2 0x32F DUP5 DUP4 PUSH2 0x1C8E JUMP JUMPDEST SWAP2 POP POP JUMPDEST PUSH1 0x40 DUP9 ADD MLOAD PUSH1 0x0 SWAP1 ISZERO PUSH2 0x3BD9 JUMPI PUSH1 0x0 PUSH2 0x3B1A DUP5 ADDRESS PUSH2 0x1CCA JUMP JUMPDEST SWAP1 POP DUP11 PUSH1 0x0 ADD MLOAD PUSH1 0x1 PUSH1 0x1 PUSH1 0xA0 SHL SUB AND PUSH4 0x44F05108 DUP12 PUSH1 0x0 ADD MLOAD DUP13 PUSH1 0x20 ADD MLOAD DUP14 PUSH1 0x40 ADD MLOAD DUP15 PUSH1 0x60 ADD MLOAD DUP9 DUP16 DUP16 PUSH1 0x40 MLOAD DUP9 PUSH4 0xFFFFFFFF AND PUSH1 0xE0 SHL DUP2 MSTORE PUSH1 0x4 ADD PUSH2 0x3B68 SWAP8 SWAP7 SWAP6 SWAP5 SWAP4 SWAP3 SWAP2 SWAP1 PUSH2 0x4CB7 JUMP JUMPDEST PUSH1 0x20 PUSH1 0x40 MLOAD DUP1 DUP4 SUB DUP2 PUSH1 0x0 DUP8 DUP1 EXTCODESIZE ISZERO DUP1 ISZERO PUSH2 0x3B82 JUMPI PUSH1 0x0 DUP1 REVERT JUMPDEST POP GAS CALL ISZERO DUP1 ISZERO PUSH2 0x3B96 JUMPI RETURNDATASIZE PUSH1 0x0 DUP1 RETURNDATACOPY RETURNDATASIZE PUSH1 0x0 REVERT JUMPDEST POP POP POP POP PUSH1 0x40 MLOAD RETURNDATASIZE PUSH1 0x1F NOT PUSH1 0x1F DUP3 ADD AND DUP3 ADD DUP1 PUSH1 0x40 MSTORE POP DUP2 ADD SWAP1 PUSH2 0x3BBA SWAP2 SWAP1 PUSH2 0x4AE9 JUMP JUMPDEST SWAP6 POP PUSH1 0x0 PUSH2 0x3BC8 DUP6 ADDRESS PUSH2 0x1CCA JUMP JUMPDEST SWAP1 POP PUSH2 0x3BD4 DUP2 DUP4 PUSH2 0x1D74 JUMP JUMPDEST SWAP3 POP POP POP JUMPDEST DUP2 DUP2 LT ISZERO PUSH2 0x3C74 JUMPI DUP1 DUP3 SUB PUSH1 0x3 DUP5 PUSH1 0x60 ADD MLOAD PUSH1 0x5 DUP2 GT ISZERO PUSH2 0x3BF6 JUMPI INVALID JUMPDEST EQ ISZERO PUSH2 0x3C34 JUMPI CALLVALUE DUP2 GT ISZERO PUSH2 0x3C1C JUMPI PUSH1 0x40 MLOAD PUSH3 0x461BCD PUSH1 0xE5 SHL DUP2 MSTORE PUSH1 0x4 ADD PUSH2 0x308 SWAP1 PUSH2 0x4FDA JUMP JUMPDEST PUSH2 0x3C2C DUP11 PUSH1 0x0 ADD MLOAD DUP3 CALLVALUE SUB PUSH2 0x3E6B JUMP JUMPDEST DUP3 SWAP2 POP PUSH2 0x3C72 JUMP JUMPDEST PUSH1 0x0 PUSH2 0x3C59 DUP12 PUSH1 0x0 ADD MLOAD DUP14 PUSH1 0x40 ADD MLOAD PUSH2 0xFFFF AND PUSH2 0x3C50 DUP6 PUSH2 0x1513 JUMP JUMPDEST DUP9 SWAP3 SWAP2 SWAP1 PUSH2 0x3526 JUMP JUMPDEST SWAP1 POP PUSH2 0x3C6E PUSH2 0x3C67 DUP3 PUSH2 0x10FD JUMP JUMPDEST DUP5 SWAP1 PUSH2 0x1651 JUMP JUMPDEST SWAP3 POP POP JUMPDEST POP JUMPDEST DUP2 DUP2 LT ISZERO PUSH2 0x3C94 JUMPI PUSH1 0x40 MLOAD PUSH3 0x461BCD PUSH1 0xE5 SHL DUP2 MSTORE PUSH1 0x4 ADD PUSH2 0x308 SWAP1 PUSH2 0x4FDA JUMP JUMPDEST PUSH1 0x0 PUSH1 0x4 DUP6 PUSH1 0x60 ADD MLOAD PUSH1 0x5 DUP2 GT ISZERO PUSH2 0x3CA8 JUMPI INVALID JUMPDEST EQ ISZERO PUSH2 0x3CBE JUMPI PUSH2 0x3CB7 DUP3 PUSH2 0x1513 JUMP JUMPDEST SWAP1 POP PUSH2 0x3CD8 JUMP JUMPDEST DUP2 ISZERO PUSH2 0x3CD8 JUMPI PUSH1 0x40 DUP12 ADD MLOAD PUSH2 0x3CD5 SWAP1 DUP7 SWAP1 DUP5 PUSH2 0x1D89 JUMP JUMPDEST SWAP1 POP JUMPDEST PUSH2 0x3CE2 DUP6 DUP3 PUSH2 0x380A JUMP JUMPDEST SWAP7 POP POP POP POP POP POP SWAP5 POP SWAP5 SWAP3 POP POP POP JUMP JUMPDEST PUSH1 0x0 DUP2 PUSH2 0x3D01 JUMPI POP PUSH1 0x0 PUSH2 0xEE8 JUMP JUMPDEST PUSH1 0x0 PUSH2 0x3D0C DUP5 PUSH2 0x4221 JUMP JUMPDEST SWAP1 POP PUSH1 0x0 PUSH2 0x3D19 DUP5 PUSH2 0x4200 JUMP JUMPDEST SWAP1 POP DUP2 PUSH12 0x19D971E4FE8401E74000001 PUSH1 0x1 PUSH1 0xFF SHL SUB DUP2 PUSH2 0x3D36 JUMPI INVALID JUMPDEST SDIV DUP2 SGT ISZERO PUSH2 0x3D43 JUMPI PUSH1 0x0 DUP1 REVERT JUMPDEST PUSH12 0x33B2E3C9FD0803CE8000000 PUSH12 0x19D971E4FE8401E74000000 DUP4 DUP4 MUL ADD SDIV PUSH1 0x0 DUP6 SGT PUSH2 0x2DEA JUMPI PUSH2 0x3D73 DUP2 PUSH2 0x14BF JUMP JUMPDEST PUSH2 0x114C JUMP JUMPDEST PUSH1 0x0 DUP1 DUP1 DUP1 PUSH1 0x5 DUP8 PUSH1 0x60 ADD MLOAD PUSH1 0x5 DUP2 GT ISZERO PUSH2 0x3D8F JUMPI INVALID JUMPDEST EQ PUSH2 0x3DA1 JUMPI PUSH4 0x70A08231 PUSH1 0xE0 SHL PUSH2 0x3DAA JUMP JUMPDEST PUSH4 0xED1279F PUSH1 0xE1 SHL JUMPDEST SWAP1 POP DUP7 PUSH1 0x20 ADD MLOAD ISZERO PUSH2 0x3DC6 JUMPI DUP7 MLOAD PUSH2 0x3DC3 SWAP1 ADDRESS DUP4 PUSH2 0x3103 JUMP JUMPDEST SWAP3 POP JUMPDEST DUP7 MLOAD PUSH2 0x3DD3 SWAP1 DUP8 DUP8 PUSH2 0x42AC JUMP JUMPDEST DUP7 PUSH1 0x20 ADD MLOAD DUP1 PUSH2 0x3DE7 JUMPI POP PUSH1 0x0 DUP8 PUSH1 0x80 ADD MLOAD GT JUMPDEST ISZERO PUSH2 0x3DFC JUMPI DUP7 MLOAD PUSH2 0x3DF9 SWAP1 ADDRESS DUP4 PUSH2 0x3103 JUMP JUMPDEST SWAP2 POP JUMPDEST PUSH1 0x80 DUP8 ADD MLOAD ISZERO PUSH2 0x3E37 JUMPI PUSH1 0x0 PUSH2 0x3E1A DUP9 PUSH2 0x3E15 DUP6 PUSH2 0x1513 JUMP JUMPDEST PUSH2 0x380A JUMP JUMPDEST SWAP1 POP PUSH2 0x3E29 DUP9 PUSH1 0x80 ADD MLOAD PUSH2 0x1513 JUMP JUMPDEST DUP2 SGT ISZERO PUSH2 0x3E35 JUMPI PUSH1 0x0 DUP1 REVERT JUMPDEST POP JUMPDEST DUP7 PUSH1 0x20 ADD MLOAD ISZERO PUSH2 0x3E58 JUMPI PUSH2 0x3E4E PUSH2 0x1B49 DUP4 DUP6 PUSH2 0x337D JUMP JUMPDEST SWAP4 POP POP POP POP PUSH2 0x883 JUMP JUMPDEST PUSH2 0x3E4E DUP6 PUSH2 0x1513 JUMP JUMPDEST POP POP POP SWAP4 SWAP3 POP POP POP JUMP JUMPDEST PUSH1 0x40 MLOAD PUSH1 0x1 PUSH1 0x1 PUSH1 0xA0 SHL SUB DUP4 AND SWAP1 DUP3 ISZERO PUSH2 0x8FC MUL SWAP1 DUP4 SWAP1 PUSH1 0x0 DUP2 DUP2 DUP2 DUP6 DUP9 DUP9 CALL SWAP4 POP POP POP POP ISZERO DUP1 ISZERO PUSH2 0x12AF JUMPI RETURNDATASIZE PUSH1 0x0 DUP1 RETURNDATACOPY RETURNDATASIZE PUSH1 0x0 REVERT JUMPDEST DUP3 PUSH1 0x1 PUSH1 0x1 PUSH1 0xA0 SHL SUB AND PUSH4 0xA9059CBB DUP4 DUP4 PUSH1 0x40 MLOAD DUP4 PUSH4 0xFFFFFFFF AND PUSH1 0xE0 SHL DUP2 MSTORE PUSH1 0x4 ADD DUP1 DUP4 PUSH1 0x1 PUSH1 0x1 PUSH1 0xA0 SHL SUB AND DUP2 MSTORE PUSH1 0x20 ADD DUP3 DUP2 MSTORE PUSH1 0x20 ADD SWAP3 POP POP POP PUSH1 0x0 PUSH1 0x40 MLOAD DUP1 DUP4 SUB DUP2 PUSH1 0x0 DUP8 DUP1 EXTCODESIZE ISZERO DUP1 ISZERO PUSH2 0x3EF8 JUMPI PUSH1 0x0 DUP1 REVERT JUMPDEST POP GAS CALL ISZERO DUP1 ISZERO PUSH2 0x3F0C JUMPI RETURNDATASIZE PUSH1 0x0 DUP1 RETURNDATACOPY RETURNDATASIZE PUSH1 0x0 REVERT JUMPDEST POP POP POP POP PUSH2 0x12AF PUSH2 0x4304 JUMP JUMPDEST DUP3 MLOAD PUSH1 0x40 MLOAD PUSH4 0xDB006A75 PUSH1 0xE0 SHL DUP2 MSTORE PUSH1 0x0 SWAP2 SELFBALANCE SWAP2 DUP4 SWAP2 PUSH1 0x1 PUSH1 0x1 PUSH1 0xA0 SHL SUB AND SWAP1 PUSH4 0xDB006A75 SWAP1 PUSH2 0x3F4C SWAP1 DUP8 SWAP1 PUSH1 0x4 ADD PUSH2 0x4E51 JUMP JUMPDEST PUSH1 0x20 PUSH1 0x40 MLOAD DUP1 DUP4 SUB DUP2 PUSH1 0x0 DUP8 DUP1 EXTCODESIZE ISZERO DUP1 ISZERO PUSH2 0x3F66 JUMPI PUSH1 0x0 DUP1 REVERT JUMPDEST POP GAS CALL ISZERO DUP1 ISZERO PUSH2 0x3F7A JUMPI RETURNDATASIZE PUSH1 0x0 DUP1 RETURNDATACOPY RETURNDATASIZE PUSH1 0x0 REVERT JUMPDEST POP POP POP POP PUSH1 0x40 MLOAD RETURNDATASIZE PUSH1 0x1F NOT PUSH1 0x1F DUP3 ADD AND DUP3 ADD DUP1 PUSH1 0x40 MSTORE POP DUP2 ADD SWAP1 PUSH2 0x3F9E SWAP2 SWAP1 PUSH2 0x4AE9 JUMP JUMPDEST SWAP1 POP DUP1 ISZERO PUSH2 0x3FBE JUMPI PUSH1 0x40 MLOAD PUSH3 0x461BCD PUSH1 0xE5 SHL DUP2 MSTORE PUSH1 0x4 ADD PUSH2 0x308 SWAP1 PUSH2 0x4F93 JUMP JUMPDEST SELFBALANCE PUSH2 0x3FC9 DUP2 DUP5 PUSH2 0x337D JUMP JUMPDEST SWAP4 POP PUSH2 0x3E61 DUP7 DUP6 PUSH2 0x3E6B JUMP JUMPDEST PUSH1 0x0 PUSH2 0x3FF0 PUSH2 0x32F DUP6 PUSH1 0x0 ADD MLOAD PUSH2 0x3FEB DUP6 PUSH2 0x1513 JUMP JUMPDEST PUSH2 0x3CF2 JUMP JUMPDEST SWAP1 POP PUSH2 0x3FFA PUSH2 0x395C JUMP JUMPDEST SLOAD DUP5 MLOAD PUSH1 0x40 MLOAD PUSH4 0x1A4CA37B PUSH1 0xE2 SHL DUP2 MSTORE PUSH1 0x1 PUSH1 0x1 PUSH1 0xA0 SHL SUB SWAP1 SWAP3 AND SWAP2 PUSH4 0x69328DEC SWAP2 PUSH2 0x402C SWAP2 DUP6 SWAP1 DUP9 SWAP1 PUSH1 0x4 ADD PUSH2 0x4D02 JUMP JUMPDEST PUSH1 0x20 PUSH1 0x40 MLOAD DUP1 DUP4 SUB DUP2 PUSH1 0x0 DUP8 DUP1 EXTCODESIZE ISZERO DUP1 ISZERO PUSH2 0x4046 JUMPI PUSH1 0x0 DUP1 REVERT JUMPDEST POP GAS CALL ISZERO DUP1 ISZERO PUSH2 0x405A JUMPI RETURNDATASIZE PUSH1 0x0 DUP1 RETURNDATACOPY RETURNDATASIZE PUSH1 0x0 REVERT JUMPDEST POP POP POP POP PUSH1 0x40 MLOAD RETURNDATASIZE PUSH1 0x1F NOT PUSH1 0x1F DUP3 ADD AND DUP3 ADD DUP1 PUSH1 0x40 MSTORE POP DUP2 ADD SWAP1 PUSH2 0x407E SWAP2 SWAP1 PUSH2 0x4AE9 JUMP JUMPDEST POP SWAP4 SWAP3 POP POP POP JUMP JUMPDEST DUP3 MLOAD PUSH1 0x0 SWAP1 DUP2 SWAP1 PUSH2 0x409F SWAP1 ADDRESS PUSH4 0x70A08231 PUSH1 0xE0 SHL PUSH2 0x3103 JUMP JUMPDEST SWAP1 POP PUSH1 0x0 DUP7 PUSH1 0x0 ADD MLOAD PUSH1 0x1 PUSH1 0x1 PUSH1 0xA0 SHL SUB AND PUSH4 0xDB006A75 DUP6 PUSH1 0x40 MLOAD DUP3 PUSH4 0xFFFFFFFF AND PUSH1 0xE0 SHL DUP2 MSTORE PUSH1 0x4 ADD PUSH2 0x40D3 SWAP2 SWAP1 PUSH2 0x4E51 JUMP JUMPDEST PUSH1 0x20 PUSH1 0x40 MLOAD DUP1 DUP4 SUB DUP2 PUSH1 0x0 DUP8 DUP1 EXTCODESIZE ISZERO DUP1 ISZERO PUSH2 0x40ED JUMPI PUSH1 0x0 DUP1 REVERT JUMPDEST POP GAS CALL ISZERO DUP1 ISZERO PUSH2 0x4101 JUMPI RETURNDATASIZE PUSH1 0x0 DUP1 RETURNDATACOPY RETURNDATASIZE PUSH1 0x0 REVERT JUMPDEST POP POP POP POP PUSH1 0x40 MLOAD RETURNDATASIZE PUSH1 0x1F NOT PUSH1 0x1F DUP3 ADD AND DUP3 ADD DUP1 PUSH1 0x40 MSTORE POP DUP2 ADD SWAP1 PUSH2 0x4125 SWAP2 SWAP1 PUSH2 0x4AE9 JUMP JUMPDEST SWAP1 POP DUP1 ISZERO PUSH2 0x4145 JUMPI PUSH1 0x40 MLOAD PUSH3 0x461BCD PUSH1 0xE5 SHL DUP2 MSTORE PUSH1 0x4 ADD PUSH2 0x308 SWAP1 PUSH2 0x4F93 JUMP JUMPDEST DUP6 MLOAD PUSH1 0x0 SWAP1 PUSH2 0x415C SWAP1 ADDRESS PUSH4 0x70A08231 PUSH1 0xE0 SHL PUSH2 0x3103 JUMP JUMPDEST SWAP1 POP PUSH2 0x4168 DUP2 DUP5 PUSH2 0x337D JUMP JUMPDEST SWAP4 POP PUSH2 0x4179 DUP8 PUSH1 0x0 ADD MLOAD DUP8 DUP7 PUSH2 0x3EA1 JUMP JUMPDEST POP POP POP SWAP5 SWAP4 POP POP POP POP JUMP JUMPDEST PUSH1 0x0 DUP1 PUSH2 0xEE8 PUSH1 0xF PUSH2 0x27CA JUMP JUMPDEST PUSH1 0x0 DUP1 PUSH1 0x0 PUSH2 0x41A3 DUP8 PUSH2 0xFFFF AND PUSH2 0x4375 JUMP JUMPDEST SWAP1 POP PUSH2 0x41B3 DUP2 PUSH1 0xFF AND DUP8 DUP7 PUSH2 0x438B JUMP JUMPDEST SWAP1 SWAP4 POP SWAP2 POP DUP5 DUP4 GT ISZERO PUSH2 0x41D8 JUMPI PUSH1 0x40 MLOAD PUSH3 0x461BCD PUSH1 0xE5 SHL DUP2 MSTORE PUSH1 0x4 ADD PUSH2 0x308 SWAP1 PUSH2 0x5060 JUMP JUMPDEST DUP2 ISZERO PUSH2 0x41F6 JUMPI PUSH1 0x40 MLOAD PUSH3 0x461BCD PUSH1 0xE5 SHL DUP2 MSTORE PUSH1 0x4 ADD PUSH2 0x308 SWAP1 PUSH2 0x5060 JUMP JUMPDEST POP POP SWAP5 SWAP4 POP POP POP POP JUMP JUMPDEST PUSH1 0x0 DUP1 DUP3 SLT ISZERO PUSH2 0x421A JUMPI PUSH2 0x4213 DUP3 PUSH2 0x14BF JUMP JUMPDEST SWAP1 POP PUSH2 0x110F JUMP JUMPDEST POP DUP1 PUSH2 0x110F JUMP JUMPDEST PUSH1 0x0 PUSH2 0xEE8 PUSH2 0x422E PUSH2 0x395C JUMP JUMPDEST SLOAD PUSH1 0x40 MLOAD PUSH4 0xD15E0053 PUSH1 0xE0 SHL DUP2 MSTORE PUSH1 0x1 PUSH1 0x1 PUSH1 0xA0 SHL SUB SWAP1 SWAP2 AND SWAP1 PUSH4 0xD15E0053 SWAP1 PUSH2 0x425C SWAP1 DUP7 SWAP1 PUSH1 0x4 ADD PUSH2 0x4CA3 JUMP JUMPDEST PUSH1 0x20 PUSH1 0x40 MLOAD DUP1 DUP4 SUB DUP2 DUP7 DUP1 EXTCODESIZE ISZERO DUP1 ISZERO PUSH2 0x4274 JUMPI PUSH1 0x0 DUP1 REVERT JUMPDEST POP GAS STATICCALL ISZERO DUP1 ISZERO PUSH2 0x4288 JUMPI RETURNDATASIZE PUSH1 0x0 DUP1 RETURNDATACOPY RETURNDATASIZE PUSH1 0x0 REVERT JUMPDEST POP POP POP POP PUSH1 0x40 MLOAD RETURNDATASIZE PUSH1 0x1F NOT PUSH1 0x1F DUP3 ADD AND DUP3 ADD DUP1 PUSH1 0x40 MSTORE POP DUP2 ADD SWAP1 PUSH2 0x1B49 SWAP2 SWAP1 PUSH2 0x4AE9 JUMP JUMPDEST PUSH1 0x40 DUP1 MLOAD PUSH4 0x23B872DD PUSH1 0xE0 SHL DUP2 MSTORE PUSH1 0x1 PUSH1 0x1 PUSH1 0xA0 SHL SUB DUP5 DUP2 AND PUSH1 0x4 DUP4 ADD MSTORE ADDRESS PUSH1 0x24 DUP4 ADD MSTORE PUSH1 0x44 DUP3 ADD DUP5 SWAP1 MSTORE SWAP2 MLOAD SWAP2 DUP6 AND SWAP2 PUSH4 0x23B872DD SWAP2 PUSH1 0x64 DUP1 DUP3 ADD SWAP3 PUSH1 0x0 SWAP3 SWAP1 SWAP2 SWAP1 DUP3 SWAP1 SUB ADD DUP2 DUP4 DUP8 DUP1 EXTCODESIZE ISZERO DUP1 ISZERO PUSH2 0x3EF8 JUMPI PUSH1 0x0 DUP1 REVERT JUMPDEST PUSH1 0x0 PUSH2 0x430E PUSH2 0x46FB JUMP JUMPDEST RETURNDATASIZE DUP1 ISZERO PUSH2 0x4322 JUMPI PUSH1 0x20 DUP2 EQ PUSH2 0x432B JUMPI PUSH1 0x0 DUP1 REVERT JUMPDEST PUSH1 0x1 SWAP3 POP PUSH2 0x4336 JUMP JUMPDEST PUSH1 0x20 PUSH1 0x0 DUP4 RETURNDATACOPY DUP2 MLOAD SWAP3 POP JUMPDEST POP DUP2 PUSH2 0x4371 JUMPI PUSH1 0x40 DUP1 MLOAD PUSH3 0x461BCD PUSH1 0xE5 SHL DUP2 MSTORE PUSH1 0x20 PUSH1 0x4 DUP3 ADD MSTORE PUSH1 0x5 PUSH1 0x24 DUP3 ADD MSTORE PUSH5 0x455243323 PUSH1 0xDC SHL PUSH1 0x44 DUP3 ADD MSTORE SWAP1 MLOAD SWAP1 DUP2 SWAP1 SUB PUSH1 0x64 ADD SWAP1 REVERT JUMPDEST POP POP JUMP JUMPDEST PUSH1 0x0 DUP1 PUSH2 0x4381 DUP4 PUSH2 0x4453 JUMP JUMPDEST PUSH1 0xFF AND SWAP4 SWAP3 POP POP POP JUMP JUMPDEST PUSH1 0x0 DUP1 PUSH1 0x0 DUP6 GT PUSH2 0x43AE JUMPI PUSH1 0x40 MLOAD PUSH3 0x461BCD PUSH1 0xE5 SHL DUP2 MSTORE PUSH1 0x4 ADD PUSH2 0x308 SWAP1 PUSH2 0x500A JUMP JUMPDEST PUSH1 0x7 DUP6 GT ISZERO PUSH2 0x43CF JUMPI PUSH1 0x40 MLOAD PUSH3 0x461BCD PUSH1 0xE5 SHL DUP2 MSTORE PUSH1 0x4 ADD PUSH2 0x308 SWAP1 PUSH2 0x510E JUMP JUMPDEST PUSH1 0x0 PUSH2 0x43DA DUP5 PUSH2 0x4470 JUMP JUMPDEST SWAP1 POP PUSH1 0x1 JUMPDEST DUP7 DUP2 GT PUSH2 0x4432 JUMPI PUSH1 0x0 PUSH2 0x43FB PUSH2 0x43F4 DUP4 PUSH2 0x448E JUMP JUMPDEST DUP5 SWAP1 PUSH2 0x4532 JUMP JUMPDEST SWAP1 POP DUP7 DUP2 EQ ISZERO PUSH2 0x4413 JUMPI POP SWAP3 POP PUSH1 0x0 SWAP2 POP PUSH2 0x444B SWAP1 POP JUMP JUMPDEST DUP7 DUP2 GT ISZERO PUSH2 0x4429 JUMPI POP SWAP3 POP PUSH1 0x1 SWAP2 POP PUSH2 0x444B SWAP1 POP JUMP JUMPDEST POP PUSH1 0x1 ADD PUSH2 0x43DF JUMP JUMPDEST POP PUSH1 0x40 MLOAD PUSH3 0x461BCD PUSH1 0xE5 SHL DUP2 MSTORE PUSH1 0x4 ADD PUSH2 0x308 SWAP1 PUSH2 0x52A4 JUMP JUMPDEST SWAP4 POP SWAP4 SWAP2 POP POP JUMP JUMPDEST PUSH1 0x0 DUP1 PUSH2 0x445E PUSH2 0x458C JUMP JUMPDEST PUSH1 0x0 SWAP4 DUP5 MSTORE PUSH1 0x20 MSTORE POP POP PUSH1 0x40 SWAP1 KECCAK256 SLOAD SWAP1 JUMP JUMPDEST PUSH1 0x0 PUSH3 0x76A700 DUP3 LT ISZERO PUSH2 0x4482 JUMPI PUSH1 0x0 DUP1 REVERT JUMPDEST POP PUSH3 0x76A700 DUP2 MOD SWAP1 SUB SWAP1 JUMP JUMPDEST PUSH1 0x0 DUP2 PUSH1 0x1 EQ ISZERO PUSH2 0x44A3 JUMPI POP PUSH3 0x76A700 PUSH2 0x110F JUMP JUMPDEST DUP2 PUSH1 0x2 EQ ISZERO PUSH2 0x44B6 JUMPI POP PUSH3 0xED4E00 PUSH2 0x110F JUMP JUMPDEST DUP2 PUSH1 0x3 EQ ISZERO PUSH2 0x44CA JUMPI POP PUSH4 0x1DA9C00 PUSH2 0x110F JUMP JUMPDEST DUP2 PUSH1 0x4 EQ ISZERO PUSH2 0x44DE JUMPI POP PUSH4 0x3B53800 PUSH2 0x110F JUMP JUMPDEST DUP2 PUSH1 0x5 EQ ISZERO PUSH2 0x44F2 JUMPI POP PUSH4 0x9450C00 PUSH2 0x110F JUMP JUMPDEST DUP2 PUSH1 0x6 EQ ISZERO PUSH2 0x4506 JUMPI POP PUSH4 0x128A1800 PUSH2 0x110F JUMP JUMPDEST DUP2 PUSH1 0x7 EQ ISZERO PUSH2 0x451A JUMPI POP PUSH4 0x25143000 PUSH2 0x110F JUMP JUMPDEST PUSH1 0x40 MLOAD PUSH3 0x461BCD PUSH1 0xE5 SHL DUP2 MSTORE PUSH1 0x4 ADD PUSH2 0x308 SWAP1 PUSH2 0x5039 JUMP JUMPDEST PUSH1 0x0 DUP3 DUP3 ADD DUP4 DUP2 LT ISZERO PUSH2 0x883 JUMPI PUSH1 0x40 DUP1 MLOAD PUSH3 0x461BCD PUSH1 0xE5 SHL DUP2 MSTORE PUSH1 0x20 PUSH1 0x4 DUP3 ADD MSTORE PUSH1 0x1B PUSH1 0x24 DUP3 ADD MSTORE PUSH32 0x536166654D6174683A206164646974696F6E206F766572666C6F770000000000 PUSH1 0x44 DUP3 ADD MSTORE SWAP1 MLOAD SWAP1 DUP2 SWAP1 SUB PUSH1 0x64 ADD SWAP1 REVERT JUMPDEST PUSH1 0x0 DUP1 PUSH2 0xEE8 PUSH1 0x9 PUSH2 0x27CA JUMP JUMPDEST PUSH1 0x40 MLOAD DUP1 PUSH1 0x40 ADD PUSH1 0x40 MSTORE DUP1 PUSH1 0x2 SWAP1 PUSH1 0x20 DUP3 MUL DUP1 CALLDATASIZE DUP4 CALLDATACOPY POP SWAP2 SWAP3 SWAP2 POP POP JUMP JUMPDEST PUSH1 0x40 MLOAD DUP1 PUSH1 0xE0 ADD PUSH1 0x40 MSTORE DUP1 PUSH1 0x0 DUP2 MSTORE PUSH1 0x20 ADD PUSH1 0x0 DUP2 MSTORE PUSH1 0x20 ADD PUSH1 0x0 ISZERO ISZERO DUP2 MSTORE PUSH1 0x20 ADD PUSH1 0x0 DUP2 MSTORE PUSH1 0x20 ADD PUSH1 0x0 DUP2 MSTORE PUSH1 0x20 ADD PUSH1 0x0 DUP2 MSTORE PUSH1 0x20 ADD PUSH1 0x0 DUP2 MSTORE POP SWAP1 JUMP JUMPDEST PUSH1 0x40 MLOAD DUP1 PUSH2 0x180 ADD PUSH1 0x40 MSTORE DUP1 PUSH1 0x0 PUSH1 0x1 PUSH1 0x1 PUSH1 0xA0 SHL SUB AND DUP2 MSTORE PUSH1 0x20 ADD PUSH1 0x0 PUSH2 0xFFFF AND DUP2 MSTORE PUSH1 0x20 ADD PUSH1 0x0 PUSH2 0xFFFF AND DUP2 MSTORE PUSH1 0x20 ADD PUSH1 0x0 DUP2 MSTORE PUSH1 0x20 ADD PUSH1 0x0 DUP2 MSTORE PUSH1 0x20 ADD PUSH1 0x0 DUP2 MSTORE PUSH1 0x20 ADD PUSH1 0x0 DUP2 MSTORE PUSH1 0x20 ADD PUSH1 0x0 DUP2 MSTORE PUSH1 0x20 ADD PUSH1 0x0 DUP2 MSTORE PUSH1 0x20 ADD PUSH1 0x0 DUP2 MSTORE PUSH1 0x20 ADD PUSH2 0x4661 PUSH2 0x4599 JUMP JUMPDEST DUP2 MSTORE PUSH1 0x20 ADD PUSH2 0x466E PUSH2 0x46A2 JUMP JUMPDEST SWAP1 MSTORE SWAP1 JUMP JUMPDEST PUSH1 0x40 DUP1 MLOAD PUSH1 0xA0 DUP2 ADD DUP3 MSTORE PUSH1 0x0 DUP1 DUP3 MSTORE PUSH1 0x20 DUP3 ADD DUP2 SWAP1 MSTORE SWAP2 DUP2 ADD DUP3 SWAP1 MSTORE SWAP1 PUSH1 0x60 DUP3 ADD SWAP1 DUP2 MSTORE PUSH1 0x20 ADD PUSH1 0x0 DUP2 MSTORE POP SWAP1 JUMP JUMPDEST PUSH1 0x40 MLOAD DUP1 PUSH1 0x60 ADD PUSH1 0x40 MSTORE DUP1 PUSH1 0x0 PUSH1 0x1 PUSH1 0x1 PUSH1 0xA0 SHL SUB AND DUP2 MSTORE PUSH1 0x20 ADD PUSH1 0x0 DUP2 MSTORE PUSH1 0x20 ADD PUSH1 0x0 DUP2 MSTORE POP SWAP1 JUMP JUMPDEST PUSH1 0x40 MLOAD DUP1 PUSH1 0xA0 ADD PUSH1 0x40 MSTORE DUP1 PUSH1 0x0 DUP2 MSTORE PUSH1 0x20 ADD PUSH1 0x0 DUP2 MSTORE PUSH1 0x20 ADD PUSH1 0x0 DUP2 MSTORE PUSH1 0x20 ADD PUSH1 0x0 DUP2 MSTORE PUSH1 0x20 ADD PUSH1 0x0 DUP2 MSTORE POP SWAP1 JUMP JUMPDEST PUSH1 0x40 MLOAD DUP1 PUSH1 0x20 ADD PUSH1 0x40 MSTORE DUP1 PUSH1 0x1 SWAP1 PUSH1 0x20 DUP3 MUL DUP1 CALLDATASIZE DUP4 CALLDATACOPY POP SWAP2 SWAP3 SWAP2 POP POP JUMP JUMPDEST DUP1 CALLDATALOAD PUSH1 0x1 PUSH1 0x1 PUSH1 0xA0 SHL SUB DUP2 AND DUP2 EQ PUSH2 0x110F JUMPI PUSH1 0x0 DUP1 REVERT JUMPDEST DUP1 PUSH1 0x40 DUP2 ADD DUP4 LT ISZERO PUSH2 0xEE8 JUMPI PUSH1 0x0 DUP1 REVERT JUMPDEST PUSH1 0x0 DUP1 DUP4 PUSH1 0x1F DUP5 ADD SLT PUSH2 0x4752 JUMPI DUP2 DUP3 REVERT JUMPDEST POP DUP2 CALLDATALOAD PUSH8 0xFFFFFFFFFFFFFFFF DUP2 GT ISZERO PUSH2 0x4769 JUMPI DUP2 DUP3 REVERT JUMPDEST PUSH1 0x20 DUP4 ADD SWAP2 POP DUP4 PUSH1 0x20 DUP3 DUP6 ADD ADD GT ISZERO PUSH2 0xB51 JUMPI PUSH1 0x0 DUP1 REVERT JUMPDEST PUSH1 0x0 PUSH1 0x20 DUP3 DUP5 SUB SLT ISZERO PUSH2 0x4792 JUMPI DUP1 DUP2 REVERT JUMPDEST PUSH2 0x883 DUP3 PUSH2 0x4719 JUMP JUMPDEST PUSH1 0x0 DUP1 PUSH1 0x40 DUP4 DUP6 SUB SLT ISZERO PUSH2 0x47AD JUMPI DUP1 DUP2 REVERT JUMPDEST PUSH2 0x47B6 DUP4 PUSH2 0x4719 JUMP JUMPDEST SWAP2 POP PUSH1 0x20 DUP4 ADD CALLDATALOAD DUP1 ISZERO ISZERO DUP2 EQ PUSH2 0x47CA JUMPI DUP2 DUP3 REVERT JUMPDEST DUP1 SWAP2 POP POP SWAP3 POP SWAP3 SWAP1 POP JUMP JUMPDEST PUSH1 0x0 DUP1 PUSH1 0x0 DUP4 DUP6 SUB PUSH2 0x1A0 DUP2 SLT ISZERO PUSH2 0x47EB JUMPI DUP2 DUP3 REVERT JUMPDEST PUSH2 0x47F4 DUP6 PUSH2 0x4719 JUMP JUMPDEST SWAP4 POP PUSH2 0x160 PUSH1 0x1F NOT DUP3 ADD SLT ISZERO PUSH2 0x4808 JUMPI DUP2 DUP3 REVERT JUMPDEST POP PUSH1 0x20 DUP5 ADD SWAP2 POP PUSH2 0x180 DUP5 ADD CALLDATALOAD PUSH2 0x481E DUP2 PUSH2 0x56D6 JUMP JUMPDEST DUP1 SWAP2 POP POP SWAP3 POP SWAP3 POP SWAP3 JUMP JUMPDEST PUSH1 0x0 DUP1 PUSH1 0x40 DUP4 DUP6 SUB SLT ISZERO PUSH2 0x483B JUMPI DUP2 DUP3 REVERT JUMPDEST PUSH2 0x4844 DUP4 PUSH2 0x4719 JUMP JUMPDEST SWAP2 POP PUSH1 0x20 DUP4 ADD CALLDATALOAD PUSH2 0x47CA DUP2 PUSH2 0x56A2 JUMP JUMPDEST PUSH1 0x0 DUP1 PUSH1 0x0 PUSH1 0x60 DUP5 DUP7 SUB SLT ISZERO PUSH2 0x4868 JUMPI DUP3 DUP4 REVERT JUMPDEST PUSH2 0x4871 DUP5 PUSH2 0x4719 JUMP JUMPDEST SWAP3 POP PUSH1 0x20 DUP5 ADD CALLDATALOAD PUSH2 0x4881 DUP2 PUSH2 0x56A2 JUMP JUMPDEST SWAP3 SWAP6 SWAP3 SWAP5 POP POP POP PUSH1 0x40 SWAP2 SWAP1 SWAP2 ADD CALLDATALOAD SWAP1 JUMP JUMPDEST PUSH1 0x0 DUP1 PUSH1 0x0 DUP1 PUSH1 0x0 DUP1 PUSH1 0x0 PUSH1 0xC0 DUP9 DUP11 SUB SLT ISZERO PUSH2 0x48AC JUMPI DUP3 DUP4 REVERT JUMPDEST PUSH2 0x48B5 DUP9 PUSH2 0x4719 JUMP JUMPDEST SWAP7 POP PUSH1 0x20 DUP9 ADD CALLDATALOAD PUSH2 0x48C5 DUP2 PUSH2 0x56A2 JUMP JUMPDEST SWAP6 POP PUSH1 0x40 DUP9 ADD CALLDATALOAD SWAP5 POP PUSH1 0x60 DUP9 ADD CALLDATALOAD SWAP4 POP PUSH1 0x80 DUP9 ADD CALLDATALOAD PUSH2 0x48E3 DUP2 PUSH2 0x56B5 JUMP JUMPDEST SWAP3 POP PUSH1 0xA0 DUP9 ADD CALLDATALOAD PUSH8 0xFFFFFFFFFFFFFFFF DUP2 GT ISZERO PUSH2 0x48FE JUMPI DUP3 DUP4 REVERT JUMPDEST PUSH2 0x490A DUP11 DUP3 DUP12 ADD PUSH2 0x4741 JUMP JUMPDEST SWAP9 SWAP12 SWAP8 SWAP11 POP SWAP6 SWAP9 POP SWAP4 SWAP7 SWAP3 SWAP6 SWAP3 SWAP4 POP POP POP JUMP JUMPDEST PUSH1 0x0 DUP1 PUSH1 0x0 PUSH1 0x60 DUP5 DUP7 SUB SLT ISZERO PUSH2 0x4931 JUMPI DUP3 DUP4 REVERT JUMPDEST PUSH2 0x493A DUP5 PUSH2 0x4719 JUMP JUMPDEST SWAP3 POP PUSH1 0x20 DUP5 ADD CALLDATALOAD PUSH2 0x494A DUP2 PUSH2 0x56A2 JUMP JUMPDEST SWAP2 POP PUSH1 0x40 DUP5 ADD CALLDATALOAD PUSH2 0x481E DUP2 PUSH2 0x56D6 JUMP JUMPDEST PUSH1 0x0 DUP1 PUSH1 0x40 DUP4 DUP6 SUB SLT ISZERO PUSH2 0x496C JUMPI DUP2 DUP3 REVERT JUMPDEST PUSH2 0x4975 DUP4 PUSH2 0x4719 JUMP JUMPDEST SWAP5 PUSH1 0x20 SWAP4 SWAP1 SWAP4 ADD CALLDATALOAD SWAP4 POP POP POP JUMP JUMPDEST PUSH1 0x0 DUP1 PUSH1 0x0 DUP1 PUSH1 0x0 PUSH2 0x100 DUP7 DUP9 SUB SLT ISZERO PUSH2 0x499B JUMPI DUP3 DUP4 REVERT JUMPDEST PUSH2 0x49A4 DUP7 PUSH2 0x4719 JUMP JUMPDEST SWAP5 POP PUSH1 0x20 DUP7 ADD CALLDATALOAD SWAP4 POP PUSH2 0x49BA DUP8 PUSH1 0x40 DUP9 ADD PUSH2 0x4730 JUMP JUMPDEST SWAP3 POP PUSH2 0x49C9 DUP8 PUSH1 0x80 DUP9 ADD PUSH2 0x4730 JUMP JUMPDEST SWAP2 POP PUSH2 0x49D8 DUP8 PUSH1 0xC0 DUP9 ADD PUSH2 0x4730 JUMP JUMPDEST SWAP1 POP SWAP3 SWAP6 POP SWAP3 SWAP6 SWAP1 SWAP4 POP JUMP JUMPDEST PUSH1 0x0 DUP1 PUSH1 0x0 DUP1 PUSH1 0x0 DUP1 PUSH1 0xA0 DUP8 DUP10 SUB SLT ISZERO PUSH2 0x49FC JUMPI DUP4 DUP5 REVERT JUMPDEST PUSH2 0x4A05 DUP8 PUSH2 0x4719 JUMP JUMPDEST SWAP6 POP PUSH1 0x20 DUP8 ADD CALLDATALOAD PUSH2 0x4A15 DUP2 PUSH2 0x56D6 JUMP JUMPDEST SWAP5 POP PUSH1 0x40 DUP8 ADD CALLDATALOAD SWAP4 POP PUSH1 0x60 DUP8 ADD CALLDATALOAD SWAP3 POP PUSH1 0x80 DUP8 ADD CALLDATALOAD PUSH8 0xFFFFFFFFFFFFFFFF DUP2 GT ISZERO PUSH2 0x4A3E JUMPI DUP3 DUP4 REVERT JUMPDEST PUSH2 0x4A4A DUP10 DUP3 DUP11 ADD PUSH2 0x4741 JUMP JUMPDEST SWAP8 SWAP11 SWAP7 SWAP10 POP SWAP5 SWAP8 POP SWAP3 SWAP6 SWAP4 SWAP5 SWAP3 POP POP POP JUMP JUMPDEST PUSH1 0x0 PUSH1 0x20 DUP3 DUP5 SUB SLT ISZERO PUSH2 0x4A6D JUMPI DUP1 DUP2 REVERT JUMPDEST DUP2 MLOAD PUSH8 0xFFFFFFFFFFFFFFFF DUP1 DUP3 GT ISZERO PUSH2 0x4A84 JUMPI DUP3 DUP4 REVERT JUMPDEST DUP2 DUP5 ADD SWAP2 POP DUP5 PUSH1 0x1F DUP4 ADD SLT PUSH2 0x4A97 JUMPI DUP3 DUP4 REVERT JUMPDEST DUP2 MLOAD DUP2 DUP2 GT ISZERO PUSH2 0x4AA3 JUMPI INVALID JUMPDEST PUSH1 0x40 MLOAD PUSH1 0x1F DUP3 ADD PUSH1 0x1F NOT AND DUP2 ADD PUSH1 0x20 ADD DUP4 DUP2 GT DUP3 DUP3 LT OR ISZERO PUSH2 0x4AC1 JUMPI INVALID JUMPDEST PUSH1 0x40 MSTORE DUP2 DUP2 MSTORE DUP4 DUP3 ADD PUSH1 0x20 ADD DUP8 LT ISZERO PUSH2 0x4AD8 JUMPI DUP5 DUP6 REVERT JUMPDEST PUSH2 0x114C DUP3 PUSH1 0x20 DUP4 ADD PUSH1 0x20 DUP8 ADD PUSH2 0x5489 JUMP JUMPDEST PUSH1 0x0 PUSH1 0x20 DUP3 DUP5 SUB SLT ISZERO PUSH2 0x4AFA JUMPI DUP1 DUP2 REVERT JUMPDEST POP MLOAD SWAP2 SWAP1 POP JUMP JUMPDEST PUSH1 0x0 PUSH1 0x20 DUP3 DUP5 SUB SLT ISZERO PUSH2 0x4B12 JUMPI DUP1 DUP2 REVERT JUMPDEST DUP2 CALLDATALOAD PUSH2 0x883 DUP2 PUSH2 0x56A2 JUMP JUMPDEST PUSH1 0x0 PUSH1 0x20 DUP3 DUP5 SUB SLT ISZERO PUSH2 0x4B2E JUMPI DUP1 DUP2 REVERT JUMPDEST POP CALLDATALOAD SWAP2 SWAP1 POP JUMP JUMPDEST PUSH1 0x0 DUP1 PUSH1 0x0 DUP1 PUSH1 0x60 DUP6 DUP8 SUB SLT ISZERO PUSH2 0x4B4A JUMPI DUP2 DUP3 REVERT JUMPDEST DUP5 CALLDATALOAD SWAP4 POP PUSH1 0x20 DUP6 ADD CALLDATALOAD SWAP3 POP PUSH1 0x40 DUP6 ADD CALLDATALOAD PUSH8 0xFFFFFFFFFFFFFFFF DUP2 GT ISZERO PUSH2 0x4B6E JUMPI DUP3 DUP4 REVERT JUMPDEST PUSH2 0x4B7A DUP8 DUP3 DUP9 ADD PUSH2 0x4741 JUMP JUMPDEST SWAP6 SWAP9 SWAP5 SWAP8 POP SWAP6 POP POP POP POP JUMP JUMPDEST PUSH1 0x0 PUSH1 0x20 DUP3 DUP5 SUB SLT ISZERO PUSH2 0x4B97 JUMPI DUP1 DUP2 REVERT JUMPDEST DUP2 CALLDATALOAD PUSH2 0x883 DUP2 PUSH2 0x56B5 JUMP JUMPDEST PUSH1 0x0 PUSH1 0x20 DUP3 DUP5 SUB SLT ISZERO PUSH2 0x4BB3 JUMPI DUP1 DUP2 REVERT JUMPDEST DUP2 CALLDATALOAD PUSH2 0x883 DUP2 PUSH2 0x56C7 JUMP JUMPDEST PUSH1 0x0 DUP1 PUSH1 0x0 DUP1 PUSH1 0x0 PUSH1 0xA0 DUP7 DUP9 SUB SLT ISZERO PUSH2 0x4BD5 JUMPI DUP3 DUP4 REVERT JUMPDEST DUP6 MLOAD PUSH2 0x4BE0 DUP2 PUSH2 0x56D6 JUMP JUMPDEST DUP1 SWAP6 POP POP PUSH1 0x20 DUP7 ADD MLOAD SWAP4 POP PUSH1 0x40 DUP7 ADD MLOAD SWAP3 POP PUSH1 0x60 DUP7 ADD MLOAD SWAP2 POP PUSH1 0x80 DUP7 ADD MLOAD PUSH2 0x4C07 DUP2 PUSH2 0x56D6 JUMP JUMPDEST DUP1 SWAP2 POP POP SWAP3 SWAP6 POP SWAP3 SWAP6 SWAP1 SWAP4 POP JUMP JUMPDEST PUSH1 0x1 PUSH1 0x1 PUSH1 0xA0 SHL SUB AND SWAP1 MSTORE JUMP JUMPDEST DUP1 PUSH1 0x0 JUMPDEST PUSH1 0x2 DUP2 LT ISZERO PUSH2 0x4C49 JUMPI DUP2 MLOAD PUSH2 0xFFFF AND DUP5 MSTORE PUSH1 0x20 SWAP4 DUP5 ADD SWAP4 SWAP1 SWAP2 ADD SWAP1 PUSH1 0x1 ADD PUSH2 0x4C26 JUMP JUMPDEST POP POP POP POP JUMP JUMPDEST PUSH1 0x0 DUP3 DUP5 MSTORE DUP3 DUP3 PUSH1 0x20 DUP7 ADD CALLDATACOPY DUP1 PUSH1 0x20 DUP5 DUP7 ADD ADD MSTORE PUSH1 0x20 PUSH1 0x1F NOT PUSH1 0x1F DUP6 ADD AND DUP6 ADD ADD SWAP1 POP SWAP4 SWAP3 POP POP POP JUMP JUMPDEST DUP1 MLOAD PUSH1 0x1 PUSH1 0x1 PUSH1 0xA0 SHL SUB AND DUP3 MSTORE PUSH1 0x20 DUP1 DUP3 ADD MLOAD SWAP1 DUP4 ADD MSTORE PUSH1 0x40 SWAP1 DUP2 ADD MLOAD SWAP2 ADD MSTORE JUMP JUMPDEST PUSH2 0xFFFF AND SWAP1 MSTORE JUMP JUMPDEST PUSH1 0x1 PUSH1 0x1 PUSH1 0xA0 SHL SUB SWAP2 SWAP1 SWAP2 AND DUP2 MSTORE PUSH1 0x20 ADD SWAP1 JUMP JUMPDEST PUSH1 0x0 PUSH1 0x1 DUP1 PUSH1 0xA0 SHL SUB DUP1 DUP11 AND DUP4 MSTORE DUP1 DUP10 AND PUSH1 0x20 DUP5 ADD MSTORE POP DUP7 PUSH1 0x40 DUP4 ADD MSTORE DUP6 PUSH1 0x60 DUP4 ADD MSTORE DUP5 PUSH1 0x80 DUP4 ADD MSTORE PUSH1 0xC0 PUSH1 0xA0 DUP4 ADD MSTORE PUSH2 0x4CF5 PUSH1 0xC0 DUP4 ADD DUP5 DUP7 PUSH2 0x4C4F JUMP JUMPDEST SWAP10 SWAP9 POP POP POP POP POP POP POP POP POP JUMP JUMPDEST PUSH1 0x1 PUSH1 0x1 PUSH1 0xA0 SHL SUB SWAP4 DUP5 AND DUP2 MSTORE PUSH1 0x20 DUP2 ADD SWAP3 SWAP1 SWAP3 MSTORE SWAP1 SWAP2 AND PUSH1 0x40 DUP3 ADD MSTORE PUSH1 0x60 ADD SWAP1 JUMP JUMPDEST PUSH1 0x1 PUSH1 0x1 PUSH1 0xA0 SHL SUB SWAP5 DUP6 AND DUP2 MSTORE PUSH1 0x20 DUP2 ADD SWAP4 SWAP1 SWAP4 MSTORE SWAP3 AND PUSH1 0x40 DUP3 ADD MSTORE PUSH2 0xFFFF SWAP1 SWAP2 AND PUSH1 0x60 DUP3 ADD MSTORE PUSH1 0x80 ADD SWAP1 JUMP JUMPDEST PUSH1 0x0 PUSH1 0x1 DUP1 PUSH1 0xA0 SHL SUB DUP7 AND DUP3 MSTORE DUP5 PUSH1 0x20 DUP4 ADD MSTORE PUSH1 0x60 PUSH1 0x40 DUP4 ADD MSTORE PUSH2 0x114C PUSH1 0x60 DUP4 ADD DUP5 DUP7 PUSH2 0x4C4F JUMP JUMPDEST PUSH1 0x1 PUSH1 0x1 PUSH1 0xA0 SHL SUB SWAP4 SWAP1 SWAP4 AND DUP4 MSTORE PUSH1 0x20 DUP4 ADD SWAP2 SWAP1 SWAP2 MSTORE PUSH1 0x40 DUP3 ADD MSTORE PUSH1 0x60 ADD SWAP1 JUMP JUMPDEST PUSH1 0x0 PUSH1 0x1 DUP1 PUSH1 0xA0 SHL SUB DUP8 AND DUP3 MSTORE DUP6 PUSH1 0x20 DUP4 ADD MSTORE DUP5 PUSH1 0x40 DUP4 ADD MSTORE PUSH1 0x80 PUSH1 0x60 DUP4 ADD MSTORE PUSH2 0x11C5 PUSH1 0x80 DUP4 ADD DUP5 DUP7 PUSH2 0x4C4F JUMP JUMPDEST PUSH1 0x40 DUP2 ADD DUP2 DUP4 PUSH1 0x0 JUMPDEST PUSH1 0x2 DUP2 LT ISZERO PUSH2 0x4DF1 JUMPI DUP2 MLOAD DUP4 MSTORE PUSH1 0x20 SWAP3 DUP4 ADD SWAP3 SWAP1 SWAP2 ADD SWAP1 PUSH1 0x1 ADD PUSH2 0x4DD2 JUMP JUMPDEST POP POP POP SWAP3 SWAP2 POP POP JUMP JUMPDEST SWAP1 ISZERO ISZERO DUP2 MSTORE PUSH1 0x20 ADD SWAP1 JUMP JUMPDEST SWAP2 ISZERO ISZERO DUP3 MSTORE PUSH1 0x1 PUSH1 0x1 PUSH1 0x50 SHL SUB AND PUSH1 0x20 DUP3 ADD MSTORE PUSH1 0x40 ADD SWAP1 JUMP JUMPDEST PUSH1 0x0 PUSH1 0x20 DUP3 MSTORE DUP3 MLOAD DUP1 PUSH1 0x20 DUP5 ADD MSTORE PUSH2 0x4E3D DUP2 PUSH1 0x40 DUP6 ADD PUSH1 0x20 DUP8 ADD PUSH2 0x5489 JUMP JUMPDEST PUSH1 0x1F ADD PUSH1 0x1F NOT AND SWAP2 SWAP1 SWAP2 ADD PUSH1 0x40 ADD SWAP3 SWAP2 POP POP JUMP JUMPDEST SWAP1 DUP2 MSTORE PUSH1 0x20 ADD SWAP1 JUMP JUMPDEST SWAP2 DUP3 MSTORE PUSH1 0x20 DUP3 ADD MSTORE PUSH1 0x40 ADD SWAP1 JUMP JUMPDEST SWAP4 DUP5 MSTORE PUSH1 0x20 DUP5 ADD SWAP3 SWAP1 SWAP3 MSTORE PUSH1 0x40 DUP4 ADD MSTORE PUSH1 0x60 DUP3 ADD MSTORE PUSH1 0x80 ADD SWAP1 JUMP JUMPDEST SWAP5 DUP6 MSTORE PUSH1 0x20 DUP6 ADD SWAP4 SWAP1 SWAP4 MSTORE PUSH1 0x40 DUP5 ADD SWAP2 SWAP1 SWAP2 MSTORE PUSH1 0x60 DUP4 ADD MSTORE PUSH1 0x80 DUP3 ADD MSTORE PUSH1 0xA0 ADD SWAP1 JUMP JUMPDEST PUSH1 0x20 DUP1 DUP3 MSTORE PUSH1 0x1A SWAP1 DUP3 ADD MSTORE PUSH32 0x496E76616C6964205365636F6E64617279204D61747572697479000000000000 PUSH1 0x40 DUP3 ADD MSTORE PUSH1 0x60 ADD SWAP1 JUMP JUMPDEST PUSH1 0x20 DUP1 DUP3 MSTORE PUSH1 0xD SWAP1 DUP3 ADD MSTORE PUSH13 0x109BDC9C9BDDC811985A5B1959 PUSH1 0x9A SHL PUSH1 0x40 DUP3 ADD MSTORE PUSH1 0x60 ADD SWAP1 JUMP JUMPDEST PUSH1 0x20 DUP1 DUP3 MSTORE PUSH1 0x11 SWAP1 DUP3 ADD MSTORE PUSH17 0x52656465656D20616C6C20746F6B656E73 PUSH1 0x78 SHL PUSH1 0x40 DUP3 ADD MSTORE PUSH1 0x60 ADD SWAP1 JUMP JUMPDEST PUSH1 0x20 DUP1 DUP3 MSTORE PUSH1 0x6 SWAP1 DUP3 ADD MSTORE PUSH6 0x14185D5CD959 PUSH1 0xD2 SHL PUSH1 0x40 DUP3 ADD MSTORE PUSH1 0x60 ADD SWAP1 JUMP JUMPDEST PUSH1 0x20 DUP1 DUP3 MSTORE PUSH1 0xC SWAP1 DUP3 ADD MSTORE PUSH12 0x155B985D5D1A1BDC9A5E9959 PUSH1 0xA2 SHL PUSH1 0x40 DUP3 ADD MSTORE PUSH1 0x60 ADD SWAP1 JUMP JUMPDEST PUSH1 0x20 DUP1 DUP3 MSTORE PUSH1 0x4 SWAP1 DUP3 ADD MSTORE PUSH4 0x135A5B9D PUSH1 0xE2 SHL PUSH1 0x40 DUP3 ADD MSTORE PUSH1 0x60 ADD SWAP1 JUMP JUMPDEST PUSH1 0x20 DUP1 DUP3 MSTORE PUSH1 0x6 SWAP1 DUP3 ADD MSTORE PUSH6 0x52656465656D PUSH1 0xD0 SHL PUSH1 0x40 DUP3 ADD MSTORE PUSH1 0x60 ADD SWAP1 JUMP JUMPDEST PUSH1 0x20 DUP1 DUP3 MSTORE PUSH1 0xD SWAP1 DUP3 ADD MSTORE PUSH13 0x556E7061696420426F72726F77 PUSH1 0x98 SHL PUSH1 0x40 DUP3 ADD MSTORE PUSH1 0x60 ADD SWAP1 JUMP JUMPDEST PUSH1 0x20 DUP1 DUP3 MSTORE PUSH1 0x16 SWAP1 DUP3 ADD MSTORE PUSH22 0x125B9CDD59999A58DA595B9D081C995C185E5B595B9D PUSH1 0x52 SHL PUSH1 0x40 DUP3 ADD MSTORE PUSH1 0x60 ADD SWAP1 JUMP JUMPDEST PUSH1 0x20 DUP1 DUP3 MSTORE PUSH1 0x15 SWAP1 DUP3 ADD MSTORE PUSH21 0x10D1CE881B9BC81B585C9AD95D1CC81B1A5CDD1959 PUSH1 0x5A SHL PUSH1 0x40 DUP3 ADD MSTORE PUSH1 0x60 ADD SWAP1 JUMP JUMPDEST PUSH1 0x20 DUP1 DUP3 MSTORE PUSH1 0xD SWAP1 DUP3 ADD MSTORE PUSH13 0x92DCECC2D8D2C840D2DCC8CAF PUSH1 0x9B SHL PUSH1 0x40 DUP3 ADD MSTORE PUSH1 0x60 ADD SWAP1 JUMP JUMPDEST PUSH1 0x20 DUP1 DUP3 MSTORE PUSH1 0x10 SWAP1 DUP3 ADD MSTORE PUSH16 0x496E76616C6964204D61747572697479 PUSH1 0x80 SHL PUSH1 0x40 DUP3 ADD MSTORE PUSH1 0x60 ADD SWAP1 JUMP JUMPDEST PUSH1 0x20 DUP1 DUP3 MSTORE PUSH1 0x1D SWAP1 DUP3 ADD MSTORE PUSH32 0x496E73756666696369656E74205365636F6E6461727920426F72726F77000000 PUSH1 0x40 DUP3 ADD MSTORE PUSH1 0x60 ADD SWAP1 JUMP JUMPDEST PUSH1 0x20 DUP1 DUP3 MSTORE PUSH1 0xD SWAP1 DUP3 ADD MSTORE PUSH13 0x43616E6E6F7420536574746C65 PUSH1 0x98 SHL PUSH1 0x40 DUP3 ADD MSTORE PUSH1 0x60 ADD SWAP1 JUMP JUMPDEST PUSH1 0x20 DUP1 DUP3 MSTORE PUSH1 0xC SWAP1 DUP3 ADD MSTORE PUSH12 0x4D6178204361706163697479 PUSH1 0xA0 SHL PUSH1 0x40 DUP3 ADD MSTORE PUSH1 0x60 ADD SWAP1 JUMP JUMPDEST PUSH1 0x20 DUP1 DUP3 MSTORE PUSH1 0x16 SWAP1 DUP3 ADD MSTORE PUSH22 0x10D1CE881B585C9AD95D081A5B99195E08189BDD5B99 PUSH1 0x52 SHL PUSH1 0x40 DUP3 ADD MSTORE PUSH1 0x60 ADD SWAP1 JUMP JUMPDEST PUSH1 0x20 DUP1 DUP3 MSTORE PUSH1 0x10 SWAP1 DUP3 ADD MSTORE PUSH16 0x496E76616C69642043757272656E6379 PUSH1 0x80 SHL PUSH1 0x40 DUP3 ADD MSTORE PUSH1 0x60 ADD SWAP1 JUMP JUMPDEST PUSH1 0x20 DUP1 DUP3 MSTORE PUSH1 0x15 SWAP1 DUP3 ADD MSTORE PUSH21 0x10D85B9B9BDD0814995CD95D0814DB985C1CDA1BDD PUSH1 0x5A SHL PUSH1 0x40 DUP3 ADD MSTORE PUSH1 0x60 ADD SWAP1 JUMP JUMPDEST PUSH1 0x20 DUP1 DUP3 MSTORE DUP2 DUP2 ADD MSTORE PUSH32 0x4F776E61626C653A2063616C6C6572206973206E6F7420746865206F776E6572 PUSH1 0x40 DUP3 ADD MSTORE PUSH1 0x60 ADD SWAP1 JUMP JUMPDEST PUSH1 0x20 DUP1 DUP3 MSTORE PUSH1 0xD SWAP1 DUP3 ADD MSTORE PUSH13 0x125B8814D95D1D1B195B595B9D PUSH1 0x9A SHL PUSH1 0x40 DUP3 ADD MSTORE PUSH1 0x60 ADD SWAP1 JUMP JUMPDEST PUSH1 0x20 DUP1 DUP3 MSTORE PUSH1 0x17 SWAP1 DUP3 ADD MSTORE PUSH32 0x496E73756666696369656E7420436F6C6C61746572616C000000000000000000 PUSH1 0x40 DUP3 ADD MSTORE PUSH1 0x60 ADD SWAP1 JUMP JUMPDEST PUSH1 0x20 DUP1 DUP3 MSTORE PUSH1 0xC SWAP1 DUP3 ADD MSTORE PUSH12 0x496E76616C69642072617465 PUSH1 0xA0 SHL PUSH1 0x40 DUP3 ADD MSTORE PUSH1 0x60 ADD SWAP1 JUMP JUMPDEST PUSH1 0x20 DUP1 DUP3 MSTORE PUSH1 0xE SWAP1 DUP3 ADD MSTORE PUSH14 0x1499595B9D1C985B9D0818D85B1B PUSH1 0x92 SHL PUSH1 0x40 DUP3 ADD MSTORE PUSH1 0x60 ADD SWAP1 JUMP JUMPDEST PUSH1 0x20 DUP1 DUP3 MSTORE PUSH1 0x12 SWAP1 DUP3 ADD MSTORE PUSH18 0x496E73756666696369656E74205265706179 PUSH1 0x70 SHL PUSH1 0x40 DUP3 ADD MSTORE PUSH1 0x60 ADD SWAP1 JUMP JUMPDEST PUSH1 0x20 DUP1 DUP3 MSTORE PUSH1 0x13 SWAP1 DUP3 ADD MSTORE PUSH19 0x10D1CE881B9BC81B585C9AD95D08199BDD5B99 PUSH1 0x6A SHL PUSH1 0x40 DUP3 ADD MSTORE PUSH1 0x60 ADD SWAP1 JUMP JUMPDEST PUSH1 0x0 PUSH2 0x1E0 DUP3 ADD SWAP1 POP PUSH2 0x52E5 DUP3 DUP5 MLOAD PUSH2 0x4C15 JUMP JUMPDEST PUSH1 0x20 DUP4 ADD MLOAD PUSH2 0x52F7 PUSH1 0x20 DUP5 ADD DUP3 PUSH2 0x4C9B JUMP JUMPDEST POP PUSH1 0x40 DUP4 ADD MLOAD PUSH2 0x530A PUSH1 0x40 DUP5 ADD DUP3 PUSH2 0x4C9B JUMP JUMPDEST POP PUSH1 0x60 DUP4 ADD MLOAD PUSH1 0x60 DUP4 ADD MSTORE PUSH1 0x80 DUP4 ADD MLOAD PUSH1 0x80 DUP4 ADD MSTORE PUSH1 0xA0 DUP4 ADD MLOAD PUSH1 0xA0 DUP4 ADD MSTORE PUSH1 0xC0 DUP4 ADD MLOAD PUSH1 0xC0 DUP4 ADD MSTORE PUSH1 0xE0 DUP4 ADD MLOAD PUSH1 0xE0 DUP4 ADD MSTORE PUSH2 0x100 DUP1 DUP5 ADD MLOAD DUP2 DUP5 ADD MSTORE POP PUSH2 0x120 DUP1 DUP5 ADD MLOAD DUP2 DUP5 ADD MSTORE POP PUSH2 0x140 DUP1 DUP5 ADD MLOAD PUSH2 0x5368 DUP3 DUP6 ADD DUP3 PUSH2 0x4C22 JUMP JUMPDEST POP POP PUSH2 0x160 DUP4 ADD MLOAD PUSH2 0x537E PUSH2 0x180 DUP5 ADD DUP3 PUSH2 0x4C79 JUMP JUMPDEST POP SWAP3 SWAP2 POP POP JUMP JUMPDEST PUSH1 0x0 PUSH1 0xE0 DUP3 ADD SWAP1 POP DUP3 MLOAD DUP3 MSTORE PUSH1 0x20 DUP4 ADD MLOAD PUSH1 0x20 DUP4 ADD MSTORE PUSH1 0x40 DUP4 ADD MLOAD ISZERO ISZERO PUSH1 0x40 DUP4 ADD MSTORE PUSH1 0x60 DUP4 ADD MLOAD PUSH1 0x60 DUP4 ADD MSTORE PUSH1 0x80 DUP4 ADD MLOAD PUSH1 0x80 DUP4 ADD MSTORE PUSH1 0xA0 DUP4 ADD MLOAD PUSH1 0xA0 DUP4 ADD MSTORE PUSH1 0xC0 DUP4 ADD MLOAD PUSH1 0xC0 DUP4 ADD MSTORE SWAP3 SWAP2 POP POP JUMP JUMPDEST PUSH1 0x1 PUSH1 0x1 PUSH1 0x80 SHL SUB SWAP2 SWAP1 SWAP2 AND DUP2 MSTORE PUSH1 0x20 ADD SWAP1 JUMP JUMPDEST PUSH2 0xFFFF SWAP3 SWAP1 SWAP3 AND DUP3 MSTORE PUSH1 0x20 DUP3 ADD MSTORE PUSH1 0x40 ADD SWAP1 JUMP JUMPDEST SWAP3 DUP4 MSTORE PUSH1 0x20 DUP4 ADD SWAP2 SWAP1 SWAP2 MSTORE PUSH1 0x40 DUP3 ADD MSTORE PUSH1 0x60 ADD SWAP1 JUMP JUMPDEST PUSH1 0x1 PUSH1 0x1 PUSH1 0x50 SHL SUB SWAP2 SWAP1 SWAP2 AND DUP2 MSTORE PUSH1 0x20 ADD SWAP1 JUMP JUMPDEST DUP2 DUP2 PUSH1 0x0 DUP1 JUMPDEST PUSH1 0x2 DUP1 DUP3 LT PUSH2 0x543C JUMPI POP PUSH2 0x3280 JUMP JUMPDEST DUP5 CALLDATALOAD PUSH2 0x5447 DUP2 PUSH2 0x56A2 JUMP JUMPDEST DUP5 SLOAD PUSH2 0xFFFF PUSH1 0x8 DUP7 MUL DUP2 DUP2 SHL DUP1 NOT SWAP1 SWAP4 AND SWAP4 SWAP1 SWAP2 AND SWAP1 SHL AND OR DUP5 SSTORE PUSH1 0x20 SWAP5 SWAP1 SWAP5 ADD SWAP4 SWAP1 SWAP2 ADD SWAP1 PUSH1 0x1E DUP3 GT ISZERO PUSH2 0x5481 JUMPI PUSH1 0x0 SWAP2 POP PUSH1 0x1 DUP4 ADD SWAP3 POP JUMPDEST PUSH1 0x1 ADD PUSH2 0x542D JUMP JUMPDEST PUSH1 0x0 JUMPDEST DUP4 DUP2 LT ISZERO PUSH2 0x54A4 JUMPI DUP2 DUP2 ADD MLOAD DUP4 DUP3 ADD MSTORE PUSH1 0x20 ADD PUSH2 0x548C JUMP JUMPDEST DUP4 DUP2 GT ISZERO PUSH2 0x4C49 JUMPI POP POP PUSH1 0x0 SWAP2 ADD MSTORE JUMP JUMPDEST PUSH1 0x0 DUP2 CALLDATALOAD PUSH2 0xEE8 DUP2 PUSH2 0x56A2 JUMP JUMPDEST PUSH1 0x0 DUP2 CALLDATALOAD PUSH2 0xEE8 DUP2 PUSH2 0x56B5 JUMP JUMPDEST PUSH1 0x0 DUP2 CALLDATALOAD PUSH2 0xEE8 DUP2 PUSH2 0x56C7 JUMP JUMPDEST DUP2 CALLDATALOAD PUSH2 0x54E7 DUP2 PUSH2 0x56A2 JUMP JUMPDEST PUSH2 0xFFFF DUP2 AND PUSH2 0xFFFF NOT DUP4 SLOAD AND OR DUP3 SSTORE POP PUSH2 0x550C PUSH2 0x5506 PUSH1 0x20 DUP5 ADD PUSH2 0x54B5 JUMP JUMPDEST DUP3 PUSH2 0x5644 JUMP JUMPDEST PUSH2 0x5521 PUSH2 0x551B PUSH1 0x40 DUP5 ADD PUSH2 0x54C2 JUMP JUMPDEST DUP3 PUSH2 0x5660 JUMP JUMPDEST PUSH2 0x5536 PUSH2 0x5530 PUSH1 0x60 DUP5 ADD PUSH2 0x54B5 JUMP JUMPDEST DUP3 PUSH2 0x5684 JUMP JUMPDEST PUSH2 0x554B PUSH2 0x5545 PUSH1 0x80 DUP5 ADD PUSH2 0x54CF JUMP JUMPDEST DUP3 PUSH2 0x55B1 JUMP JUMPDEST PUSH2 0x5560 PUSH2 0x555A PUSH1 0xA0 DUP5 ADD PUSH2 0x54CF JUMP JUMPDEST DUP3 PUSH2 0x55CE JUMP JUMPDEST PUSH2 0x5575 PUSH2 0x556F PUSH1 0xC0 DUP5 ADD PUSH2 0x54CF JUMP JUMPDEST DUP3 PUSH2 0x55EB JUMP JUMPDEST PUSH2 0x558A PUSH2 0x5584 PUSH1 0xE0 DUP5 ADD PUSH2 0x54CF JUMP JUMPDEST DUP3 PUSH2 0x5608 JUMP JUMPDEST PUSH2 0x55A0 PUSH2 0x559A PUSH2 0x100 DUP5 ADD PUSH2 0x54B5 JUMP JUMPDEST DUP3 PUSH2 0x5625 JUMP JUMPDEST PUSH2 0x4371 PUSH2 0x120 DUP4 ADD PUSH1 0x1 DUP4 ADD PUSH2 0x5427 JUMP JUMPDEST DUP1 SLOAD PUSH1 0xFF PUSH1 0x50 SHL NOT AND PUSH1 0x50 SWAP3 SWAP1 SWAP3 SHL PUSH1 0xFF PUSH1 0x50 SHL AND SWAP2 SWAP1 SWAP2 OR SWAP1 SSTORE JUMP JUMPDEST DUP1 SLOAD PUSH1 0xFF PUSH1 0x58 SHL NOT AND PUSH1 0x58 SWAP3 SWAP1 SWAP3 SHL PUSH1 0xFF PUSH1 0x58 SHL AND SWAP2 SWAP1 SWAP2 OR SWAP1 SSTORE JUMP JUMPDEST DUP1 SLOAD PUSH1 0xFF PUSH1 0x60 SHL NOT AND PUSH1 0x60 SWAP3 SWAP1 SWAP3 SHL PUSH1 0xFF PUSH1 0x60 SHL AND SWAP2 SWAP1 SWAP2 OR SWAP1 SSTORE JUMP JUMPDEST DUP1 SLOAD PUSH1 0xFF PUSH1 0x68 SHL NOT AND PUSH1 0x68 SWAP3 SWAP1 SWAP3 SHL PUSH1 0xFF PUSH1 0x68 SHL AND SWAP2 SWAP1 SWAP2 OR SWAP1 SSTORE JUMP JUMPDEST DUP1 SLOAD PUSH2 0xFFFF PUSH1 0x70 SHL NOT AND PUSH1 0x70 SWAP3 SWAP1 SWAP3 SHL PUSH2 0xFFFF PUSH1 0x70 SHL AND SWAP2 SWAP1 SWAP2 OR SWAP1 SSTORE JUMP JUMPDEST DUP1 SLOAD PUSH4 0xFFFF0000 DUP4 PUSH1 0x10 SHL AND PUSH4 0xFFFF0000 NOT DUP3 AND OR DUP3 SSTORE POP POP POP JUMP JUMPDEST DUP1 SLOAD PUSH8 0xFFFFFFFF00000000 DUP4 PUSH1 0x20 SHL AND PUSH8 0xFFFFFFFF00000000 NOT DUP3 AND OR DUP3 SSTORE POP POP POP JUMP JUMPDEST DUP1 SLOAD PUSH2 0xFFFF PUSH1 0x40 SHL DUP4 PUSH1 0x40 SHL AND PUSH2 0xFFFF PUSH1 0x40 SHL NOT DUP3 AND OR DUP3 SSTORE POP POP POP JUMP JUMPDEST PUSH2 0xFFFF DUP2 AND DUP2 EQ PUSH2 0x56B2 JUMPI PUSH1 0x0 DUP1 REVERT JUMPDEST POP JUMP JUMPDEST PUSH4 0xFFFFFFFF DUP2 AND DUP2 EQ PUSH2 0x56B2 JUMPI PUSH1 0x0 DUP1 REVERT JUMPDEST PUSH1 0xFF DUP2 AND DUP2 EQ PUSH2 0x56B2 JUMPI PUSH1 0x0 DUP1 REVERT JUMPDEST PUSH1 0x1 PUSH1 0x1 PUSH1 0x50 SHL SUB DUP2 AND DUP2 EQ PUSH2 0x56B2 JUMPI PUSH1 0x0 DUP1 REVERT INVALID LOG2 PUSH5 0x6970667358 0x22 SLT KECCAK256 PUSH26 0x8987C073F06E086E86F61D34415A0B3EE777D473402754A89664 LOG3 0x22 DIFFICULTY MLOAD PUSH15 0x64736F6C6343000706003300000000 ","sha1":"cc7e64326a90f90520287d204d44e7777f52b2ff","source":"// SPDX-License-Identifier: GPL-3.0-only\npragma solidity =0.7.6;\npragma abicoder v2;\n\nimport {ActionGuards} from \"./ActionGuards.sol\";\nimport {IVaultAction} from \"../../../../interfaces/notional/IVaultController.sol\";\nimport \"../../internal/vaults/VaultConfiguration.sol\";\nimport \"../../internal/vaults/VaultAccount.sol\";\nimport {VaultStateLib, VaultState} from \"../../internal/vaults/VaultState.sol\";\n\nimport {LibStorage} from \"../../global/LibStorage.sol\";\nimport {SafeUint256} from \"../../math/SafeUint256.sol\";\n\ncontract VaultAction is ActionGuards, IVaultAction {\n    using VaultConfiguration for VaultConfig;\n    using VaultAccountLib for VaultAccount;\n    using VaultStateLib for VaultState;\n    using AssetRate for AssetRateParameters;\n    using TokenHandler for Token;\n    using SafeInt256 for int256;\n    using SafeUint256 for uint256;\n\n    /// @notice Updates or lists a deployed vault along with its configuration.\n    /// @param vaultAddress address of deployed vault\n    /// @param vaultConfig struct of vault configuration\n    /// @param maxPrimaryBorrowCapacity maximum borrow capacity\n    function updateVault(\n        address vaultAddress,\n        VaultConfigStorage calldata vaultConfig,\n        uint80 maxPrimaryBorrowCapacity\n    ) external override onlyOwner {\n        VaultConfiguration.setVaultConfig(vaultAddress, vaultConfig);\n        VaultConfiguration.setMaxBorrowCapacity(vaultAddress, vaultConfig.borrowCurrencyId, maxPrimaryBorrowCapacity);\n        bool enabled = (vaultConfig.flags & VaultConfiguration.ENABLED) == VaultConfiguration.ENABLED;\n        emit VaultUpdated(vaultAddress, enabled, maxPrimaryBorrowCapacity);\n    }\n\n    /// @notice Enables or disables a vault. If a vault is disabled, no one can enter\n    /// the vault but exits are still possible.\n    /// @param vaultAddress address of deployed vault\n    /// @param enable true if the vault should be enabled immediately\n    function setVaultPauseStatus(\n        address vaultAddress,\n        bool enable\n    ) external override onlyOwner {\n        VaultConfiguration.setVaultEnabledStatus(vaultAddress, enable);\n        emit VaultPauseStatus(vaultAddress, enable);\n    }\n\n    /// @notice Whitelists a secondary borrow currency for a vault, vaults can borrow up to the capacity\n    /// using the `borrowSecondaryCurrencyToVault` and `repaySecondaryCurrencyToVault` methods. Vaults that\n    /// use a secondary currency must ALWAYS repay the secondary debt during redemption and handle accounting\n    /// for the secondary currency themselves.\n    /// @param vaultAddress address of deployed vault\n    /// @param secondaryCurrencyId struct of vault configuration\n    /// @param maxBorrowCapacity maximum borrow capacity\n    function updateSecondaryBorrowCapacity(\n        address vaultAddress,\n        uint16 secondaryCurrencyId,\n        uint80 maxBorrowCapacity\n    ) external override onlyOwner {\n        VaultConfig memory vaultConfig = VaultConfiguration.getVaultConfigStateful(vaultAddress);\n        // Tokens with transfer fees create lots of issues with vault mechanics, we prevent them\n        // from being listed here.\n        Token memory assetToken = TokenHandler.getAssetToken(secondaryCurrencyId);\n        Token memory underlyingToken = TokenHandler.getUnderlyingToken(secondaryCurrencyId);\n        require(!assetToken.hasTransferFee && !underlyingToken.hasTransferFee); \n\n        // The secondary borrow currency must be white listed on the configuration before we can set a max\n        // capacity.\n        require(\n            secondaryCurrencyId == vaultConfig.secondaryBorrowCurrencies[0] ||\n            secondaryCurrencyId == vaultConfig.secondaryBorrowCurrencies[1],\n            \"Invalid Currency\"\n        );\n\n        VaultConfiguration.setMaxBorrowCapacity(vaultAddress, secondaryCurrencyId, maxBorrowCapacity);\n        emit VaultUpdateSecondaryBorrowCapacity(vaultAddress, secondaryCurrencyId, maxBorrowCapacity);\n    }\n\n    /// @notice Allows the owner to reduce the max borrow capacity on the vault and force\n    /// the redemption of strategy tokens to cash to reduce the overall risk of the vault.\n    /// This method is intended to be used in emergencies to mitigate insolvency risk. The effect\n    /// of this method will mean that the overall max borrow capacity is reduced, the total used\n    /// capacity will be unchanged (redeemStrategyTokensToCash does not do any lending to reduce\n    /// the outstanding fCash), and accounts will be locked out of entering the maturity which was\n    /// targeted by this method. Other maturities for that vault may still be entered depending on\n    /// whether or not the vault is above or below the max vault borrow capacity.\n    /// @param vaultAddress address of the vault\n    /// @param maxVaultBorrowCapacity the new max vault borrow capacity on the primary currency\n    /// @param maturity the maturity to redeem tokens in, will generally be either the current\n    /// maturity or the next maturity.\n    /// @param strategyTokensToRedeem how many tokens we would want to redeem in the maturity\n    /// @param vaultData vault data to pass to the vault\n    function reduceMaxBorrowCapacity(\n        address vaultAddress,\n        uint80 maxVaultBorrowCapacity,\n        uint256 maturity,\n        uint256 strategyTokensToRedeem,\n        bytes calldata vaultData\n    ) external override onlyOwner {\n        VaultConfig memory vaultConfig = VaultConfiguration.getVaultConfigStateful(vaultAddress);\n        VaultConfiguration.setMaxBorrowCapacity(vaultAddress, vaultConfig.borrowCurrencyId, maxVaultBorrowCapacity);\n\n        // Redeems strategy tokens to be held against fCash debt\n        _redeemStrategyTokensToCashInternal(vaultConfig, maturity, strategyTokensToRedeem, vaultData);\n\n        emit VaultUpdated(vaultAddress, vaultConfig.getFlag(VaultConfiguration.ENABLED), maxVaultBorrowCapacity);\n    }\n\n    /// @notice Strategy vaults can call this method to redeem strategy tokens to cash and hold them\n    /// as asset cash within the pool. This should typically be used during settlement but can also be\n    /// used for vault-wide deleveraging.\n    /// @param maturity the maturity of the vault where the redemption will take place\n    /// @param strategyTokensToRedeem the number of strategy tokens redeemed\n    /// @param vaultData arbitrary data to pass back to the vault\n    /// @return assetCashRequiredToSettle amount of asset cash still remaining to settle the debt\n    /// @return underlyingCashRequiredToSettle amount of underlying cash still remaining to settle the debt\n    function redeemStrategyTokensToCash(\n        uint256 maturity,\n        uint256 strategyTokensToRedeem,\n        bytes calldata vaultData\n    ) external override returns (int256 assetCashRequiredToSettle, int256 underlyingCashRequiredToSettle) {\n        // NOTE: this call must come from the vault itself\n        VaultConfig memory vaultConfig = VaultConfiguration.getVaultConfigStateful(msg.sender);\n        // NOTE: if the msg.sender is not the vault itself this will revert\n        require(vaultConfig.getFlag(VaultConfiguration.ENABLED), \"Paused\");\n        return _redeemStrategyTokensToCashInternal(vaultConfig, maturity, strategyTokensToRedeem, vaultData);\n    }\n\n    /// @notice Redeems strategy tokens to cash\n    function _redeemStrategyTokensToCashInternal(\n        VaultConfig memory vaultConfig,\n        uint256 maturity,\n        uint256 strategyTokensToRedeem,\n        bytes calldata vaultData\n    ) private nonReentrant returns (int256 assetCashRequiredToSettle, int256 underlyingCashRequiredToSettle) {\n        // If the vault allows further re-entrancy then set the status back to the default\n        if (vaultConfig.getFlag(VaultConfiguration.ALLOW_REENTRANCY)) {\n            reentrancyStatus = _NOT_ENTERED;\n        }\n\n        VaultState memory vaultState = VaultStateLib.getVaultState(vaultConfig.vault, maturity);\n        int256 assetCashReceived = vaultConfig.redeemWithoutDebtRepayment(\n            vaultConfig.vault, strategyTokensToRedeem, maturity, vaultData\n        );\n        require(assetCashReceived > 0);\n\n        vaultState.totalAssetCash = vaultState.totalAssetCash.add(uint256(assetCashReceived));\n        vaultState.totalStrategyTokens = vaultState.totalStrategyTokens.sub(strategyTokensToRedeem);\n        vaultState.setVaultState(vaultConfig.vault);\n\n        emit VaultRedeemStrategyToken(vaultConfig.vault, maturity, assetCashReceived, strategyTokensToRedeem);\n        return _getCashRequiredToSettle(vaultConfig, vaultState, maturity);\n    }\n\n    /// @notice Strategy vaults can call this method to deposit asset cash into strategy tokens.\n    /// @param maturity the maturity of the vault where the redemption will take place\n    /// @param assetCashInternal the number of asset cash tokens to deposit (external)\n    /// @param vaultData arbitrary data to pass back to the vault for deposit\n    function depositVaultCashToStrategyTokens(\n        uint256 maturity,\n        uint256 assetCashInternal,\n        bytes calldata vaultData\n    ) external override nonReentrant {\n        VaultConfig memory vaultConfig = VaultConfiguration.getVaultConfigStateful(msg.sender);\n        // NOTE: if the msg.sender is not the vault itself this will revert\n        require(vaultConfig.getFlag(VaultConfiguration.ENABLED), \"Paused\");\n\n        // If the vault allows further re-entrancy then set the status back to the default\n        if (vaultConfig.getFlag(VaultConfiguration.ALLOW_REENTRANCY)) {\n            reentrancyStatus = _NOT_ENTERED;\n        }\n\n        VaultState memory vaultState = VaultStateLib.getVaultState(msg.sender, maturity);\n        uint256 strategyTokensMinted = vaultConfig.deposit(\n            vaultConfig.vault, assetCashInternal.toInt(), maturity, 0, vaultData\n        );\n\n        vaultState.totalAssetCash = vaultState.totalAssetCash.sub(assetCashInternal);\n        vaultState.totalStrategyTokens = vaultState.totalStrategyTokens.add(strategyTokensMinted);\n        vaultState.setVaultState(msg.sender);\n\n        // When exchanging asset cash for strategy tokens we will decrease the vault's collateral, ensure that\n        // we don't go under the configured minimum here.\n        (int256 collateralRatio, /* */) = vaultConfig.calculateCollateralRatio(\n            vaultState, msg.sender, vaultState.totalVaultShares, vaultState.totalfCash\n        );\n        require(vaultConfig.minCollateralRatio <= collateralRatio, \"Insufficient Collateral\");\n        emit VaultMintStrategyToken(msg.sender, maturity, assetCashInternal, strategyTokensMinted);\n    }\n\n    /// @notice Allows a vault to borrow a secondary currency if it is whitelisted to do so\n    /// @param account account that is borrowing the secondary currency\n    /// @param maturity the maturity to borrow at\n    /// @param fCashToBorrow fCash to borrow for the first and second secondary currencies\n    /// @param maxBorrowRate maximum borrow rate for the first and second secondary currencies\n    /// @param minRollLendRate max roll lend rate for the first and second borrow currencies\n    /// @return underlyingTokensTransferred amount of tokens transferred back to the vault\n    function borrowSecondaryCurrencyToVault(\n        address account,\n        uint256 maturity,\n        uint256[2] calldata fCashToBorrow,\n        uint32[2] calldata maxBorrowRate,\n        uint32[2] calldata minRollLendRate\n    ) external override returns (uint256[2] memory underlyingTokensTransferred) {\n        // This method call must come from the vault\n        VaultConfig memory vaultConfig = VaultConfiguration.getVaultConfigStateful(msg.sender);\n        // This also ensures that the caller is an actual vault\n        require(vaultConfig.getFlag(VaultConfiguration.ENABLED), \"Paused\");\n        uint16[2] memory currencies = vaultConfig.secondaryBorrowCurrencies;\n        require(currencies[0] != 0 || currencies[1] != 0);\n        \n        // If the borrower is rolling their primary debt forward, we need to check that here and roll\n        // their secondary debt forward in the same manner (simulate lending and then borrow more in\n        // a longer dated maturity to repay their borrowing).\n        int256[2] memory costToRepay;\n        if (vaultConfig.getFlag(VaultConfiguration.ALLOW_ROLL_POSITION) && account != msg.sender) {\n            // If in here, the vault allows rolling and we are working with an individual account\n            VaultAccountSecondaryDebtShareStorage storage s = \n                LibStorage.getVaultAccountSecondaryDebtShare()[account][vaultConfig.vault];\n            uint256 accountMaturity = s.maturity;\n\n            if (accountMaturity != 0) {\n                // Cannot roll to a shorter term maturity\n                require(accountMaturity < maturity);\n                costToRepay[0] = _repayDuringRoll(\n                    vaultConfig, account, currencies[0], accountMaturity, s.accountDebtSharesOne, minRollLendRate[0]\n                );\n                costToRepay[1] = _repayDuringRoll(\n                    vaultConfig, account, currencies[1], accountMaturity, s.accountDebtSharesTwo, minRollLendRate[1]\n                );\n            }\n        }\n\n        underlyingTokensTransferred[0] = _borrowAndTransfer(\n            vaultConfig, account, currencies[0], maturity, costToRepay[0], fCashToBorrow[0], maxBorrowRate[0]\n        );\n        underlyingTokensTransferred[1] = _borrowAndTransfer(\n            vaultConfig, account, currencies[1], maturity, costToRepay[1], fCashToBorrow[1], maxBorrowRate[1]\n        );\n    }\n\n    function _repayDuringRoll(\n        VaultConfig memory vaultConfig,\n        address account,\n        uint16 currencyId,\n        uint256 maturity,\n        uint256 accountDebtShares,\n        uint32 minLendRate\n    ) private returns (int256 costToRepay) {\n        if (currencyId != 0 && accountDebtShares != 0) {\n            (costToRepay, /* */) = vaultConfig.repaySecondaryBorrow(\n                account, currencyId, maturity, accountDebtShares, minLendRate\n            );\n        }\n    }\n\n    function _borrowAndTransfer(\n        VaultConfig memory vaultConfig,\n        address account,\n        uint16 currencyId,\n        uint256 maturity,\n        int256 costToRepay,\n        uint256 fCashToBorrow,\n        uint32 maxBorrowRate\n    ) private returns (uint256 underlyingTokensTransferred) {\n        if (currencyId == 0 || fCashToBorrow == 0) return 0;\n\n        (int256 netBorrowedCash, /* */) = vaultConfig.increaseSecondaryBorrow(\n            account, currencyId, maturity, fCashToBorrow, maxBorrowRate\n        );\n\n        netBorrowedCash = netBorrowedCash.add(costToRepay);\n        require(netBorrowedCash >= 0, \"Insufficient Secondary Borrow\");\n\n        underlyingTokensTransferred = VaultConfiguration.transferFromNotional(\n            vaultConfig.vault, currencyId, netBorrowedCash\n        );\n    }\n\n    /// @notice Allows a vault to repay a secondary currency that it has borrowed. Will be executed via a callback\n    /// which will request that the vault repay a specific amount of underlying tokens.\n    /// @param account account that is repaying the secondary currency\n    /// @param currencyId currency id of the secondary currency\n    /// @param maturity the maturity to lend at\n    /// @param debtSharesToRepay amount of debt shares to repay (used to calculate fCashToLend)\n    /// @param minLendRate minimum lend rate\n    /// @return returnData arbitrary return data to pass back to the vault\n    function repaySecondaryCurrencyFromVault(\n        address account,\n        uint16 currencyId,\n        uint256 maturity,\n        uint256 debtSharesToRepay,\n        uint32 minLendRate,\n        bytes calldata callbackData\n    ) external override returns (bytes memory returnData) {\n        // This method call must come from the vault\n        VaultConfig memory vaultConfig = VaultConfiguration.getVaultConfigStateful(msg.sender);\n        require(vaultConfig.getFlag(VaultConfiguration.ENABLED), \"Paused\");\n\n        (int256 netAssetCash, /* */) = vaultConfig.repaySecondaryBorrow(\n            account, currencyId, maturity, debtSharesToRepay, minLendRate\n        );\n\n        Token memory assetToken = TokenHandler.getAssetToken(currencyId);\n        // The vault MUST return exactly this amount of underlying tokens to the vault in the callback. We use\n        // a callback here because it is more precise and gas efficient than calculating netAssetCash twice\n        uint256 balanceTransferred;\n        {\n            // If the asset token is NonMintable then the underlying is the same object.\n            Token memory underlyingToken = assetToken.tokenType == TokenType.NonMintable ? \n                assetToken :\n                TokenHandler.getUnderlyingToken(currencyId);\n\n            uint256 underlyingExternalToRepay = underlyingToken.convertToUnderlyingExternalWithAdjustment(\n                vaultConfig.assetRate.convertToUnderlying(netAssetCash).neg()\n            ).toUint();\n\n            uint256 balanceBefore = underlyingToken.balanceOf(address(this));\n            // Tells the vault will redeem the strategy token amount and transfer asset tokens back to Notional\n            returnData = IStrategyVault(msg.sender).repaySecondaryBorrowCallback(\n                underlyingToken.tokenAddress, underlyingExternalToRepay, callbackData\n            );\n            uint256 balanceAfter = underlyingToken.balanceOf(address(this));\n            balanceTransferred = balanceAfter.sub(balanceBefore);\n            require(balanceTransferred >= underlyingExternalToRepay, \"Insufficient Repay\");\n        }\n\n        // NonMintable tokens do not require minting\n        if (assetToken.tokenType != TokenType.NonMintable) {\n            assetToken.mint(currencyId, balanceTransferred);\n        }\n    }\n\n    /**\n     * @notice MUST be called by vaults that are using secondary borrows to initiate the settlement\n     * process. Once settlement process has been initiated, no further secondary borrows may occur in\n     * this maturity. Repayments can only occur via the vault itself, individual accounts cannot repay\n     * secondary borrows after this occurs. Can only be called by the vault.\n     * @param maturity maturity in which to initiate settlement\n     * @return secondaryBorrowSnapshot value of fCash in primary currency terms for both secondary borrow\n     * currencies\n     */\n    function initiateSecondaryBorrowSettlement(\n        uint256 maturity\n    ) external override returns (uint256[2] memory secondaryBorrowSnapshot) {\n        // This method call must come from the vault\n        VaultConfig memory vaultConfig = VaultConfiguration.getVaultConfigStateful(msg.sender);\n        require(vaultConfig.getFlag(VaultConfiguration.ENABLED), \"Paused\");\n\n        secondaryBorrowSnapshot[0] = vaultConfig.snapshotSecondaryBorrowAtSettlement(\n            vaultConfig.secondaryBorrowCurrencies[0],\n            maturity\n        ).toUint();\n\n        secondaryBorrowSnapshot[1] = vaultConfig.snapshotSecondaryBorrowAtSettlement(\n            vaultConfig.secondaryBorrowCurrencies[1],\n            maturity\n        ).toUint();\n    }\n\n    /// @notice Settles a vault and sets the final settlement rates\n    /// @param vault the vault to settle\n    /// @param maturity the maturity of the vault\n    function settleVault(address vault, uint256 maturity) external override nonReentrant {\n        VaultConfig memory vaultConfig = VaultConfiguration.getVaultConfigStateful(vault);\n        // Allow anyone to call this method unless it must be authorized by the vault. Generally speaking,\n        // as long as there is sufficient cash on the vault we should be able to settle\n        vaultConfig.authorizeCaller(msg.sender, VaultConfiguration.ONLY_VAULT_SETTLE);\n\n        VaultState memory vaultState = VaultStateLib.getVaultState(vault, maturity);\n        // Ensure that we are past maturity and the vault is able to settle\n        require(maturity <= block.timestamp && vaultState.isSettled == false, \"Cannot Settle\");\n\n        AssetRateParameters memory settlementRate = AssetRate.buildSettlementRateStateful(\n            vaultConfig.borrowCurrencyId,\n            maturity,\n            block.timestamp\n        );\n\n        // This is how much it costs in asset cash to settle the pooled portion of the vault\n        uint256 assetCashRequiredToSettle = settlementRate.convertFromUnderlying(\n            vaultState.totalfCash.neg()\n        ).toUint();\n\n        // Validate that all secondary currencies have been paid off.\n        mapping(uint256 => VaultSecondaryBorrowStorage) storage perCurrencyBalance =\n            LibStorage.getVaultSecondaryBorrow()[vault][maturity];\n        if (vaultConfig.secondaryBorrowCurrencies[0] != 0) {\n            require(perCurrencyBalance[vaultConfig.secondaryBorrowCurrencies[0]].totalfCashBorrowed == 0, \"Unpaid Borrow\");\n        }\n        if (vaultConfig.secondaryBorrowCurrencies[1] != 0) {\n            require(perCurrencyBalance[vaultConfig.secondaryBorrowCurrencies[1]].totalfCashBorrowed == 0, \"Unpaid Borrow\");\n        }\n\n        if (vaultState.totalAssetCash < assetCashRequiredToSettle) {\n            // Don't allow the pooled portion of the vault to have a cash shortfall unless all\n            // strategy tokens have been redeemed to asset cash.\n            require(vaultState.totalStrategyTokens == 0, \"Redeem all tokens\");\n\n            // After this point, we have a cash shortfall and will need to resolve it.\n            // Underflow checked above\n            int256 assetCashShortfall = (assetCashRequiredToSettle - vaultState.totalAssetCash).toInt();\n            uint256 assetCashRaised = VaultConfiguration.resolveShortfallWithReserve(\n                vaultConfig.vault, vaultConfig.borrowCurrencyId, assetCashShortfall, maturity\n            ).toUint();\n\n            vaultState.totalAssetCash = vaultState.totalAssetCash.add(assetCashRaised);\n            vaultState.setVaultState(vault);\n        }\n\n        // Clears the used borrow capacity regardless of the insolvency state of the vault. Since vaults are\n        // automatically paused in the case of any shortfall, no accounts will be able to enter regardless\n        // but we still want to maintain proper accounting of the borrow capacity.\n        VaultConfiguration.updateUsedBorrowCapacity(vault, vaultConfig.borrowCurrencyId, vaultState.totalfCash.neg());\n        vaultState.setSettledVaultState(vaultConfig, settlementRate, maturity, block.timestamp);\n    }\n\n    /** View Methods **/\n    function getVaultConfig(\n        address vault\n    ) external view override returns (VaultConfig memory vaultConfig) {\n        vaultConfig = VaultConfiguration.getVaultConfigView(vault);\n    }\n\n    function getVaultState(\n        address vault,\n        uint256 maturity\n    ) external view override returns (VaultState memory vaultState) {\n        vaultState = VaultStateLib.getVaultState(vault, maturity);\n    }\n\n    function getBorrowCapacity(\n        address vault,\n        uint16 currencyId\n    ) external view override returns (\n        uint256 totalUsedBorrowCapacity,\n        uint256 maxBorrowCapacity\n    ) {\n        VaultBorrowCapacityStorage storage cap = LibStorage.getVaultBorrowCapacity()[vault][currencyId];\n        totalUsedBorrowCapacity = cap.totalUsedBorrowCapacity;\n        maxBorrowCapacity = cap.maxBorrowCapacity;\n    }\n\n    function getSecondaryBorrow(\n        address vault,\n        uint16 currencyId,\n        uint256 maturity\n    ) external view override returns (\n        uint256 totalfCashBorrowed,\n        uint256 totalAccountDebtShares,\n        uint256 totalfCashBorrowedInPrimarySnapshot\n    ) {\n        VaultSecondaryBorrowStorage storage balance = \n            LibStorage.getVaultSecondaryBorrow()[vault][maturity][currencyId];\n        totalfCashBorrowed = balance.totalfCashBorrowed;\n        totalAccountDebtShares = balance.totalAccountDebtShares;\n        totalfCashBorrowedInPrimarySnapshot = balance.totalfCashBorrowedInPrimarySnapshot;\n    }\n\n    function getCashRequiredToSettle(\n        address vault,\n        uint256 maturity\n    ) external view override returns (\n        int256 assetCashRequiredToSettle,\n        int256 underlyingCashRequiredToSettle\n    ) {\n        VaultConfig memory vaultConfig = VaultConfiguration.getVaultConfigView(vault);\n        VaultState memory vaultState = VaultStateLib.getVaultState(vaultConfig.vault, maturity);\n        return _getCashRequiredToSettle(vaultConfig, vaultState, maturity);\n    }\n\n    function _getCashRequiredToSettle(\n        VaultConfig memory vaultConfig,\n        VaultState memory vaultState,\n        uint256 maturity\n    ) private view returns (\n        int256 assetCashRequiredToSettle,\n        int256 underlyingCashRequiredToSettle\n    ) {\n        // If this is prior to maturity, it will return the current asset rate. After maturity it will\n        // return the settlement rate.\n        AssetRateParameters memory ar = AssetRate.buildSettlementRateView(vaultConfig.borrowCurrencyId, maturity);\n        \n        // If this is a positive number, there is more cash remaining to be settled.\n        // If this is a negative number, there is more cash than required to repay the debt\n        int256 assetCashInternal = ar.convertFromUnderlying(vaultState.totalfCash)\n            .add(vaultState.totalAssetCash.toInt())\n            .neg();\n\n        Token memory assetToken = TokenHandler.getAssetToken(vaultConfig.borrowCurrencyId);\n        // If the asset token is NonMintable then the underlying is the same object.\n        assetCashRequiredToSettle = assetToken.convertToExternal(assetCashInternal);\n\n        if (assetToken.tokenType == TokenType.NonMintable) {\n            // In this case both values are the same, there is no underlying token\n            underlyingCashRequiredToSettle = assetCashRequiredToSettle;\n        } else {\n            Token memory underlyingToken = TokenHandler.getUnderlyingToken(vaultConfig.borrowCurrencyId);\n            underlyingCashRequiredToSettle = underlyingToken.convertToUnderlyingExternalWithAdjustment(\n                ar.convertToUnderlying(assetCashInternal)\n            );\n        }\n    }\n\n    function getLibInfo() external pure returns (address) {\n        return address(TradingAction);\n    }\n}","sourcePath":"contracts/external/actions/VaultAction.sol","type":"contract","deployment":{"address":"0x164D1266a307949Af7e9447fe3dC7aa96A1B9f8A","chainid":"5","blockHeight":7271187}}