{"bytecode":"61447e610026600b82828239805160001a60731461001957fe5b30600052607381538281f3fe730000000000000000000000000000000000000000301460806040526004361061004b5760003560e01c8063451d958f146100505780636cb65eaf146100885780636ccc642f146100a9575b600080fd5b81801561005c57600080fd5b5061007061006b366004613e76565b6100cb565b60405161007f93929190614348565b60405180910390f35b61009b610096366004613e5c565b6101c0565b60405161007f929190614138565b8180156100b557600080fd5b506100c96100c4366004613e5c565b610215565b005b6100d3613b73565b6100db613ba1565b60606100e686610291565b92506100f183610332565b15610182576040516337b5fc2160e11b815273__SettleAssetsExternal__________________90636f6bf8429061012f908990879060040161411b565b60a06040518083038186803b15801561014757600080fd5b505af415801561015b573d6000803e3d6000fd5b505050506040513d601f19601f8201168201806040525081019061017f9190613ec0565b92505b61018b83610386565b156101a457826060015161ffff1685146101a457600080fd5b6101b18684428888610393565b93979096509294509192505050565b6000606060006101cf84610291565b90506101da81610332565b156102005760405162461bcd60e51b81526004016101f79061420b565b60405180910390fd5b61020b8482426105f0565b9250925050915091565b600061022082610291565b905061022b81610332565b156102485760405162461bcd60e51b81526004016101f79061420b565b600080610256848442610845565b91509150801561026a5761026a8385610a33565b600082121561028b5760405162461bcd60e51b81526004016101f790614311565b50505050565b610299613b73565b60006102a3610b37565b6001600160a01b03841660009081526020918252604090819020815160a081018352905464ffffffffff8116825265010000000000810460f81b6001600160f81b03191693820193909352600160301b830460ff1691810191909152600160381b820461ffff166060820152600160481b90910460701b6001600160701b03191660808201529150505b919050565b60004261033e83610386565b1561035f5761034c81610b4a565b835164ffffffffff1610915061032d9050565b825164ffffffffff161580159061037e5750825164ffffffffff168110155b91505061032d565b6060015161ffff16151590565b61039b613ba1565b60606103a5613c26565b6103ad613ba1565b6001600160a01b03891681526103c288610386565b1561049a576103d48860600151610b6b565b6060830152600080806103e98c8b8d88610b95565b92509250925060006103fd8d8c8e89610beb565b905060006104158261040f8787610ca4565b90610ca4565b90508660600151604001518760c00181905250600061043d8e6060015161ffff16838a610cba565b90508b8e6060015161ffff16141561048f576040870182905260c08088018290528801516101008801528a61048f576060880151610120880152608087018590526001600160d01b0319841660a08801525b5050505050506104ae565b6104a8898960400151610d05565b60a08301525b60808801515b6001600160701b0319811615610591576060890151819060009060f083901c613fff169061ffff168114156104e857600080fd5b89811480156104f5575088155b806104ff57508881145b9150506000610511868685858f610d2e565b905060f083901c613fff16600061052982848a610cba565b90508a8214156105555760c0880151610120880151604001526060870183905260e08701819052610576565b8b821415610576576040870183905260c08088018290528801516101008801525b6010866001600160701b031916901b955050505050506104b4565b8251602083018190526000136105b95760405162461bcd60e51b81526004016101f7906142e2565b604089015160ff16156105da576105d48a8a60400151610d05565b60a08401525b5060a09091015190925090509550959350505050565b600060606105fc613c26565b60408051600a8082526101608201909252600091829190602082016101408036833701905050905061062d87610386565b156106d55761063f8760600151610dfc565b60608401526000806106538a898b88610b95565b509150915060006106668b8a8c89610beb565b90506106768161040f8585610ca4565b84868151811061068257fe5b6020026020010181815250508560600151604001518660c001819052506106c58a6060015161ffff168587815181106106b757fe5b602002602001015188610cba565b5050600190930192506106e99050565b6106e3888860400151610d05565b60a08401525b60808701515b6001600160701b0319811615610833576060880151819060f082901c613fff169061ffff1681141561072057600080fd5b600061072c8c84610e13565b86888151811061073857fe5b6020026020010181935082815250505061075183610e58565b8061075c5750600081135b156107d85761076a82610dfc565b606088015260008061077d89848e610e64565b50915091506107ac8161040f848a8c8151811061079657fe5b6020026020010151610ca490919063ffffffff16565b8789815181106107b857fe5b6020908102919091010152505060608701516040015160c08801526107eb565b6107e58261ffff16610f15565b60c08801525b61080d8261ffff168688815181106107ff57fe5b602002602001015189610cba565b505050600193909301925060101b6fffffffffffffffffffffffffffffffff19166106ef565b5091519350909150505b935093915050565b600080610850613c26565b600061085b86610386565b156108e25761086d8660600151610b6b565b606083015260008061088189888a87610b95565b5091509150600082121561089457600192505b60006108a28a898b88610beb565b905060006108b48261040f8686610ca4565b6060808801516040015160c08901528b01519091506108d89061ffff168288610cba565b50505050506108f6565b6108f0878760400151610d05565b60a08301525b60808601515b6001600160701b03198116156109ea576060870151819060f082901c613fff169061ffff1681141561092d57600080fd5b60008061093a8c85610e13565b91509150600082121561094c57600195505b61095584610e58565b806109605750600081135b156109ad5761096e83610b6b565b606088015260008061098189848e610e64565b5090925090506109958161040f8685610ca4565b60608a01516040015160c08b015293506109c0915050565b6109ba8361ffff16610f61565b60c08801525b6109cf8361ffff168389610cba565b506010856001600160701b031916901b9450505050506108fc565b6020870151600160f91b908116148015610a02575081155b15610a1d576020808801805160fd60f81b1690526001908401525b5050805160209091015190969095509350505050565b6000610a3d610b37565b6001600160a01b03831660008181526020838152604080832088518154938a0151838b015160608c015160808d015160701c600160481b027affffffffffffffffffffffffffffffffffff0000000000000000001961ffff909216600160381b0268ffff000000000000001960ff94909416600160301b0266ff0000000000001960f89690961c650100000000000265ff00000000001964ffffffffff90981664ffffffffff19909b169a909a1796909616989098179390931693909317169490941716929092179091555192935090917f6bd4b121bca854a191536a2ca891155c42ee2fb23f307fb34e8bc65cfcb5412e9190a2505050565b600080610b446001610f77565b92915050565b600062015180821015610b5c57600080fd5b62015180825b06909103919050565b610b73613c84565b6000610b828361ffff16610f61565b9050610b8e8382610f90565b9392505050565b600080600080610bad88876060015161ffff16610fd3565b509195509150506000811315610bdb57610bd185606001518660e00151838a61107f565b9093509150610be0565b600092505b509450945094915050565b6000806000610c1687866060015161ffff16876000015164ffffffffff1689886060015160016110f3565b60208701519193509150600160f81b90811614818015610c34575080155b15610c5d5760208681018051600160f81b176001600160f81b0319169052600190860152610c83565b81158015610c685750805b15610c835760208087018051607f60f91b1690526001908601525b606085015160400151610c969084611124565b93505050505b949350505050565b81810182811215600083121514610b4457600080fd5b610cc2613ca3565b6000610ccd8561114f565b9050610cfb610cf3610cec868660c001516112b290919063ffffffff16565b83906112dd565b845190610ca4565b9092525092915050565b60606000610d138484611324565b90506001815111610d25579050610b44565b610b8e81611446565b835160009060f085901c613fff169082908190610d4b9088610e13565b91509150610d5887610e58565b80610d635750600081135b15610ddb57610d7183610b6b565b60608a015260008080610d858c858a610e64565b91945092509050610d9a8261040f8786610ca4565b60608d01516040015160c08e015294508815610dd35760608c01516101208c01526001600160d01b0319811660a08c015260808b018290525b505050610dee565b610de88361ffff16610f61565b60c08a01525b509150505b95945050505050565b610e04613c84565b6000610b828361ffff16610f15565b600080600160fe1b8381161415610e4a5760f083901c613fff16600080610e3a8784610fd3565b509196509450610e519350505050565b5060009050805b9250929050565b600160ff1b9081161490565b60008060008560a00151518660400151108015610eab575085606001516000015161ffff168660a00151876040015181518110610e9d57fe5b602002602001015160000151145b15610ed957610ecd8660a0015187606001518860800151878a604001516115ff565b60408801529250610ede565b600092505b6000851315610f0557610efb86606001518760e00151878761107f565b9092509050610f0c565b5060009050805b93509350939050565b610f1d613cd2565b6000806000610f2b8561175b565b604080516060810182526001600160a01b039093168352602083019390935260ff16600a0a918101919091529350505050919050565b610f69613cd2565b6000806000610f2b8561181c565b6000620f4240826012811115610f8957fe5b0192915050565b610f98613c84565b6000610fa78461ffff166118a1565b6040805160808101825261ffff96909616865260ff821660208701528501939093525050606082015290565b6000806000806000610fe36118be565b6001600160a01b0388166000908152602082815260408083208a84529091529020805469ffffffffffffffffffff81169650600160501b900463ffffffff169450909150831561104f57805461104890600160701b900466ffffffffffffff166118cb565b9250611064565b8054600160701b900466ffffffffffffff1692505b54600160a81b9004600a90810b900b97939650919450925050565b835160009081906110919086906118d9565b85855260006110a0868561197c565b905060006110df87604001516110d960646110d98b60a00151600360ff16600681106110c857fe5b1a6110d38c89611a39565b90611a39565b90611a87565b60a097909701519698969750505050505050565b60008060006111028989611ab8565b905061111389898989898987611aed565b92509250505b965096945050505050565b600080610c9c84602001516110d986604001516110d36402540be40088611a3990919063ffffffff16565b611157613ca3565b6000611161611b6b565b600084815260208290526040812091925080600186141561118e5750670de0b6b3a7640000905080611264565b825460408051633fabe5a360e21b815290516001600160a01b039092169163feaf968c9160048082019260a092909190829003018186803b1580156111d257600080fd5b505afa1580156111e6573d6000803e3d6000fd5b505050506040513d601f19601f8201168201806040525081019061120a9190613f60565b509193505060008313915061123390505760405162461bcd60e51b81526004016101f79061428f565b825460ff600160a01b82048116600a0a9350600160a81b909104161561126457611261816110d98480611a39565b90505b6040805160a0810182529283526020830191909152915460ff600160b01b8204811693830193909352600160b81b810483166060830152600160c01b90049091166080820152915050919050565b600080610c9c84604001516110d96402540be4006110d9878960200151611a3990919063ffffffff16565b600080600083136112f25783604001516112f8565b83606001515b90506000610df385600001516110d960646110d9866110d38b602001518b611a3990919063ffffffff16565b606060108260ff16111561133757600080fd5b6000611341611b78565b6001600160a01b038516600090815260208290526040812091925060ff851667ffffffffffffffff8111801561137657600080fd5b506040519080825280602002602001820160405280156113b057816020015b61139d613cfc565b8152602001906001900390816113955790505b50905060005b8560ff1681101561143c5760008382601081106113cf57fe5b01905060008383815181106113e057fe5b602090810291909101810151835461ffff8116825264ffffffffff620100008204169282019290925260ff600160381b8304166040820152600160401b909104600a90810b900b606082015260800191909152506001016113b6565b5095945050505050565b805160008167ffffffffffffffff8111801561146157600080fd5b5060405190808252806020026020018201604052801561148b578160200160208202803683370190505b50905060005b828110156114e85760008482815181106114a757fe5b602002602001015190506114c8816000015182602001518360400151611b85565b8383815181106114d457fe5b602090810291909101015250600101611491565b5060015b8281101561028b57805b60008111801561152e575082818151811061150d57fe5b602002602001015183600183038151811061152457fe5b6020026020010151115b156115f65782818151811061153f57fe5b602002602001015183600183038151811061155657fe5b602002602001015184600184038151811061156d57fe5b6020026020010185848151811061158057fe5b602002602001018281525082815250505084818151811061159d57fe5b60200260200101518560018303815181106115b457fe5b60200260200101518660018403815181106115cb57fe5b602002602001018784815181106115de57fe5b602090810291909101019190915252600019016114f6565b506001016114ec565b6000808080845b895181101561169d5761162f8a828151811061161e57fe5b602002602001015160400151611be0565b61163857611695565b886000015161ffff168a828151811061164d57fe5b602002602001015160000151146116635761169d565b600080611675838c8c8f8d6001611bf6565b90925090506116848583610ca4565b94506116908482610ca4565b935050505b600101611606565b50845b89518110156117325760008a82815181106116b757fe5b60200260200101519050600160ff168160400151146116d6575061172a565b8951815161ffff909116146116eb5750611732565b60208101516000906116ff908c908b611d33565b905060006117188c846060015185602001518d86611e23565b90506117248582610ca4565b94505050505b6001016116a0565b604089015161174c906117459084611124565b8490610ca4565b9a909950975050505050505050565b600080600080600061176c86611eb7565b909250905060006001600160a01b0383166117915750600090506402540be400611811565b826001600160a01b031663b2fffb046040518163ffffffff1660e01b815260040160206040518083038186803b1580156117ca57600080fd5b505afa1580156117de573d6000803e3d6000fd5b505050506040513d601f19601f820116820180604052508101906118029190613ea8565b90506000811361181157600080fd5b969195509350915050565b600080600080600061182d86611eb7565b909250905060006001600160a01b0383166118525750600090506402540be400611811565b826001600160a01b0316631ee108336040518163ffffffff1660e01b8152600401602060405180830381600087803b15801561188d57600080fd5b505af11580156117de573d6000803e3d6000fd5b6000806118ac611eee565b60009384526020525050604090205490565b600080610b446006610f77565b600881901c60ff9091161b90565b6118e68161ffff16611efb565b6001600160a01b031660c083018190526000908190819061190690611f21565b9450945094505050600061191d8660c00151611f8a565b505060808701859052604087018190526001600160d81b0319831660a088015260c087015190915061195190846000611ff4565b602087015260c08601516119699061ffff8716610fd3565b5050506060909601959095525050505050565b60008060008061198b86612087565b905084811161199b576001810394505b5060006119a886866120b1565b50905060006119d68760c0015188600001516000015161ffff168960800151898b60000151602001516121ff565b905060008115611a085760c08801518851805160808b0151611a04939261ffff909216918b90600088611aed565b5090505b6060880151885160400151611a2d919061040f90611a269085611124565b8690610ca4565b98975050505050505050565b818102600019831415611a6957811580611a5b575082828281611a5857fe5b05145b611a6457600080fd5b610b44565b821580611a7e575081838281611a7b57fe5b05145b610b4457600080fd5b600081600019148015611a9d5750600160ff1b83145b15611aa757600080fd5b818381611ab057fe5b059392505050565b600080611ac36122ab565b6001600160a01b038516600090815260209182526040808220868352909252205491505092915050565b6000806000611afb846122b8565b90505b8015611b5e576000611b1089836122dd565b90506000611b228c8c848c8c8c612390565b9050611b2e8582610ca4565b94506000811215611b3e57600193505b611b4a868460006123ef565b9550611b55866122b8565b92505050611afe565b5097509795505050505050565b600080610b446010610f77565b600080610b44600d610f77565b6000613fff841115611b9657600080fd5b64ffffffffff831115611ba857600080fd5b6008821115611bb657600080fd5b5067ffff000000000000603084901b1665ffffffffff00600884901b161760ff8216179392505050565b600060028210801590610b445750506008101590565b6000806000858981518110611c0757fe5b60200260200101519050600080611c278a6020015184602001518961243a565b915091508015611c3657600080fd5b611c448a8a8460018b6124fa565b50506000808515611c6457611c5a838a8c612575565b9092509050611c74565b611c6e838a61260e565b90925090505b8a15611cf15760008860018d0381518110611c8b57fe5b60200260200101519050600160ff168160400151148015611cad575083518151145b8015611cc0575083602001518160200151145b15611cef576060810151611cd49083610ca4565b6060820152600360a090910152509250600091506111199050565b505b8515611d1d576000611d0e8b8386602001518b8e60c00151611e23565b92955091935061111992505050565b6000611d0e8285602001518a8d60c00151612689565b6000806000611d478660200151868661243a565b915091506000611d56876126da565b905081611d79578651611d6f9061ffff168783886126ee565b9350505050610b8e565b6000611d848661278d565b90506000611d9b611d94866127a9565b839061284d565b90506000611db38a6000015161ffff1683868b6126ee565b90506000808760011415611dd857899150611dd18c604001516128a7565b9050611e07565b611dee611de760018a036127a9565b869061284d565b9150611e048c6000015161ffff1683888d6126ee565b90505b611e14828583868f612938565b98505050505050505050610b8e565b600084611e3257506000610df3565b6000611e3e8585612998565b9050600080871315611e6d57611e6682611e61611e5a8b6129f5565b879061284d565b612a0a565b9050611e9c565b6000611e7889612a77565b9050848110611e8c57879350505050610df3565b611e9883828703612a0a565b9150505b633b9aca00811315611ead57600080fd5b611a2d8782612a8c565b6000806000611ec4612aa5565b600094855260205250506040909120546001600160a01b03811692600160a01b90910460ff169150565b600080610b446009610f77565b600080611f06612ab2565b6000938452602052505060409020546001600160a01b031690565b600080600080600080611f32612abf565b6001600160a01b039097166000908152602097909752505060409094205461ffff81169563ffffffff62010000830481169650600160301b830416945060ff600160501b8304169350600160581b90910460d81b9150565b600080600080611f98612acc565b6001600160a01b0395909516600090815260209590955250506040909220546bffffffffffffffffffffffff811693600160601b82046fffffffffffffffffffffffffffffffff169350600160e01b90910463ffffffff169150565b611ffc613d37565b612004613d37565b60ff8416612013579050610b8e565b61201d8585610d05565b815260ff841660608201528267ffffffffffffffff8111801561203f57600080fd5b5060405190808252806020026020018201604052801561207957816020015b612066613cfc565b81526020019060019003908161205e5790505b506020820152949350505050565b600081608001516000141561209e5750600061032d565b60808201516276a70090610f899061278d565b602082015151516000906060908067ffffffffffffffff811180156120d557600080fd5b506040519080825280602002602001820160405280156120ff578160200160208202803683370190505b50915061210a613d5f565b60005b828110156121f557865161212890836001808501908a6124fa565b6000876020015160000151828151811061213e57fe5b6020026020010151905060008160200151905060008061215e848761260e565b915091506121876121808c60c001518d600001516000015161ffff1686612ad9565b8290610ca4565b88868151811061219357fe5b60200260200101818152505060006121d66117456121ca8b89815181106121b657fe5b6020026020010151878f8c60c00151612689565b8e516040015190611124565b90506121e28a82610ca4565b9950506001909401935061210d92505050565b5050509250929050565b60006002821161221157506000610df3565b600061221d8787611ab8565b90508061222b579050610df3565b60006122368561278d565b90508581141561226057507440008000000200200000000200000020000000002019169050610df3565b60015b8481116122a0576000612275826127a9565b8301905060006122858983612b1e565b509050612294858260006123ef565b94505050600101612263565b508192505050610df3565b600080610b44600b610f77565b6000816122c75750600061032d565b6122d082612c26565b60ff036001019050919050565b6000816122e957600080fd5b6101008211156122f857600080fd5b600061230384610b4a565b90506000605a841161231e5750620151808302019050610b44565b60878411612346575060591983016207e900908102908206909103016276a700019050610b44565b60c3841161236f5750608619830162278d00908102908206909103016301da9c00019050610b44565b5060c21983016276a70090810290820690910301630b1fa800019050610b44565b60008061239e888888612ad9565b90508486116123ae5790506123e5565b60006123bb858888611d33565b905083156123d9576123d08583898985611e23565b925050506123e5565b6123d082888884612689565b9695505050505050565b60006001831015801561240457506101008311155b61240d57600080fd5b81156124265750600160ff1b60001983011c8317610b8e565b50600160ff1b60001983011c198316610b8e565b6000806000851161245d5760405162461bcd60e51b81526004016101f7906141b5565b600785111561247e5760405162461bcd60e51b81526004016101f790614237565b60006124898461278d565b905060015b8681116124e15760006124aa6124a3836127a9565b849061284d565b9050868114156124c2575092506000915061083d9050565b868111156124d8575092506001915061083d9050565b5060010161248e565b5060405162461bcd60e51b81526004016101f7906142b5565b8260011115801561250f575084602001518311155b61252b5760405162461bcd60e51b81526004016101f790614267565b6000612548612539856127a9565b6125428461278d565b9061284d565b905061256d866000015161ffff168284866125628b6126da565b8a9493929190612cbf565b505050505050565b6000806125858560400151611be0565b801561259657506000856060015112155b61259f57600080fd5b8251855161ffff909116146125b357600080fd5b60006125cc866040015185612ce990919063ffffffff16565b60ff1690506125e985606001518760600151838860800151612d1e565b925061260385604001518760600151838860800151612d1e565b915050935093915050565b60008061261e8460400151611be0565b801561262f57506000846060015112155b61263857600080fd5b61265b83608001516110d986606001518660600151611a3990919063ffffffff16565b915061268083608001516110d986606001518660400151611a3990919063ffffffff16565b90509250929050565b60008461269857506000610c9c565b60006126a48585612998565b905060006126b28285612a0a565b9050633b9aca008113156126c557600080fd5b6126cf8782612a8c565b979650505050505050565b6060015161012c60089190911c60ff160290565b6000806126f9612d35565b905060006276a70061270a8561278d565b6000898152602085815260408083208b84528252808320949093018083529390522080549192509063ffffffff600160a01b8204811691600160c01b8104821691600160e01b90910416816127715760405162461bcd60e51b81526004016101f790614185565b61277e8184848c8c612d42565b9b9a5050505050505050505050565b60006276a70082101561279f57600080fd5b6276a70082610b62565b600081600114156127be57506276a70061032d565b81600214156127d1575062ed4e0061032d565b81600314156127e557506301da9c0061032d565b81600414156127f957506303b5380061032d565b816005141561280d57506309450c0061032d565b8160061415612821575063128a180061032d565b81600714156128355750632514300061032d565b60405162461bcd60e51b81526004016101f7906141e4565b600082820183811015610b8e576040805162461bcd60e51b815260206004820152601b60248201527f536166654d6174683a206164646974696f6e206f766572666c6f770000000000604482015290519081900360640190fd5b80516000906001600160a01b03166128c15750600061032d565b600082600001516001600160a01b031663dd30a6666040518163ffffffff1660e01b815260040160206040518083038186803b15801561290057600080fd5b505afa158015612914573d6000803e3d6000fd5b505050506040513d601f19601f82011682018060405250810190610b8e9190613ea8565b600081861061294657600080fd5b84821061295257600080fd5b83831061297e57612977846125428888036129718388038b8803612dd5565b90612e2e565b9050610df3565b6129776129958787036129718688038a8703612dd5565b85905b6000828211156129ef576040805162461bcd60e51b815260206004820152601e60248201527f536166654d6174683a207375627472616374696f6e206f766572666c6f770000604482015290519081900360640190fd5b50900390565b606001516207a12060289190911c60ff160290565b600080612a27612a226301da9c006129718688612dd5565b612e95565b9050612a3981621dcd6560491b612eb3565b9050612a4c612a4782612f06565b612f28565b9050612a5e81621dcd6560491b612f7d565b90506000612a6b82612fb3565b60070b95945050505050565b606001516207a12060209190911c60ff160290565b6000610b8e612a9b8484611a39565b633b9aca00611a87565b600080610b44600f610f77565b600080610b446003610f77565b600080610b446002610f77565b600080610b446011610f77565b600080612ae4612fbc565b6001600160a01b03861660009081526020918252604080822087835283528082208683529092522054600f90810b900b9150509392505050565b6000806000612b2c85610b4a565b905062015180840615612b46576000809250925050610e51565b838110612b5a576000809250925050610e51565b6201518081850304605a8111612b7757925060019150610e519050565b6101688111612bb6576000620151806207e900840604820160591901905060068104605a0160068281612ba657fe5b0660001494509450505050610e51565b6108708111612be65760006201518062278d00840604820161016719019050601e8104608701601e8281612ba657fe5b611de28111612c16576000620151806276a700840604820161086f19019050605a810460c301605a8281612ba657fe5b5061010095600095509350505050565b600081612c3257600080fd5b600160801b8210612c4557608091821c91015b600160401b8210612c5857604091821c91015b6401000000008210612c6c57602091821c91015b620100008210612c7e57601091821c91015b6101008210612c8f57600891821c91015b60108210612c9f57600491821c91015b60048210612caf57600291821c91015b6002821061032d57600101919050565b60006276a700612cce8561278d565b019050612ce087878787878787612fc9565b50505050505050565b600060028210801590612cfd575060088211155b612d0657600080fd5b50606082015160486008600119840102011c92915050565b6000610df3826110d9606481876110d38b8b611a39565b600080610b44600a610f77565b6000808311612d5057600080fd5b81861115612d5f575083610df3565b6000612d6b8388612998565b905083811115612d7e5785915050610df3565b6000612d928561297184633b9aca00612dd5565b90506000612da4633b9aca0083612998565b90506000612dc7633b9aca00612971612dbd8b86612dd5565b6125428d88612dd5565b9a9950505050505050505050565b600082612de457506000610b44565b82820282848281612df157fe5b0414610b8e5760405162461bcd60e51b81526004018080602001828103825260218152602001806144286021913960400191505060405180910390fd5b6000808211612e84576040805162461bcd60e51b815260206004820152601a60248201527f536166654d6174683a206469766973696f6e206279207a65726f000000000000604482015290519081900360640190fd5b818381612e8d57fe5b049392505050565b6000677fffffffffffffff821115612eac57600080fd5b5060401b90565b600081600f0b60001415612ec657600080fd5b600082600f0b604085600f0b901b81612edb57fe5b05905060016001607f1b03198112801590612efd575060016001607f1b038113155b610b8e57600080fd5b6000600f82900b60016001607f1b03191415612f2157600080fd5b5060000390565b6000600160461b82600f0b12612f3d57600080fd5b683fffffffffffffffff1982600f0b1215612f5a5750600061032d565b610b44608083600f0b700171547652b82fe1777d0ffda0d23a7d1202901d613000565b6000600f83810b9083900b0260401d60016001607f1b03198112801590612efd575060016001607f1b03811315610b8e57600080fd5b600f0b60401d90565b600080610b44600c610f77565b612fd68787878685613ab2565b612fef8760e001518860a001518960c001518588612d42565b60c090970196909652505050505050565b6000600160461b82600f0b1261301557600080fd5b683fffffffffffffffff1982600f0b12156130325750600061032d565b6001607f1b60006780000000000000008416600f0b13156130645770016a09e667f3bcc908b2fb1366ea957d3e0260801c5b60008367400000000000000016600f0b1315613091577001306fe0a31b7152de8d5a46305c85edec0260801c5b60008367200000000000000016600f0b13156130be577001172b83c7d517adcdf7c8c50eb14a791f0260801c5b60008367100000000000000016600f0b13156130eb5770010b5586cf9890f6298b92b71842a983630260801c5b60008367080000000000000016600f0b1315613118577001059b0d31585743ae7c548eb68ca417fd0260801c5b60008367040000000000000016600f0b131561314557700102c9a3e778060ee6f7caca4f7a29bde80260801c5b60008367020000000000000016600f0b13156131725770010163da9fb33356d84a66ae336dcdfa3f0260801c5b600083600160381b16600f0b131561319b57700100b1afa5abcbed6129ab13ec11dc95430260801c5b600083668000000000000016600f0b13156131c75770010058c86da1c09ea1ff19d294cf2f679b0260801c5b600083664000000000000016600f0b13156131f3577001002c605e2e8cec506d21bfc89a23a00f0260801c5b600083662000000000000016600f0b131561321f57700100162f3904051fa128bca9c55c31e5df0260801c5b600083661000000000000016600f0b131561324b577001000b175effdc76ba38e31671ca9397250260801c5b600083660800000000000016600f0b131561327757700100058ba01fb9f96d6cacd4b180917c3d0260801c5b600083660400000000000016600f0b13156132a35770010002c5cc37da9491d0985c348c68e7b30260801c5b600083660200000000000016600f0b13156132cf577001000162e525ee054754457d59952920260260801c5b600083600160301b16600f0b13156132f85770010000b17255775c040618bf4a4ade83fc0260801c5b6000836580000000000016600f0b1315613323577001000058b91b5bc9ae2eed81e9b7d4cfab0260801c5b6000836540000000000016600f0b131561334e57700100002c5c89d5ec6ca4d7c8acc017b7c90260801c5b6000836520000000000016600f0b13156133795770010000162e43f4f831060e02d839a9d16d0260801c5b6000836510000000000016600f0b13156133a457700100000b1721bcfc99d9f890ea069117630260801c5b6000836508000000000016600f0b13156133cf5770010000058b90cf1e6d97f9ca14dbcc16280260801c5b6000836504000000000016600f0b13156133fa577001000002c5c863b73f016468f6bac5ca2b0260801c5b6000836502000000000016600f0b131561342557700100000162e430e5a18f6119e3c02282a50260801c5b6000836501000000000016600f0b1315613450577001000000b1721835514b86e6d96efd1bfe0260801c5b60008364800000000016600f0b131561347a57700100000058b90c0b48c6be5df846c5b2ef0260801c5b60008364400000000016600f0b13156134a45770010000002c5c8601cc6b9e94213c72737a0260801c5b60008364200000000016600f0b13156134ce577001000000162e42fff037df38aa2b219f060260801c5b60008364100000000016600f0b13156134f85770010000000b17217fba9c739aa5819f44f90260801c5b60008364080000000016600f0b1315613522577001000000058b90bfcdee5acd3c1cedc8230260801c5b60008364040000000016600f0b131561354c57700100000002c5c85fe31f35a6a30da1be500260801c5b60008364020000000016600f0b13156135765770010000000162e42ff0999ce3541b9fffcf0260801c5b60008364010000000016600f0b13156135a057700100000000b17217f80f4ef5aadda455540260801c5b600083638000000016600f0b13156135c95770010000000058b90bfbf8479bd5a81b51ad0260801c5b600083634000000016600f0b13156135f2577001000000002c5c85fdf84bd62ae30a74cc0260801c5b600083632000000016600f0b131561361b57700100000000162e42fefb2fed257559bdaa0260801c5b600083631000000016600f0b1315613644577001000000000b17217f7d5a7716bba4a9ae0260801c5b600083630800000016600f0b131561366d57700100000000058b90bfbe9ddbac5e109cce0260801c5b600083630400000016600f0b13156136965770010000000002c5c85fdf4b15de6f17eb0d0260801c5b600083630200000016600f0b13156136bf577001000000000162e42fefa494f1478fde050260801c5b600083630100000016600f0b13156136e85770010000000000b17217f7d20cf927c8e94c0260801c5b6000836280000016600f0b1315613710577001000000000058b90bfbe8f71cb4e4b33d0260801c5b6000836240000016600f0b131561373857700100000000002c5c85fdf477b662b269450260801c5b6000836220000016600f0b13156137605770010000000000162e42fefa3ae53369388c0260801c5b6000836210000016600f0b131561378857700100000000000b17217f7d1d351a389d400260801c5b6000836208000016600f0b13156137b05770010000000000058b90bfbe8e8b2d3d4ede0260801c5b6000836204000016600f0b13156137d8577001000000000002c5c85fdf4741bea6e77e0260801c5b6000836202000016600f0b131561380057700100000000000162e42fefa39fe95583c20260801c5b6000836201000016600f0b1315613828577001000000000000b17217f7d1cfb72b45e10260801c5b60008361800016600f0b131561384f57700100000000000058b90bfbe8e7cc35c3f00260801c5b60008361400016600f0b13156138765770010000000000002c5c85fdf473e242ea380260801c5b60008361200016600f0b131561389d577001000000000000162e42fefa39f02b772c0260801c5b60008361100016600f0b13156138c45770010000000000000b17217f7d1cf7d83c1a0260801c5b60008361080016600f0b13156138eb577001000000000000058b90bfbe8e7bdcbe2e0260801c5b60008361040016600f0b131561391257700100000000000002c5c85fdf473dea871f0260801c5b60008361020016600f0b13156139395770010000000000000162e42fefa39ef44d910260801c5b60008361010016600f0b131561396057700100000000000000b17217f7d1cf79e9490260801c5b600083608016600f0b13156139865770010000000000000058b90bfbe8e7bce5440260801c5b600083604016600f0b13156139ac577001000000000000002c5c85fdf473de6eca0260801c5b600083602016600f0b13156139d257700100000000000000162e42fefa39ef366f0260801c5b600083601016600f0b13156139f8577001000000000000000b17217f7d1cf79afa0260801c5b600083600816600f0b1315613a1e57700100000000000000058b90bfbe8e7bcd6d0260801c5b600083600416600f0b1315613a445770010000000000000002c5c85fdf473de6b20260801c5b600083600216600f0b1315613a6a577001000000000000000162e42fefa39ef3580260801c5b600083600116600f0b1315613a905770010000000000000000b17217f7d1cf79ab0260801c5b600f83810b60401d603f03900b1c60016001607f1b03811115610b4457600080fd5b6000613abc612d35565b6000868152602082815260408083208884528252808320868452825291829020808a52908901879052805469ffffffffffffffffffff808216938b0193909352600160501b810490921660608a015263ffffffff600160a01b8304811660a08b0152600160c01b8304811660c08b0152600160e01b90920490911660e0890152909150808415613b6157600182015469ffffffffffffffffffff166080890152613b69565b600060808901525b5050505050505050565b6040805160a08101825260008082526020820181905291810182905260608101829052608081019190915290565b60405180610160016040528060006001600160a01b031681526020016000815260200160008152602001600081526020016000815260200160006001600160d01b0319168152602001613bf2613ca3565b8152602001613bff613ca3565b8152602001613c0c613cd2565b8152602001613c19613c84565b8152600060209091015290565b6040518061010001604052806000815260200160001515815260200160008152602001613c51613c84565b8152602001613c5e613d5f565b815260200160608152602001613c72613cd2565b8152602001613c7f613da7565b905290565b6040805160808101825260008082526020820152908101613c19613cd2565b6040518060a0016040528060008152602001600081526020016000815260200160008152602001600081525090565b604051806060016040528060006001600160a01b0316815260200160008152602001600081525090565b6040518060c00160405280600081526020016000815260200160008152602001600081526020016000815260200160006003811115613c7f57fe5b6040518060800160405280606081526020016060815260200160008152602001600081525090565b60405180610100016040528060008019168152602001600081526020016000815260200160008152602001600081526020016000815260200160008152602001600081525090565b6040518060e00160405280613dba613c84565b8152602001613dc7613d37565b815260006020820181905260408201819052606082018190526080820181905260a09091015290565b80356001600160a01b038116811461032d57600080fd5b80516001600160701b03198116811461032d57600080fd5b805161ffff8116811461032d57600080fd5b805169ffffffffffffffffffff8116811461032d57600080fd5b805160ff8116811461032d57600080fd5b600060208284031215613e6d578081fd5b610b8e82613df0565b600080600060608486031215613e8a578182fd5b613e9384613df0565b95602085013595506040909401359392505050565b600060208284031215613eb9578081fd5b5051919050565b600060a08284031215613ed1578081fd5b60405160a0810181811067ffffffffffffffff82111715613eee57fe5b604052825164ffffffffff81168114613f05578283fd5b815260208301516001600160f81b031981168114613f21578283fd5b6020820152613f3260408401613e4b565b6040820152613f4360608401613e1f565b6060820152613f5460808401613e07565b60808201529392505050565b600080600080600060a08688031215613f77578081fd5b613f8086613e31565b9450602086015193506040860151925060608601519150613fa360808701613e31565b90509295509295909350565b6001600160a01b03169052565b6000815180845260208085019450808401835b8381101561402957815180518852838101518489015260408082015190890152606080820151908901526080808201519089015260a090810151906004821061401457fe5b88015260c09096019590820190600101613fcf565b509495945050505050565b15159052565b6001600160d01b0319169052565b805164ffffffffff1682526020808201516001600160f81b0319169083015260408082015160ff169083015260608082015161ffff16908301526080908101516001600160701b031916910152565b80516001600160a01b0316825260208082015190830152604090810151910152565b61ffff81511682526020810151602083015260408101516140dd6040840182614097565b506060015160a09190910152565b80518252602081015160208301526040810151604083015260608101516060830152608081015160808301525050565b6001600160a01b038316815260c08101610b8e6020830184614048565b60006040820184835260206040818501528185518084526060860191508287019350845b818110156141785784518352938301939183019160010161415c565b5090979650505050505050565b60208082526016908201527513585c9ad95d081b9bdd081a5b9a5d1a585b1a5e995960521b604082015260600190565b60208082526015908201527410d1ce881b9bc81b585c9ad95d1cc81b1a5cdd1959605a1b604082015260600190565b6020808252600d908201526c092dcecc2d8d2c840d2dcc8caf609b1b604082015260600190565b602080825260129082015271105cdcd95d1cc81b9bdd081cd95d1d1b195960721b604082015260600190565b60208082526016908201527510d1ce881b585c9ad95d081a5b99195e08189bdd5b9960521b604082015260600190565b6020808252600e908201526d125b9d985b1a59081b585c9ad95d60921b604082015260600190565b6020808252600c908201526b496e76616c6964207261746560a01b604082015260600190565b60208082526013908201527210d1ce881b9bc81b585c9ad95d08199bdd5b99606a1b604082015260600190565b60208082526015908201527414dd59999a58da595b9d0818dbdb1b185d195c985b605a1b604082015260600190565b6020808252601c908201527f496e73756666696369656e74206672656520636f6c6c61746572616c00000000604082015260600190565b60006104006143578387614048565b61436560a084018651613faf565b602085015160c0840152604085015160e08401526060850151610100818186015260808701519150610120828187015260a088015192506101406143ab8188018561403a565b60c089015193506143c06101608801856140eb565b60e089015193506143d56102008801856140eb565b8289015193506143e96102a0880185614097565b8189015193506143fd6103008801856140b9565b88015192506144139150506103c0850182614034565b50806103e08401526123e581840185613fbc56fe536166654d6174683a206d756c7469706c69636174696f6e206f766572666c6f77a264697066735822122051a037a30d4c45308956656a90ebf1bf25dbffd964553bec3fdb51c5b7ade7a164736f6c63430007060033","bytecodeSha1":"1fc0c28c5b6746f11a1ee0ecbd2704d76037b32f","type":"library","abi":[{"inputs":[{"internalType":"address","name":"account","type":"address"}],"name":"getFreeCollateralView","outputs":[{"internalType":"int256","name":"","type":"int256"},{"internalType":"int256[]","name":"","type":"int256[]"}],"stateMutability":"view","type":"function"}],"compiler":{"version":"0.7.6+commit.7338295f","evm_version":"istanbul","optimizer":{"enabled":true,"runs":200}},"contractName":"FreeCollateralExternal","deployedBytecode":"730000000000000000000000000000000000000000301460806040526004361061004b5760003560e01c8063451d958f146100505780636cb65eaf146100885780636ccc642f146100a9575b600080fd5b81801561005c57600080fd5b5061007061006b366004613e76565b6100cb565b60405161007f93929190614348565b60405180910390f35b61009b610096366004613e5c565b6101c0565b60405161007f929190614138565b8180156100b557600080fd5b506100c96100c4366004613e5c565b610215565b005b6100d3613b73565b6100db613ba1565b60606100e686610291565b92506100f183610332565b15610182576040516337b5fc2160e11b815273__$f6541b0d362a0c7d99a2a29cd3d373d61b$__90636f6bf8429061012f908990879060040161411b565b60a06040518083038186803b15801561014757600080fd5b505af415801561015b573d6000803e3d6000fd5b505050506040513d601f19601f8201168201806040525081019061017f9190613ec0565b92505b61018b83610386565b156101a457826060015161ffff1685146101a457600080fd5b6101b18684428888610393565b93979096509294509192505050565b6000606060006101cf84610291565b90506101da81610332565b156102005760405162461bcd60e51b81526004016101f79061420b565b60405180910390fd5b61020b8482426105f0565b9250925050915091565b600061022082610291565b905061022b81610332565b156102485760405162461bcd60e51b81526004016101f79061420b565b600080610256848442610845565b91509150801561026a5761026a8385610a33565b600082121561028b5760405162461bcd60e51b81526004016101f790614311565b50505050565b610299613b73565b60006102a3610b37565b6001600160a01b03841660009081526020918252604090819020815160a081018352905464ffffffffff8116825265010000000000810460f81b6001600160f81b03191693820193909352600160301b830460ff1691810191909152600160381b820461ffff166060820152600160481b90910460701b6001600160701b03191660808201529150505b919050565b60004261033e83610386565b1561035f5761034c81610b4a565b835164ffffffffff1610915061032d9050565b825164ffffffffff161580159061037e5750825164ffffffffff168110155b91505061032d565b6060015161ffff16151590565b61039b613ba1565b60606103a5613c26565b6103ad613ba1565b6001600160a01b03891681526103c288610386565b1561049a576103d48860600151610b6b565b6060830152600080806103e98c8b8d88610b95565b92509250925060006103fd8d8c8e89610beb565b905060006104158261040f8787610ca4565b90610ca4565b90508660600151604001518760c00181905250600061043d8e6060015161ffff16838a610cba565b90508b8e6060015161ffff16141561048f576040870182905260c08088018290528801516101008801528a61048f576060880151610120880152608087018590526001600160d01b0319841660a08801525b5050505050506104ae565b6104a8898960400151610d05565b60a08301525b60808801515b6001600160701b0319811615610591576060890151819060009060f083901c613fff169061ffff168114156104e857600080fd5b89811480156104f5575088155b806104ff57508881145b9150506000610511868685858f610d2e565b905060f083901c613fff16600061052982848a610cba565b90508a8214156105555760c0880151610120880151604001526060870183905260e08701819052610576565b8b821415610576576040870183905260c08088018290528801516101008801525b6010866001600160701b031916901b955050505050506104b4565b8251602083018190526000136105b95760405162461bcd60e51b81526004016101f7906142e2565b604089015160ff16156105da576105d48a8a60400151610d05565b60a08401525b5060a09091015190925090509550959350505050565b600060606105fc613c26565b60408051600a8082526101608201909252600091829190602082016101408036833701905050905061062d87610386565b156106d55761063f8760600151610dfc565b60608401526000806106538a898b88610b95565b509150915060006106668b8a8c89610beb565b90506106768161040f8585610ca4565b84868151811061068257fe5b6020026020010181815250508560600151604001518660c001819052506106c58a6060015161ffff168587815181106106b757fe5b602002602001015188610cba565b5050600190930192506106e99050565b6106e3888860400151610d05565b60a08401525b60808701515b6001600160701b0319811615610833576060880151819060f082901c613fff169061ffff1681141561072057600080fd5b600061072c8c84610e13565b86888151811061073857fe5b6020026020010181935082815250505061075183610e58565b8061075c5750600081135b156107d85761076a82610dfc565b606088015260008061077d89848e610e64565b50915091506107ac8161040f848a8c8151811061079657fe5b6020026020010151610ca490919063ffffffff16565b8789815181106107b857fe5b6020908102919091010152505060608701516040015160c08801526107eb565b6107e58261ffff16610f15565b60c08801525b61080d8261ffff168688815181106107ff57fe5b602002602001015189610cba565b505050600193909301925060101b6fffffffffffffffffffffffffffffffff19166106ef565b5091519350909150505b935093915050565b600080610850613c26565b600061085b86610386565b156108e25761086d8660600151610b6b565b606083015260008061088189888a87610b95565b5091509150600082121561089457600192505b60006108a28a898b88610beb565b905060006108b48261040f8686610ca4565b6060808801516040015160c08901528b01519091506108d89061ffff168288610cba565b50505050506108f6565b6108f0878760400151610d05565b60a08301525b60808601515b6001600160701b03198116156109ea576060870151819060f082901c613fff169061ffff1681141561092d57600080fd5b60008061093a8c85610e13565b91509150600082121561094c57600195505b61095584610e58565b806109605750600081135b156109ad5761096e83610b6b565b606088015260008061098189848e610e64565b5090925090506109958161040f8685610ca4565b60608a01516040015160c08b015293506109c0915050565b6109ba8361ffff16610f61565b60c08801525b6109cf8361ffff168389610cba565b506010856001600160701b031916901b9450505050506108fc565b6020870151600160f91b908116148015610a02575081155b15610a1d576020808801805160fd60f81b1690526001908401525b5050805160209091015190969095509350505050565b6000610a3d610b37565b6001600160a01b03831660008181526020838152604080832088518154938a0151838b015160608c015160808d015160701c600160481b027affffffffffffffffffffffffffffffffffff0000000000000000001961ffff909216600160381b0268ffff000000000000001960ff94909416600160301b0266ff0000000000001960f89690961c650100000000000265ff00000000001964ffffffffff90981664ffffffffff19909b169a909a1796909616989098179390931693909317169490941716929092179091555192935090917f6bd4b121bca854a191536a2ca891155c42ee2fb23f307fb34e8bc65cfcb5412e9190a2505050565b600080610b446001610f77565b92915050565b600062015180821015610b5c57600080fd5b62015180825b06909103919050565b610b73613c84565b6000610b828361ffff16610f61565b9050610b8e8382610f90565b9392505050565b600080600080610bad88876060015161ffff16610fd3565b509195509150506000811315610bdb57610bd185606001518660e00151838a61107f565b9093509150610be0565b600092505b509450945094915050565b6000806000610c1687866060015161ffff16876000015164ffffffffff1689886060015160016110f3565b60208701519193509150600160f81b90811614818015610c34575080155b15610c5d5760208681018051600160f81b176001600160f81b0319169052600190860152610c83565b81158015610c685750805b15610c835760208087018051607f60f91b1690526001908601525b606085015160400151610c969084611124565b93505050505b949350505050565b81810182811215600083121514610b4457600080fd5b610cc2613ca3565b6000610ccd8561114f565b9050610cfb610cf3610cec868660c001516112b290919063ffffffff16565b83906112dd565b845190610ca4565b9092525092915050565b60606000610d138484611324565b90506001815111610d25579050610b44565b610b8e81611446565b835160009060f085901c613fff169082908190610d4b9088610e13565b91509150610d5887610e58565b80610d635750600081135b15610ddb57610d7183610b6b565b60608a015260008080610d858c858a610e64565b91945092509050610d9a8261040f8786610ca4565b60608d01516040015160c08e015294508815610dd35760608c01516101208c01526001600160d01b0319811660a08c015260808b018290525b505050610dee565b610de88361ffff16610f61565b60c08a01525b509150505b95945050505050565b610e04613c84565b6000610b828361ffff16610f15565b600080600160fe1b8381161415610e4a5760f083901c613fff16600080610e3a8784610fd3565b509196509450610e519350505050565b5060009050805b9250929050565b600160ff1b9081161490565b60008060008560a00151518660400151108015610eab575085606001516000015161ffff168660a00151876040015181518110610e9d57fe5b602002602001015160000151145b15610ed957610ecd8660a0015187606001518860800151878a604001516115ff565b60408801529250610ede565b600092505b6000851315610f0557610efb86606001518760e00151878761107f565b9092509050610f0c565b5060009050805b93509350939050565b610f1d613cd2565b6000806000610f2b8561175b565b604080516060810182526001600160a01b039093168352602083019390935260ff16600a0a918101919091529350505050919050565b610f69613cd2565b6000806000610f2b8561181c565b6000620f4240826012811115610f8957fe5b0192915050565b610f98613c84565b6000610fa78461ffff166118a1565b6040805160808101825261ffff96909616865260ff821660208701528501939093525050606082015290565b6000806000806000610fe36118be565b6001600160a01b0388166000908152602082815260408083208a84529091529020805469ffffffffffffffffffff81169650600160501b900463ffffffff169450909150831561104f57805461104890600160701b900466ffffffffffffff166118cb565b9250611064565b8054600160701b900466ffffffffffffff1692505b54600160a81b9004600a90810b900b97939650919450925050565b835160009081906110919086906118d9565b85855260006110a0868561197c565b905060006110df87604001516110d960646110d98b60a00151600360ff16600681106110c857fe5b1a6110d38c89611a39565b90611a39565b90611a87565b60a097909701519698969750505050505050565b60008060006111028989611ab8565b905061111389898989898987611aed565b92509250505b965096945050505050565b600080610c9c84602001516110d986604001516110d36402540be40088611a3990919063ffffffff16565b611157613ca3565b6000611161611b6b565b600084815260208290526040812091925080600186141561118e5750670de0b6b3a7640000905080611264565b825460408051633fabe5a360e21b815290516001600160a01b039092169163feaf968c9160048082019260a092909190829003018186803b1580156111d257600080fd5b505afa1580156111e6573d6000803e3d6000fd5b505050506040513d601f19601f8201168201806040525081019061120a9190613f60565b509193505060008313915061123390505760405162461bcd60e51b81526004016101f79061428f565b825460ff600160a01b82048116600a0a9350600160a81b909104161561126457611261816110d98480611a39565b90505b6040805160a0810182529283526020830191909152915460ff600160b01b8204811693830193909352600160b81b810483166060830152600160c01b90049091166080820152915050919050565b600080610c9c84604001516110d96402540be4006110d9878960200151611a3990919063ffffffff16565b600080600083136112f25783604001516112f8565b83606001515b90506000610df385600001516110d960646110d9866110d38b602001518b611a3990919063ffffffff16565b606060108260ff16111561133757600080fd5b6000611341611b78565b6001600160a01b038516600090815260208290526040812091925060ff851667ffffffffffffffff8111801561137657600080fd5b506040519080825280602002602001820160405280156113b057816020015b61139d613cfc565b8152602001906001900390816113955790505b50905060005b8560ff1681101561143c5760008382601081106113cf57fe5b01905060008383815181106113e057fe5b602090810291909101810151835461ffff8116825264ffffffffff620100008204169282019290925260ff600160381b8304166040820152600160401b909104600a90810b900b606082015260800191909152506001016113b6565b5095945050505050565b805160008167ffffffffffffffff8111801561146157600080fd5b5060405190808252806020026020018201604052801561148b578160200160208202803683370190505b50905060005b828110156114e85760008482815181106114a757fe5b602002602001015190506114c8816000015182602001518360400151611b85565b8383815181106114d457fe5b602090810291909101015250600101611491565b5060015b8281101561028b57805b60008111801561152e575082818151811061150d57fe5b602002602001015183600183038151811061152457fe5b6020026020010151115b156115f65782818151811061153f57fe5b602002602001015183600183038151811061155657fe5b602002602001015184600184038151811061156d57fe5b6020026020010185848151811061158057fe5b602002602001018281525082815250505084818151811061159d57fe5b60200260200101518560018303815181106115b457fe5b60200260200101518660018403815181106115cb57fe5b602002602001018784815181106115de57fe5b602090810291909101019190915252600019016114f6565b506001016114ec565b6000808080845b895181101561169d5761162f8a828151811061161e57fe5b602002602001015160400151611be0565b61163857611695565b886000015161ffff168a828151811061164d57fe5b602002602001015160000151146116635761169d565b600080611675838c8c8f8d6001611bf6565b90925090506116848583610ca4565b94506116908482610ca4565b935050505b600101611606565b50845b89518110156117325760008a82815181106116b757fe5b60200260200101519050600160ff168160400151146116d6575061172a565b8951815161ffff909116146116eb5750611732565b60208101516000906116ff908c908b611d33565b905060006117188c846060015185602001518d86611e23565b90506117248582610ca4565b94505050505b6001016116a0565b604089015161174c906117459084611124565b8490610ca4565b9a909950975050505050505050565b600080600080600061176c86611eb7565b909250905060006001600160a01b0383166117915750600090506402540be400611811565b826001600160a01b031663b2fffb046040518163ffffffff1660e01b815260040160206040518083038186803b1580156117ca57600080fd5b505afa1580156117de573d6000803e3d6000fd5b505050506040513d601f19601f820116820180604052508101906118029190613ea8565b90506000811361181157600080fd5b969195509350915050565b600080600080600061182d86611eb7565b909250905060006001600160a01b0383166118525750600090506402540be400611811565b826001600160a01b0316631ee108336040518163ffffffff1660e01b8152600401602060405180830381600087803b15801561188d57600080fd5b505af11580156117de573d6000803e3d6000fd5b6000806118ac611eee565b60009384526020525050604090205490565b600080610b446006610f77565b600881901c60ff9091161b90565b6118e68161ffff16611efb565b6001600160a01b031660c083018190526000908190819061190690611f21565b9450945094505050600061191d8660c00151611f8a565b505060808701859052604087018190526001600160d81b0319831660a088015260c087015190915061195190846000611ff4565b602087015260c08601516119699061ffff8716610fd3565b5050506060909601959095525050505050565b60008060008061198b86612087565b905084811161199b576001810394505b5060006119a886866120b1565b50905060006119d68760c0015188600001516000015161ffff168960800151898b60000151602001516121ff565b905060008115611a085760c08801518851805160808b0151611a04939261ffff909216918b90600088611aed565b5090505b6060880151885160400151611a2d919061040f90611a269085611124565b8690610ca4565b98975050505050505050565b818102600019831415611a6957811580611a5b575082828281611a5857fe5b05145b611a6457600080fd5b610b44565b821580611a7e575081838281611a7b57fe5b05145b610b4457600080fd5b600081600019148015611a9d5750600160ff1b83145b15611aa757600080fd5b818381611ab057fe5b059392505050565b600080611ac36122ab565b6001600160a01b038516600090815260209182526040808220868352909252205491505092915050565b6000806000611afb846122b8565b90505b8015611b5e576000611b1089836122dd565b90506000611b228c8c848c8c8c612390565b9050611b2e8582610ca4565b94506000811215611b3e57600193505b611b4a868460006123ef565b9550611b55866122b8565b92505050611afe565b5097509795505050505050565b600080610b446010610f77565b600080610b44600d610f77565b6000613fff841115611b9657600080fd5b64ffffffffff831115611ba857600080fd5b6008821115611bb657600080fd5b5067ffff000000000000603084901b1665ffffffffff00600884901b161760ff8216179392505050565b600060028210801590610b445750506008101590565b6000806000858981518110611c0757fe5b60200260200101519050600080611c278a6020015184602001518961243a565b915091508015611c3657600080fd5b611c448a8a8460018b6124fa565b50506000808515611c6457611c5a838a8c612575565b9092509050611c74565b611c6e838a61260e565b90925090505b8a15611cf15760008860018d0381518110611c8b57fe5b60200260200101519050600160ff168160400151148015611cad575083518151145b8015611cc0575083602001518160200151145b15611cef576060810151611cd49083610ca4565b6060820152600360a090910152509250600091506111199050565b505b8515611d1d576000611d0e8b8386602001518b8e60c00151611e23565b92955091935061111992505050565b6000611d0e8285602001518a8d60c00151612689565b6000806000611d478660200151868661243a565b915091506000611d56876126da565b905081611d79578651611d6f9061ffff168783886126ee565b9350505050610b8e565b6000611d848661278d565b90506000611d9b611d94866127a9565b839061284d565b90506000611db38a6000015161ffff1683868b6126ee565b90506000808760011415611dd857899150611dd18c604001516128a7565b9050611e07565b611dee611de760018a036127a9565b869061284d565b9150611e048c6000015161ffff1683888d6126ee565b90505b611e14828583868f612938565b98505050505050505050610b8e565b600084611e3257506000610df3565b6000611e3e8585612998565b9050600080871315611e6d57611e6682611e61611e5a8b6129f5565b879061284d565b612a0a565b9050611e9c565b6000611e7889612a77565b9050848110611e8c57879350505050610df3565b611e9883828703612a0a565b9150505b633b9aca00811315611ead57600080fd5b611a2d8782612a8c565b6000806000611ec4612aa5565b600094855260205250506040909120546001600160a01b03811692600160a01b90910460ff169150565b600080610b446009610f77565b600080611f06612ab2565b6000938452602052505060409020546001600160a01b031690565b600080600080600080611f32612abf565b6001600160a01b039097166000908152602097909752505060409094205461ffff81169563ffffffff62010000830481169650600160301b830416945060ff600160501b8304169350600160581b90910460d81b9150565b600080600080611f98612acc565b6001600160a01b0395909516600090815260209590955250506040909220546bffffffffffffffffffffffff811693600160601b82046fffffffffffffffffffffffffffffffff169350600160e01b90910463ffffffff169150565b611ffc613d37565b612004613d37565b60ff8416612013579050610b8e565b61201d8585610d05565b815260ff841660608201528267ffffffffffffffff8111801561203f57600080fd5b5060405190808252806020026020018201604052801561207957816020015b612066613cfc565b81526020019060019003908161205e5790505b506020820152949350505050565b600081608001516000141561209e5750600061032d565b60808201516276a70090610f899061278d565b602082015151516000906060908067ffffffffffffffff811180156120d557600080fd5b506040519080825280602002602001820160405280156120ff578160200160208202803683370190505b50915061210a613d5f565b60005b828110156121f557865161212890836001808501908a6124fa565b6000876020015160000151828151811061213e57fe5b6020026020010151905060008160200151905060008061215e848761260e565b915091506121876121808c60c001518d600001516000015161ffff1686612ad9565b8290610ca4565b88868151811061219357fe5b60200260200101818152505060006121d66117456121ca8b89815181106121b657fe5b6020026020010151878f8c60c00151612689565b8e516040015190611124565b90506121e28a82610ca4565b9950506001909401935061210d92505050565b5050509250929050565b60006002821161221157506000610df3565b600061221d8787611ab8565b90508061222b579050610df3565b60006122368561278d565b90508581141561226057507440008000000200200000000200000020000000002019169050610df3565b60015b8481116122a0576000612275826127a9565b8301905060006122858983612b1e565b509050612294858260006123ef565b94505050600101612263565b508192505050610df3565b600080610b44600b610f77565b6000816122c75750600061032d565b6122d082612c26565b60ff036001019050919050565b6000816122e957600080fd5b6101008211156122f857600080fd5b600061230384610b4a565b90506000605a841161231e5750620151808302019050610b44565b60878411612346575060591983016207e900908102908206909103016276a700019050610b44565b60c3841161236f5750608619830162278d00908102908206909103016301da9c00019050610b44565b5060c21983016276a70090810290820690910301630b1fa800019050610b44565b60008061239e888888612ad9565b90508486116123ae5790506123e5565b60006123bb858888611d33565b905083156123d9576123d08583898985611e23565b925050506123e5565b6123d082888884612689565b9695505050505050565b60006001831015801561240457506101008311155b61240d57600080fd5b81156124265750600160ff1b60001983011c8317610b8e565b50600160ff1b60001983011c198316610b8e565b6000806000851161245d5760405162461bcd60e51b81526004016101f7906141b5565b600785111561247e5760405162461bcd60e51b81526004016101f790614237565b60006124898461278d565b905060015b8681116124e15760006124aa6124a3836127a9565b849061284d565b9050868114156124c2575092506000915061083d9050565b868111156124d8575092506001915061083d9050565b5060010161248e565b5060405162461bcd60e51b81526004016101f7906142b5565b8260011115801561250f575084602001518311155b61252b5760405162461bcd60e51b81526004016101f790614267565b6000612548612539856127a9565b6125428461278d565b9061284d565b905061256d866000015161ffff168284866125628b6126da565b8a9493929190612cbf565b505050505050565b6000806125858560400151611be0565b801561259657506000856060015112155b61259f57600080fd5b8251855161ffff909116146125b357600080fd5b60006125cc866040015185612ce990919063ffffffff16565b60ff1690506125e985606001518760600151838860800151612d1e565b925061260385604001518760600151838860800151612d1e565b915050935093915050565b60008061261e8460400151611be0565b801561262f57506000846060015112155b61263857600080fd5b61265b83608001516110d986606001518660600151611a3990919063ffffffff16565b915061268083608001516110d986606001518660400151611a3990919063ffffffff16565b90509250929050565b60008461269857506000610c9c565b60006126a48585612998565b905060006126b28285612a0a565b9050633b9aca008113156126c557600080fd5b6126cf8782612a8c565b979650505050505050565b6060015161012c60089190911c60ff160290565b6000806126f9612d35565b905060006276a70061270a8561278d565b6000898152602085815260408083208b84528252808320949093018083529390522080549192509063ffffffff600160a01b8204811691600160c01b8104821691600160e01b90910416816127715760405162461bcd60e51b81526004016101f790614185565b61277e8184848c8c612d42565b9b9a5050505050505050505050565b60006276a70082101561279f57600080fd5b6276a70082610b62565b600081600114156127be57506276a70061032d565b81600214156127d1575062ed4e0061032d565b81600314156127e557506301da9c0061032d565b81600414156127f957506303b5380061032d565b816005141561280d57506309450c0061032d565b8160061415612821575063128a180061032d565b81600714156128355750632514300061032d565b60405162461bcd60e51b81526004016101f7906141e4565b600082820183811015610b8e576040805162461bcd60e51b815260206004820152601b60248201527f536166654d6174683a206164646974696f6e206f766572666c6f770000000000604482015290519081900360640190fd5b80516000906001600160a01b03166128c15750600061032d565b600082600001516001600160a01b031663dd30a6666040518163ffffffff1660e01b815260040160206040518083038186803b15801561290057600080fd5b505afa158015612914573d6000803e3d6000fd5b505050506040513d601f19601f82011682018060405250810190610b8e9190613ea8565b600081861061294657600080fd5b84821061295257600080fd5b83831061297e57612977846125428888036129718388038b8803612dd5565b90612e2e565b9050610df3565b6129776129958787036129718688038a8703612dd5565b85905b6000828211156129ef576040805162461bcd60e51b815260206004820152601e60248201527f536166654d6174683a207375627472616374696f6e206f766572666c6f770000604482015290519081900360640190fd5b50900390565b606001516207a12060289190911c60ff160290565b600080612a27612a226301da9c006129718688612dd5565b612e95565b9050612a3981621dcd6560491b612eb3565b9050612a4c612a4782612f06565b612f28565b9050612a5e81621dcd6560491b612f7d565b90506000612a6b82612fb3565b60070b95945050505050565b606001516207a12060209190911c60ff160290565b6000610b8e612a9b8484611a39565b633b9aca00611a87565b600080610b44600f610f77565b600080610b446003610f77565b600080610b446002610f77565b600080610b446011610f77565b600080612ae4612fbc565b6001600160a01b03861660009081526020918252604080822087835283528082208683529092522054600f90810b900b9150509392505050565b6000806000612b2c85610b4a565b905062015180840615612b46576000809250925050610e51565b838110612b5a576000809250925050610e51565b6201518081850304605a8111612b7757925060019150610e519050565b6101688111612bb6576000620151806207e900840604820160591901905060068104605a0160068281612ba657fe5b0660001494509450505050610e51565b6108708111612be65760006201518062278d00840604820161016719019050601e8104608701601e8281612ba657fe5b611de28111612c16576000620151806276a700840604820161086f19019050605a810460c301605a8281612ba657fe5b5061010095600095509350505050565b600081612c3257600080fd5b600160801b8210612c4557608091821c91015b600160401b8210612c5857604091821c91015b6401000000008210612c6c57602091821c91015b620100008210612c7e57601091821c91015b6101008210612c8f57600891821c91015b60108210612c9f57600491821c91015b60048210612caf57600291821c91015b6002821061032d57600101919050565b60006276a700612cce8561278d565b019050612ce087878787878787612fc9565b50505050505050565b600060028210801590612cfd575060088211155b612d0657600080fd5b50606082015160486008600119840102011c92915050565b6000610df3826110d9606481876110d38b8b611a39565b600080610b44600a610f77565b6000808311612d5057600080fd5b81861115612d5f575083610df3565b6000612d6b8388612998565b905083811115612d7e5785915050610df3565b6000612d928561297184633b9aca00612dd5565b90506000612da4633b9aca0083612998565b90506000612dc7633b9aca00612971612dbd8b86612dd5565b6125428d88612dd5565b9a9950505050505050505050565b600082612de457506000610b44565b82820282848281612df157fe5b0414610b8e5760405162461bcd60e51b81526004018080602001828103825260218152602001806144286021913960400191505060405180910390fd5b6000808211612e84576040805162461bcd60e51b815260206004820152601a60248201527f536166654d6174683a206469766973696f6e206279207a65726f000000000000604482015290519081900360640190fd5b818381612e8d57fe5b049392505050565b6000677fffffffffffffff821115612eac57600080fd5b5060401b90565b600081600f0b60001415612ec657600080fd5b600082600f0b604085600f0b901b81612edb57fe5b05905060016001607f1b03198112801590612efd575060016001607f1b038113155b610b8e57600080fd5b6000600f82900b60016001607f1b03191415612f2157600080fd5b5060000390565b6000600160461b82600f0b12612f3d57600080fd5b683fffffffffffffffff1982600f0b1215612f5a5750600061032d565b610b44608083600f0b700171547652b82fe1777d0ffda0d23a7d1202901d613000565b6000600f83810b9083900b0260401d60016001607f1b03198112801590612efd575060016001607f1b03811315610b8e57600080fd5b600f0b60401d90565b600080610b44600c610f77565b612fd68787878685613ab2565b612fef8760e001518860a001518960c001518588612d42565b60c090970196909652505050505050565b6000600160461b82600f0b1261301557600080fd5b683fffffffffffffffff1982600f0b12156130325750600061032d565b6001607f1b60006780000000000000008416600f0b13156130645770016a09e667f3bcc908b2fb1366ea957d3e0260801c5b60008367400000000000000016600f0b1315613091577001306fe0a31b7152de8d5a46305c85edec0260801c5b60008367200000000000000016600f0b13156130be577001172b83c7d517adcdf7c8c50eb14a791f0260801c5b60008367100000000000000016600f0b13156130eb5770010b5586cf9890f6298b92b71842a983630260801c5b60008367080000000000000016600f0b1315613118577001059b0d31585743ae7c548eb68ca417fd0260801c5b60008367040000000000000016600f0b131561314557700102c9a3e778060ee6f7caca4f7a29bde80260801c5b60008367020000000000000016600f0b13156131725770010163da9fb33356d84a66ae336dcdfa3f0260801c5b600083600160381b16600f0b131561319b57700100b1afa5abcbed6129ab13ec11dc95430260801c5b600083668000000000000016600f0b13156131c75770010058c86da1c09ea1ff19d294cf2f679b0260801c5b600083664000000000000016600f0b13156131f3577001002c605e2e8cec506d21bfc89a23a00f0260801c5b600083662000000000000016600f0b131561321f57700100162f3904051fa128bca9c55c31e5df0260801c5b600083661000000000000016600f0b131561324b577001000b175effdc76ba38e31671ca9397250260801c5b600083660800000000000016600f0b131561327757700100058ba01fb9f96d6cacd4b180917c3d0260801c5b600083660400000000000016600f0b13156132a35770010002c5cc37da9491d0985c348c68e7b30260801c5b600083660200000000000016600f0b13156132cf577001000162e525ee054754457d59952920260260801c5b600083600160301b16600f0b13156132f85770010000b17255775c040618bf4a4ade83fc0260801c5b6000836580000000000016600f0b1315613323577001000058b91b5bc9ae2eed81e9b7d4cfab0260801c5b6000836540000000000016600f0b131561334e57700100002c5c89d5ec6ca4d7c8acc017b7c90260801c5b6000836520000000000016600f0b13156133795770010000162e43f4f831060e02d839a9d16d0260801c5b6000836510000000000016600f0b13156133a457700100000b1721bcfc99d9f890ea069117630260801c5b6000836508000000000016600f0b13156133cf5770010000058b90cf1e6d97f9ca14dbcc16280260801c5b6000836504000000000016600f0b13156133fa577001000002c5c863b73f016468f6bac5ca2b0260801c5b6000836502000000000016600f0b131561342557700100000162e430e5a18f6119e3c02282a50260801c5b6000836501000000000016600f0b1315613450577001000000b1721835514b86e6d96efd1bfe0260801c5b60008364800000000016600f0b131561347a57700100000058b90c0b48c6be5df846c5b2ef0260801c5b60008364400000000016600f0b13156134a45770010000002c5c8601cc6b9e94213c72737a0260801c5b60008364200000000016600f0b13156134ce577001000000162e42fff037df38aa2b219f060260801c5b60008364100000000016600f0b13156134f85770010000000b17217fba9c739aa5819f44f90260801c5b60008364080000000016600f0b1315613522577001000000058b90bfcdee5acd3c1cedc8230260801c5b60008364040000000016600f0b131561354c57700100000002c5c85fe31f35a6a30da1be500260801c5b60008364020000000016600f0b13156135765770010000000162e42ff0999ce3541b9fffcf0260801c5b60008364010000000016600f0b13156135a057700100000000b17217f80f4ef5aadda455540260801c5b600083638000000016600f0b13156135c95770010000000058b90bfbf8479bd5a81b51ad0260801c5b600083634000000016600f0b13156135f2577001000000002c5c85fdf84bd62ae30a74cc0260801c5b600083632000000016600f0b131561361b57700100000000162e42fefb2fed257559bdaa0260801c5b600083631000000016600f0b1315613644577001000000000b17217f7d5a7716bba4a9ae0260801c5b600083630800000016600f0b131561366d57700100000000058b90bfbe9ddbac5e109cce0260801c5b600083630400000016600f0b13156136965770010000000002c5c85fdf4b15de6f17eb0d0260801c5b600083630200000016600f0b13156136bf577001000000000162e42fefa494f1478fde050260801c5b600083630100000016600f0b13156136e85770010000000000b17217f7d20cf927c8e94c0260801c5b6000836280000016600f0b1315613710577001000000000058b90bfbe8f71cb4e4b33d0260801c5b6000836240000016600f0b131561373857700100000000002c5c85fdf477b662b269450260801c5b6000836220000016600f0b13156137605770010000000000162e42fefa3ae53369388c0260801c5b6000836210000016600f0b131561378857700100000000000b17217f7d1d351a389d400260801c5b6000836208000016600f0b13156137b05770010000000000058b90bfbe8e8b2d3d4ede0260801c5b6000836204000016600f0b13156137d8577001000000000002c5c85fdf4741bea6e77e0260801c5b6000836202000016600f0b131561380057700100000000000162e42fefa39fe95583c20260801c5b6000836201000016600f0b1315613828577001000000000000b17217f7d1cfb72b45e10260801c5b60008361800016600f0b131561384f57700100000000000058b90bfbe8e7cc35c3f00260801c5b60008361400016600f0b13156138765770010000000000002c5c85fdf473e242ea380260801c5b60008361200016600f0b131561389d577001000000000000162e42fefa39f02b772c0260801c5b60008361100016600f0b13156138c45770010000000000000b17217f7d1cf7d83c1a0260801c5b60008361080016600f0b13156138eb577001000000000000058b90bfbe8e7bdcbe2e0260801c5b60008361040016600f0b131561391257700100000000000002c5c85fdf473dea871f0260801c5b60008361020016600f0b13156139395770010000000000000162e42fefa39ef44d910260801c5b60008361010016600f0b131561396057700100000000000000b17217f7d1cf79e9490260801c5b600083608016600f0b13156139865770010000000000000058b90bfbe8e7bce5440260801c5b600083604016600f0b13156139ac577001000000000000002c5c85fdf473de6eca0260801c5b600083602016600f0b13156139d257700100000000000000162e42fefa39ef366f0260801c5b600083601016600f0b13156139f8577001000000000000000b17217f7d1cf79afa0260801c5b600083600816600f0b1315613a1e57700100000000000000058b90bfbe8e7bcd6d0260801c5b600083600416600f0b1315613a445770010000000000000002c5c85fdf473de6b20260801c5b600083600216600f0b1315613a6a577001000000000000000162e42fefa39ef3580260801c5b600083600116600f0b1315613a905770010000000000000000b17217f7d1cf79ab0260801c5b600f83810b60401d603f03900b1c60016001607f1b03811115610b4457600080fd5b6000613abc612d35565b6000868152602082815260408083208884528252808320868452825291829020808a52908901879052805469ffffffffffffffffffff808216938b0193909352600160501b810490921660608a015263ffffffff600160a01b8304811660a08b0152600160c01b8304811660c08b0152600160e01b90920490911660e0890152909150808415613b6157600182015469ffffffffffffffffffff166080890152613b69565b600060808901525b5050505050505050565b6040805160a08101825260008082526020820181905291810182905260608101829052608081019190915290565b60405180610160016040528060006001600160a01b031681526020016000815260200160008152602001600081526020016000815260200160006001600160d01b0319168152602001613bf2613ca3565b8152602001613bff613ca3565b8152602001613c0c613cd2565b8152602001613c19613c84565b8152600060209091015290565b6040518061010001604052806000815260200160001515815260200160008152602001613c51613c84565b8152602001613c5e613d5f565b815260200160608152602001613c72613cd2565b8152602001613c7f613da7565b905290565b6040805160808101825260008082526020820152908101613c19613cd2565b6040518060a0016040528060008152602001600081526020016000815260200160008152602001600081525090565b604051806060016040528060006001600160a01b0316815260200160008152602001600081525090565b6040518060c00160405280600081526020016000815260200160008152602001600081526020016000815260200160006003811115613c7f57fe5b6040518060800160405280606081526020016060815260200160008152602001600081525090565b60405180610100016040528060008019168152602001600081526020016000815260200160008152602001600081526020016000815260200160008152602001600081525090565b6040518060e00160405280613dba613c84565b8152602001613dc7613d37565b815260006020820181905260408201819052606082018190526080820181905260a09091015290565b80356001600160a01b038116811461032d57600080fd5b80516001600160701b03198116811461032d57600080fd5b805161ffff8116811461032d57600080fd5b805169ffffffffffffffffffff8116811461032d57600080fd5b805160ff8116811461032d57600080fd5b600060208284031215613e6d578081fd5b610b8e82613df0565b600080600060608486031215613e8a578182fd5b613e9384613df0565b95602085013595506040909401359392505050565b600060208284031215613eb9578081fd5b5051919050565b600060a08284031215613ed1578081fd5b60405160a0810181811067ffffffffffffffff82111715613eee57fe5b604052825164ffffffffff81168114613f05578283fd5b815260208301516001600160f81b031981168114613f21578283fd5b6020820152613f3260408401613e4b565b6040820152613f4360608401613e1f565b6060820152613f5460808401613e07565b60808201529392505050565b600080600080600060a08688031215613f77578081fd5b613f8086613e31565b9450602086015193506040860151925060608601519150613fa360808701613e31565b90509295509295909350565b6001600160a01b03169052565b6000815180845260208085019450808401835b8381101561402957815180518852838101518489015260408082015190890152606080820151908901526080808201519089015260a090810151906004821061401457fe5b88015260c09096019590820190600101613fcf565b509495945050505050565b15159052565b6001600160d01b0319169052565b805164ffffffffff1682526020808201516001600160f81b0319169083015260408082015160ff169083015260608082015161ffff16908301526080908101516001600160701b031916910152565b80516001600160a01b0316825260208082015190830152604090810151910152565b61ffff81511682526020810151602083015260408101516140dd6040840182614097565b506060015160a09190910152565b80518252602081015160208301526040810151604083015260608101516060830152608081015160808301525050565b6001600160a01b038316815260c08101610b8e6020830184614048565b60006040820184835260206040818501528185518084526060860191508287019350845b818110156141785784518352938301939183019160010161415c565b5090979650505050505050565b60208082526016908201527513585c9ad95d081b9bdd081a5b9a5d1a585b1a5e995960521b604082015260600190565b60208082526015908201527410d1ce881b9bc81b585c9ad95d1cc81b1a5cdd1959605a1b604082015260600190565b6020808252600d908201526c092dcecc2d8d2c840d2dcc8caf609b1b604082015260600190565b602080825260129082015271105cdcd95d1cc81b9bdd081cd95d1d1b195960721b604082015260600190565b60208082526016908201527510d1ce881b585c9ad95d081a5b99195e08189bdd5b9960521b604082015260600190565b6020808252600e908201526d125b9d985b1a59081b585c9ad95d60921b604082015260600190565b6020808252600c908201526b496e76616c6964207261746560a01b604082015260600190565b60208082526013908201527210d1ce881b9bc81b585c9ad95d08199bdd5b99606a1b604082015260600190565b60208082526015908201527414dd59999a58da595b9d0818dbdb1b185d195c985b605a1b604082015260600190565b6020808252601c908201527f496e73756666696369656e74206672656520636f6c6c61746572616c00000000604082015260600190565b60006104006143578387614048565b61436560a084018651613faf565b602085015160c0840152604085015160e08401526060850151610100818186015260808701519150610120828187015260a088015192506101406143ab8188018561403a565b60c089015193506143c06101608801856140eb565b60e089015193506143d56102008801856140eb565b8289015193506143e96102a0880185614097565b8189015193506143fd6103008801856140b9565b88015192506144139150506103c0850182614034565b50806103e08401526123e581840185613fbc56fe536166654d6174683a206d756c7469706c69636174696f6e206f766572666c6f77a264697066735822122051a037a30d4c45308956656a90ebf1bf25dbffd964553bec3fdb51c5b7ade7a164736f6c63430007060033","language":"Solidity","natspec":{"methods":{"checkFreeCollateralAndRevert(address)":{"notice":"Calculates free collateral and will revert if it falls below zero. If the account context must be updated due to changes in debt settings, will update. Cannot check free collateral if assets need to be settled first.","details":"Cannot be called directly by users, used during various actions that require an FC check. Must be called before the end of any transaction for accounts where FC can decrease.","params":{"account":"account to calculate free collateral for"}},"getFreeCollateralView(address)":{"notice":"Returns the ETH denominated free collateral of an account, represents the amount of debt that the account can incur before liquidation. If an account's assets need to be settled this will revert, either settle the account or use the off chain SDK to calculate free collateral.","details":"Called via the Views.sol method to return an account's free collateral. Does not work for the nToken, the nToken does not have an account context.","params":{"account":"account to calculate free collateral for"},"returns":{"_0":"total free collateral in ETH w/ 8 decimal places","_1":"array of net local values in asset values ordered by currency id"}},"getLiquidationFactors(address,uint256,uint256)":{"notice":"Calculates liquidation factors for an account","details":"Only called internally by liquidation actions, does some initial validation of currencies. If a currency is specified that the account does not have, a asset available figure of zero will be returned. If this is the case then liquidation actions will revert.an ntoken account will return 0 FC and revert if called","params":{"account":"account to liquidate","collateralCurrencyId":"collateral currency to liquidate against, set to zero in the case of local currency liquidation","localCurrencyId":"currency that the debts are denominated in"},"returns":{"accountContext":"the accountContext of the liquidated account","factors":"struct of relevant factors for liquidation","portfolio":"the portfolio array of the account (bitmap accounts will return an empty array)"}}},"kind":"dev","version":1,"title":"Externally deployed library for free collateral calculations"},"opcodes":"PUSH20 0x0 ADDRESS EQ PUSH1 0x80 PUSH1 0x40 MSTORE PUSH1 0x4 CALLDATASIZE LT PUSH2 0x4B JUMPI PUSH1 0x0 CALLDATALOAD PUSH1 0xE0 SHR DUP1 PUSH4 0x451D958F EQ PUSH2 0x50 JUMPI DUP1 PUSH4 0x6CB65EAF EQ PUSH2 0x88 JUMPI DUP1 PUSH4 0x6CCC642F EQ PUSH2 0xA9 JUMPI JUMPDEST PUSH1 0x0 DUP1 REVERT JUMPDEST DUP2 DUP1 ISZERO PUSH2 0x5C JUMPI PUSH1 0x0 DUP1 REVERT JUMPDEST POP PUSH2 0x70 PUSH2 0x6B CALLDATASIZE PUSH1 0x4 PUSH2 0x3E76 JUMP JUMPDEST PUSH2 0xCB JUMP JUMPDEST PUSH1 0x40 MLOAD PUSH2 0x7F SWAP4 SWAP3 SWAP2 SWAP1 PUSH2 0x4348 JUMP JUMPDEST PUSH1 0x40 MLOAD DUP1 SWAP2 SUB SWAP1 RETURN JUMPDEST PUSH2 0x9B PUSH2 0x96 CALLDATASIZE PUSH1 0x4 PUSH2 0x3E5C JUMP JUMPDEST PUSH2 0x1C0 JUMP JUMPDEST PUSH1 0x40 MLOAD PUSH2 0x7F SWAP3 SWAP2 SWAP1 PUSH2 0x4138 JUMP JUMPDEST DUP2 DUP1 ISZERO PUSH2 0xB5 JUMPI PUSH1 0x0 DUP1 REVERT JUMPDEST POP PUSH2 0xC9 PUSH2 0xC4 CALLDATASIZE PUSH1 0x4 PUSH2 0x3E5C JUMP JUMPDEST PUSH2 0x215 JUMP JUMPDEST STOP JUMPDEST PUSH2 0xD3 PUSH2 0x3B73 JUMP JUMPDEST PUSH2 0xDB PUSH2 0x3BA1 JUMP JUMPDEST PUSH1 0x60 PUSH2 0xE6 DUP7 PUSH2 0x291 JUMP JUMPDEST SWAP3 POP PUSH2 0xF1 DUP4 PUSH2 0x332 JUMP JUMPDEST ISZERO PUSH2 0x182 JUMPI PUSH1 0x40 MLOAD PUSH4 0x37B5FC21 PUSH1 0xE1 SHL DUP2 MSTORE PUSH20 0x0 SWAP1 PUSH4 0x6F6BF842 SWAP1 PUSH2 0x12F SWAP1 DUP10 SWAP1 DUP8 SWAP1 PUSH1 0x4 ADD PUSH2 0x411B JUMP JUMPDEST PUSH1 0xA0 PUSH1 0x40 MLOAD DUP1 DUP4 SUB DUP2 DUP7 DUP1 EXTCODESIZE ISZERO DUP1 ISZERO PUSH2 0x147 JUMPI PUSH1 0x0 DUP1 REVERT JUMPDEST POP GAS DELEGATECALL ISZERO DUP1 ISZERO PUSH2 0x15B JUMPI RETURNDATASIZE PUSH1 0x0 DUP1 RETURNDATACOPY RETURNDATASIZE PUSH1 0x0 REVERT JUMPDEST POP POP POP POP PUSH1 0x40 MLOAD RETURNDATASIZE PUSH1 0x1F NOT PUSH1 0x1F DUP3 ADD AND DUP3 ADD DUP1 PUSH1 0x40 MSTORE POP DUP2 ADD SWAP1 PUSH2 0x17F SWAP2 SWAP1 PUSH2 0x3EC0 JUMP JUMPDEST SWAP3 POP JUMPDEST PUSH2 0x18B DUP4 PUSH2 0x386 JUMP JUMPDEST ISZERO PUSH2 0x1A4 JUMPI DUP3 PUSH1 0x60 ADD MLOAD PUSH2 0xFFFF AND DUP6 EQ PUSH2 0x1A4 JUMPI PUSH1 0x0 DUP1 REVERT JUMPDEST PUSH2 0x1B1 DUP7 DUP5 TIMESTAMP DUP9 DUP9 PUSH2 0x393 JUMP JUMPDEST SWAP4 SWAP8 SWAP1 SWAP7 POP SWAP3 SWAP5 POP SWAP2 SWAP3 POP POP POP JUMP JUMPDEST PUSH1 0x0 PUSH1 0x60 PUSH1 0x0 PUSH2 0x1CF DUP5 PUSH2 0x291 JUMP JUMPDEST SWAP1 POP PUSH2 0x1DA DUP2 PUSH2 0x332 JUMP JUMPDEST ISZERO PUSH2 0x200 JUMPI PUSH1 0x40 MLOAD PUSH3 0x461BCD PUSH1 0xE5 SHL DUP2 MSTORE PUSH1 0x4 ADD PUSH2 0x1F7 SWAP1 PUSH2 0x420B JUMP JUMPDEST PUSH1 0x40 MLOAD DUP1 SWAP2 SUB SWAP1 REVERT JUMPDEST PUSH2 0x20B DUP5 DUP3 TIMESTAMP PUSH2 0x5F0 JUMP JUMPDEST SWAP3 POP SWAP3 POP POP SWAP2 POP SWAP2 JUMP JUMPDEST PUSH1 0x0 PUSH2 0x220 DUP3 PUSH2 0x291 JUMP JUMPDEST SWAP1 POP PUSH2 0x22B DUP2 PUSH2 0x332 JUMP JUMPDEST ISZERO PUSH2 0x248 JUMPI PUSH1 0x40 MLOAD PUSH3 0x461BCD PUSH1 0xE5 SHL DUP2 MSTORE PUSH1 0x4 ADD PUSH2 0x1F7 SWAP1 PUSH2 0x420B JUMP JUMPDEST PUSH1 0x0 DUP1 PUSH2 0x256 DUP5 DUP5 TIMESTAMP PUSH2 0x845 JUMP JUMPDEST SWAP2 POP SWAP2 POP DUP1 ISZERO PUSH2 0x26A JUMPI PUSH2 0x26A DUP4 DUP6 PUSH2 0xA33 JUMP JUMPDEST PUSH1 0x0 DUP3 SLT ISZERO PUSH2 0x28B JUMPI PUSH1 0x40 MLOAD PUSH3 0x461BCD PUSH1 0xE5 SHL DUP2 MSTORE PUSH1 0x4 ADD PUSH2 0x1F7 SWAP1 PUSH2 0x4311 JUMP JUMPDEST POP POP POP POP JUMP JUMPDEST PUSH2 0x299 PUSH2 0x3B73 JUMP JUMPDEST PUSH1 0x0 PUSH2 0x2A3 PUSH2 0xB37 JUMP JUMPDEST PUSH1 0x1 PUSH1 0x1 PUSH1 0xA0 SHL SUB DUP5 AND PUSH1 0x0 SWAP1 DUP2 MSTORE PUSH1 0x20 SWAP2 DUP3 MSTORE PUSH1 0x40 SWAP1 DUP2 SWAP1 KECCAK256 DUP2 MLOAD PUSH1 0xA0 DUP2 ADD DUP4 MSTORE SWAP1 SLOAD PUSH5 0xFFFFFFFFFF DUP2 AND DUP3 MSTORE PUSH6 0x10000000000 DUP2 DIV PUSH1 0xF8 SHL PUSH1 0x1 PUSH1 0x1 PUSH1 0xF8 SHL SUB NOT AND SWAP4 DUP3 ADD SWAP4 SWAP1 SWAP4 MSTORE PUSH1 0x1 PUSH1 0x30 SHL DUP4 DIV PUSH1 0xFF AND SWAP2 DUP2 ADD SWAP2 SWAP1 SWAP2 MSTORE PUSH1 0x1 PUSH1 0x38 SHL DUP3 DIV PUSH2 0xFFFF AND PUSH1 0x60 DUP3 ADD MSTORE PUSH1 0x1 PUSH1 0x48 SHL SWAP1 SWAP2 DIV PUSH1 0x70 SHL PUSH1 0x1 PUSH1 0x1 PUSH1 0x70 SHL SUB NOT AND PUSH1 0x80 DUP3 ADD MSTORE SWAP2 POP POP JUMPDEST SWAP2 SWAP1 POP JUMP JUMPDEST PUSH1 0x0 TIMESTAMP PUSH2 0x33E DUP4 PUSH2 0x386 JUMP JUMPDEST ISZERO PUSH2 0x35F JUMPI PUSH2 0x34C DUP2 PUSH2 0xB4A JUMP JUMPDEST DUP4 MLOAD PUSH5 0xFFFFFFFFFF AND LT SWAP2 POP PUSH2 0x32D SWAP1 POP JUMP JUMPDEST DUP3 MLOAD PUSH5 0xFFFFFFFFFF AND ISZERO DUP1 ISZERO SWAP1 PUSH2 0x37E JUMPI POP DUP3 MLOAD PUSH5 0xFFFFFFFFFF AND DUP2 LT ISZERO JUMPDEST SWAP2 POP POP PUSH2 0x32D JUMP JUMPDEST PUSH1 0x60 ADD MLOAD PUSH2 0xFFFF AND ISZERO ISZERO SWAP1 JUMP JUMPDEST PUSH2 0x39B PUSH2 0x3BA1 JUMP JUMPDEST PUSH1 0x60 PUSH2 0x3A5 PUSH2 0x3C26 JUMP JUMPDEST PUSH2 0x3AD PUSH2 0x3BA1 JUMP JUMPDEST PUSH1 0x1 PUSH1 0x1 PUSH1 0xA0 SHL SUB DUP10 AND DUP2 MSTORE PUSH2 0x3C2 DUP9 PUSH2 0x386 JUMP JUMPDEST ISZERO PUSH2 0x49A JUMPI PUSH2 0x3D4 DUP9 PUSH1 0x60 ADD MLOAD PUSH2 0xB6B JUMP JUMPDEST PUSH1 0x60 DUP4 ADD MSTORE PUSH1 0x0 DUP1 DUP1 PUSH2 0x3E9 DUP13 DUP12 DUP14 DUP9 PUSH2 0xB95 JUMP JUMPDEST SWAP3 POP SWAP3 POP SWAP3 POP PUSH1 0x0 PUSH2 0x3FD DUP14 DUP13 DUP15 DUP10 PUSH2 0xBEB JUMP JUMPDEST SWAP1 POP PUSH1 0x0 PUSH2 0x415 DUP3 PUSH2 0x40F DUP8 DUP8 PUSH2 0xCA4 JUMP JUMPDEST SWAP1 PUSH2 0xCA4 JUMP JUMPDEST SWAP1 POP DUP7 PUSH1 0x60 ADD MLOAD PUSH1 0x40 ADD MLOAD DUP8 PUSH1 0xC0 ADD DUP2 SWAP1 MSTORE POP PUSH1 0x0 PUSH2 0x43D DUP15 PUSH1 0x60 ADD MLOAD PUSH2 0xFFFF AND DUP4 DUP11 PUSH2 0xCBA JUMP JUMPDEST SWAP1 POP DUP12 DUP15 PUSH1 0x60 ADD MLOAD PUSH2 0xFFFF AND EQ ISZERO PUSH2 0x48F JUMPI PUSH1 0x40 DUP8 ADD DUP3 SWAP1 MSTORE PUSH1 0xC0 DUP1 DUP9 ADD DUP3 SWAP1 MSTORE DUP9 ADD MLOAD PUSH2 0x100 DUP9 ADD MSTORE DUP11 PUSH2 0x48F JUMPI PUSH1 0x60 DUP9 ADD MLOAD PUSH2 0x120 DUP9 ADD MSTORE PUSH1 0x80 DUP8 ADD DUP6 SWAP1 MSTORE PUSH1 0x1 PUSH1 0x1 PUSH1 0xD0 SHL SUB NOT DUP5 AND PUSH1 0xA0 DUP9 ADD MSTORE JUMPDEST POP POP POP POP POP POP PUSH2 0x4AE JUMP JUMPDEST PUSH2 0x4A8 DUP10 DUP10 PUSH1 0x40 ADD MLOAD PUSH2 0xD05 JUMP JUMPDEST PUSH1 0xA0 DUP4 ADD MSTORE JUMPDEST PUSH1 0x80 DUP9 ADD MLOAD JUMPDEST PUSH1 0x1 PUSH1 0x1 PUSH1 0x70 SHL SUB NOT DUP2 AND ISZERO PUSH2 0x591 JUMPI PUSH1 0x60 DUP10 ADD MLOAD DUP2 SWAP1 PUSH1 0x0 SWAP1 PUSH1 0xF0 DUP4 SWAP1 SHR PUSH2 0x3FFF AND SWAP1 PUSH2 0xFFFF AND DUP2 EQ ISZERO PUSH2 0x4E8 JUMPI PUSH1 0x0 DUP1 REVERT JUMPDEST DUP10 DUP2 EQ DUP1 ISZERO PUSH2 0x4F5 JUMPI POP DUP9 ISZERO JUMPDEST DUP1 PUSH2 0x4FF JUMPI POP DUP9 DUP2 EQ JUMPDEST SWAP2 POP POP PUSH1 0x0 PUSH2 0x511 DUP7 DUP7 DUP6 DUP6 DUP16 PUSH2 0xD2E JUMP JUMPDEST SWAP1 POP PUSH1 0xF0 DUP4 SWAP1 SHR PUSH2 0x3FFF AND PUSH1 0x0 PUSH2 0x529 DUP3 DUP5 DUP11 PUSH2 0xCBA JUMP JUMPDEST SWAP1 POP DUP11 DUP3 EQ ISZERO PUSH2 0x555 JUMPI PUSH1 0xC0 DUP9 ADD MLOAD PUSH2 0x120 DUP9 ADD MLOAD PUSH1 0x40 ADD MSTORE PUSH1 0x60 DUP8 ADD DUP4 SWAP1 MSTORE PUSH1 0xE0 DUP8 ADD DUP2 SWAP1 MSTORE PUSH2 0x576 JUMP JUMPDEST DUP12 DUP3 EQ ISZERO PUSH2 0x576 JUMPI PUSH1 0x40 DUP8 ADD DUP4 SWAP1 MSTORE PUSH1 0xC0 DUP1 DUP9 ADD DUP3 SWAP1 MSTORE DUP9 ADD MLOAD PUSH2 0x100 DUP9 ADD MSTORE JUMPDEST PUSH1 0x10 DUP7 PUSH1 0x1 PUSH1 0x1 PUSH1 0x70 SHL SUB NOT AND SWAP1 SHL SWAP6 POP POP POP POP POP POP PUSH2 0x4B4 JUMP JUMPDEST DUP3 MLOAD PUSH1 0x20 DUP4 ADD DUP2 SWAP1 MSTORE PUSH1 0x0 SGT PUSH2 0x5B9 JUMPI PUSH1 0x40 MLOAD PUSH3 0x461BCD PUSH1 0xE5 SHL DUP2 MSTORE PUSH1 0x4 ADD PUSH2 0x1F7 SWAP1 PUSH2 0x42E2 JUMP JUMPDEST PUSH1 0x40 DUP10 ADD MLOAD PUSH1 0xFF AND ISZERO PUSH2 0x5DA JUMPI PUSH2 0x5D4 DUP11 DUP11 PUSH1 0x40 ADD MLOAD PUSH2 0xD05 JUMP JUMPDEST PUSH1 0xA0 DUP5 ADD MSTORE JUMPDEST POP PUSH1 0xA0 SWAP1 SWAP2 ADD MLOAD SWAP1 SWAP3 POP SWAP1 POP SWAP6 POP SWAP6 SWAP4 POP POP POP POP JUMP JUMPDEST PUSH1 0x0 PUSH1 0x60 PUSH2 0x5FC PUSH2 0x3C26 JUMP JUMPDEST PUSH1 0x40 DUP1 MLOAD PUSH1 0xA DUP1 DUP3 MSTORE PUSH2 0x160 DUP3 ADD SWAP1 SWAP3 MSTORE PUSH1 0x0 SWAP2 DUP3 SWAP2 SWAP1 PUSH1 0x20 DUP3 ADD PUSH2 0x140 DUP1 CALLDATASIZE DUP4 CALLDATACOPY ADD SWAP1 POP POP SWAP1 POP PUSH2 0x62D DUP8 PUSH2 0x386 JUMP JUMPDEST ISZERO PUSH2 0x6D5 JUMPI PUSH2 0x63F DUP8 PUSH1 0x60 ADD MLOAD PUSH2 0xDFC JUMP JUMPDEST PUSH1 0x60 DUP5 ADD MSTORE PUSH1 0x0 DUP1 PUSH2 0x653 DUP11 DUP10 DUP12 DUP9 PUSH2 0xB95 JUMP JUMPDEST POP SWAP2 POP SWAP2 POP PUSH1 0x0 PUSH2 0x666 DUP12 DUP11 DUP13 DUP10 PUSH2 0xBEB JUMP JUMPDEST SWAP1 POP PUSH2 0x676 DUP2 PUSH2 0x40F DUP6 DUP6 PUSH2 0xCA4 JUMP JUMPDEST DUP5 DUP7 DUP2 MLOAD DUP2 LT PUSH2 0x682 JUMPI INVALID JUMPDEST PUSH1 0x20 MUL PUSH1 0x20 ADD ADD DUP2 DUP2 MSTORE POP POP DUP6 PUSH1 0x60 ADD MLOAD PUSH1 0x40 ADD MLOAD DUP7 PUSH1 0xC0 ADD DUP2 SWAP1 MSTORE POP PUSH2 0x6C5 DUP11 PUSH1 0x60 ADD MLOAD PUSH2 0xFFFF AND DUP6 DUP8 DUP2 MLOAD DUP2 LT PUSH2 0x6B7 JUMPI INVALID JUMPDEST PUSH1 0x20 MUL PUSH1 0x20 ADD ADD MLOAD DUP9 PUSH2 0xCBA JUMP JUMPDEST POP POP PUSH1 0x1 SWAP1 SWAP4 ADD SWAP3 POP PUSH2 0x6E9 SWAP1 POP JUMP JUMPDEST PUSH2 0x6E3 DUP9 DUP9 PUSH1 0x40 ADD MLOAD PUSH2 0xD05 JUMP JUMPDEST PUSH1 0xA0 DUP5 ADD MSTORE JUMPDEST PUSH1 0x80 DUP8 ADD MLOAD JUMPDEST PUSH1 0x1 PUSH1 0x1 PUSH1 0x70 SHL SUB NOT DUP2 AND ISZERO PUSH2 0x833 JUMPI PUSH1 0x60 DUP9 ADD MLOAD DUP2 SWAP1 PUSH1 0xF0 DUP3 SWAP1 SHR PUSH2 0x3FFF AND SWAP1 PUSH2 0xFFFF AND DUP2 EQ ISZERO PUSH2 0x720 JUMPI PUSH1 0x0 DUP1 REVERT JUMPDEST PUSH1 0x0 PUSH2 0x72C DUP13 DUP5 PUSH2 0xE13 JUMP JUMPDEST DUP7 DUP9 DUP2 MLOAD DUP2 LT PUSH2 0x738 JUMPI INVALID JUMPDEST PUSH1 0x20 MUL PUSH1 0x20 ADD ADD DUP2 SWAP4 POP DUP3 DUP2 MSTORE POP POP POP PUSH2 0x751 DUP4 PUSH2 0xE58 JUMP JUMPDEST DUP1 PUSH2 0x75C JUMPI POP PUSH1 0x0 DUP2 SGT JUMPDEST ISZERO PUSH2 0x7D8 JUMPI PUSH2 0x76A DUP3 PUSH2 0xDFC JUMP JUMPDEST PUSH1 0x60 DUP9 ADD MSTORE PUSH1 0x0 DUP1 PUSH2 0x77D DUP10 DUP5 DUP15 PUSH2 0xE64 JUMP JUMPDEST POP SWAP2 POP SWAP2 POP PUSH2 0x7AC DUP2 PUSH2 0x40F DUP5 DUP11 DUP13 DUP2 MLOAD DUP2 LT PUSH2 0x796 JUMPI INVALID JUMPDEST PUSH1 0x20 MUL PUSH1 0x20 ADD ADD MLOAD PUSH2 0xCA4 SWAP1 SWAP2 SWAP1 PUSH4 0xFFFFFFFF AND JUMP JUMPDEST DUP8 DUP10 DUP2 MLOAD DUP2 LT PUSH2 0x7B8 JUMPI INVALID JUMPDEST PUSH1 0x20 SWAP1 DUP2 MUL SWAP2 SWAP1 SWAP2 ADD ADD MSTORE POP POP PUSH1 0x60 DUP8 ADD MLOAD PUSH1 0x40 ADD MLOAD PUSH1 0xC0 DUP9 ADD MSTORE PUSH2 0x7EB JUMP JUMPDEST PUSH2 0x7E5 DUP3 PUSH2 0xFFFF AND PUSH2 0xF15 JUMP JUMPDEST PUSH1 0xC0 DUP9 ADD MSTORE JUMPDEST PUSH2 0x80D DUP3 PUSH2 0xFFFF AND DUP7 DUP9 DUP2 MLOAD DUP2 LT PUSH2 0x7FF JUMPI INVALID JUMPDEST PUSH1 0x20 MUL PUSH1 0x20 ADD ADD MLOAD DUP10 PUSH2 0xCBA JUMP JUMPDEST POP POP POP PUSH1 0x1 SWAP4 SWAP1 SWAP4 ADD SWAP3 POP PUSH1 0x10 SHL PUSH16 0xFFFFFFFFFFFFFFFFFFFFFFFFFFFFFFFF NOT AND PUSH2 0x6EF JUMP JUMPDEST POP SWAP2 MLOAD SWAP4 POP SWAP1 SWAP2 POP POP JUMPDEST SWAP4 POP SWAP4 SWAP2 POP POP JUMP JUMPDEST PUSH1 0x0 DUP1 PUSH2 0x850 PUSH2 0x3C26 JUMP JUMPDEST PUSH1 0x0 PUSH2 0x85B DUP7 PUSH2 0x386 JUMP JUMPDEST ISZERO PUSH2 0x8E2 JUMPI PUSH2 0x86D DUP7 PUSH1 0x60 ADD MLOAD PUSH2 0xB6B JUMP JUMPDEST PUSH1 0x60 DUP4 ADD MSTORE PUSH1 0x0 DUP1 PUSH2 0x881 DUP10 DUP9 DUP11 DUP8 PUSH2 0xB95 JUMP JUMPDEST POP SWAP2 POP SWAP2 POP PUSH1 0x0 DUP3 SLT ISZERO PUSH2 0x894 JUMPI PUSH1 0x1 SWAP3 POP JUMPDEST PUSH1 0x0 PUSH2 0x8A2 DUP11 DUP10 DUP12 DUP9 PUSH2 0xBEB JUMP JUMPDEST SWAP1 POP PUSH1 0x0 PUSH2 0x8B4 DUP3 PUSH2 0x40F DUP7 DUP7 PUSH2 0xCA4 JUMP JUMPDEST PUSH1 0x60 DUP1 DUP9 ADD MLOAD PUSH1 0x40 ADD MLOAD PUSH1 0xC0 DUP10 ADD MSTORE DUP12 ADD MLOAD SWAP1 SWAP2 POP PUSH2 0x8D8 SWAP1 PUSH2 0xFFFF AND DUP3 DUP9 PUSH2 0xCBA JUMP JUMPDEST POP POP POP POP POP PUSH2 0x8F6 JUMP JUMPDEST PUSH2 0x8F0 DUP8 DUP8 PUSH1 0x40 ADD MLOAD PUSH2 0xD05 JUMP JUMPDEST PUSH1 0xA0 DUP4 ADD MSTORE JUMPDEST PUSH1 0x80 DUP7 ADD MLOAD JUMPDEST PUSH1 0x1 PUSH1 0x1 PUSH1 0x70 SHL SUB NOT DUP2 AND ISZERO PUSH2 0x9EA JUMPI PUSH1 0x60 DUP8 ADD MLOAD DUP2 SWAP1 PUSH1 0xF0 DUP3 SWAP1 SHR PUSH2 0x3FFF AND SWAP1 PUSH2 0xFFFF AND DUP2 EQ ISZERO PUSH2 0x92D JUMPI PUSH1 0x0 DUP1 REVERT JUMPDEST PUSH1 0x0 DUP1 PUSH2 0x93A DUP13 DUP6 PUSH2 0xE13 JUMP JUMPDEST SWAP2 POP SWAP2 POP PUSH1 0x0 DUP3 SLT ISZERO PUSH2 0x94C JUMPI PUSH1 0x1 SWAP6 POP JUMPDEST PUSH2 0x955 DUP5 PUSH2 0xE58 JUMP JUMPDEST DUP1 PUSH2 0x960 JUMPI POP PUSH1 0x0 DUP2 SGT JUMPDEST ISZERO PUSH2 0x9AD JUMPI PUSH2 0x96E DUP4 PUSH2 0xB6B JUMP JUMPDEST PUSH1 0x60 DUP9 ADD MSTORE PUSH1 0x0 DUP1 PUSH2 0x981 DUP10 DUP5 DUP15 PUSH2 0xE64 JUMP JUMPDEST POP SWAP1 SWAP3 POP SWAP1 POP PUSH2 0x995 DUP2 PUSH2 0x40F DUP7 DUP6 PUSH2 0xCA4 JUMP JUMPDEST PUSH1 0x60 DUP11 ADD MLOAD PUSH1 0x40 ADD MLOAD PUSH1 0xC0 DUP12 ADD MSTORE SWAP4 POP PUSH2 0x9C0 SWAP2 POP POP JUMP JUMPDEST PUSH2 0x9BA DUP4 PUSH2 0xFFFF AND PUSH2 0xF61 JUMP JUMPDEST PUSH1 0xC0 DUP9 ADD MSTORE JUMPDEST PUSH2 0x9CF DUP4 PUSH2 0xFFFF AND DUP4 DUP10 PUSH2 0xCBA JUMP JUMPDEST POP PUSH1 0x10 DUP6 PUSH1 0x1 PUSH1 0x1 PUSH1 0x70 SHL SUB NOT AND SWAP1 SHL SWAP5 POP POP POP POP POP PUSH2 0x8FC JUMP JUMPDEST PUSH1 0x20 DUP8 ADD MLOAD PUSH1 0x1 PUSH1 0xF9 SHL SWAP1 DUP2 AND EQ DUP1 ISZERO PUSH2 0xA02 JUMPI POP DUP2 ISZERO JUMPDEST ISZERO PUSH2 0xA1D JUMPI PUSH1 0x20 DUP1 DUP9 ADD DUP1 MLOAD PUSH1 0xFD PUSH1 0xF8 SHL AND SWAP1 MSTORE PUSH1 0x1 SWAP1 DUP5 ADD MSTORE JUMPDEST POP POP DUP1 MLOAD PUSH1 0x20 SWAP1 SWAP2 ADD MLOAD SWAP1 SWAP7 SWAP1 SWAP6 POP SWAP4 POP POP POP POP JUMP JUMPDEST PUSH1 0x0 PUSH2 0xA3D PUSH2 0xB37 JUMP JUMPDEST PUSH1 0x1 PUSH1 0x1 PUSH1 0xA0 SHL SUB DUP4 AND PUSH1 0x0 DUP2 DUP2 MSTORE PUSH1 0x20 DUP4 DUP2 MSTORE PUSH1 0x40 DUP1 DUP4 KECCAK256 DUP9 MLOAD DUP2 SLOAD SWAP4 DUP11 ADD MLOAD DUP4 DUP12 ADD MLOAD PUSH1 0x60 DUP13 ADD MLOAD PUSH1 0x80 DUP14 ADD MLOAD PUSH1 0x70 SHR PUSH1 0x1 PUSH1 0x48 SHL MUL PUSH27 0xFFFFFFFFFFFFFFFFFFFFFFFFFFFFFFFFFFFF000000000000000000 NOT PUSH2 0xFFFF SWAP1 SWAP3 AND PUSH1 0x1 PUSH1 0x38 SHL MUL PUSH9 0xFFFF00000000000000 NOT PUSH1 0xFF SWAP5 SWAP1 SWAP5 AND PUSH1 0x1 PUSH1 0x30 SHL MUL PUSH7 0xFF000000000000 NOT PUSH1 0xF8 SWAP7 SWAP1 SWAP7 SHR PUSH6 0x10000000000 MUL PUSH6 0xFF0000000000 NOT PUSH5 0xFFFFFFFFFF SWAP1 SWAP9 AND PUSH5 0xFFFFFFFFFF NOT SWAP1 SWAP12 AND SWAP11 SWAP1 SWAP11 OR SWAP7 SWAP1 SWAP7 AND SWAP9 SWAP1 SWAP9 OR SWAP4 SWAP1 SWAP4 AND SWAP4 SWAP1 SWAP4 OR AND SWAP5 SWAP1 SWAP5 OR AND SWAP3 SWAP1 SWAP3 OR SWAP1 SWAP2 SSTORE MLOAD SWAP3 SWAP4 POP SWAP1 SWAP2 PUSH32 0x6BD4B121BCA854A191536A2CA891155C42EE2FB23F307FB34E8BC65CFCB5412E SWAP2 SWAP1 LOG2 POP POP POP JUMP JUMPDEST PUSH1 0x0 DUP1 PUSH2 0xB44 PUSH1 0x1 PUSH2 0xF77 JUMP JUMPDEST SWAP3 SWAP2 POP POP JUMP JUMPDEST PUSH1 0x0 PUSH3 0x15180 DUP3 LT ISZERO PUSH2 0xB5C JUMPI PUSH1 0x0 DUP1 REVERT JUMPDEST PUSH3 0x15180 DUP3 JUMPDEST MOD SWAP1 SWAP2 SUB SWAP2 SWAP1 POP JUMP JUMPDEST PUSH2 0xB73 PUSH2 0x3C84 JUMP JUMPDEST PUSH1 0x0 PUSH2 0xB82 DUP4 PUSH2 0xFFFF AND PUSH2 0xF61 JUMP JUMPDEST SWAP1 POP PUSH2 0xB8E DUP4 DUP3 PUSH2 0xF90 JUMP JUMPDEST SWAP4 SWAP3 POP POP POP JUMP JUMPDEST PUSH1 0x0 DUP1 PUSH1 0x0 DUP1 PUSH2 0xBAD DUP9 DUP8 PUSH1 0x60 ADD MLOAD PUSH2 0xFFFF AND PUSH2 0xFD3 JUMP JUMPDEST POP SWAP2 SWAP6 POP SWAP2 POP POP PUSH1 0x0 DUP2 SGT ISZERO PUSH2 0xBDB JUMPI PUSH2 0xBD1 DUP6 PUSH1 0x60 ADD MLOAD DUP7 PUSH1 0xE0 ADD MLOAD DUP4 DUP11 PUSH2 0x107F JUMP JUMPDEST SWAP1 SWAP4 POP SWAP2 POP PUSH2 0xBE0 JUMP JUMPDEST PUSH1 0x0 SWAP3 POP JUMPDEST POP SWAP5 POP SWAP5 POP SWAP5 SWAP2 POP POP JUMP JUMPDEST PUSH1 0x0 DUP1 PUSH1 0x0 PUSH2 0xC16 DUP8 DUP7 PUSH1 0x60 ADD MLOAD PUSH2 0xFFFF AND DUP8 PUSH1 0x0 ADD MLOAD PUSH5 0xFFFFFFFFFF AND DUP10 DUP9 PUSH1 0x60 ADD MLOAD PUSH1 0x1 PUSH2 0x10F3 JUMP JUMPDEST PUSH1 0x20 DUP8 ADD MLOAD SWAP2 SWAP4 POP SWAP2 POP PUSH1 0x1 PUSH1 0xF8 SHL SWAP1 DUP2 AND EQ DUP2 DUP1 ISZERO PUSH2 0xC34 JUMPI POP DUP1 ISZERO JUMPDEST ISZERO PUSH2 0xC5D JUMPI PUSH1 0x20 DUP7 DUP2 ADD DUP1 MLOAD PUSH1 0x1 PUSH1 0xF8 SHL OR PUSH1 0x1 PUSH1 0x1 PUSH1 0xF8 SHL SUB NOT AND SWAP1 MSTORE PUSH1 0x1 SWAP1 DUP7 ADD MSTORE PUSH2 0xC83 JUMP JUMPDEST DUP2 ISZERO DUP1 ISZERO PUSH2 0xC68 JUMPI POP DUP1 JUMPDEST ISZERO PUSH2 0xC83 JUMPI PUSH1 0x20 DUP1 DUP8 ADD DUP1 MLOAD PUSH1 0x7F PUSH1 0xF9 SHL AND SWAP1 MSTORE PUSH1 0x1 SWAP1 DUP7 ADD MSTORE JUMPDEST PUSH1 0x60 DUP6 ADD MLOAD PUSH1 0x40 ADD MLOAD PUSH2 0xC96 SWAP1 DUP5 PUSH2 0x1124 JUMP JUMPDEST SWAP4 POP POP POP POP JUMPDEST SWAP5 SWAP4 POP POP POP POP JUMP JUMPDEST DUP2 DUP2 ADD DUP3 DUP2 SLT ISZERO PUSH1 0x0 DUP4 SLT ISZERO EQ PUSH2 0xB44 JUMPI PUSH1 0x0 DUP1 REVERT JUMPDEST PUSH2 0xCC2 PUSH2 0x3CA3 JUMP JUMPDEST PUSH1 0x0 PUSH2 0xCCD DUP6 PUSH2 0x114F JUMP JUMPDEST SWAP1 POP PUSH2 0xCFB PUSH2 0xCF3 PUSH2 0xCEC DUP7 DUP7 PUSH1 0xC0 ADD MLOAD PUSH2 0x12B2 SWAP1 SWAP2 SWAP1 PUSH4 0xFFFFFFFF AND JUMP JUMPDEST DUP4 SWAP1 PUSH2 0x12DD JUMP JUMPDEST DUP5 MLOAD SWAP1 PUSH2 0xCA4 JUMP JUMPDEST SWAP1 SWAP3 MSTORE POP SWAP3 SWAP2 POP POP JUMP JUMPDEST PUSH1 0x60 PUSH1 0x0 PUSH2 0xD13 DUP5 DUP5 PUSH2 0x1324 JUMP JUMPDEST SWAP1 POP PUSH1 0x1 DUP2 MLOAD GT PUSH2 0xD25 JUMPI SWAP1 POP PUSH2 0xB44 JUMP JUMPDEST PUSH2 0xB8E DUP2 PUSH2 0x1446 JUMP JUMPDEST DUP4 MLOAD PUSH1 0x0 SWAP1 PUSH1 0xF0 DUP6 SWAP1 SHR PUSH2 0x3FFF AND SWAP1 DUP3 SWAP1 DUP2 SWAP1 PUSH2 0xD4B SWAP1 DUP9 PUSH2 0xE13 JUMP JUMPDEST SWAP2 POP SWAP2 POP PUSH2 0xD58 DUP8 PUSH2 0xE58 JUMP JUMPDEST DUP1 PUSH2 0xD63 JUMPI POP PUSH1 0x0 DUP2 SGT JUMPDEST ISZERO PUSH2 0xDDB JUMPI PUSH2 0xD71 DUP4 PUSH2 0xB6B JUMP JUMPDEST PUSH1 0x60 DUP11 ADD MSTORE PUSH1 0x0 DUP1 DUP1 PUSH2 0xD85 DUP13 DUP6 DUP11 PUSH2 0xE64 JUMP JUMPDEST SWAP2 SWAP5 POP SWAP3 POP SWAP1 POP PUSH2 0xD9A DUP3 PUSH2 0x40F DUP8 DUP7 PUSH2 0xCA4 JUMP JUMPDEST PUSH1 0x60 DUP14 ADD MLOAD PUSH1 0x40 ADD MLOAD PUSH1 0xC0 DUP15 ADD MSTORE SWAP5 POP DUP9 ISZERO PUSH2 0xDD3 JUMPI PUSH1 0x60 DUP13 ADD MLOAD PUSH2 0x120 DUP13 ADD MSTORE PUSH1 0x1 PUSH1 0x1 PUSH1 0xD0 SHL SUB NOT DUP2 AND PUSH1 0xA0 DUP13 ADD MSTORE PUSH1 0x80 DUP12 ADD DUP3 SWAP1 MSTORE JUMPDEST POP POP POP PUSH2 0xDEE JUMP JUMPDEST PUSH2 0xDE8 DUP4 PUSH2 0xFFFF AND PUSH2 0xF61 JUMP JUMPDEST PUSH1 0xC0 DUP11 ADD MSTORE JUMPDEST POP SWAP2 POP POP JUMPDEST SWAP6 SWAP5 POP POP POP POP POP JUMP JUMPDEST PUSH2 0xE04 PUSH2 0x3C84 JUMP JUMPDEST PUSH1 0x0 PUSH2 0xB82 DUP4 PUSH2 0xFFFF AND PUSH2 0xF15 JUMP JUMPDEST PUSH1 0x0 DUP1 PUSH1 0x1 PUSH1 0xFE SHL DUP4 DUP2 AND EQ ISZERO PUSH2 0xE4A JUMPI PUSH1 0xF0 DUP4 SWAP1 SHR PUSH2 0x3FFF AND PUSH1 0x0 DUP1 PUSH2 0xE3A DUP8 DUP5 PUSH2 0xFD3 JUMP JUMPDEST POP SWAP2 SWAP7 POP SWAP5 POP PUSH2 0xE51 SWAP4 POP POP POP POP JUMP JUMPDEST POP PUSH1 0x0 SWAP1 POP DUP1 JUMPDEST SWAP3 POP SWAP3 SWAP1 POP JUMP JUMPDEST PUSH1 0x1 PUSH1 0xFF SHL SWAP1 DUP2 AND EQ SWAP1 JUMP JUMPDEST PUSH1 0x0 DUP1 PUSH1 0x0 DUP6 PUSH1 0xA0 ADD MLOAD MLOAD DUP7 PUSH1 0x40 ADD MLOAD LT DUP1 ISZERO PUSH2 0xEAB JUMPI POP DUP6 PUSH1 0x60 ADD MLOAD PUSH1 0x0 ADD MLOAD PUSH2 0xFFFF AND DUP7 PUSH1 0xA0 ADD MLOAD DUP8 PUSH1 0x40 ADD MLOAD DUP2 MLOAD DUP2 LT PUSH2 0xE9D JUMPI INVALID JUMPDEST PUSH1 0x20 MUL PUSH1 0x20 ADD ADD MLOAD PUSH1 0x0 ADD MLOAD EQ JUMPDEST ISZERO PUSH2 0xED9 JUMPI PUSH2 0xECD DUP7 PUSH1 0xA0 ADD MLOAD DUP8 PUSH1 0x60 ADD MLOAD DUP9 PUSH1 0x80 ADD MLOAD DUP8 DUP11 PUSH1 0x40 ADD MLOAD PUSH2 0x15FF JUMP JUMPDEST PUSH1 0x40 DUP9 ADD MSTORE SWAP3 POP PUSH2 0xEDE JUMP JUMPDEST PUSH1 0x0 SWAP3 POP JUMPDEST PUSH1 0x0 DUP6 SGT ISZERO PUSH2 0xF05 JUMPI PUSH2 0xEFB DUP7 PUSH1 0x60 ADD MLOAD DUP8 PUSH1 0xE0 ADD MLOAD DUP8 DUP8 PUSH2 0x107F JUMP JUMPDEST SWAP1 SWAP3 POP SWAP1 POP PUSH2 0xF0C JUMP JUMPDEST POP PUSH1 0x0 SWAP1 POP DUP1 JUMPDEST SWAP4 POP SWAP4 POP SWAP4 SWAP1 POP JUMP JUMPDEST PUSH2 0xF1D PUSH2 0x3CD2 JUMP JUMPDEST PUSH1 0x0 DUP1 PUSH1 0x0 PUSH2 0xF2B DUP6 PUSH2 0x175B JUMP JUMPDEST PUSH1 0x40 DUP1 MLOAD PUSH1 0x60 DUP2 ADD DUP3 MSTORE PUSH1 0x1 PUSH1 0x1 PUSH1 0xA0 SHL SUB SWAP1 SWAP4 AND DUP4 MSTORE PUSH1 0x20 DUP4 ADD SWAP4 SWAP1 SWAP4 MSTORE PUSH1 0xFF AND PUSH1 0xA EXP SWAP2 DUP2 ADD SWAP2 SWAP1 SWAP2 MSTORE SWAP4 POP POP POP POP SWAP2 SWAP1 POP JUMP JUMPDEST PUSH2 0xF69 PUSH2 0x3CD2 JUMP JUMPDEST PUSH1 0x0 DUP1 PUSH1 0x0 PUSH2 0xF2B DUP6 PUSH2 0x181C JUMP JUMPDEST PUSH1 0x0 PUSH3 0xF4240 DUP3 PUSH1 0x12 DUP2 GT ISZERO PUSH2 0xF89 JUMPI INVALID JUMPDEST ADD SWAP3 SWAP2 POP POP JUMP JUMPDEST PUSH2 0xF98 PUSH2 0x3C84 JUMP JUMPDEST PUSH1 0x0 PUSH2 0xFA7 DUP5 PUSH2 0xFFFF AND PUSH2 0x18A1 JUMP JUMPDEST PUSH1 0x40 DUP1 MLOAD PUSH1 0x80 DUP2 ADD DUP3 MSTORE PUSH2 0xFFFF SWAP7 SWAP1 SWAP7 AND DUP7 MSTORE PUSH1 0xFF DUP3 AND PUSH1 0x20 DUP8 ADD MSTORE DUP6 ADD SWAP4 SWAP1 SWAP4 MSTORE POP POP PUSH1 0x60 DUP3 ADD MSTORE SWAP1 JUMP JUMPDEST PUSH1 0x0 DUP1 PUSH1 0x0 DUP1 PUSH1 0x0 PUSH2 0xFE3 PUSH2 0x18BE JUMP JUMPDEST PUSH1 0x1 PUSH1 0x1 PUSH1 0xA0 SHL SUB DUP9 AND PUSH1 0x0 SWAP1 DUP2 MSTORE PUSH1 0x20 DUP3 DUP2 MSTORE PUSH1 0x40 DUP1 DUP4 KECCAK256 DUP11 DUP5 MSTORE SWAP1 SWAP2 MSTORE SWAP1 KECCAK256 DUP1 SLOAD PUSH10 0xFFFFFFFFFFFFFFFFFFFF DUP2 AND SWAP7 POP PUSH1 0x1 PUSH1 0x50 SHL SWAP1 DIV PUSH4 0xFFFFFFFF AND SWAP5 POP SWAP1 SWAP2 POP DUP4 ISZERO PUSH2 0x104F JUMPI DUP1 SLOAD PUSH2 0x1048 SWAP1 PUSH1 0x1 PUSH1 0x70 SHL SWAP1 DIV PUSH7 0xFFFFFFFFFFFFFF AND PUSH2 0x18CB JUMP JUMPDEST SWAP3 POP PUSH2 0x1064 JUMP JUMPDEST DUP1 SLOAD PUSH1 0x1 PUSH1 0x70 SHL SWAP1 DIV PUSH7 0xFFFFFFFFFFFFFF AND SWAP3 POP JUMPDEST SLOAD PUSH1 0x1 PUSH1 0xA8 SHL SWAP1 DIV PUSH1 0xA SWAP1 DUP2 SIGNEXTEND SWAP1 SIGNEXTEND SWAP8 SWAP4 SWAP7 POP SWAP2 SWAP5 POP SWAP3 POP POP JUMP JUMPDEST DUP4 MLOAD PUSH1 0x0 SWAP1 DUP2 SWAP1 PUSH2 0x1091 SWAP1 DUP7 SWAP1 PUSH2 0x18D9 JUMP JUMPDEST DUP6 DUP6 MSTORE PUSH1 0x0 PUSH2 0x10A0 DUP7 DUP6 PUSH2 0x197C JUMP JUMPDEST SWAP1 POP PUSH1 0x0 PUSH2 0x10DF DUP8 PUSH1 0x40 ADD MLOAD PUSH2 0x10D9 PUSH1 0x64 PUSH2 0x10D9 DUP12 PUSH1 0xA0 ADD MLOAD PUSH1 0x3 PUSH1 0xFF AND PUSH1 0x6 DUP2 LT PUSH2 0x10C8 JUMPI INVALID JUMPDEST BYTE PUSH2 0x10D3 DUP13 DUP10 PUSH2 0x1A39 JUMP JUMPDEST SWAP1 PUSH2 0x1A39 JUMP JUMPDEST SWAP1 PUSH2 0x1A87 JUMP JUMPDEST PUSH1 0xA0 SWAP8 SWAP1 SWAP8 ADD MLOAD SWAP7 SWAP9 SWAP7 SWAP8 POP POP POP POP POP POP POP JUMP JUMPDEST PUSH1 0x0 DUP1 PUSH1 0x0 PUSH2 0x1102 DUP10 DUP10 PUSH2 0x1AB8 JUMP JUMPDEST SWAP1 POP PUSH2 0x1113 DUP10 DUP10 DUP10 DUP10 DUP10 DUP10 DUP8 PUSH2 0x1AED JUMP JUMPDEST SWAP3 POP SWAP3 POP POP JUMPDEST SWAP7 POP SWAP7 SWAP5 POP POP POP POP POP JUMP JUMPDEST PUSH1 0x0 DUP1 PUSH2 0xC9C DUP5 PUSH1 0x20 ADD MLOAD PUSH2 0x10D9 DUP7 PUSH1 0x40 ADD MLOAD PUSH2 0x10D3 PUSH5 0x2540BE400 DUP9 PUSH2 0x1A39 SWAP1 SWAP2 SWAP1 PUSH4 0xFFFFFFFF AND JUMP JUMPDEST PUSH2 0x1157 PUSH2 0x3CA3 JUMP JUMPDEST PUSH1 0x0 PUSH2 0x1161 PUSH2 0x1B6B JUMP JUMPDEST PUSH1 0x0 DUP5 DUP2 MSTORE PUSH1 0x20 DUP3 SWAP1 MSTORE PUSH1 0x40 DUP2 KECCAK256 SWAP2 SWAP3 POP DUP1 PUSH1 0x1 DUP7 EQ ISZERO PUSH2 0x118E JUMPI POP PUSH8 0xDE0B6B3A7640000 SWAP1 POP DUP1 PUSH2 0x1264 JUMP JUMPDEST DUP3 SLOAD PUSH1 0x40 DUP1 MLOAD PUSH4 0x3FABE5A3 PUSH1 0xE2 SHL DUP2 MSTORE SWAP1 MLOAD PUSH1 0x1 PUSH1 0x1 PUSH1 0xA0 SHL SUB SWAP1 SWAP3 AND SWAP2 PUSH4 0xFEAF968C SWAP2 PUSH1 0x4 DUP1 DUP3 ADD SWAP3 PUSH1 0xA0 SWAP3 SWAP1 SWAP2 SWAP1 DUP3 SWAP1 SUB ADD DUP2 DUP7 DUP1 EXTCODESIZE ISZERO DUP1 ISZERO PUSH2 0x11D2 JUMPI PUSH1 0x0 DUP1 REVERT JUMPDEST POP GAS STATICCALL ISZERO DUP1 ISZERO PUSH2 0x11E6 JUMPI RETURNDATASIZE PUSH1 0x0 DUP1 RETURNDATACOPY RETURNDATASIZE PUSH1 0x0 REVERT JUMPDEST POP POP POP POP PUSH1 0x40 MLOAD RETURNDATASIZE PUSH1 0x1F NOT PUSH1 0x1F DUP3 ADD AND DUP3 ADD DUP1 PUSH1 0x40 MSTORE POP DUP2 ADD SWAP1 PUSH2 0x120A SWAP2 SWAP1 PUSH2 0x3F60 JUMP JUMPDEST POP SWAP2 SWAP4 POP POP PUSH1 0x0 DUP4 SGT SWAP2 POP PUSH2 0x1233 SWAP1 POP JUMPI PUSH1 0x40 MLOAD PUSH3 0x461BCD PUSH1 0xE5 SHL DUP2 MSTORE PUSH1 0x4 ADD PUSH2 0x1F7 SWAP1 PUSH2 0x428F JUMP JUMPDEST DUP3 SLOAD PUSH1 0xFF PUSH1 0x1 PUSH1 0xA0 SHL DUP3 DIV DUP2 AND PUSH1 0xA EXP SWAP4 POP PUSH1 0x1 PUSH1 0xA8 SHL SWAP1 SWAP2 DIV AND ISZERO PUSH2 0x1264 JUMPI PUSH2 0x1261 DUP2 PUSH2 0x10D9 DUP5 DUP1 PUSH2 0x1A39 JUMP JUMPDEST SWAP1 POP JUMPDEST PUSH1 0x40 DUP1 MLOAD PUSH1 0xA0 DUP2 ADD DUP3 MSTORE SWAP3 DUP4 MSTORE PUSH1 0x20 DUP4 ADD SWAP2 SWAP1 SWAP2 MSTORE SWAP2 SLOAD PUSH1 0xFF PUSH1 0x1 PUSH1 0xB0 SHL DUP3 DIV DUP2 AND SWAP4 DUP4 ADD SWAP4 SWAP1 SWAP4 MSTORE PUSH1 0x1 PUSH1 0xB8 SHL DUP2 DIV DUP4 AND PUSH1 0x60 DUP4 ADD MSTORE PUSH1 0x1 PUSH1 0xC0 SHL SWAP1 DIV SWAP1 SWAP2 AND PUSH1 0x80 DUP3 ADD MSTORE SWAP2 POP POP SWAP2 SWAP1 POP JUMP JUMPDEST PUSH1 0x0 DUP1 PUSH2 0xC9C DUP5 PUSH1 0x40 ADD MLOAD PUSH2 0x10D9 PUSH5 0x2540BE400 PUSH2 0x10D9 DUP8 DUP10 PUSH1 0x20 ADD MLOAD PUSH2 0x1A39 SWAP1 SWAP2 SWAP1 PUSH4 0xFFFFFFFF AND JUMP JUMPDEST PUSH1 0x0 DUP1 PUSH1 0x0 DUP4 SGT PUSH2 0x12F2 JUMPI DUP4 PUSH1 0x40 ADD MLOAD PUSH2 0x12F8 JUMP JUMPDEST DUP4 PUSH1 0x60 ADD MLOAD JUMPDEST SWAP1 POP PUSH1 0x0 PUSH2 0xDF3 DUP6 PUSH1 0x0 ADD MLOAD PUSH2 0x10D9 PUSH1 0x64 PUSH2 0x10D9 DUP7 PUSH2 0x10D3 DUP12 PUSH1 0x20 ADD MLOAD DUP12 PUSH2 0x1A39 SWAP1 SWAP2 SWAP1 PUSH4 0xFFFFFFFF AND JUMP JUMPDEST PUSH1 0x60 PUSH1 0x10 DUP3 PUSH1 0xFF AND GT ISZERO PUSH2 0x1337 JUMPI PUSH1 0x0 DUP1 REVERT JUMPDEST PUSH1 0x0 PUSH2 0x1341 PUSH2 0x1B78 JUMP JUMPDEST PUSH1 0x1 PUSH1 0x1 PUSH1 0xA0 SHL SUB DUP6 AND PUSH1 0x0 SWAP1 DUP2 MSTORE PUSH1 0x20 DUP3 SWAP1 MSTORE PUSH1 0x40 DUP2 KECCAK256 SWAP2 SWAP3 POP PUSH1 0xFF DUP6 AND PUSH8 0xFFFFFFFFFFFFFFFF DUP2 GT DUP1 ISZERO PUSH2 0x1376 JUMPI PUSH1 0x0 DUP1 REVERT JUMPDEST POP PUSH1 0x40 MLOAD SWAP1 DUP1 DUP3 MSTORE DUP1 PUSH1 0x20 MUL PUSH1 0x20 ADD DUP3 ADD PUSH1 0x40 MSTORE DUP1 ISZERO PUSH2 0x13B0 JUMPI DUP2 PUSH1 0x20 ADD JUMPDEST PUSH2 0x139D PUSH2 0x3CFC JUMP JUMPDEST DUP2 MSTORE PUSH1 0x20 ADD SWAP1 PUSH1 0x1 SWAP1 SUB SWAP1 DUP2 PUSH2 0x1395 JUMPI SWAP1 POP JUMPDEST POP SWAP1 POP PUSH1 0x0 JUMPDEST DUP6 PUSH1 0xFF AND DUP2 LT ISZERO PUSH2 0x143C JUMPI PUSH1 0x0 DUP4 DUP3 PUSH1 0x10 DUP2 LT PUSH2 0x13CF JUMPI INVALID JUMPDEST ADD SWAP1 POP PUSH1 0x0 DUP4 DUP4 DUP2 MLOAD DUP2 LT PUSH2 0x13E0 JUMPI INVALID JUMPDEST PUSH1 0x20 SWAP1 DUP2 MUL SWAP2 SWAP1 SWAP2 ADD DUP2 ADD MLOAD DUP4 SLOAD PUSH2 0xFFFF DUP2 AND DUP3 MSTORE PUSH5 0xFFFFFFFFFF PUSH3 0x10000 DUP3 DIV AND SWAP3 DUP3 ADD SWAP3 SWAP1 SWAP3 MSTORE PUSH1 0xFF PUSH1 0x1 PUSH1 0x38 SHL DUP4 DIV AND PUSH1 0x40 DUP3 ADD MSTORE PUSH1 0x1 PUSH1 0x40 SHL SWAP1 SWAP2 DIV PUSH1 0xA SWAP1 DUP2 SIGNEXTEND SWAP1 SIGNEXTEND PUSH1 0x60 DUP3 ADD MSTORE PUSH1 0x80 ADD SWAP2 SWAP1 SWAP2 MSTORE POP PUSH1 0x1 ADD PUSH2 0x13B6 JUMP JUMPDEST POP SWAP6 SWAP5 POP POP POP POP POP JUMP JUMPDEST DUP1 MLOAD PUSH1 0x0 DUP2 PUSH8 0xFFFFFFFFFFFFFFFF DUP2 GT DUP1 ISZERO PUSH2 0x1461 JUMPI PUSH1 0x0 DUP1 REVERT JUMPDEST POP PUSH1 0x40 MLOAD SWAP1 DUP1 DUP3 MSTORE DUP1 PUSH1 0x20 MUL PUSH1 0x20 ADD DUP3 ADD PUSH1 0x40 MSTORE DUP1 ISZERO PUSH2 0x148B JUMPI DUP2 PUSH1 0x20 ADD PUSH1 0x20 DUP3 MUL DUP1 CALLDATASIZE DUP4 CALLDATACOPY ADD SWAP1 POP JUMPDEST POP SWAP1 POP PUSH1 0x0 JUMPDEST DUP3 DUP2 LT ISZERO PUSH2 0x14E8 JUMPI PUSH1 0x0 DUP5 DUP3 DUP2 MLOAD DUP2 LT PUSH2 0x14A7 JUMPI INVALID JUMPDEST PUSH1 0x20 MUL PUSH1 0x20 ADD ADD MLOAD SWAP1 POP PUSH2 0x14C8 DUP2 PUSH1 0x0 ADD MLOAD DUP3 PUSH1 0x20 ADD MLOAD DUP4 PUSH1 0x40 ADD MLOAD PUSH2 0x1B85 JUMP JUMPDEST DUP4 DUP4 DUP2 MLOAD DUP2 LT PUSH2 0x14D4 JUMPI INVALID JUMPDEST PUSH1 0x20 SWAP1 DUP2 MUL SWAP2 SWAP1 SWAP2 ADD ADD MSTORE POP PUSH1 0x1 ADD PUSH2 0x1491 JUMP JUMPDEST POP PUSH1 0x1 JUMPDEST DUP3 DUP2 LT ISZERO PUSH2 0x28B JUMPI DUP1 JUMPDEST PUSH1 0x0 DUP2 GT DUP1 ISZERO PUSH2 0x152E JUMPI POP DUP3 DUP2 DUP2 MLOAD DUP2 LT PUSH2 0x150D JUMPI INVALID JUMPDEST PUSH1 0x20 MUL PUSH1 0x20 ADD ADD MLOAD DUP4 PUSH1 0x1 DUP4 SUB DUP2 MLOAD DUP2 LT PUSH2 0x1524 JUMPI INVALID JUMPDEST PUSH1 0x20 MUL PUSH1 0x20 ADD ADD MLOAD GT JUMPDEST ISZERO PUSH2 0x15F6 JUMPI DUP3 DUP2 DUP2 MLOAD DUP2 LT PUSH2 0x153F JUMPI INVALID JUMPDEST PUSH1 0x20 MUL PUSH1 0x20 ADD ADD MLOAD DUP4 PUSH1 0x1 DUP4 SUB DUP2 MLOAD DUP2 LT PUSH2 0x1556 JUMPI INVALID JUMPDEST PUSH1 0x20 MUL PUSH1 0x20 ADD ADD MLOAD DUP5 PUSH1 0x1 DUP5 SUB DUP2 MLOAD DUP2 LT PUSH2 0x156D JUMPI INVALID JUMPDEST PUSH1 0x20 MUL PUSH1 0x20 ADD ADD DUP6 DUP5 DUP2 MLOAD DUP2 LT PUSH2 0x1580 JUMPI INVALID JUMPDEST PUSH1 0x20 MUL PUSH1 0x20 ADD ADD DUP3 DUP2 MSTORE POP DUP3 DUP2 MSTORE POP POP POP DUP5 DUP2 DUP2 MLOAD DUP2 LT PUSH2 0x159D JUMPI INVALID JUMPDEST PUSH1 0x20 MUL PUSH1 0x20 ADD ADD MLOAD DUP6 PUSH1 0x1 DUP4 SUB DUP2 MLOAD DUP2 LT PUSH2 0x15B4 JUMPI INVALID JUMPDEST PUSH1 0x20 MUL PUSH1 0x20 ADD ADD MLOAD DUP7 PUSH1 0x1 DUP5 SUB DUP2 MLOAD DUP2 LT PUSH2 0x15CB JUMPI INVALID JUMPDEST PUSH1 0x20 MUL PUSH1 0x20 ADD ADD DUP8 DUP5 DUP2 MLOAD DUP2 LT PUSH2 0x15DE JUMPI INVALID JUMPDEST PUSH1 0x20 SWAP1 DUP2 MUL SWAP2 SWAP1 SWAP2 ADD ADD SWAP2 SWAP1 SWAP2 MSTORE MSTORE PUSH1 0x0 NOT ADD PUSH2 0x14F6 JUMP JUMPDEST POP PUSH1 0x1 ADD PUSH2 0x14EC JUMP JUMPDEST PUSH1 0x0 DUP1 DUP1 DUP1 DUP5 JUMPDEST DUP10 MLOAD DUP2 LT ISZERO PUSH2 0x169D JUMPI PUSH2 0x162F DUP11 DUP3 DUP2 MLOAD DUP2 LT PUSH2 0x161E JUMPI INVALID JUMPDEST PUSH1 0x20 MUL PUSH1 0x20 ADD ADD MLOAD PUSH1 0x40 ADD MLOAD PUSH2 0x1BE0 JUMP JUMPDEST PUSH2 0x1638 JUMPI PUSH2 0x1695 JUMP JUMPDEST DUP9 PUSH1 0x0 ADD MLOAD PUSH2 0xFFFF AND DUP11 DUP3 DUP2 MLOAD DUP2 LT PUSH2 0x164D JUMPI INVALID JUMPDEST PUSH1 0x20 MUL PUSH1 0x20 ADD ADD MLOAD PUSH1 0x0 ADD MLOAD EQ PUSH2 0x1663 JUMPI PUSH2 0x169D JUMP JUMPDEST PUSH1 0x0 DUP1 PUSH2 0x1675 DUP4 DUP13 DUP13 DUP16 DUP14 PUSH1 0x1 PUSH2 0x1BF6 JUMP JUMPDEST SWAP1 SWAP3 POP SWAP1 POP PUSH2 0x1684 DUP6 DUP4 PUSH2 0xCA4 JUMP JUMPDEST SWAP5 POP PUSH2 0x1690 DUP5 DUP3 PUSH2 0xCA4 JUMP JUMPDEST SWAP4 POP POP POP JUMPDEST PUSH1 0x1 ADD PUSH2 0x1606 JUMP JUMPDEST POP DUP5 JUMPDEST DUP10 MLOAD DUP2 LT ISZERO PUSH2 0x1732 JUMPI PUSH1 0x0 DUP11 DUP3 DUP2 MLOAD DUP2 LT PUSH2 0x16B7 JUMPI INVALID JUMPDEST PUSH1 0x20 MUL PUSH1 0x20 ADD ADD MLOAD SWAP1 POP PUSH1 0x1 PUSH1 0xFF AND DUP2 PUSH1 0x40 ADD MLOAD EQ PUSH2 0x16D6 JUMPI POP PUSH2 0x172A JUMP JUMPDEST DUP10 MLOAD DUP2 MLOAD PUSH2 0xFFFF SWAP1 SWAP2 AND EQ PUSH2 0x16EB JUMPI POP PUSH2 0x1732 JUMP JUMPDEST PUSH1 0x20 DUP2 ADD MLOAD PUSH1 0x0 SWAP1 PUSH2 0x16FF SWAP1 DUP13 SWAP1 DUP12 PUSH2 0x1D33 JUMP JUMPDEST SWAP1 POP PUSH1 0x0 PUSH2 0x1718 DUP13 DUP5 PUSH1 0x60 ADD MLOAD DUP6 PUSH1 0x20 ADD MLOAD DUP14 DUP7 PUSH2 0x1E23 JUMP JUMPDEST SWAP1 POP PUSH2 0x1724 DUP6 DUP3 PUSH2 0xCA4 JUMP JUMPDEST SWAP5 POP POP POP POP JUMPDEST PUSH1 0x1 ADD PUSH2 0x16A0 JUMP JUMPDEST PUSH1 0x40 DUP10 ADD MLOAD PUSH2 0x174C SWAP1 PUSH2 0x1745 SWAP1 DUP5 PUSH2 0x1124 JUMP JUMPDEST DUP5 SWAP1 PUSH2 0xCA4 JUMP JUMPDEST SWAP11 SWAP1 SWAP10 POP SWAP8 POP POP POP POP POP POP POP POP JUMP JUMPDEST PUSH1 0x0 DUP1 PUSH1 0x0 DUP1 PUSH1 0x0 PUSH2 0x176C DUP7 PUSH2 0x1EB7 JUMP JUMPDEST SWAP1 SWAP3 POP SWAP1 POP PUSH1 0x0 PUSH1 0x1 PUSH1 0x1 PUSH1 0xA0 SHL SUB DUP4 AND PUSH2 0x1791 JUMPI POP PUSH1 0x0 SWAP1 POP PUSH5 0x2540BE400 PUSH2 0x1811 JUMP JUMPDEST DUP3 PUSH1 0x1 PUSH1 0x1 PUSH1 0xA0 SHL SUB AND PUSH4 0xB2FFFB04 PUSH1 0x40 MLOAD DUP2 PUSH4 0xFFFFFFFF AND PUSH1 0xE0 SHL DUP2 MSTORE PUSH1 0x4 ADD PUSH1 0x20 PUSH1 0x40 MLOAD DUP1 DUP4 SUB DUP2 DUP7 DUP1 EXTCODESIZE ISZERO DUP1 ISZERO PUSH2 0x17CA JUMPI PUSH1 0x0 DUP1 REVERT JUMPDEST POP GAS STATICCALL ISZERO DUP1 ISZERO PUSH2 0x17DE JUMPI RETURNDATASIZE PUSH1 0x0 DUP1 RETURNDATACOPY RETURNDATASIZE PUSH1 0x0 REVERT JUMPDEST POP POP POP POP PUSH1 0x40 MLOAD RETURNDATASIZE PUSH1 0x1F NOT PUSH1 0x1F DUP3 ADD AND DUP3 ADD DUP1 PUSH1 0x40 MSTORE POP DUP2 ADD SWAP1 PUSH2 0x1802 SWAP2 SWAP1 PUSH2 0x3EA8 JUMP JUMPDEST SWAP1 POP PUSH1 0x0 DUP2 SGT PUSH2 0x1811 JUMPI PUSH1 0x0 DUP1 REVERT JUMPDEST SWAP7 SWAP2 SWAP6 POP SWAP4 POP SWAP2 POP POP JUMP JUMPDEST PUSH1 0x0 DUP1 PUSH1 0x0 DUP1 PUSH1 0x0 PUSH2 0x182D DUP7 PUSH2 0x1EB7 JUMP JUMPDEST SWAP1 SWAP3 POP SWAP1 POP PUSH1 0x0 PUSH1 0x1 PUSH1 0x1 PUSH1 0xA0 SHL SUB DUP4 AND PUSH2 0x1852 JUMPI POP PUSH1 0x0 SWAP1 POP PUSH5 0x2540BE400 PUSH2 0x1811 JUMP JUMPDEST DUP3 PUSH1 0x1 PUSH1 0x1 PUSH1 0xA0 SHL SUB AND PUSH4 0x1EE10833 PUSH1 0x40 MLOAD DUP2 PUSH4 0xFFFFFFFF AND PUSH1 0xE0 SHL DUP2 MSTORE PUSH1 0x4 ADD PUSH1 0x20 PUSH1 0x40 MLOAD DUP1 DUP4 SUB DUP2 PUSH1 0x0 DUP8 DUP1 EXTCODESIZE ISZERO DUP1 ISZERO PUSH2 0x188D JUMPI PUSH1 0x0 DUP1 REVERT JUMPDEST POP GAS CALL ISZERO DUP1 ISZERO PUSH2 0x17DE JUMPI RETURNDATASIZE PUSH1 0x0 DUP1 RETURNDATACOPY RETURNDATASIZE PUSH1 0x0 REVERT JUMPDEST PUSH1 0x0 DUP1 PUSH2 0x18AC PUSH2 0x1EEE JUMP JUMPDEST PUSH1 0x0 SWAP4 DUP5 MSTORE PUSH1 0x20 MSTORE POP POP PUSH1 0x40 SWAP1 KECCAK256 SLOAD SWAP1 JUMP JUMPDEST PUSH1 0x0 DUP1 PUSH2 0xB44 PUSH1 0x6 PUSH2 0xF77 JUMP JUMPDEST PUSH1 0x8 DUP2 SWAP1 SHR PUSH1 0xFF SWAP1 SWAP2 AND SHL SWAP1 JUMP JUMPDEST PUSH2 0x18E6 DUP2 PUSH2 0xFFFF AND PUSH2 0x1EFB JUMP JUMPDEST PUSH1 0x1 PUSH1 0x1 PUSH1 0xA0 SHL SUB AND PUSH1 0xC0 DUP4 ADD DUP2 SWAP1 MSTORE PUSH1 0x0 SWAP1 DUP2 SWAP1 DUP2 SWAP1 PUSH2 0x1906 SWAP1 PUSH2 0x1F21 JUMP JUMPDEST SWAP5 POP SWAP5 POP SWAP5 POP POP POP PUSH1 0x0 PUSH2 0x191D DUP7 PUSH1 0xC0 ADD MLOAD PUSH2 0x1F8A JUMP JUMPDEST POP POP PUSH1 0x80 DUP8 ADD DUP6 SWAP1 MSTORE PUSH1 0x40 DUP8 ADD DUP2 SWAP1 MSTORE PUSH1 0x1 PUSH1 0x1 PUSH1 0xD8 SHL SUB NOT DUP4 AND PUSH1 0xA0 DUP9 ADD MSTORE PUSH1 0xC0 DUP8 ADD MLOAD SWAP1 SWAP2 POP PUSH2 0x1951 SWAP1 DUP5 PUSH1 0x0 PUSH2 0x1FF4 JUMP JUMPDEST PUSH1 0x20 DUP8 ADD MSTORE PUSH1 0xC0 DUP7 ADD MLOAD PUSH2 0x1969 SWAP1 PUSH2 0xFFFF DUP8 AND PUSH2 0xFD3 JUMP JUMPDEST POP POP POP PUSH1 0x60 SWAP1 SWAP7 ADD SWAP6 SWAP1 SWAP6 MSTORE POP POP POP POP POP JUMP JUMPDEST PUSH1 0x0 DUP1 PUSH1 0x0 DUP1 PUSH2 0x198B DUP7 PUSH2 0x2087 JUMP JUMPDEST SWAP1 POP DUP5 DUP2 GT PUSH2 0x199B JUMPI PUSH1 0x1 DUP2 SUB SWAP5 POP JUMPDEST POP PUSH1 0x0 PUSH2 0x19A8 DUP7 DUP7 PUSH2 0x20B1 JUMP JUMPDEST POP SWAP1 POP PUSH1 0x0 PUSH2 0x19D6 DUP8 PUSH1 0xC0 ADD MLOAD DUP9 PUSH1 0x0 ADD MLOAD PUSH1 0x0 ADD MLOAD PUSH2 0xFFFF AND DUP10 PUSH1 0x80 ADD MLOAD DUP10 DUP12 PUSH1 0x0 ADD MLOAD PUSH1 0x20 ADD MLOAD PUSH2 0x21FF JUMP JUMPDEST SWAP1 POP PUSH1 0x0 DUP2 ISZERO PUSH2 0x1A08 JUMPI PUSH1 0xC0 DUP9 ADD MLOAD DUP9 MLOAD DUP1 MLOAD PUSH1 0x80 DUP12 ADD MLOAD PUSH2 0x1A04 SWAP4 SWAP3 PUSH2 0xFFFF SWAP1 SWAP3 AND SWAP2 DUP12 SWAP1 PUSH1 0x0 DUP9 PUSH2 0x1AED JUMP JUMPDEST POP SWAP1 POP JUMPDEST PUSH1 0x60 DUP9 ADD MLOAD DUP9 MLOAD PUSH1 0x40 ADD MLOAD PUSH2 0x1A2D SWAP2 SWAP1 PUSH2 0x40F SWAP1 PUSH2 0x1A26 SWAP1 DUP6 PUSH2 0x1124 JUMP JUMPDEST DUP7 SWAP1 PUSH2 0xCA4 JUMP JUMPDEST SWAP9 SWAP8 POP POP POP POP POP POP POP POP JUMP JUMPDEST DUP2 DUP2 MUL PUSH1 0x0 NOT DUP4 EQ ISZERO PUSH2 0x1A69 JUMPI DUP2 ISZERO DUP1 PUSH2 0x1A5B JUMPI POP DUP3 DUP3 DUP3 DUP2 PUSH2 0x1A58 JUMPI INVALID JUMPDEST SDIV EQ JUMPDEST PUSH2 0x1A64 JUMPI PUSH1 0x0 DUP1 REVERT JUMPDEST PUSH2 0xB44 JUMP JUMPDEST DUP3 ISZERO DUP1 PUSH2 0x1A7E JUMPI POP DUP2 DUP4 DUP3 DUP2 PUSH2 0x1A7B JUMPI INVALID JUMPDEST SDIV EQ JUMPDEST PUSH2 0xB44 JUMPI PUSH1 0x0 DUP1 REVERT JUMPDEST PUSH1 0x0 DUP2 PUSH1 0x0 NOT EQ DUP1 ISZERO PUSH2 0x1A9D JUMPI POP PUSH1 0x1 PUSH1 0xFF SHL DUP4 EQ JUMPDEST ISZERO PUSH2 0x1AA7 JUMPI PUSH1 0x0 DUP1 REVERT JUMPDEST DUP2 DUP4 DUP2 PUSH2 0x1AB0 JUMPI INVALID JUMPDEST SDIV SWAP4 SWAP3 POP POP POP JUMP JUMPDEST PUSH1 0x0 DUP1 PUSH2 0x1AC3 PUSH2 0x22AB JUMP JUMPDEST PUSH1 0x1 PUSH1 0x1 PUSH1 0xA0 SHL SUB DUP6 AND PUSH1 0x0 SWAP1 DUP2 MSTORE PUSH1 0x20 SWAP2 DUP3 MSTORE PUSH1 0x40 DUP1 DUP3 KECCAK256 DUP7 DUP4 MSTORE SWAP1 SWAP3 MSTORE KECCAK256 SLOAD SWAP2 POP POP SWAP3 SWAP2 POP POP JUMP JUMPDEST PUSH1 0x0 DUP1 PUSH1 0x0 PUSH2 0x1AFB DUP5 PUSH2 0x22B8 JUMP JUMPDEST SWAP1 POP JUMPDEST DUP1 ISZERO PUSH2 0x1B5E JUMPI PUSH1 0x0 PUSH2 0x1B10 DUP10 DUP4 PUSH2 0x22DD JUMP JUMPDEST SWAP1 POP PUSH1 0x0 PUSH2 0x1B22 DUP13 DUP13 DUP5 DUP13 DUP13 DUP13 PUSH2 0x2390 JUMP JUMPDEST SWAP1 POP PUSH2 0x1B2E DUP6 DUP3 PUSH2 0xCA4 JUMP JUMPDEST SWAP5 POP PUSH1 0x0 DUP2 SLT ISZERO PUSH2 0x1B3E JUMPI PUSH1 0x1 SWAP4 POP JUMPDEST PUSH2 0x1B4A DUP7 DUP5 PUSH1 0x0 PUSH2 0x23EF JUMP JUMPDEST SWAP6 POP PUSH2 0x1B55 DUP7 PUSH2 0x22B8 JUMP JUMPDEST SWAP3 POP POP POP PUSH2 0x1AFE JUMP JUMPDEST POP SWAP8 POP SWAP8 SWAP6 POP POP POP POP POP POP JUMP JUMPDEST PUSH1 0x0 DUP1 PUSH2 0xB44 PUSH1 0x10 PUSH2 0xF77 JUMP JUMPDEST PUSH1 0x0 DUP1 PUSH2 0xB44 PUSH1 0xD PUSH2 0xF77 JUMP JUMPDEST PUSH1 0x0 PUSH2 0x3FFF DUP5 GT ISZERO PUSH2 0x1B96 JUMPI PUSH1 0x0 DUP1 REVERT JUMPDEST PUSH5 0xFFFFFFFFFF DUP4 GT ISZERO PUSH2 0x1BA8 JUMPI PUSH1 0x0 DUP1 REVERT JUMPDEST PUSH1 0x8 DUP3 GT ISZERO PUSH2 0x1BB6 JUMPI PUSH1 0x0 DUP1 REVERT JUMPDEST POP PUSH8 0xFFFF000000000000 PUSH1 0x30 DUP5 SWAP1 SHL AND PUSH6 0xFFFFFFFFFF00 PUSH1 0x8 DUP5 SWAP1 SHL AND OR PUSH1 0xFF DUP3 AND OR SWAP4 SWAP3 POP POP POP JUMP JUMPDEST PUSH1 0x0 PUSH1 0x2 DUP3 LT DUP1 ISZERO SWAP1 PUSH2 0xB44 JUMPI POP POP PUSH1 0x8 LT ISZERO SWAP1 JUMP JUMPDEST PUSH1 0x0 DUP1 PUSH1 0x0 DUP6 DUP10 DUP2 MLOAD DUP2 LT PUSH2 0x1C07 JUMPI INVALID JUMPDEST PUSH1 0x20 MUL PUSH1 0x20 ADD ADD MLOAD SWAP1 POP PUSH1 0x0 DUP1 PUSH2 0x1C27 DUP11 PUSH1 0x20 ADD MLOAD DUP5 PUSH1 0x20 ADD MLOAD DUP10 PUSH2 0x243A JUMP JUMPDEST SWAP2 POP SWAP2 POP DUP1 ISZERO PUSH2 0x1C36 JUMPI PUSH1 0x0 DUP1 REVERT JUMPDEST PUSH2 0x1C44 DUP11 DUP11 DUP5 PUSH1 0x1 DUP12 PUSH2 0x24FA JUMP JUMPDEST POP POP PUSH1 0x0 DUP1 DUP6 ISZERO PUSH2 0x1C64 JUMPI PUSH2 0x1C5A DUP4 DUP11 DUP13 PUSH2 0x2575 JUMP JUMPDEST SWAP1 SWAP3 POP SWAP1 POP PUSH2 0x1C74 JUMP JUMPDEST PUSH2 0x1C6E DUP4 DUP11 PUSH2 0x260E JUMP JUMPDEST SWAP1 SWAP3 POP SWAP1 POP JUMPDEST DUP11 ISZERO PUSH2 0x1CF1 JUMPI PUSH1 0x0 DUP9 PUSH1 0x1 DUP14 SUB DUP2 MLOAD DUP2 LT PUSH2 0x1C8B JUMPI INVALID JUMPDEST PUSH1 0x20 MUL PUSH1 0x20 ADD ADD MLOAD SWAP1 POP PUSH1 0x1 PUSH1 0xFF AND DUP2 PUSH1 0x40 ADD MLOAD EQ DUP1 ISZERO PUSH2 0x1CAD JUMPI POP DUP4 MLOAD DUP2 MLOAD EQ JUMPDEST DUP1 ISZERO PUSH2 0x1CC0 JUMPI POP DUP4 PUSH1 0x20 ADD MLOAD DUP2 PUSH1 0x20 ADD MLOAD EQ JUMPDEST ISZERO PUSH2 0x1CEF JUMPI PUSH1 0x60 DUP2 ADD MLOAD PUSH2 0x1CD4 SWAP1 DUP4 PUSH2 0xCA4 JUMP JUMPDEST PUSH1 0x60 DUP3 ADD MSTORE PUSH1 0x3 PUSH1 0xA0 SWAP1 SWAP2 ADD MSTORE POP SWAP3 POP PUSH1 0x0 SWAP2 POP PUSH2 0x1119 SWAP1 POP JUMP JUMPDEST POP JUMPDEST DUP6 ISZERO PUSH2 0x1D1D JUMPI PUSH1 0x0 PUSH2 0x1D0E DUP12 DUP4 DUP7 PUSH1 0x20 ADD MLOAD DUP12 DUP15 PUSH1 0xC0 ADD MLOAD PUSH2 0x1E23 JUMP JUMPDEST SWAP3 SWAP6 POP SWAP2 SWAP4 POP PUSH2 0x1119 SWAP3 POP POP POP JUMP JUMPDEST PUSH1 0x0 PUSH2 0x1D0E DUP3 DUP6 PUSH1 0x20 ADD MLOAD DUP11 DUP14 PUSH1 0xC0 ADD MLOAD PUSH2 0x2689 JUMP JUMPDEST PUSH1 0x0 DUP1 PUSH1 0x0 PUSH2 0x1D47 DUP7 PUSH1 0x20 ADD MLOAD DUP7 DUP7 PUSH2 0x243A JUMP JUMPDEST SWAP2 POP SWAP2 POP PUSH1 0x0 PUSH2 0x1D56 DUP8 PUSH2 0x26DA JUMP JUMPDEST SWAP1 POP DUP2 PUSH2 0x1D79 JUMPI DUP7 MLOAD PUSH2 0x1D6F SWAP1 PUSH2 0xFFFF AND DUP8 DUP4 DUP9 PUSH2 0x26EE JUMP JUMPDEST SWAP4 POP POP POP POP PUSH2 0xB8E JUMP JUMPDEST PUSH1 0x0 PUSH2 0x1D84 DUP7 PUSH2 0x278D JUMP JUMPDEST SWAP1 POP PUSH1 0x0 PUSH2 0x1D9B PUSH2 0x1D94 DUP7 PUSH2 0x27A9 JUMP JUMPDEST DUP4 SWAP1 PUSH2 0x284D JUMP JUMPDEST SWAP1 POP PUSH1 0x0 PUSH2 0x1DB3 DUP11 PUSH1 0x0 ADD MLOAD PUSH2 0xFFFF AND DUP4 DUP7 DUP12 PUSH2 0x26EE JUMP JUMPDEST SWAP1 POP PUSH1 0x0 DUP1 DUP8 PUSH1 0x1 EQ ISZERO PUSH2 0x1DD8 JUMPI DUP10 SWAP2 POP PUSH2 0x1DD1 DUP13 PUSH1 0x40 ADD MLOAD PUSH2 0x28A7 JUMP JUMPDEST SWAP1 POP PUSH2 0x1E07 JUMP JUMPDEST PUSH2 0x1DEE PUSH2 0x1DE7 PUSH1 0x1 DUP11 SUB PUSH2 0x27A9 JUMP JUMPDEST DUP7 SWAP1 PUSH2 0x284D JUMP JUMPDEST SWAP2 POP PUSH2 0x1E04 DUP13 PUSH1 0x0 ADD MLOAD PUSH2 0xFFFF AND DUP4 DUP9 DUP14 PUSH2 0x26EE JUMP JUMPDEST SWAP1 POP JUMPDEST PUSH2 0x1E14 DUP3 DUP6 DUP4 DUP7 DUP16 PUSH2 0x2938 JUMP JUMPDEST SWAP9 POP POP POP POP POP POP POP POP POP PUSH2 0xB8E JUMP JUMPDEST PUSH1 0x0 DUP5 PUSH2 0x1E32 JUMPI POP PUSH1 0x0 PUSH2 0xDF3 JUMP JUMPDEST PUSH1 0x0 PUSH2 0x1E3E DUP6 DUP6 PUSH2 0x2998 JUMP JUMPDEST SWAP1 POP PUSH1 0x0 DUP1 DUP8 SGT ISZERO PUSH2 0x1E6D JUMPI PUSH2 0x1E66 DUP3 PUSH2 0x1E61 PUSH2 0x1E5A DUP12 PUSH2 0x29F5 JUMP JUMPDEST DUP8 SWAP1 PUSH2 0x284D JUMP JUMPDEST PUSH2 0x2A0A JUMP JUMPDEST SWAP1 POP PUSH2 0x1E9C JUMP JUMPDEST PUSH1 0x0 PUSH2 0x1E78 DUP10 PUSH2 0x2A77 JUMP JUMPDEST SWAP1 POP DUP5 DUP2 LT PUSH2 0x1E8C JUMPI DUP8 SWAP4 POP POP POP POP PUSH2 0xDF3 JUMP JUMPDEST PUSH2 0x1E98 DUP4 DUP3 DUP8 SUB PUSH2 0x2A0A JUMP JUMPDEST SWAP2 POP POP JUMPDEST PUSH4 0x3B9ACA00 DUP2 SGT ISZERO PUSH2 0x1EAD JUMPI PUSH1 0x0 DUP1 REVERT JUMPDEST PUSH2 0x1A2D DUP8 DUP3 PUSH2 0x2A8C JUMP JUMPDEST PUSH1 0x0 DUP1 PUSH1 0x0 PUSH2 0x1EC4 PUSH2 0x2AA5 JUMP JUMPDEST PUSH1 0x0 SWAP5 DUP6 MSTORE PUSH1 0x20 MSTORE POP POP PUSH1 0x40 SWAP1 SWAP2 KECCAK256 SLOAD PUSH1 0x1 PUSH1 0x1 PUSH1 0xA0 SHL SUB DUP2 AND SWAP3 PUSH1 0x1 PUSH1 0xA0 SHL SWAP1 SWAP2 DIV PUSH1 0xFF AND SWAP2 POP JUMP JUMPDEST PUSH1 0x0 DUP1 PUSH2 0xB44 PUSH1 0x9 PUSH2 0xF77 JUMP JUMPDEST PUSH1 0x0 DUP1 PUSH2 0x1F06 PUSH2 0x2AB2 JUMP JUMPDEST PUSH1 0x0 SWAP4 DUP5 MSTORE PUSH1 0x20 MSTORE POP POP PUSH1 0x40 SWAP1 KECCAK256 SLOAD PUSH1 0x1 PUSH1 0x1 PUSH1 0xA0 SHL SUB AND SWAP1 JUMP JUMPDEST PUSH1 0x0 DUP1 PUSH1 0x0 DUP1 PUSH1 0x0 DUP1 PUSH2 0x1F32 PUSH2 0x2ABF JUMP JUMPDEST PUSH1 0x1 PUSH1 0x1 PUSH1 0xA0 SHL SUB SWAP1 SWAP8 AND PUSH1 0x0 SWAP1 DUP2 MSTORE PUSH1 0x20 SWAP8 SWAP1 SWAP8 MSTORE POP POP PUSH1 0x40 SWAP1 SWAP5 KECCAK256 SLOAD PUSH2 0xFFFF DUP2 AND SWAP6 PUSH4 0xFFFFFFFF PUSH3 0x10000 DUP4 DIV DUP2 AND SWAP7 POP PUSH1 0x1 PUSH1 0x30 SHL DUP4 DIV AND SWAP5 POP PUSH1 0xFF PUSH1 0x1 PUSH1 0x50 SHL DUP4 DIV AND SWAP4 POP PUSH1 0x1 PUSH1 0x58 SHL SWAP1 SWAP2 DIV PUSH1 0xD8 SHL SWAP2 POP JUMP JUMPDEST PUSH1 0x0 DUP1 PUSH1 0x0 DUP1 PUSH2 0x1F98 PUSH2 0x2ACC JUMP JUMPDEST PUSH1 0x1 PUSH1 0x1 PUSH1 0xA0 SHL SUB SWAP6 SWAP1 SWAP6 AND PUSH1 0x0 SWAP1 DUP2 MSTORE PUSH1 0x20 SWAP6 SWAP1 SWAP6 MSTORE POP POP PUSH1 0x40 SWAP1 SWAP3 KECCAK256 SLOAD PUSH12 0xFFFFFFFFFFFFFFFFFFFFFFFF DUP2 AND SWAP4 PUSH1 0x1 PUSH1 0x60 SHL DUP3 DIV PUSH16 0xFFFFFFFFFFFFFFFFFFFFFFFFFFFFFFFF AND SWAP4 POP PUSH1 0x1 PUSH1 0xE0 SHL SWAP1 SWAP2 DIV PUSH4 0xFFFFFFFF AND SWAP2 POP JUMP JUMPDEST PUSH2 0x1FFC PUSH2 0x3D37 JUMP JUMPDEST PUSH2 0x2004 PUSH2 0x3D37 JUMP JUMPDEST PUSH1 0xFF DUP5 AND PUSH2 0x2013 JUMPI SWAP1 POP PUSH2 0xB8E JUMP JUMPDEST PUSH2 0x201D DUP6 DUP6 PUSH2 0xD05 JUMP JUMPDEST DUP2 MSTORE PUSH1 0xFF DUP5 AND PUSH1 0x60 DUP3 ADD MSTORE DUP3 PUSH8 0xFFFFFFFFFFFFFFFF DUP2 GT DUP1 ISZERO PUSH2 0x203F JUMPI PUSH1 0x0 DUP1 REVERT JUMPDEST POP PUSH1 0x40 MLOAD SWAP1 DUP1 DUP3 MSTORE DUP1 PUSH1 0x20 MUL PUSH1 0x20 ADD DUP3 ADD PUSH1 0x40 MSTORE DUP1 ISZERO PUSH2 0x2079 JUMPI DUP2 PUSH1 0x20 ADD JUMPDEST PUSH2 0x2066 PUSH2 0x3CFC JUMP JUMPDEST DUP2 MSTORE PUSH1 0x20 ADD SWAP1 PUSH1 0x1 SWAP1 SUB SWAP1 DUP2 PUSH2 0x205E JUMPI SWAP1 POP JUMPDEST POP PUSH1 0x20 DUP3 ADD MSTORE SWAP5 SWAP4 POP POP POP POP JUMP JUMPDEST PUSH1 0x0 DUP2 PUSH1 0x80 ADD MLOAD PUSH1 0x0 EQ ISZERO PUSH2 0x209E JUMPI POP PUSH1 0x0 PUSH2 0x32D JUMP JUMPDEST PUSH1 0x80 DUP3 ADD MLOAD PUSH3 0x76A700 SWAP1 PUSH2 0xF89 SWAP1 PUSH2 0x278D JUMP JUMPDEST PUSH1 0x20 DUP3 ADD MLOAD MLOAD MLOAD PUSH1 0x0 SWAP1 PUSH1 0x60 SWAP1 DUP1 PUSH8 0xFFFFFFFFFFFFFFFF DUP2 GT DUP1 ISZERO PUSH2 0x20D5 JUMPI PUSH1 0x0 DUP1 REVERT JUMPDEST POP PUSH1 0x40 MLOAD SWAP1 DUP1 DUP3 MSTORE DUP1 PUSH1 0x20 MUL PUSH1 0x20 ADD DUP3 ADD PUSH1 0x40 MSTORE DUP1 ISZERO PUSH2 0x20FF JUMPI DUP2 PUSH1 0x20 ADD PUSH1 0x20 DUP3 MUL DUP1 CALLDATASIZE DUP4 CALLDATACOPY ADD SWAP1 POP JUMPDEST POP SWAP2 POP PUSH2 0x210A PUSH2 0x3D5F JUMP JUMPDEST PUSH1 0x0 JUMPDEST DUP3 DUP2 LT ISZERO PUSH2 0x21F5 JUMPI DUP7 MLOAD PUSH2 0x2128 SWAP1 DUP4 PUSH1 0x1 DUP1 DUP6 ADD SWAP1 DUP11 PUSH2 0x24FA JUMP JUMPDEST PUSH1 0x0 DUP8 PUSH1 0x20 ADD MLOAD PUSH1 0x0 ADD MLOAD DUP3 DUP2 MLOAD DUP2 LT PUSH2 0x213E JUMPI INVALID JUMPDEST PUSH1 0x20 MUL PUSH1 0x20 ADD ADD MLOAD SWAP1 POP PUSH1 0x0 DUP2 PUSH1 0x20 ADD MLOAD SWAP1 POP PUSH1 0x0 DUP1 PUSH2 0x215E DUP5 DUP8 PUSH2 0x260E JUMP JUMPDEST SWAP2 POP SWAP2 POP PUSH2 0x2187 PUSH2 0x2180 DUP13 PUSH1 0xC0 ADD MLOAD DUP14 PUSH1 0x0 ADD MLOAD PUSH1 0x0 ADD MLOAD PUSH2 0xFFFF AND DUP7 PUSH2 0x2AD9 JUMP JUMPDEST DUP3 SWAP1 PUSH2 0xCA4 JUMP JUMPDEST DUP9 DUP7 DUP2 MLOAD DUP2 LT PUSH2 0x2193 JUMPI INVALID JUMPDEST PUSH1 0x20 MUL PUSH1 0x20 ADD ADD DUP2 DUP2 MSTORE POP POP PUSH1 0x0 PUSH2 0x21D6 PUSH2 0x1745 PUSH2 0x21CA DUP12 DUP10 DUP2 MLOAD DUP2 LT PUSH2 0x21B6 JUMPI INVALID JUMPDEST PUSH1 0x20 MUL PUSH1 0x20 ADD ADD MLOAD DUP8 DUP16 DUP13 PUSH1 0xC0 ADD MLOAD PUSH2 0x2689 JUMP JUMPDEST DUP15 MLOAD PUSH1 0x40 ADD MLOAD SWAP1 PUSH2 0x1124 JUMP JUMPDEST SWAP1 POP PUSH2 0x21E2 DUP11 DUP3 PUSH2 0xCA4 JUMP JUMPDEST SWAP10 POP POP PUSH1 0x1 SWAP1 SWAP5 ADD SWAP4 POP PUSH2 0x210D SWAP3 POP POP POP JUMP JUMPDEST POP POP POP SWAP3 POP SWAP3 SWAP1 POP JUMP JUMPDEST PUSH1 0x0 PUSH1 0x2 DUP3 GT PUSH2 0x2211 JUMPI POP PUSH1 0x0 PUSH2 0xDF3 JUMP JUMPDEST PUSH1 0x0 PUSH2 0x221D DUP8 DUP8 PUSH2 0x1AB8 JUMP JUMPDEST SWAP1 POP DUP1 PUSH2 0x222B JUMPI SWAP1 POP PUSH2 0xDF3 JUMP JUMPDEST PUSH1 0x0 PUSH2 0x2236 DUP6 PUSH2 0x278D JUMP JUMPDEST SWAP1 POP DUP6 DUP2 EQ ISZERO PUSH2 0x2260 JUMPI POP PUSH21 0x400080000002002000000002000000200000000020 NOT AND SWAP1 POP PUSH2 0xDF3 JUMP JUMPDEST PUSH1 0x1 JUMPDEST DUP5 DUP2 GT PUSH2 0x22A0 JUMPI PUSH1 0x0 PUSH2 0x2275 DUP3 PUSH2 0x27A9 JUMP JUMPDEST DUP4 ADD SWAP1 POP PUSH1 0x0 PUSH2 0x2285 DUP10 DUP4 PUSH2 0x2B1E JUMP JUMPDEST POP SWAP1 POP PUSH2 0x2294 DUP6 DUP3 PUSH1 0x0 PUSH2 0x23EF JUMP JUMPDEST SWAP5 POP POP POP PUSH1 0x1 ADD PUSH2 0x2263 JUMP JUMPDEST POP DUP2 SWAP3 POP POP POP PUSH2 0xDF3 JUMP JUMPDEST PUSH1 0x0 DUP1 PUSH2 0xB44 PUSH1 0xB PUSH2 0xF77 JUMP JUMPDEST PUSH1 0x0 DUP2 PUSH2 0x22C7 JUMPI POP PUSH1 0x0 PUSH2 0x32D JUMP JUMPDEST PUSH2 0x22D0 DUP3 PUSH2 0x2C26 JUMP JUMPDEST PUSH1 0xFF SUB PUSH1 0x1 ADD SWAP1 POP SWAP2 SWAP1 POP JUMP JUMPDEST PUSH1 0x0 DUP2 PUSH2 0x22E9 JUMPI PUSH1 0x0 DUP1 REVERT JUMPDEST PUSH2 0x100 DUP3 GT ISZERO PUSH2 0x22F8 JUMPI PUSH1 0x0 DUP1 REVERT JUMPDEST PUSH1 0x0 PUSH2 0x2303 DUP5 PUSH2 0xB4A JUMP JUMPDEST SWAP1 POP PUSH1 0x0 PUSH1 0x5A DUP5 GT PUSH2 0x231E JUMPI POP PUSH3 0x15180 DUP4 MUL ADD SWAP1 POP PUSH2 0xB44 JUMP JUMPDEST PUSH1 0x87 DUP5 GT PUSH2 0x2346 JUMPI POP PUSH1 0x59 NOT DUP4 ADD PUSH3 0x7E900 SWAP1 DUP2 MUL SWAP1 DUP3 MOD SWAP1 SWAP2 SUB ADD PUSH3 0x76A700 ADD SWAP1 POP PUSH2 0xB44 JUMP JUMPDEST PUSH1 0xC3 DUP5 GT PUSH2 0x236F JUMPI POP PUSH1 0x86 NOT DUP4 ADD PUSH3 0x278D00 SWAP1 DUP2 MUL SWAP1 DUP3 MOD SWAP1 SWAP2 SUB ADD PUSH4 0x1DA9C00 ADD SWAP1 POP PUSH2 0xB44 JUMP JUMPDEST POP PUSH1 0xC2 NOT DUP4 ADD PUSH3 0x76A700 SWAP1 DUP2 MUL SWAP1 DUP3 MOD SWAP1 SWAP2 SUB ADD PUSH4 0xB1FA800 ADD SWAP1 POP PUSH2 0xB44 JUMP JUMPDEST PUSH1 0x0 DUP1 PUSH2 0x239E DUP9 DUP9 DUP9 PUSH2 0x2AD9 JUMP JUMPDEST SWAP1 POP DUP5 DUP7 GT PUSH2 0x23AE JUMPI SWAP1 POP PUSH2 0x23E5 JUMP JUMPDEST PUSH1 0x0 PUSH2 0x23BB DUP6 DUP9 DUP9 PUSH2 0x1D33 JUMP JUMPDEST SWAP1 POP DUP4 ISZERO PUSH2 0x23D9 JUMPI PUSH2 0x23D0 DUP6 DUP4 DUP10 DUP10 DUP6 PUSH2 0x1E23 JUMP JUMPDEST SWAP3 POP POP POP PUSH2 0x23E5 JUMP JUMPDEST PUSH2 0x23D0 DUP3 DUP9 DUP9 DUP5 PUSH2 0x2689 JUMP JUMPDEST SWAP7 SWAP6 POP POP POP POP POP POP JUMP JUMPDEST PUSH1 0x0 PUSH1 0x1 DUP4 LT ISZERO DUP1 ISZERO PUSH2 0x2404 JUMPI POP PUSH2 0x100 DUP4 GT ISZERO JUMPDEST PUSH2 0x240D JUMPI PUSH1 0x0 DUP1 REVERT JUMPDEST DUP2 ISZERO PUSH2 0x2426 JUMPI POP PUSH1 0x1 PUSH1 0xFF SHL PUSH1 0x0 NOT DUP4 ADD SHR DUP4 OR PUSH2 0xB8E JUMP JUMPDEST POP PUSH1 0x1 PUSH1 0xFF SHL PUSH1 0x0 NOT DUP4 ADD SHR NOT DUP4 AND PUSH2 0xB8E JUMP JUMPDEST PUSH1 0x0 DUP1 PUSH1 0x0 DUP6 GT PUSH2 0x245D JUMPI PUSH1 0x40 MLOAD PUSH3 0x461BCD PUSH1 0xE5 SHL DUP2 MSTORE PUSH1 0x4 ADD PUSH2 0x1F7 SWAP1 PUSH2 0x41B5 JUMP JUMPDEST PUSH1 0x7 DUP6 GT ISZERO PUSH2 0x247E JUMPI PUSH1 0x40 MLOAD PUSH3 0x461BCD PUSH1 0xE5 SHL DUP2 MSTORE PUSH1 0x4 ADD PUSH2 0x1F7 SWAP1 PUSH2 0x4237 JUMP JUMPDEST PUSH1 0x0 PUSH2 0x2489 DUP5 PUSH2 0x278D JUMP JUMPDEST SWAP1 POP PUSH1 0x1 JUMPDEST DUP7 DUP2 GT PUSH2 0x24E1 JUMPI PUSH1 0x0 PUSH2 0x24AA PUSH2 0x24A3 DUP4 PUSH2 0x27A9 JUMP JUMPDEST DUP5 SWAP1 PUSH2 0x284D JUMP JUMPDEST SWAP1 POP DUP7 DUP2 EQ ISZERO PUSH2 0x24C2 JUMPI POP SWAP3 POP PUSH1 0x0 SWAP2 POP PUSH2 0x83D SWAP1 POP JUMP JUMPDEST DUP7 DUP2 GT ISZERO PUSH2 0x24D8 JUMPI POP SWAP3 POP PUSH1 0x1 SWAP2 POP PUSH2 0x83D SWAP1 POP JUMP JUMPDEST POP PUSH1 0x1 ADD PUSH2 0x248E JUMP JUMPDEST POP PUSH1 0x40 MLOAD PUSH3 0x461BCD PUSH1 0xE5 SHL DUP2 MSTORE PUSH1 0x4 ADD PUSH2 0x1F7 SWAP1 PUSH2 0x42B5 JUMP JUMPDEST DUP3 PUSH1 0x1 GT ISZERO DUP1 ISZERO PUSH2 0x250F JUMPI POP DUP5 PUSH1 0x20 ADD MLOAD DUP4 GT ISZERO JUMPDEST PUSH2 0x252B JUMPI PUSH1 0x40 MLOAD PUSH3 0x461BCD PUSH1 0xE5 SHL DUP2 MSTORE PUSH1 0x4 ADD PUSH2 0x1F7 SWAP1 PUSH2 0x4267 JUMP JUMPDEST PUSH1 0x0 PUSH2 0x2548 PUSH2 0x2539 DUP6 PUSH2 0x27A9 JUMP JUMPDEST PUSH2 0x2542 DUP5 PUSH2 0x278D JUMP JUMPDEST SWAP1 PUSH2 0x284D JUMP JUMPDEST SWAP1 POP PUSH2 0x256D DUP7 PUSH1 0x0 ADD MLOAD PUSH2 0xFFFF AND DUP3 DUP5 DUP7 PUSH2 0x2562 DUP12 PUSH2 0x26DA JUMP JUMPDEST DUP11 SWAP5 SWAP4 SWAP3 SWAP2 SWAP1 PUSH2 0x2CBF JUMP JUMPDEST POP POP POP POP POP POP JUMP JUMPDEST PUSH1 0x0 DUP1 PUSH2 0x2585 DUP6 PUSH1 0x40 ADD MLOAD PUSH2 0x1BE0 JUMP JUMPDEST DUP1 ISZERO PUSH2 0x2596 JUMPI POP PUSH1 0x0 DUP6 PUSH1 0x60 ADD MLOAD SLT ISZERO JUMPDEST PUSH2 0x259F JUMPI PUSH1 0x0 DUP1 REVERT JUMPDEST DUP3 MLOAD DUP6 MLOAD PUSH2 0xFFFF SWAP1 SWAP2 AND EQ PUSH2 0x25B3 JUMPI PUSH1 0x0 DUP1 REVERT JUMPDEST PUSH1 0x0 PUSH2 0x25CC DUP7 PUSH1 0x40 ADD MLOAD DUP6 PUSH2 0x2CE9 SWAP1 SWAP2 SWAP1 PUSH4 0xFFFFFFFF AND JUMP JUMPDEST PUSH1 0xFF AND SWAP1 POP PUSH2 0x25E9 DUP6 PUSH1 0x60 ADD MLOAD DUP8 PUSH1 0x60 ADD MLOAD DUP4 DUP9 PUSH1 0x80 ADD MLOAD PUSH2 0x2D1E JUMP JUMPDEST SWAP3 POP PUSH2 0x2603 DUP6 PUSH1 0x40 ADD MLOAD DUP8 PUSH1 0x60 ADD MLOAD DUP4 DUP9 PUSH1 0x80 ADD MLOAD PUSH2 0x2D1E JUMP JUMPDEST SWAP2 POP POP SWAP4 POP SWAP4 SWAP2 POP POP JUMP JUMPDEST PUSH1 0x0 DUP1 PUSH2 0x261E DUP5 PUSH1 0x40 ADD MLOAD PUSH2 0x1BE0 JUMP JUMPDEST DUP1 ISZERO PUSH2 0x262F JUMPI POP PUSH1 0x0 DUP5 PUSH1 0x60 ADD MLOAD SLT ISZERO JUMPDEST PUSH2 0x2638 JUMPI PUSH1 0x0 DUP1 REVERT JUMPDEST PUSH2 0x265B DUP4 PUSH1 0x80 ADD MLOAD PUSH2 0x10D9 DUP7 PUSH1 0x60 ADD MLOAD DUP7 PUSH1 0x60 ADD MLOAD PUSH2 0x1A39 SWAP1 SWAP2 SWAP1 PUSH4 0xFFFFFFFF AND JUMP JUMPDEST SWAP2 POP PUSH2 0x2680 DUP4 PUSH1 0x80 ADD MLOAD PUSH2 0x10D9 DUP7 PUSH1 0x60 ADD MLOAD DUP7 PUSH1 0x40 ADD MLOAD PUSH2 0x1A39 SWAP1 SWAP2 SWAP1 PUSH4 0xFFFFFFFF AND JUMP JUMPDEST SWAP1 POP SWAP3 POP SWAP3 SWAP1 POP JUMP JUMPDEST PUSH1 0x0 DUP5 PUSH2 0x2698 JUMPI POP PUSH1 0x0 PUSH2 0xC9C JUMP JUMPDEST PUSH1 0x0 PUSH2 0x26A4 DUP6 DUP6 PUSH2 0x2998 JUMP JUMPDEST SWAP1 POP PUSH1 0x0 PUSH2 0x26B2 DUP3 DUP6 PUSH2 0x2A0A JUMP JUMPDEST SWAP1 POP PUSH4 0x3B9ACA00 DUP2 SGT ISZERO PUSH2 0x26C5 JUMPI PUSH1 0x0 DUP1 REVERT JUMPDEST PUSH2 0x26CF DUP8 DUP3 PUSH2 0x2A8C JUMP JUMPDEST SWAP8 SWAP7 POP POP POP POP POP POP POP JUMP JUMPDEST PUSH1 0x60 ADD MLOAD PUSH2 0x12C PUSH1 0x8 SWAP2 SWAP1 SWAP2 SHR PUSH1 0xFF AND MUL SWAP1 JUMP JUMPDEST PUSH1 0x0 DUP1 PUSH2 0x26F9 PUSH2 0x2D35 JUMP JUMPDEST SWAP1 POP PUSH1 0x0 PUSH3 0x76A700 PUSH2 0x270A DUP6 PUSH2 0x278D JUMP JUMPDEST PUSH1 0x0 DUP10 DUP2 MSTORE PUSH1 0x20 DUP6 DUP2 MSTORE PUSH1 0x40 DUP1 DUP4 KECCAK256 DUP12 DUP5 MSTORE DUP3 MSTORE DUP1 DUP4 KECCAK256 SWAP5 SWAP1 SWAP4 ADD DUP1 DUP4 MSTORE SWAP4 SWAP1 MSTORE KECCAK256 DUP1 SLOAD SWAP2 SWAP3 POP SWAP1 PUSH4 0xFFFFFFFF PUSH1 0x1 PUSH1 0xA0 SHL DUP3 DIV DUP2 AND SWAP2 PUSH1 0x1 PUSH1 0xC0 SHL DUP2 DIV DUP3 AND SWAP2 PUSH1 0x1 PUSH1 0xE0 SHL SWAP1 SWAP2 DIV AND DUP2 PUSH2 0x2771 JUMPI PUSH1 0x40 MLOAD PUSH3 0x461BCD PUSH1 0xE5 SHL DUP2 MSTORE PUSH1 0x4 ADD PUSH2 0x1F7 SWAP1 PUSH2 0x4185 JUMP JUMPDEST PUSH2 0x277E DUP2 DUP5 DUP5 DUP13 DUP13 PUSH2 0x2D42 JUMP JUMPDEST SWAP12 SWAP11 POP POP POP POP POP POP POP POP POP POP POP JUMP JUMPDEST PUSH1 0x0 PUSH3 0x76A700 DUP3 LT ISZERO PUSH2 0x279F JUMPI PUSH1 0x0 DUP1 REVERT JUMPDEST PUSH3 0x76A700 DUP3 PUSH2 0xB62 JUMP JUMPDEST PUSH1 0x0 DUP2 PUSH1 0x1 EQ ISZERO PUSH2 0x27BE JUMPI POP PUSH3 0x76A700 PUSH2 0x32D JUMP JUMPDEST DUP2 PUSH1 0x2 EQ ISZERO PUSH2 0x27D1 JUMPI POP PUSH3 0xED4E00 PUSH2 0x32D JUMP JUMPDEST DUP2 PUSH1 0x3 EQ ISZERO PUSH2 0x27E5 JUMPI POP PUSH4 0x1DA9C00 PUSH2 0x32D JUMP JUMPDEST DUP2 PUSH1 0x4 EQ ISZERO PUSH2 0x27F9 JUMPI POP PUSH4 0x3B53800 PUSH2 0x32D JUMP JUMPDEST DUP2 PUSH1 0x5 EQ ISZERO PUSH2 0x280D JUMPI POP PUSH4 0x9450C00 PUSH2 0x32D JUMP JUMPDEST DUP2 PUSH1 0x6 EQ ISZERO PUSH2 0x2821 JUMPI POP PUSH4 0x128A1800 PUSH2 0x32D JUMP JUMPDEST DUP2 PUSH1 0x7 EQ ISZERO PUSH2 0x2835 JUMPI POP PUSH4 0x25143000 PUSH2 0x32D JUMP JUMPDEST PUSH1 0x40 MLOAD PUSH3 0x461BCD PUSH1 0xE5 SHL DUP2 MSTORE PUSH1 0x4 ADD PUSH2 0x1F7 SWAP1 PUSH2 0x41E4 JUMP JUMPDEST PUSH1 0x0 DUP3 DUP3 ADD DUP4 DUP2 LT ISZERO PUSH2 0xB8E JUMPI PUSH1 0x40 DUP1 MLOAD PUSH3 0x461BCD PUSH1 0xE5 SHL DUP2 MSTORE PUSH1 0x20 PUSH1 0x4 DUP3 ADD MSTORE PUSH1 0x1B PUSH1 0x24 DUP3 ADD MSTORE PUSH32 0x536166654D6174683A206164646974696F6E206F766572666C6F770000000000 PUSH1 0x44 DUP3 ADD MSTORE SWAP1 MLOAD SWAP1 DUP2 SWAP1 SUB PUSH1 0x64 ADD SWAP1 REVERT JUMPDEST DUP1 MLOAD PUSH1 0x0 SWAP1 PUSH1 0x1 PUSH1 0x1 PUSH1 0xA0 SHL SUB AND PUSH2 0x28C1 JUMPI POP PUSH1 0x0 PUSH2 0x32D JUMP JUMPDEST PUSH1 0x0 DUP3 PUSH1 0x0 ADD MLOAD PUSH1 0x1 PUSH1 0x1 PUSH1 0xA0 SHL SUB AND PUSH4 0xDD30A666 PUSH1 0x40 MLOAD DUP2 PUSH4 0xFFFFFFFF AND PUSH1 0xE0 SHL DUP2 MSTORE PUSH1 0x4 ADD PUSH1 0x20 PUSH1 0x40 MLOAD DUP1 DUP4 SUB DUP2 DUP7 DUP1 EXTCODESIZE ISZERO DUP1 ISZERO PUSH2 0x2900 JUMPI PUSH1 0x0 DUP1 REVERT JUMPDEST POP GAS STATICCALL ISZERO DUP1 ISZERO PUSH2 0x2914 JUMPI RETURNDATASIZE PUSH1 0x0 DUP1 RETURNDATACOPY RETURNDATASIZE PUSH1 0x0 REVERT JUMPDEST POP POP POP POP PUSH1 0x40 MLOAD RETURNDATASIZE PUSH1 0x1F NOT PUSH1 0x1F DUP3 ADD AND DUP3 ADD DUP1 PUSH1 0x40 MSTORE POP DUP2 ADD SWAP1 PUSH2 0xB8E SWAP2 SWAP1 PUSH2 0x3EA8 JUMP JUMPDEST PUSH1 0x0 DUP2 DUP7 LT PUSH2 0x2946 JUMPI PUSH1 0x0 DUP1 REVERT JUMPDEST DUP5 DUP3 LT PUSH2 0x2952 JUMPI PUSH1 0x0 DUP1 REVERT JUMPDEST DUP4 DUP4 LT PUSH2 0x297E JUMPI PUSH2 0x2977 DUP5 PUSH2 0x2542 DUP9 DUP9 SUB PUSH2 0x2971 DUP4 DUP9 SUB DUP12 DUP9 SUB PUSH2 0x2DD5 JUMP JUMPDEST SWAP1 PUSH2 0x2E2E JUMP JUMPDEST SWAP1 POP PUSH2 0xDF3 JUMP JUMPDEST PUSH2 0x2977 PUSH2 0x2995 DUP8 DUP8 SUB PUSH2 0x2971 DUP7 DUP9 SUB DUP11 DUP8 SUB PUSH2 0x2DD5 JUMP JUMPDEST DUP6 SWAP1 JUMPDEST PUSH1 0x0 DUP3 DUP3 GT ISZERO PUSH2 0x29EF JUMPI PUSH1 0x40 DUP1 MLOAD PUSH3 0x461BCD PUSH1 0xE5 SHL DUP2 MSTORE PUSH1 0x20 PUSH1 0x4 DUP3 ADD MSTORE PUSH1 0x1E PUSH1 0x24 DUP3 ADD MSTORE PUSH32 0x536166654D6174683A207375627472616374696F6E206F766572666C6F770000 PUSH1 0x44 DUP3 ADD MSTORE SWAP1 MLOAD SWAP1 DUP2 SWAP1 SUB PUSH1 0x64 ADD SWAP1 REVERT JUMPDEST POP SWAP1 SUB SWAP1 JUMP JUMPDEST PUSH1 0x60 ADD MLOAD PUSH3 0x7A120 PUSH1 0x28 SWAP2 SWAP1 SWAP2 SHR PUSH1 0xFF AND MUL SWAP1 JUMP JUMPDEST PUSH1 0x0 DUP1 PUSH2 0x2A27 PUSH2 0x2A22 PUSH4 0x1DA9C00 PUSH2 0x2971 DUP7 DUP9 PUSH2 0x2DD5 JUMP JUMPDEST PUSH2 0x2E95 JUMP JUMPDEST SWAP1 POP PUSH2 0x2A39 DUP2 PUSH3 0x1DCD65 PUSH1 0x49 SHL PUSH2 0x2EB3 JUMP JUMPDEST SWAP1 POP PUSH2 0x2A4C PUSH2 0x2A47 DUP3 PUSH2 0x2F06 JUMP JUMPDEST PUSH2 0x2F28 JUMP JUMPDEST SWAP1 POP PUSH2 0x2A5E DUP2 PUSH3 0x1DCD65 PUSH1 0x49 SHL PUSH2 0x2F7D JUMP JUMPDEST SWAP1 POP PUSH1 0x0 PUSH2 0x2A6B DUP3 PUSH2 0x2FB3 JUMP JUMPDEST PUSH1 0x7 SIGNEXTEND SWAP6 SWAP5 POP POP POP POP POP JUMP JUMPDEST PUSH1 0x60 ADD MLOAD PUSH3 0x7A120 PUSH1 0x20 SWAP2 SWAP1 SWAP2 SHR PUSH1 0xFF AND MUL SWAP1 JUMP JUMPDEST PUSH1 0x0 PUSH2 0xB8E PUSH2 0x2A9B DUP5 DUP5 PUSH2 0x1A39 JUMP JUMPDEST PUSH4 0x3B9ACA00 PUSH2 0x1A87 JUMP JUMPDEST PUSH1 0x0 DUP1 PUSH2 0xB44 PUSH1 0xF PUSH2 0xF77 JUMP JUMPDEST PUSH1 0x0 DUP1 PUSH2 0xB44 PUSH1 0x3 PUSH2 0xF77 JUMP JUMPDEST PUSH1 0x0 DUP1 PUSH2 0xB44 PUSH1 0x2 PUSH2 0xF77 JUMP JUMPDEST PUSH1 0x0 DUP1 PUSH2 0xB44 PUSH1 0x11 PUSH2 0xF77 JUMP JUMPDEST PUSH1 0x0 DUP1 PUSH2 0x2AE4 PUSH2 0x2FBC JUMP JUMPDEST PUSH1 0x1 PUSH1 0x1 PUSH1 0xA0 SHL SUB DUP7 AND PUSH1 0x0 SWAP1 DUP2 MSTORE PUSH1 0x20 SWAP2 DUP3 MSTORE PUSH1 0x40 DUP1 DUP3 KECCAK256 DUP8 DUP4 MSTORE DUP4 MSTORE DUP1 DUP3 KECCAK256 DUP7 DUP4 MSTORE SWAP1 SWAP3 MSTORE KECCAK256 SLOAD PUSH1 0xF SWAP1 DUP2 SIGNEXTEND SWAP1 SIGNEXTEND SWAP2 POP POP SWAP4 SWAP3 POP POP POP JUMP JUMPDEST PUSH1 0x0 DUP1 PUSH1 0x0 PUSH2 0x2B2C DUP6 PUSH2 0xB4A JUMP JUMPDEST SWAP1 POP PUSH3 0x15180 DUP5 MOD ISZERO PUSH2 0x2B46 JUMPI PUSH1 0x0 DUP1 SWAP3 POP SWAP3 POP POP PUSH2 0xE51 JUMP JUMPDEST DUP4 DUP2 LT PUSH2 0x2B5A JUMPI PUSH1 0x0 DUP1 SWAP3 POP SWAP3 POP POP PUSH2 0xE51 JUMP JUMPDEST PUSH3 0x15180 DUP2 DUP6 SUB DIV PUSH1 0x5A DUP2 GT PUSH2 0x2B77 JUMPI SWAP3 POP PUSH1 0x1 SWAP2 POP PUSH2 0xE51 SWAP1 POP JUMP JUMPDEST PUSH2 0x168 DUP2 GT PUSH2 0x2BB6 JUMPI PUSH1 0x0 PUSH3 0x15180 PUSH3 0x7E900 DUP5 MOD DIV DUP3 ADD PUSH1 0x59 NOT ADD SWAP1 POP PUSH1 0x6 DUP2 DIV PUSH1 0x5A ADD PUSH1 0x6 DUP3 DUP2 PUSH2 0x2BA6 JUMPI INVALID JUMPDEST MOD PUSH1 0x0 EQ SWAP5 POP SWAP5 POP POP POP POP PUSH2 0xE51 JUMP JUMPDEST PUSH2 0x870 DUP2 GT PUSH2 0x2BE6 JUMPI PUSH1 0x0 PUSH3 0x15180 PUSH3 0x278D00 DUP5 MOD DIV DUP3 ADD PUSH2 0x167 NOT ADD SWAP1 POP PUSH1 0x1E DUP2 DIV PUSH1 0x87 ADD PUSH1 0x1E DUP3 DUP2 PUSH2 0x2BA6 JUMPI INVALID JUMPDEST PUSH2 0x1DE2 DUP2 GT PUSH2 0x2C16 JUMPI PUSH1 0x0 PUSH3 0x15180 PUSH3 0x76A700 DUP5 MOD DIV DUP3 ADD PUSH2 0x86F NOT ADD SWAP1 POP PUSH1 0x5A DUP2 DIV PUSH1 0xC3 ADD PUSH1 0x5A DUP3 DUP2 PUSH2 0x2BA6 JUMPI INVALID JUMPDEST POP PUSH2 0x100 SWAP6 PUSH1 0x0 SWAP6 POP SWAP4 POP POP POP POP JUMP JUMPDEST PUSH1 0x0 DUP2 PUSH2 0x2C32 JUMPI PUSH1 0x0 DUP1 REVERT JUMPDEST PUSH1 0x1 PUSH1 0x80 SHL DUP3 LT PUSH2 0x2C45 JUMPI PUSH1 0x80 SWAP2 DUP3 SHR SWAP2 ADD JUMPDEST PUSH1 0x1 PUSH1 0x40 SHL DUP3 LT PUSH2 0x2C58 JUMPI PUSH1 0x40 SWAP2 DUP3 SHR SWAP2 ADD JUMPDEST PUSH5 0x100000000 DUP3 LT PUSH2 0x2C6C JUMPI PUSH1 0x20 SWAP2 DUP3 SHR SWAP2 ADD JUMPDEST PUSH3 0x10000 DUP3 LT PUSH2 0x2C7E JUMPI PUSH1 0x10 SWAP2 DUP3 SHR SWAP2 ADD JUMPDEST PUSH2 0x100 DUP3 LT PUSH2 0x2C8F JUMPI PUSH1 0x8 SWAP2 DUP3 SHR SWAP2 ADD JUMPDEST PUSH1 0x10 DUP3 LT PUSH2 0x2C9F JUMPI PUSH1 0x4 SWAP2 DUP3 SHR SWAP2 ADD JUMPDEST PUSH1 0x4 DUP3 LT PUSH2 0x2CAF JUMPI PUSH1 0x2 SWAP2 DUP3 SHR SWAP2 ADD JUMPDEST PUSH1 0x2 DUP3 LT PUSH2 0x32D JUMPI PUSH1 0x1 ADD SWAP2 SWAP1 POP JUMP JUMPDEST PUSH1 0x0 PUSH3 0x76A700 PUSH2 0x2CCE DUP6 PUSH2 0x278D JUMP JUMPDEST ADD SWAP1 POP PUSH2 0x2CE0 DUP8 DUP8 DUP8 DUP8 DUP8 DUP8 DUP8 PUSH2 0x2FC9 JUMP JUMPDEST POP POP POP POP POP POP POP JUMP JUMPDEST PUSH1 0x0 PUSH1 0x2 DUP3 LT DUP1 ISZERO SWAP1 PUSH2 0x2CFD JUMPI POP PUSH1 0x8 DUP3 GT ISZERO JUMPDEST PUSH2 0x2D06 JUMPI PUSH1 0x0 DUP1 REVERT JUMPDEST POP PUSH1 0x60 DUP3 ADD MLOAD PUSH1 0x48 PUSH1 0x8 PUSH1 0x1 NOT DUP5 ADD MUL ADD SHR SWAP3 SWAP2 POP POP JUMP JUMPDEST PUSH1 0x0 PUSH2 0xDF3 DUP3 PUSH2 0x10D9 PUSH1 0x64 DUP2 DUP8 PUSH2 0x10D3 DUP12 DUP12 PUSH2 0x1A39 JUMP JUMPDEST PUSH1 0x0 DUP1 PUSH2 0xB44 PUSH1 0xA PUSH2 0xF77 JUMP JUMPDEST PUSH1 0x0 DUP1 DUP4 GT PUSH2 0x2D50 JUMPI PUSH1 0x0 DUP1 REVERT JUMPDEST DUP2 DUP7 GT ISZERO PUSH2 0x2D5F JUMPI POP DUP4 PUSH2 0xDF3 JUMP JUMPDEST PUSH1 0x0 PUSH2 0x2D6B DUP4 DUP9 PUSH2 0x2998 JUMP JUMPDEST SWAP1 POP DUP4 DUP2 GT ISZERO PUSH2 0x2D7E JUMPI DUP6 SWAP2 POP POP PUSH2 0xDF3 JUMP JUMPDEST PUSH1 0x0 PUSH2 0x2D92 DUP6 PUSH2 0x2971 DUP5 PUSH4 0x3B9ACA00 PUSH2 0x2DD5 JUMP JUMPDEST SWAP1 POP PUSH1 0x0 PUSH2 0x2DA4 PUSH4 0x3B9ACA00 DUP4 PUSH2 0x2998 JUMP JUMPDEST SWAP1 POP PUSH1 0x0 PUSH2 0x2DC7 PUSH4 0x3B9ACA00 PUSH2 0x2971 PUSH2 0x2DBD DUP12 DUP7 PUSH2 0x2DD5 JUMP JUMPDEST PUSH2 0x2542 DUP14 DUP9 PUSH2 0x2DD5 JUMP JUMPDEST SWAP11 SWAP10 POP POP POP POP POP POP POP POP POP POP JUMP JUMPDEST PUSH1 0x0 DUP3 PUSH2 0x2DE4 JUMPI POP PUSH1 0x0 PUSH2 0xB44 JUMP JUMPDEST DUP3 DUP3 MUL DUP3 DUP5 DUP3 DUP2 PUSH2 0x2DF1 JUMPI INVALID JUMPDEST DIV EQ PUSH2 0xB8E JUMPI PUSH1 0x40 MLOAD PUSH3 0x461BCD PUSH1 0xE5 SHL DUP2 MSTORE PUSH1 0x4 ADD DUP1 DUP1 PUSH1 0x20 ADD DUP3 DUP2 SUB DUP3 MSTORE PUSH1 0x21 DUP2 MSTORE PUSH1 0x20 ADD DUP1 PUSH2 0x4428 PUSH1 0x21 SWAP2 CODECOPY PUSH1 0x40 ADD SWAP2 POP POP PUSH1 0x40 MLOAD DUP1 SWAP2 SUB SWAP1 REVERT JUMPDEST PUSH1 0x0 DUP1 DUP3 GT PUSH2 0x2E84 JUMPI PUSH1 0x40 DUP1 MLOAD PUSH3 0x461BCD PUSH1 0xE5 SHL DUP2 MSTORE PUSH1 0x20 PUSH1 0x4 DUP3 ADD MSTORE PUSH1 0x1A PUSH1 0x24 DUP3 ADD MSTORE PUSH32 0x536166654D6174683A206469766973696F6E206279207A65726F000000000000 PUSH1 0x44 DUP3 ADD MSTORE SWAP1 MLOAD SWAP1 DUP2 SWAP1 SUB PUSH1 0x64 ADD SWAP1 REVERT JUMPDEST DUP2 DUP4 DUP2 PUSH2 0x2E8D JUMPI INVALID JUMPDEST DIV SWAP4 SWAP3 POP POP POP JUMP JUMPDEST PUSH1 0x0 PUSH8 0x7FFFFFFFFFFFFFFF DUP3 GT ISZERO PUSH2 0x2EAC JUMPI PUSH1 0x0 DUP1 REVERT JUMPDEST POP PUSH1 0x40 SHL SWAP1 JUMP JUMPDEST PUSH1 0x0 DUP2 PUSH1 0xF SIGNEXTEND PUSH1 0x0 EQ ISZERO PUSH2 0x2EC6 JUMPI PUSH1 0x0 DUP1 REVERT JUMPDEST PUSH1 0x0 DUP3 PUSH1 0xF SIGNEXTEND PUSH1 0x40 DUP6 PUSH1 0xF SIGNEXTEND SWAP1 SHL DUP2 PUSH2 0x2EDB JUMPI INVALID JUMPDEST SDIV SWAP1 POP PUSH1 0x1 PUSH1 0x1 PUSH1 0x7F SHL SUB NOT DUP2 SLT DUP1 ISZERO SWAP1 PUSH2 0x2EFD JUMPI POP PUSH1 0x1 PUSH1 0x1 PUSH1 0x7F SHL SUB DUP2 SGT ISZERO JUMPDEST PUSH2 0xB8E JUMPI PUSH1 0x0 DUP1 REVERT JUMPDEST PUSH1 0x0 PUSH1 0xF DUP3 SWAP1 SIGNEXTEND PUSH1 0x1 PUSH1 0x1 PUSH1 0x7F SHL SUB NOT EQ ISZERO PUSH2 0x2F21 JUMPI PUSH1 0x0 DUP1 REVERT JUMPDEST POP PUSH1 0x0 SUB SWAP1 JUMP JUMPDEST PUSH1 0x0 PUSH1 0x1 PUSH1 0x46 SHL DUP3 PUSH1 0xF SIGNEXTEND SLT PUSH2 0x2F3D JUMPI PUSH1 0x0 DUP1 REVERT JUMPDEST PUSH9 0x3FFFFFFFFFFFFFFFFF NOT DUP3 PUSH1 0xF SIGNEXTEND SLT ISZERO PUSH2 0x2F5A JUMPI POP PUSH1 0x0 PUSH2 0x32D JUMP JUMPDEST PUSH2 0xB44 PUSH1 0x80 DUP4 PUSH1 0xF SIGNEXTEND PUSH17 0x171547652B82FE1777D0FFDA0D23A7D12 MUL SWAP1 SAR PUSH2 0x3000 JUMP JUMPDEST PUSH1 0x0 PUSH1 0xF DUP4 DUP2 SIGNEXTEND SWAP1 DUP4 SWAP1 SIGNEXTEND MUL PUSH1 0x40 SAR PUSH1 0x1 PUSH1 0x1 PUSH1 0x7F SHL SUB NOT DUP2 SLT DUP1 ISZERO SWAP1 PUSH2 0x2EFD JUMPI POP PUSH1 0x1 PUSH1 0x1 PUSH1 0x7F SHL SUB DUP2 SGT ISZERO PUSH2 0xB8E JUMPI PUSH1 0x0 DUP1 REVERT JUMPDEST PUSH1 0xF SIGNEXTEND PUSH1 0x40 SAR SWAP1 JUMP JUMPDEST PUSH1 0x0 DUP1 PUSH2 0xB44 PUSH1 0xC PUSH2 0xF77 JUMP JUMPDEST PUSH2 0x2FD6 DUP8 DUP8 DUP8 DUP7 DUP6 PUSH2 0x3AB2 JUMP JUMPDEST PUSH2 0x2FEF DUP8 PUSH1 0xE0 ADD MLOAD DUP9 PUSH1 0xA0 ADD MLOAD DUP10 PUSH1 0xC0 ADD MLOAD DUP6 DUP9 PUSH2 0x2D42 JUMP JUMPDEST PUSH1 0xC0 SWAP1 SWAP8 ADD SWAP7 SWAP1 SWAP7 MSTORE POP POP POP POP POP POP JUMP JUMPDEST PUSH1 0x0 PUSH1 0x1 PUSH1 0x46 SHL DUP3 PUSH1 0xF SIGNEXTEND SLT PUSH2 0x3015 JUMPI PUSH1 0x0 DUP1 REVERT JUMPDEST PUSH9 0x3FFFFFFFFFFFFFFFFF NOT DUP3 PUSH1 0xF SIGNEXTEND SLT ISZERO PUSH2 0x3032 JUMPI POP PUSH1 0x0 PUSH2 0x32D JUMP JUMPDEST PUSH1 0x1 PUSH1 0x7F SHL PUSH1 0x0 PUSH8 0x8000000000000000 DUP5 AND PUSH1 0xF SIGNEXTEND SGT ISZERO PUSH2 0x3064 JUMPI PUSH17 0x16A09E667F3BCC908B2FB1366EA957D3E MUL PUSH1 0x80 SHR JUMPDEST PUSH1 0x0 DUP4 PUSH8 0x4000000000000000 AND PUSH1 0xF SIGNEXTEND SGT ISZERO PUSH2 0x3091 JUMPI PUSH17 0x1306FE0A31B7152DE8D5A46305C85EDEC MUL PUSH1 0x80 SHR JUMPDEST PUSH1 0x0 DUP4 PUSH8 0x2000000000000000 AND PUSH1 0xF SIGNEXTEND SGT ISZERO PUSH2 0x30BE JUMPI PUSH17 0x1172B83C7D517ADCDF7C8C50EB14A791F MUL PUSH1 0x80 SHR JUMPDEST PUSH1 0x0 DUP4 PUSH8 0x1000000000000000 AND PUSH1 0xF SIGNEXTEND SGT ISZERO PUSH2 0x30EB JUMPI PUSH17 0x10B5586CF9890F6298B92B71842A98363 MUL PUSH1 0x80 SHR JUMPDEST PUSH1 0x0 DUP4 PUSH8 0x800000000000000 AND PUSH1 0xF SIGNEXTEND SGT ISZERO PUSH2 0x3118 JUMPI PUSH17 0x1059B0D31585743AE7C548EB68CA417FD MUL PUSH1 0x80 SHR JUMPDEST PUSH1 0x0 DUP4 PUSH8 0x400000000000000 AND PUSH1 0xF SIGNEXTEND SGT ISZERO PUSH2 0x3145 JUMPI PUSH17 0x102C9A3E778060EE6F7CACA4F7A29BDE8 MUL PUSH1 0x80 SHR JUMPDEST PUSH1 0x0 DUP4 PUSH8 0x200000000000000 AND PUSH1 0xF SIGNEXTEND SGT ISZERO PUSH2 0x3172 JUMPI PUSH17 0x10163DA9FB33356D84A66AE336DCDFA3F MUL PUSH1 0x80 SHR JUMPDEST PUSH1 0x0 DUP4 PUSH1 0x1 PUSH1 0x38 SHL AND PUSH1 0xF SIGNEXTEND SGT ISZERO PUSH2 0x319B JUMPI PUSH17 0x100B1AFA5ABCBED6129AB13EC11DC9543 MUL PUSH1 0x80 SHR JUMPDEST PUSH1 0x0 DUP4 PUSH7 0x80000000000000 AND PUSH1 0xF SIGNEXTEND SGT ISZERO PUSH2 0x31C7 JUMPI PUSH17 0x10058C86DA1C09EA1FF19D294CF2F679B MUL PUSH1 0x80 SHR JUMPDEST PUSH1 0x0 DUP4 PUSH7 0x40000000000000 AND PUSH1 0xF SIGNEXTEND SGT ISZERO PUSH2 0x31F3 JUMPI PUSH17 0x1002C605E2E8CEC506D21BFC89A23A00F MUL PUSH1 0x80 SHR JUMPDEST PUSH1 0x0 DUP4 PUSH7 0x20000000000000 AND PUSH1 0xF SIGNEXTEND SGT ISZERO PUSH2 0x321F JUMPI PUSH17 0x100162F3904051FA128BCA9C55C31E5DF MUL PUSH1 0x80 SHR JUMPDEST PUSH1 0x0 DUP4 PUSH7 0x10000000000000 AND PUSH1 0xF SIGNEXTEND SGT ISZERO PUSH2 0x324B JUMPI PUSH17 0x1000B175EFFDC76BA38E31671CA939725 MUL PUSH1 0x80 SHR JUMPDEST PUSH1 0x0 DUP4 PUSH7 0x8000000000000 AND PUSH1 0xF SIGNEXTEND SGT ISZERO PUSH2 0x3277 JUMPI PUSH17 0x100058BA01FB9F96D6CACD4B180917C3D MUL PUSH1 0x80 SHR JUMPDEST PUSH1 0x0 DUP4 PUSH7 0x4000000000000 AND PUSH1 0xF SIGNEXTEND SGT ISZERO PUSH2 0x32A3 JUMPI PUSH17 0x10002C5CC37DA9491D0985C348C68E7B3 MUL PUSH1 0x80 SHR JUMPDEST PUSH1 0x0 DUP4 PUSH7 0x2000000000000 AND PUSH1 0xF SIGNEXTEND SGT ISZERO PUSH2 0x32CF JUMPI PUSH17 0x1000162E525EE054754457D5995292026 MUL PUSH1 0x80 SHR JUMPDEST PUSH1 0x0 DUP4 PUSH1 0x1 PUSH1 0x30 SHL AND PUSH1 0xF SIGNEXTEND SGT ISZERO PUSH2 0x32F8 JUMPI PUSH17 0x10000B17255775C040618BF4A4ADE83FC MUL PUSH1 0x80 SHR JUMPDEST PUSH1 0x0 DUP4 PUSH6 0x800000000000 AND PUSH1 0xF SIGNEXTEND SGT ISZERO PUSH2 0x3323 JUMPI PUSH17 0x1000058B91B5BC9AE2EED81E9B7D4CFAB MUL PUSH1 0x80 SHR JUMPDEST PUSH1 0x0 DUP4 PUSH6 0x400000000000 AND PUSH1 0xF SIGNEXTEND SGT ISZERO PUSH2 0x334E JUMPI PUSH17 0x100002C5C89D5EC6CA4D7C8ACC017B7C9 MUL PUSH1 0x80 SHR JUMPDEST PUSH1 0x0 DUP4 PUSH6 0x200000000000 AND PUSH1 0xF SIGNEXTEND SGT ISZERO PUSH2 0x3379 JUMPI PUSH17 0x10000162E43F4F831060E02D839A9D16D MUL PUSH1 0x80 SHR JUMPDEST PUSH1 0x0 DUP4 PUSH6 0x100000000000 AND PUSH1 0xF SIGNEXTEND SGT ISZERO PUSH2 0x33A4 JUMPI PUSH17 0x100000B1721BCFC99D9F890EA06911763 MUL PUSH1 0x80 SHR JUMPDEST PUSH1 0x0 DUP4 PUSH6 0x80000000000 AND PUSH1 0xF SIGNEXTEND SGT ISZERO PUSH2 0x33CF JUMPI PUSH17 0x10000058B90CF1E6D97F9CA14DBCC1628 MUL PUSH1 0x80 SHR JUMPDEST PUSH1 0x0 DUP4 PUSH6 0x40000000000 AND PUSH1 0xF SIGNEXTEND SGT ISZERO PUSH2 0x33FA JUMPI PUSH17 0x1000002C5C863B73F016468F6BAC5CA2B MUL PUSH1 0x80 SHR JUMPDEST PUSH1 0x0 DUP4 PUSH6 0x20000000000 AND PUSH1 0xF SIGNEXTEND SGT ISZERO PUSH2 0x3425 JUMPI PUSH17 0x100000162E430E5A18F6119E3C02282A5 MUL PUSH1 0x80 SHR JUMPDEST PUSH1 0x0 DUP4 PUSH6 0x10000000000 AND PUSH1 0xF SIGNEXTEND SGT ISZERO PUSH2 0x3450 JUMPI PUSH17 0x1000000B1721835514B86E6D96EFD1BFE MUL PUSH1 0x80 SHR JUMPDEST PUSH1 0x0 DUP4 PUSH5 0x8000000000 AND PUSH1 0xF SIGNEXTEND SGT ISZERO PUSH2 0x347A JUMPI PUSH17 0x100000058B90C0B48C6BE5DF846C5B2EF MUL PUSH1 0x80 SHR JUMPDEST PUSH1 0x0 DUP4 PUSH5 0x4000000000 AND PUSH1 0xF SIGNEXTEND SGT ISZERO PUSH2 0x34A4 JUMPI PUSH17 0x10000002C5C8601CC6B9E94213C72737A MUL PUSH1 0x80 SHR JUMPDEST PUSH1 0x0 DUP4 PUSH5 0x2000000000 AND PUSH1 0xF SIGNEXTEND SGT ISZERO PUSH2 0x34CE JUMPI PUSH17 0x1000000162E42FFF037DF38AA2B219F06 MUL PUSH1 0x80 SHR JUMPDEST PUSH1 0x0 DUP4 PUSH5 0x1000000000 AND PUSH1 0xF SIGNEXTEND SGT ISZERO PUSH2 0x34F8 JUMPI PUSH17 0x10000000B17217FBA9C739AA5819F44F9 MUL PUSH1 0x80 SHR JUMPDEST PUSH1 0x0 DUP4 PUSH5 0x800000000 AND PUSH1 0xF SIGNEXTEND SGT ISZERO PUSH2 0x3522 JUMPI PUSH17 0x1000000058B90BFCDEE5ACD3C1CEDC823 MUL PUSH1 0x80 SHR JUMPDEST PUSH1 0x0 DUP4 PUSH5 0x400000000 AND PUSH1 0xF SIGNEXTEND SGT ISZERO PUSH2 0x354C JUMPI PUSH17 0x100000002C5C85FE31F35A6A30DA1BE50 MUL PUSH1 0x80 SHR JUMPDEST PUSH1 0x0 DUP4 PUSH5 0x200000000 AND PUSH1 0xF SIGNEXTEND SGT ISZERO PUSH2 0x3576 JUMPI PUSH17 0x10000000162E42FF0999CE3541B9FFFCF MUL PUSH1 0x80 SHR JUMPDEST PUSH1 0x0 DUP4 PUSH5 0x100000000 AND PUSH1 0xF SIGNEXTEND SGT ISZERO PUSH2 0x35A0 JUMPI PUSH17 0x100000000B17217F80F4EF5AADDA45554 MUL PUSH1 0x80 SHR JUMPDEST PUSH1 0x0 DUP4 PUSH4 0x80000000 AND PUSH1 0xF SIGNEXTEND SGT ISZERO PUSH2 0x35C9 JUMPI PUSH17 0x10000000058B90BFBF8479BD5A81B51AD MUL PUSH1 0x80 SHR JUMPDEST PUSH1 0x0 DUP4 PUSH4 0x40000000 AND PUSH1 0xF SIGNEXTEND SGT ISZERO PUSH2 0x35F2 JUMPI PUSH17 0x1000000002C5C85FDF84BD62AE30A74CC MUL PUSH1 0x80 SHR JUMPDEST PUSH1 0x0 DUP4 PUSH4 0x20000000 AND PUSH1 0xF SIGNEXTEND SGT ISZERO PUSH2 0x361B JUMPI PUSH17 0x100000000162E42FEFB2FED257559BDAA MUL PUSH1 0x80 SHR JUMPDEST PUSH1 0x0 DUP4 PUSH4 0x10000000 AND PUSH1 0xF SIGNEXTEND SGT ISZERO PUSH2 0x3644 JUMPI PUSH17 0x1000000000B17217F7D5A7716BBA4A9AE MUL PUSH1 0x80 SHR JUMPDEST PUSH1 0x0 DUP4 PUSH4 0x8000000 AND PUSH1 0xF SIGNEXTEND SGT ISZERO PUSH2 0x366D JUMPI PUSH17 0x100000000058B90BFBE9DDBAC5E109CCE MUL PUSH1 0x80 SHR JUMPDEST PUSH1 0x0 DUP4 PUSH4 0x4000000 AND PUSH1 0xF SIGNEXTEND SGT ISZERO PUSH2 0x3696 JUMPI PUSH17 0x10000000002C5C85FDF4B15DE6F17EB0D MUL PUSH1 0x80 SHR JUMPDEST PUSH1 0x0 DUP4 PUSH4 0x2000000 AND PUSH1 0xF SIGNEXTEND SGT ISZERO PUSH2 0x36BF JUMPI PUSH17 0x1000000000162E42FEFA494F1478FDE05 MUL PUSH1 0x80 SHR JUMPDEST PUSH1 0x0 DUP4 PUSH4 0x1000000 AND PUSH1 0xF SIGNEXTEND SGT ISZERO PUSH2 0x36E8 JUMPI PUSH17 0x10000000000B17217F7D20CF927C8E94C MUL PUSH1 0x80 SHR JUMPDEST PUSH1 0x0 DUP4 PUSH3 0x800000 AND PUSH1 0xF SIGNEXTEND SGT ISZERO PUSH2 0x3710 JUMPI PUSH17 0x1000000000058B90BFBE8F71CB4E4B33D MUL PUSH1 0x80 SHR JUMPDEST PUSH1 0x0 DUP4 PUSH3 0x400000 AND PUSH1 0xF SIGNEXTEND SGT ISZERO PUSH2 0x3738 JUMPI PUSH17 0x100000000002C5C85FDF477B662B26945 MUL PUSH1 0x80 SHR JUMPDEST PUSH1 0x0 DUP4 PUSH3 0x200000 AND PUSH1 0xF SIGNEXTEND SGT ISZERO PUSH2 0x3760 JUMPI PUSH17 0x10000000000162E42FEFA3AE53369388C MUL PUSH1 0x80 SHR JUMPDEST PUSH1 0x0 DUP4 PUSH3 0x100000 AND PUSH1 0xF SIGNEXTEND SGT ISZERO PUSH2 0x3788 JUMPI PUSH17 0x100000000000B17217F7D1D351A389D40 MUL PUSH1 0x80 SHR JUMPDEST PUSH1 0x0 DUP4 PUSH3 0x80000 AND PUSH1 0xF SIGNEXTEND SGT ISZERO PUSH2 0x37B0 JUMPI PUSH17 0x10000000000058B90BFBE8E8B2D3D4EDE MUL PUSH1 0x80 SHR JUMPDEST PUSH1 0x0 DUP4 PUSH3 0x40000 AND PUSH1 0xF SIGNEXTEND SGT ISZERO PUSH2 0x37D8 JUMPI PUSH17 0x1000000000002C5C85FDF4741BEA6E77E MUL PUSH1 0x80 SHR JUMPDEST PUSH1 0x0 DUP4 PUSH3 0x20000 AND PUSH1 0xF SIGNEXTEND SGT ISZERO PUSH2 0x3800 JUMPI PUSH17 0x100000000000162E42FEFA39FE95583C2 MUL PUSH1 0x80 SHR JUMPDEST PUSH1 0x0 DUP4 PUSH3 0x10000 AND PUSH1 0xF SIGNEXTEND SGT ISZERO PUSH2 0x3828 JUMPI PUSH17 0x1000000000000B17217F7D1CFB72B45E1 MUL PUSH1 0x80 SHR JUMPDEST PUSH1 0x0 DUP4 PUSH2 0x8000 AND PUSH1 0xF SIGNEXTEND SGT ISZERO PUSH2 0x384F JUMPI PUSH17 0x100000000000058B90BFBE8E7CC35C3F0 MUL PUSH1 0x80 SHR JUMPDEST PUSH1 0x0 DUP4 PUSH2 0x4000 AND PUSH1 0xF SIGNEXTEND SGT ISZERO PUSH2 0x3876 JUMPI PUSH17 0x10000000000002C5C85FDF473E242EA38 MUL PUSH1 0x80 SHR JUMPDEST PUSH1 0x0 DUP4 PUSH2 0x2000 AND PUSH1 0xF SIGNEXTEND SGT ISZERO PUSH2 0x389D JUMPI PUSH17 0x1000000000000162E42FEFA39F02B772C MUL PUSH1 0x80 SHR JUMPDEST PUSH1 0x0 DUP4 PUSH2 0x1000 AND PUSH1 0xF SIGNEXTEND SGT ISZERO PUSH2 0x38C4 JUMPI PUSH17 0x10000000000000B17217F7D1CF7D83C1A MUL PUSH1 0x80 SHR JUMPDEST PUSH1 0x0 DUP4 PUSH2 0x800 AND PUSH1 0xF SIGNEXTEND SGT ISZERO PUSH2 0x38EB JUMPI PUSH17 0x1000000000000058B90BFBE8E7BDCBE2E MUL PUSH1 0x80 SHR JUMPDEST PUSH1 0x0 DUP4 PUSH2 0x400 AND PUSH1 0xF SIGNEXTEND SGT ISZERO PUSH2 0x3912 JUMPI PUSH17 0x100000000000002C5C85FDF473DEA871F MUL PUSH1 0x80 SHR JUMPDEST PUSH1 0x0 DUP4 PUSH2 0x200 AND PUSH1 0xF SIGNEXTEND SGT ISZERO PUSH2 0x3939 JUMPI PUSH17 0x10000000000000162E42FEFA39EF44D91 MUL PUSH1 0x80 SHR JUMPDEST PUSH1 0x0 DUP4 PUSH2 0x100 AND PUSH1 0xF SIGNEXTEND SGT ISZERO PUSH2 0x3960 JUMPI PUSH17 0x100000000000000B17217F7D1CF79E949 MUL PUSH1 0x80 SHR JUMPDEST PUSH1 0x0 DUP4 PUSH1 0x80 AND PUSH1 0xF SIGNEXTEND SGT ISZERO PUSH2 0x3986 JUMPI PUSH17 0x10000000000000058B90BFBE8E7BCE544 MUL PUSH1 0x80 SHR JUMPDEST PUSH1 0x0 DUP4 PUSH1 0x40 AND PUSH1 0xF SIGNEXTEND SGT ISZERO PUSH2 0x39AC JUMPI PUSH17 0x1000000000000002C5C85FDF473DE6ECA MUL PUSH1 0x80 SHR JUMPDEST PUSH1 0x0 DUP4 PUSH1 0x20 AND PUSH1 0xF SIGNEXTEND SGT ISZERO PUSH2 0x39D2 JUMPI PUSH17 0x100000000000000162E42FEFA39EF366F MUL PUSH1 0x80 SHR JUMPDEST PUSH1 0x0 DUP4 PUSH1 0x10 AND PUSH1 0xF SIGNEXTEND SGT ISZERO PUSH2 0x39F8 JUMPI PUSH17 0x1000000000000000B17217F7D1CF79AFA MUL PUSH1 0x80 SHR JUMPDEST PUSH1 0x0 DUP4 PUSH1 0x8 AND PUSH1 0xF SIGNEXTEND SGT ISZERO PUSH2 0x3A1E JUMPI PUSH17 0x100000000000000058B90BFBE8E7BCD6D MUL PUSH1 0x80 SHR JUMPDEST PUSH1 0x0 DUP4 PUSH1 0x4 AND PUSH1 0xF SIGNEXTEND SGT ISZERO PUSH2 0x3A44 JUMPI PUSH17 0x10000000000000002C5C85FDF473DE6B2 MUL PUSH1 0x80 SHR JUMPDEST PUSH1 0x0 DUP4 PUSH1 0x2 AND PUSH1 0xF SIGNEXTEND SGT ISZERO PUSH2 0x3A6A JUMPI PUSH17 0x1000000000000000162E42FEFA39EF358 MUL PUSH1 0x80 SHR JUMPDEST PUSH1 0x0 DUP4 PUSH1 0x1 AND PUSH1 0xF SIGNEXTEND SGT ISZERO PUSH2 0x3A90 JUMPI PUSH17 0x10000000000000000B17217F7D1CF79AB MUL PUSH1 0x80 SHR JUMPDEST PUSH1 0xF DUP4 DUP2 SIGNEXTEND PUSH1 0x40 SAR PUSH1 0x3F SUB SWAP1 SIGNEXTEND SHR PUSH1 0x1 PUSH1 0x1 PUSH1 0x7F SHL SUB DUP2 GT ISZERO PUSH2 0xB44 JUMPI PUSH1 0x0 DUP1 REVERT JUMPDEST PUSH1 0x0 PUSH2 0x3ABC PUSH2 0x2D35 JUMP JUMPDEST PUSH1 0x0 DUP7 DUP2 MSTORE PUSH1 0x20 DUP3 DUP2 MSTORE PUSH1 0x40 DUP1 DUP4 KECCAK256 DUP9 DUP5 MSTORE DUP3 MSTORE DUP1 DUP4 KECCAK256 DUP7 DUP5 MSTORE DUP3 MSTORE SWAP2 DUP3 SWAP1 KECCAK256 DUP1 DUP11 MSTORE SWAP1 DUP10 ADD DUP8 SWAP1 MSTORE DUP1 SLOAD PUSH10 0xFFFFFFFFFFFFFFFFFFFF DUP1 DUP3 AND SWAP4 DUP12 ADD SWAP4 SWAP1 SWAP4 MSTORE PUSH1 0x1 PUSH1 0x50 SHL DUP2 DIV SWAP1 SWAP3 AND PUSH1 0x60 DUP11 ADD MSTORE PUSH4 0xFFFFFFFF PUSH1 0x1 PUSH1 0xA0 SHL DUP4 DIV DUP2 AND PUSH1 0xA0 DUP12 ADD MSTORE PUSH1 0x1 PUSH1 0xC0 SHL DUP4 DIV DUP2 AND PUSH1 0xC0 DUP12 ADD MSTORE PUSH1 0x1 PUSH1 0xE0 SHL SWAP1 SWAP3 DIV SWAP1 SWAP2 AND PUSH1 0xE0 DUP10 ADD MSTORE SWAP1 SWAP2 POP DUP1 DUP5 ISZERO PUSH2 0x3B61 JUMPI PUSH1 0x1 DUP3 ADD SLOAD PUSH10 0xFFFFFFFFFFFFFFFFFFFF AND PUSH1 0x80 DUP10 ADD MSTORE PUSH2 0x3B69 JUMP JUMPDEST PUSH1 0x0 PUSH1 0x80 DUP10 ADD MSTORE JUMPDEST POP POP POP POP POP POP POP POP JUMP JUMPDEST PUSH1 0x40 DUP1 MLOAD PUSH1 0xA0 DUP2 ADD DUP3 MSTORE PUSH1 0x0 DUP1 DUP3 MSTORE PUSH1 0x20 DUP3 ADD DUP2 SWAP1 MSTORE SWAP2 DUP2 ADD DUP3 SWAP1 MSTORE PUSH1 0x60 DUP2 ADD DUP3 SWAP1 MSTORE PUSH1 0x80 DUP2 ADD SWAP2 SWAP1 SWAP2 MSTORE SWAP1 JUMP JUMPDEST PUSH1 0x40 MLOAD DUP1 PUSH2 0x160 ADD PUSH1 0x40 MSTORE DUP1 PUSH1 0x0 PUSH1 0x1 PUSH1 0x1 PUSH1 0xA0 SHL SUB AND DUP2 MSTORE PUSH1 0x20 ADD PUSH1 0x0 DUP2 MSTORE PUSH1 0x20 ADD PUSH1 0x0 DUP2 MSTORE PUSH1 0x20 ADD PUSH1 0x0 DUP2 MSTORE PUSH1 0x20 ADD PUSH1 0x0 DUP2 MSTORE PUSH1 0x20 ADD PUSH1 0x0 PUSH1 0x1 PUSH1 0x1 PUSH1 0xD0 SHL SUB NOT AND DUP2 MSTORE PUSH1 0x20 ADD PUSH2 0x3BF2 PUSH2 0x3CA3 JUMP JUMPDEST DUP2 MSTORE PUSH1 0x20 ADD PUSH2 0x3BFF PUSH2 0x3CA3 JUMP JUMPDEST DUP2 MSTORE PUSH1 0x20 ADD PUSH2 0x3C0C PUSH2 0x3CD2 JUMP JUMPDEST DUP2 MSTORE PUSH1 0x20 ADD PUSH2 0x3C19 PUSH2 0x3C84 JUMP JUMPDEST DUP2 MSTORE PUSH1 0x0 PUSH1 0x20 SWAP1 SWAP2 ADD MSTORE SWAP1 JUMP JUMPDEST PUSH1 0x40 MLOAD DUP1 PUSH2 0x100 ADD PUSH1 0x40 MSTORE DUP1 PUSH1 0x0 DUP2 MSTORE PUSH1 0x20 ADD PUSH1 0x0 ISZERO ISZERO DUP2 MSTORE PUSH1 0x20 ADD PUSH1 0x0 DUP2 MSTORE PUSH1 0x20 ADD PUSH2 0x3C51 PUSH2 0x3C84 JUMP JUMPDEST DUP2 MSTORE PUSH1 0x20 ADD PUSH2 0x3C5E PUSH2 0x3D5F JUMP JUMPDEST DUP2 MSTORE PUSH1 0x20 ADD PUSH1 0x60 DUP2 MSTORE PUSH1 0x20 ADD PUSH2 0x3C72 PUSH2 0x3CD2 JUMP JUMPDEST DUP2 MSTORE PUSH1 0x20 ADD PUSH2 0x3C7F PUSH2 0x3DA7 JUMP JUMPDEST SWAP1 MSTORE SWAP1 JUMP JUMPDEST PUSH1 0x40 DUP1 MLOAD PUSH1 0x80 DUP2 ADD DUP3 MSTORE PUSH1 0x0 DUP1 DUP3 MSTORE PUSH1 0x20 DUP3 ADD MSTORE SWAP1 DUP2 ADD PUSH2 0x3C19 PUSH2 0x3CD2 JUMP JUMPDEST PUSH1 0x40 MLOAD DUP1 PUSH1 0xA0 ADD PUSH1 0x40 MSTORE DUP1 PUSH1 0x0 DUP2 MSTORE PUSH1 0x20 ADD PUSH1 0x0 DUP2 MSTORE PUSH1 0x20 ADD PUSH1 0x0 DUP2 MSTORE PUSH1 0x20 ADD PUSH1 0x0 DUP2 MSTORE PUSH1 0x20 ADD PUSH1 0x0 DUP2 MSTORE POP SWAP1 JUMP JUMPDEST PUSH1 0x40 MLOAD DUP1 PUSH1 0x60 ADD PUSH1 0x40 MSTORE DUP1 PUSH1 0x0 PUSH1 0x1 PUSH1 0x1 PUSH1 0xA0 SHL SUB AND DUP2 MSTORE PUSH1 0x20 ADD PUSH1 0x0 DUP2 MSTORE PUSH1 0x20 ADD PUSH1 0x0 DUP2 MSTORE POP SWAP1 JUMP JUMPDEST PUSH1 0x40 MLOAD DUP1 PUSH1 0xC0 ADD PUSH1 0x40 MSTORE DUP1 PUSH1 0x0 DUP2 MSTORE PUSH1 0x20 ADD PUSH1 0x0 DUP2 MSTORE PUSH1 0x20 ADD PUSH1 0x0 DUP2 MSTORE PUSH1 0x20 ADD PUSH1 0x0 DUP2 MSTORE PUSH1 0x20 ADD PUSH1 0x0 DUP2 MSTORE PUSH1 0x20 ADD PUSH1 0x0 PUSH1 0x3 DUP2 GT ISZERO PUSH2 0x3C7F JUMPI INVALID JUMPDEST PUSH1 0x40 MLOAD DUP1 PUSH1 0x80 ADD PUSH1 0x40 MSTORE DUP1 PUSH1 0x60 DUP2 MSTORE PUSH1 0x20 ADD PUSH1 0x60 DUP2 MSTORE PUSH1 0x20 ADD PUSH1 0x0 DUP2 MSTORE PUSH1 0x20 ADD PUSH1 0x0 DUP2 MSTORE POP SWAP1 JUMP JUMPDEST PUSH1 0x40 MLOAD DUP1 PUSH2 0x100 ADD PUSH1 0x40 MSTORE DUP1 PUSH1 0x0 DUP1 NOT AND DUP2 MSTORE PUSH1 0x20 ADD PUSH1 0x0 DUP2 MSTORE PUSH1 0x20 ADD PUSH1 0x0 DUP2 MSTORE PUSH1 0x20 ADD PUSH1 0x0 DUP2 MSTORE PUSH1 0x20 ADD PUSH1 0x0 DUP2 MSTORE PUSH1 0x20 ADD PUSH1 0x0 DUP2 MSTORE PUSH1 0x20 ADD PUSH1 0x0 DUP2 MSTORE PUSH1 0x20 ADD PUSH1 0x0 DUP2 MSTORE POP SWAP1 JUMP JUMPDEST PUSH1 0x40 MLOAD DUP1 PUSH1 0xE0 ADD PUSH1 0x40 MSTORE DUP1 PUSH2 0x3DBA PUSH2 0x3C84 JUMP JUMPDEST DUP2 MSTORE PUSH1 0x20 ADD PUSH2 0x3DC7 PUSH2 0x3D37 JUMP JUMPDEST DUP2 MSTORE PUSH1 0x0 PUSH1 0x20 DUP3 ADD DUP2 SWAP1 MSTORE PUSH1 0x40 DUP3 ADD DUP2 SWAP1 MSTORE PUSH1 0x60 DUP3 ADD DUP2 SWAP1 MSTORE PUSH1 0x80 DUP3 ADD DUP2 SWAP1 MSTORE PUSH1 0xA0 SWAP1 SWAP2 ADD MSTORE SWAP1 JUMP JUMPDEST DUP1 CALLDATALOAD PUSH1 0x1 PUSH1 0x1 PUSH1 0xA0 SHL SUB DUP2 AND DUP2 EQ PUSH2 0x32D JUMPI PUSH1 0x0 DUP1 REVERT JUMPDEST DUP1 MLOAD PUSH1 0x1 PUSH1 0x1 PUSH1 0x70 SHL SUB NOT DUP2 AND DUP2 EQ PUSH2 0x32D JUMPI PUSH1 0x0 DUP1 REVERT JUMPDEST DUP1 MLOAD PUSH2 0xFFFF DUP2 AND DUP2 EQ PUSH2 0x32D JUMPI PUSH1 0x0 DUP1 REVERT JUMPDEST DUP1 MLOAD PUSH10 0xFFFFFFFFFFFFFFFFFFFF DUP2 AND DUP2 EQ PUSH2 0x32D JUMPI PUSH1 0x0 DUP1 REVERT JUMPDEST DUP1 MLOAD PUSH1 0xFF DUP2 AND DUP2 EQ PUSH2 0x32D JUMPI PUSH1 0x0 DUP1 REVERT JUMPDEST PUSH1 0x0 PUSH1 0x20 DUP3 DUP5 SUB SLT ISZERO PUSH2 0x3E6D JUMPI DUP1 DUP2 REVERT JUMPDEST PUSH2 0xB8E DUP3 PUSH2 0x3DF0 JUMP JUMPDEST PUSH1 0x0 DUP1 PUSH1 0x0 PUSH1 0x60 DUP5 DUP7 SUB SLT ISZERO PUSH2 0x3E8A JUMPI DUP2 DUP3 REVERT JUMPDEST PUSH2 0x3E93 DUP5 PUSH2 0x3DF0 JUMP JUMPDEST SWAP6 PUSH1 0x20 DUP6 ADD CALLDATALOAD SWAP6 POP PUSH1 0x40 SWAP1 SWAP5 ADD CALLDATALOAD SWAP4 SWAP3 POP POP POP JUMP JUMPDEST PUSH1 0x0 PUSH1 0x20 DUP3 DUP5 SUB SLT ISZERO PUSH2 0x3EB9 JUMPI DUP1 DUP2 REVERT JUMPDEST POP MLOAD SWAP2 SWAP1 POP JUMP JUMPDEST PUSH1 0x0 PUSH1 0xA0 DUP3 DUP5 SUB SLT ISZERO PUSH2 0x3ED1 JUMPI DUP1 DUP2 REVERT JUMPDEST PUSH1 0x40 MLOAD PUSH1 0xA0 DUP2 ADD DUP2 DUP2 LT PUSH8 0xFFFFFFFFFFFFFFFF DUP3 GT OR ISZERO PUSH2 0x3EEE JUMPI INVALID JUMPDEST PUSH1 0x40 MSTORE DUP3 MLOAD PUSH5 0xFFFFFFFFFF DUP2 AND DUP2 EQ PUSH2 0x3F05 JUMPI DUP3 DUP4 REVERT JUMPDEST DUP2 MSTORE PUSH1 0x20 DUP4 ADD MLOAD PUSH1 0x1 PUSH1 0x1 PUSH1 0xF8 SHL SUB NOT DUP2 AND DUP2 EQ PUSH2 0x3F21 JUMPI DUP3 DUP4 REVERT JUMPDEST PUSH1 0x20 DUP3 ADD MSTORE PUSH2 0x3F32 PUSH1 0x40 DUP5 ADD PUSH2 0x3E4B JUMP JUMPDEST PUSH1 0x40 DUP3 ADD MSTORE PUSH2 0x3F43 PUSH1 0x60 DUP5 ADD PUSH2 0x3E1F JUMP JUMPDEST PUSH1 0x60 DUP3 ADD MSTORE PUSH2 0x3F54 PUSH1 0x80 DUP5 ADD PUSH2 0x3E07 JUMP JUMPDEST PUSH1 0x80 DUP3 ADD MSTORE SWAP4 SWAP3 POP POP POP JUMP JUMPDEST PUSH1 0x0 DUP1 PUSH1 0x0 DUP1 PUSH1 0x0 PUSH1 0xA0 DUP7 DUP9 SUB SLT ISZERO PUSH2 0x3F77 JUMPI DUP1 DUP2 REVERT JUMPDEST PUSH2 0x3F80 DUP7 PUSH2 0x3E31 JUMP JUMPDEST SWAP5 POP PUSH1 0x20 DUP7 ADD MLOAD SWAP4 POP PUSH1 0x40 DUP7 ADD MLOAD SWAP3 POP PUSH1 0x60 DUP7 ADD MLOAD SWAP2 POP PUSH2 0x3FA3 PUSH1 0x80 DUP8 ADD PUSH2 0x3E31 JUMP JUMPDEST SWAP1 POP SWAP3 SWAP6 POP SWAP3 SWAP6 SWAP1 SWAP4 POP JUMP JUMPDEST PUSH1 0x1 PUSH1 0x1 PUSH1 0xA0 SHL SUB AND SWAP1 MSTORE JUMP JUMPDEST PUSH1 0x0 DUP2 MLOAD DUP1 DUP5 MSTORE PUSH1 0x20 DUP1 DUP6 ADD SWAP5 POP DUP1 DUP5 ADD DUP4 JUMPDEST DUP4 DUP2 LT ISZERO PUSH2 0x4029 JUMPI DUP2 MLOAD DUP1 MLOAD DUP9 MSTORE DUP4 DUP2 ADD MLOAD DUP5 DUP10 ADD MSTORE PUSH1 0x40 DUP1 DUP3 ADD MLOAD SWAP1 DUP10 ADD MSTORE PUSH1 0x60 DUP1 DUP3 ADD MLOAD SWAP1 DUP10 ADD MSTORE PUSH1 0x80 DUP1 DUP3 ADD MLOAD SWAP1 DUP10 ADD MSTORE PUSH1 0xA0 SWAP1 DUP2 ADD MLOAD SWAP1 PUSH1 0x4 DUP3 LT PUSH2 0x4014 JUMPI INVALID JUMPDEST DUP9 ADD MSTORE PUSH1 0xC0 SWAP1 SWAP7 ADD SWAP6 SWAP1 DUP3 ADD SWAP1 PUSH1 0x1 ADD PUSH2 0x3FCF JUMP JUMPDEST POP SWAP5 SWAP6 SWAP5 POP POP POP POP POP JUMP JUMPDEST ISZERO ISZERO SWAP1 MSTORE JUMP JUMPDEST PUSH1 0x1 PUSH1 0x1 PUSH1 0xD0 SHL SUB NOT AND SWAP1 MSTORE JUMP JUMPDEST DUP1 MLOAD PUSH5 0xFFFFFFFFFF AND DUP3 MSTORE PUSH1 0x20 DUP1 DUP3 ADD MLOAD PUSH1 0x1 PUSH1 0x1 PUSH1 0xF8 SHL SUB NOT AND SWAP1 DUP4 ADD MSTORE PUSH1 0x40 DUP1 DUP3 ADD MLOAD PUSH1 0xFF AND SWAP1 DUP4 ADD MSTORE PUSH1 0x60 DUP1 DUP3 ADD MLOAD PUSH2 0xFFFF AND SWAP1 DUP4 ADD MSTORE PUSH1 0x80 SWAP1 DUP2 ADD MLOAD PUSH1 0x1 PUSH1 0x1 PUSH1 0x70 SHL SUB NOT AND SWAP2 ADD MSTORE JUMP JUMPDEST DUP1 MLOAD PUSH1 0x1 PUSH1 0x1 PUSH1 0xA0 SHL SUB AND DUP3 MSTORE PUSH1 0x20 DUP1 DUP3 ADD MLOAD SWAP1 DUP4 ADD MSTORE PUSH1 0x40 SWAP1 DUP2 ADD MLOAD SWAP2 ADD MSTORE JUMP JUMPDEST PUSH2 0xFFFF DUP2 MLOAD AND DUP3 MSTORE PUSH1 0x20 DUP2 ADD MLOAD PUSH1 0x20 DUP4 ADD MSTORE PUSH1 0x40 DUP2 ADD MLOAD PUSH2 0x40DD PUSH1 0x40 DUP5 ADD DUP3 PUSH2 0x4097 JUMP JUMPDEST POP PUSH1 0x60 ADD MLOAD PUSH1 0xA0 SWAP2 SWAP1 SWAP2 ADD MSTORE JUMP JUMPDEST DUP1 MLOAD DUP3 MSTORE PUSH1 0x20 DUP2 ADD MLOAD PUSH1 0x20 DUP4 ADD MSTORE PUSH1 0x40 DUP2 ADD MLOAD PUSH1 0x40 DUP4 ADD MSTORE PUSH1 0x60 DUP2 ADD MLOAD PUSH1 0x60 DUP4 ADD MSTORE PUSH1 0x80 DUP2 ADD MLOAD PUSH1 0x80 DUP4 ADD MSTORE POP POP JUMP JUMPDEST PUSH1 0x1 PUSH1 0x1 PUSH1 0xA0 SHL SUB DUP4 AND DUP2 MSTORE PUSH1 0xC0 DUP2 ADD PUSH2 0xB8E PUSH1 0x20 DUP4 ADD DUP5 PUSH2 0x4048 JUMP JUMPDEST PUSH1 0x0 PUSH1 0x40 DUP3 ADD DUP5 DUP4 MSTORE PUSH1 0x20 PUSH1 0x40 DUP2 DUP6 ADD MSTORE DUP2 DUP6 MLOAD DUP1 DUP5 MSTORE PUSH1 0x60 DUP7 ADD SWAP2 POP DUP3 DUP8 ADD SWAP4 POP DUP5 JUMPDEST DUP2 DUP2 LT ISZERO PUSH2 0x4178 JUMPI DUP5 MLOAD DUP4 MSTORE SWAP4 DUP4 ADD SWAP4 SWAP2 DUP4 ADD SWAP2 PUSH1 0x1 ADD PUSH2 0x415C JUMP JUMPDEST POP SWAP1 SWAP8 SWAP7 POP POP POP POP POP POP POP JUMP JUMPDEST PUSH1 0x20 DUP1 DUP3 MSTORE PUSH1 0x16 SWAP1 DUP3 ADD MSTORE PUSH22 0x13585C9AD95D081B9BDD081A5B9A5D1A585B1A5E9959 PUSH1 0x52 SHL PUSH1 0x40 DUP3 ADD MSTORE PUSH1 0x60 ADD SWAP1 JUMP JUMPDEST PUSH1 0x20 DUP1 DUP3 MSTORE PUSH1 0x15 SWAP1 DUP3 ADD MSTORE PUSH21 0x10D1CE881B9BC81B585C9AD95D1CC81B1A5CDD1959 PUSH1 0x5A SHL PUSH1 0x40 DUP3 ADD MSTORE PUSH1 0x60 ADD SWAP1 JUMP JUMPDEST PUSH1 0x20 DUP1 DUP3 MSTORE PUSH1 0xD SWAP1 DUP3 ADD MSTORE PUSH13 0x92DCECC2D8D2C840D2DCC8CAF PUSH1 0x9B SHL PUSH1 0x40 DUP3 ADD MSTORE PUSH1 0x60 ADD SWAP1 JUMP JUMPDEST PUSH1 0x20 DUP1 DUP3 MSTORE PUSH1 0x12 SWAP1 DUP3 ADD MSTORE PUSH18 0x105CDCD95D1CC81B9BDD081CD95D1D1B1959 PUSH1 0x72 SHL PUSH1 0x40 DUP3 ADD MSTORE PUSH1 0x60 ADD SWAP1 JUMP JUMPDEST PUSH1 0x20 DUP1 DUP3 MSTORE PUSH1 0x16 SWAP1 DUP3 ADD MSTORE PUSH22 0x10D1CE881B585C9AD95D081A5B99195E08189BDD5B99 PUSH1 0x52 SHL PUSH1 0x40 DUP3 ADD MSTORE PUSH1 0x60 ADD SWAP1 JUMP JUMPDEST PUSH1 0x20 DUP1 DUP3 MSTORE PUSH1 0xE SWAP1 DUP3 ADD MSTORE PUSH14 0x125B9D985B1A59081B585C9AD95D PUSH1 0x92 SHL PUSH1 0x40 DUP3 ADD MSTORE PUSH1 0x60 ADD SWAP1 JUMP JUMPDEST PUSH1 0x20 DUP1 DUP3 MSTORE PUSH1 0xC SWAP1 DUP3 ADD MSTORE PUSH12 0x496E76616C69642072617465 PUSH1 0xA0 SHL PUSH1 0x40 DUP3 ADD MSTORE PUSH1 0x60 ADD SWAP1 JUMP JUMPDEST PUSH1 0x20 DUP1 DUP3 MSTORE PUSH1 0x13 SWAP1 DUP3 ADD MSTORE PUSH19 0x10D1CE881B9BC81B585C9AD95D08199BDD5B99 PUSH1 0x6A SHL PUSH1 0x40 DUP3 ADD MSTORE PUSH1 0x60 ADD SWAP1 JUMP JUMPDEST PUSH1 0x20 DUP1 DUP3 MSTORE PUSH1 0x15 SWAP1 DUP3 ADD MSTORE PUSH21 0x14DD59999A58DA595B9D0818DBDB1B185D195C985B PUSH1 0x5A SHL PUSH1 0x40 DUP3 ADD MSTORE PUSH1 0x60 ADD SWAP1 JUMP JUMPDEST PUSH1 0x20 DUP1 DUP3 MSTORE PUSH1 0x1C SWAP1 DUP3 ADD MSTORE PUSH32 0x496E73756666696369656E74206672656520636F6C6C61746572616C00000000 PUSH1 0x40 DUP3 ADD MSTORE PUSH1 0x60 ADD SWAP1 JUMP JUMPDEST PUSH1 0x0 PUSH2 0x400 PUSH2 0x4357 DUP4 DUP8 PUSH2 0x4048 JUMP JUMPDEST PUSH2 0x4365 PUSH1 0xA0 DUP5 ADD DUP7 MLOAD PUSH2 0x3FAF JUMP JUMPDEST PUSH1 0x20 DUP6 ADD MLOAD PUSH1 0xC0 DUP5 ADD MSTORE PUSH1 0x40 DUP6 ADD MLOAD PUSH1 0xE0 DUP5 ADD MSTORE PUSH1 0x60 DUP6 ADD MLOAD PUSH2 0x100 DUP2 DUP2 DUP7 ADD MSTORE PUSH1 0x80 DUP8 ADD MLOAD SWAP2 POP PUSH2 0x120 DUP3 DUP2 DUP8 ADD MSTORE PUSH1 0xA0 DUP9 ADD MLOAD SWAP3 POP PUSH2 0x140 PUSH2 0x43AB DUP2 DUP9 ADD DUP6 PUSH2 0x403A JUMP JUMPDEST PUSH1 0xC0 DUP10 ADD MLOAD SWAP4 POP PUSH2 0x43C0 PUSH2 0x160 DUP9 ADD DUP6 PUSH2 0x40EB JUMP JUMPDEST PUSH1 0xE0 DUP10 ADD MLOAD SWAP4 POP PUSH2 0x43D5 PUSH2 0x200 DUP9 ADD DUP6 PUSH2 0x40EB JUMP JUMPDEST DUP3 DUP10 ADD MLOAD SWAP4 POP PUSH2 0x43E9 PUSH2 0x2A0 DUP9 ADD DUP6 PUSH2 0x4097 JUMP JUMPDEST DUP2 DUP10 ADD MLOAD SWAP4 POP PUSH2 0x43FD PUSH2 0x300 DUP9 ADD DUP6 PUSH2 0x40B9 JUMP JUMPDEST DUP9 ADD MLOAD SWAP3 POP PUSH2 0x4413 SWAP2 POP POP PUSH2 0x3C0 DUP6 ADD DUP3 PUSH2 0x4034 JUMP JUMPDEST POP DUP1 PUSH2 0x3E0 DUP5 ADD MSTORE PUSH2 0x23E5 DUP2 DUP5 ADD DUP6 PUSH2 0x3FBC JUMP INVALID MSTORE8 PUSH2 0x6665 0x4D PUSH2 0x7468 GASPRICE KECCAK256 PUSH14 0x756C7469706C69636174696F6E20 PUSH16 0x766572666C6F77A26469706673582212 KECCAK256 MLOAD LOG0 CALLDATACOPY LOG3 0xD 0x4C GASLIMIT ADDRESS DUP10 JUMP PUSH6 0x6A90EBF1BF25 0xDB SELFDESTRUCT 0xD9 PUSH5 0x553BEC3FDB MLOAD 0xC5 0xB7 0xAD 0xE7 LOG1 PUSH5 0x736F6C6343 STOP SMOD MOD STOP CALLER ","sha1":"3ed43c2942a218fdb2a32ebe6d02bb5c87ede665","source":"// SPDX-License-Identifier: GPL-3.0-only\npragma solidity ^0.7.0;\npragma abicoder v2;\n\nimport \"../external/SettleAssetsExternal.sol\";\nimport \"../internal/AccountContextHandler.sol\";\nimport \"../internal/valuation/FreeCollateral.sol\";\n\n/// @title Externally deployed library for free collateral calculations\nlibrary FreeCollateralExternal {\n    using AccountContextHandler for AccountContext;\n\n    /// @notice Returns the ETH denominated free collateral of an account, represents the amount of\n    /// debt that the account can incur before liquidation. If an account's assets need to be settled this\n    /// will revert, either settle the account or use the off chain SDK to calculate free collateral.\n    /// @dev Called via the Views.sol method to return an account's free collateral. Does not work\n    /// for the nToken, the nToken does not have an account context.\n    /// @param account account to calculate free collateral for\n    /// @return total free collateral in ETH w/ 8 decimal places\n    /// @return array of net local values in asset values ordered by currency id\n    function getFreeCollateralView(address account)\n        external\n        view\n        returns (int256, int256[] memory)\n    {\n        AccountContext memory accountContext = AccountContextHandler.getAccountContext(account);\n        // The internal free collateral function does not account for settled assets. The Notional SDK\n        // can calculate the free collateral off chain if required at this point.\n        require(!accountContext.mustSettleAssets(), \"Assets not settled\");\n        return FreeCollateral.getFreeCollateralView(account, accountContext, block.timestamp);\n    }\n\n    /// @notice Calculates free collateral and will revert if it falls below zero. If the account context\n    /// must be updated due to changes in debt settings, will update. Cannot check free collateral if assets\n    /// need to be settled first.\n    /// @dev Cannot be called directly by users, used during various actions that require an FC check. Must be\n    /// called before the end of any transaction for accounts where FC can decrease.\n    /// @param account account to calculate free collateral for\n    function checkFreeCollateralAndRevert(address account) external {\n        AccountContext memory accountContext = AccountContextHandler.getAccountContext(account);\n        require(!accountContext.mustSettleAssets(), \"Assets not settled\");\n\n        (int256 ethDenominatedFC, bool updateContext) =\n            FreeCollateral.getFreeCollateralStateful(account, accountContext, block.timestamp);\n\n        if (updateContext) {\n            accountContext.setAccountContext(account);\n        }\n\n        require(ethDenominatedFC >= 0, \"Insufficient free collateral\");\n    }\n\n    /// @notice Calculates liquidation factors for an account\n    /// @dev Only called internally by liquidation actions, does some initial validation of currencies. If a currency is\n    /// specified that the account does not have, a asset available figure of zero will be returned. If this is the case then\n    /// liquidation actions will revert.\n    /// @dev an ntoken account will return 0 FC and revert if called\n    /// @param account account to liquidate\n    /// @param localCurrencyId currency that the debts are denominated in\n    /// @param collateralCurrencyId collateral currency to liquidate against, set to zero in the case of local currency liquidation\n    /// @return accountContext the accountContext of the liquidated account\n    /// @return factors struct of relevant factors for liquidation\n    /// @return portfolio the portfolio array of the account (bitmap accounts will return an empty array)\n    function getLiquidationFactors(\n        address account,\n        uint256 localCurrencyId,\n        uint256 collateralCurrencyId\n    )\n        external\n        returns (\n            AccountContext memory accountContext,\n            LiquidationFactors memory factors,\n            PortfolioAsset[] memory portfolio\n        )\n    {\n        accountContext = AccountContextHandler.getAccountContext(account);\n        if (accountContext.mustSettleAssets()) {\n            accountContext = SettleAssetsExternal.settleAccount(account, accountContext);\n        }\n\n        if (accountContext.isBitmapEnabled()) {\n            // A bitmap currency can only ever hold debt in this currency\n            require(localCurrencyId == accountContext.bitmapCurrencyId);\n        }\n\n        (factors, portfolio) = FreeCollateral.getLiquidationFactors(\n            account,\n            accountContext,\n            block.timestamp,\n            localCurrencyId,\n            collateralCurrencyId\n        );\n    }\n}\n","sourcePath":"contracts/external/FreeCollateralExternal.sol","deployment":{"address":"0x1add152E195527EdD03bb6a548ab3047FA219e41","chainid":"5","blockHeight":6439048}}