{"abi":[{"anonymous":false,"inputs":[{"indexed":true,"internalType":"address","name":"vault","type":"address"},{"indexed":true,"internalType":"uint16","name":"currencyId","type":"uint16"},{"indexed":true,"internalType":"uint256","name":"maturity","type":"uint256"},{"indexed":false,"internalType":"int256","name":"shortfall","type":"int256"}],"name":"ProtocolInsolvency","type":"event"},{"anonymous":false,"inputs":[{"indexed":true,"internalType":"address","name":"vault","type":"address"},{"indexed":true,"internalType":"uint16","name":"currencyId","type":"uint16"},{"indexed":false,"internalType":"uint256","name":"totalUsedBorrowCapacity","type":"uint256"}],"name":"VaultBorrowCapacityChange","type":"event"},{"anonymous":false,"inputs":[{"indexed":true,"internalType":"address","name":"vault","type":"address"},{"indexed":true,"internalType":"uint16","name":"currencyId","type":"uint16"},{"indexed":true,"internalType":"uint256","name":"maturity","type":"uint256"},{"indexed":false,"internalType":"int256","name":"reserveFee","type":"int256"},{"indexed":false,"internalType":"int256","name":"nTokenFee","type":"int256"}],"name":"VaultFeeAccrued","type":"event"},{"anonymous":false,"inputs":[{"indexed":true,"internalType":"address","name":"vault","type":"address"},{"indexed":true,"internalType":"uint256","name":"maturity","type":"uint256"},{"indexed":false,"internalType":"uint256","name":"assetCashDeposited","type":"uint256"},{"indexed":false,"internalType":"uint256","name":"strategyTokensMinted","type":"uint256"}],"name":"VaultMintStrategyToken","type":"event"},{"anonymous":false,"inputs":[{"indexed":true,"internalType":"address","name":"vault","type":"address"},{"indexed":false,"internalType":"bool","name":"enabled","type":"bool"}],"name":"VaultPauseStatus","type":"event"},{"anonymous":false,"inputs":[{"indexed":true,"internalType":"address","name":"vault","type":"address"},{"indexed":true,"internalType":"uint256","name":"maturity","type":"uint256"},{"indexed":false,"internalType":"int256","name":"assetCashReceived","type":"int256"},{"indexed":false,"internalType":"uint256","name":"strategyTokensRedeemed","type":"uint256"}],"name":"VaultRedeemStrategyToken","type":"event"},{"anonymous":false,"inputs":[{"indexed":true,"internalType":"address","name":"vault","type":"address"},{"indexed":true,"internalType":"address","name":"account","type":"address"},{"indexed":true,"internalType":"uint16","name":"currencyId","type":"uint16"},{"indexed":false,"internalType":"uint256","name":"maturity","type":"uint256"},{"indexed":false,"internalType":"uint256","name":"debtSharesRepaid","type":"uint256"},{"indexed":false,"internalType":"uint256","name":"fCashLent","type":"uint256"}],"name":"VaultRepaySecondaryBorrow","type":"event"},{"anonymous":false,"inputs":[{"indexed":true,"internalType":"address","name":"vault","type":"address"},{"indexed":true,"internalType":"address","name":"account","type":"address"},{"indexed":true,"internalType":"uint16","name":"currencyId","type":"uint16"},{"indexed":false,"internalType":"uint256","name":"maturity","type":"uint256"},{"indexed":false,"internalType":"uint256","name":"debtSharesMinted","type":"uint256"},{"indexed":false,"internalType":"uint256","name":"fCashBorrowed","type":"uint256"}],"name":"VaultSecondaryBorrow","type":"event"},{"anonymous":false,"inputs":[{"indexed":true,"internalType":"address","name":"vault","type":"address"},{"indexed":true,"internalType":"uint16","name":"currencyId","type":"uint16"},{"indexed":true,"internalType":"uint256","name":"maturity","type":"uint256"},{"indexed":false,"internalType":"int256","name":"totalfCashBorrowedInPrimarySnapshot","type":"int256"},{"indexed":false,"internalType":"int256","name":"exchangeRate","type":"int256"}],"name":"VaultSecondaryBorrowSnapshot","type":"event"},{"anonymous":false,"inputs":[{"indexed":true,"internalType":"address","name":"vault","type":"address"},{"indexed":true,"internalType":"uint256","name":"maturity","type":"uint256"},{"indexed":false,"internalType":"int256","name":"totalfCash","type":"int256"},{"indexed":false,"internalType":"uint256","name":"totalAssetCash","type":"uint256"},{"indexed":false,"internalType":"uint256","name":"totalStrategyTokens","type":"uint256"},{"indexed":false,"internalType":"uint256","name":"totalVaultShares","type":"uint256"},{"indexed":false,"internalType":"int256","name":"strategyTokenValue","type":"int256"}],"name":"VaultSettled","type":"event"},{"anonymous":false,"inputs":[{"indexed":true,"internalType":"address","name":"vault","type":"address"},{"indexed":true,"internalType":"uint256","name":"maturity","type":"uint256"},{"indexed":false,"internalType":"int256","name":"remainingAssetCash","type":"int256"},{"indexed":false,"internalType":"uint256","name":"remainingStrategyTokens","type":"uint256"}],"name":"VaultSettledAssetsRemaining","type":"event"},{"anonymous":false,"inputs":[{"indexed":true,"internalType":"address","name":"vault","type":"address"},{"indexed":true,"internalType":"uint16","name":"currencyId","type":"uint16"},{"indexed":true,"internalType":"uint256","name":"maturity","type":"uint256"},{"indexed":false,"internalType":"int256","name":"shortfall","type":"int256"}],"name":"VaultShortfall","type":"event"},{"anonymous":false,"inputs":[{"indexed":true,"internalType":"address","name":"vault","type":"address"},{"indexed":true,"internalType":"uint256","name":"maturity","type":"uint256"},{"indexed":false,"internalType":"int256","name":"totalfCash","type":"int256"},{"indexed":false,"internalType":"uint256","name":"totalAssetCash","type":"uint256"},{"indexed":false,"internalType":"uint256","name":"totalStrategyTokens","type":"uint256"},{"indexed":false,"internalType":"uint256","name":"totalVaultShares","type":"uint256"}],"name":"VaultStateUpdate","type":"event"},{"anonymous":false,"inputs":[{"indexed":true,"internalType":"address","name":"vault","type":"address"},{"indexed":true,"internalType":"uint16","name":"currencyId","type":"uint16"},{"indexed":false,"internalType":"uint80","name":"maxSecondaryBorrowCapacity","type":"uint80"}],"name":"VaultUpdateSecondaryBorrowCapacity","type":"event"},{"anonymous":false,"inputs":[{"indexed":true,"internalType":"address","name":"vault","type":"address"},{"indexed":false,"internalType":"bool","name":"enabled","type":"bool"},{"indexed":false,"internalType":"uint80","name":"maxPrimaryBorrowCapacity","type":"uint80"}],"name":"VaultUpdated","type":"event"},{"inputs":[{"internalType":"address","name":"account","type":"address"},{"internalType":"uint256","name":"maturity","type":"uint256"},{"internalType":"uint256[2]","name":"fCashToBorrow","type":"uint256[2]"},{"internalType":"uint32[2]","name":"maxBorrowRate","type":"uint32[2]"},{"internalType":"uint32[2]","name":"minRollLendRate","type":"uint32[2]"}],"name":"borrowSecondaryCurrencyToVault","outputs":[{"internalType":"uint256[2]","name":"underlyingTokensTransferred","type":"uint256[2]"}],"stateMutability":"nonpayable","type":"function"},{"inputs":[{"internalType":"uint256","name":"maturity","type":"uint256"},{"internalType":"uint256","name":"assetCashInternal","type":"uint256"},{"internalType":"bytes","name":"vaultData","type":"bytes"}],"name":"depositVaultCashToStrategyTokens","outputs":[],"stateMutability":"nonpayable","type":"function"},{"inputs":[{"internalType":"address","name":"vault","type":"address"},{"internalType":"uint16","name":"currencyId","type":"uint16"}],"name":"getBorrowCapacity","outputs":[{"internalType":"uint256","name":"totalUsedBorrowCapacity","type":"uint256"},{"internalType":"uint256","name":"maxBorrowCapacity","type":"uint256"}],"stateMutability":"view","type":"function"},{"inputs":[{"internalType":"address","name":"vault","type":"address"},{"internalType":"uint256","name":"maturity","type":"uint256"}],"name":"getCashRequiredToSettle","outputs":[{"internalType":"int256","name":"assetCashRequiredToSettle","type":"int256"},{"internalType":"int256","name":"underlyingCashRequiredToSettle","type":"int256"}],"stateMutability":"view","type":"function"},{"inputs":[],"name":"getLibInfo","outputs":[{"internalType":"address","name":"","type":"address"}],"stateMutability":"pure","type":"function"},{"inputs":[{"internalType":"address","name":"vault","type":"address"},{"internalType":"uint16","name":"currencyId","type":"uint16"},{"internalType":"uint256","name":"maturity","type":"uint256"}],"name":"getSecondaryBorrow","outputs":[{"internalType":"uint256","name":"totalfCashBorrowed","type":"uint256"},{"internalType":"uint256","name":"totalAccountDebtShares","type":"uint256"},{"internalType":"uint256","name":"totalfCashBorrowedInPrimarySnapshot","type":"uint256"}],"stateMutability":"view","type":"function"},{"inputs":[{"internalType":"address","name":"vault","type":"address"}],"name":"getVaultConfig","outputs":[{"components":[{"internalType":"address","name":"vault","type":"address"},{"internalType":"uint16","name":"flags","type":"uint16"},{"internalType":"uint16","name":"borrowCurrencyId","type":"uint16"},{"internalType":"int256","name":"minAccountBorrowSize","type":"int256"},{"internalType":"int256","name":"feeRate","type":"int256"},{"internalType":"int256","name":"minCollateralRatio","type":"int256"},{"internalType":"int256","name":"liquidationRate","type":"int256"},{"internalType":"int256","name":"reserveFeeShare","type":"int256"},{"internalType":"uint256","name":"maxBorrowMarketIndex","type":"uint256"},{"internalType":"int256","name":"maxDeleverageCollateralRatio","type":"int256"},{"internalType":"uint16[2]","name":"secondaryBorrowCurrencies","type":"uint16[2]"},{"components":[{"internalType":"contract AssetRateAdapter","name":"rateOracle","type":"address"},{"internalType":"int256","name":"rate","type":"int256"},{"internalType":"int256","name":"underlyingDecimals","type":"int256"}],"internalType":"struct AssetRateParameters","name":"assetRate","type":"tuple"},{"internalType":"int256","name":"maxRequiredAccountCollateralRatio","type":"int256"}],"internalType":"struct VaultConfig","name":"vaultConfig","type":"tuple"}],"stateMutability":"view","type":"function"},{"inputs":[{"internalType":"address","name":"vault","type":"address"},{"internalType":"uint256","name":"maturity","type":"uint256"}],"name":"getVaultState","outputs":[{"components":[{"internalType":"uint256","name":"maturity","type":"uint256"},{"internalType":"int256","name":"totalfCash","type":"int256"},{"internalType":"bool","name":"isSettled","type":"bool"},{"internalType":"uint256","name":"totalVaultShares","type":"uint256"},{"internalType":"uint256","name":"totalAssetCash","type":"uint256"},{"internalType":"uint256","name":"totalStrategyTokens","type":"uint256"},{"internalType":"int256","name":"settlementStrategyTokenValue","type":"int256"}],"internalType":"struct VaultState","name":"vaultState","type":"tuple"}],"stateMutability":"view","type":"function"},{"inputs":[{"internalType":"uint256","name":"maturity","type":"uint256"}],"name":"initiateSecondaryBorrowSettlement","outputs":[{"internalType":"uint256[2]","name":"secondaryBorrowSnapshot","type":"uint256[2]"}],"stateMutability":"nonpayable","type":"function"},{"inputs":[],"name":"owner","outputs":[{"internalType":"address","name":"","type":"address"}],"stateMutability":"view","type":"function"},{"inputs":[],"name":"pauseGuardian","outputs":[{"internalType":"address","name":"","type":"address"}],"stateMutability":"view","type":"function"},{"inputs":[],"name":"pauseRouter","outputs":[{"internalType":"address","name":"","type":"address"}],"stateMutability":"view","type":"function"},{"inputs":[{"internalType":"uint256","name":"maturity","type":"uint256"},{"internalType":"uint256","name":"strategyTokensToRedeem","type":"uint256"},{"internalType":"bytes","name":"vaultData","type":"bytes"}],"name":"redeemStrategyTokensToCash","outputs":[{"internalType":"int256","name":"assetCashRequiredToSettle","type":"int256"},{"internalType":"int256","name":"underlyingCashRequiredToSettle","type":"int256"}],"stateMutability":"nonpayable","type":"function"},{"inputs":[{"internalType":"address","name":"vaultAddress","type":"address"},{"internalType":"uint80","name":"maxVaultBorrowCapacity","type":"uint80"},{"internalType":"uint256","name":"maturity","type":"uint256"},{"internalType":"uint256","name":"strategyTokensToRedeem","type":"uint256"},{"internalType":"bytes","name":"vaultData","type":"bytes"}],"name":"reduceMaxBorrowCapacity","outputs":[],"stateMutability":"nonpayable","type":"function"},{"inputs":[{"internalType":"address","name":"account","type":"address"},{"internalType":"uint16","name":"currencyId","type":"uint16"},{"internalType":"uint256","name":"maturity","type":"uint256"},{"internalType":"uint256","name":"debtSharesToRepay","type":"uint256"},{"internalType":"uint32","name":"minLendRate","type":"uint32"},{"internalType":"bytes","name":"callbackData","type":"bytes"}],"name":"repaySecondaryCurrencyFromVault","outputs":[{"internalType":"bytes","name":"returnData","type":"bytes"}],"stateMutability":"nonpayable","type":"function"},{"inputs":[{"internalType":"address","name":"vaultAddress","type":"address"},{"internalType":"uint80","name":"maxVaultBorrowCapacity","type":"uint80"}],"name":"setMaxBorrowCapacity","outputs":[],"stateMutability":"nonpayable","type":"function"},{"inputs":[{"internalType":"address","name":"vaultAddress","type":"address"},{"internalType":"bool","name":"enable","type":"bool"}],"name":"setVaultPauseStatus","outputs":[],"stateMutability":"nonpayable","type":"function"},{"inputs":[{"internalType":"address","name":"vault","type":"address"},{"internalType":"uint256","name":"maturity","type":"uint256"}],"name":"settleVault","outputs":[],"stateMutability":"nonpayable","type":"function"},{"inputs":[{"internalType":"address","name":"vaultAddress","type":"address"},{"internalType":"uint16","name":"secondaryCurrencyId","type":"uint16"},{"internalType":"uint80","name":"maxBorrowCapacity","type":"uint80"}],"name":"updateSecondaryBorrowCapacity","outputs":[],"stateMutability":"nonpayable","type":"function"},{"inputs":[{"internalType":"address","name":"vaultAddress","type":"address"},{"components":[{"internalType":"uint16","name":"flags","type":"uint16"},{"internalType":"uint16","name":"borrowCurrencyId","type":"uint16"},{"internalType":"uint32","name":"minAccountBorrowSize","type":"uint32"},{"internalType":"uint16","name":"minCollateralRatioBPS","type":"uint16"},{"internalType":"uint8","name":"feeRate5BPS","type":"uint8"},{"internalType":"uint8","name":"liquidationRate","type":"uint8"},{"internalType":"uint8","name":"reserveFeeShare","type":"uint8"},{"internalType":"uint8","name":"maxBorrowMarketIndex","type":"uint8"},{"internalType":"uint16","name":"maxDeleverageCollateralRatioBPS","type":"uint16"},{"internalType":"uint16[2]","name":"secondaryBorrowCurrencies","type":"uint16[2]"},{"internalType":"uint16","name":"maxRequiredAccountCollateralRatioBPS","type":"uint16"}],"internalType":"struct VaultConfigStorage","name":"vaultConfig","type":"tuple"},{"internalType":"uint80","name":"maxPrimaryBorrowCapacity","type":"uint80"}],"name":"updateVault","outputs":[],"stateMutability":"nonpayable","type":"function"}],"bytecode":"608060405234801561001057600080fd5b50615bfc80620000216000396000f3fe608060405234801561001057600080fd5b506004361061012c5760003560e01c806382463367116100ad578063c4c96dae11610071578063c4c96dae14610289578063d04c16ac14610291578063d6ddeb9a146102a4578063de1eb9a3146102b7578063ee01436b146102d75761012c565b806382463367146102315780638c9e4465146102395780638da5cb5b1461024c578063a14db57c14610254578063b67138aa146102765761012c565b806331572281116100f457806331572281146101aa57806350e4f223146101ca57806356f428c4146101ea57806367515776146101fd5780636c346c091461021e5761012c565b806301ac8852146101315780630bc08cdc1461015a57806324a3d6221461016d578063291afdf314610182578063295e6b7f14610197575b600080fd5b61014461013f366004614fd6565b6102ea565b6040516101519190615275565b60405180910390f35b610144610168366004614e11565b610374565b61017561052b565b604051610151919061515c565b610195610190366004614dab565b61053a565b005b6101956101a5366004614de8565b610656565b6101bd6101b8366004614de8565b610891565b604051610151919061583d565b6101dd6101d8366004614d20565b6108aa565b60405161015191906152ca565b6101956101f8366004614c29565b610a78565b61021061020b366004614cb7565b610af8565b604051610151929190615306565b61021061022c366004614de8565b610b48565b610175610b83565b610195610247366004614c63565b610b92565b610175610c4a565b610267610262366004614ce2565b610c60565b604051610151939291906158b5565b610195610284366004614e72565b610cc6565b610175610d65565b61019561029f366004614fee565b610d7d565b6101956102b2366004614e9d565b610eef565b6102ca6102c5366004614c0f565b610fa1565b604051610151919061577d565b6102106102e5366004614fee565b610fb8565b6102f2614a27565b60006102fd3361100a565b905061030a816001611039565b61032f5760405162461bcd60e51b8152600401610326906153db565b60405180910390fd5b6101408101516103529061034d9060005b602002015183908661104e565b6111ce565b82526101408101516103699061034d906001610340565b602083015250919050565b61037c614a27565b60006103873361100a565b9050610394816001611039565b6103b05760405162461bcd60e51b8152600401610326906153db565b610140810151805161ffff161515806103d05750602081015161ffff1615155b6103d957600080fd5b60006103e36111e5565b6001600160a01b03808b1660009081526020928352604080822087519093168252919092529020805490915063ffffffff1661041d614a27565b811580159061042b57508982105b801561043d575061043d856002611039565b801561045257506001600160a01b038b163314155b156104c657610494858c866000602002015186548690600160201b90046001600160501b03168c60005b60200201602081019061048f919061503f565b6111f2565b8152602084015183546104c09187918e91908690600160701b90046001600160501b03168c600161047c565b60208201525b835181516104f39187918e91908e908e358e60005b6020020160208101906104ee919061503f565b611227565b8652602084810151828201516105179288928f9290918f91908f01358e60016104db565b602087015250939998505050505050505050565b6002546001600160a01b031681565b600054600160201b90046001600160a01b0316331461056b5760405162461bcd60e51b815260040161032690615643565b60006105768461100a565b905060006105878461ffff166112a9565b905060006105988561ffff166112bc565b905081602001511580156105ae57508060200151155b6105b757600080fd5b6101408301515161ffff868116911614806105e157506101408301516020015161ffff8681169116145b6105fd5760405162461bcd60e51b8152600401610326906155ea565b6106088686866112cf565b8461ffff16866001600160a01b03167f8f868f60e49b80b48ee5de8b7bc703cfc4b5c826a05d3ea1b00cf4159c155a908660405161064691906158cb565b60405180910390a3505050505050565b6002600a5414156106795760405162461bcd60e51b8152600401610326906156fc565b6002600a5560006106898361100a565b905061069781336040611323565b60006106a3848461138d565b90504283111580156106b757506040810151155b6106d35760405162461bcd60e51b81526004016103269061556d565b60006106e8836040015161ffff168542611428565b9050600061070661034d6106ff8560200151611598565b84906115a6565b905060006107126115df565b6001600160a01b038816600090815260209182526040808220898352909252206101408601515190915061ffff1615610785576101408501515161ffff166000908152602082905260409020546001600160501b0316156107855760405162461bcd60e51b81526004016103269061545f565b6101408501516020015161ffff16156107dc5761014085015160209081015161ffff1660009081529082905260409020546001600160501b0316156107dc5760405162461bcd60e51b81526004016103269061545f565b818460800151101561085a5760a08401511561080a5760405162461bcd60e51b8152600401610326906153b0565b600061081b856080015184036115ec565b9050600061083661034d88600001518960400151858c611602565b6080870151909150610848908261172a565b6080870152610857868a61173c565b50505b6108758786604001516108708760200151611598565b6118a6565b5061088384868589426119ac565b50506001600a555050505050565b610899614a45565b6108a3838361138d565b9392505050565b6060846108b657610a6d565b60006108c13361100a565b90506108ce816001611039565b6108ea5760405162461bcd60e51b8152600401610326906153db565b60006108fa828b8b8b8b8b611b72565b509050600061090c8a61ffff166112a9565b905060008060048360600151600581111561092357fe5b1461093a576109358c61ffff166112bc565b61093c565b825b9050600061096d61034d610966610961888a6101600151611d3690919063ffffffff16565b611598565b8490611d61565b9050600061097b8330611d9d565b8351604051637efbe0e760e11b8152919250339163fdf7c1ce916109a79186908f908f906004016151fe565b600060405180830381600087803b1580156109c157600080fd5b505af11580156109d5573d6000803e3d6000fd5b505050506040513d6000823e601f3d908101601f191682016040526109fd9190810190614f15565b97506000610a0b8430611d9d565b9050610a178183611e47565b945082851015610a395760405162461bcd60e51b815260040161032690615724565b5060049250610a46915050565b82606001516005811115610a5657fe5b14610a6857610a66828c83611e5c565b505b505050505b979650505050505050565b600054600160201b90046001600160a01b03163314610aa95760405162461bcd60e51b815260040161032690615643565b610ab38282611f43565b816001600160a01b03167f7c51c6aa77346c54cb051d9e792f9b7bde5c28a9b57e6fb2d2dd727b38438ca982604051610aec91906152a6565b60405180910390a25050565b6000806000610b05611fa3565b6001600160a01b0390951660009081526020958652604080822061ffff9096168252949095525050509020546001600160501b03600160501b8204811692911690565b6000806000610b5685611fb0565b90506000610b6882600001518661138d565b9050610b75828287611fd4565b9350935050505b9250929050565b6001546001600160a01b031681565b600054600160201b90046001600160a01b03163314610bc35760405162461bcd60e51b815260040161032690615643565b610bcd838361208d565b610be783610be16040850160208601614fba565b836112cf565b6000600180610bf96020860186614fba565b1661ffff16149050836001600160a01b03167fb441d7ca09abc712b4504256717707ce40e8d43895266b46abf9cd58619c07dc8284604051610c3c9291906152b1565b60405180910390a250505050565b600054600160201b90046001600160a01b031681565b600080600080610c6e6115df565b6001600160a01b0390971660009081526020978852604080822096825295885285812061ffff9097168152959096525050509020546001600160501b0380821693600160501b830482169350600160a01b9092041690565b600054600160201b90046001600160a01b03163314610cf75760405162461bcd60e51b815260040161032690615643565b6000610d028361100a565b9050610d13838260400151846112cf565b6001600160a01b0383167fb441d7ca09abc712b4504256717707ce40e8d43895266b46abf9cd58619c07dc610d49836001611039565b84604051610d589291906152b1565b60405180910390a2505050565b73__TradingAction_________________________90565b6002600a541415610da05760405162461bcd60e51b8152600401610326906156fc565b6002600a556000610db03361100a565b9050610dbd816001611039565b610dd95760405162461bcd60e51b8152600401610326906153db565b610de4816080611039565b15610def576001600a555b6000610dfb338761138d565b90506000610e1d8360000151610e10886115ec565b8591908a60008a8a61240a565b6080830151909150610e2f9087611e47565b608083015260a0820151610e43908261172a565b60a0830152610e52823361173c565b6000610e75833385606001518660200151886124b390949392919063ffffffff16565b509050808460a001511315610e9c5760405162461bcd60e51b81526004016103269061569f565b87336001600160a01b03167fbba43506b1f3723add796bf603adde56bc018392a95775b9f76c31213b4161bb8985604051610ed8929190615306565b60405180910390a350506001600a55505050505050565b600054600160201b90046001600160a01b03163314610f205760405162461bcd60e51b815260040161032690615643565b6000610f2b8761100a565b9050610f3c878260400151886112cf565b610f498186868686612533565b50506001600160a01b0387167fb441d7ca09abc712b4504256717707ce40e8d43895266b46abf9cd58619c07dc610f81836001611039565b88604051610f909291906152b1565b60405180910390a250505050505050565b610fa9614a84565b610fb282611fb0565b92915050565b6000806000610fc63361100a565b9050610fd3816001611039565b610fef5760405162461bcd60e51b8152600401610326906153db565b610ffc8188888888612533565b925092505094509492505050565b611012614a84565b61101b82612657565b905061102e816040015161ffff166127f0565b610160820152919050565b60209190910151811661ffff90811691161490565b600061ffff8316611061575060006108a3565b600061106b6115df565b85516001600160a01b0316600090815260209182526040808220868352835280822061ffff88168352909252208054909150600160f01b900460ff16156110c45760405162461bcd60e51b815260040161032690615614565b805460408601516001600160501b03909116906000906110e79061ffff1661283c565b905060006110f88761ffff1661283c565b90506000611106838361299f565b9050611129816111238560000151876129c490919063ffffffff16565b90612a12565b955061113c611137876111ce565b612a43565b855460ff60f01b196001600160501b0392909216600160a01b0269ffffffffffffffffffff60a01b199091161716600160f01b1785558851604051889161ffff8b16916001600160a01b03909116907f744b6e0d7db0666a7c17a4868d11d5f7f909a7b04d458b5eace97646ba7a0ee8906111ba908b908790615306565b60405180910390a450505050509392505050565b6000808212156111dd57600080fd5b50805b919050565b600080610fb2601a612a59565b600061ffff85161580159061120657508215155b1561121d57611219878787878787611b72565b5090505b9695505050505050565b600061ffff86161580611238575082155b8015611242575083155b1561124f57506000610a6d565b600061125f898989898888612a72565b50905061126c8186612c18565b9050600081121561128f5760405162461bcd60e51b815260040161032690615536565b885161129c908883612c2e565b9998505050505050505050565b6112b1614b09565b610fb2826000612cd6565b6112c4614b09565b610fb2826001612cd6565b60006112d9611fa3565b6001600160a01b0390941660009081526020948552604080822061ffff90951682529390945250912080546001600160501b039092166001600160501b0319909216919091179055565b61132d8382611039565b156113605782516001600160a01b0316331461135b5760405162461bcd60e51b8152600401610326906153fb565b611388565b6001600160a01b03821633146113885760405162461bcd60e51b8152600401610326906153fb565b505050565b611395614a45565b600061139f612d84565b6001600160a01b03909416600090815260209485526040808220858352865280822094845284546001600160501b038082169093039685019690965260ff600160f01b870416151590840152600160501b8086048216608085015260019094015480821660a0850152600160a01b909504166060830152509104600990810b900b60c082015290565b611430614b30565b60008061143d8686612d91565b91509150816000141561156d57600061145587612dda565b91945090925090506001600160a01b0381161561156b576000611476612e9d565b90508560001080156114885750858711155b8015611499575064ffffffffff8611155b6114a257600080fd5b8360001280156114b957506001600160801b038413155b6114c257600080fd5b6000888152602082815260408083208a845290915290819020805464ffffffffff191664ffffffffff89161774ffffffffffffffffffffffffffffffff00000000001916650100000000006001600160801b038816021760ff60a81b1916600160a81b60ff871602178155905188908a907f0fdfa6885701e2f1f42e4187b9231cf81c1fe23671ef64fa46f34ddb56c1dc189061156090899061588d565b60405180910390a350505b505b6040805160608101825260008152602081019390935260ff909116600a0a9082015290509392505050565b6000610fb2600019836129c4565b6000806115d7846020015161112386604001516115d16402540be400886129c490919063ffffffff16565b906129c4565b949350505050565b600080610fb26018612a59565b60006001600160ff1b038211156111dd57600080fd5b600061160f856000611f43565b846001600160a01b03167f7c51c6aa77346c54cb051d9e792f9b7bde5c28a9b57e6fb2d2dd727b38438ca9600060405161164991906152a6565b60405180910390a2818461ffff16866001600160a01b03167f823b641d46550301006f807a26587634f15bd13749efdc8859734377d5304a3b8660405161169091906152fd565b60405180910390a460006116a960008661ffff16612eaa565b50505090508084136116c9576116c185858303612f53565b839150611721565b6116d4856000612f53565b828561ffff16876001600160a01b03167f3a717b6924e3ad05b8c7609a2401472af90869b52cc3c9ca69b50100b4be631684880360405161171591906152fd565b60405180910390a48091505b50949350505050565b6000828201838110156108a357600080fd5b6000611746612d84565b6001600160a01b038316600090815260208281526040808320875184529091529081902090850151919250901561177c57600080fd5b61178f61113761034d8660200151611598565b81546001600160501b0319166001600160501b039190911617815560808401516117b890612a43565b81546001600160501b0391909116600160501b02600160501b600160a01b031990911617815560a08401516117ec90612a43565b6001820180546001600160501b0319166001600160501b0392909216919091179055606084015161181c90612a43565b81546001600160501b0391909116600160a01b0269ffffffffffffffffffff60a01b1990911617815583516020850151608086015160a087015160608801516040516001600160a01b038916947f3a0fdaecf7b5da75a56077f5b1c8fbc88f9b08e9d0c4db31eb34e25bc6700cde946118989491939092615314565b60405180910390a350505050565b6000806118b1611fa3565b6001600160a01b03861660009081526020918252604080822061ffff881683529092522080549091506118f490600160501b90046001600160501b031684612faa565b915060008312156119295780546001600160501b03168213156119295760405162461bcd60e51b815260040161032690615594565b611935611137836111ce565b81546001600160501b0391909116600160501b02600160501b600160a01b031990911617815560405161ffff8516906001600160a01b038716907f20478ef460e49d010960d4f3fff35d8dae385443abfac09035d6a2ccbcd834c49061199c9086906152fd565b60405180910390a3509392505050565b60006119b6612d84565b85516001600160a01b03166000908152602082815260408083208784529091529020805491925090600160f01b900460ff16156119f257600080fd5b828411156119ff57600080fd5b60408601518651600091611a1991806305f5e10089612fc0565b825460ff60f01b1916600160f01b1783559050611a3581613087565b82600101600a6101000a8154816001600160501b03021916908360090b6001600160501b031602179055506000611a6a6130b7565b88516001600160a01b031660009081526020918252604080822089835283529020600185015481546001600160501b0319166001600160501b03909116178155908a0151909150611adc90611ad790611ac4908a906115a6565b611ad18c608001516115ec565b90612c18565b613087565b815460099190910b6001600160501b0316600160501b02600160501b600160a01b03199091161781558851885160208b015160808c015160a08d015160608e01516040516001600160a01b03909516947fe66a863186dba5a66d19d3d91a66b76a7cbfdefd0d8c29c662274b13febb166e94611b5f949093909290918a9061532f565b60405180910390a3505050505050505050565b6000806000611b7f6115df565b89516001600160a01b0316600090815260209182526040808220898352835280822061ffff8b168352909252208054909150600160f01b900460ff161580611bd3575088516001600160a01b038981169116145b611bef5760405162461bcd60e51b815260040161032690615678565b80546001600160501b0380821691600160501b900416611c21611c1c82611c168a866130c4565b906130eb565b6115ec565b93508a600001516001600160a01b03168a6001600160a01b031614611c8b57611c4d6111378289611e47565b83546001600160501b0391909116600160501b02600160501b600160a01b0319909116178355611c8b8b8b8b8b611c866109618d6115ec565b61310a565b8a51611c98908a866118a6565b50611ca66111378386611e47565b83546001600160501b0319166001600160501b0391909116178355611cce8b8a8a878a613291565b94508861ffff168a6001600160a01b03168c600001516001600160a01b03167f38db3b2568ca34833805148705b1440a4f80962ce663ba509811abc652de434a8b8b89604051611d20939291906158b5565b60405180910390a4505050965096945050505050565b6000806115d784604001516111236402540be4006111238789602001516129c490919063ffffffff16565b60006305f5e10083604001511215611d8957611d826001611ad1858561335e565b9050610fb2565b6108a383611d98846001612c18565b61335e565b6000600383606001516005811115611db157fe5b1415611dc857506001600160a01b03811631610fb2565b82516040516370a0823160e01b81526001600160a01b03909116906370a0823190611df790859060040161515c565b60206040518083038186803b158015611e0f57600080fd5b505afa158015611e23573d6000803e3d6000fd5b505050506040513d601f19601f82011682018060405250810190611d829190614fa2565b600082821115611e5657600080fd5b50900390565b600080600585606001516005811115611e7157fe5b14611e83576370a0823160e01b611e8c565b630ed1279f60e11b5b90506000611e9f86600001513084613396565b9050600586606001516005811115611eb357fe5b1415611eda576000611ec88661ffff166112bc565b9050611ed481866134a8565b50611f23565b600186606001516005811115611eec57fe5b1415611f0157611efc868561351b565b611f23565b600286606001516005811115611f1357fe5b141561012c57611efc86856135bd565b6000611f3487600001513085613396565b9050610a6d611c1c8284613619565b6000611f4d613670565b6001600160a01b038416600090815260208290526040902080549192509061ffff168315611f8c57815461ffff19166001821761ffff16178255611f9c565b815461ffff191661fffe82161782555b5050505050565b600080610fb26017612a59565b611fb8614a84565b611fc182612657565b905061102e816040015161ffff1661367d565b6000806000611feb866040015161ffff1685613693565b9050600061201261096161200288608001516115ec565b6020890151611ad19086906115a6565b90506000612027886040015161ffff166112a9565b9050612033818361335e565b945060048160600151600581111561204757fe5b141561205557849350612082565b6000612068896040015161ffff166112bc565b905061207e6120778585611d36565b8290611d61565b9450505b505050935093915050565b6000612097613670565b905060006120a484612657565b90506120b66040840160208501614fba565b61ffff166120c357600080fd5b604081015161ffff1615806120f257506120e36040840160208501614fba565b61ffff16816040015161ffff16145b6120fb57600080fd5b61210b60c0840160a0850161505b565b60ff166064131561211b57600080fd5b600060648061213060c0870160a0880161505b565b60ff16030290506121476080850160608601614fba565b61ffff168161ffff161061215a57600080fd5b61216c61012085016101008601614fba565b61ffff166121806080860160608701614fba565b61ffff161061218e57600080fd5b6121a061018085016101608601614fba565b61ffff166121b661012086016101008701614fba565b61ffff16106121c457600080fd5b60646121d660e0860160c0870161505b565b60ff1613156121e457600080fd5b6121f5610100850160e0860161505b565b60ff1661220157600080fd5b6101408201515161ffff161580612246575061222561014085016101208601614fba565b61ffff1682610140015160006002811061223b57fe5b602002015161ffff16145b61224f57600080fd5b6101408201516020015161ffff161580612297575061227661016085016101408601614fba565b61ffff1682610140015160016002811061228c57fe5b602002015161ffff16145b6122a057600080fd5b6122b261014085016101208601614fba565b61ffff166122c66040860160208701614fba565b61ffff1614156122d557600080fd5b6122e761016085016101408601614fba565b61ffff166122fb6040860160208701614fba565b61ffff16141561230a57600080fd5b61231c61014085016101208601614fba565b61ffff1615801590612342575061233b61016085016101408601614fba565b61ffff1615155b1561237e5761235961016085016101408601614fba565b61ffff1661236f61014086016101208701614fba565b61ffff16141561237e57600080fd5b600061239c6123936040870160208801614fba565b61ffff166112a9565b905060006123bc6123b36040880160208901614fba565b61ffff166112bc565b905081602001511580156123d257508060200151155b6123db57600080fd5b6001600160a01b038716600090815260208690526040902086906123ff8282615994565b505050505050505050565b60008061242089600001518a6040015189612c2e565b89519091506001600160a01b031663dc6679c58961243e848961172a565b8988886040518663ffffffff1660e01b8152600401612461959493929190615247565b602060405180830381600087803b15801561247b57600080fd5b505af115801561248f573d6000803e3d6000fd5b505050506040513d601f19601f8201168201806040525081019061129c9190614fa2565b6000806124c2868887876136f0565b905060006124d588878960000151613755565b905060006124f56124e983611ad188611598565b6101608b0151906115a6565b905060006125038483612faa565b905081612519576001600160ff1b039450612526565b612523818361383c565b94505b5050509550959350505050565b6000806002600a5414156125595760405162461bcd60e51b8152600401610326906156fc565b6002600a55612569876080611039565b15612574576001600a555b600061258488600001518861138d565b8851909150600090819061259d908b908a8c8b8b613855565b91509150600082136125ae57600080fd5b80156125b957600080fd5b60808301516125c8908361172a565b608084015260a08301516125dc9089611e47565b60a084015289516125ee90849061173c565b888a600001516001600160a01b03167fb2f70c3fe73b5aee7e8c59b77222111306f1e4d7170f8fa1c09979bb847eb9d9848b60405161262e929190615306565b60405180910390a36126418a848b611fd4565b6001600a55909b909a5098505050505050505050565b61265f614a84565b6000612669613670565b6001600160a01b03841660008181526020838152604091829020928652825461ffff8082169288019290925262010000810490911691860191909152919250906126c99063ffffffff600160201b9091048116906305f5e100906129c416565b606084015280546126e790600160501b900460ff166207a1206130c4565b6080840152805461270b9068010000000000000000900461ffff16620186a06130c4565b60a0840152805461272a90600160701b900461ffff16620186a06130c4565b61012084015260028101546127469061ffff16620186a06130c4565b610180840152805460649060ff600160581b90910416633b9aca00020560c08401528054600160601b810460ff90811660e0860152600160681b909104166101008401526040805180820191829052906001830190600290826000855b82829054906101000a900461ffff1661ffff16815260200190600201906020826001010492830192600103820291508084116127a357905050505050508361014001819052505050919050565b6127f8614b30565b600080600061280685612dda565b604080516060810182526001600160a01b039093168352602083019390935260ff16600a0a918101919091529350505050919050565b612844614b5a565b600061284e6138ac565b600084815260208290526040812091925080600186141561287b5750670de0b6b3a7640000905080612951565b825460408051633fabe5a360e21b815290516001600160a01b039092169163feaf968c9160048082019260a092909190829003018186803b1580156128bf57600080fd5b505afa1580156128d3573d6000803e3d6000fd5b505050506040513d601f19601f820116820180604052508101906128f79190615077565b509193505060008313915061292090505760405162461bcd60e51b8152600401610326906156d6565b825460ff600160a01b82048116600a0a9350600160a81b90910416156129515761294e8161112384806129c4565b90505b6040805160a0810182529283526020830191909152915460ff600160b01b8204811693830193909352600160b81b810483166060830152600160c01b90049091166080820152915050919050565b60006108a38260200151611123846000015186602001516129c490919063ffffffff16565b8181026000198314156129f4578115806129e65750828282816129e357fe5b05145b6129ef57600080fd5b610fb2565b821580612a09575081838281612a0657fe5b05145b610fb257600080fd5b600081600019148015612a285750600160ff1b83145b15612a3257600080fd5b818381612a3b57fe5b059392505050565b60006001600160501b038211156111dd57600080fd5b6000620f424082601a811115612a6b57fe5b0192915050565b60008087600001516001600160a01b0316876001600160a01b03161415612a9857600080fd5b8751612aab9087610870610961886115ec565b506000612ab66115df565b89516001600160a01b0316600090815260209182526040808220898352835280822061ffff8b168352909252208054909150600160f01b900460ff1615612b0f5760405162461bcd60e51b815260040161032690615678565b80546001600160501b0380821691600160501b90041681612b3257869350612b43565b612b4082611c1689846130c4565b93505b612b538b8b8b8b611c86896115ec565b612b60611137828661172a565b83546001600160501b0391909116600160501b02600160501b600160a01b0319909116178355612b93611137838961172a565b83546001600160501b0319166001600160501b0391909116178355612bc68b8a8a612bc06109618c6115ec565b8a613291565b94508861ffff168a6001600160a01b03168c600001516001600160a01b03167fa119a38e8bbbf2cbe78427cb9e63ef28678b56e3ceecc10bda7c00503ea947398b888c604051611d20939291906158b5565b81810182811215600083121514610fb257600080fd5b600081612c3d575060006108a3565b60008213612c4a57600080fd5b6000612c598461ffff166112a9565b90506000612c67828561335e565b9050600482606001516005811115612c7b57fe5b1415612ca957612ca261034d610961888861ffff16612c9986611598565b879291906138b9565b9250612ccd565b612cca61034d6109618761ffff1689612cc1866111ce565b87929190613961565b92505b50509392505050565b612cde614b09565b6000612ce86139f7565b6000858152602082815260408083208715158452825291829020825160a08101845281546001600160a01b038116825260ff600160a01b82048116151594830194909452600160b01b81048416600a0a9482019490945293945092916060830191600160a81b909104166005811115612d5d57fe5b81529154600160b81b900468ffffffffffffffffff16602090920191909152949350505050565b600080610fb26015612a59565b6000806000612d9e612e9d565b6000958652602090815260408087209587529490525050509020546501000000000081046001600160801b031691600160a81b90910460ff1690565b6000806000806000612deb86613a04565b909250905060006001600160a01b038316612e105750600090506402540be400612e92565b826001600160a01b0316631ee108336040518163ffffffff1660e01b8152600401602060405180830381600087803b158015612e4b57600080fd5b505af1158015612e5f573d6000803e3d6000fd5b505050506040513d601f19601f82011682018060405250810190612e839190614fa2565b905060008113612e9257600080fd5b969195509350915050565b600080610fb26008612a59565b6000806000806000612eba613a3b565b6001600160a01b0388166000908152602082815260408083208a8452909152902080546001600160501b0381169650600160501b900463ffffffff1694509091508315612f23578054612f1c90600160701b900466ffffffffffffff16613a48565b9250612f38565b8054600160701b900466ffffffffffffff1692505b54600160a81b9004600a90810b900b97939650919450925050565b6000811215612f6157600080fd5b612f7660008361ffff16836000806000613a56565b8161ffff167fd3625f7b5926828151efe19f7ae655488287357d99ebe67e5fb20522ca739c0b82604051610aec91906152fd565b80820382811315600083121514610fb257600080fd5b600080612fd08761ffff166112bc565b9050806040015160001415612fef57612fec8761ffff166112a9565b90505b60405163e937711160e01b815261307a906001600160a01b0388169063e93771119061302390899089908990600401615226565b60206040518083038186803b15801561303b57600080fd5b505afa15801561304f573d6000803e3d6000fd5b505050506040513d601f19601f820116820180604052508101906130739190614fa2565b8290613b9d565b9150505b95945050505050565b6000697fffffffffffffffffff1982128015906130ae5750697fffffffffffffffffff8213155b6111dd57600080fd5b600080610fb26019612a59565b6000826130d357506000610fb2565b828202828482816130e057fe5b04146108a357600080fd5b60008082116130f957600080fd5b81838161310257fe5b049392505050565b60006131146111e5565b6001600160a01b038087166000908152602092835260408082208a519093168252919092529020805490915063ffffffff1683811480613152575080155b61316e5760405162461bcd60e51b815260040161032690615352565b815461014088015151600160201b82046001600160501b0390811692600160701b9004169061ffff888116911614156131e8576131ab8286612c18565b91506131b9611137836111ce565b84546001600160501b0391909116600160201b026dffffffffffffffffffff0000000019909116178455613242565b6101408901516020015161ffff8881169116141561012c5761320a8186612c18565b9050613218611137826111ce565b84546001600160501b0391909116600160701b0269ffffffffffffffffffff60701b199091161784555b8115801561324e575080155b1561326357835463ffffffff191684556123ff565b826123ff5761327186613bcd565b845463ffffffff191663ffffffff91909116178455505050505050505050565b6000856040015161ffff168561ffff1614156132ac57600080fd5b826132b95750600061307e565b4284116132f65760008312156132ce57600080fd5b60006132df8661ffff168642611428565b90506132ee61096182866115a6565b91505061307e565b613309858585858a610100015142613be0565b9050600083138015613319575080155b15613335576101608601516133329061096190856115a6565b90505b600083121561307e576000811361307e5760405162461bcd60e51b815260040161032690615389565b60006305f5e10083604001511415613377575080610fb2565b6108a36305f5e1006111238560400151856129c490919063ffffffff16565b604080516001600160a01b0384811660248084019190915283518084039091018152604490920183526020820180516001600160e01b03166001600160e01b0319861617815292518251600094859485948a16939092909182918083835b602083106134135780518252601f1990920191602091820191016133f4565b6001836020036101000a038019825116818451168082178552505050505050905001915050600060405180830381855afa9150503d8060008114613473576040519150601f19603f3d011682016040523d82523d6000602084013e613478565b606091505b50915091508161348757600080fd5b80806020019051602081101561349c57600080fd5b50519695505050505050565b6134b0613cef565b54825160405163e8eda9df60e01b81526001600160a01b039092169163e8eda9df916134e591859030906000906004016151d1565b600060405180830381600087803b1580156134ff57600080fd5b505af1158015613513573d6000803e3d6000fd5b505050505050565b815160405163140e25ad60e31b81526000916001600160a01b03169063a0712d689061354b9085906004016152fd565b602060405180830381600087803b15801561356557600080fd5b505af1158015613579573d6000803e3d6000fd5b505050506040513d601f19601f8201168201806040525081019061359d9190614fa2565b905080156113885760405162461bcd60e51b815260040161032690615421565b81600001516001600160a01b0316631249c58b826040518263ffffffff1660e01b81526004016000604051808303818588803b1580156135fc57600080fd5b505af1158015613610573d6000803e3d6000fd5b50505050505050565b600082821115611e56576040805162461bcd60e51b815260206004820152601e60248201527f536166654d6174683a207375627472616374696f6e206f766572666c6f770000604482015290519081900360640190fd5b600080610fb26014612a59565b613685614b30565b600080600061280685613cfc565b61369b614b30565b6000806136a88585612d91565b9150915081600014156136c6576136be85613cfc565b919350909150505b6040805160608101825260008152602081019390935260ff909116600a0a90820152905092915050565b6000816136ff575060006115d7565b60008061370c8785613d7f565b91509150600061372b8760400151886000015188858c60000151612fc0565b9050613749613739846115ec565b610160890151611ad190846115a6565b98975050505050505050565b600061376084613dd8565b156108a357600061376f6111e5565b6001600160a01b038086166000908152602092835260408082208951909316825291909252808220908701519092506137ab9061ffff1661283c565b82549091506001600160501b03600160201b8204811691600160701b9004168115613801576137fe6137f7848a61014001516000600281106137e957fe5b60200201518b518a87613e01565b8690612c18565b94505b80156138315761382e6137f7848a610140015160016002811061382057fe5b60200201518b518a86613e01565b94505b505050509392505050565b60006108a361384f84633b9aca006129c4565b83612a12565b60008061389d886040518060a001604052808a6001600160a01b031681526020018a6001600160a01b0316815260200189815260200188815260200160008152508686613eb2565b90999098509650505050505050565b600080610fb26010612a59565b806005856060015160058111156138cc57fe5b14156138f15760006138dd846112bc565b90506138ed816000015184614127565b9250505b600082131561391d5760006139078686856141ad565b9050856020015115613917578091505b506115d7565b60038560600151600581111561392f57fe5b141561394c576139478461394284611598565b6142a0565b6115d7565b84516115d7908561395c85611598565b6142d6565b60008060028660600151600581111561397657fe5b141561398e5761398786858561434d565b90506139eb565b6000613999866112bc565b90506005876060015160058111156139ad57fe5b14156139c5576139be81868661440a565b91506139e9565b6001876060015160058111156139d757fe5b141561012c576139be878287876144bb565b505b61121d610961826115ec565b600080610fb26007612a59565b6000806000613a116145b9565b600094855260205250506040909120546001600160a01b03811692600160a01b90910460ff169150565b600080610fb26006612a59565b600881901c60ff9091161b90565b6000613a60613a3b565b6001600160a01b0388166000908152602082815260408083208a845290915290209091506a7fffffffffffffffffffff198612801590613aab57506a7fffffffffffffffffffff8613155b613ab457600080fd5b60008512158015613acc57506001600160501b038513155b613ad557600080fd5b83613b155766ffffffffffffff831115613aee57600080fd5b805466ffffffffffffff60701b1916600160701b66ffffffffffffff851602178155613b2f565b8054600160501b900463ffffffff168414613b2f57600080fd5b8054600a9690960b6affffffffffffffffffffff16600160a81b026001600160a81b036001600160501b039096166001600160501b031963ffffffff909616600160501b0263ffffffff60501b19909816979097179490941695909517939093169190911790925550505050565b60006305f5e10083604001511415613bb6575080610fb2565b60408301516108a390611123846305f5e1006129c4565b600063ffffffff8211156111dd57600080fd5b600080613bef888886866145c6565b90506000613bfc87614635565b90506affffffffffffffffffffff8110613c1557600080fd5b600060788763ffffffff16901b609883901b60f085901b60f860008c13613c3d576001613c40565b60005b6005811115613c4b57fe5b60ff16901b17171760001b905073__TradingAction_________________________63e50f349e8b836040518363ffffffff1660e01b8152600401613c919291906158a1565b60206040518083038186803b158015613ca957600080fd5b505af4158015613cbd573d6000803e3d6000fd5b505050506040513d601f19601f82011682018060405250810190613ce19190614fa2565b9a9950505050505050505050565b600080610fb26013612a59565b6000806000806000613d0d86613a04565b909250905060006001600160a01b038316613d325750600090506402540be400612e92565b826001600160a01b031663b2fffb046040518163ffffffff1660e01b815260040160206040518083038186803b158015613d6b57600080fd5b505afa158015612e5f573d6000803e3d6000fd5b600080600084606001511115610b7c57613dae8460600151611c168660800151866130c490919063ffffffff16565b9150613dcf8460600151611c168660a00151866130c490919063ffffffff16565b90509250929050565b6101408101515160009061ffff16151580610fb257505061014001516020015161ffff16151590565b600080613e0c6115df565b6001600160a01b038616600090815260209182526040808220878352835280822061ffff8a16835290925290812080549092506001600160501b0380821692600160501b9092041690613e66611c1c83611c1689876130c4565b90506000613e778a61ffff1661283c565b90506000613e858c8361299f565b9050613ea2816111238e60000151866129c490919063ffffffff16565b9c9b505050505050505050505050565b600080600080613ec188614656565b9150915060008088608001511215613f3657600483606001516005811115613ee557fe5b1415613f0257613efb61034d8960800151611598565b9050613f36565b6000613f236109618a608001518c6101600151611d3690919063ffffffff16565b9050613f3261034d8483611d61565b9150505b60408801516000901561400e576000613f4f8430611d9d565b90508a600001516001600160a01b03166344f051088b600001518c602001518d604001518e60600151888f8f6040518863ffffffff1660e01b8152600401613f9d9796959493929190615170565b602060405180830381600087803b158015613fb757600080fd5b505af1158015613fcb573d6000803e3d6000fd5b505050506040513d601f19601f82011682018060405250810190613fef9190614fa2565b95506000613ffd8530611d9d565b90506140098183611e47565b925050505b818110156140a95780820360038460600151600581111561402b57fe5b141561406957348111156140515760405162461bcd60e51b815260040161032690615486565b6140618a600001518234036142a0565b8291506140a7565b600061408e8b600001518d6040015161ffff16614085856115ec565b889291906138b9565b90506140a361409c826111ce565b849061172a565b9250505b505b818110156140c95760405162461bcd60e51b815260040161032690615486565b60006004856060015160058111156140dd57fe5b14156140f3576140ec826115ec565b905061410d565b811561410d5760408b015161410a90869084611e5c565b90505b6141178582613b9d565b9650505050505094509492505050565b60008161413657506000610fb2565b6000614141846146af565b9050600061414e84614635565b9050816b019d971e4fe8401e74000001600160ff1b038161416b57fe5b0581131561417857600080fd5b6b033b2e3c9fd0803ce80000006b019d971e4fe8401e7400000083830201056000851361307e576141a881611598565b61121d565b60008080806005876060015160058111156141c457fe5b146141d6576370a0823160e01b6141df565b630ed1279f60e11b5b90508660200151156141fb5786516141f8903083613396565b92505b865161420890878761473a565b86602001518061421c575060008760800151115b1561423157865161422e903083613396565b91505b60808701511561426c57600061424f8861424a856115ec565b613b9d565b905061425e88608001516115ec565b81131561426a57600080fd5b505b86602001511561428d57614283611c1c8385613619565b93505050506108a3565b614283856115ec565b5050509392505050565b6040516001600160a01b0383169082156108fc029083906000818181858888f19350505050158015611388573d6000803e3d6000fd5b826001600160a01b031663a9059cbb83836040518363ffffffff1660e01b815260040180836001600160a01b0316815260200182815260200192505050600060405180830381600087803b15801561432d57600080fd5b505af1158015614341573d6000803e3d6000fd5b50505050611388614792565b825160405163db006a7560e01b8152600091479183916001600160a01b03169063db006a75906143819087906004016152fd565b602060405180830381600087803b15801561439b57600080fd5b505af11580156143af573d6000803e3d6000fd5b505050506040513d601f19601f820116820180604052508101906143d39190614fa2565b905080156143f35760405162461bcd60e51b81526004016103269061543f565b476143fe8184613619565b935061429686856142a0565b600061442561034d8560000151614420856115ec565b614127565b905061442f613cef565b548451604051631a4ca37b60e21b81526001600160a01b03909216916369328dec9161446191859088906004016151ae565b602060405180830381600087803b15801561447b57600080fd5b505af115801561448f573d6000803e3d6000fd5b505050506040513d601f19601f820116820180604052508101906144b39190614fa2565b509392505050565b825160009081906144d490306370a0823160e01b613396565b9050600086600001516001600160a01b031663db006a75856040518263ffffffff1660e01b815260040161450891906152fd565b602060405180830381600087803b15801561452257600080fd5b505af1158015614536573d6000803e3d6000fd5b505050506040513d601f19601f8201168201806040525081019061455a9190614fa2565b9050801561457a5760405162461bcd60e51b81526004016103269061543f565b855160009061459190306370a0823160e01b613396565b905061459d8184613619565b93506145ae876000015187866142d6565b505050949350505050565b600080610fb2600f612a59565b60008060006145d88761ffff16614803565b90506145e88160ff168786614819565b90935091508483111561460d5760405162461bcd60e51b81526004016103269061550c565b811561462b5760405162461bcd60e51b81526004016103269061550c565b5050949350505050565b60008082121561464f5761464882611598565b90506111e0565b50806111e0565b61465e614b09565b614666614b09565b614677836040015161ffff166112a9565b915060048260600151600581111561468b57fe5b146146a6576146a1836040015161ffff166112bc565b6146a8565b815b9050915091565b6000610fb26146bc613cef565b5460405163d15e005360e01b81526001600160a01b039091169063d15e0053906146ea90869060040161515c565b60206040518083038186803b15801561470257600080fd5b505afa158015614716573d6000803e3d6000fd5b505050506040513d601f19601f82011682018060405250810190611c1c9190614fa2565b604080516323b872dd60e01b81526001600160a01b038481166004830152306024830152604482018490529151918516916323b872dd9160648082019260009290919082900301818387803b15801561432d57600080fd5b600061479c614b89565b3d80156147b057602081146147b957600080fd5b600192506147c4565b60206000833e815192505b50816147ff576040805162461bcd60e51b8152602060048201526005602482015264045524332360dc1b604482015290519081900360640190fd5b5050565b60008061480f836148e1565b60ff169392505050565b6000806000851161483c5760405162461bcd60e51b8152600401610326906154b6565b600785111561485d5760405162461bcd60e51b8152600401610326906155ba565b6000614868846148fe565b905060015b8681116148c05760006148896148828361491c565b84906149c0565b9050868114156148a157509250600091506148d99050565b868111156148b757509250600191506148d99050565b5060010161486d565b5060405162461bcd60e51b815260040161032690615750565b935093915050565b6000806148ec614a1a565b60009384526020525050604090205490565b60006276a70082101561491057600080fd5b506276a7008106900390565b6000816001141561493157506276a7006111e0565b8160021415614944575062ed4e006111e0565b816003141561495857506301da9c006111e0565b816004141561496c57506303b538006111e0565b816005141561498057506309450c006111e0565b8160061415614994575063128a18006111e0565b81600714156149a8575063251430006111e0565b60405162461bcd60e51b8152600401610326906154e5565b6000828201838110156108a3576040805162461bcd60e51b815260206004820152601b60248201527f536166654d6174683a206164646974696f6e206f766572666c6f770000000000604482015290519081900360640190fd5b600080610fb26009612a59565b60405180604001604052806002906020820280368337509192915050565b6040518060e001604052806000815260200160008152602001600015158152602001600081526020016000815260200160008152602001600081525090565b604051806101a0016040528060006001600160a01b03168152602001600061ffff168152602001600061ffff16815260200160008152602001600081526020016000815260200160008152602001600081526020016000815260200160008152602001614aef614a27565b8152602001614afc614b30565b8152602001600081525090565b6040805160a081018252600080825260208201819052918101829052906060820190614afc565b604051806060016040528060006001600160a01b0316815260200160008152602001600081525090565b6040518060a0016040528060008152602001600081526020016000815260200160008152602001600081525090565b60405180602001604052806001906020820280368337509192915050565b80356001600160a01b03811681146111e057600080fd5b8060408101831015610fb257600080fd5b60008083601f840112614be0578182fd5b50813567ffffffffffffffff811115614bf7578182fd5b602083019150836020828501011115610b7c57600080fd5b600060208284031215614c20578081fd5b6108a382614ba7565b60008060408385031215614c3b578081fd5b614c4483614ba7565b915060208301358015158114614c58578182fd5b809150509250929050565b60008060008385036101c0811215614c79578182fd5b614c8285614ba7565b9350610180601f1982011215614c96578182fd5b506020840191506101a0840135614cac81615bb1565b809150509250925092565b60008060408385031215614cc9578182fd5b614cd283614ba7565b91506020830135614c5881615b7d565b600080600060608486031215614cf6578283fd5b614cff84614ba7565b92506020840135614d0f81615b7d565b929592945050506040919091013590565b600080600080600080600060c0888a031215614d3a578283fd5b614d4388614ba7565b96506020880135614d5381615b7d565b955060408801359450606088013593506080880135614d7181615b90565b925060a088013567ffffffffffffffff811115614d8c578283fd5b614d988a828b01614bcf565b989b979a50959850939692959293505050565b600080600060608486031215614dbf578283fd5b614dc884614ba7565b92506020840135614dd881615b7d565b91506040840135614cac81615bb1565b60008060408385031215614dfa578182fd5b614e0383614ba7565b946020939093013593505050565b60008060008060006101008688031215614e29578283fd5b614e3286614ba7565b945060208601359350614e488760408801614bbe565b9250614e578760808801614bbe565b9150614e668760c08801614bbe565b90509295509295909350565b60008060408385031215614e84578182fd5b614e8d83614ba7565b91506020830135614c5881615bb1565b60008060008060008060a08789031215614eb5578384fd5b614ebe87614ba7565b95506020870135614ece81615bb1565b94506040870135935060608701359250608087013567ffffffffffffffff811115614ef7578283fd5b614f0389828a01614bcf565b979a9699509497509295939492505050565b600060208284031215614f26578081fd5b815167ffffffffffffffff80821115614f3d578283fd5b818401915084601f830112614f50578283fd5b815181811115614f5c57fe5b604051601f8201601f191681016020018381118282101715614f7a57fe5b604052818152838201602001871015614f91578485fd5b61121d826020830160208701615941565b600060208284031215614fb3578081fd5b5051919050565b600060208284031215614fcb578081fd5b81356108a381615b7d565b600060208284031215614fe7578081fd5b5035919050565b60008060008060608587031215615003578182fd5b8435935060208501359250604085013567ffffffffffffffff811115615027578283fd5b61503387828801614bcf565b95989497509550505050565b600060208284031215615050578081fd5b81356108a381615b90565b60006020828403121561506c578081fd5b81356108a381615ba2565b600080600080600060a0868803121561508e578283fd5b855161509981615bb1565b8095505060208601519350604086015192506060860151915060808601516150c081615bb1565b809150509295509295909350565b6001600160a01b03169052565b8060005b600281101561510257815161ffff168452602093840193909101906001016150df565b50505050565b60008284528282602086013780602084860101526020601f19601f85011685010190509392505050565b80516001600160a01b0316825260208082015190830152604090810151910152565b61ffff169052565b6001600160a01b0391909116815260200190565b600060018060a01b03808a16835280891660208401525086604083015285606083015284608083015260c060a083015261129c60c083018486615108565b6001600160a01b0393841681526020810192909252909116604082015260600190565b6001600160a01b03948516815260208101939093529216604082015261ffff909116606082015260800190565b600060018060a01b03861682528460208301526060604083015261121d606083018486615108565b6001600160a01b039390931683526020830191909152604082015260600190565b600060018060a01b038716825285602083015284604083015260806060830152610a6d608083018486615108565b60408101818360005b600281101561529d57815183526020928301929091019060010161527e565b50505092915050565b901515815260200190565b91151582526001600160501b0316602082015260400190565b60006020825282518060208401526152e9816040850160208701615941565b601f01601f19169190910160400192915050565b90815260200190565b918252602082015260400190565b93845260208401929092526040830152606082015260800190565b948552602085019390935260408401919091526060830152608082015260a00190565b6020808252601a908201527f496e76616c6964205365636f6e64617279204d61747572697479000000000000604082015260600190565b6020808252600d908201526c109bdc9c9bddc811985a5b1959609a1b604082015260600190565b60208082526011908201527052656465656d20616c6c20746f6b656e7360781b604082015260600190565b60208082526006908201526514185d5cd95960d21b604082015260600190565b6020808252600c908201526b155b985d5d1a1bdc9a5e995960a21b604082015260600190565b602080825260049082015263135a5b9d60e21b604082015260600190565b60208082526006908201526552656465656d60d01b604082015260600190565b6020808252600d908201526c556e7061696420426f72726f7760981b604082015260600190565b602080825260169082015275125b9cdd59999a58da595b9d081c995c185e5b595b9d60521b604082015260600190565b60208082526015908201527410d1ce881b9bc81b585c9ad95d1cc81b1a5cdd1959605a1b604082015260600190565b6020808252600d908201526c092dcecc2d8d2c840d2dcc8caf609b1b604082015260600190565b60208082526010908201526f496e76616c6964204d6174757269747960801b604082015260600190565b6020808252601d908201527f496e73756666696369656e74205365636f6e6461727920426f72726f77000000604082015260600190565b6020808252600d908201526c43616e6e6f7420536574746c6560981b604082015260600190565b6020808252600c908201526b4d617820436170616369747960a01b604082015260600190565b60208082526016908201527510d1ce881b585c9ad95d081a5b99195e08189bdd5b9960521b604082015260600190565b60208082526010908201526f496e76616c69642043757272656e637960801b604082015260600190565b60208082526015908201527410d85b9b9bdd0814995cd95d0814db985c1cda1bdd605a1b604082015260600190565b6020808252818101527f4f776e61626c653a2063616c6c6572206973206e6f7420746865206f776e6572604082015260600190565b6020808252600d908201526c125b8814d95d1d1b195b595b9d609a1b604082015260600190565b60208082526017908201527f496e73756666696369656e7420436f6c6c61746572616c000000000000000000604082015260600190565b6020808252600c908201526b496e76616c6964207261746560a01b604082015260600190565b6020808252600e908201526d1499595b9d1c985b9d0818d85b1b60921b604082015260600190565b602080825260129082015271496e73756666696369656e7420526570617960701b604082015260600190565b60208082526013908201527210d1ce881b9bc81b585c9ad95d08199bdd5b99606a1b604082015260600190565b6000610200820190506157918284516150ce565b60208301516157a36020840182615154565b5060408301516157b66040840182615154565b50606083015160608301526080830151608083015260a083015160a083015260c083015160c083015260e083015160e083015261010080840151818401525061012080840151818401525061014080840151615814828501826150db565b505061016083015161018061582b81850183615132565b808501516101e0850152505092915050565b600060e0820190508251825260208301516020830152604083015115156040830152606083015160608301526080830151608083015260a083015160a083015260c083015160c083015292915050565b6001600160801b0391909116815260200190565b61ffff929092168252602082015260400190565b9283526020830191909152604082015260600190565b6001600160501b0391909116815260200190565b81816000805b60028082106158f45750613513565b84356158ff81615b7d565b845461ffff6008860281811b801990931693909116901b161784556020949094019390910190601e82111561593957600091506001830192505b6001016158e5565b60005b8381101561595c578181015183820152602001615944565b838111156151025750506000910152565b60008135610fb281615b7d565b60008135610fb281615b90565b60008135610fb281615ba2565b813561599f81615b7d565b6159a98183615a79565b506159bf6159b96020840161596d565b82615b1f565b6159d46159ce6040840161597a565b82615b3b565b6159e96159e36060840161596d565b82615b5f565b6159fe6159f860808401615987565b82615a8c565b615a13615a0d60a08401615987565b82615aa9565b615a28615a2260c08401615987565b82615ac6565b615a3d615a3760e08401615987565b82615ae3565b615a53615a4d610100840161596d565b82615b00565b615a646101208301600183016158df565b6147ff615a74610160840161596d565b600283015b61ffff821661ffff198254161781555050565b805460ff60501b191660509290921b60ff60501b16919091179055565b805460ff60581b191660589290921b60ff60581b16919091179055565b805460ff60601b191660609290921b60ff60601b16919091179055565b805460ff60681b191660689290921b60ff60681b16919091179055565b805461ffff60701b191660709290921b61ffff60701b16919091179055565b805463ffff00008360101b1663ffff0000198216178255505050565b805467ffffffff000000008360201b1667ffffffff00000000198216178255505050565b805461ffff60401b8360401b1661ffff60401b198216178255505050565b61ffff81168114615b8d57600080fd5b50565b63ffffffff81168114615b8d57600080fd5b60ff81168114615b8d57600080fd5b6001600160501b0381168114615b8d57600080fdfea264697066735822122035ff5f2db2d6d937f16278936e2805784814d3780e398877fff9164ec0b125f964736f6c63430007060033","bytecodeSha1":"eb2f8d363b4f2ee02fcc6711d439f91696d48593","compiler":{"evm_version":"istanbul","optimizer":{"enabled":true,"runs":200},"version":"0.7.6+commit.7338295f"},"contractName":"VaultAction","deployedBytecode":"608060405234801561001057600080fd5b506004361061012c5760003560e01c806382463367116100ad578063c4c96dae11610071578063c4c96dae14610289578063d04c16ac14610291578063d6ddeb9a146102a4578063de1eb9a3146102b7578063ee01436b146102d75761012c565b806382463367146102315780638c9e4465146102395780638da5cb5b1461024c578063a14db57c14610254578063b67138aa146102765761012c565b806331572281116100f457806331572281146101aa57806350e4f223146101ca57806356f428c4146101ea57806367515776146101fd5780636c346c091461021e5761012c565b806301ac8852146101315780630bc08cdc1461015a57806324a3d6221461016d578063291afdf314610182578063295e6b7f14610197575b600080fd5b61014461013f366004614fd6565b6102ea565b6040516101519190615275565b60405180910390f35b610144610168366004614e11565b610374565b61017561052b565b604051610151919061515c565b610195610190366004614dab565b61053a565b005b6101956101a5366004614de8565b610656565b6101bd6101b8366004614de8565b610891565b604051610151919061583d565b6101dd6101d8366004614d20565b6108aa565b60405161015191906152ca565b6101956101f8366004614c29565b610a78565b61021061020b366004614cb7565b610af8565b604051610151929190615306565b61021061022c366004614de8565b610b48565b610175610b83565b610195610247366004614c63565b610b92565b610175610c4a565b610267610262366004614ce2565b610c60565b604051610151939291906158b5565b610195610284366004614e72565b610cc6565b610175610d65565b61019561029f366004614fee565b610d7d565b6101956102b2366004614e9d565b610eef565b6102ca6102c5366004614c0f565b610fa1565b604051610151919061577d565b6102106102e5366004614fee565b610fb8565b6102f2614a27565b60006102fd3361100a565b905061030a816001611039565b61032f5760405162461bcd60e51b8152600401610326906153db565b60405180910390fd5b6101408101516103529061034d9060005b602002015183908661104e565b6111ce565b82526101408101516103699061034d906001610340565b602083015250919050565b61037c614a27565b60006103873361100a565b9050610394816001611039565b6103b05760405162461bcd60e51b8152600401610326906153db565b610140810151805161ffff161515806103d05750602081015161ffff1615155b6103d957600080fd5b60006103e36111e5565b6001600160a01b03808b1660009081526020928352604080822087519093168252919092529020805490915063ffffffff1661041d614a27565b811580159061042b57508982105b801561043d575061043d856002611039565b801561045257506001600160a01b038b163314155b156104c657610494858c866000602002015186548690600160201b90046001600160501b03168c60005b60200201602081019061048f919061503f565b6111f2565b8152602084015183546104c09187918e91908690600160701b90046001600160501b03168c600161047c565b60208201525b835181516104f39187918e91908e908e358e60005b6020020160208101906104ee919061503f565b611227565b8652602084810151828201516105179288928f9290918f91908f01358e60016104db565b602087015250939998505050505050505050565b6002546001600160a01b031681565b600054600160201b90046001600160a01b0316331461056b5760405162461bcd60e51b815260040161032690615643565b60006105768461100a565b905060006105878461ffff166112a9565b905060006105988561ffff166112bc565b905081602001511580156105ae57508060200151155b6105b757600080fd5b6101408301515161ffff868116911614806105e157506101408301516020015161ffff8681169116145b6105fd5760405162461bcd60e51b8152600401610326906155ea565b6106088686866112cf565b8461ffff16866001600160a01b03167f8f868f60e49b80b48ee5de8b7bc703cfc4b5c826a05d3ea1b00cf4159c155a908660405161064691906158cb565b60405180910390a3505050505050565b6002600a5414156106795760405162461bcd60e51b8152600401610326906156fc565b6002600a5560006106898361100a565b905061069781336040611323565b60006106a3848461138d565b90504283111580156106b757506040810151155b6106d35760405162461bcd60e51b81526004016103269061556d565b60006106e8836040015161ffff168542611428565b9050600061070661034d6106ff8560200151611598565b84906115a6565b905060006107126115df565b6001600160a01b038816600090815260209182526040808220898352909252206101408601515190915061ffff1615610785576101408501515161ffff166000908152602082905260409020546001600160501b0316156107855760405162461bcd60e51b81526004016103269061545f565b6101408501516020015161ffff16156107dc5761014085015160209081015161ffff1660009081529082905260409020546001600160501b0316156107dc5760405162461bcd60e51b81526004016103269061545f565b818460800151101561085a5760a08401511561080a5760405162461bcd60e51b8152600401610326906153b0565b600061081b856080015184036115ec565b9050600061083661034d88600001518960400151858c611602565b6080870151909150610848908261172a565b6080870152610857868a61173c565b50505b6108758786604001516108708760200151611598565b6118a6565b5061088384868589426119ac565b50506001600a555050505050565b610899614a45565b6108a3838361138d565b9392505050565b6060846108b657610a6d565b60006108c13361100a565b90506108ce816001611039565b6108ea5760405162461bcd60e51b8152600401610326906153db565b60006108fa828b8b8b8b8b611b72565b509050600061090c8a61ffff166112a9565b905060008060048360600151600581111561092357fe5b1461093a576109358c61ffff166112bc565b61093c565b825b9050600061096d61034d610966610961888a6101600151611d3690919063ffffffff16565b611598565b8490611d61565b9050600061097b8330611d9d565b8351604051637efbe0e760e11b8152919250339163fdf7c1ce916109a79186908f908f906004016151fe565b600060405180830381600087803b1580156109c157600080fd5b505af11580156109d5573d6000803e3d6000fd5b505050506040513d6000823e601f3d908101601f191682016040526109fd9190810190614f15565b97506000610a0b8430611d9d565b9050610a178183611e47565b945082851015610a395760405162461bcd60e51b815260040161032690615724565b5060049250610a46915050565b82606001516005811115610a5657fe5b14610a6857610a66828c83611e5c565b505b505050505b979650505050505050565b600054600160201b90046001600160a01b03163314610aa95760405162461bcd60e51b815260040161032690615643565b610ab38282611f43565b816001600160a01b03167f7c51c6aa77346c54cb051d9e792f9b7bde5c28a9b57e6fb2d2dd727b38438ca982604051610aec91906152a6565b60405180910390a25050565b6000806000610b05611fa3565b6001600160a01b0390951660009081526020958652604080822061ffff9096168252949095525050509020546001600160501b03600160501b8204811692911690565b6000806000610b5685611fb0565b90506000610b6882600001518661138d565b9050610b75828287611fd4565b9350935050505b9250929050565b6001546001600160a01b031681565b600054600160201b90046001600160a01b03163314610bc35760405162461bcd60e51b815260040161032690615643565b610bcd838361208d565b610be783610be16040850160208601614fba565b836112cf565b6000600180610bf96020860186614fba565b1661ffff16149050836001600160a01b03167fb441d7ca09abc712b4504256717707ce40e8d43895266b46abf9cd58619c07dc8284604051610c3c9291906152b1565b60405180910390a250505050565b600054600160201b90046001600160a01b031681565b600080600080610c6e6115df565b6001600160a01b0390971660009081526020978852604080822096825295885285812061ffff9097168152959096525050509020546001600160501b0380821693600160501b830482169350600160a01b9092041690565b600054600160201b90046001600160a01b03163314610cf75760405162461bcd60e51b815260040161032690615643565b6000610d028361100a565b9050610d13838260400151846112cf565b6001600160a01b0383167fb441d7ca09abc712b4504256717707ce40e8d43895266b46abf9cd58619c07dc610d49836001611039565b84604051610d589291906152b1565b60405180910390a2505050565b73__$7ac922d04bd7a1b42c7f6e5f1dd89a70af$__90565b6002600a541415610da05760405162461bcd60e51b8152600401610326906156fc565b6002600a556000610db03361100a565b9050610dbd816001611039565b610dd95760405162461bcd60e51b8152600401610326906153db565b610de4816080611039565b15610def576001600a555b6000610dfb338761138d565b90506000610e1d8360000151610e10886115ec565b8591908a60008a8a61240a565b6080830151909150610e2f9087611e47565b608083015260a0820151610e43908261172a565b60a0830152610e52823361173c565b6000610e75833385606001518660200151886124b390949392919063ffffffff16565b509050808460a001511315610e9c5760405162461bcd60e51b81526004016103269061569f565b87336001600160a01b03167fbba43506b1f3723add796bf603adde56bc018392a95775b9f76c31213b4161bb8985604051610ed8929190615306565b60405180910390a350506001600a55505050505050565b600054600160201b90046001600160a01b03163314610f205760405162461bcd60e51b815260040161032690615643565b6000610f2b8761100a565b9050610f3c878260400151886112cf565b610f498186868686612533565b50506001600160a01b0387167fb441d7ca09abc712b4504256717707ce40e8d43895266b46abf9cd58619c07dc610f81836001611039565b88604051610f909291906152b1565b60405180910390a250505050505050565b610fa9614a84565b610fb282611fb0565b92915050565b6000806000610fc63361100a565b9050610fd3816001611039565b610fef5760405162461bcd60e51b8152600401610326906153db565b610ffc8188888888612533565b925092505094509492505050565b611012614a84565b61101b82612657565b905061102e816040015161ffff166127f0565b610160820152919050565b60209190910151811661ffff90811691161490565b600061ffff8316611061575060006108a3565b600061106b6115df565b85516001600160a01b0316600090815260209182526040808220868352835280822061ffff88168352909252208054909150600160f01b900460ff16156110c45760405162461bcd60e51b815260040161032690615614565b805460408601516001600160501b03909116906000906110e79061ffff1661283c565b905060006110f88761ffff1661283c565b90506000611106838361299f565b9050611129816111238560000151876129c490919063ffffffff16565b90612a12565b955061113c611137876111ce565b612a43565b855460ff60f01b196001600160501b0392909216600160a01b0269ffffffffffffffffffff60a01b199091161716600160f01b1785558851604051889161ffff8b16916001600160a01b03909116907f744b6e0d7db0666a7c17a4868d11d5f7f909a7b04d458b5eace97646ba7a0ee8906111ba908b908790615306565b60405180910390a450505050509392505050565b6000808212156111dd57600080fd5b50805b919050565b600080610fb2601a612a59565b600061ffff85161580159061120657508215155b1561121d57611219878787878787611b72565b5090505b9695505050505050565b600061ffff86161580611238575082155b8015611242575083155b1561124f57506000610a6d565b600061125f898989898888612a72565b50905061126c8186612c18565b9050600081121561128f5760405162461bcd60e51b815260040161032690615536565b885161129c908883612c2e565b9998505050505050505050565b6112b1614b09565b610fb2826000612cd6565b6112c4614b09565b610fb2826001612cd6565b60006112d9611fa3565b6001600160a01b0390941660009081526020948552604080822061ffff90951682529390945250912080546001600160501b039092166001600160501b0319909216919091179055565b61132d8382611039565b156113605782516001600160a01b0316331461135b5760405162461bcd60e51b8152600401610326906153fb565b611388565b6001600160a01b03821633146113885760405162461bcd60e51b8152600401610326906153fb565b505050565b611395614a45565b600061139f612d84565b6001600160a01b03909416600090815260209485526040808220858352865280822094845284546001600160501b038082169093039685019690965260ff600160f01b870416151590840152600160501b8086048216608085015260019094015480821660a0850152600160a01b909504166060830152509104600990810b900b60c082015290565b611430614b30565b60008061143d8686612d91565b91509150816000141561156d57600061145587612dda565b91945090925090506001600160a01b0381161561156b576000611476612e9d565b90508560001080156114885750858711155b8015611499575064ffffffffff8611155b6114a257600080fd5b8360001280156114b957506001600160801b038413155b6114c257600080fd5b6000888152602082815260408083208a845290915290819020805464ffffffffff191664ffffffffff89161774ffffffffffffffffffffffffffffffff00000000001916650100000000006001600160801b038816021760ff60a81b1916600160a81b60ff871602178155905188908a907f0fdfa6885701e2f1f42e4187b9231cf81c1fe23671ef64fa46f34ddb56c1dc189061156090899061588d565b60405180910390a350505b505b6040805160608101825260008152602081019390935260ff909116600a0a9082015290509392505050565b6000610fb2600019836129c4565b6000806115d7846020015161112386604001516115d16402540be400886129c490919063ffffffff16565b906129c4565b949350505050565b600080610fb26018612a59565b60006001600160ff1b038211156111dd57600080fd5b600061160f856000611f43565b846001600160a01b03167f7c51c6aa77346c54cb051d9e792f9b7bde5c28a9b57e6fb2d2dd727b38438ca9600060405161164991906152a6565b60405180910390a2818461ffff16866001600160a01b03167f823b641d46550301006f807a26587634f15bd13749efdc8859734377d5304a3b8660405161169091906152fd565b60405180910390a460006116a960008661ffff16612eaa565b50505090508084136116c9576116c185858303612f53565b839150611721565b6116d4856000612f53565b828561ffff16876001600160a01b03167f3a717b6924e3ad05b8c7609a2401472af90869b52cc3c9ca69b50100b4be631684880360405161171591906152fd565b60405180910390a48091505b50949350505050565b6000828201838110156108a357600080fd5b6000611746612d84565b6001600160a01b038316600090815260208281526040808320875184529091529081902090850151919250901561177c57600080fd5b61178f61113761034d8660200151611598565b81546001600160501b0319166001600160501b039190911617815560808401516117b890612a43565b81546001600160501b0391909116600160501b02600160501b600160a01b031990911617815560a08401516117ec90612a43565b6001820180546001600160501b0319166001600160501b0392909216919091179055606084015161181c90612a43565b81546001600160501b0391909116600160a01b0269ffffffffffffffffffff60a01b1990911617815583516020850151608086015160a087015160608801516040516001600160a01b038916947f3a0fdaecf7b5da75a56077f5b1c8fbc88f9b08e9d0c4db31eb34e25bc6700cde946118989491939092615314565b60405180910390a350505050565b6000806118b1611fa3565b6001600160a01b03861660009081526020918252604080822061ffff881683529092522080549091506118f490600160501b90046001600160501b031684612faa565b915060008312156119295780546001600160501b03168213156119295760405162461bcd60e51b815260040161032690615594565b611935611137836111ce565b81546001600160501b0391909116600160501b02600160501b600160a01b031990911617815560405161ffff8516906001600160a01b038716907f20478ef460e49d010960d4f3fff35d8dae385443abfac09035d6a2ccbcd834c49061199c9086906152fd565b60405180910390a3509392505050565b60006119b6612d84565b85516001600160a01b03166000908152602082815260408083208784529091529020805491925090600160f01b900460ff16156119f257600080fd5b828411156119ff57600080fd5b60408601518651600091611a1991806305f5e10089612fc0565b825460ff60f01b1916600160f01b1783559050611a3581613087565b82600101600a6101000a8154816001600160501b03021916908360090b6001600160501b031602179055506000611a6a6130b7565b88516001600160a01b031660009081526020918252604080822089835283529020600185015481546001600160501b0319166001600160501b03909116178155908a0151909150611adc90611ad790611ac4908a906115a6565b611ad18c608001516115ec565b90612c18565b613087565b815460099190910b6001600160501b0316600160501b02600160501b600160a01b03199091161781558851885160208b015160808c015160a08d015160608e01516040516001600160a01b03909516947fe66a863186dba5a66d19d3d91a66b76a7cbfdefd0d8c29c662274b13febb166e94611b5f949093909290918a9061532f565b60405180910390a3505050505050505050565b6000806000611b7f6115df565b89516001600160a01b0316600090815260209182526040808220898352835280822061ffff8b168352909252208054909150600160f01b900460ff161580611bd3575088516001600160a01b038981169116145b611bef5760405162461bcd60e51b815260040161032690615678565b80546001600160501b0380821691600160501b900416611c21611c1c82611c168a866130c4565b906130eb565b6115ec565b93508a600001516001600160a01b03168a6001600160a01b031614611c8b57611c4d6111378289611e47565b83546001600160501b0391909116600160501b02600160501b600160a01b0319909116178355611c8b8b8b8b8b611c866109618d6115ec565b61310a565b8a51611c98908a866118a6565b50611ca66111378386611e47565b83546001600160501b0319166001600160501b0391909116178355611cce8b8a8a878a613291565b94508861ffff168a6001600160a01b03168c600001516001600160a01b03167f38db3b2568ca34833805148705b1440a4f80962ce663ba509811abc652de434a8b8b89604051611d20939291906158b5565b60405180910390a4505050965096945050505050565b6000806115d784604001516111236402540be4006111238789602001516129c490919063ffffffff16565b60006305f5e10083604001511215611d8957611d826001611ad1858561335e565b9050610fb2565b6108a383611d98846001612c18565b61335e565b6000600383606001516005811115611db157fe5b1415611dc857506001600160a01b03811631610fb2565b82516040516370a0823160e01b81526001600160a01b03909116906370a0823190611df790859060040161515c565b60206040518083038186803b158015611e0f57600080fd5b505afa158015611e23573d6000803e3d6000fd5b505050506040513d601f19601f82011682018060405250810190611d829190614fa2565b600082821115611e5657600080fd5b50900390565b600080600585606001516005811115611e7157fe5b14611e83576370a0823160e01b611e8c565b630ed1279f60e11b5b90506000611e9f86600001513084613396565b9050600586606001516005811115611eb357fe5b1415611eda576000611ec88661ffff166112bc565b9050611ed481866134a8565b50611f23565b600186606001516005811115611eec57fe5b1415611f0157611efc868561351b565b611f23565b600286606001516005811115611f1357fe5b141561012c57611efc86856135bd565b6000611f3487600001513085613396565b9050610a6d611c1c8284613619565b6000611f4d613670565b6001600160a01b038416600090815260208290526040902080549192509061ffff168315611f8c57815461ffff19166001821761ffff16178255611f9c565b815461ffff191661fffe82161782555b5050505050565b600080610fb26017612a59565b611fb8614a84565b611fc182612657565b905061102e816040015161ffff1661367d565b6000806000611feb866040015161ffff1685613693565b9050600061201261096161200288608001516115ec565b6020890151611ad19086906115a6565b90506000612027886040015161ffff166112a9565b9050612033818361335e565b945060048160600151600581111561204757fe5b141561205557849350612082565b6000612068896040015161ffff166112bc565b905061207e6120778585611d36565b8290611d61565b9450505b505050935093915050565b6000612097613670565b905060006120a484612657565b90506120b66040840160208501614fba565b61ffff166120c357600080fd5b604081015161ffff1615806120f257506120e36040840160208501614fba565b61ffff16816040015161ffff16145b6120fb57600080fd5b61210b60c0840160a0850161505b565b60ff166064131561211b57600080fd5b600060648061213060c0870160a0880161505b565b60ff16030290506121476080850160608601614fba565b61ffff168161ffff161061215a57600080fd5b61216c61012085016101008601614fba565b61ffff166121806080860160608701614fba565b61ffff161061218e57600080fd5b6121a061018085016101608601614fba565b61ffff166121b661012086016101008701614fba565b61ffff16106121c457600080fd5b60646121d660e0860160c0870161505b565b60ff1613156121e457600080fd5b6121f5610100850160e0860161505b565b60ff1661220157600080fd5b6101408201515161ffff161580612246575061222561014085016101208601614fba565b61ffff1682610140015160006002811061223b57fe5b602002015161ffff16145b61224f57600080fd5b6101408201516020015161ffff161580612297575061227661016085016101408601614fba565b61ffff1682610140015160016002811061228c57fe5b602002015161ffff16145b6122a057600080fd5b6122b261014085016101208601614fba565b61ffff166122c66040860160208701614fba565b61ffff1614156122d557600080fd5b6122e761016085016101408601614fba565b61ffff166122fb6040860160208701614fba565b61ffff16141561230a57600080fd5b61231c61014085016101208601614fba565b61ffff1615801590612342575061233b61016085016101408601614fba565b61ffff1615155b1561237e5761235961016085016101408601614fba565b61ffff1661236f61014086016101208701614fba565b61ffff16141561237e57600080fd5b600061239c6123936040870160208801614fba565b61ffff166112a9565b905060006123bc6123b36040880160208901614fba565b61ffff166112bc565b905081602001511580156123d257508060200151155b6123db57600080fd5b6001600160a01b038716600090815260208690526040902086906123ff8282615994565b505050505050505050565b60008061242089600001518a6040015189612c2e565b89519091506001600160a01b031663dc6679c58961243e848961172a565b8988886040518663ffffffff1660e01b8152600401612461959493929190615247565b602060405180830381600087803b15801561247b57600080fd5b505af115801561248f573d6000803e3d6000fd5b505050506040513d601f19601f8201168201806040525081019061129c9190614fa2565b6000806124c2868887876136f0565b905060006124d588878960000151613755565b905060006124f56124e983611ad188611598565b6101608b0151906115a6565b905060006125038483612faa565b905081612519576001600160ff1b039450612526565b612523818361383c565b94505b5050509550959350505050565b6000806002600a5414156125595760405162461bcd60e51b8152600401610326906156fc565b6002600a55612569876080611039565b15612574576001600a555b600061258488600001518861138d565b8851909150600090819061259d908b908a8c8b8b613855565b91509150600082136125ae57600080fd5b80156125b957600080fd5b60808301516125c8908361172a565b608084015260a08301516125dc9089611e47565b60a084015289516125ee90849061173c565b888a600001516001600160a01b03167fb2f70c3fe73b5aee7e8c59b77222111306f1e4d7170f8fa1c09979bb847eb9d9848b60405161262e929190615306565b60405180910390a36126418a848b611fd4565b6001600a55909b909a5098505050505050505050565b61265f614a84565b6000612669613670565b6001600160a01b03841660008181526020838152604091829020928652825461ffff8082169288019290925262010000810490911691860191909152919250906126c99063ffffffff600160201b9091048116906305f5e100906129c416565b606084015280546126e790600160501b900460ff166207a1206130c4565b6080840152805461270b9068010000000000000000900461ffff16620186a06130c4565b60a0840152805461272a90600160701b900461ffff16620186a06130c4565b61012084015260028101546127469061ffff16620186a06130c4565b610180840152805460649060ff600160581b90910416633b9aca00020560c08401528054600160601b810460ff90811660e0860152600160681b909104166101008401526040805180820191829052906001830190600290826000855b82829054906101000a900461ffff1661ffff16815260200190600201906020826001010492830192600103820291508084116127a357905050505050508361014001819052505050919050565b6127f8614b30565b600080600061280685612dda565b604080516060810182526001600160a01b039093168352602083019390935260ff16600a0a918101919091529350505050919050565b612844614b5a565b600061284e6138ac565b600084815260208290526040812091925080600186141561287b5750670de0b6b3a7640000905080612951565b825460408051633fabe5a360e21b815290516001600160a01b039092169163feaf968c9160048082019260a092909190829003018186803b1580156128bf57600080fd5b505afa1580156128d3573d6000803e3d6000fd5b505050506040513d601f19601f820116820180604052508101906128f79190615077565b509193505060008313915061292090505760405162461bcd60e51b8152600401610326906156d6565b825460ff600160a01b82048116600a0a9350600160a81b90910416156129515761294e8161112384806129c4565b90505b6040805160a0810182529283526020830191909152915460ff600160b01b8204811693830193909352600160b81b810483166060830152600160c01b90049091166080820152915050919050565b60006108a38260200151611123846000015186602001516129c490919063ffffffff16565b8181026000198314156129f4578115806129e65750828282816129e357fe5b05145b6129ef57600080fd5b610fb2565b821580612a09575081838281612a0657fe5b05145b610fb257600080fd5b600081600019148015612a285750600160ff1b83145b15612a3257600080fd5b818381612a3b57fe5b059392505050565b60006001600160501b038211156111dd57600080fd5b6000620f424082601a811115612a6b57fe5b0192915050565b60008087600001516001600160a01b0316876001600160a01b03161415612a9857600080fd5b8751612aab9087610870610961886115ec565b506000612ab66115df565b89516001600160a01b0316600090815260209182526040808220898352835280822061ffff8b168352909252208054909150600160f01b900460ff1615612b0f5760405162461bcd60e51b815260040161032690615678565b80546001600160501b0380821691600160501b90041681612b3257869350612b43565b612b4082611c1689846130c4565b93505b612b538b8b8b8b611c86896115ec565b612b60611137828661172a565b83546001600160501b0391909116600160501b02600160501b600160a01b0319909116178355612b93611137838961172a565b83546001600160501b0319166001600160501b0391909116178355612bc68b8a8a612bc06109618c6115ec565b8a613291565b94508861ffff168a6001600160a01b03168c600001516001600160a01b03167fa119a38e8bbbf2cbe78427cb9e63ef28678b56e3ceecc10bda7c00503ea947398b888c604051611d20939291906158b5565b81810182811215600083121514610fb257600080fd5b600081612c3d575060006108a3565b60008213612c4a57600080fd5b6000612c598461ffff166112a9565b90506000612c67828561335e565b9050600482606001516005811115612c7b57fe5b1415612ca957612ca261034d610961888861ffff16612c9986611598565b879291906138b9565b9250612ccd565b612cca61034d6109618761ffff1689612cc1866111ce565b87929190613961565b92505b50509392505050565b612cde614b09565b6000612ce86139f7565b6000858152602082815260408083208715158452825291829020825160a08101845281546001600160a01b038116825260ff600160a01b82048116151594830194909452600160b01b81048416600a0a9482019490945293945092916060830191600160a81b909104166005811115612d5d57fe5b81529154600160b81b900468ffffffffffffffffff16602090920191909152949350505050565b600080610fb26015612a59565b6000806000612d9e612e9d565b6000958652602090815260408087209587529490525050509020546501000000000081046001600160801b031691600160a81b90910460ff1690565b6000806000806000612deb86613a04565b909250905060006001600160a01b038316612e105750600090506402540be400612e92565b826001600160a01b0316631ee108336040518163ffffffff1660e01b8152600401602060405180830381600087803b158015612e4b57600080fd5b505af1158015612e5f573d6000803e3d6000fd5b505050506040513d601f19601f82011682018060405250810190612e839190614fa2565b905060008113612e9257600080fd5b969195509350915050565b600080610fb26008612a59565b6000806000806000612eba613a3b565b6001600160a01b0388166000908152602082815260408083208a8452909152902080546001600160501b0381169650600160501b900463ffffffff1694509091508315612f23578054612f1c90600160701b900466ffffffffffffff16613a48565b9250612f38565b8054600160701b900466ffffffffffffff1692505b54600160a81b9004600a90810b900b97939650919450925050565b6000811215612f6157600080fd5b612f7660008361ffff16836000806000613a56565b8161ffff167fd3625f7b5926828151efe19f7ae655488287357d99ebe67e5fb20522ca739c0b82604051610aec91906152fd565b80820382811315600083121514610fb257600080fd5b600080612fd08761ffff166112bc565b9050806040015160001415612fef57612fec8761ffff166112a9565b90505b60405163e937711160e01b815261307a906001600160a01b0388169063e93771119061302390899089908990600401615226565b60206040518083038186803b15801561303b57600080fd5b505afa15801561304f573d6000803e3d6000fd5b505050506040513d601f19601f820116820180604052508101906130739190614fa2565b8290613b9d565b9150505b95945050505050565b6000697fffffffffffffffffff1982128015906130ae5750697fffffffffffffffffff8213155b6111dd57600080fd5b600080610fb26019612a59565b6000826130d357506000610fb2565b828202828482816130e057fe5b04146108a357600080fd5b60008082116130f957600080fd5b81838161310257fe5b049392505050565b60006131146111e5565b6001600160a01b038087166000908152602092835260408082208a519093168252919092529020805490915063ffffffff1683811480613152575080155b61316e5760405162461bcd60e51b815260040161032690615352565b815461014088015151600160201b82046001600160501b0390811692600160701b9004169061ffff888116911614156131e8576131ab8286612c18565b91506131b9611137836111ce565b84546001600160501b0391909116600160201b026dffffffffffffffffffff0000000019909116178455613242565b6101408901516020015161ffff8881169116141561012c5761320a8186612c18565b9050613218611137826111ce565b84546001600160501b0391909116600160701b0269ffffffffffffffffffff60701b199091161784555b8115801561324e575080155b1561326357835463ffffffff191684556123ff565b826123ff5761327186613bcd565b845463ffffffff191663ffffffff91909116178455505050505050505050565b6000856040015161ffff168561ffff1614156132ac57600080fd5b826132b95750600061307e565b4284116132f65760008312156132ce57600080fd5b60006132df8661ffff168642611428565b90506132ee61096182866115a6565b91505061307e565b613309858585858a610100015142613be0565b9050600083138015613319575080155b15613335576101608601516133329061096190856115a6565b90505b600083121561307e576000811361307e5760405162461bcd60e51b815260040161032690615389565b60006305f5e10083604001511415613377575080610fb2565b6108a36305f5e1006111238560400151856129c490919063ffffffff16565b604080516001600160a01b0384811660248084019190915283518084039091018152604490920183526020820180516001600160e01b03166001600160e01b0319861617815292518251600094859485948a16939092909182918083835b602083106134135780518252601f1990920191602091820191016133f4565b6001836020036101000a038019825116818451168082178552505050505050905001915050600060405180830381855afa9150503d8060008114613473576040519150601f19603f3d011682016040523d82523d6000602084013e613478565b606091505b50915091508161348757600080fd5b80806020019051602081101561349c57600080fd5b50519695505050505050565b6134b0613cef565b54825160405163e8eda9df60e01b81526001600160a01b039092169163e8eda9df916134e591859030906000906004016151d1565b600060405180830381600087803b1580156134ff57600080fd5b505af1158015613513573d6000803e3d6000fd5b505050505050565b815160405163140e25ad60e31b81526000916001600160a01b03169063a0712d689061354b9085906004016152fd565b602060405180830381600087803b15801561356557600080fd5b505af1158015613579573d6000803e3d6000fd5b505050506040513d601f19601f8201168201806040525081019061359d9190614fa2565b905080156113885760405162461bcd60e51b815260040161032690615421565b81600001516001600160a01b0316631249c58b826040518263ffffffff1660e01b81526004016000604051808303818588803b1580156135fc57600080fd5b505af1158015613610573d6000803e3d6000fd5b50505050505050565b600082821115611e56576040805162461bcd60e51b815260206004820152601e60248201527f536166654d6174683a207375627472616374696f6e206f766572666c6f770000604482015290519081900360640190fd5b600080610fb26014612a59565b613685614b30565b600080600061280685613cfc565b61369b614b30565b6000806136a88585612d91565b9150915081600014156136c6576136be85613cfc565b919350909150505b6040805160608101825260008152602081019390935260ff909116600a0a90820152905092915050565b6000816136ff575060006115d7565b60008061370c8785613d7f565b91509150600061372b8760400151886000015188858c60000151612fc0565b9050613749613739846115ec565b610160890151611ad190846115a6565b98975050505050505050565b600061376084613dd8565b156108a357600061376f6111e5565b6001600160a01b038086166000908152602092835260408082208951909316825291909252808220908701519092506137ab9061ffff1661283c565b82549091506001600160501b03600160201b8204811691600160701b9004168115613801576137fe6137f7848a61014001516000600281106137e957fe5b60200201518b518a87613e01565b8690612c18565b94505b80156138315761382e6137f7848a610140015160016002811061382057fe5b60200201518b518a86613e01565b94505b505050509392505050565b60006108a361384f84633b9aca006129c4565b83612a12565b60008061389d886040518060a001604052808a6001600160a01b031681526020018a6001600160a01b0316815260200189815260200188815260200160008152508686613eb2565b90999098509650505050505050565b600080610fb26010612a59565b806005856060015160058111156138cc57fe5b14156138f15760006138dd846112bc565b90506138ed816000015184614127565b9250505b600082131561391d5760006139078686856141ad565b9050856020015115613917578091505b506115d7565b60038560600151600581111561392f57fe5b141561394c576139478461394284611598565b6142a0565b6115d7565b84516115d7908561395c85611598565b6142d6565b60008060028660600151600581111561397657fe5b141561398e5761398786858561434d565b90506139eb565b6000613999866112bc565b90506005876060015160058111156139ad57fe5b14156139c5576139be81868661440a565b91506139e9565b6001876060015160058111156139d757fe5b141561012c576139be878287876144bb565b505b61121d610961826115ec565b600080610fb26007612a59565b6000806000613a116145b9565b600094855260205250506040909120546001600160a01b03811692600160a01b90910460ff169150565b600080610fb26006612a59565b600881901c60ff9091161b90565b6000613a60613a3b565b6001600160a01b0388166000908152602082815260408083208a845290915290209091506a7fffffffffffffffffffff198612801590613aab57506a7fffffffffffffffffffff8613155b613ab457600080fd5b60008512158015613acc57506001600160501b038513155b613ad557600080fd5b83613b155766ffffffffffffff831115613aee57600080fd5b805466ffffffffffffff60701b1916600160701b66ffffffffffffff851602178155613b2f565b8054600160501b900463ffffffff168414613b2f57600080fd5b8054600a9690960b6affffffffffffffffffffff16600160a81b026001600160a81b036001600160501b039096166001600160501b031963ffffffff909616600160501b0263ffffffff60501b19909816979097179490941695909517939093169190911790925550505050565b60006305f5e10083604001511415613bb6575080610fb2565b60408301516108a390611123846305f5e1006129c4565b600063ffffffff8211156111dd57600080fd5b600080613bef888886866145c6565b90506000613bfc87614635565b90506affffffffffffffffffffff8110613c1557600080fd5b600060788763ffffffff16901b609883901b60f085901b60f860008c13613c3d576001613c40565b60005b6005811115613c4b57fe5b60ff16901b17171760001b905073__$7ac922d04bd7a1b42c7f6e5f1dd89a70af$__63e50f349e8b836040518363ffffffff1660e01b8152600401613c919291906158a1565b60206040518083038186803b158015613ca957600080fd5b505af4158015613cbd573d6000803e3d6000fd5b505050506040513d601f19601f82011682018060405250810190613ce19190614fa2565b9a9950505050505050505050565b600080610fb26013612a59565b6000806000806000613d0d86613a04565b909250905060006001600160a01b038316613d325750600090506402540be400612e92565b826001600160a01b031663b2fffb046040518163ffffffff1660e01b815260040160206040518083038186803b158015613d6b57600080fd5b505afa158015612e5f573d6000803e3d6000fd5b600080600084606001511115610b7c57613dae8460600151611c168660800151866130c490919063ffffffff16565b9150613dcf8460600151611c168660a00151866130c490919063ffffffff16565b90509250929050565b6101408101515160009061ffff16151580610fb257505061014001516020015161ffff16151590565b600080613e0c6115df565b6001600160a01b038616600090815260209182526040808220878352835280822061ffff8a16835290925290812080549092506001600160501b0380821692600160501b9092041690613e66611c1c83611c1689876130c4565b90506000613e778a61ffff1661283c565b90506000613e858c8361299f565b9050613ea2816111238e60000151866129c490919063ffffffff16565b9c9b505050505050505050505050565b600080600080613ec188614656565b9150915060008088608001511215613f3657600483606001516005811115613ee557fe5b1415613f0257613efb61034d8960800151611598565b9050613f36565b6000613f236109618a608001518c6101600151611d3690919063ffffffff16565b9050613f3261034d8483611d61565b9150505b60408801516000901561400e576000613f4f8430611d9d565b90508a600001516001600160a01b03166344f051088b600001518c602001518d604001518e60600151888f8f6040518863ffffffff1660e01b8152600401613f9d9796959493929190615170565b602060405180830381600087803b158015613fb757600080fd5b505af1158015613fcb573d6000803e3d6000fd5b505050506040513d601f19601f82011682018060405250810190613fef9190614fa2565b95506000613ffd8530611d9d565b90506140098183611e47565b925050505b818110156140a95780820360038460600151600581111561402b57fe5b141561406957348111156140515760405162461bcd60e51b815260040161032690615486565b6140618a600001518234036142a0565b8291506140a7565b600061408e8b600001518d6040015161ffff16614085856115ec565b889291906138b9565b90506140a361409c826111ce565b849061172a565b9250505b505b818110156140c95760405162461bcd60e51b815260040161032690615486565b60006004856060015160058111156140dd57fe5b14156140f3576140ec826115ec565b905061410d565b811561410d5760408b015161410a90869084611e5c565b90505b6141178582613b9d565b9650505050505094509492505050565b60008161413657506000610fb2565b6000614141846146af565b9050600061414e84614635565b9050816b019d971e4fe8401e74000001600160ff1b038161416b57fe5b0581131561417857600080fd5b6b033b2e3c9fd0803ce80000006b019d971e4fe8401e7400000083830201056000851361307e576141a881611598565b61121d565b60008080806005876060015160058111156141c457fe5b146141d6576370a0823160e01b6141df565b630ed1279f60e11b5b90508660200151156141fb5786516141f8903083613396565b92505b865161420890878761473a565b86602001518061421c575060008760800151115b1561423157865161422e903083613396565b91505b60808701511561426c57600061424f8861424a856115ec565b613b9d565b905061425e88608001516115ec565b81131561426a57600080fd5b505b86602001511561428d57614283611c1c8385613619565b93505050506108a3565b614283856115ec565b5050509392505050565b6040516001600160a01b0383169082156108fc029083906000818181858888f19350505050158015611388573d6000803e3d6000fd5b826001600160a01b031663a9059cbb83836040518363ffffffff1660e01b815260040180836001600160a01b0316815260200182815260200192505050600060405180830381600087803b15801561432d57600080fd5b505af1158015614341573d6000803e3d6000fd5b50505050611388614792565b825160405163db006a7560e01b8152600091479183916001600160a01b03169063db006a75906143819087906004016152fd565b602060405180830381600087803b15801561439b57600080fd5b505af11580156143af573d6000803e3d6000fd5b505050506040513d601f19601f820116820180604052508101906143d39190614fa2565b905080156143f35760405162461bcd60e51b81526004016103269061543f565b476143fe8184613619565b935061429686856142a0565b600061442561034d8560000151614420856115ec565b614127565b905061442f613cef565b548451604051631a4ca37b60e21b81526001600160a01b03909216916369328dec9161446191859088906004016151ae565b602060405180830381600087803b15801561447b57600080fd5b505af115801561448f573d6000803e3d6000fd5b505050506040513d601f19601f820116820180604052508101906144b39190614fa2565b509392505050565b825160009081906144d490306370a0823160e01b613396565b9050600086600001516001600160a01b031663db006a75856040518263ffffffff1660e01b815260040161450891906152fd565b602060405180830381600087803b15801561452257600080fd5b505af1158015614536573d6000803e3d6000fd5b505050506040513d601f19601f8201168201806040525081019061455a9190614fa2565b9050801561457a5760405162461bcd60e51b81526004016103269061543f565b855160009061459190306370a0823160e01b613396565b905061459d8184613619565b93506145ae876000015187866142d6565b505050949350505050565b600080610fb2600f612a59565b60008060006145d88761ffff16614803565b90506145e88160ff168786614819565b90935091508483111561460d5760405162461bcd60e51b81526004016103269061550c565b811561462b5760405162461bcd60e51b81526004016103269061550c565b5050949350505050565b60008082121561464f5761464882611598565b90506111e0565b50806111e0565b61465e614b09565b614666614b09565b614677836040015161ffff166112a9565b915060048260600151600581111561468b57fe5b146146a6576146a1836040015161ffff166112bc565b6146a8565b815b9050915091565b6000610fb26146bc613cef565b5460405163d15e005360e01b81526001600160a01b039091169063d15e0053906146ea90869060040161515c565b60206040518083038186803b15801561470257600080fd5b505afa158015614716573d6000803e3d6000fd5b505050506040513d601f19601f82011682018060405250810190611c1c9190614fa2565b604080516323b872dd60e01b81526001600160a01b038481166004830152306024830152604482018490529151918516916323b872dd9160648082019260009290919082900301818387803b15801561432d57600080fd5b600061479c614b89565b3d80156147b057602081146147b957600080fd5b600192506147c4565b60206000833e815192505b50816147ff576040805162461bcd60e51b8152602060048201526005602482015264045524332360dc1b604482015290519081900360640190fd5b5050565b60008061480f836148e1565b60ff169392505050565b6000806000851161483c5760405162461bcd60e51b8152600401610326906154b6565b600785111561485d5760405162461bcd60e51b8152600401610326906155ba565b6000614868846148fe565b905060015b8681116148c05760006148896148828361491c565b84906149c0565b9050868114156148a157509250600091506148d99050565b868111156148b757509250600191506148d99050565b5060010161486d565b5060405162461bcd60e51b815260040161032690615750565b935093915050565b6000806148ec614a1a565b60009384526020525050604090205490565b60006276a70082101561491057600080fd5b506276a7008106900390565b6000816001141561493157506276a7006111e0565b8160021415614944575062ed4e006111e0565b816003141561495857506301da9c006111e0565b816004141561496c57506303b538006111e0565b816005141561498057506309450c006111e0565b8160061415614994575063128a18006111e0565b81600714156149a8575063251430006111e0565b60405162461bcd60e51b8152600401610326906154e5565b6000828201838110156108a3576040805162461bcd60e51b815260206004820152601b60248201527f536166654d6174683a206164646974696f6e206f766572666c6f770000000000604482015290519081900360640190fd5b600080610fb26009612a59565b60405180604001604052806002906020820280368337509192915050565b6040518060e001604052806000815260200160008152602001600015158152602001600081526020016000815260200160008152602001600081525090565b604051806101a0016040528060006001600160a01b03168152602001600061ffff168152602001600061ffff16815260200160008152602001600081526020016000815260200160008152602001600081526020016000815260200160008152602001614aef614a27565b8152602001614afc614b30565b8152602001600081525090565b6040805160a081018252600080825260208201819052918101829052906060820190614afc565b604051806060016040528060006001600160a01b0316815260200160008152602001600081525090565b6040518060a0016040528060008152602001600081526020016000815260200160008152602001600081525090565b60405180602001604052806001906020820280368337509192915050565b80356001600160a01b03811681146111e057600080fd5b8060408101831015610fb257600080fd5b60008083601f840112614be0578182fd5b50813567ffffffffffffffff811115614bf7578182fd5b602083019150836020828501011115610b7c57600080fd5b600060208284031215614c20578081fd5b6108a382614ba7565b60008060408385031215614c3b578081fd5b614c4483614ba7565b915060208301358015158114614c58578182fd5b809150509250929050565b60008060008385036101c0811215614c79578182fd5b614c8285614ba7565b9350610180601f1982011215614c96578182fd5b506020840191506101a0840135614cac81615bb1565b809150509250925092565b60008060408385031215614cc9578182fd5b614cd283614ba7565b91506020830135614c5881615b7d565b600080600060608486031215614cf6578283fd5b614cff84614ba7565b92506020840135614d0f81615b7d565b929592945050506040919091013590565b600080600080600080600060c0888a031215614d3a578283fd5b614d4388614ba7565b96506020880135614d5381615b7d565b955060408801359450606088013593506080880135614d7181615b90565b925060a088013567ffffffffffffffff811115614d8c578283fd5b614d988a828b01614bcf565b989b979a50959850939692959293505050565b600080600060608486031215614dbf578283fd5b614dc884614ba7565b92506020840135614dd881615b7d565b91506040840135614cac81615bb1565b60008060408385031215614dfa578182fd5b614e0383614ba7565b946020939093013593505050565b60008060008060006101008688031215614e29578283fd5b614e3286614ba7565b945060208601359350614e488760408801614bbe565b9250614e578760808801614bbe565b9150614e668760c08801614bbe565b90509295509295909350565b60008060408385031215614e84578182fd5b614e8d83614ba7565b91506020830135614c5881615bb1565b60008060008060008060a08789031215614eb5578384fd5b614ebe87614ba7565b95506020870135614ece81615bb1565b94506040870135935060608701359250608087013567ffffffffffffffff811115614ef7578283fd5b614f0389828a01614bcf565b979a9699509497509295939492505050565b600060208284031215614f26578081fd5b815167ffffffffffffffff80821115614f3d578283fd5b818401915084601f830112614f50578283fd5b815181811115614f5c57fe5b604051601f8201601f191681016020018381118282101715614f7a57fe5b604052818152838201602001871015614f91578485fd5b61121d826020830160208701615941565b600060208284031215614fb3578081fd5b5051919050565b600060208284031215614fcb578081fd5b81356108a381615b7d565b600060208284031215614fe7578081fd5b5035919050565b60008060008060608587031215615003578182fd5b8435935060208501359250604085013567ffffffffffffffff811115615027578283fd5b61503387828801614bcf565b95989497509550505050565b600060208284031215615050578081fd5b81356108a381615b90565b60006020828403121561506c578081fd5b81356108a381615ba2565b600080600080600060a0868803121561508e578283fd5b855161509981615bb1565b8095505060208601519350604086015192506060860151915060808601516150c081615bb1565b809150509295509295909350565b6001600160a01b03169052565b8060005b600281101561510257815161ffff168452602093840193909101906001016150df565b50505050565b60008284528282602086013780602084860101526020601f19601f85011685010190509392505050565b80516001600160a01b0316825260208082015190830152604090810151910152565b61ffff169052565b6001600160a01b0391909116815260200190565b600060018060a01b03808a16835280891660208401525086604083015285606083015284608083015260c060a083015261129c60c083018486615108565b6001600160a01b0393841681526020810192909252909116604082015260600190565b6001600160a01b03948516815260208101939093529216604082015261ffff909116606082015260800190565b600060018060a01b03861682528460208301526060604083015261121d606083018486615108565b6001600160a01b039390931683526020830191909152604082015260600190565b600060018060a01b038716825285602083015284604083015260806060830152610a6d608083018486615108565b60408101818360005b600281101561529d57815183526020928301929091019060010161527e565b50505092915050565b901515815260200190565b91151582526001600160501b0316602082015260400190565b60006020825282518060208401526152e9816040850160208701615941565b601f01601f19169190910160400192915050565b90815260200190565b918252602082015260400190565b93845260208401929092526040830152606082015260800190565b948552602085019390935260408401919091526060830152608082015260a00190565b6020808252601a908201527f496e76616c6964205365636f6e64617279204d61747572697479000000000000604082015260600190565b6020808252600d908201526c109bdc9c9bddc811985a5b1959609a1b604082015260600190565b60208082526011908201527052656465656d20616c6c20746f6b656e7360781b604082015260600190565b60208082526006908201526514185d5cd95960d21b604082015260600190565b6020808252600c908201526b155b985d5d1a1bdc9a5e995960a21b604082015260600190565b602080825260049082015263135a5b9d60e21b604082015260600190565b60208082526006908201526552656465656d60d01b604082015260600190565b6020808252600d908201526c556e7061696420426f72726f7760981b604082015260600190565b602080825260169082015275125b9cdd59999a58da595b9d081c995c185e5b595b9d60521b604082015260600190565b60208082526015908201527410d1ce881b9bc81b585c9ad95d1cc81b1a5cdd1959605a1b604082015260600190565b6020808252600d908201526c092dcecc2d8d2c840d2dcc8caf609b1b604082015260600190565b60208082526010908201526f496e76616c6964204d6174757269747960801b604082015260600190565b6020808252601d908201527f496e73756666696369656e74205365636f6e6461727920426f72726f77000000604082015260600190565b6020808252600d908201526c43616e6e6f7420536574746c6560981b604082015260600190565b6020808252600c908201526b4d617820436170616369747960a01b604082015260600190565b60208082526016908201527510d1ce881b585c9ad95d081a5b99195e08189bdd5b9960521b604082015260600190565b60208082526010908201526f496e76616c69642043757272656e637960801b604082015260600190565b60208082526015908201527410d85b9b9bdd0814995cd95d0814db985c1cda1bdd605a1b604082015260600190565b6020808252818101527f4f776e61626c653a2063616c6c6572206973206e6f7420746865206f776e6572604082015260600190565b6020808252600d908201526c125b8814d95d1d1b195b595b9d609a1b604082015260600190565b60208082526017908201527f496e73756666696369656e7420436f6c6c61746572616c000000000000000000604082015260600190565b6020808252600c908201526b496e76616c6964207261746560a01b604082015260600190565b6020808252600e908201526d1499595b9d1c985b9d0818d85b1b60921b604082015260600190565b602080825260129082015271496e73756666696369656e7420526570617960701b604082015260600190565b60208082526013908201527210d1ce881b9bc81b585c9ad95d08199bdd5b99606a1b604082015260600190565b6000610200820190506157918284516150ce565b60208301516157a36020840182615154565b5060408301516157b66040840182615154565b50606083015160608301526080830151608083015260a083015160a083015260c083015160c083015260e083015160e083015261010080840151818401525061012080840151818401525061014080840151615814828501826150db565b505061016083015161018061582b81850183615132565b808501516101e0850152505092915050565b600060e0820190508251825260208301516020830152604083015115156040830152606083015160608301526080830151608083015260a083015160a083015260c083015160c083015292915050565b6001600160801b0391909116815260200190565b61ffff929092168252602082015260400190565b9283526020830191909152604082015260600190565b6001600160501b0391909116815260200190565b81816000805b60028082106158f45750613513565b84356158ff81615b7d565b845461ffff6008860281811b801990931693909116901b161784556020949094019390910190601e82111561593957600091506001830192505b6001016158e5565b60005b8381101561595c578181015183820152602001615944565b838111156151025750506000910152565b60008135610fb281615b7d565b60008135610fb281615b90565b60008135610fb281615ba2565b813561599f81615b7d565b6159a98183615a79565b506159bf6159b96020840161596d565b82615b1f565b6159d46159ce6040840161597a565b82615b3b565b6159e96159e36060840161596d565b82615b5f565b6159fe6159f860808401615987565b82615a8c565b615a13615a0d60a08401615987565b82615aa9565b615a28615a2260c08401615987565b82615ac6565b615a3d615a3760e08401615987565b82615ae3565b615a53615a4d610100840161596d565b82615b00565b615a646101208301600183016158df565b6147ff615a74610160840161596d565b600283015b61ffff821661ffff198254161781555050565b805460ff60501b191660509290921b60ff60501b16919091179055565b805460ff60581b191660589290921b60ff60581b16919091179055565b805460ff60601b191660609290921b60ff60601b16919091179055565b805460ff60681b191660689290921b60ff60681b16919091179055565b805461ffff60701b191660709290921b61ffff60701b16919091179055565b805463ffff00008360101b1663ffff0000198216178255505050565b805467ffffffff000000008360201b1667ffffffff00000000198216178255505050565b805461ffff60401b8360401b1661ffff60401b198216178255505050565b61ffff81168114615b8d57600080fd5b50565b63ffffffff81168114615b8d57600080fd5b60ff81168114615b8d57600080fd5b6001600160501b0381168114615b8d57600080fdfea264697066735822122035ff5f2db2d6d937f16278936e2805784814d3780e398877fff9164ec0b125f964736f6c63430007060033","language":"Solidity","natspec":{"kind":"dev","methods":{"borrowSecondaryCurrencyToVault(address,uint256,uint256[2],uint32[2],uint32[2])":{"notice":"Allows a vault to borrow a secondary currency if it is whitelisted to do so","params":{"account":"account that is borrowing the secondary currency","fCashToBorrow":"fCash to borrow for the first and second secondary currencies","maturity":"the maturity to borrow at","maxBorrowRate":"maximum borrow rate for the first and second secondary currencies","minRollLendRate":"max roll lend rate for the first and second borrow currencies"},"returns":{"underlyingTokensTransferred":"amount of tokens transferred back to the vault"}},"depositVaultCashToStrategyTokens(uint256,uint256,bytes)":{"notice":"Strategy vaults can call this method to deposit asset cash into strategy tokens.","params":{"assetCashInternal":"the number of asset cash tokens to deposit (external)","maturity":"the maturity of the vault where the redemption will take place","vaultData":"arbitrary data to pass back to the vault for deposit"}},"getCashRequiredToSettle(address,uint256)":{"notice":"View method to get the current amount of cash remaining to settle the vault"},"getVaultConfig(address)":{"notice":"View Methods *"},"getVaultState(address,uint256)":{"notice":"View method to get vault state"},"initiateSecondaryBorrowSettlement(uint256)":{"notice":"MUST be called by vaults that are using secondary borrows to initiate the settlement process. Once settlement process has been initiated, no further secondary borrows may occur in this maturity. Repayments can only occur via the vault itself, individual accounts cannot repay secondary borrows after this occurs. Can only be called by the vault.","params":{"maturity":"maturity in which to initiate settlement"},"returns":{"secondaryBorrowSnapshot":"value of fCash in primary currency terms for both secondary borrow currencies"}},"redeemStrategyTokensToCash(uint256,uint256,bytes)":{"notice":"Strategy vaults can call this method to redeem strategy tokens to cash and hold them as asset cash within the pool. This should typically be used during settlement but can also be used for vault-wide deleveraging.","params":{"maturity":"the maturity of the vault where the redemption will take place","strategyTokensToRedeem":"the number of strategy tokens redeemed","vaultData":"arbitrary data to pass back to the vault"},"returns":{"assetCashRequiredToSettle":"amount of asset cash still remaining to settle the debt","underlyingCashRequiredToSettle":"amount of underlying cash still remaining to settle the debt"}},"reduceMaxBorrowCapacity(address,uint80,uint256,uint256,bytes)":{"notice":"Allows the owner to reduce the max borrow capacity on the vault and force the redemption of strategy tokens to cash to reduce the overall risk of the vault. This method is intended to be used in emergencies to mitigate insolvency risk. The effect of this method will mean that the overall max borrow capacity is reduced, the total used capacity will be unchanged (redeemStrategyTokensToCash does not do any lending to reduce the outstanding fCash), and accounts will be locked out of entering the maturity which was targeted by this method. Other maturities for that vault may still be entered depending on whether or not the vault is above or below the max vault borrow capacity.","params":{"maturity":"the maturity to redeem tokens in, will generally be either the current maturity or the next maturity.","maxVaultBorrowCapacity":"the new max vault borrow capacity on the primary currency","strategyTokensToRedeem":"how many tokens we would want to redeem in the maturity","vaultAddress":"address of the vault","vaultData":"vault data to pass to the vault"}},"repaySecondaryCurrencyFromVault(address,uint16,uint256,uint256,uint32,bytes)":{"notice":"Allows a vault to repay a secondary currency that it has borrowed. Will be executed via a callback which will request that the vault repay a specific amount of underlying tokens.","params":{"account":"account that is repaying the secondary currency","currencyId":"currency id of the secondary currency","debtSharesToRepay":"amount of debt shares to repay (used to calculate fCashToLend)","maturity":"the maturity to lend at","minLendRate":"minimum lend rate"},"returns":{"returnData":"arbitrary return data to pass back to the vault"}},"setMaxBorrowCapacity(address,uint80)":{"notice":"Allows the owner to reduce the max borrow capacity on the vault","params":{"maxVaultBorrowCapacity":"the new max vault borrow capacity on the primary currency","vaultAddress":"address of the vault"}},"setVaultPauseStatus(address,bool)":{"notice":"Enables or disables a vault. If a vault is disabled, no one can enter the vault but exits are still possible.","params":{"enable":"true if the vault should be enabled immediately","vaultAddress":"address of deployed vault"}},"settleVault(address,uint256)":{"notice":"Settles a vault and sets the final settlement rates","params":{"maturity":"the maturity of the vault","vault":"the vault to settle"}},"updateSecondaryBorrowCapacity(address,uint16,uint80)":{"notice":"Whitelists a secondary borrow currency for a vault, vaults can borrow up to the capacity using the `borrowSecondaryCurrencyToVault` and `repaySecondaryCurrencyToVault` methods. Vaults that use a secondary currency must ALWAYS repay the secondary debt during redemption and handle accounting for the secondary currency themselves.","params":{"maxBorrowCapacity":"maximum borrow capacity","secondaryCurrencyId":"struct of vault configuration","vaultAddress":"address of deployed vault"}},"updateVault(address,(uint16,uint16,uint32,uint16,uint8,uint8,uint8,uint8,uint16,uint16[2],uint16),uint80)":{"notice":"Updates or lists a deployed vault along with its configuration.","params":{"maxPrimaryBorrowCapacity":"maximum borrow capacity","vaultAddress":"address of deployed vault","vaultConfig":"struct of vault configuration"}}},"version":1},"opcodes":"PUSH1 0x80 PUSH1 0x40 MSTORE CALLVALUE DUP1 ISZERO PUSH2 0x10 JUMPI PUSH1 0x0 DUP1 REVERT JUMPDEST POP PUSH1 0x4 CALLDATASIZE LT PUSH2 0x12C JUMPI PUSH1 0x0 CALLDATALOAD PUSH1 0xE0 SHR DUP1 PUSH4 0x82463367 GT PUSH2 0xAD JUMPI DUP1 PUSH4 0xC4C96DAE GT PUSH2 0x71 JUMPI DUP1 PUSH4 0xC4C96DAE EQ PUSH2 0x289 JUMPI DUP1 PUSH4 0xD04C16AC EQ PUSH2 0x291 JUMPI DUP1 PUSH4 0xD6DDEB9A EQ PUSH2 0x2A4 JUMPI DUP1 PUSH4 0xDE1EB9A3 EQ PUSH2 0x2B7 JUMPI DUP1 PUSH4 0xEE01436B EQ PUSH2 0x2D7 JUMPI PUSH2 0x12C JUMP JUMPDEST DUP1 PUSH4 0x82463367 EQ PUSH2 0x231 JUMPI DUP1 PUSH4 0x8C9E4465 EQ PUSH2 0x239 JUMPI DUP1 PUSH4 0x8DA5CB5B EQ PUSH2 0x24C JUMPI DUP1 PUSH4 0xA14DB57C EQ PUSH2 0x254 JUMPI DUP1 PUSH4 0xB67138AA EQ PUSH2 0x276 JUMPI PUSH2 0x12C JUMP JUMPDEST DUP1 PUSH4 0x31572281 GT PUSH2 0xF4 JUMPI DUP1 PUSH4 0x31572281 EQ PUSH2 0x1AA JUMPI DUP1 PUSH4 0x50E4F223 EQ PUSH2 0x1CA JUMPI DUP1 PUSH4 0x56F428C4 EQ PUSH2 0x1EA JUMPI DUP1 PUSH4 0x67515776 EQ PUSH2 0x1FD JUMPI DUP1 PUSH4 0x6C346C09 EQ PUSH2 0x21E JUMPI PUSH2 0x12C JUMP JUMPDEST DUP1 PUSH4 0x1AC8852 EQ PUSH2 0x131 JUMPI DUP1 PUSH4 0xBC08CDC EQ PUSH2 0x15A JUMPI DUP1 PUSH4 0x24A3D622 EQ PUSH2 0x16D JUMPI DUP1 PUSH4 0x291AFDF3 EQ PUSH2 0x182 JUMPI DUP1 PUSH4 0x295E6B7F EQ PUSH2 0x197 JUMPI JUMPDEST PUSH1 0x0 DUP1 REVERT JUMPDEST PUSH2 0x144 PUSH2 0x13F CALLDATASIZE PUSH1 0x4 PUSH2 0x4FD6 JUMP JUMPDEST PUSH2 0x2EA JUMP JUMPDEST PUSH1 0x40 MLOAD PUSH2 0x151 SWAP2 SWAP1 PUSH2 0x5275 JUMP JUMPDEST PUSH1 0x40 MLOAD DUP1 SWAP2 SUB SWAP1 RETURN JUMPDEST PUSH2 0x144 PUSH2 0x168 CALLDATASIZE PUSH1 0x4 PUSH2 0x4E11 JUMP JUMPDEST PUSH2 0x374 JUMP JUMPDEST PUSH2 0x175 PUSH2 0x52B JUMP JUMPDEST PUSH1 0x40 MLOAD PUSH2 0x151 SWAP2 SWAP1 PUSH2 0x515C JUMP JUMPDEST PUSH2 0x195 PUSH2 0x190 CALLDATASIZE PUSH1 0x4 PUSH2 0x4DAB JUMP JUMPDEST PUSH2 0x53A JUMP JUMPDEST STOP JUMPDEST PUSH2 0x195 PUSH2 0x1A5 CALLDATASIZE PUSH1 0x4 PUSH2 0x4DE8 JUMP JUMPDEST PUSH2 0x656 JUMP JUMPDEST PUSH2 0x1BD PUSH2 0x1B8 CALLDATASIZE PUSH1 0x4 PUSH2 0x4DE8 JUMP JUMPDEST PUSH2 0x891 JUMP JUMPDEST PUSH1 0x40 MLOAD PUSH2 0x151 SWAP2 SWAP1 PUSH2 0x583D JUMP JUMPDEST PUSH2 0x1DD PUSH2 0x1D8 CALLDATASIZE PUSH1 0x4 PUSH2 0x4D20 JUMP JUMPDEST PUSH2 0x8AA JUMP JUMPDEST PUSH1 0x40 MLOAD PUSH2 0x151 SWAP2 SWAP1 PUSH2 0x52CA JUMP JUMPDEST PUSH2 0x195 PUSH2 0x1F8 CALLDATASIZE PUSH1 0x4 PUSH2 0x4C29 JUMP JUMPDEST PUSH2 0xA78 JUMP JUMPDEST PUSH2 0x210 PUSH2 0x20B CALLDATASIZE PUSH1 0x4 PUSH2 0x4CB7 JUMP JUMPDEST PUSH2 0xAF8 JUMP JUMPDEST PUSH1 0x40 MLOAD PUSH2 0x151 SWAP3 SWAP2 SWAP1 PUSH2 0x5306 JUMP JUMPDEST PUSH2 0x210 PUSH2 0x22C CALLDATASIZE PUSH1 0x4 PUSH2 0x4DE8 JUMP JUMPDEST PUSH2 0xB48 JUMP JUMPDEST PUSH2 0x175 PUSH2 0xB83 JUMP JUMPDEST PUSH2 0x195 PUSH2 0x247 CALLDATASIZE PUSH1 0x4 PUSH2 0x4C63 JUMP JUMPDEST PUSH2 0xB92 JUMP JUMPDEST PUSH2 0x175 PUSH2 0xC4A JUMP JUMPDEST PUSH2 0x267 PUSH2 0x262 CALLDATASIZE PUSH1 0x4 PUSH2 0x4CE2 JUMP JUMPDEST PUSH2 0xC60 JUMP JUMPDEST PUSH1 0x40 MLOAD PUSH2 0x151 SWAP4 SWAP3 SWAP2 SWAP1 PUSH2 0x58B5 JUMP JUMPDEST PUSH2 0x195 PUSH2 0x284 CALLDATASIZE PUSH1 0x4 PUSH2 0x4E72 JUMP JUMPDEST PUSH2 0xCC6 JUMP JUMPDEST PUSH2 0x175 PUSH2 0xD65 JUMP JUMPDEST PUSH2 0x195 PUSH2 0x29F CALLDATASIZE PUSH1 0x4 PUSH2 0x4FEE JUMP JUMPDEST PUSH2 0xD7D JUMP JUMPDEST PUSH2 0x195 PUSH2 0x2B2 CALLDATASIZE PUSH1 0x4 PUSH2 0x4E9D JUMP JUMPDEST PUSH2 0xEEF JUMP JUMPDEST PUSH2 0x2CA PUSH2 0x2C5 CALLDATASIZE PUSH1 0x4 PUSH2 0x4C0F JUMP JUMPDEST PUSH2 0xFA1 JUMP JUMPDEST PUSH1 0x40 MLOAD PUSH2 0x151 SWAP2 SWAP1 PUSH2 0x577D JUMP JUMPDEST PUSH2 0x210 PUSH2 0x2E5 CALLDATASIZE PUSH1 0x4 PUSH2 0x4FEE JUMP JUMPDEST PUSH2 0xFB8 JUMP JUMPDEST PUSH2 0x2F2 PUSH2 0x4A27 JUMP JUMPDEST PUSH1 0x0 PUSH2 0x2FD CALLER PUSH2 0x100A JUMP JUMPDEST SWAP1 POP PUSH2 0x30A DUP2 PUSH1 0x1 PUSH2 0x1039 JUMP JUMPDEST PUSH2 0x32F JUMPI PUSH1 0x40 MLOAD PUSH3 0x461BCD PUSH1 0xE5 SHL DUP2 MSTORE PUSH1 0x4 ADD PUSH2 0x326 SWAP1 PUSH2 0x53DB JUMP JUMPDEST PUSH1 0x40 MLOAD DUP1 SWAP2 SUB SWAP1 REVERT JUMPDEST PUSH2 0x140 DUP2 ADD MLOAD PUSH2 0x352 SWAP1 PUSH2 0x34D SWAP1 PUSH1 0x0 JUMPDEST PUSH1 0x20 MUL ADD MLOAD DUP4 SWAP1 DUP7 PUSH2 0x104E JUMP JUMPDEST PUSH2 0x11CE JUMP JUMPDEST DUP3 MSTORE PUSH2 0x140 DUP2 ADD MLOAD PUSH2 0x369 SWAP1 PUSH2 0x34D SWAP1 PUSH1 0x1 PUSH2 0x340 JUMP JUMPDEST PUSH1 0x20 DUP4 ADD MSTORE POP SWAP2 SWAP1 POP JUMP JUMPDEST PUSH2 0x37C PUSH2 0x4A27 JUMP JUMPDEST PUSH1 0x0 PUSH2 0x387 CALLER PUSH2 0x100A JUMP JUMPDEST SWAP1 POP PUSH2 0x394 DUP2 PUSH1 0x1 PUSH2 0x1039 JUMP JUMPDEST PUSH2 0x3B0 JUMPI PUSH1 0x40 MLOAD PUSH3 0x461BCD PUSH1 0xE5 SHL DUP2 MSTORE PUSH1 0x4 ADD PUSH2 0x326 SWAP1 PUSH2 0x53DB JUMP JUMPDEST PUSH2 0x140 DUP2 ADD MLOAD DUP1 MLOAD PUSH2 0xFFFF AND ISZERO ISZERO DUP1 PUSH2 0x3D0 JUMPI POP PUSH1 0x20 DUP2 ADD MLOAD PUSH2 0xFFFF AND ISZERO ISZERO JUMPDEST PUSH2 0x3D9 JUMPI PUSH1 0x0 DUP1 REVERT JUMPDEST PUSH1 0x0 PUSH2 0x3E3 PUSH2 0x11E5 JUMP JUMPDEST PUSH1 0x1 PUSH1 0x1 PUSH1 0xA0 SHL SUB DUP1 DUP12 AND PUSH1 0x0 SWAP1 DUP2 MSTORE PUSH1 0x20 SWAP3 DUP4 MSTORE PUSH1 0x40 DUP1 DUP3 KECCAK256 DUP8 MLOAD SWAP1 SWAP4 AND DUP3 MSTORE SWAP2 SWAP1 SWAP3 MSTORE SWAP1 KECCAK256 DUP1 SLOAD SWAP1 SWAP2 POP PUSH4 0xFFFFFFFF AND PUSH2 0x41D PUSH2 0x4A27 JUMP JUMPDEST DUP2 ISZERO DUP1 ISZERO SWAP1 PUSH2 0x42B JUMPI POP DUP10 DUP3 LT JUMPDEST DUP1 ISZERO PUSH2 0x43D JUMPI POP PUSH2 0x43D DUP6 PUSH1 0x2 PUSH2 0x1039 JUMP JUMPDEST DUP1 ISZERO PUSH2 0x452 JUMPI POP PUSH1 0x1 PUSH1 0x1 PUSH1 0xA0 SHL SUB DUP12 AND CALLER EQ ISZERO JUMPDEST ISZERO PUSH2 0x4C6 JUMPI PUSH2 0x494 DUP6 DUP13 DUP7 PUSH1 0x0 PUSH1 0x20 MUL ADD MLOAD DUP7 SLOAD DUP7 SWAP1 PUSH1 0x1 PUSH1 0x20 SHL SWAP1 DIV PUSH1 0x1 PUSH1 0x1 PUSH1 0x50 SHL SUB AND DUP13 PUSH1 0x0 JUMPDEST PUSH1 0x20 MUL ADD PUSH1 0x20 DUP2 ADD SWAP1 PUSH2 0x48F SWAP2 SWAP1 PUSH2 0x503F JUMP JUMPDEST PUSH2 0x11F2 JUMP JUMPDEST DUP2 MSTORE PUSH1 0x20 DUP5 ADD MLOAD DUP4 SLOAD PUSH2 0x4C0 SWAP2 DUP8 SWAP2 DUP15 SWAP2 SWAP1 DUP7 SWAP1 PUSH1 0x1 PUSH1 0x70 SHL SWAP1 DIV PUSH1 0x1 PUSH1 0x1 PUSH1 0x50 SHL SUB AND DUP13 PUSH1 0x1 PUSH2 0x47C JUMP JUMPDEST PUSH1 0x20 DUP3 ADD MSTORE JUMPDEST DUP4 MLOAD DUP2 MLOAD PUSH2 0x4F3 SWAP2 DUP8 SWAP2 DUP15 SWAP2 SWAP1 DUP15 SWAP1 DUP15 CALLDATALOAD DUP15 PUSH1 0x0 JUMPDEST PUSH1 0x20 MUL ADD PUSH1 0x20 DUP2 ADD SWAP1 PUSH2 0x4EE SWAP2 SWAP1 PUSH2 0x503F JUMP JUMPDEST PUSH2 0x1227 JUMP JUMPDEST DUP7 MSTORE PUSH1 0x20 DUP5 DUP2 ADD MLOAD DUP3 DUP3 ADD MLOAD PUSH2 0x517 SWAP3 DUP9 SWAP3 DUP16 SWAP3 SWAP1 SWAP2 DUP16 SWAP2 SWAP1 DUP16 ADD CALLDATALOAD DUP15 PUSH1 0x1 PUSH2 0x4DB JUMP JUMPDEST PUSH1 0x20 DUP8 ADD MSTORE POP SWAP4 SWAP10 SWAP9 POP POP POP POP POP POP POP POP POP JUMP JUMPDEST PUSH1 0x2 SLOAD PUSH1 0x1 PUSH1 0x1 PUSH1 0xA0 SHL SUB AND DUP2 JUMP JUMPDEST PUSH1 0x0 SLOAD PUSH1 0x1 PUSH1 0x20 SHL SWAP1 DIV PUSH1 0x1 PUSH1 0x1 PUSH1 0xA0 SHL SUB AND CALLER EQ PUSH2 0x56B JUMPI PUSH1 0x40 MLOAD PUSH3 0x461BCD PUSH1 0xE5 SHL DUP2 MSTORE PUSH1 0x4 ADD PUSH2 0x326 SWAP1 PUSH2 0x5643 JUMP JUMPDEST PUSH1 0x0 PUSH2 0x576 DUP5 PUSH2 0x100A JUMP JUMPDEST SWAP1 POP PUSH1 0x0 PUSH2 0x587 DUP5 PUSH2 0xFFFF AND PUSH2 0x12A9 JUMP JUMPDEST SWAP1 POP PUSH1 0x0 PUSH2 0x598 DUP6 PUSH2 0xFFFF AND PUSH2 0x12BC JUMP JUMPDEST SWAP1 POP DUP2 PUSH1 0x20 ADD MLOAD ISZERO DUP1 ISZERO PUSH2 0x5AE JUMPI POP DUP1 PUSH1 0x20 ADD MLOAD ISZERO JUMPDEST PUSH2 0x5B7 JUMPI PUSH1 0x0 DUP1 REVERT JUMPDEST PUSH2 0x140 DUP4 ADD MLOAD MLOAD PUSH2 0xFFFF DUP7 DUP2 AND SWAP2 AND EQ DUP1 PUSH2 0x5E1 JUMPI POP PUSH2 0x140 DUP4 ADD MLOAD PUSH1 0x20 ADD MLOAD PUSH2 0xFFFF DUP7 DUP2 AND SWAP2 AND EQ JUMPDEST PUSH2 0x5FD JUMPI PUSH1 0x40 MLOAD PUSH3 0x461BCD PUSH1 0xE5 SHL DUP2 MSTORE PUSH1 0x4 ADD PUSH2 0x326 SWAP1 PUSH2 0x55EA JUMP JUMPDEST PUSH2 0x608 DUP7 DUP7 DUP7 PUSH2 0x12CF JUMP JUMPDEST DUP5 PUSH2 0xFFFF AND DUP7 PUSH1 0x1 PUSH1 0x1 PUSH1 0xA0 SHL SUB AND PUSH32 0x8F868F60E49B80B48EE5DE8B7BC703CFC4B5C826A05D3EA1B00CF4159C155A90 DUP7 PUSH1 0x40 MLOAD PUSH2 0x646 SWAP2 SWAP1 PUSH2 0x58CB JUMP JUMPDEST PUSH1 0x40 MLOAD DUP1 SWAP2 SUB SWAP1 LOG3 POP POP POP POP POP POP JUMP JUMPDEST PUSH1 0x2 PUSH1 0xA SLOAD EQ ISZERO PUSH2 0x679 JUMPI PUSH1 0x40 MLOAD PUSH3 0x461BCD PUSH1 0xE5 SHL DUP2 MSTORE PUSH1 0x4 ADD PUSH2 0x326 SWAP1 PUSH2 0x56FC JUMP JUMPDEST PUSH1 0x2 PUSH1 0xA SSTORE PUSH1 0x0 PUSH2 0x689 DUP4 PUSH2 0x100A JUMP JUMPDEST SWAP1 POP PUSH2 0x697 DUP2 CALLER PUSH1 0x40 PUSH2 0x1323 JUMP JUMPDEST PUSH1 0x0 PUSH2 0x6A3 DUP5 DUP5 PUSH2 0x138D JUMP JUMPDEST SWAP1 POP TIMESTAMP DUP4 GT ISZERO DUP1 ISZERO PUSH2 0x6B7 JUMPI POP PUSH1 0x40 DUP2 ADD MLOAD ISZERO JUMPDEST PUSH2 0x6D3 JUMPI PUSH1 0x40 MLOAD PUSH3 0x461BCD PUSH1 0xE5 SHL DUP2 MSTORE PUSH1 0x4 ADD PUSH2 0x326 SWAP1 PUSH2 0x556D JUMP JUMPDEST PUSH1 0x0 PUSH2 0x6E8 DUP4 PUSH1 0x40 ADD MLOAD PUSH2 0xFFFF AND DUP6 TIMESTAMP PUSH2 0x1428 JUMP JUMPDEST SWAP1 POP PUSH1 0x0 PUSH2 0x706 PUSH2 0x34D PUSH2 0x6FF DUP6 PUSH1 0x20 ADD MLOAD PUSH2 0x1598 JUMP JUMPDEST DUP5 SWAP1 PUSH2 0x15A6 JUMP JUMPDEST SWAP1 POP PUSH1 0x0 PUSH2 0x712 PUSH2 0x15DF JUMP JUMPDEST PUSH1 0x1 PUSH1 0x1 PUSH1 0xA0 SHL SUB DUP9 AND PUSH1 0x0 SWAP1 DUP2 MSTORE PUSH1 0x20 SWAP2 DUP3 MSTORE PUSH1 0x40 DUP1 DUP3 KECCAK256 DUP10 DUP4 MSTORE SWAP1 SWAP3 MSTORE KECCAK256 PUSH2 0x140 DUP7 ADD MLOAD MLOAD SWAP1 SWAP2 POP PUSH2 0xFFFF AND ISZERO PUSH2 0x785 JUMPI PUSH2 0x140 DUP6 ADD MLOAD MLOAD PUSH2 0xFFFF AND PUSH1 0x0 SWAP1 DUP2 MSTORE PUSH1 0x20 DUP3 SWAP1 MSTORE PUSH1 0x40 SWAP1 KECCAK256 SLOAD PUSH1 0x1 PUSH1 0x1 PUSH1 0x50 SHL SUB AND ISZERO PUSH2 0x785 JUMPI PUSH1 0x40 MLOAD PUSH3 0x461BCD PUSH1 0xE5 SHL DUP2 MSTORE PUSH1 0x4 ADD PUSH2 0x326 SWAP1 PUSH2 0x545F JUMP JUMPDEST PUSH2 0x140 DUP6 ADD MLOAD PUSH1 0x20 ADD MLOAD PUSH2 0xFFFF AND ISZERO PUSH2 0x7DC JUMPI PUSH2 0x140 DUP6 ADD MLOAD PUSH1 0x20 SWAP1 DUP2 ADD MLOAD PUSH2 0xFFFF AND PUSH1 0x0 SWAP1 DUP2 MSTORE SWAP1 DUP3 SWAP1 MSTORE PUSH1 0x40 SWAP1 KECCAK256 SLOAD PUSH1 0x1 PUSH1 0x1 PUSH1 0x50 SHL SUB AND ISZERO PUSH2 0x7DC JUMPI PUSH1 0x40 MLOAD PUSH3 0x461BCD PUSH1 0xE5 SHL DUP2 MSTORE PUSH1 0x4 ADD PUSH2 0x326 SWAP1 PUSH2 0x545F JUMP JUMPDEST DUP2 DUP5 PUSH1 0x80 ADD MLOAD LT ISZERO PUSH2 0x85A JUMPI PUSH1 0xA0 DUP5 ADD MLOAD ISZERO PUSH2 0x80A JUMPI PUSH1 0x40 MLOAD PUSH3 0x461BCD PUSH1 0xE5 SHL DUP2 MSTORE PUSH1 0x4 ADD PUSH2 0x326 SWAP1 PUSH2 0x53B0 JUMP JUMPDEST PUSH1 0x0 PUSH2 0x81B DUP6 PUSH1 0x80 ADD MLOAD DUP5 SUB PUSH2 0x15EC JUMP JUMPDEST SWAP1 POP PUSH1 0x0 PUSH2 0x836 PUSH2 0x34D DUP9 PUSH1 0x0 ADD MLOAD DUP10 PUSH1 0x40 ADD MLOAD DUP6 DUP13 PUSH2 0x1602 JUMP JUMPDEST PUSH1 0x80 DUP8 ADD MLOAD SWAP1 SWAP2 POP PUSH2 0x848 SWAP1 DUP3 PUSH2 0x172A JUMP JUMPDEST PUSH1 0x80 DUP8 ADD MSTORE PUSH2 0x857 DUP7 DUP11 PUSH2 0x173C JUMP JUMPDEST POP POP JUMPDEST PUSH2 0x875 DUP8 DUP7 PUSH1 0x40 ADD MLOAD PUSH2 0x870 DUP8 PUSH1 0x20 ADD MLOAD PUSH2 0x1598 JUMP JUMPDEST PUSH2 0x18A6 JUMP JUMPDEST POP PUSH2 0x883 DUP5 DUP7 DUP6 DUP10 TIMESTAMP PUSH2 0x19AC JUMP JUMPDEST POP POP PUSH1 0x1 PUSH1 0xA SSTORE POP POP POP POP POP JUMP JUMPDEST PUSH2 0x899 PUSH2 0x4A45 JUMP JUMPDEST PUSH2 0x8A3 DUP4 DUP4 PUSH2 0x138D JUMP JUMPDEST SWAP4 SWAP3 POP POP POP JUMP JUMPDEST PUSH1 0x60 DUP5 PUSH2 0x8B6 JUMPI PUSH2 0xA6D JUMP JUMPDEST PUSH1 0x0 PUSH2 0x8C1 CALLER PUSH2 0x100A JUMP JUMPDEST SWAP1 POP PUSH2 0x8CE DUP2 PUSH1 0x1 PUSH2 0x1039 JUMP JUMPDEST PUSH2 0x8EA JUMPI PUSH1 0x40 MLOAD PUSH3 0x461BCD PUSH1 0xE5 SHL DUP2 MSTORE PUSH1 0x4 ADD PUSH2 0x326 SWAP1 PUSH2 0x53DB JUMP JUMPDEST PUSH1 0x0 PUSH2 0x8FA DUP3 DUP12 DUP12 DUP12 DUP12 DUP12 PUSH2 0x1B72 JUMP JUMPDEST POP SWAP1 POP PUSH1 0x0 PUSH2 0x90C DUP11 PUSH2 0xFFFF AND PUSH2 0x12A9 JUMP JUMPDEST SWAP1 POP PUSH1 0x0 DUP1 PUSH1 0x4 DUP4 PUSH1 0x60 ADD MLOAD PUSH1 0x5 DUP2 GT ISZERO PUSH2 0x923 JUMPI INVALID JUMPDEST EQ PUSH2 0x93A JUMPI PUSH2 0x935 DUP13 PUSH2 0xFFFF AND PUSH2 0x12BC JUMP JUMPDEST PUSH2 0x93C JUMP JUMPDEST DUP3 JUMPDEST SWAP1 POP PUSH1 0x0 PUSH2 0x96D PUSH2 0x34D PUSH2 0x966 PUSH2 0x961 DUP9 DUP11 PUSH2 0x160 ADD MLOAD PUSH2 0x1D36 SWAP1 SWAP2 SWAP1 PUSH4 0xFFFFFFFF AND JUMP JUMPDEST PUSH2 0x1598 JUMP JUMPDEST DUP5 SWAP1 PUSH2 0x1D61 JUMP JUMPDEST SWAP1 POP PUSH1 0x0 PUSH2 0x97B DUP4 ADDRESS PUSH2 0x1D9D JUMP JUMPDEST DUP4 MLOAD PUSH1 0x40 MLOAD PUSH4 0x7EFBE0E7 PUSH1 0xE1 SHL DUP2 MSTORE SWAP2 SWAP3 POP CALLER SWAP2 PUSH4 0xFDF7C1CE SWAP2 PUSH2 0x9A7 SWAP2 DUP7 SWAP1 DUP16 SWAP1 DUP16 SWAP1 PUSH1 0x4 ADD PUSH2 0x51FE JUMP JUMPDEST PUSH1 0x0 PUSH1 0x40 MLOAD DUP1 DUP4 SUB DUP2 PUSH1 0x0 DUP8 DUP1 EXTCODESIZE ISZERO DUP1 ISZERO PUSH2 0x9C1 JUMPI PUSH1 0x0 DUP1 REVERT JUMPDEST POP GAS CALL ISZERO DUP1 ISZERO PUSH2 0x9D5 JUMPI RETURNDATASIZE PUSH1 0x0 DUP1 RETURNDATACOPY RETURNDATASIZE PUSH1 0x0 REVERT JUMPDEST POP POP POP POP PUSH1 0x40 MLOAD RETURNDATASIZE PUSH1 0x0 DUP3 RETURNDATACOPY PUSH1 0x1F RETURNDATASIZE SWAP1 DUP2 ADD PUSH1 0x1F NOT AND DUP3 ADD PUSH1 0x40 MSTORE PUSH2 0x9FD SWAP2 SWAP1 DUP2 ADD SWAP1 PUSH2 0x4F15 JUMP JUMPDEST SWAP8 POP PUSH1 0x0 PUSH2 0xA0B DUP5 ADDRESS PUSH2 0x1D9D JUMP JUMPDEST SWAP1 POP PUSH2 0xA17 DUP2 DUP4 PUSH2 0x1E47 JUMP JUMPDEST SWAP5 POP DUP3 DUP6 LT ISZERO PUSH2 0xA39 JUMPI PUSH1 0x40 MLOAD PUSH3 0x461BCD PUSH1 0xE5 SHL DUP2 MSTORE PUSH1 0x4 ADD PUSH2 0x326 SWAP1 PUSH2 0x5724 JUMP JUMPDEST POP PUSH1 0x4 SWAP3 POP PUSH2 0xA46 SWAP2 POP POP JUMP JUMPDEST DUP3 PUSH1 0x60 ADD MLOAD PUSH1 0x5 DUP2 GT ISZERO PUSH2 0xA56 JUMPI INVALID JUMPDEST EQ PUSH2 0xA68 JUMPI PUSH2 0xA66 DUP3 DUP13 DUP4 PUSH2 0x1E5C JUMP JUMPDEST POP JUMPDEST POP POP POP POP JUMPDEST SWAP8 SWAP7 POP POP POP POP POP POP POP JUMP JUMPDEST PUSH1 0x0 SLOAD PUSH1 0x1 PUSH1 0x20 SHL SWAP1 DIV PUSH1 0x1 PUSH1 0x1 PUSH1 0xA0 SHL SUB AND CALLER EQ PUSH2 0xAA9 JUMPI PUSH1 0x40 MLOAD PUSH3 0x461BCD PUSH1 0xE5 SHL DUP2 MSTORE PUSH1 0x4 ADD PUSH2 0x326 SWAP1 PUSH2 0x5643 JUMP JUMPDEST PUSH2 0xAB3 DUP3 DUP3 PUSH2 0x1F43 JUMP JUMPDEST DUP2 PUSH1 0x1 PUSH1 0x1 PUSH1 0xA0 SHL SUB AND PUSH32 0x7C51C6AA77346C54CB051D9E792F9B7BDE5C28A9B57E6FB2D2DD727B38438CA9 DUP3 PUSH1 0x40 MLOAD PUSH2 0xAEC SWAP2 SWAP1 PUSH2 0x52A6 JUMP JUMPDEST PUSH1 0x40 MLOAD DUP1 SWAP2 SUB SWAP1 LOG2 POP POP JUMP JUMPDEST PUSH1 0x0 DUP1 PUSH1 0x0 PUSH2 0xB05 PUSH2 0x1FA3 JUMP JUMPDEST PUSH1 0x1 PUSH1 0x1 PUSH1 0xA0 SHL SUB SWAP1 SWAP6 AND PUSH1 0x0 SWAP1 DUP2 MSTORE PUSH1 0x20 SWAP6 DUP7 MSTORE PUSH1 0x40 DUP1 DUP3 KECCAK256 PUSH2 0xFFFF SWAP1 SWAP7 AND DUP3 MSTORE SWAP5 SWAP1 SWAP6 MSTORE POP POP POP SWAP1 KECCAK256 SLOAD PUSH1 0x1 PUSH1 0x1 PUSH1 0x50 SHL SUB PUSH1 0x1 PUSH1 0x50 SHL DUP3 DIV DUP2 AND SWAP3 SWAP2 AND SWAP1 JUMP JUMPDEST PUSH1 0x0 DUP1 PUSH1 0x0 PUSH2 0xB56 DUP6 PUSH2 0x1FB0 JUMP JUMPDEST SWAP1 POP PUSH1 0x0 PUSH2 0xB68 DUP3 PUSH1 0x0 ADD MLOAD DUP7 PUSH2 0x138D JUMP JUMPDEST SWAP1 POP PUSH2 0xB75 DUP3 DUP3 DUP8 PUSH2 0x1FD4 JUMP JUMPDEST SWAP4 POP SWAP4 POP POP POP JUMPDEST SWAP3 POP SWAP3 SWAP1 POP JUMP JUMPDEST PUSH1 0x1 SLOAD PUSH1 0x1 PUSH1 0x1 PUSH1 0xA0 SHL SUB AND DUP2 JUMP JUMPDEST PUSH1 0x0 SLOAD PUSH1 0x1 PUSH1 0x20 SHL SWAP1 DIV PUSH1 0x1 PUSH1 0x1 PUSH1 0xA0 SHL SUB AND CALLER EQ PUSH2 0xBC3 JUMPI PUSH1 0x40 MLOAD PUSH3 0x461BCD PUSH1 0xE5 SHL DUP2 MSTORE PUSH1 0x4 ADD PUSH2 0x326 SWAP1 PUSH2 0x5643 JUMP JUMPDEST PUSH2 0xBCD DUP4 DUP4 PUSH2 0x208D JUMP JUMPDEST PUSH2 0xBE7 DUP4 PUSH2 0xBE1 PUSH1 0x40 DUP6 ADD PUSH1 0x20 DUP7 ADD PUSH2 0x4FBA JUMP JUMPDEST DUP4 PUSH2 0x12CF JUMP JUMPDEST PUSH1 0x0 PUSH1 0x1 DUP1 PUSH2 0xBF9 PUSH1 0x20 DUP7 ADD DUP7 PUSH2 0x4FBA JUMP JUMPDEST AND PUSH2 0xFFFF AND EQ SWAP1 POP DUP4 PUSH1 0x1 PUSH1 0x1 PUSH1 0xA0 SHL SUB AND PUSH32 0xB441D7CA09ABC712B4504256717707CE40E8D43895266B46ABF9CD58619C07DC DUP3 DUP5 PUSH1 0x40 MLOAD PUSH2 0xC3C SWAP3 SWAP2 SWAP1 PUSH2 0x52B1 JUMP JUMPDEST PUSH1 0x40 MLOAD DUP1 SWAP2 SUB SWAP1 LOG2 POP POP POP POP JUMP JUMPDEST PUSH1 0x0 SLOAD PUSH1 0x1 PUSH1 0x20 SHL SWAP1 DIV PUSH1 0x1 PUSH1 0x1 PUSH1 0xA0 SHL SUB AND DUP2 JUMP JUMPDEST PUSH1 0x0 DUP1 PUSH1 0x0 DUP1 PUSH2 0xC6E PUSH2 0x15DF JUMP JUMPDEST PUSH1 0x1 PUSH1 0x1 PUSH1 0xA0 SHL SUB SWAP1 SWAP8 AND PUSH1 0x0 SWAP1 DUP2 MSTORE PUSH1 0x20 SWAP8 DUP9 MSTORE PUSH1 0x40 DUP1 DUP3 KECCAK256 SWAP7 DUP3 MSTORE SWAP6 DUP9 MSTORE DUP6 DUP2 KECCAK256 PUSH2 0xFFFF SWAP1 SWAP8 AND DUP2 MSTORE SWAP6 SWAP1 SWAP7 MSTORE POP POP POP SWAP1 KECCAK256 SLOAD PUSH1 0x1 PUSH1 0x1 PUSH1 0x50 SHL SUB DUP1 DUP3 AND SWAP4 PUSH1 0x1 PUSH1 0x50 SHL DUP4 DIV DUP3 AND SWAP4 POP PUSH1 0x1 PUSH1 0xA0 SHL SWAP1 SWAP3 DIV AND SWAP1 JUMP JUMPDEST PUSH1 0x0 SLOAD PUSH1 0x1 PUSH1 0x20 SHL SWAP1 DIV PUSH1 0x1 PUSH1 0x1 PUSH1 0xA0 SHL SUB AND CALLER EQ PUSH2 0xCF7 JUMPI PUSH1 0x40 MLOAD PUSH3 0x461BCD PUSH1 0xE5 SHL DUP2 MSTORE PUSH1 0x4 ADD PUSH2 0x326 SWAP1 PUSH2 0x5643 JUMP JUMPDEST PUSH1 0x0 PUSH2 0xD02 DUP4 PUSH2 0x100A JUMP JUMPDEST SWAP1 POP PUSH2 0xD13 DUP4 DUP3 PUSH1 0x40 ADD MLOAD DUP5 PUSH2 0x12CF JUMP JUMPDEST PUSH1 0x1 PUSH1 0x1 PUSH1 0xA0 SHL SUB DUP4 AND PUSH32 0xB441D7CA09ABC712B4504256717707CE40E8D43895266B46ABF9CD58619C07DC PUSH2 0xD49 DUP4 PUSH1 0x1 PUSH2 0x1039 JUMP JUMPDEST DUP5 PUSH1 0x40 MLOAD PUSH2 0xD58 SWAP3 SWAP2 SWAP1 PUSH2 0x52B1 JUMP JUMPDEST PUSH1 0x40 MLOAD DUP1 SWAP2 SUB SWAP1 LOG2 POP POP POP JUMP JUMPDEST PUSH20 0x0 SWAP1 JUMP JUMPDEST PUSH1 0x2 PUSH1 0xA SLOAD EQ ISZERO PUSH2 0xDA0 JUMPI PUSH1 0x40 MLOAD PUSH3 0x461BCD PUSH1 0xE5 SHL DUP2 MSTORE PUSH1 0x4 ADD PUSH2 0x326 SWAP1 PUSH2 0x56FC JUMP JUMPDEST PUSH1 0x2 PUSH1 0xA SSTORE PUSH1 0x0 PUSH2 0xDB0 CALLER PUSH2 0x100A JUMP JUMPDEST SWAP1 POP PUSH2 0xDBD DUP2 PUSH1 0x1 PUSH2 0x1039 JUMP JUMPDEST PUSH2 0xDD9 JUMPI PUSH1 0x40 MLOAD PUSH3 0x461BCD PUSH1 0xE5 SHL DUP2 MSTORE PUSH1 0x4 ADD PUSH2 0x326 SWAP1 PUSH2 0x53DB JUMP JUMPDEST PUSH2 0xDE4 DUP2 PUSH1 0x80 PUSH2 0x1039 JUMP JUMPDEST ISZERO PUSH2 0xDEF JUMPI PUSH1 0x1 PUSH1 0xA SSTORE JUMPDEST PUSH1 0x0 PUSH2 0xDFB CALLER DUP8 PUSH2 0x138D JUMP JUMPDEST SWAP1 POP PUSH1 0x0 PUSH2 0xE1D DUP4 PUSH1 0x0 ADD MLOAD PUSH2 0xE10 DUP9 PUSH2 0x15EC JUMP JUMPDEST DUP6 SWAP2 SWAP1 DUP11 PUSH1 0x0 DUP11 DUP11 PUSH2 0x240A JUMP JUMPDEST PUSH1 0x80 DUP4 ADD MLOAD SWAP1 SWAP2 POP PUSH2 0xE2F SWAP1 DUP8 PUSH2 0x1E47 JUMP JUMPDEST PUSH1 0x80 DUP4 ADD MSTORE PUSH1 0xA0 DUP3 ADD MLOAD PUSH2 0xE43 SWAP1 DUP3 PUSH2 0x172A JUMP JUMPDEST PUSH1 0xA0 DUP4 ADD MSTORE PUSH2 0xE52 DUP3 CALLER PUSH2 0x173C JUMP JUMPDEST PUSH1 0x0 PUSH2 0xE75 DUP4 CALLER DUP6 PUSH1 0x60 ADD MLOAD DUP7 PUSH1 0x20 ADD MLOAD DUP9 PUSH2 0x24B3 SWAP1 SWAP5 SWAP4 SWAP3 SWAP2 SWAP1 PUSH4 0xFFFFFFFF AND JUMP JUMPDEST POP SWAP1 POP DUP1 DUP5 PUSH1 0xA0 ADD MLOAD SGT ISZERO PUSH2 0xE9C JUMPI PUSH1 0x40 MLOAD PUSH3 0x461BCD PUSH1 0xE5 SHL DUP2 MSTORE PUSH1 0x4 ADD PUSH2 0x326 SWAP1 PUSH2 0x569F JUMP JUMPDEST DUP8 CALLER PUSH1 0x1 PUSH1 0x1 PUSH1 0xA0 SHL SUB AND PUSH32 0xBBA43506B1F3723ADD796BF603ADDE56BC018392A95775B9F76C31213B4161BB DUP10 DUP6 PUSH1 0x40 MLOAD PUSH2 0xED8 SWAP3 SWAP2 SWAP1 PUSH2 0x5306 JUMP JUMPDEST PUSH1 0x40 MLOAD DUP1 SWAP2 SUB SWAP1 LOG3 POP POP PUSH1 0x1 PUSH1 0xA SSTORE POP POP POP POP POP POP JUMP JUMPDEST PUSH1 0x0 SLOAD PUSH1 0x1 PUSH1 0x20 SHL SWAP1 DIV PUSH1 0x1 PUSH1 0x1 PUSH1 0xA0 SHL SUB AND CALLER EQ PUSH2 0xF20 JUMPI PUSH1 0x40 MLOAD PUSH3 0x461BCD PUSH1 0xE5 SHL DUP2 MSTORE PUSH1 0x4 ADD PUSH2 0x326 SWAP1 PUSH2 0x5643 JUMP JUMPDEST PUSH1 0x0 PUSH2 0xF2B DUP8 PUSH2 0x100A JUMP JUMPDEST SWAP1 POP PUSH2 0xF3C DUP8 DUP3 PUSH1 0x40 ADD MLOAD DUP9 PUSH2 0x12CF JUMP JUMPDEST PUSH2 0xF49 DUP2 DUP7 DUP7 DUP7 DUP7 PUSH2 0x2533 JUMP JUMPDEST POP POP PUSH1 0x1 PUSH1 0x1 PUSH1 0xA0 SHL SUB DUP8 AND PUSH32 0xB441D7CA09ABC712B4504256717707CE40E8D43895266B46ABF9CD58619C07DC PUSH2 0xF81 DUP4 PUSH1 0x1 PUSH2 0x1039 JUMP JUMPDEST DUP9 PUSH1 0x40 MLOAD PUSH2 0xF90 SWAP3 SWAP2 SWAP1 PUSH2 0x52B1 JUMP JUMPDEST PUSH1 0x40 MLOAD DUP1 SWAP2 SUB SWAP1 LOG2 POP POP POP POP POP POP POP JUMP JUMPDEST PUSH2 0xFA9 PUSH2 0x4A84 JUMP JUMPDEST PUSH2 0xFB2 DUP3 PUSH2 0x1FB0 JUMP JUMPDEST SWAP3 SWAP2 POP POP JUMP JUMPDEST PUSH1 0x0 DUP1 PUSH1 0x0 PUSH2 0xFC6 CALLER PUSH2 0x100A JUMP JUMPDEST SWAP1 POP PUSH2 0xFD3 DUP2 PUSH1 0x1 PUSH2 0x1039 JUMP JUMPDEST PUSH2 0xFEF JUMPI PUSH1 0x40 MLOAD PUSH3 0x461BCD PUSH1 0xE5 SHL DUP2 MSTORE PUSH1 0x4 ADD PUSH2 0x326 SWAP1 PUSH2 0x53DB JUMP JUMPDEST PUSH2 0xFFC DUP2 DUP9 DUP9 DUP9 DUP9 PUSH2 0x2533 JUMP JUMPDEST SWAP3 POP SWAP3 POP POP SWAP5 POP SWAP5 SWAP3 POP POP POP JUMP JUMPDEST PUSH2 0x1012 PUSH2 0x4A84 JUMP JUMPDEST PUSH2 0x101B DUP3 PUSH2 0x2657 JUMP JUMPDEST SWAP1 POP PUSH2 0x102E DUP2 PUSH1 0x40 ADD MLOAD PUSH2 0xFFFF AND PUSH2 0x27F0 JUMP JUMPDEST PUSH2 0x160 DUP3 ADD MSTORE SWAP2 SWAP1 POP JUMP JUMPDEST PUSH1 0x20 SWAP2 SWAP1 SWAP2 ADD MLOAD DUP2 AND PUSH2 0xFFFF SWAP1 DUP2 AND SWAP2 AND EQ SWAP1 JUMP JUMPDEST PUSH1 0x0 PUSH2 0xFFFF DUP4 AND PUSH2 0x1061 JUMPI POP PUSH1 0x0 PUSH2 0x8A3 JUMP JUMPDEST PUSH1 0x0 PUSH2 0x106B PUSH2 0x15DF JUMP JUMPDEST DUP6 MLOAD PUSH1 0x1 PUSH1 0x1 PUSH1 0xA0 SHL SUB AND PUSH1 0x0 SWAP1 DUP2 MSTORE PUSH1 0x20 SWAP2 DUP3 MSTORE PUSH1 0x40 DUP1 DUP3 KECCAK256 DUP7 DUP4 MSTORE DUP4 MSTORE DUP1 DUP3 KECCAK256 PUSH2 0xFFFF DUP9 AND DUP4 MSTORE SWAP1 SWAP3 MSTORE KECCAK256 DUP1 SLOAD SWAP1 SWAP2 POP PUSH1 0x1 PUSH1 0xF0 SHL SWAP1 DIV PUSH1 0xFF AND ISZERO PUSH2 0x10C4 JUMPI PUSH1 0x40 MLOAD PUSH3 0x461BCD PUSH1 0xE5 SHL DUP2 MSTORE PUSH1 0x4 ADD PUSH2 0x326 SWAP1 PUSH2 0x5614 JUMP JUMPDEST DUP1 SLOAD PUSH1 0x40 DUP7 ADD MLOAD PUSH1 0x1 PUSH1 0x1 PUSH1 0x50 SHL SUB SWAP1 SWAP2 AND SWAP1 PUSH1 0x0 SWAP1 PUSH2 0x10E7 SWAP1 PUSH2 0xFFFF AND PUSH2 0x283C JUMP JUMPDEST SWAP1 POP PUSH1 0x0 PUSH2 0x10F8 DUP8 PUSH2 0xFFFF AND PUSH2 0x283C JUMP JUMPDEST SWAP1 POP PUSH1 0x0 PUSH2 0x1106 DUP4 DUP4 PUSH2 0x299F JUMP JUMPDEST SWAP1 POP PUSH2 0x1129 DUP2 PUSH2 0x1123 DUP6 PUSH1 0x0 ADD MLOAD DUP8 PUSH2 0x29C4 SWAP1 SWAP2 SWAP1 PUSH4 0xFFFFFFFF AND JUMP JUMPDEST SWAP1 PUSH2 0x2A12 JUMP JUMPDEST SWAP6 POP PUSH2 0x113C PUSH2 0x1137 DUP8 PUSH2 0x11CE JUMP JUMPDEST PUSH2 0x2A43 JUMP JUMPDEST DUP6 SLOAD PUSH1 0xFF PUSH1 0xF0 SHL NOT PUSH1 0x1 PUSH1 0x1 PUSH1 0x50 SHL SUB SWAP3 SWAP1 SWAP3 AND PUSH1 0x1 PUSH1 0xA0 SHL MUL PUSH10 0xFFFFFFFFFFFFFFFFFFFF PUSH1 0xA0 SHL NOT SWAP1 SWAP2 AND OR AND PUSH1 0x1 PUSH1 0xF0 SHL OR DUP6 SSTORE DUP9 MLOAD PUSH1 0x40 MLOAD DUP9 SWAP2 PUSH2 0xFFFF DUP12 AND SWAP2 PUSH1 0x1 PUSH1 0x1 PUSH1 0xA0 SHL SUB SWAP1 SWAP2 AND SWAP1 PUSH32 0x744B6E0D7DB0666A7C17A4868D11D5F7F909A7B04D458B5EACE97646BA7A0EE8 SWAP1 PUSH2 0x11BA SWAP1 DUP12 SWAP1 DUP8 SWAP1 PUSH2 0x5306 JUMP JUMPDEST PUSH1 0x40 MLOAD DUP1 SWAP2 SUB SWAP1 LOG4 POP POP POP POP POP SWAP4 SWAP3 POP POP POP JUMP JUMPDEST PUSH1 0x0 DUP1 DUP3 SLT ISZERO PUSH2 0x11DD JUMPI PUSH1 0x0 DUP1 REVERT JUMPDEST POP DUP1 JUMPDEST SWAP2 SWAP1 POP JUMP JUMPDEST PUSH1 0x0 DUP1 PUSH2 0xFB2 PUSH1 0x1A PUSH2 0x2A59 JUMP JUMPDEST PUSH1 0x0 PUSH2 0xFFFF DUP6 AND ISZERO DUP1 ISZERO SWAP1 PUSH2 0x1206 JUMPI POP DUP3 ISZERO ISZERO JUMPDEST ISZERO PUSH2 0x121D JUMPI PUSH2 0x1219 DUP8 DUP8 DUP8 DUP8 DUP8 DUP8 PUSH2 0x1B72 JUMP JUMPDEST POP SWAP1 POP JUMPDEST SWAP7 SWAP6 POP POP POP POP POP POP JUMP JUMPDEST PUSH1 0x0 PUSH2 0xFFFF DUP7 AND ISZERO DUP1 PUSH2 0x1238 JUMPI POP DUP3 ISZERO JUMPDEST DUP1 ISZERO PUSH2 0x1242 JUMPI POP DUP4 ISZERO JUMPDEST ISZERO PUSH2 0x124F JUMPI POP PUSH1 0x0 PUSH2 0xA6D JUMP JUMPDEST PUSH1 0x0 PUSH2 0x125F DUP10 DUP10 DUP10 DUP10 DUP9 DUP9 PUSH2 0x2A72 JUMP JUMPDEST POP SWAP1 POP PUSH2 0x126C DUP2 DUP7 PUSH2 0x2C18 JUMP JUMPDEST SWAP1 POP PUSH1 0x0 DUP2 SLT ISZERO PUSH2 0x128F JUMPI PUSH1 0x40 MLOAD PUSH3 0x461BCD PUSH1 0xE5 SHL DUP2 MSTORE PUSH1 0x4 ADD PUSH2 0x326 SWAP1 PUSH2 0x5536 JUMP JUMPDEST DUP9 MLOAD PUSH2 0x129C SWAP1 DUP9 DUP4 PUSH2 0x2C2E JUMP JUMPDEST SWAP10 SWAP9 POP POP POP POP POP POP POP POP POP JUMP JUMPDEST PUSH2 0x12B1 PUSH2 0x4B09 JUMP JUMPDEST PUSH2 0xFB2 DUP3 PUSH1 0x0 PUSH2 0x2CD6 JUMP JUMPDEST PUSH2 0x12C4 PUSH2 0x4B09 JUMP JUMPDEST PUSH2 0xFB2 DUP3 PUSH1 0x1 PUSH2 0x2CD6 JUMP JUMPDEST PUSH1 0x0 PUSH2 0x12D9 PUSH2 0x1FA3 JUMP JUMPDEST PUSH1 0x1 PUSH1 0x1 PUSH1 0xA0 SHL SUB SWAP1 SWAP5 AND PUSH1 0x0 SWAP1 DUP2 MSTORE PUSH1 0x20 SWAP5 DUP6 MSTORE PUSH1 0x40 DUP1 DUP3 KECCAK256 PUSH2 0xFFFF SWAP1 SWAP6 AND DUP3 MSTORE SWAP4 SWAP1 SWAP5 MSTORE POP SWAP2 KECCAK256 DUP1 SLOAD PUSH1 0x1 PUSH1 0x1 PUSH1 0x50 SHL SUB SWAP1 SWAP3 AND PUSH1 0x1 PUSH1 0x1 PUSH1 0x50 SHL SUB NOT SWAP1 SWAP3 AND SWAP2 SWAP1 SWAP2 OR SWAP1 SSTORE JUMP JUMPDEST PUSH2 0x132D DUP4 DUP3 PUSH2 0x1039 JUMP JUMPDEST ISZERO PUSH2 0x1360 JUMPI DUP3 MLOAD PUSH1 0x1 PUSH1 0x1 PUSH1 0xA0 SHL SUB AND CALLER EQ PUSH2 0x135B JUMPI PUSH1 0x40 MLOAD PUSH3 0x461BCD PUSH1 0xE5 SHL DUP2 MSTORE PUSH1 0x4 ADD PUSH2 0x326 SWAP1 PUSH2 0x53FB JUMP JUMPDEST PUSH2 0x1388 JUMP JUMPDEST PUSH1 0x1 PUSH1 0x1 PUSH1 0xA0 SHL SUB DUP3 AND CALLER EQ PUSH2 0x1388 JUMPI PUSH1 0x40 MLOAD PUSH3 0x461BCD PUSH1 0xE5 SHL DUP2 MSTORE PUSH1 0x4 ADD PUSH2 0x326 SWAP1 PUSH2 0x53FB JUMP JUMPDEST POP POP POP JUMP JUMPDEST PUSH2 0x1395 PUSH2 0x4A45 JUMP JUMPDEST PUSH1 0x0 PUSH2 0x139F PUSH2 0x2D84 JUMP JUMPDEST PUSH1 0x1 PUSH1 0x1 PUSH1 0xA0 SHL SUB SWAP1 SWAP5 AND PUSH1 0x0 SWAP1 DUP2 MSTORE PUSH1 0x20 SWAP5 DUP6 MSTORE PUSH1 0x40 DUP1 DUP3 KECCAK256 DUP6 DUP4 MSTORE DUP7 MSTORE DUP1 DUP3 KECCAK256 SWAP5 DUP5 MSTORE DUP5 SLOAD PUSH1 0x1 PUSH1 0x1 PUSH1 0x50 SHL SUB DUP1 DUP3 AND SWAP1 SWAP4 SUB SWAP7 DUP6 ADD SWAP7 SWAP1 SWAP7 MSTORE PUSH1 0xFF PUSH1 0x1 PUSH1 0xF0 SHL DUP8 DIV AND ISZERO ISZERO SWAP1 DUP5 ADD MSTORE PUSH1 0x1 PUSH1 0x50 SHL DUP1 DUP7 DIV DUP3 AND PUSH1 0x80 DUP6 ADD MSTORE PUSH1 0x1 SWAP1 SWAP5 ADD SLOAD DUP1 DUP3 AND PUSH1 0xA0 DUP6 ADD MSTORE PUSH1 0x1 PUSH1 0xA0 SHL SWAP1 SWAP6 DIV AND PUSH1 0x60 DUP4 ADD MSTORE POP SWAP2 DIV PUSH1 0x9 SWAP1 DUP2 SIGNEXTEND SWAP1 SIGNEXTEND PUSH1 0xC0 DUP3 ADD MSTORE SWAP1 JUMP JUMPDEST PUSH2 0x1430 PUSH2 0x4B30 JUMP JUMPDEST PUSH1 0x0 DUP1 PUSH2 0x143D DUP7 DUP7 PUSH2 0x2D91 JUMP JUMPDEST SWAP2 POP SWAP2 POP DUP2 PUSH1 0x0 EQ ISZERO PUSH2 0x156D JUMPI PUSH1 0x0 PUSH2 0x1455 DUP8 PUSH2 0x2DDA JUMP JUMPDEST SWAP2 SWAP5 POP SWAP1 SWAP3 POP SWAP1 POP PUSH1 0x1 PUSH1 0x1 PUSH1 0xA0 SHL SUB DUP2 AND ISZERO PUSH2 0x156B JUMPI PUSH1 0x0 PUSH2 0x1476 PUSH2 0x2E9D JUMP JUMPDEST SWAP1 POP DUP6 PUSH1 0x0 LT DUP1 ISZERO PUSH2 0x1488 JUMPI POP DUP6 DUP8 GT ISZERO JUMPDEST DUP1 ISZERO PUSH2 0x1499 JUMPI POP PUSH5 0xFFFFFFFFFF DUP7 GT ISZERO JUMPDEST PUSH2 0x14A2 JUMPI PUSH1 0x0 DUP1 REVERT JUMPDEST DUP4 PUSH1 0x0 SLT DUP1 ISZERO PUSH2 0x14B9 JUMPI POP PUSH1 0x1 PUSH1 0x1 PUSH1 0x80 SHL SUB DUP5 SGT ISZERO JUMPDEST PUSH2 0x14C2 JUMPI PUSH1 0x0 DUP1 REVERT JUMPDEST PUSH1 0x0 DUP9 DUP2 MSTORE PUSH1 0x20 DUP3 DUP2 MSTORE PUSH1 0x40 DUP1 DUP4 KECCAK256 DUP11 DUP5 MSTORE SWAP1 SWAP2 MSTORE SWAP1 DUP2 SWAP1 KECCAK256 DUP1 SLOAD PUSH5 0xFFFFFFFFFF NOT AND PUSH5 0xFFFFFFFFFF DUP10 AND OR PUSH21 0xFFFFFFFFFFFFFFFFFFFFFFFFFFFFFFFF0000000000 NOT AND PUSH6 0x10000000000 PUSH1 0x1 PUSH1 0x1 PUSH1 0x80 SHL SUB DUP9 AND MUL OR PUSH1 0xFF PUSH1 0xA8 SHL NOT AND PUSH1 0x1 PUSH1 0xA8 SHL PUSH1 0xFF DUP8 AND MUL OR DUP2 SSTORE SWAP1 MLOAD DUP9 SWAP1 DUP11 SWAP1 PUSH32 0xFDFA6885701E2F1F42E4187B9231CF81C1FE23671EF64FA46F34DDB56C1DC18 SWAP1 PUSH2 0x1560 SWAP1 DUP10 SWAP1 PUSH2 0x588D JUMP JUMPDEST PUSH1 0x40 MLOAD DUP1 SWAP2 SUB SWAP1 LOG3 POP POP JUMPDEST POP JUMPDEST PUSH1 0x40 DUP1 MLOAD PUSH1 0x60 DUP2 ADD DUP3 MSTORE PUSH1 0x0 DUP2 MSTORE PUSH1 0x20 DUP2 ADD SWAP4 SWAP1 SWAP4 MSTORE PUSH1 0xFF SWAP1 SWAP2 AND PUSH1 0xA EXP SWAP1 DUP3 ADD MSTORE SWAP1 POP SWAP4 SWAP3 POP POP POP JUMP JUMPDEST PUSH1 0x0 PUSH2 0xFB2 PUSH1 0x0 NOT DUP4 PUSH2 0x29C4 JUMP JUMPDEST PUSH1 0x0 DUP1 PUSH2 0x15D7 DUP5 PUSH1 0x20 ADD MLOAD PUSH2 0x1123 DUP7 PUSH1 0x40 ADD MLOAD PUSH2 0x15D1 PUSH5 0x2540BE400 DUP9 PUSH2 0x29C4 SWAP1 SWAP2 SWAP1 PUSH4 0xFFFFFFFF AND JUMP JUMPDEST SWAP1 PUSH2 0x29C4 JUMP JUMPDEST SWAP5 SWAP4 POP POP POP POP JUMP JUMPDEST PUSH1 0x0 DUP1 PUSH2 0xFB2 PUSH1 0x18 PUSH2 0x2A59 JUMP JUMPDEST PUSH1 0x0 PUSH1 0x1 PUSH1 0x1 PUSH1 0xFF SHL SUB DUP3 GT ISZERO PUSH2 0x11DD JUMPI PUSH1 0x0 DUP1 REVERT JUMPDEST PUSH1 0x0 PUSH2 0x160F DUP6 PUSH1 0x0 PUSH2 0x1F43 JUMP JUMPDEST DUP5 PUSH1 0x1 PUSH1 0x1 PUSH1 0xA0 SHL SUB AND PUSH32 0x7C51C6AA77346C54CB051D9E792F9B7BDE5C28A9B57E6FB2D2DD727B38438CA9 PUSH1 0x0 PUSH1 0x40 MLOAD PUSH2 0x1649 SWAP2 SWAP1 PUSH2 0x52A6 JUMP JUMPDEST PUSH1 0x40 MLOAD DUP1 SWAP2 SUB SWAP1 LOG2 DUP2 DUP5 PUSH2 0xFFFF AND DUP7 PUSH1 0x1 PUSH1 0x1 PUSH1 0xA0 SHL SUB AND PUSH32 0x823B641D46550301006F807A26587634F15BD13749EFDC8859734377D5304A3B DUP7 PUSH1 0x40 MLOAD PUSH2 0x1690 SWAP2 SWAP1 PUSH2 0x52FD JUMP JUMPDEST PUSH1 0x40 MLOAD DUP1 SWAP2 SUB SWAP1 LOG4 PUSH1 0x0 PUSH2 0x16A9 PUSH1 0x0 DUP7 PUSH2 0xFFFF AND PUSH2 0x2EAA JUMP JUMPDEST POP POP POP SWAP1 POP DUP1 DUP5 SGT PUSH2 0x16C9 JUMPI PUSH2 0x16C1 DUP6 DUP6 DUP4 SUB PUSH2 0x2F53 JUMP JUMPDEST DUP4 SWAP2 POP PUSH2 0x1721 JUMP JUMPDEST PUSH2 0x16D4 DUP6 PUSH1 0x0 PUSH2 0x2F53 JUMP JUMPDEST DUP3 DUP6 PUSH2 0xFFFF AND DUP8 PUSH1 0x1 PUSH1 0x1 PUSH1 0xA0 SHL SUB AND PUSH32 0x3A717B6924E3AD05B8C7609A2401472AF90869B52CC3C9CA69B50100B4BE6316 DUP5 DUP9 SUB PUSH1 0x40 MLOAD PUSH2 0x1715 SWAP2 SWAP1 PUSH2 0x52FD JUMP JUMPDEST PUSH1 0x40 MLOAD DUP1 SWAP2 SUB SWAP1 LOG4 DUP1 SWAP2 POP JUMPDEST POP SWAP5 SWAP4 POP POP POP POP JUMP JUMPDEST PUSH1 0x0 DUP3 DUP3 ADD DUP4 DUP2 LT ISZERO PUSH2 0x8A3 JUMPI PUSH1 0x0 DUP1 REVERT JUMPDEST PUSH1 0x0 PUSH2 0x1746 PUSH2 0x2D84 JUMP JUMPDEST PUSH1 0x1 PUSH1 0x1 PUSH1 0xA0 SHL SUB DUP4 AND PUSH1 0x0 SWAP1 DUP2 MSTORE PUSH1 0x20 DUP3 DUP2 MSTORE PUSH1 0x40 DUP1 DUP4 KECCAK256 DUP8 MLOAD DUP5 MSTORE SWAP1 SWAP2 MSTORE SWAP1 DUP2 SWAP1 KECCAK256 SWAP1 DUP6 ADD MLOAD SWAP2 SWAP3 POP SWAP1 ISZERO PUSH2 0x177C JUMPI PUSH1 0x0 DUP1 REVERT JUMPDEST PUSH2 0x178F PUSH2 0x1137 PUSH2 0x34D DUP7 PUSH1 0x20 ADD MLOAD PUSH2 0x1598 JUMP JUMPDEST DUP2 SLOAD PUSH1 0x1 PUSH1 0x1 PUSH1 0x50 SHL SUB NOT AND PUSH1 0x1 PUSH1 0x1 PUSH1 0x50 SHL SUB SWAP2 SWAP1 SWAP2 AND OR DUP2 SSTORE PUSH1 0x80 DUP5 ADD MLOAD PUSH2 0x17B8 SWAP1 PUSH2 0x2A43 JUMP JUMPDEST DUP2 SLOAD PUSH1 0x1 PUSH1 0x1 PUSH1 0x50 SHL SUB SWAP2 SWAP1 SWAP2 AND PUSH1 0x1 PUSH1 0x50 SHL MUL PUSH1 0x1 PUSH1 0x50 SHL PUSH1 0x1 PUSH1 0xA0 SHL SUB NOT SWAP1 SWAP2 AND OR DUP2 SSTORE PUSH1 0xA0 DUP5 ADD MLOAD PUSH2 0x17EC SWAP1 PUSH2 0x2A43 JUMP JUMPDEST PUSH1 0x1 DUP3 ADD DUP1 SLOAD PUSH1 0x1 PUSH1 0x1 PUSH1 0x50 SHL SUB NOT AND PUSH1 0x1 PUSH1 0x1 PUSH1 0x50 SHL SUB SWAP3 SWAP1 SWAP3 AND SWAP2 SWAP1 SWAP2 OR SWAP1 SSTORE PUSH1 0x60 DUP5 ADD MLOAD PUSH2 0x181C SWAP1 PUSH2 0x2A43 JUMP JUMPDEST DUP2 SLOAD PUSH1 0x1 PUSH1 0x1 PUSH1 0x50 SHL SUB SWAP2 SWAP1 SWAP2 AND PUSH1 0x1 PUSH1 0xA0 SHL MUL PUSH10 0xFFFFFFFFFFFFFFFFFFFF PUSH1 0xA0 SHL NOT SWAP1 SWAP2 AND OR DUP2 SSTORE DUP4 MLOAD PUSH1 0x20 DUP6 ADD MLOAD PUSH1 0x80 DUP7 ADD MLOAD PUSH1 0xA0 DUP8 ADD MLOAD PUSH1 0x60 DUP9 ADD MLOAD PUSH1 0x40 MLOAD PUSH1 0x1 PUSH1 0x1 PUSH1 0xA0 SHL SUB DUP10 AND SWAP5 PUSH32 0x3A0FDAECF7B5DA75A56077F5B1C8FBC88F9B08E9D0C4DB31EB34E25BC6700CDE SWAP5 PUSH2 0x1898 SWAP5 SWAP2 SWAP4 SWAP1 SWAP3 PUSH2 0x5314 JUMP JUMPDEST PUSH1 0x40 MLOAD DUP1 SWAP2 SUB SWAP1 LOG3 POP POP POP POP JUMP JUMPDEST PUSH1 0x0 DUP1 PUSH2 0x18B1 PUSH2 0x1FA3 JUMP JUMPDEST PUSH1 0x1 PUSH1 0x1 PUSH1 0xA0 SHL SUB DUP7 AND PUSH1 0x0 SWAP1 DUP2 MSTORE PUSH1 0x20 SWAP2 DUP3 MSTORE PUSH1 0x40 DUP1 DUP3 KECCAK256 PUSH2 0xFFFF DUP9 AND DUP4 MSTORE SWAP1 SWAP3 MSTORE KECCAK256 DUP1 SLOAD SWAP1 SWAP2 POP PUSH2 0x18F4 SWAP1 PUSH1 0x1 PUSH1 0x50 SHL SWAP1 DIV PUSH1 0x1 PUSH1 0x1 PUSH1 0x50 SHL SUB AND DUP5 PUSH2 0x2FAA JUMP JUMPDEST SWAP2 POP PUSH1 0x0 DUP4 SLT ISZERO PUSH2 0x1929 JUMPI DUP1 SLOAD PUSH1 0x1 PUSH1 0x1 PUSH1 0x50 SHL SUB AND DUP3 SGT ISZERO PUSH2 0x1929 JUMPI PUSH1 0x40 MLOAD PUSH3 0x461BCD PUSH1 0xE5 SHL DUP2 MSTORE PUSH1 0x4 ADD PUSH2 0x326 SWAP1 PUSH2 0x5594 JUMP JUMPDEST PUSH2 0x1935 PUSH2 0x1137 DUP4 PUSH2 0x11CE JUMP JUMPDEST DUP2 SLOAD PUSH1 0x1 PUSH1 0x1 PUSH1 0x50 SHL SUB SWAP2 SWAP1 SWAP2 AND PUSH1 0x1 PUSH1 0x50 SHL MUL PUSH1 0x1 PUSH1 0x50 SHL PUSH1 0x1 PUSH1 0xA0 SHL SUB NOT SWAP1 SWAP2 AND OR DUP2 SSTORE PUSH1 0x40 MLOAD PUSH2 0xFFFF DUP6 AND SWAP1 PUSH1 0x1 PUSH1 0x1 PUSH1 0xA0 SHL SUB DUP8 AND SWAP1 PUSH32 0x20478EF460E49D010960D4F3FFF35D8DAE385443ABFAC09035D6A2CCBCD834C4 SWAP1 PUSH2 0x199C SWAP1 DUP7 SWAP1 PUSH2 0x52FD JUMP JUMPDEST PUSH1 0x40 MLOAD DUP1 SWAP2 SUB SWAP1 LOG3 POP SWAP4 SWAP3 POP POP POP JUMP JUMPDEST PUSH1 0x0 PUSH2 0x19B6 PUSH2 0x2D84 JUMP JUMPDEST DUP6 MLOAD PUSH1 0x1 PUSH1 0x1 PUSH1 0xA0 SHL SUB AND PUSH1 0x0 SWAP1 DUP2 MSTORE PUSH1 0x20 DUP3 DUP2 MSTORE PUSH1 0x40 DUP1 DUP4 KECCAK256 DUP8 DUP5 MSTORE SWAP1 SWAP2 MSTORE SWAP1 KECCAK256 DUP1 SLOAD SWAP2 SWAP3 POP SWAP1 PUSH1 0x1 PUSH1 0xF0 SHL SWAP1 DIV PUSH1 0xFF AND ISZERO PUSH2 0x19F2 JUMPI PUSH1 0x0 DUP1 REVERT JUMPDEST DUP3 DUP5 GT ISZERO PUSH2 0x19FF JUMPI PUSH1 0x0 DUP1 REVERT JUMPDEST PUSH1 0x40 DUP7 ADD MLOAD DUP7 MLOAD PUSH1 0x0 SWAP2 PUSH2 0x1A19 SWAP2 DUP1 PUSH4 0x5F5E100 DUP10 PUSH2 0x2FC0 JUMP JUMPDEST DUP3 SLOAD PUSH1 0xFF PUSH1 0xF0 SHL NOT AND PUSH1 0x1 PUSH1 0xF0 SHL OR DUP4 SSTORE SWAP1 POP PUSH2 0x1A35 DUP2 PUSH2 0x3087 JUMP JUMPDEST DUP3 PUSH1 0x1 ADD PUSH1 0xA PUSH2 0x100 EXP DUP2 SLOAD DUP2 PUSH1 0x1 PUSH1 0x1 PUSH1 0x50 SHL SUB MUL NOT AND SWAP1 DUP4 PUSH1 0x9 SIGNEXTEND PUSH1 0x1 PUSH1 0x1 PUSH1 0x50 SHL SUB AND MUL OR SWAP1 SSTORE POP PUSH1 0x0 PUSH2 0x1A6A PUSH2 0x30B7 JUMP JUMPDEST DUP9 MLOAD PUSH1 0x1 PUSH1 0x1 PUSH1 0xA0 SHL SUB AND PUSH1 0x0 SWAP1 DUP2 MSTORE PUSH1 0x20 SWAP2 DUP3 MSTORE PUSH1 0x40 DUP1 DUP3 KECCAK256 DUP10 DUP4 MSTORE DUP4 MSTORE SWAP1 KECCAK256 PUSH1 0x1 DUP6 ADD SLOAD DUP2 SLOAD PUSH1 0x1 PUSH1 0x1 PUSH1 0x50 SHL SUB NOT AND PUSH1 0x1 PUSH1 0x1 PUSH1 0x50 SHL SUB SWAP1 SWAP2 AND OR DUP2 SSTORE SWAP1 DUP11 ADD MLOAD SWAP1 SWAP2 POP PUSH2 0x1ADC SWAP1 PUSH2 0x1AD7 SWAP1 PUSH2 0x1AC4 SWAP1 DUP11 SWAP1 PUSH2 0x15A6 JUMP JUMPDEST PUSH2 0x1AD1 DUP13 PUSH1 0x80 ADD MLOAD PUSH2 0x15EC JUMP JUMPDEST SWAP1 PUSH2 0x2C18 JUMP JUMPDEST PUSH2 0x3087 JUMP JUMPDEST DUP2 SLOAD PUSH1 0x9 SWAP2 SWAP1 SWAP2 SIGNEXTEND PUSH1 0x1 PUSH1 0x1 PUSH1 0x50 SHL SUB AND PUSH1 0x1 PUSH1 0x50 SHL MUL PUSH1 0x1 PUSH1 0x50 SHL PUSH1 0x1 PUSH1 0xA0 SHL SUB NOT SWAP1 SWAP2 AND OR DUP2 SSTORE DUP9 MLOAD DUP9 MLOAD PUSH1 0x20 DUP12 ADD MLOAD PUSH1 0x80 DUP13 ADD MLOAD PUSH1 0xA0 DUP14 ADD MLOAD PUSH1 0x60 DUP15 ADD MLOAD PUSH1 0x40 MLOAD PUSH1 0x1 PUSH1 0x1 PUSH1 0xA0 SHL SUB SWAP1 SWAP6 AND SWAP5 PUSH32 0xE66A863186DBA5A66D19D3D91A66B76A7CBFDEFD0D8C29C662274B13FEBB166E SWAP5 PUSH2 0x1B5F SWAP5 SWAP1 SWAP4 SWAP1 SWAP3 SWAP1 SWAP2 DUP11 SWAP1 PUSH2 0x532F JUMP JUMPDEST PUSH1 0x40 MLOAD DUP1 SWAP2 SUB SWAP1 LOG3 POP POP POP POP POP POP POP POP POP JUMP JUMPDEST PUSH1 0x0 DUP1 PUSH1 0x0 PUSH2 0x1B7F PUSH2 0x15DF JUMP JUMPDEST DUP10 MLOAD PUSH1 0x1 PUSH1 0x1 PUSH1 0xA0 SHL SUB AND PUSH1 0x0 SWAP1 DUP2 MSTORE PUSH1 0x20 SWAP2 DUP3 MSTORE PUSH1 0x40 DUP1 DUP3 KECCAK256 DUP10 DUP4 MSTORE DUP4 MSTORE DUP1 DUP3 KECCAK256 PUSH2 0xFFFF DUP12 AND DUP4 MSTORE SWAP1 SWAP3 MSTORE KECCAK256 DUP1 SLOAD SWAP1 SWAP2 POP PUSH1 0x1 PUSH1 0xF0 SHL SWAP1 DIV PUSH1 0xFF AND ISZERO DUP1 PUSH2 0x1BD3 JUMPI POP DUP9 MLOAD PUSH1 0x1 PUSH1 0x1 PUSH1 0xA0 SHL SUB DUP10 DUP2 AND SWAP2 AND EQ JUMPDEST PUSH2 0x1BEF JUMPI PUSH1 0x40 MLOAD PUSH3 0x461BCD PUSH1 0xE5 SHL DUP2 MSTORE PUSH1 0x4 ADD PUSH2 0x326 SWAP1 PUSH2 0x5678 JUMP JUMPDEST DUP1 SLOAD PUSH1 0x1 PUSH1 0x1 PUSH1 0x50 SHL SUB DUP1 DUP3 AND SWAP2 PUSH1 0x1 PUSH1 0x50 SHL SWAP1 DIV AND PUSH2 0x1C21 PUSH2 0x1C1C DUP3 PUSH2 0x1C16 DUP11 DUP7 PUSH2 0x30C4 JUMP JUMPDEST SWAP1 PUSH2 0x30EB JUMP JUMPDEST PUSH2 0x15EC JUMP JUMPDEST SWAP4 POP DUP11 PUSH1 0x0 ADD MLOAD PUSH1 0x1 PUSH1 0x1 PUSH1 0xA0 SHL SUB AND DUP11 PUSH1 0x1 PUSH1 0x1 PUSH1 0xA0 SHL SUB AND EQ PUSH2 0x1C8B JUMPI PUSH2 0x1C4D PUSH2 0x1137 DUP3 DUP10 PUSH2 0x1E47 JUMP JUMPDEST DUP4 SLOAD PUSH1 0x1 PUSH1 0x1 PUSH1 0x50 SHL SUB SWAP2 SWAP1 SWAP2 AND PUSH1 0x1 PUSH1 0x50 SHL MUL PUSH1 0x1 PUSH1 0x50 SHL PUSH1 0x1 PUSH1 0xA0 SHL SUB NOT SWAP1 SWAP2 AND OR DUP4 SSTORE PUSH2 0x1C8B DUP12 DUP12 DUP12 DUP12 PUSH2 0x1C86 PUSH2 0x961 DUP14 PUSH2 0x15EC JUMP JUMPDEST PUSH2 0x310A JUMP JUMPDEST DUP11 MLOAD PUSH2 0x1C98 SWAP1 DUP11 DUP7 PUSH2 0x18A6 JUMP JUMPDEST POP PUSH2 0x1CA6 PUSH2 0x1137 DUP4 DUP7 PUSH2 0x1E47 JUMP JUMPDEST DUP4 SLOAD PUSH1 0x1 PUSH1 0x1 PUSH1 0x50 SHL SUB NOT AND PUSH1 0x1 PUSH1 0x1 PUSH1 0x50 SHL SUB SWAP2 SWAP1 SWAP2 AND OR DUP4 SSTORE PUSH2 0x1CCE DUP12 DUP11 DUP11 DUP8 DUP11 PUSH2 0x3291 JUMP JUMPDEST SWAP5 POP DUP9 PUSH2 0xFFFF AND DUP11 PUSH1 0x1 PUSH1 0x1 PUSH1 0xA0 SHL SUB AND DUP13 PUSH1 0x0 ADD MLOAD PUSH1 0x1 PUSH1 0x1 PUSH1 0xA0 SHL SUB AND PUSH32 0x38DB3B2568CA34833805148705B1440A4F80962CE663BA509811ABC652DE434A DUP12 DUP12 DUP10 PUSH1 0x40 MLOAD PUSH2 0x1D20 SWAP4 SWAP3 SWAP2 SWAP1 PUSH2 0x58B5 JUMP JUMPDEST PUSH1 0x40 MLOAD DUP1 SWAP2 SUB SWAP1 LOG4 POP POP POP SWAP7 POP SWAP7 SWAP5 POP POP POP POP POP JUMP JUMPDEST PUSH1 0x0 DUP1 PUSH2 0x15D7 DUP5 PUSH1 0x40 ADD MLOAD PUSH2 0x1123 PUSH5 0x2540BE400 PUSH2 0x1123 DUP8 DUP10 PUSH1 0x20 ADD MLOAD PUSH2 0x29C4 SWAP1 SWAP2 SWAP1 PUSH4 0xFFFFFFFF AND JUMP JUMPDEST PUSH1 0x0 PUSH4 0x5F5E100 DUP4 PUSH1 0x40 ADD MLOAD SLT ISZERO PUSH2 0x1D89 JUMPI PUSH2 0x1D82 PUSH1 0x1 PUSH2 0x1AD1 DUP6 DUP6 PUSH2 0x335E JUMP JUMPDEST SWAP1 POP PUSH2 0xFB2 JUMP JUMPDEST PUSH2 0x8A3 DUP4 PUSH2 0x1D98 DUP5 PUSH1 0x1 PUSH2 0x2C18 JUMP JUMPDEST PUSH2 0x335E JUMP JUMPDEST PUSH1 0x0 PUSH1 0x3 DUP4 PUSH1 0x60 ADD MLOAD PUSH1 0x5 DUP2 GT ISZERO PUSH2 0x1DB1 JUMPI INVALID JUMPDEST EQ ISZERO PUSH2 0x1DC8 JUMPI POP PUSH1 0x1 PUSH1 0x1 PUSH1 0xA0 SHL SUB DUP2 AND BALANCE PUSH2 0xFB2 JUMP JUMPDEST DUP3 MLOAD PUSH1 0x40 MLOAD PUSH4 0x70A08231 PUSH1 0xE0 SHL DUP2 MSTORE PUSH1 0x1 PUSH1 0x1 PUSH1 0xA0 SHL SUB SWAP1 SWAP2 AND SWAP1 PUSH4 0x70A08231 SWAP1 PUSH2 0x1DF7 SWAP1 DUP6 SWAP1 PUSH1 0x4 ADD PUSH2 0x515C JUMP JUMPDEST PUSH1 0x20 PUSH1 0x40 MLOAD DUP1 DUP4 SUB DUP2 DUP7 DUP1 EXTCODESIZE ISZERO DUP1 ISZERO PUSH2 0x1E0F JUMPI PUSH1 0x0 DUP1 REVERT JUMPDEST POP GAS STATICCALL ISZERO DUP1 ISZERO PUSH2 0x1E23 JUMPI RETURNDATASIZE PUSH1 0x0 DUP1 RETURNDATACOPY RETURNDATASIZE PUSH1 0x0 REVERT JUMPDEST POP POP POP POP PUSH1 0x40 MLOAD RETURNDATASIZE PUSH1 0x1F NOT PUSH1 0x1F DUP3 ADD AND DUP3 ADD DUP1 PUSH1 0x40 MSTORE POP DUP2 ADD SWAP1 PUSH2 0x1D82 SWAP2 SWAP1 PUSH2 0x4FA2 JUMP JUMPDEST PUSH1 0x0 DUP3 DUP3 GT ISZERO PUSH2 0x1E56 JUMPI PUSH1 0x0 DUP1 REVERT JUMPDEST POP SWAP1 SUB SWAP1 JUMP JUMPDEST PUSH1 0x0 DUP1 PUSH1 0x5 DUP6 PUSH1 0x60 ADD MLOAD PUSH1 0x5 DUP2 GT ISZERO PUSH2 0x1E71 JUMPI INVALID JUMPDEST EQ PUSH2 0x1E83 JUMPI PUSH4 0x70A08231 PUSH1 0xE0 SHL PUSH2 0x1E8C JUMP JUMPDEST PUSH4 0xED1279F PUSH1 0xE1 SHL JUMPDEST SWAP1 POP PUSH1 0x0 PUSH2 0x1E9F DUP7 PUSH1 0x0 ADD MLOAD ADDRESS DUP5 PUSH2 0x3396 JUMP JUMPDEST SWAP1 POP PUSH1 0x5 DUP7 PUSH1 0x60 ADD MLOAD PUSH1 0x5 DUP2 GT ISZERO PUSH2 0x1EB3 JUMPI INVALID JUMPDEST EQ ISZERO PUSH2 0x1EDA JUMPI PUSH1 0x0 PUSH2 0x1EC8 DUP7 PUSH2 0xFFFF AND PUSH2 0x12BC JUMP JUMPDEST SWAP1 POP PUSH2 0x1ED4 DUP2 DUP7 PUSH2 0x34A8 JUMP JUMPDEST POP PUSH2 0x1F23 JUMP JUMPDEST PUSH1 0x1 DUP7 PUSH1 0x60 ADD MLOAD PUSH1 0x5 DUP2 GT ISZERO PUSH2 0x1EEC JUMPI INVALID JUMPDEST EQ ISZERO PUSH2 0x1F01 JUMPI PUSH2 0x1EFC DUP7 DUP6 PUSH2 0x351B JUMP JUMPDEST PUSH2 0x1F23 JUMP JUMPDEST PUSH1 0x2 DUP7 PUSH1 0x60 ADD MLOAD PUSH1 0x5 DUP2 GT ISZERO PUSH2 0x1F13 JUMPI INVALID JUMPDEST EQ ISZERO PUSH2 0x12C JUMPI PUSH2 0x1EFC DUP7 DUP6 PUSH2 0x35BD JUMP JUMPDEST PUSH1 0x0 PUSH2 0x1F34 DUP8 PUSH1 0x0 ADD MLOAD ADDRESS DUP6 PUSH2 0x3396 JUMP JUMPDEST SWAP1 POP PUSH2 0xA6D PUSH2 0x1C1C DUP3 DUP5 PUSH2 0x3619 JUMP JUMPDEST PUSH1 0x0 PUSH2 0x1F4D PUSH2 0x3670 JUMP JUMPDEST PUSH1 0x1 PUSH1 0x1 PUSH1 0xA0 SHL SUB DUP5 AND PUSH1 0x0 SWAP1 DUP2 MSTORE PUSH1 0x20 DUP3 SWAP1 MSTORE PUSH1 0x40 SWAP1 KECCAK256 DUP1 SLOAD SWAP2 SWAP3 POP SWAP1 PUSH2 0xFFFF AND DUP4 ISZERO PUSH2 0x1F8C JUMPI DUP2 SLOAD PUSH2 0xFFFF NOT AND PUSH1 0x1 DUP3 OR PUSH2 0xFFFF AND OR DUP3 SSTORE PUSH2 0x1F9C JUMP JUMPDEST DUP2 SLOAD PUSH2 0xFFFF NOT AND PUSH2 0xFFFE DUP3 AND OR DUP3 SSTORE JUMPDEST POP POP POP POP POP JUMP JUMPDEST PUSH1 0x0 DUP1 PUSH2 0xFB2 PUSH1 0x17 PUSH2 0x2A59 JUMP JUMPDEST PUSH2 0x1FB8 PUSH2 0x4A84 JUMP JUMPDEST PUSH2 0x1FC1 DUP3 PUSH2 0x2657 JUMP JUMPDEST SWAP1 POP PUSH2 0x102E DUP2 PUSH1 0x40 ADD MLOAD PUSH2 0xFFFF AND PUSH2 0x367D JUMP JUMPDEST PUSH1 0x0 DUP1 PUSH1 0x0 PUSH2 0x1FEB DUP7 PUSH1 0x40 ADD MLOAD PUSH2 0xFFFF AND DUP6 PUSH2 0x3693 JUMP JUMPDEST SWAP1 POP PUSH1 0x0 PUSH2 0x2012 PUSH2 0x961 PUSH2 0x2002 DUP9 PUSH1 0x80 ADD MLOAD PUSH2 0x15EC JUMP JUMPDEST PUSH1 0x20 DUP10 ADD MLOAD PUSH2 0x1AD1 SWAP1 DUP7 SWAP1 PUSH2 0x15A6 JUMP JUMPDEST SWAP1 POP PUSH1 0x0 PUSH2 0x2027 DUP9 PUSH1 0x40 ADD MLOAD PUSH2 0xFFFF AND PUSH2 0x12A9 JUMP JUMPDEST SWAP1 POP PUSH2 0x2033 DUP2 DUP4 PUSH2 0x335E JUMP JUMPDEST SWAP5 POP PUSH1 0x4 DUP2 PUSH1 0x60 ADD MLOAD PUSH1 0x5 DUP2 GT ISZERO PUSH2 0x2047 JUMPI INVALID JUMPDEST EQ ISZERO PUSH2 0x2055 JUMPI DUP5 SWAP4 POP PUSH2 0x2082 JUMP JUMPDEST PUSH1 0x0 PUSH2 0x2068 DUP10 PUSH1 0x40 ADD MLOAD PUSH2 0xFFFF AND PUSH2 0x12BC JUMP JUMPDEST SWAP1 POP PUSH2 0x207E PUSH2 0x2077 DUP6 DUP6 PUSH2 0x1D36 JUMP JUMPDEST DUP3 SWAP1 PUSH2 0x1D61 JUMP JUMPDEST SWAP5 POP POP JUMPDEST POP POP POP SWAP4 POP SWAP4 SWAP2 POP POP JUMP JUMPDEST PUSH1 0x0 PUSH2 0x2097 PUSH2 0x3670 JUMP JUMPDEST SWAP1 POP PUSH1 0x0 PUSH2 0x20A4 DUP5 PUSH2 0x2657 JUMP JUMPDEST SWAP1 POP PUSH2 0x20B6 PUSH1 0x40 DUP5 ADD PUSH1 0x20 DUP6 ADD PUSH2 0x4FBA JUMP JUMPDEST PUSH2 0xFFFF AND PUSH2 0x20C3 JUMPI PUSH1 0x0 DUP1 REVERT JUMPDEST PUSH1 0x40 DUP2 ADD MLOAD PUSH2 0xFFFF AND ISZERO DUP1 PUSH2 0x20F2 JUMPI POP PUSH2 0x20E3 PUSH1 0x40 DUP5 ADD PUSH1 0x20 DUP6 ADD PUSH2 0x4FBA JUMP JUMPDEST PUSH2 0xFFFF AND DUP2 PUSH1 0x40 ADD MLOAD PUSH2 0xFFFF AND EQ JUMPDEST PUSH2 0x20FB JUMPI PUSH1 0x0 DUP1 REVERT JUMPDEST PUSH2 0x210B PUSH1 0xC0 DUP5 ADD PUSH1 0xA0 DUP6 ADD PUSH2 0x505B JUMP JUMPDEST PUSH1 0xFF AND PUSH1 0x64 SGT ISZERO PUSH2 0x211B JUMPI PUSH1 0x0 DUP1 REVERT JUMPDEST PUSH1 0x0 PUSH1 0x64 DUP1 PUSH2 0x2130 PUSH1 0xC0 DUP8 ADD PUSH1 0xA0 DUP9 ADD PUSH2 0x505B JUMP JUMPDEST PUSH1 0xFF AND SUB MUL SWAP1 POP PUSH2 0x2147 PUSH1 0x80 DUP6 ADD PUSH1 0x60 DUP7 ADD PUSH2 0x4FBA JUMP JUMPDEST PUSH2 0xFFFF AND DUP2 PUSH2 0xFFFF AND LT PUSH2 0x215A JUMPI PUSH1 0x0 DUP1 REVERT JUMPDEST PUSH2 0x216C PUSH2 0x120 DUP6 ADD PUSH2 0x100 DUP7 ADD PUSH2 0x4FBA JUMP JUMPDEST PUSH2 0xFFFF AND PUSH2 0x2180 PUSH1 0x80 DUP7 ADD PUSH1 0x60 DUP8 ADD PUSH2 0x4FBA JUMP JUMPDEST PUSH2 0xFFFF AND LT PUSH2 0x218E JUMPI PUSH1 0x0 DUP1 REVERT JUMPDEST PUSH2 0x21A0 PUSH2 0x180 DUP6 ADD PUSH2 0x160 DUP7 ADD PUSH2 0x4FBA JUMP JUMPDEST PUSH2 0xFFFF AND PUSH2 0x21B6 PUSH2 0x120 DUP7 ADD PUSH2 0x100 DUP8 ADD PUSH2 0x4FBA JUMP JUMPDEST PUSH2 0xFFFF AND LT PUSH2 0x21C4 JUMPI PUSH1 0x0 DUP1 REVERT JUMPDEST PUSH1 0x64 PUSH2 0x21D6 PUSH1 0xE0 DUP7 ADD PUSH1 0xC0 DUP8 ADD PUSH2 0x505B JUMP JUMPDEST PUSH1 0xFF AND SGT ISZERO PUSH2 0x21E4 JUMPI PUSH1 0x0 DUP1 REVERT JUMPDEST PUSH2 0x21F5 PUSH2 0x100 DUP6 ADD PUSH1 0xE0 DUP7 ADD PUSH2 0x505B JUMP JUMPDEST PUSH1 0xFF AND PUSH2 0x2201 JUMPI PUSH1 0x0 DUP1 REVERT JUMPDEST PUSH2 0x140 DUP3 ADD MLOAD MLOAD PUSH2 0xFFFF AND ISZERO DUP1 PUSH2 0x2246 JUMPI POP PUSH2 0x2225 PUSH2 0x140 DUP6 ADD PUSH2 0x120 DUP7 ADD PUSH2 0x4FBA JUMP JUMPDEST PUSH2 0xFFFF AND DUP3 PUSH2 0x140 ADD MLOAD PUSH1 0x0 PUSH1 0x2 DUP2 LT PUSH2 0x223B JUMPI INVALID JUMPDEST PUSH1 0x20 MUL ADD MLOAD PUSH2 0xFFFF AND EQ JUMPDEST PUSH2 0x224F JUMPI PUSH1 0x0 DUP1 REVERT JUMPDEST PUSH2 0x140 DUP3 ADD MLOAD PUSH1 0x20 ADD MLOAD PUSH2 0xFFFF AND ISZERO DUP1 PUSH2 0x2297 JUMPI POP PUSH2 0x2276 PUSH2 0x160 DUP6 ADD PUSH2 0x140 DUP7 ADD PUSH2 0x4FBA JUMP JUMPDEST PUSH2 0xFFFF AND DUP3 PUSH2 0x140 ADD MLOAD PUSH1 0x1 PUSH1 0x2 DUP2 LT PUSH2 0x228C JUMPI INVALID JUMPDEST PUSH1 0x20 MUL ADD MLOAD PUSH2 0xFFFF AND EQ JUMPDEST PUSH2 0x22A0 JUMPI PUSH1 0x0 DUP1 REVERT JUMPDEST PUSH2 0x22B2 PUSH2 0x140 DUP6 ADD PUSH2 0x120 DUP7 ADD PUSH2 0x4FBA JUMP JUMPDEST PUSH2 0xFFFF AND PUSH2 0x22C6 PUSH1 0x40 DUP7 ADD PUSH1 0x20 DUP8 ADD PUSH2 0x4FBA JUMP JUMPDEST PUSH2 0xFFFF AND EQ ISZERO PUSH2 0x22D5 JUMPI PUSH1 0x0 DUP1 REVERT JUMPDEST PUSH2 0x22E7 PUSH2 0x160 DUP6 ADD PUSH2 0x140 DUP7 ADD PUSH2 0x4FBA JUMP JUMPDEST PUSH2 0xFFFF AND PUSH2 0x22FB PUSH1 0x40 DUP7 ADD PUSH1 0x20 DUP8 ADD PUSH2 0x4FBA JUMP JUMPDEST PUSH2 0xFFFF AND EQ ISZERO PUSH2 0x230A JUMPI PUSH1 0x0 DUP1 REVERT JUMPDEST PUSH2 0x231C PUSH2 0x140 DUP6 ADD PUSH2 0x120 DUP7 ADD PUSH2 0x4FBA JUMP JUMPDEST PUSH2 0xFFFF AND ISZERO DUP1 ISZERO SWAP1 PUSH2 0x2342 JUMPI POP PUSH2 0x233B PUSH2 0x160 DUP6 ADD PUSH2 0x140 DUP7 ADD PUSH2 0x4FBA JUMP JUMPDEST PUSH2 0xFFFF AND ISZERO ISZERO JUMPDEST ISZERO PUSH2 0x237E JUMPI PUSH2 0x2359 PUSH2 0x160 DUP6 ADD PUSH2 0x140 DUP7 ADD PUSH2 0x4FBA JUMP JUMPDEST PUSH2 0xFFFF AND PUSH2 0x236F PUSH2 0x140 DUP7 ADD PUSH2 0x120 DUP8 ADD PUSH2 0x4FBA JUMP JUMPDEST PUSH2 0xFFFF AND EQ ISZERO PUSH2 0x237E JUMPI PUSH1 0x0 DUP1 REVERT JUMPDEST PUSH1 0x0 PUSH2 0x239C PUSH2 0x2393 PUSH1 0x40 DUP8 ADD PUSH1 0x20 DUP9 ADD PUSH2 0x4FBA JUMP JUMPDEST PUSH2 0xFFFF AND PUSH2 0x12A9 JUMP JUMPDEST SWAP1 POP PUSH1 0x0 PUSH2 0x23BC PUSH2 0x23B3 PUSH1 0x40 DUP9 ADD PUSH1 0x20 DUP10 ADD PUSH2 0x4FBA JUMP JUMPDEST PUSH2 0xFFFF AND PUSH2 0x12BC JUMP JUMPDEST SWAP1 POP DUP2 PUSH1 0x20 ADD MLOAD ISZERO DUP1 ISZERO PUSH2 0x23D2 JUMPI POP DUP1 PUSH1 0x20 ADD MLOAD ISZERO JUMPDEST PUSH2 0x23DB JUMPI PUSH1 0x0 DUP1 REVERT JUMPDEST PUSH1 0x1 PUSH1 0x1 PUSH1 0xA0 SHL SUB DUP8 AND PUSH1 0x0 SWAP1 DUP2 MSTORE PUSH1 0x20 DUP7 SWAP1 MSTORE PUSH1 0x40 SWAP1 KECCAK256 DUP7 SWAP1 PUSH2 0x23FF DUP3 DUP3 PUSH2 0x5994 JUMP JUMPDEST POP POP POP POP POP POP POP POP POP JUMP JUMPDEST PUSH1 0x0 DUP1 PUSH2 0x2420 DUP10 PUSH1 0x0 ADD MLOAD DUP11 PUSH1 0x40 ADD MLOAD DUP10 PUSH2 0x2C2E JUMP JUMPDEST DUP10 MLOAD SWAP1 SWAP2 POP PUSH1 0x1 PUSH1 0x1 PUSH1 0xA0 SHL SUB AND PUSH4 0xDC6679C5 DUP10 PUSH2 0x243E DUP5 DUP10 PUSH2 0x172A JUMP JUMPDEST DUP10 DUP9 DUP9 PUSH1 0x40 MLOAD DUP7 PUSH4 0xFFFFFFFF AND PUSH1 0xE0 SHL DUP2 MSTORE PUSH1 0x4 ADD PUSH2 0x2461 SWAP6 SWAP5 SWAP4 SWAP3 SWAP2 SWAP1 PUSH2 0x5247 JUMP JUMPDEST PUSH1 0x20 PUSH1 0x40 MLOAD DUP1 DUP4 SUB DUP2 PUSH1 0x0 DUP8 DUP1 EXTCODESIZE ISZERO DUP1 ISZERO PUSH2 0x247B JUMPI PUSH1 0x0 DUP1 REVERT JUMPDEST POP GAS CALL ISZERO DUP1 ISZERO PUSH2 0x248F JUMPI RETURNDATASIZE PUSH1 0x0 DUP1 RETURNDATACOPY RETURNDATASIZE PUSH1 0x0 REVERT JUMPDEST POP POP POP POP PUSH1 0x40 MLOAD RETURNDATASIZE PUSH1 0x1F NOT PUSH1 0x1F DUP3 ADD AND DUP3 ADD DUP1 PUSH1 0x40 MSTORE POP DUP2 ADD SWAP1 PUSH2 0x129C SWAP2 SWAP1 PUSH2 0x4FA2 JUMP JUMPDEST PUSH1 0x0 DUP1 PUSH2 0x24C2 DUP7 DUP9 DUP8 DUP8 PUSH2 0x36F0 JUMP JUMPDEST SWAP1 POP PUSH1 0x0 PUSH2 0x24D5 DUP9 DUP8 DUP10 PUSH1 0x0 ADD MLOAD PUSH2 0x3755 JUMP JUMPDEST SWAP1 POP PUSH1 0x0 PUSH2 0x24F5 PUSH2 0x24E9 DUP4 PUSH2 0x1AD1 DUP9 PUSH2 0x1598 JUMP JUMPDEST PUSH2 0x160 DUP12 ADD MLOAD SWAP1 PUSH2 0x15A6 JUMP JUMPDEST SWAP1 POP PUSH1 0x0 PUSH2 0x2503 DUP5 DUP4 PUSH2 0x2FAA JUMP JUMPDEST SWAP1 POP DUP2 PUSH2 0x2519 JUMPI PUSH1 0x1 PUSH1 0x1 PUSH1 0xFF SHL SUB SWAP5 POP PUSH2 0x2526 JUMP JUMPDEST PUSH2 0x2523 DUP2 DUP4 PUSH2 0x383C JUMP JUMPDEST SWAP5 POP JUMPDEST POP POP POP SWAP6 POP SWAP6 SWAP4 POP POP POP POP JUMP JUMPDEST PUSH1 0x0 DUP1 PUSH1 0x2 PUSH1 0xA SLOAD EQ ISZERO PUSH2 0x2559 JUMPI PUSH1 0x40 MLOAD PUSH3 0x461BCD PUSH1 0xE5 SHL DUP2 MSTORE PUSH1 0x4 ADD PUSH2 0x326 SWAP1 PUSH2 0x56FC JUMP JUMPDEST PUSH1 0x2 PUSH1 0xA SSTORE PUSH2 0x2569 DUP8 PUSH1 0x80 PUSH2 0x1039 JUMP JUMPDEST ISZERO PUSH2 0x2574 JUMPI PUSH1 0x1 PUSH1 0xA SSTORE JUMPDEST PUSH1 0x0 PUSH2 0x2584 DUP9 PUSH1 0x0 ADD MLOAD DUP9 PUSH2 0x138D JUMP JUMPDEST DUP9 MLOAD SWAP1 SWAP2 POP PUSH1 0x0 SWAP1 DUP2 SWAP1 PUSH2 0x259D SWAP1 DUP12 SWAP1 DUP11 DUP13 DUP12 DUP12 PUSH2 0x3855 JUMP JUMPDEST SWAP2 POP SWAP2 POP PUSH1 0x0 DUP3 SGT PUSH2 0x25AE JUMPI PUSH1 0x0 DUP1 REVERT JUMPDEST DUP1 ISZERO PUSH2 0x25B9 JUMPI PUSH1 0x0 DUP1 REVERT JUMPDEST PUSH1 0x80 DUP4 ADD MLOAD PUSH2 0x25C8 SWAP1 DUP4 PUSH2 0x172A JUMP JUMPDEST PUSH1 0x80 DUP5 ADD MSTORE PUSH1 0xA0 DUP4 ADD MLOAD PUSH2 0x25DC SWAP1 DUP10 PUSH2 0x1E47 JUMP JUMPDEST PUSH1 0xA0 DUP5 ADD MSTORE DUP10 MLOAD PUSH2 0x25EE SWAP1 DUP5 SWAP1 PUSH2 0x173C JUMP JUMPDEST DUP9 DUP11 PUSH1 0x0 ADD MLOAD PUSH1 0x1 PUSH1 0x1 PUSH1 0xA0 SHL SUB AND PUSH32 0xB2F70C3FE73B5AEE7E8C59B77222111306F1E4D7170F8FA1C09979BB847EB9D9 DUP5 DUP12 PUSH1 0x40 MLOAD PUSH2 0x262E SWAP3 SWAP2 SWAP1 PUSH2 0x5306 JUMP JUMPDEST PUSH1 0x40 MLOAD DUP1 SWAP2 SUB SWAP1 LOG3 PUSH2 0x2641 DUP11 DUP5 DUP12 PUSH2 0x1FD4 JUMP JUMPDEST PUSH1 0x1 PUSH1 0xA SSTORE SWAP1 SWAP12 SWAP1 SWAP11 POP SWAP9 POP POP POP POP POP POP POP POP POP JUMP JUMPDEST PUSH2 0x265F PUSH2 0x4A84 JUMP JUMPDEST PUSH1 0x0 PUSH2 0x2669 PUSH2 0x3670 JUMP JUMPDEST PUSH1 0x1 PUSH1 0x1 PUSH1 0xA0 SHL SUB DUP5 AND PUSH1 0x0 DUP2 DUP2 MSTORE PUSH1 0x20 DUP4 DUP2 MSTORE PUSH1 0x40 SWAP2 DUP3 SWAP1 KECCAK256 SWAP3 DUP7 MSTORE DUP3 SLOAD PUSH2 0xFFFF DUP1 DUP3 AND SWAP3 DUP9 ADD SWAP3 SWAP1 SWAP3 MSTORE PUSH3 0x10000 DUP2 DIV SWAP1 SWAP2 AND SWAP2 DUP7 ADD SWAP2 SWAP1 SWAP2 MSTORE SWAP2 SWAP3 POP SWAP1 PUSH2 0x26C9 SWAP1 PUSH4 0xFFFFFFFF PUSH1 0x1 PUSH1 0x20 SHL SWAP1 SWAP2 DIV DUP2 AND SWAP1 PUSH4 0x5F5E100 SWAP1 PUSH2 0x29C4 AND JUMP JUMPDEST PUSH1 0x60 DUP5 ADD MSTORE DUP1 SLOAD PUSH2 0x26E7 SWAP1 PUSH1 0x1 PUSH1 0x50 SHL SWAP1 DIV PUSH1 0xFF AND PUSH3 0x7A120 PUSH2 0x30C4 JUMP JUMPDEST PUSH1 0x80 DUP5 ADD MSTORE DUP1 SLOAD PUSH2 0x270B SWAP1 PUSH9 0x10000000000000000 SWAP1 DIV PUSH2 0xFFFF AND PUSH3 0x186A0 PUSH2 0x30C4 JUMP JUMPDEST PUSH1 0xA0 DUP5 ADD MSTORE DUP1 SLOAD PUSH2 0x272A SWAP1 PUSH1 0x1 PUSH1 0x70 SHL SWAP1 DIV PUSH2 0xFFFF AND PUSH3 0x186A0 PUSH2 0x30C4 JUMP JUMPDEST PUSH2 0x120 DUP5 ADD MSTORE PUSH1 0x2 DUP2 ADD SLOAD PUSH2 0x2746 SWAP1 PUSH2 0xFFFF AND PUSH3 0x186A0 PUSH2 0x30C4 JUMP JUMPDEST PUSH2 0x180 DUP5 ADD MSTORE DUP1 SLOAD PUSH1 0x64 SWAP1 PUSH1 0xFF PUSH1 0x1 PUSH1 0x58 SHL SWAP1 SWAP2 DIV AND PUSH4 0x3B9ACA00 MUL SDIV PUSH1 0xC0 DUP5 ADD MSTORE DUP1 SLOAD PUSH1 0x1 PUSH1 0x60 SHL DUP2 DIV PUSH1 0xFF SWAP1 DUP2 AND PUSH1 0xE0 DUP7 ADD MSTORE PUSH1 0x1 PUSH1 0x68 SHL SWAP1 SWAP2 DIV AND PUSH2 0x100 DUP5 ADD MSTORE PUSH1 0x40 DUP1 MLOAD DUP1 DUP3 ADD SWAP2 DUP3 SWAP1 MSTORE SWAP1 PUSH1 0x1 DUP4 ADD SWAP1 PUSH1 0x2 SWAP1 DUP3 PUSH1 0x0 DUP6 JUMPDEST DUP3 DUP3 SWAP1 SLOAD SWAP1 PUSH2 0x100 EXP SWAP1 DIV PUSH2 0xFFFF AND PUSH2 0xFFFF AND DUP2 MSTORE PUSH1 0x20 ADD SWAP1 PUSH1 0x2 ADD SWAP1 PUSH1 0x20 DUP3 PUSH1 0x1 ADD DIV SWAP3 DUP4 ADD SWAP3 PUSH1 0x1 SUB DUP3 MUL SWAP2 POP DUP1 DUP5 GT PUSH2 0x27A3 JUMPI SWAP1 POP POP POP POP POP POP DUP4 PUSH2 0x140 ADD DUP2 SWAP1 MSTORE POP POP POP SWAP2 SWAP1 POP JUMP JUMPDEST PUSH2 0x27F8 PUSH2 0x4B30 JUMP JUMPDEST PUSH1 0x0 DUP1 PUSH1 0x0 PUSH2 0x2806 DUP6 PUSH2 0x2DDA JUMP JUMPDEST PUSH1 0x40 DUP1 MLOAD PUSH1 0x60 DUP2 ADD DUP3 MSTORE PUSH1 0x1 PUSH1 0x1 PUSH1 0xA0 SHL SUB SWAP1 SWAP4 AND DUP4 MSTORE PUSH1 0x20 DUP4 ADD SWAP4 SWAP1 SWAP4 MSTORE PUSH1 0xFF AND PUSH1 0xA EXP SWAP2 DUP2 ADD SWAP2 SWAP1 SWAP2 MSTORE SWAP4 POP POP POP POP SWAP2 SWAP1 POP JUMP JUMPDEST PUSH2 0x2844 PUSH2 0x4B5A JUMP JUMPDEST PUSH1 0x0 PUSH2 0x284E PUSH2 0x38AC JUMP JUMPDEST PUSH1 0x0 DUP5 DUP2 MSTORE PUSH1 0x20 DUP3 SWAP1 MSTORE PUSH1 0x40 DUP2 KECCAK256 SWAP2 SWAP3 POP DUP1 PUSH1 0x1 DUP7 EQ ISZERO PUSH2 0x287B JUMPI POP PUSH8 0xDE0B6B3A7640000 SWAP1 POP DUP1 PUSH2 0x2951 JUMP JUMPDEST DUP3 SLOAD PUSH1 0x40 DUP1 MLOAD PUSH4 0x3FABE5A3 PUSH1 0xE2 SHL DUP2 MSTORE SWAP1 MLOAD PUSH1 0x1 PUSH1 0x1 PUSH1 0xA0 SHL SUB SWAP1 SWAP3 AND SWAP2 PUSH4 0xFEAF968C SWAP2 PUSH1 0x4 DUP1 DUP3 ADD SWAP3 PUSH1 0xA0 SWAP3 SWAP1 SWAP2 SWAP1 DUP3 SWAP1 SUB ADD DUP2 DUP7 DUP1 EXTCODESIZE ISZERO DUP1 ISZERO PUSH2 0x28BF JUMPI PUSH1 0x0 DUP1 REVERT JUMPDEST POP GAS STATICCALL ISZERO DUP1 ISZERO PUSH2 0x28D3 JUMPI RETURNDATASIZE PUSH1 0x0 DUP1 RETURNDATACOPY RETURNDATASIZE PUSH1 0x0 REVERT JUMPDEST POP POP POP POP PUSH1 0x40 MLOAD RETURNDATASIZE PUSH1 0x1F NOT PUSH1 0x1F DUP3 ADD AND DUP3 ADD DUP1 PUSH1 0x40 MSTORE POP DUP2 ADD SWAP1 PUSH2 0x28F7 SWAP2 SWAP1 PUSH2 0x5077 JUMP JUMPDEST POP SWAP2 SWAP4 POP POP PUSH1 0x0 DUP4 SGT SWAP2 POP PUSH2 0x2920 SWAP1 POP JUMPI PUSH1 0x40 MLOAD PUSH3 0x461BCD PUSH1 0xE5 SHL DUP2 MSTORE PUSH1 0x4 ADD PUSH2 0x326 SWAP1 PUSH2 0x56D6 JUMP JUMPDEST DUP3 SLOAD PUSH1 0xFF PUSH1 0x1 PUSH1 0xA0 SHL DUP3 DIV DUP2 AND PUSH1 0xA EXP SWAP4 POP PUSH1 0x1 PUSH1 0xA8 SHL SWAP1 SWAP2 DIV AND ISZERO PUSH2 0x2951 JUMPI PUSH2 0x294E DUP2 PUSH2 0x1123 DUP5 DUP1 PUSH2 0x29C4 JUMP JUMPDEST SWAP1 POP JUMPDEST PUSH1 0x40 DUP1 MLOAD PUSH1 0xA0 DUP2 ADD DUP3 MSTORE SWAP3 DUP4 MSTORE PUSH1 0x20 DUP4 ADD SWAP2 SWAP1 SWAP2 MSTORE SWAP2 SLOAD PUSH1 0xFF PUSH1 0x1 PUSH1 0xB0 SHL DUP3 DIV DUP2 AND SWAP4 DUP4 ADD SWAP4 SWAP1 SWAP4 MSTORE PUSH1 0x1 PUSH1 0xB8 SHL DUP2 DIV DUP4 AND PUSH1 0x60 DUP4 ADD MSTORE PUSH1 0x1 PUSH1 0xC0 SHL SWAP1 DIV SWAP1 SWAP2 AND PUSH1 0x80 DUP3 ADD MSTORE SWAP2 POP POP SWAP2 SWAP1 POP JUMP JUMPDEST PUSH1 0x0 PUSH2 0x8A3 DUP3 PUSH1 0x20 ADD MLOAD PUSH2 0x1123 DUP5 PUSH1 0x0 ADD MLOAD DUP7 PUSH1 0x20 ADD MLOAD PUSH2 0x29C4 SWAP1 SWAP2 SWAP1 PUSH4 0xFFFFFFFF AND JUMP JUMPDEST DUP2 DUP2 MUL PUSH1 0x0 NOT DUP4 EQ ISZERO PUSH2 0x29F4 JUMPI DUP2 ISZERO DUP1 PUSH2 0x29E6 JUMPI POP DUP3 DUP3 DUP3 DUP2 PUSH2 0x29E3 JUMPI INVALID JUMPDEST SDIV EQ JUMPDEST PUSH2 0x29EF JUMPI PUSH1 0x0 DUP1 REVERT JUMPDEST PUSH2 0xFB2 JUMP JUMPDEST DUP3 ISZERO DUP1 PUSH2 0x2A09 JUMPI POP DUP2 DUP4 DUP3 DUP2 PUSH2 0x2A06 JUMPI INVALID JUMPDEST SDIV EQ JUMPDEST PUSH2 0xFB2 JUMPI PUSH1 0x0 DUP1 REVERT JUMPDEST PUSH1 0x0 DUP2 PUSH1 0x0 NOT EQ DUP1 ISZERO PUSH2 0x2A28 JUMPI POP PUSH1 0x1 PUSH1 0xFF SHL DUP4 EQ JUMPDEST ISZERO PUSH2 0x2A32 JUMPI PUSH1 0x0 DUP1 REVERT JUMPDEST DUP2 DUP4 DUP2 PUSH2 0x2A3B JUMPI INVALID JUMPDEST SDIV SWAP4 SWAP3 POP POP POP JUMP JUMPDEST PUSH1 0x0 PUSH1 0x1 PUSH1 0x1 PUSH1 0x50 SHL SUB DUP3 GT ISZERO PUSH2 0x11DD JUMPI PUSH1 0x0 DUP1 REVERT JUMPDEST PUSH1 0x0 PUSH3 0xF4240 DUP3 PUSH1 0x1A DUP2 GT ISZERO PUSH2 0x2A6B JUMPI INVALID JUMPDEST ADD SWAP3 SWAP2 POP POP JUMP JUMPDEST PUSH1 0x0 DUP1 DUP8 PUSH1 0x0 ADD MLOAD PUSH1 0x1 PUSH1 0x1 PUSH1 0xA0 SHL SUB AND DUP8 PUSH1 0x1 PUSH1 0x1 PUSH1 0xA0 SHL SUB AND EQ ISZERO PUSH2 0x2A98 JUMPI PUSH1 0x0 DUP1 REVERT JUMPDEST DUP8 MLOAD PUSH2 0x2AAB SWAP1 DUP8 PUSH2 0x870 PUSH2 0x961 DUP9 PUSH2 0x15EC JUMP JUMPDEST POP PUSH1 0x0 PUSH2 0x2AB6 PUSH2 0x15DF JUMP JUMPDEST DUP10 MLOAD PUSH1 0x1 PUSH1 0x1 PUSH1 0xA0 SHL SUB AND PUSH1 0x0 SWAP1 DUP2 MSTORE PUSH1 0x20 SWAP2 DUP3 MSTORE PUSH1 0x40 DUP1 DUP3 KECCAK256 DUP10 DUP4 MSTORE DUP4 MSTORE DUP1 DUP3 KECCAK256 PUSH2 0xFFFF DUP12 AND DUP4 MSTORE SWAP1 SWAP3 MSTORE KECCAK256 DUP1 SLOAD SWAP1 SWAP2 POP PUSH1 0x1 PUSH1 0xF0 SHL SWAP1 DIV PUSH1 0xFF AND ISZERO PUSH2 0x2B0F JUMPI PUSH1 0x40 MLOAD PUSH3 0x461BCD PUSH1 0xE5 SHL DUP2 MSTORE PUSH1 0x4 ADD PUSH2 0x326 SWAP1 PUSH2 0x5678 JUMP JUMPDEST DUP1 SLOAD PUSH1 0x1 PUSH1 0x1 PUSH1 0x50 SHL SUB DUP1 DUP3 AND SWAP2 PUSH1 0x1 PUSH1 0x50 SHL SWAP1 DIV AND DUP2 PUSH2 0x2B32 JUMPI DUP7 SWAP4 POP PUSH2 0x2B43 JUMP JUMPDEST PUSH2 0x2B40 DUP3 PUSH2 0x1C16 DUP10 DUP5 PUSH2 0x30C4 JUMP JUMPDEST SWAP4 POP JUMPDEST PUSH2 0x2B53 DUP12 DUP12 DUP12 DUP12 PUSH2 0x1C86 DUP10 PUSH2 0x15EC JUMP JUMPDEST PUSH2 0x2B60 PUSH2 0x1137 DUP3 DUP7 PUSH2 0x172A JUMP JUMPDEST DUP4 SLOAD PUSH1 0x1 PUSH1 0x1 PUSH1 0x50 SHL SUB SWAP2 SWAP1 SWAP2 AND PUSH1 0x1 PUSH1 0x50 SHL MUL PUSH1 0x1 PUSH1 0x50 SHL PUSH1 0x1 PUSH1 0xA0 SHL SUB NOT SWAP1 SWAP2 AND OR DUP4 SSTORE PUSH2 0x2B93 PUSH2 0x1137 DUP4 DUP10 PUSH2 0x172A JUMP JUMPDEST DUP4 SLOAD PUSH1 0x1 PUSH1 0x1 PUSH1 0x50 SHL SUB NOT AND PUSH1 0x1 PUSH1 0x1 PUSH1 0x50 SHL SUB SWAP2 SWAP1 SWAP2 AND OR DUP4 SSTORE PUSH2 0x2BC6 DUP12 DUP11 DUP11 PUSH2 0x2BC0 PUSH2 0x961 DUP13 PUSH2 0x15EC JUMP JUMPDEST DUP11 PUSH2 0x3291 JUMP JUMPDEST SWAP5 POP DUP9 PUSH2 0xFFFF AND DUP11 PUSH1 0x1 PUSH1 0x1 PUSH1 0xA0 SHL SUB AND DUP13 PUSH1 0x0 ADD MLOAD PUSH1 0x1 PUSH1 0x1 PUSH1 0xA0 SHL SUB AND PUSH32 0xA119A38E8BBBF2CBE78427CB9E63EF28678B56E3CEECC10BDA7C00503EA94739 DUP12 DUP9 DUP13 PUSH1 0x40 MLOAD PUSH2 0x1D20 SWAP4 SWAP3 SWAP2 SWAP1 PUSH2 0x58B5 JUMP JUMPDEST DUP2 DUP2 ADD DUP3 DUP2 SLT ISZERO PUSH1 0x0 DUP4 SLT ISZERO EQ PUSH2 0xFB2 JUMPI PUSH1 0x0 DUP1 REVERT JUMPDEST PUSH1 0x0 DUP2 PUSH2 0x2C3D JUMPI POP PUSH1 0x0 PUSH2 0x8A3 JUMP JUMPDEST PUSH1 0x0 DUP3 SGT PUSH2 0x2C4A JUMPI PUSH1 0x0 DUP1 REVERT JUMPDEST PUSH1 0x0 PUSH2 0x2C59 DUP5 PUSH2 0xFFFF AND PUSH2 0x12A9 JUMP JUMPDEST SWAP1 POP PUSH1 0x0 PUSH2 0x2C67 DUP3 DUP6 PUSH2 0x335E JUMP JUMPDEST SWAP1 POP PUSH1 0x4 DUP3 PUSH1 0x60 ADD MLOAD PUSH1 0x5 DUP2 GT ISZERO PUSH2 0x2C7B JUMPI INVALID JUMPDEST EQ ISZERO PUSH2 0x2CA9 JUMPI PUSH2 0x2CA2 PUSH2 0x34D PUSH2 0x961 DUP9 DUP9 PUSH2 0xFFFF AND PUSH2 0x2C99 DUP7 PUSH2 0x1598 JUMP JUMPDEST DUP8 SWAP3 SWAP2 SWAP1 PUSH2 0x38B9 JUMP JUMPDEST SWAP3 POP PUSH2 0x2CCD JUMP JUMPDEST PUSH2 0x2CCA PUSH2 0x34D PUSH2 0x961 DUP8 PUSH2 0xFFFF AND DUP10 PUSH2 0x2CC1 DUP7 PUSH2 0x11CE JUMP JUMPDEST DUP8 SWAP3 SWAP2 SWAP1 PUSH2 0x3961 JUMP JUMPDEST SWAP3 POP JUMPDEST POP POP SWAP4 SWAP3 POP POP POP JUMP JUMPDEST PUSH2 0x2CDE PUSH2 0x4B09 JUMP JUMPDEST PUSH1 0x0 PUSH2 0x2CE8 PUSH2 0x39F7 JUMP JUMPDEST PUSH1 0x0 DUP6 DUP2 MSTORE PUSH1 0x20 DUP3 DUP2 MSTORE PUSH1 0x40 DUP1 DUP4 KECCAK256 DUP8 ISZERO ISZERO DUP5 MSTORE DUP3 MSTORE SWAP2 DUP3 SWAP1 KECCAK256 DUP3 MLOAD PUSH1 0xA0 DUP2 ADD DUP5 MSTORE DUP2 SLOAD PUSH1 0x1 PUSH1 0x1 PUSH1 0xA0 SHL SUB DUP2 AND DUP3 MSTORE PUSH1 0xFF PUSH1 0x1 PUSH1 0xA0 SHL DUP3 DIV DUP2 AND ISZERO ISZERO SWAP5 DUP4 ADD SWAP5 SWAP1 SWAP5 MSTORE PUSH1 0x1 PUSH1 0xB0 SHL DUP2 DIV DUP5 AND PUSH1 0xA EXP SWAP5 DUP3 ADD SWAP5 SWAP1 SWAP5 MSTORE SWAP4 SWAP5 POP SWAP3 SWAP2 PUSH1 0x60 DUP4 ADD SWAP2 PUSH1 0x1 PUSH1 0xA8 SHL SWAP1 SWAP2 DIV AND PUSH1 0x5 DUP2 GT ISZERO PUSH2 0x2D5D JUMPI INVALID JUMPDEST DUP2 MSTORE SWAP2 SLOAD PUSH1 0x1 PUSH1 0xB8 SHL SWAP1 DIV PUSH9 0xFFFFFFFFFFFFFFFFFF AND PUSH1 0x20 SWAP1 SWAP3 ADD SWAP2 SWAP1 SWAP2 MSTORE SWAP5 SWAP4 POP POP POP POP JUMP JUMPDEST PUSH1 0x0 DUP1 PUSH2 0xFB2 PUSH1 0x15 PUSH2 0x2A59 JUMP JUMPDEST PUSH1 0x0 DUP1 PUSH1 0x0 PUSH2 0x2D9E PUSH2 0x2E9D JUMP JUMPDEST PUSH1 0x0 SWAP6 DUP7 MSTORE PUSH1 0x20 SWAP1 DUP2 MSTORE PUSH1 0x40 DUP1 DUP8 KECCAK256 SWAP6 DUP8 MSTORE SWAP5 SWAP1 MSTORE POP POP POP SWAP1 KECCAK256 SLOAD PUSH6 0x10000000000 DUP2 DIV PUSH1 0x1 PUSH1 0x1 PUSH1 0x80 SHL SUB AND SWAP2 PUSH1 0x1 PUSH1 0xA8 SHL SWAP1 SWAP2 DIV PUSH1 0xFF AND SWAP1 JUMP JUMPDEST PUSH1 0x0 DUP1 PUSH1 0x0 DUP1 PUSH1 0x0 PUSH2 0x2DEB DUP7 PUSH2 0x3A04 JUMP JUMPDEST SWAP1 SWAP3 POP SWAP1 POP PUSH1 0x0 PUSH1 0x1 PUSH1 0x1 PUSH1 0xA0 SHL SUB DUP4 AND PUSH2 0x2E10 JUMPI POP PUSH1 0x0 SWAP1 POP PUSH5 0x2540BE400 PUSH2 0x2E92 JUMP JUMPDEST DUP3 PUSH1 0x1 PUSH1 0x1 PUSH1 0xA0 SHL SUB AND PUSH4 0x1EE10833 PUSH1 0x40 MLOAD DUP2 PUSH4 0xFFFFFFFF AND PUSH1 0xE0 SHL DUP2 MSTORE PUSH1 0x4 ADD PUSH1 0x20 PUSH1 0x40 MLOAD DUP1 DUP4 SUB DUP2 PUSH1 0x0 DUP8 DUP1 EXTCODESIZE ISZERO DUP1 ISZERO PUSH2 0x2E4B JUMPI PUSH1 0x0 DUP1 REVERT JUMPDEST POP GAS CALL ISZERO DUP1 ISZERO PUSH2 0x2E5F JUMPI RETURNDATASIZE PUSH1 0x0 DUP1 RETURNDATACOPY RETURNDATASIZE PUSH1 0x0 REVERT JUMPDEST POP POP POP POP PUSH1 0x40 MLOAD RETURNDATASIZE PUSH1 0x1F NOT PUSH1 0x1F DUP3 ADD AND DUP3 ADD DUP1 PUSH1 0x40 MSTORE POP DUP2 ADD SWAP1 PUSH2 0x2E83 SWAP2 SWAP1 PUSH2 0x4FA2 JUMP JUMPDEST SWAP1 POP PUSH1 0x0 DUP2 SGT PUSH2 0x2E92 JUMPI PUSH1 0x0 DUP1 REVERT JUMPDEST SWAP7 SWAP2 SWAP6 POP SWAP4 POP SWAP2 POP POP JUMP JUMPDEST PUSH1 0x0 DUP1 PUSH2 0xFB2 PUSH1 0x8 PUSH2 0x2A59 JUMP JUMPDEST PUSH1 0x0 DUP1 PUSH1 0x0 DUP1 PUSH1 0x0 PUSH2 0x2EBA PUSH2 0x3A3B JUMP JUMPDEST PUSH1 0x1 PUSH1 0x1 PUSH1 0xA0 SHL SUB DUP9 AND PUSH1 0x0 SWAP1 DUP2 MSTORE PUSH1 0x20 DUP3 DUP2 MSTORE PUSH1 0x40 DUP1 DUP4 KECCAK256 DUP11 DUP5 MSTORE SWAP1 SWAP2 MSTORE SWAP1 KECCAK256 DUP1 SLOAD PUSH1 0x1 PUSH1 0x1 PUSH1 0x50 SHL SUB DUP2 AND SWAP7 POP PUSH1 0x1 PUSH1 0x50 SHL SWAP1 DIV PUSH4 0xFFFFFFFF AND SWAP5 POP SWAP1 SWAP2 POP DUP4 ISZERO PUSH2 0x2F23 JUMPI DUP1 SLOAD PUSH2 0x2F1C SWAP1 PUSH1 0x1 PUSH1 0x70 SHL SWAP1 DIV PUSH7 0xFFFFFFFFFFFFFF AND PUSH2 0x3A48 JUMP JUMPDEST SWAP3 POP PUSH2 0x2F38 JUMP JUMPDEST DUP1 SLOAD PUSH1 0x1 PUSH1 0x70 SHL SWAP1 DIV PUSH7 0xFFFFFFFFFFFFFF AND SWAP3 POP JUMPDEST SLOAD PUSH1 0x1 PUSH1 0xA8 SHL SWAP1 DIV PUSH1 0xA SWAP1 DUP2 SIGNEXTEND SWAP1 SIGNEXTEND SWAP8 SWAP4 SWAP7 POP SWAP2 SWAP5 POP SWAP3 POP POP JUMP JUMPDEST PUSH1 0x0 DUP2 SLT ISZERO PUSH2 0x2F61 JUMPI PUSH1 0x0 DUP1 REVERT JUMPDEST PUSH2 0x2F76 PUSH1 0x0 DUP4 PUSH2 0xFFFF AND DUP4 PUSH1 0x0 DUP1 PUSH1 0x0 PUSH2 0x3A56 JUMP JUMPDEST DUP2 PUSH2 0xFFFF AND PUSH32 0xD3625F7B5926828151EFE19F7AE655488287357D99EBE67E5FB20522CA739C0B DUP3 PUSH1 0x40 MLOAD PUSH2 0xAEC SWAP2 SWAP1 PUSH2 0x52FD JUMP JUMPDEST DUP1 DUP3 SUB DUP3 DUP2 SGT ISZERO PUSH1 0x0 DUP4 SLT ISZERO EQ PUSH2 0xFB2 JUMPI PUSH1 0x0 DUP1 REVERT JUMPDEST PUSH1 0x0 DUP1 PUSH2 0x2FD0 DUP8 PUSH2 0xFFFF AND PUSH2 0x12BC JUMP JUMPDEST SWAP1 POP DUP1 PUSH1 0x40 ADD MLOAD PUSH1 0x0 EQ ISZERO PUSH2 0x2FEF JUMPI PUSH2 0x2FEC DUP8 PUSH2 0xFFFF AND PUSH2 0x12A9 JUMP JUMPDEST SWAP1 POP JUMPDEST PUSH1 0x40 MLOAD PUSH4 0xE9377111 PUSH1 0xE0 SHL DUP2 MSTORE PUSH2 0x307A SWAP1 PUSH1 0x1 PUSH1 0x1 PUSH1 0xA0 SHL SUB DUP9 AND SWAP1 PUSH4 0xE9377111 SWAP1 PUSH2 0x3023 SWAP1 DUP10 SWAP1 DUP10 SWAP1 DUP10 SWAP1 PUSH1 0x4 ADD PUSH2 0x5226 JUMP JUMPDEST PUSH1 0x20 PUSH1 0x40 MLOAD DUP1 DUP4 SUB DUP2 DUP7 DUP1 EXTCODESIZE ISZERO DUP1 ISZERO PUSH2 0x303B JUMPI PUSH1 0x0 DUP1 REVERT JUMPDEST POP GAS STATICCALL ISZERO DUP1 ISZERO PUSH2 0x304F JUMPI RETURNDATASIZE PUSH1 0x0 DUP1 RETURNDATACOPY RETURNDATASIZE PUSH1 0x0 REVERT JUMPDEST POP POP POP POP PUSH1 0x40 MLOAD RETURNDATASIZE PUSH1 0x1F NOT PUSH1 0x1F DUP3 ADD AND DUP3 ADD DUP1 PUSH1 0x40 MSTORE POP DUP2 ADD SWAP1 PUSH2 0x3073 SWAP2 SWAP1 PUSH2 0x4FA2 JUMP JUMPDEST DUP3 SWAP1 PUSH2 0x3B9D JUMP JUMPDEST SWAP2 POP POP JUMPDEST SWAP6 SWAP5 POP POP POP POP POP JUMP JUMPDEST PUSH1 0x0 PUSH10 0x7FFFFFFFFFFFFFFFFFFF NOT DUP3 SLT DUP1 ISZERO SWAP1 PUSH2 0x30AE JUMPI POP PUSH10 0x7FFFFFFFFFFFFFFFFFFF DUP3 SGT ISZERO JUMPDEST PUSH2 0x11DD JUMPI PUSH1 0x0 DUP1 REVERT JUMPDEST PUSH1 0x0 DUP1 PUSH2 0xFB2 PUSH1 0x19 PUSH2 0x2A59 JUMP JUMPDEST PUSH1 0x0 DUP3 PUSH2 0x30D3 JUMPI POP PUSH1 0x0 PUSH2 0xFB2 JUMP JUMPDEST DUP3 DUP3 MUL DUP3 DUP5 DUP3 DUP2 PUSH2 0x30E0 JUMPI INVALID JUMPDEST DIV EQ PUSH2 0x8A3 JUMPI PUSH1 0x0 DUP1 REVERT JUMPDEST PUSH1 0x0 DUP1 DUP3 GT PUSH2 0x30F9 JUMPI PUSH1 0x0 DUP1 REVERT JUMPDEST DUP2 DUP4 DUP2 PUSH2 0x3102 JUMPI INVALID JUMPDEST DIV SWAP4 SWAP3 POP POP POP JUMP JUMPDEST PUSH1 0x0 PUSH2 0x3114 PUSH2 0x11E5 JUMP JUMPDEST PUSH1 0x1 PUSH1 0x1 PUSH1 0xA0 SHL SUB DUP1 DUP8 AND PUSH1 0x0 SWAP1 DUP2 MSTORE PUSH1 0x20 SWAP3 DUP4 MSTORE PUSH1 0x40 DUP1 DUP3 KECCAK256 DUP11 MLOAD SWAP1 SWAP4 AND DUP3 MSTORE SWAP2 SWAP1 SWAP3 MSTORE SWAP1 KECCAK256 DUP1 SLOAD SWAP1 SWAP2 POP PUSH4 0xFFFFFFFF AND DUP4 DUP2 EQ DUP1 PUSH2 0x3152 JUMPI POP DUP1 ISZERO JUMPDEST PUSH2 0x316E JUMPI PUSH1 0x40 MLOAD PUSH3 0x461BCD PUSH1 0xE5 SHL DUP2 MSTORE PUSH1 0x4 ADD PUSH2 0x326 SWAP1 PUSH2 0x5352 JUMP JUMPDEST DUP2 SLOAD PUSH2 0x140 DUP9 ADD MLOAD MLOAD PUSH1 0x1 PUSH1 0x20 SHL DUP3 DIV PUSH1 0x1 PUSH1 0x1 PUSH1 0x50 SHL SUB SWAP1 DUP2 AND SWAP3 PUSH1 0x1 PUSH1 0x70 SHL SWAP1 DIV AND SWAP1 PUSH2 0xFFFF DUP9 DUP2 AND SWAP2 AND EQ ISZERO PUSH2 0x31E8 JUMPI PUSH2 0x31AB DUP3 DUP7 PUSH2 0x2C18 JUMP JUMPDEST SWAP2 POP PUSH2 0x31B9 PUSH2 0x1137 DUP4 PUSH2 0x11CE JUMP JUMPDEST DUP5 SLOAD PUSH1 0x1 PUSH1 0x1 PUSH1 0x50 SHL SUB SWAP2 SWAP1 SWAP2 AND PUSH1 0x1 PUSH1 0x20 SHL MUL PUSH14 0xFFFFFFFFFFFFFFFFFFFF00000000 NOT SWAP1 SWAP2 AND OR DUP5 SSTORE PUSH2 0x3242 JUMP JUMPDEST PUSH2 0x140 DUP10 ADD MLOAD PUSH1 0x20 ADD MLOAD PUSH2 0xFFFF DUP9 DUP2 AND SWAP2 AND EQ ISZERO PUSH2 0x12C JUMPI PUSH2 0x320A DUP2 DUP7 PUSH2 0x2C18 JUMP JUMPDEST SWAP1 POP PUSH2 0x3218 PUSH2 0x1137 DUP3 PUSH2 0x11CE JUMP JUMPDEST DUP5 SLOAD PUSH1 0x1 PUSH1 0x1 PUSH1 0x50 SHL SUB SWAP2 SWAP1 SWAP2 AND PUSH1 0x1 PUSH1 0x70 SHL MUL PUSH10 0xFFFFFFFFFFFFFFFFFFFF PUSH1 0x70 SHL NOT SWAP1 SWAP2 AND OR DUP5 SSTORE JUMPDEST DUP2 ISZERO DUP1 ISZERO PUSH2 0x324E JUMPI POP DUP1 ISZERO JUMPDEST ISZERO PUSH2 0x3263 JUMPI DUP4 SLOAD PUSH4 0xFFFFFFFF NOT AND DUP5 SSTORE PUSH2 0x23FF JUMP JUMPDEST DUP3 PUSH2 0x23FF JUMPI PUSH2 0x3271 DUP7 PUSH2 0x3BCD JUMP JUMPDEST DUP5 SLOAD PUSH4 0xFFFFFFFF NOT AND PUSH4 0xFFFFFFFF SWAP2 SWAP1 SWAP2 AND OR DUP5 SSTORE POP POP POP POP POP POP POP POP POP JUMP JUMPDEST PUSH1 0x0 DUP6 PUSH1 0x40 ADD MLOAD PUSH2 0xFFFF AND DUP6 PUSH2 0xFFFF AND EQ ISZERO PUSH2 0x32AC JUMPI PUSH1 0x0 DUP1 REVERT JUMPDEST DUP3 PUSH2 0x32B9 JUMPI POP PUSH1 0x0 PUSH2 0x307E JUMP JUMPDEST TIMESTAMP DUP5 GT PUSH2 0x32F6 JUMPI PUSH1 0x0 DUP4 SLT ISZERO PUSH2 0x32CE JUMPI PUSH1 0x0 DUP1 REVERT JUMPDEST PUSH1 0x0 PUSH2 0x32DF DUP7 PUSH2 0xFFFF AND DUP7 TIMESTAMP PUSH2 0x1428 JUMP JUMPDEST SWAP1 POP PUSH2 0x32EE PUSH2 0x961 DUP3 DUP7 PUSH2 0x15A6 JUMP JUMPDEST SWAP2 POP POP PUSH2 0x307E JUMP JUMPDEST PUSH2 0x3309 DUP6 DUP6 DUP6 DUP6 DUP11 PUSH2 0x100 ADD MLOAD TIMESTAMP PUSH2 0x3BE0 JUMP JUMPDEST SWAP1 POP PUSH1 0x0 DUP4 SGT DUP1 ISZERO PUSH2 0x3319 JUMPI POP DUP1 ISZERO JUMPDEST ISZERO PUSH2 0x3335 JUMPI PUSH2 0x160 DUP7 ADD MLOAD PUSH2 0x3332 SWAP1 PUSH2 0x961 SWAP1 DUP6 PUSH2 0x15A6 JUMP JUMPDEST SWAP1 POP JUMPDEST PUSH1 0x0 DUP4 SLT ISZERO PUSH2 0x307E JUMPI PUSH1 0x0 DUP2 SGT PUSH2 0x307E JUMPI PUSH1 0x40 MLOAD PUSH3 0x461BCD PUSH1 0xE5 SHL DUP2 MSTORE PUSH1 0x4 ADD PUSH2 0x326 SWAP1 PUSH2 0x5389 JUMP JUMPDEST PUSH1 0x0 PUSH4 0x5F5E100 DUP4 PUSH1 0x40 ADD MLOAD EQ ISZERO PUSH2 0x3377 JUMPI POP DUP1 PUSH2 0xFB2 JUMP JUMPDEST PUSH2 0x8A3 PUSH4 0x5F5E100 PUSH2 0x1123 DUP6 PUSH1 0x40 ADD MLOAD DUP6 PUSH2 0x29C4 SWAP1 SWAP2 SWAP1 PUSH4 0xFFFFFFFF AND JUMP JUMPDEST PUSH1 0x40 DUP1 MLOAD PUSH1 0x1 PUSH1 0x1 PUSH1 0xA0 SHL SUB DUP5 DUP2 AND PUSH1 0x24 DUP1 DUP5 ADD SWAP2 SWAP1 SWAP2 MSTORE DUP4 MLOAD DUP1 DUP5 SUB SWAP1 SWAP2 ADD DUP2 MSTORE PUSH1 0x44 SWAP1 SWAP3 ADD DUP4 MSTORE PUSH1 0x20 DUP3 ADD DUP1 MLOAD PUSH1 0x1 PUSH1 0x1 PUSH1 0xE0 SHL SUB AND PUSH1 0x1 PUSH1 0x1 PUSH1 0xE0 SHL SUB NOT DUP7 AND OR DUP2 MSTORE SWAP3 MLOAD DUP3 MLOAD PUSH1 0x0 SWAP5 DUP6 SWAP5 DUP6 SWAP5 DUP11 AND SWAP4 SWAP1 SWAP3 SWAP1 SWAP2 DUP3 SWAP2 DUP1 DUP4 DUP4 JUMPDEST PUSH1 0x20 DUP4 LT PUSH2 0x3413 JUMPI DUP1 MLOAD DUP3 MSTORE PUSH1 0x1F NOT SWAP1 SWAP3 ADD SWAP2 PUSH1 0x20 SWAP2 DUP3 ADD SWAP2 ADD PUSH2 0x33F4 JUMP JUMPDEST PUSH1 0x1 DUP4 PUSH1 0x20 SUB PUSH2 0x100 EXP SUB DUP1 NOT DUP3 MLOAD AND DUP2 DUP5 MLOAD AND DUP1 DUP3 OR DUP6 MSTORE POP POP POP POP POP POP SWAP1 POP ADD SWAP2 POP POP PUSH1 0x0 PUSH1 0x40 MLOAD DUP1 DUP4 SUB DUP2 DUP6 GAS STATICCALL SWAP2 POP POP RETURNDATASIZE DUP1 PUSH1 0x0 DUP2 EQ PUSH2 0x3473 JUMPI PUSH1 0x40 MLOAD SWAP2 POP PUSH1 0x1F NOT PUSH1 0x3F RETURNDATASIZE ADD AND DUP3 ADD PUSH1 0x40 MSTORE RETURNDATASIZE DUP3 MSTORE RETURNDATASIZE PUSH1 0x0 PUSH1 0x20 DUP5 ADD RETURNDATACOPY PUSH2 0x3478 JUMP JUMPDEST PUSH1 0x60 SWAP2 POP JUMPDEST POP SWAP2 POP SWAP2 POP DUP2 PUSH2 0x3487 JUMPI PUSH1 0x0 DUP1 REVERT JUMPDEST DUP1 DUP1 PUSH1 0x20 ADD SWAP1 MLOAD PUSH1 0x20 DUP2 LT ISZERO PUSH2 0x349C JUMPI PUSH1 0x0 DUP1 REVERT JUMPDEST POP MLOAD SWAP7 SWAP6 POP POP POP POP POP POP JUMP JUMPDEST PUSH2 0x34B0 PUSH2 0x3CEF JUMP JUMPDEST SLOAD DUP3 MLOAD PUSH1 0x40 MLOAD PUSH4 0xE8EDA9DF PUSH1 0xE0 SHL DUP2 MSTORE PUSH1 0x1 PUSH1 0x1 PUSH1 0xA0 SHL SUB SWAP1 SWAP3 AND SWAP2 PUSH4 0xE8EDA9DF SWAP2 PUSH2 0x34E5 SWAP2 DUP6 SWAP1 ADDRESS SWAP1 PUSH1 0x0 SWAP1 PUSH1 0x4 ADD PUSH2 0x51D1 JUMP JUMPDEST PUSH1 0x0 PUSH1 0x40 MLOAD DUP1 DUP4 SUB DUP2 PUSH1 0x0 DUP8 DUP1 EXTCODESIZE ISZERO DUP1 ISZERO PUSH2 0x34FF JUMPI PUSH1 0x0 DUP1 REVERT JUMPDEST POP GAS CALL ISZERO DUP1 ISZERO PUSH2 0x3513 JUMPI RETURNDATASIZE PUSH1 0x0 DUP1 RETURNDATACOPY RETURNDATASIZE PUSH1 0x0 REVERT JUMPDEST POP POP POP POP POP POP JUMP JUMPDEST DUP2 MLOAD PUSH1 0x40 MLOAD PUSH4 0x140E25AD PUSH1 0xE3 SHL DUP2 MSTORE PUSH1 0x0 SWAP2 PUSH1 0x1 PUSH1 0x1 PUSH1 0xA0 SHL SUB AND SWAP1 PUSH4 0xA0712D68 SWAP1 PUSH2 0x354B SWAP1 DUP6 SWAP1 PUSH1 0x4 ADD PUSH2 0x52FD JUMP JUMPDEST PUSH1 0x20 PUSH1 0x40 MLOAD DUP1 DUP4 SUB DUP2 PUSH1 0x0 DUP8 DUP1 EXTCODESIZE ISZERO DUP1 ISZERO PUSH2 0x3565 JUMPI PUSH1 0x0 DUP1 REVERT JUMPDEST POP GAS CALL ISZERO DUP1 ISZERO PUSH2 0x3579 JUMPI RETURNDATASIZE PUSH1 0x0 DUP1 RETURNDATACOPY RETURNDATASIZE PUSH1 0x0 REVERT JUMPDEST POP POP POP POP PUSH1 0x40 MLOAD RETURNDATASIZE PUSH1 0x1F NOT PUSH1 0x1F DUP3 ADD AND DUP3 ADD DUP1 PUSH1 0x40 MSTORE POP DUP2 ADD SWAP1 PUSH2 0x359D SWAP2 SWAP1 PUSH2 0x4FA2 JUMP JUMPDEST SWAP1 POP DUP1 ISZERO PUSH2 0x1388 JUMPI PUSH1 0x40 MLOAD PUSH3 0x461BCD PUSH1 0xE5 SHL DUP2 MSTORE PUSH1 0x4 ADD PUSH2 0x326 SWAP1 PUSH2 0x5421 JUMP JUMPDEST DUP2 PUSH1 0x0 ADD MLOAD PUSH1 0x1 PUSH1 0x1 PUSH1 0xA0 SHL SUB AND PUSH4 0x1249C58B DUP3 PUSH1 0x40 MLOAD DUP3 PUSH4 0xFFFFFFFF AND PUSH1 0xE0 SHL DUP2 MSTORE PUSH1 0x4 ADD PUSH1 0x0 PUSH1 0x40 MLOAD DUP1 DUP4 SUB DUP2 DUP6 DUP9 DUP1 EXTCODESIZE ISZERO DUP1 ISZERO PUSH2 0x35FC JUMPI PUSH1 0x0 DUP1 REVERT JUMPDEST POP GAS CALL ISZERO DUP1 ISZERO PUSH2 0x3610 JUMPI RETURNDATASIZE PUSH1 0x0 DUP1 RETURNDATACOPY RETURNDATASIZE PUSH1 0x0 REVERT JUMPDEST POP POP POP POP POP POP POP JUMP JUMPDEST PUSH1 0x0 DUP3 DUP3 GT ISZERO PUSH2 0x1E56 JUMPI PUSH1 0x40 DUP1 MLOAD PUSH3 0x461BCD PUSH1 0xE5 SHL DUP2 MSTORE PUSH1 0x20 PUSH1 0x4 DUP3 ADD MSTORE PUSH1 0x1E PUSH1 0x24 DUP3 ADD MSTORE PUSH32 0x536166654D6174683A207375627472616374696F6E206F766572666C6F770000 PUSH1 0x44 DUP3 ADD MSTORE SWAP1 MLOAD SWAP1 DUP2 SWAP1 SUB PUSH1 0x64 ADD SWAP1 REVERT JUMPDEST PUSH1 0x0 DUP1 PUSH2 0xFB2 PUSH1 0x14 PUSH2 0x2A59 JUMP JUMPDEST PUSH2 0x3685 PUSH2 0x4B30 JUMP JUMPDEST PUSH1 0x0 DUP1 PUSH1 0x0 PUSH2 0x2806 DUP6 PUSH2 0x3CFC JUMP JUMPDEST PUSH2 0x369B PUSH2 0x4B30 JUMP JUMPDEST PUSH1 0x0 DUP1 PUSH2 0x36A8 DUP6 DUP6 PUSH2 0x2D91 JUMP JUMPDEST SWAP2 POP SWAP2 POP DUP2 PUSH1 0x0 EQ ISZERO PUSH2 0x36C6 JUMPI PUSH2 0x36BE DUP6 PUSH2 0x3CFC JUMP JUMPDEST SWAP2 SWAP4 POP SWAP1 SWAP2 POP POP JUMPDEST PUSH1 0x40 DUP1 MLOAD PUSH1 0x60 DUP2 ADD DUP3 MSTORE PUSH1 0x0 DUP2 MSTORE PUSH1 0x20 DUP2 ADD SWAP4 SWAP1 SWAP4 MSTORE PUSH1 0xFF SWAP1 SWAP2 AND PUSH1 0xA EXP SWAP1 DUP3 ADD MSTORE SWAP1 POP SWAP3 SWAP2 POP POP JUMP JUMPDEST PUSH1 0x0 DUP2 PUSH2 0x36FF JUMPI POP PUSH1 0x0 PUSH2 0x15D7 JUMP JUMPDEST PUSH1 0x0 DUP1 PUSH2 0x370C DUP8 DUP6 PUSH2 0x3D7F JUMP JUMPDEST SWAP2 POP SWAP2 POP PUSH1 0x0 PUSH2 0x372B DUP8 PUSH1 0x40 ADD MLOAD DUP9 PUSH1 0x0 ADD MLOAD DUP9 DUP6 DUP13 PUSH1 0x0 ADD MLOAD PUSH2 0x2FC0 JUMP JUMPDEST SWAP1 POP PUSH2 0x3749 PUSH2 0x3739 DUP5 PUSH2 0x15EC JUMP JUMPDEST PUSH2 0x160 DUP10 ADD MLOAD PUSH2 0x1AD1 SWAP1 DUP5 PUSH2 0x15A6 JUMP JUMPDEST SWAP9 SWAP8 POP POP POP POP POP POP POP POP JUMP JUMPDEST PUSH1 0x0 PUSH2 0x3760 DUP5 PUSH2 0x3DD8 JUMP JUMPDEST ISZERO PUSH2 0x8A3 JUMPI PUSH1 0x0 PUSH2 0x376F PUSH2 0x11E5 JUMP JUMPDEST PUSH1 0x1 PUSH1 0x1 PUSH1 0xA0 SHL SUB DUP1 DUP7 AND PUSH1 0x0 SWAP1 DUP2 MSTORE PUSH1 0x20 SWAP3 DUP4 MSTORE PUSH1 0x40 DUP1 DUP3 KECCAK256 DUP10 MLOAD SWAP1 SWAP4 AND DUP3 MSTORE SWAP2 SWAP1 SWAP3 MSTORE DUP1 DUP3 KECCAK256 SWAP1 DUP8 ADD MLOAD SWAP1 SWAP3 POP PUSH2 0x37AB SWAP1 PUSH2 0xFFFF AND PUSH2 0x283C JUMP JUMPDEST DUP3 SLOAD SWAP1 SWAP2 POP PUSH1 0x1 PUSH1 0x1 PUSH1 0x50 SHL SUB PUSH1 0x1 PUSH1 0x20 SHL DUP3 DIV DUP2 AND SWAP2 PUSH1 0x1 PUSH1 0x70 SHL SWAP1 DIV AND DUP2 ISZERO PUSH2 0x3801 JUMPI PUSH2 0x37FE PUSH2 0x37F7 DUP5 DUP11 PUSH2 0x140 ADD MLOAD PUSH1 0x0 PUSH1 0x2 DUP2 LT PUSH2 0x37E9 JUMPI INVALID JUMPDEST PUSH1 0x20 MUL ADD MLOAD DUP12 MLOAD DUP11 DUP8 PUSH2 0x3E01 JUMP JUMPDEST DUP7 SWAP1 PUSH2 0x2C18 JUMP JUMPDEST SWAP5 POP JUMPDEST DUP1 ISZERO PUSH2 0x3831 JUMPI PUSH2 0x382E PUSH2 0x37F7 DUP5 DUP11 PUSH2 0x140 ADD MLOAD PUSH1 0x1 PUSH1 0x2 DUP2 LT PUSH2 0x3820 JUMPI INVALID JUMPDEST PUSH1 0x20 MUL ADD MLOAD DUP12 MLOAD DUP11 DUP7 PUSH2 0x3E01 JUMP JUMPDEST SWAP5 POP JUMPDEST POP POP POP POP SWAP4 SWAP3 POP POP POP JUMP JUMPDEST PUSH1 0x0 PUSH2 0x8A3 PUSH2 0x384F DUP5 PUSH4 0x3B9ACA00 PUSH2 0x29C4 JUMP JUMPDEST DUP4 PUSH2 0x2A12 JUMP JUMPDEST PUSH1 0x0 DUP1 PUSH2 0x389D DUP9 PUSH1 0x40 MLOAD DUP1 PUSH1 0xA0 ADD PUSH1 0x40 MSTORE DUP1 DUP11 PUSH1 0x1 PUSH1 0x1 PUSH1 0xA0 SHL SUB AND DUP2 MSTORE PUSH1 0x20 ADD DUP11 PUSH1 0x1 PUSH1 0x1 PUSH1 0xA0 SHL SUB AND DUP2 MSTORE PUSH1 0x20 ADD DUP10 DUP2 MSTORE PUSH1 0x20 ADD DUP9 DUP2 MSTORE PUSH1 0x20 ADD PUSH1 0x0 DUP2 MSTORE POP DUP7 DUP7 PUSH2 0x3EB2 JUMP JUMPDEST SWAP1 SWAP10 SWAP1 SWAP9 POP SWAP7 POP POP POP POP POP POP POP JUMP JUMPDEST PUSH1 0x0 DUP1 PUSH2 0xFB2 PUSH1 0x10 PUSH2 0x2A59 JUMP JUMPDEST DUP1 PUSH1 0x5 DUP6 PUSH1 0x60 ADD MLOAD PUSH1 0x5 DUP2 GT ISZERO PUSH2 0x38CC JUMPI INVALID JUMPDEST EQ ISZERO PUSH2 0x38F1 JUMPI PUSH1 0x0 PUSH2 0x38DD DUP5 PUSH2 0x12BC JUMP JUMPDEST SWAP1 POP PUSH2 0x38ED DUP2 PUSH1 0x0 ADD MLOAD DUP5 PUSH2 0x4127 JUMP JUMPDEST SWAP3 POP POP JUMPDEST PUSH1 0x0 DUP3 SGT ISZERO PUSH2 0x391D JUMPI PUSH1 0x0 PUSH2 0x3907 DUP7 DUP7 DUP6 PUSH2 0x41AD JUMP JUMPDEST SWAP1 POP DUP6 PUSH1 0x20 ADD MLOAD ISZERO PUSH2 0x3917 JUMPI DUP1 SWAP2 POP JUMPDEST POP PUSH2 0x15D7 JUMP JUMPDEST PUSH1 0x3 DUP6 PUSH1 0x60 ADD MLOAD PUSH1 0x5 DUP2 GT ISZERO PUSH2 0x392F JUMPI INVALID JUMPDEST EQ ISZERO PUSH2 0x394C JUMPI PUSH2 0x3947 DUP5 PUSH2 0x3942 DUP5 PUSH2 0x1598 JUMP JUMPDEST PUSH2 0x42A0 JUMP JUMPDEST PUSH2 0x15D7 JUMP JUMPDEST DUP5 MLOAD PUSH2 0x15D7 SWAP1 DUP6 PUSH2 0x395C DUP6 PUSH2 0x1598 JUMP JUMPDEST PUSH2 0x42D6 JUMP JUMPDEST PUSH1 0x0 DUP1 PUSH1 0x2 DUP7 PUSH1 0x60 ADD MLOAD PUSH1 0x5 DUP2 GT ISZERO PUSH2 0x3976 JUMPI INVALID JUMPDEST EQ ISZERO PUSH2 0x398E JUMPI PUSH2 0x3987 DUP7 DUP6 DUP6 PUSH2 0x434D JUMP JUMPDEST SWAP1 POP PUSH2 0x39EB JUMP JUMPDEST PUSH1 0x0 PUSH2 0x3999 DUP7 PUSH2 0x12BC JUMP JUMPDEST SWAP1 POP PUSH1 0x5 DUP8 PUSH1 0x60 ADD MLOAD PUSH1 0x5 DUP2 GT ISZERO PUSH2 0x39AD JUMPI INVALID JUMPDEST EQ ISZERO PUSH2 0x39C5 JUMPI PUSH2 0x39BE DUP2 DUP7 DUP7 PUSH2 0x440A JUMP JUMPDEST SWAP2 POP PUSH2 0x39E9 JUMP JUMPDEST PUSH1 0x1 DUP8 PUSH1 0x60 ADD MLOAD PUSH1 0x5 DUP2 GT ISZERO PUSH2 0x39D7 JUMPI INVALID JUMPDEST EQ ISZERO PUSH2 0x12C JUMPI PUSH2 0x39BE DUP8 DUP3 DUP8 DUP8 PUSH2 0x44BB JUMP JUMPDEST POP JUMPDEST PUSH2 0x121D PUSH2 0x961 DUP3 PUSH2 0x15EC JUMP JUMPDEST PUSH1 0x0 DUP1 PUSH2 0xFB2 PUSH1 0x7 PUSH2 0x2A59 JUMP JUMPDEST PUSH1 0x0 DUP1 PUSH1 0x0 PUSH2 0x3A11 PUSH2 0x45B9 JUMP JUMPDEST PUSH1 0x0 SWAP5 DUP6 MSTORE PUSH1 0x20 MSTORE POP POP PUSH1 0x40 SWAP1 SWAP2 KECCAK256 SLOAD PUSH1 0x1 PUSH1 0x1 PUSH1 0xA0 SHL SUB DUP2 AND SWAP3 PUSH1 0x1 PUSH1 0xA0 SHL SWAP1 SWAP2 DIV PUSH1 0xFF AND SWAP2 POP JUMP JUMPDEST PUSH1 0x0 DUP1 PUSH2 0xFB2 PUSH1 0x6 PUSH2 0x2A59 JUMP JUMPDEST PUSH1 0x8 DUP2 SWAP1 SHR PUSH1 0xFF SWAP1 SWAP2 AND SHL SWAP1 JUMP JUMPDEST PUSH1 0x0 PUSH2 0x3A60 PUSH2 0x3A3B JUMP JUMPDEST PUSH1 0x1 PUSH1 0x1 PUSH1 0xA0 SHL SUB DUP9 AND PUSH1 0x0 SWAP1 DUP2 MSTORE PUSH1 0x20 DUP3 DUP2 MSTORE PUSH1 0x40 DUP1 DUP4 KECCAK256 DUP11 DUP5 MSTORE SWAP1 SWAP2 MSTORE SWAP1 KECCAK256 SWAP1 SWAP2 POP PUSH11 0x7FFFFFFFFFFFFFFFFFFFFF NOT DUP7 SLT DUP1 ISZERO SWAP1 PUSH2 0x3AAB JUMPI POP PUSH11 0x7FFFFFFFFFFFFFFFFFFFFF DUP7 SGT ISZERO JUMPDEST PUSH2 0x3AB4 JUMPI PUSH1 0x0 DUP1 REVERT JUMPDEST PUSH1 0x0 DUP6 SLT ISZERO DUP1 ISZERO PUSH2 0x3ACC JUMPI POP PUSH1 0x1 PUSH1 0x1 PUSH1 0x50 SHL SUB DUP6 SGT ISZERO JUMPDEST PUSH2 0x3AD5 JUMPI PUSH1 0x0 DUP1 REVERT JUMPDEST DUP4 PUSH2 0x3B15 JUMPI PUSH7 0xFFFFFFFFFFFFFF DUP4 GT ISZERO PUSH2 0x3AEE JUMPI PUSH1 0x0 DUP1 REVERT JUMPDEST DUP1 SLOAD PUSH7 0xFFFFFFFFFFFFFF PUSH1 0x70 SHL NOT AND PUSH1 0x1 PUSH1 0x70 SHL PUSH7 0xFFFFFFFFFFFFFF DUP6 AND MUL OR DUP2 SSTORE PUSH2 0x3B2F JUMP JUMPDEST DUP1 SLOAD PUSH1 0x1 PUSH1 0x50 SHL SWAP1 DIV PUSH4 0xFFFFFFFF AND DUP5 EQ PUSH2 0x3B2F JUMPI PUSH1 0x0 DUP1 REVERT JUMPDEST DUP1 SLOAD PUSH1 0xA SWAP7 SWAP1 SWAP7 SIGNEXTEND PUSH11 0xFFFFFFFFFFFFFFFFFFFFFF AND PUSH1 0x1 PUSH1 0xA8 SHL MUL PUSH1 0x1 PUSH1 0x1 PUSH1 0xA8 SHL SUB PUSH1 0x1 PUSH1 0x1 PUSH1 0x50 SHL SUB SWAP1 SWAP7 AND PUSH1 0x1 PUSH1 0x1 PUSH1 0x50 SHL SUB NOT PUSH4 0xFFFFFFFF SWAP1 SWAP7 AND PUSH1 0x1 PUSH1 0x50 SHL MUL PUSH4 0xFFFFFFFF PUSH1 0x50 SHL NOT SWAP1 SWAP9 AND SWAP8 SWAP1 SWAP8 OR SWAP5 SWAP1 SWAP5 AND SWAP6 SWAP1 SWAP6 OR SWAP4 SWAP1 SWAP4 AND SWAP2 SWAP1 SWAP2 OR SWAP1 SWAP3 SSTORE POP POP POP POP JUMP JUMPDEST PUSH1 0x0 PUSH4 0x5F5E100 DUP4 PUSH1 0x40 ADD MLOAD EQ ISZERO PUSH2 0x3BB6 JUMPI POP DUP1 PUSH2 0xFB2 JUMP JUMPDEST PUSH1 0x40 DUP4 ADD MLOAD PUSH2 0x8A3 SWAP1 PUSH2 0x1123 DUP5 PUSH4 0x5F5E100 PUSH2 0x29C4 JUMP JUMPDEST PUSH1 0x0 PUSH4 0xFFFFFFFF DUP3 GT ISZERO PUSH2 0x11DD JUMPI PUSH1 0x0 DUP1 REVERT JUMPDEST PUSH1 0x0 DUP1 PUSH2 0x3BEF DUP9 DUP9 DUP7 DUP7 PUSH2 0x45C6 JUMP JUMPDEST SWAP1 POP PUSH1 0x0 PUSH2 0x3BFC DUP8 PUSH2 0x4635 JUMP JUMPDEST SWAP1 POP PUSH11 0xFFFFFFFFFFFFFFFFFFFFFF DUP2 LT PUSH2 0x3C15 JUMPI PUSH1 0x0 DUP1 REVERT JUMPDEST PUSH1 0x0 PUSH1 0x78 DUP8 PUSH4 0xFFFFFFFF AND SWAP1 SHL PUSH1 0x98 DUP4 SWAP1 SHL PUSH1 0xF0 DUP6 SWAP1 SHL PUSH1 0xF8 PUSH1 0x0 DUP13 SGT PUSH2 0x3C3D JUMPI PUSH1 0x1 PUSH2 0x3C40 JUMP JUMPDEST PUSH1 0x0 JUMPDEST PUSH1 0x5 DUP2 GT ISZERO PUSH2 0x3C4B JUMPI INVALID JUMPDEST PUSH1 0xFF AND SWAP1 SHL OR OR OR PUSH1 0x0 SHL SWAP1 POP PUSH20 0x0 PUSH4 0xE50F349E DUP12 DUP4 PUSH1 0x40 MLOAD DUP4 PUSH4 0xFFFFFFFF AND PUSH1 0xE0 SHL DUP2 MSTORE PUSH1 0x4 ADD PUSH2 0x3C91 SWAP3 SWAP2 SWAP1 PUSH2 0x58A1 JUMP JUMPDEST PUSH1 0x20 PUSH1 0x40 MLOAD DUP1 DUP4 SUB DUP2 DUP7 DUP1 EXTCODESIZE ISZERO DUP1 ISZERO PUSH2 0x3CA9 JUMPI PUSH1 0x0 DUP1 REVERT JUMPDEST POP GAS DELEGATECALL ISZERO DUP1 ISZERO PUSH2 0x3CBD JUMPI RETURNDATASIZE PUSH1 0x0 DUP1 RETURNDATACOPY RETURNDATASIZE PUSH1 0x0 REVERT JUMPDEST POP POP POP POP PUSH1 0x40 MLOAD RETURNDATASIZE PUSH1 0x1F NOT PUSH1 0x1F DUP3 ADD AND DUP3 ADD DUP1 PUSH1 0x40 MSTORE POP DUP2 ADD SWAP1 PUSH2 0x3CE1 SWAP2 SWAP1 PUSH2 0x4FA2 JUMP JUMPDEST SWAP11 SWAP10 POP POP POP POP POP POP POP POP POP POP JUMP JUMPDEST PUSH1 0x0 DUP1 PUSH2 0xFB2 PUSH1 0x13 PUSH2 0x2A59 JUMP JUMPDEST PUSH1 0x0 DUP1 PUSH1 0x0 DUP1 PUSH1 0x0 PUSH2 0x3D0D DUP7 PUSH2 0x3A04 JUMP JUMPDEST SWAP1 SWAP3 POP SWAP1 POP PUSH1 0x0 PUSH1 0x1 PUSH1 0x1 PUSH1 0xA0 SHL SUB DUP4 AND PUSH2 0x3D32 JUMPI POP PUSH1 0x0 SWAP1 POP PUSH5 0x2540BE400 PUSH2 0x2E92 JUMP JUMPDEST DUP3 PUSH1 0x1 PUSH1 0x1 PUSH1 0xA0 SHL SUB AND PUSH4 0xB2FFFB04 PUSH1 0x40 MLOAD DUP2 PUSH4 0xFFFFFFFF AND PUSH1 0xE0 SHL DUP2 MSTORE PUSH1 0x4 ADD PUSH1 0x20 PUSH1 0x40 MLOAD DUP1 DUP4 SUB DUP2 DUP7 DUP1 EXTCODESIZE ISZERO DUP1 ISZERO PUSH2 0x3D6B JUMPI PUSH1 0x0 DUP1 REVERT JUMPDEST POP GAS STATICCALL ISZERO DUP1 ISZERO PUSH2 0x2E5F JUMPI RETURNDATASIZE PUSH1 0x0 DUP1 RETURNDATACOPY RETURNDATASIZE PUSH1 0x0 REVERT JUMPDEST PUSH1 0x0 DUP1 PUSH1 0x0 DUP5 PUSH1 0x60 ADD MLOAD GT ISZERO PUSH2 0xB7C JUMPI PUSH2 0x3DAE DUP5 PUSH1 0x60 ADD MLOAD PUSH2 0x1C16 DUP7 PUSH1 0x80 ADD MLOAD DUP7 PUSH2 0x30C4 SWAP1 SWAP2 SWAP1 PUSH4 0xFFFFFFFF AND JUMP JUMPDEST SWAP2 POP PUSH2 0x3DCF DUP5 PUSH1 0x60 ADD MLOAD PUSH2 0x1C16 DUP7 PUSH1 0xA0 ADD MLOAD DUP7 PUSH2 0x30C4 SWAP1 SWAP2 SWAP1 PUSH4 0xFFFFFFFF AND JUMP JUMPDEST SWAP1 POP SWAP3 POP SWAP3 SWAP1 POP JUMP JUMPDEST PUSH2 0x140 DUP2 ADD MLOAD MLOAD PUSH1 0x0 SWAP1 PUSH2 0xFFFF AND ISZERO ISZERO DUP1 PUSH2 0xFB2 JUMPI POP POP PUSH2 0x140 ADD MLOAD PUSH1 0x20 ADD MLOAD PUSH2 0xFFFF AND ISZERO ISZERO SWAP1 JUMP JUMPDEST PUSH1 0x0 DUP1 PUSH2 0x3E0C PUSH2 0x15DF JUMP JUMPDEST PUSH1 0x1 PUSH1 0x1 PUSH1 0xA0 SHL SUB DUP7 AND PUSH1 0x0 SWAP1 DUP2 MSTORE PUSH1 0x20 SWAP2 DUP3 MSTORE PUSH1 0x40 DUP1 DUP3 KECCAK256 DUP8 DUP4 MSTORE DUP4 MSTORE DUP1 DUP3 KECCAK256 PUSH2 0xFFFF DUP11 AND DUP4 MSTORE SWAP1 SWAP3 MSTORE SWAP1 DUP2 KECCAK256 DUP1 SLOAD SWAP1 SWAP3 POP PUSH1 0x1 PUSH1 0x1 PUSH1 0x50 SHL SUB DUP1 DUP3 AND SWAP3 PUSH1 0x1 PUSH1 0x50 SHL SWAP1 SWAP3 DIV AND SWAP1 PUSH2 0x3E66 PUSH2 0x1C1C DUP4 PUSH2 0x1C16 DUP10 DUP8 PUSH2 0x30C4 JUMP JUMPDEST SWAP1 POP PUSH1 0x0 PUSH2 0x3E77 DUP11 PUSH2 0xFFFF AND PUSH2 0x283C JUMP JUMPDEST SWAP1 POP PUSH1 0x0 PUSH2 0x3E85 DUP13 DUP4 PUSH2 0x299F JUMP JUMPDEST SWAP1 POP PUSH2 0x3EA2 DUP2 PUSH2 0x1123 DUP15 PUSH1 0x0 ADD MLOAD DUP7 PUSH2 0x29C4 SWAP1 SWAP2 SWAP1 PUSH4 0xFFFFFFFF AND JUMP JUMPDEST SWAP13 SWAP12 POP POP POP POP POP POP POP POP POP POP POP POP JUMP JUMPDEST PUSH1 0x0 DUP1 PUSH1 0x0 DUP1 PUSH2 0x3EC1 DUP9 PUSH2 0x4656 JUMP JUMPDEST SWAP2 POP SWAP2 POP PUSH1 0x0 DUP1 DUP9 PUSH1 0x80 ADD MLOAD SLT ISZERO PUSH2 0x3F36 JUMPI PUSH1 0x4 DUP4 PUSH1 0x60 ADD MLOAD PUSH1 0x5 DUP2 GT ISZERO PUSH2 0x3EE5 JUMPI INVALID JUMPDEST EQ ISZERO PUSH2 0x3F02 JUMPI PUSH2 0x3EFB PUSH2 0x34D DUP10 PUSH1 0x80 ADD MLOAD PUSH2 0x1598 JUMP JUMPDEST SWAP1 POP PUSH2 0x3F36 JUMP JUMPDEST PUSH1 0x0 PUSH2 0x3F23 PUSH2 0x961 DUP11 PUSH1 0x80 ADD MLOAD DUP13 PUSH2 0x160 ADD MLOAD PUSH2 0x1D36 SWAP1 SWAP2 SWAP1 PUSH4 0xFFFFFFFF AND JUMP JUMPDEST SWAP1 POP PUSH2 0x3F32 PUSH2 0x34D DUP5 DUP4 PUSH2 0x1D61 JUMP JUMPDEST SWAP2 POP POP JUMPDEST PUSH1 0x40 DUP9 ADD MLOAD PUSH1 0x0 SWAP1 ISZERO PUSH2 0x400E JUMPI PUSH1 0x0 PUSH2 0x3F4F DUP5 ADDRESS PUSH2 0x1D9D JUMP JUMPDEST SWAP1 POP DUP11 PUSH1 0x0 ADD MLOAD PUSH1 0x1 PUSH1 0x1 PUSH1 0xA0 SHL SUB AND PUSH4 0x44F05108 DUP12 PUSH1 0x0 ADD MLOAD DUP13 PUSH1 0x20 ADD MLOAD DUP14 PUSH1 0x40 ADD MLOAD DUP15 PUSH1 0x60 ADD MLOAD DUP9 DUP16 DUP16 PUSH1 0x40 MLOAD DUP9 PUSH4 0xFFFFFFFF AND PUSH1 0xE0 SHL DUP2 MSTORE PUSH1 0x4 ADD PUSH2 0x3F9D SWAP8 SWAP7 SWAP6 SWAP5 SWAP4 SWAP3 SWAP2 SWAP1 PUSH2 0x5170 JUMP JUMPDEST PUSH1 0x20 PUSH1 0x40 MLOAD DUP1 DUP4 SUB DUP2 PUSH1 0x0 DUP8 DUP1 EXTCODESIZE ISZERO DUP1 ISZERO PUSH2 0x3FB7 JUMPI PUSH1 0x0 DUP1 REVERT JUMPDEST POP GAS CALL ISZERO DUP1 ISZERO PUSH2 0x3FCB JUMPI RETURNDATASIZE PUSH1 0x0 DUP1 RETURNDATACOPY RETURNDATASIZE PUSH1 0x0 REVERT JUMPDEST POP POP POP POP PUSH1 0x40 MLOAD RETURNDATASIZE PUSH1 0x1F NOT PUSH1 0x1F DUP3 ADD AND DUP3 ADD DUP1 PUSH1 0x40 MSTORE POP DUP2 ADD SWAP1 PUSH2 0x3FEF SWAP2 SWAP1 PUSH2 0x4FA2 JUMP JUMPDEST SWAP6 POP PUSH1 0x0 PUSH2 0x3FFD DUP6 ADDRESS PUSH2 0x1D9D JUMP JUMPDEST SWAP1 POP PUSH2 0x4009 DUP2 DUP4 PUSH2 0x1E47 JUMP JUMPDEST SWAP3 POP POP POP JUMPDEST DUP2 DUP2 LT ISZERO PUSH2 0x40A9 JUMPI DUP1 DUP3 SUB PUSH1 0x3 DUP5 PUSH1 0x60 ADD MLOAD PUSH1 0x5 DUP2 GT ISZERO PUSH2 0x402B JUMPI INVALID JUMPDEST EQ ISZERO PUSH2 0x4069 JUMPI CALLVALUE DUP2 GT ISZERO PUSH2 0x4051 JUMPI PUSH1 0x40 MLOAD PUSH3 0x461BCD PUSH1 0xE5 SHL DUP2 MSTORE PUSH1 0x4 ADD PUSH2 0x326 SWAP1 PUSH2 0x5486 JUMP JUMPDEST PUSH2 0x4061 DUP11 PUSH1 0x0 ADD MLOAD DUP3 CALLVALUE SUB PUSH2 0x42A0 JUMP JUMPDEST DUP3 SWAP2 POP PUSH2 0x40A7 JUMP JUMPDEST PUSH1 0x0 PUSH2 0x408E DUP12 PUSH1 0x0 ADD MLOAD DUP14 PUSH1 0x40 ADD MLOAD PUSH2 0xFFFF AND PUSH2 0x4085 DUP6 PUSH2 0x15EC JUMP JUMPDEST DUP9 SWAP3 SWAP2 SWAP1 PUSH2 0x38B9 JUMP JUMPDEST SWAP1 POP PUSH2 0x40A3 PUSH2 0x409C DUP3 PUSH2 0x11CE JUMP JUMPDEST DUP5 SWAP1 PUSH2 0x172A JUMP JUMPDEST SWAP3 POP POP JUMPDEST POP JUMPDEST DUP2 DUP2 LT ISZERO PUSH2 0x40C9 JUMPI PUSH1 0x40 MLOAD PUSH3 0x461BCD PUSH1 0xE5 SHL DUP2 MSTORE PUSH1 0x4 ADD PUSH2 0x326 SWAP1 PUSH2 0x5486 JUMP JUMPDEST PUSH1 0x0 PUSH1 0x4 DUP6 PUSH1 0x60 ADD MLOAD PUSH1 0x5 DUP2 GT ISZERO PUSH2 0x40DD JUMPI INVALID JUMPDEST EQ ISZERO PUSH2 0x40F3 JUMPI PUSH2 0x40EC DUP3 PUSH2 0x15EC JUMP JUMPDEST SWAP1 POP PUSH2 0x410D JUMP JUMPDEST DUP2 ISZERO PUSH2 0x410D JUMPI PUSH1 0x40 DUP12 ADD MLOAD PUSH2 0x410A SWAP1 DUP7 SWAP1 DUP5 PUSH2 0x1E5C JUMP JUMPDEST SWAP1 POP JUMPDEST PUSH2 0x4117 DUP6 DUP3 PUSH2 0x3B9D JUMP JUMPDEST SWAP7 POP POP POP POP POP POP SWAP5 POP SWAP5 SWAP3 POP POP POP JUMP JUMPDEST PUSH1 0x0 DUP2 PUSH2 0x4136 JUMPI POP PUSH1 0x0 PUSH2 0xFB2 JUMP JUMPDEST PUSH1 0x0 PUSH2 0x4141 DUP5 PUSH2 0x46AF JUMP JUMPDEST SWAP1 POP PUSH1 0x0 PUSH2 0x414E DUP5 PUSH2 0x4635 JUMP JUMPDEST SWAP1 POP DUP2 PUSH12 0x19D971E4FE8401E74000001 PUSH1 0x1 PUSH1 0xFF SHL SUB DUP2 PUSH2 0x416B JUMPI INVALID JUMPDEST SDIV DUP2 SGT ISZERO PUSH2 0x4178 JUMPI PUSH1 0x0 DUP1 REVERT JUMPDEST PUSH12 0x33B2E3C9FD0803CE8000000 PUSH12 0x19D971E4FE8401E74000000 DUP4 DUP4 MUL ADD SDIV PUSH1 0x0 DUP6 SGT PUSH2 0x307E JUMPI PUSH2 0x41A8 DUP2 PUSH2 0x1598 JUMP JUMPDEST PUSH2 0x121D JUMP JUMPDEST PUSH1 0x0 DUP1 DUP1 DUP1 PUSH1 0x5 DUP8 PUSH1 0x60 ADD MLOAD PUSH1 0x5 DUP2 GT ISZERO PUSH2 0x41C4 JUMPI INVALID JUMPDEST EQ PUSH2 0x41D6 JUMPI PUSH4 0x70A08231 PUSH1 0xE0 SHL PUSH2 0x41DF JUMP JUMPDEST PUSH4 0xED1279F PUSH1 0xE1 SHL JUMPDEST SWAP1 POP DUP7 PUSH1 0x20 ADD MLOAD ISZERO PUSH2 0x41FB JUMPI DUP7 MLOAD PUSH2 0x41F8 SWAP1 ADDRESS DUP4 PUSH2 0x3396 JUMP JUMPDEST SWAP3 POP JUMPDEST DUP7 MLOAD PUSH2 0x4208 SWAP1 DUP8 DUP8 PUSH2 0x473A JUMP JUMPDEST DUP7 PUSH1 0x20 ADD MLOAD DUP1 PUSH2 0x421C JUMPI POP PUSH1 0x0 DUP8 PUSH1 0x80 ADD MLOAD GT JUMPDEST ISZERO PUSH2 0x4231 JUMPI DUP7 MLOAD PUSH2 0x422E SWAP1 ADDRESS DUP4 PUSH2 0x3396 JUMP JUMPDEST SWAP2 POP JUMPDEST PUSH1 0x80 DUP8 ADD MLOAD ISZERO PUSH2 0x426C JUMPI PUSH1 0x0 PUSH2 0x424F DUP9 PUSH2 0x424A DUP6 PUSH2 0x15EC JUMP JUMPDEST PUSH2 0x3B9D JUMP JUMPDEST SWAP1 POP PUSH2 0x425E DUP9 PUSH1 0x80 ADD MLOAD PUSH2 0x15EC JUMP JUMPDEST DUP2 SGT ISZERO PUSH2 0x426A JUMPI PUSH1 0x0 DUP1 REVERT JUMPDEST POP JUMPDEST DUP7 PUSH1 0x20 ADD MLOAD ISZERO PUSH2 0x428D JUMPI PUSH2 0x4283 PUSH2 0x1C1C DUP4 DUP6 PUSH2 0x3619 JUMP JUMPDEST SWAP4 POP POP POP POP PUSH2 0x8A3 JUMP JUMPDEST PUSH2 0x4283 DUP6 PUSH2 0x15EC JUMP JUMPDEST POP POP POP SWAP4 SWAP3 POP POP POP JUMP JUMPDEST PUSH1 0x40 MLOAD PUSH1 0x1 PUSH1 0x1 PUSH1 0xA0 SHL SUB DUP4 AND SWAP1 DUP3 ISZERO PUSH2 0x8FC MUL SWAP1 DUP4 SWAP1 PUSH1 0x0 DUP2 DUP2 DUP2 DUP6 DUP9 DUP9 CALL SWAP4 POP POP POP POP ISZERO DUP1 ISZERO PUSH2 0x1388 JUMPI RETURNDATASIZE PUSH1 0x0 DUP1 RETURNDATACOPY RETURNDATASIZE PUSH1 0x0 REVERT JUMPDEST DUP3 PUSH1 0x1 PUSH1 0x1 PUSH1 0xA0 SHL SUB AND PUSH4 0xA9059CBB DUP4 DUP4 PUSH1 0x40 MLOAD DUP4 PUSH4 0xFFFFFFFF AND PUSH1 0xE0 SHL DUP2 MSTORE PUSH1 0x4 ADD DUP1 DUP4 PUSH1 0x1 PUSH1 0x1 PUSH1 0xA0 SHL SUB AND DUP2 MSTORE PUSH1 0x20 ADD DUP3 DUP2 MSTORE PUSH1 0x20 ADD SWAP3 POP POP POP PUSH1 0x0 PUSH1 0x40 MLOAD DUP1 DUP4 SUB DUP2 PUSH1 0x0 DUP8 DUP1 EXTCODESIZE ISZERO DUP1 ISZERO PUSH2 0x432D JUMPI PUSH1 0x0 DUP1 REVERT JUMPDEST POP GAS CALL ISZERO DUP1 ISZERO PUSH2 0x4341 JUMPI RETURNDATASIZE PUSH1 0x0 DUP1 RETURNDATACOPY RETURNDATASIZE PUSH1 0x0 REVERT JUMPDEST POP POP POP POP PUSH2 0x1388 PUSH2 0x4792 JUMP JUMPDEST DUP3 MLOAD PUSH1 0x40 MLOAD PUSH4 0xDB006A75 PUSH1 0xE0 SHL DUP2 MSTORE PUSH1 0x0 SWAP2 SELFBALANCE SWAP2 DUP4 SWAP2 PUSH1 0x1 PUSH1 0x1 PUSH1 0xA0 SHL SUB AND SWAP1 PUSH4 0xDB006A75 SWAP1 PUSH2 0x4381 SWAP1 DUP8 SWAP1 PUSH1 0x4 ADD PUSH2 0x52FD JUMP JUMPDEST PUSH1 0x20 PUSH1 0x40 MLOAD DUP1 DUP4 SUB DUP2 PUSH1 0x0 DUP8 DUP1 EXTCODESIZE ISZERO DUP1 ISZERO PUSH2 0x439B JUMPI PUSH1 0x0 DUP1 REVERT JUMPDEST POP GAS CALL ISZERO DUP1 ISZERO PUSH2 0x43AF JUMPI RETURNDATASIZE PUSH1 0x0 DUP1 RETURNDATACOPY RETURNDATASIZE PUSH1 0x0 REVERT JUMPDEST POP POP POP POP PUSH1 0x40 MLOAD RETURNDATASIZE PUSH1 0x1F NOT PUSH1 0x1F DUP3 ADD AND DUP3 ADD DUP1 PUSH1 0x40 MSTORE POP DUP2 ADD SWAP1 PUSH2 0x43D3 SWAP2 SWAP1 PUSH2 0x4FA2 JUMP JUMPDEST SWAP1 POP DUP1 ISZERO PUSH2 0x43F3 JUMPI PUSH1 0x40 MLOAD PUSH3 0x461BCD PUSH1 0xE5 SHL DUP2 MSTORE PUSH1 0x4 ADD PUSH2 0x326 SWAP1 PUSH2 0x543F JUMP JUMPDEST SELFBALANCE PUSH2 0x43FE DUP2 DUP5 PUSH2 0x3619 JUMP JUMPDEST SWAP4 POP PUSH2 0x4296 DUP7 DUP6 PUSH2 0x42A0 JUMP JUMPDEST PUSH1 0x0 PUSH2 0x4425 PUSH2 0x34D DUP6 PUSH1 0x0 ADD MLOAD PUSH2 0x4420 DUP6 PUSH2 0x15EC JUMP JUMPDEST PUSH2 0x4127 JUMP JUMPDEST SWAP1 POP PUSH2 0x442F PUSH2 0x3CEF JUMP JUMPDEST SLOAD DUP5 MLOAD PUSH1 0x40 MLOAD PUSH4 0x1A4CA37B PUSH1 0xE2 SHL DUP2 MSTORE PUSH1 0x1 PUSH1 0x1 PUSH1 0xA0 SHL SUB SWAP1 SWAP3 AND SWAP2 PUSH4 0x69328DEC SWAP2 PUSH2 0x4461 SWAP2 DUP6 SWAP1 DUP9 SWAP1 PUSH1 0x4 ADD PUSH2 0x51AE JUMP JUMPDEST PUSH1 0x20 PUSH1 0x40 MLOAD DUP1 DUP4 SUB DUP2 PUSH1 0x0 DUP8 DUP1 EXTCODESIZE ISZERO DUP1 ISZERO PUSH2 0x447B JUMPI PUSH1 0x0 DUP1 REVERT JUMPDEST POP GAS CALL ISZERO DUP1 ISZERO PUSH2 0x448F JUMPI RETURNDATASIZE PUSH1 0x0 DUP1 RETURNDATACOPY RETURNDATASIZE PUSH1 0x0 REVERT JUMPDEST POP POP POP POP PUSH1 0x40 MLOAD RETURNDATASIZE PUSH1 0x1F NOT PUSH1 0x1F DUP3 ADD AND DUP3 ADD DUP1 PUSH1 0x40 MSTORE POP DUP2 ADD SWAP1 PUSH2 0x44B3 SWAP2 SWAP1 PUSH2 0x4FA2 JUMP JUMPDEST POP SWAP4 SWAP3 POP POP POP JUMP JUMPDEST DUP3 MLOAD PUSH1 0x0 SWAP1 DUP2 SWAP1 PUSH2 0x44D4 SWAP1 ADDRESS PUSH4 0x70A08231 PUSH1 0xE0 SHL PUSH2 0x3396 JUMP JUMPDEST SWAP1 POP PUSH1 0x0 DUP7 PUSH1 0x0 ADD MLOAD PUSH1 0x1 PUSH1 0x1 PUSH1 0xA0 SHL SUB AND PUSH4 0xDB006A75 DUP6 PUSH1 0x40 MLOAD DUP3 PUSH4 0xFFFFFFFF AND PUSH1 0xE0 SHL DUP2 MSTORE PUSH1 0x4 ADD PUSH2 0x4508 SWAP2 SWAP1 PUSH2 0x52FD JUMP JUMPDEST PUSH1 0x20 PUSH1 0x40 MLOAD DUP1 DUP4 SUB DUP2 PUSH1 0x0 DUP8 DUP1 EXTCODESIZE ISZERO DUP1 ISZERO PUSH2 0x4522 JUMPI PUSH1 0x0 DUP1 REVERT JUMPDEST POP GAS CALL ISZERO DUP1 ISZERO PUSH2 0x4536 JUMPI RETURNDATASIZE PUSH1 0x0 DUP1 RETURNDATACOPY RETURNDATASIZE PUSH1 0x0 REVERT JUMPDEST POP POP POP POP PUSH1 0x40 MLOAD RETURNDATASIZE PUSH1 0x1F NOT PUSH1 0x1F DUP3 ADD AND DUP3 ADD DUP1 PUSH1 0x40 MSTORE POP DUP2 ADD SWAP1 PUSH2 0x455A SWAP2 SWAP1 PUSH2 0x4FA2 JUMP JUMPDEST SWAP1 POP DUP1 ISZERO PUSH2 0x457A JUMPI PUSH1 0x40 MLOAD PUSH3 0x461BCD PUSH1 0xE5 SHL DUP2 MSTORE PUSH1 0x4 ADD PUSH2 0x326 SWAP1 PUSH2 0x543F JUMP JUMPDEST DUP6 MLOAD PUSH1 0x0 SWAP1 PUSH2 0x4591 SWAP1 ADDRESS PUSH4 0x70A08231 PUSH1 0xE0 SHL PUSH2 0x3396 JUMP JUMPDEST SWAP1 POP PUSH2 0x459D DUP2 DUP5 PUSH2 0x3619 JUMP JUMPDEST SWAP4 POP PUSH2 0x45AE DUP8 PUSH1 0x0 ADD MLOAD DUP8 DUP7 PUSH2 0x42D6 JUMP JUMPDEST POP POP POP SWAP5 SWAP4 POP POP POP POP JUMP JUMPDEST PUSH1 0x0 DUP1 PUSH2 0xFB2 PUSH1 0xF PUSH2 0x2A59 JUMP JUMPDEST PUSH1 0x0 DUP1 PUSH1 0x0 PUSH2 0x45D8 DUP8 PUSH2 0xFFFF AND PUSH2 0x4803 JUMP JUMPDEST SWAP1 POP PUSH2 0x45E8 DUP2 PUSH1 0xFF AND DUP8 DUP7 PUSH2 0x4819 JUMP JUMPDEST SWAP1 SWAP4 POP SWAP2 POP DUP5 DUP4 GT ISZERO PUSH2 0x460D JUMPI PUSH1 0x40 MLOAD PUSH3 0x461BCD PUSH1 0xE5 SHL DUP2 MSTORE PUSH1 0x4 ADD PUSH2 0x326 SWAP1 PUSH2 0x550C JUMP JUMPDEST DUP2 ISZERO PUSH2 0x462B JUMPI PUSH1 0x40 MLOAD PUSH3 0x461BCD PUSH1 0xE5 SHL DUP2 MSTORE PUSH1 0x4 ADD PUSH2 0x326 SWAP1 PUSH2 0x550C JUMP JUMPDEST POP POP SWAP5 SWAP4 POP POP POP POP JUMP JUMPDEST PUSH1 0x0 DUP1 DUP3 SLT ISZERO PUSH2 0x464F JUMPI PUSH2 0x4648 DUP3 PUSH2 0x1598 JUMP JUMPDEST SWAP1 POP PUSH2 0x11E0 JUMP JUMPDEST POP DUP1 PUSH2 0x11E0 JUMP JUMPDEST PUSH2 0x465E PUSH2 0x4B09 JUMP JUMPDEST PUSH2 0x4666 PUSH2 0x4B09 JUMP JUMPDEST PUSH2 0x4677 DUP4 PUSH1 0x40 ADD MLOAD PUSH2 0xFFFF AND PUSH2 0x12A9 JUMP JUMPDEST SWAP2 POP PUSH1 0x4 DUP3 PUSH1 0x60 ADD MLOAD PUSH1 0x5 DUP2 GT ISZERO PUSH2 0x468B JUMPI INVALID JUMPDEST EQ PUSH2 0x46A6 JUMPI PUSH2 0x46A1 DUP4 PUSH1 0x40 ADD MLOAD PUSH2 0xFFFF AND PUSH2 0x12BC JUMP JUMPDEST PUSH2 0x46A8 JUMP JUMPDEST DUP2 JUMPDEST SWAP1 POP SWAP2 POP SWAP2 JUMP JUMPDEST PUSH1 0x0 PUSH2 0xFB2 PUSH2 0x46BC PUSH2 0x3CEF JUMP JUMPDEST SLOAD PUSH1 0x40 MLOAD PUSH4 0xD15E0053 PUSH1 0xE0 SHL DUP2 MSTORE PUSH1 0x1 PUSH1 0x1 PUSH1 0xA0 SHL SUB SWAP1 SWAP2 AND SWAP1 PUSH4 0xD15E0053 SWAP1 PUSH2 0x46EA SWAP1 DUP7 SWAP1 PUSH1 0x4 ADD PUSH2 0x515C JUMP JUMPDEST PUSH1 0x20 PUSH1 0x40 MLOAD DUP1 DUP4 SUB DUP2 DUP7 DUP1 EXTCODESIZE ISZERO DUP1 ISZERO PUSH2 0x4702 JUMPI PUSH1 0x0 DUP1 REVERT JUMPDEST POP GAS STATICCALL ISZERO DUP1 ISZERO PUSH2 0x4716 JUMPI RETURNDATASIZE PUSH1 0x0 DUP1 RETURNDATACOPY RETURNDATASIZE PUSH1 0x0 REVERT JUMPDEST POP POP POP POP PUSH1 0x40 MLOAD RETURNDATASIZE PUSH1 0x1F NOT PUSH1 0x1F DUP3 ADD AND DUP3 ADD DUP1 PUSH1 0x40 MSTORE POP DUP2 ADD SWAP1 PUSH2 0x1C1C SWAP2 SWAP1 PUSH2 0x4FA2 JUMP JUMPDEST PUSH1 0x40 DUP1 MLOAD PUSH4 0x23B872DD PUSH1 0xE0 SHL DUP2 MSTORE PUSH1 0x1 PUSH1 0x1 PUSH1 0xA0 SHL SUB DUP5 DUP2 AND PUSH1 0x4 DUP4 ADD MSTORE ADDRESS PUSH1 0x24 DUP4 ADD MSTORE PUSH1 0x44 DUP3 ADD DUP5 SWAP1 MSTORE SWAP2 MLOAD SWAP2 DUP6 AND SWAP2 PUSH4 0x23B872DD SWAP2 PUSH1 0x64 DUP1 DUP3 ADD SWAP3 PUSH1 0x0 SWAP3 SWAP1 SWAP2 SWAP1 DUP3 SWAP1 SUB ADD DUP2 DUP4 DUP8 DUP1 EXTCODESIZE ISZERO DUP1 ISZERO PUSH2 0x432D JUMPI PUSH1 0x0 DUP1 REVERT JUMPDEST PUSH1 0x0 PUSH2 0x479C PUSH2 0x4B89 JUMP JUMPDEST RETURNDATASIZE DUP1 ISZERO PUSH2 0x47B0 JUMPI PUSH1 0x20 DUP2 EQ PUSH2 0x47B9 JUMPI PUSH1 0x0 DUP1 REVERT JUMPDEST PUSH1 0x1 SWAP3 POP PUSH2 0x47C4 JUMP JUMPDEST PUSH1 0x20 PUSH1 0x0 DUP4 RETURNDATACOPY DUP2 MLOAD SWAP3 POP JUMPDEST POP DUP2 PUSH2 0x47FF JUMPI PUSH1 0x40 DUP1 MLOAD PUSH3 0x461BCD PUSH1 0xE5 SHL DUP2 MSTORE PUSH1 0x20 PUSH1 0x4 DUP3 ADD MSTORE PUSH1 0x5 PUSH1 0x24 DUP3 ADD MSTORE PUSH5 0x455243323 PUSH1 0xDC SHL PUSH1 0x44 DUP3 ADD MSTORE SWAP1 MLOAD SWAP1 DUP2 SWAP1 SUB PUSH1 0x64 ADD SWAP1 REVERT JUMPDEST POP POP JUMP JUMPDEST PUSH1 0x0 DUP1 PUSH2 0x480F DUP4 PUSH2 0x48E1 JUMP JUMPDEST PUSH1 0xFF AND SWAP4 SWAP3 POP POP POP JUMP JUMPDEST PUSH1 0x0 DUP1 PUSH1 0x0 DUP6 GT PUSH2 0x483C JUMPI PUSH1 0x40 MLOAD PUSH3 0x461BCD PUSH1 0xE5 SHL DUP2 MSTORE PUSH1 0x4 ADD PUSH2 0x326 SWAP1 PUSH2 0x54B6 JUMP JUMPDEST PUSH1 0x7 DUP6 GT ISZERO PUSH2 0x485D JUMPI PUSH1 0x40 MLOAD PUSH3 0x461BCD PUSH1 0xE5 SHL DUP2 MSTORE PUSH1 0x4 ADD PUSH2 0x326 SWAP1 PUSH2 0x55BA JUMP JUMPDEST PUSH1 0x0 PUSH2 0x4868 DUP5 PUSH2 0x48FE JUMP JUMPDEST SWAP1 POP PUSH1 0x1 JUMPDEST DUP7 DUP2 GT PUSH2 0x48C0 JUMPI PUSH1 0x0 PUSH2 0x4889 PUSH2 0x4882 DUP4 PUSH2 0x491C JUMP JUMPDEST DUP5 SWAP1 PUSH2 0x49C0 JUMP JUMPDEST SWAP1 POP DUP7 DUP2 EQ ISZERO PUSH2 0x48A1 JUMPI POP SWAP3 POP PUSH1 0x0 SWAP2 POP PUSH2 0x48D9 SWAP1 POP JUMP JUMPDEST DUP7 DUP2 GT ISZERO PUSH2 0x48B7 JUMPI POP SWAP3 POP PUSH1 0x1 SWAP2 POP PUSH2 0x48D9 SWAP1 POP JUMP JUMPDEST POP PUSH1 0x1 ADD PUSH2 0x486D JUMP JUMPDEST POP PUSH1 0x40 MLOAD PUSH3 0x461BCD PUSH1 0xE5 SHL DUP2 MSTORE PUSH1 0x4 ADD PUSH2 0x326 SWAP1 PUSH2 0x5750 JUMP JUMPDEST SWAP4 POP SWAP4 SWAP2 POP POP JUMP JUMPDEST PUSH1 0x0 DUP1 PUSH2 0x48EC PUSH2 0x4A1A JUMP JUMPDEST PUSH1 0x0 SWAP4 DUP5 MSTORE PUSH1 0x20 MSTORE POP POP PUSH1 0x40 SWAP1 KECCAK256 SLOAD SWAP1 JUMP JUMPDEST PUSH1 0x0 PUSH3 0x76A700 DUP3 LT ISZERO PUSH2 0x4910 JUMPI PUSH1 0x0 DUP1 REVERT JUMPDEST POP PUSH3 0x76A700 DUP2 MOD SWAP1 SUB SWAP1 JUMP JUMPDEST PUSH1 0x0 DUP2 PUSH1 0x1 EQ ISZERO PUSH2 0x4931 JUMPI POP PUSH3 0x76A700 PUSH2 0x11E0 JUMP JUMPDEST DUP2 PUSH1 0x2 EQ ISZERO PUSH2 0x4944 JUMPI POP PUSH3 0xED4E00 PUSH2 0x11E0 JUMP JUMPDEST DUP2 PUSH1 0x3 EQ ISZERO PUSH2 0x4958 JUMPI POP PUSH4 0x1DA9C00 PUSH2 0x11E0 JUMP JUMPDEST DUP2 PUSH1 0x4 EQ ISZERO PUSH2 0x496C JUMPI POP PUSH4 0x3B53800 PUSH2 0x11E0 JUMP JUMPDEST DUP2 PUSH1 0x5 EQ ISZERO PUSH2 0x4980 JUMPI POP PUSH4 0x9450C00 PUSH2 0x11E0 JUMP JUMPDEST DUP2 PUSH1 0x6 EQ ISZERO PUSH2 0x4994 JUMPI POP PUSH4 0x128A1800 PUSH2 0x11E0 JUMP JUMPDEST DUP2 PUSH1 0x7 EQ ISZERO PUSH2 0x49A8 JUMPI POP PUSH4 0x25143000 PUSH2 0x11E0 JUMP JUMPDEST PUSH1 0x40 MLOAD PUSH3 0x461BCD PUSH1 0xE5 SHL DUP2 MSTORE PUSH1 0x4 ADD PUSH2 0x326 SWAP1 PUSH2 0x54E5 JUMP JUMPDEST PUSH1 0x0 DUP3 DUP3 ADD DUP4 DUP2 LT ISZERO PUSH2 0x8A3 JUMPI PUSH1 0x40 DUP1 MLOAD PUSH3 0x461BCD PUSH1 0xE5 SHL DUP2 MSTORE PUSH1 0x20 PUSH1 0x4 DUP3 ADD MSTORE PUSH1 0x1B PUSH1 0x24 DUP3 ADD MSTORE PUSH32 0x536166654D6174683A206164646974696F6E206F766572666C6F770000000000 PUSH1 0x44 DUP3 ADD MSTORE SWAP1 MLOAD SWAP1 DUP2 SWAP1 SUB PUSH1 0x64 ADD SWAP1 REVERT JUMPDEST PUSH1 0x0 DUP1 PUSH2 0xFB2 PUSH1 0x9 PUSH2 0x2A59 JUMP JUMPDEST PUSH1 0x40 MLOAD DUP1 PUSH1 0x40 ADD PUSH1 0x40 MSTORE DUP1 PUSH1 0x2 SWAP1 PUSH1 0x20 DUP3 MUL DUP1 CALLDATASIZE DUP4 CALLDATACOPY POP SWAP2 SWAP3 SWAP2 POP POP JUMP JUMPDEST PUSH1 0x40 MLOAD DUP1 PUSH1 0xE0 ADD PUSH1 0x40 MSTORE DUP1 PUSH1 0x0 DUP2 MSTORE PUSH1 0x20 ADD PUSH1 0x0 DUP2 MSTORE PUSH1 0x20 ADD PUSH1 0x0 ISZERO ISZERO DUP2 MSTORE PUSH1 0x20 ADD PUSH1 0x0 DUP2 MSTORE PUSH1 0x20 ADD PUSH1 0x0 DUP2 MSTORE PUSH1 0x20 ADD PUSH1 0x0 DUP2 MSTORE PUSH1 0x20 ADD PUSH1 0x0 DUP2 MSTORE POP SWAP1 JUMP JUMPDEST PUSH1 0x40 MLOAD DUP1 PUSH2 0x1A0 ADD PUSH1 0x40 MSTORE DUP1 PUSH1 0x0 PUSH1 0x1 PUSH1 0x1 PUSH1 0xA0 SHL SUB AND DUP2 MSTORE PUSH1 0x20 ADD PUSH1 0x0 PUSH2 0xFFFF AND DUP2 MSTORE PUSH1 0x20 ADD PUSH1 0x0 PUSH2 0xFFFF AND DUP2 MSTORE PUSH1 0x20 ADD PUSH1 0x0 DUP2 MSTORE PUSH1 0x20 ADD PUSH1 0x0 DUP2 MSTORE PUSH1 0x20 ADD PUSH1 0x0 DUP2 MSTORE PUSH1 0x20 ADD PUSH1 0x0 DUP2 MSTORE PUSH1 0x20 ADD PUSH1 0x0 DUP2 MSTORE PUSH1 0x20 ADD PUSH1 0x0 DUP2 MSTORE PUSH1 0x20 ADD PUSH1 0x0 DUP2 MSTORE PUSH1 0x20 ADD PUSH2 0x4AEF PUSH2 0x4A27 JUMP JUMPDEST DUP2 MSTORE PUSH1 0x20 ADD PUSH2 0x4AFC PUSH2 0x4B30 JUMP JUMPDEST DUP2 MSTORE PUSH1 0x20 ADD PUSH1 0x0 DUP2 MSTORE POP SWAP1 JUMP JUMPDEST PUSH1 0x40 DUP1 MLOAD PUSH1 0xA0 DUP2 ADD DUP3 MSTORE PUSH1 0x0 DUP1 DUP3 MSTORE PUSH1 0x20 DUP3 ADD DUP2 SWAP1 MSTORE SWAP2 DUP2 ADD DUP3 SWAP1 MSTORE SWAP1 PUSH1 0x60 DUP3 ADD SWAP1 PUSH2 0x4AFC JUMP JUMPDEST PUSH1 0x40 MLOAD DUP1 PUSH1 0x60 ADD PUSH1 0x40 MSTORE DUP1 PUSH1 0x0 PUSH1 0x1 PUSH1 0x1 PUSH1 0xA0 SHL SUB AND DUP2 MSTORE PUSH1 0x20 ADD PUSH1 0x0 DUP2 MSTORE PUSH1 0x20 ADD PUSH1 0x0 DUP2 MSTORE POP SWAP1 JUMP JUMPDEST PUSH1 0x40 MLOAD DUP1 PUSH1 0xA0 ADD PUSH1 0x40 MSTORE DUP1 PUSH1 0x0 DUP2 MSTORE PUSH1 0x20 ADD PUSH1 0x0 DUP2 MSTORE PUSH1 0x20 ADD PUSH1 0x0 DUP2 MSTORE PUSH1 0x20 ADD PUSH1 0x0 DUP2 MSTORE PUSH1 0x20 ADD PUSH1 0x0 DUP2 MSTORE POP SWAP1 JUMP JUMPDEST PUSH1 0x40 MLOAD DUP1 PUSH1 0x20 ADD PUSH1 0x40 MSTORE DUP1 PUSH1 0x1 SWAP1 PUSH1 0x20 DUP3 MUL DUP1 CALLDATASIZE DUP4 CALLDATACOPY POP SWAP2 SWAP3 SWAP2 POP POP JUMP JUMPDEST DUP1 CALLDATALOAD PUSH1 0x1 PUSH1 0x1 PUSH1 0xA0 SHL SUB DUP2 AND DUP2 EQ PUSH2 0x11E0 JUMPI PUSH1 0x0 DUP1 REVERT JUMPDEST DUP1 PUSH1 0x40 DUP2 ADD DUP4 LT ISZERO PUSH2 0xFB2 JUMPI PUSH1 0x0 DUP1 REVERT JUMPDEST PUSH1 0x0 DUP1 DUP4 PUSH1 0x1F DUP5 ADD SLT PUSH2 0x4BE0 JUMPI DUP2 DUP3 REVERT JUMPDEST POP DUP2 CALLDATALOAD PUSH8 0xFFFFFFFFFFFFFFFF DUP2 GT ISZERO PUSH2 0x4BF7 JUMPI DUP2 DUP3 REVERT JUMPDEST PUSH1 0x20 DUP4 ADD SWAP2 POP DUP4 PUSH1 0x20 DUP3 DUP6 ADD ADD GT ISZERO PUSH2 0xB7C JUMPI PUSH1 0x0 DUP1 REVERT JUMPDEST PUSH1 0x0 PUSH1 0x20 DUP3 DUP5 SUB SLT ISZERO PUSH2 0x4C20 JUMPI DUP1 DUP2 REVERT JUMPDEST PUSH2 0x8A3 DUP3 PUSH2 0x4BA7 JUMP JUMPDEST PUSH1 0x0 DUP1 PUSH1 0x40 DUP4 DUP6 SUB SLT ISZERO PUSH2 0x4C3B JUMPI DUP1 DUP2 REVERT JUMPDEST PUSH2 0x4C44 DUP4 PUSH2 0x4BA7 JUMP JUMPDEST SWAP2 POP PUSH1 0x20 DUP4 ADD CALLDATALOAD DUP1 ISZERO ISZERO DUP2 EQ PUSH2 0x4C58 JUMPI DUP2 DUP3 REVERT JUMPDEST DUP1 SWAP2 POP POP SWAP3 POP SWAP3 SWAP1 POP JUMP JUMPDEST PUSH1 0x0 DUP1 PUSH1 0x0 DUP4 DUP6 SUB PUSH2 0x1C0 DUP2 SLT ISZERO PUSH2 0x4C79 JUMPI DUP2 DUP3 REVERT JUMPDEST PUSH2 0x4C82 DUP6 PUSH2 0x4BA7 JUMP JUMPDEST SWAP4 POP PUSH2 0x180 PUSH1 0x1F NOT DUP3 ADD SLT ISZERO PUSH2 0x4C96 JUMPI DUP2 DUP3 REVERT JUMPDEST POP PUSH1 0x20 DUP5 ADD SWAP2 POP PUSH2 0x1A0 DUP5 ADD CALLDATALOAD PUSH2 0x4CAC DUP2 PUSH2 0x5BB1 JUMP JUMPDEST DUP1 SWAP2 POP POP SWAP3 POP SWAP3 POP SWAP3 JUMP JUMPDEST PUSH1 0x0 DUP1 PUSH1 0x40 DUP4 DUP6 SUB SLT ISZERO PUSH2 0x4CC9 JUMPI DUP2 DUP3 REVERT JUMPDEST PUSH2 0x4CD2 DUP4 PUSH2 0x4BA7 JUMP JUMPDEST SWAP2 POP PUSH1 0x20 DUP4 ADD CALLDATALOAD PUSH2 0x4C58 DUP2 PUSH2 0x5B7D JUMP JUMPDEST PUSH1 0x0 DUP1 PUSH1 0x0 PUSH1 0x60 DUP5 DUP7 SUB SLT ISZERO PUSH2 0x4CF6 JUMPI DUP3 DUP4 REVERT JUMPDEST PUSH2 0x4CFF DUP5 PUSH2 0x4BA7 JUMP JUMPDEST SWAP3 POP PUSH1 0x20 DUP5 ADD CALLDATALOAD PUSH2 0x4D0F DUP2 PUSH2 0x5B7D JUMP JUMPDEST SWAP3 SWAP6 SWAP3 SWAP5 POP POP POP PUSH1 0x40 SWAP2 SWAP1 SWAP2 ADD CALLDATALOAD SWAP1 JUMP JUMPDEST PUSH1 0x0 DUP1 PUSH1 0x0 DUP1 PUSH1 0x0 DUP1 PUSH1 0x0 PUSH1 0xC0 DUP9 DUP11 SUB SLT ISZERO PUSH2 0x4D3A JUMPI DUP3 DUP4 REVERT JUMPDEST PUSH2 0x4D43 DUP9 PUSH2 0x4BA7 JUMP JUMPDEST SWAP7 POP PUSH1 0x20 DUP9 ADD CALLDATALOAD PUSH2 0x4D53 DUP2 PUSH2 0x5B7D JUMP JUMPDEST SWAP6 POP PUSH1 0x40 DUP9 ADD CALLDATALOAD SWAP5 POP PUSH1 0x60 DUP9 ADD CALLDATALOAD SWAP4 POP PUSH1 0x80 DUP9 ADD CALLDATALOAD PUSH2 0x4D71 DUP2 PUSH2 0x5B90 JUMP JUMPDEST SWAP3 POP PUSH1 0xA0 DUP9 ADD CALLDATALOAD PUSH8 0xFFFFFFFFFFFFFFFF DUP2 GT ISZERO PUSH2 0x4D8C JUMPI DUP3 DUP4 REVERT JUMPDEST PUSH2 0x4D98 DUP11 DUP3 DUP12 ADD PUSH2 0x4BCF JUMP JUMPDEST SWAP9 SWAP12 SWAP8 SWAP11 POP SWAP6 SWAP9 POP SWAP4 SWAP7 SWAP3 SWAP6 SWAP3 SWAP4 POP POP POP JUMP JUMPDEST PUSH1 0x0 DUP1 PUSH1 0x0 PUSH1 0x60 DUP5 DUP7 SUB SLT ISZERO PUSH2 0x4DBF JUMPI DUP3 DUP4 REVERT JUMPDEST PUSH2 0x4DC8 DUP5 PUSH2 0x4BA7 JUMP JUMPDEST SWAP3 POP PUSH1 0x20 DUP5 ADD CALLDATALOAD PUSH2 0x4DD8 DUP2 PUSH2 0x5B7D JUMP JUMPDEST SWAP2 POP PUSH1 0x40 DUP5 ADD CALLDATALOAD PUSH2 0x4CAC DUP2 PUSH2 0x5BB1 JUMP JUMPDEST PUSH1 0x0 DUP1 PUSH1 0x40 DUP4 DUP6 SUB SLT ISZERO PUSH2 0x4DFA JUMPI DUP2 DUP3 REVERT JUMPDEST PUSH2 0x4E03 DUP4 PUSH2 0x4BA7 JUMP JUMPDEST SWAP5 PUSH1 0x20 SWAP4 SWAP1 SWAP4 ADD CALLDATALOAD SWAP4 POP POP POP JUMP JUMPDEST PUSH1 0x0 DUP1 PUSH1 0x0 DUP1 PUSH1 0x0 PUSH2 0x100 DUP7 DUP9 SUB SLT ISZERO PUSH2 0x4E29 JUMPI DUP3 DUP4 REVERT JUMPDEST PUSH2 0x4E32 DUP7 PUSH2 0x4BA7 JUMP JUMPDEST SWAP5 POP PUSH1 0x20 DUP7 ADD CALLDATALOAD SWAP4 POP PUSH2 0x4E48 DUP8 PUSH1 0x40 DUP9 ADD PUSH2 0x4BBE JUMP JUMPDEST SWAP3 POP PUSH2 0x4E57 DUP8 PUSH1 0x80 DUP9 ADD PUSH2 0x4BBE JUMP JUMPDEST SWAP2 POP PUSH2 0x4E66 DUP8 PUSH1 0xC0 DUP9 ADD PUSH2 0x4BBE JUMP JUMPDEST SWAP1 POP SWAP3 SWAP6 POP SWAP3 SWAP6 SWAP1 SWAP4 POP JUMP JUMPDEST PUSH1 0x0 DUP1 PUSH1 0x40 DUP4 DUP6 SUB SLT ISZERO PUSH2 0x4E84 JUMPI DUP2 DUP3 REVERT JUMPDEST PUSH2 0x4E8D DUP4 PUSH2 0x4BA7 JUMP JUMPDEST SWAP2 POP PUSH1 0x20 DUP4 ADD CALLDATALOAD PUSH2 0x4C58 DUP2 PUSH2 0x5BB1 JUMP JUMPDEST PUSH1 0x0 DUP1 PUSH1 0x0 DUP1 PUSH1 0x0 DUP1 PUSH1 0xA0 DUP8 DUP10 SUB SLT ISZERO PUSH2 0x4EB5 JUMPI DUP4 DUP5 REVERT JUMPDEST PUSH2 0x4EBE DUP8 PUSH2 0x4BA7 JUMP JUMPDEST SWAP6 POP PUSH1 0x20 DUP8 ADD CALLDATALOAD PUSH2 0x4ECE DUP2 PUSH2 0x5BB1 JUMP JUMPDEST SWAP5 POP PUSH1 0x40 DUP8 ADD CALLDATALOAD SWAP4 POP PUSH1 0x60 DUP8 ADD CALLDATALOAD SWAP3 POP PUSH1 0x80 DUP8 ADD CALLDATALOAD PUSH8 0xFFFFFFFFFFFFFFFF DUP2 GT ISZERO PUSH2 0x4EF7 JUMPI DUP3 DUP4 REVERT JUMPDEST PUSH2 0x4F03 DUP10 DUP3 DUP11 ADD PUSH2 0x4BCF JUMP JUMPDEST SWAP8 SWAP11 SWAP7 SWAP10 POP SWAP5 SWAP8 POP SWAP3 SWAP6 SWAP4 SWAP5 SWAP3 POP POP POP JUMP JUMPDEST PUSH1 0x0 PUSH1 0x20 DUP3 DUP5 SUB SLT ISZERO PUSH2 0x4F26 JUMPI DUP1 DUP2 REVERT JUMPDEST DUP2 MLOAD PUSH8 0xFFFFFFFFFFFFFFFF DUP1 DUP3 GT ISZERO PUSH2 0x4F3D JUMPI DUP3 DUP4 REVERT JUMPDEST DUP2 DUP5 ADD SWAP2 POP DUP5 PUSH1 0x1F DUP4 ADD SLT PUSH2 0x4F50 JUMPI DUP3 DUP4 REVERT JUMPDEST DUP2 MLOAD DUP2 DUP2 GT ISZERO PUSH2 0x4F5C JUMPI INVALID JUMPDEST PUSH1 0x40 MLOAD PUSH1 0x1F DUP3 ADD PUSH1 0x1F NOT AND DUP2 ADD PUSH1 0x20 ADD DUP4 DUP2 GT DUP3 DUP3 LT OR ISZERO PUSH2 0x4F7A JUMPI INVALID JUMPDEST PUSH1 0x40 MSTORE DUP2 DUP2 MSTORE DUP4 DUP3 ADD PUSH1 0x20 ADD DUP8 LT ISZERO PUSH2 0x4F91 JUMPI DUP5 DUP6 REVERT JUMPDEST PUSH2 0x121D DUP3 PUSH1 0x20 DUP4 ADD PUSH1 0x20 DUP8 ADD PUSH2 0x5941 JUMP JUMPDEST PUSH1 0x0 PUSH1 0x20 DUP3 DUP5 SUB SLT ISZERO PUSH2 0x4FB3 JUMPI DUP1 DUP2 REVERT JUMPDEST POP MLOAD SWAP2 SWAP1 POP JUMP JUMPDEST PUSH1 0x0 PUSH1 0x20 DUP3 DUP5 SUB SLT ISZERO PUSH2 0x4FCB JUMPI DUP1 DUP2 REVERT JUMPDEST DUP2 CALLDATALOAD PUSH2 0x8A3 DUP2 PUSH2 0x5B7D JUMP JUMPDEST PUSH1 0x0 PUSH1 0x20 DUP3 DUP5 SUB SLT ISZERO PUSH2 0x4FE7 JUMPI DUP1 DUP2 REVERT JUMPDEST POP CALLDATALOAD SWAP2 SWAP1 POP JUMP JUMPDEST PUSH1 0x0 DUP1 PUSH1 0x0 DUP1 PUSH1 0x60 DUP6 DUP8 SUB SLT ISZERO PUSH2 0x5003 JUMPI DUP2 DUP3 REVERT JUMPDEST DUP5 CALLDATALOAD SWAP4 POP PUSH1 0x20 DUP6 ADD CALLDATALOAD SWAP3 POP PUSH1 0x40 DUP6 ADD CALLDATALOAD PUSH8 0xFFFFFFFFFFFFFFFF DUP2 GT ISZERO PUSH2 0x5027 JUMPI DUP3 DUP4 REVERT JUMPDEST PUSH2 0x5033 DUP8 DUP3 DUP9 ADD PUSH2 0x4BCF JUMP JUMPDEST SWAP6 SWAP9 SWAP5 SWAP8 POP SWAP6 POP POP POP POP JUMP JUMPDEST PUSH1 0x0 PUSH1 0x20 DUP3 DUP5 SUB SLT ISZERO PUSH2 0x5050 JUMPI DUP1 DUP2 REVERT JUMPDEST DUP2 CALLDATALOAD PUSH2 0x8A3 DUP2 PUSH2 0x5B90 JUMP JUMPDEST PUSH1 0x0 PUSH1 0x20 DUP3 DUP5 SUB SLT ISZERO PUSH2 0x506C JUMPI DUP1 DUP2 REVERT JUMPDEST DUP2 CALLDATALOAD PUSH2 0x8A3 DUP2 PUSH2 0x5BA2 JUMP JUMPDEST PUSH1 0x0 DUP1 PUSH1 0x0 DUP1 PUSH1 0x0 PUSH1 0xA0 DUP7 DUP9 SUB SLT ISZERO PUSH2 0x508E JUMPI DUP3 DUP4 REVERT JUMPDEST DUP6 MLOAD PUSH2 0x5099 DUP2 PUSH2 0x5BB1 JUMP JUMPDEST DUP1 SWAP6 POP POP PUSH1 0x20 DUP7 ADD MLOAD SWAP4 POP PUSH1 0x40 DUP7 ADD MLOAD SWAP3 POP PUSH1 0x60 DUP7 ADD MLOAD SWAP2 POP PUSH1 0x80 DUP7 ADD MLOAD PUSH2 0x50C0 DUP2 PUSH2 0x5BB1 JUMP JUMPDEST DUP1 SWAP2 POP POP SWAP3 SWAP6 POP SWAP3 SWAP6 SWAP1 SWAP4 POP JUMP JUMPDEST PUSH1 0x1 PUSH1 0x1 PUSH1 0xA0 SHL SUB AND SWAP1 MSTORE JUMP JUMPDEST DUP1 PUSH1 0x0 JUMPDEST PUSH1 0x2 DUP2 LT ISZERO PUSH2 0x5102 JUMPI DUP2 MLOAD PUSH2 0xFFFF AND DUP5 MSTORE PUSH1 0x20 SWAP4 DUP5 ADD SWAP4 SWAP1 SWAP2 ADD SWAP1 PUSH1 0x1 ADD PUSH2 0x50DF JUMP JUMPDEST POP POP POP POP JUMP JUMPDEST PUSH1 0x0 DUP3 DUP5 MSTORE DUP3 DUP3 PUSH1 0x20 DUP7 ADD CALLDATACOPY DUP1 PUSH1 0x20 DUP5 DUP7 ADD ADD MSTORE PUSH1 0x20 PUSH1 0x1F NOT PUSH1 0x1F DUP6 ADD AND DUP6 ADD ADD SWAP1 POP SWAP4 SWAP3 POP POP POP JUMP JUMPDEST DUP1 MLOAD PUSH1 0x1 PUSH1 0x1 PUSH1 0xA0 SHL SUB AND DUP3 MSTORE PUSH1 0x20 DUP1 DUP3 ADD MLOAD SWAP1 DUP4 ADD MSTORE PUSH1 0x40 SWAP1 DUP2 ADD MLOAD SWAP2 ADD MSTORE JUMP JUMPDEST PUSH2 0xFFFF AND SWAP1 MSTORE JUMP JUMPDEST PUSH1 0x1 PUSH1 0x1 PUSH1 0xA0 SHL SUB SWAP2 SWAP1 SWAP2 AND DUP2 MSTORE PUSH1 0x20 ADD SWAP1 JUMP JUMPDEST PUSH1 0x0 PUSH1 0x1 DUP1 PUSH1 0xA0 SHL SUB DUP1 DUP11 AND DUP4 MSTORE DUP1 DUP10 AND PUSH1 0x20 DUP5 ADD MSTORE POP DUP7 PUSH1 0x40 DUP4 ADD MSTORE DUP6 PUSH1 0x60 DUP4 ADD MSTORE DUP5 PUSH1 0x80 DUP4 ADD MSTORE PUSH1 0xC0 PUSH1 0xA0 DUP4 ADD MSTORE PUSH2 0x129C PUSH1 0xC0 DUP4 ADD DUP5 DUP7 PUSH2 0x5108 JUMP JUMPDEST PUSH1 0x1 PUSH1 0x1 PUSH1 0xA0 SHL SUB SWAP4 DUP5 AND DUP2 MSTORE PUSH1 0x20 DUP2 ADD SWAP3 SWAP1 SWAP3 MSTORE SWAP1 SWAP2 AND PUSH1 0x40 DUP3 ADD MSTORE PUSH1 0x60 ADD SWAP1 JUMP JUMPDEST PUSH1 0x1 PUSH1 0x1 PUSH1 0xA0 SHL SUB SWAP5 DUP6 AND DUP2 MSTORE PUSH1 0x20 DUP2 ADD SWAP4 SWAP1 SWAP4 MSTORE SWAP3 AND PUSH1 0x40 DUP3 ADD MSTORE PUSH2 0xFFFF SWAP1 SWAP2 AND PUSH1 0x60 DUP3 ADD MSTORE PUSH1 0x80 ADD SWAP1 JUMP JUMPDEST PUSH1 0x0 PUSH1 0x1 DUP1 PUSH1 0xA0 SHL SUB DUP7 AND DUP3 MSTORE DUP5 PUSH1 0x20 DUP4 ADD MSTORE PUSH1 0x60 PUSH1 0x40 DUP4 ADD MSTORE PUSH2 0x121D PUSH1 0x60 DUP4 ADD DUP5 DUP7 PUSH2 0x5108 JUMP JUMPDEST PUSH1 0x1 PUSH1 0x1 PUSH1 0xA0 SHL SUB SWAP4 SWAP1 SWAP4 AND DUP4 MSTORE PUSH1 0x20 DUP4 ADD SWAP2 SWAP1 SWAP2 MSTORE PUSH1 0x40 DUP3 ADD MSTORE PUSH1 0x60 ADD SWAP1 JUMP JUMPDEST PUSH1 0x0 PUSH1 0x1 DUP1 PUSH1 0xA0 SHL SUB DUP8 AND DUP3 MSTORE DUP6 PUSH1 0x20 DUP4 ADD MSTORE DUP5 PUSH1 0x40 DUP4 ADD MSTORE PUSH1 0x80 PUSH1 0x60 DUP4 ADD MSTORE PUSH2 0xA6D PUSH1 0x80 DUP4 ADD DUP5 DUP7 PUSH2 0x5108 JUMP JUMPDEST PUSH1 0x40 DUP2 ADD DUP2 DUP4 PUSH1 0x0 JUMPDEST PUSH1 0x2 DUP2 LT ISZERO PUSH2 0x529D JUMPI DUP2 MLOAD DUP4 MSTORE PUSH1 0x20 SWAP3 DUP4 ADD SWAP3 SWAP1 SWAP2 ADD SWAP1 PUSH1 0x1 ADD PUSH2 0x527E JUMP JUMPDEST POP POP POP SWAP3 SWAP2 POP POP JUMP JUMPDEST SWAP1 ISZERO ISZERO DUP2 MSTORE PUSH1 0x20 ADD SWAP1 JUMP JUMPDEST SWAP2 ISZERO ISZERO DUP3 MSTORE PUSH1 0x1 PUSH1 0x1 PUSH1 0x50 SHL SUB AND PUSH1 0x20 DUP3 ADD MSTORE PUSH1 0x40 ADD SWAP1 JUMP JUMPDEST PUSH1 0x0 PUSH1 0x20 DUP3 MSTORE DUP3 MLOAD DUP1 PUSH1 0x20 DUP5 ADD MSTORE PUSH2 0x52E9 DUP2 PUSH1 0x40 DUP6 ADD PUSH1 0x20 DUP8 ADD PUSH2 0x5941 JUMP JUMPDEST PUSH1 0x1F ADD PUSH1 0x1F NOT AND SWAP2 SWAP1 SWAP2 ADD PUSH1 0x40 ADD SWAP3 SWAP2 POP POP JUMP JUMPDEST SWAP1 DUP2 MSTORE PUSH1 0x20 ADD SWAP1 JUMP JUMPDEST SWAP2 DUP3 MSTORE PUSH1 0x20 DUP3 ADD MSTORE PUSH1 0x40 ADD SWAP1 JUMP JUMPDEST SWAP4 DUP5 MSTORE PUSH1 0x20 DUP5 ADD SWAP3 SWAP1 SWAP3 MSTORE PUSH1 0x40 DUP4 ADD MSTORE PUSH1 0x60 DUP3 ADD MSTORE PUSH1 0x80 ADD SWAP1 JUMP JUMPDEST SWAP5 DUP6 MSTORE PUSH1 0x20 DUP6 ADD SWAP4 SWAP1 SWAP4 MSTORE PUSH1 0x40 DUP5 ADD SWAP2 SWAP1 SWAP2 MSTORE PUSH1 0x60 DUP4 ADD MSTORE PUSH1 0x80 DUP3 ADD MSTORE PUSH1 0xA0 ADD SWAP1 JUMP JUMPDEST PUSH1 0x20 DUP1 DUP3 MSTORE PUSH1 0x1A SWAP1 DUP3 ADD MSTORE PUSH32 0x496E76616C6964205365636F6E64617279204D61747572697479000000000000 PUSH1 0x40 DUP3 ADD MSTORE PUSH1 0x60 ADD SWAP1 JUMP JUMPDEST PUSH1 0x20 DUP1 DUP3 MSTORE PUSH1 0xD SWAP1 DUP3 ADD MSTORE PUSH13 0x109BDC9C9BDDC811985A5B1959 PUSH1 0x9A SHL PUSH1 0x40 DUP3 ADD MSTORE PUSH1 0x60 ADD SWAP1 JUMP JUMPDEST PUSH1 0x20 DUP1 DUP3 MSTORE PUSH1 0x11 SWAP1 DUP3 ADD MSTORE PUSH17 0x52656465656D20616C6C20746F6B656E73 PUSH1 0x78 SHL PUSH1 0x40 DUP3 ADD MSTORE PUSH1 0x60 ADD SWAP1 JUMP JUMPDEST PUSH1 0x20 DUP1 DUP3 MSTORE PUSH1 0x6 SWAP1 DUP3 ADD MSTORE PUSH6 0x14185D5CD959 PUSH1 0xD2 SHL PUSH1 0x40 DUP3 ADD MSTORE PUSH1 0x60 ADD SWAP1 JUMP JUMPDEST PUSH1 0x20 DUP1 DUP3 MSTORE PUSH1 0xC SWAP1 DUP3 ADD MSTORE PUSH12 0x155B985D5D1A1BDC9A5E9959 PUSH1 0xA2 SHL PUSH1 0x40 DUP3 ADD MSTORE PUSH1 0x60 ADD SWAP1 JUMP JUMPDEST PUSH1 0x20 DUP1 DUP3 MSTORE PUSH1 0x4 SWAP1 DUP3 ADD MSTORE PUSH4 0x135A5B9D PUSH1 0xE2 SHL PUSH1 0x40 DUP3 ADD MSTORE PUSH1 0x60 ADD SWAP1 JUMP JUMPDEST PUSH1 0x20 DUP1 DUP3 MSTORE PUSH1 0x6 SWAP1 DUP3 ADD MSTORE PUSH6 0x52656465656D PUSH1 0xD0 SHL PUSH1 0x40 DUP3 ADD MSTORE PUSH1 0x60 ADD SWAP1 JUMP JUMPDEST PUSH1 0x20 DUP1 DUP3 MSTORE PUSH1 0xD SWAP1 DUP3 ADD MSTORE PUSH13 0x556E7061696420426F72726F77 PUSH1 0x98 SHL PUSH1 0x40 DUP3 ADD MSTORE PUSH1 0x60 ADD SWAP1 JUMP JUMPDEST PUSH1 0x20 DUP1 DUP3 MSTORE PUSH1 0x16 SWAP1 DUP3 ADD MSTORE PUSH22 0x125B9CDD59999A58DA595B9D081C995C185E5B595B9D PUSH1 0x52 SHL PUSH1 0x40 DUP3 ADD MSTORE PUSH1 0x60 ADD SWAP1 JUMP JUMPDEST PUSH1 0x20 DUP1 DUP3 MSTORE PUSH1 0x15 SWAP1 DUP3 ADD MSTORE PUSH21 0x10D1CE881B9BC81B585C9AD95D1CC81B1A5CDD1959 PUSH1 0x5A SHL PUSH1 0x40 DUP3 ADD MSTORE PUSH1 0x60 ADD SWAP1 JUMP JUMPDEST PUSH1 0x20 DUP1 DUP3 MSTORE PUSH1 0xD SWAP1 DUP3 ADD MSTORE PUSH13 0x92DCECC2D8D2C840D2DCC8CAF PUSH1 0x9B SHL PUSH1 0x40 DUP3 ADD MSTORE PUSH1 0x60 ADD SWAP1 JUMP JUMPDEST PUSH1 0x20 DUP1 DUP3 MSTORE PUSH1 0x10 SWAP1 DUP3 ADD MSTORE PUSH16 0x496E76616C6964204D61747572697479 PUSH1 0x80 SHL PUSH1 0x40 DUP3 ADD MSTORE PUSH1 0x60 ADD SWAP1 JUMP JUMPDEST PUSH1 0x20 DUP1 DUP3 MSTORE PUSH1 0x1D SWAP1 DUP3 ADD MSTORE PUSH32 0x496E73756666696369656E74205365636F6E6461727920426F72726F77000000 PUSH1 0x40 DUP3 ADD MSTORE PUSH1 0x60 ADD SWAP1 JUMP JUMPDEST PUSH1 0x20 DUP1 DUP3 MSTORE PUSH1 0xD SWAP1 DUP3 ADD MSTORE PUSH13 0x43616E6E6F7420536574746C65 PUSH1 0x98 SHL PUSH1 0x40 DUP3 ADD MSTORE PUSH1 0x60 ADD SWAP1 JUMP JUMPDEST PUSH1 0x20 DUP1 DUP3 MSTORE PUSH1 0xC SWAP1 DUP3 ADD MSTORE PUSH12 0x4D6178204361706163697479 PUSH1 0xA0 SHL PUSH1 0x40 DUP3 ADD MSTORE PUSH1 0x60 ADD SWAP1 JUMP JUMPDEST PUSH1 0x20 DUP1 DUP3 MSTORE PUSH1 0x16 SWAP1 DUP3 ADD MSTORE PUSH22 0x10D1CE881B585C9AD95D081A5B99195E08189BDD5B99 PUSH1 0x52 SHL PUSH1 0x40 DUP3 ADD MSTORE PUSH1 0x60 ADD SWAP1 JUMP JUMPDEST PUSH1 0x20 DUP1 DUP3 MSTORE PUSH1 0x10 SWAP1 DUP3 ADD MSTORE PUSH16 0x496E76616C69642043757272656E6379 PUSH1 0x80 SHL PUSH1 0x40 DUP3 ADD MSTORE PUSH1 0x60 ADD SWAP1 JUMP JUMPDEST PUSH1 0x20 DUP1 DUP3 MSTORE PUSH1 0x15 SWAP1 DUP3 ADD MSTORE PUSH21 0x10D85B9B9BDD0814995CD95D0814DB985C1CDA1BDD PUSH1 0x5A SHL PUSH1 0x40 DUP3 ADD MSTORE PUSH1 0x60 ADD SWAP1 JUMP JUMPDEST PUSH1 0x20 DUP1 DUP3 MSTORE DUP2 DUP2 ADD MSTORE PUSH32 0x4F776E61626C653A2063616C6C6572206973206E6F7420746865206F776E6572 PUSH1 0x40 DUP3 ADD MSTORE PUSH1 0x60 ADD SWAP1 JUMP JUMPDEST PUSH1 0x20 DUP1 DUP3 MSTORE PUSH1 0xD SWAP1 DUP3 ADD MSTORE PUSH13 0x125B8814D95D1D1B195B595B9D PUSH1 0x9A SHL PUSH1 0x40 DUP3 ADD MSTORE PUSH1 0x60 ADD SWAP1 JUMP JUMPDEST PUSH1 0x20 DUP1 DUP3 MSTORE PUSH1 0x17 SWAP1 DUP3 ADD MSTORE PUSH32 0x496E73756666696369656E7420436F6C6C61746572616C000000000000000000 PUSH1 0x40 DUP3 ADD MSTORE PUSH1 0x60 ADD SWAP1 JUMP JUMPDEST PUSH1 0x20 DUP1 DUP3 MSTORE PUSH1 0xC SWAP1 DUP3 ADD MSTORE PUSH12 0x496E76616C69642072617465 PUSH1 0xA0 SHL PUSH1 0x40 DUP3 ADD MSTORE PUSH1 0x60 ADD SWAP1 JUMP JUMPDEST PUSH1 0x20 DUP1 DUP3 MSTORE PUSH1 0xE SWAP1 DUP3 ADD MSTORE PUSH14 0x1499595B9D1C985B9D0818D85B1B PUSH1 0x92 SHL PUSH1 0x40 DUP3 ADD MSTORE PUSH1 0x60 ADD SWAP1 JUMP JUMPDEST PUSH1 0x20 DUP1 DUP3 MSTORE PUSH1 0x12 SWAP1 DUP3 ADD MSTORE PUSH18 0x496E73756666696369656E74205265706179 PUSH1 0x70 SHL PUSH1 0x40 DUP3 ADD MSTORE PUSH1 0x60 ADD SWAP1 JUMP JUMPDEST PUSH1 0x20 DUP1 DUP3 MSTORE PUSH1 0x13 SWAP1 DUP3 ADD MSTORE PUSH19 0x10D1CE881B9BC81B585C9AD95D08199BDD5B99 PUSH1 0x6A SHL PUSH1 0x40 DUP3 ADD MSTORE PUSH1 0x60 ADD SWAP1 JUMP JUMPDEST PUSH1 0x0 PUSH2 0x200 DUP3 ADD SWAP1 POP PUSH2 0x5791 DUP3 DUP5 MLOAD PUSH2 0x50CE JUMP JUMPDEST PUSH1 0x20 DUP4 ADD MLOAD PUSH2 0x57A3 PUSH1 0x20 DUP5 ADD DUP3 PUSH2 0x5154 JUMP JUMPDEST POP PUSH1 0x40 DUP4 ADD MLOAD PUSH2 0x57B6 PUSH1 0x40 DUP5 ADD DUP3 PUSH2 0x5154 JUMP JUMPDEST POP PUSH1 0x60 DUP4 ADD MLOAD PUSH1 0x60 DUP4 ADD MSTORE PUSH1 0x80 DUP4 ADD MLOAD PUSH1 0x80 DUP4 ADD MSTORE PUSH1 0xA0 DUP4 ADD MLOAD PUSH1 0xA0 DUP4 ADD MSTORE PUSH1 0xC0 DUP4 ADD MLOAD PUSH1 0xC0 DUP4 ADD MSTORE PUSH1 0xE0 DUP4 ADD MLOAD PUSH1 0xE0 DUP4 ADD MSTORE PUSH2 0x100 DUP1 DUP5 ADD MLOAD DUP2 DUP5 ADD MSTORE POP PUSH2 0x120 DUP1 DUP5 ADD MLOAD DUP2 DUP5 ADD MSTORE POP PUSH2 0x140 DUP1 DUP5 ADD MLOAD PUSH2 0x5814 DUP3 DUP6 ADD DUP3 PUSH2 0x50DB JUMP JUMPDEST POP POP PUSH2 0x160 DUP4 ADD MLOAD PUSH2 0x180 PUSH2 0x582B DUP2 DUP6 ADD DUP4 PUSH2 0x5132 JUMP JUMPDEST DUP1 DUP6 ADD MLOAD PUSH2 0x1E0 DUP6 ADD MSTORE POP POP SWAP3 SWAP2 POP POP JUMP JUMPDEST PUSH1 0x0 PUSH1 0xE0 DUP3 ADD SWAP1 POP DUP3 MLOAD DUP3 MSTORE PUSH1 0x20 DUP4 ADD MLOAD PUSH1 0x20 DUP4 ADD MSTORE PUSH1 0x40 DUP4 ADD MLOAD ISZERO ISZERO PUSH1 0x40 DUP4 ADD MSTORE PUSH1 0x60 DUP4 ADD MLOAD PUSH1 0x60 DUP4 ADD MSTORE PUSH1 0x80 DUP4 ADD MLOAD PUSH1 0x80 DUP4 ADD MSTORE PUSH1 0xA0 DUP4 ADD MLOAD PUSH1 0xA0 DUP4 ADD MSTORE PUSH1 0xC0 DUP4 ADD MLOAD PUSH1 0xC0 DUP4 ADD MSTORE SWAP3 SWAP2 POP POP JUMP JUMPDEST PUSH1 0x1 PUSH1 0x1 PUSH1 0x80 SHL SUB SWAP2 SWAP1 SWAP2 AND DUP2 MSTORE PUSH1 0x20 ADD SWAP1 JUMP JUMPDEST PUSH2 0xFFFF SWAP3 SWAP1 SWAP3 AND DUP3 MSTORE PUSH1 0x20 DUP3 ADD MSTORE PUSH1 0x40 ADD SWAP1 JUMP JUMPDEST SWAP3 DUP4 MSTORE PUSH1 0x20 DUP4 ADD SWAP2 SWAP1 SWAP2 MSTORE PUSH1 0x40 DUP3 ADD MSTORE PUSH1 0x60 ADD SWAP1 JUMP JUMPDEST PUSH1 0x1 PUSH1 0x1 PUSH1 0x50 SHL SUB SWAP2 SWAP1 SWAP2 AND DUP2 MSTORE PUSH1 0x20 ADD SWAP1 JUMP JUMPDEST DUP2 DUP2 PUSH1 0x0 DUP1 JUMPDEST PUSH1 0x2 DUP1 DUP3 LT PUSH2 0x58F4 JUMPI POP PUSH2 0x3513 JUMP JUMPDEST DUP5 CALLDATALOAD PUSH2 0x58FF DUP2 PUSH2 0x5B7D JUMP JUMPDEST DUP5 SLOAD PUSH2 0xFFFF PUSH1 0x8 DUP7 MUL DUP2 DUP2 SHL DUP1 NOT SWAP1 SWAP4 AND SWAP4 SWAP1 SWAP2 AND SWAP1 SHL AND OR DUP5 SSTORE PUSH1 0x20 SWAP5 SWAP1 SWAP5 ADD SWAP4 SWAP1 SWAP2 ADD SWAP1 PUSH1 0x1E DUP3 GT ISZERO PUSH2 0x5939 JUMPI PUSH1 0x0 SWAP2 POP PUSH1 0x1 DUP4 ADD SWAP3 POP JUMPDEST PUSH1 0x1 ADD PUSH2 0x58E5 JUMP JUMPDEST PUSH1 0x0 JUMPDEST DUP4 DUP2 LT ISZERO PUSH2 0x595C JUMPI DUP2 DUP2 ADD MLOAD DUP4 DUP3 ADD MSTORE PUSH1 0x20 ADD PUSH2 0x5944 JUMP JUMPDEST DUP4 DUP2 GT ISZERO PUSH2 0x5102 JUMPI POP POP PUSH1 0x0 SWAP2 ADD MSTORE JUMP JUMPDEST PUSH1 0x0 DUP2 CALLDATALOAD PUSH2 0xFB2 DUP2 PUSH2 0x5B7D JUMP JUMPDEST PUSH1 0x0 DUP2 CALLDATALOAD PUSH2 0xFB2 DUP2 PUSH2 0x5B90 JUMP JUMPDEST PUSH1 0x0 DUP2 CALLDATALOAD PUSH2 0xFB2 DUP2 PUSH2 0x5BA2 JUMP JUMPDEST DUP2 CALLDATALOAD PUSH2 0x599F DUP2 PUSH2 0x5B7D JUMP JUMPDEST PUSH2 0x59A9 DUP2 DUP4 PUSH2 0x5A79 JUMP JUMPDEST POP PUSH2 0x59BF PUSH2 0x59B9 PUSH1 0x20 DUP5 ADD PUSH2 0x596D JUMP JUMPDEST DUP3 PUSH2 0x5B1F JUMP JUMPDEST PUSH2 0x59D4 PUSH2 0x59CE PUSH1 0x40 DUP5 ADD PUSH2 0x597A JUMP JUMPDEST DUP3 PUSH2 0x5B3B JUMP JUMPDEST PUSH2 0x59E9 PUSH2 0x59E3 PUSH1 0x60 DUP5 ADD PUSH2 0x596D JUMP JUMPDEST DUP3 PUSH2 0x5B5F JUMP JUMPDEST PUSH2 0x59FE PUSH2 0x59F8 PUSH1 0x80 DUP5 ADD PUSH2 0x5987 JUMP JUMPDEST DUP3 PUSH2 0x5A8C JUMP JUMPDEST PUSH2 0x5A13 PUSH2 0x5A0D PUSH1 0xA0 DUP5 ADD PUSH2 0x5987 JUMP JUMPDEST DUP3 PUSH2 0x5AA9 JUMP JUMPDEST PUSH2 0x5A28 PUSH2 0x5A22 PUSH1 0xC0 DUP5 ADD PUSH2 0x5987 JUMP JUMPDEST DUP3 PUSH2 0x5AC6 JUMP JUMPDEST PUSH2 0x5A3D PUSH2 0x5A37 PUSH1 0xE0 DUP5 ADD PUSH2 0x5987 JUMP JUMPDEST DUP3 PUSH2 0x5AE3 JUMP JUMPDEST PUSH2 0x5A53 PUSH2 0x5A4D PUSH2 0x100 DUP5 ADD PUSH2 0x596D JUMP JUMPDEST DUP3 PUSH2 0x5B00 JUMP JUMPDEST PUSH2 0x5A64 PUSH2 0x120 DUP4 ADD PUSH1 0x1 DUP4 ADD PUSH2 0x58DF JUMP JUMPDEST PUSH2 0x47FF PUSH2 0x5A74 PUSH2 0x160 DUP5 ADD PUSH2 0x596D JUMP JUMPDEST PUSH1 0x2 DUP4 ADD JUMPDEST PUSH2 0xFFFF DUP3 AND PUSH2 0xFFFF NOT DUP3 SLOAD AND OR DUP2 SSTORE POP POP JUMP JUMPDEST DUP1 SLOAD PUSH1 0xFF PUSH1 0x50 SHL NOT AND PUSH1 0x50 SWAP3 SWAP1 SWAP3 SHL PUSH1 0xFF PUSH1 0x50 SHL AND SWAP2 SWAP1 SWAP2 OR SWAP1 SSTORE JUMP JUMPDEST DUP1 SLOAD PUSH1 0xFF PUSH1 0x58 SHL NOT AND PUSH1 0x58 SWAP3 SWAP1 SWAP3 SHL PUSH1 0xFF PUSH1 0x58 SHL AND SWAP2 SWAP1 SWAP2 OR SWAP1 SSTORE JUMP JUMPDEST DUP1 SLOAD PUSH1 0xFF PUSH1 0x60 SHL NOT AND PUSH1 0x60 SWAP3 SWAP1 SWAP3 SHL PUSH1 0xFF PUSH1 0x60 SHL AND SWAP2 SWAP1 SWAP2 OR SWAP1 SSTORE JUMP JUMPDEST DUP1 SLOAD PUSH1 0xFF PUSH1 0x68 SHL NOT AND PUSH1 0x68 SWAP3 SWAP1 SWAP3 SHL PUSH1 0xFF PUSH1 0x68 SHL AND SWAP2 SWAP1 SWAP2 OR SWAP1 SSTORE JUMP JUMPDEST DUP1 SLOAD PUSH2 0xFFFF PUSH1 0x70 SHL NOT AND PUSH1 0x70 SWAP3 SWAP1 SWAP3 SHL PUSH2 0xFFFF PUSH1 0x70 SHL AND SWAP2 SWAP1 SWAP2 OR SWAP1 SSTORE JUMP JUMPDEST DUP1 SLOAD PUSH4 0xFFFF0000 DUP4 PUSH1 0x10 SHL AND PUSH4 0xFFFF0000 NOT DUP3 AND OR DUP3 SSTORE POP POP POP JUMP JUMPDEST DUP1 SLOAD PUSH8 0xFFFFFFFF00000000 DUP4 PUSH1 0x20 SHL AND PUSH8 0xFFFFFFFF00000000 NOT DUP3 AND OR DUP3 SSTORE POP POP POP JUMP JUMPDEST DUP1 SLOAD PUSH2 0xFFFF PUSH1 0x40 SHL DUP4 PUSH1 0x40 SHL AND PUSH2 0xFFFF PUSH1 0x40 SHL NOT DUP3 AND OR DUP3 SSTORE POP POP POP JUMP JUMPDEST PUSH2 0xFFFF DUP2 AND DUP2 EQ PUSH2 0x5B8D JUMPI PUSH1 0x0 DUP1 REVERT JUMPDEST POP JUMP JUMPDEST PUSH4 0xFFFFFFFF DUP2 AND DUP2 EQ PUSH2 0x5B8D JUMPI PUSH1 0x0 DUP1 REVERT JUMPDEST PUSH1 0xFF DUP2 AND DUP2 EQ PUSH2 0x5B8D JUMPI PUSH1 0x0 DUP1 REVERT JUMPDEST PUSH1 0x1 PUSH1 0x1 PUSH1 0x50 SHL SUB DUP2 AND DUP2 EQ PUSH2 0x5B8D JUMPI PUSH1 0x0 DUP1 REVERT INVALID LOG2 PUSH5 0x6970667358 0x22 SLT KECCAK256 CALLDATALOAD SELFDESTRUCT 0x5F 0x2D 0xB2 0xD6 0xD9 CALLDATACOPY CALL PUSH3 0x78936E 0x28 SDIV PUSH25 0x4814D3780E398877FFF9164EC0B125F964736F6C6343000706 STOP CALLER ","sha1":"ffb023e1d3dc63e27b13f61cd218d11fec904140","source":"// SPDX-License-Identifier: GPL-3.0-only\npragma solidity =0.7.6;\npragma abicoder v2;\n\nimport {ActionGuards} from \"./ActionGuards.sol\";\nimport {IVaultAction} from \"../../../interfaces/notional/IVaultController.sol\";\nimport \"../../internal/vaults/VaultConfiguration.sol\";\nimport \"../../internal/vaults/VaultAccount.sol\";\nimport {VaultStateLib, VaultState} from \"../../internal/vaults/VaultState.sol\";\n\nimport {LibStorage} from \"../../global/LibStorage.sol\";\nimport {SafeUint256} from \"../../math/SafeUint256.sol\";\n\ncontract VaultAction is ActionGuards, IVaultAction {\n    using VaultConfiguration for VaultConfig;\n    using VaultAccountLib for VaultAccount;\n    using VaultStateLib for VaultState;\n    using AssetRate for AssetRateParameters;\n    using TokenHandler for Token;\n    using SafeInt256 for int256;\n    using SafeUint256 for uint256;\n\n    /// @notice Updates or lists a deployed vault along with its configuration.\n    /// @param vaultAddress address of deployed vault\n    /// @param vaultConfig struct of vault configuration\n    /// @param maxPrimaryBorrowCapacity maximum borrow capacity\n    function updateVault(\n        address vaultAddress,\n        VaultConfigStorage calldata vaultConfig,\n        uint80 maxPrimaryBorrowCapacity\n    ) external override onlyOwner {\n        VaultConfiguration.setVaultConfig(vaultAddress, vaultConfig);\n        VaultConfiguration.setMaxBorrowCapacity(vaultAddress, vaultConfig.borrowCurrencyId, maxPrimaryBorrowCapacity);\n        bool enabled = (vaultConfig.flags & VaultConfiguration.ENABLED) == VaultConfiguration.ENABLED;\n        emit VaultUpdated(vaultAddress, enabled, maxPrimaryBorrowCapacity);\n    }\n\n    /// @notice Enables or disables a vault. If a vault is disabled, no one can enter\n    /// the vault but exits are still possible.\n    /// @param vaultAddress address of deployed vault\n    /// @param enable true if the vault should be enabled immediately\n    function setVaultPauseStatus(\n        address vaultAddress,\n        bool enable\n    ) external override onlyOwner {\n        VaultConfiguration.setVaultEnabledStatus(vaultAddress, enable);\n        emit VaultPauseStatus(vaultAddress, enable);\n    }\n\n    /// @notice Whitelists a secondary borrow currency for a vault, vaults can borrow up to the capacity\n    /// using the `borrowSecondaryCurrencyToVault` and `repaySecondaryCurrencyToVault` methods. Vaults that\n    /// use a secondary currency must ALWAYS repay the secondary debt during redemption and handle accounting\n    /// for the secondary currency themselves.\n    /// @param vaultAddress address of deployed vault\n    /// @param secondaryCurrencyId struct of vault configuration\n    /// @param maxBorrowCapacity maximum borrow capacity\n    function updateSecondaryBorrowCapacity(\n        address vaultAddress,\n        uint16 secondaryCurrencyId,\n        uint80 maxBorrowCapacity\n    ) external override onlyOwner {\n        VaultConfig memory vaultConfig = VaultConfiguration.getVaultConfigStateful(vaultAddress);\n        // Tokens with transfer fees create lots of issues with vault mechanics, we prevent them\n        // from being listed here.\n        Token memory assetToken = TokenHandler.getAssetToken(secondaryCurrencyId);\n        Token memory underlyingToken = TokenHandler.getUnderlyingToken(secondaryCurrencyId);\n        require(!assetToken.hasTransferFee && !underlyingToken.hasTransferFee); \n\n        // The secondary borrow currency must be white listed on the configuration before we can set a max\n        // capacity.\n        require(\n            secondaryCurrencyId == vaultConfig.secondaryBorrowCurrencies[0] ||\n            secondaryCurrencyId == vaultConfig.secondaryBorrowCurrencies[1],\n            \"Invalid Currency\"\n        );\n\n        VaultConfiguration.setMaxBorrowCapacity(vaultAddress, secondaryCurrencyId, maxBorrowCapacity);\n        emit VaultUpdateSecondaryBorrowCapacity(vaultAddress, secondaryCurrencyId, maxBorrowCapacity);\n    }\n\n\n    /// @notice Allows the owner to reduce the max borrow capacity on the vault\n    /// @param vaultAddress address of the vault\n    /// @param maxVaultBorrowCapacity the new max vault borrow capacity on the primary currency\n    function setMaxBorrowCapacity(\n        address vaultAddress,\n        uint80 maxVaultBorrowCapacity\n    ) external override onlyOwner {\n        VaultConfig memory vaultConfig = VaultConfiguration.getVaultConfigStateful(vaultAddress);\n        VaultConfiguration.setMaxBorrowCapacity(vaultAddress, vaultConfig.borrowCurrencyId, maxVaultBorrowCapacity);\n\n        emit VaultUpdated(vaultAddress, vaultConfig.getFlag(VaultConfiguration.ENABLED), maxVaultBorrowCapacity);\n    }\n\n    /// @notice Allows the owner to reduce the max borrow capacity on the vault and force\n    /// the redemption of strategy tokens to cash to reduce the overall risk of the vault.\n    /// This method is intended to be used in emergencies to mitigate insolvency risk. The effect\n    /// of this method will mean that the overall max borrow capacity is reduced, the total used\n    /// capacity will be unchanged (redeemStrategyTokensToCash does not do any lending to reduce\n    /// the outstanding fCash), and accounts will be locked out of entering the maturity which was\n    /// targeted by this method. Other maturities for that vault may still be entered depending on\n    /// whether or not the vault is above or below the max vault borrow capacity.\n    /// @param vaultAddress address of the vault\n    /// @param maxVaultBorrowCapacity the new max vault borrow capacity on the primary currency\n    /// @param maturity the maturity to redeem tokens in, will generally be either the current\n    /// maturity or the next maturity.\n    /// @param strategyTokensToRedeem how many tokens we would want to redeem in the maturity\n    /// @param vaultData vault data to pass to the vault\n    function reduceMaxBorrowCapacity(\n        address vaultAddress,\n        uint80 maxVaultBorrowCapacity,\n        uint256 maturity,\n        uint256 strategyTokensToRedeem,\n        bytes calldata vaultData\n    ) external override onlyOwner {\n        VaultConfig memory vaultConfig = VaultConfiguration.getVaultConfigStateful(vaultAddress);\n        VaultConfiguration.setMaxBorrowCapacity(vaultAddress, vaultConfig.borrowCurrencyId, maxVaultBorrowCapacity);\n\n        // Redeems strategy tokens to be held against fCash debt\n        _redeemStrategyTokensToCashInternal(vaultConfig, maturity, strategyTokensToRedeem, vaultData);\n\n        emit VaultUpdated(vaultAddress, vaultConfig.getFlag(VaultConfiguration.ENABLED), maxVaultBorrowCapacity);\n    }\n\n    /// @notice Strategy vaults can call this method to redeem strategy tokens to cash and hold them\n    /// as asset cash within the pool. This should typically be used during settlement but can also be\n    /// used for vault-wide deleveraging.\n    /// @param maturity the maturity of the vault where the redemption will take place\n    /// @param strategyTokensToRedeem the number of strategy tokens redeemed\n    /// @param vaultData arbitrary data to pass back to the vault\n    /// @return assetCashRequiredToSettle amount of asset cash still remaining to settle the debt\n    /// @return underlyingCashRequiredToSettle amount of underlying cash still remaining to settle the debt\n    function redeemStrategyTokensToCash(\n        uint256 maturity,\n        uint256 strategyTokensToRedeem,\n        bytes calldata vaultData\n    ) external override returns (int256 assetCashRequiredToSettle, int256 underlyingCashRequiredToSettle) {\n        // NOTE: this call must come from the vault itself\n        VaultConfig memory vaultConfig = VaultConfiguration.getVaultConfigStateful(msg.sender);\n        // NOTE: if the msg.sender is not the vault itself this will revert\n        require(vaultConfig.getFlag(VaultConfiguration.ENABLED), \"Paused\");\n        return _redeemStrategyTokensToCashInternal(vaultConfig, maturity, strategyTokensToRedeem, vaultData);\n    }\n\n    /// @notice Redeems strategy tokens to cash\n    function _redeemStrategyTokensToCashInternal(\n        VaultConfig memory vaultConfig,\n        uint256 maturity,\n        uint256 strategyTokensToRedeem,\n        bytes calldata vaultData\n    ) private nonReentrant returns (int256 assetCashRequiredToSettle, int256 underlyingCashRequiredToSettle) {\n        // If the vault allows further re-entrancy then set the status back to the default\n        if (vaultConfig.getFlag(VaultConfiguration.ALLOW_REENTRANCY)) {\n            reentrancyStatus = _NOT_ENTERED;\n        }\n\n        VaultState memory vaultState = VaultStateLib.getVaultState(vaultConfig.vault, maturity);\n        (int256 assetCashReceived, uint256 underlyingToReceiver) = vaultConfig.redeemWithoutDebtRepayment(\n            vaultConfig.vault, strategyTokensToRedeem, maturity, vaultData\n        );\n        require(assetCashReceived > 0);\n        // Safety check to ensure that the vault does not somehow receive tokens in this scenario\n        require(underlyingToReceiver == 0);\n\n        vaultState.totalAssetCash = vaultState.totalAssetCash.add(uint256(assetCashReceived));\n        vaultState.totalStrategyTokens = vaultState.totalStrategyTokens.sub(strategyTokensToRedeem);\n        vaultState.setVaultState(vaultConfig.vault);\n\n        emit VaultRedeemStrategyToken(vaultConfig.vault, maturity, assetCashReceived, strategyTokensToRedeem);\n        return _getCashRequiredToSettle(vaultConfig, vaultState, maturity);\n    }\n\n    /// @notice Strategy vaults can call this method to deposit asset cash into strategy tokens.\n    /// @param maturity the maturity of the vault where the redemption will take place\n    /// @param assetCashInternal the number of asset cash tokens to deposit (external)\n    /// @param vaultData arbitrary data to pass back to the vault for deposit\n    function depositVaultCashToStrategyTokens(\n        uint256 maturity,\n        uint256 assetCashInternal,\n        bytes calldata vaultData\n    ) external override nonReentrant {\n        VaultConfig memory vaultConfig = VaultConfiguration.getVaultConfigStateful(msg.sender);\n        // NOTE: if the msg.sender is not the vault itself this will revert\n        require(vaultConfig.getFlag(VaultConfiguration.ENABLED), \"Paused\");\n\n        // If the vault allows further re-entrancy then set the status back to the default\n        if (vaultConfig.getFlag(VaultConfiguration.ALLOW_REENTRANCY)) {\n            reentrancyStatus = _NOT_ENTERED;\n        }\n\n        VaultState memory vaultState = VaultStateLib.getVaultState(msg.sender, maturity);\n        uint256 strategyTokensMinted = vaultConfig.deposit(\n            vaultConfig.vault, assetCashInternal.toInt(), maturity, 0, vaultData\n        );\n\n        vaultState.totalAssetCash = vaultState.totalAssetCash.sub(assetCashInternal);\n        vaultState.totalStrategyTokens = vaultState.totalStrategyTokens.add(strategyTokensMinted);\n        vaultState.setVaultState(msg.sender);\n\n        // When exchanging asset cash for strategy tokens we will decrease the vault's collateral, ensure that\n        // we don't go under the configured minimum here.\n        (int256 collateralRatio, /* */) = vaultConfig.calculateCollateralRatio(\n            vaultState, msg.sender, vaultState.totalVaultShares, vaultState.totalfCash\n        );\n        require(vaultConfig.minCollateralRatio <= collateralRatio, \"Insufficient Collateral\");\n        emit VaultMintStrategyToken(msg.sender, maturity, assetCashInternal, strategyTokensMinted);\n    }\n\n    /// @notice Allows a vault to borrow a secondary currency if it is whitelisted to do so\n    /// @param account account that is borrowing the secondary currency\n    /// @param maturity the maturity to borrow at\n    /// @param fCashToBorrow fCash to borrow for the first and second secondary currencies\n    /// @param maxBorrowRate maximum borrow rate for the first and second secondary currencies\n    /// @param minRollLendRate max roll lend rate for the first and second borrow currencies\n    /// @return underlyingTokensTransferred amount of tokens transferred back to the vault\n    function borrowSecondaryCurrencyToVault(\n        address account,\n        uint256 maturity,\n        uint256[2] calldata fCashToBorrow,\n        uint32[2] calldata maxBorrowRate,\n        uint32[2] calldata minRollLendRate\n    ) external override returns (uint256[2] memory underlyingTokensTransferred) {\n        // This method call must come from the vault\n        VaultConfig memory vaultConfig = VaultConfiguration.getVaultConfigStateful(msg.sender);\n        // This also ensures that the caller is an actual vault\n        require(vaultConfig.getFlag(VaultConfiguration.ENABLED), \"Paused\");\n        uint16[2] memory currencies = vaultConfig.secondaryBorrowCurrencies;\n        require(currencies[0] != 0 || currencies[1] != 0);\n\n        VaultAccountSecondaryDebtShareStorage storage s = \n            LibStorage.getVaultAccountSecondaryDebtShare()[account][vaultConfig.vault];\n        uint256 accountMaturity = s.maturity;\n        \n        // If the borrower is rolling their primary debt forward, we need to check that here and roll\n        // their secondary debt forward in the same manner (simulate lending and then borrow more in\n        // a longer dated maturity to repay their borrowing). Rolling debts forward can only occur if:\n        //  - borrower has an existing debt position\n        //  - borrower is rolling to a longer dated maturity\n        //  - vault allows rolling positions forward\n        //  - borrower is not the vault itself (only individual accounts can roll borrows)\n        int256[2] memory costToRepay;\n        if (\n            accountMaturity != 0 &&\n            accountMaturity < maturity &&\n            vaultConfig.getFlag(VaultConfiguration.ALLOW_ROLL_POSITION) &&\n            account != msg.sender\n        ) {\n            costToRepay[0] = _repayDuringRoll(\n                vaultConfig, account, currencies[0], accountMaturity, s.accountDebtSharesOne, minRollLendRate[0]\n            );\n            costToRepay[1] = _repayDuringRoll(\n                vaultConfig, account, currencies[1], accountMaturity, s.accountDebtSharesTwo, minRollLendRate[1]\n            );\n        }\n\n        underlyingTokensTransferred[0] = _borrowAndTransfer(\n            vaultConfig, account, currencies[0], maturity, costToRepay[0], fCashToBorrow[0], maxBorrowRate[0]\n        );\n        underlyingTokensTransferred[1] = _borrowAndTransfer(\n            vaultConfig, account, currencies[1], maturity, costToRepay[1], fCashToBorrow[1], maxBorrowRate[1]\n        );\n    }\n\n    function _repayDuringRoll(\n        VaultConfig memory vaultConfig,\n        address account,\n        uint16 currencyId,\n        uint256 maturity,\n        uint256 accountDebtShares,\n        uint32 minLendRate\n    ) private returns (int256 costToRepay) {\n        if (currencyId != 0 && accountDebtShares != 0) {\n            (costToRepay, /* */) = vaultConfig.repaySecondaryBorrow(\n                account, currencyId, maturity, accountDebtShares, minLendRate\n            );\n        }\n    }\n\n    function _borrowAndTransfer(\n        VaultConfig memory vaultConfig,\n        address account,\n        uint16 currencyId,\n        uint256 maturity,\n        int256 costToRepay,\n        uint256 fCashToBorrow,\n        uint32 maxBorrowRate\n    ) private returns (uint256 underlyingTokensTransferred) {\n        if ((currencyId == 0 || fCashToBorrow == 0) && costToRepay == 0) return 0;\n\n        (int256 netBorrowedCash, /* */) = vaultConfig.increaseSecondaryBorrow(\n            account, currencyId, maturity, fCashToBorrow, maxBorrowRate\n        );\n\n        netBorrowedCash = netBorrowedCash.add(costToRepay);\n        require(netBorrowedCash >= 0, \"Insufficient Secondary Borrow\");\n\n        underlyingTokensTransferred = VaultConfiguration.transferFromNotional(\n            vaultConfig.vault, currencyId, netBorrowedCash\n        );\n    }\n\n    /// @notice Allows a vault to repay a secondary currency that it has borrowed. Will be executed via a callback\n    /// which will request that the vault repay a specific amount of underlying tokens.\n    /// @param account account that is repaying the secondary currency\n    /// @param currencyId currency id of the secondary currency\n    /// @param maturity the maturity to lend at\n    /// @param debtSharesToRepay amount of debt shares to repay (used to calculate fCashToLend)\n    /// @param minLendRate minimum lend rate\n    /// @return returnData arbitrary return data to pass back to the vault\n    function repaySecondaryCurrencyFromVault(\n        address account,\n        uint16 currencyId,\n        uint256 maturity,\n        uint256 debtSharesToRepay,\n        uint32 minLendRate,\n        bytes calldata callbackData\n    ) external override returns (bytes memory returnData) {\n        // Short circuits a zero debt shares to repay to save gas and avoid divide by zero issues\n        if (debtSharesToRepay == 0) return returnData;\n\n        // This method call must come from the vault\n        VaultConfig memory vaultConfig = VaultConfiguration.getVaultConfigStateful(msg.sender);\n        require(vaultConfig.getFlag(VaultConfiguration.ENABLED), \"Paused\");\n\n        (int256 netAssetCash, /* */) = vaultConfig.repaySecondaryBorrow(\n            account, currencyId, maturity, debtSharesToRepay, minLendRate\n        );\n\n        Token memory assetToken = TokenHandler.getAssetToken(currencyId);\n        // The vault MUST return exactly this amount of underlying tokens to the vault in the callback. We use\n        // a callback here because it is more precise and gas efficient than calculating netAssetCash twice\n        uint256 balanceTransferred;\n        {\n            // If the asset token is NonMintable then the underlying is the same object.\n            Token memory underlyingToken = assetToken.tokenType == TokenType.NonMintable ? \n                assetToken :\n                TokenHandler.getUnderlyingToken(currencyId);\n\n            uint256 underlyingExternalToRepay = underlyingToken.convertToUnderlyingExternalWithAdjustment(\n                vaultConfig.assetRate.convertToUnderlying(netAssetCash).neg()\n            ).toUint();\n\n            uint256 balanceBefore = underlyingToken.balanceOf(address(this));\n            // Tells the vault will redeem the strategy token amount and transfer asset tokens back to Notional\n            returnData = IStrategyVault(msg.sender).repaySecondaryBorrowCallback(\n                underlyingToken.tokenAddress, underlyingExternalToRepay, callbackData\n            );\n            uint256 balanceAfter = underlyingToken.balanceOf(address(this));\n            balanceTransferred = balanceAfter.sub(balanceBefore);\n            require(balanceTransferred >= underlyingExternalToRepay, \"Insufficient Repay\");\n        }\n\n        // NonMintable tokens do not require minting\n        if (assetToken.tokenType != TokenType.NonMintable) {\n            assetToken.mint(currencyId, balanceTransferred);\n        }\n    }\n\n    /**\n     * @notice MUST be called by vaults that are using secondary borrows to initiate the settlement\n     * process. Once settlement process has been initiated, no further secondary borrows may occur in\n     * this maturity. Repayments can only occur via the vault itself, individual accounts cannot repay\n     * secondary borrows after this occurs. Can only be called by the vault.\n     * @param maturity maturity in which to initiate settlement\n     * @return secondaryBorrowSnapshot value of fCash in primary currency terms for both secondary borrow\n     * currencies\n     */\n    function initiateSecondaryBorrowSettlement(\n        uint256 maturity\n    ) external override returns (uint256[2] memory secondaryBorrowSnapshot) {\n        // This method call must come from the vault\n        VaultConfig memory vaultConfig = VaultConfiguration.getVaultConfigStateful(msg.sender);\n        require(vaultConfig.getFlag(VaultConfiguration.ENABLED), \"Paused\");\n\n        secondaryBorrowSnapshot[0] = vaultConfig.snapshotSecondaryBorrowAtSettlement(\n            vaultConfig.secondaryBorrowCurrencies[0],\n            maturity\n        ).toUint();\n\n        secondaryBorrowSnapshot[1] = vaultConfig.snapshotSecondaryBorrowAtSettlement(\n            vaultConfig.secondaryBorrowCurrencies[1],\n            maturity\n        ).toUint();\n    }\n\n    /// @notice Settles a vault and sets the final settlement rates\n    /// @param vault the vault to settle\n    /// @param maturity the maturity of the vault\n    function settleVault(address vault, uint256 maturity) external override nonReentrant {\n        VaultConfig memory vaultConfig = VaultConfiguration.getVaultConfigStateful(vault);\n        // Allow anyone to call this method unless it must be authorized by the vault. Generally speaking,\n        // as long as there is sufficient cash on the vault we should be able to settle\n        vaultConfig.authorizeCaller(msg.sender, VaultConfiguration.ONLY_VAULT_SETTLE);\n\n        VaultState memory vaultState = VaultStateLib.getVaultState(vault, maturity);\n        // Ensure that we are past maturity and the vault is able to settle\n        require(maturity <= block.timestamp && vaultState.isSettled == false, \"Cannot Settle\");\n\n        AssetRateParameters memory settlementRate = AssetRate.buildSettlementRateStateful(\n            vaultConfig.borrowCurrencyId,\n            maturity,\n            block.timestamp\n        );\n\n        // This is how much it costs in asset cash to settle the pooled portion of the vault\n        uint256 assetCashRequiredToSettle = settlementRate.convertFromUnderlying(\n            vaultState.totalfCash.neg()\n        ).toUint();\n\n        // Validate that all secondary currencies have been paid off.\n        mapping(uint256 => VaultSecondaryBorrowStorage) storage perCurrencyBalance =\n            LibStorage.getVaultSecondaryBorrow()[vault][maturity];\n        if (vaultConfig.secondaryBorrowCurrencies[0] != 0) {\n            require(perCurrencyBalance[vaultConfig.secondaryBorrowCurrencies[0]].totalfCashBorrowed == 0, \"Unpaid Borrow\");\n        }\n        if (vaultConfig.secondaryBorrowCurrencies[1] != 0) {\n            require(perCurrencyBalance[vaultConfig.secondaryBorrowCurrencies[1]].totalfCashBorrowed == 0, \"Unpaid Borrow\");\n        }\n\n        if (vaultState.totalAssetCash < assetCashRequiredToSettle) {\n            // Don't allow the pooled portion of the vault to have a cash shortfall unless all\n            // strategy tokens have been redeemed to asset cash.\n            require(vaultState.totalStrategyTokens == 0, \"Redeem all tokens\");\n\n            // After this point, we have a cash shortfall and will need to resolve it.\n            // Underflow checked above\n            int256 assetCashShortfall = (assetCashRequiredToSettle - vaultState.totalAssetCash).toInt();\n            uint256 assetCashRaised = VaultConfiguration.resolveShortfallWithReserve(\n                vaultConfig.vault, vaultConfig.borrowCurrencyId, assetCashShortfall, maturity\n            ).toUint();\n\n            vaultState.totalAssetCash = vaultState.totalAssetCash.add(assetCashRaised);\n            vaultState.setVaultState(vault);\n        }\n\n        // Clears the used borrow capacity regardless of the insolvency state of the vault. Since vaults are\n        // automatically paused in the case of any shortfall, no accounts will be able to enter regardless\n        // but we still want to maintain proper accounting of the borrow capacity.\n        VaultConfiguration.updateUsedBorrowCapacity(vault, vaultConfig.borrowCurrencyId, vaultState.totalfCash.neg());\n        vaultState.setSettledVaultState(vaultConfig, settlementRate, maturity, block.timestamp);\n    }\n\n    /** View Methods **/\n    function getVaultConfig(\n        address vault\n    ) external view override returns (VaultConfig memory vaultConfig) {\n        vaultConfig = VaultConfiguration.getVaultConfigView(vault);\n    }\n\n    function getVaultState(\n        address vault,\n        uint256 maturity\n    ) external view override returns (VaultState memory vaultState) {\n        vaultState = VaultStateLib.getVaultState(vault, maturity);\n    }\n\n    function getBorrowCapacity(\n        address vault,\n        uint16 currencyId\n    ) external view override returns (\n        uint256 totalUsedBorrowCapacity,\n        uint256 maxBorrowCapacity\n    ) {\n        VaultBorrowCapacityStorage storage cap = LibStorage.getVaultBorrowCapacity()[vault][currencyId];\n        totalUsedBorrowCapacity = cap.totalUsedBorrowCapacity;\n        maxBorrowCapacity = cap.maxBorrowCapacity;\n    }\n\n    function getSecondaryBorrow(\n        address vault,\n        uint16 currencyId,\n        uint256 maturity\n    ) external view override returns (\n        uint256 totalfCashBorrowed,\n        uint256 totalAccountDebtShares,\n        uint256 totalfCashBorrowedInPrimarySnapshot\n    ) {\n        VaultSecondaryBorrowStorage storage balance = \n            LibStorage.getVaultSecondaryBorrow()[vault][maturity][currencyId];\n        totalfCashBorrowed = balance.totalfCashBorrowed;\n        totalAccountDebtShares = balance.totalAccountDebtShares;\n        totalfCashBorrowedInPrimarySnapshot = balance.totalfCashBorrowedInPrimarySnapshot;\n    }\n\n    function getCashRequiredToSettle(\n        address vault,\n        uint256 maturity\n    ) external view override returns (\n        int256 assetCashRequiredToSettle,\n        int256 underlyingCashRequiredToSettle\n    ) {\n        VaultConfig memory vaultConfig = VaultConfiguration.getVaultConfigView(vault);\n        VaultState memory vaultState = VaultStateLib.getVaultState(vaultConfig.vault, maturity);\n        return _getCashRequiredToSettle(vaultConfig, vaultState, maturity);\n    }\n\n    function _getCashRequiredToSettle(\n        VaultConfig memory vaultConfig,\n        VaultState memory vaultState,\n        uint256 maturity\n    ) private view returns (\n        int256 assetCashRequiredToSettle,\n        int256 underlyingCashRequiredToSettle\n    ) {\n        // If this is prior to maturity, it will return the current asset rate. After maturity it will\n        // return the settlement rate.\n        AssetRateParameters memory ar = AssetRate.buildSettlementRateView(vaultConfig.borrowCurrencyId, maturity);\n        \n        // If this is a positive number, there is more cash remaining to be settled.\n        // If this is a negative number, there is more cash than required to repay the debt\n        int256 assetCashInternal = ar.convertFromUnderlying(vaultState.totalfCash)\n            .add(vaultState.totalAssetCash.toInt())\n            .neg();\n\n        Token memory assetToken = TokenHandler.getAssetToken(vaultConfig.borrowCurrencyId);\n        // If the asset token is NonMintable then the underlying is the same object.\n        assetCashRequiredToSettle = assetToken.convertToExternal(assetCashInternal);\n\n        if (assetToken.tokenType == TokenType.NonMintable) {\n            // In this case both values are the same, there is no underlying token\n            underlyingCashRequiredToSettle = assetCashRequiredToSettle;\n        } else {\n            Token memory underlyingToken = TokenHandler.getUnderlyingToken(vaultConfig.borrowCurrencyId);\n            underlyingCashRequiredToSettle = underlyingToken.convertToUnderlyingExternalWithAdjustment(\n                ar.convertToUnderlying(assetCashInternal)\n            );\n        }\n    }\n\n    function getLibInfo() external pure returns (address) {\n        return address(TradingAction);\n    }\n}","sourcePath":"contracts/external/actions/VaultAction.sol","type":"contract","deployment":{"address":"0x1f5EE45B051d121888546f75a6D8A9cEB3AeDB07","chainid":"5","blockHeight":7814203}}