{"bytecode":"608060405234801561001057600080fd5b50614b93806100206000396000f3fe608060405234801561001057600080fd5b50600436106100885760003560e01c80638da5cb5b1161005b5780638da5cb5b146100f65780639a600eeb146100fe578063c4c96dae14610111578063e3e7cb4f1461012757610088565b806324a3d6221461008d5780632d10e6eb146100ab5780636633af39146100cc57806382463367146100ee575b600080fd5b61009561013a565b6040516100a2919061488d565b60405180910390f35b6100be6100b936600461474e565b610149565b6040516100a2929190614932565b6100df6100da3660046146bd565b610239565b6040516100a293929190614940565b6100956102e9565b6100956102f8565b6100df61010c366004614653565b61030f565b610119610356565b6040516100a29291906148a1565b6100be61013536600461474e565b610384565b6002546001600160a01b031681565b6000806002600a5414156101785760405162461bcd60e51b815260040161016f90614a34565b60405180910390fd5b6002600a55600080808061018e898989846103ba565b935093509350935060006101b0338a876101ab8860a00151610431565b610447565b90506101bc8133610527565b6101c88a85848661062b565b336001600160a01b03168a6001600160a01b03167f4596c3b6545e97eb42b719442dd0afa8eb7680f3ff72c762763d4b292ee26ea78b8860405161020d929190614aa2565b60405180910390a3846102238560a00151610431565b6001600a55909b909a5098505050505050505050565b60008060006002600a5414156102615760405162461bcd60e51b815260040161016f90614a34565b6002600a5560008080806102798e8e8e8e8e8661067a565b935093509350935061028f8d8d86868d8d6106fd565b61029b8e8e8686610745565b6102a78e8e83876107b6565b6102b38e84838561062b565b836102bd846107e6565b6102ca8560a00151610431565b965096509650505050506001600a819055509750975097945050505050565b6001546001600160a01b031681565b60005464010000000090046001600160a01b031681565b60008060008060006103268a8a8a8a8a600161067a565b50509150915081610336826107e6565b6103438360a00151610431565b9450945094505050955095509592505050565b73__FreeCollateralExternal________________73__MigrateIncentives_____________________9091565b60008060008061039787878760016103ba565b505091509150816103ab8260a00151610431565b9350935050505b935093915050565b60006103c461400a565b6103cc61405a565b6103d4614082565b60008060006103e58b8b6000610803565b9250925092506103f361400a565b6103ff818d8d8761095f565b881515610140840152600061041c61ffff8d168c42858888610a05565b9d919c50919a50929850919650505050505050565b600061043f60001983610b99565b90505b919050565b61044f614082565b600061045e8561ffff16610bed565b9050600061046b87610c00565b905061047561400a565b6104818189898561095f565b826020015180156104925750600086135b156104e657858160200151121580156104b7575060208201516001600160f81b031916155b6104d35760405162461bcd60e51b815260040161016f906149ec565b6104dc86610431565b6060820152610504565b6105028861ffff89166104f9868a610ca1565b86929190610ce0565b505b60a081018590526105188189846000610d88565b5090925050505b949350505050565b6000610531611003565b6001600160a01b03831660008181526020838152604080832088518154938a0151838b015160608c015160808d015160701c600160481b027affffffffffffffffffffffffffffffffffff0000000000000000001961ffff909216600160381b0268ffff000000000000001960ff94909416600160301b0266ff0000000000001960f89690961c650100000000000265ff00000000001964ffffffffff90981664ffffffffff19909b169a909a1796909616989098179390931693909317169490941716929092179091555192935090917f6bd4b121bca854a191536a2ca891155c42ee2fb23f307fb34e8bc65cfcb5412e9190a2505050565b6080830180516000918290529061064790859087908690610d88565b5061065183611010565b61066257610662838684600161101d565b61066c8386610527565b608090930192909252505050565b600061068461400a565b61068c61405a565b610694614082565b42600080806106a48e8e8e610803565b9250925092506106b261400a565b6106c98f8e868461095f909392919063ffffffff16565b89151561014084015260006106e28d8d888588886110ff565b99509097509095509193505050509650965096509692505050565b600061070c3388876000610447565b905061073133828861071d886107e6565b61072a8960a00151610431565b8888611272565b5061073c8133610527565b50505050505050565b336001600160a01b0316846001600160a01b03167f88fff2f00941b1272999212de454ee8d15f54d132723b35e3423ef742109861c8584600001518661078a876107e6565b6107978860a00151610431565b6040516107a8959493929190614ab6565b60405180910390a350505050565b6107be61400a565b6107ca8186868661095f565b606081018290526107de8186856000610d88565b505050505050565b600061043f82608001516107fd8460600151610431565b906112cb565b61080b614082565b6108136140b0565b61081b61405a565b336001600160a01b038716141561083157600080fd5b61ffff851661083f57600080fd5b8461ffff168461ffff16141561085457600080fd5b600080600073__FreeCollateralExternal________________63451d958f8a8a8a6040518463ffffffff1660e01b8152600401610894939291906148bb565b60006040518083038186803b1580156108ac57600080fd5b505af41580156108c0573d6000803e3d6000fd5b505050506040513d6000823e601f3d908101601f191682016040526108e89190810190614794565b919450925090506108f9838a610527565b60408051608081018252828152815160008082526020828101909452928201908361093a565b610927614135565b81526020019060019003908161091f5790505b5081526000602082015292516040909301929092525091989097509095509350505050565b8161ffff1660001080156109795750613fff61ffff831611155b61098257600080fd5b61ffff82168085526109959082906112e1565b156109c2576109a8838361ffff1661136b565b61010088015260e0870152604086015260208501526109e0565b6000602085018190526040850181905260e085018190526101008501525b50506000606083018190526080830181905260a0830181905260c09092019190915250565b6000826040015160001415610a1957600080fd5b6000610a41610a35856040015186602001518760c00151611414565b61010086015190611463565b9050610a4b614175565b610a578486898561148e565b6060820151909350909150610a6b90610431565b9250610a88816060015182608001516116d590919063ffffffff16565b606087015250608084015160001215610b8e5760a0840151600090600381901a90821a11610ab557600080fd5b60a08501516080860151600382901a60009290921a9190910360ff1690610b0990610ae09083610b99565b60a088015160408a0151610b039160031a90610afd908890610b99565b90610b99565b906116eb565b915050610b248187604001518a6001600160601b031661171c565b9050610b2f81610431565b60a0878101919091526040870151908601516080870151600092610b68929091610b0391600381901a918391610afd908990891a610b99565b6060880151909150610b7a90826112cb565b6060880152610b8984826112cb565b935050505b509695505050505050565b818102600019831415610bc957811580610bbb575082828281610bb857fe5b05145b610bc457600080fd5b610be7565b821580610bde575081838281610bdb57fe5b05145b610be757600080fd5b92915050565b610bf56141ab565b61043f826000611766565b610c08614082565b6000610c12611003565b6001600160a01b039390931660009081526020938452604090819020815160a081018352905464ffffffffff8116825265010000000000810460f81b6001600160f81b03191695820195909552600160301b850460ff1691810191909152600160381b840461ffff166060820152600160481b90930460701b6001600160701b03191660808401525090919050565b60006305f5e10083604001511415610cba575080610be7565b610cd96305f5e100610b03856040015185610b9990919063ffffffff16565b9392505050565b80600585606001516005811115610cf357fe5b1415610d18576000610d0484611814565b9050610d14816000015184611827565b9250505b6000821315610d44576000610d2e8686856118b9565b9050856020015115610d3e578091505b5061051f565b600385606001516005811115610d5657fe5b1415610d7357610d6e84610d6984610431565b6119b1565b61051f565b845161051f9085610d8385610431565b6119ec565b60008060008660a001511215610ddb576000610dbd8760a001516107fd8960c001518a604001516112cb90919063ffffffff16565b1215610ddb5760405162461bcd60e51b815260040161016f90614a7e565b600086608001511215610e2b576000610e0d87608001516107fd89606001518a602001516112cb90919063ffffffff16565b1215610e2b5760405162461bcd60e51b815260040161016f90614a5c565b610e36868685611a63565b608088018190526060880151919350600091610e51916112cb565b90508015610ebe576020870151610e6890826112cb565b602088015286516040516001935061ffff909116906001600160a01b038816907f5441e4a5fac93a951d782e6f1cdb82e95c8fc58561a013953d17e395c5e69b4b90610eb5908590614929565b60405180910390a35b60a0870151151580610ed3575060c087015115155b15610f79576000610efd8860c001516107fd8a60a001518b604001516112cb90919063ffffffff16565b9050610f128888610f0d84611b18565b611b2b565b506040880181905260c088015115610f7357876000015161ffff16876001600160a01b03167f412bc13d202a2ea5119e55fec9c5e420dddb18faf186373ad9795ad4f4545aa98a60c00151604051610f6a9190614929565b60405180910390a35b60019250505b8115610fa657610fa686886000015161ffff1689602001518a604001518b60e001518c6101000151611c0c565b86516020880151610fd39161ffff1690151580610fc65750604089015115155b879190600160fe1b611d37565b600087602001511215610ff957602085018051600160f91b176001600160f81b03191690525b5050949350505050565b600080610be76001611f37565b6060015161ffff16151590565b600080808061102c8688611f50565b64ffffffffff81168c52929650909450925090506110498861218f565b1561105357600080fd5b60ff821660408901528461107257600760ff8316111561107257600080fd5b831561109557602088018051600160f81b176001600160f81b03191690526110a4565b602088018051607f60f91b1690525b6110b188608001516121e3565b6001600160701b031916608089015260005b83156110f45760f084901c8181146110e6576110e68a826001600160ff1b611d37565b60109490941b9390506110c3565b505050505050505050565b6000808360400151126111245760405162461bcd60e51b815260040161016f90614956565b60008360600151136111485760405162461bcd60e51b815260040161016f90614a0d565b6000806000611160868b6001600160801b031661225e565b92509250925060008390506000886020015113156111be57808860200151126111995761118c81610431565b60608901525060006111be565b6111a68860200151610431565b606089015260208801516111bb908290612309565b90505b60008113156111e95760006111d587898c85612325565b90506111e182826116d5565b60808a015290505b6000811380156111fd575060008760800151135b1561121a576112178888838d6001600160601b03166124c6565b90505b600081131561126357600061122f85836116d5565b9050600061124f828a61012001516040015161258490919063ffffffff16565b905061125d898583856125af565b95505050505b50909998505050505050505050565b61127a614082565b61128261400a565b61128e818a898b61095f565b6060810186905283156112aa576112a486610431565b60808201525b60a081018590526112bd818a8a86610d88565b509698975050505050505050565b81810182811215600083121514610be757600080fd5b600081158015906112f45750613fff8211155b6112fd57600080fd5b6080830151606084015161ffff1683141561131c576001915050610be7565b6001600160701b03198116156113615760f081901c613fff168381141561134e5750600160fe1b908116149050610be7565b5060101b6001600160801b03191661131c565b5060009392505050565b600080600080600061137b61263c565b6001600160a01b0388166000908152602082815260408083208a8452909152902080546001600160501b0381169650600160501b900463ffffffff16945090915083156113e45780546113dd90600160701b900466ffffffffffffff16612649565b92506113f9565b8054600160701b900466ffffffffffffff1692505b54600160a81b9004600a90810b900b97939650919450925050565b6000806000851361142957826040015161142f565b82606001515b90506000811361143e57600080fd5b61145a81610b036064610afd61145389610431565b8890612657565b95945050505050565b60008061051f8460200151610b038660400151610afd6402540be40088610b9990919063ffffffff16565b611496614175565b60008560200151516000146114aa57600080fd5b6114b26141da565b6114ba614175565b8751515b600019810190156116c7576000896000015182815181106114db57fe5b602002602001015190506114fc818a61012001516000015161ffff16612679565b61150657506116c2565b611517818a6101200151868b6126b5565b60208501526040808501829052820151611532918b916126e9565b60a08501819052818552889161154791612309565b1361158c576115568a83612741565b886101400151611573576060810151611570908590612891565b50505b60a08301518351611583916116d5565b8703965061165f565b60a083015183516000916115b2916115a391612309565b6060840151610b03908b610b99565b90508961014001516115d7576115c88582612891565b60208601526040850152611624565b6115f68560800151610b03838860600151610b9990919063ffffffff16565b84604001818152505061161e8560800151610b03838860400151610b9990919063ffffffff16565b60208501525b6116378a856040015184604001516126e9565b60a08601528452606082015161164d9082612309565b606083015250600160a0820152600096505b60a08301516060840151611672916112cb565b60608401526040830151608084015161168a916112cb565b608084015261012089015151602080830151908501516116b5928d9261ffff90911691600190612940565b866116c057506116c7565b505b6114be565b509793965092945050505050565b80820382811315600083121514610be757600080fd5b6000816000191480156117015750600160ff1b83145b1561170b57600080fd5b81838161171457fe5b059392505050565b60008061172f6064610b03866028610b99565b9050848481131561173d5750835b818612156117485750805b60008413801561175757508381135b1561145a575091949350505050565b61176e6141ab565b6000611778612a45565b6000858152602082815260408083208715158452825291829020825160a08101845281546001600160a01b038116825260ff600160a01b82048116151594830194909452600160b01b81048416600a0a9482019490945293945092916060830191600160a81b9091041660058111156117ed57fe5b81529154600160b81b900468ffffffffffffffffff16602090920191909152949350505050565b61181c6141ab565b61043f826001611766565b60008161183657506000610be7565b600061184184612a52565b9050600061184e84612ae0565b9050816b019d971e4fe8401e74000001600160ff1b038161186b57fe5b0581131561187857600080fd5b6b033b2e3c9fd0803ce80000006b019d971e4fe8401e740000008383020105600085136118ad576118a881610431565b6118af565b805b9695505050505050565b60008080806005876060015160058111156118d057fe5b146118e2576370a0823160e01b6118eb565b630ed1279f60e11b5b9050866020015115611907578651611904903083612b01565b92505b8651611914908787612c13565b866020015180611928575060008760800151115b1561193d57865161193a903083612b01565b91505b60808701511561197857600061195b8861195685612c6b565b612c81565b905061196a8860800151612c6b565b81131561197657600080fd5b505b86602001511561199e5761199461198f8385612cb1565b612c6b565b9350505050610cd9565b61199485612c6b565b5050509392505050565b6040516001600160a01b0383169082156108fc029083906000818181858888f193505050501580156119e7573d6000803e3d6000fd5b505050565b826001600160a01b031663a9059cbb83836040518363ffffffff1660e01b815260040180836001600160a01b0316815260200182815260200192505050600060405180830381600087803b158015611a4357600080fd5b505af1158015611a57573d6000803e3d6000fd5b505050506119e7612d0e565b6000806000611a79866000015161ffff16610bed565b90506000611a94876080015183610ca190919063ffffffff16565b905080611aa9576000809350935050506103b2565b848015611ab65750600081125b15611aeb578651611ad89061ffff1687611acf84610431565b85929190612d7b565b9350611ae48282612c81565b9250611b0e565b8651611aff908390889061ffff1684610ce0565b9350611b0b8285612c81565b92505b5050935093915050565b600080821215611b2757600080fd5b5090565b825160009042908290611b419061ffff16612e16565b90506000611b54828860c0015185612e3c565b9050611b6287838388612f1f565b93506000611b6f8361304c565b90506001600160a01b03811615611bf157806001600160a01b03166375e4480f88611b9d8b60400151611b18565b89896040518563ffffffff1660e01b8152600401611bbe9493929190614903565b600060405180830381600087803b158015611bd857600080fd5b505af1158015611bec573d6000803e3d6000fd5b505050505b8415611c0157611c0187866130be565b505050509392505050565b6000611c1661263c565b6001600160a01b0388166000908152602082815260408083208a845290915290209091506001600160571b03198612801590611c5957506001600160571b038613155b611c6257600080fd5b60008512158015611c7a57506001600160501b038513155b611c8357600080fd5b8315611c8e57600080fd5b66ffffffffffffff831115611ca257600080fd5b805466ffffffffffffff909316600160701b0266ffffffffffffff60701b19600a9790970b6affffffffffffffffffffff16600160a81b026001600160a81b0363ffffffff909616600160501b0263ffffffff60501b196001600160501b0390981669ffffffffffffffffffff1990961695909517969096169390931793909316939093179390931692909217909155505050565b826000108015611d495750613fff8311155b611d5257600080fd5b818015611d66575082846060015161ffff16145b15611d7057611f31565b6080840151600090815b6001600160701b0319821615611eeb5760f082901c613fff168681148015611d9f5750855b15611dd757506080870180516001600160f01b0319861660109093029290921c919091176001600160701b031916905250611f319050565b8681148015611de4575085155b15611e39576001600160f01b03198516199290921691600360fe1b8316611e17576010836001600160701b031916901b92505b506001600160701b031991821660109091021c91909117166080850152611f31565b8681118015611e455750855b15611e9f576080888101516001600160f01b031960f08a901b88178116601086021c9690961795911b1615611e7957600080fd5b506001600160701b03199182166001919091016010021c91909117166080850152611f31565b8681118015611eac575085155b15611eba5750505050611f31565b506001600160f01b0319821660108281029190911c93909317929190911b6001600160801b03191690600101611d7a565b84611ef857505050611f31565b60098110611f0557600080fd5b6001600160f01b031960f087901b85171660109091021c919091176001600160701b0319166080860152505b50505050565b6000620f4240826012811115611f4957fe5b0192915050565b6000808080808080805b895151811015611fe15760008a600001518281518110611f7657fe5b60200260200101519050600380811115611f8c57fe5b8160a001516003811115611f9c57fe5b1415611fa757600080fd5b60028160a001516003811115611fb957fe5b14158015611fc957506060810151155b15611fd857611fd88b83612741565b50600101611f5a565b5060005b8951518110156120845760008a60000151828151811061200157fe5b602002602001015190506002600381111561201857fe5b8160a00151600381111561202857fe5b141561203c5760808101516000905561207b565b60018160a00151600381111561204e57fe5b14156120675760808101518061206483826130dd565b50505b6120738186868661320b565b919650945092505b50600101611fe5565b506060890151600061209461326e565b6001600160a01b038b1660009081526020829052604081209192505b8c602001515181101561215e5760008d6020015182815181106120cf57fe5b602002602001015190508060600151600014156120ec5750612156565b60028160a0015160038111156120fe57fe5b1415801561211c575060038160a00151600381111561211957fe5b14155b61212557600080fd5b6121318189898961320b565b9199509750955061214e8184876010811061214857fe5b016130dd565b600185019450505b6001016120b0565b5060108311158015612175575064ffffffffff8411155b61217e57600080fd5b50939a929950975095509350505050565b60004261219b83611010565b156121bc576121a98161327b565b835164ffffffffff161091506104429050565b825164ffffffffff16158015906121db5750825164ffffffffff168110155b915050610442565b6000807f7fff7fff7fff7fff7fff7fff7fff7fff7fff00000000000000000000000000008316815b6001600160701b031982161561225557600160fe1b828116141561223f576001600160f01b03198216811c92909217916010015b6010826001600160701b031916901b915061220b565b50909392505050565b60008060008061226d8661329c565b809350819250505060006122a98760e00151606001516122a385610b0360648c60c0015160400151610b9990919063ffffffff16565b906116d5565b90506122ba81610b03846064610b99565b9450506122cc8487606001518761171c565b935060006122ec858861012001516040015161258490919063ffffffff16565b90506122fa878483886125af565b909550935050505b9250925092565b600061231583836116d5565b90506000811215610be757600080fd5b600084602001515160001461233957600080fd5b6123416141da565b8551515b600019810190156124bb5760008760000151828151811061236257fe5b60200260200101519050612383818861012001516000015161ffff16612679565b61238d57506124b6565b6000806123a1838a6101200151878b6126b5565b915091508682136123dd576123b68a85612741565b8861014001516123d35760608301516123d0908690612891565b50505b818703965061247e565b60006123fa83610b038a8760600151610b9990919063ffffffff16565b905089610140015161241a576124108682612891565b909350915061245d565b6124398660800151610b03838960600151610b9990919063ffffffff16565b925061245a8660800151610b03838960400151610b9990919063ffffffff16565b91505b606084015161246c9082612309565b606085015250600160a0840152600096505b61012089015151602084015161249f918c9161ffff90911690600185612940565b866124b25760009550505050505061051f565b5050505b612345565b509195945050505050565b60a0830151608084015160009180831a9160039190911a908390612509906124ee9085610b99565b610b0384610afd8c604001518b610b9990919063ffffffff16565b905060008513801561251a57508481135b156125225750835b8760400151811315612535575060408701515b61253e81610431565b8860a00181815250506125786125718960400151610b0385610b0388610afd8e6080015189610b9990919063ffffffff16565b8790612309565b98975050505050505050565b60008061051f8460400151610b036402540be400610b03878960200151610b9990919063ffffffff16565b60008060006125e286610b036125cd8a60c001518b60e001516132f0565b60c08b015151610b0390610afd8b6064610b99565b905060006125fe8289610100015161146390919063ffffffff16565b9050600061260f8960400151610431565b90508082131561262d5761262782610b038884610b99565b95508091505b50939793965092945050505050565b600080610be76006611f37565b600881901c60ff9091161b90565b60008061051f8460200151610b03866000015186610b9990919063ffffffff16565b81516000908214801561269457506126948360400151613315565b8015610cd9575060008360a0015160038111156126ad57fe5b149392505050565b60408401516000908190600019016126d186868360018861332b565b6126db878661339e565b909890975095505050505050565b60008060006127068487610120015161341990919063ffffffff16565b60ff1690506127246064610b0361271d82856116d5565b8890610b99565b92506127366064610b0385601e610b99565b915050935093915050565b815151811061274f57600080fd5b600082606001511161276057600080fd5b60008260000151828151811061277257fe5b602002602001015190506002600381111561278957fe5b8160a00151600381111561279957fe5b141580156127b7575060038160a0015160038111156127b457fe5b14155b6127c057600080fd5b606083018051600019019052600080805b855151811015612833576000866000015182815181106127ed57fe5b6020026020010151905082816080015111801561281a575060028160a00151600381111561281757fe5b14155b1561282a57806080015192508193505b506001016127d1565b508184141561284c575050600260a0919091015261288d565b60008560000151838151811061285e57fe5b602090810291909101015160808581018051918301805190915252600160a09182015260029401939093525050505b5050565b600080826128a457506000905080612939565b600083136128b157600080fd5b6128d08460800151610b03858760600151610b9990919063ffffffff16565b91506128f18460800151610b03858760400151610b9990919063ffffffff16565b60808501519091506129039084612309565b608085015260408401516129179082612309565b6040850152606084015161292b9083612309565b60608501526129398461344e565b9250929050565b845161294f90858585856134a6565b1561295957612a3e565b6040850151156129865760006129768660200151868686866134a6565b905080156129845750612a3e565b505b61298f82613315565b156129a25760008112156129a257600080fd5b6001600160571b031981128015906129c157506001600160571b038113155b6129ca57600080fd5b846020015151856040015114156129ee576129e885602001516135b7565b60208601525b60008560200151866040015181518110612a0457fe5b602090810291909101810151868152908101859052604080820185905260608201849052600060a090920191909152860180516001019052505b5050505050565b600080610be76007611f37565b60405163d15e005360e01b815260009061043f90737d2768de32b0b80b7a3454c06bdac94a69ddc7a99063d15e005390612a9090869060040161488d565b60206040518083038186803b158015612aa857600080fd5b505afa158015612abc573d6000803e3d6000fd5b505050506040513d601f19601f8201168201806040525081019061198f9190614875565b600080821215612afa57612af382610431565b9050610442565b5080610442565b604080516001600160a01b0384811660248084019190915283518084039091018152604490920183526020820180516001600160e01b03166001600160e01b0319861617815292518251600094859485948a16939092909182918083835b60208310612b7e5780518252601f199092019160209182019101612b5f565b6001836020036101000a038019825116818451168082178552505050505050905001915050600060405180830381855afa9150503d8060008114612bde576040519150601f19603f3d011682016040523d82523d6000602084013e612be3565b606091505b509150915081612bf257600080fd5b808060200190516020811015612c0757600080fd5b50519695505050505050565b604080516323b872dd60e01b81526001600160a01b038481166004830152306024830152604482018490529151918516916323b872dd9160648082019260009290919082900301818387803b158015611a4357600080fd5b60006001600160ff1b03821115611b2757600080fd5b60006305f5e10083604001511415612c9a575080610be7565b6040830151610cd990610b03846305f5e100610b99565b600082821115612d08576040805162461bcd60e51b815260206004820152601e60248201527f536166654d6174683a207375627472616374696f6e206f766572666c6f770000604482015290519081900360640190fd5b50900390565b6000612d18614222565b3d8015612d2c5760208114612d3557600080fd5b60019250612d40565b60206000833e815192505b508161288d576040805162461bcd60e51b8152602060048201526005602482015264045524332360dc1b604482015290519081900360640190fd5b600080600286606001516005811115612d9057fe5b1415612da857612da1868585613670565b9050612e05565b6000612db386611814565b9050600587606001516005811115612dc757fe5b1415612ddf57612dd881868661372d565b9150612e03565b600187606001516005811115612df157fe5b141561008857612dd8878287876137dd565b505b6118af612e1182612c6b565b610431565b600080612e216138db565b6000938452602052505060409020546001600160a01b031690565b6000806000612e4b86856138e8565b50915091506000612e5a61397d565b6001600160a01b0388166000908152602082905260408120919250612e7f85896112cb565b905080600013158015612e9857506001600160601b0381105b612ea157600080fd5b81546bffffffffffffffffffffffff19166001600160601b038216176fffffffffffffffffffffffffffffffff60601b1916600160601b6001600160801b0386160217825563ffffffff8710612ef657600080fd5b50805463ffffffff8716600160e01b026001600160e01b03909116179055509150509392505050565b60e084015160009015612fe05773__MigrateIncentives_____________________63e0c01a7285612f548860400151611b18565b8860e001518961010001516040518563ffffffff1660e01b8152600401612f7e9493929190614903565b60206040518083038186803b158015612f9657600080fd5b505af4158015612faa573d6000803e3d6000fd5b505050506040513d601f19601f82011682018060405250810190612fce9190614875565b600060e0870181905261010087015290505b61302261301b866101000151613015670de0b6b3a764000061300f886130098c60400151611b18565b9061398a565b906139e3565b90612cb1565b8290613a4a565b905061303a670de0b6b3a764000061300f848661398a565b85610100018181525050949350505050565b600080613057613aa4565b6001600160a01b0384166000908152602082905260409020805491925090600160f81b900460ff16156130b35761308c613ab1565b6001600160a01b038086166000908152602092909252604090912054169250610442915050565b600092505050610442565b61288d73c5e91b01f9b23952821410be7aa3c45b6429c67083836119ec565b8151158015906130f057508151613fff10155b6130f957600080fd5b816020015160001080156131165750602082015164ffffffffff10155b61311f57600080fd5b8160400151600010801561313857506040820151600810155b61314157600080fd5b60608201516001600160571b031913801590613168575060608201516001600160571b0312155b61317157600080fd5b8151815460208401516040850151606090950151600a0b6affffffffffffffffffffff16680100000000000000000272ffffffffffffffffffffff00000000000000001960ff909616600160381b0267ff000000000000001964ffffffffff909316620100000266ffffffffff00001961ffff90961661ffff19909516949094179490941692909217169190911792909216919091179055565b60008060008061321a88613abe565b905084158061322857508085115b15613231578094505b8680613241575060008860600151125b965061ffff86161561325257600080fd5b50509451939560109390931c60f09490941b9390931793509150565b600080610be7600d611f37565b60006201518082101561328d57600080fd5b62015180825b06909103919050565b6000806132cd6132bd6132b28560200151610431565b60e086015190612657565b6101208501516040015190611463565b91506132e98360e00151608001518460c0015160800151613b25565b9050915091565b6000610cd98260200151610b0384600001518660200151610b9990919063ffffffff16565b60006002821080159061043f5750506008101590565b82600111158015613340575084602001518311155b61335c5760405162461bcd60e51b815260040161016f906149c4565b600061337961336a85613b3b565b61337384613bdf565b90613a4a565b90506107de866000015161ffff168284866133938b613bfb565b8a9493929190613c0f565b6000806133ae8460400151613315565b80156133bf57506000846060015112155b6133c857600080fd5b6133eb8360800151610b0386606001518660600151610b9990919063ffffffff16565b91506134108360800151610b0386606001518660400151610b9990919063ffffffff16565b90509250929050565b60006002821080159061342d575060088211155b61343657600080fd5b50606082015160486008600119840102011c92915050565b600061345982613c30565b905060008160000160189054906101000a900463ffffffff16905061349882846040015185606001518660a001518563ffffffff168860e00151613c34565b6119e7828460800151613d48565b6000805b86518110156135aa5760008782815181106134c157fe5b602002602001015190508481604001511415806134df575080518714155b806134ee575085816020015114155b156134f957506135a2565b60028160a00151600381111561350b57fe5b14158015613529575060038160a00151600381111561352657fe5b14155b61353257600080fd5b606081015160009061354490866112cb565b905061354f86613315565b1561356257600081121561356257600080fd5b6001600160571b0319811280159061358157506001600160571b038113155b61358a57600080fd5b6060820152600160a0909101819052915061145a9050565b6001016134aa565b5060009695505050505050565b6060600082516000146135ce5782516002026135d1565b60015b905060008167ffffffffffffffff811180156135ec57600080fd5b5060405190808252806020026020018201604052801561362657816020015b613613614135565b81526020019060019003908161360b5790505b50905060005b84518110156136685784818151811061364157fe5b602002602001015182828151811061365557fe5b602090810291909101015260010161362c565b509392505050565b825160405163db006a7560e01b8152600091479183916001600160a01b03169063db006a75906136a4908790600401614929565b602060405180830381600087803b1580156136be57600080fd5b505af11580156136d2573d6000803e3d6000fd5b505050506040513d601f19601f820116820180604052508101906136f69190614875565b905080156137165760405162461bcd60e51b815260040161016f9061497d565b476137218184612cb1565b93506119a786856119b1565b600061374d613748856000015161374385612c6b565b611827565b611b18565b8451604051631a4ca37b60e21b8152919250737d2768de32b0b80b7a3454c06bdac94a69ddc7a9916369328dec9161378b91859088906004016148e0565b602060405180830381600087803b1580156137a557600080fd5b505af11580156137b9573d6000803e3d6000fd5b505050506040513d601f19601f820116820180604052508101906136689190614875565b825160009081906137f690306370a0823160e01b612b01565b9050600086600001516001600160a01b031663db006a75856040518263ffffffff1660e01b815260040161382a9190614929565b602060405180830381600087803b15801561384457600080fd5b505af1158015613858573d6000803e3d6000fd5b505050506040513d601f19601f8201168201806040525081019061387c9190614875565b9050801561389c5760405162461bcd60e51b815260040161016f9061497d565b85516000906138b390306370a0823160e01b612b01565b90506138bf8184612cb1565b93506138d0876000015187866119ec565b505050949350505050565b600080610be76003611f37565b60008060006138f685613d91565b91945092509050808411801561390c5750600081115b80156139185750600083115b1561230257600061392886613ded565b505050915050600061395361394a6305f5e1008461398a90919063ffffffff16565b84880387613e56565b905061395f8482613a4a565b93506001600160801b03841061397457600080fd5b50509250925092565b600080610be76011611f37565b60008261399957506000610be7565b828202828482816139a657fe5b0414610cd95760405162461bcd60e51b8152600401808060200182810382526021815260200180614b3d6021913960400191505060405180910390fd5b6000808211613a39576040805162461bcd60e51b815260206004820152601a60248201527f536166654d6174683a206469766973696f6e206279207a65726f000000000000604482015290519081900360640190fd5b818381613a4257fe5b049392505050565b600082820183811015610cd9576040805162461bcd60e51b815260206004820152601b60248201527f536166654d6174683a206164646974696f6e206f766572666c6f770000000000604482015290519081900360640190fd5b600080610be76002611f37565b600080610be76012611f37565b6000808260400151118015613ad857506040820151600810155b613ae157600080fd5b6040820151600210613af857506020810151610442565b6000613b0a6001846040015103613b3b565b6020840151909150610cd9906276a700906133739084612cb1565b6000818313613b345781610cd9565b5090919050565b60008160011415613b5057506276a700610442565b8160021415613b63575062ed4e00610442565b8160031415613b7757506301da9c00610442565b8160041415613b8b57506303b53800610442565b8160051415613b9f57506309450c00610442565b8160061415613bb3575063128a1800610442565b8160071415613bc757506325143000610442565b60405162461bcd60e51b815260040161016f9061499d565b60006276a700821015613bf157600080fd5b6276a70082613293565b6060015161012c60089190911c60ff160290565b60006276a700613c1e85613bdf565b01905061073c87878787878787613e78565b5190565b60008512158015613c4c57506001600160501b038513155b613c5557600080fd5b60008412158015613c6d57506001600160501b038413155b613c7657600080fd5b826000108015613c8a575063ffffffff8311155b613c9357600080fd5b816000108015613ca7575063ffffffff8211155b613cb057600080fd5b63ffffffff811115613cc157600080fd5b855469ffffffffffffffffffff19166001600160501b039586161769ffffffffffffffffffff60501b1916600160501b94909516939093029390931763ffffffff60a01b1916600160a01b63ffffffff928316021763ffffffff60c01b1916600160c01b93821693909302929092176001600160e01b0316600160e01b9190921602179055565b60008112158015613d6057506001600160501b038113155b613d6957600080fd5b600191909101805469ffffffffffffffffffff19166001600160501b03909216919091179055565b600080600080613d9f61397d565b6001600160a01b0395909516600090815260209590955250506040909220546001600160601b03811693600160601b82046001600160801b03169350600160e01b90910463ffffffff169150565b600080600080600080613dfe613aa4565b6001600160a01b039097166000908152602097909752505060409094205461ffff81169563ffffffff62010000830481169650600160301b830416945060ff600160501b8304169350600160581b90910460d81b9150565b600061051f8261300f6301da9c00818861300989670de0b6b3a764000061398a565b613e858787878685613eaf565b613e9e8760e001518860a001518960c001518588613f6a565b60c090970196909652505050505050565b6000613eb9613ffd565b6000868152602082815260408083208884528252808320868452825291829020808a5290890187905280546001600160501b03808216938b0193909352600160501b810490921660608a015263ffffffff600160a01b8304811660a08b0152600160c01b8304811660c08b0152600160e01b90920490911660e0890152909150808415613f585760018201546001600160501b03166080890152613f60565b600060808901525b5050505050505050565b6000808311613f7857600080fd5b81861115613f8757508361145a565b6000613f938388612cb1565b905083811115613fa6578591505061145a565b6000613fba8561300f84633b9aca0061398a565b90506000613fcc633b9aca0083612cb1565b90506000613fef633b9aca0061300f613fe58b8661398a565b6133738d8861398a565b9a9950505050505050505050565b600080610be7600a611f37565b604051806101200160405280600061ffff16815260200160008152602001600081526020016000815260200160008152602001600081526020016000815260200160008152602001600081525090565b6040518060800160405280606081526020016060815260200160008152602001600081525090565b6040805160a08101825260008082526020820181905291810182905260608101829052608081019190915290565b60405180610160016040528060006001600160a01b031681526020016000815260200160008152602001600081526020016000815260200160006001600160d01b0319168152602001614101614240565b815260200161410e614240565b815260200161411b61426f565b8152602001614128614299565b8152600060209091015290565b6040518060c0016040528060008152602001600081526020016000815260200160008152602001600081526020016000600381111561417057fe5b905290565b6040518060c001604052806000815260200160008152602001600081526020016000815260200160008152602001600081525090565b6040805160a0810182526000808252602082018190529181018290529060608201908152602001600081525090565b60405180610100016040528060008019168152602001600081526020016000815260200160008152602001600081526020016000815260200160008152602001600081525090565b60405180602001604052806001906020820280368337509192915050565b6040518060a0016040528060008152602001600081526020016000815260200160008152602001600081525090565b604051806060016040528060006001600160a01b0316815260200160008152602001600081525090565b604080516080810182526000808252602082015290810161412861426f565b805161044281614b06565b600082601f8301126142d3578081fd5b8151602067ffffffffffffffff808311156142ea57fe5b6142f78283850201614ae2565b8381528281019086840160c0808702890186018a1015614315578788fd5b875b878110156143965781838c03121561432d578889fd5b60408051838101818110898211171561434257fe5b82528451815288850151898201528482015191810191909152606080850151908201526080808501519082015260a09061437d8286016143f8565b9181019190915285529386019391810191600101614317565b50919998505050505050505050565b805161044281614b1e565b80516001600160701b03198116811461044257600080fd5b80516001600160f81b03198116811461044257600080fd5b80516001600160d01b03198116811461044257600080fd5b80516004811061044257600080fd5b600060608284031215614418578081fd5b6040516060810181811067ffffffffffffffff8211171561443557fe5b8060405250809150825161444881614b06565b8082525060208301516020820152604083015160408201525092915050565b600060c08284031215614478578081fd5b6040516080810181811067ffffffffffffffff8211171561449557fe5b806040525080915082516144a881614b2c565b8152602083810151908201526144c18460408501614407565b604082015260a083015160608201525092915050565b600060a082840312156144e8578081fd5b60405160a0810181811067ffffffffffffffff8211171561450557fe5b806040525080915082518152602083015160208201526040830151604082015260608301516060820152608083015160808201525092915050565b60006103408284031215614552578081fd5b61016061455e81614ae2565b9150614569836142b8565b82526020830151602083015260408301516040830152606083015160608301526080830151608083015261459f60a084016143e0565b60a08301526145b18460c085016144d7565b60c08301526145c2848285016144d7565b60e0830152506145d6836102008401614407565b6101008201526145ea836102608401614467565b6101208201526145fd61032083016143a5565b61014082015292915050565b80356001600160801b038116811461044257600080fd5b805161044281614b2c565b805160ff8116811461044257600080fd5b80356001600160601b038116811461044257600080fd5b600080600080600060a0868803121561466a578081fd5b853561467581614b06565b9450602086013561468581614b2c565b9350604086013561469581614b2c565b92506146a360608701614609565b91506146b16080870161463c565b90509295509295909350565b600080600080600080600060e0888a0312156146d7578485fd5b87356146e281614b06565b965060208801356146f281614b2c565b9550604088013561470281614b2c565b945061471060608901614609565b935061471e6080890161463c565b925060a088013561472e81614b1e565b915060c088013561473e81614b1e565b8091505092959891949750929550565b600080600060608486031215614762578081fd5b833561476d81614b06565b9250602084013561477d81614b2c565b915061478b6040850161463c565b90509250925092565b60008060008385036104008112156147aa578182fd5b60a08112156147b7578182fd5b5060405160a0810167ffffffffffffffff82821081831117156147d657fe5b816040528651915064ffffffffff821682146147f0578384fd5b8183526147ff602088016143c8565b60208401526148106040880161462b565b604084015261482160608801614620565b6060840152614832608088016143b0565b60808401528295506148478860a08901614540565b94506103e087015192508083111561485d578384fd5b505061486b868287016142c3565b9150509250925092565b600060208284031215614886578081fd5b5051919050565b6001600160a01b0391909116815260200190565b6001600160a01b0392831681529116602082015260400190565b6001600160a01b0393909316835261ffff918216602084015216604082015260600190565b6001600160a01b0393841681526020810192909252909116604082015260600190565b6001600160a01b0394909416845260208401929092526040830152606082015260800190565b90815260200190565b918252602082015260400190565b9283526020830191909152604082015260600190565b6020808252600d908201526c139bc81b1bd8d85b081919589d609a1b604082015260600190565b60208082526006908201526552656465656d60d01b604082015260600190565b6020808252600d908201526c092dcecc2d8d2c840d2dcc8caf609b1b604082015260600190565b6020808252600e908201526d125b9d985b1a59081b585c9ad95d60921b604082015260600190565b60208082526007908201526609cde40c6c2e6d60cb1b604082015260600190565b6020808252600d908201526c139bc818dbdb1b185d195c985b609a1b604082015260600190565b6020808252600e908201526d1499595b9d1c985b9d0818d85b1b60921b604082015260600190565b60208082526008908201526709ccace4086c2e6d60c31b604082015260600190565b6020808252600a90820152692732b390372a37b5b2b760b11b604082015260600190565b61ffff929092168252602082015260400190565b61ffff958616815293909416602084015260408301919091526060820152608081019190915260a00190565b60405181810167ffffffffffffffff81118282101715614afe57fe5b604052919050565b6001600160a01b0381168114614b1b57600080fd5b50565b8015158114614b1b57600080fd5b61ffff81168114614b1b57600080fdfe536166654d6174683a206d756c7469706c69636174696f6e206f766572666c6f77a264697066735822122084bda1b44a30176be3b7444b79b95f42f3cf5a3eab192360a73fc26ed957923364736f6c63430007060033","bytecodeSha1":"40bf5c1c8a6b04fdd192d92ff3458e99ea4a6f7b","type":"contract","abi":[{"anonymous":false,"inputs":[{"indexed":true,"internalType":"address","name":"liquidated","type":"address"},{"indexed":true,"internalType":"address","name":"liquidator","type":"address"},{"indexed":false,"internalType":"uint16","name":"localCurrencyId","type":"uint16"},{"indexed":false,"internalType":"uint16","name":"collateralCurrencyId","type":"uint16"},{"indexed":false,"internalType":"int256","name":"localAssetCashFromLiquidator","type":"int256"},{"indexed":false,"internalType":"int256","name":"netCollateralTransfer","type":"int256"},{"indexed":false,"internalType":"int256","name":"netNTokenTransfer","type":"int256"}],"name":"LiquidateCollateralCurrency","type":"event"},{"anonymous":false,"inputs":[{"indexed":true,"internalType":"address","name":"liquidated","type":"address"},{"indexed":true,"internalType":"address","name":"liquidator","type":"address"},{"indexed":false,"internalType":"uint16","name":"localCurrencyId","type":"uint16"},{"indexed":false,"internalType":"int256","name":"localAssetCashFromLiquidator","type":"int256"}],"name":"LiquidateLocalCurrency","type":"event"},{"inputs":[{"internalType":"address","name":"liquidateAccount","type":"address"},{"internalType":"uint16","name":"localCurrency","type":"uint16"},{"internalType":"uint16","name":"collateralCurrency","type":"uint16"},{"internalType":"uint128","name":"maxCollateralLiquidation","type":"uint128"},{"internalType":"uint96","name":"maxNTokenLiquidation","type":"uint96"}],"name":"calculateCollateralCurrencyLiquidation","outputs":[{"internalType":"int256","name":"","type":"int256"},{"internalType":"int256","name":"","type":"int256"},{"internalType":"int256","name":"","type":"int256"}],"stateMutability":"nonpayable","type":"function"},{"inputs":[{"internalType":"address","name":"liquidateAccount","type":"address"},{"internalType":"uint16","name":"localCurrency","type":"uint16"},{"internalType":"uint96","name":"maxNTokenLiquidation","type":"uint96"}],"name":"calculateLocalCurrencyLiquidation","outputs":[{"internalType":"int256","name":"","type":"int256"},{"internalType":"int256","name":"","type":"int256"}],"stateMutability":"nonpayable","type":"function"},{"inputs":[],"name":"getLibInfo","outputs":[{"internalType":"address","name":"","type":"address"},{"internalType":"address","name":"","type":"address"}],"stateMutability":"view","type":"function"},{"inputs":[{"internalType":"address","name":"liquidateAccount","type":"address"},{"internalType":"uint16","name":"localCurrency","type":"uint16"},{"internalType":"uint16","name":"collateralCurrency","type":"uint16"},{"internalType":"uint128","name":"maxCollateralLiquidation","type":"uint128"},{"internalType":"uint96","name":"maxNTokenLiquidation","type":"uint96"},{"internalType":"bool","name":"withdrawCollateral","type":"bool"},{"internalType":"bool","name":"redeemToUnderlying","type":"bool"}],"name":"liquidateCollateralCurrency","outputs":[{"internalType":"int256","name":"","type":"int256"},{"internalType":"int256","name":"","type":"int256"},{"internalType":"int256","name":"","type":"int256"}],"stateMutability":"nonpayable","type":"function"},{"inputs":[{"internalType":"address","name":"liquidateAccount","type":"address"},{"internalType":"uint16","name":"localCurrency","type":"uint16"},{"internalType":"uint96","name":"maxNTokenLiquidation","type":"uint96"}],"name":"liquidateLocalCurrency","outputs":[{"internalType":"int256","name":"","type":"int256"},{"internalType":"int256","name":"","type":"int256"}],"stateMutability":"nonpayable","type":"function"},{"inputs":[],"name":"owner","outputs":[{"internalType":"address","name":"","type":"address"}],"stateMutability":"view","type":"function"},{"inputs":[],"name":"pauseGuardian","outputs":[{"internalType":"address","name":"","type":"address"}],"stateMutability":"view","type":"function"},{"inputs":[],"name":"pauseRouter","outputs":[{"internalType":"address","name":"","type":"address"}],"stateMutability":"view","type":"function"}],"compiler":{"version":"0.7.6+commit.7338295f","evm_version":"istanbul","optimizer":{"enabled":true,"runs":200}},"contractName":"LiquidateCurrencyAction","deployedBytecode":"608060405234801561001057600080fd5b50600436106100885760003560e01c80638da5cb5b1161005b5780638da5cb5b146100f65780639a600eeb146100fe578063c4c96dae14610111578063e3e7cb4f1461012757610088565b806324a3d6221461008d5780632d10e6eb146100ab5780636633af39146100cc57806382463367146100ee575b600080fd5b61009561013a565b6040516100a2919061488d565b60405180910390f35b6100be6100b936600461474e565b610149565b6040516100a2929190614932565b6100df6100da3660046146bd565b610239565b6040516100a293929190614940565b6100956102e9565b6100956102f8565b6100df61010c366004614653565b61030f565b610119610356565b6040516100a29291906148a1565b6100be61013536600461474e565b610384565b6002546001600160a01b031681565b6000806002600a5414156101785760405162461bcd60e51b815260040161016f90614a34565b60405180910390fd5b6002600a55600080808061018e898989846103ba565b935093509350935060006101b0338a876101ab8860a00151610431565b610447565b90506101bc8133610527565b6101c88a85848661062b565b336001600160a01b03168a6001600160a01b03167f4596c3b6545e97eb42b719442dd0afa8eb7680f3ff72c762763d4b292ee26ea78b8860405161020d929190614aa2565b60405180910390a3846102238560a00151610431565b6001600a55909b909a5098505050505050505050565b60008060006002600a5414156102615760405162461bcd60e51b815260040161016f90614a34565b6002600a5560008080806102798e8e8e8e8e8661067a565b935093509350935061028f8d8d86868d8d6106fd565b61029b8e8e8686610745565b6102a78e8e83876107b6565b6102b38e84838561062b565b836102bd846107e6565b6102ca8560a00151610431565b965096509650505050506001600a819055509750975097945050505050565b6001546001600160a01b031681565b60005464010000000090046001600160a01b031681565b60008060008060006103268a8a8a8a8a600161067a565b50509150915081610336826107e6565b6103438360a00151610431565b9450945094505050955095509592505050565b73__$841fddfe32830bb6dbc3a02d7f16c53722$__73__$b21a4dc043b77aa57922ad9143a3cb040e$__9091565b60008060008061039787878760016103ba565b505091509150816103ab8260a00151610431565b9350935050505b935093915050565b60006103c461400a565b6103cc61405a565b6103d4614082565b60008060006103e58b8b6000610803565b9250925092506103f361400a565b6103ff818d8d8761095f565b881515610140840152600061041c61ffff8d168c42858888610a05565b9d919c50919a50929850919650505050505050565b600061043f60001983610b99565b90505b919050565b61044f614082565b600061045e8561ffff16610bed565b9050600061046b87610c00565b905061047561400a565b6104818189898561095f565b826020015180156104925750600086135b156104e657858160200151121580156104b7575060208201516001600160f81b031916155b6104d35760405162461bcd60e51b815260040161016f906149ec565b6104dc86610431565b6060820152610504565b6105028861ffff89166104f9868a610ca1565b86929190610ce0565b505b60a081018590526105188189846000610d88565b5090925050505b949350505050565b6000610531611003565b6001600160a01b03831660008181526020838152604080832088518154938a0151838b015160608c015160808d015160701c600160481b027affffffffffffffffffffffffffffffffffff0000000000000000001961ffff909216600160381b0268ffff000000000000001960ff94909416600160301b0266ff0000000000001960f89690961c650100000000000265ff00000000001964ffffffffff90981664ffffffffff19909b169a909a1796909616989098179390931693909317169490941716929092179091555192935090917f6bd4b121bca854a191536a2ca891155c42ee2fb23f307fb34e8bc65cfcb5412e9190a2505050565b6080830180516000918290529061064790859087908690610d88565b5061065183611010565b61066257610662838684600161101d565b61066c8386610527565b608090930192909252505050565b600061068461400a565b61068c61405a565b610694614082565b42600080806106a48e8e8e610803565b9250925092506106b261400a565b6106c98f8e868461095f909392919063ffffffff16565b89151561014084015260006106e28d8d888588886110ff565b99509097509095509193505050509650965096509692505050565b600061070c3388876000610447565b905061073133828861071d886107e6565b61072a8960a00151610431565b8888611272565b5061073c8133610527565b50505050505050565b336001600160a01b0316846001600160a01b03167f88fff2f00941b1272999212de454ee8d15f54d132723b35e3423ef742109861c8584600001518661078a876107e6565b6107978860a00151610431565b6040516107a8959493929190614ab6565b60405180910390a350505050565b6107be61400a565b6107ca8186868661095f565b606081018290526107de8186856000610d88565b505050505050565b600061043f82608001516107fd8460600151610431565b906112cb565b61080b614082565b6108136140b0565b61081b61405a565b336001600160a01b038716141561083157600080fd5b61ffff851661083f57600080fd5b8461ffff168461ffff16141561085457600080fd5b600080600073__$841fddfe32830bb6dbc3a02d7f16c53722$__63451d958f8a8a8a6040518463ffffffff1660e01b8152600401610894939291906148bb565b60006040518083038186803b1580156108ac57600080fd5b505af41580156108c0573d6000803e3d6000fd5b505050506040513d6000823e601f3d908101601f191682016040526108e89190810190614794565b919450925090506108f9838a610527565b60408051608081018252828152815160008082526020828101909452928201908361093a565b610927614135565b81526020019060019003908161091f5790505b5081526000602082015292516040909301929092525091989097509095509350505050565b8161ffff1660001080156109795750613fff61ffff831611155b61098257600080fd5b61ffff82168085526109959082906112e1565b156109c2576109a8838361ffff1661136b565b61010088015260e0870152604086015260208501526109e0565b6000602085018190526040850181905260e085018190526101008501525b50506000606083018190526080830181905260a0830181905260c09092019190915250565b6000826040015160001415610a1957600080fd5b6000610a41610a35856040015186602001518760c00151611414565b61010086015190611463565b9050610a4b614175565b610a578486898561148e565b6060820151909350909150610a6b90610431565b9250610a88816060015182608001516116d590919063ffffffff16565b606087015250608084015160001215610b8e5760a0840151600090600381901a90821a11610ab557600080fd5b60a08501516080860151600382901a60009290921a9190910360ff1690610b0990610ae09083610b99565b60a088015160408a0151610b039160031a90610afd908890610b99565b90610b99565b906116eb565b915050610b248187604001518a6001600160601b031661171c565b9050610b2f81610431565b60a0878101919091526040870151908601516080870151600092610b68929091610b0391600381901a918391610afd908990891a610b99565b6060880151909150610b7a90826112cb565b6060880152610b8984826112cb565b935050505b509695505050505050565b818102600019831415610bc957811580610bbb575082828281610bb857fe5b05145b610bc457600080fd5b610be7565b821580610bde575081838281610bdb57fe5b05145b610be757600080fd5b92915050565b610bf56141ab565b61043f826000611766565b610c08614082565b6000610c12611003565b6001600160a01b039390931660009081526020938452604090819020815160a081018352905464ffffffffff8116825265010000000000810460f81b6001600160f81b03191695820195909552600160301b850460ff1691810191909152600160381b840461ffff166060820152600160481b90930460701b6001600160701b03191660808401525090919050565b60006305f5e10083604001511415610cba575080610be7565b610cd96305f5e100610b03856040015185610b9990919063ffffffff16565b9392505050565b80600585606001516005811115610cf357fe5b1415610d18576000610d0484611814565b9050610d14816000015184611827565b9250505b6000821315610d44576000610d2e8686856118b9565b9050856020015115610d3e578091505b5061051f565b600385606001516005811115610d5657fe5b1415610d7357610d6e84610d6984610431565b6119b1565b61051f565b845161051f9085610d8385610431565b6119ec565b60008060008660a001511215610ddb576000610dbd8760a001516107fd8960c001518a604001516112cb90919063ffffffff16565b1215610ddb5760405162461bcd60e51b815260040161016f90614a7e565b600086608001511215610e2b576000610e0d87608001516107fd89606001518a602001516112cb90919063ffffffff16565b1215610e2b5760405162461bcd60e51b815260040161016f90614a5c565b610e36868685611a63565b608088018190526060880151919350600091610e51916112cb565b90508015610ebe576020870151610e6890826112cb565b602088015286516040516001935061ffff909116906001600160a01b038816907f5441e4a5fac93a951d782e6f1cdb82e95c8fc58561a013953d17e395c5e69b4b90610eb5908590614929565b60405180910390a35b60a0870151151580610ed3575060c087015115155b15610f79576000610efd8860c001516107fd8a60a001518b604001516112cb90919063ffffffff16565b9050610f128888610f0d84611b18565b611b2b565b506040880181905260c088015115610f7357876000015161ffff16876001600160a01b03167f412bc13d202a2ea5119e55fec9c5e420dddb18faf186373ad9795ad4f4545aa98a60c00151604051610f6a9190614929565b60405180910390a35b60019250505b8115610fa657610fa686886000015161ffff1689602001518a604001518b60e001518c6101000151611c0c565b86516020880151610fd39161ffff1690151580610fc65750604089015115155b879190600160fe1b611d37565b600087602001511215610ff957602085018051600160f91b176001600160f81b03191690525b5050949350505050565b600080610be76001611f37565b6060015161ffff16151590565b600080808061102c8688611f50565b64ffffffffff81168c52929650909450925090506110498861218f565b1561105357600080fd5b60ff821660408901528461107257600760ff8316111561107257600080fd5b831561109557602088018051600160f81b176001600160f81b03191690526110a4565b602088018051607f60f91b1690525b6110b188608001516121e3565b6001600160701b031916608089015260005b83156110f45760f084901c8181146110e6576110e68a826001600160ff1b611d37565b60109490941b9390506110c3565b505050505050505050565b6000808360400151126111245760405162461bcd60e51b815260040161016f90614956565b60008360600151136111485760405162461bcd60e51b815260040161016f90614a0d565b6000806000611160868b6001600160801b031661225e565b92509250925060008390506000886020015113156111be57808860200151126111995761118c81610431565b60608901525060006111be565b6111a68860200151610431565b606089015260208801516111bb908290612309565b90505b60008113156111e95760006111d587898c85612325565b90506111e182826116d5565b60808a015290505b6000811380156111fd575060008760800151135b1561121a576112178888838d6001600160601b03166124c6565b90505b600081131561126357600061122f85836116d5565b9050600061124f828a61012001516040015161258490919063ffffffff16565b905061125d898583856125af565b95505050505b50909998505050505050505050565b61127a614082565b61128261400a565b61128e818a898b61095f565b6060810186905283156112aa576112a486610431565b60808201525b60a081018590526112bd818a8a86610d88565b509698975050505050505050565b81810182811215600083121514610be757600080fd5b600081158015906112f45750613fff8211155b6112fd57600080fd5b6080830151606084015161ffff1683141561131c576001915050610be7565b6001600160701b03198116156113615760f081901c613fff168381141561134e5750600160fe1b908116149050610be7565b5060101b6001600160801b03191661131c565b5060009392505050565b600080600080600061137b61263c565b6001600160a01b0388166000908152602082815260408083208a8452909152902080546001600160501b0381169650600160501b900463ffffffff16945090915083156113e45780546113dd90600160701b900466ffffffffffffff16612649565b92506113f9565b8054600160701b900466ffffffffffffff1692505b54600160a81b9004600a90810b900b97939650919450925050565b6000806000851361142957826040015161142f565b82606001515b90506000811361143e57600080fd5b61145a81610b036064610afd61145389610431565b8890612657565b95945050505050565b60008061051f8460200151610b038660400151610afd6402540be40088610b9990919063ffffffff16565b611496614175565b60008560200151516000146114aa57600080fd5b6114b26141da565b6114ba614175565b8751515b600019810190156116c7576000896000015182815181106114db57fe5b602002602001015190506114fc818a61012001516000015161ffff16612679565b61150657506116c2565b611517818a6101200151868b6126b5565b60208501526040808501829052820151611532918b916126e9565b60a08501819052818552889161154791612309565b1361158c576115568a83612741565b886101400151611573576060810151611570908590612891565b50505b60a08301518351611583916116d5565b8703965061165f565b60a083015183516000916115b2916115a391612309565b6060840151610b03908b610b99565b90508961014001516115d7576115c88582612891565b60208601526040850152611624565b6115f68560800151610b03838860600151610b9990919063ffffffff16565b84604001818152505061161e8560800151610b03838860400151610b9990919063ffffffff16565b60208501525b6116378a856040015184604001516126e9565b60a08601528452606082015161164d9082612309565b606083015250600160a0820152600096505b60a08301516060840151611672916112cb565b60608401526040830151608084015161168a916112cb565b608084015261012089015151602080830151908501516116b5928d9261ffff90911691600190612940565b866116c057506116c7565b505b6114be565b509793965092945050505050565b80820382811315600083121514610be757600080fd5b6000816000191480156117015750600160ff1b83145b1561170b57600080fd5b81838161171457fe5b059392505050565b60008061172f6064610b03866028610b99565b9050848481131561173d5750835b818612156117485750805b60008413801561175757508381135b1561145a575091949350505050565b61176e6141ab565b6000611778612a45565b6000858152602082815260408083208715158452825291829020825160a08101845281546001600160a01b038116825260ff600160a01b82048116151594830194909452600160b01b81048416600a0a9482019490945293945092916060830191600160a81b9091041660058111156117ed57fe5b81529154600160b81b900468ffffffffffffffffff16602090920191909152949350505050565b61181c6141ab565b61043f826001611766565b60008161183657506000610be7565b600061184184612a52565b9050600061184e84612ae0565b9050816b019d971e4fe8401e74000001600160ff1b038161186b57fe5b0581131561187857600080fd5b6b033b2e3c9fd0803ce80000006b019d971e4fe8401e740000008383020105600085136118ad576118a881610431565b6118af565b805b9695505050505050565b60008080806005876060015160058111156118d057fe5b146118e2576370a0823160e01b6118eb565b630ed1279f60e11b5b9050866020015115611907578651611904903083612b01565b92505b8651611914908787612c13565b866020015180611928575060008760800151115b1561193d57865161193a903083612b01565b91505b60808701511561197857600061195b8861195685612c6b565b612c81565b905061196a8860800151612c6b565b81131561197657600080fd5b505b86602001511561199e5761199461198f8385612cb1565b612c6b565b9350505050610cd9565b61199485612c6b565b5050509392505050565b6040516001600160a01b0383169082156108fc029083906000818181858888f193505050501580156119e7573d6000803e3d6000fd5b505050565b826001600160a01b031663a9059cbb83836040518363ffffffff1660e01b815260040180836001600160a01b0316815260200182815260200192505050600060405180830381600087803b158015611a4357600080fd5b505af1158015611a57573d6000803e3d6000fd5b505050506119e7612d0e565b6000806000611a79866000015161ffff16610bed565b90506000611a94876080015183610ca190919063ffffffff16565b905080611aa9576000809350935050506103b2565b848015611ab65750600081125b15611aeb578651611ad89061ffff1687611acf84610431565b85929190612d7b565b9350611ae48282612c81565b9250611b0e565b8651611aff908390889061ffff1684610ce0565b9350611b0b8285612c81565b92505b5050935093915050565b600080821215611b2757600080fd5b5090565b825160009042908290611b419061ffff16612e16565b90506000611b54828860c0015185612e3c565b9050611b6287838388612f1f565b93506000611b6f8361304c565b90506001600160a01b03811615611bf157806001600160a01b03166375e4480f88611b9d8b60400151611b18565b89896040518563ffffffff1660e01b8152600401611bbe9493929190614903565b600060405180830381600087803b158015611bd857600080fd5b505af1158015611bec573d6000803e3d6000fd5b505050505b8415611c0157611c0187866130be565b505050509392505050565b6000611c1661263c565b6001600160a01b0388166000908152602082815260408083208a845290915290209091506001600160571b03198612801590611c5957506001600160571b038613155b611c6257600080fd5b60008512158015611c7a57506001600160501b038513155b611c8357600080fd5b8315611c8e57600080fd5b66ffffffffffffff831115611ca257600080fd5b805466ffffffffffffff909316600160701b0266ffffffffffffff60701b19600a9790970b6affffffffffffffffffffff16600160a81b026001600160a81b0363ffffffff909616600160501b0263ffffffff60501b196001600160501b0390981669ffffffffffffffffffff1990961695909517969096169390931793909316939093179390931692909217909155505050565b826000108015611d495750613fff8311155b611d5257600080fd5b818015611d66575082846060015161ffff16145b15611d7057611f31565b6080840151600090815b6001600160701b0319821615611eeb5760f082901c613fff168681148015611d9f5750855b15611dd757506080870180516001600160f01b0319861660109093029290921c919091176001600160701b031916905250611f319050565b8681148015611de4575085155b15611e39576001600160f01b03198516199290921691600360fe1b8316611e17576010836001600160701b031916901b92505b506001600160701b031991821660109091021c91909117166080850152611f31565b8681118015611e455750855b15611e9f576080888101516001600160f01b031960f08a901b88178116601086021c9690961795911b1615611e7957600080fd5b506001600160701b03199182166001919091016010021c91909117166080850152611f31565b8681118015611eac575085155b15611eba5750505050611f31565b506001600160f01b0319821660108281029190911c93909317929190911b6001600160801b03191690600101611d7a565b84611ef857505050611f31565b60098110611f0557600080fd5b6001600160f01b031960f087901b85171660109091021c919091176001600160701b0319166080860152505b50505050565b6000620f4240826012811115611f4957fe5b0192915050565b6000808080808080805b895151811015611fe15760008a600001518281518110611f7657fe5b60200260200101519050600380811115611f8c57fe5b8160a001516003811115611f9c57fe5b1415611fa757600080fd5b60028160a001516003811115611fb957fe5b14158015611fc957506060810151155b15611fd857611fd88b83612741565b50600101611f5a565b5060005b8951518110156120845760008a60000151828151811061200157fe5b602002602001015190506002600381111561201857fe5b8160a00151600381111561202857fe5b141561203c5760808101516000905561207b565b60018160a00151600381111561204e57fe5b14156120675760808101518061206483826130dd565b50505b6120738186868661320b565b919650945092505b50600101611fe5565b506060890151600061209461326e565b6001600160a01b038b1660009081526020829052604081209192505b8c602001515181101561215e5760008d6020015182815181106120cf57fe5b602002602001015190508060600151600014156120ec5750612156565b60028160a0015160038111156120fe57fe5b1415801561211c575060038160a00151600381111561211957fe5b14155b61212557600080fd5b6121318189898961320b565b9199509750955061214e8184876010811061214857fe5b016130dd565b600185019450505b6001016120b0565b5060108311158015612175575064ffffffffff8411155b61217e57600080fd5b50939a929950975095509350505050565b60004261219b83611010565b156121bc576121a98161327b565b835164ffffffffff161091506104429050565b825164ffffffffff16158015906121db5750825164ffffffffff168110155b915050610442565b6000807f7fff7fff7fff7fff7fff7fff7fff7fff7fff00000000000000000000000000008316815b6001600160701b031982161561225557600160fe1b828116141561223f576001600160f01b03198216811c92909217916010015b6010826001600160701b031916901b915061220b565b50909392505050565b60008060008061226d8661329c565b809350819250505060006122a98760e00151606001516122a385610b0360648c60c0015160400151610b9990919063ffffffff16565b906116d5565b90506122ba81610b03846064610b99565b9450506122cc8487606001518761171c565b935060006122ec858861012001516040015161258490919063ffffffff16565b90506122fa878483886125af565b909550935050505b9250925092565b600061231583836116d5565b90506000811215610be757600080fd5b600084602001515160001461233957600080fd5b6123416141da565b8551515b600019810190156124bb5760008760000151828151811061236257fe5b60200260200101519050612383818861012001516000015161ffff16612679565b61238d57506124b6565b6000806123a1838a6101200151878b6126b5565b915091508682136123dd576123b68a85612741565b8861014001516123d35760608301516123d0908690612891565b50505b818703965061247e565b60006123fa83610b038a8760600151610b9990919063ffffffff16565b905089610140015161241a576124108682612891565b909350915061245d565b6124398660800151610b03838960600151610b9990919063ffffffff16565b925061245a8660800151610b03838960400151610b9990919063ffffffff16565b91505b606084015161246c9082612309565b606085015250600160a0840152600096505b61012089015151602084015161249f918c9161ffff90911690600185612940565b866124b25760009550505050505061051f565b5050505b612345565b509195945050505050565b60a0830151608084015160009180831a9160039190911a908390612509906124ee9085610b99565b610b0384610afd8c604001518b610b9990919063ffffffff16565b905060008513801561251a57508481135b156125225750835b8760400151811315612535575060408701515b61253e81610431565b8860a00181815250506125786125718960400151610b0385610b0388610afd8e6080015189610b9990919063ffffffff16565b8790612309565b98975050505050505050565b60008061051f8460400151610b036402540be400610b03878960200151610b9990919063ffffffff16565b60008060006125e286610b036125cd8a60c001518b60e001516132f0565b60c08b015151610b0390610afd8b6064610b99565b905060006125fe8289610100015161146390919063ffffffff16565b9050600061260f8960400151610431565b90508082131561262d5761262782610b038884610b99565b95508091505b50939793965092945050505050565b600080610be76006611f37565b600881901c60ff9091161b90565b60008061051f8460200151610b03866000015186610b9990919063ffffffff16565b81516000908214801561269457506126948360400151613315565b8015610cd9575060008360a0015160038111156126ad57fe5b149392505050565b60408401516000908190600019016126d186868360018861332b565b6126db878661339e565b909890975095505050505050565b60008060006127068487610120015161341990919063ffffffff16565b60ff1690506127246064610b0361271d82856116d5565b8890610b99565b92506127366064610b0385601e610b99565b915050935093915050565b815151811061274f57600080fd5b600082606001511161276057600080fd5b60008260000151828151811061277257fe5b602002602001015190506002600381111561278957fe5b8160a00151600381111561279957fe5b141580156127b7575060038160a0015160038111156127b457fe5b14155b6127c057600080fd5b606083018051600019019052600080805b855151811015612833576000866000015182815181106127ed57fe5b6020026020010151905082816080015111801561281a575060028160a00151600381111561281757fe5b14155b1561282a57806080015192508193505b506001016127d1565b508184141561284c575050600260a0919091015261288d565b60008560000151838151811061285e57fe5b602090810291909101015160808581018051918301805190915252600160a09182015260029401939093525050505b5050565b600080826128a457506000905080612939565b600083136128b157600080fd5b6128d08460800151610b03858760600151610b9990919063ffffffff16565b91506128f18460800151610b03858760400151610b9990919063ffffffff16565b60808501519091506129039084612309565b608085015260408401516129179082612309565b6040850152606084015161292b9083612309565b60608501526129398461344e565b9250929050565b845161294f90858585856134a6565b1561295957612a3e565b6040850151156129865760006129768660200151868686866134a6565b905080156129845750612a3e565b505b61298f82613315565b156129a25760008112156129a257600080fd5b6001600160571b031981128015906129c157506001600160571b038113155b6129ca57600080fd5b846020015151856040015114156129ee576129e885602001516135b7565b60208601525b60008560200151866040015181518110612a0457fe5b602090810291909101810151868152908101859052604080820185905260608201849052600060a090920191909152860180516001019052505b5050505050565b600080610be76007611f37565b60405163d15e005360e01b815260009061043f90737d2768de32b0b80b7a3454c06bdac94a69ddc7a99063d15e005390612a9090869060040161488d565b60206040518083038186803b158015612aa857600080fd5b505afa158015612abc573d6000803e3d6000fd5b505050506040513d601f19601f8201168201806040525081019061198f9190614875565b600080821215612afa57612af382610431565b9050610442565b5080610442565b604080516001600160a01b0384811660248084019190915283518084039091018152604490920183526020820180516001600160e01b03166001600160e01b0319861617815292518251600094859485948a16939092909182918083835b60208310612b7e5780518252601f199092019160209182019101612b5f565b6001836020036101000a038019825116818451168082178552505050505050905001915050600060405180830381855afa9150503d8060008114612bde576040519150601f19603f3d011682016040523d82523d6000602084013e612be3565b606091505b509150915081612bf257600080fd5b808060200190516020811015612c0757600080fd5b50519695505050505050565b604080516323b872dd60e01b81526001600160a01b038481166004830152306024830152604482018490529151918516916323b872dd9160648082019260009290919082900301818387803b158015611a4357600080fd5b60006001600160ff1b03821115611b2757600080fd5b60006305f5e10083604001511415612c9a575080610be7565b6040830151610cd990610b03846305f5e100610b99565b600082821115612d08576040805162461bcd60e51b815260206004820152601e60248201527f536166654d6174683a207375627472616374696f6e206f766572666c6f770000604482015290519081900360640190fd5b50900390565b6000612d18614222565b3d8015612d2c5760208114612d3557600080fd5b60019250612d40565b60206000833e815192505b508161288d576040805162461bcd60e51b8152602060048201526005602482015264045524332360dc1b604482015290519081900360640190fd5b600080600286606001516005811115612d9057fe5b1415612da857612da1868585613670565b9050612e05565b6000612db386611814565b9050600587606001516005811115612dc757fe5b1415612ddf57612dd881868661372d565b9150612e03565b600187606001516005811115612df157fe5b141561008857612dd8878287876137dd565b505b6118af612e1182612c6b565b610431565b600080612e216138db565b6000938452602052505060409020546001600160a01b031690565b6000806000612e4b86856138e8565b50915091506000612e5a61397d565b6001600160a01b0388166000908152602082905260408120919250612e7f85896112cb565b905080600013158015612e9857506001600160601b0381105b612ea157600080fd5b81546bffffffffffffffffffffffff19166001600160601b038216176fffffffffffffffffffffffffffffffff60601b1916600160601b6001600160801b0386160217825563ffffffff8710612ef657600080fd5b50805463ffffffff8716600160e01b026001600160e01b03909116179055509150509392505050565b60e084015160009015612fe05773__$b21a4dc043b77aa57922ad9143a3cb040e$__63e0c01a7285612f548860400151611b18565b8860e001518961010001516040518563ffffffff1660e01b8152600401612f7e9493929190614903565b60206040518083038186803b158015612f9657600080fd5b505af4158015612faa573d6000803e3d6000fd5b505050506040513d601f19601f82011682018060405250810190612fce9190614875565b600060e0870181905261010087015290505b61302261301b866101000151613015670de0b6b3a764000061300f886130098c60400151611b18565b9061398a565b906139e3565b90612cb1565b8290613a4a565b905061303a670de0b6b3a764000061300f848661398a565b85610100018181525050949350505050565b600080613057613aa4565b6001600160a01b0384166000908152602082905260409020805491925090600160f81b900460ff16156130b35761308c613ab1565b6001600160a01b038086166000908152602092909252604090912054169250610442915050565b600092505050610442565b61288d73c5e91b01f9b23952821410be7aa3c45b6429c67083836119ec565b8151158015906130f057508151613fff10155b6130f957600080fd5b816020015160001080156131165750602082015164ffffffffff10155b61311f57600080fd5b8160400151600010801561313857506040820151600810155b61314157600080fd5b60608201516001600160571b031913801590613168575060608201516001600160571b0312155b61317157600080fd5b8151815460208401516040850151606090950151600a0b6affffffffffffffffffffff16680100000000000000000272ffffffffffffffffffffff00000000000000001960ff909616600160381b0267ff000000000000001964ffffffffff909316620100000266ffffffffff00001961ffff90961661ffff19909516949094179490941692909217169190911792909216919091179055565b60008060008061321a88613abe565b905084158061322857508085115b15613231578094505b8680613241575060008860600151125b965061ffff86161561325257600080fd5b50509451939560109390931c60f09490941b9390931793509150565b600080610be7600d611f37565b60006201518082101561328d57600080fd5b62015180825b06909103919050565b6000806132cd6132bd6132b28560200151610431565b60e086015190612657565b6101208501516040015190611463565b91506132e98360e00151608001518460c0015160800151613b25565b9050915091565b6000610cd98260200151610b0384600001518660200151610b9990919063ffffffff16565b60006002821080159061043f5750506008101590565b82600111158015613340575084602001518311155b61335c5760405162461bcd60e51b815260040161016f906149c4565b600061337961336a85613b3b565b61337384613bdf565b90613a4a565b90506107de866000015161ffff168284866133938b613bfb565b8a9493929190613c0f565b6000806133ae8460400151613315565b80156133bf57506000846060015112155b6133c857600080fd5b6133eb8360800151610b0386606001518660600151610b9990919063ffffffff16565b91506134108360800151610b0386606001518660400151610b9990919063ffffffff16565b90509250929050565b60006002821080159061342d575060088211155b61343657600080fd5b50606082015160486008600119840102011c92915050565b600061345982613c30565b905060008160000160189054906101000a900463ffffffff16905061349882846040015185606001518660a001518563ffffffff168860e00151613c34565b6119e7828460800151613d48565b6000805b86518110156135aa5760008782815181106134c157fe5b602002602001015190508481604001511415806134df575080518714155b806134ee575085816020015114155b156134f957506135a2565b60028160a00151600381111561350b57fe5b14158015613529575060038160a00151600381111561352657fe5b14155b61353257600080fd5b606081015160009061354490866112cb565b905061354f86613315565b1561356257600081121561356257600080fd5b6001600160571b0319811280159061358157506001600160571b038113155b61358a57600080fd5b6060820152600160a0909101819052915061145a9050565b6001016134aa565b5060009695505050505050565b6060600082516000146135ce5782516002026135d1565b60015b905060008167ffffffffffffffff811180156135ec57600080fd5b5060405190808252806020026020018201604052801561362657816020015b613613614135565b81526020019060019003908161360b5790505b50905060005b84518110156136685784818151811061364157fe5b602002602001015182828151811061365557fe5b602090810291909101015260010161362c565b509392505050565b825160405163db006a7560e01b8152600091479183916001600160a01b03169063db006a75906136a4908790600401614929565b602060405180830381600087803b1580156136be57600080fd5b505af11580156136d2573d6000803e3d6000fd5b505050506040513d601f19601f820116820180604052508101906136f69190614875565b905080156137165760405162461bcd60e51b815260040161016f9061497d565b476137218184612cb1565b93506119a786856119b1565b600061374d613748856000015161374385612c6b565b611827565b611b18565b8451604051631a4ca37b60e21b8152919250737d2768de32b0b80b7a3454c06bdac94a69ddc7a9916369328dec9161378b91859088906004016148e0565b602060405180830381600087803b1580156137a557600080fd5b505af11580156137b9573d6000803e3d6000fd5b505050506040513d601f19601f820116820180604052508101906136689190614875565b825160009081906137f690306370a0823160e01b612b01565b9050600086600001516001600160a01b031663db006a75856040518263ffffffff1660e01b815260040161382a9190614929565b602060405180830381600087803b15801561384457600080fd5b505af1158015613858573d6000803e3d6000fd5b505050506040513d601f19601f8201168201806040525081019061387c9190614875565b9050801561389c5760405162461bcd60e51b815260040161016f9061497d565b85516000906138b390306370a0823160e01b612b01565b90506138bf8184612cb1565b93506138d0876000015187866119ec565b505050949350505050565b600080610be76003611f37565b60008060006138f685613d91565b91945092509050808411801561390c5750600081115b80156139185750600083115b1561230257600061392886613ded565b505050915050600061395361394a6305f5e1008461398a90919063ffffffff16565b84880387613e56565b905061395f8482613a4a565b93506001600160801b03841061397457600080fd5b50509250925092565b600080610be76011611f37565b60008261399957506000610be7565b828202828482816139a657fe5b0414610cd95760405162461bcd60e51b8152600401808060200182810382526021815260200180614b3d6021913960400191505060405180910390fd5b6000808211613a39576040805162461bcd60e51b815260206004820152601a60248201527f536166654d6174683a206469766973696f6e206279207a65726f000000000000604482015290519081900360640190fd5b818381613a4257fe5b049392505050565b600082820183811015610cd9576040805162461bcd60e51b815260206004820152601b60248201527f536166654d6174683a206164646974696f6e206f766572666c6f770000000000604482015290519081900360640190fd5b600080610be76002611f37565b600080610be76012611f37565b6000808260400151118015613ad857506040820151600810155b613ae157600080fd5b6040820151600210613af857506020810151610442565b6000613b0a6001846040015103613b3b565b6020840151909150610cd9906276a700906133739084612cb1565b6000818313613b345781610cd9565b5090919050565b60008160011415613b5057506276a700610442565b8160021415613b63575062ed4e00610442565b8160031415613b7757506301da9c00610442565b8160041415613b8b57506303b53800610442565b8160051415613b9f57506309450c00610442565b8160061415613bb3575063128a1800610442565b8160071415613bc757506325143000610442565b60405162461bcd60e51b815260040161016f9061499d565b60006276a700821015613bf157600080fd5b6276a70082613293565b6060015161012c60089190911c60ff160290565b60006276a700613c1e85613bdf565b01905061073c87878787878787613e78565b5190565b60008512158015613c4c57506001600160501b038513155b613c5557600080fd5b60008412158015613c6d57506001600160501b038413155b613c7657600080fd5b826000108015613c8a575063ffffffff8311155b613c9357600080fd5b816000108015613ca7575063ffffffff8211155b613cb057600080fd5b63ffffffff811115613cc157600080fd5b855469ffffffffffffffffffff19166001600160501b039586161769ffffffffffffffffffff60501b1916600160501b94909516939093029390931763ffffffff60a01b1916600160a01b63ffffffff928316021763ffffffff60c01b1916600160c01b93821693909302929092176001600160e01b0316600160e01b9190921602179055565b60008112158015613d6057506001600160501b038113155b613d6957600080fd5b600191909101805469ffffffffffffffffffff19166001600160501b03909216919091179055565b600080600080613d9f61397d565b6001600160a01b0395909516600090815260209590955250506040909220546001600160601b03811693600160601b82046001600160801b03169350600160e01b90910463ffffffff169150565b600080600080600080613dfe613aa4565b6001600160a01b039097166000908152602097909752505060409094205461ffff81169563ffffffff62010000830481169650600160301b830416945060ff600160501b8304169350600160581b90910460d81b9150565b600061051f8261300f6301da9c00818861300989670de0b6b3a764000061398a565b613e858787878685613eaf565b613e9e8760e001518860a001518960c001518588613f6a565b60c090970196909652505050505050565b6000613eb9613ffd565b6000868152602082815260408083208884528252808320868452825291829020808a5290890187905280546001600160501b03808216938b0193909352600160501b810490921660608a015263ffffffff600160a01b8304811660a08b0152600160c01b8304811660c08b0152600160e01b90920490911660e0890152909150808415613f585760018201546001600160501b03166080890152613f60565b600060808901525b5050505050505050565b6000808311613f7857600080fd5b81861115613f8757508361145a565b6000613f938388612cb1565b905083811115613fa6578591505061145a565b6000613fba8561300f84633b9aca0061398a565b90506000613fcc633b9aca0083612cb1565b90506000613fef633b9aca0061300f613fe58b8661398a565b6133738d8861398a565b9a9950505050505050505050565b600080610be7600a611f37565b604051806101200160405280600061ffff16815260200160008152602001600081526020016000815260200160008152602001600081526020016000815260200160008152602001600081525090565b6040518060800160405280606081526020016060815260200160008152602001600081525090565b6040805160a08101825260008082526020820181905291810182905260608101829052608081019190915290565b60405180610160016040528060006001600160a01b031681526020016000815260200160008152602001600081526020016000815260200160006001600160d01b0319168152602001614101614240565b815260200161410e614240565b815260200161411b61426f565b8152602001614128614299565b8152600060209091015290565b6040518060c0016040528060008152602001600081526020016000815260200160008152602001600081526020016000600381111561417057fe5b905290565b6040518060c001604052806000815260200160008152602001600081526020016000815260200160008152602001600081525090565b6040805160a0810182526000808252602082018190529181018290529060608201908152602001600081525090565b60405180610100016040528060008019168152602001600081526020016000815260200160008152602001600081526020016000815260200160008152602001600081525090565b60405180602001604052806001906020820280368337509192915050565b6040518060a0016040528060008152602001600081526020016000815260200160008152602001600081525090565b604051806060016040528060006001600160a01b0316815260200160008152602001600081525090565b604080516080810182526000808252602082015290810161412861426f565b805161044281614b06565b600082601f8301126142d3578081fd5b8151602067ffffffffffffffff808311156142ea57fe5b6142f78283850201614ae2565b8381528281019086840160c0808702890186018a1015614315578788fd5b875b878110156143965781838c03121561432d578889fd5b60408051838101818110898211171561434257fe5b82528451815288850151898201528482015191810191909152606080850151908201526080808501519082015260a09061437d8286016143f8565b9181019190915285529386019391810191600101614317565b50919998505050505050505050565b805161044281614b1e565b80516001600160701b03198116811461044257600080fd5b80516001600160f81b03198116811461044257600080fd5b80516001600160d01b03198116811461044257600080fd5b80516004811061044257600080fd5b600060608284031215614418578081fd5b6040516060810181811067ffffffffffffffff8211171561443557fe5b8060405250809150825161444881614b06565b8082525060208301516020820152604083015160408201525092915050565b600060c08284031215614478578081fd5b6040516080810181811067ffffffffffffffff8211171561449557fe5b806040525080915082516144a881614b2c565b8152602083810151908201526144c18460408501614407565b604082015260a083015160608201525092915050565b600060a082840312156144e8578081fd5b60405160a0810181811067ffffffffffffffff8211171561450557fe5b806040525080915082518152602083015160208201526040830151604082015260608301516060820152608083015160808201525092915050565b60006103408284031215614552578081fd5b61016061455e81614ae2565b9150614569836142b8565b82526020830151602083015260408301516040830152606083015160608301526080830151608083015261459f60a084016143e0565b60a08301526145b18460c085016144d7565b60c08301526145c2848285016144d7565b60e0830152506145d6836102008401614407565b6101008201526145ea836102608401614467565b6101208201526145fd61032083016143a5565b61014082015292915050565b80356001600160801b038116811461044257600080fd5b805161044281614b2c565b805160ff8116811461044257600080fd5b80356001600160601b038116811461044257600080fd5b600080600080600060a0868803121561466a578081fd5b853561467581614b06565b9450602086013561468581614b2c565b9350604086013561469581614b2c565b92506146a360608701614609565b91506146b16080870161463c565b90509295509295909350565b600080600080600080600060e0888a0312156146d7578485fd5b87356146e281614b06565b965060208801356146f281614b2c565b9550604088013561470281614b2c565b945061471060608901614609565b935061471e6080890161463c565b925060a088013561472e81614b1e565b915060c088013561473e81614b1e565b8091505092959891949750929550565b600080600060608486031215614762578081fd5b833561476d81614b06565b9250602084013561477d81614b2c565b915061478b6040850161463c565b90509250925092565b60008060008385036104008112156147aa578182fd5b60a08112156147b7578182fd5b5060405160a0810167ffffffffffffffff82821081831117156147d657fe5b816040528651915064ffffffffff821682146147f0578384fd5b8183526147ff602088016143c8565b60208401526148106040880161462b565b604084015261482160608801614620565b6060840152614832608088016143b0565b60808401528295506148478860a08901614540565b94506103e087015192508083111561485d578384fd5b505061486b868287016142c3565b9150509250925092565b600060208284031215614886578081fd5b5051919050565b6001600160a01b0391909116815260200190565b6001600160a01b0392831681529116602082015260400190565b6001600160a01b0393909316835261ffff918216602084015216604082015260600190565b6001600160a01b0393841681526020810192909252909116604082015260600190565b6001600160a01b0394909416845260208401929092526040830152606082015260800190565b90815260200190565b918252602082015260400190565b9283526020830191909152604082015260600190565b6020808252600d908201526c139bc81b1bd8d85b081919589d609a1b604082015260600190565b60208082526006908201526552656465656d60d01b604082015260600190565b6020808252600d908201526c092dcecc2d8d2c840d2dcc8caf609b1b604082015260600190565b6020808252600e908201526d125b9d985b1a59081b585c9ad95d60921b604082015260600190565b60208082526007908201526609cde40c6c2e6d60cb1b604082015260600190565b6020808252600d908201526c139bc818dbdb1b185d195c985b609a1b604082015260600190565b6020808252600e908201526d1499595b9d1c985b9d0818d85b1b60921b604082015260600190565b60208082526008908201526709ccace4086c2e6d60c31b604082015260600190565b6020808252600a90820152692732b390372a37b5b2b760b11b604082015260600190565b61ffff929092168252602082015260400190565b61ffff958616815293909416602084015260408301919091526060820152608081019190915260a00190565b60405181810167ffffffffffffffff81118282101715614afe57fe5b604052919050565b6001600160a01b0381168114614b1b57600080fd5b50565b8015158114614b1b57600080fd5b61ffff81168114614b1b57600080fdfe536166654d6174683a206d756c7469706c69636174696f6e206f766572666c6f77a264697066735822122084bda1b44a30176be3b7444b79b95f42f3cf5a3eab192360a73fc26ed957923364736f6c63430007060033","language":"Solidity","natspec":{"methods":{"calculateCollateralCurrencyLiquidation(address,uint16,uint16,uint128,uint96)":{"notice":"Calculates local and collateral currency transfers for a liquidation. This is a stateful method because it may settle the liquidated account if required. However, it can be called using staticcall off chain to determine the net currency amounts required before liquidating.","params":{"collateralCurrency":"id of the collateral currency","liquidateAccount":"account to liquidate","localCurrency":"id of the local currency","maxCollateralLiquidation":"maximum amount of collateral (inclusive of cash and nTokens) to liquidate","maxNTokenLiquidation":"maximum amount of nTokens to purchase (if any)"},"returns":{"_0":"local currency required from liquidator (negative)","_1":"collateral asset cash paid to liquidator (positive)","_2":"collateral nTokens paid to liquidator (positive)"}},"calculateLocalCurrencyLiquidation(address,uint16,uint96)":{"notice":"Calculates the net local currency required by the liquidator. This is a stateful method because it may settle the liquidated account if required. However, it can be called using staticcall off chain to determine the net local currency required before liquidating.","params":{"liquidateAccount":"account to liquidate","localCurrency":"id of the local currency","maxNTokenLiquidation":"maximum amount of nTokens to purchase (if any)"},"returns":{"_0":"local currency required from liquidator (positive or negative)","_1":"local nTokens paid to liquidator (positive)"}},"liquidateCollateralCurrency(address,uint16,uint16,uint128,uint96,bool,bool)":{"notice":"Liquidates an account between local and collateral currency","params":{"collateralCurrency":"id of the collateral currency","liquidateAccount":"account to liquidate","localCurrency":"id of the local currency","maxCollateralLiquidation":"maximum amount of collateral (inclusive of cash and nTokens) to liquidate","maxNTokenLiquidation":"maximum amount of nTokens to purchase (if any)","redeemToUnderlying":"if true, converts collateral cash from asset cash to underlying","withdrawCollateral":"if true, withdraws collateral cash back to msg.sender"},"returns":{"_0":"local currency required from liquidator (negative)","_1":"collateral asset cash paid to liquidator (positive)","_2":"collateral nTokens paid to liquidator (positive)"}},"liquidateLocalCurrency(address,uint16,uint96)":{"notice":"Liquidates an account using local currency only","params":{"liquidateAccount":"account to liquidate","localCurrency":"id of the local currency","maxNTokenLiquidation":"maximum amount of nTokens to purchase (if any)"},"returns":{"_0":"local currency required from liquidator (positive or negative)","_1":"local nTokens paid to liquidator (positive)"}},"getLibInfo()":{"notice":"Get a list of deployed library addresses (sorted by library name)"}},"kind":"dev","version":1},"opcodes":"PUSH1 0x80 PUSH1 0x40 MSTORE CALLVALUE DUP1 ISZERO PUSH2 0x10 JUMPI PUSH1 0x0 DUP1 REVERT JUMPDEST POP PUSH1 0x4 CALLDATASIZE LT PUSH2 0x88 JUMPI PUSH1 0x0 CALLDATALOAD PUSH1 0xE0 SHR DUP1 PUSH4 0x8DA5CB5B GT PUSH2 0x5B JUMPI DUP1 PUSH4 0x8DA5CB5B EQ PUSH2 0xF6 JUMPI DUP1 PUSH4 0x9A600EEB EQ PUSH2 0xFE JUMPI DUP1 PUSH4 0xC4C96DAE EQ PUSH2 0x111 JUMPI DUP1 PUSH4 0xE3E7CB4F EQ PUSH2 0x127 JUMPI PUSH2 0x88 JUMP JUMPDEST DUP1 PUSH4 0x24A3D622 EQ PUSH2 0x8D JUMPI DUP1 PUSH4 0x2D10E6EB EQ PUSH2 0xAB JUMPI DUP1 PUSH4 0x6633AF39 EQ PUSH2 0xCC JUMPI DUP1 PUSH4 0x82463367 EQ PUSH2 0xEE JUMPI JUMPDEST PUSH1 0x0 DUP1 REVERT JUMPDEST PUSH2 0x95 PUSH2 0x13A JUMP JUMPDEST PUSH1 0x40 MLOAD PUSH2 0xA2 SWAP2 SWAP1 PUSH2 0x488D JUMP JUMPDEST PUSH1 0x40 MLOAD DUP1 SWAP2 SUB SWAP1 RETURN JUMPDEST PUSH2 0xBE PUSH2 0xB9 CALLDATASIZE PUSH1 0x4 PUSH2 0x474E JUMP JUMPDEST PUSH2 0x149 JUMP JUMPDEST PUSH1 0x40 MLOAD PUSH2 0xA2 SWAP3 SWAP2 SWAP1 PUSH2 0x4932 JUMP JUMPDEST PUSH2 0xDF PUSH2 0xDA CALLDATASIZE PUSH1 0x4 PUSH2 0x46BD JUMP JUMPDEST PUSH2 0x239 JUMP JUMPDEST PUSH1 0x40 MLOAD PUSH2 0xA2 SWAP4 SWAP3 SWAP2 SWAP1 PUSH2 0x4940 JUMP JUMPDEST PUSH2 0x95 PUSH2 0x2E9 JUMP JUMPDEST PUSH2 0x95 PUSH2 0x2F8 JUMP JUMPDEST PUSH2 0xDF PUSH2 0x10C CALLDATASIZE PUSH1 0x4 PUSH2 0x4653 JUMP JUMPDEST PUSH2 0x30F JUMP JUMPDEST PUSH2 0x119 PUSH2 0x356 JUMP JUMPDEST PUSH1 0x40 MLOAD PUSH2 0xA2 SWAP3 SWAP2 SWAP1 PUSH2 0x48A1 JUMP JUMPDEST PUSH2 0xBE PUSH2 0x135 CALLDATASIZE PUSH1 0x4 PUSH2 0x474E JUMP JUMPDEST PUSH2 0x384 JUMP JUMPDEST PUSH1 0x2 SLOAD PUSH1 0x1 PUSH1 0x1 PUSH1 0xA0 SHL SUB AND DUP2 JUMP JUMPDEST PUSH1 0x0 DUP1 PUSH1 0x2 PUSH1 0xA SLOAD EQ ISZERO PUSH2 0x178 JUMPI PUSH1 0x40 MLOAD PUSH3 0x461BCD PUSH1 0xE5 SHL DUP2 MSTORE PUSH1 0x4 ADD PUSH2 0x16F SWAP1 PUSH2 0x4A34 JUMP JUMPDEST PUSH1 0x40 MLOAD DUP1 SWAP2 SUB SWAP1 REVERT JUMPDEST PUSH1 0x2 PUSH1 0xA SSTORE PUSH1 0x0 DUP1 DUP1 DUP1 PUSH2 0x18E DUP10 DUP10 DUP10 DUP5 PUSH2 0x3BA JUMP JUMPDEST SWAP4 POP SWAP4 POP SWAP4 POP SWAP4 POP PUSH1 0x0 PUSH2 0x1B0 CALLER DUP11 DUP8 PUSH2 0x1AB DUP9 PUSH1 0xA0 ADD MLOAD PUSH2 0x431 JUMP JUMPDEST PUSH2 0x447 JUMP JUMPDEST SWAP1 POP PUSH2 0x1BC DUP2 CALLER PUSH2 0x527 JUMP JUMPDEST PUSH2 0x1C8 DUP11 DUP6 DUP5 DUP7 PUSH2 0x62B JUMP JUMPDEST CALLER PUSH1 0x1 PUSH1 0x1 PUSH1 0xA0 SHL SUB AND DUP11 PUSH1 0x1 PUSH1 0x1 PUSH1 0xA0 SHL SUB AND PUSH32 0x4596C3B6545E97EB42B719442DD0AFA8EB7680F3FF72C762763D4B292EE26EA7 DUP12 DUP9 PUSH1 0x40 MLOAD PUSH2 0x20D SWAP3 SWAP2 SWAP1 PUSH2 0x4AA2 JUMP JUMPDEST PUSH1 0x40 MLOAD DUP1 SWAP2 SUB SWAP1 LOG3 DUP5 PUSH2 0x223 DUP6 PUSH1 0xA0 ADD MLOAD PUSH2 0x431 JUMP JUMPDEST PUSH1 0x1 PUSH1 0xA SSTORE SWAP1 SWAP12 SWAP1 SWAP11 POP SWAP9 POP POP POP POP POP POP POP POP POP JUMP JUMPDEST PUSH1 0x0 DUP1 PUSH1 0x0 PUSH1 0x2 PUSH1 0xA SLOAD EQ ISZERO PUSH2 0x261 JUMPI PUSH1 0x40 MLOAD PUSH3 0x461BCD PUSH1 0xE5 SHL DUP2 MSTORE PUSH1 0x4 ADD PUSH2 0x16F SWAP1 PUSH2 0x4A34 JUMP JUMPDEST PUSH1 0x2 PUSH1 0xA SSTORE PUSH1 0x0 DUP1 DUP1 DUP1 PUSH2 0x279 DUP15 DUP15 DUP15 DUP15 DUP15 DUP7 PUSH2 0x67A JUMP JUMPDEST SWAP4 POP SWAP4 POP SWAP4 POP SWAP4 POP PUSH2 0x28F DUP14 DUP14 DUP7 DUP7 DUP14 DUP14 PUSH2 0x6FD JUMP JUMPDEST PUSH2 0x29B DUP15 DUP15 DUP7 DUP7 PUSH2 0x745 JUMP JUMPDEST PUSH2 0x2A7 DUP15 DUP15 DUP4 DUP8 PUSH2 0x7B6 JUMP JUMPDEST PUSH2 0x2B3 DUP15 DUP5 DUP4 DUP6 PUSH2 0x62B JUMP JUMPDEST DUP4 PUSH2 0x2BD DUP5 PUSH2 0x7E6 JUMP JUMPDEST PUSH2 0x2CA DUP6 PUSH1 0xA0 ADD MLOAD PUSH2 0x431 JUMP JUMPDEST SWAP7 POP SWAP7 POP SWAP7 POP POP POP POP POP PUSH1 0x1 PUSH1 0xA DUP2 SWAP1 SSTORE POP SWAP8 POP SWAP8 POP SWAP8 SWAP5 POP POP POP POP POP JUMP JUMPDEST PUSH1 0x1 SLOAD PUSH1 0x1 PUSH1 0x1 PUSH1 0xA0 SHL SUB AND DUP2 JUMP JUMPDEST PUSH1 0x0 SLOAD PUSH5 0x100000000 SWAP1 DIV PUSH1 0x1 PUSH1 0x1 PUSH1 0xA0 SHL SUB AND DUP2 JUMP JUMPDEST PUSH1 0x0 DUP1 PUSH1 0x0 DUP1 PUSH1 0x0 PUSH2 0x326 DUP11 DUP11 DUP11 DUP11 DUP11 PUSH1 0x1 PUSH2 0x67A JUMP JUMPDEST POP POP SWAP2 POP SWAP2 POP DUP2 PUSH2 0x336 DUP3 PUSH2 0x7E6 JUMP JUMPDEST PUSH2 0x343 DUP4 PUSH1 0xA0 ADD MLOAD PUSH2 0x431 JUMP JUMPDEST SWAP5 POP SWAP5 POP SWAP5 POP POP POP SWAP6 POP SWAP6 POP SWAP6 SWAP3 POP POP POP JUMP JUMPDEST PUSH20 0x0 PUSH20 0x0 SWAP1 SWAP2 JUMP JUMPDEST PUSH1 0x0 DUP1 PUSH1 0x0 DUP1 PUSH2 0x397 DUP8 DUP8 DUP8 PUSH1 0x1 PUSH2 0x3BA JUMP JUMPDEST POP POP SWAP2 POP SWAP2 POP DUP2 PUSH2 0x3AB DUP3 PUSH1 0xA0 ADD MLOAD PUSH2 0x431 JUMP JUMPDEST SWAP4 POP SWAP4 POP POP POP JUMPDEST SWAP4 POP SWAP4 SWAP2 POP POP JUMP JUMPDEST PUSH1 0x0 PUSH2 0x3C4 PUSH2 0x400A JUMP JUMPDEST PUSH2 0x3CC PUSH2 0x405A JUMP JUMPDEST PUSH2 0x3D4 PUSH2 0x4082 JUMP JUMPDEST PUSH1 0x0 DUP1 PUSH1 0x0 PUSH2 0x3E5 DUP12 DUP12 PUSH1 0x0 PUSH2 0x803 JUMP JUMPDEST SWAP3 POP SWAP3 POP SWAP3 POP PUSH2 0x3F3 PUSH2 0x400A JUMP JUMPDEST PUSH2 0x3FF DUP2 DUP14 DUP14 DUP8 PUSH2 0x95F JUMP JUMPDEST DUP9 ISZERO ISZERO PUSH2 0x140 DUP5 ADD MSTORE PUSH1 0x0 PUSH2 0x41C PUSH2 0xFFFF DUP14 AND DUP13 TIMESTAMP DUP6 DUP9 DUP9 PUSH2 0xA05 JUMP JUMPDEST SWAP14 SWAP2 SWAP13 POP SWAP2 SWAP11 POP SWAP3 SWAP9 POP SWAP2 SWAP7 POP POP POP POP POP POP POP JUMP JUMPDEST PUSH1 0x0 PUSH2 0x43F PUSH1 0x0 NOT DUP4 PUSH2 0xB99 JUMP JUMPDEST SWAP1 POP JUMPDEST SWAP2 SWAP1 POP JUMP JUMPDEST PUSH2 0x44F PUSH2 0x4082 JUMP JUMPDEST PUSH1 0x0 PUSH2 0x45E DUP6 PUSH2 0xFFFF AND PUSH2 0xBED JUMP JUMPDEST SWAP1 POP PUSH1 0x0 PUSH2 0x46B DUP8 PUSH2 0xC00 JUMP JUMPDEST SWAP1 POP PUSH2 0x475 PUSH2 0x400A JUMP JUMPDEST PUSH2 0x481 DUP2 DUP10 DUP10 DUP6 PUSH2 0x95F JUMP JUMPDEST DUP3 PUSH1 0x20 ADD MLOAD DUP1 ISZERO PUSH2 0x492 JUMPI POP PUSH1 0x0 DUP7 SGT JUMPDEST ISZERO PUSH2 0x4E6 JUMPI DUP6 DUP2 PUSH1 0x20 ADD MLOAD SLT ISZERO DUP1 ISZERO PUSH2 0x4B7 JUMPI POP PUSH1 0x20 DUP3 ADD MLOAD PUSH1 0x1 PUSH1 0x1 PUSH1 0xF8 SHL SUB NOT AND ISZERO JUMPDEST PUSH2 0x4D3 JUMPI PUSH1 0x40 MLOAD PUSH3 0x461BCD PUSH1 0xE5 SHL DUP2 MSTORE PUSH1 0x4 ADD PUSH2 0x16F SWAP1 PUSH2 0x49EC JUMP JUMPDEST PUSH2 0x4DC DUP7 PUSH2 0x431 JUMP JUMPDEST PUSH1 0x60 DUP3 ADD MSTORE PUSH2 0x504 JUMP JUMPDEST PUSH2 0x502 DUP9 PUSH2 0xFFFF DUP10 AND PUSH2 0x4F9 DUP7 DUP11 PUSH2 0xCA1 JUMP JUMPDEST DUP7 SWAP3 SWAP2 SWAP1 PUSH2 0xCE0 JUMP JUMPDEST POP JUMPDEST PUSH1 0xA0 DUP2 ADD DUP6 SWAP1 MSTORE PUSH2 0x518 DUP2 DUP10 DUP5 PUSH1 0x0 PUSH2 0xD88 JUMP JUMPDEST POP SWAP1 SWAP3 POP POP POP JUMPDEST SWAP5 SWAP4 POP POP POP POP JUMP JUMPDEST PUSH1 0x0 PUSH2 0x531 PUSH2 0x1003 JUMP JUMPDEST PUSH1 0x1 PUSH1 0x1 PUSH1 0xA0 SHL SUB DUP4 AND PUSH1 0x0 DUP2 DUP2 MSTORE PUSH1 0x20 DUP4 DUP2 MSTORE PUSH1 0x40 DUP1 DUP4 KECCAK256 DUP9 MLOAD DUP2 SLOAD SWAP4 DUP11 ADD MLOAD DUP4 DUP12 ADD MLOAD PUSH1 0x60 DUP13 ADD MLOAD PUSH1 0x80 DUP14 ADD MLOAD PUSH1 0x70 SHR PUSH1 0x1 PUSH1 0x48 SHL MUL PUSH27 0xFFFFFFFFFFFFFFFFFFFFFFFFFFFFFFFFFFFF000000000000000000 NOT PUSH2 0xFFFF SWAP1 SWAP3 AND PUSH1 0x1 PUSH1 0x38 SHL MUL PUSH9 0xFFFF00000000000000 NOT PUSH1 0xFF SWAP5 SWAP1 SWAP5 AND PUSH1 0x1 PUSH1 0x30 SHL MUL PUSH7 0xFF000000000000 NOT PUSH1 0xF8 SWAP7 SWAP1 SWAP7 SHR PUSH6 0x10000000000 MUL PUSH6 0xFF0000000000 NOT PUSH5 0xFFFFFFFFFF SWAP1 SWAP9 AND PUSH5 0xFFFFFFFFFF NOT SWAP1 SWAP12 AND SWAP11 SWAP1 SWAP11 OR SWAP7 SWAP1 SWAP7 AND SWAP9 SWAP1 SWAP9 OR SWAP4 SWAP1 SWAP4 AND SWAP4 SWAP1 SWAP4 OR AND SWAP5 SWAP1 SWAP5 OR AND SWAP3 SWAP1 SWAP3 OR SWAP1 SWAP2 SSTORE MLOAD SWAP3 SWAP4 POP SWAP1 SWAP2 PUSH32 0x6BD4B121BCA854A191536A2CA891155C42EE2FB23F307FB34E8BC65CFCB5412E SWAP2 SWAP1 LOG2 POP POP POP JUMP JUMPDEST PUSH1 0x80 DUP4 ADD DUP1 MLOAD PUSH1 0x0 SWAP2 DUP3 SWAP1 MSTORE SWAP1 PUSH2 0x647 SWAP1 DUP6 SWAP1 DUP8 SWAP1 DUP7 SWAP1 PUSH2 0xD88 JUMP JUMPDEST POP PUSH2 0x651 DUP4 PUSH2 0x1010 JUMP JUMPDEST PUSH2 0x662 JUMPI PUSH2 0x662 DUP4 DUP7 DUP5 PUSH1 0x1 PUSH2 0x101D JUMP JUMPDEST PUSH2 0x66C DUP4 DUP7 PUSH2 0x527 JUMP JUMPDEST PUSH1 0x80 SWAP1 SWAP4 ADD SWAP3 SWAP1 SWAP3 MSTORE POP POP POP JUMP JUMPDEST PUSH1 0x0 PUSH2 0x684 PUSH2 0x400A JUMP JUMPDEST PUSH2 0x68C PUSH2 0x405A JUMP JUMPDEST PUSH2 0x694 PUSH2 0x4082 JUMP JUMPDEST TIMESTAMP PUSH1 0x0 DUP1 DUP1 PUSH2 0x6A4 DUP15 DUP15 DUP15 PUSH2 0x803 JUMP JUMPDEST SWAP3 POP SWAP3 POP SWAP3 POP PUSH2 0x6B2 PUSH2 0x400A JUMP JUMPDEST PUSH2 0x6C9 DUP16 DUP15 DUP7 DUP5 PUSH2 0x95F SWAP1 SWAP4 SWAP3 SWAP2 SWAP1 PUSH4 0xFFFFFFFF AND JUMP JUMPDEST DUP10 ISZERO ISZERO PUSH2 0x140 DUP5 ADD MSTORE PUSH1 0x0 PUSH2 0x6E2 DUP14 DUP14 DUP9 DUP6 DUP9 DUP9 PUSH2 0x10FF JUMP JUMPDEST SWAP10 POP SWAP1 SWAP8 POP SWAP1 SWAP6 POP SWAP2 SWAP4 POP POP POP POP SWAP7 POP SWAP7 POP SWAP7 POP SWAP7 SWAP3 POP POP POP JUMP JUMPDEST PUSH1 0x0 PUSH2 0x70C CALLER DUP9 DUP8 PUSH1 0x0 PUSH2 0x447 JUMP JUMPDEST SWAP1 POP PUSH2 0x731 CALLER DUP3 DUP9 PUSH2 0x71D DUP9 PUSH2 0x7E6 JUMP JUMPDEST PUSH2 0x72A DUP10 PUSH1 0xA0 ADD MLOAD PUSH2 0x431 JUMP JUMPDEST DUP9 DUP9 PUSH2 0x1272 JUMP JUMPDEST POP PUSH2 0x73C DUP2 CALLER PUSH2 0x527 JUMP JUMPDEST POP POP POP POP POP POP POP JUMP JUMPDEST CALLER PUSH1 0x1 PUSH1 0x1 PUSH1 0xA0 SHL SUB AND DUP5 PUSH1 0x1 PUSH1 0x1 PUSH1 0xA0 SHL SUB AND PUSH32 0x88FFF2F00941B1272999212DE454EE8D15F54D132723B35E3423EF742109861C DUP6 DUP5 PUSH1 0x0 ADD MLOAD DUP7 PUSH2 0x78A DUP8 PUSH2 0x7E6 JUMP JUMPDEST PUSH2 0x797 DUP9 PUSH1 0xA0 ADD MLOAD PUSH2 0x431 JUMP JUMPDEST PUSH1 0x40 MLOAD PUSH2 0x7A8 SWAP6 SWAP5 SWAP4 SWAP3 SWAP2 SWAP1 PUSH2 0x4AB6 JUMP JUMPDEST PUSH1 0x40 MLOAD DUP1 SWAP2 SUB SWAP1 LOG3 POP POP POP POP JUMP JUMPDEST PUSH2 0x7BE PUSH2 0x400A JUMP JUMPDEST PUSH2 0x7CA DUP2 DUP7 DUP7 DUP7 PUSH2 0x95F JUMP JUMPDEST PUSH1 0x60 DUP2 ADD DUP3 SWAP1 MSTORE PUSH2 0x7DE DUP2 DUP7 DUP6 PUSH1 0x0 PUSH2 0xD88 JUMP JUMPDEST POP POP POP POP POP POP JUMP JUMPDEST PUSH1 0x0 PUSH2 0x43F DUP3 PUSH1 0x80 ADD MLOAD PUSH2 0x7FD DUP5 PUSH1 0x60 ADD MLOAD PUSH2 0x431 JUMP JUMPDEST SWAP1 PUSH2 0x12CB JUMP JUMPDEST PUSH2 0x80B PUSH2 0x4082 JUMP JUMPDEST PUSH2 0x813 PUSH2 0x40B0 JUMP JUMPDEST PUSH2 0x81B PUSH2 0x405A JUMP JUMPDEST CALLER PUSH1 0x1 PUSH1 0x1 PUSH1 0xA0 SHL SUB DUP8 AND EQ ISZERO PUSH2 0x831 JUMPI PUSH1 0x0 DUP1 REVERT JUMPDEST PUSH2 0xFFFF DUP6 AND PUSH2 0x83F JUMPI PUSH1 0x0 DUP1 REVERT JUMPDEST DUP5 PUSH2 0xFFFF AND DUP5 PUSH2 0xFFFF AND EQ ISZERO PUSH2 0x854 JUMPI PUSH1 0x0 DUP1 REVERT JUMPDEST PUSH1 0x0 DUP1 PUSH1 0x0 PUSH20 0x0 PUSH4 0x451D958F DUP11 DUP11 DUP11 PUSH1 0x40 MLOAD DUP5 PUSH4 0xFFFFFFFF AND PUSH1 0xE0 SHL DUP2 MSTORE PUSH1 0x4 ADD PUSH2 0x894 SWAP4 SWAP3 SWAP2 SWAP1 PUSH2 0x48BB JUMP JUMPDEST PUSH1 0x0 PUSH1 0x40 MLOAD DUP1 DUP4 SUB DUP2 DUP7 DUP1 EXTCODESIZE ISZERO DUP1 ISZERO PUSH2 0x8AC JUMPI PUSH1 0x0 DUP1 REVERT JUMPDEST POP GAS DELEGATECALL ISZERO DUP1 ISZERO PUSH2 0x8C0 JUMPI RETURNDATASIZE PUSH1 0x0 DUP1 RETURNDATACOPY RETURNDATASIZE PUSH1 0x0 REVERT JUMPDEST POP POP POP POP PUSH1 0x40 MLOAD RETURNDATASIZE PUSH1 0x0 DUP3 RETURNDATACOPY PUSH1 0x1F RETURNDATASIZE SWAP1 DUP2 ADD PUSH1 0x1F NOT AND DUP3 ADD PUSH1 0x40 MSTORE PUSH2 0x8E8 SWAP2 SWAP1 DUP2 ADD SWAP1 PUSH2 0x4794 JUMP JUMPDEST SWAP2 SWAP5 POP SWAP3 POP SWAP1 POP PUSH2 0x8F9 DUP4 DUP11 PUSH2 0x527 JUMP JUMPDEST PUSH1 0x40 DUP1 MLOAD PUSH1 0x80 DUP2 ADD DUP3 MSTORE DUP3 DUP2 MSTORE DUP2 MLOAD PUSH1 0x0 DUP1 DUP3 MSTORE PUSH1 0x20 DUP3 DUP2 ADD SWAP1 SWAP5 MSTORE SWAP3 DUP3 ADD SWAP1 DUP4 PUSH2 0x93A JUMP JUMPDEST PUSH2 0x927 PUSH2 0x4135 JUMP JUMPDEST DUP2 MSTORE PUSH1 0x20 ADD SWAP1 PUSH1 0x1 SWAP1 SUB SWAP1 DUP2 PUSH2 0x91F JUMPI SWAP1 POP JUMPDEST POP DUP2 MSTORE PUSH1 0x0 PUSH1 0x20 DUP3 ADD MSTORE SWAP3 MLOAD PUSH1 0x40 SWAP1 SWAP4 ADD SWAP3 SWAP1 SWAP3 MSTORE POP SWAP2 SWAP9 SWAP1 SWAP8 POP SWAP1 SWAP6 POP SWAP4 POP POP POP POP JUMP JUMPDEST DUP2 PUSH2 0xFFFF AND PUSH1 0x0 LT DUP1 ISZERO PUSH2 0x979 JUMPI POP PUSH2 0x3FFF PUSH2 0xFFFF DUP4 AND GT ISZERO JUMPDEST PUSH2 0x982 JUMPI PUSH1 0x0 DUP1 REVERT JUMPDEST PUSH2 0xFFFF DUP3 AND DUP1 DUP6 MSTORE PUSH2 0x995 SWAP1 DUP3 SWAP1 PUSH2 0x12E1 JUMP JUMPDEST ISZERO PUSH2 0x9C2 JUMPI PUSH2 0x9A8 DUP4 DUP4 PUSH2 0xFFFF AND PUSH2 0x136B JUMP JUMPDEST PUSH2 0x100 DUP9 ADD MSTORE PUSH1 0xE0 DUP8 ADD MSTORE PUSH1 0x40 DUP7 ADD MSTORE PUSH1 0x20 DUP6 ADD MSTORE PUSH2 0x9E0 JUMP JUMPDEST PUSH1 0x0 PUSH1 0x20 DUP6 ADD DUP2 SWAP1 MSTORE PUSH1 0x40 DUP6 ADD DUP2 SWAP1 MSTORE PUSH1 0xE0 DUP6 ADD DUP2 SWAP1 MSTORE PUSH2 0x100 DUP6 ADD MSTORE JUMPDEST POP POP PUSH1 0x0 PUSH1 0x60 DUP4 ADD DUP2 SWAP1 MSTORE PUSH1 0x80 DUP4 ADD DUP2 SWAP1 MSTORE PUSH1 0xA0 DUP4 ADD DUP2 SWAP1 MSTORE PUSH1 0xC0 SWAP1 SWAP3 ADD SWAP2 SWAP1 SWAP2 MSTORE POP JUMP JUMPDEST PUSH1 0x0 DUP3 PUSH1 0x40 ADD MLOAD PUSH1 0x0 EQ ISZERO PUSH2 0xA19 JUMPI PUSH1 0x0 DUP1 REVERT JUMPDEST PUSH1 0x0 PUSH2 0xA41 PUSH2 0xA35 DUP6 PUSH1 0x40 ADD MLOAD DUP7 PUSH1 0x20 ADD MLOAD DUP8 PUSH1 0xC0 ADD MLOAD PUSH2 0x1414 JUMP JUMPDEST PUSH2 0x100 DUP7 ADD MLOAD SWAP1 PUSH2 0x1463 JUMP JUMPDEST SWAP1 POP PUSH2 0xA4B PUSH2 0x4175 JUMP JUMPDEST PUSH2 0xA57 DUP5 DUP7 DUP10 DUP6 PUSH2 0x148E JUMP JUMPDEST PUSH1 0x60 DUP3 ADD MLOAD SWAP1 SWAP4 POP SWAP1 SWAP2 POP PUSH2 0xA6B SWAP1 PUSH2 0x431 JUMP JUMPDEST SWAP3 POP PUSH2 0xA88 DUP2 PUSH1 0x60 ADD MLOAD DUP3 PUSH1 0x80 ADD MLOAD PUSH2 0x16D5 SWAP1 SWAP2 SWAP1 PUSH4 0xFFFFFFFF AND JUMP JUMPDEST PUSH1 0x60 DUP8 ADD MSTORE POP PUSH1 0x80 DUP5 ADD MLOAD PUSH1 0x0 SLT ISZERO PUSH2 0xB8E JUMPI PUSH1 0xA0 DUP5 ADD MLOAD PUSH1 0x0 SWAP1 PUSH1 0x3 DUP2 SWAP1 BYTE SWAP1 DUP3 BYTE GT PUSH2 0xAB5 JUMPI PUSH1 0x0 DUP1 REVERT JUMPDEST PUSH1 0xA0 DUP6 ADD MLOAD PUSH1 0x80 DUP7 ADD MLOAD PUSH1 0x3 DUP3 SWAP1 BYTE PUSH1 0x0 SWAP3 SWAP1 SWAP3 BYTE SWAP2 SWAP1 SWAP2 SUB PUSH1 0xFF AND SWAP1 PUSH2 0xB09 SWAP1 PUSH2 0xAE0 SWAP1 DUP4 PUSH2 0xB99 JUMP JUMPDEST PUSH1 0xA0 DUP9 ADD MLOAD PUSH1 0x40 DUP11 ADD MLOAD PUSH2 0xB03 SWAP2 PUSH1 0x3 BYTE SWAP1 PUSH2 0xAFD SWAP1 DUP9 SWAP1 PUSH2 0xB99 JUMP JUMPDEST SWAP1 PUSH2 0xB99 JUMP JUMPDEST SWAP1 PUSH2 0x16EB JUMP JUMPDEST SWAP2 POP POP PUSH2 0xB24 DUP2 DUP8 PUSH1 0x40 ADD MLOAD DUP11 PUSH1 0x1 PUSH1 0x1 PUSH1 0x60 SHL SUB AND PUSH2 0x171C JUMP JUMPDEST SWAP1 POP PUSH2 0xB2F DUP2 PUSH2 0x431 JUMP JUMPDEST PUSH1 0xA0 DUP8 DUP2 ADD SWAP2 SWAP1 SWAP2 MSTORE PUSH1 0x40 DUP8 ADD MLOAD SWAP1 DUP7 ADD MLOAD PUSH1 0x80 DUP8 ADD MLOAD PUSH1 0x0 SWAP3 PUSH2 0xB68 SWAP3 SWAP1 SWAP2 PUSH2 0xB03 SWAP2 PUSH1 0x3 DUP2 SWAP1 BYTE SWAP2 DUP4 SWAP2 PUSH2 0xAFD SWAP1 DUP10 SWAP1 DUP10 BYTE PUSH2 0xB99 JUMP JUMPDEST PUSH1 0x60 DUP9 ADD MLOAD SWAP1 SWAP2 POP PUSH2 0xB7A SWAP1 DUP3 PUSH2 0x12CB JUMP JUMPDEST PUSH1 0x60 DUP9 ADD MSTORE PUSH2 0xB89 DUP5 DUP3 PUSH2 0x12CB JUMP JUMPDEST SWAP4 POP POP POP JUMPDEST POP SWAP7 SWAP6 POP POP POP POP POP POP JUMP JUMPDEST DUP2 DUP2 MUL PUSH1 0x0 NOT DUP4 EQ ISZERO PUSH2 0xBC9 JUMPI DUP2 ISZERO DUP1 PUSH2 0xBBB JUMPI POP DUP3 DUP3 DUP3 DUP2 PUSH2 0xBB8 JUMPI INVALID JUMPDEST SDIV EQ JUMPDEST PUSH2 0xBC4 JUMPI PUSH1 0x0 DUP1 REVERT JUMPDEST PUSH2 0xBE7 JUMP JUMPDEST DUP3 ISZERO DUP1 PUSH2 0xBDE JUMPI POP DUP2 DUP4 DUP3 DUP2 PUSH2 0xBDB JUMPI INVALID JUMPDEST SDIV EQ JUMPDEST PUSH2 0xBE7 JUMPI PUSH1 0x0 DUP1 REVERT JUMPDEST SWAP3 SWAP2 POP POP JUMP JUMPDEST PUSH2 0xBF5 PUSH2 0x41AB JUMP JUMPDEST PUSH2 0x43F DUP3 PUSH1 0x0 PUSH2 0x1766 JUMP JUMPDEST PUSH2 0xC08 PUSH2 0x4082 JUMP JUMPDEST PUSH1 0x0 PUSH2 0xC12 PUSH2 0x1003 JUMP JUMPDEST PUSH1 0x1 PUSH1 0x1 PUSH1 0xA0 SHL SUB SWAP4 SWAP1 SWAP4 AND PUSH1 0x0 SWAP1 DUP2 MSTORE PUSH1 0x20 SWAP4 DUP5 MSTORE PUSH1 0x40 SWAP1 DUP2 SWAP1 KECCAK256 DUP2 MLOAD PUSH1 0xA0 DUP2 ADD DUP4 MSTORE SWAP1 SLOAD PUSH5 0xFFFFFFFFFF DUP2 AND DUP3 MSTORE PUSH6 0x10000000000 DUP2 DIV PUSH1 0xF8 SHL PUSH1 0x1 PUSH1 0x1 PUSH1 0xF8 SHL SUB NOT AND SWAP6 DUP3 ADD SWAP6 SWAP1 SWAP6 MSTORE PUSH1 0x1 PUSH1 0x30 SHL DUP6 DIV PUSH1 0xFF AND SWAP2 DUP2 ADD SWAP2 SWAP1 SWAP2 MSTORE PUSH1 0x1 PUSH1 0x38 SHL DUP5 DIV PUSH2 0xFFFF AND PUSH1 0x60 DUP3 ADD MSTORE PUSH1 0x1 PUSH1 0x48 SHL SWAP1 SWAP4 DIV PUSH1 0x70 SHL PUSH1 0x1 PUSH1 0x1 PUSH1 0x70 SHL SUB NOT AND PUSH1 0x80 DUP5 ADD MSTORE POP SWAP1 SWAP2 SWAP1 POP JUMP JUMPDEST PUSH1 0x0 PUSH4 0x5F5E100 DUP4 PUSH1 0x40 ADD MLOAD EQ ISZERO PUSH2 0xCBA JUMPI POP DUP1 PUSH2 0xBE7 JUMP JUMPDEST PUSH2 0xCD9 PUSH4 0x5F5E100 PUSH2 0xB03 DUP6 PUSH1 0x40 ADD MLOAD DUP6 PUSH2 0xB99 SWAP1 SWAP2 SWAP1 PUSH4 0xFFFFFFFF AND JUMP JUMPDEST SWAP4 SWAP3 POP POP POP JUMP JUMPDEST DUP1 PUSH1 0x5 DUP6 PUSH1 0x60 ADD MLOAD PUSH1 0x5 DUP2 GT ISZERO PUSH2 0xCF3 JUMPI INVALID JUMPDEST EQ ISZERO PUSH2 0xD18 JUMPI PUSH1 0x0 PUSH2 0xD04 DUP5 PUSH2 0x1814 JUMP JUMPDEST SWAP1 POP PUSH2 0xD14 DUP2 PUSH1 0x0 ADD MLOAD DUP5 PUSH2 0x1827 JUMP JUMPDEST SWAP3 POP POP JUMPDEST PUSH1 0x0 DUP3 SGT ISZERO PUSH2 0xD44 JUMPI PUSH1 0x0 PUSH2 0xD2E DUP7 DUP7 DUP6 PUSH2 0x18B9 JUMP JUMPDEST SWAP1 POP DUP6 PUSH1 0x20 ADD MLOAD ISZERO PUSH2 0xD3E JUMPI DUP1 SWAP2 POP JUMPDEST POP PUSH2 0x51F JUMP JUMPDEST PUSH1 0x3 DUP6 PUSH1 0x60 ADD MLOAD PUSH1 0x5 DUP2 GT ISZERO PUSH2 0xD56 JUMPI INVALID JUMPDEST EQ ISZERO PUSH2 0xD73 JUMPI PUSH2 0xD6E DUP5 PUSH2 0xD69 DUP5 PUSH2 0x431 JUMP JUMPDEST PUSH2 0x19B1 JUMP JUMPDEST PUSH2 0x51F JUMP JUMPDEST DUP5 MLOAD PUSH2 0x51F SWAP1 DUP6 PUSH2 0xD83 DUP6 PUSH2 0x431 JUMP JUMPDEST PUSH2 0x19EC JUMP JUMPDEST PUSH1 0x0 DUP1 PUSH1 0x0 DUP7 PUSH1 0xA0 ADD MLOAD SLT ISZERO PUSH2 0xDDB JUMPI PUSH1 0x0 PUSH2 0xDBD DUP8 PUSH1 0xA0 ADD MLOAD PUSH2 0x7FD DUP10 PUSH1 0xC0 ADD MLOAD DUP11 PUSH1 0x40 ADD MLOAD PUSH2 0x12CB SWAP1 SWAP2 SWAP1 PUSH4 0xFFFFFFFF AND JUMP JUMPDEST SLT ISZERO PUSH2 0xDDB JUMPI PUSH1 0x40 MLOAD PUSH3 0x461BCD PUSH1 0xE5 SHL DUP2 MSTORE PUSH1 0x4 ADD PUSH2 0x16F SWAP1 PUSH2 0x4A7E JUMP JUMPDEST PUSH1 0x0 DUP7 PUSH1 0x80 ADD MLOAD SLT ISZERO PUSH2 0xE2B JUMPI PUSH1 0x0 PUSH2 0xE0D DUP8 PUSH1 0x80 ADD MLOAD PUSH2 0x7FD DUP10 PUSH1 0x60 ADD MLOAD DUP11 PUSH1 0x20 ADD MLOAD PUSH2 0x12CB SWAP1 SWAP2 SWAP1 PUSH4 0xFFFFFFFF AND JUMP JUMPDEST SLT ISZERO PUSH2 0xE2B JUMPI PUSH1 0x40 MLOAD PUSH3 0x461BCD PUSH1 0xE5 SHL DUP2 MSTORE PUSH1 0x4 ADD PUSH2 0x16F SWAP1 PUSH2 0x4A5C JUMP JUMPDEST PUSH2 0xE36 DUP7 DUP7 DUP6 PUSH2 0x1A63 JUMP JUMPDEST PUSH1 0x80 DUP9 ADD DUP2 SWAP1 MSTORE PUSH1 0x60 DUP9 ADD MLOAD SWAP2 SWAP4 POP PUSH1 0x0 SWAP2 PUSH2 0xE51 SWAP2 PUSH2 0x12CB JUMP JUMPDEST SWAP1 POP DUP1 ISZERO PUSH2 0xEBE JUMPI PUSH1 0x20 DUP8 ADD MLOAD PUSH2 0xE68 SWAP1 DUP3 PUSH2 0x12CB JUMP JUMPDEST PUSH1 0x20 DUP9 ADD MSTORE DUP7 MLOAD PUSH1 0x40 MLOAD PUSH1 0x1 SWAP4 POP PUSH2 0xFFFF SWAP1 SWAP2 AND SWAP1 PUSH1 0x1 PUSH1 0x1 PUSH1 0xA0 SHL SUB DUP9 AND SWAP1 PUSH32 0x5441E4A5FAC93A951D782E6F1CDB82E95C8FC58561A013953D17E395C5E69B4B SWAP1 PUSH2 0xEB5 SWAP1 DUP6 SWAP1 PUSH2 0x4929 JUMP JUMPDEST PUSH1 0x40 MLOAD DUP1 SWAP2 SUB SWAP1 LOG3 JUMPDEST PUSH1 0xA0 DUP8 ADD MLOAD ISZERO ISZERO DUP1 PUSH2 0xED3 JUMPI POP PUSH1 0xC0 DUP8 ADD MLOAD ISZERO ISZERO JUMPDEST ISZERO PUSH2 0xF79 JUMPI PUSH1 0x0 PUSH2 0xEFD DUP9 PUSH1 0xC0 ADD MLOAD PUSH2 0x7FD DUP11 PUSH1 0xA0 ADD MLOAD DUP12 PUSH1 0x40 ADD MLOAD PUSH2 0x12CB SWAP1 SWAP2 SWAP1 PUSH4 0xFFFFFFFF AND JUMP JUMPDEST SWAP1 POP PUSH2 0xF12 DUP9 DUP9 PUSH2 0xF0D DUP5 PUSH2 0x1B18 JUMP JUMPDEST PUSH2 0x1B2B JUMP JUMPDEST POP PUSH1 0x40 DUP9 ADD DUP2 SWAP1 MSTORE PUSH1 0xC0 DUP9 ADD MLOAD ISZERO PUSH2 0xF73 JUMPI DUP8 PUSH1 0x0 ADD MLOAD PUSH2 0xFFFF AND DUP8 PUSH1 0x1 PUSH1 0x1 PUSH1 0xA0 SHL SUB AND PUSH32 0x412BC13D202A2EA5119E55FEC9C5E420DDDB18FAF186373AD9795AD4F4545AA9 DUP11 PUSH1 0xC0 ADD MLOAD PUSH1 0x40 MLOAD PUSH2 0xF6A SWAP2 SWAP1 PUSH2 0x4929 JUMP JUMPDEST PUSH1 0x40 MLOAD DUP1 SWAP2 SUB SWAP1 LOG3 JUMPDEST PUSH1 0x1 SWAP3 POP POP JUMPDEST DUP2 ISZERO PUSH2 0xFA6 JUMPI PUSH2 0xFA6 DUP7 DUP9 PUSH1 0x0 ADD MLOAD PUSH2 0xFFFF AND DUP10 PUSH1 0x20 ADD MLOAD DUP11 PUSH1 0x40 ADD MLOAD DUP12 PUSH1 0xE0 ADD MLOAD DUP13 PUSH2 0x100 ADD MLOAD PUSH2 0x1C0C JUMP JUMPDEST DUP7 MLOAD PUSH1 0x20 DUP9 ADD MLOAD PUSH2 0xFD3 SWAP2 PUSH2 0xFFFF AND SWAP1 ISZERO ISZERO DUP1 PUSH2 0xFC6 JUMPI POP PUSH1 0x40 DUP10 ADD MLOAD ISZERO ISZERO JUMPDEST DUP8 SWAP2 SWAP1 PUSH1 0x1 PUSH1 0xFE SHL PUSH2 0x1D37 JUMP JUMPDEST PUSH1 0x0 DUP8 PUSH1 0x20 ADD MLOAD SLT ISZERO PUSH2 0xFF9 JUMPI PUSH1 0x20 DUP6 ADD DUP1 MLOAD PUSH1 0x1 PUSH1 0xF9 SHL OR PUSH1 0x1 PUSH1 0x1 PUSH1 0xF8 SHL SUB NOT AND SWAP1 MSTORE JUMPDEST POP POP SWAP5 SWAP4 POP POP POP POP JUMP JUMPDEST PUSH1 0x0 DUP1 PUSH2 0xBE7 PUSH1 0x1 PUSH2 0x1F37 JUMP JUMPDEST PUSH1 0x60 ADD MLOAD PUSH2 0xFFFF AND ISZERO ISZERO SWAP1 JUMP JUMPDEST PUSH1 0x0 DUP1 DUP1 DUP1 PUSH2 0x102C DUP7 DUP9 PUSH2 0x1F50 JUMP JUMPDEST PUSH5 0xFFFFFFFFFF DUP2 AND DUP13 MSTORE SWAP3 SWAP7 POP SWAP1 SWAP5 POP SWAP3 POP SWAP1 POP PUSH2 0x1049 DUP9 PUSH2 0x218F JUMP JUMPDEST ISZERO PUSH2 0x1053 JUMPI PUSH1 0x0 DUP1 REVERT JUMPDEST PUSH1 0xFF DUP3 AND PUSH1 0x40 DUP10 ADD MSTORE DUP5 PUSH2 0x1072 JUMPI PUSH1 0x7 PUSH1 0xFF DUP4 AND GT ISZERO PUSH2 0x1072 JUMPI PUSH1 0x0 DUP1 REVERT JUMPDEST DUP4 ISZERO PUSH2 0x1095 JUMPI PUSH1 0x20 DUP9 ADD DUP1 MLOAD PUSH1 0x1 PUSH1 0xF8 SHL OR PUSH1 0x1 PUSH1 0x1 PUSH1 0xF8 SHL SUB NOT AND SWAP1 MSTORE PUSH2 0x10A4 JUMP JUMPDEST PUSH1 0x20 DUP9 ADD DUP1 MLOAD PUSH1 0x7F PUSH1 0xF9 SHL AND SWAP1 MSTORE JUMPDEST PUSH2 0x10B1 DUP9 PUSH1 0x80 ADD MLOAD PUSH2 0x21E3 JUMP JUMPDEST PUSH1 0x1 PUSH1 0x1 PUSH1 0x70 SHL SUB NOT AND PUSH1 0x80 DUP10 ADD MSTORE PUSH1 0x0 JUMPDEST DUP4 ISZERO PUSH2 0x10F4 JUMPI PUSH1 0xF0 DUP5 SWAP1 SHR DUP2 DUP2 EQ PUSH2 0x10E6 JUMPI PUSH2 0x10E6 DUP11 DUP3 PUSH1 0x1 PUSH1 0x1 PUSH1 0xFF SHL PUSH2 0x1D37 JUMP JUMPDEST PUSH1 0x10 SWAP5 SWAP1 SWAP5 SHL SWAP4 SWAP1 POP PUSH2 0x10C3 JUMP JUMPDEST POP POP POP POP POP POP POP POP POP JUMP JUMPDEST PUSH1 0x0 DUP1 DUP4 PUSH1 0x40 ADD MLOAD SLT PUSH2 0x1124 JUMPI PUSH1 0x40 MLOAD PUSH3 0x461BCD PUSH1 0xE5 SHL DUP2 MSTORE PUSH1 0x4 ADD PUSH2 0x16F SWAP1 PUSH2 0x4956 JUMP JUMPDEST PUSH1 0x0 DUP4 PUSH1 0x60 ADD MLOAD SGT PUSH2 0x1148 JUMPI PUSH1 0x40 MLOAD PUSH3 0x461BCD PUSH1 0xE5 SHL DUP2 MSTORE PUSH1 0x4 ADD PUSH2 0x16F SWAP1 PUSH2 0x4A0D JUMP JUMPDEST PUSH1 0x0 DUP1 PUSH1 0x0 PUSH2 0x1160 DUP7 DUP12 PUSH1 0x1 PUSH1 0x1 PUSH1 0x80 SHL SUB AND PUSH2 0x225E JUMP JUMPDEST SWAP3 POP SWAP3 POP SWAP3 POP PUSH1 0x0 DUP4 SWAP1 POP PUSH1 0x0 DUP9 PUSH1 0x20 ADD MLOAD SGT ISZERO PUSH2 0x11BE JUMPI DUP1 DUP9 PUSH1 0x20 ADD MLOAD SLT PUSH2 0x1199 JUMPI PUSH2 0x118C DUP2 PUSH2 0x431 JUMP JUMPDEST PUSH1 0x60 DUP10 ADD MSTORE POP PUSH1 0x0 PUSH2 0x11BE JUMP JUMPDEST PUSH2 0x11A6 DUP9 PUSH1 0x20 ADD MLOAD PUSH2 0x431 JUMP JUMPDEST PUSH1 0x60 DUP10 ADD MSTORE PUSH1 0x20 DUP9 ADD MLOAD PUSH2 0x11BB SWAP1 DUP3 SWAP1 PUSH2 0x2309 JUMP JUMPDEST SWAP1 POP JUMPDEST PUSH1 0x0 DUP2 SGT ISZERO PUSH2 0x11E9 JUMPI PUSH1 0x0 PUSH2 0x11D5 DUP8 DUP10 DUP13 DUP6 PUSH2 0x2325 JUMP JUMPDEST SWAP1 POP PUSH2 0x11E1 DUP3 DUP3 PUSH2 0x16D5 JUMP JUMPDEST PUSH1 0x80 DUP11 ADD MSTORE SWAP1 POP JUMPDEST PUSH1 0x0 DUP2 SGT DUP1 ISZERO PUSH2 0x11FD JUMPI POP PUSH1 0x0 DUP8 PUSH1 0x80 ADD MLOAD SGT JUMPDEST ISZERO PUSH2 0x121A JUMPI PUSH2 0x1217 DUP9 DUP9 DUP4 DUP14 PUSH1 0x1 PUSH1 0x1 PUSH1 0x60 SHL SUB AND PUSH2 0x24C6 JUMP JUMPDEST SWAP1 POP JUMPDEST PUSH1 0x0 DUP2 SGT ISZERO PUSH2 0x1263 JUMPI PUSH1 0x0 PUSH2 0x122F DUP6 DUP4 PUSH2 0x16D5 JUMP JUMPDEST SWAP1 POP PUSH1 0x0 PUSH2 0x124F DUP3 DUP11 PUSH2 0x120 ADD MLOAD PUSH1 0x40 ADD MLOAD PUSH2 0x2584 SWAP1 SWAP2 SWAP1 PUSH4 0xFFFFFFFF AND JUMP JUMPDEST SWAP1 POP PUSH2 0x125D DUP10 DUP6 DUP4 DUP6 PUSH2 0x25AF JUMP JUMPDEST SWAP6 POP POP POP POP JUMPDEST POP SWAP1 SWAP10 SWAP9 POP POP POP POP POP POP POP POP POP JUMP JUMPDEST PUSH2 0x127A PUSH2 0x4082 JUMP JUMPDEST PUSH2 0x1282 PUSH2 0x400A JUMP JUMPDEST PUSH2 0x128E DUP2 DUP11 DUP10 DUP12 PUSH2 0x95F JUMP JUMPDEST PUSH1 0x60 DUP2 ADD DUP7 SWAP1 MSTORE DUP4 ISZERO PUSH2 0x12AA JUMPI PUSH2 0x12A4 DUP7 PUSH2 0x431 JUMP JUMPDEST PUSH1 0x80 DUP3 ADD MSTORE JUMPDEST PUSH1 0xA0 DUP2 ADD DUP6 SWAP1 MSTORE PUSH2 0x12BD DUP2 DUP11 DUP11 DUP7 PUSH2 0xD88 JUMP JUMPDEST POP SWAP7 SWAP9 SWAP8 POP POP POP POP POP POP POP POP JUMP JUMPDEST DUP2 DUP2 ADD DUP3 DUP2 SLT ISZERO PUSH1 0x0 DUP4 SLT ISZERO EQ PUSH2 0xBE7 JUMPI PUSH1 0x0 DUP1 REVERT JUMPDEST PUSH1 0x0 DUP2 ISZERO DUP1 ISZERO SWAP1 PUSH2 0x12F4 JUMPI POP PUSH2 0x3FFF DUP3 GT ISZERO JUMPDEST PUSH2 0x12FD JUMPI PUSH1 0x0 DUP1 REVERT JUMPDEST PUSH1 0x80 DUP4 ADD MLOAD PUSH1 0x60 DUP5 ADD MLOAD PUSH2 0xFFFF AND DUP4 EQ ISZERO PUSH2 0x131C JUMPI PUSH1 0x1 SWAP2 POP POP PUSH2 0xBE7 JUMP JUMPDEST PUSH1 0x1 PUSH1 0x1 PUSH1 0x70 SHL SUB NOT DUP2 AND ISZERO PUSH2 0x1361 JUMPI PUSH1 0xF0 DUP2 SWAP1 SHR PUSH2 0x3FFF AND DUP4 DUP2 EQ ISZERO PUSH2 0x134E JUMPI POP PUSH1 0x1 PUSH1 0xFE SHL SWAP1 DUP2 AND EQ SWAP1 POP PUSH2 0xBE7 JUMP JUMPDEST POP PUSH1 0x10 SHL PUSH1 0x1 PUSH1 0x1 PUSH1 0x80 SHL SUB NOT AND PUSH2 0x131C JUMP JUMPDEST POP PUSH1 0x0 SWAP4 SWAP3 POP POP POP JUMP JUMPDEST PUSH1 0x0 DUP1 PUSH1 0x0 DUP1 PUSH1 0x0 PUSH2 0x137B PUSH2 0x263C JUMP JUMPDEST PUSH1 0x1 PUSH1 0x1 PUSH1 0xA0 SHL SUB DUP9 AND PUSH1 0x0 SWAP1 DUP2 MSTORE PUSH1 0x20 DUP3 DUP2 MSTORE PUSH1 0x40 DUP1 DUP4 KECCAK256 DUP11 DUP5 MSTORE SWAP1 SWAP2 MSTORE SWAP1 KECCAK256 DUP1 SLOAD PUSH1 0x1 PUSH1 0x1 PUSH1 0x50 SHL SUB DUP2 AND SWAP7 POP PUSH1 0x1 PUSH1 0x50 SHL SWAP1 DIV PUSH4 0xFFFFFFFF AND SWAP5 POP SWAP1 SWAP2 POP DUP4 ISZERO PUSH2 0x13E4 JUMPI DUP1 SLOAD PUSH2 0x13DD SWAP1 PUSH1 0x1 PUSH1 0x70 SHL SWAP1 DIV PUSH7 0xFFFFFFFFFFFFFF AND PUSH2 0x2649 JUMP JUMPDEST SWAP3 POP PUSH2 0x13F9 JUMP JUMPDEST DUP1 SLOAD PUSH1 0x1 PUSH1 0x70 SHL SWAP1 DIV PUSH7 0xFFFFFFFFFFFFFF AND SWAP3 POP JUMPDEST SLOAD PUSH1 0x1 PUSH1 0xA8 SHL SWAP1 DIV PUSH1 0xA SWAP1 DUP2 SIGNEXTEND SWAP1 SIGNEXTEND SWAP8 SWAP4 SWAP7 POP SWAP2 SWAP5 POP SWAP3 POP POP JUMP JUMPDEST PUSH1 0x0 DUP1 PUSH1 0x0 DUP6 SGT PUSH2 0x1429 JUMPI DUP3 PUSH1 0x40 ADD MLOAD PUSH2 0x142F JUMP JUMPDEST DUP3 PUSH1 0x60 ADD MLOAD JUMPDEST SWAP1 POP PUSH1 0x0 DUP2 SGT PUSH2 0x143E JUMPI PUSH1 0x0 DUP1 REVERT JUMPDEST PUSH2 0x145A DUP2 PUSH2 0xB03 PUSH1 0x64 PUSH2 0xAFD PUSH2 0x1453 DUP10 PUSH2 0x431 JUMP JUMPDEST DUP9 SWAP1 PUSH2 0x2657 JUMP JUMPDEST SWAP6 SWAP5 POP POP POP POP POP JUMP JUMPDEST PUSH1 0x0 DUP1 PUSH2 0x51F DUP5 PUSH1 0x20 ADD MLOAD PUSH2 0xB03 DUP7 PUSH1 0x40 ADD MLOAD PUSH2 0xAFD PUSH5 0x2540BE400 DUP9 PUSH2 0xB99 SWAP1 SWAP2 SWAP1 PUSH4 0xFFFFFFFF AND JUMP JUMPDEST PUSH2 0x1496 PUSH2 0x4175 JUMP JUMPDEST PUSH1 0x0 DUP6 PUSH1 0x20 ADD MLOAD MLOAD PUSH1 0x0 EQ PUSH2 0x14AA JUMPI PUSH1 0x0 DUP1 REVERT JUMPDEST PUSH2 0x14B2 PUSH2 0x41DA JUMP JUMPDEST PUSH2 0x14BA PUSH2 0x4175 JUMP JUMPDEST DUP8 MLOAD MLOAD JUMPDEST PUSH1 0x0 NOT DUP2 ADD SWAP1 ISZERO PUSH2 0x16C7 JUMPI PUSH1 0x0 DUP10 PUSH1 0x0 ADD MLOAD DUP3 DUP2 MLOAD DUP2 LT PUSH2 0x14DB JUMPI INVALID JUMPDEST PUSH1 0x20 MUL PUSH1 0x20 ADD ADD MLOAD SWAP1 POP PUSH2 0x14FC DUP2 DUP11 PUSH2 0x120 ADD MLOAD PUSH1 0x0 ADD MLOAD PUSH2 0xFFFF AND PUSH2 0x2679 JUMP JUMPDEST PUSH2 0x1506 JUMPI POP PUSH2 0x16C2 JUMP JUMPDEST PUSH2 0x1517 DUP2 DUP11 PUSH2 0x120 ADD MLOAD DUP7 DUP12 PUSH2 0x26B5 JUMP JUMPDEST PUSH1 0x20 DUP6 ADD MSTORE PUSH1 0x40 DUP1 DUP6 ADD DUP3 SWAP1 MSTORE DUP3 ADD MLOAD PUSH2 0x1532 SWAP2 DUP12 SWAP2 PUSH2 0x26E9 JUMP JUMPDEST PUSH1 0xA0 DUP6 ADD DUP2 SWAP1 MSTORE DUP2 DUP6 MSTORE DUP9 SWAP2 PUSH2 0x1547 SWAP2 PUSH2 0x2309 JUMP JUMPDEST SGT PUSH2 0x158C JUMPI PUSH2 0x1556 DUP11 DUP4 PUSH2 0x2741 JUMP JUMPDEST DUP9 PUSH2 0x140 ADD MLOAD PUSH2 0x1573 JUMPI PUSH1 0x60 DUP2 ADD MLOAD PUSH2 0x1570 SWAP1 DUP6 SWAP1 PUSH2 0x2891 JUMP JUMPDEST POP POP JUMPDEST PUSH1 0xA0 DUP4 ADD MLOAD DUP4 MLOAD PUSH2 0x1583 SWAP2 PUSH2 0x16D5 JUMP JUMPDEST DUP8 SUB SWAP7 POP PUSH2 0x165F JUMP JUMPDEST PUSH1 0xA0 DUP4 ADD MLOAD DUP4 MLOAD PUSH1 0x0 SWAP2 PUSH2 0x15B2 SWAP2 PUSH2 0x15A3 SWAP2 PUSH2 0x2309 JUMP JUMPDEST PUSH1 0x60 DUP5 ADD MLOAD PUSH2 0xB03 SWAP1 DUP12 PUSH2 0xB99 JUMP JUMPDEST SWAP1 POP DUP10 PUSH2 0x140 ADD MLOAD PUSH2 0x15D7 JUMPI PUSH2 0x15C8 DUP6 DUP3 PUSH2 0x2891 JUMP JUMPDEST PUSH1 0x20 DUP7 ADD MSTORE PUSH1 0x40 DUP6 ADD MSTORE PUSH2 0x1624 JUMP JUMPDEST PUSH2 0x15F6 DUP6 PUSH1 0x80 ADD MLOAD PUSH2 0xB03 DUP4 DUP9 PUSH1 0x60 ADD MLOAD PUSH2 0xB99 SWAP1 SWAP2 SWAP1 PUSH4 0xFFFFFFFF AND JUMP JUMPDEST DUP5 PUSH1 0x40 ADD DUP2 DUP2 MSTORE POP POP PUSH2 0x161E DUP6 PUSH1 0x80 ADD MLOAD PUSH2 0xB03 DUP4 DUP9 PUSH1 0x40 ADD MLOAD PUSH2 0xB99 SWAP1 SWAP2 SWAP1 PUSH4 0xFFFFFFFF AND JUMP JUMPDEST PUSH1 0x20 DUP6 ADD MSTORE JUMPDEST PUSH2 0x1637 DUP11 DUP6 PUSH1 0x40 ADD MLOAD DUP5 PUSH1 0x40 ADD MLOAD PUSH2 0x26E9 JUMP JUMPDEST PUSH1 0xA0 DUP7 ADD MSTORE DUP5 MSTORE PUSH1 0x60 DUP3 ADD MLOAD PUSH2 0x164D SWAP1 DUP3 PUSH2 0x2309 JUMP JUMPDEST PUSH1 0x60 DUP4 ADD MSTORE POP PUSH1 0x1 PUSH1 0xA0 DUP3 ADD MSTORE PUSH1 0x0 SWAP7 POP JUMPDEST PUSH1 0xA0 DUP4 ADD MLOAD PUSH1 0x60 DUP5 ADD MLOAD PUSH2 0x1672 SWAP2 PUSH2 0x12CB JUMP JUMPDEST PUSH1 0x60 DUP5 ADD MSTORE PUSH1 0x40 DUP4 ADD MLOAD PUSH1 0x80 DUP5 ADD MLOAD PUSH2 0x168A SWAP2 PUSH2 0x12CB JUMP JUMPDEST PUSH1 0x80 DUP5 ADD MSTORE PUSH2 0x120 DUP10 ADD MLOAD MLOAD PUSH1 0x20 DUP1 DUP4 ADD MLOAD SWAP1 DUP6 ADD MLOAD PUSH2 0x16B5 SWAP3 DUP14 SWAP3 PUSH2 0xFFFF SWAP1 SWAP2 AND SWAP2 PUSH1 0x1 SWAP1 PUSH2 0x2940 JUMP JUMPDEST DUP7 PUSH2 0x16C0 JUMPI POP PUSH2 0x16C7 JUMP JUMPDEST POP JUMPDEST PUSH2 0x14BE JUMP JUMPDEST POP SWAP8 SWAP4 SWAP7 POP SWAP3 SWAP5 POP POP POP POP POP JUMP JUMPDEST DUP1 DUP3 SUB DUP3 DUP2 SGT ISZERO PUSH1 0x0 DUP4 SLT ISZERO EQ PUSH2 0xBE7 JUMPI PUSH1 0x0 DUP1 REVERT JUMPDEST PUSH1 0x0 DUP2 PUSH1 0x0 NOT EQ DUP1 ISZERO PUSH2 0x1701 JUMPI POP PUSH1 0x1 PUSH1 0xFF SHL DUP4 EQ JUMPDEST ISZERO PUSH2 0x170B JUMPI PUSH1 0x0 DUP1 REVERT JUMPDEST DUP2 DUP4 DUP2 PUSH2 0x1714 JUMPI INVALID JUMPDEST SDIV SWAP4 SWAP3 POP POP POP JUMP JUMPDEST PUSH1 0x0 DUP1 PUSH2 0x172F PUSH1 0x64 PUSH2 0xB03 DUP7 PUSH1 0x28 PUSH2 0xB99 JUMP JUMPDEST SWAP1 POP DUP5 DUP5 DUP2 SGT ISZERO PUSH2 0x173D JUMPI POP DUP4 JUMPDEST DUP2 DUP7 SLT ISZERO PUSH2 0x1748 JUMPI POP DUP1 JUMPDEST PUSH1 0x0 DUP5 SGT DUP1 ISZERO PUSH2 0x1757 JUMPI POP DUP4 DUP2 SGT JUMPDEST ISZERO PUSH2 0x145A JUMPI POP SWAP2 SWAP5 SWAP4 POP POP POP POP JUMP JUMPDEST PUSH2 0x176E PUSH2 0x41AB JUMP JUMPDEST PUSH1 0x0 PUSH2 0x1778 PUSH2 0x2A45 JUMP JUMPDEST PUSH1 0x0 DUP6 DUP2 MSTORE PUSH1 0x20 DUP3 DUP2 MSTORE PUSH1 0x40 DUP1 DUP4 KECCAK256 DUP8 ISZERO ISZERO DUP5 MSTORE DUP3 MSTORE SWAP2 DUP3 SWAP1 KECCAK256 DUP3 MLOAD PUSH1 0xA0 DUP2 ADD DUP5 MSTORE DUP2 SLOAD PUSH1 0x1 PUSH1 0x1 PUSH1 0xA0 SHL SUB DUP2 AND DUP3 MSTORE PUSH1 0xFF PUSH1 0x1 PUSH1 0xA0 SHL DUP3 DIV DUP2 AND ISZERO ISZERO SWAP5 DUP4 ADD SWAP5 SWAP1 SWAP5 MSTORE PUSH1 0x1 PUSH1 0xB0 SHL DUP2 DIV DUP5 AND PUSH1 0xA EXP SWAP5 DUP3 ADD SWAP5 SWAP1 SWAP5 MSTORE SWAP4 SWAP5 POP SWAP3 SWAP2 PUSH1 0x60 DUP4 ADD SWAP2 PUSH1 0x1 PUSH1 0xA8 SHL SWAP1 SWAP2 DIV AND PUSH1 0x5 DUP2 GT ISZERO PUSH2 0x17ED JUMPI INVALID JUMPDEST DUP2 MSTORE SWAP2 SLOAD PUSH1 0x1 PUSH1 0xB8 SHL SWAP1 DIV PUSH9 0xFFFFFFFFFFFFFFFFFF AND PUSH1 0x20 SWAP1 SWAP3 ADD SWAP2 SWAP1 SWAP2 MSTORE SWAP5 SWAP4 POP POP POP POP JUMP JUMPDEST PUSH2 0x181C PUSH2 0x41AB JUMP JUMPDEST PUSH2 0x43F DUP3 PUSH1 0x1 PUSH2 0x1766 JUMP JUMPDEST PUSH1 0x0 DUP2 PUSH2 0x1836 JUMPI POP PUSH1 0x0 PUSH2 0xBE7 JUMP JUMPDEST PUSH1 0x0 PUSH2 0x1841 DUP5 PUSH2 0x2A52 JUMP JUMPDEST SWAP1 POP PUSH1 0x0 PUSH2 0x184E DUP5 PUSH2 0x2AE0 JUMP JUMPDEST SWAP1 POP DUP2 PUSH12 0x19D971E4FE8401E74000001 PUSH1 0x1 PUSH1 0xFF SHL SUB DUP2 PUSH2 0x186B JUMPI INVALID JUMPDEST SDIV DUP2 SGT ISZERO PUSH2 0x1878 JUMPI PUSH1 0x0 DUP1 REVERT JUMPDEST PUSH12 0x33B2E3C9FD0803CE8000000 PUSH12 0x19D971E4FE8401E74000000 DUP4 DUP4 MUL ADD SDIV PUSH1 0x0 DUP6 SGT PUSH2 0x18AD JUMPI PUSH2 0x18A8 DUP2 PUSH2 0x431 JUMP JUMPDEST PUSH2 0x18AF JUMP JUMPDEST DUP1 JUMPDEST SWAP7 SWAP6 POP POP POP POP POP POP JUMP JUMPDEST PUSH1 0x0 DUP1 DUP1 DUP1 PUSH1 0x5 DUP8 PUSH1 0x60 ADD MLOAD PUSH1 0x5 DUP2 GT ISZERO PUSH2 0x18D0 JUMPI INVALID JUMPDEST EQ PUSH2 0x18E2 JUMPI PUSH4 0x70A08231 PUSH1 0xE0 SHL PUSH2 0x18EB JUMP JUMPDEST PUSH4 0xED1279F PUSH1 0xE1 SHL JUMPDEST SWAP1 POP DUP7 PUSH1 0x20 ADD MLOAD ISZERO PUSH2 0x1907 JUMPI DUP7 MLOAD PUSH2 0x1904 SWAP1 ADDRESS DUP4 PUSH2 0x2B01 JUMP JUMPDEST SWAP3 POP JUMPDEST DUP7 MLOAD PUSH2 0x1914 SWAP1 DUP8 DUP8 PUSH2 0x2C13 JUMP JUMPDEST DUP7 PUSH1 0x20 ADD MLOAD DUP1 PUSH2 0x1928 JUMPI POP PUSH1 0x0 DUP8 PUSH1 0x80 ADD MLOAD GT JUMPDEST ISZERO PUSH2 0x193D JUMPI DUP7 MLOAD PUSH2 0x193A SWAP1 ADDRESS DUP4 PUSH2 0x2B01 JUMP JUMPDEST SWAP2 POP JUMPDEST PUSH1 0x80 DUP8 ADD MLOAD ISZERO PUSH2 0x1978 JUMPI PUSH1 0x0 PUSH2 0x195B DUP9 PUSH2 0x1956 DUP6 PUSH2 0x2C6B JUMP JUMPDEST PUSH2 0x2C81 JUMP JUMPDEST SWAP1 POP PUSH2 0x196A DUP9 PUSH1 0x80 ADD MLOAD PUSH2 0x2C6B JUMP JUMPDEST DUP2 SGT ISZERO PUSH2 0x1976 JUMPI PUSH1 0x0 DUP1 REVERT JUMPDEST POP JUMPDEST DUP7 PUSH1 0x20 ADD MLOAD ISZERO PUSH2 0x199E JUMPI PUSH2 0x1994 PUSH2 0x198F DUP4 DUP6 PUSH2 0x2CB1 JUMP JUMPDEST PUSH2 0x2C6B JUMP JUMPDEST SWAP4 POP POP POP POP PUSH2 0xCD9 JUMP JUMPDEST PUSH2 0x1994 DUP6 PUSH2 0x2C6B JUMP JUMPDEST POP POP POP SWAP4 SWAP3 POP POP POP JUMP JUMPDEST PUSH1 0x40 MLOAD PUSH1 0x1 PUSH1 0x1 PUSH1 0xA0 SHL SUB DUP4 AND SWAP1 DUP3 ISZERO PUSH2 0x8FC MUL SWAP1 DUP4 SWAP1 PUSH1 0x0 DUP2 DUP2 DUP2 DUP6 DUP9 DUP9 CALL SWAP4 POP POP POP POP ISZERO DUP1 ISZERO PUSH2 0x19E7 JUMPI RETURNDATASIZE PUSH1 0x0 DUP1 RETURNDATACOPY RETURNDATASIZE PUSH1 0x0 REVERT JUMPDEST POP POP POP JUMP JUMPDEST DUP3 PUSH1 0x1 PUSH1 0x1 PUSH1 0xA0 SHL SUB AND PUSH4 0xA9059CBB DUP4 DUP4 PUSH1 0x40 MLOAD DUP4 PUSH4 0xFFFFFFFF AND PUSH1 0xE0 SHL DUP2 MSTORE PUSH1 0x4 ADD DUP1 DUP4 PUSH1 0x1 PUSH1 0x1 PUSH1 0xA0 SHL SUB AND DUP2 MSTORE PUSH1 0x20 ADD DUP3 DUP2 MSTORE PUSH1 0x20 ADD SWAP3 POP POP POP PUSH1 0x0 PUSH1 0x40 MLOAD DUP1 DUP4 SUB DUP2 PUSH1 0x0 DUP8 DUP1 EXTCODESIZE ISZERO DUP1 ISZERO PUSH2 0x1A43 JUMPI PUSH1 0x0 DUP1 REVERT JUMPDEST POP GAS CALL ISZERO DUP1 ISZERO PUSH2 0x1A57 JUMPI RETURNDATASIZE PUSH1 0x0 DUP1 RETURNDATACOPY RETURNDATASIZE PUSH1 0x0 REVERT JUMPDEST POP POP POP POP PUSH2 0x19E7 PUSH2 0x2D0E JUMP JUMPDEST PUSH1 0x0 DUP1 PUSH1 0x0 PUSH2 0x1A79 DUP7 PUSH1 0x0 ADD MLOAD PUSH2 0xFFFF AND PUSH2 0xBED JUMP JUMPDEST SWAP1 POP PUSH1 0x0 PUSH2 0x1A94 DUP8 PUSH1 0x80 ADD MLOAD DUP4 PUSH2 0xCA1 SWAP1 SWAP2 SWAP1 PUSH4 0xFFFFFFFF AND JUMP JUMPDEST SWAP1 POP DUP1 PUSH2 0x1AA9 JUMPI PUSH1 0x0 DUP1 SWAP4 POP SWAP4 POP POP POP PUSH2 0x3B2 JUMP JUMPDEST DUP5 DUP1 ISZERO PUSH2 0x1AB6 JUMPI POP PUSH1 0x0 DUP2 SLT JUMPDEST ISZERO PUSH2 0x1AEB JUMPI DUP7 MLOAD PUSH2 0x1AD8 SWAP1 PUSH2 0xFFFF AND DUP8 PUSH2 0x1ACF DUP5 PUSH2 0x431 JUMP JUMPDEST DUP6 SWAP3 SWAP2 SWAP1 PUSH2 0x2D7B JUMP JUMPDEST SWAP4 POP PUSH2 0x1AE4 DUP3 DUP3 PUSH2 0x2C81 JUMP JUMPDEST SWAP3 POP PUSH2 0x1B0E JUMP JUMPDEST DUP7 MLOAD PUSH2 0x1AFF SWAP1 DUP4 SWAP1 DUP9 SWAP1 PUSH2 0xFFFF AND DUP5 PUSH2 0xCE0 JUMP JUMPDEST SWAP4 POP PUSH2 0x1B0B DUP3 DUP6 PUSH2 0x2C81 JUMP JUMPDEST SWAP3 POP JUMPDEST POP POP SWAP4 POP SWAP4 SWAP2 POP POP JUMP JUMPDEST PUSH1 0x0 DUP1 DUP3 SLT ISZERO PUSH2 0x1B27 JUMPI PUSH1 0x0 DUP1 REVERT JUMPDEST POP SWAP1 JUMP JUMPDEST DUP3 MLOAD PUSH1 0x0 SWAP1 TIMESTAMP SWAP1 DUP3 SWAP1 PUSH2 0x1B41 SWAP1 PUSH2 0xFFFF AND PUSH2 0x2E16 JUMP JUMPDEST SWAP1 POP PUSH1 0x0 PUSH2 0x1B54 DUP3 DUP9 PUSH1 0xC0 ADD MLOAD DUP6 PUSH2 0x2E3C JUMP JUMPDEST SWAP1 POP PUSH2 0x1B62 DUP8 DUP4 DUP4 DUP9 PUSH2 0x2F1F JUMP JUMPDEST SWAP4 POP PUSH1 0x0 PUSH2 0x1B6F DUP4 PUSH2 0x304C JUMP JUMPDEST SWAP1 POP PUSH1 0x1 PUSH1 0x1 PUSH1 0xA0 SHL SUB DUP2 AND ISZERO PUSH2 0x1BF1 JUMPI DUP1 PUSH1 0x1 PUSH1 0x1 PUSH1 0xA0 SHL SUB AND PUSH4 0x75E4480F DUP9 PUSH2 0x1B9D DUP12 PUSH1 0x40 ADD MLOAD PUSH2 0x1B18 JUMP JUMPDEST DUP10 DUP10 PUSH1 0x40 MLOAD DUP6 PUSH4 0xFFFFFFFF AND PUSH1 0xE0 SHL DUP2 MSTORE PUSH1 0x4 ADD PUSH2 0x1BBE SWAP5 SWAP4 SWAP3 SWAP2 SWAP1 PUSH2 0x4903 JUMP JUMPDEST PUSH1 0x0 PUSH1 0x40 MLOAD DUP1 DUP4 SUB DUP2 PUSH1 0x0 DUP8 DUP1 EXTCODESIZE ISZERO DUP1 ISZERO PUSH2 0x1BD8 JUMPI PUSH1 0x0 DUP1 REVERT JUMPDEST POP GAS CALL ISZERO DUP1 ISZERO PUSH2 0x1BEC JUMPI RETURNDATASIZE PUSH1 0x0 DUP1 RETURNDATACOPY RETURNDATASIZE PUSH1 0x0 REVERT JUMPDEST POP POP POP POP JUMPDEST DUP5 ISZERO PUSH2 0x1C01 JUMPI PUSH2 0x1C01 DUP8 DUP7 PUSH2 0x30BE JUMP JUMPDEST POP POP POP POP SWAP4 SWAP3 POP POP POP JUMP JUMPDEST PUSH1 0x0 PUSH2 0x1C16 PUSH2 0x263C JUMP JUMPDEST PUSH1 0x1 PUSH1 0x1 PUSH1 0xA0 SHL SUB DUP9 AND PUSH1 0x0 SWAP1 DUP2 MSTORE PUSH1 0x20 DUP3 DUP2 MSTORE PUSH1 0x40 DUP1 DUP4 KECCAK256 DUP11 DUP5 MSTORE SWAP1 SWAP2 MSTORE SWAP1 KECCAK256 SWAP1 SWAP2 POP PUSH1 0x1 PUSH1 0x1 PUSH1 0x57 SHL SUB NOT DUP7 SLT DUP1 ISZERO SWAP1 PUSH2 0x1C59 JUMPI POP PUSH1 0x1 PUSH1 0x1 PUSH1 0x57 SHL SUB DUP7 SGT ISZERO JUMPDEST PUSH2 0x1C62 JUMPI PUSH1 0x0 DUP1 REVERT JUMPDEST PUSH1 0x0 DUP6 SLT ISZERO DUP1 ISZERO PUSH2 0x1C7A JUMPI POP PUSH1 0x1 PUSH1 0x1 PUSH1 0x50 SHL SUB DUP6 SGT ISZERO JUMPDEST PUSH2 0x1C83 JUMPI PUSH1 0x0 DUP1 REVERT JUMPDEST DUP4 ISZERO PUSH2 0x1C8E JUMPI PUSH1 0x0 DUP1 REVERT JUMPDEST PUSH7 0xFFFFFFFFFFFFFF DUP4 GT ISZERO PUSH2 0x1CA2 JUMPI PUSH1 0x0 DUP1 REVERT JUMPDEST DUP1 SLOAD PUSH7 0xFFFFFFFFFFFFFF SWAP1 SWAP4 AND PUSH1 0x1 PUSH1 0x70 SHL MUL PUSH7 0xFFFFFFFFFFFFFF PUSH1 0x70 SHL NOT PUSH1 0xA SWAP8 SWAP1 SWAP8 SIGNEXTEND PUSH11 0xFFFFFFFFFFFFFFFFFFFFFF AND PUSH1 0x1 PUSH1 0xA8 SHL MUL PUSH1 0x1 PUSH1 0x1 PUSH1 0xA8 SHL SUB PUSH4 0xFFFFFFFF SWAP1 SWAP7 AND PUSH1 0x1 PUSH1 0x50 SHL MUL PUSH4 0xFFFFFFFF PUSH1 0x50 SHL NOT PUSH1 0x1 PUSH1 0x1 PUSH1 0x50 SHL SUB SWAP1 SWAP9 AND PUSH10 0xFFFFFFFFFFFFFFFFFFFF NOT SWAP1 SWAP7 AND SWAP6 SWAP1 SWAP6 OR SWAP7 SWAP1 SWAP7 AND SWAP4 SWAP1 SWAP4 OR SWAP4 SWAP1 SWAP4 AND SWAP4 SWAP1 SWAP4 OR SWAP4 SWAP1 SWAP4 AND SWAP3 SWAP1 SWAP3 OR SWAP1 SWAP2 SSTORE POP POP POP JUMP JUMPDEST DUP3 PUSH1 0x0 LT DUP1 ISZERO PUSH2 0x1D49 JUMPI POP PUSH2 0x3FFF DUP4 GT ISZERO JUMPDEST PUSH2 0x1D52 JUMPI PUSH1 0x0 DUP1 REVERT JUMPDEST DUP2 DUP1 ISZERO PUSH2 0x1D66 JUMPI POP DUP3 DUP5 PUSH1 0x60 ADD MLOAD PUSH2 0xFFFF AND EQ JUMPDEST ISZERO PUSH2 0x1D70 JUMPI PUSH2 0x1F31 JUMP JUMPDEST PUSH1 0x80 DUP5 ADD MLOAD PUSH1 0x0 SWAP1 DUP2 JUMPDEST PUSH1 0x1 PUSH1 0x1 PUSH1 0x70 SHL SUB NOT DUP3 AND ISZERO PUSH2 0x1EEB JUMPI PUSH1 0xF0 DUP3 SWAP1 SHR PUSH2 0x3FFF AND DUP7 DUP2 EQ DUP1 ISZERO PUSH2 0x1D9F JUMPI POP DUP6 JUMPDEST ISZERO PUSH2 0x1DD7 JUMPI POP PUSH1 0x80 DUP8 ADD DUP1 MLOAD PUSH1 0x1 PUSH1 0x1 PUSH1 0xF0 SHL SUB NOT DUP7 AND PUSH1 0x10 SWAP1 SWAP4 MUL SWAP3 SWAP1 SWAP3 SHR SWAP2 SWAP1 SWAP2 OR PUSH1 0x1 PUSH1 0x1 PUSH1 0x70 SHL SUB NOT AND SWAP1 MSTORE POP PUSH2 0x1F31 SWAP1 POP JUMP JUMPDEST DUP7 DUP2 EQ DUP1 ISZERO PUSH2 0x1DE4 JUMPI POP DUP6 ISZERO JUMPDEST ISZERO PUSH2 0x1E39 JUMPI PUSH1 0x1 PUSH1 0x1 PUSH1 0xF0 SHL SUB NOT DUP6 AND NOT SWAP3 SWAP1 SWAP3 AND SWAP2 PUSH1 0x3 PUSH1 0xFE SHL DUP4 AND PUSH2 0x1E17 JUMPI PUSH1 0x10 DUP4 PUSH1 0x1 PUSH1 0x1 PUSH1 0x70 SHL SUB NOT AND SWAP1 SHL SWAP3 POP JUMPDEST POP PUSH1 0x1 PUSH1 0x1 PUSH1 0x70 SHL SUB NOT SWAP2 DUP3 AND PUSH1 0x10 SWAP1 SWAP2 MUL SHR SWAP2 SWAP1 SWAP2 OR AND PUSH1 0x80 DUP6 ADD MSTORE PUSH2 0x1F31 JUMP JUMPDEST DUP7 DUP2 GT DUP1 ISZERO PUSH2 0x1E45 JUMPI POP DUP6 JUMPDEST ISZERO PUSH2 0x1E9F JUMPI PUSH1 0x80 DUP9 DUP2 ADD MLOAD PUSH1 0x1 PUSH1 0x1 PUSH1 0xF0 SHL SUB NOT PUSH1 0xF0 DUP11 SWAP1 SHL DUP9 OR DUP2 AND PUSH1 0x10 DUP7 MUL SHR SWAP7 SWAP1 SWAP7 OR SWAP6 SWAP2 SHL AND ISZERO PUSH2 0x1E79 JUMPI PUSH1 0x0 DUP1 REVERT JUMPDEST POP PUSH1 0x1 PUSH1 0x1 PUSH1 0x70 SHL SUB NOT SWAP2 DUP3 AND PUSH1 0x1 SWAP2 SWAP1 SWAP2 ADD PUSH1 0x10 MUL SHR SWAP2 SWAP1 SWAP2 OR AND PUSH1 0x80 DUP6 ADD MSTORE PUSH2 0x1F31 JUMP JUMPDEST DUP7 DUP2 GT DUP1 ISZERO PUSH2 0x1EAC JUMPI POP DUP6 ISZERO JUMPDEST ISZERO PUSH2 0x1EBA JUMPI POP POP POP POP PUSH2 0x1F31 JUMP JUMPDEST POP PUSH1 0x1 PUSH1 0x1 PUSH1 0xF0 SHL SUB NOT DUP3 AND PUSH1 0x10 DUP3 DUP2 MUL SWAP2 SWAP1 SWAP2 SHR SWAP4 SWAP1 SWAP4 OR SWAP3 SWAP2 SWAP1 SWAP2 SHL PUSH1 0x1 PUSH1 0x1 PUSH1 0x80 SHL SUB NOT AND SWAP1 PUSH1 0x1 ADD PUSH2 0x1D7A JUMP JUMPDEST DUP5 PUSH2 0x1EF8 JUMPI POP POP POP PUSH2 0x1F31 JUMP JUMPDEST PUSH1 0x9 DUP2 LT PUSH2 0x1F05 JUMPI PUSH1 0x0 DUP1 REVERT JUMPDEST PUSH1 0x1 PUSH1 0x1 PUSH1 0xF0 SHL SUB NOT PUSH1 0xF0 DUP8 SWAP1 SHL DUP6 OR AND PUSH1 0x10 SWAP1 SWAP2 MUL SHR SWAP2 SWAP1 SWAP2 OR PUSH1 0x1 PUSH1 0x1 PUSH1 0x70 SHL SUB NOT AND PUSH1 0x80 DUP7 ADD MSTORE POP JUMPDEST POP POP POP POP JUMP JUMPDEST PUSH1 0x0 PUSH3 0xF4240 DUP3 PUSH1 0x12 DUP2 GT ISZERO PUSH2 0x1F49 JUMPI INVALID JUMPDEST ADD SWAP3 SWAP2 POP POP JUMP JUMPDEST PUSH1 0x0 DUP1 DUP1 DUP1 DUP1 DUP1 DUP1 DUP1 JUMPDEST DUP10 MLOAD MLOAD DUP2 LT ISZERO PUSH2 0x1FE1 JUMPI PUSH1 0x0 DUP11 PUSH1 0x0 ADD MLOAD DUP3 DUP2 MLOAD DUP2 LT PUSH2 0x1F76 JUMPI INVALID JUMPDEST PUSH1 0x20 MUL PUSH1 0x20 ADD ADD MLOAD SWAP1 POP PUSH1 0x3 DUP1 DUP2 GT ISZERO PUSH2 0x1F8C JUMPI INVALID JUMPDEST DUP2 PUSH1 0xA0 ADD MLOAD PUSH1 0x3 DUP2 GT ISZERO PUSH2 0x1F9C JUMPI INVALID JUMPDEST EQ ISZERO PUSH2 0x1FA7 JUMPI PUSH1 0x0 DUP1 REVERT JUMPDEST PUSH1 0x2 DUP2 PUSH1 0xA0 ADD MLOAD PUSH1 0x3 DUP2 GT ISZERO PUSH2 0x1FB9 JUMPI INVALID JUMPDEST EQ ISZERO DUP1 ISZERO PUSH2 0x1FC9 JUMPI POP PUSH1 0x60 DUP2 ADD MLOAD ISZERO JUMPDEST ISZERO PUSH2 0x1FD8 JUMPI PUSH2 0x1FD8 DUP12 DUP4 PUSH2 0x2741 JUMP JUMPDEST POP PUSH1 0x1 ADD PUSH2 0x1F5A JUMP JUMPDEST POP PUSH1 0x0 JUMPDEST DUP10 MLOAD MLOAD DUP2 LT ISZERO PUSH2 0x2084 JUMPI PUSH1 0x0 DUP11 PUSH1 0x0 ADD MLOAD DUP3 DUP2 MLOAD DUP2 LT PUSH2 0x2001 JUMPI INVALID JUMPDEST PUSH1 0x20 MUL PUSH1 0x20 ADD ADD MLOAD SWAP1 POP PUSH1 0x2 PUSH1 0x3 DUP2 GT ISZERO PUSH2 0x2018 JUMPI INVALID JUMPDEST DUP2 PUSH1 0xA0 ADD MLOAD PUSH1 0x3 DUP2 GT ISZERO PUSH2 0x2028 JUMPI INVALID JUMPDEST EQ ISZERO PUSH2 0x203C JUMPI PUSH1 0x80 DUP2 ADD MLOAD PUSH1 0x0 SWAP1 SSTORE PUSH2 0x207B JUMP JUMPDEST PUSH1 0x1 DUP2 PUSH1 0xA0 ADD MLOAD PUSH1 0x3 DUP2 GT ISZERO PUSH2 0x204E JUMPI INVALID JUMPDEST EQ ISZERO PUSH2 0x2067 JUMPI PUSH1 0x80 DUP2 ADD MLOAD DUP1 PUSH2 0x2064 DUP4 DUP3 PUSH2 0x30DD JUMP JUMPDEST POP POP JUMPDEST PUSH2 0x2073 DUP2 DUP7 DUP7 DUP7 PUSH2 0x320B JUMP JUMPDEST SWAP2 SWAP7 POP SWAP5 POP SWAP3 POP JUMPDEST POP PUSH1 0x1 ADD PUSH2 0x1FE5 JUMP JUMPDEST POP PUSH1 0x60 DUP10 ADD MLOAD PUSH1 0x0 PUSH2 0x2094 PUSH2 0x326E JUMP JUMPDEST PUSH1 0x1 PUSH1 0x1 PUSH1 0xA0 SHL SUB DUP12 AND PUSH1 0x0 SWAP1 DUP2 MSTORE PUSH1 0x20 DUP3 SWAP1 MSTORE PUSH1 0x40 DUP2 KECCAK256 SWAP2 SWAP3 POP JUMPDEST DUP13 PUSH1 0x20 ADD MLOAD MLOAD DUP2 LT ISZERO PUSH2 0x215E JUMPI PUSH1 0x0 DUP14 PUSH1 0x20 ADD MLOAD DUP3 DUP2 MLOAD DUP2 LT PUSH2 0x20CF JUMPI INVALID JUMPDEST PUSH1 0x20 MUL PUSH1 0x20 ADD ADD MLOAD SWAP1 POP DUP1 PUSH1 0x60 ADD MLOAD PUSH1 0x0 EQ ISZERO PUSH2 0x20EC JUMPI POP PUSH2 0x2156 JUMP JUMPDEST PUSH1 0x2 DUP2 PUSH1 0xA0 ADD MLOAD PUSH1 0x3 DUP2 GT ISZERO PUSH2 0x20FE JUMPI INVALID JUMPDEST EQ ISZERO DUP1 ISZERO PUSH2 0x211C JUMPI POP PUSH1 0x3 DUP2 PUSH1 0xA0 ADD MLOAD PUSH1 0x3 DUP2 GT ISZERO PUSH2 0x2119 JUMPI INVALID JUMPDEST EQ ISZERO JUMPDEST PUSH2 0x2125 JUMPI PUSH1 0x0 DUP1 REVERT JUMPDEST PUSH2 0x2131 DUP2 DUP10 DUP10 DUP10 PUSH2 0x320B JUMP JUMPDEST SWAP2 SWAP10 POP SWAP8 POP SWAP6 POP PUSH2 0x214E DUP2 DUP5 DUP8 PUSH1 0x10 DUP2 LT PUSH2 0x2148 JUMPI INVALID JUMPDEST ADD PUSH2 0x30DD JUMP JUMPDEST PUSH1 0x1 DUP6 ADD SWAP5 POP POP JUMPDEST PUSH1 0x1 ADD PUSH2 0x20B0 JUMP JUMPDEST POP PUSH1 0x10 DUP4 GT ISZERO DUP1 ISZERO PUSH2 0x2175 JUMPI POP PUSH5 0xFFFFFFFFFF DUP5 GT ISZERO JUMPDEST PUSH2 0x217E JUMPI PUSH1 0x0 DUP1 REVERT JUMPDEST POP SWAP4 SWAP11 SWAP3 SWAP10 POP SWAP8 POP SWAP6 POP SWAP4 POP POP POP POP JUMP JUMPDEST PUSH1 0x0 TIMESTAMP PUSH2 0x219B DUP4 PUSH2 0x1010 JUMP JUMPDEST ISZERO PUSH2 0x21BC JUMPI PUSH2 0x21A9 DUP2 PUSH2 0x327B JUMP JUMPDEST DUP4 MLOAD PUSH5 0xFFFFFFFFFF AND LT SWAP2 POP PUSH2 0x442 SWAP1 POP JUMP JUMPDEST DUP3 MLOAD PUSH5 0xFFFFFFFFFF AND ISZERO DUP1 ISZERO SWAP1 PUSH2 0x21DB JUMPI POP DUP3 MLOAD PUSH5 0xFFFFFFFFFF AND DUP2 LT ISZERO JUMPDEST SWAP2 POP POP PUSH2 0x442 JUMP JUMPDEST PUSH1 0x0 DUP1 PUSH32 0x7FFF7FFF7FFF7FFF7FFF7FFF7FFF7FFF7FFF0000000000000000000000000000 DUP4 AND DUP2 JUMPDEST PUSH1 0x1 PUSH1 0x1 PUSH1 0x70 SHL SUB NOT DUP3 AND ISZERO PUSH2 0x2255 JUMPI PUSH1 0x1 PUSH1 0xFE SHL DUP3 DUP2 AND EQ ISZERO PUSH2 0x223F JUMPI PUSH1 0x1 PUSH1 0x1 PUSH1 0xF0 SHL SUB NOT DUP3 AND DUP2 SHR SWAP3 SWAP1 SWAP3 OR SWAP2 PUSH1 0x10 ADD JUMPDEST PUSH1 0x10 DUP3 PUSH1 0x1 PUSH1 0x1 PUSH1 0x70 SHL SUB NOT AND SWAP1 SHL SWAP2 POP PUSH2 0x220B JUMP JUMPDEST POP SWAP1 SWAP4 SWAP3 POP POP POP JUMP JUMPDEST PUSH1 0x0 DUP1 PUSH1 0x0 DUP1 PUSH2 0x226D DUP7 PUSH2 0x329C JUMP JUMPDEST DUP1 SWAP4 POP DUP2 SWAP3 POP POP POP PUSH1 0x0 PUSH2 0x22A9 DUP8 PUSH1 0xE0 ADD MLOAD PUSH1 0x60 ADD MLOAD PUSH2 0x22A3 DUP6 PUSH2 0xB03 PUSH1 0x64 DUP13 PUSH1 0xC0 ADD MLOAD PUSH1 0x40 ADD MLOAD PUSH2 0xB99 SWAP1 SWAP2 SWAP1 PUSH4 0xFFFFFFFF AND JUMP JUMPDEST SWAP1 PUSH2 0x16D5 JUMP JUMPDEST SWAP1 POP PUSH2 0x22BA DUP2 PUSH2 0xB03 DUP5 PUSH1 0x64 PUSH2 0xB99 JUMP JUMPDEST SWAP5 POP POP PUSH2 0x22CC DUP5 DUP8 PUSH1 0x60 ADD MLOAD DUP8 PUSH2 0x171C JUMP JUMPDEST SWAP4 POP PUSH1 0x0 PUSH2 0x22EC DUP6 DUP9 PUSH2 0x120 ADD MLOAD PUSH1 0x40 ADD MLOAD PUSH2 0x2584 SWAP1 SWAP2 SWAP1 PUSH4 0xFFFFFFFF AND JUMP JUMPDEST SWAP1 POP PUSH2 0x22FA DUP8 DUP5 DUP4 DUP9 PUSH2 0x25AF JUMP JUMPDEST SWAP1 SWAP6 POP SWAP4 POP POP POP JUMPDEST SWAP3 POP SWAP3 POP SWAP3 JUMP JUMPDEST PUSH1 0x0 PUSH2 0x2315 DUP4 DUP4 PUSH2 0x16D5 JUMP JUMPDEST SWAP1 POP PUSH1 0x0 DUP2 SLT ISZERO PUSH2 0xBE7 JUMPI PUSH1 0x0 DUP1 REVERT JUMPDEST PUSH1 0x0 DUP5 PUSH1 0x20 ADD MLOAD MLOAD PUSH1 0x0 EQ PUSH2 0x2339 JUMPI PUSH1 0x0 DUP1 REVERT JUMPDEST PUSH2 0x2341 PUSH2 0x41DA JUMP JUMPDEST DUP6 MLOAD MLOAD JUMPDEST PUSH1 0x0 NOT DUP2 ADD SWAP1 ISZERO PUSH2 0x24BB JUMPI PUSH1 0x0 DUP8 PUSH1 0x0 ADD MLOAD DUP3 DUP2 MLOAD DUP2 LT PUSH2 0x2362 JUMPI INVALID JUMPDEST PUSH1 0x20 MUL PUSH1 0x20 ADD ADD MLOAD SWAP1 POP PUSH2 0x2383 DUP2 DUP9 PUSH2 0x120 ADD MLOAD PUSH1 0x0 ADD MLOAD PUSH2 0xFFFF AND PUSH2 0x2679 JUMP JUMPDEST PUSH2 0x238D JUMPI POP PUSH2 0x24B6 JUMP JUMPDEST PUSH1 0x0 DUP1 PUSH2 0x23A1 DUP4 DUP11 PUSH2 0x120 ADD MLOAD DUP8 DUP12 PUSH2 0x26B5 JUMP JUMPDEST SWAP2 POP SWAP2 POP DUP7 DUP3 SGT PUSH2 0x23DD JUMPI PUSH2 0x23B6 DUP11 DUP6 PUSH2 0x2741 JUMP JUMPDEST DUP9 PUSH2 0x140 ADD MLOAD PUSH2 0x23D3 JUMPI PUSH1 0x60 DUP4 ADD MLOAD PUSH2 0x23D0 SWAP1 DUP7 SWAP1 PUSH2 0x2891 JUMP JUMPDEST POP POP JUMPDEST DUP2 DUP8 SUB SWAP7 POP PUSH2 0x247E JUMP JUMPDEST PUSH1 0x0 PUSH2 0x23FA DUP4 PUSH2 0xB03 DUP11 DUP8 PUSH1 0x60 ADD MLOAD PUSH2 0xB99 SWAP1 SWAP2 SWAP1 PUSH4 0xFFFFFFFF AND JUMP JUMPDEST SWAP1 POP DUP10 PUSH2 0x140 ADD MLOAD PUSH2 0x241A JUMPI PUSH2 0x2410 DUP7 DUP3 PUSH2 0x2891 JUMP JUMPDEST SWAP1 SWAP4 POP SWAP2 POP PUSH2 0x245D JUMP JUMPDEST PUSH2 0x2439 DUP7 PUSH1 0x80 ADD MLOAD PUSH2 0xB03 DUP4 DUP10 PUSH1 0x60 ADD MLOAD PUSH2 0xB99 SWAP1 SWAP2 SWAP1 PUSH4 0xFFFFFFFF AND JUMP JUMPDEST SWAP3 POP PUSH2 0x245A DUP7 PUSH1 0x80 ADD MLOAD PUSH2 0xB03 DUP4 DUP10 PUSH1 0x40 ADD MLOAD PUSH2 0xB99 SWAP1 SWAP2 SWAP1 PUSH4 0xFFFFFFFF AND JUMP JUMPDEST SWAP2 POP JUMPDEST PUSH1 0x60 DUP5 ADD MLOAD PUSH2 0x246C SWAP1 DUP3 PUSH2 0x2309 JUMP JUMPDEST PUSH1 0x60 DUP6 ADD MSTORE POP PUSH1 0x1 PUSH1 0xA0 DUP5 ADD MSTORE PUSH1 0x0 SWAP7 POP JUMPDEST PUSH2 0x120 DUP10 ADD MLOAD MLOAD PUSH1 0x20 DUP5 ADD MLOAD PUSH2 0x249F SWAP2 DUP13 SWAP2 PUSH2 0xFFFF SWAP1 SWAP2 AND SWAP1 PUSH1 0x1 DUP6 PUSH2 0x2940 JUMP JUMPDEST DUP7 PUSH2 0x24B2 JUMPI PUSH1 0x0 SWAP6 POP POP POP POP POP POP PUSH2 0x51F JUMP JUMPDEST POP POP POP JUMPDEST PUSH2 0x2345 JUMP JUMPDEST POP SWAP2 SWAP6 SWAP5 POP POP POP POP POP JUMP JUMPDEST PUSH1 0xA0 DUP4 ADD MLOAD PUSH1 0x80 DUP5 ADD MLOAD PUSH1 0x0 SWAP2 DUP1 DUP4 BYTE SWAP2 PUSH1 0x3 SWAP2 SWAP1 SWAP2 BYTE SWAP1 DUP4 SWAP1 PUSH2 0x2509 SWAP1 PUSH2 0x24EE SWAP1 DUP6 PUSH2 0xB99 JUMP JUMPDEST PUSH2 0xB03 DUP5 PUSH2 0xAFD DUP13 PUSH1 0x40 ADD MLOAD DUP12 PUSH2 0xB99 SWAP1 SWAP2 SWAP1 PUSH4 0xFFFFFFFF AND JUMP JUMPDEST SWAP1 POP PUSH1 0x0 DUP6 SGT DUP1 ISZERO PUSH2 0x251A JUMPI POP DUP5 DUP2 SGT JUMPDEST ISZERO PUSH2 0x2522 JUMPI POP DUP4 JUMPDEST DUP8 PUSH1 0x40 ADD MLOAD DUP2 SGT ISZERO PUSH2 0x2535 JUMPI POP PUSH1 0x40 DUP8 ADD MLOAD JUMPDEST PUSH2 0x253E DUP2 PUSH2 0x431 JUMP JUMPDEST DUP9 PUSH1 0xA0 ADD DUP2 DUP2 MSTORE POP POP PUSH2 0x2578 PUSH2 0x2571 DUP10 PUSH1 0x40 ADD MLOAD PUSH2 0xB03 DUP6 PUSH2 0xB03 DUP9 PUSH2 0xAFD DUP15 PUSH1 0x80 ADD MLOAD DUP10 PUSH2 0xB99 SWAP1 SWAP2 SWAP1 PUSH4 0xFFFFFFFF AND JUMP JUMPDEST DUP8 SWAP1 PUSH2 0x2309 JUMP JUMPDEST SWAP9 SWAP8 POP POP POP POP POP POP POP POP JUMP JUMPDEST PUSH1 0x0 DUP1 PUSH2 0x51F DUP5 PUSH1 0x40 ADD MLOAD PUSH2 0xB03 PUSH5 0x2540BE400 PUSH2 0xB03 DUP8 DUP10 PUSH1 0x20 ADD MLOAD PUSH2 0xB99 SWAP1 SWAP2 SWAP1 PUSH4 0xFFFFFFFF AND JUMP JUMPDEST PUSH1 0x0 DUP1 PUSH1 0x0 PUSH2 0x25E2 DUP7 PUSH2 0xB03 PUSH2 0x25CD DUP11 PUSH1 0xC0 ADD MLOAD DUP12 PUSH1 0xE0 ADD MLOAD PUSH2 0x32F0 JUMP JUMPDEST PUSH1 0xC0 DUP12 ADD MLOAD MLOAD PUSH2 0xB03 SWAP1 PUSH2 0xAFD DUP12 PUSH1 0x64 PUSH2 0xB99 JUMP JUMPDEST SWAP1 POP PUSH1 0x0 PUSH2 0x25FE DUP3 DUP10 PUSH2 0x100 ADD MLOAD PUSH2 0x1463 SWAP1 SWAP2 SWAP1 PUSH4 0xFFFFFFFF AND JUMP JUMPDEST SWAP1 POP PUSH1 0x0 PUSH2 0x260F DUP10 PUSH1 0x40 ADD MLOAD PUSH2 0x431 JUMP JUMPDEST SWAP1 POP DUP1 DUP3 SGT ISZERO PUSH2 0x262D JUMPI PUSH2 0x2627 DUP3 PUSH2 0xB03 DUP9 DUP5 PUSH2 0xB99 JUMP JUMPDEST SWAP6 POP DUP1 SWAP2 POP JUMPDEST POP SWAP4 SWAP8 SWAP4 SWAP7 POP SWAP3 SWAP5 POP POP POP POP POP JUMP JUMPDEST PUSH1 0x0 DUP1 PUSH2 0xBE7 PUSH1 0x6 PUSH2 0x1F37 JUMP JUMPDEST PUSH1 0x8 DUP2 SWAP1 SHR PUSH1 0xFF SWAP1 SWAP2 AND SHL SWAP1 JUMP JUMPDEST PUSH1 0x0 DUP1 PUSH2 0x51F DUP5 PUSH1 0x20 ADD MLOAD PUSH2 0xB03 DUP7 PUSH1 0x0 ADD MLOAD DUP7 PUSH2 0xB99 SWAP1 SWAP2 SWAP1 PUSH4 0xFFFFFFFF AND JUMP JUMPDEST DUP2 MLOAD PUSH1 0x0 SWAP1 DUP3 EQ DUP1 ISZERO PUSH2 0x2694 JUMPI POP PUSH2 0x2694 DUP4 PUSH1 0x40 ADD MLOAD PUSH2 0x3315 JUMP JUMPDEST DUP1 ISZERO PUSH2 0xCD9 JUMPI POP PUSH1 0x0 DUP4 PUSH1 0xA0 ADD MLOAD PUSH1 0x3 DUP2 GT ISZERO PUSH2 0x26AD JUMPI INVALID JUMPDEST EQ SWAP4 SWAP3 POP POP POP JUMP JUMPDEST PUSH1 0x40 DUP5 ADD MLOAD PUSH1 0x0 SWAP1 DUP2 SWAP1 PUSH1 0x0 NOT ADD PUSH2 0x26D1 DUP7 DUP7 DUP4 PUSH1 0x1 DUP9 PUSH2 0x332B JUMP JUMPDEST PUSH2 0x26DB DUP8 DUP7 PUSH2 0x339E JUMP JUMPDEST SWAP1 SWAP9 SWAP1 SWAP8 POP SWAP6 POP POP POP POP POP POP JUMP JUMPDEST PUSH1 0x0 DUP1 PUSH1 0x0 PUSH2 0x2706 DUP5 DUP8 PUSH2 0x120 ADD MLOAD PUSH2 0x3419 SWAP1 SWAP2 SWAP1 PUSH4 0xFFFFFFFF AND JUMP JUMPDEST PUSH1 0xFF AND SWAP1 POP PUSH2 0x2724 PUSH1 0x64 PUSH2 0xB03 PUSH2 0x271D DUP3 DUP6 PUSH2 0x16D5 JUMP JUMPDEST DUP9 SWAP1 PUSH2 0xB99 JUMP JUMPDEST SWAP3 POP PUSH2 0x2736 PUSH1 0x64 PUSH2 0xB03 DUP6 PUSH1 0x1E PUSH2 0xB99 JUMP JUMPDEST SWAP2 POP POP SWAP4 POP SWAP4 SWAP2 POP POP JUMP JUMPDEST DUP2 MLOAD MLOAD DUP2 LT PUSH2 0x274F JUMPI PUSH1 0x0 DUP1 REVERT JUMPDEST PUSH1 0x0 DUP3 PUSH1 0x60 ADD MLOAD GT PUSH2 0x2760 JUMPI PUSH1 0x0 DUP1 REVERT JUMPDEST PUSH1 0x0 DUP3 PUSH1 0x0 ADD MLOAD DUP3 DUP2 MLOAD DUP2 LT PUSH2 0x2772 JUMPI INVALID JUMPDEST PUSH1 0x20 MUL PUSH1 0x20 ADD ADD MLOAD SWAP1 POP PUSH1 0x2 PUSH1 0x3 DUP2 GT ISZERO PUSH2 0x2789 JUMPI INVALID JUMPDEST DUP2 PUSH1 0xA0 ADD MLOAD PUSH1 0x3 DUP2 GT ISZERO PUSH2 0x2799 JUMPI INVALID JUMPDEST EQ ISZERO DUP1 ISZERO PUSH2 0x27B7 JUMPI POP PUSH1 0x3 DUP2 PUSH1 0xA0 ADD MLOAD PUSH1 0x3 DUP2 GT ISZERO PUSH2 0x27B4 JUMPI INVALID JUMPDEST EQ ISZERO JUMPDEST PUSH2 0x27C0 JUMPI PUSH1 0x0 DUP1 REVERT JUMPDEST PUSH1 0x60 DUP4 ADD DUP1 MLOAD PUSH1 0x0 NOT ADD SWAP1 MSTORE PUSH1 0x0 DUP1 DUP1 JUMPDEST DUP6 MLOAD MLOAD DUP2 LT ISZERO PUSH2 0x2833 JUMPI PUSH1 0x0 DUP7 PUSH1 0x0 ADD MLOAD DUP3 DUP2 MLOAD DUP2 LT PUSH2 0x27ED JUMPI INVALID JUMPDEST PUSH1 0x20 MUL PUSH1 0x20 ADD ADD MLOAD SWAP1 POP DUP3 DUP2 PUSH1 0x80 ADD MLOAD GT DUP1 ISZERO PUSH2 0x281A JUMPI POP PUSH1 0x2 DUP2 PUSH1 0xA0 ADD MLOAD PUSH1 0x3 DUP2 GT ISZERO PUSH2 0x2817 JUMPI INVALID JUMPDEST EQ ISZERO JUMPDEST ISZERO PUSH2 0x282A JUMPI DUP1 PUSH1 0x80 ADD MLOAD SWAP3 POP DUP2 SWAP4 POP JUMPDEST POP PUSH1 0x1 ADD PUSH2 0x27D1 JUMP JUMPDEST POP DUP2 DUP5 EQ ISZERO PUSH2 0x284C JUMPI POP POP PUSH1 0x2 PUSH1 0xA0 SWAP2 SWAP1 SWAP2 ADD MSTORE PUSH2 0x288D JUMP JUMPDEST PUSH1 0x0 DUP6 PUSH1 0x0 ADD MLOAD DUP4 DUP2 MLOAD DUP2 LT PUSH2 0x285E JUMPI INVALID JUMPDEST PUSH1 0x20 SWAP1 DUP2 MUL SWAP2 SWAP1 SWAP2 ADD ADD MLOAD PUSH1 0x80 DUP6 DUP2 ADD DUP1 MLOAD SWAP2 DUP4 ADD DUP1 MLOAD SWAP1 SWAP2 MSTORE MSTORE PUSH1 0x1 PUSH1 0xA0 SWAP2 DUP3 ADD MSTORE PUSH1 0x2 SWAP5 ADD SWAP4 SWAP1 SWAP4 MSTORE POP POP POP JUMPDEST POP POP JUMP JUMPDEST PUSH1 0x0 DUP1 DUP3 PUSH2 0x28A4 JUMPI POP PUSH1 0x0 SWAP1 POP DUP1 PUSH2 0x2939 JUMP JUMPDEST PUSH1 0x0 DUP4 SGT PUSH2 0x28B1 JUMPI PUSH1 0x0 DUP1 REVERT JUMPDEST PUSH2 0x28D0 DUP5 PUSH1 0x80 ADD MLOAD PUSH2 0xB03 DUP6 DUP8 PUSH1 0x60 ADD MLOAD PUSH2 0xB99 SWAP1 SWAP2 SWAP1 PUSH4 0xFFFFFFFF AND JUMP JUMPDEST SWAP2 POP PUSH2 0x28F1 DUP5 PUSH1 0x80 ADD MLOAD PUSH2 0xB03 DUP6 DUP8 PUSH1 0x40 ADD MLOAD PUSH2 0xB99 SWAP1 SWAP2 SWAP1 PUSH4 0xFFFFFFFF AND JUMP JUMPDEST PUSH1 0x80 DUP6 ADD MLOAD SWAP1 SWAP2 POP PUSH2 0x2903 SWAP1 DUP5 PUSH2 0x2309 JUMP JUMPDEST PUSH1 0x80 DUP6 ADD MSTORE PUSH1 0x40 DUP5 ADD MLOAD PUSH2 0x2917 SWAP1 DUP3 PUSH2 0x2309 JUMP JUMPDEST PUSH1 0x40 DUP6 ADD MSTORE PUSH1 0x60 DUP5 ADD MLOAD PUSH2 0x292B SWAP1 DUP4 PUSH2 0x2309 JUMP JUMPDEST PUSH1 0x60 DUP6 ADD MSTORE PUSH2 0x2939 DUP5 PUSH2 0x344E JUMP JUMPDEST SWAP3 POP SWAP3 SWAP1 POP JUMP JUMPDEST DUP5 MLOAD PUSH2 0x294F SWAP1 DUP6 DUP6 DUP6 DUP6 PUSH2 0x34A6 JUMP JUMPDEST ISZERO PUSH2 0x2959 JUMPI PUSH2 0x2A3E JUMP JUMPDEST PUSH1 0x40 DUP6 ADD MLOAD ISZERO PUSH2 0x2986 JUMPI PUSH1 0x0 PUSH2 0x2976 DUP7 PUSH1 0x20 ADD MLOAD DUP7 DUP7 DUP7 DUP7 PUSH2 0x34A6 JUMP JUMPDEST SWAP1 POP DUP1 ISZERO PUSH2 0x2984 JUMPI POP PUSH2 0x2A3E JUMP JUMPDEST POP JUMPDEST PUSH2 0x298F DUP3 PUSH2 0x3315 JUMP JUMPDEST ISZERO PUSH2 0x29A2 JUMPI PUSH1 0x0 DUP2 SLT ISZERO PUSH2 0x29A2 JUMPI PUSH1 0x0 DUP1 REVERT JUMPDEST PUSH1 0x1 PUSH1 0x1 PUSH1 0x57 SHL SUB NOT DUP2 SLT DUP1 ISZERO SWAP1 PUSH2 0x29C1 JUMPI POP PUSH1 0x1 PUSH1 0x1 PUSH1 0x57 SHL SUB DUP2 SGT ISZERO JUMPDEST PUSH2 0x29CA JUMPI PUSH1 0x0 DUP1 REVERT JUMPDEST DUP5 PUSH1 0x20 ADD MLOAD MLOAD DUP6 PUSH1 0x40 ADD MLOAD EQ ISZERO PUSH2 0x29EE JUMPI PUSH2 0x29E8 DUP6 PUSH1 0x20 ADD MLOAD PUSH2 0x35B7 JUMP JUMPDEST PUSH1 0x20 DUP7 ADD MSTORE JUMPDEST PUSH1 0x0 DUP6 PUSH1 0x20 ADD MLOAD DUP7 PUSH1 0x40 ADD MLOAD DUP2 MLOAD DUP2 LT PUSH2 0x2A04 JUMPI INVALID JUMPDEST PUSH1 0x20 SWAP1 DUP2 MUL SWAP2 SWAP1 SWAP2 ADD DUP2 ADD MLOAD DUP7 DUP2 MSTORE SWAP1 DUP2 ADD DUP6 SWAP1 MSTORE PUSH1 0x40 DUP1 DUP3 ADD DUP6 SWAP1 MSTORE PUSH1 0x60 DUP3 ADD DUP5 SWAP1 MSTORE PUSH1 0x0 PUSH1 0xA0 SWAP1 SWAP3 ADD SWAP2 SWAP1 SWAP2 MSTORE DUP7 ADD DUP1 MLOAD PUSH1 0x1 ADD SWAP1 MSTORE POP JUMPDEST POP POP POP POP POP JUMP JUMPDEST PUSH1 0x0 DUP1 PUSH2 0xBE7 PUSH1 0x7 PUSH2 0x1F37 JUMP JUMPDEST PUSH1 0x40 MLOAD PUSH4 0xD15E0053 PUSH1 0xE0 SHL DUP2 MSTORE PUSH1 0x0 SWAP1 PUSH2 0x43F SWAP1 PUSH20 0x7D2768DE32B0B80B7A3454C06BDAC94A69DDC7A9 SWAP1 PUSH4 0xD15E0053 SWAP1 PUSH2 0x2A90 SWAP1 DUP7 SWAP1 PUSH1 0x4 ADD PUSH2 0x488D JUMP JUMPDEST PUSH1 0x20 PUSH1 0x40 MLOAD DUP1 DUP4 SUB DUP2 DUP7 DUP1 EXTCODESIZE ISZERO DUP1 ISZERO PUSH2 0x2AA8 JUMPI PUSH1 0x0 DUP1 REVERT JUMPDEST POP GAS STATICCALL ISZERO DUP1 ISZERO PUSH2 0x2ABC JUMPI RETURNDATASIZE PUSH1 0x0 DUP1 RETURNDATACOPY RETURNDATASIZE PUSH1 0x0 REVERT JUMPDEST POP POP POP POP PUSH1 0x40 MLOAD RETURNDATASIZE PUSH1 0x1F NOT PUSH1 0x1F DUP3 ADD AND DUP3 ADD DUP1 PUSH1 0x40 MSTORE POP DUP2 ADD SWAP1 PUSH2 0x198F SWAP2 SWAP1 PUSH2 0x4875 JUMP JUMPDEST PUSH1 0x0 DUP1 DUP3 SLT ISZERO PUSH2 0x2AFA JUMPI PUSH2 0x2AF3 DUP3 PUSH2 0x431 JUMP JUMPDEST SWAP1 POP PUSH2 0x442 JUMP JUMPDEST POP DUP1 PUSH2 0x442 JUMP JUMPDEST PUSH1 0x40 DUP1 MLOAD PUSH1 0x1 PUSH1 0x1 PUSH1 0xA0 SHL SUB DUP5 DUP2 AND PUSH1 0x24 DUP1 DUP5 ADD SWAP2 SWAP1 SWAP2 MSTORE DUP4 MLOAD DUP1 DUP5 SUB SWAP1 SWAP2 ADD DUP2 MSTORE PUSH1 0x44 SWAP1 SWAP3 ADD DUP4 MSTORE PUSH1 0x20 DUP3 ADD DUP1 MLOAD PUSH1 0x1 PUSH1 0x1 PUSH1 0xE0 SHL SUB AND PUSH1 0x1 PUSH1 0x1 PUSH1 0xE0 SHL SUB NOT DUP7 AND OR DUP2 MSTORE SWAP3 MLOAD DUP3 MLOAD PUSH1 0x0 SWAP5 DUP6 SWAP5 DUP6 SWAP5 DUP11 AND SWAP4 SWAP1 SWAP3 SWAP1 SWAP2 DUP3 SWAP2 DUP1 DUP4 DUP4 JUMPDEST PUSH1 0x20 DUP4 LT PUSH2 0x2B7E JUMPI DUP1 MLOAD DUP3 MSTORE PUSH1 0x1F NOT SWAP1 SWAP3 ADD SWAP2 PUSH1 0x20 SWAP2 DUP3 ADD SWAP2 ADD PUSH2 0x2B5F JUMP JUMPDEST PUSH1 0x1 DUP4 PUSH1 0x20 SUB PUSH2 0x100 EXP SUB DUP1 NOT DUP3 MLOAD AND DUP2 DUP5 MLOAD AND DUP1 DUP3 OR DUP6 MSTORE POP POP POP POP POP POP SWAP1 POP ADD SWAP2 POP POP PUSH1 0x0 PUSH1 0x40 MLOAD DUP1 DUP4 SUB DUP2 DUP6 GAS STATICCALL SWAP2 POP POP RETURNDATASIZE DUP1 PUSH1 0x0 DUP2 EQ PUSH2 0x2BDE JUMPI PUSH1 0x40 MLOAD SWAP2 POP PUSH1 0x1F NOT PUSH1 0x3F RETURNDATASIZE ADD AND DUP3 ADD PUSH1 0x40 MSTORE RETURNDATASIZE DUP3 MSTORE RETURNDATASIZE PUSH1 0x0 PUSH1 0x20 DUP5 ADD RETURNDATACOPY PUSH2 0x2BE3 JUMP JUMPDEST PUSH1 0x60 SWAP2 POP JUMPDEST POP SWAP2 POP SWAP2 POP DUP2 PUSH2 0x2BF2 JUMPI PUSH1 0x0 DUP1 REVERT JUMPDEST DUP1 DUP1 PUSH1 0x20 ADD SWAP1 MLOAD PUSH1 0x20 DUP2 LT ISZERO PUSH2 0x2C07 JUMPI PUSH1 0x0 DUP1 REVERT JUMPDEST POP MLOAD SWAP7 SWAP6 POP POP POP POP POP POP JUMP JUMPDEST PUSH1 0x40 DUP1 MLOAD PUSH4 0x23B872DD PUSH1 0xE0 SHL DUP2 MSTORE PUSH1 0x1 PUSH1 0x1 PUSH1 0xA0 SHL SUB DUP5 DUP2 AND PUSH1 0x4 DUP4 ADD MSTORE ADDRESS PUSH1 0x24 DUP4 ADD MSTORE PUSH1 0x44 DUP3 ADD DUP5 SWAP1 MSTORE SWAP2 MLOAD SWAP2 DUP6 AND SWAP2 PUSH4 0x23B872DD SWAP2 PUSH1 0x64 DUP1 DUP3 ADD SWAP3 PUSH1 0x0 SWAP3 SWAP1 SWAP2 SWAP1 DUP3 SWAP1 SUB ADD DUP2 DUP4 DUP8 DUP1 EXTCODESIZE ISZERO DUP1 ISZERO PUSH2 0x1A43 JUMPI PUSH1 0x0 DUP1 REVERT JUMPDEST PUSH1 0x0 PUSH1 0x1 PUSH1 0x1 PUSH1 0xFF SHL SUB DUP3 GT ISZERO PUSH2 0x1B27 JUMPI PUSH1 0x0 DUP1 REVERT JUMPDEST PUSH1 0x0 PUSH4 0x5F5E100 DUP4 PUSH1 0x40 ADD MLOAD EQ ISZERO PUSH2 0x2C9A JUMPI POP DUP1 PUSH2 0xBE7 JUMP JUMPDEST PUSH1 0x40 DUP4 ADD MLOAD PUSH2 0xCD9 SWAP1 PUSH2 0xB03 DUP5 PUSH4 0x5F5E100 PUSH2 0xB99 JUMP JUMPDEST PUSH1 0x0 DUP3 DUP3 GT ISZERO PUSH2 0x2D08 JUMPI PUSH1 0x40 DUP1 MLOAD PUSH3 0x461BCD PUSH1 0xE5 SHL DUP2 MSTORE PUSH1 0x20 PUSH1 0x4 DUP3 ADD MSTORE PUSH1 0x1E PUSH1 0x24 DUP3 ADD MSTORE PUSH32 0x536166654D6174683A207375627472616374696F6E206F766572666C6F770000 PUSH1 0x44 DUP3 ADD MSTORE SWAP1 MLOAD SWAP1 DUP2 SWAP1 SUB PUSH1 0x64 ADD SWAP1 REVERT JUMPDEST POP SWAP1 SUB SWAP1 JUMP JUMPDEST PUSH1 0x0 PUSH2 0x2D18 PUSH2 0x4222 JUMP JUMPDEST RETURNDATASIZE DUP1 ISZERO PUSH2 0x2D2C JUMPI PUSH1 0x20 DUP2 EQ PUSH2 0x2D35 JUMPI PUSH1 0x0 DUP1 REVERT JUMPDEST PUSH1 0x1 SWAP3 POP PUSH2 0x2D40 JUMP JUMPDEST PUSH1 0x20 PUSH1 0x0 DUP4 RETURNDATACOPY DUP2 MLOAD SWAP3 POP JUMPDEST POP DUP2 PUSH2 0x288D JUMPI PUSH1 0x40 DUP1 MLOAD PUSH3 0x461BCD PUSH1 0xE5 SHL DUP2 MSTORE PUSH1 0x20 PUSH1 0x4 DUP3 ADD MSTORE PUSH1 0x5 PUSH1 0x24 DUP3 ADD MSTORE PUSH5 0x455243323 PUSH1 0xDC SHL PUSH1 0x44 DUP3 ADD MSTORE SWAP1 MLOAD SWAP1 DUP2 SWAP1 SUB PUSH1 0x64 ADD SWAP1 REVERT JUMPDEST PUSH1 0x0 DUP1 PUSH1 0x2 DUP7 PUSH1 0x60 ADD MLOAD PUSH1 0x5 DUP2 GT ISZERO PUSH2 0x2D90 JUMPI INVALID JUMPDEST EQ ISZERO PUSH2 0x2DA8 JUMPI PUSH2 0x2DA1 DUP7 DUP6 DUP6 PUSH2 0x3670 JUMP JUMPDEST SWAP1 POP PUSH2 0x2E05 JUMP JUMPDEST PUSH1 0x0 PUSH2 0x2DB3 DUP7 PUSH2 0x1814 JUMP JUMPDEST SWAP1 POP PUSH1 0x5 DUP8 PUSH1 0x60 ADD MLOAD PUSH1 0x5 DUP2 GT ISZERO PUSH2 0x2DC7 JUMPI INVALID JUMPDEST EQ ISZERO PUSH2 0x2DDF JUMPI PUSH2 0x2DD8 DUP2 DUP7 DUP7 PUSH2 0x372D JUMP JUMPDEST SWAP2 POP PUSH2 0x2E03 JUMP JUMPDEST PUSH1 0x1 DUP8 PUSH1 0x60 ADD MLOAD PUSH1 0x5 DUP2 GT ISZERO PUSH2 0x2DF1 JUMPI INVALID JUMPDEST EQ ISZERO PUSH2 0x88 JUMPI PUSH2 0x2DD8 DUP8 DUP3 DUP8 DUP8 PUSH2 0x37DD JUMP JUMPDEST POP JUMPDEST PUSH2 0x18AF PUSH2 0x2E11 DUP3 PUSH2 0x2C6B JUMP JUMPDEST PUSH2 0x431 JUMP JUMPDEST PUSH1 0x0 DUP1 PUSH2 0x2E21 PUSH2 0x38DB JUMP JUMPDEST PUSH1 0x0 SWAP4 DUP5 MSTORE PUSH1 0x20 MSTORE POP POP PUSH1 0x40 SWAP1 KECCAK256 SLOAD PUSH1 0x1 PUSH1 0x1 PUSH1 0xA0 SHL SUB AND SWAP1 JUMP JUMPDEST PUSH1 0x0 DUP1 PUSH1 0x0 PUSH2 0x2E4B DUP7 DUP6 PUSH2 0x38E8 JUMP JUMPDEST POP SWAP2 POP SWAP2 POP PUSH1 0x0 PUSH2 0x2E5A PUSH2 0x397D JUMP JUMPDEST PUSH1 0x1 PUSH1 0x1 PUSH1 0xA0 SHL SUB DUP9 AND PUSH1 0x0 SWAP1 DUP2 MSTORE PUSH1 0x20 DUP3 SWAP1 MSTORE PUSH1 0x40 DUP2 KECCAK256 SWAP2 SWAP3 POP PUSH2 0x2E7F DUP6 DUP10 PUSH2 0x12CB JUMP JUMPDEST SWAP1 POP DUP1 PUSH1 0x0 SGT ISZERO DUP1 ISZERO PUSH2 0x2E98 JUMPI POP PUSH1 0x1 PUSH1 0x1 PUSH1 0x60 SHL SUB DUP2 LT JUMPDEST PUSH2 0x2EA1 JUMPI PUSH1 0x0 DUP1 REVERT JUMPDEST DUP2 SLOAD PUSH12 0xFFFFFFFFFFFFFFFFFFFFFFFF NOT AND PUSH1 0x1 PUSH1 0x1 PUSH1 0x60 SHL SUB DUP3 AND OR PUSH16 0xFFFFFFFFFFFFFFFFFFFFFFFFFFFFFFFF PUSH1 0x60 SHL NOT AND PUSH1 0x1 PUSH1 0x60 SHL PUSH1 0x1 PUSH1 0x1 PUSH1 0x80 SHL SUB DUP7 AND MUL OR DUP3 SSTORE PUSH4 0xFFFFFFFF DUP8 LT PUSH2 0x2EF6 JUMPI PUSH1 0x0 DUP1 REVERT JUMPDEST POP DUP1 SLOAD PUSH4 0xFFFFFFFF DUP8 AND PUSH1 0x1 PUSH1 0xE0 SHL MUL PUSH1 0x1 PUSH1 0x1 PUSH1 0xE0 SHL SUB SWAP1 SWAP2 AND OR SWAP1 SSTORE POP SWAP2 POP POP SWAP4 SWAP3 POP POP POP JUMP JUMPDEST PUSH1 0xE0 DUP5 ADD MLOAD PUSH1 0x0 SWAP1 ISZERO PUSH2 0x2FE0 JUMPI PUSH20 0x0 PUSH4 0xE0C01A72 DUP6 PUSH2 0x2F54 DUP9 PUSH1 0x40 ADD MLOAD PUSH2 0x1B18 JUMP JUMPDEST DUP9 PUSH1 0xE0 ADD MLOAD DUP10 PUSH2 0x100 ADD MLOAD PUSH1 0x40 MLOAD DUP6 PUSH4 0xFFFFFFFF AND PUSH1 0xE0 SHL DUP2 MSTORE PUSH1 0x4 ADD PUSH2 0x2F7E SWAP5 SWAP4 SWAP3 SWAP2 SWAP1 PUSH2 0x4903 JUMP JUMPDEST PUSH1 0x20 PUSH1 0x40 MLOAD DUP1 DUP4 SUB DUP2 DUP7 DUP1 EXTCODESIZE ISZERO DUP1 ISZERO PUSH2 0x2F96 JUMPI PUSH1 0x0 DUP1 REVERT JUMPDEST POP GAS DELEGATECALL ISZERO DUP1 ISZERO PUSH2 0x2FAA JUMPI RETURNDATASIZE PUSH1 0x0 DUP1 RETURNDATACOPY RETURNDATASIZE PUSH1 0x0 REVERT JUMPDEST POP POP POP POP PUSH1 0x40 MLOAD RETURNDATASIZE PUSH1 0x1F NOT PUSH1 0x1F DUP3 ADD AND DUP3 ADD DUP1 PUSH1 0x40 MSTORE POP DUP2 ADD SWAP1 PUSH2 0x2FCE SWAP2 SWAP1 PUSH2 0x4875 JUMP JUMPDEST PUSH1 0x0 PUSH1 0xE0 DUP8 ADD DUP2 SWAP1 MSTORE PUSH2 0x100 DUP8 ADD MSTORE SWAP1 POP JUMPDEST PUSH2 0x3022 PUSH2 0x301B DUP7 PUSH2 0x100 ADD MLOAD PUSH2 0x3015 PUSH8 0xDE0B6B3A7640000 PUSH2 0x300F DUP9 PUSH2 0x3009 DUP13 PUSH1 0x40 ADD MLOAD PUSH2 0x1B18 JUMP JUMPDEST SWAP1 PUSH2 0x398A JUMP JUMPDEST SWAP1 PUSH2 0x39E3 JUMP JUMPDEST SWAP1 PUSH2 0x2CB1 JUMP JUMPDEST DUP3 SWAP1 PUSH2 0x3A4A JUMP JUMPDEST SWAP1 POP PUSH2 0x303A PUSH8 0xDE0B6B3A7640000 PUSH2 0x300F DUP5 DUP7 PUSH2 0x398A JUMP JUMPDEST DUP6 PUSH2 0x100 ADD DUP2 DUP2 MSTORE POP POP SWAP5 SWAP4 POP POP POP POP JUMP JUMPDEST PUSH1 0x0 DUP1 PUSH2 0x3057 PUSH2 0x3AA4 JUMP JUMPDEST PUSH1 0x1 PUSH1 0x1 PUSH1 0xA0 SHL SUB DUP5 AND PUSH1 0x0 SWAP1 DUP2 MSTORE PUSH1 0x20 DUP3 SWAP1 MSTORE PUSH1 0x40 SWAP1 KECCAK256 DUP1 SLOAD SWAP2 SWAP3 POP SWAP1 PUSH1 0x1 PUSH1 0xF8 SHL SWAP1 DIV PUSH1 0xFF AND ISZERO PUSH2 0x30B3 JUMPI PUSH2 0x308C PUSH2 0x3AB1 JUMP JUMPDEST PUSH1 0x1 PUSH1 0x1 PUSH1 0xA0 SHL SUB DUP1 DUP7 AND PUSH1 0x0 SWAP1 DUP2 MSTORE PUSH1 0x20 SWAP3 SWAP1 SWAP3 MSTORE PUSH1 0x40 SWAP1 SWAP2 KECCAK256 SLOAD AND SWAP3 POP PUSH2 0x442 SWAP2 POP POP JUMP JUMPDEST PUSH1 0x0 SWAP3 POP POP POP PUSH2 0x442 JUMP JUMPDEST PUSH2 0x288D PUSH20 0xC5E91B01F9B23952821410BE7AA3C45B6429C670 DUP4 DUP4 PUSH2 0x19EC JUMP JUMPDEST DUP2 MLOAD ISZERO DUP1 ISZERO SWAP1 PUSH2 0x30F0 JUMPI POP DUP2 MLOAD PUSH2 0x3FFF LT ISZERO JUMPDEST PUSH2 0x30F9 JUMPI PUSH1 0x0 DUP1 REVERT JUMPDEST DUP2 PUSH1 0x20 ADD MLOAD PUSH1 0x0 LT DUP1 ISZERO PUSH2 0x3116 JUMPI POP PUSH1 0x20 DUP3 ADD MLOAD PUSH5 0xFFFFFFFFFF LT ISZERO JUMPDEST PUSH2 0x311F JUMPI PUSH1 0x0 DUP1 REVERT JUMPDEST DUP2 PUSH1 0x40 ADD MLOAD PUSH1 0x0 LT DUP1 ISZERO PUSH2 0x3138 JUMPI POP PUSH1 0x40 DUP3 ADD MLOAD PUSH1 0x8 LT ISZERO JUMPDEST PUSH2 0x3141 JUMPI PUSH1 0x0 DUP1 REVERT JUMPDEST PUSH1 0x60 DUP3 ADD MLOAD PUSH1 0x1 PUSH1 0x1 PUSH1 0x57 SHL SUB NOT SGT DUP1 ISZERO SWAP1 PUSH2 0x3168 JUMPI POP PUSH1 0x60 DUP3 ADD MLOAD PUSH1 0x1 PUSH1 0x1 PUSH1 0x57 SHL SUB SLT ISZERO JUMPDEST PUSH2 0x3171 JUMPI PUSH1 0x0 DUP1 REVERT JUMPDEST DUP2 MLOAD DUP2 SLOAD PUSH1 0x20 DUP5 ADD MLOAD PUSH1 0x40 DUP6 ADD MLOAD PUSH1 0x60 SWAP1 SWAP6 ADD MLOAD PUSH1 0xA SIGNEXTEND PUSH11 0xFFFFFFFFFFFFFFFFFFFFFF AND PUSH9 0x10000000000000000 MUL PUSH19 0xFFFFFFFFFFFFFFFFFFFFFF0000000000000000 NOT PUSH1 0xFF SWAP1 SWAP7 AND PUSH1 0x1 PUSH1 0x38 SHL MUL PUSH8 0xFF00000000000000 NOT PUSH5 0xFFFFFFFFFF SWAP1 SWAP4 AND PUSH3 0x10000 MUL PUSH7 0xFFFFFFFFFF0000 NOT PUSH2 0xFFFF SWAP1 SWAP7 AND PUSH2 0xFFFF NOT SWAP1 SWAP6 AND SWAP5 SWAP1 SWAP5 OR SWAP5 SWAP1 SWAP5 AND SWAP3 SWAP1 SWAP3 OR AND SWAP2 SWAP1 SWAP2 OR SWAP3 SWAP1 SWAP3 AND SWAP2 SWAP1 SWAP2 OR SWAP1 SSTORE JUMP JUMPDEST PUSH1 0x0 DUP1 PUSH1 0x0 DUP1 PUSH2 0x321A DUP9 PUSH2 0x3ABE JUMP JUMPDEST SWAP1 POP DUP5 ISZERO DUP1 PUSH2 0x3228 JUMPI POP DUP1 DUP6 GT JUMPDEST ISZERO PUSH2 0x3231 JUMPI DUP1 SWAP5 POP JUMPDEST DUP7 DUP1 PUSH2 0x3241 JUMPI POP PUSH1 0x0 DUP9 PUSH1 0x60 ADD MLOAD SLT JUMPDEST SWAP7 POP PUSH2 0xFFFF DUP7 AND ISZERO PUSH2 0x3252 JUMPI PUSH1 0x0 DUP1 REVERT JUMPDEST POP POP SWAP5 MLOAD SWAP4 SWAP6 PUSH1 0x10 SWAP4 SWAP1 SWAP4 SHR PUSH1 0xF0 SWAP5 SWAP1 SWAP5 SHL SWAP4 SWAP1 SWAP4 OR SWAP4 POP SWAP2 POP JUMP JUMPDEST PUSH1 0x0 DUP1 PUSH2 0xBE7 PUSH1 0xD PUSH2 0x1F37 JUMP JUMPDEST PUSH1 0x0 PUSH3 0x15180 DUP3 LT ISZERO PUSH2 0x328D JUMPI PUSH1 0x0 DUP1 REVERT JUMPDEST PUSH3 0x15180 DUP3 JUMPDEST MOD SWAP1 SWAP2 SUB SWAP2 SWAP1 POP JUMP JUMPDEST PUSH1 0x0 DUP1 PUSH2 0x32CD PUSH2 0x32BD PUSH2 0x32B2 DUP6 PUSH1 0x20 ADD MLOAD PUSH2 0x431 JUMP JUMPDEST PUSH1 0xE0 DUP7 ADD MLOAD SWAP1 PUSH2 0x2657 JUMP JUMPDEST PUSH2 0x120 DUP6 ADD MLOAD PUSH1 0x40 ADD MLOAD SWAP1 PUSH2 0x1463 JUMP JUMPDEST SWAP2 POP PUSH2 0x32E9 DUP4 PUSH1 0xE0 ADD MLOAD PUSH1 0x80 ADD MLOAD DUP5 PUSH1 0xC0 ADD MLOAD PUSH1 0x80 ADD MLOAD PUSH2 0x3B25 JUMP JUMPDEST SWAP1 POP SWAP2 POP SWAP2 JUMP JUMPDEST PUSH1 0x0 PUSH2 0xCD9 DUP3 PUSH1 0x20 ADD MLOAD PUSH2 0xB03 DUP5 PUSH1 0x0 ADD MLOAD DUP7 PUSH1 0x20 ADD MLOAD PUSH2 0xB99 SWAP1 SWAP2 SWAP1 PUSH4 0xFFFFFFFF AND JUMP JUMPDEST PUSH1 0x0 PUSH1 0x2 DUP3 LT DUP1 ISZERO SWAP1 PUSH2 0x43F JUMPI POP POP PUSH1 0x8 LT ISZERO SWAP1 JUMP JUMPDEST DUP3 PUSH1 0x1 GT ISZERO DUP1 ISZERO PUSH2 0x3340 JUMPI POP DUP5 PUSH1 0x20 ADD MLOAD DUP4 GT ISZERO JUMPDEST PUSH2 0x335C JUMPI PUSH1 0x40 MLOAD PUSH3 0x461BCD PUSH1 0xE5 SHL DUP2 MSTORE PUSH1 0x4 ADD PUSH2 0x16F SWAP1 PUSH2 0x49C4 JUMP JUMPDEST PUSH1 0x0 PUSH2 0x3379 PUSH2 0x336A DUP6 PUSH2 0x3B3B JUMP JUMPDEST PUSH2 0x3373 DUP5 PUSH2 0x3BDF JUMP JUMPDEST SWAP1 PUSH2 0x3A4A JUMP JUMPDEST SWAP1 POP PUSH2 0x7DE DUP7 PUSH1 0x0 ADD MLOAD PUSH2 0xFFFF AND DUP3 DUP5 DUP7 PUSH2 0x3393 DUP12 PUSH2 0x3BFB JUMP JUMPDEST DUP11 SWAP5 SWAP4 SWAP3 SWAP2 SWAP1 PUSH2 0x3C0F JUMP JUMPDEST PUSH1 0x0 DUP1 PUSH2 0x33AE DUP5 PUSH1 0x40 ADD MLOAD PUSH2 0x3315 JUMP JUMPDEST DUP1 ISZERO PUSH2 0x33BF JUMPI POP PUSH1 0x0 DUP5 PUSH1 0x60 ADD MLOAD SLT ISZERO JUMPDEST PUSH2 0x33C8 JUMPI PUSH1 0x0 DUP1 REVERT JUMPDEST PUSH2 0x33EB DUP4 PUSH1 0x80 ADD MLOAD PUSH2 0xB03 DUP7 PUSH1 0x60 ADD MLOAD DUP7 PUSH1 0x60 ADD MLOAD PUSH2 0xB99 SWAP1 SWAP2 SWAP1 PUSH4 0xFFFFFFFF AND JUMP JUMPDEST SWAP2 POP PUSH2 0x3410 DUP4 PUSH1 0x80 ADD MLOAD PUSH2 0xB03 DUP7 PUSH1 0x60 ADD MLOAD DUP7 PUSH1 0x40 ADD MLOAD PUSH2 0xB99 SWAP1 SWAP2 SWAP1 PUSH4 0xFFFFFFFF AND JUMP JUMPDEST SWAP1 POP SWAP3 POP SWAP3 SWAP1 POP JUMP JUMPDEST PUSH1 0x0 PUSH1 0x2 DUP3 LT DUP1 ISZERO SWAP1 PUSH2 0x342D JUMPI POP PUSH1 0x8 DUP3 GT ISZERO JUMPDEST PUSH2 0x3436 JUMPI PUSH1 0x0 DUP1 REVERT JUMPDEST POP PUSH1 0x60 DUP3 ADD MLOAD PUSH1 0x48 PUSH1 0x8 PUSH1 0x1 NOT DUP5 ADD MUL ADD SHR SWAP3 SWAP2 POP POP JUMP JUMPDEST PUSH1 0x0 PUSH2 0x3459 DUP3 PUSH2 0x3C30 JUMP JUMPDEST SWAP1 POP PUSH1 0x0 DUP2 PUSH1 0x0 ADD PUSH1 0x18 SWAP1 SLOAD SWAP1 PUSH2 0x100 EXP SWAP1 DIV PUSH4 0xFFFFFFFF AND SWAP1 POP PUSH2 0x3498 DUP3 DUP5 PUSH1 0x40 ADD MLOAD DUP6 PUSH1 0x60 ADD MLOAD DUP7 PUSH1 0xA0 ADD MLOAD DUP6 PUSH4 0xFFFFFFFF AND DUP9 PUSH1 0xE0 ADD MLOAD PUSH2 0x3C34 JUMP JUMPDEST PUSH2 0x19E7 DUP3 DUP5 PUSH1 0x80 ADD MLOAD PUSH2 0x3D48 JUMP JUMPDEST PUSH1 0x0 DUP1 JUMPDEST DUP7 MLOAD DUP2 LT ISZERO PUSH2 0x35AA JUMPI PUSH1 0x0 DUP8 DUP3 DUP2 MLOAD DUP2 LT PUSH2 0x34C1 JUMPI INVALID JUMPDEST PUSH1 0x20 MUL PUSH1 0x20 ADD ADD MLOAD SWAP1 POP DUP5 DUP2 PUSH1 0x40 ADD MLOAD EQ ISZERO DUP1 PUSH2 0x34DF JUMPI POP DUP1 MLOAD DUP8 EQ ISZERO JUMPDEST DUP1 PUSH2 0x34EE JUMPI POP DUP6 DUP2 PUSH1 0x20 ADD MLOAD EQ ISZERO JUMPDEST ISZERO PUSH2 0x34F9 JUMPI POP PUSH2 0x35A2 JUMP JUMPDEST PUSH1 0x2 DUP2 PUSH1 0xA0 ADD MLOAD PUSH1 0x3 DUP2 GT ISZERO PUSH2 0x350B JUMPI INVALID JUMPDEST EQ ISZERO DUP1 ISZERO PUSH2 0x3529 JUMPI POP PUSH1 0x3 DUP2 PUSH1 0xA0 ADD MLOAD PUSH1 0x3 DUP2 GT ISZERO PUSH2 0x3526 JUMPI INVALID JUMPDEST EQ ISZERO JUMPDEST PUSH2 0x3532 JUMPI PUSH1 0x0 DUP1 REVERT JUMPDEST PUSH1 0x60 DUP2 ADD MLOAD PUSH1 0x0 SWAP1 PUSH2 0x3544 SWAP1 DUP7 PUSH2 0x12CB JUMP JUMPDEST SWAP1 POP PUSH2 0x354F DUP7 PUSH2 0x3315 JUMP JUMPDEST ISZERO PUSH2 0x3562 JUMPI PUSH1 0x0 DUP2 SLT ISZERO PUSH2 0x3562 JUMPI PUSH1 0x0 DUP1 REVERT JUMPDEST PUSH1 0x1 PUSH1 0x1 PUSH1 0x57 SHL SUB NOT DUP2 SLT DUP1 ISZERO SWAP1 PUSH2 0x3581 JUMPI POP PUSH1 0x1 PUSH1 0x1 PUSH1 0x57 SHL SUB DUP2 SGT ISZERO JUMPDEST PUSH2 0x358A JUMPI PUSH1 0x0 DUP1 REVERT JUMPDEST PUSH1 0x60 DUP3 ADD MSTORE PUSH1 0x1 PUSH1 0xA0 SWAP1 SWAP2 ADD DUP2 SWAP1 MSTORE SWAP2 POP PUSH2 0x145A SWAP1 POP JUMP JUMPDEST PUSH1 0x1 ADD PUSH2 0x34AA JUMP JUMPDEST POP PUSH1 0x0 SWAP7 SWAP6 POP POP POP POP POP POP JUMP JUMPDEST PUSH1 0x60 PUSH1 0x0 DUP3 MLOAD PUSH1 0x0 EQ PUSH2 0x35CE JUMPI DUP3 MLOAD PUSH1 0x2 MUL PUSH2 0x35D1 JUMP JUMPDEST PUSH1 0x1 JUMPDEST SWAP1 POP PUSH1 0x0 DUP2 PUSH8 0xFFFFFFFFFFFFFFFF DUP2 GT DUP1 ISZERO PUSH2 0x35EC JUMPI PUSH1 0x0 DUP1 REVERT JUMPDEST POP PUSH1 0x40 MLOAD SWAP1 DUP1 DUP3 MSTORE DUP1 PUSH1 0x20 MUL PUSH1 0x20 ADD DUP3 ADD PUSH1 0x40 MSTORE DUP1 ISZERO PUSH2 0x3626 JUMPI DUP2 PUSH1 0x20 ADD JUMPDEST PUSH2 0x3613 PUSH2 0x4135 JUMP JUMPDEST DUP2 MSTORE PUSH1 0x20 ADD SWAP1 PUSH1 0x1 SWAP1 SUB SWAP1 DUP2 PUSH2 0x360B JUMPI SWAP1 POP JUMPDEST POP SWAP1 POP PUSH1 0x0 JUMPDEST DUP5 MLOAD DUP2 LT ISZERO PUSH2 0x3668 JUMPI DUP5 DUP2 DUP2 MLOAD DUP2 LT PUSH2 0x3641 JUMPI INVALID JUMPDEST PUSH1 0x20 MUL PUSH1 0x20 ADD ADD MLOAD DUP3 DUP3 DUP2 MLOAD DUP2 LT PUSH2 0x3655 JUMPI INVALID JUMPDEST PUSH1 0x20 SWAP1 DUP2 MUL SWAP2 SWAP1 SWAP2 ADD ADD MSTORE PUSH1 0x1 ADD PUSH2 0x362C JUMP JUMPDEST POP SWAP4 SWAP3 POP POP POP JUMP JUMPDEST DUP3 MLOAD PUSH1 0x40 MLOAD PUSH4 0xDB006A75 PUSH1 0xE0 SHL DUP2 MSTORE PUSH1 0x0 SWAP2 SELFBALANCE SWAP2 DUP4 SWAP2 PUSH1 0x1 PUSH1 0x1 PUSH1 0xA0 SHL SUB AND SWAP1 PUSH4 0xDB006A75 SWAP1 PUSH2 0x36A4 SWAP1 DUP8 SWAP1 PUSH1 0x4 ADD PUSH2 0x4929 JUMP JUMPDEST PUSH1 0x20 PUSH1 0x40 MLOAD DUP1 DUP4 SUB DUP2 PUSH1 0x0 DUP8 DUP1 EXTCODESIZE ISZERO DUP1 ISZERO PUSH2 0x36BE JUMPI PUSH1 0x0 DUP1 REVERT JUMPDEST POP GAS CALL ISZERO DUP1 ISZERO PUSH2 0x36D2 JUMPI RETURNDATASIZE PUSH1 0x0 DUP1 RETURNDATACOPY RETURNDATASIZE PUSH1 0x0 REVERT JUMPDEST POP POP POP POP PUSH1 0x40 MLOAD RETURNDATASIZE PUSH1 0x1F NOT PUSH1 0x1F DUP3 ADD AND DUP3 ADD DUP1 PUSH1 0x40 MSTORE POP DUP2 ADD SWAP1 PUSH2 0x36F6 SWAP2 SWAP1 PUSH2 0x4875 JUMP JUMPDEST SWAP1 POP DUP1 ISZERO PUSH2 0x3716 JUMPI PUSH1 0x40 MLOAD PUSH3 0x461BCD PUSH1 0xE5 SHL DUP2 MSTORE PUSH1 0x4 ADD PUSH2 0x16F SWAP1 PUSH2 0x497D JUMP JUMPDEST SELFBALANCE PUSH2 0x3721 DUP2 DUP5 PUSH2 0x2CB1 JUMP JUMPDEST SWAP4 POP PUSH2 0x19A7 DUP7 DUP6 PUSH2 0x19B1 JUMP JUMPDEST PUSH1 0x0 PUSH2 0x374D PUSH2 0x3748 DUP6 PUSH1 0x0 ADD MLOAD PUSH2 0x3743 DUP6 PUSH2 0x2C6B JUMP JUMPDEST PUSH2 0x1827 JUMP JUMPDEST PUSH2 0x1B18 JUMP JUMPDEST DUP5 MLOAD PUSH1 0x40 MLOAD PUSH4 0x1A4CA37B PUSH1 0xE2 SHL DUP2 MSTORE SWAP2 SWAP3 POP PUSH20 0x7D2768DE32B0B80B7A3454C06BDAC94A69DDC7A9 SWAP2 PUSH4 0x69328DEC SWAP2 PUSH2 0x378B SWAP2 DUP6 SWAP1 DUP9 SWAP1 PUSH1 0x4 ADD PUSH2 0x48E0 JUMP JUMPDEST PUSH1 0x20 PUSH1 0x40 MLOAD DUP1 DUP4 SUB DUP2 PUSH1 0x0 DUP8 DUP1 EXTCODESIZE ISZERO DUP1 ISZERO PUSH2 0x37A5 JUMPI PUSH1 0x0 DUP1 REVERT JUMPDEST POP GAS CALL ISZERO DUP1 ISZERO PUSH2 0x37B9 JUMPI RETURNDATASIZE PUSH1 0x0 DUP1 RETURNDATACOPY RETURNDATASIZE PUSH1 0x0 REVERT JUMPDEST POP POP POP POP PUSH1 0x40 MLOAD RETURNDATASIZE PUSH1 0x1F NOT PUSH1 0x1F DUP3 ADD AND DUP3 ADD DUP1 PUSH1 0x40 MSTORE POP DUP2 ADD SWAP1 PUSH2 0x3668 SWAP2 SWAP1 PUSH2 0x4875 JUMP JUMPDEST DUP3 MLOAD PUSH1 0x0 SWAP1 DUP2 SWAP1 PUSH2 0x37F6 SWAP1 ADDRESS PUSH4 0x70A08231 PUSH1 0xE0 SHL PUSH2 0x2B01 JUMP JUMPDEST SWAP1 POP PUSH1 0x0 DUP7 PUSH1 0x0 ADD MLOAD PUSH1 0x1 PUSH1 0x1 PUSH1 0xA0 SHL SUB AND PUSH4 0xDB006A75 DUP6 PUSH1 0x40 MLOAD DUP3 PUSH4 0xFFFFFFFF AND PUSH1 0xE0 SHL DUP2 MSTORE PUSH1 0x4 ADD PUSH2 0x382A SWAP2 SWAP1 PUSH2 0x4929 JUMP JUMPDEST PUSH1 0x20 PUSH1 0x40 MLOAD DUP1 DUP4 SUB DUP2 PUSH1 0x0 DUP8 DUP1 EXTCODESIZE ISZERO DUP1 ISZERO PUSH2 0x3844 JUMPI PUSH1 0x0 DUP1 REVERT JUMPDEST POP GAS CALL ISZERO DUP1 ISZERO PUSH2 0x3858 JUMPI RETURNDATASIZE PUSH1 0x0 DUP1 RETURNDATACOPY RETURNDATASIZE PUSH1 0x0 REVERT JUMPDEST POP POP POP POP PUSH1 0x40 MLOAD RETURNDATASIZE PUSH1 0x1F NOT PUSH1 0x1F DUP3 ADD AND DUP3 ADD DUP1 PUSH1 0x40 MSTORE POP DUP2 ADD SWAP1 PUSH2 0x387C SWAP2 SWAP1 PUSH2 0x4875 JUMP JUMPDEST SWAP1 POP DUP1 ISZERO PUSH2 0x389C JUMPI PUSH1 0x40 MLOAD PUSH3 0x461BCD PUSH1 0xE5 SHL DUP2 MSTORE PUSH1 0x4 ADD PUSH2 0x16F SWAP1 PUSH2 0x497D JUMP JUMPDEST DUP6 MLOAD PUSH1 0x0 SWAP1 PUSH2 0x38B3 SWAP1 ADDRESS PUSH4 0x70A08231 PUSH1 0xE0 SHL PUSH2 0x2B01 JUMP JUMPDEST SWAP1 POP PUSH2 0x38BF DUP2 DUP5 PUSH2 0x2CB1 JUMP JUMPDEST SWAP4 POP PUSH2 0x38D0 DUP8 PUSH1 0x0 ADD MLOAD DUP8 DUP7 PUSH2 0x19EC JUMP JUMPDEST POP POP POP SWAP5 SWAP4 POP POP POP POP JUMP JUMPDEST PUSH1 0x0 DUP1 PUSH2 0xBE7 PUSH1 0x3 PUSH2 0x1F37 JUMP JUMPDEST PUSH1 0x0 DUP1 PUSH1 0x0 PUSH2 0x38F6 DUP6 PUSH2 0x3D91 JUMP JUMPDEST SWAP2 SWAP5 POP SWAP3 POP SWAP1 POP DUP1 DUP5 GT DUP1 ISZERO PUSH2 0x390C JUMPI POP PUSH1 0x0 DUP2 GT JUMPDEST DUP1 ISZERO PUSH2 0x3918 JUMPI POP PUSH1 0x0 DUP4 GT JUMPDEST ISZERO PUSH2 0x2302 JUMPI PUSH1 0x0 PUSH2 0x3928 DUP7 PUSH2 0x3DED JUMP JUMPDEST POP POP POP SWAP2 POP POP PUSH1 0x0 PUSH2 0x3953 PUSH2 0x394A PUSH4 0x5F5E100 DUP5 PUSH2 0x398A SWAP1 SWAP2 SWAP1 PUSH4 0xFFFFFFFF AND JUMP JUMPDEST DUP5 DUP9 SUB DUP8 PUSH2 0x3E56 JUMP JUMPDEST SWAP1 POP PUSH2 0x395F DUP5 DUP3 PUSH2 0x3A4A JUMP JUMPDEST SWAP4 POP PUSH1 0x1 PUSH1 0x1 PUSH1 0x80 SHL SUB DUP5 LT PUSH2 0x3974 JUMPI PUSH1 0x0 DUP1 REVERT JUMPDEST POP POP SWAP3 POP SWAP3 POP SWAP3 JUMP JUMPDEST PUSH1 0x0 DUP1 PUSH2 0xBE7 PUSH1 0x11 PUSH2 0x1F37 JUMP JUMPDEST PUSH1 0x0 DUP3 PUSH2 0x3999 JUMPI POP PUSH1 0x0 PUSH2 0xBE7 JUMP JUMPDEST DUP3 DUP3 MUL DUP3 DUP5 DUP3 DUP2 PUSH2 0x39A6 JUMPI INVALID JUMPDEST DIV EQ PUSH2 0xCD9 JUMPI PUSH1 0x40 MLOAD PUSH3 0x461BCD PUSH1 0xE5 SHL DUP2 MSTORE PUSH1 0x4 ADD DUP1 DUP1 PUSH1 0x20 ADD DUP3 DUP2 SUB DUP3 MSTORE PUSH1 0x21 DUP2 MSTORE PUSH1 0x20 ADD DUP1 PUSH2 0x4B3D PUSH1 0x21 SWAP2 CODECOPY PUSH1 0x40 ADD SWAP2 POP POP PUSH1 0x40 MLOAD DUP1 SWAP2 SUB SWAP1 REVERT JUMPDEST PUSH1 0x0 DUP1 DUP3 GT PUSH2 0x3A39 JUMPI PUSH1 0x40 DUP1 MLOAD PUSH3 0x461BCD PUSH1 0xE5 SHL DUP2 MSTORE PUSH1 0x20 PUSH1 0x4 DUP3 ADD MSTORE PUSH1 0x1A PUSH1 0x24 DUP3 ADD MSTORE PUSH32 0x536166654D6174683A206469766973696F6E206279207A65726F000000000000 PUSH1 0x44 DUP3 ADD MSTORE SWAP1 MLOAD SWAP1 DUP2 SWAP1 SUB PUSH1 0x64 ADD SWAP1 REVERT JUMPDEST DUP2 DUP4 DUP2 PUSH2 0x3A42 JUMPI INVALID JUMPDEST DIV SWAP4 SWAP3 POP POP POP JUMP JUMPDEST PUSH1 0x0 DUP3 DUP3 ADD DUP4 DUP2 LT ISZERO PUSH2 0xCD9 JUMPI PUSH1 0x40 DUP1 MLOAD PUSH3 0x461BCD PUSH1 0xE5 SHL DUP2 MSTORE PUSH1 0x20 PUSH1 0x4 DUP3 ADD MSTORE PUSH1 0x1B PUSH1 0x24 DUP3 ADD MSTORE PUSH32 0x536166654D6174683A206164646974696F6E206F766572666C6F770000000000 PUSH1 0x44 DUP3 ADD MSTORE SWAP1 MLOAD SWAP1 DUP2 SWAP1 SUB PUSH1 0x64 ADD SWAP1 REVERT JUMPDEST PUSH1 0x0 DUP1 PUSH2 0xBE7 PUSH1 0x2 PUSH2 0x1F37 JUMP JUMPDEST PUSH1 0x0 DUP1 PUSH2 0xBE7 PUSH1 0x12 PUSH2 0x1F37 JUMP JUMPDEST PUSH1 0x0 DUP1 DUP3 PUSH1 0x40 ADD MLOAD GT DUP1 ISZERO PUSH2 0x3AD8 JUMPI POP PUSH1 0x40 DUP3 ADD MLOAD PUSH1 0x8 LT ISZERO JUMPDEST PUSH2 0x3AE1 JUMPI PUSH1 0x0 DUP1 REVERT JUMPDEST PUSH1 0x40 DUP3 ADD MLOAD PUSH1 0x2 LT PUSH2 0x3AF8 JUMPI POP PUSH1 0x20 DUP2 ADD MLOAD PUSH2 0x442 JUMP JUMPDEST PUSH1 0x0 PUSH2 0x3B0A PUSH1 0x1 DUP5 PUSH1 0x40 ADD MLOAD SUB PUSH2 0x3B3B JUMP JUMPDEST PUSH1 0x20 DUP5 ADD MLOAD SWAP1 SWAP2 POP PUSH2 0xCD9 SWAP1 PUSH3 0x76A700 SWAP1 PUSH2 0x3373 SWAP1 DUP5 PUSH2 0x2CB1 JUMP JUMPDEST PUSH1 0x0 DUP2 DUP4 SGT PUSH2 0x3B34 JUMPI DUP2 PUSH2 0xCD9 JUMP JUMPDEST POP SWAP1 SWAP2 SWAP1 POP JUMP JUMPDEST PUSH1 0x0 DUP2 PUSH1 0x1 EQ ISZERO PUSH2 0x3B50 JUMPI POP PUSH3 0x76A700 PUSH2 0x442 JUMP JUMPDEST DUP2 PUSH1 0x2 EQ ISZERO PUSH2 0x3B63 JUMPI POP PUSH3 0xED4E00 PUSH2 0x442 JUMP JUMPDEST DUP2 PUSH1 0x3 EQ ISZERO PUSH2 0x3B77 JUMPI POP PUSH4 0x1DA9C00 PUSH2 0x442 JUMP JUMPDEST DUP2 PUSH1 0x4 EQ ISZERO PUSH2 0x3B8B JUMPI POP PUSH4 0x3B53800 PUSH2 0x442 JUMP JUMPDEST DUP2 PUSH1 0x5 EQ ISZERO PUSH2 0x3B9F JUMPI POP PUSH4 0x9450C00 PUSH2 0x442 JUMP JUMPDEST DUP2 PUSH1 0x6 EQ ISZERO PUSH2 0x3BB3 JUMPI POP PUSH4 0x128A1800 PUSH2 0x442 JUMP JUMPDEST DUP2 PUSH1 0x7 EQ ISZERO PUSH2 0x3BC7 JUMPI POP PUSH4 0x25143000 PUSH2 0x442 JUMP JUMPDEST PUSH1 0x40 MLOAD PUSH3 0x461BCD PUSH1 0xE5 SHL DUP2 MSTORE PUSH1 0x4 ADD PUSH2 0x16F SWAP1 PUSH2 0x499D JUMP JUMPDEST PUSH1 0x0 PUSH3 0x76A700 DUP3 LT ISZERO PUSH2 0x3BF1 JUMPI PUSH1 0x0 DUP1 REVERT JUMPDEST PUSH3 0x76A700 DUP3 PUSH2 0x3293 JUMP JUMPDEST PUSH1 0x60 ADD MLOAD PUSH2 0x12C PUSH1 0x8 SWAP2 SWAP1 SWAP2 SHR PUSH1 0xFF AND MUL SWAP1 JUMP JUMPDEST PUSH1 0x0 PUSH3 0x76A700 PUSH2 0x3C1E DUP6 PUSH2 0x3BDF JUMP JUMPDEST ADD SWAP1 POP PUSH2 0x73C DUP8 DUP8 DUP8 DUP8 DUP8 DUP8 DUP8 PUSH2 0x3E78 JUMP JUMPDEST MLOAD SWAP1 JUMP JUMPDEST PUSH1 0x0 DUP6 SLT ISZERO DUP1 ISZERO PUSH2 0x3C4C JUMPI POP PUSH1 0x1 PUSH1 0x1 PUSH1 0x50 SHL SUB DUP6 SGT ISZERO JUMPDEST PUSH2 0x3C55 JUMPI PUSH1 0x0 DUP1 REVERT JUMPDEST PUSH1 0x0 DUP5 SLT ISZERO DUP1 ISZERO PUSH2 0x3C6D JUMPI POP PUSH1 0x1 PUSH1 0x1 PUSH1 0x50 SHL SUB DUP5 SGT ISZERO JUMPDEST PUSH2 0x3C76 JUMPI PUSH1 0x0 DUP1 REVERT JUMPDEST DUP3 PUSH1 0x0 LT DUP1 ISZERO PUSH2 0x3C8A JUMPI POP PUSH4 0xFFFFFFFF DUP4 GT ISZERO JUMPDEST PUSH2 0x3C93 JUMPI PUSH1 0x0 DUP1 REVERT JUMPDEST DUP2 PUSH1 0x0 LT DUP1 ISZERO PUSH2 0x3CA7 JUMPI POP PUSH4 0xFFFFFFFF DUP3 GT ISZERO JUMPDEST PUSH2 0x3CB0 JUMPI PUSH1 0x0 DUP1 REVERT JUMPDEST PUSH4 0xFFFFFFFF DUP2 GT ISZERO PUSH2 0x3CC1 JUMPI PUSH1 0x0 DUP1 REVERT JUMPDEST DUP6 SLOAD PUSH10 0xFFFFFFFFFFFFFFFFFFFF NOT AND PUSH1 0x1 PUSH1 0x1 PUSH1 0x50 SHL SUB SWAP6 DUP7 AND OR PUSH10 0xFFFFFFFFFFFFFFFFFFFF PUSH1 0x50 SHL NOT AND PUSH1 0x1 PUSH1 0x50 SHL SWAP5 SWAP1 SWAP6 AND SWAP4 SWAP1 SWAP4 MUL SWAP4 SWAP1 SWAP4 OR PUSH4 0xFFFFFFFF PUSH1 0xA0 SHL NOT AND PUSH1 0x1 PUSH1 0xA0 SHL PUSH4 0xFFFFFFFF SWAP3 DUP4 AND MUL OR PUSH4 0xFFFFFFFF PUSH1 0xC0 SHL NOT AND PUSH1 0x1 PUSH1 0xC0 SHL SWAP4 DUP3 AND SWAP4 SWAP1 SWAP4 MUL SWAP3 SWAP1 SWAP3 OR PUSH1 0x1 PUSH1 0x1 PUSH1 0xE0 SHL SUB AND PUSH1 0x1 PUSH1 0xE0 SHL SWAP2 SWAP1 SWAP3 AND MUL OR SWAP1 SSTORE JUMP JUMPDEST PUSH1 0x0 DUP2 SLT ISZERO DUP1 ISZERO PUSH2 0x3D60 JUMPI POP PUSH1 0x1 PUSH1 0x1 PUSH1 0x50 SHL SUB DUP2 SGT ISZERO JUMPDEST PUSH2 0x3D69 JUMPI PUSH1 0x0 DUP1 REVERT JUMPDEST PUSH1 0x1 SWAP2 SWAP1 SWAP2 ADD DUP1 SLOAD PUSH10 0xFFFFFFFFFFFFFFFFFFFF NOT AND PUSH1 0x1 PUSH1 0x1 PUSH1 0x50 SHL SUB SWAP1 SWAP3 AND SWAP2 SWAP1 SWAP2 OR SWAP1 SSTORE JUMP JUMPDEST PUSH1 0x0 DUP1 PUSH1 0x0 DUP1 PUSH2 0x3D9F PUSH2 0x397D JUMP JUMPDEST PUSH1 0x1 PUSH1 0x1 PUSH1 0xA0 SHL SUB SWAP6 SWAP1 SWAP6 AND PUSH1 0x0 SWAP1 DUP2 MSTORE PUSH1 0x20 SWAP6 SWAP1 SWAP6 MSTORE POP POP PUSH1 0x40 SWAP1 SWAP3 KECCAK256 SLOAD PUSH1 0x1 PUSH1 0x1 PUSH1 0x60 SHL SUB DUP2 AND SWAP4 PUSH1 0x1 PUSH1 0x60 SHL DUP3 DIV PUSH1 0x1 PUSH1 0x1 PUSH1 0x80 SHL SUB AND SWAP4 POP PUSH1 0x1 PUSH1 0xE0 SHL SWAP1 SWAP2 DIV PUSH4 0xFFFFFFFF AND SWAP2 POP JUMP JUMPDEST PUSH1 0x0 DUP1 PUSH1 0x0 DUP1 PUSH1 0x0 DUP1 PUSH2 0x3DFE PUSH2 0x3AA4 JUMP JUMPDEST PUSH1 0x1 PUSH1 0x1 PUSH1 0xA0 SHL SUB SWAP1 SWAP8 AND PUSH1 0x0 SWAP1 DUP2 MSTORE PUSH1 0x20 SWAP8 SWAP1 SWAP8 MSTORE POP POP PUSH1 0x40 SWAP1 SWAP5 KECCAK256 SLOAD PUSH2 0xFFFF DUP2 AND SWAP6 PUSH4 0xFFFFFFFF PUSH3 0x10000 DUP4 DIV DUP2 AND SWAP7 POP PUSH1 0x1 PUSH1 0x30 SHL DUP4 DIV AND SWAP5 POP PUSH1 0xFF PUSH1 0x1 PUSH1 0x50 SHL DUP4 DIV AND SWAP4 POP PUSH1 0x1 PUSH1 0x58 SHL SWAP1 SWAP2 DIV PUSH1 0xD8 SHL SWAP2 POP JUMP JUMPDEST PUSH1 0x0 PUSH2 0x51F DUP3 PUSH2 0x300F PUSH4 0x1DA9C00 DUP2 DUP9 PUSH2 0x3009 DUP10 PUSH8 0xDE0B6B3A7640000 PUSH2 0x398A JUMP JUMPDEST PUSH2 0x3E85 DUP8 DUP8 DUP8 DUP7 DUP6 PUSH2 0x3EAF JUMP JUMPDEST PUSH2 0x3E9E DUP8 PUSH1 0xE0 ADD MLOAD DUP9 PUSH1 0xA0 ADD MLOAD DUP10 PUSH1 0xC0 ADD MLOAD DUP6 DUP9 PUSH2 0x3F6A JUMP JUMPDEST PUSH1 0xC0 SWAP1 SWAP8 ADD SWAP7 SWAP1 SWAP7 MSTORE POP POP POP POP POP POP JUMP JUMPDEST PUSH1 0x0 PUSH2 0x3EB9 PUSH2 0x3FFD JUMP JUMPDEST PUSH1 0x0 DUP7 DUP2 MSTORE PUSH1 0x20 DUP3 DUP2 MSTORE PUSH1 0x40 DUP1 DUP4 KECCAK256 DUP9 DUP5 MSTORE DUP3 MSTORE DUP1 DUP4 KECCAK256 DUP7 DUP5 MSTORE DUP3 MSTORE SWAP2 DUP3 SWAP1 KECCAK256 DUP1 DUP11 MSTORE SWAP1 DUP10 ADD DUP8 SWAP1 MSTORE DUP1 SLOAD PUSH1 0x1 PUSH1 0x1 PUSH1 0x50 SHL SUB DUP1 DUP3 AND SWAP4 DUP12 ADD SWAP4 SWAP1 SWAP4 MSTORE PUSH1 0x1 PUSH1 0x50 SHL DUP2 DIV SWAP1 SWAP3 AND PUSH1 0x60 DUP11 ADD MSTORE PUSH4 0xFFFFFFFF PUSH1 0x1 PUSH1 0xA0 SHL DUP4 DIV DUP2 AND PUSH1 0xA0 DUP12 ADD MSTORE PUSH1 0x1 PUSH1 0xC0 SHL DUP4 DIV DUP2 AND PUSH1 0xC0 DUP12 ADD MSTORE PUSH1 0x1 PUSH1 0xE0 SHL SWAP1 SWAP3 DIV SWAP1 SWAP2 AND PUSH1 0xE0 DUP10 ADD MSTORE SWAP1 SWAP2 POP DUP1 DUP5 ISZERO PUSH2 0x3F58 JUMPI PUSH1 0x1 DUP3 ADD SLOAD PUSH1 0x1 PUSH1 0x1 PUSH1 0x50 SHL SUB AND PUSH1 0x80 DUP10 ADD MSTORE PUSH2 0x3F60 JUMP JUMPDEST PUSH1 0x0 PUSH1 0x80 DUP10 ADD MSTORE JUMPDEST POP POP POP POP POP POP POP POP JUMP JUMPDEST PUSH1 0x0 DUP1 DUP4 GT PUSH2 0x3F78 JUMPI PUSH1 0x0 DUP1 REVERT JUMPDEST DUP2 DUP7 GT ISZERO PUSH2 0x3F87 JUMPI POP DUP4 PUSH2 0x145A JUMP JUMPDEST PUSH1 0x0 PUSH2 0x3F93 DUP4 DUP9 PUSH2 0x2CB1 JUMP JUMPDEST SWAP1 POP DUP4 DUP2 GT ISZERO PUSH2 0x3FA6 JUMPI DUP6 SWAP2 POP POP PUSH2 0x145A JUMP JUMPDEST PUSH1 0x0 PUSH2 0x3FBA DUP6 PUSH2 0x300F DUP5 PUSH4 0x3B9ACA00 PUSH2 0x398A JUMP JUMPDEST SWAP1 POP PUSH1 0x0 PUSH2 0x3FCC PUSH4 0x3B9ACA00 DUP4 PUSH2 0x2CB1 JUMP JUMPDEST SWAP1 POP PUSH1 0x0 PUSH2 0x3FEF PUSH4 0x3B9ACA00 PUSH2 0x300F PUSH2 0x3FE5 DUP12 DUP7 PUSH2 0x398A JUMP JUMPDEST PUSH2 0x3373 DUP14 DUP9 PUSH2 0x398A JUMP JUMPDEST SWAP11 SWAP10 POP POP POP POP POP POP POP POP POP POP JUMP JUMPDEST PUSH1 0x0 DUP1 PUSH2 0xBE7 PUSH1 0xA PUSH2 0x1F37 JUMP JUMPDEST PUSH1 0x40 MLOAD DUP1 PUSH2 0x120 ADD PUSH1 0x40 MSTORE DUP1 PUSH1 0x0 PUSH2 0xFFFF AND DUP2 MSTORE PUSH1 0x20 ADD PUSH1 0x0 DUP2 MSTORE PUSH1 0x20 ADD PUSH1 0x0 DUP2 MSTORE PUSH1 0x20 ADD PUSH1 0x0 DUP2 MSTORE PUSH1 0x20 ADD PUSH1 0x0 DUP2 MSTORE PUSH1 0x20 ADD PUSH1 0x0 DUP2 MSTORE PUSH1 0x20 ADD PUSH1 0x0 DUP2 MSTORE PUSH1 0x20 ADD PUSH1 0x0 DUP2 MSTORE PUSH1 0x20 ADD PUSH1 0x0 DUP2 MSTORE POP SWAP1 JUMP JUMPDEST PUSH1 0x40 MLOAD DUP1 PUSH1 0x80 ADD PUSH1 0x40 MSTORE DUP1 PUSH1 0x60 DUP2 MSTORE PUSH1 0x20 ADD PUSH1 0x60 DUP2 MSTORE PUSH1 0x20 ADD PUSH1 0x0 DUP2 MSTORE PUSH1 0x20 ADD PUSH1 0x0 DUP2 MSTORE POP SWAP1 JUMP JUMPDEST PUSH1 0x40 DUP1 MLOAD PUSH1 0xA0 DUP2 ADD DUP3 MSTORE PUSH1 0x0 DUP1 DUP3 MSTORE PUSH1 0x20 DUP3 ADD DUP2 SWAP1 MSTORE SWAP2 DUP2 ADD DUP3 SWAP1 MSTORE PUSH1 0x60 DUP2 ADD DUP3 SWAP1 MSTORE PUSH1 0x80 DUP2 ADD SWAP2 SWAP1 SWAP2 MSTORE SWAP1 JUMP JUMPDEST PUSH1 0x40 MLOAD DUP1 PUSH2 0x160 ADD PUSH1 0x40 MSTORE DUP1 PUSH1 0x0 PUSH1 0x1 PUSH1 0x1 PUSH1 0xA0 SHL SUB AND DUP2 MSTORE PUSH1 0x20 ADD PUSH1 0x0 DUP2 MSTORE PUSH1 0x20 ADD PUSH1 0x0 DUP2 MSTORE PUSH1 0x20 ADD PUSH1 0x0 DUP2 MSTORE PUSH1 0x20 ADD PUSH1 0x0 DUP2 MSTORE PUSH1 0x20 ADD PUSH1 0x0 PUSH1 0x1 PUSH1 0x1 PUSH1 0xD0 SHL SUB NOT AND DUP2 MSTORE PUSH1 0x20 ADD PUSH2 0x4101 PUSH2 0x4240 JUMP JUMPDEST DUP2 MSTORE PUSH1 0x20 ADD PUSH2 0x410E PUSH2 0x4240 JUMP JUMPDEST DUP2 MSTORE PUSH1 0x20 ADD PUSH2 0x411B PUSH2 0x426F JUMP JUMPDEST DUP2 MSTORE PUSH1 0x20 ADD PUSH2 0x4128 PUSH2 0x4299 JUMP JUMPDEST DUP2 MSTORE PUSH1 0x0 PUSH1 0x20 SWAP1 SWAP2 ADD MSTORE SWAP1 JUMP JUMPDEST PUSH1 0x40 MLOAD DUP1 PUSH1 0xC0 ADD PUSH1 0x40 MSTORE DUP1 PUSH1 0x0 DUP2 MSTORE PUSH1 0x20 ADD PUSH1 0x0 DUP2 MSTORE PUSH1 0x20 ADD PUSH1 0x0 DUP2 MSTORE PUSH1 0x20 ADD PUSH1 0x0 DUP2 MSTORE PUSH1 0x20 ADD PUSH1 0x0 DUP2 MSTORE PUSH1 0x20 ADD PUSH1 0x0 PUSH1 0x3 DUP2 GT ISZERO PUSH2 0x4170 JUMPI INVALID JUMPDEST SWAP1 MSTORE SWAP1 JUMP JUMPDEST PUSH1 0x40 MLOAD DUP1 PUSH1 0xC0 ADD PUSH1 0x40 MSTORE DUP1 PUSH1 0x0 DUP2 MSTORE PUSH1 0x20 ADD PUSH1 0x0 DUP2 MSTORE PUSH1 0x20 ADD PUSH1 0x0 DUP2 MSTORE PUSH1 0x20 ADD PUSH1 0x0 DUP2 MSTORE PUSH1 0x20 ADD PUSH1 0x0 DUP2 MSTORE PUSH1 0x20 ADD PUSH1 0x0 DUP2 MSTORE POP SWAP1 JUMP JUMPDEST PUSH1 0x40 DUP1 MLOAD PUSH1 0xA0 DUP2 ADD DUP3 MSTORE PUSH1 0x0 DUP1 DUP3 MSTORE PUSH1 0x20 DUP3 ADD DUP2 SWAP1 MSTORE SWAP2 DUP2 ADD DUP3 SWAP1 MSTORE SWAP1 PUSH1 0x60 DUP3 ADD SWAP1 DUP2 MSTORE PUSH1 0x20 ADD PUSH1 0x0 DUP2 MSTORE POP SWAP1 JUMP JUMPDEST PUSH1 0x40 MLOAD DUP1 PUSH2 0x100 ADD PUSH1 0x40 MSTORE DUP1 PUSH1 0x0 DUP1 NOT AND DUP2 MSTORE PUSH1 0x20 ADD PUSH1 0x0 DUP2 MSTORE PUSH1 0x20 ADD PUSH1 0x0 DUP2 MSTORE PUSH1 0x20 ADD PUSH1 0x0 DUP2 MSTORE PUSH1 0x20 ADD PUSH1 0x0 DUP2 MSTORE PUSH1 0x20 ADD PUSH1 0x0 DUP2 MSTORE PUSH1 0x20 ADD PUSH1 0x0 DUP2 MSTORE PUSH1 0x20 ADD PUSH1 0x0 DUP2 MSTORE POP SWAP1 JUMP JUMPDEST PUSH1 0x40 MLOAD DUP1 PUSH1 0x20 ADD PUSH1 0x40 MSTORE DUP1 PUSH1 0x1 SWAP1 PUSH1 0x20 DUP3 MUL DUP1 CALLDATASIZE DUP4 CALLDATACOPY POP SWAP2 SWAP3 SWAP2 POP POP JUMP JUMPDEST PUSH1 0x40 MLOAD DUP1 PUSH1 0xA0 ADD PUSH1 0x40 MSTORE DUP1 PUSH1 0x0 DUP2 MSTORE PUSH1 0x20 ADD PUSH1 0x0 DUP2 MSTORE PUSH1 0x20 ADD PUSH1 0x0 DUP2 MSTORE PUSH1 0x20 ADD PUSH1 0x0 DUP2 MSTORE PUSH1 0x20 ADD PUSH1 0x0 DUP2 MSTORE POP SWAP1 JUMP JUMPDEST PUSH1 0x40 MLOAD DUP1 PUSH1 0x60 ADD PUSH1 0x40 MSTORE DUP1 PUSH1 0x0 PUSH1 0x1 PUSH1 0x1 PUSH1 0xA0 SHL SUB AND DUP2 MSTORE PUSH1 0x20 ADD PUSH1 0x0 DUP2 MSTORE PUSH1 0x20 ADD PUSH1 0x0 DUP2 MSTORE POP SWAP1 JUMP JUMPDEST PUSH1 0x40 DUP1 MLOAD PUSH1 0x80 DUP2 ADD DUP3 MSTORE PUSH1 0x0 DUP1 DUP3 MSTORE PUSH1 0x20 DUP3 ADD MSTORE SWAP1 DUP2 ADD PUSH2 0x4128 PUSH2 0x426F JUMP JUMPDEST DUP1 MLOAD PUSH2 0x442 DUP2 PUSH2 0x4B06 JUMP JUMPDEST PUSH1 0x0 DUP3 PUSH1 0x1F DUP4 ADD SLT PUSH2 0x42D3 JUMPI DUP1 DUP2 REVERT JUMPDEST DUP2 MLOAD PUSH1 0x20 PUSH8 0xFFFFFFFFFFFFFFFF DUP1 DUP4 GT ISZERO PUSH2 0x42EA JUMPI INVALID JUMPDEST PUSH2 0x42F7 DUP3 DUP4 DUP6 MUL ADD PUSH2 0x4AE2 JUMP JUMPDEST DUP4 DUP2 MSTORE DUP3 DUP2 ADD SWAP1 DUP7 DUP5 ADD PUSH1 0xC0 DUP1 DUP8 MUL DUP10 ADD DUP7 ADD DUP11 LT ISZERO PUSH2 0x4315 JUMPI DUP8 DUP9 REVERT JUMPDEST DUP8 JUMPDEST DUP8 DUP2 LT ISZERO PUSH2 0x4396 JUMPI DUP2 DUP4 DUP13 SUB SLT ISZERO PUSH2 0x432D JUMPI DUP9 DUP10 REVERT JUMPDEST PUSH1 0x40 DUP1 MLOAD DUP4 DUP2 ADD DUP2 DUP2 LT DUP10 DUP3 GT OR ISZERO PUSH2 0x4342 JUMPI INVALID JUMPDEST DUP3 MSTORE DUP5 MLOAD DUP2 MSTORE DUP9 DUP6 ADD MLOAD DUP10 DUP3 ADD MSTORE DUP5 DUP3 ADD MLOAD SWAP2 DUP2 ADD SWAP2 SWAP1 SWAP2 MSTORE PUSH1 0x60 DUP1 DUP6 ADD MLOAD SWAP1 DUP3 ADD MSTORE PUSH1 0x80 DUP1 DUP6 ADD MLOAD SWAP1 DUP3 ADD MSTORE PUSH1 0xA0 SWAP1 PUSH2 0x437D DUP3 DUP7 ADD PUSH2 0x43F8 JUMP JUMPDEST SWAP2 DUP2 ADD SWAP2 SWAP1 SWAP2 MSTORE DUP6 MSTORE SWAP4 DUP7 ADD SWAP4 SWAP2 DUP2 ADD SWAP2 PUSH1 0x1 ADD PUSH2 0x4317 JUMP JUMPDEST POP SWAP2 SWAP10 SWAP9 POP POP POP POP POP POP POP POP POP JUMP JUMPDEST DUP1 MLOAD PUSH2 0x442 DUP2 PUSH2 0x4B1E JUMP JUMPDEST DUP1 MLOAD PUSH1 0x1 PUSH1 0x1 PUSH1 0x70 SHL SUB NOT DUP2 AND DUP2 EQ PUSH2 0x442 JUMPI PUSH1 0x0 DUP1 REVERT JUMPDEST DUP1 MLOAD PUSH1 0x1 PUSH1 0x1 PUSH1 0xF8 SHL SUB NOT DUP2 AND DUP2 EQ PUSH2 0x442 JUMPI PUSH1 0x0 DUP1 REVERT JUMPDEST DUP1 MLOAD PUSH1 0x1 PUSH1 0x1 PUSH1 0xD0 SHL SUB NOT DUP2 AND DUP2 EQ PUSH2 0x442 JUMPI PUSH1 0x0 DUP1 REVERT JUMPDEST DUP1 MLOAD PUSH1 0x4 DUP2 LT PUSH2 0x442 JUMPI PUSH1 0x0 DUP1 REVERT JUMPDEST PUSH1 0x0 PUSH1 0x60 DUP3 DUP5 SUB SLT ISZERO PUSH2 0x4418 JUMPI DUP1 DUP2 REVERT JUMPDEST PUSH1 0x40 MLOAD PUSH1 0x60 DUP2 ADD DUP2 DUP2 LT PUSH8 0xFFFFFFFFFFFFFFFF DUP3 GT OR ISZERO PUSH2 0x4435 JUMPI INVALID JUMPDEST DUP1 PUSH1 0x40 MSTORE POP DUP1 SWAP2 POP DUP3 MLOAD PUSH2 0x4448 DUP2 PUSH2 0x4B06 JUMP JUMPDEST DUP1 DUP3 MSTORE POP PUSH1 0x20 DUP4 ADD MLOAD PUSH1 0x20 DUP3 ADD MSTORE PUSH1 0x40 DUP4 ADD MLOAD PUSH1 0x40 DUP3 ADD MSTORE POP SWAP3 SWAP2 POP POP JUMP JUMPDEST PUSH1 0x0 PUSH1 0xC0 DUP3 DUP5 SUB SLT ISZERO PUSH2 0x4478 JUMPI DUP1 DUP2 REVERT JUMPDEST PUSH1 0x40 MLOAD PUSH1 0x80 DUP2 ADD DUP2 DUP2 LT PUSH8 0xFFFFFFFFFFFFFFFF DUP3 GT OR ISZERO PUSH2 0x4495 JUMPI INVALID JUMPDEST DUP1 PUSH1 0x40 MSTORE POP DUP1 SWAP2 POP DUP3 MLOAD PUSH2 0x44A8 DUP2 PUSH2 0x4B2C JUMP JUMPDEST DUP2 MSTORE PUSH1 0x20 DUP4 DUP2 ADD MLOAD SWAP1 DUP3 ADD MSTORE PUSH2 0x44C1 DUP5 PUSH1 0x40 DUP6 ADD PUSH2 0x4407 JUMP JUMPDEST PUSH1 0x40 DUP3 ADD MSTORE PUSH1 0xA0 DUP4 ADD MLOAD PUSH1 0x60 DUP3 ADD MSTORE POP SWAP3 SWAP2 POP POP JUMP JUMPDEST PUSH1 0x0 PUSH1 0xA0 DUP3 DUP5 SUB SLT ISZERO PUSH2 0x44E8 JUMPI DUP1 DUP2 REVERT JUMPDEST PUSH1 0x40 MLOAD PUSH1 0xA0 DUP2 ADD DUP2 DUP2 LT PUSH8 0xFFFFFFFFFFFFFFFF DUP3 GT OR ISZERO PUSH2 0x4505 JUMPI INVALID JUMPDEST DUP1 PUSH1 0x40 MSTORE POP DUP1 SWAP2 POP DUP3 MLOAD DUP2 MSTORE PUSH1 0x20 DUP4 ADD MLOAD PUSH1 0x20 DUP3 ADD MSTORE PUSH1 0x40 DUP4 ADD MLOAD PUSH1 0x40 DUP3 ADD MSTORE PUSH1 0x60 DUP4 ADD MLOAD PUSH1 0x60 DUP3 ADD MSTORE PUSH1 0x80 DUP4 ADD MLOAD PUSH1 0x80 DUP3 ADD MSTORE POP SWAP3 SWAP2 POP POP JUMP JUMPDEST PUSH1 0x0 PUSH2 0x340 DUP3 DUP5 SUB SLT ISZERO PUSH2 0x4552 JUMPI DUP1 DUP2 REVERT JUMPDEST PUSH2 0x160 PUSH2 0x455E DUP2 PUSH2 0x4AE2 JUMP JUMPDEST SWAP2 POP PUSH2 0x4569 DUP4 PUSH2 0x42B8 JUMP JUMPDEST DUP3 MSTORE PUSH1 0x20 DUP4 ADD MLOAD PUSH1 0x20 DUP4 ADD MSTORE PUSH1 0x40 DUP4 ADD MLOAD PUSH1 0x40 DUP4 ADD MSTORE PUSH1 0x60 DUP4 ADD MLOAD PUSH1 0x60 DUP4 ADD MSTORE PUSH1 0x80 DUP4 ADD MLOAD PUSH1 0x80 DUP4 ADD MSTORE PUSH2 0x459F PUSH1 0xA0 DUP5 ADD PUSH2 0x43E0 JUMP JUMPDEST PUSH1 0xA0 DUP4 ADD MSTORE PUSH2 0x45B1 DUP5 PUSH1 0xC0 DUP6 ADD PUSH2 0x44D7 JUMP JUMPDEST PUSH1 0xC0 DUP4 ADD MSTORE PUSH2 0x45C2 DUP5 DUP3 DUP6 ADD PUSH2 0x44D7 JUMP JUMPDEST PUSH1 0xE0 DUP4 ADD MSTORE POP PUSH2 0x45D6 DUP4 PUSH2 0x200 DUP5 ADD PUSH2 0x4407 JUMP JUMPDEST PUSH2 0x100 DUP3 ADD MSTORE PUSH2 0x45EA DUP4 PUSH2 0x260 DUP5 ADD PUSH2 0x4467 JUMP JUMPDEST PUSH2 0x120 DUP3 ADD MSTORE PUSH2 0x45FD PUSH2 0x320 DUP4 ADD PUSH2 0x43A5 JUMP JUMPDEST PUSH2 0x140 DUP3 ADD MSTORE SWAP3 SWAP2 POP POP JUMP JUMPDEST DUP1 CALLDATALOAD PUSH1 0x1 PUSH1 0x1 PUSH1 0x80 SHL SUB DUP2 AND DUP2 EQ PUSH2 0x442 JUMPI PUSH1 0x0 DUP1 REVERT JUMPDEST DUP1 MLOAD PUSH2 0x442 DUP2 PUSH2 0x4B2C JUMP JUMPDEST DUP1 MLOAD PUSH1 0xFF DUP2 AND DUP2 EQ PUSH2 0x442 JUMPI PUSH1 0x0 DUP1 REVERT JUMPDEST DUP1 CALLDATALOAD PUSH1 0x1 PUSH1 0x1 PUSH1 0x60 SHL SUB DUP2 AND DUP2 EQ PUSH2 0x442 JUMPI PUSH1 0x0 DUP1 REVERT JUMPDEST PUSH1 0x0 DUP1 PUSH1 0x0 DUP1 PUSH1 0x0 PUSH1 0xA0 DUP7 DUP9 SUB SLT ISZERO PUSH2 0x466A JUMPI DUP1 DUP2 REVERT JUMPDEST DUP6 CALLDATALOAD PUSH2 0x4675 DUP2 PUSH2 0x4B06 JUMP JUMPDEST SWAP5 POP PUSH1 0x20 DUP7 ADD CALLDATALOAD PUSH2 0x4685 DUP2 PUSH2 0x4B2C JUMP JUMPDEST SWAP4 POP PUSH1 0x40 DUP7 ADD CALLDATALOAD PUSH2 0x4695 DUP2 PUSH2 0x4B2C JUMP JUMPDEST SWAP3 POP PUSH2 0x46A3 PUSH1 0x60 DUP8 ADD PUSH2 0x4609 JUMP JUMPDEST SWAP2 POP PUSH2 0x46B1 PUSH1 0x80 DUP8 ADD PUSH2 0x463C JUMP JUMPDEST SWAP1 POP SWAP3 SWAP6 POP SWAP3 SWAP6 SWAP1 SWAP4 POP JUMP JUMPDEST PUSH1 0x0 DUP1 PUSH1 0x0 DUP1 PUSH1 0x0 DUP1 PUSH1 0x0 PUSH1 0xE0 DUP9 DUP11 SUB SLT ISZERO PUSH2 0x46D7 JUMPI DUP5 DUP6 REVERT JUMPDEST DUP8 CALLDATALOAD PUSH2 0x46E2 DUP2 PUSH2 0x4B06 JUMP JUMPDEST SWAP7 POP PUSH1 0x20 DUP9 ADD CALLDATALOAD PUSH2 0x46F2 DUP2 PUSH2 0x4B2C JUMP JUMPDEST SWAP6 POP PUSH1 0x40 DUP9 ADD CALLDATALOAD PUSH2 0x4702 DUP2 PUSH2 0x4B2C JUMP JUMPDEST SWAP5 POP PUSH2 0x4710 PUSH1 0x60 DUP10 ADD PUSH2 0x4609 JUMP JUMPDEST SWAP4 POP PUSH2 0x471E PUSH1 0x80 DUP10 ADD PUSH2 0x463C JUMP JUMPDEST SWAP3 POP PUSH1 0xA0 DUP9 ADD CALLDATALOAD PUSH2 0x472E DUP2 PUSH2 0x4B1E JUMP JUMPDEST SWAP2 POP PUSH1 0xC0 DUP9 ADD CALLDATALOAD PUSH2 0x473E DUP2 PUSH2 0x4B1E JUMP JUMPDEST DUP1 SWAP2 POP POP SWAP3 SWAP6 SWAP9 SWAP2 SWAP5 SWAP8 POP SWAP3 SWAP6 POP JUMP JUMPDEST PUSH1 0x0 DUP1 PUSH1 0x0 PUSH1 0x60 DUP5 DUP7 SUB SLT ISZERO PUSH2 0x4762 JUMPI DUP1 DUP2 REVERT JUMPDEST DUP4 CALLDATALOAD PUSH2 0x476D DUP2 PUSH2 0x4B06 JUMP JUMPDEST SWAP3 POP PUSH1 0x20 DUP5 ADD CALLDATALOAD PUSH2 0x477D DUP2 PUSH2 0x4B2C JUMP JUMPDEST SWAP2 POP PUSH2 0x478B PUSH1 0x40 DUP6 ADD PUSH2 0x463C JUMP JUMPDEST SWAP1 POP SWAP3 POP SWAP3 POP SWAP3 JUMP JUMPDEST PUSH1 0x0 DUP1 PUSH1 0x0 DUP4 DUP6 SUB PUSH2 0x400 DUP2 SLT ISZERO PUSH2 0x47AA JUMPI DUP2 DUP3 REVERT JUMPDEST PUSH1 0xA0 DUP2 SLT ISZERO PUSH2 0x47B7 JUMPI DUP2 DUP3 REVERT JUMPDEST POP PUSH1 0x40 MLOAD PUSH1 0xA0 DUP2 ADD PUSH8 0xFFFFFFFFFFFFFFFF DUP3 DUP3 LT DUP2 DUP4 GT OR ISZERO PUSH2 0x47D6 JUMPI INVALID JUMPDEST DUP2 PUSH1 0x40 MSTORE DUP7 MLOAD SWAP2 POP PUSH5 0xFFFFFFFFFF DUP3 AND DUP3 EQ PUSH2 0x47F0 JUMPI DUP4 DUP5 REVERT JUMPDEST DUP2 DUP4 MSTORE PUSH2 0x47FF PUSH1 0x20 DUP9 ADD PUSH2 0x43C8 JUMP JUMPDEST PUSH1 0x20 DUP5 ADD MSTORE PUSH2 0x4810 PUSH1 0x40 DUP9 ADD PUSH2 0x462B JUMP JUMPDEST PUSH1 0x40 DUP5 ADD MSTORE PUSH2 0x4821 PUSH1 0x60 DUP9 ADD PUSH2 0x4620 JUMP JUMPDEST PUSH1 0x60 DUP5 ADD MSTORE PUSH2 0x4832 PUSH1 0x80 DUP9 ADD PUSH2 0x43B0 JUMP JUMPDEST PUSH1 0x80 DUP5 ADD MSTORE DUP3 SWAP6 POP PUSH2 0x4847 DUP9 PUSH1 0xA0 DUP10 ADD PUSH2 0x4540 JUMP JUMPDEST SWAP5 POP PUSH2 0x3E0 DUP8 ADD MLOAD SWAP3 POP DUP1 DUP4 GT ISZERO PUSH2 0x485D JUMPI DUP4 DUP5 REVERT JUMPDEST POP POP PUSH2 0x486B DUP7 DUP3 DUP8 ADD PUSH2 0x42C3 JUMP JUMPDEST SWAP2 POP POP SWAP3 POP SWAP3 POP SWAP3 JUMP JUMPDEST PUSH1 0x0 PUSH1 0x20 DUP3 DUP5 SUB SLT ISZERO PUSH2 0x4886 JUMPI DUP1 DUP2 REVERT JUMPDEST POP MLOAD SWAP2 SWAP1 POP JUMP JUMPDEST PUSH1 0x1 PUSH1 0x1 PUSH1 0xA0 SHL SUB SWAP2 SWAP1 SWAP2 AND DUP2 MSTORE PUSH1 0x20 ADD SWAP1 JUMP JUMPDEST PUSH1 0x1 PUSH1 0x1 PUSH1 0xA0 SHL SUB SWAP3 DUP4 AND DUP2 MSTORE SWAP2 AND PUSH1 0x20 DUP3 ADD MSTORE PUSH1 0x40 ADD SWAP1 JUMP JUMPDEST PUSH1 0x1 PUSH1 0x1 PUSH1 0xA0 SHL SUB SWAP4 SWAP1 SWAP4 AND DUP4 MSTORE PUSH2 0xFFFF SWAP2 DUP3 AND PUSH1 0x20 DUP5 ADD MSTORE AND PUSH1 0x40 DUP3 ADD MSTORE PUSH1 0x60 ADD SWAP1 JUMP JUMPDEST PUSH1 0x1 PUSH1 0x1 PUSH1 0xA0 SHL SUB SWAP4 DUP5 AND DUP2 MSTORE PUSH1 0x20 DUP2 ADD SWAP3 SWAP1 SWAP3 MSTORE SWAP1 SWAP2 AND PUSH1 0x40 DUP3 ADD MSTORE PUSH1 0x60 ADD SWAP1 JUMP JUMPDEST PUSH1 0x1 PUSH1 0x1 PUSH1 0xA0 SHL SUB SWAP5 SWAP1 SWAP5 AND DUP5 MSTORE PUSH1 0x20 DUP5 ADD SWAP3 SWAP1 SWAP3 MSTORE PUSH1 0x40 DUP4 ADD MSTORE PUSH1 0x60 DUP3 ADD MSTORE PUSH1 0x80 ADD SWAP1 JUMP JUMPDEST SWAP1 DUP2 MSTORE PUSH1 0x20 ADD SWAP1 JUMP JUMPDEST SWAP2 DUP3 MSTORE PUSH1 0x20 DUP3 ADD MSTORE PUSH1 0x40 ADD SWAP1 JUMP JUMPDEST SWAP3 DUP4 MSTORE PUSH1 0x20 DUP4 ADD SWAP2 SWAP1 SWAP2 MSTORE PUSH1 0x40 DUP3 ADD MSTORE PUSH1 0x60 ADD SWAP1 JUMP JUMPDEST PUSH1 0x20 DUP1 DUP3 MSTORE PUSH1 0xD SWAP1 DUP3 ADD MSTORE PUSH13 0x139BC81B1BD8D85B081919589D PUSH1 0x9A SHL PUSH1 0x40 DUP3 ADD MSTORE PUSH1 0x60 ADD SWAP1 JUMP JUMPDEST PUSH1 0x20 DUP1 DUP3 MSTORE PUSH1 0x6 SWAP1 DUP3 ADD MSTORE PUSH6 0x52656465656D PUSH1 0xD0 SHL PUSH1 0x40 DUP3 ADD MSTORE PUSH1 0x60 ADD SWAP1 JUMP JUMPDEST PUSH1 0x20 DUP1 DUP3 MSTORE PUSH1 0xD SWAP1 DUP3 ADD MSTORE PUSH13 0x92DCECC2D8D2C840D2DCC8CAF PUSH1 0x9B SHL PUSH1 0x40 DUP3 ADD MSTORE PUSH1 0x60 ADD SWAP1 JUMP JUMPDEST PUSH1 0x20 DUP1 DUP3 MSTORE PUSH1 0xE SWAP1 DUP3 ADD MSTORE PUSH14 0x125B9D985B1A59081B585C9AD95D PUSH1 0x92 SHL PUSH1 0x40 DUP3 ADD MSTORE PUSH1 0x60 ADD SWAP1 JUMP JUMPDEST PUSH1 0x20 DUP1 DUP3 MSTORE PUSH1 0x7 SWAP1 DUP3 ADD MSTORE PUSH7 0x9CDE40C6C2E6D PUSH1 0xCB SHL PUSH1 0x40 DUP3 ADD MSTORE PUSH1 0x60 ADD SWAP1 JUMP JUMPDEST PUSH1 0x20 DUP1 DUP3 MSTORE PUSH1 0xD SWAP1 DUP3 ADD MSTORE PUSH13 0x139BC818DBDB1B185D195C985B PUSH1 0x9A SHL PUSH1 0x40 DUP3 ADD MSTORE PUSH1 0x60 ADD SWAP1 JUMP JUMPDEST PUSH1 0x20 DUP1 DUP3 MSTORE PUSH1 0xE SWAP1 DUP3 ADD MSTORE PUSH14 0x1499595B9D1C985B9D0818D85B1B PUSH1 0x92 SHL PUSH1 0x40 DUP3 ADD MSTORE PUSH1 0x60 ADD SWAP1 JUMP JUMPDEST PUSH1 0x20 DUP1 DUP3 MSTORE PUSH1 0x8 SWAP1 DUP3 ADD MSTORE PUSH8 0x9CCACE4086C2E6D PUSH1 0xC3 SHL PUSH1 0x40 DUP3 ADD MSTORE PUSH1 0x60 ADD SWAP1 JUMP JUMPDEST PUSH1 0x20 DUP1 DUP3 MSTORE PUSH1 0xA SWAP1 DUP3 ADD MSTORE PUSH10 0x2732B390372A37B5B2B7 PUSH1 0xB1 SHL PUSH1 0x40 DUP3 ADD MSTORE PUSH1 0x60 ADD SWAP1 JUMP JUMPDEST PUSH2 0xFFFF SWAP3 SWAP1 SWAP3 AND DUP3 MSTORE PUSH1 0x20 DUP3 ADD MSTORE PUSH1 0x40 ADD SWAP1 JUMP JUMPDEST PUSH2 0xFFFF SWAP6 DUP7 AND DUP2 MSTORE SWAP4 SWAP1 SWAP5 AND PUSH1 0x20 DUP5 ADD MSTORE PUSH1 0x40 DUP4 ADD SWAP2 SWAP1 SWAP2 MSTORE PUSH1 0x60 DUP3 ADD MSTORE PUSH1 0x80 DUP2 ADD SWAP2 SWAP1 SWAP2 MSTORE PUSH1 0xA0 ADD SWAP1 JUMP JUMPDEST PUSH1 0x40 MLOAD DUP2 DUP2 ADD PUSH8 0xFFFFFFFFFFFFFFFF DUP2 GT DUP3 DUP3 LT OR ISZERO PUSH2 0x4AFE JUMPI INVALID JUMPDEST PUSH1 0x40 MSTORE SWAP2 SWAP1 POP JUMP JUMPDEST PUSH1 0x1 PUSH1 0x1 PUSH1 0xA0 SHL SUB DUP2 AND DUP2 EQ PUSH2 0x4B1B JUMPI PUSH1 0x0 DUP1 REVERT JUMPDEST POP JUMP JUMPDEST DUP1 ISZERO ISZERO DUP2 EQ PUSH2 0x4B1B JUMPI PUSH1 0x0 DUP1 REVERT JUMPDEST PUSH2 0xFFFF DUP2 AND DUP2 EQ PUSH2 0x4B1B JUMPI PUSH1 0x0 DUP1 REVERT INVALID MSTORE8 PUSH2 0x6665 0x4D PUSH2 0x7468 GASPRICE KECCAK256 PUSH14 0x756C7469706C69636174696F6E20 PUSH16 0x766572666C6F77A26469706673582212 KECCAK256 DUP5 0xBD LOG1 0xB4 0x4A ADDRESS OR PUSH12 0xE3B7444B79B95F42F3CF5A3E 0xAB NOT 0x23 PUSH1 0xA7 EXTCODEHASH 0xC2 PUSH15 0xD957923364736F6C63430007060033 ","sha1":"4003e8a663626343a7fa05a76cb8d3a64bce19a1","source":"// SPDX-License-Identifier: GPL-3.0-only\npragma solidity ^0.7.0;\npragma abicoder v2;\n\nimport \"./ActionGuards.sol\";\nimport \"../../internal/AccountContextHandler.sol\";\nimport \"../../internal/liquidation/LiquidateCurrency.sol\";\nimport \"../../internal/liquidation/LiquidationHelpers.sol\";\nimport \"../../math/SafeInt256.sol\";\n\ncontract LiquidateCurrencyAction is ActionGuards {\n    using AccountContextHandler for AccountContext;\n    using BalanceHandler for BalanceState;\n    using SafeInt256 for int256;\n\n    event LiquidateLocalCurrency(\n        address indexed liquidated,\n        address indexed liquidator,\n        uint16 localCurrencyId,\n        int256 localAssetCashFromLiquidator\n    );\n\n    event LiquidateCollateralCurrency(\n        address indexed liquidated,\n        address indexed liquidator,\n        uint16 localCurrencyId,\n        uint16 collateralCurrencyId,\n        int256 localAssetCashFromLiquidator,\n        int256 netCollateralTransfer,\n        int256 netNTokenTransfer\n    );\n\n    /// @notice Calculates the net local currency required by the liquidator. This is a stateful method\n    /// because it may settle the liquidated account if required. However, it can be called using staticcall\n    /// off chain to determine the net local currency required before liquidating.\n    /// @param liquidateAccount account to liquidate\n    /// @param localCurrency id of the local currency\n    /// @param maxNTokenLiquidation maximum amount of nTokens to purchase (if any)\n    /// @return local currency required from liquidator (positive or negative)\n    /// @return local nTokens paid to liquidator (positive)\n    function calculateLocalCurrencyLiquidation(\n        address liquidateAccount,\n        uint16 localCurrency,\n        uint96 maxNTokenLiquidation\n    ) external returns (int256, int256) {\n        // prettier-ignore\n        (\n            int256 localAssetCashFromLiquidator,\n            BalanceState memory localBalanceState,\n            /* PortfolioState memory portfolio */,\n            /* AccountContext memory accountContext */\n        ) = _localCurrencyLiquidation(\n            liquidateAccount,\n            localCurrency,\n            maxNTokenLiquidation,\n            true // Is Calculation\n        );\n\n        return (\n            localAssetCashFromLiquidator,\n            localBalanceState.netNTokenTransfer.neg()\n        );\n    }\n\n    /// @notice Liquidates an account using local currency only\n    /// @param liquidateAccount account to liquidate\n    /// @param localCurrency id of the local currency\n    /// @param maxNTokenLiquidation maximum amount of nTokens to purchase (if any)\n    /// @return local currency required from liquidator (positive or negative)\n    /// @return local nTokens paid to liquidator (positive)\n    function liquidateLocalCurrency(\n        address liquidateAccount,\n        uint16 localCurrency,\n        uint96 maxNTokenLiquidation\n    ) external nonReentrant returns (int256, int256) {\n        // Calculates liquidation results:\n        //  - withdraws liquidity tokens in local currency\n        //  - ntoken transfers\n        //  - amount of cash paid to/from the liquidator\n        (\n            int256 localAssetCashFromLiquidator,\n            BalanceState memory localBalanceState,\n            PortfolioState memory portfolio,\n            AccountContext memory accountContext\n        ) = _localCurrencyLiquidation(\n            liquidateAccount,\n            localCurrency,\n            maxNTokenLiquidation,\n            false // is not calculation\n        );\n\n        // Finalizes liquidator account changes:\n        //  - transfers local asset cash to/from liquidator wallet (not notional cash\n        //    balance). Exception is with tokens that have a transfer fee\n        //  - transfers ntokens to liquidator\n        AccountContext memory liquidatorContext =\n            LiquidationHelpers.finalizeLiquidatorLocal(\n                msg.sender,\n                localCurrency,\n                localAssetCashFromLiquidator,\n                localBalanceState.netNTokenTransfer.neg()\n            );\n        liquidatorContext.setAccountContext(msg.sender);\n\n        // Finalizes liquidated account changes:\n        //   - credits additional change in localBalanceChange.netCashChange\n        //   - removes transferred nTokens from the account\n        //   - finalizes any liquidity token withdraws in an array portfolio\n        //   - sets the account context\n        LiquidateCurrency.finalizeLiquidatedCollateralAndPortfolio(\n            liquidateAccount,\n            localBalanceState, // In this case, local currency is the collateral\n            accountContext,\n            portfolio\n        );\n\n        emit LiquidateLocalCurrency(\n            liquidateAccount,\n            msg.sender,\n            localCurrency,\n            localAssetCashFromLiquidator\n        );\n\n        return (\n            localAssetCashFromLiquidator,\n            localBalanceState.netNTokenTransfer.neg()\n        );\n    }\n\n    /// @notice Calculates local and collateral currency transfers for a liquidation. This is a stateful method\n    /// because it may settle the liquidated account if required. However, it can be called using staticcall\n    /// off chain to determine the net currency amounts required before liquidating.\n    /// @param liquidateAccount account to liquidate\n    /// @param localCurrency id of the local currency\n    /// @param collateralCurrency id of the collateral currency\n    /// @param maxCollateralLiquidation maximum amount of collateral (inclusive of cash and nTokens) to liquidate\n    /// @param maxNTokenLiquidation maximum amount of nTokens to purchase (if any)\n    /// @return local currency required from liquidator (negative)\n    /// @return collateral asset cash paid to liquidator (positive)\n    /// @return collateral nTokens paid to liquidator (positive)\n    function calculateCollateralCurrencyLiquidation(\n        address liquidateAccount,\n        uint16 localCurrency,\n        uint16 collateralCurrency,\n        uint128 maxCollateralLiquidation,\n        uint96 maxNTokenLiquidation\n    )\n        external\n        returns (\n            int256,\n            int256,\n            int256\n        )\n    {\n        // prettier-ignore\n        (\n            int256 localAssetCashFromLiquidator,\n            BalanceState memory collateralBalanceState,\n            /* PortfolioState memory portfolio */,\n            /* AccountContext memory accountContext */\n        ) = _collateralCurrencyLiquidation(\n                liquidateAccount,\n                localCurrency,\n                collateralCurrency,\n                maxCollateralLiquidation,\n                maxNTokenLiquidation,\n                true // is calculation\n            );\n\n        return (\n            localAssetCashFromLiquidator,\n            _collateralAssetCashToLiquidator(collateralBalanceState),\n            collateralBalanceState.netNTokenTransfer.neg()\n        );\n    }\n\n    /// @notice Liquidates an account between local and collateral currency\n    /// @param liquidateAccount account to liquidate\n    /// @param localCurrency id of the local currency\n    /// @param collateralCurrency id of the collateral currency\n    /// @param maxCollateralLiquidation maximum amount of collateral (inclusive of cash and nTokens) to liquidate\n    /// @param maxNTokenLiquidation maximum amount of nTokens to purchase (if any)\n    /// @param withdrawCollateral if true, withdraws collateral cash back to msg.sender\n    /// @param redeemToUnderlying if true, converts collateral cash from asset cash to underlying\n    /// @return local currency required from liquidator (negative)\n    /// @return collateral asset cash paid to liquidator (positive)\n    /// @return collateral nTokens paid to liquidator (positive)\n    function liquidateCollateralCurrency(\n        address liquidateAccount,\n        uint16 localCurrency,\n        uint16 collateralCurrency,\n        uint128 maxCollateralLiquidation,\n        uint96 maxNTokenLiquidation,\n        bool withdrawCollateral,\n        bool redeemToUnderlying\n    )\n        external\n        nonReentrant\n        returns (\n            int256,\n            int256,\n            int256\n        )\n    {\n        // Calculates currency liquidation:\n        //  - amount of collateral cash balance given to liquidator\n        //  - liquidity tokens withdrawn\n        //  - collateral ntokens transferred to liquidator\n        (\n            int256 localAssetCashFromLiquidator,\n            BalanceState memory collateralBalanceState,\n            PortfolioState memory portfolio,\n            AccountContext memory accountContext\n        ) =\n            _collateralCurrencyLiquidation(\n                liquidateAccount,\n                localCurrency,\n                collateralCurrency,\n                maxCollateralLiquidation,\n                maxNTokenLiquidation,\n                false // is not calculation\n            );\n\n        // Finalizes the liquidator side of the transaction:\n        //   - transfers local asset cash from the liquidator wallet (exception\n        //     is if local asset has transfer fees)\n        //   - transfers collateral cash to liquidator, withdrawing and redeeming\n        //     if specified\n        //   - transfers ntokens to liquidator\n        //   - sets account context\n        _finalizeLiquidatorBalances(\n            localCurrency,\n            collateralCurrency,\n            localAssetCashFromLiquidator,\n            collateralBalanceState,\n            withdrawCollateral,\n            redeemToUnderlying\n        );\n\n        _emitCollateralEvent(\n            liquidateAccount,\n            localCurrency,\n            localAssetCashFromLiquidator,\n            collateralBalanceState\n        );\n\n        // Finalize liquidated account local balance:\n        //   - adds local asset cash to the balance\n        LiquidationHelpers.finalizeLiquidatedLocalBalance(\n            liquidateAccount,\n            localCurrency,\n            accountContext,\n            localAssetCashFromLiquidator\n        );\n\n        // Finalizes the liquidated account collateral balance:\n        //   - removes collateral cash paid to liquidator from cash balance\n        //   - stores any updates to the portfolio array from removed liquidity tokens\n        //   - removes collateral nTokens from the account\n        //   - sets the account context\n        LiquidateCurrency.finalizeLiquidatedCollateralAndPortfolio(\n            liquidateAccount,\n            collateralBalanceState,\n            accountContext,\n            portfolio\n        );\n\n        return (\n            localAssetCashFromLiquidator,\n            _collateralAssetCashToLiquidator(collateralBalanceState),\n            collateralBalanceState.netNTokenTransfer.neg()\n        );\n    }\n\n    function _emitCollateralEvent(\n        address liquidateAccount,\n        uint16 localCurrency,\n        int256 localAssetCashFromLiquidator,\n        BalanceState memory collateralBalanceState\n    ) private {\n        emit LiquidateCollateralCurrency(\n            liquidateAccount,\n            msg.sender,\n            localCurrency,\n            uint16(collateralBalanceState.currencyId),\n            localAssetCashFromLiquidator,\n            _collateralAssetCashToLiquidator(collateralBalanceState),\n            collateralBalanceState.netNTokenTransfer.neg()\n        );\n    }\n\n    function _localCurrencyLiquidation(\n        address liquidateAccount,\n        uint16 localCurrency,\n        uint96 maxNTokenLiquidation,\n        bool isCalculation\n    )\n        internal\n        returns (\n            int256,\n            BalanceState memory,\n            PortfolioState memory,\n            AccountContext memory\n        )\n    {\n        (\n            AccountContext memory accountContext,\n            LiquidationFactors memory factors,\n            PortfolioState memory portfolio\n        ) = LiquidationHelpers.preLiquidationActions(liquidateAccount, localCurrency, 0);\n        BalanceState memory localBalanceState;\n        localBalanceState.loadBalanceState(liquidateAccount, localCurrency, accountContext);\n        factors.isCalculation = isCalculation;\n\n        int256 localAssetCashFromLiquidator =\n            LiquidateCurrency.liquidateLocalCurrency(\n                localCurrency,\n                maxNTokenLiquidation,\n                block.timestamp,\n                localBalanceState,\n                factors,\n                portfolio\n            );\n\n        return (\n            localAssetCashFromLiquidator,\n            localBalanceState,\n            portfolio,\n            accountContext\n        );\n    }\n\n    function _collateralCurrencyLiquidation(\n        address liquidateAccount,\n        uint16 localCurrency,\n        uint16 collateralCurrency,\n        uint128 maxCollateralLiquidation,\n        uint96 maxNTokenLiquidation,\n        bool isCalculation\n    )\n        private\n        returns (\n            int256,\n            BalanceState memory,\n            PortfolioState memory,\n            AccountContext memory\n        )\n    {\n        uint256 blockTime = block.timestamp;\n        (\n            AccountContext memory accountContext,\n            LiquidationFactors memory factors,\n            PortfolioState memory portfolio\n        ) =\n            LiquidationHelpers.preLiquidationActions(\n                liquidateAccount,\n                localCurrency,\n                collateralCurrency\n            );\n\n        BalanceState memory collateralBalanceState;\n        collateralBalanceState.loadBalanceState(\n            liquidateAccount,\n            collateralCurrency,\n            accountContext\n        );\n        factors.isCalculation = isCalculation;\n\n        int256 localAssetCashFromLiquidator =\n            LiquidateCurrency.liquidateCollateralCurrency(\n                maxCollateralLiquidation,\n                maxNTokenLiquidation,\n                blockTime,\n                collateralBalanceState,\n                factors,\n                portfolio\n            );\n\n        return (\n            localAssetCashFromLiquidator,\n            collateralBalanceState,\n            portfolio,\n            accountContext\n        );\n    }\n\n    /// @dev Only used for collateral currency liquidation\n    function _finalizeLiquidatorBalances(\n        uint16 localCurrency,\n        uint16 collateralCurrency,\n        int256 localAssetCashFromLiquidator,\n        BalanceState memory collateralBalanceState,\n        bool withdrawCollateral,\n        bool redeemToUnderlying\n    ) private {\n        // Will transfer local currency from the liquidator\n        AccountContext memory liquidatorContext =\n            LiquidationHelpers.finalizeLiquidatorLocal(\n                msg.sender,\n                localCurrency,\n                localAssetCashFromLiquidator,\n                0 // No nToken transfers\n            );\n\n        // Will transfer collateral to the liquidator\n        LiquidationHelpers.finalizeLiquidatorCollateral(\n            msg.sender,\n            liquidatorContext,\n            collateralCurrency,\n            _collateralAssetCashToLiquidator(collateralBalanceState),\n            collateralBalanceState.netNTokenTransfer.neg(),\n            withdrawCollateral,\n            redeemToUnderlying\n        );\n\n        liquidatorContext.setAccountContext(msg.sender);\n    }\n\n    function _collateralAssetCashToLiquidator(BalanceState memory collateralBalanceState)\n        private\n        pure\n        returns (int256)\n    {\n        // netAssetTransferInternalPrecision is the cash claim withdrawn from collateral\n        // liquidity tokens.\n        return\n            collateralBalanceState.netCashChange.neg().add(\n                collateralBalanceState.netAssetTransferInternalPrecision\n            );\n    }\n\n    /// @notice Get a list of deployed library addresses (sorted by library name)\n    function getLibInfo() external view returns (address, address) {\n        return (address(FreeCollateralExternal), address(MigrateIncentives));\n    }\n}\n","sourcePath":"contracts/external/actions/LiquidateCurrencyAction.sol","deployment":{"address":"0x2Bcdec0271d3C7b75e07926646ba6975631949Ab","chainid":"5","blockHeight":6439074}}