{"abi":[{"anonymous":false,"inputs":[{"indexed":true,"internalType":"uint16","name":"currencyId","type":"uint16"},{"indexed":true,"internalType":"address","name":"vault","type":"address"},{"indexed":false,"internalType":"int256","name":"shortfall","type":"int256"}],"name":"ProtocolInsolvency","type":"event"},{"anonymous":false,"inputs":[{"indexed":true,"internalType":"address","name":"vault","type":"address"},{"indexed":false,"internalType":"bool","name":"enabled","type":"bool"}],"name":"VaultChange","type":"event"},{"anonymous":false,"inputs":[{"indexed":true,"internalType":"address","name":"vault","type":"address"},{"indexed":false,"internalType":"bool","name":"enabled","type":"bool"}],"name":"VaultPauseStatus","type":"event"},{"anonymous":false,"inputs":[{"indexed":true,"internalType":"uint16","name":"currencyId","type":"uint16"},{"indexed":true,"internalType":"address","name":"vault","type":"address"},{"indexed":false,"internalType":"int256","name":"shortfall","type":"int256"}],"name":"VaultShortfall","type":"event"},{"inputs":[{"internalType":"uint16","name":"currencyId","type":"uint16"},{"internalType":"uint256","name":"maturity","type":"uint256"},{"internalType":"uint256","name":"fCashToBorrow","type":"uint256"},{"internalType":"uint32","name":"maxBorrowRate","type":"uint32"}],"name":"borrowSecondaryCurrencyToVault","outputs":[{"internalType":"uint256","name":"underlyingTokensTransferred","type":"uint256"}],"stateMutability":"nonpayable","type":"function"},{"inputs":[{"internalType":"uint256","name":"maturity","type":"uint256"},{"internalType":"uint256","name":"assetCashToDepositExternal","type":"uint256"},{"internalType":"bytes","name":"vaultData","type":"bytes"}],"name":"depositVaultCashToStrategyTokens","outputs":[],"stateMutability":"nonpayable","type":"function"},{"inputs":[{"internalType":"address","name":"vault","type":"address"},{"internalType":"uint16","name":"currencyId","type":"uint16"}],"name":"getBorrowCapacity","outputs":[{"internalType":"uint256","name":"totalUsedBorrowCapacity","type":"uint256"},{"internalType":"uint256","name":"maxBorrowCapacity","type":"uint256"}],"stateMutability":"view","type":"function"},{"inputs":[{"internalType":"address","name":"vault","type":"address"},{"internalType":"uint256","name":"maturity","type":"uint256"}],"name":"getCashRequiredToSettle","outputs":[{"internalType":"int256","name":"assetCashRequiredToSettle","type":"int256"},{"internalType":"int256","name":"underlyingCashRequiredToSettle","type":"int256"}],"stateMutability":"view","type":"function"},{"inputs":[],"name":"getLibInfo","outputs":[{"internalType":"address","name":"","type":"address"}],"stateMutability":"pure","type":"function"},{"inputs":[{"internalType":"address","name":"vault","type":"address"},{"internalType":"uint16","name":"currencyId","type":"uint16"},{"internalType":"uint256","name":"maturity","type":"uint256"}],"name":"getSecondaryBorrow","outputs":[{"internalType":"uint256","name":"totalfCashBorrowed","type":"uint256"}],"stateMutability":"view","type":"function"},{"inputs":[{"internalType":"address","name":"vault","type":"address"}],"name":"getVaultConfig","outputs":[{"components":[{"internalType":"address","name":"vault","type":"address"},{"internalType":"uint16","name":"flags","type":"uint16"},{"internalType":"uint16","name":"borrowCurrencyId","type":"uint16"},{"internalType":"int256","name":"minAccountBorrowSize","type":"int256"},{"internalType":"int256","name":"feeRate","type":"int256"},{"internalType":"int256","name":"minCollateralRatio","type":"int256"},{"internalType":"int256","name":"liquidationRate","type":"int256"},{"internalType":"int256","name":"reserveFeeShare","type":"int256"},{"internalType":"uint256","name":"maxBorrowMarketIndex","type":"uint256"},{"internalType":"int256","name":"maxDeleverageCollateralRatio","type":"int256"},{"internalType":"uint16[3]","name":"secondaryBorrowCurrencies","type":"uint16[3]"},{"components":[{"internalType":"contract AssetRateAdapter","name":"rateOracle","type":"address"},{"internalType":"int256","name":"rate","type":"int256"},{"internalType":"int256","name":"underlyingDecimals","type":"int256"}],"internalType":"struct AssetRateParameters","name":"assetRate","type":"tuple"}],"internalType":"struct VaultConfig","name":"vaultConfig","type":"tuple"}],"stateMutability":"view","type":"function"},{"inputs":[{"internalType":"address","name":"vault","type":"address"},{"internalType":"uint256","name":"maturity","type":"uint256"}],"name":"getVaultState","outputs":[{"components":[{"internalType":"uint256","name":"maturity","type":"uint256"},{"internalType":"int256","name":"totalfCash","type":"int256"},{"internalType":"bool","name":"isSettled","type":"bool"},{"internalType":"uint256","name":"totalVaultShares","type":"uint256"},{"internalType":"uint256","name":"totalAssetCash","type":"uint256"},{"internalType":"uint256","name":"totalStrategyTokens","type":"uint256"},{"internalType":"int256","name":"settlementStrategyTokenValue","type":"int256"}],"internalType":"struct VaultState","name":"vaultState","type":"tuple"}],"stateMutability":"view","type":"function"},{"inputs":[],"name":"owner","outputs":[{"internalType":"address","name":"","type":"address"}],"stateMutability":"view","type":"function"},{"inputs":[],"name":"pauseGuardian","outputs":[{"internalType":"address","name":"","type":"address"}],"stateMutability":"view","type":"function"},{"inputs":[],"name":"pauseRouter","outputs":[{"internalType":"address","name":"","type":"address"}],"stateMutability":"view","type":"function"},{"inputs":[{"internalType":"uint256","name":"maturity","type":"uint256"},{"internalType":"uint256","name":"strategyTokensToRedeem","type":"uint256"},{"internalType":"bytes","name":"vaultData","type":"bytes"}],"name":"redeemStrategyTokensToCash","outputs":[{"internalType":"int256","name":"assetCashRequiredToSettle","type":"int256"},{"internalType":"int256","name":"underlyingCashRequiredToSettle","type":"int256"}],"stateMutability":"nonpayable","type":"function"},{"inputs":[{"internalType":"address","name":"vaultAddress","type":"address"},{"internalType":"uint80","name":"maxVaultBorrowCapacity","type":"uint80"},{"internalType":"uint256","name":"maturity","type":"uint256"},{"internalType":"uint256","name":"strategyTokensToRedeem","type":"uint256"},{"internalType":"bytes","name":"vaultData","type":"bytes"}],"name":"reduceMaxBorrowCapacity","outputs":[],"stateMutability":"nonpayable","type":"function"},{"inputs":[{"internalType":"uint16","name":"currencyId","type":"uint16"},{"internalType":"uint256","name":"maturity","type":"uint256"},{"internalType":"uint256","name":"fCashToLend","type":"uint256"},{"internalType":"uint32","name":"minLendRate","type":"uint32"},{"internalType":"bytes","name":"callbackData","type":"bytes"}],"name":"repaySecondaryCurrencyFromVault","outputs":[{"internalType":"bytes","name":"returnData","type":"bytes"}],"stateMutability":"nonpayable","type":"function"},{"inputs":[{"internalType":"address","name":"vaultAddress","type":"address"},{"internalType":"bool","name":"enable","type":"bool"}],"name":"setVaultPauseStatus","outputs":[],"stateMutability":"nonpayable","type":"function"},{"inputs":[{"internalType":"address","name":"vault","type":"address"},{"internalType":"uint256","name":"maturity","type":"uint256"}],"name":"settleVault","outputs":[],"stateMutability":"nonpayable","type":"function"},{"inputs":[{"internalType":"address","name":"vaultAddress","type":"address"},{"internalType":"uint16","name":"secondaryCurrencyId","type":"uint16"},{"internalType":"uint80","name":"maxBorrowCapacity","type":"uint80"}],"name":"updateSecondaryBorrowCapacity","outputs":[],"stateMutability":"nonpayable","type":"function"},{"inputs":[{"internalType":"address","name":"vaultAddress","type":"address"},{"components":[{"internalType":"uint16","name":"flags","type":"uint16"},{"internalType":"uint16","name":"borrowCurrencyId","type":"uint16"},{"internalType":"uint32","name":"minAccountBorrowSize","type":"uint32"},{"internalType":"uint16","name":"minCollateralRatioBPS","type":"uint16"},{"internalType":"uint8","name":"feeRate5BPS","type":"uint8"},{"internalType":"uint8","name":"liquidationRate","type":"uint8"},{"internalType":"uint8","name":"reserveFeeShare","type":"uint8"},{"internalType":"uint8","name":"maxBorrowMarketIndex","type":"uint8"},{"internalType":"uint16","name":"maxDeleverageCollateralRatioBPS","type":"uint16"},{"internalType":"uint16[3]","name":"secondaryBorrowCurrencies","type":"uint16[3]"}],"internalType":"struct VaultConfigStorage","name":"vaultConfig","type":"tuple"},{"internalType":"uint80","name":"maxPrimaryBorrowCapacity","type":"uint80"}],"name":"updateVault","outputs":[],"stateMutability":"nonpayable","type":"function"}],"bytecode":"608060405234801561001057600080fd5b506140c5806100206000396000f3fe608060405234801561001057600080fd5b50600436106101165760003560e01c806383e50fb7116100a2578063cce9787611610071578063cce9787614610226578063d04c16ac14610246578063d6ddeb9a14610259578063de1eb9a31461026c578063ee01436b1461028c57610116565b806383e50fb7146101e35780638da5cb5b14610203578063a14db57c1461020b578063c4c96dae1461021e57610116565b806351479e39116100e957806351479e391461018157806356f428c41461019457806367515776146101a75780636c346c09146101c857806382463367146101db57610116565b806324a3d6221461011b578063291afdf314610139578063295e6b7f1461014e5780633157228114610161575b600080fd5b61012361029f565b6040516101309190613914565b60405180910390f35b61014c6101473660046135df565b6102ae565b005b61014c61015c36600461361a565b610368565b61017461016f36600461361a565b610727565b6040516101309190613d4a565b61014c61018f366004613526565b610740565b61014c6101a23660046134ec565b6107f7565b6101ba6101b5366004613576565b610878565b6040516101309291906139c0565b6101ba6101d636600461361a565b6108c8565b610123610903565b6101f66101f136600461377a565b610912565b60405161013091906139b7565b610123610992565b6101f66102193660046135a1565b6109a9565b6101236109f5565b6102396102343660046137c3565b610a0d565b6040516101309190613984565b61014c61025436600461381f565b610c54565b61014c610267366004613643565b610d7a565b61027f61027a3660046134d2565b610de0565b6040516101309190613c96565b6101ba61029a36600461381f565b610df7565b6002546001600160a01b031681565b60005464010000000090046001600160a01b031633146102e95760405162461bcd60e51b81526004016102e090613ba9565b60405180910390fd5b60006102f484610e49565b6101408101515190915061ffff8481169116148061032157506101408101516020015161ffff8481169116145b8061033b57506101408101516040015161ffff8481169116145b6103575760405162461bcd60e51b81526004016102e090613b7f565b610362848484610e78565b50505050565b6002600a54141561038b5760405162461bcd60e51b81526004016102e090613c15565b6002600a55600061039b83610e49565b90506103a981336040610ecc565b60006103b58484610f36565b90504283111580156103c957506040810151155b6103e55760405162461bcd60e51b81526004016102e090613b02565b60006103fa836040015161ffff168542610fd4565b9050600061041d6104186104118560200151611144565b8490611157565b611196565b905060006104296111a9565b6001600160a01b038816600090815260209182526040808220898352909252206101408601515190915061ffff161561049c576101408501515161ffff166000908152602082905260409020546001600160501b03161561049c5760405162461bcd60e51b81526004016102e090613a5f565b6101408501516020015161ffff16156104f35761014085015160209081015161ffff1660009081529082905260409020546001600160501b0316156104f35760405162461bcd60e51b81526004016102e090613a5f565b6101408501516040015161ffff16156105485761014085015160409081015161ffff166000908152602083905220546001600160501b0316156105485760405162461bcd60e51b81526004016102e090613a5f565b81846080015110156106f25760a0840151156105765760405162461bcd60e51b81526004016102e0906139ce565b6000610587856080015184036111b6565b905060008660400151905086600001516001600160a01b03168161ffff167f49f3652d4bd58df659a52593175facf1a718295f3f4bea635367f06d424a8958846040516105d491906139b7565b60405180910390a360006105ed60008361ffff166111cc565b50505090508083136106265761060582848303611275565b61061c61061184611196565b6080890151906112cc565b6080880152610691565b610631826000611275565b61063d61061182611196565b608088015287516040516001600160a01b039091169061ffff8416907f9982ba522274fa0cc3ee3b56025595a76649b07f4b8a39f0bd8e546ca0f9646f9061068890858803906139b7565b60405180910390a35b875161069e9060006112de565b87600001516001600160a01b03167f7c51c6aa77346c54cb051d9e792f9b7bde5c28a9b57e6fb2d2dd727b38438ca960006040516106dc9190613979565b60405180910390a26106ee878b61133e565b5050505b61070d8786604001516107088760200151611144565b611454565b50610719858742611513565b50506001600a555050505050565b61072f613313565b6107398383610f36565b9392505050565b60005464010000000090046001600160a01b031633146107725760405162461bcd60e51b81526004016102e090613ba9565b61077c83836115cf565b61079683610790604085016020860161375e565b83610e78565b60006001806107a8602086018661375e565b1661ffff16149050836001600160a01b03167fbe3a36b9889e71d651c5e46a9d6a110c243e04a771bd479378feec68718985aa826040516107e99190613979565b60405180910390a250505050565b60005464010000000090046001600160a01b031633146108295760405162461bcd60e51b81526004016102e090613ba9565b61083382826112de565b816001600160a01b03167f7c51c6aa77346c54cb051d9e792f9b7bde5c28a9b57e6fb2d2dd727b38438ca98260405161086c9190613979565b60405180910390a25050565b600080600061088561172d565b6001600160a01b0390951660009081526020958652604080822061ffff9096168252949095525050509020546001600160501b03600160501b8204811692911690565b60008060006108d68561173a565b905060006108e8826000015186610f36565b90506108f582828761175e565b9350935050505b9250929050565b6001546001600160a01b031681565b600080610931868661092b610926886111b6565b611144565b866117fc565b9050600081136109535760405162461bcd60e51b81526004016102e090613adc565b60006109628761ffff1661189e565b905061098761041861092661ffff8a163361097e8487896118b1565b869291906118e9565b979650505050505050565b60005464010000000090046001600160a01b031681565b6000806109b46111a9565b6001600160a01b0390951660009081526020958652604080822094825293865283812061ffff909516815293909452509020546001600160501b0316919050565b73__TradingAction_________________________90565b6060600080610a1b876111b6565b905042881115610a3857610a31898983896117fc565b9150610a67565b6000610a488a61ffff168a61197f565b9050610a576109268284611157565b9250610a65338b8b856119dc565b505b6000610a768a61ffff1661189e565b90506000610a926104188c610a8a87611144565b859190611a5f565b9050600082600001516001600160a01b03166370a08231306040518263ffffffff1660e01b8152600401610ac69190613914565b60206040518083038186803b158015610ade57600080fd5b505afa158015610af2573d6000803e3d6000fd5b505050506040513d601f19601f82011682018060405250810190610b169190613746565b604051620e8d8d60ea1b81529091503390633a36340090610b3f9085908c908c90600401613dc2565b600060405180830381600087803b158015610b5957600080fd5b505af1158015610b6d573d6000803e3d6000fd5b505050506040513d6000823e601f3d908101601f19168201604052610b9591908101906136b9565b9550600083600001516001600160a01b03166370a08231306040518263ffffffff1660e01b8152600401610bc99190613914565b60206040518083038186803b158015610be157600080fd5b505afa158015610bf5573d6000803e3d6000fd5b505050506040513d601f19601f82011682018060405250810190610c199190613746565b905082610c268284611aad565b1015610c445760405162461bcd60e51b81526004016102e090613c3d565b5050505050509695505050505050565b6002600a541415610c775760405162461bcd60e51b81526004016102e090613c15565b6002600a556000610c8733610e49565b9050610c9581610100611ac2565b15610ca0576001600a555b610cab816001611ac2565b610cc75760405162461bcd60e51b81526004016102e0906139f9565b6000610cd33387610f36565b90506000610ce8836040015161ffff1661189e565b90506000610cff610cf8886111b6565b8390611ad7565b8451909150600090610d16908690848c8b8b611b07565b9050610d2f610d2483611196565b608086015190611aad565b608085015260a0840151610d4390826112cc565b60a0850152610d52843361133e565b60608401516020850151610d6a918791879190611d0c565b50506001600a5550505050505050565b60005464010000000090046001600160a01b03163314610dac5760405162461bcd60e51b81526004016102e090613ba9565b6000610db787610e49565b9050610dc887826040015188610e78565b610dd58186868686611d41565b505050505050505050565b610de8613352565b610df18261173a565b92915050565b6000806000610e0533610e49565b9050610e12816001611ac2565b610e2e5760405162461bcd60e51b81526004016102e0906139f9565b610e3b8188888888611d41565b925092505094509492505050565b610e51613352565b610e5a82611e0e565b9050610e6d816040015161ffff16611f8d565b610160820152919050565b6000610e8261172d565b6001600160a01b0390941660009081526020948552604080822061ffff90951682529390945250912080546001600160501b039092166001600160501b0319909216919091179055565b610ed68382611ac2565b15610f095782516001600160a01b03163314610f045760405162461bcd60e51b81526004016102e090613a19565b610f31565b6001600160a01b0382163314610f315760405162461bcd60e51b81526004016102e090613a19565b505050565b610f3e613313565b6000610f48611fd9565b6001600160a01b03909416600090815260209485526040808220858352865280822094845284546001600160501b0380821660090b9093039685019690965260ff600160f01b870416151590840152600160501b8086048216608085015260019094015480821660a0850152600160a01b909504811660608401529290930490911660c0820152919050565b610fdc6133cf565b600080610fe98686611fe6565b9150915081600014156111195760006110018761202f565b91945090925090506001600160a01b038116156111175760006110226120f2565b90508560001080156110345750858711155b8015611045575064ffffffffff8611155b61104e57600080fd5b83600012801561106557506001600160801b038413155b61106e57600080fd5b6000888152602082815260408083208a845290915290819020805464ffffffffff191664ffffffffff89161774ffffffffffffffffffffffffffffffff00000000001916650100000000006001600160801b038816021760ff60a81b1916600160a81b60ff871602178155905188908a907f0fdfa6885701e2f1f42e4187b9231cf81c1fe23671ef64fa46f34ddb56c1dc189061110c908990613d9a565b60405180910390a350505b505b6040805160608101825260008152602081019390935260ff909116600a0a9082015290509392505050565b6000610df1600019836120ff565b919050565b60008061118e846020015161118886604001516111826402540be400886120ff90919063ffffffff16565b906120ff565b9061214d565b949350505050565b6000808212156111a557600080fd5b5090565b600080610df1601861217e565b60006001600160ff1b038211156111a557600080fd5b60008060008060006111dc612197565b6001600160a01b0388166000908152602082815260408083208a8452909152902080546001600160501b0381169650600160501b900463ffffffff169450909150831561124557805461123e90600160701b900466ffffffffffffff166121a4565b925061125a565b8054600160701b900466ffffffffffffff1692505b54600160a81b9004600a90810b900b97939650919450925050565b600081121561128357600080fd5b61129860008361ffff168360008060006121b2565b8161ffff167fd3625f7b5926828151efe19f7ae655488287357d99ebe67e5fb20522ca739c0b8260405161086c91906139b7565b60008282018381101561073957600080fd5b60006112e86122f9565b6001600160a01b038416600090815260208290526040902080549192509061ffff16831561132757815461ffff19166001821761ffff16178255611337565b815461ffff191661fffe82161782555b5050505050565b6000611348611fd9565b6001600160a01b038316600090815260208281526040808320875184529091529081902090850151919250901561137e57600080fd5b6113966113916104188660200151611144565b612306565b81546001600160501b0319166001600160501b039190911617815560808401516113bf90612306565b81546001600160501b0391909116600160501b0269ffffffffffffffffffff60501b1990911617815560a08401516113f690612306565b6001820180546001600160501b0319166001600160501b0392909216919091179055606084015161142690612306565b81546001600160501b0391909116600160a01b0269ffffffffffffffffffff60a01b19909116179055505050565b60008061145f61172d565b6001600160a01b03861660009081526020918252604080822061ffff881683529092522080549091506114a290600160501b90046001600160501b03168461231c565b915060008312156114d75780546001600160501b03168213156114d75760405162461bcd60e51b81526004016102e090613b29565b6114e361139183611196565b81546001600160501b0391909116600160501b0269ffffffffffffffffffff60501b199091161790559392505050565b600061151d611fd9565b84516001600160a01b03166000908152602082815260408083208784529091529020805491925090600160f01b900460ff161561155957600080fd5b8284111561156657600080fd5b6000611580866040015187600001516305f5e10088612332565b825460ff60f01b1916600160f01b178355905061159f61139182611196565b82600101600a6101000a8154816001600160501b0302191690836001600160501b03160217905550505050505050565b60006115d96122f9565b90506115eb60c0830160a08401613870565b60ff16606413156115fb57600080fd5b606461160d60e0840160c08501613870565b60ff16131561161b57600080fd5b61162c610100830160e08401613870565b60ff1661163857600080fd5b61164a6101208301610100840161375e565b61ffff1661165e608084016060850161375e565b61ffff161061166c57600080fd5b61167e6101408301610120840161375e565b61ffff16611692604084016020850161375e565b61ffff16141580156116cc57506116b16101608301610140840161375e565b61ffff166116c5604084016020850161375e565b61ffff1614155b801561170057506116e56101808301610160840161375e565b61ffff166116f9604084016020850161375e565b61ffff1614155b61170957600080fd5b6001600160a01b038316600090815260208290526040902082906113378282613e95565b600080610df1601761217e565b611742613352565b61174b82611e0e565b9050610e6d816040015161ffff166123f1565b6000806000611775866040015161ffff168561197f565b905060006117a261092661178c88608001516111b6565b602089015161179c908690611157565b90612407565b905060006117b7886040015161ffff1661189e565b905060006117cc896040015161ffff1661241d565b90506117d882846118b1565b95506117ee6117e78585612430565b82906118b1565b945050505050935093915050565b60008061180833610e49565b9050611815816001611ac2565b6118315760405162461bcd60e51b81526004016102e0906139f9565b806040015161ffff168661ffff16141561184a57600080fd5b611856338787876119dc565b611869868686868561010001514261245b565b9150600084138015611879575081155b1561189557610160810151611892906109269086611157565b91505b50949350505050565b6118a66133f9565b610df182600061259d565b60006305f5e100836040015114156118ca575080610df1565b6107396305f5e1006111888560400151856120ff90919063ffffffff16565b6000806002866060015160058111156118fe57fe5b14156119165761190f86858561264b565b9050611973565b60006119218661241d565b905060058760600151600581111561193557fe5b141561194d57611946818686612712565b9150611971565b60018760600151600581111561195f57fe5b141561011657611946878287876127c3565b505b611892610926826111b6565b6119876133cf565b6000806119948585611fe6565b9150915081600014156119b2576119aa856128c1565b919350909150505b6040805160608101825260008152602081019390935260ff909116600a0a90820152905092915050565b6119e7848483611454565b5060006119f26111a9565b6001600160a01b038616600090815260209182526040808220868352835280822061ffff88168352909252208054909150611a3e9061139190610418906001600160501b03168561231c565b81546001600160501b0319166001600160501b039190911617905550505050565b6000611a6b84836118b1565b9050600584606001516005811115611a7f57fe5b1415610739576000611a948461ffff1661241d565b9050611aa4816000015183612944565b95945050505050565b600082821115611abc57600080fd5b50900390565b60209190910151811661ffff90811691161490565b60006305f5e10083604001511415611af0575080610df1565b604083015161073990611188846305f5e1006120ff565b600084611b1657506000611d02565b6000611b29886040015161ffff1661189e565b90506000611b4689604001518884611a5f9092919063ffffffff16565b90506000611b5382611196565b8a5184516040516370a0823160e01b815292935090916000906001600160a01b038316906370a0823190611b8b908690600401613914565b60206040518083038186803b158015611ba357600080fd5b505afa158015611bb7573d6000803e3d6000fd5b505050506040513d601f19601f82011682018060405250810190611bdb9190613746565b9050611be88284866129ca565b6040516370a0823160e01b81526000906001600160a01b038416906370a0823190611c17908790600401613914565b60206040518083038186803b158015611c2f57600080fd5b505afa158015611c43573d6000803e3d6000fd5b505050506040513d601f19601f82011682018060405250810190611c679190613746565b90506001600160a01b03841663dc6679c58e611c838486611aad565b8e8e8e6040518663ffffffff1660e01b8152600401611ca695949392919061394b565b602060405180830381600087803b158015611cc057600080fd5b505af1158015611cd4573d6000803e3d6000fd5b505050506040513d601f19601f82011682018060405250810190611cf89190613746565b9750505050505050505b9695505050505050565b6000611d1a85858585612a41565b509050808560a0015113156113375760405162461bcd60e51b81526004016102e090613bde565b6000806002600a541415611d675760405162461bcd60e51b81526004016102e090613c15565b6002600a55611d7887610100611ac2565b15611d83576001600a555b6000611d93886000015188610f36565b8851909150600090611daa908a90898b8a8a612aaa565b905060008113611db957600080fd5b6080820151611dc890826112cc565b608083015260a0820151611ddc9088611aad565b60a08301528851611dee90839061133e565b611df989838a61175e565b6001600a55909a909950975050505050505050565b611e16613352565b6000611e206122f9565b6001600160a01b03841660008181526020838152604091829020928652825461ffff808216928801929092526201000081049091169186019190915291925090611e819063ffffffff6401000000009091048116906305f5e100906120ff16565b60608401528054611e9f90600160501b900460ff166207a120612c95565b60808401528054611ec39068010000000000000000900461ffff16620186a0612c95565b60a08401528054611ee290600160701b900461ffff16620186a0612c95565b610120840152805460649060ff600160581b90910416633b9aca00020560c08401528054600160601b810460ff90811660e0860152600160681b90910416610100840152604080516060810191829052906001830190600390826000855b82829054906101000a900461ffff1661ffff1681526020019060020190602082600101049283019260010382029150808411611f4057905050505050508361014001819052505050919050565b611f956133cf565b6000806000611fa38561202f565b604080516060810182526001600160a01b039093168352602083019390935260ff16600a0a918101919091529350505050919050565b600080610df1601561217e565b6000806000611ff36120f2565b6000958652602090815260408087209587529490525050509020546501000000000081046001600160801b031691600160a81b90910460ff1690565b600080600080600061204086612cbc565b909250905060006001600160a01b0383166120655750600090506402540be4006120e7565b826001600160a01b0316631ee108336040518163ffffffff1660e01b8152600401602060405180830381600087803b1580156120a057600080fd5b505af11580156120b4573d6000803e3d6000fd5b505050506040513d601f19601f820116820180604052508101906120d89190613746565b9050600081136120e757600080fd5b969195509350915050565b600080610df1600861217e565b81810260001983141561212f5781158061212157508282828161211e57fe5b05145b61212a57600080fd5b610df1565b82158061214457508183828161214157fe5b05145b610df157600080fd5b6000816000191480156121635750600160ff1b83145b1561216d57600080fd5b81838161217657fe5b059392505050565b6000620f424082601881111561219057fe5b0192915050565b600080610df1600661217e565b600881901c60ff9091161b90565b60006121bc612197565b6001600160a01b0388166000908152602082815260408083208a845290915290209091506a7fffffffffffffffffffff19861280159061220757506a7fffffffffffffffffffff8613155b61221057600080fd5b6000851215801561222857506001600160501b038513155b61223157600080fd5b836122715766ffffffffffffff83111561224a57600080fd5b805466ffffffffffffff60701b1916600160701b66ffffffffffffff85160217815561228b565b8054600160501b900463ffffffff16841461228b57600080fd5b8054600a9690960b6affffffffffffffffffffff16600160a81b026001600160a81b036001600160501b039096166001600160501b031963ffffffff909616600160501b0263ffffffff60501b19909816979097179490941695909517939093169190911790925550505050565b600080610df1601461217e565b60006001600160501b038211156111a557600080fd5b80820382811315600083121514610df157600080fd5b6000806123428661ffff1661241d565b90508060400151600014156123615761235e8661ffff1661189e565b90505b6118926123ea866001600160a01b031663bc3b901887876040518363ffffffff1660e01b81526004016123959291906139c0565b60206040518083038186803b1580156123ad57600080fd5b505afa1580156123c1573d6000803e3d6000fd5b505050506040513d601f19601f820116820180604052508101906123e59190613746565b6111b6565b8290611ad7565b6123f96133cf565b6000806000611fa3856128c1565b81810182811215600083121514610df157600080fd5b6124256133f9565b610df182600161259d565b60008061118e84604001516111886402540be4006111888789602001516120ff90919063ffffffff16565b60008061246b8861ffff16612cf3565b9050838160ff16111561247d57600080fd5b60008061248e8360ff168a87612d09565b91509150801561249d57600080fd5b60006124a889612dd1565b90506affffffffffffffffffffff81106124c157600080fd5b600060788963ffffffff16901b609883901b60f086901b60f860008e136124e95760016124ec565b60005b60058111156124f757fe5b60ff16901b17171760001b905073__TradingAction_________________________63e50f349e8d836040518363ffffffff1660e01b815260040161253d929190613dae565b60206040518083038186803b15801561255557600080fd5b505af4158015612569573d6000803e3d6000fd5b505050506040513d601f19601f8201168201806040525081019061258d9190613746565b9c9b505050505050505050505050565b6125a56133f9565b60006125af612df2565b6000858152602082815260408083208715158452825291829020825160a08101845281546001600160a01b038116825260ff600160a01b82048116151594830194909452600160b01b81048416600a0a9482019490945293945092916060830191600160a81b90910416600581111561262457fe5b81529154600160b81b900468ffffffffffffffffff16602090920191909152949350505050565b825160405163db006a7560e01b8152600091479183916001600160a01b03169063db006a759061267f9087906004016139b7565b602060405180830381600087803b15801561269957600080fd5b505af11580156126ad573d6000803e3d6000fd5b505050506040513d601f19601f820116820180604052508101906126d19190613746565b905080156126f15760405162461bcd60e51b81526004016102e090613a3f565b476126fc8184612dff565b93506127088685612e56565b5050509392505050565b600061272d6104188560000151612728856111b6565b612944565b9050612737612e8c565b548451604051631a4ca37b60e21b81526001600160a01b03909216916369328dec916127699185908890600401613928565b602060405180830381600087803b15801561278357600080fd5b505af1158015612797573d6000803e3d6000fd5b505050506040513d601f19601f820116820180604052508101906127bb9190613746565b509392505050565b825160009081906127dc90306370a0823160e01b612e99565b9050600086600001516001600160a01b031663db006a75856040518263ffffffff1660e01b815260040161281091906139b7565b602060405180830381600087803b15801561282a57600080fd5b505af115801561283e573d6000803e3d6000fd5b505050506040513d601f19601f820116820180604052508101906128629190613746565b905080156128825760405162461bcd60e51b81526004016102e090613a3f565b855160009061289990306370a0823160e01b612e99565b90506128a58184612dff565b93506128b6876000015187866129ca565b505050949350505050565b60008060008060006128d286612cbc565b909250905060006001600160a01b0383166128f75750600090506402540be4006120e7565b826001600160a01b031663b2fffb046040518163ffffffff1660e01b815260040160206040518083038186803b15801561293057600080fd5b505afa1580156120b4573d6000803e3d6000fd5b60008161295357506000610df1565b600061295e84612fab565b9050600061296b84612dd1565b9050816b019d971e4fe8401e74000001600160ff1b038161298857fe5b0581131561299557600080fd5b6b033b2e3c9fd0803ce80000006b019d971e4fe8401e74000000838302010560008513611aa4576129c581611144565b611d02565b826001600160a01b031663a9059cbb83836040518363ffffffff1660e01b815260040180836001600160a01b0316815260200182815260200192505050600060405180830381600087803b158015612a2157600080fd5b505af1158015612a35573d6000803e3d6000fd5b50505050610f31612fe6565b600080612a4f858786613057565b90506000612a6b612a5f85611144565b61016089015190611157565b90506000612a79838361231c565b905060008213612a92576001600160ff1b039350612a9f565b612a9c81836130af565b93505b505094509492505050565b600084612ab957506000611d02565b6000612acc886040015161ffff1661189e565b9050600081600001516001600160a01b03166370a08231306040518263ffffffff1660e01b8152600401612b009190613914565b60206040518083038186803b158015612b1857600080fd5b505afa158015612b2c573d6000803e3d6000fd5b505050506040513d601f19601f82011682018060405250810190612b509190613746565b8951604051634d6dc4df60e11b81529192506001600160a01b031690639adb89be90612b88908b908b908b908b908b9060040161394b565b600060405180830381600087803b158015612ba257600080fd5b505af1158015612bb6573d6000803e3d6000fd5b505083516040516370a0823160e01b8152600093506001600160a01b0390911691506370a0823190612bec903090600401613914565b60206040518083038186803b158015612c0457600080fd5b505afa158015612c18573d6000803e3d6000fd5b505050506040513d601f19601f82011682018060405250810190612c3c9190613746565b90506000612c4d6123e58385611aad565b9050600584606001516005811115612c6157fe5b1415612c7c57612c798b6040015161ffff16826130c8565b90505b612c868482611ad7565b9b9a5050505050505050505050565b600082612ca457506000610df1565b82820282848281612cb157fe5b041461073957600080fd5b6000806000612cc961314f565b600094855260205250506040909120546001600160a01b03811692600160a01b90910460ff169150565b600080612cff8361315c565b60ff169392505050565b60008060008511612d2c5760405162461bcd60e51b81526004016102e090613a86565b6007851115612d4d5760405162461bcd60e51b81526004016102e090613b4f565b6000612d5884613179565b905060015b868111612db0576000612d79612d7283613197565b849061323b565b905086811415612d915750925060009150612dc99050565b86811115612da75750925060019150612dc99050565b50600101612d5d565b5060405162461bcd60e51b81526004016102e090613c69565b935093915050565b600080821215612deb57612de482611144565b9050611152565b5080611152565b600080610df1600761217e565b600082821115611abc576040805162461bcd60e51b815260206004820152601e60248201527f536166654d6174683a207375627472616374696f6e206f766572666c6f770000604482015290519081900360640190fd5b6040516001600160a01b0383169082156108fc029083906000818181858888f19350505050158015610f31573d6000803e3d6000fd5b600080610df1601361217e565b604080516001600160a01b0384811660248084019190915283518084039091018152604490920183526020820180516001600160e01b03166001600160e01b0319861617815292518251600094859485948a16939092909182918083835b60208310612f165780518252601f199092019160209182019101612ef7565b6001836020036101000a038019825116818451168082178552505050505050905001915050600060405180830381855afa9150503d8060008114612f76576040519150601f19603f3d011682016040523d82523d6000602084013e612f7b565b606091505b509150915081612f8a57600080fd5b808060200190516020811015612f9f57600080fd5b50519695505050505050565b6000610df1612fb8612e8c565b5460405163d15e005360e01b81526001600160a01b039091169063d15e005390612395908690600401613914565b6000612ff0613428565b3d8015613004576020811461300d57600080fd5b60019250613018565b60206000833e815192505b5081613053576040805162461bcd60e51b8152602060048201526005602482015264045524332360dc1b604482015290519081900360640190fd5b5050565b60008161306657506000610739565b6000806130738685613295565b91509150600061309186604001518760000151848a60000151612332565b905061098761309f846111b6565b61016088015161179c9084611157565b60006107396130c284633b9aca006120ff565b8361214d565b6000816130d757506000610df1565b600082136130e457600080fd5b60006130ef8461241d565b905060006131008260000151612fab565b9050600281056b033b2e3c9fd0803ce80000006001600160ff1b038290030585131561312b57600080fd5b81816b033b2e3c9fd0803ce80000008702018161314457fe5b059695505050505050565b600080610df1600f61217e565b6000806131676132e7565b60009384526020525050604090205490565b60006276a70082101561318b57600080fd5b506276a7008106900390565b600081600114156131ac57506276a700611152565b81600214156131bf575062ed4e00611152565b81600314156131d357506301da9c00611152565b81600414156131e757506303b53800611152565b81600514156131fb57506309450c00611152565b816006141561320f575063128a1800611152565b816007141561322357506325143000611152565b60405162461bcd60e51b81526004016102e090613ab5565b600082820183811015610739576040805162461bcd60e51b815260206004820152601b60248201527f536166654d6174683a206164646974696f6e206f766572666c6f770000000000604482015290519081900360640190fd5b6000806132bd84606001516132b7866080015186612c9590919063ffffffff16565b906132f4565b91506132de84606001516132b78660a0015186612c9590919063ffffffff16565b90509250929050565b600080610df1600961217e565b600080821161330257600080fd5b81838161330b57fe5b049392505050565b6040518060e001604052806000815260200160008152602001600015158152602001600081526020016000815260200160008152602001600081525090565b60405180610180016040528060006001600160a01b03168152602001600061ffff168152602001600061ffff168152602001600081526020016000815260200160008152602001600081526020016000815260200160008152602001600081526020016133bd613446565b81526020016133ca6133cf565b905290565b604051806060016040528060006001600160a01b0316815260200160008152602001600081525090565b6040805160a0810182526000808252602082018190529181018290529060608201908152602001600081525090565b60405180602001604052806001906020820280368337509192915050565b60405180606001604052806003906020820280368337509192915050565b80356001600160a01b038116811461115257600080fd5b60008083601f84011261348c578081fd5b50813567ffffffffffffffff8111156134a3578182fd5b6020830191508360208285010111156108fc57600080fd5b80356001600160501b038116811461115257600080fd5b6000602082840312156134e3578081fd5b61073982613464565b600080604083850312156134fe578081fd5b61350783613464565b91506020830135801515811461351b578182fd5b809150509250929050565b60008060008385036101c081121561353c578182fd5b61354585613464565b9350610180601f1982011215613559578182fd5b5060208401915061356d6101a085016134bb565b90509250925092565b60008060408385031215613588578182fd5b61359183613464565b9150602083013561351b8161405b565b6000806000606084860312156135b5578283fd5b6135be84613464565b925060208401356135ce8161405b565b929592945050506040919091013590565b6000806000606084860312156135f3578283fd5b6135fc84613464565b9250602084013561360c8161405b565b915061356d604085016134bb565b6000806040838503121561362c578182fd5b61363583613464565b946020939093013593505050565b60008060008060008060a0878903121561365b578182fd5b61366487613464565b9550613672602088016134bb565b94506040870135935060608701359250608087013567ffffffffffffffff81111561369b578283fd5b6136a789828a0161347b565b979a9699509497509295939492505050565b6000602082840312156136ca578081fd5b815167ffffffffffffffff808211156136e1578283fd5b818401915084601f8301126136f4578283fd5b81518181111561370057fe5b604051601f8201601f19168101602001838111828210171561371e57fe5b604052818152838201602001871015613735578485fd5b611d02826020830160208701613e42565b600060208284031215613757578081fd5b5051919050565b60006020828403121561376f578081fd5b81356107398161405b565b6000806000806080858703121561378f578182fd5b843561379a8161405b565b9350602085013592506040850135915060608501356137b88161406e565b939692955090935050565b60008060008060008060a087890312156137db578384fd5b86356137e68161405b565b9550602087013594506040870135935060608701356138048161406e565b9250608087013567ffffffffffffffff81111561369b578283fd5b60008060008060608587031215613834578182fd5b8435935060208501359250604085013567ffffffffffffffff811115613858578283fd5b6138648782880161347b565b95989497509550505050565b600060208284031215613881578081fd5b813561073981614080565b6001600160a01b03169052565b8060005b600381101561036257815161ffff1684526020938401939091019060010161389d565b60008284528282602086013780602084860101526020601f19601f85011685010190509392505050565b80516001600160a01b0316825260208082015190830152604090810151910152565b61ffff169052565b6001600160a01b0391909116815260200190565b6001600160a01b0393841681526020810192909252909116604082015260600190565b600060018060a01b0387168252856020830152846040830152608060608301526109876080830184866138c0565b901515815260200190565b60006020825282518060208401526139a3816040850160208701613e42565b601f01601f19169190910160400192915050565b90815260200190565b918252602082015260400190565b60208082526011908201527052656465656d20616c6c20746f6b656e7360781b604082015260600190565b60208082526006908201526514185d5cd95960d21b604082015260600190565b6020808252600c908201526b155b985d5d1a1bdc9a5e995960a21b604082015260600190565b60208082526006908201526552656465656d60d01b604082015260600190565b6020808252600d908201526c556e7061696420426f72726f7760981b604082015260600190565b60208082526015908201527410d1ce881b9bc81b585c9ad95d1cc81b1a5cdd1959605a1b604082015260600190565b6020808252600d908201526c092dcecc2d8d2c840d2dcc8caf609b1b604082015260600190565b6020808252600c908201526b151c9859194811985a5b195960a21b604082015260600190565b6020808252600d908201526c43616e6e6f7420536574746c6560981b604082015260600190565b6020808252600c908201526b4d617820436170616369747960a01b604082015260600190565b60208082526016908201527510d1ce881b585c9ad95d081a5b99195e08189bdd5b9960521b604082015260600190565b60208082526010908201526f496e76616c69642043757272656e637960801b604082015260600190565b6020808252818101527f4f776e61626c653a2063616c6c6572206973206e6f7420746865206f776e6572604082015260600190565b60208082526017908201527f496e73756666696369656e7420436f6c6c61746572616c000000000000000000604082015260600190565b6020808252600e908201526d1499595b9d1c985b9d0818d85b1b60921b604082015260600190565b602080825260129082015271496e73756666696369656e7420526570617960701b604082015260600190565b60208082526013908201527210d1ce881b9bc81b585c9ad95d08199bdd5b99606a1b604082015260600190565b600061020082019050613caa82845161388c565b6020830151613cbc602084018261390c565b506040830151613ccf604084018261390c565b50606083015160608301526080830151608083015260a083015160a083015260c083015160c083015260e083015160e083015261010080840151818401525061012080840151818401525061014080840151613d2d82850182613899565b5050610160830151613d436101a08401826138ea565b5092915050565b600060e0820190508251825260208301516020830152604083015115156040830152606083015160608301526080830151608083015260a083015160a083015260c083015160c083015292915050565b6001600160801b0391909116815260200190565b61ffff929092168252602082015260400190565b600084825260406020830152611aa46040830184866138c0565b81816000805b6003811015613e3a578335613df68161405b565b835461ffff6008850281811b801990931693909116901b1617835560209390930192600290910190601e821115613e3257600091506001830192505b600101613de2565b505050505050565b60005b83811015613e5d578181015183820152602001613e45565b838111156103625750506000910152565b60008135610df18161405b565b60008135610df18161406e565b60008135610df181614080565b8135613ea08161405b565b61ffff811661ffff1983541617825550613ec5613ebf60208401613e6e565b82613ffd565b613eda613ed460408401613e7b565b82614019565b613eef613ee960608401613e6e565b8261403d565b613f04613efe60808401613e88565b82613f6a565b613f19613f1360a08401613e88565b82613f87565b613f2e613f2860c08401613e88565b82613fa4565b613f43613f3d60e08401613e88565b82613fc1565b613f59613f536101008401613e6e565b82613fde565b613053610120830160018301613ddc565b805460ff60501b191660509290921b60ff60501b16919091179055565b805460ff60581b191660589290921b60ff60581b16919091179055565b805460ff60601b191660609290921b60ff60601b16919091179055565b805460ff60681b191660689290921b60ff60681b16919091179055565b805461ffff60701b191660709290921b61ffff60701b16919091179055565b805463ffff00008360101b1663ffff0000198216178255505050565b805467ffffffff000000008360201b1667ffffffff00000000198216178255505050565b805461ffff60401b8360401b1661ffff60401b198216178255505050565b61ffff8116811461406b57600080fd5b50565b63ffffffff8116811461406b57600080fd5b60ff8116811461406b57600080fdfea26469706673582212209d0dc68cf69369b017801e34e716d1ad46e002b374e460e2199af356130a5fff64736f6c63430007060033","bytecodeSha1":"faffaee008538a672803a09d61bacf7e8d1c5e94","compiler":{"evm_version":"istanbul","optimizer":{"enabled":true,"runs":200},"version":"0.7.6+commit.7338295f"},"contractName":"VaultAction","deployedBytecode":"608060405234801561001057600080fd5b50600436106101165760003560e01c806383e50fb7116100a2578063cce9787611610071578063cce9787614610226578063d04c16ac14610246578063d6ddeb9a14610259578063de1eb9a31461026c578063ee01436b1461028c57610116565b806383e50fb7146101e35780638da5cb5b14610203578063a14db57c1461020b578063c4c96dae1461021e57610116565b806351479e39116100e957806351479e391461018157806356f428c41461019457806367515776146101a75780636c346c09146101c857806382463367146101db57610116565b806324a3d6221461011b578063291afdf314610139578063295e6b7f1461014e5780633157228114610161575b600080fd5b61012361029f565b6040516101309190613914565b60405180910390f35b61014c6101473660046135df565b6102ae565b005b61014c61015c36600461361a565b610368565b61017461016f36600461361a565b610727565b6040516101309190613d4a565b61014c61018f366004613526565b610740565b61014c6101a23660046134ec565b6107f7565b6101ba6101b5366004613576565b610878565b6040516101309291906139c0565b6101ba6101d636600461361a565b6108c8565b610123610903565b6101f66101f136600461377a565b610912565b60405161013091906139b7565b610123610992565b6101f66102193660046135a1565b6109a9565b6101236109f5565b6102396102343660046137c3565b610a0d565b6040516101309190613984565b61014c61025436600461381f565b610c54565b61014c610267366004613643565b610d7a565b61027f61027a3660046134d2565b610de0565b6040516101309190613c96565b6101ba61029a36600461381f565b610df7565b6002546001600160a01b031681565b60005464010000000090046001600160a01b031633146102e95760405162461bcd60e51b81526004016102e090613ba9565b60405180910390fd5b60006102f484610e49565b6101408101515190915061ffff8481169116148061032157506101408101516020015161ffff8481169116145b8061033b57506101408101516040015161ffff8481169116145b6103575760405162461bcd60e51b81526004016102e090613b7f565b610362848484610e78565b50505050565b6002600a54141561038b5760405162461bcd60e51b81526004016102e090613c15565b6002600a55600061039b83610e49565b90506103a981336040610ecc565b60006103b58484610f36565b90504283111580156103c957506040810151155b6103e55760405162461bcd60e51b81526004016102e090613b02565b60006103fa836040015161ffff168542610fd4565b9050600061041d6104186104118560200151611144565b8490611157565b611196565b905060006104296111a9565b6001600160a01b038816600090815260209182526040808220898352909252206101408601515190915061ffff161561049c576101408501515161ffff166000908152602082905260409020546001600160501b03161561049c5760405162461bcd60e51b81526004016102e090613a5f565b6101408501516020015161ffff16156104f35761014085015160209081015161ffff1660009081529082905260409020546001600160501b0316156104f35760405162461bcd60e51b81526004016102e090613a5f565b6101408501516040015161ffff16156105485761014085015160409081015161ffff166000908152602083905220546001600160501b0316156105485760405162461bcd60e51b81526004016102e090613a5f565b81846080015110156106f25760a0840151156105765760405162461bcd60e51b81526004016102e0906139ce565b6000610587856080015184036111b6565b905060008660400151905086600001516001600160a01b03168161ffff167f49f3652d4bd58df659a52593175facf1a718295f3f4bea635367f06d424a8958846040516105d491906139b7565b60405180910390a360006105ed60008361ffff166111cc565b50505090508083136106265761060582848303611275565b61061c61061184611196565b6080890151906112cc565b6080880152610691565b610631826000611275565b61063d61061182611196565b608088015287516040516001600160a01b039091169061ffff8416907f9982ba522274fa0cc3ee3b56025595a76649b07f4b8a39f0bd8e546ca0f9646f9061068890858803906139b7565b60405180910390a35b875161069e9060006112de565b87600001516001600160a01b03167f7c51c6aa77346c54cb051d9e792f9b7bde5c28a9b57e6fb2d2dd727b38438ca960006040516106dc9190613979565b60405180910390a26106ee878b61133e565b5050505b61070d8786604001516107088760200151611144565b611454565b50610719858742611513565b50506001600a555050505050565b61072f613313565b6107398383610f36565b9392505050565b60005464010000000090046001600160a01b031633146107725760405162461bcd60e51b81526004016102e090613ba9565b61077c83836115cf565b61079683610790604085016020860161375e565b83610e78565b60006001806107a8602086018661375e565b1661ffff16149050836001600160a01b03167fbe3a36b9889e71d651c5e46a9d6a110c243e04a771bd479378feec68718985aa826040516107e99190613979565b60405180910390a250505050565b60005464010000000090046001600160a01b031633146108295760405162461bcd60e51b81526004016102e090613ba9565b61083382826112de565b816001600160a01b03167f7c51c6aa77346c54cb051d9e792f9b7bde5c28a9b57e6fb2d2dd727b38438ca98260405161086c9190613979565b60405180910390a25050565b600080600061088561172d565b6001600160a01b0390951660009081526020958652604080822061ffff9096168252949095525050509020546001600160501b03600160501b8204811692911690565b60008060006108d68561173a565b905060006108e8826000015186610f36565b90506108f582828761175e565b9350935050505b9250929050565b6001546001600160a01b031681565b600080610931868661092b610926886111b6565b611144565b866117fc565b9050600081136109535760405162461bcd60e51b81526004016102e090613adc565b60006109628761ffff1661189e565b905061098761041861092661ffff8a163361097e8487896118b1565b869291906118e9565b979650505050505050565b60005464010000000090046001600160a01b031681565b6000806109b46111a9565b6001600160a01b0390951660009081526020958652604080822094825293865283812061ffff909516815293909452509020546001600160501b0316919050565b73__$7ac922d04bd7a1b42c7f6e5f1dd89a70af$__90565b6060600080610a1b876111b6565b905042881115610a3857610a31898983896117fc565b9150610a67565b6000610a488a61ffff168a61197f565b9050610a576109268284611157565b9250610a65338b8b856119dc565b505b6000610a768a61ffff1661189e565b90506000610a926104188c610a8a87611144565b859190611a5f565b9050600082600001516001600160a01b03166370a08231306040518263ffffffff1660e01b8152600401610ac69190613914565b60206040518083038186803b158015610ade57600080fd5b505afa158015610af2573d6000803e3d6000fd5b505050506040513d601f19601f82011682018060405250810190610b169190613746565b604051620e8d8d60ea1b81529091503390633a36340090610b3f9085908c908c90600401613dc2565b600060405180830381600087803b158015610b5957600080fd5b505af1158015610b6d573d6000803e3d6000fd5b505050506040513d6000823e601f3d908101601f19168201604052610b9591908101906136b9565b9550600083600001516001600160a01b03166370a08231306040518263ffffffff1660e01b8152600401610bc99190613914565b60206040518083038186803b158015610be157600080fd5b505afa158015610bf5573d6000803e3d6000fd5b505050506040513d601f19601f82011682018060405250810190610c199190613746565b905082610c268284611aad565b1015610c445760405162461bcd60e51b81526004016102e090613c3d565b5050505050509695505050505050565b6002600a541415610c775760405162461bcd60e51b81526004016102e090613c15565b6002600a556000610c8733610e49565b9050610c9581610100611ac2565b15610ca0576001600a555b610cab816001611ac2565b610cc75760405162461bcd60e51b81526004016102e0906139f9565b6000610cd33387610f36565b90506000610ce8836040015161ffff1661189e565b90506000610cff610cf8886111b6565b8390611ad7565b8451909150600090610d16908690848c8b8b611b07565b9050610d2f610d2483611196565b608086015190611aad565b608085015260a0840151610d4390826112cc565b60a0850152610d52843361133e565b60608401516020850151610d6a918791879190611d0c565b50506001600a5550505050505050565b60005464010000000090046001600160a01b03163314610dac5760405162461bcd60e51b81526004016102e090613ba9565b6000610db787610e49565b9050610dc887826040015188610e78565b610dd58186868686611d41565b505050505050505050565b610de8613352565b610df18261173a565b92915050565b6000806000610e0533610e49565b9050610e12816001611ac2565b610e2e5760405162461bcd60e51b81526004016102e0906139f9565b610e3b8188888888611d41565b925092505094509492505050565b610e51613352565b610e5a82611e0e565b9050610e6d816040015161ffff16611f8d565b610160820152919050565b6000610e8261172d565b6001600160a01b0390941660009081526020948552604080822061ffff90951682529390945250912080546001600160501b039092166001600160501b0319909216919091179055565b610ed68382611ac2565b15610f095782516001600160a01b03163314610f045760405162461bcd60e51b81526004016102e090613a19565b610f31565b6001600160a01b0382163314610f315760405162461bcd60e51b81526004016102e090613a19565b505050565b610f3e613313565b6000610f48611fd9565b6001600160a01b03909416600090815260209485526040808220858352865280822094845284546001600160501b0380821660090b9093039685019690965260ff600160f01b870416151590840152600160501b8086048216608085015260019094015480821660a0850152600160a01b909504811660608401529290930490911660c0820152919050565b610fdc6133cf565b600080610fe98686611fe6565b9150915081600014156111195760006110018761202f565b91945090925090506001600160a01b038116156111175760006110226120f2565b90508560001080156110345750858711155b8015611045575064ffffffffff8611155b61104e57600080fd5b83600012801561106557506001600160801b038413155b61106e57600080fd5b6000888152602082815260408083208a845290915290819020805464ffffffffff191664ffffffffff89161774ffffffffffffffffffffffffffffffff00000000001916650100000000006001600160801b038816021760ff60a81b1916600160a81b60ff871602178155905188908a907f0fdfa6885701e2f1f42e4187b9231cf81c1fe23671ef64fa46f34ddb56c1dc189061110c908990613d9a565b60405180910390a350505b505b6040805160608101825260008152602081019390935260ff909116600a0a9082015290509392505050565b6000610df1600019836120ff565b919050565b60008061118e846020015161118886604001516111826402540be400886120ff90919063ffffffff16565b906120ff565b9061214d565b949350505050565b6000808212156111a557600080fd5b5090565b600080610df1601861217e565b60006001600160ff1b038211156111a557600080fd5b60008060008060006111dc612197565b6001600160a01b0388166000908152602082815260408083208a8452909152902080546001600160501b0381169650600160501b900463ffffffff169450909150831561124557805461123e90600160701b900466ffffffffffffff166121a4565b925061125a565b8054600160701b900466ffffffffffffff1692505b54600160a81b9004600a90810b900b97939650919450925050565b600081121561128357600080fd5b61129860008361ffff168360008060006121b2565b8161ffff167fd3625f7b5926828151efe19f7ae655488287357d99ebe67e5fb20522ca739c0b8260405161086c91906139b7565b60008282018381101561073957600080fd5b60006112e86122f9565b6001600160a01b038416600090815260208290526040902080549192509061ffff16831561132757815461ffff19166001821761ffff16178255611337565b815461ffff191661fffe82161782555b5050505050565b6000611348611fd9565b6001600160a01b038316600090815260208281526040808320875184529091529081902090850151919250901561137e57600080fd5b6113966113916104188660200151611144565b612306565b81546001600160501b0319166001600160501b039190911617815560808401516113bf90612306565b81546001600160501b0391909116600160501b0269ffffffffffffffffffff60501b1990911617815560a08401516113f690612306565b6001820180546001600160501b0319166001600160501b0392909216919091179055606084015161142690612306565b81546001600160501b0391909116600160a01b0269ffffffffffffffffffff60a01b19909116179055505050565b60008061145f61172d565b6001600160a01b03861660009081526020918252604080822061ffff881683529092522080549091506114a290600160501b90046001600160501b03168461231c565b915060008312156114d75780546001600160501b03168213156114d75760405162461bcd60e51b81526004016102e090613b29565b6114e361139183611196565b81546001600160501b0391909116600160501b0269ffffffffffffffffffff60501b199091161790559392505050565b600061151d611fd9565b84516001600160a01b03166000908152602082815260408083208784529091529020805491925090600160f01b900460ff161561155957600080fd5b8284111561156657600080fd5b6000611580866040015187600001516305f5e10088612332565b825460ff60f01b1916600160f01b178355905061159f61139182611196565b82600101600a6101000a8154816001600160501b0302191690836001600160501b03160217905550505050505050565b60006115d96122f9565b90506115eb60c0830160a08401613870565b60ff16606413156115fb57600080fd5b606461160d60e0840160c08501613870565b60ff16131561161b57600080fd5b61162c610100830160e08401613870565b60ff1661163857600080fd5b61164a6101208301610100840161375e565b61ffff1661165e608084016060850161375e565b61ffff161061166c57600080fd5b61167e6101408301610120840161375e565b61ffff16611692604084016020850161375e565b61ffff16141580156116cc57506116b16101608301610140840161375e565b61ffff166116c5604084016020850161375e565b61ffff1614155b801561170057506116e56101808301610160840161375e565b61ffff166116f9604084016020850161375e565b61ffff1614155b61170957600080fd5b6001600160a01b038316600090815260208290526040902082906113378282613e95565b600080610df1601761217e565b611742613352565b61174b82611e0e565b9050610e6d816040015161ffff166123f1565b6000806000611775866040015161ffff168561197f565b905060006117a261092661178c88608001516111b6565b602089015161179c908690611157565b90612407565b905060006117b7886040015161ffff1661189e565b905060006117cc896040015161ffff1661241d565b90506117d882846118b1565b95506117ee6117e78585612430565b82906118b1565b945050505050935093915050565b60008061180833610e49565b9050611815816001611ac2565b6118315760405162461bcd60e51b81526004016102e0906139f9565b806040015161ffff168661ffff16141561184a57600080fd5b611856338787876119dc565b611869868686868561010001514261245b565b9150600084138015611879575081155b1561189557610160810151611892906109269086611157565b91505b50949350505050565b6118a66133f9565b610df182600061259d565b60006305f5e100836040015114156118ca575080610df1565b6107396305f5e1006111888560400151856120ff90919063ffffffff16565b6000806002866060015160058111156118fe57fe5b14156119165761190f86858561264b565b9050611973565b60006119218661241d565b905060058760600151600581111561193557fe5b141561194d57611946818686612712565b9150611971565b60018760600151600581111561195f57fe5b141561011657611946878287876127c3565b505b611892610926826111b6565b6119876133cf565b6000806119948585611fe6565b9150915081600014156119b2576119aa856128c1565b919350909150505b6040805160608101825260008152602081019390935260ff909116600a0a90820152905092915050565b6119e7848483611454565b5060006119f26111a9565b6001600160a01b038616600090815260209182526040808220868352835280822061ffff88168352909252208054909150611a3e9061139190610418906001600160501b03168561231c565b81546001600160501b0319166001600160501b039190911617905550505050565b6000611a6b84836118b1565b9050600584606001516005811115611a7f57fe5b1415610739576000611a948461ffff1661241d565b9050611aa4816000015183612944565b95945050505050565b600082821115611abc57600080fd5b50900390565b60209190910151811661ffff90811691161490565b60006305f5e10083604001511415611af0575080610df1565b604083015161073990611188846305f5e1006120ff565b600084611b1657506000611d02565b6000611b29886040015161ffff1661189e565b90506000611b4689604001518884611a5f9092919063ffffffff16565b90506000611b5382611196565b8a5184516040516370a0823160e01b815292935090916000906001600160a01b038316906370a0823190611b8b908690600401613914565b60206040518083038186803b158015611ba357600080fd5b505afa158015611bb7573d6000803e3d6000fd5b505050506040513d601f19601f82011682018060405250810190611bdb9190613746565b9050611be88284866129ca565b6040516370a0823160e01b81526000906001600160a01b038416906370a0823190611c17908790600401613914565b60206040518083038186803b158015611c2f57600080fd5b505afa158015611c43573d6000803e3d6000fd5b505050506040513d601f19601f82011682018060405250810190611c679190613746565b90506001600160a01b03841663dc6679c58e611c838486611aad565b8e8e8e6040518663ffffffff1660e01b8152600401611ca695949392919061394b565b602060405180830381600087803b158015611cc057600080fd5b505af1158015611cd4573d6000803e3d6000fd5b505050506040513d601f19601f82011682018060405250810190611cf89190613746565b9750505050505050505b9695505050505050565b6000611d1a85858585612a41565b509050808560a0015113156113375760405162461bcd60e51b81526004016102e090613bde565b6000806002600a541415611d675760405162461bcd60e51b81526004016102e090613c15565b6002600a55611d7887610100611ac2565b15611d83576001600a555b6000611d93886000015188610f36565b8851909150600090611daa908a90898b8a8a612aaa565b905060008113611db957600080fd5b6080820151611dc890826112cc565b608083015260a0820151611ddc9088611aad565b60a08301528851611dee90839061133e565b611df989838a61175e565b6001600a55909a909950975050505050505050565b611e16613352565b6000611e206122f9565b6001600160a01b03841660008181526020838152604091829020928652825461ffff808216928801929092526201000081049091169186019190915291925090611e819063ffffffff6401000000009091048116906305f5e100906120ff16565b60608401528054611e9f90600160501b900460ff166207a120612c95565b60808401528054611ec39068010000000000000000900461ffff16620186a0612c95565b60a08401528054611ee290600160701b900461ffff16620186a0612c95565b610120840152805460649060ff600160581b90910416633b9aca00020560c08401528054600160601b810460ff90811660e0860152600160681b90910416610100840152604080516060810191829052906001830190600390826000855b82829054906101000a900461ffff1661ffff1681526020019060020190602082600101049283019260010382029150808411611f4057905050505050508361014001819052505050919050565b611f956133cf565b6000806000611fa38561202f565b604080516060810182526001600160a01b039093168352602083019390935260ff16600a0a918101919091529350505050919050565b600080610df1601561217e565b6000806000611ff36120f2565b6000958652602090815260408087209587529490525050509020546501000000000081046001600160801b031691600160a81b90910460ff1690565b600080600080600061204086612cbc565b909250905060006001600160a01b0383166120655750600090506402540be4006120e7565b826001600160a01b0316631ee108336040518163ffffffff1660e01b8152600401602060405180830381600087803b1580156120a057600080fd5b505af11580156120b4573d6000803e3d6000fd5b505050506040513d601f19601f820116820180604052508101906120d89190613746565b9050600081136120e757600080fd5b969195509350915050565b600080610df1600861217e565b81810260001983141561212f5781158061212157508282828161211e57fe5b05145b61212a57600080fd5b610df1565b82158061214457508183828161214157fe5b05145b610df157600080fd5b6000816000191480156121635750600160ff1b83145b1561216d57600080fd5b81838161217657fe5b059392505050565b6000620f424082601881111561219057fe5b0192915050565b600080610df1600661217e565b600881901c60ff9091161b90565b60006121bc612197565b6001600160a01b0388166000908152602082815260408083208a845290915290209091506a7fffffffffffffffffffff19861280159061220757506a7fffffffffffffffffffff8613155b61221057600080fd5b6000851215801561222857506001600160501b038513155b61223157600080fd5b836122715766ffffffffffffff83111561224a57600080fd5b805466ffffffffffffff60701b1916600160701b66ffffffffffffff85160217815561228b565b8054600160501b900463ffffffff16841461228b57600080fd5b8054600a9690960b6affffffffffffffffffffff16600160a81b026001600160a81b036001600160501b039096166001600160501b031963ffffffff909616600160501b0263ffffffff60501b19909816979097179490941695909517939093169190911790925550505050565b600080610df1601461217e565b60006001600160501b038211156111a557600080fd5b80820382811315600083121514610df157600080fd5b6000806123428661ffff1661241d565b90508060400151600014156123615761235e8661ffff1661189e565b90505b6118926123ea866001600160a01b031663bc3b901887876040518363ffffffff1660e01b81526004016123959291906139c0565b60206040518083038186803b1580156123ad57600080fd5b505afa1580156123c1573d6000803e3d6000fd5b505050506040513d601f19601f820116820180604052508101906123e59190613746565b6111b6565b8290611ad7565b6123f96133cf565b6000806000611fa3856128c1565b81810182811215600083121514610df157600080fd5b6124256133f9565b610df182600161259d565b60008061118e84604001516111886402540be4006111888789602001516120ff90919063ffffffff16565b60008061246b8861ffff16612cf3565b9050838160ff16111561247d57600080fd5b60008061248e8360ff168a87612d09565b91509150801561249d57600080fd5b60006124a889612dd1565b90506affffffffffffffffffffff81106124c157600080fd5b600060788963ffffffff16901b609883901b60f086901b60f860008e136124e95760016124ec565b60005b60058111156124f757fe5b60ff16901b17171760001b905073__$7ac922d04bd7a1b42c7f6e5f1dd89a70af$__63e50f349e8d836040518363ffffffff1660e01b815260040161253d929190613dae565b60206040518083038186803b15801561255557600080fd5b505af4158015612569573d6000803e3d6000fd5b505050506040513d601f19601f8201168201806040525081019061258d9190613746565b9c9b505050505050505050505050565b6125a56133f9565b60006125af612df2565b6000858152602082815260408083208715158452825291829020825160a08101845281546001600160a01b038116825260ff600160a01b82048116151594830194909452600160b01b81048416600a0a9482019490945293945092916060830191600160a81b90910416600581111561262457fe5b81529154600160b81b900468ffffffffffffffffff16602090920191909152949350505050565b825160405163db006a7560e01b8152600091479183916001600160a01b03169063db006a759061267f9087906004016139b7565b602060405180830381600087803b15801561269957600080fd5b505af11580156126ad573d6000803e3d6000fd5b505050506040513d601f19601f820116820180604052508101906126d19190613746565b905080156126f15760405162461bcd60e51b81526004016102e090613a3f565b476126fc8184612dff565b93506127088685612e56565b5050509392505050565b600061272d6104188560000151612728856111b6565b612944565b9050612737612e8c565b548451604051631a4ca37b60e21b81526001600160a01b03909216916369328dec916127699185908890600401613928565b602060405180830381600087803b15801561278357600080fd5b505af1158015612797573d6000803e3d6000fd5b505050506040513d601f19601f820116820180604052508101906127bb9190613746565b509392505050565b825160009081906127dc90306370a0823160e01b612e99565b9050600086600001516001600160a01b031663db006a75856040518263ffffffff1660e01b815260040161281091906139b7565b602060405180830381600087803b15801561282a57600080fd5b505af115801561283e573d6000803e3d6000fd5b505050506040513d601f19601f820116820180604052508101906128629190613746565b905080156128825760405162461bcd60e51b81526004016102e090613a3f565b855160009061289990306370a0823160e01b612e99565b90506128a58184612dff565b93506128b6876000015187866129ca565b505050949350505050565b60008060008060006128d286612cbc565b909250905060006001600160a01b0383166128f75750600090506402540be4006120e7565b826001600160a01b031663b2fffb046040518163ffffffff1660e01b815260040160206040518083038186803b15801561293057600080fd5b505afa1580156120b4573d6000803e3d6000fd5b60008161295357506000610df1565b600061295e84612fab565b9050600061296b84612dd1565b9050816b019d971e4fe8401e74000001600160ff1b038161298857fe5b0581131561299557600080fd5b6b033b2e3c9fd0803ce80000006b019d971e4fe8401e74000000838302010560008513611aa4576129c581611144565b611d02565b826001600160a01b031663a9059cbb83836040518363ffffffff1660e01b815260040180836001600160a01b0316815260200182815260200192505050600060405180830381600087803b158015612a2157600080fd5b505af1158015612a35573d6000803e3d6000fd5b50505050610f31612fe6565b600080612a4f858786613057565b90506000612a6b612a5f85611144565b61016089015190611157565b90506000612a79838361231c565b905060008213612a92576001600160ff1b039350612a9f565b612a9c81836130af565b93505b505094509492505050565b600084612ab957506000611d02565b6000612acc886040015161ffff1661189e565b9050600081600001516001600160a01b03166370a08231306040518263ffffffff1660e01b8152600401612b009190613914565b60206040518083038186803b158015612b1857600080fd5b505afa158015612b2c573d6000803e3d6000fd5b505050506040513d601f19601f82011682018060405250810190612b509190613746565b8951604051634d6dc4df60e11b81529192506001600160a01b031690639adb89be90612b88908b908b908b908b908b9060040161394b565b600060405180830381600087803b158015612ba257600080fd5b505af1158015612bb6573d6000803e3d6000fd5b505083516040516370a0823160e01b8152600093506001600160a01b0390911691506370a0823190612bec903090600401613914565b60206040518083038186803b158015612c0457600080fd5b505afa158015612c18573d6000803e3d6000fd5b505050506040513d601f19601f82011682018060405250810190612c3c9190613746565b90506000612c4d6123e58385611aad565b9050600584606001516005811115612c6157fe5b1415612c7c57612c798b6040015161ffff16826130c8565b90505b612c868482611ad7565b9b9a5050505050505050505050565b600082612ca457506000610df1565b82820282848281612cb157fe5b041461073957600080fd5b6000806000612cc961314f565b600094855260205250506040909120546001600160a01b03811692600160a01b90910460ff169150565b600080612cff8361315c565b60ff169392505050565b60008060008511612d2c5760405162461bcd60e51b81526004016102e090613a86565b6007851115612d4d5760405162461bcd60e51b81526004016102e090613b4f565b6000612d5884613179565b905060015b868111612db0576000612d79612d7283613197565b849061323b565b905086811415612d915750925060009150612dc99050565b86811115612da75750925060019150612dc99050565b50600101612d5d565b5060405162461bcd60e51b81526004016102e090613c69565b935093915050565b600080821215612deb57612de482611144565b9050611152565b5080611152565b600080610df1600761217e565b600082821115611abc576040805162461bcd60e51b815260206004820152601e60248201527f536166654d6174683a207375627472616374696f6e206f766572666c6f770000604482015290519081900360640190fd5b6040516001600160a01b0383169082156108fc029083906000818181858888f19350505050158015610f31573d6000803e3d6000fd5b600080610df1601361217e565b604080516001600160a01b0384811660248084019190915283518084039091018152604490920183526020820180516001600160e01b03166001600160e01b0319861617815292518251600094859485948a16939092909182918083835b60208310612f165780518252601f199092019160209182019101612ef7565b6001836020036101000a038019825116818451168082178552505050505050905001915050600060405180830381855afa9150503d8060008114612f76576040519150601f19603f3d011682016040523d82523d6000602084013e612f7b565b606091505b509150915081612f8a57600080fd5b808060200190516020811015612f9f57600080fd5b50519695505050505050565b6000610df1612fb8612e8c565b5460405163d15e005360e01b81526001600160a01b039091169063d15e005390612395908690600401613914565b6000612ff0613428565b3d8015613004576020811461300d57600080fd5b60019250613018565b60206000833e815192505b5081613053576040805162461bcd60e51b8152602060048201526005602482015264045524332360dc1b604482015290519081900360640190fd5b5050565b60008161306657506000610739565b6000806130738685613295565b91509150600061309186604001518760000151848a60000151612332565b905061098761309f846111b6565b61016088015161179c9084611157565b60006107396130c284633b9aca006120ff565b8361214d565b6000816130d757506000610df1565b600082136130e457600080fd5b60006130ef8461241d565b905060006131008260000151612fab565b9050600281056b033b2e3c9fd0803ce80000006001600160ff1b038290030585131561312b57600080fd5b81816b033b2e3c9fd0803ce80000008702018161314457fe5b059695505050505050565b600080610df1600f61217e565b6000806131676132e7565b60009384526020525050604090205490565b60006276a70082101561318b57600080fd5b506276a7008106900390565b600081600114156131ac57506276a700611152565b81600214156131bf575062ed4e00611152565b81600314156131d357506301da9c00611152565b81600414156131e757506303b53800611152565b81600514156131fb57506309450c00611152565b816006141561320f575063128a1800611152565b816007141561322357506325143000611152565b60405162461bcd60e51b81526004016102e090613ab5565b600082820183811015610739576040805162461bcd60e51b815260206004820152601b60248201527f536166654d6174683a206164646974696f6e206f766572666c6f770000000000604482015290519081900360640190fd5b6000806132bd84606001516132b7866080015186612c9590919063ffffffff16565b906132f4565b91506132de84606001516132b78660a0015186612c9590919063ffffffff16565b90509250929050565b600080610df1600961217e565b600080821161330257600080fd5b81838161330b57fe5b049392505050565b6040518060e001604052806000815260200160008152602001600015158152602001600081526020016000815260200160008152602001600081525090565b60405180610180016040528060006001600160a01b03168152602001600061ffff168152602001600061ffff168152602001600081526020016000815260200160008152602001600081526020016000815260200160008152602001600081526020016133bd613446565b81526020016133ca6133cf565b905290565b604051806060016040528060006001600160a01b0316815260200160008152602001600081525090565b6040805160a0810182526000808252602082018190529181018290529060608201908152602001600081525090565b60405180602001604052806001906020820280368337509192915050565b60405180606001604052806003906020820280368337509192915050565b80356001600160a01b038116811461115257600080fd5b60008083601f84011261348c578081fd5b50813567ffffffffffffffff8111156134a3578182fd5b6020830191508360208285010111156108fc57600080fd5b80356001600160501b038116811461115257600080fd5b6000602082840312156134e3578081fd5b61073982613464565b600080604083850312156134fe578081fd5b61350783613464565b91506020830135801515811461351b578182fd5b809150509250929050565b60008060008385036101c081121561353c578182fd5b61354585613464565b9350610180601f1982011215613559578182fd5b5060208401915061356d6101a085016134bb565b90509250925092565b60008060408385031215613588578182fd5b61359183613464565b9150602083013561351b8161405b565b6000806000606084860312156135b5578283fd5b6135be84613464565b925060208401356135ce8161405b565b929592945050506040919091013590565b6000806000606084860312156135f3578283fd5b6135fc84613464565b9250602084013561360c8161405b565b915061356d604085016134bb565b6000806040838503121561362c578182fd5b61363583613464565b946020939093013593505050565b60008060008060008060a0878903121561365b578182fd5b61366487613464565b9550613672602088016134bb565b94506040870135935060608701359250608087013567ffffffffffffffff81111561369b578283fd5b6136a789828a0161347b565b979a9699509497509295939492505050565b6000602082840312156136ca578081fd5b815167ffffffffffffffff808211156136e1578283fd5b818401915084601f8301126136f4578283fd5b81518181111561370057fe5b604051601f8201601f19168101602001838111828210171561371e57fe5b604052818152838201602001871015613735578485fd5b611d02826020830160208701613e42565b600060208284031215613757578081fd5b5051919050565b60006020828403121561376f578081fd5b81356107398161405b565b6000806000806080858703121561378f578182fd5b843561379a8161405b565b9350602085013592506040850135915060608501356137b88161406e565b939692955090935050565b60008060008060008060a087890312156137db578384fd5b86356137e68161405b565b9550602087013594506040870135935060608701356138048161406e565b9250608087013567ffffffffffffffff81111561369b578283fd5b60008060008060608587031215613834578182fd5b8435935060208501359250604085013567ffffffffffffffff811115613858578283fd5b6138648782880161347b565b95989497509550505050565b600060208284031215613881578081fd5b813561073981614080565b6001600160a01b03169052565b8060005b600381101561036257815161ffff1684526020938401939091019060010161389d565b60008284528282602086013780602084860101526020601f19601f85011685010190509392505050565b80516001600160a01b0316825260208082015190830152604090810151910152565b61ffff169052565b6001600160a01b0391909116815260200190565b6001600160a01b0393841681526020810192909252909116604082015260600190565b600060018060a01b0387168252856020830152846040830152608060608301526109876080830184866138c0565b901515815260200190565b60006020825282518060208401526139a3816040850160208701613e42565b601f01601f19169190910160400192915050565b90815260200190565b918252602082015260400190565b60208082526011908201527052656465656d20616c6c20746f6b656e7360781b604082015260600190565b60208082526006908201526514185d5cd95960d21b604082015260600190565b6020808252600c908201526b155b985d5d1a1bdc9a5e995960a21b604082015260600190565b60208082526006908201526552656465656d60d01b604082015260600190565b6020808252600d908201526c556e7061696420426f72726f7760981b604082015260600190565b60208082526015908201527410d1ce881b9bc81b585c9ad95d1cc81b1a5cdd1959605a1b604082015260600190565b6020808252600d908201526c092dcecc2d8d2c840d2dcc8caf609b1b604082015260600190565b6020808252600c908201526b151c9859194811985a5b195960a21b604082015260600190565b6020808252600d908201526c43616e6e6f7420536574746c6560981b604082015260600190565b6020808252600c908201526b4d617820436170616369747960a01b604082015260600190565b60208082526016908201527510d1ce881b585c9ad95d081a5b99195e08189bdd5b9960521b604082015260600190565b60208082526010908201526f496e76616c69642043757272656e637960801b604082015260600190565b6020808252818101527f4f776e61626c653a2063616c6c6572206973206e6f7420746865206f776e6572604082015260600190565b60208082526017908201527f496e73756666696369656e7420436f6c6c61746572616c000000000000000000604082015260600190565b6020808252600e908201526d1499595b9d1c985b9d0818d85b1b60921b604082015260600190565b602080825260129082015271496e73756666696369656e7420526570617960701b604082015260600190565b60208082526013908201527210d1ce881b9bc81b585c9ad95d08199bdd5b99606a1b604082015260600190565b600061020082019050613caa82845161388c565b6020830151613cbc602084018261390c565b506040830151613ccf604084018261390c565b50606083015160608301526080830151608083015260a083015160a083015260c083015160c083015260e083015160e083015261010080840151818401525061012080840151818401525061014080840151613d2d82850182613899565b5050610160830151613d436101a08401826138ea565b5092915050565b600060e0820190508251825260208301516020830152604083015115156040830152606083015160608301526080830151608083015260a083015160a083015260c083015160c083015292915050565b6001600160801b0391909116815260200190565b61ffff929092168252602082015260400190565b600084825260406020830152611aa46040830184866138c0565b81816000805b6003811015613e3a578335613df68161405b565b835461ffff6008850281811b801990931693909116901b1617835560209390930192600290910190601e821115613e3257600091506001830192505b600101613de2565b505050505050565b60005b83811015613e5d578181015183820152602001613e45565b838111156103625750506000910152565b60008135610df18161405b565b60008135610df18161406e565b60008135610df181614080565b8135613ea08161405b565b61ffff811661ffff1983541617825550613ec5613ebf60208401613e6e565b82613ffd565b613eda613ed460408401613e7b565b82614019565b613eef613ee960608401613e6e565b8261403d565b613f04613efe60808401613e88565b82613f6a565b613f19613f1360a08401613e88565b82613f87565b613f2e613f2860c08401613e88565b82613fa4565b613f43613f3d60e08401613e88565b82613fc1565b613f59613f536101008401613e6e565b82613fde565b613053610120830160018301613ddc565b805460ff60501b191660509290921b60ff60501b16919091179055565b805460ff60581b191660589290921b60ff60581b16919091179055565b805460ff60601b191660609290921b60ff60601b16919091179055565b805460ff60681b191660689290921b60ff60681b16919091179055565b805461ffff60701b191660709290921b61ffff60701b16919091179055565b805463ffff00008360101b1663ffff0000198216178255505050565b805467ffffffff000000008360201b1667ffffffff00000000198216178255505050565b805461ffff60401b8360401b1661ffff60401b198216178255505050565b61ffff8116811461406b57600080fd5b50565b63ffffffff8116811461406b57600080fd5b60ff8116811461406b57600080fdfea26469706673582212209d0dc68cf69369b017801e34e716d1ad46e002b374e460e2199af356130a5fff64736f6c63430007060033","language":"Solidity","natspec":{"kind":"dev","methods":{"depositVaultCashToStrategyTokens(uint256,uint256,bytes)":{"notice":"Strategy vaults can call this method to deposit asset cash into strategy tokens.","params":{"assetCashToDepositExternal":"the number of asset cash tokens to deposit (external)","maturity":"the maturity of the vault where the redemption will take place","vaultData":"arbitrary data to pass back to the vault for deposit"}},"getCashRequiredToSettle(address,uint256)":{"notice":"View method to get the current amount of cash remaining to settle the vault"},"getVaultConfig(address)":{"notice":"View Methods *"},"getVaultState(address,uint256)":{"notice":"View method to get vault state"},"redeemStrategyTokensToCash(uint256,uint256,bytes)":{"notice":"Strategy vaults can call this method to redeem strategy tokens to cash and hold them as asset cash within the pool. This should typically be used during settlement but can also be used for vault-wide deleveraging.","params":{"maturity":"the maturity of the vault where the redemption will take place","strategyTokensToRedeem":"the number of strategy tokens redeemed","vaultData":"arbitrary data to pass back to the vault"},"returns":{"assetCashRequiredToSettle":"amount of asset cash still remaining to settle the debt","underlyingCashRequiredToSettle":"amount of underlying cash still remaining to settle the debt"}},"reduceMaxBorrowCapacity(address,uint80,uint256,uint256,bytes)":{"notice":"Allows the owner to reduce the max borrow capacity on the vault and force the redemption of strategy tokens to cash to reduce the overall risk of the vault. This method is intended to be used in emergencies to mitigate insolvency risk.","params":{"maturity":"the maturity to redeem tokens in, will generally be either the current maturity or the next maturity.","maxVaultBorrowCapacity":"the new max vault borrow capacity on the primary currency","strategyTokensToRedeem":"how many tokens we would want to redeem in the maturity","vaultAddress":"address of the vault","vaultData":"vault data to pass to the vault"}},"setVaultPauseStatus(address,bool)":{"notice":"Enables or disables a vault. If a vault is disabled, no one can enter the vault anymore.","params":{"enable":"bool if the vault should be enabled immediately","vaultAddress":"address of deployed vault"}},"settleVault(address,uint256)":{"notice":"Settles an entire vault, can only be called during an emergency stop out or during the vault's defined settlement period. May be called multiple times during a vault term if the vault has been stopped out early.","params":{"maturity":"the maturity of the vault","vault":"the vault to settle"}},"updateSecondaryBorrowCapacity(address,uint16,uint80)":{"notice":"Whitelists a secondary borrow currency for a vault, vaults can borrow up to the capacity using the `borrowSecondaryCurrencyToVault` and `repaySecondaryCurrencyToVault` methods. Vaults that use a secondary currency must ALWAYS repay the secondary debt during redemption and handle accounting for the secondary currency themselves.","params":{"maxBorrowCapacity":"maximum borrow capacity","secondaryCurrencyId":"struct of vault configuration","vaultAddress":"address of deployed vault"}},"updateVault(address,(uint16,uint16,uint32,uint16,uint8,uint8,uint8,uint8,uint16,uint16[3]),uint80)":{"notice":"Updates or lists a deployed vault along with its configuration.","params":{"maxPrimaryBorrowCapacity":"maximum borrow capacity","vaultAddress":"address of deployed vault","vaultConfig":"struct of vault configuration"}}},"version":1},"opcodes":"PUSH1 0x80 PUSH1 0x40 MSTORE CALLVALUE DUP1 ISZERO PUSH2 0x10 JUMPI PUSH1 0x0 DUP1 REVERT JUMPDEST POP PUSH1 0x4 CALLDATASIZE LT PUSH2 0x116 JUMPI PUSH1 0x0 CALLDATALOAD PUSH1 0xE0 SHR DUP1 PUSH4 0x83E50FB7 GT PUSH2 0xA2 JUMPI DUP1 PUSH4 0xCCE97876 GT PUSH2 0x71 JUMPI DUP1 PUSH4 0xCCE97876 EQ PUSH2 0x226 JUMPI DUP1 PUSH4 0xD04C16AC EQ PUSH2 0x246 JUMPI DUP1 PUSH4 0xD6DDEB9A EQ PUSH2 0x259 JUMPI DUP1 PUSH4 0xDE1EB9A3 EQ PUSH2 0x26C JUMPI DUP1 PUSH4 0xEE01436B EQ PUSH2 0x28C JUMPI PUSH2 0x116 JUMP JUMPDEST DUP1 PUSH4 0x83E50FB7 EQ PUSH2 0x1E3 JUMPI DUP1 PUSH4 0x8DA5CB5B EQ PUSH2 0x203 JUMPI DUP1 PUSH4 0xA14DB57C EQ PUSH2 0x20B JUMPI DUP1 PUSH4 0xC4C96DAE EQ PUSH2 0x21E JUMPI PUSH2 0x116 JUMP JUMPDEST DUP1 PUSH4 0x51479E39 GT PUSH2 0xE9 JUMPI DUP1 PUSH4 0x51479E39 EQ PUSH2 0x181 JUMPI DUP1 PUSH4 0x56F428C4 EQ PUSH2 0x194 JUMPI DUP1 PUSH4 0x67515776 EQ PUSH2 0x1A7 JUMPI DUP1 PUSH4 0x6C346C09 EQ PUSH2 0x1C8 JUMPI DUP1 PUSH4 0x82463367 EQ PUSH2 0x1DB JUMPI PUSH2 0x116 JUMP JUMPDEST DUP1 PUSH4 0x24A3D622 EQ PUSH2 0x11B JUMPI DUP1 PUSH4 0x291AFDF3 EQ PUSH2 0x139 JUMPI DUP1 PUSH4 0x295E6B7F EQ PUSH2 0x14E JUMPI DUP1 PUSH4 0x31572281 EQ PUSH2 0x161 JUMPI JUMPDEST PUSH1 0x0 DUP1 REVERT JUMPDEST PUSH2 0x123 PUSH2 0x29F JUMP JUMPDEST PUSH1 0x40 MLOAD PUSH2 0x130 SWAP2 SWAP1 PUSH2 0x3914 JUMP JUMPDEST PUSH1 0x40 MLOAD DUP1 SWAP2 SUB SWAP1 RETURN JUMPDEST PUSH2 0x14C PUSH2 0x147 CALLDATASIZE PUSH1 0x4 PUSH2 0x35DF JUMP JUMPDEST PUSH2 0x2AE JUMP JUMPDEST STOP JUMPDEST PUSH2 0x14C PUSH2 0x15C CALLDATASIZE PUSH1 0x4 PUSH2 0x361A JUMP JUMPDEST PUSH2 0x368 JUMP JUMPDEST PUSH2 0x174 PUSH2 0x16F CALLDATASIZE PUSH1 0x4 PUSH2 0x361A JUMP JUMPDEST PUSH2 0x727 JUMP JUMPDEST PUSH1 0x40 MLOAD PUSH2 0x130 SWAP2 SWAP1 PUSH2 0x3D4A JUMP JUMPDEST PUSH2 0x14C PUSH2 0x18F CALLDATASIZE PUSH1 0x4 PUSH2 0x3526 JUMP JUMPDEST PUSH2 0x740 JUMP JUMPDEST PUSH2 0x14C PUSH2 0x1A2 CALLDATASIZE PUSH1 0x4 PUSH2 0x34EC JUMP JUMPDEST PUSH2 0x7F7 JUMP JUMPDEST PUSH2 0x1BA PUSH2 0x1B5 CALLDATASIZE PUSH1 0x4 PUSH2 0x3576 JUMP JUMPDEST PUSH2 0x878 JUMP JUMPDEST PUSH1 0x40 MLOAD PUSH2 0x130 SWAP3 SWAP2 SWAP1 PUSH2 0x39C0 JUMP JUMPDEST PUSH2 0x1BA PUSH2 0x1D6 CALLDATASIZE PUSH1 0x4 PUSH2 0x361A JUMP JUMPDEST PUSH2 0x8C8 JUMP JUMPDEST PUSH2 0x123 PUSH2 0x903 JUMP JUMPDEST PUSH2 0x1F6 PUSH2 0x1F1 CALLDATASIZE PUSH1 0x4 PUSH2 0x377A JUMP JUMPDEST PUSH2 0x912 JUMP JUMPDEST PUSH1 0x40 MLOAD PUSH2 0x130 SWAP2 SWAP1 PUSH2 0x39B7 JUMP JUMPDEST PUSH2 0x123 PUSH2 0x992 JUMP JUMPDEST PUSH2 0x1F6 PUSH2 0x219 CALLDATASIZE PUSH1 0x4 PUSH2 0x35A1 JUMP JUMPDEST PUSH2 0x9A9 JUMP JUMPDEST PUSH2 0x123 PUSH2 0x9F5 JUMP JUMPDEST PUSH2 0x239 PUSH2 0x234 CALLDATASIZE PUSH1 0x4 PUSH2 0x37C3 JUMP JUMPDEST PUSH2 0xA0D JUMP JUMPDEST PUSH1 0x40 MLOAD PUSH2 0x130 SWAP2 SWAP1 PUSH2 0x3984 JUMP JUMPDEST PUSH2 0x14C PUSH2 0x254 CALLDATASIZE PUSH1 0x4 PUSH2 0x381F JUMP JUMPDEST PUSH2 0xC54 JUMP JUMPDEST PUSH2 0x14C PUSH2 0x267 CALLDATASIZE PUSH1 0x4 PUSH2 0x3643 JUMP JUMPDEST PUSH2 0xD7A JUMP JUMPDEST PUSH2 0x27F PUSH2 0x27A CALLDATASIZE PUSH1 0x4 PUSH2 0x34D2 JUMP JUMPDEST PUSH2 0xDE0 JUMP JUMPDEST PUSH1 0x40 MLOAD PUSH2 0x130 SWAP2 SWAP1 PUSH2 0x3C96 JUMP JUMPDEST PUSH2 0x1BA PUSH2 0x29A CALLDATASIZE PUSH1 0x4 PUSH2 0x381F JUMP JUMPDEST PUSH2 0xDF7 JUMP JUMPDEST PUSH1 0x2 SLOAD PUSH1 0x1 PUSH1 0x1 PUSH1 0xA0 SHL SUB AND DUP2 JUMP JUMPDEST PUSH1 0x0 SLOAD PUSH5 0x100000000 SWAP1 DIV PUSH1 0x1 PUSH1 0x1 PUSH1 0xA0 SHL SUB AND CALLER EQ PUSH2 0x2E9 JUMPI PUSH1 0x40 MLOAD PUSH3 0x461BCD PUSH1 0xE5 SHL DUP2 MSTORE PUSH1 0x4 ADD PUSH2 0x2E0 SWAP1 PUSH2 0x3BA9 JUMP JUMPDEST PUSH1 0x40 MLOAD DUP1 SWAP2 SUB SWAP1 REVERT JUMPDEST PUSH1 0x0 PUSH2 0x2F4 DUP5 PUSH2 0xE49 JUMP JUMPDEST PUSH2 0x140 DUP2 ADD MLOAD MLOAD SWAP1 SWAP2 POP PUSH2 0xFFFF DUP5 DUP2 AND SWAP2 AND EQ DUP1 PUSH2 0x321 JUMPI POP PUSH2 0x140 DUP2 ADD MLOAD PUSH1 0x20 ADD MLOAD PUSH2 0xFFFF DUP5 DUP2 AND SWAP2 AND EQ JUMPDEST DUP1 PUSH2 0x33B JUMPI POP PUSH2 0x140 DUP2 ADD MLOAD PUSH1 0x40 ADD MLOAD PUSH2 0xFFFF DUP5 DUP2 AND SWAP2 AND EQ JUMPDEST PUSH2 0x357 JUMPI PUSH1 0x40 MLOAD PUSH3 0x461BCD PUSH1 0xE5 SHL DUP2 MSTORE PUSH1 0x4 ADD PUSH2 0x2E0 SWAP1 PUSH2 0x3B7F JUMP JUMPDEST PUSH2 0x362 DUP5 DUP5 DUP5 PUSH2 0xE78 JUMP JUMPDEST POP POP POP POP JUMP JUMPDEST PUSH1 0x2 PUSH1 0xA SLOAD EQ ISZERO PUSH2 0x38B JUMPI PUSH1 0x40 MLOAD PUSH3 0x461BCD PUSH1 0xE5 SHL DUP2 MSTORE PUSH1 0x4 ADD PUSH2 0x2E0 SWAP1 PUSH2 0x3C15 JUMP JUMPDEST PUSH1 0x2 PUSH1 0xA SSTORE PUSH1 0x0 PUSH2 0x39B DUP4 PUSH2 0xE49 JUMP JUMPDEST SWAP1 POP PUSH2 0x3A9 DUP2 CALLER PUSH1 0x40 PUSH2 0xECC JUMP JUMPDEST PUSH1 0x0 PUSH2 0x3B5 DUP5 DUP5 PUSH2 0xF36 JUMP JUMPDEST SWAP1 POP TIMESTAMP DUP4 GT ISZERO DUP1 ISZERO PUSH2 0x3C9 JUMPI POP PUSH1 0x40 DUP2 ADD MLOAD ISZERO JUMPDEST PUSH2 0x3E5 JUMPI PUSH1 0x40 MLOAD PUSH3 0x461BCD PUSH1 0xE5 SHL DUP2 MSTORE PUSH1 0x4 ADD PUSH2 0x2E0 SWAP1 PUSH2 0x3B02 JUMP JUMPDEST PUSH1 0x0 PUSH2 0x3FA DUP4 PUSH1 0x40 ADD MLOAD PUSH2 0xFFFF AND DUP6 TIMESTAMP PUSH2 0xFD4 JUMP JUMPDEST SWAP1 POP PUSH1 0x0 PUSH2 0x41D PUSH2 0x418 PUSH2 0x411 DUP6 PUSH1 0x20 ADD MLOAD PUSH2 0x1144 JUMP JUMPDEST DUP5 SWAP1 PUSH2 0x1157 JUMP JUMPDEST PUSH2 0x1196 JUMP JUMPDEST SWAP1 POP PUSH1 0x0 PUSH2 0x429 PUSH2 0x11A9 JUMP JUMPDEST PUSH1 0x1 PUSH1 0x1 PUSH1 0xA0 SHL SUB DUP9 AND PUSH1 0x0 SWAP1 DUP2 MSTORE PUSH1 0x20 SWAP2 DUP3 MSTORE PUSH1 0x40 DUP1 DUP3 KECCAK256 DUP10 DUP4 MSTORE SWAP1 SWAP3 MSTORE KECCAK256 PUSH2 0x140 DUP7 ADD MLOAD MLOAD SWAP1 SWAP2 POP PUSH2 0xFFFF AND ISZERO PUSH2 0x49C JUMPI PUSH2 0x140 DUP6 ADD MLOAD MLOAD PUSH2 0xFFFF AND PUSH1 0x0 SWAP1 DUP2 MSTORE PUSH1 0x20 DUP3 SWAP1 MSTORE PUSH1 0x40 SWAP1 KECCAK256 SLOAD PUSH1 0x1 PUSH1 0x1 PUSH1 0x50 SHL SUB AND ISZERO PUSH2 0x49C JUMPI PUSH1 0x40 MLOAD PUSH3 0x461BCD PUSH1 0xE5 SHL DUP2 MSTORE PUSH1 0x4 ADD PUSH2 0x2E0 SWAP1 PUSH2 0x3A5F JUMP JUMPDEST PUSH2 0x140 DUP6 ADD MLOAD PUSH1 0x20 ADD MLOAD PUSH2 0xFFFF AND ISZERO PUSH2 0x4F3 JUMPI PUSH2 0x140 DUP6 ADD MLOAD PUSH1 0x20 SWAP1 DUP2 ADD MLOAD PUSH2 0xFFFF AND PUSH1 0x0 SWAP1 DUP2 MSTORE SWAP1 DUP3 SWAP1 MSTORE PUSH1 0x40 SWAP1 KECCAK256 SLOAD PUSH1 0x1 PUSH1 0x1 PUSH1 0x50 SHL SUB AND ISZERO PUSH2 0x4F3 JUMPI PUSH1 0x40 MLOAD PUSH3 0x461BCD PUSH1 0xE5 SHL DUP2 MSTORE PUSH1 0x4 ADD PUSH2 0x2E0 SWAP1 PUSH2 0x3A5F JUMP JUMPDEST PUSH2 0x140 DUP6 ADD MLOAD PUSH1 0x40 ADD MLOAD PUSH2 0xFFFF AND ISZERO PUSH2 0x548 JUMPI PUSH2 0x140 DUP6 ADD MLOAD PUSH1 0x40 SWAP1 DUP2 ADD MLOAD PUSH2 0xFFFF AND PUSH1 0x0 SWAP1 DUP2 MSTORE PUSH1 0x20 DUP4 SWAP1 MSTORE KECCAK256 SLOAD PUSH1 0x1 PUSH1 0x1 PUSH1 0x50 SHL SUB AND ISZERO PUSH2 0x548 JUMPI PUSH1 0x40 MLOAD PUSH3 0x461BCD PUSH1 0xE5 SHL DUP2 MSTORE PUSH1 0x4 ADD PUSH2 0x2E0 SWAP1 PUSH2 0x3A5F JUMP JUMPDEST DUP2 DUP5 PUSH1 0x80 ADD MLOAD LT ISZERO PUSH2 0x6F2 JUMPI PUSH1 0xA0 DUP5 ADD MLOAD ISZERO PUSH2 0x576 JUMPI PUSH1 0x40 MLOAD PUSH3 0x461BCD PUSH1 0xE5 SHL DUP2 MSTORE PUSH1 0x4 ADD PUSH2 0x2E0 SWAP1 PUSH2 0x39CE JUMP JUMPDEST PUSH1 0x0 PUSH2 0x587 DUP6 PUSH1 0x80 ADD MLOAD DUP5 SUB PUSH2 0x11B6 JUMP JUMPDEST SWAP1 POP PUSH1 0x0 DUP7 PUSH1 0x40 ADD MLOAD SWAP1 POP DUP7 PUSH1 0x0 ADD MLOAD PUSH1 0x1 PUSH1 0x1 PUSH1 0xA0 SHL SUB AND DUP2 PUSH2 0xFFFF AND PUSH32 0x49F3652D4BD58DF659A52593175FACF1A718295F3F4BEA635367F06D424A8958 DUP5 PUSH1 0x40 MLOAD PUSH2 0x5D4 SWAP2 SWAP1 PUSH2 0x39B7 JUMP JUMPDEST PUSH1 0x40 MLOAD DUP1 SWAP2 SUB SWAP1 LOG3 PUSH1 0x0 PUSH2 0x5ED PUSH1 0x0 DUP4 PUSH2 0xFFFF AND PUSH2 0x11CC JUMP JUMPDEST POP POP POP SWAP1 POP DUP1 DUP4 SGT PUSH2 0x626 JUMPI PUSH2 0x605 DUP3 DUP5 DUP4 SUB PUSH2 0x1275 JUMP JUMPDEST PUSH2 0x61C PUSH2 0x611 DUP5 PUSH2 0x1196 JUMP JUMPDEST PUSH1 0x80 DUP10 ADD MLOAD SWAP1 PUSH2 0x12CC JUMP JUMPDEST PUSH1 0x80 DUP9 ADD MSTORE PUSH2 0x691 JUMP JUMPDEST PUSH2 0x631 DUP3 PUSH1 0x0 PUSH2 0x1275 JUMP JUMPDEST PUSH2 0x63D PUSH2 0x611 DUP3 PUSH2 0x1196 JUMP JUMPDEST PUSH1 0x80 DUP9 ADD MSTORE DUP8 MLOAD PUSH1 0x40 MLOAD PUSH1 0x1 PUSH1 0x1 PUSH1 0xA0 SHL SUB SWAP1 SWAP2 AND SWAP1 PUSH2 0xFFFF DUP5 AND SWAP1 PUSH32 0x9982BA522274FA0CC3EE3B56025595A76649B07F4B8A39F0BD8E546CA0F9646F SWAP1 PUSH2 0x688 SWAP1 DUP6 DUP9 SUB SWAP1 PUSH2 0x39B7 JUMP JUMPDEST PUSH1 0x40 MLOAD DUP1 SWAP2 SUB SWAP1 LOG3 JUMPDEST DUP8 MLOAD PUSH2 0x69E SWAP1 PUSH1 0x0 PUSH2 0x12DE JUMP JUMPDEST DUP8 PUSH1 0x0 ADD MLOAD PUSH1 0x1 PUSH1 0x1 PUSH1 0xA0 SHL SUB AND PUSH32 0x7C51C6AA77346C54CB051D9E792F9B7BDE5C28A9B57E6FB2D2DD727B38438CA9 PUSH1 0x0 PUSH1 0x40 MLOAD PUSH2 0x6DC SWAP2 SWAP1 PUSH2 0x3979 JUMP JUMPDEST PUSH1 0x40 MLOAD DUP1 SWAP2 SUB SWAP1 LOG2 PUSH2 0x6EE DUP8 DUP12 PUSH2 0x133E JUMP JUMPDEST POP POP POP JUMPDEST PUSH2 0x70D DUP8 DUP7 PUSH1 0x40 ADD MLOAD PUSH2 0x708 DUP8 PUSH1 0x20 ADD MLOAD PUSH2 0x1144 JUMP JUMPDEST PUSH2 0x1454 JUMP JUMPDEST POP PUSH2 0x719 DUP6 DUP8 TIMESTAMP PUSH2 0x1513 JUMP JUMPDEST POP POP PUSH1 0x1 PUSH1 0xA SSTORE POP POP POP POP POP JUMP JUMPDEST PUSH2 0x72F PUSH2 0x3313 JUMP JUMPDEST PUSH2 0x739 DUP4 DUP4 PUSH2 0xF36 JUMP JUMPDEST SWAP4 SWAP3 POP POP POP JUMP JUMPDEST PUSH1 0x0 SLOAD PUSH5 0x100000000 SWAP1 DIV PUSH1 0x1 PUSH1 0x1 PUSH1 0xA0 SHL SUB AND CALLER EQ PUSH2 0x772 JUMPI PUSH1 0x40 MLOAD PUSH3 0x461BCD PUSH1 0xE5 SHL DUP2 MSTORE PUSH1 0x4 ADD PUSH2 0x2E0 SWAP1 PUSH2 0x3BA9 JUMP JUMPDEST PUSH2 0x77C DUP4 DUP4 PUSH2 0x15CF JUMP JUMPDEST PUSH2 0x796 DUP4 PUSH2 0x790 PUSH1 0x40 DUP6 ADD PUSH1 0x20 DUP7 ADD PUSH2 0x375E JUMP JUMPDEST DUP4 PUSH2 0xE78 JUMP JUMPDEST PUSH1 0x0 PUSH1 0x1 DUP1 PUSH2 0x7A8 PUSH1 0x20 DUP7 ADD DUP7 PUSH2 0x375E JUMP JUMPDEST AND PUSH2 0xFFFF AND EQ SWAP1 POP DUP4 PUSH1 0x1 PUSH1 0x1 PUSH1 0xA0 SHL SUB AND PUSH32 0xBE3A36B9889E71D651C5E46A9D6A110C243E04A771BD479378FEEC68718985AA DUP3 PUSH1 0x40 MLOAD PUSH2 0x7E9 SWAP2 SWAP1 PUSH2 0x3979 JUMP JUMPDEST PUSH1 0x40 MLOAD DUP1 SWAP2 SUB SWAP1 LOG2 POP POP POP POP JUMP JUMPDEST PUSH1 0x0 SLOAD PUSH5 0x100000000 SWAP1 DIV PUSH1 0x1 PUSH1 0x1 PUSH1 0xA0 SHL SUB AND CALLER EQ PUSH2 0x829 JUMPI PUSH1 0x40 MLOAD PUSH3 0x461BCD PUSH1 0xE5 SHL DUP2 MSTORE PUSH1 0x4 ADD PUSH2 0x2E0 SWAP1 PUSH2 0x3BA9 JUMP JUMPDEST PUSH2 0x833 DUP3 DUP3 PUSH2 0x12DE JUMP JUMPDEST DUP2 PUSH1 0x1 PUSH1 0x1 PUSH1 0xA0 SHL SUB AND PUSH32 0x7C51C6AA77346C54CB051D9E792F9B7BDE5C28A9B57E6FB2D2DD727B38438CA9 DUP3 PUSH1 0x40 MLOAD PUSH2 0x86C SWAP2 SWAP1 PUSH2 0x3979 JUMP JUMPDEST PUSH1 0x40 MLOAD DUP1 SWAP2 SUB SWAP1 LOG2 POP POP JUMP JUMPDEST PUSH1 0x0 DUP1 PUSH1 0x0 PUSH2 0x885 PUSH2 0x172D JUMP JUMPDEST PUSH1 0x1 PUSH1 0x1 PUSH1 0xA0 SHL SUB SWAP1 SWAP6 AND PUSH1 0x0 SWAP1 DUP2 MSTORE PUSH1 0x20 SWAP6 DUP7 MSTORE PUSH1 0x40 DUP1 DUP3 KECCAK256 PUSH2 0xFFFF SWAP1 SWAP7 AND DUP3 MSTORE SWAP5 SWAP1 SWAP6 MSTORE POP POP POP SWAP1 KECCAK256 SLOAD PUSH1 0x1 PUSH1 0x1 PUSH1 0x50 SHL SUB PUSH1 0x1 PUSH1 0x50 SHL DUP3 DIV DUP2 AND SWAP3 SWAP2 AND SWAP1 JUMP JUMPDEST PUSH1 0x0 DUP1 PUSH1 0x0 PUSH2 0x8D6 DUP6 PUSH2 0x173A JUMP JUMPDEST SWAP1 POP PUSH1 0x0 PUSH2 0x8E8 DUP3 PUSH1 0x0 ADD MLOAD DUP7 PUSH2 0xF36 JUMP JUMPDEST SWAP1 POP PUSH2 0x8F5 DUP3 DUP3 DUP8 PUSH2 0x175E JUMP JUMPDEST SWAP4 POP SWAP4 POP POP POP JUMPDEST SWAP3 POP SWAP3 SWAP1 POP JUMP JUMPDEST PUSH1 0x1 SLOAD PUSH1 0x1 PUSH1 0x1 PUSH1 0xA0 SHL SUB AND DUP2 JUMP JUMPDEST PUSH1 0x0 DUP1 PUSH2 0x931 DUP7 DUP7 PUSH2 0x92B PUSH2 0x926 DUP9 PUSH2 0x11B6 JUMP JUMPDEST PUSH2 0x1144 JUMP JUMPDEST DUP7 PUSH2 0x17FC JUMP JUMPDEST SWAP1 POP PUSH1 0x0 DUP2 SGT PUSH2 0x953 JUMPI PUSH1 0x40 MLOAD PUSH3 0x461BCD PUSH1 0xE5 SHL DUP2 MSTORE PUSH1 0x4 ADD PUSH2 0x2E0 SWAP1 PUSH2 0x3ADC JUMP JUMPDEST PUSH1 0x0 PUSH2 0x962 DUP8 PUSH2 0xFFFF AND PUSH2 0x189E JUMP JUMPDEST SWAP1 POP PUSH2 0x987 PUSH2 0x418 PUSH2 0x926 PUSH2 0xFFFF DUP11 AND CALLER PUSH2 0x97E DUP5 DUP8 DUP10 PUSH2 0x18B1 JUMP JUMPDEST DUP7 SWAP3 SWAP2 SWAP1 PUSH2 0x18E9 JUMP JUMPDEST SWAP8 SWAP7 POP POP POP POP POP POP POP JUMP JUMPDEST PUSH1 0x0 SLOAD PUSH5 0x100000000 SWAP1 DIV PUSH1 0x1 PUSH1 0x1 PUSH1 0xA0 SHL SUB AND DUP2 JUMP JUMPDEST PUSH1 0x0 DUP1 PUSH2 0x9B4 PUSH2 0x11A9 JUMP JUMPDEST PUSH1 0x1 PUSH1 0x1 PUSH1 0xA0 SHL SUB SWAP1 SWAP6 AND PUSH1 0x0 SWAP1 DUP2 MSTORE PUSH1 0x20 SWAP6 DUP7 MSTORE PUSH1 0x40 DUP1 DUP3 KECCAK256 SWAP5 DUP3 MSTORE SWAP4 DUP7 MSTORE DUP4 DUP2 KECCAK256 PUSH2 0xFFFF SWAP1 SWAP6 AND DUP2 MSTORE SWAP4 SWAP1 SWAP5 MSTORE POP SWAP1 KECCAK256 SLOAD PUSH1 0x1 PUSH1 0x1 PUSH1 0x50 SHL SUB AND SWAP2 SWAP1 POP JUMP JUMPDEST PUSH20 0x0 SWAP1 JUMP JUMPDEST PUSH1 0x60 PUSH1 0x0 DUP1 PUSH2 0xA1B DUP8 PUSH2 0x11B6 JUMP JUMPDEST SWAP1 POP TIMESTAMP DUP9 GT ISZERO PUSH2 0xA38 JUMPI PUSH2 0xA31 DUP10 DUP10 DUP4 DUP10 PUSH2 0x17FC JUMP JUMPDEST SWAP2 POP PUSH2 0xA67 JUMP JUMPDEST PUSH1 0x0 PUSH2 0xA48 DUP11 PUSH2 0xFFFF AND DUP11 PUSH2 0x197F JUMP JUMPDEST SWAP1 POP PUSH2 0xA57 PUSH2 0x926 DUP3 DUP5 PUSH2 0x1157 JUMP JUMPDEST SWAP3 POP PUSH2 0xA65 CALLER DUP12 DUP12 DUP6 PUSH2 0x19DC JUMP JUMPDEST POP JUMPDEST PUSH1 0x0 PUSH2 0xA76 DUP11 PUSH2 0xFFFF AND PUSH2 0x189E JUMP JUMPDEST SWAP1 POP PUSH1 0x0 PUSH2 0xA92 PUSH2 0x418 DUP13 PUSH2 0xA8A DUP8 PUSH2 0x1144 JUMP JUMPDEST DUP6 SWAP2 SWAP1 PUSH2 0x1A5F JUMP JUMPDEST SWAP1 POP PUSH1 0x0 DUP3 PUSH1 0x0 ADD MLOAD PUSH1 0x1 PUSH1 0x1 PUSH1 0xA0 SHL SUB AND PUSH4 0x70A08231 ADDRESS PUSH1 0x40 MLOAD DUP3 PUSH4 0xFFFFFFFF AND PUSH1 0xE0 SHL DUP2 MSTORE PUSH1 0x4 ADD PUSH2 0xAC6 SWAP2 SWAP1 PUSH2 0x3914 JUMP JUMPDEST PUSH1 0x20 PUSH1 0x40 MLOAD DUP1 DUP4 SUB DUP2 DUP7 DUP1 EXTCODESIZE ISZERO DUP1 ISZERO PUSH2 0xADE JUMPI PUSH1 0x0 DUP1 REVERT JUMPDEST POP GAS STATICCALL ISZERO DUP1 ISZERO PUSH2 0xAF2 JUMPI RETURNDATASIZE PUSH1 0x0 DUP1 RETURNDATACOPY RETURNDATASIZE PUSH1 0x0 REVERT JUMPDEST POP POP POP POP PUSH1 0x40 MLOAD RETURNDATASIZE PUSH1 0x1F NOT PUSH1 0x1F DUP3 ADD AND DUP3 ADD DUP1 PUSH1 0x40 MSTORE POP DUP2 ADD SWAP1 PUSH2 0xB16 SWAP2 SWAP1 PUSH2 0x3746 JUMP JUMPDEST PUSH1 0x40 MLOAD PUSH3 0xE8D8D PUSH1 0xEA SHL DUP2 MSTORE SWAP1 SWAP2 POP CALLER SWAP1 PUSH4 0x3A363400 SWAP1 PUSH2 0xB3F SWAP1 DUP6 SWAP1 DUP13 SWAP1 DUP13 SWAP1 PUSH1 0x4 ADD PUSH2 0x3DC2 JUMP JUMPDEST PUSH1 0x0 PUSH1 0x40 MLOAD DUP1 DUP4 SUB DUP2 PUSH1 0x0 DUP8 DUP1 EXTCODESIZE ISZERO DUP1 ISZERO PUSH2 0xB59 JUMPI PUSH1 0x0 DUP1 REVERT JUMPDEST POP GAS CALL ISZERO DUP1 ISZERO PUSH2 0xB6D JUMPI RETURNDATASIZE PUSH1 0x0 DUP1 RETURNDATACOPY RETURNDATASIZE PUSH1 0x0 REVERT JUMPDEST POP POP POP POP PUSH1 0x40 MLOAD RETURNDATASIZE PUSH1 0x0 DUP3 RETURNDATACOPY PUSH1 0x1F RETURNDATASIZE SWAP1 DUP2 ADD PUSH1 0x1F NOT AND DUP3 ADD PUSH1 0x40 MSTORE PUSH2 0xB95 SWAP2 SWAP1 DUP2 ADD SWAP1 PUSH2 0x36B9 JUMP JUMPDEST SWAP6 POP PUSH1 0x0 DUP4 PUSH1 0x0 ADD MLOAD PUSH1 0x1 PUSH1 0x1 PUSH1 0xA0 SHL SUB AND PUSH4 0x70A08231 ADDRESS PUSH1 0x40 MLOAD DUP3 PUSH4 0xFFFFFFFF AND PUSH1 0xE0 SHL DUP2 MSTORE PUSH1 0x4 ADD PUSH2 0xBC9 SWAP2 SWAP1 PUSH2 0x3914 JUMP JUMPDEST PUSH1 0x20 PUSH1 0x40 MLOAD DUP1 DUP4 SUB DUP2 DUP7 DUP1 EXTCODESIZE ISZERO DUP1 ISZERO PUSH2 0xBE1 JUMPI PUSH1 0x0 DUP1 REVERT JUMPDEST POP GAS STATICCALL ISZERO DUP1 ISZERO PUSH2 0xBF5 JUMPI RETURNDATASIZE PUSH1 0x0 DUP1 RETURNDATACOPY RETURNDATASIZE PUSH1 0x0 REVERT JUMPDEST POP POP POP POP PUSH1 0x40 MLOAD RETURNDATASIZE PUSH1 0x1F NOT PUSH1 0x1F DUP3 ADD AND DUP3 ADD DUP1 PUSH1 0x40 MSTORE POP DUP2 ADD SWAP1 PUSH2 0xC19 SWAP2 SWAP1 PUSH2 0x3746 JUMP JUMPDEST SWAP1 POP DUP3 PUSH2 0xC26 DUP3 DUP5 PUSH2 0x1AAD JUMP JUMPDEST LT ISZERO PUSH2 0xC44 JUMPI PUSH1 0x40 MLOAD PUSH3 0x461BCD PUSH1 0xE5 SHL DUP2 MSTORE PUSH1 0x4 ADD PUSH2 0x2E0 SWAP1 PUSH2 0x3C3D JUMP JUMPDEST POP POP POP POP POP POP SWAP7 SWAP6 POP POP POP POP POP POP JUMP JUMPDEST PUSH1 0x2 PUSH1 0xA SLOAD EQ ISZERO PUSH2 0xC77 JUMPI PUSH1 0x40 MLOAD PUSH3 0x461BCD PUSH1 0xE5 SHL DUP2 MSTORE PUSH1 0x4 ADD PUSH2 0x2E0 SWAP1 PUSH2 0x3C15 JUMP JUMPDEST PUSH1 0x2 PUSH1 0xA SSTORE PUSH1 0x0 PUSH2 0xC87 CALLER PUSH2 0xE49 JUMP JUMPDEST SWAP1 POP PUSH2 0xC95 DUP2 PUSH2 0x100 PUSH2 0x1AC2 JUMP JUMPDEST ISZERO PUSH2 0xCA0 JUMPI PUSH1 0x1 PUSH1 0xA SSTORE JUMPDEST PUSH2 0xCAB DUP2 PUSH1 0x1 PUSH2 0x1AC2 JUMP JUMPDEST PUSH2 0xCC7 JUMPI PUSH1 0x40 MLOAD PUSH3 0x461BCD PUSH1 0xE5 SHL DUP2 MSTORE PUSH1 0x4 ADD PUSH2 0x2E0 SWAP1 PUSH2 0x39F9 JUMP JUMPDEST PUSH1 0x0 PUSH2 0xCD3 CALLER DUP8 PUSH2 0xF36 JUMP JUMPDEST SWAP1 POP PUSH1 0x0 PUSH2 0xCE8 DUP4 PUSH1 0x40 ADD MLOAD PUSH2 0xFFFF AND PUSH2 0x189E JUMP JUMPDEST SWAP1 POP PUSH1 0x0 PUSH2 0xCFF PUSH2 0xCF8 DUP9 PUSH2 0x11B6 JUMP JUMPDEST DUP4 SWAP1 PUSH2 0x1AD7 JUMP JUMPDEST DUP5 MLOAD SWAP1 SWAP2 POP PUSH1 0x0 SWAP1 PUSH2 0xD16 SWAP1 DUP7 SWAP1 DUP5 DUP13 DUP12 DUP12 PUSH2 0x1B07 JUMP JUMPDEST SWAP1 POP PUSH2 0xD2F PUSH2 0xD24 DUP4 PUSH2 0x1196 JUMP JUMPDEST PUSH1 0x80 DUP7 ADD MLOAD SWAP1 PUSH2 0x1AAD JUMP JUMPDEST PUSH1 0x80 DUP6 ADD MSTORE PUSH1 0xA0 DUP5 ADD MLOAD PUSH2 0xD43 SWAP1 DUP3 PUSH2 0x12CC JUMP JUMPDEST PUSH1 0xA0 DUP6 ADD MSTORE PUSH2 0xD52 DUP5 CALLER PUSH2 0x133E JUMP JUMPDEST PUSH1 0x60 DUP5 ADD MLOAD PUSH1 0x20 DUP6 ADD MLOAD PUSH2 0xD6A SWAP2 DUP8 SWAP2 DUP8 SWAP2 SWAP1 PUSH2 0x1D0C JUMP JUMPDEST POP POP PUSH1 0x1 PUSH1 0xA SSTORE POP POP POP POP POP POP POP JUMP JUMPDEST PUSH1 0x0 SLOAD PUSH5 0x100000000 SWAP1 DIV PUSH1 0x1 PUSH1 0x1 PUSH1 0xA0 SHL SUB AND CALLER EQ PUSH2 0xDAC JUMPI PUSH1 0x40 MLOAD PUSH3 0x461BCD PUSH1 0xE5 SHL DUP2 MSTORE PUSH1 0x4 ADD PUSH2 0x2E0 SWAP1 PUSH2 0x3BA9 JUMP JUMPDEST PUSH1 0x0 PUSH2 0xDB7 DUP8 PUSH2 0xE49 JUMP JUMPDEST SWAP1 POP PUSH2 0xDC8 DUP8 DUP3 PUSH1 0x40 ADD MLOAD DUP9 PUSH2 0xE78 JUMP JUMPDEST PUSH2 0xDD5 DUP2 DUP7 DUP7 DUP7 DUP7 PUSH2 0x1D41 JUMP JUMPDEST POP POP POP POP POP POP POP POP POP JUMP JUMPDEST PUSH2 0xDE8 PUSH2 0x3352 JUMP JUMPDEST PUSH2 0xDF1 DUP3 PUSH2 0x173A JUMP JUMPDEST SWAP3 SWAP2 POP POP JUMP JUMPDEST PUSH1 0x0 DUP1 PUSH1 0x0 PUSH2 0xE05 CALLER PUSH2 0xE49 JUMP JUMPDEST SWAP1 POP PUSH2 0xE12 DUP2 PUSH1 0x1 PUSH2 0x1AC2 JUMP JUMPDEST PUSH2 0xE2E JUMPI PUSH1 0x40 MLOAD PUSH3 0x461BCD PUSH1 0xE5 SHL DUP2 MSTORE PUSH1 0x4 ADD PUSH2 0x2E0 SWAP1 PUSH2 0x39F9 JUMP JUMPDEST PUSH2 0xE3B DUP2 DUP9 DUP9 DUP9 DUP9 PUSH2 0x1D41 JUMP JUMPDEST SWAP3 POP SWAP3 POP POP SWAP5 POP SWAP5 SWAP3 POP POP POP JUMP JUMPDEST PUSH2 0xE51 PUSH2 0x3352 JUMP JUMPDEST PUSH2 0xE5A DUP3 PUSH2 0x1E0E JUMP JUMPDEST SWAP1 POP PUSH2 0xE6D DUP2 PUSH1 0x40 ADD MLOAD PUSH2 0xFFFF AND PUSH2 0x1F8D JUMP JUMPDEST PUSH2 0x160 DUP3 ADD MSTORE SWAP2 SWAP1 POP JUMP JUMPDEST PUSH1 0x0 PUSH2 0xE82 PUSH2 0x172D JUMP JUMPDEST PUSH1 0x1 PUSH1 0x1 PUSH1 0xA0 SHL SUB SWAP1 SWAP5 AND PUSH1 0x0 SWAP1 DUP2 MSTORE PUSH1 0x20 SWAP5 DUP6 MSTORE PUSH1 0x40 DUP1 DUP3 KECCAK256 PUSH2 0xFFFF SWAP1 SWAP6 AND DUP3 MSTORE SWAP4 SWAP1 SWAP5 MSTORE POP SWAP2 KECCAK256 DUP1 SLOAD PUSH1 0x1 PUSH1 0x1 PUSH1 0x50 SHL SUB SWAP1 SWAP3 AND PUSH1 0x1 PUSH1 0x1 PUSH1 0x50 SHL SUB NOT SWAP1 SWAP3 AND SWAP2 SWAP1 SWAP2 OR SWAP1 SSTORE JUMP JUMPDEST PUSH2 0xED6 DUP4 DUP3 PUSH2 0x1AC2 JUMP JUMPDEST ISZERO PUSH2 0xF09 JUMPI DUP3 MLOAD PUSH1 0x1 PUSH1 0x1 PUSH1 0xA0 SHL SUB AND CALLER EQ PUSH2 0xF04 JUMPI PUSH1 0x40 MLOAD PUSH3 0x461BCD PUSH1 0xE5 SHL DUP2 MSTORE PUSH1 0x4 ADD PUSH2 0x2E0 SWAP1 PUSH2 0x3A19 JUMP JUMPDEST PUSH2 0xF31 JUMP JUMPDEST PUSH1 0x1 PUSH1 0x1 PUSH1 0xA0 SHL SUB DUP3 AND CALLER EQ PUSH2 0xF31 JUMPI PUSH1 0x40 MLOAD PUSH3 0x461BCD PUSH1 0xE5 SHL DUP2 MSTORE PUSH1 0x4 ADD PUSH2 0x2E0 SWAP1 PUSH2 0x3A19 JUMP JUMPDEST POP POP POP JUMP JUMPDEST PUSH2 0xF3E PUSH2 0x3313 JUMP JUMPDEST PUSH1 0x0 PUSH2 0xF48 PUSH2 0x1FD9 JUMP JUMPDEST PUSH1 0x1 PUSH1 0x1 PUSH1 0xA0 SHL SUB SWAP1 SWAP5 AND PUSH1 0x0 SWAP1 DUP2 MSTORE PUSH1 0x20 SWAP5 DUP6 MSTORE PUSH1 0x40 DUP1 DUP3 KECCAK256 DUP6 DUP4 MSTORE DUP7 MSTORE DUP1 DUP3 KECCAK256 SWAP5 DUP5 MSTORE DUP5 SLOAD PUSH1 0x1 PUSH1 0x1 PUSH1 0x50 SHL SUB DUP1 DUP3 AND PUSH1 0x9 SIGNEXTEND SWAP1 SWAP4 SUB SWAP7 DUP6 ADD SWAP7 SWAP1 SWAP7 MSTORE PUSH1 0xFF PUSH1 0x1 PUSH1 0xF0 SHL DUP8 DIV AND ISZERO ISZERO SWAP1 DUP5 ADD MSTORE PUSH1 0x1 PUSH1 0x50 SHL DUP1 DUP7 DIV DUP3 AND PUSH1 0x80 DUP6 ADD MSTORE PUSH1 0x1 SWAP1 SWAP5 ADD SLOAD DUP1 DUP3 AND PUSH1 0xA0 DUP6 ADD MSTORE PUSH1 0x1 PUSH1 0xA0 SHL SWAP1 SWAP6 DIV DUP2 AND PUSH1 0x60 DUP5 ADD MSTORE SWAP3 SWAP1 SWAP4 DIV SWAP1 SWAP2 AND PUSH1 0xC0 DUP3 ADD MSTORE SWAP2 SWAP1 POP JUMP JUMPDEST PUSH2 0xFDC PUSH2 0x33CF JUMP JUMPDEST PUSH1 0x0 DUP1 PUSH2 0xFE9 DUP7 DUP7 PUSH2 0x1FE6 JUMP JUMPDEST SWAP2 POP SWAP2 POP DUP2 PUSH1 0x0 EQ ISZERO PUSH2 0x1119 JUMPI PUSH1 0x0 PUSH2 0x1001 DUP8 PUSH2 0x202F JUMP JUMPDEST SWAP2 SWAP5 POP SWAP1 SWAP3 POP SWAP1 POP PUSH1 0x1 PUSH1 0x1 PUSH1 0xA0 SHL SUB DUP2 AND ISZERO PUSH2 0x1117 JUMPI PUSH1 0x0 PUSH2 0x1022 PUSH2 0x20F2 JUMP JUMPDEST SWAP1 POP DUP6 PUSH1 0x0 LT DUP1 ISZERO PUSH2 0x1034 JUMPI POP DUP6 DUP8 GT ISZERO JUMPDEST DUP1 ISZERO PUSH2 0x1045 JUMPI POP PUSH5 0xFFFFFFFFFF DUP7 GT ISZERO JUMPDEST PUSH2 0x104E JUMPI PUSH1 0x0 DUP1 REVERT JUMPDEST DUP4 PUSH1 0x0 SLT DUP1 ISZERO PUSH2 0x1065 JUMPI POP PUSH1 0x1 PUSH1 0x1 PUSH1 0x80 SHL SUB DUP5 SGT ISZERO JUMPDEST PUSH2 0x106E JUMPI PUSH1 0x0 DUP1 REVERT JUMPDEST PUSH1 0x0 DUP9 DUP2 MSTORE PUSH1 0x20 DUP3 DUP2 MSTORE PUSH1 0x40 DUP1 DUP4 KECCAK256 DUP11 DUP5 MSTORE SWAP1 SWAP2 MSTORE SWAP1 DUP2 SWAP1 KECCAK256 DUP1 SLOAD PUSH5 0xFFFFFFFFFF NOT AND PUSH5 0xFFFFFFFFFF DUP10 AND OR PUSH21 0xFFFFFFFFFFFFFFFFFFFFFFFFFFFFFFFF0000000000 NOT AND PUSH6 0x10000000000 PUSH1 0x1 PUSH1 0x1 PUSH1 0x80 SHL SUB DUP9 AND MUL OR PUSH1 0xFF PUSH1 0xA8 SHL NOT AND PUSH1 0x1 PUSH1 0xA8 SHL PUSH1 0xFF DUP8 AND MUL OR DUP2 SSTORE SWAP1 MLOAD DUP9 SWAP1 DUP11 SWAP1 PUSH32 0xFDFA6885701E2F1F42E4187B9231CF81C1FE23671EF64FA46F34DDB56C1DC18 SWAP1 PUSH2 0x110C SWAP1 DUP10 SWAP1 PUSH2 0x3D9A JUMP JUMPDEST PUSH1 0x40 MLOAD DUP1 SWAP2 SUB SWAP1 LOG3 POP POP JUMPDEST POP JUMPDEST PUSH1 0x40 DUP1 MLOAD PUSH1 0x60 DUP2 ADD DUP3 MSTORE PUSH1 0x0 DUP2 MSTORE PUSH1 0x20 DUP2 ADD SWAP4 SWAP1 SWAP4 MSTORE PUSH1 0xFF SWAP1 SWAP2 AND PUSH1 0xA EXP SWAP1 DUP3 ADD MSTORE SWAP1 POP SWAP4 SWAP3 POP POP POP JUMP JUMPDEST PUSH1 0x0 PUSH2 0xDF1 PUSH1 0x0 NOT DUP4 PUSH2 0x20FF JUMP JUMPDEST SWAP2 SWAP1 POP JUMP JUMPDEST PUSH1 0x0 DUP1 PUSH2 0x118E DUP5 PUSH1 0x20 ADD MLOAD PUSH2 0x1188 DUP7 PUSH1 0x40 ADD MLOAD PUSH2 0x1182 PUSH5 0x2540BE400 DUP9 PUSH2 0x20FF SWAP1 SWAP2 SWAP1 PUSH4 0xFFFFFFFF AND JUMP JUMPDEST SWAP1 PUSH2 0x20FF JUMP JUMPDEST SWAP1 PUSH2 0x214D JUMP JUMPDEST SWAP5 SWAP4 POP POP POP POP JUMP JUMPDEST PUSH1 0x0 DUP1 DUP3 SLT ISZERO PUSH2 0x11A5 JUMPI PUSH1 0x0 DUP1 REVERT JUMPDEST POP SWAP1 JUMP JUMPDEST PUSH1 0x0 DUP1 PUSH2 0xDF1 PUSH1 0x18 PUSH2 0x217E JUMP JUMPDEST PUSH1 0x0 PUSH1 0x1 PUSH1 0x1 PUSH1 0xFF SHL SUB DUP3 GT ISZERO PUSH2 0x11A5 JUMPI PUSH1 0x0 DUP1 REVERT JUMPDEST PUSH1 0x0 DUP1 PUSH1 0x0 DUP1 PUSH1 0x0 PUSH2 0x11DC PUSH2 0x2197 JUMP JUMPDEST PUSH1 0x1 PUSH1 0x1 PUSH1 0xA0 SHL SUB DUP9 AND PUSH1 0x0 SWAP1 DUP2 MSTORE PUSH1 0x20 DUP3 DUP2 MSTORE PUSH1 0x40 DUP1 DUP4 KECCAK256 DUP11 DUP5 MSTORE SWAP1 SWAP2 MSTORE SWAP1 KECCAK256 DUP1 SLOAD PUSH1 0x1 PUSH1 0x1 PUSH1 0x50 SHL SUB DUP2 AND SWAP7 POP PUSH1 0x1 PUSH1 0x50 SHL SWAP1 DIV PUSH4 0xFFFFFFFF AND SWAP5 POP SWAP1 SWAP2 POP DUP4 ISZERO PUSH2 0x1245 JUMPI DUP1 SLOAD PUSH2 0x123E SWAP1 PUSH1 0x1 PUSH1 0x70 SHL SWAP1 DIV PUSH7 0xFFFFFFFFFFFFFF AND PUSH2 0x21A4 JUMP JUMPDEST SWAP3 POP PUSH2 0x125A JUMP JUMPDEST DUP1 SLOAD PUSH1 0x1 PUSH1 0x70 SHL SWAP1 DIV PUSH7 0xFFFFFFFFFFFFFF AND SWAP3 POP JUMPDEST SLOAD PUSH1 0x1 PUSH1 0xA8 SHL SWAP1 DIV PUSH1 0xA SWAP1 DUP2 SIGNEXTEND SWAP1 SIGNEXTEND SWAP8 SWAP4 SWAP7 POP SWAP2 SWAP5 POP SWAP3 POP POP JUMP JUMPDEST PUSH1 0x0 DUP2 SLT ISZERO PUSH2 0x1283 JUMPI PUSH1 0x0 DUP1 REVERT JUMPDEST PUSH2 0x1298 PUSH1 0x0 DUP4 PUSH2 0xFFFF AND DUP4 PUSH1 0x0 DUP1 PUSH1 0x0 PUSH2 0x21B2 JUMP JUMPDEST DUP2 PUSH2 0xFFFF AND PUSH32 0xD3625F7B5926828151EFE19F7AE655488287357D99EBE67E5FB20522CA739C0B DUP3 PUSH1 0x40 MLOAD PUSH2 0x86C SWAP2 SWAP1 PUSH2 0x39B7 JUMP JUMPDEST PUSH1 0x0 DUP3 DUP3 ADD DUP4 DUP2 LT ISZERO PUSH2 0x739 JUMPI PUSH1 0x0 DUP1 REVERT JUMPDEST PUSH1 0x0 PUSH2 0x12E8 PUSH2 0x22F9 JUMP JUMPDEST PUSH1 0x1 PUSH1 0x1 PUSH1 0xA0 SHL SUB DUP5 AND PUSH1 0x0 SWAP1 DUP2 MSTORE PUSH1 0x20 DUP3 SWAP1 MSTORE PUSH1 0x40 SWAP1 KECCAK256 DUP1 SLOAD SWAP2 SWAP3 POP SWAP1 PUSH2 0xFFFF AND DUP4 ISZERO PUSH2 0x1327 JUMPI DUP2 SLOAD PUSH2 0xFFFF NOT AND PUSH1 0x1 DUP3 OR PUSH2 0xFFFF AND OR DUP3 SSTORE PUSH2 0x1337 JUMP JUMPDEST DUP2 SLOAD PUSH2 0xFFFF NOT AND PUSH2 0xFFFE DUP3 AND OR DUP3 SSTORE JUMPDEST POP POP POP POP POP JUMP JUMPDEST PUSH1 0x0 PUSH2 0x1348 PUSH2 0x1FD9 JUMP JUMPDEST PUSH1 0x1 PUSH1 0x1 PUSH1 0xA0 SHL SUB DUP4 AND PUSH1 0x0 SWAP1 DUP2 MSTORE PUSH1 0x20 DUP3 DUP2 MSTORE PUSH1 0x40 DUP1 DUP4 KECCAK256 DUP8 MLOAD DUP5 MSTORE SWAP1 SWAP2 MSTORE SWAP1 DUP2 SWAP1 KECCAK256 SWAP1 DUP6 ADD MLOAD SWAP2 SWAP3 POP SWAP1 ISZERO PUSH2 0x137E JUMPI PUSH1 0x0 DUP1 REVERT JUMPDEST PUSH2 0x1396 PUSH2 0x1391 PUSH2 0x418 DUP7 PUSH1 0x20 ADD MLOAD PUSH2 0x1144 JUMP JUMPDEST PUSH2 0x2306 JUMP JUMPDEST DUP2 SLOAD PUSH1 0x1 PUSH1 0x1 PUSH1 0x50 SHL SUB NOT AND PUSH1 0x1 PUSH1 0x1 PUSH1 0x50 SHL SUB SWAP2 SWAP1 SWAP2 AND OR DUP2 SSTORE PUSH1 0x80 DUP5 ADD MLOAD PUSH2 0x13BF SWAP1 PUSH2 0x2306 JUMP JUMPDEST DUP2 SLOAD PUSH1 0x1 PUSH1 0x1 PUSH1 0x50 SHL SUB SWAP2 SWAP1 SWAP2 AND PUSH1 0x1 PUSH1 0x50 SHL MUL PUSH10 0xFFFFFFFFFFFFFFFFFFFF PUSH1 0x50 SHL NOT SWAP1 SWAP2 AND OR DUP2 SSTORE PUSH1 0xA0 DUP5 ADD MLOAD PUSH2 0x13F6 SWAP1 PUSH2 0x2306 JUMP JUMPDEST PUSH1 0x1 DUP3 ADD DUP1 SLOAD PUSH1 0x1 PUSH1 0x1 PUSH1 0x50 SHL SUB NOT AND PUSH1 0x1 PUSH1 0x1 PUSH1 0x50 SHL SUB SWAP3 SWAP1 SWAP3 AND SWAP2 SWAP1 SWAP2 OR SWAP1 SSTORE PUSH1 0x60 DUP5 ADD MLOAD PUSH2 0x1426 SWAP1 PUSH2 0x2306 JUMP JUMPDEST DUP2 SLOAD PUSH1 0x1 PUSH1 0x1 PUSH1 0x50 SHL SUB SWAP2 SWAP1 SWAP2 AND PUSH1 0x1 PUSH1 0xA0 SHL MUL PUSH10 0xFFFFFFFFFFFFFFFFFFFF PUSH1 0xA0 SHL NOT SWAP1 SWAP2 AND OR SWAP1 SSTORE POP POP POP JUMP JUMPDEST PUSH1 0x0 DUP1 PUSH2 0x145F PUSH2 0x172D JUMP JUMPDEST PUSH1 0x1 PUSH1 0x1 PUSH1 0xA0 SHL SUB DUP7 AND PUSH1 0x0 SWAP1 DUP2 MSTORE PUSH1 0x20 SWAP2 DUP3 MSTORE PUSH1 0x40 DUP1 DUP3 KECCAK256 PUSH2 0xFFFF DUP9 AND DUP4 MSTORE SWAP1 SWAP3 MSTORE KECCAK256 DUP1 SLOAD SWAP1 SWAP2 POP PUSH2 0x14A2 SWAP1 PUSH1 0x1 PUSH1 0x50 SHL SWAP1 DIV PUSH1 0x1 PUSH1 0x1 PUSH1 0x50 SHL SUB AND DUP5 PUSH2 0x231C JUMP JUMPDEST SWAP2 POP PUSH1 0x0 DUP4 SLT ISZERO PUSH2 0x14D7 JUMPI DUP1 SLOAD PUSH1 0x1 PUSH1 0x1 PUSH1 0x50 SHL SUB AND DUP3 SGT ISZERO PUSH2 0x14D7 JUMPI PUSH1 0x40 MLOAD PUSH3 0x461BCD PUSH1 0xE5 SHL DUP2 MSTORE PUSH1 0x4 ADD PUSH2 0x2E0 SWAP1 PUSH2 0x3B29 JUMP JUMPDEST PUSH2 0x14E3 PUSH2 0x1391 DUP4 PUSH2 0x1196 JUMP JUMPDEST DUP2 SLOAD PUSH1 0x1 PUSH1 0x1 PUSH1 0x50 SHL SUB SWAP2 SWAP1 SWAP2 AND PUSH1 0x1 PUSH1 0x50 SHL MUL PUSH10 0xFFFFFFFFFFFFFFFFFFFF PUSH1 0x50 SHL NOT SWAP1 SWAP2 AND OR SWAP1 SSTORE SWAP4 SWAP3 POP POP POP JUMP JUMPDEST PUSH1 0x0 PUSH2 0x151D PUSH2 0x1FD9 JUMP JUMPDEST DUP5 MLOAD PUSH1 0x1 PUSH1 0x1 PUSH1 0xA0 SHL SUB AND PUSH1 0x0 SWAP1 DUP2 MSTORE PUSH1 0x20 DUP3 DUP2 MSTORE PUSH1 0x40 DUP1 DUP4 KECCAK256 DUP8 DUP5 MSTORE SWAP1 SWAP2 MSTORE SWAP1 KECCAK256 DUP1 SLOAD SWAP2 SWAP3 POP SWAP1 PUSH1 0x1 PUSH1 0xF0 SHL SWAP1 DIV PUSH1 0xFF AND ISZERO PUSH2 0x1559 JUMPI PUSH1 0x0 DUP1 REVERT JUMPDEST DUP3 DUP5 GT ISZERO PUSH2 0x1566 JUMPI PUSH1 0x0 DUP1 REVERT JUMPDEST PUSH1 0x0 PUSH2 0x1580 DUP7 PUSH1 0x40 ADD MLOAD DUP8 PUSH1 0x0 ADD MLOAD PUSH4 0x5F5E100 DUP9 PUSH2 0x2332 JUMP JUMPDEST DUP3 SLOAD PUSH1 0xFF PUSH1 0xF0 SHL NOT AND PUSH1 0x1 PUSH1 0xF0 SHL OR DUP4 SSTORE SWAP1 POP PUSH2 0x159F PUSH2 0x1391 DUP3 PUSH2 0x1196 JUMP JUMPDEST DUP3 PUSH1 0x1 ADD PUSH1 0xA PUSH2 0x100 EXP DUP2 SLOAD DUP2 PUSH1 0x1 PUSH1 0x1 PUSH1 0x50 SHL SUB MUL NOT AND SWAP1 DUP4 PUSH1 0x1 PUSH1 0x1 PUSH1 0x50 SHL SUB AND MUL OR SWAP1 SSTORE POP POP POP POP POP POP POP JUMP JUMPDEST PUSH1 0x0 PUSH2 0x15D9 PUSH2 0x22F9 JUMP JUMPDEST SWAP1 POP PUSH2 0x15EB PUSH1 0xC0 DUP4 ADD PUSH1 0xA0 DUP5 ADD PUSH2 0x3870 JUMP JUMPDEST PUSH1 0xFF AND PUSH1 0x64 SGT ISZERO PUSH2 0x15FB JUMPI PUSH1 0x0 DUP1 REVERT JUMPDEST PUSH1 0x64 PUSH2 0x160D PUSH1 0xE0 DUP5 ADD PUSH1 0xC0 DUP6 ADD PUSH2 0x3870 JUMP JUMPDEST PUSH1 0xFF AND SGT ISZERO PUSH2 0x161B JUMPI PUSH1 0x0 DUP1 REVERT JUMPDEST PUSH2 0x162C PUSH2 0x100 DUP4 ADD PUSH1 0xE0 DUP5 ADD PUSH2 0x3870 JUMP JUMPDEST PUSH1 0xFF AND PUSH2 0x1638 JUMPI PUSH1 0x0 DUP1 REVERT JUMPDEST PUSH2 0x164A PUSH2 0x120 DUP4 ADD PUSH2 0x100 DUP5 ADD PUSH2 0x375E JUMP JUMPDEST PUSH2 0xFFFF AND PUSH2 0x165E PUSH1 0x80 DUP5 ADD PUSH1 0x60 DUP6 ADD PUSH2 0x375E JUMP JUMPDEST PUSH2 0xFFFF AND LT PUSH2 0x166C JUMPI PUSH1 0x0 DUP1 REVERT JUMPDEST PUSH2 0x167E PUSH2 0x140 DUP4 ADD PUSH2 0x120 DUP5 ADD PUSH2 0x375E JUMP JUMPDEST PUSH2 0xFFFF AND PUSH2 0x1692 PUSH1 0x40 DUP5 ADD PUSH1 0x20 DUP6 ADD PUSH2 0x375E JUMP JUMPDEST PUSH2 0xFFFF AND EQ ISZERO DUP1 ISZERO PUSH2 0x16CC JUMPI POP PUSH2 0x16B1 PUSH2 0x160 DUP4 ADD PUSH2 0x140 DUP5 ADD PUSH2 0x375E JUMP JUMPDEST PUSH2 0xFFFF AND PUSH2 0x16C5 PUSH1 0x40 DUP5 ADD PUSH1 0x20 DUP6 ADD PUSH2 0x375E JUMP JUMPDEST PUSH2 0xFFFF AND EQ ISZERO JUMPDEST DUP1 ISZERO PUSH2 0x1700 JUMPI POP PUSH2 0x16E5 PUSH2 0x180 DUP4 ADD PUSH2 0x160 DUP5 ADD PUSH2 0x375E JUMP JUMPDEST PUSH2 0xFFFF AND PUSH2 0x16F9 PUSH1 0x40 DUP5 ADD PUSH1 0x20 DUP6 ADD PUSH2 0x375E JUMP JUMPDEST PUSH2 0xFFFF AND EQ ISZERO JUMPDEST PUSH2 0x1709 JUMPI PUSH1 0x0 DUP1 REVERT JUMPDEST PUSH1 0x1 PUSH1 0x1 PUSH1 0xA0 SHL SUB DUP4 AND PUSH1 0x0 SWAP1 DUP2 MSTORE PUSH1 0x20 DUP3 SWAP1 MSTORE PUSH1 0x40 SWAP1 KECCAK256 DUP3 SWAP1 PUSH2 0x1337 DUP3 DUP3 PUSH2 0x3E95 JUMP JUMPDEST PUSH1 0x0 DUP1 PUSH2 0xDF1 PUSH1 0x17 PUSH2 0x217E JUMP JUMPDEST PUSH2 0x1742 PUSH2 0x3352 JUMP JUMPDEST PUSH2 0x174B DUP3 PUSH2 0x1E0E JUMP JUMPDEST SWAP1 POP PUSH2 0xE6D DUP2 PUSH1 0x40 ADD MLOAD PUSH2 0xFFFF AND PUSH2 0x23F1 JUMP JUMPDEST PUSH1 0x0 DUP1 PUSH1 0x0 PUSH2 0x1775 DUP7 PUSH1 0x40 ADD MLOAD PUSH2 0xFFFF AND DUP6 PUSH2 0x197F JUMP JUMPDEST SWAP1 POP PUSH1 0x0 PUSH2 0x17A2 PUSH2 0x926 PUSH2 0x178C DUP9 PUSH1 0x80 ADD MLOAD PUSH2 0x11B6 JUMP JUMPDEST PUSH1 0x20 DUP10 ADD MLOAD PUSH2 0x179C SWAP1 DUP7 SWAP1 PUSH2 0x1157 JUMP JUMPDEST SWAP1 PUSH2 0x2407 JUMP JUMPDEST SWAP1 POP PUSH1 0x0 PUSH2 0x17B7 DUP9 PUSH1 0x40 ADD MLOAD PUSH2 0xFFFF AND PUSH2 0x189E JUMP JUMPDEST SWAP1 POP PUSH1 0x0 PUSH2 0x17CC DUP10 PUSH1 0x40 ADD MLOAD PUSH2 0xFFFF AND PUSH2 0x241D JUMP JUMPDEST SWAP1 POP PUSH2 0x17D8 DUP3 DUP5 PUSH2 0x18B1 JUMP JUMPDEST SWAP6 POP PUSH2 0x17EE PUSH2 0x17E7 DUP6 DUP6 PUSH2 0x2430 JUMP JUMPDEST DUP3 SWAP1 PUSH2 0x18B1 JUMP JUMPDEST SWAP5 POP POP POP POP POP SWAP4 POP SWAP4 SWAP2 POP POP JUMP JUMPDEST PUSH1 0x0 DUP1 PUSH2 0x1808 CALLER PUSH2 0xE49 JUMP JUMPDEST SWAP1 POP PUSH2 0x1815 DUP2 PUSH1 0x1 PUSH2 0x1AC2 JUMP JUMPDEST PUSH2 0x1831 JUMPI PUSH1 0x40 MLOAD PUSH3 0x461BCD PUSH1 0xE5 SHL DUP2 MSTORE PUSH1 0x4 ADD PUSH2 0x2E0 SWAP1 PUSH2 0x39F9 JUMP JUMPDEST DUP1 PUSH1 0x40 ADD MLOAD PUSH2 0xFFFF AND DUP7 PUSH2 0xFFFF AND EQ ISZERO PUSH2 0x184A JUMPI PUSH1 0x0 DUP1 REVERT JUMPDEST PUSH2 0x1856 CALLER DUP8 DUP8 DUP8 PUSH2 0x19DC JUMP JUMPDEST PUSH2 0x1869 DUP7 DUP7 DUP7 DUP7 DUP6 PUSH2 0x100 ADD MLOAD TIMESTAMP PUSH2 0x245B JUMP JUMPDEST SWAP2 POP PUSH1 0x0 DUP5 SGT DUP1 ISZERO PUSH2 0x1879 JUMPI POP DUP2 ISZERO JUMPDEST ISZERO PUSH2 0x1895 JUMPI PUSH2 0x160 DUP2 ADD MLOAD PUSH2 0x1892 SWAP1 PUSH2 0x926 SWAP1 DUP7 PUSH2 0x1157 JUMP JUMPDEST SWAP2 POP JUMPDEST POP SWAP5 SWAP4 POP POP POP POP JUMP JUMPDEST PUSH2 0x18A6 PUSH2 0x33F9 JUMP JUMPDEST PUSH2 0xDF1 DUP3 PUSH1 0x0 PUSH2 0x259D JUMP JUMPDEST PUSH1 0x0 PUSH4 0x5F5E100 DUP4 PUSH1 0x40 ADD MLOAD EQ ISZERO PUSH2 0x18CA JUMPI POP DUP1 PUSH2 0xDF1 JUMP JUMPDEST PUSH2 0x739 PUSH4 0x5F5E100 PUSH2 0x1188 DUP6 PUSH1 0x40 ADD MLOAD DUP6 PUSH2 0x20FF SWAP1 SWAP2 SWAP1 PUSH4 0xFFFFFFFF AND JUMP JUMPDEST PUSH1 0x0 DUP1 PUSH1 0x2 DUP7 PUSH1 0x60 ADD MLOAD PUSH1 0x5 DUP2 GT ISZERO PUSH2 0x18FE JUMPI INVALID JUMPDEST EQ ISZERO PUSH2 0x1916 JUMPI PUSH2 0x190F DUP7 DUP6 DUP6 PUSH2 0x264B JUMP JUMPDEST SWAP1 POP PUSH2 0x1973 JUMP JUMPDEST PUSH1 0x0 PUSH2 0x1921 DUP7 PUSH2 0x241D JUMP JUMPDEST SWAP1 POP PUSH1 0x5 DUP8 PUSH1 0x60 ADD MLOAD PUSH1 0x5 DUP2 GT ISZERO PUSH2 0x1935 JUMPI INVALID JUMPDEST EQ ISZERO PUSH2 0x194D JUMPI PUSH2 0x1946 DUP2 DUP7 DUP7 PUSH2 0x2712 JUMP JUMPDEST SWAP2 POP PUSH2 0x1971 JUMP JUMPDEST PUSH1 0x1 DUP8 PUSH1 0x60 ADD MLOAD PUSH1 0x5 DUP2 GT ISZERO PUSH2 0x195F JUMPI INVALID JUMPDEST EQ ISZERO PUSH2 0x116 JUMPI PUSH2 0x1946 DUP8 DUP3 DUP8 DUP8 PUSH2 0x27C3 JUMP JUMPDEST POP JUMPDEST PUSH2 0x1892 PUSH2 0x926 DUP3 PUSH2 0x11B6 JUMP JUMPDEST PUSH2 0x1987 PUSH2 0x33CF JUMP JUMPDEST PUSH1 0x0 DUP1 PUSH2 0x1994 DUP6 DUP6 PUSH2 0x1FE6 JUMP JUMPDEST SWAP2 POP SWAP2 POP DUP2 PUSH1 0x0 EQ ISZERO PUSH2 0x19B2 JUMPI PUSH2 0x19AA DUP6 PUSH2 0x28C1 JUMP JUMPDEST SWAP2 SWAP4 POP SWAP1 SWAP2 POP POP JUMPDEST PUSH1 0x40 DUP1 MLOAD PUSH1 0x60 DUP2 ADD DUP3 MSTORE PUSH1 0x0 DUP2 MSTORE PUSH1 0x20 DUP2 ADD SWAP4 SWAP1 SWAP4 MSTORE PUSH1 0xFF SWAP1 SWAP2 AND PUSH1 0xA EXP SWAP1 DUP3 ADD MSTORE SWAP1 POP SWAP3 SWAP2 POP POP JUMP JUMPDEST PUSH2 0x19E7 DUP5 DUP5 DUP4 PUSH2 0x1454 JUMP JUMPDEST POP PUSH1 0x0 PUSH2 0x19F2 PUSH2 0x11A9 JUMP JUMPDEST PUSH1 0x1 PUSH1 0x1 PUSH1 0xA0 SHL SUB DUP7 AND PUSH1 0x0 SWAP1 DUP2 MSTORE PUSH1 0x20 SWAP2 DUP3 MSTORE PUSH1 0x40 DUP1 DUP3 KECCAK256 DUP7 DUP4 MSTORE DUP4 MSTORE DUP1 DUP3 KECCAK256 PUSH2 0xFFFF DUP9 AND DUP4 MSTORE SWAP1 SWAP3 MSTORE KECCAK256 DUP1 SLOAD SWAP1 SWAP2 POP PUSH2 0x1A3E SWAP1 PUSH2 0x1391 SWAP1 PUSH2 0x418 SWAP1 PUSH1 0x1 PUSH1 0x1 PUSH1 0x50 SHL SUB AND DUP6 PUSH2 0x231C JUMP JUMPDEST DUP2 SLOAD PUSH1 0x1 PUSH1 0x1 PUSH1 0x50 SHL SUB NOT AND PUSH1 0x1 PUSH1 0x1 PUSH1 0x50 SHL SUB SWAP2 SWAP1 SWAP2 AND OR SWAP1 SSTORE POP POP POP POP JUMP JUMPDEST PUSH1 0x0 PUSH2 0x1A6B DUP5 DUP4 PUSH2 0x18B1 JUMP JUMPDEST SWAP1 POP PUSH1 0x5 DUP5 PUSH1 0x60 ADD MLOAD PUSH1 0x5 DUP2 GT ISZERO PUSH2 0x1A7F JUMPI INVALID JUMPDEST EQ ISZERO PUSH2 0x739 JUMPI PUSH1 0x0 PUSH2 0x1A94 DUP5 PUSH2 0xFFFF AND PUSH2 0x241D JUMP JUMPDEST SWAP1 POP PUSH2 0x1AA4 DUP2 PUSH1 0x0 ADD MLOAD DUP4 PUSH2 0x2944 JUMP JUMPDEST SWAP6 SWAP5 POP POP POP POP POP JUMP JUMPDEST PUSH1 0x0 DUP3 DUP3 GT ISZERO PUSH2 0x1ABC JUMPI PUSH1 0x0 DUP1 REVERT JUMPDEST POP SWAP1 SUB SWAP1 JUMP JUMPDEST PUSH1 0x20 SWAP2 SWAP1 SWAP2 ADD MLOAD DUP2 AND PUSH2 0xFFFF SWAP1 DUP2 AND SWAP2 AND EQ SWAP1 JUMP JUMPDEST PUSH1 0x0 PUSH4 0x5F5E100 DUP4 PUSH1 0x40 ADD MLOAD EQ ISZERO PUSH2 0x1AF0 JUMPI POP DUP1 PUSH2 0xDF1 JUMP JUMPDEST PUSH1 0x40 DUP4 ADD MLOAD PUSH2 0x739 SWAP1 PUSH2 0x1188 DUP5 PUSH4 0x5F5E100 PUSH2 0x20FF JUMP JUMPDEST PUSH1 0x0 DUP5 PUSH2 0x1B16 JUMPI POP PUSH1 0x0 PUSH2 0x1D02 JUMP JUMPDEST PUSH1 0x0 PUSH2 0x1B29 DUP9 PUSH1 0x40 ADD MLOAD PUSH2 0xFFFF AND PUSH2 0x189E JUMP JUMPDEST SWAP1 POP PUSH1 0x0 PUSH2 0x1B46 DUP10 PUSH1 0x40 ADD MLOAD DUP9 DUP5 PUSH2 0x1A5F SWAP1 SWAP3 SWAP2 SWAP1 PUSH4 0xFFFFFFFF AND JUMP JUMPDEST SWAP1 POP PUSH1 0x0 PUSH2 0x1B53 DUP3 PUSH2 0x1196 JUMP JUMPDEST DUP11 MLOAD DUP5 MLOAD PUSH1 0x40 MLOAD PUSH4 0x70A08231 PUSH1 0xE0 SHL DUP2 MSTORE SWAP3 SWAP4 POP SWAP1 SWAP2 PUSH1 0x0 SWAP1 PUSH1 0x1 PUSH1 0x1 PUSH1 0xA0 SHL SUB DUP4 AND SWAP1 PUSH4 0x70A08231 SWAP1 PUSH2 0x1B8B SWAP1 DUP7 SWAP1 PUSH1 0x4 ADD PUSH2 0x3914 JUMP JUMPDEST PUSH1 0x20 PUSH1 0x40 MLOAD DUP1 DUP4 SUB DUP2 DUP7 DUP1 EXTCODESIZE ISZERO DUP1 ISZERO PUSH2 0x1BA3 JUMPI PUSH1 0x0 DUP1 REVERT JUMPDEST POP GAS STATICCALL ISZERO DUP1 ISZERO PUSH2 0x1BB7 JUMPI RETURNDATASIZE PUSH1 0x0 DUP1 RETURNDATACOPY RETURNDATASIZE PUSH1 0x0 REVERT JUMPDEST POP POP POP POP PUSH1 0x40 MLOAD RETURNDATASIZE PUSH1 0x1F NOT PUSH1 0x1F DUP3 ADD AND DUP3 ADD DUP1 PUSH1 0x40 MSTORE POP DUP2 ADD SWAP1 PUSH2 0x1BDB SWAP2 SWAP1 PUSH2 0x3746 JUMP JUMPDEST SWAP1 POP PUSH2 0x1BE8 DUP3 DUP5 DUP7 PUSH2 0x29CA JUMP JUMPDEST PUSH1 0x40 MLOAD PUSH4 0x70A08231 PUSH1 0xE0 SHL DUP2 MSTORE PUSH1 0x0 SWAP1 PUSH1 0x1 PUSH1 0x1 PUSH1 0xA0 SHL SUB DUP5 AND SWAP1 PUSH4 0x70A08231 SWAP1 PUSH2 0x1C17 SWAP1 DUP8 SWAP1 PUSH1 0x4 ADD PUSH2 0x3914 JUMP JUMPDEST PUSH1 0x20 PUSH1 0x40 MLOAD DUP1 DUP4 SUB DUP2 DUP7 DUP1 EXTCODESIZE ISZERO DUP1 ISZERO PUSH2 0x1C2F JUMPI PUSH1 0x0 DUP1 REVERT JUMPDEST POP GAS STATICCALL ISZERO DUP1 ISZERO PUSH2 0x1C43 JUMPI RETURNDATASIZE PUSH1 0x0 DUP1 RETURNDATACOPY RETURNDATASIZE PUSH1 0x0 REVERT JUMPDEST POP POP POP POP PUSH1 0x40 MLOAD RETURNDATASIZE PUSH1 0x1F NOT PUSH1 0x1F DUP3 ADD AND DUP3 ADD DUP1 PUSH1 0x40 MSTORE POP DUP2 ADD SWAP1 PUSH2 0x1C67 SWAP2 SWAP1 PUSH2 0x3746 JUMP JUMPDEST SWAP1 POP PUSH1 0x1 PUSH1 0x1 PUSH1 0xA0 SHL SUB DUP5 AND PUSH4 0xDC6679C5 DUP15 PUSH2 0x1C83 DUP5 DUP7 PUSH2 0x1AAD JUMP JUMPDEST DUP15 DUP15 DUP15 PUSH1 0x40 MLOAD DUP7 PUSH4 0xFFFFFFFF AND PUSH1 0xE0 SHL DUP2 MSTORE PUSH1 0x4 ADD PUSH2 0x1CA6 SWAP6 SWAP5 SWAP4 SWAP3 SWAP2 SWAP1 PUSH2 0x394B JUMP JUMPDEST PUSH1 0x20 PUSH1 0x40 MLOAD DUP1 DUP4 SUB DUP2 PUSH1 0x0 DUP8 DUP1 EXTCODESIZE ISZERO DUP1 ISZERO PUSH2 0x1CC0 JUMPI PUSH1 0x0 DUP1 REVERT JUMPDEST POP GAS CALL ISZERO DUP1 ISZERO PUSH2 0x1CD4 JUMPI RETURNDATASIZE PUSH1 0x0 DUP1 RETURNDATACOPY RETURNDATASIZE PUSH1 0x0 REVERT JUMPDEST POP POP POP POP PUSH1 0x40 MLOAD RETURNDATASIZE PUSH1 0x1F NOT PUSH1 0x1F DUP3 ADD AND DUP3 ADD DUP1 PUSH1 0x40 MSTORE POP DUP2 ADD SWAP1 PUSH2 0x1CF8 SWAP2 SWAP1 PUSH2 0x3746 JUMP JUMPDEST SWAP8 POP POP POP POP POP POP POP POP JUMPDEST SWAP7 SWAP6 POP POP POP POP POP POP JUMP JUMPDEST PUSH1 0x0 PUSH2 0x1D1A DUP6 DUP6 DUP6 DUP6 PUSH2 0x2A41 JUMP JUMPDEST POP SWAP1 POP DUP1 DUP6 PUSH1 0xA0 ADD MLOAD SGT ISZERO PUSH2 0x1337 JUMPI PUSH1 0x40 MLOAD PUSH3 0x461BCD PUSH1 0xE5 SHL DUP2 MSTORE PUSH1 0x4 ADD PUSH2 0x2E0 SWAP1 PUSH2 0x3BDE JUMP JUMPDEST PUSH1 0x0 DUP1 PUSH1 0x2 PUSH1 0xA SLOAD EQ ISZERO PUSH2 0x1D67 JUMPI PUSH1 0x40 MLOAD PUSH3 0x461BCD PUSH1 0xE5 SHL DUP2 MSTORE PUSH1 0x4 ADD PUSH2 0x2E0 SWAP1 PUSH2 0x3C15 JUMP JUMPDEST PUSH1 0x2 PUSH1 0xA SSTORE PUSH2 0x1D78 DUP8 PUSH2 0x100 PUSH2 0x1AC2 JUMP JUMPDEST ISZERO PUSH2 0x1D83 JUMPI PUSH1 0x1 PUSH1 0xA SSTORE JUMPDEST PUSH1 0x0 PUSH2 0x1D93 DUP9 PUSH1 0x0 ADD MLOAD DUP9 PUSH2 0xF36 JUMP JUMPDEST DUP9 MLOAD SWAP1 SWAP2 POP PUSH1 0x0 SWAP1 PUSH2 0x1DAA SWAP1 DUP11 SWAP1 DUP10 DUP12 DUP11 DUP11 PUSH2 0x2AAA JUMP JUMPDEST SWAP1 POP PUSH1 0x0 DUP2 SGT PUSH2 0x1DB9 JUMPI PUSH1 0x0 DUP1 REVERT JUMPDEST PUSH1 0x80 DUP3 ADD MLOAD PUSH2 0x1DC8 SWAP1 DUP3 PUSH2 0x12CC JUMP JUMPDEST PUSH1 0x80 DUP4 ADD MSTORE PUSH1 0xA0 DUP3 ADD MLOAD PUSH2 0x1DDC SWAP1 DUP9 PUSH2 0x1AAD JUMP JUMPDEST PUSH1 0xA0 DUP4 ADD MSTORE DUP9 MLOAD PUSH2 0x1DEE SWAP1 DUP4 SWAP1 PUSH2 0x133E JUMP JUMPDEST PUSH2 0x1DF9 DUP10 DUP4 DUP11 PUSH2 0x175E JUMP JUMPDEST PUSH1 0x1 PUSH1 0xA SSTORE SWAP1 SWAP11 SWAP1 SWAP10 POP SWAP8 POP POP POP POP POP POP POP POP JUMP JUMPDEST PUSH2 0x1E16 PUSH2 0x3352 JUMP JUMPDEST PUSH1 0x0 PUSH2 0x1E20 PUSH2 0x22F9 JUMP JUMPDEST PUSH1 0x1 PUSH1 0x1 PUSH1 0xA0 SHL SUB DUP5 AND PUSH1 0x0 DUP2 DUP2 MSTORE PUSH1 0x20 DUP4 DUP2 MSTORE PUSH1 0x40 SWAP2 DUP3 SWAP1 KECCAK256 SWAP3 DUP7 MSTORE DUP3 SLOAD PUSH2 0xFFFF DUP1 DUP3 AND SWAP3 DUP9 ADD SWAP3 SWAP1 SWAP3 MSTORE PUSH3 0x10000 DUP2 DIV SWAP1 SWAP2 AND SWAP2 DUP7 ADD SWAP2 SWAP1 SWAP2 MSTORE SWAP2 SWAP3 POP SWAP1 PUSH2 0x1E81 SWAP1 PUSH4 0xFFFFFFFF PUSH5 0x100000000 SWAP1 SWAP2 DIV DUP2 AND SWAP1 PUSH4 0x5F5E100 SWAP1 PUSH2 0x20FF AND JUMP JUMPDEST PUSH1 0x60 DUP5 ADD MSTORE DUP1 SLOAD PUSH2 0x1E9F SWAP1 PUSH1 0x1 PUSH1 0x50 SHL SWAP1 DIV PUSH1 0xFF AND PUSH3 0x7A120 PUSH2 0x2C95 JUMP JUMPDEST PUSH1 0x80 DUP5 ADD MSTORE DUP1 SLOAD PUSH2 0x1EC3 SWAP1 PUSH9 0x10000000000000000 SWAP1 DIV PUSH2 0xFFFF AND PUSH3 0x186A0 PUSH2 0x2C95 JUMP JUMPDEST PUSH1 0xA0 DUP5 ADD MSTORE DUP1 SLOAD PUSH2 0x1EE2 SWAP1 PUSH1 0x1 PUSH1 0x70 SHL SWAP1 DIV PUSH2 0xFFFF AND PUSH3 0x186A0 PUSH2 0x2C95 JUMP JUMPDEST PUSH2 0x120 DUP5 ADD MSTORE DUP1 SLOAD PUSH1 0x64 SWAP1 PUSH1 0xFF PUSH1 0x1 PUSH1 0x58 SHL SWAP1 SWAP2 DIV AND PUSH4 0x3B9ACA00 MUL SDIV PUSH1 0xC0 DUP5 ADD MSTORE DUP1 SLOAD PUSH1 0x1 PUSH1 0x60 SHL DUP2 DIV PUSH1 0xFF SWAP1 DUP2 AND PUSH1 0xE0 DUP7 ADD MSTORE PUSH1 0x1 PUSH1 0x68 SHL SWAP1 SWAP2 DIV AND PUSH2 0x100 DUP5 ADD MSTORE PUSH1 0x40 DUP1 MLOAD PUSH1 0x60 DUP2 ADD SWAP2 DUP3 SWAP1 MSTORE SWAP1 PUSH1 0x1 DUP4 ADD SWAP1 PUSH1 0x3 SWAP1 DUP3 PUSH1 0x0 DUP6 JUMPDEST DUP3 DUP3 SWAP1 SLOAD SWAP1 PUSH2 0x100 EXP SWAP1 DIV PUSH2 0xFFFF AND PUSH2 0xFFFF AND DUP2 MSTORE PUSH1 0x20 ADD SWAP1 PUSH1 0x2 ADD SWAP1 PUSH1 0x20 DUP3 PUSH1 0x1 ADD DIV SWAP3 DUP4 ADD SWAP3 PUSH1 0x1 SUB DUP3 MUL SWAP2 POP DUP1 DUP5 GT PUSH2 0x1F40 JUMPI SWAP1 POP POP POP POP POP POP DUP4 PUSH2 0x140 ADD DUP2 SWAP1 MSTORE POP POP POP SWAP2 SWAP1 POP JUMP JUMPDEST PUSH2 0x1F95 PUSH2 0x33CF JUMP JUMPDEST PUSH1 0x0 DUP1 PUSH1 0x0 PUSH2 0x1FA3 DUP6 PUSH2 0x202F JUMP JUMPDEST PUSH1 0x40 DUP1 MLOAD PUSH1 0x60 DUP2 ADD DUP3 MSTORE PUSH1 0x1 PUSH1 0x1 PUSH1 0xA0 SHL SUB SWAP1 SWAP4 AND DUP4 MSTORE PUSH1 0x20 DUP4 ADD SWAP4 SWAP1 SWAP4 MSTORE PUSH1 0xFF AND PUSH1 0xA EXP SWAP2 DUP2 ADD SWAP2 SWAP1 SWAP2 MSTORE SWAP4 POP POP POP POP SWAP2 SWAP1 POP JUMP JUMPDEST PUSH1 0x0 DUP1 PUSH2 0xDF1 PUSH1 0x15 PUSH2 0x217E JUMP JUMPDEST PUSH1 0x0 DUP1 PUSH1 0x0 PUSH2 0x1FF3 PUSH2 0x20F2 JUMP JUMPDEST PUSH1 0x0 SWAP6 DUP7 MSTORE PUSH1 0x20 SWAP1 DUP2 MSTORE PUSH1 0x40 DUP1 DUP8 KECCAK256 SWAP6 DUP8 MSTORE SWAP5 SWAP1 MSTORE POP POP POP SWAP1 KECCAK256 SLOAD PUSH6 0x10000000000 DUP2 DIV PUSH1 0x1 PUSH1 0x1 PUSH1 0x80 SHL SUB AND SWAP2 PUSH1 0x1 PUSH1 0xA8 SHL SWAP1 SWAP2 DIV PUSH1 0xFF AND SWAP1 JUMP JUMPDEST PUSH1 0x0 DUP1 PUSH1 0x0 DUP1 PUSH1 0x0 PUSH2 0x2040 DUP7 PUSH2 0x2CBC JUMP JUMPDEST SWAP1 SWAP3 POP SWAP1 POP PUSH1 0x0 PUSH1 0x1 PUSH1 0x1 PUSH1 0xA0 SHL SUB DUP4 AND PUSH2 0x2065 JUMPI POP PUSH1 0x0 SWAP1 POP PUSH5 0x2540BE400 PUSH2 0x20E7 JUMP JUMPDEST DUP3 PUSH1 0x1 PUSH1 0x1 PUSH1 0xA0 SHL SUB AND PUSH4 0x1EE10833 PUSH1 0x40 MLOAD DUP2 PUSH4 0xFFFFFFFF AND PUSH1 0xE0 SHL DUP2 MSTORE PUSH1 0x4 ADD PUSH1 0x20 PUSH1 0x40 MLOAD DUP1 DUP4 SUB DUP2 PUSH1 0x0 DUP8 DUP1 EXTCODESIZE ISZERO DUP1 ISZERO PUSH2 0x20A0 JUMPI PUSH1 0x0 DUP1 REVERT JUMPDEST POP GAS CALL ISZERO DUP1 ISZERO PUSH2 0x20B4 JUMPI RETURNDATASIZE PUSH1 0x0 DUP1 RETURNDATACOPY RETURNDATASIZE PUSH1 0x0 REVERT JUMPDEST POP POP POP POP PUSH1 0x40 MLOAD RETURNDATASIZE PUSH1 0x1F NOT PUSH1 0x1F DUP3 ADD AND DUP3 ADD DUP1 PUSH1 0x40 MSTORE POP DUP2 ADD SWAP1 PUSH2 0x20D8 SWAP2 SWAP1 PUSH2 0x3746 JUMP JUMPDEST SWAP1 POP PUSH1 0x0 DUP2 SGT PUSH2 0x20E7 JUMPI PUSH1 0x0 DUP1 REVERT JUMPDEST SWAP7 SWAP2 SWAP6 POP SWAP4 POP SWAP2 POP POP JUMP JUMPDEST PUSH1 0x0 DUP1 PUSH2 0xDF1 PUSH1 0x8 PUSH2 0x217E JUMP JUMPDEST DUP2 DUP2 MUL PUSH1 0x0 NOT DUP4 EQ ISZERO PUSH2 0x212F JUMPI DUP2 ISZERO DUP1 PUSH2 0x2121 JUMPI POP DUP3 DUP3 DUP3 DUP2 PUSH2 0x211E JUMPI INVALID JUMPDEST SDIV EQ JUMPDEST PUSH2 0x212A JUMPI PUSH1 0x0 DUP1 REVERT JUMPDEST PUSH2 0xDF1 JUMP JUMPDEST DUP3 ISZERO DUP1 PUSH2 0x2144 JUMPI POP DUP2 DUP4 DUP3 DUP2 PUSH2 0x2141 JUMPI INVALID JUMPDEST SDIV EQ JUMPDEST PUSH2 0xDF1 JUMPI PUSH1 0x0 DUP1 REVERT JUMPDEST PUSH1 0x0 DUP2 PUSH1 0x0 NOT EQ DUP1 ISZERO PUSH2 0x2163 JUMPI POP PUSH1 0x1 PUSH1 0xFF SHL DUP4 EQ JUMPDEST ISZERO PUSH2 0x216D JUMPI PUSH1 0x0 DUP1 REVERT JUMPDEST DUP2 DUP4 DUP2 PUSH2 0x2176 JUMPI INVALID JUMPDEST SDIV SWAP4 SWAP3 POP POP POP JUMP JUMPDEST PUSH1 0x0 PUSH3 0xF4240 DUP3 PUSH1 0x18 DUP2 GT ISZERO PUSH2 0x2190 JUMPI INVALID JUMPDEST ADD SWAP3 SWAP2 POP POP JUMP JUMPDEST PUSH1 0x0 DUP1 PUSH2 0xDF1 PUSH1 0x6 PUSH2 0x217E JUMP JUMPDEST PUSH1 0x8 DUP2 SWAP1 SHR PUSH1 0xFF SWAP1 SWAP2 AND SHL SWAP1 JUMP JUMPDEST PUSH1 0x0 PUSH2 0x21BC PUSH2 0x2197 JUMP JUMPDEST PUSH1 0x1 PUSH1 0x1 PUSH1 0xA0 SHL SUB DUP9 AND PUSH1 0x0 SWAP1 DUP2 MSTORE PUSH1 0x20 DUP3 DUP2 MSTORE PUSH1 0x40 DUP1 DUP4 KECCAK256 DUP11 DUP5 MSTORE SWAP1 SWAP2 MSTORE SWAP1 KECCAK256 SWAP1 SWAP2 POP PUSH11 0x7FFFFFFFFFFFFFFFFFFFFF NOT DUP7 SLT DUP1 ISZERO SWAP1 PUSH2 0x2207 JUMPI POP PUSH11 0x7FFFFFFFFFFFFFFFFFFFFF DUP7 SGT ISZERO JUMPDEST PUSH2 0x2210 JUMPI PUSH1 0x0 DUP1 REVERT JUMPDEST PUSH1 0x0 DUP6 SLT ISZERO DUP1 ISZERO PUSH2 0x2228 JUMPI POP PUSH1 0x1 PUSH1 0x1 PUSH1 0x50 SHL SUB DUP6 SGT ISZERO JUMPDEST PUSH2 0x2231 JUMPI PUSH1 0x0 DUP1 REVERT JUMPDEST DUP4 PUSH2 0x2271 JUMPI PUSH7 0xFFFFFFFFFFFFFF DUP4 GT ISZERO PUSH2 0x224A JUMPI PUSH1 0x0 DUP1 REVERT JUMPDEST DUP1 SLOAD PUSH7 0xFFFFFFFFFFFFFF PUSH1 0x70 SHL NOT AND PUSH1 0x1 PUSH1 0x70 SHL PUSH7 0xFFFFFFFFFFFFFF DUP6 AND MUL OR DUP2 SSTORE PUSH2 0x228B JUMP JUMPDEST DUP1 SLOAD PUSH1 0x1 PUSH1 0x50 SHL SWAP1 DIV PUSH4 0xFFFFFFFF AND DUP5 EQ PUSH2 0x228B JUMPI PUSH1 0x0 DUP1 REVERT JUMPDEST DUP1 SLOAD PUSH1 0xA SWAP7 SWAP1 SWAP7 SIGNEXTEND PUSH11 0xFFFFFFFFFFFFFFFFFFFFFF AND PUSH1 0x1 PUSH1 0xA8 SHL MUL PUSH1 0x1 PUSH1 0x1 PUSH1 0xA8 SHL SUB PUSH1 0x1 PUSH1 0x1 PUSH1 0x50 SHL SUB SWAP1 SWAP7 AND PUSH1 0x1 PUSH1 0x1 PUSH1 0x50 SHL SUB NOT PUSH4 0xFFFFFFFF SWAP1 SWAP7 AND PUSH1 0x1 PUSH1 0x50 SHL MUL PUSH4 0xFFFFFFFF PUSH1 0x50 SHL NOT SWAP1 SWAP9 AND SWAP8 SWAP1 SWAP8 OR SWAP5 SWAP1 SWAP5 AND SWAP6 SWAP1 SWAP6 OR SWAP4 SWAP1 SWAP4 AND SWAP2 SWAP1 SWAP2 OR SWAP1 SWAP3 SSTORE POP POP POP POP JUMP JUMPDEST PUSH1 0x0 DUP1 PUSH2 0xDF1 PUSH1 0x14 PUSH2 0x217E JUMP JUMPDEST PUSH1 0x0 PUSH1 0x1 PUSH1 0x1 PUSH1 0x50 SHL SUB DUP3 GT ISZERO PUSH2 0x11A5 JUMPI PUSH1 0x0 DUP1 REVERT JUMPDEST DUP1 DUP3 SUB DUP3 DUP2 SGT ISZERO PUSH1 0x0 DUP4 SLT ISZERO EQ PUSH2 0xDF1 JUMPI PUSH1 0x0 DUP1 REVERT JUMPDEST PUSH1 0x0 DUP1 PUSH2 0x2342 DUP7 PUSH2 0xFFFF AND PUSH2 0x241D JUMP JUMPDEST SWAP1 POP DUP1 PUSH1 0x40 ADD MLOAD PUSH1 0x0 EQ ISZERO PUSH2 0x2361 JUMPI PUSH2 0x235E DUP7 PUSH2 0xFFFF AND PUSH2 0x189E JUMP JUMPDEST SWAP1 POP JUMPDEST PUSH2 0x1892 PUSH2 0x23EA DUP7 PUSH1 0x1 PUSH1 0x1 PUSH1 0xA0 SHL SUB AND PUSH4 0xBC3B9018 DUP8 DUP8 PUSH1 0x40 MLOAD DUP4 PUSH4 0xFFFFFFFF AND PUSH1 0xE0 SHL DUP2 MSTORE PUSH1 0x4 ADD PUSH2 0x2395 SWAP3 SWAP2 SWAP1 PUSH2 0x39C0 JUMP JUMPDEST PUSH1 0x20 PUSH1 0x40 MLOAD DUP1 DUP4 SUB DUP2 DUP7 DUP1 EXTCODESIZE ISZERO DUP1 ISZERO PUSH2 0x23AD JUMPI PUSH1 0x0 DUP1 REVERT JUMPDEST POP GAS STATICCALL ISZERO DUP1 ISZERO PUSH2 0x23C1 JUMPI RETURNDATASIZE PUSH1 0x0 DUP1 RETURNDATACOPY RETURNDATASIZE PUSH1 0x0 REVERT JUMPDEST POP POP POP POP PUSH1 0x40 MLOAD RETURNDATASIZE PUSH1 0x1F NOT PUSH1 0x1F DUP3 ADD AND DUP3 ADD DUP1 PUSH1 0x40 MSTORE POP DUP2 ADD SWAP1 PUSH2 0x23E5 SWAP2 SWAP1 PUSH2 0x3746 JUMP JUMPDEST PUSH2 0x11B6 JUMP JUMPDEST DUP3 SWAP1 PUSH2 0x1AD7 JUMP JUMPDEST PUSH2 0x23F9 PUSH2 0x33CF JUMP JUMPDEST PUSH1 0x0 DUP1 PUSH1 0x0 PUSH2 0x1FA3 DUP6 PUSH2 0x28C1 JUMP JUMPDEST DUP2 DUP2 ADD DUP3 DUP2 SLT ISZERO PUSH1 0x0 DUP4 SLT ISZERO EQ PUSH2 0xDF1 JUMPI PUSH1 0x0 DUP1 REVERT JUMPDEST PUSH2 0x2425 PUSH2 0x33F9 JUMP JUMPDEST PUSH2 0xDF1 DUP3 PUSH1 0x1 PUSH2 0x259D JUMP JUMPDEST PUSH1 0x0 DUP1 PUSH2 0x118E DUP5 PUSH1 0x40 ADD MLOAD PUSH2 0x1188 PUSH5 0x2540BE400 PUSH2 0x1188 DUP8 DUP10 PUSH1 0x20 ADD MLOAD PUSH2 0x20FF SWAP1 SWAP2 SWAP1 PUSH4 0xFFFFFFFF AND JUMP JUMPDEST PUSH1 0x0 DUP1 PUSH2 0x246B DUP9 PUSH2 0xFFFF AND PUSH2 0x2CF3 JUMP JUMPDEST SWAP1 POP DUP4 DUP2 PUSH1 0xFF AND GT ISZERO PUSH2 0x247D JUMPI PUSH1 0x0 DUP1 REVERT JUMPDEST PUSH1 0x0 DUP1 PUSH2 0x248E DUP4 PUSH1 0xFF AND DUP11 DUP8 PUSH2 0x2D09 JUMP JUMPDEST SWAP2 POP SWAP2 POP DUP1 ISZERO PUSH2 0x249D JUMPI PUSH1 0x0 DUP1 REVERT JUMPDEST PUSH1 0x0 PUSH2 0x24A8 DUP10 PUSH2 0x2DD1 JUMP JUMPDEST SWAP1 POP PUSH11 0xFFFFFFFFFFFFFFFFFFFFFF DUP2 LT PUSH2 0x24C1 JUMPI PUSH1 0x0 DUP1 REVERT JUMPDEST PUSH1 0x0 PUSH1 0x78 DUP10 PUSH4 0xFFFFFFFF AND SWAP1 SHL PUSH1 0x98 DUP4 SWAP1 SHL PUSH1 0xF0 DUP7 SWAP1 SHL PUSH1 0xF8 PUSH1 0x0 DUP15 SGT PUSH2 0x24E9 JUMPI PUSH1 0x1 PUSH2 0x24EC JUMP JUMPDEST PUSH1 0x0 JUMPDEST PUSH1 0x5 DUP2 GT ISZERO PUSH2 0x24F7 JUMPI INVALID JUMPDEST PUSH1 0xFF AND SWAP1 SHL OR OR OR PUSH1 0x0 SHL SWAP1 POP PUSH20 0x0 PUSH4 0xE50F349E DUP14 DUP4 PUSH1 0x40 MLOAD DUP4 PUSH4 0xFFFFFFFF AND PUSH1 0xE0 SHL DUP2 MSTORE PUSH1 0x4 ADD PUSH2 0x253D SWAP3 SWAP2 SWAP1 PUSH2 0x3DAE JUMP JUMPDEST PUSH1 0x20 PUSH1 0x40 MLOAD DUP1 DUP4 SUB DUP2 DUP7 DUP1 EXTCODESIZE ISZERO DUP1 ISZERO PUSH2 0x2555 JUMPI PUSH1 0x0 DUP1 REVERT JUMPDEST POP GAS DELEGATECALL ISZERO DUP1 ISZERO PUSH2 0x2569 JUMPI RETURNDATASIZE PUSH1 0x0 DUP1 RETURNDATACOPY RETURNDATASIZE PUSH1 0x0 REVERT JUMPDEST POP POP POP POP PUSH1 0x40 MLOAD RETURNDATASIZE PUSH1 0x1F NOT PUSH1 0x1F DUP3 ADD AND DUP3 ADD DUP1 PUSH1 0x40 MSTORE POP DUP2 ADD SWAP1 PUSH2 0x258D SWAP2 SWAP1 PUSH2 0x3746 JUMP JUMPDEST SWAP13 SWAP12 POP POP POP POP POP POP POP POP POP POP POP POP JUMP JUMPDEST PUSH2 0x25A5 PUSH2 0x33F9 JUMP JUMPDEST PUSH1 0x0 PUSH2 0x25AF PUSH2 0x2DF2 JUMP JUMPDEST PUSH1 0x0 DUP6 DUP2 MSTORE PUSH1 0x20 DUP3 DUP2 MSTORE PUSH1 0x40 DUP1 DUP4 KECCAK256 DUP8 ISZERO ISZERO DUP5 MSTORE DUP3 MSTORE SWAP2 DUP3 SWAP1 KECCAK256 DUP3 MLOAD PUSH1 0xA0 DUP2 ADD DUP5 MSTORE DUP2 SLOAD PUSH1 0x1 PUSH1 0x1 PUSH1 0xA0 SHL SUB DUP2 AND DUP3 MSTORE PUSH1 0xFF PUSH1 0x1 PUSH1 0xA0 SHL DUP3 DIV DUP2 AND ISZERO ISZERO SWAP5 DUP4 ADD SWAP5 SWAP1 SWAP5 MSTORE PUSH1 0x1 PUSH1 0xB0 SHL DUP2 DIV DUP5 AND PUSH1 0xA EXP SWAP5 DUP3 ADD SWAP5 SWAP1 SWAP5 MSTORE SWAP4 SWAP5 POP SWAP3 SWAP2 PUSH1 0x60 DUP4 ADD SWAP2 PUSH1 0x1 PUSH1 0xA8 SHL SWAP1 SWAP2 DIV AND PUSH1 0x5 DUP2 GT ISZERO PUSH2 0x2624 JUMPI INVALID JUMPDEST DUP2 MSTORE SWAP2 SLOAD PUSH1 0x1 PUSH1 0xB8 SHL SWAP1 DIV PUSH9 0xFFFFFFFFFFFFFFFFFF AND PUSH1 0x20 SWAP1 SWAP3 ADD SWAP2 SWAP1 SWAP2 MSTORE SWAP5 SWAP4 POP POP POP POP JUMP JUMPDEST DUP3 MLOAD PUSH1 0x40 MLOAD PUSH4 0xDB006A75 PUSH1 0xE0 SHL DUP2 MSTORE PUSH1 0x0 SWAP2 SELFBALANCE SWAP2 DUP4 SWAP2 PUSH1 0x1 PUSH1 0x1 PUSH1 0xA0 SHL SUB AND SWAP1 PUSH4 0xDB006A75 SWAP1 PUSH2 0x267F SWAP1 DUP8 SWAP1 PUSH1 0x4 ADD PUSH2 0x39B7 JUMP JUMPDEST PUSH1 0x20 PUSH1 0x40 MLOAD DUP1 DUP4 SUB DUP2 PUSH1 0x0 DUP8 DUP1 EXTCODESIZE ISZERO DUP1 ISZERO PUSH2 0x2699 JUMPI PUSH1 0x0 DUP1 REVERT JUMPDEST POP GAS CALL ISZERO DUP1 ISZERO PUSH2 0x26AD JUMPI RETURNDATASIZE PUSH1 0x0 DUP1 RETURNDATACOPY RETURNDATASIZE PUSH1 0x0 REVERT JUMPDEST POP POP POP POP PUSH1 0x40 MLOAD RETURNDATASIZE PUSH1 0x1F NOT PUSH1 0x1F DUP3 ADD AND DUP3 ADD DUP1 PUSH1 0x40 MSTORE POP DUP2 ADD SWAP1 PUSH2 0x26D1 SWAP2 SWAP1 PUSH2 0x3746 JUMP JUMPDEST SWAP1 POP DUP1 ISZERO PUSH2 0x26F1 JUMPI PUSH1 0x40 MLOAD PUSH3 0x461BCD PUSH1 0xE5 SHL DUP2 MSTORE PUSH1 0x4 ADD PUSH2 0x2E0 SWAP1 PUSH2 0x3A3F JUMP JUMPDEST SELFBALANCE PUSH2 0x26FC DUP2 DUP5 PUSH2 0x2DFF JUMP JUMPDEST SWAP4 POP PUSH2 0x2708 DUP7 DUP6 PUSH2 0x2E56 JUMP JUMPDEST POP POP POP SWAP4 SWAP3 POP POP POP JUMP JUMPDEST PUSH1 0x0 PUSH2 0x272D PUSH2 0x418 DUP6 PUSH1 0x0 ADD MLOAD PUSH2 0x2728 DUP6 PUSH2 0x11B6 JUMP JUMPDEST PUSH2 0x2944 JUMP JUMPDEST SWAP1 POP PUSH2 0x2737 PUSH2 0x2E8C JUMP JUMPDEST SLOAD DUP5 MLOAD PUSH1 0x40 MLOAD PUSH4 0x1A4CA37B PUSH1 0xE2 SHL DUP2 MSTORE PUSH1 0x1 PUSH1 0x1 PUSH1 0xA0 SHL SUB SWAP1 SWAP3 AND SWAP2 PUSH4 0x69328DEC SWAP2 PUSH2 0x2769 SWAP2 DUP6 SWAP1 DUP9 SWAP1 PUSH1 0x4 ADD PUSH2 0x3928 JUMP JUMPDEST PUSH1 0x20 PUSH1 0x40 MLOAD DUP1 DUP4 SUB DUP2 PUSH1 0x0 DUP8 DUP1 EXTCODESIZE ISZERO DUP1 ISZERO PUSH2 0x2783 JUMPI PUSH1 0x0 DUP1 REVERT JUMPDEST POP GAS CALL ISZERO DUP1 ISZERO PUSH2 0x2797 JUMPI RETURNDATASIZE PUSH1 0x0 DUP1 RETURNDATACOPY RETURNDATASIZE PUSH1 0x0 REVERT JUMPDEST POP POP POP POP PUSH1 0x40 MLOAD RETURNDATASIZE PUSH1 0x1F NOT PUSH1 0x1F DUP3 ADD AND DUP3 ADD DUP1 PUSH1 0x40 MSTORE POP DUP2 ADD SWAP1 PUSH2 0x27BB SWAP2 SWAP1 PUSH2 0x3746 JUMP JUMPDEST POP SWAP4 SWAP3 POP POP POP JUMP JUMPDEST DUP3 MLOAD PUSH1 0x0 SWAP1 DUP2 SWAP1 PUSH2 0x27DC SWAP1 ADDRESS PUSH4 0x70A08231 PUSH1 0xE0 SHL PUSH2 0x2E99 JUMP JUMPDEST SWAP1 POP PUSH1 0x0 DUP7 PUSH1 0x0 ADD MLOAD PUSH1 0x1 PUSH1 0x1 PUSH1 0xA0 SHL SUB AND PUSH4 0xDB006A75 DUP6 PUSH1 0x40 MLOAD DUP3 PUSH4 0xFFFFFFFF AND PUSH1 0xE0 SHL DUP2 MSTORE PUSH1 0x4 ADD PUSH2 0x2810 SWAP2 SWAP1 PUSH2 0x39B7 JUMP JUMPDEST PUSH1 0x20 PUSH1 0x40 MLOAD DUP1 DUP4 SUB DUP2 PUSH1 0x0 DUP8 DUP1 EXTCODESIZE ISZERO DUP1 ISZERO PUSH2 0x282A JUMPI PUSH1 0x0 DUP1 REVERT JUMPDEST POP GAS CALL ISZERO DUP1 ISZERO PUSH2 0x283E JUMPI RETURNDATASIZE PUSH1 0x0 DUP1 RETURNDATACOPY RETURNDATASIZE PUSH1 0x0 REVERT JUMPDEST POP POP POP POP PUSH1 0x40 MLOAD RETURNDATASIZE PUSH1 0x1F NOT PUSH1 0x1F DUP3 ADD AND DUP3 ADD DUP1 PUSH1 0x40 MSTORE POP DUP2 ADD SWAP1 PUSH2 0x2862 SWAP2 SWAP1 PUSH2 0x3746 JUMP JUMPDEST SWAP1 POP DUP1 ISZERO PUSH2 0x2882 JUMPI PUSH1 0x40 MLOAD PUSH3 0x461BCD PUSH1 0xE5 SHL DUP2 MSTORE PUSH1 0x4 ADD PUSH2 0x2E0 SWAP1 PUSH2 0x3A3F JUMP JUMPDEST DUP6 MLOAD PUSH1 0x0 SWAP1 PUSH2 0x2899 SWAP1 ADDRESS PUSH4 0x70A08231 PUSH1 0xE0 SHL PUSH2 0x2E99 JUMP JUMPDEST SWAP1 POP PUSH2 0x28A5 DUP2 DUP5 PUSH2 0x2DFF JUMP JUMPDEST SWAP4 POP PUSH2 0x28B6 DUP8 PUSH1 0x0 ADD MLOAD DUP8 DUP7 PUSH2 0x29CA JUMP JUMPDEST POP POP POP SWAP5 SWAP4 POP POP POP POP JUMP JUMPDEST PUSH1 0x0 DUP1 PUSH1 0x0 DUP1 PUSH1 0x0 PUSH2 0x28D2 DUP7 PUSH2 0x2CBC JUMP JUMPDEST SWAP1 SWAP3 POP SWAP1 POP PUSH1 0x0 PUSH1 0x1 PUSH1 0x1 PUSH1 0xA0 SHL SUB DUP4 AND PUSH2 0x28F7 JUMPI POP PUSH1 0x0 SWAP1 POP PUSH5 0x2540BE400 PUSH2 0x20E7 JUMP JUMPDEST DUP3 PUSH1 0x1 PUSH1 0x1 PUSH1 0xA0 SHL SUB AND PUSH4 0xB2FFFB04 PUSH1 0x40 MLOAD DUP2 PUSH4 0xFFFFFFFF AND PUSH1 0xE0 SHL DUP2 MSTORE PUSH1 0x4 ADD PUSH1 0x20 PUSH1 0x40 MLOAD DUP1 DUP4 SUB DUP2 DUP7 DUP1 EXTCODESIZE ISZERO DUP1 ISZERO PUSH2 0x2930 JUMPI PUSH1 0x0 DUP1 REVERT JUMPDEST POP GAS STATICCALL ISZERO DUP1 ISZERO PUSH2 0x20B4 JUMPI RETURNDATASIZE PUSH1 0x0 DUP1 RETURNDATACOPY RETURNDATASIZE PUSH1 0x0 REVERT JUMPDEST PUSH1 0x0 DUP2 PUSH2 0x2953 JUMPI POP PUSH1 0x0 PUSH2 0xDF1 JUMP JUMPDEST PUSH1 0x0 PUSH2 0x295E DUP5 PUSH2 0x2FAB JUMP JUMPDEST SWAP1 POP PUSH1 0x0 PUSH2 0x296B DUP5 PUSH2 0x2DD1 JUMP JUMPDEST SWAP1 POP DUP2 PUSH12 0x19D971E4FE8401E74000001 PUSH1 0x1 PUSH1 0xFF SHL SUB DUP2 PUSH2 0x2988 JUMPI INVALID JUMPDEST SDIV DUP2 SGT ISZERO PUSH2 0x2995 JUMPI PUSH1 0x0 DUP1 REVERT JUMPDEST PUSH12 0x33B2E3C9FD0803CE8000000 PUSH12 0x19D971E4FE8401E74000000 DUP4 DUP4 MUL ADD SDIV PUSH1 0x0 DUP6 SGT PUSH2 0x1AA4 JUMPI PUSH2 0x29C5 DUP2 PUSH2 0x1144 JUMP JUMPDEST PUSH2 0x1D02 JUMP JUMPDEST DUP3 PUSH1 0x1 PUSH1 0x1 PUSH1 0xA0 SHL SUB AND PUSH4 0xA9059CBB DUP4 DUP4 PUSH1 0x40 MLOAD DUP4 PUSH4 0xFFFFFFFF AND PUSH1 0xE0 SHL DUP2 MSTORE PUSH1 0x4 ADD DUP1 DUP4 PUSH1 0x1 PUSH1 0x1 PUSH1 0xA0 SHL SUB AND DUP2 MSTORE PUSH1 0x20 ADD DUP3 DUP2 MSTORE PUSH1 0x20 ADD SWAP3 POP POP POP PUSH1 0x0 PUSH1 0x40 MLOAD DUP1 DUP4 SUB DUP2 PUSH1 0x0 DUP8 DUP1 EXTCODESIZE ISZERO DUP1 ISZERO PUSH2 0x2A21 JUMPI PUSH1 0x0 DUP1 REVERT JUMPDEST POP GAS CALL ISZERO DUP1 ISZERO PUSH2 0x2A35 JUMPI RETURNDATASIZE PUSH1 0x0 DUP1 RETURNDATACOPY RETURNDATASIZE PUSH1 0x0 REVERT JUMPDEST POP POP POP POP PUSH2 0xF31 PUSH2 0x2FE6 JUMP JUMPDEST PUSH1 0x0 DUP1 PUSH2 0x2A4F DUP6 DUP8 DUP7 PUSH2 0x3057 JUMP JUMPDEST SWAP1 POP PUSH1 0x0 PUSH2 0x2A6B PUSH2 0x2A5F DUP6 PUSH2 0x1144 JUMP JUMPDEST PUSH2 0x160 DUP10 ADD MLOAD SWAP1 PUSH2 0x1157 JUMP JUMPDEST SWAP1 POP PUSH1 0x0 PUSH2 0x2A79 DUP4 DUP4 PUSH2 0x231C JUMP JUMPDEST SWAP1 POP PUSH1 0x0 DUP3 SGT PUSH2 0x2A92 JUMPI PUSH1 0x1 PUSH1 0x1 PUSH1 0xFF SHL SUB SWAP4 POP PUSH2 0x2A9F JUMP JUMPDEST PUSH2 0x2A9C DUP2 DUP4 PUSH2 0x30AF JUMP JUMPDEST SWAP4 POP JUMPDEST POP POP SWAP5 POP SWAP5 SWAP3 POP POP POP JUMP JUMPDEST PUSH1 0x0 DUP5 PUSH2 0x2AB9 JUMPI POP PUSH1 0x0 PUSH2 0x1D02 JUMP JUMPDEST PUSH1 0x0 PUSH2 0x2ACC DUP9 PUSH1 0x40 ADD MLOAD PUSH2 0xFFFF AND PUSH2 0x189E JUMP JUMPDEST SWAP1 POP PUSH1 0x0 DUP2 PUSH1 0x0 ADD MLOAD PUSH1 0x1 PUSH1 0x1 PUSH1 0xA0 SHL SUB AND PUSH4 0x70A08231 ADDRESS PUSH1 0x40 MLOAD DUP3 PUSH4 0xFFFFFFFF AND PUSH1 0xE0 SHL DUP2 MSTORE PUSH1 0x4 ADD PUSH2 0x2B00 SWAP2 SWAP1 PUSH2 0x3914 JUMP JUMPDEST PUSH1 0x20 PUSH1 0x40 MLOAD DUP1 DUP4 SUB DUP2 DUP7 DUP1 EXTCODESIZE ISZERO DUP1 ISZERO PUSH2 0x2B18 JUMPI PUSH1 0x0 DUP1 REVERT JUMPDEST POP GAS STATICCALL ISZERO DUP1 ISZERO PUSH2 0x2B2C JUMPI RETURNDATASIZE PUSH1 0x0 DUP1 RETURNDATACOPY RETURNDATASIZE PUSH1 0x0 REVERT JUMPDEST POP POP POP POP PUSH1 0x40 MLOAD RETURNDATASIZE PUSH1 0x1F NOT PUSH1 0x1F DUP3 ADD AND DUP3 ADD DUP1 PUSH1 0x40 MSTORE POP DUP2 ADD SWAP1 PUSH2 0x2B50 SWAP2 SWAP1 PUSH2 0x3746 JUMP JUMPDEST DUP10 MLOAD PUSH1 0x40 MLOAD PUSH4 0x4D6DC4DF PUSH1 0xE1 SHL DUP2 MSTORE SWAP2 SWAP3 POP PUSH1 0x1 PUSH1 0x1 PUSH1 0xA0 SHL SUB AND SWAP1 PUSH4 0x9ADB89BE SWAP1 PUSH2 0x2B88 SWAP1 DUP12 SWAP1 DUP12 SWAP1 DUP12 SWAP1 DUP12 SWAP1 DUP12 SWAP1 PUSH1 0x4 ADD PUSH2 0x394B JUMP JUMPDEST PUSH1 0x0 PUSH1 0x40 MLOAD DUP1 DUP4 SUB DUP2 PUSH1 0x0 DUP8 DUP1 EXTCODESIZE ISZERO DUP1 ISZERO PUSH2 0x2BA2 JUMPI PUSH1 0x0 DUP1 REVERT JUMPDEST POP GAS CALL ISZERO DUP1 ISZERO PUSH2 0x2BB6 JUMPI RETURNDATASIZE PUSH1 0x0 DUP1 RETURNDATACOPY RETURNDATASIZE PUSH1 0x0 REVERT JUMPDEST POP POP DUP4 MLOAD PUSH1 0x40 MLOAD PUSH4 0x70A08231 PUSH1 0xE0 SHL DUP2 MSTORE PUSH1 0x0 SWAP4 POP PUSH1 0x1 PUSH1 0x1 PUSH1 0xA0 SHL SUB SWAP1 SWAP2 AND SWAP2 POP PUSH4 0x70A08231 SWAP1 PUSH2 0x2BEC SWAP1 ADDRESS SWAP1 PUSH1 0x4 ADD PUSH2 0x3914 JUMP JUMPDEST PUSH1 0x20 PUSH1 0x40 MLOAD DUP1 DUP4 SUB DUP2 DUP7 DUP1 EXTCODESIZE ISZERO DUP1 ISZERO PUSH2 0x2C04 JUMPI PUSH1 0x0 DUP1 REVERT JUMPDEST POP GAS STATICCALL ISZERO DUP1 ISZERO PUSH2 0x2C18 JUMPI RETURNDATASIZE PUSH1 0x0 DUP1 RETURNDATACOPY RETURNDATASIZE PUSH1 0x0 REVERT JUMPDEST POP POP POP POP PUSH1 0x40 MLOAD RETURNDATASIZE PUSH1 0x1F NOT PUSH1 0x1F DUP3 ADD AND DUP3 ADD DUP1 PUSH1 0x40 MSTORE POP DUP2 ADD SWAP1 PUSH2 0x2C3C SWAP2 SWAP1 PUSH2 0x3746 JUMP JUMPDEST SWAP1 POP PUSH1 0x0 PUSH2 0x2C4D PUSH2 0x23E5 DUP4 DUP6 PUSH2 0x1AAD JUMP JUMPDEST SWAP1 POP PUSH1 0x5 DUP5 PUSH1 0x60 ADD MLOAD PUSH1 0x5 DUP2 GT ISZERO PUSH2 0x2C61 JUMPI INVALID JUMPDEST EQ ISZERO PUSH2 0x2C7C JUMPI PUSH2 0x2C79 DUP12 PUSH1 0x40 ADD MLOAD PUSH2 0xFFFF AND DUP3 PUSH2 0x30C8 JUMP JUMPDEST SWAP1 POP JUMPDEST PUSH2 0x2C86 DUP5 DUP3 PUSH2 0x1AD7 JUMP JUMPDEST SWAP12 SWAP11 POP POP POP POP POP POP POP POP POP POP POP JUMP JUMPDEST PUSH1 0x0 DUP3 PUSH2 0x2CA4 JUMPI POP PUSH1 0x0 PUSH2 0xDF1 JUMP JUMPDEST DUP3 DUP3 MUL DUP3 DUP5 DUP3 DUP2 PUSH2 0x2CB1 JUMPI INVALID JUMPDEST DIV EQ PUSH2 0x739 JUMPI PUSH1 0x0 DUP1 REVERT JUMPDEST PUSH1 0x0 DUP1 PUSH1 0x0 PUSH2 0x2CC9 PUSH2 0x314F JUMP JUMPDEST PUSH1 0x0 SWAP5 DUP6 MSTORE PUSH1 0x20 MSTORE POP POP PUSH1 0x40 SWAP1 SWAP2 KECCAK256 SLOAD PUSH1 0x1 PUSH1 0x1 PUSH1 0xA0 SHL SUB DUP2 AND SWAP3 PUSH1 0x1 PUSH1 0xA0 SHL SWAP1 SWAP2 DIV PUSH1 0xFF AND SWAP2 POP JUMP JUMPDEST PUSH1 0x0 DUP1 PUSH2 0x2CFF DUP4 PUSH2 0x315C JUMP JUMPDEST PUSH1 0xFF AND SWAP4 SWAP3 POP POP POP JUMP JUMPDEST PUSH1 0x0 DUP1 PUSH1 0x0 DUP6 GT PUSH2 0x2D2C JUMPI PUSH1 0x40 MLOAD PUSH3 0x461BCD PUSH1 0xE5 SHL DUP2 MSTORE PUSH1 0x4 ADD PUSH2 0x2E0 SWAP1 PUSH2 0x3A86 JUMP JUMPDEST PUSH1 0x7 DUP6 GT ISZERO PUSH2 0x2D4D JUMPI PUSH1 0x40 MLOAD PUSH3 0x461BCD PUSH1 0xE5 SHL DUP2 MSTORE PUSH1 0x4 ADD PUSH2 0x2E0 SWAP1 PUSH2 0x3B4F JUMP JUMPDEST PUSH1 0x0 PUSH2 0x2D58 DUP5 PUSH2 0x3179 JUMP JUMPDEST SWAP1 POP PUSH1 0x1 JUMPDEST DUP7 DUP2 GT PUSH2 0x2DB0 JUMPI PUSH1 0x0 PUSH2 0x2D79 PUSH2 0x2D72 DUP4 PUSH2 0x3197 JUMP JUMPDEST DUP5 SWAP1 PUSH2 0x323B JUMP JUMPDEST SWAP1 POP DUP7 DUP2 EQ ISZERO PUSH2 0x2D91 JUMPI POP SWAP3 POP PUSH1 0x0 SWAP2 POP PUSH2 0x2DC9 SWAP1 POP JUMP JUMPDEST DUP7 DUP2 GT ISZERO PUSH2 0x2DA7 JUMPI POP SWAP3 POP PUSH1 0x1 SWAP2 POP PUSH2 0x2DC9 SWAP1 POP JUMP JUMPDEST POP PUSH1 0x1 ADD PUSH2 0x2D5D JUMP JUMPDEST POP PUSH1 0x40 MLOAD PUSH3 0x461BCD PUSH1 0xE5 SHL DUP2 MSTORE PUSH1 0x4 ADD PUSH2 0x2E0 SWAP1 PUSH2 0x3C69 JUMP JUMPDEST SWAP4 POP SWAP4 SWAP2 POP POP JUMP JUMPDEST PUSH1 0x0 DUP1 DUP3 SLT ISZERO PUSH2 0x2DEB JUMPI PUSH2 0x2DE4 DUP3 PUSH2 0x1144 JUMP JUMPDEST SWAP1 POP PUSH2 0x1152 JUMP JUMPDEST POP DUP1 PUSH2 0x1152 JUMP JUMPDEST PUSH1 0x0 DUP1 PUSH2 0xDF1 PUSH1 0x7 PUSH2 0x217E JUMP JUMPDEST PUSH1 0x0 DUP3 DUP3 GT ISZERO PUSH2 0x1ABC JUMPI PUSH1 0x40 DUP1 MLOAD PUSH3 0x461BCD PUSH1 0xE5 SHL DUP2 MSTORE PUSH1 0x20 PUSH1 0x4 DUP3 ADD MSTORE PUSH1 0x1E PUSH1 0x24 DUP3 ADD MSTORE PUSH32 0x536166654D6174683A207375627472616374696F6E206F766572666C6F770000 PUSH1 0x44 DUP3 ADD MSTORE SWAP1 MLOAD SWAP1 DUP2 SWAP1 SUB PUSH1 0x64 ADD SWAP1 REVERT JUMPDEST PUSH1 0x40 MLOAD PUSH1 0x1 PUSH1 0x1 PUSH1 0xA0 SHL SUB DUP4 AND SWAP1 DUP3 ISZERO PUSH2 0x8FC MUL SWAP1 DUP4 SWAP1 PUSH1 0x0 DUP2 DUP2 DUP2 DUP6 DUP9 DUP9 CALL SWAP4 POP POP POP POP ISZERO DUP1 ISZERO PUSH2 0xF31 JUMPI RETURNDATASIZE PUSH1 0x0 DUP1 RETURNDATACOPY RETURNDATASIZE PUSH1 0x0 REVERT JUMPDEST PUSH1 0x0 DUP1 PUSH2 0xDF1 PUSH1 0x13 PUSH2 0x217E JUMP JUMPDEST PUSH1 0x40 DUP1 MLOAD PUSH1 0x1 PUSH1 0x1 PUSH1 0xA0 SHL SUB DUP5 DUP2 AND PUSH1 0x24 DUP1 DUP5 ADD SWAP2 SWAP1 SWAP2 MSTORE DUP4 MLOAD DUP1 DUP5 SUB SWAP1 SWAP2 ADD DUP2 MSTORE PUSH1 0x44 SWAP1 SWAP3 ADD DUP4 MSTORE PUSH1 0x20 DUP3 ADD DUP1 MLOAD PUSH1 0x1 PUSH1 0x1 PUSH1 0xE0 SHL SUB AND PUSH1 0x1 PUSH1 0x1 PUSH1 0xE0 SHL SUB NOT DUP7 AND OR DUP2 MSTORE SWAP3 MLOAD DUP3 MLOAD PUSH1 0x0 SWAP5 DUP6 SWAP5 DUP6 SWAP5 DUP11 AND SWAP4 SWAP1 SWAP3 SWAP1 SWAP2 DUP3 SWAP2 DUP1 DUP4 DUP4 JUMPDEST PUSH1 0x20 DUP4 LT PUSH2 0x2F16 JUMPI DUP1 MLOAD DUP3 MSTORE PUSH1 0x1F NOT SWAP1 SWAP3 ADD SWAP2 PUSH1 0x20 SWAP2 DUP3 ADD SWAP2 ADD PUSH2 0x2EF7 JUMP JUMPDEST PUSH1 0x1 DUP4 PUSH1 0x20 SUB PUSH2 0x100 EXP SUB DUP1 NOT DUP3 MLOAD AND DUP2 DUP5 MLOAD AND DUP1 DUP3 OR DUP6 MSTORE POP POP POP POP POP POP SWAP1 POP ADD SWAP2 POP POP PUSH1 0x0 PUSH1 0x40 MLOAD DUP1 DUP4 SUB DUP2 DUP6 GAS STATICCALL SWAP2 POP POP RETURNDATASIZE DUP1 PUSH1 0x0 DUP2 EQ PUSH2 0x2F76 JUMPI PUSH1 0x40 MLOAD SWAP2 POP PUSH1 0x1F NOT PUSH1 0x3F RETURNDATASIZE ADD AND DUP3 ADD PUSH1 0x40 MSTORE RETURNDATASIZE DUP3 MSTORE RETURNDATASIZE PUSH1 0x0 PUSH1 0x20 DUP5 ADD RETURNDATACOPY PUSH2 0x2F7B JUMP JUMPDEST PUSH1 0x60 SWAP2 POP JUMPDEST POP SWAP2 POP SWAP2 POP DUP2 PUSH2 0x2F8A JUMPI PUSH1 0x0 DUP1 REVERT JUMPDEST DUP1 DUP1 PUSH1 0x20 ADD SWAP1 MLOAD PUSH1 0x20 DUP2 LT ISZERO PUSH2 0x2F9F JUMPI PUSH1 0x0 DUP1 REVERT JUMPDEST POP MLOAD SWAP7 SWAP6 POP POP POP POP POP POP JUMP JUMPDEST PUSH1 0x0 PUSH2 0xDF1 PUSH2 0x2FB8 PUSH2 0x2E8C JUMP JUMPDEST SLOAD PUSH1 0x40 MLOAD PUSH4 0xD15E0053 PUSH1 0xE0 SHL DUP2 MSTORE PUSH1 0x1 PUSH1 0x1 PUSH1 0xA0 SHL SUB SWAP1 SWAP2 AND SWAP1 PUSH4 0xD15E0053 SWAP1 PUSH2 0x2395 SWAP1 DUP7 SWAP1 PUSH1 0x4 ADD PUSH2 0x3914 JUMP JUMPDEST PUSH1 0x0 PUSH2 0x2FF0 PUSH2 0x3428 JUMP JUMPDEST RETURNDATASIZE DUP1 ISZERO PUSH2 0x3004 JUMPI PUSH1 0x20 DUP2 EQ PUSH2 0x300D JUMPI PUSH1 0x0 DUP1 REVERT JUMPDEST PUSH1 0x1 SWAP3 POP PUSH2 0x3018 JUMP JUMPDEST PUSH1 0x20 PUSH1 0x0 DUP4 RETURNDATACOPY DUP2 MLOAD SWAP3 POP JUMPDEST POP DUP2 PUSH2 0x3053 JUMPI PUSH1 0x40 DUP1 MLOAD PUSH3 0x461BCD PUSH1 0xE5 SHL DUP2 MSTORE PUSH1 0x20 PUSH1 0x4 DUP3 ADD MSTORE PUSH1 0x5 PUSH1 0x24 DUP3 ADD MSTORE PUSH5 0x455243323 PUSH1 0xDC SHL PUSH1 0x44 DUP3 ADD MSTORE SWAP1 MLOAD SWAP1 DUP2 SWAP1 SUB PUSH1 0x64 ADD SWAP1 REVERT JUMPDEST POP POP JUMP JUMPDEST PUSH1 0x0 DUP2 PUSH2 0x3066 JUMPI POP PUSH1 0x0 PUSH2 0x739 JUMP JUMPDEST PUSH1 0x0 DUP1 PUSH2 0x3073 DUP7 DUP6 PUSH2 0x3295 JUMP JUMPDEST SWAP2 POP SWAP2 POP PUSH1 0x0 PUSH2 0x3091 DUP7 PUSH1 0x40 ADD MLOAD DUP8 PUSH1 0x0 ADD MLOAD DUP5 DUP11 PUSH1 0x0 ADD MLOAD PUSH2 0x2332 JUMP JUMPDEST SWAP1 POP PUSH2 0x987 PUSH2 0x309F DUP5 PUSH2 0x11B6 JUMP JUMPDEST PUSH2 0x160 DUP9 ADD MLOAD PUSH2 0x179C SWAP1 DUP5 PUSH2 0x1157 JUMP JUMPDEST PUSH1 0x0 PUSH2 0x739 PUSH2 0x30C2 DUP5 PUSH4 0x3B9ACA00 PUSH2 0x20FF JUMP JUMPDEST DUP4 PUSH2 0x214D JUMP JUMPDEST PUSH1 0x0 DUP2 PUSH2 0x30D7 JUMPI POP PUSH1 0x0 PUSH2 0xDF1 JUMP JUMPDEST PUSH1 0x0 DUP3 SGT PUSH2 0x30E4 JUMPI PUSH1 0x0 DUP1 REVERT JUMPDEST PUSH1 0x0 PUSH2 0x30EF DUP5 PUSH2 0x241D JUMP JUMPDEST SWAP1 POP PUSH1 0x0 PUSH2 0x3100 DUP3 PUSH1 0x0 ADD MLOAD PUSH2 0x2FAB JUMP JUMPDEST SWAP1 POP PUSH1 0x2 DUP2 SDIV PUSH12 0x33B2E3C9FD0803CE8000000 PUSH1 0x1 PUSH1 0x1 PUSH1 0xFF SHL SUB DUP3 SWAP1 SUB SDIV DUP6 SGT ISZERO PUSH2 0x312B JUMPI PUSH1 0x0 DUP1 REVERT JUMPDEST DUP2 DUP2 PUSH12 0x33B2E3C9FD0803CE8000000 DUP8 MUL ADD DUP2 PUSH2 0x3144 JUMPI INVALID JUMPDEST SDIV SWAP7 SWAP6 POP POP POP POP POP POP JUMP JUMPDEST PUSH1 0x0 DUP1 PUSH2 0xDF1 PUSH1 0xF PUSH2 0x217E JUMP JUMPDEST PUSH1 0x0 DUP1 PUSH2 0x3167 PUSH2 0x32E7 JUMP JUMPDEST PUSH1 0x0 SWAP4 DUP5 MSTORE PUSH1 0x20 MSTORE POP POP PUSH1 0x40 SWAP1 KECCAK256 SLOAD SWAP1 JUMP JUMPDEST PUSH1 0x0 PUSH3 0x76A700 DUP3 LT ISZERO PUSH2 0x318B JUMPI PUSH1 0x0 DUP1 REVERT JUMPDEST POP PUSH3 0x76A700 DUP2 MOD SWAP1 SUB SWAP1 JUMP JUMPDEST PUSH1 0x0 DUP2 PUSH1 0x1 EQ ISZERO PUSH2 0x31AC JUMPI POP PUSH3 0x76A700 PUSH2 0x1152 JUMP JUMPDEST DUP2 PUSH1 0x2 EQ ISZERO PUSH2 0x31BF JUMPI POP PUSH3 0xED4E00 PUSH2 0x1152 JUMP JUMPDEST DUP2 PUSH1 0x3 EQ ISZERO PUSH2 0x31D3 JUMPI POP PUSH4 0x1DA9C00 PUSH2 0x1152 JUMP JUMPDEST DUP2 PUSH1 0x4 EQ ISZERO PUSH2 0x31E7 JUMPI POP PUSH4 0x3B53800 PUSH2 0x1152 JUMP JUMPDEST DUP2 PUSH1 0x5 EQ ISZERO PUSH2 0x31FB JUMPI POP PUSH4 0x9450C00 PUSH2 0x1152 JUMP JUMPDEST DUP2 PUSH1 0x6 EQ ISZERO PUSH2 0x320F JUMPI POP PUSH4 0x128A1800 PUSH2 0x1152 JUMP JUMPDEST DUP2 PUSH1 0x7 EQ ISZERO PUSH2 0x3223 JUMPI POP PUSH4 0x25143000 PUSH2 0x1152 JUMP JUMPDEST PUSH1 0x40 MLOAD PUSH3 0x461BCD PUSH1 0xE5 SHL DUP2 MSTORE PUSH1 0x4 ADD PUSH2 0x2E0 SWAP1 PUSH2 0x3AB5 JUMP JUMPDEST PUSH1 0x0 DUP3 DUP3 ADD DUP4 DUP2 LT ISZERO PUSH2 0x739 JUMPI PUSH1 0x40 DUP1 MLOAD PUSH3 0x461BCD PUSH1 0xE5 SHL DUP2 MSTORE PUSH1 0x20 PUSH1 0x4 DUP3 ADD MSTORE PUSH1 0x1B PUSH1 0x24 DUP3 ADD MSTORE PUSH32 0x536166654D6174683A206164646974696F6E206F766572666C6F770000000000 PUSH1 0x44 DUP3 ADD MSTORE SWAP1 MLOAD SWAP1 DUP2 SWAP1 SUB PUSH1 0x64 ADD SWAP1 REVERT JUMPDEST PUSH1 0x0 DUP1 PUSH2 0x32BD DUP5 PUSH1 0x60 ADD MLOAD PUSH2 0x32B7 DUP7 PUSH1 0x80 ADD MLOAD DUP7 PUSH2 0x2C95 SWAP1 SWAP2 SWAP1 PUSH4 0xFFFFFFFF AND JUMP JUMPDEST SWAP1 PUSH2 0x32F4 JUMP JUMPDEST SWAP2 POP PUSH2 0x32DE DUP5 PUSH1 0x60 ADD MLOAD PUSH2 0x32B7 DUP7 PUSH1 0xA0 ADD MLOAD DUP7 PUSH2 0x2C95 SWAP1 SWAP2 SWAP1 PUSH4 0xFFFFFFFF AND JUMP JUMPDEST SWAP1 POP SWAP3 POP SWAP3 SWAP1 POP JUMP JUMPDEST PUSH1 0x0 DUP1 PUSH2 0xDF1 PUSH1 0x9 PUSH2 0x217E JUMP JUMPDEST PUSH1 0x0 DUP1 DUP3 GT PUSH2 0x3302 JUMPI PUSH1 0x0 DUP1 REVERT JUMPDEST DUP2 DUP4 DUP2 PUSH2 0x330B JUMPI INVALID JUMPDEST DIV SWAP4 SWAP3 POP POP POP JUMP JUMPDEST PUSH1 0x40 MLOAD DUP1 PUSH1 0xE0 ADD PUSH1 0x40 MSTORE DUP1 PUSH1 0x0 DUP2 MSTORE PUSH1 0x20 ADD PUSH1 0x0 DUP2 MSTORE PUSH1 0x20 ADD PUSH1 0x0 ISZERO ISZERO DUP2 MSTORE PUSH1 0x20 ADD PUSH1 0x0 DUP2 MSTORE PUSH1 0x20 ADD PUSH1 0x0 DUP2 MSTORE PUSH1 0x20 ADD PUSH1 0x0 DUP2 MSTORE PUSH1 0x20 ADD PUSH1 0x0 DUP2 MSTORE POP SWAP1 JUMP JUMPDEST PUSH1 0x40 MLOAD DUP1 PUSH2 0x180 ADD PUSH1 0x40 MSTORE DUP1 PUSH1 0x0 PUSH1 0x1 PUSH1 0x1 PUSH1 0xA0 SHL SUB AND DUP2 MSTORE PUSH1 0x20 ADD PUSH1 0x0 PUSH2 0xFFFF AND DUP2 MSTORE PUSH1 0x20 ADD PUSH1 0x0 PUSH2 0xFFFF AND DUP2 MSTORE PUSH1 0x20 ADD PUSH1 0x0 DUP2 MSTORE PUSH1 0x20 ADD PUSH1 0x0 DUP2 MSTORE PUSH1 0x20 ADD PUSH1 0x0 DUP2 MSTORE PUSH1 0x20 ADD PUSH1 0x0 DUP2 MSTORE PUSH1 0x20 ADD PUSH1 0x0 DUP2 MSTORE PUSH1 0x20 ADD PUSH1 0x0 DUP2 MSTORE PUSH1 0x20 ADD PUSH1 0x0 DUP2 MSTORE PUSH1 0x20 ADD PUSH2 0x33BD PUSH2 0x3446 JUMP JUMPDEST DUP2 MSTORE PUSH1 0x20 ADD PUSH2 0x33CA PUSH2 0x33CF JUMP JUMPDEST SWAP1 MSTORE SWAP1 JUMP JUMPDEST PUSH1 0x40 MLOAD DUP1 PUSH1 0x60 ADD PUSH1 0x40 MSTORE DUP1 PUSH1 0x0 PUSH1 0x1 PUSH1 0x1 PUSH1 0xA0 SHL SUB AND DUP2 MSTORE PUSH1 0x20 ADD PUSH1 0x0 DUP2 MSTORE PUSH1 0x20 ADD PUSH1 0x0 DUP2 MSTORE POP SWAP1 JUMP JUMPDEST PUSH1 0x40 DUP1 MLOAD PUSH1 0xA0 DUP2 ADD DUP3 MSTORE PUSH1 0x0 DUP1 DUP3 MSTORE PUSH1 0x20 DUP3 ADD DUP2 SWAP1 MSTORE SWAP2 DUP2 ADD DUP3 SWAP1 MSTORE SWAP1 PUSH1 0x60 DUP3 ADD SWAP1 DUP2 MSTORE PUSH1 0x20 ADD PUSH1 0x0 DUP2 MSTORE POP SWAP1 JUMP JUMPDEST PUSH1 0x40 MLOAD DUP1 PUSH1 0x20 ADD PUSH1 0x40 MSTORE DUP1 PUSH1 0x1 SWAP1 PUSH1 0x20 DUP3 MUL DUP1 CALLDATASIZE DUP4 CALLDATACOPY POP SWAP2 SWAP3 SWAP2 POP POP JUMP JUMPDEST PUSH1 0x40 MLOAD DUP1 PUSH1 0x60 ADD PUSH1 0x40 MSTORE DUP1 PUSH1 0x3 SWAP1 PUSH1 0x20 DUP3 MUL DUP1 CALLDATASIZE DUP4 CALLDATACOPY POP SWAP2 SWAP3 SWAP2 POP POP JUMP JUMPDEST DUP1 CALLDATALOAD PUSH1 0x1 PUSH1 0x1 PUSH1 0xA0 SHL SUB DUP2 AND DUP2 EQ PUSH2 0x1152 JUMPI PUSH1 0x0 DUP1 REVERT JUMPDEST PUSH1 0x0 DUP1 DUP4 PUSH1 0x1F DUP5 ADD SLT PUSH2 0x348C JUMPI DUP1 DUP2 REVERT JUMPDEST POP DUP2 CALLDATALOAD PUSH8 0xFFFFFFFFFFFFFFFF DUP2 GT ISZERO PUSH2 0x34A3 JUMPI DUP2 DUP3 REVERT JUMPDEST PUSH1 0x20 DUP4 ADD SWAP2 POP DUP4 PUSH1 0x20 DUP3 DUP6 ADD ADD GT ISZERO PUSH2 0x8FC JUMPI PUSH1 0x0 DUP1 REVERT JUMPDEST DUP1 CALLDATALOAD PUSH1 0x1 PUSH1 0x1 PUSH1 0x50 SHL SUB DUP2 AND DUP2 EQ PUSH2 0x1152 JUMPI PUSH1 0x0 DUP1 REVERT JUMPDEST PUSH1 0x0 PUSH1 0x20 DUP3 DUP5 SUB SLT ISZERO PUSH2 0x34E3 JUMPI DUP1 DUP2 REVERT JUMPDEST PUSH2 0x739 DUP3 PUSH2 0x3464 JUMP JUMPDEST PUSH1 0x0 DUP1 PUSH1 0x40 DUP4 DUP6 SUB SLT ISZERO PUSH2 0x34FE JUMPI DUP1 DUP2 REVERT JUMPDEST PUSH2 0x3507 DUP4 PUSH2 0x3464 JUMP JUMPDEST SWAP2 POP PUSH1 0x20 DUP4 ADD CALLDATALOAD DUP1 ISZERO ISZERO DUP2 EQ PUSH2 0x351B JUMPI DUP2 DUP3 REVERT JUMPDEST DUP1 SWAP2 POP POP SWAP3 POP SWAP3 SWAP1 POP JUMP JUMPDEST PUSH1 0x0 DUP1 PUSH1 0x0 DUP4 DUP6 SUB PUSH2 0x1C0 DUP2 SLT ISZERO PUSH2 0x353C JUMPI DUP2 DUP3 REVERT JUMPDEST PUSH2 0x3545 DUP6 PUSH2 0x3464 JUMP JUMPDEST SWAP4 POP PUSH2 0x180 PUSH1 0x1F NOT DUP3 ADD SLT ISZERO PUSH2 0x3559 JUMPI DUP2 DUP3 REVERT JUMPDEST POP PUSH1 0x20 DUP5 ADD SWAP2 POP PUSH2 0x356D PUSH2 0x1A0 DUP6 ADD PUSH2 0x34BB JUMP JUMPDEST SWAP1 POP SWAP3 POP SWAP3 POP SWAP3 JUMP JUMPDEST PUSH1 0x0 DUP1 PUSH1 0x40 DUP4 DUP6 SUB SLT ISZERO PUSH2 0x3588 JUMPI DUP2 DUP3 REVERT JUMPDEST PUSH2 0x3591 DUP4 PUSH2 0x3464 JUMP JUMPDEST SWAP2 POP PUSH1 0x20 DUP4 ADD CALLDATALOAD PUSH2 0x351B DUP2 PUSH2 0x405B JUMP JUMPDEST PUSH1 0x0 DUP1 PUSH1 0x0 PUSH1 0x60 DUP5 DUP7 SUB SLT ISZERO PUSH2 0x35B5 JUMPI DUP3 DUP4 REVERT JUMPDEST PUSH2 0x35BE DUP5 PUSH2 0x3464 JUMP JUMPDEST SWAP3 POP PUSH1 0x20 DUP5 ADD CALLDATALOAD PUSH2 0x35CE DUP2 PUSH2 0x405B JUMP JUMPDEST SWAP3 SWAP6 SWAP3 SWAP5 POP POP POP PUSH1 0x40 SWAP2 SWAP1 SWAP2 ADD CALLDATALOAD SWAP1 JUMP JUMPDEST PUSH1 0x0 DUP1 PUSH1 0x0 PUSH1 0x60 DUP5 DUP7 SUB SLT ISZERO PUSH2 0x35F3 JUMPI DUP3 DUP4 REVERT JUMPDEST PUSH2 0x35FC DUP5 PUSH2 0x3464 JUMP JUMPDEST SWAP3 POP PUSH1 0x20 DUP5 ADD CALLDATALOAD PUSH2 0x360C DUP2 PUSH2 0x405B JUMP JUMPDEST SWAP2 POP PUSH2 0x356D PUSH1 0x40 DUP6 ADD PUSH2 0x34BB JUMP JUMPDEST PUSH1 0x0 DUP1 PUSH1 0x40 DUP4 DUP6 SUB SLT ISZERO PUSH2 0x362C JUMPI DUP2 DUP3 REVERT JUMPDEST PUSH2 0x3635 DUP4 PUSH2 0x3464 JUMP JUMPDEST SWAP5 PUSH1 0x20 SWAP4 SWAP1 SWAP4 ADD CALLDATALOAD SWAP4 POP POP POP JUMP JUMPDEST PUSH1 0x0 DUP1 PUSH1 0x0 DUP1 PUSH1 0x0 DUP1 PUSH1 0xA0 DUP8 DUP10 SUB SLT ISZERO PUSH2 0x365B JUMPI DUP2 DUP3 REVERT JUMPDEST PUSH2 0x3664 DUP8 PUSH2 0x3464 JUMP JUMPDEST SWAP6 POP PUSH2 0x3672 PUSH1 0x20 DUP9 ADD PUSH2 0x34BB JUMP JUMPDEST SWAP5 POP PUSH1 0x40 DUP8 ADD CALLDATALOAD SWAP4 POP PUSH1 0x60 DUP8 ADD CALLDATALOAD SWAP3 POP PUSH1 0x80 DUP8 ADD CALLDATALOAD PUSH8 0xFFFFFFFFFFFFFFFF DUP2 GT ISZERO PUSH2 0x369B JUMPI DUP3 DUP4 REVERT JUMPDEST PUSH2 0x36A7 DUP10 DUP3 DUP11 ADD PUSH2 0x347B JUMP JUMPDEST SWAP8 SWAP11 SWAP7 SWAP10 POP SWAP5 SWAP8 POP SWAP3 SWAP6 SWAP4 SWAP5 SWAP3 POP POP POP JUMP JUMPDEST PUSH1 0x0 PUSH1 0x20 DUP3 DUP5 SUB SLT ISZERO PUSH2 0x36CA JUMPI DUP1 DUP2 REVERT JUMPDEST DUP2 MLOAD PUSH8 0xFFFFFFFFFFFFFFFF DUP1 DUP3 GT ISZERO PUSH2 0x36E1 JUMPI DUP3 DUP4 REVERT JUMPDEST DUP2 DUP5 ADD SWAP2 POP DUP5 PUSH1 0x1F DUP4 ADD SLT PUSH2 0x36F4 JUMPI DUP3 DUP4 REVERT JUMPDEST DUP2 MLOAD DUP2 DUP2 GT ISZERO PUSH2 0x3700 JUMPI INVALID JUMPDEST PUSH1 0x40 MLOAD PUSH1 0x1F DUP3 ADD PUSH1 0x1F NOT AND DUP2 ADD PUSH1 0x20 ADD DUP4 DUP2 GT DUP3 DUP3 LT OR ISZERO PUSH2 0x371E JUMPI INVALID JUMPDEST PUSH1 0x40 MSTORE DUP2 DUP2 MSTORE DUP4 DUP3 ADD PUSH1 0x20 ADD DUP8 LT ISZERO PUSH2 0x3735 JUMPI DUP5 DUP6 REVERT JUMPDEST PUSH2 0x1D02 DUP3 PUSH1 0x20 DUP4 ADD PUSH1 0x20 DUP8 ADD PUSH2 0x3E42 JUMP JUMPDEST PUSH1 0x0 PUSH1 0x20 DUP3 DUP5 SUB SLT ISZERO PUSH2 0x3757 JUMPI DUP1 DUP2 REVERT JUMPDEST POP MLOAD SWAP2 SWAP1 POP JUMP JUMPDEST PUSH1 0x0 PUSH1 0x20 DUP3 DUP5 SUB SLT ISZERO PUSH2 0x376F JUMPI DUP1 DUP2 REVERT JUMPDEST DUP2 CALLDATALOAD PUSH2 0x739 DUP2 PUSH2 0x405B JUMP JUMPDEST PUSH1 0x0 DUP1 PUSH1 0x0 DUP1 PUSH1 0x80 DUP6 DUP8 SUB SLT ISZERO PUSH2 0x378F JUMPI DUP2 DUP3 REVERT JUMPDEST DUP5 CALLDATALOAD PUSH2 0x379A DUP2 PUSH2 0x405B JUMP JUMPDEST SWAP4 POP PUSH1 0x20 DUP6 ADD CALLDATALOAD SWAP3 POP PUSH1 0x40 DUP6 ADD CALLDATALOAD SWAP2 POP PUSH1 0x60 DUP6 ADD CALLDATALOAD PUSH2 0x37B8 DUP2 PUSH2 0x406E JUMP JUMPDEST SWAP4 SWAP7 SWAP3 SWAP6 POP SWAP1 SWAP4 POP POP JUMP JUMPDEST PUSH1 0x0 DUP1 PUSH1 0x0 DUP1 PUSH1 0x0 DUP1 PUSH1 0xA0 DUP8 DUP10 SUB SLT ISZERO PUSH2 0x37DB JUMPI DUP4 DUP5 REVERT JUMPDEST DUP7 CALLDATALOAD PUSH2 0x37E6 DUP2 PUSH2 0x405B JUMP JUMPDEST SWAP6 POP PUSH1 0x20 DUP8 ADD CALLDATALOAD SWAP5 POP PUSH1 0x40 DUP8 ADD CALLDATALOAD SWAP4 POP PUSH1 0x60 DUP8 ADD CALLDATALOAD PUSH2 0x3804 DUP2 PUSH2 0x406E JUMP JUMPDEST SWAP3 POP PUSH1 0x80 DUP8 ADD CALLDATALOAD PUSH8 0xFFFFFFFFFFFFFFFF DUP2 GT ISZERO PUSH2 0x369B JUMPI DUP3 DUP4 REVERT JUMPDEST PUSH1 0x0 DUP1 PUSH1 0x0 DUP1 PUSH1 0x60 DUP6 DUP8 SUB SLT ISZERO PUSH2 0x3834 JUMPI DUP2 DUP3 REVERT JUMPDEST DUP5 CALLDATALOAD SWAP4 POP PUSH1 0x20 DUP6 ADD CALLDATALOAD SWAP3 POP PUSH1 0x40 DUP6 ADD CALLDATALOAD PUSH8 0xFFFFFFFFFFFFFFFF DUP2 GT ISZERO PUSH2 0x3858 JUMPI DUP3 DUP4 REVERT JUMPDEST PUSH2 0x3864 DUP8 DUP3 DUP9 ADD PUSH2 0x347B JUMP JUMPDEST SWAP6 SWAP9 SWAP5 SWAP8 POP SWAP6 POP POP POP POP JUMP JUMPDEST PUSH1 0x0 PUSH1 0x20 DUP3 DUP5 SUB SLT ISZERO PUSH2 0x3881 JUMPI DUP1 DUP2 REVERT JUMPDEST DUP2 CALLDATALOAD PUSH2 0x739 DUP2 PUSH2 0x4080 JUMP JUMPDEST PUSH1 0x1 PUSH1 0x1 PUSH1 0xA0 SHL SUB AND SWAP1 MSTORE JUMP JUMPDEST DUP1 PUSH1 0x0 JUMPDEST PUSH1 0x3 DUP2 LT ISZERO PUSH2 0x362 JUMPI DUP2 MLOAD PUSH2 0xFFFF AND DUP5 MSTORE PUSH1 0x20 SWAP4 DUP5 ADD SWAP4 SWAP1 SWAP2 ADD SWAP1 PUSH1 0x1 ADD PUSH2 0x389D JUMP JUMPDEST PUSH1 0x0 DUP3 DUP5 MSTORE DUP3 DUP3 PUSH1 0x20 DUP7 ADD CALLDATACOPY DUP1 PUSH1 0x20 DUP5 DUP7 ADD ADD MSTORE PUSH1 0x20 PUSH1 0x1F NOT PUSH1 0x1F DUP6 ADD AND DUP6 ADD ADD SWAP1 POP SWAP4 SWAP3 POP POP POP JUMP JUMPDEST DUP1 MLOAD PUSH1 0x1 PUSH1 0x1 PUSH1 0xA0 SHL SUB AND DUP3 MSTORE PUSH1 0x20 DUP1 DUP3 ADD MLOAD SWAP1 DUP4 ADD MSTORE PUSH1 0x40 SWAP1 DUP2 ADD MLOAD SWAP2 ADD MSTORE JUMP JUMPDEST PUSH2 0xFFFF AND SWAP1 MSTORE JUMP JUMPDEST PUSH1 0x1 PUSH1 0x1 PUSH1 0xA0 SHL SUB SWAP2 SWAP1 SWAP2 AND DUP2 MSTORE PUSH1 0x20 ADD SWAP1 JUMP JUMPDEST PUSH1 0x1 PUSH1 0x1 PUSH1 0xA0 SHL SUB SWAP4 DUP5 AND DUP2 MSTORE PUSH1 0x20 DUP2 ADD SWAP3 SWAP1 SWAP3 MSTORE SWAP1 SWAP2 AND PUSH1 0x40 DUP3 ADD MSTORE PUSH1 0x60 ADD SWAP1 JUMP JUMPDEST PUSH1 0x0 PUSH1 0x1 DUP1 PUSH1 0xA0 SHL SUB DUP8 AND DUP3 MSTORE DUP6 PUSH1 0x20 DUP4 ADD MSTORE DUP5 PUSH1 0x40 DUP4 ADD MSTORE PUSH1 0x80 PUSH1 0x60 DUP4 ADD MSTORE PUSH2 0x987 PUSH1 0x80 DUP4 ADD DUP5 DUP7 PUSH2 0x38C0 JUMP JUMPDEST SWAP1 ISZERO ISZERO DUP2 MSTORE PUSH1 0x20 ADD SWAP1 JUMP JUMPDEST PUSH1 0x0 PUSH1 0x20 DUP3 MSTORE DUP3 MLOAD DUP1 PUSH1 0x20 DUP5 ADD MSTORE PUSH2 0x39A3 DUP2 PUSH1 0x40 DUP6 ADD PUSH1 0x20 DUP8 ADD PUSH2 0x3E42 JUMP JUMPDEST PUSH1 0x1F ADD PUSH1 0x1F NOT AND SWAP2 SWAP1 SWAP2 ADD PUSH1 0x40 ADD SWAP3 SWAP2 POP POP JUMP JUMPDEST SWAP1 DUP2 MSTORE PUSH1 0x20 ADD SWAP1 JUMP JUMPDEST SWAP2 DUP3 MSTORE PUSH1 0x20 DUP3 ADD MSTORE PUSH1 0x40 ADD SWAP1 JUMP JUMPDEST PUSH1 0x20 DUP1 DUP3 MSTORE PUSH1 0x11 SWAP1 DUP3 ADD MSTORE PUSH17 0x52656465656D20616C6C20746F6B656E73 PUSH1 0x78 SHL PUSH1 0x40 DUP3 ADD MSTORE PUSH1 0x60 ADD SWAP1 JUMP JUMPDEST PUSH1 0x20 DUP1 DUP3 MSTORE PUSH1 0x6 SWAP1 DUP3 ADD MSTORE PUSH6 0x14185D5CD959 PUSH1 0xD2 SHL PUSH1 0x40 DUP3 ADD MSTORE PUSH1 0x60 ADD SWAP1 JUMP JUMPDEST PUSH1 0x20 DUP1 DUP3 MSTORE PUSH1 0xC SWAP1 DUP3 ADD MSTORE PUSH12 0x155B985D5D1A1BDC9A5E9959 PUSH1 0xA2 SHL PUSH1 0x40 DUP3 ADD MSTORE PUSH1 0x60 ADD SWAP1 JUMP JUMPDEST PUSH1 0x20 DUP1 DUP3 MSTORE PUSH1 0x6 SWAP1 DUP3 ADD MSTORE PUSH6 0x52656465656D PUSH1 0xD0 SHL PUSH1 0x40 DUP3 ADD MSTORE PUSH1 0x60 ADD SWAP1 JUMP JUMPDEST PUSH1 0x20 DUP1 DUP3 MSTORE PUSH1 0xD SWAP1 DUP3 ADD MSTORE PUSH13 0x556E7061696420426F72726F77 PUSH1 0x98 SHL PUSH1 0x40 DUP3 ADD MSTORE PUSH1 0x60 ADD SWAP1 JUMP JUMPDEST PUSH1 0x20 DUP1 DUP3 MSTORE PUSH1 0x15 SWAP1 DUP3 ADD MSTORE PUSH21 0x10D1CE881B9BC81B585C9AD95D1CC81B1A5CDD1959 PUSH1 0x5A SHL PUSH1 0x40 DUP3 ADD MSTORE PUSH1 0x60 ADD SWAP1 JUMP JUMPDEST PUSH1 0x20 DUP1 DUP3 MSTORE PUSH1 0xD SWAP1 DUP3 ADD MSTORE PUSH13 0x92DCECC2D8D2C840D2DCC8CAF PUSH1 0x9B SHL PUSH1 0x40 DUP3 ADD MSTORE PUSH1 0x60 ADD SWAP1 JUMP JUMPDEST PUSH1 0x20 DUP1 DUP3 MSTORE PUSH1 0xC SWAP1 DUP3 ADD MSTORE PUSH12 0x151C9859194811985A5B1959 PUSH1 0xA2 SHL PUSH1 0x40 DUP3 ADD MSTORE PUSH1 0x60 ADD SWAP1 JUMP JUMPDEST PUSH1 0x20 DUP1 DUP3 MSTORE PUSH1 0xD SWAP1 DUP3 ADD MSTORE PUSH13 0x43616E6E6F7420536574746C65 PUSH1 0x98 SHL PUSH1 0x40 DUP3 ADD MSTORE PUSH1 0x60 ADD SWAP1 JUMP JUMPDEST PUSH1 0x20 DUP1 DUP3 MSTORE PUSH1 0xC SWAP1 DUP3 ADD MSTORE PUSH12 0x4D6178204361706163697479 PUSH1 0xA0 SHL PUSH1 0x40 DUP3 ADD MSTORE PUSH1 0x60 ADD SWAP1 JUMP JUMPDEST PUSH1 0x20 DUP1 DUP3 MSTORE PUSH1 0x16 SWAP1 DUP3 ADD MSTORE PUSH22 0x10D1CE881B585C9AD95D081A5B99195E08189BDD5B99 PUSH1 0x52 SHL PUSH1 0x40 DUP3 ADD MSTORE PUSH1 0x60 ADD SWAP1 JUMP JUMPDEST PUSH1 0x20 DUP1 DUP3 MSTORE PUSH1 0x10 SWAP1 DUP3 ADD MSTORE PUSH16 0x496E76616C69642043757272656E6379 PUSH1 0x80 SHL PUSH1 0x40 DUP3 ADD MSTORE PUSH1 0x60 ADD SWAP1 JUMP JUMPDEST PUSH1 0x20 DUP1 DUP3 MSTORE DUP2 DUP2 ADD MSTORE PUSH32 0x4F776E61626C653A2063616C6C6572206973206E6F7420746865206F776E6572 PUSH1 0x40 DUP3 ADD MSTORE PUSH1 0x60 ADD SWAP1 JUMP JUMPDEST PUSH1 0x20 DUP1 DUP3 MSTORE PUSH1 0x17 SWAP1 DUP3 ADD MSTORE PUSH32 0x496E73756666696369656E7420436F6C6C61746572616C000000000000000000 PUSH1 0x40 DUP3 ADD MSTORE PUSH1 0x60 ADD SWAP1 JUMP JUMPDEST PUSH1 0x20 DUP1 DUP3 MSTORE PUSH1 0xE SWAP1 DUP3 ADD MSTORE PUSH14 0x1499595B9D1C985B9D0818D85B1B PUSH1 0x92 SHL PUSH1 0x40 DUP3 ADD MSTORE PUSH1 0x60 ADD SWAP1 JUMP JUMPDEST PUSH1 0x20 DUP1 DUP3 MSTORE PUSH1 0x12 SWAP1 DUP3 ADD MSTORE PUSH18 0x496E73756666696369656E74205265706179 PUSH1 0x70 SHL PUSH1 0x40 DUP3 ADD MSTORE PUSH1 0x60 ADD SWAP1 JUMP JUMPDEST PUSH1 0x20 DUP1 DUP3 MSTORE PUSH1 0x13 SWAP1 DUP3 ADD MSTORE PUSH19 0x10D1CE881B9BC81B585C9AD95D08199BDD5B99 PUSH1 0x6A SHL PUSH1 0x40 DUP3 ADD MSTORE PUSH1 0x60 ADD SWAP1 JUMP JUMPDEST PUSH1 0x0 PUSH2 0x200 DUP3 ADD SWAP1 POP PUSH2 0x3CAA DUP3 DUP5 MLOAD PUSH2 0x388C JUMP JUMPDEST PUSH1 0x20 DUP4 ADD MLOAD PUSH2 0x3CBC PUSH1 0x20 DUP5 ADD DUP3 PUSH2 0x390C JUMP JUMPDEST POP PUSH1 0x40 DUP4 ADD MLOAD PUSH2 0x3CCF PUSH1 0x40 DUP5 ADD DUP3 PUSH2 0x390C JUMP JUMPDEST POP PUSH1 0x60 DUP4 ADD MLOAD PUSH1 0x60 DUP4 ADD MSTORE PUSH1 0x80 DUP4 ADD MLOAD PUSH1 0x80 DUP4 ADD MSTORE PUSH1 0xA0 DUP4 ADD MLOAD PUSH1 0xA0 DUP4 ADD MSTORE PUSH1 0xC0 DUP4 ADD MLOAD PUSH1 0xC0 DUP4 ADD MSTORE PUSH1 0xE0 DUP4 ADD MLOAD PUSH1 0xE0 DUP4 ADD MSTORE PUSH2 0x100 DUP1 DUP5 ADD MLOAD DUP2 DUP5 ADD MSTORE POP PUSH2 0x120 DUP1 DUP5 ADD MLOAD DUP2 DUP5 ADD MSTORE POP PUSH2 0x140 DUP1 DUP5 ADD MLOAD PUSH2 0x3D2D DUP3 DUP6 ADD DUP3 PUSH2 0x3899 JUMP JUMPDEST POP POP PUSH2 0x160 DUP4 ADD MLOAD PUSH2 0x3D43 PUSH2 0x1A0 DUP5 ADD DUP3 PUSH2 0x38EA JUMP JUMPDEST POP SWAP3 SWAP2 POP POP JUMP JUMPDEST PUSH1 0x0 PUSH1 0xE0 DUP3 ADD SWAP1 POP DUP3 MLOAD DUP3 MSTORE PUSH1 0x20 DUP4 ADD MLOAD PUSH1 0x20 DUP4 ADD MSTORE PUSH1 0x40 DUP4 ADD MLOAD ISZERO ISZERO PUSH1 0x40 DUP4 ADD MSTORE PUSH1 0x60 DUP4 ADD MLOAD PUSH1 0x60 DUP4 ADD MSTORE PUSH1 0x80 DUP4 ADD MLOAD PUSH1 0x80 DUP4 ADD MSTORE PUSH1 0xA0 DUP4 ADD MLOAD PUSH1 0xA0 DUP4 ADD MSTORE PUSH1 0xC0 DUP4 ADD MLOAD PUSH1 0xC0 DUP4 ADD MSTORE SWAP3 SWAP2 POP POP JUMP JUMPDEST PUSH1 0x1 PUSH1 0x1 PUSH1 0x80 SHL SUB SWAP2 SWAP1 SWAP2 AND DUP2 MSTORE PUSH1 0x20 ADD SWAP1 JUMP JUMPDEST PUSH2 0xFFFF SWAP3 SWAP1 SWAP3 AND DUP3 MSTORE PUSH1 0x20 DUP3 ADD MSTORE PUSH1 0x40 ADD SWAP1 JUMP JUMPDEST PUSH1 0x0 DUP5 DUP3 MSTORE PUSH1 0x40 PUSH1 0x20 DUP4 ADD MSTORE PUSH2 0x1AA4 PUSH1 0x40 DUP4 ADD DUP5 DUP7 PUSH2 0x38C0 JUMP JUMPDEST DUP2 DUP2 PUSH1 0x0 DUP1 JUMPDEST PUSH1 0x3 DUP2 LT ISZERO PUSH2 0x3E3A JUMPI DUP4 CALLDATALOAD PUSH2 0x3DF6 DUP2 PUSH2 0x405B JUMP JUMPDEST DUP4 SLOAD PUSH2 0xFFFF PUSH1 0x8 DUP6 MUL DUP2 DUP2 SHL DUP1 NOT SWAP1 SWAP4 AND SWAP4 SWAP1 SWAP2 AND SWAP1 SHL AND OR DUP4 SSTORE PUSH1 0x20 SWAP4 SWAP1 SWAP4 ADD SWAP3 PUSH1 0x2 SWAP1 SWAP2 ADD SWAP1 PUSH1 0x1E DUP3 GT ISZERO PUSH2 0x3E32 JUMPI PUSH1 0x0 SWAP2 POP PUSH1 0x1 DUP4 ADD SWAP3 POP JUMPDEST PUSH1 0x1 ADD PUSH2 0x3DE2 JUMP JUMPDEST POP POP POP POP POP POP JUMP JUMPDEST PUSH1 0x0 JUMPDEST DUP4 DUP2 LT ISZERO PUSH2 0x3E5D JUMPI DUP2 DUP2 ADD MLOAD DUP4 DUP3 ADD MSTORE PUSH1 0x20 ADD PUSH2 0x3E45 JUMP JUMPDEST DUP4 DUP2 GT ISZERO PUSH2 0x362 JUMPI POP POP PUSH1 0x0 SWAP2 ADD MSTORE JUMP JUMPDEST PUSH1 0x0 DUP2 CALLDATALOAD PUSH2 0xDF1 DUP2 PUSH2 0x405B JUMP JUMPDEST PUSH1 0x0 DUP2 CALLDATALOAD PUSH2 0xDF1 DUP2 PUSH2 0x406E JUMP JUMPDEST PUSH1 0x0 DUP2 CALLDATALOAD PUSH2 0xDF1 DUP2 PUSH2 0x4080 JUMP JUMPDEST DUP2 CALLDATALOAD PUSH2 0x3EA0 DUP2 PUSH2 0x405B JUMP JUMPDEST PUSH2 0xFFFF DUP2 AND PUSH2 0xFFFF NOT DUP4 SLOAD AND OR DUP3 SSTORE POP PUSH2 0x3EC5 PUSH2 0x3EBF PUSH1 0x20 DUP5 ADD PUSH2 0x3E6E JUMP JUMPDEST DUP3 PUSH2 0x3FFD JUMP JUMPDEST PUSH2 0x3EDA PUSH2 0x3ED4 PUSH1 0x40 DUP5 ADD PUSH2 0x3E7B JUMP JUMPDEST DUP3 PUSH2 0x4019 JUMP JUMPDEST PUSH2 0x3EEF PUSH2 0x3EE9 PUSH1 0x60 DUP5 ADD PUSH2 0x3E6E JUMP JUMPDEST DUP3 PUSH2 0x403D JUMP JUMPDEST PUSH2 0x3F04 PUSH2 0x3EFE PUSH1 0x80 DUP5 ADD PUSH2 0x3E88 JUMP JUMPDEST DUP3 PUSH2 0x3F6A JUMP JUMPDEST PUSH2 0x3F19 PUSH2 0x3F13 PUSH1 0xA0 DUP5 ADD PUSH2 0x3E88 JUMP JUMPDEST DUP3 PUSH2 0x3F87 JUMP JUMPDEST PUSH2 0x3F2E PUSH2 0x3F28 PUSH1 0xC0 DUP5 ADD PUSH2 0x3E88 JUMP JUMPDEST DUP3 PUSH2 0x3FA4 JUMP JUMPDEST PUSH2 0x3F43 PUSH2 0x3F3D PUSH1 0xE0 DUP5 ADD PUSH2 0x3E88 JUMP JUMPDEST DUP3 PUSH2 0x3FC1 JUMP JUMPDEST PUSH2 0x3F59 PUSH2 0x3F53 PUSH2 0x100 DUP5 ADD PUSH2 0x3E6E JUMP JUMPDEST DUP3 PUSH2 0x3FDE JUMP JUMPDEST PUSH2 0x3053 PUSH2 0x120 DUP4 ADD PUSH1 0x1 DUP4 ADD PUSH2 0x3DDC JUMP JUMPDEST DUP1 SLOAD PUSH1 0xFF PUSH1 0x50 SHL NOT AND PUSH1 0x50 SWAP3 SWAP1 SWAP3 SHL PUSH1 0xFF PUSH1 0x50 SHL AND SWAP2 SWAP1 SWAP2 OR SWAP1 SSTORE JUMP JUMPDEST DUP1 SLOAD PUSH1 0xFF PUSH1 0x58 SHL NOT AND PUSH1 0x58 SWAP3 SWAP1 SWAP3 SHL PUSH1 0xFF PUSH1 0x58 SHL AND SWAP2 SWAP1 SWAP2 OR SWAP1 SSTORE JUMP JUMPDEST DUP1 SLOAD PUSH1 0xFF PUSH1 0x60 SHL NOT AND PUSH1 0x60 SWAP3 SWAP1 SWAP3 SHL PUSH1 0xFF PUSH1 0x60 SHL AND SWAP2 SWAP1 SWAP2 OR SWAP1 SSTORE JUMP JUMPDEST DUP1 SLOAD PUSH1 0xFF PUSH1 0x68 SHL NOT AND PUSH1 0x68 SWAP3 SWAP1 SWAP3 SHL PUSH1 0xFF PUSH1 0x68 SHL AND SWAP2 SWAP1 SWAP2 OR SWAP1 SSTORE JUMP JUMPDEST DUP1 SLOAD PUSH2 0xFFFF PUSH1 0x70 SHL NOT AND PUSH1 0x70 SWAP3 SWAP1 SWAP3 SHL PUSH2 0xFFFF PUSH1 0x70 SHL AND SWAP2 SWAP1 SWAP2 OR SWAP1 SSTORE JUMP JUMPDEST DUP1 SLOAD PUSH4 0xFFFF0000 DUP4 PUSH1 0x10 SHL AND PUSH4 0xFFFF0000 NOT DUP3 AND OR DUP3 SSTORE POP POP POP JUMP JUMPDEST DUP1 SLOAD PUSH8 0xFFFFFFFF00000000 DUP4 PUSH1 0x20 SHL AND PUSH8 0xFFFFFFFF00000000 NOT DUP3 AND OR DUP3 SSTORE POP POP POP JUMP JUMPDEST DUP1 SLOAD PUSH2 0xFFFF PUSH1 0x40 SHL DUP4 PUSH1 0x40 SHL AND PUSH2 0xFFFF PUSH1 0x40 SHL NOT DUP3 AND OR DUP3 SSTORE POP POP POP JUMP JUMPDEST PUSH2 0xFFFF DUP2 AND DUP2 EQ PUSH2 0x406B JUMPI PUSH1 0x0 DUP1 REVERT JUMPDEST POP JUMP JUMPDEST PUSH4 0xFFFFFFFF DUP2 AND DUP2 EQ PUSH2 0x406B JUMPI PUSH1 0x0 DUP1 REVERT JUMPDEST PUSH1 0xFF DUP2 AND DUP2 EQ PUSH2 0x406B JUMPI PUSH1 0x0 DUP1 REVERT INVALID LOG2 PUSH5 0x6970667358 0x22 SLT KECCAK256 SWAP14 0xD 0xC6 DUP13 0xF6 SWAP4 PUSH10 0xB017801E34E716D1AD46 0xE0 MUL 0xB3 PUSH21 0xE460E2199AF356130A5FFF64736F6C634300070600 CALLER ","sha1":"dabf8b0c5e84934a196f11e142e7e0b74294b2e7","source":"// SPDX-License-Identifier: GPL-3.0-only\npragma solidity =0.7.6;\npragma abicoder v2;\n\nimport {ActionGuards} from \"./ActionGuards.sol\";\nimport {IVaultAction} from \"../../../../interfaces/notional/IVaultController.sol\";\nimport \"../../internal/vaults/VaultConfiguration.sol\";\nimport \"../../internal/vaults/VaultAccount.sol\";\nimport {VaultStateLib, VaultState} from \"../../internal/vaults/VaultState.sol\";\n\nimport {LibStorage} from \"../../global/LibStorage.sol\";\nimport {SafeUint256} from \"../../math/SafeUint256.sol\";\n\ncontract VaultAction is ActionGuards, IVaultAction {\n    using VaultConfiguration for VaultConfig;\n    using VaultAccountLib for VaultAccount;\n    using VaultStateLib for VaultState;\n    using AssetRate for AssetRateParameters;\n    using TokenHandler for Token;\n    using SafeInt256 for int256;\n    using SafeUint256 for uint256;\n\n    /**\n     * @notice Updates or lists a deployed vault along with its configuration.\n     *\n     * @param vaultAddress address of deployed vault\n     * @param vaultConfig struct of vault configuration\n     * @param maxPrimaryBorrowCapacity maximum borrow capacity\n     */\n    function updateVault(\n        address vaultAddress,\n        VaultConfigStorage calldata vaultConfig,\n        uint80 maxPrimaryBorrowCapacity\n    ) external override onlyOwner {\n        VaultConfiguration.setVaultConfig(vaultAddress, vaultConfig);\n        VaultConfiguration.setMaxBorrowCapacity(vaultAddress, vaultConfig.borrowCurrencyId, maxPrimaryBorrowCapacity);\n        bool enabled = (vaultConfig.flags & VaultConfiguration.ENABLED) == VaultConfiguration.ENABLED;\n        emit VaultChange(vaultAddress, enabled);\n    }\n\n    /**\n     * @notice Enables or disables a vault. If a vault is disabled, no one can enter\n     * the vault anymore.\n     *\n     * @param vaultAddress address of deployed vault\n     * @param enable bool if the vault should be enabled immediately\n     */\n    function setVaultPauseStatus(\n        address vaultAddress,\n        bool enable\n    ) external override onlyOwner {\n        VaultConfiguration.setVaultEnabledStatus(vaultAddress, enable);\n        emit VaultPauseStatus(vaultAddress, enable);\n    }\n\n    /**\n     * @notice Allows the owner to reduce the max borrow capacity on the vault and force\n     * the redemption of strategy tokens to cash to reduce the overall risk of the vault.\n     * This method is intended to be used in emergencies to mitigate insolvency risk.\n     * @param vaultAddress address of the vault\n     * @param maxVaultBorrowCapacity the new max vault borrow capacity on the primary currency\n     * @param maturity the maturity to redeem tokens in, will generally be either the current\n     * maturity or the next maturity.\n     * @param strategyTokensToRedeem how many tokens we would want to redeem in the maturity\n     * @param vaultData vault data to pass to the vault\n     */\n    function reduceMaxBorrowCapacity(\n        address vaultAddress,\n        uint80 maxVaultBorrowCapacity,\n        uint256 maturity,\n        uint256 strategyTokensToRedeem,\n        bytes calldata vaultData\n    ) external override onlyOwner {\n        VaultConfig memory vaultConfig = VaultConfiguration.getVaultConfigStateful(vaultAddress);\n        VaultConfiguration.setMaxBorrowCapacity(vaultAddress, vaultConfig.borrowCurrencyId, maxVaultBorrowCapacity);\n        _redeemStrategyTokensToCashInternal(vaultConfig, maturity, strategyTokensToRedeem, vaultData);\n    }\n\n    /**\n     * @notice Whitelists a secondary borrow currency for a vault, vaults can borrow up to the capacity\n     * using the `borrowSecondaryCurrencyToVault` and `repaySecondaryCurrencyToVault` methods. Vaults that\n     * use a secondary currency must ALWAYS repay the secondary debt during redemption and handle accounting\n     * for the secondary currency themselves.\n     *\n     * @param vaultAddress address of deployed vault\n     * @param secondaryCurrencyId struct of vault configuration\n     * @param maxBorrowCapacity maximum borrow capacity\n     */\n    function updateSecondaryBorrowCapacity(\n        address vaultAddress,\n        uint16 secondaryCurrencyId,\n        uint80 maxBorrowCapacity\n    ) external override onlyOwner {\n        VaultConfig memory vaultConfig = VaultConfiguration.getVaultConfigStateful(vaultAddress);\n        // The secondary borrow currency must be white listed on the configuration before we can set a max\n        // capacity.\n        require(\n            secondaryCurrencyId == vaultConfig.secondaryBorrowCurrencies[0] ||\n            secondaryCurrencyId == vaultConfig.secondaryBorrowCurrencies[1] ||\n            secondaryCurrencyId == vaultConfig.secondaryBorrowCurrencies[2],\n            \"Invalid Currency\"\n        );\n\n        VaultConfiguration.setMaxBorrowCapacity(vaultAddress, secondaryCurrencyId, maxBorrowCapacity);\n    }\n\n    /**\n     * @notice Strategy vaults can call this method to redeem strategy tokens to cash\n     * and hold them as asset cash within the pool. This should typically be used\n     * during settlement but can also be used for vault-wide deleveraging.\n     * @param maturity the maturity of the vault where the redemption will take place\n     * @param strategyTokensToRedeem the number of strategy tokens redeemed\n     * @param vaultData arbitrary data to pass back to the vault\n     * @return assetCashRequiredToSettle amount of asset cash still remaining to settle the debt\n     * @return underlyingCashRequiredToSettle amount of underlying cash still remaining to settle the debt\n     */\n    function redeemStrategyTokensToCash(\n        uint256 maturity,\n        uint256 strategyTokensToRedeem,\n        bytes calldata vaultData\n    ) external override returns (\n        int256 assetCashRequiredToSettle,\n        int256 underlyingCashRequiredToSettle\n    ) {\n        // NOTE: this call must come from the vault itself\n        VaultConfig memory vaultConfig = VaultConfiguration.getVaultConfigStateful(msg.sender);\n        // NOTE: if the msg.sender is not the vault itself this will revert\n        require(vaultConfig.getFlag(VaultConfiguration.ENABLED), \"Paused\");\n        return _redeemStrategyTokensToCashInternal(vaultConfig, maturity, strategyTokensToRedeem, vaultData);\n    }\n\n    function _redeemStrategyTokensToCashInternal(\n        VaultConfig memory vaultConfig,\n        uint256 maturity,\n        uint256 strategyTokensToRedeem,\n        bytes calldata vaultData\n    ) private nonReentrant returns (\n        int256 assetCashRequiredToSettle,\n        int256 underlyingCashRequiredToSettle\n    ) {\n        // If the vault allows further re-entrancy then set the status back to the default\n        if (vaultConfig.getFlag(VaultConfiguration.ALLOW_REENTRANCY)) {\n            reentrancyStatus = _NOT_ENTERED;\n        }\n\n        VaultState memory vaultState = VaultStateLib.getVaultState(vaultConfig.vault, maturity);\n        int256 assetCashReceived = vaultConfig.redeem(vaultConfig.vault, strategyTokensToRedeem, maturity, vaultData);\n        require(assetCashReceived > 0);\n\n        vaultState.totalAssetCash = vaultState.totalAssetCash.add(uint256(assetCashReceived));\n        vaultState.totalStrategyTokens = vaultState.totalStrategyTokens.sub(strategyTokensToRedeem);\n        vaultState.setVaultState(vaultConfig.vault);\n\n        return _getCashRequiredToSettle(vaultConfig, vaultState, maturity);\n    }\n\n    /**\n     * @notice Strategy vaults can call this method to deposit asset cash into strategy tokens.\n     * @param maturity the maturity of the vault where the redemption will take place\n     * @param assetCashToDepositExternal the number of asset cash tokens to deposit (external)\n     * @param vaultData arbitrary data to pass back to the vault for deposit\n     */\n    function depositVaultCashToStrategyTokens(\n        uint256 maturity,\n        uint256 assetCashToDepositExternal,\n        bytes calldata vaultData\n    ) external override nonReentrant {\n        VaultConfig memory vaultConfig = VaultConfiguration.getVaultConfigStateful(msg.sender);\n        // If the vault allows further re-entrancy then set the status back to the default\n        if (vaultConfig.getFlag(VaultConfiguration.ALLOW_REENTRANCY)) {\n            reentrancyStatus = _NOT_ENTERED;\n        }\n\n        // NOTE: if the msg.sender is not the vault itself this will revert\n        require(vaultConfig.getFlag(VaultConfiguration.ENABLED), \"Paused\");\n\n        VaultState memory vaultState = VaultStateLib.getVaultState(msg.sender, maturity);\n        Token memory assetToken = TokenHandler.getAssetToken(vaultConfig.borrowCurrencyId);\n\n        int256 assetCashInternal = assetToken.convertToInternal(SafeInt256.toInt(assetCashToDepositExternal));\n        uint256 strategyTokensMinted = vaultConfig.deposit(vaultConfig.vault, assetCashInternal, maturity, vaultData);\n\n        vaultState.totalAssetCash = vaultState.totalAssetCash.sub(SafeInt256.toUint(assetCashInternal));\n        vaultState.totalStrategyTokens = vaultState.totalStrategyTokens.add(strategyTokensMinted);\n        vaultState.setVaultState(msg.sender);\n\n        // When exchanging asset cash for strategy tokens we will decrease the vault's collateral, ensure that\n        // we don't go under the configured minimum here.\n        vaultConfig.checkCollateralRatio(vaultState, vaultState.totalVaultShares, vaultState.totalfCash);\n    }\n\n    function borrowSecondaryCurrencyToVault(\n        uint16 currencyId,\n        uint256 maturity,\n        uint256 fCashToBorrow,\n        uint32 maxBorrowRate\n    ) external override returns (uint256 underlyingTokensTransferred) {\n        int256 netAssetCash = _executeSecondaryCurrencyTrade(\n            currencyId, maturity, fCashToBorrow.toInt().neg(), maxBorrowRate\n        );\n        // Require that borrow trades succeed\n        require(netAssetCash > 0, \"Trade Failed\");\n\n        // Redeem returns a negative number to signify that assets have left the protocol\n        Token memory assetToken = TokenHandler.getAssetToken(currencyId);\n        underlyingTokensTransferred = assetToken.redeem(\n            currencyId, msg.sender, assetToken.convertToExternal(netAssetCash).toUint()\n        ).neg().toUint();\n    }\n\n    function repaySecondaryCurrencyFromVault(\n        uint16 currencyId,\n        uint256 maturity,\n        uint256 fCashToLend,\n        uint32 minLendRate,\n        bytes calldata callbackData\n    ) external override returns (bytes memory returnData) {\n        int256 netAssetCash;\n        int256 netfCash = fCashToLend.toInt();\n        if (maturity > block.timestamp) {\n            netAssetCash = _executeSecondaryCurrencyTrade(currencyId, maturity, netfCash, minLendRate);\n        } else {\n            // Post maturity, repayment must be done via the settlement rate\n            AssetRateParameters memory settlementRate = AssetRate.buildSettlementRateView(currencyId, maturity);\n            netAssetCash = settlementRate.convertFromUnderlying(netfCash).neg();\n            VaultConfiguration.updateSecondaryBorrowCapacity(msg.sender, currencyId, maturity, netfCash);\n        }\n        Token memory assetToken = TokenHandler.getAssetToken(currencyId);\n\n        // The vault MUST return exactly this amount of asset tokens to the vault in the callback. We use\n        // a callback here because it is more precise and gas efficient than calculating netAssetCash twoice\n        uint256 assetCashRequiredExternal = assetToken.convertAssetInternalToNativeExternal(\n            currencyId, netAssetCash.neg()\n        ).toUint();\n\n        uint256 balanceBefore = IERC20(assetToken.tokenAddress).balanceOf(address(this));\n        // Tells the vault will redeem the strategy token amount and transfer asset tokens back to Notional\n        returnData = IStrategyVault(msg.sender).repaySecondaryBorrowCallback(\n            assetCashRequiredExternal, callbackData\n        );\n        uint256 balanceAfter = IERC20(assetToken.tokenAddress).balanceOf(address(this));\n        require(balanceAfter.sub(balanceBefore) >= assetCashRequiredExternal, \"Insufficient Repay\");\n    }\n\n    function _executeSecondaryCurrencyTrade(\n        uint16 currencyId,\n        uint256 maturity,\n        int256 netfCash,\n        uint32 slippageLimit\n    ) internal returns (int256 netAssetCash) {\n        // This method call must come from the vault\n        VaultConfig memory vaultConfig = VaultConfiguration.getVaultConfigStateful(msg.sender);\n        require(vaultConfig.getFlag(VaultConfiguration.ENABLED), \"Paused\");\n        require(currencyId != vaultConfig.borrowCurrencyId);\n\n        VaultConfiguration.updateSecondaryBorrowCapacity(msg.sender, currencyId, maturity, netfCash);\n\n        netAssetCash = VaultAccountLib.executeTrade(\n            currencyId,\n            maturity,\n            netfCash,\n            slippageLimit,\n            vaultConfig.maxBorrowMarketIndex,\n            block.timestamp\n        );\n\n        // If netAssetCash is zero then the contract must lend at 0% interest using the asset cash\n        // exchange rate. In this case, the vault forgoes any money market interest on asset cash\n        if (netfCash > 0 && netAssetCash == 0) {\n            netAssetCash = vaultConfig.assetRate.convertFromUnderlying(netfCash).neg();\n        }\n    }\n\n    /**\n     * @notice Settles an entire vault, can only be called during an emergency stop out or during\n     * the vault's defined settlement period. May be called multiple times during a vault term if\n     * the vault has been stopped out early.\n     *\n     * @param vault the vault to settle\n     * @param maturity the maturity of the vault\n     */\n    function settleVault(address vault, uint256 maturity) external override nonReentrant {\n        VaultConfig memory vaultConfig = VaultConfiguration.getVaultConfigStateful(vault);\n        // Allow anyone to call this method unless it must be authorized by the vault. Generally speaking,\n        // as long as there is sufficient cash on the vault we should be able to settle\n        vaultConfig.authorizeCaller(msg.sender, VaultConfiguration.ONLY_VAULT_SETTLE);\n\n        VaultState memory vaultState = VaultStateLib.getVaultState(vault, maturity);\n        // Ensure that we are past maturity and the vault is able to settle\n        require(maturity <= block.timestamp && vaultState.isSettled == false, \"Cannot Settle\");\n\n        AssetRateParameters memory settlementRate = AssetRate.buildSettlementRateStateful(\n            vaultConfig.borrowCurrencyId,\n            maturity,\n            block.timestamp\n        );\n\n        // This is how much it costs in asset cash to settle the pooled portion of the vault\n        uint256 assetCashRequiredToSettle = settlementRate.convertFromUnderlying(\n            vaultState.totalfCash.neg()\n        ).toUint();\n\n        // Validate that all secondary currencies have been paid off.\n        mapping(uint256 => VaultSecondaryBorrowStorage) storage perCurrencyBalance =\n            LibStorage.getVaultSecondaryBorrow()[vault][maturity];\n        if (vaultConfig.secondaryBorrowCurrencies[0] != 0) {\n            require(perCurrencyBalance[vaultConfig.secondaryBorrowCurrencies[0]].fCashBorrowed == 0, \"Unpaid Borrow\");\n        }\n        if (vaultConfig.secondaryBorrowCurrencies[1] != 0) {\n            require(perCurrencyBalance[vaultConfig.secondaryBorrowCurrencies[1]].fCashBorrowed == 0, \"Unpaid Borrow\");\n        }\n        if (vaultConfig.secondaryBorrowCurrencies[2] != 0) {\n            require(perCurrencyBalance[vaultConfig.secondaryBorrowCurrencies[2]].fCashBorrowed == 0, \"Unpaid Borrow\");\n        }\n\n        if (vaultState.totalAssetCash < assetCashRequiredToSettle) {\n            // Don't allow the pooled portion of the vault to have a cash shortfall unless all\n            // strategy tokens have been redeemed to asset cash.\n            require(vaultState.totalStrategyTokens == 0, \"Redeem all tokens\");\n\n            // After this point, we have a cash shortfall and will need to resolve it.\n            // Underflow checked above\n            int256 assetCashShortfall = (assetCashRequiredToSettle - vaultState.totalAssetCash).toInt();\n            uint16 currencyId = vaultConfig.borrowCurrencyId;\n            emit VaultShortfall(currencyId, vaultConfig.vault, assetCashShortfall);\n\n            // Attempt to resolve the cash balance using the reserve\n            (int256 reserveInternal, /* */, /* */, /* */) = BalanceHandler.getBalanceStorage(\n                Constants.RESERVE, currencyId\n            );\n\n            if (assetCashShortfall <= reserveInternal) {\n                BalanceHandler.setReserveCashBalance(currencyId, reserveInternal - assetCashShortfall);\n                vaultState.totalAssetCash = vaultState.totalAssetCash.add(assetCashShortfall.toUint());\n            } else {\n                // At this point the protocol needs to raise funds from sNOTE since the reserve is\n                // insufficient to cover\n                BalanceHandler.setReserveCashBalance(currencyId, 0);\n                vaultState.totalAssetCash = vaultState.totalAssetCash.add(reserveInternal.toUint());\n                emit ProtocolInsolvency(currencyId, vaultConfig.vault, assetCashShortfall - reserveInternal);\n            }\n\n            // If there is any cash shortfall, we automatically disable the vault. Accounts can still\n            // exit but no one can enter. Governance can re-enable the vault.\n            VaultConfiguration.setVaultEnabledStatus(vaultConfig.vault, false);\n            emit VaultPauseStatus(vaultConfig.vault, false);\n\n            vaultState.setVaultState(vault);\n        }\n\n        // Clears the used borrow capacity regardless of the insolvency state of the vault. Since vaults are\n        // automatically paused in the case of any shortfall, no accounts will be able to enter regardless\n        // but we still want to maintain proper accounting of the borrow capacity.\n        VaultConfiguration.updateUsedBorrowCapacity(vault, vaultConfig.borrowCurrencyId, vaultState.totalfCash.neg());\n        VaultStateLib.setSettledVaultState(vaultConfig, maturity, block.timestamp);\n    }\n\n    /** View Methods **/\n    function getVaultConfig(\n        address vault\n    ) external view override returns (VaultConfig memory vaultConfig) {\n        vaultConfig = VaultConfiguration.getVaultConfigView(vault);\n    }\n\n    function getVaultState(\n        address vault,\n        uint256 maturity\n    ) external view override returns (VaultState memory vaultState) {\n        vaultState = VaultStateLib.getVaultState(vault, maturity);\n    }\n\n    function getBorrowCapacity(\n        address vault,\n        uint16 currencyId\n    ) external view override returns (\n        uint256 totalUsedBorrowCapacity,\n        uint256 maxBorrowCapacity\n    ) {\n        VaultBorrowCapacityStorage storage cap = LibStorage.getVaultBorrowCapacity()[vault][currencyId];\n        totalUsedBorrowCapacity = cap.totalUsedBorrowCapacity;\n        maxBorrowCapacity = cap.maxBorrowCapacity;\n    }\n\n    function getSecondaryBorrow(address vault, uint16 currencyId, uint256 maturity) \n        external view override returns (uint256 totalfCashBorrowed) {\n        VaultSecondaryBorrowStorage storage balance = \n            LibStorage.getVaultSecondaryBorrow()[vault][maturity][currencyId];\n        totalfCashBorrowed = balance.fCashBorrowed;\n    }\n\n    function getCashRequiredToSettle(\n        address vault,\n        uint256 maturity\n    ) external view override returns (\n        int256 assetCashRequiredToSettle,\n        int256 underlyingCashRequiredToSettle\n    ) {\n        VaultConfig memory vaultConfig = VaultConfiguration.getVaultConfigView(vault);\n        VaultState memory vaultState = VaultStateLib.getVaultState(vaultConfig.vault, maturity);\n        return _getCashRequiredToSettle(vaultConfig, vaultState, maturity);\n    }\n\n    function _getCashRequiredToSettle(\n        VaultConfig memory vaultConfig,\n        VaultState memory vaultState,\n        uint256 maturity\n    ) private view returns (\n        int256 assetCashRequiredToSettle,\n        int256 underlyingCashRequiredToSettle\n    ) {\n        // If this is prior to maturity, it will return the current asset rate. After maturity it will\n        // return the settlement rate.\n        AssetRateParameters memory ar = AssetRate.buildSettlementRateView(vaultConfig.borrowCurrencyId, maturity);\n        \n        // If this is a positive number, there is more cash remaining to be settled.\n        // If this is a negative number, there is more cash than required to repay the debt\n        int256 assetCashInternal = ar.convertFromUnderlying(vaultState.totalfCash)\n            .add(vaultState.totalAssetCash.toInt())\n            .neg();\n\n        Token memory assetToken = TokenHandler.getAssetToken(vaultConfig.borrowCurrencyId);\n        Token memory underlyingToken = TokenHandler.getUnderlyingToken(vaultConfig.borrowCurrencyId);\n        assetCashRequiredToSettle = assetToken.convertToExternal(assetCashInternal);\n        underlyingCashRequiredToSettle = underlyingToken.convertToExternal(ar.convertToUnderlying(assetCashInternal));\n    }\n\n    function getLibInfo() external pure returns (address) {\n        return address(TradingAction);\n    }\n}","sourcePath":"contracts/external/actions/VaultAction.sol","type":"contract","deployment":{"address":"0x342D4e90ff00d1d37fb73bc44a241Db825c72CD2","chainid":"5","blockHeight":7059577}}