{"abi":[{"inputs":[{"components":[{"internalType":"address","name":"governance","type":"address"},{"internalType":"address","name":"views","type":"address"},{"internalType":"address","name":"initializeMarket","type":"address"},{"internalType":"address","name":"nTokenActions","type":"address"},{"internalType":"address","name":"batchAction","type":"address"},{"internalType":"address","name":"accountAction","type":"address"},{"internalType":"address","name":"erc1155","type":"address"},{"internalType":"address","name":"liquidateCurrency","type":"address"},{"internalType":"address","name":"liquidatefCash","type":"address"},{"internalType":"address","name":"cETH","type":"address"},{"internalType":"address","name":"treasury","type":"address"},{"internalType":"address","name":"calculationViews","type":"address"},{"internalType":"address","name":"vaultAccountAction","type":"address"},{"internalType":"address","name":"vaultAction","type":"address"}],"internalType":"struct Router.DeployedContracts","name":"contracts","type":"tuple"}],"stateMutability":"nonpayable","type":"constructor","name":"constructor"},{"stateMutability":"payable","type":"fallback"},{"inputs":[],"name":"ACCOUNT_ACTION","outputs":[{"internalType":"address","name":"","type":"address"}],"stateMutability":"view","type":"function"},{"inputs":[],"name":"BATCH_ACTION","outputs":[{"internalType":"address","name":"","type":"address"}],"stateMutability":"view","type":"function"},{"inputs":[],"name":"CALCULATION_VIEWS","outputs":[{"internalType":"address","name":"","type":"address"}],"stateMutability":"view","type":"function"},{"inputs":[],"name":"ERC1155","outputs":[{"internalType":"address","name":"","type":"address"}],"stateMutability":"view","type":"function"},{"inputs":[],"name":"GOVERNANCE","outputs":[{"internalType":"address","name":"","type":"address"}],"stateMutability":"view","type":"function"},{"inputs":[],"name":"INITIALIZE_MARKET","outputs":[{"internalType":"address","name":"","type":"address"}],"stateMutability":"view","type":"function"},{"inputs":[],"name":"LIQUIDATE_CURRENCY","outputs":[{"internalType":"address","name":"","type":"address"}],"stateMutability":"view","type":"function"},{"inputs":[],"name":"LIQUIDATE_FCASH","outputs":[{"internalType":"address","name":"","type":"address"}],"stateMutability":"view","type":"function"},{"inputs":[],"name":"NTOKEN_ACTIONS","outputs":[{"internalType":"address","name":"","type":"address"}],"stateMutability":"view","type":"function"},{"inputs":[],"name":"TREASURY","outputs":[{"internalType":"address","name":"","type":"address"}],"stateMutability":"view","type":"function"},{"inputs":[],"name":"VAULT_ACCOUNT_ACTION","outputs":[{"internalType":"address","name":"","type":"address"}],"stateMutability":"view","type":"function"},{"inputs":[],"name":"VAULT_ACTION","outputs":[{"internalType":"address","name":"","type":"address"}],"stateMutability":"view","type":"function"},{"inputs":[],"name":"VIEWS","outputs":[{"internalType":"address","name":"","type":"address"}],"stateMutability":"view","type":"function"},{"inputs":[],"name":"cETH","outputs":[{"internalType":"address","name":"","type":"address"}],"stateMutability":"view","type":"function"},{"inputs":[{"internalType":"bytes4","name":"sig","type":"bytes4"}],"name":"getRouterImplementation","outputs":[{"internalType":"address","name":"","type":"address"}],"stateMutability":"view","type":"function"},{"inputs":[{"internalType":"address","name":"owner_","type":"address"},{"internalType":"address","name":"pauseRouter_","type":"address"},{"internalType":"address","name":"pauseGuardian_","type":"address"}],"name":"initialize","outputs":[],"stateMutability":"nonpayable","type":"function"},{"inputs":[],"name":"owner","outputs":[{"internalType":"address","name":"","type":"address"}],"stateMutability":"view","type":"function"},{"inputs":[],"name":"pauseGuardian","outputs":[{"internalType":"address","name":"","type":"address"}],"stateMutability":"view","type":"function"},{"inputs":[],"name":"pauseRouter","outputs":[{"internalType":"address","name":"","type":"address"}],"stateMutability":"view","type":"function"}],"bytecode":"6102606040523480156200001257600080fd5b50604051620018fb380380620018fb833981016040819052620000359162000136565b80516001600160601b0319606091821b811660809081526020840151831b821660a09081526040850151841b831660c090815284860151851b841660e090815292860151851b841661010090815291860151851b841661012090815290860151851b841661014090815292860151851b841661016090815291860151851b841661018090815290860151851b84166101a090815292860151851b84166101c05290850151841b83166101e052840151831b82166102005290920151811b9091166102205233901b610240526000805463ff000000191663010000001790556200028c565b80516001600160a01b03811681146200013157600080fd5b919050565b60006101c08083850312156200014a578182fd5b620001558162000268565b9050620001628362000119565b8152620001726020840162000119565b6020820152620001856040840162000119565b6040820152620001986060840162000119565b6060820152620001ab6080840162000119565b6080820152620001be60a0840162000119565b60a0820152620001d160c0840162000119565b60c0820152620001e460e0840162000119565b60e0820152610100620001f981850162000119565b908201526101206200020d84820162000119565b908201526101406200022184820162000119565b908201526101606200023584820162000119565b908201526101806200024984820162000119565b908201526101a06200025d84820162000119565b908201529392505050565b6040518181016001600160401b03811182821017156200028457fe5b604052919050565b60805160601c60a05160601c60c05160601c60e05160601c6101005160601c6101205160601c6101405160601c6101605160601c6101805160601c6101a05160601c6101c05160601c6101e05160601c6102005160601c6102205160601c6102405160601c611553620003a860003980611156525080610a97528061135952508061043f5280611129525080610ef652806110bb525080610da8528061104f52508061110552806111c75250806108f85280610fd45250806108675280611007525080610652528061102b525080610505528061107352508061035d52806110975250806107d65280610fb0525080610af2528061137d525080610f1d5280610f68525080610cfc5280610f8c52806111f352506115536000f3fe6080604052600436106101145760003560e01c80636d7cdbbf116100a0578063a1b4d01111610064578063a1b4d0111461027a578063ba6b7fc21461028f578063c0c53b8b146102a4578063d8e310a4146102c4578063dcc1a738146102d957610114565b80636d7cdbbf1461020657806372d271341461021b57806376e1df481461023057806382463367146102505780638da5cb5b1461026557610114565b806324a3d622116100e757806324a3d6221461019d5780632be75895146101b25780632d255471146101c75780632d2c5565146101dc5780636009b8e6146101f157610114565b80630c4e793514610133578063146278341461015e57806315beeb9314610173578063206109b514610188575b61013161012c6000356001600160e01b0319166102ee565b610f42565b005b34801561013f57600080fd5b50610148610f66565b60405161015591906114b0565b60405180910390f35b34801561016a57600080fd5b50610148610f8a565b34801561017f57600080fd5b50610148610fae565b34801561019457600080fd5b50610148610fd2565b3480156101a957600080fd5b50610148610ff6565b3480156101be57600080fd5b50610148611005565b3480156101d357600080fd5b50610148611029565b3480156101e857600080fd5b5061014861104d565b3480156101fd57600080fd5b50610148611071565b34801561021257600080fd5b50610148611095565b34801561022757600080fd5b506101486110b9565b34801561023c57600080fd5b5061014861024b3660046113f8565b6102ee565b34801561025c57600080fd5b506101486110dd565b34801561027157600080fd5b506101486110ec565b34801561028657600080fd5b50610148611103565b34801561029b57600080fd5b50610148611127565b3480156102b057600080fd5b506101316102bf3660046113b6565b61114b565b3480156102d057600080fd5b50610148611357565b3480156102e557600080fd5b5061014861137b565b60006001600160e01b03198216633735195360e11b148061031f57506001600160e01b03198216630276b64b60e01b145b8061033a57506001600160e01b03198216635950d8e960e01b145b8061035557506001600160e01b03198216630541f52760e41b145b1561038157507f0000000000000000000000000000000000000000000000000000000000000000610f3d565b6001600160e01b03198216638f0ba30f60e01b14806103b057506001600160e01b0319821663734b723160e11b145b806103cb57506001600160e01b03198216636dad6afb60e01b145b806103e657506001600160e01b0319821663f292c41560e01b145b8061040157506001600160e01b0319821663c025d1a560e01b145b8061041c57506001600160e01b03198216630604ffab60e11b145b8061043757506001600160e01b0319821663323e60cb60e11b145b1561046357507f0000000000000000000000000000000000000000000000000000000000000000610f3d565b6001600160e01b03198216632890fb6560e01b148061049257506001600160e01b0319821663b8a6945560e01b145b806104ac57506001600160e01b03198216625e665d60e31b145b806104c757506001600160e01b0319821663f667f89760e01b145b806104e257506001600160e01b03198216636689064360e01b145b806104fd57506001600160e01b031982166309c9794560e41b145b1561052957507f0000000000000000000000000000000000000000000000000000000000000000610f3d565b6001600160e01b031982166301ffc9a760e01b148061055757506001600160e01b03198216627eeac760e11b145b8061057257506001600160e01b031982166313849cfd60e21b145b8061058d57506001600160e01b03198216630fac8f0960e01b145b806105a857506001600160e01b031982166381a8685560e01b145b806105c357506001600160e01b03198216637921219560e11b145b806105de57506001600160e01b03198216631759616b60e11b145b806105f957506001600160e01b031982166307f4d70160e31b145b8061061457506001600160e01b03198216630e6b43b960e31b145b8061062f57506001600160e01b0319821663a22cb46560e01b145b8061064a57506001600160e01b0319821663e985e9c560e01b145b1561067657507f0000000000000000000000000000000000000000000000000000000000000000610f3d565b6001600160e01b03198216636a96e86f60e01b14806106a557506001600160e01b03198216637db31ab960e01b145b806106c057506001600160e01b0319821663a78dbfff60e01b145b806106db57506001600160e01b0319821663184e005360e11b145b806106f657506001600160e01b031982166318ae40d760e01b145b8061071157506001600160e01b03198216634425384960e11b145b8061072c57506001600160e01b031982166305c1d97560e31b145b8061074757506001600160e01b03198216636d6503d360e11b145b8061076257506001600160e01b03198216631a05bce160e01b145b8061077d57506001600160e01b03198216633b2987b360e01b145b8061079857506001600160e01b03198216634cb6b35960e01b145b806107b357506001600160e01b031982166331e14c1960e11b145b806107ce57506001600160e01b0319821663450083df60e11b145b156107fa57507f0000000000000000000000000000000000000000000000000000000000000000610f3d565b6001600160e01b03198216632d10e6eb60e01b148061082957506001600160e01b03198216636633af3960e01b145b8061084457506001600160e01b0319821663e3e7cb4f60e01b145b8061085f57506001600160e01b03198216639a600eeb60e01b145b1561088b57507f0000000000000000000000000000000000000000000000000000000000000000610f3d565b6001600160e01b03198216631ff7aefd60e21b14806108ba57506001600160e01b0319821663e816469d60e01b145b806108d557506001600160e01b03198216630fb281d960e01b145b806108f057506001600160e01b0319821663fa37e39560e01b145b1561091c57507f0000000000000000000000000000000000000000000000000000000000000000610f3d565b6001600160e01b031982166351479e3960e01b148061094b57506001600160e01b031982166315bd0a3160e21b145b8061096657506001600160e01b03198216636b6ef5cd60e11b145b8061098157506001600160e01b0319821663291afdf360e01b145b8061099c57506001600160e01b0319821663341305ab60e21b145b806109b757506001600160e01b0319821663ee01436b60e01b145b806109d257506001600160e01b031982166383e50fb760e01b145b806109ed57506001600160e01b03198216636674bc3b60e11b145b80610a0857506001600160e01b0319821663295e6b7f60e01b145b80610a2357506001600160e01b0319821663de1eb9a360e01b145b80610a3e57506001600160e01b031982166333a8abbb60e11b145b80610a5957506001600160e01b031982166328536d5f60e21b145b80610a7457506001600160e01b03198216633157228160e01b145b80610a8f57506001600160e01b03198216636c346c0960e01b145b15610abb57507f0000000000000000000000000000000000000000000000000000000000000000610f3d565b6001600160e01b03198216630343819360e61b1480610aea57506001600160e01b03198216635db6eac760e11b145b15610b1657507f0000000000000000000000000000000000000000000000000000000000000000610f3d565b6001600160e01b03198216637abaf27160e11b1480610b4557506001600160e01b0319821663e31051a160e01b145b80610b6057506001600160e01b0319821663a11a429360e01b145b80610b7b57506001600160e01b03198216630528476560e51b145b80610b9657506001600160e01b0319821663315cb2b960e21b145b80610bb157506001600160e01b03198216632c90b94d60e21b145b80610bcc57506001600160e01b031982166309ce3c1960e31b145b80610be757506001600160e01b031982166354ebde2960e11b145b80610c0257506001600160e01b031982166398dcbc2360e01b145b80610c1d57506001600160e01b031982166333eabd1d60e21b145b80610c3857506001600160e01b0319821663413f2c5f60e01b145b80610c5357506001600160e01b03198216630d0da86760e21b145b80610c6e57506001600160e01b0319821663353abc5d60e01b145b80610c8957506001600160e01b0319821663fa17b5f160e01b145b80610ca457506001600160e01b0319821663113aa8b160e01b145b80610cbe57506001600160e01b031982166247466360e01b145b80610cd957506001600160e01b03198216631b2ce7f360e11b145b80610cf457506001600160e01b0319821663278f794360e11b145b15610d2057507f0000000000000000000000000000000000000000000000000000000000000000610f3d565b6001600160e01b03198216637d6dbff760e11b1480610d4f57506001600160e01b03198216636d7a00eb60e01b145b80610d6a57506001600160e01b03198216637f23d4f960e11b145b80610d8557506001600160e01b0319821663239cec8f60e21b145b80610da057506001600160e01b031982166312adc47b60e01b145b15610dcc57507f0000000000000000000000000000000000000000000000000000000000000000610f3d565b6001600160e01b03198216636a09a2a360e01b1480610dfb57506001600160e01b03198216638355e89560e01b145b80610e1657506001600160e01b0319821663094614df60e01b145b80610e3157506001600160e01b03198216634beb6d9760e11b145b80610e4c57506001600160e01b0319821663c52c43e160e01b145b80610e6757506001600160e01b03198216635953c77b60e01b145b80610e8257506001600160e01b03198216631f0750c160e31b145b80610e9d57506001600160e01b0319821663bac9e8b160e01b145b80610eb857506001600160e01b0319821663aaae47b560e01b145b80610ed357506001600160e01b0319821663416a158760e01b145b80610eee57506001600160e01b03198216631baefc5d60e21b145b15610f1a57507f0000000000000000000000000000000000000000000000000000000000000000610f3d565b507f00000000000000000000000000000000000000000000000000000000000000005b919050565b3660008037600080366000845af43d6000803e808015610f61573d6000f35b3d6000fd5b7f000000000000000000000000000000000000000000000000000000000000000081565b7f000000000000000000000000000000000000000000000000000000000000000081565b7f000000000000000000000000000000000000000000000000000000000000000081565b7f000000000000000000000000000000000000000000000000000000000000000081565b6002546001600160a01b031681565b7f000000000000000000000000000000000000000000000000000000000000000081565b7f000000000000000000000000000000000000000000000000000000000000000081565b7f000000000000000000000000000000000000000000000000000000000000000081565b7f000000000000000000000000000000000000000000000000000000000000000081565b7f000000000000000000000000000000000000000000000000000000000000000081565b7f000000000000000000000000000000000000000000000000000000000000000081565b6001546001600160a01b031681565b60005464010000000090046001600160a01b031681565b7f000000000000000000000000000000000000000000000000000000000000000081565b7f000000000000000000000000000000000000000000000000000000000000000081565b336001600160a01b037f00000000000000000000000000000000000000000000000000000000000000001614801561118d57506000546301000000900460ff16155b61119657600080fd5b60008054640100000000600160c01b03191633640100000000021781556040805160a0810182526001600160a01b037f000000000000000000000000000000000000000000000000000000000000000081168252602082018490527f00000000000000000000000000000000000000000000000000000000000000001691637abaf27160e11b9190810160028152600860208083019190915260006040928301819052825160a08101845281815291820152908101600381526012602082015260006040918201819052905161127c939291908190608590604b90606c906024016114c4565b60408051601f198184030181529181526020820180516001600160e01b03166001600160e01b03199094169390931790925290516112ba9190611477565b600060405180830381855af49150503d80600081146112f5576040519150601f19603f3d011682016040523d82523d6000602084013e6112fa565b606091505b505090508061130857600080fd5b50600080546001600160a01b0394851664010000000002640100000000600160c01b0319909116179055600180549284166001600160a01b031993841617905560028054919093169116179055565b7f000000000000000000000000000000000000000000000000000000000000000081565b7f000000000000000000000000000000000000000000000000000000000000000081565b80356001600160a01b0381168114610f3d57600080fd5b6000806000606084860312156113ca578283fd5b6113d38461139f565b92506113e16020850161139f565b91506113ef6040850161139f565b90509250925092565b600060208284031215611409578081fd5b81356001600160e01b031981168114611420578182fd5b9392505050565b80516001600160a01b0316825260208082015115159083015260408101516006811061144f57fe5b604083015260608181015160ff169083015260809081015168ffffffffffffffffff16910152565b60008251815b81811015611497576020818601810151858301520161147d565b818111156114a55782828501525b509190910192915050565b6001600160a01b0391909116815260200190565b6101e081016114d3828a611427565b6114e060a0830189611427565b6001600160a01b039690961661014082015293151561016085015260ff9283166101808501529082166101a0840152166101c0909101529291505056fea2646970667358221220d06b1e4eaf548464802675a94576c2aa56e31d459d724e9f3d8653b0f4175bf464736f6c63430007060033","bytecodeSha1":"e6926152a31706e9faf3901b11f6f22cb69d95ea","compiler":{"evm_version":"istanbul","optimizer":{"enabled":true,"runs":200},"version":"0.7.6+commit.7338295f"},"contractName":"Router","language":"Solidity","natspec":{"kind":"dev","methods":{"getRouterImplementation(bytes4)":{"notice":"Returns the implementation contract for the method signature","params":{"sig":"method signature to call"},"returns":{"_0":"implementation address"}}},"notice":"Sits behind an upgradeable proxy and routes methods to an appropriate implementation contract. All storage will sit inside the upgradeable proxy and this router will authorize the call and re-route the calls to implementing contracts. This pattern adds an additional hop between the proxy and the ultimate implementation contract, however, it also allows for atomic upgrades of the entire system. Individual implementation contracts will be deployed and then a new Router with the new hardcoded addresses will then be deployed and upgraded into place.","version":1},"opcodes":"PUSH1 0x80 PUSH1 0x40 MSTORE PUSH1 0x4 CALLDATASIZE LT PUSH2 0x114 JUMPI PUSH1 0x0 CALLDATALOAD PUSH1 0xE0 SHR DUP1 PUSH4 0x6D7CDBBF GT PUSH2 0xA0 JUMPI DUP1 PUSH4 0xA1B4D011 GT PUSH2 0x64 JUMPI DUP1 PUSH4 0xA1B4D011 EQ PUSH2 0x27A JUMPI DUP1 PUSH4 0xBA6B7FC2 EQ PUSH2 0x28F JUMPI DUP1 PUSH4 0xC0C53B8B EQ PUSH2 0x2A4 JUMPI DUP1 PUSH4 0xD8E310A4 EQ PUSH2 0x2C4 JUMPI DUP1 PUSH4 0xDCC1A738 EQ PUSH2 0x2D9 JUMPI PUSH2 0x114 JUMP JUMPDEST DUP1 PUSH4 0x6D7CDBBF EQ PUSH2 0x206 JUMPI DUP1 PUSH4 0x72D27134 EQ PUSH2 0x21B JUMPI DUP1 PUSH4 0x76E1DF48 EQ PUSH2 0x230 JUMPI DUP1 PUSH4 0x82463367 EQ PUSH2 0x250 JUMPI DUP1 PUSH4 0x8DA5CB5B EQ PUSH2 0x265 JUMPI PUSH2 0x114 JUMP JUMPDEST DUP1 PUSH4 0x24A3D622 GT PUSH2 0xE7 JUMPI DUP1 PUSH4 0x24A3D622 EQ PUSH2 0x19D JUMPI DUP1 PUSH4 0x2BE75895 EQ PUSH2 0x1B2 JUMPI DUP1 PUSH4 0x2D255471 EQ PUSH2 0x1C7 JUMPI DUP1 PUSH4 0x2D2C5565 EQ PUSH2 0x1DC JUMPI DUP1 PUSH4 0x6009B8E6 EQ PUSH2 0x1F1 JUMPI PUSH2 0x114 JUMP JUMPDEST DUP1 PUSH4 0xC4E7935 EQ PUSH2 0x133 JUMPI DUP1 PUSH4 0x14627834 EQ PUSH2 0x15E JUMPI DUP1 PUSH4 0x15BEEB93 EQ PUSH2 0x173 JUMPI DUP1 PUSH4 0x206109B5 EQ PUSH2 0x188 JUMPI JUMPDEST PUSH2 0x131 PUSH2 0x12C PUSH1 0x0 CALLDATALOAD PUSH1 0x1 PUSH1 0x1 PUSH1 0xE0 SHL SUB NOT AND PUSH2 0x2EE JUMP JUMPDEST PUSH2 0xF42 JUMP JUMPDEST STOP JUMPDEST CALLVALUE DUP1 ISZERO PUSH2 0x13F JUMPI PUSH1 0x0 DUP1 REVERT JUMPDEST POP PUSH2 0x148 PUSH2 0xF66 JUMP JUMPDEST PUSH1 0x40 MLOAD PUSH2 0x155 SWAP2 SWAP1 PUSH2 0x14B0 JUMP JUMPDEST PUSH1 0x40 MLOAD DUP1 SWAP2 SUB SWAP1 RETURN JUMPDEST CALLVALUE DUP1 ISZERO PUSH2 0x16A JUMPI PUSH1 0x0 DUP1 REVERT JUMPDEST POP PUSH2 0x148 PUSH2 0xF8A JUMP JUMPDEST CALLVALUE DUP1 ISZERO PUSH2 0x17F JUMPI PUSH1 0x0 DUP1 REVERT JUMPDEST POP PUSH2 0x148 PUSH2 0xFAE JUMP JUMPDEST CALLVALUE DUP1 ISZERO PUSH2 0x194 JUMPI PUSH1 0x0 DUP1 REVERT JUMPDEST POP PUSH2 0x148 PUSH2 0xFD2 JUMP JUMPDEST CALLVALUE DUP1 ISZERO PUSH2 0x1A9 JUMPI PUSH1 0x0 DUP1 REVERT JUMPDEST POP PUSH2 0x148 PUSH2 0xFF6 JUMP JUMPDEST CALLVALUE DUP1 ISZERO PUSH2 0x1BE JUMPI PUSH1 0x0 DUP1 REVERT JUMPDEST POP PUSH2 0x148 PUSH2 0x1005 JUMP JUMPDEST CALLVALUE DUP1 ISZERO PUSH2 0x1D3 JUMPI PUSH1 0x0 DUP1 REVERT JUMPDEST POP PUSH2 0x148 PUSH2 0x1029 JUMP JUMPDEST CALLVALUE DUP1 ISZERO PUSH2 0x1E8 JUMPI PUSH1 0x0 DUP1 REVERT JUMPDEST POP PUSH2 0x148 PUSH2 0x104D JUMP JUMPDEST CALLVALUE DUP1 ISZERO PUSH2 0x1FD JUMPI PUSH1 0x0 DUP1 REVERT JUMPDEST POP PUSH2 0x148 PUSH2 0x1071 JUMP JUMPDEST CALLVALUE DUP1 ISZERO PUSH2 0x212 JUMPI PUSH1 0x0 DUP1 REVERT JUMPDEST POP PUSH2 0x148 PUSH2 0x1095 JUMP JUMPDEST CALLVALUE DUP1 ISZERO PUSH2 0x227 JUMPI PUSH1 0x0 DUP1 REVERT JUMPDEST POP PUSH2 0x148 PUSH2 0x10B9 JUMP JUMPDEST CALLVALUE DUP1 ISZERO PUSH2 0x23C JUMPI PUSH1 0x0 DUP1 REVERT JUMPDEST POP PUSH2 0x148 PUSH2 0x24B CALLDATASIZE PUSH1 0x4 PUSH2 0x13F8 JUMP JUMPDEST PUSH2 0x2EE JUMP JUMPDEST CALLVALUE DUP1 ISZERO PUSH2 0x25C JUMPI PUSH1 0x0 DUP1 REVERT JUMPDEST POP PUSH2 0x148 PUSH2 0x10DD JUMP JUMPDEST CALLVALUE DUP1 ISZERO PUSH2 0x271 JUMPI PUSH1 0x0 DUP1 REVERT JUMPDEST POP PUSH2 0x148 PUSH2 0x10EC JUMP JUMPDEST CALLVALUE DUP1 ISZERO PUSH2 0x286 JUMPI PUSH1 0x0 DUP1 REVERT JUMPDEST POP PUSH2 0x148 PUSH2 0x1103 JUMP JUMPDEST CALLVALUE DUP1 ISZERO PUSH2 0x29B JUMPI PUSH1 0x0 DUP1 REVERT JUMPDEST POP PUSH2 0x148 PUSH2 0x1127 JUMP JUMPDEST CALLVALUE DUP1 ISZERO PUSH2 0x2B0 JUMPI PUSH1 0x0 DUP1 REVERT JUMPDEST POP PUSH2 0x131 PUSH2 0x2BF CALLDATASIZE PUSH1 0x4 PUSH2 0x13B6 JUMP JUMPDEST PUSH2 0x114B JUMP JUMPDEST CALLVALUE DUP1 ISZERO PUSH2 0x2D0 JUMPI PUSH1 0x0 DUP1 REVERT JUMPDEST POP PUSH2 0x148 PUSH2 0x1357 JUMP JUMPDEST CALLVALUE DUP1 ISZERO PUSH2 0x2E5 JUMPI PUSH1 0x0 DUP1 REVERT JUMPDEST POP PUSH2 0x148 PUSH2 0x137B JUMP JUMPDEST PUSH1 0x0 PUSH1 0x1 PUSH1 0x1 PUSH1 0xE0 SHL SUB NOT DUP3 AND PUSH4 0x37351953 PUSH1 0xE1 SHL EQ DUP1 PUSH2 0x31F JUMPI POP PUSH1 0x1 PUSH1 0x1 PUSH1 0xE0 SHL SUB NOT DUP3 AND PUSH4 0x276B64B PUSH1 0xE0 SHL EQ JUMPDEST DUP1 PUSH2 0x33A JUMPI POP PUSH1 0x1 PUSH1 0x1 PUSH1 0xE0 SHL SUB NOT DUP3 AND PUSH4 0x5950D8E9 PUSH1 0xE0 SHL EQ JUMPDEST DUP1 PUSH2 0x355 JUMPI POP PUSH1 0x1 PUSH1 0x1 PUSH1 0xE0 SHL SUB NOT DUP3 AND PUSH4 0x541F527 PUSH1 0xE4 SHL EQ JUMPDEST ISZERO PUSH2 0x381 JUMPI POP PUSH32 0x0 PUSH2 0xF3D JUMP JUMPDEST PUSH1 0x1 PUSH1 0x1 PUSH1 0xE0 SHL SUB NOT DUP3 AND PUSH4 0x8F0BA30F PUSH1 0xE0 SHL EQ DUP1 PUSH2 0x3B0 JUMPI POP PUSH1 0x1 PUSH1 0x1 PUSH1 0xE0 SHL SUB NOT DUP3 AND PUSH4 0x734B7231 PUSH1 0xE1 SHL EQ JUMPDEST DUP1 PUSH2 0x3CB JUMPI POP PUSH1 0x1 PUSH1 0x1 PUSH1 0xE0 SHL SUB NOT DUP3 AND PUSH4 0x6DAD6AFB PUSH1 0xE0 SHL EQ JUMPDEST DUP1 PUSH2 0x3E6 JUMPI POP PUSH1 0x1 PUSH1 0x1 PUSH1 0xE0 SHL SUB NOT DUP3 AND PUSH4 0xF292C415 PUSH1 0xE0 SHL EQ JUMPDEST DUP1 PUSH2 0x401 JUMPI POP PUSH1 0x1 PUSH1 0x1 PUSH1 0xE0 SHL SUB NOT DUP3 AND PUSH4 0xC025D1A5 PUSH1 0xE0 SHL EQ JUMPDEST DUP1 PUSH2 0x41C JUMPI POP PUSH1 0x1 PUSH1 0x1 PUSH1 0xE0 SHL SUB NOT DUP3 AND PUSH4 0x604FFAB PUSH1 0xE1 SHL EQ JUMPDEST DUP1 PUSH2 0x437 JUMPI POP PUSH1 0x1 PUSH1 0x1 PUSH1 0xE0 SHL SUB NOT DUP3 AND PUSH4 0x323E60CB PUSH1 0xE1 SHL EQ JUMPDEST ISZERO PUSH2 0x463 JUMPI POP PUSH32 0x0 PUSH2 0xF3D JUMP JUMPDEST PUSH1 0x1 PUSH1 0x1 PUSH1 0xE0 SHL SUB NOT DUP3 AND PUSH4 0x2890FB65 PUSH1 0xE0 SHL EQ DUP1 PUSH2 0x492 JUMPI POP PUSH1 0x1 PUSH1 0x1 PUSH1 0xE0 SHL SUB NOT DUP3 AND PUSH4 0xB8A69455 PUSH1 0xE0 SHL EQ JUMPDEST DUP1 PUSH2 0x4AC JUMPI POP PUSH1 0x1 PUSH1 0x1 PUSH1 0xE0 SHL SUB NOT DUP3 AND PUSH3 0x5E665D PUSH1 0xE3 SHL EQ JUMPDEST DUP1 PUSH2 0x4C7 JUMPI POP PUSH1 0x1 PUSH1 0x1 PUSH1 0xE0 SHL SUB NOT DUP3 AND PUSH4 0xF667F897 PUSH1 0xE0 SHL EQ JUMPDEST DUP1 PUSH2 0x4E2 JUMPI POP PUSH1 0x1 PUSH1 0x1 PUSH1 0xE0 SHL SUB NOT DUP3 AND PUSH4 0x66890643 PUSH1 0xE0 SHL EQ JUMPDEST DUP1 PUSH2 0x4FD JUMPI POP PUSH1 0x1 PUSH1 0x1 PUSH1 0xE0 SHL SUB NOT DUP3 AND PUSH4 0x9C97945 PUSH1 0xE4 SHL EQ JUMPDEST ISZERO PUSH2 0x529 JUMPI POP PUSH32 0x0 PUSH2 0xF3D JUMP JUMPDEST PUSH1 0x1 PUSH1 0x1 PUSH1 0xE0 SHL SUB NOT DUP3 AND PUSH4 0x1FFC9A7 PUSH1 0xE0 SHL EQ DUP1 PUSH2 0x557 JUMPI POP PUSH1 0x1 PUSH1 0x1 PUSH1 0xE0 SHL SUB NOT DUP3 AND PUSH3 0x7EEAC7 PUSH1 0xE1 SHL EQ JUMPDEST DUP1 PUSH2 0x572 JUMPI POP PUSH1 0x1 PUSH1 0x1 PUSH1 0xE0 SHL SUB NOT DUP3 AND PUSH4 0x13849CFD PUSH1 0xE2 SHL EQ JUMPDEST DUP1 PUSH2 0x58D JUMPI POP PUSH1 0x1 PUSH1 0x1 PUSH1 0xE0 SHL SUB NOT DUP3 AND PUSH4 0xFAC8F09 PUSH1 0xE0 SHL EQ JUMPDEST DUP1 PUSH2 0x5A8 JUMPI POP PUSH1 0x1 PUSH1 0x1 PUSH1 0xE0 SHL SUB NOT DUP3 AND PUSH4 0x81A86855 PUSH1 0xE0 SHL EQ JUMPDEST DUP1 PUSH2 0x5C3 JUMPI POP PUSH1 0x1 PUSH1 0x1 PUSH1 0xE0 SHL SUB NOT DUP3 AND PUSH4 0x79212195 PUSH1 0xE1 SHL EQ JUMPDEST DUP1 PUSH2 0x5DE JUMPI POP PUSH1 0x1 PUSH1 0x1 PUSH1 0xE0 SHL SUB NOT DUP3 AND PUSH4 0x1759616B PUSH1 0xE1 SHL EQ JUMPDEST DUP1 PUSH2 0x5F9 JUMPI POP PUSH1 0x1 PUSH1 0x1 PUSH1 0xE0 SHL SUB NOT DUP3 AND PUSH4 0x7F4D701 PUSH1 0xE3 SHL EQ JUMPDEST DUP1 PUSH2 0x614 JUMPI POP PUSH1 0x1 PUSH1 0x1 PUSH1 0xE0 SHL SUB NOT DUP3 AND PUSH4 0xE6B43B9 PUSH1 0xE3 SHL EQ JUMPDEST DUP1 PUSH2 0x62F JUMPI POP PUSH1 0x1 PUSH1 0x1 PUSH1 0xE0 SHL SUB NOT DUP3 AND PUSH4 0xA22CB465 PUSH1 0xE0 SHL EQ JUMPDEST DUP1 PUSH2 0x64A JUMPI POP PUSH1 0x1 PUSH1 0x1 PUSH1 0xE0 SHL SUB NOT DUP3 AND PUSH4 0xE985E9C5 PUSH1 0xE0 SHL EQ JUMPDEST ISZERO PUSH2 0x676 JUMPI POP PUSH32 0x0 PUSH2 0xF3D JUMP JUMPDEST PUSH1 0x1 PUSH1 0x1 PUSH1 0xE0 SHL SUB NOT DUP3 AND PUSH4 0x6A96E86F PUSH1 0xE0 SHL EQ DUP1 PUSH2 0x6A5 JUMPI POP PUSH1 0x1 PUSH1 0x1 PUSH1 0xE0 SHL SUB NOT DUP3 AND PUSH4 0x7DB31AB9 PUSH1 0xE0 SHL EQ JUMPDEST DUP1 PUSH2 0x6C0 JUMPI POP PUSH1 0x1 PUSH1 0x1 PUSH1 0xE0 SHL SUB NOT DUP3 AND PUSH4 0xA78DBFFF PUSH1 0xE0 SHL EQ JUMPDEST DUP1 PUSH2 0x6DB JUMPI POP PUSH1 0x1 PUSH1 0x1 PUSH1 0xE0 SHL SUB NOT DUP3 AND PUSH4 0x184E0053 PUSH1 0xE1 SHL EQ JUMPDEST DUP1 PUSH2 0x6F6 JUMPI POP PUSH1 0x1 PUSH1 0x1 PUSH1 0xE0 SHL SUB NOT DUP3 AND PUSH4 0x18AE40D7 PUSH1 0xE0 SHL EQ JUMPDEST DUP1 PUSH2 0x711 JUMPI POP PUSH1 0x1 PUSH1 0x1 PUSH1 0xE0 SHL SUB NOT DUP3 AND PUSH4 0x44253849 PUSH1 0xE1 SHL EQ JUMPDEST DUP1 PUSH2 0x72C JUMPI POP PUSH1 0x1 PUSH1 0x1 PUSH1 0xE0 SHL SUB NOT DUP3 AND PUSH4 0x5C1D975 PUSH1 0xE3 SHL EQ JUMPDEST DUP1 PUSH2 0x747 JUMPI POP PUSH1 0x1 PUSH1 0x1 PUSH1 0xE0 SHL SUB NOT DUP3 AND PUSH4 0x6D6503D3 PUSH1 0xE1 SHL EQ JUMPDEST DUP1 PUSH2 0x762 JUMPI POP PUSH1 0x1 PUSH1 0x1 PUSH1 0xE0 SHL SUB NOT DUP3 AND PUSH4 0x1A05BCE1 PUSH1 0xE0 SHL EQ JUMPDEST DUP1 PUSH2 0x77D JUMPI POP PUSH1 0x1 PUSH1 0x1 PUSH1 0xE0 SHL SUB NOT DUP3 AND PUSH4 0x3B2987B3 PUSH1 0xE0 SHL EQ JUMPDEST DUP1 PUSH2 0x798 JUMPI POP PUSH1 0x1 PUSH1 0x1 PUSH1 0xE0 SHL SUB NOT DUP3 AND PUSH4 0x4CB6B359 PUSH1 0xE0 SHL EQ JUMPDEST DUP1 PUSH2 0x7B3 JUMPI POP PUSH1 0x1 PUSH1 0x1 PUSH1 0xE0 SHL SUB NOT DUP3 AND PUSH4 0x31E14C19 PUSH1 0xE1 SHL EQ JUMPDEST DUP1 PUSH2 0x7CE JUMPI POP PUSH1 0x1 PUSH1 0x1 PUSH1 0xE0 SHL SUB NOT DUP3 AND PUSH4 0x450083DF PUSH1 0xE1 SHL EQ JUMPDEST ISZERO PUSH2 0x7FA JUMPI POP PUSH32 0x0 PUSH2 0xF3D JUMP JUMPDEST PUSH1 0x1 PUSH1 0x1 PUSH1 0xE0 SHL SUB NOT DUP3 AND PUSH4 0x2D10E6EB PUSH1 0xE0 SHL EQ DUP1 PUSH2 0x829 JUMPI POP PUSH1 0x1 PUSH1 0x1 PUSH1 0xE0 SHL SUB NOT DUP3 AND PUSH4 0x6633AF39 PUSH1 0xE0 SHL EQ JUMPDEST DUP1 PUSH2 0x844 JUMPI POP PUSH1 0x1 PUSH1 0x1 PUSH1 0xE0 SHL SUB NOT DUP3 AND PUSH4 0xE3E7CB4F PUSH1 0xE0 SHL EQ JUMPDEST DUP1 PUSH2 0x85F JUMPI POP PUSH1 0x1 PUSH1 0x1 PUSH1 0xE0 SHL SUB NOT DUP3 AND PUSH4 0x9A600EEB PUSH1 0xE0 SHL EQ JUMPDEST ISZERO PUSH2 0x88B JUMPI POP PUSH32 0x0 PUSH2 0xF3D JUMP JUMPDEST PUSH1 0x1 PUSH1 0x1 PUSH1 0xE0 SHL SUB NOT DUP3 AND PUSH4 0x1FF7AEFD PUSH1 0xE2 SHL EQ DUP1 PUSH2 0x8BA JUMPI POP PUSH1 0x1 PUSH1 0x1 PUSH1 0xE0 SHL SUB NOT DUP3 AND PUSH4 0xE816469D PUSH1 0xE0 SHL EQ JUMPDEST DUP1 PUSH2 0x8D5 JUMPI POP PUSH1 0x1 PUSH1 0x1 PUSH1 0xE0 SHL SUB NOT DUP3 AND PUSH4 0xFB281D9 PUSH1 0xE0 SHL EQ JUMPDEST DUP1 PUSH2 0x8F0 JUMPI POP PUSH1 0x1 PUSH1 0x1 PUSH1 0xE0 SHL SUB NOT DUP3 AND PUSH4 0xFA37E395 PUSH1 0xE0 SHL EQ JUMPDEST ISZERO PUSH2 0x91C JUMPI POP PUSH32 0x0 PUSH2 0xF3D JUMP JUMPDEST PUSH1 0x1 PUSH1 0x1 PUSH1 0xE0 SHL SUB NOT DUP3 AND PUSH4 0x51479E39 PUSH1 0xE0 SHL EQ DUP1 PUSH2 0x94B JUMPI POP PUSH1 0x1 PUSH1 0x1 PUSH1 0xE0 SHL SUB NOT DUP3 AND PUSH4 0x15BD0A31 PUSH1 0xE2 SHL EQ JUMPDEST DUP1 PUSH2 0x966 JUMPI POP PUSH1 0x1 PUSH1 0x1 PUSH1 0xE0 SHL SUB NOT DUP3 AND PUSH4 0x6B6EF5CD PUSH1 0xE1 SHL EQ JUMPDEST DUP1 PUSH2 0x981 JUMPI POP PUSH1 0x1 PUSH1 0x1 PUSH1 0xE0 SHL SUB NOT DUP3 AND PUSH4 0x291AFDF3 PUSH1 0xE0 SHL EQ JUMPDEST DUP1 PUSH2 0x99C JUMPI POP PUSH1 0x1 PUSH1 0x1 PUSH1 0xE0 SHL SUB NOT DUP3 AND PUSH4 0x341305AB PUSH1 0xE2 SHL EQ JUMPDEST DUP1 PUSH2 0x9B7 JUMPI POP PUSH1 0x1 PUSH1 0x1 PUSH1 0xE0 SHL SUB NOT DUP3 AND PUSH4 0xEE01436B PUSH1 0xE0 SHL EQ JUMPDEST DUP1 PUSH2 0x9D2 JUMPI POP PUSH1 0x1 PUSH1 0x1 PUSH1 0xE0 SHL SUB NOT DUP3 AND PUSH4 0x83E50FB7 PUSH1 0xE0 SHL EQ JUMPDEST DUP1 PUSH2 0x9ED JUMPI POP PUSH1 0x1 PUSH1 0x1 PUSH1 0xE0 SHL SUB NOT DUP3 AND PUSH4 0x6674BC3B PUSH1 0xE1 SHL EQ JUMPDEST DUP1 PUSH2 0xA08 JUMPI POP PUSH1 0x1 PUSH1 0x1 PUSH1 0xE0 SHL SUB NOT DUP3 AND PUSH4 0x295E6B7F PUSH1 0xE0 SHL EQ JUMPDEST DUP1 PUSH2 0xA23 JUMPI POP PUSH1 0x1 PUSH1 0x1 PUSH1 0xE0 SHL SUB NOT DUP3 AND PUSH4 0xDE1EB9A3 PUSH1 0xE0 SHL EQ JUMPDEST DUP1 PUSH2 0xA3E JUMPI POP PUSH1 0x1 PUSH1 0x1 PUSH1 0xE0 SHL SUB NOT DUP3 AND PUSH4 0x33A8ABBB PUSH1 0xE1 SHL EQ JUMPDEST DUP1 PUSH2 0xA59 JUMPI POP PUSH1 0x1 PUSH1 0x1 PUSH1 0xE0 SHL SUB NOT DUP3 AND PUSH4 0x28536D5F PUSH1 0xE2 SHL EQ JUMPDEST DUP1 PUSH2 0xA74 JUMPI POP PUSH1 0x1 PUSH1 0x1 PUSH1 0xE0 SHL SUB NOT DUP3 AND PUSH4 0x31572281 PUSH1 0xE0 SHL EQ JUMPDEST DUP1 PUSH2 0xA8F JUMPI POP PUSH1 0x1 PUSH1 0x1 PUSH1 0xE0 SHL SUB NOT DUP3 AND PUSH4 0x6C346C09 PUSH1 0xE0 SHL EQ JUMPDEST ISZERO PUSH2 0xABB JUMPI POP PUSH32 0x0 PUSH2 0xF3D JUMP JUMPDEST PUSH1 0x1 PUSH1 0x1 PUSH1 0xE0 SHL SUB NOT DUP3 AND PUSH4 0x3438193 PUSH1 0xE6 SHL EQ DUP1 PUSH2 0xAEA JUMPI POP PUSH1 0x1 PUSH1 0x1 PUSH1 0xE0 SHL SUB NOT DUP3 AND PUSH4 0x5DB6EAC7 PUSH1 0xE1 SHL EQ JUMPDEST ISZERO PUSH2 0xB16 JUMPI POP PUSH32 0x0 PUSH2 0xF3D JUMP JUMPDEST PUSH1 0x1 PUSH1 0x1 PUSH1 0xE0 SHL SUB NOT DUP3 AND PUSH4 0x7ABAF271 PUSH1 0xE1 SHL EQ DUP1 PUSH2 0xB45 JUMPI POP PUSH1 0x1 PUSH1 0x1 PUSH1 0xE0 SHL SUB NOT DUP3 AND PUSH4 0xE31051A1 PUSH1 0xE0 SHL EQ JUMPDEST DUP1 PUSH2 0xB60 JUMPI POP PUSH1 0x1 PUSH1 0x1 PUSH1 0xE0 SHL SUB NOT DUP3 AND PUSH4 0xA11A4293 PUSH1 0xE0 SHL EQ JUMPDEST DUP1 PUSH2 0xB7B JUMPI POP PUSH1 0x1 PUSH1 0x1 PUSH1 0xE0 SHL SUB NOT DUP3 AND PUSH4 0x5284765 PUSH1 0xE5 SHL EQ JUMPDEST DUP1 PUSH2 0xB96 JUMPI POP PUSH1 0x1 PUSH1 0x1 PUSH1 0xE0 SHL SUB NOT DUP3 AND PUSH4 0x315CB2B9 PUSH1 0xE2 SHL EQ JUMPDEST DUP1 PUSH2 0xBB1 JUMPI POP PUSH1 0x1 PUSH1 0x1 PUSH1 0xE0 SHL SUB NOT DUP3 AND PUSH4 0x2C90B94D PUSH1 0xE2 SHL EQ JUMPDEST DUP1 PUSH2 0xBCC JUMPI POP PUSH1 0x1 PUSH1 0x1 PUSH1 0xE0 SHL SUB NOT DUP3 AND PUSH4 0x9CE3C19 PUSH1 0xE3 SHL EQ JUMPDEST DUP1 PUSH2 0xBE7 JUMPI POP PUSH1 0x1 PUSH1 0x1 PUSH1 0xE0 SHL SUB NOT DUP3 AND PUSH4 0x54EBDE29 PUSH1 0xE1 SHL EQ JUMPDEST DUP1 PUSH2 0xC02 JUMPI POP PUSH1 0x1 PUSH1 0x1 PUSH1 0xE0 SHL SUB NOT DUP3 AND PUSH4 0x98DCBC23 PUSH1 0xE0 SHL EQ JUMPDEST DUP1 PUSH2 0xC1D JUMPI POP PUSH1 0x1 PUSH1 0x1 PUSH1 0xE0 SHL SUB NOT DUP3 AND PUSH4 0x33EABD1D PUSH1 0xE2 SHL EQ JUMPDEST DUP1 PUSH2 0xC38 JUMPI POP PUSH1 0x1 PUSH1 0x1 PUSH1 0xE0 SHL SUB NOT DUP3 AND PUSH4 0x413F2C5F PUSH1 0xE0 SHL EQ JUMPDEST DUP1 PUSH2 0xC53 JUMPI POP PUSH1 0x1 PUSH1 0x1 PUSH1 0xE0 SHL SUB NOT DUP3 AND PUSH4 0xD0DA867 PUSH1 0xE2 SHL EQ JUMPDEST DUP1 PUSH2 0xC6E JUMPI POP PUSH1 0x1 PUSH1 0x1 PUSH1 0xE0 SHL SUB NOT DUP3 AND PUSH4 0x353ABC5D PUSH1 0xE0 SHL EQ JUMPDEST DUP1 PUSH2 0xC89 JUMPI POP PUSH1 0x1 PUSH1 0x1 PUSH1 0xE0 SHL SUB NOT DUP3 AND PUSH4 0xFA17B5F1 PUSH1 0xE0 SHL EQ JUMPDEST DUP1 PUSH2 0xCA4 JUMPI POP PUSH1 0x1 PUSH1 0x1 PUSH1 0xE0 SHL SUB NOT DUP3 AND PUSH4 0x113AA8B1 PUSH1 0xE0 SHL EQ JUMPDEST DUP1 PUSH2 0xCBE JUMPI POP PUSH1 0x1 PUSH1 0x1 PUSH1 0xE0 SHL SUB NOT DUP3 AND PUSH3 0x474663 PUSH1 0xE0 SHL EQ JUMPDEST DUP1 PUSH2 0xCD9 JUMPI POP PUSH1 0x1 PUSH1 0x1 PUSH1 0xE0 SHL SUB NOT DUP3 AND PUSH4 0x1B2CE7F3 PUSH1 0xE1 SHL EQ JUMPDEST DUP1 PUSH2 0xCF4 JUMPI POP PUSH1 0x1 PUSH1 0x1 PUSH1 0xE0 SHL SUB NOT DUP3 AND PUSH4 0x278F7943 PUSH1 0xE1 SHL EQ JUMPDEST ISZERO PUSH2 0xD20 JUMPI POP PUSH32 0x0 PUSH2 0xF3D JUMP JUMPDEST PUSH1 0x1 PUSH1 0x1 PUSH1 0xE0 SHL SUB NOT DUP3 AND PUSH4 0x7D6DBFF7 PUSH1 0xE1 SHL EQ DUP1 PUSH2 0xD4F JUMPI POP PUSH1 0x1 PUSH1 0x1 PUSH1 0xE0 SHL SUB NOT DUP3 AND PUSH4 0x6D7A00EB PUSH1 0xE0 SHL EQ JUMPDEST DUP1 PUSH2 0xD6A JUMPI POP PUSH1 0x1 PUSH1 0x1 PUSH1 0xE0 SHL SUB NOT DUP3 AND PUSH4 0x7F23D4F9 PUSH1 0xE1 SHL EQ JUMPDEST DUP1 PUSH2 0xD85 JUMPI POP PUSH1 0x1 PUSH1 0x1 PUSH1 0xE0 SHL SUB NOT DUP3 AND PUSH4 0x239CEC8F PUSH1 0xE2 SHL EQ JUMPDEST DUP1 PUSH2 0xDA0 JUMPI POP PUSH1 0x1 PUSH1 0x1 PUSH1 0xE0 SHL SUB NOT DUP3 AND PUSH4 0x12ADC47B PUSH1 0xE0 SHL EQ JUMPDEST ISZERO PUSH2 0xDCC JUMPI POP PUSH32 0x0 PUSH2 0xF3D JUMP JUMPDEST PUSH1 0x1 PUSH1 0x1 PUSH1 0xE0 SHL SUB NOT DUP3 AND PUSH4 0x6A09A2A3 PUSH1 0xE0 SHL EQ DUP1 PUSH2 0xDFB JUMPI POP PUSH1 0x1 PUSH1 0x1 PUSH1 0xE0 SHL SUB NOT DUP3 AND PUSH4 0x8355E895 PUSH1 0xE0 SHL EQ JUMPDEST DUP1 PUSH2 0xE16 JUMPI POP PUSH1 0x1 PUSH1 0x1 PUSH1 0xE0 SHL SUB NOT DUP3 AND PUSH4 0x94614DF PUSH1 0xE0 SHL EQ JUMPDEST DUP1 PUSH2 0xE31 JUMPI POP PUSH1 0x1 PUSH1 0x1 PUSH1 0xE0 SHL SUB NOT DUP3 AND PUSH4 0x4BEB6D97 PUSH1 0xE1 SHL EQ JUMPDEST DUP1 PUSH2 0xE4C JUMPI POP PUSH1 0x1 PUSH1 0x1 PUSH1 0xE0 SHL SUB NOT DUP3 AND PUSH4 0xC52C43E1 PUSH1 0xE0 SHL EQ JUMPDEST DUP1 PUSH2 0xE67 JUMPI POP PUSH1 0x1 PUSH1 0x1 PUSH1 0xE0 SHL SUB NOT DUP3 AND PUSH4 0x5953C77B PUSH1 0xE0 SHL EQ JUMPDEST DUP1 PUSH2 0xE82 JUMPI POP PUSH1 0x1 PUSH1 0x1 PUSH1 0xE0 SHL SUB NOT DUP3 AND PUSH4 0x1F0750C1 PUSH1 0xE3 SHL EQ JUMPDEST DUP1 PUSH2 0xE9D JUMPI POP PUSH1 0x1 PUSH1 0x1 PUSH1 0xE0 SHL SUB NOT DUP3 AND PUSH4 0xBAC9E8B1 PUSH1 0xE0 SHL EQ JUMPDEST DUP1 PUSH2 0xEB8 JUMPI POP PUSH1 0x1 PUSH1 0x1 PUSH1 0xE0 SHL SUB NOT DUP3 AND PUSH4 0xAAAE47B5 PUSH1 0xE0 SHL EQ JUMPDEST DUP1 PUSH2 0xED3 JUMPI POP PUSH1 0x1 PUSH1 0x1 PUSH1 0xE0 SHL SUB NOT DUP3 AND PUSH4 0x416A1587 PUSH1 0xE0 SHL EQ JUMPDEST DUP1 PUSH2 0xEEE JUMPI POP PUSH1 0x1 PUSH1 0x1 PUSH1 0xE0 SHL SUB NOT DUP3 AND PUSH4 0x1BAEFC5D PUSH1 0xE2 SHL EQ JUMPDEST ISZERO PUSH2 0xF1A JUMPI POP PUSH32 0x0 PUSH2 0xF3D JUMP JUMPDEST POP PUSH32 0x0 JUMPDEST SWAP2 SWAP1 POP JUMP JUMPDEST CALLDATASIZE PUSH1 0x0 DUP1 CALLDATACOPY PUSH1 0x0 DUP1 CALLDATASIZE PUSH1 0x0 DUP5 GAS DELEGATECALL RETURNDATASIZE PUSH1 0x0 DUP1 RETURNDATACOPY DUP1 DUP1 ISZERO PUSH2 0xF61 JUMPI RETURNDATASIZE PUSH1 0x0 RETURN JUMPDEST RETURNDATASIZE PUSH1 0x0 REVERT JUMPDEST PUSH32 0x0 DUP2 JUMP JUMPDEST PUSH32 0x0 DUP2 JUMP JUMPDEST PUSH32 0x0 DUP2 JUMP JUMPDEST PUSH32 0x0 DUP2 JUMP JUMPDEST PUSH1 0x2 SLOAD PUSH1 0x1 PUSH1 0x1 PUSH1 0xA0 SHL SUB AND DUP2 JUMP JUMPDEST PUSH32 0x0 DUP2 JUMP JUMPDEST PUSH32 0x0 DUP2 JUMP JUMPDEST PUSH32 0x0 DUP2 JUMP JUMPDEST PUSH32 0x0 DUP2 JUMP JUMPDEST PUSH32 0x0 DUP2 JUMP JUMPDEST PUSH32 0x0 DUP2 JUMP JUMPDEST PUSH1 0x1 SLOAD PUSH1 0x1 PUSH1 0x1 PUSH1 0xA0 SHL SUB AND DUP2 JUMP JUMPDEST PUSH1 0x0 SLOAD PUSH5 0x100000000 SWAP1 DIV PUSH1 0x1 PUSH1 0x1 PUSH1 0xA0 SHL SUB AND DUP2 JUMP JUMPDEST PUSH32 0x0 DUP2 JUMP JUMPDEST PUSH32 0x0 DUP2 JUMP JUMPDEST CALLER PUSH1 0x1 PUSH1 0x1 PUSH1 0xA0 SHL SUB PUSH32 0x0 AND EQ DUP1 ISZERO PUSH2 0x118D JUMPI POP PUSH1 0x0 SLOAD PUSH4 0x1000000 SWAP1 DIV PUSH1 0xFF AND ISZERO JUMPDEST PUSH2 0x1196 JUMPI PUSH1 0x0 DUP1 REVERT JUMPDEST PUSH1 0x0 DUP1 SLOAD PUSH5 0x100000000 PUSH1 0x1 PUSH1 0xC0 SHL SUB NOT AND CALLER PUSH5 0x100000000 MUL OR DUP2 SSTORE PUSH1 0x40 DUP1 MLOAD PUSH1 0xA0 DUP2 ADD DUP3 MSTORE PUSH1 0x1 PUSH1 0x1 PUSH1 0xA0 SHL SUB PUSH32 0x0 DUP2 AND DUP3 MSTORE PUSH1 0x20 DUP3 ADD DUP5 SWAP1 MSTORE PUSH32 0x0 AND SWAP2 PUSH4 0x7ABAF271 PUSH1 0xE1 SHL SWAP2 SWAP1 DUP2 ADD PUSH1 0x2 DUP2 MSTORE PUSH1 0x8 PUSH1 0x20 DUP1 DUP4 ADD SWAP2 SWAP1 SWAP2 MSTORE PUSH1 0x0 PUSH1 0x40 SWAP3 DUP4 ADD DUP2 SWAP1 MSTORE DUP3 MLOAD PUSH1 0xA0 DUP2 ADD DUP5 MSTORE DUP2 DUP2 MSTORE SWAP2 DUP3 ADD MSTORE SWAP1 DUP2 ADD PUSH1 0x3 DUP2 MSTORE PUSH1 0x12 PUSH1 0x20 DUP3 ADD MSTORE PUSH1 0x0 PUSH1 0x40 SWAP2 DUP3 ADD DUP2 SWAP1 MSTORE SWAP1 MLOAD PUSH2 0x127C SWAP4 SWAP3 SWAP2 SWAP1 DUP2 SWAP1 PUSH1 0x85 SWAP1 PUSH1 0x4B SWAP1 PUSH1 0x6C SWAP1 PUSH1 0x24 ADD PUSH2 0x14C4 JUMP JUMPDEST PUSH1 0x40 DUP1 MLOAD PUSH1 0x1F NOT DUP2 DUP5 SUB ADD DUP2 MSTORE SWAP2 DUP2 MSTORE PUSH1 0x20 DUP3 ADD DUP1 MLOAD PUSH1 0x1 PUSH1 0x1 PUSH1 0xE0 SHL SUB AND PUSH1 0x1 PUSH1 0x1 PUSH1 0xE0 SHL SUB NOT SWAP1 SWAP5 AND SWAP4 SWAP1 SWAP4 OR SWAP1 SWAP3 MSTORE SWAP1 MLOAD PUSH2 0x12BA SWAP2 SWAP1 PUSH2 0x1477 JUMP JUMPDEST PUSH1 0x0 PUSH1 0x40 MLOAD DUP1 DUP4 SUB DUP2 DUP6 GAS DELEGATECALL SWAP2 POP POP RETURNDATASIZE DUP1 PUSH1 0x0 DUP2 EQ PUSH2 0x12F5 JUMPI PUSH1 0x40 MLOAD SWAP2 POP PUSH1 0x1F NOT PUSH1 0x3F RETURNDATASIZE ADD AND DUP3 ADD PUSH1 0x40 MSTORE RETURNDATASIZE DUP3 MSTORE RETURNDATASIZE PUSH1 0x0 PUSH1 0x20 DUP5 ADD RETURNDATACOPY PUSH2 0x12FA JUMP JUMPDEST PUSH1 0x60 SWAP2 POP JUMPDEST POP POP SWAP1 POP DUP1 PUSH2 0x1308 JUMPI PUSH1 0x0 DUP1 REVERT JUMPDEST POP PUSH1 0x0 DUP1 SLOAD PUSH1 0x1 PUSH1 0x1 PUSH1 0xA0 SHL SUB SWAP5 DUP6 AND PUSH5 0x100000000 MUL PUSH5 0x100000000 PUSH1 0x1 PUSH1 0xC0 SHL SUB NOT SWAP1 SWAP2 AND OR SWAP1 SSTORE PUSH1 0x1 DUP1 SLOAD SWAP3 DUP5 AND PUSH1 0x1 PUSH1 0x1 PUSH1 0xA0 SHL SUB NOT SWAP4 DUP5 AND OR SWAP1 SSTORE PUSH1 0x2 DUP1 SLOAD SWAP2 SWAP1 SWAP4 AND SWAP2 AND OR SWAP1 SSTORE JUMP JUMPDEST PUSH32 0x0 DUP2 JUMP JUMPDEST PUSH32 0x0 DUP2 JUMP JUMPDEST DUP1 CALLDATALOAD PUSH1 0x1 PUSH1 0x1 PUSH1 0xA0 SHL SUB DUP2 AND DUP2 EQ PUSH2 0xF3D JUMPI PUSH1 0x0 DUP1 REVERT JUMPDEST PUSH1 0x0 DUP1 PUSH1 0x0 PUSH1 0x60 DUP5 DUP7 SUB SLT ISZERO PUSH2 0x13CA JUMPI DUP3 DUP4 REVERT JUMPDEST PUSH2 0x13D3 DUP5 PUSH2 0x139F JUMP JUMPDEST SWAP3 POP PUSH2 0x13E1 PUSH1 0x20 DUP6 ADD PUSH2 0x139F JUMP JUMPDEST SWAP2 POP PUSH2 0x13EF PUSH1 0x40 DUP6 ADD PUSH2 0x139F JUMP JUMPDEST SWAP1 POP SWAP3 POP SWAP3 POP SWAP3 JUMP JUMPDEST PUSH1 0x0 PUSH1 0x20 DUP3 DUP5 SUB SLT ISZERO PUSH2 0x1409 JUMPI DUP1 DUP2 REVERT JUMPDEST DUP2 CALLDATALOAD PUSH1 0x1 PUSH1 0x1 PUSH1 0xE0 SHL SUB NOT DUP2 AND DUP2 EQ PUSH2 0x1420 JUMPI DUP2 DUP3 REVERT JUMPDEST SWAP4 SWAP3 POP POP POP JUMP JUMPDEST DUP1 MLOAD PUSH1 0x1 PUSH1 0x1 PUSH1 0xA0 SHL SUB AND DUP3 MSTORE PUSH1 0x20 DUP1 DUP3 ADD MLOAD ISZERO ISZERO SWAP1 DUP4 ADD MSTORE PUSH1 0x40 DUP2 ADD MLOAD PUSH1 0x6 DUP2 LT PUSH2 0x144F JUMPI INVALID JUMPDEST PUSH1 0x40 DUP4 ADD MSTORE PUSH1 0x60 DUP2 DUP2 ADD MLOAD PUSH1 0xFF AND SWAP1 DUP4 ADD MSTORE PUSH1 0x80 SWAP1 DUP2 ADD MLOAD PUSH9 0xFFFFFFFFFFFFFFFFFF AND SWAP2 ADD MSTORE JUMP JUMPDEST PUSH1 0x0 DUP3 MLOAD DUP2 JUMPDEST DUP2 DUP2 LT ISZERO PUSH2 0x1497 JUMPI PUSH1 0x20 DUP2 DUP7 ADD DUP2 ADD MLOAD DUP6 DUP4 ADD MSTORE ADD PUSH2 0x147D JUMP JUMPDEST DUP2 DUP2 GT ISZERO PUSH2 0x14A5 JUMPI DUP3 DUP3 DUP6 ADD MSTORE JUMPDEST POP SWAP2 SWAP1 SWAP2 ADD SWAP3 SWAP2 POP POP JUMP JUMPDEST PUSH1 0x1 PUSH1 0x1 PUSH1 0xA0 SHL SUB SWAP2 SWAP1 SWAP2 AND DUP2 MSTORE PUSH1 0x20 ADD SWAP1 JUMP JUMPDEST PUSH2 0x1E0 DUP2 ADD PUSH2 0x14D3 DUP3 DUP11 PUSH2 0x1427 JUMP JUMPDEST PUSH2 0x14E0 PUSH1 0xA0 DUP4 ADD DUP10 PUSH2 0x1427 JUMP JUMPDEST PUSH1 0x1 PUSH1 0x1 PUSH1 0xA0 SHL SUB SWAP7 SWAP1 SWAP7 AND PUSH2 0x140 DUP3 ADD MSTORE SWAP4 ISZERO ISZERO PUSH2 0x160 DUP6 ADD MSTORE PUSH1 0xFF SWAP3 DUP4 AND PUSH2 0x180 DUP6 ADD MSTORE SWAP1 DUP3 AND PUSH2 0x1A0 DUP5 ADD MSTORE AND PUSH2 0x1C0 SWAP1 SWAP2 ADD MSTORE SWAP3 SWAP2 POP POP JUMP INVALID LOG2 PUSH5 0x6970667358 0x22 SLT KECCAK256 0xD0 PUSH12 0x1E4EAF548464802675A94576 0xC2 0xAA JUMP 0xE3 SAR GASLIMIT SWAP14 PUSH19 0x4E9F3D8653B0F4175BF464736F6C6343000706 STOP CALLER ","sha1":"f1e3ec971a8ce723c44c386a89298f79f8103393","source":"// SPDX-License-Identifier: GPL-3.0-only\npragma solidity =0.7.6;\npragma abicoder v2;\n\nimport \"./actions/nTokenMintAction.sol\";\nimport \"../global/StorageLayoutV1.sol\";\nimport \"../global/Types.sol\";\nimport {INTokenAction} from \"../../interfaces/notional/INTokenAction.sol\";\nimport \"../../interfaces/notional/NotionalProxy.sol\";\nimport {IVaultAction, IVaultAccountAction} from \"../../interfaces/notional/IVaultController.sol\";\nimport {nERC1155Interface} from \"../../interfaces/notional/nERC1155Interface.sol\";\nimport {NotionalGovernance} from \"../../interfaces/notional/NotionalGovernance.sol\";\nimport {NotionalCalculations} from \"../../interfaces/notional/NotionalCalculations.sol\";\n\n/**\n * @notice Sits behind an upgradeable proxy and routes methods to an appropriate implementation contract. All storage\n * will sit inside the upgradeable proxy and this router will authorize the call and re-route the calls to implementing\n * contracts.\n *\n * This pattern adds an additional hop between the proxy and the ultimate implementation contract, however, it also\n * allows for atomic upgrades of the entire system. Individual implementation contracts will be deployed and then a\n * new Router with the new hardcoded addresses will then be deployed and upgraded into place.\n */\ncontract Router is StorageLayoutV1 {\n    // These contract addresses cannot be changed once set by the constructor\n    address public immutable GOVERNANCE;\n    address public immutable VIEWS;\n    address public immutable INITIALIZE_MARKET;\n    address public immutable NTOKEN_ACTIONS;\n    address public immutable BATCH_ACTION;\n    address public immutable ACCOUNT_ACTION;\n    address public immutable ERC1155;\n    address public immutable LIQUIDATE_CURRENCY;\n    address public immutable LIQUIDATE_FCASH;\n    address public immutable cETH;\n    address public immutable TREASURY;\n    address public immutable CALCULATION_VIEWS;\n    address public immutable VAULT_ACCOUNT_ACTION;\n    address public immutable VAULT_ACTION;\n    address private immutable DEPLOYER;\n\n    struct DeployedContracts {\n        address governance;\n        address views;\n        address initializeMarket;\n        address nTokenActions;\n        address batchAction;\n        address accountAction;\n        address erc1155;\n        address liquidateCurrency;\n        address liquidatefCash;\n        address cETH;\n        address treasury;\n        address calculationViews;\n        address vaultAccountAction;\n        address vaultAction;\n    }\n\n    constructor(\n        DeployedContracts memory contracts\n    ) {\n        GOVERNANCE = contracts.governance;\n        VIEWS = contracts.views;\n        INITIALIZE_MARKET = contracts.initializeMarket;\n        NTOKEN_ACTIONS = contracts.nTokenActions;\n        BATCH_ACTION = contracts.batchAction;\n        ACCOUNT_ACTION = contracts.accountAction;\n        ERC1155 = contracts.erc1155;\n        LIQUIDATE_CURRENCY = contracts.liquidateCurrency;\n        LIQUIDATE_FCASH = contracts.liquidatefCash;\n        cETH = contracts.cETH;\n        TREASURY = contracts.treasury;\n        CALCULATION_VIEWS = contracts.calculationViews;\n        VAULT_ACCOUNT_ACTION = contracts.vaultAccountAction;\n        VAULT_ACTION = contracts.vaultAction;\n\n        DEPLOYER = msg.sender;\n        // This will lock everyone from calling initialize on the implementation contract\n        hasInitialized = true;\n    }\n\n    function initialize(address owner_, address pauseRouter_, address pauseGuardian_) public {\n        // Check that only the deployer can initialize\n        require(msg.sender == DEPLOYER && !hasInitialized);\n\n        // Allow list currency to be called by this contract for the purposes of\n        // initializing ETH as a currency\n        owner = msg.sender;\n        // List ETH as currency id == 1, NOTE: return value is ignored here\n\n        // FIXME: on non-mainnet deployments we should be using WETH instead here...\n        (bool status, ) =\n            address(GOVERNANCE).delegatecall(\n                abi.encodeWithSelector(\n                    NotionalGovernance.listCurrency.selector,\n                    TokenStorage(cETH, false, TokenType.cETH, Constants.CETH_DECIMAL_PLACES, 0),\n                    // No underlying set for cETH\n                    TokenStorage(address(0), false, TokenType.Ether, Constants.ETH_DECIMAL_PLACES, 0),\n                    address(0),\n                    false,\n                    133, // Initial settings of 133% buffer\n                    75,  // 75% haircut\n                    108  // 8% liquidation discount\n                )\n            );\n        require(status);\n\n        owner = owner_;\n        // The pause guardian may downgrade the router to the pauseRouter\n        pauseRouter = pauseRouter_;\n        pauseGuardian = pauseGuardian_;\n\n        hasInitialized == true;\n    }\n\n    /// @notice Returns the implementation contract for the method signature\n    /// @param sig method signature to call\n    /// @return implementation address\n    function getRouterImplementation(bytes4 sig) public view returns (address) {\n        if (\n            sig == NotionalProxy.batchBalanceAction.selector ||\n            sig == NotionalProxy.batchBalanceAndTradeAction.selector ||\n            sig == NotionalProxy.batchBalanceAndTradeActionWithCallback.selector ||\n            sig == NotionalProxy.batchLend.selector\n        ) {\n            return BATCH_ACTION;\n        } else if (\n            sig == IVaultAccountAction.enterVault.selector ||\n            sig == IVaultAccountAction.rollVaultPosition.selector ||\n            sig == IVaultAccountAction.exitVault.selector ||\n            sig == IVaultAccountAction.deleverageAccount.selector ||\n            sig == IVaultAccountAction.getVaultAccount.selector ||\n            sig == IVaultAccountAction.getVaultAccountMaturity.selector ||\n            sig == IVaultAccountAction.getVaultAccountCollateralRatio.selector\n        ) {\n            return VAULT_ACCOUNT_ACTION;\n        } else if (\n            sig == NotionalProxy.depositUnderlyingToken.selector ||\n            sig == NotionalProxy.depositAssetToken.selector ||\n            sig == NotionalProxy.withdraw.selector ||\n            sig == NotionalProxy.settleAccount.selector ||\n            sig == NotionalProxy.nTokenRedeem.selector ||\n            sig == NotionalProxy.enableBitmapCurrency.selector\n        ) {\n            return ACCOUNT_ACTION;\n        } else if (\n            sig == nERC1155Interface.supportsInterface.selector ||\n            sig == nERC1155Interface.balanceOf.selector ||\n            sig == nERC1155Interface.balanceOfBatch.selector ||\n            sig == nERC1155Interface.signedBalanceOf.selector ||\n            sig == nERC1155Interface.signedBalanceOfBatch.selector ||\n            sig == nERC1155Interface.safeTransferFrom.selector ||\n            sig == nERC1155Interface.safeBatchTransferFrom.selector ||\n            sig == nERC1155Interface.decodeToAssets.selector ||\n            sig == nERC1155Interface.encodeToId.selector ||\n            sig == nERC1155Interface.setApprovalForAll.selector ||\n            sig == nERC1155Interface.isApprovedForAll.selector\n        ) {\n            return ERC1155;\n        } else if (\n            sig == INTokenAction.nTokenTotalSupply.selector ||\n            sig == INTokenAction.nTokenTransferAllowance.selector ||\n            sig == INTokenAction.nTokenBalanceOf.selector ||\n            sig == INTokenAction.nTokenTransferApprove.selector ||\n            sig == INTokenAction.nTokenTransfer.selector ||\n            sig == INTokenAction.nTokenTransferFrom.selector ||\n            sig == INTokenAction.nTokenTransferApproveAll.selector ||\n            sig == INTokenAction.nTokenClaimIncentives.selector ||\n            sig == INTokenAction.nTokenPresentValueAssetDenominated.selector ||\n            sig == INTokenAction.nTokenPresentValueUnderlyingDenominated.selector ||\n            sig == INTokenAction.nTokenPresentValueUnderlyingExternal.selector ||\n            sig == INTokenAction.nTokenRedeemViaProxy.selector ||\n            sig == INTokenAction.nTokenMintViaProxy.selector\n        ) {\n            return NTOKEN_ACTIONS;\n        } else if (\n            sig == NotionalProxy.liquidateLocalCurrency.selector ||\n            sig == NotionalProxy.liquidateCollateralCurrency.selector ||\n            sig == NotionalProxy.calculateLocalCurrencyLiquidation.selector ||\n            sig == NotionalProxy.calculateCollateralCurrencyLiquidation.selector\n        ) {\n            return LIQUIDATE_CURRENCY;\n        } else if (\n            sig == NotionalProxy.liquidatefCashLocal.selector ||\n            sig == NotionalProxy.liquidatefCashCrossCurrency.selector ||\n            sig == NotionalProxy.calculatefCashLocalLiquidation.selector ||\n            sig == NotionalProxy.calculatefCashCrossCurrencyLiquidation.selector\n        ) {\n            return LIQUIDATE_FCASH;\n        } else if (\n            sig == IVaultAction.updateVault.selector ||\n            sig == IVaultAction.setVaultPauseStatus.selector ||\n            sig == IVaultAction.reduceMaxBorrowCapacity.selector ||\n            sig == IVaultAction.updateSecondaryBorrowCapacity.selector ||\n            sig == IVaultAction.depositVaultCashToStrategyTokens.selector ||\n            sig == IVaultAction.redeemStrategyTokensToCash.selector ||\n            sig == IVaultAction.borrowSecondaryCurrencyToVault.selector ||\n            sig == IVaultAction.repaySecondaryCurrencyFromVault.selector ||\n            sig == IVaultAction.settleVault.selector ||\n            sig == IVaultAction.getVaultConfig.selector ||\n            sig == IVaultAction.getBorrowCapacity.selector ||\n            sig == IVaultAction.getSecondaryBorrow.selector ||\n            sig == IVaultAction.getVaultState.selector ||\n            sig == IVaultAction.getCashRequiredToSettle.selector\n        ) {\n            return VAULT_ACTION;\n        } else if (\n            sig == NotionalProxy.initializeMarkets.selector ||\n            sig == NotionalProxy.sweepCashIntoMarkets.selector\n        ) {\n            return INITIALIZE_MARKET;\n        } else if (\n            sig == NotionalGovernance.listCurrency.selector ||\n            sig == NotionalGovernance.enableCashGroup.selector ||\n            sig == NotionalGovernance.updateCashGroup.selector ||\n            sig == NotionalGovernance.updateAssetRate.selector ||\n            sig == NotionalGovernance.updateETHRate.selector ||\n            sig == NotionalGovernance.transferOwnership.selector ||\n            sig == NotionalGovernance.claimOwnership.selector ||\n            sig == NotionalGovernance.updateIncentiveEmissionRate.selector ||\n            sig == NotionalGovernance.updateMaxCollateralBalance.selector ||\n            sig == NotionalGovernance.updateDepositParameters.selector ||\n            sig == NotionalGovernance.updateInitializationParameters.selector ||\n            sig == NotionalGovernance.updateTokenCollateralParameters.selector ||\n            sig == NotionalGovernance.updateGlobalTransferOperator.selector ||\n            sig == NotionalGovernance.updateAuthorizedCallbackContract.selector ||\n            sig == NotionalGovernance.setLendingPool.selector ||\n            sig == NotionalGovernance.upgradeNTokenBeacon.selector ||\n            sig == NotionalProxy.upgradeTo.selector ||\n            sig == NotionalProxy.upgradeToAndCall.selector\n        ) {\n            return GOVERNANCE;\n        } else if (\n            sig == NotionalTreasury.claimCOMPAndTransfer.selector ||\n            sig == NotionalTreasury.transferReserveToTreasury.selector ||\n            sig == NotionalTreasury.setTreasuryManager.selector ||\n            sig == NotionalTreasury.setReserveBuffer.selector ||\n            sig == NotionalTreasury.setReserveCashBalance.selector\n        ) {\n            return TREASURY;\n        } else if (\n            sig == NotionalCalculations.calculateNTokensToMint.selector ||\n            sig == NotionalCalculations.getfCashAmountGivenCashAmount.selector ||\n            sig == NotionalCalculations.getCashAmountGivenfCashAmount.selector ||\n            sig == NotionalCalculations.nTokenGetClaimableIncentives.selector ||\n            sig == NotionalCalculations.getPresentfCashValue.selector ||\n            sig == NotionalCalculations.getMarketIndex.selector ||\n            sig == NotionalCalculations.getfCashLendFromDeposit.selector ||\n            sig == NotionalCalculations.getfCashBorrowFromPrincipal.selector ||\n            sig == NotionalCalculations.getDepositFromfCashLend.selector ||\n            sig == NotionalCalculations.getPrincipalFromfCashBorrow.selector ||\n            sig == NotionalCalculations.convertCashBalanceToExternal.selector\n        ) {\n            return CALCULATION_VIEWS;\n        } else {\n            // If not found then delegate to views. This will revert if there is no method on\n            // the view contract\n            return VIEWS;\n        }\n    }\n\n    /// @dev Delegates the current call to `implementation`.\n    /// This function does not return to its internal call site, it will return directly to the external caller.\n    function _delegate(address implementation) private {\n        // solhint-disable-next-line no-inline-assembly\n        assembly {\n            // Copy msg.data. We take full control of memory in this inline assembly\n            // block because it will not return to Solidity code. We overwrite the\n            // Solidity scratch pad at memory position 0.\n            calldatacopy(0, 0, calldatasize())\n\n            // Call the implementation.\n            // out and outsize are 0 because we don't know the size yet.\n            let result := delegatecall(gas(), implementation, 0, calldatasize(), 0, 0)\n\n            // Copy the returned data.\n            returndatacopy(0, 0, returndatasize())\n\n            switch result\n                // delegatecall returns 0 on error.\n                case 0 {\n                    revert(0, returndatasize())\n                }\n                default {\n                    return(0, returndatasize())\n                }\n        }\n    }\n\n    fallback() external payable {\n        _delegate(getRouterImplementation(msg.sig));\n    }\n\n    // NOTE: receive() is overridden in \"nProxy\" to allow for eth transfers to succeed\n}\n","sourcePath":"contracts/external/Router.sol","type":"contract","deployment":{"address":"0x433a0679756D6EB110E8Ff730d06DBee5D9F5db5","chainid":"5","blockHeight":7059578}}