{"bytecode":"608060405234801561001057600080fd5b50615200806100206000396000f3fe608060405260043610620001465760003560e01c80638da5cb5b11620000bb578063b242e5341162000079578063b242e534146200034e578063c572cae41462000373578063cfaaf4741462000398578063e31051a114620003bd578063f575e4e214620003e2578063fa17b5f114620004165762000146565b80638da5cb5b14620002a257806398dcbc2314620002ba578063a11a429314620002df578063a508eca01462000304578063a9d7bc5214620003295762000146565b8063413f2c5f1162000109578063413f2c5f14620002115780634e71e0c814620002365780634f1ef286146200024e578063744ec0ef146200026557806382463367146200028a5762000146565b8063038af5dc146200014b57806324a3d62214620001725780633436a19c14620001a2578063353abc5d14620001c75780633659cfe614620001ec575b600080fd5b3480156200015857600080fd5b50620001706200016a366004620035f2565b6200043b565b005b3480156200017f57600080fd5b506200018a620004fb565b6040516200019991906200384d565b60405180910390f35b348015620001af57600080fd5b5062000170620001c136600462003780565b6200050a565b348015620001d457600080fd5b5062000170620001e6366004620032a9565b620005d7565b348015620001f957600080fd5b50620001706200020b3660046200322e565b62000699565b3480156200021e57600080fd5b506200017062000230366004620034e1565b620006c4565b3480156200024357600080fd5b506200017062000756565b620001706200025f366004620032e2565b62000801565b3480156200027257600080fd5b5062000170620002843660046200326c565b6200081e565b3480156200029757600080fd5b506200018a620008b0565b348015620002af57600080fd5b506200018a620008bf565b348015620002c757600080fd5b5062000170620002d936600462003752565b620008d5565b348015620002ec57600080fd5b5062000170620002fe366004620036d2565b62000984565b3480156200031157600080fd5b506200017062000323366004620035f2565b620009cf565b3480156200033657600080fd5b50620001706200034836600462003724565b62000a1a565b3480156200035b57600080fd5b50620001706200036d366004620032a9565b62000b0e565b3480156200038057600080fd5b50620001706200039236600462003568565b62000c0e565b348015620003a557600080fd5b5062000170620003b7366004620034e1565b62000c65565b348015620003ca57600080fd5b5062000170620003dc36600462003610565b62000ce8565b348015620003ef57600080fd5b506200040762000401366004620033a4565b62000e20565b60405162000199919062004094565b3480156200042357600080fd5b506200017062000435366004620032a9565b62001006565b600054600160201b90046001600160a01b03163314620004785760405162461bcd60e51b81526004016200046f9062003d6e565b60405180910390fd5b6200048382620010bc565b6200048e81620010fa565b620004ad5760405162461bcd60e51b81526004016200046f9062003aa7565b620004b9828262001104565b8161ffff167f972af272071de4b82ff83458c3a6de8ba183a9c7dc724d4cf91d25f524a810e182604051620004ef91906200384d565b60405180910390a25050565b6002546001600160a01b031681565b600054600160201b90046001600160a01b031633146200053e5760405162461bcd60e51b81526004016200046f9062003d6e565b6200054986620010bc565b60006200055a8761ffff16620011ae565b90506001600160a01b038116620005855760405162461bcd60e51b81526004016200046f9062003a7d565b62000595818787878787620011d6565b7fe3bfb18d6259be9a43cd772d68c97fe6c61c35a17acb12e047ad8c9698e40aeb87604051620005c6919062004094565b60405180910390a150505050505050565b600054600160201b90046001600160a01b031633146200060b5760405162461bcd60e51b81526004016200046f9062003d6e565b6200061682620010fa565b620006355760405162461bcd60e51b81526004016200046f9062003c8e565b6001600160a01b03821660009081526006602052604090819020805460ff1916831515179055517fd950d85e12aefee0604a6db7758e7c22fdbc3bc402ca6f3c51e7ab11c23a4c6f906200068d908490849062003861565b60405180910390a15050565b620006a481620012e4565b620006c1816040518060200160405280600081525060006200138b565b50565b600054600160201b90046001600160a01b03163314620006f85760405162461bcd60e51b81526004016200046f9062003d6e565b6200070385620010bc565b620007168561ffff1685858585620014d1565b7fff9528b00f1b4a49ad8a5d2c82e5602c172ee7e42bc1f5b7d505a7581b4382348560405162000747919062004094565b60405180910390a15050505050565b600d546001600160a01b0316338114620007845760405162461bcd60e51b81526004016200046f9062003e3f565b600080546040516001600160a01b0380851693600160201b90930416917f8be0079c531659141344cd1fd0a4f28419497f9722a3daafe3b4186f6b6457e091a3600080546001600160a01b03909216600160201b02640100000000600160c01b0319909216919091179055600d80546001600160a01b0319169055565b6200080c82620012e4565b6200081a828260016200138b565b5050565b600054600160201b90046001600160a01b03163314620008525760405162461bcd60e51b81526004016200046f9062003d6e565b600180546001600160a01b03199081166001600160a01b03858116918217909355600280549092169284169283179091556040517f792a598a7f3fb01623bba2594035c736ba3d7ec06210f07d9d7ef036c4a22ac690600090a35050565b6001546001600160a01b031681565b600054600160201b90046001600160a01b031681565b600054600160201b90046001600160a01b03163314620009095760405162461bcd60e51b81526004016200046f9062003d6e565b6200091482620010bc565b6001600160481b038116156200094157620009338261ffff1662001633565b60ff16156200094157600080fd5b620009518261ffff16826200164b565b7f8c7df90515138b34933e6c44ebe1e21c7f53fdf340c14c9f18b3016d2e71ca7782826040516200068d929190620040da565b600054600160201b90046001600160a01b03163314620009b85760405162461bcd60e51b81526004016200046f9062003d6e565b620009c382620010bc565b6200081a828262001696565b600054600160201b90046001600160a01b0316331462000a035760405162461bcd60e51b81526004016200046f9062003d6e565b62000a0e82620010bc565b6200081a8282620016d7565b600054600160201b90046001600160a01b0316331462000a4e5760405162461bcd60e51b81526004016200046f9062003d6e565b62000a5982620010bc565b600062000a6a8361ffff16620011ae565b90506001600160a01b03811662000a955760405162461bcd60e51b81526004016200046f9062003a7d565b6305f5e1008263ffffffff161262000ac15760405162461bcd60e51b81526004016200046f9062003edb565b62000ace818342620019fa565b7f713f9554d16202d36a895476ec29ce9250f47d35422e2d9409e8f644d6aab689838360405162000b01929190620040c0565b60405180910390a1505050565b600054600160201b90046001600160a01b0316331462000b425760405162461bcd60e51b81526004016200046f9062003d6e565b801562000bed576001600160a01b03821662000b725760405162461bcd60e51b81526004016200046f9062003b61565b600080546040516001600160a01b0380861693600160201b90930416917f8be0079c531659141344cd1fd0a4f28419497f9722a3daafe3b4186f6b6457e091a360008054640100000000600160c01b031916600160201b6001600160a01b03851602179055600d80546001600160a01b03191690556200081a565b600d80546001600160a01b0384166001600160a01b03199091161790555050565b600054600160201b90046001600160a01b0316331462000c425760405162461bcd60e51b81526004016200046f9062003d6e565b62000c4d86620010bc565b62000c5d86868686868662001a54565b505050505050565b600054600160201b90046001600160a01b0316331462000c995760405162461bcd60e51b81526004016200046f9062003d6e565b62000ca485620010bc565b62000cb78561ffff168585858562001d05565b7f6e2f98678675da049b2cd990d6f467aac69d623ff4ecdd26a5d42f184a69d3428560405162000747919062004094565b600054600160201b90046001600160a01b0316331462000d1c5760405162461bcd60e51b81526004016200046f9062003d6e565b62000d2787620010bc565b600062000d388861ffff1662001e71565b9050600062000d4b8961ffff1662001e8e565b90508160800151600014801562000d6457506080810151155b62000d6e57600080fd5b505062000d7c878662001696565b62000d888787620016d7565b600030888686868660405162000d9e90620030b8565b62000daf9695949392919062003895565b604051809103906000f08015801562000dcc573d6000803e3d6000fd5b50905062000ddb888262001ea5565b7f6793810fdf58cb4c6e0ee40e4b03eb1075b7cbbb55c34379b918873241972aea888260405162000e0e929190620040a3565b60405180910390a15050505050505050565b60008054600160201b90046001600160a01b0316331462000e555760405162461bcd60e51b81526004016200046f9062003d6e565b6000805461ffff80821660010190811661ffff199092168217909255613fff101562000e955760405162461bcd60e51b81526004016200046f906200394f565b6009600062000ea860208c018c6200322e565b6001600160a01b0316815260208101919091526040016000205461ffff161562000ee65760405162461bcd60e51b81526004016200046f9062003c20565b806009600062000efa60208d018d6200322e565b6001600160a01b031681526020808201929092526040016000908120805461ffff191661ffff949094169390931790925562000f39908a018a6200322e565b6001600160a01b031614158062000f6d5750600362000f5f60608a0160408b0162003387565b600581111562000f6b57fe5b145b1562000f955762000f9561ffff8216600162000f8f368c90038c018c6200344a565b62001f7f565b62000fb161ffff8216600062000f8f368d90038d018d6200344a565b62000fc181888888888862001a54565b7f31404ff4a0f1116f17cfc89a376d7cb9cd8dbd8415e6aa24fdcb8e14e60d71428160405162000ff2919062004094565b60405180910390a198975050505050505050565b600054600160201b90046001600160a01b031633146200103a5760405162461bcd60e51b81526004016200046f9062003d6e565b6200104582620010fa565b620010645760405162461bcd60e51b81526004016200046f9062003c8e565b6001600160a01b03821660009081526008602052604090819020805460ff1916831515179055517fccf663aae81733293dcfcf2a91da8c6f0e7ba8089b34eb4fd5760dd8fd605bd8906200068d908490849062003861565b8061ffff166000108015620010db575060005461ffff90811690821611155b620006c15760405162461bcd60e51b81526004016200046f9062003f01565b803b15155b919050565b6000620011158361ffff16620011ae565b90506001600160a01b0381166200112b57600080fd5b600062001137620022f4565b6001600160a01b03838116600090815260208390526040902080546001600160f81b03169186161515600160f81b02919091178155909150836200117a62002303565b6001600160a01b0394851660009081526020919091526040902080546001600160a01b031916919094161790925550505050565b600080620011bb62002312565b6000938452602052505060409020546001600160a01b031690565b6000620011e2620022f4565b6001600160a01b0388166000908152602082905260409020909150606460ff84161315620012245760405162461bcd60e51b81526004016200046f9062003ade565b8260ff168660ff16106200124c5760405162461bcd60e51b81526004016200046f9062004038565b8360ff168760ff161115620012755760405162461bcd60e51b81526004016200046f9062003bc7565b805464ffffffffff60581b1916600160581b60f89490941b6001600160f81b03191660f09590951b60ff60f01b1660e89690961b60ff60e81b1660e09790971b60ff60e01b1660ff60d81b60d8998a1b161796909617949094179290921790941c939093029190911790555050565b600054600160201b90046001600160a01b03163314806200132857506002546001600160a01b0316331480156200132857506001546001600160a01b038281169116145b620013475760405162461bcd60e51b81526004016200046f9062003dda565b6001546001600160a01b0382811691161415620006c1576200136862002321565b600380546001600160a01b0319166001600160a01b039290921691909117905550565b60006200139762002321565b9050620013a4846200235d565b600083511180620013b25750815b15620013c657620013c48484620023f2565b505b6000620013f37f4910fdfa16fed3260ed0e7147f7cc6da11a60208b5b9406d12a635614ffd914362002421565b805490915060ff16620014ca57805460ff19166001178155604080516001600160a01b0384166024808301919091528251808303909101815260449091019091526020810180516001600160e01b0316631b2ce7f360e11b1790526200145b908690620023f2565b50805460ff191681556200146e62002321565b6001600160a01b0316826001600160a01b031614620014bf5760405162461bcd60e51b815260040180806020018281038252602f81526020018062005101602f913960400191505060405180910390fd5b620014ca8562002424565b5050505050565b6007831115620014f55760405162461bcd60e51b81526004016200046f9062003cfc565b808314620015175760405162461bcd60e51b81526004016200046f906200391f565b60005b81811015620015fd5760008585838181106200153257fe5b9050602002016020810190620015499190620037c8565b63ffffffff16116200156f5760405162461bcd60e51b81526004016200046f9062003b07565b60008383838181106200157e57fe5b9050602002016020810190620015959190620037c8565b63ffffffff16118015620015d55750633b9aca00838383818110620015b657fe5b9050602002016020810190620015cd9190620037c8565b63ffffffff16125b620015f45760405162461bcd60e51b81526004016200046f9062003fd1565b6001016200151a565b5060006200160a62002466565b60008781526020829052604090209091506200162a818787878762002475565b50505050505050565b600080620016418362002554565b60ff169392505050565b60006200165762002573565b60009384526020908152604080852085805290915290922080546001600160481b03909216600160b81b026001600160b81b0390921691909117905550565b620016a68261ffff168262002582565b7f8fd2367aaaca3606dee299bbef980da42d4e906e355f28c3dd3a2f4d81d6b463826040516200068d919062004094565b6000620016e88361ffff1662001e71565b90506001600160a01b03821662001732576004816060015160058111156200170c57fe5b146200172c5760405162461bcd60e51b81526004016200046f90620039b3565b620019f5565b6000826001600160a01b031663fc0c546a6040518163ffffffff1660e01b815260040160206040518083038186803b1580156200176e57600080fd5b505afa15801562001783573d6000803e3d6000fd5b505050506040513d601f19601f82011682018060405250810190620017a991906200324d565b9050806001600160a01b031682600001516001600160a01b031614620017e35760405162461bcd60e51b81526004016200046f9062004064565b600060018561ffff161415620017fc575060126200193a565b6000846001600160a01b0316636f307dc36040518163ffffffff1660e01b815260040160206040518083038186803b1580156200183857600080fd5b505afa1580156200184d573d6000803e3d6000fd5b505050506040513d601f19601f820116820180604052508101906200187391906200324d565b90506000620018868761ffff1662001e8e565b905080600001516001600160a01b0316826001600160a01b031614620018c05760405162461bcd60e51b81526004016200046f9062003b35565b816001600160a01b031663313ce5676040518163ffffffff1660e01b815260040160206040518083038186803b158015620018fa57600080fd5b505afa1580156200190f573d6000803e3d6000fd5b505050506040513d601f19601f8201168201806040525081019062001935919062003804565b925050505b60248160ff1611156200194c57600080fd5b600062001958620029aa565b6040805180820182526001600160a01b03808916825260ff808716602080850191825261ffff8d16600090815290879052859020935184549151909216600160a01b0260ff60a01b19929093166001600160a01b03199091161716179055519091507f6cdee7159e82379f09a4a5d337e4681b6907c7851f6bba2b90e1ccc02aa7a39690620019e990889062004094565b60405180910390a15050505b505050565b62001a0883600083620029b9565b50600062001a15620022f4565b6001600160a01b03909416600090815260209490945250506040909120805463ffffffff909216620100000265ffffffff000019909216919091179055565b600060018761ffff16141562001a71575060009450601262001b12565b6001600160a01b03861662001a9a5760405162461bcd60e51b81526004016200046f9062003e74565b856001600160a01b031663313ce5676040518163ffffffff1660e01b815260040160206040518083038186803b15801562001ad457600080fd5b505afa15801562001ae9573d6000803e3d6000fd5b505050506040513d601f19601f8201168201806040525081019062001b0f919062003804565b90505b60648460ff16121562001b395760405162461bcd60e51b81526004016200046f9062003cc5565b60648360ff16131562001b605760405162461bcd60e51b81526004016200046f9062003e08565b60648260ff161362001b865760405162461bcd60e51b81526004016200046f9062003da3565b60248160ff16111562001b9857600080fd5b600062001ba462002aa3565b90506040518060c00160405280886001600160a01b031681526020018360ff16815260200187151581526020018660ff1681526020018560ff1681526020018460ff168152508160008a61ffff16815260200190815260200160002060008201518160000160006101000a8154816001600160a01b0302191690836001600160a01b0316021790555060208201518160000160146101000a81548160ff021916908360ff16021790555060408201518160000160156101000a81548160ff02191690831515021790555060608201518160000160166101000a81548160ff021916908360ff16021790555060808201518160000160176101000a81548160ff021916908360ff16021790555060a08201518160000160186101000a81548160ff021916908360ff1602179055509050507f32df9e03d26f91a7fa4d4a9e48c2038679570cde31d5c7f979a04515e00a767d8860405162000e0e919062004094565b600783111562001d295760405162461bcd60e51b81526004016200046f9062003f2e565b82811462001d4b5760405162461bcd60e51b81526004016200046f90620038e8565b6000805b8481101562001e145785858281811062001d6557fe5b905060200201602081019062001d7c9190620037c8565b63ffffffff1682019150600084848381811062001d9557fe5b905060200201602081019062001dac9190620037c8565b63ffffffff1611801562001dec5750633b9aca0084848381811062001dcd57fe5b905060200201602081019062001de49190620037c8565b63ffffffff16125b62001e0b5760405162461bcd60e51b81526004016200046f9062003d3e565b60010162001d4f565b506305f5e100811462001e3b5760405162461bcd60e51b81526004016200046f9062003eab565b600062001e4762002ab2565b600088815260208290526040902090915062001e67818888888862002475565b5050505050505050565b62001e7b620030c6565b62001e8882600062002ac1565b92915050565b62001e98620030c6565b62001e8882600162002ac1565b600062001eb162002312565b61ffff84166000908152602082905260409020549091506001600160a01b03161562001ef15760405162461bcd60e51b81526004016200046f9062003f9a565b600062001efd620022f4565b6001600160a01b038416600090815260208290526040902080549192509061ffff161562001f3f5760405162461bcd60e51b81526004016200046f9062003986565b805461ffff191661ffff959095169485179055506000928352602052604090912080546001600160a01b0319166001600160a01b03909216919091179055565b600062001f8b62002573565b905060038260400151600581111562001fa057fe5b14801562001fae5750600184145b1562001ffb57600084815260209182526040808220600183529092522080546001600160b01b031916600360a81b1760ff60b01b1916600960b11b176001600160b81b03169055620019f5565b81516001600160a01b0316620020255760405162461bcd60e51b81526004016200046f90620039e2565b600062002033858562002ac1565b835181519192506001600160a01b03918216911614806200205c575080516001600160a01b0316155b6200207b5760405162461bcd60e51b81526004016200046f9062003c57565b826060015160ff1660001080156200209b57506024836060015160ff1611155b620020ba5760405162461bcd60e51b81526004016200046f9062003bf2565b600383604001516005811115620020cd57fe5b1415620020d957600080fd5b83156200211d5760808301516001600160481b031615620020f957600080fd5b6000836040015160058111156200210c57fe5b146200211757600080fd5b6200213c565b6000836040015160058111156200213057fe5b14156200213c57600080fd5b6001836040015160058111156200214f57fe5b14806200216c57506005836040015160058111156200216a57fe5b145b15620022315760006200217f8662001e8e565b905060006001856040015160058111156200219657fe5b14620021b757737d2768de32b0b80b7a3454c06bdac94a69ddc7a9620021ba565b84515b825160405163095ea7b360e01b81529192506001600160a01b03169063095ea7b390620021f0908490600019906004016200387c565b600060405180830381600087803b1580156200220b57600080fd5b505af115801562002220573d6000803e3d6000fd5b505050506200222e62002b72565b50505b600085815260208381526040808320871515845282529182902085518154928701511515600160a01b0260ff60a01b196001600160a01b039092166001600160a01b0319909416939093171691909117808255918501518592829060ff60a81b1916600160a81b836005811115620022a557fe5b0217905550606082015181546080909301516001600160481b0316600160b81b026001600160b81b0360ff909216600160b01b0260ff60b01b1990941693909317169190911790555050505050565b60008062001e88600262002be5565b60008062001e88601262002be5565b60008062001e88600362002be5565b60006200234e7f360894a13ba1a3210667c828492db98dca3e2076cc3735a920a3ca505d382bbc62002421565b546001600160a01b0316905090565b6200236881620010fa565b620023a55760405162461bcd60e51b815260040180806020018281038252602d81526020018062005151602d913960400191505060405180910390fd5b80620023d17f360894a13ba1a3210667c828492db98dca3e2076cc3735a920a3ca505d382bbc62002421565b80546001600160a01b0319166001600160a01b039290921691909117905550565b60606200241a83836040518060600160405280602781526020016200517e6027913962002bff565b9392505050565b90565b6200242f816200235d565b6040516001600160a01b038216907fbc7cd75a20ee27fd9adebab32041f755214dbc6bffa90cc0225b39da2e5c2d3b90600090a250565b60008062001e88600562002be5565b6000805b848110156200162a578585828181106200248f57fe5b9050602002016020810190620024a69190620037c8565b8783600e8110620024b357fe5b600891828204019190066004026101000a81548163ffffffff021916908363ffffffff1602179055508180600101925050838382818110620024f157fe5b9050602002016020810190620025089190620037c8565b8783600e81106200251557fe5b600891828204019190066004026101000a81548163ffffffff021916908363ffffffff1602179055508180600101925050808060010191505062002479565b6000806200256162002d0b565b60009384526020525050604090205490565b60008062001e88600762002be5565b620025916020820182620037e5565b60ff16600211158015620025b757506007620025b16020830183620037e5565b60ff1611155b620025d65760405162461bcd60e51b81526004016200046f9062003a0f565b6064620025ea6080830160608401620037e5565b60ff1613156200260e5760405162461bcd60e51b81526004016200046f9062004001565b6200261d6020820182620037e5565b60ff1662002630610120830183620040f7565b9050146200263d57600080fd5b6200264c6020820182620037e5565b60ff166200265f610140830183620040f7565b9050146200266c57600080fd5b6200267e60c0820160a08301620037e5565b60ff1662002694610100830160e08401620037e5565b60ff1610620026a257600080fd5b620026b460a0820160808301620037e5565b60ff16620026cb61012083016101008401620037e5565b60ff1610620026d957600080fd5b6000620026e68362001633565b9050620026f76020830183620037e5565b60ff168160ff1611156200271f5760405162461bcd60e51b81526004016200046f9062003f65565b600060406200273761012085016101008601620037e5565b60ff16901b603862002751610100860160e08701620037e5565b60ff16901b60306200276a60e0870160c08801620037e5565b60ff16901b60286200278360c0880160a08901620037e5565b60ff16901b60206200279c60a0890160808a01620037e5565b60ff16901b6018620027b560808a0160608b01620037e5565b60ff16901b6010620027ce60608b0160408c01620037e5565b60ff16901b6008620027e760408c0160208d01620037e5565b60ff16901b620027fb60208c018c620037e5565b60ff161717171717171717905060005b6200281b610120850185620040f7565b9050811015620028c957606462002837610120860186620040f7565b838181106200284257fe5b9050602002016020810190620028599190620037e5565b60ff1613156200287d5760405162461bcd60e51b81526004016200046f9062003b90565b6048600882020162002894610120860186620040f7565b838181106200289f57fe5b9050602002016020810190620028b69190620037e5565b60ff16901b91909117906001016200280b565b5060005b620028dd610140850185620040f7565b90508110156200298757620028f7610140850185620040f7565b828181106200290257fe5b9050602002016020810190620029199190620037e5565b60ff166200293b5760405162461bcd60e51b81526004016200046f9062003a46565b6080600882020162002952610140860186620040f7565b838181106200295d57fe5b9050602002016020810190620029749190620037e5565b60ff16901b9190911790600101620028cd565b5060006200299462002d0b565b6000958652602052506040909320929092555050565b60008062001e88600f62002be5565b6000806000620029ca868562002d1a565b50915091506000620029db62002dbe565b6001600160a01b038816600090815260208290526040812091925062002a02858962002dcd565b90508060001315801562002a1c57506001600160601b0381105b62002a2657600080fd5b81546bffffffffffffffffffffffff19166001600160601b038216176fffffffffffffffffffffffffffffffff60601b1916600160601b6001600160801b0386160217825563ffffffff871062002a7c57600080fd5b5080546001600160e01b0316600160e01b63ffffffff881602179055509150509392505050565b60008062001e88601062002be5565b60008062001e88600462002be5565b62002acb620030c6565b600062002ad762002573565b6000858152602082815260408083208715158452825291829020825160a08101845281546001600160a01b038116825260ff600160a01b82048116151594830194909452600160b01b81048416600a0a9482019490945293945092916060830191600160a81b90910416600581111562002b4d57fe5b81529154600160b81b90046001600160481b0316602090920191909152949350505050565b600062002b7e620030f5565b3d801562002b94576020811462002b9e57600080fd5b6001925062002ba9565b60206000833e815192505b50816200081a576040805162461bcd60e51b8152602060048201526005602482015264045524332360dc1b604482015290519081900360640190fd5b6000620f424082601281111562002bf857fe5b0192915050565b606062002c0c84620010fa565b62002c495760405162461bcd60e51b8152600401808060200182810382526026815260200180620051a56026913960400191505060405180910390fd5b600080856001600160a01b0316856040518082805190602001908083835b6020831062002c885780518252601f19909201916020918201910162002c67565b6001836020036101000a038019825116818451168082178552505050505050905001915050600060405180830381855af49150503d806000811462002cea576040519150601f19603f3d011682016040523d82523d6000602084013e62002cef565b606091505b509150915062002d0182828662002de4565b9695505050505050565b60008062001e88600962002be5565b600080600062002d2a8562002e8e565b91945092509050808411801562002d415750600081115b801562002d4e5750600083115b1562002db757600062002d618662002eec565b505050915050600062002d9062002d866305f5e1008462002f5a90919063ffffffff16565b8488038762002fb8565b905062002d9e848262002ff4565b93506001600160801b03841062002db457600080fd5b50505b9250925092565b60008062001e88601162002be5565b8181018281121560008312151462001e8857600080fd5b6060831562002df55750816200241a565b82511562002e065782518084602001fd5b8160405162461bcd60e51b81526004018080602001828103825283818151815260200191508051906020019080838360005b8381101562002e5257818101518382015260200162002e38565b50505050905090810190601f16801562002e805780820380516001836020036101000a031916815260200191505b509250505060405180910390fd5b60008060008062002e9e62002dbe565b6001600160a01b0395909516600090815260209590955250506040909220546001600160601b03811693600160601b82046001600160801b03169350600160e01b90910463ffffffff169150565b60008060008060008062002eff620022f4565b6001600160a01b039097166000908152602097909752505060409094205461ffff81169563ffffffff620100008304811696506601000000000000830416945060ff600160501b8304169350600160581b90910460d81b9150565b60008262002f6b5750600062001e88565b8282028284828162002f7957fe5b04146200241a5760405162461bcd60e51b8152600401808060200182810382526021815260200180620051306021913960400191505060405180910390fd5b600062002fec8262002fe56301da9c00818862002fde89670de0b6b3a764000062002f5a565b9062002f5a565b906200304f565b949350505050565b6000828201838110156200241a576040805162461bcd60e51b815260206004820152601b60248201527f536166654d6174683a206164646974696f6e206f766572666c6f770000000000604482015290519081900360640190fd5b6000808211620030a6576040805162461bcd60e51b815260206004820152601a60248201527f536166654d6174683a206469766973696f6e206279207a65726f000000000000604482015290519081900360640190fd5b818381620030b057fe5b049392505050565b610f74806200418d83390190565b6040805160a0810182526000808252602082018190529181018290529060608201908152602001600081525090565b60405180602001604052806001906020820280368337509192915050565b60008083601f84011262003125578081fd5b50813567ffffffffffffffff8111156200313d578182fd5b60208301915083602080830285010111156200315857600080fd5b9250929050565b80358015158114620010ff57600080fd5b803560068110620010ff57600080fd5b60008083601f84011262003192578182fd5b50813567ffffffffffffffff811115620031aa578182fd5b6020830191508360208285010111156200315857600080fd5b60006101608284031215620031d6578081fd5b50919050565b600060a08284031215620031d6578081fd5b803561ffff81168114620010ff57600080fd5b803563ffffffff81168114620010ff57600080fd5b80356001600160481b0381168114620010ff57600080fd5b60006020828403121562003240578081fd5b81356200241a8162004166565b6000602082840312156200325f578081fd5b81516200241a8162004166565b600080604083850312156200327f578081fd5b82356200328c8162004166565b915060208301356200329e8162004166565b809150509250929050565b60008060408385031215620032bc578182fd5b8235620032c98162004166565b9150620032d9602084016200315f565b90509250929050565b60008060408385031215620032f5578182fd5b8235620033028162004166565b915060208381013567ffffffffffffffff8082111562003320578384fd5b818601915086601f83011262003334578384fd5b8135818111156200334157fe5b62003355601f8201601f1916850162004141565b915080825287848285010111156200336b578485fd5b8084840185840137810190920192909252919491935090915050565b60006020828403121562003399578081fd5b6200241a8262003170565b60008060008060008060006101e0888a031215620033c0578283fd5b620033cc8989620031dc565b9650620033dd8960a08a01620031dc565b9550610140880135620033f08162004166565b94506200340161016089016200315f565b935061018088013562003414816200417c565b92506101a088013562003427816200417c565b91506101c08801356200343a816200417c565b8091505092959891949750929550565b600060a082840312156200345c578081fd5b60405160a0810181811067ffffffffffffffff821117156200347a57fe5b60405282356200348a8162004166565b81526200349a602084016200315f565b6020820152620034ad6040840162003170565b60408201526060830135620034c2816200417c565b6060820152620034d56080840162003216565b60808201529392505050565b600080600080600060608688031215620034f9578283fd5b6200350486620031ee565b9450602086013567ffffffffffffffff8082111562003521578485fd5b6200352f89838a0162003113565b9096509450604088013591508082111562003548578283fd5b50620035578882890162003113565b969995985093965092949392505050565b60008060008060008060c0878903121562003581578384fd5b6200358c87620031ee565b955060208701356200359e8162004166565b9450620035ae604088016200315f565b93506060870135620035c0816200417c565b92506080870135620035d2816200417c565b915060a0870135620035e4816200417c565b809150509295509295509295565b6000806040838503121562003605578182fd5b6200328c83620031ee565b600080600080600080600060a0888a0312156200362b578081fd5b6200363688620031ee565b96506020880135620036488162004166565b9550604088013567ffffffffffffffff8082111562003665578283fd5b620036738b838c01620031c3565b965060608a013591508082111562003689578283fd5b620036978b838c0162003180565b909650945060808a0135915080821115620036b0578283fd5b50620036bf8a828b0162003180565b989b979a50959850939692959293505050565b60008060408385031215620036e5578182fd5b620036f083620031ee565b9150602083013567ffffffffffffffff8111156200370c578182fd5b6200371a85828601620031c3565b9150509250929050565b6000806040838503121562003737578182fd5b6200374283620031ee565b9150620032d96020840162003201565b6000806040838503121562003765578182fd5b6200377083620031ee565b9150620032d96020840162003216565b60008060008060008060c0878903121562003799578384fd5b620037a487620031ee565b95506020870135620037b6816200417c565b94506040870135620035ae816200417c565b600060208284031215620037da578081fd5b6200241a8262003201565b600060208284031215620037f7578081fd5b81356200241a816200417c565b60006020828403121562003816578081fd5b81516200241a816200417c565b60008284528282602086013780602084860101526020601f19601f85011685010190509392505050565b6001600160a01b0391909116815260200190565b6001600160a01b039290921682521515602082015260400190565b6001600160a01b03929092168252602082015260400190565b6001600160a01b038716815261ffff86166020820152608060408201819052600090620038c6908301868862003823565b8281036060840152620038db81858762003823565b9998505050505050505050565b60208082526019908201527f50543a206c65766572616765207368617265206c656e67746800000000000000604082015260600190565b6020808252601690820152750a0a87440e0e4dee0dee4e8d2dedce640d8cadccee8d60531b604082015260600190565b60208082526018908201527f473a206d61782063757272656e6379206f766572666c6f770000000000000000604082015260600190565b60208082526013908201527250543a2063757272656e63792065786973747360681b604082015260600190565b602080825260159082015274473a20696e76616c6964206173736574207261746560581b604082015260600190565b60208082526013908201527254483a2061646472657373206973207a65726f60681b604082015260600190565b60208082526018908201527f43473a20696e76616c6964206d61726b657420696e6465780000000000000000604082015260600190565b60208082526017908201527f43473a20696e76616c69642072617465207363616c6172000000000000000000604082015260600190565b60208082526010908201526f496e76616c69642063757272656e637960801b604082015260600190565b6020808252601b908201527f5265776172646572206d757374206265206120636f6e74726163740000000000604082015260600190565b6020808252600f908201526e125b9d985b1a59081a185a5c98dd5d608a1b604082015260600190565b6020808252601490820152734e543a20616e63686f722072617465207a65726f60601b604082015260600190565b602080825260129082015271239d1034b73b30b634b21030b230b83a32b960711b604082015260600190565b6020808252601590820152744f776e61626c653a207a65726f206164647265737360581b604082015260600190565b60208082526019908201527f43473a20696e76616c696420746f6b656e206861697263757400000000000000604082015260600190565b602080825260119082015270496e76616c696420646973636f756e747360781b604082015260600190565b60208082526014908201527354483a20696e76616c696420646563696d616c7360601b604082015260600190565b6020808252601a908201527f473a206475706c696361746520746f6b656e206c697374696e67000000000000604082015260600190565b60208082526019908201527f54483a20746f6b656e2063616e6e6f7420626520726573657400000000000000604082015260600190565b6020808252601b908201527f4f70657261746f72206d757374206265206120636f6e74726163740000000000604082015260600190565b6020808252601e908201527f473a20627566666572206d7573742062652067746520646563696d616c730000604082015260600190565b60208082526022908201527f50543a20616e6e75616c697a656420616e63686f72207261746573206c656e676040820152610e8d60f31b606082015260800190565b60208082526016908201527514150e881b195d995c9859d9481d1a1c995cda1bdb1960521b604082015260600190565b6020808252818101527f4f776e61626c653a2063616c6c6572206973206e6f7420746865206f776e6572604082015260600190565b6020808252601f908201527f473a20646973636f756e74206d75737420626520677420646563696d616c7300604082015260600190565b602080825260149082015273556e617574686f72697a6564207570677261646560601b604082015260600190565b6020808252601e908201527f473a20627566666572206d757374206265206c746520646563696d616c730000604082015260600190565b6020808252818101527f4f776e61626c653a2063616c6c657220213d2070656e64696e67206f776e6572604082015260600190565b6020808252601b908201527f473a207a65726f2072617465206f7261636c6520616464726573730000000000604082015260600190565b60208082526016908201527550543a206465706f736974207368617265732073756d60501b604082015260600190565b6020808252600c908201526b496e76616c6964207261746560a01b604082015260600190565b602080825260139082015272125b9d985b1a590818dd5c9c995b98de481a59606a1b604082015260600190565b60208082526018908201527f50543a206465706f736974207368617265206c656e6774680000000000000000604082015260600190565b6020808252818101527f43473a206d61726b657420696e6465782063616e6e6f74206465637265617365604082015260600190565b60208082526018908201527f50543a20746f6b656e2061646472657373206578697374730000000000000000604082015260600190565b602080825260169082015275282a1d1034b73b30b634b210383937b837b93a34b7b760511b604082015260600190565b60208082526019908201527f43473a20696e76616c6964207265736572766520736861726500000000000000604082015260600190565b602080825260129082015271125b9d985b1a59081c1d881a185a5c98dd5d60721b604082015260600190565b602080825260169082015275473a20696e76616c69642072617465206f7261636c6560501b604082015260600190565b61ffff91909116815260200190565b61ffff9290921682526001600160a01b0316602082015260400190565b61ffff92909216825263ffffffff16602082015260400190565b61ffff9290921682526001600160481b0316602082015260400190565b6000808335601e198436030181126200410e578283fd5b83018035915067ffffffffffffffff82111562004129578283fd5b60209081019250810236038213156200315857600080fd5b60405181810167ffffffffffffffff811182821017156200415e57fe5b604052919050565b6001600160a01b0381168114620006c157600080fd5b60ff81168114620006c157600080fdfe60c06040523480156200001157600080fd5b5060405162000f7438038062000f748339810160408190526200003491620001fb565b6001600160601b0319606085901b166080526001600160f01b031960f084901b1660a0526040516200006b908390602001620002c7565b6040516020818303038152906040526000908051906020019062000091929190620000d6565b5080604051602001620000a591906200029c565b60405160208183030381529060405260019080519060200190620000cb929190620000d6565b50505050506200032b565b828054600181600116156101000203166002900490600052602060002090601f0160209004810192826200010e576000855562000159565b82601f106200012957805160ff191683800117855562000159565b8280016001018555821562000159579182015b82811115620001595782518255916020019190600101906200013c565b50620001679291506200016b565b5090565b5b808211156200016757600081556001016200016c565b600082601f83011262000193578081fd5b81516001600160401b0380821115620001a857fe5b604051601f8301601f191681016020018281118282101715620001c757fe5b604052828152848301602001861015620001df578384fd5b620001f2836020830160208801620002f8565b95945050505050565b6000806000806080858703121562000211578384fd5b84516001600160a01b038116811462000228578485fd5b602086015190945061ffff8116811462000240578384fd5b60408601519093506001600160401b03808211156200025d578384fd5b6200026b8883890162000182565b9350606087015191508082111562000281578283fd5b50620002908782880162000182565b91505092959194509250565b6000603760f91b82528251620002ba816001850160208701620002f8565b9190910160010192915050565b6000660372a37b5b2b7160cd1b82528251620002eb816007850160208701620002f8565b9190910160070192915050565b60005b8381101562000315578181015183820152602001620002fb565b8381111562000325576000848401525b50505050565b60805160601c60a05160f01c610bd4620003a06000398061028c5280610420528061047652806105b3528061067c52806106eb52806107a152806108c652508061025d528061039452806104475280610586528061064f52806106be5280610772528061089952806109445250610bd46000f3fe608060405234801561001057600080fd5b50600436106100cf5760003560e01c806370a082311161008c57806395d89b411161006657806395d89b4114610187578063a9059cbb1461018f578063dd62ed3e146101a2578063ec556889146101b5576100cf565b806370a082311461016457806390ab60a71461017757806391cf16a81461017f576100cf565b806306fdde03146100d4578063095ea7b3146100f257806318160ddd146101125780631feeece21461012757806323b872dd1461013c578063313ce5671461014f575b600080fd5b6100dc6101ca565b6040516100e99190610a8d565b60405180910390f35b610105610100366004610a04565b610258565b6040516100e99190610a79565b61011a61037a565b6040516100e99190610a84565b61012f61041e565b6040516100e99190610ae0565b61010561014a3660046109c9565b610442565b610157610567565b6040516100e99190610b90565b61011a61017236600461097d565b61056c565b61011a610635565b61011a6106a4565b6100dc610713565b61010561019d366004610a04565b61076d565b61011a6101b0366004610997565b61087f565b6101bd610942565b6040516100e99190610a65565b6000805460408051602060026001851615610100026000190190941693909304601f810184900484028201840190925281815292918301828280156102505780601f1061022557610100808354040283529160200191610250565b820191906000526020600020905b81548152906001019060200180831161023357829003601f168201915b505050505081565b6000807f00000000000000000000000000000000000000000000000000000000000000006001600160a01b031663309c00a67f00000000000000000000000000000000000000000000000000000000000000003387876040518563ffffffff1660e01b81526004016102cd9493929190610b40565b602060405180830381600087803b1580156102e757600080fd5b505af11580156102fb573d6000803e3d6000fd5b505050506040513d601f19601f8201168201806040525081019061031f9190610a2d565b9050801561037357836001600160a01b0316336001600160a01b03167f8c5be1e5ebec7d5bd14f71427d1e84f3dd0314c0f7b2291e5b200ac8c7c3b9258560405161036a9190610a84565b60405180910390a35b9392505050565b604051636a96e86f60e01b81526000906001600160a01b037f00000000000000000000000000000000000000000000000000000000000000001690636a96e86f906103c9903090600401610a65565b60206040518083038186803b1580156103e157600080fd5b505afa1580156103f5573d6000803e3d6000fd5b505050506040513d601f19601f820116820180604052508101906104199190610a4d565b905090565b7f000000000000000000000000000000000000000000000000000000000000000081565b6000807f00000000000000000000000000000000000000000000000000000000000000006001600160a01b031663884a70927f0000000000000000000000000000000000000000000000000000000000000000338888886040518663ffffffff1660e01b81526004016104b9959493929190610b0c565b602060405180830381600087803b1580156104d357600080fd5b505af11580156104e7573d6000803e3d6000fd5b505050506040513d601f19601f8201168201806040525081019061050b9190610a2d565b9050801561055f57836001600160a01b0316856001600160a01b03167fddf252ad1be2c89b69c2b068fc378daa952ba7f163c4a11628f55a4df523b3ef856040516105569190610a84565b60405180910390a35b949350505050565b600881565b60405163a78dbfff60e01b81526000906001600160a01b037f0000000000000000000000000000000000000000000000000000000000000000169063a78dbfff906105dd907f0000000000000000000000000000000000000000000000000000000000000000908690600401610aef565b60206040518083038186803b1580156105f557600080fd5b505afa158015610609573d6000803e3d6000fd5b505050506040513d601f19601f8201168201806040525081019061062d9190610a4d565b90505b919050565b604051631a05bce160e01b81526000906001600160a01b037f00000000000000000000000000000000000000000000000000000000000000001690631a05bce1906103c9907f000000000000000000000000000000000000000000000000000000000000000090600401610ae0565b604051633b2987b360e01b81526000906001600160a01b037f00000000000000000000000000000000000000000000000000000000000000001690633b2987b3906103c9907f000000000000000000000000000000000000000000000000000000000000000090600401610ae0565b60018054604080516020600284861615610100026000190190941693909304601f810184900484028201840190925281815292918301828280156102505780601f1061022557610100808354040283529160200191610250565b6000807f00000000000000000000000000000000000000000000000000000000000000006001600160a01b03166318ae40d77f00000000000000000000000000000000000000000000000000000000000000003387876040518563ffffffff1660e01b81526004016107e29493929190610b40565b602060405180830381600087803b1580156107fc57600080fd5b505af1158015610810573d6000803e3d6000fd5b505050506040513d601f19601f820116820180604052508101906108349190610a2d565b9050801561037357836001600160a01b0316336001600160a01b03167fddf252ad1be2c89b69c2b068fc378daa952ba7f163c4a11628f55a4df523b3ef8560405161036a9190610a84565b604051637db31ab960e01b81526000906001600160a01b037f00000000000000000000000000000000000000000000000000000000000000001690637db31ab9906108f2907f00000000000000000000000000000000000000000000000000000000000000009087908790600401610b6b565b60206040518083038186803b15801561090a57600080fd5b505afa15801561091e573d6000803e3d6000fd5b505050506040513d601f19601f820116820180604052508101906103739190610a4d565b7f000000000000000000000000000000000000000000000000000000000000000081565b80356001600160a01b038116811461063057600080fd5b60006020828403121561098e578081fd5b61037382610966565b600080604083850312156109a9578081fd5b6109b283610966565b91506109c060208401610966565b90509250929050565b6000806000606084860312156109dd578081fd5b6109e684610966565b92506109f460208501610966565b9150604084013590509250925092565b60008060408385031215610a16578182fd5b610a1f83610966565b946020939093013593505050565b600060208284031215610a3e578081fd5b81518015158114610373578182fd5b600060208284031215610a5e578081fd5b5051919050565b6001600160a01b0391909116815260200190565b901515815260200190565b90815260200190565b6000602080835283518082850152825b81811015610ab957858101830151858201604001528201610a9d565b81811115610aca5783604083870101525b50601f01601f1916929092016040019392505050565b61ffff91909116815260200190565b61ffff9290921682526001600160a01b0316602082015260400190565b61ffff9590951685526001600160a01b03938416602086015291831660408501529091166060830152608082015260a00190565b61ffff9490941684526001600160a01b03928316602085015291166040830152606082015260800190565b61ffff9390931683526001600160a01b03918216602084015216604082015260600190565b60ff9190911681526020019056fea2646970667358221220452886d9411fd0bcde4615ceb4b6d0dee58dd9a7a7e24a6a5055a7e50cb44e8564736f6c6343000706003345524331393637557067726164653a207570677261646520627265616b732066757274686572207570677261646573536166654d6174683a206d756c7469706c69636174696f6e206f766572666c6f77455243313936373a206e657720696d706c656d656e746174696f6e206973206e6f74206120636f6e7472616374416464726573733a206c6f772d6c6576656c2064656c65676174652063616c6c206661696c6564416464726573733a2064656c65676174652063616c6c20746f206e6f6e2d636f6e7472616374a2646970667358221220e3491846d9335abe0eec5f817c554b324efab4d5c1bdf5982e8c5d546489e22264736f6c63430007060033","bytecodeSha1":"3e2426929a9061b323bb139ca88d5a3fb9f22f57","type":"contract","abi":[{"anonymous":false,"inputs":[{"indexed":false,"internalType":"address","name":"previousAdmin","type":"address"},{"indexed":false,"internalType":"address","name":"newAdmin","type":"address"}],"name":"AdminChanged","type":"event"},{"anonymous":false,"inputs":[{"indexed":true,"internalType":"address","name":"beacon","type":"address"}],"name":"BeaconUpgraded","type":"event"},{"anonymous":false,"inputs":[{"indexed":false,"internalType":"uint16","name":"currencyId","type":"uint16"},{"indexed":false,"internalType":"address","name":"nTokenAddress","type":"address"}],"name":"DeployNToken","type":"event"},{"anonymous":false,"inputs":[{"indexed":false,"internalType":"uint16","name":"newCurrencyId","type":"uint16"}],"name":"ListCurrency","type":"event"},{"anonymous":false,"inputs":[{"indexed":true,"internalType":"address","name":"previousOwner","type":"address"},{"indexed":true,"internalType":"address","name":"newOwner","type":"address"}],"name":"OwnershipTransferred","type":"event"},{"anonymous":false,"inputs":[{"indexed":true,"internalType":"address","name":"pauseRouter","type":"address"},{"indexed":true,"internalType":"address","name":"pauseGuardian","type":"address"}],"name":"PauseRouterAndGuardianUpdated","type":"event"},{"anonymous":false,"inputs":[{"indexed":false,"internalType":"uint16","name":"currencyId","type":"uint16"}],"name":"UpdateAssetRate","type":"event"},{"anonymous":false,"inputs":[{"indexed":false,"internalType":"address","name":"operator","type":"address"},{"indexed":false,"internalType":"bool","name":"approved","type":"bool"}],"name":"UpdateAuthorizedCallbackContract","type":"event"},{"anonymous":false,"inputs":[{"indexed":false,"internalType":"uint16","name":"currencyId","type":"uint16"}],"name":"UpdateCashGroup","type":"event"},{"anonymous":false,"inputs":[{"indexed":false,"internalType":"uint16","name":"currencyId","type":"uint16"}],"name":"UpdateDepositParameters","type":"event"},{"anonymous":false,"inputs":[{"indexed":false,"internalType":"uint16","name":"currencyId","type":"uint16"}],"name":"UpdateETHRate","type":"event"},{"anonymous":false,"inputs":[{"indexed":false,"internalType":"address","name":"operator","type":"address"},{"indexed":false,"internalType":"bool","name":"approved","type":"bool"}],"name":"UpdateGlobalTransferOperator","type":"event"},{"anonymous":false,"inputs":[{"indexed":false,"internalType":"uint16","name":"currencyId","type":"uint16"},{"indexed":false,"internalType":"uint32","name":"newEmissionRate","type":"uint32"}],"name":"UpdateIncentiveEmissionRate","type":"event"},{"anonymous":false,"inputs":[{"indexed":false,"internalType":"uint16","name":"currencyId","type":"uint16"}],"name":"UpdateInitializationParameters","type":"event"},{"anonymous":false,"inputs":[{"indexed":false,"internalType":"uint16","name":"currencyId","type":"uint16"},{"indexed":false,"internalType":"uint72","name":"maxCollateralBalance","type":"uint72"}],"name":"UpdateMaxCollateralBalance","type":"event"},{"anonymous":false,"inputs":[{"indexed":true,"internalType":"uint16","name":"currencyId","type":"uint16"},{"indexed":false,"internalType":"address","name":"rewarder","type":"address"}],"name":"UpdateSecondaryIncentiveRewarder","type":"event"},{"anonymous":false,"inputs":[{"indexed":false,"internalType":"uint16","name":"currencyId","type":"uint16"}],"name":"UpdateTokenCollateralParameters","type":"event"},{"anonymous":false,"inputs":[{"indexed":true,"internalType":"address","name":"implementation","type":"address"}],"name":"Upgraded","type":"event"},{"inputs":[],"name":"claimOwnership","outputs":[],"stateMutability":"nonpayable","type":"function"},{"inputs":[{"internalType":"uint16","name":"currencyId","type":"uint16"},{"internalType":"contract AssetRateAdapter","name":"assetRateOracle","type":"address"},{"components":[{"internalType":"uint8","name":"maxMarketIndex","type":"uint8"},{"internalType":"uint8","name":"rateOracleTimeWindow5Min","type":"uint8"},{"internalType":"uint8","name":"totalFeeBPS","type":"uint8"},{"internalType":"uint8","name":"reserveFeeShare","type":"uint8"},{"internalType":"uint8","name":"debtBuffer5BPS","type":"uint8"},{"internalType":"uint8","name":"fCashHaircut5BPS","type":"uint8"},{"internalType":"uint8","name":"settlementPenaltyRate5BPS","type":"uint8"},{"internalType":"uint8","name":"liquidationfCashHaircut5BPS","type":"uint8"},{"internalType":"uint8","name":"liquidationDebtBuffer5BPS","type":"uint8"},{"internalType":"uint8[]","name":"liquidityTokenHaircuts","type":"uint8[]"},{"internalType":"uint8[]","name":"rateScalars","type":"uint8[]"}],"internalType":"struct CashGroupSettings","name":"cashGroup","type":"tuple"},{"internalType":"string","name":"underlyingName","type":"string"},{"internalType":"string","name":"underlyingSymbol","type":"string"}],"name":"enableCashGroup","outputs":[],"stateMutability":"nonpayable","type":"function"},{"inputs":[{"components":[{"internalType":"address","name":"tokenAddress","type":"address"},{"internalType":"bool","name":"hasTransferFee","type":"bool"},{"internalType":"enum TokenType","name":"tokenType","type":"uint8"},{"internalType":"uint8","name":"decimalPlaces","type":"uint8"},{"internalType":"uint72","name":"maxCollateralBalance","type":"uint72"}],"internalType":"struct TokenStorage","name":"assetToken","type":"tuple"},{"components":[{"internalType":"address","name":"tokenAddress","type":"address"},{"internalType":"bool","name":"hasTransferFee","type":"bool"},{"internalType":"enum TokenType","name":"tokenType","type":"uint8"},{"internalType":"uint8","name":"decimalPlaces","type":"uint8"},{"internalType":"uint72","name":"maxCollateralBalance","type":"uint72"}],"internalType":"struct TokenStorage","name":"underlyingToken","type":"tuple"},{"internalType":"contract AggregatorV2V3Interface","name":"rateOracle","type":"address"},{"internalType":"bool","name":"mustInvert","type":"bool"},{"internalType":"uint8","name":"buffer","type":"uint8"},{"internalType":"uint8","name":"haircut","type":"uint8"},{"internalType":"uint8","name":"liquidationDiscount","type":"uint8"}],"name":"listCurrency","outputs":[{"internalType":"uint16","name":"","type":"uint16"}],"stateMutability":"nonpayable","type":"function"},{"inputs":[],"name":"owner","outputs":[{"internalType":"address","name":"","type":"address"}],"stateMutability":"view","type":"function"},{"inputs":[],"name":"pauseGuardian","outputs":[{"internalType":"address","name":"","type":"address"}],"stateMutability":"view","type":"function"},{"inputs":[],"name":"pauseRouter","outputs":[{"internalType":"address","name":"","type":"address"}],"stateMutability":"view","type":"function"},{"inputs":[{"internalType":"address","name":"pauseRouter_","type":"address"},{"internalType":"address","name":"pauseGuardian_","type":"address"}],"name":"setPauseRouterAndGuardian","outputs":[],"stateMutability":"nonpayable","type":"function"},{"inputs":[{"internalType":"uint16","name":"currencyId","type":"uint16"},{"internalType":"contract IRewarder","name":"rewarder","type":"address"}],"name":"setSecondaryIncentiveRewarder","outputs":[],"stateMutability":"nonpayable","type":"function"},{"inputs":[{"internalType":"address","name":"newOwner","type":"address"},{"internalType":"bool","name":"direct","type":"bool"}],"name":"transferOwnership","outputs":[],"stateMutability":"nonpayable","type":"function"},{"inputs":[{"internalType":"uint16","name":"currencyId","type":"uint16"},{"internalType":"contract AssetRateAdapter","name":"rateOracle","type":"address"}],"name":"updateAssetRate","outputs":[],"stateMutability":"nonpayable","type":"function"},{"inputs":[{"internalType":"address","name":"operator","type":"address"},{"internalType":"bool","name":"approved","type":"bool"}],"name":"updateAuthorizedCallbackContract","outputs":[],"stateMutability":"nonpayable","type":"function"},{"inputs":[{"internalType":"uint16","name":"currencyId","type":"uint16"},{"components":[{"internalType":"uint8","name":"maxMarketIndex","type":"uint8"},{"internalType":"uint8","name":"rateOracleTimeWindow5Min","type":"uint8"},{"internalType":"uint8","name":"totalFeeBPS","type":"uint8"},{"internalType":"uint8","name":"reserveFeeShare","type":"uint8"},{"internalType":"uint8","name":"debtBuffer5BPS","type":"uint8"},{"internalType":"uint8","name":"fCashHaircut5BPS","type":"uint8"},{"internalType":"uint8","name":"settlementPenaltyRate5BPS","type":"uint8"},{"internalType":"uint8","name":"liquidationfCashHaircut5BPS","type":"uint8"},{"internalType":"uint8","name":"liquidationDebtBuffer5BPS","type":"uint8"},{"internalType":"uint8[]","name":"liquidityTokenHaircuts","type":"uint8[]"},{"internalType":"uint8[]","name":"rateScalars","type":"uint8[]"}],"internalType":"struct CashGroupSettings","name":"cashGroup","type":"tuple"}],"name":"updateCashGroup","outputs":[],"stateMutability":"nonpayable","type":"function"},{"inputs":[{"internalType":"uint16","name":"currencyId","type":"uint16"},{"internalType":"uint32[]","name":"depositShares","type":"uint32[]"},{"internalType":"uint32[]","name":"leverageThresholds","type":"uint32[]"}],"name":"updateDepositParameters","outputs":[],"stateMutability":"nonpayable","type":"function"},{"inputs":[{"internalType":"uint16","name":"currencyId","type":"uint16"},{"internalType":"contract AggregatorV2V3Interface","name":"rateOracle","type":"address"},{"internalType":"bool","name":"mustInvert","type":"bool"},{"internalType":"uint8","name":"buffer","type":"uint8"},{"internalType":"uint8","name":"haircut","type":"uint8"},{"internalType":"uint8","name":"liquidationDiscount","type":"uint8"}],"name":"updateETHRate","outputs":[],"stateMutability":"nonpayable","type":"function"},{"inputs":[{"internalType":"address","name":"operator","type":"address"},{"internalType":"bool","name":"approved","type":"bool"}],"name":"updateGlobalTransferOperator","outputs":[],"stateMutability":"nonpayable","type":"function"},{"inputs":[{"internalType":"uint16","name":"currencyId","type":"uint16"},{"internalType":"uint32","name":"newEmissionRate","type":"uint32"}],"name":"updateIncentiveEmissionRate","outputs":[],"stateMutability":"nonpayable","type":"function"},{"inputs":[{"internalType":"uint16","name":"currencyId","type":"uint16"},{"internalType":"uint32[]","name":"annualizedAnchorRates","type":"uint32[]"},{"internalType":"uint32[]","name":"proportions","type":"uint32[]"}],"name":"updateInitializationParameters","outputs":[],"stateMutability":"nonpayable","type":"function"},{"inputs":[{"internalType":"uint16","name":"currencyId","type":"uint16"},{"internalType":"uint72","name":"maxCollateralBalanceInternalPrecision","type":"uint72"}],"name":"updateMaxCollateralBalance","outputs":[],"stateMutability":"nonpayable","type":"function"},{"inputs":[{"internalType":"uint16","name":"currencyId","type":"uint16"},{"internalType":"uint8","name":"residualPurchaseIncentive10BPS","type":"uint8"},{"internalType":"uint8","name":"pvHaircutPercentage","type":"uint8"},{"internalType":"uint8","name":"residualPurchaseTimeBufferHours","type":"uint8"},{"internalType":"uint8","name":"cashWithholdingBuffer10BPS","type":"uint8"},{"internalType":"uint8","name":"liquidationHaircutPercentage","type":"uint8"}],"name":"updateTokenCollateralParameters","outputs":[],"stateMutability":"nonpayable","type":"function"},{"inputs":[{"internalType":"address","name":"newImplementation","type":"address"}],"name":"upgradeTo","outputs":[],"stateMutability":"nonpayable","type":"function"},{"inputs":[{"internalType":"address","name":"newImplementation","type":"address"},{"internalType":"bytes","name":"data","type":"bytes"}],"name":"upgradeToAndCall","outputs":[],"stateMutability":"payable","type":"function"}],"compiler":{"version":"0.7.6+commit.7338295f","evm_version":"istanbul","optimizer":{"enabled":true,"runs":200}},"contractName":"GovernanceAction","language":"Solidity","natspec":{"methods":{"enableCashGroup(uint16,address,(uint8,uint8,uint8,uint8,uint8,uint8,uint8,uint8,uint8,uint8[],uint8[]),string,string)":{"notice":"Enables a cash group on a given currency so that it can have lend and borrow markets. Will also deploy an nToken contract so that markets can be initialized.","details":"emit:UpdateCashGroup emit:UpdateAssetRate emit:DeployNToken","params":{"assetRateOracle":"address of the rate oracle for converting interest bearing assets to underlying values","cashGroup":"parameters for the cash group","currencyId":"id of the currency to enable","underlyingName":"underlying token name for seeding nToken name","underlyingSymbol":"underlying token symbol for seeding nToken symbol (i.e. nDAI)"}},"listCurrency((address,bool,uint8,uint8,uint72),(address,bool,uint8,uint8,uint72),address,bool,uint8,uint8,uint8)":{"notice":"Lists a new currency along with its exchange rate to ETH","details":"emit:ListCurrency emit:UpdateETHRate","params":{"assetToken":"the token parameters for the asset token","buffer":"multiplier (>= 100) for negative balances when calculating free collateral","haircut":"multiplier (<= 100) for positive balances when calculating free collateral","liquidationDiscount":"multiplier (>= 100) for exchange rate when liquidating","mustInvert":"if the rate from the oracle needs to be inverted","rateOracle":"ETH to underlying rate oracle","underlyingToken":"the underlying token (if asset token is an interest bearing wrapper)"},"returns":{"_0":"the new currency id"}},"setSecondaryIncentiveRewarder(uint16,address)":{"notice":"Sets a secondary incentive rewarder for a currency. This contract will be called whenever an nToken balance changes and allows a secondary contract to mint incentives to the account. This will override any previous rewarder, if set. Will have no effect if there is no nToken corresponding to the currency id.","details":"emit:UpdateSecondaryIncentiveRewarder","params":{"currencyId":"currency id of the nToken","rewarder":"rewarder contract"}},"transferOwnership(address,bool)":{"notice":"Transfers ownership to `newOwner`. Either directly or claimable by the new pending owner. Can only be invoked by the current `owner`.","params":{"direct":"True if `newOwner` should be set immediately. False if `newOwner` needs to use `claimOwnership`.","newOwner":"Address of the new owner."}},"updateAssetRate(uint16,address)":{"notice":"Updates asset rate oracle","details":"emit:UpdateAssetRate","params":{"currencyId":"id of the currency","rateOracle":"new rate oracle for the asset"}},"updateAuthorizedCallbackContract(address,bool)":{"notice":"Approves contracts that can call `batchTradeActionWithCallback`. These contracts can \"flash loan\" from Notional V2 and receive a callback before the free collateral check. Flash loans via the Notional V2 liquidity pool are not very gas efficient so this is not generally available, it can be used for migrating borrows into Notional V2 from other platforms.","details":"emit:UpdateAuthorizedCallbackContract","params":{"approved":"true if the contract is authorized","operator":"address of the contract"}},"updateCashGroup(uint16,(uint8,uint8,uint8,uint8,uint8,uint8,uint8,uint8,uint8,uint8[],uint8[]))":{"notice":"Updates cash group parameters","details":"emit:UpdateCashGroup","params":{"cashGroup":"new parameters for the cash group","currencyId":"id of the currency to enable"}},"updateDepositParameters(uint16,uint32[],uint32[])":{"notice":"Updates the deposit parameters for an nToken","details":"emit:UpdateDepositParameters","params":{"currencyId":"the currency id that the nToken references","depositShares":"an array of values that represent the proportion of each deposit that will go to a respective market, must add up to DEPOSIT_PERCENT_BASIS. For example, 0.40e8, 0.40e8 and 0.20e8 will result in 40%, 40% and 20% deposited as liquidity into the 3 month, 6 month and 1 year markets.","leverageThresholds":"an array of values denominated in RATE_PRECISION that mark the highest proportion of fCash where the nToken will provide liquidity. Above this proportion, the nToken will lend to the market instead to reduce the leverage in the market."}},"updateETHRate(uint16,address,bool,uint8,uint8,uint8)":{"notice":"Updates ETH exchange rate or related parameters","details":"emit:UpdateETHRate","params":{"buffer":"multiplier (>= 100) for negative balances when calculating free collateral","currencyId":"id of the currency","haircut":"multiplier (<= 100) for positive balances when calculating free collateral","liquidationDiscount":"multiplier (>= 100) for exchange rate when liquidating","mustInvert":"if the rate from the oracle needs to be inverted","rateOracle":"ETH to underlying rate oracle"}},"updateGlobalTransferOperator(address,bool)":{"notice":"Sets a global transfer operator that can do authenticated ERC1155 transfers. This enables OTC trading or other use cases such as layer 2 authenticated transfers.","details":"emit:UpdateGlobalTransferOperator","params":{"approved":"true if the operator is allowed to transfer globally","operator":"address of the operator"}},"updateIncentiveEmissionRate(uint16,uint32)":{"notice":"Updates the emission rate of incentives for a given currency","details":"emit:UpdateIncentiveEmissionRate","params":{"currencyId":"the currency id that the nToken references","newEmissionRate":"Target total incentives to emit for an nToken over an entire year denominated in WHOLE TOKENS (i.e. setting this to 1 means 1e8 tokens). The rate will not be exact due to multiplier effects and fluctuating token supply."}},"updateInitializationParameters(uint16,uint32[],uint32[])":{"notice":"Updates the market initialization parameters for an nToken","details":"emit:UpdateInitializationParameters","params":{"annualizedAnchorRates":"is a target interest rate that will be used to calculate a  rate anchor during initialize markets. This rate anchor will set the offset from the x-axis where the liquidity curve will be initialized. This is used in combination with previous market rates to determine the initial proportion where markets will be initialized every quarter.","currencyId":"the currency id that the nToken references","proportions":"used to combination with annualizedAnchorRate set the initial proportion when a market is first initialized. This is required since there is no previous rate to reference."}},"updateMaxCollateralBalance(uint16,uint72)":{"notice":"Sets a maximum balance on a given currency. Max collateral balance cannot be set on a currency that is actively used in trading, this may cause issues with liquidation. Also, max collateral balance is only set on asset tokens (not underlying tokens) because underlying tokens are not held as contract balances.","details":"emit:UpdateMaxCollateralBalance","params":{"currencyId":"id of the currency to set the max collateral balance on","maxCollateralBalanceInternalPrecision":"amount of collateral balance that can be held in this currency denominated in internal token precision"}},"updateTokenCollateralParameters(uint16,uint8,uint8,uint8,uint8,uint8)":{"notice":"Updates collateralization parameters for an nToken","details":"emit:UpdateTokenCollateralParameters","params":{"cashWithholdingBuffer10BPS":"nToken residuals may be negative fCash (debt), in this case cash is withheld to transfer to accounts that take on the debt. This parameter denominates the discounted rate at which the cash will be withheld at for this purpose.","currencyId":"the currency id that the nToken references","liquidationHaircutPercentage":"a percentage of nToken present value (> pvHaircutPercentage and <= 100) at which liquidators will purchase nTokens during liquidation","pvHaircutPercentage":"a percentage (< 100) that the present value of the nToken's assets will be valued at for the purposes of free collateral, relevant when accounts hold nTokens as collateral against debts.","residualPurchaseIncentive10BPS":"nTokens will have residual amounts of fCash at the end of each quarter that are \"dead weight\" because they are at idiosyncratic maturities and do not contribute to actively providing liquidity. This parameter will incentivize market participants to purchase these residuals at a discount from the on chain oracle rate, denominated in 10 basis point increments. These residuals will be added back into nToken balances and will be used to provide liquidity upon the next market initialization.","residualPurchaseTimeBufferHours":"an arbitrage opportunity is available by pushing markets in one direction before quarterly settlement to generate large residual balances that can be purchased at a discount. The time buffer here ensures that anyone attempting such an act would have to wait some number of hours (likely a few days) before they could attempt to purchase residuals, ensuring that the market could realign to rates where the arbitrage is no longer possible."}},"upgradeTo(address)":{"details":"Upgrade the implementation of the proxy to `newImplementation`. Calls {_authorizeUpgrade}. Emits an {Upgraded} event."},"upgradeToAndCall(address,bytes)":{"details":"Upgrade the implementation of the proxy to `newImplementation`, and subsequently execute the function call encoded in `data`. Calls {_authorizeUpgrade}. Emits an {Upgraded} event."},"setPauseRouterAndGuardian(address,address)":{"notice":"Sets a new pause router and guardian address."},"claimOwnership()":{"notice":"Needs to be called by `pendingOwner` to claim ownership."}},"kind":"dev","notice":"Governance methods can only be called by the governance contract","version":1},"opcodes":"PUSH1 0x80 PUSH1 0x40 MSTORE PUSH1 0x4 CALLDATASIZE LT PUSH3 0x146 JUMPI PUSH1 0x0 CALLDATALOAD PUSH1 0xE0 SHR DUP1 PUSH4 0x8DA5CB5B GT PUSH3 0xBB JUMPI DUP1 PUSH4 0xB242E534 GT PUSH3 0x79 JUMPI DUP1 PUSH4 0xB242E534 EQ PUSH3 0x34E JUMPI DUP1 PUSH4 0xC572CAE4 EQ PUSH3 0x373 JUMPI DUP1 PUSH4 0xCFAAF474 EQ PUSH3 0x398 JUMPI DUP1 PUSH4 0xE31051A1 EQ PUSH3 0x3BD JUMPI DUP1 PUSH4 0xF575E4E2 EQ PUSH3 0x3E2 JUMPI DUP1 PUSH4 0xFA17B5F1 EQ PUSH3 0x416 JUMPI PUSH3 0x146 JUMP JUMPDEST DUP1 PUSH4 0x8DA5CB5B EQ PUSH3 0x2A2 JUMPI DUP1 PUSH4 0x98DCBC23 EQ PUSH3 0x2BA JUMPI DUP1 PUSH4 0xA11A4293 EQ PUSH3 0x2DF JUMPI DUP1 PUSH4 0xA508ECA0 EQ PUSH3 0x304 JUMPI DUP1 PUSH4 0xA9D7BC52 EQ PUSH3 0x329 JUMPI PUSH3 0x146 JUMP JUMPDEST DUP1 PUSH4 0x413F2C5F GT PUSH3 0x109 JUMPI DUP1 PUSH4 0x413F2C5F EQ PUSH3 0x211 JUMPI DUP1 PUSH4 0x4E71E0C8 EQ PUSH3 0x236 JUMPI DUP1 PUSH4 0x4F1EF286 EQ PUSH3 0x24E JUMPI DUP1 PUSH4 0x744EC0EF EQ PUSH3 0x265 JUMPI DUP1 PUSH4 0x82463367 EQ PUSH3 0x28A JUMPI PUSH3 0x146 JUMP JUMPDEST DUP1 PUSH4 0x38AF5DC EQ PUSH3 0x14B JUMPI DUP1 PUSH4 0x24A3D622 EQ PUSH3 0x172 JUMPI DUP1 PUSH4 0x3436A19C EQ PUSH3 0x1A2 JUMPI DUP1 PUSH4 0x353ABC5D EQ PUSH3 0x1C7 JUMPI DUP1 PUSH4 0x3659CFE6 EQ PUSH3 0x1EC JUMPI JUMPDEST PUSH1 0x0 DUP1 REVERT JUMPDEST CALLVALUE DUP1 ISZERO PUSH3 0x158 JUMPI PUSH1 0x0 DUP1 REVERT JUMPDEST POP PUSH3 0x170 PUSH3 0x16A CALLDATASIZE PUSH1 0x4 PUSH3 0x35F2 JUMP JUMPDEST PUSH3 0x43B JUMP JUMPDEST STOP JUMPDEST CALLVALUE DUP1 ISZERO PUSH3 0x17F JUMPI PUSH1 0x0 DUP1 REVERT JUMPDEST POP PUSH3 0x18A PUSH3 0x4FB JUMP JUMPDEST PUSH1 0x40 MLOAD PUSH3 0x199 SWAP2 SWAP1 PUSH3 0x384D JUMP JUMPDEST PUSH1 0x40 MLOAD DUP1 SWAP2 SUB SWAP1 RETURN JUMPDEST CALLVALUE DUP1 ISZERO PUSH3 0x1AF JUMPI PUSH1 0x0 DUP1 REVERT JUMPDEST POP PUSH3 0x170 PUSH3 0x1C1 CALLDATASIZE PUSH1 0x4 PUSH3 0x3780 JUMP JUMPDEST PUSH3 0x50A JUMP JUMPDEST CALLVALUE DUP1 ISZERO PUSH3 0x1D4 JUMPI PUSH1 0x0 DUP1 REVERT JUMPDEST POP PUSH3 0x170 PUSH3 0x1E6 CALLDATASIZE PUSH1 0x4 PUSH3 0x32A9 JUMP JUMPDEST PUSH3 0x5D7 JUMP JUMPDEST CALLVALUE DUP1 ISZERO PUSH3 0x1F9 JUMPI PUSH1 0x0 DUP1 REVERT JUMPDEST POP PUSH3 0x170 PUSH3 0x20B CALLDATASIZE PUSH1 0x4 PUSH3 0x322E JUMP JUMPDEST PUSH3 0x699 JUMP JUMPDEST CALLVALUE DUP1 ISZERO PUSH3 0x21E JUMPI PUSH1 0x0 DUP1 REVERT JUMPDEST POP PUSH3 0x170 PUSH3 0x230 CALLDATASIZE PUSH1 0x4 PUSH3 0x34E1 JUMP JUMPDEST PUSH3 0x6C4 JUMP JUMPDEST CALLVALUE DUP1 ISZERO PUSH3 0x243 JUMPI PUSH1 0x0 DUP1 REVERT JUMPDEST POP PUSH3 0x170 PUSH3 0x756 JUMP JUMPDEST PUSH3 0x170 PUSH3 0x25F CALLDATASIZE PUSH1 0x4 PUSH3 0x32E2 JUMP JUMPDEST PUSH3 0x801 JUMP JUMPDEST CALLVALUE DUP1 ISZERO PUSH3 0x272 JUMPI PUSH1 0x0 DUP1 REVERT JUMPDEST POP PUSH3 0x170 PUSH3 0x284 CALLDATASIZE PUSH1 0x4 PUSH3 0x326C JUMP JUMPDEST PUSH3 0x81E JUMP JUMPDEST CALLVALUE DUP1 ISZERO PUSH3 0x297 JUMPI PUSH1 0x0 DUP1 REVERT JUMPDEST POP PUSH3 0x18A PUSH3 0x8B0 JUMP JUMPDEST CALLVALUE DUP1 ISZERO PUSH3 0x2AF JUMPI PUSH1 0x0 DUP1 REVERT JUMPDEST POP PUSH3 0x18A PUSH3 0x8BF JUMP JUMPDEST CALLVALUE DUP1 ISZERO PUSH3 0x2C7 JUMPI PUSH1 0x0 DUP1 REVERT JUMPDEST POP PUSH3 0x170 PUSH3 0x2D9 CALLDATASIZE PUSH1 0x4 PUSH3 0x3752 JUMP JUMPDEST PUSH3 0x8D5 JUMP JUMPDEST CALLVALUE DUP1 ISZERO PUSH3 0x2EC JUMPI PUSH1 0x0 DUP1 REVERT JUMPDEST POP PUSH3 0x170 PUSH3 0x2FE CALLDATASIZE PUSH1 0x4 PUSH3 0x36D2 JUMP JUMPDEST PUSH3 0x984 JUMP JUMPDEST CALLVALUE DUP1 ISZERO PUSH3 0x311 JUMPI PUSH1 0x0 DUP1 REVERT JUMPDEST POP PUSH3 0x170 PUSH3 0x323 CALLDATASIZE PUSH1 0x4 PUSH3 0x35F2 JUMP JUMPDEST PUSH3 0x9CF JUMP JUMPDEST CALLVALUE DUP1 ISZERO PUSH3 0x336 JUMPI PUSH1 0x0 DUP1 REVERT JUMPDEST POP PUSH3 0x170 PUSH3 0x348 CALLDATASIZE PUSH1 0x4 PUSH3 0x3724 JUMP JUMPDEST PUSH3 0xA1A JUMP JUMPDEST CALLVALUE DUP1 ISZERO PUSH3 0x35B JUMPI PUSH1 0x0 DUP1 REVERT JUMPDEST POP PUSH3 0x170 PUSH3 0x36D CALLDATASIZE PUSH1 0x4 PUSH3 0x32A9 JUMP JUMPDEST PUSH3 0xB0E JUMP JUMPDEST CALLVALUE DUP1 ISZERO PUSH3 0x380 JUMPI PUSH1 0x0 DUP1 REVERT JUMPDEST POP PUSH3 0x170 PUSH3 0x392 CALLDATASIZE PUSH1 0x4 PUSH3 0x3568 JUMP JUMPDEST PUSH3 0xC0E JUMP JUMPDEST CALLVALUE DUP1 ISZERO PUSH3 0x3A5 JUMPI PUSH1 0x0 DUP1 REVERT JUMPDEST POP PUSH3 0x170 PUSH3 0x3B7 CALLDATASIZE PUSH1 0x4 PUSH3 0x34E1 JUMP JUMPDEST PUSH3 0xC65 JUMP JUMPDEST CALLVALUE DUP1 ISZERO PUSH3 0x3CA JUMPI PUSH1 0x0 DUP1 REVERT JUMPDEST POP PUSH3 0x170 PUSH3 0x3DC CALLDATASIZE PUSH1 0x4 PUSH3 0x3610 JUMP JUMPDEST PUSH3 0xCE8 JUMP JUMPDEST CALLVALUE DUP1 ISZERO PUSH3 0x3EF JUMPI PUSH1 0x0 DUP1 REVERT JUMPDEST POP PUSH3 0x407 PUSH3 0x401 CALLDATASIZE PUSH1 0x4 PUSH3 0x33A4 JUMP JUMPDEST PUSH3 0xE20 JUMP JUMPDEST PUSH1 0x40 MLOAD PUSH3 0x199 SWAP2 SWAP1 PUSH3 0x4094 JUMP JUMPDEST CALLVALUE DUP1 ISZERO PUSH3 0x423 JUMPI PUSH1 0x0 DUP1 REVERT JUMPDEST POP PUSH3 0x170 PUSH3 0x435 CALLDATASIZE PUSH1 0x4 PUSH3 0x32A9 JUMP JUMPDEST PUSH3 0x1006 JUMP JUMPDEST PUSH1 0x0 SLOAD PUSH1 0x1 PUSH1 0x20 SHL SWAP1 DIV PUSH1 0x1 PUSH1 0x1 PUSH1 0xA0 SHL SUB AND CALLER EQ PUSH3 0x478 JUMPI PUSH1 0x40 MLOAD PUSH3 0x461BCD PUSH1 0xE5 SHL DUP2 MSTORE PUSH1 0x4 ADD PUSH3 0x46F SWAP1 PUSH3 0x3D6E JUMP JUMPDEST PUSH1 0x40 MLOAD DUP1 SWAP2 SUB SWAP1 REVERT JUMPDEST PUSH3 0x483 DUP3 PUSH3 0x10BC JUMP JUMPDEST PUSH3 0x48E DUP2 PUSH3 0x10FA JUMP JUMPDEST PUSH3 0x4AD JUMPI PUSH1 0x40 MLOAD PUSH3 0x461BCD PUSH1 0xE5 SHL DUP2 MSTORE PUSH1 0x4 ADD PUSH3 0x46F SWAP1 PUSH3 0x3AA7 JUMP JUMPDEST PUSH3 0x4B9 DUP3 DUP3 PUSH3 0x1104 JUMP JUMPDEST DUP2 PUSH2 0xFFFF AND PUSH32 0x972AF272071DE4B82FF83458C3A6DE8BA183A9C7DC724D4CF91D25F524A810E1 DUP3 PUSH1 0x40 MLOAD PUSH3 0x4EF SWAP2 SWAP1 PUSH3 0x384D JUMP JUMPDEST PUSH1 0x40 MLOAD DUP1 SWAP2 SUB SWAP1 LOG2 POP POP JUMP JUMPDEST PUSH1 0x2 SLOAD PUSH1 0x1 PUSH1 0x1 PUSH1 0xA0 SHL SUB AND DUP2 JUMP JUMPDEST PUSH1 0x0 SLOAD PUSH1 0x1 PUSH1 0x20 SHL SWAP1 DIV PUSH1 0x1 PUSH1 0x1 PUSH1 0xA0 SHL SUB AND CALLER EQ PUSH3 0x53E JUMPI PUSH1 0x40 MLOAD PUSH3 0x461BCD PUSH1 0xE5 SHL DUP2 MSTORE PUSH1 0x4 ADD PUSH3 0x46F SWAP1 PUSH3 0x3D6E JUMP JUMPDEST PUSH3 0x549 DUP7 PUSH3 0x10BC JUMP JUMPDEST PUSH1 0x0 PUSH3 0x55A DUP8 PUSH2 0xFFFF AND PUSH3 0x11AE JUMP JUMPDEST SWAP1 POP PUSH1 0x1 PUSH1 0x1 PUSH1 0xA0 SHL SUB DUP2 AND PUSH3 0x585 JUMPI PUSH1 0x40 MLOAD PUSH3 0x461BCD PUSH1 0xE5 SHL DUP2 MSTORE PUSH1 0x4 ADD PUSH3 0x46F SWAP1 PUSH3 0x3A7D JUMP JUMPDEST PUSH3 0x595 DUP2 DUP8 DUP8 DUP8 DUP8 DUP8 PUSH3 0x11D6 JUMP JUMPDEST PUSH32 0xE3BFB18D6259BE9A43CD772D68C97FE6C61C35A17ACB12E047AD8C9698E40AEB DUP8 PUSH1 0x40 MLOAD PUSH3 0x5C6 SWAP2 SWAP1 PUSH3 0x4094 JUMP JUMPDEST PUSH1 0x40 MLOAD DUP1 SWAP2 SUB SWAP1 LOG1 POP POP POP POP POP POP POP JUMP JUMPDEST PUSH1 0x0 SLOAD PUSH1 0x1 PUSH1 0x20 SHL SWAP1 DIV PUSH1 0x1 PUSH1 0x1 PUSH1 0xA0 SHL SUB AND CALLER EQ PUSH3 0x60B JUMPI PUSH1 0x40 MLOAD PUSH3 0x461BCD PUSH1 0xE5 SHL DUP2 MSTORE PUSH1 0x4 ADD PUSH3 0x46F SWAP1 PUSH3 0x3D6E JUMP JUMPDEST PUSH3 0x616 DUP3 PUSH3 0x10FA JUMP JUMPDEST PUSH3 0x635 JUMPI PUSH1 0x40 MLOAD PUSH3 0x461BCD PUSH1 0xE5 SHL DUP2 MSTORE PUSH1 0x4 ADD PUSH3 0x46F SWAP1 PUSH3 0x3C8E JUMP JUMPDEST PUSH1 0x1 PUSH1 0x1 PUSH1 0xA0 SHL SUB DUP3 AND PUSH1 0x0 SWAP1 DUP2 MSTORE PUSH1 0x6 PUSH1 0x20 MSTORE PUSH1 0x40 SWAP1 DUP2 SWAP1 KECCAK256 DUP1 SLOAD PUSH1 0xFF NOT AND DUP4 ISZERO ISZERO OR SWAP1 SSTORE MLOAD PUSH32 0xD950D85E12AEFEE0604A6DB7758E7C22FDBC3BC402CA6F3C51E7AB11C23A4C6F SWAP1 PUSH3 0x68D SWAP1 DUP5 SWAP1 DUP5 SWAP1 PUSH3 0x3861 JUMP JUMPDEST PUSH1 0x40 MLOAD DUP1 SWAP2 SUB SWAP1 LOG1 POP POP JUMP JUMPDEST PUSH3 0x6A4 DUP2 PUSH3 0x12E4 JUMP JUMPDEST PUSH3 0x6C1 DUP2 PUSH1 0x40 MLOAD DUP1 PUSH1 0x20 ADD PUSH1 0x40 MSTORE DUP1 PUSH1 0x0 DUP2 MSTORE POP PUSH1 0x0 PUSH3 0x138B JUMP JUMPDEST POP JUMP JUMPDEST PUSH1 0x0 SLOAD PUSH1 0x1 PUSH1 0x20 SHL SWAP1 DIV PUSH1 0x1 PUSH1 0x1 PUSH1 0xA0 SHL SUB AND CALLER EQ PUSH3 0x6F8 JUMPI PUSH1 0x40 MLOAD PUSH3 0x461BCD PUSH1 0xE5 SHL DUP2 MSTORE PUSH1 0x4 ADD PUSH3 0x46F SWAP1 PUSH3 0x3D6E JUMP JUMPDEST PUSH3 0x703 DUP6 PUSH3 0x10BC JUMP JUMPDEST PUSH3 0x716 DUP6 PUSH2 0xFFFF AND DUP6 DUP6 DUP6 DUP6 PUSH3 0x14D1 JUMP JUMPDEST PUSH32 0xFF9528B00F1B4A49AD8A5D2C82E5602C172EE7E42BC1F5B7D505A7581B438234 DUP6 PUSH1 0x40 MLOAD PUSH3 0x747 SWAP2 SWAP1 PUSH3 0x4094 JUMP JUMPDEST PUSH1 0x40 MLOAD DUP1 SWAP2 SUB SWAP1 LOG1 POP POP POP POP POP JUMP JUMPDEST PUSH1 0xD SLOAD PUSH1 0x1 PUSH1 0x1 PUSH1 0xA0 SHL SUB AND CALLER DUP2 EQ PUSH3 0x784 JUMPI PUSH1 0x40 MLOAD PUSH3 0x461BCD PUSH1 0xE5 SHL DUP2 MSTORE PUSH1 0x4 ADD PUSH3 0x46F SWAP1 PUSH3 0x3E3F JUMP JUMPDEST PUSH1 0x0 DUP1 SLOAD PUSH1 0x40 MLOAD PUSH1 0x1 PUSH1 0x1 PUSH1 0xA0 SHL SUB DUP1 DUP6 AND SWAP4 PUSH1 0x1 PUSH1 0x20 SHL SWAP1 SWAP4 DIV AND SWAP2 PUSH32 0x8BE0079C531659141344CD1FD0A4F28419497F9722A3DAAFE3B4186F6B6457E0 SWAP2 LOG3 PUSH1 0x0 DUP1 SLOAD PUSH1 0x1 PUSH1 0x1 PUSH1 0xA0 SHL SUB SWAP1 SWAP3 AND PUSH1 0x1 PUSH1 0x20 SHL MUL PUSH5 0x100000000 PUSH1 0x1 PUSH1 0xC0 SHL SUB NOT SWAP1 SWAP3 AND SWAP2 SWAP1 SWAP2 OR SWAP1 SSTORE PUSH1 0xD DUP1 SLOAD PUSH1 0x1 PUSH1 0x1 PUSH1 0xA0 SHL SUB NOT AND SWAP1 SSTORE JUMP JUMPDEST PUSH3 0x80C DUP3 PUSH3 0x12E4 JUMP JUMPDEST PUSH3 0x81A DUP3 DUP3 PUSH1 0x1 PUSH3 0x138B JUMP JUMPDEST POP POP JUMP JUMPDEST PUSH1 0x0 SLOAD PUSH1 0x1 PUSH1 0x20 SHL SWAP1 DIV PUSH1 0x1 PUSH1 0x1 PUSH1 0xA0 SHL SUB AND CALLER EQ PUSH3 0x852 JUMPI PUSH1 0x40 MLOAD PUSH3 0x461BCD PUSH1 0xE5 SHL DUP2 MSTORE PUSH1 0x4 ADD PUSH3 0x46F SWAP1 PUSH3 0x3D6E JUMP JUMPDEST PUSH1 0x1 DUP1 SLOAD PUSH1 0x1 PUSH1 0x1 PUSH1 0xA0 SHL SUB NOT SWAP1 DUP2 AND PUSH1 0x1 PUSH1 0x1 PUSH1 0xA0 SHL SUB DUP6 DUP2 AND SWAP2 DUP3 OR SWAP1 SWAP4 SSTORE PUSH1 0x2 DUP1 SLOAD SWAP1 SWAP3 AND SWAP3 DUP5 AND SWAP3 DUP4 OR SWAP1 SWAP2 SSTORE PUSH1 0x40 MLOAD PUSH32 0x792A598A7F3FB01623BBA2594035C736BA3D7EC06210F07D9D7EF036C4A22AC6 SWAP1 PUSH1 0x0 SWAP1 LOG3 POP POP JUMP JUMPDEST PUSH1 0x1 SLOAD PUSH1 0x1 PUSH1 0x1 PUSH1 0xA0 SHL SUB AND DUP2 JUMP JUMPDEST PUSH1 0x0 SLOAD PUSH1 0x1 PUSH1 0x20 SHL SWAP1 DIV PUSH1 0x1 PUSH1 0x1 PUSH1 0xA0 SHL SUB AND DUP2 JUMP JUMPDEST PUSH1 0x0 SLOAD PUSH1 0x1 PUSH1 0x20 SHL SWAP1 DIV PUSH1 0x1 PUSH1 0x1 PUSH1 0xA0 SHL SUB AND CALLER EQ PUSH3 0x909 JUMPI PUSH1 0x40 MLOAD PUSH3 0x461BCD PUSH1 0xE5 SHL DUP2 MSTORE PUSH1 0x4 ADD PUSH3 0x46F SWAP1 PUSH3 0x3D6E JUMP JUMPDEST PUSH3 0x914 DUP3 PUSH3 0x10BC JUMP JUMPDEST PUSH1 0x1 PUSH1 0x1 PUSH1 0x48 SHL SUB DUP2 AND ISZERO PUSH3 0x941 JUMPI PUSH3 0x933 DUP3 PUSH2 0xFFFF AND PUSH3 0x1633 JUMP JUMPDEST PUSH1 0xFF AND ISZERO PUSH3 0x941 JUMPI PUSH1 0x0 DUP1 REVERT JUMPDEST PUSH3 0x951 DUP3 PUSH2 0xFFFF AND DUP3 PUSH3 0x164B JUMP JUMPDEST PUSH32 0x8C7DF90515138B34933E6C44EBE1E21C7F53FDF340C14C9F18B3016D2E71CA77 DUP3 DUP3 PUSH1 0x40 MLOAD PUSH3 0x68D SWAP3 SWAP2 SWAP1 PUSH3 0x40DA JUMP JUMPDEST PUSH1 0x0 SLOAD PUSH1 0x1 PUSH1 0x20 SHL SWAP1 DIV PUSH1 0x1 PUSH1 0x1 PUSH1 0xA0 SHL SUB AND CALLER EQ PUSH3 0x9B8 JUMPI PUSH1 0x40 MLOAD PUSH3 0x461BCD PUSH1 0xE5 SHL DUP2 MSTORE PUSH1 0x4 ADD PUSH3 0x46F SWAP1 PUSH3 0x3D6E JUMP JUMPDEST PUSH3 0x9C3 DUP3 PUSH3 0x10BC JUMP JUMPDEST PUSH3 0x81A DUP3 DUP3 PUSH3 0x1696 JUMP JUMPDEST PUSH1 0x0 SLOAD PUSH1 0x1 PUSH1 0x20 SHL SWAP1 DIV PUSH1 0x1 PUSH1 0x1 PUSH1 0xA0 SHL SUB AND CALLER EQ PUSH3 0xA03 JUMPI PUSH1 0x40 MLOAD PUSH3 0x461BCD PUSH1 0xE5 SHL DUP2 MSTORE PUSH1 0x4 ADD PUSH3 0x46F SWAP1 PUSH3 0x3D6E JUMP JUMPDEST PUSH3 0xA0E DUP3 PUSH3 0x10BC JUMP JUMPDEST PUSH3 0x81A DUP3 DUP3 PUSH3 0x16D7 JUMP JUMPDEST PUSH1 0x0 SLOAD PUSH1 0x1 PUSH1 0x20 SHL SWAP1 DIV PUSH1 0x1 PUSH1 0x1 PUSH1 0xA0 SHL SUB AND CALLER EQ PUSH3 0xA4E JUMPI PUSH1 0x40 MLOAD PUSH3 0x461BCD PUSH1 0xE5 SHL DUP2 MSTORE PUSH1 0x4 ADD PUSH3 0x46F SWAP1 PUSH3 0x3D6E JUMP JUMPDEST PUSH3 0xA59 DUP3 PUSH3 0x10BC JUMP JUMPDEST PUSH1 0x0 PUSH3 0xA6A DUP4 PUSH2 0xFFFF AND PUSH3 0x11AE JUMP JUMPDEST SWAP1 POP PUSH1 0x1 PUSH1 0x1 PUSH1 0xA0 SHL SUB DUP2 AND PUSH3 0xA95 JUMPI PUSH1 0x40 MLOAD PUSH3 0x461BCD PUSH1 0xE5 SHL DUP2 MSTORE PUSH1 0x4 ADD PUSH3 0x46F SWAP1 PUSH3 0x3A7D JUMP JUMPDEST PUSH4 0x5F5E100 DUP3 PUSH4 0xFFFFFFFF AND SLT PUSH3 0xAC1 JUMPI PUSH1 0x40 MLOAD PUSH3 0x461BCD PUSH1 0xE5 SHL DUP2 MSTORE PUSH1 0x4 ADD PUSH3 0x46F SWAP1 PUSH3 0x3EDB JUMP JUMPDEST PUSH3 0xACE DUP2 DUP4 TIMESTAMP PUSH3 0x19FA JUMP JUMPDEST PUSH32 0x713F9554D16202D36A895476EC29CE9250F47D35422E2D9409E8F644D6AAB689 DUP4 DUP4 PUSH1 0x40 MLOAD PUSH3 0xB01 SWAP3 SWAP2 SWAP1 PUSH3 0x40C0 JUMP JUMPDEST PUSH1 0x40 MLOAD DUP1 SWAP2 SUB SWAP1 LOG1 POP POP POP JUMP JUMPDEST PUSH1 0x0 SLOAD PUSH1 0x1 PUSH1 0x20 SHL SWAP1 DIV PUSH1 0x1 PUSH1 0x1 PUSH1 0xA0 SHL SUB AND CALLER EQ PUSH3 0xB42 JUMPI PUSH1 0x40 MLOAD PUSH3 0x461BCD PUSH1 0xE5 SHL DUP2 MSTORE PUSH1 0x4 ADD PUSH3 0x46F SWAP1 PUSH3 0x3D6E JUMP JUMPDEST DUP1 ISZERO PUSH3 0xBED JUMPI PUSH1 0x1 PUSH1 0x1 PUSH1 0xA0 SHL SUB DUP3 AND PUSH3 0xB72 JUMPI PUSH1 0x40 MLOAD PUSH3 0x461BCD PUSH1 0xE5 SHL DUP2 MSTORE PUSH1 0x4 ADD PUSH3 0x46F SWAP1 PUSH3 0x3B61 JUMP JUMPDEST PUSH1 0x0 DUP1 SLOAD PUSH1 0x40 MLOAD PUSH1 0x1 PUSH1 0x1 PUSH1 0xA0 SHL SUB DUP1 DUP7 AND SWAP4 PUSH1 0x1 PUSH1 0x20 SHL SWAP1 SWAP4 DIV AND SWAP2 PUSH32 0x8BE0079C531659141344CD1FD0A4F28419497F9722A3DAAFE3B4186F6B6457E0 SWAP2 LOG3 PUSH1 0x0 DUP1 SLOAD PUSH5 0x100000000 PUSH1 0x1 PUSH1 0xC0 SHL SUB NOT AND PUSH1 0x1 PUSH1 0x20 SHL PUSH1 0x1 PUSH1 0x1 PUSH1 0xA0 SHL SUB DUP6 AND MUL OR SWAP1 SSTORE PUSH1 0xD DUP1 SLOAD PUSH1 0x1 PUSH1 0x1 PUSH1 0xA0 SHL SUB NOT AND SWAP1 SSTORE PUSH3 0x81A JUMP JUMPDEST PUSH1 0xD DUP1 SLOAD PUSH1 0x1 PUSH1 0x1 PUSH1 0xA0 SHL SUB DUP5 AND PUSH1 0x1 PUSH1 0x1 PUSH1 0xA0 SHL SUB NOT SWAP1 SWAP2 AND OR SWAP1 SSTORE POP POP JUMP JUMPDEST PUSH1 0x0 SLOAD PUSH1 0x1 PUSH1 0x20 SHL SWAP1 DIV PUSH1 0x1 PUSH1 0x1 PUSH1 0xA0 SHL SUB AND CALLER EQ PUSH3 0xC42 JUMPI PUSH1 0x40 MLOAD PUSH3 0x461BCD PUSH1 0xE5 SHL DUP2 MSTORE PUSH1 0x4 ADD PUSH3 0x46F SWAP1 PUSH3 0x3D6E JUMP JUMPDEST PUSH3 0xC4D DUP7 PUSH3 0x10BC JUMP JUMPDEST PUSH3 0xC5D DUP7 DUP7 DUP7 DUP7 DUP7 DUP7 PUSH3 0x1A54 JUMP JUMPDEST POP POP POP POP POP POP JUMP JUMPDEST PUSH1 0x0 SLOAD PUSH1 0x1 PUSH1 0x20 SHL SWAP1 DIV PUSH1 0x1 PUSH1 0x1 PUSH1 0xA0 SHL SUB AND CALLER EQ PUSH3 0xC99 JUMPI PUSH1 0x40 MLOAD PUSH3 0x461BCD PUSH1 0xE5 SHL DUP2 MSTORE PUSH1 0x4 ADD PUSH3 0x46F SWAP1 PUSH3 0x3D6E JUMP JUMPDEST PUSH3 0xCA4 DUP6 PUSH3 0x10BC JUMP JUMPDEST PUSH3 0xCB7 DUP6 PUSH2 0xFFFF AND DUP6 DUP6 DUP6 DUP6 PUSH3 0x1D05 JUMP JUMPDEST PUSH32 0x6E2F98678675DA049B2CD990D6F467AAC69D623FF4ECDD26A5D42F184A69D342 DUP6 PUSH1 0x40 MLOAD PUSH3 0x747 SWAP2 SWAP1 PUSH3 0x4094 JUMP JUMPDEST PUSH1 0x0 SLOAD PUSH1 0x1 PUSH1 0x20 SHL SWAP1 DIV PUSH1 0x1 PUSH1 0x1 PUSH1 0xA0 SHL SUB AND CALLER EQ PUSH3 0xD1C JUMPI PUSH1 0x40 MLOAD PUSH3 0x461BCD PUSH1 0xE5 SHL DUP2 MSTORE PUSH1 0x4 ADD PUSH3 0x46F SWAP1 PUSH3 0x3D6E JUMP JUMPDEST PUSH3 0xD27 DUP8 PUSH3 0x10BC JUMP JUMPDEST PUSH1 0x0 PUSH3 0xD38 DUP9 PUSH2 0xFFFF AND PUSH3 0x1E71 JUMP JUMPDEST SWAP1 POP PUSH1 0x0 PUSH3 0xD4B DUP10 PUSH2 0xFFFF AND PUSH3 0x1E8E JUMP JUMPDEST SWAP1 POP DUP2 PUSH1 0x80 ADD MLOAD PUSH1 0x0 EQ DUP1 ISZERO PUSH3 0xD64 JUMPI POP PUSH1 0x80 DUP2 ADD MLOAD ISZERO JUMPDEST PUSH3 0xD6E JUMPI PUSH1 0x0 DUP1 REVERT JUMPDEST POP POP PUSH3 0xD7C DUP8 DUP7 PUSH3 0x1696 JUMP JUMPDEST PUSH3 0xD88 DUP8 DUP8 PUSH3 0x16D7 JUMP JUMPDEST PUSH1 0x0 ADDRESS DUP9 DUP7 DUP7 DUP7 DUP7 PUSH1 0x40 MLOAD PUSH3 0xD9E SWAP1 PUSH3 0x30B8 JUMP JUMPDEST PUSH3 0xDAF SWAP7 SWAP6 SWAP5 SWAP4 SWAP3 SWAP2 SWAP1 PUSH3 0x3895 JUMP JUMPDEST PUSH1 0x40 MLOAD DUP1 SWAP2 SUB SWAP1 PUSH1 0x0 CREATE DUP1 ISZERO DUP1 ISZERO PUSH3 0xDCC JUMPI RETURNDATASIZE PUSH1 0x0 DUP1 RETURNDATACOPY RETURNDATASIZE PUSH1 0x0 REVERT JUMPDEST POP SWAP1 POP PUSH3 0xDDB DUP9 DUP3 PUSH3 0x1EA5 JUMP JUMPDEST PUSH32 0x6793810FDF58CB4C6E0EE40E4B03EB1075B7CBBB55C34379B918873241972AEA DUP9 DUP3 PUSH1 0x40 MLOAD PUSH3 0xE0E SWAP3 SWAP2 SWAP1 PUSH3 0x40A3 JUMP JUMPDEST PUSH1 0x40 MLOAD DUP1 SWAP2 SUB SWAP1 LOG1 POP POP POP POP POP POP POP POP JUMP JUMPDEST PUSH1 0x0 DUP1 SLOAD PUSH1 0x1 PUSH1 0x20 SHL SWAP1 DIV PUSH1 0x1 PUSH1 0x1 PUSH1 0xA0 SHL SUB AND CALLER EQ PUSH3 0xE55 JUMPI PUSH1 0x40 MLOAD PUSH3 0x461BCD PUSH1 0xE5 SHL DUP2 MSTORE PUSH1 0x4 ADD PUSH3 0x46F SWAP1 PUSH3 0x3D6E JUMP JUMPDEST PUSH1 0x0 DUP1 SLOAD PUSH2 0xFFFF DUP1 DUP3 AND PUSH1 0x1 ADD SWAP1 DUP2 AND PUSH2 0xFFFF NOT SWAP1 SWAP3 AND DUP3 OR SWAP1 SWAP3 SSTORE PUSH2 0x3FFF LT ISZERO PUSH3 0xE95 JUMPI PUSH1 0x40 MLOAD PUSH3 0x461BCD PUSH1 0xE5 SHL DUP2 MSTORE PUSH1 0x4 ADD PUSH3 0x46F SWAP1 PUSH3 0x394F JUMP JUMPDEST PUSH1 0x9 PUSH1 0x0 PUSH3 0xEA8 PUSH1 0x20 DUP13 ADD DUP13 PUSH3 0x322E JUMP JUMPDEST PUSH1 0x1 PUSH1 0x1 PUSH1 0xA0 SHL SUB AND DUP2 MSTORE PUSH1 0x20 DUP2 ADD SWAP2 SWAP1 SWAP2 MSTORE PUSH1 0x40 ADD PUSH1 0x0 KECCAK256 SLOAD PUSH2 0xFFFF AND ISZERO PUSH3 0xEE6 JUMPI PUSH1 0x40 MLOAD PUSH3 0x461BCD PUSH1 0xE5 SHL DUP2 MSTORE PUSH1 0x4 ADD PUSH3 0x46F SWAP1 PUSH3 0x3C20 JUMP JUMPDEST DUP1 PUSH1 0x9 PUSH1 0x0 PUSH3 0xEFA PUSH1 0x20 DUP14 ADD DUP14 PUSH3 0x322E JUMP JUMPDEST PUSH1 0x1 PUSH1 0x1 PUSH1 0xA0 SHL SUB AND DUP2 MSTORE PUSH1 0x20 DUP1 DUP3 ADD SWAP3 SWAP1 SWAP3 MSTORE PUSH1 0x40 ADD PUSH1 0x0 SWAP1 DUP2 KECCAK256 DUP1 SLOAD PUSH2 0xFFFF NOT AND PUSH2 0xFFFF SWAP5 SWAP1 SWAP5 AND SWAP4 SWAP1 SWAP4 OR SWAP1 SWAP3 SSTORE PUSH3 0xF39 SWAP1 DUP11 ADD DUP11 PUSH3 0x322E JUMP JUMPDEST PUSH1 0x1 PUSH1 0x1 PUSH1 0xA0 SHL SUB AND EQ ISZERO DUP1 PUSH3 0xF6D JUMPI POP PUSH1 0x3 PUSH3 0xF5F PUSH1 0x60 DUP11 ADD PUSH1 0x40 DUP12 ADD PUSH3 0x3387 JUMP JUMPDEST PUSH1 0x5 DUP2 GT ISZERO PUSH3 0xF6B JUMPI INVALID JUMPDEST EQ JUMPDEST ISZERO PUSH3 0xF95 JUMPI PUSH3 0xF95 PUSH2 0xFFFF DUP3 AND PUSH1 0x1 PUSH3 0xF8F CALLDATASIZE DUP13 SWAP1 SUB DUP13 ADD DUP13 PUSH3 0x344A JUMP JUMPDEST PUSH3 0x1F7F JUMP JUMPDEST PUSH3 0xFB1 PUSH2 0xFFFF DUP3 AND PUSH1 0x0 PUSH3 0xF8F CALLDATASIZE DUP14 SWAP1 SUB DUP14 ADD DUP14 PUSH3 0x344A JUMP JUMPDEST PUSH3 0xFC1 DUP2 DUP9 DUP9 DUP9 DUP9 DUP9 PUSH3 0x1A54 JUMP JUMPDEST PUSH32 0x31404FF4A0F1116F17CFC89A376D7CB9CD8DBD8415E6AA24FDCB8E14E60D7142 DUP2 PUSH1 0x40 MLOAD PUSH3 0xFF2 SWAP2 SWAP1 PUSH3 0x4094 JUMP JUMPDEST PUSH1 0x40 MLOAD DUP1 SWAP2 SUB SWAP1 LOG1 SWAP9 SWAP8 POP POP POP POP POP POP POP POP JUMP JUMPDEST PUSH1 0x0 SLOAD PUSH1 0x1 PUSH1 0x20 SHL SWAP1 DIV PUSH1 0x1 PUSH1 0x1 PUSH1 0xA0 SHL SUB AND CALLER EQ PUSH3 0x103A JUMPI PUSH1 0x40 MLOAD PUSH3 0x461BCD PUSH1 0xE5 SHL DUP2 MSTORE PUSH1 0x4 ADD PUSH3 0x46F SWAP1 PUSH3 0x3D6E JUMP JUMPDEST PUSH3 0x1045 DUP3 PUSH3 0x10FA JUMP JUMPDEST PUSH3 0x1064 JUMPI PUSH1 0x40 MLOAD PUSH3 0x461BCD PUSH1 0xE5 SHL DUP2 MSTORE PUSH1 0x4 ADD PUSH3 0x46F SWAP1 PUSH3 0x3C8E JUMP JUMPDEST PUSH1 0x1 PUSH1 0x1 PUSH1 0xA0 SHL SUB DUP3 AND PUSH1 0x0 SWAP1 DUP2 MSTORE PUSH1 0x8 PUSH1 0x20 MSTORE PUSH1 0x40 SWAP1 DUP2 SWAP1 KECCAK256 DUP1 SLOAD PUSH1 0xFF NOT AND DUP4 ISZERO ISZERO OR SWAP1 SSTORE MLOAD PUSH32 0xCCF663AAE81733293DCFCF2A91DA8C6F0E7BA8089B34EB4FD5760DD8FD605BD8 SWAP1 PUSH3 0x68D SWAP1 DUP5 SWAP1 DUP5 SWAP1 PUSH3 0x3861 JUMP JUMPDEST DUP1 PUSH2 0xFFFF AND PUSH1 0x0 LT DUP1 ISZERO PUSH3 0x10DB JUMPI POP PUSH1 0x0 SLOAD PUSH2 0xFFFF SWAP1 DUP2 AND SWAP1 DUP3 AND GT ISZERO JUMPDEST PUSH3 0x6C1 JUMPI PUSH1 0x40 MLOAD PUSH3 0x461BCD PUSH1 0xE5 SHL DUP2 MSTORE PUSH1 0x4 ADD PUSH3 0x46F SWAP1 PUSH3 0x3F01 JUMP JUMPDEST DUP1 EXTCODESIZE ISZERO ISZERO JUMPDEST SWAP2 SWAP1 POP JUMP JUMPDEST PUSH1 0x0 PUSH3 0x1115 DUP4 PUSH2 0xFFFF AND PUSH3 0x11AE JUMP JUMPDEST SWAP1 POP PUSH1 0x1 PUSH1 0x1 PUSH1 0xA0 SHL SUB DUP2 AND PUSH3 0x112B JUMPI PUSH1 0x0 DUP1 REVERT JUMPDEST PUSH1 0x0 PUSH3 0x1137 PUSH3 0x22F4 JUMP JUMPDEST PUSH1 0x1 PUSH1 0x1 PUSH1 0xA0 SHL SUB DUP4 DUP2 AND PUSH1 0x0 SWAP1 DUP2 MSTORE PUSH1 0x20 DUP4 SWAP1 MSTORE PUSH1 0x40 SWAP1 KECCAK256 DUP1 SLOAD PUSH1 0x1 PUSH1 0x1 PUSH1 0xF8 SHL SUB AND SWAP2 DUP7 AND ISZERO ISZERO PUSH1 0x1 PUSH1 0xF8 SHL MUL SWAP2 SWAP1 SWAP2 OR DUP2 SSTORE SWAP1 SWAP2 POP DUP4 PUSH3 0x117A PUSH3 0x2303 JUMP JUMPDEST PUSH1 0x1 PUSH1 0x1 PUSH1 0xA0 SHL SUB SWAP5 DUP6 AND PUSH1 0x0 SWAP1 DUP2 MSTORE PUSH1 0x20 SWAP2 SWAP1 SWAP2 MSTORE PUSH1 0x40 SWAP1 KECCAK256 DUP1 SLOAD PUSH1 0x1 PUSH1 0x1 PUSH1 0xA0 SHL SUB NOT AND SWAP2 SWAP1 SWAP5 AND OR SWAP1 SWAP3 SSTORE POP POP POP POP JUMP JUMPDEST PUSH1 0x0 DUP1 PUSH3 0x11BB PUSH3 0x2312 JUMP JUMPDEST PUSH1 0x0 SWAP4 DUP5 MSTORE PUSH1 0x20 MSTORE POP POP PUSH1 0x40 SWAP1 KECCAK256 SLOAD PUSH1 0x1 PUSH1 0x1 PUSH1 0xA0 SHL SUB AND SWAP1 JUMP JUMPDEST PUSH1 0x0 PUSH3 0x11E2 PUSH3 0x22F4 JUMP JUMPDEST PUSH1 0x1 PUSH1 0x1 PUSH1 0xA0 SHL SUB DUP9 AND PUSH1 0x0 SWAP1 DUP2 MSTORE PUSH1 0x20 DUP3 SWAP1 MSTORE PUSH1 0x40 SWAP1 KECCAK256 SWAP1 SWAP2 POP PUSH1 0x64 PUSH1 0xFF DUP5 AND SGT ISZERO PUSH3 0x1224 JUMPI PUSH1 0x40 MLOAD PUSH3 0x461BCD PUSH1 0xE5 SHL DUP2 MSTORE PUSH1 0x4 ADD PUSH3 0x46F SWAP1 PUSH3 0x3ADE JUMP JUMPDEST DUP3 PUSH1 0xFF AND DUP7 PUSH1 0xFF AND LT PUSH3 0x124C JUMPI PUSH1 0x40 MLOAD PUSH3 0x461BCD PUSH1 0xE5 SHL DUP2 MSTORE PUSH1 0x4 ADD PUSH3 0x46F SWAP1 PUSH3 0x4038 JUMP JUMPDEST DUP4 PUSH1 0xFF AND DUP8 PUSH1 0xFF AND GT ISZERO PUSH3 0x1275 JUMPI PUSH1 0x40 MLOAD PUSH3 0x461BCD PUSH1 0xE5 SHL DUP2 MSTORE PUSH1 0x4 ADD PUSH3 0x46F SWAP1 PUSH3 0x3BC7 JUMP JUMPDEST DUP1 SLOAD PUSH5 0xFFFFFFFFFF PUSH1 0x58 SHL NOT AND PUSH1 0x1 PUSH1 0x58 SHL PUSH1 0xF8 SWAP5 SWAP1 SWAP5 SHL PUSH1 0x1 PUSH1 0x1 PUSH1 0xF8 SHL SUB NOT AND PUSH1 0xF0 SWAP6 SWAP1 SWAP6 SHL PUSH1 0xFF PUSH1 0xF0 SHL AND PUSH1 0xE8 SWAP7 SWAP1 SWAP7 SHL PUSH1 0xFF PUSH1 0xE8 SHL AND PUSH1 0xE0 SWAP8 SWAP1 SWAP8 SHL PUSH1 0xFF PUSH1 0xE0 SHL AND PUSH1 0xFF PUSH1 0xD8 SHL PUSH1 0xD8 SWAP10 DUP11 SHL AND OR SWAP7 SWAP1 SWAP7 OR SWAP5 SWAP1 SWAP5 OR SWAP3 SWAP1 SWAP3 OR SWAP1 SWAP5 SHR SWAP4 SWAP1 SWAP4 MUL SWAP2 SWAP1 SWAP2 OR SWAP1 SSTORE POP POP JUMP JUMPDEST PUSH1 0x0 SLOAD PUSH1 0x1 PUSH1 0x20 SHL SWAP1 DIV PUSH1 0x1 PUSH1 0x1 PUSH1 0xA0 SHL SUB AND CALLER EQ DUP1 PUSH3 0x1328 JUMPI POP PUSH1 0x2 SLOAD PUSH1 0x1 PUSH1 0x1 PUSH1 0xA0 SHL SUB AND CALLER EQ DUP1 ISZERO PUSH3 0x1328 JUMPI POP PUSH1 0x1 SLOAD PUSH1 0x1 PUSH1 0x1 PUSH1 0xA0 SHL SUB DUP3 DUP2 AND SWAP2 AND EQ JUMPDEST PUSH3 0x1347 JUMPI PUSH1 0x40 MLOAD PUSH3 0x461BCD PUSH1 0xE5 SHL DUP2 MSTORE PUSH1 0x4 ADD PUSH3 0x46F SWAP1 PUSH3 0x3DDA JUMP JUMPDEST PUSH1 0x1 SLOAD PUSH1 0x1 PUSH1 0x1 PUSH1 0xA0 SHL SUB DUP3 DUP2 AND SWAP2 AND EQ ISZERO PUSH3 0x6C1 JUMPI PUSH3 0x1368 PUSH3 0x2321 JUMP JUMPDEST PUSH1 0x3 DUP1 SLOAD PUSH1 0x1 PUSH1 0x1 PUSH1 0xA0 SHL SUB NOT AND PUSH1 0x1 PUSH1 0x1 PUSH1 0xA0 SHL SUB SWAP3 SWAP1 SWAP3 AND SWAP2 SWAP1 SWAP2 OR SWAP1 SSTORE POP JUMP JUMPDEST PUSH1 0x0 PUSH3 0x1397 PUSH3 0x2321 JUMP JUMPDEST SWAP1 POP PUSH3 0x13A4 DUP5 PUSH3 0x235D JUMP JUMPDEST PUSH1 0x0 DUP4 MLOAD GT DUP1 PUSH3 0x13B2 JUMPI POP DUP2 JUMPDEST ISZERO PUSH3 0x13C6 JUMPI PUSH3 0x13C4 DUP5 DUP5 PUSH3 0x23F2 JUMP JUMPDEST POP JUMPDEST PUSH1 0x0 PUSH3 0x13F3 PUSH32 0x4910FDFA16FED3260ED0E7147F7CC6DA11A60208B5B9406D12A635614FFD9143 PUSH3 0x2421 JUMP JUMPDEST DUP1 SLOAD SWAP1 SWAP2 POP PUSH1 0xFF AND PUSH3 0x14CA JUMPI DUP1 SLOAD PUSH1 0xFF NOT AND PUSH1 0x1 OR DUP2 SSTORE PUSH1 0x40 DUP1 MLOAD PUSH1 0x1 PUSH1 0x1 PUSH1 0xA0 SHL SUB DUP5 AND PUSH1 0x24 DUP1 DUP4 ADD SWAP2 SWAP1 SWAP2 MSTORE DUP3 MLOAD DUP1 DUP4 SUB SWAP1 SWAP2 ADD DUP2 MSTORE PUSH1 0x44 SWAP1 SWAP2 ADD SWAP1 SWAP2 MSTORE PUSH1 0x20 DUP2 ADD DUP1 MLOAD PUSH1 0x1 PUSH1 0x1 PUSH1 0xE0 SHL SUB AND PUSH4 0x1B2CE7F3 PUSH1 0xE1 SHL OR SWAP1 MSTORE PUSH3 0x145B SWAP1 DUP7 SWAP1 PUSH3 0x23F2 JUMP JUMPDEST POP DUP1 SLOAD PUSH1 0xFF NOT AND DUP2 SSTORE PUSH3 0x146E PUSH3 0x2321 JUMP JUMPDEST PUSH1 0x1 PUSH1 0x1 PUSH1 0xA0 SHL SUB AND DUP3 PUSH1 0x1 PUSH1 0x1 PUSH1 0xA0 SHL SUB AND EQ PUSH3 0x14BF JUMPI PUSH1 0x40 MLOAD PUSH3 0x461BCD PUSH1 0xE5 SHL DUP2 MSTORE PUSH1 0x4 ADD DUP1 DUP1 PUSH1 0x20 ADD DUP3 DUP2 SUB DUP3 MSTORE PUSH1 0x2F DUP2 MSTORE PUSH1 0x20 ADD DUP1 PUSH3 0x5101 PUSH1 0x2F SWAP2 CODECOPY PUSH1 0x40 ADD SWAP2 POP POP PUSH1 0x40 MLOAD DUP1 SWAP2 SUB SWAP1 REVERT JUMPDEST PUSH3 0x14CA DUP6 PUSH3 0x2424 JUMP JUMPDEST POP POP POP POP POP JUMP JUMPDEST PUSH1 0x7 DUP4 GT ISZERO PUSH3 0x14F5 JUMPI PUSH1 0x40 MLOAD PUSH3 0x461BCD PUSH1 0xE5 SHL DUP2 MSTORE PUSH1 0x4 ADD PUSH3 0x46F SWAP1 PUSH3 0x3CFC JUMP JUMPDEST DUP1 DUP4 EQ PUSH3 0x1517 JUMPI PUSH1 0x40 MLOAD PUSH3 0x461BCD PUSH1 0xE5 SHL DUP2 MSTORE PUSH1 0x4 ADD PUSH3 0x46F SWAP1 PUSH3 0x391F JUMP JUMPDEST PUSH1 0x0 JUMPDEST DUP2 DUP2 LT ISZERO PUSH3 0x15FD JUMPI PUSH1 0x0 DUP6 DUP6 DUP4 DUP2 DUP2 LT PUSH3 0x1532 JUMPI INVALID JUMPDEST SWAP1 POP PUSH1 0x20 MUL ADD PUSH1 0x20 DUP2 ADD SWAP1 PUSH3 0x1549 SWAP2 SWAP1 PUSH3 0x37C8 JUMP JUMPDEST PUSH4 0xFFFFFFFF AND GT PUSH3 0x156F JUMPI PUSH1 0x40 MLOAD PUSH3 0x461BCD PUSH1 0xE5 SHL DUP2 MSTORE PUSH1 0x4 ADD PUSH3 0x46F SWAP1 PUSH3 0x3B07 JUMP JUMPDEST PUSH1 0x0 DUP4 DUP4 DUP4 DUP2 DUP2 LT PUSH3 0x157E JUMPI INVALID JUMPDEST SWAP1 POP PUSH1 0x20 MUL ADD PUSH1 0x20 DUP2 ADD SWAP1 PUSH3 0x1595 SWAP2 SWAP1 PUSH3 0x37C8 JUMP JUMPDEST PUSH4 0xFFFFFFFF AND GT DUP1 ISZERO PUSH3 0x15D5 JUMPI POP PUSH4 0x3B9ACA00 DUP4 DUP4 DUP4 DUP2 DUP2 LT PUSH3 0x15B6 JUMPI INVALID JUMPDEST SWAP1 POP PUSH1 0x20 MUL ADD PUSH1 0x20 DUP2 ADD SWAP1 PUSH3 0x15CD SWAP2 SWAP1 PUSH3 0x37C8 JUMP JUMPDEST PUSH4 0xFFFFFFFF AND SLT JUMPDEST PUSH3 0x15F4 JUMPI PUSH1 0x40 MLOAD PUSH3 0x461BCD PUSH1 0xE5 SHL DUP2 MSTORE PUSH1 0x4 ADD PUSH3 0x46F SWAP1 PUSH3 0x3FD1 JUMP JUMPDEST PUSH1 0x1 ADD PUSH3 0x151A JUMP JUMPDEST POP PUSH1 0x0 PUSH3 0x160A PUSH3 0x2466 JUMP JUMPDEST PUSH1 0x0 DUP8 DUP2 MSTORE PUSH1 0x20 DUP3 SWAP1 MSTORE PUSH1 0x40 SWAP1 KECCAK256 SWAP1 SWAP2 POP PUSH3 0x162A DUP2 DUP8 DUP8 DUP8 DUP8 PUSH3 0x2475 JUMP JUMPDEST POP POP POP POP POP POP POP JUMP JUMPDEST PUSH1 0x0 DUP1 PUSH3 0x1641 DUP4 PUSH3 0x2554 JUMP JUMPDEST PUSH1 0xFF AND SWAP4 SWAP3 POP POP POP JUMP JUMPDEST PUSH1 0x0 PUSH3 0x1657 PUSH3 0x2573 JUMP JUMPDEST PUSH1 0x0 SWAP4 DUP5 MSTORE PUSH1 0x20 SWAP1 DUP2 MSTORE PUSH1 0x40 DUP1 DUP6 KECCAK256 DUP6 DUP1 MSTORE SWAP1 SWAP2 MSTORE SWAP1 SWAP3 KECCAK256 DUP1 SLOAD PUSH1 0x1 PUSH1 0x1 PUSH1 0x48 SHL SUB SWAP1 SWAP3 AND PUSH1 0x1 PUSH1 0xB8 SHL MUL PUSH1 0x1 PUSH1 0x1 PUSH1 0xB8 SHL SUB SWAP1 SWAP3 AND SWAP2 SWAP1 SWAP2 OR SWAP1 SSTORE POP JUMP JUMPDEST PUSH3 0x16A6 DUP3 PUSH2 0xFFFF AND DUP3 PUSH3 0x2582 JUMP JUMPDEST PUSH32 0x8FD2367AAACA3606DEE299BBEF980DA42D4E906E355F28C3DD3A2F4D81D6B463 DUP3 PUSH1 0x40 MLOAD PUSH3 0x68D SWAP2 SWAP1 PUSH3 0x4094 JUMP JUMPDEST PUSH1 0x0 PUSH3 0x16E8 DUP4 PUSH2 0xFFFF AND PUSH3 0x1E71 JUMP JUMPDEST SWAP1 POP PUSH1 0x1 PUSH1 0x1 PUSH1 0xA0 SHL SUB DUP3 AND PUSH3 0x1732 JUMPI PUSH1 0x4 DUP2 PUSH1 0x60 ADD MLOAD PUSH1 0x5 DUP2 GT ISZERO PUSH3 0x170C JUMPI INVALID JUMPDEST EQ PUSH3 0x172C JUMPI PUSH1 0x40 MLOAD PUSH3 0x461BCD PUSH1 0xE5 SHL DUP2 MSTORE PUSH1 0x4 ADD PUSH3 0x46F SWAP1 PUSH3 0x39B3 JUMP JUMPDEST PUSH3 0x19F5 JUMP JUMPDEST PUSH1 0x0 DUP3 PUSH1 0x1 PUSH1 0x1 PUSH1 0xA0 SHL SUB AND PUSH4 0xFC0C546A PUSH1 0x40 MLOAD DUP2 PUSH4 0xFFFFFFFF AND PUSH1 0xE0 SHL DUP2 MSTORE PUSH1 0x4 ADD PUSH1 0x20 PUSH1 0x40 MLOAD DUP1 DUP4 SUB DUP2 DUP7 DUP1 EXTCODESIZE ISZERO DUP1 ISZERO PUSH3 0x176E JUMPI PUSH1 0x0 DUP1 REVERT JUMPDEST POP GAS STATICCALL ISZERO DUP1 ISZERO PUSH3 0x1783 JUMPI RETURNDATASIZE PUSH1 0x0 DUP1 RETURNDATACOPY RETURNDATASIZE PUSH1 0x0 REVERT JUMPDEST POP POP POP POP PUSH1 0x40 MLOAD RETURNDATASIZE PUSH1 0x1F NOT PUSH1 0x1F DUP3 ADD AND DUP3 ADD DUP1 PUSH1 0x40 MSTORE POP DUP2 ADD SWAP1 PUSH3 0x17A9 SWAP2 SWAP1 PUSH3 0x324D JUMP JUMPDEST SWAP1 POP DUP1 PUSH1 0x1 PUSH1 0x1 PUSH1 0xA0 SHL SUB AND DUP3 PUSH1 0x0 ADD MLOAD PUSH1 0x1 PUSH1 0x1 PUSH1 0xA0 SHL SUB AND EQ PUSH3 0x17E3 JUMPI PUSH1 0x40 MLOAD PUSH3 0x461BCD PUSH1 0xE5 SHL DUP2 MSTORE PUSH1 0x4 ADD PUSH3 0x46F SWAP1 PUSH3 0x4064 JUMP JUMPDEST PUSH1 0x0 PUSH1 0x1 DUP6 PUSH2 0xFFFF AND EQ ISZERO PUSH3 0x17FC JUMPI POP PUSH1 0x12 PUSH3 0x193A JUMP JUMPDEST PUSH1 0x0 DUP5 PUSH1 0x1 PUSH1 0x1 PUSH1 0xA0 SHL SUB AND PUSH4 0x6F307DC3 PUSH1 0x40 MLOAD DUP2 PUSH4 0xFFFFFFFF AND PUSH1 0xE0 SHL DUP2 MSTORE PUSH1 0x4 ADD PUSH1 0x20 PUSH1 0x40 MLOAD DUP1 DUP4 SUB DUP2 DUP7 DUP1 EXTCODESIZE ISZERO DUP1 ISZERO PUSH3 0x1838 JUMPI PUSH1 0x0 DUP1 REVERT JUMPDEST POP GAS STATICCALL ISZERO DUP1 ISZERO PUSH3 0x184D JUMPI RETURNDATASIZE PUSH1 0x0 DUP1 RETURNDATACOPY RETURNDATASIZE PUSH1 0x0 REVERT JUMPDEST POP POP POP POP PUSH1 0x40 MLOAD RETURNDATASIZE PUSH1 0x1F NOT PUSH1 0x1F DUP3 ADD AND DUP3 ADD DUP1 PUSH1 0x40 MSTORE POP DUP2 ADD SWAP1 PUSH3 0x1873 SWAP2 SWAP1 PUSH3 0x324D JUMP JUMPDEST SWAP1 POP PUSH1 0x0 PUSH3 0x1886 DUP8 PUSH2 0xFFFF AND PUSH3 0x1E8E JUMP JUMPDEST SWAP1 POP DUP1 PUSH1 0x0 ADD MLOAD PUSH1 0x1 PUSH1 0x1 PUSH1 0xA0 SHL SUB AND DUP3 PUSH1 0x1 PUSH1 0x1 PUSH1 0xA0 SHL SUB AND EQ PUSH3 0x18C0 JUMPI PUSH1 0x40 MLOAD PUSH3 0x461BCD PUSH1 0xE5 SHL DUP2 MSTORE PUSH1 0x4 ADD PUSH3 0x46F SWAP1 PUSH3 0x3B35 JUMP JUMPDEST DUP2 PUSH1 0x1 PUSH1 0x1 PUSH1 0xA0 SHL SUB AND PUSH4 0x313CE567 PUSH1 0x40 MLOAD DUP2 PUSH4 0xFFFFFFFF AND PUSH1 0xE0 SHL DUP2 MSTORE PUSH1 0x4 ADD PUSH1 0x20 PUSH1 0x40 MLOAD DUP1 DUP4 SUB DUP2 DUP7 DUP1 EXTCODESIZE ISZERO DUP1 ISZERO PUSH3 0x18FA JUMPI PUSH1 0x0 DUP1 REVERT JUMPDEST POP GAS STATICCALL ISZERO DUP1 ISZERO PUSH3 0x190F JUMPI RETURNDATASIZE PUSH1 0x0 DUP1 RETURNDATACOPY RETURNDATASIZE PUSH1 0x0 REVERT JUMPDEST POP POP POP POP PUSH1 0x40 MLOAD RETURNDATASIZE PUSH1 0x1F NOT PUSH1 0x1F DUP3 ADD AND DUP3 ADD DUP1 PUSH1 0x40 MSTORE POP DUP2 ADD SWAP1 PUSH3 0x1935 SWAP2 SWAP1 PUSH3 0x3804 JUMP JUMPDEST SWAP3 POP POP POP JUMPDEST PUSH1 0x24 DUP2 PUSH1 0xFF AND GT ISZERO PUSH3 0x194C JUMPI PUSH1 0x0 DUP1 REVERT JUMPDEST PUSH1 0x0 PUSH3 0x1958 PUSH3 0x29AA JUMP JUMPDEST PUSH1 0x40 DUP1 MLOAD DUP1 DUP3 ADD DUP3 MSTORE PUSH1 0x1 PUSH1 0x1 PUSH1 0xA0 SHL SUB DUP1 DUP10 AND DUP3 MSTORE PUSH1 0xFF DUP1 DUP8 AND PUSH1 0x20 DUP1 DUP6 ADD SWAP2 DUP3 MSTORE PUSH2 0xFFFF DUP14 AND PUSH1 0x0 SWAP1 DUP2 MSTORE SWAP1 DUP8 SWAP1 MSTORE DUP6 SWAP1 KECCAK256 SWAP4 MLOAD DUP5 SLOAD SWAP2 MLOAD SWAP1 SWAP3 AND PUSH1 0x1 PUSH1 0xA0 SHL MUL PUSH1 0xFF PUSH1 0xA0 SHL NOT SWAP3 SWAP1 SWAP4 AND PUSH1 0x1 PUSH1 0x1 PUSH1 0xA0 SHL SUB NOT SWAP1 SWAP2 AND OR AND OR SWAP1 SSTORE MLOAD SWAP1 SWAP2 POP PUSH32 0x6CDEE7159E82379F09A4A5D337E4681B6907C7851F6BBA2B90E1CCC02AA7A396 SWAP1 PUSH3 0x19E9 SWAP1 DUP9 SWAP1 PUSH3 0x4094 JUMP JUMPDEST PUSH1 0x40 MLOAD DUP1 SWAP2 SUB SWAP1 LOG1 POP POP POP JUMPDEST POP POP POP JUMP JUMPDEST PUSH3 0x1A08 DUP4 PUSH1 0x0 DUP4 PUSH3 0x29B9 JUMP JUMPDEST POP PUSH1 0x0 PUSH3 0x1A15 PUSH3 0x22F4 JUMP JUMPDEST PUSH1 0x1 PUSH1 0x1 PUSH1 0xA0 SHL SUB SWAP1 SWAP5 AND PUSH1 0x0 SWAP1 DUP2 MSTORE PUSH1 0x20 SWAP5 SWAP1 SWAP5 MSTORE POP POP PUSH1 0x40 SWAP1 SWAP2 KECCAK256 DUP1 SLOAD PUSH4 0xFFFFFFFF SWAP1 SWAP3 AND PUSH3 0x10000 MUL PUSH6 0xFFFFFFFF0000 NOT SWAP1 SWAP3 AND SWAP2 SWAP1 SWAP2 OR SWAP1 SSTORE JUMP JUMPDEST PUSH1 0x0 PUSH1 0x1 DUP8 PUSH2 0xFFFF AND EQ ISZERO PUSH3 0x1A71 JUMPI POP PUSH1 0x0 SWAP5 POP PUSH1 0x12 PUSH3 0x1B12 JUMP JUMPDEST PUSH1 0x1 PUSH1 0x1 PUSH1 0xA0 SHL SUB DUP7 AND PUSH3 0x1A9A JUMPI PUSH1 0x40 MLOAD PUSH3 0x461BCD PUSH1 0xE5 SHL DUP2 MSTORE PUSH1 0x4 ADD PUSH3 0x46F SWAP1 PUSH3 0x3E74 JUMP JUMPDEST DUP6 PUSH1 0x1 PUSH1 0x1 PUSH1 0xA0 SHL SUB AND PUSH4 0x313CE567 PUSH1 0x40 MLOAD DUP2 PUSH4 0xFFFFFFFF AND PUSH1 0xE0 SHL DUP2 MSTORE PUSH1 0x4 ADD PUSH1 0x20 PUSH1 0x40 MLOAD DUP1 DUP4 SUB DUP2 DUP7 DUP1 EXTCODESIZE ISZERO DUP1 ISZERO PUSH3 0x1AD4 JUMPI PUSH1 0x0 DUP1 REVERT JUMPDEST POP GAS STATICCALL ISZERO DUP1 ISZERO PUSH3 0x1AE9 JUMPI RETURNDATASIZE PUSH1 0x0 DUP1 RETURNDATACOPY RETURNDATASIZE PUSH1 0x0 REVERT JUMPDEST POP POP POP POP PUSH1 0x40 MLOAD RETURNDATASIZE PUSH1 0x1F NOT PUSH1 0x1F DUP3 ADD AND DUP3 ADD DUP1 PUSH1 0x40 MSTORE POP DUP2 ADD SWAP1 PUSH3 0x1B0F SWAP2 SWAP1 PUSH3 0x3804 JUMP JUMPDEST SWAP1 POP JUMPDEST PUSH1 0x64 DUP5 PUSH1 0xFF AND SLT ISZERO PUSH3 0x1B39 JUMPI PUSH1 0x40 MLOAD PUSH3 0x461BCD PUSH1 0xE5 SHL DUP2 MSTORE PUSH1 0x4 ADD PUSH3 0x46F SWAP1 PUSH3 0x3CC5 JUMP JUMPDEST PUSH1 0x64 DUP4 PUSH1 0xFF AND SGT ISZERO PUSH3 0x1B60 JUMPI PUSH1 0x40 MLOAD PUSH3 0x461BCD PUSH1 0xE5 SHL DUP2 MSTORE PUSH1 0x4 ADD PUSH3 0x46F SWAP1 PUSH3 0x3E08 JUMP JUMPDEST PUSH1 0x64 DUP3 PUSH1 0xFF AND SGT PUSH3 0x1B86 JUMPI PUSH1 0x40 MLOAD PUSH3 0x461BCD PUSH1 0xE5 SHL DUP2 MSTORE PUSH1 0x4 ADD PUSH3 0x46F SWAP1 PUSH3 0x3DA3 JUMP JUMPDEST PUSH1 0x24 DUP2 PUSH1 0xFF AND GT ISZERO PUSH3 0x1B98 JUMPI PUSH1 0x0 DUP1 REVERT JUMPDEST PUSH1 0x0 PUSH3 0x1BA4 PUSH3 0x2AA3 JUMP JUMPDEST SWAP1 POP PUSH1 0x40 MLOAD DUP1 PUSH1 0xC0 ADD PUSH1 0x40 MSTORE DUP1 DUP9 PUSH1 0x1 PUSH1 0x1 PUSH1 0xA0 SHL SUB AND DUP2 MSTORE PUSH1 0x20 ADD DUP4 PUSH1 0xFF AND DUP2 MSTORE PUSH1 0x20 ADD DUP8 ISZERO ISZERO DUP2 MSTORE PUSH1 0x20 ADD DUP7 PUSH1 0xFF AND DUP2 MSTORE PUSH1 0x20 ADD DUP6 PUSH1 0xFF AND DUP2 MSTORE PUSH1 0x20 ADD DUP5 PUSH1 0xFF AND DUP2 MSTORE POP DUP2 PUSH1 0x0 DUP11 PUSH2 0xFFFF AND DUP2 MSTORE PUSH1 0x20 ADD SWAP1 DUP2 MSTORE PUSH1 0x20 ADD PUSH1 0x0 KECCAK256 PUSH1 0x0 DUP3 ADD MLOAD DUP2 PUSH1 0x0 ADD PUSH1 0x0 PUSH2 0x100 EXP DUP2 SLOAD DUP2 PUSH1 0x1 PUSH1 0x1 PUSH1 0xA0 SHL SUB MUL NOT AND SWAP1 DUP4 PUSH1 0x1 PUSH1 0x1 PUSH1 0xA0 SHL SUB AND MUL OR SWAP1 SSTORE POP PUSH1 0x20 DUP3 ADD MLOAD DUP2 PUSH1 0x0 ADD PUSH1 0x14 PUSH2 0x100 EXP DUP2 SLOAD DUP2 PUSH1 0xFF MUL NOT AND SWAP1 DUP4 PUSH1 0xFF AND MUL OR SWAP1 SSTORE POP PUSH1 0x40 DUP3 ADD MLOAD DUP2 PUSH1 0x0 ADD PUSH1 0x15 PUSH2 0x100 EXP DUP2 SLOAD DUP2 PUSH1 0xFF MUL NOT AND SWAP1 DUP4 ISZERO ISZERO MUL OR SWAP1 SSTORE POP PUSH1 0x60 DUP3 ADD MLOAD DUP2 PUSH1 0x0 ADD PUSH1 0x16 PUSH2 0x100 EXP DUP2 SLOAD DUP2 PUSH1 0xFF MUL NOT AND SWAP1 DUP4 PUSH1 0xFF AND MUL OR SWAP1 SSTORE POP PUSH1 0x80 DUP3 ADD MLOAD DUP2 PUSH1 0x0 ADD PUSH1 0x17 PUSH2 0x100 EXP DUP2 SLOAD DUP2 PUSH1 0xFF MUL NOT AND SWAP1 DUP4 PUSH1 0xFF AND MUL OR SWAP1 SSTORE POP PUSH1 0xA0 DUP3 ADD MLOAD DUP2 PUSH1 0x0 ADD PUSH1 0x18 PUSH2 0x100 EXP DUP2 SLOAD DUP2 PUSH1 0xFF MUL NOT AND SWAP1 DUP4 PUSH1 0xFF AND MUL OR SWAP1 SSTORE POP SWAP1 POP POP PUSH32 0x32DF9E03D26F91A7FA4D4A9E48C2038679570CDE31D5C7F979A04515E00A767D DUP9 PUSH1 0x40 MLOAD PUSH3 0xE0E SWAP2 SWAP1 PUSH3 0x4094 JUMP JUMPDEST PUSH1 0x7 DUP4 GT ISZERO PUSH3 0x1D29 JUMPI PUSH1 0x40 MLOAD PUSH3 0x461BCD PUSH1 0xE5 SHL DUP2 MSTORE PUSH1 0x4 ADD PUSH3 0x46F SWAP1 PUSH3 0x3F2E JUMP JUMPDEST DUP3 DUP2 EQ PUSH3 0x1D4B JUMPI PUSH1 0x40 MLOAD PUSH3 0x461BCD PUSH1 0xE5 SHL DUP2 MSTORE PUSH1 0x4 ADD PUSH3 0x46F SWAP1 PUSH3 0x38E8 JUMP JUMPDEST PUSH1 0x0 DUP1 JUMPDEST DUP5 DUP2 LT ISZERO PUSH3 0x1E14 JUMPI DUP6 DUP6 DUP3 DUP2 DUP2 LT PUSH3 0x1D65 JUMPI INVALID JUMPDEST SWAP1 POP PUSH1 0x20 MUL ADD PUSH1 0x20 DUP2 ADD SWAP1 PUSH3 0x1D7C SWAP2 SWAP1 PUSH3 0x37C8 JUMP JUMPDEST PUSH4 0xFFFFFFFF AND DUP3 ADD SWAP2 POP PUSH1 0x0 DUP5 DUP5 DUP4 DUP2 DUP2 LT PUSH3 0x1D95 JUMPI INVALID JUMPDEST SWAP1 POP PUSH1 0x20 MUL ADD PUSH1 0x20 DUP2 ADD SWAP1 PUSH3 0x1DAC SWAP2 SWAP1 PUSH3 0x37C8 JUMP JUMPDEST PUSH4 0xFFFFFFFF AND GT DUP1 ISZERO PUSH3 0x1DEC JUMPI POP PUSH4 0x3B9ACA00 DUP5 DUP5 DUP4 DUP2 DUP2 LT PUSH3 0x1DCD JUMPI INVALID JUMPDEST SWAP1 POP PUSH1 0x20 MUL ADD PUSH1 0x20 DUP2 ADD SWAP1 PUSH3 0x1DE4 SWAP2 SWAP1 PUSH3 0x37C8 JUMP JUMPDEST PUSH4 0xFFFFFFFF AND SLT JUMPDEST PUSH3 0x1E0B JUMPI PUSH1 0x40 MLOAD PUSH3 0x461BCD PUSH1 0xE5 SHL DUP2 MSTORE PUSH1 0x4 ADD PUSH3 0x46F SWAP1 PUSH3 0x3D3E JUMP JUMPDEST PUSH1 0x1 ADD PUSH3 0x1D4F JUMP JUMPDEST POP PUSH4 0x5F5E100 DUP2 EQ PUSH3 0x1E3B JUMPI PUSH1 0x40 MLOAD PUSH3 0x461BCD PUSH1 0xE5 SHL DUP2 MSTORE PUSH1 0x4 ADD PUSH3 0x46F SWAP1 PUSH3 0x3EAB JUMP JUMPDEST PUSH1 0x0 PUSH3 0x1E47 PUSH3 0x2AB2 JUMP JUMPDEST PUSH1 0x0 DUP9 DUP2 MSTORE PUSH1 0x20 DUP3 SWAP1 MSTORE PUSH1 0x40 SWAP1 KECCAK256 SWAP1 SWAP2 POP PUSH3 0x1E67 DUP2 DUP9 DUP9 DUP9 DUP9 PUSH3 0x2475 JUMP JUMPDEST POP POP POP POP POP POP POP POP JUMP JUMPDEST PUSH3 0x1E7B PUSH3 0x30C6 JUMP JUMPDEST PUSH3 0x1E88 DUP3 PUSH1 0x0 PUSH3 0x2AC1 JUMP JUMPDEST SWAP3 SWAP2 POP POP JUMP JUMPDEST PUSH3 0x1E98 PUSH3 0x30C6 JUMP JUMPDEST PUSH3 0x1E88 DUP3 PUSH1 0x1 PUSH3 0x2AC1 JUMP JUMPDEST PUSH1 0x0 PUSH3 0x1EB1 PUSH3 0x2312 JUMP JUMPDEST PUSH2 0xFFFF DUP5 AND PUSH1 0x0 SWAP1 DUP2 MSTORE PUSH1 0x20 DUP3 SWAP1 MSTORE PUSH1 0x40 SWAP1 KECCAK256 SLOAD SWAP1 SWAP2 POP PUSH1 0x1 PUSH1 0x1 PUSH1 0xA0 SHL SUB AND ISZERO PUSH3 0x1EF1 JUMPI PUSH1 0x40 MLOAD PUSH3 0x461BCD PUSH1 0xE5 SHL DUP2 MSTORE PUSH1 0x4 ADD PUSH3 0x46F SWAP1 PUSH3 0x3F9A JUMP JUMPDEST PUSH1 0x0 PUSH3 0x1EFD PUSH3 0x22F4 JUMP JUMPDEST PUSH1 0x1 PUSH1 0x1 PUSH1 0xA0 SHL SUB DUP5 AND PUSH1 0x0 SWAP1 DUP2 MSTORE PUSH1 0x20 DUP3 SWAP1 MSTORE PUSH1 0x40 SWAP1 KECCAK256 DUP1 SLOAD SWAP2 SWAP3 POP SWAP1 PUSH2 0xFFFF AND ISZERO PUSH3 0x1F3F JUMPI PUSH1 0x40 MLOAD PUSH3 0x461BCD PUSH1 0xE5 SHL DUP2 MSTORE PUSH1 0x4 ADD PUSH3 0x46F SWAP1 PUSH3 0x3986 JUMP JUMPDEST DUP1 SLOAD PUSH2 0xFFFF NOT AND PUSH2 0xFFFF SWAP6 SWAP1 SWAP6 AND SWAP5 DUP6 OR SWAP1 SSTORE POP PUSH1 0x0 SWAP3 DUP4 MSTORE PUSH1 0x20 MSTORE PUSH1 0x40 SWAP1 SWAP2 KECCAK256 DUP1 SLOAD PUSH1 0x1 PUSH1 0x1 PUSH1 0xA0 SHL SUB NOT AND PUSH1 0x1 PUSH1 0x1 PUSH1 0xA0 SHL SUB SWAP1 SWAP3 AND SWAP2 SWAP1 SWAP2 OR SWAP1 SSTORE JUMP JUMPDEST PUSH1 0x0 PUSH3 0x1F8B PUSH3 0x2573 JUMP JUMPDEST SWAP1 POP PUSH1 0x3 DUP3 PUSH1 0x40 ADD MLOAD PUSH1 0x5 DUP2 GT ISZERO PUSH3 0x1FA0 JUMPI INVALID JUMPDEST EQ DUP1 ISZERO PUSH3 0x1FAE JUMPI POP PUSH1 0x1 DUP5 EQ JUMPDEST ISZERO PUSH3 0x1FFB JUMPI PUSH1 0x0 DUP5 DUP2 MSTORE PUSH1 0x20 SWAP2 DUP3 MSTORE PUSH1 0x40 DUP1 DUP3 KECCAK256 PUSH1 0x1 DUP4 MSTORE SWAP1 SWAP3 MSTORE KECCAK256 DUP1 SLOAD PUSH1 0x1 PUSH1 0x1 PUSH1 0xB0 SHL SUB NOT AND PUSH1 0x3 PUSH1 0xA8 SHL OR PUSH1 0xFF PUSH1 0xB0 SHL NOT AND PUSH1 0x9 PUSH1 0xB1 SHL OR PUSH1 0x1 PUSH1 0x1 PUSH1 0xB8 SHL SUB AND SWAP1 SSTORE PUSH3 0x19F5 JUMP JUMPDEST DUP2 MLOAD PUSH1 0x1 PUSH1 0x1 PUSH1 0xA0 SHL SUB AND PUSH3 0x2025 JUMPI PUSH1 0x40 MLOAD PUSH3 0x461BCD PUSH1 0xE5 SHL DUP2 MSTORE PUSH1 0x4 ADD PUSH3 0x46F SWAP1 PUSH3 0x39E2 JUMP JUMPDEST PUSH1 0x0 PUSH3 0x2033 DUP6 DUP6 PUSH3 0x2AC1 JUMP JUMPDEST DUP4 MLOAD DUP2 MLOAD SWAP2 SWAP3 POP PUSH1 0x1 PUSH1 0x1 PUSH1 0xA0 SHL SUB SWAP2 DUP3 AND SWAP2 AND EQ DUP1 PUSH3 0x205C JUMPI POP DUP1 MLOAD PUSH1 0x1 PUSH1 0x1 PUSH1 0xA0 SHL SUB AND ISZERO JUMPDEST PUSH3 0x207B JUMPI PUSH1 0x40 MLOAD PUSH3 0x461BCD PUSH1 0xE5 SHL DUP2 MSTORE PUSH1 0x4 ADD PUSH3 0x46F SWAP1 PUSH3 0x3C57 JUMP JUMPDEST DUP3 PUSH1 0x60 ADD MLOAD PUSH1 0xFF AND PUSH1 0x0 LT DUP1 ISZERO PUSH3 0x209B JUMPI POP PUSH1 0x24 DUP4 PUSH1 0x60 ADD MLOAD PUSH1 0xFF AND GT ISZERO JUMPDEST PUSH3 0x20BA JUMPI PUSH1 0x40 MLOAD PUSH3 0x461BCD PUSH1 0xE5 SHL DUP2 MSTORE PUSH1 0x4 ADD PUSH3 0x46F SWAP1 PUSH3 0x3BF2 JUMP JUMPDEST PUSH1 0x3 DUP4 PUSH1 0x40 ADD MLOAD PUSH1 0x5 DUP2 GT ISZERO PUSH3 0x20CD JUMPI INVALID JUMPDEST EQ ISZERO PUSH3 0x20D9 JUMPI PUSH1 0x0 DUP1 REVERT JUMPDEST DUP4 ISZERO PUSH3 0x211D JUMPI PUSH1 0x80 DUP4 ADD MLOAD PUSH1 0x1 PUSH1 0x1 PUSH1 0x48 SHL SUB AND ISZERO PUSH3 0x20F9 JUMPI PUSH1 0x0 DUP1 REVERT JUMPDEST PUSH1 0x0 DUP4 PUSH1 0x40 ADD MLOAD PUSH1 0x5 DUP2 GT ISZERO PUSH3 0x210C JUMPI INVALID JUMPDEST EQ PUSH3 0x2117 JUMPI PUSH1 0x0 DUP1 REVERT JUMPDEST PUSH3 0x213C JUMP JUMPDEST PUSH1 0x0 DUP4 PUSH1 0x40 ADD MLOAD PUSH1 0x5 DUP2 GT ISZERO PUSH3 0x2130 JUMPI INVALID JUMPDEST EQ ISZERO PUSH3 0x213C JUMPI PUSH1 0x0 DUP1 REVERT JUMPDEST PUSH1 0x1 DUP4 PUSH1 0x40 ADD MLOAD PUSH1 0x5 DUP2 GT ISZERO PUSH3 0x214F JUMPI INVALID JUMPDEST EQ DUP1 PUSH3 0x216C JUMPI POP PUSH1 0x5 DUP4 PUSH1 0x40 ADD MLOAD PUSH1 0x5 DUP2 GT ISZERO PUSH3 0x216A JUMPI INVALID JUMPDEST EQ JUMPDEST ISZERO PUSH3 0x2231 JUMPI PUSH1 0x0 PUSH3 0x217F DUP7 PUSH3 0x1E8E JUMP JUMPDEST SWAP1 POP PUSH1 0x0 PUSH1 0x1 DUP6 PUSH1 0x40 ADD MLOAD PUSH1 0x5 DUP2 GT ISZERO PUSH3 0x2196 JUMPI INVALID JUMPDEST EQ PUSH3 0x21B7 JUMPI PUSH20 0x7D2768DE32B0B80B7A3454C06BDAC94A69DDC7A9 PUSH3 0x21BA JUMP JUMPDEST DUP5 MLOAD JUMPDEST DUP3 MLOAD PUSH1 0x40 MLOAD PUSH4 0x95EA7B3 PUSH1 0xE0 SHL DUP2 MSTORE SWAP2 SWAP3 POP PUSH1 0x1 PUSH1 0x1 PUSH1 0xA0 SHL SUB AND SWAP1 PUSH4 0x95EA7B3 SWAP1 PUSH3 0x21F0 SWAP1 DUP5 SWAP1 PUSH1 0x0 NOT SWAP1 PUSH1 0x4 ADD PUSH3 0x387C JUMP JUMPDEST PUSH1 0x0 PUSH1 0x40 MLOAD DUP1 DUP4 SUB DUP2 PUSH1 0x0 DUP8 DUP1 EXTCODESIZE ISZERO DUP1 ISZERO PUSH3 0x220B JUMPI PUSH1 0x0 DUP1 REVERT JUMPDEST POP GAS CALL ISZERO DUP1 ISZERO PUSH3 0x2220 JUMPI RETURNDATASIZE PUSH1 0x0 DUP1 RETURNDATACOPY RETURNDATASIZE PUSH1 0x0 REVERT JUMPDEST POP POP POP POP PUSH3 0x222E PUSH3 0x2B72 JUMP JUMPDEST POP POP JUMPDEST PUSH1 0x0 DUP6 DUP2 MSTORE PUSH1 0x20 DUP4 DUP2 MSTORE PUSH1 0x40 DUP1 DUP4 KECCAK256 DUP8 ISZERO ISZERO DUP5 MSTORE DUP3 MSTORE SWAP2 DUP3 SWAP1 KECCAK256 DUP6 MLOAD DUP2 SLOAD SWAP3 DUP8 ADD MLOAD ISZERO ISZERO PUSH1 0x1 PUSH1 0xA0 SHL MUL PUSH1 0xFF PUSH1 0xA0 SHL NOT PUSH1 0x1 PUSH1 0x1 PUSH1 0xA0 SHL SUB SWAP1 SWAP3 AND PUSH1 0x1 PUSH1 0x1 PUSH1 0xA0 SHL SUB NOT SWAP1 SWAP5 AND SWAP4 SWAP1 SWAP4 OR AND SWAP2 SWAP1 SWAP2 OR DUP1 DUP3 SSTORE SWAP2 DUP6 ADD MLOAD DUP6 SWAP3 DUP3 SWAP1 PUSH1 0xFF PUSH1 0xA8 SHL NOT AND PUSH1 0x1 PUSH1 0xA8 SHL DUP4 PUSH1 0x5 DUP2 GT ISZERO PUSH3 0x22A5 JUMPI INVALID JUMPDEST MUL OR SWAP1 SSTORE POP PUSH1 0x60 DUP3 ADD MLOAD DUP2 SLOAD PUSH1 0x80 SWAP1 SWAP4 ADD MLOAD PUSH1 0x1 PUSH1 0x1 PUSH1 0x48 SHL SUB AND PUSH1 0x1 PUSH1 0xB8 SHL MUL PUSH1 0x1 PUSH1 0x1 PUSH1 0xB8 SHL SUB PUSH1 0xFF SWAP1 SWAP3 AND PUSH1 0x1 PUSH1 0xB0 SHL MUL PUSH1 0xFF PUSH1 0xB0 SHL NOT SWAP1 SWAP5 AND SWAP4 SWAP1 SWAP4 OR AND SWAP2 SWAP1 SWAP2 OR SWAP1 SSTORE POP POP POP POP POP JUMP JUMPDEST PUSH1 0x0 DUP1 PUSH3 0x1E88 PUSH1 0x2 PUSH3 0x2BE5 JUMP JUMPDEST PUSH1 0x0 DUP1 PUSH3 0x1E88 PUSH1 0x12 PUSH3 0x2BE5 JUMP JUMPDEST PUSH1 0x0 DUP1 PUSH3 0x1E88 PUSH1 0x3 PUSH3 0x2BE5 JUMP JUMPDEST PUSH1 0x0 PUSH3 0x234E PUSH32 0x360894A13BA1A3210667C828492DB98DCA3E2076CC3735A920A3CA505D382BBC PUSH3 0x2421 JUMP JUMPDEST SLOAD PUSH1 0x1 PUSH1 0x1 PUSH1 0xA0 SHL SUB AND SWAP1 POP SWAP1 JUMP JUMPDEST PUSH3 0x2368 DUP2 PUSH3 0x10FA JUMP JUMPDEST PUSH3 0x23A5 JUMPI PUSH1 0x40 MLOAD PUSH3 0x461BCD PUSH1 0xE5 SHL DUP2 MSTORE PUSH1 0x4 ADD DUP1 DUP1 PUSH1 0x20 ADD DUP3 DUP2 SUB DUP3 MSTORE PUSH1 0x2D DUP2 MSTORE PUSH1 0x20 ADD DUP1 PUSH3 0x5151 PUSH1 0x2D SWAP2 CODECOPY PUSH1 0x40 ADD SWAP2 POP POP PUSH1 0x40 MLOAD DUP1 SWAP2 SUB SWAP1 REVERT JUMPDEST DUP1 PUSH3 0x23D1 PUSH32 0x360894A13BA1A3210667C828492DB98DCA3E2076CC3735A920A3CA505D382BBC PUSH3 0x2421 JUMP JUMPDEST DUP1 SLOAD PUSH1 0x1 PUSH1 0x1 PUSH1 0xA0 SHL SUB NOT AND PUSH1 0x1 PUSH1 0x1 PUSH1 0xA0 SHL SUB SWAP3 SWAP1 SWAP3 AND SWAP2 SWAP1 SWAP2 OR SWAP1 SSTORE POP JUMP JUMPDEST PUSH1 0x60 PUSH3 0x241A DUP4 DUP4 PUSH1 0x40 MLOAD DUP1 PUSH1 0x60 ADD PUSH1 0x40 MSTORE DUP1 PUSH1 0x27 DUP2 MSTORE PUSH1 0x20 ADD PUSH3 0x517E PUSH1 0x27 SWAP2 CODECOPY PUSH3 0x2BFF JUMP JUMPDEST SWAP4 SWAP3 POP POP POP JUMP JUMPDEST SWAP1 JUMP JUMPDEST PUSH3 0x242F DUP2 PUSH3 0x235D JUMP JUMPDEST PUSH1 0x40 MLOAD PUSH1 0x1 PUSH1 0x1 PUSH1 0xA0 SHL SUB DUP3 AND SWAP1 PUSH32 0xBC7CD75A20EE27FD9ADEBAB32041F755214DBC6BFFA90CC0225B39DA2E5C2D3B SWAP1 PUSH1 0x0 SWAP1 LOG2 POP JUMP JUMPDEST PUSH1 0x0 DUP1 PUSH3 0x1E88 PUSH1 0x5 PUSH3 0x2BE5 JUMP JUMPDEST PUSH1 0x0 DUP1 JUMPDEST DUP5 DUP2 LT ISZERO PUSH3 0x162A JUMPI DUP6 DUP6 DUP3 DUP2 DUP2 LT PUSH3 0x248F JUMPI INVALID JUMPDEST SWAP1 POP PUSH1 0x20 MUL ADD PUSH1 0x20 DUP2 ADD SWAP1 PUSH3 0x24A6 SWAP2 SWAP1 PUSH3 0x37C8 JUMP JUMPDEST DUP8 DUP4 PUSH1 0xE DUP2 LT PUSH3 0x24B3 JUMPI INVALID JUMPDEST PUSH1 0x8 SWAP2 DUP3 DUP3 DIV ADD SWAP2 SWAP1 MOD PUSH1 0x4 MUL PUSH2 0x100 EXP DUP2 SLOAD DUP2 PUSH4 0xFFFFFFFF MUL NOT AND SWAP1 DUP4 PUSH4 0xFFFFFFFF AND MUL OR SWAP1 SSTORE POP DUP2 DUP1 PUSH1 0x1 ADD SWAP3 POP POP DUP4 DUP4 DUP3 DUP2 DUP2 LT PUSH3 0x24F1 JUMPI INVALID JUMPDEST SWAP1 POP PUSH1 0x20 MUL ADD PUSH1 0x20 DUP2 ADD SWAP1 PUSH3 0x2508 SWAP2 SWAP1 PUSH3 0x37C8 JUMP JUMPDEST DUP8 DUP4 PUSH1 0xE DUP2 LT PUSH3 0x2515 JUMPI INVALID JUMPDEST PUSH1 0x8 SWAP2 DUP3 DUP3 DIV ADD SWAP2 SWAP1 MOD PUSH1 0x4 MUL PUSH2 0x100 EXP DUP2 SLOAD DUP2 PUSH4 0xFFFFFFFF MUL NOT AND SWAP1 DUP4 PUSH4 0xFFFFFFFF AND MUL OR SWAP1 SSTORE POP DUP2 DUP1 PUSH1 0x1 ADD SWAP3 POP POP DUP1 DUP1 PUSH1 0x1 ADD SWAP2 POP POP PUSH3 0x2479 JUMP JUMPDEST PUSH1 0x0 DUP1 PUSH3 0x2561 PUSH3 0x2D0B JUMP JUMPDEST PUSH1 0x0 SWAP4 DUP5 MSTORE PUSH1 0x20 MSTORE POP POP PUSH1 0x40 SWAP1 KECCAK256 SLOAD SWAP1 JUMP JUMPDEST PUSH1 0x0 DUP1 PUSH3 0x1E88 PUSH1 0x7 PUSH3 0x2BE5 JUMP JUMPDEST PUSH3 0x2591 PUSH1 0x20 DUP3 ADD DUP3 PUSH3 0x37E5 JUMP JUMPDEST PUSH1 0xFF AND PUSH1 0x2 GT ISZERO DUP1 ISZERO PUSH3 0x25B7 JUMPI POP PUSH1 0x7 PUSH3 0x25B1 PUSH1 0x20 DUP4 ADD DUP4 PUSH3 0x37E5 JUMP JUMPDEST PUSH1 0xFF AND GT ISZERO JUMPDEST PUSH3 0x25D6 JUMPI PUSH1 0x40 MLOAD PUSH3 0x461BCD PUSH1 0xE5 SHL DUP2 MSTORE PUSH1 0x4 ADD PUSH3 0x46F SWAP1 PUSH3 0x3A0F JUMP JUMPDEST PUSH1 0x64 PUSH3 0x25EA PUSH1 0x80 DUP4 ADD PUSH1 0x60 DUP5 ADD PUSH3 0x37E5 JUMP JUMPDEST PUSH1 0xFF AND SGT ISZERO PUSH3 0x260E JUMPI PUSH1 0x40 MLOAD PUSH3 0x461BCD PUSH1 0xE5 SHL DUP2 MSTORE PUSH1 0x4 ADD PUSH3 0x46F SWAP1 PUSH3 0x4001 JUMP JUMPDEST PUSH3 0x261D PUSH1 0x20 DUP3 ADD DUP3 PUSH3 0x37E5 JUMP JUMPDEST PUSH1 0xFF AND PUSH3 0x2630 PUSH2 0x120 DUP4 ADD DUP4 PUSH3 0x40F7 JUMP JUMPDEST SWAP1 POP EQ PUSH3 0x263D JUMPI PUSH1 0x0 DUP1 REVERT JUMPDEST PUSH3 0x264C PUSH1 0x20 DUP3 ADD DUP3 PUSH3 0x37E5 JUMP JUMPDEST PUSH1 0xFF AND PUSH3 0x265F PUSH2 0x140 DUP4 ADD DUP4 PUSH3 0x40F7 JUMP JUMPDEST SWAP1 POP EQ PUSH3 0x266C JUMPI PUSH1 0x0 DUP1 REVERT JUMPDEST PUSH3 0x267E PUSH1 0xC0 DUP3 ADD PUSH1 0xA0 DUP4 ADD PUSH3 0x37E5 JUMP JUMPDEST PUSH1 0xFF AND PUSH3 0x2694 PUSH2 0x100 DUP4 ADD PUSH1 0xE0 DUP5 ADD PUSH3 0x37E5 JUMP JUMPDEST PUSH1 0xFF AND LT PUSH3 0x26A2 JUMPI PUSH1 0x0 DUP1 REVERT JUMPDEST PUSH3 0x26B4 PUSH1 0xA0 DUP3 ADD PUSH1 0x80 DUP4 ADD PUSH3 0x37E5 JUMP JUMPDEST PUSH1 0xFF AND PUSH3 0x26CB PUSH2 0x120 DUP4 ADD PUSH2 0x100 DUP5 ADD PUSH3 0x37E5 JUMP JUMPDEST PUSH1 0xFF AND LT PUSH3 0x26D9 JUMPI PUSH1 0x0 DUP1 REVERT JUMPDEST PUSH1 0x0 PUSH3 0x26E6 DUP4 PUSH3 0x1633 JUMP JUMPDEST SWAP1 POP PUSH3 0x26F7 PUSH1 0x20 DUP4 ADD DUP4 PUSH3 0x37E5 JUMP JUMPDEST PUSH1 0xFF AND DUP2 PUSH1 0xFF AND GT ISZERO PUSH3 0x271F JUMPI PUSH1 0x40 MLOAD PUSH3 0x461BCD PUSH1 0xE5 SHL DUP2 MSTORE PUSH1 0x4 ADD PUSH3 0x46F SWAP1 PUSH3 0x3F65 JUMP JUMPDEST PUSH1 0x0 PUSH1 0x40 PUSH3 0x2737 PUSH2 0x120 DUP6 ADD PUSH2 0x100 DUP7 ADD PUSH3 0x37E5 JUMP JUMPDEST PUSH1 0xFF AND SWAP1 SHL PUSH1 0x38 PUSH3 0x2751 PUSH2 0x100 DUP7 ADD PUSH1 0xE0 DUP8 ADD PUSH3 0x37E5 JUMP JUMPDEST PUSH1 0xFF AND SWAP1 SHL PUSH1 0x30 PUSH3 0x276A PUSH1 0xE0 DUP8 ADD PUSH1 0xC0 DUP9 ADD PUSH3 0x37E5 JUMP JUMPDEST PUSH1 0xFF AND SWAP1 SHL PUSH1 0x28 PUSH3 0x2783 PUSH1 0xC0 DUP9 ADD PUSH1 0xA0 DUP10 ADD PUSH3 0x37E5 JUMP JUMPDEST PUSH1 0xFF AND SWAP1 SHL PUSH1 0x20 PUSH3 0x279C PUSH1 0xA0 DUP10 ADD PUSH1 0x80 DUP11 ADD PUSH3 0x37E5 JUMP JUMPDEST PUSH1 0xFF AND SWAP1 SHL PUSH1 0x18 PUSH3 0x27B5 PUSH1 0x80 DUP11 ADD PUSH1 0x60 DUP12 ADD PUSH3 0x37E5 JUMP JUMPDEST PUSH1 0xFF AND SWAP1 SHL PUSH1 0x10 PUSH3 0x27CE PUSH1 0x60 DUP12 ADD PUSH1 0x40 DUP13 ADD PUSH3 0x37E5 JUMP JUMPDEST PUSH1 0xFF AND SWAP1 SHL PUSH1 0x8 PUSH3 0x27E7 PUSH1 0x40 DUP13 ADD PUSH1 0x20 DUP14 ADD PUSH3 0x37E5 JUMP JUMPDEST PUSH1 0xFF AND SWAP1 SHL PUSH3 0x27FB PUSH1 0x20 DUP13 ADD DUP13 PUSH3 0x37E5 JUMP JUMPDEST PUSH1 0xFF AND OR OR OR OR OR OR OR OR SWAP1 POP PUSH1 0x0 JUMPDEST PUSH3 0x281B PUSH2 0x120 DUP6 ADD DUP6 PUSH3 0x40F7 JUMP JUMPDEST SWAP1 POP DUP2 LT ISZERO PUSH3 0x28C9 JUMPI PUSH1 0x64 PUSH3 0x2837 PUSH2 0x120 DUP7 ADD DUP7 PUSH3 0x40F7 JUMP JUMPDEST DUP4 DUP2 DUP2 LT PUSH3 0x2842 JUMPI INVALID JUMPDEST SWAP1 POP PUSH1 0x20 MUL ADD PUSH1 0x20 DUP2 ADD SWAP1 PUSH3 0x2859 SWAP2 SWAP1 PUSH3 0x37E5 JUMP JUMPDEST PUSH1 0xFF AND SGT ISZERO PUSH3 0x287D JUMPI PUSH1 0x40 MLOAD PUSH3 0x461BCD PUSH1 0xE5 SHL DUP2 MSTORE PUSH1 0x4 ADD PUSH3 0x46F SWAP1 PUSH3 0x3B90 JUMP JUMPDEST PUSH1 0x48 PUSH1 0x8 DUP3 MUL ADD PUSH3 0x2894 PUSH2 0x120 DUP7 ADD DUP7 PUSH3 0x40F7 JUMP JUMPDEST DUP4 DUP2 DUP2 LT PUSH3 0x289F JUMPI INVALID JUMPDEST SWAP1 POP PUSH1 0x20 MUL ADD PUSH1 0x20 DUP2 ADD SWAP1 PUSH3 0x28B6 SWAP2 SWAP1 PUSH3 0x37E5 JUMP JUMPDEST PUSH1 0xFF AND SWAP1 SHL SWAP2 SWAP1 SWAP2 OR SWAP1 PUSH1 0x1 ADD PUSH3 0x280B JUMP JUMPDEST POP PUSH1 0x0 JUMPDEST PUSH3 0x28DD PUSH2 0x140 DUP6 ADD DUP6 PUSH3 0x40F7 JUMP JUMPDEST SWAP1 POP DUP2 LT ISZERO PUSH3 0x2987 JUMPI PUSH3 0x28F7 PUSH2 0x140 DUP6 ADD DUP6 PUSH3 0x40F7 JUMP JUMPDEST DUP3 DUP2 DUP2 LT PUSH3 0x2902 JUMPI INVALID JUMPDEST SWAP1 POP PUSH1 0x20 MUL ADD PUSH1 0x20 DUP2 ADD SWAP1 PUSH3 0x2919 SWAP2 SWAP1 PUSH3 0x37E5 JUMP JUMPDEST PUSH1 0xFF AND PUSH3 0x293B JUMPI PUSH1 0x40 MLOAD PUSH3 0x461BCD PUSH1 0xE5 SHL DUP2 MSTORE PUSH1 0x4 ADD PUSH3 0x46F SWAP1 PUSH3 0x3A46 JUMP JUMPDEST PUSH1 0x80 PUSH1 0x8 DUP3 MUL ADD PUSH3 0x2952 PUSH2 0x140 DUP7 ADD DUP7 PUSH3 0x40F7 JUMP JUMPDEST DUP4 DUP2 DUP2 LT PUSH3 0x295D JUMPI INVALID JUMPDEST SWAP1 POP PUSH1 0x20 MUL ADD PUSH1 0x20 DUP2 ADD SWAP1 PUSH3 0x2974 SWAP2 SWAP1 PUSH3 0x37E5 JUMP JUMPDEST PUSH1 0xFF AND SWAP1 SHL SWAP2 SWAP1 SWAP2 OR SWAP1 PUSH1 0x1 ADD PUSH3 0x28CD JUMP JUMPDEST POP PUSH1 0x0 PUSH3 0x2994 PUSH3 0x2D0B JUMP JUMPDEST PUSH1 0x0 SWAP6 DUP7 MSTORE PUSH1 0x20 MSTORE POP PUSH1 0x40 SWAP1 SWAP4 KECCAK256 SWAP3 SWAP1 SWAP3 SSTORE POP POP JUMP JUMPDEST PUSH1 0x0 DUP1 PUSH3 0x1E88 PUSH1 0xF PUSH3 0x2BE5 JUMP JUMPDEST PUSH1 0x0 DUP1 PUSH1 0x0 PUSH3 0x29CA DUP7 DUP6 PUSH3 0x2D1A JUMP JUMPDEST POP SWAP2 POP SWAP2 POP PUSH1 0x0 PUSH3 0x29DB PUSH3 0x2DBE JUMP JUMPDEST PUSH1 0x1 PUSH1 0x1 PUSH1 0xA0 SHL SUB DUP9 AND PUSH1 0x0 SWAP1 DUP2 MSTORE PUSH1 0x20 DUP3 SWAP1 MSTORE PUSH1 0x40 DUP2 KECCAK256 SWAP2 SWAP3 POP PUSH3 0x2A02 DUP6 DUP10 PUSH3 0x2DCD JUMP JUMPDEST SWAP1 POP DUP1 PUSH1 0x0 SGT ISZERO DUP1 ISZERO PUSH3 0x2A1C JUMPI POP PUSH1 0x1 PUSH1 0x1 PUSH1 0x60 SHL SUB DUP2 LT JUMPDEST PUSH3 0x2A26 JUMPI PUSH1 0x0 DUP1 REVERT JUMPDEST DUP2 SLOAD PUSH12 0xFFFFFFFFFFFFFFFFFFFFFFFF NOT AND PUSH1 0x1 PUSH1 0x1 PUSH1 0x60 SHL SUB DUP3 AND OR PUSH16 0xFFFFFFFFFFFFFFFFFFFFFFFFFFFFFFFF PUSH1 0x60 SHL NOT AND PUSH1 0x1 PUSH1 0x60 SHL PUSH1 0x1 PUSH1 0x1 PUSH1 0x80 SHL SUB DUP7 AND MUL OR DUP3 SSTORE PUSH4 0xFFFFFFFF DUP8 LT PUSH3 0x2A7C JUMPI PUSH1 0x0 DUP1 REVERT JUMPDEST POP DUP1 SLOAD PUSH1 0x1 PUSH1 0x1 PUSH1 0xE0 SHL SUB AND PUSH1 0x1 PUSH1 0xE0 SHL PUSH4 0xFFFFFFFF DUP9 AND MUL OR SWAP1 SSTORE POP SWAP2 POP POP SWAP4 SWAP3 POP POP POP JUMP JUMPDEST PUSH1 0x0 DUP1 PUSH3 0x1E88 PUSH1 0x10 PUSH3 0x2BE5 JUMP JUMPDEST PUSH1 0x0 DUP1 PUSH3 0x1E88 PUSH1 0x4 PUSH3 0x2BE5 JUMP JUMPDEST PUSH3 0x2ACB PUSH3 0x30C6 JUMP JUMPDEST PUSH1 0x0 PUSH3 0x2AD7 PUSH3 0x2573 JUMP JUMPDEST PUSH1 0x0 DUP6 DUP2 MSTORE PUSH1 0x20 DUP3 DUP2 MSTORE PUSH1 0x40 DUP1 DUP4 KECCAK256 DUP8 ISZERO ISZERO DUP5 MSTORE DUP3 MSTORE SWAP2 DUP3 SWAP1 KECCAK256 DUP3 MLOAD PUSH1 0xA0 DUP2 ADD DUP5 MSTORE DUP2 SLOAD PUSH1 0x1 PUSH1 0x1 PUSH1 0xA0 SHL SUB DUP2 AND DUP3 MSTORE PUSH1 0xFF PUSH1 0x1 PUSH1 0xA0 SHL DUP3 DIV DUP2 AND ISZERO ISZERO SWAP5 DUP4 ADD SWAP5 SWAP1 SWAP5 MSTORE PUSH1 0x1 PUSH1 0xB0 SHL DUP2 DIV DUP5 AND PUSH1 0xA EXP SWAP5 DUP3 ADD SWAP5 SWAP1 SWAP5 MSTORE SWAP4 SWAP5 POP SWAP3 SWAP2 PUSH1 0x60 DUP4 ADD SWAP2 PUSH1 0x1 PUSH1 0xA8 SHL SWAP1 SWAP2 DIV AND PUSH1 0x5 DUP2 GT ISZERO PUSH3 0x2B4D JUMPI INVALID JUMPDEST DUP2 MSTORE SWAP2 SLOAD PUSH1 0x1 PUSH1 0xB8 SHL SWAP1 DIV PUSH1 0x1 PUSH1 0x1 PUSH1 0x48 SHL SUB AND PUSH1 0x20 SWAP1 SWAP3 ADD SWAP2 SWAP1 SWAP2 MSTORE SWAP5 SWAP4 POP POP POP POP JUMP JUMPDEST PUSH1 0x0 PUSH3 0x2B7E PUSH3 0x30F5 JUMP JUMPDEST RETURNDATASIZE DUP1 ISZERO PUSH3 0x2B94 JUMPI PUSH1 0x20 DUP2 EQ PUSH3 0x2B9E JUMPI PUSH1 0x0 DUP1 REVERT JUMPDEST PUSH1 0x1 SWAP3 POP PUSH3 0x2BA9 JUMP JUMPDEST PUSH1 0x20 PUSH1 0x0 DUP4 RETURNDATACOPY DUP2 MLOAD SWAP3 POP JUMPDEST POP DUP2 PUSH3 0x81A JUMPI PUSH1 0x40 DUP1 MLOAD PUSH3 0x461BCD PUSH1 0xE5 SHL DUP2 MSTORE PUSH1 0x20 PUSH1 0x4 DUP3 ADD MSTORE PUSH1 0x5 PUSH1 0x24 DUP3 ADD MSTORE PUSH5 0x455243323 PUSH1 0xDC SHL PUSH1 0x44 DUP3 ADD MSTORE SWAP1 MLOAD SWAP1 DUP2 SWAP1 SUB PUSH1 0x64 ADD SWAP1 REVERT JUMPDEST PUSH1 0x0 PUSH3 0xF4240 DUP3 PUSH1 0x12 DUP2 GT ISZERO PUSH3 0x2BF8 JUMPI INVALID JUMPDEST ADD SWAP3 SWAP2 POP POP JUMP JUMPDEST PUSH1 0x60 PUSH3 0x2C0C DUP5 PUSH3 0x10FA JUMP JUMPDEST PUSH3 0x2C49 JUMPI PUSH1 0x40 MLOAD PUSH3 0x461BCD PUSH1 0xE5 SHL DUP2 MSTORE PUSH1 0x4 ADD DUP1 DUP1 PUSH1 0x20 ADD DUP3 DUP2 SUB DUP3 MSTORE PUSH1 0x26 DUP2 MSTORE PUSH1 0x20 ADD DUP1 PUSH3 0x51A5 PUSH1 0x26 SWAP2 CODECOPY PUSH1 0x40 ADD SWAP2 POP POP PUSH1 0x40 MLOAD DUP1 SWAP2 SUB SWAP1 REVERT JUMPDEST PUSH1 0x0 DUP1 DUP6 PUSH1 0x1 PUSH1 0x1 PUSH1 0xA0 SHL SUB AND DUP6 PUSH1 0x40 MLOAD DUP1 DUP3 DUP1 MLOAD SWAP1 PUSH1 0x20 ADD SWAP1 DUP1 DUP4 DUP4 JUMPDEST PUSH1 0x20 DUP4 LT PUSH3 0x2C88 JUMPI DUP1 MLOAD DUP3 MSTORE PUSH1 0x1F NOT SWAP1 SWAP3 ADD SWAP2 PUSH1 0x20 SWAP2 DUP3 ADD SWAP2 ADD PUSH3 0x2C67 JUMP JUMPDEST PUSH1 0x1 DUP4 PUSH1 0x20 SUB PUSH2 0x100 EXP SUB DUP1 NOT DUP3 MLOAD AND DUP2 DUP5 MLOAD AND DUP1 DUP3 OR DUP6 MSTORE POP POP POP POP POP POP SWAP1 POP ADD SWAP2 POP POP PUSH1 0x0 PUSH1 0x40 MLOAD DUP1 DUP4 SUB DUP2 DUP6 GAS DELEGATECALL SWAP2 POP POP RETURNDATASIZE DUP1 PUSH1 0x0 DUP2 EQ PUSH3 0x2CEA JUMPI PUSH1 0x40 MLOAD SWAP2 POP PUSH1 0x1F NOT PUSH1 0x3F RETURNDATASIZE ADD AND DUP3 ADD PUSH1 0x40 MSTORE RETURNDATASIZE DUP3 MSTORE RETURNDATASIZE PUSH1 0x0 PUSH1 0x20 DUP5 ADD RETURNDATACOPY PUSH3 0x2CEF JUMP JUMPDEST PUSH1 0x60 SWAP2 POP JUMPDEST POP SWAP2 POP SWAP2 POP PUSH3 0x2D01 DUP3 DUP3 DUP7 PUSH3 0x2DE4 JUMP JUMPDEST SWAP7 SWAP6 POP POP POP POP POP POP JUMP JUMPDEST PUSH1 0x0 DUP1 PUSH3 0x1E88 PUSH1 0x9 PUSH3 0x2BE5 JUMP JUMPDEST PUSH1 0x0 DUP1 PUSH1 0x0 PUSH3 0x2D2A DUP6 PUSH3 0x2E8E JUMP JUMPDEST SWAP2 SWAP5 POP SWAP3 POP SWAP1 POP DUP1 DUP5 GT DUP1 ISZERO PUSH3 0x2D41 JUMPI POP PUSH1 0x0 DUP2 GT JUMPDEST DUP1 ISZERO PUSH3 0x2D4E JUMPI POP PUSH1 0x0 DUP4 GT JUMPDEST ISZERO PUSH3 0x2DB7 JUMPI PUSH1 0x0 PUSH3 0x2D61 DUP7 PUSH3 0x2EEC JUMP JUMPDEST POP POP POP SWAP2 POP POP PUSH1 0x0 PUSH3 0x2D90 PUSH3 0x2D86 PUSH4 0x5F5E100 DUP5 PUSH3 0x2F5A SWAP1 SWAP2 SWAP1 PUSH4 0xFFFFFFFF AND JUMP JUMPDEST DUP5 DUP9 SUB DUP8 PUSH3 0x2FB8 JUMP JUMPDEST SWAP1 POP PUSH3 0x2D9E DUP5 DUP3 PUSH3 0x2FF4 JUMP JUMPDEST SWAP4 POP PUSH1 0x1 PUSH1 0x1 PUSH1 0x80 SHL SUB DUP5 LT PUSH3 0x2DB4 JUMPI PUSH1 0x0 DUP1 REVERT JUMPDEST POP POP JUMPDEST SWAP3 POP SWAP3 POP SWAP3 JUMP JUMPDEST PUSH1 0x0 DUP1 PUSH3 0x1E88 PUSH1 0x11 PUSH3 0x2BE5 JUMP JUMPDEST DUP2 DUP2 ADD DUP3 DUP2 SLT ISZERO PUSH1 0x0 DUP4 SLT ISZERO EQ PUSH3 0x1E88 JUMPI PUSH1 0x0 DUP1 REVERT JUMPDEST PUSH1 0x60 DUP4 ISZERO PUSH3 0x2DF5 JUMPI POP DUP2 PUSH3 0x241A JUMP JUMPDEST DUP3 MLOAD ISZERO PUSH3 0x2E06 JUMPI DUP3 MLOAD DUP1 DUP5 PUSH1 0x20 ADD REVERT JUMPDEST DUP2 PUSH1 0x40 MLOAD PUSH3 0x461BCD PUSH1 0xE5 SHL DUP2 MSTORE PUSH1 0x4 ADD DUP1 DUP1 PUSH1 0x20 ADD DUP3 DUP2 SUB DUP3 MSTORE DUP4 DUP2 DUP2 MLOAD DUP2 MSTORE PUSH1 0x20 ADD SWAP2 POP DUP1 MLOAD SWAP1 PUSH1 0x20 ADD SWAP1 DUP1 DUP4 DUP4 PUSH1 0x0 JUMPDEST DUP4 DUP2 LT ISZERO PUSH3 0x2E52 JUMPI DUP2 DUP2 ADD MLOAD DUP4 DUP3 ADD MSTORE PUSH1 0x20 ADD PUSH3 0x2E38 JUMP JUMPDEST POP POP POP POP SWAP1 POP SWAP1 DUP2 ADD SWAP1 PUSH1 0x1F AND DUP1 ISZERO PUSH3 0x2E80 JUMPI DUP1 DUP3 SUB DUP1 MLOAD PUSH1 0x1 DUP4 PUSH1 0x20 SUB PUSH2 0x100 EXP SUB NOT AND DUP2 MSTORE PUSH1 0x20 ADD SWAP2 POP JUMPDEST POP SWAP3 POP POP POP PUSH1 0x40 MLOAD DUP1 SWAP2 SUB SWAP1 REVERT JUMPDEST PUSH1 0x0 DUP1 PUSH1 0x0 DUP1 PUSH3 0x2E9E PUSH3 0x2DBE JUMP JUMPDEST PUSH1 0x1 PUSH1 0x1 PUSH1 0xA0 SHL SUB SWAP6 SWAP1 SWAP6 AND PUSH1 0x0 SWAP1 DUP2 MSTORE PUSH1 0x20 SWAP6 SWAP1 SWAP6 MSTORE POP POP PUSH1 0x40 SWAP1 SWAP3 KECCAK256 SLOAD PUSH1 0x1 PUSH1 0x1 PUSH1 0x60 SHL SUB DUP2 AND SWAP4 PUSH1 0x1 PUSH1 0x60 SHL DUP3 DIV PUSH1 0x1 PUSH1 0x1 PUSH1 0x80 SHL SUB AND SWAP4 POP PUSH1 0x1 PUSH1 0xE0 SHL SWAP1 SWAP2 DIV PUSH4 0xFFFFFFFF AND SWAP2 POP JUMP JUMPDEST PUSH1 0x0 DUP1 PUSH1 0x0 DUP1 PUSH1 0x0 DUP1 PUSH3 0x2EFF PUSH3 0x22F4 JUMP JUMPDEST PUSH1 0x1 PUSH1 0x1 PUSH1 0xA0 SHL SUB SWAP1 SWAP8 AND PUSH1 0x0 SWAP1 DUP2 MSTORE PUSH1 0x20 SWAP8 SWAP1 SWAP8 MSTORE POP POP PUSH1 0x40 SWAP1 SWAP5 KECCAK256 SLOAD PUSH2 0xFFFF DUP2 AND SWAP6 PUSH4 0xFFFFFFFF PUSH3 0x10000 DUP4 DIV DUP2 AND SWAP7 POP PUSH7 0x1000000000000 DUP4 DIV AND SWAP5 POP PUSH1 0xFF PUSH1 0x1 PUSH1 0x50 SHL DUP4 DIV AND SWAP4 POP PUSH1 0x1 PUSH1 0x58 SHL SWAP1 SWAP2 DIV PUSH1 0xD8 SHL SWAP2 POP JUMP JUMPDEST PUSH1 0x0 DUP3 PUSH3 0x2F6B JUMPI POP PUSH1 0x0 PUSH3 0x1E88 JUMP JUMPDEST DUP3 DUP3 MUL DUP3 DUP5 DUP3 DUP2 PUSH3 0x2F79 JUMPI INVALID JUMPDEST DIV EQ PUSH3 0x241A JUMPI PUSH1 0x40 MLOAD PUSH3 0x461BCD PUSH1 0xE5 SHL DUP2 MSTORE PUSH1 0x4 ADD DUP1 DUP1 PUSH1 0x20 ADD DUP3 DUP2 SUB DUP3 MSTORE PUSH1 0x21 DUP2 MSTORE PUSH1 0x20 ADD DUP1 PUSH3 0x5130 PUSH1 0x21 SWAP2 CODECOPY PUSH1 0x40 ADD SWAP2 POP POP PUSH1 0x40 MLOAD DUP1 SWAP2 SUB SWAP1 REVERT JUMPDEST PUSH1 0x0 PUSH3 0x2FEC DUP3 PUSH3 0x2FE5 PUSH4 0x1DA9C00 DUP2 DUP9 PUSH3 0x2FDE DUP10 PUSH8 0xDE0B6B3A7640000 PUSH3 0x2F5A JUMP JUMPDEST SWAP1 PUSH3 0x2F5A JUMP JUMPDEST SWAP1 PUSH3 0x304F JUMP JUMPDEST SWAP5 SWAP4 POP POP POP POP JUMP JUMPDEST PUSH1 0x0 DUP3 DUP3 ADD DUP4 DUP2 LT ISZERO PUSH3 0x241A JUMPI PUSH1 0x40 DUP1 MLOAD PUSH3 0x461BCD PUSH1 0xE5 SHL DUP2 MSTORE PUSH1 0x20 PUSH1 0x4 DUP3 ADD MSTORE PUSH1 0x1B PUSH1 0x24 DUP3 ADD MSTORE PUSH32 0x536166654D6174683A206164646974696F6E206F766572666C6F770000000000 PUSH1 0x44 DUP3 ADD MSTORE SWAP1 MLOAD SWAP1 DUP2 SWAP1 SUB PUSH1 0x64 ADD SWAP1 REVERT JUMPDEST PUSH1 0x0 DUP1 DUP3 GT PUSH3 0x30A6 JUMPI PUSH1 0x40 DUP1 MLOAD PUSH3 0x461BCD PUSH1 0xE5 SHL DUP2 MSTORE PUSH1 0x20 PUSH1 0x4 DUP3 ADD MSTORE PUSH1 0x1A PUSH1 0x24 DUP3 ADD MSTORE PUSH32 0x536166654D6174683A206469766973696F6E206279207A65726F000000000000 PUSH1 0x44 DUP3 ADD MSTORE SWAP1 MLOAD SWAP1 DUP2 SWAP1 SUB PUSH1 0x64 ADD SWAP1 REVERT JUMPDEST DUP2 DUP4 DUP2 PUSH3 0x30B0 JUMPI INVALID JUMPDEST DIV SWAP4 SWAP3 POP POP POP JUMP JUMPDEST PUSH2 0xF74 DUP1 PUSH3 0x418D DUP4 CODECOPY ADD SWAP1 JUMP JUMPDEST PUSH1 0x40 DUP1 MLOAD PUSH1 0xA0 DUP2 ADD DUP3 MSTORE PUSH1 0x0 DUP1 DUP3 MSTORE PUSH1 0x20 DUP3 ADD DUP2 SWAP1 MSTORE SWAP2 DUP2 ADD DUP3 SWAP1 MSTORE SWAP1 PUSH1 0x60 DUP3 ADD SWAP1 DUP2 MSTORE PUSH1 0x20 ADD PUSH1 0x0 DUP2 MSTORE POP SWAP1 JUMP JUMPDEST PUSH1 0x40 MLOAD DUP1 PUSH1 0x20 ADD PUSH1 0x40 MSTORE DUP1 PUSH1 0x1 SWAP1 PUSH1 0x20 DUP3 MUL DUP1 CALLDATASIZE DUP4 CALLDATACOPY POP SWAP2 SWAP3 SWAP2 POP POP JUMP JUMPDEST PUSH1 0x0 DUP1 DUP4 PUSH1 0x1F DUP5 ADD SLT PUSH3 0x3125 JUMPI DUP1 DUP2 REVERT JUMPDEST POP DUP2 CALLDATALOAD PUSH8 0xFFFFFFFFFFFFFFFF DUP2 GT ISZERO PUSH3 0x313D JUMPI DUP2 DUP3 REVERT JUMPDEST PUSH1 0x20 DUP4 ADD SWAP2 POP DUP4 PUSH1 0x20 DUP1 DUP4 MUL DUP6 ADD ADD GT ISZERO PUSH3 0x3158 JUMPI PUSH1 0x0 DUP1 REVERT JUMPDEST SWAP3 POP SWAP3 SWAP1 POP JUMP JUMPDEST DUP1 CALLDATALOAD DUP1 ISZERO ISZERO DUP2 EQ PUSH3 0x10FF JUMPI PUSH1 0x0 DUP1 REVERT JUMPDEST DUP1 CALLDATALOAD PUSH1 0x6 DUP2 LT PUSH3 0x10FF JUMPI PUSH1 0x0 DUP1 REVERT JUMPDEST PUSH1 0x0 DUP1 DUP4 PUSH1 0x1F DUP5 ADD SLT PUSH3 0x3192 JUMPI DUP2 DUP3 REVERT JUMPDEST POP DUP2 CALLDATALOAD PUSH8 0xFFFFFFFFFFFFFFFF DUP2 GT ISZERO PUSH3 0x31AA JUMPI DUP2 DUP3 REVERT JUMPDEST PUSH1 0x20 DUP4 ADD SWAP2 POP DUP4 PUSH1 0x20 DUP3 DUP6 ADD ADD GT ISZERO PUSH3 0x3158 JUMPI PUSH1 0x0 DUP1 REVERT JUMPDEST PUSH1 0x0 PUSH2 0x160 DUP3 DUP5 SUB SLT ISZERO PUSH3 0x31D6 JUMPI DUP1 DUP2 REVERT JUMPDEST POP SWAP2 SWAP1 POP JUMP JUMPDEST PUSH1 0x0 PUSH1 0xA0 DUP3 DUP5 SUB SLT ISZERO PUSH3 0x31D6 JUMPI DUP1 DUP2 REVERT JUMPDEST DUP1 CALLDATALOAD PUSH2 0xFFFF DUP2 AND DUP2 EQ PUSH3 0x10FF JUMPI PUSH1 0x0 DUP1 REVERT JUMPDEST DUP1 CALLDATALOAD PUSH4 0xFFFFFFFF DUP2 AND DUP2 EQ PUSH3 0x10FF JUMPI PUSH1 0x0 DUP1 REVERT JUMPDEST DUP1 CALLDATALOAD PUSH1 0x1 PUSH1 0x1 PUSH1 0x48 SHL SUB DUP2 AND DUP2 EQ PUSH3 0x10FF JUMPI PUSH1 0x0 DUP1 REVERT JUMPDEST PUSH1 0x0 PUSH1 0x20 DUP3 DUP5 SUB SLT ISZERO PUSH3 0x3240 JUMPI DUP1 DUP2 REVERT JUMPDEST DUP2 CALLDATALOAD PUSH3 0x241A DUP2 PUSH3 0x4166 JUMP JUMPDEST PUSH1 0x0 PUSH1 0x20 DUP3 DUP5 SUB SLT ISZERO PUSH3 0x325F JUMPI DUP1 DUP2 REVERT JUMPDEST DUP2 MLOAD PUSH3 0x241A DUP2 PUSH3 0x4166 JUMP JUMPDEST PUSH1 0x0 DUP1 PUSH1 0x40 DUP4 DUP6 SUB SLT ISZERO PUSH3 0x327F JUMPI DUP1 DUP2 REVERT JUMPDEST DUP3 CALLDATALOAD PUSH3 0x328C DUP2 PUSH3 0x4166 JUMP JUMPDEST SWAP2 POP PUSH1 0x20 DUP4 ADD CALLDATALOAD PUSH3 0x329E DUP2 PUSH3 0x4166 JUMP JUMPDEST DUP1 SWAP2 POP POP SWAP3 POP SWAP3 SWAP1 POP JUMP JUMPDEST PUSH1 0x0 DUP1 PUSH1 0x40 DUP4 DUP6 SUB SLT ISZERO PUSH3 0x32BC JUMPI DUP2 DUP3 REVERT JUMPDEST DUP3 CALLDATALOAD PUSH3 0x32C9 DUP2 PUSH3 0x4166 JUMP JUMPDEST SWAP2 POP PUSH3 0x32D9 PUSH1 0x20 DUP5 ADD PUSH3 0x315F JUMP JUMPDEST SWAP1 POP SWAP3 POP SWAP3 SWAP1 POP JUMP JUMPDEST PUSH1 0x0 DUP1 PUSH1 0x40 DUP4 DUP6 SUB SLT ISZERO PUSH3 0x32F5 JUMPI DUP2 DUP3 REVERT JUMPDEST DUP3 CALLDATALOAD PUSH3 0x3302 DUP2 PUSH3 0x4166 JUMP JUMPDEST SWAP2 POP PUSH1 0x20 DUP4 DUP2 ADD CALLDATALOAD PUSH8 0xFFFFFFFFFFFFFFFF DUP1 DUP3 GT ISZERO PUSH3 0x3320 JUMPI DUP4 DUP5 REVERT JUMPDEST DUP2 DUP7 ADD SWAP2 POP DUP7 PUSH1 0x1F DUP4 ADD SLT PUSH3 0x3334 JUMPI DUP4 DUP5 REVERT JUMPDEST DUP2 CALLDATALOAD DUP2 DUP2 GT ISZERO PUSH3 0x3341 JUMPI INVALID JUMPDEST PUSH3 0x3355 PUSH1 0x1F DUP3 ADD PUSH1 0x1F NOT AND DUP6 ADD PUSH3 0x4141 JUMP JUMPDEST SWAP2 POP DUP1 DUP3 MSTORE DUP8 DUP5 DUP3 DUP6 ADD ADD GT ISZERO PUSH3 0x336B JUMPI DUP5 DUP6 REVERT JUMPDEST DUP1 DUP5 DUP5 ADD DUP6 DUP5 ADD CALLDATACOPY DUP2 ADD SWAP1 SWAP3 ADD SWAP3 SWAP1 SWAP3 MSTORE SWAP2 SWAP5 SWAP2 SWAP4 POP SWAP1 SWAP2 POP POP JUMP JUMPDEST PUSH1 0x0 PUSH1 0x20 DUP3 DUP5 SUB SLT ISZERO PUSH3 0x3399 JUMPI DUP1 DUP2 REVERT JUMPDEST PUSH3 0x241A DUP3 PUSH3 0x3170 JUMP JUMPDEST PUSH1 0x0 DUP1 PUSH1 0x0 DUP1 PUSH1 0x0 DUP1 PUSH1 0x0 PUSH2 0x1E0 DUP9 DUP11 SUB SLT ISZERO PUSH3 0x33C0 JUMPI DUP3 DUP4 REVERT JUMPDEST PUSH3 0x33CC DUP10 DUP10 PUSH3 0x31DC JUMP JUMPDEST SWAP7 POP PUSH3 0x33DD DUP10 PUSH1 0xA0 DUP11 ADD PUSH3 0x31DC JUMP JUMPDEST SWAP6 POP PUSH2 0x140 DUP9 ADD CALLDATALOAD PUSH3 0x33F0 DUP2 PUSH3 0x4166 JUMP JUMPDEST SWAP5 POP PUSH3 0x3401 PUSH2 0x160 DUP10 ADD PUSH3 0x315F JUMP JUMPDEST SWAP4 POP PUSH2 0x180 DUP9 ADD CALLDATALOAD PUSH3 0x3414 DUP2 PUSH3 0x417C JUMP JUMPDEST SWAP3 POP PUSH2 0x1A0 DUP9 ADD CALLDATALOAD PUSH3 0x3427 DUP2 PUSH3 0x417C JUMP JUMPDEST SWAP2 POP PUSH2 0x1C0 DUP9 ADD CALLDATALOAD PUSH3 0x343A DUP2 PUSH3 0x417C JUMP JUMPDEST DUP1 SWAP2 POP POP SWAP3 SWAP6 SWAP9 SWAP2 SWAP5 SWAP8 POP SWAP3 SWAP6 POP JUMP JUMPDEST PUSH1 0x0 PUSH1 0xA0 DUP3 DUP5 SUB SLT ISZERO PUSH3 0x345C JUMPI DUP1 DUP2 REVERT JUMPDEST PUSH1 0x40 MLOAD PUSH1 0xA0 DUP2 ADD DUP2 DUP2 LT PUSH8 0xFFFFFFFFFFFFFFFF DUP3 GT OR ISZERO PUSH3 0x347A JUMPI INVALID JUMPDEST PUSH1 0x40 MSTORE DUP3 CALLDATALOAD PUSH3 0x348A DUP2 PUSH3 0x4166 JUMP JUMPDEST DUP2 MSTORE PUSH3 0x349A PUSH1 0x20 DUP5 ADD PUSH3 0x315F JUMP JUMPDEST PUSH1 0x20 DUP3 ADD MSTORE PUSH3 0x34AD PUSH1 0x40 DUP5 ADD PUSH3 0x3170 JUMP JUMPDEST PUSH1 0x40 DUP3 ADD MSTORE PUSH1 0x60 DUP4 ADD CALLDATALOAD PUSH3 0x34C2 DUP2 PUSH3 0x417C JUMP JUMPDEST PUSH1 0x60 DUP3 ADD MSTORE PUSH3 0x34D5 PUSH1 0x80 DUP5 ADD PUSH3 0x3216 JUMP JUMPDEST PUSH1 0x80 DUP3 ADD MSTORE SWAP4 SWAP3 POP POP POP JUMP JUMPDEST PUSH1 0x0 DUP1 PUSH1 0x0 DUP1 PUSH1 0x0 PUSH1 0x60 DUP7 DUP9 SUB SLT ISZERO PUSH3 0x34F9 JUMPI DUP3 DUP4 REVERT JUMPDEST PUSH3 0x3504 DUP7 PUSH3 0x31EE JUMP JUMPDEST SWAP5 POP PUSH1 0x20 DUP7 ADD CALLDATALOAD PUSH8 0xFFFFFFFFFFFFFFFF DUP1 DUP3 GT ISZERO PUSH3 0x3521 JUMPI DUP5 DUP6 REVERT JUMPDEST PUSH3 0x352F DUP10 DUP4 DUP11 ADD PUSH3 0x3113 JUMP JUMPDEST SWAP1 SWAP7 POP SWAP5 POP PUSH1 0x40 DUP9 ADD CALLDATALOAD SWAP2 POP DUP1 DUP3 GT ISZERO PUSH3 0x3548 JUMPI DUP3 DUP4 REVERT JUMPDEST POP PUSH3 0x3557 DUP9 DUP3 DUP10 ADD PUSH3 0x3113 JUMP JUMPDEST SWAP7 SWAP10 SWAP6 SWAP9 POP SWAP4 SWAP7 POP SWAP3 SWAP5 SWAP4 SWAP3 POP POP POP JUMP JUMPDEST PUSH1 0x0 DUP1 PUSH1 0x0 DUP1 PUSH1 0x0 DUP1 PUSH1 0xC0 DUP8 DUP10 SUB SLT ISZERO PUSH3 0x3581 JUMPI DUP4 DUP5 REVERT JUMPDEST PUSH3 0x358C DUP8 PUSH3 0x31EE JUMP JUMPDEST SWAP6 POP PUSH1 0x20 DUP8 ADD CALLDATALOAD PUSH3 0x359E DUP2 PUSH3 0x4166 JUMP JUMPDEST SWAP5 POP PUSH3 0x35AE PUSH1 0x40 DUP9 ADD PUSH3 0x315F JUMP JUMPDEST SWAP4 POP PUSH1 0x60 DUP8 ADD CALLDATALOAD PUSH3 0x35C0 DUP2 PUSH3 0x417C JUMP JUMPDEST SWAP3 POP PUSH1 0x80 DUP8 ADD CALLDATALOAD PUSH3 0x35D2 DUP2 PUSH3 0x417C JUMP JUMPDEST SWAP2 POP PUSH1 0xA0 DUP8 ADD CALLDATALOAD PUSH3 0x35E4 DUP2 PUSH3 0x417C JUMP JUMPDEST DUP1 SWAP2 POP POP SWAP3 SWAP6 POP SWAP3 SWAP6 POP SWAP3 SWAP6 JUMP JUMPDEST PUSH1 0x0 DUP1 PUSH1 0x40 DUP4 DUP6 SUB SLT ISZERO PUSH3 0x3605 JUMPI DUP2 DUP3 REVERT JUMPDEST PUSH3 0x328C DUP4 PUSH3 0x31EE JUMP JUMPDEST PUSH1 0x0 DUP1 PUSH1 0x0 DUP1 PUSH1 0x0 DUP1 PUSH1 0x0 PUSH1 0xA0 DUP9 DUP11 SUB SLT ISZERO PUSH3 0x362B JUMPI DUP1 DUP2 REVERT JUMPDEST PUSH3 0x3636 DUP9 PUSH3 0x31EE JUMP JUMPDEST SWAP7 POP PUSH1 0x20 DUP9 ADD CALLDATALOAD PUSH3 0x3648 DUP2 PUSH3 0x4166 JUMP JUMPDEST SWAP6 POP PUSH1 0x40 DUP9 ADD CALLDATALOAD PUSH8 0xFFFFFFFFFFFFFFFF DUP1 DUP3 GT ISZERO PUSH3 0x3665 JUMPI DUP3 DUP4 REVERT JUMPDEST PUSH3 0x3673 DUP12 DUP4 DUP13 ADD PUSH3 0x31C3 JUMP JUMPDEST SWAP7 POP PUSH1 0x60 DUP11 ADD CALLDATALOAD SWAP2 POP DUP1 DUP3 GT ISZERO PUSH3 0x3689 JUMPI DUP3 DUP4 REVERT JUMPDEST PUSH3 0x3697 DUP12 DUP4 DUP13 ADD PUSH3 0x3180 JUMP JUMPDEST SWAP1 SWAP7 POP SWAP5 POP PUSH1 0x80 DUP11 ADD CALLDATALOAD SWAP2 POP DUP1 DUP3 GT ISZERO PUSH3 0x36B0 JUMPI DUP3 DUP4 REVERT JUMPDEST POP PUSH3 0x36BF DUP11 DUP3 DUP12 ADD PUSH3 0x3180 JUMP JUMPDEST SWAP9 SWAP12 SWAP8 SWAP11 POP SWAP6 SWAP9 POP SWAP4 SWAP7 SWAP3 SWAP6 SWAP3 SWAP4 POP POP POP JUMP JUMPDEST PUSH1 0x0 DUP1 PUSH1 0x40 DUP4 DUP6 SUB SLT ISZERO PUSH3 0x36E5 JUMPI DUP2 DUP3 REVERT JUMPDEST PUSH3 0x36F0 DUP4 PUSH3 0x31EE JUMP JUMPDEST SWAP2 POP PUSH1 0x20 DUP4 ADD CALLDATALOAD PUSH8 0xFFFFFFFFFFFFFFFF DUP2 GT ISZERO PUSH3 0x370C JUMPI DUP2 DUP3 REVERT JUMPDEST PUSH3 0x371A DUP6 DUP3 DUP7 ADD PUSH3 0x31C3 JUMP JUMPDEST SWAP2 POP POP SWAP3 POP SWAP3 SWAP1 POP JUMP JUMPDEST PUSH1 0x0 DUP1 PUSH1 0x40 DUP4 DUP6 SUB SLT ISZERO PUSH3 0x3737 JUMPI DUP2 DUP3 REVERT JUMPDEST PUSH3 0x3742 DUP4 PUSH3 0x31EE JUMP JUMPDEST SWAP2 POP PUSH3 0x32D9 PUSH1 0x20 DUP5 ADD PUSH3 0x3201 JUMP JUMPDEST PUSH1 0x0 DUP1 PUSH1 0x40 DUP4 DUP6 SUB SLT ISZERO PUSH3 0x3765 JUMPI DUP2 DUP3 REVERT JUMPDEST PUSH3 0x3770 DUP4 PUSH3 0x31EE JUMP JUMPDEST SWAP2 POP PUSH3 0x32D9 PUSH1 0x20 DUP5 ADD PUSH3 0x3216 JUMP JUMPDEST PUSH1 0x0 DUP1 PUSH1 0x0 DUP1 PUSH1 0x0 DUP1 PUSH1 0xC0 DUP8 DUP10 SUB SLT ISZERO PUSH3 0x3799 JUMPI DUP4 DUP5 REVERT JUMPDEST PUSH3 0x37A4 DUP8 PUSH3 0x31EE JUMP JUMPDEST SWAP6 POP PUSH1 0x20 DUP8 ADD CALLDATALOAD PUSH3 0x37B6 DUP2 PUSH3 0x417C JUMP JUMPDEST SWAP5 POP PUSH1 0x40 DUP8 ADD CALLDATALOAD PUSH3 0x35AE DUP2 PUSH3 0x417C JUMP JUMPDEST PUSH1 0x0 PUSH1 0x20 DUP3 DUP5 SUB SLT ISZERO PUSH3 0x37DA JUMPI DUP1 DUP2 REVERT JUMPDEST PUSH3 0x241A DUP3 PUSH3 0x3201 JUMP JUMPDEST PUSH1 0x0 PUSH1 0x20 DUP3 DUP5 SUB SLT ISZERO PUSH3 0x37F7 JUMPI DUP1 DUP2 REVERT JUMPDEST DUP2 CALLDATALOAD PUSH3 0x241A DUP2 PUSH3 0x417C JUMP JUMPDEST PUSH1 0x0 PUSH1 0x20 DUP3 DUP5 SUB SLT ISZERO PUSH3 0x3816 JUMPI DUP1 DUP2 REVERT JUMPDEST DUP2 MLOAD PUSH3 0x241A DUP2 PUSH3 0x417C JUMP JUMPDEST PUSH1 0x0 DUP3 DUP5 MSTORE DUP3 DUP3 PUSH1 0x20 DUP7 ADD CALLDATACOPY DUP1 PUSH1 0x20 DUP5 DUP7 ADD ADD MSTORE PUSH1 0x20 PUSH1 0x1F NOT PUSH1 0x1F DUP6 ADD AND DUP6 ADD ADD SWAP1 POP SWAP4 SWAP3 POP POP POP JUMP JUMPDEST PUSH1 0x1 PUSH1 0x1 PUSH1 0xA0 SHL SUB SWAP2 SWAP1 SWAP2 AND DUP2 MSTORE PUSH1 0x20 ADD SWAP1 JUMP JUMPDEST PUSH1 0x1 PUSH1 0x1 PUSH1 0xA0 SHL SUB SWAP3 SWAP1 SWAP3 AND DUP3 MSTORE ISZERO ISZERO PUSH1 0x20 DUP3 ADD MSTORE PUSH1 0x40 ADD SWAP1 JUMP JUMPDEST PUSH1 0x1 PUSH1 0x1 PUSH1 0xA0 SHL SUB SWAP3 SWAP1 SWAP3 AND DUP3 MSTORE PUSH1 0x20 DUP3 ADD MSTORE PUSH1 0x40 ADD SWAP1 JUMP JUMPDEST PUSH1 0x1 PUSH1 0x1 PUSH1 0xA0 SHL SUB DUP8 AND DUP2 MSTORE PUSH2 0xFFFF DUP7 AND PUSH1 0x20 DUP3 ADD MSTORE PUSH1 0x80 PUSH1 0x40 DUP3 ADD DUP2 SWAP1 MSTORE PUSH1 0x0 SWAP1 PUSH3 0x38C6 SWAP1 DUP4 ADD DUP7 DUP9 PUSH3 0x3823 JUMP JUMPDEST DUP3 DUP2 SUB PUSH1 0x60 DUP5 ADD MSTORE PUSH3 0x38DB DUP2 DUP6 DUP8 PUSH3 0x3823 JUMP JUMPDEST SWAP10 SWAP9 POP POP POP POP POP POP POP POP POP JUMP JUMPDEST PUSH1 0x20 DUP1 DUP3 MSTORE PUSH1 0x19 SWAP1 DUP3 ADD MSTORE PUSH32 0x50543A206C65766572616765207368617265206C656E67746800000000000000 PUSH1 0x40 DUP3 ADD MSTORE PUSH1 0x60 ADD SWAP1 JUMP JUMPDEST PUSH1 0x20 DUP1 DUP3 MSTORE PUSH1 0x16 SWAP1 DUP3 ADD MSTORE PUSH22 0xA0A87440E0E4DEE0DEE4E8D2DEDCE640D8CADCCEE8D PUSH1 0x53 SHL PUSH1 0x40 DUP3 ADD MSTORE PUSH1 0x60 ADD SWAP1 JUMP JUMPDEST PUSH1 0x20 DUP1 DUP3 MSTORE PUSH1 0x18 SWAP1 DUP3 ADD MSTORE PUSH32 0x473A206D61782063757272656E6379206F766572666C6F770000000000000000 PUSH1 0x40 DUP3 ADD MSTORE PUSH1 0x60 ADD SWAP1 JUMP JUMPDEST PUSH1 0x20 DUP1 DUP3 MSTORE PUSH1 0x13 SWAP1 DUP3 ADD MSTORE PUSH19 0x50543A2063757272656E637920657869737473 PUSH1 0x68 SHL PUSH1 0x40 DUP3 ADD MSTORE PUSH1 0x60 ADD SWAP1 JUMP JUMPDEST PUSH1 0x20 DUP1 DUP3 MSTORE PUSH1 0x15 SWAP1 DUP3 ADD MSTORE PUSH21 0x473A20696E76616C69642061737365742072617465 PUSH1 0x58 SHL PUSH1 0x40 DUP3 ADD MSTORE PUSH1 0x60 ADD SWAP1 JUMP JUMPDEST PUSH1 0x20 DUP1 DUP3 MSTORE PUSH1 0x13 SWAP1 DUP3 ADD MSTORE PUSH19 0x54483A2061646472657373206973207A65726F PUSH1 0x68 SHL PUSH1 0x40 DUP3 ADD MSTORE PUSH1 0x60 ADD SWAP1 JUMP JUMPDEST PUSH1 0x20 DUP1 DUP3 MSTORE PUSH1 0x18 SWAP1 DUP3 ADD MSTORE PUSH32 0x43473A20696E76616C6964206D61726B657420696E6465780000000000000000 PUSH1 0x40 DUP3 ADD MSTORE PUSH1 0x60 ADD SWAP1 JUMP JUMPDEST PUSH1 0x20 DUP1 DUP3 MSTORE PUSH1 0x17 SWAP1 DUP3 ADD MSTORE PUSH32 0x43473A20696E76616C69642072617465207363616C6172000000000000000000 PUSH1 0x40 DUP3 ADD MSTORE PUSH1 0x60 ADD SWAP1 JUMP JUMPDEST PUSH1 0x20 DUP1 DUP3 MSTORE PUSH1 0x10 SWAP1 DUP3 ADD MSTORE PUSH16 0x496E76616C69642063757272656E6379 PUSH1 0x80 SHL PUSH1 0x40 DUP3 ADD MSTORE PUSH1 0x60 ADD SWAP1 JUMP JUMPDEST PUSH1 0x20 DUP1 DUP3 MSTORE PUSH1 0x1B SWAP1 DUP3 ADD MSTORE PUSH32 0x5265776172646572206D757374206265206120636F6E74726163740000000000 PUSH1 0x40 DUP3 ADD MSTORE PUSH1 0x60 ADD SWAP1 JUMP JUMPDEST PUSH1 0x20 DUP1 DUP3 MSTORE PUSH1 0xF SWAP1 DUP3 ADD MSTORE PUSH15 0x125B9D985B1A59081A185A5C98DD5D PUSH1 0x8A SHL PUSH1 0x40 DUP3 ADD MSTORE PUSH1 0x60 ADD SWAP1 JUMP JUMPDEST PUSH1 0x20 DUP1 DUP3 MSTORE PUSH1 0x14 SWAP1 DUP3 ADD MSTORE PUSH20 0x4E543A20616E63686F722072617465207A65726F PUSH1 0x60 SHL PUSH1 0x40 DUP3 ADD MSTORE PUSH1 0x60 ADD SWAP1 JUMP JUMPDEST PUSH1 0x20 DUP1 DUP3 MSTORE PUSH1 0x12 SWAP1 DUP3 ADD MSTORE PUSH18 0x239D1034B73B30B634B21030B230B83A32B9 PUSH1 0x71 SHL PUSH1 0x40 DUP3 ADD MSTORE PUSH1 0x60 ADD SWAP1 JUMP JUMPDEST PUSH1 0x20 DUP1 DUP3 MSTORE PUSH1 0x15 SWAP1 DUP3 ADD MSTORE PUSH21 0x4F776E61626C653A207A65726F2061646472657373 PUSH1 0x58 SHL PUSH1 0x40 DUP3 ADD MSTORE PUSH1 0x60 ADD SWAP1 JUMP JUMPDEST PUSH1 0x20 DUP1 DUP3 MSTORE PUSH1 0x19 SWAP1 DUP3 ADD MSTORE PUSH32 0x43473A20696E76616C696420746F6B656E206861697263757400000000000000 PUSH1 0x40 DUP3 ADD MSTORE PUSH1 0x60 ADD SWAP1 JUMP JUMPDEST PUSH1 0x20 DUP1 DUP3 MSTORE PUSH1 0x11 SWAP1 DUP3 ADD MSTORE PUSH17 0x496E76616C696420646973636F756E7473 PUSH1 0x78 SHL PUSH1 0x40 DUP3 ADD MSTORE PUSH1 0x60 ADD SWAP1 JUMP JUMPDEST PUSH1 0x20 DUP1 DUP3 MSTORE PUSH1 0x14 SWAP1 DUP3 ADD MSTORE PUSH20 0x54483A20696E76616C696420646563696D616C73 PUSH1 0x60 SHL PUSH1 0x40 DUP3 ADD MSTORE PUSH1 0x60 ADD SWAP1 JUMP JUMPDEST PUSH1 0x20 DUP1 DUP3 MSTORE PUSH1 0x1A SWAP1 DUP3 ADD MSTORE PUSH32 0x473A206475706C696361746520746F6B656E206C697374696E67000000000000 PUSH1 0x40 DUP3 ADD MSTORE PUSH1 0x60 ADD SWAP1 JUMP JUMPDEST PUSH1 0x20 DUP1 DUP3 MSTORE PUSH1 0x19 SWAP1 DUP3 ADD MSTORE PUSH32 0x54483A20746F6B656E2063616E6E6F7420626520726573657400000000000000 PUSH1 0x40 DUP3 ADD MSTORE PUSH1 0x60 ADD SWAP1 JUMP JUMPDEST PUSH1 0x20 DUP1 DUP3 MSTORE PUSH1 0x1B SWAP1 DUP3 ADD MSTORE PUSH32 0x4F70657261746F72206D757374206265206120636F6E74726163740000000000 PUSH1 0x40 DUP3 ADD MSTORE PUSH1 0x60 ADD SWAP1 JUMP JUMPDEST PUSH1 0x20 DUP1 DUP3 MSTORE PUSH1 0x1E SWAP1 DUP3 ADD MSTORE PUSH32 0x473A20627566666572206D7573742062652067746520646563696D616C730000 PUSH1 0x40 DUP3 ADD MSTORE PUSH1 0x60 ADD SWAP1 JUMP JUMPDEST PUSH1 0x20 DUP1 DUP3 MSTORE PUSH1 0x22 SWAP1 DUP3 ADD MSTORE PUSH32 0x50543A20616E6E75616C697A656420616E63686F72207261746573206C656E67 PUSH1 0x40 DUP3 ADD MSTORE PUSH2 0xE8D PUSH1 0xF3 SHL PUSH1 0x60 DUP3 ADD MSTORE PUSH1 0x80 ADD SWAP1 JUMP JUMPDEST PUSH1 0x20 DUP1 DUP3 MSTORE PUSH1 0x16 SWAP1 DUP3 ADD MSTORE PUSH22 0x14150E881B195D995C9859D9481D1A1C995CDA1BDB19 PUSH1 0x52 SHL PUSH1 0x40 DUP3 ADD MSTORE PUSH1 0x60 ADD SWAP1 JUMP JUMPDEST PUSH1 0x20 DUP1 DUP3 MSTORE DUP2 DUP2 ADD MSTORE PUSH32 0x4F776E61626C653A2063616C6C6572206973206E6F7420746865206F776E6572 PUSH1 0x40 DUP3 ADD MSTORE PUSH1 0x60 ADD SWAP1 JUMP JUMPDEST PUSH1 0x20 DUP1 DUP3 MSTORE PUSH1 0x1F SWAP1 DUP3 ADD MSTORE PUSH32 0x473A20646973636F756E74206D75737420626520677420646563696D616C7300 PUSH1 0x40 DUP3 ADD MSTORE PUSH1 0x60 ADD SWAP1 JUMP JUMPDEST PUSH1 0x20 DUP1 DUP3 MSTORE PUSH1 0x14 SWAP1 DUP3 ADD MSTORE PUSH20 0x556E617574686F72697A65642075706772616465 PUSH1 0x60 SHL PUSH1 0x40 DUP3 ADD MSTORE PUSH1 0x60 ADD SWAP1 JUMP JUMPDEST PUSH1 0x20 DUP1 DUP3 MSTORE PUSH1 0x1E SWAP1 DUP3 ADD MSTORE PUSH32 0x473A20627566666572206D757374206265206C746520646563696D616C730000 PUSH1 0x40 DUP3 ADD MSTORE PUSH1 0x60 ADD SWAP1 JUMP JUMPDEST PUSH1 0x20 DUP1 DUP3 MSTORE DUP2 DUP2 ADD MSTORE PUSH32 0x4F776E61626C653A2063616C6C657220213D2070656E64696E67206F776E6572 PUSH1 0x40 DUP3 ADD MSTORE PUSH1 0x60 ADD SWAP1 JUMP JUMPDEST PUSH1 0x20 DUP1 DUP3 MSTORE PUSH1 0x1B SWAP1 DUP3 ADD MSTORE PUSH32 0x473A207A65726F2072617465206F7261636C6520616464726573730000000000 PUSH1 0x40 DUP3 ADD MSTORE PUSH1 0x60 ADD SWAP1 JUMP JUMPDEST PUSH1 0x20 DUP1 DUP3 MSTORE PUSH1 0x16 SWAP1 DUP3 ADD MSTORE PUSH22 0x50543A206465706F736974207368617265732073756D PUSH1 0x50 SHL PUSH1 0x40 DUP3 ADD MSTORE PUSH1 0x60 ADD SWAP1 JUMP JUMPDEST PUSH1 0x20 DUP1 DUP3 MSTORE PUSH1 0xC SWAP1 DUP3 ADD MSTORE PUSH12 0x496E76616C69642072617465 PUSH1 0xA0 SHL PUSH1 0x40 DUP3 ADD MSTORE PUSH1 0x60 ADD SWAP1 JUMP JUMPDEST PUSH1 0x20 DUP1 DUP3 MSTORE PUSH1 0x13 SWAP1 DUP3 ADD MSTORE PUSH19 0x125B9D985B1A590818DD5C9C995B98DE481A59 PUSH1 0x6A SHL PUSH1 0x40 DUP3 ADD MSTORE PUSH1 0x60 ADD SWAP1 JUMP JUMPDEST PUSH1 0x20 DUP1 DUP3 MSTORE PUSH1 0x18 SWAP1 DUP3 ADD MSTORE PUSH32 0x50543A206465706F736974207368617265206C656E6774680000000000000000 PUSH1 0x40 DUP3 ADD MSTORE PUSH1 0x60 ADD SWAP1 JUMP JUMPDEST PUSH1 0x20 DUP1 DUP3 MSTORE DUP2 DUP2 ADD MSTORE PUSH32 0x43473A206D61726B657420696E6465782063616E6E6F74206465637265617365 PUSH1 0x40 DUP3 ADD MSTORE PUSH1 0x60 ADD SWAP1 JUMP JUMPDEST PUSH1 0x20 DUP1 DUP3 MSTORE PUSH1 0x18 SWAP1 DUP3 ADD MSTORE PUSH32 0x50543A20746F6B656E2061646472657373206578697374730000000000000000 PUSH1 0x40 DUP3 ADD MSTORE PUSH1 0x60 ADD SWAP1 JUMP JUMPDEST PUSH1 0x20 DUP1 DUP3 MSTORE PUSH1 0x16 SWAP1 DUP3 ADD MSTORE PUSH22 0x282A1D1034B73B30B634B210383937B837B93A34B7B7 PUSH1 0x51 SHL PUSH1 0x40 DUP3 ADD MSTORE PUSH1 0x60 ADD SWAP1 JUMP JUMPDEST PUSH1 0x20 DUP1 DUP3 MSTORE PUSH1 0x19 SWAP1 DUP3 ADD MSTORE PUSH32 0x43473A20696E76616C6964207265736572766520736861726500000000000000 PUSH1 0x40 DUP3 ADD MSTORE PUSH1 0x60 ADD SWAP1 JUMP JUMPDEST PUSH1 0x20 DUP1 DUP3 MSTORE PUSH1 0x12 SWAP1 DUP3 ADD MSTORE PUSH18 0x125B9D985B1A59081C1D881A185A5C98DD5D PUSH1 0x72 SHL PUSH1 0x40 DUP3 ADD MSTORE PUSH1 0x60 ADD SWAP1 JUMP JUMPDEST PUSH1 0x20 DUP1 DUP3 MSTORE PUSH1 0x16 SWAP1 DUP3 ADD MSTORE PUSH22 0x473A20696E76616C69642072617465206F7261636C65 PUSH1 0x50 SHL PUSH1 0x40 DUP3 ADD MSTORE PUSH1 0x60 ADD SWAP1 JUMP JUMPDEST PUSH2 0xFFFF SWAP2 SWAP1 SWAP2 AND DUP2 MSTORE PUSH1 0x20 ADD SWAP1 JUMP JUMPDEST PUSH2 0xFFFF SWAP3 SWAP1 SWAP3 AND DUP3 MSTORE PUSH1 0x1 PUSH1 0x1 PUSH1 0xA0 SHL SUB AND PUSH1 0x20 DUP3 ADD MSTORE PUSH1 0x40 ADD SWAP1 JUMP JUMPDEST PUSH2 0xFFFF SWAP3 SWAP1 SWAP3 AND DUP3 MSTORE PUSH4 0xFFFFFFFF AND PUSH1 0x20 DUP3 ADD MSTORE PUSH1 0x40 ADD SWAP1 JUMP JUMPDEST PUSH2 0xFFFF SWAP3 SWAP1 SWAP3 AND DUP3 MSTORE PUSH1 0x1 PUSH1 0x1 PUSH1 0x48 SHL SUB AND PUSH1 0x20 DUP3 ADD MSTORE PUSH1 0x40 ADD SWAP1 JUMP JUMPDEST PUSH1 0x0 DUP1 DUP4 CALLDATALOAD PUSH1 0x1E NOT DUP5 CALLDATASIZE SUB ADD DUP2 SLT PUSH3 0x410E JUMPI DUP3 DUP4 REVERT JUMPDEST DUP4 ADD DUP1 CALLDATALOAD SWAP2 POP PUSH8 0xFFFFFFFFFFFFFFFF DUP3 GT ISZERO PUSH3 0x4129 JUMPI DUP3 DUP4 REVERT JUMPDEST PUSH1 0x20 SWAP1 DUP2 ADD SWAP3 POP DUP2 MUL CALLDATASIZE SUB DUP3 SGT ISZERO PUSH3 0x3158 JUMPI PUSH1 0x0 DUP1 REVERT JUMPDEST PUSH1 0x40 MLOAD DUP2 DUP2 ADD PUSH8 0xFFFFFFFFFFFFFFFF DUP2 GT DUP3 DUP3 LT OR ISZERO PUSH3 0x415E JUMPI INVALID JUMPDEST PUSH1 0x40 MSTORE SWAP2 SWAP1 POP JUMP JUMPDEST PUSH1 0x1 PUSH1 0x1 PUSH1 0xA0 SHL SUB DUP2 AND DUP2 EQ PUSH3 0x6C1 JUMPI PUSH1 0x0 DUP1 REVERT JUMPDEST PUSH1 0xFF DUP2 AND DUP2 EQ PUSH3 0x6C1 JUMPI PUSH1 0x0 DUP1 REVERT INVALID PUSH1 0xC0 PUSH1 0x40 MSTORE CALLVALUE DUP1 ISZERO PUSH3 0x11 JUMPI PUSH1 0x0 DUP1 REVERT JUMPDEST POP PUSH1 0x40 MLOAD PUSH3 0xF74 CODESIZE SUB DUP1 PUSH3 0xF74 DUP4 CODECOPY DUP2 ADD PUSH1 0x40 DUP2 SWAP1 MSTORE PUSH3 0x34 SWAP2 PUSH3 0x1FB JUMP JUMPDEST PUSH1 0x1 PUSH1 0x1 PUSH1 0x60 SHL SUB NOT PUSH1 0x60 DUP6 SWAP1 SHL AND PUSH1 0x80 MSTORE PUSH1 0x1 PUSH1 0x1 PUSH1 0xF0 SHL SUB NOT PUSH1 0xF0 DUP5 SWAP1 SHL AND PUSH1 0xA0 MSTORE PUSH1 0x40 MLOAD PUSH3 0x6B SWAP1 DUP4 SWAP1 PUSH1 0x20 ADD PUSH3 0x2C7 JUMP JUMPDEST PUSH1 0x40 MLOAD PUSH1 0x20 DUP2 DUP4 SUB SUB DUP2 MSTORE SWAP1 PUSH1 0x40 MSTORE PUSH1 0x0 SWAP1 DUP1 MLOAD SWAP1 PUSH1 0x20 ADD SWAP1 PUSH3 0x91 SWAP3 SWAP2 SWAP1 PUSH3 0xD6 JUMP JUMPDEST POP DUP1 PUSH1 0x40 MLOAD PUSH1 0x20 ADD PUSH3 0xA5 SWAP2 SWAP1 PUSH3 0x29C JUMP JUMPDEST PUSH1 0x40 MLOAD PUSH1 0x20 DUP2 DUP4 SUB SUB DUP2 MSTORE SWAP1 PUSH1 0x40 MSTORE PUSH1 0x1 SWAP1 DUP1 MLOAD SWAP1 PUSH1 0x20 ADD SWAP1 PUSH3 0xCB SWAP3 SWAP2 SWAP1 PUSH3 0xD6 JUMP JUMPDEST POP POP POP POP POP PUSH3 0x32B JUMP JUMPDEST DUP3 DUP1 SLOAD PUSH1 0x1 DUP2 PUSH1 0x1 AND ISZERO PUSH2 0x100 MUL SUB AND PUSH1 0x2 SWAP1 DIV SWAP1 PUSH1 0x0 MSTORE PUSH1 0x20 PUSH1 0x0 KECCAK256 SWAP1 PUSH1 0x1F ADD PUSH1 0x20 SWAP1 DIV DUP2 ADD SWAP3 DUP3 PUSH3 0x10E JUMPI PUSH1 0x0 DUP6 SSTORE PUSH3 0x159 JUMP JUMPDEST DUP3 PUSH1 0x1F LT PUSH3 0x129 JUMPI DUP1 MLOAD PUSH1 0xFF NOT AND DUP4 DUP1 ADD OR DUP6 SSTORE PUSH3 0x159 JUMP JUMPDEST DUP3 DUP1 ADD PUSH1 0x1 ADD DUP6 SSTORE DUP3 ISZERO PUSH3 0x159 JUMPI SWAP2 DUP3 ADD JUMPDEST DUP3 DUP2 GT ISZERO PUSH3 0x159 JUMPI DUP3 MLOAD DUP3 SSTORE SWAP2 PUSH1 0x20 ADD SWAP2 SWAP1 PUSH1 0x1 ADD SWAP1 PUSH3 0x13C JUMP JUMPDEST POP PUSH3 0x167 SWAP3 SWAP2 POP PUSH3 0x16B JUMP JUMPDEST POP SWAP1 JUMP JUMPDEST JUMPDEST DUP1 DUP3 GT ISZERO PUSH3 0x167 JUMPI PUSH1 0x0 DUP2 SSTORE PUSH1 0x1 ADD PUSH3 0x16C JUMP JUMPDEST PUSH1 0x0 DUP3 PUSH1 0x1F DUP4 ADD SLT PUSH3 0x193 JUMPI DUP1 DUP2 REVERT JUMPDEST DUP2 MLOAD PUSH1 0x1 PUSH1 0x1 PUSH1 0x40 SHL SUB DUP1 DUP3 GT ISZERO PUSH3 0x1A8 JUMPI INVALID JUMPDEST PUSH1 0x40 MLOAD PUSH1 0x1F DUP4 ADD PUSH1 0x1F NOT AND DUP2 ADD PUSH1 0x20 ADD DUP3 DUP2 GT DUP3 DUP3 LT OR ISZERO PUSH3 0x1C7 JUMPI INVALID JUMPDEST PUSH1 0x40 MSTORE DUP3 DUP2 MSTORE DUP5 DUP4 ADD PUSH1 0x20 ADD DUP7 LT ISZERO PUSH3 0x1DF JUMPI DUP4 DUP5 REVERT JUMPDEST PUSH3 0x1F2 DUP4 PUSH1 0x20 DUP4 ADD PUSH1 0x20 DUP9 ADD PUSH3 0x2F8 JUMP JUMPDEST SWAP6 SWAP5 POP POP POP POP POP JUMP JUMPDEST PUSH1 0x0 DUP1 PUSH1 0x0 DUP1 PUSH1 0x80 DUP6 DUP8 SUB SLT ISZERO PUSH3 0x211 JUMPI DUP4 DUP5 REVERT JUMPDEST DUP5 MLOAD PUSH1 0x1 PUSH1 0x1 PUSH1 0xA0 SHL SUB DUP2 AND DUP2 EQ PUSH3 0x228 JUMPI DUP5 DUP6 REVERT JUMPDEST PUSH1 0x20 DUP7 ADD MLOAD SWAP1 SWAP5 POP PUSH2 0xFFFF DUP2 AND DUP2 EQ PUSH3 0x240 JUMPI DUP4 DUP5 REVERT JUMPDEST PUSH1 0x40 DUP7 ADD MLOAD SWAP1 SWAP4 POP PUSH1 0x1 PUSH1 0x1 PUSH1 0x40 SHL SUB DUP1 DUP3 GT ISZERO PUSH3 0x25D JUMPI DUP4 DUP5 REVERT JUMPDEST PUSH3 0x26B DUP9 DUP4 DUP10 ADD PUSH3 0x182 JUMP JUMPDEST SWAP4 POP PUSH1 0x60 DUP8 ADD MLOAD SWAP2 POP DUP1 DUP3 GT ISZERO PUSH3 0x281 JUMPI DUP3 DUP4 REVERT JUMPDEST POP PUSH3 0x290 DUP8 DUP3 DUP9 ADD PUSH3 0x182 JUMP JUMPDEST SWAP2 POP POP SWAP3 SWAP6 SWAP2 SWAP5 POP SWAP3 POP JUMP JUMPDEST PUSH1 0x0 PUSH1 0x37 PUSH1 0xF9 SHL DUP3 MSTORE DUP3 MLOAD PUSH3 0x2BA DUP2 PUSH1 0x1 DUP6 ADD PUSH1 0x20 DUP8 ADD PUSH3 0x2F8 JUMP JUMPDEST SWAP2 SWAP1 SWAP2 ADD PUSH1 0x1 ADD SWAP3 SWAP2 POP POP JUMP JUMPDEST PUSH1 0x0 PUSH7 0x372A37B5B2B71 PUSH1 0xCD SHL DUP3 MSTORE DUP3 MLOAD PUSH3 0x2EB DUP2 PUSH1 0x7 DUP6 ADD PUSH1 0x20 DUP8 ADD PUSH3 0x2F8 JUMP JUMPDEST SWAP2 SWAP1 SWAP2 ADD PUSH1 0x7 ADD SWAP3 SWAP2 POP POP JUMP JUMPDEST PUSH1 0x0 JUMPDEST DUP4 DUP2 LT ISZERO PUSH3 0x315 JUMPI DUP2 DUP2 ADD MLOAD DUP4 DUP3 ADD MSTORE PUSH1 0x20 ADD PUSH3 0x2FB JUMP JUMPDEST DUP4 DUP2 GT ISZERO PUSH3 0x325 JUMPI PUSH1 0x0 DUP5 DUP5 ADD MSTORE JUMPDEST POP POP POP POP JUMP JUMPDEST PUSH1 0x80 MLOAD PUSH1 0x60 SHR PUSH1 0xA0 MLOAD PUSH1 0xF0 SHR PUSH2 0xBD4 PUSH3 0x3A0 PUSH1 0x0 CODECOPY DUP1 PUSH2 0x28C MSTORE DUP1 PUSH2 0x420 MSTORE DUP1 PUSH2 0x476 MSTORE DUP1 PUSH2 0x5B3 MSTORE DUP1 PUSH2 0x67C MSTORE DUP1 PUSH2 0x6EB MSTORE DUP1 PUSH2 0x7A1 MSTORE DUP1 PUSH2 0x8C6 MSTORE POP DUP1 PUSH2 0x25D MSTORE DUP1 PUSH2 0x394 MSTORE DUP1 PUSH2 0x447 MSTORE DUP1 PUSH2 0x586 MSTORE DUP1 PUSH2 0x64F MSTORE DUP1 PUSH2 0x6BE MSTORE DUP1 PUSH2 0x772 MSTORE DUP1 PUSH2 0x899 MSTORE DUP1 PUSH2 0x944 MSTORE POP PUSH2 0xBD4 PUSH1 0x0 RETURN INVALID PUSH1 0x80 PUSH1 0x40 MSTORE CALLVALUE DUP1 ISZERO PUSH2 0x10 JUMPI PUSH1 0x0 DUP1 REVERT JUMPDEST POP PUSH1 0x4 CALLDATASIZE LT PUSH2 0xCF JUMPI PUSH1 0x0 CALLDATALOAD PUSH1 0xE0 SHR DUP1 PUSH4 0x70A08231 GT PUSH2 0x8C JUMPI DUP1 PUSH4 0x95D89B41 GT PUSH2 0x66 JUMPI DUP1 PUSH4 0x95D89B41 EQ PUSH2 0x187 JUMPI DUP1 PUSH4 0xA9059CBB EQ PUSH2 0x18F JUMPI DUP1 PUSH4 0xDD62ED3E EQ PUSH2 0x1A2 JUMPI DUP1 PUSH4 0xEC556889 EQ PUSH2 0x1B5 JUMPI PUSH2 0xCF JUMP JUMPDEST DUP1 PUSH4 0x70A08231 EQ PUSH2 0x164 JUMPI DUP1 PUSH4 0x90AB60A7 EQ PUSH2 0x177 JUMPI DUP1 PUSH4 0x91CF16A8 EQ PUSH2 0x17F JUMPI PUSH2 0xCF JUMP JUMPDEST DUP1 PUSH4 0x6FDDE03 EQ PUSH2 0xD4 JUMPI DUP1 PUSH4 0x95EA7B3 EQ PUSH2 0xF2 JUMPI DUP1 PUSH4 0x18160DDD EQ PUSH2 0x112 JUMPI DUP1 PUSH4 0x1FEEECE2 EQ PUSH2 0x127 JUMPI DUP1 PUSH4 0x23B872DD EQ PUSH2 0x13C JUMPI DUP1 PUSH4 0x313CE567 EQ PUSH2 0x14F JUMPI JUMPDEST PUSH1 0x0 DUP1 REVERT JUMPDEST PUSH2 0xDC PUSH2 0x1CA JUMP JUMPDEST PUSH1 0x40 MLOAD PUSH2 0xE9 SWAP2 SWAP1 PUSH2 0xA8D JUMP JUMPDEST PUSH1 0x40 MLOAD DUP1 SWAP2 SUB SWAP1 RETURN JUMPDEST PUSH2 0x105 PUSH2 0x100 CALLDATASIZE PUSH1 0x4 PUSH2 0xA04 JUMP JUMPDEST PUSH2 0x258 JUMP JUMPDEST PUSH1 0x40 MLOAD PUSH2 0xE9 SWAP2 SWAP1 PUSH2 0xA79 JUMP JUMPDEST PUSH2 0x11A PUSH2 0x37A JUMP JUMPDEST PUSH1 0x40 MLOAD PUSH2 0xE9 SWAP2 SWAP1 PUSH2 0xA84 JUMP JUMPDEST PUSH2 0x12F PUSH2 0x41E JUMP JUMPDEST PUSH1 0x40 MLOAD PUSH2 0xE9 SWAP2 SWAP1 PUSH2 0xAE0 JUMP JUMPDEST PUSH2 0x105 PUSH2 0x14A CALLDATASIZE PUSH1 0x4 PUSH2 0x9C9 JUMP JUMPDEST PUSH2 0x442 JUMP JUMPDEST PUSH2 0x157 PUSH2 0x567 JUMP JUMPDEST PUSH1 0x40 MLOAD PUSH2 0xE9 SWAP2 SWAP1 PUSH2 0xB90 JUMP JUMPDEST PUSH2 0x11A PUSH2 0x172 CALLDATASIZE PUSH1 0x4 PUSH2 0x97D JUMP JUMPDEST PUSH2 0x56C JUMP JUMPDEST PUSH2 0x11A PUSH2 0x635 JUMP JUMPDEST PUSH2 0x11A PUSH2 0x6A4 JUMP JUMPDEST PUSH2 0xDC PUSH2 0x713 JUMP JUMPDEST PUSH2 0x105 PUSH2 0x19D CALLDATASIZE PUSH1 0x4 PUSH2 0xA04 JUMP JUMPDEST PUSH2 0x76D JUMP JUMPDEST PUSH2 0x11A PUSH2 0x1B0 CALLDATASIZE PUSH1 0x4 PUSH2 0x997 JUMP JUMPDEST PUSH2 0x87F JUMP JUMPDEST PUSH2 0x1BD PUSH2 0x942 JUMP JUMPDEST PUSH1 0x40 MLOAD PUSH2 0xE9 SWAP2 SWAP1 PUSH2 0xA65 JUMP JUMPDEST PUSH1 0x0 DUP1 SLOAD PUSH1 0x40 DUP1 MLOAD PUSH1 0x20 PUSH1 0x2 PUSH1 0x1 DUP6 AND ISZERO PUSH2 0x100 MUL PUSH1 0x0 NOT ADD SWAP1 SWAP5 AND SWAP4 SWAP1 SWAP4 DIV PUSH1 0x1F DUP2 ADD DUP5 SWAP1 DIV DUP5 MUL DUP3 ADD DUP5 ADD SWAP1 SWAP3 MSTORE DUP2 DUP2 MSTORE SWAP3 SWAP2 DUP4 ADD DUP3 DUP3 DUP1 ISZERO PUSH2 0x250 JUMPI DUP1 PUSH1 0x1F LT PUSH2 0x225 JUMPI PUSH2 0x100 DUP1 DUP4 SLOAD DIV MUL DUP4 MSTORE SWAP2 PUSH1 0x20 ADD SWAP2 PUSH2 0x250 JUMP JUMPDEST DUP3 ADD SWAP2 SWAP1 PUSH1 0x0 MSTORE PUSH1 0x20 PUSH1 0x0 KECCAK256 SWAP1 JUMPDEST DUP2 SLOAD DUP2 MSTORE SWAP1 PUSH1 0x1 ADD SWAP1 PUSH1 0x20 ADD DUP1 DUP4 GT PUSH2 0x233 JUMPI DUP3 SWAP1 SUB PUSH1 0x1F AND DUP3 ADD SWAP2 JUMPDEST POP POP POP POP POP DUP2 JUMP JUMPDEST PUSH1 0x0 DUP1 PUSH32 0x0 PUSH1 0x1 PUSH1 0x1 PUSH1 0xA0 SHL SUB AND PUSH4 0x309C00A6 PUSH32 0x0 CALLER DUP8 DUP8 PUSH1 0x40 MLOAD DUP6 PUSH4 0xFFFFFFFF AND PUSH1 0xE0 SHL DUP2 MSTORE PUSH1 0x4 ADD PUSH2 0x2CD SWAP5 SWAP4 SWAP3 SWAP2 SWAP1 PUSH2 0xB40 JUMP JUMPDEST PUSH1 0x20 PUSH1 0x40 MLOAD DUP1 DUP4 SUB DUP2 PUSH1 0x0 DUP8 DUP1 EXTCODESIZE ISZERO DUP1 ISZERO PUSH2 0x2E7 JUMPI PUSH1 0x0 DUP1 REVERT JUMPDEST POP GAS CALL ISZERO DUP1 ISZERO PUSH2 0x2FB JUMPI RETURNDATASIZE PUSH1 0x0 DUP1 RETURNDATACOPY RETURNDATASIZE PUSH1 0x0 REVERT JUMPDEST POP POP POP POP PUSH1 0x40 MLOAD RETURNDATASIZE PUSH1 0x1F NOT PUSH1 0x1F DUP3 ADD AND DUP3 ADD DUP1 PUSH1 0x40 MSTORE POP DUP2 ADD SWAP1 PUSH2 0x31F SWAP2 SWAP1 PUSH2 0xA2D JUMP JUMPDEST SWAP1 POP DUP1 ISZERO PUSH2 0x373 JUMPI DUP4 PUSH1 0x1 PUSH1 0x1 PUSH1 0xA0 SHL SUB AND CALLER PUSH1 0x1 PUSH1 0x1 PUSH1 0xA0 SHL SUB AND PUSH32 0x8C5BE1E5EBEC7D5BD14F71427D1E84F3DD0314C0F7B2291E5B200AC8C7C3B925 DUP6 PUSH1 0x40 MLOAD PUSH2 0x36A SWAP2 SWAP1 PUSH2 0xA84 JUMP JUMPDEST PUSH1 0x40 MLOAD DUP1 SWAP2 SUB SWAP1 LOG3 JUMPDEST SWAP4 SWAP3 POP POP POP JUMP JUMPDEST PUSH1 0x40 MLOAD PUSH4 0x6A96E86F PUSH1 0xE0 SHL DUP2 MSTORE PUSH1 0x0 SWAP1 PUSH1 0x1 PUSH1 0x1 PUSH1 0xA0 SHL SUB PUSH32 0x0 AND SWAP1 PUSH4 0x6A96E86F SWAP1 PUSH2 0x3C9 SWAP1 ADDRESS SWAP1 PUSH1 0x4 ADD PUSH2 0xA65 JUMP JUMPDEST PUSH1 0x20 PUSH1 0x40 MLOAD DUP1 DUP4 SUB DUP2 DUP7 DUP1 EXTCODESIZE ISZERO DUP1 ISZERO PUSH2 0x3E1 JUMPI PUSH1 0x0 DUP1 REVERT JUMPDEST POP GAS STATICCALL ISZERO DUP1 ISZERO PUSH2 0x3F5 JUMPI RETURNDATASIZE PUSH1 0x0 DUP1 RETURNDATACOPY RETURNDATASIZE PUSH1 0x0 REVERT JUMPDEST POP POP POP POP PUSH1 0x40 MLOAD RETURNDATASIZE PUSH1 0x1F NOT PUSH1 0x1F DUP3 ADD AND DUP3 ADD DUP1 PUSH1 0x40 MSTORE POP DUP2 ADD SWAP1 PUSH2 0x419 SWAP2 SWAP1 PUSH2 0xA4D JUMP JUMPDEST SWAP1 POP SWAP1 JUMP JUMPDEST PUSH32 0x0 DUP2 JUMP JUMPDEST PUSH1 0x0 DUP1 PUSH32 0x0 PUSH1 0x1 PUSH1 0x1 PUSH1 0xA0 SHL SUB AND PUSH4 0x884A7092 PUSH32 0x0 CALLER DUP9 DUP9 DUP9 PUSH1 0x40 MLOAD DUP7 PUSH4 0xFFFFFFFF AND PUSH1 0xE0 SHL DUP2 MSTORE PUSH1 0x4 ADD PUSH2 0x4B9 SWAP6 SWAP5 SWAP4 SWAP3 SWAP2 SWAP1 PUSH2 0xB0C JUMP JUMPDEST PUSH1 0x20 PUSH1 0x40 MLOAD DUP1 DUP4 SUB DUP2 PUSH1 0x0 DUP8 DUP1 EXTCODESIZE ISZERO DUP1 ISZERO PUSH2 0x4D3 JUMPI PUSH1 0x0 DUP1 REVERT JUMPDEST POP GAS CALL ISZERO DUP1 ISZERO PUSH2 0x4E7 JUMPI RETURNDATASIZE PUSH1 0x0 DUP1 RETURNDATACOPY RETURNDATASIZE PUSH1 0x0 REVERT JUMPDEST POP POP POP POP PUSH1 0x40 MLOAD RETURNDATASIZE PUSH1 0x1F NOT PUSH1 0x1F DUP3 ADD AND DUP3 ADD DUP1 PUSH1 0x40 MSTORE POP DUP2 ADD SWAP1 PUSH2 0x50B SWAP2 SWAP1 PUSH2 0xA2D JUMP JUMPDEST SWAP1 POP DUP1 ISZERO PUSH2 0x55F JUMPI DUP4 PUSH1 0x1 PUSH1 0x1 PUSH1 0xA0 SHL SUB AND DUP6 PUSH1 0x1 PUSH1 0x1 PUSH1 0xA0 SHL SUB AND PUSH32 0xDDF252AD1BE2C89B69C2B068FC378DAA952BA7F163C4A11628F55A4DF523B3EF DUP6 PUSH1 0x40 MLOAD PUSH2 0x556 SWAP2 SWAP1 PUSH2 0xA84 JUMP JUMPDEST PUSH1 0x40 MLOAD DUP1 SWAP2 SUB SWAP1 LOG3 JUMPDEST SWAP5 SWAP4 POP POP POP POP JUMP JUMPDEST PUSH1 0x8 DUP2 JUMP JUMPDEST PUSH1 0x40 MLOAD PUSH4 0xA78DBFFF PUSH1 0xE0 SHL DUP2 MSTORE PUSH1 0x0 SWAP1 PUSH1 0x1 PUSH1 0x1 PUSH1 0xA0 SHL SUB PUSH32 0x0 AND SWAP1 PUSH4 0xA78DBFFF SWAP1 PUSH2 0x5DD SWAP1 PUSH32 0x0 SWAP1 DUP7 SWAP1 PUSH1 0x4 ADD PUSH2 0xAEF JUMP JUMPDEST PUSH1 0x20 PUSH1 0x40 MLOAD DUP1 DUP4 SUB DUP2 DUP7 DUP1 EXTCODESIZE ISZERO DUP1 ISZERO PUSH2 0x5F5 JUMPI PUSH1 0x0 DUP1 REVERT JUMPDEST POP GAS STATICCALL ISZERO DUP1 ISZERO PUSH2 0x609 JUMPI RETURNDATASIZE PUSH1 0x0 DUP1 RETURNDATACOPY RETURNDATASIZE PUSH1 0x0 REVERT JUMPDEST POP POP POP POP PUSH1 0x40 MLOAD RETURNDATASIZE PUSH1 0x1F NOT PUSH1 0x1F DUP3 ADD AND DUP3 ADD DUP1 PUSH1 0x40 MSTORE POP DUP2 ADD SWAP1 PUSH2 0x62D SWAP2 SWAP1 PUSH2 0xA4D JUMP JUMPDEST SWAP1 POP JUMPDEST SWAP2 SWAP1 POP JUMP JUMPDEST PUSH1 0x40 MLOAD PUSH4 0x1A05BCE1 PUSH1 0xE0 SHL DUP2 MSTORE PUSH1 0x0 SWAP1 PUSH1 0x1 PUSH1 0x1 PUSH1 0xA0 SHL SUB PUSH32 0x0 AND SWAP1 PUSH4 0x1A05BCE1 SWAP1 PUSH2 0x3C9 SWAP1 PUSH32 0x0 SWAP1 PUSH1 0x4 ADD PUSH2 0xAE0 JUMP JUMPDEST PUSH1 0x40 MLOAD PUSH4 0x3B2987B3 PUSH1 0xE0 SHL DUP2 MSTORE PUSH1 0x0 SWAP1 PUSH1 0x1 PUSH1 0x1 PUSH1 0xA0 SHL SUB PUSH32 0x0 AND SWAP1 PUSH4 0x3B2987B3 SWAP1 PUSH2 0x3C9 SWAP1 PUSH32 0x0 SWAP1 PUSH1 0x4 ADD PUSH2 0xAE0 JUMP JUMPDEST PUSH1 0x1 DUP1 SLOAD PUSH1 0x40 DUP1 MLOAD PUSH1 0x20 PUSH1 0x2 DUP5 DUP7 AND ISZERO PUSH2 0x100 MUL PUSH1 0x0 NOT ADD SWAP1 SWAP5 AND SWAP4 SWAP1 SWAP4 DIV PUSH1 0x1F DUP2 ADD DUP5 SWAP1 DIV DUP5 MUL DUP3 ADD DUP5 ADD SWAP1 SWAP3 MSTORE DUP2 DUP2 MSTORE SWAP3 SWAP2 DUP4 ADD DUP3 DUP3 DUP1 ISZERO PUSH2 0x250 JUMPI DUP1 PUSH1 0x1F LT PUSH2 0x225 JUMPI PUSH2 0x100 DUP1 DUP4 SLOAD DIV MUL DUP4 MSTORE SWAP2 PUSH1 0x20 ADD SWAP2 PUSH2 0x250 JUMP JUMPDEST PUSH1 0x0 DUP1 PUSH32 0x0 PUSH1 0x1 PUSH1 0x1 PUSH1 0xA0 SHL SUB AND PUSH4 0x18AE40D7 PUSH32 0x0 CALLER DUP8 DUP8 PUSH1 0x40 MLOAD DUP6 PUSH4 0xFFFFFFFF AND PUSH1 0xE0 SHL DUP2 MSTORE PUSH1 0x4 ADD PUSH2 0x7E2 SWAP5 SWAP4 SWAP3 SWAP2 SWAP1 PUSH2 0xB40 JUMP JUMPDEST PUSH1 0x20 PUSH1 0x40 MLOAD DUP1 DUP4 SUB DUP2 PUSH1 0x0 DUP8 DUP1 EXTCODESIZE ISZERO DUP1 ISZERO PUSH2 0x7FC JUMPI PUSH1 0x0 DUP1 REVERT JUMPDEST POP GAS CALL ISZERO DUP1 ISZERO PUSH2 0x810 JUMPI RETURNDATASIZE PUSH1 0x0 DUP1 RETURNDATACOPY RETURNDATASIZE PUSH1 0x0 REVERT JUMPDEST POP POP POP POP PUSH1 0x40 MLOAD RETURNDATASIZE PUSH1 0x1F NOT PUSH1 0x1F DUP3 ADD AND DUP3 ADD DUP1 PUSH1 0x40 MSTORE POP DUP2 ADD SWAP1 PUSH2 0x834 SWAP2 SWAP1 PUSH2 0xA2D JUMP JUMPDEST SWAP1 POP DUP1 ISZERO PUSH2 0x373 JUMPI DUP4 PUSH1 0x1 PUSH1 0x1 PUSH1 0xA0 SHL SUB AND CALLER PUSH1 0x1 PUSH1 0x1 PUSH1 0xA0 SHL SUB AND PUSH32 0xDDF252AD1BE2C89B69C2B068FC378DAA952BA7F163C4A11628F55A4DF523B3EF DUP6 PUSH1 0x40 MLOAD PUSH2 0x36A SWAP2 SWAP1 PUSH2 0xA84 JUMP JUMPDEST PUSH1 0x40 MLOAD PUSH4 0x7DB31AB9 PUSH1 0xE0 SHL DUP2 MSTORE PUSH1 0x0 SWAP1 PUSH1 0x1 PUSH1 0x1 PUSH1 0xA0 SHL SUB PUSH32 0x0 AND SWAP1 PUSH4 0x7DB31AB9 SWAP1 PUSH2 0x8F2 SWAP1 PUSH32 0x0 SWAP1 DUP8 SWAP1 DUP8 SWAP1 PUSH1 0x4 ADD PUSH2 0xB6B JUMP JUMPDEST PUSH1 0x20 PUSH1 0x40 MLOAD DUP1 DUP4 SUB DUP2 DUP7 DUP1 EXTCODESIZE ISZERO DUP1 ISZERO PUSH2 0x90A JUMPI PUSH1 0x0 DUP1 REVERT JUMPDEST POP GAS STATICCALL ISZERO DUP1 ISZERO PUSH2 0x91E JUMPI RETURNDATASIZE PUSH1 0x0 DUP1 RETURNDATACOPY RETURNDATASIZE PUSH1 0x0 REVERT JUMPDEST POP POP POP POP PUSH1 0x40 MLOAD RETURNDATASIZE PUSH1 0x1F NOT PUSH1 0x1F DUP3 ADD AND DUP3 ADD DUP1 PUSH1 0x40 MSTORE POP DUP2 ADD SWAP1 PUSH2 0x373 SWAP2 SWAP1 PUSH2 0xA4D JUMP JUMPDEST PUSH32 0x0 DUP2 JUMP JUMPDEST DUP1 CALLDATALOAD PUSH1 0x1 PUSH1 0x1 PUSH1 0xA0 SHL SUB DUP2 AND DUP2 EQ PUSH2 0x630 JUMPI PUSH1 0x0 DUP1 REVERT JUMPDEST PUSH1 0x0 PUSH1 0x20 DUP3 DUP5 SUB SLT ISZERO PUSH2 0x98E JUMPI DUP1 DUP2 REVERT JUMPDEST PUSH2 0x373 DUP3 PUSH2 0x966 JUMP JUMPDEST PUSH1 0x0 DUP1 PUSH1 0x40 DUP4 DUP6 SUB SLT ISZERO PUSH2 0x9A9 JUMPI DUP1 DUP2 REVERT JUMPDEST PUSH2 0x9B2 DUP4 PUSH2 0x966 JUMP JUMPDEST SWAP2 POP PUSH2 0x9C0 PUSH1 0x20 DUP5 ADD PUSH2 0x966 JUMP JUMPDEST SWAP1 POP SWAP3 POP SWAP3 SWAP1 POP JUMP JUMPDEST PUSH1 0x0 DUP1 PUSH1 0x0 PUSH1 0x60 DUP5 DUP7 SUB SLT ISZERO PUSH2 0x9DD JUMPI DUP1 DUP2 REVERT JUMPDEST PUSH2 0x9E6 DUP5 PUSH2 0x966 JUMP JUMPDEST SWAP3 POP PUSH2 0x9F4 PUSH1 0x20 DUP6 ADD PUSH2 0x966 JUMP JUMPDEST SWAP2 POP PUSH1 0x40 DUP5 ADD CALLDATALOAD SWAP1 POP SWAP3 POP SWAP3 POP SWAP3 JUMP JUMPDEST PUSH1 0x0 DUP1 PUSH1 0x40 DUP4 DUP6 SUB SLT ISZERO PUSH2 0xA16 JUMPI DUP2 DUP3 REVERT JUMPDEST PUSH2 0xA1F DUP4 PUSH2 0x966 JUMP JUMPDEST SWAP5 PUSH1 0x20 SWAP4 SWAP1 SWAP4 ADD CALLDATALOAD SWAP4 POP POP POP JUMP JUMPDEST PUSH1 0x0 PUSH1 0x20 DUP3 DUP5 SUB SLT ISZERO PUSH2 0xA3E JUMPI DUP1 DUP2 REVERT JUMPDEST DUP2 MLOAD DUP1 ISZERO ISZERO DUP2 EQ PUSH2 0x373 JUMPI DUP2 DUP3 REVERT JUMPDEST PUSH1 0x0 PUSH1 0x20 DUP3 DUP5 SUB SLT ISZERO PUSH2 0xA5E JUMPI DUP1 DUP2 REVERT JUMPDEST POP MLOAD SWAP2 SWAP1 POP JUMP JUMPDEST PUSH1 0x1 PUSH1 0x1 PUSH1 0xA0 SHL SUB SWAP2 SWAP1 SWAP2 AND DUP2 MSTORE PUSH1 0x20 ADD SWAP1 JUMP JUMPDEST SWAP1 ISZERO ISZERO DUP2 MSTORE PUSH1 0x20 ADD SWAP1 JUMP JUMPDEST SWAP1 DUP2 MSTORE PUSH1 0x20 ADD SWAP1 JUMP JUMPDEST PUSH1 0x0 PUSH1 0x20 DUP1 DUP4 MSTORE DUP4 MLOAD DUP1 DUP3 DUP6 ADD MSTORE DUP3 JUMPDEST DUP2 DUP2 LT ISZERO PUSH2 0xAB9 JUMPI DUP6 DUP2 ADD DUP4 ADD MLOAD DUP6 DUP3 ADD PUSH1 0x40 ADD MSTORE DUP3 ADD PUSH2 0xA9D JUMP JUMPDEST DUP2 DUP2 GT ISZERO PUSH2 0xACA JUMPI DUP4 PUSH1 0x40 DUP4 DUP8 ADD ADD MSTORE JUMPDEST POP PUSH1 0x1F ADD PUSH1 0x1F NOT AND SWAP3 SWAP1 SWAP3 ADD PUSH1 0x40 ADD SWAP4 SWAP3 POP POP POP JUMP JUMPDEST PUSH2 0xFFFF SWAP2 SWAP1 SWAP2 AND DUP2 MSTORE PUSH1 0x20 ADD SWAP1 JUMP JUMPDEST PUSH2 0xFFFF SWAP3 SWAP1 SWAP3 AND DUP3 MSTORE PUSH1 0x1 PUSH1 0x1 PUSH1 0xA0 SHL SUB AND PUSH1 0x20 DUP3 ADD MSTORE PUSH1 0x40 ADD SWAP1 JUMP JUMPDEST PUSH2 0xFFFF SWAP6 SWAP1 SWAP6 AND DUP6 MSTORE PUSH1 0x1 PUSH1 0x1 PUSH1 0xA0 SHL SUB SWAP4 DUP5 AND PUSH1 0x20 DUP7 ADD MSTORE SWAP2 DUP4 AND PUSH1 0x40 DUP6 ADD MSTORE SWAP1 SWAP2 AND PUSH1 0x60 DUP4 ADD MSTORE PUSH1 0x80 DUP3 ADD MSTORE PUSH1 0xA0 ADD SWAP1 JUMP JUMPDEST PUSH2 0xFFFF SWAP5 SWAP1 SWAP5 AND DUP5 MSTORE PUSH1 0x1 PUSH1 0x1 PUSH1 0xA0 SHL SUB SWAP3 DUP4 AND PUSH1 0x20 DUP6 ADD MSTORE SWAP2 AND PUSH1 0x40 DUP4 ADD MSTORE PUSH1 0x60 DUP3 ADD MSTORE PUSH1 0x80 ADD SWAP1 JUMP JUMPDEST PUSH2 0xFFFF SWAP4 SWAP1 SWAP4 AND DUP4 MSTORE PUSH1 0x1 PUSH1 0x1 PUSH1 0xA0 SHL SUB SWAP2 DUP3 AND PUSH1 0x20 DUP5 ADD MSTORE AND PUSH1 0x40 DUP3 ADD MSTORE PUSH1 0x60 ADD SWAP1 JUMP JUMPDEST PUSH1 0xFF SWAP2 SWAP1 SWAP2 AND DUP2 MSTORE PUSH1 0x20 ADD SWAP1 JUMP INVALID LOG2 PUSH5 0x6970667358 0x22 SLT KECCAK256 GASLIMIT 0x28 DUP7 0xD9 COINBASE 0x1F 0xD0 0xBC 0xDE CHAINID ISZERO 0xCE 0xB4 0xB6 0xD0 0xDE 0xE5 DUP14 0xD9 0xA7 0xA7 0xE2 0x4A PUSH11 0x5055A7E50CB44E8564736F PUSH13 0x63430007060033455243313936 CALLDATACOPY SSTORE PUSH17 0x67726164653A2075706772616465206272 PUSH6 0x616B73206675 PUSH19 0x74686572207570677261646573536166654D61 PUSH21 0x683A206D756C7469706C69636174696F6E206F7665 PUSH19 0x666C6F77455243313936373A206E657720696D PUSH17 0x6C656D656E746174696F6E206973206E6F PUSH21 0x206120636F6E7472616374416464726573733A206C PUSH16 0x772D6C6576656C2064656C6567617465 KECCAK256 PUSH4 0x616C6C20 PUSH7 0x61696C65644164 PUSH5 0x726573733A KECCAK256 PUSH5 0x656C656761 PUSH21 0x652063616C6C20746F206E6F6E2D636F6E74726163 PUSH21 0xA2646970667358221220E3491846D9335ABE0EEC5F DUP2 PUSH29 0x554B324EFAB4D5C1BDF5982E8C5D546489E22264736F6C634300070600 CALLER ","sha1":"cf4ed1c57eda0ad147e83f534a831298f0193e3c","source":"// SPDX-License-Identifier: GPL-3.0-only\npragma solidity ^0.7.0;\npragma abicoder v2;\n\nimport \"../../internal/valuation/ExchangeRate.sol\";\nimport \"../../internal/markets/CashGroup.sol\";\nimport \"../../internal/nToken/nTokenHandler.sol\";\nimport \"../../internal/nToken/nTokenSupply.sol\";\nimport \"../../internal/balances/TokenHandler.sol\";\nimport \"../../global/StorageLayoutV2.sol\";\nimport \"../../global/LibStorage.sol\";\nimport \"../../global/Types.sol\";\nimport \"../../proxy/utils/UUPSUpgradeable.sol\";\nimport \"../adapters/nTokenERC20Proxy.sol\";\nimport \"../../../interfaces/notional/IRewarder.sol\";\nimport \"../../../interfaces/notional/AssetRateAdapter.sol\";\nimport \"../../../interfaces/chainlink/AggregatorV2V3Interface.sol\";\nimport \"../../../interfaces/notional/NotionalGovernance.sol\";\nimport \"../../../interfaces/notional/nTokenERC20.sol\";\nimport \"@openzeppelin/contracts/utils/Address.sol\";\n\n/// @notice Governance methods can only be called by the governance contract\ncontract GovernanceAction is StorageLayoutV2, NotionalGovernance, UUPSUpgradeable {\n    /// @dev Throws if called by any account other than the owner.\n    modifier onlyOwner() {\n        require(owner == msg.sender, \"Ownable: caller is not the owner\");\n        _;\n    }\n\n    function _checkValidCurrency(uint16 currencyId) internal view {\n        require(0 < currencyId && currencyId <= maxCurrencyId, \"Invalid currency id\");\n    }\n\n    /// @notice Transfers ownership to `newOwner`. Either directly or claimable by the new pending owner.\n    /// Can only be invoked by the current `owner`.\n    /// @param newOwner Address of the new owner.\n    /// @param direct True if `newOwner` should be set immediately. False if `newOwner` needs to use `claimOwnership`.\n    function transferOwnership(\n        address newOwner,\n        bool direct\n    ) external override onlyOwner {\n        if (direct) {\n            // Checks\n            require(newOwner != address(0), \"Ownable: zero address\");\n\n            // Effects\n            emit OwnershipTransferred(owner, newOwner);\n            owner = newOwner;\n            pendingOwner = address(0);\n        } else {\n            // Effects\n            pendingOwner = newOwner;\n        }\n    }\n\n    /// @notice Needs to be called by `pendingOwner` to claim ownership.\n    function claimOwnership() external override {\n        address _pendingOwner = pendingOwner;\n\n        // Checks\n        require(msg.sender == _pendingOwner, \"Ownable: caller != pending owner\");\n\n        // Effects\n        emit OwnershipTransferred(owner, _pendingOwner);\n        owner = _pendingOwner;\n        pendingOwner = address(0);\n    }\n\n    /// @dev Only the owner may upgrade the contract, the pauseGuardian may downgrade the contract\n    /// to a predetermined router contract that provides read only access to the system.\n    function _authorizeUpgrade(address newImplementation) internal override {\n        require(\n            owner == msg.sender ||\n            (msg.sender == pauseGuardian && newImplementation == pauseRouter),\n            \"Unauthorized upgrade\"\n        );\n\n        // This is set temporarily during a downgrade to the pauseRouter so that the upgrade\n        // will pass _authorizeUpgrade on the pauseRouter during the UUPSUpgradeable rollback check\n        if (newImplementation == pauseRouter) rollbackRouterImplementation = _getImplementation();\n    }\n\n    /// @notice Sets a new pause router and guardian address.\n    function setPauseRouterAndGuardian(\n        address pauseRouter_,\n        address pauseGuardian_\n    ) external override onlyOwner {\n        pauseRouter = pauseRouter_;\n        pauseGuardian = pauseGuardian_;\n\n        emit PauseRouterAndGuardianUpdated(pauseRouter_, pauseGuardian_);\n    }\n\n    /// @notice Lists a new currency along with its exchange rate to ETH\n    /// @dev emit:ListCurrency emit:UpdateETHRate\n    /// @param assetToken the token parameters for the asset token\n    /// @param underlyingToken the underlying token (if asset token is an interest bearing wrapper)\n    /// @param rateOracle ETH to underlying rate oracle\n    /// @param mustInvert if the rate from the oracle needs to be inverted\n    /// @param buffer multiplier (>= 100) for negative balances when calculating free collateral\n    /// @param haircut multiplier (<= 100) for positive balances when calculating free collateral\n    /// @param liquidationDiscount multiplier (>= 100) for exchange rate when liquidating\n    /// @return the new currency id\n    function listCurrency(\n        TokenStorage calldata assetToken,\n        TokenStorage calldata underlyingToken,\n        AggregatorV2V3Interface rateOracle,\n        bool mustInvert,\n        uint8 buffer,\n        uint8 haircut,\n        uint8 liquidationDiscount\n    ) external override onlyOwner returns (uint16) {\n        uint16 currencyId = maxCurrencyId + 1;\n        // Set the new max currency id\n        maxCurrencyId = currencyId;\n        require(currencyId <= Constants.MAX_CURRENCIES, \"G: max currency overflow\");\n        // NOTE: this allows multiple asset tokens that have the same underlying. That is ok from a protocol\n        // perspective. For example, we may choose list cDAI, yDAI and aDAI as asset currencies and each can\n        // trade as different forms of fDAI.\n        require(\n            tokenAddressToCurrencyId[assetToken.tokenAddress] == 0,\n            \"G: duplicate token listing\"\n        );\n        tokenAddressToCurrencyId[assetToken.tokenAddress] = currencyId;\n\n        // Set the underlying first because the asset token may set an approval using the underlying\n        if (\n            underlyingToken.tokenAddress != address(0) ||\n            // Ether has a token address of zero\n            underlyingToken.tokenType == TokenType.Ether\n        ) {\n            // NOTE: set token will enforce the restriction that Ether can only be set once as the zero\n            // address. This sets the underlying token\n            TokenHandler.setToken(currencyId, true, underlyingToken);\n        }\n\n        // This sets the asset token\n        TokenHandler.setToken(currencyId, false, assetToken);\n\n        _updateETHRate(currencyId, rateOracle, mustInvert, buffer, haircut, liquidationDiscount);\n\n        emit ListCurrency(currencyId);\n\n        return currencyId;\n    }\n\n    /// @notice Sets a maximum balance on a given currency. Max collateral balance cannot be set on a\n    /// currency that is actively used in trading, this may cause issues with liquidation. Also, max\n    /// collateral balance is only set on asset tokens (not underlying tokens) because underlying tokens\n    /// are not held as contract balances.\n    /// @dev emit:UpdateMaxCollateralBalance\n    /// @param currencyId id of the currency to set the max collateral balance on\n    /// @param maxCollateralBalanceInternalPrecision amount of collateral balance that can be held\n    /// in this currency denominated in internal token precision\n    function updateMaxCollateralBalance(\n        uint16 currencyId,\n        uint72 maxCollateralBalanceInternalPrecision\n    ) external override onlyOwner {\n        _checkValidCurrency(currencyId);\n        // Cannot turn on max collateral balance for a currency that is trading\n        if (maxCollateralBalanceInternalPrecision > 0) require(CashGroup.getMaxMarketIndex(currencyId) == 0);\n        TokenHandler.setMaxCollateralBalance(currencyId, maxCollateralBalanceInternalPrecision);\n        emit UpdateMaxCollateralBalance(currencyId, maxCollateralBalanceInternalPrecision);\n    }\n\n    /// @notice Enables a cash group on a given currency so that it can have lend and borrow markets. Will\n    /// also deploy an nToken contract so that markets can be initialized.\n    /// @dev emit:UpdateCashGroup emit:UpdateAssetRate emit:DeployNToken\n    /// @param currencyId id of the currency to enable\n    /// @param assetRateOracle address of the rate oracle for converting interest bearing assets to\n    /// underlying values\n    /// @param cashGroup parameters for the cash group\n    /// @param underlyingName underlying token name for seeding nToken name\n    /// @param underlyingSymbol underlying token symbol for seeding nToken symbol (i.e. nDAI)\n    function enableCashGroup(\n        uint16 currencyId,\n        AssetRateAdapter assetRateOracle,\n        CashGroupSettings calldata cashGroup,\n        string calldata underlyingName,\n        string calldata underlyingSymbol\n    ) external override onlyOwner {\n        _checkValidCurrency(currencyId);\n        {\n            // Cannot enable fCash trading on a token with a max collateral balance\n            Token memory assetToken = TokenHandler.getAssetToken(currencyId);\n            Token memory underlyingToken = TokenHandler.getUnderlyingToken(currencyId);\n            require(\n                assetToken.maxCollateralBalance == 0 &&\n                underlyingToken.maxCollateralBalance == 0\n            ); // dev: cannot enable trading, collateral cap\n        }\n\n        _updateCashGroup(currencyId, cashGroup);\n        _updateAssetRate(currencyId, assetRateOracle);\n\n        // Creates the nToken erc20 proxy that routes back to the main contract\n        nTokenERC20Proxy proxy = new nTokenERC20Proxy(\n            nTokenERC20(address(this)),\n            currencyId,\n            underlyingName,\n            underlyingSymbol\n        );\n        nTokenHandler.setNTokenAddress(currencyId, address(proxy));\n        emit DeployNToken(currencyId, address(proxy));\n    }\n\n    /// @notice Updates the deposit parameters for an nToken\n    /// @dev emit:UpdateDepositParameters\n    /// @param currencyId the currency id that the nToken references\n    /// @param depositShares an array of values that represent the proportion of each deposit\n    /// that will go to a respective market, must add up to DEPOSIT_PERCENT_BASIS. For example,\n    /// 0.40e8, 0.40e8 and 0.20e8 will result in 40%, 40% and 20% deposited as liquidity into\n    /// the 3 month, 6 month and 1 year markets.\n    /// @param leverageThresholds an array of values denominated in RATE_PRECISION that mark the\n    /// highest proportion of fCash where the nToken will provide liquidity. Above this proportion,\n    /// the nToken will lend to the market instead to reduce the leverage in the market.\n    function updateDepositParameters(\n        uint16 currencyId,\n        uint32[] calldata depositShares,\n        uint32[] calldata leverageThresholds\n    ) external override onlyOwner {\n        _checkValidCurrency(currencyId);\n        nTokenHandler.setDepositParameters(currencyId, depositShares, leverageThresholds);\n        emit UpdateDepositParameters(currencyId);\n    }\n\n    /// @notice Updates the market initialization parameters for an nToken\n    /// @dev emit:UpdateInitializationParameters\n    /// @param currencyId the currency id that the nToken references\n    /// @param annualizedAnchorRates is a target interest rate that will be used to calculate a \n    /// rate anchor during initialize markets. This rate anchor will set the offset from the\n    /// x-axis where the liquidity curve will be initialized. This is used in combination with\n    /// previous market rates to determine the initial proportion where markets will be initialized\n    /// every quarter.\n    /// @param proportions used to combination with annualizedAnchorRate set the initial proportion when\n    /// a market is first initialized. This is required since there is no previous rate to reference.\n    function updateInitializationParameters(\n        uint16 currencyId,\n        uint32[] calldata annualizedAnchorRates,\n        uint32[] calldata proportions\n    ) external override onlyOwner {\n        _checkValidCurrency(currencyId);\n        nTokenHandler.setInitializationParameters(currencyId, annualizedAnchorRates, proportions);\n        emit UpdateInitializationParameters(currencyId);\n    }\n\n    /// @notice Updates the emission rate of incentives for a given currency\n    /// @dev emit:UpdateIncentiveEmissionRate\n    /// @param currencyId the currency id that the nToken references\n    /// @param newEmissionRate Target total incentives to emit for an nToken over an entire year\n    /// denominated in WHOLE TOKENS (i.e. setting this to 1 means 1e8 tokens). The rate will not be\n    /// exact due to multiplier effects and fluctuating token supply.\n    function updateIncentiveEmissionRate(uint16 currencyId, uint32 newEmissionRate)\n        external\n        override\n        onlyOwner\n    {\n        _checkValidCurrency(currencyId);\n        address nTokenAddress = nTokenHandler.nTokenAddress(currencyId);\n        require(nTokenAddress != address(0), \"Invalid currency\");\n        // Sanity check that emissions rate is not specified in 1e8 terms.\n        require(newEmissionRate < Constants.INTERNAL_TOKEN_PRECISION, \"Invalid rate\");\n\n        nTokenSupply.setIncentiveEmissionRate(nTokenAddress, newEmissionRate, block.timestamp);\n        emit UpdateIncentiveEmissionRate(currencyId, newEmissionRate);\n    }\n\n    /// @notice Updates collateralization parameters for an nToken\n    /// @dev emit:UpdateTokenCollateralParameters\n    /// @param currencyId the currency id that the nToken references\n    /// @param residualPurchaseIncentive10BPS nTokens will have residual amounts of fCash at the end of each\n    /// quarter that are \"dead weight\" because they are at idiosyncratic maturities and do not contribute to\n    /// actively providing liquidity. This parameter will incentivize market participants to purchase these residuals\n    /// at a discount from the on chain oracle rate, denominated in 10 basis point increments. These residuals will\n    /// be added back into nToken balances and will be used to provide liquidity upon the next market initialization.\n    /// @param pvHaircutPercentage a percentage (< 100) that the present value of the nToken's assets will be valued\n    /// at for the purposes of free collateral, relevant when accounts hold nTokens as collateral against debts.\n    /// @param residualPurchaseTimeBufferHours an arbitrage opportunity is available by pushing markets in one direction\n    /// before quarterly settlement to generate large residual balances that can be purchased at a discount. The time buffer\n    /// here ensures that anyone attempting such an act would have to wait some number of hours (likely a few days) before\n    /// they could attempt to purchase residuals, ensuring that the market could realign to rates where the arbitrage is\n    /// no longer possible.\n    /// @param cashWithholdingBuffer10BPS nToken residuals may be negative fCash (debt), in this case cash is withheld to\n    /// transfer to accounts that take on the debt. This parameter denominates the discounted rate at which the cash will\n    /// be withheld at for this purpose.\n    /// @param liquidationHaircutPercentage a percentage of nToken present value (> pvHaircutPercentage and <= 100) at which\n    /// liquidators will purchase nTokens during liquidation\n    function updateTokenCollateralParameters(\n        uint16 currencyId,\n        uint8 residualPurchaseIncentive10BPS,\n        uint8 pvHaircutPercentage,\n        uint8 residualPurchaseTimeBufferHours,\n        uint8 cashWithholdingBuffer10BPS,\n        uint8 liquidationHaircutPercentage\n    ) external override onlyOwner {\n        _checkValidCurrency(currencyId);\n        address nTokenAddress = nTokenHandler.nTokenAddress(currencyId);\n        require(nTokenAddress != address(0), \"Invalid currency\");\n\n        nTokenHandler.setNTokenCollateralParameters(\n            nTokenAddress,\n            residualPurchaseIncentive10BPS,\n            pvHaircutPercentage,\n            residualPurchaseTimeBufferHours,\n            cashWithholdingBuffer10BPS,\n            liquidationHaircutPercentage\n        );\n        emit UpdateTokenCollateralParameters(currencyId);\n    }\n\n    /// @notice Updates cash group parameters\n    /// @dev emit:UpdateCashGroup\n    /// @param currencyId id of the currency to enable\n    /// @param cashGroup new parameters for the cash group\n    function updateCashGroup(uint16 currencyId, CashGroupSettings calldata cashGroup)\n        external\n        override\n        onlyOwner\n    {\n        _checkValidCurrency(currencyId);\n        _updateCashGroup(currencyId, cashGroup);\n    }\n\n    /// @notice Updates asset rate oracle\n    /// @dev emit:UpdateAssetRate\n    /// @param currencyId id of the currency\n    /// @param rateOracle new rate oracle for the asset\n    function updateAssetRate(uint16 currencyId, AssetRateAdapter rateOracle) external override onlyOwner {\n        _checkValidCurrency(currencyId);\n        _updateAssetRate(currencyId, rateOracle);\n    }\n\n    /// @notice Updates ETH exchange rate or related parameters\n    /// @dev emit:UpdateETHRate\n    /// @param currencyId id of the currency\n    /// @param rateOracle new rate oracle for the asset\n    /// @param rateOracle ETH to underlying rate oracle\n    /// @param mustInvert if the rate from the oracle needs to be inverted\n    /// @param buffer multiplier (>= 100) for negative balances when calculating free collateral\n    /// @param haircut multiplier (<= 100) for positive balances when calculating free collateral\n    /// @param liquidationDiscount multiplier (>= 100) for exchange rate when liquidating\n    function updateETHRate(\n        uint16 currencyId,\n        AggregatorV2V3Interface rateOracle,\n        bool mustInvert,\n        uint8 buffer,\n        uint8 haircut,\n        uint8 liquidationDiscount\n    ) external override onlyOwner {\n        _checkValidCurrency(currencyId);\n        _updateETHRate(currencyId, rateOracle, mustInvert, buffer, haircut, liquidationDiscount);\n    }\n\n    /// @notice Sets a global transfer operator that can do authenticated ERC1155 transfers. This enables\n    /// OTC trading or other use cases such as layer 2 authenticated transfers.\n    /// @dev emit:UpdateGlobalTransferOperator\n    /// @param operator address of the operator\n    /// @param approved true if the operator is allowed to transfer globally\n    function updateGlobalTransferOperator(address operator, bool approved)\n        external\n        override\n        onlyOwner\n    {\n        // Sanity check to ensure that operator is a contract, not an EOA\n        require(Address.isContract(operator), \"Operator must be a contract\");\n\n        globalTransferOperator[operator] = approved;\n        emit UpdateGlobalTransferOperator(operator, approved);\n    }\n\n    /// @notice Approves contracts that can call `batchTradeActionWithCallback`. These contracts can\n    /// \"flash loan\" from Notional V2 and receive a callback before the free collateral check. Flash loans\n    /// via the Notional V2 liquidity pool are not very gas efficient so this is not generally available,\n    /// it can be used for migrating borrows into Notional V2 from other platforms.\n    /// @dev emit:UpdateAuthorizedCallbackContract\n    /// @param operator address of the contract\n    /// @param approved true if the contract is authorized\n    function updateAuthorizedCallbackContract(address operator, bool approved)\n        external\n        override\n        onlyOwner\n    {\n        // Sanity check to ensure that operator is a contract, not an EOA\n        require(Address.isContract(operator), \"Operator must be a contract\");\n        authorizedCallbackContract[operator] = approved;\n        emit UpdateAuthorizedCallbackContract(operator, approved);\n    }\n\n    /// @notice Sets a secondary incentive rewarder for a currency. This contract will\n    /// be called whenever an nToken balance changes and allows a secondary contract to\n    /// mint incentives to the account. This will override any previous rewarder, if set.\n    /// Will have no effect if there is no nToken corresponding to the currency id.\n    /// @dev emit:UpdateSecondaryIncentiveRewarder\n    /// @param currencyId currency id of the nToken\n    /// @param rewarder rewarder contract\n    function setSecondaryIncentiveRewarder(uint16 currencyId, IRewarder rewarder)\n        external\n        override\n        onlyOwner\n    {\n        _checkValidCurrency(currencyId);\n        require(Address.isContract(address(rewarder)), \"Rewarder must be a contract\");\n        nTokenHandler.setSecondaryRewarder(currencyId, rewarder);\n        emit UpdateSecondaryIncentiveRewarder(currencyId, address(rewarder));\n    }\n\n    function _updateCashGroup(uint16 currencyId, CashGroupSettings calldata cashGroup) internal {\n        CashGroup.setCashGroupStorage(currencyId, cashGroup);\n        emit UpdateCashGroup(currencyId);\n    }\n\n    function _updateAssetRate(uint16 currencyId, AssetRateAdapter rateOracle) internal {\n        // If rate oracle refers to address zero then do not apply any updates here, this means\n        // that a token is non mintable.\n        Token memory assetToken = TokenHandler.getAssetToken(currencyId);\n        if (address(rateOracle) == address(0)) {\n            // Sanity check that unset rate oracles are only for non mintable tokens\n            require(assetToken.tokenType == TokenType.NonMintable, \"G: invalid asset rate\");\n        } else {\n            // Sanity check that the rate oracle refers to the proper asset token\n            address token = AssetRateAdapter(rateOracle).token();\n            require(assetToken.tokenAddress == token, \"G: invalid rate oracle\");\n\n            uint8 underlyingDecimals;\n            if (currencyId == Constants.ETH_CURRENCY_ID) {\n                // If currencyId is one then this is referring to cETH and there is no underlying() to call\n                underlyingDecimals = Constants.ETH_DECIMAL_PLACES;\n            } else {\n                address underlyingTokenAddress = AssetRateAdapter(rateOracle).underlying();\n                Token memory underlyingToken = TokenHandler.getUnderlyingToken(currencyId);\n                // Sanity check to ensure that the asset rate adapter refers to the correct underlying\n                require(underlyingTokenAddress == underlyingToken.tokenAddress, \"G: invalid adapter\");\n                underlyingDecimals = ERC20(underlyingTokenAddress).decimals();\n            }\n\n            // Perform this check to ensure that decimal calculations don't overflow\n            require(underlyingDecimals <= Constants.MAX_DECIMAL_PLACES);\n            mapping(uint256 => AssetRateStorage) storage store = LibStorage.getAssetRateStorage();\n            store[currencyId] = AssetRateStorage({\n                rateOracle: rateOracle,\n                underlyingDecimalPlaces: underlyingDecimals\n            });\n\n            emit UpdateAssetRate(currencyId);\n        }\n    }\n\n    function _updateETHRate(\n        uint16 currencyId,\n        AggregatorV2V3Interface rateOracle,\n        bool mustInvert,\n        uint8 buffer,\n        uint8 haircut,\n        uint8 liquidationDiscount\n    ) internal {\n        uint8 rateDecimalPlaces;\n        if (currencyId == Constants.ETH_CURRENCY_ID) {\n            // ETH to ETH exchange rate is fixed at 1 and has no rate oracle\n            rateOracle = AggregatorV2V3Interface(address(0));\n            rateDecimalPlaces = Constants.ETH_DECIMAL_PLACES;\n        } else {\n            require(address(rateOracle) != address(0), \"G: zero rate oracle address\");\n            rateDecimalPlaces = rateOracle.decimals();\n        }\n        require(buffer >= Constants.PERCENTAGE_DECIMALS, \"G: buffer must be gte decimals\");\n        require(haircut <= Constants.PERCENTAGE_DECIMALS, \"G: buffer must be lte decimals\");\n        require(\n            liquidationDiscount > Constants.PERCENTAGE_DECIMALS,\n            \"G: discount must be gt decimals\"\n        );\n\n        // Perform this check to ensure that decimal calculations don't overflow\n        require(rateDecimalPlaces <= Constants.MAX_DECIMAL_PLACES);\n        mapping(uint256 => ETHRateStorage) storage store = LibStorage.getExchangeRateStorage();\n        store[currencyId] = ETHRateStorage({\n            rateOracle: rateOracle,\n            rateDecimalPlaces: rateDecimalPlaces,\n            mustInvert: mustInvert,\n            buffer: buffer,\n            haircut: haircut,\n            liquidationDiscount: liquidationDiscount\n        });\n\n        emit UpdateETHRate(currencyId);\n    }\n}\n","sourcePath":"contracts/external/actions/GovernanceAction.sol","deployment":{"address":"0x48b25E88C87865609eDA3607544154DC5Be06541","chainid":"5","blockHeight":6439054}}