{"abi":[{"inputs":[{"internalType":"address","name":"account","type":"address"},{"components":[{"internalType":"enum DepositActionType","name":"actionType","type":"uint8"},{"internalType":"uint16","name":"currencyId","type":"uint16"},{"internalType":"uint256","name":"depositActionAmount","type":"uint256"},{"internalType":"uint256","name":"withdrawAmountInternalPrecision","type":"uint256"},{"internalType":"bool","name":"withdrawEntireCashBalance","type":"bool"},{"internalType":"bool","name":"redeemToUnderlying","type":"bool"}],"internalType":"struct BalanceAction[]","name":"actions","type":"tuple[]"}],"name":"batchBalanceAction","outputs":[],"stateMutability":"payable","type":"function"},{"inputs":[{"internalType":"address","name":"account","type":"address"},{"components":[{"internalType":"enum DepositActionType","name":"actionType","type":"uint8"},{"internalType":"uint16","name":"currencyId","type":"uint16"},{"internalType":"uint256","name":"depositActionAmount","type":"uint256"},{"internalType":"uint256","name":"withdrawAmountInternalPrecision","type":"uint256"},{"internalType":"bool","name":"withdrawEntireCashBalance","type":"bool"},{"internalType":"bool","name":"redeemToUnderlying","type":"bool"},{"internalType":"bytes32[]","name":"trades","type":"bytes32[]"}],"internalType":"struct BalanceActionWithTrades[]","name":"actions","type":"tuple[]"}],"name":"batchBalanceAndTradeAction","outputs":[],"stateMutability":"payable","type":"function"},{"inputs":[{"internalType":"address","name":"account","type":"address"},{"components":[{"internalType":"enum DepositActionType","name":"actionType","type":"uint8"},{"internalType":"uint16","name":"currencyId","type":"uint16"},{"internalType":"uint256","name":"depositActionAmount","type":"uint256"},{"internalType":"uint256","name":"withdrawAmountInternalPrecision","type":"uint256"},{"internalType":"bool","name":"withdrawEntireCashBalance","type":"bool"},{"internalType":"bool","name":"redeemToUnderlying","type":"bool"},{"internalType":"bytes32[]","name":"trades","type":"bytes32[]"}],"internalType":"struct BalanceActionWithTrades[]","name":"actions","type":"tuple[]"},{"internalType":"bytes","name":"callbackData","type":"bytes"}],"name":"batchBalanceAndTradeActionWithCallback","outputs":[],"stateMutability":"payable","type":"function"},{"inputs":[{"internalType":"address","name":"account","type":"address"},{"components":[{"internalType":"uint16","name":"currencyId","type":"uint16"},{"internalType":"bool","name":"depositUnderlying","type":"bool"},{"internalType":"bytes32[]","name":"trades","type":"bytes32[]"}],"internalType":"struct BatchLend[]","name":"actions","type":"tuple[]"}],"name":"batchLend","outputs":[],"stateMutability":"nonpayable","type":"function"},{"inputs":[],"name":"getLibInfo","outputs":[{"internalType":"address","name":"","type":"address"},{"internalType":"address","name":"","type":"address"},{"internalType":"address","name":"","type":"address"},{"internalType":"address","name":"","type":"address"},{"internalType":"address","name":"","type":"address"},{"internalType":"address","name":"","type":"address"}],"stateMutability":"view","type":"function"},{"inputs":[],"name":"owner","outputs":[{"internalType":"address","name":"","type":"address"}],"stateMutability":"view","type":"function"},{"inputs":[],"name":"pauseGuardian","outputs":[{"internalType":"address","name":"","type":"address"}],"stateMutability":"view","type":"function"},{"inputs":[],"name":"pauseRouter","outputs":[{"internalType":"address","name":"","type":"address"}],"stateMutability":"view","type":"function"}],"bytecode":"608060405234801561001057600080fd5b50614c3f806100206000396000f3fe60806040526004361061007b5760003560e01c80636e6a32a61161004e5780636e6a32a6146100f357806382463367146101065780638da5cb5b1461011b578063c4c96dae146101305761007b565b80630276b64b1461008057806324a3d62214610095578063541f5270146100c05780635950d8e9146100e0575b600080fd5b61009361008e36600461423c565b610157565b005b3480156100a157600080fd5b506100aa6101e7565b6040516100b7919061468b565b60405180910390f35b3480156100cc57600080fd5b506100936100db3660046143b0565b6101f6565b6100936100ee36600461428c565b61052f565b610093610101366004614330565b61065f565b34801561011257600080fd5b506100aa6107e5565b34801561012757600080fd5b506100aa6107f4565b34801561013c57600080fd5b5061014561080b565b6040516100b7969594939291906146e8565b6002600a5414156101835760405162461bcd60e51b815260040161017a90614a18565b60405180910390fd5b6002600a556001600160a01b03831633148061019e57503330145b6101ba5760405162461bcd60e51b815260040161017a90614907565b6101c383610891565b60006101d08484846108e0565b90506101dc8482610a9b565b50506001600a555050565b6002546001600160a01b031681565b6002600a5414156102195760405162461bcd60e51b815260040161017a90614a18565b6002600a556001600160a01b03831633148061023457503330145b6102505760405162461bcd60e51b815260040161017a90614907565b61025983610891565b600061026484610b1c565b905060006102788583604001516000610bd8565b9050610282613f5c565b60005b848110156104fd573686868381811061029a57fe5b90506020028101906102ac9190614b8f565b90508115610315578686600184038181106102c357fe5b90506020028101906102d59190614b8f565b6102e39060208101906145c3565b61ffff166102f460208301836145c3565b61ffff16116103155760405162461bcd60e51b815260040161017a906149b7565b60006103246040830183614b2a565b9150508061033157600080fd5b60005b8181101561037457600061034b6040850185614b2a565b8381811061035557fe5b9050602002013560f81c60ff161461036c57600080fd5b600101610334565b5061038f8961038660208501856145c3565b86919089610c6a565b6103b4896103a060208501856145c3565b6103ad6040860186614b2a565b8a8a610d10565b606086018290529550600012156103ca57600080fd5b60006103ef6103ea86606001518760200151610eb690919063ffffffff16565b610ed2565b905060008113156104e05761040a60408401602085016143e7565b156104a857600061042a61042160208601866145c3565b61ffff16610ee0565b9050600061044761043e60208701876145c3565b61ffff16610f2c565b905060006104558385610f3f565b905060006104638383610f78565b9050600061047c8f838c610fba9092919063ffffffff16565b90508581121561049e5760405162461bcd60e51b815260040161017a90614ae8565b50505050506104e0565b60006104c36104ba60208601866145c3565b61ffff1661109f565b90506104dd8b6104d383856110b2565b88919060006110ea565b50505b6104ed858b8960006111c4565b5050600190920191506102859050565b506105078361143f565b61051857610518838784600061144c565b6105228684610a9b565b50506001600a5550505050565b3360009081526008602052604090205460ff1661055e5760405162461bcd60e51b815260040161017a90614907565b61056785610891565b60006105748686866108e0565b9050610580818761152e565b60405163550d065760e11b8152339063aa1a0cae906105a99083908a908890889060040161469f565b600060405180830381600087803b1580156105c357600080fd5b505af11580156105d7573d6000803e3d6000fd5b5050505060208101516001600160f81b0319161561065757604051636ccc642f60e01b815273__FreeCollateralExternal________________90636ccc642f9061062690899060040161468b565b60006040518083038186803b15801561063e57600080fd5b505af4158015610652573d6000803e3d6000fd5b505050505b505050505050565b6002600a5414156106825760405162461bcd60e51b815260040161017a90614a18565b6002600a556001600160a01b03831633148061069d57503330145b6106b95760405162461bcd60e51b815260040161017a90614907565b6106c283610891565b60006106cd84610b1c565b90506106d7613f5c565b60005b838110156107ce57368585838181106106ef57fe5b905060c002019050600082111561075c5785856001840381811061070f57fe5b905060c00201602001602081019061072791906145c3565b61ffff1661073b60408301602084016145c3565b61ffff161161075c5760405162461bcd60e51b815260040161017a906149b7565b6107798761077060408401602085016145c3565b85919087610c6a565b610795878461078b6020850185614403565b8460400135611632565b6107c587858560608501356107b060a08701608088016143e7565b6107c060c0880160a089016143e7565b611705565b506001016106da565b506107d98583610a9b565b50506001600a55505050565b6001546001600160a01b031681565b60005464010000000090046001600160a01b031681565b73__FreeCollateralExternal________________73__MigrateIncentives_____________________73__SettleAssetsExternal__________________73__TradingAction_________________________73__nTokenMintAction______________________73__nTokenRedeemAction____________________909192939495565b6001600160a01b0381166108a457600080fd5b6001600160a01b0381163014156108ba57600080fd5b60006108c582611782565b5050505061ffff169050806000146108dc57600080fd5b5050565b6108e8613fac565b60006108f385610b1c565b90506108fd613f5c565b600061090f8784604001516000610bd8565b905060005b85811015610a73573687878381811061092957fe5b905060200281019061093b9190614b70565b905081156109aa5787876001840381811061095257fe5b90506020028101906109649190614b70565b6109759060408101906020016145c3565b61ffff1661098960408301602084016145c3565b61ffff16116109aa5760405162461bcd60e51b815260040161017a906149b7565b6109c7896109be60408401602085016145c3565b86919088610c6a565b6109d9898561078b6020850185614403565b60006109e860c0830183614b2a565b90501115610a4f576000610a1a8a610a0660408501602086016145c3565b610a1360c0860186614b2a565b8a89610d10565b945090506000811215610a3957610a3985610a3483610ed2565b6117eb565b6060850151610a489082610eb6565b6060860152505b610a6a89868660608501356107b060a08701608088016143e7565b50600101610914565b50610a7d8361143f565b610a8e57610a8e838883600061144c565b50909150505b9392505050565b610aa5818361152e565b60208101516001600160f81b031916156108dc57604051636ccc642f60e01b815273__FreeCollateralExternal________________90636ccc642f90610af090859060040161468b565b60006040518083038186803b158015610b0857600080fd5b505af4158015610657573d6000803e3d6000fd5b610b24613fac565b6000610b2f8361183a565b9050610b3a816118db565b15610bd0576040516337b5fc2160e11b815273__SettleAssetsExternal__________________90636f6bf84290610b789086908590600401614722565b60a06040518083038186803b158015610b9057600080fd5b505af4158015610ba4573d6000803e3d6000fd5b505050506040513d601f19601f82011682018060405250810190610bc89190614469565b915050610bd3565b90505b919050565b610be0613fda565b610be8613fda565b60ff8416610bf7579050610a94565b610c01858561192c565b815260ff84166060820152826001600160401b0381118015610c2257600080fd5b50604051908082528060200260200182016040528015610c5c57816020015b610c49614002565b815260200190600190039081610c415790505b506020820152949350505050565b8161ffff166000108015610c845750613fff61ffff831611155b610c8d57600080fd5b61ffff8216808552610ca0908290611955565b15610ccd57610cb3838361ffff166119df565b61010088015260e087015260408601526020850152610ceb565b6000602085018190526040850181905260e085018190526101008501525b50506000606083018190526080830181905260a0830181905260c09092019190915250565b6000610d1a613fda565b610d238461143f565b15610e13578661ffff16846060015161ffff1614610d535760405162461bcd60e51b815260040161017a90614a62565b60608401518451604051633643f39b60e01b815260009273__TradingAction_________________________92633643f39b92610d9a928e9290918d908d9060040161484c565b604080518083038186803b158015610db157600080fd5b505af4158015610dc5573d6000803e3d6000fd5b505050506040513d601f19601f82011682018060405250810190610de9919061443a565b90935090508015610e0d57602085018051600160f81b176001600160f81b03191690525b50610eab565b60405163b58f83ed60e01b815273__TradingAction_________________________9063b58f83ed90610e52908b908b9088908c908c9060040161478e565b60006040518083038186803b158015610e6a57600080fd5b505af4158015610e7e573d6000803e3d6000fd5b505050506040513d6000823e601f3d908101601f19168201604052610ea69190810190614508565b925090505b965096945050505050565b81810182811215600083121514610ecc57600080fd5b92915050565b6000610bd060001983611a8b565b610ee8614042565b6000806000610ef685611ad9565b604080516060810182526001600160a01b039093168352602083019390935260ff16600a0a918101919091529350505050919050565b610f3461406c565b610bd0826001611b9c565b600080610f708460400151610f6a6402540be400610f6a878960200151611a8b90919063ffffffff16565b90611c4a565b949350505050565b60006305f5e10083604001511215610fa657610f9f6001610f9985856110b2565b90610eb6565b9050610ecc565b610a9483610fb5846001610eb6565b6110b2565b600081610fc957506000610a94565b60008213610fd657600080fd5b6000610fe9856000015161ffff16610f2c565b9050600381606001516005811115610ffd57fe5b1415611027573483146110225760405162461bcd60e51b815260040161017a9061494b565b61103e565b845161103b908290869061ffff1686611c7b565b92505b6000611051866000015161ffff1661109f565b9050600061106e876000015161106687611d23565b849190611d36565b9050600061107c8383611e27565b606089015190915061108e9082610eb6565b606089015293505050509392505050565b6110a761406c565b610bd0826000611b9c565b60006305f5e100836040015114156110cb575080610ecc565b610a946305f5e100610f6a856040015185611a8b90919063ffffffff16565b6000826110f957506000610f70565b6000831361110657600080fd5b6000611119866000015161ffff1661109f565b905060058160600151600581111561112d57fe5b14156111465785516111439061ffff1685611e57565b93505b8060200151806111535750825b1561119a57855160009061116f908390889061ffff1688611c7b565b905061117b8282611e27565b606088015190935061118d9084610eb6565b606088015250610f709050565b6111a48185611e27565b60808701519092506111b69083610eb6565b608087015250949350505050565b60008060008660a0015112156112175760006111f98760a00151610f998960c001518a60400151610eb690919063ffffffff16565b12156112175760405162461bcd60e51b815260040161017a90614a99565b6000866080015112156112675760006112498760800151610f9989606001518a60200151610eb690919063ffffffff16565b12156112675760405162461bcd60e51b815260040161017a90614a40565b611272868685611ede565b60808801819052606088015191935060009161128d91610eb6565b905080156112fa5760208701516112a49082610eb6565b602088015286516040516001935061ffff909116906001600160a01b038816907f5441e4a5fac93a951d782e6f1cdb82e95c8fc58561a013953d17e395c5e69b4b906112f19085906148fe565b60405180910390a35b60a087015115158061130f575060c087015115155b156113b55760006113398860c00151610f998a60a001518b60400151610eb690919063ffffffff16565b905061134e888861134984611d23565b611f94565b506040880181905260c0880151156113af57876000015161ffff16876001600160a01b03167f412bc13d202a2ea5119e55fec9c5e420dddb18faf186373ad9795ad4f4545aa98a60c001516040516113a691906148fe565b60405180910390a35b60019250505b81156113e2576113e286886000015161ffff1689602001518a604001518b60e001518c6101000151612081565b8651602088015161140f9161ffff16901515806114025750604089015115155b879190600160fe1b6121d1565b60008760200151121561143557602085018051600160f91b176001600160f81b03191690525b5050949350505050565b6060015161ffff16151590565b600080808061145b86886123d0565b64ffffffffff81168c5292965090945092509050611478886118db565b1561148257600080fd5b60ff82166040890152846114a157600760ff831611156114a157600080fd5b83156114c457602088018051600160f81b176001600160f81b03191690526114d3565b602088018051607f60f91b1690525b6114e0886080015161260f565b6001600160701b031916608089015260005b83156115235760f084901c818114611515576115158a826001600160ff1b6121d1565b60109490941b9390506114f2565b505050505050505050565b600061153861268a565b6001600160a01b03831660008181526020838152604080832088518154938a0151838b015160608c015160808d015160701c600160481b027affffffffffffffffffffffffffffffffffff0000000000000000001961ffff909216600160381b0268ffff000000000000001960ff94909416600160301b0266ff0000000000001960f89690961c650100000000000265ff00000000001964ffffffffff90981664ffffffffff19909b169a909a1796909616989098179390931693909317169490941716929092179091555192935090917f6bd4b121bca854a191536a2ca891155c42ee2fb23f307fb34e8bc65cfcb5412e9190a2505050565b600061163d82612697565b905060008082121561164e57600080fd5b600084600681111561165c57fe5b14156116695750506116ff565b600184600681111561167757fe5b148061168e5750600384600681111561168c57fe5b145b156116a7576116a085878460006110ea565b90506116f3565b60028460068111156116b557fe5b14806116cc575060048460068111156116ca57fe5b145b156116dc576116a0858784610fba565b60068460068111156116ea57fe5b14156116f35750805b610657858584846126ad565b50505050565b600061171084612697565b9050600081121561172057600080fd5b8215611758576117498560800151610f9987606001518860200151610eb690919063ffffffff16565b90506000811215611758575060005b608085015161176790826128c8565b6080860152611778858888856111c4565b5050505050505050565b6000806000806000806117936128de565b6001600160a01b039097166000908152602097909752505060409094205461ffff81169563ffffffff62010000830481169650600160301b830416945060ff600160501b8304169350600160581b90910460d81b9150565b6000811215801561181e57508061181b8360800151610f9985606001518660200151610eb690919063ffffffff16565b12155b6108dc5760405162461bcd60e51b815260040161017a90614abd565b611842613fac565b600061184c61268a565b6001600160a01b039390931660009081526020938452604090819020815160a081018352905464ffffffffff8116825265010000000000810460f81b6001600160f81b03191695820195909552600160301b850460ff1691810191909152600160381b840461ffff166060820152600160481b90930460701b6001600160701b03191660808401525090919050565b6000426118e78361143f565b15611908576118f5816128eb565b835164ffffffffff16109150610bd39050565b825164ffffffffff1615801590610bc85750825164ffffffffff1611159050610bd3565b6060600061193a8484612909565b9050600181511161194c579050610ecc565b610a9481612a2a565b600081158015906119685750613fff8211155b61197157600080fd5b6080830151606084015161ffff16831415611990576001915050610ecc565b6001600160701b03198116156119d55760f081901c613fff16838114156119c25750600160fe1b908116149050610ecc565b5060101b6001600160801b031916611990565b5060009392505050565b60008060008060006119ef612be2565b6001600160a01b0388166000908152602082815260408083208a84529091529020805469ffffffffffffffffffff81169650600160501b900463ffffffff1694509091508315611a5b578054611a5490600160701b900466ffffffffffffff16612bef565b9250611a70565b8054600160701b900466ffffffffffffff1692505b54600160a81b9004600a90810b900b97939650919450925050565b818102600019831415611abb57811580611aad575082828281611aaa57fe5b05145b611ab657600080fd5b610ecc565b821580611ad0575081838281611acd57fe5b05145b610ecc57600080fd5b6000806000806000611aea86612bfd565b909250905060006001600160a01b038316611b0f5750600090506402540be400611b91565b826001600160a01b0316631ee108336040518163ffffffff1660e01b8152600401602060405180830381600087803b158015611b4a57600080fd5b505af1158015611b5e573d6000803e3d6000fd5b505050506040513d601f19601f82011682018060405250810190611b829190614422565b905060008113611b9157600080fd5b969195509350915050565b611ba461406c565b6000611bae612c34565b6000858152602082815260408083208715158452825291829020825160a08101845281546001600160a01b038116825260ff600160a01b82048116151594830194909452600160b01b81048416600a0a9482019490945293945092916060830191600160a81b909104166005811115611c2357fe5b81529154600160b81b900468ffffffffffffffffff16602090920191909152949350505050565b600081600019148015611c605750600160ff1b83145b15611c6a57600080fd5b818381611c7357fe5b059392505050565b80600585606001516005811115611c8e57fe5b1415611cb3576000611c9f84610f2c565b9050611caf816000015184612c41565b9250505b6000821315611cdf576000611cc9868685612cd3565b9050856020015115611cd9578091505b50610f70565b600385606001516005811115611cf157fe5b1415611d0e57611d0984611d0484610ed2565b612dc6565b610f70565b8451610f709085611d1e85610ed2565b612e01565b600080821215611d3257600080fd5b5090565b600080600585606001516005811115611d4b57fe5b14611d5d576370a0823160e01b611d66565b630ed1279f60e11b5b90506000611d7986600001513084612e78565b9050600586606001516005811115611d8d57fe5b1415611db4576000611da28661ffff16610f2c565b9050611dae8186612f8a565b50611df7565b600186606001516005811115611dc657fe5b1415611dd657611dae8685612ff5565b600286606001516005811115611de857fe5b141561007b57611df7866130a1565b6000611e0887600001513085612e78565b9050611e1c611e1782846130e0565b612697565b979650505050505050565b60006305f5e10083604001511415611e40575080610ecc565b6040830151610a9490610f6a846305f5e100611a8b565b600081611e6657506000610ecc565b60008213611e7357600080fd5b6000611e7e84610f2c565b90506000611e8f826000015161313d565b9050600281056b033b2e3c9fd0803ce80000006001600160ff1b0382900305851315611eba57600080fd5b81816b033b2e3c9fd0803ce800000087020181611ed357fe5b059695505050505050565b6000806000611ef4866000015161ffff1661109f565b90506000611f0f8760800151836110b290919063ffffffff16565b905080611f2457600080935093505050611f8c565b848015611f315750600081125b15611f66578651611f539061ffff1687611f4a84610ed2565b859291906131c8565b9350611f5f8282611e27565b9250611f89565b8651611f7a908390889061ffff1684611c7b565b9350611f868285611e27565b92505b50505b935093915050565b825160009042908290611faa9061ffff1661325e565b90506000611fbd828860c0015185613284565b9050611fcb87838388613367565b93506000611fd883613494565b90506001600160a01b0381161561206657806001600160a01b0316631d684dd2888a6000015161200b8c60400151611d23565b8a8d60c001518b6040518763ffffffff1660e01b815260040161203396959493929190614815565b600060405180830381600087803b15801561204d57600080fd5b505af1158015612061573d6000803e3d6000fd5b505050505b8415612076576120768786613506565b505050509392505050565b600061208b612be2565b6001600160a01b0388166000908152602082815260408083208a845290915290209091506a7fffffffffffffffffffff1986128015906120d657506a7fffffffffffffffffffff8613155b6120df57600080fd5b600085121580156120fa575069ffffffffffffffffffff8513155b61210357600080fd5b836121435766ffffffffffffff83111561211c57600080fd5b805466ffffffffffffff60701b1916600160701b66ffffffffffffff85160217815561215d565b8054600160501b900463ffffffff16841461215d57600080fd5b8054600a9690960b6affffffffffffffffffffff16600160a81b026001600160a81b0369ffffffffffffffffffff90961669ffffffffffffffffffff1963ffffffff909616600160501b0263ffffffff60501b19909816979097179490941695909517939093169190911790925550505050565b8260001080156121e35750613fff8311155b6121ec57600080fd5b818015612200575082846060015161ffff16145b1561220a576116ff565b6080840151600090815b6001600160701b03198216156123855760f082901c613fff1686811480156122395750855b1561227157506080870180516001600160f01b0319861660109093029290921c919091176001600160701b0319169052506116ff9050565b868114801561227e575085155b156122d3576001600160f01b03198516199290921691600360fe1b83166122b1576010836001600160701b031916901b92505b506001600160701b031991821660109091021c919091171660808501526116ff565b86811180156122df5750855b15612339576080888101516001600160f01b031960f08a901b88178116601086021c9690961795911b161561231357600080fd5b506001600160701b03199182166001919091016010021c919091171660808501526116ff565b8681118015612346575085155b1561235457505050506116ff565b506001600160f01b0319821660108281029190911c93909317929190911b6001600160801b03191690600101612214565b84612392575050506116ff565b6009811061239f57600080fd5b6001600160f01b031960f087901b85171660109091021c919091176001600160701b03191660808601525050505050565b6000808080808080805b8951518110156124615760008a6000015182815181106123f657fe5b6020026020010151905060038081111561240c57fe5b8160a00151600381111561241c57fe5b141561242757600080fd5b60028160a00151600381111561243957fe5b1415801561244957506060810151155b15612458576124588b83613525565b506001016123da565b5060005b8951518110156125045760008a60000151828151811061248157fe5b602002602001015190506002600381111561249857fe5b8160a0015160038111156124a857fe5b14156124bc576080810151600090556124fb565b60018160a0015160038111156124ce57fe5b14156124e7576080810151806124e48382613674565b50505b6124f3818686866137a5565b919650945092505b50600101612465565b5060608901516000612514613808565b6001600160a01b038b1660009081526020829052604081209192505b8c60200151518110156125de5760008d60200151828151811061254f57fe5b6020026020010151905080606001516000141561256c57506125d6565b60028160a00151600381111561257e57fe5b1415801561259c575060038160a00151600381111561259957fe5b14155b6125a557600080fd5b6125b1818989896137a5565b919950975095506125ce818487601081106125c857fe5b01613674565b600185019450505b600101612530565b50601083111580156125f5575064ffffffffff8411155b6125fe57600080fd5b50939a929950975095509350505050565b6000807f7fff7fff7fff7fff7fff7fff7fff7fff7fff00000000000000000000000000008316815b6001600160701b031982161561268157600160fe1b828116141561266b576001600160f01b03198216811c92909217916010015b6010826001600160701b031916901b9150612637565b50909392505050565b600080610ecc6001613811565b60006001600160ff1b03821115611d3257600080fd5b60038360068111156126bb57fe5b14806126d2575060048360068111156126d057fe5b145b806126e8575060068360068111156126e657fe5b145b156127b4576126f784826117eb565b606084015161270690826128c8565b60608501528351604051632128561360e11b815260009173__nTokenMintAction______________________91634250ac2691612747918690600401614b16565b60206040518083038186803b15801561275f57600080fd5b505af4158015612773573d6000803e3d6000fd5b505050506040513d601f19601f820116820180604052508101906127979190614422565b60c08601519091506127a99082610eb6565b60c0860152506116ff565b60058360068111156127c257fe5b14156116ff57816127ec8560c00151610f998760a001518860400151610eb690919063ffffffff16565b121561280a5760405162461bcd60e51b815260040161017a906149e1565b60c084015161281990836128c8565b60c085015283516040516352e73f7760e01b815260009173__nTokenRedeemAction____________________916352e73f779161285a918790600401614b16565b60206040518083038186803b15801561287257600080fd5b505af4158015612886573d6000803e3d6000fd5b505050506040513d601f19601f820116820180604052508101906128aa9190614422565b60608601519091506128bc9082610eb6565b60608601525050505050565b80820382811315600083121514610ecc57600080fd5b600080610ecc6002613811565b6000620151808210156128fd57600080fd5b50620151808106900390565b606060108260ff16111561291c57600080fd5b6000612926613808565b6001600160a01b038516600090815260208290526040812091925060ff85166001600160401b038111801561295a57600080fd5b5060405190808252806020026020018201604052801561299457816020015b612981614002565b8152602001906001900390816129795790505b50905060005b8560ff16811015612a205760008382601081106129b357fe5b01905060008383815181106129c457fe5b602090810291909101810151835461ffff8116825264ffffffffff620100008204169282019290925260ff600160381b8304166040820152600160401b909104600a90810b900b6060820152608001919091525060010161299a565b5095945050505050565b80516000816001600160401b0381118015612a4457600080fd5b50604051908082528060200260200182016040528015612a6e578160200160208202803683370190505b50905060005b82811015612acb576000848281518110612a8a57fe5b60200260200101519050612aab81600001518260200151836040015161382a565b838381518110612ab757fe5b602090810291909101015250600101612a74565b5060015b828110156116ff57805b600081118015612b115750828181518110612af057fe5b6020026020010151836001830381518110612b0757fe5b6020026020010151115b15612bd957828181518110612b2257fe5b6020026020010151836001830381518110612b3957fe5b6020026020010151846001840381518110612b5057fe5b60200260200101858481518110612b6357fe5b6020026020010182815250828152505050848181518110612b8057fe5b6020026020010151856001830381518110612b9757fe5b6020026020010151866001840381518110612bae57fe5b60200260200101878481518110612bc157fe5b60209081029190910101919091525260001901612ad9565b50600101612acf565b600080610ecc6006613811565b600881901c60ff9091161b90565b6000806000612c0a613885565b600094855260205250506040909120546001600160a01b03811692600160a01b90910460ff169150565b600080610ecc6007613811565b600081612c5057506000610ecc565b6000612c5b8461313d565b90506000612c6884613892565b9050816b019d971e4fe8401e74000001600160ff1b0381612c8557fe5b05811315612c9257600080fd5b6b033b2e3c9fd0803ce80000006b019d971e4fe8401e74000000838302010560008513612cc757612cc281610ed2565b612cc9565b805b9695505050505050565b6000808080600587606001516005811115612cea57fe5b14612cfc576370a0823160e01b612d05565b630ed1279f60e11b5b9050866020015115612d21578651612d1e903083612e78565b92505b8651612d2e9087876138b3565b866020015180612d42575060008760800151115b15612d57578651612d54903083612e78565b91505b608087015115612d92576000612d7588612d7085612697565b611e27565b9050612d848860800151612697565b811315612d9057600080fd5b505b866020015115612db357612da9611e1783856130e0565b9350505050610a94565b612da985612697565b5050509392505050565b6040516001600160a01b0383169082156108fc029083906000818181858888f19350505050158015612dfc573d6000803e3d6000fd5b505050565b826001600160a01b031663a9059cbb83836040518363ffffffff1660e01b815260040180836001600160a01b0316815260200182815260200192505050600060405180830381600087803b158015612e5857600080fd5b505af1158015612e6c573d6000803e3d6000fd5b50505050612dfc61390b565b604080516001600160a01b0384811660248084019190915283518084039091018152604490920183526020820180516001600160e01b03166001600160e01b0319861617815292518251600094859485948a16939092909182918083835b60208310612ef55780518252601f199092019160209182019101612ed6565b6001836020036101000a038019825116818451168082178552505050505050905001915050600060405180830381855afa9150503d8060008114612f55576040519150601f19603f3d011682016040523d82523d6000602084013e612f5a565b606091505b509150915081612f6957600080fd5b808060200190516020811015612f7e57600080fd5b50519695505050505050565b612f92613978565b54825160405163e8eda9df60e01b81526001600160a01b039092169163e8eda9df91612fc791859030906000906004016148ab565b600060405180830381600087803b158015612fe157600080fd5b505af1158015610657573d6000803e3d6000fd5b60008083600001516001600160a01b031663a0712d68846040518263ffffffff1660e01b815260040161302891906148fe565b602060405180830381600087803b15801561304257600080fd5b505af1158015613056573d6000803e3d6000fd5b505050506040513d601f19601f8201168201806040525081019061307a9190614422565b9050801561309a5760405162461bcd60e51b815260040161017a9061492d565b5092915050565b80600001516001600160a01b0316631249c58b346040518263ffffffff1660e01b81526004016000604051808303818588803b158015612fe157600080fd5b600082821115613137576040805162461bcd60e51b815260206004820152601e60248201527f536166654d6174683a207375627472616374696f6e206f766572666c6f770000604482015290519081900360640190fd5b50900390565b6000610bd061314a613978565b5460405163d15e005360e01b81526001600160a01b039091169063d15e00539061317890869060040161468b565b60206040518083038186803b15801561319057600080fd5b505afa1580156131a4573d6000803e3d6000fd5b505050506040513d601f19601f82011682018060405250810190611e179190614422565b6000806002866060015160058111156131dd57fe5b14156131f5576131ee868585613985565b9050613252565b600061320086610f2c565b905060058760600151600581111561321457fe5b141561322c57613225818686613a42565b9150613250565b60018760600151600581111561323e57fe5b141561007b5761322587828787613af8565b505b612cc96103ea82612697565b600080613269613bf6565b6000938452602052505060409020546001600160a01b031690565b60008060006132938685613c03565b509150915060006132a2613c99565b6001600160a01b03881660009081526020829052604081209192506132c78589610eb6565b9050806000131580156132e057506001600160601b0381105b6132e957600080fd5b81546bffffffffffffffffffffffff19166001600160601b038216176fffffffffffffffffffffffffffffffff60601b1916600160601b6001600160801b0386160217825563ffffffff871061333e57600080fd5b50805463ffffffff8716600160e01b026001600160e01b03909116179055509150509392505050565b60e0840151600090156134285773__MigrateIncentives_____________________63e0c01a728561339c8860400151611d23565b8860e001518961010001516040518563ffffffff1660e01b81526004016133c694939291906148d8565b60206040518083038186803b1580156133de57600080fd5b505af41580156133f2573d6000803e3d6000fd5b505050506040513d601f19601f820116820180604052508101906134169190614422565b600060e0870181905261010087015290505b61346a61346386610100015161345d670de0b6b3a7640000613457886134518c60400151611d23565b90613ca6565b90613cff565b906130e0565b8290613d66565b9050613482670de0b6b3a76400006134578486613ca6565b85610100018181525050949350505050565b60008061349f6128de565b6001600160a01b0384166000908152602082905260409020805491925090600160f81b900460ff16156134fb576134d4613dc0565b6001600160a01b038086166000908152602092909252604090912054169250610bd3915050565b600092505050610bd3565b6108dc73cfeaead4947f0705a14ec42ac3d44129e1ef3ed58383612e01565b815151811061353357600080fd5b600082606001511161354457600080fd5b60008260000151828151811061355657fe5b602002602001015190506002600381111561356d57fe5b8160a00151600381111561357d57fe5b1415801561359b575060038160a00151600381111561359857fe5b14155b6135a457600080fd5b606083018051600019019052600080805b855151811015613617576000866000015182815181106135d157fe5b602002602001015190508281608001511180156135fe575060028160a0015160038111156135fb57fe5b14155b1561360e57806080015192508193505b506001016135b5565b5081841415613630575050600260a091909101526108dc565b60008560000151838151811061364257fe5b602090810291909101015160808581018051918301805190915252600160a09182015260029401939093525050505050565b81511580159061368757508151613fff10155b61369057600080fd5b816020015160001080156136ad5750602082015164ffffffffff10155b6136b657600080fd5b816040015160001080156136cf57506040820151600810155b6136d857600080fd5b60608201516a7fffffffffffffffffffff1913801590613707575060608201516a7fffffffffffffffffffff12155b61371057600080fd5b8151815460208401516040850151606090950151600a0b6affffffffffffffffffffff16600160401b0272ffffffffffffffffffffff00000000000000001960ff909616600160381b0267ff000000000000001964ffffffffff909316620100000266ffffffffff00001961ffff90961661ffff19909516949094179490941692909217169190911792909216919091179055565b6000806000806137b488613dcd565b90508415806137c257508085115b156137cb578094505b86806137db575060008860600151125b965061ffff8616156137ec57600080fd5b50509451939560109390931c60f09490941b9390931793509150565b600080610ecc600d5b6000620f424082601381111561382357fe5b0192915050565b6000613fff84111561383b57600080fd5b64ffffffffff83111561384d57600080fd5b600882111561385b57600080fd5b5067ffff000000000000603084901b1665ffffffffff00600884901b161760ff8216179392505050565b600080610ecc600f613811565b6000808212156138ac576138a582610ed2565b9050610bd3565b5080610bd3565b604080516323b872dd60e01b81526001600160a01b038481166004830152306024830152604482018490529151918516916323b872dd9160648082019260009290919082900301818387803b158015612e5857600080fd5b600061391561409b565b3d8015613929576020811461393257600080fd5b6001925061393d565b60206000833e815192505b50816108dc576040805162461bcd60e51b8152602060048201526005602482015264045524332360dc1b604482015290519081900360640190fd5b600080610ecc6013613811565b825160405163db006a7560e01b8152600091479183916001600160a01b03169063db006a75906139b99087906004016148fe565b602060405180830381600087803b1580156139d357600080fd5b505af11580156139e7573d6000803e3d6000fd5b505050506040513d601f19601f82011682018060405250810190613a0b9190614422565b90508015613a2b5760405162461bcd60e51b815260040161017a90614970565b47613a3681846130e0565b9350612dbc8685612dc6565b6000613a62613a5d8560000151613a5885612697565b612c41565b611d23565b9050613a6c613978565b548451604051631a4ca37b60e21b81526001600160a01b03909216916369328dec91613a9e9185908890600401614888565b602060405180830381600087803b158015613ab857600080fd5b505af1158015613acc573d6000803e3d6000fd5b505050506040513d601f19601f82011682018060405250810190613af09190614422565b509392505050565b82516000908190613b1190306370a0823160e01b612e78565b9050600086600001516001600160a01b031663db006a75856040518263ffffffff1660e01b8152600401613b4591906148fe565b602060405180830381600087803b158015613b5f57600080fd5b505af1158015613b73573d6000803e3d6000fd5b505050506040513d601f19601f82011682018060405250810190613b979190614422565b90508015613bb75760405162461bcd60e51b815260040161017a90614970565b8551600090613bce90306370a0823160e01b612e78565b9050613bda81846130e0565b9350613beb87600001518786612e01565b505050949350505050565b600080610ecc6003613811565b6000806000613c1185613e3a565b919450925090508084118015613c275750600081115b8015613c335750600083115b15613c92576000613c4386611782565b5050509150506000613c6e613c656305f5e10084613ca690919063ffffffff16565b84880387613e96565b9050613c7a8482613d66565b93506001600160801b038410613c8f57600080fd5b50505b9250925092565b600080610ecc6011613811565b600082613cb557506000610ecc565b82820282848281613cc257fe5b0414610a945760405162461bcd60e51b8152600401808060200182810382526021815260200180614be96021913960400191505060405180910390fd5b6000808211613d55576040805162461bcd60e51b815260206004820152601a60248201527f536166654d6174683a206469766973696f6e206279207a65726f000000000000604482015290519081900360640190fd5b818381613d5e57fe5b049392505050565b600082820183811015610a94576040805162461bcd60e51b815260206004820152601b60248201527f536166654d6174683a206164646974696f6e206f766572666c6f770000000000604482015290519081900360640190fd5b600080610ecc6012613811565b6000808260400151118015613de757506040820151600810155b613df057600080fd5b6040820151600210613e0757506020810151610bd3565b6000613e196001846040015103613eb8565b6020840151909150610a94906276a70090613e3490846130e0565b90613d66565b600080600080613e48613c99565b6001600160a01b0395909516600090815260209590955250506040909220546001600160601b03811693600160601b82046001600160801b03169350600160e01b90910463ffffffff169150565b6000610f70826134576301da9c00818861345189670de0b6b3a7640000613ca6565b60008160011415613ecd57506276a700610bd3565b8160021415613ee0575062ed4e00610bd3565b8160031415613ef457506301da9c00610bd3565b8160041415613f0857506303b53800610bd3565b8160051415613f1c57506309450c00610bd3565b8160061415613f30575063128a1800610bd3565b8160071415613f4457506325143000610bd3565b60405162461bcd60e51b815260040161017a90614990565b604051806101200160405280600061ffff16815260200160008152602001600081526020016000815260200160008152602001600081526020016000815260200160008152602001600081525090565b6040805160a08101825260008082526020820181905291810182905260608101829052608081019190915290565b6040518060800160405280606081526020016060815260200160008152602001600081525090565b6040518060c0016040528060008152602001600081526020016000815260200160008152602001600081526020016000600381111561403d57fe5b905290565b604051806060016040528060006001600160a01b0316815260200160008152602001600081525090565b6040805160a0810182526000808252602082018190529181018290529060608201908152602001600081525090565b60405180602001604052806001906020820280368337509192915050565b80356001600160a01b0381168114610bd357600080fd5b60008083601f8401126140e1578081fd5b5081356001600160401b038111156140f7578182fd5b602083019150836020808302850101111561411157600080fd5b9250929050565b600082601f830112614128578081fd5b815160206001600160401b038083111561413e57fe5b61414b8283850201614ba4565b8381528281019086840160c0808702890186018a1015614169578788fd5b875b878110156141ea5781838c031215614181578889fd5b60408051838101818110898211171561419657fe5b82528451815288850151898201528482015191810191909152606080850151908201526080808501519082015260a0906141d1828601614211565b918101919091528552938601939181019160010161416b565b50919998505050505050505050565b80516001600160701b031981168114610bd357600080fd5b805160048110610bd357600080fd5b8051610bd381614bd8565b805160ff81168114610bd357600080fd5b600080600060408486031215614250578283fd5b614259846140b9565b925060208401356001600160401b03811115614273578283fd5b61427f868287016140d0565b9497909650939450505050565b6000806000806000606086880312156142a3578081fd5b6142ac866140b9565b945060208601356001600160401b03808211156142c7578283fd5b6142d389838a016140d0565b909650945060408801359150808211156142eb578283fd5b818801915088601f8301126142fe578283fd5b81358181111561430c578384fd5b89602082850101111561431d578384fd5b9699959850939650602001949392505050565b600080600060408486031215614344578283fd5b61434d846140b9565b925060208401356001600160401b0380821115614368578384fd5b818601915086601f83011261437b578384fd5b813581811115614389578485fd5b87602060c08302850101111561439d578485fd5b6020830194508093505050509250925092565b6000806000604084860312156143c4578081fd5b6143cd846140b9565b925060208401356001600160401b03811115614273578182fd5b6000602082840312156143f8578081fd5b8135610a9481614bc7565b600060208284031215614414578081fd5b813560078110610a94578182fd5b600060208284031215614433578081fd5b5051919050565b6000806040838503121561444c578182fd5b82519150602083015161445e81614bc7565b809150509250929050565b600060a0828403121561447a578081fd5b60405160a081018181106001600160401b038211171561449657fe5b604052825164ffffffffff811681146144ad578283fd5b815260208301516001600160f81b0319811681146144c9578283fd5b60208201526144da6040840161422b565b60408201526144eb60608401614220565b60608201526144fc608084016141f9565b60808201529392505050565b6000806040838503121561451a578182fd5b82516001600160401b0380821115614530578384fd5b9084019060808287031215614543578384fd5b60405160808101818110838211171561455857fe5b604052825182811115614569578586fd5b61457588828601614118565b825250602083015182811115614589578586fd5b61459588828601614118565b6020830152506040830151604082015260608301516060820152809450505050602083015190509250929050565b6000602082840312156145d4578081fd5b8135610a9481614bd8565b81835260006001600160fb1b038311156145f7578081fd5b6020830280836020870137939093016020019283525090919050565b6000815180845260208085019450808401835b8381101561468057815180518852838101518489015260408082015190890152606080820151908901526080808201519089015260a090810151906004821061466b57fe5b88015260c09096019590820190600101614626565b509495945050505050565b6001600160a01b0391909116815260200190565b6001600160a01b038581168252841660208201526060604082018190528101829052600082846080840137818301608090810191909152601f909201601f191601019392505050565b6001600160a01b0396871681529486166020860152928516604085015290841660608401528316608083015290911660a082015260c00190565b6001600160a01b03929092168252805164ffffffffff166020808401919091528101516001600160f81b03191660408084019190915281015160ff1660608084019190915281015161ffff1660808084019190915201516001600160701b03191660a082015260c00190565b600060018060a01b038716825261ffff861660208301526080604083015284516080808401526147c2610100840182614613565b90506020860151607f198483030160a08501526147df8282614613565b915050604086015160c0840152606086015160e084015282810360608401526148098185876145df565b98975050505050505050565b6001600160a01b0396909616865261ffff94909416602086015260408501929092526060840152608083015260a082015260c00190565b6001600160a01b038616815261ffff8516602082015264ffffffffff84166040820152608060608201819052600090611e1c90830184866145df565b6001600160a01b0393841681526020810192909252909116604082015260600190565b6001600160a01b03948516815260208101939093529216604082015261ffff909116606082015260800190565b6001600160a01b0394909416845260208401929092526040830152606082015260800190565b90815260200190565b6020808252600c908201526b155b985d5d1a1bdc9a5e995960a21b604082015260600190565b602080825260049082015263135a5b9d60e21b604082015260600190565b6020808252600b908201526a4554482042616c616e636560a81b604082015260600190565b60208082526006908201526552656465656d60d01b604082015260600190565b6020808252600d908201526c092dcecc2d8d2c840d2dcc8caf609b1b604082015260600190565b60208082526010908201526f556e736f7274656420616374696f6e7360801b604082015260600190565b6020808252601a908201527f496e73756666696369656e7420746f6b656e2062616c616e6365000000000000604082015260600190565b6020808252600e908201526d1499595b9d1c985b9d0818d85b1b60921b604082015260600190565b60208082526008908201526709ccace4086c2e6d60c31b604082015260600190565b6020808252601a908201527f496e76616c69642074726164657320666f72206163636f756e74000000000000604082015260600190565b6020808252600a90820152692732b390372a37b5b2b760b11b604082015260600190565b602080825260119082015270092dce6eaccccd2c6d2cadce840c6c2e6d607b1b604082015260600190565b602080825260149082015273125b9cdd59999a58da595b9d0819195c1bdcda5d60621b604082015260600190565b61ffff929092168252602082015260400190565b6000808335601e19843603018112614b40578283fd5b8301803591506001600160401b03821115614b59578283fd5b602090810192508102360382131561411157600080fd5b6000823560de19833603018112614b85578182fd5b9190910192915050565b60008235605e19833603018112614b85578182fd5b6040518181016001600160401b0381118282101715614bbf57fe5b604052919050565b8015158114614bd557600080fd5b50565b61ffff81168114614bd557600080fdfe536166654d6174683a206d756c7469706c69636174696f6e206f766572666c6f77a264697066735822122075c2484a6252ad6a8d692532921b8009ab690e34f76da93696d53d97a83d9dcd64736f6c63430007060033","bytecodeSha1":"e565515d7410984607eeb9ef64b595a93b35edd2","compiler":{"evm_version":"istanbul","optimizer":{"enabled":true,"runs":200},"version":"0.7.6+commit.7338295f"},"contractName":"BatchAction","deployedBytecode":"60806040526004361061007b5760003560e01c80636e6a32a61161004e5780636e6a32a6146100f357806382463367146101065780638da5cb5b1461011b578063c4c96dae146101305761007b565b80630276b64b1461008057806324a3d62214610095578063541f5270146100c05780635950d8e9146100e0575b600080fd5b61009361008e36600461423c565b610157565b005b3480156100a157600080fd5b506100aa6101e7565b6040516100b7919061468b565b60405180910390f35b3480156100cc57600080fd5b506100936100db3660046143b0565b6101f6565b6100936100ee36600461428c565b61052f565b610093610101366004614330565b61065f565b34801561011257600080fd5b506100aa6107e5565b34801561012757600080fd5b506100aa6107f4565b34801561013c57600080fd5b5061014561080b565b6040516100b7969594939291906146e8565b6002600a5414156101835760405162461bcd60e51b815260040161017a90614a18565b60405180910390fd5b6002600a556001600160a01b03831633148061019e57503330145b6101ba5760405162461bcd60e51b815260040161017a90614907565b6101c383610891565b60006101d08484846108e0565b90506101dc8482610a9b565b50506001600a555050565b6002546001600160a01b031681565b6002600a5414156102195760405162461bcd60e51b815260040161017a90614a18565b6002600a556001600160a01b03831633148061023457503330145b6102505760405162461bcd60e51b815260040161017a90614907565b61025983610891565b600061026484610b1c565b905060006102788583604001516000610bd8565b9050610282613f5c565b60005b848110156104fd573686868381811061029a57fe5b90506020028101906102ac9190614b8f565b90508115610315578686600184038181106102c357fe5b90506020028101906102d59190614b8f565b6102e39060208101906145c3565b61ffff166102f460208301836145c3565b61ffff16116103155760405162461bcd60e51b815260040161017a906149b7565b60006103246040830183614b2a565b9150508061033157600080fd5b60005b8181101561037457600061034b6040850185614b2a565b8381811061035557fe5b9050602002013560f81c60ff161461036c57600080fd5b600101610334565b5061038f8961038660208501856145c3565b86919089610c6a565b6103b4896103a060208501856145c3565b6103ad6040860186614b2a565b8a8a610d10565b606086018290529550600012156103ca57600080fd5b60006103ef6103ea86606001518760200151610eb690919063ffffffff16565b610ed2565b905060008113156104e05761040a60408401602085016143e7565b156104a857600061042a61042160208601866145c3565b61ffff16610ee0565b9050600061044761043e60208701876145c3565b61ffff16610f2c565b905060006104558385610f3f565b905060006104638383610f78565b9050600061047c8f838c610fba9092919063ffffffff16565b90508581121561049e5760405162461bcd60e51b815260040161017a90614ae8565b50505050506104e0565b60006104c36104ba60208601866145c3565b61ffff1661109f565b90506104dd8b6104d383856110b2565b88919060006110ea565b50505b6104ed858b8960006111c4565b5050600190920191506102859050565b506105078361143f565b61051857610518838784600061144c565b6105228684610a9b565b50506001600a5550505050565b3360009081526008602052604090205460ff1661055e5760405162461bcd60e51b815260040161017a90614907565b61056785610891565b60006105748686866108e0565b9050610580818761152e565b60405163550d065760e11b8152339063aa1a0cae906105a99083908a908890889060040161469f565b600060405180830381600087803b1580156105c357600080fd5b505af11580156105d7573d6000803e3d6000fd5b5050505060208101516001600160f81b0319161561065757604051636ccc642f60e01b815273__$841fddfe32830bb6dbc3a02d7f16c53722$__90636ccc642f9061062690899060040161468b565b60006040518083038186803b15801561063e57600080fd5b505af4158015610652573d6000803e3d6000fd5b505050505b505050505050565b6002600a5414156106825760405162461bcd60e51b815260040161017a90614a18565b6002600a556001600160a01b03831633148061069d57503330145b6106b95760405162461bcd60e51b815260040161017a90614907565b6106c283610891565b60006106cd84610b1c565b90506106d7613f5c565b60005b838110156107ce57368585838181106106ef57fe5b905060c002019050600082111561075c5785856001840381811061070f57fe5b905060c00201602001602081019061072791906145c3565b61ffff1661073b60408301602084016145c3565b61ffff161161075c5760405162461bcd60e51b815260040161017a906149b7565b6107798761077060408401602085016145c3565b85919087610c6a565b610795878461078b6020850185614403565b8460400135611632565b6107c587858560608501356107b060a08701608088016143e7565b6107c060c0880160a089016143e7565b611705565b506001016106da565b506107d98583610a9b565b50506001600a55505050565b6001546001600160a01b031681565b60005464010000000090046001600160a01b031681565b73__$841fddfe32830bb6dbc3a02d7f16c53722$__73__$b21a4dc043b77aa57922ad9143a3cb040e$__73__$f6541b0d362a0c7d99a2a29cd3d373d61b$__73__$7ac922d04bd7a1b42c7f6e5f1dd89a70af$__73__$892f367d396be2b92d3b049e6e62920984$__73__$43fd92ea4ea9b72ca0014644dbfd757564$__909192939495565b6001600160a01b0381166108a457600080fd5b6001600160a01b0381163014156108ba57600080fd5b60006108c582611782565b5050505061ffff169050806000146108dc57600080fd5b5050565b6108e8613fac565b60006108f385610b1c565b90506108fd613f5c565b600061090f8784604001516000610bd8565b905060005b85811015610a73573687878381811061092957fe5b905060200281019061093b9190614b70565b905081156109aa5787876001840381811061095257fe5b90506020028101906109649190614b70565b6109759060408101906020016145c3565b61ffff1661098960408301602084016145c3565b61ffff16116109aa5760405162461bcd60e51b815260040161017a906149b7565b6109c7896109be60408401602085016145c3565b86919088610c6a565b6109d9898561078b6020850185614403565b60006109e860c0830183614b2a565b90501115610a4f576000610a1a8a610a0660408501602086016145c3565b610a1360c0860186614b2a565b8a89610d10565b945090506000811215610a3957610a3985610a3483610ed2565b6117eb565b6060850151610a489082610eb6565b6060860152505b610a6a89868660608501356107b060a08701608088016143e7565b50600101610914565b50610a7d8361143f565b610a8e57610a8e838883600061144c565b50909150505b9392505050565b610aa5818361152e565b60208101516001600160f81b031916156108dc57604051636ccc642f60e01b815273__$841fddfe32830bb6dbc3a02d7f16c53722$__90636ccc642f90610af090859060040161468b565b60006040518083038186803b158015610b0857600080fd5b505af4158015610657573d6000803e3d6000fd5b610b24613fac565b6000610b2f8361183a565b9050610b3a816118db565b15610bd0576040516337b5fc2160e11b815273__$f6541b0d362a0c7d99a2a29cd3d373d61b$__90636f6bf84290610b789086908590600401614722565b60a06040518083038186803b158015610b9057600080fd5b505af4158015610ba4573d6000803e3d6000fd5b505050506040513d601f19601f82011682018060405250810190610bc89190614469565b915050610bd3565b90505b919050565b610be0613fda565b610be8613fda565b60ff8416610bf7579050610a94565b610c01858561192c565b815260ff84166060820152826001600160401b0381118015610c2257600080fd5b50604051908082528060200260200182016040528015610c5c57816020015b610c49614002565b815260200190600190039081610c415790505b506020820152949350505050565b8161ffff166000108015610c845750613fff61ffff831611155b610c8d57600080fd5b61ffff8216808552610ca0908290611955565b15610ccd57610cb3838361ffff166119df565b61010088015260e087015260408601526020850152610ceb565b6000602085018190526040850181905260e085018190526101008501525b50506000606083018190526080830181905260a0830181905260c09092019190915250565b6000610d1a613fda565b610d238461143f565b15610e13578661ffff16846060015161ffff1614610d535760405162461bcd60e51b815260040161017a90614a62565b60608401518451604051633643f39b60e01b815260009273__$7ac922d04bd7a1b42c7f6e5f1dd89a70af$__92633643f39b92610d9a928e9290918d908d9060040161484c565b604080518083038186803b158015610db157600080fd5b505af4158015610dc5573d6000803e3d6000fd5b505050506040513d601f19601f82011682018060405250810190610de9919061443a565b90935090508015610e0d57602085018051600160f81b176001600160f81b03191690525b50610eab565b60405163b58f83ed60e01b815273__$7ac922d04bd7a1b42c7f6e5f1dd89a70af$__9063b58f83ed90610e52908b908b9088908c908c9060040161478e565b60006040518083038186803b158015610e6a57600080fd5b505af4158015610e7e573d6000803e3d6000fd5b505050506040513d6000823e601f3d908101601f19168201604052610ea69190810190614508565b925090505b965096945050505050565b81810182811215600083121514610ecc57600080fd5b92915050565b6000610bd060001983611a8b565b610ee8614042565b6000806000610ef685611ad9565b604080516060810182526001600160a01b039093168352602083019390935260ff16600a0a918101919091529350505050919050565b610f3461406c565b610bd0826001611b9c565b600080610f708460400151610f6a6402540be400610f6a878960200151611a8b90919063ffffffff16565b90611c4a565b949350505050565b60006305f5e10083604001511215610fa657610f9f6001610f9985856110b2565b90610eb6565b9050610ecc565b610a9483610fb5846001610eb6565b6110b2565b600081610fc957506000610a94565b60008213610fd657600080fd5b6000610fe9856000015161ffff16610f2c565b9050600381606001516005811115610ffd57fe5b1415611027573483146110225760405162461bcd60e51b815260040161017a9061494b565b61103e565b845161103b908290869061ffff1686611c7b565b92505b6000611051866000015161ffff1661109f565b9050600061106e876000015161106687611d23565b849190611d36565b9050600061107c8383611e27565b606089015190915061108e9082610eb6565b606089015293505050509392505050565b6110a761406c565b610bd0826000611b9c565b60006305f5e100836040015114156110cb575080610ecc565b610a946305f5e100610f6a856040015185611a8b90919063ffffffff16565b6000826110f957506000610f70565b6000831361110657600080fd5b6000611119866000015161ffff1661109f565b905060058160600151600581111561112d57fe5b14156111465785516111439061ffff1685611e57565b93505b8060200151806111535750825b1561119a57855160009061116f908390889061ffff1688611c7b565b905061117b8282611e27565b606088015190935061118d9084610eb6565b606088015250610f709050565b6111a48185611e27565b60808701519092506111b69083610eb6565b608087015250949350505050565b60008060008660a0015112156112175760006111f98760a00151610f998960c001518a60400151610eb690919063ffffffff16565b12156112175760405162461bcd60e51b815260040161017a90614a99565b6000866080015112156112675760006112498760800151610f9989606001518a60200151610eb690919063ffffffff16565b12156112675760405162461bcd60e51b815260040161017a90614a40565b611272868685611ede565b60808801819052606088015191935060009161128d91610eb6565b905080156112fa5760208701516112a49082610eb6565b602088015286516040516001935061ffff909116906001600160a01b038816907f5441e4a5fac93a951d782e6f1cdb82e95c8fc58561a013953d17e395c5e69b4b906112f19085906148fe565b60405180910390a35b60a087015115158061130f575060c087015115155b156113b55760006113398860c00151610f998a60a001518b60400151610eb690919063ffffffff16565b905061134e888861134984611d23565b611f94565b506040880181905260c0880151156113af57876000015161ffff16876001600160a01b03167f412bc13d202a2ea5119e55fec9c5e420dddb18faf186373ad9795ad4f4545aa98a60c001516040516113a691906148fe565b60405180910390a35b60019250505b81156113e2576113e286886000015161ffff1689602001518a604001518b60e001518c6101000151612081565b8651602088015161140f9161ffff16901515806114025750604089015115155b879190600160fe1b6121d1565b60008760200151121561143557602085018051600160f91b176001600160f81b03191690525b5050949350505050565b6060015161ffff16151590565b600080808061145b86886123d0565b64ffffffffff81168c5292965090945092509050611478886118db565b1561148257600080fd5b60ff82166040890152846114a157600760ff831611156114a157600080fd5b83156114c457602088018051600160f81b176001600160f81b03191690526114d3565b602088018051607f60f91b1690525b6114e0886080015161260f565b6001600160701b031916608089015260005b83156115235760f084901c818114611515576115158a826001600160ff1b6121d1565b60109490941b9390506114f2565b505050505050505050565b600061153861268a565b6001600160a01b03831660008181526020838152604080832088518154938a0151838b015160608c015160808d015160701c600160481b027affffffffffffffffffffffffffffffffffff0000000000000000001961ffff909216600160381b0268ffff000000000000001960ff94909416600160301b0266ff0000000000001960f89690961c650100000000000265ff00000000001964ffffffffff90981664ffffffffff19909b169a909a1796909616989098179390931693909317169490941716929092179091555192935090917f6bd4b121bca854a191536a2ca891155c42ee2fb23f307fb34e8bc65cfcb5412e9190a2505050565b600061163d82612697565b905060008082121561164e57600080fd5b600084600681111561165c57fe5b14156116695750506116ff565b600184600681111561167757fe5b148061168e5750600384600681111561168c57fe5b145b156116a7576116a085878460006110ea565b90506116f3565b60028460068111156116b557fe5b14806116cc575060048460068111156116ca57fe5b145b156116dc576116a0858784610fba565b60068460068111156116ea57fe5b14156116f35750805b610657858584846126ad565b50505050565b600061171084612697565b9050600081121561172057600080fd5b8215611758576117498560800151610f9987606001518860200151610eb690919063ffffffff16565b90506000811215611758575060005b608085015161176790826128c8565b6080860152611778858888856111c4565b5050505050505050565b6000806000806000806117936128de565b6001600160a01b039097166000908152602097909752505060409094205461ffff81169563ffffffff62010000830481169650600160301b830416945060ff600160501b8304169350600160581b90910460d81b9150565b6000811215801561181e57508061181b8360800151610f9985606001518660200151610eb690919063ffffffff16565b12155b6108dc5760405162461bcd60e51b815260040161017a90614abd565b611842613fac565b600061184c61268a565b6001600160a01b039390931660009081526020938452604090819020815160a081018352905464ffffffffff8116825265010000000000810460f81b6001600160f81b03191695820195909552600160301b850460ff1691810191909152600160381b840461ffff166060820152600160481b90930460701b6001600160701b03191660808401525090919050565b6000426118e78361143f565b15611908576118f5816128eb565b835164ffffffffff16109150610bd39050565b825164ffffffffff1615801590610bc85750825164ffffffffff1611159050610bd3565b6060600061193a8484612909565b9050600181511161194c579050610ecc565b610a9481612a2a565b600081158015906119685750613fff8211155b61197157600080fd5b6080830151606084015161ffff16831415611990576001915050610ecc565b6001600160701b03198116156119d55760f081901c613fff16838114156119c25750600160fe1b908116149050610ecc565b5060101b6001600160801b031916611990565b5060009392505050565b60008060008060006119ef612be2565b6001600160a01b0388166000908152602082815260408083208a84529091529020805469ffffffffffffffffffff81169650600160501b900463ffffffff1694509091508315611a5b578054611a5490600160701b900466ffffffffffffff16612bef565b9250611a70565b8054600160701b900466ffffffffffffff1692505b54600160a81b9004600a90810b900b97939650919450925050565b818102600019831415611abb57811580611aad575082828281611aaa57fe5b05145b611ab657600080fd5b610ecc565b821580611ad0575081838281611acd57fe5b05145b610ecc57600080fd5b6000806000806000611aea86612bfd565b909250905060006001600160a01b038316611b0f5750600090506402540be400611b91565b826001600160a01b0316631ee108336040518163ffffffff1660e01b8152600401602060405180830381600087803b158015611b4a57600080fd5b505af1158015611b5e573d6000803e3d6000fd5b505050506040513d601f19601f82011682018060405250810190611b829190614422565b905060008113611b9157600080fd5b969195509350915050565b611ba461406c565b6000611bae612c34565b6000858152602082815260408083208715158452825291829020825160a08101845281546001600160a01b038116825260ff600160a01b82048116151594830194909452600160b01b81048416600a0a9482019490945293945092916060830191600160a81b909104166005811115611c2357fe5b81529154600160b81b900468ffffffffffffffffff16602090920191909152949350505050565b600081600019148015611c605750600160ff1b83145b15611c6a57600080fd5b818381611c7357fe5b059392505050565b80600585606001516005811115611c8e57fe5b1415611cb3576000611c9f84610f2c565b9050611caf816000015184612c41565b9250505b6000821315611cdf576000611cc9868685612cd3565b9050856020015115611cd9578091505b50610f70565b600385606001516005811115611cf157fe5b1415611d0e57611d0984611d0484610ed2565b612dc6565b610f70565b8451610f709085611d1e85610ed2565b612e01565b600080821215611d3257600080fd5b5090565b600080600585606001516005811115611d4b57fe5b14611d5d576370a0823160e01b611d66565b630ed1279f60e11b5b90506000611d7986600001513084612e78565b9050600586606001516005811115611d8d57fe5b1415611db4576000611da28661ffff16610f2c565b9050611dae8186612f8a565b50611df7565b600186606001516005811115611dc657fe5b1415611dd657611dae8685612ff5565b600286606001516005811115611de857fe5b141561007b57611df7866130a1565b6000611e0887600001513085612e78565b9050611e1c611e1782846130e0565b612697565b979650505050505050565b60006305f5e10083604001511415611e40575080610ecc565b6040830151610a9490610f6a846305f5e100611a8b565b600081611e6657506000610ecc565b60008213611e7357600080fd5b6000611e7e84610f2c565b90506000611e8f826000015161313d565b9050600281056b033b2e3c9fd0803ce80000006001600160ff1b0382900305851315611eba57600080fd5b81816b033b2e3c9fd0803ce800000087020181611ed357fe5b059695505050505050565b6000806000611ef4866000015161ffff1661109f565b90506000611f0f8760800151836110b290919063ffffffff16565b905080611f2457600080935093505050611f8c565b848015611f315750600081125b15611f66578651611f539061ffff1687611f4a84610ed2565b859291906131c8565b9350611f5f8282611e27565b9250611f89565b8651611f7a908390889061ffff1684611c7b565b9350611f868285611e27565b92505b50505b935093915050565b825160009042908290611faa9061ffff1661325e565b90506000611fbd828860c0015185613284565b9050611fcb87838388613367565b93506000611fd883613494565b90506001600160a01b0381161561206657806001600160a01b0316631d684dd2888a6000015161200b8c60400151611d23565b8a8d60c001518b6040518763ffffffff1660e01b815260040161203396959493929190614815565b600060405180830381600087803b15801561204d57600080fd5b505af1158015612061573d6000803e3d6000fd5b505050505b8415612076576120768786613506565b505050509392505050565b600061208b612be2565b6001600160a01b0388166000908152602082815260408083208a845290915290209091506a7fffffffffffffffffffff1986128015906120d657506a7fffffffffffffffffffff8613155b6120df57600080fd5b600085121580156120fa575069ffffffffffffffffffff8513155b61210357600080fd5b836121435766ffffffffffffff83111561211c57600080fd5b805466ffffffffffffff60701b1916600160701b66ffffffffffffff85160217815561215d565b8054600160501b900463ffffffff16841461215d57600080fd5b8054600a9690960b6affffffffffffffffffffff16600160a81b026001600160a81b0369ffffffffffffffffffff90961669ffffffffffffffffffff1963ffffffff909616600160501b0263ffffffff60501b19909816979097179490941695909517939093169190911790925550505050565b8260001080156121e35750613fff8311155b6121ec57600080fd5b818015612200575082846060015161ffff16145b1561220a576116ff565b6080840151600090815b6001600160701b03198216156123855760f082901c613fff1686811480156122395750855b1561227157506080870180516001600160f01b0319861660109093029290921c919091176001600160701b0319169052506116ff9050565b868114801561227e575085155b156122d3576001600160f01b03198516199290921691600360fe1b83166122b1576010836001600160701b031916901b92505b506001600160701b031991821660109091021c919091171660808501526116ff565b86811180156122df5750855b15612339576080888101516001600160f01b031960f08a901b88178116601086021c9690961795911b161561231357600080fd5b506001600160701b03199182166001919091016010021c919091171660808501526116ff565b8681118015612346575085155b1561235457505050506116ff565b506001600160f01b0319821660108281029190911c93909317929190911b6001600160801b03191690600101612214565b84612392575050506116ff565b6009811061239f57600080fd5b6001600160f01b031960f087901b85171660109091021c919091176001600160701b03191660808601525050505050565b6000808080808080805b8951518110156124615760008a6000015182815181106123f657fe5b6020026020010151905060038081111561240c57fe5b8160a00151600381111561241c57fe5b141561242757600080fd5b60028160a00151600381111561243957fe5b1415801561244957506060810151155b15612458576124588b83613525565b506001016123da565b5060005b8951518110156125045760008a60000151828151811061248157fe5b602002602001015190506002600381111561249857fe5b8160a0015160038111156124a857fe5b14156124bc576080810151600090556124fb565b60018160a0015160038111156124ce57fe5b14156124e7576080810151806124e48382613674565b50505b6124f3818686866137a5565b919650945092505b50600101612465565b5060608901516000612514613808565b6001600160a01b038b1660009081526020829052604081209192505b8c60200151518110156125de5760008d60200151828151811061254f57fe5b6020026020010151905080606001516000141561256c57506125d6565b60028160a00151600381111561257e57fe5b1415801561259c575060038160a00151600381111561259957fe5b14155b6125a557600080fd5b6125b1818989896137a5565b919950975095506125ce818487601081106125c857fe5b01613674565b600185019450505b600101612530565b50601083111580156125f5575064ffffffffff8411155b6125fe57600080fd5b50939a929950975095509350505050565b6000807f7fff7fff7fff7fff7fff7fff7fff7fff7fff00000000000000000000000000008316815b6001600160701b031982161561268157600160fe1b828116141561266b576001600160f01b03198216811c92909217916010015b6010826001600160701b031916901b9150612637565b50909392505050565b600080610ecc6001613811565b60006001600160ff1b03821115611d3257600080fd5b60038360068111156126bb57fe5b14806126d2575060048360068111156126d057fe5b145b806126e8575060068360068111156126e657fe5b145b156127b4576126f784826117eb565b606084015161270690826128c8565b60608501528351604051632128561360e11b815260009173__$892f367d396be2b92d3b049e6e62920984$__91634250ac2691612747918690600401614b16565b60206040518083038186803b15801561275f57600080fd5b505af4158015612773573d6000803e3d6000fd5b505050506040513d601f19601f820116820180604052508101906127979190614422565b60c08601519091506127a99082610eb6565b60c0860152506116ff565b60058360068111156127c257fe5b14156116ff57816127ec8560c00151610f998760a001518860400151610eb690919063ffffffff16565b121561280a5760405162461bcd60e51b815260040161017a906149e1565b60c084015161281990836128c8565b60c085015283516040516352e73f7760e01b815260009173__$43fd92ea4ea9b72ca0014644dbfd757564$__916352e73f779161285a918790600401614b16565b60206040518083038186803b15801561287257600080fd5b505af4158015612886573d6000803e3d6000fd5b505050506040513d601f19601f820116820180604052508101906128aa9190614422565b60608601519091506128bc9082610eb6565b60608601525050505050565b80820382811315600083121514610ecc57600080fd5b600080610ecc6002613811565b6000620151808210156128fd57600080fd5b50620151808106900390565b606060108260ff16111561291c57600080fd5b6000612926613808565b6001600160a01b038516600090815260208290526040812091925060ff85166001600160401b038111801561295a57600080fd5b5060405190808252806020026020018201604052801561299457816020015b612981614002565b8152602001906001900390816129795790505b50905060005b8560ff16811015612a205760008382601081106129b357fe5b01905060008383815181106129c457fe5b602090810291909101810151835461ffff8116825264ffffffffff620100008204169282019290925260ff600160381b8304166040820152600160401b909104600a90810b900b6060820152608001919091525060010161299a565b5095945050505050565b80516000816001600160401b0381118015612a4457600080fd5b50604051908082528060200260200182016040528015612a6e578160200160208202803683370190505b50905060005b82811015612acb576000848281518110612a8a57fe5b60200260200101519050612aab81600001518260200151836040015161382a565b838381518110612ab757fe5b602090810291909101015250600101612a74565b5060015b828110156116ff57805b600081118015612b115750828181518110612af057fe5b6020026020010151836001830381518110612b0757fe5b6020026020010151115b15612bd957828181518110612b2257fe5b6020026020010151836001830381518110612b3957fe5b6020026020010151846001840381518110612b5057fe5b60200260200101858481518110612b6357fe5b6020026020010182815250828152505050848181518110612b8057fe5b6020026020010151856001830381518110612b9757fe5b6020026020010151866001840381518110612bae57fe5b60200260200101878481518110612bc157fe5b60209081029190910101919091525260001901612ad9565b50600101612acf565b600080610ecc6006613811565b600881901c60ff9091161b90565b6000806000612c0a613885565b600094855260205250506040909120546001600160a01b03811692600160a01b90910460ff169150565b600080610ecc6007613811565b600081612c5057506000610ecc565b6000612c5b8461313d565b90506000612c6884613892565b9050816b019d971e4fe8401e74000001600160ff1b0381612c8557fe5b05811315612c9257600080fd5b6b033b2e3c9fd0803ce80000006b019d971e4fe8401e74000000838302010560008513612cc757612cc281610ed2565b612cc9565b805b9695505050505050565b6000808080600587606001516005811115612cea57fe5b14612cfc576370a0823160e01b612d05565b630ed1279f60e11b5b9050866020015115612d21578651612d1e903083612e78565b92505b8651612d2e9087876138b3565b866020015180612d42575060008760800151115b15612d57578651612d54903083612e78565b91505b608087015115612d92576000612d7588612d7085612697565b611e27565b9050612d848860800151612697565b811315612d9057600080fd5b505b866020015115612db357612da9611e1783856130e0565b9350505050610a94565b612da985612697565b5050509392505050565b6040516001600160a01b0383169082156108fc029083906000818181858888f19350505050158015612dfc573d6000803e3d6000fd5b505050565b826001600160a01b031663a9059cbb83836040518363ffffffff1660e01b815260040180836001600160a01b0316815260200182815260200192505050600060405180830381600087803b158015612e5857600080fd5b505af1158015612e6c573d6000803e3d6000fd5b50505050612dfc61390b565b604080516001600160a01b0384811660248084019190915283518084039091018152604490920183526020820180516001600160e01b03166001600160e01b0319861617815292518251600094859485948a16939092909182918083835b60208310612ef55780518252601f199092019160209182019101612ed6565b6001836020036101000a038019825116818451168082178552505050505050905001915050600060405180830381855afa9150503d8060008114612f55576040519150601f19603f3d011682016040523d82523d6000602084013e612f5a565b606091505b509150915081612f6957600080fd5b808060200190516020811015612f7e57600080fd5b50519695505050505050565b612f92613978565b54825160405163e8eda9df60e01b81526001600160a01b039092169163e8eda9df91612fc791859030906000906004016148ab565b600060405180830381600087803b158015612fe157600080fd5b505af1158015610657573d6000803e3d6000fd5b60008083600001516001600160a01b031663a0712d68846040518263ffffffff1660e01b815260040161302891906148fe565b602060405180830381600087803b15801561304257600080fd5b505af1158015613056573d6000803e3d6000fd5b505050506040513d601f19601f8201168201806040525081019061307a9190614422565b9050801561309a5760405162461bcd60e51b815260040161017a9061492d565b5092915050565b80600001516001600160a01b0316631249c58b346040518263ffffffff1660e01b81526004016000604051808303818588803b158015612fe157600080fd5b600082821115613137576040805162461bcd60e51b815260206004820152601e60248201527f536166654d6174683a207375627472616374696f6e206f766572666c6f770000604482015290519081900360640190fd5b50900390565b6000610bd061314a613978565b5460405163d15e005360e01b81526001600160a01b039091169063d15e00539061317890869060040161468b565b60206040518083038186803b15801561319057600080fd5b505afa1580156131a4573d6000803e3d6000fd5b505050506040513d601f19601f82011682018060405250810190611e179190614422565b6000806002866060015160058111156131dd57fe5b14156131f5576131ee868585613985565b9050613252565b600061320086610f2c565b905060058760600151600581111561321457fe5b141561322c57613225818686613a42565b9150613250565b60018760600151600581111561323e57fe5b141561007b5761322587828787613af8565b505b612cc96103ea82612697565b600080613269613bf6565b6000938452602052505060409020546001600160a01b031690565b60008060006132938685613c03565b509150915060006132a2613c99565b6001600160a01b03881660009081526020829052604081209192506132c78589610eb6565b9050806000131580156132e057506001600160601b0381105b6132e957600080fd5b81546bffffffffffffffffffffffff19166001600160601b038216176fffffffffffffffffffffffffffffffff60601b1916600160601b6001600160801b0386160217825563ffffffff871061333e57600080fd5b50805463ffffffff8716600160e01b026001600160e01b03909116179055509150509392505050565b60e0840151600090156134285773__$b21a4dc043b77aa57922ad9143a3cb040e$__63e0c01a728561339c8860400151611d23565b8860e001518961010001516040518563ffffffff1660e01b81526004016133c694939291906148d8565b60206040518083038186803b1580156133de57600080fd5b505af41580156133f2573d6000803e3d6000fd5b505050506040513d601f19601f820116820180604052508101906134169190614422565b600060e0870181905261010087015290505b61346a61346386610100015161345d670de0b6b3a7640000613457886134518c60400151611d23565b90613ca6565b90613cff565b906130e0565b8290613d66565b9050613482670de0b6b3a76400006134578486613ca6565b85610100018181525050949350505050565b60008061349f6128de565b6001600160a01b0384166000908152602082905260409020805491925090600160f81b900460ff16156134fb576134d4613dc0565b6001600160a01b038086166000908152602092909252604090912054169250610bd3915050565b600092505050610bd3565b6108dc73cfeaead4947f0705a14ec42ac3d44129e1ef3ed58383612e01565b815151811061353357600080fd5b600082606001511161354457600080fd5b60008260000151828151811061355657fe5b602002602001015190506002600381111561356d57fe5b8160a00151600381111561357d57fe5b1415801561359b575060038160a00151600381111561359857fe5b14155b6135a457600080fd5b606083018051600019019052600080805b855151811015613617576000866000015182815181106135d157fe5b602002602001015190508281608001511180156135fe575060028160a0015160038111156135fb57fe5b14155b1561360e57806080015192508193505b506001016135b5565b5081841415613630575050600260a091909101526108dc565b60008560000151838151811061364257fe5b602090810291909101015160808581018051918301805190915252600160a09182015260029401939093525050505050565b81511580159061368757508151613fff10155b61369057600080fd5b816020015160001080156136ad5750602082015164ffffffffff10155b6136b657600080fd5b816040015160001080156136cf57506040820151600810155b6136d857600080fd5b60608201516a7fffffffffffffffffffff1913801590613707575060608201516a7fffffffffffffffffffff12155b61371057600080fd5b8151815460208401516040850151606090950151600a0b6affffffffffffffffffffff16600160401b0272ffffffffffffffffffffff00000000000000001960ff909616600160381b0267ff000000000000001964ffffffffff909316620100000266ffffffffff00001961ffff90961661ffff19909516949094179490941692909217169190911792909216919091179055565b6000806000806137b488613dcd565b90508415806137c257508085115b156137cb578094505b86806137db575060008860600151125b965061ffff8616156137ec57600080fd5b50509451939560109390931c60f09490941b9390931793509150565b600080610ecc600d5b6000620f424082601381111561382357fe5b0192915050565b6000613fff84111561383b57600080fd5b64ffffffffff83111561384d57600080fd5b600882111561385b57600080fd5b5067ffff000000000000603084901b1665ffffffffff00600884901b161760ff8216179392505050565b600080610ecc600f613811565b6000808212156138ac576138a582610ed2565b9050610bd3565b5080610bd3565b604080516323b872dd60e01b81526001600160a01b038481166004830152306024830152604482018490529151918516916323b872dd9160648082019260009290919082900301818387803b158015612e5857600080fd5b600061391561409b565b3d8015613929576020811461393257600080fd5b6001925061393d565b60206000833e815192505b50816108dc576040805162461bcd60e51b8152602060048201526005602482015264045524332360dc1b604482015290519081900360640190fd5b600080610ecc6013613811565b825160405163db006a7560e01b8152600091479183916001600160a01b03169063db006a75906139b99087906004016148fe565b602060405180830381600087803b1580156139d357600080fd5b505af11580156139e7573d6000803e3d6000fd5b505050506040513d601f19601f82011682018060405250810190613a0b9190614422565b90508015613a2b5760405162461bcd60e51b815260040161017a90614970565b47613a3681846130e0565b9350612dbc8685612dc6565b6000613a62613a5d8560000151613a5885612697565b612c41565b611d23565b9050613a6c613978565b548451604051631a4ca37b60e21b81526001600160a01b03909216916369328dec91613a9e9185908890600401614888565b602060405180830381600087803b158015613ab857600080fd5b505af1158015613acc573d6000803e3d6000fd5b505050506040513d601f19601f82011682018060405250810190613af09190614422565b509392505050565b82516000908190613b1190306370a0823160e01b612e78565b9050600086600001516001600160a01b031663db006a75856040518263ffffffff1660e01b8152600401613b4591906148fe565b602060405180830381600087803b158015613b5f57600080fd5b505af1158015613b73573d6000803e3d6000fd5b505050506040513d601f19601f82011682018060405250810190613b979190614422565b90508015613bb75760405162461bcd60e51b815260040161017a90614970565b8551600090613bce90306370a0823160e01b612e78565b9050613bda81846130e0565b9350613beb87600001518786612e01565b505050949350505050565b600080610ecc6003613811565b6000806000613c1185613e3a565b919450925090508084118015613c275750600081115b8015613c335750600083115b15613c92576000613c4386611782565b5050509150506000613c6e613c656305f5e10084613ca690919063ffffffff16565b84880387613e96565b9050613c7a8482613d66565b93506001600160801b038410613c8f57600080fd5b50505b9250925092565b600080610ecc6011613811565b600082613cb557506000610ecc565b82820282848281613cc257fe5b0414610a945760405162461bcd60e51b8152600401808060200182810382526021815260200180614be96021913960400191505060405180910390fd5b6000808211613d55576040805162461bcd60e51b815260206004820152601a60248201527f536166654d6174683a206469766973696f6e206279207a65726f000000000000604482015290519081900360640190fd5b818381613d5e57fe5b049392505050565b600082820183811015610a94576040805162461bcd60e51b815260206004820152601b60248201527f536166654d6174683a206164646974696f6e206f766572666c6f770000000000604482015290519081900360640190fd5b600080610ecc6012613811565b6000808260400151118015613de757506040820151600810155b613df057600080fd5b6040820151600210613e0757506020810151610bd3565b6000613e196001846040015103613eb8565b6020840151909150610a94906276a70090613e3490846130e0565b90613d66565b600080600080613e48613c99565b6001600160a01b0395909516600090815260209590955250506040909220546001600160601b03811693600160601b82046001600160801b03169350600160e01b90910463ffffffff169150565b6000610f70826134576301da9c00818861345189670de0b6b3a7640000613ca6565b60008160011415613ecd57506276a700610bd3565b8160021415613ee0575062ed4e00610bd3565b8160031415613ef457506301da9c00610bd3565b8160041415613f0857506303b53800610bd3565b8160051415613f1c57506309450c00610bd3565b8160061415613f30575063128a1800610bd3565b8160071415613f4457506325143000610bd3565b60405162461bcd60e51b815260040161017a90614990565b604051806101200160405280600061ffff16815260200160008152602001600081526020016000815260200160008152602001600081526020016000815260200160008152602001600081525090565b6040805160a08101825260008082526020820181905291810182905260608101829052608081019190915290565b6040518060800160405280606081526020016060815260200160008152602001600081525090565b6040518060c0016040528060008152602001600081526020016000815260200160008152602001600081526020016000600381111561403d57fe5b905290565b604051806060016040528060006001600160a01b0316815260200160008152602001600081525090565b6040805160a0810182526000808252602082018190529181018290529060608201908152602001600081525090565b60405180602001604052806001906020820280368337509192915050565b80356001600160a01b0381168114610bd357600080fd5b60008083601f8401126140e1578081fd5b5081356001600160401b038111156140f7578182fd5b602083019150836020808302850101111561411157600080fd5b9250929050565b600082601f830112614128578081fd5b815160206001600160401b038083111561413e57fe5b61414b8283850201614ba4565b8381528281019086840160c0808702890186018a1015614169578788fd5b875b878110156141ea5781838c031215614181578889fd5b60408051838101818110898211171561419657fe5b82528451815288850151898201528482015191810191909152606080850151908201526080808501519082015260a0906141d1828601614211565b918101919091528552938601939181019160010161416b565b50919998505050505050505050565b80516001600160701b031981168114610bd357600080fd5b805160048110610bd357600080fd5b8051610bd381614bd8565b805160ff81168114610bd357600080fd5b600080600060408486031215614250578283fd5b614259846140b9565b925060208401356001600160401b03811115614273578283fd5b61427f868287016140d0565b9497909650939450505050565b6000806000806000606086880312156142a3578081fd5b6142ac866140b9565b945060208601356001600160401b03808211156142c7578283fd5b6142d389838a016140d0565b909650945060408801359150808211156142eb578283fd5b818801915088601f8301126142fe578283fd5b81358181111561430c578384fd5b89602082850101111561431d578384fd5b9699959850939650602001949392505050565b600080600060408486031215614344578283fd5b61434d846140b9565b925060208401356001600160401b0380821115614368578384fd5b818601915086601f83011261437b578384fd5b813581811115614389578485fd5b87602060c08302850101111561439d578485fd5b6020830194508093505050509250925092565b6000806000604084860312156143c4578081fd5b6143cd846140b9565b925060208401356001600160401b03811115614273578182fd5b6000602082840312156143f8578081fd5b8135610a9481614bc7565b600060208284031215614414578081fd5b813560078110610a94578182fd5b600060208284031215614433578081fd5b5051919050565b6000806040838503121561444c578182fd5b82519150602083015161445e81614bc7565b809150509250929050565b600060a0828403121561447a578081fd5b60405160a081018181106001600160401b038211171561449657fe5b604052825164ffffffffff811681146144ad578283fd5b815260208301516001600160f81b0319811681146144c9578283fd5b60208201526144da6040840161422b565b60408201526144eb60608401614220565b60608201526144fc608084016141f9565b60808201529392505050565b6000806040838503121561451a578182fd5b82516001600160401b0380821115614530578384fd5b9084019060808287031215614543578384fd5b60405160808101818110838211171561455857fe5b604052825182811115614569578586fd5b61457588828601614118565b825250602083015182811115614589578586fd5b61459588828601614118565b6020830152506040830151604082015260608301516060820152809450505050602083015190509250929050565b6000602082840312156145d4578081fd5b8135610a9481614bd8565b81835260006001600160fb1b038311156145f7578081fd5b6020830280836020870137939093016020019283525090919050565b6000815180845260208085019450808401835b8381101561468057815180518852838101518489015260408082015190890152606080820151908901526080808201519089015260a090810151906004821061466b57fe5b88015260c09096019590820190600101614626565b509495945050505050565b6001600160a01b0391909116815260200190565b6001600160a01b038581168252841660208201526060604082018190528101829052600082846080840137818301608090810191909152601f909201601f191601019392505050565b6001600160a01b0396871681529486166020860152928516604085015290841660608401528316608083015290911660a082015260c00190565b6001600160a01b03929092168252805164ffffffffff166020808401919091528101516001600160f81b03191660408084019190915281015160ff1660608084019190915281015161ffff1660808084019190915201516001600160701b03191660a082015260c00190565b600060018060a01b038716825261ffff861660208301526080604083015284516080808401526147c2610100840182614613565b90506020860151607f198483030160a08501526147df8282614613565b915050604086015160c0840152606086015160e084015282810360608401526148098185876145df565b98975050505050505050565b6001600160a01b0396909616865261ffff94909416602086015260408501929092526060840152608083015260a082015260c00190565b6001600160a01b038616815261ffff8516602082015264ffffffffff84166040820152608060608201819052600090611e1c90830184866145df565b6001600160a01b0393841681526020810192909252909116604082015260600190565b6001600160a01b03948516815260208101939093529216604082015261ffff909116606082015260800190565b6001600160a01b0394909416845260208401929092526040830152606082015260800190565b90815260200190565b6020808252600c908201526b155b985d5d1a1bdc9a5e995960a21b604082015260600190565b602080825260049082015263135a5b9d60e21b604082015260600190565b6020808252600b908201526a4554482042616c616e636560a81b604082015260600190565b60208082526006908201526552656465656d60d01b604082015260600190565b6020808252600d908201526c092dcecc2d8d2c840d2dcc8caf609b1b604082015260600190565b60208082526010908201526f556e736f7274656420616374696f6e7360801b604082015260600190565b6020808252601a908201527f496e73756666696369656e7420746f6b656e2062616c616e6365000000000000604082015260600190565b6020808252600e908201526d1499595b9d1c985b9d0818d85b1b60921b604082015260600190565b60208082526008908201526709ccace4086c2e6d60c31b604082015260600190565b6020808252601a908201527f496e76616c69642074726164657320666f72206163636f756e74000000000000604082015260600190565b6020808252600a90820152692732b390372a37b5b2b760b11b604082015260600190565b602080825260119082015270092dce6eaccccd2c6d2cadce840c6c2e6d607b1b604082015260600190565b602080825260149082015273125b9cdd59999a58da595b9d0819195c1bdcda5d60621b604082015260600190565b61ffff929092168252602082015260400190565b6000808335601e19843603018112614b40578283fd5b8301803591506001600160401b03821115614b59578283fd5b602090810192508102360382131561411157600080fd5b6000823560de19833603018112614b85578182fd5b9190910192915050565b60008235605e19833603018112614b85578182fd5b6040518181016001600160401b0381118282101715614bbf57fe5b604052919050565b8015158114614bd557600080fd5b50565b61ffff81168114614bd557600080fdfe536166654d6174683a206d756c7469706c69636174696f6e206f766572666c6f77a264697066735822122075c2484a6252ad6a8d692532921b8009ab690e34f76da93696d53d97a83d9dcd64736f6c63430007060033","language":"Solidity","natspec":{"kind":"dev","methods":{"batchBalanceAction(address,(uint8,uint16,uint256,uint256,bool,bool)[])":{"details":"emit:CashBalanceChange, emit:nTokenSupplyChangeauth:msg.sender auth:ERC1155","notice":"Executes a batch of balance transfers including minting and redeeming nTokens.","params":{"account":"the account for the action","actions":"array of balance actions to take, must be sorted by currency id"}},"batchBalanceAndTradeAction(address,(uint8,uint16,uint256,uint256,bool,bool,bytes32[])[])":{"details":"emit:CashBalanceChange, emit:nTokenSupplyChange, emit:LendBorrowTrade, emit:AddRemoveLiquidity,emit:SettledCashDebt, emit:nTokenResidualPurchase, emit:ReserveFeeAccruedauth:msg.sender auth:ERC1155","notice":"Executes a batch of balance transfers and trading actions","params":{"account":"the account for the action","actions":"array of balance actions with trades to take, must be sorted by currency id"}},"batchBalanceAndTradeActionWithCallback(address,(uint8,uint16,uint256,uint256,bool,bool,bytes32[])[],bytes)":{"details":"emit:CashBalanceChange, emit:nTokenSupplyChange, emit:LendBorrowTrade, emit:AddRemoveLiquidity,emit:SettledCashDebt, emit:nTokenResidualPurchase, emit:ReserveFeeAccruedauth:authorizedCallbackContract","notice":"Executes a batch of balance transfers and trading actions via an authorized callback contract. This can be used as a \"flash loan\" facility for special contracts that migrate assets between protocols or perform other actions on behalf of the user. Contracts can borrow from Notional and receive a callback prior to an FC check, this can be useful if the contract needs to perform a trade or repay a debt on a different protocol before depositing collateral. Since Notional's AMM will never be as capital efficient or gas efficient as other flash loan facilities, this method requires whitelisting and will mainly be used for contracts that make migrating assets a better user experience.","params":{"account":"the account that will take all the actions","actions":"array of balance actions with trades to take, must be sorted by currency id","callbackData":"arbitrary bytes to be passed backed to the caller in the callback"}},"batchLend(address,(uint16,bool,bytes32[])[])":{"details":"Note that this method does not work with native ETH because it requires the ability to pull payment from an ERC20 token. Therefore, this method is marked as nonpayable. It will still work with cETH or aETH.emit:CashBalanceChange, emit:LendBorrowTrade emit:SettledCashDebtauth:msg.sender auth:ERC1155","notice":"Executes a batch of lending actions. This is different from batchBalanceAndTrade because it always pulls the required amount of tokens to get an account to a cash balance of zero. It reduces the gas costs for lending because there is no second token transfer where residual balances are sent back to the account.","params":{"account":"the account for the action","actions":"array of batch lending actions"}},"getLibInfo()":{"notice":"Get a list of deployed library addresses (sorted by library name)"}},"version":1},"opcodes":"PUSH1 0x80 PUSH1 0x40 MSTORE PUSH1 0x4 CALLDATASIZE LT PUSH2 0x7B JUMPI PUSH1 0x0 CALLDATALOAD PUSH1 0xE0 SHR DUP1 PUSH4 0x6E6A32A6 GT PUSH2 0x4E JUMPI DUP1 PUSH4 0x6E6A32A6 EQ PUSH2 0xF3 JUMPI DUP1 PUSH4 0x82463367 EQ PUSH2 0x106 JUMPI DUP1 PUSH4 0x8DA5CB5B EQ PUSH2 0x11B JUMPI DUP1 PUSH4 0xC4C96DAE EQ PUSH2 0x130 JUMPI PUSH2 0x7B JUMP JUMPDEST DUP1 PUSH4 0x276B64B EQ PUSH2 0x80 JUMPI DUP1 PUSH4 0x24A3D622 EQ PUSH2 0x95 JUMPI DUP1 PUSH4 0x541F5270 EQ PUSH2 0xC0 JUMPI DUP1 PUSH4 0x5950D8E9 EQ PUSH2 0xE0 JUMPI JUMPDEST PUSH1 0x0 DUP1 REVERT JUMPDEST PUSH2 0x93 PUSH2 0x8E CALLDATASIZE PUSH1 0x4 PUSH2 0x423C JUMP JUMPDEST PUSH2 0x157 JUMP JUMPDEST STOP JUMPDEST CALLVALUE DUP1 ISZERO PUSH2 0xA1 JUMPI PUSH1 0x0 DUP1 REVERT JUMPDEST POP PUSH2 0xAA PUSH2 0x1E7 JUMP JUMPDEST PUSH1 0x40 MLOAD PUSH2 0xB7 SWAP2 SWAP1 PUSH2 0x468B JUMP JUMPDEST PUSH1 0x40 MLOAD DUP1 SWAP2 SUB SWAP1 RETURN JUMPDEST CALLVALUE DUP1 ISZERO PUSH2 0xCC JUMPI PUSH1 0x0 DUP1 REVERT JUMPDEST POP PUSH2 0x93 PUSH2 0xDB CALLDATASIZE PUSH1 0x4 PUSH2 0x43B0 JUMP JUMPDEST PUSH2 0x1F6 JUMP JUMPDEST PUSH2 0x93 PUSH2 0xEE CALLDATASIZE PUSH1 0x4 PUSH2 0x428C JUMP JUMPDEST PUSH2 0x52F JUMP JUMPDEST PUSH2 0x93 PUSH2 0x101 CALLDATASIZE PUSH1 0x4 PUSH2 0x4330 JUMP JUMPDEST PUSH2 0x65F JUMP JUMPDEST CALLVALUE DUP1 ISZERO PUSH2 0x112 JUMPI PUSH1 0x0 DUP1 REVERT JUMPDEST POP PUSH2 0xAA PUSH2 0x7E5 JUMP JUMPDEST CALLVALUE DUP1 ISZERO PUSH2 0x127 JUMPI PUSH1 0x0 DUP1 REVERT JUMPDEST POP PUSH2 0xAA PUSH2 0x7F4 JUMP JUMPDEST CALLVALUE DUP1 ISZERO PUSH2 0x13C JUMPI PUSH1 0x0 DUP1 REVERT JUMPDEST POP PUSH2 0x145 PUSH2 0x80B JUMP JUMPDEST PUSH1 0x40 MLOAD PUSH2 0xB7 SWAP7 SWAP6 SWAP5 SWAP4 SWAP3 SWAP2 SWAP1 PUSH2 0x46E8 JUMP JUMPDEST PUSH1 0x2 PUSH1 0xA SLOAD EQ ISZERO PUSH2 0x183 JUMPI PUSH1 0x40 MLOAD PUSH3 0x461BCD PUSH1 0xE5 SHL DUP2 MSTORE PUSH1 0x4 ADD PUSH2 0x17A SWAP1 PUSH2 0x4A18 JUMP JUMPDEST PUSH1 0x40 MLOAD DUP1 SWAP2 SUB SWAP1 REVERT JUMPDEST PUSH1 0x2 PUSH1 0xA SSTORE PUSH1 0x1 PUSH1 0x1 PUSH1 0xA0 SHL SUB DUP4 AND CALLER EQ DUP1 PUSH2 0x19E JUMPI POP CALLER ADDRESS EQ JUMPDEST PUSH2 0x1BA JUMPI PUSH1 0x40 MLOAD PUSH3 0x461BCD PUSH1 0xE5 SHL DUP2 MSTORE PUSH1 0x4 ADD PUSH2 0x17A SWAP1 PUSH2 0x4907 JUMP JUMPDEST PUSH2 0x1C3 DUP4 PUSH2 0x891 JUMP JUMPDEST PUSH1 0x0 PUSH2 0x1D0 DUP5 DUP5 DUP5 PUSH2 0x8E0 JUMP JUMPDEST SWAP1 POP PUSH2 0x1DC DUP5 DUP3 PUSH2 0xA9B JUMP JUMPDEST POP POP PUSH1 0x1 PUSH1 0xA SSTORE POP POP JUMP JUMPDEST PUSH1 0x2 SLOAD PUSH1 0x1 PUSH1 0x1 PUSH1 0xA0 SHL SUB AND DUP2 JUMP JUMPDEST PUSH1 0x2 PUSH1 0xA SLOAD EQ ISZERO PUSH2 0x219 JUMPI PUSH1 0x40 MLOAD PUSH3 0x461BCD PUSH1 0xE5 SHL DUP2 MSTORE PUSH1 0x4 ADD PUSH2 0x17A SWAP1 PUSH2 0x4A18 JUMP JUMPDEST PUSH1 0x2 PUSH1 0xA SSTORE PUSH1 0x1 PUSH1 0x1 PUSH1 0xA0 SHL SUB DUP4 AND CALLER EQ DUP1 PUSH2 0x234 JUMPI POP CALLER ADDRESS EQ JUMPDEST PUSH2 0x250 JUMPI PUSH1 0x40 MLOAD PUSH3 0x461BCD PUSH1 0xE5 SHL DUP2 MSTORE PUSH1 0x4 ADD PUSH2 0x17A SWAP1 PUSH2 0x4907 JUMP JUMPDEST PUSH2 0x259 DUP4 PUSH2 0x891 JUMP JUMPDEST PUSH1 0x0 PUSH2 0x264 DUP5 PUSH2 0xB1C JUMP JUMPDEST SWAP1 POP PUSH1 0x0 PUSH2 0x278 DUP6 DUP4 PUSH1 0x40 ADD MLOAD PUSH1 0x0 PUSH2 0xBD8 JUMP JUMPDEST SWAP1 POP PUSH2 0x282 PUSH2 0x3F5C JUMP JUMPDEST PUSH1 0x0 JUMPDEST DUP5 DUP2 LT ISZERO PUSH2 0x4FD JUMPI CALLDATASIZE DUP7 DUP7 DUP4 DUP2 DUP2 LT PUSH2 0x29A JUMPI INVALID JUMPDEST SWAP1 POP PUSH1 0x20 MUL DUP2 ADD SWAP1 PUSH2 0x2AC SWAP2 SWAP1 PUSH2 0x4B8F JUMP JUMPDEST SWAP1 POP DUP2 ISZERO PUSH2 0x315 JUMPI DUP7 DUP7 PUSH1 0x1 DUP5 SUB DUP2 DUP2 LT PUSH2 0x2C3 JUMPI INVALID JUMPDEST SWAP1 POP PUSH1 0x20 MUL DUP2 ADD SWAP1 PUSH2 0x2D5 SWAP2 SWAP1 PUSH2 0x4B8F JUMP JUMPDEST PUSH2 0x2E3 SWAP1 PUSH1 0x20 DUP2 ADD SWAP1 PUSH2 0x45C3 JUMP JUMPDEST PUSH2 0xFFFF AND PUSH2 0x2F4 PUSH1 0x20 DUP4 ADD DUP4 PUSH2 0x45C3 JUMP JUMPDEST PUSH2 0xFFFF AND GT PUSH2 0x315 JUMPI PUSH1 0x40 MLOAD PUSH3 0x461BCD PUSH1 0xE5 SHL DUP2 MSTORE PUSH1 0x4 ADD PUSH2 0x17A SWAP1 PUSH2 0x49B7 JUMP JUMPDEST PUSH1 0x0 PUSH2 0x324 PUSH1 0x40 DUP4 ADD DUP4 PUSH2 0x4B2A JUMP JUMPDEST SWAP2 POP POP DUP1 PUSH2 0x331 JUMPI PUSH1 0x0 DUP1 REVERT JUMPDEST PUSH1 0x0 JUMPDEST DUP2 DUP2 LT ISZERO PUSH2 0x374 JUMPI PUSH1 0x0 PUSH2 0x34B PUSH1 0x40 DUP6 ADD DUP6 PUSH2 0x4B2A JUMP JUMPDEST DUP4 DUP2 DUP2 LT PUSH2 0x355 JUMPI INVALID JUMPDEST SWAP1 POP PUSH1 0x20 MUL ADD CALLDATALOAD PUSH1 0xF8 SHR PUSH1 0xFF AND EQ PUSH2 0x36C JUMPI PUSH1 0x0 DUP1 REVERT JUMPDEST PUSH1 0x1 ADD PUSH2 0x334 JUMP JUMPDEST POP PUSH2 0x38F DUP10 PUSH2 0x386 PUSH1 0x20 DUP6 ADD DUP6 PUSH2 0x45C3 JUMP JUMPDEST DUP7 SWAP2 SWAP1 DUP10 PUSH2 0xC6A JUMP JUMPDEST PUSH2 0x3B4 DUP10 PUSH2 0x3A0 PUSH1 0x20 DUP6 ADD DUP6 PUSH2 0x45C3 JUMP JUMPDEST PUSH2 0x3AD PUSH1 0x40 DUP7 ADD DUP7 PUSH2 0x4B2A JUMP JUMPDEST DUP11 DUP11 PUSH2 0xD10 JUMP JUMPDEST PUSH1 0x60 DUP7 ADD DUP3 SWAP1 MSTORE SWAP6 POP PUSH1 0x0 SLT ISZERO PUSH2 0x3CA JUMPI PUSH1 0x0 DUP1 REVERT JUMPDEST PUSH1 0x0 PUSH2 0x3EF PUSH2 0x3EA DUP7 PUSH1 0x60 ADD MLOAD DUP8 PUSH1 0x20 ADD MLOAD PUSH2 0xEB6 SWAP1 SWAP2 SWAP1 PUSH4 0xFFFFFFFF AND JUMP JUMPDEST PUSH2 0xED2 JUMP JUMPDEST SWAP1 POP PUSH1 0x0 DUP2 SGT ISZERO PUSH2 0x4E0 JUMPI PUSH2 0x40A PUSH1 0x40 DUP5 ADD PUSH1 0x20 DUP6 ADD PUSH2 0x43E7 JUMP JUMPDEST ISZERO PUSH2 0x4A8 JUMPI PUSH1 0x0 PUSH2 0x42A PUSH2 0x421 PUSH1 0x20 DUP7 ADD DUP7 PUSH2 0x45C3 JUMP JUMPDEST PUSH2 0xFFFF AND PUSH2 0xEE0 JUMP JUMPDEST SWAP1 POP PUSH1 0x0 PUSH2 0x447 PUSH2 0x43E PUSH1 0x20 DUP8 ADD DUP8 PUSH2 0x45C3 JUMP JUMPDEST PUSH2 0xFFFF AND PUSH2 0xF2C JUMP JUMPDEST SWAP1 POP PUSH1 0x0 PUSH2 0x455 DUP4 DUP6 PUSH2 0xF3F JUMP JUMPDEST SWAP1 POP PUSH1 0x0 PUSH2 0x463 DUP4 DUP4 PUSH2 0xF78 JUMP JUMPDEST SWAP1 POP PUSH1 0x0 PUSH2 0x47C DUP16 DUP4 DUP13 PUSH2 0xFBA SWAP1 SWAP3 SWAP2 SWAP1 PUSH4 0xFFFFFFFF AND JUMP JUMPDEST SWAP1 POP DUP6 DUP2 SLT ISZERO PUSH2 0x49E JUMPI PUSH1 0x40 MLOAD PUSH3 0x461BCD PUSH1 0xE5 SHL DUP2 MSTORE PUSH1 0x4 ADD PUSH2 0x17A SWAP1 PUSH2 0x4AE8 JUMP JUMPDEST POP POP POP POP POP PUSH2 0x4E0 JUMP JUMPDEST PUSH1 0x0 PUSH2 0x4C3 PUSH2 0x4BA PUSH1 0x20 DUP7 ADD DUP7 PUSH2 0x45C3 JUMP JUMPDEST PUSH2 0xFFFF AND PUSH2 0x109F JUMP JUMPDEST SWAP1 POP PUSH2 0x4DD DUP12 PUSH2 0x4D3 DUP4 DUP6 PUSH2 0x10B2 JUMP JUMPDEST DUP9 SWAP2 SWAP1 PUSH1 0x0 PUSH2 0x10EA JUMP JUMPDEST POP POP JUMPDEST PUSH2 0x4ED DUP6 DUP12 DUP10 PUSH1 0x0 PUSH2 0x11C4 JUMP JUMPDEST POP POP PUSH1 0x1 SWAP1 SWAP3 ADD SWAP2 POP PUSH2 0x285 SWAP1 POP JUMP JUMPDEST POP PUSH2 0x507 DUP4 PUSH2 0x143F JUMP JUMPDEST PUSH2 0x518 JUMPI PUSH2 0x518 DUP4 DUP8 DUP5 PUSH1 0x0 PUSH2 0x144C JUMP JUMPDEST PUSH2 0x522 DUP7 DUP5 PUSH2 0xA9B JUMP JUMPDEST POP POP PUSH1 0x1 PUSH1 0xA SSTORE POP POP POP POP JUMP JUMPDEST CALLER PUSH1 0x0 SWAP1 DUP2 MSTORE PUSH1 0x8 PUSH1 0x20 MSTORE PUSH1 0x40 SWAP1 KECCAK256 SLOAD PUSH1 0xFF AND PUSH2 0x55E JUMPI PUSH1 0x40 MLOAD PUSH3 0x461BCD PUSH1 0xE5 SHL DUP2 MSTORE PUSH1 0x4 ADD PUSH2 0x17A SWAP1 PUSH2 0x4907 JUMP JUMPDEST PUSH2 0x567 DUP6 PUSH2 0x891 JUMP JUMPDEST PUSH1 0x0 PUSH2 0x574 DUP7 DUP7 DUP7 PUSH2 0x8E0 JUMP JUMPDEST SWAP1 POP PUSH2 0x580 DUP2 DUP8 PUSH2 0x152E JUMP JUMPDEST PUSH1 0x40 MLOAD PUSH4 0x550D0657 PUSH1 0xE1 SHL DUP2 MSTORE CALLER SWAP1 PUSH4 0xAA1A0CAE SWAP1 PUSH2 0x5A9 SWAP1 DUP4 SWAP1 DUP11 SWAP1 DUP9 SWAP1 DUP9 SWAP1 PUSH1 0x4 ADD PUSH2 0x469F JUMP JUMPDEST PUSH1 0x0 PUSH1 0x40 MLOAD DUP1 DUP4 SUB DUP2 PUSH1 0x0 DUP8 DUP1 EXTCODESIZE ISZERO DUP1 ISZERO PUSH2 0x5C3 JUMPI PUSH1 0x0 DUP1 REVERT JUMPDEST POP GAS CALL ISZERO DUP1 ISZERO PUSH2 0x5D7 JUMPI RETURNDATASIZE PUSH1 0x0 DUP1 RETURNDATACOPY RETURNDATASIZE PUSH1 0x0 REVERT JUMPDEST POP POP POP POP PUSH1 0x20 DUP2 ADD MLOAD PUSH1 0x1 PUSH1 0x1 PUSH1 0xF8 SHL SUB NOT AND ISZERO PUSH2 0x657 JUMPI PUSH1 0x40 MLOAD PUSH4 0x6CCC642F PUSH1 0xE0 SHL DUP2 MSTORE PUSH20 0x0 SWAP1 PUSH4 0x6CCC642F SWAP1 PUSH2 0x626 SWAP1 DUP10 SWAP1 PUSH1 0x4 ADD PUSH2 0x468B JUMP JUMPDEST PUSH1 0x0 PUSH1 0x40 MLOAD DUP1 DUP4 SUB DUP2 DUP7 DUP1 EXTCODESIZE ISZERO DUP1 ISZERO PUSH2 0x63E JUMPI PUSH1 0x0 DUP1 REVERT JUMPDEST POP GAS DELEGATECALL ISZERO DUP1 ISZERO PUSH2 0x652 JUMPI RETURNDATASIZE PUSH1 0x0 DUP1 RETURNDATACOPY RETURNDATASIZE PUSH1 0x0 REVERT JUMPDEST POP POP POP POP JUMPDEST POP POP POP POP POP POP JUMP JUMPDEST PUSH1 0x2 PUSH1 0xA SLOAD EQ ISZERO PUSH2 0x682 JUMPI PUSH1 0x40 MLOAD PUSH3 0x461BCD PUSH1 0xE5 SHL DUP2 MSTORE PUSH1 0x4 ADD PUSH2 0x17A SWAP1 PUSH2 0x4A18 JUMP JUMPDEST PUSH1 0x2 PUSH1 0xA SSTORE PUSH1 0x1 PUSH1 0x1 PUSH1 0xA0 SHL SUB DUP4 AND CALLER EQ DUP1 PUSH2 0x69D JUMPI POP CALLER ADDRESS EQ JUMPDEST PUSH2 0x6B9 JUMPI PUSH1 0x40 MLOAD PUSH3 0x461BCD PUSH1 0xE5 SHL DUP2 MSTORE PUSH1 0x4 ADD PUSH2 0x17A SWAP1 PUSH2 0x4907 JUMP JUMPDEST PUSH2 0x6C2 DUP4 PUSH2 0x891 JUMP JUMPDEST PUSH1 0x0 PUSH2 0x6CD DUP5 PUSH2 0xB1C JUMP JUMPDEST SWAP1 POP PUSH2 0x6D7 PUSH2 0x3F5C JUMP JUMPDEST PUSH1 0x0 JUMPDEST DUP4 DUP2 LT ISZERO PUSH2 0x7CE JUMPI CALLDATASIZE DUP6 DUP6 DUP4 DUP2 DUP2 LT PUSH2 0x6EF JUMPI INVALID JUMPDEST SWAP1 POP PUSH1 0xC0 MUL ADD SWAP1 POP PUSH1 0x0 DUP3 GT ISZERO PUSH2 0x75C JUMPI DUP6 DUP6 PUSH1 0x1 DUP5 SUB DUP2 DUP2 LT PUSH2 0x70F JUMPI INVALID JUMPDEST SWAP1 POP PUSH1 0xC0 MUL ADD PUSH1 0x20 ADD PUSH1 0x20 DUP2 ADD SWAP1 PUSH2 0x727 SWAP2 SWAP1 PUSH2 0x45C3 JUMP JUMPDEST PUSH2 0xFFFF AND PUSH2 0x73B PUSH1 0x40 DUP4 ADD PUSH1 0x20 DUP5 ADD PUSH2 0x45C3 JUMP JUMPDEST PUSH2 0xFFFF AND GT PUSH2 0x75C JUMPI PUSH1 0x40 MLOAD PUSH3 0x461BCD PUSH1 0xE5 SHL DUP2 MSTORE PUSH1 0x4 ADD PUSH2 0x17A SWAP1 PUSH2 0x49B7 JUMP JUMPDEST PUSH2 0x779 DUP8 PUSH2 0x770 PUSH1 0x40 DUP5 ADD PUSH1 0x20 DUP6 ADD PUSH2 0x45C3 JUMP JUMPDEST DUP6 SWAP2 SWAP1 DUP8 PUSH2 0xC6A JUMP JUMPDEST PUSH2 0x795 DUP8 DUP5 PUSH2 0x78B PUSH1 0x20 DUP6 ADD DUP6 PUSH2 0x4403 JUMP JUMPDEST DUP5 PUSH1 0x40 ADD CALLDATALOAD PUSH2 0x1632 JUMP JUMPDEST PUSH2 0x7C5 DUP8 DUP6 DUP6 PUSH1 0x60 DUP6 ADD CALLDATALOAD PUSH2 0x7B0 PUSH1 0xA0 DUP8 ADD PUSH1 0x80 DUP9 ADD PUSH2 0x43E7 JUMP JUMPDEST PUSH2 0x7C0 PUSH1 0xC0 DUP9 ADD PUSH1 0xA0 DUP10 ADD PUSH2 0x43E7 JUMP JUMPDEST PUSH2 0x1705 JUMP JUMPDEST POP PUSH1 0x1 ADD PUSH2 0x6DA JUMP JUMPDEST POP PUSH2 0x7D9 DUP6 DUP4 PUSH2 0xA9B JUMP JUMPDEST POP POP PUSH1 0x1 PUSH1 0xA SSTORE POP POP POP JUMP JUMPDEST PUSH1 0x1 SLOAD PUSH1 0x1 PUSH1 0x1 PUSH1 0xA0 SHL SUB AND DUP2 JUMP JUMPDEST PUSH1 0x0 SLOAD PUSH5 0x100000000 SWAP1 DIV PUSH1 0x1 PUSH1 0x1 PUSH1 0xA0 SHL SUB AND DUP2 JUMP JUMPDEST PUSH20 0x0 PUSH20 0x0 PUSH20 0x0 PUSH20 0x0 PUSH20 0x0 PUSH20 0x0 SWAP1 SWAP2 SWAP3 SWAP4 SWAP5 SWAP6 JUMP JUMPDEST PUSH1 0x1 PUSH1 0x1 PUSH1 0xA0 SHL SUB DUP2 AND PUSH2 0x8A4 JUMPI PUSH1 0x0 DUP1 REVERT JUMPDEST PUSH1 0x1 PUSH1 0x1 PUSH1 0xA0 SHL SUB DUP2 AND ADDRESS EQ ISZERO PUSH2 0x8BA JUMPI PUSH1 0x0 DUP1 REVERT JUMPDEST PUSH1 0x0 PUSH2 0x8C5 DUP3 PUSH2 0x1782 JUMP JUMPDEST POP POP POP POP PUSH2 0xFFFF AND SWAP1 POP DUP1 PUSH1 0x0 EQ PUSH2 0x8DC JUMPI PUSH1 0x0 DUP1 REVERT JUMPDEST POP POP JUMP JUMPDEST PUSH2 0x8E8 PUSH2 0x3FAC JUMP JUMPDEST PUSH1 0x0 PUSH2 0x8F3 DUP6 PUSH2 0xB1C JUMP JUMPDEST SWAP1 POP PUSH2 0x8FD PUSH2 0x3F5C JUMP JUMPDEST PUSH1 0x0 PUSH2 0x90F DUP8 DUP5 PUSH1 0x40 ADD MLOAD PUSH1 0x0 PUSH2 0xBD8 JUMP JUMPDEST SWAP1 POP PUSH1 0x0 JUMPDEST DUP6 DUP2 LT ISZERO PUSH2 0xA73 JUMPI CALLDATASIZE DUP8 DUP8 DUP4 DUP2 DUP2 LT PUSH2 0x929 JUMPI INVALID JUMPDEST SWAP1 POP PUSH1 0x20 MUL DUP2 ADD SWAP1 PUSH2 0x93B SWAP2 SWAP1 PUSH2 0x4B70 JUMP JUMPDEST SWAP1 POP DUP2 ISZERO PUSH2 0x9AA JUMPI DUP8 DUP8 PUSH1 0x1 DUP5 SUB DUP2 DUP2 LT PUSH2 0x952 JUMPI INVALID JUMPDEST SWAP1 POP PUSH1 0x20 MUL DUP2 ADD SWAP1 PUSH2 0x964 SWAP2 SWAP1 PUSH2 0x4B70 JUMP JUMPDEST PUSH2 0x975 SWAP1 PUSH1 0x40 DUP2 ADD SWAP1 PUSH1 0x20 ADD PUSH2 0x45C3 JUMP JUMPDEST PUSH2 0xFFFF AND PUSH2 0x989 PUSH1 0x40 DUP4 ADD PUSH1 0x20 DUP5 ADD PUSH2 0x45C3 JUMP JUMPDEST PUSH2 0xFFFF AND GT PUSH2 0x9AA JUMPI PUSH1 0x40 MLOAD PUSH3 0x461BCD PUSH1 0xE5 SHL DUP2 MSTORE PUSH1 0x4 ADD PUSH2 0x17A SWAP1 PUSH2 0x49B7 JUMP JUMPDEST PUSH2 0x9C7 DUP10 PUSH2 0x9BE PUSH1 0x40 DUP5 ADD PUSH1 0x20 DUP6 ADD PUSH2 0x45C3 JUMP JUMPDEST DUP7 SWAP2 SWAP1 DUP9 PUSH2 0xC6A JUMP JUMPDEST PUSH2 0x9D9 DUP10 DUP6 PUSH2 0x78B PUSH1 0x20 DUP6 ADD DUP6 PUSH2 0x4403 JUMP JUMPDEST PUSH1 0x0 PUSH2 0x9E8 PUSH1 0xC0 DUP4 ADD DUP4 PUSH2 0x4B2A JUMP JUMPDEST SWAP1 POP GT ISZERO PUSH2 0xA4F JUMPI PUSH1 0x0 PUSH2 0xA1A DUP11 PUSH2 0xA06 PUSH1 0x40 DUP6 ADD PUSH1 0x20 DUP7 ADD PUSH2 0x45C3 JUMP JUMPDEST PUSH2 0xA13 PUSH1 0xC0 DUP7 ADD DUP7 PUSH2 0x4B2A JUMP JUMPDEST DUP11 DUP10 PUSH2 0xD10 JUMP JUMPDEST SWAP5 POP SWAP1 POP PUSH1 0x0 DUP2 SLT ISZERO PUSH2 0xA39 JUMPI PUSH2 0xA39 DUP6 PUSH2 0xA34 DUP4 PUSH2 0xED2 JUMP JUMPDEST PUSH2 0x17EB JUMP JUMPDEST PUSH1 0x60 DUP6 ADD MLOAD PUSH2 0xA48 SWAP1 DUP3 PUSH2 0xEB6 JUMP JUMPDEST PUSH1 0x60 DUP7 ADD MSTORE POP JUMPDEST PUSH2 0xA6A DUP10 DUP7 DUP7 PUSH1 0x60 DUP6 ADD CALLDATALOAD PUSH2 0x7B0 PUSH1 0xA0 DUP8 ADD PUSH1 0x80 DUP9 ADD PUSH2 0x43E7 JUMP JUMPDEST POP PUSH1 0x1 ADD PUSH2 0x914 JUMP JUMPDEST POP PUSH2 0xA7D DUP4 PUSH2 0x143F JUMP JUMPDEST PUSH2 0xA8E JUMPI PUSH2 0xA8E DUP4 DUP9 DUP4 PUSH1 0x0 PUSH2 0x144C JUMP JUMPDEST POP SWAP1 SWAP2 POP POP JUMPDEST SWAP4 SWAP3 POP POP POP JUMP JUMPDEST PUSH2 0xAA5 DUP2 DUP4 PUSH2 0x152E JUMP JUMPDEST PUSH1 0x20 DUP2 ADD MLOAD PUSH1 0x1 PUSH1 0x1 PUSH1 0xF8 SHL SUB NOT AND ISZERO PUSH2 0x8DC JUMPI PUSH1 0x40 MLOAD PUSH4 0x6CCC642F PUSH1 0xE0 SHL DUP2 MSTORE PUSH20 0x0 SWAP1 PUSH4 0x6CCC642F SWAP1 PUSH2 0xAF0 SWAP1 DUP6 SWAP1 PUSH1 0x4 ADD PUSH2 0x468B JUMP JUMPDEST PUSH1 0x0 PUSH1 0x40 MLOAD DUP1 DUP4 SUB DUP2 DUP7 DUP1 EXTCODESIZE ISZERO DUP1 ISZERO PUSH2 0xB08 JUMPI PUSH1 0x0 DUP1 REVERT JUMPDEST POP GAS DELEGATECALL ISZERO DUP1 ISZERO PUSH2 0x657 JUMPI RETURNDATASIZE PUSH1 0x0 DUP1 RETURNDATACOPY RETURNDATASIZE PUSH1 0x0 REVERT JUMPDEST PUSH2 0xB24 PUSH2 0x3FAC JUMP JUMPDEST PUSH1 0x0 PUSH2 0xB2F DUP4 PUSH2 0x183A JUMP JUMPDEST SWAP1 POP PUSH2 0xB3A DUP2 PUSH2 0x18DB JUMP JUMPDEST ISZERO PUSH2 0xBD0 JUMPI PUSH1 0x40 MLOAD PUSH4 0x37B5FC21 PUSH1 0xE1 SHL DUP2 MSTORE PUSH20 0x0 SWAP1 PUSH4 0x6F6BF842 SWAP1 PUSH2 0xB78 SWAP1 DUP7 SWAP1 DUP6 SWAP1 PUSH1 0x4 ADD PUSH2 0x4722 JUMP JUMPDEST PUSH1 0xA0 PUSH1 0x40 MLOAD DUP1 DUP4 SUB DUP2 DUP7 DUP1 EXTCODESIZE ISZERO DUP1 ISZERO PUSH2 0xB90 JUMPI PUSH1 0x0 DUP1 REVERT JUMPDEST POP GAS DELEGATECALL ISZERO DUP1 ISZERO PUSH2 0xBA4 JUMPI RETURNDATASIZE PUSH1 0x0 DUP1 RETURNDATACOPY RETURNDATASIZE PUSH1 0x0 REVERT JUMPDEST POP POP POP POP PUSH1 0x40 MLOAD RETURNDATASIZE PUSH1 0x1F NOT PUSH1 0x1F DUP3 ADD AND DUP3 ADD DUP1 PUSH1 0x40 MSTORE POP DUP2 ADD SWAP1 PUSH2 0xBC8 SWAP2 SWAP1 PUSH2 0x4469 JUMP JUMPDEST SWAP2 POP POP PUSH2 0xBD3 JUMP JUMPDEST SWAP1 POP JUMPDEST SWAP2 SWAP1 POP JUMP JUMPDEST PUSH2 0xBE0 PUSH2 0x3FDA JUMP JUMPDEST PUSH2 0xBE8 PUSH2 0x3FDA JUMP JUMPDEST PUSH1 0xFF DUP5 AND PUSH2 0xBF7 JUMPI SWAP1 POP PUSH2 0xA94 JUMP JUMPDEST PUSH2 0xC01 DUP6 DUP6 PUSH2 0x192C JUMP JUMPDEST DUP2 MSTORE PUSH1 0xFF DUP5 AND PUSH1 0x60 DUP3 ADD MSTORE DUP3 PUSH1 0x1 PUSH1 0x1 PUSH1 0x40 SHL SUB DUP2 GT DUP1 ISZERO PUSH2 0xC22 JUMPI PUSH1 0x0 DUP1 REVERT JUMPDEST POP PUSH1 0x40 MLOAD SWAP1 DUP1 DUP3 MSTORE DUP1 PUSH1 0x20 MUL PUSH1 0x20 ADD DUP3 ADD PUSH1 0x40 MSTORE DUP1 ISZERO PUSH2 0xC5C JUMPI DUP2 PUSH1 0x20 ADD JUMPDEST PUSH2 0xC49 PUSH2 0x4002 JUMP JUMPDEST DUP2 MSTORE PUSH1 0x20 ADD SWAP1 PUSH1 0x1 SWAP1 SUB SWAP1 DUP2 PUSH2 0xC41 JUMPI SWAP1 POP JUMPDEST POP PUSH1 0x20 DUP3 ADD MSTORE SWAP5 SWAP4 POP POP POP POP JUMP JUMPDEST DUP2 PUSH2 0xFFFF AND PUSH1 0x0 LT DUP1 ISZERO PUSH2 0xC84 JUMPI POP PUSH2 0x3FFF PUSH2 0xFFFF DUP4 AND GT ISZERO JUMPDEST PUSH2 0xC8D JUMPI PUSH1 0x0 DUP1 REVERT JUMPDEST PUSH2 0xFFFF DUP3 AND DUP1 DUP6 MSTORE PUSH2 0xCA0 SWAP1 DUP3 SWAP1 PUSH2 0x1955 JUMP JUMPDEST ISZERO PUSH2 0xCCD JUMPI PUSH2 0xCB3 DUP4 DUP4 PUSH2 0xFFFF AND PUSH2 0x19DF JUMP JUMPDEST PUSH2 0x100 DUP9 ADD MSTORE PUSH1 0xE0 DUP8 ADD MSTORE PUSH1 0x40 DUP7 ADD MSTORE PUSH1 0x20 DUP6 ADD MSTORE PUSH2 0xCEB JUMP JUMPDEST PUSH1 0x0 PUSH1 0x20 DUP6 ADD DUP2 SWAP1 MSTORE PUSH1 0x40 DUP6 ADD DUP2 SWAP1 MSTORE PUSH1 0xE0 DUP6 ADD DUP2 SWAP1 MSTORE PUSH2 0x100 DUP6 ADD MSTORE JUMPDEST POP POP PUSH1 0x0 PUSH1 0x60 DUP4 ADD DUP2 SWAP1 MSTORE PUSH1 0x80 DUP4 ADD DUP2 SWAP1 MSTORE PUSH1 0xA0 DUP4 ADD DUP2 SWAP1 MSTORE PUSH1 0xC0 SWAP1 SWAP3 ADD SWAP2 SWAP1 SWAP2 MSTORE POP JUMP JUMPDEST PUSH1 0x0 PUSH2 0xD1A PUSH2 0x3FDA JUMP JUMPDEST PUSH2 0xD23 DUP5 PUSH2 0x143F JUMP JUMPDEST ISZERO PUSH2 0xE13 JUMPI DUP7 PUSH2 0xFFFF AND DUP5 PUSH1 0x60 ADD MLOAD PUSH2 0xFFFF AND EQ PUSH2 0xD53 JUMPI PUSH1 0x40 MLOAD PUSH3 0x461BCD PUSH1 0xE5 SHL DUP2 MSTORE PUSH1 0x4 ADD PUSH2 0x17A SWAP1 PUSH2 0x4A62 JUMP JUMPDEST PUSH1 0x60 DUP5 ADD MLOAD DUP5 MLOAD PUSH1 0x40 MLOAD PUSH4 0x3643F39B PUSH1 0xE0 SHL DUP2 MSTORE PUSH1 0x0 SWAP3 PUSH20 0x0 SWAP3 PUSH4 0x3643F39B SWAP3 PUSH2 0xD9A SWAP3 DUP15 SWAP3 SWAP1 SWAP2 DUP14 SWAP1 DUP14 SWAP1 PUSH1 0x4 ADD PUSH2 0x484C JUMP JUMPDEST PUSH1 0x40 DUP1 MLOAD DUP1 DUP4 SUB DUP2 DUP7 DUP1 EXTCODESIZE ISZERO DUP1 ISZERO PUSH2 0xDB1 JUMPI PUSH1 0x0 DUP1 REVERT JUMPDEST POP GAS DELEGATECALL ISZERO DUP1 ISZERO PUSH2 0xDC5 JUMPI RETURNDATASIZE PUSH1 0x0 DUP1 RETURNDATACOPY RETURNDATASIZE PUSH1 0x0 REVERT JUMPDEST POP POP POP POP PUSH1 0x40 MLOAD RETURNDATASIZE PUSH1 0x1F NOT PUSH1 0x1F DUP3 ADD AND DUP3 ADD DUP1 PUSH1 0x40 MSTORE POP DUP2 ADD SWAP1 PUSH2 0xDE9 SWAP2 SWAP1 PUSH2 0x443A JUMP JUMPDEST SWAP1 SWAP4 POP SWAP1 POP DUP1 ISZERO PUSH2 0xE0D JUMPI PUSH1 0x20 DUP6 ADD DUP1 MLOAD PUSH1 0x1 PUSH1 0xF8 SHL OR PUSH1 0x1 PUSH1 0x1 PUSH1 0xF8 SHL SUB NOT AND SWAP1 MSTORE JUMPDEST POP PUSH2 0xEAB JUMP JUMPDEST PUSH1 0x40 MLOAD PUSH4 0xB58F83ED PUSH1 0xE0 SHL DUP2 MSTORE PUSH20 0x0 SWAP1 PUSH4 0xB58F83ED SWAP1 PUSH2 0xE52 SWAP1 DUP12 SWAP1 DUP12 SWAP1 DUP9 SWAP1 DUP13 SWAP1 DUP13 SWAP1 PUSH1 0x4 ADD PUSH2 0x478E JUMP JUMPDEST PUSH1 0x0 PUSH1 0x40 MLOAD DUP1 DUP4 SUB DUP2 DUP7 DUP1 EXTCODESIZE ISZERO DUP1 ISZERO PUSH2 0xE6A JUMPI PUSH1 0x0 DUP1 REVERT JUMPDEST POP GAS DELEGATECALL ISZERO DUP1 ISZERO PUSH2 0xE7E JUMPI RETURNDATASIZE PUSH1 0x0 DUP1 RETURNDATACOPY RETURNDATASIZE PUSH1 0x0 REVERT JUMPDEST POP POP POP POP PUSH1 0x40 MLOAD RETURNDATASIZE PUSH1 0x0 DUP3 RETURNDATACOPY PUSH1 0x1F RETURNDATASIZE SWAP1 DUP2 ADD PUSH1 0x1F NOT AND DUP3 ADD PUSH1 0x40 MSTORE PUSH2 0xEA6 SWAP2 SWAP1 DUP2 ADD SWAP1 PUSH2 0x4508 JUMP JUMPDEST SWAP3 POP SWAP1 POP JUMPDEST SWAP7 POP SWAP7 SWAP5 POP POP POP POP POP JUMP JUMPDEST DUP2 DUP2 ADD DUP3 DUP2 SLT ISZERO PUSH1 0x0 DUP4 SLT ISZERO EQ PUSH2 0xECC JUMPI PUSH1 0x0 DUP1 REVERT JUMPDEST SWAP3 SWAP2 POP POP JUMP JUMPDEST PUSH1 0x0 PUSH2 0xBD0 PUSH1 0x0 NOT DUP4 PUSH2 0x1A8B JUMP JUMPDEST PUSH2 0xEE8 PUSH2 0x4042 JUMP JUMPDEST PUSH1 0x0 DUP1 PUSH1 0x0 PUSH2 0xEF6 DUP6 PUSH2 0x1AD9 JUMP JUMPDEST PUSH1 0x40 DUP1 MLOAD PUSH1 0x60 DUP2 ADD DUP3 MSTORE PUSH1 0x1 PUSH1 0x1 PUSH1 0xA0 SHL SUB SWAP1 SWAP4 AND DUP4 MSTORE PUSH1 0x20 DUP4 ADD SWAP4 SWAP1 SWAP4 MSTORE PUSH1 0xFF AND PUSH1 0xA EXP SWAP2 DUP2 ADD SWAP2 SWAP1 SWAP2 MSTORE SWAP4 POP POP POP POP SWAP2 SWAP1 POP JUMP JUMPDEST PUSH2 0xF34 PUSH2 0x406C JUMP JUMPDEST PUSH2 0xBD0 DUP3 PUSH1 0x1 PUSH2 0x1B9C JUMP JUMPDEST PUSH1 0x0 DUP1 PUSH2 0xF70 DUP5 PUSH1 0x40 ADD MLOAD PUSH2 0xF6A PUSH5 0x2540BE400 PUSH2 0xF6A DUP8 DUP10 PUSH1 0x20 ADD MLOAD PUSH2 0x1A8B SWAP1 SWAP2 SWAP1 PUSH4 0xFFFFFFFF AND JUMP JUMPDEST SWAP1 PUSH2 0x1C4A JUMP JUMPDEST SWAP5 SWAP4 POP POP POP POP JUMP JUMPDEST PUSH1 0x0 PUSH4 0x5F5E100 DUP4 PUSH1 0x40 ADD MLOAD SLT ISZERO PUSH2 0xFA6 JUMPI PUSH2 0xF9F PUSH1 0x1 PUSH2 0xF99 DUP6 DUP6 PUSH2 0x10B2 JUMP JUMPDEST SWAP1 PUSH2 0xEB6 JUMP JUMPDEST SWAP1 POP PUSH2 0xECC JUMP JUMPDEST PUSH2 0xA94 DUP4 PUSH2 0xFB5 DUP5 PUSH1 0x1 PUSH2 0xEB6 JUMP JUMPDEST PUSH2 0x10B2 JUMP JUMPDEST PUSH1 0x0 DUP2 PUSH2 0xFC9 JUMPI POP PUSH1 0x0 PUSH2 0xA94 JUMP JUMPDEST PUSH1 0x0 DUP3 SGT PUSH2 0xFD6 JUMPI PUSH1 0x0 DUP1 REVERT JUMPDEST PUSH1 0x0 PUSH2 0xFE9 DUP6 PUSH1 0x0 ADD MLOAD PUSH2 0xFFFF AND PUSH2 0xF2C JUMP JUMPDEST SWAP1 POP PUSH1 0x3 DUP2 PUSH1 0x60 ADD MLOAD PUSH1 0x5 DUP2 GT ISZERO PUSH2 0xFFD JUMPI INVALID JUMPDEST EQ ISZERO PUSH2 0x1027 JUMPI CALLVALUE DUP4 EQ PUSH2 0x1022 JUMPI PUSH1 0x40 MLOAD PUSH3 0x461BCD PUSH1 0xE5 SHL DUP2 MSTORE PUSH1 0x4 ADD PUSH2 0x17A SWAP1 PUSH2 0x494B JUMP JUMPDEST PUSH2 0x103E JUMP JUMPDEST DUP5 MLOAD PUSH2 0x103B SWAP1 DUP3 SWAP1 DUP7 SWAP1 PUSH2 0xFFFF AND DUP7 PUSH2 0x1C7B JUMP JUMPDEST SWAP3 POP JUMPDEST PUSH1 0x0 PUSH2 0x1051 DUP7 PUSH1 0x0 ADD MLOAD PUSH2 0xFFFF AND PUSH2 0x109F JUMP JUMPDEST SWAP1 POP PUSH1 0x0 PUSH2 0x106E DUP8 PUSH1 0x0 ADD MLOAD PUSH2 0x1066 DUP8 PUSH2 0x1D23 JUMP JUMPDEST DUP5 SWAP2 SWAP1 PUSH2 0x1D36 JUMP JUMPDEST SWAP1 POP PUSH1 0x0 PUSH2 0x107C DUP4 DUP4 PUSH2 0x1E27 JUMP JUMPDEST PUSH1 0x60 DUP10 ADD MLOAD SWAP1 SWAP2 POP PUSH2 0x108E SWAP1 DUP3 PUSH2 0xEB6 JUMP JUMPDEST PUSH1 0x60 DUP10 ADD MSTORE SWAP4 POP POP POP POP SWAP4 SWAP3 POP POP POP JUMP JUMPDEST PUSH2 0x10A7 PUSH2 0x406C JUMP JUMPDEST PUSH2 0xBD0 DUP3 PUSH1 0x0 PUSH2 0x1B9C JUMP JUMPDEST PUSH1 0x0 PUSH4 0x5F5E100 DUP4 PUSH1 0x40 ADD MLOAD EQ ISZERO PUSH2 0x10CB JUMPI POP DUP1 PUSH2 0xECC JUMP JUMPDEST PUSH2 0xA94 PUSH4 0x5F5E100 PUSH2 0xF6A DUP6 PUSH1 0x40 ADD MLOAD DUP6 PUSH2 0x1A8B SWAP1 SWAP2 SWAP1 PUSH4 0xFFFFFFFF AND JUMP JUMPDEST PUSH1 0x0 DUP3 PUSH2 0x10F9 JUMPI POP PUSH1 0x0 PUSH2 0xF70 JUMP JUMPDEST PUSH1 0x0 DUP4 SGT PUSH2 0x1106 JUMPI PUSH1 0x0 DUP1 REVERT JUMPDEST PUSH1 0x0 PUSH2 0x1119 DUP7 PUSH1 0x0 ADD MLOAD PUSH2 0xFFFF AND PUSH2 0x109F JUMP JUMPDEST SWAP1 POP PUSH1 0x5 DUP2 PUSH1 0x60 ADD MLOAD PUSH1 0x5 DUP2 GT ISZERO PUSH2 0x112D JUMPI INVALID JUMPDEST EQ ISZERO PUSH2 0x1146 JUMPI DUP6 MLOAD PUSH2 0x1143 SWAP1 PUSH2 0xFFFF AND DUP6 PUSH2 0x1E57 JUMP JUMPDEST SWAP4 POP JUMPDEST DUP1 PUSH1 0x20 ADD MLOAD DUP1 PUSH2 0x1153 JUMPI POP DUP3 JUMPDEST ISZERO PUSH2 0x119A JUMPI DUP6 MLOAD PUSH1 0x0 SWAP1 PUSH2 0x116F SWAP1 DUP4 SWAP1 DUP9 SWAP1 PUSH2 0xFFFF AND DUP9 PUSH2 0x1C7B JUMP JUMPDEST SWAP1 POP PUSH2 0x117B DUP3 DUP3 PUSH2 0x1E27 JUMP JUMPDEST PUSH1 0x60 DUP9 ADD MLOAD SWAP1 SWAP4 POP PUSH2 0x118D SWAP1 DUP5 PUSH2 0xEB6 JUMP JUMPDEST PUSH1 0x60 DUP9 ADD MSTORE POP PUSH2 0xF70 SWAP1 POP JUMP JUMPDEST PUSH2 0x11A4 DUP2 DUP6 PUSH2 0x1E27 JUMP JUMPDEST PUSH1 0x80 DUP8 ADD MLOAD SWAP1 SWAP3 POP PUSH2 0x11B6 SWAP1 DUP4 PUSH2 0xEB6 JUMP JUMPDEST PUSH1 0x80 DUP8 ADD MSTORE POP SWAP5 SWAP4 POP POP POP POP JUMP JUMPDEST PUSH1 0x0 DUP1 PUSH1 0x0 DUP7 PUSH1 0xA0 ADD MLOAD SLT ISZERO PUSH2 0x1217 JUMPI PUSH1 0x0 PUSH2 0x11F9 DUP8 PUSH1 0xA0 ADD MLOAD PUSH2 0xF99 DUP10 PUSH1 0xC0 ADD MLOAD DUP11 PUSH1 0x40 ADD MLOAD PUSH2 0xEB6 SWAP1 SWAP2 SWAP1 PUSH4 0xFFFFFFFF AND JUMP JUMPDEST SLT ISZERO PUSH2 0x1217 JUMPI PUSH1 0x40 MLOAD PUSH3 0x461BCD PUSH1 0xE5 SHL DUP2 MSTORE PUSH1 0x4 ADD PUSH2 0x17A SWAP1 PUSH2 0x4A99 JUMP JUMPDEST PUSH1 0x0 DUP7 PUSH1 0x80 ADD MLOAD SLT ISZERO PUSH2 0x1267 JUMPI PUSH1 0x0 PUSH2 0x1249 DUP8 PUSH1 0x80 ADD MLOAD PUSH2 0xF99 DUP10 PUSH1 0x60 ADD MLOAD DUP11 PUSH1 0x20 ADD MLOAD PUSH2 0xEB6 SWAP1 SWAP2 SWAP1 PUSH4 0xFFFFFFFF AND JUMP JUMPDEST SLT ISZERO PUSH2 0x1267 JUMPI PUSH1 0x40 MLOAD PUSH3 0x461BCD PUSH1 0xE5 SHL DUP2 MSTORE PUSH1 0x4 ADD PUSH2 0x17A SWAP1 PUSH2 0x4A40 JUMP JUMPDEST PUSH2 0x1272 DUP7 DUP7 DUP6 PUSH2 0x1EDE JUMP JUMPDEST PUSH1 0x80 DUP9 ADD DUP2 SWAP1 MSTORE PUSH1 0x60 DUP9 ADD MLOAD SWAP2 SWAP4 POP PUSH1 0x0 SWAP2 PUSH2 0x128D SWAP2 PUSH2 0xEB6 JUMP JUMPDEST SWAP1 POP DUP1 ISZERO PUSH2 0x12FA JUMPI PUSH1 0x20 DUP8 ADD MLOAD PUSH2 0x12A4 SWAP1 DUP3 PUSH2 0xEB6 JUMP JUMPDEST PUSH1 0x20 DUP9 ADD MSTORE DUP7 MLOAD PUSH1 0x40 MLOAD PUSH1 0x1 SWAP4 POP PUSH2 0xFFFF SWAP1 SWAP2 AND SWAP1 PUSH1 0x1 PUSH1 0x1 PUSH1 0xA0 SHL SUB DUP9 AND SWAP1 PUSH32 0x5441E4A5FAC93A951D782E6F1CDB82E95C8FC58561A013953D17E395C5E69B4B SWAP1 PUSH2 0x12F1 SWAP1 DUP6 SWAP1 PUSH2 0x48FE JUMP JUMPDEST PUSH1 0x40 MLOAD DUP1 SWAP2 SUB SWAP1 LOG3 JUMPDEST PUSH1 0xA0 DUP8 ADD MLOAD ISZERO ISZERO DUP1 PUSH2 0x130F JUMPI POP PUSH1 0xC0 DUP8 ADD MLOAD ISZERO ISZERO JUMPDEST ISZERO PUSH2 0x13B5 JUMPI PUSH1 0x0 PUSH2 0x1339 DUP9 PUSH1 0xC0 ADD MLOAD PUSH2 0xF99 DUP11 PUSH1 0xA0 ADD MLOAD DUP12 PUSH1 0x40 ADD MLOAD PUSH2 0xEB6 SWAP1 SWAP2 SWAP1 PUSH4 0xFFFFFFFF AND JUMP JUMPDEST SWAP1 POP PUSH2 0x134E DUP9 DUP9 PUSH2 0x1349 DUP5 PUSH2 0x1D23 JUMP JUMPDEST PUSH2 0x1F94 JUMP JUMPDEST POP PUSH1 0x40 DUP9 ADD DUP2 SWAP1 MSTORE PUSH1 0xC0 DUP9 ADD MLOAD ISZERO PUSH2 0x13AF JUMPI DUP8 PUSH1 0x0 ADD MLOAD PUSH2 0xFFFF AND DUP8 PUSH1 0x1 PUSH1 0x1 PUSH1 0xA0 SHL SUB AND PUSH32 0x412BC13D202A2EA5119E55FEC9C5E420DDDB18FAF186373AD9795AD4F4545AA9 DUP11 PUSH1 0xC0 ADD MLOAD PUSH1 0x40 MLOAD PUSH2 0x13A6 SWAP2 SWAP1 PUSH2 0x48FE JUMP JUMPDEST PUSH1 0x40 MLOAD DUP1 SWAP2 SUB SWAP1 LOG3 JUMPDEST PUSH1 0x1 SWAP3 POP POP JUMPDEST DUP2 ISZERO PUSH2 0x13E2 JUMPI PUSH2 0x13E2 DUP7 DUP9 PUSH1 0x0 ADD MLOAD PUSH2 0xFFFF AND DUP10 PUSH1 0x20 ADD MLOAD DUP11 PUSH1 0x40 ADD MLOAD DUP12 PUSH1 0xE0 ADD MLOAD DUP13 PUSH2 0x100 ADD MLOAD PUSH2 0x2081 JUMP JUMPDEST DUP7 MLOAD PUSH1 0x20 DUP9 ADD MLOAD PUSH2 0x140F SWAP2 PUSH2 0xFFFF AND SWAP1 ISZERO ISZERO DUP1 PUSH2 0x1402 JUMPI POP PUSH1 0x40 DUP10 ADD MLOAD ISZERO ISZERO JUMPDEST DUP8 SWAP2 SWAP1 PUSH1 0x1 PUSH1 0xFE SHL PUSH2 0x21D1 JUMP JUMPDEST PUSH1 0x0 DUP8 PUSH1 0x20 ADD MLOAD SLT ISZERO PUSH2 0x1435 JUMPI PUSH1 0x20 DUP6 ADD DUP1 MLOAD PUSH1 0x1 PUSH1 0xF9 SHL OR PUSH1 0x1 PUSH1 0x1 PUSH1 0xF8 SHL SUB NOT AND SWAP1 MSTORE JUMPDEST POP POP SWAP5 SWAP4 POP POP POP POP JUMP JUMPDEST PUSH1 0x60 ADD MLOAD PUSH2 0xFFFF AND ISZERO ISZERO SWAP1 JUMP JUMPDEST PUSH1 0x0 DUP1 DUP1 DUP1 PUSH2 0x145B DUP7 DUP9 PUSH2 0x23D0 JUMP JUMPDEST PUSH5 0xFFFFFFFFFF DUP2 AND DUP13 MSTORE SWAP3 SWAP7 POP SWAP1 SWAP5 POP SWAP3 POP SWAP1 POP PUSH2 0x1478 DUP9 PUSH2 0x18DB JUMP JUMPDEST ISZERO PUSH2 0x1482 JUMPI PUSH1 0x0 DUP1 REVERT JUMPDEST PUSH1 0xFF DUP3 AND PUSH1 0x40 DUP10 ADD MSTORE DUP5 PUSH2 0x14A1 JUMPI PUSH1 0x7 PUSH1 0xFF DUP4 AND GT ISZERO PUSH2 0x14A1 JUMPI PUSH1 0x0 DUP1 REVERT JUMPDEST DUP4 ISZERO PUSH2 0x14C4 JUMPI PUSH1 0x20 DUP9 ADD DUP1 MLOAD PUSH1 0x1 PUSH1 0xF8 SHL OR PUSH1 0x1 PUSH1 0x1 PUSH1 0xF8 SHL SUB NOT AND SWAP1 MSTORE PUSH2 0x14D3 JUMP JUMPDEST PUSH1 0x20 DUP9 ADD DUP1 MLOAD PUSH1 0x7F PUSH1 0xF9 SHL AND SWAP1 MSTORE JUMPDEST PUSH2 0x14E0 DUP9 PUSH1 0x80 ADD MLOAD PUSH2 0x260F JUMP JUMPDEST PUSH1 0x1 PUSH1 0x1 PUSH1 0x70 SHL SUB NOT AND PUSH1 0x80 DUP10 ADD MSTORE PUSH1 0x0 JUMPDEST DUP4 ISZERO PUSH2 0x1523 JUMPI PUSH1 0xF0 DUP5 SWAP1 SHR DUP2 DUP2 EQ PUSH2 0x1515 JUMPI PUSH2 0x1515 DUP11 DUP3 PUSH1 0x1 PUSH1 0x1 PUSH1 0xFF SHL PUSH2 0x21D1 JUMP JUMPDEST PUSH1 0x10 SWAP5 SWAP1 SWAP5 SHL SWAP4 SWAP1 POP PUSH2 0x14F2 JUMP JUMPDEST POP POP POP POP POP POP POP POP POP JUMP JUMPDEST PUSH1 0x0 PUSH2 0x1538 PUSH2 0x268A JUMP JUMPDEST PUSH1 0x1 PUSH1 0x1 PUSH1 0xA0 SHL SUB DUP4 AND PUSH1 0x0 DUP2 DUP2 MSTORE PUSH1 0x20 DUP4 DUP2 MSTORE PUSH1 0x40 DUP1 DUP4 KECCAK256 DUP9 MLOAD DUP2 SLOAD SWAP4 DUP11 ADD MLOAD DUP4 DUP12 ADD MLOAD PUSH1 0x60 DUP13 ADD MLOAD PUSH1 0x80 DUP14 ADD MLOAD PUSH1 0x70 SHR PUSH1 0x1 PUSH1 0x48 SHL MUL PUSH27 0xFFFFFFFFFFFFFFFFFFFFFFFFFFFFFFFFFFFF000000000000000000 NOT PUSH2 0xFFFF SWAP1 SWAP3 AND PUSH1 0x1 PUSH1 0x38 SHL MUL PUSH9 0xFFFF00000000000000 NOT PUSH1 0xFF SWAP5 SWAP1 SWAP5 AND PUSH1 0x1 PUSH1 0x30 SHL MUL PUSH7 0xFF000000000000 NOT PUSH1 0xF8 SWAP7 SWAP1 SWAP7 SHR PUSH6 0x10000000000 MUL PUSH6 0xFF0000000000 NOT PUSH5 0xFFFFFFFFFF SWAP1 SWAP9 AND PUSH5 0xFFFFFFFFFF NOT SWAP1 SWAP12 AND SWAP11 SWAP1 SWAP11 OR SWAP7 SWAP1 SWAP7 AND SWAP9 SWAP1 SWAP9 OR SWAP4 SWAP1 SWAP4 AND SWAP4 SWAP1 SWAP4 OR AND SWAP5 SWAP1 SWAP5 OR AND SWAP3 SWAP1 SWAP3 OR SWAP1 SWAP2 SSTORE MLOAD SWAP3 SWAP4 POP SWAP1 SWAP2 PUSH32 0x6BD4B121BCA854A191536A2CA891155C42EE2FB23F307FB34E8BC65CFCB5412E SWAP2 SWAP1 LOG2 POP POP POP JUMP JUMPDEST PUSH1 0x0 PUSH2 0x163D DUP3 PUSH2 0x2697 JUMP JUMPDEST SWAP1 POP PUSH1 0x0 DUP1 DUP3 SLT ISZERO PUSH2 0x164E JUMPI PUSH1 0x0 DUP1 REVERT JUMPDEST PUSH1 0x0 DUP5 PUSH1 0x6 DUP2 GT ISZERO PUSH2 0x165C JUMPI INVALID JUMPDEST EQ ISZERO PUSH2 0x1669 JUMPI POP POP PUSH2 0x16FF JUMP JUMPDEST PUSH1 0x1 DUP5 PUSH1 0x6 DUP2 GT ISZERO PUSH2 0x1677 JUMPI INVALID JUMPDEST EQ DUP1 PUSH2 0x168E JUMPI POP PUSH1 0x3 DUP5 PUSH1 0x6 DUP2 GT ISZERO PUSH2 0x168C JUMPI INVALID JUMPDEST EQ JUMPDEST ISZERO PUSH2 0x16A7 JUMPI PUSH2 0x16A0 DUP6 DUP8 DUP5 PUSH1 0x0 PUSH2 0x10EA JUMP JUMPDEST SWAP1 POP PUSH2 0x16F3 JUMP JUMPDEST PUSH1 0x2 DUP5 PUSH1 0x6 DUP2 GT ISZERO PUSH2 0x16B5 JUMPI INVALID JUMPDEST EQ DUP1 PUSH2 0x16CC JUMPI POP PUSH1 0x4 DUP5 PUSH1 0x6 DUP2 GT ISZERO PUSH2 0x16CA JUMPI INVALID JUMPDEST EQ JUMPDEST ISZERO PUSH2 0x16DC JUMPI PUSH2 0x16A0 DUP6 DUP8 DUP5 PUSH2 0xFBA JUMP JUMPDEST PUSH1 0x6 DUP5 PUSH1 0x6 DUP2 GT ISZERO PUSH2 0x16EA JUMPI INVALID JUMPDEST EQ ISZERO PUSH2 0x16F3 JUMPI POP DUP1 JUMPDEST PUSH2 0x657 DUP6 DUP6 DUP5 DUP5 PUSH2 0x26AD JUMP JUMPDEST POP POP POP POP JUMP JUMPDEST PUSH1 0x0 PUSH2 0x1710 DUP5 PUSH2 0x2697 JUMP JUMPDEST SWAP1 POP PUSH1 0x0 DUP2 SLT ISZERO PUSH2 0x1720 JUMPI PUSH1 0x0 DUP1 REVERT JUMPDEST DUP3 ISZERO PUSH2 0x1758 JUMPI PUSH2 0x1749 DUP6 PUSH1 0x80 ADD MLOAD PUSH2 0xF99 DUP8 PUSH1 0x60 ADD MLOAD DUP9 PUSH1 0x20 ADD MLOAD PUSH2 0xEB6 SWAP1 SWAP2 SWAP1 PUSH4 0xFFFFFFFF AND JUMP JUMPDEST SWAP1 POP PUSH1 0x0 DUP2 SLT ISZERO PUSH2 0x1758 JUMPI POP PUSH1 0x0 JUMPDEST PUSH1 0x80 DUP6 ADD MLOAD PUSH2 0x1767 SWAP1 DUP3 PUSH2 0x28C8 JUMP JUMPDEST PUSH1 0x80 DUP7 ADD MSTORE PUSH2 0x1778 DUP6 DUP9 DUP9 DUP6 PUSH2 0x11C4 JUMP JUMPDEST POP POP POP POP POP POP POP POP JUMP JUMPDEST PUSH1 0x0 DUP1 PUSH1 0x0 DUP1 PUSH1 0x0 DUP1 PUSH2 0x1793 PUSH2 0x28DE JUMP JUMPDEST PUSH1 0x1 PUSH1 0x1 PUSH1 0xA0 SHL SUB SWAP1 SWAP8 AND PUSH1 0x0 SWAP1 DUP2 MSTORE PUSH1 0x20 SWAP8 SWAP1 SWAP8 MSTORE POP POP PUSH1 0x40 SWAP1 SWAP5 KECCAK256 SLOAD PUSH2 0xFFFF DUP2 AND SWAP6 PUSH4 0xFFFFFFFF PUSH3 0x10000 DUP4 DIV DUP2 AND SWAP7 POP PUSH1 0x1 PUSH1 0x30 SHL DUP4 DIV AND SWAP5 POP PUSH1 0xFF PUSH1 0x1 PUSH1 0x50 SHL DUP4 DIV AND SWAP4 POP PUSH1 0x1 PUSH1 0x58 SHL SWAP1 SWAP2 DIV PUSH1 0xD8 SHL SWAP2 POP JUMP JUMPDEST PUSH1 0x0 DUP2 SLT ISZERO DUP1 ISZERO PUSH2 0x181E JUMPI POP DUP1 PUSH2 0x181B DUP4 PUSH1 0x80 ADD MLOAD PUSH2 0xF99 DUP6 PUSH1 0x60 ADD MLOAD DUP7 PUSH1 0x20 ADD MLOAD PUSH2 0xEB6 SWAP1 SWAP2 SWAP1 PUSH4 0xFFFFFFFF AND JUMP JUMPDEST SLT ISZERO JUMPDEST PUSH2 0x8DC JUMPI PUSH1 0x40 MLOAD PUSH3 0x461BCD PUSH1 0xE5 SHL DUP2 MSTORE PUSH1 0x4 ADD PUSH2 0x17A SWAP1 PUSH2 0x4ABD JUMP JUMPDEST PUSH2 0x1842 PUSH2 0x3FAC JUMP JUMPDEST PUSH1 0x0 PUSH2 0x184C PUSH2 0x268A JUMP JUMPDEST PUSH1 0x1 PUSH1 0x1 PUSH1 0xA0 SHL SUB SWAP4 SWAP1 SWAP4 AND PUSH1 0x0 SWAP1 DUP2 MSTORE PUSH1 0x20 SWAP4 DUP5 MSTORE PUSH1 0x40 SWAP1 DUP2 SWAP1 KECCAK256 DUP2 MLOAD PUSH1 0xA0 DUP2 ADD DUP4 MSTORE SWAP1 SLOAD PUSH5 0xFFFFFFFFFF DUP2 AND DUP3 MSTORE PUSH6 0x10000000000 DUP2 DIV PUSH1 0xF8 SHL PUSH1 0x1 PUSH1 0x1 PUSH1 0xF8 SHL SUB NOT AND SWAP6 DUP3 ADD SWAP6 SWAP1 SWAP6 MSTORE PUSH1 0x1 PUSH1 0x30 SHL DUP6 DIV PUSH1 0xFF AND SWAP2 DUP2 ADD SWAP2 SWAP1 SWAP2 MSTORE PUSH1 0x1 PUSH1 0x38 SHL DUP5 DIV PUSH2 0xFFFF AND PUSH1 0x60 DUP3 ADD MSTORE PUSH1 0x1 PUSH1 0x48 SHL SWAP1 SWAP4 DIV PUSH1 0x70 SHL PUSH1 0x1 PUSH1 0x1 PUSH1 0x70 SHL SUB NOT AND PUSH1 0x80 DUP5 ADD MSTORE POP SWAP1 SWAP2 SWAP1 POP JUMP JUMPDEST PUSH1 0x0 TIMESTAMP PUSH2 0x18E7 DUP4 PUSH2 0x143F JUMP JUMPDEST ISZERO PUSH2 0x1908 JUMPI PUSH2 0x18F5 DUP2 PUSH2 0x28EB JUMP JUMPDEST DUP4 MLOAD PUSH5 0xFFFFFFFFFF AND LT SWAP2 POP PUSH2 0xBD3 SWAP1 POP JUMP JUMPDEST DUP3 MLOAD PUSH5 0xFFFFFFFFFF AND ISZERO DUP1 ISZERO SWAP1 PUSH2 0xBC8 JUMPI POP DUP3 MLOAD PUSH5 0xFFFFFFFFFF AND GT ISZERO SWAP1 POP PUSH2 0xBD3 JUMP JUMPDEST PUSH1 0x60 PUSH1 0x0 PUSH2 0x193A DUP5 DUP5 PUSH2 0x2909 JUMP JUMPDEST SWAP1 POP PUSH1 0x1 DUP2 MLOAD GT PUSH2 0x194C JUMPI SWAP1 POP PUSH2 0xECC JUMP JUMPDEST PUSH2 0xA94 DUP2 PUSH2 0x2A2A JUMP JUMPDEST PUSH1 0x0 DUP2 ISZERO DUP1 ISZERO SWAP1 PUSH2 0x1968 JUMPI POP PUSH2 0x3FFF DUP3 GT ISZERO JUMPDEST PUSH2 0x1971 JUMPI PUSH1 0x0 DUP1 REVERT JUMPDEST PUSH1 0x80 DUP4 ADD MLOAD PUSH1 0x60 DUP5 ADD MLOAD PUSH2 0xFFFF AND DUP4 EQ ISZERO PUSH2 0x1990 JUMPI PUSH1 0x1 SWAP2 POP POP PUSH2 0xECC JUMP JUMPDEST PUSH1 0x1 PUSH1 0x1 PUSH1 0x70 SHL SUB NOT DUP2 AND ISZERO PUSH2 0x19D5 JUMPI PUSH1 0xF0 DUP2 SWAP1 SHR PUSH2 0x3FFF AND DUP4 DUP2 EQ ISZERO PUSH2 0x19C2 JUMPI POP PUSH1 0x1 PUSH1 0xFE SHL SWAP1 DUP2 AND EQ SWAP1 POP PUSH2 0xECC JUMP JUMPDEST POP PUSH1 0x10 SHL PUSH1 0x1 PUSH1 0x1 PUSH1 0x80 SHL SUB NOT AND PUSH2 0x1990 JUMP JUMPDEST POP PUSH1 0x0 SWAP4 SWAP3 POP POP POP JUMP JUMPDEST PUSH1 0x0 DUP1 PUSH1 0x0 DUP1 PUSH1 0x0 PUSH2 0x19EF PUSH2 0x2BE2 JUMP JUMPDEST PUSH1 0x1 PUSH1 0x1 PUSH1 0xA0 SHL SUB DUP9 AND PUSH1 0x0 SWAP1 DUP2 MSTORE PUSH1 0x20 DUP3 DUP2 MSTORE PUSH1 0x40 DUP1 DUP4 KECCAK256 DUP11 DUP5 MSTORE SWAP1 SWAP2 MSTORE SWAP1 KECCAK256 DUP1 SLOAD PUSH10 0xFFFFFFFFFFFFFFFFFFFF DUP2 AND SWAP7 POP PUSH1 0x1 PUSH1 0x50 SHL SWAP1 DIV PUSH4 0xFFFFFFFF AND SWAP5 POP SWAP1 SWAP2 POP DUP4 ISZERO PUSH2 0x1A5B JUMPI DUP1 SLOAD PUSH2 0x1A54 SWAP1 PUSH1 0x1 PUSH1 0x70 SHL SWAP1 DIV PUSH7 0xFFFFFFFFFFFFFF AND PUSH2 0x2BEF JUMP JUMPDEST SWAP3 POP PUSH2 0x1A70 JUMP JUMPDEST DUP1 SLOAD PUSH1 0x1 PUSH1 0x70 SHL SWAP1 DIV PUSH7 0xFFFFFFFFFFFFFF AND SWAP3 POP JUMPDEST SLOAD PUSH1 0x1 PUSH1 0xA8 SHL SWAP1 DIV PUSH1 0xA SWAP1 DUP2 SIGNEXTEND SWAP1 SIGNEXTEND SWAP8 SWAP4 SWAP7 POP SWAP2 SWAP5 POP SWAP3 POP POP JUMP JUMPDEST DUP2 DUP2 MUL PUSH1 0x0 NOT DUP4 EQ ISZERO PUSH2 0x1ABB JUMPI DUP2 ISZERO DUP1 PUSH2 0x1AAD JUMPI POP DUP3 DUP3 DUP3 DUP2 PUSH2 0x1AAA JUMPI INVALID JUMPDEST SDIV EQ JUMPDEST PUSH2 0x1AB6 JUMPI PUSH1 0x0 DUP1 REVERT JUMPDEST PUSH2 0xECC JUMP JUMPDEST DUP3 ISZERO DUP1 PUSH2 0x1AD0 JUMPI POP DUP2 DUP4 DUP3 DUP2 PUSH2 0x1ACD JUMPI INVALID JUMPDEST SDIV EQ JUMPDEST PUSH2 0xECC JUMPI PUSH1 0x0 DUP1 REVERT JUMPDEST PUSH1 0x0 DUP1 PUSH1 0x0 DUP1 PUSH1 0x0 PUSH2 0x1AEA DUP7 PUSH2 0x2BFD JUMP JUMPDEST SWAP1 SWAP3 POP SWAP1 POP PUSH1 0x0 PUSH1 0x1 PUSH1 0x1 PUSH1 0xA0 SHL SUB DUP4 AND PUSH2 0x1B0F JUMPI POP PUSH1 0x0 SWAP1 POP PUSH5 0x2540BE400 PUSH2 0x1B91 JUMP JUMPDEST DUP3 PUSH1 0x1 PUSH1 0x1 PUSH1 0xA0 SHL SUB AND PUSH4 0x1EE10833 PUSH1 0x40 MLOAD DUP2 PUSH4 0xFFFFFFFF AND PUSH1 0xE0 SHL DUP2 MSTORE PUSH1 0x4 ADD PUSH1 0x20 PUSH1 0x40 MLOAD DUP1 DUP4 SUB DUP2 PUSH1 0x0 DUP8 DUP1 EXTCODESIZE ISZERO DUP1 ISZERO PUSH2 0x1B4A JUMPI PUSH1 0x0 DUP1 REVERT JUMPDEST POP GAS CALL ISZERO DUP1 ISZERO PUSH2 0x1B5E JUMPI RETURNDATASIZE PUSH1 0x0 DUP1 RETURNDATACOPY RETURNDATASIZE PUSH1 0x0 REVERT JUMPDEST POP POP POP POP PUSH1 0x40 MLOAD RETURNDATASIZE PUSH1 0x1F NOT PUSH1 0x1F DUP3 ADD AND DUP3 ADD DUP1 PUSH1 0x40 MSTORE POP DUP2 ADD SWAP1 PUSH2 0x1B82 SWAP2 SWAP1 PUSH2 0x4422 JUMP JUMPDEST SWAP1 POP PUSH1 0x0 DUP2 SGT PUSH2 0x1B91 JUMPI PUSH1 0x0 DUP1 REVERT JUMPDEST SWAP7 SWAP2 SWAP6 POP SWAP4 POP SWAP2 POP POP JUMP JUMPDEST PUSH2 0x1BA4 PUSH2 0x406C JUMP JUMPDEST PUSH1 0x0 PUSH2 0x1BAE PUSH2 0x2C34 JUMP JUMPDEST PUSH1 0x0 DUP6 DUP2 MSTORE PUSH1 0x20 DUP3 DUP2 MSTORE PUSH1 0x40 DUP1 DUP4 KECCAK256 DUP8 ISZERO ISZERO DUP5 MSTORE DUP3 MSTORE SWAP2 DUP3 SWAP1 KECCAK256 DUP3 MLOAD PUSH1 0xA0 DUP2 ADD DUP5 MSTORE DUP2 SLOAD PUSH1 0x1 PUSH1 0x1 PUSH1 0xA0 SHL SUB DUP2 AND DUP3 MSTORE PUSH1 0xFF PUSH1 0x1 PUSH1 0xA0 SHL DUP3 DIV DUP2 AND ISZERO ISZERO SWAP5 DUP4 ADD SWAP5 SWAP1 SWAP5 MSTORE PUSH1 0x1 PUSH1 0xB0 SHL DUP2 DIV DUP5 AND PUSH1 0xA EXP SWAP5 DUP3 ADD SWAP5 SWAP1 SWAP5 MSTORE SWAP4 SWAP5 POP SWAP3 SWAP2 PUSH1 0x60 DUP4 ADD SWAP2 PUSH1 0x1 PUSH1 0xA8 SHL SWAP1 SWAP2 DIV AND PUSH1 0x5 DUP2 GT ISZERO PUSH2 0x1C23 JUMPI INVALID JUMPDEST DUP2 MSTORE SWAP2 SLOAD PUSH1 0x1 PUSH1 0xB8 SHL SWAP1 DIV PUSH9 0xFFFFFFFFFFFFFFFFFF AND PUSH1 0x20 SWAP1 SWAP3 ADD SWAP2 SWAP1 SWAP2 MSTORE SWAP5 SWAP4 POP POP POP POP JUMP JUMPDEST PUSH1 0x0 DUP2 PUSH1 0x0 NOT EQ DUP1 ISZERO PUSH2 0x1C60 JUMPI POP PUSH1 0x1 PUSH1 0xFF SHL DUP4 EQ JUMPDEST ISZERO PUSH2 0x1C6A JUMPI PUSH1 0x0 DUP1 REVERT JUMPDEST DUP2 DUP4 DUP2 PUSH2 0x1C73 JUMPI INVALID JUMPDEST SDIV SWAP4 SWAP3 POP POP POP JUMP JUMPDEST DUP1 PUSH1 0x5 DUP6 PUSH1 0x60 ADD MLOAD PUSH1 0x5 DUP2 GT ISZERO PUSH2 0x1C8E JUMPI INVALID JUMPDEST EQ ISZERO PUSH2 0x1CB3 JUMPI PUSH1 0x0 PUSH2 0x1C9F DUP5 PUSH2 0xF2C JUMP JUMPDEST SWAP1 POP PUSH2 0x1CAF DUP2 PUSH1 0x0 ADD MLOAD DUP5 PUSH2 0x2C41 JUMP JUMPDEST SWAP3 POP POP JUMPDEST PUSH1 0x0 DUP3 SGT ISZERO PUSH2 0x1CDF JUMPI PUSH1 0x0 PUSH2 0x1CC9 DUP7 DUP7 DUP6 PUSH2 0x2CD3 JUMP JUMPDEST SWAP1 POP DUP6 PUSH1 0x20 ADD MLOAD ISZERO PUSH2 0x1CD9 JUMPI DUP1 SWAP2 POP JUMPDEST POP PUSH2 0xF70 JUMP JUMPDEST PUSH1 0x3 DUP6 PUSH1 0x60 ADD MLOAD PUSH1 0x5 DUP2 GT ISZERO PUSH2 0x1CF1 JUMPI INVALID JUMPDEST EQ ISZERO PUSH2 0x1D0E JUMPI PUSH2 0x1D09 DUP5 PUSH2 0x1D04 DUP5 PUSH2 0xED2 JUMP JUMPDEST PUSH2 0x2DC6 JUMP JUMPDEST PUSH2 0xF70 JUMP JUMPDEST DUP5 MLOAD PUSH2 0xF70 SWAP1 DUP6 PUSH2 0x1D1E DUP6 PUSH2 0xED2 JUMP JUMPDEST PUSH2 0x2E01 JUMP JUMPDEST PUSH1 0x0 DUP1 DUP3 SLT ISZERO PUSH2 0x1D32 JUMPI PUSH1 0x0 DUP1 REVERT JUMPDEST POP SWAP1 JUMP JUMPDEST PUSH1 0x0 DUP1 PUSH1 0x5 DUP6 PUSH1 0x60 ADD MLOAD PUSH1 0x5 DUP2 GT ISZERO PUSH2 0x1D4B JUMPI INVALID JUMPDEST EQ PUSH2 0x1D5D JUMPI PUSH4 0x70A08231 PUSH1 0xE0 SHL PUSH2 0x1D66 JUMP JUMPDEST PUSH4 0xED1279F PUSH1 0xE1 SHL JUMPDEST SWAP1 POP PUSH1 0x0 PUSH2 0x1D79 DUP7 PUSH1 0x0 ADD MLOAD ADDRESS DUP5 PUSH2 0x2E78 JUMP JUMPDEST SWAP1 POP PUSH1 0x5 DUP7 PUSH1 0x60 ADD MLOAD PUSH1 0x5 DUP2 GT ISZERO PUSH2 0x1D8D JUMPI INVALID JUMPDEST EQ ISZERO PUSH2 0x1DB4 JUMPI PUSH1 0x0 PUSH2 0x1DA2 DUP7 PUSH2 0xFFFF AND PUSH2 0xF2C JUMP JUMPDEST SWAP1 POP PUSH2 0x1DAE DUP2 DUP7 PUSH2 0x2F8A JUMP JUMPDEST POP PUSH2 0x1DF7 JUMP JUMPDEST PUSH1 0x1 DUP7 PUSH1 0x60 ADD MLOAD PUSH1 0x5 DUP2 GT ISZERO PUSH2 0x1DC6 JUMPI INVALID JUMPDEST EQ ISZERO PUSH2 0x1DD6 JUMPI PUSH2 0x1DAE DUP7 DUP6 PUSH2 0x2FF5 JUMP JUMPDEST PUSH1 0x2 DUP7 PUSH1 0x60 ADD MLOAD PUSH1 0x5 DUP2 GT ISZERO PUSH2 0x1DE8 JUMPI INVALID JUMPDEST EQ ISZERO PUSH2 0x7B JUMPI PUSH2 0x1DF7 DUP7 PUSH2 0x30A1 JUMP JUMPDEST PUSH1 0x0 PUSH2 0x1E08 DUP8 PUSH1 0x0 ADD MLOAD ADDRESS DUP6 PUSH2 0x2E78 JUMP JUMPDEST SWAP1 POP PUSH2 0x1E1C PUSH2 0x1E17 DUP3 DUP5 PUSH2 0x30E0 JUMP JUMPDEST PUSH2 0x2697 JUMP JUMPDEST SWAP8 SWAP7 POP POP POP POP POP POP POP JUMP JUMPDEST PUSH1 0x0 PUSH4 0x5F5E100 DUP4 PUSH1 0x40 ADD MLOAD EQ ISZERO PUSH2 0x1E40 JUMPI POP DUP1 PUSH2 0xECC JUMP JUMPDEST PUSH1 0x40 DUP4 ADD MLOAD PUSH2 0xA94 SWAP1 PUSH2 0xF6A DUP5 PUSH4 0x5F5E100 PUSH2 0x1A8B JUMP JUMPDEST PUSH1 0x0 DUP2 PUSH2 0x1E66 JUMPI POP PUSH1 0x0 PUSH2 0xECC JUMP JUMPDEST PUSH1 0x0 DUP3 SGT PUSH2 0x1E73 JUMPI PUSH1 0x0 DUP1 REVERT JUMPDEST PUSH1 0x0 PUSH2 0x1E7E DUP5 PUSH2 0xF2C JUMP JUMPDEST SWAP1 POP PUSH1 0x0 PUSH2 0x1E8F DUP3 PUSH1 0x0 ADD MLOAD PUSH2 0x313D JUMP JUMPDEST SWAP1 POP PUSH1 0x2 DUP2 SDIV PUSH12 0x33B2E3C9FD0803CE8000000 PUSH1 0x1 PUSH1 0x1 PUSH1 0xFF SHL SUB DUP3 SWAP1 SUB SDIV DUP6 SGT ISZERO PUSH2 0x1EBA JUMPI PUSH1 0x0 DUP1 REVERT JUMPDEST DUP2 DUP2 PUSH12 0x33B2E3C9FD0803CE8000000 DUP8 MUL ADD DUP2 PUSH2 0x1ED3 JUMPI INVALID JUMPDEST SDIV SWAP7 SWAP6 POP POP POP POP POP POP JUMP JUMPDEST PUSH1 0x0 DUP1 PUSH1 0x0 PUSH2 0x1EF4 DUP7 PUSH1 0x0 ADD MLOAD PUSH2 0xFFFF AND PUSH2 0x109F JUMP JUMPDEST SWAP1 POP PUSH1 0x0 PUSH2 0x1F0F DUP8 PUSH1 0x80 ADD MLOAD DUP4 PUSH2 0x10B2 SWAP1 SWAP2 SWAP1 PUSH4 0xFFFFFFFF AND JUMP JUMPDEST SWAP1 POP DUP1 PUSH2 0x1F24 JUMPI PUSH1 0x0 DUP1 SWAP4 POP SWAP4 POP POP POP PUSH2 0x1F8C JUMP JUMPDEST DUP5 DUP1 ISZERO PUSH2 0x1F31 JUMPI POP PUSH1 0x0 DUP2 SLT JUMPDEST ISZERO PUSH2 0x1F66 JUMPI DUP7 MLOAD PUSH2 0x1F53 SWAP1 PUSH2 0xFFFF AND DUP8 PUSH2 0x1F4A DUP5 PUSH2 0xED2 JUMP JUMPDEST DUP6 SWAP3 SWAP2 SWAP1 PUSH2 0x31C8 JUMP JUMPDEST SWAP4 POP PUSH2 0x1F5F DUP3 DUP3 PUSH2 0x1E27 JUMP JUMPDEST SWAP3 POP PUSH2 0x1F89 JUMP JUMPDEST DUP7 MLOAD PUSH2 0x1F7A SWAP1 DUP4 SWAP1 DUP9 SWAP1 PUSH2 0xFFFF AND DUP5 PUSH2 0x1C7B JUMP JUMPDEST SWAP4 POP PUSH2 0x1F86 DUP3 DUP6 PUSH2 0x1E27 JUMP JUMPDEST SWAP3 POP JUMPDEST POP POP JUMPDEST SWAP4 POP SWAP4 SWAP2 POP POP JUMP JUMPDEST DUP3 MLOAD PUSH1 0x0 SWAP1 TIMESTAMP SWAP1 DUP3 SWAP1 PUSH2 0x1FAA SWAP1 PUSH2 0xFFFF AND PUSH2 0x325E JUMP JUMPDEST SWAP1 POP PUSH1 0x0 PUSH2 0x1FBD DUP3 DUP9 PUSH1 0xC0 ADD MLOAD DUP6 PUSH2 0x3284 JUMP JUMPDEST SWAP1 POP PUSH2 0x1FCB DUP8 DUP4 DUP4 DUP9 PUSH2 0x3367 JUMP JUMPDEST SWAP4 POP PUSH1 0x0 PUSH2 0x1FD8 DUP4 PUSH2 0x3494 JUMP JUMPDEST SWAP1 POP PUSH1 0x1 PUSH1 0x1 PUSH1 0xA0 SHL SUB DUP2 AND ISZERO PUSH2 0x2066 JUMPI DUP1 PUSH1 0x1 PUSH1 0x1 PUSH1 0xA0 SHL SUB AND PUSH4 0x1D684DD2 DUP9 DUP11 PUSH1 0x0 ADD MLOAD PUSH2 0x200B DUP13 PUSH1 0x40 ADD MLOAD PUSH2 0x1D23 JUMP JUMPDEST DUP11 DUP14 PUSH1 0xC0 ADD MLOAD DUP12 PUSH1 0x40 MLOAD DUP8 PUSH4 0xFFFFFFFF AND PUSH1 0xE0 SHL DUP2 MSTORE PUSH1 0x4 ADD PUSH2 0x2033 SWAP7 SWAP6 SWAP5 SWAP4 SWAP3 SWAP2 SWAP1 PUSH2 0x4815 JUMP JUMPDEST PUSH1 0x0 PUSH1 0x40 MLOAD DUP1 DUP4 SUB DUP2 PUSH1 0x0 DUP8 DUP1 EXTCODESIZE ISZERO DUP1 ISZERO PUSH2 0x204D JUMPI PUSH1 0x0 DUP1 REVERT JUMPDEST POP GAS CALL ISZERO DUP1 ISZERO PUSH2 0x2061 JUMPI RETURNDATASIZE PUSH1 0x0 DUP1 RETURNDATACOPY RETURNDATASIZE PUSH1 0x0 REVERT JUMPDEST POP POP POP POP JUMPDEST DUP5 ISZERO PUSH2 0x2076 JUMPI PUSH2 0x2076 DUP8 DUP7 PUSH2 0x3506 JUMP JUMPDEST POP POP POP POP SWAP4 SWAP3 POP POP POP JUMP JUMPDEST PUSH1 0x0 PUSH2 0x208B PUSH2 0x2BE2 JUMP JUMPDEST PUSH1 0x1 PUSH1 0x1 PUSH1 0xA0 SHL SUB DUP9 AND PUSH1 0x0 SWAP1 DUP2 MSTORE PUSH1 0x20 DUP3 DUP2 MSTORE PUSH1 0x40 DUP1 DUP4 KECCAK256 DUP11 DUP5 MSTORE SWAP1 SWAP2 MSTORE SWAP1 KECCAK256 SWAP1 SWAP2 POP PUSH11 0x7FFFFFFFFFFFFFFFFFFFFF NOT DUP7 SLT DUP1 ISZERO SWAP1 PUSH2 0x20D6 JUMPI POP PUSH11 0x7FFFFFFFFFFFFFFFFFFFFF DUP7 SGT ISZERO JUMPDEST PUSH2 0x20DF JUMPI PUSH1 0x0 DUP1 REVERT JUMPDEST PUSH1 0x0 DUP6 SLT ISZERO DUP1 ISZERO PUSH2 0x20FA JUMPI POP PUSH10 0xFFFFFFFFFFFFFFFFFFFF DUP6 SGT ISZERO JUMPDEST PUSH2 0x2103 JUMPI PUSH1 0x0 DUP1 REVERT JUMPDEST DUP4 PUSH2 0x2143 JUMPI PUSH7 0xFFFFFFFFFFFFFF DUP4 GT ISZERO PUSH2 0x211C JUMPI PUSH1 0x0 DUP1 REVERT JUMPDEST DUP1 SLOAD PUSH7 0xFFFFFFFFFFFFFF PUSH1 0x70 SHL NOT AND PUSH1 0x1 PUSH1 0x70 SHL PUSH7 0xFFFFFFFFFFFFFF DUP6 AND MUL OR DUP2 SSTORE PUSH2 0x215D JUMP JUMPDEST DUP1 SLOAD PUSH1 0x1 PUSH1 0x50 SHL SWAP1 DIV PUSH4 0xFFFFFFFF AND DUP5 EQ PUSH2 0x215D JUMPI PUSH1 0x0 DUP1 REVERT JUMPDEST DUP1 SLOAD PUSH1 0xA SWAP7 SWAP1 SWAP7 SIGNEXTEND PUSH11 0xFFFFFFFFFFFFFFFFFFFFFF AND PUSH1 0x1 PUSH1 0xA8 SHL MUL PUSH1 0x1 PUSH1 0x1 PUSH1 0xA8 SHL SUB PUSH10 0xFFFFFFFFFFFFFFFFFFFF SWAP1 SWAP7 AND PUSH10 0xFFFFFFFFFFFFFFFFFFFF NOT PUSH4 0xFFFFFFFF SWAP1 SWAP7 AND PUSH1 0x1 PUSH1 0x50 SHL MUL PUSH4 0xFFFFFFFF PUSH1 0x50 SHL NOT SWAP1 SWAP9 AND SWAP8 SWAP1 SWAP8 OR SWAP5 SWAP1 SWAP5 AND SWAP6 SWAP1 SWAP6 OR SWAP4 SWAP1 SWAP4 AND SWAP2 SWAP1 SWAP2 OR SWAP1 SWAP3 SSTORE POP POP POP POP JUMP JUMPDEST DUP3 PUSH1 0x0 LT DUP1 ISZERO PUSH2 0x21E3 JUMPI POP PUSH2 0x3FFF DUP4 GT ISZERO JUMPDEST PUSH2 0x21EC JUMPI PUSH1 0x0 DUP1 REVERT JUMPDEST DUP2 DUP1 ISZERO PUSH2 0x2200 JUMPI POP DUP3 DUP5 PUSH1 0x60 ADD MLOAD PUSH2 0xFFFF AND EQ JUMPDEST ISZERO PUSH2 0x220A JUMPI PUSH2 0x16FF JUMP JUMPDEST PUSH1 0x80 DUP5 ADD MLOAD PUSH1 0x0 SWAP1 DUP2 JUMPDEST PUSH1 0x1 PUSH1 0x1 PUSH1 0x70 SHL SUB NOT DUP3 AND ISZERO PUSH2 0x2385 JUMPI PUSH1 0xF0 DUP3 SWAP1 SHR PUSH2 0x3FFF AND DUP7 DUP2 EQ DUP1 ISZERO PUSH2 0x2239 JUMPI POP DUP6 JUMPDEST ISZERO PUSH2 0x2271 JUMPI POP PUSH1 0x80 DUP8 ADD DUP1 MLOAD PUSH1 0x1 PUSH1 0x1 PUSH1 0xF0 SHL SUB NOT DUP7 AND PUSH1 0x10 SWAP1 SWAP4 MUL SWAP3 SWAP1 SWAP3 SHR SWAP2 SWAP1 SWAP2 OR PUSH1 0x1 PUSH1 0x1 PUSH1 0x70 SHL SUB NOT AND SWAP1 MSTORE POP PUSH2 0x16FF SWAP1 POP JUMP JUMPDEST DUP7 DUP2 EQ DUP1 ISZERO PUSH2 0x227E JUMPI POP DUP6 ISZERO JUMPDEST ISZERO PUSH2 0x22D3 JUMPI PUSH1 0x1 PUSH1 0x1 PUSH1 0xF0 SHL SUB NOT DUP6 AND NOT SWAP3 SWAP1 SWAP3 AND SWAP2 PUSH1 0x3 PUSH1 0xFE SHL DUP4 AND PUSH2 0x22B1 JUMPI PUSH1 0x10 DUP4 PUSH1 0x1 PUSH1 0x1 PUSH1 0x70 SHL SUB NOT AND SWAP1 SHL SWAP3 POP JUMPDEST POP PUSH1 0x1 PUSH1 0x1 PUSH1 0x70 SHL SUB NOT SWAP2 DUP3 AND PUSH1 0x10 SWAP1 SWAP2 MUL SHR SWAP2 SWAP1 SWAP2 OR AND PUSH1 0x80 DUP6 ADD MSTORE PUSH2 0x16FF JUMP JUMPDEST DUP7 DUP2 GT DUP1 ISZERO PUSH2 0x22DF JUMPI POP DUP6 JUMPDEST ISZERO PUSH2 0x2339 JUMPI PUSH1 0x80 DUP9 DUP2 ADD MLOAD PUSH1 0x1 PUSH1 0x1 PUSH1 0xF0 SHL SUB NOT PUSH1 0xF0 DUP11 SWAP1 SHL DUP9 OR DUP2 AND PUSH1 0x10 DUP7 MUL SHR SWAP7 SWAP1 SWAP7 OR SWAP6 SWAP2 SHL AND ISZERO PUSH2 0x2313 JUMPI PUSH1 0x0 DUP1 REVERT JUMPDEST POP PUSH1 0x1 PUSH1 0x1 PUSH1 0x70 SHL SUB NOT SWAP2 DUP3 AND PUSH1 0x1 SWAP2 SWAP1 SWAP2 ADD PUSH1 0x10 MUL SHR SWAP2 SWAP1 SWAP2 OR AND PUSH1 0x80 DUP6 ADD MSTORE PUSH2 0x16FF JUMP JUMPDEST DUP7 DUP2 GT DUP1 ISZERO PUSH2 0x2346 JUMPI POP DUP6 ISZERO JUMPDEST ISZERO PUSH2 0x2354 JUMPI POP POP POP POP PUSH2 0x16FF JUMP JUMPDEST POP PUSH1 0x1 PUSH1 0x1 PUSH1 0xF0 SHL SUB NOT DUP3 AND PUSH1 0x10 DUP3 DUP2 MUL SWAP2 SWAP1 SWAP2 SHR SWAP4 SWAP1 SWAP4 OR SWAP3 SWAP2 SWAP1 SWAP2 SHL PUSH1 0x1 PUSH1 0x1 PUSH1 0x80 SHL SUB NOT AND SWAP1 PUSH1 0x1 ADD PUSH2 0x2214 JUMP JUMPDEST DUP5 PUSH2 0x2392 JUMPI POP POP POP PUSH2 0x16FF JUMP JUMPDEST PUSH1 0x9 DUP2 LT PUSH2 0x239F JUMPI PUSH1 0x0 DUP1 REVERT JUMPDEST PUSH1 0x1 PUSH1 0x1 PUSH1 0xF0 SHL SUB NOT PUSH1 0xF0 DUP8 SWAP1 SHL DUP6 OR AND PUSH1 0x10 SWAP1 SWAP2 MUL SHR SWAP2 SWAP1 SWAP2 OR PUSH1 0x1 PUSH1 0x1 PUSH1 0x70 SHL SUB NOT AND PUSH1 0x80 DUP7 ADD MSTORE POP POP POP POP POP JUMP JUMPDEST PUSH1 0x0 DUP1 DUP1 DUP1 DUP1 DUP1 DUP1 DUP1 JUMPDEST DUP10 MLOAD MLOAD DUP2 LT ISZERO PUSH2 0x2461 JUMPI PUSH1 0x0 DUP11 PUSH1 0x0 ADD MLOAD DUP3 DUP2 MLOAD DUP2 LT PUSH2 0x23F6 JUMPI INVALID JUMPDEST PUSH1 0x20 MUL PUSH1 0x20 ADD ADD MLOAD SWAP1 POP PUSH1 0x3 DUP1 DUP2 GT ISZERO PUSH2 0x240C JUMPI INVALID JUMPDEST DUP2 PUSH1 0xA0 ADD MLOAD PUSH1 0x3 DUP2 GT ISZERO PUSH2 0x241C JUMPI INVALID JUMPDEST EQ ISZERO PUSH2 0x2427 JUMPI PUSH1 0x0 DUP1 REVERT JUMPDEST PUSH1 0x2 DUP2 PUSH1 0xA0 ADD MLOAD PUSH1 0x3 DUP2 GT ISZERO PUSH2 0x2439 JUMPI INVALID JUMPDEST EQ ISZERO DUP1 ISZERO PUSH2 0x2449 JUMPI POP PUSH1 0x60 DUP2 ADD MLOAD ISZERO JUMPDEST ISZERO PUSH2 0x2458 JUMPI PUSH2 0x2458 DUP12 DUP4 PUSH2 0x3525 JUMP JUMPDEST POP PUSH1 0x1 ADD PUSH2 0x23DA JUMP JUMPDEST POP PUSH1 0x0 JUMPDEST DUP10 MLOAD MLOAD DUP2 LT ISZERO PUSH2 0x2504 JUMPI PUSH1 0x0 DUP11 PUSH1 0x0 ADD MLOAD DUP3 DUP2 MLOAD DUP2 LT PUSH2 0x2481 JUMPI INVALID JUMPDEST PUSH1 0x20 MUL PUSH1 0x20 ADD ADD MLOAD SWAP1 POP PUSH1 0x2 PUSH1 0x3 DUP2 GT ISZERO PUSH2 0x2498 JUMPI INVALID JUMPDEST DUP2 PUSH1 0xA0 ADD MLOAD PUSH1 0x3 DUP2 GT ISZERO PUSH2 0x24A8 JUMPI INVALID JUMPDEST EQ ISZERO PUSH2 0x24BC JUMPI PUSH1 0x80 DUP2 ADD MLOAD PUSH1 0x0 SWAP1 SSTORE PUSH2 0x24FB JUMP JUMPDEST PUSH1 0x1 DUP2 PUSH1 0xA0 ADD MLOAD PUSH1 0x3 DUP2 GT ISZERO PUSH2 0x24CE JUMPI INVALID JUMPDEST EQ ISZERO PUSH2 0x24E7 JUMPI PUSH1 0x80 DUP2 ADD MLOAD DUP1 PUSH2 0x24E4 DUP4 DUP3 PUSH2 0x3674 JUMP JUMPDEST POP POP JUMPDEST PUSH2 0x24F3 DUP2 DUP7 DUP7 DUP7 PUSH2 0x37A5 JUMP JUMPDEST SWAP2 SWAP7 POP SWAP5 POP SWAP3 POP JUMPDEST POP PUSH1 0x1 ADD PUSH2 0x2465 JUMP JUMPDEST POP PUSH1 0x60 DUP10 ADD MLOAD PUSH1 0x0 PUSH2 0x2514 PUSH2 0x3808 JUMP JUMPDEST PUSH1 0x1 PUSH1 0x1 PUSH1 0xA0 SHL SUB DUP12 AND PUSH1 0x0 SWAP1 DUP2 MSTORE PUSH1 0x20 DUP3 SWAP1 MSTORE PUSH1 0x40 DUP2 KECCAK256 SWAP2 SWAP3 POP JUMPDEST DUP13 PUSH1 0x20 ADD MLOAD MLOAD DUP2 LT ISZERO PUSH2 0x25DE JUMPI PUSH1 0x0 DUP14 PUSH1 0x20 ADD MLOAD DUP3 DUP2 MLOAD DUP2 LT PUSH2 0x254F JUMPI INVALID JUMPDEST PUSH1 0x20 MUL PUSH1 0x20 ADD ADD MLOAD SWAP1 POP DUP1 PUSH1 0x60 ADD MLOAD PUSH1 0x0 EQ ISZERO PUSH2 0x256C JUMPI POP PUSH2 0x25D6 JUMP JUMPDEST PUSH1 0x2 DUP2 PUSH1 0xA0 ADD MLOAD PUSH1 0x3 DUP2 GT ISZERO PUSH2 0x257E JUMPI INVALID JUMPDEST EQ ISZERO DUP1 ISZERO PUSH2 0x259C JUMPI POP PUSH1 0x3 DUP2 PUSH1 0xA0 ADD MLOAD PUSH1 0x3 DUP2 GT ISZERO PUSH2 0x2599 JUMPI INVALID JUMPDEST EQ ISZERO JUMPDEST PUSH2 0x25A5 JUMPI PUSH1 0x0 DUP1 REVERT JUMPDEST PUSH2 0x25B1 DUP2 DUP10 DUP10 DUP10 PUSH2 0x37A5 JUMP JUMPDEST SWAP2 SWAP10 POP SWAP8 POP SWAP6 POP PUSH2 0x25CE DUP2 DUP5 DUP8 PUSH1 0x10 DUP2 LT PUSH2 0x25C8 JUMPI INVALID JUMPDEST ADD PUSH2 0x3674 JUMP JUMPDEST PUSH1 0x1 DUP6 ADD SWAP5 POP POP JUMPDEST PUSH1 0x1 ADD PUSH2 0x2530 JUMP JUMPDEST POP PUSH1 0x10 DUP4 GT ISZERO DUP1 ISZERO PUSH2 0x25F5 JUMPI POP PUSH5 0xFFFFFFFFFF DUP5 GT ISZERO JUMPDEST PUSH2 0x25FE JUMPI PUSH1 0x0 DUP1 REVERT JUMPDEST POP SWAP4 SWAP11 SWAP3 SWAP10 POP SWAP8 POP SWAP6 POP SWAP4 POP POP POP POP JUMP JUMPDEST PUSH1 0x0 DUP1 PUSH32 0x7FFF7FFF7FFF7FFF7FFF7FFF7FFF7FFF7FFF0000000000000000000000000000 DUP4 AND DUP2 JUMPDEST PUSH1 0x1 PUSH1 0x1 PUSH1 0x70 SHL SUB NOT DUP3 AND ISZERO PUSH2 0x2681 JUMPI PUSH1 0x1 PUSH1 0xFE SHL DUP3 DUP2 AND EQ ISZERO PUSH2 0x266B JUMPI PUSH1 0x1 PUSH1 0x1 PUSH1 0xF0 SHL SUB NOT DUP3 AND DUP2 SHR SWAP3 SWAP1 SWAP3 OR SWAP2 PUSH1 0x10 ADD JUMPDEST PUSH1 0x10 DUP3 PUSH1 0x1 PUSH1 0x1 PUSH1 0x70 SHL SUB NOT AND SWAP1 SHL SWAP2 POP PUSH2 0x2637 JUMP JUMPDEST POP SWAP1 SWAP4 SWAP3 POP POP POP JUMP JUMPDEST PUSH1 0x0 DUP1 PUSH2 0xECC PUSH1 0x1 PUSH2 0x3811 JUMP JUMPDEST PUSH1 0x0 PUSH1 0x1 PUSH1 0x1 PUSH1 0xFF SHL SUB DUP3 GT ISZERO PUSH2 0x1D32 JUMPI PUSH1 0x0 DUP1 REVERT JUMPDEST PUSH1 0x3 DUP4 PUSH1 0x6 DUP2 GT ISZERO PUSH2 0x26BB JUMPI INVALID JUMPDEST EQ DUP1 PUSH2 0x26D2 JUMPI POP PUSH1 0x4 DUP4 PUSH1 0x6 DUP2 GT ISZERO PUSH2 0x26D0 JUMPI INVALID JUMPDEST EQ JUMPDEST DUP1 PUSH2 0x26E8 JUMPI POP PUSH1 0x6 DUP4 PUSH1 0x6 DUP2 GT ISZERO PUSH2 0x26E6 JUMPI INVALID JUMPDEST EQ JUMPDEST ISZERO PUSH2 0x27B4 JUMPI PUSH2 0x26F7 DUP5 DUP3 PUSH2 0x17EB JUMP JUMPDEST PUSH1 0x60 DUP5 ADD MLOAD PUSH2 0x2706 SWAP1 DUP3 PUSH2 0x28C8 JUMP JUMPDEST PUSH1 0x60 DUP6 ADD MSTORE DUP4 MLOAD PUSH1 0x40 MLOAD PUSH4 0x21285613 PUSH1 0xE1 SHL DUP2 MSTORE PUSH1 0x0 SWAP2 PUSH20 0x0 SWAP2 PUSH4 0x4250AC26 SWAP2 PUSH2 0x2747 SWAP2 DUP7 SWAP1 PUSH1 0x4 ADD PUSH2 0x4B16 JUMP JUMPDEST PUSH1 0x20 PUSH1 0x40 MLOAD DUP1 DUP4 SUB DUP2 DUP7 DUP1 EXTCODESIZE ISZERO DUP1 ISZERO PUSH2 0x275F JUMPI PUSH1 0x0 DUP1 REVERT JUMPDEST POP GAS DELEGATECALL ISZERO DUP1 ISZERO PUSH2 0x2773 JUMPI RETURNDATASIZE PUSH1 0x0 DUP1 RETURNDATACOPY RETURNDATASIZE PUSH1 0x0 REVERT JUMPDEST POP POP POP POP PUSH1 0x40 MLOAD RETURNDATASIZE PUSH1 0x1F NOT PUSH1 0x1F DUP3 ADD AND DUP3 ADD DUP1 PUSH1 0x40 MSTORE POP DUP2 ADD SWAP1 PUSH2 0x2797 SWAP2 SWAP1 PUSH2 0x4422 JUMP JUMPDEST PUSH1 0xC0 DUP7 ADD MLOAD SWAP1 SWAP2 POP PUSH2 0x27A9 SWAP1 DUP3 PUSH2 0xEB6 JUMP JUMPDEST PUSH1 0xC0 DUP7 ADD MSTORE POP PUSH2 0x16FF JUMP JUMPDEST PUSH1 0x5 DUP4 PUSH1 0x6 DUP2 GT ISZERO PUSH2 0x27C2 JUMPI INVALID JUMPDEST EQ ISZERO PUSH2 0x16FF JUMPI DUP2 PUSH2 0x27EC DUP6 PUSH1 0xC0 ADD MLOAD PUSH2 0xF99 DUP8 PUSH1 0xA0 ADD MLOAD DUP9 PUSH1 0x40 ADD MLOAD PUSH2 0xEB6 SWAP1 SWAP2 SWAP1 PUSH4 0xFFFFFFFF AND JUMP JUMPDEST SLT ISZERO PUSH2 0x280A JUMPI PUSH1 0x40 MLOAD PUSH3 0x461BCD PUSH1 0xE5 SHL DUP2 MSTORE PUSH1 0x4 ADD PUSH2 0x17A SWAP1 PUSH2 0x49E1 JUMP JUMPDEST PUSH1 0xC0 DUP5 ADD MLOAD PUSH2 0x2819 SWAP1 DUP4 PUSH2 0x28C8 JUMP JUMPDEST PUSH1 0xC0 DUP6 ADD MSTORE DUP4 MLOAD PUSH1 0x40 MLOAD PUSH4 0x52E73F77 PUSH1 0xE0 SHL DUP2 MSTORE PUSH1 0x0 SWAP2 PUSH20 0x0 SWAP2 PUSH4 0x52E73F77 SWAP2 PUSH2 0x285A SWAP2 DUP8 SWAP1 PUSH1 0x4 ADD PUSH2 0x4B16 JUMP JUMPDEST PUSH1 0x20 PUSH1 0x40 MLOAD DUP1 DUP4 SUB DUP2 DUP7 DUP1 EXTCODESIZE ISZERO DUP1 ISZERO PUSH2 0x2872 JUMPI PUSH1 0x0 DUP1 REVERT JUMPDEST POP GAS DELEGATECALL ISZERO DUP1 ISZERO PUSH2 0x2886 JUMPI RETURNDATASIZE PUSH1 0x0 DUP1 RETURNDATACOPY RETURNDATASIZE PUSH1 0x0 REVERT JUMPDEST POP POP POP POP PUSH1 0x40 MLOAD RETURNDATASIZE PUSH1 0x1F NOT PUSH1 0x1F DUP3 ADD AND DUP3 ADD DUP1 PUSH1 0x40 MSTORE POP DUP2 ADD SWAP1 PUSH2 0x28AA SWAP2 SWAP1 PUSH2 0x4422 JUMP JUMPDEST PUSH1 0x60 DUP7 ADD MLOAD SWAP1 SWAP2 POP PUSH2 0x28BC SWAP1 DUP3 PUSH2 0xEB6 JUMP JUMPDEST PUSH1 0x60 DUP7 ADD MSTORE POP POP POP POP POP JUMP JUMPDEST DUP1 DUP3 SUB DUP3 DUP2 SGT ISZERO PUSH1 0x0 DUP4 SLT ISZERO EQ PUSH2 0xECC JUMPI PUSH1 0x0 DUP1 REVERT JUMPDEST PUSH1 0x0 DUP1 PUSH2 0xECC PUSH1 0x2 PUSH2 0x3811 JUMP JUMPDEST PUSH1 0x0 PUSH3 0x15180 DUP3 LT ISZERO PUSH2 0x28FD JUMPI PUSH1 0x0 DUP1 REVERT JUMPDEST POP PUSH3 0x15180 DUP2 MOD SWAP1 SUB SWAP1 JUMP JUMPDEST PUSH1 0x60 PUSH1 0x10 DUP3 PUSH1 0xFF AND GT ISZERO PUSH2 0x291C JUMPI PUSH1 0x0 DUP1 REVERT JUMPDEST PUSH1 0x0 PUSH2 0x2926 PUSH2 0x3808 JUMP JUMPDEST PUSH1 0x1 PUSH1 0x1 PUSH1 0xA0 SHL SUB DUP6 AND PUSH1 0x0 SWAP1 DUP2 MSTORE PUSH1 0x20 DUP3 SWAP1 MSTORE PUSH1 0x40 DUP2 KECCAK256 SWAP2 SWAP3 POP PUSH1 0xFF DUP6 AND PUSH1 0x1 PUSH1 0x1 PUSH1 0x40 SHL SUB DUP2 GT DUP1 ISZERO PUSH2 0x295A JUMPI PUSH1 0x0 DUP1 REVERT JUMPDEST POP PUSH1 0x40 MLOAD SWAP1 DUP1 DUP3 MSTORE DUP1 PUSH1 0x20 MUL PUSH1 0x20 ADD DUP3 ADD PUSH1 0x40 MSTORE DUP1 ISZERO PUSH2 0x2994 JUMPI DUP2 PUSH1 0x20 ADD JUMPDEST PUSH2 0x2981 PUSH2 0x4002 JUMP JUMPDEST DUP2 MSTORE PUSH1 0x20 ADD SWAP1 PUSH1 0x1 SWAP1 SUB SWAP1 DUP2 PUSH2 0x2979 JUMPI SWAP1 POP JUMPDEST POP SWAP1 POP PUSH1 0x0 JUMPDEST DUP6 PUSH1 0xFF AND DUP2 LT ISZERO PUSH2 0x2A20 JUMPI PUSH1 0x0 DUP4 DUP3 PUSH1 0x10 DUP2 LT PUSH2 0x29B3 JUMPI INVALID JUMPDEST ADD SWAP1 POP PUSH1 0x0 DUP4 DUP4 DUP2 MLOAD DUP2 LT PUSH2 0x29C4 JUMPI INVALID JUMPDEST PUSH1 0x20 SWAP1 DUP2 MUL SWAP2 SWAP1 SWAP2 ADD DUP2 ADD MLOAD DUP4 SLOAD PUSH2 0xFFFF DUP2 AND DUP3 MSTORE PUSH5 0xFFFFFFFFFF PUSH3 0x10000 DUP3 DIV AND SWAP3 DUP3 ADD SWAP3 SWAP1 SWAP3 MSTORE PUSH1 0xFF PUSH1 0x1 PUSH1 0x38 SHL DUP4 DIV AND PUSH1 0x40 DUP3 ADD MSTORE PUSH1 0x1 PUSH1 0x40 SHL SWAP1 SWAP2 DIV PUSH1 0xA SWAP1 DUP2 SIGNEXTEND SWAP1 SIGNEXTEND PUSH1 0x60 DUP3 ADD MSTORE PUSH1 0x80 ADD SWAP2 SWAP1 SWAP2 MSTORE POP PUSH1 0x1 ADD PUSH2 0x299A JUMP JUMPDEST POP SWAP6 SWAP5 POP POP POP POP POP JUMP JUMPDEST DUP1 MLOAD PUSH1 0x0 DUP2 PUSH1 0x1 PUSH1 0x1 PUSH1 0x40 SHL SUB DUP2 GT DUP1 ISZERO PUSH2 0x2A44 JUMPI PUSH1 0x0 DUP1 REVERT JUMPDEST POP PUSH1 0x40 MLOAD SWAP1 DUP1 DUP3 MSTORE DUP1 PUSH1 0x20 MUL PUSH1 0x20 ADD DUP3 ADD PUSH1 0x40 MSTORE DUP1 ISZERO PUSH2 0x2A6E JUMPI DUP2 PUSH1 0x20 ADD PUSH1 0x20 DUP3 MUL DUP1 CALLDATASIZE DUP4 CALLDATACOPY ADD SWAP1 POP JUMPDEST POP SWAP1 POP PUSH1 0x0 JUMPDEST DUP3 DUP2 LT ISZERO PUSH2 0x2ACB JUMPI PUSH1 0x0 DUP5 DUP3 DUP2 MLOAD DUP2 LT PUSH2 0x2A8A JUMPI INVALID JUMPDEST PUSH1 0x20 MUL PUSH1 0x20 ADD ADD MLOAD SWAP1 POP PUSH2 0x2AAB DUP2 PUSH1 0x0 ADD MLOAD DUP3 PUSH1 0x20 ADD MLOAD DUP4 PUSH1 0x40 ADD MLOAD PUSH2 0x382A JUMP JUMPDEST DUP4 DUP4 DUP2 MLOAD DUP2 LT PUSH2 0x2AB7 JUMPI INVALID JUMPDEST PUSH1 0x20 SWAP1 DUP2 MUL SWAP2 SWAP1 SWAP2 ADD ADD MSTORE POP PUSH1 0x1 ADD PUSH2 0x2A74 JUMP JUMPDEST POP PUSH1 0x1 JUMPDEST DUP3 DUP2 LT ISZERO PUSH2 0x16FF JUMPI DUP1 JUMPDEST PUSH1 0x0 DUP2 GT DUP1 ISZERO PUSH2 0x2B11 JUMPI POP DUP3 DUP2 DUP2 MLOAD DUP2 LT PUSH2 0x2AF0 JUMPI INVALID JUMPDEST PUSH1 0x20 MUL PUSH1 0x20 ADD ADD MLOAD DUP4 PUSH1 0x1 DUP4 SUB DUP2 MLOAD DUP2 LT PUSH2 0x2B07 JUMPI INVALID JUMPDEST PUSH1 0x20 MUL PUSH1 0x20 ADD ADD MLOAD GT JUMPDEST ISZERO PUSH2 0x2BD9 JUMPI DUP3 DUP2 DUP2 MLOAD DUP2 LT PUSH2 0x2B22 JUMPI INVALID JUMPDEST PUSH1 0x20 MUL PUSH1 0x20 ADD ADD MLOAD DUP4 PUSH1 0x1 DUP4 SUB DUP2 MLOAD DUP2 LT PUSH2 0x2B39 JUMPI INVALID JUMPDEST PUSH1 0x20 MUL PUSH1 0x20 ADD ADD MLOAD DUP5 PUSH1 0x1 DUP5 SUB DUP2 MLOAD DUP2 LT PUSH2 0x2B50 JUMPI INVALID JUMPDEST PUSH1 0x20 MUL PUSH1 0x20 ADD ADD DUP6 DUP5 DUP2 MLOAD DUP2 LT PUSH2 0x2B63 JUMPI INVALID JUMPDEST PUSH1 0x20 MUL PUSH1 0x20 ADD ADD DUP3 DUP2 MSTORE POP DUP3 DUP2 MSTORE POP POP POP DUP5 DUP2 DUP2 MLOAD DUP2 LT PUSH2 0x2B80 JUMPI INVALID JUMPDEST PUSH1 0x20 MUL PUSH1 0x20 ADD ADD MLOAD DUP6 PUSH1 0x1 DUP4 SUB DUP2 MLOAD DUP2 LT PUSH2 0x2B97 JUMPI INVALID JUMPDEST PUSH1 0x20 MUL PUSH1 0x20 ADD ADD MLOAD DUP7 PUSH1 0x1 DUP5 SUB DUP2 MLOAD DUP2 LT PUSH2 0x2BAE JUMPI INVALID JUMPDEST PUSH1 0x20 MUL PUSH1 0x20 ADD ADD DUP8 DUP5 DUP2 MLOAD DUP2 LT PUSH2 0x2BC1 JUMPI INVALID JUMPDEST PUSH1 0x20 SWAP1 DUP2 MUL SWAP2 SWAP1 SWAP2 ADD ADD SWAP2 SWAP1 SWAP2 MSTORE MSTORE PUSH1 0x0 NOT ADD PUSH2 0x2AD9 JUMP JUMPDEST POP PUSH1 0x1 ADD PUSH2 0x2ACF JUMP JUMPDEST PUSH1 0x0 DUP1 PUSH2 0xECC PUSH1 0x6 PUSH2 0x3811 JUMP JUMPDEST PUSH1 0x8 DUP2 SWAP1 SHR PUSH1 0xFF SWAP1 SWAP2 AND SHL SWAP1 JUMP JUMPDEST PUSH1 0x0 DUP1 PUSH1 0x0 PUSH2 0x2C0A PUSH2 0x3885 JUMP JUMPDEST PUSH1 0x0 SWAP5 DUP6 MSTORE PUSH1 0x20 MSTORE POP POP PUSH1 0x40 SWAP1 SWAP2 KECCAK256 SLOAD PUSH1 0x1 PUSH1 0x1 PUSH1 0xA0 SHL SUB DUP2 AND SWAP3 PUSH1 0x1 PUSH1 0xA0 SHL SWAP1 SWAP2 DIV PUSH1 0xFF AND SWAP2 POP JUMP JUMPDEST PUSH1 0x0 DUP1 PUSH2 0xECC PUSH1 0x7 PUSH2 0x3811 JUMP JUMPDEST PUSH1 0x0 DUP2 PUSH2 0x2C50 JUMPI POP PUSH1 0x0 PUSH2 0xECC JUMP JUMPDEST PUSH1 0x0 PUSH2 0x2C5B DUP5 PUSH2 0x313D JUMP JUMPDEST SWAP1 POP PUSH1 0x0 PUSH2 0x2C68 DUP5 PUSH2 0x3892 JUMP JUMPDEST SWAP1 POP DUP2 PUSH12 0x19D971E4FE8401E74000001 PUSH1 0x1 PUSH1 0xFF SHL SUB DUP2 PUSH2 0x2C85 JUMPI INVALID JUMPDEST SDIV DUP2 SGT ISZERO PUSH2 0x2C92 JUMPI PUSH1 0x0 DUP1 REVERT JUMPDEST PUSH12 0x33B2E3C9FD0803CE8000000 PUSH12 0x19D971E4FE8401E74000000 DUP4 DUP4 MUL ADD SDIV PUSH1 0x0 DUP6 SGT PUSH2 0x2CC7 JUMPI PUSH2 0x2CC2 DUP2 PUSH2 0xED2 JUMP JUMPDEST PUSH2 0x2CC9 JUMP JUMPDEST DUP1 JUMPDEST SWAP7 SWAP6 POP POP POP POP POP POP JUMP JUMPDEST PUSH1 0x0 DUP1 DUP1 DUP1 PUSH1 0x5 DUP8 PUSH1 0x60 ADD MLOAD PUSH1 0x5 DUP2 GT ISZERO PUSH2 0x2CEA JUMPI INVALID JUMPDEST EQ PUSH2 0x2CFC JUMPI PUSH4 0x70A08231 PUSH1 0xE0 SHL PUSH2 0x2D05 JUMP JUMPDEST PUSH4 0xED1279F PUSH1 0xE1 SHL JUMPDEST SWAP1 POP DUP7 PUSH1 0x20 ADD MLOAD ISZERO PUSH2 0x2D21 JUMPI DUP7 MLOAD PUSH2 0x2D1E SWAP1 ADDRESS DUP4 PUSH2 0x2E78 JUMP JUMPDEST SWAP3 POP JUMPDEST DUP7 MLOAD PUSH2 0x2D2E SWAP1 DUP8 DUP8 PUSH2 0x38B3 JUMP JUMPDEST DUP7 PUSH1 0x20 ADD MLOAD DUP1 PUSH2 0x2D42 JUMPI POP PUSH1 0x0 DUP8 PUSH1 0x80 ADD MLOAD GT JUMPDEST ISZERO PUSH2 0x2D57 JUMPI DUP7 MLOAD PUSH2 0x2D54 SWAP1 ADDRESS DUP4 PUSH2 0x2E78 JUMP JUMPDEST SWAP2 POP JUMPDEST PUSH1 0x80 DUP8 ADD MLOAD ISZERO PUSH2 0x2D92 JUMPI PUSH1 0x0 PUSH2 0x2D75 DUP9 PUSH2 0x2D70 DUP6 PUSH2 0x2697 JUMP JUMPDEST PUSH2 0x1E27 JUMP JUMPDEST SWAP1 POP PUSH2 0x2D84 DUP9 PUSH1 0x80 ADD MLOAD PUSH2 0x2697 JUMP JUMPDEST DUP2 SGT ISZERO PUSH2 0x2D90 JUMPI PUSH1 0x0 DUP1 REVERT JUMPDEST POP JUMPDEST DUP7 PUSH1 0x20 ADD MLOAD ISZERO PUSH2 0x2DB3 JUMPI PUSH2 0x2DA9 PUSH2 0x1E17 DUP4 DUP6 PUSH2 0x30E0 JUMP JUMPDEST SWAP4 POP POP POP POP PUSH2 0xA94 JUMP JUMPDEST PUSH2 0x2DA9 DUP6 PUSH2 0x2697 JUMP JUMPDEST POP POP POP SWAP4 SWAP3 POP POP POP JUMP JUMPDEST PUSH1 0x40 MLOAD PUSH1 0x1 PUSH1 0x1 PUSH1 0xA0 SHL SUB DUP4 AND SWAP1 DUP3 ISZERO PUSH2 0x8FC MUL SWAP1 DUP4 SWAP1 PUSH1 0x0 DUP2 DUP2 DUP2 DUP6 DUP9 DUP9 CALL SWAP4 POP POP POP POP ISZERO DUP1 ISZERO PUSH2 0x2DFC JUMPI RETURNDATASIZE PUSH1 0x0 DUP1 RETURNDATACOPY RETURNDATASIZE PUSH1 0x0 REVERT JUMPDEST POP POP POP JUMP JUMPDEST DUP3 PUSH1 0x1 PUSH1 0x1 PUSH1 0xA0 SHL SUB AND PUSH4 0xA9059CBB DUP4 DUP4 PUSH1 0x40 MLOAD DUP4 PUSH4 0xFFFFFFFF AND PUSH1 0xE0 SHL DUP2 MSTORE PUSH1 0x4 ADD DUP1 DUP4 PUSH1 0x1 PUSH1 0x1 PUSH1 0xA0 SHL SUB AND DUP2 MSTORE PUSH1 0x20 ADD DUP3 DUP2 MSTORE PUSH1 0x20 ADD SWAP3 POP POP POP PUSH1 0x0 PUSH1 0x40 MLOAD DUP1 DUP4 SUB DUP2 PUSH1 0x0 DUP8 DUP1 EXTCODESIZE ISZERO DUP1 ISZERO PUSH2 0x2E58 JUMPI PUSH1 0x0 DUP1 REVERT JUMPDEST POP GAS CALL ISZERO DUP1 ISZERO PUSH2 0x2E6C JUMPI RETURNDATASIZE PUSH1 0x0 DUP1 RETURNDATACOPY RETURNDATASIZE PUSH1 0x0 REVERT JUMPDEST POP POP POP POP PUSH2 0x2DFC PUSH2 0x390B JUMP JUMPDEST PUSH1 0x40 DUP1 MLOAD PUSH1 0x1 PUSH1 0x1 PUSH1 0xA0 SHL SUB DUP5 DUP2 AND PUSH1 0x24 DUP1 DUP5 ADD SWAP2 SWAP1 SWAP2 MSTORE DUP4 MLOAD DUP1 DUP5 SUB SWAP1 SWAP2 ADD DUP2 MSTORE PUSH1 0x44 SWAP1 SWAP3 ADD DUP4 MSTORE PUSH1 0x20 DUP3 ADD DUP1 MLOAD PUSH1 0x1 PUSH1 0x1 PUSH1 0xE0 SHL SUB AND PUSH1 0x1 PUSH1 0x1 PUSH1 0xE0 SHL SUB NOT DUP7 AND OR DUP2 MSTORE SWAP3 MLOAD DUP3 MLOAD PUSH1 0x0 SWAP5 DUP6 SWAP5 DUP6 SWAP5 DUP11 AND SWAP4 SWAP1 SWAP3 SWAP1 SWAP2 DUP3 SWAP2 DUP1 DUP4 DUP4 JUMPDEST PUSH1 0x20 DUP4 LT PUSH2 0x2EF5 JUMPI DUP1 MLOAD DUP3 MSTORE PUSH1 0x1F NOT SWAP1 SWAP3 ADD SWAP2 PUSH1 0x20 SWAP2 DUP3 ADD SWAP2 ADD PUSH2 0x2ED6 JUMP JUMPDEST PUSH1 0x1 DUP4 PUSH1 0x20 SUB PUSH2 0x100 EXP SUB DUP1 NOT DUP3 MLOAD AND DUP2 DUP5 MLOAD AND DUP1 DUP3 OR DUP6 MSTORE POP POP POP POP POP POP SWAP1 POP ADD SWAP2 POP POP PUSH1 0x0 PUSH1 0x40 MLOAD DUP1 DUP4 SUB DUP2 DUP6 GAS STATICCALL SWAP2 POP POP RETURNDATASIZE DUP1 PUSH1 0x0 DUP2 EQ PUSH2 0x2F55 JUMPI PUSH1 0x40 MLOAD SWAP2 POP PUSH1 0x1F NOT PUSH1 0x3F RETURNDATASIZE ADD AND DUP3 ADD PUSH1 0x40 MSTORE RETURNDATASIZE DUP3 MSTORE RETURNDATASIZE PUSH1 0x0 PUSH1 0x20 DUP5 ADD RETURNDATACOPY PUSH2 0x2F5A JUMP JUMPDEST PUSH1 0x60 SWAP2 POP JUMPDEST POP SWAP2 POP SWAP2 POP DUP2 PUSH2 0x2F69 JUMPI PUSH1 0x0 DUP1 REVERT JUMPDEST DUP1 DUP1 PUSH1 0x20 ADD SWAP1 MLOAD PUSH1 0x20 DUP2 LT ISZERO PUSH2 0x2F7E JUMPI PUSH1 0x0 DUP1 REVERT JUMPDEST POP MLOAD SWAP7 SWAP6 POP POP POP POP POP POP JUMP JUMPDEST PUSH2 0x2F92 PUSH2 0x3978 JUMP JUMPDEST SLOAD DUP3 MLOAD PUSH1 0x40 MLOAD PUSH4 0xE8EDA9DF PUSH1 0xE0 SHL DUP2 MSTORE PUSH1 0x1 PUSH1 0x1 PUSH1 0xA0 SHL SUB SWAP1 SWAP3 AND SWAP2 PUSH4 0xE8EDA9DF SWAP2 PUSH2 0x2FC7 SWAP2 DUP6 SWAP1 ADDRESS SWAP1 PUSH1 0x0 SWAP1 PUSH1 0x4 ADD PUSH2 0x48AB JUMP JUMPDEST PUSH1 0x0 PUSH1 0x40 MLOAD DUP1 DUP4 SUB DUP2 PUSH1 0x0 DUP8 DUP1 EXTCODESIZE ISZERO DUP1 ISZERO PUSH2 0x2FE1 JUMPI PUSH1 0x0 DUP1 REVERT JUMPDEST POP GAS CALL ISZERO DUP1 ISZERO PUSH2 0x657 JUMPI RETURNDATASIZE PUSH1 0x0 DUP1 RETURNDATACOPY RETURNDATASIZE PUSH1 0x0 REVERT JUMPDEST PUSH1 0x0 DUP1 DUP4 PUSH1 0x0 ADD MLOAD PUSH1 0x1 PUSH1 0x1 PUSH1 0xA0 SHL SUB AND PUSH4 0xA0712D68 DUP5 PUSH1 0x40 MLOAD DUP3 PUSH4 0xFFFFFFFF AND PUSH1 0xE0 SHL DUP2 MSTORE PUSH1 0x4 ADD PUSH2 0x3028 SWAP2 SWAP1 PUSH2 0x48FE JUMP JUMPDEST PUSH1 0x20 PUSH1 0x40 MLOAD DUP1 DUP4 SUB DUP2 PUSH1 0x0 DUP8 DUP1 EXTCODESIZE ISZERO DUP1 ISZERO PUSH2 0x3042 JUMPI PUSH1 0x0 DUP1 REVERT JUMPDEST POP GAS CALL ISZERO DUP1 ISZERO PUSH2 0x3056 JUMPI RETURNDATASIZE PUSH1 0x0 DUP1 RETURNDATACOPY RETURNDATASIZE PUSH1 0x0 REVERT JUMPDEST POP POP POP POP PUSH1 0x40 MLOAD RETURNDATASIZE PUSH1 0x1F NOT PUSH1 0x1F DUP3 ADD AND DUP3 ADD DUP1 PUSH1 0x40 MSTORE POP DUP2 ADD SWAP1 PUSH2 0x307A SWAP2 SWAP1 PUSH2 0x4422 JUMP JUMPDEST SWAP1 POP DUP1 ISZERO PUSH2 0x309A JUMPI PUSH1 0x40 MLOAD PUSH3 0x461BCD PUSH1 0xE5 SHL DUP2 MSTORE PUSH1 0x4 ADD PUSH2 0x17A SWAP1 PUSH2 0x492D JUMP JUMPDEST POP SWAP3 SWAP2 POP POP JUMP JUMPDEST DUP1 PUSH1 0x0 ADD MLOAD PUSH1 0x1 PUSH1 0x1 PUSH1 0xA0 SHL SUB AND PUSH4 0x1249C58B CALLVALUE PUSH1 0x40 MLOAD DUP3 PUSH4 0xFFFFFFFF AND PUSH1 0xE0 SHL DUP2 MSTORE PUSH1 0x4 ADD PUSH1 0x0 PUSH1 0x40 MLOAD DUP1 DUP4 SUB DUP2 DUP6 DUP9 DUP1 EXTCODESIZE ISZERO DUP1 ISZERO PUSH2 0x2FE1 JUMPI PUSH1 0x0 DUP1 REVERT JUMPDEST PUSH1 0x0 DUP3 DUP3 GT ISZERO PUSH2 0x3137 JUMPI PUSH1 0x40 DUP1 MLOAD PUSH3 0x461BCD PUSH1 0xE5 SHL DUP2 MSTORE PUSH1 0x20 PUSH1 0x4 DUP3 ADD MSTORE PUSH1 0x1E PUSH1 0x24 DUP3 ADD MSTORE PUSH32 0x536166654D6174683A207375627472616374696F6E206F766572666C6F770000 PUSH1 0x44 DUP3 ADD MSTORE SWAP1 MLOAD SWAP1 DUP2 SWAP1 SUB PUSH1 0x64 ADD SWAP1 REVERT JUMPDEST POP SWAP1 SUB SWAP1 JUMP JUMPDEST PUSH1 0x0 PUSH2 0xBD0 PUSH2 0x314A PUSH2 0x3978 JUMP JUMPDEST SLOAD PUSH1 0x40 MLOAD PUSH4 0xD15E0053 PUSH1 0xE0 SHL DUP2 MSTORE PUSH1 0x1 PUSH1 0x1 PUSH1 0xA0 SHL SUB SWAP1 SWAP2 AND SWAP1 PUSH4 0xD15E0053 SWAP1 PUSH2 0x3178 SWAP1 DUP7 SWAP1 PUSH1 0x4 ADD PUSH2 0x468B JUMP JUMPDEST PUSH1 0x20 PUSH1 0x40 MLOAD DUP1 DUP4 SUB DUP2 DUP7 DUP1 EXTCODESIZE ISZERO DUP1 ISZERO PUSH2 0x3190 JUMPI PUSH1 0x0 DUP1 REVERT JUMPDEST POP GAS STATICCALL ISZERO DUP1 ISZERO PUSH2 0x31A4 JUMPI RETURNDATASIZE PUSH1 0x0 DUP1 RETURNDATACOPY RETURNDATASIZE PUSH1 0x0 REVERT JUMPDEST POP POP POP POP PUSH1 0x40 MLOAD RETURNDATASIZE PUSH1 0x1F NOT PUSH1 0x1F DUP3 ADD AND DUP3 ADD DUP1 PUSH1 0x40 MSTORE POP DUP2 ADD SWAP1 PUSH2 0x1E17 SWAP2 SWAP1 PUSH2 0x4422 JUMP JUMPDEST PUSH1 0x0 DUP1 PUSH1 0x2 DUP7 PUSH1 0x60 ADD MLOAD PUSH1 0x5 DUP2 GT ISZERO PUSH2 0x31DD JUMPI INVALID JUMPDEST EQ ISZERO PUSH2 0x31F5 JUMPI PUSH2 0x31EE DUP7 DUP6 DUP6 PUSH2 0x3985 JUMP JUMPDEST SWAP1 POP PUSH2 0x3252 JUMP JUMPDEST PUSH1 0x0 PUSH2 0x3200 DUP7 PUSH2 0xF2C JUMP JUMPDEST SWAP1 POP PUSH1 0x5 DUP8 PUSH1 0x60 ADD MLOAD PUSH1 0x5 DUP2 GT ISZERO PUSH2 0x3214 JUMPI INVALID JUMPDEST EQ ISZERO PUSH2 0x322C JUMPI PUSH2 0x3225 DUP2 DUP7 DUP7 PUSH2 0x3A42 JUMP JUMPDEST SWAP2 POP PUSH2 0x3250 JUMP JUMPDEST PUSH1 0x1 DUP8 PUSH1 0x60 ADD MLOAD PUSH1 0x5 DUP2 GT ISZERO PUSH2 0x323E JUMPI INVALID JUMPDEST EQ ISZERO PUSH2 0x7B JUMPI PUSH2 0x3225 DUP8 DUP3 DUP8 DUP8 PUSH2 0x3AF8 JUMP JUMPDEST POP JUMPDEST PUSH2 0x2CC9 PUSH2 0x3EA DUP3 PUSH2 0x2697 JUMP JUMPDEST PUSH1 0x0 DUP1 PUSH2 0x3269 PUSH2 0x3BF6 JUMP JUMPDEST PUSH1 0x0 SWAP4 DUP5 MSTORE PUSH1 0x20 MSTORE POP POP PUSH1 0x40 SWAP1 KECCAK256 SLOAD PUSH1 0x1 PUSH1 0x1 PUSH1 0xA0 SHL SUB AND SWAP1 JUMP JUMPDEST PUSH1 0x0 DUP1 PUSH1 0x0 PUSH2 0x3293 DUP7 DUP6 PUSH2 0x3C03 JUMP JUMPDEST POP SWAP2 POP SWAP2 POP PUSH1 0x0 PUSH2 0x32A2 PUSH2 0x3C99 JUMP JUMPDEST PUSH1 0x1 PUSH1 0x1 PUSH1 0xA0 SHL SUB DUP9 AND PUSH1 0x0 SWAP1 DUP2 MSTORE PUSH1 0x20 DUP3 SWAP1 MSTORE PUSH1 0x40 DUP2 KECCAK256 SWAP2 SWAP3 POP PUSH2 0x32C7 DUP6 DUP10 PUSH2 0xEB6 JUMP JUMPDEST SWAP1 POP DUP1 PUSH1 0x0 SGT ISZERO DUP1 ISZERO PUSH2 0x32E0 JUMPI POP PUSH1 0x1 PUSH1 0x1 PUSH1 0x60 SHL SUB DUP2 LT JUMPDEST PUSH2 0x32E9 JUMPI PUSH1 0x0 DUP1 REVERT JUMPDEST DUP2 SLOAD PUSH12 0xFFFFFFFFFFFFFFFFFFFFFFFF NOT AND PUSH1 0x1 PUSH1 0x1 PUSH1 0x60 SHL SUB DUP3 AND OR PUSH16 0xFFFFFFFFFFFFFFFFFFFFFFFFFFFFFFFF PUSH1 0x60 SHL NOT AND PUSH1 0x1 PUSH1 0x60 SHL PUSH1 0x1 PUSH1 0x1 PUSH1 0x80 SHL SUB DUP7 AND MUL OR DUP3 SSTORE PUSH4 0xFFFFFFFF DUP8 LT PUSH2 0x333E JUMPI PUSH1 0x0 DUP1 REVERT JUMPDEST POP DUP1 SLOAD PUSH4 0xFFFFFFFF DUP8 AND PUSH1 0x1 PUSH1 0xE0 SHL MUL PUSH1 0x1 PUSH1 0x1 PUSH1 0xE0 SHL SUB SWAP1 SWAP2 AND OR SWAP1 SSTORE POP SWAP2 POP POP SWAP4 SWAP3 POP POP POP JUMP JUMPDEST PUSH1 0xE0 DUP5 ADD MLOAD PUSH1 0x0 SWAP1 ISZERO PUSH2 0x3428 JUMPI PUSH20 0x0 PUSH4 0xE0C01A72 DUP6 PUSH2 0x339C DUP9 PUSH1 0x40 ADD MLOAD PUSH2 0x1D23 JUMP JUMPDEST DUP9 PUSH1 0xE0 ADD MLOAD DUP10 PUSH2 0x100 ADD MLOAD PUSH1 0x40 MLOAD DUP6 PUSH4 0xFFFFFFFF AND PUSH1 0xE0 SHL DUP2 MSTORE PUSH1 0x4 ADD PUSH2 0x33C6 SWAP5 SWAP4 SWAP3 SWAP2 SWAP1 PUSH2 0x48D8 JUMP JUMPDEST PUSH1 0x20 PUSH1 0x40 MLOAD DUP1 DUP4 SUB DUP2 DUP7 DUP1 EXTCODESIZE ISZERO DUP1 ISZERO PUSH2 0x33DE JUMPI PUSH1 0x0 DUP1 REVERT JUMPDEST POP GAS DELEGATECALL ISZERO DUP1 ISZERO PUSH2 0x33F2 JUMPI RETURNDATASIZE PUSH1 0x0 DUP1 RETURNDATACOPY RETURNDATASIZE PUSH1 0x0 REVERT JUMPDEST POP POP POP POP PUSH1 0x40 MLOAD RETURNDATASIZE PUSH1 0x1F NOT PUSH1 0x1F DUP3 ADD AND DUP3 ADD DUP1 PUSH1 0x40 MSTORE POP DUP2 ADD SWAP1 PUSH2 0x3416 SWAP2 SWAP1 PUSH2 0x4422 JUMP JUMPDEST PUSH1 0x0 PUSH1 0xE0 DUP8 ADD DUP2 SWAP1 MSTORE PUSH2 0x100 DUP8 ADD MSTORE SWAP1 POP JUMPDEST PUSH2 0x346A PUSH2 0x3463 DUP7 PUSH2 0x100 ADD MLOAD PUSH2 0x345D PUSH8 0xDE0B6B3A7640000 PUSH2 0x3457 DUP9 PUSH2 0x3451 DUP13 PUSH1 0x40 ADD MLOAD PUSH2 0x1D23 JUMP JUMPDEST SWAP1 PUSH2 0x3CA6 JUMP JUMPDEST SWAP1 PUSH2 0x3CFF JUMP JUMPDEST SWAP1 PUSH2 0x30E0 JUMP JUMPDEST DUP3 SWAP1 PUSH2 0x3D66 JUMP JUMPDEST SWAP1 POP PUSH2 0x3482 PUSH8 0xDE0B6B3A7640000 PUSH2 0x3457 DUP5 DUP7 PUSH2 0x3CA6 JUMP JUMPDEST DUP6 PUSH2 0x100 ADD DUP2 DUP2 MSTORE POP POP SWAP5 SWAP4 POP POP POP POP JUMP JUMPDEST PUSH1 0x0 DUP1 PUSH2 0x349F PUSH2 0x28DE JUMP JUMPDEST PUSH1 0x1 PUSH1 0x1 PUSH1 0xA0 SHL SUB DUP5 AND PUSH1 0x0 SWAP1 DUP2 MSTORE PUSH1 0x20 DUP3 SWAP1 MSTORE PUSH1 0x40 SWAP1 KECCAK256 DUP1 SLOAD SWAP2 SWAP3 POP SWAP1 PUSH1 0x1 PUSH1 0xF8 SHL SWAP1 DIV PUSH1 0xFF AND ISZERO PUSH2 0x34FB JUMPI PUSH2 0x34D4 PUSH2 0x3DC0 JUMP JUMPDEST PUSH1 0x1 PUSH1 0x1 PUSH1 0xA0 SHL SUB DUP1 DUP7 AND PUSH1 0x0 SWAP1 DUP2 MSTORE PUSH1 0x20 SWAP3 SWAP1 SWAP3 MSTORE PUSH1 0x40 SWAP1 SWAP2 KECCAK256 SLOAD AND SWAP3 POP PUSH2 0xBD3 SWAP2 POP POP JUMP JUMPDEST PUSH1 0x0 SWAP3 POP POP POP PUSH2 0xBD3 JUMP JUMPDEST PUSH2 0x8DC PUSH20 0xCFEAEAD4947F0705A14EC42AC3D44129E1EF3ED5 DUP4 DUP4 PUSH2 0x2E01 JUMP JUMPDEST DUP2 MLOAD MLOAD DUP2 LT PUSH2 0x3533 JUMPI PUSH1 0x0 DUP1 REVERT JUMPDEST PUSH1 0x0 DUP3 PUSH1 0x60 ADD MLOAD GT PUSH2 0x3544 JUMPI PUSH1 0x0 DUP1 REVERT JUMPDEST PUSH1 0x0 DUP3 PUSH1 0x0 ADD MLOAD DUP3 DUP2 MLOAD DUP2 LT PUSH2 0x3556 JUMPI INVALID JUMPDEST PUSH1 0x20 MUL PUSH1 0x20 ADD ADD MLOAD SWAP1 POP PUSH1 0x2 PUSH1 0x3 DUP2 GT ISZERO PUSH2 0x356D JUMPI INVALID JUMPDEST DUP2 PUSH1 0xA0 ADD MLOAD PUSH1 0x3 DUP2 GT ISZERO PUSH2 0x357D JUMPI INVALID JUMPDEST EQ ISZERO DUP1 ISZERO PUSH2 0x359B JUMPI POP PUSH1 0x3 DUP2 PUSH1 0xA0 ADD MLOAD PUSH1 0x3 DUP2 GT ISZERO PUSH2 0x3598 JUMPI INVALID JUMPDEST EQ ISZERO JUMPDEST PUSH2 0x35A4 JUMPI PUSH1 0x0 DUP1 REVERT JUMPDEST PUSH1 0x60 DUP4 ADD DUP1 MLOAD PUSH1 0x0 NOT ADD SWAP1 MSTORE PUSH1 0x0 DUP1 DUP1 JUMPDEST DUP6 MLOAD MLOAD DUP2 LT ISZERO PUSH2 0x3617 JUMPI PUSH1 0x0 DUP7 PUSH1 0x0 ADD MLOAD DUP3 DUP2 MLOAD DUP2 LT PUSH2 0x35D1 JUMPI INVALID JUMPDEST PUSH1 0x20 MUL PUSH1 0x20 ADD ADD MLOAD SWAP1 POP DUP3 DUP2 PUSH1 0x80 ADD MLOAD GT DUP1 ISZERO PUSH2 0x35FE JUMPI POP PUSH1 0x2 DUP2 PUSH1 0xA0 ADD MLOAD PUSH1 0x3 DUP2 GT ISZERO PUSH2 0x35FB JUMPI INVALID JUMPDEST EQ ISZERO JUMPDEST ISZERO PUSH2 0x360E JUMPI DUP1 PUSH1 0x80 ADD MLOAD SWAP3 POP DUP2 SWAP4 POP JUMPDEST POP PUSH1 0x1 ADD PUSH2 0x35B5 JUMP JUMPDEST POP DUP2 DUP5 EQ ISZERO PUSH2 0x3630 JUMPI POP POP PUSH1 0x2 PUSH1 0xA0 SWAP2 SWAP1 SWAP2 ADD MSTORE PUSH2 0x8DC JUMP JUMPDEST PUSH1 0x0 DUP6 PUSH1 0x0 ADD MLOAD DUP4 DUP2 MLOAD DUP2 LT PUSH2 0x3642 JUMPI INVALID JUMPDEST PUSH1 0x20 SWAP1 DUP2 MUL SWAP2 SWAP1 SWAP2 ADD ADD MLOAD PUSH1 0x80 DUP6 DUP2 ADD DUP1 MLOAD SWAP2 DUP4 ADD DUP1 MLOAD SWAP1 SWAP2 MSTORE MSTORE PUSH1 0x1 PUSH1 0xA0 SWAP2 DUP3 ADD MSTORE PUSH1 0x2 SWAP5 ADD SWAP4 SWAP1 SWAP4 MSTORE POP POP POP POP POP JUMP JUMPDEST DUP2 MLOAD ISZERO DUP1 ISZERO SWAP1 PUSH2 0x3687 JUMPI POP DUP2 MLOAD PUSH2 0x3FFF LT ISZERO JUMPDEST PUSH2 0x3690 JUMPI PUSH1 0x0 DUP1 REVERT JUMPDEST DUP2 PUSH1 0x20 ADD MLOAD PUSH1 0x0 LT DUP1 ISZERO PUSH2 0x36AD JUMPI POP PUSH1 0x20 DUP3 ADD MLOAD PUSH5 0xFFFFFFFFFF LT ISZERO JUMPDEST PUSH2 0x36B6 JUMPI PUSH1 0x0 DUP1 REVERT JUMPDEST DUP2 PUSH1 0x40 ADD MLOAD PUSH1 0x0 LT DUP1 ISZERO PUSH2 0x36CF JUMPI POP PUSH1 0x40 DUP3 ADD MLOAD PUSH1 0x8 LT ISZERO JUMPDEST PUSH2 0x36D8 JUMPI PUSH1 0x0 DUP1 REVERT JUMPDEST PUSH1 0x60 DUP3 ADD MLOAD PUSH11 0x7FFFFFFFFFFFFFFFFFFFFF NOT SGT DUP1 ISZERO SWAP1 PUSH2 0x3707 JUMPI POP PUSH1 0x60 DUP3 ADD MLOAD PUSH11 0x7FFFFFFFFFFFFFFFFFFFFF SLT ISZERO JUMPDEST PUSH2 0x3710 JUMPI PUSH1 0x0 DUP1 REVERT JUMPDEST DUP2 MLOAD DUP2 SLOAD PUSH1 0x20 DUP5 ADD MLOAD PUSH1 0x40 DUP6 ADD MLOAD PUSH1 0x60 SWAP1 SWAP6 ADD MLOAD PUSH1 0xA SIGNEXTEND PUSH11 0xFFFFFFFFFFFFFFFFFFFFFF AND PUSH1 0x1 PUSH1 0x40 SHL MUL PUSH19 0xFFFFFFFFFFFFFFFFFFFFFF0000000000000000 NOT PUSH1 0xFF SWAP1 SWAP7 AND PUSH1 0x1 PUSH1 0x38 SHL MUL PUSH8 0xFF00000000000000 NOT PUSH5 0xFFFFFFFFFF SWAP1 SWAP4 AND PUSH3 0x10000 MUL PUSH7 0xFFFFFFFFFF0000 NOT PUSH2 0xFFFF SWAP1 SWAP7 AND PUSH2 0xFFFF NOT SWAP1 SWAP6 AND SWAP5 SWAP1 SWAP5 OR SWAP5 SWAP1 SWAP5 AND SWAP3 SWAP1 SWAP3 OR AND SWAP2 SWAP1 SWAP2 OR SWAP3 SWAP1 SWAP3 AND SWAP2 SWAP1 SWAP2 OR SWAP1 SSTORE JUMP JUMPDEST PUSH1 0x0 DUP1 PUSH1 0x0 DUP1 PUSH2 0x37B4 DUP9 PUSH2 0x3DCD JUMP JUMPDEST SWAP1 POP DUP5 ISZERO DUP1 PUSH2 0x37C2 JUMPI POP DUP1 DUP6 GT JUMPDEST ISZERO PUSH2 0x37CB JUMPI DUP1 SWAP5 POP JUMPDEST DUP7 DUP1 PUSH2 0x37DB JUMPI POP PUSH1 0x0 DUP9 PUSH1 0x60 ADD MLOAD SLT JUMPDEST SWAP7 POP PUSH2 0xFFFF DUP7 AND ISZERO PUSH2 0x37EC JUMPI PUSH1 0x0 DUP1 REVERT JUMPDEST POP POP SWAP5 MLOAD SWAP4 SWAP6 PUSH1 0x10 SWAP4 SWAP1 SWAP4 SHR PUSH1 0xF0 SWAP5 SWAP1 SWAP5 SHL SWAP4 SWAP1 SWAP4 OR SWAP4 POP SWAP2 POP JUMP JUMPDEST PUSH1 0x0 DUP1 PUSH2 0xECC PUSH1 0xD JUMPDEST PUSH1 0x0 PUSH3 0xF4240 DUP3 PUSH1 0x13 DUP2 GT ISZERO PUSH2 0x3823 JUMPI INVALID JUMPDEST ADD SWAP3 SWAP2 POP POP JUMP JUMPDEST PUSH1 0x0 PUSH2 0x3FFF DUP5 GT ISZERO PUSH2 0x383B JUMPI PUSH1 0x0 DUP1 REVERT JUMPDEST PUSH5 0xFFFFFFFFFF DUP4 GT ISZERO PUSH2 0x384D JUMPI PUSH1 0x0 DUP1 REVERT JUMPDEST PUSH1 0x8 DUP3 GT ISZERO PUSH2 0x385B JUMPI PUSH1 0x0 DUP1 REVERT JUMPDEST POP PUSH8 0xFFFF000000000000 PUSH1 0x30 DUP5 SWAP1 SHL AND PUSH6 0xFFFFFFFFFF00 PUSH1 0x8 DUP5 SWAP1 SHL AND OR PUSH1 0xFF DUP3 AND OR SWAP4 SWAP3 POP POP POP JUMP JUMPDEST PUSH1 0x0 DUP1 PUSH2 0xECC PUSH1 0xF PUSH2 0x3811 JUMP JUMPDEST PUSH1 0x0 DUP1 DUP3 SLT ISZERO PUSH2 0x38AC JUMPI PUSH2 0x38A5 DUP3 PUSH2 0xED2 JUMP JUMPDEST SWAP1 POP PUSH2 0xBD3 JUMP JUMPDEST POP DUP1 PUSH2 0xBD3 JUMP JUMPDEST PUSH1 0x40 DUP1 MLOAD PUSH4 0x23B872DD PUSH1 0xE0 SHL DUP2 MSTORE PUSH1 0x1 PUSH1 0x1 PUSH1 0xA0 SHL SUB DUP5 DUP2 AND PUSH1 0x4 DUP4 ADD MSTORE ADDRESS PUSH1 0x24 DUP4 ADD MSTORE PUSH1 0x44 DUP3 ADD DUP5 SWAP1 MSTORE SWAP2 MLOAD SWAP2 DUP6 AND SWAP2 PUSH4 0x23B872DD SWAP2 PUSH1 0x64 DUP1 DUP3 ADD SWAP3 PUSH1 0x0 SWAP3 SWAP1 SWAP2 SWAP1 DUP3 SWAP1 SUB ADD DUP2 DUP4 DUP8 DUP1 EXTCODESIZE ISZERO DUP1 ISZERO PUSH2 0x2E58 JUMPI PUSH1 0x0 DUP1 REVERT JUMPDEST PUSH1 0x0 PUSH2 0x3915 PUSH2 0x409B JUMP JUMPDEST RETURNDATASIZE DUP1 ISZERO PUSH2 0x3929 JUMPI PUSH1 0x20 DUP2 EQ PUSH2 0x3932 JUMPI PUSH1 0x0 DUP1 REVERT JUMPDEST PUSH1 0x1 SWAP3 POP PUSH2 0x393D JUMP JUMPDEST PUSH1 0x20 PUSH1 0x0 DUP4 RETURNDATACOPY DUP2 MLOAD SWAP3 POP JUMPDEST POP DUP2 PUSH2 0x8DC JUMPI PUSH1 0x40 DUP1 MLOAD PUSH3 0x461BCD PUSH1 0xE5 SHL DUP2 MSTORE PUSH1 0x20 PUSH1 0x4 DUP3 ADD MSTORE PUSH1 0x5 PUSH1 0x24 DUP3 ADD MSTORE PUSH5 0x455243323 PUSH1 0xDC SHL PUSH1 0x44 DUP3 ADD MSTORE SWAP1 MLOAD SWAP1 DUP2 SWAP1 SUB PUSH1 0x64 ADD SWAP1 REVERT JUMPDEST PUSH1 0x0 DUP1 PUSH2 0xECC PUSH1 0x13 PUSH2 0x3811 JUMP JUMPDEST DUP3 MLOAD PUSH1 0x40 MLOAD PUSH4 0xDB006A75 PUSH1 0xE0 SHL DUP2 MSTORE PUSH1 0x0 SWAP2 SELFBALANCE SWAP2 DUP4 SWAP2 PUSH1 0x1 PUSH1 0x1 PUSH1 0xA0 SHL SUB AND SWAP1 PUSH4 0xDB006A75 SWAP1 PUSH2 0x39B9 SWAP1 DUP8 SWAP1 PUSH1 0x4 ADD PUSH2 0x48FE JUMP JUMPDEST PUSH1 0x20 PUSH1 0x40 MLOAD DUP1 DUP4 SUB DUP2 PUSH1 0x0 DUP8 DUP1 EXTCODESIZE ISZERO DUP1 ISZERO PUSH2 0x39D3 JUMPI PUSH1 0x0 DUP1 REVERT JUMPDEST POP GAS CALL ISZERO DUP1 ISZERO PUSH2 0x39E7 JUMPI RETURNDATASIZE PUSH1 0x0 DUP1 RETURNDATACOPY RETURNDATASIZE PUSH1 0x0 REVERT JUMPDEST POP POP POP POP PUSH1 0x40 MLOAD RETURNDATASIZE PUSH1 0x1F NOT PUSH1 0x1F DUP3 ADD AND DUP3 ADD DUP1 PUSH1 0x40 MSTORE POP DUP2 ADD SWAP1 PUSH2 0x3A0B SWAP2 SWAP1 PUSH2 0x4422 JUMP JUMPDEST SWAP1 POP DUP1 ISZERO PUSH2 0x3A2B JUMPI PUSH1 0x40 MLOAD PUSH3 0x461BCD PUSH1 0xE5 SHL DUP2 MSTORE PUSH1 0x4 ADD PUSH2 0x17A SWAP1 PUSH2 0x4970 JUMP JUMPDEST SELFBALANCE PUSH2 0x3A36 DUP2 DUP5 PUSH2 0x30E0 JUMP JUMPDEST SWAP4 POP PUSH2 0x2DBC DUP7 DUP6 PUSH2 0x2DC6 JUMP JUMPDEST PUSH1 0x0 PUSH2 0x3A62 PUSH2 0x3A5D DUP6 PUSH1 0x0 ADD MLOAD PUSH2 0x3A58 DUP6 PUSH2 0x2697 JUMP JUMPDEST PUSH2 0x2C41 JUMP JUMPDEST PUSH2 0x1D23 JUMP JUMPDEST SWAP1 POP PUSH2 0x3A6C PUSH2 0x3978 JUMP JUMPDEST SLOAD DUP5 MLOAD PUSH1 0x40 MLOAD PUSH4 0x1A4CA37B PUSH1 0xE2 SHL DUP2 MSTORE PUSH1 0x1 PUSH1 0x1 PUSH1 0xA0 SHL SUB SWAP1 SWAP3 AND SWAP2 PUSH4 0x69328DEC SWAP2 PUSH2 0x3A9E SWAP2 DUP6 SWAP1 DUP9 SWAP1 PUSH1 0x4 ADD PUSH2 0x4888 JUMP JUMPDEST PUSH1 0x20 PUSH1 0x40 MLOAD DUP1 DUP4 SUB DUP2 PUSH1 0x0 DUP8 DUP1 EXTCODESIZE ISZERO DUP1 ISZERO PUSH2 0x3AB8 JUMPI PUSH1 0x0 DUP1 REVERT JUMPDEST POP GAS CALL ISZERO DUP1 ISZERO PUSH2 0x3ACC JUMPI RETURNDATASIZE PUSH1 0x0 DUP1 RETURNDATACOPY RETURNDATASIZE PUSH1 0x0 REVERT JUMPDEST POP POP POP POP PUSH1 0x40 MLOAD RETURNDATASIZE PUSH1 0x1F NOT PUSH1 0x1F DUP3 ADD AND DUP3 ADD DUP1 PUSH1 0x40 MSTORE POP DUP2 ADD SWAP1 PUSH2 0x3AF0 SWAP2 SWAP1 PUSH2 0x4422 JUMP JUMPDEST POP SWAP4 SWAP3 POP POP POP JUMP JUMPDEST DUP3 MLOAD PUSH1 0x0 SWAP1 DUP2 SWAP1 PUSH2 0x3B11 SWAP1 ADDRESS PUSH4 0x70A08231 PUSH1 0xE0 SHL PUSH2 0x2E78 JUMP JUMPDEST SWAP1 POP PUSH1 0x0 DUP7 PUSH1 0x0 ADD MLOAD PUSH1 0x1 PUSH1 0x1 PUSH1 0xA0 SHL SUB AND PUSH4 0xDB006A75 DUP6 PUSH1 0x40 MLOAD DUP3 PUSH4 0xFFFFFFFF AND PUSH1 0xE0 SHL DUP2 MSTORE PUSH1 0x4 ADD PUSH2 0x3B45 SWAP2 SWAP1 PUSH2 0x48FE JUMP JUMPDEST PUSH1 0x20 PUSH1 0x40 MLOAD DUP1 DUP4 SUB DUP2 PUSH1 0x0 DUP8 DUP1 EXTCODESIZE ISZERO DUP1 ISZERO PUSH2 0x3B5F JUMPI PUSH1 0x0 DUP1 REVERT JUMPDEST POP GAS CALL ISZERO DUP1 ISZERO PUSH2 0x3B73 JUMPI RETURNDATASIZE PUSH1 0x0 DUP1 RETURNDATACOPY RETURNDATASIZE PUSH1 0x0 REVERT JUMPDEST POP POP POP POP PUSH1 0x40 MLOAD RETURNDATASIZE PUSH1 0x1F NOT PUSH1 0x1F DUP3 ADD AND DUP3 ADD DUP1 PUSH1 0x40 MSTORE POP DUP2 ADD SWAP1 PUSH2 0x3B97 SWAP2 SWAP1 PUSH2 0x4422 JUMP JUMPDEST SWAP1 POP DUP1 ISZERO PUSH2 0x3BB7 JUMPI PUSH1 0x40 MLOAD PUSH3 0x461BCD PUSH1 0xE5 SHL DUP2 MSTORE PUSH1 0x4 ADD PUSH2 0x17A SWAP1 PUSH2 0x4970 JUMP JUMPDEST DUP6 MLOAD PUSH1 0x0 SWAP1 PUSH2 0x3BCE SWAP1 ADDRESS PUSH4 0x70A08231 PUSH1 0xE0 SHL PUSH2 0x2E78 JUMP JUMPDEST SWAP1 POP PUSH2 0x3BDA DUP2 DUP5 PUSH2 0x30E0 JUMP JUMPDEST SWAP4 POP PUSH2 0x3BEB DUP8 PUSH1 0x0 ADD MLOAD DUP8 DUP7 PUSH2 0x2E01 JUMP JUMPDEST POP POP POP SWAP5 SWAP4 POP POP POP POP JUMP JUMPDEST PUSH1 0x0 DUP1 PUSH2 0xECC PUSH1 0x3 PUSH2 0x3811 JUMP JUMPDEST PUSH1 0x0 DUP1 PUSH1 0x0 PUSH2 0x3C11 DUP6 PUSH2 0x3E3A JUMP JUMPDEST SWAP2 SWAP5 POP SWAP3 POP SWAP1 POP DUP1 DUP5 GT DUP1 ISZERO PUSH2 0x3C27 JUMPI POP PUSH1 0x0 DUP2 GT JUMPDEST DUP1 ISZERO PUSH2 0x3C33 JUMPI POP PUSH1 0x0 DUP4 GT JUMPDEST ISZERO PUSH2 0x3C92 JUMPI PUSH1 0x0 PUSH2 0x3C43 DUP7 PUSH2 0x1782 JUMP JUMPDEST POP POP POP SWAP2 POP POP PUSH1 0x0 PUSH2 0x3C6E PUSH2 0x3C65 PUSH4 0x5F5E100 DUP5 PUSH2 0x3CA6 SWAP1 SWAP2 SWAP1 PUSH4 0xFFFFFFFF AND JUMP JUMPDEST DUP5 DUP9 SUB DUP8 PUSH2 0x3E96 JUMP JUMPDEST SWAP1 POP PUSH2 0x3C7A DUP5 DUP3 PUSH2 0x3D66 JUMP JUMPDEST SWAP4 POP PUSH1 0x1 PUSH1 0x1 PUSH1 0x80 SHL SUB DUP5 LT PUSH2 0x3C8F JUMPI PUSH1 0x0 DUP1 REVERT JUMPDEST POP POP JUMPDEST SWAP3 POP SWAP3 POP SWAP3 JUMP JUMPDEST PUSH1 0x0 DUP1 PUSH2 0xECC PUSH1 0x11 PUSH2 0x3811 JUMP JUMPDEST PUSH1 0x0 DUP3 PUSH2 0x3CB5 JUMPI POP PUSH1 0x0 PUSH2 0xECC JUMP JUMPDEST DUP3 DUP3 MUL DUP3 DUP5 DUP3 DUP2 PUSH2 0x3CC2 JUMPI INVALID JUMPDEST DIV EQ PUSH2 0xA94 JUMPI PUSH1 0x40 MLOAD PUSH3 0x461BCD PUSH1 0xE5 SHL DUP2 MSTORE PUSH1 0x4 ADD DUP1 DUP1 PUSH1 0x20 ADD DUP3 DUP2 SUB DUP3 MSTORE PUSH1 0x21 DUP2 MSTORE PUSH1 0x20 ADD DUP1 PUSH2 0x4BE9 PUSH1 0x21 SWAP2 CODECOPY PUSH1 0x40 ADD SWAP2 POP POP PUSH1 0x40 MLOAD DUP1 SWAP2 SUB SWAP1 REVERT JUMPDEST PUSH1 0x0 DUP1 DUP3 GT PUSH2 0x3D55 JUMPI PUSH1 0x40 DUP1 MLOAD PUSH3 0x461BCD PUSH1 0xE5 SHL DUP2 MSTORE PUSH1 0x20 PUSH1 0x4 DUP3 ADD MSTORE PUSH1 0x1A PUSH1 0x24 DUP3 ADD MSTORE PUSH32 0x536166654D6174683A206469766973696F6E206279207A65726F000000000000 PUSH1 0x44 DUP3 ADD MSTORE SWAP1 MLOAD SWAP1 DUP2 SWAP1 SUB PUSH1 0x64 ADD SWAP1 REVERT JUMPDEST DUP2 DUP4 DUP2 PUSH2 0x3D5E JUMPI INVALID JUMPDEST DIV SWAP4 SWAP3 POP POP POP JUMP JUMPDEST PUSH1 0x0 DUP3 DUP3 ADD DUP4 DUP2 LT ISZERO PUSH2 0xA94 JUMPI PUSH1 0x40 DUP1 MLOAD PUSH3 0x461BCD PUSH1 0xE5 SHL DUP2 MSTORE PUSH1 0x20 PUSH1 0x4 DUP3 ADD MSTORE PUSH1 0x1B PUSH1 0x24 DUP3 ADD MSTORE PUSH32 0x536166654D6174683A206164646974696F6E206F766572666C6F770000000000 PUSH1 0x44 DUP3 ADD MSTORE SWAP1 MLOAD SWAP1 DUP2 SWAP1 SUB PUSH1 0x64 ADD SWAP1 REVERT JUMPDEST PUSH1 0x0 DUP1 PUSH2 0xECC PUSH1 0x12 PUSH2 0x3811 JUMP JUMPDEST PUSH1 0x0 DUP1 DUP3 PUSH1 0x40 ADD MLOAD GT DUP1 ISZERO PUSH2 0x3DE7 JUMPI POP PUSH1 0x40 DUP3 ADD MLOAD PUSH1 0x8 LT ISZERO JUMPDEST PUSH2 0x3DF0 JUMPI PUSH1 0x0 DUP1 REVERT JUMPDEST PUSH1 0x40 DUP3 ADD MLOAD PUSH1 0x2 LT PUSH2 0x3E07 JUMPI POP PUSH1 0x20 DUP2 ADD MLOAD PUSH2 0xBD3 JUMP JUMPDEST PUSH1 0x0 PUSH2 0x3E19 PUSH1 0x1 DUP5 PUSH1 0x40 ADD MLOAD SUB PUSH2 0x3EB8 JUMP JUMPDEST PUSH1 0x20 DUP5 ADD MLOAD SWAP1 SWAP2 POP PUSH2 0xA94 SWAP1 PUSH3 0x76A700 SWAP1 PUSH2 0x3E34 SWAP1 DUP5 PUSH2 0x30E0 JUMP JUMPDEST SWAP1 PUSH2 0x3D66 JUMP JUMPDEST PUSH1 0x0 DUP1 PUSH1 0x0 DUP1 PUSH2 0x3E48 PUSH2 0x3C99 JUMP JUMPDEST PUSH1 0x1 PUSH1 0x1 PUSH1 0xA0 SHL SUB SWAP6 SWAP1 SWAP6 AND PUSH1 0x0 SWAP1 DUP2 MSTORE PUSH1 0x20 SWAP6 SWAP1 SWAP6 MSTORE POP POP PUSH1 0x40 SWAP1 SWAP3 KECCAK256 SLOAD PUSH1 0x1 PUSH1 0x1 PUSH1 0x60 SHL SUB DUP2 AND SWAP4 PUSH1 0x1 PUSH1 0x60 SHL DUP3 DIV PUSH1 0x1 PUSH1 0x1 PUSH1 0x80 SHL SUB AND SWAP4 POP PUSH1 0x1 PUSH1 0xE0 SHL SWAP1 SWAP2 DIV PUSH4 0xFFFFFFFF AND SWAP2 POP JUMP JUMPDEST PUSH1 0x0 PUSH2 0xF70 DUP3 PUSH2 0x3457 PUSH4 0x1DA9C00 DUP2 DUP9 PUSH2 0x3451 DUP10 PUSH8 0xDE0B6B3A7640000 PUSH2 0x3CA6 JUMP JUMPDEST PUSH1 0x0 DUP2 PUSH1 0x1 EQ ISZERO PUSH2 0x3ECD JUMPI POP PUSH3 0x76A700 PUSH2 0xBD3 JUMP JUMPDEST DUP2 PUSH1 0x2 EQ ISZERO PUSH2 0x3EE0 JUMPI POP PUSH3 0xED4E00 PUSH2 0xBD3 JUMP JUMPDEST DUP2 PUSH1 0x3 EQ ISZERO PUSH2 0x3EF4 JUMPI POP PUSH4 0x1DA9C00 PUSH2 0xBD3 JUMP JUMPDEST DUP2 PUSH1 0x4 EQ ISZERO PUSH2 0x3F08 JUMPI POP PUSH4 0x3B53800 PUSH2 0xBD3 JUMP JUMPDEST DUP2 PUSH1 0x5 EQ ISZERO PUSH2 0x3F1C JUMPI POP PUSH4 0x9450C00 PUSH2 0xBD3 JUMP JUMPDEST DUP2 PUSH1 0x6 EQ ISZERO PUSH2 0x3F30 JUMPI POP PUSH4 0x128A1800 PUSH2 0xBD3 JUMP JUMPDEST DUP2 PUSH1 0x7 EQ ISZERO PUSH2 0x3F44 JUMPI POP PUSH4 0x25143000 PUSH2 0xBD3 JUMP JUMPDEST PUSH1 0x40 MLOAD PUSH3 0x461BCD PUSH1 0xE5 SHL DUP2 MSTORE PUSH1 0x4 ADD PUSH2 0x17A SWAP1 PUSH2 0x4990 JUMP JUMPDEST PUSH1 0x40 MLOAD DUP1 PUSH2 0x120 ADD PUSH1 0x40 MSTORE DUP1 PUSH1 0x0 PUSH2 0xFFFF AND DUP2 MSTORE PUSH1 0x20 ADD PUSH1 0x0 DUP2 MSTORE PUSH1 0x20 ADD PUSH1 0x0 DUP2 MSTORE PUSH1 0x20 ADD PUSH1 0x0 DUP2 MSTORE PUSH1 0x20 ADD PUSH1 0x0 DUP2 MSTORE PUSH1 0x20 ADD PUSH1 0x0 DUP2 MSTORE PUSH1 0x20 ADD PUSH1 0x0 DUP2 MSTORE PUSH1 0x20 ADD PUSH1 0x0 DUP2 MSTORE PUSH1 0x20 ADD PUSH1 0x0 DUP2 MSTORE POP SWAP1 JUMP JUMPDEST PUSH1 0x40 DUP1 MLOAD PUSH1 0xA0 DUP2 ADD DUP3 MSTORE PUSH1 0x0 DUP1 DUP3 MSTORE PUSH1 0x20 DUP3 ADD DUP2 SWAP1 MSTORE SWAP2 DUP2 ADD DUP3 SWAP1 MSTORE PUSH1 0x60 DUP2 ADD DUP3 SWAP1 MSTORE PUSH1 0x80 DUP2 ADD SWAP2 SWAP1 SWAP2 MSTORE SWAP1 JUMP JUMPDEST PUSH1 0x40 MLOAD DUP1 PUSH1 0x80 ADD PUSH1 0x40 MSTORE DUP1 PUSH1 0x60 DUP2 MSTORE PUSH1 0x20 ADD PUSH1 0x60 DUP2 MSTORE PUSH1 0x20 ADD PUSH1 0x0 DUP2 MSTORE PUSH1 0x20 ADD PUSH1 0x0 DUP2 MSTORE POP SWAP1 JUMP JUMPDEST PUSH1 0x40 MLOAD DUP1 PUSH1 0xC0 ADD PUSH1 0x40 MSTORE DUP1 PUSH1 0x0 DUP2 MSTORE PUSH1 0x20 ADD PUSH1 0x0 DUP2 MSTORE PUSH1 0x20 ADD PUSH1 0x0 DUP2 MSTORE PUSH1 0x20 ADD PUSH1 0x0 DUP2 MSTORE PUSH1 0x20 ADD PUSH1 0x0 DUP2 MSTORE PUSH1 0x20 ADD PUSH1 0x0 PUSH1 0x3 DUP2 GT ISZERO PUSH2 0x403D JUMPI INVALID JUMPDEST SWAP1 MSTORE SWAP1 JUMP JUMPDEST PUSH1 0x40 MLOAD DUP1 PUSH1 0x60 ADD PUSH1 0x40 MSTORE DUP1 PUSH1 0x0 PUSH1 0x1 PUSH1 0x1 PUSH1 0xA0 SHL SUB AND DUP2 MSTORE PUSH1 0x20 ADD PUSH1 0x0 DUP2 MSTORE PUSH1 0x20 ADD PUSH1 0x0 DUP2 MSTORE POP SWAP1 JUMP JUMPDEST PUSH1 0x40 DUP1 MLOAD PUSH1 0xA0 DUP2 ADD DUP3 MSTORE PUSH1 0x0 DUP1 DUP3 MSTORE PUSH1 0x20 DUP3 ADD DUP2 SWAP1 MSTORE SWAP2 DUP2 ADD DUP3 SWAP1 MSTORE SWAP1 PUSH1 0x60 DUP3 ADD SWAP1 DUP2 MSTORE PUSH1 0x20 ADD PUSH1 0x0 DUP2 MSTORE POP SWAP1 JUMP JUMPDEST PUSH1 0x40 MLOAD DUP1 PUSH1 0x20 ADD PUSH1 0x40 MSTORE DUP1 PUSH1 0x1 SWAP1 PUSH1 0x20 DUP3 MUL DUP1 CALLDATASIZE DUP4 CALLDATACOPY POP SWAP2 SWAP3 SWAP2 POP POP JUMP JUMPDEST DUP1 CALLDATALOAD PUSH1 0x1 PUSH1 0x1 PUSH1 0xA0 SHL SUB DUP2 AND DUP2 EQ PUSH2 0xBD3 JUMPI PUSH1 0x0 DUP1 REVERT JUMPDEST PUSH1 0x0 DUP1 DUP4 PUSH1 0x1F DUP5 ADD SLT PUSH2 0x40E1 JUMPI DUP1 DUP2 REVERT JUMPDEST POP DUP2 CALLDATALOAD PUSH1 0x1 PUSH1 0x1 PUSH1 0x40 SHL SUB DUP2 GT ISZERO PUSH2 0x40F7 JUMPI DUP2 DUP3 REVERT JUMPDEST PUSH1 0x20 DUP4 ADD SWAP2 POP DUP4 PUSH1 0x20 DUP1 DUP4 MUL DUP6 ADD ADD GT ISZERO PUSH2 0x4111 JUMPI PUSH1 0x0 DUP1 REVERT JUMPDEST SWAP3 POP SWAP3 SWAP1 POP JUMP JUMPDEST PUSH1 0x0 DUP3 PUSH1 0x1F DUP4 ADD SLT PUSH2 0x4128 JUMPI DUP1 DUP2 REVERT JUMPDEST DUP2 MLOAD PUSH1 0x20 PUSH1 0x1 PUSH1 0x1 PUSH1 0x40 SHL SUB DUP1 DUP4 GT ISZERO PUSH2 0x413E JUMPI INVALID JUMPDEST PUSH2 0x414B DUP3 DUP4 DUP6 MUL ADD PUSH2 0x4BA4 JUMP JUMPDEST DUP4 DUP2 MSTORE DUP3 DUP2 ADD SWAP1 DUP7 DUP5 ADD PUSH1 0xC0 DUP1 DUP8 MUL DUP10 ADD DUP7 ADD DUP11 LT ISZERO PUSH2 0x4169 JUMPI DUP8 DUP9 REVERT JUMPDEST DUP8 JUMPDEST DUP8 DUP2 LT ISZERO PUSH2 0x41EA JUMPI DUP2 DUP4 DUP13 SUB SLT ISZERO PUSH2 0x4181 JUMPI DUP9 DUP10 REVERT JUMPDEST PUSH1 0x40 DUP1 MLOAD DUP4 DUP2 ADD DUP2 DUP2 LT DUP10 DUP3 GT OR ISZERO PUSH2 0x4196 JUMPI INVALID JUMPDEST DUP3 MSTORE DUP5 MLOAD DUP2 MSTORE DUP9 DUP6 ADD MLOAD DUP10 DUP3 ADD MSTORE DUP5 DUP3 ADD MLOAD SWAP2 DUP2 ADD SWAP2 SWAP1 SWAP2 MSTORE PUSH1 0x60 DUP1 DUP6 ADD MLOAD SWAP1 DUP3 ADD MSTORE PUSH1 0x80 DUP1 DUP6 ADD MLOAD SWAP1 DUP3 ADD MSTORE PUSH1 0xA0 SWAP1 PUSH2 0x41D1 DUP3 DUP7 ADD PUSH2 0x4211 JUMP JUMPDEST SWAP2 DUP2 ADD SWAP2 SWAP1 SWAP2 MSTORE DUP6 MSTORE SWAP4 DUP7 ADD SWAP4 SWAP2 DUP2 ADD SWAP2 PUSH1 0x1 ADD PUSH2 0x416B JUMP JUMPDEST POP SWAP2 SWAP10 SWAP9 POP POP POP POP POP POP POP POP POP JUMP JUMPDEST DUP1 MLOAD PUSH1 0x1 PUSH1 0x1 PUSH1 0x70 SHL SUB NOT DUP2 AND DUP2 EQ PUSH2 0xBD3 JUMPI PUSH1 0x0 DUP1 REVERT JUMPDEST DUP1 MLOAD PUSH1 0x4 DUP2 LT PUSH2 0xBD3 JUMPI PUSH1 0x0 DUP1 REVERT JUMPDEST DUP1 MLOAD PUSH2 0xBD3 DUP2 PUSH2 0x4BD8 JUMP JUMPDEST DUP1 MLOAD PUSH1 0xFF DUP2 AND DUP2 EQ PUSH2 0xBD3 JUMPI PUSH1 0x0 DUP1 REVERT JUMPDEST PUSH1 0x0 DUP1 PUSH1 0x0 PUSH1 0x40 DUP5 DUP7 SUB SLT ISZERO PUSH2 0x4250 JUMPI DUP3 DUP4 REVERT JUMPDEST PUSH2 0x4259 DUP5 PUSH2 0x40B9 JUMP JUMPDEST SWAP3 POP PUSH1 0x20 DUP5 ADD CALLDATALOAD PUSH1 0x1 PUSH1 0x1 PUSH1 0x40 SHL SUB DUP2 GT ISZERO PUSH2 0x4273 JUMPI DUP3 DUP4 REVERT JUMPDEST PUSH2 0x427F DUP7 DUP3 DUP8 ADD PUSH2 0x40D0 JUMP JUMPDEST SWAP5 SWAP8 SWAP1 SWAP7 POP SWAP4 SWAP5 POP POP POP POP JUMP JUMPDEST PUSH1 0x0 DUP1 PUSH1 0x0 DUP1 PUSH1 0x0 PUSH1 0x60 DUP7 DUP9 SUB SLT ISZERO PUSH2 0x42A3 JUMPI DUP1 DUP2 REVERT JUMPDEST PUSH2 0x42AC DUP7 PUSH2 0x40B9 JUMP JUMPDEST SWAP5 POP PUSH1 0x20 DUP7 ADD CALLDATALOAD PUSH1 0x1 PUSH1 0x1 PUSH1 0x40 SHL SUB DUP1 DUP3 GT ISZERO PUSH2 0x42C7 JUMPI DUP3 DUP4 REVERT JUMPDEST PUSH2 0x42D3 DUP10 DUP4 DUP11 ADD PUSH2 0x40D0 JUMP JUMPDEST SWAP1 SWAP7 POP SWAP5 POP PUSH1 0x40 DUP9 ADD CALLDATALOAD SWAP2 POP DUP1 DUP3 GT ISZERO PUSH2 0x42EB JUMPI DUP3 DUP4 REVERT JUMPDEST DUP2 DUP9 ADD SWAP2 POP DUP9 PUSH1 0x1F DUP4 ADD SLT PUSH2 0x42FE JUMPI DUP3 DUP4 REVERT JUMPDEST DUP2 CALLDATALOAD DUP2 DUP2 GT ISZERO PUSH2 0x430C JUMPI DUP4 DUP5 REVERT JUMPDEST DUP10 PUSH1 0x20 DUP3 DUP6 ADD ADD GT ISZERO PUSH2 0x431D JUMPI DUP4 DUP5 REVERT JUMPDEST SWAP7 SWAP10 SWAP6 SWAP9 POP SWAP4 SWAP7 POP PUSH1 0x20 ADD SWAP5 SWAP4 SWAP3 POP POP POP JUMP JUMPDEST PUSH1 0x0 DUP1 PUSH1 0x0 PUSH1 0x40 DUP5 DUP7 SUB SLT ISZERO PUSH2 0x4344 JUMPI DUP3 DUP4 REVERT JUMPDEST PUSH2 0x434D DUP5 PUSH2 0x40B9 JUMP JUMPDEST SWAP3 POP PUSH1 0x20 DUP5 ADD CALLDATALOAD PUSH1 0x1 PUSH1 0x1 PUSH1 0x40 SHL SUB DUP1 DUP3 GT ISZERO PUSH2 0x4368 JUMPI DUP4 DUP5 REVERT JUMPDEST DUP2 DUP7 ADD SWAP2 POP DUP7 PUSH1 0x1F DUP4 ADD SLT PUSH2 0x437B JUMPI DUP4 DUP5 REVERT JUMPDEST DUP2 CALLDATALOAD DUP2 DUP2 GT ISZERO PUSH2 0x4389 JUMPI DUP5 DUP6 REVERT JUMPDEST DUP8 PUSH1 0x20 PUSH1 0xC0 DUP4 MUL DUP6 ADD ADD GT ISZERO PUSH2 0x439D JUMPI DUP5 DUP6 REVERT JUMPDEST PUSH1 0x20 DUP4 ADD SWAP5 POP DUP1 SWAP4 POP POP POP POP SWAP3 POP SWAP3 POP SWAP3 JUMP JUMPDEST PUSH1 0x0 DUP1 PUSH1 0x0 PUSH1 0x40 DUP5 DUP7 SUB SLT ISZERO PUSH2 0x43C4 JUMPI DUP1 DUP2 REVERT JUMPDEST PUSH2 0x43CD DUP5 PUSH2 0x40B9 JUMP JUMPDEST SWAP3 POP PUSH1 0x20 DUP5 ADD CALLDATALOAD PUSH1 0x1 PUSH1 0x1 PUSH1 0x40 SHL SUB DUP2 GT ISZERO PUSH2 0x4273 JUMPI DUP2 DUP3 REVERT JUMPDEST PUSH1 0x0 PUSH1 0x20 DUP3 DUP5 SUB SLT ISZERO PUSH2 0x43F8 JUMPI DUP1 DUP2 REVERT JUMPDEST DUP2 CALLDATALOAD PUSH2 0xA94 DUP2 PUSH2 0x4BC7 JUMP JUMPDEST PUSH1 0x0 PUSH1 0x20 DUP3 DUP5 SUB SLT ISZERO PUSH2 0x4414 JUMPI DUP1 DUP2 REVERT JUMPDEST DUP2 CALLDATALOAD PUSH1 0x7 DUP2 LT PUSH2 0xA94 JUMPI DUP2 DUP3 REVERT JUMPDEST PUSH1 0x0 PUSH1 0x20 DUP3 DUP5 SUB SLT ISZERO PUSH2 0x4433 JUMPI DUP1 DUP2 REVERT JUMPDEST POP MLOAD SWAP2 SWAP1 POP JUMP JUMPDEST PUSH1 0x0 DUP1 PUSH1 0x40 DUP4 DUP6 SUB SLT ISZERO PUSH2 0x444C JUMPI DUP2 DUP3 REVERT JUMPDEST DUP3 MLOAD SWAP2 POP PUSH1 0x20 DUP4 ADD MLOAD PUSH2 0x445E DUP2 PUSH2 0x4BC7 JUMP JUMPDEST DUP1 SWAP2 POP POP SWAP3 POP SWAP3 SWAP1 POP JUMP JUMPDEST PUSH1 0x0 PUSH1 0xA0 DUP3 DUP5 SUB SLT ISZERO PUSH2 0x447A JUMPI DUP1 DUP2 REVERT JUMPDEST PUSH1 0x40 MLOAD PUSH1 0xA0 DUP2 ADD DUP2 DUP2 LT PUSH1 0x1 PUSH1 0x1 PUSH1 0x40 SHL SUB DUP3 GT OR ISZERO PUSH2 0x4496 JUMPI INVALID JUMPDEST PUSH1 0x40 MSTORE DUP3 MLOAD PUSH5 0xFFFFFFFFFF DUP2 AND DUP2 EQ PUSH2 0x44AD JUMPI DUP3 DUP4 REVERT JUMPDEST DUP2 MSTORE PUSH1 0x20 DUP4 ADD MLOAD PUSH1 0x1 PUSH1 0x1 PUSH1 0xF8 SHL SUB NOT DUP2 AND DUP2 EQ PUSH2 0x44C9 JUMPI DUP3 DUP4 REVERT JUMPDEST PUSH1 0x20 DUP3 ADD MSTORE PUSH2 0x44DA PUSH1 0x40 DUP5 ADD PUSH2 0x422B JUMP JUMPDEST PUSH1 0x40 DUP3 ADD MSTORE PUSH2 0x44EB PUSH1 0x60 DUP5 ADD PUSH2 0x4220 JUMP JUMPDEST PUSH1 0x60 DUP3 ADD MSTORE PUSH2 0x44FC PUSH1 0x80 DUP5 ADD PUSH2 0x41F9 JUMP JUMPDEST PUSH1 0x80 DUP3 ADD MSTORE SWAP4 SWAP3 POP POP POP JUMP JUMPDEST PUSH1 0x0 DUP1 PUSH1 0x40 DUP4 DUP6 SUB SLT ISZERO PUSH2 0x451A JUMPI DUP2 DUP3 REVERT JUMPDEST DUP3 MLOAD PUSH1 0x1 PUSH1 0x1 PUSH1 0x40 SHL SUB DUP1 DUP3 GT ISZERO PUSH2 0x4530 JUMPI DUP4 DUP5 REVERT JUMPDEST SWAP1 DUP5 ADD SWAP1 PUSH1 0x80 DUP3 DUP8 SUB SLT ISZERO PUSH2 0x4543 JUMPI DUP4 DUP5 REVERT JUMPDEST PUSH1 0x40 MLOAD PUSH1 0x80 DUP2 ADD DUP2 DUP2 LT DUP4 DUP3 GT OR ISZERO PUSH2 0x4558 JUMPI INVALID JUMPDEST PUSH1 0x40 MSTORE DUP3 MLOAD DUP3 DUP2 GT ISZERO PUSH2 0x4569 JUMPI DUP6 DUP7 REVERT JUMPDEST PUSH2 0x4575 DUP9 DUP3 DUP7 ADD PUSH2 0x4118 JUMP JUMPDEST DUP3 MSTORE POP PUSH1 0x20 DUP4 ADD MLOAD DUP3 DUP2 GT ISZERO PUSH2 0x4589 JUMPI DUP6 DUP7 REVERT JUMPDEST PUSH2 0x4595 DUP9 DUP3 DUP7 ADD PUSH2 0x4118 JUMP JUMPDEST PUSH1 0x20 DUP4 ADD MSTORE POP PUSH1 0x40 DUP4 ADD MLOAD PUSH1 0x40 DUP3 ADD MSTORE PUSH1 0x60 DUP4 ADD MLOAD PUSH1 0x60 DUP3 ADD MSTORE DUP1 SWAP5 POP POP POP POP PUSH1 0x20 DUP4 ADD MLOAD SWAP1 POP SWAP3 POP SWAP3 SWAP1 POP JUMP JUMPDEST PUSH1 0x0 PUSH1 0x20 DUP3 DUP5 SUB SLT ISZERO PUSH2 0x45D4 JUMPI DUP1 DUP2 REVERT JUMPDEST DUP2 CALLDATALOAD PUSH2 0xA94 DUP2 PUSH2 0x4BD8 JUMP JUMPDEST DUP2 DUP4 MSTORE PUSH1 0x0 PUSH1 0x1 PUSH1 0x1 PUSH1 0xFB SHL SUB DUP4 GT ISZERO PUSH2 0x45F7 JUMPI DUP1 DUP2 REVERT JUMPDEST PUSH1 0x20 DUP4 MUL DUP1 DUP4 PUSH1 0x20 DUP8 ADD CALLDATACOPY SWAP4 SWAP1 SWAP4 ADD PUSH1 0x20 ADD SWAP3 DUP4 MSTORE POP SWAP1 SWAP2 SWAP1 POP JUMP JUMPDEST PUSH1 0x0 DUP2 MLOAD DUP1 DUP5 MSTORE PUSH1 0x20 DUP1 DUP6 ADD SWAP5 POP DUP1 DUP5 ADD DUP4 JUMPDEST DUP4 DUP2 LT ISZERO PUSH2 0x4680 JUMPI DUP2 MLOAD DUP1 MLOAD DUP9 MSTORE DUP4 DUP2 ADD MLOAD DUP5 DUP10 ADD MSTORE PUSH1 0x40 DUP1 DUP3 ADD MLOAD SWAP1 DUP10 ADD MSTORE PUSH1 0x60 DUP1 DUP3 ADD MLOAD SWAP1 DUP10 ADD MSTORE PUSH1 0x80 DUP1 DUP3 ADD MLOAD SWAP1 DUP10 ADD MSTORE PUSH1 0xA0 SWAP1 DUP2 ADD MLOAD SWAP1 PUSH1 0x4 DUP3 LT PUSH2 0x466B JUMPI INVALID JUMPDEST DUP9 ADD MSTORE PUSH1 0xC0 SWAP1 SWAP7 ADD SWAP6 SWAP1 DUP3 ADD SWAP1 PUSH1 0x1 ADD PUSH2 0x4626 JUMP JUMPDEST POP SWAP5 SWAP6 SWAP5 POP POP POP POP POP JUMP JUMPDEST PUSH1 0x1 PUSH1 0x1 PUSH1 0xA0 SHL SUB SWAP2 SWAP1 SWAP2 AND DUP2 MSTORE PUSH1 0x20 ADD SWAP1 JUMP JUMPDEST PUSH1 0x1 PUSH1 0x1 PUSH1 0xA0 SHL SUB DUP6 DUP2 AND DUP3 MSTORE DUP5 AND PUSH1 0x20 DUP3 ADD MSTORE PUSH1 0x60 PUSH1 0x40 DUP3 ADD DUP2 SWAP1 MSTORE DUP2 ADD DUP3 SWAP1 MSTORE PUSH1 0x0 DUP3 DUP5 PUSH1 0x80 DUP5 ADD CALLDATACOPY DUP2 DUP4 ADD PUSH1 0x80 SWAP1 DUP2 ADD SWAP2 SWAP1 SWAP2 MSTORE PUSH1 0x1F SWAP1 SWAP3 ADD PUSH1 0x1F NOT AND ADD ADD SWAP4 SWAP3 POP POP POP JUMP JUMPDEST PUSH1 0x1 PUSH1 0x1 PUSH1 0xA0 SHL SUB SWAP7 DUP8 AND DUP2 MSTORE SWAP5 DUP7 AND PUSH1 0x20 DUP7 ADD MSTORE SWAP3 DUP6 AND PUSH1 0x40 DUP6 ADD MSTORE SWAP1 DUP5 AND PUSH1 0x60 DUP5 ADD MSTORE DUP4 AND PUSH1 0x80 DUP4 ADD MSTORE SWAP1 SWAP2 AND PUSH1 0xA0 DUP3 ADD MSTORE PUSH1 0xC0 ADD SWAP1 JUMP JUMPDEST PUSH1 0x1 PUSH1 0x1 PUSH1 0xA0 SHL SUB SWAP3 SWAP1 SWAP3 AND DUP3 MSTORE DUP1 MLOAD PUSH5 0xFFFFFFFFFF AND PUSH1 0x20 DUP1 DUP5 ADD SWAP2 SWAP1 SWAP2 MSTORE DUP2 ADD MLOAD PUSH1 0x1 PUSH1 0x1 PUSH1 0xF8 SHL SUB NOT AND PUSH1 0x40 DUP1 DUP5 ADD SWAP2 SWAP1 SWAP2 MSTORE DUP2 ADD MLOAD PUSH1 0xFF AND PUSH1 0x60 DUP1 DUP5 ADD SWAP2 SWAP1 SWAP2 MSTORE DUP2 ADD MLOAD PUSH2 0xFFFF AND PUSH1 0x80 DUP1 DUP5 ADD SWAP2 SWAP1 SWAP2 MSTORE ADD MLOAD PUSH1 0x1 PUSH1 0x1 PUSH1 0x70 SHL SUB NOT AND PUSH1 0xA0 DUP3 ADD MSTORE PUSH1 0xC0 ADD SWAP1 JUMP JUMPDEST PUSH1 0x0 PUSH1 0x1 DUP1 PUSH1 0xA0 SHL SUB DUP8 AND DUP3 MSTORE PUSH2 0xFFFF DUP7 AND PUSH1 0x20 DUP4 ADD MSTORE PUSH1 0x80 PUSH1 0x40 DUP4 ADD MSTORE DUP5 MLOAD PUSH1 0x80 DUP1 DUP5 ADD MSTORE PUSH2 0x47C2 PUSH2 0x100 DUP5 ADD DUP3 PUSH2 0x4613 JUMP JUMPDEST SWAP1 POP PUSH1 0x20 DUP7 ADD MLOAD PUSH1 0x7F NOT DUP5 DUP4 SUB ADD PUSH1 0xA0 DUP6 ADD MSTORE PUSH2 0x47DF DUP3 DUP3 PUSH2 0x4613 JUMP JUMPDEST SWAP2 POP POP PUSH1 0x40 DUP7 ADD MLOAD PUSH1 0xC0 DUP5 ADD MSTORE PUSH1 0x60 DUP7 ADD MLOAD PUSH1 0xE0 DUP5 ADD MSTORE DUP3 DUP2 SUB PUSH1 0x60 DUP5 ADD MSTORE PUSH2 0x4809 DUP2 DUP6 DUP8 PUSH2 0x45DF JUMP JUMPDEST SWAP9 SWAP8 POP POP POP POP POP POP POP POP JUMP JUMPDEST PUSH1 0x1 PUSH1 0x1 PUSH1 0xA0 SHL SUB SWAP7 SWAP1 SWAP7 AND DUP7 MSTORE PUSH2 0xFFFF SWAP5 SWAP1 SWAP5 AND PUSH1 0x20 DUP7 ADD MSTORE PUSH1 0x40 DUP6 ADD SWAP3 SWAP1 SWAP3 MSTORE PUSH1 0x60 DUP5 ADD MSTORE PUSH1 0x80 DUP4 ADD MSTORE PUSH1 0xA0 DUP3 ADD MSTORE PUSH1 0xC0 ADD SWAP1 JUMP JUMPDEST PUSH1 0x1 PUSH1 0x1 PUSH1 0xA0 SHL SUB DUP7 AND DUP2 MSTORE PUSH2 0xFFFF DUP6 AND PUSH1 0x20 DUP3 ADD MSTORE PUSH5 0xFFFFFFFFFF DUP5 AND PUSH1 0x40 DUP3 ADD MSTORE PUSH1 0x80 PUSH1 0x60 DUP3 ADD DUP2 SWAP1 MSTORE PUSH1 0x0 SWAP1 PUSH2 0x1E1C SWAP1 DUP4 ADD DUP5 DUP7 PUSH2 0x45DF JUMP JUMPDEST PUSH1 0x1 PUSH1 0x1 PUSH1 0xA0 SHL SUB SWAP4 DUP5 AND DUP2 MSTORE PUSH1 0x20 DUP2 ADD SWAP3 SWAP1 SWAP3 MSTORE SWAP1 SWAP2 AND PUSH1 0x40 DUP3 ADD MSTORE PUSH1 0x60 ADD SWAP1 JUMP JUMPDEST PUSH1 0x1 PUSH1 0x1 PUSH1 0xA0 SHL SUB SWAP5 DUP6 AND DUP2 MSTORE PUSH1 0x20 DUP2 ADD SWAP4 SWAP1 SWAP4 MSTORE SWAP3 AND PUSH1 0x40 DUP3 ADD MSTORE PUSH2 0xFFFF SWAP1 SWAP2 AND PUSH1 0x60 DUP3 ADD MSTORE PUSH1 0x80 ADD SWAP1 JUMP JUMPDEST PUSH1 0x1 PUSH1 0x1 PUSH1 0xA0 SHL SUB SWAP5 SWAP1 SWAP5 AND DUP5 MSTORE PUSH1 0x20 DUP5 ADD SWAP3 SWAP1 SWAP3 MSTORE PUSH1 0x40 DUP4 ADD MSTORE PUSH1 0x60 DUP3 ADD MSTORE PUSH1 0x80 ADD SWAP1 JUMP JUMPDEST SWAP1 DUP2 MSTORE PUSH1 0x20 ADD SWAP1 JUMP JUMPDEST PUSH1 0x20 DUP1 DUP3 MSTORE PUSH1 0xC SWAP1 DUP3 ADD MSTORE PUSH12 0x155B985D5D1A1BDC9A5E9959 PUSH1 0xA2 SHL PUSH1 0x40 DUP3 ADD MSTORE PUSH1 0x60 ADD SWAP1 JUMP JUMPDEST PUSH1 0x20 DUP1 DUP3 MSTORE PUSH1 0x4 SWAP1 DUP3 ADD MSTORE PUSH4 0x135A5B9D PUSH1 0xE2 SHL PUSH1 0x40 DUP3 ADD MSTORE PUSH1 0x60 ADD SWAP1 JUMP JUMPDEST PUSH1 0x20 DUP1 DUP3 MSTORE PUSH1 0xB SWAP1 DUP3 ADD MSTORE PUSH11 0x4554482042616C616E6365 PUSH1 0xA8 SHL PUSH1 0x40 DUP3 ADD MSTORE PUSH1 0x60 ADD SWAP1 JUMP JUMPDEST PUSH1 0x20 DUP1 DUP3 MSTORE PUSH1 0x6 SWAP1 DUP3 ADD MSTORE PUSH6 0x52656465656D PUSH1 0xD0 SHL PUSH1 0x40 DUP3 ADD MSTORE PUSH1 0x60 ADD SWAP1 JUMP JUMPDEST PUSH1 0x20 DUP1 DUP3 MSTORE PUSH1 0xD SWAP1 DUP3 ADD MSTORE PUSH13 0x92DCECC2D8D2C840D2DCC8CAF PUSH1 0x9B SHL PUSH1 0x40 DUP3 ADD MSTORE PUSH1 0x60 ADD SWAP1 JUMP JUMPDEST PUSH1 0x20 DUP1 DUP3 MSTORE PUSH1 0x10 SWAP1 DUP3 ADD MSTORE PUSH16 0x556E736F7274656420616374696F6E73 PUSH1 0x80 SHL PUSH1 0x40 DUP3 ADD MSTORE PUSH1 0x60 ADD SWAP1 JUMP JUMPDEST PUSH1 0x20 DUP1 DUP3 MSTORE PUSH1 0x1A SWAP1 DUP3 ADD MSTORE PUSH32 0x496E73756666696369656E7420746F6B656E2062616C616E6365000000000000 PUSH1 0x40 DUP3 ADD MSTORE PUSH1 0x60 ADD SWAP1 JUMP JUMPDEST PUSH1 0x20 DUP1 DUP3 MSTORE PUSH1 0xE SWAP1 DUP3 ADD MSTORE PUSH14 0x1499595B9D1C985B9D0818D85B1B PUSH1 0x92 SHL PUSH1 0x40 DUP3 ADD MSTORE PUSH1 0x60 ADD SWAP1 JUMP JUMPDEST PUSH1 0x20 DUP1 DUP3 MSTORE PUSH1 0x8 SWAP1 DUP3 ADD MSTORE PUSH8 0x9CCACE4086C2E6D PUSH1 0xC3 SHL PUSH1 0x40 DUP3 ADD MSTORE PUSH1 0x60 ADD SWAP1 JUMP JUMPDEST PUSH1 0x20 DUP1 DUP3 MSTORE PUSH1 0x1A SWAP1 DUP3 ADD MSTORE PUSH32 0x496E76616C69642074726164657320666F72206163636F756E74000000000000 PUSH1 0x40 DUP3 ADD MSTORE PUSH1 0x60 ADD SWAP1 JUMP JUMPDEST PUSH1 0x20 DUP1 DUP3 MSTORE PUSH1 0xA SWAP1 DUP3 ADD MSTORE PUSH10 0x2732B390372A37B5B2B7 PUSH1 0xB1 SHL PUSH1 0x40 DUP3 ADD MSTORE PUSH1 0x60 ADD SWAP1 JUMP JUMPDEST PUSH1 0x20 DUP1 DUP3 MSTORE PUSH1 0x11 SWAP1 DUP3 ADD MSTORE PUSH17 0x92DCE6EACCCCD2C6D2CADCE840C6C2E6D PUSH1 0x7B SHL PUSH1 0x40 DUP3 ADD MSTORE PUSH1 0x60 ADD SWAP1 JUMP JUMPDEST PUSH1 0x20 DUP1 DUP3 MSTORE PUSH1 0x14 SWAP1 DUP3 ADD MSTORE PUSH20 0x125B9CDD59999A58DA595B9D0819195C1BDCDA5D PUSH1 0x62 SHL PUSH1 0x40 DUP3 ADD MSTORE PUSH1 0x60 ADD SWAP1 JUMP JUMPDEST PUSH2 0xFFFF SWAP3 SWAP1 SWAP3 AND DUP3 MSTORE PUSH1 0x20 DUP3 ADD MSTORE PUSH1 0x40 ADD SWAP1 JUMP JUMPDEST PUSH1 0x0 DUP1 DUP4 CALLDATALOAD PUSH1 0x1E NOT DUP5 CALLDATASIZE SUB ADD DUP2 SLT PUSH2 0x4B40 JUMPI DUP3 DUP4 REVERT JUMPDEST DUP4 ADD DUP1 CALLDATALOAD SWAP2 POP PUSH1 0x1 PUSH1 0x1 PUSH1 0x40 SHL SUB DUP3 GT ISZERO PUSH2 0x4B59 JUMPI DUP3 DUP4 REVERT JUMPDEST PUSH1 0x20 SWAP1 DUP2 ADD SWAP3 POP DUP2 MUL CALLDATASIZE SUB DUP3 SGT ISZERO PUSH2 0x4111 JUMPI PUSH1 0x0 DUP1 REVERT JUMPDEST PUSH1 0x0 DUP3 CALLDATALOAD PUSH1 0xDE NOT DUP4 CALLDATASIZE SUB ADD DUP2 SLT PUSH2 0x4B85 JUMPI DUP2 DUP3 REVERT JUMPDEST SWAP2 SWAP1 SWAP2 ADD SWAP3 SWAP2 POP POP JUMP JUMPDEST PUSH1 0x0 DUP3 CALLDATALOAD PUSH1 0x5E NOT DUP4 CALLDATASIZE SUB ADD DUP2 SLT PUSH2 0x4B85 JUMPI DUP2 DUP3 REVERT JUMPDEST PUSH1 0x40 MLOAD DUP2 DUP2 ADD PUSH1 0x1 PUSH1 0x1 PUSH1 0x40 SHL SUB DUP2 GT DUP3 DUP3 LT OR ISZERO PUSH2 0x4BBF JUMPI INVALID JUMPDEST PUSH1 0x40 MSTORE SWAP2 SWAP1 POP JUMP JUMPDEST DUP1 ISZERO ISZERO DUP2 EQ PUSH2 0x4BD5 JUMPI PUSH1 0x0 DUP1 REVERT JUMPDEST POP JUMP JUMPDEST PUSH2 0xFFFF DUP2 AND DUP2 EQ PUSH2 0x4BD5 JUMPI PUSH1 0x0 DUP1 REVERT INVALID MSTORE8 PUSH2 0x6665 0x4D PUSH2 0x7468 GASPRICE KECCAK256 PUSH14 0x756C7469706C69636174696F6E20 PUSH16 0x766572666C6F77A26469706673582212 KECCAK256 PUSH22 0xC2484A6252AD6A8D692532921B8009AB690E34F76DA9 CALLDATASIZE SWAP7 0xD5 RETURNDATASIZE SWAP8 0xA8 RETURNDATASIZE SWAP14 0xCD PUSH5 0x736F6C6343 STOP SMOD MOD STOP CALLER ","sha1":"7ebbf18b7fd5c17982abca8c316c1afd29819d3d","source":"// SPDX-License-Identifier: GPL-3.0-only\npragma solidity ^0.7.0;\npragma abicoder v2;\n\nimport \"./TradingAction.sol\";\nimport \"./ActionGuards.sol\";\nimport \"./nTokenMintAction.sol\";\nimport \"./nTokenRedeemAction.sol\";\nimport \"../SettleAssetsExternal.sol\";\nimport \"../FreeCollateralExternal.sol\";\nimport \"../../math/SafeInt256.sol\";\nimport \"../../global/StorageLayoutV1.sol\";\nimport \"../../internal/balances/BalanceHandler.sol\";\nimport \"../../internal/portfolio/PortfolioHandler.sol\";\nimport \"../../internal/AccountContextHandler.sol\";\nimport \"../../../interfaces/notional/NotionalCallback.sol\";\n\ncontract BatchAction is StorageLayoutV1, ActionGuards {\n    using BalanceHandler for BalanceState;\n    using PortfolioHandler for PortfolioState;\n    using AccountContextHandler for AccountContext;\n    using AssetRate for AssetRateParameters;\n    using TokenHandler for Token;\n    using SafeInt256 for int256;\n\n    /// @notice Executes a batch of balance transfers including minting and redeeming nTokens.\n    /// @param account the account for the action\n    /// @param actions array of balance actions to take, must be sorted by currency id\n    /// @dev emit:CashBalanceChange, emit:nTokenSupplyChange\n    /// @dev auth:msg.sender auth:ERC1155\n    function batchBalanceAction(address account, BalanceAction[] calldata actions)\n        external\n        payable\n        nonReentrant\n    {\n        require(account == msg.sender || msg.sender == address(this), \"Unauthorized\");\n        requireValidAccount(account);\n\n        AccountContext memory accountContext = _settleAccountIfRequired(account);\n        BalanceState memory balanceState;\n\n        for (uint256 i = 0; i < actions.length; i++) {\n            BalanceAction calldata action = actions[i];\n            // msg.value will only be used when currency id == 1, referencing ETH. The requirement\n            // to sort actions by increasing id enforces that msg.value will only be used once.\n            if (i > 0) {\n                require(action.currencyId > actions[i - 1].currencyId, \"Unsorted actions\");\n            }\n            // Loads the currencyId into balance state\n            balanceState.loadBalanceState(account, action.currencyId, accountContext);\n\n            _executeDepositAction(\n                account,\n                balanceState,\n                action.actionType,\n                action.depositActionAmount\n            );\n\n            _calculateWithdrawActionAndFinalize(\n                account,\n                accountContext,\n                balanceState,\n                action.withdrawAmountInternalPrecision,\n                action.withdrawEntireCashBalance,\n                action.redeemToUnderlying\n            );\n        }\n\n        _finalizeAccountContext(account, accountContext);\n    }\n\n    /// @notice Executes a batch of balance transfers and trading actions\n    /// @param account the account for the action\n    /// @param actions array of balance actions with trades to take, must be sorted by currency id\n    /// @dev emit:CashBalanceChange, emit:nTokenSupplyChange, emit:LendBorrowTrade, emit:AddRemoveLiquidity,\n    /// @dev emit:SettledCashDebt, emit:nTokenResidualPurchase, emit:ReserveFeeAccrued\n    /// @dev auth:msg.sender auth:ERC1155\n    function batchBalanceAndTradeAction(address account, BalanceActionWithTrades[] calldata actions)\n        external\n        payable\n        nonReentrant\n    {\n        require(account == msg.sender || msg.sender == address(this), \"Unauthorized\");\n        requireValidAccount(account);\n        AccountContext memory accountContext = _batchBalanceAndTradeAction(account, actions);\n        _finalizeAccountContext(account, accountContext);\n    }\n\n    /// @notice Executes a batch of lending actions. This is different from batchBalanceAndTrade because\n    /// it always pulls the required amount of tokens to get an account to a cash balance of zero. It reduces\n    /// the gas costs for lending because there is no second token transfer where residual balances are sent\n    /// back to the account.\n    /// @dev Note that this method does not work with native ETH because it requires the ability to pull payment\n    /// from an ERC20 token. Therefore, this method is marked as nonpayable. It will still work with cETH or aETH.\n    /// @param account the account for the action\n    /// @param actions array of batch lending actions\n    /// @dev emit:CashBalanceChange, emit:LendBorrowTrade emit:SettledCashDebt\n    /// @dev auth:msg.sender auth:ERC1155\n    function batchLend(address account, BatchLend[] calldata actions)\n        external\n        nonReentrant\n    {\n        require(account == msg.sender || msg.sender == address(this), \"Unauthorized\");\n        requireValidAccount(account);\n\n        AccountContext memory accountContext = _settleAccountIfRequired(account);\n        // NOTE: loading the portfolio state must happen after settle account to get the\n        // correct portfolio, it will have changed if the account is settled.\n        PortfolioState memory portfolioState = PortfolioHandler.buildPortfolioState(\n            account,\n            accountContext.assetArrayLength,\n            0\n        );\n        BalanceState memory balanceState;\n\n        for (uint256 i = 0; i < actions.length; i++) {\n            BatchLend calldata action = actions[i];\n            // msg.value will never be used in this method because it is non-payable\n            if (i > 0) {\n                require(action.currencyId > actions[i - 1].currencyId, \"Unsorted actions\");\n            }\n\n            // Require that each action have at least 1 trade and all trades are lending trades\n            uint256 numTrades = action.trades.length;\n            require(numTrades > 0); // dev: no actions\n            for (uint256 j = 0; j < numTrades; j++) {\n                require(uint8(bytes1(action.trades[j])) == uint8(TradeActionType.Lend)); // dev: only lend trades\n            }\n\n            // Loads the currencyId into balance state\n            balanceState.loadBalanceState(account, action.currencyId, accountContext);\n            (balanceState.netCashChange, portfolioState) = _executeTrades(\n                account,\n                action.currencyId,\n                action.trades,\n                accountContext,\n                portfolioState\n            );\n            // This must be negative as a result of requiring only lending\n            require(balanceState.netCashChange <= 0);\n\n            // Deposit sufficient cash to get the balance up to zero. If required cash is negative (i.e. there\n            // is sufficient cash) then we don't need to do anything. The account's cash balance will be net off\n            // and there will be no token transfer.\n            // NOTE: it is possible that free collateral decreases as a result of lending a cash balance, will\n            // check FC at the end of the method.\n            int256 requiredCash = balanceState.storedCashBalance.add(balanceState.netCashChange).neg();\n            if (requiredCash > 0) {\n                if (action.depositUnderlying) {\n                    // If depositing underlying, get the current asset rate and convert the required cash\n                    // back to underlying.\n                    AssetRateParameters memory ar = AssetRate.buildAssetRateStateful(action.currencyId);\n                    Token memory underlyingToken = TokenHandler.getUnderlyingToken(action.currencyId);\n                    int256 underlyingInternalAmount = ar.convertToUnderlying(requiredCash);\n                    int256 underlyingExternalAmount = underlyingToken.convertToUnderlyingExternalWithAdjustment(\n                        underlyingInternalAmount\n                    );\n\n                    // This returns the cToken / aToken amount as a result of transfer and mint. It must be sufficient to\n                    // cover the required cash.\n                    int256 assetAmountInternal = balanceState.depositUnderlyingToken(account, underlyingExternalAmount);\n                    require(assetAmountInternal >= requiredCash, \"Insufficient deposit\");\n                } else {\n                    // If depositing asset tokens, then we just convert to the external precision. Need to\n                    // use the depositAssetToken here to handle aToken balances\n                    Token memory assetToken = TokenHandler.getAssetToken(action.currencyId);\n                    balanceState.depositAssetToken(\n                        account,\n                        assetToken.convertToExternal(requiredCash),\n                        false // Do not force a transfer here, will be done in finalize if required.\n                    );\n                }\n            }\n\n            // Will write all the balance changes to storage and transfer asset tokens if required.\n            balanceState.finalize(account, accountContext, false);\n        }\n\n        // Update the portfolio state if bitmap is not enabled. If bitmap is already enabled\n        // then all the assets have already been updated in in storage.\n        if (!accountContext.isBitmapEnabled()) {\n            // NOTE: account context is updated in memory inside this method call.\n            accountContext.storeAssetsAndUpdateContext(account, portfolioState, false);\n        }\n\n        // This will save the account context and check free collateral\n        _finalizeAccountContext(account, accountContext);\n    }\n\n    /// @notice Executes a batch of balance transfers and trading actions via an authorized callback contract. This\n    /// can be used as a \"flash loan\" facility for special contracts that migrate assets between protocols or perform\n    /// other actions on behalf of the user.\n    /// Contracts can borrow from Notional and receive a callback prior to an FC check, this can be useful if the contract\n    /// needs to perform a trade or repay a debt on a different protocol before depositing collateral. Since Notional's AMM\n    /// will never be as capital efficient or gas efficient as other flash loan facilities, this method requires whitelisting\n    /// and will mainly be used for contracts that make migrating assets a better user experience.\n    /// @param account the account that will take all the actions\n    /// @param actions array of balance actions with trades to take, must be sorted by currency id\n    /// @param callbackData arbitrary bytes to be passed backed to the caller in the callback\n    /// @dev emit:CashBalanceChange, emit:nTokenSupplyChange, emit:LendBorrowTrade, emit:AddRemoveLiquidity,\n    /// @dev emit:SettledCashDebt, emit:nTokenResidualPurchase, emit:ReserveFeeAccrued\n    /// @dev auth:authorizedCallbackContract\n    function batchBalanceAndTradeActionWithCallback(\n        address account,\n        BalanceActionWithTrades[] calldata actions,\n        bytes calldata callbackData\n    ) external payable {\n        // NOTE: Re-entrancy is allowed for authorized callback functions.\n        require(authorizedCallbackContract[msg.sender], \"Unauthorized\");\n        requireValidAccount(account);\n\n        AccountContext memory accountContext = _batchBalanceAndTradeAction(account, actions);\n        accountContext.setAccountContext(account);\n\n        // Be sure to set the account context before initiating the callback, all stateful updates\n        // have been finalized at this point so we are safe to issue a callback. This callback may\n        // re-enter Notional safely to deposit or take other actions.\n        NotionalCallback(msg.sender).notionalCallback(msg.sender, account, callbackData);\n\n        if (accountContext.hasDebt != 0x00) {\n            // NOTE: this method may update the account context to turn off the hasDebt flag, this\n            // is ok because the worst case would be causing an extra free collateral check when it\n            // is not required. This check will be entered if the account hasDebt prior to the callback\n            // being triggered above, so it will happen regardless of what the callback function does.\n            FreeCollateralExternal.checkFreeCollateralAndRevert(account);\n        }\n    }\n\n    function _batchBalanceAndTradeAction(\n        address account,\n        BalanceActionWithTrades[] calldata actions\n    ) internal returns (AccountContext memory) {\n        AccountContext memory accountContext = _settleAccountIfRequired(account);\n        BalanceState memory balanceState;\n        // NOTE: loading the portfolio state must happen after settle account to get the\n        // correct portfolio, it will have changed if the account is settled.\n        PortfolioState memory portfolioState = PortfolioHandler.buildPortfolioState(\n            account,\n            accountContext.assetArrayLength,\n            0\n        );\n\n        for (uint256 i = 0; i < actions.length; i++) {\n            BalanceActionWithTrades calldata action = actions[i];\n            // msg.value will only be used when currency id == 1, referencing ETH. The requirement\n            // to sort actions by increasing id enforces that msg.value will only be used once.\n            if (i > 0) {\n                require(action.currencyId > actions[i - 1].currencyId, \"Unsorted actions\");\n            }\n            // Loads the currencyId into balance state\n            balanceState.loadBalanceState(account, action.currencyId, accountContext);\n\n            // Does not revert on invalid action types here, they also have no effect.\n            _executeDepositAction(\n                account,\n                balanceState,\n                action.actionType,\n                action.depositActionAmount\n            );\n\n            if (action.trades.length > 0) {\n                int256 netCash;\n                (netCash, portfolioState) = _executeTrades(\n                    account,\n                    action.currencyId,\n                    action.trades,\n                    accountContext,\n                    portfolioState\n                );\n\n                // If the account owes cash after trading, ensure that it has enough\n                if (netCash < 0) _checkSufficientCash(balanceState, netCash.neg());\n                balanceState.netCashChange = balanceState.netCashChange.add(netCash);\n            }\n\n            _calculateWithdrawActionAndFinalize(\n                account,\n                accountContext,\n                balanceState,\n                action.withdrawAmountInternalPrecision,\n                action.withdrawEntireCashBalance,\n                action.redeemToUnderlying\n            );\n        }\n\n        // Update the portfolio state if bitmap is not enabled. If bitmap is already enabled\n        // then all the assets have already been updated in in storage.\n        if (!accountContext.isBitmapEnabled()) {\n            // NOTE: account context is updated in memory inside this method call.\n            accountContext.storeAssetsAndUpdateContext(account, portfolioState, false);\n        }\n\n        // NOTE: free collateral and account context will be set outside of this method call.\n        return accountContext;\n    }\n\n    /// @dev Executes deposits\n    function _executeDepositAction(\n        address account,\n        BalanceState memory balanceState,\n        DepositActionType depositType,\n        uint256 depositActionAmount_\n    ) private {\n        int256 depositActionAmount = SafeInt256.toInt(depositActionAmount_);\n        int256 assetInternalAmount;\n        require(depositActionAmount >= 0);\n\n        if (depositType == DepositActionType.None) {\n            return;\n        } else if (\n            depositType == DepositActionType.DepositAsset ||\n            depositType == DepositActionType.DepositAssetAndMintNToken\n        ) {\n            // NOTE: this deposit will NOT revert on a failed transfer unless there is a\n            // transfer fee. The actual transfer will take effect later in balanceState.finalize\n            assetInternalAmount = balanceState.depositAssetToken(\n                account,\n                depositActionAmount,\n                false // no force transfer\n            );\n        } else if (\n            depositType == DepositActionType.DepositUnderlying ||\n            depositType == DepositActionType.DepositUnderlyingAndMintNToken\n        ) {\n            // NOTE: this deposit will revert on a failed transfer immediately\n            assetInternalAmount = balanceState.depositUnderlyingToken(account, depositActionAmount);\n        } else if (depositType == DepositActionType.ConvertCashToNToken) {\n            // _executeNTokenAction will check if the account has sufficient cash\n            assetInternalAmount = depositActionAmount;\n        }\n\n        _executeNTokenAction(\n            balanceState,\n            depositType,\n            depositActionAmount,\n            assetInternalAmount\n        );\n    }\n\n    /// @dev Executes nToken actions\n    function _executeNTokenAction(\n        BalanceState memory balanceState,\n        DepositActionType depositType,\n        int256 depositActionAmount,\n        int256 assetInternalAmount\n    ) private {\n        // After deposits have occurred, check if we are minting nTokens\n        if (\n            depositType == DepositActionType.DepositAssetAndMintNToken ||\n            depositType == DepositActionType.DepositUnderlyingAndMintNToken ||\n            depositType == DepositActionType.ConvertCashToNToken\n        ) {\n            // Will revert if trying to mint ntokens and results in a negative cash balance\n            _checkSufficientCash(balanceState, assetInternalAmount);\n            balanceState.netCashChange = balanceState.netCashChange.sub(assetInternalAmount);\n\n            // Converts a given amount of cash (denominated in internal precision) into nTokens\n            int256 tokensMinted = nTokenMintAction.nTokenMint(\n                balanceState.currencyId,\n                assetInternalAmount\n            );\n\n            balanceState.netNTokenSupplyChange = balanceState.netNTokenSupplyChange.add(\n                tokensMinted\n            );\n        } else if (depositType == DepositActionType.RedeemNToken) {\n            require(\n                // prettier-ignore\n                balanceState\n                    .storedNTokenBalance\n                    .add(balanceState.netNTokenTransfer) // transfers would not occur at this point\n                    .add(balanceState.netNTokenSupplyChange) >= depositActionAmount,\n                \"Insufficient token balance\"\n            );\n\n            balanceState.netNTokenSupplyChange = balanceState.netNTokenSupplyChange.sub(\n                depositActionAmount\n            );\n\n            int256 assetCash = nTokenRedeemAction.nTokenRedeemViaBatch(\n                balanceState.currencyId,\n                depositActionAmount\n            );\n\n            balanceState.netCashChange = balanceState.netCashChange.add(assetCash);\n        }\n    }\n\n    /// @dev Calculations any withdraws and finalizes balances\n    function _calculateWithdrawActionAndFinalize(\n        address account,\n        AccountContext memory accountContext,\n        BalanceState memory balanceState,\n        uint256 withdrawAmountInternalPrecision,\n        bool withdrawEntireCashBalance,\n        bool redeemToUnderlying\n    ) private {\n        int256 withdrawAmount = SafeInt256.toInt(withdrawAmountInternalPrecision);\n        require(withdrawAmount >= 0); // dev: withdraw action overflow\n\n        // NOTE: if withdrawEntireCashBalance is set it will override the withdrawAmountInternalPrecision input\n        if (withdrawEntireCashBalance) {\n            // This option is here so that accounts do not end up with dust after lending since we generally\n            // cannot calculate exact cash amounts from the liquidity curve.\n            withdrawAmount = balanceState.storedCashBalance\n                .add(balanceState.netCashChange)\n                .add(balanceState.netAssetTransferInternalPrecision);\n\n            // If the account has a negative cash balance then cannot withdraw\n            if (withdrawAmount < 0) withdrawAmount = 0;\n        }\n\n        // prettier-ignore\n        balanceState.netAssetTransferInternalPrecision = balanceState\n            .netAssetTransferInternalPrecision\n            .sub(withdrawAmount);\n\n        balanceState.finalize(account, accountContext, redeemToUnderlying);\n    }\n\n    function _finalizeAccountContext(address account, AccountContext memory accountContext)\n        private\n    {\n        // At this point all balances, market states and portfolio states should be finalized. Just need to check free\n        // collateral if required.\n        accountContext.setAccountContext(account);\n        if (accountContext.hasDebt != 0x00) {\n            FreeCollateralExternal.checkFreeCollateralAndRevert(account);\n        }\n    }\n\n    function _executeTrades(\n        address account,\n        uint16 currencyId,\n        bytes32[] calldata trades,\n        AccountContext memory accountContext,\n        PortfolioState memory portfolioState\n    ) private returns (int256 netCash, PortfolioState memory postTradeState) {\n        if (accountContext.isBitmapEnabled()) {\n            require(\n                accountContext.bitmapCurrencyId == currencyId,\n                \"Invalid trades for account\"\n            );\n            bool didIncurDebt;\n            (netCash, didIncurDebt) = TradingAction.executeTradesBitmapBatch(\n                account,\n                accountContext.bitmapCurrencyId,\n                accountContext.nextSettleTime,\n                trades\n            );\n            if (didIncurDebt) {\n                accountContext.hasDebt = Constants.HAS_ASSET_DEBT | accountContext.hasDebt;\n            }\n        } else {\n            // NOTE: we return portfolio state here instead of setting it inside executeTradesArrayBatch\n            // because we want to only write to storage once after all trades are completed\n            (postTradeState, netCash) = TradingAction.executeTradesArrayBatch(\n                account,\n                currencyId,\n                portfolioState,\n                trades\n            );\n        }\n    }\n\n    /// @notice When lending, adding liquidity or minting nTokens the account must have a sufficient cash balance\n    /// to do so.\n    function _checkSufficientCash(BalanceState memory balanceState, int256 amountInternalPrecision)\n        private\n        pure\n    {\n        // The total cash position at this point is: storedCashBalance + netCashChange + netAssetTransferInternalPrecision\n        require(\n            amountInternalPrecision >= 0 &&\n                balanceState.storedCashBalance\n                .add(balanceState.netCashChange)\n                .add(balanceState.netAssetTransferInternalPrecision) >= amountInternalPrecision,\n            \"Insufficient cash\"\n        );\n    }\n\n    function _settleAccountIfRequired(address account)\n        private\n        returns (AccountContext memory)\n    {\n        AccountContext memory accountContext = AccountContextHandler.getAccountContext(account);\n        if (accountContext.mustSettleAssets()) {\n            // Returns a new memory reference to account context\n            return SettleAssetsExternal.settleAccount(account, accountContext);\n        } else {\n            return accountContext;\n        }\n    }\n\n    /// @notice Get a list of deployed library addresses (sorted by library name)\n    function getLibInfo() external view returns (address, address, address, address, address, address) {\n        return (\n            address(FreeCollateralExternal), \n            address(MigrateIncentives), \n            address(SettleAssetsExternal), \n            address(TradingAction),\n            address(nTokenMintAction), \n            address(nTokenRedeemAction)\n        );\n    }\n}\n","sourcePath":"contracts/external/actions/BatchAction.sol","type":"contract","deployment":{"address":"0x5e24a2b7AF06119A0dC3b3ad543692303382DeE2","chainid":"5","blockHeight":7022999}}