{"abi":[{"anonymous":false,"inputs":[{"indexed":true,"internalType":"address","name":"liquidated","type":"address"},{"indexed":true,"internalType":"address","name":"liquidator","type":"address"},{"indexed":false,"internalType":"uint16","name":"localCurrencyId","type":"uint16"},{"indexed":false,"internalType":"uint16","name":"fCashCurrency","type":"uint16"},{"indexed":false,"internalType":"int256","name":"netLocalFromLiquidator","type":"int256"},{"indexed":false,"internalType":"uint256[]","name":"fCashMaturities","type":"uint256[]"},{"indexed":false,"internalType":"int256[]","name":"fCashNotionalTransfer","type":"int256[]"}],"name":"LiquidatefCashEvent","type":"event"},{"inputs":[{"internalType":"address","name":"liquidateAccount","type":"address"},{"internalType":"uint16","name":"localCurrency","type":"uint16"},{"internalType":"uint16","name":"fCashCurrency","type":"uint16"},{"internalType":"uint256[]","name":"fCashMaturities","type":"uint256[]"},{"internalType":"uint256[]","name":"maxfCashLiquidateAmounts","type":"uint256[]"}],"name":"calculatefCashCrossCurrencyLiquidation","outputs":[{"internalType":"int256[]","name":"","type":"int256[]"},{"internalType":"int256","name":"","type":"int256"}],"stateMutability":"nonpayable","type":"function"},{"inputs":[{"internalType":"address","name":"liquidateAccount","type":"address"},{"internalType":"uint16","name":"localCurrency","type":"uint16"},{"internalType":"uint256[]","name":"fCashMaturities","type":"uint256[]"},{"internalType":"uint256[]","name":"maxfCashLiquidateAmounts","type":"uint256[]"}],"name":"calculatefCashLocalLiquidation","outputs":[{"internalType":"int256[]","name":"","type":"int256[]"},{"internalType":"int256","name":"","type":"int256"}],"stateMutability":"nonpayable","type":"function"},{"inputs":[],"name":"getLibInfo","outputs":[{"internalType":"address","name":"","type":"address"}],"stateMutability":"pure","type":"function"},{"inputs":[{"internalType":"address","name":"liquidateAccount","type":"address"},{"internalType":"uint16","name":"localCurrency","type":"uint16"},{"internalType":"uint16","name":"fCashCurrency","type":"uint16"},{"internalType":"uint256[]","name":"fCashMaturities","type":"uint256[]"},{"internalType":"uint256[]","name":"maxfCashLiquidateAmounts","type":"uint256[]"}],"name":"liquidatefCashCrossCurrency","outputs":[{"internalType":"int256[]","name":"","type":"int256[]"},{"internalType":"int256","name":"","type":"int256"}],"stateMutability":"nonpayable","type":"function"},{"inputs":[{"internalType":"address","name":"liquidateAccount","type":"address"},{"internalType":"uint16","name":"localCurrency","type":"uint16"},{"internalType":"uint256[]","name":"fCashMaturities","type":"uint256[]"},{"internalType":"uint256[]","name":"maxfCashLiquidateAmounts","type":"uint256[]"}],"name":"liquidatefCashLocal","outputs":[{"internalType":"int256[]","name":"","type":"int256[]"},{"internalType":"int256","name":"","type":"int256"}],"stateMutability":"nonpayable","type":"function"},{"inputs":[],"name":"owner","outputs":[{"internalType":"address","name":"","type":"address"}],"stateMutability":"view","type":"function"},{"inputs":[],"name":"pauseGuardian","outputs":[{"internalType":"address","name":"","type":"address"}],"stateMutability":"view","type":"function"},{"inputs":[],"name":"pauseRouter","outputs":[{"internalType":"address","name":"","type":"address"}],"stateMutability":"view","type":"function"}],"bytecode":"608060405234801561001057600080fd5b506155ca80620000216000396000f3fe608060405234801561001057600080fd5b50600436106100885760003560e01c80638da5cb5b1161005b5780638da5cb5b146100e7578063c4c96dae146100ef578063e816469d146100f7578063fa37e3951461010a57610088565b80630fb281d91461008d57806324a3d622146100b75780637fdebbf4146100cc57806382463367146100df575b600080fd5b6100a061009b366004615053565b61011d565b6040516100ae9291906152f3565b60405180910390f35b6100bf610185565b6040516100ae91906152ba565b6100a06100da366004615053565b610194565b6100bf610262565b6100bf610271565b6100bf610288565b6100a06101053660046150e4565b6102a0565b6100a06101183660046150e4565b610370565b606060006002600a54141561014d5760405162461bcd60e51b81526004016101449061542a565b60405180910390fd5b6002600a554260006101648a8a8a8a8a8a886103d1565b60e081015160a0909101516001600a55909b909a5098505050505050505050565b6002546001600160a01b031681565b606060006002600a5414156101bb5760405162461bcd60e51b81526004016101449061542a565b6002600a554260006101d28a8a8a8a8a8a886103d1565b90506101e38a338b8c8c8c8761049b565b5050336001600160a01b03168a6001600160a01b03167f1f20e4ccba6c78861ee4c638fecd0b6a53b1232adb96ca3a0065b9bb12d6214d8b8c8560a001518d8d8860e0015160405161023a969594939291906154c3565b60405180910390a360e081015160a0909101516001600a55909a909950975050505050505050565b6001546001600160a01b031681565b60005464010000000090046001600160a01b031681565b73__FreeCollateralExternal________________90565b606060006002600a5414156102c75760405162461bcd60e51b81526004016101449061542a565b6002600a554260006102df8b8b8b8b8b8b8b89610620565b90506102f08b338c8c8c8c8761049b565b5050336001600160a01b03168b6001600160a01b03167f1f20e4ccba6c78861ee4c638fecd0b6a53b1232adb96ca3a0065b9bb12d6214d8c8c8560a001518d8d8860e00151604051610347969594939291906154c3565b60405180910390a360e081015160a0909101516001600a55909b909a5098505050505050505050565b606060006002600a5414156103975760405162461bcd60e51b81526004016101449061542a565b6002600a554260006103af8b8b8b8b8b8b8b89610620565b60e081015160a0909101516001600a55909c909b509950505050505050505050565b6103d9614a6d565b8483146103e557600080fd5b6103ed614a6d565b6103f9898960006106ba565b60408401526020830152815260006104158a61ffff8b16610816565b5050506020830151610100015190915061042f90826108c2565b6060830152866001600160401b038111801561044a57600080fd5b50604051908082528060200260200182016040528015610474578160200160208202803683370190505b5060e083015261048e8a61ffff8b168a8a8a8a888b6108fd565b5098975050505050505050565b60606000806104ad8861ffff16610c10565b905060006104ba8a610c2b565b60a086015160208401519192509080156104d45750600081135b1561051e5760208201516001600160f81b031916156105055760405162461bcd60e51b815260040161014490615452565b6105198b838c61051485610ccc565b610cda565b61053c565b61053a8b61ffff8c166105318685610dd1565b86929190610e10565b505b61054c8c87600001518c84610cda565b60006105618d8d858d61ffff168d8d8d610ec0565b9350905061056f838d610f4e565b865161057b908e610f4e565b808015610595575060208301516001600160f81b03191615155b1561060257604051636ccc642f60e01b815273__FreeCollateralExternal________________90636ccc642f906105d1908f906004016152ba565b60006040518083038186803b1580156105e957600080fd5b505af41580156105fd573d6000803e3d6000fd5b505050505b8660e001518760a00151955095505050505097509795505050505050565b610628614a6d565b84831461063457600080fd5b61063c614a6d565b6106478a8a8a6106ba565b604084015260208301528152856001600160401b038111801561066957600080fd5b50604051908082528060200260200182016040528015610693578160200160208202803683370190505b5060e08201526106ad8a61ffff8a1689898989878a611052565b9998505050505050505050565b6106c2614ac4565b6106ca614af2565b6106d2614b77565b336001600160a01b03871614156106e857600080fd5b61ffff85166106f657600080fd5b8461ffff168461ffff16141561070b57600080fd5b600080600073__FreeCollateralExternal________________63451d958f8a8a8a6040518463ffffffff1660e01b815260040161074b939291906152ce565b60006040518083038186803b15801561076357600080fd5b505af4158015610777573d6000803e3d6000fd5b505050506040513d6000823e601f3d908101601f1916820160405261079f9190810190615188565b919450925090506107b0838a610f4e565b6040805160808101825282815281516000808252602082810190945292820190836107f1565b6107de614b9f565b8152602001906001900390816107d65790505b5081526000602082015292516040909301929092525091989097509095509350505050565b60008060008060006108266111fe565b6001600160a01b0388166000908152602082815260408083208a84529091529020805469ffffffffffffffffffff81169650600160501b900463ffffffff169450909150831561089257805461088b90600160701b900466ffffffffffffff1661120b565b92506108a7565b8054600160701b900466ffffffffffffff1692505b54600160a81b9004600a90810b900b97939650919450925050565b6000806108f384604001516108ed6402540be4006108ed87896020015161121990919063ffffffff16565b90611267565b9150505b92915050565b60208201516040015161090f57600080fd5b610932826020015160400151836020015160200151846020015160c00151611298565b608083015260005b85811015610be557801561097b5786868281811061095457fe5b9050602002013587876001840381811061096a57fe5b905060200201351161097b57600080fd5b600061099b8a858b8b8b8781811061098f57fe5b905060200201356112ed565b905060008112156109b8576000846060015112156109b857600080fd5b806109c35750610bdd565b6000806109eb86602001518b8b878181106109da57fe5b90506020020135876000871361138b565b9092509050610a10610a05610a008385611468565b61147e565b60808801519061149f565b8660e001518581518110610a2057fe5b602002602001018181525050610a708660e001518581518110610a3f57fe5b6020026020010151610a508561147e565b610a6b8b8b89818110610a5f57fe5b905060200201356114b8565b6114d2565b8660e001518581518110610a8057fe5b6020026020010181815250506000610ab8828860e001518781518110610aa257fe5b602002602001015161151c90919063ffffffff16565b90506000841215610b6b578660600151811315610b2357610b01816108ed89606001518a60e001518981518110610aeb57fe5b602002602001015161121990919063ffffffff16565b8760e001518681518110610b1157fe5b60209081029190910101525060608601515b610b438760e001518681518110610b3657fe5b6020026020010151610ccc565b8760e001518681518110610b5357fe5b602002602001018181525050610b6881610ccc565b90505b60a0870151610b7a9082611535565b60a08801526060870151610b8e9082611535565b6060880152610bc1610bb6610a00610ba68587611468565b8a60e001518981518110610aa257fe5b608089015190611468565b60808801819052600012610bd85750505050610be5565b505050505b60010161093a565b5060a082015160208301516101000151610bfe9161154b565b60a09092019190915250505050505050565b610c18614bdf565b610c23826000611576565b90505b919050565b610c33614ac4565b6000610c3d611624565b6001600160a01b039390931660009081526020938452604090819020815160a081018352905464ffffffffff8116825265010000000000810460f81b6001600160f81b03191695820195909552600160301b850460ff1691810191909152600160381b840461ffff166060820152600160481b90930460701b6001600160701b03191660808401525090919050565b6000610c2360001983611219565b600080600080610cee888761ffff16610816565b929650909450925090506000610d048587611535565b90506000811215610d485760008613610d2f5760405162461bcd60e51b815260040161014490615474565b602088018051600160f91b176001600160f81b03191690525b600081151580610d5757508415155b9050610d6d8961ffff8a1683600160fe1b611631565b8761ffff168a6001600160a01b03167f5441e4a5fac93a951d782e6f1cdb82e95c8fc58561a013953d17e395c5e69b4b89604051610dab9190615315565b60405180910390a3610dc58a8961ffff1684888888611831565b50505050505050505050565b60006305f5e10083604001511415610dea5750806108f7565b610e096305f5e1006108ed85604001518561121990919063ffffffff16565b9392505050565b80600585606001516005811115610e2357fe5b1415610e48576000610e3484611979565b9050610e4481600001518461198c565b9250505b6000821315610e74576000610e5e868685611a1e565b9050856020015115610e6e578091505b50610eb8565b600385606001516005811115610e8657fe5b1415610ea357610e9e84610e9984610ccc565b611b0c565b610eb8565b8451610eb89085610eb385610ccc565b611b47565b949350505050565b6000610eca614ac4565b600080610edd8888888860e00151611bbe565b91509150610eec8a8a84611cbc565b9850610ef782611d3d565b8451610f0290611d90565b15610f1b57610f168b866000015184611d9d565b610f3e565b6040850151610f2a9083611e65565b60408501518551610f3e918d906000611ec3565b9a97995096975050505050505050565b6000610f58611624565b6001600160a01b03831660008181526020838152604080832088518154938a0151838b015160608c015160808d015160701c600160481b027affffffffffffffffffffffffffffffffffff0000000000000000001961ffff909216600160381b0268ffff000000000000001960ff94909416600160301b0266ff0000000000001960f89690961c650100000000000265ff00000000001964ffffffffff90981664ffffffffff19909b169a909a1796909616989098179390931693909317169490941716929092179091555192935090917f6bd4b121bca854a191536a2ca891155c42ee2fb23f307fb34e8bc65cfcb5412e9190a2505050565b60008260200151604001511261106757600080fd5b60008260200151606001511361107c57600080fd5b846001600160401b038111801561109257600080fd5b506040519080825280602002602001820160405280156110bc578160200160208202803683370190505b5060e083015260208201516110d090611f9a565b60c08401526080830181905260208301516101200151604001516110f3916108c2565b608083015260005b858110156111f357801561113c5786868281811061111557fe5b9050602002013587876001840381811061112b57fe5b905060200201351161113c57600080fd5b60006111508a858b8b8b8781811061098f57fe5b90508061115d57506111eb565b6000811361116a57600080fd5b6111978489898581811061117a57fe5b90506020020135856111918a8a88818110610a5f57fe5b85611fee565b8460e0015183815181106111a757fe5b602002602001018181525050600084608001511315806111cd5750602084015160600151155b806111de5750602084015160400151155b156111e957506111f3565b505b6001016110fb565b505050505050505050565b6000806108f760066120fb565b600881901c60ff9091161b90565b8181026000198314156112495781158061123b57508282828161123857fe5b05145b61124457600080fd5b6108f7565b82158061125e57508183828161125b57fe5b05145b6108f757600080fd5b60008160001914801561127d5750600160ff1b83145b1561128757600080fd5b81838161129057fe5b059392505050565b600080600085136112ad5782604001516112b3565b82606001515b9050600081136112c257600080fd5b6112e4816108ed60646112de6112d789610ccc565b8890612114565b90611219565b95945050505050565b82516060015160009061ffff168314156113135761130c858484612136565b9050610eb8565b60408401515180515b6000198101901561137e57600082828151811061133557fe5b60200260200101519050858160000151148015611356575060408101516001145b80156113655750848160200151145b1561137857606001519250610eb8915050565b5061131c565b5060009695505050505050565b60008060006113aa868689610120015161217b9092919063ffffffff16565b905060006113b88787612261565b905084156113ff576113e1816113dc6113d58b61012001516122be565b85906122d3565b61232d565b93506113f8816113dc6113d58b61012001516123a0565b925061145d565b600061140f8961012001516123b5565b90506114328282851061142b576114268584612261565b6113dc565b600061232d565b94506114428961012001516123ca565b90506114598282851061142b576114268584612261565b9350505b505094509492505050565b808203828113156000831215146108f757600080fd5b6000808212156114985761149182610ccc565b9050610c26565b5080610c26565b6000610e096114b284633b9aca00611219565b83611267565b60006001600160ff1b038211156114ce57600080fd5b5090565b6000806114e560646108ed866028611219565b905084848113156114f35750835b818612156114fe5750805b60008413801561150d57508381135b156112e4575091949350505050565b6000610e0961152b8484611219565b633b9aca00611267565b818101828112156000831215146108f757600080fd5b6000806108f384602001516108ed86604001516112de6402540be4008861121990919063ffffffff16565b61157e614bdf565b60006115886123df565b6000858152602082815260408083208715158452825291829020825160a08101845281546001600160a01b038116825260ff600160a01b82048116151594830194909452600160b01b81048416600a0a9482019490945293945092916060830191600160a81b9091041660058111156115fd57fe5b81529154600160b81b900468ffffffffffffffffff16602090920191909152949350505050565b6000806108f760016120fb565b8260001080156116435750613fff8311155b61164c57600080fd5b818015611660575082846060015161ffff16145b1561166a5761182b565b6080840151600090815b6001600160701b03198216156117e55760f082901c613fff1686811480156116995750855b156116d157506080870180516001600160f01b0319861660109093029290921c919091176001600160701b03191690525061182b9050565b86811480156116de575085155b15611733576001600160f01b03198516199290921691600360fe1b8316611711576010836001600160701b031916901b92505b506001600160701b031991821660109091021c9190911716608085015261182b565b868111801561173f5750855b15611799576080888101516001600160f01b031960f08a901b88178116601086021c9690961795911b161561177357600080fd5b506001600160701b03199182166001919091016010021c9190911716608085015261182b565b86811180156117a6575085155b156117b4575050505061182b565b506001600160f01b0319821660108281029190911c93909317929190911b6001600160801b03191690600101611674565b846117f25750505061182b565b600981106117ff57600080fd5b6001600160f01b031960f087901b85171660109091021c919091176001600160701b0319166080860152505b50505050565b600061183b6111fe565b6001600160a01b0388166000908152602082815260408083208a845290915290209091506001600160571b0319861280159061187e57506001600160571b038613155b61188757600080fd5b600085121580156118a2575069ffffffffffffffffffff8513155b6118ab57600080fd5b836118eb5766ffffffffffffff8311156118c457600080fd5b805466ffffffffffffff60701b1916600160701b66ffffffffffffff851602178155611905565b8054600160501b900463ffffffff16841461190557600080fd5b8054600a9690960b6affffffffffffffffffffff16600160a81b026001600160a81b0369ffffffffffffffffffff90961669ffffffffffffffffffff1963ffffffff909616600160501b0263ffffffff60501b19909816979097179490941695909517939093169190911790925550505050565b611981614bdf565b610c23826001611576565b60008161199b575060006108f7565b60006119a6846123ec565b905060006119b38461147e565b9050816b019d971e4fe8401e74000001600160ff1b03816119d057fe5b058113156119dd57600080fd5b6b033b2e3c9fd0803ce80000006b019d971e4fe8401e74000000838302010560008513611a1257611a0d81610ccc565b611a14565b805b9695505050505050565b6000808080600587606001516005811115611a3557fe5b14611a47576370a0823160e01b611a50565b630ed1279f60e11b5b9050866020015115611a6c578651611a69903083612477565b92505b8651611a79908787612589565b866020015180611a8d575060008760800151115b15611aa2578651611a9f903083612477565b91505b608087015115611add576000611ac088611abb856114b8565b6125e1565b9050611acf88608001516114b8565b811315611adb57600080fd5b505b866020015115611b0357611af9611af48385612261565b6114b8565b9350505050610e09565b611af9856114b8565b6040516001600160a01b0383169082156108fc029083906000818181858888f19350505050158015611b42573d6000803e3d6000fd5b505050565b826001600160a01b031663a9059cbb83836040518363ffffffff1660e01b815260040180836001600160a01b0316815260200182815260200192505050600060405180830381600087803b158015611b9e57600080fd5b505af1158015611bb2573d6000803e3d6000fd5b50505050611b42612611565b80516060906000908414611bd157600080fd5b6000846001600160401b0381118015611be957600080fd5b50604051908082528060200260200182016040528015611c2357816020015b611c10614b9f565b815260200190600190039081611c085790505b5090506000805b86811015611cae576000838281518110611c4057fe5b60209081029190910101518a8152600160408201528751909150879083908110611c6657fe5b6020026020010151816060018181525050888883818110611c8357fe5b90506020020135816020018181525050600081606001511215611ca557600192505b50600101611c2a565b509097909650945050505050565b611cc4614ac4565b611ccd8361267e565b15611cea5760405162461bcd60e51b8152600401610144906153a4565b611cf383611d90565b15611d0857611d03848484611d9d565b611d35565b6000611d1a85856040015185516126d2565b9050611d268184611e65565b611d338486836000611ec3565b505b509092915050565b60005b8151811015611d8c57611d69828281518110611d5857fe5b602002602001015160600151610ccc565b828281518110611d7557fe5b602090810291909101015160600152600101611d40565b5050565b6060015161ffff16151590565b611da682611d90565b611daf57600080fd5b606082015161ffff1660005b8251811015611e5e576000838281518110611dd257fe5b60200260200101519050806060015160001415611def5750611e56565b80518314611dfc57600080fd5b6040810151600114611e0d57600080fd5b6000611e2f87858460200151896000015164ffffffffff168660600151612764565b90506000811215611e5357602086018051600160f81b176001600160f81b03191690525b50505b600101611dbb565b5050505050565b60005b8151811015611b42576000828281518110611e7f57fe5b60200260200101519050806060015160001415611e9c5750611ebb565b611eb98482600001518360200151846040015185606001516128ce565b505b600101611e68565b6000808080611ed286886129cb565b64ffffffffff81168c5292965090945092509050611eef8861267e565b15611ef957600080fd5b60ff8216604089015284611f1857600760ff83161115611f1857600080fd5b8315611f3b57602088018051600160f81b176001600160f81b0319169052611f4a565b602088018051607f60f91b1690525b611f578860800151612c0a565b6001600160701b031916608089015260005b83156111f35760f084901c818114611f8c57611f8c8a826001600160ff1b611631565b60109490941b939050611f69565b600080611fcb611fbb611fb08560200151610ccc565b60e086015190612114565b610120850151604001519061154b565b9150611fe78360e00151608001518460c0015160800151612c85565b9050915091565b600080600061200488602001518888600161138b565b915091506000806120498a6020015160e00151606001516120438c60c001516108ed60648f6020015160c001516040015161121990919063ffffffff16565b90611468565b905061205a60646108ed8584611219565b905060006120688486611468565b90506120748183611535565b925050506000612091828b6080015161149f90919063ffffffff16565b905061209e8187896114d2565b905060006120ae8b858785612c9b565b909250905060006120bf838561151c565b60808d01519091506120d19082611468565b60808d015260a08c01516120e59083611535565b60a08d0152509094505050505095945050505050565b6000620f424082601a81111561210d57fe5b0192915050565b6000806108f384602001516108ed86600001518661121990919063ffffffff16565b600080612141612d8b565b6001600160a01b03861660009081526020918252604080822087835283528082208683529092522054600f90810b900b9150509392505050565b600080600061218f86602001518686612d98565b91509150600061219e87612e60565b9050816121b7578651611af99061ffff16878388612e74565b60006121c286612f13565b905060006121d96121d286612f34565b83906122d3565b905060006121f18a6000015161ffff1683868b612e74565b905060008087600114156122165789915061220f8c60400151612fd8565b9050612245565b61222c61222560018a03612f34565b86906122d3565b91506122428c6000015161ffff1683888d612e74565b90505b612252828583868f613069565b98505050505050505050610e09565b6000828211156122b8576040805162461bcd60e51b815260206004820152601e60248201527f536166654d6174683a207375627472616374696f6e206f766572666c6f770000604482015290519081900360640190fd5b50900390565b606001516207a12060289190911c60ff160290565b600082820183811015610e09576040805162461bcd60e51b815260206004820152601b60248201527f536166654d6174683a206164646974696f6e206f766572666c6f770000000000604482015290519081900360640190fd5b60008061235061234b6301da9c0061234586886130cd565b90613126565b61318d565b905061236281621dcd6560491b6131ab565b9050612375612370826131fe565b613220565b905061238781621dcd6560491b613275565b90506000612394826132ab565b60070b95945050505050565b606001516207a12060389190911c60ff160290565b606001516207a12060209190911c60ff160290565b606001516207a12060409190911c60ff160290565b6000806108f760076120fb565b6000610c236123f96132b4565b5460405163d15e005360e01b81526001600160a01b039091169063d15e0053906124279086906004016152ba565b60206040518083038186803b15801561243f57600080fd5b505afa158015612453573d6000803e3d6000fd5b505050506040513d601f19601f82011682018060405250810190611af49190615268565b604080516001600160a01b0384811660248084019190915283518084039091018152604490920183526020820180516001600160e01b03166001600160e01b0319861617815292518251600094859485948a16939092909182918083835b602083106124f45780518252601f1990920191602091820191016124d5565b6001836020036101000a038019825116818451168082178552505050505050905001915050600060405180830381855afa9150503d8060008114612554576040519150601f19603f3d011682016040523d82523d6000602084013e612559565b606091505b50915091508161256857600080fd5b80806020019051602081101561257d57600080fd5b50519695505050505050565b604080516323b872dd60e01b81526001600160a01b038481166004830152306024830152604482018490529151918516916323b872dd9160648082019260009290919082900301818387803b158015611b9e57600080fd5b60006305f5e100836040015114156125fa5750806108f7565b6040830151610e09906108ed846305f5e100611219565b600061261b614c0e565b3d801561262f576020811461263857600080fd5b60019250612643565b60206000833e815192505b5081611d8c576040805162461bcd60e51b8152602060048201526005602482015264045524332360dc1b604482015290519081900360640190fd5b60004261268a83611d90565b156126ab57612698816132c1565b835164ffffffffff16109150610c269050565b825164ffffffffff16158015906126ca5750825164ffffffffff168110155b915050610c26565b6126da614b77565b6126e2614b77565b60ff84166126f1579050610e09565b6126fb85856132dd565b815260ff84166060820152826001600160401b038111801561271c57600080fd5b5060405190808252806020026020018201604052801561275657816020015b612743614b9f565b81526020019060019003908161273b5790505b506020820152949350505050565b6000806127718787613306565b9050600061277d612d8b565b6001600160a01b0389166000908152602082815260408083208b845282528083208a84529091528120919250806127b4888a61333b565b91509150806127c257600080fd5b6127cc8583613446565b1561285b5782546000906127e8908990600f90810b900b611535565b905060016001607f1b03198112801590612809575060016001607f1b038113155b61281257600080fd5b83546001600160801b0319166001600160801b03600f83900b16178455806128435761284086846000613476565b95505b61284e8c8c886134c1565b95506112e4945050505050565b86156128bf5760016001607f1b03198712801590612880575060016001607f1b038713155b61288957600080fd5b82546001600160801b0319166001600160801b03600f89900b161783556128b285836001613476565b94506128bf8b8b876134c1565b50949998505050505050505050565b84516128dd908585858561351b565b156128e757611e5e565b60408501511561291457600061290486602001518686868661351b565b905080156129125750611e5e565b505b61291d8261361f565b1561293057600081121561293057600080fd5b6001600160571b0319811280159061294f57506001600160571b038113155b61295857600080fd5b8460200151518560400151141561297c576129768560200151613635565b60208601525b6000856020015186604001518151811061299257fe5b6020908102919091018101519586528501939093526040808501929092526060840152600060a090930192909252500180516001019052565b6000808080808080805b895151811015612a5c5760008a6000015182815181106129f157fe5b60200260200101519050600380811115612a0757fe5b8160a001516003811115612a1757fe5b1415612a2257600080fd5b60028160a001516003811115612a3457fe5b14158015612a4457506060810151155b15612a5357612a538b836136ed565b506001016129d5565b5060005b895151811015612aff5760008a600001518281518110612a7c57fe5b6020026020010151905060026003811115612a9357fe5b8160a001516003811115612aa357fe5b1415612ab757608081015160009055612af6565b60018160a001516003811115612ac957fe5b1415612ae257608081015180612adf838261383c565b50505b612aee81868686613965565b919650945092505b50600101612a60565b5060608901516000612b0f6139c8565b6001600160a01b038b1660009081526020829052604081209192505b8c6020015151811015612bd95760008d602001518281518110612b4a57fe5b60200260200101519050806060015160001415612b675750612bd1565b60028160a001516003811115612b7957fe5b14158015612b97575060038160a001516003811115612b9457fe5b14155b612ba057600080fd5b612bac81898989613965565b91995097509550612bc981848760108110612bc357fe5b0161383c565b600185019450505b600101612b2b565b5060108311158015612bf0575064ffffffffff8411155b612bf957600080fd5b50939a929950975095509350505050565b6000807f7fff7fff7fff7fff7fff7fff7fff7fff7fff00000000000000000000000000008316815b6001600160701b0319821615612c7c57600160fe1b8281161415612c66576001600160f01b03198216811c92909217916010015b6010826001600160701b031916901b9150612c32565b50909392505050565b6000818313612c945781610e09565b5090919050565b60008080612ca9848761151c565b90506000612cb7858761151c565b602089015160608101516101209091015160400151919250600091612cdb916108c2565b905080821315612d0157612cef818861149f565b9550905080612cfe868961151c565b92505b6000612d178a602001518b60c00151868a6139d5565b60208c01516101200151604001519198509150612d4790612d38908561154b565b60208c01516060015190613a62565b60208b0151606001526000811215612d5e57600080fd5b60208a015160400151612d719082611535565b60208b015160400152869550935050505094509492505050565b6000806108f7600c6120fb565b60008060008511612dbb5760405162461bcd60e51b81526004016101449061534e565b6007851115612ddc5760405162461bcd60e51b8152600401610144906153fa565b6000612de784612f13565b905060015b868111612e3f576000612e08612e0183612f34565b84906122d3565b905086811415612e205750925060009150612e589050565b86811115612e365750925060019150612e589050565b50600101612dec565b5060405162461bcd60e51b815260040161014490615496565b935093915050565b6060015161012c60089190911c60ff160290565b600080612e7f613a7e565b905060006276a700612e9085612f13565b6000898152602085815260408083208b84528252808320949093018083529390522080549192509063ffffffff600160a01b8204811691600160c01b8104821691600160e01b9091041681612ef75760405162461bcd60e51b81526004016101449061531e565b612f048184848c8c613a8b565b9b9a5050505050505050505050565b60006276a700821015612f2557600080fd5b6276a700825b06909103919050565b60008160011415612f4957506276a700610c26565b8160021415612f5c575062ed4e00610c26565b8160031415612f7057506301da9c00610c26565b8160041415612f8457506303b53800610c26565b8160051415612f9857506309450c00610c26565b8160061415612fac575063128a1800610c26565b8160071415612fc057506325143000610c26565b60405162461bcd60e51b81526004016101449061537d565b80516000906001600160a01b0316612ff257506000610c26565b600082600001516001600160a01b031663dd30a6666040518163ffffffff1660e01b815260040160206040518083038186803b15801561303157600080fd5b505afa158015613045573d6000803e3d6000fd5b505050506040513d601f19601f82011682018060405250810190610e099190615268565b600081861061307757600080fd5b84821061308357600080fd5b8383106130af576130a8846130a28888036123458388038b88036130cd565b906122d3565b90506112e4565b6130a86130c68787036123458688038a87036130cd565b8590612261565b6000826130dc575060006108f7565b828202828482816130e957fe5b0414610e095760405162461bcd60e51b81526004018080602001828103825260218152602001806155746021913960400191505060405180910390fd5b600080821161317c576040805162461bcd60e51b815260206004820152601a60248201527f536166654d6174683a206469766973696f6e206279207a65726f000000000000604482015290519081900360640190fd5b81838161318557fe5b049392505050565b6000677fffffffffffffff8211156131a457600080fd5b5060401b90565b600081600f0b600014156131be57600080fd5b600082600f0b604085600f0b901b816131d357fe5b05905060016001607f1b031981128015906131f5575060016001607f1b038113155b610e0957600080fd5b6000600f82900b60016001607f1b0319141561321957600080fd5b5060000390565b6000600160461b82600f0b1261323557600080fd5b683fffffffffffffffff1982600f0b121561325257506000610c26565b610c23608083600f0b700171547652b82fe1777d0ffda0d23a7d1202901d613b1e565b6000600f83810b9083900b0260401d60016001607f1b031981128015906131f5575060016001607f1b03811315610e0957600080fd5b600f0b60401d90565b6000806108f760136120fb565b6000620151808210156132d357600080fd5b6201518082612f2b565b606060006132eb84846145d0565b905060018151116132fd5790506108f7565b610e09816146f1565b6000806133116148a9565b6001600160a01b038516600090815260209182526040808220868352909252205491505092915050565b6000806000613349856132c1565b90506201518084061561336357600080925092505061343f565b83811061337757600080925092505061343f565b6201518081850304605a81116133945792506001915061343f9050565b61016881116133d3576000620151806207e900840604820160591901905060068104605a01600682816133c357fe5b066000149450945050505061343f565b61087081116134035760006201518062278d00840604820161016719019050601e8104608701601e82816133c357fe5b611de28111613433576000620151806276a700840604820161086f19019050605a810460c301605a82816133c357fe5b61010060009350935050505b9250929050565b60006001821015801561345b57506101008211155b61346457600080fd5b50600019011b600160ff1b9081161490565b60006001831015801561348b57506101008311155b61349457600080fd5b81156134ad5750600160ff1b60001983011c8317610e09565b50600160ff1b60001983011c198316610e09565b60146134cc826148b6565b11156134ea5760405162461bcd60e51b8152600401610144906153d1565b60006134f46148a9565b6001600160a01b039094166000908152602094855260408082209482529390945250912055565b6000805b865181101561137e57600087828151811061353657fe5b60200260200101519050848160400151141580613554575080518714155b80613563575085816020015114155b1561356e5750613617565b60028160a00151600381111561358057fe5b1415801561359e575060038160a00151600381111561359b57fe5b14155b6135a757600080fd5b60608101516000906135b99086611535565b90506135c48661361f565b156135d75760008112156135d757600080fd5b6001600160571b031981128015906135f657506001600160571b038113155b6135ff57600080fd5b6060820152600160a090910181905291506112e49050565b60010161351f565b600060028210801590610c235750506008101590565b60606000825160001461364c57825160020261364f565b60015b90506000816001600160401b038111801561366957600080fd5b506040519080825280602002602001820160405280156136a357816020015b613690614b9f565b8152602001906001900390816136885790505b50905060005b84518110156136e5578481815181106136be57fe5b60200260200101518282815181106136d257fe5b60209081029190910101526001016136a9565b509392505050565b81515181106136fb57600080fd5b600082606001511161370c57600080fd5b60008260000151828151811061371e57fe5b602002602001015190506002600381111561373557fe5b8160a00151600381111561374557fe5b14158015613763575060038160a00151600381111561376057fe5b14155b61376c57600080fd5b606083018051600019019052600080805b8551518110156137df5760008660000151828151811061379957fe5b602002602001015190508281608001511180156137c6575060028160a0015160038111156137c357fe5b14155b156137d657806080015192508193505b5060010161377d565b50818414156137f8575050600260a09190910152611d8c565b60008560000151838151811061380a57fe5b602090810291909101015160808581018051918301805190915252600160a09182015260029401939093525050505050565b81511580159061384f57508151613fff10155b61385857600080fd5b816020015160001080156138755750602082015164ffffffffff10155b61387e57600080fd5b8160400151600010801561389757506040820151600810155b6138a057600080fd5b60608201516001600160571b0319138015906138c7575060608201516001600160571b0312155b6138d057600080fd5b8151815460208401516040850151606090950151600a0b6affffffffffffffffffffff16600160401b0272ffffffffffffffffffffff00000000000000001960ff909616600160381b0267ff000000000000001964ffffffffff909316620100000266ffffffffff00001961ffff90961661ffff19909516949094179490941692909217169190911792909216919091179055565b60008060008061397488614986565b905084158061398257508085115b1561398b578094505b868061399b575060008860600151125b965061ffff8616156139ac57600080fd5b50509451939560109390931c60f09490941b9390931793509150565b6000806108f7600d6120fb565b6000806000613a08866108ed6139f38a60c001518b60e001516149ed565b60c08b0151516108ed906112de8b6064611219565b90506000613a248289610100015161154b90919063ffffffff16565b90506000613a358960400151610ccc565b905080821315613a5357613a4d826108ed8884611219565b95508091505b50939793965092945050505050565b6000613a6e8383611468565b905060008112156108f757600080fd5b6000806108f7600a6120fb565b6000808311613a9957600080fd5b81861115613aa85750836112e4565b6000613ab48388612261565b905083811115613ac757859150506112e4565b6000613adb8561234584633b9aca006130cd565b90506000613aed633b9aca0083612261565b90506000613b10633b9aca00612345613b068b866130cd565b6130a28d886130cd565b9a9950505050505050505050565b6000600160461b82600f0b12613b3357600080fd5b683fffffffffffffffff1982600f0b1215613b5057506000610c26565b6001607f1b60006780000000000000008416600f0b1315613b825770016a09e667f3bcc908b2fb1366ea957d3e0260801c5b60008367400000000000000016600f0b1315613baf577001306fe0a31b7152de8d5a46305c85edec0260801c5b60008367200000000000000016600f0b1315613bdc577001172b83c7d517adcdf7c8c50eb14a791f0260801c5b60008367100000000000000016600f0b1315613c095770010b5586cf9890f6298b92b71842a983630260801c5b60008367080000000000000016600f0b1315613c36577001059b0d31585743ae7c548eb68ca417fd0260801c5b60008367040000000000000016600f0b1315613c6357700102c9a3e778060ee6f7caca4f7a29bde80260801c5b60008367020000000000000016600f0b1315613c905770010163da9fb33356d84a66ae336dcdfa3f0260801c5b600083600160381b16600f0b1315613cb957700100b1afa5abcbed6129ab13ec11dc95430260801c5b600083668000000000000016600f0b1315613ce55770010058c86da1c09ea1ff19d294cf2f679b0260801c5b600083664000000000000016600f0b1315613d11577001002c605e2e8cec506d21bfc89a23a00f0260801c5b600083662000000000000016600f0b1315613d3d57700100162f3904051fa128bca9c55c31e5df0260801c5b600083661000000000000016600f0b1315613d69577001000b175effdc76ba38e31671ca9397250260801c5b600083660800000000000016600f0b1315613d9557700100058ba01fb9f96d6cacd4b180917c3d0260801c5b600083660400000000000016600f0b1315613dc15770010002c5cc37da9491d0985c348c68e7b30260801c5b600083660200000000000016600f0b1315613ded577001000162e525ee054754457d59952920260260801c5b600083600160301b16600f0b1315613e165770010000b17255775c040618bf4a4ade83fc0260801c5b6000836580000000000016600f0b1315613e41577001000058b91b5bc9ae2eed81e9b7d4cfab0260801c5b6000836540000000000016600f0b1315613e6c57700100002c5c89d5ec6ca4d7c8acc017b7c90260801c5b6000836520000000000016600f0b1315613e975770010000162e43f4f831060e02d839a9d16d0260801c5b6000836510000000000016600f0b1315613ec257700100000b1721bcfc99d9f890ea069117630260801c5b6000836508000000000016600f0b1315613eed5770010000058b90cf1e6d97f9ca14dbcc16280260801c5b6000836504000000000016600f0b1315613f18577001000002c5c863b73f016468f6bac5ca2b0260801c5b6000836502000000000016600f0b1315613f4357700100000162e430e5a18f6119e3c02282a50260801c5b6000836501000000000016600f0b1315613f6e577001000000b1721835514b86e6d96efd1bfe0260801c5b60008364800000000016600f0b1315613f9857700100000058b90c0b48c6be5df846c5b2ef0260801c5b60008364400000000016600f0b1315613fc25770010000002c5c8601cc6b9e94213c72737a0260801c5b60008364200000000016600f0b1315613fec577001000000162e42fff037df38aa2b219f060260801c5b60008364100000000016600f0b13156140165770010000000b17217fba9c739aa5819f44f90260801c5b60008364080000000016600f0b1315614040577001000000058b90bfcdee5acd3c1cedc8230260801c5b60008364040000000016600f0b131561406a57700100000002c5c85fe31f35a6a30da1be500260801c5b60008364020000000016600f0b13156140945770010000000162e42ff0999ce3541b9fffcf0260801c5b60008364010000000016600f0b13156140be57700100000000b17217f80f4ef5aadda455540260801c5b600083638000000016600f0b13156140e75770010000000058b90bfbf8479bd5a81b51ad0260801c5b600083634000000016600f0b1315614110577001000000002c5c85fdf84bd62ae30a74cc0260801c5b600083632000000016600f0b131561413957700100000000162e42fefb2fed257559bdaa0260801c5b600083631000000016600f0b1315614162577001000000000b17217f7d5a7716bba4a9ae0260801c5b600083630800000016600f0b131561418b57700100000000058b90bfbe9ddbac5e109cce0260801c5b600083630400000016600f0b13156141b45770010000000002c5c85fdf4b15de6f17eb0d0260801c5b600083630200000016600f0b13156141dd577001000000000162e42fefa494f1478fde050260801c5b600083630100000016600f0b13156142065770010000000000b17217f7d20cf927c8e94c0260801c5b6000836280000016600f0b131561422e577001000000000058b90bfbe8f71cb4e4b33d0260801c5b6000836240000016600f0b131561425657700100000000002c5c85fdf477b662b269450260801c5b6000836220000016600f0b131561427e5770010000000000162e42fefa3ae53369388c0260801c5b6000836210000016600f0b13156142a657700100000000000b17217f7d1d351a389d400260801c5b6000836208000016600f0b13156142ce5770010000000000058b90bfbe8e8b2d3d4ede0260801c5b6000836204000016600f0b13156142f6577001000000000002c5c85fdf4741bea6e77e0260801c5b6000836202000016600f0b131561431e57700100000000000162e42fefa39fe95583c20260801c5b6000836201000016600f0b1315614346577001000000000000b17217f7d1cfb72b45e10260801c5b60008361800016600f0b131561436d57700100000000000058b90bfbe8e7cc35c3f00260801c5b60008361400016600f0b13156143945770010000000000002c5c85fdf473e242ea380260801c5b60008361200016600f0b13156143bb577001000000000000162e42fefa39f02b772c0260801c5b60008361100016600f0b13156143e25770010000000000000b17217f7d1cf7d83c1a0260801c5b60008361080016600f0b1315614409577001000000000000058b90bfbe8e7bdcbe2e0260801c5b60008361040016600f0b131561443057700100000000000002c5c85fdf473dea871f0260801c5b60008361020016600f0b13156144575770010000000000000162e42fefa39ef44d910260801c5b60008361010016600f0b131561447e57700100000000000000b17217f7d1cf79e9490260801c5b600083608016600f0b13156144a45770010000000000000058b90bfbe8e7bce5440260801c5b600083604016600f0b13156144ca577001000000000000002c5c85fdf473de6eca0260801c5b600083602016600f0b13156144f057700100000000000000162e42fefa39ef366f0260801c5b600083601016600f0b1315614516577001000000000000000b17217f7d1cf79afa0260801c5b600083600816600f0b131561453c57700100000000000000058b90bfbe8e7bcd6d0260801c5b600083600416600f0b13156145625770010000000000000002c5c85fdf473de6b20260801c5b600083600216600f0b1315614588577001000000000000000162e42fefa39ef3580260801c5b600083600116600f0b13156145ae5770010000000000000000b17217f7d1cf79ab0260801c5b600f83810b60401d603f03900b1c60016001607f1b03811115610c2357600080fd5b606060108260ff1611156145e357600080fd5b60006145ed6139c8565b6001600160a01b038516600090815260208290526040812091925060ff85166001600160401b038111801561462157600080fd5b5060405190808252806020026020018201604052801561465b57816020015b614648614b9f565b8152602001906001900390816146405790505b50905060005b8560ff168110156146e757600083826010811061467a57fe5b019050600083838151811061468b57fe5b602090810291909101810151835461ffff8116825264ffffffffff620100008204169282019290925260ff600160381b8304166040820152600160401b909104600a90810b900b60608201526080019190915250600101614661565b5095945050505050565b80516000816001600160401b038111801561470b57600080fd5b50604051908082528060200260200182016040528015614735578160200160208202803683370190505b50905060005b8281101561479257600084828151811061475157fe5b60200260200101519050614772816000015182602001518360400151614a12565b83838151811061477e57fe5b60209081029190910101525060010161473b565b5060015b8281101561182b57805b6000811180156147d857508281815181106147b757fe5b60200260200101518360018303815181106147ce57fe5b6020026020010151115b156148a0578281815181106147e957fe5b602002602001015183600183038151811061480057fe5b602002602001015184600184038151811061481757fe5b6020026020010185848151811061482a57fe5b602002602001018281525082815250505084818151811061484757fe5b602002602001015185600183038151811061485e57fe5b602002602001015186600184038151811061487557fe5b6020026020010187848151811061488857fe5b602090810291909101019190915252600019016147a0565b50600101614796565b6000806108f7600b6120fb565b600181901c7f5555555555555555555555555555555555555555555555555555555555555555908116911601600281901c7f3333333333333333333333333333333333333333333333333333333333333333908116911601600481901c7f07070707070707070707070707070707070707070707070707070707070707079190911601600881901c7e0f000f000f000f000f000f000f000f000f000f000f000f000f000f000f000f908116911601601081901c01602081901c01604081901c01608081901c60ff90811691160190565b60008082604001511180156149a057506040820151600810155b6149a957600080fd5b60408201516002106149c057506020810151610c26565b60006149d26001846040015103612f34565b6020840151909150610e09906276a700906130a29084612261565b6000610e0982602001516108ed8460000151866020015161121990919063ffffffff16565b6000613fff841115614a2357600080fd5b64ffffffffff831115614a3557600080fd5b6008821115614a4357600080fd5b5067ffff000000000000603084901b1665ffffffffff00600884901b161760ff8216179392505050565b604051806101000160405280614a81614ac4565b8152602001614a8e614af2565b8152602001614a9b614b77565b815260200160008152602001600081526020016000815260200160008152602001606081525090565b6040805160a08101825260008082526020820181905291810182905260608101829052608081019190915290565b60405180610160016040528060006001600160a01b031681526020016000815260200160008152602001600081526020016000815260200160006001600160d01b0319168152602001614b43614c2c565b8152602001614b50614c2c565b8152602001614b5d614c5b565b8152602001614b6a614c85565b8152600060209091015290565b6040518060800160405280606081526020016060815260200160008152602001600081525090565b6040518060c00160405280600081526020016000815260200160008152602001600081526020016000815260200160006003811115614bda57fe5b905290565b6040805160a0810182526000808252602082018190529181018290529060608201908152602001600081525090565b60405180602001604052806001906020820280368337509192915050565b6040518060a0016040528060008152602001600081526020016000815260200160008152602001600081525090565b604051806060016040528060006001600160a01b0316815260200160008152602001600081525090565b6040805160808101825260008082526020820152908101614b6a614c5b565b8051610c268161554b565b600082601f830112614cbf578081fd5b815160206001600160401b0380831115614cd557fe5b614ce28283850201615528565b8381528281019086840160c0808702890186018a1015614d00578788fd5b875b87811015614d815781838c031215614d18578889fd5b604080518381018181108982111715614d2d57fe5b82528451815288850151898201528482015191810191909152606080850151908201526080808501519082015260a090614d68828601614e29565b9181019190915285529386019391810191600101614d02565b50919998505050505050505050565b60008083601f840112614da1578182fd5b5081356001600160401b03811115614db7578182fd5b602083019150836020808302850101111561343f57600080fd5b80518015158114610c2657600080fd5b80516001600160701b031981168114610c2657600080fd5b80516001600160f81b031981168114610c2657600080fd5b80516001600160d01b031981168114610c2657600080fd5b805160048110610c2657600080fd5b600060608284031215614e49578081fd5b604051606081018181106001600160401b0382111715614e6557fe5b80604052508091508251614e788161554b565b8082525060208301516020820152604083015160408201525092915050565b600060c08284031215614ea8578081fd5b604051608081018181106001600160401b0382111715614ec457fe5b80604052508091508251614ed781615563565b815260208381015190820152614ef08460408501614e38565b604082015260a083015160608201525092915050565b600060a08284031215614f17578081fd5b60405160a081018181106001600160401b0382111715614f3357fe5b806040525080915082518152602083015160208201526040830151604082015260608301516060820152608083015160808201525092915050565b60006103408284031215614f80578081fd5b610160614f8c81615528565b9150614f9783614ca4565b825260208301516020830152604083015160408301526060830151606083015260808301516080830152614fcd60a08401614e11565b60a0830152614fdf8460c08501614f06565b60c0830152614ff084828501614f06565b60e083015250615004836102008401614e38565b610100820152615018836102608401614e97565b61012082015261502b6103208301614dd1565b61014082015292915050565b8051610c2681615563565b805160ff81168114610c2657600080fd5b6000806000806000806080878903121561506b578182fd5b86356150768161554b565b9550602087013561508681615563565b945060408701356001600160401b03808211156150a1578384fd5b6150ad8a838b01614d90565b909650945060608901359150808211156150c5578384fd5b506150d289828a01614d90565b979a9699509497509295939492505050565b600080600080600080600060a0888a0312156150fe578485fd5b87356151098161554b565b9650602088013561511981615563565b9550604088013561512981615563565b945060608801356001600160401b0380821115615144578283fd5b6151508b838c01614d90565b909650945060808a0135915080821115615168578283fd5b506151758a828b01614d90565b989b979a50959850939692959293505050565b600080600083850361040081121561519e578182fd5b60a08112156151ab578182fd5b5060405160a081016001600160401b0382821081831117156151c957fe5b816040528651915064ffffffffff821682146151e3578384fd5b8183526151f260208801614df9565b602084015261520360408801615042565b604084015261521460608801615037565b606084015261522560808801614de1565b608084015282955061523a8860a08901614f6e565b94506103e0870151925080831115615250578384fd5b505061525e86828701614caf565b9150509250925092565b600060208284031215615279578081fd5b5051919050565b6000815180845260208085019450808401835b838110156152af57815187529582019590820190600101615293565b509495945050505050565b6001600160a01b0391909116815260200190565b6001600160a01b0393909316835261ffff918216602084015216604082015260600190565b6000604082526153066040830185615280565b90508260208301529392505050565b90815260200190565b60208082526016908201527513585c9ad95d081b9bdd081a5b9a5d1a585b1a5e995960521b604082015260600190565b60208082526015908201527410d1ce881b9bc81b585c9ad95d1cc81b1a5cdd1959605a1b604082015260600190565b6020808252600d908201526c092dcecc2d8d2c840d2dcc8caf609b1b604082015260600190565b6020808252601390820152724163636f756e74206d75737420736574746c6560681b604082015260600190565b6020808252600f908201526e4f766572206d61782061737365747360881b604082015260600190565b60208082526016908201527510d1ce881b585c9ad95d081a5b99195e08189bdd5b9960521b604082015260600190565b6020808252600e908201526d1499595b9d1c985b9d0818d85b1b60921b604082015260600190565b60208082526008908201526712185cc81919589d60c21b604082015260600190565b60208082526008908201526709ccace4086c2e6d60c31b604082015260600190565b60208082526013908201527210d1ce881b9bc81b585c9ad95d08199bdd5b99606a1b604082015260600190565b61ffff8781168252861660208201526040810185905260a060608201819052810183905260006001600160fb1b038411156154fc578081fd5b60208402808660c0850137808301905060c0810182815260c0848303016080850152613b108186615280565b6040518181016001600160401b038111828210171561554357fe5b604052919050565b6001600160a01b038116811461556057600080fd5b50565b61ffff8116811461556057600080fdfe536166654d6174683a206d756c7469706c69636174696f6e206f766572666c6f77a2646970667358221220429b36726c8100e39d2aa4f0e50fc049236b4401a55ca8a3dc7143adbf8593e764736f6c63430007060033","bytecodeSha1":"c40ea23ab5189a979a555a3782527ac38a3c92b2","compiler":{"evm_version":"istanbul","optimizer":{"enabled":true,"runs":200},"version":"0.7.6+commit.7338295f"},"contractName":"LiquidatefCashAction","deployedBytecode":"608060405234801561001057600080fd5b50600436106100885760003560e01c80638da5cb5b1161005b5780638da5cb5b146100e7578063c4c96dae146100ef578063e816469d146100f7578063fa37e3951461010a57610088565b80630fb281d91461008d57806324a3d622146100b75780637fdebbf4146100cc57806382463367146100df575b600080fd5b6100a061009b366004615053565b61011d565b6040516100ae9291906152f3565b60405180910390f35b6100bf610185565b6040516100ae91906152ba565b6100a06100da366004615053565b610194565b6100bf610262565b6100bf610271565b6100bf610288565b6100a06101053660046150e4565b6102a0565b6100a06101183660046150e4565b610370565b606060006002600a54141561014d5760405162461bcd60e51b81526004016101449061542a565b60405180910390fd5b6002600a554260006101648a8a8a8a8a8a886103d1565b60e081015160a0909101516001600a55909b909a5098505050505050505050565b6002546001600160a01b031681565b606060006002600a5414156101bb5760405162461bcd60e51b81526004016101449061542a565b6002600a554260006101d28a8a8a8a8a8a886103d1565b90506101e38a338b8c8c8c8761049b565b5050336001600160a01b03168a6001600160a01b03167f1f20e4ccba6c78861ee4c638fecd0b6a53b1232adb96ca3a0065b9bb12d6214d8b8c8560a001518d8d8860e0015160405161023a969594939291906154c3565b60405180910390a360e081015160a0909101516001600a55909a909950975050505050505050565b6001546001600160a01b031681565b60005464010000000090046001600160a01b031681565b73__$841fddfe32830bb6dbc3a02d7f16c53722$__90565b606060006002600a5414156102c75760405162461bcd60e51b81526004016101449061542a565b6002600a554260006102df8b8b8b8b8b8b8b89610620565b90506102f08b338c8c8c8c8761049b565b5050336001600160a01b03168b6001600160a01b03167f1f20e4ccba6c78861ee4c638fecd0b6a53b1232adb96ca3a0065b9bb12d6214d8c8c8560a001518d8d8860e00151604051610347969594939291906154c3565b60405180910390a360e081015160a0909101516001600a55909b909a5098505050505050505050565b606060006002600a5414156103975760405162461bcd60e51b81526004016101449061542a565b6002600a554260006103af8b8b8b8b8b8b8b89610620565b60e081015160a0909101516001600a55909c909b509950505050505050505050565b6103d9614a6d565b8483146103e557600080fd5b6103ed614a6d565b6103f9898960006106ba565b60408401526020830152815260006104158a61ffff8b16610816565b5050506020830151610100015190915061042f90826108c2565b6060830152866001600160401b038111801561044a57600080fd5b50604051908082528060200260200182016040528015610474578160200160208202803683370190505b5060e083015261048e8a61ffff8b168a8a8a8a888b6108fd565b5098975050505050505050565b60606000806104ad8861ffff16610c10565b905060006104ba8a610c2b565b60a086015160208401519192509080156104d45750600081135b1561051e5760208201516001600160f81b031916156105055760405162461bcd60e51b815260040161014490615452565b6105198b838c61051485610ccc565b610cda565b61053c565b61053a8b61ffff8c166105318685610dd1565b86929190610e10565b505b61054c8c87600001518c84610cda565b60006105618d8d858d61ffff168d8d8d610ec0565b9350905061056f838d610f4e565b865161057b908e610f4e565b808015610595575060208301516001600160f81b03191615155b1561060257604051636ccc642f60e01b815273__$841fddfe32830bb6dbc3a02d7f16c53722$__90636ccc642f906105d1908f906004016152ba565b60006040518083038186803b1580156105e957600080fd5b505af41580156105fd573d6000803e3d6000fd5b505050505b8660e001518760a00151955095505050505097509795505050505050565b610628614a6d565b84831461063457600080fd5b61063c614a6d565b6106478a8a8a6106ba565b604084015260208301528152856001600160401b038111801561066957600080fd5b50604051908082528060200260200182016040528015610693578160200160208202803683370190505b5060e08201526106ad8a61ffff8a1689898989878a611052565b9998505050505050505050565b6106c2614ac4565b6106ca614af2565b6106d2614b77565b336001600160a01b03871614156106e857600080fd5b61ffff85166106f657600080fd5b8461ffff168461ffff16141561070b57600080fd5b600080600073__$841fddfe32830bb6dbc3a02d7f16c53722$__63451d958f8a8a8a6040518463ffffffff1660e01b815260040161074b939291906152ce565b60006040518083038186803b15801561076357600080fd5b505af4158015610777573d6000803e3d6000fd5b505050506040513d6000823e601f3d908101601f1916820160405261079f9190810190615188565b919450925090506107b0838a610f4e565b6040805160808101825282815281516000808252602082810190945292820190836107f1565b6107de614b9f565b8152602001906001900390816107d65790505b5081526000602082015292516040909301929092525091989097509095509350505050565b60008060008060006108266111fe565b6001600160a01b0388166000908152602082815260408083208a84529091529020805469ffffffffffffffffffff81169650600160501b900463ffffffff169450909150831561089257805461088b90600160701b900466ffffffffffffff1661120b565b92506108a7565b8054600160701b900466ffffffffffffff1692505b54600160a81b9004600a90810b900b97939650919450925050565b6000806108f384604001516108ed6402540be4006108ed87896020015161121990919063ffffffff16565b90611267565b9150505b92915050565b60208201516040015161090f57600080fd5b610932826020015160400151836020015160200151846020015160c00151611298565b608083015260005b85811015610be557801561097b5786868281811061095457fe5b9050602002013587876001840381811061096a57fe5b905060200201351161097b57600080fd5b600061099b8a858b8b8b8781811061098f57fe5b905060200201356112ed565b905060008112156109b8576000846060015112156109b857600080fd5b806109c35750610bdd565b6000806109eb86602001518b8b878181106109da57fe5b90506020020135876000871361138b565b9092509050610a10610a05610a008385611468565b61147e565b60808801519061149f565b8660e001518581518110610a2057fe5b602002602001018181525050610a708660e001518581518110610a3f57fe5b6020026020010151610a508561147e565b610a6b8b8b89818110610a5f57fe5b905060200201356114b8565b6114d2565b8660e001518581518110610a8057fe5b6020026020010181815250506000610ab8828860e001518781518110610aa257fe5b602002602001015161151c90919063ffffffff16565b90506000841215610b6b578660600151811315610b2357610b01816108ed89606001518a60e001518981518110610aeb57fe5b602002602001015161121990919063ffffffff16565b8760e001518681518110610b1157fe5b60209081029190910101525060608601515b610b438760e001518681518110610b3657fe5b6020026020010151610ccc565b8760e001518681518110610b5357fe5b602002602001018181525050610b6881610ccc565b90505b60a0870151610b7a9082611535565b60a08801526060870151610b8e9082611535565b6060880152610bc1610bb6610a00610ba68587611468565b8a60e001518981518110610aa257fe5b608089015190611468565b60808801819052600012610bd85750505050610be5565b505050505b60010161093a565b5060a082015160208301516101000151610bfe9161154b565b60a09092019190915250505050505050565b610c18614bdf565b610c23826000611576565b90505b919050565b610c33614ac4565b6000610c3d611624565b6001600160a01b039390931660009081526020938452604090819020815160a081018352905464ffffffffff8116825265010000000000810460f81b6001600160f81b03191695820195909552600160301b850460ff1691810191909152600160381b840461ffff166060820152600160481b90930460701b6001600160701b03191660808401525090919050565b6000610c2360001983611219565b600080600080610cee888761ffff16610816565b929650909450925090506000610d048587611535565b90506000811215610d485760008613610d2f5760405162461bcd60e51b815260040161014490615474565b602088018051600160f91b176001600160f81b03191690525b600081151580610d5757508415155b9050610d6d8961ffff8a1683600160fe1b611631565b8761ffff168a6001600160a01b03167f5441e4a5fac93a951d782e6f1cdb82e95c8fc58561a013953d17e395c5e69b4b89604051610dab9190615315565b60405180910390a3610dc58a8961ffff1684888888611831565b50505050505050505050565b60006305f5e10083604001511415610dea5750806108f7565b610e096305f5e1006108ed85604001518561121990919063ffffffff16565b9392505050565b80600585606001516005811115610e2357fe5b1415610e48576000610e3484611979565b9050610e4481600001518461198c565b9250505b6000821315610e74576000610e5e868685611a1e565b9050856020015115610e6e578091505b50610eb8565b600385606001516005811115610e8657fe5b1415610ea357610e9e84610e9984610ccc565b611b0c565b610eb8565b8451610eb89085610eb385610ccc565b611b47565b949350505050565b6000610eca614ac4565b600080610edd8888888860e00151611bbe565b91509150610eec8a8a84611cbc565b9850610ef782611d3d565b8451610f0290611d90565b15610f1b57610f168b866000015184611d9d565b610f3e565b6040850151610f2a9083611e65565b60408501518551610f3e918d906000611ec3565b9a97995096975050505050505050565b6000610f58611624565b6001600160a01b03831660008181526020838152604080832088518154938a0151838b015160608c015160808d015160701c600160481b027affffffffffffffffffffffffffffffffffff0000000000000000001961ffff909216600160381b0268ffff000000000000001960ff94909416600160301b0266ff0000000000001960f89690961c650100000000000265ff00000000001964ffffffffff90981664ffffffffff19909b169a909a1796909616989098179390931693909317169490941716929092179091555192935090917f6bd4b121bca854a191536a2ca891155c42ee2fb23f307fb34e8bc65cfcb5412e9190a2505050565b60008260200151604001511261106757600080fd5b60008260200151606001511361107c57600080fd5b846001600160401b038111801561109257600080fd5b506040519080825280602002602001820160405280156110bc578160200160208202803683370190505b5060e083015260208201516110d090611f9a565b60c08401526080830181905260208301516101200151604001516110f3916108c2565b608083015260005b858110156111f357801561113c5786868281811061111557fe5b9050602002013587876001840381811061112b57fe5b905060200201351161113c57600080fd5b60006111508a858b8b8b8781811061098f57fe5b90508061115d57506111eb565b6000811361116a57600080fd5b6111978489898581811061117a57fe5b90506020020135856111918a8a88818110610a5f57fe5b85611fee565b8460e0015183815181106111a757fe5b602002602001018181525050600084608001511315806111cd5750602084015160600151155b806111de5750602084015160400151155b156111e957506111f3565b505b6001016110fb565b505050505050505050565b6000806108f760066120fb565b600881901c60ff9091161b90565b8181026000198314156112495781158061123b57508282828161123857fe5b05145b61124457600080fd5b6108f7565b82158061125e57508183828161125b57fe5b05145b6108f757600080fd5b60008160001914801561127d5750600160ff1b83145b1561128757600080fd5b81838161129057fe5b059392505050565b600080600085136112ad5782604001516112b3565b82606001515b9050600081136112c257600080fd5b6112e4816108ed60646112de6112d789610ccc565b8890612114565b90611219565b95945050505050565b82516060015160009061ffff168314156113135761130c858484612136565b9050610eb8565b60408401515180515b6000198101901561137e57600082828151811061133557fe5b60200260200101519050858160000151148015611356575060408101516001145b80156113655750848160200151145b1561137857606001519250610eb8915050565b5061131c565b5060009695505050505050565b60008060006113aa868689610120015161217b9092919063ffffffff16565b905060006113b88787612261565b905084156113ff576113e1816113dc6113d58b61012001516122be565b85906122d3565b61232d565b93506113f8816113dc6113d58b61012001516123a0565b925061145d565b600061140f8961012001516123b5565b90506114328282851061142b576114268584612261565b6113dc565b600061232d565b94506114428961012001516123ca565b90506114598282851061142b576114268584612261565b9350505b505094509492505050565b808203828113156000831215146108f757600080fd5b6000808212156114985761149182610ccc565b9050610c26565b5080610c26565b6000610e096114b284633b9aca00611219565b83611267565b60006001600160ff1b038211156114ce57600080fd5b5090565b6000806114e560646108ed866028611219565b905084848113156114f35750835b818612156114fe5750805b60008413801561150d57508381135b156112e4575091949350505050565b6000610e0961152b8484611219565b633b9aca00611267565b818101828112156000831215146108f757600080fd5b6000806108f384602001516108ed86604001516112de6402540be4008861121990919063ffffffff16565b61157e614bdf565b60006115886123df565b6000858152602082815260408083208715158452825291829020825160a08101845281546001600160a01b038116825260ff600160a01b82048116151594830194909452600160b01b81048416600a0a9482019490945293945092916060830191600160a81b9091041660058111156115fd57fe5b81529154600160b81b900468ffffffffffffffffff16602090920191909152949350505050565b6000806108f760016120fb565b8260001080156116435750613fff8311155b61164c57600080fd5b818015611660575082846060015161ffff16145b1561166a5761182b565b6080840151600090815b6001600160701b03198216156117e55760f082901c613fff1686811480156116995750855b156116d157506080870180516001600160f01b0319861660109093029290921c919091176001600160701b03191690525061182b9050565b86811480156116de575085155b15611733576001600160f01b03198516199290921691600360fe1b8316611711576010836001600160701b031916901b92505b506001600160701b031991821660109091021c9190911716608085015261182b565b868111801561173f5750855b15611799576080888101516001600160f01b031960f08a901b88178116601086021c9690961795911b161561177357600080fd5b506001600160701b03199182166001919091016010021c9190911716608085015261182b565b86811180156117a6575085155b156117b4575050505061182b565b506001600160f01b0319821660108281029190911c93909317929190911b6001600160801b03191690600101611674565b846117f25750505061182b565b600981106117ff57600080fd5b6001600160f01b031960f087901b85171660109091021c919091176001600160701b0319166080860152505b50505050565b600061183b6111fe565b6001600160a01b0388166000908152602082815260408083208a845290915290209091506001600160571b0319861280159061187e57506001600160571b038613155b61188757600080fd5b600085121580156118a2575069ffffffffffffffffffff8513155b6118ab57600080fd5b836118eb5766ffffffffffffff8311156118c457600080fd5b805466ffffffffffffff60701b1916600160701b66ffffffffffffff851602178155611905565b8054600160501b900463ffffffff16841461190557600080fd5b8054600a9690960b6affffffffffffffffffffff16600160a81b026001600160a81b0369ffffffffffffffffffff90961669ffffffffffffffffffff1963ffffffff909616600160501b0263ffffffff60501b19909816979097179490941695909517939093169190911790925550505050565b611981614bdf565b610c23826001611576565b60008161199b575060006108f7565b60006119a6846123ec565b905060006119b38461147e565b9050816b019d971e4fe8401e74000001600160ff1b03816119d057fe5b058113156119dd57600080fd5b6b033b2e3c9fd0803ce80000006b019d971e4fe8401e74000000838302010560008513611a1257611a0d81610ccc565b611a14565b805b9695505050505050565b6000808080600587606001516005811115611a3557fe5b14611a47576370a0823160e01b611a50565b630ed1279f60e11b5b9050866020015115611a6c578651611a69903083612477565b92505b8651611a79908787612589565b866020015180611a8d575060008760800151115b15611aa2578651611a9f903083612477565b91505b608087015115611add576000611ac088611abb856114b8565b6125e1565b9050611acf88608001516114b8565b811315611adb57600080fd5b505b866020015115611b0357611af9611af48385612261565b6114b8565b9350505050610e09565b611af9856114b8565b6040516001600160a01b0383169082156108fc029083906000818181858888f19350505050158015611b42573d6000803e3d6000fd5b505050565b826001600160a01b031663a9059cbb83836040518363ffffffff1660e01b815260040180836001600160a01b0316815260200182815260200192505050600060405180830381600087803b158015611b9e57600080fd5b505af1158015611bb2573d6000803e3d6000fd5b50505050611b42612611565b80516060906000908414611bd157600080fd5b6000846001600160401b0381118015611be957600080fd5b50604051908082528060200260200182016040528015611c2357816020015b611c10614b9f565b815260200190600190039081611c085790505b5090506000805b86811015611cae576000838281518110611c4057fe5b60209081029190910101518a8152600160408201528751909150879083908110611c6657fe5b6020026020010151816060018181525050888883818110611c8357fe5b90506020020135816020018181525050600081606001511215611ca557600192505b50600101611c2a565b509097909650945050505050565b611cc4614ac4565b611ccd8361267e565b15611cea5760405162461bcd60e51b8152600401610144906153a4565b611cf383611d90565b15611d0857611d03848484611d9d565b611d35565b6000611d1a85856040015185516126d2565b9050611d268184611e65565b611d338486836000611ec3565b505b509092915050565b60005b8151811015611d8c57611d69828281518110611d5857fe5b602002602001015160600151610ccc565b828281518110611d7557fe5b602090810291909101015160600152600101611d40565b5050565b6060015161ffff16151590565b611da682611d90565b611daf57600080fd5b606082015161ffff1660005b8251811015611e5e576000838281518110611dd257fe5b60200260200101519050806060015160001415611def5750611e56565b80518314611dfc57600080fd5b6040810151600114611e0d57600080fd5b6000611e2f87858460200151896000015164ffffffffff168660600151612764565b90506000811215611e5357602086018051600160f81b176001600160f81b03191690525b50505b600101611dbb565b5050505050565b60005b8151811015611b42576000828281518110611e7f57fe5b60200260200101519050806060015160001415611e9c5750611ebb565b611eb98482600001518360200151846040015185606001516128ce565b505b600101611e68565b6000808080611ed286886129cb565b64ffffffffff81168c5292965090945092509050611eef8861267e565b15611ef957600080fd5b60ff8216604089015284611f1857600760ff83161115611f1857600080fd5b8315611f3b57602088018051600160f81b176001600160f81b0319169052611f4a565b602088018051607f60f91b1690525b611f578860800151612c0a565b6001600160701b031916608089015260005b83156111f35760f084901c818114611f8c57611f8c8a826001600160ff1b611631565b60109490941b939050611f69565b600080611fcb611fbb611fb08560200151610ccc565b60e086015190612114565b610120850151604001519061154b565b9150611fe78360e00151608001518460c0015160800151612c85565b9050915091565b600080600061200488602001518888600161138b565b915091506000806120498a6020015160e00151606001516120438c60c001516108ed60648f6020015160c001516040015161121990919063ffffffff16565b90611468565b905061205a60646108ed8584611219565b905060006120688486611468565b90506120748183611535565b925050506000612091828b6080015161149f90919063ffffffff16565b905061209e8187896114d2565b905060006120ae8b858785612c9b565b909250905060006120bf838561151c565b60808d01519091506120d19082611468565b60808d015260a08c01516120e59083611535565b60a08d0152509094505050505095945050505050565b6000620f424082601a81111561210d57fe5b0192915050565b6000806108f384602001516108ed86600001518661121990919063ffffffff16565b600080612141612d8b565b6001600160a01b03861660009081526020918252604080822087835283528082208683529092522054600f90810b900b9150509392505050565b600080600061218f86602001518686612d98565b91509150600061219e87612e60565b9050816121b7578651611af99061ffff16878388612e74565b60006121c286612f13565b905060006121d96121d286612f34565b83906122d3565b905060006121f18a6000015161ffff1683868b612e74565b905060008087600114156122165789915061220f8c60400151612fd8565b9050612245565b61222c61222560018a03612f34565b86906122d3565b91506122428c6000015161ffff1683888d612e74565b90505b612252828583868f613069565b98505050505050505050610e09565b6000828211156122b8576040805162461bcd60e51b815260206004820152601e60248201527f536166654d6174683a207375627472616374696f6e206f766572666c6f770000604482015290519081900360640190fd5b50900390565b606001516207a12060289190911c60ff160290565b600082820183811015610e09576040805162461bcd60e51b815260206004820152601b60248201527f536166654d6174683a206164646974696f6e206f766572666c6f770000000000604482015290519081900360640190fd5b60008061235061234b6301da9c0061234586886130cd565b90613126565b61318d565b905061236281621dcd6560491b6131ab565b9050612375612370826131fe565b613220565b905061238781621dcd6560491b613275565b90506000612394826132ab565b60070b95945050505050565b606001516207a12060389190911c60ff160290565b606001516207a12060209190911c60ff160290565b606001516207a12060409190911c60ff160290565b6000806108f760076120fb565b6000610c236123f96132b4565b5460405163d15e005360e01b81526001600160a01b039091169063d15e0053906124279086906004016152ba565b60206040518083038186803b15801561243f57600080fd5b505afa158015612453573d6000803e3d6000fd5b505050506040513d601f19601f82011682018060405250810190611af49190615268565b604080516001600160a01b0384811660248084019190915283518084039091018152604490920183526020820180516001600160e01b03166001600160e01b0319861617815292518251600094859485948a16939092909182918083835b602083106124f45780518252601f1990920191602091820191016124d5565b6001836020036101000a038019825116818451168082178552505050505050905001915050600060405180830381855afa9150503d8060008114612554576040519150601f19603f3d011682016040523d82523d6000602084013e612559565b606091505b50915091508161256857600080fd5b80806020019051602081101561257d57600080fd5b50519695505050505050565b604080516323b872dd60e01b81526001600160a01b038481166004830152306024830152604482018490529151918516916323b872dd9160648082019260009290919082900301818387803b158015611b9e57600080fd5b60006305f5e100836040015114156125fa5750806108f7565b6040830151610e09906108ed846305f5e100611219565b600061261b614c0e565b3d801561262f576020811461263857600080fd5b60019250612643565b60206000833e815192505b5081611d8c576040805162461bcd60e51b8152602060048201526005602482015264045524332360dc1b604482015290519081900360640190fd5b60004261268a83611d90565b156126ab57612698816132c1565b835164ffffffffff16109150610c269050565b825164ffffffffff16158015906126ca5750825164ffffffffff168110155b915050610c26565b6126da614b77565b6126e2614b77565b60ff84166126f1579050610e09565b6126fb85856132dd565b815260ff84166060820152826001600160401b038111801561271c57600080fd5b5060405190808252806020026020018201604052801561275657816020015b612743614b9f565b81526020019060019003908161273b5790505b506020820152949350505050565b6000806127718787613306565b9050600061277d612d8b565b6001600160a01b0389166000908152602082815260408083208b845282528083208a84529091528120919250806127b4888a61333b565b91509150806127c257600080fd5b6127cc8583613446565b1561285b5782546000906127e8908990600f90810b900b611535565b905060016001607f1b03198112801590612809575060016001607f1b038113155b61281257600080fd5b83546001600160801b0319166001600160801b03600f83900b16178455806128435761284086846000613476565b95505b61284e8c8c886134c1565b95506112e4945050505050565b86156128bf5760016001607f1b03198712801590612880575060016001607f1b038713155b61288957600080fd5b82546001600160801b0319166001600160801b03600f89900b161783556128b285836001613476565b94506128bf8b8b876134c1565b50949998505050505050505050565b84516128dd908585858561351b565b156128e757611e5e565b60408501511561291457600061290486602001518686868661351b565b905080156129125750611e5e565b505b61291d8261361f565b1561293057600081121561293057600080fd5b6001600160571b0319811280159061294f57506001600160571b038113155b61295857600080fd5b8460200151518560400151141561297c576129768560200151613635565b60208601525b6000856020015186604001518151811061299257fe5b6020908102919091018101519586528501939093526040808501929092526060840152600060a090930192909252500180516001019052565b6000808080808080805b895151811015612a5c5760008a6000015182815181106129f157fe5b60200260200101519050600380811115612a0757fe5b8160a001516003811115612a1757fe5b1415612a2257600080fd5b60028160a001516003811115612a3457fe5b14158015612a4457506060810151155b15612a5357612a538b836136ed565b506001016129d5565b5060005b895151811015612aff5760008a600001518281518110612a7c57fe5b6020026020010151905060026003811115612a9357fe5b8160a001516003811115612aa357fe5b1415612ab757608081015160009055612af6565b60018160a001516003811115612ac957fe5b1415612ae257608081015180612adf838261383c565b50505b612aee81868686613965565b919650945092505b50600101612a60565b5060608901516000612b0f6139c8565b6001600160a01b038b1660009081526020829052604081209192505b8c6020015151811015612bd95760008d602001518281518110612b4a57fe5b60200260200101519050806060015160001415612b675750612bd1565b60028160a001516003811115612b7957fe5b14158015612b97575060038160a001516003811115612b9457fe5b14155b612ba057600080fd5b612bac81898989613965565b91995097509550612bc981848760108110612bc357fe5b0161383c565b600185019450505b600101612b2b565b5060108311158015612bf0575064ffffffffff8411155b612bf957600080fd5b50939a929950975095509350505050565b6000807f7fff7fff7fff7fff7fff7fff7fff7fff7fff00000000000000000000000000008316815b6001600160701b0319821615612c7c57600160fe1b8281161415612c66576001600160f01b03198216811c92909217916010015b6010826001600160701b031916901b9150612c32565b50909392505050565b6000818313612c945781610e09565b5090919050565b60008080612ca9848761151c565b90506000612cb7858761151c565b602089015160608101516101209091015160400151919250600091612cdb916108c2565b905080821315612d0157612cef818861149f565b9550905080612cfe868961151c565b92505b6000612d178a602001518b60c00151868a6139d5565b60208c01516101200151604001519198509150612d4790612d38908561154b565b60208c01516060015190613a62565b60208b0151606001526000811215612d5e57600080fd5b60208a015160400151612d719082611535565b60208b015160400152869550935050505094509492505050565b6000806108f7600c6120fb565b60008060008511612dbb5760405162461bcd60e51b81526004016101449061534e565b6007851115612ddc5760405162461bcd60e51b8152600401610144906153fa565b6000612de784612f13565b905060015b868111612e3f576000612e08612e0183612f34565b84906122d3565b905086811415612e205750925060009150612e589050565b86811115612e365750925060019150612e589050565b50600101612dec565b5060405162461bcd60e51b815260040161014490615496565b935093915050565b6060015161012c60089190911c60ff160290565b600080612e7f613a7e565b905060006276a700612e9085612f13565b6000898152602085815260408083208b84528252808320949093018083529390522080549192509063ffffffff600160a01b8204811691600160c01b8104821691600160e01b9091041681612ef75760405162461bcd60e51b81526004016101449061531e565b612f048184848c8c613a8b565b9b9a5050505050505050505050565b60006276a700821015612f2557600080fd5b6276a700825b06909103919050565b60008160011415612f4957506276a700610c26565b8160021415612f5c575062ed4e00610c26565b8160031415612f7057506301da9c00610c26565b8160041415612f8457506303b53800610c26565b8160051415612f9857506309450c00610c26565b8160061415612fac575063128a1800610c26565b8160071415612fc057506325143000610c26565b60405162461bcd60e51b81526004016101449061537d565b80516000906001600160a01b0316612ff257506000610c26565b600082600001516001600160a01b031663dd30a6666040518163ffffffff1660e01b815260040160206040518083038186803b15801561303157600080fd5b505afa158015613045573d6000803e3d6000fd5b505050506040513d601f19601f82011682018060405250810190610e099190615268565b600081861061307757600080fd5b84821061308357600080fd5b8383106130af576130a8846130a28888036123458388038b88036130cd565b906122d3565b90506112e4565b6130a86130c68787036123458688038a87036130cd565b8590612261565b6000826130dc575060006108f7565b828202828482816130e957fe5b0414610e095760405162461bcd60e51b81526004018080602001828103825260218152602001806155746021913960400191505060405180910390fd5b600080821161317c576040805162461bcd60e51b815260206004820152601a60248201527f536166654d6174683a206469766973696f6e206279207a65726f000000000000604482015290519081900360640190fd5b81838161318557fe5b049392505050565b6000677fffffffffffffff8211156131a457600080fd5b5060401b90565b600081600f0b600014156131be57600080fd5b600082600f0b604085600f0b901b816131d357fe5b05905060016001607f1b031981128015906131f5575060016001607f1b038113155b610e0957600080fd5b6000600f82900b60016001607f1b0319141561321957600080fd5b5060000390565b6000600160461b82600f0b1261323557600080fd5b683fffffffffffffffff1982600f0b121561325257506000610c26565b610c23608083600f0b700171547652b82fe1777d0ffda0d23a7d1202901d613b1e565b6000600f83810b9083900b0260401d60016001607f1b031981128015906131f5575060016001607f1b03811315610e0957600080fd5b600f0b60401d90565b6000806108f760136120fb565b6000620151808210156132d357600080fd5b6201518082612f2b565b606060006132eb84846145d0565b905060018151116132fd5790506108f7565b610e09816146f1565b6000806133116148a9565b6001600160a01b038516600090815260209182526040808220868352909252205491505092915050565b6000806000613349856132c1565b90506201518084061561336357600080925092505061343f565b83811061337757600080925092505061343f565b6201518081850304605a81116133945792506001915061343f9050565b61016881116133d3576000620151806207e900840604820160591901905060068104605a01600682816133c357fe5b066000149450945050505061343f565b61087081116134035760006201518062278d00840604820161016719019050601e8104608701601e82816133c357fe5b611de28111613433576000620151806276a700840604820161086f19019050605a810460c301605a82816133c357fe5b61010060009350935050505b9250929050565b60006001821015801561345b57506101008211155b61346457600080fd5b50600019011b600160ff1b9081161490565b60006001831015801561348b57506101008311155b61349457600080fd5b81156134ad5750600160ff1b60001983011c8317610e09565b50600160ff1b60001983011c198316610e09565b60146134cc826148b6565b11156134ea5760405162461bcd60e51b8152600401610144906153d1565b60006134f46148a9565b6001600160a01b039094166000908152602094855260408082209482529390945250912055565b6000805b865181101561137e57600087828151811061353657fe5b60200260200101519050848160400151141580613554575080518714155b80613563575085816020015114155b1561356e5750613617565b60028160a00151600381111561358057fe5b1415801561359e575060038160a00151600381111561359b57fe5b14155b6135a757600080fd5b60608101516000906135b99086611535565b90506135c48661361f565b156135d75760008112156135d757600080fd5b6001600160571b031981128015906135f657506001600160571b038113155b6135ff57600080fd5b6060820152600160a090910181905291506112e49050565b60010161351f565b600060028210801590610c235750506008101590565b60606000825160001461364c57825160020261364f565b60015b90506000816001600160401b038111801561366957600080fd5b506040519080825280602002602001820160405280156136a357816020015b613690614b9f565b8152602001906001900390816136885790505b50905060005b84518110156136e5578481815181106136be57fe5b60200260200101518282815181106136d257fe5b60209081029190910101526001016136a9565b509392505050565b81515181106136fb57600080fd5b600082606001511161370c57600080fd5b60008260000151828151811061371e57fe5b602002602001015190506002600381111561373557fe5b8160a00151600381111561374557fe5b14158015613763575060038160a00151600381111561376057fe5b14155b61376c57600080fd5b606083018051600019019052600080805b8551518110156137df5760008660000151828151811061379957fe5b602002602001015190508281608001511180156137c6575060028160a0015160038111156137c357fe5b14155b156137d657806080015192508193505b5060010161377d565b50818414156137f8575050600260a09190910152611d8c565b60008560000151838151811061380a57fe5b602090810291909101015160808581018051918301805190915252600160a09182015260029401939093525050505050565b81511580159061384f57508151613fff10155b61385857600080fd5b816020015160001080156138755750602082015164ffffffffff10155b61387e57600080fd5b8160400151600010801561389757506040820151600810155b6138a057600080fd5b60608201516001600160571b0319138015906138c7575060608201516001600160571b0312155b6138d057600080fd5b8151815460208401516040850151606090950151600a0b6affffffffffffffffffffff16600160401b0272ffffffffffffffffffffff00000000000000001960ff909616600160381b0267ff000000000000001964ffffffffff909316620100000266ffffffffff00001961ffff90961661ffff19909516949094179490941692909217169190911792909216919091179055565b60008060008061397488614986565b905084158061398257508085115b1561398b578094505b868061399b575060008860600151125b965061ffff8616156139ac57600080fd5b50509451939560109390931c60f09490941b9390931793509150565b6000806108f7600d6120fb565b6000806000613a08866108ed6139f38a60c001518b60e001516149ed565b60c08b0151516108ed906112de8b6064611219565b90506000613a248289610100015161154b90919063ffffffff16565b90506000613a358960400151610ccc565b905080821315613a5357613a4d826108ed8884611219565b95508091505b50939793965092945050505050565b6000613a6e8383611468565b905060008112156108f757600080fd5b6000806108f7600a6120fb565b6000808311613a9957600080fd5b81861115613aa85750836112e4565b6000613ab48388612261565b905083811115613ac757859150506112e4565b6000613adb8561234584633b9aca006130cd565b90506000613aed633b9aca0083612261565b90506000613b10633b9aca00612345613b068b866130cd565b6130a28d886130cd565b9a9950505050505050505050565b6000600160461b82600f0b12613b3357600080fd5b683fffffffffffffffff1982600f0b1215613b5057506000610c26565b6001607f1b60006780000000000000008416600f0b1315613b825770016a09e667f3bcc908b2fb1366ea957d3e0260801c5b60008367400000000000000016600f0b1315613baf577001306fe0a31b7152de8d5a46305c85edec0260801c5b60008367200000000000000016600f0b1315613bdc577001172b83c7d517adcdf7c8c50eb14a791f0260801c5b60008367100000000000000016600f0b1315613c095770010b5586cf9890f6298b92b71842a983630260801c5b60008367080000000000000016600f0b1315613c36577001059b0d31585743ae7c548eb68ca417fd0260801c5b60008367040000000000000016600f0b1315613c6357700102c9a3e778060ee6f7caca4f7a29bde80260801c5b60008367020000000000000016600f0b1315613c905770010163da9fb33356d84a66ae336dcdfa3f0260801c5b600083600160381b16600f0b1315613cb957700100b1afa5abcbed6129ab13ec11dc95430260801c5b600083668000000000000016600f0b1315613ce55770010058c86da1c09ea1ff19d294cf2f679b0260801c5b600083664000000000000016600f0b1315613d11577001002c605e2e8cec506d21bfc89a23a00f0260801c5b600083662000000000000016600f0b1315613d3d57700100162f3904051fa128bca9c55c31e5df0260801c5b600083661000000000000016600f0b1315613d69577001000b175effdc76ba38e31671ca9397250260801c5b600083660800000000000016600f0b1315613d9557700100058ba01fb9f96d6cacd4b180917c3d0260801c5b600083660400000000000016600f0b1315613dc15770010002c5cc37da9491d0985c348c68e7b30260801c5b600083660200000000000016600f0b1315613ded577001000162e525ee054754457d59952920260260801c5b600083600160301b16600f0b1315613e165770010000b17255775c040618bf4a4ade83fc0260801c5b6000836580000000000016600f0b1315613e41577001000058b91b5bc9ae2eed81e9b7d4cfab0260801c5b6000836540000000000016600f0b1315613e6c57700100002c5c89d5ec6ca4d7c8acc017b7c90260801c5b6000836520000000000016600f0b1315613e975770010000162e43f4f831060e02d839a9d16d0260801c5b6000836510000000000016600f0b1315613ec257700100000b1721bcfc99d9f890ea069117630260801c5b6000836508000000000016600f0b1315613eed5770010000058b90cf1e6d97f9ca14dbcc16280260801c5b6000836504000000000016600f0b1315613f18577001000002c5c863b73f016468f6bac5ca2b0260801c5b6000836502000000000016600f0b1315613f4357700100000162e430e5a18f6119e3c02282a50260801c5b6000836501000000000016600f0b1315613f6e577001000000b1721835514b86e6d96efd1bfe0260801c5b60008364800000000016600f0b1315613f9857700100000058b90c0b48c6be5df846c5b2ef0260801c5b60008364400000000016600f0b1315613fc25770010000002c5c8601cc6b9e94213c72737a0260801c5b60008364200000000016600f0b1315613fec577001000000162e42fff037df38aa2b219f060260801c5b60008364100000000016600f0b13156140165770010000000b17217fba9c739aa5819f44f90260801c5b60008364080000000016600f0b1315614040577001000000058b90bfcdee5acd3c1cedc8230260801c5b60008364040000000016600f0b131561406a57700100000002c5c85fe31f35a6a30da1be500260801c5b60008364020000000016600f0b13156140945770010000000162e42ff0999ce3541b9fffcf0260801c5b60008364010000000016600f0b13156140be57700100000000b17217f80f4ef5aadda455540260801c5b600083638000000016600f0b13156140e75770010000000058b90bfbf8479bd5a81b51ad0260801c5b600083634000000016600f0b1315614110577001000000002c5c85fdf84bd62ae30a74cc0260801c5b600083632000000016600f0b131561413957700100000000162e42fefb2fed257559bdaa0260801c5b600083631000000016600f0b1315614162577001000000000b17217f7d5a7716bba4a9ae0260801c5b600083630800000016600f0b131561418b57700100000000058b90bfbe9ddbac5e109cce0260801c5b600083630400000016600f0b13156141b45770010000000002c5c85fdf4b15de6f17eb0d0260801c5b600083630200000016600f0b13156141dd577001000000000162e42fefa494f1478fde050260801c5b600083630100000016600f0b13156142065770010000000000b17217f7d20cf927c8e94c0260801c5b6000836280000016600f0b131561422e577001000000000058b90bfbe8f71cb4e4b33d0260801c5b6000836240000016600f0b131561425657700100000000002c5c85fdf477b662b269450260801c5b6000836220000016600f0b131561427e5770010000000000162e42fefa3ae53369388c0260801c5b6000836210000016600f0b13156142a657700100000000000b17217f7d1d351a389d400260801c5b6000836208000016600f0b13156142ce5770010000000000058b90bfbe8e8b2d3d4ede0260801c5b6000836204000016600f0b13156142f6577001000000000002c5c85fdf4741bea6e77e0260801c5b6000836202000016600f0b131561431e57700100000000000162e42fefa39fe95583c20260801c5b6000836201000016600f0b1315614346577001000000000000b17217f7d1cfb72b45e10260801c5b60008361800016600f0b131561436d57700100000000000058b90bfbe8e7cc35c3f00260801c5b60008361400016600f0b13156143945770010000000000002c5c85fdf473e242ea380260801c5b60008361200016600f0b13156143bb577001000000000000162e42fefa39f02b772c0260801c5b60008361100016600f0b13156143e25770010000000000000b17217f7d1cf7d83c1a0260801c5b60008361080016600f0b1315614409577001000000000000058b90bfbe8e7bdcbe2e0260801c5b60008361040016600f0b131561443057700100000000000002c5c85fdf473dea871f0260801c5b60008361020016600f0b13156144575770010000000000000162e42fefa39ef44d910260801c5b60008361010016600f0b131561447e57700100000000000000b17217f7d1cf79e9490260801c5b600083608016600f0b13156144a45770010000000000000058b90bfbe8e7bce5440260801c5b600083604016600f0b13156144ca577001000000000000002c5c85fdf473de6eca0260801c5b600083602016600f0b13156144f057700100000000000000162e42fefa39ef366f0260801c5b600083601016600f0b1315614516577001000000000000000b17217f7d1cf79afa0260801c5b600083600816600f0b131561453c57700100000000000000058b90bfbe8e7bcd6d0260801c5b600083600416600f0b13156145625770010000000000000002c5c85fdf473de6b20260801c5b600083600216600f0b1315614588577001000000000000000162e42fefa39ef3580260801c5b600083600116600f0b13156145ae5770010000000000000000b17217f7d1cf79ab0260801c5b600f83810b60401d603f03900b1c60016001607f1b03811115610c2357600080fd5b606060108260ff1611156145e357600080fd5b60006145ed6139c8565b6001600160a01b038516600090815260208290526040812091925060ff85166001600160401b038111801561462157600080fd5b5060405190808252806020026020018201604052801561465b57816020015b614648614b9f565b8152602001906001900390816146405790505b50905060005b8560ff168110156146e757600083826010811061467a57fe5b019050600083838151811061468b57fe5b602090810291909101810151835461ffff8116825264ffffffffff620100008204169282019290925260ff600160381b8304166040820152600160401b909104600a90810b900b60608201526080019190915250600101614661565b5095945050505050565b80516000816001600160401b038111801561470b57600080fd5b50604051908082528060200260200182016040528015614735578160200160208202803683370190505b50905060005b8281101561479257600084828151811061475157fe5b60200260200101519050614772816000015182602001518360400151614a12565b83838151811061477e57fe5b60209081029190910101525060010161473b565b5060015b8281101561182b57805b6000811180156147d857508281815181106147b757fe5b60200260200101518360018303815181106147ce57fe5b6020026020010151115b156148a0578281815181106147e957fe5b602002602001015183600183038151811061480057fe5b602002602001015184600184038151811061481757fe5b6020026020010185848151811061482a57fe5b602002602001018281525082815250505084818151811061484757fe5b602002602001015185600183038151811061485e57fe5b602002602001015186600184038151811061487557fe5b6020026020010187848151811061488857fe5b602090810291909101019190915252600019016147a0565b50600101614796565b6000806108f7600b6120fb565b600181901c7f5555555555555555555555555555555555555555555555555555555555555555908116911601600281901c7f3333333333333333333333333333333333333333333333333333333333333333908116911601600481901c7f07070707070707070707070707070707070707070707070707070707070707079190911601600881901c7e0f000f000f000f000f000f000f000f000f000f000f000f000f000f000f000f908116911601601081901c01602081901c01604081901c01608081901c60ff90811691160190565b60008082604001511180156149a057506040820151600810155b6149a957600080fd5b60408201516002106149c057506020810151610c26565b60006149d26001846040015103612f34565b6020840151909150610e09906276a700906130a29084612261565b6000610e0982602001516108ed8460000151866020015161121990919063ffffffff16565b6000613fff841115614a2357600080fd5b64ffffffffff831115614a3557600080fd5b6008821115614a4357600080fd5b5067ffff000000000000603084901b1665ffffffffff00600884901b161760ff8216179392505050565b604051806101000160405280614a81614ac4565b8152602001614a8e614af2565b8152602001614a9b614b77565b815260200160008152602001600081526020016000815260200160008152602001606081525090565b6040805160a08101825260008082526020820181905291810182905260608101829052608081019190915290565b60405180610160016040528060006001600160a01b031681526020016000815260200160008152602001600081526020016000815260200160006001600160d01b0319168152602001614b43614c2c565b8152602001614b50614c2c565b8152602001614b5d614c5b565b8152602001614b6a614c85565b8152600060209091015290565b6040518060800160405280606081526020016060815260200160008152602001600081525090565b6040518060c00160405280600081526020016000815260200160008152602001600081526020016000815260200160006003811115614bda57fe5b905290565b6040805160a0810182526000808252602082018190529181018290529060608201908152602001600081525090565b60405180602001604052806001906020820280368337509192915050565b6040518060a0016040528060008152602001600081526020016000815260200160008152602001600081525090565b604051806060016040528060006001600160a01b0316815260200160008152602001600081525090565b6040805160808101825260008082526020820152908101614b6a614c5b565b8051610c268161554b565b600082601f830112614cbf578081fd5b815160206001600160401b0380831115614cd557fe5b614ce28283850201615528565b8381528281019086840160c0808702890186018a1015614d00578788fd5b875b87811015614d815781838c031215614d18578889fd5b604080518381018181108982111715614d2d57fe5b82528451815288850151898201528482015191810191909152606080850151908201526080808501519082015260a090614d68828601614e29565b9181019190915285529386019391810191600101614d02565b50919998505050505050505050565b60008083601f840112614da1578182fd5b5081356001600160401b03811115614db7578182fd5b602083019150836020808302850101111561343f57600080fd5b80518015158114610c2657600080fd5b80516001600160701b031981168114610c2657600080fd5b80516001600160f81b031981168114610c2657600080fd5b80516001600160d01b031981168114610c2657600080fd5b805160048110610c2657600080fd5b600060608284031215614e49578081fd5b604051606081018181106001600160401b0382111715614e6557fe5b80604052508091508251614e788161554b565b8082525060208301516020820152604083015160408201525092915050565b600060c08284031215614ea8578081fd5b604051608081018181106001600160401b0382111715614ec457fe5b80604052508091508251614ed781615563565b815260208381015190820152614ef08460408501614e38565b604082015260a083015160608201525092915050565b600060a08284031215614f17578081fd5b60405160a081018181106001600160401b0382111715614f3357fe5b806040525080915082518152602083015160208201526040830151604082015260608301516060820152608083015160808201525092915050565b60006103408284031215614f80578081fd5b610160614f8c81615528565b9150614f9783614ca4565b825260208301516020830152604083015160408301526060830151606083015260808301516080830152614fcd60a08401614e11565b60a0830152614fdf8460c08501614f06565b60c0830152614ff084828501614f06565b60e083015250615004836102008401614e38565b610100820152615018836102608401614e97565b61012082015261502b6103208301614dd1565b61014082015292915050565b8051610c2681615563565b805160ff81168114610c2657600080fd5b6000806000806000806080878903121561506b578182fd5b86356150768161554b565b9550602087013561508681615563565b945060408701356001600160401b03808211156150a1578384fd5b6150ad8a838b01614d90565b909650945060608901359150808211156150c5578384fd5b506150d289828a01614d90565b979a9699509497509295939492505050565b600080600080600080600060a0888a0312156150fe578485fd5b87356151098161554b565b9650602088013561511981615563565b9550604088013561512981615563565b945060608801356001600160401b0380821115615144578283fd5b6151508b838c01614d90565b909650945060808a0135915080821115615168578283fd5b506151758a828b01614d90565b989b979a50959850939692959293505050565b600080600083850361040081121561519e578182fd5b60a08112156151ab578182fd5b5060405160a081016001600160401b0382821081831117156151c957fe5b816040528651915064ffffffffff821682146151e3578384fd5b8183526151f260208801614df9565b602084015261520360408801615042565b604084015261521460608801615037565b606084015261522560808801614de1565b608084015282955061523a8860a08901614f6e565b94506103e0870151925080831115615250578384fd5b505061525e86828701614caf565b9150509250925092565b600060208284031215615279578081fd5b5051919050565b6000815180845260208085019450808401835b838110156152af57815187529582019590820190600101615293565b509495945050505050565b6001600160a01b0391909116815260200190565b6001600160a01b0393909316835261ffff918216602084015216604082015260600190565b6000604082526153066040830185615280565b90508260208301529392505050565b90815260200190565b60208082526016908201527513585c9ad95d081b9bdd081a5b9a5d1a585b1a5e995960521b604082015260600190565b60208082526015908201527410d1ce881b9bc81b585c9ad95d1cc81b1a5cdd1959605a1b604082015260600190565b6020808252600d908201526c092dcecc2d8d2c840d2dcc8caf609b1b604082015260600190565b6020808252601390820152724163636f756e74206d75737420736574746c6560681b604082015260600190565b6020808252600f908201526e4f766572206d61782061737365747360881b604082015260600190565b60208082526016908201527510d1ce881b585c9ad95d081a5b99195e08189bdd5b9960521b604082015260600190565b6020808252600e908201526d1499595b9d1c985b9d0818d85b1b60921b604082015260600190565b60208082526008908201526712185cc81919589d60c21b604082015260600190565b60208082526008908201526709ccace4086c2e6d60c31b604082015260600190565b60208082526013908201527210d1ce881b9bc81b585c9ad95d08199bdd5b99606a1b604082015260600190565b61ffff8781168252861660208201526040810185905260a060608201819052810183905260006001600160fb1b038411156154fc578081fd5b60208402808660c0850137808301905060c0810182815260c0848303016080850152613b108186615280565b6040518181016001600160401b038111828210171561554357fe5b604052919050565b6001600160a01b038116811461556057600080fd5b50565b61ffff8116811461556057600080fdfe536166654d6174683a206d756c7469706c69636174696f6e206f766572666c6f77a2646970667358221220429b36726c8100e39d2aa4f0e50fc049236b4401a55ca8a3dc7143adbf8593e764736f6c63430007060033","language":"Solidity","natspec":{"kind":"dev","methods":{"calculatefCashCrossCurrencyLiquidation(address,uint16,uint16,uint256[],uint256[])":{"notice":"Calculates fCash cross currency liquidation, can be called via staticcall off chain","params":{"fCashCurrency":"currency of fCash to purchase","fCashMaturities":"array of fCash maturities in the local currency to purchase, must be ordered descending","liquidateAccount":"account to liquidate","localCurrency":"local currency to liquidate","maxfCashLiquidateAmounts":"max notional of fCash to liquidate in corresponding maturity, zero will represent no maximum"},"returns":{"_0":"an array of the notional amounts of fCash to transfer, corresponding to fCashMaturities","_1":"amount of local currency required from the liquidator"}},"calculatefCashLocalLiquidation(address,uint16,uint256[],uint256[])":{"params":{"fCashMaturities":"array of fCash maturities in the local currency to purchase, must be ordered descending","liquidateAccount":"account to liquidate","localCurrency":"local currency to liquidate","maxfCashLiquidateAmounts":"max notional of fCash to liquidate in corresponding maturity, zero will represent no maximum"},"returns":{"_0":"an array of the notional amounts of fCash to transfer, corresponding to fCashMaturities","_1":"amount of local currency required from the liquidator"}},"getLibInfo()":{"notice":"Get a list of deployed library addresses (sorted by library name)"},"liquidatefCashCrossCurrency(address,uint16,uint16,uint256[],uint256[])":{"notice":"Liquidates fCash across local to collateral currency","params":{"fCashCurrency":"currency of fCash to purchase","fCashMaturities":"array of fCash maturities in the local currency to purchase, must be ordered descending","liquidateAccount":"account to liquidate","localCurrency":"local currency to liquidate","maxfCashLiquidateAmounts":"max notional of fCash to liquidate in corresponding maturity, zero will represent no maximum"},"returns":{"_0":"an array of the notional amounts of fCash to transfer, corresponding to fCashMaturities","_1":"amount of local currency required from the liquidator"}},"liquidatefCashLocal(address,uint16,uint256[],uint256[])":{"notice":"Liquidates fCash using local currency","params":{"fCashMaturities":"array of fCash maturities in the local currency to purchase, must be ordered descending","liquidateAccount":"account to liquidate","localCurrency":"local currency to liquidate","maxfCashLiquidateAmounts":"max notional of fCash to liquidate in corresponding maturity, zero will represent no maximum"},"returns":{"_0":"an array of the notional amounts of fCash to transfer, corresponding to fCashMaturities","_1":"amount of local currency required from the liquidator"}}},"version":1},"opcodes":"PUSH1 0x80 PUSH1 0x40 MSTORE CALLVALUE DUP1 ISZERO PUSH2 0x10 JUMPI PUSH1 0x0 DUP1 REVERT JUMPDEST POP PUSH1 0x4 CALLDATASIZE LT PUSH2 0x88 JUMPI PUSH1 0x0 CALLDATALOAD PUSH1 0xE0 SHR DUP1 PUSH4 0x8DA5CB5B GT PUSH2 0x5B JUMPI DUP1 PUSH4 0x8DA5CB5B EQ PUSH2 0xE7 JUMPI DUP1 PUSH4 0xC4C96DAE EQ PUSH2 0xEF JUMPI DUP1 PUSH4 0xE816469D EQ PUSH2 0xF7 JUMPI DUP1 PUSH4 0xFA37E395 EQ PUSH2 0x10A JUMPI PUSH2 0x88 JUMP JUMPDEST DUP1 PUSH4 0xFB281D9 EQ PUSH2 0x8D JUMPI DUP1 PUSH4 0x24A3D622 EQ PUSH2 0xB7 JUMPI DUP1 PUSH4 0x7FDEBBF4 EQ PUSH2 0xCC JUMPI DUP1 PUSH4 0x82463367 EQ PUSH2 0xDF JUMPI JUMPDEST PUSH1 0x0 DUP1 REVERT JUMPDEST PUSH2 0xA0 PUSH2 0x9B CALLDATASIZE PUSH1 0x4 PUSH2 0x5053 JUMP JUMPDEST PUSH2 0x11D JUMP JUMPDEST PUSH1 0x40 MLOAD PUSH2 0xAE SWAP3 SWAP2 SWAP1 PUSH2 0x52F3 JUMP JUMPDEST PUSH1 0x40 MLOAD DUP1 SWAP2 SUB SWAP1 RETURN JUMPDEST PUSH2 0xBF PUSH2 0x185 JUMP JUMPDEST PUSH1 0x40 MLOAD PUSH2 0xAE SWAP2 SWAP1 PUSH2 0x52BA JUMP JUMPDEST PUSH2 0xA0 PUSH2 0xDA CALLDATASIZE PUSH1 0x4 PUSH2 0x5053 JUMP JUMPDEST PUSH2 0x194 JUMP JUMPDEST PUSH2 0xBF PUSH2 0x262 JUMP JUMPDEST PUSH2 0xBF PUSH2 0x271 JUMP JUMPDEST PUSH2 0xBF PUSH2 0x288 JUMP JUMPDEST PUSH2 0xA0 PUSH2 0x105 CALLDATASIZE PUSH1 0x4 PUSH2 0x50E4 JUMP JUMPDEST PUSH2 0x2A0 JUMP JUMPDEST PUSH2 0xA0 PUSH2 0x118 CALLDATASIZE PUSH1 0x4 PUSH2 0x50E4 JUMP JUMPDEST PUSH2 0x370 JUMP JUMPDEST PUSH1 0x60 PUSH1 0x0 PUSH1 0x2 PUSH1 0xA SLOAD EQ ISZERO PUSH2 0x14D JUMPI PUSH1 0x40 MLOAD PUSH3 0x461BCD PUSH1 0xE5 SHL DUP2 MSTORE PUSH1 0x4 ADD PUSH2 0x144 SWAP1 PUSH2 0x542A JUMP JUMPDEST PUSH1 0x40 MLOAD DUP1 SWAP2 SUB SWAP1 REVERT JUMPDEST PUSH1 0x2 PUSH1 0xA SSTORE TIMESTAMP PUSH1 0x0 PUSH2 0x164 DUP11 DUP11 DUP11 DUP11 DUP11 DUP11 DUP9 PUSH2 0x3D1 JUMP JUMPDEST PUSH1 0xE0 DUP2 ADD MLOAD PUSH1 0xA0 SWAP1 SWAP2 ADD MLOAD PUSH1 0x1 PUSH1 0xA SSTORE SWAP1 SWAP12 SWAP1 SWAP11 POP SWAP9 POP POP POP POP POP POP POP POP POP JUMP JUMPDEST PUSH1 0x2 SLOAD PUSH1 0x1 PUSH1 0x1 PUSH1 0xA0 SHL SUB AND DUP2 JUMP JUMPDEST PUSH1 0x60 PUSH1 0x0 PUSH1 0x2 PUSH1 0xA SLOAD EQ ISZERO PUSH2 0x1BB JUMPI PUSH1 0x40 MLOAD PUSH3 0x461BCD PUSH1 0xE5 SHL DUP2 MSTORE PUSH1 0x4 ADD PUSH2 0x144 SWAP1 PUSH2 0x542A JUMP JUMPDEST PUSH1 0x2 PUSH1 0xA SSTORE TIMESTAMP PUSH1 0x0 PUSH2 0x1D2 DUP11 DUP11 DUP11 DUP11 DUP11 DUP11 DUP9 PUSH2 0x3D1 JUMP JUMPDEST SWAP1 POP PUSH2 0x1E3 DUP11 CALLER DUP12 DUP13 DUP13 DUP13 DUP8 PUSH2 0x49B JUMP JUMPDEST POP POP CALLER PUSH1 0x1 PUSH1 0x1 PUSH1 0xA0 SHL SUB AND DUP11 PUSH1 0x1 PUSH1 0x1 PUSH1 0xA0 SHL SUB AND PUSH32 0x1F20E4CCBA6C78861EE4C638FECD0B6A53B1232ADB96CA3A0065B9BB12D6214D DUP12 DUP13 DUP6 PUSH1 0xA0 ADD MLOAD DUP14 DUP14 DUP9 PUSH1 0xE0 ADD MLOAD PUSH1 0x40 MLOAD PUSH2 0x23A SWAP7 SWAP6 SWAP5 SWAP4 SWAP3 SWAP2 SWAP1 PUSH2 0x54C3 JUMP JUMPDEST PUSH1 0x40 MLOAD DUP1 SWAP2 SUB SWAP1 LOG3 PUSH1 0xE0 DUP2 ADD MLOAD PUSH1 0xA0 SWAP1 SWAP2 ADD MLOAD PUSH1 0x1 PUSH1 0xA SSTORE SWAP1 SWAP11 SWAP1 SWAP10 POP SWAP8 POP POP POP POP POP POP POP POP JUMP JUMPDEST PUSH1 0x1 SLOAD PUSH1 0x1 PUSH1 0x1 PUSH1 0xA0 SHL SUB AND DUP2 JUMP JUMPDEST PUSH1 0x0 SLOAD PUSH5 0x100000000 SWAP1 DIV PUSH1 0x1 PUSH1 0x1 PUSH1 0xA0 SHL SUB AND DUP2 JUMP JUMPDEST PUSH20 0x0 SWAP1 JUMP JUMPDEST PUSH1 0x60 PUSH1 0x0 PUSH1 0x2 PUSH1 0xA SLOAD EQ ISZERO PUSH2 0x2C7 JUMPI PUSH1 0x40 MLOAD PUSH3 0x461BCD PUSH1 0xE5 SHL DUP2 MSTORE PUSH1 0x4 ADD PUSH2 0x144 SWAP1 PUSH2 0x542A JUMP JUMPDEST PUSH1 0x2 PUSH1 0xA SSTORE TIMESTAMP PUSH1 0x0 PUSH2 0x2DF DUP12 DUP12 DUP12 DUP12 DUP12 DUP12 DUP12 DUP10 PUSH2 0x620 JUMP JUMPDEST SWAP1 POP PUSH2 0x2F0 DUP12 CALLER DUP13 DUP13 DUP13 DUP13 DUP8 PUSH2 0x49B JUMP JUMPDEST POP POP CALLER PUSH1 0x1 PUSH1 0x1 PUSH1 0xA0 SHL SUB AND DUP12 PUSH1 0x1 PUSH1 0x1 PUSH1 0xA0 SHL SUB AND PUSH32 0x1F20E4CCBA6C78861EE4C638FECD0B6A53B1232ADB96CA3A0065B9BB12D6214D DUP13 DUP13 DUP6 PUSH1 0xA0 ADD MLOAD DUP14 DUP14 DUP9 PUSH1 0xE0 ADD MLOAD PUSH1 0x40 MLOAD PUSH2 0x347 SWAP7 SWAP6 SWAP5 SWAP4 SWAP3 SWAP2 SWAP1 PUSH2 0x54C3 JUMP JUMPDEST PUSH1 0x40 MLOAD DUP1 SWAP2 SUB SWAP1 LOG3 PUSH1 0xE0 DUP2 ADD MLOAD PUSH1 0xA0 SWAP1 SWAP2 ADD MLOAD PUSH1 0x1 PUSH1 0xA SSTORE SWAP1 SWAP12 SWAP1 SWAP11 POP SWAP9 POP POP POP POP POP POP POP POP POP JUMP JUMPDEST PUSH1 0x60 PUSH1 0x0 PUSH1 0x2 PUSH1 0xA SLOAD EQ ISZERO PUSH2 0x397 JUMPI PUSH1 0x40 MLOAD PUSH3 0x461BCD PUSH1 0xE5 SHL DUP2 MSTORE PUSH1 0x4 ADD PUSH2 0x144 SWAP1 PUSH2 0x542A JUMP JUMPDEST PUSH1 0x2 PUSH1 0xA SSTORE TIMESTAMP PUSH1 0x0 PUSH2 0x3AF DUP12 DUP12 DUP12 DUP12 DUP12 DUP12 DUP12 DUP10 PUSH2 0x620 JUMP JUMPDEST PUSH1 0xE0 DUP2 ADD MLOAD PUSH1 0xA0 SWAP1 SWAP2 ADD MLOAD PUSH1 0x1 PUSH1 0xA SSTORE SWAP1 SWAP13 SWAP1 SWAP12 POP SWAP10 POP POP POP POP POP POP POP POP POP POP JUMP JUMPDEST PUSH2 0x3D9 PUSH2 0x4A6D JUMP JUMPDEST DUP5 DUP4 EQ PUSH2 0x3E5 JUMPI PUSH1 0x0 DUP1 REVERT JUMPDEST PUSH2 0x3ED PUSH2 0x4A6D JUMP JUMPDEST PUSH2 0x3F9 DUP10 DUP10 PUSH1 0x0 PUSH2 0x6BA JUMP JUMPDEST PUSH1 0x40 DUP5 ADD MSTORE PUSH1 0x20 DUP4 ADD MSTORE DUP2 MSTORE PUSH1 0x0 PUSH2 0x415 DUP11 PUSH2 0xFFFF DUP12 AND PUSH2 0x816 JUMP JUMPDEST POP POP POP PUSH1 0x20 DUP4 ADD MLOAD PUSH2 0x100 ADD MLOAD SWAP1 SWAP2 POP PUSH2 0x42F SWAP1 DUP3 PUSH2 0x8C2 JUMP JUMPDEST PUSH1 0x60 DUP4 ADD MSTORE DUP7 PUSH1 0x1 PUSH1 0x1 PUSH1 0x40 SHL SUB DUP2 GT DUP1 ISZERO PUSH2 0x44A JUMPI PUSH1 0x0 DUP1 REVERT JUMPDEST POP PUSH1 0x40 MLOAD SWAP1 DUP1 DUP3 MSTORE DUP1 PUSH1 0x20 MUL PUSH1 0x20 ADD DUP3 ADD PUSH1 0x40 MSTORE DUP1 ISZERO PUSH2 0x474 JUMPI DUP2 PUSH1 0x20 ADD PUSH1 0x20 DUP3 MUL DUP1 CALLDATASIZE DUP4 CALLDATACOPY ADD SWAP1 POP JUMPDEST POP PUSH1 0xE0 DUP4 ADD MSTORE PUSH2 0x48E DUP11 PUSH2 0xFFFF DUP12 AND DUP11 DUP11 DUP11 DUP11 DUP9 DUP12 PUSH2 0x8FD JUMP JUMPDEST POP SWAP9 SWAP8 POP POP POP POP POP POP POP POP JUMP JUMPDEST PUSH1 0x60 PUSH1 0x0 DUP1 PUSH2 0x4AD DUP9 PUSH2 0xFFFF AND PUSH2 0xC10 JUMP JUMPDEST SWAP1 POP PUSH1 0x0 PUSH2 0x4BA DUP11 PUSH2 0xC2B JUMP JUMPDEST PUSH1 0xA0 DUP7 ADD MLOAD PUSH1 0x20 DUP5 ADD MLOAD SWAP2 SWAP3 POP SWAP1 DUP1 ISZERO PUSH2 0x4D4 JUMPI POP PUSH1 0x0 DUP2 SGT JUMPDEST ISZERO PUSH2 0x51E JUMPI PUSH1 0x20 DUP3 ADD MLOAD PUSH1 0x1 PUSH1 0x1 PUSH1 0xF8 SHL SUB NOT AND ISZERO PUSH2 0x505 JUMPI PUSH1 0x40 MLOAD PUSH3 0x461BCD PUSH1 0xE5 SHL DUP2 MSTORE PUSH1 0x4 ADD PUSH2 0x144 SWAP1 PUSH2 0x5452 JUMP JUMPDEST PUSH2 0x519 DUP12 DUP4 DUP13 PUSH2 0x514 DUP6 PUSH2 0xCCC JUMP JUMPDEST PUSH2 0xCDA JUMP JUMPDEST PUSH2 0x53C JUMP JUMPDEST PUSH2 0x53A DUP12 PUSH2 0xFFFF DUP13 AND PUSH2 0x531 DUP7 DUP6 PUSH2 0xDD1 JUMP JUMPDEST DUP7 SWAP3 SWAP2 SWAP1 PUSH2 0xE10 JUMP JUMPDEST POP JUMPDEST PUSH2 0x54C DUP13 DUP8 PUSH1 0x0 ADD MLOAD DUP13 DUP5 PUSH2 0xCDA JUMP JUMPDEST PUSH1 0x0 PUSH2 0x561 DUP14 DUP14 DUP6 DUP14 PUSH2 0xFFFF AND DUP14 DUP14 DUP14 PUSH2 0xEC0 JUMP JUMPDEST SWAP4 POP SWAP1 POP PUSH2 0x56F DUP4 DUP14 PUSH2 0xF4E JUMP JUMPDEST DUP7 MLOAD PUSH2 0x57B SWAP1 DUP15 PUSH2 0xF4E JUMP JUMPDEST DUP1 DUP1 ISZERO PUSH2 0x595 JUMPI POP PUSH1 0x20 DUP4 ADD MLOAD PUSH1 0x1 PUSH1 0x1 PUSH1 0xF8 SHL SUB NOT AND ISZERO ISZERO JUMPDEST ISZERO PUSH2 0x602 JUMPI PUSH1 0x40 MLOAD PUSH4 0x6CCC642F PUSH1 0xE0 SHL DUP2 MSTORE PUSH20 0x0 SWAP1 PUSH4 0x6CCC642F SWAP1 PUSH2 0x5D1 SWAP1 DUP16 SWAP1 PUSH1 0x4 ADD PUSH2 0x52BA JUMP JUMPDEST PUSH1 0x0 PUSH1 0x40 MLOAD DUP1 DUP4 SUB DUP2 DUP7 DUP1 EXTCODESIZE ISZERO DUP1 ISZERO PUSH2 0x5E9 JUMPI PUSH1 0x0 DUP1 REVERT JUMPDEST POP GAS DELEGATECALL ISZERO DUP1 ISZERO PUSH2 0x5FD JUMPI RETURNDATASIZE PUSH1 0x0 DUP1 RETURNDATACOPY RETURNDATASIZE PUSH1 0x0 REVERT JUMPDEST POP POP POP POP JUMPDEST DUP7 PUSH1 0xE0 ADD MLOAD DUP8 PUSH1 0xA0 ADD MLOAD SWAP6 POP SWAP6 POP POP POP POP POP SWAP8 POP SWAP8 SWAP6 POP POP POP POP POP POP JUMP JUMPDEST PUSH2 0x628 PUSH2 0x4A6D JUMP JUMPDEST DUP5 DUP4 EQ PUSH2 0x634 JUMPI PUSH1 0x0 DUP1 REVERT JUMPDEST PUSH2 0x63C PUSH2 0x4A6D JUMP JUMPDEST PUSH2 0x647 DUP11 DUP11 DUP11 PUSH2 0x6BA JUMP JUMPDEST PUSH1 0x40 DUP5 ADD MSTORE PUSH1 0x20 DUP4 ADD MSTORE DUP2 MSTORE DUP6 PUSH1 0x1 PUSH1 0x1 PUSH1 0x40 SHL SUB DUP2 GT DUP1 ISZERO PUSH2 0x669 JUMPI PUSH1 0x0 DUP1 REVERT JUMPDEST POP PUSH1 0x40 MLOAD SWAP1 DUP1 DUP3 MSTORE DUP1 PUSH1 0x20 MUL PUSH1 0x20 ADD DUP3 ADD PUSH1 0x40 MSTORE DUP1 ISZERO PUSH2 0x693 JUMPI DUP2 PUSH1 0x20 ADD PUSH1 0x20 DUP3 MUL DUP1 CALLDATASIZE DUP4 CALLDATACOPY ADD SWAP1 POP JUMPDEST POP PUSH1 0xE0 DUP3 ADD MSTORE PUSH2 0x6AD DUP11 PUSH2 0xFFFF DUP11 AND DUP10 DUP10 DUP10 DUP10 DUP8 DUP11 PUSH2 0x1052 JUMP JUMPDEST SWAP10 SWAP9 POP POP POP POP POP POP POP POP POP JUMP JUMPDEST PUSH2 0x6C2 PUSH2 0x4AC4 JUMP JUMPDEST PUSH2 0x6CA PUSH2 0x4AF2 JUMP JUMPDEST PUSH2 0x6D2 PUSH2 0x4B77 JUMP JUMPDEST CALLER PUSH1 0x1 PUSH1 0x1 PUSH1 0xA0 SHL SUB DUP8 AND EQ ISZERO PUSH2 0x6E8 JUMPI PUSH1 0x0 DUP1 REVERT JUMPDEST PUSH2 0xFFFF DUP6 AND PUSH2 0x6F6 JUMPI PUSH1 0x0 DUP1 REVERT JUMPDEST DUP5 PUSH2 0xFFFF AND DUP5 PUSH2 0xFFFF AND EQ ISZERO PUSH2 0x70B JUMPI PUSH1 0x0 DUP1 REVERT JUMPDEST PUSH1 0x0 DUP1 PUSH1 0x0 PUSH20 0x0 PUSH4 0x451D958F DUP11 DUP11 DUP11 PUSH1 0x40 MLOAD DUP5 PUSH4 0xFFFFFFFF AND PUSH1 0xE0 SHL DUP2 MSTORE PUSH1 0x4 ADD PUSH2 0x74B SWAP4 SWAP3 SWAP2 SWAP1 PUSH2 0x52CE JUMP JUMPDEST PUSH1 0x0 PUSH1 0x40 MLOAD DUP1 DUP4 SUB DUP2 DUP7 DUP1 EXTCODESIZE ISZERO DUP1 ISZERO PUSH2 0x763 JUMPI PUSH1 0x0 DUP1 REVERT JUMPDEST POP GAS DELEGATECALL ISZERO DUP1 ISZERO PUSH2 0x777 JUMPI RETURNDATASIZE PUSH1 0x0 DUP1 RETURNDATACOPY RETURNDATASIZE PUSH1 0x0 REVERT JUMPDEST POP POP POP POP PUSH1 0x40 MLOAD RETURNDATASIZE PUSH1 0x0 DUP3 RETURNDATACOPY PUSH1 0x1F RETURNDATASIZE SWAP1 DUP2 ADD PUSH1 0x1F NOT AND DUP3 ADD PUSH1 0x40 MSTORE PUSH2 0x79F SWAP2 SWAP1 DUP2 ADD SWAP1 PUSH2 0x5188 JUMP JUMPDEST SWAP2 SWAP5 POP SWAP3 POP SWAP1 POP PUSH2 0x7B0 DUP4 DUP11 PUSH2 0xF4E JUMP JUMPDEST PUSH1 0x40 DUP1 MLOAD PUSH1 0x80 DUP2 ADD DUP3 MSTORE DUP3 DUP2 MSTORE DUP2 MLOAD PUSH1 0x0 DUP1 DUP3 MSTORE PUSH1 0x20 DUP3 DUP2 ADD SWAP1 SWAP5 MSTORE SWAP3 DUP3 ADD SWAP1 DUP4 PUSH2 0x7F1 JUMP JUMPDEST PUSH2 0x7DE PUSH2 0x4B9F JUMP JUMPDEST DUP2 MSTORE PUSH1 0x20 ADD SWAP1 PUSH1 0x1 SWAP1 SUB SWAP1 DUP2 PUSH2 0x7D6 JUMPI SWAP1 POP JUMPDEST POP DUP2 MSTORE PUSH1 0x0 PUSH1 0x20 DUP3 ADD MSTORE SWAP3 MLOAD PUSH1 0x40 SWAP1 SWAP4 ADD SWAP3 SWAP1 SWAP3 MSTORE POP SWAP2 SWAP9 SWAP1 SWAP8 POP SWAP1 SWAP6 POP SWAP4 POP POP POP POP JUMP JUMPDEST PUSH1 0x0 DUP1 PUSH1 0x0 DUP1 PUSH1 0x0 PUSH2 0x826 PUSH2 0x11FE JUMP JUMPDEST PUSH1 0x1 PUSH1 0x1 PUSH1 0xA0 SHL SUB DUP9 AND PUSH1 0x0 SWAP1 DUP2 MSTORE PUSH1 0x20 DUP3 DUP2 MSTORE PUSH1 0x40 DUP1 DUP4 KECCAK256 DUP11 DUP5 MSTORE SWAP1 SWAP2 MSTORE SWAP1 KECCAK256 DUP1 SLOAD PUSH10 0xFFFFFFFFFFFFFFFFFFFF DUP2 AND SWAP7 POP PUSH1 0x1 PUSH1 0x50 SHL SWAP1 DIV PUSH4 0xFFFFFFFF AND SWAP5 POP SWAP1 SWAP2 POP DUP4 ISZERO PUSH2 0x892 JUMPI DUP1 SLOAD PUSH2 0x88B SWAP1 PUSH1 0x1 PUSH1 0x70 SHL SWAP1 DIV PUSH7 0xFFFFFFFFFFFFFF AND PUSH2 0x120B JUMP JUMPDEST SWAP3 POP PUSH2 0x8A7 JUMP JUMPDEST DUP1 SLOAD PUSH1 0x1 PUSH1 0x70 SHL SWAP1 DIV PUSH7 0xFFFFFFFFFFFFFF AND SWAP3 POP JUMPDEST SLOAD PUSH1 0x1 PUSH1 0xA8 SHL SWAP1 DIV PUSH1 0xA SWAP1 DUP2 SIGNEXTEND SWAP1 SIGNEXTEND SWAP8 SWAP4 SWAP7 POP SWAP2 SWAP5 POP SWAP3 POP POP JUMP JUMPDEST PUSH1 0x0 DUP1 PUSH2 0x8F3 DUP5 PUSH1 0x40 ADD MLOAD PUSH2 0x8ED PUSH5 0x2540BE400 PUSH2 0x8ED DUP8 DUP10 PUSH1 0x20 ADD MLOAD PUSH2 0x1219 SWAP1 SWAP2 SWAP1 PUSH4 0xFFFFFFFF AND JUMP JUMPDEST SWAP1 PUSH2 0x1267 JUMP JUMPDEST SWAP2 POP POP JUMPDEST SWAP3 SWAP2 POP POP JUMP JUMPDEST PUSH1 0x20 DUP3 ADD MLOAD PUSH1 0x40 ADD MLOAD PUSH2 0x90F JUMPI PUSH1 0x0 DUP1 REVERT JUMPDEST PUSH2 0x932 DUP3 PUSH1 0x20 ADD MLOAD PUSH1 0x40 ADD MLOAD DUP4 PUSH1 0x20 ADD MLOAD PUSH1 0x20 ADD MLOAD DUP5 PUSH1 0x20 ADD MLOAD PUSH1 0xC0 ADD MLOAD PUSH2 0x1298 JUMP JUMPDEST PUSH1 0x80 DUP4 ADD MSTORE PUSH1 0x0 JUMPDEST DUP6 DUP2 LT ISZERO PUSH2 0xBE5 JUMPI DUP1 ISZERO PUSH2 0x97B JUMPI DUP7 DUP7 DUP3 DUP2 DUP2 LT PUSH2 0x954 JUMPI INVALID JUMPDEST SWAP1 POP PUSH1 0x20 MUL ADD CALLDATALOAD DUP8 DUP8 PUSH1 0x1 DUP5 SUB DUP2 DUP2 LT PUSH2 0x96A JUMPI INVALID JUMPDEST SWAP1 POP PUSH1 0x20 MUL ADD CALLDATALOAD GT PUSH2 0x97B JUMPI PUSH1 0x0 DUP1 REVERT JUMPDEST PUSH1 0x0 PUSH2 0x99B DUP11 DUP6 DUP12 DUP12 DUP12 DUP8 DUP2 DUP2 LT PUSH2 0x98F JUMPI INVALID JUMPDEST SWAP1 POP PUSH1 0x20 MUL ADD CALLDATALOAD PUSH2 0x12ED JUMP JUMPDEST SWAP1 POP PUSH1 0x0 DUP2 SLT ISZERO PUSH2 0x9B8 JUMPI PUSH1 0x0 DUP5 PUSH1 0x60 ADD MLOAD SLT ISZERO PUSH2 0x9B8 JUMPI PUSH1 0x0 DUP1 REVERT JUMPDEST DUP1 PUSH2 0x9C3 JUMPI POP PUSH2 0xBDD JUMP JUMPDEST PUSH1 0x0 DUP1 PUSH2 0x9EB DUP7 PUSH1 0x20 ADD MLOAD DUP12 DUP12 DUP8 DUP2 DUP2 LT PUSH2 0x9DA JUMPI INVALID JUMPDEST SWAP1 POP PUSH1 0x20 MUL ADD CALLDATALOAD DUP8 PUSH1 0x0 DUP8 SGT PUSH2 0x138B JUMP JUMPDEST SWAP1 SWAP3 POP SWAP1 POP PUSH2 0xA10 PUSH2 0xA05 PUSH2 0xA00 DUP4 DUP6 PUSH2 0x1468 JUMP JUMPDEST PUSH2 0x147E JUMP JUMPDEST PUSH1 0x80 DUP9 ADD MLOAD SWAP1 PUSH2 0x149F JUMP JUMPDEST DUP7 PUSH1 0xE0 ADD MLOAD DUP6 DUP2 MLOAD DUP2 LT PUSH2 0xA20 JUMPI INVALID JUMPDEST PUSH1 0x20 MUL PUSH1 0x20 ADD ADD DUP2 DUP2 MSTORE POP POP PUSH2 0xA70 DUP7 PUSH1 0xE0 ADD MLOAD DUP6 DUP2 MLOAD DUP2 LT PUSH2 0xA3F JUMPI INVALID JUMPDEST PUSH1 0x20 MUL PUSH1 0x20 ADD ADD MLOAD PUSH2 0xA50 DUP6 PUSH2 0x147E JUMP JUMPDEST PUSH2 0xA6B DUP12 DUP12 DUP10 DUP2 DUP2 LT PUSH2 0xA5F JUMPI INVALID JUMPDEST SWAP1 POP PUSH1 0x20 MUL ADD CALLDATALOAD PUSH2 0x14B8 JUMP JUMPDEST PUSH2 0x14D2 JUMP JUMPDEST DUP7 PUSH1 0xE0 ADD MLOAD DUP6 DUP2 MLOAD DUP2 LT PUSH2 0xA80 JUMPI INVALID JUMPDEST PUSH1 0x20 MUL PUSH1 0x20 ADD ADD DUP2 DUP2 MSTORE POP POP PUSH1 0x0 PUSH2 0xAB8 DUP3 DUP9 PUSH1 0xE0 ADD MLOAD DUP8 DUP2 MLOAD DUP2 LT PUSH2 0xAA2 JUMPI INVALID JUMPDEST PUSH1 0x20 MUL PUSH1 0x20 ADD ADD MLOAD PUSH2 0x151C SWAP1 SWAP2 SWAP1 PUSH4 0xFFFFFFFF AND JUMP JUMPDEST SWAP1 POP PUSH1 0x0 DUP5 SLT ISZERO PUSH2 0xB6B JUMPI DUP7 PUSH1 0x60 ADD MLOAD DUP2 SGT ISZERO PUSH2 0xB23 JUMPI PUSH2 0xB01 DUP2 PUSH2 0x8ED DUP10 PUSH1 0x60 ADD MLOAD DUP11 PUSH1 0xE0 ADD MLOAD DUP10 DUP2 MLOAD DUP2 LT PUSH2 0xAEB JUMPI INVALID JUMPDEST PUSH1 0x20 MUL PUSH1 0x20 ADD ADD MLOAD PUSH2 0x1219 SWAP1 SWAP2 SWAP1 PUSH4 0xFFFFFFFF AND JUMP JUMPDEST DUP8 PUSH1 0xE0 ADD MLOAD DUP7 DUP2 MLOAD DUP2 LT PUSH2 0xB11 JUMPI INVALID JUMPDEST PUSH1 0x20 SWAP1 DUP2 MUL SWAP2 SWAP1 SWAP2 ADD ADD MSTORE POP PUSH1 0x60 DUP7 ADD MLOAD JUMPDEST PUSH2 0xB43 DUP8 PUSH1 0xE0 ADD MLOAD DUP7 DUP2 MLOAD DUP2 LT PUSH2 0xB36 JUMPI INVALID JUMPDEST PUSH1 0x20 MUL PUSH1 0x20 ADD ADD MLOAD PUSH2 0xCCC JUMP JUMPDEST DUP8 PUSH1 0xE0 ADD MLOAD DUP7 DUP2 MLOAD DUP2 LT PUSH2 0xB53 JUMPI INVALID JUMPDEST PUSH1 0x20 MUL PUSH1 0x20 ADD ADD DUP2 DUP2 MSTORE POP POP PUSH2 0xB68 DUP2 PUSH2 0xCCC JUMP JUMPDEST SWAP1 POP JUMPDEST PUSH1 0xA0 DUP8 ADD MLOAD PUSH2 0xB7A SWAP1 DUP3 PUSH2 0x1535 JUMP JUMPDEST PUSH1 0xA0 DUP9 ADD MSTORE PUSH1 0x60 DUP8 ADD MLOAD PUSH2 0xB8E SWAP1 DUP3 PUSH2 0x1535 JUMP JUMPDEST PUSH1 0x60 DUP9 ADD MSTORE PUSH2 0xBC1 PUSH2 0xBB6 PUSH2 0xA00 PUSH2 0xBA6 DUP6 DUP8 PUSH2 0x1468 JUMP JUMPDEST DUP11 PUSH1 0xE0 ADD MLOAD DUP10 DUP2 MLOAD DUP2 LT PUSH2 0xAA2 JUMPI INVALID JUMPDEST PUSH1 0x80 DUP10 ADD MLOAD SWAP1 PUSH2 0x1468 JUMP JUMPDEST PUSH1 0x80 DUP9 ADD DUP2 SWAP1 MSTORE PUSH1 0x0 SLT PUSH2 0xBD8 JUMPI POP POP POP POP PUSH2 0xBE5 JUMP JUMPDEST POP POP POP POP JUMPDEST PUSH1 0x1 ADD PUSH2 0x93A JUMP JUMPDEST POP PUSH1 0xA0 DUP3 ADD MLOAD PUSH1 0x20 DUP4 ADD MLOAD PUSH2 0x100 ADD MLOAD PUSH2 0xBFE SWAP2 PUSH2 0x154B JUMP JUMPDEST PUSH1 0xA0 SWAP1 SWAP3 ADD SWAP2 SWAP1 SWAP2 MSTORE POP POP POP POP POP POP POP JUMP JUMPDEST PUSH2 0xC18 PUSH2 0x4BDF JUMP JUMPDEST PUSH2 0xC23 DUP3 PUSH1 0x0 PUSH2 0x1576 JUMP JUMPDEST SWAP1 POP JUMPDEST SWAP2 SWAP1 POP JUMP JUMPDEST PUSH2 0xC33 PUSH2 0x4AC4 JUMP JUMPDEST PUSH1 0x0 PUSH2 0xC3D PUSH2 0x1624 JUMP JUMPDEST PUSH1 0x1 PUSH1 0x1 PUSH1 0xA0 SHL SUB SWAP4 SWAP1 SWAP4 AND PUSH1 0x0 SWAP1 DUP2 MSTORE PUSH1 0x20 SWAP4 DUP5 MSTORE PUSH1 0x40 SWAP1 DUP2 SWAP1 KECCAK256 DUP2 MLOAD PUSH1 0xA0 DUP2 ADD DUP4 MSTORE SWAP1 SLOAD PUSH5 0xFFFFFFFFFF DUP2 AND DUP3 MSTORE PUSH6 0x10000000000 DUP2 DIV PUSH1 0xF8 SHL PUSH1 0x1 PUSH1 0x1 PUSH1 0xF8 SHL SUB NOT AND SWAP6 DUP3 ADD SWAP6 SWAP1 SWAP6 MSTORE PUSH1 0x1 PUSH1 0x30 SHL DUP6 DIV PUSH1 0xFF AND SWAP2 DUP2 ADD SWAP2 SWAP1 SWAP2 MSTORE PUSH1 0x1 PUSH1 0x38 SHL DUP5 DIV PUSH2 0xFFFF AND PUSH1 0x60 DUP3 ADD MSTORE PUSH1 0x1 PUSH1 0x48 SHL SWAP1 SWAP4 DIV PUSH1 0x70 SHL PUSH1 0x1 PUSH1 0x1 PUSH1 0x70 SHL SUB NOT AND PUSH1 0x80 DUP5 ADD MSTORE POP SWAP1 SWAP2 SWAP1 POP JUMP JUMPDEST PUSH1 0x0 PUSH2 0xC23 PUSH1 0x0 NOT DUP4 PUSH2 0x1219 JUMP JUMPDEST PUSH1 0x0 DUP1 PUSH1 0x0 DUP1 PUSH2 0xCEE DUP9 DUP8 PUSH2 0xFFFF AND PUSH2 0x816 JUMP JUMPDEST SWAP3 SWAP7 POP SWAP1 SWAP5 POP SWAP3 POP SWAP1 POP PUSH1 0x0 PUSH2 0xD04 DUP6 DUP8 PUSH2 0x1535 JUMP JUMPDEST SWAP1 POP PUSH1 0x0 DUP2 SLT ISZERO PUSH2 0xD48 JUMPI PUSH1 0x0 DUP7 SGT PUSH2 0xD2F JUMPI PUSH1 0x40 MLOAD PUSH3 0x461BCD PUSH1 0xE5 SHL DUP2 MSTORE PUSH1 0x4 ADD PUSH2 0x144 SWAP1 PUSH2 0x5474 JUMP JUMPDEST PUSH1 0x20 DUP9 ADD DUP1 MLOAD PUSH1 0x1 PUSH1 0xF9 SHL OR PUSH1 0x1 PUSH1 0x1 PUSH1 0xF8 SHL SUB NOT AND SWAP1 MSTORE JUMPDEST PUSH1 0x0 DUP2 ISZERO ISZERO DUP1 PUSH2 0xD57 JUMPI POP DUP5 ISZERO ISZERO JUMPDEST SWAP1 POP PUSH2 0xD6D DUP10 PUSH2 0xFFFF DUP11 AND DUP4 PUSH1 0x1 PUSH1 0xFE SHL PUSH2 0x1631 JUMP JUMPDEST DUP8 PUSH2 0xFFFF AND DUP11 PUSH1 0x1 PUSH1 0x1 PUSH1 0xA0 SHL SUB AND PUSH32 0x5441E4A5FAC93A951D782E6F1CDB82E95C8FC58561A013953D17E395C5E69B4B DUP10 PUSH1 0x40 MLOAD PUSH2 0xDAB SWAP2 SWAP1 PUSH2 0x5315 JUMP JUMPDEST PUSH1 0x40 MLOAD DUP1 SWAP2 SUB SWAP1 LOG3 PUSH2 0xDC5 DUP11 DUP10 PUSH2 0xFFFF AND DUP5 DUP9 DUP9 DUP9 PUSH2 0x1831 JUMP JUMPDEST POP POP POP POP POP POP POP POP POP POP JUMP JUMPDEST PUSH1 0x0 PUSH4 0x5F5E100 DUP4 PUSH1 0x40 ADD MLOAD EQ ISZERO PUSH2 0xDEA JUMPI POP DUP1 PUSH2 0x8F7 JUMP JUMPDEST PUSH2 0xE09 PUSH4 0x5F5E100 PUSH2 0x8ED DUP6 PUSH1 0x40 ADD MLOAD DUP6 PUSH2 0x1219 SWAP1 SWAP2 SWAP1 PUSH4 0xFFFFFFFF AND JUMP JUMPDEST SWAP4 SWAP3 POP POP POP JUMP JUMPDEST DUP1 PUSH1 0x5 DUP6 PUSH1 0x60 ADD MLOAD PUSH1 0x5 DUP2 GT ISZERO PUSH2 0xE23 JUMPI INVALID JUMPDEST EQ ISZERO PUSH2 0xE48 JUMPI PUSH1 0x0 PUSH2 0xE34 DUP5 PUSH2 0x1979 JUMP JUMPDEST SWAP1 POP PUSH2 0xE44 DUP2 PUSH1 0x0 ADD MLOAD DUP5 PUSH2 0x198C JUMP JUMPDEST SWAP3 POP POP JUMPDEST PUSH1 0x0 DUP3 SGT ISZERO PUSH2 0xE74 JUMPI PUSH1 0x0 PUSH2 0xE5E DUP7 DUP7 DUP6 PUSH2 0x1A1E JUMP JUMPDEST SWAP1 POP DUP6 PUSH1 0x20 ADD MLOAD ISZERO PUSH2 0xE6E JUMPI DUP1 SWAP2 POP JUMPDEST POP PUSH2 0xEB8 JUMP JUMPDEST PUSH1 0x3 DUP6 PUSH1 0x60 ADD MLOAD PUSH1 0x5 DUP2 GT ISZERO PUSH2 0xE86 JUMPI INVALID JUMPDEST EQ ISZERO PUSH2 0xEA3 JUMPI PUSH2 0xE9E DUP5 PUSH2 0xE99 DUP5 PUSH2 0xCCC JUMP JUMPDEST PUSH2 0x1B0C JUMP JUMPDEST PUSH2 0xEB8 JUMP JUMPDEST DUP5 MLOAD PUSH2 0xEB8 SWAP1 DUP6 PUSH2 0xEB3 DUP6 PUSH2 0xCCC JUMP JUMPDEST PUSH2 0x1B47 JUMP JUMPDEST SWAP5 SWAP4 POP POP POP POP JUMP JUMPDEST PUSH1 0x0 PUSH2 0xECA PUSH2 0x4AC4 JUMP JUMPDEST PUSH1 0x0 DUP1 PUSH2 0xEDD DUP9 DUP9 DUP9 DUP9 PUSH1 0xE0 ADD MLOAD PUSH2 0x1BBE JUMP JUMPDEST SWAP2 POP SWAP2 POP PUSH2 0xEEC DUP11 DUP11 DUP5 PUSH2 0x1CBC JUMP JUMPDEST SWAP9 POP PUSH2 0xEF7 DUP3 PUSH2 0x1D3D JUMP JUMPDEST DUP5 MLOAD PUSH2 0xF02 SWAP1 PUSH2 0x1D90 JUMP JUMPDEST ISZERO PUSH2 0xF1B JUMPI PUSH2 0xF16 DUP12 DUP7 PUSH1 0x0 ADD MLOAD DUP5 PUSH2 0x1D9D JUMP JUMPDEST PUSH2 0xF3E JUMP JUMPDEST PUSH1 0x40 DUP6 ADD MLOAD PUSH2 0xF2A SWAP1 DUP4 PUSH2 0x1E65 JUMP JUMPDEST PUSH1 0x40 DUP6 ADD MLOAD DUP6 MLOAD PUSH2 0xF3E SWAP2 DUP14 SWAP1 PUSH1 0x0 PUSH2 0x1EC3 JUMP JUMPDEST SWAP11 SWAP8 SWAP10 POP SWAP7 SWAP8 POP POP POP POP POP POP POP POP JUMP JUMPDEST PUSH1 0x0 PUSH2 0xF58 PUSH2 0x1624 JUMP JUMPDEST PUSH1 0x1 PUSH1 0x1 PUSH1 0xA0 SHL SUB DUP4 AND PUSH1 0x0 DUP2 DUP2 MSTORE PUSH1 0x20 DUP4 DUP2 MSTORE PUSH1 0x40 DUP1 DUP4 KECCAK256 DUP9 MLOAD DUP2 SLOAD SWAP4 DUP11 ADD MLOAD DUP4 DUP12 ADD MLOAD PUSH1 0x60 DUP13 ADD MLOAD PUSH1 0x80 DUP14 ADD MLOAD PUSH1 0x70 SHR PUSH1 0x1 PUSH1 0x48 SHL MUL PUSH27 0xFFFFFFFFFFFFFFFFFFFFFFFFFFFFFFFFFFFF000000000000000000 NOT PUSH2 0xFFFF SWAP1 SWAP3 AND PUSH1 0x1 PUSH1 0x38 SHL MUL PUSH9 0xFFFF00000000000000 NOT PUSH1 0xFF SWAP5 SWAP1 SWAP5 AND PUSH1 0x1 PUSH1 0x30 SHL MUL PUSH7 0xFF000000000000 NOT PUSH1 0xF8 SWAP7 SWAP1 SWAP7 SHR PUSH6 0x10000000000 MUL PUSH6 0xFF0000000000 NOT PUSH5 0xFFFFFFFFFF SWAP1 SWAP9 AND PUSH5 0xFFFFFFFFFF NOT SWAP1 SWAP12 AND SWAP11 SWAP1 SWAP11 OR SWAP7 SWAP1 SWAP7 AND SWAP9 SWAP1 SWAP9 OR SWAP4 SWAP1 SWAP4 AND SWAP4 SWAP1 SWAP4 OR AND SWAP5 SWAP1 SWAP5 OR AND SWAP3 SWAP1 SWAP3 OR SWAP1 SWAP2 SSTORE MLOAD SWAP3 SWAP4 POP SWAP1 SWAP2 PUSH32 0x6BD4B121BCA854A191536A2CA891155C42EE2FB23F307FB34E8BC65CFCB5412E SWAP2 SWAP1 LOG2 POP POP POP JUMP JUMPDEST PUSH1 0x0 DUP3 PUSH1 0x20 ADD MLOAD PUSH1 0x40 ADD MLOAD SLT PUSH2 0x1067 JUMPI PUSH1 0x0 DUP1 REVERT JUMPDEST PUSH1 0x0 DUP3 PUSH1 0x20 ADD MLOAD PUSH1 0x60 ADD MLOAD SGT PUSH2 0x107C JUMPI PUSH1 0x0 DUP1 REVERT JUMPDEST DUP5 PUSH1 0x1 PUSH1 0x1 PUSH1 0x40 SHL SUB DUP2 GT DUP1 ISZERO PUSH2 0x1092 JUMPI PUSH1 0x0 DUP1 REVERT JUMPDEST POP PUSH1 0x40 MLOAD SWAP1 DUP1 DUP3 MSTORE DUP1 PUSH1 0x20 MUL PUSH1 0x20 ADD DUP3 ADD PUSH1 0x40 MSTORE DUP1 ISZERO PUSH2 0x10BC JUMPI DUP2 PUSH1 0x20 ADD PUSH1 0x20 DUP3 MUL DUP1 CALLDATASIZE DUP4 CALLDATACOPY ADD SWAP1 POP JUMPDEST POP PUSH1 0xE0 DUP4 ADD MSTORE PUSH1 0x20 DUP3 ADD MLOAD PUSH2 0x10D0 SWAP1 PUSH2 0x1F9A JUMP JUMPDEST PUSH1 0xC0 DUP5 ADD MSTORE PUSH1 0x80 DUP4 ADD DUP2 SWAP1 MSTORE PUSH1 0x20 DUP4 ADD MLOAD PUSH2 0x120 ADD MLOAD PUSH1 0x40 ADD MLOAD PUSH2 0x10F3 SWAP2 PUSH2 0x8C2 JUMP JUMPDEST PUSH1 0x80 DUP4 ADD MSTORE PUSH1 0x0 JUMPDEST DUP6 DUP2 LT ISZERO PUSH2 0x11F3 JUMPI DUP1 ISZERO PUSH2 0x113C JUMPI DUP7 DUP7 DUP3 DUP2 DUP2 LT PUSH2 0x1115 JUMPI INVALID JUMPDEST SWAP1 POP PUSH1 0x20 MUL ADD CALLDATALOAD DUP8 DUP8 PUSH1 0x1 DUP5 SUB DUP2 DUP2 LT PUSH2 0x112B JUMPI INVALID JUMPDEST SWAP1 POP PUSH1 0x20 MUL ADD CALLDATALOAD GT PUSH2 0x113C JUMPI PUSH1 0x0 DUP1 REVERT JUMPDEST PUSH1 0x0 PUSH2 0x1150 DUP11 DUP6 DUP12 DUP12 DUP12 DUP8 DUP2 DUP2 LT PUSH2 0x98F JUMPI INVALID JUMPDEST SWAP1 POP DUP1 PUSH2 0x115D JUMPI POP PUSH2 0x11EB JUMP JUMPDEST PUSH1 0x0 DUP2 SGT PUSH2 0x116A JUMPI PUSH1 0x0 DUP1 REVERT JUMPDEST PUSH2 0x1197 DUP5 DUP10 DUP10 DUP6 DUP2 DUP2 LT PUSH2 0x117A JUMPI INVALID JUMPDEST SWAP1 POP PUSH1 0x20 MUL ADD CALLDATALOAD DUP6 PUSH2 0x1191 DUP11 DUP11 DUP9 DUP2 DUP2 LT PUSH2 0xA5F JUMPI INVALID JUMPDEST DUP6 PUSH2 0x1FEE JUMP JUMPDEST DUP5 PUSH1 0xE0 ADD MLOAD DUP4 DUP2 MLOAD DUP2 LT PUSH2 0x11A7 JUMPI INVALID JUMPDEST PUSH1 0x20 MUL PUSH1 0x20 ADD ADD DUP2 DUP2 MSTORE POP POP PUSH1 0x0 DUP5 PUSH1 0x80 ADD MLOAD SGT ISZERO DUP1 PUSH2 0x11CD JUMPI POP PUSH1 0x20 DUP5 ADD MLOAD PUSH1 0x60 ADD MLOAD ISZERO JUMPDEST DUP1 PUSH2 0x11DE JUMPI POP PUSH1 0x20 DUP5 ADD MLOAD PUSH1 0x40 ADD MLOAD ISZERO JUMPDEST ISZERO PUSH2 0x11E9 JUMPI POP PUSH2 0x11F3 JUMP JUMPDEST POP JUMPDEST PUSH1 0x1 ADD PUSH2 0x10FB JUMP JUMPDEST POP POP POP POP POP POP POP POP POP JUMP JUMPDEST PUSH1 0x0 DUP1 PUSH2 0x8F7 PUSH1 0x6 PUSH2 0x20FB JUMP JUMPDEST PUSH1 0x8 DUP2 SWAP1 SHR PUSH1 0xFF SWAP1 SWAP2 AND SHL SWAP1 JUMP JUMPDEST DUP2 DUP2 MUL PUSH1 0x0 NOT DUP4 EQ ISZERO PUSH2 0x1249 JUMPI DUP2 ISZERO DUP1 PUSH2 0x123B JUMPI POP DUP3 DUP3 DUP3 DUP2 PUSH2 0x1238 JUMPI INVALID JUMPDEST SDIV EQ JUMPDEST PUSH2 0x1244 JUMPI PUSH1 0x0 DUP1 REVERT JUMPDEST PUSH2 0x8F7 JUMP JUMPDEST DUP3 ISZERO DUP1 PUSH2 0x125E JUMPI POP DUP2 DUP4 DUP3 DUP2 PUSH2 0x125B JUMPI INVALID JUMPDEST SDIV EQ JUMPDEST PUSH2 0x8F7 JUMPI PUSH1 0x0 DUP1 REVERT JUMPDEST PUSH1 0x0 DUP2 PUSH1 0x0 NOT EQ DUP1 ISZERO PUSH2 0x127D JUMPI POP PUSH1 0x1 PUSH1 0xFF SHL DUP4 EQ JUMPDEST ISZERO PUSH2 0x1287 JUMPI PUSH1 0x0 DUP1 REVERT JUMPDEST DUP2 DUP4 DUP2 PUSH2 0x1290 JUMPI INVALID JUMPDEST SDIV SWAP4 SWAP3 POP POP POP JUMP JUMPDEST PUSH1 0x0 DUP1 PUSH1 0x0 DUP6 SGT PUSH2 0x12AD JUMPI DUP3 PUSH1 0x40 ADD MLOAD PUSH2 0x12B3 JUMP JUMPDEST DUP3 PUSH1 0x60 ADD MLOAD JUMPDEST SWAP1 POP PUSH1 0x0 DUP2 SGT PUSH2 0x12C2 JUMPI PUSH1 0x0 DUP1 REVERT JUMPDEST PUSH2 0x12E4 DUP2 PUSH2 0x8ED PUSH1 0x64 PUSH2 0x12DE PUSH2 0x12D7 DUP10 PUSH2 0xCCC JUMP JUMPDEST DUP9 SWAP1 PUSH2 0x2114 JUMP JUMPDEST SWAP1 PUSH2 0x1219 JUMP JUMPDEST SWAP6 SWAP5 POP POP POP POP POP JUMP JUMPDEST DUP3 MLOAD PUSH1 0x60 ADD MLOAD PUSH1 0x0 SWAP1 PUSH2 0xFFFF AND DUP4 EQ ISZERO PUSH2 0x1313 JUMPI PUSH2 0x130C DUP6 DUP5 DUP5 PUSH2 0x2136 JUMP JUMPDEST SWAP1 POP PUSH2 0xEB8 JUMP JUMPDEST PUSH1 0x40 DUP5 ADD MLOAD MLOAD DUP1 MLOAD JUMPDEST PUSH1 0x0 NOT DUP2 ADD SWAP1 ISZERO PUSH2 0x137E JUMPI PUSH1 0x0 DUP3 DUP3 DUP2 MLOAD DUP2 LT PUSH2 0x1335 JUMPI INVALID JUMPDEST PUSH1 0x20 MUL PUSH1 0x20 ADD ADD MLOAD SWAP1 POP DUP6 DUP2 PUSH1 0x0 ADD MLOAD EQ DUP1 ISZERO PUSH2 0x1356 JUMPI POP PUSH1 0x40 DUP2 ADD MLOAD PUSH1 0x1 EQ JUMPDEST DUP1 ISZERO PUSH2 0x1365 JUMPI POP DUP5 DUP2 PUSH1 0x20 ADD MLOAD EQ JUMPDEST ISZERO PUSH2 0x1378 JUMPI PUSH1 0x60 ADD MLOAD SWAP3 POP PUSH2 0xEB8 SWAP2 POP POP JUMP JUMPDEST POP PUSH2 0x131C JUMP JUMPDEST POP PUSH1 0x0 SWAP7 SWAP6 POP POP POP POP POP POP JUMP JUMPDEST PUSH1 0x0 DUP1 PUSH1 0x0 PUSH2 0x13AA DUP7 DUP7 DUP10 PUSH2 0x120 ADD MLOAD PUSH2 0x217B SWAP1 SWAP3 SWAP2 SWAP1 PUSH4 0xFFFFFFFF AND JUMP JUMPDEST SWAP1 POP PUSH1 0x0 PUSH2 0x13B8 DUP8 DUP8 PUSH2 0x2261 JUMP JUMPDEST SWAP1 POP DUP5 ISZERO PUSH2 0x13FF JUMPI PUSH2 0x13E1 DUP2 PUSH2 0x13DC PUSH2 0x13D5 DUP12 PUSH2 0x120 ADD MLOAD PUSH2 0x22BE JUMP JUMPDEST DUP6 SWAP1 PUSH2 0x22D3 JUMP JUMPDEST PUSH2 0x232D JUMP JUMPDEST SWAP4 POP PUSH2 0x13F8 DUP2 PUSH2 0x13DC PUSH2 0x13D5 DUP12 PUSH2 0x120 ADD MLOAD PUSH2 0x23A0 JUMP JUMPDEST SWAP3 POP PUSH2 0x145D JUMP JUMPDEST PUSH1 0x0 PUSH2 0x140F DUP10 PUSH2 0x120 ADD MLOAD PUSH2 0x23B5 JUMP JUMPDEST SWAP1 POP PUSH2 0x1432 DUP3 DUP3 DUP6 LT PUSH2 0x142B JUMPI PUSH2 0x1426 DUP6 DUP5 PUSH2 0x2261 JUMP JUMPDEST PUSH2 0x13DC JUMP JUMPDEST PUSH1 0x0 PUSH2 0x232D JUMP JUMPDEST SWAP5 POP PUSH2 0x1442 DUP10 PUSH2 0x120 ADD MLOAD PUSH2 0x23CA JUMP JUMPDEST SWAP1 POP PUSH2 0x1459 DUP3 DUP3 DUP6 LT PUSH2 0x142B JUMPI PUSH2 0x1426 DUP6 DUP5 PUSH2 0x2261 JUMP JUMPDEST SWAP4 POP POP JUMPDEST POP POP SWAP5 POP SWAP5 SWAP3 POP POP POP JUMP JUMPDEST DUP1 DUP3 SUB DUP3 DUP2 SGT ISZERO PUSH1 0x0 DUP4 SLT ISZERO EQ PUSH2 0x8F7 JUMPI PUSH1 0x0 DUP1 REVERT JUMPDEST PUSH1 0x0 DUP1 DUP3 SLT ISZERO PUSH2 0x1498 JUMPI PUSH2 0x1491 DUP3 PUSH2 0xCCC JUMP JUMPDEST SWAP1 POP PUSH2 0xC26 JUMP JUMPDEST POP DUP1 PUSH2 0xC26 JUMP JUMPDEST PUSH1 0x0 PUSH2 0xE09 PUSH2 0x14B2 DUP5 PUSH4 0x3B9ACA00 PUSH2 0x1219 JUMP JUMPDEST DUP4 PUSH2 0x1267 JUMP JUMPDEST PUSH1 0x0 PUSH1 0x1 PUSH1 0x1 PUSH1 0xFF SHL SUB DUP3 GT ISZERO PUSH2 0x14CE JUMPI PUSH1 0x0 DUP1 REVERT JUMPDEST POP SWAP1 JUMP JUMPDEST PUSH1 0x0 DUP1 PUSH2 0x14E5 PUSH1 0x64 PUSH2 0x8ED DUP7 PUSH1 0x28 PUSH2 0x1219 JUMP JUMPDEST SWAP1 POP DUP5 DUP5 DUP2 SGT ISZERO PUSH2 0x14F3 JUMPI POP DUP4 JUMPDEST DUP2 DUP7 SLT ISZERO PUSH2 0x14FE JUMPI POP DUP1 JUMPDEST PUSH1 0x0 DUP5 SGT DUP1 ISZERO PUSH2 0x150D JUMPI POP DUP4 DUP2 SGT JUMPDEST ISZERO PUSH2 0x12E4 JUMPI POP SWAP2 SWAP5 SWAP4 POP POP POP POP JUMP JUMPDEST PUSH1 0x0 PUSH2 0xE09 PUSH2 0x152B DUP5 DUP5 PUSH2 0x1219 JUMP JUMPDEST PUSH4 0x3B9ACA00 PUSH2 0x1267 JUMP JUMPDEST DUP2 DUP2 ADD DUP3 DUP2 SLT ISZERO PUSH1 0x0 DUP4 SLT ISZERO EQ PUSH2 0x8F7 JUMPI PUSH1 0x0 DUP1 REVERT JUMPDEST PUSH1 0x0 DUP1 PUSH2 0x8F3 DUP5 PUSH1 0x20 ADD MLOAD PUSH2 0x8ED DUP7 PUSH1 0x40 ADD MLOAD PUSH2 0x12DE PUSH5 0x2540BE400 DUP9 PUSH2 0x1219 SWAP1 SWAP2 SWAP1 PUSH4 0xFFFFFFFF AND JUMP JUMPDEST PUSH2 0x157E PUSH2 0x4BDF JUMP JUMPDEST PUSH1 0x0 PUSH2 0x1588 PUSH2 0x23DF JUMP JUMPDEST PUSH1 0x0 DUP6 DUP2 MSTORE PUSH1 0x20 DUP3 DUP2 MSTORE PUSH1 0x40 DUP1 DUP4 KECCAK256 DUP8 ISZERO ISZERO DUP5 MSTORE DUP3 MSTORE SWAP2 DUP3 SWAP1 KECCAK256 DUP3 MLOAD PUSH1 0xA0 DUP2 ADD DUP5 MSTORE DUP2 SLOAD PUSH1 0x1 PUSH1 0x1 PUSH1 0xA0 SHL SUB DUP2 AND DUP3 MSTORE PUSH1 0xFF PUSH1 0x1 PUSH1 0xA0 SHL DUP3 DIV DUP2 AND ISZERO ISZERO SWAP5 DUP4 ADD SWAP5 SWAP1 SWAP5 MSTORE PUSH1 0x1 PUSH1 0xB0 SHL DUP2 DIV DUP5 AND PUSH1 0xA EXP SWAP5 DUP3 ADD SWAP5 SWAP1 SWAP5 MSTORE SWAP4 SWAP5 POP SWAP3 SWAP2 PUSH1 0x60 DUP4 ADD SWAP2 PUSH1 0x1 PUSH1 0xA8 SHL SWAP1 SWAP2 DIV AND PUSH1 0x5 DUP2 GT ISZERO PUSH2 0x15FD JUMPI INVALID JUMPDEST DUP2 MSTORE SWAP2 SLOAD PUSH1 0x1 PUSH1 0xB8 SHL SWAP1 DIV PUSH9 0xFFFFFFFFFFFFFFFFFF AND PUSH1 0x20 SWAP1 SWAP3 ADD SWAP2 SWAP1 SWAP2 MSTORE SWAP5 SWAP4 POP POP POP POP JUMP JUMPDEST PUSH1 0x0 DUP1 PUSH2 0x8F7 PUSH1 0x1 PUSH2 0x20FB JUMP JUMPDEST DUP3 PUSH1 0x0 LT DUP1 ISZERO PUSH2 0x1643 JUMPI POP PUSH2 0x3FFF DUP4 GT ISZERO JUMPDEST PUSH2 0x164C JUMPI PUSH1 0x0 DUP1 REVERT JUMPDEST DUP2 DUP1 ISZERO PUSH2 0x1660 JUMPI POP DUP3 DUP5 PUSH1 0x60 ADD MLOAD PUSH2 0xFFFF AND EQ JUMPDEST ISZERO PUSH2 0x166A JUMPI PUSH2 0x182B JUMP JUMPDEST PUSH1 0x80 DUP5 ADD MLOAD PUSH1 0x0 SWAP1 DUP2 JUMPDEST PUSH1 0x1 PUSH1 0x1 PUSH1 0x70 SHL SUB NOT DUP3 AND ISZERO PUSH2 0x17E5 JUMPI PUSH1 0xF0 DUP3 SWAP1 SHR PUSH2 0x3FFF AND DUP7 DUP2 EQ DUP1 ISZERO PUSH2 0x1699 JUMPI POP DUP6 JUMPDEST ISZERO PUSH2 0x16D1 JUMPI POP PUSH1 0x80 DUP8 ADD DUP1 MLOAD PUSH1 0x1 PUSH1 0x1 PUSH1 0xF0 SHL SUB NOT DUP7 AND PUSH1 0x10 SWAP1 SWAP4 MUL SWAP3 SWAP1 SWAP3 SHR SWAP2 SWAP1 SWAP2 OR PUSH1 0x1 PUSH1 0x1 PUSH1 0x70 SHL SUB NOT AND SWAP1 MSTORE POP PUSH2 0x182B SWAP1 POP JUMP JUMPDEST DUP7 DUP2 EQ DUP1 ISZERO PUSH2 0x16DE JUMPI POP DUP6 ISZERO JUMPDEST ISZERO PUSH2 0x1733 JUMPI PUSH1 0x1 PUSH1 0x1 PUSH1 0xF0 SHL SUB NOT DUP6 AND NOT SWAP3 SWAP1 SWAP3 AND SWAP2 PUSH1 0x3 PUSH1 0xFE SHL DUP4 AND PUSH2 0x1711 JUMPI PUSH1 0x10 DUP4 PUSH1 0x1 PUSH1 0x1 PUSH1 0x70 SHL SUB NOT AND SWAP1 SHL SWAP3 POP JUMPDEST POP PUSH1 0x1 PUSH1 0x1 PUSH1 0x70 SHL SUB NOT SWAP2 DUP3 AND PUSH1 0x10 SWAP1 SWAP2 MUL SHR SWAP2 SWAP1 SWAP2 OR AND PUSH1 0x80 DUP6 ADD MSTORE PUSH2 0x182B JUMP JUMPDEST DUP7 DUP2 GT DUP1 ISZERO PUSH2 0x173F JUMPI POP DUP6 JUMPDEST ISZERO PUSH2 0x1799 JUMPI PUSH1 0x80 DUP9 DUP2 ADD MLOAD PUSH1 0x1 PUSH1 0x1 PUSH1 0xF0 SHL SUB NOT PUSH1 0xF0 DUP11 SWAP1 SHL DUP9 OR DUP2 AND PUSH1 0x10 DUP7 MUL SHR SWAP7 SWAP1 SWAP7 OR SWAP6 SWAP2 SHL AND ISZERO PUSH2 0x1773 JUMPI PUSH1 0x0 DUP1 REVERT JUMPDEST POP PUSH1 0x1 PUSH1 0x1 PUSH1 0x70 SHL SUB NOT SWAP2 DUP3 AND PUSH1 0x1 SWAP2 SWAP1 SWAP2 ADD PUSH1 0x10 MUL SHR SWAP2 SWAP1 SWAP2 OR AND PUSH1 0x80 DUP6 ADD MSTORE PUSH2 0x182B JUMP JUMPDEST DUP7 DUP2 GT DUP1 ISZERO PUSH2 0x17A6 JUMPI POP DUP6 ISZERO JUMPDEST ISZERO PUSH2 0x17B4 JUMPI POP POP POP POP PUSH2 0x182B JUMP JUMPDEST POP PUSH1 0x1 PUSH1 0x1 PUSH1 0xF0 SHL SUB NOT DUP3 AND PUSH1 0x10 DUP3 DUP2 MUL SWAP2 SWAP1 SWAP2 SHR SWAP4 SWAP1 SWAP4 OR SWAP3 SWAP2 SWAP1 SWAP2 SHL PUSH1 0x1 PUSH1 0x1 PUSH1 0x80 SHL SUB NOT AND SWAP1 PUSH1 0x1 ADD PUSH2 0x1674 JUMP JUMPDEST DUP5 PUSH2 0x17F2 JUMPI POP POP POP PUSH2 0x182B JUMP JUMPDEST PUSH1 0x9 DUP2 LT PUSH2 0x17FF JUMPI PUSH1 0x0 DUP1 REVERT JUMPDEST PUSH1 0x1 PUSH1 0x1 PUSH1 0xF0 SHL SUB NOT PUSH1 0xF0 DUP8 SWAP1 SHL DUP6 OR AND PUSH1 0x10 SWAP1 SWAP2 MUL SHR SWAP2 SWAP1 SWAP2 OR PUSH1 0x1 PUSH1 0x1 PUSH1 0x70 SHL SUB NOT AND PUSH1 0x80 DUP7 ADD MSTORE POP JUMPDEST POP POP POP POP JUMP JUMPDEST PUSH1 0x0 PUSH2 0x183B PUSH2 0x11FE JUMP JUMPDEST PUSH1 0x1 PUSH1 0x1 PUSH1 0xA0 SHL SUB DUP9 AND PUSH1 0x0 SWAP1 DUP2 MSTORE PUSH1 0x20 DUP3 DUP2 MSTORE PUSH1 0x40 DUP1 DUP4 KECCAK256 DUP11 DUP5 MSTORE SWAP1 SWAP2 MSTORE SWAP1 KECCAK256 SWAP1 SWAP2 POP PUSH1 0x1 PUSH1 0x1 PUSH1 0x57 SHL SUB NOT DUP7 SLT DUP1 ISZERO SWAP1 PUSH2 0x187E JUMPI POP PUSH1 0x1 PUSH1 0x1 PUSH1 0x57 SHL SUB DUP7 SGT ISZERO JUMPDEST PUSH2 0x1887 JUMPI PUSH1 0x0 DUP1 REVERT JUMPDEST PUSH1 0x0 DUP6 SLT ISZERO DUP1 ISZERO PUSH2 0x18A2 JUMPI POP PUSH10 0xFFFFFFFFFFFFFFFFFFFF DUP6 SGT ISZERO JUMPDEST PUSH2 0x18AB JUMPI PUSH1 0x0 DUP1 REVERT JUMPDEST DUP4 PUSH2 0x18EB JUMPI PUSH7 0xFFFFFFFFFFFFFF DUP4 GT ISZERO PUSH2 0x18C4 JUMPI PUSH1 0x0 DUP1 REVERT JUMPDEST DUP1 SLOAD PUSH7 0xFFFFFFFFFFFFFF PUSH1 0x70 SHL NOT AND PUSH1 0x1 PUSH1 0x70 SHL PUSH7 0xFFFFFFFFFFFFFF DUP6 AND MUL OR DUP2 SSTORE PUSH2 0x1905 JUMP JUMPDEST DUP1 SLOAD PUSH1 0x1 PUSH1 0x50 SHL SWAP1 DIV PUSH4 0xFFFFFFFF AND DUP5 EQ PUSH2 0x1905 JUMPI PUSH1 0x0 DUP1 REVERT JUMPDEST DUP1 SLOAD PUSH1 0xA SWAP7 SWAP1 SWAP7 SIGNEXTEND PUSH11 0xFFFFFFFFFFFFFFFFFFFFFF AND PUSH1 0x1 PUSH1 0xA8 SHL MUL PUSH1 0x1 PUSH1 0x1 PUSH1 0xA8 SHL SUB PUSH10 0xFFFFFFFFFFFFFFFFFFFF SWAP1 SWAP7 AND PUSH10 0xFFFFFFFFFFFFFFFFFFFF NOT PUSH4 0xFFFFFFFF SWAP1 SWAP7 AND PUSH1 0x1 PUSH1 0x50 SHL MUL PUSH4 0xFFFFFFFF PUSH1 0x50 SHL NOT SWAP1 SWAP9 AND SWAP8 SWAP1 SWAP8 OR SWAP5 SWAP1 SWAP5 AND SWAP6 SWAP1 SWAP6 OR SWAP4 SWAP1 SWAP4 AND SWAP2 SWAP1 SWAP2 OR SWAP1 SWAP3 SSTORE POP POP POP POP JUMP JUMPDEST PUSH2 0x1981 PUSH2 0x4BDF JUMP JUMPDEST PUSH2 0xC23 DUP3 PUSH1 0x1 PUSH2 0x1576 JUMP JUMPDEST PUSH1 0x0 DUP2 PUSH2 0x199B JUMPI POP PUSH1 0x0 PUSH2 0x8F7 JUMP JUMPDEST PUSH1 0x0 PUSH2 0x19A6 DUP5 PUSH2 0x23EC JUMP JUMPDEST SWAP1 POP PUSH1 0x0 PUSH2 0x19B3 DUP5 PUSH2 0x147E JUMP JUMPDEST SWAP1 POP DUP2 PUSH12 0x19D971E4FE8401E74000001 PUSH1 0x1 PUSH1 0xFF SHL SUB DUP2 PUSH2 0x19D0 JUMPI INVALID JUMPDEST SDIV DUP2 SGT ISZERO PUSH2 0x19DD JUMPI PUSH1 0x0 DUP1 REVERT JUMPDEST PUSH12 0x33B2E3C9FD0803CE8000000 PUSH12 0x19D971E4FE8401E74000000 DUP4 DUP4 MUL ADD SDIV PUSH1 0x0 DUP6 SGT PUSH2 0x1A12 JUMPI PUSH2 0x1A0D DUP2 PUSH2 0xCCC JUMP JUMPDEST PUSH2 0x1A14 JUMP JUMPDEST DUP1 JUMPDEST SWAP7 SWAP6 POP POP POP POP POP POP JUMP JUMPDEST PUSH1 0x0 DUP1 DUP1 DUP1 PUSH1 0x5 DUP8 PUSH1 0x60 ADD MLOAD PUSH1 0x5 DUP2 GT ISZERO PUSH2 0x1A35 JUMPI INVALID JUMPDEST EQ PUSH2 0x1A47 JUMPI PUSH4 0x70A08231 PUSH1 0xE0 SHL PUSH2 0x1A50 JUMP JUMPDEST PUSH4 0xED1279F PUSH1 0xE1 SHL JUMPDEST SWAP1 POP DUP7 PUSH1 0x20 ADD MLOAD ISZERO PUSH2 0x1A6C JUMPI DUP7 MLOAD PUSH2 0x1A69 SWAP1 ADDRESS DUP4 PUSH2 0x2477 JUMP JUMPDEST SWAP3 POP JUMPDEST DUP7 MLOAD PUSH2 0x1A79 SWAP1 DUP8 DUP8 PUSH2 0x2589 JUMP JUMPDEST DUP7 PUSH1 0x20 ADD MLOAD DUP1 PUSH2 0x1A8D JUMPI POP PUSH1 0x0 DUP8 PUSH1 0x80 ADD MLOAD GT JUMPDEST ISZERO PUSH2 0x1AA2 JUMPI DUP7 MLOAD PUSH2 0x1A9F SWAP1 ADDRESS DUP4 PUSH2 0x2477 JUMP JUMPDEST SWAP2 POP JUMPDEST PUSH1 0x80 DUP8 ADD MLOAD ISZERO PUSH2 0x1ADD JUMPI PUSH1 0x0 PUSH2 0x1AC0 DUP9 PUSH2 0x1ABB DUP6 PUSH2 0x14B8 JUMP JUMPDEST PUSH2 0x25E1 JUMP JUMPDEST SWAP1 POP PUSH2 0x1ACF DUP9 PUSH1 0x80 ADD MLOAD PUSH2 0x14B8 JUMP JUMPDEST DUP2 SGT ISZERO PUSH2 0x1ADB JUMPI PUSH1 0x0 DUP1 REVERT JUMPDEST POP JUMPDEST DUP7 PUSH1 0x20 ADD MLOAD ISZERO PUSH2 0x1B03 JUMPI PUSH2 0x1AF9 PUSH2 0x1AF4 DUP4 DUP6 PUSH2 0x2261 JUMP JUMPDEST PUSH2 0x14B8 JUMP JUMPDEST SWAP4 POP POP POP POP PUSH2 0xE09 JUMP JUMPDEST PUSH2 0x1AF9 DUP6 PUSH2 0x14B8 JUMP JUMPDEST PUSH1 0x40 MLOAD PUSH1 0x1 PUSH1 0x1 PUSH1 0xA0 SHL SUB DUP4 AND SWAP1 DUP3 ISZERO PUSH2 0x8FC MUL SWAP1 DUP4 SWAP1 PUSH1 0x0 DUP2 DUP2 DUP2 DUP6 DUP9 DUP9 CALL SWAP4 POP POP POP POP ISZERO DUP1 ISZERO PUSH2 0x1B42 JUMPI RETURNDATASIZE PUSH1 0x0 DUP1 RETURNDATACOPY RETURNDATASIZE PUSH1 0x0 REVERT JUMPDEST POP POP POP JUMP JUMPDEST DUP3 PUSH1 0x1 PUSH1 0x1 PUSH1 0xA0 SHL SUB AND PUSH4 0xA9059CBB DUP4 DUP4 PUSH1 0x40 MLOAD DUP4 PUSH4 0xFFFFFFFF AND PUSH1 0xE0 SHL DUP2 MSTORE PUSH1 0x4 ADD DUP1 DUP4 PUSH1 0x1 PUSH1 0x1 PUSH1 0xA0 SHL SUB AND DUP2 MSTORE PUSH1 0x20 ADD DUP3 DUP2 MSTORE PUSH1 0x20 ADD SWAP3 POP POP POP PUSH1 0x0 PUSH1 0x40 MLOAD DUP1 DUP4 SUB DUP2 PUSH1 0x0 DUP8 DUP1 EXTCODESIZE ISZERO DUP1 ISZERO PUSH2 0x1B9E JUMPI PUSH1 0x0 DUP1 REVERT JUMPDEST POP GAS CALL ISZERO DUP1 ISZERO PUSH2 0x1BB2 JUMPI RETURNDATASIZE PUSH1 0x0 DUP1 RETURNDATACOPY RETURNDATASIZE PUSH1 0x0 REVERT JUMPDEST POP POP POP POP PUSH2 0x1B42 PUSH2 0x2611 JUMP JUMPDEST DUP1 MLOAD PUSH1 0x60 SWAP1 PUSH1 0x0 SWAP1 DUP5 EQ PUSH2 0x1BD1 JUMPI PUSH1 0x0 DUP1 REVERT JUMPDEST PUSH1 0x0 DUP5 PUSH1 0x1 PUSH1 0x1 PUSH1 0x40 SHL SUB DUP2 GT DUP1 ISZERO PUSH2 0x1BE9 JUMPI PUSH1 0x0 DUP1 REVERT JUMPDEST POP PUSH1 0x40 MLOAD SWAP1 DUP1 DUP3 MSTORE DUP1 PUSH1 0x20 MUL PUSH1 0x20 ADD DUP3 ADD PUSH1 0x40 MSTORE DUP1 ISZERO PUSH2 0x1C23 JUMPI DUP2 PUSH1 0x20 ADD JUMPDEST PUSH2 0x1C10 PUSH2 0x4B9F JUMP JUMPDEST DUP2 MSTORE PUSH1 0x20 ADD SWAP1 PUSH1 0x1 SWAP1 SUB SWAP1 DUP2 PUSH2 0x1C08 JUMPI SWAP1 POP JUMPDEST POP SWAP1 POP PUSH1 0x0 DUP1 JUMPDEST DUP7 DUP2 LT ISZERO PUSH2 0x1CAE JUMPI PUSH1 0x0 DUP4 DUP3 DUP2 MLOAD DUP2 LT PUSH2 0x1C40 JUMPI INVALID JUMPDEST PUSH1 0x20 SWAP1 DUP2 MUL SWAP2 SWAP1 SWAP2 ADD ADD MLOAD DUP11 DUP2 MSTORE PUSH1 0x1 PUSH1 0x40 DUP3 ADD MSTORE DUP8 MLOAD SWAP1 SWAP2 POP DUP8 SWAP1 DUP4 SWAP1 DUP2 LT PUSH2 0x1C66 JUMPI INVALID JUMPDEST PUSH1 0x20 MUL PUSH1 0x20 ADD ADD MLOAD DUP2 PUSH1 0x60 ADD DUP2 DUP2 MSTORE POP POP DUP9 DUP9 DUP4 DUP2 DUP2 LT PUSH2 0x1C83 JUMPI INVALID JUMPDEST SWAP1 POP PUSH1 0x20 MUL ADD CALLDATALOAD DUP2 PUSH1 0x20 ADD DUP2 DUP2 MSTORE POP POP PUSH1 0x0 DUP2 PUSH1 0x60 ADD MLOAD SLT ISZERO PUSH2 0x1CA5 JUMPI PUSH1 0x1 SWAP3 POP JUMPDEST POP PUSH1 0x1 ADD PUSH2 0x1C2A JUMP JUMPDEST POP SWAP1 SWAP8 SWAP1 SWAP7 POP SWAP5 POP POP POP POP POP JUMP JUMPDEST PUSH2 0x1CC4 PUSH2 0x4AC4 JUMP JUMPDEST PUSH2 0x1CCD DUP4 PUSH2 0x267E JUMP JUMPDEST ISZERO PUSH2 0x1CEA JUMPI PUSH1 0x40 MLOAD PUSH3 0x461BCD PUSH1 0xE5 SHL DUP2 MSTORE PUSH1 0x4 ADD PUSH2 0x144 SWAP1 PUSH2 0x53A4 JUMP JUMPDEST PUSH2 0x1CF3 DUP4 PUSH2 0x1D90 JUMP JUMPDEST ISZERO PUSH2 0x1D08 JUMPI PUSH2 0x1D03 DUP5 DUP5 DUP5 PUSH2 0x1D9D JUMP JUMPDEST PUSH2 0x1D35 JUMP JUMPDEST PUSH1 0x0 PUSH2 0x1D1A DUP6 DUP6 PUSH1 0x40 ADD MLOAD DUP6 MLOAD PUSH2 0x26D2 JUMP JUMPDEST SWAP1 POP PUSH2 0x1D26 DUP2 DUP5 PUSH2 0x1E65 JUMP JUMPDEST PUSH2 0x1D33 DUP5 DUP7 DUP4 PUSH1 0x0 PUSH2 0x1EC3 JUMP JUMPDEST POP JUMPDEST POP SWAP1 SWAP3 SWAP2 POP POP JUMP JUMPDEST PUSH1 0x0 JUMPDEST DUP2 MLOAD DUP2 LT ISZERO PUSH2 0x1D8C JUMPI PUSH2 0x1D69 DUP3 DUP3 DUP2 MLOAD DUP2 LT PUSH2 0x1D58 JUMPI INVALID JUMPDEST PUSH1 0x20 MUL PUSH1 0x20 ADD ADD MLOAD PUSH1 0x60 ADD MLOAD PUSH2 0xCCC JUMP JUMPDEST DUP3 DUP3 DUP2 MLOAD DUP2 LT PUSH2 0x1D75 JUMPI INVALID JUMPDEST PUSH1 0x20 SWAP1 DUP2 MUL SWAP2 SWAP1 SWAP2 ADD ADD MLOAD PUSH1 0x60 ADD MSTORE PUSH1 0x1 ADD PUSH2 0x1D40 JUMP JUMPDEST POP POP JUMP JUMPDEST PUSH1 0x60 ADD MLOAD PUSH2 0xFFFF AND ISZERO ISZERO SWAP1 JUMP JUMPDEST PUSH2 0x1DA6 DUP3 PUSH2 0x1D90 JUMP JUMPDEST PUSH2 0x1DAF JUMPI PUSH1 0x0 DUP1 REVERT JUMPDEST PUSH1 0x60 DUP3 ADD MLOAD PUSH2 0xFFFF AND PUSH1 0x0 JUMPDEST DUP3 MLOAD DUP2 LT ISZERO PUSH2 0x1E5E JUMPI PUSH1 0x0 DUP4 DUP3 DUP2 MLOAD DUP2 LT PUSH2 0x1DD2 JUMPI INVALID JUMPDEST PUSH1 0x20 MUL PUSH1 0x20 ADD ADD MLOAD SWAP1 POP DUP1 PUSH1 0x60 ADD MLOAD PUSH1 0x0 EQ ISZERO PUSH2 0x1DEF JUMPI POP PUSH2 0x1E56 JUMP JUMPDEST DUP1 MLOAD DUP4 EQ PUSH2 0x1DFC JUMPI PUSH1 0x0 DUP1 REVERT JUMPDEST PUSH1 0x40 DUP2 ADD MLOAD PUSH1 0x1 EQ PUSH2 0x1E0D JUMPI PUSH1 0x0 DUP1 REVERT JUMPDEST PUSH1 0x0 PUSH2 0x1E2F DUP8 DUP6 DUP5 PUSH1 0x20 ADD MLOAD DUP10 PUSH1 0x0 ADD MLOAD PUSH5 0xFFFFFFFFFF AND DUP7 PUSH1 0x60 ADD MLOAD PUSH2 0x2764 JUMP JUMPDEST SWAP1 POP PUSH1 0x0 DUP2 SLT ISZERO PUSH2 0x1E53 JUMPI PUSH1 0x20 DUP7 ADD DUP1 MLOAD PUSH1 0x1 PUSH1 0xF8 SHL OR PUSH1 0x1 PUSH1 0x1 PUSH1 0xF8 SHL SUB NOT AND SWAP1 MSTORE JUMPDEST POP POP JUMPDEST PUSH1 0x1 ADD PUSH2 0x1DBB JUMP JUMPDEST POP POP POP POP POP JUMP JUMPDEST PUSH1 0x0 JUMPDEST DUP2 MLOAD DUP2 LT ISZERO PUSH2 0x1B42 JUMPI PUSH1 0x0 DUP3 DUP3 DUP2 MLOAD DUP2 LT PUSH2 0x1E7F JUMPI INVALID JUMPDEST PUSH1 0x20 MUL PUSH1 0x20 ADD ADD MLOAD SWAP1 POP DUP1 PUSH1 0x60 ADD MLOAD PUSH1 0x0 EQ ISZERO PUSH2 0x1E9C JUMPI POP PUSH2 0x1EBB JUMP JUMPDEST PUSH2 0x1EB9 DUP5 DUP3 PUSH1 0x0 ADD MLOAD DUP4 PUSH1 0x20 ADD MLOAD DUP5 PUSH1 0x40 ADD MLOAD DUP6 PUSH1 0x60 ADD MLOAD PUSH2 0x28CE JUMP JUMPDEST POP JUMPDEST PUSH1 0x1 ADD PUSH2 0x1E68 JUMP JUMPDEST PUSH1 0x0 DUP1 DUP1 DUP1 PUSH2 0x1ED2 DUP7 DUP9 PUSH2 0x29CB JUMP JUMPDEST PUSH5 0xFFFFFFFFFF DUP2 AND DUP13 MSTORE SWAP3 SWAP7 POP SWAP1 SWAP5 POP SWAP3 POP SWAP1 POP PUSH2 0x1EEF DUP9 PUSH2 0x267E JUMP JUMPDEST ISZERO PUSH2 0x1EF9 JUMPI PUSH1 0x0 DUP1 REVERT JUMPDEST PUSH1 0xFF DUP3 AND PUSH1 0x40 DUP10 ADD MSTORE DUP5 PUSH2 0x1F18 JUMPI PUSH1 0x7 PUSH1 0xFF DUP4 AND GT ISZERO PUSH2 0x1F18 JUMPI PUSH1 0x0 DUP1 REVERT JUMPDEST DUP4 ISZERO PUSH2 0x1F3B JUMPI PUSH1 0x20 DUP9 ADD DUP1 MLOAD PUSH1 0x1 PUSH1 0xF8 SHL OR PUSH1 0x1 PUSH1 0x1 PUSH1 0xF8 SHL SUB NOT AND SWAP1 MSTORE PUSH2 0x1F4A JUMP JUMPDEST PUSH1 0x20 DUP9 ADD DUP1 MLOAD PUSH1 0x7F PUSH1 0xF9 SHL AND SWAP1 MSTORE JUMPDEST PUSH2 0x1F57 DUP9 PUSH1 0x80 ADD MLOAD PUSH2 0x2C0A JUMP JUMPDEST PUSH1 0x1 PUSH1 0x1 PUSH1 0x70 SHL SUB NOT AND PUSH1 0x80 DUP10 ADD MSTORE PUSH1 0x0 JUMPDEST DUP4 ISZERO PUSH2 0x11F3 JUMPI PUSH1 0xF0 DUP5 SWAP1 SHR DUP2 DUP2 EQ PUSH2 0x1F8C JUMPI PUSH2 0x1F8C DUP11 DUP3 PUSH1 0x1 PUSH1 0x1 PUSH1 0xFF SHL PUSH2 0x1631 JUMP JUMPDEST PUSH1 0x10 SWAP5 SWAP1 SWAP5 SHL SWAP4 SWAP1 POP PUSH2 0x1F69 JUMP JUMPDEST PUSH1 0x0 DUP1 PUSH2 0x1FCB PUSH2 0x1FBB PUSH2 0x1FB0 DUP6 PUSH1 0x20 ADD MLOAD PUSH2 0xCCC JUMP JUMPDEST PUSH1 0xE0 DUP7 ADD MLOAD SWAP1 PUSH2 0x2114 JUMP JUMPDEST PUSH2 0x120 DUP6 ADD MLOAD PUSH1 0x40 ADD MLOAD SWAP1 PUSH2 0x154B JUMP JUMPDEST SWAP2 POP PUSH2 0x1FE7 DUP4 PUSH1 0xE0 ADD MLOAD PUSH1 0x80 ADD MLOAD DUP5 PUSH1 0xC0 ADD MLOAD PUSH1 0x80 ADD MLOAD PUSH2 0x2C85 JUMP JUMPDEST SWAP1 POP SWAP2 POP SWAP2 JUMP JUMPDEST PUSH1 0x0 DUP1 PUSH1 0x0 PUSH2 0x2004 DUP9 PUSH1 0x20 ADD MLOAD DUP9 DUP9 PUSH1 0x1 PUSH2 0x138B JUMP JUMPDEST SWAP2 POP SWAP2 POP PUSH1 0x0 DUP1 PUSH2 0x2049 DUP11 PUSH1 0x20 ADD MLOAD PUSH1 0xE0 ADD MLOAD PUSH1 0x60 ADD MLOAD PUSH2 0x2043 DUP13 PUSH1 0xC0 ADD MLOAD PUSH2 0x8ED PUSH1 0x64 DUP16 PUSH1 0x20 ADD MLOAD PUSH1 0xC0 ADD MLOAD PUSH1 0x40 ADD MLOAD PUSH2 0x1219 SWAP1 SWAP2 SWAP1 PUSH4 0xFFFFFFFF AND JUMP JUMPDEST SWAP1 PUSH2 0x1468 JUMP JUMPDEST SWAP1 POP PUSH2 0x205A PUSH1 0x64 PUSH2 0x8ED DUP6 DUP5 PUSH2 0x1219 JUMP JUMPDEST SWAP1 POP PUSH1 0x0 PUSH2 0x2068 DUP5 DUP7 PUSH2 0x1468 JUMP JUMPDEST SWAP1 POP PUSH2 0x2074 DUP2 DUP4 PUSH2 0x1535 JUMP JUMPDEST SWAP3 POP POP POP PUSH1 0x0 PUSH2 0x2091 DUP3 DUP12 PUSH1 0x80 ADD MLOAD PUSH2 0x149F SWAP1 SWAP2 SWAP1 PUSH4 0xFFFFFFFF AND JUMP JUMPDEST SWAP1 POP PUSH2 0x209E DUP2 DUP8 DUP10 PUSH2 0x14D2 JUMP JUMPDEST SWAP1 POP PUSH1 0x0 PUSH2 0x20AE DUP12 DUP6 DUP8 DUP6 PUSH2 0x2C9B JUMP JUMPDEST SWAP1 SWAP3 POP SWAP1 POP PUSH1 0x0 PUSH2 0x20BF DUP4 DUP6 PUSH2 0x151C JUMP JUMPDEST PUSH1 0x80 DUP14 ADD MLOAD SWAP1 SWAP2 POP PUSH2 0x20D1 SWAP1 DUP3 PUSH2 0x1468 JUMP JUMPDEST PUSH1 0x80 DUP14 ADD MSTORE PUSH1 0xA0 DUP13 ADD MLOAD PUSH2 0x20E5 SWAP1 DUP4 PUSH2 0x1535 JUMP JUMPDEST PUSH1 0xA0 DUP14 ADD MSTORE POP SWAP1 SWAP5 POP POP POP POP POP SWAP6 SWAP5 POP POP POP POP POP JUMP JUMPDEST PUSH1 0x0 PUSH3 0xF4240 DUP3 PUSH1 0x1A DUP2 GT ISZERO PUSH2 0x210D JUMPI INVALID JUMPDEST ADD SWAP3 SWAP2 POP POP JUMP JUMPDEST PUSH1 0x0 DUP1 PUSH2 0x8F3 DUP5 PUSH1 0x20 ADD MLOAD PUSH2 0x8ED DUP7 PUSH1 0x0 ADD MLOAD DUP7 PUSH2 0x1219 SWAP1 SWAP2 SWAP1 PUSH4 0xFFFFFFFF AND JUMP JUMPDEST PUSH1 0x0 DUP1 PUSH2 0x2141 PUSH2 0x2D8B JUMP JUMPDEST PUSH1 0x1 PUSH1 0x1 PUSH1 0xA0 SHL SUB DUP7 AND PUSH1 0x0 SWAP1 DUP2 MSTORE PUSH1 0x20 SWAP2 DUP3 MSTORE PUSH1 0x40 DUP1 DUP3 KECCAK256 DUP8 DUP4 MSTORE DUP4 MSTORE DUP1 DUP3 KECCAK256 DUP7 DUP4 MSTORE SWAP1 SWAP3 MSTORE KECCAK256 SLOAD PUSH1 0xF SWAP1 DUP2 SIGNEXTEND SWAP1 SIGNEXTEND SWAP2 POP POP SWAP4 SWAP3 POP POP POP JUMP JUMPDEST PUSH1 0x0 DUP1 PUSH1 0x0 PUSH2 0x218F DUP7 PUSH1 0x20 ADD MLOAD DUP7 DUP7 PUSH2 0x2D98 JUMP JUMPDEST SWAP2 POP SWAP2 POP PUSH1 0x0 PUSH2 0x219E DUP8 PUSH2 0x2E60 JUMP JUMPDEST SWAP1 POP DUP2 PUSH2 0x21B7 JUMPI DUP7 MLOAD PUSH2 0x1AF9 SWAP1 PUSH2 0xFFFF AND DUP8 DUP4 DUP9 PUSH2 0x2E74 JUMP JUMPDEST PUSH1 0x0 PUSH2 0x21C2 DUP7 PUSH2 0x2F13 JUMP JUMPDEST SWAP1 POP PUSH1 0x0 PUSH2 0x21D9 PUSH2 0x21D2 DUP7 PUSH2 0x2F34 JUMP JUMPDEST DUP4 SWAP1 PUSH2 0x22D3 JUMP JUMPDEST SWAP1 POP PUSH1 0x0 PUSH2 0x21F1 DUP11 PUSH1 0x0 ADD MLOAD PUSH2 0xFFFF AND DUP4 DUP7 DUP12 PUSH2 0x2E74 JUMP JUMPDEST SWAP1 POP PUSH1 0x0 DUP1 DUP8 PUSH1 0x1 EQ ISZERO PUSH2 0x2216 JUMPI DUP10 SWAP2 POP PUSH2 0x220F DUP13 PUSH1 0x40 ADD MLOAD PUSH2 0x2FD8 JUMP JUMPDEST SWAP1 POP PUSH2 0x2245 JUMP JUMPDEST PUSH2 0x222C PUSH2 0x2225 PUSH1 0x1 DUP11 SUB PUSH2 0x2F34 JUMP JUMPDEST DUP7 SWAP1 PUSH2 0x22D3 JUMP JUMPDEST SWAP2 POP PUSH2 0x2242 DUP13 PUSH1 0x0 ADD MLOAD PUSH2 0xFFFF AND DUP4 DUP9 DUP14 PUSH2 0x2E74 JUMP JUMPDEST SWAP1 POP JUMPDEST PUSH2 0x2252 DUP3 DUP6 DUP4 DUP7 DUP16 PUSH2 0x3069 JUMP JUMPDEST SWAP9 POP POP POP POP POP POP POP POP POP PUSH2 0xE09 JUMP JUMPDEST PUSH1 0x0 DUP3 DUP3 GT ISZERO PUSH2 0x22B8 JUMPI PUSH1 0x40 DUP1 MLOAD PUSH3 0x461BCD PUSH1 0xE5 SHL DUP2 MSTORE PUSH1 0x20 PUSH1 0x4 DUP3 ADD MSTORE PUSH1 0x1E PUSH1 0x24 DUP3 ADD MSTORE PUSH32 0x536166654D6174683A207375627472616374696F6E206F766572666C6F770000 PUSH1 0x44 DUP3 ADD MSTORE SWAP1 MLOAD SWAP1 DUP2 SWAP1 SUB PUSH1 0x64 ADD SWAP1 REVERT JUMPDEST POP SWAP1 SUB SWAP1 JUMP JUMPDEST PUSH1 0x60 ADD MLOAD PUSH3 0x7A120 PUSH1 0x28 SWAP2 SWAP1 SWAP2 SHR PUSH1 0xFF AND MUL SWAP1 JUMP JUMPDEST PUSH1 0x0 DUP3 DUP3 ADD DUP4 DUP2 LT ISZERO PUSH2 0xE09 JUMPI PUSH1 0x40 DUP1 MLOAD PUSH3 0x461BCD PUSH1 0xE5 SHL DUP2 MSTORE PUSH1 0x20 PUSH1 0x4 DUP3 ADD MSTORE PUSH1 0x1B PUSH1 0x24 DUP3 ADD MSTORE PUSH32 0x536166654D6174683A206164646974696F6E206F766572666C6F770000000000 PUSH1 0x44 DUP3 ADD MSTORE SWAP1 MLOAD SWAP1 DUP2 SWAP1 SUB PUSH1 0x64 ADD SWAP1 REVERT JUMPDEST PUSH1 0x0 DUP1 PUSH2 0x2350 PUSH2 0x234B PUSH4 0x1DA9C00 PUSH2 0x2345 DUP7 DUP9 PUSH2 0x30CD JUMP JUMPDEST SWAP1 PUSH2 0x3126 JUMP JUMPDEST PUSH2 0x318D JUMP JUMPDEST SWAP1 POP PUSH2 0x2362 DUP2 PUSH3 0x1DCD65 PUSH1 0x49 SHL PUSH2 0x31AB JUMP JUMPDEST SWAP1 POP PUSH2 0x2375 PUSH2 0x2370 DUP3 PUSH2 0x31FE JUMP JUMPDEST PUSH2 0x3220 JUMP JUMPDEST SWAP1 POP PUSH2 0x2387 DUP2 PUSH3 0x1DCD65 PUSH1 0x49 SHL PUSH2 0x3275 JUMP JUMPDEST SWAP1 POP PUSH1 0x0 PUSH2 0x2394 DUP3 PUSH2 0x32AB JUMP JUMPDEST PUSH1 0x7 SIGNEXTEND SWAP6 SWAP5 POP POP POP POP POP JUMP JUMPDEST PUSH1 0x60 ADD MLOAD PUSH3 0x7A120 PUSH1 0x38 SWAP2 SWAP1 SWAP2 SHR PUSH1 0xFF AND MUL SWAP1 JUMP JUMPDEST PUSH1 0x60 ADD MLOAD PUSH3 0x7A120 PUSH1 0x20 SWAP2 SWAP1 SWAP2 SHR PUSH1 0xFF AND MUL SWAP1 JUMP JUMPDEST PUSH1 0x60 ADD MLOAD PUSH3 0x7A120 PUSH1 0x40 SWAP2 SWAP1 SWAP2 SHR PUSH1 0xFF AND MUL SWAP1 JUMP JUMPDEST PUSH1 0x0 DUP1 PUSH2 0x8F7 PUSH1 0x7 PUSH2 0x20FB JUMP JUMPDEST PUSH1 0x0 PUSH2 0xC23 PUSH2 0x23F9 PUSH2 0x32B4 JUMP JUMPDEST SLOAD PUSH1 0x40 MLOAD PUSH4 0xD15E0053 PUSH1 0xE0 SHL DUP2 MSTORE PUSH1 0x1 PUSH1 0x1 PUSH1 0xA0 SHL SUB SWAP1 SWAP2 AND SWAP1 PUSH4 0xD15E0053 SWAP1 PUSH2 0x2427 SWAP1 DUP7 SWAP1 PUSH1 0x4 ADD PUSH2 0x52BA JUMP JUMPDEST PUSH1 0x20 PUSH1 0x40 MLOAD DUP1 DUP4 SUB DUP2 DUP7 DUP1 EXTCODESIZE ISZERO DUP1 ISZERO PUSH2 0x243F JUMPI PUSH1 0x0 DUP1 REVERT JUMPDEST POP GAS STATICCALL ISZERO DUP1 ISZERO PUSH2 0x2453 JUMPI RETURNDATASIZE PUSH1 0x0 DUP1 RETURNDATACOPY RETURNDATASIZE PUSH1 0x0 REVERT JUMPDEST POP POP POP POP PUSH1 0x40 MLOAD RETURNDATASIZE PUSH1 0x1F NOT PUSH1 0x1F DUP3 ADD AND DUP3 ADD DUP1 PUSH1 0x40 MSTORE POP DUP2 ADD SWAP1 PUSH2 0x1AF4 SWAP2 SWAP1 PUSH2 0x5268 JUMP JUMPDEST PUSH1 0x40 DUP1 MLOAD PUSH1 0x1 PUSH1 0x1 PUSH1 0xA0 SHL SUB DUP5 DUP2 AND PUSH1 0x24 DUP1 DUP5 ADD SWAP2 SWAP1 SWAP2 MSTORE DUP4 MLOAD DUP1 DUP5 SUB SWAP1 SWAP2 ADD DUP2 MSTORE PUSH1 0x44 SWAP1 SWAP3 ADD DUP4 MSTORE PUSH1 0x20 DUP3 ADD DUP1 MLOAD PUSH1 0x1 PUSH1 0x1 PUSH1 0xE0 SHL SUB AND PUSH1 0x1 PUSH1 0x1 PUSH1 0xE0 SHL SUB NOT DUP7 AND OR DUP2 MSTORE SWAP3 MLOAD DUP3 MLOAD PUSH1 0x0 SWAP5 DUP6 SWAP5 DUP6 SWAP5 DUP11 AND SWAP4 SWAP1 SWAP3 SWAP1 SWAP2 DUP3 SWAP2 DUP1 DUP4 DUP4 JUMPDEST PUSH1 0x20 DUP4 LT PUSH2 0x24F4 JUMPI DUP1 MLOAD DUP3 MSTORE PUSH1 0x1F NOT SWAP1 SWAP3 ADD SWAP2 PUSH1 0x20 SWAP2 DUP3 ADD SWAP2 ADD PUSH2 0x24D5 JUMP JUMPDEST PUSH1 0x1 DUP4 PUSH1 0x20 SUB PUSH2 0x100 EXP SUB DUP1 NOT DUP3 MLOAD AND DUP2 DUP5 MLOAD AND DUP1 DUP3 OR DUP6 MSTORE POP POP POP POP POP POP SWAP1 POP ADD SWAP2 POP POP PUSH1 0x0 PUSH1 0x40 MLOAD DUP1 DUP4 SUB DUP2 DUP6 GAS STATICCALL SWAP2 POP POP RETURNDATASIZE DUP1 PUSH1 0x0 DUP2 EQ PUSH2 0x2554 JUMPI PUSH1 0x40 MLOAD SWAP2 POP PUSH1 0x1F NOT PUSH1 0x3F RETURNDATASIZE ADD AND DUP3 ADD PUSH1 0x40 MSTORE RETURNDATASIZE DUP3 MSTORE RETURNDATASIZE PUSH1 0x0 PUSH1 0x20 DUP5 ADD RETURNDATACOPY PUSH2 0x2559 JUMP JUMPDEST PUSH1 0x60 SWAP2 POP JUMPDEST POP SWAP2 POP SWAP2 POP DUP2 PUSH2 0x2568 JUMPI PUSH1 0x0 DUP1 REVERT JUMPDEST DUP1 DUP1 PUSH1 0x20 ADD SWAP1 MLOAD PUSH1 0x20 DUP2 LT ISZERO PUSH2 0x257D JUMPI PUSH1 0x0 DUP1 REVERT JUMPDEST POP MLOAD SWAP7 SWAP6 POP POP POP POP POP POP JUMP JUMPDEST PUSH1 0x40 DUP1 MLOAD PUSH4 0x23B872DD PUSH1 0xE0 SHL DUP2 MSTORE PUSH1 0x1 PUSH1 0x1 PUSH1 0xA0 SHL SUB DUP5 DUP2 AND PUSH1 0x4 DUP4 ADD MSTORE ADDRESS PUSH1 0x24 DUP4 ADD MSTORE PUSH1 0x44 DUP3 ADD DUP5 SWAP1 MSTORE SWAP2 MLOAD SWAP2 DUP6 AND SWAP2 PUSH4 0x23B872DD SWAP2 PUSH1 0x64 DUP1 DUP3 ADD SWAP3 PUSH1 0x0 SWAP3 SWAP1 SWAP2 SWAP1 DUP3 SWAP1 SUB ADD DUP2 DUP4 DUP8 DUP1 EXTCODESIZE ISZERO DUP1 ISZERO PUSH2 0x1B9E JUMPI PUSH1 0x0 DUP1 REVERT JUMPDEST PUSH1 0x0 PUSH4 0x5F5E100 DUP4 PUSH1 0x40 ADD MLOAD EQ ISZERO PUSH2 0x25FA JUMPI POP DUP1 PUSH2 0x8F7 JUMP JUMPDEST PUSH1 0x40 DUP4 ADD MLOAD PUSH2 0xE09 SWAP1 PUSH2 0x8ED DUP5 PUSH4 0x5F5E100 PUSH2 0x1219 JUMP JUMPDEST PUSH1 0x0 PUSH2 0x261B PUSH2 0x4C0E JUMP JUMPDEST RETURNDATASIZE DUP1 ISZERO PUSH2 0x262F JUMPI PUSH1 0x20 DUP2 EQ PUSH2 0x2638 JUMPI PUSH1 0x0 DUP1 REVERT JUMPDEST PUSH1 0x1 SWAP3 POP PUSH2 0x2643 JUMP JUMPDEST PUSH1 0x20 PUSH1 0x0 DUP4 RETURNDATACOPY DUP2 MLOAD SWAP3 POP JUMPDEST POP DUP2 PUSH2 0x1D8C JUMPI PUSH1 0x40 DUP1 MLOAD PUSH3 0x461BCD PUSH1 0xE5 SHL DUP2 MSTORE PUSH1 0x20 PUSH1 0x4 DUP3 ADD MSTORE PUSH1 0x5 PUSH1 0x24 DUP3 ADD MSTORE PUSH5 0x455243323 PUSH1 0xDC SHL PUSH1 0x44 DUP3 ADD MSTORE SWAP1 MLOAD SWAP1 DUP2 SWAP1 SUB PUSH1 0x64 ADD SWAP1 REVERT JUMPDEST PUSH1 0x0 TIMESTAMP PUSH2 0x268A DUP4 PUSH2 0x1D90 JUMP JUMPDEST ISZERO PUSH2 0x26AB JUMPI PUSH2 0x2698 DUP2 PUSH2 0x32C1 JUMP JUMPDEST DUP4 MLOAD PUSH5 0xFFFFFFFFFF AND LT SWAP2 POP PUSH2 0xC26 SWAP1 POP JUMP JUMPDEST DUP3 MLOAD PUSH5 0xFFFFFFFFFF AND ISZERO DUP1 ISZERO SWAP1 PUSH2 0x26CA JUMPI POP DUP3 MLOAD PUSH5 0xFFFFFFFFFF AND DUP2 LT ISZERO JUMPDEST SWAP2 POP POP PUSH2 0xC26 JUMP JUMPDEST PUSH2 0x26DA PUSH2 0x4B77 JUMP JUMPDEST PUSH2 0x26E2 PUSH2 0x4B77 JUMP JUMPDEST PUSH1 0xFF DUP5 AND PUSH2 0x26F1 JUMPI SWAP1 POP PUSH2 0xE09 JUMP JUMPDEST PUSH2 0x26FB DUP6 DUP6 PUSH2 0x32DD JUMP JUMPDEST DUP2 MSTORE PUSH1 0xFF DUP5 AND PUSH1 0x60 DUP3 ADD MSTORE DUP3 PUSH1 0x1 PUSH1 0x1 PUSH1 0x40 SHL SUB DUP2 GT DUP1 ISZERO PUSH2 0x271C JUMPI PUSH1 0x0 DUP1 REVERT JUMPDEST POP PUSH1 0x40 MLOAD SWAP1 DUP1 DUP3 MSTORE DUP1 PUSH1 0x20 MUL PUSH1 0x20 ADD DUP3 ADD PUSH1 0x40 MSTORE DUP1 ISZERO PUSH2 0x2756 JUMPI DUP2 PUSH1 0x20 ADD JUMPDEST PUSH2 0x2743 PUSH2 0x4B9F JUMP JUMPDEST DUP2 MSTORE PUSH1 0x20 ADD SWAP1 PUSH1 0x1 SWAP1 SUB SWAP1 DUP2 PUSH2 0x273B JUMPI SWAP1 POP JUMPDEST POP PUSH1 0x20 DUP3 ADD MSTORE SWAP5 SWAP4 POP POP POP POP JUMP JUMPDEST PUSH1 0x0 DUP1 PUSH2 0x2771 DUP8 DUP8 PUSH2 0x3306 JUMP JUMPDEST SWAP1 POP PUSH1 0x0 PUSH2 0x277D PUSH2 0x2D8B JUMP JUMPDEST PUSH1 0x1 PUSH1 0x1 PUSH1 0xA0 SHL SUB DUP10 AND PUSH1 0x0 SWAP1 DUP2 MSTORE PUSH1 0x20 DUP3 DUP2 MSTORE PUSH1 0x40 DUP1 DUP4 KECCAK256 DUP12 DUP5 MSTORE DUP3 MSTORE DUP1 DUP4 KECCAK256 DUP11 DUP5 MSTORE SWAP1 SWAP2 MSTORE DUP2 KECCAK256 SWAP2 SWAP3 POP DUP1 PUSH2 0x27B4 DUP9 DUP11 PUSH2 0x333B JUMP JUMPDEST SWAP2 POP SWAP2 POP DUP1 PUSH2 0x27C2 JUMPI PUSH1 0x0 DUP1 REVERT JUMPDEST PUSH2 0x27CC DUP6 DUP4 PUSH2 0x3446 JUMP JUMPDEST ISZERO PUSH2 0x285B JUMPI DUP3 SLOAD PUSH1 0x0 SWAP1 PUSH2 0x27E8 SWAP1 DUP10 SWAP1 PUSH1 0xF SWAP1 DUP2 SIGNEXTEND SWAP1 SIGNEXTEND PUSH2 0x1535 JUMP JUMPDEST SWAP1 POP PUSH1 0x1 PUSH1 0x1 PUSH1 0x7F SHL SUB NOT DUP2 SLT DUP1 ISZERO SWAP1 PUSH2 0x2809 JUMPI POP PUSH1 0x1 PUSH1 0x1 PUSH1 0x7F SHL SUB DUP2 SGT ISZERO JUMPDEST PUSH2 0x2812 JUMPI PUSH1 0x0 DUP1 REVERT JUMPDEST DUP4 SLOAD PUSH1 0x1 PUSH1 0x1 PUSH1 0x80 SHL SUB NOT AND PUSH1 0x1 PUSH1 0x1 PUSH1 0x80 SHL SUB PUSH1 0xF DUP4 SWAP1 SIGNEXTEND AND OR DUP5 SSTORE DUP1 PUSH2 0x2843 JUMPI PUSH2 0x2840 DUP7 DUP5 PUSH1 0x0 PUSH2 0x3476 JUMP JUMPDEST SWAP6 POP JUMPDEST PUSH2 0x284E DUP13 DUP13 DUP9 PUSH2 0x34C1 JUMP JUMPDEST SWAP6 POP PUSH2 0x12E4 SWAP5 POP POP POP POP POP JUMP JUMPDEST DUP7 ISZERO PUSH2 0x28BF JUMPI PUSH1 0x1 PUSH1 0x1 PUSH1 0x7F SHL SUB NOT DUP8 SLT DUP1 ISZERO SWAP1 PUSH2 0x2880 JUMPI POP PUSH1 0x1 PUSH1 0x1 PUSH1 0x7F SHL SUB DUP8 SGT ISZERO JUMPDEST PUSH2 0x2889 JUMPI PUSH1 0x0 DUP1 REVERT JUMPDEST DUP3 SLOAD PUSH1 0x1 PUSH1 0x1 PUSH1 0x80 SHL SUB NOT AND PUSH1 0x1 PUSH1 0x1 PUSH1 0x80 SHL SUB PUSH1 0xF DUP10 SWAP1 SIGNEXTEND AND OR DUP4 SSTORE PUSH2 0x28B2 DUP6 DUP4 PUSH1 0x1 PUSH2 0x3476 JUMP JUMPDEST SWAP5 POP PUSH2 0x28BF DUP12 DUP12 DUP8 PUSH2 0x34C1 JUMP JUMPDEST POP SWAP5 SWAP10 SWAP9 POP POP POP POP POP POP POP POP POP JUMP JUMPDEST DUP5 MLOAD PUSH2 0x28DD SWAP1 DUP6 DUP6 DUP6 DUP6 PUSH2 0x351B JUMP JUMPDEST ISZERO PUSH2 0x28E7 JUMPI PUSH2 0x1E5E JUMP JUMPDEST PUSH1 0x40 DUP6 ADD MLOAD ISZERO PUSH2 0x2914 JUMPI PUSH1 0x0 PUSH2 0x2904 DUP7 PUSH1 0x20 ADD MLOAD DUP7 DUP7 DUP7 DUP7 PUSH2 0x351B JUMP JUMPDEST SWAP1 POP DUP1 ISZERO PUSH2 0x2912 JUMPI POP PUSH2 0x1E5E JUMP JUMPDEST POP JUMPDEST PUSH2 0x291D DUP3 PUSH2 0x361F JUMP JUMPDEST ISZERO PUSH2 0x2930 JUMPI PUSH1 0x0 DUP2 SLT ISZERO PUSH2 0x2930 JUMPI PUSH1 0x0 DUP1 REVERT JUMPDEST PUSH1 0x1 PUSH1 0x1 PUSH1 0x57 SHL SUB NOT DUP2 SLT DUP1 ISZERO SWAP1 PUSH2 0x294F JUMPI POP PUSH1 0x1 PUSH1 0x1 PUSH1 0x57 SHL SUB DUP2 SGT ISZERO JUMPDEST PUSH2 0x2958 JUMPI PUSH1 0x0 DUP1 REVERT JUMPDEST DUP5 PUSH1 0x20 ADD MLOAD MLOAD DUP6 PUSH1 0x40 ADD MLOAD EQ ISZERO PUSH2 0x297C JUMPI PUSH2 0x2976 DUP6 PUSH1 0x20 ADD MLOAD PUSH2 0x3635 JUMP JUMPDEST PUSH1 0x20 DUP7 ADD MSTORE JUMPDEST PUSH1 0x0 DUP6 PUSH1 0x20 ADD MLOAD DUP7 PUSH1 0x40 ADD MLOAD DUP2 MLOAD DUP2 LT PUSH2 0x2992 JUMPI INVALID JUMPDEST PUSH1 0x20 SWAP1 DUP2 MUL SWAP2 SWAP1 SWAP2 ADD DUP2 ADD MLOAD SWAP6 DUP7 MSTORE DUP6 ADD SWAP4 SWAP1 SWAP4 MSTORE PUSH1 0x40 DUP1 DUP6 ADD SWAP3 SWAP1 SWAP3 MSTORE PUSH1 0x60 DUP5 ADD MSTORE PUSH1 0x0 PUSH1 0xA0 SWAP1 SWAP4 ADD SWAP3 SWAP1 SWAP3 MSTORE POP ADD DUP1 MLOAD PUSH1 0x1 ADD SWAP1 MSTORE JUMP JUMPDEST PUSH1 0x0 DUP1 DUP1 DUP1 DUP1 DUP1 DUP1 DUP1 JUMPDEST DUP10 MLOAD MLOAD DUP2 LT ISZERO PUSH2 0x2A5C JUMPI PUSH1 0x0 DUP11 PUSH1 0x0 ADD MLOAD DUP3 DUP2 MLOAD DUP2 LT PUSH2 0x29F1 JUMPI INVALID JUMPDEST PUSH1 0x20 MUL PUSH1 0x20 ADD ADD MLOAD SWAP1 POP PUSH1 0x3 DUP1 DUP2 GT ISZERO PUSH2 0x2A07 JUMPI INVALID JUMPDEST DUP2 PUSH1 0xA0 ADD MLOAD PUSH1 0x3 DUP2 GT ISZERO PUSH2 0x2A17 JUMPI INVALID JUMPDEST EQ ISZERO PUSH2 0x2A22 JUMPI PUSH1 0x0 DUP1 REVERT JUMPDEST PUSH1 0x2 DUP2 PUSH1 0xA0 ADD MLOAD PUSH1 0x3 DUP2 GT ISZERO PUSH2 0x2A34 JUMPI INVALID JUMPDEST EQ ISZERO DUP1 ISZERO PUSH2 0x2A44 JUMPI POP PUSH1 0x60 DUP2 ADD MLOAD ISZERO JUMPDEST ISZERO PUSH2 0x2A53 JUMPI PUSH2 0x2A53 DUP12 DUP4 PUSH2 0x36ED JUMP JUMPDEST POP PUSH1 0x1 ADD PUSH2 0x29D5 JUMP JUMPDEST POP PUSH1 0x0 JUMPDEST DUP10 MLOAD MLOAD DUP2 LT ISZERO PUSH2 0x2AFF JUMPI PUSH1 0x0 DUP11 PUSH1 0x0 ADD MLOAD DUP3 DUP2 MLOAD DUP2 LT PUSH2 0x2A7C JUMPI INVALID JUMPDEST PUSH1 0x20 MUL PUSH1 0x20 ADD ADD MLOAD SWAP1 POP PUSH1 0x2 PUSH1 0x3 DUP2 GT ISZERO PUSH2 0x2A93 JUMPI INVALID JUMPDEST DUP2 PUSH1 0xA0 ADD MLOAD PUSH1 0x3 DUP2 GT ISZERO PUSH2 0x2AA3 JUMPI INVALID JUMPDEST EQ ISZERO PUSH2 0x2AB7 JUMPI PUSH1 0x80 DUP2 ADD MLOAD PUSH1 0x0 SWAP1 SSTORE PUSH2 0x2AF6 JUMP JUMPDEST PUSH1 0x1 DUP2 PUSH1 0xA0 ADD MLOAD PUSH1 0x3 DUP2 GT ISZERO PUSH2 0x2AC9 JUMPI INVALID JUMPDEST EQ ISZERO PUSH2 0x2AE2 JUMPI PUSH1 0x80 DUP2 ADD MLOAD DUP1 PUSH2 0x2ADF DUP4 DUP3 PUSH2 0x383C JUMP JUMPDEST POP POP JUMPDEST PUSH2 0x2AEE DUP2 DUP7 DUP7 DUP7 PUSH2 0x3965 JUMP JUMPDEST SWAP2 SWAP7 POP SWAP5 POP SWAP3 POP JUMPDEST POP PUSH1 0x1 ADD PUSH2 0x2A60 JUMP JUMPDEST POP PUSH1 0x60 DUP10 ADD MLOAD PUSH1 0x0 PUSH2 0x2B0F PUSH2 0x39C8 JUMP JUMPDEST PUSH1 0x1 PUSH1 0x1 PUSH1 0xA0 SHL SUB DUP12 AND PUSH1 0x0 SWAP1 DUP2 MSTORE PUSH1 0x20 DUP3 SWAP1 MSTORE PUSH1 0x40 DUP2 KECCAK256 SWAP2 SWAP3 POP JUMPDEST DUP13 PUSH1 0x20 ADD MLOAD MLOAD DUP2 LT ISZERO PUSH2 0x2BD9 JUMPI PUSH1 0x0 DUP14 PUSH1 0x20 ADD MLOAD DUP3 DUP2 MLOAD DUP2 LT PUSH2 0x2B4A JUMPI INVALID JUMPDEST PUSH1 0x20 MUL PUSH1 0x20 ADD ADD MLOAD SWAP1 POP DUP1 PUSH1 0x60 ADD MLOAD PUSH1 0x0 EQ ISZERO PUSH2 0x2B67 JUMPI POP PUSH2 0x2BD1 JUMP JUMPDEST PUSH1 0x2 DUP2 PUSH1 0xA0 ADD MLOAD PUSH1 0x3 DUP2 GT ISZERO PUSH2 0x2B79 JUMPI INVALID JUMPDEST EQ ISZERO DUP1 ISZERO PUSH2 0x2B97 JUMPI POP PUSH1 0x3 DUP2 PUSH1 0xA0 ADD MLOAD PUSH1 0x3 DUP2 GT ISZERO PUSH2 0x2B94 JUMPI INVALID JUMPDEST EQ ISZERO JUMPDEST PUSH2 0x2BA0 JUMPI PUSH1 0x0 DUP1 REVERT JUMPDEST PUSH2 0x2BAC DUP2 DUP10 DUP10 DUP10 PUSH2 0x3965 JUMP JUMPDEST SWAP2 SWAP10 POP SWAP8 POP SWAP6 POP PUSH2 0x2BC9 DUP2 DUP5 DUP8 PUSH1 0x10 DUP2 LT PUSH2 0x2BC3 JUMPI INVALID JUMPDEST ADD PUSH2 0x383C JUMP JUMPDEST PUSH1 0x1 DUP6 ADD SWAP5 POP POP JUMPDEST PUSH1 0x1 ADD PUSH2 0x2B2B JUMP JUMPDEST POP PUSH1 0x10 DUP4 GT ISZERO DUP1 ISZERO PUSH2 0x2BF0 JUMPI POP PUSH5 0xFFFFFFFFFF DUP5 GT ISZERO JUMPDEST PUSH2 0x2BF9 JUMPI PUSH1 0x0 DUP1 REVERT JUMPDEST POP SWAP4 SWAP11 SWAP3 SWAP10 POP SWAP8 POP SWAP6 POP SWAP4 POP POP POP POP JUMP JUMPDEST PUSH1 0x0 DUP1 PUSH32 0x7FFF7FFF7FFF7FFF7FFF7FFF7FFF7FFF7FFF0000000000000000000000000000 DUP4 AND DUP2 JUMPDEST PUSH1 0x1 PUSH1 0x1 PUSH1 0x70 SHL SUB NOT DUP3 AND ISZERO PUSH2 0x2C7C JUMPI PUSH1 0x1 PUSH1 0xFE SHL DUP3 DUP2 AND EQ ISZERO PUSH2 0x2C66 JUMPI PUSH1 0x1 PUSH1 0x1 PUSH1 0xF0 SHL SUB NOT DUP3 AND DUP2 SHR SWAP3 SWAP1 SWAP3 OR SWAP2 PUSH1 0x10 ADD JUMPDEST PUSH1 0x10 DUP3 PUSH1 0x1 PUSH1 0x1 PUSH1 0x70 SHL SUB NOT AND SWAP1 SHL SWAP2 POP PUSH2 0x2C32 JUMP JUMPDEST POP SWAP1 SWAP4 SWAP3 POP POP POP JUMP JUMPDEST PUSH1 0x0 DUP2 DUP4 SGT PUSH2 0x2C94 JUMPI DUP2 PUSH2 0xE09 JUMP JUMPDEST POP SWAP1 SWAP2 SWAP1 POP JUMP JUMPDEST PUSH1 0x0 DUP1 DUP1 PUSH2 0x2CA9 DUP5 DUP8 PUSH2 0x151C JUMP JUMPDEST SWAP1 POP PUSH1 0x0 PUSH2 0x2CB7 DUP6 DUP8 PUSH2 0x151C JUMP JUMPDEST PUSH1 0x20 DUP10 ADD MLOAD PUSH1 0x60 DUP2 ADD MLOAD PUSH2 0x120 SWAP1 SWAP2 ADD MLOAD PUSH1 0x40 ADD MLOAD SWAP2 SWAP3 POP PUSH1 0x0 SWAP2 PUSH2 0x2CDB SWAP2 PUSH2 0x8C2 JUMP JUMPDEST SWAP1 POP DUP1 DUP3 SGT ISZERO PUSH2 0x2D01 JUMPI PUSH2 0x2CEF DUP2 DUP9 PUSH2 0x149F JUMP JUMPDEST SWAP6 POP SWAP1 POP DUP1 PUSH2 0x2CFE DUP7 DUP10 PUSH2 0x151C JUMP JUMPDEST SWAP3 POP JUMPDEST PUSH1 0x0 PUSH2 0x2D17 DUP11 PUSH1 0x20 ADD MLOAD DUP12 PUSH1 0xC0 ADD MLOAD DUP7 DUP11 PUSH2 0x39D5 JUMP JUMPDEST PUSH1 0x20 DUP13 ADD MLOAD PUSH2 0x120 ADD MLOAD PUSH1 0x40 ADD MLOAD SWAP2 SWAP9 POP SWAP2 POP PUSH2 0x2D47 SWAP1 PUSH2 0x2D38 SWAP1 DUP6 PUSH2 0x154B JUMP JUMPDEST PUSH1 0x20 DUP13 ADD MLOAD PUSH1 0x60 ADD MLOAD SWAP1 PUSH2 0x3A62 JUMP JUMPDEST PUSH1 0x20 DUP12 ADD MLOAD PUSH1 0x60 ADD MSTORE PUSH1 0x0 DUP2 SLT ISZERO PUSH2 0x2D5E JUMPI PUSH1 0x0 DUP1 REVERT JUMPDEST PUSH1 0x20 DUP11 ADD MLOAD PUSH1 0x40 ADD MLOAD PUSH2 0x2D71 SWAP1 DUP3 PUSH2 0x1535 JUMP JUMPDEST PUSH1 0x20 DUP12 ADD MLOAD PUSH1 0x40 ADD MSTORE DUP7 SWAP6 POP SWAP4 POP POP POP POP SWAP5 POP SWAP5 SWAP3 POP POP POP JUMP JUMPDEST PUSH1 0x0 DUP1 PUSH2 0x8F7 PUSH1 0xC PUSH2 0x20FB JUMP JUMPDEST PUSH1 0x0 DUP1 PUSH1 0x0 DUP6 GT PUSH2 0x2DBB JUMPI PUSH1 0x40 MLOAD PUSH3 0x461BCD PUSH1 0xE5 SHL DUP2 MSTORE PUSH1 0x4 ADD PUSH2 0x144 SWAP1 PUSH2 0x534E JUMP JUMPDEST PUSH1 0x7 DUP6 GT ISZERO PUSH2 0x2DDC JUMPI PUSH1 0x40 MLOAD PUSH3 0x461BCD PUSH1 0xE5 SHL DUP2 MSTORE PUSH1 0x4 ADD PUSH2 0x144 SWAP1 PUSH2 0x53FA JUMP JUMPDEST PUSH1 0x0 PUSH2 0x2DE7 DUP5 PUSH2 0x2F13 JUMP JUMPDEST SWAP1 POP PUSH1 0x1 JUMPDEST DUP7 DUP2 GT PUSH2 0x2E3F JUMPI PUSH1 0x0 PUSH2 0x2E08 PUSH2 0x2E01 DUP4 PUSH2 0x2F34 JUMP JUMPDEST DUP5 SWAP1 PUSH2 0x22D3 JUMP JUMPDEST SWAP1 POP DUP7 DUP2 EQ ISZERO PUSH2 0x2E20 JUMPI POP SWAP3 POP PUSH1 0x0 SWAP2 POP PUSH2 0x2E58 SWAP1 POP JUMP JUMPDEST DUP7 DUP2 GT ISZERO PUSH2 0x2E36 JUMPI POP SWAP3 POP PUSH1 0x1 SWAP2 POP PUSH2 0x2E58 SWAP1 POP JUMP JUMPDEST POP PUSH1 0x1 ADD PUSH2 0x2DEC JUMP JUMPDEST POP PUSH1 0x40 MLOAD PUSH3 0x461BCD PUSH1 0xE5 SHL DUP2 MSTORE PUSH1 0x4 ADD PUSH2 0x144 SWAP1 PUSH2 0x5496 JUMP JUMPDEST SWAP4 POP SWAP4 SWAP2 POP POP JUMP JUMPDEST PUSH1 0x60 ADD MLOAD PUSH2 0x12C PUSH1 0x8 SWAP2 SWAP1 SWAP2 SHR PUSH1 0xFF AND MUL SWAP1 JUMP JUMPDEST PUSH1 0x0 DUP1 PUSH2 0x2E7F PUSH2 0x3A7E JUMP JUMPDEST SWAP1 POP PUSH1 0x0 PUSH3 0x76A700 PUSH2 0x2E90 DUP6 PUSH2 0x2F13 JUMP JUMPDEST PUSH1 0x0 DUP10 DUP2 MSTORE PUSH1 0x20 DUP6 DUP2 MSTORE PUSH1 0x40 DUP1 DUP4 KECCAK256 DUP12 DUP5 MSTORE DUP3 MSTORE DUP1 DUP4 KECCAK256 SWAP5 SWAP1 SWAP4 ADD DUP1 DUP4 MSTORE SWAP4 SWAP1 MSTORE KECCAK256 DUP1 SLOAD SWAP2 SWAP3 POP SWAP1 PUSH4 0xFFFFFFFF PUSH1 0x1 PUSH1 0xA0 SHL DUP3 DIV DUP2 AND SWAP2 PUSH1 0x1 PUSH1 0xC0 SHL DUP2 DIV DUP3 AND SWAP2 PUSH1 0x1 PUSH1 0xE0 SHL SWAP1 SWAP2 DIV AND DUP2 PUSH2 0x2EF7 JUMPI PUSH1 0x40 MLOAD PUSH3 0x461BCD PUSH1 0xE5 SHL DUP2 MSTORE PUSH1 0x4 ADD PUSH2 0x144 SWAP1 PUSH2 0x531E JUMP JUMPDEST PUSH2 0x2F04 DUP2 DUP5 DUP5 DUP13 DUP13 PUSH2 0x3A8B JUMP JUMPDEST SWAP12 SWAP11 POP POP POP POP POP POP POP POP POP POP POP JUMP JUMPDEST PUSH1 0x0 PUSH3 0x76A700 DUP3 LT ISZERO PUSH2 0x2F25 JUMPI PUSH1 0x0 DUP1 REVERT JUMPDEST PUSH3 0x76A700 DUP3 JUMPDEST MOD SWAP1 SWAP2 SUB SWAP2 SWAP1 POP JUMP JUMPDEST PUSH1 0x0 DUP2 PUSH1 0x1 EQ ISZERO PUSH2 0x2F49 JUMPI POP PUSH3 0x76A700 PUSH2 0xC26 JUMP JUMPDEST DUP2 PUSH1 0x2 EQ ISZERO PUSH2 0x2F5C JUMPI POP PUSH3 0xED4E00 PUSH2 0xC26 JUMP JUMPDEST DUP2 PUSH1 0x3 EQ ISZERO PUSH2 0x2F70 JUMPI POP PUSH4 0x1DA9C00 PUSH2 0xC26 JUMP JUMPDEST DUP2 PUSH1 0x4 EQ ISZERO PUSH2 0x2F84 JUMPI POP PUSH4 0x3B53800 PUSH2 0xC26 JUMP JUMPDEST DUP2 PUSH1 0x5 EQ ISZERO PUSH2 0x2F98 JUMPI POP PUSH4 0x9450C00 PUSH2 0xC26 JUMP JUMPDEST DUP2 PUSH1 0x6 EQ ISZERO PUSH2 0x2FAC JUMPI POP PUSH4 0x128A1800 PUSH2 0xC26 JUMP JUMPDEST DUP2 PUSH1 0x7 EQ ISZERO PUSH2 0x2FC0 JUMPI POP PUSH4 0x25143000 PUSH2 0xC26 JUMP JUMPDEST PUSH1 0x40 MLOAD PUSH3 0x461BCD PUSH1 0xE5 SHL DUP2 MSTORE PUSH1 0x4 ADD PUSH2 0x144 SWAP1 PUSH2 0x537D JUMP JUMPDEST DUP1 MLOAD PUSH1 0x0 SWAP1 PUSH1 0x1 PUSH1 0x1 PUSH1 0xA0 SHL SUB AND PUSH2 0x2FF2 JUMPI POP PUSH1 0x0 PUSH2 0xC26 JUMP JUMPDEST PUSH1 0x0 DUP3 PUSH1 0x0 ADD MLOAD PUSH1 0x1 PUSH1 0x1 PUSH1 0xA0 SHL SUB AND PUSH4 0xDD30A666 PUSH1 0x40 MLOAD DUP2 PUSH4 0xFFFFFFFF AND PUSH1 0xE0 SHL DUP2 MSTORE PUSH1 0x4 ADD PUSH1 0x20 PUSH1 0x40 MLOAD DUP1 DUP4 SUB DUP2 DUP7 DUP1 EXTCODESIZE ISZERO DUP1 ISZERO PUSH2 0x3031 JUMPI PUSH1 0x0 DUP1 REVERT JUMPDEST POP GAS STATICCALL ISZERO DUP1 ISZERO PUSH2 0x3045 JUMPI RETURNDATASIZE PUSH1 0x0 DUP1 RETURNDATACOPY RETURNDATASIZE PUSH1 0x0 REVERT JUMPDEST POP POP POP POP PUSH1 0x40 MLOAD RETURNDATASIZE PUSH1 0x1F NOT PUSH1 0x1F DUP3 ADD AND DUP3 ADD DUP1 PUSH1 0x40 MSTORE POP DUP2 ADD SWAP1 PUSH2 0xE09 SWAP2 SWAP1 PUSH2 0x5268 JUMP JUMPDEST PUSH1 0x0 DUP2 DUP7 LT PUSH2 0x3077 JUMPI PUSH1 0x0 DUP1 REVERT JUMPDEST DUP5 DUP3 LT PUSH2 0x3083 JUMPI PUSH1 0x0 DUP1 REVERT JUMPDEST DUP4 DUP4 LT PUSH2 0x30AF JUMPI PUSH2 0x30A8 DUP5 PUSH2 0x30A2 DUP9 DUP9 SUB PUSH2 0x2345 DUP4 DUP9 SUB DUP12 DUP9 SUB PUSH2 0x30CD JUMP JUMPDEST SWAP1 PUSH2 0x22D3 JUMP JUMPDEST SWAP1 POP PUSH2 0x12E4 JUMP JUMPDEST PUSH2 0x30A8 PUSH2 0x30C6 DUP8 DUP8 SUB PUSH2 0x2345 DUP7 DUP9 SUB DUP11 DUP8 SUB PUSH2 0x30CD JUMP JUMPDEST DUP6 SWAP1 PUSH2 0x2261 JUMP JUMPDEST PUSH1 0x0 DUP3 PUSH2 0x30DC JUMPI POP PUSH1 0x0 PUSH2 0x8F7 JUMP JUMPDEST DUP3 DUP3 MUL DUP3 DUP5 DUP3 DUP2 PUSH2 0x30E9 JUMPI INVALID JUMPDEST DIV EQ PUSH2 0xE09 JUMPI PUSH1 0x40 MLOAD PUSH3 0x461BCD PUSH1 0xE5 SHL DUP2 MSTORE PUSH1 0x4 ADD DUP1 DUP1 PUSH1 0x20 ADD DUP3 DUP2 SUB DUP3 MSTORE PUSH1 0x21 DUP2 MSTORE PUSH1 0x20 ADD DUP1 PUSH2 0x5574 PUSH1 0x21 SWAP2 CODECOPY PUSH1 0x40 ADD SWAP2 POP POP PUSH1 0x40 MLOAD DUP1 SWAP2 SUB SWAP1 REVERT JUMPDEST PUSH1 0x0 DUP1 DUP3 GT PUSH2 0x317C JUMPI PUSH1 0x40 DUP1 MLOAD PUSH3 0x461BCD PUSH1 0xE5 SHL DUP2 MSTORE PUSH1 0x20 PUSH1 0x4 DUP3 ADD MSTORE PUSH1 0x1A PUSH1 0x24 DUP3 ADD MSTORE PUSH32 0x536166654D6174683A206469766973696F6E206279207A65726F000000000000 PUSH1 0x44 DUP3 ADD MSTORE SWAP1 MLOAD SWAP1 DUP2 SWAP1 SUB PUSH1 0x64 ADD SWAP1 REVERT JUMPDEST DUP2 DUP4 DUP2 PUSH2 0x3185 JUMPI INVALID JUMPDEST DIV SWAP4 SWAP3 POP POP POP JUMP JUMPDEST PUSH1 0x0 PUSH8 0x7FFFFFFFFFFFFFFF DUP3 GT ISZERO PUSH2 0x31A4 JUMPI PUSH1 0x0 DUP1 REVERT JUMPDEST POP PUSH1 0x40 SHL SWAP1 JUMP JUMPDEST PUSH1 0x0 DUP2 PUSH1 0xF SIGNEXTEND PUSH1 0x0 EQ ISZERO PUSH2 0x31BE JUMPI PUSH1 0x0 DUP1 REVERT JUMPDEST PUSH1 0x0 DUP3 PUSH1 0xF SIGNEXTEND PUSH1 0x40 DUP6 PUSH1 0xF SIGNEXTEND SWAP1 SHL DUP2 PUSH2 0x31D3 JUMPI INVALID JUMPDEST SDIV SWAP1 POP PUSH1 0x1 PUSH1 0x1 PUSH1 0x7F SHL SUB NOT DUP2 SLT DUP1 ISZERO SWAP1 PUSH2 0x31F5 JUMPI POP PUSH1 0x1 PUSH1 0x1 PUSH1 0x7F SHL SUB DUP2 SGT ISZERO JUMPDEST PUSH2 0xE09 JUMPI PUSH1 0x0 DUP1 REVERT JUMPDEST PUSH1 0x0 PUSH1 0xF DUP3 SWAP1 SIGNEXTEND PUSH1 0x1 PUSH1 0x1 PUSH1 0x7F SHL SUB NOT EQ ISZERO PUSH2 0x3219 JUMPI PUSH1 0x0 DUP1 REVERT JUMPDEST POP PUSH1 0x0 SUB SWAP1 JUMP JUMPDEST PUSH1 0x0 PUSH1 0x1 PUSH1 0x46 SHL DUP3 PUSH1 0xF SIGNEXTEND SLT PUSH2 0x3235 JUMPI PUSH1 0x0 DUP1 REVERT JUMPDEST PUSH9 0x3FFFFFFFFFFFFFFFFF NOT DUP3 PUSH1 0xF SIGNEXTEND SLT ISZERO PUSH2 0x3252 JUMPI POP PUSH1 0x0 PUSH2 0xC26 JUMP JUMPDEST PUSH2 0xC23 PUSH1 0x80 DUP4 PUSH1 0xF SIGNEXTEND PUSH17 0x171547652B82FE1777D0FFDA0D23A7D12 MUL SWAP1 SAR PUSH2 0x3B1E JUMP JUMPDEST PUSH1 0x0 PUSH1 0xF DUP4 DUP2 SIGNEXTEND SWAP1 DUP4 SWAP1 SIGNEXTEND MUL PUSH1 0x40 SAR PUSH1 0x1 PUSH1 0x1 PUSH1 0x7F SHL SUB NOT DUP2 SLT DUP1 ISZERO SWAP1 PUSH2 0x31F5 JUMPI POP PUSH1 0x1 PUSH1 0x1 PUSH1 0x7F SHL SUB DUP2 SGT ISZERO PUSH2 0xE09 JUMPI PUSH1 0x0 DUP1 REVERT JUMPDEST PUSH1 0xF SIGNEXTEND PUSH1 0x40 SAR SWAP1 JUMP JUMPDEST PUSH1 0x0 DUP1 PUSH2 0x8F7 PUSH1 0x13 PUSH2 0x20FB JUMP JUMPDEST PUSH1 0x0 PUSH3 0x15180 DUP3 LT ISZERO PUSH2 0x32D3 JUMPI PUSH1 0x0 DUP1 REVERT JUMPDEST PUSH3 0x15180 DUP3 PUSH2 0x2F2B JUMP JUMPDEST PUSH1 0x60 PUSH1 0x0 PUSH2 0x32EB DUP5 DUP5 PUSH2 0x45D0 JUMP JUMPDEST SWAP1 POP PUSH1 0x1 DUP2 MLOAD GT PUSH2 0x32FD JUMPI SWAP1 POP PUSH2 0x8F7 JUMP JUMPDEST PUSH2 0xE09 DUP2 PUSH2 0x46F1 JUMP JUMPDEST PUSH1 0x0 DUP1 PUSH2 0x3311 PUSH2 0x48A9 JUMP JUMPDEST PUSH1 0x1 PUSH1 0x1 PUSH1 0xA0 SHL SUB DUP6 AND PUSH1 0x0 SWAP1 DUP2 MSTORE PUSH1 0x20 SWAP2 DUP3 MSTORE PUSH1 0x40 DUP1 DUP3 KECCAK256 DUP7 DUP4 MSTORE SWAP1 SWAP3 MSTORE KECCAK256 SLOAD SWAP2 POP POP SWAP3 SWAP2 POP POP JUMP JUMPDEST PUSH1 0x0 DUP1 PUSH1 0x0 PUSH2 0x3349 DUP6 PUSH2 0x32C1 JUMP JUMPDEST SWAP1 POP PUSH3 0x15180 DUP5 MOD ISZERO PUSH2 0x3363 JUMPI PUSH1 0x0 DUP1 SWAP3 POP SWAP3 POP POP PUSH2 0x343F JUMP JUMPDEST DUP4 DUP2 LT PUSH2 0x3377 JUMPI PUSH1 0x0 DUP1 SWAP3 POP SWAP3 POP POP PUSH2 0x343F JUMP JUMPDEST PUSH3 0x15180 DUP2 DUP6 SUB DIV PUSH1 0x5A DUP2 GT PUSH2 0x3394 JUMPI SWAP3 POP PUSH1 0x1 SWAP2 POP PUSH2 0x343F SWAP1 POP JUMP JUMPDEST PUSH2 0x168 DUP2 GT PUSH2 0x33D3 JUMPI PUSH1 0x0 PUSH3 0x15180 PUSH3 0x7E900 DUP5 MOD DIV DUP3 ADD PUSH1 0x59 NOT ADD SWAP1 POP PUSH1 0x6 DUP2 DIV PUSH1 0x5A ADD PUSH1 0x6 DUP3 DUP2 PUSH2 0x33C3 JUMPI INVALID JUMPDEST MOD PUSH1 0x0 EQ SWAP5 POP SWAP5 POP POP POP POP PUSH2 0x343F JUMP JUMPDEST PUSH2 0x870 DUP2 GT PUSH2 0x3403 JUMPI PUSH1 0x0 PUSH3 0x15180 PUSH3 0x278D00 DUP5 MOD DIV DUP3 ADD PUSH2 0x167 NOT ADD SWAP1 POP PUSH1 0x1E DUP2 DIV PUSH1 0x87 ADD PUSH1 0x1E DUP3 DUP2 PUSH2 0x33C3 JUMPI INVALID JUMPDEST PUSH2 0x1DE2 DUP2 GT PUSH2 0x3433 JUMPI PUSH1 0x0 PUSH3 0x15180 PUSH3 0x76A700 DUP5 MOD DIV DUP3 ADD PUSH2 0x86F NOT ADD SWAP1 POP PUSH1 0x5A DUP2 DIV PUSH1 0xC3 ADD PUSH1 0x5A DUP3 DUP2 PUSH2 0x33C3 JUMPI INVALID JUMPDEST PUSH2 0x100 PUSH1 0x0 SWAP4 POP SWAP4 POP POP POP JUMPDEST SWAP3 POP SWAP3 SWAP1 POP JUMP JUMPDEST PUSH1 0x0 PUSH1 0x1 DUP3 LT ISZERO DUP1 ISZERO PUSH2 0x345B JUMPI POP PUSH2 0x100 DUP3 GT ISZERO JUMPDEST PUSH2 0x3464 JUMPI PUSH1 0x0 DUP1 REVERT JUMPDEST POP PUSH1 0x0 NOT ADD SHL PUSH1 0x1 PUSH1 0xFF SHL SWAP1 DUP2 AND EQ SWAP1 JUMP JUMPDEST PUSH1 0x0 PUSH1 0x1 DUP4 LT ISZERO DUP1 ISZERO PUSH2 0x348B JUMPI POP PUSH2 0x100 DUP4 GT ISZERO JUMPDEST PUSH2 0x3494 JUMPI PUSH1 0x0 DUP1 REVERT JUMPDEST DUP2 ISZERO PUSH2 0x34AD JUMPI POP PUSH1 0x1 PUSH1 0xFF SHL PUSH1 0x0 NOT DUP4 ADD SHR DUP4 OR PUSH2 0xE09 JUMP JUMPDEST POP PUSH1 0x1 PUSH1 0xFF SHL PUSH1 0x0 NOT DUP4 ADD SHR NOT DUP4 AND PUSH2 0xE09 JUMP JUMPDEST PUSH1 0x14 PUSH2 0x34CC DUP3 PUSH2 0x48B6 JUMP JUMPDEST GT ISZERO PUSH2 0x34EA JUMPI PUSH1 0x40 MLOAD PUSH3 0x461BCD PUSH1 0xE5 SHL DUP2 MSTORE PUSH1 0x4 ADD PUSH2 0x144 SWAP1 PUSH2 0x53D1 JUMP JUMPDEST PUSH1 0x0 PUSH2 0x34F4 PUSH2 0x48A9 JUMP JUMPDEST PUSH1 0x1 PUSH1 0x1 PUSH1 0xA0 SHL SUB SWAP1 SWAP5 AND PUSH1 0x0 SWAP1 DUP2 MSTORE PUSH1 0x20 SWAP5 DUP6 MSTORE PUSH1 0x40 DUP1 DUP3 KECCAK256 SWAP5 DUP3 MSTORE SWAP4 SWAP1 SWAP5 MSTORE POP SWAP2 KECCAK256 SSTORE JUMP JUMPDEST PUSH1 0x0 DUP1 JUMPDEST DUP7 MLOAD DUP2 LT ISZERO PUSH2 0x137E JUMPI PUSH1 0x0 DUP8 DUP3 DUP2 MLOAD DUP2 LT PUSH2 0x3536 JUMPI INVALID JUMPDEST PUSH1 0x20 MUL PUSH1 0x20 ADD ADD MLOAD SWAP1 POP DUP5 DUP2 PUSH1 0x40 ADD MLOAD EQ ISZERO DUP1 PUSH2 0x3554 JUMPI POP DUP1 MLOAD DUP8 EQ ISZERO JUMPDEST DUP1 PUSH2 0x3563 JUMPI POP DUP6 DUP2 PUSH1 0x20 ADD MLOAD EQ ISZERO JUMPDEST ISZERO PUSH2 0x356E JUMPI POP PUSH2 0x3617 JUMP JUMPDEST PUSH1 0x2 DUP2 PUSH1 0xA0 ADD MLOAD PUSH1 0x3 DUP2 GT ISZERO PUSH2 0x3580 JUMPI INVALID JUMPDEST EQ ISZERO DUP1 ISZERO PUSH2 0x359E JUMPI POP PUSH1 0x3 DUP2 PUSH1 0xA0 ADD MLOAD PUSH1 0x3 DUP2 GT ISZERO PUSH2 0x359B JUMPI INVALID JUMPDEST EQ ISZERO JUMPDEST PUSH2 0x35A7 JUMPI PUSH1 0x0 DUP1 REVERT JUMPDEST PUSH1 0x60 DUP2 ADD MLOAD PUSH1 0x0 SWAP1 PUSH2 0x35B9 SWAP1 DUP7 PUSH2 0x1535 JUMP JUMPDEST SWAP1 POP PUSH2 0x35C4 DUP7 PUSH2 0x361F JUMP JUMPDEST ISZERO PUSH2 0x35D7 JUMPI PUSH1 0x0 DUP2 SLT ISZERO PUSH2 0x35D7 JUMPI PUSH1 0x0 DUP1 REVERT JUMPDEST PUSH1 0x1 PUSH1 0x1 PUSH1 0x57 SHL SUB NOT DUP2 SLT DUP1 ISZERO SWAP1 PUSH2 0x35F6 JUMPI POP PUSH1 0x1 PUSH1 0x1 PUSH1 0x57 SHL SUB DUP2 SGT ISZERO JUMPDEST PUSH2 0x35FF JUMPI PUSH1 0x0 DUP1 REVERT JUMPDEST PUSH1 0x60 DUP3 ADD MSTORE PUSH1 0x1 PUSH1 0xA0 SWAP1 SWAP2 ADD DUP2 SWAP1 MSTORE SWAP2 POP PUSH2 0x12E4 SWAP1 POP JUMP JUMPDEST PUSH1 0x1 ADD PUSH2 0x351F JUMP JUMPDEST PUSH1 0x0 PUSH1 0x2 DUP3 LT DUP1 ISZERO SWAP1 PUSH2 0xC23 JUMPI POP POP PUSH1 0x8 LT ISZERO SWAP1 JUMP JUMPDEST PUSH1 0x60 PUSH1 0x0 DUP3 MLOAD PUSH1 0x0 EQ PUSH2 0x364C JUMPI DUP3 MLOAD PUSH1 0x2 MUL PUSH2 0x364F JUMP JUMPDEST PUSH1 0x1 JUMPDEST SWAP1 POP PUSH1 0x0 DUP2 PUSH1 0x1 PUSH1 0x1 PUSH1 0x40 SHL SUB DUP2 GT DUP1 ISZERO PUSH2 0x3669 JUMPI PUSH1 0x0 DUP1 REVERT JUMPDEST POP PUSH1 0x40 MLOAD SWAP1 DUP1 DUP3 MSTORE DUP1 PUSH1 0x20 MUL PUSH1 0x20 ADD DUP3 ADD PUSH1 0x40 MSTORE DUP1 ISZERO PUSH2 0x36A3 JUMPI DUP2 PUSH1 0x20 ADD JUMPDEST PUSH2 0x3690 PUSH2 0x4B9F JUMP JUMPDEST DUP2 MSTORE PUSH1 0x20 ADD SWAP1 PUSH1 0x1 SWAP1 SUB SWAP1 DUP2 PUSH2 0x3688 JUMPI SWAP1 POP JUMPDEST POP SWAP1 POP PUSH1 0x0 JUMPDEST DUP5 MLOAD DUP2 LT ISZERO PUSH2 0x36E5 JUMPI DUP5 DUP2 DUP2 MLOAD DUP2 LT PUSH2 0x36BE JUMPI INVALID JUMPDEST PUSH1 0x20 MUL PUSH1 0x20 ADD ADD MLOAD DUP3 DUP3 DUP2 MLOAD DUP2 LT PUSH2 0x36D2 JUMPI INVALID JUMPDEST PUSH1 0x20 SWAP1 DUP2 MUL SWAP2 SWAP1 SWAP2 ADD ADD MSTORE PUSH1 0x1 ADD PUSH2 0x36A9 JUMP JUMPDEST POP SWAP4 SWAP3 POP POP POP JUMP JUMPDEST DUP2 MLOAD MLOAD DUP2 LT PUSH2 0x36FB JUMPI PUSH1 0x0 DUP1 REVERT JUMPDEST PUSH1 0x0 DUP3 PUSH1 0x60 ADD MLOAD GT PUSH2 0x370C JUMPI PUSH1 0x0 DUP1 REVERT JUMPDEST PUSH1 0x0 DUP3 PUSH1 0x0 ADD MLOAD DUP3 DUP2 MLOAD DUP2 LT PUSH2 0x371E JUMPI INVALID JUMPDEST PUSH1 0x20 MUL PUSH1 0x20 ADD ADD MLOAD SWAP1 POP PUSH1 0x2 PUSH1 0x3 DUP2 GT ISZERO PUSH2 0x3735 JUMPI INVALID JUMPDEST DUP2 PUSH1 0xA0 ADD MLOAD PUSH1 0x3 DUP2 GT ISZERO PUSH2 0x3745 JUMPI INVALID JUMPDEST EQ ISZERO DUP1 ISZERO PUSH2 0x3763 JUMPI POP PUSH1 0x3 DUP2 PUSH1 0xA0 ADD MLOAD PUSH1 0x3 DUP2 GT ISZERO PUSH2 0x3760 JUMPI INVALID JUMPDEST EQ ISZERO JUMPDEST PUSH2 0x376C JUMPI PUSH1 0x0 DUP1 REVERT JUMPDEST PUSH1 0x60 DUP4 ADD DUP1 MLOAD PUSH1 0x0 NOT ADD SWAP1 MSTORE PUSH1 0x0 DUP1 DUP1 JUMPDEST DUP6 MLOAD MLOAD DUP2 LT ISZERO PUSH2 0x37DF JUMPI PUSH1 0x0 DUP7 PUSH1 0x0 ADD MLOAD DUP3 DUP2 MLOAD DUP2 LT PUSH2 0x3799 JUMPI INVALID JUMPDEST PUSH1 0x20 MUL PUSH1 0x20 ADD ADD MLOAD SWAP1 POP DUP3 DUP2 PUSH1 0x80 ADD MLOAD GT DUP1 ISZERO PUSH2 0x37C6 JUMPI POP PUSH1 0x2 DUP2 PUSH1 0xA0 ADD MLOAD PUSH1 0x3 DUP2 GT ISZERO PUSH2 0x37C3 JUMPI INVALID JUMPDEST EQ ISZERO JUMPDEST ISZERO PUSH2 0x37D6 JUMPI DUP1 PUSH1 0x80 ADD MLOAD SWAP3 POP DUP2 SWAP4 POP JUMPDEST POP PUSH1 0x1 ADD PUSH2 0x377D JUMP JUMPDEST POP DUP2 DUP5 EQ ISZERO PUSH2 0x37F8 JUMPI POP POP PUSH1 0x2 PUSH1 0xA0 SWAP2 SWAP1 SWAP2 ADD MSTORE PUSH2 0x1D8C JUMP JUMPDEST PUSH1 0x0 DUP6 PUSH1 0x0 ADD MLOAD DUP4 DUP2 MLOAD DUP2 LT PUSH2 0x380A JUMPI INVALID JUMPDEST PUSH1 0x20 SWAP1 DUP2 MUL SWAP2 SWAP1 SWAP2 ADD ADD MLOAD PUSH1 0x80 DUP6 DUP2 ADD DUP1 MLOAD SWAP2 DUP4 ADD DUP1 MLOAD SWAP1 SWAP2 MSTORE MSTORE PUSH1 0x1 PUSH1 0xA0 SWAP2 DUP3 ADD MSTORE PUSH1 0x2 SWAP5 ADD SWAP4 SWAP1 SWAP4 MSTORE POP POP POP POP POP JUMP JUMPDEST DUP2 MLOAD ISZERO DUP1 ISZERO SWAP1 PUSH2 0x384F JUMPI POP DUP2 MLOAD PUSH2 0x3FFF LT ISZERO JUMPDEST PUSH2 0x3858 JUMPI PUSH1 0x0 DUP1 REVERT JUMPDEST DUP2 PUSH1 0x20 ADD MLOAD PUSH1 0x0 LT DUP1 ISZERO PUSH2 0x3875 JUMPI POP PUSH1 0x20 DUP3 ADD MLOAD PUSH5 0xFFFFFFFFFF LT ISZERO JUMPDEST PUSH2 0x387E JUMPI PUSH1 0x0 DUP1 REVERT JUMPDEST DUP2 PUSH1 0x40 ADD MLOAD PUSH1 0x0 LT DUP1 ISZERO PUSH2 0x3897 JUMPI POP PUSH1 0x40 DUP3 ADD MLOAD PUSH1 0x8 LT ISZERO JUMPDEST PUSH2 0x38A0 JUMPI PUSH1 0x0 DUP1 REVERT JUMPDEST PUSH1 0x60 DUP3 ADD MLOAD PUSH1 0x1 PUSH1 0x1 PUSH1 0x57 SHL SUB NOT SGT DUP1 ISZERO SWAP1 PUSH2 0x38C7 JUMPI POP PUSH1 0x60 DUP3 ADD MLOAD PUSH1 0x1 PUSH1 0x1 PUSH1 0x57 SHL SUB SLT ISZERO JUMPDEST PUSH2 0x38D0 JUMPI PUSH1 0x0 DUP1 REVERT JUMPDEST DUP2 MLOAD DUP2 SLOAD PUSH1 0x20 DUP5 ADD MLOAD PUSH1 0x40 DUP6 ADD MLOAD PUSH1 0x60 SWAP1 SWAP6 ADD MLOAD PUSH1 0xA SIGNEXTEND PUSH11 0xFFFFFFFFFFFFFFFFFFFFFF AND PUSH1 0x1 PUSH1 0x40 SHL MUL PUSH19 0xFFFFFFFFFFFFFFFFFFFFFF0000000000000000 NOT PUSH1 0xFF SWAP1 SWAP7 AND PUSH1 0x1 PUSH1 0x38 SHL MUL PUSH8 0xFF00000000000000 NOT PUSH5 0xFFFFFFFFFF SWAP1 SWAP4 AND PUSH3 0x10000 MUL PUSH7 0xFFFFFFFFFF0000 NOT PUSH2 0xFFFF SWAP1 SWAP7 AND PUSH2 0xFFFF NOT SWAP1 SWAP6 AND SWAP5 SWAP1 SWAP5 OR SWAP5 SWAP1 SWAP5 AND SWAP3 SWAP1 SWAP3 OR AND SWAP2 SWAP1 SWAP2 OR SWAP3 SWAP1 SWAP3 AND SWAP2 SWAP1 SWAP2 OR SWAP1 SSTORE JUMP JUMPDEST PUSH1 0x0 DUP1 PUSH1 0x0 DUP1 PUSH2 0x3974 DUP9 PUSH2 0x4986 JUMP JUMPDEST SWAP1 POP DUP5 ISZERO DUP1 PUSH2 0x3982 JUMPI POP DUP1 DUP6 GT JUMPDEST ISZERO PUSH2 0x398B JUMPI DUP1 SWAP5 POP JUMPDEST DUP7 DUP1 PUSH2 0x399B JUMPI POP PUSH1 0x0 DUP9 PUSH1 0x60 ADD MLOAD SLT JUMPDEST SWAP7 POP PUSH2 0xFFFF DUP7 AND ISZERO PUSH2 0x39AC JUMPI PUSH1 0x0 DUP1 REVERT JUMPDEST POP POP SWAP5 MLOAD SWAP4 SWAP6 PUSH1 0x10 SWAP4 SWAP1 SWAP4 SHR PUSH1 0xF0 SWAP5 SWAP1 SWAP5 SHL SWAP4 SWAP1 SWAP4 OR SWAP4 POP SWAP2 POP JUMP JUMPDEST PUSH1 0x0 DUP1 PUSH2 0x8F7 PUSH1 0xD PUSH2 0x20FB JUMP JUMPDEST PUSH1 0x0 DUP1 PUSH1 0x0 PUSH2 0x3A08 DUP7 PUSH2 0x8ED PUSH2 0x39F3 DUP11 PUSH1 0xC0 ADD MLOAD DUP12 PUSH1 0xE0 ADD MLOAD PUSH2 0x49ED JUMP JUMPDEST PUSH1 0xC0 DUP12 ADD MLOAD MLOAD PUSH2 0x8ED SWAP1 PUSH2 0x12DE DUP12 PUSH1 0x64 PUSH2 0x1219 JUMP JUMPDEST SWAP1 POP PUSH1 0x0 PUSH2 0x3A24 DUP3 DUP10 PUSH2 0x100 ADD MLOAD PUSH2 0x154B SWAP1 SWAP2 SWAP1 PUSH4 0xFFFFFFFF AND JUMP JUMPDEST SWAP1 POP PUSH1 0x0 PUSH2 0x3A35 DUP10 PUSH1 0x40 ADD MLOAD PUSH2 0xCCC JUMP JUMPDEST SWAP1 POP DUP1 DUP3 SGT ISZERO PUSH2 0x3A53 JUMPI PUSH2 0x3A4D DUP3 PUSH2 0x8ED DUP9 DUP5 PUSH2 0x1219 JUMP JUMPDEST SWAP6 POP DUP1 SWAP2 POP JUMPDEST POP SWAP4 SWAP8 SWAP4 SWAP7 POP SWAP3 SWAP5 POP POP POP POP POP JUMP JUMPDEST PUSH1 0x0 PUSH2 0x3A6E DUP4 DUP4 PUSH2 0x1468 JUMP JUMPDEST SWAP1 POP PUSH1 0x0 DUP2 SLT ISZERO PUSH2 0x8F7 JUMPI PUSH1 0x0 DUP1 REVERT JUMPDEST PUSH1 0x0 DUP1 PUSH2 0x8F7 PUSH1 0xA PUSH2 0x20FB JUMP JUMPDEST PUSH1 0x0 DUP1 DUP4 GT PUSH2 0x3A99 JUMPI PUSH1 0x0 DUP1 REVERT JUMPDEST DUP2 DUP7 GT ISZERO PUSH2 0x3AA8 JUMPI POP DUP4 PUSH2 0x12E4 JUMP JUMPDEST PUSH1 0x0 PUSH2 0x3AB4 DUP4 DUP9 PUSH2 0x2261 JUMP JUMPDEST SWAP1 POP DUP4 DUP2 GT ISZERO PUSH2 0x3AC7 JUMPI DUP6 SWAP2 POP POP PUSH2 0x12E4 JUMP JUMPDEST PUSH1 0x0 PUSH2 0x3ADB DUP6 PUSH2 0x2345 DUP5 PUSH4 0x3B9ACA00 PUSH2 0x30CD JUMP JUMPDEST SWAP1 POP PUSH1 0x0 PUSH2 0x3AED PUSH4 0x3B9ACA00 DUP4 PUSH2 0x2261 JUMP JUMPDEST SWAP1 POP PUSH1 0x0 PUSH2 0x3B10 PUSH4 0x3B9ACA00 PUSH2 0x2345 PUSH2 0x3B06 DUP12 DUP7 PUSH2 0x30CD JUMP JUMPDEST PUSH2 0x30A2 DUP14 DUP9 PUSH2 0x30CD JUMP JUMPDEST SWAP11 SWAP10 POP POP POP POP POP POP POP POP POP POP JUMP JUMPDEST PUSH1 0x0 PUSH1 0x1 PUSH1 0x46 SHL DUP3 PUSH1 0xF SIGNEXTEND SLT PUSH2 0x3B33 JUMPI PUSH1 0x0 DUP1 REVERT JUMPDEST PUSH9 0x3FFFFFFFFFFFFFFFFF NOT DUP3 PUSH1 0xF SIGNEXTEND SLT ISZERO PUSH2 0x3B50 JUMPI POP PUSH1 0x0 PUSH2 0xC26 JUMP JUMPDEST PUSH1 0x1 PUSH1 0x7F SHL PUSH1 0x0 PUSH8 0x8000000000000000 DUP5 AND PUSH1 0xF SIGNEXTEND SGT ISZERO PUSH2 0x3B82 JUMPI PUSH17 0x16A09E667F3BCC908B2FB1366EA957D3E MUL PUSH1 0x80 SHR JUMPDEST PUSH1 0x0 DUP4 PUSH8 0x4000000000000000 AND PUSH1 0xF SIGNEXTEND SGT ISZERO PUSH2 0x3BAF JUMPI PUSH17 0x1306FE0A31B7152DE8D5A46305C85EDEC MUL PUSH1 0x80 SHR JUMPDEST PUSH1 0x0 DUP4 PUSH8 0x2000000000000000 AND PUSH1 0xF SIGNEXTEND SGT ISZERO PUSH2 0x3BDC JUMPI PUSH17 0x1172B83C7D517ADCDF7C8C50EB14A791F MUL PUSH1 0x80 SHR JUMPDEST PUSH1 0x0 DUP4 PUSH8 0x1000000000000000 AND PUSH1 0xF SIGNEXTEND SGT ISZERO PUSH2 0x3C09 JUMPI PUSH17 0x10B5586CF9890F6298B92B71842A98363 MUL PUSH1 0x80 SHR JUMPDEST PUSH1 0x0 DUP4 PUSH8 0x800000000000000 AND PUSH1 0xF SIGNEXTEND SGT ISZERO PUSH2 0x3C36 JUMPI PUSH17 0x1059B0D31585743AE7C548EB68CA417FD MUL PUSH1 0x80 SHR JUMPDEST PUSH1 0x0 DUP4 PUSH8 0x400000000000000 AND PUSH1 0xF SIGNEXTEND SGT ISZERO PUSH2 0x3C63 JUMPI PUSH17 0x102C9A3E778060EE6F7CACA4F7A29BDE8 MUL PUSH1 0x80 SHR JUMPDEST PUSH1 0x0 DUP4 PUSH8 0x200000000000000 AND PUSH1 0xF SIGNEXTEND SGT ISZERO PUSH2 0x3C90 JUMPI PUSH17 0x10163DA9FB33356D84A66AE336DCDFA3F MUL PUSH1 0x80 SHR JUMPDEST PUSH1 0x0 DUP4 PUSH1 0x1 PUSH1 0x38 SHL AND PUSH1 0xF SIGNEXTEND SGT ISZERO PUSH2 0x3CB9 JUMPI PUSH17 0x100B1AFA5ABCBED6129AB13EC11DC9543 MUL PUSH1 0x80 SHR JUMPDEST PUSH1 0x0 DUP4 PUSH7 0x80000000000000 AND PUSH1 0xF SIGNEXTEND SGT ISZERO PUSH2 0x3CE5 JUMPI PUSH17 0x10058C86DA1C09EA1FF19D294CF2F679B MUL PUSH1 0x80 SHR JUMPDEST PUSH1 0x0 DUP4 PUSH7 0x40000000000000 AND PUSH1 0xF SIGNEXTEND SGT ISZERO PUSH2 0x3D11 JUMPI PUSH17 0x1002C605E2E8CEC506D21BFC89A23A00F MUL PUSH1 0x80 SHR JUMPDEST PUSH1 0x0 DUP4 PUSH7 0x20000000000000 AND PUSH1 0xF SIGNEXTEND SGT ISZERO PUSH2 0x3D3D JUMPI PUSH17 0x100162F3904051FA128BCA9C55C31E5DF MUL PUSH1 0x80 SHR JUMPDEST PUSH1 0x0 DUP4 PUSH7 0x10000000000000 AND PUSH1 0xF SIGNEXTEND SGT ISZERO PUSH2 0x3D69 JUMPI PUSH17 0x1000B175EFFDC76BA38E31671CA939725 MUL PUSH1 0x80 SHR JUMPDEST PUSH1 0x0 DUP4 PUSH7 0x8000000000000 AND PUSH1 0xF SIGNEXTEND SGT ISZERO PUSH2 0x3D95 JUMPI PUSH17 0x100058BA01FB9F96D6CACD4B180917C3D MUL PUSH1 0x80 SHR JUMPDEST PUSH1 0x0 DUP4 PUSH7 0x4000000000000 AND PUSH1 0xF SIGNEXTEND SGT ISZERO PUSH2 0x3DC1 JUMPI PUSH17 0x10002C5CC37DA9491D0985C348C68E7B3 MUL PUSH1 0x80 SHR JUMPDEST PUSH1 0x0 DUP4 PUSH7 0x2000000000000 AND PUSH1 0xF SIGNEXTEND SGT ISZERO PUSH2 0x3DED JUMPI PUSH17 0x1000162E525EE054754457D5995292026 MUL PUSH1 0x80 SHR JUMPDEST PUSH1 0x0 DUP4 PUSH1 0x1 PUSH1 0x30 SHL AND PUSH1 0xF SIGNEXTEND SGT ISZERO PUSH2 0x3E16 JUMPI PUSH17 0x10000B17255775C040618BF4A4ADE83FC MUL PUSH1 0x80 SHR JUMPDEST PUSH1 0x0 DUP4 PUSH6 0x800000000000 AND PUSH1 0xF SIGNEXTEND SGT ISZERO PUSH2 0x3E41 JUMPI PUSH17 0x1000058B91B5BC9AE2EED81E9B7D4CFAB MUL PUSH1 0x80 SHR JUMPDEST PUSH1 0x0 DUP4 PUSH6 0x400000000000 AND PUSH1 0xF SIGNEXTEND SGT ISZERO PUSH2 0x3E6C JUMPI PUSH17 0x100002C5C89D5EC6CA4D7C8ACC017B7C9 MUL PUSH1 0x80 SHR JUMPDEST PUSH1 0x0 DUP4 PUSH6 0x200000000000 AND PUSH1 0xF SIGNEXTEND SGT ISZERO PUSH2 0x3E97 JUMPI PUSH17 0x10000162E43F4F831060E02D839A9D16D MUL PUSH1 0x80 SHR JUMPDEST PUSH1 0x0 DUP4 PUSH6 0x100000000000 AND PUSH1 0xF SIGNEXTEND SGT ISZERO PUSH2 0x3EC2 JUMPI PUSH17 0x100000B1721BCFC99D9F890EA06911763 MUL PUSH1 0x80 SHR JUMPDEST PUSH1 0x0 DUP4 PUSH6 0x80000000000 AND PUSH1 0xF SIGNEXTEND SGT ISZERO PUSH2 0x3EED JUMPI PUSH17 0x10000058B90CF1E6D97F9CA14DBCC1628 MUL PUSH1 0x80 SHR JUMPDEST PUSH1 0x0 DUP4 PUSH6 0x40000000000 AND PUSH1 0xF SIGNEXTEND SGT ISZERO PUSH2 0x3F18 JUMPI PUSH17 0x1000002C5C863B73F016468F6BAC5CA2B MUL PUSH1 0x80 SHR JUMPDEST PUSH1 0x0 DUP4 PUSH6 0x20000000000 AND PUSH1 0xF SIGNEXTEND SGT ISZERO PUSH2 0x3F43 JUMPI PUSH17 0x100000162E430E5A18F6119E3C02282A5 MUL PUSH1 0x80 SHR JUMPDEST PUSH1 0x0 DUP4 PUSH6 0x10000000000 AND PUSH1 0xF SIGNEXTEND SGT ISZERO PUSH2 0x3F6E JUMPI PUSH17 0x1000000B1721835514B86E6D96EFD1BFE MUL PUSH1 0x80 SHR JUMPDEST PUSH1 0x0 DUP4 PUSH5 0x8000000000 AND PUSH1 0xF SIGNEXTEND SGT ISZERO PUSH2 0x3F98 JUMPI PUSH17 0x100000058B90C0B48C6BE5DF846C5B2EF MUL PUSH1 0x80 SHR JUMPDEST PUSH1 0x0 DUP4 PUSH5 0x4000000000 AND PUSH1 0xF SIGNEXTEND SGT ISZERO PUSH2 0x3FC2 JUMPI PUSH17 0x10000002C5C8601CC6B9E94213C72737A MUL PUSH1 0x80 SHR JUMPDEST PUSH1 0x0 DUP4 PUSH5 0x2000000000 AND PUSH1 0xF SIGNEXTEND SGT ISZERO PUSH2 0x3FEC JUMPI PUSH17 0x1000000162E42FFF037DF38AA2B219F06 MUL PUSH1 0x80 SHR JUMPDEST PUSH1 0x0 DUP4 PUSH5 0x1000000000 AND PUSH1 0xF SIGNEXTEND SGT ISZERO PUSH2 0x4016 JUMPI PUSH17 0x10000000B17217FBA9C739AA5819F44F9 MUL PUSH1 0x80 SHR JUMPDEST PUSH1 0x0 DUP4 PUSH5 0x800000000 AND PUSH1 0xF SIGNEXTEND SGT ISZERO PUSH2 0x4040 JUMPI PUSH17 0x1000000058B90BFCDEE5ACD3C1CEDC823 MUL PUSH1 0x80 SHR JUMPDEST PUSH1 0x0 DUP4 PUSH5 0x400000000 AND PUSH1 0xF SIGNEXTEND SGT ISZERO PUSH2 0x406A JUMPI PUSH17 0x100000002C5C85FE31F35A6A30DA1BE50 MUL PUSH1 0x80 SHR JUMPDEST PUSH1 0x0 DUP4 PUSH5 0x200000000 AND PUSH1 0xF SIGNEXTEND SGT ISZERO PUSH2 0x4094 JUMPI PUSH17 0x10000000162E42FF0999CE3541B9FFFCF MUL PUSH1 0x80 SHR JUMPDEST PUSH1 0x0 DUP4 PUSH5 0x100000000 AND PUSH1 0xF SIGNEXTEND SGT ISZERO PUSH2 0x40BE JUMPI PUSH17 0x100000000B17217F80F4EF5AADDA45554 MUL PUSH1 0x80 SHR JUMPDEST PUSH1 0x0 DUP4 PUSH4 0x80000000 AND PUSH1 0xF SIGNEXTEND SGT ISZERO PUSH2 0x40E7 JUMPI PUSH17 0x10000000058B90BFBF8479BD5A81B51AD MUL PUSH1 0x80 SHR JUMPDEST PUSH1 0x0 DUP4 PUSH4 0x40000000 AND PUSH1 0xF SIGNEXTEND SGT ISZERO PUSH2 0x4110 JUMPI PUSH17 0x1000000002C5C85FDF84BD62AE30A74CC MUL PUSH1 0x80 SHR JUMPDEST PUSH1 0x0 DUP4 PUSH4 0x20000000 AND PUSH1 0xF SIGNEXTEND SGT ISZERO PUSH2 0x4139 JUMPI PUSH17 0x100000000162E42FEFB2FED257559BDAA MUL PUSH1 0x80 SHR JUMPDEST PUSH1 0x0 DUP4 PUSH4 0x10000000 AND PUSH1 0xF SIGNEXTEND SGT ISZERO PUSH2 0x4162 JUMPI PUSH17 0x1000000000B17217F7D5A7716BBA4A9AE MUL PUSH1 0x80 SHR JUMPDEST PUSH1 0x0 DUP4 PUSH4 0x8000000 AND PUSH1 0xF SIGNEXTEND SGT ISZERO PUSH2 0x418B JUMPI PUSH17 0x100000000058B90BFBE9DDBAC5E109CCE MUL PUSH1 0x80 SHR JUMPDEST PUSH1 0x0 DUP4 PUSH4 0x4000000 AND PUSH1 0xF SIGNEXTEND SGT ISZERO PUSH2 0x41B4 JUMPI PUSH17 0x10000000002C5C85FDF4B15DE6F17EB0D MUL PUSH1 0x80 SHR JUMPDEST PUSH1 0x0 DUP4 PUSH4 0x2000000 AND PUSH1 0xF SIGNEXTEND SGT ISZERO PUSH2 0x41DD JUMPI PUSH17 0x1000000000162E42FEFA494F1478FDE05 MUL PUSH1 0x80 SHR JUMPDEST PUSH1 0x0 DUP4 PUSH4 0x1000000 AND PUSH1 0xF SIGNEXTEND SGT ISZERO PUSH2 0x4206 JUMPI PUSH17 0x10000000000B17217F7D20CF927C8E94C MUL PUSH1 0x80 SHR JUMPDEST PUSH1 0x0 DUP4 PUSH3 0x800000 AND PUSH1 0xF SIGNEXTEND SGT ISZERO PUSH2 0x422E JUMPI PUSH17 0x1000000000058B90BFBE8F71CB4E4B33D MUL PUSH1 0x80 SHR JUMPDEST PUSH1 0x0 DUP4 PUSH3 0x400000 AND PUSH1 0xF SIGNEXTEND SGT ISZERO PUSH2 0x4256 JUMPI PUSH17 0x100000000002C5C85FDF477B662B26945 MUL PUSH1 0x80 SHR JUMPDEST PUSH1 0x0 DUP4 PUSH3 0x200000 AND PUSH1 0xF SIGNEXTEND SGT ISZERO PUSH2 0x427E JUMPI PUSH17 0x10000000000162E42FEFA3AE53369388C MUL PUSH1 0x80 SHR JUMPDEST PUSH1 0x0 DUP4 PUSH3 0x100000 AND PUSH1 0xF SIGNEXTEND SGT ISZERO PUSH2 0x42A6 JUMPI PUSH17 0x100000000000B17217F7D1D351A389D40 MUL PUSH1 0x80 SHR JUMPDEST PUSH1 0x0 DUP4 PUSH3 0x80000 AND PUSH1 0xF SIGNEXTEND SGT ISZERO PUSH2 0x42CE JUMPI PUSH17 0x10000000000058B90BFBE8E8B2D3D4EDE MUL PUSH1 0x80 SHR JUMPDEST PUSH1 0x0 DUP4 PUSH3 0x40000 AND PUSH1 0xF SIGNEXTEND SGT ISZERO PUSH2 0x42F6 JUMPI PUSH17 0x1000000000002C5C85FDF4741BEA6E77E MUL PUSH1 0x80 SHR JUMPDEST PUSH1 0x0 DUP4 PUSH3 0x20000 AND PUSH1 0xF SIGNEXTEND SGT ISZERO PUSH2 0x431E JUMPI PUSH17 0x100000000000162E42FEFA39FE95583C2 MUL PUSH1 0x80 SHR JUMPDEST PUSH1 0x0 DUP4 PUSH3 0x10000 AND PUSH1 0xF SIGNEXTEND SGT ISZERO PUSH2 0x4346 JUMPI PUSH17 0x1000000000000B17217F7D1CFB72B45E1 MUL PUSH1 0x80 SHR JUMPDEST PUSH1 0x0 DUP4 PUSH2 0x8000 AND PUSH1 0xF SIGNEXTEND SGT ISZERO PUSH2 0x436D JUMPI PUSH17 0x100000000000058B90BFBE8E7CC35C3F0 MUL PUSH1 0x80 SHR JUMPDEST PUSH1 0x0 DUP4 PUSH2 0x4000 AND PUSH1 0xF SIGNEXTEND SGT ISZERO PUSH2 0x4394 JUMPI PUSH17 0x10000000000002C5C85FDF473E242EA38 MUL PUSH1 0x80 SHR JUMPDEST PUSH1 0x0 DUP4 PUSH2 0x2000 AND PUSH1 0xF SIGNEXTEND SGT ISZERO PUSH2 0x43BB JUMPI PUSH17 0x1000000000000162E42FEFA39F02B772C MUL PUSH1 0x80 SHR JUMPDEST PUSH1 0x0 DUP4 PUSH2 0x1000 AND PUSH1 0xF SIGNEXTEND SGT ISZERO PUSH2 0x43E2 JUMPI PUSH17 0x10000000000000B17217F7D1CF7D83C1A MUL PUSH1 0x80 SHR JUMPDEST PUSH1 0x0 DUP4 PUSH2 0x800 AND PUSH1 0xF SIGNEXTEND SGT ISZERO PUSH2 0x4409 JUMPI PUSH17 0x1000000000000058B90BFBE8E7BDCBE2E MUL PUSH1 0x80 SHR JUMPDEST PUSH1 0x0 DUP4 PUSH2 0x400 AND PUSH1 0xF SIGNEXTEND SGT ISZERO PUSH2 0x4430 JUMPI PUSH17 0x100000000000002C5C85FDF473DEA871F MUL PUSH1 0x80 SHR JUMPDEST PUSH1 0x0 DUP4 PUSH2 0x200 AND PUSH1 0xF SIGNEXTEND SGT ISZERO PUSH2 0x4457 JUMPI PUSH17 0x10000000000000162E42FEFA39EF44D91 MUL PUSH1 0x80 SHR JUMPDEST PUSH1 0x0 DUP4 PUSH2 0x100 AND PUSH1 0xF SIGNEXTEND SGT ISZERO PUSH2 0x447E JUMPI PUSH17 0x100000000000000B17217F7D1CF79E949 MUL PUSH1 0x80 SHR JUMPDEST PUSH1 0x0 DUP4 PUSH1 0x80 AND PUSH1 0xF SIGNEXTEND SGT ISZERO PUSH2 0x44A4 JUMPI PUSH17 0x10000000000000058B90BFBE8E7BCE544 MUL PUSH1 0x80 SHR JUMPDEST PUSH1 0x0 DUP4 PUSH1 0x40 AND PUSH1 0xF SIGNEXTEND SGT ISZERO PUSH2 0x44CA JUMPI PUSH17 0x1000000000000002C5C85FDF473DE6ECA MUL PUSH1 0x80 SHR JUMPDEST PUSH1 0x0 DUP4 PUSH1 0x20 AND PUSH1 0xF SIGNEXTEND SGT ISZERO PUSH2 0x44F0 JUMPI PUSH17 0x100000000000000162E42FEFA39EF366F MUL PUSH1 0x80 SHR JUMPDEST PUSH1 0x0 DUP4 PUSH1 0x10 AND PUSH1 0xF SIGNEXTEND SGT ISZERO PUSH2 0x4516 JUMPI PUSH17 0x1000000000000000B17217F7D1CF79AFA MUL PUSH1 0x80 SHR JUMPDEST PUSH1 0x0 DUP4 PUSH1 0x8 AND PUSH1 0xF SIGNEXTEND SGT ISZERO PUSH2 0x453C JUMPI PUSH17 0x100000000000000058B90BFBE8E7BCD6D MUL PUSH1 0x80 SHR JUMPDEST PUSH1 0x0 DUP4 PUSH1 0x4 AND PUSH1 0xF SIGNEXTEND SGT ISZERO PUSH2 0x4562 JUMPI PUSH17 0x10000000000000002C5C85FDF473DE6B2 MUL PUSH1 0x80 SHR JUMPDEST PUSH1 0x0 DUP4 PUSH1 0x2 AND PUSH1 0xF SIGNEXTEND SGT ISZERO PUSH2 0x4588 JUMPI PUSH17 0x1000000000000000162E42FEFA39EF358 MUL PUSH1 0x80 SHR JUMPDEST PUSH1 0x0 DUP4 PUSH1 0x1 AND PUSH1 0xF SIGNEXTEND SGT ISZERO PUSH2 0x45AE JUMPI PUSH17 0x10000000000000000B17217F7D1CF79AB MUL PUSH1 0x80 SHR JUMPDEST PUSH1 0xF DUP4 DUP2 SIGNEXTEND PUSH1 0x40 SAR PUSH1 0x3F SUB SWAP1 SIGNEXTEND SHR PUSH1 0x1 PUSH1 0x1 PUSH1 0x7F SHL SUB DUP2 GT ISZERO PUSH2 0xC23 JUMPI PUSH1 0x0 DUP1 REVERT JUMPDEST PUSH1 0x60 PUSH1 0x10 DUP3 PUSH1 0xFF AND GT ISZERO PUSH2 0x45E3 JUMPI PUSH1 0x0 DUP1 REVERT JUMPDEST PUSH1 0x0 PUSH2 0x45ED PUSH2 0x39C8 JUMP JUMPDEST PUSH1 0x1 PUSH1 0x1 PUSH1 0xA0 SHL SUB DUP6 AND PUSH1 0x0 SWAP1 DUP2 MSTORE PUSH1 0x20 DUP3 SWAP1 MSTORE PUSH1 0x40 DUP2 KECCAK256 SWAP2 SWAP3 POP PUSH1 0xFF DUP6 AND PUSH1 0x1 PUSH1 0x1 PUSH1 0x40 SHL SUB DUP2 GT DUP1 ISZERO PUSH2 0x4621 JUMPI PUSH1 0x0 DUP1 REVERT JUMPDEST POP PUSH1 0x40 MLOAD SWAP1 DUP1 DUP3 MSTORE DUP1 PUSH1 0x20 MUL PUSH1 0x20 ADD DUP3 ADD PUSH1 0x40 MSTORE DUP1 ISZERO PUSH2 0x465B JUMPI DUP2 PUSH1 0x20 ADD JUMPDEST PUSH2 0x4648 PUSH2 0x4B9F JUMP JUMPDEST DUP2 MSTORE PUSH1 0x20 ADD SWAP1 PUSH1 0x1 SWAP1 SUB SWAP1 DUP2 PUSH2 0x4640 JUMPI SWAP1 POP JUMPDEST POP SWAP1 POP PUSH1 0x0 JUMPDEST DUP6 PUSH1 0xFF AND DUP2 LT ISZERO PUSH2 0x46E7 JUMPI PUSH1 0x0 DUP4 DUP3 PUSH1 0x10 DUP2 LT PUSH2 0x467A JUMPI INVALID JUMPDEST ADD SWAP1 POP PUSH1 0x0 DUP4 DUP4 DUP2 MLOAD DUP2 LT PUSH2 0x468B JUMPI INVALID JUMPDEST PUSH1 0x20 SWAP1 DUP2 MUL SWAP2 SWAP1 SWAP2 ADD DUP2 ADD MLOAD DUP4 SLOAD PUSH2 0xFFFF DUP2 AND DUP3 MSTORE PUSH5 0xFFFFFFFFFF PUSH3 0x10000 DUP3 DIV AND SWAP3 DUP3 ADD SWAP3 SWAP1 SWAP3 MSTORE PUSH1 0xFF PUSH1 0x1 PUSH1 0x38 SHL DUP4 DIV AND PUSH1 0x40 DUP3 ADD MSTORE PUSH1 0x1 PUSH1 0x40 SHL SWAP1 SWAP2 DIV PUSH1 0xA SWAP1 DUP2 SIGNEXTEND SWAP1 SIGNEXTEND PUSH1 0x60 DUP3 ADD MSTORE PUSH1 0x80 ADD SWAP2 SWAP1 SWAP2 MSTORE POP PUSH1 0x1 ADD PUSH2 0x4661 JUMP JUMPDEST POP SWAP6 SWAP5 POP POP POP POP POP JUMP JUMPDEST DUP1 MLOAD PUSH1 0x0 DUP2 PUSH1 0x1 PUSH1 0x1 PUSH1 0x40 SHL SUB DUP2 GT DUP1 ISZERO PUSH2 0x470B JUMPI PUSH1 0x0 DUP1 REVERT JUMPDEST POP PUSH1 0x40 MLOAD SWAP1 DUP1 DUP3 MSTORE DUP1 PUSH1 0x20 MUL PUSH1 0x20 ADD DUP3 ADD PUSH1 0x40 MSTORE DUP1 ISZERO PUSH2 0x4735 JUMPI DUP2 PUSH1 0x20 ADD PUSH1 0x20 DUP3 MUL DUP1 CALLDATASIZE DUP4 CALLDATACOPY ADD SWAP1 POP JUMPDEST POP SWAP1 POP PUSH1 0x0 JUMPDEST DUP3 DUP2 LT ISZERO PUSH2 0x4792 JUMPI PUSH1 0x0 DUP5 DUP3 DUP2 MLOAD DUP2 LT PUSH2 0x4751 JUMPI INVALID JUMPDEST PUSH1 0x20 MUL PUSH1 0x20 ADD ADD MLOAD SWAP1 POP PUSH2 0x4772 DUP2 PUSH1 0x0 ADD MLOAD DUP3 PUSH1 0x20 ADD MLOAD DUP4 PUSH1 0x40 ADD MLOAD PUSH2 0x4A12 JUMP JUMPDEST DUP4 DUP4 DUP2 MLOAD DUP2 LT PUSH2 0x477E JUMPI INVALID JUMPDEST PUSH1 0x20 SWAP1 DUP2 MUL SWAP2 SWAP1 SWAP2 ADD ADD MSTORE POP PUSH1 0x1 ADD PUSH2 0x473B JUMP JUMPDEST POP PUSH1 0x1 JUMPDEST DUP3 DUP2 LT ISZERO PUSH2 0x182B JUMPI DUP1 JUMPDEST PUSH1 0x0 DUP2 GT DUP1 ISZERO PUSH2 0x47D8 JUMPI POP DUP3 DUP2 DUP2 MLOAD DUP2 LT PUSH2 0x47B7 JUMPI INVALID JUMPDEST PUSH1 0x20 MUL PUSH1 0x20 ADD ADD MLOAD DUP4 PUSH1 0x1 DUP4 SUB DUP2 MLOAD DUP2 LT PUSH2 0x47CE JUMPI INVALID JUMPDEST PUSH1 0x20 MUL PUSH1 0x20 ADD ADD MLOAD GT JUMPDEST ISZERO PUSH2 0x48A0 JUMPI DUP3 DUP2 DUP2 MLOAD DUP2 LT PUSH2 0x47E9 JUMPI INVALID JUMPDEST PUSH1 0x20 MUL PUSH1 0x20 ADD ADD MLOAD DUP4 PUSH1 0x1 DUP4 SUB DUP2 MLOAD DUP2 LT PUSH2 0x4800 JUMPI INVALID JUMPDEST PUSH1 0x20 MUL PUSH1 0x20 ADD ADD MLOAD DUP5 PUSH1 0x1 DUP5 SUB DUP2 MLOAD DUP2 LT PUSH2 0x4817 JUMPI INVALID JUMPDEST PUSH1 0x20 MUL PUSH1 0x20 ADD ADD DUP6 DUP5 DUP2 MLOAD DUP2 LT PUSH2 0x482A JUMPI INVALID JUMPDEST PUSH1 0x20 MUL PUSH1 0x20 ADD ADD DUP3 DUP2 MSTORE POP DUP3 DUP2 MSTORE POP POP POP DUP5 DUP2 DUP2 MLOAD DUP2 LT PUSH2 0x4847 JUMPI INVALID JUMPDEST PUSH1 0x20 MUL PUSH1 0x20 ADD ADD MLOAD DUP6 PUSH1 0x1 DUP4 SUB DUP2 MLOAD DUP2 LT PUSH2 0x485E JUMPI INVALID JUMPDEST PUSH1 0x20 MUL PUSH1 0x20 ADD ADD MLOAD DUP7 PUSH1 0x1 DUP5 SUB DUP2 MLOAD DUP2 LT PUSH2 0x4875 JUMPI INVALID JUMPDEST PUSH1 0x20 MUL PUSH1 0x20 ADD ADD DUP8 DUP5 DUP2 MLOAD DUP2 LT PUSH2 0x4888 JUMPI INVALID JUMPDEST PUSH1 0x20 SWAP1 DUP2 MUL SWAP2 SWAP1 SWAP2 ADD ADD SWAP2 SWAP1 SWAP2 MSTORE MSTORE PUSH1 0x0 NOT ADD PUSH2 0x47A0 JUMP JUMPDEST POP PUSH1 0x1 ADD PUSH2 0x4796 JUMP JUMPDEST PUSH1 0x0 DUP1 PUSH2 0x8F7 PUSH1 0xB PUSH2 0x20FB JUMP JUMPDEST PUSH1 0x1 DUP2 SWAP1 SHR PUSH32 0x5555555555555555555555555555555555555555555555555555555555555555 SWAP1 DUP2 AND SWAP2 AND ADD PUSH1 0x2 DUP2 SWAP1 SHR PUSH32 0x3333333333333333333333333333333333333333333333333333333333333333 SWAP1 DUP2 AND SWAP2 AND ADD PUSH1 0x4 DUP2 SWAP1 SHR PUSH32 0x707070707070707070707070707070707070707070707070707070707070707 SWAP2 SWAP1 SWAP2 AND ADD PUSH1 0x8 DUP2 SWAP1 SHR PUSH31 0xF000F000F000F000F000F000F000F000F000F000F000F000F000F000F000F SWAP1 DUP2 AND SWAP2 AND ADD PUSH1 0x10 DUP2 SWAP1 SHR ADD PUSH1 0x20 DUP2 SWAP1 SHR ADD PUSH1 0x40 DUP2 SWAP1 SHR ADD PUSH1 0x80 DUP2 SWAP1 SHR PUSH1 0xFF SWAP1 DUP2 AND SWAP2 AND ADD SWAP1 JUMP JUMPDEST PUSH1 0x0 DUP1 DUP3 PUSH1 0x40 ADD MLOAD GT DUP1 ISZERO PUSH2 0x49A0 JUMPI POP PUSH1 0x40 DUP3 ADD MLOAD PUSH1 0x8 LT ISZERO JUMPDEST PUSH2 0x49A9 JUMPI PUSH1 0x0 DUP1 REVERT JUMPDEST PUSH1 0x40 DUP3 ADD MLOAD PUSH1 0x2 LT PUSH2 0x49C0 JUMPI POP PUSH1 0x20 DUP2 ADD MLOAD PUSH2 0xC26 JUMP JUMPDEST PUSH1 0x0 PUSH2 0x49D2 PUSH1 0x1 DUP5 PUSH1 0x40 ADD MLOAD SUB PUSH2 0x2F34 JUMP JUMPDEST PUSH1 0x20 DUP5 ADD MLOAD SWAP1 SWAP2 POP PUSH2 0xE09 SWAP1 PUSH3 0x76A700 SWAP1 PUSH2 0x30A2 SWAP1 DUP5 PUSH2 0x2261 JUMP JUMPDEST PUSH1 0x0 PUSH2 0xE09 DUP3 PUSH1 0x20 ADD MLOAD PUSH2 0x8ED DUP5 PUSH1 0x0 ADD MLOAD DUP7 PUSH1 0x20 ADD MLOAD PUSH2 0x1219 SWAP1 SWAP2 SWAP1 PUSH4 0xFFFFFFFF AND JUMP JUMPDEST PUSH1 0x0 PUSH2 0x3FFF DUP5 GT ISZERO PUSH2 0x4A23 JUMPI PUSH1 0x0 DUP1 REVERT JUMPDEST PUSH5 0xFFFFFFFFFF DUP4 GT ISZERO PUSH2 0x4A35 JUMPI PUSH1 0x0 DUP1 REVERT JUMPDEST PUSH1 0x8 DUP3 GT ISZERO PUSH2 0x4A43 JUMPI PUSH1 0x0 DUP1 REVERT JUMPDEST POP PUSH8 0xFFFF000000000000 PUSH1 0x30 DUP5 SWAP1 SHL AND PUSH6 0xFFFFFFFFFF00 PUSH1 0x8 DUP5 SWAP1 SHL AND OR PUSH1 0xFF DUP3 AND OR SWAP4 SWAP3 POP POP POP JUMP JUMPDEST PUSH1 0x40 MLOAD DUP1 PUSH2 0x100 ADD PUSH1 0x40 MSTORE DUP1 PUSH2 0x4A81 PUSH2 0x4AC4 JUMP JUMPDEST DUP2 MSTORE PUSH1 0x20 ADD PUSH2 0x4A8E PUSH2 0x4AF2 JUMP JUMPDEST DUP2 MSTORE PUSH1 0x20 ADD PUSH2 0x4A9B PUSH2 0x4B77 JUMP JUMPDEST DUP2 MSTORE PUSH1 0x20 ADD PUSH1 0x0 DUP2 MSTORE PUSH1 0x20 ADD PUSH1 0x0 DUP2 MSTORE PUSH1 0x20 ADD PUSH1 0x0 DUP2 MSTORE PUSH1 0x20 ADD PUSH1 0x0 DUP2 MSTORE PUSH1 0x20 ADD PUSH1 0x60 DUP2 MSTORE POP SWAP1 JUMP JUMPDEST PUSH1 0x40 DUP1 MLOAD PUSH1 0xA0 DUP2 ADD DUP3 MSTORE PUSH1 0x0 DUP1 DUP3 MSTORE PUSH1 0x20 DUP3 ADD DUP2 SWAP1 MSTORE SWAP2 DUP2 ADD DUP3 SWAP1 MSTORE PUSH1 0x60 DUP2 ADD DUP3 SWAP1 MSTORE PUSH1 0x80 DUP2 ADD SWAP2 SWAP1 SWAP2 MSTORE SWAP1 JUMP JUMPDEST PUSH1 0x40 MLOAD DUP1 PUSH2 0x160 ADD PUSH1 0x40 MSTORE DUP1 PUSH1 0x0 PUSH1 0x1 PUSH1 0x1 PUSH1 0xA0 SHL SUB AND DUP2 MSTORE PUSH1 0x20 ADD PUSH1 0x0 DUP2 MSTORE PUSH1 0x20 ADD PUSH1 0x0 DUP2 MSTORE PUSH1 0x20 ADD PUSH1 0x0 DUP2 MSTORE PUSH1 0x20 ADD PUSH1 0x0 DUP2 MSTORE PUSH1 0x20 ADD PUSH1 0x0 PUSH1 0x1 PUSH1 0x1 PUSH1 0xD0 SHL SUB NOT AND DUP2 MSTORE PUSH1 0x20 ADD PUSH2 0x4B43 PUSH2 0x4C2C JUMP JUMPDEST DUP2 MSTORE PUSH1 0x20 ADD PUSH2 0x4B50 PUSH2 0x4C2C JUMP JUMPDEST DUP2 MSTORE PUSH1 0x20 ADD PUSH2 0x4B5D PUSH2 0x4C5B JUMP JUMPDEST DUP2 MSTORE PUSH1 0x20 ADD PUSH2 0x4B6A PUSH2 0x4C85 JUMP JUMPDEST DUP2 MSTORE PUSH1 0x0 PUSH1 0x20 SWAP1 SWAP2 ADD MSTORE SWAP1 JUMP JUMPDEST PUSH1 0x40 MLOAD DUP1 PUSH1 0x80 ADD PUSH1 0x40 MSTORE DUP1 PUSH1 0x60 DUP2 MSTORE PUSH1 0x20 ADD PUSH1 0x60 DUP2 MSTORE PUSH1 0x20 ADD PUSH1 0x0 DUP2 MSTORE PUSH1 0x20 ADD PUSH1 0x0 DUP2 MSTORE POP SWAP1 JUMP JUMPDEST PUSH1 0x40 MLOAD DUP1 PUSH1 0xC0 ADD PUSH1 0x40 MSTORE DUP1 PUSH1 0x0 DUP2 MSTORE PUSH1 0x20 ADD PUSH1 0x0 DUP2 MSTORE PUSH1 0x20 ADD PUSH1 0x0 DUP2 MSTORE PUSH1 0x20 ADD PUSH1 0x0 DUP2 MSTORE PUSH1 0x20 ADD PUSH1 0x0 DUP2 MSTORE PUSH1 0x20 ADD PUSH1 0x0 PUSH1 0x3 DUP2 GT ISZERO PUSH2 0x4BDA JUMPI INVALID JUMPDEST SWAP1 MSTORE SWAP1 JUMP JUMPDEST PUSH1 0x40 DUP1 MLOAD PUSH1 0xA0 DUP2 ADD DUP3 MSTORE PUSH1 0x0 DUP1 DUP3 MSTORE PUSH1 0x20 DUP3 ADD DUP2 SWAP1 MSTORE SWAP2 DUP2 ADD DUP3 SWAP1 MSTORE SWAP1 PUSH1 0x60 DUP3 ADD SWAP1 DUP2 MSTORE PUSH1 0x20 ADD PUSH1 0x0 DUP2 MSTORE POP SWAP1 JUMP JUMPDEST PUSH1 0x40 MLOAD DUP1 PUSH1 0x20 ADD PUSH1 0x40 MSTORE DUP1 PUSH1 0x1 SWAP1 PUSH1 0x20 DUP3 MUL DUP1 CALLDATASIZE DUP4 CALLDATACOPY POP SWAP2 SWAP3 SWAP2 POP POP JUMP JUMPDEST PUSH1 0x40 MLOAD DUP1 PUSH1 0xA0 ADD PUSH1 0x40 MSTORE DUP1 PUSH1 0x0 DUP2 MSTORE PUSH1 0x20 ADD PUSH1 0x0 DUP2 MSTORE PUSH1 0x20 ADD PUSH1 0x0 DUP2 MSTORE PUSH1 0x20 ADD PUSH1 0x0 DUP2 MSTORE PUSH1 0x20 ADD PUSH1 0x0 DUP2 MSTORE POP SWAP1 JUMP JUMPDEST PUSH1 0x40 MLOAD DUP1 PUSH1 0x60 ADD PUSH1 0x40 MSTORE DUP1 PUSH1 0x0 PUSH1 0x1 PUSH1 0x1 PUSH1 0xA0 SHL SUB AND DUP2 MSTORE PUSH1 0x20 ADD PUSH1 0x0 DUP2 MSTORE PUSH1 0x20 ADD PUSH1 0x0 DUP2 MSTORE POP SWAP1 JUMP JUMPDEST PUSH1 0x40 DUP1 MLOAD PUSH1 0x80 DUP2 ADD DUP3 MSTORE PUSH1 0x0 DUP1 DUP3 MSTORE PUSH1 0x20 DUP3 ADD MSTORE SWAP1 DUP2 ADD PUSH2 0x4B6A PUSH2 0x4C5B JUMP JUMPDEST DUP1 MLOAD PUSH2 0xC26 DUP2 PUSH2 0x554B JUMP JUMPDEST PUSH1 0x0 DUP3 PUSH1 0x1F DUP4 ADD SLT PUSH2 0x4CBF JUMPI DUP1 DUP2 REVERT JUMPDEST DUP2 MLOAD PUSH1 0x20 PUSH1 0x1 PUSH1 0x1 PUSH1 0x40 SHL SUB DUP1 DUP4 GT ISZERO PUSH2 0x4CD5 JUMPI INVALID JUMPDEST PUSH2 0x4CE2 DUP3 DUP4 DUP6 MUL ADD PUSH2 0x5528 JUMP JUMPDEST DUP4 DUP2 MSTORE DUP3 DUP2 ADD SWAP1 DUP7 DUP5 ADD PUSH1 0xC0 DUP1 DUP8 MUL DUP10 ADD DUP7 ADD DUP11 LT ISZERO PUSH2 0x4D00 JUMPI DUP8 DUP9 REVERT JUMPDEST DUP8 JUMPDEST DUP8 DUP2 LT ISZERO PUSH2 0x4D81 JUMPI DUP2 DUP4 DUP13 SUB SLT ISZERO PUSH2 0x4D18 JUMPI DUP9 DUP10 REVERT JUMPDEST PUSH1 0x40 DUP1 MLOAD DUP4 DUP2 ADD DUP2 DUP2 LT DUP10 DUP3 GT OR ISZERO PUSH2 0x4D2D JUMPI INVALID JUMPDEST DUP3 MSTORE DUP5 MLOAD DUP2 MSTORE DUP9 DUP6 ADD MLOAD DUP10 DUP3 ADD MSTORE DUP5 DUP3 ADD MLOAD SWAP2 DUP2 ADD SWAP2 SWAP1 SWAP2 MSTORE PUSH1 0x60 DUP1 DUP6 ADD MLOAD SWAP1 DUP3 ADD MSTORE PUSH1 0x80 DUP1 DUP6 ADD MLOAD SWAP1 DUP3 ADD MSTORE PUSH1 0xA0 SWAP1 PUSH2 0x4D68 DUP3 DUP7 ADD PUSH2 0x4E29 JUMP JUMPDEST SWAP2 DUP2 ADD SWAP2 SWAP1 SWAP2 MSTORE DUP6 MSTORE SWAP4 DUP7 ADD SWAP4 SWAP2 DUP2 ADD SWAP2 PUSH1 0x1 ADD PUSH2 0x4D02 JUMP JUMPDEST POP SWAP2 SWAP10 SWAP9 POP POP POP POP POP POP POP POP POP JUMP JUMPDEST PUSH1 0x0 DUP1 DUP4 PUSH1 0x1F DUP5 ADD SLT PUSH2 0x4DA1 JUMPI DUP2 DUP3 REVERT JUMPDEST POP DUP2 CALLDATALOAD PUSH1 0x1 PUSH1 0x1 PUSH1 0x40 SHL SUB DUP2 GT ISZERO PUSH2 0x4DB7 JUMPI DUP2 DUP3 REVERT JUMPDEST PUSH1 0x20 DUP4 ADD SWAP2 POP DUP4 PUSH1 0x20 DUP1 DUP4 MUL DUP6 ADD ADD GT ISZERO PUSH2 0x343F JUMPI PUSH1 0x0 DUP1 REVERT JUMPDEST DUP1 MLOAD DUP1 ISZERO ISZERO DUP2 EQ PUSH2 0xC26 JUMPI PUSH1 0x0 DUP1 REVERT JUMPDEST DUP1 MLOAD PUSH1 0x1 PUSH1 0x1 PUSH1 0x70 SHL SUB NOT DUP2 AND DUP2 EQ PUSH2 0xC26 JUMPI PUSH1 0x0 DUP1 REVERT JUMPDEST DUP1 MLOAD PUSH1 0x1 PUSH1 0x1 PUSH1 0xF8 SHL SUB NOT DUP2 AND DUP2 EQ PUSH2 0xC26 JUMPI PUSH1 0x0 DUP1 REVERT JUMPDEST DUP1 MLOAD PUSH1 0x1 PUSH1 0x1 PUSH1 0xD0 SHL SUB NOT DUP2 AND DUP2 EQ PUSH2 0xC26 JUMPI PUSH1 0x0 DUP1 REVERT JUMPDEST DUP1 MLOAD PUSH1 0x4 DUP2 LT PUSH2 0xC26 JUMPI PUSH1 0x0 DUP1 REVERT JUMPDEST PUSH1 0x0 PUSH1 0x60 DUP3 DUP5 SUB SLT ISZERO PUSH2 0x4E49 JUMPI DUP1 DUP2 REVERT JUMPDEST PUSH1 0x40 MLOAD PUSH1 0x60 DUP2 ADD DUP2 DUP2 LT PUSH1 0x1 PUSH1 0x1 PUSH1 0x40 SHL SUB DUP3 GT OR ISZERO PUSH2 0x4E65 JUMPI INVALID JUMPDEST DUP1 PUSH1 0x40 MSTORE POP DUP1 SWAP2 POP DUP3 MLOAD PUSH2 0x4E78 DUP2 PUSH2 0x554B JUMP JUMPDEST DUP1 DUP3 MSTORE POP PUSH1 0x20 DUP4 ADD MLOAD PUSH1 0x20 DUP3 ADD MSTORE PUSH1 0x40 DUP4 ADD MLOAD PUSH1 0x40 DUP3 ADD MSTORE POP SWAP3 SWAP2 POP POP JUMP JUMPDEST PUSH1 0x0 PUSH1 0xC0 DUP3 DUP5 SUB SLT ISZERO PUSH2 0x4EA8 JUMPI DUP1 DUP2 REVERT JUMPDEST PUSH1 0x40 MLOAD PUSH1 0x80 DUP2 ADD DUP2 DUP2 LT PUSH1 0x1 PUSH1 0x1 PUSH1 0x40 SHL SUB DUP3 GT OR ISZERO PUSH2 0x4EC4 JUMPI INVALID JUMPDEST DUP1 PUSH1 0x40 MSTORE POP DUP1 SWAP2 POP DUP3 MLOAD PUSH2 0x4ED7 DUP2 PUSH2 0x5563 JUMP JUMPDEST DUP2 MSTORE PUSH1 0x20 DUP4 DUP2 ADD MLOAD SWAP1 DUP3 ADD MSTORE PUSH2 0x4EF0 DUP5 PUSH1 0x40 DUP6 ADD PUSH2 0x4E38 JUMP JUMPDEST PUSH1 0x40 DUP3 ADD MSTORE PUSH1 0xA0 DUP4 ADD MLOAD PUSH1 0x60 DUP3 ADD MSTORE POP SWAP3 SWAP2 POP POP JUMP JUMPDEST PUSH1 0x0 PUSH1 0xA0 DUP3 DUP5 SUB SLT ISZERO PUSH2 0x4F17 JUMPI DUP1 DUP2 REVERT JUMPDEST PUSH1 0x40 MLOAD PUSH1 0xA0 DUP2 ADD DUP2 DUP2 LT PUSH1 0x1 PUSH1 0x1 PUSH1 0x40 SHL SUB DUP3 GT OR ISZERO PUSH2 0x4F33 JUMPI INVALID JUMPDEST DUP1 PUSH1 0x40 MSTORE POP DUP1 SWAP2 POP DUP3 MLOAD DUP2 MSTORE PUSH1 0x20 DUP4 ADD MLOAD PUSH1 0x20 DUP3 ADD MSTORE PUSH1 0x40 DUP4 ADD MLOAD PUSH1 0x40 DUP3 ADD MSTORE PUSH1 0x60 DUP4 ADD MLOAD PUSH1 0x60 DUP3 ADD MSTORE PUSH1 0x80 DUP4 ADD MLOAD PUSH1 0x80 DUP3 ADD MSTORE POP SWAP3 SWAP2 POP POP JUMP JUMPDEST PUSH1 0x0 PUSH2 0x340 DUP3 DUP5 SUB SLT ISZERO PUSH2 0x4F80 JUMPI DUP1 DUP2 REVERT JUMPDEST PUSH2 0x160 PUSH2 0x4F8C DUP2 PUSH2 0x5528 JUMP JUMPDEST SWAP2 POP PUSH2 0x4F97 DUP4 PUSH2 0x4CA4 JUMP JUMPDEST DUP3 MSTORE PUSH1 0x20 DUP4 ADD MLOAD PUSH1 0x20 DUP4 ADD MSTORE PUSH1 0x40 DUP4 ADD MLOAD PUSH1 0x40 DUP4 ADD MSTORE PUSH1 0x60 DUP4 ADD MLOAD PUSH1 0x60 DUP4 ADD MSTORE PUSH1 0x80 DUP4 ADD MLOAD PUSH1 0x80 DUP4 ADD MSTORE PUSH2 0x4FCD PUSH1 0xA0 DUP5 ADD PUSH2 0x4E11 JUMP JUMPDEST PUSH1 0xA0 DUP4 ADD MSTORE PUSH2 0x4FDF DUP5 PUSH1 0xC0 DUP6 ADD PUSH2 0x4F06 JUMP JUMPDEST PUSH1 0xC0 DUP4 ADD MSTORE PUSH2 0x4FF0 DUP5 DUP3 DUP6 ADD PUSH2 0x4F06 JUMP JUMPDEST PUSH1 0xE0 DUP4 ADD MSTORE POP PUSH2 0x5004 DUP4 PUSH2 0x200 DUP5 ADD PUSH2 0x4E38 JUMP JUMPDEST PUSH2 0x100 DUP3 ADD MSTORE PUSH2 0x5018 DUP4 PUSH2 0x260 DUP5 ADD PUSH2 0x4E97 JUMP JUMPDEST PUSH2 0x120 DUP3 ADD MSTORE PUSH2 0x502B PUSH2 0x320 DUP4 ADD PUSH2 0x4DD1 JUMP JUMPDEST PUSH2 0x140 DUP3 ADD MSTORE SWAP3 SWAP2 POP POP JUMP JUMPDEST DUP1 MLOAD PUSH2 0xC26 DUP2 PUSH2 0x5563 JUMP JUMPDEST DUP1 MLOAD PUSH1 0xFF DUP2 AND DUP2 EQ PUSH2 0xC26 JUMPI PUSH1 0x0 DUP1 REVERT JUMPDEST PUSH1 0x0 DUP1 PUSH1 0x0 DUP1 PUSH1 0x0 DUP1 PUSH1 0x80 DUP8 DUP10 SUB SLT ISZERO PUSH2 0x506B JUMPI DUP2 DUP3 REVERT JUMPDEST DUP7 CALLDATALOAD PUSH2 0x5076 DUP2 PUSH2 0x554B JUMP JUMPDEST SWAP6 POP PUSH1 0x20 DUP8 ADD CALLDATALOAD PUSH2 0x5086 DUP2 PUSH2 0x5563 JUMP JUMPDEST SWAP5 POP PUSH1 0x40 DUP8 ADD CALLDATALOAD PUSH1 0x1 PUSH1 0x1 PUSH1 0x40 SHL SUB DUP1 DUP3 GT ISZERO PUSH2 0x50A1 JUMPI DUP4 DUP5 REVERT JUMPDEST PUSH2 0x50AD DUP11 DUP4 DUP12 ADD PUSH2 0x4D90 JUMP JUMPDEST SWAP1 SWAP7 POP SWAP5 POP PUSH1 0x60 DUP10 ADD CALLDATALOAD SWAP2 POP DUP1 DUP3 GT ISZERO PUSH2 0x50C5 JUMPI DUP4 DUP5 REVERT JUMPDEST POP PUSH2 0x50D2 DUP10 DUP3 DUP11 ADD PUSH2 0x4D90 JUMP JUMPDEST SWAP8 SWAP11 SWAP7 SWAP10 POP SWAP5 SWAP8 POP SWAP3 SWAP6 SWAP4 SWAP5 SWAP3 POP POP POP JUMP JUMPDEST PUSH1 0x0 DUP1 PUSH1 0x0 DUP1 PUSH1 0x0 DUP1 PUSH1 0x0 PUSH1 0xA0 DUP9 DUP11 SUB SLT ISZERO PUSH2 0x50FE JUMPI DUP5 DUP6 REVERT JUMPDEST DUP8 CALLDATALOAD PUSH2 0x5109 DUP2 PUSH2 0x554B JUMP JUMPDEST SWAP7 POP PUSH1 0x20 DUP9 ADD CALLDATALOAD PUSH2 0x5119 DUP2 PUSH2 0x5563 JUMP JUMPDEST SWAP6 POP PUSH1 0x40 DUP9 ADD CALLDATALOAD PUSH2 0x5129 DUP2 PUSH2 0x5563 JUMP JUMPDEST SWAP5 POP PUSH1 0x60 DUP9 ADD CALLDATALOAD PUSH1 0x1 PUSH1 0x1 PUSH1 0x40 SHL SUB DUP1 DUP3 GT ISZERO PUSH2 0x5144 JUMPI DUP3 DUP4 REVERT JUMPDEST PUSH2 0x5150 DUP12 DUP4 DUP13 ADD PUSH2 0x4D90 JUMP JUMPDEST SWAP1 SWAP7 POP SWAP5 POP PUSH1 0x80 DUP11 ADD CALLDATALOAD SWAP2 POP DUP1 DUP3 GT ISZERO PUSH2 0x5168 JUMPI DUP3 DUP4 REVERT JUMPDEST POP PUSH2 0x5175 DUP11 DUP3 DUP12 ADD PUSH2 0x4D90 JUMP JUMPDEST SWAP9 SWAP12 SWAP8 SWAP11 POP SWAP6 SWAP9 POP SWAP4 SWAP7 SWAP3 SWAP6 SWAP3 SWAP4 POP POP POP JUMP JUMPDEST PUSH1 0x0 DUP1 PUSH1 0x0 DUP4 DUP6 SUB PUSH2 0x400 DUP2 SLT ISZERO PUSH2 0x519E JUMPI DUP2 DUP3 REVERT JUMPDEST PUSH1 0xA0 DUP2 SLT ISZERO PUSH2 0x51AB JUMPI DUP2 DUP3 REVERT JUMPDEST POP PUSH1 0x40 MLOAD PUSH1 0xA0 DUP2 ADD PUSH1 0x1 PUSH1 0x1 PUSH1 0x40 SHL SUB DUP3 DUP3 LT DUP2 DUP4 GT OR ISZERO PUSH2 0x51C9 JUMPI INVALID JUMPDEST DUP2 PUSH1 0x40 MSTORE DUP7 MLOAD SWAP2 POP PUSH5 0xFFFFFFFFFF DUP3 AND DUP3 EQ PUSH2 0x51E3 JUMPI DUP4 DUP5 REVERT JUMPDEST DUP2 DUP4 MSTORE PUSH2 0x51F2 PUSH1 0x20 DUP9 ADD PUSH2 0x4DF9 JUMP JUMPDEST PUSH1 0x20 DUP5 ADD MSTORE PUSH2 0x5203 PUSH1 0x40 DUP9 ADD PUSH2 0x5042 JUMP JUMPDEST PUSH1 0x40 DUP5 ADD MSTORE PUSH2 0x5214 PUSH1 0x60 DUP9 ADD PUSH2 0x5037 JUMP JUMPDEST PUSH1 0x60 DUP5 ADD MSTORE PUSH2 0x5225 PUSH1 0x80 DUP9 ADD PUSH2 0x4DE1 JUMP JUMPDEST PUSH1 0x80 DUP5 ADD MSTORE DUP3 SWAP6 POP PUSH2 0x523A DUP9 PUSH1 0xA0 DUP10 ADD PUSH2 0x4F6E JUMP JUMPDEST SWAP5 POP PUSH2 0x3E0 DUP8 ADD MLOAD SWAP3 POP DUP1 DUP4 GT ISZERO PUSH2 0x5250 JUMPI DUP4 DUP5 REVERT JUMPDEST POP POP PUSH2 0x525E DUP7 DUP3 DUP8 ADD PUSH2 0x4CAF JUMP JUMPDEST SWAP2 POP POP SWAP3 POP SWAP3 POP SWAP3 JUMP JUMPDEST PUSH1 0x0 PUSH1 0x20 DUP3 DUP5 SUB SLT ISZERO PUSH2 0x5279 JUMPI DUP1 DUP2 REVERT JUMPDEST POP MLOAD SWAP2 SWAP1 POP JUMP JUMPDEST PUSH1 0x0 DUP2 MLOAD DUP1 DUP5 MSTORE PUSH1 0x20 DUP1 DUP6 ADD SWAP5 POP DUP1 DUP5 ADD DUP4 JUMPDEST DUP4 DUP2 LT ISZERO PUSH2 0x52AF JUMPI DUP2 MLOAD DUP8 MSTORE SWAP6 DUP3 ADD SWAP6 SWAP1 DUP3 ADD SWAP1 PUSH1 0x1 ADD PUSH2 0x5293 JUMP JUMPDEST POP SWAP5 SWAP6 SWAP5 POP POP POP POP POP JUMP JUMPDEST PUSH1 0x1 PUSH1 0x1 PUSH1 0xA0 SHL SUB SWAP2 SWAP1 SWAP2 AND DUP2 MSTORE PUSH1 0x20 ADD SWAP1 JUMP JUMPDEST PUSH1 0x1 PUSH1 0x1 PUSH1 0xA0 SHL SUB SWAP4 SWAP1 SWAP4 AND DUP4 MSTORE PUSH2 0xFFFF SWAP2 DUP3 AND PUSH1 0x20 DUP5 ADD MSTORE AND PUSH1 0x40 DUP3 ADD MSTORE PUSH1 0x60 ADD SWAP1 JUMP JUMPDEST PUSH1 0x0 PUSH1 0x40 DUP3 MSTORE PUSH2 0x5306 PUSH1 0x40 DUP4 ADD DUP6 PUSH2 0x5280 JUMP JUMPDEST SWAP1 POP DUP3 PUSH1 0x20 DUP4 ADD MSTORE SWAP4 SWAP3 POP POP POP JUMP JUMPDEST SWAP1 DUP2 MSTORE PUSH1 0x20 ADD SWAP1 JUMP JUMPDEST PUSH1 0x20 DUP1 DUP3 MSTORE PUSH1 0x16 SWAP1 DUP3 ADD MSTORE PUSH22 0x13585C9AD95D081B9BDD081A5B9A5D1A585B1A5E9959 PUSH1 0x52 SHL PUSH1 0x40 DUP3 ADD MSTORE PUSH1 0x60 ADD SWAP1 JUMP JUMPDEST PUSH1 0x20 DUP1 DUP3 MSTORE PUSH1 0x15 SWAP1 DUP3 ADD MSTORE PUSH21 0x10D1CE881B9BC81B585C9AD95D1CC81B1A5CDD1959 PUSH1 0x5A SHL PUSH1 0x40 DUP3 ADD MSTORE PUSH1 0x60 ADD SWAP1 JUMP JUMPDEST PUSH1 0x20 DUP1 DUP3 MSTORE PUSH1 0xD SWAP1 DUP3 ADD MSTORE PUSH13 0x92DCECC2D8D2C840D2DCC8CAF PUSH1 0x9B SHL PUSH1 0x40 DUP3 ADD MSTORE PUSH1 0x60 ADD SWAP1 JUMP JUMPDEST PUSH1 0x20 DUP1 DUP3 MSTORE PUSH1 0x13 SWAP1 DUP3 ADD MSTORE PUSH19 0x4163636F756E74206D75737420736574746C65 PUSH1 0x68 SHL PUSH1 0x40 DUP3 ADD MSTORE PUSH1 0x60 ADD SWAP1 JUMP JUMPDEST PUSH1 0x20 DUP1 DUP3 MSTORE PUSH1 0xF SWAP1 DUP3 ADD MSTORE PUSH15 0x4F766572206D617820617373657473 PUSH1 0x88 SHL PUSH1 0x40 DUP3 ADD MSTORE PUSH1 0x60 ADD SWAP1 JUMP JUMPDEST PUSH1 0x20 DUP1 DUP3 MSTORE PUSH1 0x16 SWAP1 DUP3 ADD MSTORE PUSH22 0x10D1CE881B585C9AD95D081A5B99195E08189BDD5B99 PUSH1 0x52 SHL PUSH1 0x40 DUP3 ADD MSTORE PUSH1 0x60 ADD SWAP1 JUMP JUMPDEST PUSH1 0x20 DUP1 DUP3 MSTORE PUSH1 0xE SWAP1 DUP3 ADD MSTORE PUSH14 0x1499595B9D1C985B9D0818D85B1B PUSH1 0x92 SHL PUSH1 0x40 DUP3 ADD MSTORE PUSH1 0x60 ADD SWAP1 JUMP JUMPDEST PUSH1 0x20 DUP1 DUP3 MSTORE PUSH1 0x8 SWAP1 DUP3 ADD MSTORE PUSH8 0x12185CC81919589D PUSH1 0xC2 SHL PUSH1 0x40 DUP3 ADD MSTORE PUSH1 0x60 ADD SWAP1 JUMP JUMPDEST PUSH1 0x20 DUP1 DUP3 MSTORE PUSH1 0x8 SWAP1 DUP3 ADD MSTORE PUSH8 0x9CCACE4086C2E6D PUSH1 0xC3 SHL PUSH1 0x40 DUP3 ADD MSTORE PUSH1 0x60 ADD SWAP1 JUMP JUMPDEST PUSH1 0x20 DUP1 DUP3 MSTORE PUSH1 0x13 SWAP1 DUP3 ADD MSTORE PUSH19 0x10D1CE881B9BC81B585C9AD95D08199BDD5B99 PUSH1 0x6A SHL PUSH1 0x40 DUP3 ADD MSTORE PUSH1 0x60 ADD SWAP1 JUMP JUMPDEST PUSH2 0xFFFF DUP8 DUP2 AND DUP3 MSTORE DUP7 AND PUSH1 0x20 DUP3 ADD MSTORE PUSH1 0x40 DUP2 ADD DUP6 SWAP1 MSTORE PUSH1 0xA0 PUSH1 0x60 DUP3 ADD DUP2 SWAP1 MSTORE DUP2 ADD DUP4 SWAP1 MSTORE PUSH1 0x0 PUSH1 0x1 PUSH1 0x1 PUSH1 0xFB SHL SUB DUP5 GT ISZERO PUSH2 0x54FC JUMPI DUP1 DUP2 REVERT JUMPDEST PUSH1 0x20 DUP5 MUL DUP1 DUP7 PUSH1 0xC0 DUP6 ADD CALLDATACOPY DUP1 DUP4 ADD SWAP1 POP PUSH1 0xC0 DUP2 ADD DUP3 DUP2 MSTORE PUSH1 0xC0 DUP5 DUP4 SUB ADD PUSH1 0x80 DUP6 ADD MSTORE PUSH2 0x3B10 DUP2 DUP7 PUSH2 0x5280 JUMP JUMPDEST PUSH1 0x40 MLOAD DUP2 DUP2 ADD PUSH1 0x1 PUSH1 0x1 PUSH1 0x40 SHL SUB DUP2 GT DUP3 DUP3 LT OR ISZERO PUSH2 0x5543 JUMPI INVALID JUMPDEST PUSH1 0x40 MSTORE SWAP2 SWAP1 POP JUMP JUMPDEST PUSH1 0x1 PUSH1 0x1 PUSH1 0xA0 SHL SUB DUP2 AND DUP2 EQ PUSH2 0x5560 JUMPI PUSH1 0x0 DUP1 REVERT JUMPDEST POP JUMP JUMPDEST PUSH2 0xFFFF DUP2 AND DUP2 EQ PUSH2 0x5560 JUMPI PUSH1 0x0 DUP1 REVERT INVALID MSTORE8 PUSH2 0x6665 0x4D PUSH2 0x7468 GASPRICE KECCAK256 PUSH14 0x756C7469706C69636174696F6E20 PUSH16 0x766572666C6F77A26469706673582212 KECCAK256 TIMESTAMP SWAP12 CALLDATASIZE PUSH19 0x6C8100E39D2AA4F0E50FC049236B4401A55CA8 LOG3 0xDC PUSH18 0x43ADBF8593E764736F6C6343000706003300 ","sha1":"bec3e66555344209d28f2591c0e47a98c48481ec","source":"// SPDX-License-Identifier: GPL-3.0-only\npragma solidity =0.7.6;\npragma abicoder v2;\n\nimport \"./ActionGuards.sol\";\nimport \"../../internal/AccountContextHandler.sol\";\nimport \"../../internal/liquidation/LiquidatefCash.sol\";\nimport \"../../internal/liquidation/LiquidationHelpers.sol\";\nimport \"../../math/SafeInt256.sol\";\n\ncontract LiquidatefCashAction is ActionGuards {\n    using AccountContextHandler for AccountContext;\n    using AssetRate for AssetRateParameters;\n    using SafeInt256 for int256;\n\n    event LiquidatefCashEvent(\n        address indexed liquidated,\n        address indexed liquidator,\n        uint16 localCurrencyId,\n        uint16 fCashCurrency,\n        int256 netLocalFromLiquidator,\n        uint256[] fCashMaturities,\n        int256[] fCashNotionalTransfer\n    );\n\n    /// @notice Calculates fCash local liquidation amounts, may settle account so this can be called off\n    // chain using a static call\n    /// @param liquidateAccount account to liquidate\n    /// @param localCurrency local currency to liquidate\n    /// @param fCashMaturities array of fCash maturities in the local currency to purchase, must be\n    /// ordered descending\n    /// @param maxfCashLiquidateAmounts max notional of fCash to liquidate in corresponding maturity,\n    /// zero will represent no maximum\n    /// @return an array of the notional amounts of fCash to transfer, corresponding to fCashMaturities\n    /// @return amount of local currency required from the liquidator\n    function calculatefCashLocalLiquidation(\n        address liquidateAccount,\n        uint16 localCurrency,\n        uint256[] calldata fCashMaturities,\n        uint256[] calldata maxfCashLiquidateAmounts\n    ) external nonReentrant returns (int256[] memory, int256) {\n        uint256 blockTime = block.timestamp;\n        LiquidatefCash.fCashContext memory c =\n            _liquidateLocal(\n                liquidateAccount,\n                localCurrency,\n                fCashMaturities,\n                maxfCashLiquidateAmounts,\n                blockTime\n            );\n\n        return (c.fCashNotionalTransfers, c.localAssetCashFromLiquidator);\n    }\n\n    /// @notice Liquidates fCash using local currency\n    /// @param liquidateAccount account to liquidate\n    /// @param localCurrency local currency to liquidate\n    /// @param fCashMaturities array of fCash maturities in the local currency to purchase, must be ordered\n    /// descending\n    /// @param maxfCashLiquidateAmounts max notional of fCash to liquidate in corresponding maturity,\n    /// zero will represent no maximum\n    /// @return an array of the notional amounts of fCash to transfer, corresponding to fCashMaturities\n    /// @return amount of local currency required from the liquidator\n    function liquidatefCashLocal(\n        address liquidateAccount,\n        uint16 localCurrency,\n        uint256[] calldata fCashMaturities,\n        uint256[] calldata maxfCashLiquidateAmounts\n    ) external nonReentrant returns (int256[] memory, int256) {\n        uint256 blockTime = block.timestamp;\n        LiquidatefCash.fCashContext memory c =\n            _liquidateLocal(\n                liquidateAccount,\n                localCurrency,\n                fCashMaturities,\n                maxfCashLiquidateAmounts,\n                blockTime\n            );\n\n        LiquidatefCash.finalizefCashLiquidation(\n            liquidateAccount,\n            msg.sender,\n            localCurrency,\n            localCurrency,\n            fCashMaturities,\n            c\n        );\n\n        emit LiquidatefCashEvent(\n            liquidateAccount,\n            msg.sender,\n            localCurrency,\n            localCurrency,\n            c.localAssetCashFromLiquidator,\n            fCashMaturities,\n            c.fCashNotionalTransfers\n        );\n\n        return (c.fCashNotionalTransfers, c.localAssetCashFromLiquidator);\n    }\n\n    /// @notice Calculates fCash cross currency liquidation, can be called via staticcall off chain\n    /// @param liquidateAccount account to liquidate\n    /// @param localCurrency local currency to liquidate\n    /// @param fCashCurrency currency of fCash to purchase\n    /// @param fCashMaturities array of fCash maturities in the local currency to purchase, must be ordered\n    /// descending\n    /// @param maxfCashLiquidateAmounts max notional of fCash to liquidate in corresponding maturity, zero\n    /// will represent no maximum\n    /// @return an array of the notional amounts of fCash to transfer, corresponding to fCashMaturities\n    /// @return amount of local currency required from the liquidator\n    function calculatefCashCrossCurrencyLiquidation(\n        address liquidateAccount,\n        uint16 localCurrency,\n        uint16 fCashCurrency,\n        uint256[] calldata fCashMaturities,\n        uint256[] calldata maxfCashLiquidateAmounts\n    ) external nonReentrant returns (int256[] memory, int256) {\n        uint256 blockTime = block.timestamp;\n        LiquidatefCash.fCashContext memory c =\n            _liquidateCrossCurrency(\n                liquidateAccount,\n                localCurrency,\n                fCashCurrency,\n                fCashMaturities,\n                maxfCashLiquidateAmounts,\n                blockTime\n            );\n\n        return (c.fCashNotionalTransfers, c.localAssetCashFromLiquidator);\n    }\n\n    /// @notice Liquidates fCash across local to collateral currency\n    /// @param liquidateAccount account to liquidate\n    /// @param localCurrency local currency to liquidate\n    /// @param fCashCurrency currency of fCash to purchase\n    /// @param fCashMaturities array of fCash maturities in the local currency to purchase, must be ordered\n    /// descending\n    /// @param maxfCashLiquidateAmounts max notional of fCash to liquidate in corresponding maturity, zero\n    /// will represent no maximum\n    /// @return an array of the notional amounts of fCash to transfer, corresponding to fCashMaturities\n    /// @return amount of local currency required from the liquidator\n    function liquidatefCashCrossCurrency(\n        address liquidateAccount,\n        uint16 localCurrency,\n        uint16 fCashCurrency,\n        uint256[] calldata fCashMaturities,\n        uint256[] calldata maxfCashLiquidateAmounts\n    ) external nonReentrant returns (int256[] memory, int256) {\n        uint256 blockTime = block.timestamp;\n\n        LiquidatefCash.fCashContext memory c =\n            _liquidateCrossCurrency(\n                liquidateAccount,\n                localCurrency,\n                fCashCurrency,\n                fCashMaturities,\n                maxfCashLiquidateAmounts,\n                blockTime\n            );\n\n        LiquidatefCash.finalizefCashLiquidation(\n            liquidateAccount,\n            msg.sender,\n            localCurrency,\n            fCashCurrency,\n            fCashMaturities,\n            c\n        );\n\n        emit LiquidatefCashEvent(\n            liquidateAccount,\n            msg.sender,\n            localCurrency,\n            fCashCurrency,\n            c.localAssetCashFromLiquidator,\n            fCashMaturities,\n            c.fCashNotionalTransfers\n        );\n\n        return (c.fCashNotionalTransfers, c.localAssetCashFromLiquidator);\n    }\n\n    function _liquidateLocal(\n        address liquidateAccount,\n        uint16 localCurrency,\n        uint256[] calldata fCashMaturities,\n        uint256[] calldata maxfCashLiquidateAmounts,\n        uint256 blockTime\n    ) private returns (LiquidatefCash.fCashContext memory) {\n        require(fCashMaturities.length == maxfCashLiquidateAmounts.length);\n        LiquidatefCash.fCashContext memory c;\n        (c.accountContext, c.factors, c.portfolio) = LiquidationHelpers.preLiquidationActions(\n            liquidateAccount,\n            localCurrency,\n            0\n        );\n\n        // prettier-ignore\n        (\n            int256 cashBalance,\n            /* int256 nTokenBalance */,\n            /* uint256 lastClaimTime */,\n            /* uint256 accountIncentiveDebt */\n        ) = BalanceHandler.getBalanceStorage(liquidateAccount, localCurrency);\n        // Cash balance is used if liquidating negative fCash\n        c.localCashBalanceUnderlying = c.factors.localAssetRate.convertToUnderlying(cashBalance);\n        c.fCashNotionalTransfers = new int256[](fCashMaturities.length);\n\n        LiquidatefCash.liquidatefCashLocal(\n            liquidateAccount,\n            localCurrency,\n            fCashMaturities,\n            maxfCashLiquidateAmounts,\n            c,\n            blockTime\n        );\n\n        return c;\n    }\n\n    function _liquidateCrossCurrency(\n        address liquidateAccount,\n        uint16 localCurrency,\n        uint16 fCashCurrency,\n        uint256[] calldata fCashMaturities,\n        uint256[] calldata maxfCashLiquidateAmounts,\n        uint256 blockTime\n    ) private returns (LiquidatefCash.fCashContext memory) {\n        require(fCashMaturities.length == maxfCashLiquidateAmounts.length); // dev: fcash maturity length mismatch\n        LiquidatefCash.fCashContext memory c;\n        (c.accountContext, c.factors, c.portfolio) = LiquidationHelpers.preLiquidationActions(\n            liquidateAccount,\n            localCurrency,\n            fCashCurrency\n        );\n        c.fCashNotionalTransfers = new int256[](fCashMaturities.length);\n\n        LiquidatefCash.liquidatefCashCrossCurrency(\n            liquidateAccount,\n            fCashCurrency,\n            fCashMaturities,\n            maxfCashLiquidateAmounts,\n            c,\n            blockTime\n        );\n\n        return c;\n    }\n\n    /// @notice Get a list of deployed library addresses (sorted by library name)\n    function getLibInfo() external pure returns (address) {\n        return address(FreeCollateralExternal);\n    }\n}\n","sourcePath":"contracts/external/actions/LiquidatefCashAction.sol","type":"contract","deployment":{"address":"0x6C7A4303707A86958f59aB9DFFaCE32573780156","chainid":"5","blockHeight":7454265}}