{"abi":[{"inputs":[{"internalType":"string","name":"name_","type":"string"},{"internalType":"address","name":"notional_","type":"address"},{"internalType":"uint16","name":"borrowCurrencyId_","type":"uint16"}],"stateMutability":"nonpayable","type":"constructor","name":"constructor"},{"anonymous":false,"inputs":[{"indexed":false,"internalType":"uint256[2]","name":"underlyingTokensTransferred","type":"uint256[2]"}],"name":"SecondaryBorrow","type":"event"},{"inputs":[],"name":"NOTIONAL","outputs":[{"internalType":"contract NotionalProxy","name":"","type":"address"}],"stateMutability":"view","type":"function"},{"inputs":[{"internalType":"address","name":"account","type":"address"},{"internalType":"uint256","name":"maturity","type":"uint256"},{"internalType":"uint256[2]","name":"fCashToBorrow","type":"uint256[2]"},{"internalType":"uint32[2]","name":"maxBorrowRate","type":"uint32[2]"},{"internalType":"uint32[2]","name":"minRollLendRate","type":"uint32[2]"}],"name":"borrowSecondaryCurrency","outputs":[],"stateMutability":"nonpayable","type":"function"},{"inputs":[{"internalType":"address","name":"account","type":"address"},{"internalType":"uint256","name":"strategyTokens","type":"uint256"},{"internalType":"uint256","name":"maturity","type":"uint256"}],"name":"convertStrategyToUnderlying","outputs":[{"internalType":"int256","name":"underlyingValue","type":"int256"}],"stateMutability":"view","type":"function"},{"inputs":[],"name":"decimals","outputs":[{"internalType":"uint8","name":"","type":"uint8"}],"stateMutability":"view","type":"function"},{"inputs":[{"internalType":"address","name":"account","type":"address"},{"internalType":"uint256","name":"deposit","type":"uint256"},{"internalType":"uint256","name":"maturity","type":"uint256"},{"internalType":"bytes","name":"data","type":"bytes"}],"name":"depositFromNotional","outputs":[{"internalType":"uint256","name":"strategyTokensMinted","type":"uint256"}],"stateMutability":"payable","type":"function"},{"inputs":[{"internalType":"uint256","name":"maturity","type":"uint256"},{"internalType":"uint256","name":"assetCash","type":"uint256"},{"internalType":"bytes","name":"data","type":"bytes"}],"name":"depositVaultCashToStrategyTokens","outputs":[],"stateMutability":"nonpayable","type":"function"},{"inputs":[{"internalType":"uint256","name":"maturity","type":"uint256"}],"name":"initiateSecondaryBorrowSettlement","outputs":[],"stateMutability":"nonpayable","type":"function"},{"inputs":[],"name":"name","outputs":[{"internalType":"string","name":"","type":"string"}],"stateMutability":"view","type":"function"},{"inputs":[{"internalType":"address","name":"account","type":"address"},{"internalType":"address","name":"receiver","type":"address"},{"internalType":"uint256","name":"strategyTokens","type":"uint256"},{"internalType":"uint256","name":"maturity","type":"uint256"},{"internalType":"uint256","name":"underlyingToRepayDebt","type":"uint256"},{"internalType":"bytes","name":"data","type":"bytes"}],"name":"redeemFromNotional","outputs":[{"internalType":"uint256","name":"transferToReceiver","type":"uint256"}],"stateMutability":"nonpayable","type":"function"},{"inputs":[{"internalType":"uint256","name":"maturity","type":"uint256"},{"internalType":"uint256","name":"strategyTokens","type":"uint256"},{"internalType":"bytes","name":"data","type":"bytes"}],"name":"redeemStrategyTokensToCash","outputs":[],"stateMutability":"nonpayable","type":"function"},{"inputs":[{"internalType":"address","name":"token","type":"address"},{"internalType":"uint256","name":"underlyingRequired","type":"uint256"},{"internalType":"bytes","name":"data","type":"bytes"}],"name":"repaySecondaryBorrowCallback","outputs":[{"internalType":"bytes","name":"returnData","type":"bytes"}],"stateMutability":"nonpayable","type":"function"},{"inputs":[{"internalType":"address","name":"account","type":"address"},{"internalType":"uint16","name":"currencyId","type":"uint16"},{"internalType":"uint256","name":"maturity","type":"uint256"},{"internalType":"uint256","name":"accountDebtShares","type":"uint256"},{"internalType":"uint32","name":"slippageLimit","type":"uint32"}],"name":"repaySecondaryCurrency","outputs":[],"stateMutability":"nonpayable","type":"function"},{"inputs":[{"internalType":"uint256","name":"e","type":"uint256"}],"name":"setExchangeRate","outputs":[],"stateMutability":"nonpayable","type":"function"},{"inputs":[{"internalType":"bool","name":"s","type":"bool"}],"name":"setReenterNotional","outputs":[],"stateMutability":"nonpayable","type":"function"},{"inputs":[{"internalType":"uint16","name":"c","type":"uint16"}],"name":"setSecondary","outputs":[],"stateMutability":"nonpayable","type":"function"},{"inputs":[],"name":"strategy","outputs":[{"internalType":"bytes4","name":"","type":"bytes4"}],"stateMutability":"view","type":"function"},{"stateMutability":"payable","type":"receive"}],"bytecode":"6101006040523480156200001257600080fd5b5060405162001c6d38038062001c6d8339810160408190526200003591620002c3565b82828282600090805190602001906200005092919062000146565b506001600160a01b03821660e081905261ffff821660808190526040516388a73eb760e01b8152600481019190915260009182916388a73eb79060240161024060405180830381865afa158015620000ac573d6000803e3d6000fd5b505050506040513d601f19601f82011682018060405250810190620000d2919062000442565b50919350915060009050600483606001516005811115620000f757620000f762000524565b146200010557815162000108565b82515b6001600160a01b03811660a052905060038260600151600581111562000132576200013262000524565b1460c0525062000577975050505050505050565b82805462000154906200053a565b90600052602060002090601f016020900481019282620001785760008555620001c3565b82601f106200019357805160ff1916838001178555620001c3565b82800160010185558215620001c3579182015b82811115620001c3578251825591602001919060010190620001a6565b50620001d1929150620001d5565b5090565b5b80821115620001d15760008155600101620001d6565b634e487b7160e01b600052604160045260246000fd5b60405160a081016001600160401b0381118282101715620002275762000227620001ec565b60405290565b604051606081016001600160401b0381118282101715620002275762000227620001ec565b604051601f8201601f191681016001600160401b03811182821017156200027d576200027d620001ec565b604052919050565b6001600160a01b03811681146200029b57600080fd5b50565b8051620002ab8162000285565b919050565b805161ffff81168114620002ab57600080fd5b600080600060608486031215620002d957600080fd5b83516001600160401b0380821115620002f157600080fd5b818601915086601f8301126200030657600080fd5b8151818111156200031b576200031b620001ec565b6020915062000333601f8201601f1916830162000252565b81815288838386010111156200034857600080fd5b60005b82811015620003685784810184015182820185015283016200034b565b828111156200037a5760008484840101525b5095506200038c90508682016200029e565b935050506200039e60408501620002b0565b90509250925092565b600060a08284031215620003ba57600080fd5b60405160a081016001600160401b0381118282101715620003df57620003df620001ec565b80604052508091508251620003f48162000285565b8152602083015180151581146200040a57600080fd5b6020820152604083810151908201526060830151600681106200042c57600080fd5b6060820152608092830151920191909152919050565b6000806000808486036102408112156200045b57600080fd5b620004678787620003a7565b9450620004788760a08801620003a7565b935060a061013f19820112156200048e57600080fd5b6200049862000202565b6101408701518152610160870151602082015261018087015160408201526101a087015160608201526101c087015160808201528093505060606101df1982011215620004e457600080fd5b50620004ef6200022d565b6101e0860151620005008162000285565b81526102008601516020820152610220909501516040860152509194909350909190565b634e487b7160e01b600052602160045260246000fd5b600181811c908216806200054f57607f821691505b602082108114156200057157634e487b7160e01b600052602260045260246000fd5b50919050565b60805160a05160c05160e05161164c62000621600039600081816101fa015281816103710152818161048401528181610563015281816106220152818161066e01528181610745015281816107c50152818161085901528181610925015281816109af01528181610acf01528181610bb201528181610c4e0152610cb4015260006104ee0152600081816105c6015281816106000152610afe01526000610b84015261164c6000f3fe6080604052600436106100f75760003560e01c8063d04c16ac1161008a578063e937711111610059578063e9377111146102c9578063ecd63096146102e9578063ee01436b1461031c578063fdf7c1ce1461033c57600080fd5b8063d04c16ac14610256578063db068e0e14610276578063dc6679c514610296578063e11395a1146102a957600080fd5b80636c15ea85116100c65780636c15ea851461019a5780637c54e78f146101c8578063858dccb3146101e8578063a8c62e761461023457600080fd5b806301ac88521461010357806306fdde0314610125578063313ce5671461015057806344f051081461016c57600080fd5b366100fe57005b600080fd5b34801561010f57600080fd5b5061012361011e366004610f24565b61035c565b005b34801561013157600080fd5b5061013a6103e9565b6040516101479190610f99565b60405180910390f35b34801561015c57600080fd5b5060405160088152602001610147565b34801561017857600080fd5b5061018c610187366004611011565b610477565b604051908152602001610147565b3480156101a657600080fd5b506101236101b53660046110a4565b6001805460ff1916911515919091179055565b3480156101d457600080fd5b506101236101e33660046110d8565b610654565b3480156101f457600080fd5b5061021c7f000000000000000000000000000000000000000000000000000000000000000081565b6040516001600160a01b039091168152602001610147565b34801561024057600080fd5b506040516352c3e98d60e11b8152602001610147565b34801561026257600080fd5b5061012361027136600461113a565b61072e565b34801561028257600080fd5b50610123610291366004610f24565b600255565b61018c6102a436600461118d565b6107b8565b3480156102b557600080fd5b506101236102c436600461121b565b610808565b3480156102d557600080fd5b5061018c6102e4366004611266565b6108d2565b3480156102f557600080fd5b50610123610304366004611299565b6003805461ffff191661ffff92909216919091179055565b34801561032857600080fd5b5061012361033736600461113a565b61090e565b34801561034857600080fd5b5061013a6103573660046112b4565b6109a2565b60405162d6442960e11b8152600481018290527f00000000000000000000000000000000000000000000000000000000000000006001600160a01b0316906301ac88529060240160408051808303816000875af11580156103c1573d6000803e3d6000fd5b505050506040513d601f19601f820116820180604052508101906103e5919061130c565b5050565b600080546103f69061138c565b80601f01602080910402602001604051908101604052809291908181526020018280546104229061138c565b801561046f5780601f106104445761010080835404028352916020019161046f565b820191906000526020600020905b81548152906001019060200180831161045257829003601f168201915b505050505081565b6000336001600160a01b037f000000000000000000000000000000000000000000000000000000000000000016146104ae57600080fd5b60006104bd89888887876109f0565b905060006001600160a01b038a163014806104d85750858211155b156104e45750806104ec565b508481039150845b7f0000000000000000000000000000000000000000000000000000000000000000156105b3578215610550576040516001600160a01b038a169084156108fc029085906000818181858888f1935050505015801561054e573d6000803e3d6000fd5b505b80156105ae576040516001600160a01b037f0000000000000000000000000000000000000000000000000000000000000000169082156108fc029083906000818181858888f193505050501580156105ac573d6000803e3d6000fd5b505b610647565b82156105ed576105ed6001600160a01b037f0000000000000000000000000000000000000000000000000000000000000000168a85610a22565b8015610647576106476001600160a01b037f0000000000000000000000000000000000000000000000000000000000000000167f000000000000000000000000000000000000000000000000000000000000000083610a22565b5050979650505050505050565b6040516302f0233760e21b81526000906001600160a01b037f00000000000000000000000000000000000000000000000000000000000000001690630bc08cdc906106ab90899089908990899089906004016113f8565b60408051808303816000875af11580156106c9573d6000803e3d6000fd5b505050506040513d601f19601f820116820180604052508101906106ed919061130c565b90507f49310447c6ec97be32081ad74d8c111fbe2c749eaf0f54e0ff045903a99db2e78160405161071e9190611441565b60405180910390a1505050505050565b60405163341305ab60e21b81526001600160a01b037f0000000000000000000000000000000000000000000000000000000000000000169063d04c16ac90610780908790879087908790600401611472565b600060405180830381600087803b15801561079a57600080fd5b505af11580156107ae573d6000803e3d6000fd5b5050505050505050565b6000336001600160a01b037f000000000000000000000000000000000000000000000000000000000000000016146107ef57600080fd5b6107fc8686868686610a79565b90505b95945050505050565b6040516350e4f22360e01b81526001600160a01b03868116600483015261ffff86166024830152604482018590526064820184905263ffffffff8316608483015260c060a4830152600060c48301527f000000000000000000000000000000000000000000000000000000000000000016906350e4f2239060e4016000604051808303816000875af11580156108a2573d6000803e3d6000fd5b505050506040513d6000823e601f3d908101601f191682016040526108ca91908101906114af565b505050505050565b6000670de0b6b3a7640000600254846108eb9190611551565b6108fa906402540be400611551565b610904919061157e565b90505b9392505050565b60405163ee01436b60e01b81526001600160a01b037f0000000000000000000000000000000000000000000000000000000000000000169063ee01436b90610960908790879087908790600401611472565b60408051808303816000875af115801561097e573d6000803e3d6000fd5b505050506040513d601f19601f820116820180604052508101906108ca91906115a0565b6060336001600160a01b037f000000000000000000000000000000000000000000000000000000000000000016146109d957600080fd5b6109e585858585610c31565b90505b949350505050565b6000670de0b6b3a764000060025486610a099190611551565b610a18906402540be400611551565b6107fc919061157e565b604080516001600160a01b038416602482015260448082018490528251808303909101815260649091019091526020810180516001600160e01b031663a9059cbb60e01b179052610a74908490610d39565b505050565b60006002546402540be400610a8e9190611551565b610aa086670de0b6b3a7640000611551565b610aaa919061157e565b60015490915060ff16156107ff5760405163095ea7b360e01b81526001600160a01b037f000000000000000000000000000000000000000000000000000000000000000081166004830152602482018790527f0000000000000000000000000000000000000000000000000000000000000000169063095ea7b3906044016020604051808303816000875af1158015610b47573d6000803e3d6000fd5b505050506040513d601f19601f82011682018060405250810190610b6b91906115c4565b50604051632890fb6560e01b815230600482015261ffff7f0000000000000000000000000000000000000000000000000000000000000000166024820152604481018690527f00000000000000000000000000000000000000000000000000000000000000006001600160a01b031690632890fb65906064016020604051808303816000875af1158015610c03573d6000803e3d6000fd5b505050506040513d601f19601f82011682018060405250810190610c2791906115e1565b5095945050505050565b60606001600160a01b038516610c9d576040516001600160a01b037f0000000000000000000000000000000000000000000000000000000000000000169085156108fc029086906000818181858888f19350505050158015610c97573d6000803e3d6000fd5b506109e8565b60405163a9059cbb60e01b81526001600160a01b037f0000000000000000000000000000000000000000000000000000000000000000811660048301526024820186905286169063a9059cbb906044016020604051808303816000875af1158015610d0c573d6000803e3d6000fd5b505050506040513d601f19601f82011682018060405250810190610d3091906115c4565b50949350505050565b6000610d8e826040518060400160405280602081526020017f5361666545524332303a206c6f772d6c6576656c2063616c6c206661696c6564815250856001600160a01b0316610e109092919063ffffffff16565b805190915015610a745780806020019051810190610dac91906115c4565b610a745760405162461bcd60e51b815260206004820152602a60248201527f5361666545524332303a204552433230206f7065726174696f6e20646964206e6044820152691bdd081cdd58d8d9595960b21b60648201526084015b60405180910390fd5b60606109048484600085856001600160a01b0385163b610e725760405162461bcd60e51b815260206004820152601d60248201527f416464726573733a2063616c6c20746f206e6f6e2d636f6e74726163740000006044820152606401610e07565b600080866001600160a01b03168587604051610e8e91906115fa565b60006040518083038185875af1925050503d8060008114610ecb576040519150601f19603f3d011682016040523d82523d6000602084013e610ed0565b606091505b5091509150610ee0828286610eeb565b979650505050505050565b60608315610efa575081610907565b825115610f0a5782518084602001fd5b8160405162461bcd60e51b8152600401610e079190610f99565b600060208284031215610f3657600080fd5b5035919050565b60005b83811015610f58578181015183820152602001610f40565b83811115610f67576000848401525b50505050565b60008151808452610f85816020860160208601610f3d565b601f01601f19169290920160200192915050565b6020815260006109076020830184610f6d565b80356001600160a01b0381168114610fc357600080fd5b919050565b60008083601f840112610fda57600080fd5b50813567ffffffffffffffff811115610ff257600080fd5b60208301915083602082850101111561100a57600080fd5b9250929050565b600080600080600080600060c0888a03121561102c57600080fd5b61103588610fac565b965061104360208901610fac565b955060408801359450606088013593506080880135925060a088013567ffffffffffffffff81111561107457600080fd5b6110808a828b01610fc8565b989b979a50959850939692959293505050565b80151581146110a157600080fd5b50565b6000602082840312156110b657600080fd5b813561090781611093565b80604081018310156110d257600080fd5b92915050565b600080600080600061010086880312156110f157600080fd5b6110fa86610fac565b94506020860135935061111087604088016110c1565b925061111f87608088016110c1565b915061112e8760c088016110c1565b90509295509295909350565b6000806000806060858703121561115057600080fd5b8435935060208501359250604085013567ffffffffffffffff81111561117557600080fd5b61118187828801610fc8565b95989497509550505050565b6000806000806000608086880312156111a557600080fd5b6111ae86610fac565b94506020860135935060408601359250606086013567ffffffffffffffff8111156111d857600080fd5b6111e488828901610fc8565b969995985093965092949392505050565b803561ffff81168114610fc357600080fd5b803563ffffffff81168114610fc357600080fd5b600080600080600060a0868803121561123357600080fd5b61123c86610fac565b945061124a602087016111f5565b9350604086013592506060860135915061112e60808701611207565b60008060006060848603121561127b57600080fd5b61128484610fac565b95602085013595506040909401359392505050565b6000602082840312156112ab57600080fd5b610907826111f5565b600080600080606085870312156112ca57600080fd5b6112d385610fac565b935060208501359250604085013567ffffffffffffffff81111561117557600080fd5b634e487b7160e01b600052604160045260246000fd5b60006040828403121561131e57600080fd5b82601f83011261132d57600080fd5b6040516040810181811067ffffffffffffffff82111715611350576113506112f6565b806040525080604084018581111561136757600080fd5b845b81811015611381578051835260209283019201611369565b509195945050505050565b600181811c908216806113a057607f821691505b602082108114156113c157634e487b7160e01b600052602260045260246000fd5b50919050565b8060005b6002811015610f675763ffffffff6113e283611207565b16845260209384019391909101906001016113cb565b6001600160a01b038616815260208101859052610100810160408581840137608082016000815261142981866113c7565b5061143760c08301846113c7565b9695505050505050565b60408101818360005b600281101561146957815183526020928301929091019060010161144a565b50505092915050565b84815283602082015260606040820152816060820152818360808301376000818301608090810191909152601f909201601f191601019392505050565b6000602082840312156114c157600080fd5b815167ffffffffffffffff808211156114d957600080fd5b818401915084601f8301126114ed57600080fd5b8151818111156114ff576114ff6112f6565b604051601f8201601f19908116603f01168101908382118183101715611527576115276112f6565b8160405282815287602084870101111561154057600080fd5b610ee0836020830160208801610f3d565b600081600019048311821515161561157957634e487b7160e01b600052601160045260246000fd5b500290565b60008261159b57634e487b7160e01b600052601260045260246000fd5b500490565b600080604083850312156115b357600080fd5b505080516020909101519092909150565b6000602082840312156115d657600080fd5b815161090781611093565b6000602082840312156115f357600080fd5b5051919050565b6000825161160c818460208701610f3d565b919091019291505056fea2646970667358221220b4ea3b3b33fdd820df1b1a9b3075bbf7a21b4d27d03de1982c623391da2d718e64736f6c634300080b0033","bytecodeSha1":"3e22e44a90f97095c01b1dcbe4b3b3206aaf6967","compiler":{"evm_version":"istanbul","optimizer":{"enabled":true,"runs":200},"version":"0.8.11+commit.d7f03943"},"contractName":"SimpleStrategyVault","language":"Solidity","natspec":{"kind":"dev","methods":{"convertStrategyToUnderlying(address,uint256,uint256)":{"notice":"These view methods need to be implemented by the vault "}},"version":1},"opcodes":"PUSH1 0x80 PUSH1 0x40 MSTORE PUSH1 0x4 CALLDATASIZE LT PUSH2 0xF7 JUMPI PUSH1 0x0 CALLDATALOAD PUSH1 0xE0 SHR DUP1 PUSH4 0xD04C16AC GT PUSH2 0x8A JUMPI DUP1 PUSH4 0xE9377111 GT PUSH2 0x59 JUMPI DUP1 PUSH4 0xE9377111 EQ PUSH2 0x2C9 JUMPI DUP1 PUSH4 0xECD63096 EQ PUSH2 0x2E9 JUMPI DUP1 PUSH4 0xEE01436B EQ PUSH2 0x31C JUMPI DUP1 PUSH4 0xFDF7C1CE EQ PUSH2 0x33C JUMPI PUSH1 0x0 DUP1 REVERT JUMPDEST DUP1 PUSH4 0xD04C16AC EQ PUSH2 0x256 JUMPI DUP1 PUSH4 0xDB068E0E EQ PUSH2 0x276 JUMPI DUP1 PUSH4 0xDC6679C5 EQ PUSH2 0x296 JUMPI DUP1 PUSH4 0xE11395A1 EQ PUSH2 0x2A9 JUMPI PUSH1 0x0 DUP1 REVERT JUMPDEST DUP1 PUSH4 0x6C15EA85 GT PUSH2 0xC6 JUMPI DUP1 PUSH4 0x6C15EA85 EQ PUSH2 0x19A JUMPI DUP1 PUSH4 0x7C54E78F EQ PUSH2 0x1C8 JUMPI DUP1 PUSH4 0x858DCCB3 EQ PUSH2 0x1E8 JUMPI DUP1 PUSH4 0xA8C62E76 EQ PUSH2 0x234 JUMPI PUSH1 0x0 DUP1 REVERT JUMPDEST DUP1 PUSH4 0x1AC8852 EQ PUSH2 0x103 JUMPI DUP1 PUSH4 0x6FDDE03 EQ PUSH2 0x125 JUMPI DUP1 PUSH4 0x313CE567 EQ PUSH2 0x150 JUMPI DUP1 PUSH4 0x44F05108 EQ PUSH2 0x16C JUMPI PUSH1 0x0 DUP1 REVERT JUMPDEST CALLDATASIZE PUSH2 0xFE JUMPI STOP JUMPDEST PUSH1 0x0 DUP1 REVERT JUMPDEST CALLVALUE DUP1 ISZERO PUSH2 0x10F JUMPI PUSH1 0x0 DUP1 REVERT JUMPDEST POP PUSH2 0x123 PUSH2 0x11E CALLDATASIZE PUSH1 0x4 PUSH2 0xF24 JUMP JUMPDEST PUSH2 0x35C JUMP JUMPDEST STOP JUMPDEST CALLVALUE DUP1 ISZERO PUSH2 0x131 JUMPI PUSH1 0x0 DUP1 REVERT JUMPDEST POP PUSH2 0x13A PUSH2 0x3E9 JUMP JUMPDEST PUSH1 0x40 MLOAD PUSH2 0x147 SWAP2 SWAP1 PUSH2 0xF99 JUMP JUMPDEST PUSH1 0x40 MLOAD DUP1 SWAP2 SUB SWAP1 RETURN JUMPDEST CALLVALUE DUP1 ISZERO PUSH2 0x15C JUMPI PUSH1 0x0 DUP1 REVERT JUMPDEST POP PUSH1 0x40 MLOAD PUSH1 0x8 DUP2 MSTORE PUSH1 0x20 ADD PUSH2 0x147 JUMP JUMPDEST CALLVALUE DUP1 ISZERO PUSH2 0x178 JUMPI PUSH1 0x0 DUP1 REVERT JUMPDEST POP PUSH2 0x18C PUSH2 0x187 CALLDATASIZE PUSH1 0x4 PUSH2 0x1011 JUMP JUMPDEST PUSH2 0x477 JUMP JUMPDEST PUSH1 0x40 MLOAD SWAP1 DUP2 MSTORE PUSH1 0x20 ADD PUSH2 0x147 JUMP JUMPDEST CALLVALUE DUP1 ISZERO PUSH2 0x1A6 JUMPI PUSH1 0x0 DUP1 REVERT JUMPDEST POP PUSH2 0x123 PUSH2 0x1B5 CALLDATASIZE PUSH1 0x4 PUSH2 0x10A4 JUMP JUMPDEST PUSH1 0x1 DUP1 SLOAD PUSH1 0xFF NOT AND SWAP2 ISZERO ISZERO SWAP2 SWAP1 SWAP2 OR SWAP1 SSTORE JUMP JUMPDEST CALLVALUE DUP1 ISZERO PUSH2 0x1D4 JUMPI PUSH1 0x0 DUP1 REVERT JUMPDEST POP PUSH2 0x123 PUSH2 0x1E3 CALLDATASIZE PUSH1 0x4 PUSH2 0x10D8 JUMP JUMPDEST PUSH2 0x654 JUMP JUMPDEST CALLVALUE DUP1 ISZERO PUSH2 0x1F4 JUMPI PUSH1 0x0 DUP1 REVERT JUMPDEST POP PUSH2 0x21C PUSH32 0x0 DUP2 JUMP JUMPDEST PUSH1 0x40 MLOAD PUSH1 0x1 PUSH1 0x1 PUSH1 0xA0 SHL SUB SWAP1 SWAP2 AND DUP2 MSTORE PUSH1 0x20 ADD PUSH2 0x147 JUMP JUMPDEST CALLVALUE DUP1 ISZERO PUSH2 0x240 JUMPI PUSH1 0x0 DUP1 REVERT JUMPDEST POP PUSH1 0x40 MLOAD PUSH4 0x52C3E98D PUSH1 0xE1 SHL DUP2 MSTORE PUSH1 0x20 ADD PUSH2 0x147 JUMP JUMPDEST CALLVALUE DUP1 ISZERO PUSH2 0x262 JUMPI PUSH1 0x0 DUP1 REVERT JUMPDEST POP PUSH2 0x123 PUSH2 0x271 CALLDATASIZE PUSH1 0x4 PUSH2 0x113A JUMP JUMPDEST PUSH2 0x72E JUMP JUMPDEST CALLVALUE DUP1 ISZERO PUSH2 0x282 JUMPI PUSH1 0x0 DUP1 REVERT JUMPDEST POP PUSH2 0x123 PUSH2 0x291 CALLDATASIZE PUSH1 0x4 PUSH2 0xF24 JUMP JUMPDEST PUSH1 0x2 SSTORE JUMP JUMPDEST PUSH2 0x18C PUSH2 0x2A4 CALLDATASIZE PUSH1 0x4 PUSH2 0x118D JUMP JUMPDEST PUSH2 0x7B8 JUMP JUMPDEST CALLVALUE DUP1 ISZERO PUSH2 0x2B5 JUMPI PUSH1 0x0 DUP1 REVERT JUMPDEST POP PUSH2 0x123 PUSH2 0x2C4 CALLDATASIZE PUSH1 0x4 PUSH2 0x121B JUMP JUMPDEST PUSH2 0x808 JUMP JUMPDEST CALLVALUE DUP1 ISZERO PUSH2 0x2D5 JUMPI PUSH1 0x0 DUP1 REVERT JUMPDEST POP PUSH2 0x18C PUSH2 0x2E4 CALLDATASIZE PUSH1 0x4 PUSH2 0x1266 JUMP JUMPDEST PUSH2 0x8D2 JUMP JUMPDEST CALLVALUE DUP1 ISZERO PUSH2 0x2F5 JUMPI PUSH1 0x0 DUP1 REVERT JUMPDEST POP PUSH2 0x123 PUSH2 0x304 CALLDATASIZE PUSH1 0x4 PUSH2 0x1299 JUMP JUMPDEST PUSH1 0x3 DUP1 SLOAD PUSH2 0xFFFF NOT AND PUSH2 0xFFFF SWAP3 SWAP1 SWAP3 AND SWAP2 SWAP1 SWAP2 OR SWAP1 SSTORE JUMP JUMPDEST CALLVALUE DUP1 ISZERO PUSH2 0x328 JUMPI PUSH1 0x0 DUP1 REVERT JUMPDEST POP PUSH2 0x123 PUSH2 0x337 CALLDATASIZE PUSH1 0x4 PUSH2 0x113A JUMP JUMPDEST PUSH2 0x90E JUMP JUMPDEST CALLVALUE DUP1 ISZERO PUSH2 0x348 JUMPI PUSH1 0x0 DUP1 REVERT JUMPDEST POP PUSH2 0x13A PUSH2 0x357 CALLDATASIZE PUSH1 0x4 PUSH2 0x12B4 JUMP JUMPDEST PUSH2 0x9A2 JUMP JUMPDEST PUSH1 0x40 MLOAD PUSH3 0xD64429 PUSH1 0xE1 SHL DUP2 MSTORE PUSH1 0x4 DUP2 ADD DUP3 SWAP1 MSTORE PUSH32 0x0 PUSH1 0x1 PUSH1 0x1 PUSH1 0xA0 SHL SUB AND SWAP1 PUSH4 0x1AC8852 SWAP1 PUSH1 0x24 ADD PUSH1 0x40 DUP1 MLOAD DUP1 DUP4 SUB DUP2 PUSH1 0x0 DUP8 GAS CALL ISZERO DUP1 ISZERO PUSH2 0x3C1 JUMPI RETURNDATASIZE PUSH1 0x0 DUP1 RETURNDATACOPY RETURNDATASIZE PUSH1 0x0 REVERT JUMPDEST POP POP POP POP PUSH1 0x40 MLOAD RETURNDATASIZE PUSH1 0x1F NOT PUSH1 0x1F DUP3 ADD AND DUP3 ADD DUP1 PUSH1 0x40 MSTORE POP DUP2 ADD SWAP1 PUSH2 0x3E5 SWAP2 SWAP1 PUSH2 0x130C JUMP JUMPDEST POP POP JUMP JUMPDEST PUSH1 0x0 DUP1 SLOAD PUSH2 0x3F6 SWAP1 PUSH2 0x138C JUMP JUMPDEST DUP1 PUSH1 0x1F ADD PUSH1 0x20 DUP1 SWAP2 DIV MUL PUSH1 0x20 ADD PUSH1 0x40 MLOAD SWAP1 DUP2 ADD PUSH1 0x40 MSTORE DUP1 SWAP3 SWAP2 SWAP1 DUP2 DUP2 MSTORE PUSH1 0x20 ADD DUP3 DUP1 SLOAD PUSH2 0x422 SWAP1 PUSH2 0x138C JUMP JUMPDEST DUP1 ISZERO PUSH2 0x46F JUMPI DUP1 PUSH1 0x1F LT PUSH2 0x444 JUMPI PUSH2 0x100 DUP1 DUP4 SLOAD DIV MUL DUP4 MSTORE SWAP2 PUSH1 0x20 ADD SWAP2 PUSH2 0x46F JUMP JUMPDEST DUP3 ADD SWAP2 SWAP1 PUSH1 0x0 MSTORE PUSH1 0x20 PUSH1 0x0 KECCAK256 SWAP1 JUMPDEST DUP2 SLOAD DUP2 MSTORE SWAP1 PUSH1 0x1 ADD SWAP1 PUSH1 0x20 ADD DUP1 DUP4 GT PUSH2 0x452 JUMPI DUP3 SWAP1 SUB PUSH1 0x1F AND DUP3 ADD SWAP2 JUMPDEST POP POP POP POP POP DUP2 JUMP JUMPDEST PUSH1 0x0 CALLER PUSH1 0x1 PUSH1 0x1 PUSH1 0xA0 SHL SUB PUSH32 0x0 AND EQ PUSH2 0x4AE JUMPI PUSH1 0x0 DUP1 REVERT JUMPDEST PUSH1 0x0 PUSH2 0x4BD DUP10 DUP9 DUP9 DUP8 DUP8 PUSH2 0x9F0 JUMP JUMPDEST SWAP1 POP PUSH1 0x0 PUSH1 0x1 PUSH1 0x1 PUSH1 0xA0 SHL SUB DUP11 AND ADDRESS EQ DUP1 PUSH2 0x4D8 JUMPI POP DUP6 DUP3 GT ISZERO JUMPDEST ISZERO PUSH2 0x4E4 JUMPI POP DUP1 PUSH2 0x4EC JUMP JUMPDEST POP DUP5 DUP2 SUB SWAP2 POP DUP5 JUMPDEST PUSH32 0x0 ISZERO PUSH2 0x5B3 JUMPI DUP3 ISZERO PUSH2 0x550 JUMPI PUSH1 0x40 MLOAD PUSH1 0x1 PUSH1 0x1 PUSH1 0xA0 SHL SUB DUP11 AND SWAP1 DUP5 ISZERO PUSH2 0x8FC MUL SWAP1 DUP6 SWAP1 PUSH1 0x0 DUP2 DUP2 DUP2 DUP6 DUP9 DUP9 CALL SWAP4 POP POP POP POP ISZERO DUP1 ISZERO PUSH2 0x54E JUMPI RETURNDATASIZE PUSH1 0x0 DUP1 RETURNDATACOPY RETURNDATASIZE PUSH1 0x0 REVERT JUMPDEST POP JUMPDEST DUP1 ISZERO PUSH2 0x5AE JUMPI PUSH1 0x40 MLOAD PUSH1 0x1 PUSH1 0x1 PUSH1 0xA0 SHL SUB PUSH32 0x0 AND SWAP1 DUP3 ISZERO PUSH2 0x8FC MUL SWAP1 DUP4 SWAP1 PUSH1 0x0 DUP2 DUP2 DUP2 DUP6 DUP9 DUP9 CALL SWAP4 POP POP POP POP ISZERO DUP1 ISZERO PUSH2 0x5AC JUMPI RETURNDATASIZE PUSH1 0x0 DUP1 RETURNDATACOPY RETURNDATASIZE PUSH1 0x0 REVERT JUMPDEST POP JUMPDEST PUSH2 0x647 JUMP JUMPDEST DUP3 ISZERO PUSH2 0x5ED JUMPI PUSH2 0x5ED PUSH1 0x1 PUSH1 0x1 PUSH1 0xA0 SHL SUB PUSH32 0x0 AND DUP11 DUP6 PUSH2 0xA22 JUMP JUMPDEST DUP1 ISZERO PUSH2 0x647 JUMPI PUSH2 0x647 PUSH1 0x1 PUSH1 0x1 PUSH1 0xA0 SHL SUB PUSH32 0x0 AND PUSH32 0x0 DUP4 PUSH2 0xA22 JUMP JUMPDEST POP POP SWAP8 SWAP7 POP POP POP POP POP POP POP JUMP JUMPDEST PUSH1 0x40 MLOAD PUSH4 0x2F02337 PUSH1 0xE2 SHL DUP2 MSTORE PUSH1 0x0 SWAP1 PUSH1 0x1 PUSH1 0x1 PUSH1 0xA0 SHL SUB PUSH32 0x0 AND SWAP1 PUSH4 0xBC08CDC SWAP1 PUSH2 0x6AB SWAP1 DUP10 SWAP1 DUP10 SWAP1 DUP10 SWAP1 DUP10 SWAP1 DUP10 SWAP1 PUSH1 0x4 ADD PUSH2 0x13F8 JUMP JUMPDEST PUSH1 0x40 DUP1 MLOAD DUP1 DUP4 SUB DUP2 PUSH1 0x0 DUP8 GAS CALL ISZERO DUP1 ISZERO PUSH2 0x6C9 JUMPI RETURNDATASIZE PUSH1 0x0 DUP1 RETURNDATACOPY RETURNDATASIZE PUSH1 0x0 REVERT JUMPDEST POP POP POP POP PUSH1 0x40 MLOAD RETURNDATASIZE PUSH1 0x1F NOT PUSH1 0x1F DUP3 ADD AND DUP3 ADD DUP1 PUSH1 0x40 MSTORE POP DUP2 ADD SWAP1 PUSH2 0x6ED SWAP2 SWAP1 PUSH2 0x130C JUMP JUMPDEST SWAP1 POP PUSH32 0x49310447C6EC97BE32081AD74D8C111FBE2C749EAF0F54E0FF045903A99DB2E7 DUP2 PUSH1 0x40 MLOAD PUSH2 0x71E SWAP2 SWAP1 PUSH2 0x1441 JUMP JUMPDEST PUSH1 0x40 MLOAD DUP1 SWAP2 SUB SWAP1 LOG1 POP POP POP POP POP POP JUMP JUMPDEST PUSH1 0x40 MLOAD PUSH4 0x341305AB PUSH1 0xE2 SHL DUP2 MSTORE PUSH1 0x1 PUSH1 0x1 PUSH1 0xA0 SHL SUB PUSH32 0x0 AND SWAP1 PUSH4 0xD04C16AC SWAP1 PUSH2 0x780 SWAP1 DUP8 SWAP1 DUP8 SWAP1 DUP8 SWAP1 DUP8 SWAP1 PUSH1 0x4 ADD PUSH2 0x1472 JUMP JUMPDEST PUSH1 0x0 PUSH1 0x40 MLOAD DUP1 DUP4 SUB DUP2 PUSH1 0x0 DUP8 DUP1 EXTCODESIZE ISZERO DUP1 ISZERO PUSH2 0x79A JUMPI PUSH1 0x0 DUP1 REVERT JUMPDEST POP GAS CALL ISZERO DUP1 ISZERO PUSH2 0x7AE JUMPI RETURNDATASIZE PUSH1 0x0 DUP1 RETURNDATACOPY RETURNDATASIZE PUSH1 0x0 REVERT JUMPDEST POP POP POP POP POP POP POP POP JUMP JUMPDEST PUSH1 0x0 CALLER PUSH1 0x1 PUSH1 0x1 PUSH1 0xA0 SHL SUB PUSH32 0x0 AND EQ PUSH2 0x7EF JUMPI PUSH1 0x0 DUP1 REVERT JUMPDEST PUSH2 0x7FC DUP7 DUP7 DUP7 DUP7 DUP7 PUSH2 0xA79 JUMP JUMPDEST SWAP1 POP JUMPDEST SWAP6 SWAP5 POP POP POP POP POP JUMP JUMPDEST PUSH1 0x40 MLOAD PUSH4 0x50E4F223 PUSH1 0xE0 SHL DUP2 MSTORE PUSH1 0x1 PUSH1 0x1 PUSH1 0xA0 SHL SUB DUP7 DUP2 AND PUSH1 0x4 DUP4 ADD MSTORE PUSH2 0xFFFF DUP7 AND PUSH1 0x24 DUP4 ADD MSTORE PUSH1 0x44 DUP3 ADD DUP6 SWAP1 MSTORE PUSH1 0x64 DUP3 ADD DUP5 SWAP1 MSTORE PUSH4 0xFFFFFFFF DUP4 AND PUSH1 0x84 DUP4 ADD MSTORE PUSH1 0xC0 PUSH1 0xA4 DUP4 ADD MSTORE PUSH1 0x0 PUSH1 0xC4 DUP4 ADD MSTORE PUSH32 0x0 AND SWAP1 PUSH4 0x50E4F223 SWAP1 PUSH1 0xE4 ADD PUSH1 0x0 PUSH1 0x40 MLOAD DUP1 DUP4 SUB DUP2 PUSH1 0x0 DUP8 GAS CALL ISZERO DUP1 ISZERO PUSH2 0x8A2 JUMPI RETURNDATASIZE PUSH1 0x0 DUP1 RETURNDATACOPY RETURNDATASIZE PUSH1 0x0 REVERT JUMPDEST POP POP POP POP PUSH1 0x40 MLOAD RETURNDATASIZE PUSH1 0x0 DUP3 RETURNDATACOPY PUSH1 0x1F RETURNDATASIZE SWAP1 DUP2 ADD PUSH1 0x1F NOT AND DUP3 ADD PUSH1 0x40 MSTORE PUSH2 0x8CA SWAP2 SWAP1 DUP2 ADD SWAP1 PUSH2 0x14AF JUMP JUMPDEST POP POP POP POP POP POP JUMP JUMPDEST PUSH1 0x0 PUSH8 0xDE0B6B3A7640000 PUSH1 0x2 SLOAD DUP5 PUSH2 0x8EB SWAP2 SWAP1 PUSH2 0x1551 JUMP JUMPDEST PUSH2 0x8FA SWAP1 PUSH5 0x2540BE400 PUSH2 0x1551 JUMP JUMPDEST PUSH2 0x904 SWAP2 SWAP1 PUSH2 0x157E JUMP JUMPDEST SWAP1 POP JUMPDEST SWAP4 SWAP3 POP POP POP JUMP JUMPDEST PUSH1 0x40 MLOAD PUSH4 0xEE01436B PUSH1 0xE0 SHL DUP2 MSTORE PUSH1 0x1 PUSH1 0x1 PUSH1 0xA0 SHL SUB PUSH32 0x0 AND SWAP1 PUSH4 0xEE01436B SWAP1 PUSH2 0x960 SWAP1 DUP8 SWAP1 DUP8 SWAP1 DUP8 SWAP1 DUP8 SWAP1 PUSH1 0x4 ADD PUSH2 0x1472 JUMP JUMPDEST PUSH1 0x40 DUP1 MLOAD DUP1 DUP4 SUB DUP2 PUSH1 0x0 DUP8 GAS CALL ISZERO DUP1 ISZERO PUSH2 0x97E JUMPI RETURNDATASIZE PUSH1 0x0 DUP1 RETURNDATACOPY RETURNDATASIZE PUSH1 0x0 REVERT JUMPDEST POP POP POP POP PUSH1 0x40 MLOAD RETURNDATASIZE PUSH1 0x1F NOT PUSH1 0x1F DUP3 ADD AND DUP3 ADD DUP1 PUSH1 0x40 MSTORE POP DUP2 ADD SWAP1 PUSH2 0x8CA SWAP2 SWAP1 PUSH2 0x15A0 JUMP JUMPDEST PUSH1 0x60 CALLER PUSH1 0x1 PUSH1 0x1 PUSH1 0xA0 SHL SUB PUSH32 0x0 AND EQ PUSH2 0x9D9 JUMPI PUSH1 0x0 DUP1 REVERT JUMPDEST PUSH2 0x9E5 DUP6 DUP6 DUP6 DUP6 PUSH2 0xC31 JUMP JUMPDEST SWAP1 POP JUMPDEST SWAP5 SWAP4 POP POP POP POP JUMP JUMPDEST PUSH1 0x0 PUSH8 0xDE0B6B3A7640000 PUSH1 0x2 SLOAD DUP7 PUSH2 0xA09 SWAP2 SWAP1 PUSH2 0x1551 JUMP JUMPDEST PUSH2 0xA18 SWAP1 PUSH5 0x2540BE400 PUSH2 0x1551 JUMP JUMPDEST PUSH2 0x7FC SWAP2 SWAP1 PUSH2 0x157E JUMP JUMPDEST PUSH1 0x40 DUP1 MLOAD PUSH1 0x1 PUSH1 0x1 PUSH1 0xA0 SHL SUB DUP5 AND PUSH1 0x24 DUP3 ADD MSTORE PUSH1 0x44 DUP1 DUP3 ADD DUP5 SWAP1 MSTORE DUP3 MLOAD DUP1 DUP4 SUB SWAP1 SWAP2 ADD DUP2 MSTORE PUSH1 0x64 SWAP1 SWAP2 ADD SWAP1 SWAP2 MSTORE PUSH1 0x20 DUP2 ADD DUP1 MLOAD PUSH1 0x1 PUSH1 0x1 PUSH1 0xE0 SHL SUB AND PUSH4 0xA9059CBB PUSH1 0xE0 SHL OR SWAP1 MSTORE PUSH2 0xA74 SWAP1 DUP5 SWAP1 PUSH2 0xD39 JUMP JUMPDEST POP POP POP JUMP JUMPDEST PUSH1 0x0 PUSH1 0x2 SLOAD PUSH5 0x2540BE400 PUSH2 0xA8E SWAP2 SWAP1 PUSH2 0x1551 JUMP JUMPDEST PUSH2 0xAA0 DUP7 PUSH8 0xDE0B6B3A7640000 PUSH2 0x1551 JUMP JUMPDEST PUSH2 0xAAA SWAP2 SWAP1 PUSH2 0x157E JUMP JUMPDEST PUSH1 0x1 SLOAD SWAP1 SWAP2 POP PUSH1 0xFF AND ISZERO PUSH2 0x7FF JUMPI PUSH1 0x40 MLOAD PUSH4 0x95EA7B3 PUSH1 0xE0 SHL DUP2 MSTORE PUSH1 0x1 PUSH1 0x1 PUSH1 0xA0 SHL SUB PUSH32 0x0 DUP2 AND PUSH1 0x4 DUP4 ADD MSTORE PUSH1 0x24 DUP3 ADD DUP8 SWAP1 MSTORE PUSH32 0x0 AND SWAP1 PUSH4 0x95EA7B3 SWAP1 PUSH1 0x44 ADD PUSH1 0x20 PUSH1 0x40 MLOAD DUP1 DUP4 SUB DUP2 PUSH1 0x0 DUP8 GAS CALL ISZERO DUP1 ISZERO PUSH2 0xB47 JUMPI RETURNDATASIZE PUSH1 0x0 DUP1 RETURNDATACOPY RETURNDATASIZE PUSH1 0x0 REVERT JUMPDEST POP POP POP POP PUSH1 0x40 MLOAD RETURNDATASIZE PUSH1 0x1F NOT PUSH1 0x1F DUP3 ADD AND DUP3 ADD DUP1 PUSH1 0x40 MSTORE POP DUP2 ADD SWAP1 PUSH2 0xB6B SWAP2 SWAP1 PUSH2 0x15C4 JUMP JUMPDEST POP PUSH1 0x40 MLOAD PUSH4 0x2890FB65 PUSH1 0xE0 SHL DUP2 MSTORE ADDRESS PUSH1 0x4 DUP3 ADD MSTORE PUSH2 0xFFFF PUSH32 0x0 AND PUSH1 0x24 DUP3 ADD MSTORE PUSH1 0x44 DUP2 ADD DUP7 SWAP1 MSTORE PUSH32 0x0 PUSH1 0x1 PUSH1 0x1 PUSH1 0xA0 SHL SUB AND SWAP1 PUSH4 0x2890FB65 SWAP1 PUSH1 0x64 ADD PUSH1 0x20 PUSH1 0x40 MLOAD DUP1 DUP4 SUB DUP2 PUSH1 0x0 DUP8 GAS CALL ISZERO DUP1 ISZERO PUSH2 0xC03 JUMPI RETURNDATASIZE PUSH1 0x0 DUP1 RETURNDATACOPY RETURNDATASIZE PUSH1 0x0 REVERT JUMPDEST POP POP POP POP PUSH1 0x40 MLOAD RETURNDATASIZE PUSH1 0x1F NOT PUSH1 0x1F DUP3 ADD AND DUP3 ADD DUP1 PUSH1 0x40 MSTORE POP DUP2 ADD SWAP1 PUSH2 0xC27 SWAP2 SWAP1 PUSH2 0x15E1 JUMP JUMPDEST POP SWAP6 SWAP5 POP POP POP POP POP JUMP JUMPDEST PUSH1 0x60 PUSH1 0x1 PUSH1 0x1 PUSH1 0xA0 SHL SUB DUP6 AND PUSH2 0xC9D JUMPI PUSH1 0x40 MLOAD PUSH1 0x1 PUSH1 0x1 PUSH1 0xA0 SHL SUB PUSH32 0x0 AND SWAP1 DUP6 ISZERO PUSH2 0x8FC MUL SWAP1 DUP7 SWAP1 PUSH1 0x0 DUP2 DUP2 DUP2 DUP6 DUP9 DUP9 CALL SWAP4 POP POP POP POP ISZERO DUP1 ISZERO PUSH2 0xC97 JUMPI RETURNDATASIZE PUSH1 0x0 DUP1 RETURNDATACOPY RETURNDATASIZE PUSH1 0x0 REVERT JUMPDEST POP PUSH2 0x9E8 JUMP JUMPDEST PUSH1 0x40 MLOAD PUSH4 0xA9059CBB PUSH1 0xE0 SHL DUP2 MSTORE PUSH1 0x1 PUSH1 0x1 PUSH1 0xA0 SHL SUB PUSH32 0x0 DUP2 AND PUSH1 0x4 DUP4 ADD MSTORE PUSH1 0x24 DUP3 ADD DUP7 SWAP1 MSTORE DUP7 AND SWAP1 PUSH4 0xA9059CBB SWAP1 PUSH1 0x44 ADD PUSH1 0x20 PUSH1 0x40 MLOAD DUP1 DUP4 SUB DUP2 PUSH1 0x0 DUP8 GAS CALL ISZERO DUP1 ISZERO PUSH2 0xD0C JUMPI RETURNDATASIZE PUSH1 0x0 DUP1 RETURNDATACOPY RETURNDATASIZE PUSH1 0x0 REVERT JUMPDEST POP POP POP POP PUSH1 0x40 MLOAD RETURNDATASIZE PUSH1 0x1F NOT PUSH1 0x1F DUP3 ADD AND DUP3 ADD DUP1 PUSH1 0x40 MSTORE POP DUP2 ADD SWAP1 PUSH2 0xD30 SWAP2 SWAP1 PUSH2 0x15C4 JUMP JUMPDEST POP SWAP5 SWAP4 POP POP POP POP JUMP JUMPDEST PUSH1 0x0 PUSH2 0xD8E DUP3 PUSH1 0x40 MLOAD DUP1 PUSH1 0x40 ADD PUSH1 0x40 MSTORE DUP1 PUSH1 0x20 DUP2 MSTORE PUSH1 0x20 ADD PUSH32 0x5361666545524332303A206C6F772D6C6576656C2063616C6C206661696C6564 DUP2 MSTORE POP DUP6 PUSH1 0x1 PUSH1 0x1 PUSH1 0xA0 SHL SUB AND PUSH2 0xE10 SWAP1 SWAP3 SWAP2 SWAP1 PUSH4 0xFFFFFFFF AND JUMP JUMPDEST DUP1 MLOAD SWAP1 SWAP2 POP ISZERO PUSH2 0xA74 JUMPI DUP1 DUP1 PUSH1 0x20 ADD SWAP1 MLOAD DUP2 ADD SWAP1 PUSH2 0xDAC SWAP2 SWAP1 PUSH2 0x15C4 JUMP JUMPDEST PUSH2 0xA74 JUMPI PUSH1 0x40 MLOAD PUSH3 0x461BCD PUSH1 0xE5 SHL DUP2 MSTORE PUSH1 0x20 PUSH1 0x4 DUP3 ADD MSTORE PUSH1 0x2A PUSH1 0x24 DUP3 ADD MSTORE PUSH32 0x5361666545524332303A204552433230206F7065726174696F6E20646964206E PUSH1 0x44 DUP3 ADD MSTORE PUSH10 0x1BDD081CDD58D8D95959 PUSH1 0xB2 SHL PUSH1 0x64 DUP3 ADD MSTORE PUSH1 0x84 ADD JUMPDEST PUSH1 0x40 MLOAD DUP1 SWAP2 SUB SWAP1 REVERT JUMPDEST PUSH1 0x60 PUSH2 0x904 DUP5 DUP5 PUSH1 0x0 DUP6 DUP6 PUSH1 0x1 PUSH1 0x1 PUSH1 0xA0 SHL SUB DUP6 AND EXTCODESIZE PUSH2 0xE72 JUMPI PUSH1 0x40 MLOAD PUSH3 0x461BCD PUSH1 0xE5 SHL DUP2 MSTORE PUSH1 0x20 PUSH1 0x4 DUP3 ADD MSTORE PUSH1 0x1D PUSH1 0x24 DUP3 ADD MSTORE PUSH32 0x416464726573733A2063616C6C20746F206E6F6E2D636F6E7472616374000000 PUSH1 0x44 DUP3 ADD MSTORE PUSH1 0x64 ADD PUSH2 0xE07 JUMP JUMPDEST PUSH1 0x0 DUP1 DUP7 PUSH1 0x1 PUSH1 0x1 PUSH1 0xA0 SHL SUB AND DUP6 DUP8 PUSH1 0x40 MLOAD PUSH2 0xE8E SWAP2 SWAP1 PUSH2 0x15FA JUMP JUMPDEST PUSH1 0x0 PUSH1 0x40 MLOAD DUP1 DUP4 SUB DUP2 DUP6 DUP8 GAS CALL SWAP3 POP POP POP RETURNDATASIZE DUP1 PUSH1 0x0 DUP2 EQ PUSH2 0xECB JUMPI PUSH1 0x40 MLOAD SWAP2 POP PUSH1 0x1F NOT PUSH1 0x3F RETURNDATASIZE ADD AND DUP3 ADD PUSH1 0x40 MSTORE RETURNDATASIZE DUP3 MSTORE RETURNDATASIZE PUSH1 0x0 PUSH1 0x20 DUP5 ADD RETURNDATACOPY PUSH2 0xED0 JUMP JUMPDEST PUSH1 0x60 SWAP2 POP JUMPDEST POP SWAP2 POP SWAP2 POP PUSH2 0xEE0 DUP3 DUP3 DUP7 PUSH2 0xEEB JUMP JUMPDEST SWAP8 SWAP7 POP POP POP POP POP POP POP JUMP JUMPDEST PUSH1 0x60 DUP4 ISZERO PUSH2 0xEFA JUMPI POP DUP2 PUSH2 0x907 JUMP JUMPDEST DUP3 MLOAD ISZERO PUSH2 0xF0A JUMPI DUP3 MLOAD DUP1 DUP5 PUSH1 0x20 ADD REVERT JUMPDEST DUP2 PUSH1 0x40 MLOAD PUSH3 0x461BCD PUSH1 0xE5 SHL DUP2 MSTORE PUSH1 0x4 ADD PUSH2 0xE07 SWAP2 SWAP1 PUSH2 0xF99 JUMP JUMPDEST PUSH1 0x0 PUSH1 0x20 DUP3 DUP5 SUB SLT ISZERO PUSH2 0xF36 JUMPI PUSH1 0x0 DUP1 REVERT JUMPDEST POP CALLDATALOAD SWAP2 SWAP1 POP JUMP JUMPDEST PUSH1 0x0 JUMPDEST DUP4 DUP2 LT ISZERO PUSH2 0xF58 JUMPI DUP2 DUP2 ADD MLOAD DUP4 DUP3 ADD MSTORE PUSH1 0x20 ADD PUSH2 0xF40 JUMP JUMPDEST DUP4 DUP2 GT ISZERO PUSH2 0xF67 JUMPI PUSH1 0x0 DUP5 DUP5 ADD MSTORE JUMPDEST POP POP POP POP JUMP JUMPDEST PUSH1 0x0 DUP2 MLOAD DUP1 DUP5 MSTORE PUSH2 0xF85 DUP2 PUSH1 0x20 DUP7 ADD PUSH1 0x20 DUP7 ADD PUSH2 0xF3D JUMP JUMPDEST PUSH1 0x1F ADD PUSH1 0x1F NOT AND SWAP3 SWAP1 SWAP3 ADD PUSH1 0x20 ADD SWAP3 SWAP2 POP POP JUMP JUMPDEST PUSH1 0x20 DUP2 MSTORE PUSH1 0x0 PUSH2 0x907 PUSH1 0x20 DUP4 ADD DUP5 PUSH2 0xF6D JUMP JUMPDEST DUP1 CALLDATALOAD PUSH1 0x1 PUSH1 0x1 PUSH1 0xA0 SHL SUB DUP2 AND DUP2 EQ PUSH2 0xFC3 JUMPI PUSH1 0x0 DUP1 REVERT JUMPDEST SWAP2 SWAP1 POP JUMP JUMPDEST PUSH1 0x0 DUP1 DUP4 PUSH1 0x1F DUP5 ADD SLT PUSH2 0xFDA JUMPI PUSH1 0x0 DUP1 REVERT JUMPDEST POP DUP2 CALLDATALOAD PUSH8 0xFFFFFFFFFFFFFFFF DUP2 GT ISZERO PUSH2 0xFF2 JUMPI PUSH1 0x0 DUP1 REVERT JUMPDEST PUSH1 0x20 DUP4 ADD SWAP2 POP DUP4 PUSH1 0x20 DUP3 DUP6 ADD ADD GT ISZERO PUSH2 0x100A JUMPI PUSH1 0x0 DUP1 REVERT JUMPDEST SWAP3 POP SWAP3 SWAP1 POP JUMP JUMPDEST PUSH1 0x0 DUP1 PUSH1 0x0 DUP1 PUSH1 0x0 DUP1 PUSH1 0x0 PUSH1 0xC0 DUP9 DUP11 SUB SLT ISZERO PUSH2 0x102C JUMPI PUSH1 0x0 DUP1 REVERT JUMPDEST PUSH2 0x1035 DUP9 PUSH2 0xFAC JUMP JUMPDEST SWAP7 POP PUSH2 0x1043 PUSH1 0x20 DUP10 ADD PUSH2 0xFAC JUMP JUMPDEST SWAP6 POP PUSH1 0x40 DUP9 ADD CALLDATALOAD SWAP5 POP PUSH1 0x60 DUP9 ADD CALLDATALOAD SWAP4 POP PUSH1 0x80 DUP9 ADD CALLDATALOAD SWAP3 POP PUSH1 0xA0 DUP9 ADD CALLDATALOAD PUSH8 0xFFFFFFFFFFFFFFFF DUP2 GT ISZERO PUSH2 0x1074 JUMPI PUSH1 0x0 DUP1 REVERT JUMPDEST PUSH2 0x1080 DUP11 DUP3 DUP12 ADD PUSH2 0xFC8 JUMP JUMPDEST SWAP9 SWAP12 SWAP8 SWAP11 POP SWAP6 SWAP9 POP SWAP4 SWAP7 SWAP3 SWAP6 SWAP3 SWAP4 POP POP POP JUMP JUMPDEST DUP1 ISZERO ISZERO DUP2 EQ PUSH2 0x10A1 JUMPI PUSH1 0x0 DUP1 REVERT JUMPDEST POP JUMP JUMPDEST PUSH1 0x0 PUSH1 0x20 DUP3 DUP5 SUB SLT ISZERO PUSH2 0x10B6 JUMPI PUSH1 0x0 DUP1 REVERT JUMPDEST DUP2 CALLDATALOAD PUSH2 0x907 DUP2 PUSH2 0x1093 JUMP JUMPDEST DUP1 PUSH1 0x40 DUP2 ADD DUP4 LT ISZERO PUSH2 0x10D2 JUMPI PUSH1 0x0 DUP1 REVERT JUMPDEST SWAP3 SWAP2 POP POP JUMP JUMPDEST PUSH1 0x0 DUP1 PUSH1 0x0 DUP1 PUSH1 0x0 PUSH2 0x100 DUP7 DUP9 SUB SLT ISZERO PUSH2 0x10F1 JUMPI PUSH1 0x0 DUP1 REVERT JUMPDEST PUSH2 0x10FA DUP7 PUSH2 0xFAC JUMP JUMPDEST SWAP5 POP PUSH1 0x20 DUP7 ADD CALLDATALOAD SWAP4 POP PUSH2 0x1110 DUP8 PUSH1 0x40 DUP9 ADD PUSH2 0x10C1 JUMP JUMPDEST SWAP3 POP PUSH2 0x111F DUP8 PUSH1 0x80 DUP9 ADD PUSH2 0x10C1 JUMP JUMPDEST SWAP2 POP PUSH2 0x112E DUP8 PUSH1 0xC0 DUP9 ADD PUSH2 0x10C1 JUMP JUMPDEST SWAP1 POP SWAP3 SWAP6 POP SWAP3 SWAP6 SWAP1 SWAP4 POP JUMP JUMPDEST PUSH1 0x0 DUP1 PUSH1 0x0 DUP1 PUSH1 0x60 DUP6 DUP8 SUB SLT ISZERO PUSH2 0x1150 JUMPI PUSH1 0x0 DUP1 REVERT JUMPDEST DUP5 CALLDATALOAD SWAP4 POP PUSH1 0x20 DUP6 ADD CALLDATALOAD SWAP3 POP PUSH1 0x40 DUP6 ADD CALLDATALOAD PUSH8 0xFFFFFFFFFFFFFFFF DUP2 GT ISZERO PUSH2 0x1175 JUMPI PUSH1 0x0 DUP1 REVERT JUMPDEST PUSH2 0x1181 DUP8 DUP3 DUP9 ADD PUSH2 0xFC8 JUMP JUMPDEST SWAP6 SWAP9 SWAP5 SWAP8 POP SWAP6 POP POP POP POP JUMP JUMPDEST PUSH1 0x0 DUP1 PUSH1 0x0 DUP1 PUSH1 0x0 PUSH1 0x80 DUP7 DUP9 SUB SLT ISZERO PUSH2 0x11A5 JUMPI PUSH1 0x0 DUP1 REVERT JUMPDEST PUSH2 0x11AE DUP7 PUSH2 0xFAC JUMP JUMPDEST SWAP5 POP PUSH1 0x20 DUP7 ADD CALLDATALOAD SWAP4 POP PUSH1 0x40 DUP7 ADD CALLDATALOAD SWAP3 POP PUSH1 0x60 DUP7 ADD CALLDATALOAD PUSH8 0xFFFFFFFFFFFFFFFF DUP2 GT ISZERO PUSH2 0x11D8 JUMPI PUSH1 0x0 DUP1 REVERT JUMPDEST PUSH2 0x11E4 DUP9 DUP3 DUP10 ADD PUSH2 0xFC8 JUMP JUMPDEST SWAP7 SWAP10 SWAP6 SWAP9 POP SWAP4 SWAP7 POP SWAP3 SWAP5 SWAP4 SWAP3 POP POP POP JUMP JUMPDEST DUP1 CALLDATALOAD PUSH2 0xFFFF DUP2 AND DUP2 EQ PUSH2 0xFC3 JUMPI PUSH1 0x0 DUP1 REVERT JUMPDEST DUP1 CALLDATALOAD PUSH4 0xFFFFFFFF DUP2 AND DUP2 EQ PUSH2 0xFC3 JUMPI PUSH1 0x0 DUP1 REVERT JUMPDEST PUSH1 0x0 DUP1 PUSH1 0x0 DUP1 PUSH1 0x0 PUSH1 0xA0 DUP7 DUP9 SUB SLT ISZERO PUSH2 0x1233 JUMPI PUSH1 0x0 DUP1 REVERT JUMPDEST PUSH2 0x123C DUP7 PUSH2 0xFAC JUMP JUMPDEST SWAP5 POP PUSH2 0x124A PUSH1 0x20 DUP8 ADD PUSH2 0x11F5 JUMP JUMPDEST SWAP4 POP PUSH1 0x40 DUP7 ADD CALLDATALOAD SWAP3 POP PUSH1 0x60 DUP7 ADD CALLDATALOAD SWAP2 POP PUSH2 0x112E PUSH1 0x80 DUP8 ADD PUSH2 0x1207 JUMP JUMPDEST PUSH1 0x0 DUP1 PUSH1 0x0 PUSH1 0x60 DUP5 DUP7 SUB SLT ISZERO PUSH2 0x127B JUMPI PUSH1 0x0 DUP1 REVERT JUMPDEST PUSH2 0x1284 DUP5 PUSH2 0xFAC JUMP JUMPDEST SWAP6 PUSH1 0x20 DUP6 ADD CALLDATALOAD SWAP6 POP PUSH1 0x40 SWAP1 SWAP5 ADD CALLDATALOAD SWAP4 SWAP3 POP POP POP JUMP JUMPDEST PUSH1 0x0 PUSH1 0x20 DUP3 DUP5 SUB SLT ISZERO PUSH2 0x12AB JUMPI PUSH1 0x0 DUP1 REVERT JUMPDEST PUSH2 0x907 DUP3 PUSH2 0x11F5 JUMP JUMPDEST PUSH1 0x0 DUP1 PUSH1 0x0 DUP1 PUSH1 0x60 DUP6 DUP8 SUB SLT ISZERO PUSH2 0x12CA JUMPI PUSH1 0x0 DUP1 REVERT JUMPDEST PUSH2 0x12D3 DUP6 PUSH2 0xFAC JUMP JUMPDEST SWAP4 POP PUSH1 0x20 DUP6 ADD CALLDATALOAD SWAP3 POP PUSH1 0x40 DUP6 ADD CALLDATALOAD PUSH8 0xFFFFFFFFFFFFFFFF DUP2 GT ISZERO PUSH2 0x1175 JUMPI PUSH1 0x0 DUP1 REVERT JUMPDEST PUSH4 0x4E487B71 PUSH1 0xE0 SHL PUSH1 0x0 MSTORE PUSH1 0x41 PUSH1 0x4 MSTORE PUSH1 0x24 PUSH1 0x0 REVERT JUMPDEST PUSH1 0x0 PUSH1 0x40 DUP3 DUP5 SUB SLT ISZERO PUSH2 0x131E JUMPI PUSH1 0x0 DUP1 REVERT JUMPDEST DUP3 PUSH1 0x1F DUP4 ADD SLT PUSH2 0x132D JUMPI PUSH1 0x0 DUP1 REVERT JUMPDEST PUSH1 0x40 MLOAD PUSH1 0x40 DUP2 ADD DUP2 DUP2 LT PUSH8 0xFFFFFFFFFFFFFFFF DUP3 GT OR ISZERO PUSH2 0x1350 JUMPI PUSH2 0x1350 PUSH2 0x12F6 JUMP JUMPDEST DUP1 PUSH1 0x40 MSTORE POP DUP1 PUSH1 0x40 DUP5 ADD DUP6 DUP2 GT ISZERO PUSH2 0x1367 JUMPI PUSH1 0x0 DUP1 REVERT JUMPDEST DUP5 JUMPDEST DUP2 DUP2 LT ISZERO PUSH2 0x1381 JUMPI DUP1 MLOAD DUP4 MSTORE PUSH1 0x20 SWAP3 DUP4 ADD SWAP3 ADD PUSH2 0x1369 JUMP JUMPDEST POP SWAP2 SWAP6 SWAP5 POP POP POP POP POP JUMP JUMPDEST PUSH1 0x1 DUP2 DUP2 SHR SWAP1 DUP3 AND DUP1 PUSH2 0x13A0 JUMPI PUSH1 0x7F DUP3 AND SWAP2 POP JUMPDEST PUSH1 0x20 DUP3 LT DUP2 EQ ISZERO PUSH2 0x13C1 JUMPI PUSH4 0x4E487B71 PUSH1 0xE0 SHL PUSH1 0x0 MSTORE PUSH1 0x22 PUSH1 0x4 MSTORE PUSH1 0x24 PUSH1 0x0 REVERT JUMPDEST POP SWAP2 SWAP1 POP JUMP JUMPDEST DUP1 PUSH1 0x0 JUMPDEST PUSH1 0x2 DUP2 LT ISZERO PUSH2 0xF67 JUMPI PUSH4 0xFFFFFFFF PUSH2 0x13E2 DUP4 PUSH2 0x1207 JUMP JUMPDEST AND DUP5 MSTORE PUSH1 0x20 SWAP4 DUP5 ADD SWAP4 SWAP2 SWAP1 SWAP2 ADD SWAP1 PUSH1 0x1 ADD PUSH2 0x13CB JUMP JUMPDEST PUSH1 0x1 PUSH1 0x1 PUSH1 0xA0 SHL SUB DUP7 AND DUP2 MSTORE PUSH1 0x20 DUP2 ADD DUP6 SWAP1 MSTORE PUSH2 0x100 DUP2 ADD PUSH1 0x40 DUP6 DUP2 DUP5 ADD CALLDATACOPY PUSH1 0x80 DUP3 ADD PUSH1 0x0 DUP2 MSTORE PUSH2 0x1429 DUP2 DUP7 PUSH2 0x13C7 JUMP JUMPDEST POP PUSH2 0x1437 PUSH1 0xC0 DUP4 ADD DUP5 PUSH2 0x13C7 JUMP JUMPDEST SWAP7 SWAP6 POP POP POP POP POP POP JUMP JUMPDEST PUSH1 0x40 DUP2 ADD DUP2 DUP4 PUSH1 0x0 JUMPDEST PUSH1 0x2 DUP2 LT ISZERO PUSH2 0x1469 JUMPI DUP2 MLOAD DUP4 MSTORE PUSH1 0x20 SWAP3 DUP4 ADD SWAP3 SWAP1 SWAP2 ADD SWAP1 PUSH1 0x1 ADD PUSH2 0x144A JUMP JUMPDEST POP POP POP SWAP3 SWAP2 POP POP JUMP JUMPDEST DUP5 DUP2 MSTORE DUP4 PUSH1 0x20 DUP3 ADD MSTORE PUSH1 0x60 PUSH1 0x40 DUP3 ADD MSTORE DUP2 PUSH1 0x60 DUP3 ADD MSTORE DUP2 DUP4 PUSH1 0x80 DUP4 ADD CALLDATACOPY PUSH1 0x0 DUP2 DUP4 ADD PUSH1 0x80 SWAP1 DUP2 ADD SWAP2 SWAP1 SWAP2 MSTORE PUSH1 0x1F SWAP1 SWAP3 ADD PUSH1 0x1F NOT AND ADD ADD SWAP4 SWAP3 POP POP POP JUMP JUMPDEST PUSH1 0x0 PUSH1 0x20 DUP3 DUP5 SUB SLT ISZERO PUSH2 0x14C1 JUMPI PUSH1 0x0 DUP1 REVERT JUMPDEST DUP2 MLOAD PUSH8 0xFFFFFFFFFFFFFFFF DUP1 DUP3 GT ISZERO PUSH2 0x14D9 JUMPI PUSH1 0x0 DUP1 REVERT JUMPDEST DUP2 DUP5 ADD SWAP2 POP DUP5 PUSH1 0x1F DUP4 ADD SLT PUSH2 0x14ED JUMPI PUSH1 0x0 DUP1 REVERT JUMPDEST DUP2 MLOAD DUP2 DUP2 GT ISZERO PUSH2 0x14FF JUMPI PUSH2 0x14FF PUSH2 0x12F6 JUMP JUMPDEST PUSH1 0x40 MLOAD PUSH1 0x1F DUP3 ADD PUSH1 0x1F NOT SWAP1 DUP2 AND PUSH1 0x3F ADD AND DUP2 ADD SWAP1 DUP4 DUP3 GT DUP2 DUP4 LT OR ISZERO PUSH2 0x1527 JUMPI PUSH2 0x1527 PUSH2 0x12F6 JUMP JUMPDEST DUP2 PUSH1 0x40 MSTORE DUP3 DUP2 MSTORE DUP8 PUSH1 0x20 DUP5 DUP8 ADD ADD GT ISZERO PUSH2 0x1540 JUMPI PUSH1 0x0 DUP1 REVERT JUMPDEST PUSH2 0xEE0 DUP4 PUSH1 0x20 DUP4 ADD PUSH1 0x20 DUP9 ADD PUSH2 0xF3D JUMP JUMPDEST PUSH1 0x0 DUP2 PUSH1 0x0 NOT DIV DUP4 GT DUP3 ISZERO ISZERO AND ISZERO PUSH2 0x1579 JUMPI PUSH4 0x4E487B71 PUSH1 0xE0 SHL PUSH1 0x0 MSTORE PUSH1 0x11 PUSH1 0x4 MSTORE PUSH1 0x24 PUSH1 0x0 REVERT JUMPDEST POP MUL SWAP1 JUMP JUMPDEST PUSH1 0x0 DUP3 PUSH2 0x159B JUMPI PUSH4 0x4E487B71 PUSH1 0xE0 SHL PUSH1 0x0 MSTORE PUSH1 0x12 PUSH1 0x4 MSTORE PUSH1 0x24 PUSH1 0x0 REVERT JUMPDEST POP DIV SWAP1 JUMP JUMPDEST PUSH1 0x0 DUP1 PUSH1 0x40 DUP4 DUP6 SUB SLT ISZERO PUSH2 0x15B3 JUMPI PUSH1 0x0 DUP1 REVERT JUMPDEST POP POP DUP1 MLOAD PUSH1 0x20 SWAP1 SWAP2 ADD MLOAD SWAP1 SWAP3 SWAP1 SWAP2 POP JUMP JUMPDEST PUSH1 0x0 PUSH1 0x20 DUP3 DUP5 SUB SLT ISZERO PUSH2 0x15D6 JUMPI PUSH1 0x0 DUP1 REVERT JUMPDEST DUP2 MLOAD PUSH2 0x907 DUP2 PUSH2 0x1093 JUMP JUMPDEST PUSH1 0x0 PUSH1 0x20 DUP3 DUP5 SUB SLT ISZERO PUSH2 0x15F3 JUMPI PUSH1 0x0 DUP1 REVERT JUMPDEST POP MLOAD SWAP2 SWAP1 POP JUMP JUMPDEST PUSH1 0x0 DUP3 MLOAD PUSH2 0x160C DUP2 DUP5 PUSH1 0x20 DUP8 ADD PUSH2 0xF3D JUMP JUMPDEST SWAP2 SWAP1 SWAP2 ADD SWAP3 SWAP2 POP POP JUMP INVALID LOG2 PUSH5 0x6970667358 0x22 SLT KECCAK256 0xB4 0xEA EXTCODESIZE EXTCODESIZE CALLER REVERT 0xD8 KECCAK256 0xDF SHL BYTE SWAP12 ADDRESS PUSH22 0xBBF7A21B4D27D03DE1982C623391DA2D718E64736F6C PUSH4 0x4300080B STOP CALLER ","sha1":"2c72e8fe1f92f8259b0141c724cd6f43d40ec198","source":"// SPDX-License-Identifier: GPL-3.0-only\npragma solidity =0.8.11;\npragma abicoder v2;\n\nimport \"../strategyVaults/BaseStrategyVault.sol\";\n\ncontract SimpleStrategyVault is BaseStrategyVault {\n    event SecondaryBorrow(uint256[2] underlyingTokensTransferred);\n\n    function strategy() external view override returns (bytes4) {\n        return bytes4(keccak256(\"SimpleVault\"));\n    }\n\n    bool internal _reenterNotional;\n    uint256 internal _tokenExchangeRate;\n    uint16 internal _secondaryCurrency;\n    function setReenterNotional(bool s) external { _reenterNotional = s; }\n    function setExchangeRate(uint256 e) external { _tokenExchangeRate = e; }\n    function setSecondary(uint16 c) external { _secondaryCurrency = c; }\n\n    constructor(\n        string memory name_,\n        address notional_,\n        uint16 borrowCurrencyId_\n    ) BaseStrategyVault(name_, notional_, borrowCurrencyId_) { }\n\n    // Vaults need to implement these two methods\n    function _depositFromNotional(\n        address account,\n        uint256 deposit,\n        uint256 maturity,\n        bytes calldata data\n    ) internal override returns (uint256 strategyTokensMinted) {\n        strategyTokensMinted = (deposit * 1e18) / (_tokenExchangeRate * 1e10);\n        if (_reenterNotional) {\n            UNDERLYING_TOKEN.approve(address(NOTIONAL), deposit);\n            NOTIONAL.depositUnderlyingToken(address(this), BORROW_CURRENCY_ID, deposit);\n        }\n    }\n\n    function _redeemFromNotional(\n        address account,\n        uint256 strategyTokens,\n        uint256 maturity,\n        bytes calldata data\n    ) internal override returns (uint256 assetTokensToTransfer) {\n        return strategyTokens * _tokenExchangeRate * 1e10 / 1e18;\n    }\n\n    function _repaySecondaryBorrowCallback(\n        address token, uint256 underlyingTokensRequired, bytes calldata /* data */\n    ) internal override returns (bytes memory returnData) {\n        if (token == address(0)) {\n            payable(address(NOTIONAL)).transfer(underlyingTokensRequired);\n        } else {\n            ERC20(token).transfer(address(NOTIONAL), underlyingTokensRequired);\n        }\n    }\n\n    function convertStrategyToUnderlying(\n        address account, uint256 strategyTokens, uint256 maturity\n    ) public view override returns (int256 underlyingValue) {\n        return int256((strategyTokens * _tokenExchangeRate * 1e10) / 1e18);\n    }\n\n    function borrowSecondaryCurrency(\n        address account,\n        uint256 maturity,\n        uint256[2] calldata fCashToBorrow,\n        uint32[2] calldata maxBorrowRate,\n        uint32[2] calldata minRollLendRate\n    ) external {\n        uint256[2] memory underlyingTokensTransferred = NOTIONAL.borrowSecondaryCurrencyToVault(\n            account, maturity, fCashToBorrow, maxBorrowRate, minRollLendRate \n        );\n        emit SecondaryBorrow(underlyingTokensTransferred);\n    }\n\n    function repaySecondaryCurrency(\n        address account,\n        uint16 currencyId,\n        uint256 maturity,\n        uint256 accountDebtShares,\n        uint32 slippageLimit\n    ) external {\n        NOTIONAL.repaySecondaryCurrencyFromVault(\n            account, currencyId, maturity, accountDebtShares, slippageLimit, \"\"\n        );\n    }\n\n    function initiateSecondaryBorrowSettlement(\n        uint256 maturity\n    ) external {\n        NOTIONAL.initiateSecondaryBorrowSettlement(maturity);\n    }\n\n    function redeemStrategyTokensToCash(uint256 maturity, uint256 strategyTokens, bytes calldata data) external {\n        NOTIONAL.redeemStrategyTokensToCash(maturity, strategyTokens, data);\n    }\n\n    function depositVaultCashToStrategyTokens(uint256 maturity, uint256 assetCash, bytes calldata data) external {\n        NOTIONAL.depositVaultCashToStrategyTokens(maturity, assetCash, data);\n    }\n}","sourcePath":"contracts/mocks/SimpleStrategyVault.sol","type":"contract","deployment":{"address":"0x71515FaA73F74F449Da0c8e7D8cC3C0Fa502e524","chainid":"5","blockHeight":7271990}}