{"bytecode":"60e060405234801561001057600080fd5b50604051610d65380380610d6583398101604081905261002f91610072565b6001600160601b0319606093841b811660805291831b821660a05290911b1660c0526100b4565b80516001600160a01b038116811461006d57600080fd5b919050565b600080600060608486031215610086578283fd5b61008f84610056565b925061009d60208501610056565b91506100ab60408501610056565b90509250925092565b60805160601c60a05160601c60c05160601c610c636101026000398061030f528061037e528061041452508061023152806102a052806104475250806103a552806103f05250610c636000f3fe60806040526004361061009c5760003560e01c80633659cfe6116100645780633659cfe6146101455780634f1ef2861461016557806376e1df481461017857806382463367146101985780638da5cb5b146101ad578063f98650b6146101c25761009c565b80630c4e7935146100bb578063206109b5146100e657806324a3d622146100fb5780632be75895146101105780632d5ec19814610125575b6100b96100b46000356001600160e01b0319166101e4565b6103ca565b005b3480156100c757600080fd5b506100d06103ee565b6040516100dd9190610b2d565b60405180910390f35b3480156100f257600080fd5b506100d0610412565b34801561010757600080fd5b506100d0610436565b34801561011c57600080fd5b506100d0610445565b34801561013157600080fd5b506100b9610140366004610add565b610469565b34801561015157600080fd5b506100b9610160366004610a1b565b6104bc565b6100b9610173366004610a35565b6104e3565b34801561018457600080fd5b506100d0610193366004610b05565b6101e4565b3480156101a457600080fd5b506100d06104fc565b3480156101b957600080fd5b506100d061050b565b3480156101ce57600080fd5b506101d7610522565b6040516100dd9190610b41565b60006001600160e01b03198216639a600eeb60e01b148061021557506001600160e01b03198216636633af3960e01b145b80156102295750610229600160f91b610531565b1561025557507f00000000000000000000000000000000000000000000000000000000000000006103c5565b6001600160e01b0319821663e3e7cb4f60e01b148061028457506001600160e01b03198216632d10e6eb60e01b145b80156102985750610298600160f81b610531565b156102c457507f00000000000000000000000000000000000000000000000000000000000000006103c5565b6001600160e01b03198216631ff7aefd60e21b14806102f357506001600160e01b03198216630fb281d960e01b145b80156103075750610307600160fa1b610531565b1561033357507f00000000000000000000000000000000000000000000000000000000000000006103c5565b6001600160e01b0319821663e816469d60e01b148061036257506001600160e01b0319821663fa37e39560e01b145b80156103765750610376600160fb1b610531565b156103a257507f00000000000000000000000000000000000000000000000000000000000000006103c5565b507f00000000000000000000000000000000000000000000000000000000000000005b919050565b3660008037600080366000845af43d6000803e8080156103e9573d6000f35b3d6000fd5b7f000000000000000000000000000000000000000000000000000000000000000081565b7f000000000000000000000000000000000000000000000000000000000000000081565b6002546001600160a01b031681565b7f000000000000000000000000000000000000000000000000000000000000000081565b60005464010000000090046001600160a01b031633148061049457506002546001600160a01b031633145b61049d57600080fd5b6000805460f89290921c620100000262ff000019909216919091179055565b6104c581610554565b6104e0816040518060200160405280600081525060006105ed565b50565b6104ec82610554565b6104f8828260016105ed565b5050565b6001546001600160a01b031681565b60005464010000000090046001600160a01b031681565b60005462010000900460f81b90565b60005462010000900460f81b81166001600160f81b031990811690821614919050565b6003546000906001600160a01b03161580159061057e57506003546001600160a01b038381169116145b60005490915064010000000090046001600160a01b03163314806105b457506002546001600160a01b0316331480156105b45750805b6105d95760405162461bcd60e51b81526004016105d090610b56565b60405180910390fd5b5050600380546001600160a01b0319169055565b60006105f7610720565b90506106028461075a565b60008351118061060f5750815b156106205761061e84846107e9565b505b600061064b7f4910fdfa16fed3260ed0e7147f7cc6da11a60208b5b9406d12a635614ffd9143610815565b805490915060ff1661071957805460ff19166001178155604080516001600160a01b0384166024808301919091528251808303909101815260449091019091526020810180516001600160e01b0316631b2ce7f360e11b1790526106b09086906107e9565b50805460ff191681556106c1610720565b6001600160a01b0316826001600160a01b0316146107105760405162461bcd60e51b815260040180806020018281038252602f815260200180610b85602f913960400191505060405180910390fd5b61071985610818565b5050505050565b600061074b7f360894a13ba1a3210667c828492db98dca3e2076cc3735a920a3ca505d382bbc610815565b546001600160a01b0316905090565b61076381610858565b61079e5760405162461bcd60e51b815260040180806020018281038252602d815260200180610bb4602d913960400191505060405180910390fd5b806107c87f360894a13ba1a3210667c828492db98dca3e2076cc3735a920a3ca505d382bbc610815565b80546001600160a01b0319166001600160a01b039290921691909117905550565b606061080e8383604051806060016040528060278152602001610be16027913961085e565b9392505050565b90565b6108218161075a565b6040516001600160a01b038216907fbc7cd75a20ee27fd9adebab32041f755214dbc6bffa90cc0225b39da2e5c2d3b90600090a250565b3b151590565b606061086984610858565b6108a45760405162461bcd60e51b8152600401808060200182810382526026815260200180610c086026913960400191505060405180910390fd5b600080856001600160a01b0316856040518082805190602001908083835b602083106108e15780518252601f1990920191602091820191016108c2565b6001836020036101000a038019825116818451168082178552505050505050905001915050600060405180830381855af49150503d8060008114610941576040519150601f19603f3d011682016040523d82523d6000602084013e610946565b606091505b5091509150610956828286610960565b9695505050505050565b6060831561096f57508161080e565b82511561097f5782518084602001fd5b8160405162461bcd60e51b81526004018080602001828103825283818151815260200191508051906020019080838360005b838110156109c95781810151838201526020016109b1565b50505050905090810190601f1680156109f65780820380516001836020036101000a031916815260200191505b509250505060405180910390fd5b80356001600160a01b03811681146103c557600080fd5b600060208284031215610a2c578081fd5b61080e82610a04565b60008060408385031215610a47578081fd5b610a5083610a04565b915060208084013567ffffffffffffffff80821115610a6d578384fd5b818601915086601f830112610a80578384fd5b813581811115610a8c57fe5b604051601f8201601f1916810185018381118282101715610aa957fe5b6040528181528382018501891015610abf578586fd5b81858501868301378585838301015280955050505050509250929050565b600060208284031215610aee578081fd5b81356001600160f81b03198116811461080e578182fd5b600060208284031215610b16578081fd5b81356001600160e01b03198116811461080e578182fd5b6001600160a01b0391909116815260200190565b6001600160f81b031991909116815260200190565b602080825260149082015273556e617574686f72697a6564207570677261646560601b60408201526060019056fe45524331393637557067726164653a207570677261646520627265616b732066757274686572207570677261646573455243313936373a206e657720696d706c656d656e746174696f6e206973206e6f74206120636f6e7472616374416464726573733a206c6f772d6c6576656c2064656c65676174652063616c6c206661696c6564416464726573733a2064656c65676174652063616c6c20746f206e6f6e2d636f6e7472616374a2646970667358221220c7667c581daf84551713d69288c9ac6efcda623c3cbdd8db21522b9a68bc03ec64736f6c63430007060033","bytecodeSha1":"3cac555fe26eb3a74e563b4012d5b58af489f6b5","type":"contract","abi":[{"inputs":[{"internalType":"address","name":"views_","type":"address"},{"internalType":"address","name":"liquidateCurrency_","type":"address"},{"internalType":"address","name":"liquidatefCash_","type":"address"}],"stateMutability":"nonpayable","type":"constructor","name":"constructor"},{"anonymous":false,"inputs":[{"indexed":false,"internalType":"address","name":"previousAdmin","type":"address"},{"indexed":false,"internalType":"address","name":"newAdmin","type":"address"}],"name":"AdminChanged","type":"event"},{"anonymous":false,"inputs":[{"indexed":true,"internalType":"address","name":"beacon","type":"address"}],"name":"BeaconUpgraded","type":"event"},{"anonymous":false,"inputs":[{"indexed":true,"internalType":"address","name":"implementation","type":"address"}],"name":"Upgraded","type":"event"},{"stateMutability":"payable","type":"fallback"},{"inputs":[],"name":"LIQUIDATE_CURRENCY","outputs":[{"internalType":"address","name":"","type":"address"}],"stateMutability":"view","type":"function"},{"inputs":[],"name":"LIQUIDATE_FCASH","outputs":[{"internalType":"address","name":"","type":"address"}],"stateMutability":"view","type":"function"},{"inputs":[],"name":"VIEWS","outputs":[{"internalType":"address","name":"","type":"address"}],"stateMutability":"view","type":"function"},{"inputs":[],"name":"getLiquidationEnabledState","outputs":[{"internalType":"bytes1","name":"","type":"bytes1"}],"stateMutability":"view","type":"function"},{"inputs":[{"internalType":"bytes4","name":"sig","type":"bytes4"}],"name":"getRouterImplementation","outputs":[{"internalType":"address","name":"","type":"address"}],"stateMutability":"view","type":"function"},{"inputs":[],"name":"owner","outputs":[{"internalType":"address","name":"","type":"address"}],"stateMutability":"view","type":"function"},{"inputs":[],"name":"pauseGuardian","outputs":[{"internalType":"address","name":"","type":"address"}],"stateMutability":"view","type":"function"},{"inputs":[],"name":"pauseRouter","outputs":[{"internalType":"address","name":"","type":"address"}],"stateMutability":"view","type":"function"},{"inputs":[{"internalType":"bytes1","name":"liquidationEnabledState_","type":"bytes1"}],"name":"setLiquidationEnabledState","outputs":[],"stateMutability":"nonpayable","type":"function"},{"inputs":[{"internalType":"address","name":"newImplementation","type":"address"}],"name":"upgradeTo","outputs":[],"stateMutability":"nonpayable","type":"function"},{"inputs":[{"internalType":"address","name":"newImplementation","type":"address"},{"internalType":"bytes","name":"data","type":"bytes"}],"name":"upgradeToAndCall","outputs":[],"stateMutability":"payable","type":"function"}],"compiler":{"version":"0.7.6+commit.7338295f","evm_version":"istanbul","optimizer":{"enabled":true,"runs":200}},"contractName":"PauseRouter","language":"Solidity","natspec":{"methods":{"getLiquidationEnabledState()":{"notice":"Shows the current state of which liquidations are enabled","returns":{"_0":"the current liquidation enable state as a bitmap"}},"upgradeTo(address)":{"details":"Upgrade the implementation of the proxy to `newImplementation`. Calls {_authorizeUpgrade}. Emits an {Upgraded} event."},"upgradeToAndCall(address,bytes)":{"details":"Upgrade the implementation of the proxy to `newImplementation`, and subsequently execute the function call encoded in `data`. Calls {_authorizeUpgrade}. Emits an {Upgraded} event."},"setLiquidationEnabledState(bytes1)":{"notice":"Sets a new liquidation enable state, only the owner or the guardian may do so"}},"kind":"dev","notice":"Read only version of the Router that can only be upgraded by governance. Used in emergency when the system must be paused for some reason.","version":1},"opcodes":"PUSH1 0x80 PUSH1 0x40 MSTORE PUSH1 0x4 CALLDATASIZE LT PUSH2 0x9C JUMPI PUSH1 0x0 CALLDATALOAD PUSH1 0xE0 SHR DUP1 PUSH4 0x3659CFE6 GT PUSH2 0x64 JUMPI DUP1 PUSH4 0x3659CFE6 EQ PUSH2 0x145 JUMPI DUP1 PUSH4 0x4F1EF286 EQ PUSH2 0x165 JUMPI DUP1 PUSH4 0x76E1DF48 EQ PUSH2 0x178 JUMPI DUP1 PUSH4 0x82463367 EQ PUSH2 0x198 JUMPI DUP1 PUSH4 0x8DA5CB5B EQ PUSH2 0x1AD JUMPI DUP1 PUSH4 0xF98650B6 EQ PUSH2 0x1C2 JUMPI PUSH2 0x9C JUMP JUMPDEST DUP1 PUSH4 0xC4E7935 EQ PUSH2 0xBB JUMPI DUP1 PUSH4 0x206109B5 EQ PUSH2 0xE6 JUMPI DUP1 PUSH4 0x24A3D622 EQ PUSH2 0xFB JUMPI DUP1 PUSH4 0x2BE75895 EQ PUSH2 0x110 JUMPI DUP1 PUSH4 0x2D5EC198 EQ PUSH2 0x125 JUMPI JUMPDEST PUSH2 0xB9 PUSH2 0xB4 PUSH1 0x0 CALLDATALOAD PUSH1 0x1 PUSH1 0x1 PUSH1 0xE0 SHL SUB NOT AND PUSH2 0x1E4 JUMP JUMPDEST PUSH2 0x3CA JUMP JUMPDEST STOP JUMPDEST CALLVALUE DUP1 ISZERO PUSH2 0xC7 JUMPI PUSH1 0x0 DUP1 REVERT JUMPDEST POP PUSH2 0xD0 PUSH2 0x3EE JUMP JUMPDEST PUSH1 0x40 MLOAD PUSH2 0xDD SWAP2 SWAP1 PUSH2 0xB2D JUMP JUMPDEST PUSH1 0x40 MLOAD DUP1 SWAP2 SUB SWAP1 RETURN JUMPDEST CALLVALUE DUP1 ISZERO PUSH2 0xF2 JUMPI PUSH1 0x0 DUP1 REVERT JUMPDEST POP PUSH2 0xD0 PUSH2 0x412 JUMP JUMPDEST CALLVALUE DUP1 ISZERO PUSH2 0x107 JUMPI PUSH1 0x0 DUP1 REVERT JUMPDEST POP PUSH2 0xD0 PUSH2 0x436 JUMP JUMPDEST CALLVALUE DUP1 ISZERO PUSH2 0x11C JUMPI PUSH1 0x0 DUP1 REVERT JUMPDEST POP PUSH2 0xD0 PUSH2 0x445 JUMP JUMPDEST CALLVALUE DUP1 ISZERO PUSH2 0x131 JUMPI PUSH1 0x0 DUP1 REVERT JUMPDEST POP PUSH2 0xB9 PUSH2 0x140 CALLDATASIZE PUSH1 0x4 PUSH2 0xADD JUMP JUMPDEST PUSH2 0x469 JUMP JUMPDEST CALLVALUE DUP1 ISZERO PUSH2 0x151 JUMPI PUSH1 0x0 DUP1 REVERT JUMPDEST POP PUSH2 0xB9 PUSH2 0x160 CALLDATASIZE PUSH1 0x4 PUSH2 0xA1B JUMP JUMPDEST PUSH2 0x4BC JUMP JUMPDEST PUSH2 0xB9 PUSH2 0x173 CALLDATASIZE PUSH1 0x4 PUSH2 0xA35 JUMP JUMPDEST PUSH2 0x4E3 JUMP JUMPDEST CALLVALUE DUP1 ISZERO PUSH2 0x184 JUMPI PUSH1 0x0 DUP1 REVERT JUMPDEST POP PUSH2 0xD0 PUSH2 0x193 CALLDATASIZE PUSH1 0x4 PUSH2 0xB05 JUMP JUMPDEST PUSH2 0x1E4 JUMP JUMPDEST CALLVALUE DUP1 ISZERO PUSH2 0x1A4 JUMPI PUSH1 0x0 DUP1 REVERT JUMPDEST POP PUSH2 0xD0 PUSH2 0x4FC JUMP JUMPDEST CALLVALUE DUP1 ISZERO PUSH2 0x1B9 JUMPI PUSH1 0x0 DUP1 REVERT JUMPDEST POP PUSH2 0xD0 PUSH2 0x50B JUMP JUMPDEST CALLVALUE DUP1 ISZERO PUSH2 0x1CE JUMPI PUSH1 0x0 DUP1 REVERT JUMPDEST POP PUSH2 0x1D7 PUSH2 0x522 JUMP JUMPDEST PUSH1 0x40 MLOAD PUSH2 0xDD SWAP2 SWAP1 PUSH2 0xB41 JUMP JUMPDEST PUSH1 0x0 PUSH1 0x1 PUSH1 0x1 PUSH1 0xE0 SHL SUB NOT DUP3 AND PUSH4 0x9A600EEB PUSH1 0xE0 SHL EQ DUP1 PUSH2 0x215 JUMPI POP PUSH1 0x1 PUSH1 0x1 PUSH1 0xE0 SHL SUB NOT DUP3 AND PUSH4 0x6633AF39 PUSH1 0xE0 SHL EQ JUMPDEST DUP1 ISZERO PUSH2 0x229 JUMPI POP PUSH2 0x229 PUSH1 0x1 PUSH1 0xF9 SHL PUSH2 0x531 JUMP JUMPDEST ISZERO PUSH2 0x255 JUMPI POP PUSH32 0x0 PUSH2 0x3C5 JUMP JUMPDEST PUSH1 0x1 PUSH1 0x1 PUSH1 0xE0 SHL SUB NOT DUP3 AND PUSH4 0xE3E7CB4F PUSH1 0xE0 SHL EQ DUP1 PUSH2 0x284 JUMPI POP PUSH1 0x1 PUSH1 0x1 PUSH1 0xE0 SHL SUB NOT DUP3 AND PUSH4 0x2D10E6EB PUSH1 0xE0 SHL EQ JUMPDEST DUP1 ISZERO PUSH2 0x298 JUMPI POP PUSH2 0x298 PUSH1 0x1 PUSH1 0xF8 SHL PUSH2 0x531 JUMP JUMPDEST ISZERO PUSH2 0x2C4 JUMPI POP PUSH32 0x0 PUSH2 0x3C5 JUMP JUMPDEST PUSH1 0x1 PUSH1 0x1 PUSH1 0xE0 SHL SUB NOT DUP3 AND PUSH4 0x1FF7AEFD PUSH1 0xE2 SHL EQ DUP1 PUSH2 0x2F3 JUMPI POP PUSH1 0x1 PUSH1 0x1 PUSH1 0xE0 SHL SUB NOT DUP3 AND PUSH4 0xFB281D9 PUSH1 0xE0 SHL EQ JUMPDEST DUP1 ISZERO PUSH2 0x307 JUMPI POP PUSH2 0x307 PUSH1 0x1 PUSH1 0xFA SHL PUSH2 0x531 JUMP JUMPDEST ISZERO PUSH2 0x333 JUMPI POP PUSH32 0x0 PUSH2 0x3C5 JUMP JUMPDEST PUSH1 0x1 PUSH1 0x1 PUSH1 0xE0 SHL SUB NOT DUP3 AND PUSH4 0xE816469D PUSH1 0xE0 SHL EQ DUP1 PUSH2 0x362 JUMPI POP PUSH1 0x1 PUSH1 0x1 PUSH1 0xE0 SHL SUB NOT DUP3 AND PUSH4 0xFA37E395 PUSH1 0xE0 SHL EQ JUMPDEST DUP1 ISZERO PUSH2 0x376 JUMPI POP PUSH2 0x376 PUSH1 0x1 PUSH1 0xFB SHL PUSH2 0x531 JUMP JUMPDEST ISZERO PUSH2 0x3A2 JUMPI POP PUSH32 0x0 PUSH2 0x3C5 JUMP JUMPDEST POP PUSH32 0x0 JUMPDEST SWAP2 SWAP1 POP JUMP JUMPDEST CALLDATASIZE PUSH1 0x0 DUP1 CALLDATACOPY PUSH1 0x0 DUP1 CALLDATASIZE PUSH1 0x0 DUP5 GAS DELEGATECALL RETURNDATASIZE PUSH1 0x0 DUP1 RETURNDATACOPY DUP1 DUP1 ISZERO PUSH2 0x3E9 JUMPI RETURNDATASIZE PUSH1 0x0 RETURN JUMPDEST RETURNDATASIZE PUSH1 0x0 REVERT JUMPDEST PUSH32 0x0 DUP2 JUMP JUMPDEST PUSH32 0x0 DUP2 JUMP JUMPDEST PUSH1 0x2 SLOAD PUSH1 0x1 PUSH1 0x1 PUSH1 0xA0 SHL SUB AND DUP2 JUMP JUMPDEST PUSH32 0x0 DUP2 JUMP JUMPDEST PUSH1 0x0 SLOAD PUSH5 0x100000000 SWAP1 DIV PUSH1 0x1 PUSH1 0x1 PUSH1 0xA0 SHL SUB AND CALLER EQ DUP1 PUSH2 0x494 JUMPI POP PUSH1 0x2 SLOAD PUSH1 0x1 PUSH1 0x1 PUSH1 0xA0 SHL SUB AND CALLER EQ JUMPDEST PUSH2 0x49D JUMPI PUSH1 0x0 DUP1 REVERT JUMPDEST PUSH1 0x0 DUP1 SLOAD PUSH1 0xF8 SWAP3 SWAP1 SWAP3 SHR PUSH3 0x10000 MUL PUSH3 0xFF0000 NOT SWAP1 SWAP3 AND SWAP2 SWAP1 SWAP2 OR SWAP1 SSTORE JUMP JUMPDEST PUSH2 0x4C5 DUP2 PUSH2 0x554 JUMP JUMPDEST PUSH2 0x4E0 DUP2 PUSH1 0x40 MLOAD DUP1 PUSH1 0x20 ADD PUSH1 0x40 MSTORE DUP1 PUSH1 0x0 DUP2 MSTORE POP PUSH1 0x0 PUSH2 0x5ED JUMP JUMPDEST POP JUMP JUMPDEST PUSH2 0x4EC DUP3 PUSH2 0x554 JUMP JUMPDEST PUSH2 0x4F8 DUP3 DUP3 PUSH1 0x1 PUSH2 0x5ED JUMP JUMPDEST POP POP JUMP JUMPDEST PUSH1 0x1 SLOAD PUSH1 0x1 PUSH1 0x1 PUSH1 0xA0 SHL SUB AND DUP2 JUMP JUMPDEST PUSH1 0x0 SLOAD PUSH5 0x100000000 SWAP1 DIV PUSH1 0x1 PUSH1 0x1 PUSH1 0xA0 SHL SUB AND DUP2 JUMP JUMPDEST PUSH1 0x0 SLOAD PUSH3 0x10000 SWAP1 DIV PUSH1 0xF8 SHL SWAP1 JUMP JUMPDEST PUSH1 0x0 SLOAD PUSH3 0x10000 SWAP1 DIV PUSH1 0xF8 SHL DUP2 AND PUSH1 0x1 PUSH1 0x1 PUSH1 0xF8 SHL SUB NOT SWAP1 DUP2 AND SWAP1 DUP3 AND EQ SWAP2 SWAP1 POP JUMP JUMPDEST PUSH1 0x3 SLOAD PUSH1 0x0 SWAP1 PUSH1 0x1 PUSH1 0x1 PUSH1 0xA0 SHL SUB AND ISZERO DUP1 ISZERO SWAP1 PUSH2 0x57E JUMPI POP PUSH1 0x3 SLOAD PUSH1 0x1 PUSH1 0x1 PUSH1 0xA0 SHL SUB DUP4 DUP2 AND SWAP2 AND EQ JUMPDEST PUSH1 0x0 SLOAD SWAP1 SWAP2 POP PUSH5 0x100000000 SWAP1 DIV PUSH1 0x1 PUSH1 0x1 PUSH1 0xA0 SHL SUB AND CALLER EQ DUP1 PUSH2 0x5B4 JUMPI POP PUSH1 0x2 SLOAD PUSH1 0x1 PUSH1 0x1 PUSH1 0xA0 SHL SUB AND CALLER EQ DUP1 ISZERO PUSH2 0x5B4 JUMPI POP DUP1 JUMPDEST PUSH2 0x5D9 JUMPI PUSH1 0x40 MLOAD PUSH3 0x461BCD PUSH1 0xE5 SHL DUP2 MSTORE PUSH1 0x4 ADD PUSH2 0x5D0 SWAP1 PUSH2 0xB56 JUMP JUMPDEST PUSH1 0x40 MLOAD DUP1 SWAP2 SUB SWAP1 REVERT JUMPDEST POP POP PUSH1 0x3 DUP1 SLOAD PUSH1 0x1 PUSH1 0x1 PUSH1 0xA0 SHL SUB NOT AND SWAP1 SSTORE JUMP JUMPDEST PUSH1 0x0 PUSH2 0x5F7 PUSH2 0x720 JUMP JUMPDEST SWAP1 POP PUSH2 0x602 DUP5 PUSH2 0x75A JUMP JUMPDEST PUSH1 0x0 DUP4 MLOAD GT DUP1 PUSH2 0x60F JUMPI POP DUP2 JUMPDEST ISZERO PUSH2 0x620 JUMPI PUSH2 0x61E DUP5 DUP5 PUSH2 0x7E9 JUMP JUMPDEST POP JUMPDEST PUSH1 0x0 PUSH2 0x64B PUSH32 0x4910FDFA16FED3260ED0E7147F7CC6DA11A60208B5B9406D12A635614FFD9143 PUSH2 0x815 JUMP JUMPDEST DUP1 SLOAD SWAP1 SWAP2 POP PUSH1 0xFF AND PUSH2 0x719 JUMPI DUP1 SLOAD PUSH1 0xFF NOT AND PUSH1 0x1 OR DUP2 SSTORE PUSH1 0x40 DUP1 MLOAD PUSH1 0x1 PUSH1 0x1 PUSH1 0xA0 SHL SUB DUP5 AND PUSH1 0x24 DUP1 DUP4 ADD SWAP2 SWAP1 SWAP2 MSTORE DUP3 MLOAD DUP1 DUP4 SUB SWAP1 SWAP2 ADD DUP2 MSTORE PUSH1 0x44 SWAP1 SWAP2 ADD SWAP1 SWAP2 MSTORE PUSH1 0x20 DUP2 ADD DUP1 MLOAD PUSH1 0x1 PUSH1 0x1 PUSH1 0xE0 SHL SUB AND PUSH4 0x1B2CE7F3 PUSH1 0xE1 SHL OR SWAP1 MSTORE PUSH2 0x6B0 SWAP1 DUP7 SWAP1 PUSH2 0x7E9 JUMP JUMPDEST POP DUP1 SLOAD PUSH1 0xFF NOT AND DUP2 SSTORE PUSH2 0x6C1 PUSH2 0x720 JUMP JUMPDEST PUSH1 0x1 PUSH1 0x1 PUSH1 0xA0 SHL SUB AND DUP3 PUSH1 0x1 PUSH1 0x1 PUSH1 0xA0 SHL SUB AND EQ PUSH2 0x710 JUMPI PUSH1 0x40 MLOAD PUSH3 0x461BCD PUSH1 0xE5 SHL DUP2 MSTORE PUSH1 0x4 ADD DUP1 DUP1 PUSH1 0x20 ADD DUP3 DUP2 SUB DUP3 MSTORE PUSH1 0x2F DUP2 MSTORE PUSH1 0x20 ADD DUP1 PUSH2 0xB85 PUSH1 0x2F SWAP2 CODECOPY PUSH1 0x40 ADD SWAP2 POP POP PUSH1 0x40 MLOAD DUP1 SWAP2 SUB SWAP1 REVERT JUMPDEST PUSH2 0x719 DUP6 PUSH2 0x818 JUMP JUMPDEST POP POP POP POP POP JUMP JUMPDEST PUSH1 0x0 PUSH2 0x74B PUSH32 0x360894A13BA1A3210667C828492DB98DCA3E2076CC3735A920A3CA505D382BBC PUSH2 0x815 JUMP JUMPDEST SLOAD PUSH1 0x1 PUSH1 0x1 PUSH1 0xA0 SHL SUB AND SWAP1 POP SWAP1 JUMP JUMPDEST PUSH2 0x763 DUP2 PUSH2 0x858 JUMP JUMPDEST PUSH2 0x79E JUMPI PUSH1 0x40 MLOAD PUSH3 0x461BCD PUSH1 0xE5 SHL DUP2 MSTORE PUSH1 0x4 ADD DUP1 DUP1 PUSH1 0x20 ADD DUP3 DUP2 SUB DUP3 MSTORE PUSH1 0x2D DUP2 MSTORE PUSH1 0x20 ADD DUP1 PUSH2 0xBB4 PUSH1 0x2D SWAP2 CODECOPY PUSH1 0x40 ADD SWAP2 POP POP PUSH1 0x40 MLOAD DUP1 SWAP2 SUB SWAP1 REVERT JUMPDEST DUP1 PUSH2 0x7C8 PUSH32 0x360894A13BA1A3210667C828492DB98DCA3E2076CC3735A920A3CA505D382BBC PUSH2 0x815 JUMP JUMPDEST DUP1 SLOAD PUSH1 0x1 PUSH1 0x1 PUSH1 0xA0 SHL SUB NOT AND PUSH1 0x1 PUSH1 0x1 PUSH1 0xA0 SHL SUB SWAP3 SWAP1 SWAP3 AND SWAP2 SWAP1 SWAP2 OR SWAP1 SSTORE POP JUMP JUMPDEST PUSH1 0x60 PUSH2 0x80E DUP4 DUP4 PUSH1 0x40 MLOAD DUP1 PUSH1 0x60 ADD PUSH1 0x40 MSTORE DUP1 PUSH1 0x27 DUP2 MSTORE PUSH1 0x20 ADD PUSH2 0xBE1 PUSH1 0x27 SWAP2 CODECOPY PUSH2 0x85E JUMP JUMPDEST SWAP4 SWAP3 POP POP POP JUMP JUMPDEST SWAP1 JUMP JUMPDEST PUSH2 0x821 DUP2 PUSH2 0x75A JUMP JUMPDEST PUSH1 0x40 MLOAD PUSH1 0x1 PUSH1 0x1 PUSH1 0xA0 SHL SUB DUP3 AND SWAP1 PUSH32 0xBC7CD75A20EE27FD9ADEBAB32041F755214DBC6BFFA90CC0225B39DA2E5C2D3B SWAP1 PUSH1 0x0 SWAP1 LOG2 POP JUMP JUMPDEST EXTCODESIZE ISZERO ISZERO SWAP1 JUMP JUMPDEST PUSH1 0x60 PUSH2 0x869 DUP5 PUSH2 0x858 JUMP JUMPDEST PUSH2 0x8A4 JUMPI PUSH1 0x40 MLOAD PUSH3 0x461BCD PUSH1 0xE5 SHL DUP2 MSTORE PUSH1 0x4 ADD DUP1 DUP1 PUSH1 0x20 ADD DUP3 DUP2 SUB DUP3 MSTORE PUSH1 0x26 DUP2 MSTORE PUSH1 0x20 ADD DUP1 PUSH2 0xC08 PUSH1 0x26 SWAP2 CODECOPY PUSH1 0x40 ADD SWAP2 POP POP PUSH1 0x40 MLOAD DUP1 SWAP2 SUB SWAP1 REVERT JUMPDEST PUSH1 0x0 DUP1 DUP6 PUSH1 0x1 PUSH1 0x1 PUSH1 0xA0 SHL SUB AND DUP6 PUSH1 0x40 MLOAD DUP1 DUP3 DUP1 MLOAD SWAP1 PUSH1 0x20 ADD SWAP1 DUP1 DUP4 DUP4 JUMPDEST PUSH1 0x20 DUP4 LT PUSH2 0x8E1 JUMPI DUP1 MLOAD DUP3 MSTORE PUSH1 0x1F NOT SWAP1 SWAP3 ADD SWAP2 PUSH1 0x20 SWAP2 DUP3 ADD SWAP2 ADD PUSH2 0x8C2 JUMP JUMPDEST PUSH1 0x1 DUP4 PUSH1 0x20 SUB PUSH2 0x100 EXP SUB DUP1 NOT DUP3 MLOAD AND DUP2 DUP5 MLOAD AND DUP1 DUP3 OR DUP6 MSTORE POP POP POP POP POP POP SWAP1 POP ADD SWAP2 POP POP PUSH1 0x0 PUSH1 0x40 MLOAD DUP1 DUP4 SUB DUP2 DUP6 GAS DELEGATECALL SWAP2 POP POP RETURNDATASIZE DUP1 PUSH1 0x0 DUP2 EQ PUSH2 0x941 JUMPI PUSH1 0x40 MLOAD SWAP2 POP PUSH1 0x1F NOT PUSH1 0x3F RETURNDATASIZE ADD AND DUP3 ADD PUSH1 0x40 MSTORE RETURNDATASIZE DUP3 MSTORE RETURNDATASIZE PUSH1 0x0 PUSH1 0x20 DUP5 ADD RETURNDATACOPY PUSH2 0x946 JUMP JUMPDEST PUSH1 0x60 SWAP2 POP JUMPDEST POP SWAP2 POP SWAP2 POP PUSH2 0x956 DUP3 DUP3 DUP7 PUSH2 0x960 JUMP JUMPDEST SWAP7 SWAP6 POP POP POP POP POP POP JUMP JUMPDEST PUSH1 0x60 DUP4 ISZERO PUSH2 0x96F JUMPI POP DUP2 PUSH2 0x80E JUMP JUMPDEST DUP3 MLOAD ISZERO PUSH2 0x97F JUMPI DUP3 MLOAD DUP1 DUP5 PUSH1 0x20 ADD REVERT JUMPDEST DUP2 PUSH1 0x40 MLOAD PUSH3 0x461BCD PUSH1 0xE5 SHL DUP2 MSTORE PUSH1 0x4 ADD DUP1 DUP1 PUSH1 0x20 ADD DUP3 DUP2 SUB DUP3 MSTORE DUP4 DUP2 DUP2 MLOAD DUP2 MSTORE PUSH1 0x20 ADD SWAP2 POP DUP1 MLOAD SWAP1 PUSH1 0x20 ADD SWAP1 DUP1 DUP4 DUP4 PUSH1 0x0 JUMPDEST DUP4 DUP2 LT ISZERO PUSH2 0x9C9 JUMPI DUP2 DUP2 ADD MLOAD DUP4 DUP3 ADD MSTORE PUSH1 0x20 ADD PUSH2 0x9B1 JUMP JUMPDEST POP POP POP POP SWAP1 POP SWAP1 DUP2 ADD SWAP1 PUSH1 0x1F AND DUP1 ISZERO PUSH2 0x9F6 JUMPI DUP1 DUP3 SUB DUP1 MLOAD PUSH1 0x1 DUP4 PUSH1 0x20 SUB PUSH2 0x100 EXP SUB NOT AND DUP2 MSTORE PUSH1 0x20 ADD SWAP2 POP JUMPDEST POP SWAP3 POP POP POP PUSH1 0x40 MLOAD DUP1 SWAP2 SUB SWAP1 REVERT JUMPDEST DUP1 CALLDATALOAD PUSH1 0x1 PUSH1 0x1 PUSH1 0xA0 SHL SUB DUP2 AND DUP2 EQ PUSH2 0x3C5 JUMPI PUSH1 0x0 DUP1 REVERT JUMPDEST PUSH1 0x0 PUSH1 0x20 DUP3 DUP5 SUB SLT ISZERO PUSH2 0xA2C JUMPI DUP1 DUP2 REVERT JUMPDEST PUSH2 0x80E DUP3 PUSH2 0xA04 JUMP JUMPDEST PUSH1 0x0 DUP1 PUSH1 0x40 DUP4 DUP6 SUB SLT ISZERO PUSH2 0xA47 JUMPI DUP1 DUP2 REVERT JUMPDEST PUSH2 0xA50 DUP4 PUSH2 0xA04 JUMP JUMPDEST SWAP2 POP PUSH1 0x20 DUP1 DUP5 ADD CALLDATALOAD PUSH8 0xFFFFFFFFFFFFFFFF DUP1 DUP3 GT ISZERO PUSH2 0xA6D JUMPI DUP4 DUP5 REVERT JUMPDEST DUP2 DUP7 ADD SWAP2 POP DUP7 PUSH1 0x1F DUP4 ADD SLT PUSH2 0xA80 JUMPI DUP4 DUP5 REVERT JUMPDEST DUP2 CALLDATALOAD DUP2 DUP2 GT ISZERO PUSH2 0xA8C JUMPI INVALID JUMPDEST PUSH1 0x40 MLOAD PUSH1 0x1F DUP3 ADD PUSH1 0x1F NOT AND DUP2 ADD DUP6 ADD DUP4 DUP2 GT DUP3 DUP3 LT OR ISZERO PUSH2 0xAA9 JUMPI INVALID JUMPDEST PUSH1 0x40 MSTORE DUP2 DUP2 MSTORE DUP4 DUP3 ADD DUP6 ADD DUP10 LT ISZERO PUSH2 0xABF JUMPI DUP6 DUP7 REVERT JUMPDEST DUP2 DUP6 DUP6 ADD DUP7 DUP4 ADD CALLDATACOPY DUP6 DUP6 DUP4 DUP4 ADD ADD MSTORE DUP1 SWAP6 POP POP POP POP POP POP SWAP3 POP SWAP3 SWAP1 POP JUMP JUMPDEST PUSH1 0x0 PUSH1 0x20 DUP3 DUP5 SUB SLT ISZERO PUSH2 0xAEE JUMPI DUP1 DUP2 REVERT JUMPDEST DUP2 CALLDATALOAD PUSH1 0x1 PUSH1 0x1 PUSH1 0xF8 SHL SUB NOT DUP2 AND DUP2 EQ PUSH2 0x80E JUMPI DUP2 DUP3 REVERT JUMPDEST PUSH1 0x0 PUSH1 0x20 DUP3 DUP5 SUB SLT ISZERO PUSH2 0xB16 JUMPI DUP1 DUP2 REVERT JUMPDEST DUP2 CALLDATALOAD PUSH1 0x1 PUSH1 0x1 PUSH1 0xE0 SHL SUB NOT DUP2 AND DUP2 EQ PUSH2 0x80E JUMPI DUP2 DUP3 REVERT JUMPDEST PUSH1 0x1 PUSH1 0x1 PUSH1 0xA0 SHL SUB SWAP2 SWAP1 SWAP2 AND DUP2 MSTORE PUSH1 0x20 ADD SWAP1 JUMP JUMPDEST PUSH1 0x1 PUSH1 0x1 PUSH1 0xF8 SHL SUB NOT SWAP2 SWAP1 SWAP2 AND DUP2 MSTORE PUSH1 0x20 ADD SWAP1 JUMP JUMPDEST PUSH1 0x20 DUP1 DUP3 MSTORE PUSH1 0x14 SWAP1 DUP3 ADD MSTORE PUSH20 0x556E617574686F72697A65642075706772616465 PUSH1 0x60 SHL PUSH1 0x40 DUP3 ADD MSTORE PUSH1 0x60 ADD SWAP1 JUMP INVALID GASLIMIT MSTORE NUMBER BALANCE CODECOPY CALLDATASIZE CALLDATACOPY SSTORE PUSH17 0x67726164653A2075706772616465206272 PUSH6 0x616B73206675 PUSH19 0x74686572207570677261646573455243313936 CALLDATACOPY GASPRICE KECCAK256 PUSH15 0x657720696D706C656D656E74617469 PUSH16 0x6E206973206E6F74206120636F6E7472 PUSH2 0x6374 COINBASE PUSH5 0x6472657373 GASPRICE KECCAK256 PUSH13 0x6F772D6C6576656C2064656C65 PUSH8 0x6174652063616C6C KECCAK256 PUSH7 0x61696C65644164 PUSH5 0x726573733A KECCAK256 PUSH5 0x656C656761 PUSH21 0x652063616C6C20746F206E6F6E2D636F6E74726163 PUSH21 0xA2646970667358221220C7667C581DAF84551713D6 SWAP3 DUP9 0xC9 0xAC PUSH15 0xFCDA623C3CBDD8DB21522B9A68BC03 0xEC PUSH5 0x736F6C6343 STOP SMOD MOD STOP CALLER ","sha1":"51bfb971a6e211ced24b1b0b3c721e57d5957cbd","source":"// SPDX-License-Identifier: GPL-3.0-only\npragma solidity ^0.7.0;\npragma abicoder v2;\n\nimport \"../global/StorageLayoutV1.sol\";\nimport \"../global/Constants.sol\";\nimport \"../proxy/utils/UUPSUpgradeable.sol\";\nimport \"../../interfaces/notional/NotionalProxy.sol\";\n\n/**\n * Read only version of the Router that can only be upgraded by governance. Used in emergency when the system must\n * be paused for some reason.\n */\ncontract PauseRouter is StorageLayoutV1, UUPSUpgradeable {\n    address public immutable VIEWS;\n    address public immutable LIQUIDATE_CURRENCY;\n    address public immutable LIQUIDATE_FCASH;\n\n    constructor(\n        address views_,\n        address liquidateCurrency_,\n        address liquidatefCash_\n    ) {\n        VIEWS = views_;\n        LIQUIDATE_CURRENCY = liquidateCurrency_;\n        LIQUIDATE_FCASH = liquidatefCash_;\n    }\n\n    /// @dev Internal method will be called during an UUPS upgrade, must return true to\n    /// authorize the upgrade. The UUPS check does a rollback check during the upgrade and\n    /// therefore we use the `rollbackRouterImplementation` to authorize the pauseGuardian\n    /// during this check. See GovernanceAction._authorizeUpgrade for where the rollbackRouterImplementation\n    /// storage slot is set.\n    function _authorizeUpgrade(address newImplementation) internal override {\n        // This is only true during a rollback check when the pause router is downgraded\n        bool isRollbackCheck = rollbackRouterImplementation != address(0) &&\n            newImplementation == rollbackRouterImplementation;\n\n        require(\n            owner == msg.sender || (msg.sender == pauseGuardian && isRollbackCheck),\n            \"Unauthorized upgrade\"\n        );\n\n        // Clear this storage slot so the guardian cannot upgrade back to the previous router,\n        // requires governance to do so.\n        rollbackRouterImplementation = address(0);\n    }\n\n    /// @notice Shows the current state of which liquidations are enabled\n    /// @return the current liquidation enable state as a bitmap\n    function getLiquidationEnabledState() external view returns (bytes1) {\n        return liquidationEnabledState;\n    }\n\n    /// @notice Sets a new liquidation enable state, only the owner or the guardian may do so\n    function setLiquidationEnabledState(bytes1 liquidationEnabledState_) external {\n        // Only authorized addresses can set the liquidation state\n        require(owner == msg.sender || msg.sender == pauseGuardian);\n        liquidationEnabledState = liquidationEnabledState_;\n    }\n\n    function isEnabled(bytes1 state) private view returns (bool) {\n        return (liquidationEnabledState & state == state);\n    }\n\n    function getRouterImplementation(bytes4 sig) public view returns (address) {\n        // Liquidation calculation methods are stateful (they settle accounts if required)\n        // and therefore we prevent them from being called unless specifically authorized.\n        if (\n            (sig == NotionalProxy.calculateCollateralCurrencyLiquidation.selector ||\n                sig == NotionalProxy.liquidateCollateralCurrency.selector) &&\n            isEnabled(Constants.COLLATERAL_CURRENCY_ENABLED)\n        ) {\n            return LIQUIDATE_CURRENCY;\n        }\n\n        if (\n            (sig == NotionalProxy.calculateLocalCurrencyLiquidation.selector ||\n                sig == NotionalProxy.liquidateLocalCurrency.selector) &&\n            isEnabled(Constants.LOCAL_CURRENCY_ENABLED)\n        ) {\n            return LIQUIDATE_CURRENCY;\n        }\n\n        if (\n            (sig == NotionalProxy.liquidatefCashLocal.selector ||\n                sig == NotionalProxy.calculatefCashLocalLiquidation.selector) &&\n            isEnabled(Constants.LOCAL_FCASH_ENABLED)\n        ) {\n            return LIQUIDATE_FCASH;\n        }\n\n        if (\n            (sig == NotionalProxy.liquidatefCashCrossCurrency.selector ||\n                sig == NotionalProxy.calculatefCashCrossCurrencyLiquidation.selector) &&\n            isEnabled(Constants.CROSS_CURRENCY_FCASH_ENABLED)\n        ) {\n            return LIQUIDATE_FCASH;\n        }\n\n        // If not found then delegate to views. This will revert if there is no method on\n        // the view contract\n        return VIEWS;\n    }\n\n    /// @dev Delegates the current call to `implementation`.\n    /// This function does not return to its internal call site, it will return directly to the external caller.\n    function _delegate(address implementation) private {\n        // solhint-disable-next-line no-inline-assembly\n        assembly {\n            // Copy msg.data. We take full control of memory in this inline assembly\n            // block because it will not return to Solidity code. We overwrite the\n            // Solidity scratch pad at memory position 0.\n            calldatacopy(0, 0, calldatasize())\n\n            // Call the implementation.\n            // out and outsize are 0 because we don't know the size yet.\n            let result := delegatecall(gas(), implementation, 0, calldatasize(), 0, 0)\n\n            // Copy the returned data.\n            returndatacopy(0, 0, returndatasize())\n\n            switch result\n            // delegatecall returns 0 on error.\n            case 0 {\n                revert(0, returndatasize())\n            }\n            default {\n                return(0, returndatasize())\n            }\n        }\n    }\n\n    fallback() external payable {\n        _delegate(getRouterImplementation(msg.sig));\n    }\n}\n","sourcePath":"contracts/external/PauseRouter.sol","deployment":{"address":"0x8151F75A74a43A790EF71ac9F4d20e92F203028d","chainid":"5","blockHeight":6439078}}