{"abi":[{"anonymous":false,"inputs":[{"indexed":false,"internalType":"uint16","name":"currencyId","type":"uint16"}],"name":"MarketsInitialized","type":"event"},{"anonymous":false,"inputs":[{"indexed":false,"internalType":"uint16","name":"currencyId","type":"uint16"},{"indexed":false,"internalType":"int256","name":"cashIntoMarkets","type":"int256"}],"name":"SweepCashIntoMarkets","type":"event"},{"inputs":[],"name":"getLibInfo","outputs":[{"internalType":"address","name":"","type":"address"}],"stateMutability":"pure","type":"function"}],"bytecode":"6153cc610026600b82828239805160001a60731461001957fe5b30600052607381538281f3fe730000000000000000000000000000000000000000301460806040526004361061004b5760003560e01c8063bb6dd58e14610050578063c4c96dae14610072578063d0e064c014610090575b600080fd5b81801561005c57600080fd5b5061007061006b366004614f87565b6100b0565b005b61007a61029d565b6040516100879190614fdb565b60405180910390f35b81801561009c57600080fd5b506100706100ab366004614fa1565b6102b5565b426100b9614dcc565b6100c38184610731565b602081015151516100ef5760405162461bcd60e51b81526004016100e69061513e565b60405180910390fd5b60006100fa8361074a565b905080826080015110156101205760405162461bcd60e51b81526004016100e690615084565b60a0820151608083015160009161013e919060021a610e100261076d565b905080841161015f5760405162461bcd60e51b81526004016100e690614fef565b6040805160008082526020820190925261019d90859083610196565b610183614e15565b81526020019060019003908161017b5790505b50876107d0565b905060006101b882866060015161090d90919063ffffffff16565b60c08601518651519192506101d19161ffff1684610929565b604051632128561360e11b815273__nTokenMintAction______________________90634250ac269061020a908a908590600401615361565b60206040518083038186803b15801561022257600080fd5b505af4158015610236573d6000803e3d6000fd5b505050506040513d601f19601f8201168201806040525081019061025a9190614f6f565b507f120b36bd1b47ae64f0f3ea6eb0fbfba209b2c780a31864e382d9957377a9f946878260405161028c929190615361565b60405180910390a150505050505050565b73__nTokenMintAction______________________90565b426102be614dcc565b6102c88185610731565b80516020015160009067ffffffffffffffff811180156102e757600080fd5b5060405190808252806020026020018201604052801561032157816020015b61030e614e15565b8152602001906001900390816103065790505b508251602001519091506103475760405162461bcd60e51b81526004016100e6906152d7565b83156103715760208201515151156103715760405162461bcd60e51b81526004016100e690615227565b60006103848383868961ffff168961094c565b9050600061039e8761ffff168560000151602001516109de565b90506103a8614e15565b6000805b8651602001518110156106a1576103d76103c882600101610a1a565b6103d18a61074a565b9061076d565b60208401528351805160009161040a91889190859081106103f457fe5b602002602001015184600260ff1601878c610abe565b905060006104258a8660200151610b2390919063ffffffff16565b895190915060009061043b906001860184610b80565b90508b806104555750836001148015610455575088516002145b80610466575060208a015151518410155b80610494575083600114801561049457508860028151811061048457fe5b602002602001015160c001516000145b156105155760006104bc84896060015187815181106104af57fe5b6020026020010151610bf2565b9050808760400181815250506104ec8185848b6040015189815181106104de57fe5b602002602001015187610c0f565b60c0880181905261050f5760405162461bcd60e51b81526004016100e690615307565b5061067d565b8361053a578860018151811061052757fe5b602002602001015160c001519450610597565b836001141561055c57610555896105508d61074a565b610c39565b9450610597565b600061057361056a86610a1a565b6103d18e61074a565b905061059381878c888151811061058657fe5b6020026020010151610cd2565b9550505b60006105bc8684848b6040015189815181106105af57fe5b6020026020010151610d69565b9050876020015185815181106105ce57fe5b602002602001015181131561064857876020015185815181106105ed57fe5b602002602001015190506106018482610bf2565b876040018181525050610624876040015185848b6040015189815181106104de57fe5b9550856106435760405162461bcd60e51b81526004016100e690615056565b610658565b6106528482610bf2565b60408801525b60018760400151121561066d57600160408801525b5060c0860185905260e086018b90525b60c086015160a08701526106968661ffff8f168c610e0b565b5050506001016103ac565b5060006106bf8760c001518860200151610e5490919063ffffffff16565b50925050506106db8760c001518b61ffff168960600151610929565b6106ee8760c00151828960800151611093565b7fcffeff9accc9171f01fec36e09a1a06f0160ce50a8c4c0a2adff9cec562adf088a60405161071d9190615352565b60405180910390a150505050505050505050565b61073b8282611106565b610744816111a9565b90915250565b60006276a70082101561075c57600080fd5b6276a700825b06820390505b919050565b6000828201838110156107c7576040805162461bcd60e51b815260206004820152601b60248201527f536166654d6174683a206164646974696f6e206f766572666c6f770000000000604482015290519081900360640190fd5b90505b92915050565b6000806107ed8560c0015186600001516000015161ffff166111cc565b60a0860151855191925060011a620f424002906000901561081a57610815856276a700610b23565b61081c565b845b9050600061082984611201565b90505b80156108ef576000610842896080015183611226565b905060006108598a6000015160200151838a6112d9565b9050806108cf5760c08a01518a51516000916108799161ffff168561137e565b905060008112156108cd578a516000906108949085886113c3565b9050808711156108a6575060006108b3565b6108b08188610b23565b90505b6108c96108c283868d856114a2565b8a906114e8565b9850505b505b6108db868460006114fe565b95506108e686611201565b9250505061082c565b8751604001516108ff9086611549565b9450505050505b9392505050565b600061091983836114e8565b905060008112156107ca57600080fd5b600081121561093757600080fd5b610947838383600080600061157a565b505050565b6000806000831561097157610960866116bc565b64ffffffffff166080890152610996565b61097b88876116d8565b61098785878a8a6117b2565b61099388888789611842565b90505b60608801516109a5908261090d565b6060890182905291506305f5e10082136109d15760405162461bcd60e51b81526004016100e6906151f8565b5090505b95945050505050565b6109e6614e5d565b6109ee614e5d565b6109f884846118cb565b60208301528152610a098484611903565b606083015260408201529392505050565b60008160011415610a2f57506276a700610768565b8160021415610a42575062ed4e00610768565b8160031415610a5657506301da9c00610768565b8160041415610a6a57506303b53800610768565b8160051415610a7e57506309450c00610768565b8160061415610a92575063128a1800610768565b8160071415610aa657506325143000610768565b60405162461bcd60e51b81526004016100e6906150ea565b600080610ad96305f5e100610ad3898961192d565b9061197b565b606085018190526080850181905283515160208087015190860151929350610b08929161ffff169088856119ac565b825160400151610b189082611aa9565b979650505050505050565b600082821115610b7a576040805162461bcd60e51b815260206004820152601e60248201527f536166654d6174683a207375627472616374696f6e206f766572666c6f770000604482015290519081900360640190fd5b50900390565b600082600111158015610b97575083602001518311155b610ba057600080fd5b606084015160806008600019860102019060ff90821c16633b9aca00026000610bd9610bcb86611ad4565b610ad3846301da9c0061192d565b905060008113610be857600080fd5b9695505050505050565b60006107c7610c05633b9aca00846114e8565b610ad3858561192d565b600080610c1c8484611aee565b90506000610c2d8888888588611b59565b98975050505050505050565b6000600383511015610c5d5760405162461bcd60e51b81526004016100e690615111565b6107c783600181518110610c6d57fe5b60200260200101516020015184600281518110610c8657fe5b60200260200101516020015185600181518110610c9f57fe5b602002602001015160c0015186600281518110610cb857fe5b602090810291909101015160c0015162ed4e008701611c16565b602081015160c0820151600091906276a7008201828710610d055760405162461bcd60e51b81526004016100e690615191565b858210610d3457610d2a866103d1898603610d248387038c8703611c74565b90611ccd565b9350505050610906565b6000610d4a888503610d24858a038b8603611c74565b9050808711610d5a576001610d5e565b8087035b945050505050610906565b600080610d768386611aee565b90506000610d848787611aee565b90506000610da4610d9f87610d9985876114e8565b90611d34565b611d4d565b9050610db681621dcd6560491b611d80565b9050610dc181611dd3565b90506000610ddc82610dd784600160401b611e28565b611d80565b9050610dee81621dcd6560491b611e5b565b9050610df981611e91565b60070b9450505050505b949350505050565b60006276a700610e1a4261074a565b019050610e28848483611e9a565b610e4d8260c001518486602001518560800151610e488960400151611f01565b611f0f565b5050505050565b6000808080808080805b895151811015610ee55760008a600001518281518110610e7a57fe5b60200260200101519050600380811115610e9057fe5b8160a001516003811115610ea057fe5b1415610eab57600080fd5b60028160a001516003811115610ebd57fe5b14158015610ecd57506060810151155b15610edc57610edc8b83612079565b50600101610e5e565b5060005b895151811015610f885760008a600001518281518110610f0557fe5b6020026020010151905060026003811115610f1c57fe5b8160a001516003811115610f2c57fe5b1415610f4057608081015160009055610f7f565b60018160a001516003811115610f5257fe5b1415610f6b57608081015180610f6883826121c9565b50505b610f77818686866122f2565b919650945092505b50600101610ee9565b5060608901516000610f98612355565b6001600160a01b038b1660009081526020829052604081209192505b8c60200151518110156110625760008d602001518281518110610fd357fe5b60200260200101519050806060015160001415610ff0575061105a565b60028160a00151600381111561100257fe5b14158015611020575060038160a00151600381111561101d57fe5b14155b61102957600080fd5b611035818989896122f2565b919950975095506110528184876010811061104c57fe5b016121c9565b600185019450505b600101610fb4565b5060108311158015611079575064ffffffffff8411155b61108257600080fd5b50939a929950975095509350505050565b63ffffffff81106110a357600080fd5b60006110ad612362565b6001600160a01b039094166000908152602094909452506040909220805460ff909216600160501b0260ff60501b1963ffffffff909416600160301b0269ffffffff000000000000199093169290921792909216179055565b6111138161ffff1661236f565b6001600160a01b031660c083018190526000908190819061113390612395565b9450945094505050600061114a8660c001516123fe565b505060808701859052604087018190526001600160d81b0319831660a088015260c087015190915061117e9084600061245f565b602087015260c08601516111969061ffff87166124f2565b5050506060909601959095525050505050565b6111b1614e85565b60006111c08361ffff1661259b565b905061090683826125e7565b6000806111d761262a565b6001600160a01b038516600090815260209182526040808220868352909252205491505092915050565b60008161121057506000610768565b61121982612637565b60ff036001019050919050565b60008161123257600080fd5b61010082111561124157600080fd5b600061124c846116bc565b90506000605a841161126757506201518083020190506107ca565b6087841161128f575060591983016207e900908102908206909103016276a7000190506107ca565b60c384116112b85750608619830162278d00908102908206909103016301da9c000190506107ca565b5060c21983016276a70090810290820690910301630b1fa8000190506107ca565b60008084116112fa5760405162461bcd60e51b81526004016100e6906150bb565b600784111561131b5760405162461bcd60e51b81526004016100e6906151c8565b6276a70083061561132e57506000610906565b60006113398361074a565b905060015b8581116113725761135861135182610a1a565b839061076d565b85141561136a57600192505050610906565b60010161133e565b50600095945050505050565b6000806113896126d0565b6001600160a01b03861660009081526020918252604080822087835283528082208683529092522054600f90810b900b9150509392505050565b60008060006113d7866020015186866126dd565b9150915060006113e6876127a5565b9050816113ff578651610d2a9061ffff168783886127b9565b600061140a8661074a565b9050600061141a61135186610a1a565b905060006114328a6000015161ffff1683868b6127b9565b90506000808760011415611457578991506114508c60400151612858565b9050611486565b61146d61146660018a03610a1a565b869061076d565b91506114838c6000015161ffff1683888d6127b9565b90505b611493828583868f611c16565b98505050505050505050610906565b6000846114b157506000610e03565b60006114bd8585610b23565b905060006114cb82856128e9565b9050633b9aca008113156114de57600080fd5b610b188782611d34565b808203828113156000831215146107ca57600080fd5b60006001831015801561151357506101008311155b61151c57600080fd5b81156115355750600160ff1b60001983011c8317610906565b50600160ff1b60001983011c198316610906565b600080610e038460200151610ad386604001516115746402540be4008861192d90919063ffffffff16565b9061192d565b6000611584612951565b6001600160a01b0388166000908152602082815260408083208a845290915290209091506001600160571b031986128015906115c757506001600160571b038613155b6115d057600080fd5b600085121580156115e857506001600160501b038513155b6115f157600080fd5b836116315766ffffffffffffff83111561160a57600080fd5b805466ffffffffffffff60701b1916600160701b66ffffffffffffff85160217815561164b565b8054600160501b900463ffffffff16841461164b57600080fd5b8054600a9690960b6affffffffffffffffffffff16600160a81b026001600160a81b036001600160501b0390961669ffffffffffffffffffff1963ffffffff909616600160501b0263ffffffff60501b19909816979097179490941695909517939093169190911790925550505050565b6000620151808210156116ce57600080fd5b6201518082610762565b60006116e38261074a565b9050808360800151106117085760405162461bcd60e51b81526004016100e690615253565b600061171884602001518461295e565b90506117498160008151811061172a57fe5b6020026020010151602001518560600151612b5c90919063ffffffff16565b60608501525060c0830151835151608085015160009283926117729261ffff9091169087612b72565b606087015191935091506117869083612b5c565b606086015264ffffffffff81111561179d57600080fd5b64ffffffffff16608090940193909352505050565b60006117c183600001516127a5565b905060006117ce8561074a565b905060015b60208501515151811015611839576118318786602001516000015183815181106117f957fe5b60200260200101516020015188600087878a888151811061181657fe5b6020026020010151612c97909695949392919063ffffffff16565b6001016117d3565b50505050505050565b600060015b602086015151518110156118bf576000866020015160000151828151811061186b57fe5b60200260200101519050600160ff1681604001511461188957600080fd5b6118a68760c001518683602001518a608001518560600151611f0f565b5060208701516118b69083612079565b50600101611847565b506109d58585846107d0565b60608060006118d8612cce565b60008681526020829052604081209192506118f69082908790612cdb565b9097909650945050505050565b6060806000611910612e7a565b60008681526020829052604090209091506118f681866001612cdb565b81810260001983141561195d5781158061194f57508282828161194c57fe5b05145b61195857600080fd5b6107ca565b82158061197257508183828161196f57fe5b05145b6107ca57600080fd5b6000816000191480156119915750600160ff1b83145b1561199b57600080fd5b8183816119a457fe5b059392505050565b84516119bb9085858585612e87565b156119c557610e4d565b6040850151156119f25760006119e2866020015186868686612e87565b905080156119f05750610e4d565b505b6119fb82612f98565b15611a0e576000811215611a0e57600080fd5b6001600160571b03198112801590611a2d57506001600160571b038113155b611a3657600080fd5b84602001515185604001511415611a5a57611a548560200151612fae565b60208601525b60008560200151866040015181518110611a7057fe5b6020908102919091018101519586528501939093526040808501929092526060840152600060a090930192909252500180516001019052565b600080610e038460400151610ad36402540be400610ad387896020015161192d90919063ffffffff16565b60006001600160ff1b03821115611aea57600080fd5b5090565b600080611b0b611b066301da9c00610d248787611c74565b613067565b90506000611b1f82621dcd6560491b611d80565b90506000611b2c82611dd3565b90506000611b4082621dcd6560491b611e5b565b9050611b4b81611e91565b60070b979650505050505050565b6000806000611b6c88888888600061307e565b9150915080611b80576000925050506109d5565b6000611b8b83611d4d565b90506000611b9f82621dcd6560491b611d80565b90506000611bac82613134565b90506000611bc8611bc383621dcd6560491b611e5b565b61316e565b67ffffffffffffffff1690506000611be889610d24846301da9c00611c74565b905063ffffffff811115611c065760009750505050505050506109d5565b9c9b505050505050505050505050565b6000818610611c2457600080fd5b848210611c3057600080fd5b838310611c5657611c4f846103d1888803610d248388038b8803611c74565b90506109d5565b611c4f611c6d878703610d248688038a8703611c74565b8590610b23565b600082611c83575060006107ca565b82820282848281611c9057fe5b04146107c75760405162461bcd60e51b81526004018080602001828103825260218152602001806153766021913960400191505060405180910390fd5b6000808211611d23576040805162461bcd60e51b815260206004820152601a60248201527f536166654d6174683a206469766973696f6e206279207a65726f000000000000604482015290519081900360640190fd5b818381611d2c57fe5b049392505050565b60006107c7611d43848461192d565b633b9aca0061197b565b6000677fffffffffffffff198212158015611d705750677fffffffffffffff8213155b611d7957600080fd5b5060401b90565b600081600f0b60001415611d9357600080fd5b600082600f0b604085600f0b901b81611da857fe5b05905060016001607f1b03198112801590611dca575060016001607f1b038113155b6107c757600080fd5b6000600160461b82600f0b12611de857600080fd5b683fffffffffffffffff1982600f0b1215611e0557506000610768565b6107ca608083600f0b700171547652b82fe1777d0ffda0d23a7d1202901d61318a565b6000600f83810b9083900b0160016001607f1b03198112801590611dca575060016001607f1b038113156107c757600080fd5b6000600f83810b9083900b0260401d60016001607f1b03198112801590611dca575060016001607f1b038113156107c757600080fd5b600f0b60401d90565b6000611ea4613c38565b60008481526020828152604080832088830151845282528083208684529091529081902090860151606087015160a088015160c089015160e08a01519596509394611ef3948694939291613c45565b610e4d818660800151613d59565b60006107ca6000198361192d565b600080611f1c87876111cc565b90506000611f286126d0565b6001600160a01b0389166000908152602082815260408083208b845282528083208a8452909152812091925080611f5f888a613da2565b9150915080611f6d57600080fd5b611f778583613ead565b15612006578254600090611f93908990600f90810b900b612b5c565b905060016001607f1b03198112801590611fb4575060016001607f1b038113155b611fbd57600080fd5b83546001600160801b0319166001600160801b03600f83900b1617845580611fee57611feb868460006114fe565b95505b611ff98c8c88613edd565b95506109d5945050505050565b861561206a5760016001607f1b0319871280159061202b575060016001607f1b038713155b61203457600080fd5b82546001600160801b0319166001600160801b03600f89900b1617835561205d858360016114fe565b945061206a8b8b87613edd565b50949998505050505050505050565b815151811061208757600080fd5b600082606001511161209857600080fd5b6000826000015182815181106120aa57fe5b60200260200101519050600260038111156120c157fe5b8160a0015160038111156120d157fe5b141580156120ef575060038160a0015160038111156120ec57fe5b14155b6120f857600080fd5b606083018051600019019052600080805b85515181101561216b5760008660000151828151811061212557fe5b60200260200101519050828160800151118015612152575060028160a00151600381111561214f57fe5b14155b1561216257806080015192508193505b50600101612109565b5081841415612184575050600260a091909101526121c5565b60008560000151838151811061219657fe5b602090810291909101015160808581018051918301805190915252600160a09182015260029401939093525050505b5050565b8151158015906121dc57508151613fff10155b6121e557600080fd5b816020015160001080156122025750602082015164ffffffffff10155b61220b57600080fd5b8160400151600010801561222457506040820151600810155b61222d57600080fd5b60608201516001600160571b031913801590612254575060608201516001600160571b0312155b61225d57600080fd5b8151815460208401516040850151606090950151600a0b6affffffffffffffffffffff16600160401b0272ffffffffffffffffffffff00000000000000001960ff909616600160381b0267ff000000000000001964ffffffffff909316620100000266ffffffffff00001961ffff90961661ffff19909516949094179490941692909217169190911792909216919091179055565b60008060008061230188613f37565b905084158061230f57508085115b15612318578094505b8680612328575060008860600151125b965061ffff86161561233957600080fd5b50509451939560109390931c60f09490941b9390931793509150565b6000806107ca600d613f9e565b6000806107ca6002613f9e565b60008061237a613fb7565b6000938452602052505060409020546001600160a01b031690565b6000806000806000806123a6612362565b6001600160a01b039097166000908152602097909752505060409094205461ffff81169563ffffffff62010000830481169650600160301b830416945060ff600160501b8304169350600160581b90910460d81b9150565b60008060008061240c613fc4565b6001600160a01b0395909516600090815260209590955250506040909220546bffffffffffffffffffffffff811693600160601b82046001600160801b03169350600160e01b90910463ffffffff169150565b612467614eb1565b61246f614eb1565b60ff841661247e579050610906565b6124888585613fd1565b815260ff841660608201528267ffffffffffffffff811180156124aa57600080fd5b506040519080825280602002602001820160405280156124e457816020015b6124d1614ed9565b8152602001906001900390816124c95790505b506020820152949350505050565b6000806000806000612502612951565b6001600160a01b0388166000908152602082815260408083208a8452909152902080546001600160501b0381169650600160501b900463ffffffff169450909150831561256b57805461256490600160701b900466ffffffffffffff16613ffa565b9250612580565b8054600160701b900466ffffffffffffff1692505b54600160a81b9004600a90810b900b97939650919450925050565b6125a3614f19565b60008060006125b185614008565b604080516060810182526001600160a01b039093168352602083019390935260ff16600a0a918101919091529350505050919050565b6125ef614e85565b60006125fe8461ffff166140cb565b6040805160808101825261ffff96909616865260ff821660208701528501939093525050606082015290565b6000806107ca600b613f9e565b60008161264357600080fd5b600160801b821061265657608091821c91015b600160401b821061266957604091821c91015b640100000000821061267d57602091821c91015b62010000821061268f57601091821c91015b61010082106126a057600891821c91015b601082106126b057600491821c91015b600482106126c057600291821c91015b6002821061076857600101919050565b6000806107ca600c613f9e565b600080600085116127005760405162461bcd60e51b81526004016100e6906150bb565b60078511156127215760405162461bcd60e51b81526004016100e6906151c8565b600061272c8461074a565b905060015b86811161278457600061274d61274683610a1a565b849061076d565b905086811415612765575092506000915061279d9050565b8681111561277b575092506001915061279d9050565b50600101612731565b5060405162461bcd60e51b81526004016100e6906152aa565b935093915050565b6060015161012c60089190911c60ff160290565b6000806127c4613c38565b905060006276a7006127d58561074a565b6000898152602085815260408083208b84528252808320949093018083529390522080549192509063ffffffff600160a01b8204811691600160c01b8104821691600160e01b909104168161283c5760405162461bcd60e51b81526004016100e690615026565b6128498184848c8c6140e8565b9b9a5050505050505050505050565b80516000906001600160a01b031661287257506000610768565b600082600001516001600160a01b031663dd30a6666040518163ffffffff1660e01b815260040160206040518083038186803b1580156128b157600080fd5b505afa1580156128c5573d6000803e3d6000fd5b505050506040513d601f19601f820116820180604052508101906107c79190614f6f565b600080612901611b066301da9c00610d248688611c74565b905061291381621dcd6560491b611d80565b90506129266129218261417b565b611dd3565b905061293881621dcd6560491b611e5b565b9050600061294582611e91565b60070b95945050505050565b6000806107ca6006613f9e565b6060612968614f19565b6000612974858561419d565b905061297e614e15565b815161298e575091506107ca9050565b6000805b875151811015612b50576000886000015182815181106129ae57fe5b6020026020010151905060006129c382613f37565b9050888111156129d4575050612b48565b81600001518685815181106129e557fe5b60200260200101516000015114612a1a576001840193508160000151868581518110612a0d57fe5b6020908102919091010151525b604082015160009060011415612a6757612a3d836000015184602001518c6142c2565b9750612a5683606001518961154990919063ffffffff16565b9050612a628b85612079565b612afe565b612a748360400151612f98565b15612afe57612a8d868460000151856020015185614432565b6000612aa684606001518861444690919063ffffffff16565b602086015191935091508b1015612ac757612ac28c86836144ee565b612afc565b612ada846000015185602001518d6142c2565b9850612af0612ae98a83611549565b8390612b5c565b9150612afc8c86612079565b505b612b2881888781518110612b0e57fe5b602002602001015160200151612b5c90919063ffffffff16565b878681518110612b3457fe5b602002602001015160200181815250505050505b600101612992565b50919695505050505050565b818101828112156000831215146107ca57600080fd5b6000806000612b8187876111cc565b9050612b8c846116bc565b915084821015612b9b57600080fd5b6000612ba78684613da2565b50905080612bb6575050612c8e565b6000612bc183611201565b90505b8015801590612bd35750818111155b15612c1d576000612be48883611226565b9050612bfc612bf58b8b848b6145a4565b8790612b5c565b9550612c0a848360006114fe565b9350612c1584611201565b915050612bc4565b60005b8115612c7e576000612c328984611226565b9050600080612c418884613da2565b9150915080612c4f57600080fd5b612c5b848360016114fe565b9350612c69878660006114fe565b9650612c7487611201565b9450505050612c20565b612c898a8a83613edd565b505050505b94509492505050565b612ca4878787868561463f565b612cbd8760e001518860a001518960c0015185886140e8565b60c090970196909652505050505050565b6000806107ca6004613f9e565b6060806000808567ffffffffffffffff81118015612cf857600080fd5b50604051908082528060200260200182016040528015612d22578160200160208202803683370190505b50905060008667ffffffffffffffff81118015612d3e57600080fd5b50604051908082528060200260200182016040528015612d68578160200160208202803683370190505b50905060005b87811015612e6c578884600e8110612d8257fe5b600891828204019190066004029054906101000a900463ffffffff1663ffffffff16838281518110612db057fe5b60209081029190910101526001909301928884600e8110612dcd57fe5b600891828204019190066004029054906101000a900463ffffffff1663ffffffff16828281518110612dfb57fe5b60209081029190910101526001909301928615612e64576000838281518110612e2057fe5b6020026020010151138015612e4857506000828281518110612e3e57fe5b6020026020010151135b612e645760405162461bcd60e51b81526004016100e69061527d565b600101612d6e565b509097909650945050505050565b6000806107ca6005613f9e565b6000805b8651811015612f8b576000878281518110612ea257fe5b60200260200101519050848160400151141580612ec0575080518714155b80612ecf575085816020015114155b15612eda5750612f83565b60028160a001516003811115612eec57fe5b14158015612f0a575060038160a001516003811115612f0757fe5b14155b612f1357600080fd5b6060810151600090612f259086612b5c565b9050612f3086612f98565b15612f43576000811215612f4357600080fd5b6001600160571b03198112801590612f6257506001600160571b038113155b612f6b57600080fd5b6060820152600160a090910181905291506109d59050565b600101612e8b565b5060009695505050505050565b6000600282108015906107ca5750506008101590565b606060008251600014612fc5578251600202612fc8565b60015b905060008167ffffffffffffffff81118015612fe357600080fd5b5060405190808252806020026020018201604052801561301d57816020015b61300a614ed9565b8152602001906001900390816130025790505b50905060005b845181101561305f5784818151811061303857fe5b602002602001015182828151811061304c57fe5b6020908102919091010152600101613023565b509392505050565b6000677fffffffffffffff821115611d7957600080fd5b6000808061308c888561090d565b905060006130a461309d8a8a612b5c565b83906146fa565b9050633b0233808113156130c05760008093509350505061312a565b6000806130cc83614713565b91509150806130e557600080955095505050505061312a565b60006130fb896130f5858d6146fa565b90612b5c565b9050633b9aca0081121561311a5760008096509650505050505061312a565b95506001945061312a9350505050565b9550959350505050565b60008082600f0b1361314557600080fd5b6080613150836147b5565b600f0b6fb17217f7d1cf79abc9e3b39803f2f6af02901c9050919050565b60008082600f0b121561318057600080fd5b50600f0b60401d90565b6000600160461b82600f0b1261319f57600080fd5b683fffffffffffffffff1982600f0b12156131bc57506000610768565b6001607f1b60006001603f1b8416600f0b13156131ea5770016a09e667f3bcc908b2fb1366ea957d3e0260801c5b60008367400000000000000016600f0b1315613217577001306fe0a31b7152de8d5a46305c85edec0260801c5b60008367200000000000000016600f0b1315613244577001172b83c7d517adcdf7c8c50eb14a791f0260801c5b60008367100000000000000016600f0b13156132715770010b5586cf9890f6298b92b71842a983630260801c5b60008367080000000000000016600f0b131561329e577001059b0d31585743ae7c548eb68ca417fd0260801c5b60008367040000000000000016600f0b13156132cb57700102c9a3e778060ee6f7caca4f7a29bde80260801c5b60008367020000000000000016600f0b13156132f85770010163da9fb33356d84a66ae336dcdfa3f0260801c5b600083600160381b16600f0b131561332157700100b1afa5abcbed6129ab13ec11dc95430260801c5b600083668000000000000016600f0b131561334d5770010058c86da1c09ea1ff19d294cf2f679b0260801c5b600083664000000000000016600f0b1315613379577001002c605e2e8cec506d21bfc89a23a00f0260801c5b600083662000000000000016600f0b13156133a557700100162f3904051fa128bca9c55c31e5df0260801c5b600083661000000000000016600f0b13156133d1577001000b175effdc76ba38e31671ca9397250260801c5b600083660800000000000016600f0b13156133fd57700100058ba01fb9f96d6cacd4b180917c3d0260801c5b600083660400000000000016600f0b13156134295770010002c5cc37da9491d0985c348c68e7b30260801c5b600083660200000000000016600f0b1315613455577001000162e525ee054754457d59952920260260801c5b600083600160301b16600f0b131561347e5770010000b17255775c040618bf4a4ade83fc0260801c5b6000836580000000000016600f0b13156134a9577001000058b91b5bc9ae2eed81e9b7d4cfab0260801c5b6000836540000000000016600f0b13156134d457700100002c5c89d5ec6ca4d7c8acc017b7c90260801c5b6000836520000000000016600f0b13156134ff5770010000162e43f4f831060e02d839a9d16d0260801c5b6000836510000000000016600f0b131561352a57700100000b1721bcfc99d9f890ea069117630260801c5b6000836508000000000016600f0b13156135555770010000058b90cf1e6d97f9ca14dbcc16280260801c5b6000836504000000000016600f0b1315613580577001000002c5c863b73f016468f6bac5ca2b0260801c5b6000836502000000000016600f0b13156135ab57700100000162e430e5a18f6119e3c02282a50260801c5b6000836501000000000016600f0b13156135d6577001000000b1721835514b86e6d96efd1bfe0260801c5b60008364800000000016600f0b131561360057700100000058b90c0b48c6be5df846c5b2ef0260801c5b60008364400000000016600f0b131561362a5770010000002c5c8601cc6b9e94213c72737a0260801c5b60008364200000000016600f0b1315613654577001000000162e42fff037df38aa2b219f060260801c5b60008364100000000016600f0b131561367e5770010000000b17217fba9c739aa5819f44f90260801c5b60008364080000000016600f0b13156136a8577001000000058b90bfcdee5acd3c1cedc8230260801c5b60008364040000000016600f0b13156136d257700100000002c5c85fe31f35a6a30da1be500260801c5b60008364020000000016600f0b13156136fc5770010000000162e42ff0999ce3541b9fffcf0260801c5b60008364010000000016600f0b131561372657700100000000b17217f80f4ef5aadda455540260801c5b600083638000000016600f0b131561374f5770010000000058b90bfbf8479bd5a81b51ad0260801c5b600083634000000016600f0b1315613778577001000000002c5c85fdf84bd62ae30a74cc0260801c5b600083632000000016600f0b13156137a157700100000000162e42fefb2fed257559bdaa0260801c5b600083631000000016600f0b13156137ca577001000000000b17217f7d5a7716bba4a9ae0260801c5b600083630800000016600f0b13156137f357700100000000058b90bfbe9ddbac5e109cce0260801c5b600083630400000016600f0b131561381c5770010000000002c5c85fdf4b15de6f17eb0d0260801c5b600083630200000016600f0b1315613845577001000000000162e42fefa494f1478fde050260801c5b600083630100000016600f0b131561386e5770010000000000b17217f7d20cf927c8e94c0260801c5b6000836280000016600f0b1315613896577001000000000058b90bfbe8f71cb4e4b33d0260801c5b6000836240000016600f0b13156138be57700100000000002c5c85fdf477b662b269450260801c5b6000836220000016600f0b13156138e65770010000000000162e42fefa3ae53369388c0260801c5b6000836210000016600f0b131561390e57700100000000000b17217f7d1d351a389d400260801c5b6000836208000016600f0b13156139365770010000000000058b90bfbe8e8b2d3d4ede0260801c5b6000836204000016600f0b131561395e577001000000000002c5c85fdf4741bea6e77e0260801c5b6000836202000016600f0b131561398657700100000000000162e42fefa39fe95583c20260801c5b6000836201000016600f0b13156139ae577001000000000000b17217f7d1cfb72b45e10260801c5b60008361800016600f0b13156139d557700100000000000058b90bfbe8e7cc35c3f00260801c5b60008361400016600f0b13156139fc5770010000000000002c5c85fdf473e242ea380260801c5b60008361200016600f0b1315613a23577001000000000000162e42fefa39f02b772c0260801c5b60008361100016600f0b1315613a4a5770010000000000000b17217f7d1cf7d83c1a0260801c5b60008361080016600f0b1315613a71577001000000000000058b90bfbe8e7bdcbe2e0260801c5b60008361040016600f0b1315613a9857700100000000000002c5c85fdf473dea871f0260801c5b60008361020016600f0b1315613abf5770010000000000000162e42fefa39ef44d910260801c5b60008361010016600f0b1315613ae657700100000000000000b17217f7d1cf79e9490260801c5b600083608016600f0b1315613b0c5770010000000000000058b90bfbe8e7bce5440260801c5b600083604016600f0b1315613b32577001000000000000002c5c85fdf473de6eca0260801c5b600083602016600f0b1315613b5857700100000000000000162e42fefa39ef366f0260801c5b600083601016600f0b1315613b7e577001000000000000000b17217f7d1cf79afa0260801c5b600083600816600f0b1315613ba457700100000000000000058b90bfbe8e7bcd6d0260801c5b600083600416600f0b1315613bca5770010000000000000002c5c85fdf473de6b20260801c5b600083600216600f0b1315613bf0577001000000000000000162e42fefa39ef3580260801c5b600083600116600f0b1315613c165770010000000000000000b17217f7d1cf79ab0260801c5b600f83810b60401d603f03900b1c60016001607f1b038111156107ca57600080fd5b6000806107ca600a613f9e565b60008512158015613c5d57506001600160501b038513155b613c6657600080fd5b60008412158015613c7e57506001600160501b038413155b613c8757600080fd5b826000108015613c9b575063ffffffff8311155b613ca457600080fd5b816000108015613cb8575063ffffffff8211155b613cc157600080fd5b63ffffffff811115613cd257600080fd5b855469ffffffffffffffffffff19166001600160501b039586161769ffffffffffffffffffff60501b1916600160501b94909516939093029390931763ffffffff60a01b1916600160a01b63ffffffff928316021763ffffffff60c01b1916600160c01b93821693909302929092176001600160e01b0316600160e01b9190921602179055565b60008112158015613d7157506001600160501b038113155b613d7a57600080fd5b600191909101805469ffffffffffffffffffff19166001600160501b03909216919091179055565b6000806000613db0856116bc565b905062015180840615613dca576000809250925050613ea6565b838110613dde576000809250925050613ea6565b6201518081850304605a8111613dfb57925060019150613ea69050565b6101688111613e3a576000620151806207e900840604820160591901905060068104605a0160068281613e2a57fe5b0660001494509450505050613ea6565b6108708111613e6a5760006201518062278d00840604820161016719019050601e8104608701601e8281613e2a57fe5b611de28111613e9a576000620151806276a700840604820161086f19019050605a810460c301605a8281613e2a57fe5b61010060009350935050505b9250929050565b600060018210158015613ec257506101008211155b613ecb57600080fd5b50600019011b600160ff1b9081161490565b6014613ee882614890565b1115613f065760405162461bcd60e51b81526004016100e690615168565b6000613f1061262a565b6001600160a01b039094166000908152602094855260408082209482529390945250912055565b6000808260400151118015613f5157506040820151600810155b613f5a57600080fd5b6040820151600210613f7157506020810151610768565b6000613f836001846040015103610a1a565b6020840151909150610906906276a700906103d19084610b23565b6000620f424082601a811115613fb057fe5b0192915050565b6000806107ca6003613f9e565b6000806107ca6011613f9e565b60606000613fdf8484614960565b90506001815111613ff15790506107ca565b6107c781614a82565b600881901c60ff9091161b90565b600080600080600061401986614c3b565b909250905060006001600160a01b03831661403e5750600090506402540be4006140c0565b826001600160a01b0316631ee108336040518163ffffffff1660e01b8152600401602060405180830381600087803b15801561407957600080fd5b505af115801561408d573d6000803e3d6000fd5b505050506040513d601f19601f820116820180604052508101906140b19190614f6f565b9050600081136140c057600080fd5b969195509350915050565b6000806140d6614c72565b60009384526020525050604090205490565b60008083116140f657600080fd5b818611156141055750836109d5565b60006141118388610b23565b90508381111561412457859150506109d5565b600061413885610d2484633b9aca00611c74565b9050600061414a633b9aca0083610b23565b9050600061416d633b9aca00610d246141638b86611c74565b6103d18d88611c74565b9a9950505050505050505050565b6000600f82900b60016001607f1b0319141561419657600080fd5b5060000390565b81515160609060009081906141e75760408051600080825260208201909252906141dd565b6141ca614f43565b8152602001906001900390816141c25790505b50925050506107ca565b8451515b600019810190156142425760008660000151828151811061420857fe5b602002602001015190508561421c82613f37565b1115614228575061423d565b8051831461423b57805160019094019392505b505b6141eb565b5060008267ffffffffffffffff8111801561425c57600080fd5b5060405190808252806020026020018201604052801561429657816020015b614283614f43565b81526020019060019003908161427b5790505b50905082156109d55781816000815181106142ad57fe5b60209081029190910101515295945050505050565b6142ca614f19565b6000806142d78686614c7f565b9150915081600014156144075760006142ef87614008565b91945090925090506001600160a01b03811615614405576000614310614cc8565b90508560001080156143225750858711155b8015614333575064ffffffffff8611155b61433c57600080fd5b83600012801561435357506001600160801b038413155b61435c57600080fd5b6000888152602082815260408083208a845290915290819020805464ffffffffff191664ffffffffff89161774ffffffffffffffffffffffffffffffff00000000001916650100000000006001600160801b038816021760ff60a81b1916600160a81b60ff871602178155905188908a907f0fdfa6885701e2f1f42e4187b9231cf81c1fe23671ef64fa46f34ddb56c1dc18906143fa90899061533e565b60405180910390a350505b505b6040805160608101825260008152602081019390935260ff909116600a0a9082015290509392505050565b61444084848460018561463f565b50505050565b6000808261445957506000905080613ea6565b6000831361446657600080fd5b6144858460800151610ad385876060015161192d90919063ffffffff16565b91506144a68460800151610ad385876040015161192d90919063ffffffff16565b60808501519091506144b8908461090d565b608085015260408401516144cc908261090d565b604085015260608401516144e0908361090d565b6060850152613ea684614cd5565b60008360000151838151811061450057fe5b602002602001015190508260001461458b5760008460000151600185038151811061452757fe5b602002602001015190508160000151816000015114801561454f575081602001518160200151145b801561455f575060408101516001145b156145895760608101516145739084612b5c565b6060820152600160a08201526145898585612079565b505b600160408201819052606082019290925260a001525050565b6000806145af6126d0565b6001600160a01b0387166000908152602082815260408083208984528252808320888452909152812054919250600f91820b90910b906145f08787876142c2565b90506145fc8183611549565b6001600160a01b03989098166000908152602093845260408082209882529784528781209681529590925250505091902080546001600160801b03191690555090565b6000614649613c38565b6000868152602082815260408083208884528252808320868452825291829020808a5290890187905280546001600160501b03808216938b0193909352600160501b810490921660608a015263ffffffff600160a01b8304811660a08b0152600160c01b8304811660c08b0152600160e01b90920490911660e08901529091508084156146e85760018201546001600160501b031660808901526146f0565b600060808901525b5050505050505050565b60006107c761470d84633b9aca0061192d565b8361197b565b600080633b9aca0083141561472d575060009050806147b0565b6000614747614740633b9aca00866114e8565b85906146fa565b9050600061475482611d4d565b9050600081600f0b1361476f576000809350935050506147b0565b60006147a361479e61479261478385613134565b6814b927f32bffb83338614d2d565b621dcd6560491b611e5b565b611e91565b60070b9450600193505050505b915091565b60008082600f0b136147c657600080fd5b6000600f83900b600160401b81126147e0576040918201911d5b64010000000081126147f4576020918201911d5b620100008112614806576010918201911d5b6101008112614817576008918201911d5b60108112614827576004918201911d5b60048112614837576002918201911d5b60028112614846576001820191505b603f19820160401b600f85900b607f8490031b6001603f1b5b60008113156148855790800260ff81901c8281029390930192607f011c9060011d61485f565b509095945050505050565b600181901c7f5555555555555555555555555555555555555555555555555555555555555555908116911601600281901c7f3333333333333333333333333333333333333333333333333333333333333333908116911601600481901c7f07070707070707070707070707070707070707070707070707070707070707079190911601600881901c7e0f000f000f000f000f000f000f000f000f000f000f000f000f000f000f000f908116911601601081901c01602081901c01604081901c01608081901c60ff90811691160190565b606060108260ff16111561497357600080fd5b600061497d612355565b6001600160a01b038516600090815260208290526040812091925060ff851667ffffffffffffffff811180156149b257600080fd5b506040519080825280602002602001820160405280156149ec57816020015b6149d9614ed9565b8152602001906001900390816149d15790505b50905060005b8560ff16811015614a78576000838260108110614a0b57fe5b0190506000838381518110614a1c57fe5b602090810291909101810151835461ffff8116825264ffffffffff620100008204169282019290925260ff600160381b8304166040820152600160401b909104600a90810b900b606082015260800191909152506001016149f2565b5095945050505050565b805160008167ffffffffffffffff81118015614a9d57600080fd5b50604051908082528060200260200182016040528015614ac7578160200160208202803683370190505b50905060005b82811015614b24576000848281518110614ae357fe5b60200260200101519050614b04816000015182602001518360400151614d60565b838381518110614b1057fe5b602090810291909101015250600101614acd565b5060015b8281101561444057805b600081118015614b6a5750828181518110614b4957fe5b6020026020010151836001830381518110614b6057fe5b6020026020010151115b15614c3257828181518110614b7b57fe5b6020026020010151836001830381518110614b9257fe5b6020026020010151846001840381518110614ba957fe5b60200260200101858481518110614bbc57fe5b6020026020010182815250828152505050848181518110614bd957fe5b6020026020010151856001830381518110614bf057fe5b6020026020010151866001840381518110614c0757fe5b60200260200101878481518110614c1a57fe5b60209081029190910101919091525260001901614b32565b50600101614b28565b6000806000614c48614dbb565b600094855260205250506040909120546001600160a01b03811692600160a01b90910460ff169150565b6000806107ca6009613f9e565b6000806000614c8c614cc8565b6000958652602090815260408087209587529490525050509020546501000000000081046001600160801b031691600160a81b90910460ff1690565b6000806107ca6008613f9e565b6000614ce082614dc8565b905060008160000160189054906101000a900463ffffffff169050614d1f82846040015185606001518660a001518563ffffffff168860e00151613c45565b610947828460800151613d59565b6000600f82810b9084900b0360016001607f1b03198112801590611dca575060016001607f1b038113156107c757600080fd5b6000613fff841115614d7157600080fd5b64ffffffffff831115614d8357600080fd5b6008821115614d9157600080fd5b5067ffff000000000000603084901b1665ffffffffff00600884901b161760ff8216179392505050565b6000806107ca600f613f9e565b5190565b6040518060e00160405280614ddf614e85565b8152602001614dec614eb1565b815260006020820181905260408201819052606082018190526080820181905260a09091015290565b60405180610100016040528060008019168152602001600081526020016000815260200160008152602001600081526020016000815260200160008152602001600081525090565b6040518060800160405280606081526020016060815260200160608152602001606081525090565b6040805160808101825260008082526020820152908101614ea4614f19565b8152600060209091015290565b6040518060800160405280606081526020016060815260200160008152602001600081525090565b6040518060c00160405280600081526020016000815260200160008152602001600081526020016000815260200160006003811115614f1457fe5b905290565b604051806060016040528060006001600160a01b0316815260200160008152602001600081525090565b604051806040016040528060008152602001600081525090565b803561ffff8116811461076857600080fd5b600060208284031215614f80578081fd5b5051919050565b600060208284031215614f98578081fd5b6107c782614f5d565b60008060408385031215614fb3578081fd5b614fbc83614f5d565b915060208301358015158114614fd0578182fd5b809150509250929050565b6001600160a01b0391909116815260200190565b60208082526017908201527f496e76616c696420737765657020636173682074696d65000000000000000000604082015260600190565b60208082526016908201527513585c9ad95d081b9bdd081a5b9a5d1a585b1a5e995960521b604082015260600190565b6020808252601490820152734f7261636c652072617465206f766572666c6f7760601b604082015260600190565b60208082526017908201527f4d75737420696e697469616c697a65206d61726b657473000000000000000000604082015260600190565b60208082526015908201527410d1ce881b9bc81b585c9ad95d1cc81b1a5cdd1959605a1b604082015260600190565b6020808252600d908201526c092dcecc2d8d2c840d2dcc8caf609b1b604082015260600190565b60208082526013908201527224a69d1039b4bc1036b7b73a341032b93937b960691b604082015260600190565b60208082526010908201526f4e6f206e546f6b656e2061737365747360801b604082015260600190565b6020808252600f908201526e4f766572206d61782061737365747360881b604082015260600190565b60208082526017908201527f494d3a20696e746572706f6c6174696f6e206572726f72000000000000000000604082015260600190565b60208082526016908201527510d1ce881b585c9ad95d081a5b99195e08189bdd5b9960521b604082015260600190565b6020808252601590820152740929a7440d2dce6eaccccd2c6d2cadce840c6c2e6d605b1b604082015260600190565b60208082526012908201527112534e881b9bdd08199a5c9cdd081a5b9a5d60721b604082015260600190565b60208082526010908201526f494d3a20696e76616c69642074696d6560801b604082015260600190565b60208082526013908201527250543a20696e69742076616c7565207a65726f60681b604082015260600190565b60208082526013908201527210d1ce881b9bc81b585c9ad95d08199bdd5b99606a1b604082015260600190565b60208082526016908201527512534e881b9bc81b585c9ad95d1cc81d1bc81a5b9a5d60521b604082015260600190565b60208082526017908201527f494d3a20696d706c6965642072617465206661696c6564000000000000000000604082015260600190565b6001600160801b0391909116815260200190565b61ffff91909116815260200190565b61ffff92909216825260208201526040019056fe536166654d6174683a206d756c7469706c69636174696f6e206f766572666c6f77a2646970667358221220b8e49848bef558240b5c1172edd7d0e8b6106c0d04a3028fbb9488b426ee2b4964736f6c63430007060033","bytecodeSha1":"8cac9e11172cd2d982ae9f4f53d7967b37da46b8","compiler":{"evm_version":"istanbul","optimizer":{"enabled":true,"runs":200},"version":"0.7.6+commit.7338295f"},"contractName":"InitializeMarketsAction","deployedBytecode":"730000000000000000000000000000000000000000301460806040526004361061004b5760003560e01c8063bb6dd58e14610050578063c4c96dae14610072578063d0e064c014610090575b600080fd5b81801561005c57600080fd5b5061007061006b366004614f87565b6100b0565b005b61007a61029d565b6040516100879190614fdb565b60405180910390f35b81801561009c57600080fd5b506100706100ab366004614fa1565b6102b5565b426100b9614dcc565b6100c38184610731565b602081015151516100ef5760405162461bcd60e51b81526004016100e69061513e565b60405180910390fd5b60006100fa8361074a565b905080826080015110156101205760405162461bcd60e51b81526004016100e690615084565b60a0820151608083015160009161013e919060021a610e100261076d565b905080841161015f5760405162461bcd60e51b81526004016100e690614fef565b6040805160008082526020820190925261019d90859083610196565b610183614e15565b81526020019060019003908161017b5790505b50876107d0565b905060006101b882866060015161090d90919063ffffffff16565b60c08601518651519192506101d19161ffff1684610929565b604051632128561360e11b815273__$892f367d396be2b92d3b049e6e62920984$__90634250ac269061020a908a908590600401615361565b60206040518083038186803b15801561022257600080fd5b505af4158015610236573d6000803e3d6000fd5b505050506040513d601f19601f8201168201806040525081019061025a9190614f6f565b507f120b36bd1b47ae64f0f3ea6eb0fbfba209b2c780a31864e382d9957377a9f946878260405161028c929190615361565b60405180910390a150505050505050565b73__$892f367d396be2b92d3b049e6e62920984$__90565b426102be614dcc565b6102c88185610731565b80516020015160009067ffffffffffffffff811180156102e757600080fd5b5060405190808252806020026020018201604052801561032157816020015b61030e614e15565b8152602001906001900390816103065790505b508251602001519091506103475760405162461bcd60e51b81526004016100e6906152d7565b83156103715760208201515151156103715760405162461bcd60e51b81526004016100e690615227565b60006103848383868961ffff168961094c565b9050600061039e8761ffff168560000151602001516109de565b90506103a8614e15565b6000805b8651602001518110156106a1576103d76103c882600101610a1a565b6103d18a61074a565b9061076d565b60208401528351805160009161040a91889190859081106103f457fe5b602002602001015184600260ff1601878c610abe565b905060006104258a8660200151610b2390919063ffffffff16565b895190915060009061043b906001860184610b80565b90508b806104555750836001148015610455575088516002145b80610466575060208a015151518410155b80610494575083600114801561049457508860028151811061048457fe5b602002602001015160c001516000145b156105155760006104bc84896060015187815181106104af57fe5b6020026020010151610bf2565b9050808760400181815250506104ec8185848b6040015189815181106104de57fe5b602002602001015187610c0f565b60c0880181905261050f5760405162461bcd60e51b81526004016100e690615307565b5061067d565b8361053a578860018151811061052757fe5b602002602001015160c001519450610597565b836001141561055c57610555896105508d61074a565b610c39565b9450610597565b600061057361056a86610a1a565b6103d18e61074a565b905061059381878c888151811061058657fe5b6020026020010151610cd2565b9550505b60006105bc8684848b6040015189815181106105af57fe5b6020026020010151610d69565b9050876020015185815181106105ce57fe5b602002602001015181131561064857876020015185815181106105ed57fe5b602002602001015190506106018482610bf2565b876040018181525050610624876040015185848b6040015189815181106104de57fe5b9550856106435760405162461bcd60e51b81526004016100e690615056565b610658565b6106528482610bf2565b60408801525b60018760400151121561066d57600160408801525b5060c0860185905260e086018b90525b60c086015160a08701526106968661ffff8f168c610e0b565b5050506001016103ac565b5060006106bf8760c001518860200151610e5490919063ffffffff16565b50925050506106db8760c001518b61ffff168960600151610929565b6106ee8760c00151828960800151611093565b7fcffeff9accc9171f01fec36e09a1a06f0160ce50a8c4c0a2adff9cec562adf088a60405161071d9190615352565b60405180910390a150505050505050505050565b61073b8282611106565b610744816111a9565b90915250565b60006276a70082101561075c57600080fd5b6276a700825b06820390505b919050565b6000828201838110156107c7576040805162461bcd60e51b815260206004820152601b60248201527f536166654d6174683a206164646974696f6e206f766572666c6f770000000000604482015290519081900360640190fd5b90505b92915050565b6000806107ed8560c0015186600001516000015161ffff166111cc565b60a0860151855191925060011a620f424002906000901561081a57610815856276a700610b23565b61081c565b845b9050600061082984611201565b90505b80156108ef576000610842896080015183611226565b905060006108598a6000015160200151838a6112d9565b9050806108cf5760c08a01518a51516000916108799161ffff168561137e565b905060008112156108cd578a516000906108949085886113c3565b9050808711156108a6575060006108b3565b6108b08188610b23565b90505b6108c96108c283868d856114a2565b8a906114e8565b9850505b505b6108db868460006114fe565b95506108e686611201565b9250505061082c565b8751604001516108ff9086611549565b9450505050505b9392505050565b600061091983836114e8565b905060008112156107ca57600080fd5b600081121561093757600080fd5b610947838383600080600061157a565b505050565b6000806000831561097157610960866116bc565b64ffffffffff166080890152610996565b61097b88876116d8565b61098785878a8a6117b2565b61099388888789611842565b90505b60608801516109a5908261090d565b6060890182905291506305f5e10082136109d15760405162461bcd60e51b81526004016100e6906151f8565b5090505b95945050505050565b6109e6614e5d565b6109ee614e5d565b6109f884846118cb565b60208301528152610a098484611903565b606083015260408201529392505050565b60008160011415610a2f57506276a700610768565b8160021415610a42575062ed4e00610768565b8160031415610a5657506301da9c00610768565b8160041415610a6a57506303b53800610768565b8160051415610a7e57506309450c00610768565b8160061415610a92575063128a1800610768565b8160071415610aa657506325143000610768565b60405162461bcd60e51b81526004016100e6906150ea565b600080610ad96305f5e100610ad3898961192d565b9061197b565b606085018190526080850181905283515160208087015190860151929350610b08929161ffff169088856119ac565b825160400151610b189082611aa9565b979650505050505050565b600082821115610b7a576040805162461bcd60e51b815260206004820152601e60248201527f536166654d6174683a207375627472616374696f6e206f766572666c6f770000604482015290519081900360640190fd5b50900390565b600082600111158015610b97575083602001518311155b610ba057600080fd5b606084015160806008600019860102019060ff90821c16633b9aca00026000610bd9610bcb86611ad4565b610ad3846301da9c0061192d565b905060008113610be857600080fd5b9695505050505050565b60006107c7610c05633b9aca00846114e8565b610ad3858561192d565b600080610c1c8484611aee565b90506000610c2d8888888588611b59565b98975050505050505050565b6000600383511015610c5d5760405162461bcd60e51b81526004016100e690615111565b6107c783600181518110610c6d57fe5b60200260200101516020015184600281518110610c8657fe5b60200260200101516020015185600181518110610c9f57fe5b602002602001015160c0015186600281518110610cb857fe5b602090810291909101015160c0015162ed4e008701611c16565b602081015160c0820151600091906276a7008201828710610d055760405162461bcd60e51b81526004016100e690615191565b858210610d3457610d2a866103d1898603610d248387038c8703611c74565b90611ccd565b9350505050610906565b6000610d4a888503610d24858a038b8603611c74565b9050808711610d5a576001610d5e565b8087035b945050505050610906565b600080610d768386611aee565b90506000610d848787611aee565b90506000610da4610d9f87610d9985876114e8565b90611d34565b611d4d565b9050610db681621dcd6560491b611d80565b9050610dc181611dd3565b90506000610ddc82610dd784600160401b611e28565b611d80565b9050610dee81621dcd6560491b611e5b565b9050610df981611e91565b60070b9450505050505b949350505050565b60006276a700610e1a4261074a565b019050610e28848483611e9a565b610e4d8260c001518486602001518560800151610e488960400151611f01565b611f0f565b5050505050565b6000808080808080805b895151811015610ee55760008a600001518281518110610e7a57fe5b60200260200101519050600380811115610e9057fe5b8160a001516003811115610ea057fe5b1415610eab57600080fd5b60028160a001516003811115610ebd57fe5b14158015610ecd57506060810151155b15610edc57610edc8b83612079565b50600101610e5e565b5060005b895151811015610f885760008a600001518281518110610f0557fe5b6020026020010151905060026003811115610f1c57fe5b8160a001516003811115610f2c57fe5b1415610f4057608081015160009055610f7f565b60018160a001516003811115610f5257fe5b1415610f6b57608081015180610f6883826121c9565b50505b610f77818686866122f2565b919650945092505b50600101610ee9565b5060608901516000610f98612355565b6001600160a01b038b1660009081526020829052604081209192505b8c60200151518110156110625760008d602001518281518110610fd357fe5b60200260200101519050806060015160001415610ff0575061105a565b60028160a00151600381111561100257fe5b14158015611020575060038160a00151600381111561101d57fe5b14155b61102957600080fd5b611035818989896122f2565b919950975095506110528184876010811061104c57fe5b016121c9565b600185019450505b600101610fb4565b5060108311158015611079575064ffffffffff8411155b61108257600080fd5b50939a929950975095509350505050565b63ffffffff81106110a357600080fd5b60006110ad612362565b6001600160a01b039094166000908152602094909452506040909220805460ff909216600160501b0260ff60501b1963ffffffff909416600160301b0269ffffffff000000000000199093169290921792909216179055565b6111138161ffff1661236f565b6001600160a01b031660c083018190526000908190819061113390612395565b9450945094505050600061114a8660c001516123fe565b505060808701859052604087018190526001600160d81b0319831660a088015260c087015190915061117e9084600061245f565b602087015260c08601516111969061ffff87166124f2565b5050506060909601959095525050505050565b6111b1614e85565b60006111c08361ffff1661259b565b905061090683826125e7565b6000806111d761262a565b6001600160a01b038516600090815260209182526040808220868352909252205491505092915050565b60008161121057506000610768565b61121982612637565b60ff036001019050919050565b60008161123257600080fd5b61010082111561124157600080fd5b600061124c846116bc565b90506000605a841161126757506201518083020190506107ca565b6087841161128f575060591983016207e900908102908206909103016276a7000190506107ca565b60c384116112b85750608619830162278d00908102908206909103016301da9c000190506107ca565b5060c21983016276a70090810290820690910301630b1fa8000190506107ca565b60008084116112fa5760405162461bcd60e51b81526004016100e6906150bb565b600784111561131b5760405162461bcd60e51b81526004016100e6906151c8565b6276a70083061561132e57506000610906565b60006113398361074a565b905060015b8581116113725761135861135182610a1a565b839061076d565b85141561136a57600192505050610906565b60010161133e565b50600095945050505050565b6000806113896126d0565b6001600160a01b03861660009081526020918252604080822087835283528082208683529092522054600f90810b900b9150509392505050565b60008060006113d7866020015186866126dd565b9150915060006113e6876127a5565b9050816113ff578651610d2a9061ffff168783886127b9565b600061140a8661074a565b9050600061141a61135186610a1a565b905060006114328a6000015161ffff1683868b6127b9565b90506000808760011415611457578991506114508c60400151612858565b9050611486565b61146d61146660018a03610a1a565b869061076d565b91506114838c6000015161ffff1683888d6127b9565b90505b611493828583868f611c16565b98505050505050505050610906565b6000846114b157506000610e03565b60006114bd8585610b23565b905060006114cb82856128e9565b9050633b9aca008113156114de57600080fd5b610b188782611d34565b808203828113156000831215146107ca57600080fd5b60006001831015801561151357506101008311155b61151c57600080fd5b81156115355750600160ff1b60001983011c8317610906565b50600160ff1b60001983011c198316610906565b600080610e038460200151610ad386604001516115746402540be4008861192d90919063ffffffff16565b9061192d565b6000611584612951565b6001600160a01b0388166000908152602082815260408083208a845290915290209091506001600160571b031986128015906115c757506001600160571b038613155b6115d057600080fd5b600085121580156115e857506001600160501b038513155b6115f157600080fd5b836116315766ffffffffffffff83111561160a57600080fd5b805466ffffffffffffff60701b1916600160701b66ffffffffffffff85160217815561164b565b8054600160501b900463ffffffff16841461164b57600080fd5b8054600a9690960b6affffffffffffffffffffff16600160a81b026001600160a81b036001600160501b0390961669ffffffffffffffffffff1963ffffffff909616600160501b0263ffffffff60501b19909816979097179490941695909517939093169190911790925550505050565b6000620151808210156116ce57600080fd5b6201518082610762565b60006116e38261074a565b9050808360800151106117085760405162461bcd60e51b81526004016100e690615253565b600061171884602001518461295e565b90506117498160008151811061172a57fe5b6020026020010151602001518560600151612b5c90919063ffffffff16565b60608501525060c0830151835151608085015160009283926117729261ffff9091169087612b72565b606087015191935091506117869083612b5c565b606086015264ffffffffff81111561179d57600080fd5b64ffffffffff16608090940193909352505050565b60006117c183600001516127a5565b905060006117ce8561074a565b905060015b60208501515151811015611839576118318786602001516000015183815181106117f957fe5b60200260200101516020015188600087878a888151811061181657fe5b6020026020010151612c97909695949392919063ffffffff16565b6001016117d3565b50505050505050565b600060015b602086015151518110156118bf576000866020015160000151828151811061186b57fe5b60200260200101519050600160ff1681604001511461188957600080fd5b6118a68760c001518683602001518a608001518560600151611f0f565b5060208701516118b69083612079565b50600101611847565b506109d58585846107d0565b60608060006118d8612cce565b60008681526020829052604081209192506118f69082908790612cdb565b9097909650945050505050565b6060806000611910612e7a565b60008681526020829052604090209091506118f681866001612cdb565b81810260001983141561195d5781158061194f57508282828161194c57fe5b05145b61195857600080fd5b6107ca565b82158061197257508183828161196f57fe5b05145b6107ca57600080fd5b6000816000191480156119915750600160ff1b83145b1561199b57600080fd5b8183816119a457fe5b059392505050565b84516119bb9085858585612e87565b156119c557610e4d565b6040850151156119f25760006119e2866020015186868686612e87565b905080156119f05750610e4d565b505b6119fb82612f98565b15611a0e576000811215611a0e57600080fd5b6001600160571b03198112801590611a2d57506001600160571b038113155b611a3657600080fd5b84602001515185604001511415611a5a57611a548560200151612fae565b60208601525b60008560200151866040015181518110611a7057fe5b6020908102919091018101519586528501939093526040808501929092526060840152600060a090930192909252500180516001019052565b600080610e038460400151610ad36402540be400610ad387896020015161192d90919063ffffffff16565b60006001600160ff1b03821115611aea57600080fd5b5090565b600080611b0b611b066301da9c00610d248787611c74565b613067565b90506000611b1f82621dcd6560491b611d80565b90506000611b2c82611dd3565b90506000611b4082621dcd6560491b611e5b565b9050611b4b81611e91565b60070b979650505050505050565b6000806000611b6c88888888600061307e565b9150915080611b80576000925050506109d5565b6000611b8b83611d4d565b90506000611b9f82621dcd6560491b611d80565b90506000611bac82613134565b90506000611bc8611bc383621dcd6560491b611e5b565b61316e565b67ffffffffffffffff1690506000611be889610d24846301da9c00611c74565b905063ffffffff811115611c065760009750505050505050506109d5565b9c9b505050505050505050505050565b6000818610611c2457600080fd5b848210611c3057600080fd5b838310611c5657611c4f846103d1888803610d248388038b8803611c74565b90506109d5565b611c4f611c6d878703610d248688038a8703611c74565b8590610b23565b600082611c83575060006107ca565b82820282848281611c9057fe5b04146107c75760405162461bcd60e51b81526004018080602001828103825260218152602001806153766021913960400191505060405180910390fd5b6000808211611d23576040805162461bcd60e51b815260206004820152601a60248201527f536166654d6174683a206469766973696f6e206279207a65726f000000000000604482015290519081900360640190fd5b818381611d2c57fe5b049392505050565b60006107c7611d43848461192d565b633b9aca0061197b565b6000677fffffffffffffff198212158015611d705750677fffffffffffffff8213155b611d7957600080fd5b5060401b90565b600081600f0b60001415611d9357600080fd5b600082600f0b604085600f0b901b81611da857fe5b05905060016001607f1b03198112801590611dca575060016001607f1b038113155b6107c757600080fd5b6000600160461b82600f0b12611de857600080fd5b683fffffffffffffffff1982600f0b1215611e0557506000610768565b6107ca608083600f0b700171547652b82fe1777d0ffda0d23a7d1202901d61318a565b6000600f83810b9083900b0160016001607f1b03198112801590611dca575060016001607f1b038113156107c757600080fd5b6000600f83810b9083900b0260401d60016001607f1b03198112801590611dca575060016001607f1b038113156107c757600080fd5b600f0b60401d90565b6000611ea4613c38565b60008481526020828152604080832088830151845282528083208684529091529081902090860151606087015160a088015160c089015160e08a01519596509394611ef3948694939291613c45565b610e4d818660800151613d59565b60006107ca6000198361192d565b600080611f1c87876111cc565b90506000611f286126d0565b6001600160a01b0389166000908152602082815260408083208b845282528083208a8452909152812091925080611f5f888a613da2565b9150915080611f6d57600080fd5b611f778583613ead565b15612006578254600090611f93908990600f90810b900b612b5c565b905060016001607f1b03198112801590611fb4575060016001607f1b038113155b611fbd57600080fd5b83546001600160801b0319166001600160801b03600f83900b1617845580611fee57611feb868460006114fe565b95505b611ff98c8c88613edd565b95506109d5945050505050565b861561206a5760016001607f1b0319871280159061202b575060016001607f1b038713155b61203457600080fd5b82546001600160801b0319166001600160801b03600f89900b1617835561205d858360016114fe565b945061206a8b8b87613edd565b50949998505050505050505050565b815151811061208757600080fd5b600082606001511161209857600080fd5b6000826000015182815181106120aa57fe5b60200260200101519050600260038111156120c157fe5b8160a0015160038111156120d157fe5b141580156120ef575060038160a0015160038111156120ec57fe5b14155b6120f857600080fd5b606083018051600019019052600080805b85515181101561216b5760008660000151828151811061212557fe5b60200260200101519050828160800151118015612152575060028160a00151600381111561214f57fe5b14155b1561216257806080015192508193505b50600101612109565b5081841415612184575050600260a091909101526121c5565b60008560000151838151811061219657fe5b602090810291909101015160808581018051918301805190915252600160a09182015260029401939093525050505b5050565b8151158015906121dc57508151613fff10155b6121e557600080fd5b816020015160001080156122025750602082015164ffffffffff10155b61220b57600080fd5b8160400151600010801561222457506040820151600810155b61222d57600080fd5b60608201516001600160571b031913801590612254575060608201516001600160571b0312155b61225d57600080fd5b8151815460208401516040850151606090950151600a0b6affffffffffffffffffffff16600160401b0272ffffffffffffffffffffff00000000000000001960ff909616600160381b0267ff000000000000001964ffffffffff909316620100000266ffffffffff00001961ffff90961661ffff19909516949094179490941692909217169190911792909216919091179055565b60008060008061230188613f37565b905084158061230f57508085115b15612318578094505b8680612328575060008860600151125b965061ffff86161561233957600080fd5b50509451939560109390931c60f09490941b9390931793509150565b6000806107ca600d613f9e565b6000806107ca6002613f9e565b60008061237a613fb7565b6000938452602052505060409020546001600160a01b031690565b6000806000806000806123a6612362565b6001600160a01b039097166000908152602097909752505060409094205461ffff81169563ffffffff62010000830481169650600160301b830416945060ff600160501b8304169350600160581b90910460d81b9150565b60008060008061240c613fc4565b6001600160a01b0395909516600090815260209590955250506040909220546bffffffffffffffffffffffff811693600160601b82046001600160801b03169350600160e01b90910463ffffffff169150565b612467614eb1565b61246f614eb1565b60ff841661247e579050610906565b6124888585613fd1565b815260ff841660608201528267ffffffffffffffff811180156124aa57600080fd5b506040519080825280602002602001820160405280156124e457816020015b6124d1614ed9565b8152602001906001900390816124c95790505b506020820152949350505050565b6000806000806000612502612951565b6001600160a01b0388166000908152602082815260408083208a8452909152902080546001600160501b0381169650600160501b900463ffffffff169450909150831561256b57805461256490600160701b900466ffffffffffffff16613ffa565b9250612580565b8054600160701b900466ffffffffffffff1692505b54600160a81b9004600a90810b900b97939650919450925050565b6125a3614f19565b60008060006125b185614008565b604080516060810182526001600160a01b039093168352602083019390935260ff16600a0a918101919091529350505050919050565b6125ef614e85565b60006125fe8461ffff166140cb565b6040805160808101825261ffff96909616865260ff821660208701528501939093525050606082015290565b6000806107ca600b613f9e565b60008161264357600080fd5b600160801b821061265657608091821c91015b600160401b821061266957604091821c91015b640100000000821061267d57602091821c91015b62010000821061268f57601091821c91015b61010082106126a057600891821c91015b601082106126b057600491821c91015b600482106126c057600291821c91015b6002821061076857600101919050565b6000806107ca600c613f9e565b600080600085116127005760405162461bcd60e51b81526004016100e6906150bb565b60078511156127215760405162461bcd60e51b81526004016100e6906151c8565b600061272c8461074a565b905060015b86811161278457600061274d61274683610a1a565b849061076d565b905086811415612765575092506000915061279d9050565b8681111561277b575092506001915061279d9050565b50600101612731565b5060405162461bcd60e51b81526004016100e6906152aa565b935093915050565b6060015161012c60089190911c60ff160290565b6000806127c4613c38565b905060006276a7006127d58561074a565b6000898152602085815260408083208b84528252808320949093018083529390522080549192509063ffffffff600160a01b8204811691600160c01b8104821691600160e01b909104168161283c5760405162461bcd60e51b81526004016100e690615026565b6128498184848c8c6140e8565b9b9a5050505050505050505050565b80516000906001600160a01b031661287257506000610768565b600082600001516001600160a01b031663dd30a6666040518163ffffffff1660e01b815260040160206040518083038186803b1580156128b157600080fd5b505afa1580156128c5573d6000803e3d6000fd5b505050506040513d601f19601f820116820180604052508101906107c79190614f6f565b600080612901611b066301da9c00610d248688611c74565b905061291381621dcd6560491b611d80565b90506129266129218261417b565b611dd3565b905061293881621dcd6560491b611e5b565b9050600061294582611e91565b60070b95945050505050565b6000806107ca6006613f9e565b6060612968614f19565b6000612974858561419d565b905061297e614e15565b815161298e575091506107ca9050565b6000805b875151811015612b50576000886000015182815181106129ae57fe5b6020026020010151905060006129c382613f37565b9050888111156129d4575050612b48565b81600001518685815181106129e557fe5b60200260200101516000015114612a1a576001840193508160000151868581518110612a0d57fe5b6020908102919091010151525b604082015160009060011415612a6757612a3d836000015184602001518c6142c2565b9750612a5683606001518961154990919063ffffffff16565b9050612a628b85612079565b612afe565b612a748360400151612f98565b15612afe57612a8d868460000151856020015185614432565b6000612aa684606001518861444690919063ffffffff16565b602086015191935091508b1015612ac757612ac28c86836144ee565b612afc565b612ada846000015185602001518d6142c2565b9850612af0612ae98a83611549565b8390612b5c565b9150612afc8c86612079565b505b612b2881888781518110612b0e57fe5b602002602001015160200151612b5c90919063ffffffff16565b878681518110612b3457fe5b602002602001015160200181815250505050505b600101612992565b50919695505050505050565b818101828112156000831215146107ca57600080fd5b6000806000612b8187876111cc565b9050612b8c846116bc565b915084821015612b9b57600080fd5b6000612ba78684613da2565b50905080612bb6575050612c8e565b6000612bc183611201565b90505b8015801590612bd35750818111155b15612c1d576000612be48883611226565b9050612bfc612bf58b8b848b6145a4565b8790612b5c565b9550612c0a848360006114fe565b9350612c1584611201565b915050612bc4565b60005b8115612c7e576000612c328984611226565b9050600080612c418884613da2565b9150915080612c4f57600080fd5b612c5b848360016114fe565b9350612c69878660006114fe565b9650612c7487611201565b9450505050612c20565b612c898a8a83613edd565b505050505b94509492505050565b612ca4878787868561463f565b612cbd8760e001518860a001518960c0015185886140e8565b60c090970196909652505050505050565b6000806107ca6004613f9e565b6060806000808567ffffffffffffffff81118015612cf857600080fd5b50604051908082528060200260200182016040528015612d22578160200160208202803683370190505b50905060008667ffffffffffffffff81118015612d3e57600080fd5b50604051908082528060200260200182016040528015612d68578160200160208202803683370190505b50905060005b87811015612e6c578884600e8110612d8257fe5b600891828204019190066004029054906101000a900463ffffffff1663ffffffff16838281518110612db057fe5b60209081029190910101526001909301928884600e8110612dcd57fe5b600891828204019190066004029054906101000a900463ffffffff1663ffffffff16828281518110612dfb57fe5b60209081029190910101526001909301928615612e64576000838281518110612e2057fe5b6020026020010151138015612e4857506000828281518110612e3e57fe5b6020026020010151135b612e645760405162461bcd60e51b81526004016100e69061527d565b600101612d6e565b509097909650945050505050565b6000806107ca6005613f9e565b6000805b8651811015612f8b576000878281518110612ea257fe5b60200260200101519050848160400151141580612ec0575080518714155b80612ecf575085816020015114155b15612eda5750612f83565b60028160a001516003811115612eec57fe5b14158015612f0a575060038160a001516003811115612f0757fe5b14155b612f1357600080fd5b6060810151600090612f259086612b5c565b9050612f3086612f98565b15612f43576000811215612f4357600080fd5b6001600160571b03198112801590612f6257506001600160571b038113155b612f6b57600080fd5b6060820152600160a090910181905291506109d59050565b600101612e8b565b5060009695505050505050565b6000600282108015906107ca5750506008101590565b606060008251600014612fc5578251600202612fc8565b60015b905060008167ffffffffffffffff81118015612fe357600080fd5b5060405190808252806020026020018201604052801561301d57816020015b61300a614ed9565b8152602001906001900390816130025790505b50905060005b845181101561305f5784818151811061303857fe5b602002602001015182828151811061304c57fe5b6020908102919091010152600101613023565b509392505050565b6000677fffffffffffffff821115611d7957600080fd5b6000808061308c888561090d565b905060006130a461309d8a8a612b5c565b83906146fa565b9050633b0233808113156130c05760008093509350505061312a565b6000806130cc83614713565b91509150806130e557600080955095505050505061312a565b60006130fb896130f5858d6146fa565b90612b5c565b9050633b9aca0081121561311a5760008096509650505050505061312a565b95506001945061312a9350505050565b9550959350505050565b60008082600f0b1361314557600080fd5b6080613150836147b5565b600f0b6fb17217f7d1cf79abc9e3b39803f2f6af02901c9050919050565b60008082600f0b121561318057600080fd5b50600f0b60401d90565b6000600160461b82600f0b1261319f57600080fd5b683fffffffffffffffff1982600f0b12156131bc57506000610768565b6001607f1b60006001603f1b8416600f0b13156131ea5770016a09e667f3bcc908b2fb1366ea957d3e0260801c5b60008367400000000000000016600f0b1315613217577001306fe0a31b7152de8d5a46305c85edec0260801c5b60008367200000000000000016600f0b1315613244577001172b83c7d517adcdf7c8c50eb14a791f0260801c5b60008367100000000000000016600f0b13156132715770010b5586cf9890f6298b92b71842a983630260801c5b60008367080000000000000016600f0b131561329e577001059b0d31585743ae7c548eb68ca417fd0260801c5b60008367040000000000000016600f0b13156132cb57700102c9a3e778060ee6f7caca4f7a29bde80260801c5b60008367020000000000000016600f0b13156132f85770010163da9fb33356d84a66ae336dcdfa3f0260801c5b600083600160381b16600f0b131561332157700100b1afa5abcbed6129ab13ec11dc95430260801c5b600083668000000000000016600f0b131561334d5770010058c86da1c09ea1ff19d294cf2f679b0260801c5b600083664000000000000016600f0b1315613379577001002c605e2e8cec506d21bfc89a23a00f0260801c5b600083662000000000000016600f0b13156133a557700100162f3904051fa128bca9c55c31e5df0260801c5b600083661000000000000016600f0b13156133d1577001000b175effdc76ba38e31671ca9397250260801c5b600083660800000000000016600f0b13156133fd57700100058ba01fb9f96d6cacd4b180917c3d0260801c5b600083660400000000000016600f0b13156134295770010002c5cc37da9491d0985c348c68e7b30260801c5b600083660200000000000016600f0b1315613455577001000162e525ee054754457d59952920260260801c5b600083600160301b16600f0b131561347e5770010000b17255775c040618bf4a4ade83fc0260801c5b6000836580000000000016600f0b13156134a9577001000058b91b5bc9ae2eed81e9b7d4cfab0260801c5b6000836540000000000016600f0b13156134d457700100002c5c89d5ec6ca4d7c8acc017b7c90260801c5b6000836520000000000016600f0b13156134ff5770010000162e43f4f831060e02d839a9d16d0260801c5b6000836510000000000016600f0b131561352a57700100000b1721bcfc99d9f890ea069117630260801c5b6000836508000000000016600f0b13156135555770010000058b90cf1e6d97f9ca14dbcc16280260801c5b6000836504000000000016600f0b1315613580577001000002c5c863b73f016468f6bac5ca2b0260801c5b6000836502000000000016600f0b13156135ab57700100000162e430e5a18f6119e3c02282a50260801c5b6000836501000000000016600f0b13156135d6577001000000b1721835514b86e6d96efd1bfe0260801c5b60008364800000000016600f0b131561360057700100000058b90c0b48c6be5df846c5b2ef0260801c5b60008364400000000016600f0b131561362a5770010000002c5c8601cc6b9e94213c72737a0260801c5b60008364200000000016600f0b1315613654577001000000162e42fff037df38aa2b219f060260801c5b60008364100000000016600f0b131561367e5770010000000b17217fba9c739aa5819f44f90260801c5b60008364080000000016600f0b13156136a8577001000000058b90bfcdee5acd3c1cedc8230260801c5b60008364040000000016600f0b13156136d257700100000002c5c85fe31f35a6a30da1be500260801c5b60008364020000000016600f0b13156136fc5770010000000162e42ff0999ce3541b9fffcf0260801c5b60008364010000000016600f0b131561372657700100000000b17217f80f4ef5aadda455540260801c5b600083638000000016600f0b131561374f5770010000000058b90bfbf8479bd5a81b51ad0260801c5b600083634000000016600f0b1315613778577001000000002c5c85fdf84bd62ae30a74cc0260801c5b600083632000000016600f0b13156137a157700100000000162e42fefb2fed257559bdaa0260801c5b600083631000000016600f0b13156137ca577001000000000b17217f7d5a7716bba4a9ae0260801c5b600083630800000016600f0b13156137f357700100000000058b90bfbe9ddbac5e109cce0260801c5b600083630400000016600f0b131561381c5770010000000002c5c85fdf4b15de6f17eb0d0260801c5b600083630200000016600f0b1315613845577001000000000162e42fefa494f1478fde050260801c5b600083630100000016600f0b131561386e5770010000000000b17217f7d20cf927c8e94c0260801c5b6000836280000016600f0b1315613896577001000000000058b90bfbe8f71cb4e4b33d0260801c5b6000836240000016600f0b13156138be57700100000000002c5c85fdf477b662b269450260801c5b6000836220000016600f0b13156138e65770010000000000162e42fefa3ae53369388c0260801c5b6000836210000016600f0b131561390e57700100000000000b17217f7d1d351a389d400260801c5b6000836208000016600f0b13156139365770010000000000058b90bfbe8e8b2d3d4ede0260801c5b6000836204000016600f0b131561395e577001000000000002c5c85fdf4741bea6e77e0260801c5b6000836202000016600f0b131561398657700100000000000162e42fefa39fe95583c20260801c5b6000836201000016600f0b13156139ae577001000000000000b17217f7d1cfb72b45e10260801c5b60008361800016600f0b13156139d557700100000000000058b90bfbe8e7cc35c3f00260801c5b60008361400016600f0b13156139fc5770010000000000002c5c85fdf473e242ea380260801c5b60008361200016600f0b1315613a23577001000000000000162e42fefa39f02b772c0260801c5b60008361100016600f0b1315613a4a5770010000000000000b17217f7d1cf7d83c1a0260801c5b60008361080016600f0b1315613a71577001000000000000058b90bfbe8e7bdcbe2e0260801c5b60008361040016600f0b1315613a9857700100000000000002c5c85fdf473dea871f0260801c5b60008361020016600f0b1315613abf5770010000000000000162e42fefa39ef44d910260801c5b60008361010016600f0b1315613ae657700100000000000000b17217f7d1cf79e9490260801c5b600083608016600f0b1315613b0c5770010000000000000058b90bfbe8e7bce5440260801c5b600083604016600f0b1315613b32577001000000000000002c5c85fdf473de6eca0260801c5b600083602016600f0b1315613b5857700100000000000000162e42fefa39ef366f0260801c5b600083601016600f0b1315613b7e577001000000000000000b17217f7d1cf79afa0260801c5b600083600816600f0b1315613ba457700100000000000000058b90bfbe8e7bcd6d0260801c5b600083600416600f0b1315613bca5770010000000000000002c5c85fdf473de6b20260801c5b600083600216600f0b1315613bf0577001000000000000000162e42fefa39ef3580260801c5b600083600116600f0b1315613c165770010000000000000000b17217f7d1cf79ab0260801c5b600f83810b60401d603f03900b1c60016001607f1b038111156107ca57600080fd5b6000806107ca600a613f9e565b60008512158015613c5d57506001600160501b038513155b613c6657600080fd5b60008412158015613c7e57506001600160501b038413155b613c8757600080fd5b826000108015613c9b575063ffffffff8311155b613ca457600080fd5b816000108015613cb8575063ffffffff8211155b613cc157600080fd5b63ffffffff811115613cd257600080fd5b855469ffffffffffffffffffff19166001600160501b039586161769ffffffffffffffffffff60501b1916600160501b94909516939093029390931763ffffffff60a01b1916600160a01b63ffffffff928316021763ffffffff60c01b1916600160c01b93821693909302929092176001600160e01b0316600160e01b9190921602179055565b60008112158015613d7157506001600160501b038113155b613d7a57600080fd5b600191909101805469ffffffffffffffffffff19166001600160501b03909216919091179055565b6000806000613db0856116bc565b905062015180840615613dca576000809250925050613ea6565b838110613dde576000809250925050613ea6565b6201518081850304605a8111613dfb57925060019150613ea69050565b6101688111613e3a576000620151806207e900840604820160591901905060068104605a0160068281613e2a57fe5b0660001494509450505050613ea6565b6108708111613e6a5760006201518062278d00840604820161016719019050601e8104608701601e8281613e2a57fe5b611de28111613e9a576000620151806276a700840604820161086f19019050605a810460c301605a8281613e2a57fe5b61010060009350935050505b9250929050565b600060018210158015613ec257506101008211155b613ecb57600080fd5b50600019011b600160ff1b9081161490565b6014613ee882614890565b1115613f065760405162461bcd60e51b81526004016100e690615168565b6000613f1061262a565b6001600160a01b039094166000908152602094855260408082209482529390945250912055565b6000808260400151118015613f5157506040820151600810155b613f5a57600080fd5b6040820151600210613f7157506020810151610768565b6000613f836001846040015103610a1a565b6020840151909150610906906276a700906103d19084610b23565b6000620f424082601a811115613fb057fe5b0192915050565b6000806107ca6003613f9e565b6000806107ca6011613f9e565b60606000613fdf8484614960565b90506001815111613ff15790506107ca565b6107c781614a82565b600881901c60ff9091161b90565b600080600080600061401986614c3b565b909250905060006001600160a01b03831661403e5750600090506402540be4006140c0565b826001600160a01b0316631ee108336040518163ffffffff1660e01b8152600401602060405180830381600087803b15801561407957600080fd5b505af115801561408d573d6000803e3d6000fd5b505050506040513d601f19601f820116820180604052508101906140b19190614f6f565b9050600081136140c057600080fd5b969195509350915050565b6000806140d6614c72565b60009384526020525050604090205490565b60008083116140f657600080fd5b818611156141055750836109d5565b60006141118388610b23565b90508381111561412457859150506109d5565b600061413885610d2484633b9aca00611c74565b9050600061414a633b9aca0083610b23565b9050600061416d633b9aca00610d246141638b86611c74565b6103d18d88611c74565b9a9950505050505050505050565b6000600f82900b60016001607f1b0319141561419657600080fd5b5060000390565b81515160609060009081906141e75760408051600080825260208201909252906141dd565b6141ca614f43565b8152602001906001900390816141c25790505b50925050506107ca565b8451515b600019810190156142425760008660000151828151811061420857fe5b602002602001015190508561421c82613f37565b1115614228575061423d565b8051831461423b57805160019094019392505b505b6141eb565b5060008267ffffffffffffffff8111801561425c57600080fd5b5060405190808252806020026020018201604052801561429657816020015b614283614f43565b81526020019060019003908161427b5790505b50905082156109d55781816000815181106142ad57fe5b60209081029190910101515295945050505050565b6142ca614f19565b6000806142d78686614c7f565b9150915081600014156144075760006142ef87614008565b91945090925090506001600160a01b03811615614405576000614310614cc8565b90508560001080156143225750858711155b8015614333575064ffffffffff8611155b61433c57600080fd5b83600012801561435357506001600160801b038413155b61435c57600080fd5b6000888152602082815260408083208a845290915290819020805464ffffffffff191664ffffffffff89161774ffffffffffffffffffffffffffffffff00000000001916650100000000006001600160801b038816021760ff60a81b1916600160a81b60ff871602178155905188908a907f0fdfa6885701e2f1f42e4187b9231cf81c1fe23671ef64fa46f34ddb56c1dc18906143fa90899061533e565b60405180910390a350505b505b6040805160608101825260008152602081019390935260ff909116600a0a9082015290509392505050565b61444084848460018561463f565b50505050565b6000808261445957506000905080613ea6565b6000831361446657600080fd5b6144858460800151610ad385876060015161192d90919063ffffffff16565b91506144a68460800151610ad385876040015161192d90919063ffffffff16565b60808501519091506144b8908461090d565b608085015260408401516144cc908261090d565b604085015260608401516144e0908361090d565b6060850152613ea684614cd5565b60008360000151838151811061450057fe5b602002602001015190508260001461458b5760008460000151600185038151811061452757fe5b602002602001015190508160000151816000015114801561454f575081602001518160200151145b801561455f575060408101516001145b156145895760608101516145739084612b5c565b6060820152600160a08201526145898585612079565b505b600160408201819052606082019290925260a001525050565b6000806145af6126d0565b6001600160a01b0387166000908152602082815260408083208984528252808320888452909152812054919250600f91820b90910b906145f08787876142c2565b90506145fc8183611549565b6001600160a01b03989098166000908152602093845260408082209882529784528781209681529590925250505091902080546001600160801b03191690555090565b6000614649613c38565b6000868152602082815260408083208884528252808320868452825291829020808a5290890187905280546001600160501b03808216938b0193909352600160501b810490921660608a015263ffffffff600160a01b8304811660a08b0152600160c01b8304811660c08b0152600160e01b90920490911660e08901529091508084156146e85760018201546001600160501b031660808901526146f0565b600060808901525b5050505050505050565b60006107c761470d84633b9aca0061192d565b8361197b565b600080633b9aca0083141561472d575060009050806147b0565b6000614747614740633b9aca00866114e8565b85906146fa565b9050600061475482611d4d565b9050600081600f0b1361476f576000809350935050506147b0565b60006147a361479e61479261478385613134565b6814b927f32bffb83338614d2d565b621dcd6560491b611e5b565b611e91565b60070b9450600193505050505b915091565b60008082600f0b136147c657600080fd5b6000600f83900b600160401b81126147e0576040918201911d5b64010000000081126147f4576020918201911d5b620100008112614806576010918201911d5b6101008112614817576008918201911d5b60108112614827576004918201911d5b60048112614837576002918201911d5b60028112614846576001820191505b603f19820160401b600f85900b607f8490031b6001603f1b5b60008113156148855790800260ff81901c8281029390930192607f011c9060011d61485f565b509095945050505050565b600181901c7f5555555555555555555555555555555555555555555555555555555555555555908116911601600281901c7f3333333333333333333333333333333333333333333333333333333333333333908116911601600481901c7f07070707070707070707070707070707070707070707070707070707070707079190911601600881901c7e0f000f000f000f000f000f000f000f000f000f000f000f000f000f000f000f908116911601601081901c01602081901c01604081901c01608081901c60ff90811691160190565b606060108260ff16111561497357600080fd5b600061497d612355565b6001600160a01b038516600090815260208290526040812091925060ff851667ffffffffffffffff811180156149b257600080fd5b506040519080825280602002602001820160405280156149ec57816020015b6149d9614ed9565b8152602001906001900390816149d15790505b50905060005b8560ff16811015614a78576000838260108110614a0b57fe5b0190506000838381518110614a1c57fe5b602090810291909101810151835461ffff8116825264ffffffffff620100008204169282019290925260ff600160381b8304166040820152600160401b909104600a90810b900b606082015260800191909152506001016149f2565b5095945050505050565b805160008167ffffffffffffffff81118015614a9d57600080fd5b50604051908082528060200260200182016040528015614ac7578160200160208202803683370190505b50905060005b82811015614b24576000848281518110614ae357fe5b60200260200101519050614b04816000015182602001518360400151614d60565b838381518110614b1057fe5b602090810291909101015250600101614acd565b5060015b8281101561444057805b600081118015614b6a5750828181518110614b4957fe5b6020026020010151836001830381518110614b6057fe5b6020026020010151115b15614c3257828181518110614b7b57fe5b6020026020010151836001830381518110614b9257fe5b6020026020010151846001840381518110614ba957fe5b60200260200101858481518110614bbc57fe5b6020026020010182815250828152505050848181518110614bd957fe5b6020026020010151856001830381518110614bf057fe5b6020026020010151866001840381518110614c0757fe5b60200260200101878481518110614c1a57fe5b60209081029190910101919091525260001901614b32565b50600101614b28565b6000806000614c48614dbb565b600094855260205250506040909120546001600160a01b03811692600160a01b90910460ff169150565b6000806107ca6009613f9e565b6000806000614c8c614cc8565b6000958652602090815260408087209587529490525050509020546501000000000081046001600160801b031691600160a81b90910460ff1690565b6000806107ca6008613f9e565b6000614ce082614dc8565b905060008160000160189054906101000a900463ffffffff169050614d1f82846040015185606001518660a001518563ffffffff168860e00151613c45565b610947828460800151613d59565b6000600f82810b9084900b0360016001607f1b03198112801590611dca575060016001607f1b038113156107c757600080fd5b6000613fff841115614d7157600080fd5b64ffffffffff831115614d8357600080fd5b6008821115614d9157600080fd5b5067ffff000000000000603084901b1665ffffffffff00600884901b161760ff8216179392505050565b6000806107ca600f613f9e565b5190565b6040518060e00160405280614ddf614e85565b8152602001614dec614eb1565b815260006020820181905260408201819052606082018190526080820181905260a09091015290565b60405180610100016040528060008019168152602001600081526020016000815260200160008152602001600081526020016000815260200160008152602001600081525090565b6040518060800160405280606081526020016060815260200160608152602001606081525090565b6040805160808101825260008082526020820152908101614ea4614f19565b8152600060209091015290565b6040518060800160405280606081526020016060815260200160008152602001600081525090565b6040518060c00160405280600081526020016000815260200160008152602001600081526020016000815260200160006003811115614f1457fe5b905290565b604051806060016040528060006001600160a01b0316815260200160008152602001600081525090565b604051806040016040528060008152602001600081525090565b803561ffff8116811461076857600080fd5b600060208284031215614f80578081fd5b5051919050565b600060208284031215614f98578081fd5b6107c782614f5d565b60008060408385031215614fb3578081fd5b614fbc83614f5d565b915060208301358015158114614fd0578182fd5b809150509250929050565b6001600160a01b0391909116815260200190565b60208082526017908201527f496e76616c696420737765657020636173682074696d65000000000000000000604082015260600190565b60208082526016908201527513585c9ad95d081b9bdd081a5b9a5d1a585b1a5e995960521b604082015260600190565b6020808252601490820152734f7261636c652072617465206f766572666c6f7760601b604082015260600190565b60208082526017908201527f4d75737420696e697469616c697a65206d61726b657473000000000000000000604082015260600190565b60208082526015908201527410d1ce881b9bc81b585c9ad95d1cc81b1a5cdd1959605a1b604082015260600190565b6020808252600d908201526c092dcecc2d8d2c840d2dcc8caf609b1b604082015260600190565b60208082526013908201527224a69d1039b4bc1036b7b73a341032b93937b960691b604082015260600190565b60208082526010908201526f4e6f206e546f6b656e2061737365747360801b604082015260600190565b6020808252600f908201526e4f766572206d61782061737365747360881b604082015260600190565b60208082526017908201527f494d3a20696e746572706f6c6174696f6e206572726f72000000000000000000604082015260600190565b60208082526016908201527510d1ce881b585c9ad95d081a5b99195e08189bdd5b9960521b604082015260600190565b6020808252601590820152740929a7440d2dce6eaccccd2c6d2cadce840c6c2e6d605b1b604082015260600190565b60208082526012908201527112534e881b9bdd08199a5c9cdd081a5b9a5d60721b604082015260600190565b60208082526010908201526f494d3a20696e76616c69642074696d6560801b604082015260600190565b60208082526013908201527250543a20696e69742076616c7565207a65726f60681b604082015260600190565b60208082526013908201527210d1ce881b9bc81b585c9ad95d08199bdd5b99606a1b604082015260600190565b60208082526016908201527512534e881b9bc81b585c9ad95d1cc81d1bc81a5b9a5d60521b604082015260600190565b60208082526017908201527f494d3a20696d706c6965642072617465206661696c6564000000000000000000604082015260600190565b6001600160801b0391909116815260200190565b61ffff91909116815260200190565b61ffff92909216825260208201526040019056fe536166654d6174683a206d756c7469706c69636174696f6e206f766572666c6f77a2646970667358221220b8e49848bef558240b5c1172edd7d0e8b6106c0d04a3028fbb9488b426ee2b4964736f6c63430007060033","language":"Solidity","natspec":{"kind":"dev","methods":{"getLibInfo()":{"notice":"Get a list of deployed library addresses (sorted by library name)"},"initializeMarkets(uint16,bool)":{"details":"emit:MarketsInitializedauth:none","notice":"Initialize the market for a given currency id, done once a quarter","params":{"currencyId":"currency of markets to initialize","isFirstInit":"true if this is the first time the markets have been initialized"}},"sweepCashIntoMarkets(uint16)":{"details":"emit:CashSweepIntoMarketsauth:none","notice":"Sweeps nToken cash balance into markets after accounting for cash withholding. Can be done after fCash residuals are purchased to ensure that markets have maximum liquidity.","params":{"currencyId":"currency of markets to initialize"}}},"notice":"Initialize markets is called once every quarter to setup the new markets. Only the nToken account can initialize markets, and this method will be called on behalf of that account. In this action the following will occur:  - nToken Liquidity Tokens will be settled  - Any ifCash assets will be settled  - If nToken liquidity tokens are settled with negative net ifCash, enough cash will be withheld at the PV    to purchase offsetting positions  - fCash positions are written to storage  - For each market, calculate the proportion of fCash to cash given:     - previous oracle rates     - rate anchor set by governance     - percent of cash to deposit into the market set by governance  - Set new markets and add liquidity tokens to portfolio","version":1},"opcodes":"PUSH20 0x0 ADDRESS EQ PUSH1 0x80 PUSH1 0x40 MSTORE PUSH1 0x4 CALLDATASIZE LT PUSH2 0x4B JUMPI PUSH1 0x0 CALLDATALOAD PUSH1 0xE0 SHR DUP1 PUSH4 0xBB6DD58E EQ PUSH2 0x50 JUMPI DUP1 PUSH4 0xC4C96DAE EQ PUSH2 0x72 JUMPI DUP1 PUSH4 0xD0E064C0 EQ PUSH2 0x90 JUMPI JUMPDEST PUSH1 0x0 DUP1 REVERT JUMPDEST DUP2 DUP1 ISZERO PUSH2 0x5C JUMPI PUSH1 0x0 DUP1 REVERT JUMPDEST POP PUSH2 0x70 PUSH2 0x6B CALLDATASIZE PUSH1 0x4 PUSH2 0x4F87 JUMP JUMPDEST PUSH2 0xB0 JUMP JUMPDEST STOP JUMPDEST PUSH2 0x7A PUSH2 0x29D JUMP JUMPDEST PUSH1 0x40 MLOAD PUSH2 0x87 SWAP2 SWAP1 PUSH2 0x4FDB JUMP JUMPDEST PUSH1 0x40 MLOAD DUP1 SWAP2 SUB SWAP1 RETURN JUMPDEST DUP2 DUP1 ISZERO PUSH2 0x9C JUMPI PUSH1 0x0 DUP1 REVERT JUMPDEST POP PUSH2 0x70 PUSH2 0xAB CALLDATASIZE PUSH1 0x4 PUSH2 0x4FA1 JUMP JUMPDEST PUSH2 0x2B5 JUMP JUMPDEST TIMESTAMP PUSH2 0xB9 PUSH2 0x4DCC JUMP JUMPDEST PUSH2 0xC3 DUP2 DUP5 PUSH2 0x731 JUMP JUMPDEST PUSH1 0x20 DUP2 ADD MLOAD MLOAD MLOAD PUSH2 0xEF JUMPI PUSH1 0x40 MLOAD PUSH3 0x461BCD PUSH1 0xE5 SHL DUP2 MSTORE PUSH1 0x4 ADD PUSH2 0xE6 SWAP1 PUSH2 0x513E JUMP JUMPDEST PUSH1 0x40 MLOAD DUP1 SWAP2 SUB SWAP1 REVERT JUMPDEST PUSH1 0x0 PUSH2 0xFA DUP4 PUSH2 0x74A JUMP JUMPDEST SWAP1 POP DUP1 DUP3 PUSH1 0x80 ADD MLOAD LT ISZERO PUSH2 0x120 JUMPI PUSH1 0x40 MLOAD PUSH3 0x461BCD PUSH1 0xE5 SHL DUP2 MSTORE PUSH1 0x4 ADD PUSH2 0xE6 SWAP1 PUSH2 0x5084 JUMP JUMPDEST PUSH1 0xA0 DUP3 ADD MLOAD PUSH1 0x80 DUP4 ADD MLOAD PUSH1 0x0 SWAP2 PUSH2 0x13E SWAP2 SWAP1 PUSH1 0x2 BYTE PUSH2 0xE10 MUL PUSH2 0x76D JUMP JUMPDEST SWAP1 POP DUP1 DUP5 GT PUSH2 0x15F JUMPI PUSH1 0x40 MLOAD PUSH3 0x461BCD PUSH1 0xE5 SHL DUP2 MSTORE PUSH1 0x4 ADD PUSH2 0xE6 SWAP1 PUSH2 0x4FEF JUMP JUMPDEST PUSH1 0x40 DUP1 MLOAD PUSH1 0x0 DUP1 DUP3 MSTORE PUSH1 0x20 DUP3 ADD SWAP1 SWAP3 MSTORE PUSH2 0x19D SWAP1 DUP6 SWAP1 DUP4 PUSH2 0x196 JUMP JUMPDEST PUSH2 0x183 PUSH2 0x4E15 JUMP JUMPDEST DUP2 MSTORE PUSH1 0x20 ADD SWAP1 PUSH1 0x1 SWAP1 SUB SWAP1 DUP2 PUSH2 0x17B JUMPI SWAP1 POP JUMPDEST POP DUP8 PUSH2 0x7D0 JUMP JUMPDEST SWAP1 POP PUSH1 0x0 PUSH2 0x1B8 DUP3 DUP7 PUSH1 0x60 ADD MLOAD PUSH2 0x90D SWAP1 SWAP2 SWAP1 PUSH4 0xFFFFFFFF AND JUMP JUMPDEST PUSH1 0xC0 DUP7 ADD MLOAD DUP7 MLOAD MLOAD SWAP2 SWAP3 POP PUSH2 0x1D1 SWAP2 PUSH2 0xFFFF AND DUP5 PUSH2 0x929 JUMP JUMPDEST PUSH1 0x40 MLOAD PUSH4 0x21285613 PUSH1 0xE1 SHL DUP2 MSTORE PUSH20 0x0 SWAP1 PUSH4 0x4250AC26 SWAP1 PUSH2 0x20A SWAP1 DUP11 SWAP1 DUP6 SWAP1 PUSH1 0x4 ADD PUSH2 0x5361 JUMP JUMPDEST PUSH1 0x20 PUSH1 0x40 MLOAD DUP1 DUP4 SUB DUP2 DUP7 DUP1 EXTCODESIZE ISZERO DUP1 ISZERO PUSH2 0x222 JUMPI PUSH1 0x0 DUP1 REVERT JUMPDEST POP GAS DELEGATECALL ISZERO DUP1 ISZERO PUSH2 0x236 JUMPI RETURNDATASIZE PUSH1 0x0 DUP1 RETURNDATACOPY RETURNDATASIZE PUSH1 0x0 REVERT JUMPDEST POP POP POP POP PUSH1 0x40 MLOAD RETURNDATASIZE PUSH1 0x1F NOT PUSH1 0x1F DUP3 ADD AND DUP3 ADD DUP1 PUSH1 0x40 MSTORE POP DUP2 ADD SWAP1 PUSH2 0x25A SWAP2 SWAP1 PUSH2 0x4F6F JUMP JUMPDEST POP PUSH32 0x120B36BD1B47AE64F0F3EA6EB0FBFBA209B2C780A31864E382D9957377A9F946 DUP8 DUP3 PUSH1 0x40 MLOAD PUSH2 0x28C SWAP3 SWAP2 SWAP1 PUSH2 0x5361 JUMP JUMPDEST PUSH1 0x40 MLOAD DUP1 SWAP2 SUB SWAP1 LOG1 POP POP POP POP POP POP POP JUMP JUMPDEST PUSH20 0x0 SWAP1 JUMP JUMPDEST TIMESTAMP PUSH2 0x2BE PUSH2 0x4DCC JUMP JUMPDEST PUSH2 0x2C8 DUP2 DUP6 PUSH2 0x731 JUMP JUMPDEST DUP1 MLOAD PUSH1 0x20 ADD MLOAD PUSH1 0x0 SWAP1 PUSH8 0xFFFFFFFFFFFFFFFF DUP2 GT DUP1 ISZERO PUSH2 0x2E7 JUMPI PUSH1 0x0 DUP1 REVERT JUMPDEST POP PUSH1 0x40 MLOAD SWAP1 DUP1 DUP3 MSTORE DUP1 PUSH1 0x20 MUL PUSH1 0x20 ADD DUP3 ADD PUSH1 0x40 MSTORE DUP1 ISZERO PUSH2 0x321 JUMPI DUP2 PUSH1 0x20 ADD JUMPDEST PUSH2 0x30E PUSH2 0x4E15 JUMP JUMPDEST DUP2 MSTORE PUSH1 0x20 ADD SWAP1 PUSH1 0x1 SWAP1 SUB SWAP1 DUP2 PUSH2 0x306 JUMPI SWAP1 POP JUMPDEST POP DUP3 MLOAD PUSH1 0x20 ADD MLOAD SWAP1 SWAP2 POP PUSH2 0x347 JUMPI PUSH1 0x40 MLOAD PUSH3 0x461BCD PUSH1 0xE5 SHL DUP2 MSTORE PUSH1 0x4 ADD PUSH2 0xE6 SWAP1 PUSH2 0x52D7 JUMP JUMPDEST DUP4 ISZERO PUSH2 0x371 JUMPI PUSH1 0x20 DUP3 ADD MLOAD MLOAD MLOAD ISZERO PUSH2 0x371 JUMPI PUSH1 0x40 MLOAD PUSH3 0x461BCD PUSH1 0xE5 SHL DUP2 MSTORE PUSH1 0x4 ADD PUSH2 0xE6 SWAP1 PUSH2 0x5227 JUMP JUMPDEST PUSH1 0x0 PUSH2 0x384 DUP4 DUP4 DUP7 DUP10 PUSH2 0xFFFF AND DUP10 PUSH2 0x94C JUMP JUMPDEST SWAP1 POP PUSH1 0x0 PUSH2 0x39E DUP8 PUSH2 0xFFFF AND DUP6 PUSH1 0x0 ADD MLOAD PUSH1 0x20 ADD MLOAD PUSH2 0x9DE JUMP JUMPDEST SWAP1 POP PUSH2 0x3A8 PUSH2 0x4E15 JUMP JUMPDEST PUSH1 0x0 DUP1 JUMPDEST DUP7 MLOAD PUSH1 0x20 ADD MLOAD DUP2 LT ISZERO PUSH2 0x6A1 JUMPI PUSH2 0x3D7 PUSH2 0x3C8 DUP3 PUSH1 0x1 ADD PUSH2 0xA1A JUMP JUMPDEST PUSH2 0x3D1 DUP11 PUSH2 0x74A JUMP JUMPDEST SWAP1 PUSH2 0x76D JUMP JUMPDEST PUSH1 0x20 DUP5 ADD MSTORE DUP4 MLOAD DUP1 MLOAD PUSH1 0x0 SWAP2 PUSH2 0x40A SWAP2 DUP9 SWAP2 SWAP1 DUP6 SWAP1 DUP2 LT PUSH2 0x3F4 JUMPI INVALID JUMPDEST PUSH1 0x20 MUL PUSH1 0x20 ADD ADD MLOAD DUP5 PUSH1 0x2 PUSH1 0xFF AND ADD DUP8 DUP13 PUSH2 0xABE JUMP JUMPDEST SWAP1 POP PUSH1 0x0 PUSH2 0x425 DUP11 DUP7 PUSH1 0x20 ADD MLOAD PUSH2 0xB23 SWAP1 SWAP2 SWAP1 PUSH4 0xFFFFFFFF AND JUMP JUMPDEST DUP10 MLOAD SWAP1 SWAP2 POP PUSH1 0x0 SWAP1 PUSH2 0x43B SWAP1 PUSH1 0x1 DUP7 ADD DUP5 PUSH2 0xB80 JUMP JUMPDEST SWAP1 POP DUP12 DUP1 PUSH2 0x455 JUMPI POP DUP4 PUSH1 0x1 EQ DUP1 ISZERO PUSH2 0x455 JUMPI POP DUP9 MLOAD PUSH1 0x2 EQ JUMPDEST DUP1 PUSH2 0x466 JUMPI POP PUSH1 0x20 DUP11 ADD MLOAD MLOAD MLOAD DUP5 LT ISZERO JUMPDEST DUP1 PUSH2 0x494 JUMPI POP DUP4 PUSH1 0x1 EQ DUP1 ISZERO PUSH2 0x494 JUMPI POP DUP9 PUSH1 0x2 DUP2 MLOAD DUP2 LT PUSH2 0x484 JUMPI INVALID JUMPDEST PUSH1 0x20 MUL PUSH1 0x20 ADD ADD MLOAD PUSH1 0xC0 ADD MLOAD PUSH1 0x0 EQ JUMPDEST ISZERO PUSH2 0x515 JUMPI PUSH1 0x0 PUSH2 0x4BC DUP5 DUP10 PUSH1 0x60 ADD MLOAD DUP8 DUP2 MLOAD DUP2 LT PUSH2 0x4AF JUMPI INVALID JUMPDEST PUSH1 0x20 MUL PUSH1 0x20 ADD ADD MLOAD PUSH2 0xBF2 JUMP JUMPDEST SWAP1 POP DUP1 DUP8 PUSH1 0x40 ADD DUP2 DUP2 MSTORE POP POP PUSH2 0x4EC DUP2 DUP6 DUP5 DUP12 PUSH1 0x40 ADD MLOAD DUP10 DUP2 MLOAD DUP2 LT PUSH2 0x4DE JUMPI INVALID JUMPDEST PUSH1 0x20 MUL PUSH1 0x20 ADD ADD MLOAD DUP8 PUSH2 0xC0F JUMP JUMPDEST PUSH1 0xC0 DUP9 ADD DUP2 SWAP1 MSTORE PUSH2 0x50F JUMPI PUSH1 0x40 MLOAD PUSH3 0x461BCD PUSH1 0xE5 SHL DUP2 MSTORE PUSH1 0x4 ADD PUSH2 0xE6 SWAP1 PUSH2 0x5307 JUMP JUMPDEST POP PUSH2 0x67D JUMP JUMPDEST DUP4 PUSH2 0x53A JUMPI DUP9 PUSH1 0x1 DUP2 MLOAD DUP2 LT PUSH2 0x527 JUMPI INVALID JUMPDEST PUSH1 0x20 MUL PUSH1 0x20 ADD ADD MLOAD PUSH1 0xC0 ADD MLOAD SWAP5 POP PUSH2 0x597 JUMP JUMPDEST DUP4 PUSH1 0x1 EQ ISZERO PUSH2 0x55C JUMPI PUSH2 0x555 DUP10 PUSH2 0x550 DUP14 PUSH2 0x74A JUMP JUMPDEST PUSH2 0xC39 JUMP JUMPDEST SWAP5 POP PUSH2 0x597 JUMP JUMPDEST PUSH1 0x0 PUSH2 0x573 PUSH2 0x56A DUP7 PUSH2 0xA1A JUMP JUMPDEST PUSH2 0x3D1 DUP15 PUSH2 0x74A JUMP JUMPDEST SWAP1 POP PUSH2 0x593 DUP2 DUP8 DUP13 DUP9 DUP2 MLOAD DUP2 LT PUSH2 0x586 JUMPI INVALID JUMPDEST PUSH1 0x20 MUL PUSH1 0x20 ADD ADD MLOAD PUSH2 0xCD2 JUMP JUMPDEST SWAP6 POP POP JUMPDEST PUSH1 0x0 PUSH2 0x5BC DUP7 DUP5 DUP5 DUP12 PUSH1 0x40 ADD MLOAD DUP10 DUP2 MLOAD DUP2 LT PUSH2 0x5AF JUMPI INVALID JUMPDEST PUSH1 0x20 MUL PUSH1 0x20 ADD ADD MLOAD PUSH2 0xD69 JUMP JUMPDEST SWAP1 POP DUP8 PUSH1 0x20 ADD MLOAD DUP6 DUP2 MLOAD DUP2 LT PUSH2 0x5CE JUMPI INVALID JUMPDEST PUSH1 0x20 MUL PUSH1 0x20 ADD ADD MLOAD DUP2 SGT ISZERO PUSH2 0x648 JUMPI DUP8 PUSH1 0x20 ADD MLOAD DUP6 DUP2 MLOAD DUP2 LT PUSH2 0x5ED JUMPI INVALID JUMPDEST PUSH1 0x20 MUL PUSH1 0x20 ADD ADD MLOAD SWAP1 POP PUSH2 0x601 DUP5 DUP3 PUSH2 0xBF2 JUMP JUMPDEST DUP8 PUSH1 0x40 ADD DUP2 DUP2 MSTORE POP POP PUSH2 0x624 DUP8 PUSH1 0x40 ADD MLOAD DUP6 DUP5 DUP12 PUSH1 0x40 ADD MLOAD DUP10 DUP2 MLOAD DUP2 LT PUSH2 0x4DE JUMPI INVALID JUMPDEST SWAP6 POP DUP6 PUSH2 0x643 JUMPI PUSH1 0x40 MLOAD PUSH3 0x461BCD PUSH1 0xE5 SHL DUP2 MSTORE PUSH1 0x4 ADD PUSH2 0xE6 SWAP1 PUSH2 0x5056 JUMP JUMPDEST PUSH2 0x658 JUMP JUMPDEST PUSH2 0x652 DUP5 DUP3 PUSH2 0xBF2 JUMP JUMPDEST PUSH1 0x40 DUP9 ADD MSTORE JUMPDEST PUSH1 0x1 DUP8 PUSH1 0x40 ADD MLOAD SLT ISZERO PUSH2 0x66D JUMPI PUSH1 0x1 PUSH1 0x40 DUP9 ADD MSTORE JUMPDEST POP PUSH1 0xC0 DUP7 ADD DUP6 SWAP1 MSTORE PUSH1 0xE0 DUP7 ADD DUP12 SWAP1 MSTORE JUMPDEST PUSH1 0xC0 DUP7 ADD MLOAD PUSH1 0xA0 DUP8 ADD MSTORE PUSH2 0x696 DUP7 PUSH2 0xFFFF DUP16 AND DUP13 PUSH2 0xE0B JUMP JUMPDEST POP POP POP PUSH1 0x1 ADD PUSH2 0x3AC JUMP JUMPDEST POP PUSH1 0x0 PUSH2 0x6BF DUP8 PUSH1 0xC0 ADD MLOAD DUP9 PUSH1 0x20 ADD MLOAD PUSH2 0xE54 SWAP1 SWAP2 SWAP1 PUSH4 0xFFFFFFFF AND JUMP JUMPDEST POP SWAP3 POP POP POP PUSH2 0x6DB DUP8 PUSH1 0xC0 ADD MLOAD DUP12 PUSH2 0xFFFF AND DUP10 PUSH1 0x60 ADD MLOAD PUSH2 0x929 JUMP JUMPDEST PUSH2 0x6EE DUP8 PUSH1 0xC0 ADD MLOAD DUP3 DUP10 PUSH1 0x80 ADD MLOAD PUSH2 0x1093 JUMP JUMPDEST PUSH32 0xCFFEFF9ACCC9171F01FEC36E09A1A06F0160CE50A8C4C0A2ADFF9CEC562ADF08 DUP11 PUSH1 0x40 MLOAD PUSH2 0x71D SWAP2 SWAP1 PUSH2 0x5352 JUMP JUMPDEST PUSH1 0x40 MLOAD DUP1 SWAP2 SUB SWAP1 LOG1 POP POP POP POP POP POP POP POP POP POP JUMP JUMPDEST PUSH2 0x73B DUP3 DUP3 PUSH2 0x1106 JUMP JUMPDEST PUSH2 0x744 DUP2 PUSH2 0x11A9 JUMP JUMPDEST SWAP1 SWAP2 MSTORE POP JUMP JUMPDEST PUSH1 0x0 PUSH3 0x76A700 DUP3 LT ISZERO PUSH2 0x75C JUMPI PUSH1 0x0 DUP1 REVERT JUMPDEST PUSH3 0x76A700 DUP3 JUMPDEST MOD DUP3 SUB SWAP1 POP JUMPDEST SWAP2 SWAP1 POP JUMP JUMPDEST PUSH1 0x0 DUP3 DUP3 ADD DUP4 DUP2 LT ISZERO PUSH2 0x7C7 JUMPI PUSH1 0x40 DUP1 MLOAD PUSH3 0x461BCD PUSH1 0xE5 SHL DUP2 MSTORE PUSH1 0x20 PUSH1 0x4 DUP3 ADD MSTORE PUSH1 0x1B PUSH1 0x24 DUP3 ADD MSTORE PUSH32 0x536166654D6174683A206164646974696F6E206F766572666C6F770000000000 PUSH1 0x44 DUP3 ADD MSTORE SWAP1 MLOAD SWAP1 DUP2 SWAP1 SUB PUSH1 0x64 ADD SWAP1 REVERT JUMPDEST SWAP1 POP JUMPDEST SWAP3 SWAP2 POP POP JUMP JUMPDEST PUSH1 0x0 DUP1 PUSH2 0x7ED DUP6 PUSH1 0xC0 ADD MLOAD DUP7 PUSH1 0x0 ADD MLOAD PUSH1 0x0 ADD MLOAD PUSH2 0xFFFF AND PUSH2 0x11CC JUMP JUMPDEST PUSH1 0xA0 DUP7 ADD MLOAD DUP6 MLOAD SWAP2 SWAP3 POP PUSH1 0x1 BYTE PUSH3 0xF4240 MUL SWAP1 PUSH1 0x0 SWAP1 ISZERO PUSH2 0x81A JUMPI PUSH2 0x815 DUP6 PUSH3 0x76A700 PUSH2 0xB23 JUMP JUMPDEST PUSH2 0x81C JUMP JUMPDEST DUP5 JUMPDEST SWAP1 POP PUSH1 0x0 PUSH2 0x829 DUP5 PUSH2 0x1201 JUMP JUMPDEST SWAP1 POP JUMPDEST DUP1 ISZERO PUSH2 0x8EF JUMPI PUSH1 0x0 PUSH2 0x842 DUP10 PUSH1 0x80 ADD MLOAD DUP4 PUSH2 0x1226 JUMP JUMPDEST SWAP1 POP PUSH1 0x0 PUSH2 0x859 DUP11 PUSH1 0x0 ADD MLOAD PUSH1 0x20 ADD MLOAD DUP4 DUP11 PUSH2 0x12D9 JUMP JUMPDEST SWAP1 POP DUP1 PUSH2 0x8CF JUMPI PUSH1 0xC0 DUP11 ADD MLOAD DUP11 MLOAD MLOAD PUSH1 0x0 SWAP2 PUSH2 0x879 SWAP2 PUSH2 0xFFFF AND DUP6 PUSH2 0x137E JUMP JUMPDEST SWAP1 POP PUSH1 0x0 DUP2 SLT ISZERO PUSH2 0x8CD JUMPI DUP11 MLOAD PUSH1 0x0 SWAP1 PUSH2 0x894 SWAP1 DUP6 DUP9 PUSH2 0x13C3 JUMP JUMPDEST SWAP1 POP DUP1 DUP8 GT ISZERO PUSH2 0x8A6 JUMPI POP PUSH1 0x0 PUSH2 0x8B3 JUMP JUMPDEST PUSH2 0x8B0 DUP2 DUP9 PUSH2 0xB23 JUMP JUMPDEST SWAP1 POP JUMPDEST PUSH2 0x8C9 PUSH2 0x8C2 DUP4 DUP7 DUP14 DUP6 PUSH2 0x14A2 JUMP JUMPDEST DUP11 SWAP1 PUSH2 0x14E8 JUMP JUMPDEST SWAP9 POP POP JUMPDEST POP JUMPDEST PUSH2 0x8DB DUP7 DUP5 PUSH1 0x0 PUSH2 0x14FE JUMP JUMPDEST SWAP6 POP PUSH2 0x8E6 DUP7 PUSH2 0x1201 JUMP JUMPDEST SWAP3 POP POP POP PUSH2 0x82C JUMP JUMPDEST DUP8 MLOAD PUSH1 0x40 ADD MLOAD PUSH2 0x8FF SWAP1 DUP7 PUSH2 0x1549 JUMP JUMPDEST SWAP5 POP POP POP POP POP JUMPDEST SWAP4 SWAP3 POP POP POP JUMP JUMPDEST PUSH1 0x0 PUSH2 0x919 DUP4 DUP4 PUSH2 0x14E8 JUMP JUMPDEST SWAP1 POP PUSH1 0x0 DUP2 SLT ISZERO PUSH2 0x7CA JUMPI PUSH1 0x0 DUP1 REVERT JUMPDEST PUSH1 0x0 DUP2 SLT ISZERO PUSH2 0x937 JUMPI PUSH1 0x0 DUP1 REVERT JUMPDEST PUSH2 0x947 DUP4 DUP4 DUP4 PUSH1 0x0 DUP1 PUSH1 0x0 PUSH2 0x157A JUMP JUMPDEST POP POP POP JUMP JUMPDEST PUSH1 0x0 DUP1 PUSH1 0x0 DUP4 ISZERO PUSH2 0x971 JUMPI PUSH2 0x960 DUP7 PUSH2 0x16BC JUMP JUMPDEST PUSH5 0xFFFFFFFFFF AND PUSH1 0x80 DUP10 ADD MSTORE PUSH2 0x996 JUMP JUMPDEST PUSH2 0x97B DUP9 DUP8 PUSH2 0x16D8 JUMP JUMPDEST PUSH2 0x987 DUP6 DUP8 DUP11 DUP11 PUSH2 0x17B2 JUMP JUMPDEST PUSH2 0x993 DUP9 DUP9 DUP8 DUP10 PUSH2 0x1842 JUMP JUMPDEST SWAP1 POP JUMPDEST PUSH1 0x60 DUP9 ADD MLOAD PUSH2 0x9A5 SWAP1 DUP3 PUSH2 0x90D JUMP JUMPDEST PUSH1 0x60 DUP10 ADD DUP3 SWAP1 MSTORE SWAP2 POP PUSH4 0x5F5E100 DUP3 SGT PUSH2 0x9D1 JUMPI PUSH1 0x40 MLOAD PUSH3 0x461BCD PUSH1 0xE5 SHL DUP2 MSTORE PUSH1 0x4 ADD PUSH2 0xE6 SWAP1 PUSH2 0x51F8 JUMP JUMPDEST POP SWAP1 POP JUMPDEST SWAP6 SWAP5 POP POP POP POP POP JUMP JUMPDEST PUSH2 0x9E6 PUSH2 0x4E5D JUMP JUMPDEST PUSH2 0x9EE PUSH2 0x4E5D JUMP JUMPDEST PUSH2 0x9F8 DUP5 DUP5 PUSH2 0x18CB JUMP JUMPDEST PUSH1 0x20 DUP4 ADD MSTORE DUP2 MSTORE PUSH2 0xA09 DUP5 DUP5 PUSH2 0x1903 JUMP JUMPDEST PUSH1 0x60 DUP4 ADD MSTORE PUSH1 0x40 DUP3 ADD MSTORE SWAP4 SWAP3 POP POP POP JUMP JUMPDEST PUSH1 0x0 DUP2 PUSH1 0x1 EQ ISZERO PUSH2 0xA2F JUMPI POP PUSH3 0x76A700 PUSH2 0x768 JUMP JUMPDEST DUP2 PUSH1 0x2 EQ ISZERO PUSH2 0xA42 JUMPI POP PUSH3 0xED4E00 PUSH2 0x768 JUMP JUMPDEST DUP2 PUSH1 0x3 EQ ISZERO PUSH2 0xA56 JUMPI POP PUSH4 0x1DA9C00 PUSH2 0x768 JUMP JUMPDEST DUP2 PUSH1 0x4 EQ ISZERO PUSH2 0xA6A JUMPI POP PUSH4 0x3B53800 PUSH2 0x768 JUMP JUMPDEST DUP2 PUSH1 0x5 EQ ISZERO PUSH2 0xA7E JUMPI POP PUSH4 0x9450C00 PUSH2 0x768 JUMP JUMPDEST DUP2 PUSH1 0x6 EQ ISZERO PUSH2 0xA92 JUMPI POP PUSH4 0x128A1800 PUSH2 0x768 JUMP JUMPDEST DUP2 PUSH1 0x7 EQ ISZERO PUSH2 0xAA6 JUMPI POP PUSH4 0x25143000 PUSH2 0x768 JUMP JUMPDEST PUSH1 0x40 MLOAD PUSH3 0x461BCD PUSH1 0xE5 SHL DUP2 MSTORE PUSH1 0x4 ADD PUSH2 0xE6 SWAP1 PUSH2 0x50EA JUMP JUMPDEST PUSH1 0x0 DUP1 PUSH2 0xAD9 PUSH4 0x5F5E100 PUSH2 0xAD3 DUP10 DUP10 PUSH2 0x192D JUMP JUMPDEST SWAP1 PUSH2 0x197B JUMP JUMPDEST PUSH1 0x60 DUP6 ADD DUP2 SWAP1 MSTORE PUSH1 0x80 DUP6 ADD DUP2 SWAP1 MSTORE DUP4 MLOAD MLOAD PUSH1 0x20 DUP1 DUP8 ADD MLOAD SWAP1 DUP7 ADD MLOAD SWAP3 SWAP4 POP PUSH2 0xB08 SWAP3 SWAP2 PUSH2 0xFFFF AND SWAP1 DUP9 DUP6 PUSH2 0x19AC JUMP JUMPDEST DUP3 MLOAD PUSH1 0x40 ADD MLOAD PUSH2 0xB18 SWAP1 DUP3 PUSH2 0x1AA9 JUMP JUMPDEST SWAP8 SWAP7 POP POP POP POP POP POP POP JUMP JUMPDEST PUSH1 0x0 DUP3 DUP3 GT ISZERO PUSH2 0xB7A JUMPI PUSH1 0x40 DUP1 MLOAD PUSH3 0x461BCD PUSH1 0xE5 SHL DUP2 MSTORE PUSH1 0x20 PUSH1 0x4 DUP3 ADD MSTORE PUSH1 0x1E PUSH1 0x24 DUP3 ADD MSTORE PUSH32 0x536166654D6174683A207375627472616374696F6E206F766572666C6F770000 PUSH1 0x44 DUP3 ADD MSTORE SWAP1 MLOAD SWAP1 DUP2 SWAP1 SUB PUSH1 0x64 ADD SWAP1 REVERT JUMPDEST POP SWAP1 SUB SWAP1 JUMP JUMPDEST PUSH1 0x0 DUP3 PUSH1 0x1 GT ISZERO DUP1 ISZERO PUSH2 0xB97 JUMPI POP DUP4 PUSH1 0x20 ADD MLOAD DUP4 GT ISZERO JUMPDEST PUSH2 0xBA0 JUMPI PUSH1 0x0 DUP1 REVERT JUMPDEST PUSH1 0x60 DUP5 ADD MLOAD PUSH1 0x80 PUSH1 0x8 PUSH1 0x0 NOT DUP7 ADD MUL ADD SWAP1 PUSH1 0xFF SWAP1 DUP3 SHR AND PUSH4 0x3B9ACA00 MUL PUSH1 0x0 PUSH2 0xBD9 PUSH2 0xBCB DUP7 PUSH2 0x1AD4 JUMP JUMPDEST PUSH2 0xAD3 DUP5 PUSH4 0x1DA9C00 PUSH2 0x192D JUMP JUMPDEST SWAP1 POP PUSH1 0x0 DUP2 SGT PUSH2 0xBE8 JUMPI PUSH1 0x0 DUP1 REVERT JUMPDEST SWAP7 SWAP6 POP POP POP POP POP POP JUMP JUMPDEST PUSH1 0x0 PUSH2 0x7C7 PUSH2 0xC05 PUSH4 0x3B9ACA00 DUP5 PUSH2 0x14E8 JUMP JUMPDEST PUSH2 0xAD3 DUP6 DUP6 PUSH2 0x192D JUMP JUMPDEST PUSH1 0x0 DUP1 PUSH2 0xC1C DUP5 DUP5 PUSH2 0x1AEE JUMP JUMPDEST SWAP1 POP PUSH1 0x0 PUSH2 0xC2D DUP9 DUP9 DUP9 DUP6 DUP9 PUSH2 0x1B59 JUMP JUMPDEST SWAP9 SWAP8 POP POP POP POP POP POP POP POP JUMP JUMPDEST PUSH1 0x0 PUSH1 0x3 DUP4 MLOAD LT ISZERO PUSH2 0xC5D JUMPI PUSH1 0x40 MLOAD PUSH3 0x461BCD PUSH1 0xE5 SHL DUP2 MSTORE PUSH1 0x4 ADD PUSH2 0xE6 SWAP1 PUSH2 0x5111 JUMP JUMPDEST PUSH2 0x7C7 DUP4 PUSH1 0x1 DUP2 MLOAD DUP2 LT PUSH2 0xC6D JUMPI INVALID JUMPDEST PUSH1 0x20 MUL PUSH1 0x20 ADD ADD MLOAD PUSH1 0x20 ADD MLOAD DUP5 PUSH1 0x2 DUP2 MLOAD DUP2 LT PUSH2 0xC86 JUMPI INVALID JUMPDEST PUSH1 0x20 MUL PUSH1 0x20 ADD ADD MLOAD PUSH1 0x20 ADD MLOAD DUP6 PUSH1 0x1 DUP2 MLOAD DUP2 LT PUSH2 0xC9F JUMPI INVALID JUMPDEST PUSH1 0x20 MUL PUSH1 0x20 ADD ADD MLOAD PUSH1 0xC0 ADD MLOAD DUP7 PUSH1 0x2 DUP2 MLOAD DUP2 LT PUSH2 0xCB8 JUMPI INVALID JUMPDEST PUSH1 0x20 SWAP1 DUP2 MUL SWAP2 SWAP1 SWAP2 ADD ADD MLOAD PUSH1 0xC0 ADD MLOAD PUSH3 0xED4E00 DUP8 ADD PUSH2 0x1C16 JUMP JUMPDEST PUSH1 0x20 DUP2 ADD MLOAD PUSH1 0xC0 DUP3 ADD MLOAD PUSH1 0x0 SWAP2 SWAP1 PUSH3 0x76A700 DUP3 ADD DUP3 DUP8 LT PUSH2 0xD05 JUMPI PUSH1 0x40 MLOAD PUSH3 0x461BCD PUSH1 0xE5 SHL DUP2 MSTORE PUSH1 0x4 ADD PUSH2 0xE6 SWAP1 PUSH2 0x5191 JUMP JUMPDEST DUP6 DUP3 LT PUSH2 0xD34 JUMPI PUSH2 0xD2A DUP7 PUSH2 0x3D1 DUP10 DUP7 SUB PUSH2 0xD24 DUP4 DUP8 SUB DUP13 DUP8 SUB PUSH2 0x1C74 JUMP JUMPDEST SWAP1 PUSH2 0x1CCD JUMP JUMPDEST SWAP4 POP POP POP POP PUSH2 0x906 JUMP JUMPDEST PUSH1 0x0 PUSH2 0xD4A DUP9 DUP6 SUB PUSH2 0xD24 DUP6 DUP11 SUB DUP12 DUP7 SUB PUSH2 0x1C74 JUMP JUMPDEST SWAP1 POP DUP1 DUP8 GT PUSH2 0xD5A JUMPI PUSH1 0x1 PUSH2 0xD5E JUMP JUMPDEST DUP1 DUP8 SUB JUMPDEST SWAP5 POP POP POP POP POP PUSH2 0x906 JUMP JUMPDEST PUSH1 0x0 DUP1 PUSH2 0xD76 DUP4 DUP7 PUSH2 0x1AEE JUMP JUMPDEST SWAP1 POP PUSH1 0x0 PUSH2 0xD84 DUP8 DUP8 PUSH2 0x1AEE JUMP JUMPDEST SWAP1 POP PUSH1 0x0 PUSH2 0xDA4 PUSH2 0xD9F DUP8 PUSH2 0xD99 DUP6 DUP8 PUSH2 0x14E8 JUMP JUMPDEST SWAP1 PUSH2 0x1D34 JUMP JUMPDEST PUSH2 0x1D4D JUMP JUMPDEST SWAP1 POP PUSH2 0xDB6 DUP2 PUSH3 0x1DCD65 PUSH1 0x49 SHL PUSH2 0x1D80 JUMP JUMPDEST SWAP1 POP PUSH2 0xDC1 DUP2 PUSH2 0x1DD3 JUMP JUMPDEST SWAP1 POP PUSH1 0x0 PUSH2 0xDDC DUP3 PUSH2 0xDD7 DUP5 PUSH1 0x1 PUSH1 0x40 SHL PUSH2 0x1E28 JUMP JUMPDEST PUSH2 0x1D80 JUMP JUMPDEST SWAP1 POP PUSH2 0xDEE DUP2 PUSH3 0x1DCD65 PUSH1 0x49 SHL PUSH2 0x1E5B JUMP JUMPDEST SWAP1 POP PUSH2 0xDF9 DUP2 PUSH2 0x1E91 JUMP JUMPDEST PUSH1 0x7 SIGNEXTEND SWAP5 POP POP POP POP POP JUMPDEST SWAP5 SWAP4 POP POP POP POP JUMP JUMPDEST PUSH1 0x0 PUSH3 0x76A700 PUSH2 0xE1A TIMESTAMP PUSH2 0x74A JUMP JUMPDEST ADD SWAP1 POP PUSH2 0xE28 DUP5 DUP5 DUP4 PUSH2 0x1E9A JUMP JUMPDEST PUSH2 0xE4D DUP3 PUSH1 0xC0 ADD MLOAD DUP5 DUP7 PUSH1 0x20 ADD MLOAD DUP6 PUSH1 0x80 ADD MLOAD PUSH2 0xE48 DUP10 PUSH1 0x40 ADD MLOAD PUSH2 0x1F01 JUMP JUMPDEST PUSH2 0x1F0F JUMP JUMPDEST POP POP POP POP POP JUMP JUMPDEST PUSH1 0x0 DUP1 DUP1 DUP1 DUP1 DUP1 DUP1 DUP1 JUMPDEST DUP10 MLOAD MLOAD DUP2 LT ISZERO PUSH2 0xEE5 JUMPI PUSH1 0x0 DUP11 PUSH1 0x0 ADD MLOAD DUP3 DUP2 MLOAD DUP2 LT PUSH2 0xE7A JUMPI INVALID JUMPDEST PUSH1 0x20 MUL PUSH1 0x20 ADD ADD MLOAD SWAP1 POP PUSH1 0x3 DUP1 DUP2 GT ISZERO PUSH2 0xE90 JUMPI INVALID JUMPDEST DUP2 PUSH1 0xA0 ADD MLOAD PUSH1 0x3 DUP2 GT ISZERO PUSH2 0xEA0 JUMPI INVALID JUMPDEST EQ ISZERO PUSH2 0xEAB JUMPI PUSH1 0x0 DUP1 REVERT JUMPDEST PUSH1 0x2 DUP2 PUSH1 0xA0 ADD MLOAD PUSH1 0x3 DUP2 GT ISZERO PUSH2 0xEBD JUMPI INVALID JUMPDEST EQ ISZERO DUP1 ISZERO PUSH2 0xECD JUMPI POP PUSH1 0x60 DUP2 ADD MLOAD ISZERO JUMPDEST ISZERO PUSH2 0xEDC JUMPI PUSH2 0xEDC DUP12 DUP4 PUSH2 0x2079 JUMP JUMPDEST POP PUSH1 0x1 ADD PUSH2 0xE5E JUMP JUMPDEST POP PUSH1 0x0 JUMPDEST DUP10 MLOAD MLOAD DUP2 LT ISZERO PUSH2 0xF88 JUMPI PUSH1 0x0 DUP11 PUSH1 0x0 ADD MLOAD DUP3 DUP2 MLOAD DUP2 LT PUSH2 0xF05 JUMPI INVALID JUMPDEST PUSH1 0x20 MUL PUSH1 0x20 ADD ADD MLOAD SWAP1 POP PUSH1 0x2 PUSH1 0x3 DUP2 GT ISZERO PUSH2 0xF1C JUMPI INVALID JUMPDEST DUP2 PUSH1 0xA0 ADD MLOAD PUSH1 0x3 DUP2 GT ISZERO PUSH2 0xF2C JUMPI INVALID JUMPDEST EQ ISZERO PUSH2 0xF40 JUMPI PUSH1 0x80 DUP2 ADD MLOAD PUSH1 0x0 SWAP1 SSTORE PUSH2 0xF7F JUMP JUMPDEST PUSH1 0x1 DUP2 PUSH1 0xA0 ADD MLOAD PUSH1 0x3 DUP2 GT ISZERO PUSH2 0xF52 JUMPI INVALID JUMPDEST EQ ISZERO PUSH2 0xF6B JUMPI PUSH1 0x80 DUP2 ADD MLOAD DUP1 PUSH2 0xF68 DUP4 DUP3 PUSH2 0x21C9 JUMP JUMPDEST POP POP JUMPDEST PUSH2 0xF77 DUP2 DUP7 DUP7 DUP7 PUSH2 0x22F2 JUMP JUMPDEST SWAP2 SWAP7 POP SWAP5 POP SWAP3 POP JUMPDEST POP PUSH1 0x1 ADD PUSH2 0xEE9 JUMP JUMPDEST POP PUSH1 0x60 DUP10 ADD MLOAD PUSH1 0x0 PUSH2 0xF98 PUSH2 0x2355 JUMP JUMPDEST PUSH1 0x1 PUSH1 0x1 PUSH1 0xA0 SHL SUB DUP12 AND PUSH1 0x0 SWAP1 DUP2 MSTORE PUSH1 0x20 DUP3 SWAP1 MSTORE PUSH1 0x40 DUP2 KECCAK256 SWAP2 SWAP3 POP JUMPDEST DUP13 PUSH1 0x20 ADD MLOAD MLOAD DUP2 LT ISZERO PUSH2 0x1062 JUMPI PUSH1 0x0 DUP14 PUSH1 0x20 ADD MLOAD DUP3 DUP2 MLOAD DUP2 LT PUSH2 0xFD3 JUMPI INVALID JUMPDEST PUSH1 0x20 MUL PUSH1 0x20 ADD ADD MLOAD SWAP1 POP DUP1 PUSH1 0x60 ADD MLOAD PUSH1 0x0 EQ ISZERO PUSH2 0xFF0 JUMPI POP PUSH2 0x105A JUMP JUMPDEST PUSH1 0x2 DUP2 PUSH1 0xA0 ADD MLOAD PUSH1 0x3 DUP2 GT ISZERO PUSH2 0x1002 JUMPI INVALID JUMPDEST EQ ISZERO DUP1 ISZERO PUSH2 0x1020 JUMPI POP PUSH1 0x3 DUP2 PUSH1 0xA0 ADD MLOAD PUSH1 0x3 DUP2 GT ISZERO PUSH2 0x101D JUMPI INVALID JUMPDEST EQ ISZERO JUMPDEST PUSH2 0x1029 JUMPI PUSH1 0x0 DUP1 REVERT JUMPDEST PUSH2 0x1035 DUP2 DUP10 DUP10 DUP10 PUSH2 0x22F2 JUMP JUMPDEST SWAP2 SWAP10 POP SWAP8 POP SWAP6 POP PUSH2 0x1052 DUP2 DUP5 DUP8 PUSH1 0x10 DUP2 LT PUSH2 0x104C JUMPI INVALID JUMPDEST ADD PUSH2 0x21C9 JUMP JUMPDEST PUSH1 0x1 DUP6 ADD SWAP5 POP POP JUMPDEST PUSH1 0x1 ADD PUSH2 0xFB4 JUMP JUMPDEST POP PUSH1 0x10 DUP4 GT ISZERO DUP1 ISZERO PUSH2 0x1079 JUMPI POP PUSH5 0xFFFFFFFFFF DUP5 GT ISZERO JUMPDEST PUSH2 0x1082 JUMPI PUSH1 0x0 DUP1 REVERT JUMPDEST POP SWAP4 SWAP11 SWAP3 SWAP10 POP SWAP8 POP SWAP6 POP SWAP4 POP POP POP POP JUMP JUMPDEST PUSH4 0xFFFFFFFF DUP2 LT PUSH2 0x10A3 JUMPI PUSH1 0x0 DUP1 REVERT JUMPDEST PUSH1 0x0 PUSH2 0x10AD PUSH2 0x2362 JUMP JUMPDEST PUSH1 0x1 PUSH1 0x1 PUSH1 0xA0 SHL SUB SWAP1 SWAP5 AND PUSH1 0x0 SWAP1 DUP2 MSTORE PUSH1 0x20 SWAP5 SWAP1 SWAP5 MSTORE POP PUSH1 0x40 SWAP1 SWAP3 KECCAK256 DUP1 SLOAD PUSH1 0xFF SWAP1 SWAP3 AND PUSH1 0x1 PUSH1 0x50 SHL MUL PUSH1 0xFF PUSH1 0x50 SHL NOT PUSH4 0xFFFFFFFF SWAP1 SWAP5 AND PUSH1 0x1 PUSH1 0x30 SHL MUL PUSH10 0xFFFFFFFF000000000000 NOT SWAP1 SWAP4 AND SWAP3 SWAP1 SWAP3 OR SWAP3 SWAP1 SWAP3 AND OR SWAP1 SSTORE JUMP JUMPDEST PUSH2 0x1113 DUP2 PUSH2 0xFFFF AND PUSH2 0x236F JUMP JUMPDEST PUSH1 0x1 PUSH1 0x1 PUSH1 0xA0 SHL SUB AND PUSH1 0xC0 DUP4 ADD DUP2 SWAP1 MSTORE PUSH1 0x0 SWAP1 DUP2 SWAP1 DUP2 SWAP1 PUSH2 0x1133 SWAP1 PUSH2 0x2395 JUMP JUMPDEST SWAP5 POP SWAP5 POP SWAP5 POP POP POP PUSH1 0x0 PUSH2 0x114A DUP7 PUSH1 0xC0 ADD MLOAD PUSH2 0x23FE JUMP JUMPDEST POP POP PUSH1 0x80 DUP8 ADD DUP6 SWAP1 MSTORE PUSH1 0x40 DUP8 ADD DUP2 SWAP1 MSTORE PUSH1 0x1 PUSH1 0x1 PUSH1 0xD8 SHL SUB NOT DUP4 AND PUSH1 0xA0 DUP9 ADD MSTORE PUSH1 0xC0 DUP8 ADD MLOAD SWAP1 SWAP2 POP PUSH2 0x117E SWAP1 DUP5 PUSH1 0x0 PUSH2 0x245F JUMP JUMPDEST PUSH1 0x20 DUP8 ADD MSTORE PUSH1 0xC0 DUP7 ADD MLOAD PUSH2 0x1196 SWAP1 PUSH2 0xFFFF DUP8 AND PUSH2 0x24F2 JUMP JUMPDEST POP POP POP PUSH1 0x60 SWAP1 SWAP7 ADD SWAP6 SWAP1 SWAP6 MSTORE POP POP POP POP POP JUMP JUMPDEST PUSH2 0x11B1 PUSH2 0x4E85 JUMP JUMPDEST PUSH1 0x0 PUSH2 0x11C0 DUP4 PUSH2 0xFFFF AND PUSH2 0x259B JUMP JUMPDEST SWAP1 POP PUSH2 0x906 DUP4 DUP3 PUSH2 0x25E7 JUMP JUMPDEST PUSH1 0x0 DUP1 PUSH2 0x11D7 PUSH2 0x262A JUMP JUMPDEST PUSH1 0x1 PUSH1 0x1 PUSH1 0xA0 SHL SUB DUP6 AND PUSH1 0x0 SWAP1 DUP2 MSTORE PUSH1 0x20 SWAP2 DUP3 MSTORE PUSH1 0x40 DUP1 DUP3 KECCAK256 DUP7 DUP4 MSTORE SWAP1 SWAP3 MSTORE KECCAK256 SLOAD SWAP2 POP POP SWAP3 SWAP2 POP POP JUMP JUMPDEST PUSH1 0x0 DUP2 PUSH2 0x1210 JUMPI POP PUSH1 0x0 PUSH2 0x768 JUMP JUMPDEST PUSH2 0x1219 DUP3 PUSH2 0x2637 JUMP JUMPDEST PUSH1 0xFF SUB PUSH1 0x1 ADD SWAP1 POP SWAP2 SWAP1 POP JUMP JUMPDEST PUSH1 0x0 DUP2 PUSH2 0x1232 JUMPI PUSH1 0x0 DUP1 REVERT JUMPDEST PUSH2 0x100 DUP3 GT ISZERO PUSH2 0x1241 JUMPI PUSH1 0x0 DUP1 REVERT JUMPDEST PUSH1 0x0 PUSH2 0x124C DUP5 PUSH2 0x16BC JUMP JUMPDEST SWAP1 POP PUSH1 0x0 PUSH1 0x5A DUP5 GT PUSH2 0x1267 JUMPI POP PUSH3 0x15180 DUP4 MUL ADD SWAP1 POP PUSH2 0x7CA JUMP JUMPDEST PUSH1 0x87 DUP5 GT PUSH2 0x128F JUMPI POP PUSH1 0x59 NOT DUP4 ADD PUSH3 0x7E900 SWAP1 DUP2 MUL SWAP1 DUP3 MOD SWAP1 SWAP2 SUB ADD PUSH3 0x76A700 ADD SWAP1 POP PUSH2 0x7CA JUMP JUMPDEST PUSH1 0xC3 DUP5 GT PUSH2 0x12B8 JUMPI POP PUSH1 0x86 NOT DUP4 ADD PUSH3 0x278D00 SWAP1 DUP2 MUL SWAP1 DUP3 MOD SWAP1 SWAP2 SUB ADD PUSH4 0x1DA9C00 ADD SWAP1 POP PUSH2 0x7CA JUMP JUMPDEST POP PUSH1 0xC2 NOT DUP4 ADD PUSH3 0x76A700 SWAP1 DUP2 MUL SWAP1 DUP3 MOD SWAP1 SWAP2 SUB ADD PUSH4 0xB1FA800 ADD SWAP1 POP PUSH2 0x7CA JUMP JUMPDEST PUSH1 0x0 DUP1 DUP5 GT PUSH2 0x12FA JUMPI PUSH1 0x40 MLOAD PUSH3 0x461BCD PUSH1 0xE5 SHL DUP2 MSTORE PUSH1 0x4 ADD PUSH2 0xE6 SWAP1 PUSH2 0x50BB JUMP JUMPDEST PUSH1 0x7 DUP5 GT ISZERO PUSH2 0x131B JUMPI PUSH1 0x40 MLOAD PUSH3 0x461BCD PUSH1 0xE5 SHL DUP2 MSTORE PUSH1 0x4 ADD PUSH2 0xE6 SWAP1 PUSH2 0x51C8 JUMP JUMPDEST PUSH3 0x76A700 DUP4 MOD ISZERO PUSH2 0x132E JUMPI POP PUSH1 0x0 PUSH2 0x906 JUMP JUMPDEST PUSH1 0x0 PUSH2 0x1339 DUP4 PUSH2 0x74A JUMP JUMPDEST SWAP1 POP PUSH1 0x1 JUMPDEST DUP6 DUP2 GT PUSH2 0x1372 JUMPI PUSH2 0x1358 PUSH2 0x1351 DUP3 PUSH2 0xA1A JUMP JUMPDEST DUP4 SWAP1 PUSH2 0x76D JUMP JUMPDEST DUP6 EQ ISZERO PUSH2 0x136A JUMPI PUSH1 0x1 SWAP3 POP POP POP PUSH2 0x906 JUMP JUMPDEST PUSH1 0x1 ADD PUSH2 0x133E JUMP JUMPDEST POP PUSH1 0x0 SWAP6 SWAP5 POP POP POP POP POP JUMP JUMPDEST PUSH1 0x0 DUP1 PUSH2 0x1389 PUSH2 0x26D0 JUMP JUMPDEST PUSH1 0x1 PUSH1 0x1 PUSH1 0xA0 SHL SUB DUP7 AND PUSH1 0x0 SWAP1 DUP2 MSTORE PUSH1 0x20 SWAP2 DUP3 MSTORE PUSH1 0x40 DUP1 DUP3 KECCAK256 DUP8 DUP4 MSTORE DUP4 MSTORE DUP1 DUP3 KECCAK256 DUP7 DUP4 MSTORE SWAP1 SWAP3 MSTORE KECCAK256 SLOAD PUSH1 0xF SWAP1 DUP2 SIGNEXTEND SWAP1 SIGNEXTEND SWAP2 POP POP SWAP4 SWAP3 POP POP POP JUMP JUMPDEST PUSH1 0x0 DUP1 PUSH1 0x0 PUSH2 0x13D7 DUP7 PUSH1 0x20 ADD MLOAD DUP7 DUP7 PUSH2 0x26DD JUMP JUMPDEST SWAP2 POP SWAP2 POP PUSH1 0x0 PUSH2 0x13E6 DUP8 PUSH2 0x27A5 JUMP JUMPDEST SWAP1 POP DUP2 PUSH2 0x13FF JUMPI DUP7 MLOAD PUSH2 0xD2A SWAP1 PUSH2 0xFFFF AND DUP8 DUP4 DUP9 PUSH2 0x27B9 JUMP JUMPDEST PUSH1 0x0 PUSH2 0x140A DUP7 PUSH2 0x74A JUMP JUMPDEST SWAP1 POP PUSH1 0x0 PUSH2 0x141A PUSH2 0x1351 DUP7 PUSH2 0xA1A JUMP JUMPDEST SWAP1 POP PUSH1 0x0 PUSH2 0x1432 DUP11 PUSH1 0x0 ADD MLOAD PUSH2 0xFFFF AND DUP4 DUP7 DUP12 PUSH2 0x27B9 JUMP JUMPDEST SWAP1 POP PUSH1 0x0 DUP1 DUP8 PUSH1 0x1 EQ ISZERO PUSH2 0x1457 JUMPI DUP10 SWAP2 POP PUSH2 0x1450 DUP13 PUSH1 0x40 ADD MLOAD PUSH2 0x2858 JUMP JUMPDEST SWAP1 POP PUSH2 0x1486 JUMP JUMPDEST PUSH2 0x146D PUSH2 0x1466 PUSH1 0x1 DUP11 SUB PUSH2 0xA1A JUMP JUMPDEST DUP7 SWAP1 PUSH2 0x76D JUMP JUMPDEST SWAP2 POP PUSH2 0x1483 DUP13 PUSH1 0x0 ADD MLOAD PUSH2 0xFFFF AND DUP4 DUP9 DUP14 PUSH2 0x27B9 JUMP JUMPDEST SWAP1 POP JUMPDEST PUSH2 0x1493 DUP3 DUP6 DUP4 DUP7 DUP16 PUSH2 0x1C16 JUMP JUMPDEST SWAP9 POP POP POP POP POP POP POP POP POP PUSH2 0x906 JUMP JUMPDEST PUSH1 0x0 DUP5 PUSH2 0x14B1 JUMPI POP PUSH1 0x0 PUSH2 0xE03 JUMP JUMPDEST PUSH1 0x0 PUSH2 0x14BD DUP6 DUP6 PUSH2 0xB23 JUMP JUMPDEST SWAP1 POP PUSH1 0x0 PUSH2 0x14CB DUP3 DUP6 PUSH2 0x28E9 JUMP JUMPDEST SWAP1 POP PUSH4 0x3B9ACA00 DUP2 SGT ISZERO PUSH2 0x14DE JUMPI PUSH1 0x0 DUP1 REVERT JUMPDEST PUSH2 0xB18 DUP8 DUP3 PUSH2 0x1D34 JUMP JUMPDEST DUP1 DUP3 SUB DUP3 DUP2 SGT ISZERO PUSH1 0x0 DUP4 SLT ISZERO EQ PUSH2 0x7CA JUMPI PUSH1 0x0 DUP1 REVERT JUMPDEST PUSH1 0x0 PUSH1 0x1 DUP4 LT ISZERO DUP1 ISZERO PUSH2 0x1513 JUMPI POP PUSH2 0x100 DUP4 GT ISZERO JUMPDEST PUSH2 0x151C JUMPI PUSH1 0x0 DUP1 REVERT JUMPDEST DUP2 ISZERO PUSH2 0x1535 JUMPI POP PUSH1 0x1 PUSH1 0xFF SHL PUSH1 0x0 NOT DUP4 ADD SHR DUP4 OR PUSH2 0x906 JUMP JUMPDEST POP PUSH1 0x1 PUSH1 0xFF SHL PUSH1 0x0 NOT DUP4 ADD SHR NOT DUP4 AND PUSH2 0x906 JUMP JUMPDEST PUSH1 0x0 DUP1 PUSH2 0xE03 DUP5 PUSH1 0x20 ADD MLOAD PUSH2 0xAD3 DUP7 PUSH1 0x40 ADD MLOAD PUSH2 0x1574 PUSH5 0x2540BE400 DUP9 PUSH2 0x192D SWAP1 SWAP2 SWAP1 PUSH4 0xFFFFFFFF AND JUMP JUMPDEST SWAP1 PUSH2 0x192D JUMP JUMPDEST PUSH1 0x0 PUSH2 0x1584 PUSH2 0x2951 JUMP JUMPDEST PUSH1 0x1 PUSH1 0x1 PUSH1 0xA0 SHL SUB DUP9 AND PUSH1 0x0 SWAP1 DUP2 MSTORE PUSH1 0x20 DUP3 DUP2 MSTORE PUSH1 0x40 DUP1 DUP4 KECCAK256 DUP11 DUP5 MSTORE SWAP1 SWAP2 MSTORE SWAP1 KECCAK256 SWAP1 SWAP2 POP PUSH1 0x1 PUSH1 0x1 PUSH1 0x57 SHL SUB NOT DUP7 SLT DUP1 ISZERO SWAP1 PUSH2 0x15C7 JUMPI POP PUSH1 0x1 PUSH1 0x1 PUSH1 0x57 SHL SUB DUP7 SGT ISZERO JUMPDEST PUSH2 0x15D0 JUMPI PUSH1 0x0 DUP1 REVERT JUMPDEST PUSH1 0x0 DUP6 SLT ISZERO DUP1 ISZERO PUSH2 0x15E8 JUMPI POP PUSH1 0x1 PUSH1 0x1 PUSH1 0x50 SHL SUB DUP6 SGT ISZERO JUMPDEST PUSH2 0x15F1 JUMPI PUSH1 0x0 DUP1 REVERT JUMPDEST DUP4 PUSH2 0x1631 JUMPI PUSH7 0xFFFFFFFFFFFFFF DUP4 GT ISZERO PUSH2 0x160A JUMPI PUSH1 0x0 DUP1 REVERT JUMPDEST DUP1 SLOAD PUSH7 0xFFFFFFFFFFFFFF PUSH1 0x70 SHL NOT AND PUSH1 0x1 PUSH1 0x70 SHL PUSH7 0xFFFFFFFFFFFFFF DUP6 AND MUL OR DUP2 SSTORE PUSH2 0x164B JUMP JUMPDEST DUP1 SLOAD PUSH1 0x1 PUSH1 0x50 SHL SWAP1 DIV PUSH4 0xFFFFFFFF AND DUP5 EQ PUSH2 0x164B JUMPI PUSH1 0x0 DUP1 REVERT JUMPDEST DUP1 SLOAD PUSH1 0xA SWAP7 SWAP1 SWAP7 SIGNEXTEND PUSH11 0xFFFFFFFFFFFFFFFFFFFFFF AND PUSH1 0x1 PUSH1 0xA8 SHL MUL PUSH1 0x1 PUSH1 0x1 PUSH1 0xA8 SHL SUB PUSH1 0x1 PUSH1 0x1 PUSH1 0x50 SHL SUB SWAP1 SWAP7 AND PUSH10 0xFFFFFFFFFFFFFFFFFFFF NOT PUSH4 0xFFFFFFFF SWAP1 SWAP7 AND PUSH1 0x1 PUSH1 0x50 SHL MUL PUSH4 0xFFFFFFFF PUSH1 0x50 SHL NOT SWAP1 SWAP9 AND SWAP8 SWAP1 SWAP8 OR SWAP5 SWAP1 SWAP5 AND SWAP6 SWAP1 SWAP6 OR SWAP4 SWAP1 SWAP4 AND SWAP2 SWAP1 SWAP2 OR SWAP1 SWAP3 SSTORE POP POP POP POP JUMP JUMPDEST PUSH1 0x0 PUSH3 0x15180 DUP3 LT ISZERO PUSH2 0x16CE JUMPI PUSH1 0x0 DUP1 REVERT JUMPDEST PUSH3 0x15180 DUP3 PUSH2 0x762 JUMP JUMPDEST PUSH1 0x0 PUSH2 0x16E3 DUP3 PUSH2 0x74A JUMP JUMPDEST SWAP1 POP DUP1 DUP4 PUSH1 0x80 ADD MLOAD LT PUSH2 0x1708 JUMPI PUSH1 0x40 MLOAD PUSH3 0x461BCD PUSH1 0xE5 SHL DUP2 MSTORE PUSH1 0x4 ADD PUSH2 0xE6 SWAP1 PUSH2 0x5253 JUMP JUMPDEST PUSH1 0x0 PUSH2 0x1718 DUP5 PUSH1 0x20 ADD MLOAD DUP5 PUSH2 0x295E JUMP JUMPDEST SWAP1 POP PUSH2 0x1749 DUP2 PUSH1 0x0 DUP2 MLOAD DUP2 LT PUSH2 0x172A JUMPI INVALID JUMPDEST PUSH1 0x20 MUL PUSH1 0x20 ADD ADD MLOAD PUSH1 0x20 ADD MLOAD DUP6 PUSH1 0x60 ADD MLOAD PUSH2 0x2B5C SWAP1 SWAP2 SWAP1 PUSH4 0xFFFFFFFF AND JUMP JUMPDEST PUSH1 0x60 DUP6 ADD MSTORE POP PUSH1 0xC0 DUP4 ADD MLOAD DUP4 MLOAD MLOAD PUSH1 0x80 DUP6 ADD MLOAD PUSH1 0x0 SWAP3 DUP4 SWAP3 PUSH2 0x1772 SWAP3 PUSH2 0xFFFF SWAP1 SWAP2 AND SWAP1 DUP8 PUSH2 0x2B72 JUMP JUMPDEST PUSH1 0x60 DUP8 ADD MLOAD SWAP2 SWAP4 POP SWAP2 POP PUSH2 0x1786 SWAP1 DUP4 PUSH2 0x2B5C JUMP JUMPDEST PUSH1 0x60 DUP7 ADD MSTORE PUSH5 0xFFFFFFFFFF DUP2 GT ISZERO PUSH2 0x179D JUMPI PUSH1 0x0 DUP1 REVERT JUMPDEST PUSH5 0xFFFFFFFFFF AND PUSH1 0x80 SWAP1 SWAP5 ADD SWAP4 SWAP1 SWAP4 MSTORE POP POP POP JUMP JUMPDEST PUSH1 0x0 PUSH2 0x17C1 DUP4 PUSH1 0x0 ADD MLOAD PUSH2 0x27A5 JUMP JUMPDEST SWAP1 POP PUSH1 0x0 PUSH2 0x17CE DUP6 PUSH2 0x74A JUMP JUMPDEST SWAP1 POP PUSH1 0x1 JUMPDEST PUSH1 0x20 DUP6 ADD MLOAD MLOAD MLOAD DUP2 LT ISZERO PUSH2 0x1839 JUMPI PUSH2 0x1831 DUP8 DUP7 PUSH1 0x20 ADD MLOAD PUSH1 0x0 ADD MLOAD DUP4 DUP2 MLOAD DUP2 LT PUSH2 0x17F9 JUMPI INVALID JUMPDEST PUSH1 0x20 MUL PUSH1 0x20 ADD ADD MLOAD PUSH1 0x20 ADD MLOAD DUP9 PUSH1 0x0 DUP8 DUP8 DUP11 DUP9 DUP2 MLOAD DUP2 LT PUSH2 0x1816 JUMPI INVALID JUMPDEST PUSH1 0x20 MUL PUSH1 0x20 ADD ADD MLOAD PUSH2 0x2C97 SWAP1 SWAP7 SWAP6 SWAP5 SWAP4 SWAP3 SWAP2 SWAP1 PUSH4 0xFFFFFFFF AND JUMP JUMPDEST PUSH1 0x1 ADD PUSH2 0x17D3 JUMP JUMPDEST POP POP POP POP POP POP POP JUMP JUMPDEST PUSH1 0x0 PUSH1 0x1 JUMPDEST PUSH1 0x20 DUP7 ADD MLOAD MLOAD MLOAD DUP2 LT ISZERO PUSH2 0x18BF JUMPI PUSH1 0x0 DUP7 PUSH1 0x20 ADD MLOAD PUSH1 0x0 ADD MLOAD DUP3 DUP2 MLOAD DUP2 LT PUSH2 0x186B JUMPI INVALID JUMPDEST PUSH1 0x20 MUL PUSH1 0x20 ADD ADD MLOAD SWAP1 POP PUSH1 0x1 PUSH1 0xFF AND DUP2 PUSH1 0x40 ADD MLOAD EQ PUSH2 0x1889 JUMPI PUSH1 0x0 DUP1 REVERT JUMPDEST PUSH2 0x18A6 DUP8 PUSH1 0xC0 ADD MLOAD DUP7 DUP4 PUSH1 0x20 ADD MLOAD DUP11 PUSH1 0x80 ADD MLOAD DUP6 PUSH1 0x60 ADD MLOAD PUSH2 0x1F0F JUMP JUMPDEST POP PUSH1 0x20 DUP8 ADD MLOAD PUSH2 0x18B6 SWAP1 DUP4 PUSH2 0x2079 JUMP JUMPDEST POP PUSH1 0x1 ADD PUSH2 0x1847 JUMP JUMPDEST POP PUSH2 0x9D5 DUP6 DUP6 DUP5 PUSH2 0x7D0 JUMP JUMPDEST PUSH1 0x60 DUP1 PUSH1 0x0 PUSH2 0x18D8 PUSH2 0x2CCE JUMP JUMPDEST PUSH1 0x0 DUP7 DUP2 MSTORE PUSH1 0x20 DUP3 SWAP1 MSTORE PUSH1 0x40 DUP2 KECCAK256 SWAP2 SWAP3 POP PUSH2 0x18F6 SWAP1 DUP3 SWAP1 DUP8 SWAP1 PUSH2 0x2CDB JUMP JUMPDEST SWAP1 SWAP8 SWAP1 SWAP7 POP SWAP5 POP POP POP POP POP JUMP JUMPDEST PUSH1 0x60 DUP1 PUSH1 0x0 PUSH2 0x1910 PUSH2 0x2E7A JUMP JUMPDEST PUSH1 0x0 DUP7 DUP2 MSTORE PUSH1 0x20 DUP3 SWAP1 MSTORE PUSH1 0x40 SWAP1 KECCAK256 SWAP1 SWAP2 POP PUSH2 0x18F6 DUP2 DUP7 PUSH1 0x1 PUSH2 0x2CDB JUMP JUMPDEST DUP2 DUP2 MUL PUSH1 0x0 NOT DUP4 EQ ISZERO PUSH2 0x195D JUMPI DUP2 ISZERO DUP1 PUSH2 0x194F JUMPI POP DUP3 DUP3 DUP3 DUP2 PUSH2 0x194C JUMPI INVALID JUMPDEST SDIV EQ JUMPDEST PUSH2 0x1958 JUMPI PUSH1 0x0 DUP1 REVERT JUMPDEST PUSH2 0x7CA JUMP JUMPDEST DUP3 ISZERO DUP1 PUSH2 0x1972 JUMPI POP DUP2 DUP4 DUP3 DUP2 PUSH2 0x196F JUMPI INVALID JUMPDEST SDIV EQ JUMPDEST PUSH2 0x7CA JUMPI PUSH1 0x0 DUP1 REVERT JUMPDEST PUSH1 0x0 DUP2 PUSH1 0x0 NOT EQ DUP1 ISZERO PUSH2 0x1991 JUMPI POP PUSH1 0x1 PUSH1 0xFF SHL DUP4 EQ JUMPDEST ISZERO PUSH2 0x199B JUMPI PUSH1 0x0 DUP1 REVERT JUMPDEST DUP2 DUP4 DUP2 PUSH2 0x19A4 JUMPI INVALID JUMPDEST SDIV SWAP4 SWAP3 POP POP POP JUMP JUMPDEST DUP5 MLOAD PUSH2 0x19BB SWAP1 DUP6 DUP6 DUP6 DUP6 PUSH2 0x2E87 JUMP JUMPDEST ISZERO PUSH2 0x19C5 JUMPI PUSH2 0xE4D JUMP JUMPDEST PUSH1 0x40 DUP6 ADD MLOAD ISZERO PUSH2 0x19F2 JUMPI PUSH1 0x0 PUSH2 0x19E2 DUP7 PUSH1 0x20 ADD MLOAD DUP7 DUP7 DUP7 DUP7 PUSH2 0x2E87 JUMP JUMPDEST SWAP1 POP DUP1 ISZERO PUSH2 0x19F0 JUMPI POP PUSH2 0xE4D JUMP JUMPDEST POP JUMPDEST PUSH2 0x19FB DUP3 PUSH2 0x2F98 JUMP JUMPDEST ISZERO PUSH2 0x1A0E JUMPI PUSH1 0x0 DUP2 SLT ISZERO PUSH2 0x1A0E JUMPI PUSH1 0x0 DUP1 REVERT JUMPDEST PUSH1 0x1 PUSH1 0x1 PUSH1 0x57 SHL SUB NOT DUP2 SLT DUP1 ISZERO SWAP1 PUSH2 0x1A2D JUMPI POP PUSH1 0x1 PUSH1 0x1 PUSH1 0x57 SHL SUB DUP2 SGT ISZERO JUMPDEST PUSH2 0x1A36 JUMPI PUSH1 0x0 DUP1 REVERT JUMPDEST DUP5 PUSH1 0x20 ADD MLOAD MLOAD DUP6 PUSH1 0x40 ADD MLOAD EQ ISZERO PUSH2 0x1A5A JUMPI PUSH2 0x1A54 DUP6 PUSH1 0x20 ADD MLOAD PUSH2 0x2FAE JUMP JUMPDEST PUSH1 0x20 DUP7 ADD MSTORE JUMPDEST PUSH1 0x0 DUP6 PUSH1 0x20 ADD MLOAD DUP7 PUSH1 0x40 ADD MLOAD DUP2 MLOAD DUP2 LT PUSH2 0x1A70 JUMPI INVALID JUMPDEST PUSH1 0x20 SWAP1 DUP2 MUL SWAP2 SWAP1 SWAP2 ADD DUP2 ADD MLOAD SWAP6 DUP7 MSTORE DUP6 ADD SWAP4 SWAP1 SWAP4 MSTORE PUSH1 0x40 DUP1 DUP6 ADD SWAP3 SWAP1 SWAP3 MSTORE PUSH1 0x60 DUP5 ADD MSTORE PUSH1 0x0 PUSH1 0xA0 SWAP1 SWAP4 ADD SWAP3 SWAP1 SWAP3 MSTORE POP ADD DUP1 MLOAD PUSH1 0x1 ADD SWAP1 MSTORE JUMP JUMPDEST PUSH1 0x0 DUP1 PUSH2 0xE03 DUP5 PUSH1 0x40 ADD MLOAD PUSH2 0xAD3 PUSH5 0x2540BE400 PUSH2 0xAD3 DUP8 DUP10 PUSH1 0x20 ADD MLOAD PUSH2 0x192D SWAP1 SWAP2 SWAP1 PUSH4 0xFFFFFFFF AND JUMP JUMPDEST PUSH1 0x0 PUSH1 0x1 PUSH1 0x1 PUSH1 0xFF SHL SUB DUP3 GT ISZERO PUSH2 0x1AEA JUMPI PUSH1 0x0 DUP1 REVERT JUMPDEST POP SWAP1 JUMP JUMPDEST PUSH1 0x0 DUP1 PUSH2 0x1B0B PUSH2 0x1B06 PUSH4 0x1DA9C00 PUSH2 0xD24 DUP8 DUP8 PUSH2 0x1C74 JUMP JUMPDEST PUSH2 0x3067 JUMP JUMPDEST SWAP1 POP PUSH1 0x0 PUSH2 0x1B1F DUP3 PUSH3 0x1DCD65 PUSH1 0x49 SHL PUSH2 0x1D80 JUMP JUMPDEST SWAP1 POP PUSH1 0x0 PUSH2 0x1B2C DUP3 PUSH2 0x1DD3 JUMP JUMPDEST SWAP1 POP PUSH1 0x0 PUSH2 0x1B40 DUP3 PUSH3 0x1DCD65 PUSH1 0x49 SHL PUSH2 0x1E5B JUMP JUMPDEST SWAP1 POP PUSH2 0x1B4B DUP2 PUSH2 0x1E91 JUMP JUMPDEST PUSH1 0x7 SIGNEXTEND SWAP8 SWAP7 POP POP POP POP POP POP POP JUMP JUMPDEST PUSH1 0x0 DUP1 PUSH1 0x0 PUSH2 0x1B6C DUP9 DUP9 DUP9 DUP9 PUSH1 0x0 PUSH2 0x307E JUMP JUMPDEST SWAP2 POP SWAP2 POP DUP1 PUSH2 0x1B80 JUMPI PUSH1 0x0 SWAP3 POP POP POP PUSH2 0x9D5 JUMP JUMPDEST PUSH1 0x0 PUSH2 0x1B8B DUP4 PUSH2 0x1D4D JUMP JUMPDEST SWAP1 POP PUSH1 0x0 PUSH2 0x1B9F DUP3 PUSH3 0x1DCD65 PUSH1 0x49 SHL PUSH2 0x1D80 JUMP JUMPDEST SWAP1 POP PUSH1 0x0 PUSH2 0x1BAC DUP3 PUSH2 0x3134 JUMP JUMPDEST SWAP1 POP PUSH1 0x0 PUSH2 0x1BC8 PUSH2 0x1BC3 DUP4 PUSH3 0x1DCD65 PUSH1 0x49 SHL PUSH2 0x1E5B JUMP JUMPDEST PUSH2 0x316E JUMP JUMPDEST PUSH8 0xFFFFFFFFFFFFFFFF AND SWAP1 POP PUSH1 0x0 PUSH2 0x1BE8 DUP10 PUSH2 0xD24 DUP5 PUSH4 0x1DA9C00 PUSH2 0x1C74 JUMP JUMPDEST SWAP1 POP PUSH4 0xFFFFFFFF DUP2 GT ISZERO PUSH2 0x1C06 JUMPI PUSH1 0x0 SWAP8 POP POP POP POP POP POP POP POP PUSH2 0x9D5 JUMP JUMPDEST SWAP13 SWAP12 POP POP POP POP POP POP POP POP POP POP POP POP JUMP JUMPDEST PUSH1 0x0 DUP2 DUP7 LT PUSH2 0x1C24 JUMPI PUSH1 0x0 DUP1 REVERT JUMPDEST DUP5 DUP3 LT PUSH2 0x1C30 JUMPI PUSH1 0x0 DUP1 REVERT JUMPDEST DUP4 DUP4 LT PUSH2 0x1C56 JUMPI PUSH2 0x1C4F DUP5 PUSH2 0x3D1 DUP9 DUP9 SUB PUSH2 0xD24 DUP4 DUP9 SUB DUP12 DUP9 SUB PUSH2 0x1C74 JUMP JUMPDEST SWAP1 POP PUSH2 0x9D5 JUMP JUMPDEST PUSH2 0x1C4F PUSH2 0x1C6D DUP8 DUP8 SUB PUSH2 0xD24 DUP7 DUP9 SUB DUP11 DUP8 SUB PUSH2 0x1C74 JUMP JUMPDEST DUP6 SWAP1 PUSH2 0xB23 JUMP JUMPDEST PUSH1 0x0 DUP3 PUSH2 0x1C83 JUMPI POP PUSH1 0x0 PUSH2 0x7CA JUMP JUMPDEST DUP3 DUP3 MUL DUP3 DUP5 DUP3 DUP2 PUSH2 0x1C90 JUMPI INVALID JUMPDEST DIV EQ PUSH2 0x7C7 JUMPI PUSH1 0x40 MLOAD PUSH3 0x461BCD PUSH1 0xE5 SHL DUP2 MSTORE PUSH1 0x4 ADD DUP1 DUP1 PUSH1 0x20 ADD DUP3 DUP2 SUB DUP3 MSTORE PUSH1 0x21 DUP2 MSTORE PUSH1 0x20 ADD DUP1 PUSH2 0x5376 PUSH1 0x21 SWAP2 CODECOPY PUSH1 0x40 ADD SWAP2 POP POP PUSH1 0x40 MLOAD DUP1 SWAP2 SUB SWAP1 REVERT JUMPDEST PUSH1 0x0 DUP1 DUP3 GT PUSH2 0x1D23 JUMPI PUSH1 0x40 DUP1 MLOAD PUSH3 0x461BCD PUSH1 0xE5 SHL DUP2 MSTORE PUSH1 0x20 PUSH1 0x4 DUP3 ADD MSTORE PUSH1 0x1A PUSH1 0x24 DUP3 ADD MSTORE PUSH32 0x536166654D6174683A206469766973696F6E206279207A65726F000000000000 PUSH1 0x44 DUP3 ADD MSTORE SWAP1 MLOAD SWAP1 DUP2 SWAP1 SUB PUSH1 0x64 ADD SWAP1 REVERT JUMPDEST DUP2 DUP4 DUP2 PUSH2 0x1D2C JUMPI INVALID JUMPDEST DIV SWAP4 SWAP3 POP POP POP JUMP JUMPDEST PUSH1 0x0 PUSH2 0x7C7 PUSH2 0x1D43 DUP5 DUP5 PUSH2 0x192D JUMP JUMPDEST PUSH4 0x3B9ACA00 PUSH2 0x197B JUMP JUMPDEST PUSH1 0x0 PUSH8 0x7FFFFFFFFFFFFFFF NOT DUP3 SLT ISZERO DUP1 ISZERO PUSH2 0x1D70 JUMPI POP PUSH8 0x7FFFFFFFFFFFFFFF DUP3 SGT ISZERO JUMPDEST PUSH2 0x1D79 JUMPI PUSH1 0x0 DUP1 REVERT JUMPDEST POP PUSH1 0x40 SHL SWAP1 JUMP JUMPDEST PUSH1 0x0 DUP2 PUSH1 0xF SIGNEXTEND PUSH1 0x0 EQ ISZERO PUSH2 0x1D93 JUMPI PUSH1 0x0 DUP1 REVERT JUMPDEST PUSH1 0x0 DUP3 PUSH1 0xF SIGNEXTEND PUSH1 0x40 DUP6 PUSH1 0xF SIGNEXTEND SWAP1 SHL DUP2 PUSH2 0x1DA8 JUMPI INVALID JUMPDEST SDIV SWAP1 POP PUSH1 0x1 PUSH1 0x1 PUSH1 0x7F SHL SUB NOT DUP2 SLT DUP1 ISZERO SWAP1 PUSH2 0x1DCA JUMPI POP PUSH1 0x1 PUSH1 0x1 PUSH1 0x7F SHL SUB DUP2 SGT ISZERO JUMPDEST PUSH2 0x7C7 JUMPI PUSH1 0x0 DUP1 REVERT JUMPDEST PUSH1 0x0 PUSH1 0x1 PUSH1 0x46 SHL DUP3 PUSH1 0xF SIGNEXTEND SLT PUSH2 0x1DE8 JUMPI PUSH1 0x0 DUP1 REVERT JUMPDEST PUSH9 0x3FFFFFFFFFFFFFFFFF NOT DUP3 PUSH1 0xF SIGNEXTEND SLT ISZERO PUSH2 0x1E05 JUMPI POP PUSH1 0x0 PUSH2 0x768 JUMP JUMPDEST PUSH2 0x7CA PUSH1 0x80 DUP4 PUSH1 0xF SIGNEXTEND PUSH17 0x171547652B82FE1777D0FFDA0D23A7D12 MUL SWAP1 SAR PUSH2 0x318A JUMP JUMPDEST PUSH1 0x0 PUSH1 0xF DUP4 DUP2 SIGNEXTEND SWAP1 DUP4 SWAP1 SIGNEXTEND ADD PUSH1 0x1 PUSH1 0x1 PUSH1 0x7F SHL SUB NOT DUP2 SLT DUP1 ISZERO SWAP1 PUSH2 0x1DCA JUMPI POP PUSH1 0x1 PUSH1 0x1 PUSH1 0x7F SHL SUB DUP2 SGT ISZERO PUSH2 0x7C7 JUMPI PUSH1 0x0 DUP1 REVERT JUMPDEST PUSH1 0x0 PUSH1 0xF DUP4 DUP2 SIGNEXTEND SWAP1 DUP4 SWAP1 SIGNEXTEND MUL PUSH1 0x40 SAR PUSH1 0x1 PUSH1 0x1 PUSH1 0x7F SHL SUB NOT DUP2 SLT DUP1 ISZERO SWAP1 PUSH2 0x1DCA JUMPI POP PUSH1 0x1 PUSH1 0x1 PUSH1 0x7F SHL SUB DUP2 SGT ISZERO PUSH2 0x7C7 JUMPI PUSH1 0x0 DUP1 REVERT JUMPDEST PUSH1 0xF SIGNEXTEND PUSH1 0x40 SAR SWAP1 JUMP JUMPDEST PUSH1 0x0 PUSH2 0x1EA4 PUSH2 0x3C38 JUMP JUMPDEST PUSH1 0x0 DUP5 DUP2 MSTORE PUSH1 0x20 DUP3 DUP2 MSTORE PUSH1 0x40 DUP1 DUP4 KECCAK256 DUP9 DUP4 ADD MLOAD DUP5 MSTORE DUP3 MSTORE DUP1 DUP4 KECCAK256 DUP7 DUP5 MSTORE SWAP1 SWAP2 MSTORE SWAP1 DUP2 SWAP1 KECCAK256 SWAP1 DUP7 ADD MLOAD PUSH1 0x60 DUP8 ADD MLOAD PUSH1 0xA0 DUP9 ADD MLOAD PUSH1 0xC0 DUP10 ADD MLOAD PUSH1 0xE0 DUP11 ADD MLOAD SWAP6 SWAP7 POP SWAP4 SWAP5 PUSH2 0x1EF3 SWAP5 DUP7 SWAP5 SWAP4 SWAP3 SWAP2 PUSH2 0x3C45 JUMP JUMPDEST PUSH2 0xE4D DUP2 DUP7 PUSH1 0x80 ADD MLOAD PUSH2 0x3D59 JUMP JUMPDEST PUSH1 0x0 PUSH2 0x7CA PUSH1 0x0 NOT DUP4 PUSH2 0x192D JUMP JUMPDEST PUSH1 0x0 DUP1 PUSH2 0x1F1C DUP8 DUP8 PUSH2 0x11CC JUMP JUMPDEST SWAP1 POP PUSH1 0x0 PUSH2 0x1F28 PUSH2 0x26D0 JUMP JUMPDEST PUSH1 0x1 PUSH1 0x1 PUSH1 0xA0 SHL SUB DUP10 AND PUSH1 0x0 SWAP1 DUP2 MSTORE PUSH1 0x20 DUP3 DUP2 MSTORE PUSH1 0x40 DUP1 DUP4 KECCAK256 DUP12 DUP5 MSTORE DUP3 MSTORE DUP1 DUP4 KECCAK256 DUP11 DUP5 MSTORE SWAP1 SWAP2 MSTORE DUP2 KECCAK256 SWAP2 SWAP3 POP DUP1 PUSH2 0x1F5F DUP9 DUP11 PUSH2 0x3DA2 JUMP JUMPDEST SWAP2 POP SWAP2 POP DUP1 PUSH2 0x1F6D JUMPI PUSH1 0x0 DUP1 REVERT JUMPDEST PUSH2 0x1F77 DUP6 DUP4 PUSH2 0x3EAD JUMP JUMPDEST ISZERO PUSH2 0x2006 JUMPI DUP3 SLOAD PUSH1 0x0 SWAP1 PUSH2 0x1F93 SWAP1 DUP10 SWAP1 PUSH1 0xF SWAP1 DUP2 SIGNEXTEND SWAP1 SIGNEXTEND PUSH2 0x2B5C JUMP JUMPDEST SWAP1 POP PUSH1 0x1 PUSH1 0x1 PUSH1 0x7F SHL SUB NOT DUP2 SLT DUP1 ISZERO SWAP1 PUSH2 0x1FB4 JUMPI POP PUSH1 0x1 PUSH1 0x1 PUSH1 0x7F SHL SUB DUP2 SGT ISZERO JUMPDEST PUSH2 0x1FBD JUMPI PUSH1 0x0 DUP1 REVERT JUMPDEST DUP4 SLOAD PUSH1 0x1 PUSH1 0x1 PUSH1 0x80 SHL SUB NOT AND PUSH1 0x1 PUSH1 0x1 PUSH1 0x80 SHL SUB PUSH1 0xF DUP4 SWAP1 SIGNEXTEND AND OR DUP5 SSTORE DUP1 PUSH2 0x1FEE JUMPI PUSH2 0x1FEB DUP7 DUP5 PUSH1 0x0 PUSH2 0x14FE JUMP JUMPDEST SWAP6 POP JUMPDEST PUSH2 0x1FF9 DUP13 DUP13 DUP9 PUSH2 0x3EDD JUMP JUMPDEST SWAP6 POP PUSH2 0x9D5 SWAP5 POP POP POP POP POP JUMP JUMPDEST DUP7 ISZERO PUSH2 0x206A JUMPI PUSH1 0x1 PUSH1 0x1 PUSH1 0x7F SHL SUB NOT DUP8 SLT DUP1 ISZERO SWAP1 PUSH2 0x202B JUMPI POP PUSH1 0x1 PUSH1 0x1 PUSH1 0x7F SHL SUB DUP8 SGT ISZERO JUMPDEST PUSH2 0x2034 JUMPI PUSH1 0x0 DUP1 REVERT JUMPDEST DUP3 SLOAD PUSH1 0x1 PUSH1 0x1 PUSH1 0x80 SHL SUB NOT AND PUSH1 0x1 PUSH1 0x1 PUSH1 0x80 SHL SUB PUSH1 0xF DUP10 SWAP1 SIGNEXTEND AND OR DUP4 SSTORE PUSH2 0x205D DUP6 DUP4 PUSH1 0x1 PUSH2 0x14FE JUMP JUMPDEST SWAP5 POP PUSH2 0x206A DUP12 DUP12 DUP8 PUSH2 0x3EDD JUMP JUMPDEST POP SWAP5 SWAP10 SWAP9 POP POP POP POP POP POP POP POP POP JUMP JUMPDEST DUP2 MLOAD MLOAD DUP2 LT PUSH2 0x2087 JUMPI PUSH1 0x0 DUP1 REVERT JUMPDEST PUSH1 0x0 DUP3 PUSH1 0x60 ADD MLOAD GT PUSH2 0x2098 JUMPI PUSH1 0x0 DUP1 REVERT JUMPDEST PUSH1 0x0 DUP3 PUSH1 0x0 ADD MLOAD DUP3 DUP2 MLOAD DUP2 LT PUSH2 0x20AA JUMPI INVALID JUMPDEST PUSH1 0x20 MUL PUSH1 0x20 ADD ADD MLOAD SWAP1 POP PUSH1 0x2 PUSH1 0x3 DUP2 GT ISZERO PUSH2 0x20C1 JUMPI INVALID JUMPDEST DUP2 PUSH1 0xA0 ADD MLOAD PUSH1 0x3 DUP2 GT ISZERO PUSH2 0x20D1 JUMPI INVALID JUMPDEST EQ ISZERO DUP1 ISZERO PUSH2 0x20EF JUMPI POP PUSH1 0x3 DUP2 PUSH1 0xA0 ADD MLOAD PUSH1 0x3 DUP2 GT ISZERO PUSH2 0x20EC JUMPI INVALID JUMPDEST EQ ISZERO JUMPDEST PUSH2 0x20F8 JUMPI PUSH1 0x0 DUP1 REVERT JUMPDEST PUSH1 0x60 DUP4 ADD DUP1 MLOAD PUSH1 0x0 NOT ADD SWAP1 MSTORE PUSH1 0x0 DUP1 DUP1 JUMPDEST DUP6 MLOAD MLOAD DUP2 LT ISZERO PUSH2 0x216B JUMPI PUSH1 0x0 DUP7 PUSH1 0x0 ADD MLOAD DUP3 DUP2 MLOAD DUP2 LT PUSH2 0x2125 JUMPI INVALID JUMPDEST PUSH1 0x20 MUL PUSH1 0x20 ADD ADD MLOAD SWAP1 POP DUP3 DUP2 PUSH1 0x80 ADD MLOAD GT DUP1 ISZERO PUSH2 0x2152 JUMPI POP PUSH1 0x2 DUP2 PUSH1 0xA0 ADD MLOAD PUSH1 0x3 DUP2 GT ISZERO PUSH2 0x214F JUMPI INVALID JUMPDEST EQ ISZERO JUMPDEST ISZERO PUSH2 0x2162 JUMPI DUP1 PUSH1 0x80 ADD MLOAD SWAP3 POP DUP2 SWAP4 POP JUMPDEST POP PUSH1 0x1 ADD PUSH2 0x2109 JUMP JUMPDEST POP DUP2 DUP5 EQ ISZERO PUSH2 0x2184 JUMPI POP POP PUSH1 0x2 PUSH1 0xA0 SWAP2 SWAP1 SWAP2 ADD MSTORE PUSH2 0x21C5 JUMP JUMPDEST PUSH1 0x0 DUP6 PUSH1 0x0 ADD MLOAD DUP4 DUP2 MLOAD DUP2 LT PUSH2 0x2196 JUMPI INVALID JUMPDEST PUSH1 0x20 SWAP1 DUP2 MUL SWAP2 SWAP1 SWAP2 ADD ADD MLOAD PUSH1 0x80 DUP6 DUP2 ADD DUP1 MLOAD SWAP2 DUP4 ADD DUP1 MLOAD SWAP1 SWAP2 MSTORE MSTORE PUSH1 0x1 PUSH1 0xA0 SWAP2 DUP3 ADD MSTORE PUSH1 0x2 SWAP5 ADD SWAP4 SWAP1 SWAP4 MSTORE POP POP POP JUMPDEST POP POP JUMP JUMPDEST DUP2 MLOAD ISZERO DUP1 ISZERO SWAP1 PUSH2 0x21DC JUMPI POP DUP2 MLOAD PUSH2 0x3FFF LT ISZERO JUMPDEST PUSH2 0x21E5 JUMPI PUSH1 0x0 DUP1 REVERT JUMPDEST DUP2 PUSH1 0x20 ADD MLOAD PUSH1 0x0 LT DUP1 ISZERO PUSH2 0x2202 JUMPI POP PUSH1 0x20 DUP3 ADD MLOAD PUSH5 0xFFFFFFFFFF LT ISZERO JUMPDEST PUSH2 0x220B JUMPI PUSH1 0x0 DUP1 REVERT JUMPDEST DUP2 PUSH1 0x40 ADD MLOAD PUSH1 0x0 LT DUP1 ISZERO PUSH2 0x2224 JUMPI POP PUSH1 0x40 DUP3 ADD MLOAD PUSH1 0x8 LT ISZERO JUMPDEST PUSH2 0x222D JUMPI PUSH1 0x0 DUP1 REVERT JUMPDEST PUSH1 0x60 DUP3 ADD MLOAD PUSH1 0x1 PUSH1 0x1 PUSH1 0x57 SHL SUB NOT SGT DUP1 ISZERO SWAP1 PUSH2 0x2254 JUMPI POP PUSH1 0x60 DUP3 ADD MLOAD PUSH1 0x1 PUSH1 0x1 PUSH1 0x57 SHL SUB SLT ISZERO JUMPDEST PUSH2 0x225D JUMPI PUSH1 0x0 DUP1 REVERT JUMPDEST DUP2 MLOAD DUP2 SLOAD PUSH1 0x20 DUP5 ADD MLOAD PUSH1 0x40 DUP6 ADD MLOAD PUSH1 0x60 SWAP1 SWAP6 ADD MLOAD PUSH1 0xA SIGNEXTEND PUSH11 0xFFFFFFFFFFFFFFFFFFFFFF AND PUSH1 0x1 PUSH1 0x40 SHL MUL PUSH19 0xFFFFFFFFFFFFFFFFFFFFFF0000000000000000 NOT PUSH1 0xFF SWAP1 SWAP7 AND PUSH1 0x1 PUSH1 0x38 SHL MUL PUSH8 0xFF00000000000000 NOT PUSH5 0xFFFFFFFFFF SWAP1 SWAP4 AND PUSH3 0x10000 MUL PUSH7 0xFFFFFFFFFF0000 NOT PUSH2 0xFFFF SWAP1 SWAP7 AND PUSH2 0xFFFF NOT SWAP1 SWAP6 AND SWAP5 SWAP1 SWAP5 OR SWAP5 SWAP1 SWAP5 AND SWAP3 SWAP1 SWAP3 OR AND SWAP2 SWAP1 SWAP2 OR SWAP3 SWAP1 SWAP3 AND SWAP2 SWAP1 SWAP2 OR SWAP1 SSTORE JUMP JUMPDEST PUSH1 0x0 DUP1 PUSH1 0x0 DUP1 PUSH2 0x2301 DUP9 PUSH2 0x3F37 JUMP JUMPDEST SWAP1 POP DUP5 ISZERO DUP1 PUSH2 0x230F JUMPI POP DUP1 DUP6 GT JUMPDEST ISZERO PUSH2 0x2318 JUMPI DUP1 SWAP5 POP JUMPDEST DUP7 DUP1 PUSH2 0x2328 JUMPI POP PUSH1 0x0 DUP9 PUSH1 0x60 ADD MLOAD SLT JUMPDEST SWAP7 POP PUSH2 0xFFFF DUP7 AND ISZERO PUSH2 0x2339 JUMPI PUSH1 0x0 DUP1 REVERT JUMPDEST POP POP SWAP5 MLOAD SWAP4 SWAP6 PUSH1 0x10 SWAP4 SWAP1 SWAP4 SHR PUSH1 0xF0 SWAP5 SWAP1 SWAP5 SHL SWAP4 SWAP1 SWAP4 OR SWAP4 POP SWAP2 POP JUMP JUMPDEST PUSH1 0x0 DUP1 PUSH2 0x7CA PUSH1 0xD PUSH2 0x3F9E JUMP JUMPDEST PUSH1 0x0 DUP1 PUSH2 0x7CA PUSH1 0x2 PUSH2 0x3F9E JUMP JUMPDEST PUSH1 0x0 DUP1 PUSH2 0x237A PUSH2 0x3FB7 JUMP JUMPDEST PUSH1 0x0 SWAP4 DUP5 MSTORE PUSH1 0x20 MSTORE POP POP PUSH1 0x40 SWAP1 KECCAK256 SLOAD PUSH1 0x1 PUSH1 0x1 PUSH1 0xA0 SHL SUB AND SWAP1 JUMP JUMPDEST PUSH1 0x0 DUP1 PUSH1 0x0 DUP1 PUSH1 0x0 DUP1 PUSH2 0x23A6 PUSH2 0x2362 JUMP JUMPDEST PUSH1 0x1 PUSH1 0x1 PUSH1 0xA0 SHL SUB SWAP1 SWAP8 AND PUSH1 0x0 SWAP1 DUP2 MSTORE PUSH1 0x20 SWAP8 SWAP1 SWAP8 MSTORE POP POP PUSH1 0x40 SWAP1 SWAP5 KECCAK256 SLOAD PUSH2 0xFFFF DUP2 AND SWAP6 PUSH4 0xFFFFFFFF PUSH3 0x10000 DUP4 DIV DUP2 AND SWAP7 POP PUSH1 0x1 PUSH1 0x30 SHL DUP4 DIV AND SWAP5 POP PUSH1 0xFF PUSH1 0x1 PUSH1 0x50 SHL DUP4 DIV AND SWAP4 POP PUSH1 0x1 PUSH1 0x58 SHL SWAP1 SWAP2 DIV PUSH1 0xD8 SHL SWAP2 POP JUMP JUMPDEST PUSH1 0x0 DUP1 PUSH1 0x0 DUP1 PUSH2 0x240C PUSH2 0x3FC4 JUMP JUMPDEST PUSH1 0x1 PUSH1 0x1 PUSH1 0xA0 SHL SUB SWAP6 SWAP1 SWAP6 AND PUSH1 0x0 SWAP1 DUP2 MSTORE PUSH1 0x20 SWAP6 SWAP1 SWAP6 MSTORE POP POP PUSH1 0x40 SWAP1 SWAP3 KECCAK256 SLOAD PUSH12 0xFFFFFFFFFFFFFFFFFFFFFFFF DUP2 AND SWAP4 PUSH1 0x1 PUSH1 0x60 SHL DUP3 DIV PUSH1 0x1 PUSH1 0x1 PUSH1 0x80 SHL SUB AND SWAP4 POP PUSH1 0x1 PUSH1 0xE0 SHL SWAP1 SWAP2 DIV PUSH4 0xFFFFFFFF AND SWAP2 POP JUMP JUMPDEST PUSH2 0x2467 PUSH2 0x4EB1 JUMP JUMPDEST PUSH2 0x246F PUSH2 0x4EB1 JUMP JUMPDEST PUSH1 0xFF DUP5 AND PUSH2 0x247E JUMPI SWAP1 POP PUSH2 0x906 JUMP JUMPDEST PUSH2 0x2488 DUP6 DUP6 PUSH2 0x3FD1 JUMP JUMPDEST DUP2 MSTORE PUSH1 0xFF DUP5 AND PUSH1 0x60 DUP3 ADD MSTORE DUP3 PUSH8 0xFFFFFFFFFFFFFFFF DUP2 GT DUP1 ISZERO PUSH2 0x24AA JUMPI PUSH1 0x0 DUP1 REVERT JUMPDEST POP PUSH1 0x40 MLOAD SWAP1 DUP1 DUP3 MSTORE DUP1 PUSH1 0x20 MUL PUSH1 0x20 ADD DUP3 ADD PUSH1 0x40 MSTORE DUP1 ISZERO PUSH2 0x24E4 JUMPI DUP2 PUSH1 0x20 ADD JUMPDEST PUSH2 0x24D1 PUSH2 0x4ED9 JUMP JUMPDEST DUP2 MSTORE PUSH1 0x20 ADD SWAP1 PUSH1 0x1 SWAP1 SUB SWAP1 DUP2 PUSH2 0x24C9 JUMPI SWAP1 POP JUMPDEST POP PUSH1 0x20 DUP3 ADD MSTORE SWAP5 SWAP4 POP POP POP POP JUMP JUMPDEST PUSH1 0x0 DUP1 PUSH1 0x0 DUP1 PUSH1 0x0 PUSH2 0x2502 PUSH2 0x2951 JUMP JUMPDEST PUSH1 0x1 PUSH1 0x1 PUSH1 0xA0 SHL SUB DUP9 AND PUSH1 0x0 SWAP1 DUP2 MSTORE PUSH1 0x20 DUP3 DUP2 MSTORE PUSH1 0x40 DUP1 DUP4 KECCAK256 DUP11 DUP5 MSTORE SWAP1 SWAP2 MSTORE SWAP1 KECCAK256 DUP1 SLOAD PUSH1 0x1 PUSH1 0x1 PUSH1 0x50 SHL SUB DUP2 AND SWAP7 POP PUSH1 0x1 PUSH1 0x50 SHL SWAP1 DIV PUSH4 0xFFFFFFFF AND SWAP5 POP SWAP1 SWAP2 POP DUP4 ISZERO PUSH2 0x256B JUMPI DUP1 SLOAD PUSH2 0x2564 SWAP1 PUSH1 0x1 PUSH1 0x70 SHL SWAP1 DIV PUSH7 0xFFFFFFFFFFFFFF AND PUSH2 0x3FFA JUMP JUMPDEST SWAP3 POP PUSH2 0x2580 JUMP JUMPDEST DUP1 SLOAD PUSH1 0x1 PUSH1 0x70 SHL SWAP1 DIV PUSH7 0xFFFFFFFFFFFFFF AND SWAP3 POP JUMPDEST SLOAD PUSH1 0x1 PUSH1 0xA8 SHL SWAP1 DIV PUSH1 0xA SWAP1 DUP2 SIGNEXTEND SWAP1 SIGNEXTEND SWAP8 SWAP4 SWAP7 POP SWAP2 SWAP5 POP SWAP3 POP POP JUMP JUMPDEST PUSH2 0x25A3 PUSH2 0x4F19 JUMP JUMPDEST PUSH1 0x0 DUP1 PUSH1 0x0 PUSH2 0x25B1 DUP6 PUSH2 0x4008 JUMP JUMPDEST PUSH1 0x40 DUP1 MLOAD PUSH1 0x60 DUP2 ADD DUP3 MSTORE PUSH1 0x1 PUSH1 0x1 PUSH1 0xA0 SHL SUB SWAP1 SWAP4 AND DUP4 MSTORE PUSH1 0x20 DUP4 ADD SWAP4 SWAP1 SWAP4 MSTORE PUSH1 0xFF AND PUSH1 0xA EXP SWAP2 DUP2 ADD SWAP2 SWAP1 SWAP2 MSTORE SWAP4 POP POP POP POP SWAP2 SWAP1 POP JUMP JUMPDEST PUSH2 0x25EF PUSH2 0x4E85 JUMP JUMPDEST PUSH1 0x0 PUSH2 0x25FE DUP5 PUSH2 0xFFFF AND PUSH2 0x40CB JUMP JUMPDEST PUSH1 0x40 DUP1 MLOAD PUSH1 0x80 DUP2 ADD DUP3 MSTORE PUSH2 0xFFFF SWAP7 SWAP1 SWAP7 AND DUP7 MSTORE PUSH1 0xFF DUP3 AND PUSH1 0x20 DUP8 ADD MSTORE DUP6 ADD SWAP4 SWAP1 SWAP4 MSTORE POP POP PUSH1 0x60 DUP3 ADD MSTORE SWAP1 JUMP JUMPDEST PUSH1 0x0 DUP1 PUSH2 0x7CA PUSH1 0xB PUSH2 0x3F9E JUMP JUMPDEST PUSH1 0x0 DUP2 PUSH2 0x2643 JUMPI PUSH1 0x0 DUP1 REVERT JUMPDEST PUSH1 0x1 PUSH1 0x80 SHL DUP3 LT PUSH2 0x2656 JUMPI PUSH1 0x80 SWAP2 DUP3 SHR SWAP2 ADD JUMPDEST PUSH1 0x1 PUSH1 0x40 SHL DUP3 LT PUSH2 0x2669 JUMPI PUSH1 0x40 SWAP2 DUP3 SHR SWAP2 ADD JUMPDEST PUSH5 0x100000000 DUP3 LT PUSH2 0x267D JUMPI PUSH1 0x20 SWAP2 DUP3 SHR SWAP2 ADD JUMPDEST PUSH3 0x10000 DUP3 LT PUSH2 0x268F JUMPI PUSH1 0x10 SWAP2 DUP3 SHR SWAP2 ADD JUMPDEST PUSH2 0x100 DUP3 LT PUSH2 0x26A0 JUMPI PUSH1 0x8 SWAP2 DUP3 SHR SWAP2 ADD JUMPDEST PUSH1 0x10 DUP3 LT PUSH2 0x26B0 JUMPI PUSH1 0x4 SWAP2 DUP3 SHR SWAP2 ADD JUMPDEST PUSH1 0x4 DUP3 LT PUSH2 0x26C0 JUMPI PUSH1 0x2 SWAP2 DUP3 SHR SWAP2 ADD JUMPDEST PUSH1 0x2 DUP3 LT PUSH2 0x768 JUMPI PUSH1 0x1 ADD SWAP2 SWAP1 POP JUMP JUMPDEST PUSH1 0x0 DUP1 PUSH2 0x7CA PUSH1 0xC PUSH2 0x3F9E JUMP JUMPDEST PUSH1 0x0 DUP1 PUSH1 0x0 DUP6 GT PUSH2 0x2700 JUMPI PUSH1 0x40 MLOAD PUSH3 0x461BCD PUSH1 0xE5 SHL DUP2 MSTORE PUSH1 0x4 ADD PUSH2 0xE6 SWAP1 PUSH2 0x50BB JUMP JUMPDEST PUSH1 0x7 DUP6 GT ISZERO PUSH2 0x2721 JUMPI PUSH1 0x40 MLOAD PUSH3 0x461BCD PUSH1 0xE5 SHL DUP2 MSTORE PUSH1 0x4 ADD PUSH2 0xE6 SWAP1 PUSH2 0x51C8 JUMP JUMPDEST PUSH1 0x0 PUSH2 0x272C DUP5 PUSH2 0x74A JUMP JUMPDEST SWAP1 POP PUSH1 0x1 JUMPDEST DUP7 DUP2 GT PUSH2 0x2784 JUMPI PUSH1 0x0 PUSH2 0x274D PUSH2 0x2746 DUP4 PUSH2 0xA1A JUMP JUMPDEST DUP5 SWAP1 PUSH2 0x76D JUMP JUMPDEST SWAP1 POP DUP7 DUP2 EQ ISZERO PUSH2 0x2765 JUMPI POP SWAP3 POP PUSH1 0x0 SWAP2 POP PUSH2 0x279D SWAP1 POP JUMP JUMPDEST DUP7 DUP2 GT ISZERO PUSH2 0x277B JUMPI POP SWAP3 POP PUSH1 0x1 SWAP2 POP PUSH2 0x279D SWAP1 POP JUMP JUMPDEST POP PUSH1 0x1 ADD PUSH2 0x2731 JUMP JUMPDEST POP PUSH1 0x40 MLOAD PUSH3 0x461BCD PUSH1 0xE5 SHL DUP2 MSTORE PUSH1 0x4 ADD PUSH2 0xE6 SWAP1 PUSH2 0x52AA JUMP JUMPDEST SWAP4 POP SWAP4 SWAP2 POP POP JUMP JUMPDEST PUSH1 0x60 ADD MLOAD PUSH2 0x12C PUSH1 0x8 SWAP2 SWAP1 SWAP2 SHR PUSH1 0xFF AND MUL SWAP1 JUMP JUMPDEST PUSH1 0x0 DUP1 PUSH2 0x27C4 PUSH2 0x3C38 JUMP JUMPDEST SWAP1 POP PUSH1 0x0 PUSH3 0x76A700 PUSH2 0x27D5 DUP6 PUSH2 0x74A JUMP JUMPDEST PUSH1 0x0 DUP10 DUP2 MSTORE PUSH1 0x20 DUP6 DUP2 MSTORE PUSH1 0x40 DUP1 DUP4 KECCAK256 DUP12 DUP5 MSTORE DUP3 MSTORE DUP1 DUP4 KECCAK256 SWAP5 SWAP1 SWAP4 ADD DUP1 DUP4 MSTORE SWAP4 SWAP1 MSTORE KECCAK256 DUP1 SLOAD SWAP2 SWAP3 POP SWAP1 PUSH4 0xFFFFFFFF PUSH1 0x1 PUSH1 0xA0 SHL DUP3 DIV DUP2 AND SWAP2 PUSH1 0x1 PUSH1 0xC0 SHL DUP2 DIV DUP3 AND SWAP2 PUSH1 0x1 PUSH1 0xE0 SHL SWAP1 SWAP2 DIV AND DUP2 PUSH2 0x283C JUMPI PUSH1 0x40 MLOAD PUSH3 0x461BCD PUSH1 0xE5 SHL DUP2 MSTORE PUSH1 0x4 ADD PUSH2 0xE6 SWAP1 PUSH2 0x5026 JUMP JUMPDEST PUSH2 0x2849 DUP2 DUP5 DUP5 DUP13 DUP13 PUSH2 0x40E8 JUMP JUMPDEST SWAP12 SWAP11 POP POP POP POP POP POP POP POP POP POP POP JUMP JUMPDEST DUP1 MLOAD PUSH1 0x0 SWAP1 PUSH1 0x1 PUSH1 0x1 PUSH1 0xA0 SHL SUB AND PUSH2 0x2872 JUMPI POP PUSH1 0x0 PUSH2 0x768 JUMP JUMPDEST PUSH1 0x0 DUP3 PUSH1 0x0 ADD MLOAD PUSH1 0x1 PUSH1 0x1 PUSH1 0xA0 SHL SUB AND PUSH4 0xDD30A666 PUSH1 0x40 MLOAD DUP2 PUSH4 0xFFFFFFFF AND PUSH1 0xE0 SHL DUP2 MSTORE PUSH1 0x4 ADD PUSH1 0x20 PUSH1 0x40 MLOAD DUP1 DUP4 SUB DUP2 DUP7 DUP1 EXTCODESIZE ISZERO DUP1 ISZERO PUSH2 0x28B1 JUMPI PUSH1 0x0 DUP1 REVERT JUMPDEST POP GAS STATICCALL ISZERO DUP1 ISZERO PUSH2 0x28C5 JUMPI RETURNDATASIZE PUSH1 0x0 DUP1 RETURNDATACOPY RETURNDATASIZE PUSH1 0x0 REVERT JUMPDEST POP POP POP POP PUSH1 0x40 MLOAD RETURNDATASIZE PUSH1 0x1F NOT PUSH1 0x1F DUP3 ADD AND DUP3 ADD DUP1 PUSH1 0x40 MSTORE POP DUP2 ADD SWAP1 PUSH2 0x7C7 SWAP2 SWAP1 PUSH2 0x4F6F JUMP JUMPDEST PUSH1 0x0 DUP1 PUSH2 0x2901 PUSH2 0x1B06 PUSH4 0x1DA9C00 PUSH2 0xD24 DUP7 DUP9 PUSH2 0x1C74 JUMP JUMPDEST SWAP1 POP PUSH2 0x2913 DUP2 PUSH3 0x1DCD65 PUSH1 0x49 SHL PUSH2 0x1D80 JUMP JUMPDEST SWAP1 POP PUSH2 0x2926 PUSH2 0x2921 DUP3 PUSH2 0x417B JUMP JUMPDEST PUSH2 0x1DD3 JUMP JUMPDEST SWAP1 POP PUSH2 0x2938 DUP2 PUSH3 0x1DCD65 PUSH1 0x49 SHL PUSH2 0x1E5B JUMP JUMPDEST SWAP1 POP PUSH1 0x0 PUSH2 0x2945 DUP3 PUSH2 0x1E91 JUMP JUMPDEST PUSH1 0x7 SIGNEXTEND SWAP6 SWAP5 POP POP POP POP POP JUMP JUMPDEST PUSH1 0x0 DUP1 PUSH2 0x7CA PUSH1 0x6 PUSH2 0x3F9E JUMP JUMPDEST PUSH1 0x60 PUSH2 0x2968 PUSH2 0x4F19 JUMP JUMPDEST PUSH1 0x0 PUSH2 0x2974 DUP6 DUP6 PUSH2 0x419D JUMP JUMPDEST SWAP1 POP PUSH2 0x297E PUSH2 0x4E15 JUMP JUMPDEST DUP2 MLOAD PUSH2 0x298E JUMPI POP SWAP2 POP PUSH2 0x7CA SWAP1 POP JUMP JUMPDEST PUSH1 0x0 DUP1 JUMPDEST DUP8 MLOAD MLOAD DUP2 LT ISZERO PUSH2 0x2B50 JUMPI PUSH1 0x0 DUP9 PUSH1 0x0 ADD MLOAD DUP3 DUP2 MLOAD DUP2 LT PUSH2 0x29AE JUMPI INVALID JUMPDEST PUSH1 0x20 MUL PUSH1 0x20 ADD ADD MLOAD SWAP1 POP PUSH1 0x0 PUSH2 0x29C3 DUP3 PUSH2 0x3F37 JUMP JUMPDEST SWAP1 POP DUP9 DUP2 GT ISZERO PUSH2 0x29D4 JUMPI POP POP PUSH2 0x2B48 JUMP JUMPDEST DUP2 PUSH1 0x0 ADD MLOAD DUP7 DUP6 DUP2 MLOAD DUP2 LT PUSH2 0x29E5 JUMPI INVALID JUMPDEST PUSH1 0x20 MUL PUSH1 0x20 ADD ADD MLOAD PUSH1 0x0 ADD MLOAD EQ PUSH2 0x2A1A JUMPI PUSH1 0x1 DUP5 ADD SWAP4 POP DUP2 PUSH1 0x0 ADD MLOAD DUP7 DUP6 DUP2 MLOAD DUP2 LT PUSH2 0x2A0D JUMPI INVALID JUMPDEST PUSH1 0x20 SWAP1 DUP2 MUL SWAP2 SWAP1 SWAP2 ADD ADD MLOAD MSTORE JUMPDEST PUSH1 0x40 DUP3 ADD MLOAD PUSH1 0x0 SWAP1 PUSH1 0x1 EQ ISZERO PUSH2 0x2A67 JUMPI PUSH2 0x2A3D DUP4 PUSH1 0x0 ADD MLOAD DUP5 PUSH1 0x20 ADD MLOAD DUP13 PUSH2 0x42C2 JUMP JUMPDEST SWAP8 POP PUSH2 0x2A56 DUP4 PUSH1 0x60 ADD MLOAD DUP10 PUSH2 0x1549 SWAP1 SWAP2 SWAP1 PUSH4 0xFFFFFFFF AND JUMP JUMPDEST SWAP1 POP PUSH2 0x2A62 DUP12 DUP6 PUSH2 0x2079 JUMP JUMPDEST PUSH2 0x2AFE JUMP JUMPDEST PUSH2 0x2A74 DUP4 PUSH1 0x40 ADD MLOAD PUSH2 0x2F98 JUMP JUMPDEST ISZERO PUSH2 0x2AFE JUMPI PUSH2 0x2A8D DUP7 DUP5 PUSH1 0x0 ADD MLOAD DUP6 PUSH1 0x20 ADD MLOAD DUP6 PUSH2 0x4432 JUMP JUMPDEST PUSH1 0x0 PUSH2 0x2AA6 DUP5 PUSH1 0x60 ADD MLOAD DUP9 PUSH2 0x4446 SWAP1 SWAP2 SWAP1 PUSH4 0xFFFFFFFF AND JUMP JUMPDEST PUSH1 0x20 DUP7 ADD MLOAD SWAP2 SWAP4 POP SWAP2 POP DUP12 LT ISZERO PUSH2 0x2AC7 JUMPI PUSH2 0x2AC2 DUP13 DUP7 DUP4 PUSH2 0x44EE JUMP JUMPDEST PUSH2 0x2AFC JUMP JUMPDEST PUSH2 0x2ADA DUP5 PUSH1 0x0 ADD MLOAD DUP6 PUSH1 0x20 ADD MLOAD DUP14 PUSH2 0x42C2 JUMP JUMPDEST SWAP9 POP PUSH2 0x2AF0 PUSH2 0x2AE9 DUP11 DUP4 PUSH2 0x1549 JUMP JUMPDEST DUP4 SWAP1 PUSH2 0x2B5C JUMP JUMPDEST SWAP2 POP PUSH2 0x2AFC DUP13 DUP7 PUSH2 0x2079 JUMP JUMPDEST POP JUMPDEST PUSH2 0x2B28 DUP2 DUP9 DUP8 DUP2 MLOAD DUP2 LT PUSH2 0x2B0E JUMPI INVALID JUMPDEST PUSH1 0x20 MUL PUSH1 0x20 ADD ADD MLOAD PUSH1 0x20 ADD MLOAD PUSH2 0x2B5C SWAP1 SWAP2 SWAP1 PUSH4 0xFFFFFFFF AND JUMP JUMPDEST DUP8 DUP7 DUP2 MLOAD DUP2 LT PUSH2 0x2B34 JUMPI INVALID JUMPDEST PUSH1 0x20 MUL PUSH1 0x20 ADD ADD MLOAD PUSH1 0x20 ADD DUP2 DUP2 MSTORE POP POP POP POP POP JUMPDEST PUSH1 0x1 ADD PUSH2 0x2992 JUMP JUMPDEST POP SWAP2 SWAP7 SWAP6 POP POP POP POP POP POP JUMP JUMPDEST DUP2 DUP2 ADD DUP3 DUP2 SLT ISZERO PUSH1 0x0 DUP4 SLT ISZERO EQ PUSH2 0x7CA JUMPI PUSH1 0x0 DUP1 REVERT JUMPDEST PUSH1 0x0 DUP1 PUSH1 0x0 PUSH2 0x2B81 DUP8 DUP8 PUSH2 0x11CC JUMP JUMPDEST SWAP1 POP PUSH2 0x2B8C DUP5 PUSH2 0x16BC JUMP JUMPDEST SWAP2 POP DUP5 DUP3 LT ISZERO PUSH2 0x2B9B JUMPI PUSH1 0x0 DUP1 REVERT JUMPDEST PUSH1 0x0 PUSH2 0x2BA7 DUP7 DUP5 PUSH2 0x3DA2 JUMP JUMPDEST POP SWAP1 POP DUP1 PUSH2 0x2BB6 JUMPI POP POP PUSH2 0x2C8E JUMP JUMPDEST PUSH1 0x0 PUSH2 0x2BC1 DUP4 PUSH2 0x1201 JUMP JUMPDEST SWAP1 POP JUMPDEST DUP1 ISZERO DUP1 ISZERO SWAP1 PUSH2 0x2BD3 JUMPI POP DUP2 DUP2 GT ISZERO JUMPDEST ISZERO PUSH2 0x2C1D JUMPI PUSH1 0x0 PUSH2 0x2BE4 DUP9 DUP4 PUSH2 0x1226 JUMP JUMPDEST SWAP1 POP PUSH2 0x2BFC PUSH2 0x2BF5 DUP12 DUP12 DUP5 DUP12 PUSH2 0x45A4 JUMP JUMPDEST DUP8 SWAP1 PUSH2 0x2B5C JUMP JUMPDEST SWAP6 POP PUSH2 0x2C0A DUP5 DUP4 PUSH1 0x0 PUSH2 0x14FE JUMP JUMPDEST SWAP4 POP PUSH2 0x2C15 DUP5 PUSH2 0x1201 JUMP JUMPDEST SWAP2 POP POP PUSH2 0x2BC4 JUMP JUMPDEST PUSH1 0x0 JUMPDEST DUP2 ISZERO PUSH2 0x2C7E JUMPI PUSH1 0x0 PUSH2 0x2C32 DUP10 DUP5 PUSH2 0x1226 JUMP JUMPDEST SWAP1 POP PUSH1 0x0 DUP1 PUSH2 0x2C41 DUP9 DUP5 PUSH2 0x3DA2 JUMP JUMPDEST SWAP2 POP SWAP2 POP DUP1 PUSH2 0x2C4F JUMPI PUSH1 0x0 DUP1 REVERT JUMPDEST PUSH2 0x2C5B DUP5 DUP4 PUSH1 0x1 PUSH2 0x14FE JUMP JUMPDEST SWAP4 POP PUSH2 0x2C69 DUP8 DUP7 PUSH1 0x0 PUSH2 0x14FE JUMP JUMPDEST SWAP7 POP PUSH2 0x2C74 DUP8 PUSH2 0x1201 JUMP JUMPDEST SWAP5 POP POP POP POP PUSH2 0x2C20 JUMP JUMPDEST PUSH2 0x2C89 DUP11 DUP11 DUP4 PUSH2 0x3EDD JUMP JUMPDEST POP POP POP POP JUMPDEST SWAP5 POP SWAP5 SWAP3 POP POP POP JUMP JUMPDEST PUSH2 0x2CA4 DUP8 DUP8 DUP8 DUP7 DUP6 PUSH2 0x463F JUMP JUMPDEST PUSH2 0x2CBD DUP8 PUSH1 0xE0 ADD MLOAD DUP9 PUSH1 0xA0 ADD MLOAD DUP10 PUSH1 0xC0 ADD MLOAD DUP6 DUP9 PUSH2 0x40E8 JUMP JUMPDEST PUSH1 0xC0 SWAP1 SWAP8 ADD SWAP7 SWAP1 SWAP7 MSTORE POP POP POP POP POP POP JUMP JUMPDEST PUSH1 0x0 DUP1 PUSH2 0x7CA PUSH1 0x4 PUSH2 0x3F9E JUMP JUMPDEST PUSH1 0x60 DUP1 PUSH1 0x0 DUP1 DUP6 PUSH8 0xFFFFFFFFFFFFFFFF DUP2 GT DUP1 ISZERO PUSH2 0x2CF8 JUMPI PUSH1 0x0 DUP1 REVERT JUMPDEST POP PUSH1 0x40 MLOAD SWAP1 DUP1 DUP3 MSTORE DUP1 PUSH1 0x20 MUL PUSH1 0x20 ADD DUP3 ADD PUSH1 0x40 MSTORE DUP1 ISZERO PUSH2 0x2D22 JUMPI DUP2 PUSH1 0x20 ADD PUSH1 0x20 DUP3 MUL DUP1 CALLDATASIZE DUP4 CALLDATACOPY ADD SWAP1 POP JUMPDEST POP SWAP1 POP PUSH1 0x0 DUP7 PUSH8 0xFFFFFFFFFFFFFFFF DUP2 GT DUP1 ISZERO PUSH2 0x2D3E JUMPI PUSH1 0x0 DUP1 REVERT JUMPDEST POP PUSH1 0x40 MLOAD SWAP1 DUP1 DUP3 MSTORE DUP1 PUSH1 0x20 MUL PUSH1 0x20 ADD DUP3 ADD PUSH1 0x40 MSTORE DUP1 ISZERO PUSH2 0x2D68 JUMPI DUP2 PUSH1 0x20 ADD PUSH1 0x20 DUP3 MUL DUP1 CALLDATASIZE DUP4 CALLDATACOPY ADD SWAP1 POP JUMPDEST POP SWAP1 POP PUSH1 0x0 JUMPDEST DUP8 DUP2 LT ISZERO PUSH2 0x2E6C JUMPI DUP9 DUP5 PUSH1 0xE DUP2 LT PUSH2 0x2D82 JUMPI INVALID JUMPDEST PUSH1 0x8 SWAP2 DUP3 DUP3 DIV ADD SWAP2 SWAP1 MOD PUSH1 0x4 MUL SWAP1 SLOAD SWAP1 PUSH2 0x100 EXP SWAP1 DIV PUSH4 0xFFFFFFFF AND PUSH4 0xFFFFFFFF AND DUP4 DUP3 DUP2 MLOAD DUP2 LT PUSH2 0x2DB0 JUMPI INVALID JUMPDEST PUSH1 0x20 SWAP1 DUP2 MUL SWAP2 SWAP1 SWAP2 ADD ADD MSTORE PUSH1 0x1 SWAP1 SWAP4 ADD SWAP3 DUP9 DUP5 PUSH1 0xE DUP2 LT PUSH2 0x2DCD JUMPI INVALID JUMPDEST PUSH1 0x8 SWAP2 DUP3 DUP3 DIV ADD SWAP2 SWAP1 MOD PUSH1 0x4 MUL SWAP1 SLOAD SWAP1 PUSH2 0x100 EXP SWAP1 DIV PUSH4 0xFFFFFFFF AND PUSH4 0xFFFFFFFF AND DUP3 DUP3 DUP2 MLOAD DUP2 LT PUSH2 0x2DFB JUMPI INVALID JUMPDEST PUSH1 0x20 SWAP1 DUP2 MUL SWAP2 SWAP1 SWAP2 ADD ADD MSTORE PUSH1 0x1 SWAP1 SWAP4 ADD SWAP3 DUP7 ISZERO PUSH2 0x2E64 JUMPI PUSH1 0x0 DUP4 DUP3 DUP2 MLOAD DUP2 LT PUSH2 0x2E20 JUMPI INVALID JUMPDEST PUSH1 0x20 MUL PUSH1 0x20 ADD ADD MLOAD SGT DUP1 ISZERO PUSH2 0x2E48 JUMPI POP PUSH1 0x0 DUP3 DUP3 DUP2 MLOAD DUP2 LT PUSH2 0x2E3E JUMPI INVALID JUMPDEST PUSH1 0x20 MUL PUSH1 0x20 ADD ADD MLOAD SGT JUMPDEST PUSH2 0x2E64 JUMPI PUSH1 0x40 MLOAD PUSH3 0x461BCD PUSH1 0xE5 SHL DUP2 MSTORE PUSH1 0x4 ADD PUSH2 0xE6 SWAP1 PUSH2 0x527D JUMP JUMPDEST PUSH1 0x1 ADD PUSH2 0x2D6E JUMP JUMPDEST POP SWAP1 SWAP8 SWAP1 SWAP7 POP SWAP5 POP POP POP POP POP JUMP JUMPDEST PUSH1 0x0 DUP1 PUSH2 0x7CA PUSH1 0x5 PUSH2 0x3F9E JUMP JUMPDEST PUSH1 0x0 DUP1 JUMPDEST DUP7 MLOAD DUP2 LT ISZERO PUSH2 0x2F8B JUMPI PUSH1 0x0 DUP8 DUP3 DUP2 MLOAD DUP2 LT PUSH2 0x2EA2 JUMPI INVALID JUMPDEST PUSH1 0x20 MUL PUSH1 0x20 ADD ADD MLOAD SWAP1 POP DUP5 DUP2 PUSH1 0x40 ADD MLOAD EQ ISZERO DUP1 PUSH2 0x2EC0 JUMPI POP DUP1 MLOAD DUP8 EQ ISZERO JUMPDEST DUP1 PUSH2 0x2ECF JUMPI POP DUP6 DUP2 PUSH1 0x20 ADD MLOAD EQ ISZERO JUMPDEST ISZERO PUSH2 0x2EDA JUMPI POP PUSH2 0x2F83 JUMP JUMPDEST PUSH1 0x2 DUP2 PUSH1 0xA0 ADD MLOAD PUSH1 0x3 DUP2 GT ISZERO PUSH2 0x2EEC JUMPI INVALID JUMPDEST EQ ISZERO DUP1 ISZERO PUSH2 0x2F0A JUMPI POP PUSH1 0x3 DUP2 PUSH1 0xA0 ADD MLOAD PUSH1 0x3 DUP2 GT ISZERO PUSH2 0x2F07 JUMPI INVALID JUMPDEST EQ ISZERO JUMPDEST PUSH2 0x2F13 JUMPI PUSH1 0x0 DUP1 REVERT JUMPDEST PUSH1 0x60 DUP2 ADD MLOAD PUSH1 0x0 SWAP1 PUSH2 0x2F25 SWAP1 DUP7 PUSH2 0x2B5C JUMP JUMPDEST SWAP1 POP PUSH2 0x2F30 DUP7 PUSH2 0x2F98 JUMP JUMPDEST ISZERO PUSH2 0x2F43 JUMPI PUSH1 0x0 DUP2 SLT ISZERO PUSH2 0x2F43 JUMPI PUSH1 0x0 DUP1 REVERT JUMPDEST PUSH1 0x1 PUSH1 0x1 PUSH1 0x57 SHL SUB NOT DUP2 SLT DUP1 ISZERO SWAP1 PUSH2 0x2F62 JUMPI POP PUSH1 0x1 PUSH1 0x1 PUSH1 0x57 SHL SUB DUP2 SGT ISZERO JUMPDEST PUSH2 0x2F6B JUMPI PUSH1 0x0 DUP1 REVERT JUMPDEST PUSH1 0x60 DUP3 ADD MSTORE PUSH1 0x1 PUSH1 0xA0 SWAP1 SWAP2 ADD DUP2 SWAP1 MSTORE SWAP2 POP PUSH2 0x9D5 SWAP1 POP JUMP JUMPDEST PUSH1 0x1 ADD PUSH2 0x2E8B JUMP JUMPDEST POP PUSH1 0x0 SWAP7 SWAP6 POP POP POP POP POP POP JUMP JUMPDEST PUSH1 0x0 PUSH1 0x2 DUP3 LT DUP1 ISZERO SWAP1 PUSH2 0x7CA JUMPI POP POP PUSH1 0x8 LT ISZERO SWAP1 JUMP JUMPDEST PUSH1 0x60 PUSH1 0x0 DUP3 MLOAD PUSH1 0x0 EQ PUSH2 0x2FC5 JUMPI DUP3 MLOAD PUSH1 0x2 MUL PUSH2 0x2FC8 JUMP JUMPDEST PUSH1 0x1 JUMPDEST SWAP1 POP PUSH1 0x0 DUP2 PUSH8 0xFFFFFFFFFFFFFFFF DUP2 GT DUP1 ISZERO PUSH2 0x2FE3 JUMPI PUSH1 0x0 DUP1 REVERT JUMPDEST POP PUSH1 0x40 MLOAD SWAP1 DUP1 DUP3 MSTORE DUP1 PUSH1 0x20 MUL PUSH1 0x20 ADD DUP3 ADD PUSH1 0x40 MSTORE DUP1 ISZERO PUSH2 0x301D JUMPI DUP2 PUSH1 0x20 ADD JUMPDEST PUSH2 0x300A PUSH2 0x4ED9 JUMP JUMPDEST DUP2 MSTORE PUSH1 0x20 ADD SWAP1 PUSH1 0x1 SWAP1 SUB SWAP1 DUP2 PUSH2 0x3002 JUMPI SWAP1 POP JUMPDEST POP SWAP1 POP PUSH1 0x0 JUMPDEST DUP5 MLOAD DUP2 LT ISZERO PUSH2 0x305F JUMPI DUP5 DUP2 DUP2 MLOAD DUP2 LT PUSH2 0x3038 JUMPI INVALID JUMPDEST PUSH1 0x20 MUL PUSH1 0x20 ADD ADD MLOAD DUP3 DUP3 DUP2 MLOAD DUP2 LT PUSH2 0x304C JUMPI INVALID JUMPDEST PUSH1 0x20 SWAP1 DUP2 MUL SWAP2 SWAP1 SWAP2 ADD ADD MSTORE PUSH1 0x1 ADD PUSH2 0x3023 JUMP JUMPDEST POP SWAP4 SWAP3 POP POP POP JUMP JUMPDEST PUSH1 0x0 PUSH8 0x7FFFFFFFFFFFFFFF DUP3 GT ISZERO PUSH2 0x1D79 JUMPI PUSH1 0x0 DUP1 REVERT JUMPDEST PUSH1 0x0 DUP1 DUP1 PUSH2 0x308C DUP9 DUP6 PUSH2 0x90D JUMP JUMPDEST SWAP1 POP PUSH1 0x0 PUSH2 0x30A4 PUSH2 0x309D DUP11 DUP11 PUSH2 0x2B5C JUMP JUMPDEST DUP4 SWAP1 PUSH2 0x46FA JUMP JUMPDEST SWAP1 POP PUSH4 0x3B023380 DUP2 SGT ISZERO PUSH2 0x30C0 JUMPI PUSH1 0x0 DUP1 SWAP4 POP SWAP4 POP POP POP PUSH2 0x312A JUMP JUMPDEST PUSH1 0x0 DUP1 PUSH2 0x30CC DUP4 PUSH2 0x4713 JUMP JUMPDEST SWAP2 POP SWAP2 POP DUP1 PUSH2 0x30E5 JUMPI PUSH1 0x0 DUP1 SWAP6 POP SWAP6 POP POP POP POP POP PUSH2 0x312A JUMP JUMPDEST PUSH1 0x0 PUSH2 0x30FB DUP10 PUSH2 0x30F5 DUP6 DUP14 PUSH2 0x46FA JUMP JUMPDEST SWAP1 PUSH2 0x2B5C JUMP JUMPDEST SWAP1 POP PUSH4 0x3B9ACA00 DUP2 SLT ISZERO PUSH2 0x311A JUMPI PUSH1 0x0 DUP1 SWAP7 POP SWAP7 POP POP POP POP POP POP PUSH2 0x312A JUMP JUMPDEST SWAP6 POP PUSH1 0x1 SWAP5 POP PUSH2 0x312A SWAP4 POP POP POP POP JUMP JUMPDEST SWAP6 POP SWAP6 SWAP4 POP POP POP POP JUMP JUMPDEST PUSH1 0x0 DUP1 DUP3 PUSH1 0xF SIGNEXTEND SGT PUSH2 0x3145 JUMPI PUSH1 0x0 DUP1 REVERT JUMPDEST PUSH1 0x80 PUSH2 0x3150 DUP4 PUSH2 0x47B5 JUMP JUMPDEST PUSH1 0xF SIGNEXTEND PUSH16 0xB17217F7D1CF79ABC9E3B39803F2F6AF MUL SWAP1 SHR SWAP1 POP SWAP2 SWAP1 POP JUMP JUMPDEST PUSH1 0x0 DUP1 DUP3 PUSH1 0xF SIGNEXTEND SLT ISZERO PUSH2 0x3180 JUMPI PUSH1 0x0 DUP1 REVERT JUMPDEST POP PUSH1 0xF SIGNEXTEND PUSH1 0x40 SAR SWAP1 JUMP JUMPDEST PUSH1 0x0 PUSH1 0x1 PUSH1 0x46 SHL DUP3 PUSH1 0xF SIGNEXTEND SLT PUSH2 0x319F JUMPI PUSH1 0x0 DUP1 REVERT JUMPDEST PUSH9 0x3FFFFFFFFFFFFFFFFF NOT DUP3 PUSH1 0xF SIGNEXTEND SLT ISZERO PUSH2 0x31BC JUMPI POP PUSH1 0x0 PUSH2 0x768 JUMP JUMPDEST PUSH1 0x1 PUSH1 0x7F SHL PUSH1 0x0 PUSH1 0x1 PUSH1 0x3F SHL DUP5 AND PUSH1 0xF SIGNEXTEND SGT ISZERO PUSH2 0x31EA JUMPI PUSH17 0x16A09E667F3BCC908B2FB1366EA957D3E MUL PUSH1 0x80 SHR JUMPDEST PUSH1 0x0 DUP4 PUSH8 0x4000000000000000 AND PUSH1 0xF SIGNEXTEND SGT ISZERO PUSH2 0x3217 JUMPI PUSH17 0x1306FE0A31B7152DE8D5A46305C85EDEC MUL PUSH1 0x80 SHR JUMPDEST PUSH1 0x0 DUP4 PUSH8 0x2000000000000000 AND PUSH1 0xF SIGNEXTEND SGT ISZERO PUSH2 0x3244 JUMPI PUSH17 0x1172B83C7D517ADCDF7C8C50EB14A791F MUL PUSH1 0x80 SHR JUMPDEST PUSH1 0x0 DUP4 PUSH8 0x1000000000000000 AND PUSH1 0xF SIGNEXTEND SGT ISZERO PUSH2 0x3271 JUMPI PUSH17 0x10B5586CF9890F6298B92B71842A98363 MUL PUSH1 0x80 SHR JUMPDEST PUSH1 0x0 DUP4 PUSH8 0x800000000000000 AND PUSH1 0xF SIGNEXTEND SGT ISZERO PUSH2 0x329E JUMPI PUSH17 0x1059B0D31585743AE7C548EB68CA417FD MUL PUSH1 0x80 SHR JUMPDEST PUSH1 0x0 DUP4 PUSH8 0x400000000000000 AND PUSH1 0xF SIGNEXTEND SGT ISZERO PUSH2 0x32CB JUMPI PUSH17 0x102C9A3E778060EE6F7CACA4F7A29BDE8 MUL PUSH1 0x80 SHR JUMPDEST PUSH1 0x0 DUP4 PUSH8 0x200000000000000 AND PUSH1 0xF SIGNEXTEND SGT ISZERO PUSH2 0x32F8 JUMPI PUSH17 0x10163DA9FB33356D84A66AE336DCDFA3F MUL PUSH1 0x80 SHR JUMPDEST PUSH1 0x0 DUP4 PUSH1 0x1 PUSH1 0x38 SHL AND PUSH1 0xF SIGNEXTEND SGT ISZERO PUSH2 0x3321 JUMPI PUSH17 0x100B1AFA5ABCBED6129AB13EC11DC9543 MUL PUSH1 0x80 SHR JUMPDEST PUSH1 0x0 DUP4 PUSH7 0x80000000000000 AND PUSH1 0xF SIGNEXTEND SGT ISZERO PUSH2 0x334D JUMPI PUSH17 0x10058C86DA1C09EA1FF19D294CF2F679B MUL PUSH1 0x80 SHR JUMPDEST PUSH1 0x0 DUP4 PUSH7 0x40000000000000 AND PUSH1 0xF SIGNEXTEND SGT ISZERO PUSH2 0x3379 JUMPI PUSH17 0x1002C605E2E8CEC506D21BFC89A23A00F MUL PUSH1 0x80 SHR JUMPDEST PUSH1 0x0 DUP4 PUSH7 0x20000000000000 AND PUSH1 0xF SIGNEXTEND SGT ISZERO PUSH2 0x33A5 JUMPI PUSH17 0x100162F3904051FA128BCA9C55C31E5DF MUL PUSH1 0x80 SHR JUMPDEST PUSH1 0x0 DUP4 PUSH7 0x10000000000000 AND PUSH1 0xF SIGNEXTEND SGT ISZERO PUSH2 0x33D1 JUMPI PUSH17 0x1000B175EFFDC76BA38E31671CA939725 MUL PUSH1 0x80 SHR JUMPDEST PUSH1 0x0 DUP4 PUSH7 0x8000000000000 AND PUSH1 0xF SIGNEXTEND SGT ISZERO PUSH2 0x33FD JUMPI PUSH17 0x100058BA01FB9F96D6CACD4B180917C3D MUL PUSH1 0x80 SHR JUMPDEST PUSH1 0x0 DUP4 PUSH7 0x4000000000000 AND PUSH1 0xF SIGNEXTEND SGT ISZERO PUSH2 0x3429 JUMPI PUSH17 0x10002C5CC37DA9491D0985C348C68E7B3 MUL PUSH1 0x80 SHR JUMPDEST PUSH1 0x0 DUP4 PUSH7 0x2000000000000 AND PUSH1 0xF SIGNEXTEND SGT ISZERO PUSH2 0x3455 JUMPI PUSH17 0x1000162E525EE054754457D5995292026 MUL PUSH1 0x80 SHR JUMPDEST PUSH1 0x0 DUP4 PUSH1 0x1 PUSH1 0x30 SHL AND PUSH1 0xF SIGNEXTEND SGT ISZERO PUSH2 0x347E JUMPI PUSH17 0x10000B17255775C040618BF4A4ADE83FC MUL PUSH1 0x80 SHR JUMPDEST PUSH1 0x0 DUP4 PUSH6 0x800000000000 AND PUSH1 0xF SIGNEXTEND SGT ISZERO PUSH2 0x34A9 JUMPI PUSH17 0x1000058B91B5BC9AE2EED81E9B7D4CFAB MUL PUSH1 0x80 SHR JUMPDEST PUSH1 0x0 DUP4 PUSH6 0x400000000000 AND PUSH1 0xF SIGNEXTEND SGT ISZERO PUSH2 0x34D4 JUMPI PUSH17 0x100002C5C89D5EC6CA4D7C8ACC017B7C9 MUL PUSH1 0x80 SHR JUMPDEST PUSH1 0x0 DUP4 PUSH6 0x200000000000 AND PUSH1 0xF SIGNEXTEND SGT ISZERO PUSH2 0x34FF JUMPI PUSH17 0x10000162E43F4F831060E02D839A9D16D MUL PUSH1 0x80 SHR JUMPDEST PUSH1 0x0 DUP4 PUSH6 0x100000000000 AND PUSH1 0xF SIGNEXTEND SGT ISZERO PUSH2 0x352A JUMPI PUSH17 0x100000B1721BCFC99D9F890EA06911763 MUL PUSH1 0x80 SHR JUMPDEST PUSH1 0x0 DUP4 PUSH6 0x80000000000 AND PUSH1 0xF SIGNEXTEND SGT ISZERO PUSH2 0x3555 JUMPI PUSH17 0x10000058B90CF1E6D97F9CA14DBCC1628 MUL PUSH1 0x80 SHR JUMPDEST PUSH1 0x0 DUP4 PUSH6 0x40000000000 AND PUSH1 0xF SIGNEXTEND SGT ISZERO PUSH2 0x3580 JUMPI PUSH17 0x1000002C5C863B73F016468F6BAC5CA2B MUL PUSH1 0x80 SHR JUMPDEST PUSH1 0x0 DUP4 PUSH6 0x20000000000 AND PUSH1 0xF SIGNEXTEND SGT ISZERO PUSH2 0x35AB JUMPI PUSH17 0x100000162E430E5A18F6119E3C02282A5 MUL PUSH1 0x80 SHR JUMPDEST PUSH1 0x0 DUP4 PUSH6 0x10000000000 AND PUSH1 0xF SIGNEXTEND SGT ISZERO PUSH2 0x35D6 JUMPI PUSH17 0x1000000B1721835514B86E6D96EFD1BFE MUL PUSH1 0x80 SHR JUMPDEST PUSH1 0x0 DUP4 PUSH5 0x8000000000 AND PUSH1 0xF SIGNEXTEND SGT ISZERO PUSH2 0x3600 JUMPI PUSH17 0x100000058B90C0B48C6BE5DF846C5B2EF MUL PUSH1 0x80 SHR JUMPDEST PUSH1 0x0 DUP4 PUSH5 0x4000000000 AND PUSH1 0xF SIGNEXTEND SGT ISZERO PUSH2 0x362A JUMPI PUSH17 0x10000002C5C8601CC6B9E94213C72737A MUL PUSH1 0x80 SHR JUMPDEST PUSH1 0x0 DUP4 PUSH5 0x2000000000 AND PUSH1 0xF SIGNEXTEND SGT ISZERO PUSH2 0x3654 JUMPI PUSH17 0x1000000162E42FFF037DF38AA2B219F06 MUL PUSH1 0x80 SHR JUMPDEST PUSH1 0x0 DUP4 PUSH5 0x1000000000 AND PUSH1 0xF SIGNEXTEND SGT ISZERO PUSH2 0x367E JUMPI PUSH17 0x10000000B17217FBA9C739AA5819F44F9 MUL PUSH1 0x80 SHR JUMPDEST PUSH1 0x0 DUP4 PUSH5 0x800000000 AND PUSH1 0xF SIGNEXTEND SGT ISZERO PUSH2 0x36A8 JUMPI PUSH17 0x1000000058B90BFCDEE5ACD3C1CEDC823 MUL PUSH1 0x80 SHR JUMPDEST PUSH1 0x0 DUP4 PUSH5 0x400000000 AND PUSH1 0xF SIGNEXTEND SGT ISZERO PUSH2 0x36D2 JUMPI PUSH17 0x100000002C5C85FE31F35A6A30DA1BE50 MUL PUSH1 0x80 SHR JUMPDEST PUSH1 0x0 DUP4 PUSH5 0x200000000 AND PUSH1 0xF SIGNEXTEND SGT ISZERO PUSH2 0x36FC JUMPI PUSH17 0x10000000162E42FF0999CE3541B9FFFCF MUL PUSH1 0x80 SHR JUMPDEST PUSH1 0x0 DUP4 PUSH5 0x100000000 AND PUSH1 0xF SIGNEXTEND SGT ISZERO PUSH2 0x3726 JUMPI PUSH17 0x100000000B17217F80F4EF5AADDA45554 MUL PUSH1 0x80 SHR JUMPDEST PUSH1 0x0 DUP4 PUSH4 0x80000000 AND PUSH1 0xF SIGNEXTEND SGT ISZERO PUSH2 0x374F JUMPI PUSH17 0x10000000058B90BFBF8479BD5A81B51AD MUL PUSH1 0x80 SHR JUMPDEST PUSH1 0x0 DUP4 PUSH4 0x40000000 AND PUSH1 0xF SIGNEXTEND SGT ISZERO PUSH2 0x3778 JUMPI PUSH17 0x1000000002C5C85FDF84BD62AE30A74CC MUL PUSH1 0x80 SHR JUMPDEST PUSH1 0x0 DUP4 PUSH4 0x20000000 AND PUSH1 0xF SIGNEXTEND SGT ISZERO PUSH2 0x37A1 JUMPI PUSH17 0x100000000162E42FEFB2FED257559BDAA MUL PUSH1 0x80 SHR JUMPDEST PUSH1 0x0 DUP4 PUSH4 0x10000000 AND PUSH1 0xF SIGNEXTEND SGT ISZERO PUSH2 0x37CA JUMPI PUSH17 0x1000000000B17217F7D5A7716BBA4A9AE MUL PUSH1 0x80 SHR JUMPDEST PUSH1 0x0 DUP4 PUSH4 0x8000000 AND PUSH1 0xF SIGNEXTEND SGT ISZERO PUSH2 0x37F3 JUMPI PUSH17 0x100000000058B90BFBE9DDBAC5E109CCE MUL PUSH1 0x80 SHR JUMPDEST PUSH1 0x0 DUP4 PUSH4 0x4000000 AND PUSH1 0xF SIGNEXTEND SGT ISZERO PUSH2 0x381C JUMPI PUSH17 0x10000000002C5C85FDF4B15DE6F17EB0D MUL PUSH1 0x80 SHR JUMPDEST PUSH1 0x0 DUP4 PUSH4 0x2000000 AND PUSH1 0xF SIGNEXTEND SGT ISZERO PUSH2 0x3845 JUMPI PUSH17 0x1000000000162E42FEFA494F1478FDE05 MUL PUSH1 0x80 SHR JUMPDEST PUSH1 0x0 DUP4 PUSH4 0x1000000 AND PUSH1 0xF SIGNEXTEND SGT ISZERO PUSH2 0x386E JUMPI PUSH17 0x10000000000B17217F7D20CF927C8E94C MUL PUSH1 0x80 SHR JUMPDEST PUSH1 0x0 DUP4 PUSH3 0x800000 AND PUSH1 0xF SIGNEXTEND SGT ISZERO PUSH2 0x3896 JUMPI PUSH17 0x1000000000058B90BFBE8F71CB4E4B33D MUL PUSH1 0x80 SHR JUMPDEST PUSH1 0x0 DUP4 PUSH3 0x400000 AND PUSH1 0xF SIGNEXTEND SGT ISZERO PUSH2 0x38BE JUMPI PUSH17 0x100000000002C5C85FDF477B662B26945 MUL PUSH1 0x80 SHR JUMPDEST PUSH1 0x0 DUP4 PUSH3 0x200000 AND PUSH1 0xF SIGNEXTEND SGT ISZERO PUSH2 0x38E6 JUMPI PUSH17 0x10000000000162E42FEFA3AE53369388C MUL PUSH1 0x80 SHR JUMPDEST PUSH1 0x0 DUP4 PUSH3 0x100000 AND PUSH1 0xF SIGNEXTEND SGT ISZERO PUSH2 0x390E JUMPI PUSH17 0x100000000000B17217F7D1D351A389D40 MUL PUSH1 0x80 SHR JUMPDEST PUSH1 0x0 DUP4 PUSH3 0x80000 AND PUSH1 0xF SIGNEXTEND SGT ISZERO PUSH2 0x3936 JUMPI PUSH17 0x10000000000058B90BFBE8E8B2D3D4EDE MUL PUSH1 0x80 SHR JUMPDEST PUSH1 0x0 DUP4 PUSH3 0x40000 AND PUSH1 0xF SIGNEXTEND SGT ISZERO PUSH2 0x395E JUMPI PUSH17 0x1000000000002C5C85FDF4741BEA6E77E MUL PUSH1 0x80 SHR JUMPDEST PUSH1 0x0 DUP4 PUSH3 0x20000 AND PUSH1 0xF SIGNEXTEND SGT ISZERO PUSH2 0x3986 JUMPI PUSH17 0x100000000000162E42FEFA39FE95583C2 MUL PUSH1 0x80 SHR JUMPDEST PUSH1 0x0 DUP4 PUSH3 0x10000 AND PUSH1 0xF SIGNEXTEND SGT ISZERO PUSH2 0x39AE JUMPI PUSH17 0x1000000000000B17217F7D1CFB72B45E1 MUL PUSH1 0x80 SHR JUMPDEST PUSH1 0x0 DUP4 PUSH2 0x8000 AND PUSH1 0xF SIGNEXTEND SGT ISZERO PUSH2 0x39D5 JUMPI PUSH17 0x100000000000058B90BFBE8E7CC35C3F0 MUL PUSH1 0x80 SHR JUMPDEST PUSH1 0x0 DUP4 PUSH2 0x4000 AND PUSH1 0xF SIGNEXTEND SGT ISZERO PUSH2 0x39FC JUMPI PUSH17 0x10000000000002C5C85FDF473E242EA38 MUL PUSH1 0x80 SHR JUMPDEST PUSH1 0x0 DUP4 PUSH2 0x2000 AND PUSH1 0xF SIGNEXTEND SGT ISZERO PUSH2 0x3A23 JUMPI PUSH17 0x1000000000000162E42FEFA39F02B772C MUL PUSH1 0x80 SHR JUMPDEST PUSH1 0x0 DUP4 PUSH2 0x1000 AND PUSH1 0xF SIGNEXTEND SGT ISZERO PUSH2 0x3A4A JUMPI PUSH17 0x10000000000000B17217F7D1CF7D83C1A MUL PUSH1 0x80 SHR JUMPDEST PUSH1 0x0 DUP4 PUSH2 0x800 AND PUSH1 0xF SIGNEXTEND SGT ISZERO PUSH2 0x3A71 JUMPI PUSH17 0x1000000000000058B90BFBE8E7BDCBE2E MUL PUSH1 0x80 SHR JUMPDEST PUSH1 0x0 DUP4 PUSH2 0x400 AND PUSH1 0xF SIGNEXTEND SGT ISZERO PUSH2 0x3A98 JUMPI PUSH17 0x100000000000002C5C85FDF473DEA871F MUL PUSH1 0x80 SHR JUMPDEST PUSH1 0x0 DUP4 PUSH2 0x200 AND PUSH1 0xF SIGNEXTEND SGT ISZERO PUSH2 0x3ABF JUMPI PUSH17 0x10000000000000162E42FEFA39EF44D91 MUL PUSH1 0x80 SHR JUMPDEST PUSH1 0x0 DUP4 PUSH2 0x100 AND PUSH1 0xF SIGNEXTEND SGT ISZERO PUSH2 0x3AE6 JUMPI PUSH17 0x100000000000000B17217F7D1CF79E949 MUL PUSH1 0x80 SHR JUMPDEST PUSH1 0x0 DUP4 PUSH1 0x80 AND PUSH1 0xF SIGNEXTEND SGT ISZERO PUSH2 0x3B0C JUMPI PUSH17 0x10000000000000058B90BFBE8E7BCE544 MUL PUSH1 0x80 SHR JUMPDEST PUSH1 0x0 DUP4 PUSH1 0x40 AND PUSH1 0xF SIGNEXTEND SGT ISZERO PUSH2 0x3B32 JUMPI PUSH17 0x1000000000000002C5C85FDF473DE6ECA MUL PUSH1 0x80 SHR JUMPDEST PUSH1 0x0 DUP4 PUSH1 0x20 AND PUSH1 0xF SIGNEXTEND SGT ISZERO PUSH2 0x3B58 JUMPI PUSH17 0x100000000000000162E42FEFA39EF366F MUL PUSH1 0x80 SHR JUMPDEST PUSH1 0x0 DUP4 PUSH1 0x10 AND PUSH1 0xF SIGNEXTEND SGT ISZERO PUSH2 0x3B7E JUMPI PUSH17 0x1000000000000000B17217F7D1CF79AFA MUL PUSH1 0x80 SHR JUMPDEST PUSH1 0x0 DUP4 PUSH1 0x8 AND PUSH1 0xF SIGNEXTEND SGT ISZERO PUSH2 0x3BA4 JUMPI PUSH17 0x100000000000000058B90BFBE8E7BCD6D MUL PUSH1 0x80 SHR JUMPDEST PUSH1 0x0 DUP4 PUSH1 0x4 AND PUSH1 0xF SIGNEXTEND SGT ISZERO PUSH2 0x3BCA JUMPI PUSH17 0x10000000000000002C5C85FDF473DE6B2 MUL PUSH1 0x80 SHR JUMPDEST PUSH1 0x0 DUP4 PUSH1 0x2 AND PUSH1 0xF SIGNEXTEND SGT ISZERO PUSH2 0x3BF0 JUMPI PUSH17 0x1000000000000000162E42FEFA39EF358 MUL PUSH1 0x80 SHR JUMPDEST PUSH1 0x0 DUP4 PUSH1 0x1 AND PUSH1 0xF SIGNEXTEND SGT ISZERO PUSH2 0x3C16 JUMPI PUSH17 0x10000000000000000B17217F7D1CF79AB MUL PUSH1 0x80 SHR JUMPDEST PUSH1 0xF DUP4 DUP2 SIGNEXTEND PUSH1 0x40 SAR PUSH1 0x3F SUB SWAP1 SIGNEXTEND SHR PUSH1 0x1 PUSH1 0x1 PUSH1 0x7F SHL SUB DUP2 GT ISZERO PUSH2 0x7CA JUMPI PUSH1 0x0 DUP1 REVERT JUMPDEST PUSH1 0x0 DUP1 PUSH2 0x7CA PUSH1 0xA PUSH2 0x3F9E JUMP JUMPDEST PUSH1 0x0 DUP6 SLT ISZERO DUP1 ISZERO PUSH2 0x3C5D JUMPI POP PUSH1 0x1 PUSH1 0x1 PUSH1 0x50 SHL SUB DUP6 SGT ISZERO JUMPDEST PUSH2 0x3C66 JUMPI PUSH1 0x0 DUP1 REVERT JUMPDEST PUSH1 0x0 DUP5 SLT ISZERO DUP1 ISZERO PUSH2 0x3C7E JUMPI POP PUSH1 0x1 PUSH1 0x1 PUSH1 0x50 SHL SUB DUP5 SGT ISZERO JUMPDEST PUSH2 0x3C87 JUMPI PUSH1 0x0 DUP1 REVERT JUMPDEST DUP3 PUSH1 0x0 LT DUP1 ISZERO PUSH2 0x3C9B JUMPI POP PUSH4 0xFFFFFFFF DUP4 GT ISZERO JUMPDEST PUSH2 0x3CA4 JUMPI PUSH1 0x0 DUP1 REVERT JUMPDEST DUP2 PUSH1 0x0 LT DUP1 ISZERO PUSH2 0x3CB8 JUMPI POP PUSH4 0xFFFFFFFF DUP3 GT ISZERO JUMPDEST PUSH2 0x3CC1 JUMPI PUSH1 0x0 DUP1 REVERT JUMPDEST PUSH4 0xFFFFFFFF DUP2 GT ISZERO PUSH2 0x3CD2 JUMPI PUSH1 0x0 DUP1 REVERT JUMPDEST DUP6 SLOAD PUSH10 0xFFFFFFFFFFFFFFFFFFFF NOT AND PUSH1 0x1 PUSH1 0x1 PUSH1 0x50 SHL SUB SWAP6 DUP7 AND OR PUSH10 0xFFFFFFFFFFFFFFFFFFFF PUSH1 0x50 SHL NOT AND PUSH1 0x1 PUSH1 0x50 SHL SWAP5 SWAP1 SWAP6 AND SWAP4 SWAP1 SWAP4 MUL SWAP4 SWAP1 SWAP4 OR PUSH4 0xFFFFFFFF PUSH1 0xA0 SHL NOT AND PUSH1 0x1 PUSH1 0xA0 SHL PUSH4 0xFFFFFFFF SWAP3 DUP4 AND MUL OR PUSH4 0xFFFFFFFF PUSH1 0xC0 SHL NOT AND PUSH1 0x1 PUSH1 0xC0 SHL SWAP4 DUP3 AND SWAP4 SWAP1 SWAP4 MUL SWAP3 SWAP1 SWAP3 OR PUSH1 0x1 PUSH1 0x1 PUSH1 0xE0 SHL SUB AND PUSH1 0x1 PUSH1 0xE0 SHL SWAP2 SWAP1 SWAP3 AND MUL OR SWAP1 SSTORE JUMP JUMPDEST PUSH1 0x0 DUP2 SLT ISZERO DUP1 ISZERO PUSH2 0x3D71 JUMPI POP PUSH1 0x1 PUSH1 0x1 PUSH1 0x50 SHL SUB DUP2 SGT ISZERO JUMPDEST PUSH2 0x3D7A JUMPI PUSH1 0x0 DUP1 REVERT JUMPDEST PUSH1 0x1 SWAP2 SWAP1 SWAP2 ADD DUP1 SLOAD PUSH10 0xFFFFFFFFFFFFFFFFFFFF NOT AND PUSH1 0x1 PUSH1 0x1 PUSH1 0x50 SHL SUB SWAP1 SWAP3 AND SWAP2 SWAP1 SWAP2 OR SWAP1 SSTORE JUMP JUMPDEST PUSH1 0x0 DUP1 PUSH1 0x0 PUSH2 0x3DB0 DUP6 PUSH2 0x16BC JUMP JUMPDEST SWAP1 POP PUSH3 0x15180 DUP5 MOD ISZERO PUSH2 0x3DCA JUMPI PUSH1 0x0 DUP1 SWAP3 POP SWAP3 POP POP PUSH2 0x3EA6 JUMP JUMPDEST DUP4 DUP2 LT PUSH2 0x3DDE JUMPI PUSH1 0x0 DUP1 SWAP3 POP SWAP3 POP POP PUSH2 0x3EA6 JUMP JUMPDEST PUSH3 0x15180 DUP2 DUP6 SUB DIV PUSH1 0x5A DUP2 GT PUSH2 0x3DFB JUMPI SWAP3 POP PUSH1 0x1 SWAP2 POP PUSH2 0x3EA6 SWAP1 POP JUMP JUMPDEST PUSH2 0x168 DUP2 GT PUSH2 0x3E3A JUMPI PUSH1 0x0 PUSH3 0x15180 PUSH3 0x7E900 DUP5 MOD DIV DUP3 ADD PUSH1 0x59 NOT ADD SWAP1 POP PUSH1 0x6 DUP2 DIV PUSH1 0x5A ADD PUSH1 0x6 DUP3 DUP2 PUSH2 0x3E2A JUMPI INVALID JUMPDEST MOD PUSH1 0x0 EQ SWAP5 POP SWAP5 POP POP POP POP PUSH2 0x3EA6 JUMP JUMPDEST PUSH2 0x870 DUP2 GT PUSH2 0x3E6A JUMPI PUSH1 0x0 PUSH3 0x15180 PUSH3 0x278D00 DUP5 MOD DIV DUP3 ADD PUSH2 0x167 NOT ADD SWAP1 POP PUSH1 0x1E DUP2 DIV PUSH1 0x87 ADD PUSH1 0x1E DUP3 DUP2 PUSH2 0x3E2A JUMPI INVALID JUMPDEST PUSH2 0x1DE2 DUP2 GT PUSH2 0x3E9A JUMPI PUSH1 0x0 PUSH3 0x15180 PUSH3 0x76A700 DUP5 MOD DIV DUP3 ADD PUSH2 0x86F NOT ADD SWAP1 POP PUSH1 0x5A DUP2 DIV PUSH1 0xC3 ADD PUSH1 0x5A DUP3 DUP2 PUSH2 0x3E2A JUMPI INVALID JUMPDEST PUSH2 0x100 PUSH1 0x0 SWAP4 POP SWAP4 POP POP POP JUMPDEST SWAP3 POP SWAP3 SWAP1 POP JUMP JUMPDEST PUSH1 0x0 PUSH1 0x1 DUP3 LT ISZERO DUP1 ISZERO PUSH2 0x3EC2 JUMPI POP PUSH2 0x100 DUP3 GT ISZERO JUMPDEST PUSH2 0x3ECB JUMPI PUSH1 0x0 DUP1 REVERT JUMPDEST POP PUSH1 0x0 NOT ADD SHL PUSH1 0x1 PUSH1 0xFF SHL SWAP1 DUP2 AND EQ SWAP1 JUMP JUMPDEST PUSH1 0x14 PUSH2 0x3EE8 DUP3 PUSH2 0x4890 JUMP JUMPDEST GT ISZERO PUSH2 0x3F06 JUMPI PUSH1 0x40 MLOAD PUSH3 0x461BCD PUSH1 0xE5 SHL DUP2 MSTORE PUSH1 0x4 ADD PUSH2 0xE6 SWAP1 PUSH2 0x5168 JUMP JUMPDEST PUSH1 0x0 PUSH2 0x3F10 PUSH2 0x262A JUMP JUMPDEST PUSH1 0x1 PUSH1 0x1 PUSH1 0xA0 SHL SUB SWAP1 SWAP5 AND PUSH1 0x0 SWAP1 DUP2 MSTORE PUSH1 0x20 SWAP5 DUP6 MSTORE PUSH1 0x40 DUP1 DUP3 KECCAK256 SWAP5 DUP3 MSTORE SWAP4 SWAP1 SWAP5 MSTORE POP SWAP2 KECCAK256 SSTORE JUMP JUMPDEST PUSH1 0x0 DUP1 DUP3 PUSH1 0x40 ADD MLOAD GT DUP1 ISZERO PUSH2 0x3F51 JUMPI POP PUSH1 0x40 DUP3 ADD MLOAD PUSH1 0x8 LT ISZERO JUMPDEST PUSH2 0x3F5A JUMPI PUSH1 0x0 DUP1 REVERT JUMPDEST PUSH1 0x40 DUP3 ADD MLOAD PUSH1 0x2 LT PUSH2 0x3F71 JUMPI POP PUSH1 0x20 DUP2 ADD MLOAD PUSH2 0x768 JUMP JUMPDEST PUSH1 0x0 PUSH2 0x3F83 PUSH1 0x1 DUP5 PUSH1 0x40 ADD MLOAD SUB PUSH2 0xA1A JUMP JUMPDEST PUSH1 0x20 DUP5 ADD MLOAD SWAP1 SWAP2 POP PUSH2 0x906 SWAP1 PUSH3 0x76A700 SWAP1 PUSH2 0x3D1 SWAP1 DUP5 PUSH2 0xB23 JUMP JUMPDEST PUSH1 0x0 PUSH3 0xF4240 DUP3 PUSH1 0x1A DUP2 GT ISZERO PUSH2 0x3FB0 JUMPI INVALID JUMPDEST ADD SWAP3 SWAP2 POP POP JUMP JUMPDEST PUSH1 0x0 DUP1 PUSH2 0x7CA PUSH1 0x3 PUSH2 0x3F9E JUMP JUMPDEST PUSH1 0x0 DUP1 PUSH2 0x7CA PUSH1 0x11 PUSH2 0x3F9E JUMP JUMPDEST PUSH1 0x60 PUSH1 0x0 PUSH2 0x3FDF DUP5 DUP5 PUSH2 0x4960 JUMP JUMPDEST SWAP1 POP PUSH1 0x1 DUP2 MLOAD GT PUSH2 0x3FF1 JUMPI SWAP1 POP PUSH2 0x7CA JUMP JUMPDEST PUSH2 0x7C7 DUP2 PUSH2 0x4A82 JUMP JUMPDEST PUSH1 0x8 DUP2 SWAP1 SHR PUSH1 0xFF SWAP1 SWAP2 AND SHL SWAP1 JUMP JUMPDEST PUSH1 0x0 DUP1 PUSH1 0x0 DUP1 PUSH1 0x0 PUSH2 0x4019 DUP7 PUSH2 0x4C3B JUMP JUMPDEST SWAP1 SWAP3 POP SWAP1 POP PUSH1 0x0 PUSH1 0x1 PUSH1 0x1 PUSH1 0xA0 SHL SUB DUP4 AND PUSH2 0x403E JUMPI POP PUSH1 0x0 SWAP1 POP PUSH5 0x2540BE400 PUSH2 0x40C0 JUMP JUMPDEST DUP3 PUSH1 0x1 PUSH1 0x1 PUSH1 0xA0 SHL SUB AND PUSH4 0x1EE10833 PUSH1 0x40 MLOAD DUP2 PUSH4 0xFFFFFFFF AND PUSH1 0xE0 SHL DUP2 MSTORE PUSH1 0x4 ADD PUSH1 0x20 PUSH1 0x40 MLOAD DUP1 DUP4 SUB DUP2 PUSH1 0x0 DUP8 DUP1 EXTCODESIZE ISZERO DUP1 ISZERO PUSH2 0x4079 JUMPI PUSH1 0x0 DUP1 REVERT JUMPDEST POP GAS CALL ISZERO DUP1 ISZERO PUSH2 0x408D JUMPI RETURNDATASIZE PUSH1 0x0 DUP1 RETURNDATACOPY RETURNDATASIZE PUSH1 0x0 REVERT JUMPDEST POP POP POP POP PUSH1 0x40 MLOAD RETURNDATASIZE PUSH1 0x1F NOT PUSH1 0x1F DUP3 ADD AND DUP3 ADD DUP1 PUSH1 0x40 MSTORE POP DUP2 ADD SWAP1 PUSH2 0x40B1 SWAP2 SWAP1 PUSH2 0x4F6F JUMP JUMPDEST SWAP1 POP PUSH1 0x0 DUP2 SGT PUSH2 0x40C0 JUMPI PUSH1 0x0 DUP1 REVERT JUMPDEST SWAP7 SWAP2 SWAP6 POP SWAP4 POP SWAP2 POP POP JUMP JUMPDEST PUSH1 0x0 DUP1 PUSH2 0x40D6 PUSH2 0x4C72 JUMP JUMPDEST PUSH1 0x0 SWAP4 DUP5 MSTORE PUSH1 0x20 MSTORE POP POP PUSH1 0x40 SWAP1 KECCAK256 SLOAD SWAP1 JUMP JUMPDEST PUSH1 0x0 DUP1 DUP4 GT PUSH2 0x40F6 JUMPI PUSH1 0x0 DUP1 REVERT JUMPDEST DUP2 DUP7 GT ISZERO PUSH2 0x4105 JUMPI POP DUP4 PUSH2 0x9D5 JUMP JUMPDEST PUSH1 0x0 PUSH2 0x4111 DUP4 DUP9 PUSH2 0xB23 JUMP JUMPDEST SWAP1 POP DUP4 DUP2 GT ISZERO PUSH2 0x4124 JUMPI DUP6 SWAP2 POP POP PUSH2 0x9D5 JUMP JUMPDEST PUSH1 0x0 PUSH2 0x4138 DUP6 PUSH2 0xD24 DUP5 PUSH4 0x3B9ACA00 PUSH2 0x1C74 JUMP JUMPDEST SWAP1 POP PUSH1 0x0 PUSH2 0x414A PUSH4 0x3B9ACA00 DUP4 PUSH2 0xB23 JUMP JUMPDEST SWAP1 POP PUSH1 0x0 PUSH2 0x416D PUSH4 0x3B9ACA00 PUSH2 0xD24 PUSH2 0x4163 DUP12 DUP7 PUSH2 0x1C74 JUMP JUMPDEST PUSH2 0x3D1 DUP14 DUP9 PUSH2 0x1C74 JUMP JUMPDEST SWAP11 SWAP10 POP POP POP POP POP POP POP POP POP POP JUMP JUMPDEST PUSH1 0x0 PUSH1 0xF DUP3 SWAP1 SIGNEXTEND PUSH1 0x1 PUSH1 0x1 PUSH1 0x7F SHL SUB NOT EQ ISZERO PUSH2 0x4196 JUMPI PUSH1 0x0 DUP1 REVERT JUMPDEST POP PUSH1 0x0 SUB SWAP1 JUMP JUMPDEST DUP2 MLOAD MLOAD PUSH1 0x60 SWAP1 PUSH1 0x0 SWAP1 DUP2 SWAP1 PUSH2 0x41E7 JUMPI PUSH1 0x40 DUP1 MLOAD PUSH1 0x0 DUP1 DUP3 MSTORE PUSH1 0x20 DUP3 ADD SWAP1 SWAP3 MSTORE SWAP1 PUSH2 0x41DD JUMP JUMPDEST PUSH2 0x41CA PUSH2 0x4F43 JUMP JUMPDEST DUP2 MSTORE PUSH1 0x20 ADD SWAP1 PUSH1 0x1 SWAP1 SUB SWAP1 DUP2 PUSH2 0x41C2 JUMPI SWAP1 POP JUMPDEST POP SWAP3 POP POP POP PUSH2 0x7CA JUMP JUMPDEST DUP5 MLOAD MLOAD JUMPDEST PUSH1 0x0 NOT DUP2 ADD SWAP1 ISZERO PUSH2 0x4242 JUMPI PUSH1 0x0 DUP7 PUSH1 0x0 ADD MLOAD DUP3 DUP2 MLOAD DUP2 LT PUSH2 0x4208 JUMPI INVALID JUMPDEST PUSH1 0x20 MUL PUSH1 0x20 ADD ADD MLOAD SWAP1 POP DUP6 PUSH2 0x421C DUP3 PUSH2 0x3F37 JUMP JUMPDEST GT ISZERO PUSH2 0x4228 JUMPI POP PUSH2 0x423D JUMP JUMPDEST DUP1 MLOAD DUP4 EQ PUSH2 0x423B JUMPI DUP1 MLOAD PUSH1 0x1 SWAP1 SWAP5 ADD SWAP4 SWAP3 POP JUMPDEST POP JUMPDEST PUSH2 0x41EB JUMP JUMPDEST POP PUSH1 0x0 DUP3 PUSH8 0xFFFFFFFFFFFFFFFF DUP2 GT DUP1 ISZERO PUSH2 0x425C JUMPI PUSH1 0x0 DUP1 REVERT JUMPDEST POP PUSH1 0x40 MLOAD SWAP1 DUP1 DUP3 MSTORE DUP1 PUSH1 0x20 MUL PUSH1 0x20 ADD DUP3 ADD PUSH1 0x40 MSTORE DUP1 ISZERO PUSH2 0x4296 JUMPI DUP2 PUSH1 0x20 ADD JUMPDEST PUSH2 0x4283 PUSH2 0x4F43 JUMP JUMPDEST DUP2 MSTORE PUSH1 0x20 ADD SWAP1 PUSH1 0x1 SWAP1 SUB SWAP1 DUP2 PUSH2 0x427B JUMPI SWAP1 POP JUMPDEST POP SWAP1 POP DUP3 ISZERO PUSH2 0x9D5 JUMPI DUP2 DUP2 PUSH1 0x0 DUP2 MLOAD DUP2 LT PUSH2 0x42AD JUMPI INVALID JUMPDEST PUSH1 0x20 SWAP1 DUP2 MUL SWAP2 SWAP1 SWAP2 ADD ADD MLOAD MSTORE SWAP6 SWAP5 POP POP POP POP POP JUMP JUMPDEST PUSH2 0x42CA PUSH2 0x4F19 JUMP JUMPDEST PUSH1 0x0 DUP1 PUSH2 0x42D7 DUP7 DUP7 PUSH2 0x4C7F JUMP JUMPDEST SWAP2 POP SWAP2 POP DUP2 PUSH1 0x0 EQ ISZERO PUSH2 0x4407 JUMPI PUSH1 0x0 PUSH2 0x42EF DUP8 PUSH2 0x4008 JUMP JUMPDEST SWAP2 SWAP5 POP SWAP1 SWAP3 POP SWAP1 POP PUSH1 0x1 PUSH1 0x1 PUSH1 0xA0 SHL SUB DUP2 AND ISZERO PUSH2 0x4405 JUMPI PUSH1 0x0 PUSH2 0x4310 PUSH2 0x4CC8 JUMP JUMPDEST SWAP1 POP DUP6 PUSH1 0x0 LT DUP1 ISZERO PUSH2 0x4322 JUMPI POP DUP6 DUP8 GT ISZERO JUMPDEST DUP1 ISZERO PUSH2 0x4333 JUMPI POP PUSH5 0xFFFFFFFFFF DUP7 GT ISZERO JUMPDEST PUSH2 0x433C JUMPI PUSH1 0x0 DUP1 REVERT JUMPDEST DUP4 PUSH1 0x0 SLT DUP1 ISZERO PUSH2 0x4353 JUMPI POP PUSH1 0x1 PUSH1 0x1 PUSH1 0x80 SHL SUB DUP5 SGT ISZERO JUMPDEST PUSH2 0x435C JUMPI PUSH1 0x0 DUP1 REVERT JUMPDEST PUSH1 0x0 DUP9 DUP2 MSTORE PUSH1 0x20 DUP3 DUP2 MSTORE PUSH1 0x40 DUP1 DUP4 KECCAK256 DUP11 DUP5 MSTORE SWAP1 SWAP2 MSTORE SWAP1 DUP2 SWAP1 KECCAK256 DUP1 SLOAD PUSH5 0xFFFFFFFFFF NOT AND PUSH5 0xFFFFFFFFFF DUP10 AND OR PUSH21 0xFFFFFFFFFFFFFFFFFFFFFFFFFFFFFFFF0000000000 NOT AND PUSH6 0x10000000000 PUSH1 0x1 PUSH1 0x1 PUSH1 0x80 SHL SUB DUP9 AND MUL OR PUSH1 0xFF PUSH1 0xA8 SHL NOT AND PUSH1 0x1 PUSH1 0xA8 SHL PUSH1 0xFF DUP8 AND MUL OR DUP2 SSTORE SWAP1 MLOAD DUP9 SWAP1 DUP11 SWAP1 PUSH32 0xFDFA6885701E2F1F42E4187B9231CF81C1FE23671EF64FA46F34DDB56C1DC18 SWAP1 PUSH2 0x43FA SWAP1 DUP10 SWAP1 PUSH2 0x533E JUMP JUMPDEST PUSH1 0x40 MLOAD DUP1 SWAP2 SUB SWAP1 LOG3 POP POP JUMPDEST POP JUMPDEST PUSH1 0x40 DUP1 MLOAD PUSH1 0x60 DUP2 ADD DUP3 MSTORE PUSH1 0x0 DUP2 MSTORE PUSH1 0x20 DUP2 ADD SWAP4 SWAP1 SWAP4 MSTORE PUSH1 0xFF SWAP1 SWAP2 AND PUSH1 0xA EXP SWAP1 DUP3 ADD MSTORE SWAP1 POP SWAP4 SWAP3 POP POP POP JUMP JUMPDEST PUSH2 0x4440 DUP5 DUP5 DUP5 PUSH1 0x1 DUP6 PUSH2 0x463F JUMP JUMPDEST POP POP POP POP JUMP JUMPDEST PUSH1 0x0 DUP1 DUP3 PUSH2 0x4459 JUMPI POP PUSH1 0x0 SWAP1 POP DUP1 PUSH2 0x3EA6 JUMP JUMPDEST PUSH1 0x0 DUP4 SGT PUSH2 0x4466 JUMPI PUSH1 0x0 DUP1 REVERT JUMPDEST PUSH2 0x4485 DUP5 PUSH1 0x80 ADD MLOAD PUSH2 0xAD3 DUP6 DUP8 PUSH1 0x60 ADD MLOAD PUSH2 0x192D SWAP1 SWAP2 SWAP1 PUSH4 0xFFFFFFFF AND JUMP JUMPDEST SWAP2 POP PUSH2 0x44A6 DUP5 PUSH1 0x80 ADD MLOAD PUSH2 0xAD3 DUP6 DUP8 PUSH1 0x40 ADD MLOAD PUSH2 0x192D SWAP1 SWAP2 SWAP1 PUSH4 0xFFFFFFFF AND JUMP JUMPDEST PUSH1 0x80 DUP6 ADD MLOAD SWAP1 SWAP2 POP PUSH2 0x44B8 SWAP1 DUP5 PUSH2 0x90D JUMP JUMPDEST PUSH1 0x80 DUP6 ADD MSTORE PUSH1 0x40 DUP5 ADD MLOAD PUSH2 0x44CC SWAP1 DUP3 PUSH2 0x90D JUMP JUMPDEST PUSH1 0x40 DUP6 ADD MSTORE PUSH1 0x60 DUP5 ADD MLOAD PUSH2 0x44E0 SWAP1 DUP4 PUSH2 0x90D JUMP JUMPDEST PUSH1 0x60 DUP6 ADD MSTORE PUSH2 0x3EA6 DUP5 PUSH2 0x4CD5 JUMP JUMPDEST PUSH1 0x0 DUP4 PUSH1 0x0 ADD MLOAD DUP4 DUP2 MLOAD DUP2 LT PUSH2 0x4500 JUMPI INVALID JUMPDEST PUSH1 0x20 MUL PUSH1 0x20 ADD ADD MLOAD SWAP1 POP DUP3 PUSH1 0x0 EQ PUSH2 0x458B JUMPI PUSH1 0x0 DUP5 PUSH1 0x0 ADD MLOAD PUSH1 0x1 DUP6 SUB DUP2 MLOAD DUP2 LT PUSH2 0x4527 JUMPI INVALID JUMPDEST PUSH1 0x20 MUL PUSH1 0x20 ADD ADD MLOAD SWAP1 POP DUP2 PUSH1 0x0 ADD MLOAD DUP2 PUSH1 0x0 ADD MLOAD EQ DUP1 ISZERO PUSH2 0x454F JUMPI POP DUP2 PUSH1 0x20 ADD MLOAD DUP2 PUSH1 0x20 ADD MLOAD EQ JUMPDEST DUP1 ISZERO PUSH2 0x455F JUMPI POP PUSH1 0x40 DUP2 ADD MLOAD PUSH1 0x1 EQ JUMPDEST ISZERO PUSH2 0x4589 JUMPI PUSH1 0x60 DUP2 ADD MLOAD PUSH2 0x4573 SWAP1 DUP5 PUSH2 0x2B5C JUMP JUMPDEST PUSH1 0x60 DUP3 ADD MSTORE PUSH1 0x1 PUSH1 0xA0 DUP3 ADD MSTORE PUSH2 0x4589 DUP6 DUP6 PUSH2 0x2079 JUMP JUMPDEST POP JUMPDEST PUSH1 0x1 PUSH1 0x40 DUP3 ADD DUP2 SWAP1 MSTORE PUSH1 0x60 DUP3 ADD SWAP3 SWAP1 SWAP3 MSTORE PUSH1 0xA0 ADD MSTORE POP POP JUMP JUMPDEST PUSH1 0x0 DUP1 PUSH2 0x45AF PUSH2 0x26D0 JUMP JUMPDEST PUSH1 0x1 PUSH1 0x1 PUSH1 0xA0 SHL SUB DUP8 AND PUSH1 0x0 SWAP1 DUP2 MSTORE PUSH1 0x20 DUP3 DUP2 MSTORE PUSH1 0x40 DUP1 DUP4 KECCAK256 DUP10 DUP5 MSTORE DUP3 MSTORE DUP1 DUP4 KECCAK256 DUP9 DUP5 MSTORE SWAP1 SWAP2 MSTORE DUP2 KECCAK256 SLOAD SWAP2 SWAP3 POP PUSH1 0xF SWAP2 DUP3 SIGNEXTEND SWAP1 SWAP2 SIGNEXTEND SWAP1 PUSH2 0x45F0 DUP8 DUP8 DUP8 PUSH2 0x42C2 JUMP JUMPDEST SWAP1 POP PUSH2 0x45FC DUP2 DUP4 PUSH2 0x1549 JUMP JUMPDEST PUSH1 0x1 PUSH1 0x1 PUSH1 0xA0 SHL SUB SWAP9 SWAP1 SWAP9 AND PUSH1 0x0 SWAP1 DUP2 MSTORE PUSH1 0x20 SWAP4 DUP5 MSTORE PUSH1 0x40 DUP1 DUP3 KECCAK256 SWAP9 DUP3 MSTORE SWAP8 DUP5 MSTORE DUP8 DUP2 KECCAK256 SWAP7 DUP2 MSTORE SWAP6 SWAP1 SWAP3 MSTORE POP POP POP SWAP2 SWAP1 KECCAK256 DUP1 SLOAD PUSH1 0x1 PUSH1 0x1 PUSH1 0x80 SHL SUB NOT AND SWAP1 SSTORE POP SWAP1 JUMP JUMPDEST PUSH1 0x0 PUSH2 0x4649 PUSH2 0x3C38 JUMP JUMPDEST PUSH1 0x0 DUP7 DUP2 MSTORE PUSH1 0x20 DUP3 DUP2 MSTORE PUSH1 0x40 DUP1 DUP4 KECCAK256 DUP9 DUP5 MSTORE DUP3 MSTORE DUP1 DUP4 KECCAK256 DUP7 DUP5 MSTORE DUP3 MSTORE SWAP2 DUP3 SWAP1 KECCAK256 DUP1 DUP11 MSTORE SWAP1 DUP10 ADD DUP8 SWAP1 MSTORE DUP1 SLOAD PUSH1 0x1 PUSH1 0x1 PUSH1 0x50 SHL SUB DUP1 DUP3 AND SWAP4 DUP12 ADD SWAP4 SWAP1 SWAP4 MSTORE PUSH1 0x1 PUSH1 0x50 SHL DUP2 DIV SWAP1 SWAP3 AND PUSH1 0x60 DUP11 ADD MSTORE PUSH4 0xFFFFFFFF PUSH1 0x1 PUSH1 0xA0 SHL DUP4 DIV DUP2 AND PUSH1 0xA0 DUP12 ADD MSTORE PUSH1 0x1 PUSH1 0xC0 SHL DUP4 DIV DUP2 AND PUSH1 0xC0 DUP12 ADD MSTORE PUSH1 0x1 PUSH1 0xE0 SHL SWAP1 SWAP3 DIV SWAP1 SWAP2 AND PUSH1 0xE0 DUP10 ADD MSTORE SWAP1 SWAP2 POP DUP1 DUP5 ISZERO PUSH2 0x46E8 JUMPI PUSH1 0x1 DUP3 ADD SLOAD PUSH1 0x1 PUSH1 0x1 PUSH1 0x50 SHL SUB AND PUSH1 0x80 DUP10 ADD MSTORE PUSH2 0x46F0 JUMP JUMPDEST PUSH1 0x0 PUSH1 0x80 DUP10 ADD MSTORE JUMPDEST POP POP POP POP POP POP POP POP JUMP JUMPDEST PUSH1 0x0 PUSH2 0x7C7 PUSH2 0x470D DUP5 PUSH4 0x3B9ACA00 PUSH2 0x192D JUMP JUMPDEST DUP4 PUSH2 0x197B JUMP JUMPDEST PUSH1 0x0 DUP1 PUSH4 0x3B9ACA00 DUP4 EQ ISZERO PUSH2 0x472D JUMPI POP PUSH1 0x0 SWAP1 POP DUP1 PUSH2 0x47B0 JUMP JUMPDEST PUSH1 0x0 PUSH2 0x4747 PUSH2 0x4740 PUSH4 0x3B9ACA00 DUP7 PUSH2 0x14E8 JUMP JUMPDEST DUP6 SWAP1 PUSH2 0x46FA JUMP JUMPDEST SWAP1 POP PUSH1 0x0 PUSH2 0x4754 DUP3 PUSH2 0x1D4D JUMP JUMPDEST SWAP1 POP PUSH1 0x0 DUP2 PUSH1 0xF SIGNEXTEND SGT PUSH2 0x476F JUMPI PUSH1 0x0 DUP1 SWAP4 POP SWAP4 POP POP POP PUSH2 0x47B0 JUMP JUMPDEST PUSH1 0x0 PUSH2 0x47A3 PUSH2 0x479E PUSH2 0x4792 PUSH2 0x4783 DUP6 PUSH2 0x3134 JUMP JUMPDEST PUSH9 0x14B927F32BFFB83338 PUSH2 0x4D2D JUMP JUMPDEST PUSH3 0x1DCD65 PUSH1 0x49 SHL PUSH2 0x1E5B JUMP JUMPDEST PUSH2 0x1E91 JUMP JUMPDEST PUSH1 0x7 SIGNEXTEND SWAP5 POP PUSH1 0x1 SWAP4 POP POP POP POP JUMPDEST SWAP2 POP SWAP2 JUMP JUMPDEST PUSH1 0x0 DUP1 DUP3 PUSH1 0xF SIGNEXTEND SGT PUSH2 0x47C6 JUMPI PUSH1 0x0 DUP1 REVERT JUMPDEST PUSH1 0x0 PUSH1 0xF DUP4 SWAP1 SIGNEXTEND PUSH1 0x1 PUSH1 0x40 SHL DUP2 SLT PUSH2 0x47E0 JUMPI PUSH1 0x40 SWAP2 DUP3 ADD SWAP2 SAR JUMPDEST PUSH5 0x100000000 DUP2 SLT PUSH2 0x47F4 JUMPI PUSH1 0x20 SWAP2 DUP3 ADD SWAP2 SAR JUMPDEST PUSH3 0x10000 DUP2 SLT PUSH2 0x4806 JUMPI PUSH1 0x10 SWAP2 DUP3 ADD SWAP2 SAR JUMPDEST PUSH2 0x100 DUP2 SLT PUSH2 0x4817 JUMPI PUSH1 0x8 SWAP2 DUP3 ADD SWAP2 SAR JUMPDEST PUSH1 0x10 DUP2 SLT PUSH2 0x4827 JUMPI PUSH1 0x4 SWAP2 DUP3 ADD SWAP2 SAR JUMPDEST PUSH1 0x4 DUP2 SLT PUSH2 0x4837 JUMPI PUSH1 0x2 SWAP2 DUP3 ADD SWAP2 SAR JUMPDEST PUSH1 0x2 DUP2 SLT PUSH2 0x4846 JUMPI PUSH1 0x1 DUP3 ADD SWAP2 POP JUMPDEST PUSH1 0x3F NOT DUP3 ADD PUSH1 0x40 SHL PUSH1 0xF DUP6 SWAP1 SIGNEXTEND PUSH1 0x7F DUP5 SWAP1 SUB SHL PUSH1 0x1 PUSH1 0x3F SHL JUMPDEST PUSH1 0x0 DUP2 SGT ISZERO PUSH2 0x4885 JUMPI SWAP1 DUP1 MUL PUSH1 0xFF DUP2 SWAP1 SHR DUP3 DUP2 MUL SWAP4 SWAP1 SWAP4 ADD SWAP3 PUSH1 0x7F ADD SHR SWAP1 PUSH1 0x1 SAR PUSH2 0x485F JUMP JUMPDEST POP SWAP1 SWAP6 SWAP5 POP POP POP POP POP JUMP JUMPDEST PUSH1 0x1 DUP2 SWAP1 SHR PUSH32 0x5555555555555555555555555555555555555555555555555555555555555555 SWAP1 DUP2 AND SWAP2 AND ADD PUSH1 0x2 DUP2 SWAP1 SHR PUSH32 0x3333333333333333333333333333333333333333333333333333333333333333 SWAP1 DUP2 AND SWAP2 AND ADD PUSH1 0x4 DUP2 SWAP1 SHR PUSH32 0x707070707070707070707070707070707070707070707070707070707070707 SWAP2 SWAP1 SWAP2 AND ADD PUSH1 0x8 DUP2 SWAP1 SHR PUSH31 0xF000F000F000F000F000F000F000F000F000F000F000F000F000F000F000F SWAP1 DUP2 AND SWAP2 AND ADD PUSH1 0x10 DUP2 SWAP1 SHR ADD PUSH1 0x20 DUP2 SWAP1 SHR ADD PUSH1 0x40 DUP2 SWAP1 SHR ADD PUSH1 0x80 DUP2 SWAP1 SHR PUSH1 0xFF SWAP1 DUP2 AND SWAP2 AND ADD SWAP1 JUMP JUMPDEST PUSH1 0x60 PUSH1 0x10 DUP3 PUSH1 0xFF AND GT ISZERO PUSH2 0x4973 JUMPI PUSH1 0x0 DUP1 REVERT JUMPDEST PUSH1 0x0 PUSH2 0x497D PUSH2 0x2355 JUMP JUMPDEST PUSH1 0x1 PUSH1 0x1 PUSH1 0xA0 SHL SUB DUP6 AND PUSH1 0x0 SWAP1 DUP2 MSTORE PUSH1 0x20 DUP3 SWAP1 MSTORE PUSH1 0x40 DUP2 KECCAK256 SWAP2 SWAP3 POP PUSH1 0xFF DUP6 AND PUSH8 0xFFFFFFFFFFFFFFFF DUP2 GT DUP1 ISZERO PUSH2 0x49B2 JUMPI PUSH1 0x0 DUP1 REVERT JUMPDEST POP PUSH1 0x40 MLOAD SWAP1 DUP1 DUP3 MSTORE DUP1 PUSH1 0x20 MUL PUSH1 0x20 ADD DUP3 ADD PUSH1 0x40 MSTORE DUP1 ISZERO PUSH2 0x49EC JUMPI DUP2 PUSH1 0x20 ADD JUMPDEST PUSH2 0x49D9 PUSH2 0x4ED9 JUMP JUMPDEST DUP2 MSTORE PUSH1 0x20 ADD SWAP1 PUSH1 0x1 SWAP1 SUB SWAP1 DUP2 PUSH2 0x49D1 JUMPI SWAP1 POP JUMPDEST POP SWAP1 POP PUSH1 0x0 JUMPDEST DUP6 PUSH1 0xFF AND DUP2 LT ISZERO PUSH2 0x4A78 JUMPI PUSH1 0x0 DUP4 DUP3 PUSH1 0x10 DUP2 LT PUSH2 0x4A0B JUMPI INVALID JUMPDEST ADD SWAP1 POP PUSH1 0x0 DUP4 DUP4 DUP2 MLOAD DUP2 LT PUSH2 0x4A1C JUMPI INVALID JUMPDEST PUSH1 0x20 SWAP1 DUP2 MUL SWAP2 SWAP1 SWAP2 ADD DUP2 ADD MLOAD DUP4 SLOAD PUSH2 0xFFFF DUP2 AND DUP3 MSTORE PUSH5 0xFFFFFFFFFF PUSH3 0x10000 DUP3 DIV AND SWAP3 DUP3 ADD SWAP3 SWAP1 SWAP3 MSTORE PUSH1 0xFF PUSH1 0x1 PUSH1 0x38 SHL DUP4 DIV AND PUSH1 0x40 DUP3 ADD MSTORE PUSH1 0x1 PUSH1 0x40 SHL SWAP1 SWAP2 DIV PUSH1 0xA SWAP1 DUP2 SIGNEXTEND SWAP1 SIGNEXTEND PUSH1 0x60 DUP3 ADD MSTORE PUSH1 0x80 ADD SWAP2 SWAP1 SWAP2 MSTORE POP PUSH1 0x1 ADD PUSH2 0x49F2 JUMP JUMPDEST POP SWAP6 SWAP5 POP POP POP POP POP JUMP JUMPDEST DUP1 MLOAD PUSH1 0x0 DUP2 PUSH8 0xFFFFFFFFFFFFFFFF DUP2 GT DUP1 ISZERO PUSH2 0x4A9D JUMPI PUSH1 0x0 DUP1 REVERT JUMPDEST POP PUSH1 0x40 MLOAD SWAP1 DUP1 DUP3 MSTORE DUP1 PUSH1 0x20 MUL PUSH1 0x20 ADD DUP3 ADD PUSH1 0x40 MSTORE DUP1 ISZERO PUSH2 0x4AC7 JUMPI DUP2 PUSH1 0x20 ADD PUSH1 0x20 DUP3 MUL DUP1 CALLDATASIZE DUP4 CALLDATACOPY ADD SWAP1 POP JUMPDEST POP SWAP1 POP PUSH1 0x0 JUMPDEST DUP3 DUP2 LT ISZERO PUSH2 0x4B24 JUMPI PUSH1 0x0 DUP5 DUP3 DUP2 MLOAD DUP2 LT PUSH2 0x4AE3 JUMPI INVALID JUMPDEST PUSH1 0x20 MUL PUSH1 0x20 ADD ADD MLOAD SWAP1 POP PUSH2 0x4B04 DUP2 PUSH1 0x0 ADD MLOAD DUP3 PUSH1 0x20 ADD MLOAD DUP4 PUSH1 0x40 ADD MLOAD PUSH2 0x4D60 JUMP JUMPDEST DUP4 DUP4 DUP2 MLOAD DUP2 LT PUSH2 0x4B10 JUMPI INVALID JUMPDEST PUSH1 0x20 SWAP1 DUP2 MUL SWAP2 SWAP1 SWAP2 ADD ADD MSTORE POP PUSH1 0x1 ADD PUSH2 0x4ACD JUMP JUMPDEST POP PUSH1 0x1 JUMPDEST DUP3 DUP2 LT ISZERO PUSH2 0x4440 JUMPI DUP1 JUMPDEST PUSH1 0x0 DUP2 GT DUP1 ISZERO PUSH2 0x4B6A JUMPI POP DUP3 DUP2 DUP2 MLOAD DUP2 LT PUSH2 0x4B49 JUMPI INVALID JUMPDEST PUSH1 0x20 MUL PUSH1 0x20 ADD ADD MLOAD DUP4 PUSH1 0x1 DUP4 SUB DUP2 MLOAD DUP2 LT PUSH2 0x4B60 JUMPI INVALID JUMPDEST PUSH1 0x20 MUL PUSH1 0x20 ADD ADD MLOAD GT JUMPDEST ISZERO PUSH2 0x4C32 JUMPI DUP3 DUP2 DUP2 MLOAD DUP2 LT PUSH2 0x4B7B JUMPI INVALID JUMPDEST PUSH1 0x20 MUL PUSH1 0x20 ADD ADD MLOAD DUP4 PUSH1 0x1 DUP4 SUB DUP2 MLOAD DUP2 LT PUSH2 0x4B92 JUMPI INVALID JUMPDEST PUSH1 0x20 MUL PUSH1 0x20 ADD ADD MLOAD DUP5 PUSH1 0x1 DUP5 SUB DUP2 MLOAD DUP2 LT PUSH2 0x4BA9 JUMPI INVALID JUMPDEST PUSH1 0x20 MUL PUSH1 0x20 ADD ADD DUP6 DUP5 DUP2 MLOAD DUP2 LT PUSH2 0x4BBC JUMPI INVALID JUMPDEST PUSH1 0x20 MUL PUSH1 0x20 ADD ADD DUP3 DUP2 MSTORE POP DUP3 DUP2 MSTORE POP POP POP DUP5 DUP2 DUP2 MLOAD DUP2 LT PUSH2 0x4BD9 JUMPI INVALID JUMPDEST PUSH1 0x20 MUL PUSH1 0x20 ADD ADD MLOAD DUP6 PUSH1 0x1 DUP4 SUB DUP2 MLOAD DUP2 LT PUSH2 0x4BF0 JUMPI INVALID JUMPDEST PUSH1 0x20 MUL PUSH1 0x20 ADD ADD MLOAD DUP7 PUSH1 0x1 DUP5 SUB DUP2 MLOAD DUP2 LT PUSH2 0x4C07 JUMPI INVALID JUMPDEST PUSH1 0x20 MUL PUSH1 0x20 ADD ADD DUP8 DUP5 DUP2 MLOAD DUP2 LT PUSH2 0x4C1A JUMPI INVALID JUMPDEST PUSH1 0x20 SWAP1 DUP2 MUL SWAP2 SWAP1 SWAP2 ADD ADD SWAP2 SWAP1 SWAP2 MSTORE MSTORE PUSH1 0x0 NOT ADD PUSH2 0x4B32 JUMP JUMPDEST POP PUSH1 0x1 ADD PUSH2 0x4B28 JUMP JUMPDEST PUSH1 0x0 DUP1 PUSH1 0x0 PUSH2 0x4C48 PUSH2 0x4DBB JUMP JUMPDEST PUSH1 0x0 SWAP5 DUP6 MSTORE PUSH1 0x20 MSTORE POP POP PUSH1 0x40 SWAP1 SWAP2 KECCAK256 SLOAD PUSH1 0x1 PUSH1 0x1 PUSH1 0xA0 SHL SUB DUP2 AND SWAP3 PUSH1 0x1 PUSH1 0xA0 SHL SWAP1 SWAP2 DIV PUSH1 0xFF AND SWAP2 POP JUMP JUMPDEST PUSH1 0x0 DUP1 PUSH2 0x7CA PUSH1 0x9 PUSH2 0x3F9E JUMP JUMPDEST PUSH1 0x0 DUP1 PUSH1 0x0 PUSH2 0x4C8C PUSH2 0x4CC8 JUMP JUMPDEST PUSH1 0x0 SWAP6 DUP7 MSTORE PUSH1 0x20 SWAP1 DUP2 MSTORE PUSH1 0x40 DUP1 DUP8 KECCAK256 SWAP6 DUP8 MSTORE SWAP5 SWAP1 MSTORE POP POP POP SWAP1 KECCAK256 SLOAD PUSH6 0x10000000000 DUP2 DIV PUSH1 0x1 PUSH1 0x1 PUSH1 0x80 SHL SUB AND SWAP2 PUSH1 0x1 PUSH1 0xA8 SHL SWAP1 SWAP2 DIV PUSH1 0xFF AND SWAP1 JUMP JUMPDEST PUSH1 0x0 DUP1 PUSH2 0x7CA PUSH1 0x8 PUSH2 0x3F9E JUMP JUMPDEST PUSH1 0x0 PUSH2 0x4CE0 DUP3 PUSH2 0x4DC8 JUMP JUMPDEST SWAP1 POP PUSH1 0x0 DUP2 PUSH1 0x0 ADD PUSH1 0x18 SWAP1 SLOAD SWAP1 PUSH2 0x100 EXP SWAP1 DIV PUSH4 0xFFFFFFFF AND SWAP1 POP PUSH2 0x4D1F DUP3 DUP5 PUSH1 0x40 ADD MLOAD DUP6 PUSH1 0x60 ADD MLOAD DUP7 PUSH1 0xA0 ADD MLOAD DUP6 PUSH4 0xFFFFFFFF AND DUP9 PUSH1 0xE0 ADD MLOAD PUSH2 0x3C45 JUMP JUMPDEST PUSH2 0x947 DUP3 DUP5 PUSH1 0x80 ADD MLOAD PUSH2 0x3D59 JUMP JUMPDEST PUSH1 0x0 PUSH1 0xF DUP3 DUP2 SIGNEXTEND SWAP1 DUP5 SWAP1 SIGNEXTEND SUB PUSH1 0x1 PUSH1 0x1 PUSH1 0x7F SHL SUB NOT DUP2 SLT DUP1 ISZERO SWAP1 PUSH2 0x1DCA JUMPI POP PUSH1 0x1 PUSH1 0x1 PUSH1 0x7F SHL SUB DUP2 SGT ISZERO PUSH2 0x7C7 JUMPI PUSH1 0x0 DUP1 REVERT JUMPDEST PUSH1 0x0 PUSH2 0x3FFF DUP5 GT ISZERO PUSH2 0x4D71 JUMPI PUSH1 0x0 DUP1 REVERT JUMPDEST PUSH5 0xFFFFFFFFFF DUP4 GT ISZERO PUSH2 0x4D83 JUMPI PUSH1 0x0 DUP1 REVERT JUMPDEST PUSH1 0x8 DUP3 GT ISZERO PUSH2 0x4D91 JUMPI PUSH1 0x0 DUP1 REVERT JUMPDEST POP PUSH8 0xFFFF000000000000 PUSH1 0x30 DUP5 SWAP1 SHL AND PUSH6 0xFFFFFFFFFF00 PUSH1 0x8 DUP5 SWAP1 SHL AND OR PUSH1 0xFF DUP3 AND OR SWAP4 SWAP3 POP POP POP JUMP JUMPDEST PUSH1 0x0 DUP1 PUSH2 0x7CA PUSH1 0xF PUSH2 0x3F9E JUMP JUMPDEST MLOAD SWAP1 JUMP JUMPDEST PUSH1 0x40 MLOAD DUP1 PUSH1 0xE0 ADD PUSH1 0x40 MSTORE DUP1 PUSH2 0x4DDF PUSH2 0x4E85 JUMP JUMPDEST DUP2 MSTORE PUSH1 0x20 ADD PUSH2 0x4DEC PUSH2 0x4EB1 JUMP JUMPDEST DUP2 MSTORE PUSH1 0x0 PUSH1 0x20 DUP3 ADD DUP2 SWAP1 MSTORE PUSH1 0x40 DUP3 ADD DUP2 SWAP1 MSTORE PUSH1 0x60 DUP3 ADD DUP2 SWAP1 MSTORE PUSH1 0x80 DUP3 ADD DUP2 SWAP1 MSTORE PUSH1 0xA0 SWAP1 SWAP2 ADD MSTORE SWAP1 JUMP JUMPDEST PUSH1 0x40 MLOAD DUP1 PUSH2 0x100 ADD PUSH1 0x40 MSTORE DUP1 PUSH1 0x0 DUP1 NOT AND DUP2 MSTORE PUSH1 0x20 ADD PUSH1 0x0 DUP2 MSTORE PUSH1 0x20 ADD PUSH1 0x0 DUP2 MSTORE PUSH1 0x20 ADD PUSH1 0x0 DUP2 MSTORE PUSH1 0x20 ADD PUSH1 0x0 DUP2 MSTORE PUSH1 0x20 ADD PUSH1 0x0 DUP2 MSTORE PUSH1 0x20 ADD PUSH1 0x0 DUP2 MSTORE PUSH1 0x20 ADD PUSH1 0x0 DUP2 MSTORE POP SWAP1 JUMP JUMPDEST PUSH1 0x40 MLOAD DUP1 PUSH1 0x80 ADD PUSH1 0x40 MSTORE DUP1 PUSH1 0x60 DUP2 MSTORE PUSH1 0x20 ADD PUSH1 0x60 DUP2 MSTORE PUSH1 0x20 ADD PUSH1 0x60 DUP2 MSTORE PUSH1 0x20 ADD PUSH1 0x60 DUP2 MSTORE POP SWAP1 JUMP JUMPDEST PUSH1 0x40 DUP1 MLOAD PUSH1 0x80 DUP2 ADD DUP3 MSTORE PUSH1 0x0 DUP1 DUP3 MSTORE PUSH1 0x20 DUP3 ADD MSTORE SWAP1 DUP2 ADD PUSH2 0x4EA4 PUSH2 0x4F19 JUMP JUMPDEST DUP2 MSTORE PUSH1 0x0 PUSH1 0x20 SWAP1 SWAP2 ADD MSTORE SWAP1 JUMP JUMPDEST PUSH1 0x40 MLOAD DUP1 PUSH1 0x80 ADD PUSH1 0x40 MSTORE DUP1 PUSH1 0x60 DUP2 MSTORE PUSH1 0x20 ADD PUSH1 0x60 DUP2 MSTORE PUSH1 0x20 ADD PUSH1 0x0 DUP2 MSTORE PUSH1 0x20 ADD PUSH1 0x0 DUP2 MSTORE POP SWAP1 JUMP JUMPDEST PUSH1 0x40 MLOAD DUP1 PUSH1 0xC0 ADD PUSH1 0x40 MSTORE DUP1 PUSH1 0x0 DUP2 MSTORE PUSH1 0x20 ADD PUSH1 0x0 DUP2 MSTORE PUSH1 0x20 ADD PUSH1 0x0 DUP2 MSTORE PUSH1 0x20 ADD PUSH1 0x0 DUP2 MSTORE PUSH1 0x20 ADD PUSH1 0x0 DUP2 MSTORE PUSH1 0x20 ADD PUSH1 0x0 PUSH1 0x3 DUP2 GT ISZERO PUSH2 0x4F14 JUMPI INVALID JUMPDEST SWAP1 MSTORE SWAP1 JUMP JUMPDEST PUSH1 0x40 MLOAD DUP1 PUSH1 0x60 ADD PUSH1 0x40 MSTORE DUP1 PUSH1 0x0 PUSH1 0x1 PUSH1 0x1 PUSH1 0xA0 SHL SUB AND DUP2 MSTORE PUSH1 0x20 ADD PUSH1 0x0 DUP2 MSTORE PUSH1 0x20 ADD PUSH1 0x0 DUP2 MSTORE POP SWAP1 JUMP JUMPDEST PUSH1 0x40 MLOAD DUP1 PUSH1 0x40 ADD PUSH1 0x40 MSTORE DUP1 PUSH1 0x0 DUP2 MSTORE PUSH1 0x20 ADD PUSH1 0x0 DUP2 MSTORE POP SWAP1 JUMP JUMPDEST DUP1 CALLDATALOAD PUSH2 0xFFFF DUP2 AND DUP2 EQ PUSH2 0x768 JUMPI PUSH1 0x0 DUP1 REVERT JUMPDEST PUSH1 0x0 PUSH1 0x20 DUP3 DUP5 SUB SLT ISZERO PUSH2 0x4F80 JUMPI DUP1 DUP2 REVERT JUMPDEST POP MLOAD SWAP2 SWAP1 POP JUMP JUMPDEST PUSH1 0x0 PUSH1 0x20 DUP3 DUP5 SUB SLT ISZERO PUSH2 0x4F98 JUMPI DUP1 DUP2 REVERT JUMPDEST PUSH2 0x7C7 DUP3 PUSH2 0x4F5D JUMP JUMPDEST PUSH1 0x0 DUP1 PUSH1 0x40 DUP4 DUP6 SUB SLT ISZERO PUSH2 0x4FB3 JUMPI DUP1 DUP2 REVERT JUMPDEST PUSH2 0x4FBC DUP4 PUSH2 0x4F5D JUMP JUMPDEST SWAP2 POP PUSH1 0x20 DUP4 ADD CALLDATALOAD DUP1 ISZERO ISZERO DUP2 EQ PUSH2 0x4FD0 JUMPI DUP2 DUP3 REVERT JUMPDEST DUP1 SWAP2 POP POP SWAP3 POP SWAP3 SWAP1 POP JUMP JUMPDEST PUSH1 0x1 PUSH1 0x1 PUSH1 0xA0 SHL SUB SWAP2 SWAP1 SWAP2 AND DUP2 MSTORE PUSH1 0x20 ADD SWAP1 JUMP JUMPDEST PUSH1 0x20 DUP1 DUP3 MSTORE PUSH1 0x17 SWAP1 DUP3 ADD MSTORE PUSH32 0x496E76616C696420737765657020636173682074696D65000000000000000000 PUSH1 0x40 DUP3 ADD MSTORE PUSH1 0x60 ADD SWAP1 JUMP JUMPDEST PUSH1 0x20 DUP1 DUP3 MSTORE PUSH1 0x16 SWAP1 DUP3 ADD MSTORE PUSH22 0x13585C9AD95D081B9BDD081A5B9A5D1A585B1A5E9959 PUSH1 0x52 SHL PUSH1 0x40 DUP3 ADD MSTORE PUSH1 0x60 ADD SWAP1 JUMP JUMPDEST PUSH1 0x20 DUP1 DUP3 MSTORE PUSH1 0x14 SWAP1 DUP3 ADD MSTORE PUSH20 0x4F7261636C652072617465206F766572666C6F77 PUSH1 0x60 SHL PUSH1 0x40 DUP3 ADD MSTORE PUSH1 0x60 ADD SWAP1 JUMP JUMPDEST PUSH1 0x20 DUP1 DUP3 MSTORE PUSH1 0x17 SWAP1 DUP3 ADD MSTORE PUSH32 0x4D75737420696E697469616C697A65206D61726B657473000000000000000000 PUSH1 0x40 DUP3 ADD MSTORE PUSH1 0x60 ADD SWAP1 JUMP JUMPDEST PUSH1 0x20 DUP1 DUP3 MSTORE PUSH1 0x15 SWAP1 DUP3 ADD MSTORE PUSH21 0x10D1CE881B9BC81B585C9AD95D1CC81B1A5CDD1959 PUSH1 0x5A SHL PUSH1 0x40 DUP3 ADD MSTORE PUSH1 0x60 ADD SWAP1 JUMP JUMPDEST PUSH1 0x20 DUP1 DUP3 MSTORE PUSH1 0xD SWAP1 DUP3 ADD MSTORE PUSH13 0x92DCECC2D8D2C840D2DCC8CAF PUSH1 0x9B SHL PUSH1 0x40 DUP3 ADD MSTORE PUSH1 0x60 ADD SWAP1 JUMP JUMPDEST PUSH1 0x20 DUP1 DUP3 MSTORE PUSH1 0x13 SWAP1 DUP3 ADD MSTORE PUSH19 0x24A69D1039B4BC1036B7B73A341032B93937B9 PUSH1 0x69 SHL PUSH1 0x40 DUP3 ADD MSTORE PUSH1 0x60 ADD SWAP1 JUMP JUMPDEST PUSH1 0x20 DUP1 DUP3 MSTORE PUSH1 0x10 SWAP1 DUP3 ADD MSTORE PUSH16 0x4E6F206E546F6B656E20617373657473 PUSH1 0x80 SHL PUSH1 0x40 DUP3 ADD MSTORE PUSH1 0x60 ADD SWAP1 JUMP JUMPDEST PUSH1 0x20 DUP1 DUP3 MSTORE PUSH1 0xF SWAP1 DUP3 ADD MSTORE PUSH15 0x4F766572206D617820617373657473 PUSH1 0x88 SHL PUSH1 0x40 DUP3 ADD MSTORE PUSH1 0x60 ADD SWAP1 JUMP JUMPDEST PUSH1 0x20 DUP1 DUP3 MSTORE PUSH1 0x17 SWAP1 DUP3 ADD MSTORE PUSH32 0x494D3A20696E746572706F6C6174696F6E206572726F72000000000000000000 PUSH1 0x40 DUP3 ADD MSTORE PUSH1 0x60 ADD SWAP1 JUMP JUMPDEST PUSH1 0x20 DUP1 DUP3 MSTORE PUSH1 0x16 SWAP1 DUP3 ADD MSTORE PUSH22 0x10D1CE881B585C9AD95D081A5B99195E08189BDD5B99 PUSH1 0x52 SHL PUSH1 0x40 DUP3 ADD MSTORE PUSH1 0x60 ADD SWAP1 JUMP JUMPDEST PUSH1 0x20 DUP1 DUP3 MSTORE PUSH1 0x15 SWAP1 DUP3 ADD MSTORE PUSH21 0x929A7440D2DCE6EACCCCD2C6D2CADCE840C6C2E6D PUSH1 0x5B SHL PUSH1 0x40 DUP3 ADD MSTORE PUSH1 0x60 ADD SWAP1 JUMP JUMPDEST PUSH1 0x20 DUP1 DUP3 MSTORE PUSH1 0x12 SWAP1 DUP3 ADD MSTORE PUSH18 0x12534E881B9BDD08199A5C9CDD081A5B9A5D PUSH1 0x72 SHL PUSH1 0x40 DUP3 ADD MSTORE PUSH1 0x60 ADD SWAP1 JUMP JUMPDEST PUSH1 0x20 DUP1 DUP3 MSTORE PUSH1 0x10 SWAP1 DUP3 ADD MSTORE PUSH16 0x494D3A20696E76616C69642074696D65 PUSH1 0x80 SHL PUSH1 0x40 DUP3 ADD MSTORE PUSH1 0x60 ADD SWAP1 JUMP JUMPDEST PUSH1 0x20 DUP1 DUP3 MSTORE PUSH1 0x13 SWAP1 DUP3 ADD MSTORE PUSH19 0x50543A20696E69742076616C7565207A65726F PUSH1 0x68 SHL PUSH1 0x40 DUP3 ADD MSTORE PUSH1 0x60 ADD SWAP1 JUMP JUMPDEST PUSH1 0x20 DUP1 DUP3 MSTORE PUSH1 0x13 SWAP1 DUP3 ADD MSTORE PUSH19 0x10D1CE881B9BC81B585C9AD95D08199BDD5B99 PUSH1 0x6A SHL PUSH1 0x40 DUP3 ADD MSTORE PUSH1 0x60 ADD SWAP1 JUMP JUMPDEST PUSH1 0x20 DUP1 DUP3 MSTORE PUSH1 0x16 SWAP1 DUP3 ADD MSTORE PUSH22 0x12534E881B9BC81B585C9AD95D1CC81D1BC81A5B9A5D PUSH1 0x52 SHL PUSH1 0x40 DUP3 ADD MSTORE PUSH1 0x60 ADD SWAP1 JUMP JUMPDEST PUSH1 0x20 DUP1 DUP3 MSTORE PUSH1 0x17 SWAP1 DUP3 ADD MSTORE PUSH32 0x494D3A20696D706C6965642072617465206661696C6564000000000000000000 PUSH1 0x40 DUP3 ADD MSTORE PUSH1 0x60 ADD SWAP1 JUMP JUMPDEST PUSH1 0x1 PUSH1 0x1 PUSH1 0x80 SHL SUB SWAP2 SWAP1 SWAP2 AND DUP2 MSTORE PUSH1 0x20 ADD SWAP1 JUMP JUMPDEST PUSH2 0xFFFF SWAP2 SWAP1 SWAP2 AND DUP2 MSTORE PUSH1 0x20 ADD SWAP1 JUMP JUMPDEST PUSH2 0xFFFF SWAP3 SWAP1 SWAP3 AND DUP3 MSTORE PUSH1 0x20 DUP3 ADD MSTORE PUSH1 0x40 ADD SWAP1 JUMP INVALID MSTORE8 PUSH2 0x6665 0x4D PUSH2 0x7468 GASPRICE KECCAK256 PUSH14 0x756C7469706C69636174696F6E20 PUSH16 0x766572666C6F77A26469706673582212 KECCAK256 0xB8 0xE4 SWAP9 0x48 0xBE CREATE2 PC 0x24 SIGNEXTEND 0x5C GT PUSH19 0xEDD7D0E8B6106C0D04A3028FBB9488B426EE2B 0x49 PUSH5 0x736F6C6343 STOP SMOD MOD STOP CALLER ","sha1":"c6ec1d7d54b96ab521f9b20a7956b36a08c63a3e","source":"// SPDX-License-Identifier: GPL-3.0-only\npragma solidity =0.7.6;\npragma abicoder v2;\n\nimport \"./nTokenMintAction.sol\";\nimport \"../../internal/markets/Market.sol\";\nimport \"../../internal/markets/CashGroup.sol\";\nimport \"../../internal/markets/AssetRate.sol\";\nimport \"../../internal/balances/BalanceHandler.sol\";\nimport \"../../internal/portfolio/PortfolioHandler.sol\";\nimport \"../../internal/settlement/SettlePortfolioAssets.sol\";\nimport \"../../internal/settlement/SettleBitmapAssets.sol\";\nimport \"../../internal/nToken/nTokenHandler.sol\";\nimport \"../../math/SafeInt256.sol\";\nimport \"../../math/Bitmap.sol\";\nimport \"@openzeppelin/contracts/math/SafeMath.sol\";\n\n/// @notice Initialize markets is called once every quarter to setup the new markets. Only the nToken account\n/// can initialize markets, and this method will be called on behalf of that account. In this action\n/// the following will occur:\n///  - nToken Liquidity Tokens will be settled\n///  - Any ifCash assets will be settled\n///  - If nToken liquidity tokens are settled with negative net ifCash, enough cash will be withheld at the PV\n///    to purchase offsetting positions\n///  - fCash positions are written to storage\n///  - For each market, calculate the proportion of fCash to cash given:\n///     - previous oracle rates\n///     - rate anchor set by governance\n///     - percent of cash to deposit into the market set by governance\n///  - Set new markets and add liquidity tokens to portfolio\nlibrary InitializeMarketsAction {\n    using Bitmap for bytes32;\n    using SafeMath for uint256;\n    using SafeInt256 for int256;\n    using PortfolioHandler for PortfolioState;\n    using Market for MarketParameters;\n    using BalanceHandler for BalanceState;\n    using CashGroup for CashGroupParameters;\n    using AssetRate for AssetRateParameters;\n    using AccountContextHandler for AccountContext;\n    using nTokenHandler for nTokenPortfolio;\n\n    event MarketsInitialized(uint16 currencyId);\n    event SweepCashIntoMarkets(uint16 currencyId, int256 cashIntoMarkets);\n\n    struct GovernanceParameters {\n        int256[] depositShares;\n        int256[] leverageThresholds;\n        int256[] annualizedAnchorRates;\n        int256[] proportions;\n    }\n\n    function _getGovernanceParameters(uint256 currencyId, uint256 maxMarketIndex)\n        private\n        view\n        returns (GovernanceParameters memory)\n    {\n        GovernanceParameters memory params;\n        (params.depositShares, params.leverageThresholds) = nTokenHandler.getDepositParameters(\n            currencyId,\n            maxMarketIndex\n        );\n\n        (params.annualizedAnchorRates, params.proportions) = nTokenHandler.getInitializationParameters(\n            currencyId,\n            maxMarketIndex\n        );\n\n        return params;\n    }\n\n    function _settleNTokenPortfolio(nTokenPortfolio memory nToken, uint256 blockTime) private {\n        // nToken never has idiosyncratic cash between 90 day intervals but since it also has a\n        // bitmap fCash assets. We don't set the pointer to the settlement date of the liquidity\n        // tokens (1 quarter away), instead we set it to the current block time. This is a bit\n        // esoteric but will ensure that ifCash is never improperly settled.\n\n        // If lastInitializedTime == reference time then this will fail, that is the correct\n        // behavior since initialization begins at lastInitializedTime. That means that markets\n        // cannot be re-initialized during a single block (this is the correct behavior). If\n        // lastInitializedTime >= reference time then the markets have already been initialized\n        // for the quarter.\n        uint256 referenceTime = DateTime.getReferenceTime(blockTime);\n        require(nToken.lastInitializedTime < referenceTime, \"IM: invalid time\");\n\n        {\n            // Settles liquidity token balances and portfolio state now contains the net fCash amounts\n            SettleAmount[] memory settleAmount =\n                SettlePortfolioAssets.settlePortfolio(nToken.portfolioState, blockTime);\n            nToken.cashBalance = nToken.cashBalance.add(settleAmount[0].netCashChange);\n        }\n\n        (int256 settledAssetCash, uint256 blockTimeUTC0) =\n            SettleBitmapAssets.settleBitmappedCashGroup(\n                nToken.tokenAddress,\n                nToken.cashGroup.currencyId,\n                nToken.lastInitializedTime,\n                blockTime\n            );\n        nToken.cashBalance = nToken.cashBalance.add(settledAssetCash);\n\n        // The ifCashBitmap has been updated to reference this new settlement time\n        require(blockTimeUTC0 <= type(uint40).max);\n        nToken.lastInitializedTime = uint40(blockTimeUTC0);\n    }\n\n    /// @notice Special method to get previous markets, normal usage would not reference previous markets\n    /// in this way\n    function _getPreviousMarkets(\n        uint256 currencyId,\n        uint256 blockTime,\n        nTokenPortfolio memory nToken,\n        MarketParameters[] memory previousMarkets\n    ) private view {\n        uint256 rateOracleTimeWindow = nToken.cashGroup.getRateOracleTimeWindow();\n        // This will reference the previous settlement date to get the previous markets\n        uint256 settlementDate = DateTime.getReferenceTime(blockTime);\n\n        // Assume that assets are stored in order and include all assets of the previous market\n        // set. This will account for the potential that markets.length is greater than the previous\n        // markets when the maxMarketIndex is increased (increasing the overall number of markets).\n        // We don't fetch the 3 month market (i = 0) because it has settled and will not be used for\n        // the subsequent calculations. Since nTokens never allow liquidity to go to zero then we know\n        // there is always a matching token for each market.\n        for (uint256 i = 1; i < nToken.portfolioState.storedAssets.length; i++) {\n            previousMarkets[i].loadMarketWithSettlementDate(\n                currencyId,\n                // These assets will reference the previous liquidity tokens\n                nToken.portfolioState.storedAssets[i].maturity,\n                blockTime,\n                // No liquidity tokens required for this process\n                false,\n                rateOracleTimeWindow,\n                settlementDate\n            );\n        }\n    }\n\n    /// @notice Check the net fCash assets set by the portfolio and withhold cash to account for\n    /// the PV of negative ifCash. Also sets the ifCash assets into the nToken mapping.\n    function _withholdAndSetfCashAssets(\n        nTokenPortfolio memory nToken,\n        MarketParameters[] memory previousMarkets,\n        uint256 currencyId,\n        uint256 blockTime\n    ) private returns (int256) {\n        // Residual fcash must be put into the ifCash bitmap from the portfolio, skip the 3 month\n        // liquidity token since there is no residual fCash for that maturity, it always settles to cash.\n        for (uint256 i = 1; i < nToken.portfolioState.storedAssets.length; i++) {\n            PortfolioAsset memory asset = nToken.portfolioState.storedAssets[i];\n            // Defensive check to ensure that everything is an fcash asset, all liquidity tokens after\n            // the three month should have been settled to fCash at this point.\n            require(asset.assetType == Constants.FCASH_ASSET_TYPE);\n\n            BitmapAssetsHandler.addifCashAsset(\n                nToken.tokenAddress,\n                currencyId,\n                asset.maturity,\n                nToken.lastInitializedTime,\n                asset.notional\n            );\n\n            // Do not have fCash assets stored in the portfolio\n            nToken.portfolioState.deleteAsset(i);\n        }\n\n        // Recalculate what the withholdings are if there are any ifCash assets remaining\n        return _getNTokenNegativefCashWithholding(nToken, previousMarkets, blockTime);\n    }\n\n    /// @notice If a nToken incurs a negative fCash residual as a result of lending, this means\n    /// that we are going to need to withhold some amount of cash so that market makers can purchase and\n    /// clear the debts off the balance sheet.\n    function _getNTokenNegativefCashWithholding(\n        nTokenPortfolio memory nToken,\n        MarketParameters[] memory previousMarkets,\n        uint256 blockTime\n    ) internal view returns (int256 totalCashWithholding) {\n        bytes32 assetsBitmap = BitmapAssetsHandler.getAssetsBitmap(nToken.tokenAddress, nToken.cashGroup.currencyId);\n        // This buffer is denominated in rate precision with 10 basis point increments. It is used to shift the\n        // withholding rate to ensure that sufficient cash is withheld for negative fCash balances.\n        uint256 oracleRateBuffer =\n            uint256(uint8(nToken.parameters[Constants.CASH_WITHHOLDING_BUFFER])) * Constants.TEN_BASIS_POINTS;\n        // If previousMarkets are supplied, then we are in initialize markets and we want to get the oracleRate\n        // from the perspective of the previous tRef (represented by blockTime - QUARTER). The reason is that the\n        // oracleRates for the current markets have not been set yet (we are in the process of calculating them\n        // in this contract). In the other case, we are in sweepCashIntoMarkets and we can use the current block time.\n        uint256 oracleRateBlockTime = previousMarkets.length == 0 ? blockTime : blockTime.sub(Constants.QUARTER);\n\n        uint256 bitNum = assetsBitmap.getNextBitNum();\n        while (bitNum != 0) {\n            // lastInitializedTime is now the reference point for all ifCash bitmap\n            uint256 maturity = DateTime.getMaturityFromBitNum(nToken.lastInitializedTime, bitNum);\n            bool isValidMarket = DateTime.isValidMarketMaturity(\n                nToken.cashGroup.maxMarketIndex,\n                maturity,\n                blockTime\n            );\n\n            // Only apply withholding for idiosyncratic fCash\n            if (!isValidMarket) {\n                int256 notional =\n                    BitmapAssetsHandler.getifCashNotional(\n                        nToken.tokenAddress,\n                        nToken.cashGroup.currencyId,\n                        maturity\n                    );\n\n                // Withholding only applies for negative cash balances\n                if (notional < 0) {\n                    // Oracle rates are calculated from the perspective of the previousMarkets during initialize\n                    // markets here. It is possible that these oracle rates do not equal the oracle rates when we\n                    // exit this method, this can happen if the nToken is above its leverage threshold. In that case\n                    // this oracleRate will be higher than what we have when we exit, causing the nToken to withhold\n                    // less cash than required. The NTOKEN_CASH_WITHHOLDING_BUFFER must be sufficient to cover this\n                    // potential shortfall.\n                    uint256 oracleRate = nToken.cashGroup.calculateOracleRate(maturity, oracleRateBlockTime);\n\n                    if (oracleRateBuffer > oracleRate) {\n                        oracleRate = 0;\n                    } else {\n                        oracleRate = oracleRate.sub(oracleRateBuffer);\n                    }\n\n                    totalCashWithholding = totalCashWithholding.sub(\n                        AssetHandler.getPresentfCashValue(notional, maturity, blockTime, oracleRate)\n                    );\n                }\n            }\n\n            // Turn off the bit and look for the next one\n            assetsBitmap = assetsBitmap.setBit(bitNum, false);\n            bitNum = assetsBitmap.getNextBitNum();\n        }\n\n        return nToken.cashGroup.assetRate.convertFromUnderlying(totalCashWithholding);\n    }\n\n    function _calculateNetAssetCashAvailable(\n        nTokenPortfolio memory nToken,\n        MarketParameters[] memory previousMarkets,\n        uint256 blockTime,\n        uint256 currencyId,\n        bool isFirstInit\n    ) private returns (int256) {\n        int256 netAssetCashAvailable;\n        int256 assetCashWithholding;\n\n        if (isFirstInit) {\n            nToken.lastInitializedTime = uint40(DateTime.getTimeUTC0(blockTime));\n        } else {\n            _settleNTokenPortfolio(nToken, blockTime);\n            _getPreviousMarkets(currencyId, blockTime, nToken, previousMarkets);\n            assetCashWithholding = _withholdAndSetfCashAssets(\n                nToken,\n                previousMarkets,\n                currencyId,\n                blockTime\n            );\n        }\n\n        // Deduct the amount of withholding required from the cash balance (at this point includes all settled cash)\n        netAssetCashAvailable = nToken.cashBalance.subNoNeg(assetCashWithholding);\n\n        // This is the new balance to store\n        nToken.cashBalance = assetCashWithholding;\n\n        // We can't have less net asset cash than our percent basis or some markets will end up not\n        // initialized\n        require(\n            netAssetCashAvailable > int256(Constants.DEPOSIT_PERCENT_BASIS),\n            \"IM: insufficient cash\"\n        );\n\n        return netAssetCashAvailable;\n    }\n\n    /// @notice The six month implied rate is zero if there have never been any markets initialized\n    /// otherwise the market will be the interpolation between the old 6 month and 1 year markets\n    /// which are now sitting at 3 month and 9 month time to maturity\n    function _getSixMonthImpliedRate(\n        MarketParameters[] memory previousMarkets,\n        uint256 referenceTime\n    ) private pure returns (uint256) {\n        // Cannot interpolate six month rate without a 1 year market\n        require(previousMarkets.length >= 3, \"IM: six month error\");\n\n        return\n            CashGroup.interpolateOracleRate(\n                previousMarkets[1].maturity,\n                previousMarkets[2].maturity,\n                previousMarkets[1].oracleRate,\n                previousMarkets[2].oracleRate,\n                // Maturity date == 6 months from reference time\n                referenceTime + 2 * Constants.QUARTER\n            );\n    }\n\n    /// @notice Calculates a market proportion via the implied rate. The formula is:\n    ///    exchangeRate = e ^ (impliedRate * timeToMaturity)\n    ///    exchangeRate = (1 / rateScalar) * ln(proportion / (1 - proportion)) + rateAnchor\n    ///    proportion / (1 - proportion) = e^((exchangeRate - rateAnchor) * rateScalar)\n    ///    exp = e^((exchangeRate - rateAnchor) * rateScalar)\n    ///    proportion / (1 - proportion) = exp\n    ///    exp * (1 - proportion) = proportion\n    ///    exp - exp * proportion = proportion\n    ///    exp = proportion + exp * proportion\n    ///    exp = proportion * (1 + exp)\n    ///    proportion = exp / (1 + exp)\n    function _getProportionFromOracleRate(\n        uint256 oracleRate,\n        uint256 timeToMaturity,\n        int256 rateScalar,\n        uint256 annualizedAnchorRate\n    ) private pure returns (int256) {\n        int256 rateAnchor = Market.getExchangeRateFromImpliedRate(annualizedAnchorRate, timeToMaturity);\n        // Exchange rate value here will be floored at Constants.RATE_PRECISION when the oracleRate is zero\n        int256 exchangeRate = Market.getExchangeRateFromImpliedRate(oracleRate, timeToMaturity);\n\n        int128 expValue = ABDKMath64x64.fromInt(\n            // (exchangeRate - rateAnchor) * rateScalar\n            (exchangeRate.sub(rateAnchor)).mulInRatePrecision(rateScalar)\n        );\n        // Scale this back to a decimal in abdk\n        expValue = ABDKMath64x64.div(expValue, Constants.RATE_PRECISION_64x64);\n        // Take the exponent\n        expValue = ABDKMath64x64.exp(expValue);\n        // proportion = exp / (1 + exp)\n        // NOTE: 2**64 == 1 in ABDKMath64x64\n        int128 proportion = ABDKMath64x64.div(expValue, ABDKMath64x64.add(expValue, 2**64));\n\n        // Scale this back to 1e9 precision\n        proportion = ABDKMath64x64.mul(proportion, Constants.RATE_PRECISION_64x64);\n\n        return ABDKMath64x64.toInt(proportion);\n    }\n\n    /// @dev Returns the oracle rate given the market ratios of fCash to cash. The annualizedAnchorRate\n    /// is used to calculate a rate anchor. Since a rate anchor varies with timeToMaturity and annualizedAnchorRate\n    /// does not, this method will return consistent values regardless of the timeToMaturity of when initialize\n    /// markets is called. This can be helpful if a currency needs to be initialized mid quarter when it is\n    /// newly launched.\n    function _calculateOracleRate(\n        int256 fCashAmount,\n        int256 underlyingCashToMarket,\n        int256 rateScalar,\n        uint256 annualizedAnchorRate,\n        uint256 timeToMaturity\n    ) internal pure returns (uint256) {\n        int256 rateAnchor = Market.getExchangeRateFromImpliedRate(annualizedAnchorRate, timeToMaturity);\n        uint256 oracleRate = Market.getImpliedRate(\n            fCashAmount,\n            underlyingCashToMarket,\n            rateScalar,\n            rateAnchor,\n            timeToMaturity\n        );\n\n        return oracleRate;\n    }\n\n    /// @notice Returns the linear interpolation between two market rates. The formula is\n    /// slope = (longMarket.oracleRate - shortMarket.oracleRate) / (longMarket.maturity - shortMarket.maturity)\n    /// interpolatedRate = slope * (assetMaturity - shortMarket.maturity) + shortMarket.oracleRate\n    function _interpolateFutureRate(\n        uint256 shortMaturity,\n        uint256 shortRate,\n        MarketParameters memory longMarket\n    ) private pure returns (uint256) {\n        uint256 longMaturity = longMarket.maturity;\n        uint256 longRate = longMarket.oracleRate;\n        // the next market maturity is always a quarter away\n        uint256 newMaturity = longMarket.maturity + Constants.QUARTER;\n        require(shortMaturity < longMaturity, \"IM: interpolation error\");\n\n        // It's possible that the rates are inverted where the short market rate > long market rate and\n        // we will get an underflow here so we check for that\n        if (longRate >= shortRate) {\n            return\n                (longRate - shortRate)\n                    .mul(newMaturity - shortMaturity)\n                // No underflow here, checked above\n                    .div(longMaturity - shortMaturity)\n                    .add(shortRate);\n        } else {\n            // In this case the slope is negative so:\n            // interpolatedRate = shortMarket.oracleRate - slope * (assetMaturity - shortMarket.maturity)\n            uint256 diff =\n                (shortRate - longRate)\n                    .mul(newMaturity - shortMaturity)\n                // No underflow here, checked above\n                    .div(longMaturity - shortMaturity);\n\n            // This interpolation may go below zero so we bottom out interpolated rates at (practically)\n            // zero. Storing a zero for oracleRates means that the markets are not initialized so using\n            // a minimum value here to handle that case\n            return shortRate > diff ? shortRate - diff : 1;\n        }\n    }\n\n    /// @dev This is here to clear the stack\n    function _setLiquidityAmount(\n        int256 netAssetCashAvailable,\n        int256 depositShare,\n        uint256 assetType,\n        MarketParameters memory newMarket,\n        nTokenPortfolio memory nToken\n    ) private pure returns (int256) {\n        // The portion of the cash available that will be deposited into the market\n        int256 assetCashToMarket =\n            netAssetCashAvailable.mul(depositShare).div(Constants.DEPOSIT_PERCENT_BASIS);\n        newMarket.totalAssetCash = assetCashToMarket;\n        newMarket.totalLiquidity = assetCashToMarket;\n\n        // Add a new liquidity token, this will end up in the new asset array\n        nToken.portfolioState.addAsset(\n            nToken.cashGroup.currencyId,\n            newMarket.maturity,\n            assetType, // This is liquidity token asset type\n            assetCashToMarket\n        );\n\n        // fCashAmount is calculated using the underlying amount\n        return nToken.cashGroup.assetRate.convertToUnderlying(assetCashToMarket);\n    }\n\n    /// @notice Calculates the fCash amount given the cash and proportion:\n    // proportion = totalfCash / (totalfCash + totalCashUnderlying)\n    // proportion * (totalfCash + totalCashUnderlying) = totalfCash\n    // proportion * totalCashUnderlying + proportion * totalfCash = totalfCash\n    // proportion * totalCashUnderlying = totalfCash * (1 - proportion)\n    // totalfCash = proportion * totalCashUnderlying / (1 - proportion)\n    function _calculatefCashAmountFromProportion(\n        int256 underlyingCashToMarket,\n        int256 proportion\n    ) private pure returns (int256) {\n        return underlyingCashToMarket\n            .mul(proportion)\n            .div(Constants.RATE_PRECISION.sub(proportion));\n    }\n\n    /// @notice Sweeps nToken cash balance into markets after accounting for cash withholding. Can be\n    /// done after fCash residuals are purchased to ensure that markets have maximum liquidity.\n    /// @param currencyId currency of markets to initialize\n    /// @dev emit:CashSweepIntoMarkets\n    /// @dev auth:none\n    function sweepCashIntoMarkets(uint16 currencyId) external {\n        uint256 blockTime = block.timestamp;\n        nTokenPortfolio memory nToken;\n        nToken.loadNTokenPortfolioStateful(currencyId);\n        require(nToken.portfolioState.storedAssets.length > 0, \"No nToken assets\");\n\n        // Can only sweep cash after markets have been initialized\n        uint256 referenceTime = DateTime.getReferenceTime(blockTime);\n        require(nToken.lastInitializedTime >= referenceTime, \"Must initialize markets\");\n\n        // Can only sweep cash after the residual purchase time has passed\n        uint256 minSweepCashTime =\n            nToken.lastInitializedTime.add(\n                uint256(uint8(nToken.parameters[Constants.RESIDUAL_PURCHASE_TIME_BUFFER])) * 1 hours\n            );\n        require(blockTime > minSweepCashTime, \"Invalid sweep cash time\");\n\n        int256 assetCashWithholding =\n            _getNTokenNegativefCashWithholding(\n                nToken,\n                new MarketParameters[](0), // Parameter is unused when referencing current markets\n                blockTime\n            );\n\n        int256 cashIntoMarkets = nToken.cashBalance.subNoNeg(assetCashWithholding);\n        BalanceHandler.setBalanceStorageForNToken(\n            nToken.tokenAddress,\n            nToken.cashGroup.currencyId,\n            assetCashWithholding\n        );\n\n        // This will deposit the cash balance into markets, but will not record a token supply change.\n        nTokenMintAction.nTokenMint(currencyId, cashIntoMarkets);\n        emit SweepCashIntoMarkets(currencyId, cashIntoMarkets);\n    }\n\n    /// @notice Initialize the market for a given currency id, done once a quarter\n    /// @param currencyId currency of markets to initialize\n    /// @param isFirstInit true if this is the first time the markets have been initialized\n    /// @dev emit:MarketsInitialized\n    /// @dev auth:none\n    function initializeMarkets(uint16 currencyId, bool isFirstInit) external {\n        uint256 blockTime = block.timestamp;\n        nTokenPortfolio memory nToken;\n        nToken.loadNTokenPortfolioStateful(currencyId);\n        MarketParameters[] memory previousMarkets =\n            new MarketParameters[](nToken.cashGroup.maxMarketIndex);\n\n        // This should be sufficient to validate that the currency id is valid\n        require(nToken.cashGroup.maxMarketIndex != 0, \"IM: no markets to init\");\n        // If the nToken has any assets then this is not the first initialization\n        if (isFirstInit) {\n            require(nToken.portfolioState.storedAssets.length == 0, \"IM: not first init\");\n        }\n\n        int256 netAssetCashAvailable = _calculateNetAssetCashAvailable(\n            nToken,\n            previousMarkets,\n            blockTime,\n            currencyId,\n            isFirstInit\n        );\n\n        GovernanceParameters memory parameters =\n            _getGovernanceParameters(currencyId, nToken.cashGroup.maxMarketIndex);\n\n        MarketParameters memory newMarket;\n        // Oracle rate is carried over between loops\n        uint256 oracleRate;\n        for (uint256 i = 0; i < nToken.cashGroup.maxMarketIndex; i++) {\n            // Traded markets are 1-indexed\n            newMarket.maturity = DateTime.getReferenceTime(blockTime).add(\n                DateTime.getTradedMarket(i + 1)\n            );\n\n            int256 underlyingCashToMarket =\n                _setLiquidityAmount(\n                    netAssetCashAvailable,\n                    parameters.depositShares[i],\n                    Constants.MIN_LIQUIDITY_TOKEN_INDEX + i, // liquidity token asset type\n                    newMarket,\n                    nToken\n                );\n\n            uint256 timeToMaturity = newMarket.maturity.sub(blockTime);\n            int256 rateScalar = nToken.cashGroup.getRateScalar(i + 1, timeToMaturity);\n            // Governance will prevent previousMarkets.length from being equal to 1, meaning that we will\n            // either have 0 markets (on first init), exactly 2 markets, or 2+ markets. In the case that there\n            // are exactly two markets then the 6 month market must be initialized via this method (there is no\n            // 9 month market to interpolate a rate against). In the case of 2+ markets then we will only enter this\n            // first branch when the number of markets is increased\n            if (\n                isFirstInit ||\n                // This is the six month market when there are only 3 and 6 month markets\n                (i == 1 && previousMarkets.length == 2) ||\n                // At this point, these are new markets and they must be initialized\n                (i >= nToken.portfolioState.storedAssets.length) ||\n                // When extending from the 6 month to 1 year market we must initialize both 6 and 1 year as new\n                (i == 1 && previousMarkets[2].oracleRate == 0)\n            ) {\n                // Any newly added markets cannot have their implied rates interpolated via the previous\n                // markets. In this case we initialize the markets using the rate anchor and proportion.\n                int256 fCashAmount = _calculatefCashAmountFromProportion(underlyingCashToMarket, parameters.proportions[i]);\n\n                newMarket.totalfCash = fCashAmount;\n                newMarket.oracleRate = _calculateOracleRate(\n                    fCashAmount,\n                    underlyingCashToMarket,\n                    rateScalar,\n                    uint256(parameters.annualizedAnchorRates[i]), // No overflow, uint32 when set\n                    timeToMaturity\n                );\n\n                // If this fails it is because the rate anchor and proportion are not set properly by\n                // governance.\n                require(newMarket.oracleRate > 0, \"IM: implied rate failed\");\n            } else {\n                // Two special cases for the 3 month and 6 month market when interpolating implied rates. The 3 month market\n                // inherits the implied rate from the previous 6 month market (they are now at the same maturity).\n                if (i == 0) {\n                    // We should never get an array out of bounds error here because of the inequality check in the first branch\n                    // of the outer if statement.\n                    oracleRate = previousMarkets[1].oracleRate;\n                } else if (i == 1) {\n                    // The six month market is the interpolation between the 3 month and the 1 year market (now at 9 months). This\n                    // interpolation is different since the rate is between 3 and 9 months, for all the other interpolations we interpolate\n                    // forward in time (i.e. use a 3 and 6 month rate to interpolate a 1 year rate). The first branch of this if statement\n                    // will capture the case when the 1 year rate has not been set.\n                    oracleRate = _getSixMonthImpliedRate(\n                        previousMarkets,\n                        DateTime.getReferenceTime(blockTime)\n                    );\n                } else {\n                    // Any other market has the interpolation between the new implied rate from the newly initialized market previous\n                    // to this market interpolated with the previous version of this market. For example, the newly initialized 1 year\n                    // market will have its implied rate set to the interpolation between the newly initialized 6 month market (done in\n                    // previous iteration of this loop) and the previous 1 year market (which has now rolled down to 9 months). Similarly,\n                    // a 2 year market will be interpolated from the newly initialized 1 year and the previous 2 year market.\n\n                    // This is the previous market maturity, traded markets are 1-indexed\n                    uint256 shortMarketMaturity =\n                        DateTime.getReferenceTime(blockTime).add(DateTime.getTradedMarket(i));\n                    oracleRate = _interpolateFutureRate(\n                        shortMarketMaturity,\n                        // This is the oracle rate from the previous iteration in the loop,\n                        // refers to the new oracle rate set on the newly initialized market\n                        // that is adjacent to the market currently being initialized.\n                        oracleRate,\n                        // This is the previous version of the current market\n                        previousMarkets[i]\n                    );\n                }\n\n                // When initializing new markets we need to ensure that the new implied oracle rates align\n                // with the current yield curve or valuations for ifCash will spike. This should reference the\n                // previously calculated implied rate and the current market.\n                int256 proportion =\n                    _getProportionFromOracleRate(\n                        oracleRate,\n                        timeToMaturity,\n                        rateScalar,\n                        uint256(parameters.annualizedAnchorRates[i]) // No overflow, uint32 when set\n                    );\n\n                // If the calculated proportion is greater than the leverage threshold then we cannot\n                // provide liquidity without risk of liquidation. In this case, set the leverage threshold\n                // as the new proportion and calculate the oracle rate from it. This will result in fCash valuations\n                // changing on chain, however, adding liquidity via nTokens would also end up with this\n                // result as well.\n                if (proportion > parameters.leverageThresholds[i]) {\n                    proportion = parameters.leverageThresholds[i];\n                    newMarket.totalfCash = _calculatefCashAmountFromProportion(underlyingCashToMarket, proportion);\n\n                    oracleRate = _calculateOracleRate(\n                        newMarket.totalfCash,\n                        underlyingCashToMarket,\n                        rateScalar,\n                        uint256(parameters.annualizedAnchorRates[i]), // No overflow, uint32 when set\n                        timeToMaturity\n                    );\n\n                    require(oracleRate != 0, \"Oracle rate overflow\");\n                } else {\n                    newMarket.totalfCash = _calculatefCashAmountFromProportion(underlyingCashToMarket, proportion);\n                }\n\n                // It's possible that totalfCash is zero from rounding errors above, we want to set this to a minimum value\n                // so that we don't have divide by zero errors.\n                if (newMarket.totalfCash < 1) newMarket.totalfCash = 1;\n\n                newMarket.oracleRate = oracleRate;\n                // The oracle rate has been changed so we set the previous trade time to current\n                newMarket.previousTradeTime = blockTime;\n            }\n\n            // Implied rate will always be set to oracle rate\n            newMarket.lastImpliedRate = newMarket.oracleRate;\n            finalizeMarket(newMarket, currencyId, nToken);\n        }\n\n        // prettier-ignore\n        (\n            /* hasDebt */,\n            /* activeCurrencies */,\n            uint8 assetArrayLength,\n            /* nextSettleTime */\n        ) = nToken.portfolioState.storeAssets(nToken.tokenAddress);\n        BalanceHandler.setBalanceStorageForNToken(\n            nToken.tokenAddress,\n            currencyId,\n            nToken.cashBalance\n        );\n        nTokenHandler.setArrayLengthAndInitializedTime(\n            nToken.tokenAddress,\n            assetArrayLength,\n            nToken.lastInitializedTime\n        );\n\n        emit MarketsInitialized(uint16(currencyId));\n    }\n\n    function finalizeMarket(\n        MarketParameters memory market,\n        uint256 currencyId,\n        nTokenPortfolio memory nToken\n    ) internal {\n        // Always reference the current settlement date\n        uint256 settlementDate = DateTime.getReferenceTime(block.timestamp) + Constants.QUARTER;\n        market.setMarketStorageForInitialize(currencyId, settlementDate);\n\n        BitmapAssetsHandler.addifCashAsset(\n            nToken.tokenAddress,\n            currencyId,\n            market.maturity,\n            nToken.lastInitializedTime,\n            market.totalfCash.neg()\n        );\n    }\n\n    /// @notice Get a list of deployed library addresses (sorted by library name)\n    function getLibInfo() external pure returns (address) {\n        return address(nTokenMintAction);\n    }\n}\n","sourcePath":"contracts/external/actions/InitializeMarketsAction.sol","type":"library","deployment":{"address":"0x838426a20B0Cf02Eb45Cd708Db81f9cFC142B9B8","chainid":"5","blockHeight":7657220}}