{"abi":[{"anonymous":false,"inputs":[{"indexed":true,"internalType":"address","name":"vault","type":"address"},{"indexed":true,"internalType":"address","name":"account","type":"address"},{"indexed":false,"internalType":"uint256","name":"vaultSharesToLiquidator","type":"uint256"},{"indexed":false,"internalType":"int256","name":"fCashRepaid","type":"int256"}],"name":"VaultDeleverageAccount","type":"event"},{"anonymous":false,"inputs":[{"indexed":true,"internalType":"address","name":"vault","type":"address"},{"indexed":true,"internalType":"uint256","name":"maturity","type":"uint256"},{"indexed":true,"internalType":"address","name":"account","type":"address"},{"indexed":false,"internalType":"uint256","name":"underlyingTokensDeposited","type":"uint256"},{"indexed":false,"internalType":"uint256","name":"cashTransferToVault","type":"uint256"},{"indexed":false,"internalType":"uint256","name":"strategyTokenDeposited","type":"uint256"},{"indexed":false,"internalType":"uint256","name":"vaultSharesMinted","type":"uint256"}],"name":"VaultEnterMaturity","type":"event"},{"anonymous":false,"inputs":[{"indexed":true,"internalType":"address","name":"vault","type":"address"},{"indexed":true,"internalType":"address","name":"account","type":"address"},{"indexed":true,"internalType":"uint256","name":"maturity","type":"uint256"},{"indexed":false,"internalType":"uint256","name":"fCashBorrowed","type":"uint256"}],"name":"VaultEnterPosition","type":"event"},{"anonymous":false,"inputs":[{"indexed":true,"internalType":"address","name":"vault","type":"address"},{"indexed":true,"internalType":"address","name":"account","type":"address"},{"indexed":true,"internalType":"uint256","name":"maturity","type":"uint256"},{"indexed":false,"internalType":"uint256","name":"underlyingToReceiver","type":"uint256"}],"name":"VaultExitPostMaturity","type":"event"},{"anonymous":false,"inputs":[{"indexed":true,"internalType":"address","name":"vault","type":"address"},{"indexed":true,"internalType":"address","name":"account","type":"address"},{"indexed":true,"internalType":"uint256","name":"maturity","type":"uint256"},{"indexed":false,"internalType":"uint256","name":"fCashToLend","type":"uint256"},{"indexed":false,"internalType":"uint256","name":"vaultSharesToRedeem","type":"uint256"},{"indexed":false,"internalType":"uint256","name":"underlyingToReceiver","type":"uint256"}],"name":"VaultExitPreMaturity","type":"event"},{"anonymous":false,"inputs":[{"indexed":true,"internalType":"address","name":"vault","type":"address"},{"indexed":true,"internalType":"address","name":"account","type":"address"},{"indexed":true,"internalType":"address","name":"liquidator","type":"address"},{"indexed":false,"internalType":"uint256","name":"vaultSharesToLiquidator","type":"uint256"},{"indexed":false,"internalType":"bool","name":"transferSharesToLiquidator","type":"bool"}],"name":"VaultLiquidatorProfit","type":"event"},{"anonymous":false,"inputs":[{"indexed":true,"internalType":"address","name":"vault","type":"address"},{"indexed":true,"internalType":"address","name":"account","type":"address"},{"indexed":true,"internalType":"uint256","name":"newMaturity","type":"uint256"},{"indexed":false,"internalType":"uint256","name":"fCashBorrowed","type":"uint256"}],"name":"VaultRollPosition","type":"event"},{"inputs":[{"internalType":"address","name":"account","type":"address"},{"internalType":"address","name":"vault","type":"address"},{"internalType":"address","name":"liquidator","type":"address"},{"internalType":"uint256","name":"depositAmountExternal","type":"uint256"},{"internalType":"bool","name":"transferSharesToLiquidator","type":"bool"},{"internalType":"bytes","name":"redeemData","type":"bytes"}],"name":"deleverageAccount","outputs":[{"internalType":"uint256","name":"profitFromLiquidation","type":"uint256"}],"stateMutability":"nonpayable","type":"function"},{"inputs":[{"internalType":"address","name":"account","type":"address"},{"internalType":"address","name":"vault","type":"address"},{"internalType":"uint256","name":"depositAmountExternal","type":"uint256"},{"internalType":"uint256","name":"maturity","type":"uint256"},{"internalType":"uint256","name":"fCash","type":"uint256"},{"internalType":"uint32","name":"maxBorrowRate","type":"uint32"},{"internalType":"bytes","name":"vaultData","type":"bytes"}],"name":"enterVault","outputs":[{"internalType":"uint256","name":"strategyTokensAdded","type":"uint256"}],"stateMutability":"payable","type":"function"},{"inputs":[{"internalType":"address","name":"account","type":"address"},{"internalType":"address","name":"vault","type":"address"},{"internalType":"address","name":"receiver","type":"address"},{"internalType":"uint256","name":"vaultSharesToRedeem","type":"uint256"},{"internalType":"uint256","name":"fCashToLend","type":"uint256"},{"internalType":"uint32","name":"minLendRate","type":"uint32"},{"internalType":"bytes","name":"exitVaultData","type":"bytes"}],"name":"exitVault","outputs":[{"internalType":"uint256","name":"underlyingToReceiver","type":"uint256"}],"stateMutability":"payable","type":"function"},{"inputs":[],"name":"getLibInfo","outputs":[{"internalType":"address","name":"","type":"address"}],"stateMutability":"pure","type":"function"},{"inputs":[{"internalType":"address","name":"account","type":"address"},{"internalType":"address","name":"vault","type":"address"}],"name":"getVaultAccount","outputs":[{"components":[{"internalType":"int256","name":"fCash","type":"int256"},{"internalType":"uint256","name":"maturity","type":"uint256"},{"internalType":"uint256","name":"vaultShares","type":"uint256"},{"internalType":"address","name":"account","type":"address"},{"internalType":"int256","name":"tempCashBalance","type":"int256"}],"internalType":"struct VaultAccount","name":"","type":"tuple"}],"stateMutability":"view","type":"function"},{"inputs":[{"internalType":"address","name":"account","type":"address"},{"internalType":"address","name":"vault","type":"address"}],"name":"getVaultAccountCollateralRatio","outputs":[{"internalType":"int256","name":"collateralRatio","type":"int256"},{"internalType":"int256","name":"minCollateralRatio","type":"int256"},{"internalType":"int256","name":"maxLiquidatorDepositAssetCash","type":"int256"},{"internalType":"uint256","name":"vaultSharesToLiquidator","type":"uint256"}],"stateMutability":"view","type":"function"},{"inputs":[{"internalType":"address","name":"account","type":"address"},{"internalType":"address","name":"vault","type":"address"}],"name":"getVaultAccountDebtShares","outputs":[{"internalType":"uint256","name":"debtSharesMaturity","type":"uint256"},{"internalType":"uint256[2]","name":"accountDebtShares","type":"uint256[2]"},{"internalType":"uint256","name":"accountStrategyTokens","type":"uint256"}],"stateMutability":"view","type":"function"},{"inputs":[],"name":"owner","outputs":[{"internalType":"address","name":"","type":"address"}],"stateMutability":"view","type":"function"},{"inputs":[],"name":"pauseGuardian","outputs":[{"internalType":"address","name":"","type":"address"}],"stateMutability":"view","type":"function"},{"inputs":[],"name":"pauseRouter","outputs":[{"internalType":"address","name":"","type":"address"}],"stateMutability":"view","type":"function"},{"inputs":[{"internalType":"address","name":"account","type":"address"},{"internalType":"address","name":"vault","type":"address"},{"internalType":"uint256","name":"fCashToBorrow","type":"uint256"},{"internalType":"uint256","name":"maturity","type":"uint256"},{"internalType":"uint256","name":"depositAmountExternal","type":"uint256"},{"internalType":"uint32","name":"minLendRate","type":"uint32"},{"internalType":"uint32","name":"maxBorrowRate","type":"uint32"},{"internalType":"bytes","name":"enterVaultData","type":"bytes"}],"name":"rollVaultPosition","outputs":[{"internalType":"uint256","name":"strategyTokensAdded","type":"uint256"}],"stateMutability":"payable","type":"function"}],"bytecode":"608060405234801561001057600080fd5b506157b080620000216000396000f3fe60806040526004361061009c5760003560e01c80638246336711610064578063824633671461015e5780638da5cb5b1461017357806395c1a202146101885780639948315e1461019b578063c025d1a5146101bb578063c4c96dae146101e85761009c565b806324a3d622146100a1578063647cc196146100cc578063653b6104146100fc5780636ce48f011461011c578063803c25fb1461012f575b600080fd5b3480156100ad57600080fd5b506100b66101fd565b6040516100c391906151c7565b60405180910390f35b3480156100d857600080fd5b506100ec6100e7366004614ece565b61020c565b6040516100c394939291906152da565b61010f61010a366004615092565b6102f2565b6040516100c391906152c3565b61010f61012a366004614f8b565b6104c9565b34801561013b57600080fd5b5061014f61014a366004614ece565b610715565b6040516100c393929190615715565b34801561016a57600080fd5b506100b66107c6565b34801561017f57600080fd5b506100b66107d5565b61010f610196366004615022565b6107ec565b3480156101a757600080fd5b5061010f6101b6366004614ef7565b610954565b3480156101c757600080fd5b506101db6101d6366004614ece565b610bc6565b6040516100c391906156af565b3480156101f457600080fd5b506100b6610be1565b6002546001600160a01b031681565b600080600080600061021d86610bf9565b9050600061022b8888610c28565b9050600061023d888360200151610ca6565b90508260a00151955080604001511561025f576001600160ff1b0396506102e6565b6040820151825160009161027991869185918e9190610d41565b9098509050868812801561028d5750600081135b156102e45761029d838583610dc7565b5095506102e1633b9aca006102db6102b484610ed6565b6102db87604001516102d56102cc8b60c00151610ed6565b6102d58e610ed6565b90610eed565b90610f14565b94505b505b50505092959194509250565b60006002600a5414156103205760405162461bcd60e51b815260040161031790615570565b60405180910390fd5b6002600a5560006103308a610f33565b905061033e818c6010610f57565b610349816080610fc1565b15610354576001600a555b60006103608c8c610c28565b905061036d826001610fc1565b801561037f575061037f826002610fc1565b801561038e5750806020015142105b801561039d5750888160200151105b80156103a9575060008a115b6103c55760405162461bcd60e51b8152600401610317906154b3565b60006103d983600001518360200151610ca6565b905060006103f683846040015184610fd69092919063ffffffff16565b9050610415848361040a8660000151611035565b869291908d42611043565b8251156104345760405162461bcd60e51b81526004016103179061565b565b83516104419083906110d1565b89156104525761045283858c611245565b61046483858d8f8c8c8c88600061132c565b94508a8e6001600160a01b03168e6001600160a01b03167f67c1d09e65227d62b788f4c3e6ace545ac922034d69bd4aa45c53dec290275be8f6040516104aa91906152c3565b60405180910390a450506001600a5550909a9950505050505050505050565b60006002600a5414156104ee5760405162461bcd60e51b815260040161031790615570565b6002600a5560006104fe89610f33565b905061050c818b6008610f57565b610517816080610fc1565b15610522576001600a555b600061052e8b8b610c28565b9050428160200151116105dc576020810151600061054d8385426113cf565b90506000836080015113156105785761056f8b856040015185608001516114a5565b50600060808401525b61058784848d84868c8c61154e565b9450818d6001600160a01b03168d6001600160a01b03167fccd6b9aec297a77187bfaabfe7f98ac1dd313c796a73695dff89de0885dbb293886040516105cd91906152c3565b60405180910390a450506106da565b60006105f083600001518360200151610ca6565b905061060b83826106008b6115c5565b859291908b42611043565b600061061882848c610fd6565b90506000836080015113156106435761063a8b856040015185608001516114a5565b50600060808401525b801561066157815161065e90859085908e9085908c8c61154e565b94505b825160001315610676576106768483856115db565b83516106839083906110d1565b81600001518d6001600160a01b03168d6001600160a01b03167fea195c44d2295a1df0defe8210abb22b4a911b4379b9e30e764548ebee65c4208c8e8a6040516106cf93929190615764565b60405180910390a450505b80511580156106eb57506040810151155b156106f857600060208201525b6107028183611623565b50506001600a5598975050505050505050565b600061071f614c94565b60008061072a6117af565b6001600160a01b03878116600090815260209283526040808220928916825291835290812080546001600160501b03640100000000820481168852600160701b8204169387019390935263ffffffff909216955090915061078b8787610c28565b9050600061079d878360200151610ca6565b90506107b68260400151826117bc90919063ffffffff16565b9050809450505050509250925092565b6001546001600160a01b031681565b60005464010000000090046001600160a01b031681565b60006002600a5414156108115760405162461bcd60e51b815260040161031790615570565b6002600a5561081f89611816565b600061082a89610f33565b9050610838818b6004610f57565b610843816080610fc1565b1561084e576001600a555b610859816001610fc1565b6108755760405162461bcd60e51b815260040161031790615635565b8642106108945760405162461bcd60e51b815260040161031790615635565b60006108a08b8b610c28565b9050600081602001516000141580156108bd575042826020015111155b156108d0576108cd8284426113cf565b90505b60006108dd848e8d611865565b90506108f083858c8c8c8c8c898961132c565b9450898d6001600160a01b03168d6001600160a01b03167f7e1a5e400898c4bb3cfc62f61a71f4369ec78f0e778a31286892b7d2c0d044f28c60405161093691906152c3565b60405180910390a450506001600a5550909998505050505050505050565b60006002600a5414156109795760405162461bcd60e51b815260040161031790615570565b6002600a55600061098b89898961193e565b905060006109998a8a610c28565b905060006109ab8a8360200151610ca6565b9050816020015142106109bd57600080fd5b6000806109e1838e8660400151876000015189610d4190949392919063ffffffff16565b915091508460a001518212610a085760405162461bcd60e51b815260040161031790615680565b6000610a1b866040015161ffff16611a13565b9050610a2b8c8287898f87611a26565b6000610a66633b9aca006102db610a4186610ed6565b6102db8a604001516102d5610a598e60c00151610ed6565b6102d58e60800151610ed6565b6040870151909150610a789082611b0f565b60408701526080860151610160880151600091610a959190611b24565b9050610ab4888783610aaa8b60800151611035565b8b93929190611b57565b865160001215610ac357600087525b8f6001600160a01b03168f6001600160a01b03167f5b4676a4ed91c52fd6c4a759aec8a3561b67499c52870fc58000a8eb54fec3018484604051610b089291906152cc565b60405180910390a350610b1b8688611623565b8c6001600160a01b03168f6001600160a01b03168f6001600160a01b03167f01745a2fe0d7c484ea79432a82f950eac6916adc499a0223d2ebdadcdb210f2a848f604051610b6a929190615754565b60405180910390a48a15610b9c578651610b859086906110d1565b610b958d88838960200151611bc5565b9750610bae565b610bab8d8887848e8e88611c39565b97505b50506001600a5550939b9a5050505050505050505050565b610bce614cb2565b610bd88383610c28565b90505b92915050565b73__TradingAction_________________________90565b610c01614cea565b610c0a82611cc7565b9050610c1d816040015161ffff16611e45565b610160820152919050565b610c30614cb2565b6000610c3a611e91565b6001600160a01b03948516600081815260209283526040808220969097168152948252858520546001600160501b038082168703865263ffffffff600160a01b83041693860193909352600160501b900490911694830194909452506060810192909252608082015290565b610cae614d67565b6000610cb8611e9e565b6001600160a01b03909416600090815260209485526040808220858352865280822094845284546001600160501b038082169093039685019690965260ff600160f01b870416151590840152600160501b8086048216608085015260019094015480821660a0850152600160a01b909504166060830152509104600990810b900b60c082015290565b600080610d5086888787611eab565b90506000610d6388878960000151611f10565b90506000610d89610d7d83610d7788611035565b90611ff8565b6101608b01519061200e565b90506000610d978483612039565b905081610dad576001600160ff1b039450610dba565b610db7818361204f565b94505b5050509550959350505050565b6000806000610de8633b9aca00866101200151611ff890919063ffffffff16565b90506000610e08610dfc8860000151611035565b6101608801519061200e565b9050610e3e610e248760c001518461203990919063ffffffff16565b610e3887610e328587612068565b90612039565b9061204f565b93506000610e4c8286612039565b90506000610e6c886060015189610160015161200e90919063ffffffff16565b9050610e788382612039565b945080821215610e86578295505b6000610ea988610ea38b60c001518a61208190919063ffffffff16565b906120cf565b9050633b9aca008112610ec95760c0890151610ec690899061204f565b96505b5050505050935093915050565b600080821215610ee557600080fd5b50805b919050565b600082610efc57506000610bdb565b82820282848281610f0957fe5b0414610bd857600080fd5b6000808211610f2257600080fd5b818381610f2b57fe5b049392505050565b610f3b614cea565b610f4482611cc7565b9050610c1d816040015161ffff16612100565b610f618382610fc1565b15610f945782516001600160a01b03163314610f8f5760405162461bcd60e51b8152600401610317906152f5565b610fbc565b6001600160a01b0382163314610fbc5760405162461bcd60e51b8152600401610317906152f5565b505050565b60209190910151811661ffff90811691161490565b8251602083015160009114610fea57600080fd5b6040830151610ff99083611b0f565b6040840152600061100a8584612116565b9250905061102561101a826115c5565b608086015190611ff8565b6080909401939093529392505050565b6000610bdb60001983612081565b85516000906110529085611ff8565b131561105d57600080fd5b8560200151811061106d57600080fd5b600061108a8660400151886020015186868a61010001518761216d565b9050806110ad576101608601516110aa906110a5908661200e565b611035565b90505b60008113156110bb57600080fd5b6110c88787878785611b57565b50505050505050565b60006110db611e9e565b6001600160a01b038316600090815260208281526040808320875184529091529081902090850151919250901561111157600080fd5b61112e6111296111248660200151611035565b610ed6565b61227c565b81546001600160501b0319166001600160501b039190911617815560808401516111579061227c565b81546001600160501b0391909116600160501b02600160501b600160a01b031990911617815560a084015161118b9061227c565b6001820180546001600160501b0319166001600160501b039290921691909117905560608401516111bb9061227c565b81546001600160501b0391909116600160a01b0269ffffffffffffffffffff60a01b1990911617815583516020850151608086015160a087015160608801516040516001600160a01b038916947f3a0fdaecf7b5da75a56077f5b1c8fbc88f9b08e9d0c4db31eb34e25bc6700cde9461123794919390926152da565b60405180910390a350505050565b60008061125184612292565b9092509050600060038260600151600581111561126a57fe5b14156112965734841461128f5760405162461bcd60e51b8152600401610317906155e3565b50346112bf565b6112bc6111248760600151876040015161ffff166112b3886115c5565b869291906122eb565b90505b60006004846060015160058111156112d357fe5b14156112e9576112e2826115c5565b9050611303565b811561130357604086015161130090859084612393565b90505b61131b611310858361248a565b608089015190611ff8565b608090970196909652505050505050565b6000878a60200151148061133f57508951155b61134857600080fd5b60006113588a600001518a610ca6565b9050871561137e576113798b8b838c6113736110a58e6115c5565b8c6124ba565b611395565b6113938a604001518a8c61010001514261254a565b505b6113a4818c8c87878b8b6125b9565b91506113b08b8b611623565b87156113c1576113c18a828d6115db565b509998505050505050505050565b6000806113e484600001518660200151610ca6565b905080604001516114075760405162461bcd60e51b81526004016103179061545e565b6000611420856040015161ffff168760200151866126e0565b905060006114476305f5e100610ea38560c001516114418760a001516115c5565b90612081565b905060006114588885898686612850565b9050600061146988868685876129f2565b60008b5260808b01519097509091506114829082611ff8565b60808a015250506000604088018190526020909701969096525090949350505050565b6000816114b457506000611547565b600082136114c157600080fd5b60006114d08461ffff16611a13565b905060006114de8285612c2a565b90506004826060015160058111156114f257fe5b1415611520576115196111246110a5888861ffff1661151086611035565b879291906122eb565b9250611544565b6115416111246110a58761ffff168961153886610ed6565b87929190612c62565b92505b50505b9392505050565b6000808760800151131561156157600080fd5b6115ad886040518060a001604052808a606001516001600160a01b03168152602001896001600160a01b031681526020018881526020018781526020018a608001518152508585612d02565b60006080909901989098525095979650505050505050565b60006001600160ff1b03821115610ee557600080fd5b60006115f68484846060015185604001518660000151610d41565b509050808460a00151131561161d5760405162461bcd60e51b8152600401610317906154dc565b50505050565b600061162d611e91565b60608401516001600160a01b0390811660009081526020838152604080832087519094168352929052206080850151919250901561166a57600080fd5b6060830151845161167a90611035565b12156116af578351158061169357506001846040015111155b6116af5760405162461bcd60e51b8152600401610317906155bf565b6116b883612f77565b1561171a5760006116c76117af565b60608601516001600160a01b03908116600090815260209283526040808220885190931682529183522080549187015190925063ffffffff9091169081148061170e575080155b61171757600080fd5b50505b61172d6111296111248660000151611035565b81546001600160501b0319166001600160501b039190911617815560408401516117569061227c565b81546001600160501b0391909116600160501b02600160501b600160a01b0319909116178155602084015161178a90612fa0565b815463ffffffff91909116600160a01b0263ffffffff60a01b19909116179055505050565b600080610bdb601a612fb3565b60008060008460600151111561180f576117eb84606001516102db866080015186610eed90919063ffffffff16565b915061180c84606001516102db8660a0015186610eed90919063ffffffff16565b90505b9250929050565b6001600160a01b03811661182957600080fd5b6001600160a01b03811630141561183f57600080fd5b600061184a82612fcc565b5050505061ffff1690508060001461186157600080fd5b5050565b60008161187457506000611547565b6000611887856040015161ffff16611a13565b9050600060048260600151600581111561189d57fe5b146118b8576118b3866040015161ffff16613038565b6118ba565b815b8651602082015191925090156118cf57600080fd5b6003826060015160058111156118e157fe5b141561191b578434146119065760405162461bcd60e51b8152600401610317906155e3565b611910813461304b565b349350505050611547565b815161192990878388613081565b849350505050611547565b5050509392505050565b611946614cea565b61194f83610f33565b905061195c816080610fc1565b15611967576001600a555b611972816020610fc1565b156119a457336001600160a01b0384161461199f5760405162461bcd60e51b8152600401610317906152f5565b6119cc565b336001600160a01b038316146119cc5760405162461bcd60e51b8152600401610317906152f5565b6001600160a01b03841633148015906119f75750816001600160a01b0316846001600160a01b031614155b6115475760405162461bcd60e51b8152600401610317906152f5565b611a1b614da6565b610bdb826000613109565b6000611a31836115c5565b9050600586606001516005811115611a4557fe5b1415611a6057611a5d846040015161ffff16826131b7565b90505b600080611a6e878786610dc7565b9150915060008213611a7f57600080fd5b6000611a8b8984612c2a565b905080841215611ac257611a9f8983612c2a565b8412611abd5760405162461bcd60e51b815260040161031790615513565b611ac6565b8093505b6040870151600090611ae0908b908d9061ffff16886122eb565b9050611afa611aef8b8361248a565b60808b015190611ff8565b60809099019890985250505050505050505050565b600082821115611b1e57600080fd5b50900390565b600080611b4f8460400151610ea36402540be400610ea387896020015161208190919063ffffffff16565b949350505050565b6080850151611b669082611ff8565b60808601528451611b779083611ff8565b80865260001215611b8757600080fd5b6020830151611b969083611ff8565b6020840181905260001215611baa57600080fd5b611bbd846000015185604001518461323e565b505050505050565b600080611bd6868660000151610c28565b9050806020015160001480611bee5750828160200151145b611c0a5760405162461bcd60e51b81526004016103179061531b565b602081018390526040810151611c209085613344565b6040820152611c2f8186611623565b5091949350505050565b60008080611c478888612116565b89519193509150611c5f908a908c9084908a8a613356565b8a51909450611c70915089906110d1565b8115611cba576000611caa6111246110a58c6040015161ffff168e611ca1611124611c9a8a6115c5565b8c90612c2a565b8a929190612c62565b9050611cb68482613344565b9350505b5050979650505050505050565b611ccf614cea565b6000611cd96133ad565b6001600160a01b03841660008181526020838152604091829020928652825461ffff808216928801929092526201000081049091169186019190915291925090611d3a9063ffffffff6401000000009091048116906305f5e1009061208116565b60608401528054611d5890600160501b900460ff166207a120610eed565b60808401528054611d7c9068010000000000000000900461ffff16620186a0610eed565b60a08401528054611d9b90600160701b900461ffff16620186a0610eed565b610120840152805460649060ff600160581b90910416633b9aca00020560c08401528054600160601b810460ff90811660e0860152600160681b909104166101008401526040805180820191829052906001830190600290826000855b82829054906101000a900461ffff1661ffff1681526020019060020190602082600101049283019260010382029150808411611df857905050505050508361014001819052505050919050565b611e4d614dd5565b6000806000611e5b856133ba565b604080516060810182526001600160a01b039093168352602083019390935260ff16600a0a918101919091529350505050919050565b600080610bdb6016612fb3565b600080610bdb6015612fb3565b600081611eba57506000611b4f565b600080611ec787856117bc565b915091506000611ee68760400151886000015188858c6000015161347b565b9050611f04611ef4846115c5565b610160890151610d77908461200e565b98975050505050505050565b6000611f1b84612f77565b15611547576000611f2a6117af565b6001600160a01b03808616600090815260209283526040808220895190931682529190925280822090870151909250611f669061ffff16613535565b82549091506001600160501b036401000000008204811691600160701b9004168115611fbd57611fba611fb3848a6101400151600060028110611fa557fe5b60200201518b518a87613698565b8690611ff8565b94505b8015611fed57611fea611fb3848a6101400151600160028110611fdc57fe5b60200201518b518a86613698565b94505b505050509392505050565b81810182811215600083121514610bdb57600080fd5b600080611b4f8460200151610ea386604001516114416402540be4008861208190919063ffffffff16565b80820382811315600083121514610bdb57600080fd5b6000610bd861206284633b9aca00612081565b836120cf565b6000610bd86120778484612081565b633b9aca006120cf565b8181026000198314156120b1578115806120a35750828282816120a057fe5b05145b6120ac57600080fd5b610bdb565b8215806120c65750818382816120c357fe5b05145b610bdb57600080fd5b6000816000191480156120e55750600160ff1b83145b156120ef57600080fd5b8183816120f857fe5b059392505050565b612108614dd5565b6000806000611e5b85613749565b60008061212384846117bc565b608086015191935091506121379083611b0f565b608085015260a084015161214b9082611b0f565b60a0850152606084015161215f9084611b0f565b606090940193909352929050565b60008061217c8888868661254a565b90506000612189876137ce565b90506affffffffffffffffffffff81106121a257600080fd5b600060788763ffffffff16901b609883901b60f085901b60f860008c136121ca5760016121cd565b60005b60058111156121d857fe5b60ff16901b17171760001b905073__TradingAction_________________________63e50f349e8b836040518363ffffffff1660e01b815260040161221e929190615701565b60206040518083038186803b15801561223657600080fd5b505af415801561224a573d6000803e3d6000fd5b505050506040513d601f19601f8201168201806040525081019061226e9190615136565b9a9950505050505050505050565b60006001600160501b03821115610ee557600080fd5b61229a614da6565b6122a2614da6565b6122b3836040015161ffff16611a13565b91506004826060015160058111156122c757fe5b146122e2576122dd836040015161ffff16613038565b6122e4565b815b9050915091565b806005856060015160058111156122fe57fe5b141561232357600061230f84613038565b905061231f8160000151846137ef565b9250505b600082131561234f57600061233986868561387e565b9050856020015115612349578091505b50611b4f565b60038560600151600581111561236157fe5b141561237e576123798461237484611035565b61304b565b611b4f565b8451611b4f908561238e85611035565b613967565b6000806005856060015160058111156123a857fe5b146123ba576370a0823160e01b6123c3565b630ed1279f60e11b5b905060006123d6866000015130846139de565b90506005866060015160058111156123ea57fe5b14156124115760006123ff8661ffff16613038565b905061240b8186613af0565b5061245a565b60018660600151600581111561242357fe5b1415612438576124338685613b5b565b61245a565b60028660600151600581111561244a57fe5b141561009c576124338685613bfd565b600061246b876000015130856139de565b905061247f61247a8284613c50565b6115c5565b979650505050505050565b60006305f5e100836040015114156124a3575080610bdb565b6040830151610bd890610ea3846305f5e100612081565b600082126124c757600080fd5b60006124e086604001518585858a61010001514261216d565b9050600081136125025760405162461bcd60e51b815260040161031790615598565b61250f8787878685611b57565b865161251a90611035565b8660600151131561253d5760405162461bcd60e51b8152600401610317906155bf565b6110c88688838742613ca7565b600080600061255c8761ffff16613da2565b905061256c8160ff168786613db8565b9093509150848311156125915760405162461bcd60e51b81526004016103179061540e565b81156125af5760405162461bcd60e51b81526004016103179061540e565b5050949350505050565b600087608001516000146125cc57600080fd5b6000876080015112156125de57600080fd5b875160208801511015612606576040870151156125fa57600080fd5b87516020880152612617565b875160208801511461261757600080fd5b600085156126325761262f8989888a60000151613e80565b90505b606088015160808901518a5160009261264f928b928a8a8a613efe565b905061266b6126648b8b848c60000151613e80565b8390613344565b915088606001516001600160a01b03168a6000015189600001516001600160a01b03167ff0b1fff1c6815d2739f7cb03adbb99177a10daae11921a3ae1712f20ea52eb9a898d608001518c886040516126c794939291906152da565b60405180910390a4600060808a015261226e8782613344565b6126e8614dd5565b6000806126f58686613fb4565b91509150816000141561282557600061270d87613749565b91945090925090506001600160a01b0381161561282357600061272e613ffd565b90508560001080156127405750858711155b8015612751575064ffffffffff8611155b61275a57600080fd5b83600012801561277157506001600160801b038413155b61277a57600080fd5b6000888152602082815260408083208a845290915290819020805464ffffffffff191664ffffffffff89161774ffffffffffffffffffffffffffffffff00000000001916650100000000006001600160801b038816021760ff60a81b1916600160a81b60ff871602178155905188908a907f0fdfa6885701e2f1f42e4187b9231cf81c1fe23671ef64fa46f34ddb56c1dc18906128189089906156ed565b60405180910390a350505b505b6040805160608101825260008152602081019390935260ff909116600a0a9082015290509392505050565b60008061287461286d61286688608001516115c5565b8690611b24565b8490611ff8565b905061287f85612f77565b1561299357600061288e6117af565b60608901516001600160a01b039081166000908152602092835260408082208a519093168252919092528120875189516101408a015151835493955084936128e99392919064010000000090046001600160501b031661400a565b90925090506128f88483611ff8565b93506129048582612039565b88518a516101408b015160200151865493985061293093600160701b90046001600160501b031661400a565b909250905061293f8483611ff8565b935061294b8582612039565b94506129556117af565b60608b01516001600160a01b039081166000908152602092835260408082208c51909316825291909252902080546001600160c01b03191690555050505b6129c66129bf8860000151610d776129ae8a606001516115c5565b610ea3866114418e604001516115c5565b8390611ff8565b915060008212156129e8576129de611310858461200e565b6080880152600091505b5095945050505050565b6000806000612a1e612a1188602001518861200e90919063ffffffff16565b610d7789608001516115c5565b90506000612a3085610d778985611b24565b90508015612a6957612a5661112482610ea3612a4f8c60a001516115c5565b8a90612081565b9250612a6681610ea38885612081565b93505b50506000612a7561409e565b88516001600160a01b03166000908152602091825260408082208a5183529092522080549091506001600160501b03811690600160501b9004600990810b900b83821015612af257612ae5611fb3612ade6305f5e100610ea38d60c00151611441888b036115c5565b8a9061200e565b9450909250600090612af8565b83820391505b82546001600160501b0319166001600160501b0383161783556000851215612b1f57600080fd5b84811215612b92576000808213612b365785612b3a565b8186035b90506000612b568c600001518d60400151848e600001516140ab565b90506000831315612b8757612b6b8382611ff8565b8554600160501b600160a01b0319168655965060009250612b8b565b8096505b5050612bd1565b612b9c8186612039565b9050612ba7816141d3565b835460099190910b6001600160501b0316600160501b02600160501b600160a01b03199091161783555b88600001518a600001516001600160a01b03167ff5b347a56f0b5140f05eec05ff743978670a56685689fdc2c3193d71cfac31a98385604051612c159291906152cc565b60405180910390a35050509550959350505050565b60006305f5e10083604001511415612c43575080610bdb565b610bd86305f5e100610ea385604001518561208190919063ffffffff16565b600080600286606001516005811115612c7757fe5b1415612c8f57612c88868585614203565b9050612cec565b6000612c9a86613038565b9050600587606001516005811115612cae57fe5b1415612cc657612cbf8186866142c0565b9150612cea565b600187606001516005811115612cd857fe5b141561009c57612cbf87828787614371565b505b612cf86110a5826115c5565b9695505050505050565b600080600080612d1188612292565b9150915060008088608001511215612d8657600483606001516005811115612d3557fe5b1415612d5257612d4b6111248960800151611035565b9050612d86565b6000612d736110a58a608001518c6101600151611b2490919063ffffffff16565b9050612d82611124848361446f565b9150505b604088015160009015612e5e576000612d9f84306144ab565b90508a600001516001600160a01b03166344f051088b600001518c602001518d604001518e60600151888f8f6040518863ffffffff1660e01b8152600401612ded97969594939291906151db565b602060405180830381600087803b158015612e0757600080fd5b505af1158015612e1b573d6000803e3d6000fd5b505050506040513d601f19601f82011682018060405250810190612e3f9190615136565b95506000612e4d85306144ab565b9050612e598183611b0f565b925050505b81811015612ef957808203600384606001516005811115612e7b57fe5b1415612eb95734811115612ea15760405162461bcd60e51b815260040161031790615388565b612eb18a6000015182340361304b565b829150612ef7565b6000612ede8b600001518d6040015161ffff16612ed5856115c5565b889291906122eb565b9050612ef3612eec82610ed6565b8490613344565b9250505b505b81811015612f195760405162461bcd60e51b815260040161031790615388565b6000600485606001516005811115612f2d57fe5b1415612f4357612f3c826115c5565b9050612f5d565b8115612f5d5760408b0151612f5a90869084612393565b90505b612f67858261248a565b9650505050505094509492505050565b6101408101515160009061ffff16151580610bdb57505061014001516020015161ffff16151590565b600063ffffffff821115610ee557600080fd5b6000620f424082601a811115612fc557fe5b0192915050565b600080600080600080612fdd614555565b6001600160a01b039097166000908152602097909752505060409094205461ffff81169563ffffffff620100008304811696506601000000000000830416945060ff600160501b8304169350600160581b90910460d81b9150565b613040614da6565b610bdb826001613109565b6040516001600160a01b0383169082156108fc029083906000818181858888f19350505050158015610fbc573d6000803e3d6000fd5b836001600160a01b03166323b872dd8484846040518463ffffffff1660e01b815260040180846001600160a01b03168152602001836001600160a01b031681526020018281526020019350505050600060405180830381600087803b1580156130e957600080fd5b505af11580156130fd573d6000803e3d6000fd5b5050505061161d614562565b613111614da6565b600061311b6145cf565b6000858152602082815260408083208715158452825291829020825160a08101845281546001600160a01b038116825260ff600160a01b82048116151594830194909452600160b01b81048416600a0a9482019490945293945092916060830191600160a81b90910416600581111561319057fe5b81529154600160b81b900468ffffffffffffffffff16602090920191909152949350505050565b6000816131c657506000610bdb565b600082136131d357600080fd5b60006131de84613038565b905060006131ef82600001516145dc565b9050600281056b033b2e3c9fd0803ce80000006001600160ff1b038290030585131561321a57600080fd5b81816b033b2e3c9fd0803ce80000008702018161323357fe5b059695505050505050565b600080613249614667565b6001600160a01b03861660009081526020918252604080822061ffff8816835290925220805490915061328c90600160501b90046001600160501b031684612039565b915060008312156132c15780546001600160501b03168213156132c15760405162461bcd60e51b815260040161031790615438565b6132cd61112983610ed6565b81546001600160501b0391909116600160501b02600160501b600160a01b031990911617815560405161ffff8516906001600160a01b038716907f20478ef460e49d010960d4f3fff35d8dae385443abfac09035d6a2ccbcd834c4906133349086906152c3565b60405180910390a3509392505050565b600082820183811015610bd857600080fd5b60008061339e886040518060a001604052808a6001600160a01b031681526020018a6001600160a01b0316815260200189815260200188815260200160008152508686612d02565b90999098509650505050505050565b600080610bdb6014612fb3565b60008060008060006133cb86614674565b909250905060006001600160a01b0383166133f05750600090506402540be400613470565b826001600160a01b031663b2fffb046040518163ffffffff1660e01b815260040160206040518083038186803b15801561342957600080fd5b505afa15801561343d573d6000803e3d6000fd5b505050506040513d601f19601f820116820180604052508101906134619190615136565b90506000811361347057600080fd5b969195509350915050565b60008061348b8761ffff16613038565b90508060400151600014156134aa576134a78761ffff16611a13565b90505b60405163e937711160e01b815261247f906001600160a01b0388169063e9377111906134de90899089908990600401615269565b60206040518083038186803b1580156134f657600080fd5b505afa15801561350a573d6000803e3d6000fd5b505050506040513d601f19601f8201168201806040525081019061352e9190615136565b829061248a565b61353d614dff565b60006135476146ab565b60008481526020829052604081209192508060018614156135745750670de0b6b3a764000090508061364a565b825460408051633fabe5a360e21b815290516001600160a01b039092169163feaf968c9160048082019260a092909190829003018186803b1580156135b857600080fd5b505afa1580156135cc573d6000803e3d6000fd5b505050506040513d601f19601f820116820180604052508101906135f0919061514e565b509193505060008313915061361990505760405162461bcd60e51b81526004016103179061554a565b825460ff600160a01b82048116600a0a9350600160a81b909104161561364a5761364781610ea38480612081565b90505b6040805160a0810182529283526020830191909152915460ff600160b01b8204811693830193909352600160b81b810483166060830152600160c01b90049091166080820152915050919050565b6000806136a36146b8565b6001600160a01b038616600090815260209182526040808220878352835280822061ffff8a16835290925290812080549092506001600160501b0380821692600160501b90920416906136fd61247a836102db8987610eed565b9050600061370e8a61ffff16613535565b9050600061371c8c836146c5565b905061373981610ea38e600001518661208190919063ffffffff16565b9c9b505050505050505050505050565b600080600080600061375a86614674565b909250905060006001600160a01b03831661377f5750600090506402540be400613470565b826001600160a01b0316631ee108336040518163ffffffff1660e01b8152600401602060405180830381600087803b1580156137ba57600080fd5b505af115801561343d573d6000803e3d6000fd5b6000808212156137e8576137e182611035565b9050610ee8565b5080610ee8565b6000816137fe57506000610bdb565b6000613809846145dc565b90506000613816846137ce565b9050816b019d971e4fe8401e74000001600160ff1b038161383357fe5b0581131561384057600080fd5b6b033b2e3c9fd0803ce80000006b019d971e4fe8401e740000008383020105600085136138755761387081611035565b612cf8565b95945050505050565b600080808060058760600151600581111561389557fe5b146138a7576370a0823160e01b6138b0565b630ed1279f60e11b5b90508660200151156138cc5786516138c99030836139de565b92505b86516138d99087876146ea565b8660200151806138ed575060008760800151115b156139025786516138ff9030836139de565b91505b60808701511561393d5760006139208861391b856115c5565b61248a565b905061392f88608001516115c5565b81131561393b57600080fd5b505b86602001511561395e5761395461247a8385613c50565b9350505050611547565b613954856115c5565b826001600160a01b031663a9059cbb83836040518363ffffffff1660e01b815260040180836001600160a01b0316815260200182815260200192505050600060405180830381600087803b1580156139be57600080fd5b505af11580156139d2573d6000803e3d6000fd5b50505050610fbc614562565b604080516001600160a01b0384811660248084019190915283518084039091018152604490920183526020820180516001600160e01b03166001600160e01b0319861617815292518251600094859485948a16939092909182918083835b60208310613a5b5780518252601f199092019160209182019101613a3c565b6001836020036101000a038019825116818451168082178552505050505050905001915050600060405180830381855afa9150503d8060008114613abb576040519150601f19603f3d011682016040523d82523d6000602084013e613ac0565b606091505b509150915081613acf57600080fd5b808060200190516020811015613ae457600080fd5b50519695505050505050565b613af8614742565b54825160405163e8eda9df60e01b81526001600160a01b039092169163e8eda9df91613b2d918590309060009060040161523c565b600060405180830381600087803b158015613b4757600080fd5b505af1158015611bbd573d6000803e3d6000fd5b815160405163140e25ad60e31b81526000916001600160a01b03169063a0712d6890613b8b9085906004016152c3565b602060405180830381600087803b158015613ba557600080fd5b505af1158015613bb9573d6000803e3d6000fd5b505050506040513d601f19601f82011682018060405250810190613bdd9190615136565b90508015610fbc5760405162461bcd60e51b81526004016103179061534a565b81600001516001600160a01b0316631249c58b826040518263ffffffff1660e01b81526004016000604051808303818588803b158015613c3c57600080fd5b505af11580156110c8573d6000803e3d6000fd5b600082821115611b1e576040805162461bcd60e51b815260206004820152601e60248201527f536166654d6174683a207375627472616374696f6e206f766572666c6f770000604482015290519081900360640190fd5b6000613ccc6301da9c00610ea3613cc161247a8787611b0f565b60808a015190612081565b90506000613cda8583612068565b90506000613cfa6064610ea38a60e001518561208190919063ffffffff16565b90506000613d088383612039565b9050613d1c896040015161ffff168361474f565b613d2e896040015161ffff16826147d6565b6080880151613d3d9084612039565b88608001818152505085896040015161ffff168a600001516001600160a01b03167f7456cb4b7c3068832fb334a03d3cd8e440286bad834cb9e332df05ae6792cfbb8585604051613d8f9291906152cc565b60405180910390a4505050505050505050565b600080613dae83614822565b60ff169392505050565b60008060008511613ddb5760405162461bcd60e51b8152600401610317906153b8565b6007851115613dfc5760405162461bcd60e51b815260040161031790615483565b6000613e078461483f565b905060015b868111613e5f576000613e28613e218361485d565b8490614901565b905086811415613e405750925060009150613e789050565b86811115613e565750925060019150613e789050565b50600101613e0c565b5060405162461bcd60e51b815260040161031790615608565b935093915050565b60008460a0015160001415613e96575081613eb8565b613eb58560a001516102db876060015186610eed90919063ffffffff16565b90505b60a0850151613ec79084613344565b60a08601526060850151613edb9082613344565b60608601526040840151613eef9082613344565b6040850152611b4f85836110d1565b600080613f1489600001518a60400151896114a5565b89519091506001600160a01b031663dc6679c589613f328489613344565b8988886040518663ffffffff1660e01b8152600401613f5595949392919061528a565b602060405180830381600087803b158015613f6f57600080fd5b505af1158015613f83573d6000803e3d6000fd5b505050506040513d601f19601f82011682018060405250810190613fa79190615136565b9998505050505050505050565b6000806000613fc1613ffd565b6000958652602090815260408087209587529490525050509020546501000000000081046001600160801b031691600160a81b90910460ff1690565b600080610bdb6008612fb3565b60008061ffff841661402157506000905080614095565b600061402b6146b8565b6001600160a01b038816600090815260209182526040808220898352835280822061ffff891683529092522080549091506001600160501b03600160a01b8204811691600160501b90041685156140905761408d61247a826102db8986610eed565b93505b509250505b94509492505050565b600080610bdb6019612fb3565b60006140b885600061495b565b846001600160a01b03167f7c51c6aa77346c54cb051d9e792f9b7bde5c28a9b57e6fb2d2dd727b38438ca960006040516140f291906152b8565b60405180910390a2818461ffff16866001600160a01b03167f823b641d46550301006f807a26587634f15bd13749efdc8859734377d5304a3b8660405161413991906152c3565b60405180910390a4600061415260008661ffff166149bb565b50505090508084136141725761416a85858303614a64565b8391506141ca565b61417d856000614a64565b828561ffff16876001600160a01b03167f3a717b6924e3ad05b8c7609a2401472af90869b52cc3c9ca69b50100b4be63168488036040516141be91906152c3565b60405180910390a48091505b50949350505050565b6000697fffffffffffffffffff1982128015906141fa5750697fffffffffffffffffff8213155b610ee557600080fd5b825160405163db006a7560e01b8152600091479183916001600160a01b03169063db006a75906142379087906004016152c3565b602060405180830381600087803b15801561425157600080fd5b505af1158015614265573d6000803e3d6000fd5b505050506040513d601f19601f820116820180604052508101906142899190615136565b905080156142a95760405162461bcd60e51b815260040161031790615368565b476142b48184613c50565b9350611934868561304b565b60006142db61112485600001516142d6856115c5565b6137ef565b90506142e5614742565b548451604051631a4ca37b60e21b81526001600160a01b03909216916369328dec916143179185908890600401615219565b602060405180830381600087803b15801561433157600080fd5b505af1158015614345573d6000803e3d6000fd5b505050506040513d601f19601f820116820180604052508101906143699190615136565b509392505050565b8251600090819061438a90306370a0823160e01b6139de565b9050600086600001516001600160a01b031663db006a75856040518263ffffffff1660e01b81526004016143be91906152c3565b602060405180830381600087803b1580156143d857600080fd5b505af11580156143ec573d6000803e3d6000fd5b505050506040513d601f19601f820116820180604052508101906144109190615136565b905080156144305760405162461bcd60e51b815260040161031790615368565b855160009061444790306370a0823160e01b6139de565b90506144538184613c50565b935061446487600001518786613967565b505050949350505050565b60006305f5e10083604001511215614497576144906001610d778585612c2a565b9050610bdb565b610bd8836144a6846001611ff8565b612c2a565b60006003836060015160058111156144bf57fe5b14156144d657506001600160a01b03811631610bdb565b82516040516370a0823160e01b81526001600160a01b03909116906370a08231906145059085906004016151c7565b60206040518083038186803b15801561451d57600080fd5b505afa158015614531573d6000803e3d6000fd5b505050506040513d601f19601f820116820180604052508101906144909190615136565b600080610bdb6002612fb3565b600061456c614e2e565b3d8015614580576020811461458957600080fd5b60019250614594565b60206000833e815192505b5081611861576040805162461bcd60e51b8152602060048201526005602482015264045524332360dc1b604482015290519081900360640190fd5b600080610bdb6007612fb3565b6000610bdb6145e9614742565b5460405163d15e005360e01b81526001600160a01b039091169063d15e0053906146179086906004016151c7565b60206040518083038186803b15801561462f57600080fd5b505afa158015614643573d6000803e3d6000fd5b505050506040513d601f19601f8201168201806040525081019061247a9190615136565b600080610bdb6017612fb3565b6000806000614681614ac7565b600094855260205250506040909120546001600160a01b03811692600160a01b90910460ff169150565b600080610bdb6010612fb3565b600080610bdb6018612fb3565b6000610bd88260200151610ea38460000151866020015161208190919063ffffffff16565b604080516323b872dd60e01b81526001600160a01b038481166004830152306024830152604482018490529151918516916323b872dd9160648082019260009290919082900301818387803b1580156139be57600080fd5b600080610bdb6013612fb3565b600081121561475d57600080fd5b600061476a6000846149bb565b50505090506147828282611ff890919063ffffffff16565b9050614795600084836000806000614ad4565b8261ffff167f85170c297762884f47ec6098b74925c795e6d33686b11019b400e33a9b23b5e9836040516147c991906152c3565b60405180910390a2505050565b60008112156147e457600080fd5b60006147ef83614c1b565b905060006147fd82856149bb565b50505090506148158382611ff890919063ffffffff16565b905061161d828583614c41565b60008061482d614c5f565b60009384526020525050604090205490565b60006276a70082101561485157600080fd5b506276a7008106900390565b6000816001141561487257506276a700610ee8565b8160021415614885575062ed4e00610ee8565b816003141561489957506301da9c00610ee8565b81600414156148ad57506303b53800610ee8565b81600514156148c157506309450c00610ee8565b81600614156148d5575063128a1800610ee8565b81600714156148e957506325143000610ee8565b60405162461bcd60e51b8152600401610317906153e7565b600082820183811015610bd8576040805162461bcd60e51b815260206004820152601b60248201527f536166654d6174683a206164646974696f6e206f766572666c6f770000000000604482015290519081900360640190fd5b60006149656133ad565b6001600160a01b038416600090815260208290526040902080549192509061ffff1683156149a457815461ffff19166001821761ffff161782556149b4565b815461ffff191661fffe82161782555b5050505050565b60008060008060006149cb614c6c565b6001600160a01b0388166000908152602082815260408083208a8452909152902080546001600160501b0381169650600160501b900463ffffffff1694509091508315614a34578054614a2d90600160701b900466ffffffffffffff16614c79565b9250614a49565b8054600160701b900466ffffffffffffff1692505b54600160a81b9004600a90810b900b97939650919450925050565b6000811215614a7257600080fd5b614a8760008361ffff16836000806000614ad4565b8161ffff167fd3625f7b5926828151efe19f7ae655488287357d99ebe67e5fb20522ca739c0b82604051614abb91906152c3565b60405180910390a25050565b600080610bdb600f612fb3565b6000614ade614c6c565b6001600160a01b0388166000908152602082815260408083208a845290915290209091506a7fffffffffffffffffffff198612801590614b2957506a7fffffffffffffffffffff8613155b614b3257600080fd5b60008512158015614b4a57506001600160501b038513155b614b5357600080fd5b83614b935766ffffffffffffff831115614b6c57600080fd5b805466ffffffffffffff60701b1916600160701b66ffffffffffffff851602178155614bad565b8054600160501b900463ffffffff168414614bad57600080fd5b8054600a9690960b6affffffffffffffffffffff16600160a81b026001600160a81b036001600160501b039096166001600160501b031963ffffffff909616600160501b0263ffffffff60501b19909816979097179490941695909517939093169190911790925550505050565b600080614c26614c87565b6000938452602052505060409020546001600160a01b031690565b6000811215614c4f57600080fd5b610fbc8383836000806000614ad4565b600080610bdb6009612fb3565b600080610bdb6006612fb3565b600881901c60ff9091161b90565b600080610bdb6003612fb3565b60405180604001604052806002906020820280368337509192915050565b6040518060a0016040528060008152602001600081526020016000815260200160006001600160a01b03168152602001600081525090565b60405180610180016040528060006001600160a01b03168152602001600061ffff168152602001600061ffff16815260200160008152602001600081526020016000815260200160008152602001600081526020016000815260200160008152602001614d55614c94565b8152602001614d62614dd5565b905290565b6040518060e001604052806000815260200160008152602001600015158152602001600081526020016000815260200160008152602001600081525090565b6040805160a0810182526000808252602082018190529181018290529060608201908152602001600081525090565b604051806060016040528060006001600160a01b0316815260200160008152602001600081525090565b6040518060a0016040528060008152602001600081526020016000815260200160008152602001600081525090565b60405180602001604052806001906020820280368337509192915050565b80356001600160a01b0381168114610ee857600080fd5b60008083601f840112614e74578182fd5b50813567ffffffffffffffff811115614e8b578182fd5b60208301915083602082850101111561180f57600080fd5b803563ffffffff81168114610ee857600080fd5b80516001600160501b0381168114610ee857600080fd5b60008060408385031215614ee0578182fd5b614ee983614e4c565b915061180c60208401614e4c565b600080600080600080600060c0888a031215614f11578283fd5b614f1a88614e4c565b9650614f2860208901614e4c565b9550614f3660408901614e4c565b94506060880135935060808801358015158114614f51578384fd5b925060a088013567ffffffffffffffff811115614f6c578283fd5b614f788a828b01614e63565b989b979a50959850939692959293505050565b60008060008060008060008060e0898b031215614fa6578081fd5b614faf89614e4c565b9750614fbd60208a01614e4c565b9650614fcb60408a01614e4c565b95506060890135945060808901359350614fe760a08a01614ea3565b925060c089013567ffffffffffffffff811115615002578182fd5b61500e8b828c01614e63565b999c989b5096995094979396929594505050565b60008060008060008060008060e0898b03121561503d578384fd5b61504689614e4c565b975061505460208a01614e4c565b965060408901359550606089013594506080890135935061507760a08a01614ea3565b925060c089013567ffffffffffffffff811115615002578283fd5b60008060008060008060008060006101008a8c0312156150b0578081fd5b6150b98a614e4c565b98506150c760208b01614e4c565b975060408a0135965060608a0135955060808a013594506150ea60a08b01614ea3565b93506150f860c08b01614ea3565b925060e08a013567ffffffffffffffff811115615113578182fd5b61511f8c828d01614e63565b915080935050809150509295985092959850929598565b600060208284031215615147578081fd5b5051919050565b600080600080600060a08688031215615165578081fd5b61516e86614eb7565b945060208601519350604086015192506060860151915061519160808701614eb7565b90509295509295909350565b60008284528282602086013780602084860101526020601f19601f85011685010190509392505050565b6001600160a01b0391909116815260200190565b600060018060a01b03808a16835280891660208401525086604083015285606083015284608083015260c060a0830152613fa760c08301848661519d565b6001600160a01b0393841681526020810192909252909116604082015260600190565b6001600160a01b03948516815260208101939093529216604082015261ffff909116606082015260800190565b6001600160a01b039390931683526020830191909152604082015260600190565b600060018060a01b03871682528560208301528460408301526080606083015261247f60808301848661519d565b901515815260200190565b90815260200190565b918252602082015260400190565b93845260208401929092526040830152606082015260800190565b6020808252600c908201526b155b985d5d1a1bdc9a5e995960a21b604082015260600190565b6020808252601590820152740acc2ead8e840a6d0c2e4cae6409ad2e6dac2e8c6d605b1b604082015260600190565b602080825260049082015263135a5b9d60e21b604082015260600190565b60208082526006908201526552656465656d60d01b604082015260600190565b602080825260169082015275125b9cdd59999a58da595b9d081c995c185e5b595b9d60521b604082015260600190565b60208082526015908201527410d1ce881b9bc81b585c9ad95d1cc81b1a5cdd1959605a1b604082015260600190565b6020808252600d908201526c092dcecc2d8d2c840d2dcc8caf609b1b604082015260600190565b60208082526010908201526f496e76616c6964204d6174757269747960801b604082015260600190565b6020808252600c908201526b4d617820436170616369747960a01b604082015260600190565b6020808252600b908201526a139bdd0814d95d1d1b195960aa1b604082015260600190565b60208082526016908201527510d1ce881b585c9ad95d081a5b99195e08189bdd5b9960521b604082015260600190565b6020808252600f908201526e139bc8149bdb1b08105b1b1bddd959608a1b604082015260600190565b60208082526017908201527f496e73756666696369656e7420436f6c6c61746572616c000000000000000000604082015260600190565b60208082526017908201527f4d757374204c697175696461746520416c6c2044656274000000000000000000604082015260600190565b6020808252600c908201526b496e76616c6964207261746560a01b604082015260600190565b6020808252600e908201526d1499595b9d1c985b9d0818d85b1b60921b604082015260600190565b6020808252600d908201526c109bdc9c9bddc819985a5b1959609a1b604082015260600190565b6020808252600a90820152694d696e20426f72726f7760b01b604082015260600190565b6020808252600b908201526a092dcecc2d8d2c8408aa8960ab1b604082015260600190565b60208082526013908201527210d1ce881b9bc81b585c9ad95d08199bdd5b99606a1b604082015260600190565b6020808252600c908201526b21b0b73737ba1022b73a32b960a11b604082015260600190565b6020808252600b908201526a11985a5b19590813195b9960aa1b604082015260600190565b60208082526015908201527414dd59999a58da595b9d0810dbdb1b185d195c985b605a1b604082015260600190565b8151815260208083015190820152604080830151908201526060808301516001600160a01b0316908201526080918201519181019190915260a00190565b6001600160801b0391909116815260200190565b61ffff929092168252602082015260400190565b8381526080810160208083018560005b600281101561574257815183529183019190830190600101615725565b50505050826060830152949350505050565b9182521515602082015260400190565b928352602083019190915260408201526060019056fea2646970667358221220bb8b9679f8124c700abe6b8a1a1e121721773b75ad22f86e76ad67120338b84c64736f6c63430007060033","bytecodeSha1":"d04e239552d3396375fb1de2f5239eb57436c915","compiler":{"evm_version":"istanbul","optimizer":{"enabled":true,"runs":200},"version":"0.7.6+commit.7338295f"},"contractName":"VaultAccountAction","deployedBytecode":"60806040526004361061009c5760003560e01c80638246336711610064578063824633671461015e5780638da5cb5b1461017357806395c1a202146101885780639948315e1461019b578063c025d1a5146101bb578063c4c96dae146101e85761009c565b806324a3d622146100a1578063647cc196146100cc578063653b6104146100fc5780636ce48f011461011c578063803c25fb1461012f575b600080fd5b3480156100ad57600080fd5b506100b66101fd565b6040516100c391906151c7565b60405180910390f35b3480156100d857600080fd5b506100ec6100e7366004614ece565b61020c565b6040516100c394939291906152da565b61010f61010a366004615092565b6102f2565b6040516100c391906152c3565b61010f61012a366004614f8b565b6104c9565b34801561013b57600080fd5b5061014f61014a366004614ece565b610715565b6040516100c393929190615715565b34801561016a57600080fd5b506100b66107c6565b34801561017f57600080fd5b506100b66107d5565b61010f610196366004615022565b6107ec565b3480156101a757600080fd5b5061010f6101b6366004614ef7565b610954565b3480156101c757600080fd5b506101db6101d6366004614ece565b610bc6565b6040516100c391906156af565b3480156101f457600080fd5b506100b6610be1565b6002546001600160a01b031681565b600080600080600061021d86610bf9565b9050600061022b8888610c28565b9050600061023d888360200151610ca6565b90508260a00151955080604001511561025f576001600160ff1b0396506102e6565b6040820151825160009161027991869185918e9190610d41565b9098509050868812801561028d5750600081135b156102e45761029d838583610dc7565b5095506102e1633b9aca006102db6102b484610ed6565b6102db87604001516102d56102cc8b60c00151610ed6565b6102d58e610ed6565b90610eed565b90610f14565b94505b505b50505092959194509250565b60006002600a5414156103205760405162461bcd60e51b815260040161031790615570565b60405180910390fd5b6002600a5560006103308a610f33565b905061033e818c6010610f57565b610349816080610fc1565b15610354576001600a555b60006103608c8c610c28565b905061036d826001610fc1565b801561037f575061037f826002610fc1565b801561038e5750806020015142105b801561039d5750888160200151105b80156103a9575060008a115b6103c55760405162461bcd60e51b8152600401610317906154b3565b60006103d983600001518360200151610ca6565b905060006103f683846040015184610fd69092919063ffffffff16565b9050610415848361040a8660000151611035565b869291908d42611043565b8251156104345760405162461bcd60e51b81526004016103179061565b565b83516104419083906110d1565b89156104525761045283858c611245565b61046483858d8f8c8c8c88600061132c565b94508a8e6001600160a01b03168e6001600160a01b03167f67c1d09e65227d62b788f4c3e6ace545ac922034d69bd4aa45c53dec290275be8f6040516104aa91906152c3565b60405180910390a450506001600a5550909a9950505050505050505050565b60006002600a5414156104ee5760405162461bcd60e51b815260040161031790615570565b6002600a5560006104fe89610f33565b905061050c818b6008610f57565b610517816080610fc1565b15610522576001600a555b600061052e8b8b610c28565b9050428160200151116105dc576020810151600061054d8385426113cf565b90506000836080015113156105785761056f8b856040015185608001516114a5565b50600060808401525b61058784848d84868c8c61154e565b9450818d6001600160a01b03168d6001600160a01b03167fccd6b9aec297a77187bfaabfe7f98ac1dd313c796a73695dff89de0885dbb293886040516105cd91906152c3565b60405180910390a450506106da565b60006105f083600001518360200151610ca6565b905061060b83826106008b6115c5565b859291908b42611043565b600061061882848c610fd6565b90506000836080015113156106435761063a8b856040015185608001516114a5565b50600060808401525b801561066157815161065e90859085908e9085908c8c61154e565b94505b825160001315610676576106768483856115db565b83516106839083906110d1565b81600001518d6001600160a01b03168d6001600160a01b03167fea195c44d2295a1df0defe8210abb22b4a911b4379b9e30e764548ebee65c4208c8e8a6040516106cf93929190615764565b60405180910390a450505b80511580156106eb57506040810151155b156106f857600060208201525b6107028183611623565b50506001600a5598975050505050505050565b600061071f614c94565b60008061072a6117af565b6001600160a01b03878116600090815260209283526040808220928916825291835290812080546001600160501b03640100000000820481168852600160701b8204169387019390935263ffffffff909216955090915061078b8787610c28565b9050600061079d878360200151610ca6565b90506107b68260400151826117bc90919063ffffffff16565b9050809450505050509250925092565b6001546001600160a01b031681565b60005464010000000090046001600160a01b031681565b60006002600a5414156108115760405162461bcd60e51b815260040161031790615570565b6002600a5561081f89611816565b600061082a89610f33565b9050610838818b6004610f57565b610843816080610fc1565b1561084e576001600a555b610859816001610fc1565b6108755760405162461bcd60e51b815260040161031790615635565b8642106108945760405162461bcd60e51b815260040161031790615635565b60006108a08b8b610c28565b9050600081602001516000141580156108bd575042826020015111155b156108d0576108cd8284426113cf565b90505b60006108dd848e8d611865565b90506108f083858c8c8c8c8c898961132c565b9450898d6001600160a01b03168d6001600160a01b03167f7e1a5e400898c4bb3cfc62f61a71f4369ec78f0e778a31286892b7d2c0d044f28c60405161093691906152c3565b60405180910390a450506001600a5550909998505050505050505050565b60006002600a5414156109795760405162461bcd60e51b815260040161031790615570565b6002600a55600061098b89898961193e565b905060006109998a8a610c28565b905060006109ab8a8360200151610ca6565b9050816020015142106109bd57600080fd5b6000806109e1838e8660400151876000015189610d4190949392919063ffffffff16565b915091508460a001518212610a085760405162461bcd60e51b815260040161031790615680565b6000610a1b866040015161ffff16611a13565b9050610a2b8c8287898f87611a26565b6000610a66633b9aca006102db610a4186610ed6565b6102db8a604001516102d5610a598e60c00151610ed6565b6102d58e60800151610ed6565b6040870151909150610a789082611b0f565b60408701526080860151610160880151600091610a959190611b24565b9050610ab4888783610aaa8b60800151611035565b8b93929190611b57565b865160001215610ac357600087525b8f6001600160a01b03168f6001600160a01b03167f5b4676a4ed91c52fd6c4a759aec8a3561b67499c52870fc58000a8eb54fec3018484604051610b089291906152cc565b60405180910390a350610b1b8688611623565b8c6001600160a01b03168f6001600160a01b03168f6001600160a01b03167f01745a2fe0d7c484ea79432a82f950eac6916adc499a0223d2ebdadcdb210f2a848f604051610b6a929190615754565b60405180910390a48a15610b9c578651610b859086906110d1565b610b958d88838960200151611bc5565b9750610bae565b610bab8d8887848e8e88611c39565b97505b50506001600a5550939b9a5050505050505050505050565b610bce614cb2565b610bd88383610c28565b90505b92915050565b73__$7ac922d04bd7a1b42c7f6e5f1dd89a70af$__90565b610c01614cea565b610c0a82611cc7565b9050610c1d816040015161ffff16611e45565b610160820152919050565b610c30614cb2565b6000610c3a611e91565b6001600160a01b03948516600081815260209283526040808220969097168152948252858520546001600160501b038082168703865263ffffffff600160a01b83041693860193909352600160501b900490911694830194909452506060810192909252608082015290565b610cae614d67565b6000610cb8611e9e565b6001600160a01b03909416600090815260209485526040808220858352865280822094845284546001600160501b038082169093039685019690965260ff600160f01b870416151590840152600160501b8086048216608085015260019094015480821660a0850152600160a01b909504166060830152509104600990810b900b60c082015290565b600080610d5086888787611eab565b90506000610d6388878960000151611f10565b90506000610d89610d7d83610d7788611035565b90611ff8565b6101608b01519061200e565b90506000610d978483612039565b905081610dad576001600160ff1b039450610dba565b610db7818361204f565b94505b5050509550959350505050565b6000806000610de8633b9aca00866101200151611ff890919063ffffffff16565b90506000610e08610dfc8860000151611035565b6101608801519061200e565b9050610e3e610e248760c001518461203990919063ffffffff16565b610e3887610e328587612068565b90612039565b9061204f565b93506000610e4c8286612039565b90506000610e6c886060015189610160015161200e90919063ffffffff16565b9050610e788382612039565b945080821215610e86578295505b6000610ea988610ea38b60c001518a61208190919063ffffffff16565b906120cf565b9050633b9aca008112610ec95760c0890151610ec690899061204f565b96505b5050505050935093915050565b600080821215610ee557600080fd5b50805b919050565b600082610efc57506000610bdb565b82820282848281610f0957fe5b0414610bd857600080fd5b6000808211610f2257600080fd5b818381610f2b57fe5b049392505050565b610f3b614cea565b610f4482611cc7565b9050610c1d816040015161ffff16612100565b610f618382610fc1565b15610f945782516001600160a01b03163314610f8f5760405162461bcd60e51b8152600401610317906152f5565b610fbc565b6001600160a01b0382163314610fbc5760405162461bcd60e51b8152600401610317906152f5565b505050565b60209190910151811661ffff90811691161490565b8251602083015160009114610fea57600080fd5b6040830151610ff99083611b0f565b6040840152600061100a8584612116565b9250905061102561101a826115c5565b608086015190611ff8565b6080909401939093529392505050565b6000610bdb60001983612081565b85516000906110529085611ff8565b131561105d57600080fd5b8560200151811061106d57600080fd5b600061108a8660400151886020015186868a61010001518761216d565b9050806110ad576101608601516110aa906110a5908661200e565b611035565b90505b60008113156110bb57600080fd5b6110c88787878785611b57565b50505050505050565b60006110db611e9e565b6001600160a01b038316600090815260208281526040808320875184529091529081902090850151919250901561111157600080fd5b61112e6111296111248660200151611035565b610ed6565b61227c565b81546001600160501b0319166001600160501b039190911617815560808401516111579061227c565b81546001600160501b0391909116600160501b02600160501b600160a01b031990911617815560a084015161118b9061227c565b6001820180546001600160501b0319166001600160501b039290921691909117905560608401516111bb9061227c565b81546001600160501b0391909116600160a01b0269ffffffffffffffffffff60a01b1990911617815583516020850151608086015160a087015160608801516040516001600160a01b038916947f3a0fdaecf7b5da75a56077f5b1c8fbc88f9b08e9d0c4db31eb34e25bc6700cde9461123794919390926152da565b60405180910390a350505050565b60008061125184612292565b9092509050600060038260600151600581111561126a57fe5b14156112965734841461128f5760405162461bcd60e51b8152600401610317906155e3565b50346112bf565b6112bc6111248760600151876040015161ffff166112b3886115c5565b869291906122eb565b90505b60006004846060015160058111156112d357fe5b14156112e9576112e2826115c5565b9050611303565b811561130357604086015161130090859084612393565b90505b61131b611310858361248a565b608089015190611ff8565b608090970196909652505050505050565b6000878a60200151148061133f57508951155b61134857600080fd5b60006113588a600001518a610ca6565b9050871561137e576113798b8b838c6113736110a58e6115c5565b8c6124ba565b611395565b6113938a604001518a8c61010001514261254a565b505b6113a4818c8c87878b8b6125b9565b91506113b08b8b611623565b87156113c1576113c18a828d6115db565b509998505050505050505050565b6000806113e484600001518660200151610ca6565b905080604001516114075760405162461bcd60e51b81526004016103179061545e565b6000611420856040015161ffff168760200151866126e0565b905060006114476305f5e100610ea38560c001516114418760a001516115c5565b90612081565b905060006114588885898686612850565b9050600061146988868685876129f2565b60008b5260808b01519097509091506114829082611ff8565b60808a015250506000604088018190526020909701969096525090949350505050565b6000816114b457506000611547565b600082136114c157600080fd5b60006114d08461ffff16611a13565b905060006114de8285612c2a565b90506004826060015160058111156114f257fe5b1415611520576115196111246110a5888861ffff1661151086611035565b879291906122eb565b9250611544565b6115416111246110a58761ffff168961153886610ed6565b87929190612c62565b92505b50505b9392505050565b6000808760800151131561156157600080fd5b6115ad886040518060a001604052808a606001516001600160a01b03168152602001896001600160a01b031681526020018881526020018781526020018a608001518152508585612d02565b60006080909901989098525095979650505050505050565b60006001600160ff1b03821115610ee557600080fd5b60006115f68484846060015185604001518660000151610d41565b509050808460a00151131561161d5760405162461bcd60e51b8152600401610317906154dc565b50505050565b600061162d611e91565b60608401516001600160a01b0390811660009081526020838152604080832087519094168352929052206080850151919250901561166a57600080fd5b6060830151845161167a90611035565b12156116af578351158061169357506001846040015111155b6116af5760405162461bcd60e51b8152600401610317906155bf565b6116b883612f77565b1561171a5760006116c76117af565b60608601516001600160a01b03908116600090815260209283526040808220885190931682529183522080549187015190925063ffffffff9091169081148061170e575080155b61171757600080fd5b50505b61172d6111296111248660000151611035565b81546001600160501b0319166001600160501b039190911617815560408401516117569061227c565b81546001600160501b0391909116600160501b02600160501b600160a01b0319909116178155602084015161178a90612fa0565b815463ffffffff91909116600160a01b0263ffffffff60a01b19909116179055505050565b600080610bdb601a612fb3565b60008060008460600151111561180f576117eb84606001516102db866080015186610eed90919063ffffffff16565b915061180c84606001516102db8660a0015186610eed90919063ffffffff16565b90505b9250929050565b6001600160a01b03811661182957600080fd5b6001600160a01b03811630141561183f57600080fd5b600061184a82612fcc565b5050505061ffff1690508060001461186157600080fd5b5050565b60008161187457506000611547565b6000611887856040015161ffff16611a13565b9050600060048260600151600581111561189d57fe5b146118b8576118b3866040015161ffff16613038565b6118ba565b815b8651602082015191925090156118cf57600080fd5b6003826060015160058111156118e157fe5b141561191b578434146119065760405162461bcd60e51b8152600401610317906155e3565b611910813461304b565b349350505050611547565b815161192990878388613081565b849350505050611547565b5050509392505050565b611946614cea565b61194f83610f33565b905061195c816080610fc1565b15611967576001600a555b611972816020610fc1565b156119a457336001600160a01b0384161461199f5760405162461bcd60e51b8152600401610317906152f5565b6119cc565b336001600160a01b038316146119cc5760405162461bcd60e51b8152600401610317906152f5565b6001600160a01b03841633148015906119f75750816001600160a01b0316846001600160a01b031614155b6115475760405162461bcd60e51b8152600401610317906152f5565b611a1b614da6565b610bdb826000613109565b6000611a31836115c5565b9050600586606001516005811115611a4557fe5b1415611a6057611a5d846040015161ffff16826131b7565b90505b600080611a6e878786610dc7565b9150915060008213611a7f57600080fd5b6000611a8b8984612c2a565b905080841215611ac257611a9f8983612c2a565b8412611abd5760405162461bcd60e51b815260040161031790615513565b611ac6565b8093505b6040870151600090611ae0908b908d9061ffff16886122eb565b9050611afa611aef8b8361248a565b60808b015190611ff8565b60809099019890985250505050505050505050565b600082821115611b1e57600080fd5b50900390565b600080611b4f8460400151610ea36402540be400610ea387896020015161208190919063ffffffff16565b949350505050565b6080850151611b669082611ff8565b60808601528451611b779083611ff8565b80865260001215611b8757600080fd5b6020830151611b969083611ff8565b6020840181905260001215611baa57600080fd5b611bbd846000015185604001518461323e565b505050505050565b600080611bd6868660000151610c28565b9050806020015160001480611bee5750828160200151145b611c0a5760405162461bcd60e51b81526004016103179061531b565b602081018390526040810151611c209085613344565b6040820152611c2f8186611623565b5091949350505050565b60008080611c478888612116565b89519193509150611c5f908a908c9084908a8a613356565b8a51909450611c70915089906110d1565b8115611cba576000611caa6111246110a58c6040015161ffff168e611ca1611124611c9a8a6115c5565b8c90612c2a565b8a929190612c62565b9050611cb68482613344565b9350505b5050979650505050505050565b611ccf614cea565b6000611cd96133ad565b6001600160a01b03841660008181526020838152604091829020928652825461ffff808216928801929092526201000081049091169186019190915291925090611d3a9063ffffffff6401000000009091048116906305f5e1009061208116565b60608401528054611d5890600160501b900460ff166207a120610eed565b60808401528054611d7c9068010000000000000000900461ffff16620186a0610eed565b60a08401528054611d9b90600160701b900461ffff16620186a0610eed565b610120840152805460649060ff600160581b90910416633b9aca00020560c08401528054600160601b810460ff90811660e0860152600160681b909104166101008401526040805180820191829052906001830190600290826000855b82829054906101000a900461ffff1661ffff1681526020019060020190602082600101049283019260010382029150808411611df857905050505050508361014001819052505050919050565b611e4d614dd5565b6000806000611e5b856133ba565b604080516060810182526001600160a01b039093168352602083019390935260ff16600a0a918101919091529350505050919050565b600080610bdb6016612fb3565b600080610bdb6015612fb3565b600081611eba57506000611b4f565b600080611ec787856117bc565b915091506000611ee68760400151886000015188858c6000015161347b565b9050611f04611ef4846115c5565b610160890151610d77908461200e565b98975050505050505050565b6000611f1b84612f77565b15611547576000611f2a6117af565b6001600160a01b03808616600090815260209283526040808220895190931682529190925280822090870151909250611f669061ffff16613535565b82549091506001600160501b036401000000008204811691600160701b9004168115611fbd57611fba611fb3848a6101400151600060028110611fa557fe5b60200201518b518a87613698565b8690611ff8565b94505b8015611fed57611fea611fb3848a6101400151600160028110611fdc57fe5b60200201518b518a86613698565b94505b505050509392505050565b81810182811215600083121514610bdb57600080fd5b600080611b4f8460200151610ea386604001516114416402540be4008861208190919063ffffffff16565b80820382811315600083121514610bdb57600080fd5b6000610bd861206284633b9aca00612081565b836120cf565b6000610bd86120778484612081565b633b9aca006120cf565b8181026000198314156120b1578115806120a35750828282816120a057fe5b05145b6120ac57600080fd5b610bdb565b8215806120c65750818382816120c357fe5b05145b610bdb57600080fd5b6000816000191480156120e55750600160ff1b83145b156120ef57600080fd5b8183816120f857fe5b059392505050565b612108614dd5565b6000806000611e5b85613749565b60008061212384846117bc565b608086015191935091506121379083611b0f565b608085015260a084015161214b9082611b0f565b60a0850152606084015161215f9084611b0f565b606090940193909352929050565b60008061217c8888868661254a565b90506000612189876137ce565b90506affffffffffffffffffffff81106121a257600080fd5b600060788763ffffffff16901b609883901b60f085901b60f860008c136121ca5760016121cd565b60005b60058111156121d857fe5b60ff16901b17171760001b905073__$7ac922d04bd7a1b42c7f6e5f1dd89a70af$__63e50f349e8b836040518363ffffffff1660e01b815260040161221e929190615701565b60206040518083038186803b15801561223657600080fd5b505af415801561224a573d6000803e3d6000fd5b505050506040513d601f19601f8201168201806040525081019061226e9190615136565b9a9950505050505050505050565b60006001600160501b03821115610ee557600080fd5b61229a614da6565b6122a2614da6565b6122b3836040015161ffff16611a13565b91506004826060015160058111156122c757fe5b146122e2576122dd836040015161ffff16613038565b6122e4565b815b9050915091565b806005856060015160058111156122fe57fe5b141561232357600061230f84613038565b905061231f8160000151846137ef565b9250505b600082131561234f57600061233986868561387e565b9050856020015115612349578091505b50611b4f565b60038560600151600581111561236157fe5b141561237e576123798461237484611035565b61304b565b611b4f565b8451611b4f908561238e85611035565b613967565b6000806005856060015160058111156123a857fe5b146123ba576370a0823160e01b6123c3565b630ed1279f60e11b5b905060006123d6866000015130846139de565b90506005866060015160058111156123ea57fe5b14156124115760006123ff8661ffff16613038565b905061240b8186613af0565b5061245a565b60018660600151600581111561242357fe5b1415612438576124338685613b5b565b61245a565b60028660600151600581111561244a57fe5b141561009c576124338685613bfd565b600061246b876000015130856139de565b905061247f61247a8284613c50565b6115c5565b979650505050505050565b60006305f5e100836040015114156124a3575080610bdb565b6040830151610bd890610ea3846305f5e100612081565b600082126124c757600080fd5b60006124e086604001518585858a61010001514261216d565b9050600081136125025760405162461bcd60e51b815260040161031790615598565b61250f8787878685611b57565b865161251a90611035565b8660600151131561253d5760405162461bcd60e51b8152600401610317906155bf565b6110c88688838742613ca7565b600080600061255c8761ffff16613da2565b905061256c8160ff168786613db8565b9093509150848311156125915760405162461bcd60e51b81526004016103179061540e565b81156125af5760405162461bcd60e51b81526004016103179061540e565b5050949350505050565b600087608001516000146125cc57600080fd5b6000876080015112156125de57600080fd5b875160208801511015612606576040870151156125fa57600080fd5b87516020880152612617565b875160208801511461261757600080fd5b600085156126325761262f8989888a60000151613e80565b90505b606088015160808901518a5160009261264f928b928a8a8a613efe565b905061266b6126648b8b848c60000151613e80565b8390613344565b915088606001516001600160a01b03168a6000015189600001516001600160a01b03167ff0b1fff1c6815d2739f7cb03adbb99177a10daae11921a3ae1712f20ea52eb9a898d608001518c886040516126c794939291906152da565b60405180910390a4600060808a015261226e8782613344565b6126e8614dd5565b6000806126f58686613fb4565b91509150816000141561282557600061270d87613749565b91945090925090506001600160a01b0381161561282357600061272e613ffd565b90508560001080156127405750858711155b8015612751575064ffffffffff8611155b61275a57600080fd5b83600012801561277157506001600160801b038413155b61277a57600080fd5b6000888152602082815260408083208a845290915290819020805464ffffffffff191664ffffffffff89161774ffffffffffffffffffffffffffffffff00000000001916650100000000006001600160801b038816021760ff60a81b1916600160a81b60ff871602178155905188908a907f0fdfa6885701e2f1f42e4187b9231cf81c1fe23671ef64fa46f34ddb56c1dc18906128189089906156ed565b60405180910390a350505b505b6040805160608101825260008152602081019390935260ff909116600a0a9082015290509392505050565b60008061287461286d61286688608001516115c5565b8690611b24565b8490611ff8565b905061287f85612f77565b1561299357600061288e6117af565b60608901516001600160a01b039081166000908152602092835260408082208a519093168252919092528120875189516101408a015151835493955084936128e99392919064010000000090046001600160501b031661400a565b90925090506128f88483611ff8565b93506129048582612039565b88518a516101408b015160200151865493985061293093600160701b90046001600160501b031661400a565b909250905061293f8483611ff8565b935061294b8582612039565b94506129556117af565b60608b01516001600160a01b039081166000908152602092835260408082208c51909316825291909252902080546001600160c01b03191690555050505b6129c66129bf8860000151610d776129ae8a606001516115c5565b610ea3866114418e604001516115c5565b8390611ff8565b915060008212156129e8576129de611310858461200e565b6080880152600091505b5095945050505050565b6000806000612a1e612a1188602001518861200e90919063ffffffff16565b610d7789608001516115c5565b90506000612a3085610d778985611b24565b90508015612a6957612a5661112482610ea3612a4f8c60a001516115c5565b8a90612081565b9250612a6681610ea38885612081565b93505b50506000612a7561409e565b88516001600160a01b03166000908152602091825260408082208a5183529092522080549091506001600160501b03811690600160501b9004600990810b900b83821015612af257612ae5611fb3612ade6305f5e100610ea38d60c00151611441888b036115c5565b8a9061200e565b9450909250600090612af8565b83820391505b82546001600160501b0319166001600160501b0383161783556000851215612b1f57600080fd5b84811215612b92576000808213612b365785612b3a565b8186035b90506000612b568c600001518d60400151848e600001516140ab565b90506000831315612b8757612b6b8382611ff8565b8554600160501b600160a01b0319168655965060009250612b8b565b8096505b5050612bd1565b612b9c8186612039565b9050612ba7816141d3565b835460099190910b6001600160501b0316600160501b02600160501b600160a01b03199091161783555b88600001518a600001516001600160a01b03167ff5b347a56f0b5140f05eec05ff743978670a56685689fdc2c3193d71cfac31a98385604051612c159291906152cc565b60405180910390a35050509550959350505050565b60006305f5e10083604001511415612c43575080610bdb565b610bd86305f5e100610ea385604001518561208190919063ffffffff16565b600080600286606001516005811115612c7757fe5b1415612c8f57612c88868585614203565b9050612cec565b6000612c9a86613038565b9050600587606001516005811115612cae57fe5b1415612cc657612cbf8186866142c0565b9150612cea565b600187606001516005811115612cd857fe5b141561009c57612cbf87828787614371565b505b612cf86110a5826115c5565b9695505050505050565b600080600080612d1188612292565b9150915060008088608001511215612d8657600483606001516005811115612d3557fe5b1415612d5257612d4b6111248960800151611035565b9050612d86565b6000612d736110a58a608001518c6101600151611b2490919063ffffffff16565b9050612d82611124848361446f565b9150505b604088015160009015612e5e576000612d9f84306144ab565b90508a600001516001600160a01b03166344f051088b600001518c602001518d604001518e60600151888f8f6040518863ffffffff1660e01b8152600401612ded97969594939291906151db565b602060405180830381600087803b158015612e0757600080fd5b505af1158015612e1b573d6000803e3d6000fd5b505050506040513d601f19601f82011682018060405250810190612e3f9190615136565b95506000612e4d85306144ab565b9050612e598183611b0f565b925050505b81811015612ef957808203600384606001516005811115612e7b57fe5b1415612eb95734811115612ea15760405162461bcd60e51b815260040161031790615388565b612eb18a6000015182340361304b565b829150612ef7565b6000612ede8b600001518d6040015161ffff16612ed5856115c5565b889291906122eb565b9050612ef3612eec82610ed6565b8490613344565b9250505b505b81811015612f195760405162461bcd60e51b815260040161031790615388565b6000600485606001516005811115612f2d57fe5b1415612f4357612f3c826115c5565b9050612f5d565b8115612f5d5760408b0151612f5a90869084612393565b90505b612f67858261248a565b9650505050505094509492505050565b6101408101515160009061ffff16151580610bdb57505061014001516020015161ffff16151590565b600063ffffffff821115610ee557600080fd5b6000620f424082601a811115612fc557fe5b0192915050565b600080600080600080612fdd614555565b6001600160a01b039097166000908152602097909752505060409094205461ffff81169563ffffffff620100008304811696506601000000000000830416945060ff600160501b8304169350600160581b90910460d81b9150565b613040614da6565b610bdb826001613109565b6040516001600160a01b0383169082156108fc029083906000818181858888f19350505050158015610fbc573d6000803e3d6000fd5b836001600160a01b03166323b872dd8484846040518463ffffffff1660e01b815260040180846001600160a01b03168152602001836001600160a01b031681526020018281526020019350505050600060405180830381600087803b1580156130e957600080fd5b505af11580156130fd573d6000803e3d6000fd5b5050505061161d614562565b613111614da6565b600061311b6145cf565b6000858152602082815260408083208715158452825291829020825160a08101845281546001600160a01b038116825260ff600160a01b82048116151594830194909452600160b01b81048416600a0a9482019490945293945092916060830191600160a81b90910416600581111561319057fe5b81529154600160b81b900468ffffffffffffffffff16602090920191909152949350505050565b6000816131c657506000610bdb565b600082136131d357600080fd5b60006131de84613038565b905060006131ef82600001516145dc565b9050600281056b033b2e3c9fd0803ce80000006001600160ff1b038290030585131561321a57600080fd5b81816b033b2e3c9fd0803ce80000008702018161323357fe5b059695505050505050565b600080613249614667565b6001600160a01b03861660009081526020918252604080822061ffff8816835290925220805490915061328c90600160501b90046001600160501b031684612039565b915060008312156132c15780546001600160501b03168213156132c15760405162461bcd60e51b815260040161031790615438565b6132cd61112983610ed6565b81546001600160501b0391909116600160501b02600160501b600160a01b031990911617815560405161ffff8516906001600160a01b038716907f20478ef460e49d010960d4f3fff35d8dae385443abfac09035d6a2ccbcd834c4906133349086906152c3565b60405180910390a3509392505050565b600082820183811015610bd857600080fd5b60008061339e886040518060a001604052808a6001600160a01b031681526020018a6001600160a01b0316815260200189815260200188815260200160008152508686612d02565b90999098509650505050505050565b600080610bdb6014612fb3565b60008060008060006133cb86614674565b909250905060006001600160a01b0383166133f05750600090506402540be400613470565b826001600160a01b031663b2fffb046040518163ffffffff1660e01b815260040160206040518083038186803b15801561342957600080fd5b505afa15801561343d573d6000803e3d6000fd5b505050506040513d601f19601f820116820180604052508101906134619190615136565b90506000811361347057600080fd5b969195509350915050565b60008061348b8761ffff16613038565b90508060400151600014156134aa576134a78761ffff16611a13565b90505b60405163e937711160e01b815261247f906001600160a01b0388169063e9377111906134de90899089908990600401615269565b60206040518083038186803b1580156134f657600080fd5b505afa15801561350a573d6000803e3d6000fd5b505050506040513d601f19601f8201168201806040525081019061352e9190615136565b829061248a565b61353d614dff565b60006135476146ab565b60008481526020829052604081209192508060018614156135745750670de0b6b3a764000090508061364a565b825460408051633fabe5a360e21b815290516001600160a01b039092169163feaf968c9160048082019260a092909190829003018186803b1580156135b857600080fd5b505afa1580156135cc573d6000803e3d6000fd5b505050506040513d601f19601f820116820180604052508101906135f0919061514e565b509193505060008313915061361990505760405162461bcd60e51b81526004016103179061554a565b825460ff600160a01b82048116600a0a9350600160a81b909104161561364a5761364781610ea38480612081565b90505b6040805160a0810182529283526020830191909152915460ff600160b01b8204811693830193909352600160b81b810483166060830152600160c01b90049091166080820152915050919050565b6000806136a36146b8565b6001600160a01b038616600090815260209182526040808220878352835280822061ffff8a16835290925290812080549092506001600160501b0380821692600160501b90920416906136fd61247a836102db8987610eed565b9050600061370e8a61ffff16613535565b9050600061371c8c836146c5565b905061373981610ea38e600001518661208190919063ffffffff16565b9c9b505050505050505050505050565b600080600080600061375a86614674565b909250905060006001600160a01b03831661377f5750600090506402540be400613470565b826001600160a01b0316631ee108336040518163ffffffff1660e01b8152600401602060405180830381600087803b1580156137ba57600080fd5b505af115801561343d573d6000803e3d6000fd5b6000808212156137e8576137e182611035565b9050610ee8565b5080610ee8565b6000816137fe57506000610bdb565b6000613809846145dc565b90506000613816846137ce565b9050816b019d971e4fe8401e74000001600160ff1b038161383357fe5b0581131561384057600080fd5b6b033b2e3c9fd0803ce80000006b019d971e4fe8401e740000008383020105600085136138755761387081611035565b612cf8565b95945050505050565b600080808060058760600151600581111561389557fe5b146138a7576370a0823160e01b6138b0565b630ed1279f60e11b5b90508660200151156138cc5786516138c99030836139de565b92505b86516138d99087876146ea565b8660200151806138ed575060008760800151115b156139025786516138ff9030836139de565b91505b60808701511561393d5760006139208861391b856115c5565b61248a565b905061392f88608001516115c5565b81131561393b57600080fd5b505b86602001511561395e5761395461247a8385613c50565b9350505050611547565b613954856115c5565b826001600160a01b031663a9059cbb83836040518363ffffffff1660e01b815260040180836001600160a01b0316815260200182815260200192505050600060405180830381600087803b1580156139be57600080fd5b505af11580156139d2573d6000803e3d6000fd5b50505050610fbc614562565b604080516001600160a01b0384811660248084019190915283518084039091018152604490920183526020820180516001600160e01b03166001600160e01b0319861617815292518251600094859485948a16939092909182918083835b60208310613a5b5780518252601f199092019160209182019101613a3c565b6001836020036101000a038019825116818451168082178552505050505050905001915050600060405180830381855afa9150503d8060008114613abb576040519150601f19603f3d011682016040523d82523d6000602084013e613ac0565b606091505b509150915081613acf57600080fd5b808060200190516020811015613ae457600080fd5b50519695505050505050565b613af8614742565b54825160405163e8eda9df60e01b81526001600160a01b039092169163e8eda9df91613b2d918590309060009060040161523c565b600060405180830381600087803b158015613b4757600080fd5b505af1158015611bbd573d6000803e3d6000fd5b815160405163140e25ad60e31b81526000916001600160a01b03169063a0712d6890613b8b9085906004016152c3565b602060405180830381600087803b158015613ba557600080fd5b505af1158015613bb9573d6000803e3d6000fd5b505050506040513d601f19601f82011682018060405250810190613bdd9190615136565b90508015610fbc5760405162461bcd60e51b81526004016103179061534a565b81600001516001600160a01b0316631249c58b826040518263ffffffff1660e01b81526004016000604051808303818588803b158015613c3c57600080fd5b505af11580156110c8573d6000803e3d6000fd5b600082821115611b1e576040805162461bcd60e51b815260206004820152601e60248201527f536166654d6174683a207375627472616374696f6e206f766572666c6f770000604482015290519081900360640190fd5b6000613ccc6301da9c00610ea3613cc161247a8787611b0f565b60808a015190612081565b90506000613cda8583612068565b90506000613cfa6064610ea38a60e001518561208190919063ffffffff16565b90506000613d088383612039565b9050613d1c896040015161ffff168361474f565b613d2e896040015161ffff16826147d6565b6080880151613d3d9084612039565b88608001818152505085896040015161ffff168a600001516001600160a01b03167f7456cb4b7c3068832fb334a03d3cd8e440286bad834cb9e332df05ae6792cfbb8585604051613d8f9291906152cc565b60405180910390a4505050505050505050565b600080613dae83614822565b60ff169392505050565b60008060008511613ddb5760405162461bcd60e51b8152600401610317906153b8565b6007851115613dfc5760405162461bcd60e51b815260040161031790615483565b6000613e078461483f565b905060015b868111613e5f576000613e28613e218361485d565b8490614901565b905086811415613e405750925060009150613e789050565b86811115613e565750925060019150613e789050565b50600101613e0c565b5060405162461bcd60e51b815260040161031790615608565b935093915050565b60008460a0015160001415613e96575081613eb8565b613eb58560a001516102db876060015186610eed90919063ffffffff16565b90505b60a0850151613ec79084613344565b60a08601526060850151613edb9082613344565b60608601526040840151613eef9082613344565b6040850152611b4f85836110d1565b600080613f1489600001518a60400151896114a5565b89519091506001600160a01b031663dc6679c589613f328489613344565b8988886040518663ffffffff1660e01b8152600401613f5595949392919061528a565b602060405180830381600087803b158015613f6f57600080fd5b505af1158015613f83573d6000803e3d6000fd5b505050506040513d601f19601f82011682018060405250810190613fa79190615136565b9998505050505050505050565b6000806000613fc1613ffd565b6000958652602090815260408087209587529490525050509020546501000000000081046001600160801b031691600160a81b90910460ff1690565b600080610bdb6008612fb3565b60008061ffff841661402157506000905080614095565b600061402b6146b8565b6001600160a01b038816600090815260209182526040808220898352835280822061ffff891683529092522080549091506001600160501b03600160a01b8204811691600160501b90041685156140905761408d61247a826102db8986610eed565b93505b509250505b94509492505050565b600080610bdb6019612fb3565b60006140b885600061495b565b846001600160a01b03167f7c51c6aa77346c54cb051d9e792f9b7bde5c28a9b57e6fb2d2dd727b38438ca960006040516140f291906152b8565b60405180910390a2818461ffff16866001600160a01b03167f823b641d46550301006f807a26587634f15bd13749efdc8859734377d5304a3b8660405161413991906152c3565b60405180910390a4600061415260008661ffff166149bb565b50505090508084136141725761416a85858303614a64565b8391506141ca565b61417d856000614a64565b828561ffff16876001600160a01b03167f3a717b6924e3ad05b8c7609a2401472af90869b52cc3c9ca69b50100b4be63168488036040516141be91906152c3565b60405180910390a48091505b50949350505050565b6000697fffffffffffffffffff1982128015906141fa5750697fffffffffffffffffff8213155b610ee557600080fd5b825160405163db006a7560e01b8152600091479183916001600160a01b03169063db006a75906142379087906004016152c3565b602060405180830381600087803b15801561425157600080fd5b505af1158015614265573d6000803e3d6000fd5b505050506040513d601f19601f820116820180604052508101906142899190615136565b905080156142a95760405162461bcd60e51b815260040161031790615368565b476142b48184613c50565b9350611934868561304b565b60006142db61112485600001516142d6856115c5565b6137ef565b90506142e5614742565b548451604051631a4ca37b60e21b81526001600160a01b03909216916369328dec916143179185908890600401615219565b602060405180830381600087803b15801561433157600080fd5b505af1158015614345573d6000803e3d6000fd5b505050506040513d601f19601f820116820180604052508101906143699190615136565b509392505050565b8251600090819061438a90306370a0823160e01b6139de565b9050600086600001516001600160a01b031663db006a75856040518263ffffffff1660e01b81526004016143be91906152c3565b602060405180830381600087803b1580156143d857600080fd5b505af11580156143ec573d6000803e3d6000fd5b505050506040513d601f19601f820116820180604052508101906144109190615136565b905080156144305760405162461bcd60e51b815260040161031790615368565b855160009061444790306370a0823160e01b6139de565b90506144538184613c50565b935061446487600001518786613967565b505050949350505050565b60006305f5e10083604001511215614497576144906001610d778585612c2a565b9050610bdb565b610bd8836144a6846001611ff8565b612c2a565b60006003836060015160058111156144bf57fe5b14156144d657506001600160a01b03811631610bdb565b82516040516370a0823160e01b81526001600160a01b03909116906370a08231906145059085906004016151c7565b60206040518083038186803b15801561451d57600080fd5b505afa158015614531573d6000803e3d6000fd5b505050506040513d601f19601f820116820180604052508101906144909190615136565b600080610bdb6002612fb3565b600061456c614e2e565b3d8015614580576020811461458957600080fd5b60019250614594565b60206000833e815192505b5081611861576040805162461bcd60e51b8152602060048201526005602482015264045524332360dc1b604482015290519081900360640190fd5b600080610bdb6007612fb3565b6000610bdb6145e9614742565b5460405163d15e005360e01b81526001600160a01b039091169063d15e0053906146179086906004016151c7565b60206040518083038186803b15801561462f57600080fd5b505afa158015614643573d6000803e3d6000fd5b505050506040513d601f19601f8201168201806040525081019061247a9190615136565b600080610bdb6017612fb3565b6000806000614681614ac7565b600094855260205250506040909120546001600160a01b03811692600160a01b90910460ff169150565b600080610bdb6010612fb3565b600080610bdb6018612fb3565b6000610bd88260200151610ea38460000151866020015161208190919063ffffffff16565b604080516323b872dd60e01b81526001600160a01b038481166004830152306024830152604482018490529151918516916323b872dd9160648082019260009290919082900301818387803b1580156139be57600080fd5b600080610bdb6013612fb3565b600081121561475d57600080fd5b600061476a6000846149bb565b50505090506147828282611ff890919063ffffffff16565b9050614795600084836000806000614ad4565b8261ffff167f85170c297762884f47ec6098b74925c795e6d33686b11019b400e33a9b23b5e9836040516147c991906152c3565b60405180910390a2505050565b60008112156147e457600080fd5b60006147ef83614c1b565b905060006147fd82856149bb565b50505090506148158382611ff890919063ffffffff16565b905061161d828583614c41565b60008061482d614c5f565b60009384526020525050604090205490565b60006276a70082101561485157600080fd5b506276a7008106900390565b6000816001141561487257506276a700610ee8565b8160021415614885575062ed4e00610ee8565b816003141561489957506301da9c00610ee8565b81600414156148ad57506303b53800610ee8565b81600514156148c157506309450c00610ee8565b81600614156148d5575063128a1800610ee8565b81600714156148e957506325143000610ee8565b60405162461bcd60e51b8152600401610317906153e7565b600082820183811015610bd8576040805162461bcd60e51b815260206004820152601b60248201527f536166654d6174683a206164646974696f6e206f766572666c6f770000000000604482015290519081900360640190fd5b60006149656133ad565b6001600160a01b038416600090815260208290526040902080549192509061ffff1683156149a457815461ffff19166001821761ffff161782556149b4565b815461ffff191661fffe82161782555b5050505050565b60008060008060006149cb614c6c565b6001600160a01b0388166000908152602082815260408083208a8452909152902080546001600160501b0381169650600160501b900463ffffffff1694509091508315614a34578054614a2d90600160701b900466ffffffffffffff16614c79565b9250614a49565b8054600160701b900466ffffffffffffff1692505b54600160a81b9004600a90810b900b97939650919450925050565b6000811215614a7257600080fd5b614a8760008361ffff16836000806000614ad4565b8161ffff167fd3625f7b5926828151efe19f7ae655488287357d99ebe67e5fb20522ca739c0b82604051614abb91906152c3565b60405180910390a25050565b600080610bdb600f612fb3565b6000614ade614c6c565b6001600160a01b0388166000908152602082815260408083208a845290915290209091506a7fffffffffffffffffffff198612801590614b2957506a7fffffffffffffffffffff8613155b614b3257600080fd5b60008512158015614b4a57506001600160501b038513155b614b5357600080fd5b83614b935766ffffffffffffff831115614b6c57600080fd5b805466ffffffffffffff60701b1916600160701b66ffffffffffffff851602178155614bad565b8054600160501b900463ffffffff168414614bad57600080fd5b8054600a9690960b6affffffffffffffffffffff16600160a81b026001600160a81b036001600160501b039096166001600160501b031963ffffffff909616600160501b0263ffffffff60501b19909816979097179490941695909517939093169190911790925550505050565b600080614c26614c87565b6000938452602052505060409020546001600160a01b031690565b6000811215614c4f57600080fd5b610fbc8383836000806000614ad4565b600080610bdb6009612fb3565b600080610bdb6006612fb3565b600881901c60ff9091161b90565b600080610bdb6003612fb3565b60405180604001604052806002906020820280368337509192915050565b6040518060a0016040528060008152602001600081526020016000815260200160006001600160a01b03168152602001600081525090565b60405180610180016040528060006001600160a01b03168152602001600061ffff168152602001600061ffff16815260200160008152602001600081526020016000815260200160008152602001600081526020016000815260200160008152602001614d55614c94565b8152602001614d62614dd5565b905290565b6040518060e001604052806000815260200160008152602001600015158152602001600081526020016000815260200160008152602001600081525090565b6040805160a0810182526000808252602082018190529181018290529060608201908152602001600081525090565b604051806060016040528060006001600160a01b0316815260200160008152602001600081525090565b6040518060a0016040528060008152602001600081526020016000815260200160008152602001600081525090565b60405180602001604052806001906020820280368337509192915050565b80356001600160a01b0381168114610ee857600080fd5b60008083601f840112614e74578182fd5b50813567ffffffffffffffff811115614e8b578182fd5b60208301915083602082850101111561180f57600080fd5b803563ffffffff81168114610ee857600080fd5b80516001600160501b0381168114610ee857600080fd5b60008060408385031215614ee0578182fd5b614ee983614e4c565b915061180c60208401614e4c565b600080600080600080600060c0888a031215614f11578283fd5b614f1a88614e4c565b9650614f2860208901614e4c565b9550614f3660408901614e4c565b94506060880135935060808801358015158114614f51578384fd5b925060a088013567ffffffffffffffff811115614f6c578283fd5b614f788a828b01614e63565b989b979a50959850939692959293505050565b60008060008060008060008060e0898b031215614fa6578081fd5b614faf89614e4c565b9750614fbd60208a01614e4c565b9650614fcb60408a01614e4c565b95506060890135945060808901359350614fe760a08a01614ea3565b925060c089013567ffffffffffffffff811115615002578182fd5b61500e8b828c01614e63565b999c989b5096995094979396929594505050565b60008060008060008060008060e0898b03121561503d578384fd5b61504689614e4c565b975061505460208a01614e4c565b965060408901359550606089013594506080890135935061507760a08a01614ea3565b925060c089013567ffffffffffffffff811115615002578283fd5b60008060008060008060008060006101008a8c0312156150b0578081fd5b6150b98a614e4c565b98506150c760208b01614e4c565b975060408a0135965060608a0135955060808a013594506150ea60a08b01614ea3565b93506150f860c08b01614ea3565b925060e08a013567ffffffffffffffff811115615113578182fd5b61511f8c828d01614e63565b915080935050809150509295985092959850929598565b600060208284031215615147578081fd5b5051919050565b600080600080600060a08688031215615165578081fd5b61516e86614eb7565b945060208601519350604086015192506060860151915061519160808701614eb7565b90509295509295909350565b60008284528282602086013780602084860101526020601f19601f85011685010190509392505050565b6001600160a01b0391909116815260200190565b600060018060a01b03808a16835280891660208401525086604083015285606083015284608083015260c060a0830152613fa760c08301848661519d565b6001600160a01b0393841681526020810192909252909116604082015260600190565b6001600160a01b03948516815260208101939093529216604082015261ffff909116606082015260800190565b6001600160a01b039390931683526020830191909152604082015260600190565b600060018060a01b03871682528560208301528460408301526080606083015261247f60808301848661519d565b901515815260200190565b90815260200190565b918252602082015260400190565b93845260208401929092526040830152606082015260800190565b6020808252600c908201526b155b985d5d1a1bdc9a5e995960a21b604082015260600190565b6020808252601590820152740acc2ead8e840a6d0c2e4cae6409ad2e6dac2e8c6d605b1b604082015260600190565b602080825260049082015263135a5b9d60e21b604082015260600190565b60208082526006908201526552656465656d60d01b604082015260600190565b602080825260169082015275125b9cdd59999a58da595b9d081c995c185e5b595b9d60521b604082015260600190565b60208082526015908201527410d1ce881b9bc81b585c9ad95d1cc81b1a5cdd1959605a1b604082015260600190565b6020808252600d908201526c092dcecc2d8d2c840d2dcc8caf609b1b604082015260600190565b60208082526010908201526f496e76616c6964204d6174757269747960801b604082015260600190565b6020808252600c908201526b4d617820436170616369747960a01b604082015260600190565b6020808252600b908201526a139bdd0814d95d1d1b195960aa1b604082015260600190565b60208082526016908201527510d1ce881b585c9ad95d081a5b99195e08189bdd5b9960521b604082015260600190565b6020808252600f908201526e139bc8149bdb1b08105b1b1bddd959608a1b604082015260600190565b60208082526017908201527f496e73756666696369656e7420436f6c6c61746572616c000000000000000000604082015260600190565b60208082526017908201527f4d757374204c697175696461746520416c6c2044656274000000000000000000604082015260600190565b6020808252600c908201526b496e76616c6964207261746560a01b604082015260600190565b6020808252600e908201526d1499595b9d1c985b9d0818d85b1b60921b604082015260600190565b6020808252600d908201526c109bdc9c9bddc819985a5b1959609a1b604082015260600190565b6020808252600a90820152694d696e20426f72726f7760b01b604082015260600190565b6020808252600b908201526a092dcecc2d8d2c8408aa8960ab1b604082015260600190565b60208082526013908201527210d1ce881b9bc81b585c9ad95d08199bdd5b99606a1b604082015260600190565b6020808252600c908201526b21b0b73737ba1022b73a32b960a11b604082015260600190565b6020808252600b908201526a11985a5b19590813195b9960aa1b604082015260600190565b60208082526015908201527414dd59999a58da595b9d0810dbdb1b185d195c985b605a1b604082015260600190565b8151815260208083015190820152604080830151908201526060808301516001600160a01b0316908201526080918201519181019190915260a00190565b6001600160801b0391909116815260200190565b61ffff929092168252602082015260400190565b8381526080810160208083018560005b600281101561574257815183529183019190830190600101615725565b50505050826060830152949350505050565b9182521515602082015260400190565b928352602083019190915260408201526060019056fea2646970667358221220bb8b9679f8124c700abe6b8a1a1e121721773b75ad22f86e76ad67120338b84c64736f6c63430007060033","language":"Solidity","natspec":{"kind":"dev","methods":{"deleverageAccount(address,address,address,uint256,bool,bytes)":{"notice":"If an account is below the minimum collateral ratio, this method wil deleverage (liquidate) that account. `depositAmountExternal` in the borrow currency will be transferred from the liquidator and used to offset the account's debt position. The liquidator will receive either vaultShares or cash depending.","params":{"account":"the address that will exit the vault","depositAmountExternal":"amount of asset cash to deposit","liquidator":"the address that will receive profits from liquidation","redeemData":"calldata sent to the vault when redeeming liquidator profits","transferSharesToLiquidator":"transfers the shares to the liquidator instead of redeeming them","vault":"the vault to enter"},"returns":{"profitFromLiquidation":"amount of vaultShares or cash received from liquidation"}},"enterVault(address,address,uint256,uint256,uint256,uint32,bytes)":{"notice":"Borrows a specified amount of fCash in the vault's borrow currency and deposits it all plus the depositAmountExternal into the vault to mint strategy tokens.","params":{"account":"the address that will enter the vault","depositAmountExternal":"some amount of additional collateral in the borrowed currency to be transferred to vault","fCash":"amount to borrow","maturity":"the maturity to borrow at","maxBorrowRate":"maximum interest rate to borrow at","vault":"the vault to enter","vaultData":"additional data to pass to the vault contract"},"returns":{"strategyTokensAdded":"the total strategy tokens added to the maturity, including any tokens from settlement. Allows enterVault to be used by off-chain methods to get an accurate simulation of the strategy tokens minted."}},"exitVault(address,address,address,uint256,uint256,uint32,bytes)":{"notice":"Prior to maturity, allows an account to withdraw their position from the vault. Will redeem some number of vault shares to the borrow currency and close the borrow position by lending `fCashToLend`. Any shortfall in cash from lending will be transferred from the account, any excess profits will be transferred to the account. Post maturity, will net off the account's debt against vault cash balances and redeem all remaining strategy tokens back to the borrowed currency and transfer the profits to the account.","params":{"account":"the address that will exit the vault","exitVaultData":"passed to the vault during exit","fCashToLend":"amount of fCash to lend","minLendRate":"the minimum rate to lend at","receiver":"the address that will receive profits","vault":"the vault to enter","vaultSharesToRedeem":"amount of vault tokens to exit, only relevant when exiting pre-maturity"},"returns":{"underlyingToReceiver":"amount of underlying tokens returned to the receiver on exit"}},"getVaultAccount(address,address)":{"notice":"View Methods *"},"rollVaultPosition(address,address,uint256,uint256,uint256,uint32,uint32,bytes)":{"notice":"Re-enters the vault at a longer dated maturity. The account's existing borrow position will be closed and a new borrow position at the specified maturity will be opened. Strategy token holdings will transfer to the longer dated maturity.","params":{"account":"the address that will reenter the vault","depositAmountExternal":"amount to deposit into the new maturity","fCashToBorrow":"amount of fCash to borrow in the next maturity","maturity":"new maturity to borrow at","maxBorrowRate":"slippage protection for new borrow position","minLendRate":"slippage protection for repaying debts","vault":"the vault to reenter"},"returns":{"strategyTokensAdded":"the total strategy tokens added to the maturity, including any tokens rolled from the previous maturity.. Allows rollVaultPosition to be used by off-chain methods to get an accurate simulation of the strategy tokens minted."}}},"version":1},"opcodes":"PUSH1 0x80 PUSH1 0x40 MSTORE PUSH1 0x4 CALLDATASIZE LT PUSH2 0x9C JUMPI PUSH1 0x0 CALLDATALOAD PUSH1 0xE0 SHR DUP1 PUSH4 0x82463367 GT PUSH2 0x64 JUMPI DUP1 PUSH4 0x82463367 EQ PUSH2 0x15E JUMPI DUP1 PUSH4 0x8DA5CB5B EQ PUSH2 0x173 JUMPI DUP1 PUSH4 0x95C1A202 EQ PUSH2 0x188 JUMPI DUP1 PUSH4 0x9948315E EQ PUSH2 0x19B JUMPI DUP1 PUSH4 0xC025D1A5 EQ PUSH2 0x1BB JUMPI DUP1 PUSH4 0xC4C96DAE EQ PUSH2 0x1E8 JUMPI PUSH2 0x9C JUMP JUMPDEST DUP1 PUSH4 0x24A3D622 EQ PUSH2 0xA1 JUMPI DUP1 PUSH4 0x647CC196 EQ PUSH2 0xCC JUMPI DUP1 PUSH4 0x653B6104 EQ PUSH2 0xFC JUMPI DUP1 PUSH4 0x6CE48F01 EQ PUSH2 0x11C JUMPI DUP1 PUSH4 0x803C25FB EQ PUSH2 0x12F JUMPI JUMPDEST PUSH1 0x0 DUP1 REVERT JUMPDEST CALLVALUE DUP1 ISZERO PUSH2 0xAD JUMPI PUSH1 0x0 DUP1 REVERT JUMPDEST POP PUSH2 0xB6 PUSH2 0x1FD JUMP JUMPDEST PUSH1 0x40 MLOAD PUSH2 0xC3 SWAP2 SWAP1 PUSH2 0x51C7 JUMP JUMPDEST PUSH1 0x40 MLOAD DUP1 SWAP2 SUB SWAP1 RETURN JUMPDEST CALLVALUE DUP1 ISZERO PUSH2 0xD8 JUMPI PUSH1 0x0 DUP1 REVERT JUMPDEST POP PUSH2 0xEC PUSH2 0xE7 CALLDATASIZE PUSH1 0x4 PUSH2 0x4ECE JUMP JUMPDEST PUSH2 0x20C JUMP JUMPDEST PUSH1 0x40 MLOAD PUSH2 0xC3 SWAP5 SWAP4 SWAP3 SWAP2 SWAP1 PUSH2 0x52DA JUMP JUMPDEST PUSH2 0x10F PUSH2 0x10A CALLDATASIZE PUSH1 0x4 PUSH2 0x5092 JUMP JUMPDEST PUSH2 0x2F2 JUMP JUMPDEST PUSH1 0x40 MLOAD PUSH2 0xC3 SWAP2 SWAP1 PUSH2 0x52C3 JUMP JUMPDEST PUSH2 0x10F PUSH2 0x12A CALLDATASIZE PUSH1 0x4 PUSH2 0x4F8B JUMP JUMPDEST PUSH2 0x4C9 JUMP JUMPDEST CALLVALUE DUP1 ISZERO PUSH2 0x13B JUMPI PUSH1 0x0 DUP1 REVERT JUMPDEST POP PUSH2 0x14F PUSH2 0x14A CALLDATASIZE PUSH1 0x4 PUSH2 0x4ECE JUMP JUMPDEST PUSH2 0x715 JUMP JUMPDEST PUSH1 0x40 MLOAD PUSH2 0xC3 SWAP4 SWAP3 SWAP2 SWAP1 PUSH2 0x5715 JUMP JUMPDEST CALLVALUE DUP1 ISZERO PUSH2 0x16A JUMPI PUSH1 0x0 DUP1 REVERT JUMPDEST POP PUSH2 0xB6 PUSH2 0x7C6 JUMP JUMPDEST CALLVALUE DUP1 ISZERO PUSH2 0x17F JUMPI PUSH1 0x0 DUP1 REVERT JUMPDEST POP PUSH2 0xB6 PUSH2 0x7D5 JUMP JUMPDEST PUSH2 0x10F PUSH2 0x196 CALLDATASIZE PUSH1 0x4 PUSH2 0x5022 JUMP JUMPDEST PUSH2 0x7EC JUMP JUMPDEST CALLVALUE DUP1 ISZERO PUSH2 0x1A7 JUMPI PUSH1 0x0 DUP1 REVERT JUMPDEST POP PUSH2 0x10F PUSH2 0x1B6 CALLDATASIZE PUSH1 0x4 PUSH2 0x4EF7 JUMP JUMPDEST PUSH2 0x954 JUMP JUMPDEST CALLVALUE DUP1 ISZERO PUSH2 0x1C7 JUMPI PUSH1 0x0 DUP1 REVERT JUMPDEST POP PUSH2 0x1DB PUSH2 0x1D6 CALLDATASIZE PUSH1 0x4 PUSH2 0x4ECE JUMP JUMPDEST PUSH2 0xBC6 JUMP JUMPDEST PUSH1 0x40 MLOAD PUSH2 0xC3 SWAP2 SWAP1 PUSH2 0x56AF JUMP JUMPDEST CALLVALUE DUP1 ISZERO PUSH2 0x1F4 JUMPI PUSH1 0x0 DUP1 REVERT JUMPDEST POP PUSH2 0xB6 PUSH2 0xBE1 JUMP JUMPDEST PUSH1 0x2 SLOAD PUSH1 0x1 PUSH1 0x1 PUSH1 0xA0 SHL SUB AND DUP2 JUMP JUMPDEST PUSH1 0x0 DUP1 PUSH1 0x0 DUP1 PUSH1 0x0 PUSH2 0x21D DUP7 PUSH2 0xBF9 JUMP JUMPDEST SWAP1 POP PUSH1 0x0 PUSH2 0x22B DUP9 DUP9 PUSH2 0xC28 JUMP JUMPDEST SWAP1 POP PUSH1 0x0 PUSH2 0x23D DUP9 DUP4 PUSH1 0x20 ADD MLOAD PUSH2 0xCA6 JUMP JUMPDEST SWAP1 POP DUP3 PUSH1 0xA0 ADD MLOAD SWAP6 POP DUP1 PUSH1 0x40 ADD MLOAD ISZERO PUSH2 0x25F JUMPI PUSH1 0x1 PUSH1 0x1 PUSH1 0xFF SHL SUB SWAP7 POP PUSH2 0x2E6 JUMP JUMPDEST PUSH1 0x40 DUP3 ADD MLOAD DUP3 MLOAD PUSH1 0x0 SWAP2 PUSH2 0x279 SWAP2 DUP7 SWAP2 DUP6 SWAP2 DUP15 SWAP2 SWAP1 PUSH2 0xD41 JUMP JUMPDEST SWAP1 SWAP9 POP SWAP1 POP DUP7 DUP9 SLT DUP1 ISZERO PUSH2 0x28D JUMPI POP PUSH1 0x0 DUP2 SGT JUMPDEST ISZERO PUSH2 0x2E4 JUMPI PUSH2 0x29D DUP4 DUP6 DUP4 PUSH2 0xDC7 JUMP JUMPDEST POP SWAP6 POP PUSH2 0x2E1 PUSH4 0x3B9ACA00 PUSH2 0x2DB PUSH2 0x2B4 DUP5 PUSH2 0xED6 JUMP JUMPDEST PUSH2 0x2DB DUP8 PUSH1 0x40 ADD MLOAD PUSH2 0x2D5 PUSH2 0x2CC DUP12 PUSH1 0xC0 ADD MLOAD PUSH2 0xED6 JUMP JUMPDEST PUSH2 0x2D5 DUP15 PUSH2 0xED6 JUMP JUMPDEST SWAP1 PUSH2 0xEED JUMP JUMPDEST SWAP1 PUSH2 0xF14 JUMP JUMPDEST SWAP5 POP JUMPDEST POP JUMPDEST POP POP POP SWAP3 SWAP6 SWAP2 SWAP5 POP SWAP3 POP JUMP JUMPDEST PUSH1 0x0 PUSH1 0x2 PUSH1 0xA SLOAD EQ ISZERO PUSH2 0x320 JUMPI PUSH1 0x40 MLOAD PUSH3 0x461BCD PUSH1 0xE5 SHL DUP2 MSTORE PUSH1 0x4 ADD PUSH2 0x317 SWAP1 PUSH2 0x5570 JUMP JUMPDEST PUSH1 0x40 MLOAD DUP1 SWAP2 SUB SWAP1 REVERT JUMPDEST PUSH1 0x2 PUSH1 0xA SSTORE PUSH1 0x0 PUSH2 0x330 DUP11 PUSH2 0xF33 JUMP JUMPDEST SWAP1 POP PUSH2 0x33E DUP2 DUP13 PUSH1 0x10 PUSH2 0xF57 JUMP JUMPDEST PUSH2 0x349 DUP2 PUSH1 0x80 PUSH2 0xFC1 JUMP JUMPDEST ISZERO PUSH2 0x354 JUMPI PUSH1 0x1 PUSH1 0xA SSTORE JUMPDEST PUSH1 0x0 PUSH2 0x360 DUP13 DUP13 PUSH2 0xC28 JUMP JUMPDEST SWAP1 POP PUSH2 0x36D DUP3 PUSH1 0x1 PUSH2 0xFC1 JUMP JUMPDEST DUP1 ISZERO PUSH2 0x37F JUMPI POP PUSH2 0x37F DUP3 PUSH1 0x2 PUSH2 0xFC1 JUMP JUMPDEST DUP1 ISZERO PUSH2 0x38E JUMPI POP DUP1 PUSH1 0x20 ADD MLOAD TIMESTAMP LT JUMPDEST DUP1 ISZERO PUSH2 0x39D JUMPI POP DUP9 DUP2 PUSH1 0x20 ADD MLOAD LT JUMPDEST DUP1 ISZERO PUSH2 0x3A9 JUMPI POP PUSH1 0x0 DUP11 GT JUMPDEST PUSH2 0x3C5 JUMPI PUSH1 0x40 MLOAD PUSH3 0x461BCD PUSH1 0xE5 SHL DUP2 MSTORE PUSH1 0x4 ADD PUSH2 0x317 SWAP1 PUSH2 0x54B3 JUMP JUMPDEST PUSH1 0x0 PUSH2 0x3D9 DUP4 PUSH1 0x0 ADD MLOAD DUP4 PUSH1 0x20 ADD MLOAD PUSH2 0xCA6 JUMP JUMPDEST SWAP1 POP PUSH1 0x0 PUSH2 0x3F6 DUP4 DUP5 PUSH1 0x40 ADD MLOAD DUP5 PUSH2 0xFD6 SWAP1 SWAP3 SWAP2 SWAP1 PUSH4 0xFFFFFFFF AND JUMP JUMPDEST SWAP1 POP PUSH2 0x415 DUP5 DUP4 PUSH2 0x40A DUP7 PUSH1 0x0 ADD MLOAD PUSH2 0x1035 JUMP JUMPDEST DUP7 SWAP3 SWAP2 SWAP1 DUP14 TIMESTAMP PUSH2 0x1043 JUMP JUMPDEST DUP3 MLOAD ISZERO PUSH2 0x434 JUMPI PUSH1 0x40 MLOAD PUSH3 0x461BCD PUSH1 0xE5 SHL DUP2 MSTORE PUSH1 0x4 ADD PUSH2 0x317 SWAP1 PUSH2 0x565B JUMP JUMPDEST DUP4 MLOAD PUSH2 0x441 SWAP1 DUP4 SWAP1 PUSH2 0x10D1 JUMP JUMPDEST DUP10 ISZERO PUSH2 0x452 JUMPI PUSH2 0x452 DUP4 DUP6 DUP13 PUSH2 0x1245 JUMP JUMPDEST PUSH2 0x464 DUP4 DUP6 DUP14 DUP16 DUP13 DUP13 DUP13 DUP9 PUSH1 0x0 PUSH2 0x132C JUMP JUMPDEST SWAP5 POP DUP11 DUP15 PUSH1 0x1 PUSH1 0x1 PUSH1 0xA0 SHL SUB AND DUP15 PUSH1 0x1 PUSH1 0x1 PUSH1 0xA0 SHL SUB AND PUSH32 0x67C1D09E65227D62B788F4C3E6ACE545AC922034D69BD4AA45C53DEC290275BE DUP16 PUSH1 0x40 MLOAD PUSH2 0x4AA SWAP2 SWAP1 PUSH2 0x52C3 JUMP JUMPDEST PUSH1 0x40 MLOAD DUP1 SWAP2 SUB SWAP1 LOG4 POP POP PUSH1 0x1 PUSH1 0xA SSTORE POP SWAP1 SWAP11 SWAP10 POP POP POP POP POP POP POP POP POP POP JUMP JUMPDEST PUSH1 0x0 PUSH1 0x2 PUSH1 0xA SLOAD EQ ISZERO PUSH2 0x4EE JUMPI PUSH1 0x40 MLOAD PUSH3 0x461BCD PUSH1 0xE5 SHL DUP2 MSTORE PUSH1 0x4 ADD PUSH2 0x317 SWAP1 PUSH2 0x5570 JUMP JUMPDEST PUSH1 0x2 PUSH1 0xA SSTORE PUSH1 0x0 PUSH2 0x4FE DUP10 PUSH2 0xF33 JUMP JUMPDEST SWAP1 POP PUSH2 0x50C DUP2 DUP12 PUSH1 0x8 PUSH2 0xF57 JUMP JUMPDEST PUSH2 0x517 DUP2 PUSH1 0x80 PUSH2 0xFC1 JUMP JUMPDEST ISZERO PUSH2 0x522 JUMPI PUSH1 0x1 PUSH1 0xA SSTORE JUMPDEST PUSH1 0x0 PUSH2 0x52E DUP12 DUP12 PUSH2 0xC28 JUMP JUMPDEST SWAP1 POP TIMESTAMP DUP2 PUSH1 0x20 ADD MLOAD GT PUSH2 0x5DC JUMPI PUSH1 0x20 DUP2 ADD MLOAD PUSH1 0x0 PUSH2 0x54D DUP4 DUP6 TIMESTAMP PUSH2 0x13CF JUMP JUMPDEST SWAP1 POP PUSH1 0x0 DUP4 PUSH1 0x80 ADD MLOAD SGT ISZERO PUSH2 0x578 JUMPI PUSH2 0x56F DUP12 DUP6 PUSH1 0x40 ADD MLOAD DUP6 PUSH1 0x80 ADD MLOAD PUSH2 0x14A5 JUMP JUMPDEST POP PUSH1 0x0 PUSH1 0x80 DUP5 ADD MSTORE JUMPDEST PUSH2 0x587 DUP5 DUP5 DUP14 DUP5 DUP7 DUP13 DUP13 PUSH2 0x154E JUMP JUMPDEST SWAP5 POP DUP2 DUP14 PUSH1 0x1 PUSH1 0x1 PUSH1 0xA0 SHL SUB AND DUP14 PUSH1 0x1 PUSH1 0x1 PUSH1 0xA0 SHL SUB AND PUSH32 0xCCD6B9AEC297A77187BFAABFE7F98AC1DD313C796A73695DFF89DE0885DBB293 DUP9 PUSH1 0x40 MLOAD PUSH2 0x5CD SWAP2 SWAP1 PUSH2 0x52C3 JUMP JUMPDEST PUSH1 0x40 MLOAD DUP1 SWAP2 SUB SWAP1 LOG4 POP POP PUSH2 0x6DA JUMP JUMPDEST PUSH1 0x0 PUSH2 0x5F0 DUP4 PUSH1 0x0 ADD MLOAD DUP4 PUSH1 0x20 ADD MLOAD PUSH2 0xCA6 JUMP JUMPDEST SWAP1 POP PUSH2 0x60B DUP4 DUP3 PUSH2 0x600 DUP12 PUSH2 0x15C5 JUMP JUMPDEST DUP6 SWAP3 SWAP2 SWAP1 DUP12 TIMESTAMP PUSH2 0x1043 JUMP JUMPDEST PUSH1 0x0 PUSH2 0x618 DUP3 DUP5 DUP13 PUSH2 0xFD6 JUMP JUMPDEST SWAP1 POP PUSH1 0x0 DUP4 PUSH1 0x80 ADD MLOAD SGT ISZERO PUSH2 0x643 JUMPI PUSH2 0x63A DUP12 DUP6 PUSH1 0x40 ADD MLOAD DUP6 PUSH1 0x80 ADD MLOAD PUSH2 0x14A5 JUMP JUMPDEST POP PUSH1 0x0 PUSH1 0x80 DUP5 ADD MSTORE JUMPDEST DUP1 ISZERO PUSH2 0x661 JUMPI DUP2 MLOAD PUSH2 0x65E SWAP1 DUP6 SWAP1 DUP6 SWAP1 DUP15 SWAP1 DUP6 SWAP1 DUP13 DUP13 PUSH2 0x154E JUMP JUMPDEST SWAP5 POP JUMPDEST DUP3 MLOAD PUSH1 0x0 SGT ISZERO PUSH2 0x676 JUMPI PUSH2 0x676 DUP5 DUP4 DUP6 PUSH2 0x15DB JUMP JUMPDEST DUP4 MLOAD PUSH2 0x683 SWAP1 DUP4 SWAP1 PUSH2 0x10D1 JUMP JUMPDEST DUP2 PUSH1 0x0 ADD MLOAD DUP14 PUSH1 0x1 PUSH1 0x1 PUSH1 0xA0 SHL SUB AND DUP14 PUSH1 0x1 PUSH1 0x1 PUSH1 0xA0 SHL SUB AND PUSH32 0xEA195C44D2295A1DF0DEFE8210ABB22B4A911B4379B9E30E764548EBEE65C420 DUP13 DUP15 DUP11 PUSH1 0x40 MLOAD PUSH2 0x6CF SWAP4 SWAP3 SWAP2 SWAP1 PUSH2 0x5764 JUMP JUMPDEST PUSH1 0x40 MLOAD DUP1 SWAP2 SUB SWAP1 LOG4 POP POP JUMPDEST DUP1 MLOAD ISZERO DUP1 ISZERO PUSH2 0x6EB JUMPI POP PUSH1 0x40 DUP2 ADD MLOAD ISZERO JUMPDEST ISZERO PUSH2 0x6F8 JUMPI PUSH1 0x0 PUSH1 0x20 DUP3 ADD MSTORE JUMPDEST PUSH2 0x702 DUP2 DUP4 PUSH2 0x1623 JUMP JUMPDEST POP POP PUSH1 0x1 PUSH1 0xA SSTORE SWAP9 SWAP8 POP POP POP POP POP POP POP POP JUMP JUMPDEST PUSH1 0x0 PUSH2 0x71F PUSH2 0x4C94 JUMP JUMPDEST PUSH1 0x0 DUP1 PUSH2 0x72A PUSH2 0x17AF JUMP JUMPDEST PUSH1 0x1 PUSH1 0x1 PUSH1 0xA0 SHL SUB DUP8 DUP2 AND PUSH1 0x0 SWAP1 DUP2 MSTORE PUSH1 0x20 SWAP3 DUP4 MSTORE PUSH1 0x40 DUP1 DUP3 KECCAK256 SWAP3 DUP10 AND DUP3 MSTORE SWAP2 DUP4 MSTORE SWAP1 DUP2 KECCAK256 DUP1 SLOAD PUSH1 0x1 PUSH1 0x1 PUSH1 0x50 SHL SUB PUSH5 0x100000000 DUP3 DIV DUP2 AND DUP9 MSTORE PUSH1 0x1 PUSH1 0x70 SHL DUP3 DIV AND SWAP4 DUP8 ADD SWAP4 SWAP1 SWAP4 MSTORE PUSH4 0xFFFFFFFF SWAP1 SWAP3 AND SWAP6 POP SWAP1 SWAP2 POP PUSH2 0x78B DUP8 DUP8 PUSH2 0xC28 JUMP JUMPDEST SWAP1 POP PUSH1 0x0 PUSH2 0x79D DUP8 DUP4 PUSH1 0x20 ADD MLOAD PUSH2 0xCA6 JUMP JUMPDEST SWAP1 POP PUSH2 0x7B6 DUP3 PUSH1 0x40 ADD MLOAD DUP3 PUSH2 0x17BC SWAP1 SWAP2 SWAP1 PUSH4 0xFFFFFFFF AND JUMP JUMPDEST SWAP1 POP DUP1 SWAP5 POP POP POP POP POP SWAP3 POP SWAP3 POP SWAP3 JUMP JUMPDEST PUSH1 0x1 SLOAD PUSH1 0x1 PUSH1 0x1 PUSH1 0xA0 SHL SUB AND DUP2 JUMP JUMPDEST PUSH1 0x0 SLOAD PUSH5 0x100000000 SWAP1 DIV PUSH1 0x1 PUSH1 0x1 PUSH1 0xA0 SHL SUB AND DUP2 JUMP JUMPDEST PUSH1 0x0 PUSH1 0x2 PUSH1 0xA SLOAD EQ ISZERO PUSH2 0x811 JUMPI PUSH1 0x40 MLOAD PUSH3 0x461BCD PUSH1 0xE5 SHL DUP2 MSTORE PUSH1 0x4 ADD PUSH2 0x317 SWAP1 PUSH2 0x5570 JUMP JUMPDEST PUSH1 0x2 PUSH1 0xA SSTORE PUSH2 0x81F DUP10 PUSH2 0x1816 JUMP JUMPDEST PUSH1 0x0 PUSH2 0x82A DUP10 PUSH2 0xF33 JUMP JUMPDEST SWAP1 POP PUSH2 0x838 DUP2 DUP12 PUSH1 0x4 PUSH2 0xF57 JUMP JUMPDEST PUSH2 0x843 DUP2 PUSH1 0x80 PUSH2 0xFC1 JUMP JUMPDEST ISZERO PUSH2 0x84E JUMPI PUSH1 0x1 PUSH1 0xA SSTORE JUMPDEST PUSH2 0x859 DUP2 PUSH1 0x1 PUSH2 0xFC1 JUMP JUMPDEST PUSH2 0x875 JUMPI PUSH1 0x40 MLOAD PUSH3 0x461BCD PUSH1 0xE5 SHL DUP2 MSTORE PUSH1 0x4 ADD PUSH2 0x317 SWAP1 PUSH2 0x5635 JUMP JUMPDEST DUP7 TIMESTAMP LT PUSH2 0x894 JUMPI PUSH1 0x40 MLOAD PUSH3 0x461BCD PUSH1 0xE5 SHL DUP2 MSTORE PUSH1 0x4 ADD PUSH2 0x317 SWAP1 PUSH2 0x5635 JUMP JUMPDEST PUSH1 0x0 PUSH2 0x8A0 DUP12 DUP12 PUSH2 0xC28 JUMP JUMPDEST SWAP1 POP PUSH1 0x0 DUP2 PUSH1 0x20 ADD MLOAD PUSH1 0x0 EQ ISZERO DUP1 ISZERO PUSH2 0x8BD JUMPI POP TIMESTAMP DUP3 PUSH1 0x20 ADD MLOAD GT ISZERO JUMPDEST ISZERO PUSH2 0x8D0 JUMPI PUSH2 0x8CD DUP3 DUP5 TIMESTAMP PUSH2 0x13CF JUMP JUMPDEST SWAP1 POP JUMPDEST PUSH1 0x0 PUSH2 0x8DD DUP5 DUP15 DUP14 PUSH2 0x1865 JUMP JUMPDEST SWAP1 POP PUSH2 0x8F0 DUP4 DUP6 DUP13 DUP13 DUP13 DUP13 DUP13 DUP10 DUP10 PUSH2 0x132C JUMP JUMPDEST SWAP5 POP DUP10 DUP14 PUSH1 0x1 PUSH1 0x1 PUSH1 0xA0 SHL SUB AND DUP14 PUSH1 0x1 PUSH1 0x1 PUSH1 0xA0 SHL SUB AND PUSH32 0x7E1A5E400898C4BB3CFC62F61A71F4369EC78F0E778A31286892B7D2C0D044F2 DUP13 PUSH1 0x40 MLOAD PUSH2 0x936 SWAP2 SWAP1 PUSH2 0x52C3 JUMP JUMPDEST PUSH1 0x40 MLOAD DUP1 SWAP2 SUB SWAP1 LOG4 POP POP PUSH1 0x1 PUSH1 0xA SSTORE POP SWAP1 SWAP10 SWAP9 POP POP POP POP POP POP POP POP POP JUMP JUMPDEST PUSH1 0x0 PUSH1 0x2 PUSH1 0xA SLOAD EQ ISZERO PUSH2 0x979 JUMPI PUSH1 0x40 MLOAD PUSH3 0x461BCD PUSH1 0xE5 SHL DUP2 MSTORE PUSH1 0x4 ADD PUSH2 0x317 SWAP1 PUSH2 0x5570 JUMP JUMPDEST PUSH1 0x2 PUSH1 0xA SSTORE PUSH1 0x0 PUSH2 0x98B DUP10 DUP10 DUP10 PUSH2 0x193E JUMP JUMPDEST SWAP1 POP PUSH1 0x0 PUSH2 0x999 DUP11 DUP11 PUSH2 0xC28 JUMP JUMPDEST SWAP1 POP PUSH1 0x0 PUSH2 0x9AB DUP11 DUP4 PUSH1 0x20 ADD MLOAD PUSH2 0xCA6 JUMP JUMPDEST SWAP1 POP DUP2 PUSH1 0x20 ADD MLOAD TIMESTAMP LT PUSH2 0x9BD JUMPI PUSH1 0x0 DUP1 REVERT JUMPDEST PUSH1 0x0 DUP1 PUSH2 0x9E1 DUP4 DUP15 DUP7 PUSH1 0x40 ADD MLOAD DUP8 PUSH1 0x0 ADD MLOAD DUP10 PUSH2 0xD41 SWAP1 SWAP5 SWAP4 SWAP3 SWAP2 SWAP1 PUSH4 0xFFFFFFFF AND JUMP JUMPDEST SWAP2 POP SWAP2 POP DUP5 PUSH1 0xA0 ADD MLOAD DUP3 SLT PUSH2 0xA08 JUMPI PUSH1 0x40 MLOAD PUSH3 0x461BCD PUSH1 0xE5 SHL DUP2 MSTORE PUSH1 0x4 ADD PUSH2 0x317 SWAP1 PUSH2 0x5680 JUMP JUMPDEST PUSH1 0x0 PUSH2 0xA1B DUP7 PUSH1 0x40 ADD MLOAD PUSH2 0xFFFF AND PUSH2 0x1A13 JUMP JUMPDEST SWAP1 POP PUSH2 0xA2B DUP13 DUP3 DUP8 DUP10 DUP16 DUP8 PUSH2 0x1A26 JUMP JUMPDEST PUSH1 0x0 PUSH2 0xA66 PUSH4 0x3B9ACA00 PUSH2 0x2DB PUSH2 0xA41 DUP7 PUSH2 0xED6 JUMP JUMPDEST PUSH2 0x2DB DUP11 PUSH1 0x40 ADD MLOAD PUSH2 0x2D5 PUSH2 0xA59 DUP15 PUSH1 0xC0 ADD MLOAD PUSH2 0xED6 JUMP JUMPDEST PUSH2 0x2D5 DUP15 PUSH1 0x80 ADD MLOAD PUSH2 0xED6 JUMP JUMPDEST PUSH1 0x40 DUP8 ADD MLOAD SWAP1 SWAP2 POP PUSH2 0xA78 SWAP1 DUP3 PUSH2 0x1B0F JUMP JUMPDEST PUSH1 0x40 DUP8 ADD MSTORE PUSH1 0x80 DUP7 ADD MLOAD PUSH2 0x160 DUP9 ADD MLOAD PUSH1 0x0 SWAP2 PUSH2 0xA95 SWAP2 SWAP1 PUSH2 0x1B24 JUMP JUMPDEST SWAP1 POP PUSH2 0xAB4 DUP9 DUP8 DUP4 PUSH2 0xAAA DUP12 PUSH1 0x80 ADD MLOAD PUSH2 0x1035 JUMP JUMPDEST DUP12 SWAP4 SWAP3 SWAP2 SWAP1 PUSH2 0x1B57 JUMP JUMPDEST DUP7 MLOAD PUSH1 0x0 SLT ISZERO PUSH2 0xAC3 JUMPI PUSH1 0x0 DUP8 MSTORE JUMPDEST DUP16 PUSH1 0x1 PUSH1 0x1 PUSH1 0xA0 SHL SUB AND DUP16 PUSH1 0x1 PUSH1 0x1 PUSH1 0xA0 SHL SUB AND PUSH32 0x5B4676A4ED91C52FD6C4A759AEC8A3561B67499C52870FC58000A8EB54FEC301 DUP5 DUP5 PUSH1 0x40 MLOAD PUSH2 0xB08 SWAP3 SWAP2 SWAP1 PUSH2 0x52CC JUMP JUMPDEST PUSH1 0x40 MLOAD DUP1 SWAP2 SUB SWAP1 LOG3 POP PUSH2 0xB1B DUP7 DUP9 PUSH2 0x1623 JUMP JUMPDEST DUP13 PUSH1 0x1 PUSH1 0x1 PUSH1 0xA0 SHL SUB AND DUP16 PUSH1 0x1 PUSH1 0x1 PUSH1 0xA0 SHL SUB AND DUP16 PUSH1 0x1 PUSH1 0x1 PUSH1 0xA0 SHL SUB AND PUSH32 0x1745A2FE0D7C484EA79432A82F950EAC6916ADC499A0223D2EBDADCDB210F2A DUP5 DUP16 PUSH1 0x40 MLOAD PUSH2 0xB6A SWAP3 SWAP2 SWAP1 PUSH2 0x5754 JUMP JUMPDEST PUSH1 0x40 MLOAD DUP1 SWAP2 SUB SWAP1 LOG4 DUP11 ISZERO PUSH2 0xB9C JUMPI DUP7 MLOAD PUSH2 0xB85 SWAP1 DUP7 SWAP1 PUSH2 0x10D1 JUMP JUMPDEST PUSH2 0xB95 DUP14 DUP9 DUP4 DUP10 PUSH1 0x20 ADD MLOAD PUSH2 0x1BC5 JUMP JUMPDEST SWAP8 POP PUSH2 0xBAE JUMP JUMPDEST PUSH2 0xBAB DUP14 DUP9 DUP8 DUP5 DUP15 DUP15 DUP9 PUSH2 0x1C39 JUMP JUMPDEST SWAP8 POP JUMPDEST POP POP PUSH1 0x1 PUSH1 0xA SSTORE POP SWAP4 SWAP12 SWAP11 POP POP POP POP POP POP POP POP POP POP POP JUMP JUMPDEST PUSH2 0xBCE PUSH2 0x4CB2 JUMP JUMPDEST PUSH2 0xBD8 DUP4 DUP4 PUSH2 0xC28 JUMP JUMPDEST SWAP1 POP JUMPDEST SWAP3 SWAP2 POP POP JUMP JUMPDEST PUSH20 0x0 SWAP1 JUMP JUMPDEST PUSH2 0xC01 PUSH2 0x4CEA JUMP JUMPDEST PUSH2 0xC0A DUP3 PUSH2 0x1CC7 JUMP JUMPDEST SWAP1 POP PUSH2 0xC1D DUP2 PUSH1 0x40 ADD MLOAD PUSH2 0xFFFF AND PUSH2 0x1E45 JUMP JUMPDEST PUSH2 0x160 DUP3 ADD MSTORE SWAP2 SWAP1 POP JUMP JUMPDEST PUSH2 0xC30 PUSH2 0x4CB2 JUMP JUMPDEST PUSH1 0x0 PUSH2 0xC3A PUSH2 0x1E91 JUMP JUMPDEST PUSH1 0x1 PUSH1 0x1 PUSH1 0xA0 SHL SUB SWAP5 DUP6 AND PUSH1 0x0 DUP2 DUP2 MSTORE PUSH1 0x20 SWAP3 DUP4 MSTORE PUSH1 0x40 DUP1 DUP3 KECCAK256 SWAP7 SWAP1 SWAP8 AND DUP2 MSTORE SWAP5 DUP3 MSTORE DUP6 DUP6 KECCAK256 SLOAD PUSH1 0x1 PUSH1 0x1 PUSH1 0x50 SHL SUB DUP1 DUP3 AND DUP8 SUB DUP7 MSTORE PUSH4 0xFFFFFFFF PUSH1 0x1 PUSH1 0xA0 SHL DUP4 DIV AND SWAP4 DUP7 ADD SWAP4 SWAP1 SWAP4 MSTORE PUSH1 0x1 PUSH1 0x50 SHL SWAP1 DIV SWAP1 SWAP2 AND SWAP5 DUP4 ADD SWAP5 SWAP1 SWAP5 MSTORE POP PUSH1 0x60 DUP2 ADD SWAP3 SWAP1 SWAP3 MSTORE PUSH1 0x80 DUP3 ADD MSTORE SWAP1 JUMP JUMPDEST PUSH2 0xCAE PUSH2 0x4D67 JUMP JUMPDEST PUSH1 0x0 PUSH2 0xCB8 PUSH2 0x1E9E JUMP JUMPDEST PUSH1 0x1 PUSH1 0x1 PUSH1 0xA0 SHL SUB SWAP1 SWAP5 AND PUSH1 0x0 SWAP1 DUP2 MSTORE PUSH1 0x20 SWAP5 DUP6 MSTORE PUSH1 0x40 DUP1 DUP3 KECCAK256 DUP6 DUP4 MSTORE DUP7 MSTORE DUP1 DUP3 KECCAK256 SWAP5 DUP5 MSTORE DUP5 SLOAD PUSH1 0x1 PUSH1 0x1 PUSH1 0x50 SHL SUB DUP1 DUP3 AND SWAP1 SWAP4 SUB SWAP7 DUP6 ADD SWAP7 SWAP1 SWAP7 MSTORE PUSH1 0xFF PUSH1 0x1 PUSH1 0xF0 SHL DUP8 DIV AND ISZERO ISZERO SWAP1 DUP5 ADD MSTORE PUSH1 0x1 PUSH1 0x50 SHL DUP1 DUP7 DIV DUP3 AND PUSH1 0x80 DUP6 ADD MSTORE PUSH1 0x1 SWAP1 SWAP5 ADD SLOAD DUP1 DUP3 AND PUSH1 0xA0 DUP6 ADD MSTORE PUSH1 0x1 PUSH1 0xA0 SHL SWAP1 SWAP6 DIV AND PUSH1 0x60 DUP4 ADD MSTORE POP SWAP2 DIV PUSH1 0x9 SWAP1 DUP2 SIGNEXTEND SWAP1 SIGNEXTEND PUSH1 0xC0 DUP3 ADD MSTORE SWAP1 JUMP JUMPDEST PUSH1 0x0 DUP1 PUSH2 0xD50 DUP7 DUP9 DUP8 DUP8 PUSH2 0x1EAB JUMP JUMPDEST SWAP1 POP PUSH1 0x0 PUSH2 0xD63 DUP9 DUP8 DUP10 PUSH1 0x0 ADD MLOAD PUSH2 0x1F10 JUMP JUMPDEST SWAP1 POP PUSH1 0x0 PUSH2 0xD89 PUSH2 0xD7D DUP4 PUSH2 0xD77 DUP9 PUSH2 0x1035 JUMP JUMPDEST SWAP1 PUSH2 0x1FF8 JUMP JUMPDEST PUSH2 0x160 DUP12 ADD MLOAD SWAP1 PUSH2 0x200E JUMP JUMPDEST SWAP1 POP PUSH1 0x0 PUSH2 0xD97 DUP5 DUP4 PUSH2 0x2039 JUMP JUMPDEST SWAP1 POP DUP2 PUSH2 0xDAD JUMPI PUSH1 0x1 PUSH1 0x1 PUSH1 0xFF SHL SUB SWAP5 POP PUSH2 0xDBA JUMP JUMPDEST PUSH2 0xDB7 DUP2 DUP4 PUSH2 0x204F JUMP JUMPDEST SWAP5 POP JUMPDEST POP POP POP SWAP6 POP SWAP6 SWAP4 POP POP POP POP JUMP JUMPDEST PUSH1 0x0 DUP1 PUSH1 0x0 PUSH2 0xDE8 PUSH4 0x3B9ACA00 DUP7 PUSH2 0x120 ADD MLOAD PUSH2 0x1FF8 SWAP1 SWAP2 SWAP1 PUSH4 0xFFFFFFFF AND JUMP JUMPDEST SWAP1 POP PUSH1 0x0 PUSH2 0xE08 PUSH2 0xDFC DUP9 PUSH1 0x0 ADD MLOAD PUSH2 0x1035 JUMP JUMPDEST PUSH2 0x160 DUP9 ADD MLOAD SWAP1 PUSH2 0x200E JUMP JUMPDEST SWAP1 POP PUSH2 0xE3E PUSH2 0xE24 DUP8 PUSH1 0xC0 ADD MLOAD DUP5 PUSH2 0x2039 SWAP1 SWAP2 SWAP1 PUSH4 0xFFFFFFFF AND JUMP JUMPDEST PUSH2 0xE38 DUP8 PUSH2 0xE32 DUP6 DUP8 PUSH2 0x2068 JUMP JUMPDEST SWAP1 PUSH2 0x2039 JUMP JUMPDEST SWAP1 PUSH2 0x204F JUMP JUMPDEST SWAP4 POP PUSH1 0x0 PUSH2 0xE4C DUP3 DUP7 PUSH2 0x2039 JUMP JUMPDEST SWAP1 POP PUSH1 0x0 PUSH2 0xE6C DUP9 PUSH1 0x60 ADD MLOAD DUP10 PUSH2 0x160 ADD MLOAD PUSH2 0x200E SWAP1 SWAP2 SWAP1 PUSH4 0xFFFFFFFF AND JUMP JUMPDEST SWAP1 POP PUSH2 0xE78 DUP4 DUP3 PUSH2 0x2039 JUMP JUMPDEST SWAP5 POP DUP1 DUP3 SLT ISZERO PUSH2 0xE86 JUMPI DUP3 SWAP6 POP JUMPDEST PUSH1 0x0 PUSH2 0xEA9 DUP9 PUSH2 0xEA3 DUP12 PUSH1 0xC0 ADD MLOAD DUP11 PUSH2 0x2081 SWAP1 SWAP2 SWAP1 PUSH4 0xFFFFFFFF AND JUMP JUMPDEST SWAP1 PUSH2 0x20CF JUMP JUMPDEST SWAP1 POP PUSH4 0x3B9ACA00 DUP2 SLT PUSH2 0xEC9 JUMPI PUSH1 0xC0 DUP10 ADD MLOAD PUSH2 0xEC6 SWAP1 DUP10 SWAP1 PUSH2 0x204F JUMP JUMPDEST SWAP7 POP JUMPDEST POP POP POP POP POP SWAP4 POP SWAP4 SWAP2 POP POP JUMP JUMPDEST PUSH1 0x0 DUP1 DUP3 SLT ISZERO PUSH2 0xEE5 JUMPI PUSH1 0x0 DUP1 REVERT JUMPDEST POP DUP1 JUMPDEST SWAP2 SWAP1 POP JUMP JUMPDEST PUSH1 0x0 DUP3 PUSH2 0xEFC JUMPI POP PUSH1 0x0 PUSH2 0xBDB JUMP JUMPDEST DUP3 DUP3 MUL DUP3 DUP5 DUP3 DUP2 PUSH2 0xF09 JUMPI INVALID JUMPDEST DIV EQ PUSH2 0xBD8 JUMPI PUSH1 0x0 DUP1 REVERT JUMPDEST PUSH1 0x0 DUP1 DUP3 GT PUSH2 0xF22 JUMPI PUSH1 0x0 DUP1 REVERT JUMPDEST DUP2 DUP4 DUP2 PUSH2 0xF2B JUMPI INVALID JUMPDEST DIV SWAP4 SWAP3 POP POP POP JUMP JUMPDEST PUSH2 0xF3B PUSH2 0x4CEA JUMP JUMPDEST PUSH2 0xF44 DUP3 PUSH2 0x1CC7 JUMP JUMPDEST SWAP1 POP PUSH2 0xC1D DUP2 PUSH1 0x40 ADD MLOAD PUSH2 0xFFFF AND PUSH2 0x2100 JUMP JUMPDEST PUSH2 0xF61 DUP4 DUP3 PUSH2 0xFC1 JUMP JUMPDEST ISZERO PUSH2 0xF94 JUMPI DUP3 MLOAD PUSH1 0x1 PUSH1 0x1 PUSH1 0xA0 SHL SUB AND CALLER EQ PUSH2 0xF8F JUMPI PUSH1 0x40 MLOAD PUSH3 0x461BCD PUSH1 0xE5 SHL DUP2 MSTORE PUSH1 0x4 ADD PUSH2 0x317 SWAP1 PUSH2 0x52F5 JUMP JUMPDEST PUSH2 0xFBC JUMP JUMPDEST PUSH1 0x1 PUSH1 0x1 PUSH1 0xA0 SHL SUB DUP3 AND CALLER EQ PUSH2 0xFBC JUMPI PUSH1 0x40 MLOAD PUSH3 0x461BCD PUSH1 0xE5 SHL DUP2 MSTORE PUSH1 0x4 ADD PUSH2 0x317 SWAP1 PUSH2 0x52F5 JUMP JUMPDEST POP POP POP JUMP JUMPDEST PUSH1 0x20 SWAP2 SWAP1 SWAP2 ADD MLOAD DUP2 AND PUSH2 0xFFFF SWAP1 DUP2 AND SWAP2 AND EQ SWAP1 JUMP JUMPDEST DUP3 MLOAD PUSH1 0x20 DUP4 ADD MLOAD PUSH1 0x0 SWAP2 EQ PUSH2 0xFEA JUMPI PUSH1 0x0 DUP1 REVERT JUMPDEST PUSH1 0x40 DUP4 ADD MLOAD PUSH2 0xFF9 SWAP1 DUP4 PUSH2 0x1B0F JUMP JUMPDEST PUSH1 0x40 DUP5 ADD MSTORE PUSH1 0x0 PUSH2 0x100A DUP6 DUP5 PUSH2 0x2116 JUMP JUMPDEST SWAP3 POP SWAP1 POP PUSH2 0x1025 PUSH2 0x101A DUP3 PUSH2 0x15C5 JUMP JUMPDEST PUSH1 0x80 DUP7 ADD MLOAD SWAP1 PUSH2 0x1FF8 JUMP JUMPDEST PUSH1 0x80 SWAP1 SWAP5 ADD SWAP4 SWAP1 SWAP4 MSTORE SWAP4 SWAP3 POP POP POP JUMP JUMPDEST PUSH1 0x0 PUSH2 0xBDB PUSH1 0x0 NOT DUP4 PUSH2 0x2081 JUMP JUMPDEST DUP6 MLOAD PUSH1 0x0 SWAP1 PUSH2 0x1052 SWAP1 DUP6 PUSH2 0x1FF8 JUMP JUMPDEST SGT ISZERO PUSH2 0x105D JUMPI PUSH1 0x0 DUP1 REVERT JUMPDEST DUP6 PUSH1 0x20 ADD MLOAD DUP2 LT PUSH2 0x106D JUMPI PUSH1 0x0 DUP1 REVERT JUMPDEST PUSH1 0x0 PUSH2 0x108A DUP7 PUSH1 0x40 ADD MLOAD DUP9 PUSH1 0x20 ADD MLOAD DUP7 DUP7 DUP11 PUSH2 0x100 ADD MLOAD DUP8 PUSH2 0x216D JUMP JUMPDEST SWAP1 POP DUP1 PUSH2 0x10AD JUMPI PUSH2 0x160 DUP7 ADD MLOAD PUSH2 0x10AA SWAP1 PUSH2 0x10A5 SWAP1 DUP7 PUSH2 0x200E JUMP JUMPDEST PUSH2 0x1035 JUMP JUMPDEST SWAP1 POP JUMPDEST PUSH1 0x0 DUP2 SGT ISZERO PUSH2 0x10BB JUMPI PUSH1 0x0 DUP1 REVERT JUMPDEST PUSH2 0x10C8 DUP8 DUP8 DUP8 DUP8 DUP6 PUSH2 0x1B57 JUMP JUMPDEST POP POP POP POP POP POP POP JUMP JUMPDEST PUSH1 0x0 PUSH2 0x10DB PUSH2 0x1E9E JUMP JUMPDEST PUSH1 0x1 PUSH1 0x1 PUSH1 0xA0 SHL SUB DUP4 AND PUSH1 0x0 SWAP1 DUP2 MSTORE PUSH1 0x20 DUP3 DUP2 MSTORE PUSH1 0x40 DUP1 DUP4 KECCAK256 DUP8 MLOAD DUP5 MSTORE SWAP1 SWAP2 MSTORE SWAP1 DUP2 SWAP1 KECCAK256 SWAP1 DUP6 ADD MLOAD SWAP2 SWAP3 POP SWAP1 ISZERO PUSH2 0x1111 JUMPI PUSH1 0x0 DUP1 REVERT JUMPDEST PUSH2 0x112E PUSH2 0x1129 PUSH2 0x1124 DUP7 PUSH1 0x20 ADD MLOAD PUSH2 0x1035 JUMP JUMPDEST PUSH2 0xED6 JUMP JUMPDEST PUSH2 0x227C JUMP JUMPDEST DUP2 SLOAD PUSH1 0x1 PUSH1 0x1 PUSH1 0x50 SHL SUB NOT AND PUSH1 0x1 PUSH1 0x1 PUSH1 0x50 SHL SUB SWAP2 SWAP1 SWAP2 AND OR DUP2 SSTORE PUSH1 0x80 DUP5 ADD MLOAD PUSH2 0x1157 SWAP1 PUSH2 0x227C JUMP JUMPDEST DUP2 SLOAD PUSH1 0x1 PUSH1 0x1 PUSH1 0x50 SHL SUB SWAP2 SWAP1 SWAP2 AND PUSH1 0x1 PUSH1 0x50 SHL MUL PUSH1 0x1 PUSH1 0x50 SHL PUSH1 0x1 PUSH1 0xA0 SHL SUB NOT SWAP1 SWAP2 AND OR DUP2 SSTORE PUSH1 0xA0 DUP5 ADD MLOAD PUSH2 0x118B SWAP1 PUSH2 0x227C JUMP JUMPDEST PUSH1 0x1 DUP3 ADD DUP1 SLOAD PUSH1 0x1 PUSH1 0x1 PUSH1 0x50 SHL SUB NOT AND PUSH1 0x1 PUSH1 0x1 PUSH1 0x50 SHL SUB SWAP3 SWAP1 SWAP3 AND SWAP2 SWAP1 SWAP2 OR SWAP1 SSTORE PUSH1 0x60 DUP5 ADD MLOAD PUSH2 0x11BB SWAP1 PUSH2 0x227C JUMP JUMPDEST DUP2 SLOAD PUSH1 0x1 PUSH1 0x1 PUSH1 0x50 SHL SUB SWAP2 SWAP1 SWAP2 AND PUSH1 0x1 PUSH1 0xA0 SHL MUL PUSH10 0xFFFFFFFFFFFFFFFFFFFF PUSH1 0xA0 SHL NOT SWAP1 SWAP2 AND OR DUP2 SSTORE DUP4 MLOAD PUSH1 0x20 DUP6 ADD MLOAD PUSH1 0x80 DUP7 ADD MLOAD PUSH1 0xA0 DUP8 ADD MLOAD PUSH1 0x60 DUP9 ADD MLOAD PUSH1 0x40 MLOAD PUSH1 0x1 PUSH1 0x1 PUSH1 0xA0 SHL SUB DUP10 AND SWAP5 PUSH32 0x3A0FDAECF7B5DA75A56077F5B1C8FBC88F9B08E9D0C4DB31EB34E25BC6700CDE SWAP5 PUSH2 0x1237 SWAP5 SWAP2 SWAP4 SWAP1 SWAP3 PUSH2 0x52DA JUMP JUMPDEST PUSH1 0x40 MLOAD DUP1 SWAP2 SUB SWAP1 LOG3 POP POP POP POP JUMP JUMPDEST PUSH1 0x0 DUP1 PUSH2 0x1251 DUP5 PUSH2 0x2292 JUMP JUMPDEST SWAP1 SWAP3 POP SWAP1 POP PUSH1 0x0 PUSH1 0x3 DUP3 PUSH1 0x60 ADD MLOAD PUSH1 0x5 DUP2 GT ISZERO PUSH2 0x126A JUMPI INVALID JUMPDEST EQ ISZERO PUSH2 0x1296 JUMPI CALLVALUE DUP5 EQ PUSH2 0x128F JUMPI PUSH1 0x40 MLOAD PUSH3 0x461BCD PUSH1 0xE5 SHL DUP2 MSTORE PUSH1 0x4 ADD PUSH2 0x317 SWAP1 PUSH2 0x55E3 JUMP JUMPDEST POP CALLVALUE PUSH2 0x12BF JUMP JUMPDEST PUSH2 0x12BC PUSH2 0x1124 DUP8 PUSH1 0x60 ADD MLOAD DUP8 PUSH1 0x40 ADD MLOAD PUSH2 0xFFFF AND PUSH2 0x12B3 DUP9 PUSH2 0x15C5 JUMP JUMPDEST DUP7 SWAP3 SWAP2 SWAP1 PUSH2 0x22EB JUMP JUMPDEST SWAP1 POP JUMPDEST PUSH1 0x0 PUSH1 0x4 DUP5 PUSH1 0x60 ADD MLOAD PUSH1 0x5 DUP2 GT ISZERO PUSH2 0x12D3 JUMPI INVALID JUMPDEST EQ ISZERO PUSH2 0x12E9 JUMPI PUSH2 0x12E2 DUP3 PUSH2 0x15C5 JUMP JUMPDEST SWAP1 POP PUSH2 0x1303 JUMP JUMPDEST DUP2 ISZERO PUSH2 0x1303 JUMPI PUSH1 0x40 DUP7 ADD MLOAD PUSH2 0x1300 SWAP1 DUP6 SWAP1 DUP5 PUSH2 0x2393 JUMP JUMPDEST SWAP1 POP JUMPDEST PUSH2 0x131B PUSH2 0x1310 DUP6 DUP4 PUSH2 0x248A JUMP JUMPDEST PUSH1 0x80 DUP10 ADD MLOAD SWAP1 PUSH2 0x1FF8 JUMP JUMPDEST PUSH1 0x80 SWAP1 SWAP8 ADD SWAP7 SWAP1 SWAP7 MSTORE POP POP POP POP POP POP JUMP JUMPDEST PUSH1 0x0 DUP8 DUP11 PUSH1 0x20 ADD MLOAD EQ DUP1 PUSH2 0x133F JUMPI POP DUP10 MLOAD ISZERO JUMPDEST PUSH2 0x1348 JUMPI PUSH1 0x0 DUP1 REVERT JUMPDEST PUSH1 0x0 PUSH2 0x1358 DUP11 PUSH1 0x0 ADD MLOAD DUP11 PUSH2 0xCA6 JUMP JUMPDEST SWAP1 POP DUP8 ISZERO PUSH2 0x137E JUMPI PUSH2 0x1379 DUP12 DUP12 DUP4 DUP13 PUSH2 0x1373 PUSH2 0x10A5 DUP15 PUSH2 0x15C5 JUMP JUMPDEST DUP13 PUSH2 0x24BA JUMP JUMPDEST PUSH2 0x1395 JUMP JUMPDEST PUSH2 0x1393 DUP11 PUSH1 0x40 ADD MLOAD DUP11 DUP13 PUSH2 0x100 ADD MLOAD TIMESTAMP PUSH2 0x254A JUMP JUMPDEST POP JUMPDEST PUSH2 0x13A4 DUP2 DUP13 DUP13 DUP8 DUP8 DUP12 DUP12 PUSH2 0x25B9 JUMP JUMPDEST SWAP2 POP PUSH2 0x13B0 DUP12 DUP12 PUSH2 0x1623 JUMP JUMPDEST DUP8 ISZERO PUSH2 0x13C1 JUMPI PUSH2 0x13C1 DUP11 DUP3 DUP14 PUSH2 0x15DB JUMP JUMPDEST POP SWAP10 SWAP9 POP POP POP POP POP POP POP POP POP JUMP JUMPDEST PUSH1 0x0 DUP1 PUSH2 0x13E4 DUP5 PUSH1 0x0 ADD MLOAD DUP7 PUSH1 0x20 ADD MLOAD PUSH2 0xCA6 JUMP JUMPDEST SWAP1 POP DUP1 PUSH1 0x40 ADD MLOAD PUSH2 0x1407 JUMPI PUSH1 0x40 MLOAD PUSH3 0x461BCD PUSH1 0xE5 SHL DUP2 MSTORE PUSH1 0x4 ADD PUSH2 0x317 SWAP1 PUSH2 0x545E JUMP JUMPDEST PUSH1 0x0 PUSH2 0x1420 DUP6 PUSH1 0x40 ADD MLOAD PUSH2 0xFFFF AND DUP8 PUSH1 0x20 ADD MLOAD DUP7 PUSH2 0x26E0 JUMP JUMPDEST SWAP1 POP PUSH1 0x0 PUSH2 0x1447 PUSH4 0x5F5E100 PUSH2 0xEA3 DUP6 PUSH1 0xC0 ADD MLOAD PUSH2 0x1441 DUP8 PUSH1 0xA0 ADD MLOAD PUSH2 0x15C5 JUMP JUMPDEST SWAP1 PUSH2 0x2081 JUMP JUMPDEST SWAP1 POP PUSH1 0x0 PUSH2 0x1458 DUP9 DUP6 DUP10 DUP7 DUP7 PUSH2 0x2850 JUMP JUMPDEST SWAP1 POP PUSH1 0x0 PUSH2 0x1469 DUP9 DUP7 DUP7 DUP6 DUP8 PUSH2 0x29F2 JUMP JUMPDEST PUSH1 0x0 DUP12 MSTORE PUSH1 0x80 DUP12 ADD MLOAD SWAP1 SWAP8 POP SWAP1 SWAP2 POP PUSH2 0x1482 SWAP1 DUP3 PUSH2 0x1FF8 JUMP JUMPDEST PUSH1 0x80 DUP11 ADD MSTORE POP POP PUSH1 0x0 PUSH1 0x40 DUP9 ADD DUP2 SWAP1 MSTORE PUSH1 0x20 SWAP1 SWAP8 ADD SWAP7 SWAP1 SWAP7 MSTORE POP SWAP1 SWAP5 SWAP4 POP POP POP POP JUMP JUMPDEST PUSH1 0x0 DUP2 PUSH2 0x14B4 JUMPI POP PUSH1 0x0 PUSH2 0x1547 JUMP JUMPDEST PUSH1 0x0 DUP3 SGT PUSH2 0x14C1 JUMPI PUSH1 0x0 DUP1 REVERT JUMPDEST PUSH1 0x0 PUSH2 0x14D0 DUP5 PUSH2 0xFFFF AND PUSH2 0x1A13 JUMP JUMPDEST SWAP1 POP PUSH1 0x0 PUSH2 0x14DE DUP3 DUP6 PUSH2 0x2C2A JUMP JUMPDEST SWAP1 POP PUSH1 0x4 DUP3 PUSH1 0x60 ADD MLOAD PUSH1 0x5 DUP2 GT ISZERO PUSH2 0x14F2 JUMPI INVALID JUMPDEST EQ ISZERO PUSH2 0x1520 JUMPI PUSH2 0x1519 PUSH2 0x1124 PUSH2 0x10A5 DUP9 DUP9 PUSH2 0xFFFF AND PUSH2 0x1510 DUP7 PUSH2 0x1035 JUMP JUMPDEST DUP8 SWAP3 SWAP2 SWAP1 PUSH2 0x22EB JUMP JUMPDEST SWAP3 POP PUSH2 0x1544 JUMP JUMPDEST PUSH2 0x1541 PUSH2 0x1124 PUSH2 0x10A5 DUP8 PUSH2 0xFFFF AND DUP10 PUSH2 0x1538 DUP7 PUSH2 0xED6 JUMP JUMPDEST DUP8 SWAP3 SWAP2 SWAP1 PUSH2 0x2C62 JUMP JUMPDEST SWAP3 POP JUMPDEST POP POP JUMPDEST SWAP4 SWAP3 POP POP POP JUMP JUMPDEST PUSH1 0x0 DUP1 DUP8 PUSH1 0x80 ADD MLOAD SGT ISZERO PUSH2 0x1561 JUMPI PUSH1 0x0 DUP1 REVERT JUMPDEST PUSH2 0x15AD DUP9 PUSH1 0x40 MLOAD DUP1 PUSH1 0xA0 ADD PUSH1 0x40 MSTORE DUP1 DUP11 PUSH1 0x60 ADD MLOAD PUSH1 0x1 PUSH1 0x1 PUSH1 0xA0 SHL SUB AND DUP2 MSTORE PUSH1 0x20 ADD DUP10 PUSH1 0x1 PUSH1 0x1 PUSH1 0xA0 SHL SUB AND DUP2 MSTORE PUSH1 0x20 ADD DUP9 DUP2 MSTORE PUSH1 0x20 ADD DUP8 DUP2 MSTORE PUSH1 0x20 ADD DUP11 PUSH1 0x80 ADD MLOAD DUP2 MSTORE POP DUP6 DUP6 PUSH2 0x2D02 JUMP JUMPDEST PUSH1 0x0 PUSH1 0x80 SWAP1 SWAP10 ADD SWAP9 SWAP1 SWAP9 MSTORE POP SWAP6 SWAP8 SWAP7 POP POP POP POP POP POP POP JUMP JUMPDEST PUSH1 0x0 PUSH1 0x1 PUSH1 0x1 PUSH1 0xFF SHL SUB DUP3 GT ISZERO PUSH2 0xEE5 JUMPI PUSH1 0x0 DUP1 REVERT JUMPDEST PUSH1 0x0 PUSH2 0x15F6 DUP5 DUP5 DUP5 PUSH1 0x60 ADD MLOAD DUP6 PUSH1 0x40 ADD MLOAD DUP7 PUSH1 0x0 ADD MLOAD PUSH2 0xD41 JUMP JUMPDEST POP SWAP1 POP DUP1 DUP5 PUSH1 0xA0 ADD MLOAD SGT ISZERO PUSH2 0x161D JUMPI PUSH1 0x40 MLOAD PUSH3 0x461BCD PUSH1 0xE5 SHL DUP2 MSTORE PUSH1 0x4 ADD PUSH2 0x317 SWAP1 PUSH2 0x54DC JUMP JUMPDEST POP POP POP POP JUMP JUMPDEST PUSH1 0x0 PUSH2 0x162D PUSH2 0x1E91 JUMP JUMPDEST PUSH1 0x60 DUP5 ADD MLOAD PUSH1 0x1 PUSH1 0x1 PUSH1 0xA0 SHL SUB SWAP1 DUP2 AND PUSH1 0x0 SWAP1 DUP2 MSTORE PUSH1 0x20 DUP4 DUP2 MSTORE PUSH1 0x40 DUP1 DUP4 KECCAK256 DUP8 MLOAD SWAP1 SWAP5 AND DUP4 MSTORE SWAP3 SWAP1 MSTORE KECCAK256 PUSH1 0x80 DUP6 ADD MLOAD SWAP2 SWAP3 POP SWAP1 ISZERO PUSH2 0x166A JUMPI PUSH1 0x0 DUP1 REVERT JUMPDEST PUSH1 0x60 DUP4 ADD MLOAD DUP5 MLOAD PUSH2 0x167A SWAP1 PUSH2 0x1035 JUMP JUMPDEST SLT ISZERO PUSH2 0x16AF JUMPI DUP4 MLOAD ISZERO DUP1 PUSH2 0x1693 JUMPI POP PUSH1 0x1 DUP5 PUSH1 0x40 ADD MLOAD GT ISZERO JUMPDEST PUSH2 0x16AF JUMPI PUSH1 0x40 MLOAD PUSH3 0x461BCD PUSH1 0xE5 SHL DUP2 MSTORE PUSH1 0x4 ADD PUSH2 0x317 SWAP1 PUSH2 0x55BF JUMP JUMPDEST PUSH2 0x16B8 DUP4 PUSH2 0x2F77 JUMP JUMPDEST ISZERO PUSH2 0x171A JUMPI PUSH1 0x0 PUSH2 0x16C7 PUSH2 0x17AF JUMP JUMPDEST PUSH1 0x60 DUP7 ADD MLOAD PUSH1 0x1 PUSH1 0x1 PUSH1 0xA0 SHL SUB SWAP1 DUP2 AND PUSH1 0x0 SWAP1 DUP2 MSTORE PUSH1 0x20 SWAP3 DUP4 MSTORE PUSH1 0x40 DUP1 DUP3 KECCAK256 DUP9 MLOAD SWAP1 SWAP4 AND DUP3 MSTORE SWAP2 DUP4 MSTORE KECCAK256 DUP1 SLOAD SWAP2 DUP8 ADD MLOAD SWAP1 SWAP3 POP PUSH4 0xFFFFFFFF SWAP1 SWAP2 AND SWAP1 DUP2 EQ DUP1 PUSH2 0x170E JUMPI POP DUP1 ISZERO JUMPDEST PUSH2 0x1717 JUMPI PUSH1 0x0 DUP1 REVERT JUMPDEST POP POP JUMPDEST PUSH2 0x172D PUSH2 0x1129 PUSH2 0x1124 DUP7 PUSH1 0x0 ADD MLOAD PUSH2 0x1035 JUMP JUMPDEST DUP2 SLOAD PUSH1 0x1 PUSH1 0x1 PUSH1 0x50 SHL SUB NOT AND PUSH1 0x1 PUSH1 0x1 PUSH1 0x50 SHL SUB SWAP2 SWAP1 SWAP2 AND OR DUP2 SSTORE PUSH1 0x40 DUP5 ADD MLOAD PUSH2 0x1756 SWAP1 PUSH2 0x227C JUMP JUMPDEST DUP2 SLOAD PUSH1 0x1 PUSH1 0x1 PUSH1 0x50 SHL SUB SWAP2 SWAP1 SWAP2 AND PUSH1 0x1 PUSH1 0x50 SHL MUL PUSH1 0x1 PUSH1 0x50 SHL PUSH1 0x1 PUSH1 0xA0 SHL SUB NOT SWAP1 SWAP2 AND OR DUP2 SSTORE PUSH1 0x20 DUP5 ADD MLOAD PUSH2 0x178A SWAP1 PUSH2 0x2FA0 JUMP JUMPDEST DUP2 SLOAD PUSH4 0xFFFFFFFF SWAP2 SWAP1 SWAP2 AND PUSH1 0x1 PUSH1 0xA0 SHL MUL PUSH4 0xFFFFFFFF PUSH1 0xA0 SHL NOT SWAP1 SWAP2 AND OR SWAP1 SSTORE POP POP POP JUMP JUMPDEST PUSH1 0x0 DUP1 PUSH2 0xBDB PUSH1 0x1A PUSH2 0x2FB3 JUMP JUMPDEST PUSH1 0x0 DUP1 PUSH1 0x0 DUP5 PUSH1 0x60 ADD MLOAD GT ISZERO PUSH2 0x180F JUMPI PUSH2 0x17EB DUP5 PUSH1 0x60 ADD MLOAD PUSH2 0x2DB DUP7 PUSH1 0x80 ADD MLOAD DUP7 PUSH2 0xEED SWAP1 SWAP2 SWAP1 PUSH4 0xFFFFFFFF AND JUMP JUMPDEST SWAP2 POP PUSH2 0x180C DUP5 PUSH1 0x60 ADD MLOAD PUSH2 0x2DB DUP7 PUSH1 0xA0 ADD MLOAD DUP7 PUSH2 0xEED SWAP1 SWAP2 SWAP1 PUSH4 0xFFFFFFFF AND JUMP JUMPDEST SWAP1 POP JUMPDEST SWAP3 POP SWAP3 SWAP1 POP JUMP JUMPDEST PUSH1 0x1 PUSH1 0x1 PUSH1 0xA0 SHL SUB DUP2 AND PUSH2 0x1829 JUMPI PUSH1 0x0 DUP1 REVERT JUMPDEST PUSH1 0x1 PUSH1 0x1 PUSH1 0xA0 SHL SUB DUP2 AND ADDRESS EQ ISZERO PUSH2 0x183F JUMPI PUSH1 0x0 DUP1 REVERT JUMPDEST PUSH1 0x0 PUSH2 0x184A DUP3 PUSH2 0x2FCC JUMP JUMPDEST POP POP POP POP PUSH2 0xFFFF AND SWAP1 POP DUP1 PUSH1 0x0 EQ PUSH2 0x1861 JUMPI PUSH1 0x0 DUP1 REVERT JUMPDEST POP POP JUMP JUMPDEST PUSH1 0x0 DUP2 PUSH2 0x1874 JUMPI POP PUSH1 0x0 PUSH2 0x1547 JUMP JUMPDEST PUSH1 0x0 PUSH2 0x1887 DUP6 PUSH1 0x40 ADD MLOAD PUSH2 0xFFFF AND PUSH2 0x1A13 JUMP JUMPDEST SWAP1 POP PUSH1 0x0 PUSH1 0x4 DUP3 PUSH1 0x60 ADD MLOAD PUSH1 0x5 DUP2 GT ISZERO PUSH2 0x189D JUMPI INVALID JUMPDEST EQ PUSH2 0x18B8 JUMPI PUSH2 0x18B3 DUP7 PUSH1 0x40 ADD MLOAD PUSH2 0xFFFF AND PUSH2 0x3038 JUMP JUMPDEST PUSH2 0x18BA JUMP JUMPDEST DUP2 JUMPDEST DUP7 MLOAD PUSH1 0x20 DUP3 ADD MLOAD SWAP2 SWAP3 POP SWAP1 ISZERO PUSH2 0x18CF JUMPI PUSH1 0x0 DUP1 REVERT JUMPDEST PUSH1 0x3 DUP3 PUSH1 0x60 ADD MLOAD PUSH1 0x5 DUP2 GT ISZERO PUSH2 0x18E1 JUMPI INVALID JUMPDEST EQ ISZERO PUSH2 0x191B JUMPI DUP5 CALLVALUE EQ PUSH2 0x1906 JUMPI PUSH1 0x40 MLOAD PUSH3 0x461BCD PUSH1 0xE5 SHL DUP2 MSTORE PUSH1 0x4 ADD PUSH2 0x317 SWAP1 PUSH2 0x55E3 JUMP JUMPDEST PUSH2 0x1910 DUP2 CALLVALUE PUSH2 0x304B JUMP JUMPDEST CALLVALUE SWAP4 POP POP POP POP PUSH2 0x1547 JUMP JUMPDEST DUP2 MLOAD PUSH2 0x1929 SWAP1 DUP8 DUP4 DUP9 PUSH2 0x3081 JUMP JUMPDEST DUP5 SWAP4 POP POP POP POP PUSH2 0x1547 JUMP JUMPDEST POP POP POP SWAP4 SWAP3 POP POP POP JUMP JUMPDEST PUSH2 0x1946 PUSH2 0x4CEA JUMP JUMPDEST PUSH2 0x194F DUP4 PUSH2 0xF33 JUMP JUMPDEST SWAP1 POP PUSH2 0x195C DUP2 PUSH1 0x80 PUSH2 0xFC1 JUMP JUMPDEST ISZERO PUSH2 0x1967 JUMPI PUSH1 0x1 PUSH1 0xA SSTORE JUMPDEST PUSH2 0x1972 DUP2 PUSH1 0x20 PUSH2 0xFC1 JUMP JUMPDEST ISZERO PUSH2 0x19A4 JUMPI CALLER PUSH1 0x1 PUSH1 0x1 PUSH1 0xA0 SHL SUB DUP5 AND EQ PUSH2 0x199F JUMPI PUSH1 0x40 MLOAD PUSH3 0x461BCD PUSH1 0xE5 SHL DUP2 MSTORE PUSH1 0x4 ADD PUSH2 0x317 SWAP1 PUSH2 0x52F5 JUMP JUMPDEST PUSH2 0x19CC JUMP JUMPDEST CALLER PUSH1 0x1 PUSH1 0x1 PUSH1 0xA0 SHL SUB DUP4 AND EQ PUSH2 0x19CC JUMPI PUSH1 0x40 MLOAD PUSH3 0x461BCD PUSH1 0xE5 SHL DUP2 MSTORE PUSH1 0x4 ADD PUSH2 0x317 SWAP1 PUSH2 0x52F5 JUMP JUMPDEST PUSH1 0x1 PUSH1 0x1 PUSH1 0xA0 SHL SUB DUP5 AND CALLER EQ DUP1 ISZERO SWAP1 PUSH2 0x19F7 JUMPI POP DUP2 PUSH1 0x1 PUSH1 0x1 PUSH1 0xA0 SHL SUB AND DUP5 PUSH1 0x1 PUSH1 0x1 PUSH1 0xA0 SHL SUB AND EQ ISZERO JUMPDEST PUSH2 0x1547 JUMPI PUSH1 0x40 MLOAD PUSH3 0x461BCD PUSH1 0xE5 SHL DUP2 MSTORE PUSH1 0x4 ADD PUSH2 0x317 SWAP1 PUSH2 0x52F5 JUMP JUMPDEST PUSH2 0x1A1B PUSH2 0x4DA6 JUMP JUMPDEST PUSH2 0xBDB DUP3 PUSH1 0x0 PUSH2 0x3109 JUMP JUMPDEST PUSH1 0x0 PUSH2 0x1A31 DUP4 PUSH2 0x15C5 JUMP JUMPDEST SWAP1 POP PUSH1 0x5 DUP7 PUSH1 0x60 ADD MLOAD PUSH1 0x5 DUP2 GT ISZERO PUSH2 0x1A45 JUMPI INVALID JUMPDEST EQ ISZERO PUSH2 0x1A60 JUMPI PUSH2 0x1A5D DUP5 PUSH1 0x40 ADD MLOAD PUSH2 0xFFFF AND DUP3 PUSH2 0x31B7 JUMP JUMPDEST SWAP1 POP JUMPDEST PUSH1 0x0 DUP1 PUSH2 0x1A6E DUP8 DUP8 DUP7 PUSH2 0xDC7 JUMP JUMPDEST SWAP2 POP SWAP2 POP PUSH1 0x0 DUP3 SGT PUSH2 0x1A7F JUMPI PUSH1 0x0 DUP1 REVERT JUMPDEST PUSH1 0x0 PUSH2 0x1A8B DUP10 DUP5 PUSH2 0x2C2A JUMP JUMPDEST SWAP1 POP DUP1 DUP5 SLT ISZERO PUSH2 0x1AC2 JUMPI PUSH2 0x1A9F DUP10 DUP4 PUSH2 0x2C2A JUMP JUMPDEST DUP5 SLT PUSH2 0x1ABD JUMPI PUSH1 0x40 MLOAD PUSH3 0x461BCD PUSH1 0xE5 SHL DUP2 MSTORE PUSH1 0x4 ADD PUSH2 0x317 SWAP1 PUSH2 0x5513 JUMP JUMPDEST PUSH2 0x1AC6 JUMP JUMPDEST DUP1 SWAP4 POP JUMPDEST PUSH1 0x40 DUP8 ADD MLOAD PUSH1 0x0 SWAP1 PUSH2 0x1AE0 SWAP1 DUP12 SWAP1 DUP14 SWAP1 PUSH2 0xFFFF AND DUP9 PUSH2 0x22EB JUMP JUMPDEST SWAP1 POP PUSH2 0x1AFA PUSH2 0x1AEF DUP12 DUP4 PUSH2 0x248A JUMP JUMPDEST PUSH1 0x80 DUP12 ADD MLOAD SWAP1 PUSH2 0x1FF8 JUMP JUMPDEST PUSH1 0x80 SWAP1 SWAP10 ADD SWAP9 SWAP1 SWAP9 MSTORE POP POP POP POP POP POP POP POP POP POP JUMP JUMPDEST PUSH1 0x0 DUP3 DUP3 GT ISZERO PUSH2 0x1B1E JUMPI PUSH1 0x0 DUP1 REVERT JUMPDEST POP SWAP1 SUB SWAP1 JUMP JUMPDEST PUSH1 0x0 DUP1 PUSH2 0x1B4F DUP5 PUSH1 0x40 ADD MLOAD PUSH2 0xEA3 PUSH5 0x2540BE400 PUSH2 0xEA3 DUP8 DUP10 PUSH1 0x20 ADD MLOAD PUSH2 0x2081 SWAP1 SWAP2 SWAP1 PUSH4 0xFFFFFFFF AND JUMP JUMPDEST SWAP5 SWAP4 POP POP POP POP JUMP JUMPDEST PUSH1 0x80 DUP6 ADD MLOAD PUSH2 0x1B66 SWAP1 DUP3 PUSH2 0x1FF8 JUMP JUMPDEST PUSH1 0x80 DUP7 ADD MSTORE DUP5 MLOAD PUSH2 0x1B77 SWAP1 DUP4 PUSH2 0x1FF8 JUMP JUMPDEST DUP1 DUP7 MSTORE PUSH1 0x0 SLT ISZERO PUSH2 0x1B87 JUMPI PUSH1 0x0 DUP1 REVERT JUMPDEST PUSH1 0x20 DUP4 ADD MLOAD PUSH2 0x1B96 SWAP1 DUP4 PUSH2 0x1FF8 JUMP JUMPDEST PUSH1 0x20 DUP5 ADD DUP2 SWAP1 MSTORE PUSH1 0x0 SLT ISZERO PUSH2 0x1BAA JUMPI PUSH1 0x0 DUP1 REVERT JUMPDEST PUSH2 0x1BBD DUP5 PUSH1 0x0 ADD MLOAD DUP6 PUSH1 0x40 ADD MLOAD DUP5 PUSH2 0x323E JUMP JUMPDEST POP POP POP POP POP POP JUMP JUMPDEST PUSH1 0x0 DUP1 PUSH2 0x1BD6 DUP7 DUP7 PUSH1 0x0 ADD MLOAD PUSH2 0xC28 JUMP JUMPDEST SWAP1 POP DUP1 PUSH1 0x20 ADD MLOAD PUSH1 0x0 EQ DUP1 PUSH2 0x1BEE JUMPI POP DUP3 DUP2 PUSH1 0x20 ADD MLOAD EQ JUMPDEST PUSH2 0x1C0A JUMPI PUSH1 0x40 MLOAD PUSH3 0x461BCD PUSH1 0xE5 SHL DUP2 MSTORE PUSH1 0x4 ADD PUSH2 0x317 SWAP1 PUSH2 0x531B JUMP JUMPDEST PUSH1 0x20 DUP2 ADD DUP4 SWAP1 MSTORE PUSH1 0x40 DUP2 ADD MLOAD PUSH2 0x1C20 SWAP1 DUP6 PUSH2 0x3344 JUMP JUMPDEST PUSH1 0x40 DUP3 ADD MSTORE PUSH2 0x1C2F DUP2 DUP7 PUSH2 0x1623 JUMP JUMPDEST POP SWAP2 SWAP5 SWAP4 POP POP POP POP JUMP JUMPDEST PUSH1 0x0 DUP1 DUP1 PUSH2 0x1C47 DUP9 DUP9 PUSH2 0x2116 JUMP JUMPDEST DUP10 MLOAD SWAP2 SWAP4 POP SWAP2 POP PUSH2 0x1C5F SWAP1 DUP11 SWAP1 DUP13 SWAP1 DUP5 SWAP1 DUP11 DUP11 PUSH2 0x3356 JUMP JUMPDEST DUP11 MLOAD SWAP1 SWAP5 POP PUSH2 0x1C70 SWAP2 POP DUP10 SWAP1 PUSH2 0x10D1 JUMP JUMPDEST DUP2 ISZERO PUSH2 0x1CBA JUMPI PUSH1 0x0 PUSH2 0x1CAA PUSH2 0x1124 PUSH2 0x10A5 DUP13 PUSH1 0x40 ADD MLOAD PUSH2 0xFFFF AND DUP15 PUSH2 0x1CA1 PUSH2 0x1124 PUSH2 0x1C9A DUP11 PUSH2 0x15C5 JUMP JUMPDEST DUP13 SWAP1 PUSH2 0x2C2A JUMP JUMPDEST DUP11 SWAP3 SWAP2 SWAP1 PUSH2 0x2C62 JUMP JUMPDEST SWAP1 POP PUSH2 0x1CB6 DUP5 DUP3 PUSH2 0x3344 JUMP JUMPDEST SWAP4 POP POP JUMPDEST POP POP SWAP8 SWAP7 POP POP POP POP POP POP POP JUMP JUMPDEST PUSH2 0x1CCF PUSH2 0x4CEA JUMP JUMPDEST PUSH1 0x0 PUSH2 0x1CD9 PUSH2 0x33AD JUMP JUMPDEST PUSH1 0x1 PUSH1 0x1 PUSH1 0xA0 SHL SUB DUP5 AND PUSH1 0x0 DUP2 DUP2 MSTORE PUSH1 0x20 DUP4 DUP2 MSTORE PUSH1 0x40 SWAP2 DUP3 SWAP1 KECCAK256 SWAP3 DUP7 MSTORE DUP3 SLOAD PUSH2 0xFFFF DUP1 DUP3 AND SWAP3 DUP9 ADD SWAP3 SWAP1 SWAP3 MSTORE PUSH3 0x10000 DUP2 DIV SWAP1 SWAP2 AND SWAP2 DUP7 ADD SWAP2 SWAP1 SWAP2 MSTORE SWAP2 SWAP3 POP SWAP1 PUSH2 0x1D3A SWAP1 PUSH4 0xFFFFFFFF PUSH5 0x100000000 SWAP1 SWAP2 DIV DUP2 AND SWAP1 PUSH4 0x5F5E100 SWAP1 PUSH2 0x2081 AND JUMP JUMPDEST PUSH1 0x60 DUP5 ADD MSTORE DUP1 SLOAD PUSH2 0x1D58 SWAP1 PUSH1 0x1 PUSH1 0x50 SHL SWAP1 DIV PUSH1 0xFF AND PUSH3 0x7A120 PUSH2 0xEED JUMP JUMPDEST PUSH1 0x80 DUP5 ADD MSTORE DUP1 SLOAD PUSH2 0x1D7C SWAP1 PUSH9 0x10000000000000000 SWAP1 DIV PUSH2 0xFFFF AND PUSH3 0x186A0 PUSH2 0xEED JUMP JUMPDEST PUSH1 0xA0 DUP5 ADD MSTORE DUP1 SLOAD PUSH2 0x1D9B SWAP1 PUSH1 0x1 PUSH1 0x70 SHL SWAP1 DIV PUSH2 0xFFFF AND PUSH3 0x186A0 PUSH2 0xEED JUMP JUMPDEST PUSH2 0x120 DUP5 ADD MSTORE DUP1 SLOAD PUSH1 0x64 SWAP1 PUSH1 0xFF PUSH1 0x1 PUSH1 0x58 SHL SWAP1 SWAP2 DIV AND PUSH4 0x3B9ACA00 MUL SDIV PUSH1 0xC0 DUP5 ADD MSTORE DUP1 SLOAD PUSH1 0x1 PUSH1 0x60 SHL DUP2 DIV PUSH1 0xFF SWAP1 DUP2 AND PUSH1 0xE0 DUP7 ADD MSTORE PUSH1 0x1 PUSH1 0x68 SHL SWAP1 SWAP2 DIV AND PUSH2 0x100 DUP5 ADD MSTORE PUSH1 0x40 DUP1 MLOAD DUP1 DUP3 ADD SWAP2 DUP3 SWAP1 MSTORE SWAP1 PUSH1 0x1 DUP4 ADD SWAP1 PUSH1 0x2 SWAP1 DUP3 PUSH1 0x0 DUP6 JUMPDEST DUP3 DUP3 SWAP1 SLOAD SWAP1 PUSH2 0x100 EXP SWAP1 DIV PUSH2 0xFFFF AND PUSH2 0xFFFF AND DUP2 MSTORE PUSH1 0x20 ADD SWAP1 PUSH1 0x2 ADD SWAP1 PUSH1 0x20 DUP3 PUSH1 0x1 ADD DIV SWAP3 DUP4 ADD SWAP3 PUSH1 0x1 SUB DUP3 MUL SWAP2 POP DUP1 DUP5 GT PUSH2 0x1DF8 JUMPI SWAP1 POP POP POP POP POP POP DUP4 PUSH2 0x140 ADD DUP2 SWAP1 MSTORE POP POP POP SWAP2 SWAP1 POP JUMP JUMPDEST PUSH2 0x1E4D PUSH2 0x4DD5 JUMP JUMPDEST PUSH1 0x0 DUP1 PUSH1 0x0 PUSH2 0x1E5B DUP6 PUSH2 0x33BA JUMP JUMPDEST PUSH1 0x40 DUP1 MLOAD PUSH1 0x60 DUP2 ADD DUP3 MSTORE PUSH1 0x1 PUSH1 0x1 PUSH1 0xA0 SHL SUB SWAP1 SWAP4 AND DUP4 MSTORE PUSH1 0x20 DUP4 ADD SWAP4 SWAP1 SWAP4 MSTORE PUSH1 0xFF AND PUSH1 0xA EXP SWAP2 DUP2 ADD SWAP2 SWAP1 SWAP2 MSTORE SWAP4 POP POP POP POP SWAP2 SWAP1 POP JUMP JUMPDEST PUSH1 0x0 DUP1 PUSH2 0xBDB PUSH1 0x16 PUSH2 0x2FB3 JUMP JUMPDEST PUSH1 0x0 DUP1 PUSH2 0xBDB PUSH1 0x15 PUSH2 0x2FB3 JUMP JUMPDEST PUSH1 0x0 DUP2 PUSH2 0x1EBA JUMPI POP PUSH1 0x0 PUSH2 0x1B4F JUMP JUMPDEST PUSH1 0x0 DUP1 PUSH2 0x1EC7 DUP8 DUP6 PUSH2 0x17BC JUMP JUMPDEST SWAP2 POP SWAP2 POP PUSH1 0x0 PUSH2 0x1EE6 DUP8 PUSH1 0x40 ADD MLOAD DUP9 PUSH1 0x0 ADD MLOAD DUP9 DUP6 DUP13 PUSH1 0x0 ADD MLOAD PUSH2 0x347B JUMP JUMPDEST SWAP1 POP PUSH2 0x1F04 PUSH2 0x1EF4 DUP5 PUSH2 0x15C5 JUMP JUMPDEST PUSH2 0x160 DUP10 ADD MLOAD PUSH2 0xD77 SWAP1 DUP5 PUSH2 0x200E JUMP JUMPDEST SWAP9 SWAP8 POP POP POP POP POP POP POP POP JUMP JUMPDEST PUSH1 0x0 PUSH2 0x1F1B DUP5 PUSH2 0x2F77 JUMP JUMPDEST ISZERO PUSH2 0x1547 JUMPI PUSH1 0x0 PUSH2 0x1F2A PUSH2 0x17AF JUMP JUMPDEST PUSH1 0x1 PUSH1 0x1 PUSH1 0xA0 SHL SUB DUP1 DUP7 AND PUSH1 0x0 SWAP1 DUP2 MSTORE PUSH1 0x20 SWAP3 DUP4 MSTORE PUSH1 0x40 DUP1 DUP3 KECCAK256 DUP10 MLOAD SWAP1 SWAP4 AND DUP3 MSTORE SWAP2 SWAP1 SWAP3 MSTORE DUP1 DUP3 KECCAK256 SWAP1 DUP8 ADD MLOAD SWAP1 SWAP3 POP PUSH2 0x1F66 SWAP1 PUSH2 0xFFFF AND PUSH2 0x3535 JUMP JUMPDEST DUP3 SLOAD SWAP1 SWAP2 POP PUSH1 0x1 PUSH1 0x1 PUSH1 0x50 SHL SUB PUSH5 0x100000000 DUP3 DIV DUP2 AND SWAP2 PUSH1 0x1 PUSH1 0x70 SHL SWAP1 DIV AND DUP2 ISZERO PUSH2 0x1FBD JUMPI PUSH2 0x1FBA PUSH2 0x1FB3 DUP5 DUP11 PUSH2 0x140 ADD MLOAD PUSH1 0x0 PUSH1 0x2 DUP2 LT PUSH2 0x1FA5 JUMPI INVALID JUMPDEST PUSH1 0x20 MUL ADD MLOAD DUP12 MLOAD DUP11 DUP8 PUSH2 0x3698 JUMP JUMPDEST DUP7 SWAP1 PUSH2 0x1FF8 JUMP JUMPDEST SWAP5 POP JUMPDEST DUP1 ISZERO PUSH2 0x1FED JUMPI PUSH2 0x1FEA PUSH2 0x1FB3 DUP5 DUP11 PUSH2 0x140 ADD MLOAD PUSH1 0x1 PUSH1 0x2 DUP2 LT PUSH2 0x1FDC JUMPI INVALID JUMPDEST PUSH1 0x20 MUL ADD MLOAD DUP12 MLOAD DUP11 DUP7 PUSH2 0x3698 JUMP JUMPDEST SWAP5 POP JUMPDEST POP POP POP POP SWAP4 SWAP3 POP POP POP JUMP JUMPDEST DUP2 DUP2 ADD DUP3 DUP2 SLT ISZERO PUSH1 0x0 DUP4 SLT ISZERO EQ PUSH2 0xBDB JUMPI PUSH1 0x0 DUP1 REVERT JUMPDEST PUSH1 0x0 DUP1 PUSH2 0x1B4F DUP5 PUSH1 0x20 ADD MLOAD PUSH2 0xEA3 DUP7 PUSH1 0x40 ADD MLOAD PUSH2 0x1441 PUSH5 0x2540BE400 DUP9 PUSH2 0x2081 SWAP1 SWAP2 SWAP1 PUSH4 0xFFFFFFFF AND JUMP JUMPDEST DUP1 DUP3 SUB DUP3 DUP2 SGT ISZERO PUSH1 0x0 DUP4 SLT ISZERO EQ PUSH2 0xBDB JUMPI PUSH1 0x0 DUP1 REVERT JUMPDEST PUSH1 0x0 PUSH2 0xBD8 PUSH2 0x2062 DUP5 PUSH4 0x3B9ACA00 PUSH2 0x2081 JUMP JUMPDEST DUP4 PUSH2 0x20CF JUMP JUMPDEST PUSH1 0x0 PUSH2 0xBD8 PUSH2 0x2077 DUP5 DUP5 PUSH2 0x2081 JUMP JUMPDEST PUSH4 0x3B9ACA00 PUSH2 0x20CF JUMP JUMPDEST DUP2 DUP2 MUL PUSH1 0x0 NOT DUP4 EQ ISZERO PUSH2 0x20B1 JUMPI DUP2 ISZERO DUP1 PUSH2 0x20A3 JUMPI POP DUP3 DUP3 DUP3 DUP2 PUSH2 0x20A0 JUMPI INVALID JUMPDEST SDIV EQ JUMPDEST PUSH2 0x20AC JUMPI PUSH1 0x0 DUP1 REVERT JUMPDEST PUSH2 0xBDB JUMP JUMPDEST DUP3 ISZERO DUP1 PUSH2 0x20C6 JUMPI POP DUP2 DUP4 DUP3 DUP2 PUSH2 0x20C3 JUMPI INVALID JUMPDEST SDIV EQ JUMPDEST PUSH2 0xBDB JUMPI PUSH1 0x0 DUP1 REVERT JUMPDEST PUSH1 0x0 DUP2 PUSH1 0x0 NOT EQ DUP1 ISZERO PUSH2 0x20E5 JUMPI POP PUSH1 0x1 PUSH1 0xFF SHL DUP4 EQ JUMPDEST ISZERO PUSH2 0x20EF JUMPI PUSH1 0x0 DUP1 REVERT JUMPDEST DUP2 DUP4 DUP2 PUSH2 0x20F8 JUMPI INVALID JUMPDEST SDIV SWAP4 SWAP3 POP POP POP JUMP JUMPDEST PUSH2 0x2108 PUSH2 0x4DD5 JUMP JUMPDEST PUSH1 0x0 DUP1 PUSH1 0x0 PUSH2 0x1E5B DUP6 PUSH2 0x3749 JUMP JUMPDEST PUSH1 0x0 DUP1 PUSH2 0x2123 DUP5 DUP5 PUSH2 0x17BC JUMP JUMPDEST PUSH1 0x80 DUP7 ADD MLOAD SWAP2 SWAP4 POP SWAP2 POP PUSH2 0x2137 SWAP1 DUP4 PUSH2 0x1B0F JUMP JUMPDEST PUSH1 0x80 DUP6 ADD MSTORE PUSH1 0xA0 DUP5 ADD MLOAD PUSH2 0x214B SWAP1 DUP3 PUSH2 0x1B0F JUMP JUMPDEST PUSH1 0xA0 DUP6 ADD MSTORE PUSH1 0x60 DUP5 ADD MLOAD PUSH2 0x215F SWAP1 DUP5 PUSH2 0x1B0F JUMP JUMPDEST PUSH1 0x60 SWAP1 SWAP5 ADD SWAP4 SWAP1 SWAP4 MSTORE SWAP3 SWAP1 POP JUMP JUMPDEST PUSH1 0x0 DUP1 PUSH2 0x217C DUP9 DUP9 DUP7 DUP7 PUSH2 0x254A JUMP JUMPDEST SWAP1 POP PUSH1 0x0 PUSH2 0x2189 DUP8 PUSH2 0x37CE JUMP JUMPDEST SWAP1 POP PUSH11 0xFFFFFFFFFFFFFFFFFFFFFF DUP2 LT PUSH2 0x21A2 JUMPI PUSH1 0x0 DUP1 REVERT JUMPDEST PUSH1 0x0 PUSH1 0x78 DUP8 PUSH4 0xFFFFFFFF AND SWAP1 SHL PUSH1 0x98 DUP4 SWAP1 SHL PUSH1 0xF0 DUP6 SWAP1 SHL PUSH1 0xF8 PUSH1 0x0 DUP13 SGT PUSH2 0x21CA JUMPI PUSH1 0x1 PUSH2 0x21CD JUMP JUMPDEST PUSH1 0x0 JUMPDEST PUSH1 0x5 DUP2 GT ISZERO PUSH2 0x21D8 JUMPI INVALID JUMPDEST PUSH1 0xFF AND SWAP1 SHL OR OR OR PUSH1 0x0 SHL SWAP1 POP PUSH20 0x0 PUSH4 0xE50F349E DUP12 DUP4 PUSH1 0x40 MLOAD DUP4 PUSH4 0xFFFFFFFF AND PUSH1 0xE0 SHL DUP2 MSTORE PUSH1 0x4 ADD PUSH2 0x221E SWAP3 SWAP2 SWAP1 PUSH2 0x5701 JUMP JUMPDEST PUSH1 0x20 PUSH1 0x40 MLOAD DUP1 DUP4 SUB DUP2 DUP7 DUP1 EXTCODESIZE ISZERO DUP1 ISZERO PUSH2 0x2236 JUMPI PUSH1 0x0 DUP1 REVERT JUMPDEST POP GAS DELEGATECALL ISZERO DUP1 ISZERO PUSH2 0x224A JUMPI RETURNDATASIZE PUSH1 0x0 DUP1 RETURNDATACOPY RETURNDATASIZE PUSH1 0x0 REVERT JUMPDEST POP POP POP POP PUSH1 0x40 MLOAD RETURNDATASIZE PUSH1 0x1F NOT PUSH1 0x1F DUP3 ADD AND DUP3 ADD DUP1 PUSH1 0x40 MSTORE POP DUP2 ADD SWAP1 PUSH2 0x226E SWAP2 SWAP1 PUSH2 0x5136 JUMP JUMPDEST SWAP11 SWAP10 POP POP POP POP POP POP POP POP POP POP JUMP JUMPDEST PUSH1 0x0 PUSH1 0x1 PUSH1 0x1 PUSH1 0x50 SHL SUB DUP3 GT ISZERO PUSH2 0xEE5 JUMPI PUSH1 0x0 DUP1 REVERT JUMPDEST PUSH2 0x229A PUSH2 0x4DA6 JUMP JUMPDEST PUSH2 0x22A2 PUSH2 0x4DA6 JUMP JUMPDEST PUSH2 0x22B3 DUP4 PUSH1 0x40 ADD MLOAD PUSH2 0xFFFF AND PUSH2 0x1A13 JUMP JUMPDEST SWAP2 POP PUSH1 0x4 DUP3 PUSH1 0x60 ADD MLOAD PUSH1 0x5 DUP2 GT ISZERO PUSH2 0x22C7 JUMPI INVALID JUMPDEST EQ PUSH2 0x22E2 JUMPI PUSH2 0x22DD DUP4 PUSH1 0x40 ADD MLOAD PUSH2 0xFFFF AND PUSH2 0x3038 JUMP JUMPDEST PUSH2 0x22E4 JUMP JUMPDEST DUP2 JUMPDEST SWAP1 POP SWAP2 POP SWAP2 JUMP JUMPDEST DUP1 PUSH1 0x5 DUP6 PUSH1 0x60 ADD MLOAD PUSH1 0x5 DUP2 GT ISZERO PUSH2 0x22FE JUMPI INVALID JUMPDEST EQ ISZERO PUSH2 0x2323 JUMPI PUSH1 0x0 PUSH2 0x230F DUP5 PUSH2 0x3038 JUMP JUMPDEST SWAP1 POP PUSH2 0x231F DUP2 PUSH1 0x0 ADD MLOAD DUP5 PUSH2 0x37EF JUMP JUMPDEST SWAP3 POP POP JUMPDEST PUSH1 0x0 DUP3 SGT ISZERO PUSH2 0x234F JUMPI PUSH1 0x0 PUSH2 0x2339 DUP7 DUP7 DUP6 PUSH2 0x387E JUMP JUMPDEST SWAP1 POP DUP6 PUSH1 0x20 ADD MLOAD ISZERO PUSH2 0x2349 JUMPI DUP1 SWAP2 POP JUMPDEST POP PUSH2 0x1B4F JUMP JUMPDEST PUSH1 0x3 DUP6 PUSH1 0x60 ADD MLOAD PUSH1 0x5 DUP2 GT ISZERO PUSH2 0x2361 JUMPI INVALID JUMPDEST EQ ISZERO PUSH2 0x237E JUMPI PUSH2 0x2379 DUP5 PUSH2 0x2374 DUP5 PUSH2 0x1035 JUMP JUMPDEST PUSH2 0x304B JUMP JUMPDEST PUSH2 0x1B4F JUMP JUMPDEST DUP5 MLOAD PUSH2 0x1B4F SWAP1 DUP6 PUSH2 0x238E DUP6 PUSH2 0x1035 JUMP JUMPDEST PUSH2 0x3967 JUMP JUMPDEST PUSH1 0x0 DUP1 PUSH1 0x5 DUP6 PUSH1 0x60 ADD MLOAD PUSH1 0x5 DUP2 GT ISZERO PUSH2 0x23A8 JUMPI INVALID JUMPDEST EQ PUSH2 0x23BA JUMPI PUSH4 0x70A08231 PUSH1 0xE0 SHL PUSH2 0x23C3 JUMP JUMPDEST PUSH4 0xED1279F PUSH1 0xE1 SHL JUMPDEST SWAP1 POP PUSH1 0x0 PUSH2 0x23D6 DUP7 PUSH1 0x0 ADD MLOAD ADDRESS DUP5 PUSH2 0x39DE JUMP JUMPDEST SWAP1 POP PUSH1 0x5 DUP7 PUSH1 0x60 ADD MLOAD PUSH1 0x5 DUP2 GT ISZERO PUSH2 0x23EA JUMPI INVALID JUMPDEST EQ ISZERO PUSH2 0x2411 JUMPI PUSH1 0x0 PUSH2 0x23FF DUP7 PUSH2 0xFFFF AND PUSH2 0x3038 JUMP JUMPDEST SWAP1 POP PUSH2 0x240B DUP2 DUP7 PUSH2 0x3AF0 JUMP JUMPDEST POP PUSH2 0x245A JUMP JUMPDEST PUSH1 0x1 DUP7 PUSH1 0x60 ADD MLOAD PUSH1 0x5 DUP2 GT ISZERO PUSH2 0x2423 JUMPI INVALID JUMPDEST EQ ISZERO PUSH2 0x2438 JUMPI PUSH2 0x2433 DUP7 DUP6 PUSH2 0x3B5B JUMP JUMPDEST PUSH2 0x245A JUMP JUMPDEST PUSH1 0x2 DUP7 PUSH1 0x60 ADD MLOAD PUSH1 0x5 DUP2 GT ISZERO PUSH2 0x244A JUMPI INVALID JUMPDEST EQ ISZERO PUSH2 0x9C JUMPI PUSH2 0x2433 DUP7 DUP6 PUSH2 0x3BFD JUMP JUMPDEST PUSH1 0x0 PUSH2 0x246B DUP8 PUSH1 0x0 ADD MLOAD ADDRESS DUP6 PUSH2 0x39DE JUMP JUMPDEST SWAP1 POP PUSH2 0x247F PUSH2 0x247A DUP3 DUP5 PUSH2 0x3C50 JUMP JUMPDEST PUSH2 0x15C5 JUMP JUMPDEST SWAP8 SWAP7 POP POP POP POP POP POP POP JUMP JUMPDEST PUSH1 0x0 PUSH4 0x5F5E100 DUP4 PUSH1 0x40 ADD MLOAD EQ ISZERO PUSH2 0x24A3 JUMPI POP DUP1 PUSH2 0xBDB JUMP JUMPDEST PUSH1 0x40 DUP4 ADD MLOAD PUSH2 0xBD8 SWAP1 PUSH2 0xEA3 DUP5 PUSH4 0x5F5E100 PUSH2 0x2081 JUMP JUMPDEST PUSH1 0x0 DUP3 SLT PUSH2 0x24C7 JUMPI PUSH1 0x0 DUP1 REVERT JUMPDEST PUSH1 0x0 PUSH2 0x24E0 DUP7 PUSH1 0x40 ADD MLOAD DUP6 DUP6 DUP6 DUP11 PUSH2 0x100 ADD MLOAD TIMESTAMP PUSH2 0x216D JUMP JUMPDEST SWAP1 POP PUSH1 0x0 DUP2 SGT PUSH2 0x2502 JUMPI PUSH1 0x40 MLOAD PUSH3 0x461BCD PUSH1 0xE5 SHL DUP2 MSTORE PUSH1 0x4 ADD PUSH2 0x317 SWAP1 PUSH2 0x5598 JUMP JUMPDEST PUSH2 0x250F DUP8 DUP8 DUP8 DUP7 DUP6 PUSH2 0x1B57 JUMP JUMPDEST DUP7 MLOAD PUSH2 0x251A SWAP1 PUSH2 0x1035 JUMP JUMPDEST DUP7 PUSH1 0x60 ADD MLOAD SGT ISZERO PUSH2 0x253D JUMPI PUSH1 0x40 MLOAD PUSH3 0x461BCD PUSH1 0xE5 SHL DUP2 MSTORE PUSH1 0x4 ADD PUSH2 0x317 SWAP1 PUSH2 0x55BF JUMP JUMPDEST PUSH2 0x10C8 DUP7 DUP9 DUP4 DUP8 TIMESTAMP PUSH2 0x3CA7 JUMP JUMPDEST PUSH1 0x0 DUP1 PUSH1 0x0 PUSH2 0x255C DUP8 PUSH2 0xFFFF AND PUSH2 0x3DA2 JUMP JUMPDEST SWAP1 POP PUSH2 0x256C DUP2 PUSH1 0xFF AND DUP8 DUP7 PUSH2 0x3DB8 JUMP JUMPDEST SWAP1 SWAP4 POP SWAP2 POP DUP5 DUP4 GT ISZERO PUSH2 0x2591 JUMPI PUSH1 0x40 MLOAD PUSH3 0x461BCD PUSH1 0xE5 SHL DUP2 MSTORE PUSH1 0x4 ADD PUSH2 0x317 SWAP1 PUSH2 0x540E JUMP JUMPDEST DUP2 ISZERO PUSH2 0x25AF JUMPI PUSH1 0x40 MLOAD PUSH3 0x461BCD PUSH1 0xE5 SHL DUP2 MSTORE PUSH1 0x4 ADD PUSH2 0x317 SWAP1 PUSH2 0x540E JUMP JUMPDEST POP POP SWAP5 SWAP4 POP POP POP POP JUMP JUMPDEST PUSH1 0x0 DUP8 PUSH1 0x80 ADD MLOAD PUSH1 0x0 EQ PUSH2 0x25CC JUMPI PUSH1 0x0 DUP1 REVERT JUMPDEST PUSH1 0x0 DUP8 PUSH1 0x80 ADD MLOAD SLT ISZERO PUSH2 0x25DE JUMPI PUSH1 0x0 DUP1 REVERT JUMPDEST DUP8 MLOAD PUSH1 0x20 DUP9 ADD MLOAD LT ISZERO PUSH2 0x2606 JUMPI PUSH1 0x40 DUP8 ADD MLOAD ISZERO PUSH2 0x25FA JUMPI PUSH1 0x0 DUP1 REVERT JUMPDEST DUP8 MLOAD PUSH1 0x20 DUP9 ADD MSTORE PUSH2 0x2617 JUMP JUMPDEST DUP8 MLOAD PUSH1 0x20 DUP9 ADD MLOAD EQ PUSH2 0x2617 JUMPI PUSH1 0x0 DUP1 REVERT JUMPDEST PUSH1 0x0 DUP6 ISZERO PUSH2 0x2632 JUMPI PUSH2 0x262F DUP10 DUP10 DUP9 DUP11 PUSH1 0x0 ADD MLOAD PUSH2 0x3E80 JUMP JUMPDEST SWAP1 POP JUMPDEST PUSH1 0x60 DUP9 ADD MLOAD PUSH1 0x80 DUP10 ADD MLOAD DUP11 MLOAD PUSH1 0x0 SWAP3 PUSH2 0x264F SWAP3 DUP12 SWAP3 DUP11 DUP11 DUP11 PUSH2 0x3EFE JUMP JUMPDEST SWAP1 POP PUSH2 0x266B PUSH2 0x2664 DUP12 DUP12 DUP5 DUP13 PUSH1 0x0 ADD MLOAD PUSH2 0x3E80 JUMP JUMPDEST DUP4 SWAP1 PUSH2 0x3344 JUMP JUMPDEST SWAP2 POP DUP9 PUSH1 0x60 ADD MLOAD PUSH1 0x1 PUSH1 0x1 PUSH1 0xA0 SHL SUB AND DUP11 PUSH1 0x0 ADD MLOAD DUP10 PUSH1 0x0 ADD MLOAD PUSH1 0x1 PUSH1 0x1 PUSH1 0xA0 SHL SUB AND PUSH32 0xF0B1FFF1C6815D2739F7CB03ADBB99177A10DAAE11921A3AE1712F20EA52EB9A DUP10 DUP14 PUSH1 0x80 ADD MLOAD DUP13 DUP9 PUSH1 0x40 MLOAD PUSH2 0x26C7 SWAP5 SWAP4 SWAP3 SWAP2 SWAP1 PUSH2 0x52DA JUMP JUMPDEST PUSH1 0x40 MLOAD DUP1 SWAP2 SUB SWAP1 LOG4 PUSH1 0x0 PUSH1 0x80 DUP11 ADD MSTORE PUSH2 0x226E DUP8 DUP3 PUSH2 0x3344 JUMP JUMPDEST PUSH2 0x26E8 PUSH2 0x4DD5 JUMP JUMPDEST PUSH1 0x0 DUP1 PUSH2 0x26F5 DUP7 DUP7 PUSH2 0x3FB4 JUMP JUMPDEST SWAP2 POP SWAP2 POP DUP2 PUSH1 0x0 EQ ISZERO PUSH2 0x2825 JUMPI PUSH1 0x0 PUSH2 0x270D DUP8 PUSH2 0x3749 JUMP JUMPDEST SWAP2 SWAP5 POP SWAP1 SWAP3 POP SWAP1 POP PUSH1 0x1 PUSH1 0x1 PUSH1 0xA0 SHL SUB DUP2 AND ISZERO PUSH2 0x2823 JUMPI PUSH1 0x0 PUSH2 0x272E PUSH2 0x3FFD JUMP JUMPDEST SWAP1 POP DUP6 PUSH1 0x0 LT DUP1 ISZERO PUSH2 0x2740 JUMPI POP DUP6 DUP8 GT ISZERO JUMPDEST DUP1 ISZERO PUSH2 0x2751 JUMPI POP PUSH5 0xFFFFFFFFFF DUP7 GT ISZERO JUMPDEST PUSH2 0x275A JUMPI PUSH1 0x0 DUP1 REVERT JUMPDEST DUP4 PUSH1 0x0 SLT DUP1 ISZERO PUSH2 0x2771 JUMPI POP PUSH1 0x1 PUSH1 0x1 PUSH1 0x80 SHL SUB DUP5 SGT ISZERO JUMPDEST PUSH2 0x277A JUMPI PUSH1 0x0 DUP1 REVERT JUMPDEST PUSH1 0x0 DUP9 DUP2 MSTORE PUSH1 0x20 DUP3 DUP2 MSTORE PUSH1 0x40 DUP1 DUP4 KECCAK256 DUP11 DUP5 MSTORE SWAP1 SWAP2 MSTORE SWAP1 DUP2 SWAP1 KECCAK256 DUP1 SLOAD PUSH5 0xFFFFFFFFFF NOT AND PUSH5 0xFFFFFFFFFF DUP10 AND OR PUSH21 0xFFFFFFFFFFFFFFFFFFFFFFFFFFFFFFFF0000000000 NOT AND PUSH6 0x10000000000 PUSH1 0x1 PUSH1 0x1 PUSH1 0x80 SHL SUB DUP9 AND MUL OR PUSH1 0xFF PUSH1 0xA8 SHL NOT AND PUSH1 0x1 PUSH1 0xA8 SHL PUSH1 0xFF DUP8 AND MUL OR DUP2 SSTORE SWAP1 MLOAD DUP9 SWAP1 DUP11 SWAP1 PUSH32 0xFDFA6885701E2F1F42E4187B9231CF81C1FE23671EF64FA46F34DDB56C1DC18 SWAP1 PUSH2 0x2818 SWAP1 DUP10 SWAP1 PUSH2 0x56ED JUMP JUMPDEST PUSH1 0x40 MLOAD DUP1 SWAP2 SUB SWAP1 LOG3 POP POP JUMPDEST POP JUMPDEST PUSH1 0x40 DUP1 MLOAD PUSH1 0x60 DUP2 ADD DUP3 MSTORE PUSH1 0x0 DUP2 MSTORE PUSH1 0x20 DUP2 ADD SWAP4 SWAP1 SWAP4 MSTORE PUSH1 0xFF SWAP1 SWAP2 AND PUSH1 0xA EXP SWAP1 DUP3 ADD MSTORE SWAP1 POP SWAP4 SWAP3 POP POP POP JUMP JUMPDEST PUSH1 0x0 DUP1 PUSH2 0x2874 PUSH2 0x286D PUSH2 0x2866 DUP9 PUSH1 0x80 ADD MLOAD PUSH2 0x15C5 JUMP JUMPDEST DUP7 SWAP1 PUSH2 0x1B24 JUMP JUMPDEST DUP5 SWAP1 PUSH2 0x1FF8 JUMP JUMPDEST SWAP1 POP PUSH2 0x287F DUP6 PUSH2 0x2F77 JUMP JUMPDEST ISZERO PUSH2 0x2993 JUMPI PUSH1 0x0 PUSH2 0x288E PUSH2 0x17AF JUMP JUMPDEST PUSH1 0x60 DUP10 ADD MLOAD PUSH1 0x1 PUSH1 0x1 PUSH1 0xA0 SHL SUB SWAP1 DUP2 AND PUSH1 0x0 SWAP1 DUP2 MSTORE PUSH1 0x20 SWAP3 DUP4 MSTORE PUSH1 0x40 DUP1 DUP3 KECCAK256 DUP11 MLOAD SWAP1 SWAP4 AND DUP3 MSTORE SWAP2 SWAP1 SWAP3 MSTORE DUP2 KECCAK256 DUP8 MLOAD DUP10 MLOAD PUSH2 0x140 DUP11 ADD MLOAD MLOAD DUP4 SLOAD SWAP4 SWAP6 POP DUP5 SWAP4 PUSH2 0x28E9 SWAP4 SWAP3 SWAP2 SWAP1 PUSH5 0x100000000 SWAP1 DIV PUSH1 0x1 PUSH1 0x1 PUSH1 0x50 SHL SUB AND PUSH2 0x400A JUMP JUMPDEST SWAP1 SWAP3 POP SWAP1 POP PUSH2 0x28F8 DUP5 DUP4 PUSH2 0x1FF8 JUMP JUMPDEST SWAP4 POP PUSH2 0x2904 DUP6 DUP3 PUSH2 0x2039 JUMP JUMPDEST DUP9 MLOAD DUP11 MLOAD PUSH2 0x140 DUP12 ADD MLOAD PUSH1 0x20 ADD MLOAD DUP7 SLOAD SWAP4 SWAP9 POP PUSH2 0x2930 SWAP4 PUSH1 0x1 PUSH1 0x70 SHL SWAP1 DIV PUSH1 0x1 PUSH1 0x1 PUSH1 0x50 SHL SUB AND PUSH2 0x400A JUMP JUMPDEST SWAP1 SWAP3 POP SWAP1 POP PUSH2 0x293F DUP5 DUP4 PUSH2 0x1FF8 JUMP JUMPDEST SWAP4 POP PUSH2 0x294B DUP6 DUP3 PUSH2 0x2039 JUMP JUMPDEST SWAP5 POP PUSH2 0x2955 PUSH2 0x17AF JUMP JUMPDEST PUSH1 0x60 DUP12 ADD MLOAD PUSH1 0x1 PUSH1 0x1 PUSH1 0xA0 SHL SUB SWAP1 DUP2 AND PUSH1 0x0 SWAP1 DUP2 MSTORE PUSH1 0x20 SWAP3 DUP4 MSTORE PUSH1 0x40 DUP1 DUP3 KECCAK256 DUP13 MLOAD SWAP1 SWAP4 AND DUP3 MSTORE SWAP2 SWAP1 SWAP3 MSTORE SWAP1 KECCAK256 DUP1 SLOAD PUSH1 0x1 PUSH1 0x1 PUSH1 0xC0 SHL SUB NOT AND SWAP1 SSTORE POP POP POP JUMPDEST PUSH2 0x29C6 PUSH2 0x29BF DUP9 PUSH1 0x0 ADD MLOAD PUSH2 0xD77 PUSH2 0x29AE DUP11 PUSH1 0x60 ADD MLOAD PUSH2 0x15C5 JUMP JUMPDEST PUSH2 0xEA3 DUP7 PUSH2 0x1441 DUP15 PUSH1 0x40 ADD MLOAD PUSH2 0x15C5 JUMP JUMPDEST DUP4 SWAP1 PUSH2 0x1FF8 JUMP JUMPDEST SWAP2 POP PUSH1 0x0 DUP3 SLT ISZERO PUSH2 0x29E8 JUMPI PUSH2 0x29DE PUSH2 0x1310 DUP6 DUP5 PUSH2 0x200E JUMP JUMPDEST PUSH1 0x80 DUP9 ADD MSTORE PUSH1 0x0 SWAP2 POP JUMPDEST POP SWAP6 SWAP5 POP POP POP POP POP JUMP JUMPDEST PUSH1 0x0 DUP1 PUSH1 0x0 PUSH2 0x2A1E PUSH2 0x2A11 DUP9 PUSH1 0x20 ADD MLOAD DUP9 PUSH2 0x200E SWAP1 SWAP2 SWAP1 PUSH4 0xFFFFFFFF AND JUMP JUMPDEST PUSH2 0xD77 DUP10 PUSH1 0x80 ADD MLOAD PUSH2 0x15C5 JUMP JUMPDEST SWAP1 POP PUSH1 0x0 PUSH2 0x2A30 DUP6 PUSH2 0xD77 DUP10 DUP6 PUSH2 0x1B24 JUMP JUMPDEST SWAP1 POP DUP1 ISZERO PUSH2 0x2A69 JUMPI PUSH2 0x2A56 PUSH2 0x1124 DUP3 PUSH2 0xEA3 PUSH2 0x2A4F DUP13 PUSH1 0xA0 ADD MLOAD PUSH2 0x15C5 JUMP JUMPDEST DUP11 SWAP1 PUSH2 0x2081 JUMP JUMPDEST SWAP3 POP PUSH2 0x2A66 DUP2 PUSH2 0xEA3 DUP9 DUP6 PUSH2 0x2081 JUMP JUMPDEST SWAP4 POP JUMPDEST POP POP PUSH1 0x0 PUSH2 0x2A75 PUSH2 0x409E JUMP JUMPDEST DUP9 MLOAD PUSH1 0x1 PUSH1 0x1 PUSH1 0xA0 SHL SUB AND PUSH1 0x0 SWAP1 DUP2 MSTORE PUSH1 0x20 SWAP2 DUP3 MSTORE PUSH1 0x40 DUP1 DUP3 KECCAK256 DUP11 MLOAD DUP4 MSTORE SWAP1 SWAP3 MSTORE KECCAK256 DUP1 SLOAD SWAP1 SWAP2 POP PUSH1 0x1 PUSH1 0x1 PUSH1 0x50 SHL SUB DUP2 AND SWAP1 PUSH1 0x1 PUSH1 0x50 SHL SWAP1 DIV PUSH1 0x9 SWAP1 DUP2 SIGNEXTEND SWAP1 SIGNEXTEND DUP4 DUP3 LT ISZERO PUSH2 0x2AF2 JUMPI PUSH2 0x2AE5 PUSH2 0x1FB3 PUSH2 0x2ADE PUSH4 0x5F5E100 PUSH2 0xEA3 DUP14 PUSH1 0xC0 ADD MLOAD PUSH2 0x1441 DUP9 DUP12 SUB PUSH2 0x15C5 JUMP JUMPDEST DUP11 SWAP1 PUSH2 0x200E JUMP JUMPDEST SWAP5 POP SWAP1 SWAP3 POP PUSH1 0x0 SWAP1 PUSH2 0x2AF8 JUMP JUMPDEST DUP4 DUP3 SUB SWAP2 POP JUMPDEST DUP3 SLOAD PUSH1 0x1 PUSH1 0x1 PUSH1 0x50 SHL SUB NOT AND PUSH1 0x1 PUSH1 0x1 PUSH1 0x50 SHL SUB DUP4 AND OR DUP4 SSTORE PUSH1 0x0 DUP6 SLT ISZERO PUSH2 0x2B1F JUMPI PUSH1 0x0 DUP1 REVERT JUMPDEST DUP5 DUP2 SLT ISZERO PUSH2 0x2B92 JUMPI PUSH1 0x0 DUP1 DUP3 SGT PUSH2 0x2B36 JUMPI DUP6 PUSH2 0x2B3A JUMP JUMPDEST DUP2 DUP7 SUB JUMPDEST SWAP1 POP PUSH1 0x0 PUSH2 0x2B56 DUP13 PUSH1 0x0 ADD MLOAD DUP14 PUSH1 0x40 ADD MLOAD DUP5 DUP15 PUSH1 0x0 ADD MLOAD PUSH2 0x40AB JUMP JUMPDEST SWAP1 POP PUSH1 0x0 DUP4 SGT ISZERO PUSH2 0x2B87 JUMPI PUSH2 0x2B6B DUP4 DUP3 PUSH2 0x1FF8 JUMP JUMPDEST DUP6 SLOAD PUSH1 0x1 PUSH1 0x50 SHL PUSH1 0x1 PUSH1 0xA0 SHL SUB NOT AND DUP7 SSTORE SWAP7 POP PUSH1 0x0 SWAP3 POP PUSH2 0x2B8B JUMP JUMPDEST DUP1 SWAP7 POP JUMPDEST POP POP PUSH2 0x2BD1 JUMP JUMPDEST PUSH2 0x2B9C DUP2 DUP7 PUSH2 0x2039 JUMP JUMPDEST SWAP1 POP PUSH2 0x2BA7 DUP2 PUSH2 0x41D3 JUMP JUMPDEST DUP4 SLOAD PUSH1 0x9 SWAP2 SWAP1 SWAP2 SIGNEXTEND PUSH1 0x1 PUSH1 0x1 PUSH1 0x50 SHL SUB AND PUSH1 0x1 PUSH1 0x50 SHL MUL PUSH1 0x1 PUSH1 0x50 SHL PUSH1 0x1 PUSH1 0xA0 SHL SUB NOT SWAP1 SWAP2 AND OR DUP4 SSTORE JUMPDEST DUP9 PUSH1 0x0 ADD MLOAD DUP11 PUSH1 0x0 ADD MLOAD PUSH1 0x1 PUSH1 0x1 PUSH1 0xA0 SHL SUB AND PUSH32 0xF5B347A56F0B5140F05EEC05FF743978670A56685689FDC2C3193D71CFAC31A9 DUP4 DUP6 PUSH1 0x40 MLOAD PUSH2 0x2C15 SWAP3 SWAP2 SWAP1 PUSH2 0x52CC JUMP JUMPDEST PUSH1 0x40 MLOAD DUP1 SWAP2 SUB SWAP1 LOG3 POP POP POP SWAP6 POP SWAP6 SWAP4 POP POP POP POP JUMP JUMPDEST PUSH1 0x0 PUSH4 0x5F5E100 DUP4 PUSH1 0x40 ADD MLOAD EQ ISZERO PUSH2 0x2C43 JUMPI POP DUP1 PUSH2 0xBDB JUMP JUMPDEST PUSH2 0xBD8 PUSH4 0x5F5E100 PUSH2 0xEA3 DUP6 PUSH1 0x40 ADD MLOAD DUP6 PUSH2 0x2081 SWAP1 SWAP2 SWAP1 PUSH4 0xFFFFFFFF AND JUMP JUMPDEST PUSH1 0x0 DUP1 PUSH1 0x2 DUP7 PUSH1 0x60 ADD MLOAD PUSH1 0x5 DUP2 GT ISZERO PUSH2 0x2C77 JUMPI INVALID JUMPDEST EQ ISZERO PUSH2 0x2C8F JUMPI PUSH2 0x2C88 DUP7 DUP6 DUP6 PUSH2 0x4203 JUMP JUMPDEST SWAP1 POP PUSH2 0x2CEC JUMP JUMPDEST PUSH1 0x0 PUSH2 0x2C9A DUP7 PUSH2 0x3038 JUMP JUMPDEST SWAP1 POP PUSH1 0x5 DUP8 PUSH1 0x60 ADD MLOAD PUSH1 0x5 DUP2 GT ISZERO PUSH2 0x2CAE JUMPI INVALID JUMPDEST EQ ISZERO PUSH2 0x2CC6 JUMPI PUSH2 0x2CBF DUP2 DUP7 DUP7 PUSH2 0x42C0 JUMP JUMPDEST SWAP2 POP PUSH2 0x2CEA JUMP JUMPDEST PUSH1 0x1 DUP8 PUSH1 0x60 ADD MLOAD PUSH1 0x5 DUP2 GT ISZERO PUSH2 0x2CD8 JUMPI INVALID JUMPDEST EQ ISZERO PUSH2 0x9C JUMPI PUSH2 0x2CBF DUP8 DUP3 DUP8 DUP8 PUSH2 0x4371 JUMP JUMPDEST POP JUMPDEST PUSH2 0x2CF8 PUSH2 0x10A5 DUP3 PUSH2 0x15C5 JUMP JUMPDEST SWAP7 SWAP6 POP POP POP POP POP POP JUMP JUMPDEST PUSH1 0x0 DUP1 PUSH1 0x0 DUP1 PUSH2 0x2D11 DUP9 PUSH2 0x2292 JUMP JUMPDEST SWAP2 POP SWAP2 POP PUSH1 0x0 DUP1 DUP9 PUSH1 0x80 ADD MLOAD SLT ISZERO PUSH2 0x2D86 JUMPI PUSH1 0x4 DUP4 PUSH1 0x60 ADD MLOAD PUSH1 0x5 DUP2 GT ISZERO PUSH2 0x2D35 JUMPI INVALID JUMPDEST EQ ISZERO PUSH2 0x2D52 JUMPI PUSH2 0x2D4B PUSH2 0x1124 DUP10 PUSH1 0x80 ADD MLOAD PUSH2 0x1035 JUMP JUMPDEST SWAP1 POP PUSH2 0x2D86 JUMP JUMPDEST PUSH1 0x0 PUSH2 0x2D73 PUSH2 0x10A5 DUP11 PUSH1 0x80 ADD MLOAD DUP13 PUSH2 0x160 ADD MLOAD PUSH2 0x1B24 SWAP1 SWAP2 SWAP1 PUSH4 0xFFFFFFFF AND JUMP JUMPDEST SWAP1 POP PUSH2 0x2D82 PUSH2 0x1124 DUP5 DUP4 PUSH2 0x446F JUMP JUMPDEST SWAP2 POP POP JUMPDEST PUSH1 0x40 DUP9 ADD MLOAD PUSH1 0x0 SWAP1 ISZERO PUSH2 0x2E5E JUMPI PUSH1 0x0 PUSH2 0x2D9F DUP5 ADDRESS PUSH2 0x44AB JUMP JUMPDEST SWAP1 POP DUP11 PUSH1 0x0 ADD MLOAD PUSH1 0x1 PUSH1 0x1 PUSH1 0xA0 SHL SUB AND PUSH4 0x44F05108 DUP12 PUSH1 0x0 ADD MLOAD DUP13 PUSH1 0x20 ADD MLOAD DUP14 PUSH1 0x40 ADD MLOAD DUP15 PUSH1 0x60 ADD MLOAD DUP9 DUP16 DUP16 PUSH1 0x40 MLOAD DUP9 PUSH4 0xFFFFFFFF AND PUSH1 0xE0 SHL DUP2 MSTORE PUSH1 0x4 ADD PUSH2 0x2DED SWAP8 SWAP7 SWAP6 SWAP5 SWAP4 SWAP3 SWAP2 SWAP1 PUSH2 0x51DB JUMP JUMPDEST PUSH1 0x20 PUSH1 0x40 MLOAD DUP1 DUP4 SUB DUP2 PUSH1 0x0 DUP8 DUP1 EXTCODESIZE ISZERO DUP1 ISZERO PUSH2 0x2E07 JUMPI PUSH1 0x0 DUP1 REVERT JUMPDEST POP GAS CALL ISZERO DUP1 ISZERO PUSH2 0x2E1B JUMPI RETURNDATASIZE PUSH1 0x0 DUP1 RETURNDATACOPY RETURNDATASIZE PUSH1 0x0 REVERT JUMPDEST POP POP POP POP PUSH1 0x40 MLOAD RETURNDATASIZE PUSH1 0x1F NOT PUSH1 0x1F DUP3 ADD AND DUP3 ADD DUP1 PUSH1 0x40 MSTORE POP DUP2 ADD SWAP1 PUSH2 0x2E3F SWAP2 SWAP1 PUSH2 0x5136 JUMP JUMPDEST SWAP6 POP PUSH1 0x0 PUSH2 0x2E4D DUP6 ADDRESS PUSH2 0x44AB JUMP JUMPDEST SWAP1 POP PUSH2 0x2E59 DUP2 DUP4 PUSH2 0x1B0F JUMP JUMPDEST SWAP3 POP POP POP JUMPDEST DUP2 DUP2 LT ISZERO PUSH2 0x2EF9 JUMPI DUP1 DUP3 SUB PUSH1 0x3 DUP5 PUSH1 0x60 ADD MLOAD PUSH1 0x5 DUP2 GT ISZERO PUSH2 0x2E7B JUMPI INVALID JUMPDEST EQ ISZERO PUSH2 0x2EB9 JUMPI CALLVALUE DUP2 GT ISZERO PUSH2 0x2EA1 JUMPI PUSH1 0x40 MLOAD PUSH3 0x461BCD PUSH1 0xE5 SHL DUP2 MSTORE PUSH1 0x4 ADD PUSH2 0x317 SWAP1 PUSH2 0x5388 JUMP JUMPDEST PUSH2 0x2EB1 DUP11 PUSH1 0x0 ADD MLOAD DUP3 CALLVALUE SUB PUSH2 0x304B JUMP JUMPDEST DUP3 SWAP2 POP PUSH2 0x2EF7 JUMP JUMPDEST PUSH1 0x0 PUSH2 0x2EDE DUP12 PUSH1 0x0 ADD MLOAD DUP14 PUSH1 0x40 ADD MLOAD PUSH2 0xFFFF AND PUSH2 0x2ED5 DUP6 PUSH2 0x15C5 JUMP JUMPDEST DUP9 SWAP3 SWAP2 SWAP1 PUSH2 0x22EB JUMP JUMPDEST SWAP1 POP PUSH2 0x2EF3 PUSH2 0x2EEC DUP3 PUSH2 0xED6 JUMP JUMPDEST DUP5 SWAP1 PUSH2 0x3344 JUMP JUMPDEST SWAP3 POP POP JUMPDEST POP JUMPDEST DUP2 DUP2 LT ISZERO PUSH2 0x2F19 JUMPI PUSH1 0x40 MLOAD PUSH3 0x461BCD PUSH1 0xE5 SHL DUP2 MSTORE PUSH1 0x4 ADD PUSH2 0x317 SWAP1 PUSH2 0x5388 JUMP JUMPDEST PUSH1 0x0 PUSH1 0x4 DUP6 PUSH1 0x60 ADD MLOAD PUSH1 0x5 DUP2 GT ISZERO PUSH2 0x2F2D JUMPI INVALID JUMPDEST EQ ISZERO PUSH2 0x2F43 JUMPI PUSH2 0x2F3C DUP3 PUSH2 0x15C5 JUMP JUMPDEST SWAP1 POP PUSH2 0x2F5D JUMP JUMPDEST DUP2 ISZERO PUSH2 0x2F5D JUMPI PUSH1 0x40 DUP12 ADD MLOAD PUSH2 0x2F5A SWAP1 DUP7 SWAP1 DUP5 PUSH2 0x2393 JUMP JUMPDEST SWAP1 POP JUMPDEST PUSH2 0x2F67 DUP6 DUP3 PUSH2 0x248A JUMP JUMPDEST SWAP7 POP POP POP POP POP POP SWAP5 POP SWAP5 SWAP3 POP POP POP JUMP JUMPDEST PUSH2 0x140 DUP2 ADD MLOAD MLOAD PUSH1 0x0 SWAP1 PUSH2 0xFFFF AND ISZERO ISZERO DUP1 PUSH2 0xBDB JUMPI POP POP PUSH2 0x140 ADD MLOAD PUSH1 0x20 ADD MLOAD PUSH2 0xFFFF AND ISZERO ISZERO SWAP1 JUMP JUMPDEST PUSH1 0x0 PUSH4 0xFFFFFFFF DUP3 GT ISZERO PUSH2 0xEE5 JUMPI PUSH1 0x0 DUP1 REVERT JUMPDEST PUSH1 0x0 PUSH3 0xF4240 DUP3 PUSH1 0x1A DUP2 GT ISZERO PUSH2 0x2FC5 JUMPI INVALID JUMPDEST ADD SWAP3 SWAP2 POP POP JUMP JUMPDEST PUSH1 0x0 DUP1 PUSH1 0x0 DUP1 PUSH1 0x0 DUP1 PUSH2 0x2FDD PUSH2 0x4555 JUMP JUMPDEST PUSH1 0x1 PUSH1 0x1 PUSH1 0xA0 SHL SUB SWAP1 SWAP8 AND PUSH1 0x0 SWAP1 DUP2 MSTORE PUSH1 0x20 SWAP8 SWAP1 SWAP8 MSTORE POP POP PUSH1 0x40 SWAP1 SWAP5 KECCAK256 SLOAD PUSH2 0xFFFF DUP2 AND SWAP6 PUSH4 0xFFFFFFFF PUSH3 0x10000 DUP4 DIV DUP2 AND SWAP7 POP PUSH7 0x1000000000000 DUP4 DIV AND SWAP5 POP PUSH1 0xFF PUSH1 0x1 PUSH1 0x50 SHL DUP4 DIV AND SWAP4 POP PUSH1 0x1 PUSH1 0x58 SHL SWAP1 SWAP2 DIV PUSH1 0xD8 SHL SWAP2 POP JUMP JUMPDEST PUSH2 0x3040 PUSH2 0x4DA6 JUMP JUMPDEST PUSH2 0xBDB DUP3 PUSH1 0x1 PUSH2 0x3109 JUMP JUMPDEST PUSH1 0x40 MLOAD PUSH1 0x1 PUSH1 0x1 PUSH1 0xA0 SHL SUB DUP4 AND SWAP1 DUP3 ISZERO PUSH2 0x8FC MUL SWAP1 DUP4 SWAP1 PUSH1 0x0 DUP2 DUP2 DUP2 DUP6 DUP9 DUP9 CALL SWAP4 POP POP POP POP ISZERO DUP1 ISZERO PUSH2 0xFBC JUMPI RETURNDATASIZE PUSH1 0x0 DUP1 RETURNDATACOPY RETURNDATASIZE PUSH1 0x0 REVERT JUMPDEST DUP4 PUSH1 0x1 PUSH1 0x1 PUSH1 0xA0 SHL SUB AND PUSH4 0x23B872DD DUP5 DUP5 DUP5 PUSH1 0x40 MLOAD DUP5 PUSH4 0xFFFFFFFF AND PUSH1 0xE0 SHL DUP2 MSTORE PUSH1 0x4 ADD DUP1 DUP5 PUSH1 0x1 PUSH1 0x1 PUSH1 0xA0 SHL SUB AND DUP2 MSTORE PUSH1 0x20 ADD DUP4 PUSH1 0x1 PUSH1 0x1 PUSH1 0xA0 SHL SUB AND DUP2 MSTORE PUSH1 0x20 ADD DUP3 DUP2 MSTORE PUSH1 0x20 ADD SWAP4 POP POP POP POP PUSH1 0x0 PUSH1 0x40 MLOAD DUP1 DUP4 SUB DUP2 PUSH1 0x0 DUP8 DUP1 EXTCODESIZE ISZERO DUP1 ISZERO PUSH2 0x30E9 JUMPI PUSH1 0x0 DUP1 REVERT JUMPDEST POP GAS CALL ISZERO DUP1 ISZERO PUSH2 0x30FD JUMPI RETURNDATASIZE PUSH1 0x0 DUP1 RETURNDATACOPY RETURNDATASIZE PUSH1 0x0 REVERT JUMPDEST POP POP POP POP PUSH2 0x161D PUSH2 0x4562 JUMP JUMPDEST PUSH2 0x3111 PUSH2 0x4DA6 JUMP JUMPDEST PUSH1 0x0 PUSH2 0x311B PUSH2 0x45CF JUMP JUMPDEST PUSH1 0x0 DUP6 DUP2 MSTORE PUSH1 0x20 DUP3 DUP2 MSTORE PUSH1 0x40 DUP1 DUP4 KECCAK256 DUP8 ISZERO ISZERO DUP5 MSTORE DUP3 MSTORE SWAP2 DUP3 SWAP1 KECCAK256 DUP3 MLOAD PUSH1 0xA0 DUP2 ADD DUP5 MSTORE DUP2 SLOAD PUSH1 0x1 PUSH1 0x1 PUSH1 0xA0 SHL SUB DUP2 AND DUP3 MSTORE PUSH1 0xFF PUSH1 0x1 PUSH1 0xA0 SHL DUP3 DIV DUP2 AND ISZERO ISZERO SWAP5 DUP4 ADD SWAP5 SWAP1 SWAP5 MSTORE PUSH1 0x1 PUSH1 0xB0 SHL DUP2 DIV DUP5 AND PUSH1 0xA EXP SWAP5 DUP3 ADD SWAP5 SWAP1 SWAP5 MSTORE SWAP4 SWAP5 POP SWAP3 SWAP2 PUSH1 0x60 DUP4 ADD SWAP2 PUSH1 0x1 PUSH1 0xA8 SHL SWAP1 SWAP2 DIV AND PUSH1 0x5 DUP2 GT ISZERO PUSH2 0x3190 JUMPI INVALID JUMPDEST DUP2 MSTORE SWAP2 SLOAD PUSH1 0x1 PUSH1 0xB8 SHL SWAP1 DIV PUSH9 0xFFFFFFFFFFFFFFFFFF AND PUSH1 0x20 SWAP1 SWAP3 ADD SWAP2 SWAP1 SWAP2 MSTORE SWAP5 SWAP4 POP POP POP POP JUMP JUMPDEST PUSH1 0x0 DUP2 PUSH2 0x31C6 JUMPI POP PUSH1 0x0 PUSH2 0xBDB JUMP JUMPDEST PUSH1 0x0 DUP3 SGT PUSH2 0x31D3 JUMPI PUSH1 0x0 DUP1 REVERT JUMPDEST PUSH1 0x0 PUSH2 0x31DE DUP5 PUSH2 0x3038 JUMP JUMPDEST SWAP1 POP PUSH1 0x0 PUSH2 0x31EF DUP3 PUSH1 0x0 ADD MLOAD PUSH2 0x45DC JUMP JUMPDEST SWAP1 POP PUSH1 0x2 DUP2 SDIV PUSH12 0x33B2E3C9FD0803CE8000000 PUSH1 0x1 PUSH1 0x1 PUSH1 0xFF SHL SUB DUP3 SWAP1 SUB SDIV DUP6 SGT ISZERO PUSH2 0x321A JUMPI PUSH1 0x0 DUP1 REVERT JUMPDEST DUP2 DUP2 PUSH12 0x33B2E3C9FD0803CE8000000 DUP8 MUL ADD DUP2 PUSH2 0x3233 JUMPI INVALID JUMPDEST SDIV SWAP7 SWAP6 POP POP POP POP POP POP JUMP JUMPDEST PUSH1 0x0 DUP1 PUSH2 0x3249 PUSH2 0x4667 JUMP JUMPDEST PUSH1 0x1 PUSH1 0x1 PUSH1 0xA0 SHL SUB DUP7 AND PUSH1 0x0 SWAP1 DUP2 MSTORE PUSH1 0x20 SWAP2 DUP3 MSTORE PUSH1 0x40 DUP1 DUP3 KECCAK256 PUSH2 0xFFFF DUP9 AND DUP4 MSTORE SWAP1 SWAP3 MSTORE KECCAK256 DUP1 SLOAD SWAP1 SWAP2 POP PUSH2 0x328C SWAP1 PUSH1 0x1 PUSH1 0x50 SHL SWAP1 DIV PUSH1 0x1 PUSH1 0x1 PUSH1 0x50 SHL SUB AND DUP5 PUSH2 0x2039 JUMP JUMPDEST SWAP2 POP PUSH1 0x0 DUP4 SLT ISZERO PUSH2 0x32C1 JUMPI DUP1 SLOAD PUSH1 0x1 PUSH1 0x1 PUSH1 0x50 SHL SUB AND DUP3 SGT ISZERO PUSH2 0x32C1 JUMPI PUSH1 0x40 MLOAD PUSH3 0x461BCD PUSH1 0xE5 SHL DUP2 MSTORE PUSH1 0x4 ADD PUSH2 0x317 SWAP1 PUSH2 0x5438 JUMP JUMPDEST PUSH2 0x32CD PUSH2 0x1129 DUP4 PUSH2 0xED6 JUMP JUMPDEST DUP2 SLOAD PUSH1 0x1 PUSH1 0x1 PUSH1 0x50 SHL SUB SWAP2 SWAP1 SWAP2 AND PUSH1 0x1 PUSH1 0x50 SHL MUL PUSH1 0x1 PUSH1 0x50 SHL PUSH1 0x1 PUSH1 0xA0 SHL SUB NOT SWAP1 SWAP2 AND OR DUP2 SSTORE PUSH1 0x40 MLOAD PUSH2 0xFFFF DUP6 AND SWAP1 PUSH1 0x1 PUSH1 0x1 PUSH1 0xA0 SHL SUB DUP8 AND SWAP1 PUSH32 0x20478EF460E49D010960D4F3FFF35D8DAE385443ABFAC09035D6A2CCBCD834C4 SWAP1 PUSH2 0x3334 SWAP1 DUP7 SWAP1 PUSH2 0x52C3 JUMP JUMPDEST PUSH1 0x40 MLOAD DUP1 SWAP2 SUB SWAP1 LOG3 POP SWAP4 SWAP3 POP POP POP JUMP JUMPDEST PUSH1 0x0 DUP3 DUP3 ADD DUP4 DUP2 LT ISZERO PUSH2 0xBD8 JUMPI PUSH1 0x0 DUP1 REVERT JUMPDEST PUSH1 0x0 DUP1 PUSH2 0x339E DUP9 PUSH1 0x40 MLOAD DUP1 PUSH1 0xA0 ADD PUSH1 0x40 MSTORE DUP1 DUP11 PUSH1 0x1 PUSH1 0x1 PUSH1 0xA0 SHL SUB AND DUP2 MSTORE PUSH1 0x20 ADD DUP11 PUSH1 0x1 PUSH1 0x1 PUSH1 0xA0 SHL SUB AND DUP2 MSTORE PUSH1 0x20 ADD DUP10 DUP2 MSTORE PUSH1 0x20 ADD DUP9 DUP2 MSTORE PUSH1 0x20 ADD PUSH1 0x0 DUP2 MSTORE POP DUP7 DUP7 PUSH2 0x2D02 JUMP JUMPDEST SWAP1 SWAP10 SWAP1 SWAP9 POP SWAP7 POP POP POP POP POP POP POP JUMP JUMPDEST PUSH1 0x0 DUP1 PUSH2 0xBDB PUSH1 0x14 PUSH2 0x2FB3 JUMP JUMPDEST PUSH1 0x0 DUP1 PUSH1 0x0 DUP1 PUSH1 0x0 PUSH2 0x33CB DUP7 PUSH2 0x4674 JUMP JUMPDEST SWAP1 SWAP3 POP SWAP1 POP PUSH1 0x0 PUSH1 0x1 PUSH1 0x1 PUSH1 0xA0 SHL SUB DUP4 AND PUSH2 0x33F0 JUMPI POP PUSH1 0x0 SWAP1 POP PUSH5 0x2540BE400 PUSH2 0x3470 JUMP JUMPDEST DUP3 PUSH1 0x1 PUSH1 0x1 PUSH1 0xA0 SHL SUB AND PUSH4 0xB2FFFB04 PUSH1 0x40 MLOAD DUP2 PUSH4 0xFFFFFFFF AND PUSH1 0xE0 SHL DUP2 MSTORE PUSH1 0x4 ADD PUSH1 0x20 PUSH1 0x40 MLOAD DUP1 DUP4 SUB DUP2 DUP7 DUP1 EXTCODESIZE ISZERO DUP1 ISZERO PUSH2 0x3429 JUMPI PUSH1 0x0 DUP1 REVERT JUMPDEST POP GAS STATICCALL ISZERO DUP1 ISZERO PUSH2 0x343D JUMPI RETURNDATASIZE PUSH1 0x0 DUP1 RETURNDATACOPY RETURNDATASIZE PUSH1 0x0 REVERT JUMPDEST POP POP POP POP PUSH1 0x40 MLOAD RETURNDATASIZE PUSH1 0x1F NOT PUSH1 0x1F DUP3 ADD AND DUP3 ADD DUP1 PUSH1 0x40 MSTORE POP DUP2 ADD SWAP1 PUSH2 0x3461 SWAP2 SWAP1 PUSH2 0x5136 JUMP JUMPDEST SWAP1 POP PUSH1 0x0 DUP2 SGT PUSH2 0x3470 JUMPI PUSH1 0x0 DUP1 REVERT JUMPDEST SWAP7 SWAP2 SWAP6 POP SWAP4 POP SWAP2 POP POP JUMP JUMPDEST PUSH1 0x0 DUP1 PUSH2 0x348B DUP8 PUSH2 0xFFFF AND PUSH2 0x3038 JUMP JUMPDEST SWAP1 POP DUP1 PUSH1 0x40 ADD MLOAD PUSH1 0x0 EQ ISZERO PUSH2 0x34AA JUMPI PUSH2 0x34A7 DUP8 PUSH2 0xFFFF AND PUSH2 0x1A13 JUMP JUMPDEST SWAP1 POP JUMPDEST PUSH1 0x40 MLOAD PUSH4 0xE9377111 PUSH1 0xE0 SHL DUP2 MSTORE PUSH2 0x247F SWAP1 PUSH1 0x1 PUSH1 0x1 PUSH1 0xA0 SHL SUB DUP9 AND SWAP1 PUSH4 0xE9377111 SWAP1 PUSH2 0x34DE SWAP1 DUP10 SWAP1 DUP10 SWAP1 DUP10 SWAP1 PUSH1 0x4 ADD PUSH2 0x5269 JUMP JUMPDEST PUSH1 0x20 PUSH1 0x40 MLOAD DUP1 DUP4 SUB DUP2 DUP7 DUP1 EXTCODESIZE ISZERO DUP1 ISZERO PUSH2 0x34F6 JUMPI PUSH1 0x0 DUP1 REVERT JUMPDEST POP GAS STATICCALL ISZERO DUP1 ISZERO PUSH2 0x350A JUMPI RETURNDATASIZE PUSH1 0x0 DUP1 RETURNDATACOPY RETURNDATASIZE PUSH1 0x0 REVERT JUMPDEST POP POP POP POP PUSH1 0x40 MLOAD RETURNDATASIZE PUSH1 0x1F NOT PUSH1 0x1F DUP3 ADD AND DUP3 ADD DUP1 PUSH1 0x40 MSTORE POP DUP2 ADD SWAP1 PUSH2 0x352E SWAP2 SWAP1 PUSH2 0x5136 JUMP JUMPDEST DUP3 SWAP1 PUSH2 0x248A JUMP JUMPDEST PUSH2 0x353D PUSH2 0x4DFF JUMP JUMPDEST PUSH1 0x0 PUSH2 0x3547 PUSH2 0x46AB JUMP JUMPDEST PUSH1 0x0 DUP5 DUP2 MSTORE PUSH1 0x20 DUP3 SWAP1 MSTORE PUSH1 0x40 DUP2 KECCAK256 SWAP2 SWAP3 POP DUP1 PUSH1 0x1 DUP7 EQ ISZERO PUSH2 0x3574 JUMPI POP PUSH8 0xDE0B6B3A7640000 SWAP1 POP DUP1 PUSH2 0x364A JUMP JUMPDEST DUP3 SLOAD PUSH1 0x40 DUP1 MLOAD PUSH4 0x3FABE5A3 PUSH1 0xE2 SHL DUP2 MSTORE SWAP1 MLOAD PUSH1 0x1 PUSH1 0x1 PUSH1 0xA0 SHL SUB SWAP1 SWAP3 AND SWAP2 PUSH4 0xFEAF968C SWAP2 PUSH1 0x4 DUP1 DUP3 ADD SWAP3 PUSH1 0xA0 SWAP3 SWAP1 SWAP2 SWAP1 DUP3 SWAP1 SUB ADD DUP2 DUP7 DUP1 EXTCODESIZE ISZERO DUP1 ISZERO PUSH2 0x35B8 JUMPI PUSH1 0x0 DUP1 REVERT JUMPDEST POP GAS STATICCALL ISZERO DUP1 ISZERO PUSH2 0x35CC JUMPI RETURNDATASIZE PUSH1 0x0 DUP1 RETURNDATACOPY RETURNDATASIZE PUSH1 0x0 REVERT JUMPDEST POP POP POP POP PUSH1 0x40 MLOAD RETURNDATASIZE PUSH1 0x1F NOT PUSH1 0x1F DUP3 ADD AND DUP3 ADD DUP1 PUSH1 0x40 MSTORE POP DUP2 ADD SWAP1 PUSH2 0x35F0 SWAP2 SWAP1 PUSH2 0x514E JUMP JUMPDEST POP SWAP2 SWAP4 POP POP PUSH1 0x0 DUP4 SGT SWAP2 POP PUSH2 0x3619 SWAP1 POP JUMPI PUSH1 0x40 MLOAD PUSH3 0x461BCD PUSH1 0xE5 SHL DUP2 MSTORE PUSH1 0x4 ADD PUSH2 0x317 SWAP1 PUSH2 0x554A JUMP JUMPDEST DUP3 SLOAD PUSH1 0xFF PUSH1 0x1 PUSH1 0xA0 SHL DUP3 DIV DUP2 AND PUSH1 0xA EXP SWAP4 POP PUSH1 0x1 PUSH1 0xA8 SHL SWAP1 SWAP2 DIV AND ISZERO PUSH2 0x364A JUMPI PUSH2 0x3647 DUP2 PUSH2 0xEA3 DUP5 DUP1 PUSH2 0x2081 JUMP JUMPDEST SWAP1 POP JUMPDEST PUSH1 0x40 DUP1 MLOAD PUSH1 0xA0 DUP2 ADD DUP3 MSTORE SWAP3 DUP4 MSTORE PUSH1 0x20 DUP4 ADD SWAP2 SWAP1 SWAP2 MSTORE SWAP2 SLOAD PUSH1 0xFF PUSH1 0x1 PUSH1 0xB0 SHL DUP3 DIV DUP2 AND SWAP4 DUP4 ADD SWAP4 SWAP1 SWAP4 MSTORE PUSH1 0x1 PUSH1 0xB8 SHL DUP2 DIV DUP4 AND PUSH1 0x60 DUP4 ADD MSTORE PUSH1 0x1 PUSH1 0xC0 SHL SWAP1 DIV SWAP1 SWAP2 AND PUSH1 0x80 DUP3 ADD MSTORE SWAP2 POP POP SWAP2 SWAP1 POP JUMP JUMPDEST PUSH1 0x0 DUP1 PUSH2 0x36A3 PUSH2 0x46B8 JUMP JUMPDEST PUSH1 0x1 PUSH1 0x1 PUSH1 0xA0 SHL SUB DUP7 AND PUSH1 0x0 SWAP1 DUP2 MSTORE PUSH1 0x20 SWAP2 DUP3 MSTORE PUSH1 0x40 DUP1 DUP3 KECCAK256 DUP8 DUP4 MSTORE DUP4 MSTORE DUP1 DUP3 KECCAK256 PUSH2 0xFFFF DUP11 AND DUP4 MSTORE SWAP1 SWAP3 MSTORE SWAP1 DUP2 KECCAK256 DUP1 SLOAD SWAP1 SWAP3 POP PUSH1 0x1 PUSH1 0x1 PUSH1 0x50 SHL SUB DUP1 DUP3 AND SWAP3 PUSH1 0x1 PUSH1 0x50 SHL SWAP1 SWAP3 DIV AND SWAP1 PUSH2 0x36FD PUSH2 0x247A DUP4 PUSH2 0x2DB DUP10 DUP8 PUSH2 0xEED JUMP JUMPDEST SWAP1 POP PUSH1 0x0 PUSH2 0x370E DUP11 PUSH2 0xFFFF AND PUSH2 0x3535 JUMP JUMPDEST SWAP1 POP PUSH1 0x0 PUSH2 0x371C DUP13 DUP4 PUSH2 0x46C5 JUMP JUMPDEST SWAP1 POP PUSH2 0x3739 DUP2 PUSH2 0xEA3 DUP15 PUSH1 0x0 ADD MLOAD DUP7 PUSH2 0x2081 SWAP1 SWAP2 SWAP1 PUSH4 0xFFFFFFFF AND JUMP JUMPDEST SWAP13 SWAP12 POP POP POP POP POP POP POP POP POP POP POP POP JUMP JUMPDEST PUSH1 0x0 DUP1 PUSH1 0x0 DUP1 PUSH1 0x0 PUSH2 0x375A DUP7 PUSH2 0x4674 JUMP JUMPDEST SWAP1 SWAP3 POP SWAP1 POP PUSH1 0x0 PUSH1 0x1 PUSH1 0x1 PUSH1 0xA0 SHL SUB DUP4 AND PUSH2 0x377F JUMPI POP PUSH1 0x0 SWAP1 POP PUSH5 0x2540BE400 PUSH2 0x3470 JUMP JUMPDEST DUP3 PUSH1 0x1 PUSH1 0x1 PUSH1 0xA0 SHL SUB AND PUSH4 0x1EE10833 PUSH1 0x40 MLOAD DUP2 PUSH4 0xFFFFFFFF AND PUSH1 0xE0 SHL DUP2 MSTORE PUSH1 0x4 ADD PUSH1 0x20 PUSH1 0x40 MLOAD DUP1 DUP4 SUB DUP2 PUSH1 0x0 DUP8 DUP1 EXTCODESIZE ISZERO DUP1 ISZERO PUSH2 0x37BA JUMPI PUSH1 0x0 DUP1 REVERT JUMPDEST POP GAS CALL ISZERO DUP1 ISZERO PUSH2 0x343D JUMPI RETURNDATASIZE PUSH1 0x0 DUP1 RETURNDATACOPY RETURNDATASIZE PUSH1 0x0 REVERT JUMPDEST PUSH1 0x0 DUP1 DUP3 SLT ISZERO PUSH2 0x37E8 JUMPI PUSH2 0x37E1 DUP3 PUSH2 0x1035 JUMP JUMPDEST SWAP1 POP PUSH2 0xEE8 JUMP JUMPDEST POP DUP1 PUSH2 0xEE8 JUMP JUMPDEST PUSH1 0x0 DUP2 PUSH2 0x37FE JUMPI POP PUSH1 0x0 PUSH2 0xBDB JUMP JUMPDEST PUSH1 0x0 PUSH2 0x3809 DUP5 PUSH2 0x45DC JUMP JUMPDEST SWAP1 POP PUSH1 0x0 PUSH2 0x3816 DUP5 PUSH2 0x37CE JUMP JUMPDEST SWAP1 POP DUP2 PUSH12 0x19D971E4FE8401E74000001 PUSH1 0x1 PUSH1 0xFF SHL SUB DUP2 PUSH2 0x3833 JUMPI INVALID JUMPDEST SDIV DUP2 SGT ISZERO PUSH2 0x3840 JUMPI PUSH1 0x0 DUP1 REVERT JUMPDEST PUSH12 0x33B2E3C9FD0803CE8000000 PUSH12 0x19D971E4FE8401E74000000 DUP4 DUP4 MUL ADD SDIV PUSH1 0x0 DUP6 SGT PUSH2 0x3875 JUMPI PUSH2 0x3870 DUP2 PUSH2 0x1035 JUMP JUMPDEST PUSH2 0x2CF8 JUMP JUMPDEST SWAP6 SWAP5 POP POP POP POP POP JUMP JUMPDEST PUSH1 0x0 DUP1 DUP1 DUP1 PUSH1 0x5 DUP8 PUSH1 0x60 ADD MLOAD PUSH1 0x5 DUP2 GT ISZERO PUSH2 0x3895 JUMPI INVALID JUMPDEST EQ PUSH2 0x38A7 JUMPI PUSH4 0x70A08231 PUSH1 0xE0 SHL PUSH2 0x38B0 JUMP JUMPDEST PUSH4 0xED1279F PUSH1 0xE1 SHL JUMPDEST SWAP1 POP DUP7 PUSH1 0x20 ADD MLOAD ISZERO PUSH2 0x38CC JUMPI DUP7 MLOAD PUSH2 0x38C9 SWAP1 ADDRESS DUP4 PUSH2 0x39DE JUMP JUMPDEST SWAP3 POP JUMPDEST DUP7 MLOAD PUSH2 0x38D9 SWAP1 DUP8 DUP8 PUSH2 0x46EA JUMP JUMPDEST DUP7 PUSH1 0x20 ADD MLOAD DUP1 PUSH2 0x38ED JUMPI POP PUSH1 0x0 DUP8 PUSH1 0x80 ADD MLOAD GT JUMPDEST ISZERO PUSH2 0x3902 JUMPI DUP7 MLOAD PUSH2 0x38FF SWAP1 ADDRESS DUP4 PUSH2 0x39DE JUMP JUMPDEST SWAP2 POP JUMPDEST PUSH1 0x80 DUP8 ADD MLOAD ISZERO PUSH2 0x393D JUMPI PUSH1 0x0 PUSH2 0x3920 DUP9 PUSH2 0x391B DUP6 PUSH2 0x15C5 JUMP JUMPDEST PUSH2 0x248A JUMP JUMPDEST SWAP1 POP PUSH2 0x392F DUP9 PUSH1 0x80 ADD MLOAD PUSH2 0x15C5 JUMP JUMPDEST DUP2 SGT ISZERO PUSH2 0x393B JUMPI PUSH1 0x0 DUP1 REVERT JUMPDEST POP JUMPDEST DUP7 PUSH1 0x20 ADD MLOAD ISZERO PUSH2 0x395E JUMPI PUSH2 0x3954 PUSH2 0x247A DUP4 DUP6 PUSH2 0x3C50 JUMP JUMPDEST SWAP4 POP POP POP POP PUSH2 0x1547 JUMP JUMPDEST PUSH2 0x3954 DUP6 PUSH2 0x15C5 JUMP JUMPDEST DUP3 PUSH1 0x1 PUSH1 0x1 PUSH1 0xA0 SHL SUB AND PUSH4 0xA9059CBB DUP4 DUP4 PUSH1 0x40 MLOAD DUP4 PUSH4 0xFFFFFFFF AND PUSH1 0xE0 SHL DUP2 MSTORE PUSH1 0x4 ADD DUP1 DUP4 PUSH1 0x1 PUSH1 0x1 PUSH1 0xA0 SHL SUB AND DUP2 MSTORE PUSH1 0x20 ADD DUP3 DUP2 MSTORE PUSH1 0x20 ADD SWAP3 POP POP POP PUSH1 0x0 PUSH1 0x40 MLOAD DUP1 DUP4 SUB DUP2 PUSH1 0x0 DUP8 DUP1 EXTCODESIZE ISZERO DUP1 ISZERO PUSH2 0x39BE JUMPI PUSH1 0x0 DUP1 REVERT JUMPDEST POP GAS CALL ISZERO DUP1 ISZERO PUSH2 0x39D2 JUMPI RETURNDATASIZE PUSH1 0x0 DUP1 RETURNDATACOPY RETURNDATASIZE PUSH1 0x0 REVERT JUMPDEST POP POP POP POP PUSH2 0xFBC PUSH2 0x4562 JUMP JUMPDEST PUSH1 0x40 DUP1 MLOAD PUSH1 0x1 PUSH1 0x1 PUSH1 0xA0 SHL SUB DUP5 DUP2 AND PUSH1 0x24 DUP1 DUP5 ADD SWAP2 SWAP1 SWAP2 MSTORE DUP4 MLOAD DUP1 DUP5 SUB SWAP1 SWAP2 ADD DUP2 MSTORE PUSH1 0x44 SWAP1 SWAP3 ADD DUP4 MSTORE PUSH1 0x20 DUP3 ADD DUP1 MLOAD PUSH1 0x1 PUSH1 0x1 PUSH1 0xE0 SHL SUB AND PUSH1 0x1 PUSH1 0x1 PUSH1 0xE0 SHL SUB NOT DUP7 AND OR DUP2 MSTORE SWAP3 MLOAD DUP3 MLOAD PUSH1 0x0 SWAP5 DUP6 SWAP5 DUP6 SWAP5 DUP11 AND SWAP4 SWAP1 SWAP3 SWAP1 SWAP2 DUP3 SWAP2 DUP1 DUP4 DUP4 JUMPDEST PUSH1 0x20 DUP4 LT PUSH2 0x3A5B JUMPI DUP1 MLOAD DUP3 MSTORE PUSH1 0x1F NOT SWAP1 SWAP3 ADD SWAP2 PUSH1 0x20 SWAP2 DUP3 ADD SWAP2 ADD PUSH2 0x3A3C JUMP JUMPDEST PUSH1 0x1 DUP4 PUSH1 0x20 SUB PUSH2 0x100 EXP SUB DUP1 NOT DUP3 MLOAD AND DUP2 DUP5 MLOAD AND DUP1 DUP3 OR DUP6 MSTORE POP POP POP POP POP POP SWAP1 POP ADD SWAP2 POP POP PUSH1 0x0 PUSH1 0x40 MLOAD DUP1 DUP4 SUB DUP2 DUP6 GAS STATICCALL SWAP2 POP POP RETURNDATASIZE DUP1 PUSH1 0x0 DUP2 EQ PUSH2 0x3ABB JUMPI PUSH1 0x40 MLOAD SWAP2 POP PUSH1 0x1F NOT PUSH1 0x3F RETURNDATASIZE ADD AND DUP3 ADD PUSH1 0x40 MSTORE RETURNDATASIZE DUP3 MSTORE RETURNDATASIZE PUSH1 0x0 PUSH1 0x20 DUP5 ADD RETURNDATACOPY PUSH2 0x3AC0 JUMP JUMPDEST PUSH1 0x60 SWAP2 POP JUMPDEST POP SWAP2 POP SWAP2 POP DUP2 PUSH2 0x3ACF JUMPI PUSH1 0x0 DUP1 REVERT JUMPDEST DUP1 DUP1 PUSH1 0x20 ADD SWAP1 MLOAD PUSH1 0x20 DUP2 LT ISZERO PUSH2 0x3AE4 JUMPI PUSH1 0x0 DUP1 REVERT JUMPDEST POP MLOAD SWAP7 SWAP6 POP POP POP POP POP POP JUMP JUMPDEST PUSH2 0x3AF8 PUSH2 0x4742 JUMP JUMPDEST SLOAD DUP3 MLOAD PUSH1 0x40 MLOAD PUSH4 0xE8EDA9DF PUSH1 0xE0 SHL DUP2 MSTORE PUSH1 0x1 PUSH1 0x1 PUSH1 0xA0 SHL SUB SWAP1 SWAP3 AND SWAP2 PUSH4 0xE8EDA9DF SWAP2 PUSH2 0x3B2D SWAP2 DUP6 SWAP1 ADDRESS SWAP1 PUSH1 0x0 SWAP1 PUSH1 0x4 ADD PUSH2 0x523C JUMP JUMPDEST PUSH1 0x0 PUSH1 0x40 MLOAD DUP1 DUP4 SUB DUP2 PUSH1 0x0 DUP8 DUP1 EXTCODESIZE ISZERO DUP1 ISZERO PUSH2 0x3B47 JUMPI PUSH1 0x0 DUP1 REVERT JUMPDEST POP GAS CALL ISZERO DUP1 ISZERO PUSH2 0x1BBD JUMPI RETURNDATASIZE PUSH1 0x0 DUP1 RETURNDATACOPY RETURNDATASIZE PUSH1 0x0 REVERT JUMPDEST DUP2 MLOAD PUSH1 0x40 MLOAD PUSH4 0x140E25AD PUSH1 0xE3 SHL DUP2 MSTORE PUSH1 0x0 SWAP2 PUSH1 0x1 PUSH1 0x1 PUSH1 0xA0 SHL SUB AND SWAP1 PUSH4 0xA0712D68 SWAP1 PUSH2 0x3B8B SWAP1 DUP6 SWAP1 PUSH1 0x4 ADD PUSH2 0x52C3 JUMP JUMPDEST PUSH1 0x20 PUSH1 0x40 MLOAD DUP1 DUP4 SUB DUP2 PUSH1 0x0 DUP8 DUP1 EXTCODESIZE ISZERO DUP1 ISZERO PUSH2 0x3BA5 JUMPI PUSH1 0x0 DUP1 REVERT JUMPDEST POP GAS CALL ISZERO DUP1 ISZERO PUSH2 0x3BB9 JUMPI RETURNDATASIZE PUSH1 0x0 DUP1 RETURNDATACOPY RETURNDATASIZE PUSH1 0x0 REVERT JUMPDEST POP POP POP POP PUSH1 0x40 MLOAD RETURNDATASIZE PUSH1 0x1F NOT PUSH1 0x1F DUP3 ADD AND DUP3 ADD DUP1 PUSH1 0x40 MSTORE POP DUP2 ADD SWAP1 PUSH2 0x3BDD SWAP2 SWAP1 PUSH2 0x5136 JUMP JUMPDEST SWAP1 POP DUP1 ISZERO PUSH2 0xFBC JUMPI PUSH1 0x40 MLOAD PUSH3 0x461BCD PUSH1 0xE5 SHL DUP2 MSTORE PUSH1 0x4 ADD PUSH2 0x317 SWAP1 PUSH2 0x534A JUMP JUMPDEST DUP2 PUSH1 0x0 ADD MLOAD PUSH1 0x1 PUSH1 0x1 PUSH1 0xA0 SHL SUB AND PUSH4 0x1249C58B DUP3 PUSH1 0x40 MLOAD DUP3 PUSH4 0xFFFFFFFF AND PUSH1 0xE0 SHL DUP2 MSTORE PUSH1 0x4 ADD PUSH1 0x0 PUSH1 0x40 MLOAD DUP1 DUP4 SUB DUP2 DUP6 DUP9 DUP1 EXTCODESIZE ISZERO DUP1 ISZERO PUSH2 0x3C3C JUMPI PUSH1 0x0 DUP1 REVERT JUMPDEST POP GAS CALL ISZERO DUP1 ISZERO PUSH2 0x10C8 JUMPI RETURNDATASIZE PUSH1 0x0 DUP1 RETURNDATACOPY RETURNDATASIZE PUSH1 0x0 REVERT JUMPDEST PUSH1 0x0 DUP3 DUP3 GT ISZERO PUSH2 0x1B1E JUMPI PUSH1 0x40 DUP1 MLOAD PUSH3 0x461BCD PUSH1 0xE5 SHL DUP2 MSTORE PUSH1 0x20 PUSH1 0x4 DUP3 ADD MSTORE PUSH1 0x1E PUSH1 0x24 DUP3 ADD MSTORE PUSH32 0x536166654D6174683A207375627472616374696F6E206F766572666C6F770000 PUSH1 0x44 DUP3 ADD MSTORE SWAP1 MLOAD SWAP1 DUP2 SWAP1 SUB PUSH1 0x64 ADD SWAP1 REVERT JUMPDEST PUSH1 0x0 PUSH2 0x3CCC PUSH4 0x1DA9C00 PUSH2 0xEA3 PUSH2 0x3CC1 PUSH2 0x247A DUP8 DUP8 PUSH2 0x1B0F JUMP JUMPDEST PUSH1 0x80 DUP11 ADD MLOAD SWAP1 PUSH2 0x2081 JUMP JUMPDEST SWAP1 POP PUSH1 0x0 PUSH2 0x3CDA DUP6 DUP4 PUSH2 0x2068 JUMP JUMPDEST SWAP1 POP PUSH1 0x0 PUSH2 0x3CFA PUSH1 0x64 PUSH2 0xEA3 DUP11 PUSH1 0xE0 ADD MLOAD DUP6 PUSH2 0x2081 SWAP1 SWAP2 SWAP1 PUSH4 0xFFFFFFFF AND JUMP JUMPDEST SWAP1 POP PUSH1 0x0 PUSH2 0x3D08 DUP4 DUP4 PUSH2 0x2039 JUMP JUMPDEST SWAP1 POP PUSH2 0x3D1C DUP10 PUSH1 0x40 ADD MLOAD PUSH2 0xFFFF AND DUP4 PUSH2 0x474F JUMP JUMPDEST PUSH2 0x3D2E DUP10 PUSH1 0x40 ADD MLOAD PUSH2 0xFFFF AND DUP3 PUSH2 0x47D6 JUMP JUMPDEST PUSH1 0x80 DUP9 ADD MLOAD PUSH2 0x3D3D SWAP1 DUP5 PUSH2 0x2039 JUMP JUMPDEST DUP9 PUSH1 0x80 ADD DUP2 DUP2 MSTORE POP POP DUP6 DUP10 PUSH1 0x40 ADD MLOAD PUSH2 0xFFFF AND DUP11 PUSH1 0x0 ADD MLOAD PUSH1 0x1 PUSH1 0x1 PUSH1 0xA0 SHL SUB AND PUSH32 0x7456CB4B7C3068832FB334A03D3CD8E440286BAD834CB9E332DF05AE6792CFBB DUP6 DUP6 PUSH1 0x40 MLOAD PUSH2 0x3D8F SWAP3 SWAP2 SWAP1 PUSH2 0x52CC JUMP JUMPDEST PUSH1 0x40 MLOAD DUP1 SWAP2 SUB SWAP1 LOG4 POP POP POP POP POP POP POP POP POP JUMP JUMPDEST PUSH1 0x0 DUP1 PUSH2 0x3DAE DUP4 PUSH2 0x4822 JUMP JUMPDEST PUSH1 0xFF AND SWAP4 SWAP3 POP POP POP JUMP JUMPDEST PUSH1 0x0 DUP1 PUSH1 0x0 DUP6 GT PUSH2 0x3DDB JUMPI PUSH1 0x40 MLOAD PUSH3 0x461BCD PUSH1 0xE5 SHL DUP2 MSTORE PUSH1 0x4 ADD PUSH2 0x317 SWAP1 PUSH2 0x53B8 JUMP JUMPDEST PUSH1 0x7 DUP6 GT ISZERO PUSH2 0x3DFC JUMPI PUSH1 0x40 MLOAD PUSH3 0x461BCD PUSH1 0xE5 SHL DUP2 MSTORE PUSH1 0x4 ADD PUSH2 0x317 SWAP1 PUSH2 0x5483 JUMP JUMPDEST PUSH1 0x0 PUSH2 0x3E07 DUP5 PUSH2 0x483F JUMP JUMPDEST SWAP1 POP PUSH1 0x1 JUMPDEST DUP7 DUP2 GT PUSH2 0x3E5F JUMPI PUSH1 0x0 PUSH2 0x3E28 PUSH2 0x3E21 DUP4 PUSH2 0x485D JUMP JUMPDEST DUP5 SWAP1 PUSH2 0x4901 JUMP JUMPDEST SWAP1 POP DUP7 DUP2 EQ ISZERO PUSH2 0x3E40 JUMPI POP SWAP3 POP PUSH1 0x0 SWAP2 POP PUSH2 0x3E78 SWAP1 POP JUMP JUMPDEST DUP7 DUP2 GT ISZERO PUSH2 0x3E56 JUMPI POP SWAP3 POP PUSH1 0x1 SWAP2 POP PUSH2 0x3E78 SWAP1 POP JUMP JUMPDEST POP PUSH1 0x1 ADD PUSH2 0x3E0C JUMP JUMPDEST POP PUSH1 0x40 MLOAD PUSH3 0x461BCD PUSH1 0xE5 SHL DUP2 MSTORE PUSH1 0x4 ADD PUSH2 0x317 SWAP1 PUSH2 0x5608 JUMP JUMPDEST SWAP4 POP SWAP4 SWAP2 POP POP JUMP JUMPDEST PUSH1 0x0 DUP5 PUSH1 0xA0 ADD MLOAD PUSH1 0x0 EQ ISZERO PUSH2 0x3E96 JUMPI POP DUP2 PUSH2 0x3EB8 JUMP JUMPDEST PUSH2 0x3EB5 DUP6 PUSH1 0xA0 ADD MLOAD PUSH2 0x2DB DUP8 PUSH1 0x60 ADD MLOAD DUP7 PUSH2 0xEED SWAP1 SWAP2 SWAP1 PUSH4 0xFFFFFFFF AND JUMP JUMPDEST SWAP1 POP JUMPDEST PUSH1 0xA0 DUP6 ADD MLOAD PUSH2 0x3EC7 SWAP1 DUP5 PUSH2 0x3344 JUMP JUMPDEST PUSH1 0xA0 DUP7 ADD MSTORE PUSH1 0x60 DUP6 ADD MLOAD PUSH2 0x3EDB SWAP1 DUP3 PUSH2 0x3344 JUMP JUMPDEST PUSH1 0x60 DUP7 ADD MSTORE PUSH1 0x40 DUP5 ADD MLOAD PUSH2 0x3EEF SWAP1 DUP3 PUSH2 0x3344 JUMP JUMPDEST PUSH1 0x40 DUP6 ADD MSTORE PUSH2 0x1B4F DUP6 DUP4 PUSH2 0x10D1 JUMP JUMPDEST PUSH1 0x0 DUP1 PUSH2 0x3F14 DUP10 PUSH1 0x0 ADD MLOAD DUP11 PUSH1 0x40 ADD MLOAD DUP10 PUSH2 0x14A5 JUMP JUMPDEST DUP10 MLOAD SWAP1 SWAP2 POP PUSH1 0x1 PUSH1 0x1 PUSH1 0xA0 SHL SUB AND PUSH4 0xDC6679C5 DUP10 PUSH2 0x3F32 DUP5 DUP10 PUSH2 0x3344 JUMP JUMPDEST DUP10 DUP9 DUP9 PUSH1 0x40 MLOAD DUP7 PUSH4 0xFFFFFFFF AND PUSH1 0xE0 SHL DUP2 MSTORE PUSH1 0x4 ADD PUSH2 0x3F55 SWAP6 SWAP5 SWAP4 SWAP3 SWAP2 SWAP1 PUSH2 0x528A JUMP JUMPDEST PUSH1 0x20 PUSH1 0x40 MLOAD DUP1 DUP4 SUB DUP2 PUSH1 0x0 DUP8 DUP1 EXTCODESIZE ISZERO DUP1 ISZERO PUSH2 0x3F6F JUMPI PUSH1 0x0 DUP1 REVERT JUMPDEST POP GAS CALL ISZERO DUP1 ISZERO PUSH2 0x3F83 JUMPI RETURNDATASIZE PUSH1 0x0 DUP1 RETURNDATACOPY RETURNDATASIZE PUSH1 0x0 REVERT JUMPDEST POP POP POP POP PUSH1 0x40 MLOAD RETURNDATASIZE PUSH1 0x1F NOT PUSH1 0x1F DUP3 ADD AND DUP3 ADD DUP1 PUSH1 0x40 MSTORE POP DUP2 ADD SWAP1 PUSH2 0x3FA7 SWAP2 SWAP1 PUSH2 0x5136 JUMP JUMPDEST SWAP10 SWAP9 POP POP POP POP POP POP POP POP POP JUMP JUMPDEST PUSH1 0x0 DUP1 PUSH1 0x0 PUSH2 0x3FC1 PUSH2 0x3FFD JUMP JUMPDEST PUSH1 0x0 SWAP6 DUP7 MSTORE PUSH1 0x20 SWAP1 DUP2 MSTORE PUSH1 0x40 DUP1 DUP8 KECCAK256 SWAP6 DUP8 MSTORE SWAP5 SWAP1 MSTORE POP POP POP SWAP1 KECCAK256 SLOAD PUSH6 0x10000000000 DUP2 DIV PUSH1 0x1 PUSH1 0x1 PUSH1 0x80 SHL SUB AND SWAP2 PUSH1 0x1 PUSH1 0xA8 SHL SWAP1 SWAP2 DIV PUSH1 0xFF AND SWAP1 JUMP JUMPDEST PUSH1 0x0 DUP1 PUSH2 0xBDB PUSH1 0x8 PUSH2 0x2FB3 JUMP JUMPDEST PUSH1 0x0 DUP1 PUSH2 0xFFFF DUP5 AND PUSH2 0x4021 JUMPI POP PUSH1 0x0 SWAP1 POP DUP1 PUSH2 0x4095 JUMP JUMPDEST PUSH1 0x0 PUSH2 0x402B PUSH2 0x46B8 JUMP JUMPDEST PUSH1 0x1 PUSH1 0x1 PUSH1 0xA0 SHL SUB DUP9 AND PUSH1 0x0 SWAP1 DUP2 MSTORE PUSH1 0x20 SWAP2 DUP3 MSTORE PUSH1 0x40 DUP1 DUP3 KECCAK256 DUP10 DUP4 MSTORE DUP4 MSTORE DUP1 DUP3 KECCAK256 PUSH2 0xFFFF DUP10 AND DUP4 MSTORE SWAP1 SWAP3 MSTORE KECCAK256 DUP1 SLOAD SWAP1 SWAP2 POP PUSH1 0x1 PUSH1 0x1 PUSH1 0x50 SHL SUB PUSH1 0x1 PUSH1 0xA0 SHL DUP3 DIV DUP2 AND SWAP2 PUSH1 0x1 PUSH1 0x50 SHL SWAP1 DIV AND DUP6 ISZERO PUSH2 0x4090 JUMPI PUSH2 0x408D PUSH2 0x247A DUP3 PUSH2 0x2DB DUP10 DUP7 PUSH2 0xEED JUMP JUMPDEST SWAP4 POP JUMPDEST POP SWAP3 POP POP JUMPDEST SWAP5 POP SWAP5 SWAP3 POP POP POP JUMP JUMPDEST PUSH1 0x0 DUP1 PUSH2 0xBDB PUSH1 0x19 PUSH2 0x2FB3 JUMP JUMPDEST PUSH1 0x0 PUSH2 0x40B8 DUP6 PUSH1 0x0 PUSH2 0x495B JUMP JUMPDEST DUP5 PUSH1 0x1 PUSH1 0x1 PUSH1 0xA0 SHL SUB AND PUSH32 0x7C51C6AA77346C54CB051D9E792F9B7BDE5C28A9B57E6FB2D2DD727B38438CA9 PUSH1 0x0 PUSH1 0x40 MLOAD PUSH2 0x40F2 SWAP2 SWAP1 PUSH2 0x52B8 JUMP JUMPDEST PUSH1 0x40 MLOAD DUP1 SWAP2 SUB SWAP1 LOG2 DUP2 DUP5 PUSH2 0xFFFF AND DUP7 PUSH1 0x1 PUSH1 0x1 PUSH1 0xA0 SHL SUB AND PUSH32 0x823B641D46550301006F807A26587634F15BD13749EFDC8859734377D5304A3B DUP7 PUSH1 0x40 MLOAD PUSH2 0x4139 SWAP2 SWAP1 PUSH2 0x52C3 JUMP JUMPDEST PUSH1 0x40 MLOAD DUP1 SWAP2 SUB SWAP1 LOG4 PUSH1 0x0 PUSH2 0x4152 PUSH1 0x0 DUP7 PUSH2 0xFFFF AND PUSH2 0x49BB JUMP JUMPDEST POP POP POP SWAP1 POP DUP1 DUP5 SGT PUSH2 0x4172 JUMPI PUSH2 0x416A DUP6 DUP6 DUP4 SUB PUSH2 0x4A64 JUMP JUMPDEST DUP4 SWAP2 POP PUSH2 0x41CA JUMP JUMPDEST PUSH2 0x417D DUP6 PUSH1 0x0 PUSH2 0x4A64 JUMP JUMPDEST DUP3 DUP6 PUSH2 0xFFFF AND DUP8 PUSH1 0x1 PUSH1 0x1 PUSH1 0xA0 SHL SUB AND PUSH32 0x3A717B6924E3AD05B8C7609A2401472AF90869B52CC3C9CA69B50100B4BE6316 DUP5 DUP9 SUB PUSH1 0x40 MLOAD PUSH2 0x41BE SWAP2 SWAP1 PUSH2 0x52C3 JUMP JUMPDEST PUSH1 0x40 MLOAD DUP1 SWAP2 SUB SWAP1 LOG4 DUP1 SWAP2 POP JUMPDEST POP SWAP5 SWAP4 POP POP POP POP JUMP JUMPDEST PUSH1 0x0 PUSH10 0x7FFFFFFFFFFFFFFFFFFF NOT DUP3 SLT DUP1 ISZERO SWAP1 PUSH2 0x41FA JUMPI POP PUSH10 0x7FFFFFFFFFFFFFFFFFFF DUP3 SGT ISZERO JUMPDEST PUSH2 0xEE5 JUMPI PUSH1 0x0 DUP1 REVERT JUMPDEST DUP3 MLOAD PUSH1 0x40 MLOAD PUSH4 0xDB006A75 PUSH1 0xE0 SHL DUP2 MSTORE PUSH1 0x0 SWAP2 SELFBALANCE SWAP2 DUP4 SWAP2 PUSH1 0x1 PUSH1 0x1 PUSH1 0xA0 SHL SUB AND SWAP1 PUSH4 0xDB006A75 SWAP1 PUSH2 0x4237 SWAP1 DUP8 SWAP1 PUSH1 0x4 ADD PUSH2 0x52C3 JUMP JUMPDEST PUSH1 0x20 PUSH1 0x40 MLOAD DUP1 DUP4 SUB DUP2 PUSH1 0x0 DUP8 DUP1 EXTCODESIZE ISZERO DUP1 ISZERO PUSH2 0x4251 JUMPI PUSH1 0x0 DUP1 REVERT JUMPDEST POP GAS CALL ISZERO DUP1 ISZERO PUSH2 0x4265 JUMPI RETURNDATASIZE PUSH1 0x0 DUP1 RETURNDATACOPY RETURNDATASIZE PUSH1 0x0 REVERT JUMPDEST POP POP POP POP PUSH1 0x40 MLOAD RETURNDATASIZE PUSH1 0x1F NOT PUSH1 0x1F DUP3 ADD AND DUP3 ADD DUP1 PUSH1 0x40 MSTORE POP DUP2 ADD SWAP1 PUSH2 0x4289 SWAP2 SWAP1 PUSH2 0x5136 JUMP JUMPDEST SWAP1 POP DUP1 ISZERO PUSH2 0x42A9 JUMPI PUSH1 0x40 MLOAD PUSH3 0x461BCD PUSH1 0xE5 SHL DUP2 MSTORE PUSH1 0x4 ADD PUSH2 0x317 SWAP1 PUSH2 0x5368 JUMP JUMPDEST SELFBALANCE PUSH2 0x42B4 DUP2 DUP5 PUSH2 0x3C50 JUMP JUMPDEST SWAP4 POP PUSH2 0x1934 DUP7 DUP6 PUSH2 0x304B JUMP JUMPDEST PUSH1 0x0 PUSH2 0x42DB PUSH2 0x1124 DUP6 PUSH1 0x0 ADD MLOAD PUSH2 0x42D6 DUP6 PUSH2 0x15C5 JUMP JUMPDEST PUSH2 0x37EF JUMP JUMPDEST SWAP1 POP PUSH2 0x42E5 PUSH2 0x4742 JUMP JUMPDEST SLOAD DUP5 MLOAD PUSH1 0x40 MLOAD PUSH4 0x1A4CA37B PUSH1 0xE2 SHL DUP2 MSTORE PUSH1 0x1 PUSH1 0x1 PUSH1 0xA0 SHL SUB SWAP1 SWAP3 AND SWAP2 PUSH4 0x69328DEC SWAP2 PUSH2 0x4317 SWAP2 DUP6 SWAP1 DUP9 SWAP1 PUSH1 0x4 ADD PUSH2 0x5219 JUMP JUMPDEST PUSH1 0x20 PUSH1 0x40 MLOAD DUP1 DUP4 SUB DUP2 PUSH1 0x0 DUP8 DUP1 EXTCODESIZE ISZERO DUP1 ISZERO PUSH2 0x4331 JUMPI PUSH1 0x0 DUP1 REVERT JUMPDEST POP GAS CALL ISZERO DUP1 ISZERO PUSH2 0x4345 JUMPI RETURNDATASIZE PUSH1 0x0 DUP1 RETURNDATACOPY RETURNDATASIZE PUSH1 0x0 REVERT JUMPDEST POP POP POP POP PUSH1 0x40 MLOAD RETURNDATASIZE PUSH1 0x1F NOT PUSH1 0x1F DUP3 ADD AND DUP3 ADD DUP1 PUSH1 0x40 MSTORE POP DUP2 ADD SWAP1 PUSH2 0x4369 SWAP2 SWAP1 PUSH2 0x5136 JUMP JUMPDEST POP SWAP4 SWAP3 POP POP POP JUMP JUMPDEST DUP3 MLOAD PUSH1 0x0 SWAP1 DUP2 SWAP1 PUSH2 0x438A SWAP1 ADDRESS PUSH4 0x70A08231 PUSH1 0xE0 SHL PUSH2 0x39DE JUMP JUMPDEST SWAP1 POP PUSH1 0x0 DUP7 PUSH1 0x0 ADD MLOAD PUSH1 0x1 PUSH1 0x1 PUSH1 0xA0 SHL SUB AND PUSH4 0xDB006A75 DUP6 PUSH1 0x40 MLOAD DUP3 PUSH4 0xFFFFFFFF AND PUSH1 0xE0 SHL DUP2 MSTORE PUSH1 0x4 ADD PUSH2 0x43BE SWAP2 SWAP1 PUSH2 0x52C3 JUMP JUMPDEST PUSH1 0x20 PUSH1 0x40 MLOAD DUP1 DUP4 SUB DUP2 PUSH1 0x0 DUP8 DUP1 EXTCODESIZE ISZERO DUP1 ISZERO PUSH2 0x43D8 JUMPI PUSH1 0x0 DUP1 REVERT JUMPDEST POP GAS CALL ISZERO DUP1 ISZERO PUSH2 0x43EC JUMPI RETURNDATASIZE PUSH1 0x0 DUP1 RETURNDATACOPY RETURNDATASIZE PUSH1 0x0 REVERT JUMPDEST POP POP POP POP PUSH1 0x40 MLOAD RETURNDATASIZE PUSH1 0x1F NOT PUSH1 0x1F DUP3 ADD AND DUP3 ADD DUP1 PUSH1 0x40 MSTORE POP DUP2 ADD SWAP1 PUSH2 0x4410 SWAP2 SWAP1 PUSH2 0x5136 JUMP JUMPDEST SWAP1 POP DUP1 ISZERO PUSH2 0x4430 JUMPI PUSH1 0x40 MLOAD PUSH3 0x461BCD PUSH1 0xE5 SHL DUP2 MSTORE PUSH1 0x4 ADD PUSH2 0x317 SWAP1 PUSH2 0x5368 JUMP JUMPDEST DUP6 MLOAD PUSH1 0x0 SWAP1 PUSH2 0x4447 SWAP1 ADDRESS PUSH4 0x70A08231 PUSH1 0xE0 SHL PUSH2 0x39DE JUMP JUMPDEST SWAP1 POP PUSH2 0x4453 DUP2 DUP5 PUSH2 0x3C50 JUMP JUMPDEST SWAP4 POP PUSH2 0x4464 DUP8 PUSH1 0x0 ADD MLOAD DUP8 DUP7 PUSH2 0x3967 JUMP JUMPDEST POP POP POP SWAP5 SWAP4 POP POP POP POP JUMP JUMPDEST PUSH1 0x0 PUSH4 0x5F5E100 DUP4 PUSH1 0x40 ADD MLOAD SLT ISZERO PUSH2 0x4497 JUMPI PUSH2 0x4490 PUSH1 0x1 PUSH2 0xD77 DUP6 DUP6 PUSH2 0x2C2A JUMP JUMPDEST SWAP1 POP PUSH2 0xBDB JUMP JUMPDEST PUSH2 0xBD8 DUP4 PUSH2 0x44A6 DUP5 PUSH1 0x1 PUSH2 0x1FF8 JUMP JUMPDEST PUSH2 0x2C2A JUMP JUMPDEST PUSH1 0x0 PUSH1 0x3 DUP4 PUSH1 0x60 ADD MLOAD PUSH1 0x5 DUP2 GT ISZERO PUSH2 0x44BF JUMPI INVALID JUMPDEST EQ ISZERO PUSH2 0x44D6 JUMPI POP PUSH1 0x1 PUSH1 0x1 PUSH1 0xA0 SHL SUB DUP2 AND BALANCE PUSH2 0xBDB JUMP JUMPDEST DUP3 MLOAD PUSH1 0x40 MLOAD PUSH4 0x70A08231 PUSH1 0xE0 SHL DUP2 MSTORE PUSH1 0x1 PUSH1 0x1 PUSH1 0xA0 SHL SUB SWAP1 SWAP2 AND SWAP1 PUSH4 0x70A08231 SWAP1 PUSH2 0x4505 SWAP1 DUP6 SWAP1 PUSH1 0x4 ADD PUSH2 0x51C7 JUMP JUMPDEST PUSH1 0x20 PUSH1 0x40 MLOAD DUP1 DUP4 SUB DUP2 DUP7 DUP1 EXTCODESIZE ISZERO DUP1 ISZERO PUSH2 0x451D JUMPI PUSH1 0x0 DUP1 REVERT JUMPDEST POP GAS STATICCALL ISZERO DUP1 ISZERO PUSH2 0x4531 JUMPI RETURNDATASIZE PUSH1 0x0 DUP1 RETURNDATACOPY RETURNDATASIZE PUSH1 0x0 REVERT JUMPDEST POP POP POP POP PUSH1 0x40 MLOAD RETURNDATASIZE PUSH1 0x1F NOT PUSH1 0x1F DUP3 ADD AND DUP3 ADD DUP1 PUSH1 0x40 MSTORE POP DUP2 ADD SWAP1 PUSH2 0x4490 SWAP2 SWAP1 PUSH2 0x5136 JUMP JUMPDEST PUSH1 0x0 DUP1 PUSH2 0xBDB PUSH1 0x2 PUSH2 0x2FB3 JUMP JUMPDEST PUSH1 0x0 PUSH2 0x456C PUSH2 0x4E2E JUMP JUMPDEST RETURNDATASIZE DUP1 ISZERO PUSH2 0x4580 JUMPI PUSH1 0x20 DUP2 EQ PUSH2 0x4589 JUMPI PUSH1 0x0 DUP1 REVERT JUMPDEST PUSH1 0x1 SWAP3 POP PUSH2 0x4594 JUMP JUMPDEST PUSH1 0x20 PUSH1 0x0 DUP4 RETURNDATACOPY DUP2 MLOAD SWAP3 POP JUMPDEST POP DUP2 PUSH2 0x1861 JUMPI PUSH1 0x40 DUP1 MLOAD PUSH3 0x461BCD PUSH1 0xE5 SHL DUP2 MSTORE PUSH1 0x20 PUSH1 0x4 DUP3 ADD MSTORE PUSH1 0x5 PUSH1 0x24 DUP3 ADD MSTORE PUSH5 0x455243323 PUSH1 0xDC SHL PUSH1 0x44 DUP3 ADD MSTORE SWAP1 MLOAD SWAP1 DUP2 SWAP1 SUB PUSH1 0x64 ADD SWAP1 REVERT JUMPDEST PUSH1 0x0 DUP1 PUSH2 0xBDB PUSH1 0x7 PUSH2 0x2FB3 JUMP JUMPDEST PUSH1 0x0 PUSH2 0xBDB PUSH2 0x45E9 PUSH2 0x4742 JUMP JUMPDEST SLOAD PUSH1 0x40 MLOAD PUSH4 0xD15E0053 PUSH1 0xE0 SHL DUP2 MSTORE PUSH1 0x1 PUSH1 0x1 PUSH1 0xA0 SHL SUB SWAP1 SWAP2 AND SWAP1 PUSH4 0xD15E0053 SWAP1 PUSH2 0x4617 SWAP1 DUP7 SWAP1 PUSH1 0x4 ADD PUSH2 0x51C7 JUMP JUMPDEST PUSH1 0x20 PUSH1 0x40 MLOAD DUP1 DUP4 SUB DUP2 DUP7 DUP1 EXTCODESIZE ISZERO DUP1 ISZERO PUSH2 0x462F JUMPI PUSH1 0x0 DUP1 REVERT JUMPDEST POP GAS STATICCALL ISZERO DUP1 ISZERO PUSH2 0x4643 JUMPI RETURNDATASIZE PUSH1 0x0 DUP1 RETURNDATACOPY RETURNDATASIZE PUSH1 0x0 REVERT JUMPDEST POP POP POP POP PUSH1 0x40 MLOAD RETURNDATASIZE PUSH1 0x1F NOT PUSH1 0x1F DUP3 ADD AND DUP3 ADD DUP1 PUSH1 0x40 MSTORE POP DUP2 ADD SWAP1 PUSH2 0x247A SWAP2 SWAP1 PUSH2 0x5136 JUMP JUMPDEST PUSH1 0x0 DUP1 PUSH2 0xBDB PUSH1 0x17 PUSH2 0x2FB3 JUMP JUMPDEST PUSH1 0x0 DUP1 PUSH1 0x0 PUSH2 0x4681 PUSH2 0x4AC7 JUMP JUMPDEST PUSH1 0x0 SWAP5 DUP6 MSTORE PUSH1 0x20 MSTORE POP POP PUSH1 0x40 SWAP1 SWAP2 KECCAK256 SLOAD PUSH1 0x1 PUSH1 0x1 PUSH1 0xA0 SHL SUB DUP2 AND SWAP3 PUSH1 0x1 PUSH1 0xA0 SHL SWAP1 SWAP2 DIV PUSH1 0xFF AND SWAP2 POP JUMP JUMPDEST PUSH1 0x0 DUP1 PUSH2 0xBDB PUSH1 0x10 PUSH2 0x2FB3 JUMP JUMPDEST PUSH1 0x0 DUP1 PUSH2 0xBDB PUSH1 0x18 PUSH2 0x2FB3 JUMP JUMPDEST PUSH1 0x0 PUSH2 0xBD8 DUP3 PUSH1 0x20 ADD MLOAD PUSH2 0xEA3 DUP5 PUSH1 0x0 ADD MLOAD DUP7 PUSH1 0x20 ADD MLOAD PUSH2 0x2081 SWAP1 SWAP2 SWAP1 PUSH4 0xFFFFFFFF AND JUMP JUMPDEST PUSH1 0x40 DUP1 MLOAD PUSH4 0x23B872DD PUSH1 0xE0 SHL DUP2 MSTORE PUSH1 0x1 PUSH1 0x1 PUSH1 0xA0 SHL SUB DUP5 DUP2 AND PUSH1 0x4 DUP4 ADD MSTORE ADDRESS PUSH1 0x24 DUP4 ADD MSTORE PUSH1 0x44 DUP3 ADD DUP5 SWAP1 MSTORE SWAP2 MLOAD SWAP2 DUP6 AND SWAP2 PUSH4 0x23B872DD SWAP2 PUSH1 0x64 DUP1 DUP3 ADD SWAP3 PUSH1 0x0 SWAP3 SWAP1 SWAP2 SWAP1 DUP3 SWAP1 SUB ADD DUP2 DUP4 DUP8 DUP1 EXTCODESIZE ISZERO DUP1 ISZERO PUSH2 0x39BE JUMPI PUSH1 0x0 DUP1 REVERT JUMPDEST PUSH1 0x0 DUP1 PUSH2 0xBDB PUSH1 0x13 PUSH2 0x2FB3 JUMP JUMPDEST PUSH1 0x0 DUP2 SLT ISZERO PUSH2 0x475D JUMPI PUSH1 0x0 DUP1 REVERT JUMPDEST PUSH1 0x0 PUSH2 0x476A PUSH1 0x0 DUP5 PUSH2 0x49BB JUMP JUMPDEST POP POP POP SWAP1 POP PUSH2 0x4782 DUP3 DUP3 PUSH2 0x1FF8 SWAP1 SWAP2 SWAP1 PUSH4 0xFFFFFFFF AND JUMP JUMPDEST SWAP1 POP PUSH2 0x4795 PUSH1 0x0 DUP5 DUP4 PUSH1 0x0 DUP1 PUSH1 0x0 PUSH2 0x4AD4 JUMP JUMPDEST DUP3 PUSH2 0xFFFF AND PUSH32 0x85170C297762884F47EC6098B74925C795E6D33686B11019B400E33A9B23B5E9 DUP4 PUSH1 0x40 MLOAD PUSH2 0x47C9 SWAP2 SWAP1 PUSH2 0x52C3 JUMP JUMPDEST PUSH1 0x40 MLOAD DUP1 SWAP2 SUB SWAP1 LOG2 POP POP POP JUMP JUMPDEST PUSH1 0x0 DUP2 SLT ISZERO PUSH2 0x47E4 JUMPI PUSH1 0x0 DUP1 REVERT JUMPDEST PUSH1 0x0 PUSH2 0x47EF DUP4 PUSH2 0x4C1B JUMP JUMPDEST SWAP1 POP PUSH1 0x0 PUSH2 0x47FD DUP3 DUP6 PUSH2 0x49BB JUMP JUMPDEST POP POP POP SWAP1 POP PUSH2 0x4815 DUP4 DUP3 PUSH2 0x1FF8 SWAP1 SWAP2 SWAP1 PUSH4 0xFFFFFFFF AND JUMP JUMPDEST SWAP1 POP PUSH2 0x161D DUP3 DUP6 DUP4 PUSH2 0x4C41 JUMP JUMPDEST PUSH1 0x0 DUP1 PUSH2 0x482D PUSH2 0x4C5F JUMP JUMPDEST PUSH1 0x0 SWAP4 DUP5 MSTORE PUSH1 0x20 MSTORE POP POP PUSH1 0x40 SWAP1 KECCAK256 SLOAD SWAP1 JUMP JUMPDEST PUSH1 0x0 PUSH3 0x76A700 DUP3 LT ISZERO PUSH2 0x4851 JUMPI PUSH1 0x0 DUP1 REVERT JUMPDEST POP PUSH3 0x76A700 DUP2 MOD SWAP1 SUB SWAP1 JUMP JUMPDEST PUSH1 0x0 DUP2 PUSH1 0x1 EQ ISZERO PUSH2 0x4872 JUMPI POP PUSH3 0x76A700 PUSH2 0xEE8 JUMP JUMPDEST DUP2 PUSH1 0x2 EQ ISZERO PUSH2 0x4885 JUMPI POP PUSH3 0xED4E00 PUSH2 0xEE8 JUMP JUMPDEST DUP2 PUSH1 0x3 EQ ISZERO PUSH2 0x4899 JUMPI POP PUSH4 0x1DA9C00 PUSH2 0xEE8 JUMP JUMPDEST DUP2 PUSH1 0x4 EQ ISZERO PUSH2 0x48AD JUMPI POP PUSH4 0x3B53800 PUSH2 0xEE8 JUMP JUMPDEST DUP2 PUSH1 0x5 EQ ISZERO PUSH2 0x48C1 JUMPI POP PUSH4 0x9450C00 PUSH2 0xEE8 JUMP JUMPDEST DUP2 PUSH1 0x6 EQ ISZERO PUSH2 0x48D5 JUMPI POP PUSH4 0x128A1800 PUSH2 0xEE8 JUMP JUMPDEST DUP2 PUSH1 0x7 EQ ISZERO PUSH2 0x48E9 JUMPI POP PUSH4 0x25143000 PUSH2 0xEE8 JUMP JUMPDEST PUSH1 0x40 MLOAD PUSH3 0x461BCD PUSH1 0xE5 SHL DUP2 MSTORE PUSH1 0x4 ADD PUSH2 0x317 SWAP1 PUSH2 0x53E7 JUMP JUMPDEST PUSH1 0x0 DUP3 DUP3 ADD DUP4 DUP2 LT ISZERO PUSH2 0xBD8 JUMPI PUSH1 0x40 DUP1 MLOAD PUSH3 0x461BCD PUSH1 0xE5 SHL DUP2 MSTORE PUSH1 0x20 PUSH1 0x4 DUP3 ADD MSTORE PUSH1 0x1B PUSH1 0x24 DUP3 ADD MSTORE PUSH32 0x536166654D6174683A206164646974696F6E206F766572666C6F770000000000 PUSH1 0x44 DUP3 ADD MSTORE SWAP1 MLOAD SWAP1 DUP2 SWAP1 SUB PUSH1 0x64 ADD SWAP1 REVERT JUMPDEST PUSH1 0x0 PUSH2 0x4965 PUSH2 0x33AD JUMP JUMPDEST PUSH1 0x1 PUSH1 0x1 PUSH1 0xA0 SHL SUB DUP5 AND PUSH1 0x0 SWAP1 DUP2 MSTORE PUSH1 0x20 DUP3 SWAP1 MSTORE PUSH1 0x40 SWAP1 KECCAK256 DUP1 SLOAD SWAP2 SWAP3 POP SWAP1 PUSH2 0xFFFF AND DUP4 ISZERO PUSH2 0x49A4 JUMPI DUP2 SLOAD PUSH2 0xFFFF NOT AND PUSH1 0x1 DUP3 OR PUSH2 0xFFFF AND OR DUP3 SSTORE PUSH2 0x49B4 JUMP JUMPDEST DUP2 SLOAD PUSH2 0xFFFF NOT AND PUSH2 0xFFFE DUP3 AND OR DUP3 SSTORE JUMPDEST POP POP POP POP POP JUMP JUMPDEST PUSH1 0x0 DUP1 PUSH1 0x0 DUP1 PUSH1 0x0 PUSH2 0x49CB PUSH2 0x4C6C JUMP JUMPDEST PUSH1 0x1 PUSH1 0x1 PUSH1 0xA0 SHL SUB DUP9 AND PUSH1 0x0 SWAP1 DUP2 MSTORE PUSH1 0x20 DUP3 DUP2 MSTORE PUSH1 0x40 DUP1 DUP4 KECCAK256 DUP11 DUP5 MSTORE SWAP1 SWAP2 MSTORE SWAP1 KECCAK256 DUP1 SLOAD PUSH1 0x1 PUSH1 0x1 PUSH1 0x50 SHL SUB DUP2 AND SWAP7 POP PUSH1 0x1 PUSH1 0x50 SHL SWAP1 DIV PUSH4 0xFFFFFFFF AND SWAP5 POP SWAP1 SWAP2 POP DUP4 ISZERO PUSH2 0x4A34 JUMPI DUP1 SLOAD PUSH2 0x4A2D SWAP1 PUSH1 0x1 PUSH1 0x70 SHL SWAP1 DIV PUSH7 0xFFFFFFFFFFFFFF AND PUSH2 0x4C79 JUMP JUMPDEST SWAP3 POP PUSH2 0x4A49 JUMP JUMPDEST DUP1 SLOAD PUSH1 0x1 PUSH1 0x70 SHL SWAP1 DIV PUSH7 0xFFFFFFFFFFFFFF AND SWAP3 POP JUMPDEST SLOAD PUSH1 0x1 PUSH1 0xA8 SHL SWAP1 DIV PUSH1 0xA SWAP1 DUP2 SIGNEXTEND SWAP1 SIGNEXTEND SWAP8 SWAP4 SWAP7 POP SWAP2 SWAP5 POP SWAP3 POP POP JUMP JUMPDEST PUSH1 0x0 DUP2 SLT ISZERO PUSH2 0x4A72 JUMPI PUSH1 0x0 DUP1 REVERT JUMPDEST PUSH2 0x4A87 PUSH1 0x0 DUP4 PUSH2 0xFFFF AND DUP4 PUSH1 0x0 DUP1 PUSH1 0x0 PUSH2 0x4AD4 JUMP JUMPDEST DUP2 PUSH2 0xFFFF AND PUSH32 0xD3625F7B5926828151EFE19F7AE655488287357D99EBE67E5FB20522CA739C0B DUP3 PUSH1 0x40 MLOAD PUSH2 0x4ABB SWAP2 SWAP1 PUSH2 0x52C3 JUMP JUMPDEST PUSH1 0x40 MLOAD DUP1 SWAP2 SUB SWAP1 LOG2 POP POP JUMP JUMPDEST PUSH1 0x0 DUP1 PUSH2 0xBDB PUSH1 0xF PUSH2 0x2FB3 JUMP JUMPDEST PUSH1 0x0 PUSH2 0x4ADE PUSH2 0x4C6C JUMP JUMPDEST PUSH1 0x1 PUSH1 0x1 PUSH1 0xA0 SHL SUB DUP9 AND PUSH1 0x0 SWAP1 DUP2 MSTORE PUSH1 0x20 DUP3 DUP2 MSTORE PUSH1 0x40 DUP1 DUP4 KECCAK256 DUP11 DUP5 MSTORE SWAP1 SWAP2 MSTORE SWAP1 KECCAK256 SWAP1 SWAP2 POP PUSH11 0x7FFFFFFFFFFFFFFFFFFFFF NOT DUP7 SLT DUP1 ISZERO SWAP1 PUSH2 0x4B29 JUMPI POP PUSH11 0x7FFFFFFFFFFFFFFFFFFFFF DUP7 SGT ISZERO JUMPDEST PUSH2 0x4B32 JUMPI PUSH1 0x0 DUP1 REVERT JUMPDEST PUSH1 0x0 DUP6 SLT ISZERO DUP1 ISZERO PUSH2 0x4B4A JUMPI POP PUSH1 0x1 PUSH1 0x1 PUSH1 0x50 SHL SUB DUP6 SGT ISZERO JUMPDEST PUSH2 0x4B53 JUMPI PUSH1 0x0 DUP1 REVERT JUMPDEST DUP4 PUSH2 0x4B93 JUMPI PUSH7 0xFFFFFFFFFFFFFF DUP4 GT ISZERO PUSH2 0x4B6C JUMPI PUSH1 0x0 DUP1 REVERT JUMPDEST DUP1 SLOAD PUSH7 0xFFFFFFFFFFFFFF PUSH1 0x70 SHL NOT AND PUSH1 0x1 PUSH1 0x70 SHL PUSH7 0xFFFFFFFFFFFFFF DUP6 AND MUL OR DUP2 SSTORE PUSH2 0x4BAD JUMP JUMPDEST DUP1 SLOAD PUSH1 0x1 PUSH1 0x50 SHL SWAP1 DIV PUSH4 0xFFFFFFFF AND DUP5 EQ PUSH2 0x4BAD JUMPI PUSH1 0x0 DUP1 REVERT JUMPDEST DUP1 SLOAD PUSH1 0xA SWAP7 SWAP1 SWAP7 SIGNEXTEND PUSH11 0xFFFFFFFFFFFFFFFFFFFFFF AND PUSH1 0x1 PUSH1 0xA8 SHL MUL PUSH1 0x1 PUSH1 0x1 PUSH1 0xA8 SHL SUB PUSH1 0x1 PUSH1 0x1 PUSH1 0x50 SHL SUB SWAP1 SWAP7 AND PUSH1 0x1 PUSH1 0x1 PUSH1 0x50 SHL SUB NOT PUSH4 0xFFFFFFFF SWAP1 SWAP7 AND PUSH1 0x1 PUSH1 0x50 SHL MUL PUSH4 0xFFFFFFFF PUSH1 0x50 SHL NOT SWAP1 SWAP9 AND SWAP8 SWAP1 SWAP8 OR SWAP5 SWAP1 SWAP5 AND SWAP6 SWAP1 SWAP6 OR SWAP4 SWAP1 SWAP4 AND SWAP2 SWAP1 SWAP2 OR SWAP1 SWAP3 SSTORE POP POP POP POP JUMP JUMPDEST PUSH1 0x0 DUP1 PUSH2 0x4C26 PUSH2 0x4C87 JUMP JUMPDEST PUSH1 0x0 SWAP4 DUP5 MSTORE PUSH1 0x20 MSTORE POP POP PUSH1 0x40 SWAP1 KECCAK256 SLOAD PUSH1 0x1 PUSH1 0x1 PUSH1 0xA0 SHL SUB AND SWAP1 JUMP JUMPDEST PUSH1 0x0 DUP2 SLT ISZERO PUSH2 0x4C4F JUMPI PUSH1 0x0 DUP1 REVERT JUMPDEST PUSH2 0xFBC DUP4 DUP4 DUP4 PUSH1 0x0 DUP1 PUSH1 0x0 PUSH2 0x4AD4 JUMP JUMPDEST PUSH1 0x0 DUP1 PUSH2 0xBDB PUSH1 0x9 PUSH2 0x2FB3 JUMP JUMPDEST PUSH1 0x0 DUP1 PUSH2 0xBDB PUSH1 0x6 PUSH2 0x2FB3 JUMP JUMPDEST PUSH1 0x8 DUP2 SWAP1 SHR PUSH1 0xFF SWAP1 SWAP2 AND SHL SWAP1 JUMP JUMPDEST PUSH1 0x0 DUP1 PUSH2 0xBDB PUSH1 0x3 PUSH2 0x2FB3 JUMP JUMPDEST PUSH1 0x40 MLOAD DUP1 PUSH1 0x40 ADD PUSH1 0x40 MSTORE DUP1 PUSH1 0x2 SWAP1 PUSH1 0x20 DUP3 MUL DUP1 CALLDATASIZE DUP4 CALLDATACOPY POP SWAP2 SWAP3 SWAP2 POP POP JUMP JUMPDEST PUSH1 0x40 MLOAD DUP1 PUSH1 0xA0 ADD PUSH1 0x40 MSTORE DUP1 PUSH1 0x0 DUP2 MSTORE PUSH1 0x20 ADD PUSH1 0x0 DUP2 MSTORE PUSH1 0x20 ADD PUSH1 0x0 DUP2 MSTORE PUSH1 0x20 ADD PUSH1 0x0 PUSH1 0x1 PUSH1 0x1 PUSH1 0xA0 SHL SUB AND DUP2 MSTORE PUSH1 0x20 ADD PUSH1 0x0 DUP2 MSTORE POP SWAP1 JUMP JUMPDEST PUSH1 0x40 MLOAD DUP1 PUSH2 0x180 ADD PUSH1 0x40 MSTORE DUP1 PUSH1 0x0 PUSH1 0x1 PUSH1 0x1 PUSH1 0xA0 SHL SUB AND DUP2 MSTORE PUSH1 0x20 ADD PUSH1 0x0 PUSH2 0xFFFF AND DUP2 MSTORE PUSH1 0x20 ADD PUSH1 0x0 PUSH2 0xFFFF AND DUP2 MSTORE PUSH1 0x20 ADD PUSH1 0x0 DUP2 MSTORE PUSH1 0x20 ADD PUSH1 0x0 DUP2 MSTORE PUSH1 0x20 ADD PUSH1 0x0 DUP2 MSTORE PUSH1 0x20 ADD PUSH1 0x0 DUP2 MSTORE PUSH1 0x20 ADD PUSH1 0x0 DUP2 MSTORE PUSH1 0x20 ADD PUSH1 0x0 DUP2 MSTORE PUSH1 0x20 ADD PUSH1 0x0 DUP2 MSTORE PUSH1 0x20 ADD PUSH2 0x4D55 PUSH2 0x4C94 JUMP JUMPDEST DUP2 MSTORE PUSH1 0x20 ADD PUSH2 0x4D62 PUSH2 0x4DD5 JUMP JUMPDEST SWAP1 MSTORE SWAP1 JUMP JUMPDEST PUSH1 0x40 MLOAD DUP1 PUSH1 0xE0 ADD PUSH1 0x40 MSTORE DUP1 PUSH1 0x0 DUP2 MSTORE PUSH1 0x20 ADD PUSH1 0x0 DUP2 MSTORE PUSH1 0x20 ADD PUSH1 0x0 ISZERO ISZERO DUP2 MSTORE PUSH1 0x20 ADD PUSH1 0x0 DUP2 MSTORE PUSH1 0x20 ADD PUSH1 0x0 DUP2 MSTORE PUSH1 0x20 ADD PUSH1 0x0 DUP2 MSTORE PUSH1 0x20 ADD PUSH1 0x0 DUP2 MSTORE POP SWAP1 JUMP JUMPDEST PUSH1 0x40 DUP1 MLOAD PUSH1 0xA0 DUP2 ADD DUP3 MSTORE PUSH1 0x0 DUP1 DUP3 MSTORE PUSH1 0x20 DUP3 ADD DUP2 SWAP1 MSTORE SWAP2 DUP2 ADD DUP3 SWAP1 MSTORE SWAP1 PUSH1 0x60 DUP3 ADD SWAP1 DUP2 MSTORE PUSH1 0x20 ADD PUSH1 0x0 DUP2 MSTORE POP SWAP1 JUMP JUMPDEST PUSH1 0x40 MLOAD DUP1 PUSH1 0x60 ADD PUSH1 0x40 MSTORE DUP1 PUSH1 0x0 PUSH1 0x1 PUSH1 0x1 PUSH1 0xA0 SHL SUB AND DUP2 MSTORE PUSH1 0x20 ADD PUSH1 0x0 DUP2 MSTORE PUSH1 0x20 ADD PUSH1 0x0 DUP2 MSTORE POP SWAP1 JUMP JUMPDEST PUSH1 0x40 MLOAD DUP1 PUSH1 0xA0 ADD PUSH1 0x40 MSTORE DUP1 PUSH1 0x0 DUP2 MSTORE PUSH1 0x20 ADD PUSH1 0x0 DUP2 MSTORE PUSH1 0x20 ADD PUSH1 0x0 DUP2 MSTORE PUSH1 0x20 ADD PUSH1 0x0 DUP2 MSTORE PUSH1 0x20 ADD PUSH1 0x0 DUP2 MSTORE POP SWAP1 JUMP JUMPDEST PUSH1 0x40 MLOAD DUP1 PUSH1 0x20 ADD PUSH1 0x40 MSTORE DUP1 PUSH1 0x1 SWAP1 PUSH1 0x20 DUP3 MUL DUP1 CALLDATASIZE DUP4 CALLDATACOPY POP SWAP2 SWAP3 SWAP2 POP POP JUMP JUMPDEST DUP1 CALLDATALOAD PUSH1 0x1 PUSH1 0x1 PUSH1 0xA0 SHL SUB DUP2 AND DUP2 EQ PUSH2 0xEE8 JUMPI PUSH1 0x0 DUP1 REVERT JUMPDEST PUSH1 0x0 DUP1 DUP4 PUSH1 0x1F DUP5 ADD SLT PUSH2 0x4E74 JUMPI DUP2 DUP3 REVERT JUMPDEST POP DUP2 CALLDATALOAD PUSH8 0xFFFFFFFFFFFFFFFF DUP2 GT ISZERO PUSH2 0x4E8B JUMPI DUP2 DUP3 REVERT JUMPDEST PUSH1 0x20 DUP4 ADD SWAP2 POP DUP4 PUSH1 0x20 DUP3 DUP6 ADD ADD GT ISZERO PUSH2 0x180F JUMPI PUSH1 0x0 DUP1 REVERT JUMPDEST DUP1 CALLDATALOAD PUSH4 0xFFFFFFFF DUP2 AND DUP2 EQ PUSH2 0xEE8 JUMPI PUSH1 0x0 DUP1 REVERT JUMPDEST DUP1 MLOAD PUSH1 0x1 PUSH1 0x1 PUSH1 0x50 SHL SUB DUP2 AND DUP2 EQ PUSH2 0xEE8 JUMPI PUSH1 0x0 DUP1 REVERT JUMPDEST PUSH1 0x0 DUP1 PUSH1 0x40 DUP4 DUP6 SUB SLT ISZERO PUSH2 0x4EE0 JUMPI DUP2 DUP3 REVERT JUMPDEST PUSH2 0x4EE9 DUP4 PUSH2 0x4E4C JUMP JUMPDEST SWAP2 POP PUSH2 0x180C PUSH1 0x20 DUP5 ADD PUSH2 0x4E4C JUMP JUMPDEST PUSH1 0x0 DUP1 PUSH1 0x0 DUP1 PUSH1 0x0 DUP1 PUSH1 0x0 PUSH1 0xC0 DUP9 DUP11 SUB SLT ISZERO PUSH2 0x4F11 JUMPI DUP3 DUP4 REVERT JUMPDEST PUSH2 0x4F1A DUP9 PUSH2 0x4E4C JUMP JUMPDEST SWAP7 POP PUSH2 0x4F28 PUSH1 0x20 DUP10 ADD PUSH2 0x4E4C JUMP JUMPDEST SWAP6 POP PUSH2 0x4F36 PUSH1 0x40 DUP10 ADD PUSH2 0x4E4C JUMP JUMPDEST SWAP5 POP PUSH1 0x60 DUP9 ADD CALLDATALOAD SWAP4 POP PUSH1 0x80 DUP9 ADD CALLDATALOAD DUP1 ISZERO ISZERO DUP2 EQ PUSH2 0x4F51 JUMPI DUP4 DUP5 REVERT JUMPDEST SWAP3 POP PUSH1 0xA0 DUP9 ADD CALLDATALOAD PUSH8 0xFFFFFFFFFFFFFFFF DUP2 GT ISZERO PUSH2 0x4F6C JUMPI DUP3 DUP4 REVERT JUMPDEST PUSH2 0x4F78 DUP11 DUP3 DUP12 ADD PUSH2 0x4E63 JUMP JUMPDEST SWAP9 SWAP12 SWAP8 SWAP11 POP SWAP6 SWAP9 POP SWAP4 SWAP7 SWAP3 SWAP6 SWAP3 SWAP4 POP POP POP JUMP JUMPDEST PUSH1 0x0 DUP1 PUSH1 0x0 DUP1 PUSH1 0x0 DUP1 PUSH1 0x0 DUP1 PUSH1 0xE0 DUP10 DUP12 SUB SLT ISZERO PUSH2 0x4FA6 JUMPI DUP1 DUP2 REVERT JUMPDEST PUSH2 0x4FAF DUP10 PUSH2 0x4E4C JUMP JUMPDEST SWAP8 POP PUSH2 0x4FBD PUSH1 0x20 DUP11 ADD PUSH2 0x4E4C JUMP JUMPDEST SWAP7 POP PUSH2 0x4FCB PUSH1 0x40 DUP11 ADD PUSH2 0x4E4C JUMP JUMPDEST SWAP6 POP PUSH1 0x60 DUP10 ADD CALLDATALOAD SWAP5 POP PUSH1 0x80 DUP10 ADD CALLDATALOAD SWAP4 POP PUSH2 0x4FE7 PUSH1 0xA0 DUP11 ADD PUSH2 0x4EA3 JUMP JUMPDEST SWAP3 POP PUSH1 0xC0 DUP10 ADD CALLDATALOAD PUSH8 0xFFFFFFFFFFFFFFFF DUP2 GT ISZERO PUSH2 0x5002 JUMPI DUP2 DUP3 REVERT JUMPDEST PUSH2 0x500E DUP12 DUP3 DUP13 ADD PUSH2 0x4E63 JUMP JUMPDEST SWAP10 SWAP13 SWAP9 SWAP12 POP SWAP7 SWAP10 POP SWAP5 SWAP8 SWAP4 SWAP7 SWAP3 SWAP6 SWAP5 POP POP POP JUMP JUMPDEST PUSH1 0x0 DUP1 PUSH1 0x0 DUP1 PUSH1 0x0 DUP1 PUSH1 0x0 DUP1 PUSH1 0xE0 DUP10 DUP12 SUB SLT ISZERO PUSH2 0x503D JUMPI DUP4 DUP5 REVERT JUMPDEST PUSH2 0x5046 DUP10 PUSH2 0x4E4C JUMP JUMPDEST SWAP8 POP PUSH2 0x5054 PUSH1 0x20 DUP11 ADD PUSH2 0x4E4C JUMP JUMPDEST SWAP7 POP PUSH1 0x40 DUP10 ADD CALLDATALOAD SWAP6 POP PUSH1 0x60 DUP10 ADD CALLDATALOAD SWAP5 POP PUSH1 0x80 DUP10 ADD CALLDATALOAD SWAP4 POP PUSH2 0x5077 PUSH1 0xA0 DUP11 ADD PUSH2 0x4EA3 JUMP JUMPDEST SWAP3 POP PUSH1 0xC0 DUP10 ADD CALLDATALOAD PUSH8 0xFFFFFFFFFFFFFFFF DUP2 GT ISZERO PUSH2 0x5002 JUMPI DUP3 DUP4 REVERT JUMPDEST PUSH1 0x0 DUP1 PUSH1 0x0 DUP1 PUSH1 0x0 DUP1 PUSH1 0x0 DUP1 PUSH1 0x0 PUSH2 0x100 DUP11 DUP13 SUB SLT ISZERO PUSH2 0x50B0 JUMPI DUP1 DUP2 REVERT JUMPDEST PUSH2 0x50B9 DUP11 PUSH2 0x4E4C JUMP JUMPDEST SWAP9 POP PUSH2 0x50C7 PUSH1 0x20 DUP12 ADD PUSH2 0x4E4C JUMP JUMPDEST SWAP8 POP PUSH1 0x40 DUP11 ADD CALLDATALOAD SWAP7 POP PUSH1 0x60 DUP11 ADD CALLDATALOAD SWAP6 POP PUSH1 0x80 DUP11 ADD CALLDATALOAD SWAP5 POP PUSH2 0x50EA PUSH1 0xA0 DUP12 ADD PUSH2 0x4EA3 JUMP JUMPDEST SWAP4 POP PUSH2 0x50F8 PUSH1 0xC0 DUP12 ADD PUSH2 0x4EA3 JUMP JUMPDEST SWAP3 POP PUSH1 0xE0 DUP11 ADD CALLDATALOAD PUSH8 0xFFFFFFFFFFFFFFFF DUP2 GT ISZERO PUSH2 0x5113 JUMPI DUP2 DUP3 REVERT JUMPDEST PUSH2 0x511F DUP13 DUP3 DUP14 ADD PUSH2 0x4E63 JUMP JUMPDEST SWAP2 POP DUP1 SWAP4 POP POP DUP1 SWAP2 POP POP SWAP3 SWAP6 SWAP9 POP SWAP3 SWAP6 SWAP9 POP SWAP3 SWAP6 SWAP9 JUMP JUMPDEST PUSH1 0x0 PUSH1 0x20 DUP3 DUP5 SUB SLT ISZERO PUSH2 0x5147 JUMPI DUP1 DUP2 REVERT JUMPDEST POP MLOAD SWAP2 SWAP1 POP JUMP JUMPDEST PUSH1 0x0 DUP1 PUSH1 0x0 DUP1 PUSH1 0x0 PUSH1 0xA0 DUP7 DUP9 SUB SLT ISZERO PUSH2 0x5165 JUMPI DUP1 DUP2 REVERT JUMPDEST PUSH2 0x516E DUP7 PUSH2 0x4EB7 JUMP JUMPDEST SWAP5 POP PUSH1 0x20 DUP7 ADD MLOAD SWAP4 POP PUSH1 0x40 DUP7 ADD MLOAD SWAP3 POP PUSH1 0x60 DUP7 ADD MLOAD SWAP2 POP PUSH2 0x5191 PUSH1 0x80 DUP8 ADD PUSH2 0x4EB7 JUMP JUMPDEST SWAP1 POP SWAP3 SWAP6 POP SWAP3 SWAP6 SWAP1 SWAP4 POP JUMP JUMPDEST PUSH1 0x0 DUP3 DUP5 MSTORE DUP3 DUP3 PUSH1 0x20 DUP7 ADD CALLDATACOPY DUP1 PUSH1 0x20 DUP5 DUP7 ADD ADD MSTORE PUSH1 0x20 PUSH1 0x1F NOT PUSH1 0x1F DUP6 ADD AND DUP6 ADD ADD SWAP1 POP SWAP4 SWAP3 POP POP POP JUMP JUMPDEST PUSH1 0x1 PUSH1 0x1 PUSH1 0xA0 SHL SUB SWAP2 SWAP1 SWAP2 AND DUP2 MSTORE PUSH1 0x20 ADD SWAP1 JUMP JUMPDEST PUSH1 0x0 PUSH1 0x1 DUP1 PUSH1 0xA0 SHL SUB DUP1 DUP11 AND DUP4 MSTORE DUP1 DUP10 AND PUSH1 0x20 DUP5 ADD MSTORE POP DUP7 PUSH1 0x40 DUP4 ADD MSTORE DUP6 PUSH1 0x60 DUP4 ADD MSTORE DUP5 PUSH1 0x80 DUP4 ADD MSTORE PUSH1 0xC0 PUSH1 0xA0 DUP4 ADD MSTORE PUSH2 0x3FA7 PUSH1 0xC0 DUP4 ADD DUP5 DUP7 PUSH2 0x519D JUMP JUMPDEST PUSH1 0x1 PUSH1 0x1 PUSH1 0xA0 SHL SUB SWAP4 DUP5 AND DUP2 MSTORE PUSH1 0x20 DUP2 ADD SWAP3 SWAP1 SWAP3 MSTORE SWAP1 SWAP2 AND PUSH1 0x40 DUP3 ADD MSTORE PUSH1 0x60 ADD SWAP1 JUMP JUMPDEST PUSH1 0x1 PUSH1 0x1 PUSH1 0xA0 SHL SUB SWAP5 DUP6 AND DUP2 MSTORE PUSH1 0x20 DUP2 ADD SWAP4 SWAP1 SWAP4 MSTORE SWAP3 AND PUSH1 0x40 DUP3 ADD MSTORE PUSH2 0xFFFF SWAP1 SWAP2 AND PUSH1 0x60 DUP3 ADD MSTORE PUSH1 0x80 ADD SWAP1 JUMP JUMPDEST PUSH1 0x1 PUSH1 0x1 PUSH1 0xA0 SHL SUB SWAP4 SWAP1 SWAP4 AND DUP4 MSTORE PUSH1 0x20 DUP4 ADD SWAP2 SWAP1 SWAP2 MSTORE PUSH1 0x40 DUP3 ADD MSTORE PUSH1 0x60 ADD SWAP1 JUMP JUMPDEST PUSH1 0x0 PUSH1 0x1 DUP1 PUSH1 0xA0 SHL SUB DUP8 AND DUP3 MSTORE DUP6 PUSH1 0x20 DUP4 ADD MSTORE DUP5 PUSH1 0x40 DUP4 ADD MSTORE PUSH1 0x80 PUSH1 0x60 DUP4 ADD MSTORE PUSH2 0x247F PUSH1 0x80 DUP4 ADD DUP5 DUP7 PUSH2 0x519D JUMP JUMPDEST SWAP1 ISZERO ISZERO DUP2 MSTORE PUSH1 0x20 ADD SWAP1 JUMP JUMPDEST SWAP1 DUP2 MSTORE PUSH1 0x20 ADD SWAP1 JUMP JUMPDEST SWAP2 DUP3 MSTORE PUSH1 0x20 DUP3 ADD MSTORE PUSH1 0x40 ADD SWAP1 JUMP JUMPDEST SWAP4 DUP5 MSTORE PUSH1 0x20 DUP5 ADD SWAP3 SWAP1 SWAP3 MSTORE PUSH1 0x40 DUP4 ADD MSTORE PUSH1 0x60 DUP3 ADD MSTORE PUSH1 0x80 ADD SWAP1 JUMP JUMPDEST PUSH1 0x20 DUP1 DUP3 MSTORE PUSH1 0xC SWAP1 DUP3 ADD MSTORE PUSH12 0x155B985D5D1A1BDC9A5E9959 PUSH1 0xA2 SHL PUSH1 0x40 DUP3 ADD MSTORE PUSH1 0x60 ADD SWAP1 JUMP JUMPDEST PUSH1 0x20 DUP1 DUP3 MSTORE PUSH1 0x15 SWAP1 DUP3 ADD MSTORE PUSH21 0xACC2EAD8E840A6D0C2E4CAE6409AD2E6DAC2E8C6D PUSH1 0x5B SHL PUSH1 0x40 DUP3 ADD MSTORE PUSH1 0x60 ADD SWAP1 JUMP JUMPDEST PUSH1 0x20 DUP1 DUP3 MSTORE PUSH1 0x4 SWAP1 DUP3 ADD MSTORE PUSH4 0x135A5B9D PUSH1 0xE2 SHL PUSH1 0x40 DUP3 ADD MSTORE PUSH1 0x60 ADD SWAP1 JUMP JUMPDEST PUSH1 0x20 DUP1 DUP3 MSTORE PUSH1 0x6 SWAP1 DUP3 ADD MSTORE PUSH6 0x52656465656D PUSH1 0xD0 SHL PUSH1 0x40 DUP3 ADD MSTORE PUSH1 0x60 ADD SWAP1 JUMP JUMPDEST PUSH1 0x20 DUP1 DUP3 MSTORE PUSH1 0x16 SWAP1 DUP3 ADD MSTORE PUSH22 0x125B9CDD59999A58DA595B9D081C995C185E5B595B9D PUSH1 0x52 SHL PUSH1 0x40 DUP3 ADD MSTORE PUSH1 0x60 ADD SWAP1 JUMP JUMPDEST PUSH1 0x20 DUP1 DUP3 MSTORE PUSH1 0x15 SWAP1 DUP3 ADD MSTORE PUSH21 0x10D1CE881B9BC81B585C9AD95D1CC81B1A5CDD1959 PUSH1 0x5A SHL PUSH1 0x40 DUP3 ADD MSTORE PUSH1 0x60 ADD SWAP1 JUMP JUMPDEST PUSH1 0x20 DUP1 DUP3 MSTORE PUSH1 0xD SWAP1 DUP3 ADD MSTORE PUSH13 0x92DCECC2D8D2C840D2DCC8CAF PUSH1 0x9B SHL PUSH1 0x40 DUP3 ADD MSTORE PUSH1 0x60 ADD SWAP1 JUMP JUMPDEST PUSH1 0x20 DUP1 DUP3 MSTORE PUSH1 0x10 SWAP1 DUP3 ADD MSTORE PUSH16 0x496E76616C6964204D61747572697479 PUSH1 0x80 SHL PUSH1 0x40 DUP3 ADD MSTORE PUSH1 0x60 ADD SWAP1 JUMP JUMPDEST PUSH1 0x20 DUP1 DUP3 MSTORE PUSH1 0xC SWAP1 DUP3 ADD MSTORE PUSH12 0x4D6178204361706163697479 PUSH1 0xA0 SHL PUSH1 0x40 DUP3 ADD MSTORE PUSH1 0x60 ADD SWAP1 JUMP JUMPDEST PUSH1 0x20 DUP1 DUP3 MSTORE PUSH1 0xB SWAP1 DUP3 ADD MSTORE PUSH11 0x139BDD0814D95D1D1B1959 PUSH1 0xAA SHL PUSH1 0x40 DUP3 ADD MSTORE PUSH1 0x60 ADD SWAP1 JUMP JUMPDEST PUSH1 0x20 DUP1 DUP3 MSTORE PUSH1 0x16 SWAP1 DUP3 ADD MSTORE PUSH22 0x10D1CE881B585C9AD95D081A5B99195E08189BDD5B99 PUSH1 0x52 SHL PUSH1 0x40 DUP3 ADD MSTORE PUSH1 0x60 ADD SWAP1 JUMP JUMPDEST PUSH1 0x20 DUP1 DUP3 MSTORE PUSH1 0xF SWAP1 DUP3 ADD MSTORE PUSH15 0x139BC8149BDB1B08105B1B1BDDD959 PUSH1 0x8A SHL PUSH1 0x40 DUP3 ADD MSTORE PUSH1 0x60 ADD SWAP1 JUMP JUMPDEST PUSH1 0x20 DUP1 DUP3 MSTORE PUSH1 0x17 SWAP1 DUP3 ADD MSTORE PUSH32 0x496E73756666696369656E7420436F6C6C61746572616C000000000000000000 PUSH1 0x40 DUP3 ADD MSTORE PUSH1 0x60 ADD SWAP1 JUMP JUMPDEST PUSH1 0x20 DUP1 DUP3 MSTORE PUSH1 0x17 SWAP1 DUP3 ADD MSTORE PUSH32 0x4D757374204C697175696461746520416C6C2044656274000000000000000000 PUSH1 0x40 DUP3 ADD MSTORE PUSH1 0x60 ADD SWAP1 JUMP JUMPDEST PUSH1 0x20 DUP1 DUP3 MSTORE PUSH1 0xC SWAP1 DUP3 ADD MSTORE PUSH12 0x496E76616C69642072617465 PUSH1 0xA0 SHL PUSH1 0x40 DUP3 ADD MSTORE PUSH1 0x60 ADD SWAP1 JUMP JUMPDEST PUSH1 0x20 DUP1 DUP3 MSTORE PUSH1 0xE SWAP1 DUP3 ADD MSTORE PUSH14 0x1499595B9D1C985B9D0818D85B1B PUSH1 0x92 SHL PUSH1 0x40 DUP3 ADD MSTORE PUSH1 0x60 ADD SWAP1 JUMP JUMPDEST PUSH1 0x20 DUP1 DUP3 MSTORE PUSH1 0xD SWAP1 DUP3 ADD MSTORE PUSH13 0x109BDC9C9BDDC819985A5B1959 PUSH1 0x9A SHL PUSH1 0x40 DUP3 ADD MSTORE PUSH1 0x60 ADD SWAP1 JUMP JUMPDEST PUSH1 0x20 DUP1 DUP3 MSTORE PUSH1 0xA SWAP1 DUP3 ADD MSTORE PUSH10 0x4D696E20426F72726F77 PUSH1 0xB0 SHL PUSH1 0x40 DUP3 ADD MSTORE PUSH1 0x60 ADD SWAP1 JUMP JUMPDEST PUSH1 0x20 DUP1 DUP3 MSTORE PUSH1 0xB SWAP1 DUP3 ADD MSTORE PUSH11 0x92DCECC2D8D2C8408AA89 PUSH1 0xAB SHL PUSH1 0x40 DUP3 ADD MSTORE PUSH1 0x60 ADD SWAP1 JUMP JUMPDEST PUSH1 0x20 DUP1 DUP3 MSTORE PUSH1 0x13 SWAP1 DUP3 ADD MSTORE PUSH19 0x10D1CE881B9BC81B585C9AD95D08199BDD5B99 PUSH1 0x6A SHL PUSH1 0x40 DUP3 ADD MSTORE PUSH1 0x60 ADD SWAP1 JUMP JUMPDEST PUSH1 0x20 DUP1 DUP3 MSTORE PUSH1 0xC SWAP1 DUP3 ADD MSTORE PUSH12 0x21B0B73737BA1022B73A32B9 PUSH1 0xA1 SHL PUSH1 0x40 DUP3 ADD MSTORE PUSH1 0x60 ADD SWAP1 JUMP JUMPDEST PUSH1 0x20 DUP1 DUP3 MSTORE PUSH1 0xB SWAP1 DUP3 ADD MSTORE PUSH11 0x11985A5B19590813195B99 PUSH1 0xAA SHL PUSH1 0x40 DUP3 ADD MSTORE PUSH1 0x60 ADD SWAP1 JUMP JUMPDEST PUSH1 0x20 DUP1 DUP3 MSTORE PUSH1 0x15 SWAP1 DUP3 ADD MSTORE PUSH21 0x14DD59999A58DA595B9D0810DBDB1B185D195C985B PUSH1 0x5A SHL PUSH1 0x40 DUP3 ADD MSTORE PUSH1 0x60 ADD SWAP1 JUMP JUMPDEST DUP2 MLOAD DUP2 MSTORE PUSH1 0x20 DUP1 DUP4 ADD MLOAD SWAP1 DUP3 ADD MSTORE PUSH1 0x40 DUP1 DUP4 ADD MLOAD SWAP1 DUP3 ADD MSTORE PUSH1 0x60 DUP1 DUP4 ADD MLOAD PUSH1 0x1 PUSH1 0x1 PUSH1 0xA0 SHL SUB AND SWAP1 DUP3 ADD MSTORE PUSH1 0x80 SWAP2 DUP3 ADD MLOAD SWAP2 DUP2 ADD SWAP2 SWAP1 SWAP2 MSTORE PUSH1 0xA0 ADD SWAP1 JUMP JUMPDEST PUSH1 0x1 PUSH1 0x1 PUSH1 0x80 SHL SUB SWAP2 SWAP1 SWAP2 AND DUP2 MSTORE PUSH1 0x20 ADD SWAP1 JUMP JUMPDEST PUSH2 0xFFFF SWAP3 SWAP1 SWAP3 AND DUP3 MSTORE PUSH1 0x20 DUP3 ADD MSTORE PUSH1 0x40 ADD SWAP1 JUMP JUMPDEST DUP4 DUP2 MSTORE PUSH1 0x80 DUP2 ADD PUSH1 0x20 DUP1 DUP4 ADD DUP6 PUSH1 0x0 JUMPDEST PUSH1 0x2 DUP2 LT ISZERO PUSH2 0x5742 JUMPI DUP2 MLOAD DUP4 MSTORE SWAP2 DUP4 ADD SWAP2 SWAP1 DUP4 ADD SWAP1 PUSH1 0x1 ADD PUSH2 0x5725 JUMP JUMPDEST POP POP POP POP DUP3 PUSH1 0x60 DUP4 ADD MSTORE SWAP5 SWAP4 POP POP POP POP JUMP JUMPDEST SWAP2 DUP3 MSTORE ISZERO ISZERO PUSH1 0x20 DUP3 ADD MSTORE PUSH1 0x40 ADD SWAP1 JUMP JUMPDEST SWAP3 DUP4 MSTORE PUSH1 0x20 DUP4 ADD SWAP2 SWAP1 SWAP2 MSTORE PUSH1 0x40 DUP3 ADD MSTORE PUSH1 0x60 ADD SWAP1 JUMP INVALID LOG2 PUSH5 0x6970667358 0x22 SLT KECCAK256 0xBB DUP12 SWAP7 PUSH26 0xF8124C700ABE6B8A1A1E121721773B75AD22F86E76AD67120338 0xB8 0x4C PUSH5 0x736F6C6343 STOP SMOD MOD STOP CALLER ","sha1":"a3053104f4e72ccb14319e1bf8e9f025c7276641","source":"// SPDX-License-Identifier: GPL-3.0-only\npragma solidity =0.7.6;\npragma abicoder v2;\n\nimport {ActionGuards} from \"./ActionGuards.sol\";\nimport {IVaultAccountAction} from \"../../../interfaces/notional/IVaultController.sol\";\nimport \"../../internal/vaults/VaultConfiguration.sol\";\nimport \"../../internal/vaults/VaultAccount.sol\";\nimport {VaultStateLib, VaultState} from \"../../internal/vaults/VaultState.sol\";\nimport {TokenHandler, Token, AaveHandler} from \"../../internal/balances/TokenHandler.sol\";\n\ncontract VaultAccountAction is ActionGuards, IVaultAccountAction {\n    using VaultConfiguration for VaultConfig;\n    using VaultAccountLib for VaultAccount;\n    using VaultStateLib for VaultState;\n    using AssetRate for AssetRateParameters;\n    using TokenHandler for Token;\n    using SafeInt256 for int256;\n    using SafeUint256 for uint256;\n\n    /// @notice Borrows a specified amount of fCash in the vault's borrow currency and deposits it\n    /// all plus the depositAmountExternal into the vault to mint strategy tokens.\n    /// @param account the address that will enter the vault\n    /// @param vault the vault to enter\n    /// @param depositAmountExternal some amount of additional collateral in the borrowed currency\n    /// to be transferred to vault\n    /// @param maturity the maturity to borrow at\n    /// @param fCash amount to borrow\n    /// @param maxBorrowRate maximum interest rate to borrow at\n    /// @param vaultData additional data to pass to the vault contract\n    /// @return strategyTokensAdded the total strategy tokens added to the maturity, including any tokens\n    /// from settlement. Allows enterVault to be used by off-chain methods to get an accurate simulation\n    /// of the strategy tokens minted.\n    function enterVault(\n        address account,\n        address vault,\n        uint256 depositAmountExternal,\n        uint256 maturity,\n        uint256 fCash,\n        uint32 maxBorrowRate,\n        bytes calldata vaultData\n    ) external payable override nonReentrant returns (uint256 strategyTokensAdded) { \n        // Ensure that system level accounts cannot enter vaults\n        requireValidAccount(account);\n        VaultConfig memory vaultConfig = VaultConfiguration.getVaultConfigStateful(vault);\n        vaultConfig.authorizeCaller(account, VaultConfiguration.ONLY_VAULT_ENTRY);\n\n        // If the vault allows further re-entrancy then set the status back to the default\n        if (vaultConfig.getFlag(VaultConfiguration.ALLOW_REENTRANCY)) {\n            reentrancyStatus = _NOT_ENTERED;\n        }\n\n        // Vaults cannot be entered if they are paused or matured\n        require(vaultConfig.getFlag(VaultConfiguration.ENABLED), \"Cannot Enter\");\n        require(block.timestamp < maturity, \"Cannot Enter\");\n        VaultAccount memory vaultAccount = VaultAccountLib.getVaultAccount(account, vault);\n\n        uint256 strategyTokens;\n        if (vaultAccount.maturity != 0 && vaultAccount.maturity <= block.timestamp) {\n            // These strategy tokens will be transferred to the new maturity\n            strategyTokens = vaultAccount.settleVaultAccount(vaultConfig, block.timestamp);\n        }\n\n        // Deposits some amount of underlying tokens into the vault directly to serve as additional collateral when\n        // entering the vault.\n        uint256 additionalUnderlyingExternal = vaultConfig.transferUnderlyingToVaultDirect(account, depositAmountExternal);\n        strategyTokensAdded = vaultAccount.borrowAndEnterVault(\n            vaultConfig, maturity, fCash, maxBorrowRate, vaultData, strategyTokens, additionalUnderlyingExternal\n        );\n\n        emit VaultEnterPosition(vault, account, maturity, fCash);\n    }\n\n    /// @notice Re-enters the vault at a longer dated maturity. The account's existing borrow position will be closed\n    /// and a new borrow position at the specified maturity will be opened. Strategy token holdings will transfer to\n    /// the longer dated maturity.\n    /// @param account the address that will reenter the vault\n    /// @param vault the vault to reenter\n    /// @param fCashToBorrow amount of fCash to borrow in the next maturity\n    /// @param maturity new maturity to borrow at\n    /// @param depositAmountExternal amount to deposit into the new maturity\n    /// @param minLendRate slippage protection for repaying debts\n    /// @param maxBorrowRate slippage protection for new borrow position\n    /// @return strategyTokensAdded the total strategy tokens added to the maturity, including any tokens\n    /// rolled from the previous maturity.. Allows rollVaultPosition to be used by off-chain methods to get\n    /// an accurate simulation of the strategy tokens minted.\n    function rollVaultPosition(\n        address account,\n        address vault,\n        uint256 fCashToBorrow,\n        uint256 maturity,\n        uint256 depositAmountExternal,\n        uint32 minLendRate,\n        uint32 maxBorrowRate,\n        bytes calldata enterVaultData\n    ) external payable override nonReentrant returns (uint256 strategyTokensAdded) {\n        VaultConfig memory vaultConfig = VaultConfiguration.getVaultConfigStateful(vault);\n        vaultConfig.authorizeCaller(account, VaultConfiguration.ONLY_VAULT_ROLL);\n\n        // If the vault allows further re-entrancy then set the status back to the default\n        if (vaultConfig.getFlag(VaultConfiguration.ALLOW_REENTRANCY)) {\n            reentrancyStatus = _NOT_ENTERED;\n        }\n\n        VaultAccount memory vaultAccount = VaultAccountLib.getVaultAccount(account, vault);\n        // Cannot roll unless all of these requirements are met\n        require(\n            vaultConfig.getFlag(VaultConfiguration.ENABLED) &&\n            vaultConfig.getFlag(VaultConfiguration.ALLOW_ROLL_POSITION) &&\n            block.timestamp < vaultAccount.maturity && // cannot have matured yet\n            vaultAccount.maturity < maturity && // new maturity must be forward in time\n            fCashToBorrow > 0, // must borrow into the next maturity, if not, then they should just exit\n            \"No Roll Allowed\"\n        );\n\n        VaultState memory vaultState = VaultStateLib.getVaultState(vaultConfig.vault, vaultAccount.maturity);\n        // Exit the maturity pool by removing all the vault shares. All of the strategy tokens will be\n        // re-deposited into the new maturity\n        uint256 strategyTokens = vaultState.exitMaturity(vaultAccount, vaultAccount.vaultShares);\n\n        // Exit the vault first and debit the temporary cash balance with the cost to exit\n        vaultAccount.lendToExitVault(\n            vaultConfig,\n            vaultState,\n            vaultAccount.fCash.neg(), // must fully exit the fCash position\n            minLendRate,\n            block.timestamp\n        );\n\n        // This should never be the case for a healthy vault account due to the mechanics of exiting the vault\n        // above but we check it for safety here.\n        require(vaultAccount.fCash == 0, \"Failed Lend\");\n        vaultState.setVaultState(vaultConfig.vault);\n\n        // Takes a deposit from the user as repayment for the lending, allows an account to roll their position\n        // even if they are close to the max borrow capacity.\n        if (depositAmountExternal > 0) {\n            vaultAccount.depositForRollPosition(vaultConfig, depositAmountExternal);\n        }\n\n        // Enters the vault at the longer dated maturity\n        strategyTokensAdded = vaultAccount.borrowAndEnterVault(\n            vaultConfig,\n            maturity, // This is the new maturity to enter\n            fCashToBorrow,\n            maxBorrowRate,\n            enterVaultData,\n            strategyTokens,\n            0 // No additional tokens deposited in this method\n        );\n\n        emit VaultRollPosition(vault, account, maturity, fCashToBorrow);\n    }\n\n    /// @notice Prior to maturity, allows an account to withdraw their position from the vault. Will\n    /// redeem some number of vault shares to the borrow currency and close the borrow position by\n    /// lending `fCashToLend`. Any shortfall in cash from lending will be transferred from the account,\n    /// any excess profits will be transferred to the account.\n    /// Post maturity, will net off the account's debt against vault cash balances and redeem all remaining\n    /// strategy tokens back to the borrowed currency and transfer the profits to the account.\n    /// @param account the address that will exit the vault\n    /// @param vault the vault to enter\n    /// @param receiver the address that will receive profits\n    /// @param vaultSharesToRedeem amount of vault tokens to exit, only relevant when exiting pre-maturity\n    /// @param fCashToLend amount of fCash to lend\n    /// @param minLendRate the minimum rate to lend at\n    /// @param exitVaultData passed to the vault during exit\n    /// @return underlyingToReceiver amount of underlying tokens returned to the receiver on exit\n    function exitVault(\n        address account,\n        address vault,\n        address receiver,\n        uint256 vaultSharesToRedeem,\n        uint256 fCashToLend,\n        uint32 minLendRate,\n        bytes calldata exitVaultData\n    ) external payable override nonReentrant returns (uint256 underlyingToReceiver) {\n        VaultConfig memory vaultConfig = VaultConfiguration.getVaultConfigStateful(vault);\n        vaultConfig.authorizeCaller(account, VaultConfiguration.ONLY_VAULT_EXIT);\n\n        // If the vault allows further re-entrancy then set the status back to the default\n        if (vaultConfig.getFlag(VaultConfiguration.ALLOW_REENTRANCY)) {\n            reentrancyStatus = _NOT_ENTERED;\n        }\n\n        VaultAccount memory vaultAccount = VaultAccountLib.getVaultAccount(account, vault);\n\n        if (vaultAccount.maturity <= block.timestamp) {\n            // Save this off because settleVaultAccount will clear the maturity\n            uint256 maturity = vaultAccount.maturity;\n            // Past maturity, an account will be settled instead\n            uint256 strategyTokens = vaultAccount.settleVaultAccount(vaultConfig, block.timestamp);\n\n            if (vaultAccount.tempCashBalance > 0) {\n                // Transfer asset cash back to the account\n                VaultConfiguration.transferFromNotional(\n                    receiver, vaultConfig.borrowCurrencyId, vaultAccount.tempCashBalance\n                );\n                vaultAccount.tempCashBalance = 0;\n            }\n\n            // Redeems all strategy tokens and any profits are sent back to the account, it is possible for temp\n            // cash balance to be negative here if the account is insolvent\n            underlyingToReceiver = vaultConfig.redeemWithDebtRepayment(\n                vaultAccount, receiver, strategyTokens, maturity, exitVaultData\n            );\n            emit VaultExitPostMaturity(vault, account, maturity, underlyingToReceiver);\n        } else {\n            VaultState memory vaultState = VaultStateLib.getVaultState(vaultConfig.vault, vaultAccount.maturity);\n            // Puts a negative cash balance on the vault's temporary cash balance\n            vaultAccount.lendToExitVault(\n                vaultConfig, vaultState, fCashToLend.toInt(), minLendRate, block.timestamp\n            );\n\n            uint256 strategyTokens = vaultState.exitMaturity(vaultAccount, vaultSharesToRedeem);\n\n            if (vaultAccount.tempCashBalance > 0) {\n                // Transfer asset cash back to the account, this is possible if there is asset cash\n                // when the vault exits the maturity\n                VaultConfiguration.transferFromNotional(\n                    receiver, vaultConfig.borrowCurrencyId, vaultAccount.tempCashBalance\n                );\n                vaultAccount.tempCashBalance = 0;\n            }\n\n            if (strategyTokens > 0) {\n                underlyingToReceiver = vaultConfig.redeemWithDebtRepayment(\n                    vaultAccount, receiver, strategyTokens, vaultState.maturity, exitVaultData\n                );\n            }\n\n            if (vaultAccount.fCash < 0) {\n                // It's possible that the user redeems more vault shares than they lend (it is not always the case\n                // that they will be increasing their collateral ratio here, so we check that this is the case).\n                vaultConfig.checkCollateralRatio(vaultState, vaultAccount);\n            }\n\n            // Set the vault state after redemption completes\n            vaultState.setVaultState(vaultConfig.vault);\n            emit VaultExitPreMaturity(vault, account, vaultState.maturity, fCashToLend, vaultSharesToRedeem, underlyingToReceiver);\n        }\n\n        if (vaultAccount.fCash == 0 && vaultAccount.vaultShares == 0) {\n            // If the account has no position in the vault at this point, set the maturity to zero as well\n            vaultAccount.maturity = 0;\n        }\n        vaultAccount.setVaultAccount(vaultConfig);\n    }\n\n    /// @notice If an account is below the minimum collateral ratio, this method wil deleverage (liquidate)\n    /// that account. `depositAmountExternal` in the borrow currency will be transferred from the liquidator\n    /// and used to offset the account's debt position. The liquidator will receive either vaultShares or\n    /// cash depending.\n    /// @param account the address that will exit the vault\n    /// @param vault the vault to enter\n    /// @param liquidator the address that will receive profits from liquidation\n    /// @param depositAmountExternal amount of asset cash to deposit\n    /// @param transferSharesToLiquidator transfers the shares to the liquidator instead of redeeming them\n    /// @param redeemData calldata sent to the vault when redeeming liquidator profits\n    /// @return profitFromLiquidation amount of vaultShares or cash received from liquidation\n    function deleverageAccount(\n        address account,\n        address vault,\n        address liquidator,\n        uint256 depositAmountExternal,\n        bool transferSharesToLiquidator,\n        bytes calldata redeemData\n    ) external nonReentrant override returns (uint256 profitFromLiquidation) {\n        VaultConfig memory vaultConfig = _authenticateDeleverage(account, vault, liquidator);\n        VaultAccount memory vaultAccount = VaultAccountLib.getVaultAccount(account, vault);\n        VaultState memory vaultState = VaultStateLib.getVaultState(vault, vaultAccount.maturity);\n\n        // Check that the account has an active position. After maturity, accounts will be settled instead.\n        require(block.timestamp < vaultAccount.maturity);\n\n        // Check that the collateral ratio is below the minimum allowed\n        (int256 collateralRatio, int256 vaultShareValue) = vaultConfig.calculateCollateralRatio(\n            vaultState, account, vaultAccount.vaultShares, vaultAccount.fCash\n        );\n        require(collateralRatio < vaultConfig.minCollateralRatio , \"Sufficient Collateral\");\n\n        Token memory assetToken = TokenHandler.getAssetToken(vaultConfig.borrowCurrencyId);\n        // This will deposit some amount of cash into vaultAccount.tempCashBalance\n        _depositLiquidatorAmount(\n            liquidator, assetToken, vaultAccount, vaultConfig, depositAmountExternal, vaultShareValue\n        );\n\n        // The liquidator will purchase vault shares from the vault account at discount. The calculation is:\n        // (cashDeposited / assetCashValueOfShares) * liquidationRate * vaultShares\n        //      where cashDeposited / assetCashValueOfShares represents the share of the total vault share\n        //      value the liquidator has deposited\n        //      and liquidationRate is a percentage greater than 100% that represents their bonus\n        uint256 vaultSharesToLiquidator;\n        {\n            vaultSharesToLiquidator = vaultAccount.tempCashBalance.toUint()\n                .mul(vaultConfig.liquidationRate.toUint())\n                .mul(vaultAccount.vaultShares)\n                .div(vaultShareValue.toUint())\n                .div(uint256(Constants.RATE_PRECISION));\n        }\n\n        vaultAccount.vaultShares = vaultAccount.vaultShares.sub(vaultSharesToLiquidator);\n        // The liquidated account will lend to exit their position at a zero interest rate and forgo any future interest\n        // from asset tokens. Trading on the AMM during liquidation is risky and lending at a zero interest rate is more\n        // costly to the the liquidated account but is safer from a protocol perspective. This can be seen as a protocol\n        // level liquidation fee.\n        {\n            int256 fCashToReduce = vaultConfig.assetRate.convertToUnderlying(vaultAccount.tempCashBalance);\n            vaultAccount.updateAccountfCash(vaultConfig, vaultState, fCashToReduce, vaultAccount.tempCashBalance.neg());\n            // _calculateLiquidatorDeposit should ensure that we only ever lend up to a zero balance, but in the\n            // case of any off by one issues we clear the fCash balance by down to zero.\n            if (vaultAccount.fCash > 0) vaultAccount.fCash = 0;\n            emit VaultDeleverageAccount(vault, account, vaultSharesToLiquidator, fCashToReduce);\n        }\n\n        // Sets the liquidated account account\n        vaultAccount.setVaultAccount(vaultConfig);\n\n        // Redeems the vault shares for asset cash and transfers it to the designated address\n        emit VaultLiquidatorProfit(vault, account, liquidator, vaultSharesToLiquidator, transferSharesToLiquidator);\n        if (transferSharesToLiquidator) {\n            vaultState.setVaultState(vaultConfig.vault);\n            profitFromLiquidation = _transferLiquidatorProfits(liquidator, vaultConfig, vaultSharesToLiquidator, vaultAccount.maturity);\n        } else {\n            profitFromLiquidation = _redeemLiquidatorProfits(\n                liquidator, vaultConfig, vaultState, vaultSharesToLiquidator, redeemData, assetToken\n            );\n        }\n    }\n\n    /// @notice Authenticates a call to the deleverage method\n    function _authenticateDeleverage(\n        address account,\n        address vault,\n        address liquidator\n    ) private returns (VaultConfig memory vaultConfig) {\n        vaultConfig = VaultConfiguration.getVaultConfigStateful(vault);\n        // If the vault allows further re-entrancy then set the status back to the default\n        if (vaultConfig.getFlag(VaultConfiguration.ALLOW_REENTRANCY)) {\n            reentrancyStatus = _NOT_ENTERED;\n        }\n\n        // Authorization rules for deleveraging\n        if (vaultConfig.getFlag(VaultConfiguration.ONLY_VAULT_DELEVERAGE)) {\n            require(msg.sender == vault, \"Unauthorized\");\n        } else {\n            require(msg.sender == liquidator, \"Unauthorized\");\n        }\n\n        // Cannot liquidate self, if a vault needs to deleverage itself as a whole it has other methods \n        // in VaultAction to do so.\n        require(account != msg.sender && account != liquidator, \"Unauthorized\");\n    }\n\n    /// @notice Calculates the amount the liquidator must deposit and then transfers it into Notional,\n    /// crediting the account's temporary cash balance. Deposits must be in the form of asset cash.\n    function _depositLiquidatorAmount(\n        address liquidator,\n        Token memory assetToken,\n        VaultAccount memory vaultAccount,\n        VaultConfig memory vaultConfig,\n        uint256 _depositAmountExternal,\n        int256 vaultShareValue\n    ) private {\n        int256 depositAmountExternal = _depositAmountExternal.toInt();\n        if (assetToken.tokenType == TokenType.aToken) {\n            // Handles special accounting requirements for aTokens\n            depositAmountExternal = AaveHandler.convertToScaledBalanceExternal(\n                vaultConfig.borrowCurrencyId, depositAmountExternal\n            );\n        }\n\n        // Calculates the maximum deleverage amount\n        (\n            int256 maxLiquidatorDepositAssetCash,\n            int256 debtOutstandingAboveMinBorrow\n        ) = vaultAccount.calculateDeleverageAmount(vaultConfig, vaultShareValue);\n        // Catch potential edge cases where this is negative due to insolvency inside the vault itself\n        require(maxLiquidatorDepositAssetCash > 0);\n        // For aTokens this amount is in scaled balance external precision (the same as depositAmountExternal)\n        int256 maxLiquidatorDepositExternal = assetToken.convertToExternal(maxLiquidatorDepositAssetCash);\n\n        // NOTE: deposit amount external is always positive in this method\n        if (depositAmountExternal < maxLiquidatorDepositExternal) {\n            // If liquidating past the debt outstanding above the min borrow, then the entire debt outstanding\n            // must be liquidated (that is set to maxLiquidatorDepositExternal)\n            require(depositAmountExternal < assetToken.convertToExternal(debtOutstandingAboveMinBorrow), \"Must Liquidate All Debt\");\n        } else {\n            // In the other case, limit the deposited amount to the maximum\n            depositAmountExternal = maxLiquidatorDepositExternal;\n        }\n\n        // Transfers the amount of asset tokens into Notional and credit it to the account's temp cash balance\n        int256 assetAmountExternalTransferred = assetToken.transfer(\n            liquidator, vaultConfig.borrowCurrencyId, depositAmountExternal\n        );\n\n        vaultAccount.tempCashBalance = vaultAccount.tempCashBalance.add(\n            assetToken.convertToInternal(assetAmountExternalTransferred)\n        );\n    }\n\n    /// @notice Transfers liquidator profits in the form of vault shares to be returned to the liquidator\n    function _transferLiquidatorProfits(\n        address receiver,\n        VaultConfig memory vaultConfig,\n        uint256 vaultSharesToLiquidator,\n        uint256 maturity\n    ) private returns (uint256) {\n        // Liquidator will receive vault shares that they can redeem by calling exitVault. If the liquidator has a\n        // leveraged position on then their collateral ratio will increase\n        VaultAccount memory liquidator = VaultAccountLib.getVaultAccount(receiver, vaultConfig.vault);\n        // The liquidator must be able to receive the vault shares (i.e. not be in the vault at all or be in the\n        // vault at the same maturity). If the liquidator has fCash in the current maturity then their collateral\n        // ratio will increase as a result of the liquidation, no need to check their collateral position.\n        require(liquidator.maturity == 0 || liquidator.maturity == maturity, \"Vault Shares Mismatch\"); // dev: has vault shares\n        liquidator.maturity = maturity;\n        liquidator.vaultShares = liquidator.vaultShares.add(vaultSharesToLiquidator);\n        liquidator.setVaultAccount(vaultConfig);\n\n        return vaultSharesToLiquidator;\n    }\n\n    /// @notice Redeems liquidator profits back to asset cash and transfers it to the liquidator\n    function _redeemLiquidatorProfits(\n        address liquidator,\n        VaultConfig memory vaultConfig,\n        VaultState memory vaultState,\n        uint256 vaultShares,\n        bytes calldata redeemData,\n        Token memory assetToken\n    ) private returns (uint256 underlyingToReceiver) {\n        (uint256 assetCash, uint256 strategyTokens) = vaultState.exitMaturityDirect(vaultShares);\n        (/* */, underlyingToReceiver) = vaultConfig.redeemWithoutDebtRepayment(\n            liquidator, strategyTokens, vaultState.maturity, redeemData\n        );\n\n        // Set the vault state after redemption completes\n        vaultState.setVaultState(vaultConfig.vault);\n\n        if (assetCash > 0) {\n            // Represents the amount of asset cash returned to the liquidator in underlying terms\n            uint256 underlyingRedeemed = assetToken.redeem(\n                vaultConfig.borrowCurrencyId, liquidator, assetToken.convertToExternal(assetCash.toInt()).toUint()\n            ).neg().toUint();\n            underlyingToReceiver = underlyingToReceiver.add(underlyingRedeemed);\n        }\n    }\n\n    /** View Methods **/\n    function getVaultAccount(address account, address vault) external override view returns (VaultAccount memory) {\n        return VaultAccountLib.getVaultAccount(account, vault);\n    }\n\n    function getVaultAccountDebtShares(\n        address account,\n        address vault\n    ) external override view returns (\n        uint256 debtSharesMaturity,\n        uint256[2] memory accountDebtShares,\n        uint256 accountStrategyTokens\n    ) {\n        VaultAccountSecondaryDebtShareStorage storage s = \n            LibStorage.getVaultAccountSecondaryDebtShare()[account][vault];\n        debtSharesMaturity = s.maturity;\n        accountDebtShares[0] = s.accountDebtSharesOne;\n        accountDebtShares[1] = s.accountDebtSharesTwo;\n\n        VaultAccount memory vaultAccount = VaultAccountLib.getVaultAccount(account, vault);\n        VaultState memory vaultState = VaultStateLib.getVaultState(vault, vaultAccount.maturity);\n        (/* */, accountStrategyTokens) = vaultState.getPoolShare(vaultAccount.vaultShares);\n    }\n\n    function getVaultAccountCollateralRatio(address account, address vault) external override view returns (\n        int256 collateralRatio,\n        int256 minCollateralRatio,\n        int256 maxLiquidatorDepositAssetCash,\n        uint256 vaultSharesToLiquidator\n    ) {\n        VaultConfig memory vaultConfig = VaultConfiguration.getVaultConfigView(vault);\n        VaultAccount memory vaultAccount = VaultAccountLib.getVaultAccount(account, vault);\n        VaultState memory vaultState = VaultStateLib.getVaultState(vault, vaultAccount.maturity);\n        minCollateralRatio = vaultConfig.minCollateralRatio;\n\n        if (vaultState.isSettled) {\n            // In this case, the maturity has been settled and although the vault account says that it has\n            // some fCash balance it does not actually owe any debt anymore.\n            collateralRatio = type(int256).max;\n        } else {\n            int256 vaultShareValue;\n            (collateralRatio, vaultShareValue) = vaultConfig.calculateCollateralRatio(\n                vaultState, account, vaultAccount.vaultShares, vaultAccount.fCash\n            );\n\n            // Calculates liquidation factors if the account is eligible\n            if (collateralRatio < minCollateralRatio && vaultShareValue > 0) {\n                (maxLiquidatorDepositAssetCash, /* */) = vaultAccount.calculateDeleverageAmount(\n                    vaultConfig, vaultShareValue\n                );\n\n                vaultSharesToLiquidator = maxLiquidatorDepositAssetCash.toUint()\n                    .mul(vaultConfig.liquidationRate.toUint())\n                    .mul(vaultAccount.vaultShares)\n                    .div(vaultShareValue.toUint())\n                    .div(uint256(Constants.RATE_PRECISION));\n            }\n        }\n    }\n\n    function getLibInfo() external pure returns (address) {\n        return address(TradingAction);\n    }\n}\n","sourcePath":"contracts/external/actions/VaultAccountAction.sol","type":"contract","deployment":{"address":"0xaCB2BD68e05690803F7146b0B27450843C6eFA23","chainid":"5","blockHeight":7756631}}