{"abi":[{"anonymous":false,"inputs":[{"indexed":true,"internalType":"address","name":"vault","type":"address"},{"indexed":true,"internalType":"address","name":"account","type":"address"},{"indexed":false,"internalType":"uint256","name":"vaultSharesToLiquidator","type":"uint256"},{"indexed":false,"internalType":"int256","name":"fCashRepaid","type":"int256"}],"name":"VaultDeleverageAccount","type":"event"},{"anonymous":false,"inputs":[{"indexed":true,"internalType":"address","name":"vault","type":"address"},{"indexed":true,"internalType":"uint256","name":"maturity","type":"uint256"},{"indexed":true,"internalType":"address","name":"account","type":"address"},{"indexed":false,"internalType":"uint256","name":"underlyingTokensTransferred","type":"uint256"},{"indexed":false,"internalType":"uint256","name":"strategyTokenDeposited","type":"uint256"},{"indexed":false,"internalType":"uint256","name":"vaultSharesMinted","type":"uint256"}],"name":"VaultEnterMaturity","type":"event"},{"anonymous":false,"inputs":[{"indexed":true,"internalType":"address","name":"vault","type":"address"},{"indexed":true,"internalType":"address","name":"account","type":"address"},{"indexed":true,"internalType":"uint256","name":"maturity","type":"uint256"},{"indexed":false,"internalType":"uint256","name":"fCashBorrowed","type":"uint256"}],"name":"VaultEnterPosition","type":"event"},{"anonymous":false,"inputs":[{"indexed":true,"internalType":"address","name":"vault","type":"address"},{"indexed":true,"internalType":"address","name":"account","type":"address"},{"indexed":true,"internalType":"uint256","name":"maturity","type":"uint256"},{"indexed":false,"internalType":"uint256","name":"underlyingToReceiver","type":"uint256"}],"name":"VaultExitPostMaturity","type":"event"},{"anonymous":false,"inputs":[{"indexed":true,"internalType":"address","name":"vault","type":"address"},{"indexed":true,"internalType":"address","name":"account","type":"address"},{"indexed":true,"internalType":"uint256","name":"maturity","type":"uint256"},{"indexed":false,"internalType":"uint256","name":"fCashToLend","type":"uint256"},{"indexed":false,"internalType":"uint256","name":"vaultSharesToRedeem","type":"uint256"},{"indexed":false,"internalType":"uint256","name":"underlyingToReceiver","type":"uint256"}],"name":"VaultExitPreMaturity","type":"event"},{"anonymous":false,"inputs":[{"indexed":true,"internalType":"address","name":"vault","type":"address"},{"indexed":true,"internalType":"address","name":"account","type":"address"},{"indexed":true,"internalType":"address","name":"liquidator","type":"address"},{"indexed":false,"internalType":"uint256","name":"vaultSharesToLiquidator","type":"uint256"},{"indexed":false,"internalType":"bool","name":"transferSharesToLiquidator","type":"bool"}],"name":"VaultLiquidatorProfit","type":"event"},{"anonymous":false,"inputs":[{"indexed":true,"internalType":"address","name":"vault","type":"address"},{"indexed":true,"internalType":"address","name":"account","type":"address"},{"indexed":true,"internalType":"uint256","name":"newMaturity","type":"uint256"},{"indexed":false,"internalType":"uint256","name":"fCashBorrowed","type":"uint256"}],"name":"VaultRollPosition","type":"event"},{"inputs":[{"internalType":"address","name":"account","type":"address"},{"internalType":"address","name":"vault","type":"address"},{"internalType":"address","name":"liquidator","type":"address"},{"internalType":"uint256","name":"depositAmountExternal","type":"uint256"},{"internalType":"bool","name":"transferSharesToLiquidator","type":"bool"},{"internalType":"bytes","name":"redeemData","type":"bytes"}],"name":"deleverageAccount","outputs":[{"internalType":"uint256","name":"profitFromLiquidation","type":"uint256"}],"stateMutability":"nonpayable","type":"function"},{"inputs":[{"internalType":"address","name":"account","type":"address"},{"internalType":"address","name":"vault","type":"address"},{"internalType":"uint256","name":"depositAmountExternal","type":"uint256"},{"internalType":"uint256","name":"maturity","type":"uint256"},{"internalType":"uint256","name":"fCash","type":"uint256"},{"internalType":"uint32","name":"maxBorrowRate","type":"uint32"},{"internalType":"bytes","name":"vaultData","type":"bytes"}],"name":"enterVault","outputs":[{"internalType":"uint256","name":"strategyTokensAdded","type":"uint256"}],"stateMutability":"payable","type":"function"},{"inputs":[{"internalType":"address","name":"account","type":"address"},{"internalType":"address","name":"vault","type":"address"},{"internalType":"address","name":"receiver","type":"address"},{"internalType":"uint256","name":"vaultSharesToRedeem","type":"uint256"},{"internalType":"uint256","name":"fCashToLend","type":"uint256"},{"internalType":"uint32","name":"minLendRate","type":"uint32"},{"internalType":"bytes","name":"exitVaultData","type":"bytes"}],"name":"exitVault","outputs":[{"internalType":"uint256","name":"underlyingToReceiver","type":"uint256"}],"stateMutability":"payable","type":"function"},{"inputs":[],"name":"getLibInfo","outputs":[{"internalType":"address","name":"","type":"address"}],"stateMutability":"pure","type":"function"},{"inputs":[{"internalType":"address","name":"account","type":"address"},{"internalType":"address","name":"vault","type":"address"}],"name":"getVaultAccount","outputs":[{"components":[{"internalType":"int256","name":"fCash","type":"int256"},{"internalType":"uint256","name":"maturity","type":"uint256"},{"internalType":"uint256","name":"vaultShares","type":"uint256"},{"internalType":"address","name":"account","type":"address"},{"internalType":"int256","name":"tempCashBalance","type":"int256"}],"internalType":"struct VaultAccount","name":"","type":"tuple"}],"stateMutability":"view","type":"function"},{"inputs":[{"internalType":"address","name":"account","type":"address"},{"internalType":"address","name":"vault","type":"address"}],"name":"getVaultAccountCollateralRatio","outputs":[{"internalType":"int256","name":"collateralRatio","type":"int256"},{"internalType":"int256","name":"minCollateralRatio","type":"int256"},{"internalType":"int256","name":"maxLiquidatorDepositAssetCash","type":"int256"}],"stateMutability":"view","type":"function"},{"inputs":[{"internalType":"address","name":"account","type":"address"},{"internalType":"address","name":"vault","type":"address"}],"name":"getVaultAccountDebtShares","outputs":[{"internalType":"uint256","name":"debtSharesMaturity","type":"uint256"},{"internalType":"uint256[2]","name":"accountDebtShares","type":"uint256[2]"},{"internalType":"uint256","name":"accountStrategyTokens","type":"uint256"}],"stateMutability":"view","type":"function"},{"inputs":[],"name":"owner","outputs":[{"internalType":"address","name":"","type":"address"}],"stateMutability":"view","type":"function"},{"inputs":[],"name":"pauseGuardian","outputs":[{"internalType":"address","name":"","type":"address"}],"stateMutability":"view","type":"function"},{"inputs":[],"name":"pauseRouter","outputs":[{"internalType":"address","name":"","type":"address"}],"stateMutability":"view","type":"function"},{"inputs":[{"internalType":"address","name":"account","type":"address"},{"internalType":"address","name":"vault","type":"address"},{"internalType":"uint256","name":"fCashToBorrow","type":"uint256"},{"internalType":"uint256","name":"maturity","type":"uint256"},{"internalType":"uint32","name":"minLendRate","type":"uint32"},{"internalType":"uint32","name":"maxBorrowRate","type":"uint32"},{"internalType":"bytes","name":"enterVaultData","type":"bytes"}],"name":"rollVaultPosition","outputs":[{"internalType":"uint256","name":"strategyTokensAdded","type":"uint256"}],"stateMutability":"nonpayable","type":"function"}],"bytecode":"608060405234801561001057600080fd5b5061564c80620000216000396000f3fe60806040526004361061009c5760003560e01c80638246336711610064578063824633671461016a5780638da5cb5b1461017f57806395c1a202146101945780639948315e146101a7578063c025d1a5146101c7578063c4c96dae146101f45761009c565b806324a3d622146100a1578063450c0e02146100cc578063647cc196146100f95780636ce48f0114610128578063803c25fb1461013b575b600080fd5b3480156100ad57600080fd5b506100b6610209565b6040516100c39190615063565b60405180910390f35b3480156100d857600080fd5b506100ec6100e7366004614f76565b610218565b6040516100c3919061515f565b34801561010557600080fd5b50610119610114366004614db2565b6103dd565b6040516100c393929190615176565b6100ec610136366004614e6f565b61047c565b34801561014757600080fd5b5061015b610156366004614db2565b6106c8565b6040516100c3939291906155c7565b34801561017657600080fd5b506100b6610779565b34801561018b57600080fd5b506100b6610788565b6100ec6101a2366004614f06565b61079f565b3480156101b357600080fd5b506100ec6101c2366004614ddb565b6108e9565b3480156101d357600080fd5b506101e76101e2366004614db2565b610b63565b6040516100c39190615561565b34801561020057600080fd5b506100b6610b7e565b6002546001600160a01b031681565b60006002600a5414156102465760405162461bcd60e51b815260040161023d90615422565b60405180910390fd5b6002600a55600061025689610b96565b9050610264818b6010610bc5565b61026f816080610c2f565b1561027a576001600a555b60006102868b8b610c44565b9050610293826001610c2f565b80156102a557506102a5826002610c2f565b80156102b45750806020015142105b80156102c35750878160200151105b80156102cf5750600089115b6102eb5760405162461bcd60e51b815260040161023d90615365565b60006102ff83600001518360200151610cc2565b9050600061031c83846040015184610d5d9092919063ffffffff16565b905061033b84836103308660000151610dbc565b869291908d42610dd2565b82511561035a5760405162461bcd60e51b815260040161023d9061550d565b8351610367908390610e60565b61037983858c8e8c8c8c886000610fd4565b9450898d6001600160a01b03168d6001600160a01b03167f67c1d09e65227d62b788f4c3e6ace545ac922034d69bd4aa45c53dec290275be8e6040516103bf919061515f565b60405180910390a450506001600a5550909998505050505050505050565b6000806000806103ec85611077565b905060006103fa8787610c44565b9050600061040c878360200151610cc2565b90508260a00151945080604001511561042e576001600160ff1b039550610472565b6040820151825160009161044891869185918d919061109b565b9097509050858712801561045c5750600081135b156104705761046c838583611121565b5094505b505b5050509250925092565b60006002600a5414156104a15760405162461bcd60e51b815260040161023d90615422565b6002600a5560006104b189610b96565b90506104bf818b6008610bc5565b6104ca816080610c2f565b156104d5576001600a555b60006104e18b8b610c44565b90504281602001511161058f5760208101516000610500838542611230565b905060008360800151131561052b576105228b85604001518560800151611306565b50600060808401525b61053a84848d84868c8c6113af565b9450818d6001600160a01b03168d6001600160a01b03167fccd6b9aec297a77187bfaabfe7f98ac1dd313c796a73695dff89de0885dbb29388604051610580919061515f565b60405180910390a4505061068d565b60006105a383600001518360200151610cc2565b90506105be83826105b38b611426565b859291908b42610dd2565b60006105cb82848c610d5d565b90506000836080015113156105f6576105ed8b85604001518560800151611306565b50600060808401525b801561061457815161061190859085908e9085908c8c6113af565b94505b82516000131561062957610629848385611440565b8351610636908390610e60565b81600001518d6001600160a01b03168d6001600160a01b03167fea195c44d2295a1df0defe8210abb22b4a911b4379b9e30e764548ebee65c4208c8e8a60405161068293929190615176565b60405180910390a450505b805115801561069e57506040810151155b156106ab57600060208201525b6106b58183611488565b50506001600a5598975050505050505050565b60006106d2614b78565b6000806106dd611614565b6001600160a01b03878116600090815260209283526040808220928916825291835290812080546001600160501b03640100000000820481168852600160701b8204169387019390935263ffffffff909216955090915061073e8787610c44565b90506000610750878360200151610cc2565b905061076982604001518261162190919063ffffffff16565b9050809450505050509250925092565b6001546001600160a01b031681565b60005464010000000090046001600160a01b031681565b60006002600a5414156107c45760405162461bcd60e51b815260040161023d90615422565b6002600a556107d28961167b565b60006107dd89610b96565b90506107eb818b6004610bc5565b6107f6816080610c2f565b15610801576001600a555b61080c816001610c2f565b6108285760405162461bcd60e51b815260040161023d906154e7565b8642106108475760405162461bcd60e51b815260040161023d906154e7565b60006108538b8b610c44565b905060008160200151600014158015610870575042826020015111155b1561088357610880828442611230565b90505b6000610890848e8d6116ca565b90506108a383858c8c8c8c8c8989610fd4565b9450898d6001600160a01b03168d6001600160a01b03167f7e1a5e400898c4bb3cfc62f61a71f4369ec78f0e778a31286892b7d2c0d044f28c6040516103bf919061515f565b60006002600a54141561090e5760405162461bcd60e51b815260040161023d90615422565b6002600a5560006109208989896117a3565b9050600061092e8a8a610c44565b905060006109408a8360200151610cc2565b90508160200151421061095257600080fd5b600080610976838e866040015187600001518961109b90949392919063ffffffff16565b915091508460a00151821261099d5760405162461bcd60e51b815260040161023d90615532565b60006109b0866040015161ffff16611878565b90506109c08c8287898f8761188b565b6000610a07633b9aca00610a016109d686611974565b610a018a604001516109fb6109ee8e60c00151611974565b6109fb8e60800151611974565b90611983565b906119aa565b6040870151909150610a1990826119c9565b60408701526080860151610160880151600091610a3691906119de565b9050610a55888783610a4b8b60800151610dbc565b8b93929190611a11565b865160001215610a6457600087525b8f6001600160a01b03168f6001600160a01b03167f5b4676a4ed91c52fd6c4a759aec8a3561b67499c52870fc58000a8eb54fec3018484604051610aa9929190615168565b60405180910390a350610abc8688611488565b8c6001600160a01b03168f6001600160a01b03168f6001600160a01b03167f01745a2fe0d7c484ea79432a82f950eac6916adc499a0223d2ebdadcdb210f2a848f604051610b0b929190615606565b60405180910390a48a15610b44578651610b26908690610e60565b610b368d88838960200151611a7f565b975050505050505050610b53565b610b368d8887848e8e88611af3565b6001600a55979650505050505050565b610b6b614b96565b610b758383610c44565b90505b92915050565b73__TradingAction_________________________90565b610b9e614bce565b610ba782611bc9565b9050610bba816040015161ffff16611d47565b610160820152919050565b610bcf8382610c2f565b15610c025782516001600160a01b03163314610bfd5760405162461bcd60e51b815260040161023d906151a7565b610c2a565b6001600160a01b0382163314610c2a5760405162461bcd60e51b815260040161023d906151a7565b505050565b60209190910151811661ffff90811691161490565b610c4c614b96565b6000610c56611d93565b6001600160a01b03948516600081815260209283526040808220969097168152948252858520546001600160501b038082168703865263ffffffff600160a01b83041693860193909352600160501b900490911694830194909452506060810192909252608082015290565b610cca614c4b565b6000610cd4611da0565b6001600160a01b03909416600090815260209485526040808220858352865280822094845284546001600160501b038082169093039685019690965260ff600160f01b870416151590840152600160501b8086048216608085015260019094015480821660a0850152600160a01b909504166060830152509104600990810b900b60c082015290565b8251602083015160009114610d7157600080fd5b6040830151610d8090836119c9565b60408401526000610d918584611dad565b92509050610dac610da182611426565b608086015190611e04565b6080909401939093529392505050565b6000610dca60001983611e1a565b90505b919050565b8551600090610de19085611e04565b1315610dec57600080fd5b85602001518110610dfc57600080fd5b6000610e198660400151886020015186868a610100015187611e68565b905080610e3c57610160860151610e3990610e349086611f77565b610dbc565b90505b6000811315610e4a57600080fd5b610e578787878785611a11565b50505050505050565b6000610e6a611da0565b6001600160a01b0383166000908152602082815260408083208751845290915290819020908501519192509015610ea057600080fd5b610ebd610eb8610eb38660200151610dbc565b611974565b611fa2565b81546001600160501b0319166001600160501b03919091161781556080840151610ee690611fa2565b81546001600160501b0391909116600160501b02600160501b600160a01b031990911617815560a0840151610f1a90611fa2565b6001820180546001600160501b0319166001600160501b03929092169190911790556060840151610f4a90611fa2565b81546001600160501b0391909116600160a01b0269ffffffffffffffffffff60a01b1990911617815583516020850151608086015160a087015160608801516040516001600160a01b038916947f3a0fdaecf7b5da75a56077f5b1c8fbc88f9b08e9d0c4db31eb34e25bc6700cde94610fc6949193909261518c565b60405180910390a350505050565b6000878a602001511480610fe757508951155b610ff057600080fd5b60006110008a600001518a610cc2565b90508715611026576110218b8b838c61101b610e348e611426565b8c611fb8565b61103d565b61103b8a604001518a8c610100015142612048565b505b61104c818c8c87878b8b6120b7565b91506110588b8b611488565b8715611069576110698a828d611440565b509998505050505050505050565b61107f614bce565b61108882611bc9565b9050610bba816040015161ffff166121ee565b6000806110aa86888787612204565b905060006110bd88878960000151612269565b905060006110e36110d7836110d188610dbc565b90611e04565b6101608b015190611f77565b905060006110f18483612351565b905081611107576001600160ff1b039450611114565b6111118183612367565b94505b5050509550959350505050565b6000806000611142633b9aca00866101200151611e0490919063ffffffff16565b905060006111626111568860000151610dbc565b61016088015190611f77565b905061119861117e8760c001518461235190919063ffffffff16565b6111928761118c8587612380565b90612351565b90612367565b935060006111a68286612351565b905060006111c68860600151896101600151611f7790919063ffffffff16565b90506111d28382612351565b9450808212156111e0578295505b6000611203886111fd8b60c001518a611e1a90919063ffffffff16565b90612395565b9050633b9aca0081126112235760c0890151611220908990612367565b96505b5050505050935093915050565b60008061124584600001518660200151610cc2565b905080604001516112685760405162461bcd60e51b815260040161023d90615310565b6000611281856040015161ffff168760200151866123c6565b905060006112a86305f5e1006111fd8560c001516112a28760a00151611426565b90611e1a565b905060006112b98885898686612536565b905060006112ca88868685876126e3565b60008b5260808b01519097509091506112e39082611e04565b60808a015250506000604088018190526020909701969096525090949350505050565b600081611315575060006113a8565b6000821361132257600080fd5b60006113318461ffff16611878565b9050600061133f828561291b565b905060048260600151600581111561135357fe5b14156113815761137a610eb3610e34888861ffff1661137186610dbc565b87929190612953565b92506113a5565b6113a2610eb3610e348761ffff168961139986611974565b879291906129fb565b92505b50505b9392505050565b600080876080015113156113c257600080fd5b61140e886040518060a001604052808a606001516001600160a01b03168152602001896001600160a01b031681526020018881526020018781526020018a608001518152508585612a9b565b60006080909901989098525095979650505050505050565b60006001600160ff1b0382111561143c57600080fd5b5090565b600061145b848484606001518560400151866000015161109b565b509050808460a0015113156114825760405162461bcd60e51b815260040161023d9061538e565b50505050565b6000611492611d93565b60608401516001600160a01b039081166000908152602083815260408083208751909416835292905220608085015191925090156114cf57600080fd5b606083015184516114df90610dbc565b121561151457835115806114f857506001846040015111155b6115145760405162461bcd60e51b815260040161023d90615471565b61151d83612d48565b1561157f57600061152c611614565b60608601516001600160a01b03908116600090815260209283526040808220885190931682529183522080549187015190925063ffffffff90911690811480611573575080155b61157c57600080fd5b50505b611592610eb8610eb38660000151610dbc565b81546001600160501b0319166001600160501b039190911617815560408401516115bb90611fa2565b81546001600160501b0391909116600160501b02600160501b600160a01b031990911617815560208401516115ef90612d71565b815463ffffffff91909116600160a01b0263ffffffff60a01b19909116179055505050565b600080610b78601a612d84565b600080600084606001511115611674576116508460600151610a0186608001518661198390919063ffffffff16565b91506116718460600151610a018660a001518661198390919063ffffffff16565b90505b9250929050565b6001600160a01b03811661168e57600080fd5b6001600160a01b0381163014156116a457600080fd5b60006116af82612d9d565b5050505061ffff169050806000146116c657600080fd5b5050565b6000816116d9575060006113a8565b60006116ec856040015161ffff16611878565b9050600060048260600151600581111561170257fe5b1461171d57611718866040015161ffff16612e09565b61171f565b815b86516020820151919250901561173457600080fd5b60038260600151600581111561174657fe5b14156117805784341461176b5760405162461bcd60e51b815260040161023d90615495565b6117758134612e1c565b3493505050506113a8565b815161178e90878388612e52565b8493505050506113a8565b5050509392505050565b6117ab614bce565b6117b483610b96565b90506117c1816080610c2f565b156117cc576001600a555b6117d7816020610c2f565b1561180957336001600160a01b038416146118045760405162461bcd60e51b815260040161023d906151a7565b611831565b336001600160a01b038316146118315760405162461bcd60e51b815260040161023d906151a7565b6001600160a01b038416331480159061185c5750816001600160a01b0316846001600160a01b031614155b6113a85760405162461bcd60e51b815260040161023d906151a7565b611880614c8a565b610dca826000612eda565b600061189683611426565b90506005866060015160058111156118aa57fe5b14156118c5576118c2846040015161ffff1682612f88565b90505b6000806118d3878786611121565b91509150600082136118e457600080fd5b60006118f0898461291b565b90508084121561192757611904898361291b565b84126119225760405162461bcd60e51b815260040161023d906153c5565b61192b565b8093505b6040870151600090611945908b908d9061ffff1688612953565b905061195f6119548b8361300f565b60808b015190611e04565b60809099019890985250505050505050505050565b60008082121561143c57600080fd5b60008261199257506000610b78565b8282028284828161199f57fe5b0414610b7557600080fd5b60008082116119b857600080fd5b8183816119c157fe5b049392505050565b6000828211156119d857600080fd5b50900390565b600080611a0984604001516111fd6402540be4006111fd878960200151611e1a90919063ffffffff16565b949350505050565b6080850151611a209082611e04565b60808601528451611a319083611e04565b80865260001215611a4157600080fd5b6020830151611a509083611e04565b6020840181905260001215611a6457600080fd5b611a77846000015185604001518461303f565b505050505050565b600080611a90868660000151610c44565b9050806020015160001480611aa85750828160200151145b611ac45760405162461bcd60e51b815260040161023d906151cd565b602081018390526040810151611ada9085613145565b6040820152611ae98186611488565b5091949350505050565b60008080611b018888611dad565b89519193509150600090611b1c908b908d9085908b8b613157565b9050611b31611b2a84611426565b8290611e04565b8a51909150611b41908a90610e60565b6000611b6c8c8c6040015161ffff16611b63611b5c86610dbc565b8a9061291b565b89929190612953565b9050600586606001516005811115611b8057fe5b1415611bad576000611b998c6040015161ffff16612e09565b9050611ba98160000151836131aa565b9150505b611bb9610eb382610dbc565b9c9b505050505050505050505050565b611bd1614bce565b6000611bdb613239565b6001600160a01b03841660008181526020838152604091829020928652825461ffff808216928801929092526201000081049091169186019190915291925090611c3c9063ffffffff6401000000009091048116906305f5e10090611e1a16565b60608401528054611c5a90600160501b900460ff166207a120611983565b60808401528054611c7e9068010000000000000000900461ffff16620186a0611983565b60a08401528054611c9d90600160701b900461ffff16620186a0611983565b610120840152805460649060ff600160581b90910416633b9aca00020560c08401528054600160601b810460ff90811660e0860152600160681b909104166101008401526040805180820191829052906001830190600290826000855b82829054906101000a900461ffff1661ffff1681526020019060020190602082600101049283019260010382029150808411611cfa57905050505050508361014001819052505050919050565b611d4f614cb9565b6000806000611d5d85613246565b604080516060810182526001600160a01b039093168352602083019390935260ff16600a0a918101919091529350505050919050565b600080610b786016612d84565b600080610b786015612d84565b600080611dba8484611621565b60808601519193509150611dce90836119c9565b608085015260a0840151611de290826119c9565b60a08501526060840151611df690846119c9565b606090940193909352929050565b81810182811215600083121514610b7857600080fd5b818102600019831415611e4a57811580611e3c575082828281611e3957fe5b05145b611e4557600080fd5b610b78565b821580611e5f575081838281611e5c57fe5b05145b610b7857600080fd5b600080611e7788888686612048565b90506000611e8487613309565b90506affffffffffffffffffffff8110611e9d57600080fd5b600060788763ffffffff16901b609883901b60f085901b60f860008c13611ec5576001611ec8565b60005b6005811115611ed357fe5b60ff16901b17171760001b905073__TradingAction_________________________63e50f349e8b836040518363ffffffff1660e01b8152600401611f199291906155b3565b60206040518083038186803b158015611f3157600080fd5b505af4158015611f45573d6000803e3d6000fd5b505050506040513d601f19601f82011682018060405250810190611f699190614fd2565b9a9950505050505050505050565b600080611a0984602001516111fd86604001516112a26402540be40088611e1a90919063ffffffff16565b60006001600160501b0382111561143c57600080fd5b60008212611fc557600080fd5b6000611fde86604001518585858a610100015142611e68565b9050600081136120005760405162461bcd60e51b815260040161023d9061544a565b61200d8787878685611a11565b865161201890610dbc565b8660600151131561203b5760405162461bcd60e51b815260040161023d90615471565b610e57868883874261332a565b600080600061205a8761ffff1661342a565b905061206a8160ff168786613440565b90935091508483111561208f5760405162461bcd60e51b815260040161023d906152c0565b81156120ad5760405162461bcd60e51b815260040161023d906152c0565b5050949350505050565b600087608001516000146120ca57600080fd5b6000876080015112156120dc57600080fd5b875160208801511015612104576040870151156120f857600080fd5b87516020880152612115565b875160208801511461211557600080fd5b600085156121305761212d8989888a60000151613508565b90505b606088015160808901518a5160009261214d928b928a8a8a613586565b90506121696121628b8b848c60000151613508565b8390613145565b915088606001516001600160a01b03168a6000015189600001516001600160a01b03167f87d46c761bdd82b4a559098beeb0d5b8fa8c0e2aa3607704fe0757618e85e24d6121c48a8e6080015161314590919063ffffffff16565b8b876040516121d593929190615176565b60405180910390a4600060808a0152611f698782613145565b6121f6614cb9565b6000806000611d5d8561363c565b60008161221357506000611a09565b6000806122208785611621565b91509150600061223f8760400151886000015188858c600001516136bf565b905061225d61224d84611426565b6101608901516110d19084611f77565b98975050505050505050565b600061227484612d48565b156113a8576000612283611614565b6001600160a01b038086166000908152602092835260408082208951909316825291909252808220908701519092506122bf9061ffff16613784565b82549091506001600160501b036401000000008204811691600160701b90041681156123165761231361230c848a61014001516000600281106122fe57fe5b60200201518b518a876138e7565b8690611e04565b94505b80156123465761234361230c848a610140015160016002811061233557fe5b60200201518b518a866138e7565b94505b505050509392505050565b80820382811315600083121514610b7857600080fd5b6000610b7561237a84633b9aca00611e1a565b83612395565b6000610b7561238f8484611e1a565b633b9aca005b6000816000191480156123ab5750600160ff1b83145b156123b557600080fd5b8183816123be57fe5b059392505050565b6123ce614cb9565b6000806123db8686613988565b91509150816000141561250b5760006123f387613246565b91945090925090506001600160a01b038116156125095760006124146139d1565b90508560001080156124265750858711155b8015612437575064ffffffffff8611155b61244057600080fd5b83600012801561245757506001600160801b038413155b61246057600080fd5b6000888152602082815260408083208a845290915290819020805464ffffffffff191664ffffffffff89161774ffffffffffffffffffffffffffffffff00000000001916650100000000006001600160801b038816021760ff60a81b1916600160a81b60ff871602178155905188908a907f0fdfa6885701e2f1f42e4187b9231cf81c1fe23671ef64fa46f34ddb56c1dc18906124fe90899061559f565b60405180910390a350505b505b6040805160608101825260008152602081019390935260ff909116600a0a9082015290509392505050565b60008061255a61255361254c8860800151611426565b86906119de565b8490611e04565b905061256585612d48565b15612679576000612574611614565b60608901516001600160a01b039081166000908152602092835260408082208a519093168252919092528120875189516101408a015151835493955084936125cf9392919064010000000090046001600160501b03166139de565b90925090506125de8483611e04565b93506125ea8582612351565b88518a516101408b015160200151865493985061261693600160701b90046001600160501b03166139de565b90925090506126258483611e04565b93506126318582612351565b945061263b611614565b60608b01516001600160a01b039081166000908152602092835260408082208c51909316825291909252902080546001600160c01b03191690555050505b6126ac6126a588600001516110d16126948a60600151611426565b6111fd866112a28e60400151611426565b8390611e04565b915060008212156126d9576126cf6126c48584611f77565b608089015190611e04565b6080880152600091505b5095945050505050565b600080600061270f612702886020015188611f7790919063ffffffff16565b6110d18960800151611426565b90506000612721856110d189856119de565b9050801561275a57612747610eb3826111fd6127408c60a00151611426565b8a90611e1a565b9250612757816111fd8885611e1a565b93505b50506000612766613a72565b88516001600160a01b03166000908152602091825260408082208a5183529092522080549091506001600160501b03811690600160501b9004600990810b900b838210156127e3576127d661230c6127cf6305f5e1006111fd8d60c001516112a2888b03611426565b8a90611f77565b94509092506000906127e9565b83820391505b82546001600160501b0319166001600160501b038316178355600085121561281057600080fd5b84811215612883576000808213612827578561282b565b8186035b905060006128478c600001518d60400151848e60000151613a7f565b905060008313156128785761285c8382611e04565b8554600160501b600160a01b031916865596506000925061287c565b8096505b50506128c2565b61288d8186612351565b905061289881613ba7565b835460099190910b6001600160501b0316600160501b02600160501b600160a01b03199091161783555b88600001518a600001516001600160a01b03167ff5b347a56f0b5140f05eec05ff743978670a56685689fdc2c3193d71cfac31a98385604051612906929190615168565b60405180910390a35050509550959350505050565b60006305f5e10083604001511415612934575080610b78565b610b756305f5e1006111fd856040015185611e1a90919063ffffffff16565b8060058560600151600581111561296657fe5b141561298b57600061297784612e09565b90506129878160000151846131aa565b9250505b60008213156129b75760006129a1868685613bd7565b90508560200151156129b1578091505b50611a09565b6003856060015160058111156129c957fe5b14156129e6576129e1846129dc84610dbc565b612e1c565b611a09565b8451611a0990856129f685610dbc565b613cc0565b600080600286606001516005811115612a1057fe5b1415612a2857612a21868585613d37565b9050612a85565b6000612a3386612e09565b9050600587606001516005811115612a4757fe5b1415612a5f57612a58818686613df4565b9150612a83565b600187606001516005811115612a7157fe5b141561009c57612a5887828787613ea5565b505b612a91610e3482611426565b9695505050505050565b6000806000612ab1876040015161ffff16611878565b90506000600482606001516005811115612ac757fe5b14612ae257612add886040015161ffff16612e09565b612ae4565b815b905060008088608001511215612b5757600483606001516005811115612b0657fe5b1415612b2357612b1c610eb38960800151610dbc565b9050612b57565b6000612b44610e348a608001518c61016001516119de90919063ffffffff16565b9050612b53610eb38483613fa3565b9150505b604088015160009015612c2f576000612b708430613fdf565b90508a600001516001600160a01b03166344f051088b600001518c602001518d604001518e60600151888f8f6040518863ffffffff1660e01b8152600401612bbe9796959493929190615077565b602060405180830381600087803b158015612bd857600080fd5b505af1158015612bec573d6000803e3d6000fd5b505050506040513d601f19601f82011682018060405250810190612c109190614fd2565b95506000612c1e8530613fdf565b9050612c2a81836119c9565b925050505b81811015612cca57808203600384606001516005811115612c4c57fe5b1415612c8a5734811115612c725760405162461bcd60e51b815260040161023d9061523a565b612c828a60000151823403612e1c565b829150612cc8565b6000612caf8b600001518d6040015161ffff16612ca685611426565b88929190612953565b9050612cc4612cbd82611974565b8490613145565b9250505b505b81811015612cea5760405162461bcd60e51b815260040161023d9061523a565b6000600485606001516005811115612cfe57fe5b1415612d1457612d0d82611426565b9050612d2e565b8115612d2e5760408b0151612d2b90869084614089565b90505b612d38858261300f565b9650505050505094509492505050565b6101408101515160009061ffff16151580610dca57505061014001516020015161ffff16151590565b600063ffffffff82111561143c57600080fd5b6000620f424082601a811115612d9657fe5b0192915050565b600080600080600080612dae614170565b6001600160a01b039097166000908152602097909752505060409094205461ffff81169563ffffffff620100008304811696506601000000000000830416945060ff600160501b8304169350600160581b90910460d81b9150565b612e11614c8a565b610dca826001612eda565b6040516001600160a01b0383169082156108fc029083906000818181858888f19350505050158015610c2a573d6000803e3d6000fd5b836001600160a01b03166323b872dd8484846040518463ffffffff1660e01b815260040180846001600160a01b03168152602001836001600160a01b031681526020018281526020019350505050600060405180830381600087803b158015612eba57600080fd5b505af1158015612ece573d6000803e3d6000fd5b5050505061148261417d565b612ee2614c8a565b6000612eec6141ea565b6000858152602082815260408083208715158452825291829020825160a08101845281546001600160a01b038116825260ff600160a01b82048116151594830194909452600160b01b81048416600a0a9482019490945293945092916060830191600160a81b909104166005811115612f6157fe5b81529154600160b81b900468ffffffffffffffffff16602090920191909152949350505050565b600081612f9757506000610b78565b60008213612fa457600080fd5b6000612faf84612e09565b90506000612fc082600001516141f7565b9050600281056b033b2e3c9fd0803ce80000006001600160ff1b0382900305851315612feb57600080fd5b81816b033b2e3c9fd0803ce80000008702018161300457fe5b059695505050505050565b60006305f5e10083604001511415613028575080610b78565b6040830151610b75906111fd846305f5e100611e1a565b60008061304a614282565b6001600160a01b03861660009081526020918252604080822061ffff8816835290925220805490915061308d90600160501b90046001600160501b031684612351565b915060008312156130c25780546001600160501b03168213156130c25760405162461bcd60e51b815260040161023d906152ea565b6130ce610eb883611974565b81546001600160501b0391909116600160501b02600160501b600160a01b031990911617815560405161ffff8516906001600160a01b038716907f20478ef460e49d010960d4f3fff35d8dae385443abfac09035d6a2ccbcd834c49061313590869061515f565b60405180910390a3509392505050565b600082820183811015610b7557600080fd5b600061319e876040518060a00160405280896001600160a01b03168152602001896001600160a01b0316815260200188815260200187815260200160008152508585612a9b565b50979650505050505050565b6000816131b957506000610b78565b60006131c4846141f7565b905060006131d184613309565b9050816b019d971e4fe8401e74000001600160ff1b03816131ee57fe5b058113156131fb57600080fd5b6b033b2e3c9fd0803ce80000006b019d971e4fe8401e740000008383020105600085136132305761322b81610dbc565b612a91565b95945050505050565b600080610b786014612d84565b60008060008060006132578661428f565b909250905060006001600160a01b03831661327c5750600090506402540be4006132fe565b826001600160a01b0316631ee108336040518163ffffffff1660e01b8152600401602060405180830381600087803b1580156132b757600080fd5b505af11580156132cb573d6000803e3d6000fd5b505050506040513d601f19601f820116820180604052508101906132ef9190614fd2565b9050600081136132fe57600080fd5b969195509350915050565b6000808212156133235761331c82610dbc565b9050610dcd565b5080610dcd565b60006133546301da9c006111fd61334961334487876119c9565b611426565b60808a015190611e1a565b905060006133628583612380565b9050600061338260646111fd8a60e0015185611e1a90919063ffffffff16565b905060006133908383612351565b90506133a4896040015161ffff16836142c6565b6133b6896040015161ffff168261434d565b60808801516133c59084612351565b88608001818152505085896040015161ffff168a600001516001600160a01b03167f7456cb4b7c3068832fb334a03d3cd8e440286bad834cb9e332df05ae6792cfbb8585604051613417929190615168565b60405180910390a4505050505050505050565b60008061343683614399565b60ff169392505050565b600080600085116134635760405162461bcd60e51b815260040161023d9061526a565b60078511156134845760405162461bcd60e51b815260040161023d90615335565b600061348f846143b6565b905060015b8681116134e75760006134b06134a9836143d4565b8490614478565b9050868114156134c857509250600091506135009050565b868111156134de57509250600191506135009050565b50600101613494565b5060405162461bcd60e51b815260040161023d906154ba565b935093915050565b60008460a001516000141561351e575081613540565b61353d8560a00151610a0187606001518661198390919063ffffffff16565b90505b60a085015161354f9084613145565b60a086015260608501516135639082613145565b606086015260408401516135779082613145565b6040850152611a098583610e60565b60008061359c89600001518a6040015189611306565b89519091506001600160a01b031663dc6679c5896135ba8489613145565b8988886040518663ffffffff1660e01b81526004016135dd959493929190615126565b602060405180830381600087803b1580156135f757600080fd5b505af115801561360b573d6000803e3d6000fd5b505050506040513d601f19601f8201168201806040525081019061362f9190614fd2565b9998505050505050505050565b600080600080600061364d8661428f565b909250905060006001600160a01b0383166136725750600090506402540be4006132fe565b826001600160a01b031663b2fffb046040518163ffffffff1660e01b815260040160206040518083038186803b1580156136ab57600080fd5b505afa1580156132cb573d6000803e3d6000fd5b6000806136cf8761ffff16612e09565b90508060400151600014156136ee576136eb8761ffff16611878565b90505b60405163e937711160e01b8152613779906001600160a01b0388169063e93771119061372290899089908990600401615105565b60206040518083038186803b15801561373a57600080fd5b505afa15801561374e573d6000803e3d6000fd5b505050506040513d601f19601f820116820180604052508101906137729190614fd2565b829061300f565b979650505050505050565b61378c614ce3565b60006137966144d2565b60008481526020829052604081209192508060018614156137c35750670de0b6b3a7640000905080613899565b825460408051633fabe5a360e21b815290516001600160a01b039092169163feaf968c9160048082019260a092909190829003018186803b15801561380757600080fd5b505afa15801561381b573d6000803e3d6000fd5b505050506040513d601f19601f8201168201806040525081019061383f9190614fea565b509193505060008313915061386890505760405162461bcd60e51b815260040161023d906153fc565b825460ff600160a01b82048116600a0a9350600160a81b909104161561389957613896816111fd8480611e1a565b90505b6040805160a0810182529283526020830191909152915460ff600160b01b8204811693830193909352600160b81b810483166060830152600160c01b90049091166080820152915050919050565b6000806138f26144df565b6001600160a01b038616600090815260209182526040808220878352835280822061ffff8a16835290925290812080549092506001600160501b0380821692600160501b909204169061394c61334483610a018987611983565b9050600061395d8a61ffff16613784565b9050600061396b8c836144ec565b9050611bb9816111fd8e6000015186611e1a90919063ffffffff16565b60008060006139956139d1565b6000958652602090815260408087209587529490525050509020546501000000000081046001600160801b031691600160a81b90910460ff1690565b600080610b786008612d84565b60008061ffff84166139f557506000905080613a69565b60006139ff6144df565b6001600160a01b038816600090815260209182526040808220898352835280822061ffff891683529092522080549091506001600160501b03600160a01b8204811691600160501b9004168515613a6457613a6161334482610a018986611983565b93505b509250505b94509492505050565b600080610b786019612d84565b6000613a8c856000614511565b846001600160a01b03167f7c51c6aa77346c54cb051d9e792f9b7bde5c28a9b57e6fb2d2dd727b38438ca96000604051613ac69190615154565b60405180910390a2818461ffff16866001600160a01b03167f823b641d46550301006f807a26587634f15bd13749efdc8859734377d5304a3b86604051613b0d919061515f565b60405180910390a46000613b2660008661ffff16614571565b5050509050808413613b4657613b3e8585830361461a565b839150613b9e565b613b5185600061461a565b828561ffff16876001600160a01b03167f3a717b6924e3ad05b8c7609a2401472af90869b52cc3c9ca69b50100b4be6316848803604051613b92919061515f565b60405180910390a48091505b50949350505050565b6000697fffffffffffffffffff198212801590613bce5750697fffffffffffffffffff8213155b61143c57600080fd5b6000808080600587606001516005811115613bee57fe5b14613c00576370a0823160e01b613c09565b630ed1279f60e11b5b9050866020015115613c25578651613c2290308361467d565b92505b8651613c3290878761478f565b866020015180613c46575060008760800151115b15613c5b578651613c5890308361467d565b91505b608087015115613c96576000613c7988613c7485611426565b61300f565b9050613c888860800151611426565b811315613c9457600080fd5b505b866020015115613cb757613cad61334483856147e7565b93505050506113a8565b613cad85611426565b826001600160a01b031663a9059cbb83836040518363ffffffff1660e01b815260040180836001600160a01b0316815260200182815260200192505050600060405180830381600087803b158015613d1757600080fd5b505af1158015613d2b573d6000803e3d6000fd5b50505050610c2a61417d565b825160405163db006a7560e01b8152600091479183916001600160a01b03169063db006a7590613d6b90879060040161515f565b602060405180830381600087803b158015613d8557600080fd5b505af1158015613d99573d6000803e3d6000fd5b505050506040513d601f19601f82011682018060405250810190613dbd9190614fd2565b90508015613ddd5760405162461bcd60e51b815260040161023d9061521a565b47613de881846147e7565b93506117998685612e1c565b6000613e0f610eb38560000151613e0a85611426565b6131aa565b9050613e1961483e565b548451604051631a4ca37b60e21b81526001600160a01b03909216916369328dec91613e4b91859088906004016150b5565b602060405180830381600087803b158015613e6557600080fd5b505af1158015613e79573d6000803e3d6000fd5b505050506040513d601f19601f82011682018060405250810190613e9d9190614fd2565b509392505050565b82516000908190613ebe90306370a0823160e01b61467d565b9050600086600001516001600160a01b031663db006a75856040518263ffffffff1660e01b8152600401613ef2919061515f565b602060405180830381600087803b158015613f0c57600080fd5b505af1158015613f20573d6000803e3d6000fd5b505050506040513d601f19601f82011682018060405250810190613f449190614fd2565b90508015613f645760405162461bcd60e51b815260040161023d9061521a565b8551600090613f7b90306370a0823160e01b61467d565b9050613f8781846147e7565b9350613f9887600001518786613cc0565b505050949350505050565b60006305f5e10083604001511215613fcb57613fc460016110d1858561291b565b9050610b78565b610b7583613fda846001611e04565b61291b565b6000600383606001516005811115613ff357fe5b141561400a57506001600160a01b03811631610b78565b82516040516370a0823160e01b81526001600160a01b03909116906370a0823190614039908590600401615063565b60206040518083038186803b15801561405157600080fd5b505afa158015614065573d6000803e3d6000fd5b505050506040513d601f19601f82011682018060405250810190613fc49190614fd2565b60008060058560600151600581111561409e57fe5b146140b0576370a0823160e01b6140b9565b630ed1279f60e11b5b905060006140cc8660000151308461467d565b90506005866060015160058111156140e057fe5b14156141075760006140f58661ffff16612e09565b9050614101818661484b565b50614150565b60018660600151600581111561411957fe5b141561412e5761412986856148b6565b614150565b60028660600151600581111561414057fe5b141561009c576141298685614958565b60006141618760000151308561467d565b905061377961334482846147e7565b600080610b786002612d84565b6000614187614d12565b3d801561419b57602081146141a457600080fd5b600192506141af565b60206000833e815192505b50816116c6576040805162461bcd60e51b8152602060048201526005602482015264045524332360dc1b604482015290519081900360640190fd5b600080610b786007612d84565b6000610dca61420461483e565b5460405163d15e005360e01b81526001600160a01b039091169063d15e005390614232908690600401615063565b60206040518083038186803b15801561424a57600080fd5b505afa15801561425e573d6000803e3d6000fd5b505050506040513d601f19601f820116820180604052508101906133449190614fd2565b600080610b786017612d84565b600080600061429c6149ab565b600094855260205250506040909120546001600160a01b03811692600160a01b90910460ff169150565b60008112156142d457600080fd5b60006142e1600084614571565b50505090506142f98282611e0490919063ffffffff16565b905061430c6000848360008060006149b8565b8261ffff167f85170c297762884f47ec6098b74925c795e6d33686b11019b400e33a9b23b5e983604051614340919061515f565b60405180910390a2505050565b600081121561435b57600080fd5b600061436683614aff565b905060006143748285614571565b505050905061438c8382611e0490919063ffffffff16565b9050611482828583614b25565b6000806143a4614b43565b60009384526020525050604090205490565b60006276a7008210156143c857600080fd5b506276a7008106900390565b600081600114156143e957506276a700610dcd565b81600214156143fc575062ed4e00610dcd565b816003141561441057506301da9c00610dcd565b816004141561442457506303b53800610dcd565b816005141561443857506309450c00610dcd565b816006141561444c575063128a1800610dcd565b816007141561446057506325143000610dcd565b60405162461bcd60e51b815260040161023d90615299565b600082820183811015610b75576040805162461bcd60e51b815260206004820152601b60248201527f536166654d6174683a206164646974696f6e206f766572666c6f770000000000604482015290519081900360640190fd5b600080610b786010612d84565b600080610b786018612d84565b6000610b7582602001516111fd84600001518660200151611e1a90919063ffffffff16565b600061451b613239565b6001600160a01b038416600090815260208290526040902080549192509061ffff16831561455a57815461ffff19166001821761ffff1617825561456a565b815461ffff191661fffe82161782555b5050505050565b6000806000806000614581614b50565b6001600160a01b0388166000908152602082815260408083208a8452909152902080546001600160501b0381169650600160501b900463ffffffff16945090915083156145ea5780546145e390600160701b900466ffffffffffffff16614b5d565b92506145ff565b8054600160701b900466ffffffffffffff1692505b54600160a81b9004600a90810b900b97939650919450925050565b600081121561462857600080fd5b61463d60008361ffff168360008060006149b8565b8161ffff167fd3625f7b5926828151efe19f7ae655488287357d99ebe67e5fb20522ca739c0b82604051614671919061515f565b60405180910390a25050565b604080516001600160a01b0384811660248084019190915283518084039091018152604490920183526020820180516001600160e01b03166001600160e01b0319861617815292518251600094859485948a16939092909182918083835b602083106146fa5780518252601f1990920191602091820191016146db565b6001836020036101000a038019825116818451168082178552505050505050905001915050600060405180830381855afa9150503d806000811461475a576040519150601f19603f3d011682016040523d82523d6000602084013e61475f565b606091505b50915091508161476e57600080fd5b80806020019051602081101561478357600080fd5b50519695505050505050565b604080516323b872dd60e01b81526001600160a01b038481166004830152306024830152604482018490529151918516916323b872dd9160648082019260009290919082900301818387803b158015613d1757600080fd5b6000828211156119d8576040805162461bcd60e51b815260206004820152601e60248201527f536166654d6174683a207375627472616374696f6e206f766572666c6f770000604482015290519081900360640190fd5b600080610b786013612d84565b61485361483e565b54825160405163e8eda9df60e01b81526001600160a01b039092169163e8eda9df9161488891859030906000906004016150d8565b600060405180830381600087803b1580156148a257600080fd5b505af1158015611a77573d6000803e3d6000fd5b815160405163140e25ad60e31b81526000916001600160a01b03169063a0712d68906148e690859060040161515f565b602060405180830381600087803b15801561490057600080fd5b505af1158015614914573d6000803e3d6000fd5b505050506040513d601f19601f820116820180604052508101906149389190614fd2565b90508015610c2a5760405162461bcd60e51b815260040161023d906151fc565b81600001516001600160a01b0316631249c58b826040518263ffffffff1660e01b81526004016000604051808303818588803b15801561499757600080fd5b505af1158015610e57573d6000803e3d6000fd5b600080610b78600f612d84565b60006149c2614b50565b6001600160a01b0388166000908152602082815260408083208a845290915290209091506a7fffffffffffffffffffff198612801590614a0d57506a7fffffffffffffffffffff8613155b614a1657600080fd5b60008512158015614a2e57506001600160501b038513155b614a3757600080fd5b83614a775766ffffffffffffff831115614a5057600080fd5b805466ffffffffffffff60701b1916600160701b66ffffffffffffff851602178155614a91565b8054600160501b900463ffffffff168414614a9157600080fd5b8054600a9690960b6affffffffffffffffffffff16600160a81b026001600160a81b036001600160501b039096166001600160501b031963ffffffff909616600160501b0263ffffffff60501b19909816979097179490941695909517939093169190911790925550505050565b600080614b0a614b6b565b6000938452602052505060409020546001600160a01b031690565b6000811215614b3357600080fd5b610c2a83838360008060006149b8565b600080610b786009612d84565b600080610b786006612d84565b600881901c60ff9091161b90565b600080610b786003612d84565b60405180604001604052806002906020820280368337509192915050565b6040518060a0016040528060008152602001600081526020016000815260200160006001600160a01b03168152602001600081525090565b60405180610180016040528060006001600160a01b03168152602001600061ffff168152602001600061ffff16815260200160008152602001600081526020016000815260200160008152602001600081526020016000815260200160008152602001614c39614b78565b8152602001614c46614cb9565b905290565b6040518060e001604052806000815260200160008152602001600015158152602001600081526020016000815260200160008152602001600081525090565b6040805160a0810182526000808252602082018190529181018290529060608201908152602001600081525090565b604051806060016040528060006001600160a01b0316815260200160008152602001600081525090565b6040518060a0016040528060008152602001600081526020016000815260200160008152602001600081525090565b60405180602001604052806001906020820280368337509192915050565b80356001600160a01b0381168114610dcd57600080fd5b60008083601f840112614d58578182fd5b50813567ffffffffffffffff811115614d6f578182fd5b60208301915083602082850101111561167457600080fd5b803563ffffffff81168114610dcd57600080fd5b80516001600160501b0381168114610dcd57600080fd5b60008060408385031215614dc4578182fd5b614dcd83614d30565b915061167160208401614d30565b600080600080600080600060c0888a031215614df5578283fd5b614dfe88614d30565b9650614e0c60208901614d30565b9550614e1a60408901614d30565b94506060880135935060808801358015158114614e35578384fd5b925060a088013567ffffffffffffffff811115614e50578283fd5b614e5c8a828b01614d47565b989b979a50959850939692959293505050565b60008060008060008060008060e0898b031215614e8a578081fd5b614e9389614d30565b9750614ea160208a01614d30565b9650614eaf60408a01614d30565b95506060890135945060808901359350614ecb60a08a01614d87565b925060c089013567ffffffffffffffff811115614ee6578182fd5b614ef28b828c01614d47565b999c989b5096995094979396929594505050565b60008060008060008060008060e0898b031215614f21578384fd5b614f2a89614d30565b9750614f3860208a01614d30565b9650604089013595506060890135945060808901359350614f5b60a08a01614d87565b925060c089013567ffffffffffffffff811115614ee6578283fd5b60008060008060008060008060e0898b031215614f91578384fd5b614f9a89614d30565b9750614fa860208a01614d30565b96506040890135955060608901359450614fc460808a01614d87565b9350614f5b60a08a01614d87565b600060208284031215614fe3578081fd5b5051919050565b600080600080600060a08688031215615001578081fd5b61500a86614d9b565b945060208601519350604086015192506060860151915061502d60808701614d9b565b90509295509295909350565b60008284528282602086013780602084860101526020601f19601f85011685010190509392505050565b6001600160a01b0391909116815260200190565b600060018060a01b03808a16835280891660208401525086604083015285606083015284608083015260c060a083015261362f60c083018486615039565b6001600160a01b0393841681526020810192909252909116604082015260600190565b6001600160a01b03948516815260208101939093529216604082015261ffff909116606082015260800190565b6001600160a01b039390931683526020830191909152604082015260600190565b600060018060a01b038716825285602083015284604083015260806060830152613779608083018486615039565b901515815260200190565b90815260200190565b918252602082015260400190565b9283526020830191909152604082015260600190565b93845260208401929092526040830152606082015260800190565b6020808252600c908201526b155b985d5d1a1bdc9a5e995960a21b604082015260600190565b6020808252601590820152740acc2ead8e840a6d0c2e4cae6409ad2e6dac2e8c6d605b1b604082015260600190565b602080825260049082015263135a5b9d60e21b604082015260600190565b60208082526006908201526552656465656d60d01b604082015260600190565b602080825260169082015275125b9cdd59999a58da595b9d081c995c185e5b595b9d60521b604082015260600190565b60208082526015908201527410d1ce881b9bc81b585c9ad95d1cc81b1a5cdd1959605a1b604082015260600190565b6020808252600d908201526c092dcecc2d8d2c840d2dcc8caf609b1b604082015260600190565b60208082526010908201526f496e76616c6964204d6174757269747960801b604082015260600190565b6020808252600c908201526b4d617820436170616369747960a01b604082015260600190565b6020808252600b908201526a139bdd0814d95d1d1b195960aa1b604082015260600190565b60208082526016908201527510d1ce881b585c9ad95d081a5b99195e08189bdd5b9960521b604082015260600190565b6020808252600f908201526e139bc8149bdb1b08105b1b1bddd959608a1b604082015260600190565b60208082526017908201527f496e73756666696369656e7420436f6c6c61746572616c000000000000000000604082015260600190565b60208082526017908201527f4d757374204c697175696461746520416c6c2044656274000000000000000000604082015260600190565b6020808252600c908201526b496e76616c6964207261746560a01b604082015260600190565b6020808252600e908201526d1499595b9d1c985b9d0818d85b1b60921b604082015260600190565b6020808252600d908201526c109bdc9c9bddc819985a5b1959609a1b604082015260600190565b6020808252600a90820152694d696e20426f72726f7760b01b604082015260600190565b6020808252600b908201526a092dcecc2d8d2c8408aa8960ab1b604082015260600190565b60208082526013908201527210d1ce881b9bc81b585c9ad95d08199bdd5b99606a1b604082015260600190565b6020808252600c908201526b21b0b73737ba1022b73a32b960a11b604082015260600190565b6020808252600b908201526a11985a5b19590813195b9960aa1b604082015260600190565b60208082526015908201527414dd59999a58da595b9d0810dbdb1b185d195c985b605a1b604082015260600190565b8151815260208083015190820152604080830151908201526060808301516001600160a01b0316908201526080918201519181019190915260a00190565b6001600160801b0391909116815260200190565b61ffff929092168252602082015260400190565b8381526080810160208083018560005b60028110156155f4578151835291830191908301906001016155d7565b50505050826060830152949350505050565b918252151560208201526040019056fea2646970667358221220b8594927d8e55ce6e1a9a1ffe19efba3dedd7940f591fd65b407b161ed67599c64736f6c63430007060033","bytecodeSha1":"e76c2e7dc4fe6edcebea09e48198b694640d3bc9","compiler":{"evm_version":"istanbul","optimizer":{"enabled":true,"runs":200},"version":"0.7.6+commit.7338295f"},"contractName":"VaultAccountAction","deployedBytecode":"60806040526004361061009c5760003560e01c80638246336711610064578063824633671461016a5780638da5cb5b1461017f57806395c1a202146101945780639948315e146101a7578063c025d1a5146101c7578063c4c96dae146101f45761009c565b806324a3d622146100a1578063450c0e02146100cc578063647cc196146100f95780636ce48f0114610128578063803c25fb1461013b575b600080fd5b3480156100ad57600080fd5b506100b6610209565b6040516100c39190615063565b60405180910390f35b3480156100d857600080fd5b506100ec6100e7366004614f76565b610218565b6040516100c3919061515f565b34801561010557600080fd5b50610119610114366004614db2565b6103dd565b6040516100c393929190615176565b6100ec610136366004614e6f565b61047c565b34801561014757600080fd5b5061015b610156366004614db2565b6106c8565b6040516100c3939291906155c7565b34801561017657600080fd5b506100b6610779565b34801561018b57600080fd5b506100b6610788565b6100ec6101a2366004614f06565b61079f565b3480156101b357600080fd5b506100ec6101c2366004614ddb565b6108e9565b3480156101d357600080fd5b506101e76101e2366004614db2565b610b63565b6040516100c39190615561565b34801561020057600080fd5b506100b6610b7e565b6002546001600160a01b031681565b60006002600a5414156102465760405162461bcd60e51b815260040161023d90615422565b60405180910390fd5b6002600a55600061025689610b96565b9050610264818b6010610bc5565b61026f816080610c2f565b1561027a576001600a555b60006102868b8b610c44565b9050610293826001610c2f565b80156102a557506102a5826002610c2f565b80156102b45750806020015142105b80156102c35750878160200151105b80156102cf5750600089115b6102eb5760405162461bcd60e51b815260040161023d90615365565b60006102ff83600001518360200151610cc2565b9050600061031c83846040015184610d5d9092919063ffffffff16565b905061033b84836103308660000151610dbc565b869291908d42610dd2565b82511561035a5760405162461bcd60e51b815260040161023d9061550d565b8351610367908390610e60565b61037983858c8e8c8c8c886000610fd4565b9450898d6001600160a01b03168d6001600160a01b03167f67c1d09e65227d62b788f4c3e6ace545ac922034d69bd4aa45c53dec290275be8e6040516103bf919061515f565b60405180910390a450506001600a5550909998505050505050505050565b6000806000806103ec85611077565b905060006103fa8787610c44565b9050600061040c878360200151610cc2565b90508260a00151945080604001511561042e576001600160ff1b039550610472565b6040820151825160009161044891869185918d919061109b565b9097509050858712801561045c5750600081135b156104705761046c838583611121565b5094505b505b5050509250925092565b60006002600a5414156104a15760405162461bcd60e51b815260040161023d90615422565b6002600a5560006104b189610b96565b90506104bf818b6008610bc5565b6104ca816080610c2f565b156104d5576001600a555b60006104e18b8b610c44565b90504281602001511161058f5760208101516000610500838542611230565b905060008360800151131561052b576105228b85604001518560800151611306565b50600060808401525b61053a84848d84868c8c6113af565b9450818d6001600160a01b03168d6001600160a01b03167fccd6b9aec297a77187bfaabfe7f98ac1dd313c796a73695dff89de0885dbb29388604051610580919061515f565b60405180910390a4505061068d565b60006105a383600001518360200151610cc2565b90506105be83826105b38b611426565b859291908b42610dd2565b60006105cb82848c610d5d565b90506000836080015113156105f6576105ed8b85604001518560800151611306565b50600060808401525b801561061457815161061190859085908e9085908c8c6113af565b94505b82516000131561062957610629848385611440565b8351610636908390610e60565b81600001518d6001600160a01b03168d6001600160a01b03167fea195c44d2295a1df0defe8210abb22b4a911b4379b9e30e764548ebee65c4208c8e8a60405161068293929190615176565b60405180910390a450505b805115801561069e57506040810151155b156106ab57600060208201525b6106b58183611488565b50506001600a5598975050505050505050565b60006106d2614b78565b6000806106dd611614565b6001600160a01b03878116600090815260209283526040808220928916825291835290812080546001600160501b03640100000000820481168852600160701b8204169387019390935263ffffffff909216955090915061073e8787610c44565b90506000610750878360200151610cc2565b905061076982604001518261162190919063ffffffff16565b9050809450505050509250925092565b6001546001600160a01b031681565b60005464010000000090046001600160a01b031681565b60006002600a5414156107c45760405162461bcd60e51b815260040161023d90615422565b6002600a556107d28961167b565b60006107dd89610b96565b90506107eb818b6004610bc5565b6107f6816080610c2f565b15610801576001600a555b61080c816001610c2f565b6108285760405162461bcd60e51b815260040161023d906154e7565b8642106108475760405162461bcd60e51b815260040161023d906154e7565b60006108538b8b610c44565b905060008160200151600014158015610870575042826020015111155b1561088357610880828442611230565b90505b6000610890848e8d6116ca565b90506108a383858c8c8c8c8c8989610fd4565b9450898d6001600160a01b03168d6001600160a01b03167f7e1a5e400898c4bb3cfc62f61a71f4369ec78f0e778a31286892b7d2c0d044f28c6040516103bf919061515f565b60006002600a54141561090e5760405162461bcd60e51b815260040161023d90615422565b6002600a5560006109208989896117a3565b9050600061092e8a8a610c44565b905060006109408a8360200151610cc2565b90508160200151421061095257600080fd5b600080610976838e866040015187600001518961109b90949392919063ffffffff16565b915091508460a00151821261099d5760405162461bcd60e51b815260040161023d90615532565b60006109b0866040015161ffff16611878565b90506109c08c8287898f8761188b565b6000610a07633b9aca00610a016109d686611974565b610a018a604001516109fb6109ee8e60c00151611974565b6109fb8e60800151611974565b90611983565b906119aa565b6040870151909150610a1990826119c9565b60408701526080860151610160880151600091610a3691906119de565b9050610a55888783610a4b8b60800151610dbc565b8b93929190611a11565b865160001215610a6457600087525b8f6001600160a01b03168f6001600160a01b03167f5b4676a4ed91c52fd6c4a759aec8a3561b67499c52870fc58000a8eb54fec3018484604051610aa9929190615168565b60405180910390a350610abc8688611488565b8c6001600160a01b03168f6001600160a01b03168f6001600160a01b03167f01745a2fe0d7c484ea79432a82f950eac6916adc499a0223d2ebdadcdb210f2a848f604051610b0b929190615606565b60405180910390a48a15610b44578651610b26908690610e60565b610b368d88838960200151611a7f565b975050505050505050610b53565b610b368d8887848e8e88611af3565b6001600a55979650505050505050565b610b6b614b96565b610b758383610c44565b90505b92915050565b73__$7ac922d04bd7a1b42c7f6e5f1dd89a70af$__90565b610b9e614bce565b610ba782611bc9565b9050610bba816040015161ffff16611d47565b610160820152919050565b610bcf8382610c2f565b15610c025782516001600160a01b03163314610bfd5760405162461bcd60e51b815260040161023d906151a7565b610c2a565b6001600160a01b0382163314610c2a5760405162461bcd60e51b815260040161023d906151a7565b505050565b60209190910151811661ffff90811691161490565b610c4c614b96565b6000610c56611d93565b6001600160a01b03948516600081815260209283526040808220969097168152948252858520546001600160501b038082168703865263ffffffff600160a01b83041693860193909352600160501b900490911694830194909452506060810192909252608082015290565b610cca614c4b565b6000610cd4611da0565b6001600160a01b03909416600090815260209485526040808220858352865280822094845284546001600160501b038082169093039685019690965260ff600160f01b870416151590840152600160501b8086048216608085015260019094015480821660a0850152600160a01b909504166060830152509104600990810b900b60c082015290565b8251602083015160009114610d7157600080fd5b6040830151610d8090836119c9565b60408401526000610d918584611dad565b92509050610dac610da182611426565b608086015190611e04565b6080909401939093529392505050565b6000610dca60001983611e1a565b90505b919050565b8551600090610de19085611e04565b1315610dec57600080fd5b85602001518110610dfc57600080fd5b6000610e198660400151886020015186868a610100015187611e68565b905080610e3c57610160860151610e3990610e349086611f77565b610dbc565b90505b6000811315610e4a57600080fd5b610e578787878785611a11565b50505050505050565b6000610e6a611da0565b6001600160a01b0383166000908152602082815260408083208751845290915290819020908501519192509015610ea057600080fd5b610ebd610eb8610eb38660200151610dbc565b611974565b611fa2565b81546001600160501b0319166001600160501b03919091161781556080840151610ee690611fa2565b81546001600160501b0391909116600160501b02600160501b600160a01b031990911617815560a0840151610f1a90611fa2565b6001820180546001600160501b0319166001600160501b03929092169190911790556060840151610f4a90611fa2565b81546001600160501b0391909116600160a01b0269ffffffffffffffffffff60a01b1990911617815583516020850151608086015160a087015160608801516040516001600160a01b038916947f3a0fdaecf7b5da75a56077f5b1c8fbc88f9b08e9d0c4db31eb34e25bc6700cde94610fc6949193909261518c565b60405180910390a350505050565b6000878a602001511480610fe757508951155b610ff057600080fd5b60006110008a600001518a610cc2565b90508715611026576110218b8b838c61101b610e348e611426565b8c611fb8565b61103d565b61103b8a604001518a8c610100015142612048565b505b61104c818c8c87878b8b6120b7565b91506110588b8b611488565b8715611069576110698a828d611440565b509998505050505050505050565b61107f614bce565b61108882611bc9565b9050610bba816040015161ffff166121ee565b6000806110aa86888787612204565b905060006110bd88878960000151612269565b905060006110e36110d7836110d188610dbc565b90611e04565b6101608b015190611f77565b905060006110f18483612351565b905081611107576001600160ff1b039450611114565b6111118183612367565b94505b5050509550959350505050565b6000806000611142633b9aca00866101200151611e0490919063ffffffff16565b905060006111626111568860000151610dbc565b61016088015190611f77565b905061119861117e8760c001518461235190919063ffffffff16565b6111928761118c8587612380565b90612351565b90612367565b935060006111a68286612351565b905060006111c68860600151896101600151611f7790919063ffffffff16565b90506111d28382612351565b9450808212156111e0578295505b6000611203886111fd8b60c001518a611e1a90919063ffffffff16565b90612395565b9050633b9aca0081126112235760c0890151611220908990612367565b96505b5050505050935093915050565b60008061124584600001518660200151610cc2565b905080604001516112685760405162461bcd60e51b815260040161023d90615310565b6000611281856040015161ffff168760200151866123c6565b905060006112a86305f5e1006111fd8560c001516112a28760a00151611426565b90611e1a565b905060006112b98885898686612536565b905060006112ca88868685876126e3565b60008b5260808b01519097509091506112e39082611e04565b60808a015250506000604088018190526020909701969096525090949350505050565b600081611315575060006113a8565b6000821361132257600080fd5b60006113318461ffff16611878565b9050600061133f828561291b565b905060048260600151600581111561135357fe5b14156113815761137a610eb3610e34888861ffff1661137186610dbc565b87929190612953565b92506113a5565b6113a2610eb3610e348761ffff168961139986611974565b879291906129fb565b92505b50505b9392505050565b600080876080015113156113c257600080fd5b61140e886040518060a001604052808a606001516001600160a01b03168152602001896001600160a01b031681526020018881526020018781526020018a608001518152508585612a9b565b60006080909901989098525095979650505050505050565b60006001600160ff1b0382111561143c57600080fd5b5090565b600061145b848484606001518560400151866000015161109b565b509050808460a0015113156114825760405162461bcd60e51b815260040161023d9061538e565b50505050565b6000611492611d93565b60608401516001600160a01b039081166000908152602083815260408083208751909416835292905220608085015191925090156114cf57600080fd5b606083015184516114df90610dbc565b121561151457835115806114f857506001846040015111155b6115145760405162461bcd60e51b815260040161023d90615471565b61151d83612d48565b1561157f57600061152c611614565b60608601516001600160a01b03908116600090815260209283526040808220885190931682529183522080549187015190925063ffffffff90911690811480611573575080155b61157c57600080fd5b50505b611592610eb8610eb38660000151610dbc565b81546001600160501b0319166001600160501b039190911617815560408401516115bb90611fa2565b81546001600160501b0391909116600160501b02600160501b600160a01b031990911617815560208401516115ef90612d71565b815463ffffffff91909116600160a01b0263ffffffff60a01b19909116179055505050565b600080610b78601a612d84565b600080600084606001511115611674576116508460600151610a0186608001518661198390919063ffffffff16565b91506116718460600151610a018660a001518661198390919063ffffffff16565b90505b9250929050565b6001600160a01b03811661168e57600080fd5b6001600160a01b0381163014156116a457600080fd5b60006116af82612d9d565b5050505061ffff169050806000146116c657600080fd5b5050565b6000816116d9575060006113a8565b60006116ec856040015161ffff16611878565b9050600060048260600151600581111561170257fe5b1461171d57611718866040015161ffff16612e09565b61171f565b815b86516020820151919250901561173457600080fd5b60038260600151600581111561174657fe5b14156117805784341461176b5760405162461bcd60e51b815260040161023d90615495565b6117758134612e1c565b3493505050506113a8565b815161178e90878388612e52565b8493505050506113a8565b5050509392505050565b6117ab614bce565b6117b483610b96565b90506117c1816080610c2f565b156117cc576001600a555b6117d7816020610c2f565b1561180957336001600160a01b038416146118045760405162461bcd60e51b815260040161023d906151a7565b611831565b336001600160a01b038316146118315760405162461bcd60e51b815260040161023d906151a7565b6001600160a01b038416331480159061185c5750816001600160a01b0316846001600160a01b031614155b6113a85760405162461bcd60e51b815260040161023d906151a7565b611880614c8a565b610dca826000612eda565b600061189683611426565b90506005866060015160058111156118aa57fe5b14156118c5576118c2846040015161ffff1682612f88565b90505b6000806118d3878786611121565b91509150600082136118e457600080fd5b60006118f0898461291b565b90508084121561192757611904898361291b565b84126119225760405162461bcd60e51b815260040161023d906153c5565b61192b565b8093505b6040870151600090611945908b908d9061ffff1688612953565b905061195f6119548b8361300f565b60808b015190611e04565b60809099019890985250505050505050505050565b60008082121561143c57600080fd5b60008261199257506000610b78565b8282028284828161199f57fe5b0414610b7557600080fd5b60008082116119b857600080fd5b8183816119c157fe5b049392505050565b6000828211156119d857600080fd5b50900390565b600080611a0984604001516111fd6402540be4006111fd878960200151611e1a90919063ffffffff16565b949350505050565b6080850151611a209082611e04565b60808601528451611a319083611e04565b80865260001215611a4157600080fd5b6020830151611a509083611e04565b6020840181905260001215611a6457600080fd5b611a77846000015185604001518461303f565b505050505050565b600080611a90868660000151610c44565b9050806020015160001480611aa85750828160200151145b611ac45760405162461bcd60e51b815260040161023d906151cd565b602081018390526040810151611ada9085613145565b6040820152611ae98186611488565b5091949350505050565b60008080611b018888611dad565b89519193509150600090611b1c908b908d9085908b8b613157565b9050611b31611b2a84611426565b8290611e04565b8a51909150611b41908a90610e60565b6000611b6c8c8c6040015161ffff16611b63611b5c86610dbc565b8a9061291b565b89929190612953565b9050600586606001516005811115611b8057fe5b1415611bad576000611b998c6040015161ffff16612e09565b9050611ba98160000151836131aa565b9150505b611bb9610eb382610dbc565b9c9b505050505050505050505050565b611bd1614bce565b6000611bdb613239565b6001600160a01b03841660008181526020838152604091829020928652825461ffff808216928801929092526201000081049091169186019190915291925090611c3c9063ffffffff6401000000009091048116906305f5e10090611e1a16565b60608401528054611c5a90600160501b900460ff166207a120611983565b60808401528054611c7e9068010000000000000000900461ffff16620186a0611983565b60a08401528054611c9d90600160701b900461ffff16620186a0611983565b610120840152805460649060ff600160581b90910416633b9aca00020560c08401528054600160601b810460ff90811660e0860152600160681b909104166101008401526040805180820191829052906001830190600290826000855b82829054906101000a900461ffff1661ffff1681526020019060020190602082600101049283019260010382029150808411611cfa57905050505050508361014001819052505050919050565b611d4f614cb9565b6000806000611d5d85613246565b604080516060810182526001600160a01b039093168352602083019390935260ff16600a0a918101919091529350505050919050565b600080610b786016612d84565b600080610b786015612d84565b600080611dba8484611621565b60808601519193509150611dce90836119c9565b608085015260a0840151611de290826119c9565b60a08501526060840151611df690846119c9565b606090940193909352929050565b81810182811215600083121514610b7857600080fd5b818102600019831415611e4a57811580611e3c575082828281611e3957fe5b05145b611e4557600080fd5b610b78565b821580611e5f575081838281611e5c57fe5b05145b610b7857600080fd5b600080611e7788888686612048565b90506000611e8487613309565b90506affffffffffffffffffffff8110611e9d57600080fd5b600060788763ffffffff16901b609883901b60f085901b60f860008c13611ec5576001611ec8565b60005b6005811115611ed357fe5b60ff16901b17171760001b905073__$7ac922d04bd7a1b42c7f6e5f1dd89a70af$__63e50f349e8b836040518363ffffffff1660e01b8152600401611f199291906155b3565b60206040518083038186803b158015611f3157600080fd5b505af4158015611f45573d6000803e3d6000fd5b505050506040513d601f19601f82011682018060405250810190611f699190614fd2565b9a9950505050505050505050565b600080611a0984602001516111fd86604001516112a26402540be40088611e1a90919063ffffffff16565b60006001600160501b0382111561143c57600080fd5b60008212611fc557600080fd5b6000611fde86604001518585858a610100015142611e68565b9050600081136120005760405162461bcd60e51b815260040161023d9061544a565b61200d8787878685611a11565b865161201890610dbc565b8660600151131561203b5760405162461bcd60e51b815260040161023d90615471565b610e57868883874261332a565b600080600061205a8761ffff1661342a565b905061206a8160ff168786613440565b90935091508483111561208f5760405162461bcd60e51b815260040161023d906152c0565b81156120ad5760405162461bcd60e51b815260040161023d906152c0565b5050949350505050565b600087608001516000146120ca57600080fd5b6000876080015112156120dc57600080fd5b875160208801511015612104576040870151156120f857600080fd5b87516020880152612115565b875160208801511461211557600080fd5b600085156121305761212d8989888a60000151613508565b90505b606088015160808901518a5160009261214d928b928a8a8a613586565b90506121696121628b8b848c60000151613508565b8390613145565b915088606001516001600160a01b03168a6000015189600001516001600160a01b03167f87d46c761bdd82b4a559098beeb0d5b8fa8c0e2aa3607704fe0757618e85e24d6121c48a8e6080015161314590919063ffffffff16565b8b876040516121d593929190615176565b60405180910390a4600060808a0152611f698782613145565b6121f6614cb9565b6000806000611d5d8561363c565b60008161221357506000611a09565b6000806122208785611621565b91509150600061223f8760400151886000015188858c600001516136bf565b905061225d61224d84611426565b6101608901516110d19084611f77565b98975050505050505050565b600061227484612d48565b156113a8576000612283611614565b6001600160a01b038086166000908152602092835260408082208951909316825291909252808220908701519092506122bf9061ffff16613784565b82549091506001600160501b036401000000008204811691600160701b90041681156123165761231361230c848a61014001516000600281106122fe57fe5b60200201518b518a876138e7565b8690611e04565b94505b80156123465761234361230c848a610140015160016002811061233557fe5b60200201518b518a866138e7565b94505b505050509392505050565b80820382811315600083121514610b7857600080fd5b6000610b7561237a84633b9aca00611e1a565b83612395565b6000610b7561238f8484611e1a565b633b9aca005b6000816000191480156123ab5750600160ff1b83145b156123b557600080fd5b8183816123be57fe5b059392505050565b6123ce614cb9565b6000806123db8686613988565b91509150816000141561250b5760006123f387613246565b91945090925090506001600160a01b038116156125095760006124146139d1565b90508560001080156124265750858711155b8015612437575064ffffffffff8611155b61244057600080fd5b83600012801561245757506001600160801b038413155b61246057600080fd5b6000888152602082815260408083208a845290915290819020805464ffffffffff191664ffffffffff89161774ffffffffffffffffffffffffffffffff00000000001916650100000000006001600160801b038816021760ff60a81b1916600160a81b60ff871602178155905188908a907f0fdfa6885701e2f1f42e4187b9231cf81c1fe23671ef64fa46f34ddb56c1dc18906124fe90899061559f565b60405180910390a350505b505b6040805160608101825260008152602081019390935260ff909116600a0a9082015290509392505050565b60008061255a61255361254c8860800151611426565b86906119de565b8490611e04565b905061256585612d48565b15612679576000612574611614565b60608901516001600160a01b039081166000908152602092835260408082208a519093168252919092528120875189516101408a015151835493955084936125cf9392919064010000000090046001600160501b03166139de565b90925090506125de8483611e04565b93506125ea8582612351565b88518a516101408b015160200151865493985061261693600160701b90046001600160501b03166139de565b90925090506126258483611e04565b93506126318582612351565b945061263b611614565b60608b01516001600160a01b039081166000908152602092835260408082208c51909316825291909252902080546001600160c01b03191690555050505b6126ac6126a588600001516110d16126948a60600151611426565b6111fd866112a28e60400151611426565b8390611e04565b915060008212156126d9576126cf6126c48584611f77565b608089015190611e04565b6080880152600091505b5095945050505050565b600080600061270f612702886020015188611f7790919063ffffffff16565b6110d18960800151611426565b90506000612721856110d189856119de565b9050801561275a57612747610eb3826111fd6127408c60a00151611426565b8a90611e1a565b9250612757816111fd8885611e1a565b93505b50506000612766613a72565b88516001600160a01b03166000908152602091825260408082208a5183529092522080549091506001600160501b03811690600160501b9004600990810b900b838210156127e3576127d661230c6127cf6305f5e1006111fd8d60c001516112a2888b03611426565b8a90611f77565b94509092506000906127e9565b83820391505b82546001600160501b0319166001600160501b038316178355600085121561281057600080fd5b84811215612883576000808213612827578561282b565b8186035b905060006128478c600001518d60400151848e60000151613a7f565b905060008313156128785761285c8382611e04565b8554600160501b600160a01b031916865596506000925061287c565b8096505b50506128c2565b61288d8186612351565b905061289881613ba7565b835460099190910b6001600160501b0316600160501b02600160501b600160a01b03199091161783555b88600001518a600001516001600160a01b03167ff5b347a56f0b5140f05eec05ff743978670a56685689fdc2c3193d71cfac31a98385604051612906929190615168565b60405180910390a35050509550959350505050565b60006305f5e10083604001511415612934575080610b78565b610b756305f5e1006111fd856040015185611e1a90919063ffffffff16565b8060058560600151600581111561296657fe5b141561298b57600061297784612e09565b90506129878160000151846131aa565b9250505b60008213156129b75760006129a1868685613bd7565b90508560200151156129b1578091505b50611a09565b6003856060015160058111156129c957fe5b14156129e6576129e1846129dc84610dbc565b612e1c565b611a09565b8451611a0990856129f685610dbc565b613cc0565b600080600286606001516005811115612a1057fe5b1415612a2857612a21868585613d37565b9050612a85565b6000612a3386612e09565b9050600587606001516005811115612a4757fe5b1415612a5f57612a58818686613df4565b9150612a83565b600187606001516005811115612a7157fe5b141561009c57612a5887828787613ea5565b505b612a91610e3482611426565b9695505050505050565b6000806000612ab1876040015161ffff16611878565b90506000600482606001516005811115612ac757fe5b14612ae257612add886040015161ffff16612e09565b612ae4565b815b905060008088608001511215612b5757600483606001516005811115612b0657fe5b1415612b2357612b1c610eb38960800151610dbc565b9050612b57565b6000612b44610e348a608001518c61016001516119de90919063ffffffff16565b9050612b53610eb38483613fa3565b9150505b604088015160009015612c2f576000612b708430613fdf565b90508a600001516001600160a01b03166344f051088b600001518c602001518d604001518e60600151888f8f6040518863ffffffff1660e01b8152600401612bbe9796959493929190615077565b602060405180830381600087803b158015612bd857600080fd5b505af1158015612bec573d6000803e3d6000fd5b505050506040513d601f19601f82011682018060405250810190612c109190614fd2565b95506000612c1e8530613fdf565b9050612c2a81836119c9565b925050505b81811015612cca57808203600384606001516005811115612c4c57fe5b1415612c8a5734811115612c725760405162461bcd60e51b815260040161023d9061523a565b612c828a60000151823403612e1c565b829150612cc8565b6000612caf8b600001518d6040015161ffff16612ca685611426565b88929190612953565b9050612cc4612cbd82611974565b8490613145565b9250505b505b81811015612cea5760405162461bcd60e51b815260040161023d9061523a565b6000600485606001516005811115612cfe57fe5b1415612d1457612d0d82611426565b9050612d2e565b8115612d2e5760408b0151612d2b90869084614089565b90505b612d38858261300f565b9650505050505094509492505050565b6101408101515160009061ffff16151580610dca57505061014001516020015161ffff16151590565b600063ffffffff82111561143c57600080fd5b6000620f424082601a811115612d9657fe5b0192915050565b600080600080600080612dae614170565b6001600160a01b039097166000908152602097909752505060409094205461ffff81169563ffffffff620100008304811696506601000000000000830416945060ff600160501b8304169350600160581b90910460d81b9150565b612e11614c8a565b610dca826001612eda565b6040516001600160a01b0383169082156108fc029083906000818181858888f19350505050158015610c2a573d6000803e3d6000fd5b836001600160a01b03166323b872dd8484846040518463ffffffff1660e01b815260040180846001600160a01b03168152602001836001600160a01b031681526020018281526020019350505050600060405180830381600087803b158015612eba57600080fd5b505af1158015612ece573d6000803e3d6000fd5b5050505061148261417d565b612ee2614c8a565b6000612eec6141ea565b6000858152602082815260408083208715158452825291829020825160a08101845281546001600160a01b038116825260ff600160a01b82048116151594830194909452600160b01b81048416600a0a9482019490945293945092916060830191600160a81b909104166005811115612f6157fe5b81529154600160b81b900468ffffffffffffffffff16602090920191909152949350505050565b600081612f9757506000610b78565b60008213612fa457600080fd5b6000612faf84612e09565b90506000612fc082600001516141f7565b9050600281056b033b2e3c9fd0803ce80000006001600160ff1b0382900305851315612feb57600080fd5b81816b033b2e3c9fd0803ce80000008702018161300457fe5b059695505050505050565b60006305f5e10083604001511415613028575080610b78565b6040830151610b75906111fd846305f5e100611e1a565b60008061304a614282565b6001600160a01b03861660009081526020918252604080822061ffff8816835290925220805490915061308d90600160501b90046001600160501b031684612351565b915060008312156130c25780546001600160501b03168213156130c25760405162461bcd60e51b815260040161023d906152ea565b6130ce610eb883611974565b81546001600160501b0391909116600160501b02600160501b600160a01b031990911617815560405161ffff8516906001600160a01b038716907f20478ef460e49d010960d4f3fff35d8dae385443abfac09035d6a2ccbcd834c49061313590869061515f565b60405180910390a3509392505050565b600082820183811015610b7557600080fd5b600061319e876040518060a00160405280896001600160a01b03168152602001896001600160a01b0316815260200188815260200187815260200160008152508585612a9b565b50979650505050505050565b6000816131b957506000610b78565b60006131c4846141f7565b905060006131d184613309565b9050816b019d971e4fe8401e74000001600160ff1b03816131ee57fe5b058113156131fb57600080fd5b6b033b2e3c9fd0803ce80000006b019d971e4fe8401e740000008383020105600085136132305761322b81610dbc565b612a91565b95945050505050565b600080610b786014612d84565b60008060008060006132578661428f565b909250905060006001600160a01b03831661327c5750600090506402540be4006132fe565b826001600160a01b0316631ee108336040518163ffffffff1660e01b8152600401602060405180830381600087803b1580156132b757600080fd5b505af11580156132cb573d6000803e3d6000fd5b505050506040513d601f19601f820116820180604052508101906132ef9190614fd2565b9050600081136132fe57600080fd5b969195509350915050565b6000808212156133235761331c82610dbc565b9050610dcd565b5080610dcd565b60006133546301da9c006111fd61334961334487876119c9565b611426565b60808a015190611e1a565b905060006133628583612380565b9050600061338260646111fd8a60e0015185611e1a90919063ffffffff16565b905060006133908383612351565b90506133a4896040015161ffff16836142c6565b6133b6896040015161ffff168261434d565b60808801516133c59084612351565b88608001818152505085896040015161ffff168a600001516001600160a01b03167f7456cb4b7c3068832fb334a03d3cd8e440286bad834cb9e332df05ae6792cfbb8585604051613417929190615168565b60405180910390a4505050505050505050565b60008061343683614399565b60ff169392505050565b600080600085116134635760405162461bcd60e51b815260040161023d9061526a565b60078511156134845760405162461bcd60e51b815260040161023d90615335565b600061348f846143b6565b905060015b8681116134e75760006134b06134a9836143d4565b8490614478565b9050868114156134c857509250600091506135009050565b868111156134de57509250600191506135009050565b50600101613494565b5060405162461bcd60e51b815260040161023d906154ba565b935093915050565b60008460a001516000141561351e575081613540565b61353d8560a00151610a0187606001518661198390919063ffffffff16565b90505b60a085015161354f9084613145565b60a086015260608501516135639082613145565b606086015260408401516135779082613145565b6040850152611a098583610e60565b60008061359c89600001518a6040015189611306565b89519091506001600160a01b031663dc6679c5896135ba8489613145565b8988886040518663ffffffff1660e01b81526004016135dd959493929190615126565b602060405180830381600087803b1580156135f757600080fd5b505af115801561360b573d6000803e3d6000fd5b505050506040513d601f19601f8201168201806040525081019061362f9190614fd2565b9998505050505050505050565b600080600080600061364d8661428f565b909250905060006001600160a01b0383166136725750600090506402540be4006132fe565b826001600160a01b031663b2fffb046040518163ffffffff1660e01b815260040160206040518083038186803b1580156136ab57600080fd5b505afa1580156132cb573d6000803e3d6000fd5b6000806136cf8761ffff16612e09565b90508060400151600014156136ee576136eb8761ffff16611878565b90505b60405163e937711160e01b8152613779906001600160a01b0388169063e93771119061372290899089908990600401615105565b60206040518083038186803b15801561373a57600080fd5b505afa15801561374e573d6000803e3d6000fd5b505050506040513d601f19601f820116820180604052508101906137729190614fd2565b829061300f565b979650505050505050565b61378c614ce3565b60006137966144d2565b60008481526020829052604081209192508060018614156137c35750670de0b6b3a7640000905080613899565b825460408051633fabe5a360e21b815290516001600160a01b039092169163feaf968c9160048082019260a092909190829003018186803b15801561380757600080fd5b505afa15801561381b573d6000803e3d6000fd5b505050506040513d601f19601f8201168201806040525081019061383f9190614fea565b509193505060008313915061386890505760405162461bcd60e51b815260040161023d906153fc565b825460ff600160a01b82048116600a0a9350600160a81b909104161561389957613896816111fd8480611e1a565b90505b6040805160a0810182529283526020830191909152915460ff600160b01b8204811693830193909352600160b81b810483166060830152600160c01b90049091166080820152915050919050565b6000806138f26144df565b6001600160a01b038616600090815260209182526040808220878352835280822061ffff8a16835290925290812080549092506001600160501b0380821692600160501b909204169061394c61334483610a018987611983565b9050600061395d8a61ffff16613784565b9050600061396b8c836144ec565b9050611bb9816111fd8e6000015186611e1a90919063ffffffff16565b60008060006139956139d1565b6000958652602090815260408087209587529490525050509020546501000000000081046001600160801b031691600160a81b90910460ff1690565b600080610b786008612d84565b60008061ffff84166139f557506000905080613a69565b60006139ff6144df565b6001600160a01b038816600090815260209182526040808220898352835280822061ffff891683529092522080549091506001600160501b03600160a01b8204811691600160501b9004168515613a6457613a6161334482610a018986611983565b93505b509250505b94509492505050565b600080610b786019612d84565b6000613a8c856000614511565b846001600160a01b03167f7c51c6aa77346c54cb051d9e792f9b7bde5c28a9b57e6fb2d2dd727b38438ca96000604051613ac69190615154565b60405180910390a2818461ffff16866001600160a01b03167f823b641d46550301006f807a26587634f15bd13749efdc8859734377d5304a3b86604051613b0d919061515f565b60405180910390a46000613b2660008661ffff16614571565b5050509050808413613b4657613b3e8585830361461a565b839150613b9e565b613b5185600061461a565b828561ffff16876001600160a01b03167f3a717b6924e3ad05b8c7609a2401472af90869b52cc3c9ca69b50100b4be6316848803604051613b92919061515f565b60405180910390a48091505b50949350505050565b6000697fffffffffffffffffff198212801590613bce5750697fffffffffffffffffff8213155b61143c57600080fd5b6000808080600587606001516005811115613bee57fe5b14613c00576370a0823160e01b613c09565b630ed1279f60e11b5b9050866020015115613c25578651613c2290308361467d565b92505b8651613c3290878761478f565b866020015180613c46575060008760800151115b15613c5b578651613c5890308361467d565b91505b608087015115613c96576000613c7988613c7485611426565b61300f565b9050613c888860800151611426565b811315613c9457600080fd5b505b866020015115613cb757613cad61334483856147e7565b93505050506113a8565b613cad85611426565b826001600160a01b031663a9059cbb83836040518363ffffffff1660e01b815260040180836001600160a01b0316815260200182815260200192505050600060405180830381600087803b158015613d1757600080fd5b505af1158015613d2b573d6000803e3d6000fd5b50505050610c2a61417d565b825160405163db006a7560e01b8152600091479183916001600160a01b03169063db006a7590613d6b90879060040161515f565b602060405180830381600087803b158015613d8557600080fd5b505af1158015613d99573d6000803e3d6000fd5b505050506040513d601f19601f82011682018060405250810190613dbd9190614fd2565b90508015613ddd5760405162461bcd60e51b815260040161023d9061521a565b47613de881846147e7565b93506117998685612e1c565b6000613e0f610eb38560000151613e0a85611426565b6131aa565b9050613e1961483e565b548451604051631a4ca37b60e21b81526001600160a01b03909216916369328dec91613e4b91859088906004016150b5565b602060405180830381600087803b158015613e6557600080fd5b505af1158015613e79573d6000803e3d6000fd5b505050506040513d601f19601f82011682018060405250810190613e9d9190614fd2565b509392505050565b82516000908190613ebe90306370a0823160e01b61467d565b9050600086600001516001600160a01b031663db006a75856040518263ffffffff1660e01b8152600401613ef2919061515f565b602060405180830381600087803b158015613f0c57600080fd5b505af1158015613f20573d6000803e3d6000fd5b505050506040513d601f19601f82011682018060405250810190613f449190614fd2565b90508015613f645760405162461bcd60e51b815260040161023d9061521a565b8551600090613f7b90306370a0823160e01b61467d565b9050613f8781846147e7565b9350613f9887600001518786613cc0565b505050949350505050565b60006305f5e10083604001511215613fcb57613fc460016110d1858561291b565b9050610b78565b610b7583613fda846001611e04565b61291b565b6000600383606001516005811115613ff357fe5b141561400a57506001600160a01b03811631610b78565b82516040516370a0823160e01b81526001600160a01b03909116906370a0823190614039908590600401615063565b60206040518083038186803b15801561405157600080fd5b505afa158015614065573d6000803e3d6000fd5b505050506040513d601f19601f82011682018060405250810190613fc49190614fd2565b60008060058560600151600581111561409e57fe5b146140b0576370a0823160e01b6140b9565b630ed1279f60e11b5b905060006140cc8660000151308461467d565b90506005866060015160058111156140e057fe5b14156141075760006140f58661ffff16612e09565b9050614101818661484b565b50614150565b60018660600151600581111561411957fe5b141561412e5761412986856148b6565b614150565b60028660600151600581111561414057fe5b141561009c576141298685614958565b60006141618760000151308561467d565b905061377961334482846147e7565b600080610b786002612d84565b6000614187614d12565b3d801561419b57602081146141a457600080fd5b600192506141af565b60206000833e815192505b50816116c6576040805162461bcd60e51b8152602060048201526005602482015264045524332360dc1b604482015290519081900360640190fd5b600080610b786007612d84565b6000610dca61420461483e565b5460405163d15e005360e01b81526001600160a01b039091169063d15e005390614232908690600401615063565b60206040518083038186803b15801561424a57600080fd5b505afa15801561425e573d6000803e3d6000fd5b505050506040513d601f19601f820116820180604052508101906133449190614fd2565b600080610b786017612d84565b600080600061429c6149ab565b600094855260205250506040909120546001600160a01b03811692600160a01b90910460ff169150565b60008112156142d457600080fd5b60006142e1600084614571565b50505090506142f98282611e0490919063ffffffff16565b905061430c6000848360008060006149b8565b8261ffff167f85170c297762884f47ec6098b74925c795e6d33686b11019b400e33a9b23b5e983604051614340919061515f565b60405180910390a2505050565b600081121561435b57600080fd5b600061436683614aff565b905060006143748285614571565b505050905061438c8382611e0490919063ffffffff16565b9050611482828583614b25565b6000806143a4614b43565b60009384526020525050604090205490565b60006276a7008210156143c857600080fd5b506276a7008106900390565b600081600114156143e957506276a700610dcd565b81600214156143fc575062ed4e00610dcd565b816003141561441057506301da9c00610dcd565b816004141561442457506303b53800610dcd565b816005141561443857506309450c00610dcd565b816006141561444c575063128a1800610dcd565b816007141561446057506325143000610dcd565b60405162461bcd60e51b815260040161023d90615299565b600082820183811015610b75576040805162461bcd60e51b815260206004820152601b60248201527f536166654d6174683a206164646974696f6e206f766572666c6f770000000000604482015290519081900360640190fd5b600080610b786010612d84565b600080610b786018612d84565b6000610b7582602001516111fd84600001518660200151611e1a90919063ffffffff16565b600061451b613239565b6001600160a01b038416600090815260208290526040902080549192509061ffff16831561455a57815461ffff19166001821761ffff1617825561456a565b815461ffff191661fffe82161782555b5050505050565b6000806000806000614581614b50565b6001600160a01b0388166000908152602082815260408083208a8452909152902080546001600160501b0381169650600160501b900463ffffffff16945090915083156145ea5780546145e390600160701b900466ffffffffffffff16614b5d565b92506145ff565b8054600160701b900466ffffffffffffff1692505b54600160a81b9004600a90810b900b97939650919450925050565b600081121561462857600080fd5b61463d60008361ffff168360008060006149b8565b8161ffff167fd3625f7b5926828151efe19f7ae655488287357d99ebe67e5fb20522ca739c0b82604051614671919061515f565b60405180910390a25050565b604080516001600160a01b0384811660248084019190915283518084039091018152604490920183526020820180516001600160e01b03166001600160e01b0319861617815292518251600094859485948a16939092909182918083835b602083106146fa5780518252601f1990920191602091820191016146db565b6001836020036101000a038019825116818451168082178552505050505050905001915050600060405180830381855afa9150503d806000811461475a576040519150601f19603f3d011682016040523d82523d6000602084013e61475f565b606091505b50915091508161476e57600080fd5b80806020019051602081101561478357600080fd5b50519695505050505050565b604080516323b872dd60e01b81526001600160a01b038481166004830152306024830152604482018490529151918516916323b872dd9160648082019260009290919082900301818387803b158015613d1757600080fd5b6000828211156119d8576040805162461bcd60e51b815260206004820152601e60248201527f536166654d6174683a207375627472616374696f6e206f766572666c6f770000604482015290519081900360640190fd5b600080610b786013612d84565b61485361483e565b54825160405163e8eda9df60e01b81526001600160a01b039092169163e8eda9df9161488891859030906000906004016150d8565b600060405180830381600087803b1580156148a257600080fd5b505af1158015611a77573d6000803e3d6000fd5b815160405163140e25ad60e31b81526000916001600160a01b03169063a0712d68906148e690859060040161515f565b602060405180830381600087803b15801561490057600080fd5b505af1158015614914573d6000803e3d6000fd5b505050506040513d601f19601f820116820180604052508101906149389190614fd2565b90508015610c2a5760405162461bcd60e51b815260040161023d906151fc565b81600001516001600160a01b0316631249c58b826040518263ffffffff1660e01b81526004016000604051808303818588803b15801561499757600080fd5b505af1158015610e57573d6000803e3d6000fd5b600080610b78600f612d84565b60006149c2614b50565b6001600160a01b0388166000908152602082815260408083208a845290915290209091506a7fffffffffffffffffffff198612801590614a0d57506a7fffffffffffffffffffff8613155b614a1657600080fd5b60008512158015614a2e57506001600160501b038513155b614a3757600080fd5b83614a775766ffffffffffffff831115614a5057600080fd5b805466ffffffffffffff60701b1916600160701b66ffffffffffffff851602178155614a91565b8054600160501b900463ffffffff168414614a9157600080fd5b8054600a9690960b6affffffffffffffffffffff16600160a81b026001600160a81b036001600160501b039096166001600160501b031963ffffffff909616600160501b0263ffffffff60501b19909816979097179490941695909517939093169190911790925550505050565b600080614b0a614b6b565b6000938452602052505060409020546001600160a01b031690565b6000811215614b3357600080fd5b610c2a83838360008060006149b8565b600080610b786009612d84565b600080610b786006612d84565b600881901c60ff9091161b90565b600080610b786003612d84565b60405180604001604052806002906020820280368337509192915050565b6040518060a0016040528060008152602001600081526020016000815260200160006001600160a01b03168152602001600081525090565b60405180610180016040528060006001600160a01b03168152602001600061ffff168152602001600061ffff16815260200160008152602001600081526020016000815260200160008152602001600081526020016000815260200160008152602001614c39614b78565b8152602001614c46614cb9565b905290565b6040518060e001604052806000815260200160008152602001600015158152602001600081526020016000815260200160008152602001600081525090565b6040805160a0810182526000808252602082018190529181018290529060608201908152602001600081525090565b604051806060016040528060006001600160a01b0316815260200160008152602001600081525090565b6040518060a0016040528060008152602001600081526020016000815260200160008152602001600081525090565b60405180602001604052806001906020820280368337509192915050565b80356001600160a01b0381168114610dcd57600080fd5b60008083601f840112614d58578182fd5b50813567ffffffffffffffff811115614d6f578182fd5b60208301915083602082850101111561167457600080fd5b803563ffffffff81168114610dcd57600080fd5b80516001600160501b0381168114610dcd57600080fd5b60008060408385031215614dc4578182fd5b614dcd83614d30565b915061167160208401614d30565b600080600080600080600060c0888a031215614df5578283fd5b614dfe88614d30565b9650614e0c60208901614d30565b9550614e1a60408901614d30565b94506060880135935060808801358015158114614e35578384fd5b925060a088013567ffffffffffffffff811115614e50578283fd5b614e5c8a828b01614d47565b989b979a50959850939692959293505050565b60008060008060008060008060e0898b031215614e8a578081fd5b614e9389614d30565b9750614ea160208a01614d30565b9650614eaf60408a01614d30565b95506060890135945060808901359350614ecb60a08a01614d87565b925060c089013567ffffffffffffffff811115614ee6578182fd5b614ef28b828c01614d47565b999c989b5096995094979396929594505050565b60008060008060008060008060e0898b031215614f21578384fd5b614f2a89614d30565b9750614f3860208a01614d30565b9650604089013595506060890135945060808901359350614f5b60a08a01614d87565b925060c089013567ffffffffffffffff811115614ee6578283fd5b60008060008060008060008060e0898b031215614f91578384fd5b614f9a89614d30565b9750614fa860208a01614d30565b96506040890135955060608901359450614fc460808a01614d87565b9350614f5b60a08a01614d87565b600060208284031215614fe3578081fd5b5051919050565b600080600080600060a08688031215615001578081fd5b61500a86614d9b565b945060208601519350604086015192506060860151915061502d60808701614d9b565b90509295509295909350565b60008284528282602086013780602084860101526020601f19601f85011685010190509392505050565b6001600160a01b0391909116815260200190565b600060018060a01b03808a16835280891660208401525086604083015285606083015284608083015260c060a083015261362f60c083018486615039565b6001600160a01b0393841681526020810192909252909116604082015260600190565b6001600160a01b03948516815260208101939093529216604082015261ffff909116606082015260800190565b6001600160a01b039390931683526020830191909152604082015260600190565b600060018060a01b038716825285602083015284604083015260806060830152613779608083018486615039565b901515815260200190565b90815260200190565b918252602082015260400190565b9283526020830191909152604082015260600190565b93845260208401929092526040830152606082015260800190565b6020808252600c908201526b155b985d5d1a1bdc9a5e995960a21b604082015260600190565b6020808252601590820152740acc2ead8e840a6d0c2e4cae6409ad2e6dac2e8c6d605b1b604082015260600190565b602080825260049082015263135a5b9d60e21b604082015260600190565b60208082526006908201526552656465656d60d01b604082015260600190565b602080825260169082015275125b9cdd59999a58da595b9d081c995c185e5b595b9d60521b604082015260600190565b60208082526015908201527410d1ce881b9bc81b585c9ad95d1cc81b1a5cdd1959605a1b604082015260600190565b6020808252600d908201526c092dcecc2d8d2c840d2dcc8caf609b1b604082015260600190565b60208082526010908201526f496e76616c6964204d6174757269747960801b604082015260600190565b6020808252600c908201526b4d617820436170616369747960a01b604082015260600190565b6020808252600b908201526a139bdd0814d95d1d1b195960aa1b604082015260600190565b60208082526016908201527510d1ce881b585c9ad95d081a5b99195e08189bdd5b9960521b604082015260600190565b6020808252600f908201526e139bc8149bdb1b08105b1b1bddd959608a1b604082015260600190565b60208082526017908201527f496e73756666696369656e7420436f6c6c61746572616c000000000000000000604082015260600190565b60208082526017908201527f4d757374204c697175696461746520416c6c2044656274000000000000000000604082015260600190565b6020808252600c908201526b496e76616c6964207261746560a01b604082015260600190565b6020808252600e908201526d1499595b9d1c985b9d0818d85b1b60921b604082015260600190565b6020808252600d908201526c109bdc9c9bddc819985a5b1959609a1b604082015260600190565b6020808252600a90820152694d696e20426f72726f7760b01b604082015260600190565b6020808252600b908201526a092dcecc2d8d2c8408aa8960ab1b604082015260600190565b60208082526013908201527210d1ce881b9bc81b585c9ad95d08199bdd5b99606a1b604082015260600190565b6020808252600c908201526b21b0b73737ba1022b73a32b960a11b604082015260600190565b6020808252600b908201526a11985a5b19590813195b9960aa1b604082015260600190565b60208082526015908201527414dd59999a58da595b9d0810dbdb1b185d195c985b605a1b604082015260600190565b8151815260208083015190820152604080830151908201526060808301516001600160a01b0316908201526080918201519181019190915260a00190565b6001600160801b0391909116815260200190565b61ffff929092168252602082015260400190565b8381526080810160208083018560005b60028110156155f4578151835291830191908301906001016155d7565b50505050826060830152949350505050565b918252151560208201526040019056fea2646970667358221220b8594927d8e55ce6e1a9a1ffe19efba3dedd7940f591fd65b407b161ed67599c64736f6c63430007060033","language":"Solidity","natspec":{"kind":"dev","methods":{"deleverageAccount(address,address,address,uint256,bool,bytes)":{"notice":"If an account is below the minimum collateral ratio, this method wil deleverage (liquidate) that account. `depositAmountExternal` in the borrow currency will be transferred from the liquidator and used to offset the account's debt position. The liquidator will receive either vaultShares or cash depending.","params":{"account":"the address that will exit the vault","depositAmountExternal":"amount of asset cash to deposit","liquidator":"the address that will receive profits from liquidation","redeemData":"calldata sent to the vault when redeeming liquidator profits","transferSharesToLiquidator":"transfers the shares to the liquidator instead of redeeming them","vault":"the vault to enter"},"returns":{"profitFromLiquidation":"amount of vaultShares or cash received from liquidation"}},"enterVault(address,address,uint256,uint256,uint256,uint32,bytes)":{"notice":"Borrows a specified amount of fCash in the vault's borrow currency and deposits it all plus the depositAmountExternal into the vault to mint strategy tokens.","params":{"account":"the address that will enter the vault","depositAmountExternal":"some amount of additional collateral in the borrowed currency to be transferred to vault","fCash":"amount to borrow","maturity":"the maturity to borrow at","maxBorrowRate":"maximum interest rate to borrow at","vault":"the vault to enter","vaultData":"additional data to pass to the vault contract"},"returns":{"strategyTokensAdded":"the total strategy tokens added to the maturity, including any tokens from settlement. Allows enterVault to be used by off-chain methods to get an accurate simulation of the strategy tokens minted."}},"exitVault(address,address,address,uint256,uint256,uint32,bytes)":{"notice":"Prior to maturity, allows an account to withdraw their position from the vault. Will redeem some number of vault shares to the borrow currency and close the borrow position by lending `fCashToLend`. Any shortfall in cash from lending will be transferred from the account, any excess profits will be transferred to the account. Post maturity, will net off the account's debt against vault cash balances and redeem all remaining strategy tokens back to the borrowed currency and transfer the profits to the account.","params":{"account":"the address that will exit the vault","exitVaultData":"passed to the vault during exit","fCashToLend":"amount of fCash to lend","minLendRate":"the minimum rate to lend at","receiver":"the address that will receive profits","vault":"the vault to enter","vaultSharesToRedeem":"amount of vault tokens to exit, only relevant when exiting pre-maturity"},"returns":{"underlyingToReceiver":"amount of underlying tokens returned to the receiver on exit"}},"getVaultAccount(address,address)":{"notice":"View Methods *"},"rollVaultPosition(address,address,uint256,uint256,uint32,uint32,bytes)":{"notice":"Re-enters the vault at a longer dated maturity. The account's existing borrow position will be closed and a new borrow position at the specified maturity will be opened. Strategy token holdings will transfer to the longer dated maturity.","params":{"account":"the address that will reenter the vault","fCashToBorrow":"amount of fCash to borrow in the next maturity","maturity":"new maturity to borrow at","vault":"the vault to reenter"},"returns":{"strategyTokensAdded":"the total strategy tokens added to the maturity, including any tokens rolled from the previous maturity.. Allows rollVaultPosition to be used by off-chain methods to get an accurate simulation of the strategy tokens minted."}}},"version":1},"opcodes":"PUSH1 0x80 PUSH1 0x40 MSTORE PUSH1 0x4 CALLDATASIZE LT PUSH2 0x9C JUMPI PUSH1 0x0 CALLDATALOAD PUSH1 0xE0 SHR DUP1 PUSH4 0x82463367 GT PUSH2 0x64 JUMPI DUP1 PUSH4 0x82463367 EQ PUSH2 0x16A JUMPI DUP1 PUSH4 0x8DA5CB5B EQ PUSH2 0x17F JUMPI DUP1 PUSH4 0x95C1A202 EQ PUSH2 0x194 JUMPI DUP1 PUSH4 0x9948315E EQ PUSH2 0x1A7 JUMPI DUP1 PUSH4 0xC025D1A5 EQ PUSH2 0x1C7 JUMPI DUP1 PUSH4 0xC4C96DAE EQ PUSH2 0x1F4 JUMPI PUSH2 0x9C JUMP JUMPDEST DUP1 PUSH4 0x24A3D622 EQ PUSH2 0xA1 JUMPI DUP1 PUSH4 0x450C0E02 EQ PUSH2 0xCC JUMPI DUP1 PUSH4 0x647CC196 EQ PUSH2 0xF9 JUMPI DUP1 PUSH4 0x6CE48F01 EQ PUSH2 0x128 JUMPI DUP1 PUSH4 0x803C25FB EQ PUSH2 0x13B JUMPI JUMPDEST PUSH1 0x0 DUP1 REVERT JUMPDEST CALLVALUE DUP1 ISZERO PUSH2 0xAD JUMPI PUSH1 0x0 DUP1 REVERT JUMPDEST POP PUSH2 0xB6 PUSH2 0x209 JUMP JUMPDEST PUSH1 0x40 MLOAD PUSH2 0xC3 SWAP2 SWAP1 PUSH2 0x5063 JUMP JUMPDEST PUSH1 0x40 MLOAD DUP1 SWAP2 SUB SWAP1 RETURN JUMPDEST CALLVALUE DUP1 ISZERO PUSH2 0xD8 JUMPI PUSH1 0x0 DUP1 REVERT JUMPDEST POP PUSH2 0xEC PUSH2 0xE7 CALLDATASIZE PUSH1 0x4 PUSH2 0x4F76 JUMP JUMPDEST PUSH2 0x218 JUMP JUMPDEST PUSH1 0x40 MLOAD PUSH2 0xC3 SWAP2 SWAP1 PUSH2 0x515F JUMP JUMPDEST CALLVALUE DUP1 ISZERO PUSH2 0x105 JUMPI PUSH1 0x0 DUP1 REVERT JUMPDEST POP PUSH2 0x119 PUSH2 0x114 CALLDATASIZE PUSH1 0x4 PUSH2 0x4DB2 JUMP JUMPDEST PUSH2 0x3DD JUMP JUMPDEST PUSH1 0x40 MLOAD PUSH2 0xC3 SWAP4 SWAP3 SWAP2 SWAP1 PUSH2 0x5176 JUMP JUMPDEST PUSH2 0xEC PUSH2 0x136 CALLDATASIZE PUSH1 0x4 PUSH2 0x4E6F JUMP JUMPDEST PUSH2 0x47C JUMP JUMPDEST CALLVALUE DUP1 ISZERO PUSH2 0x147 JUMPI PUSH1 0x0 DUP1 REVERT JUMPDEST POP PUSH2 0x15B PUSH2 0x156 CALLDATASIZE PUSH1 0x4 PUSH2 0x4DB2 JUMP JUMPDEST PUSH2 0x6C8 JUMP JUMPDEST PUSH1 0x40 MLOAD PUSH2 0xC3 SWAP4 SWAP3 SWAP2 SWAP1 PUSH2 0x55C7 JUMP JUMPDEST CALLVALUE DUP1 ISZERO PUSH2 0x176 JUMPI PUSH1 0x0 DUP1 REVERT JUMPDEST POP PUSH2 0xB6 PUSH2 0x779 JUMP JUMPDEST CALLVALUE DUP1 ISZERO PUSH2 0x18B JUMPI PUSH1 0x0 DUP1 REVERT JUMPDEST POP PUSH2 0xB6 PUSH2 0x788 JUMP JUMPDEST PUSH2 0xEC PUSH2 0x1A2 CALLDATASIZE PUSH1 0x4 PUSH2 0x4F06 JUMP JUMPDEST PUSH2 0x79F JUMP JUMPDEST CALLVALUE DUP1 ISZERO PUSH2 0x1B3 JUMPI PUSH1 0x0 DUP1 REVERT JUMPDEST POP PUSH2 0xEC PUSH2 0x1C2 CALLDATASIZE PUSH1 0x4 PUSH2 0x4DDB JUMP JUMPDEST PUSH2 0x8E9 JUMP JUMPDEST CALLVALUE DUP1 ISZERO PUSH2 0x1D3 JUMPI PUSH1 0x0 DUP1 REVERT JUMPDEST POP PUSH2 0x1E7 PUSH2 0x1E2 CALLDATASIZE PUSH1 0x4 PUSH2 0x4DB2 JUMP JUMPDEST PUSH2 0xB63 JUMP JUMPDEST PUSH1 0x40 MLOAD PUSH2 0xC3 SWAP2 SWAP1 PUSH2 0x5561 JUMP JUMPDEST CALLVALUE DUP1 ISZERO PUSH2 0x200 JUMPI PUSH1 0x0 DUP1 REVERT JUMPDEST POP PUSH2 0xB6 PUSH2 0xB7E JUMP JUMPDEST PUSH1 0x2 SLOAD PUSH1 0x1 PUSH1 0x1 PUSH1 0xA0 SHL SUB AND DUP2 JUMP JUMPDEST PUSH1 0x0 PUSH1 0x2 PUSH1 0xA SLOAD EQ ISZERO PUSH2 0x246 JUMPI PUSH1 0x40 MLOAD PUSH3 0x461BCD PUSH1 0xE5 SHL DUP2 MSTORE PUSH1 0x4 ADD PUSH2 0x23D SWAP1 PUSH2 0x5422 JUMP JUMPDEST PUSH1 0x40 MLOAD DUP1 SWAP2 SUB SWAP1 REVERT JUMPDEST PUSH1 0x2 PUSH1 0xA SSTORE PUSH1 0x0 PUSH2 0x256 DUP10 PUSH2 0xB96 JUMP JUMPDEST SWAP1 POP PUSH2 0x264 DUP2 DUP12 PUSH1 0x10 PUSH2 0xBC5 JUMP JUMPDEST PUSH2 0x26F DUP2 PUSH1 0x80 PUSH2 0xC2F JUMP JUMPDEST ISZERO PUSH2 0x27A JUMPI PUSH1 0x1 PUSH1 0xA SSTORE JUMPDEST PUSH1 0x0 PUSH2 0x286 DUP12 DUP12 PUSH2 0xC44 JUMP JUMPDEST SWAP1 POP PUSH2 0x293 DUP3 PUSH1 0x1 PUSH2 0xC2F JUMP JUMPDEST DUP1 ISZERO PUSH2 0x2A5 JUMPI POP PUSH2 0x2A5 DUP3 PUSH1 0x2 PUSH2 0xC2F JUMP JUMPDEST DUP1 ISZERO PUSH2 0x2B4 JUMPI POP DUP1 PUSH1 0x20 ADD MLOAD TIMESTAMP LT JUMPDEST DUP1 ISZERO PUSH2 0x2C3 JUMPI POP DUP8 DUP2 PUSH1 0x20 ADD MLOAD LT JUMPDEST DUP1 ISZERO PUSH2 0x2CF JUMPI POP PUSH1 0x0 DUP10 GT JUMPDEST PUSH2 0x2EB JUMPI PUSH1 0x40 MLOAD PUSH3 0x461BCD PUSH1 0xE5 SHL DUP2 MSTORE PUSH1 0x4 ADD PUSH2 0x23D SWAP1 PUSH2 0x5365 JUMP JUMPDEST PUSH1 0x0 PUSH2 0x2FF DUP4 PUSH1 0x0 ADD MLOAD DUP4 PUSH1 0x20 ADD MLOAD PUSH2 0xCC2 JUMP JUMPDEST SWAP1 POP PUSH1 0x0 PUSH2 0x31C DUP4 DUP5 PUSH1 0x40 ADD MLOAD DUP5 PUSH2 0xD5D SWAP1 SWAP3 SWAP2 SWAP1 PUSH4 0xFFFFFFFF AND JUMP JUMPDEST SWAP1 POP PUSH2 0x33B DUP5 DUP4 PUSH2 0x330 DUP7 PUSH1 0x0 ADD MLOAD PUSH2 0xDBC JUMP JUMPDEST DUP7 SWAP3 SWAP2 SWAP1 DUP14 TIMESTAMP PUSH2 0xDD2 JUMP JUMPDEST DUP3 MLOAD ISZERO PUSH2 0x35A JUMPI PUSH1 0x40 MLOAD PUSH3 0x461BCD PUSH1 0xE5 SHL DUP2 MSTORE PUSH1 0x4 ADD PUSH2 0x23D SWAP1 PUSH2 0x550D JUMP JUMPDEST DUP4 MLOAD PUSH2 0x367 SWAP1 DUP4 SWAP1 PUSH2 0xE60 JUMP JUMPDEST PUSH2 0x379 DUP4 DUP6 DUP13 DUP15 DUP13 DUP13 DUP13 DUP9 PUSH1 0x0 PUSH2 0xFD4 JUMP JUMPDEST SWAP5 POP DUP10 DUP14 PUSH1 0x1 PUSH1 0x1 PUSH1 0xA0 SHL SUB AND DUP14 PUSH1 0x1 PUSH1 0x1 PUSH1 0xA0 SHL SUB AND PUSH32 0x67C1D09E65227D62B788F4C3E6ACE545AC922034D69BD4AA45C53DEC290275BE DUP15 PUSH1 0x40 MLOAD PUSH2 0x3BF SWAP2 SWAP1 PUSH2 0x515F JUMP JUMPDEST PUSH1 0x40 MLOAD DUP1 SWAP2 SUB SWAP1 LOG4 POP POP PUSH1 0x1 PUSH1 0xA SSTORE POP SWAP1 SWAP10 SWAP9 POP POP POP POP POP POP POP POP POP JUMP JUMPDEST PUSH1 0x0 DUP1 PUSH1 0x0 DUP1 PUSH2 0x3EC DUP6 PUSH2 0x1077 JUMP JUMPDEST SWAP1 POP PUSH1 0x0 PUSH2 0x3FA DUP8 DUP8 PUSH2 0xC44 JUMP JUMPDEST SWAP1 POP PUSH1 0x0 PUSH2 0x40C DUP8 DUP4 PUSH1 0x20 ADD MLOAD PUSH2 0xCC2 JUMP JUMPDEST SWAP1 POP DUP3 PUSH1 0xA0 ADD MLOAD SWAP5 POP DUP1 PUSH1 0x40 ADD MLOAD ISZERO PUSH2 0x42E JUMPI PUSH1 0x1 PUSH1 0x1 PUSH1 0xFF SHL SUB SWAP6 POP PUSH2 0x472 JUMP JUMPDEST PUSH1 0x40 DUP3 ADD MLOAD DUP3 MLOAD PUSH1 0x0 SWAP2 PUSH2 0x448 SWAP2 DUP7 SWAP2 DUP6 SWAP2 DUP14 SWAP2 SWAP1 PUSH2 0x109B JUMP JUMPDEST SWAP1 SWAP8 POP SWAP1 POP DUP6 DUP8 SLT DUP1 ISZERO PUSH2 0x45C JUMPI POP PUSH1 0x0 DUP2 SGT JUMPDEST ISZERO PUSH2 0x470 JUMPI PUSH2 0x46C DUP4 DUP6 DUP4 PUSH2 0x1121 JUMP JUMPDEST POP SWAP5 POP JUMPDEST POP JUMPDEST POP POP POP SWAP3 POP SWAP3 POP SWAP3 JUMP JUMPDEST PUSH1 0x0 PUSH1 0x2 PUSH1 0xA SLOAD EQ ISZERO PUSH2 0x4A1 JUMPI PUSH1 0x40 MLOAD PUSH3 0x461BCD PUSH1 0xE5 SHL DUP2 MSTORE PUSH1 0x4 ADD PUSH2 0x23D SWAP1 PUSH2 0x5422 JUMP JUMPDEST PUSH1 0x2 PUSH1 0xA SSTORE PUSH1 0x0 PUSH2 0x4B1 DUP10 PUSH2 0xB96 JUMP JUMPDEST SWAP1 POP PUSH2 0x4BF DUP2 DUP12 PUSH1 0x8 PUSH2 0xBC5 JUMP JUMPDEST PUSH2 0x4CA DUP2 PUSH1 0x80 PUSH2 0xC2F JUMP JUMPDEST ISZERO PUSH2 0x4D5 JUMPI PUSH1 0x1 PUSH1 0xA SSTORE JUMPDEST PUSH1 0x0 PUSH2 0x4E1 DUP12 DUP12 PUSH2 0xC44 JUMP JUMPDEST SWAP1 POP TIMESTAMP DUP2 PUSH1 0x20 ADD MLOAD GT PUSH2 0x58F JUMPI PUSH1 0x20 DUP2 ADD MLOAD PUSH1 0x0 PUSH2 0x500 DUP4 DUP6 TIMESTAMP PUSH2 0x1230 JUMP JUMPDEST SWAP1 POP PUSH1 0x0 DUP4 PUSH1 0x80 ADD MLOAD SGT ISZERO PUSH2 0x52B JUMPI PUSH2 0x522 DUP12 DUP6 PUSH1 0x40 ADD MLOAD DUP6 PUSH1 0x80 ADD MLOAD PUSH2 0x1306 JUMP JUMPDEST POP PUSH1 0x0 PUSH1 0x80 DUP5 ADD MSTORE JUMPDEST PUSH2 0x53A DUP5 DUP5 DUP14 DUP5 DUP7 DUP13 DUP13 PUSH2 0x13AF JUMP JUMPDEST SWAP5 POP DUP2 DUP14 PUSH1 0x1 PUSH1 0x1 PUSH1 0xA0 SHL SUB AND DUP14 PUSH1 0x1 PUSH1 0x1 PUSH1 0xA0 SHL SUB AND PUSH32 0xCCD6B9AEC297A77187BFAABFE7F98AC1DD313C796A73695DFF89DE0885DBB293 DUP9 PUSH1 0x40 MLOAD PUSH2 0x580 SWAP2 SWAP1 PUSH2 0x515F JUMP JUMPDEST PUSH1 0x40 MLOAD DUP1 SWAP2 SUB SWAP1 LOG4 POP POP PUSH2 0x68D JUMP JUMPDEST PUSH1 0x0 PUSH2 0x5A3 DUP4 PUSH1 0x0 ADD MLOAD DUP4 PUSH1 0x20 ADD MLOAD PUSH2 0xCC2 JUMP JUMPDEST SWAP1 POP PUSH2 0x5BE DUP4 DUP3 PUSH2 0x5B3 DUP12 PUSH2 0x1426 JUMP JUMPDEST DUP6 SWAP3 SWAP2 SWAP1 DUP12 TIMESTAMP PUSH2 0xDD2 JUMP JUMPDEST PUSH1 0x0 PUSH2 0x5CB DUP3 DUP5 DUP13 PUSH2 0xD5D JUMP JUMPDEST SWAP1 POP PUSH1 0x0 DUP4 PUSH1 0x80 ADD MLOAD SGT ISZERO PUSH2 0x5F6 JUMPI PUSH2 0x5ED DUP12 DUP6 PUSH1 0x40 ADD MLOAD DUP6 PUSH1 0x80 ADD MLOAD PUSH2 0x1306 JUMP JUMPDEST POP PUSH1 0x0 PUSH1 0x80 DUP5 ADD MSTORE JUMPDEST DUP1 ISZERO PUSH2 0x614 JUMPI DUP2 MLOAD PUSH2 0x611 SWAP1 DUP6 SWAP1 DUP6 SWAP1 DUP15 SWAP1 DUP6 SWAP1 DUP13 DUP13 PUSH2 0x13AF JUMP JUMPDEST SWAP5 POP JUMPDEST DUP3 MLOAD PUSH1 0x0 SGT ISZERO PUSH2 0x629 JUMPI PUSH2 0x629 DUP5 DUP4 DUP6 PUSH2 0x1440 JUMP JUMPDEST DUP4 MLOAD PUSH2 0x636 SWAP1 DUP4 SWAP1 PUSH2 0xE60 JUMP JUMPDEST DUP2 PUSH1 0x0 ADD MLOAD DUP14 PUSH1 0x1 PUSH1 0x1 PUSH1 0xA0 SHL SUB AND DUP14 PUSH1 0x1 PUSH1 0x1 PUSH1 0xA0 SHL SUB AND PUSH32 0xEA195C44D2295A1DF0DEFE8210ABB22B4A911B4379B9E30E764548EBEE65C420 DUP13 DUP15 DUP11 PUSH1 0x40 MLOAD PUSH2 0x682 SWAP4 SWAP3 SWAP2 SWAP1 PUSH2 0x5176 JUMP JUMPDEST PUSH1 0x40 MLOAD DUP1 SWAP2 SUB SWAP1 LOG4 POP POP JUMPDEST DUP1 MLOAD ISZERO DUP1 ISZERO PUSH2 0x69E JUMPI POP PUSH1 0x40 DUP2 ADD MLOAD ISZERO JUMPDEST ISZERO PUSH2 0x6AB JUMPI PUSH1 0x0 PUSH1 0x20 DUP3 ADD MSTORE JUMPDEST PUSH2 0x6B5 DUP2 DUP4 PUSH2 0x1488 JUMP JUMPDEST POP POP PUSH1 0x1 PUSH1 0xA SSTORE SWAP9 SWAP8 POP POP POP POP POP POP POP POP JUMP JUMPDEST PUSH1 0x0 PUSH2 0x6D2 PUSH2 0x4B78 JUMP JUMPDEST PUSH1 0x0 DUP1 PUSH2 0x6DD PUSH2 0x1614 JUMP JUMPDEST PUSH1 0x1 PUSH1 0x1 PUSH1 0xA0 SHL SUB DUP8 DUP2 AND PUSH1 0x0 SWAP1 DUP2 MSTORE PUSH1 0x20 SWAP3 DUP4 MSTORE PUSH1 0x40 DUP1 DUP3 KECCAK256 SWAP3 DUP10 AND DUP3 MSTORE SWAP2 DUP4 MSTORE SWAP1 DUP2 KECCAK256 DUP1 SLOAD PUSH1 0x1 PUSH1 0x1 PUSH1 0x50 SHL SUB PUSH5 0x100000000 DUP3 DIV DUP2 AND DUP9 MSTORE PUSH1 0x1 PUSH1 0x70 SHL DUP3 DIV AND SWAP4 DUP8 ADD SWAP4 SWAP1 SWAP4 MSTORE PUSH4 0xFFFFFFFF SWAP1 SWAP3 AND SWAP6 POP SWAP1 SWAP2 POP PUSH2 0x73E DUP8 DUP8 PUSH2 0xC44 JUMP JUMPDEST SWAP1 POP PUSH1 0x0 PUSH2 0x750 DUP8 DUP4 PUSH1 0x20 ADD MLOAD PUSH2 0xCC2 JUMP JUMPDEST SWAP1 POP PUSH2 0x769 DUP3 PUSH1 0x40 ADD MLOAD DUP3 PUSH2 0x1621 SWAP1 SWAP2 SWAP1 PUSH4 0xFFFFFFFF AND JUMP JUMPDEST SWAP1 POP DUP1 SWAP5 POP POP POP POP POP SWAP3 POP SWAP3 POP SWAP3 JUMP JUMPDEST PUSH1 0x1 SLOAD PUSH1 0x1 PUSH1 0x1 PUSH1 0xA0 SHL SUB AND DUP2 JUMP JUMPDEST PUSH1 0x0 SLOAD PUSH5 0x100000000 SWAP1 DIV PUSH1 0x1 PUSH1 0x1 PUSH1 0xA0 SHL SUB AND DUP2 JUMP JUMPDEST PUSH1 0x0 PUSH1 0x2 PUSH1 0xA SLOAD EQ ISZERO PUSH2 0x7C4 JUMPI PUSH1 0x40 MLOAD PUSH3 0x461BCD PUSH1 0xE5 SHL DUP2 MSTORE PUSH1 0x4 ADD PUSH2 0x23D SWAP1 PUSH2 0x5422 JUMP JUMPDEST PUSH1 0x2 PUSH1 0xA SSTORE PUSH2 0x7D2 DUP10 PUSH2 0x167B JUMP JUMPDEST PUSH1 0x0 PUSH2 0x7DD DUP10 PUSH2 0xB96 JUMP JUMPDEST SWAP1 POP PUSH2 0x7EB DUP2 DUP12 PUSH1 0x4 PUSH2 0xBC5 JUMP JUMPDEST PUSH2 0x7F6 DUP2 PUSH1 0x80 PUSH2 0xC2F JUMP JUMPDEST ISZERO PUSH2 0x801 JUMPI PUSH1 0x1 PUSH1 0xA SSTORE JUMPDEST PUSH2 0x80C DUP2 PUSH1 0x1 PUSH2 0xC2F JUMP JUMPDEST PUSH2 0x828 JUMPI PUSH1 0x40 MLOAD PUSH3 0x461BCD PUSH1 0xE5 SHL DUP2 MSTORE PUSH1 0x4 ADD PUSH2 0x23D SWAP1 PUSH2 0x54E7 JUMP JUMPDEST DUP7 TIMESTAMP LT PUSH2 0x847 JUMPI PUSH1 0x40 MLOAD PUSH3 0x461BCD PUSH1 0xE5 SHL DUP2 MSTORE PUSH1 0x4 ADD PUSH2 0x23D SWAP1 PUSH2 0x54E7 JUMP JUMPDEST PUSH1 0x0 PUSH2 0x853 DUP12 DUP12 PUSH2 0xC44 JUMP JUMPDEST SWAP1 POP PUSH1 0x0 DUP2 PUSH1 0x20 ADD MLOAD PUSH1 0x0 EQ ISZERO DUP1 ISZERO PUSH2 0x870 JUMPI POP TIMESTAMP DUP3 PUSH1 0x20 ADD MLOAD GT ISZERO JUMPDEST ISZERO PUSH2 0x883 JUMPI PUSH2 0x880 DUP3 DUP5 TIMESTAMP PUSH2 0x1230 JUMP JUMPDEST SWAP1 POP JUMPDEST PUSH1 0x0 PUSH2 0x890 DUP5 DUP15 DUP14 PUSH2 0x16CA JUMP JUMPDEST SWAP1 POP PUSH2 0x8A3 DUP4 DUP6 DUP13 DUP13 DUP13 DUP13 DUP13 DUP10 DUP10 PUSH2 0xFD4 JUMP JUMPDEST SWAP5 POP DUP10 DUP14 PUSH1 0x1 PUSH1 0x1 PUSH1 0xA0 SHL SUB AND DUP14 PUSH1 0x1 PUSH1 0x1 PUSH1 0xA0 SHL SUB AND PUSH32 0x7E1A5E400898C4BB3CFC62F61A71F4369EC78F0E778A31286892B7D2C0D044F2 DUP13 PUSH1 0x40 MLOAD PUSH2 0x3BF SWAP2 SWAP1 PUSH2 0x515F JUMP JUMPDEST PUSH1 0x0 PUSH1 0x2 PUSH1 0xA SLOAD EQ ISZERO PUSH2 0x90E JUMPI PUSH1 0x40 MLOAD PUSH3 0x461BCD PUSH1 0xE5 SHL DUP2 MSTORE PUSH1 0x4 ADD PUSH2 0x23D SWAP1 PUSH2 0x5422 JUMP JUMPDEST PUSH1 0x2 PUSH1 0xA SSTORE PUSH1 0x0 PUSH2 0x920 DUP10 DUP10 DUP10 PUSH2 0x17A3 JUMP JUMPDEST SWAP1 POP PUSH1 0x0 PUSH2 0x92E DUP11 DUP11 PUSH2 0xC44 JUMP JUMPDEST SWAP1 POP PUSH1 0x0 PUSH2 0x940 DUP11 DUP4 PUSH1 0x20 ADD MLOAD PUSH2 0xCC2 JUMP JUMPDEST SWAP1 POP DUP2 PUSH1 0x20 ADD MLOAD TIMESTAMP LT PUSH2 0x952 JUMPI PUSH1 0x0 DUP1 REVERT JUMPDEST PUSH1 0x0 DUP1 PUSH2 0x976 DUP4 DUP15 DUP7 PUSH1 0x40 ADD MLOAD DUP8 PUSH1 0x0 ADD MLOAD DUP10 PUSH2 0x109B SWAP1 SWAP5 SWAP4 SWAP3 SWAP2 SWAP1 PUSH4 0xFFFFFFFF AND JUMP JUMPDEST SWAP2 POP SWAP2 POP DUP5 PUSH1 0xA0 ADD MLOAD DUP3 SLT PUSH2 0x99D JUMPI PUSH1 0x40 MLOAD PUSH3 0x461BCD PUSH1 0xE5 SHL DUP2 MSTORE PUSH1 0x4 ADD PUSH2 0x23D SWAP1 PUSH2 0x5532 JUMP JUMPDEST PUSH1 0x0 PUSH2 0x9B0 DUP7 PUSH1 0x40 ADD MLOAD PUSH2 0xFFFF AND PUSH2 0x1878 JUMP JUMPDEST SWAP1 POP PUSH2 0x9C0 DUP13 DUP3 DUP8 DUP10 DUP16 DUP8 PUSH2 0x188B JUMP JUMPDEST PUSH1 0x0 PUSH2 0xA07 PUSH4 0x3B9ACA00 PUSH2 0xA01 PUSH2 0x9D6 DUP7 PUSH2 0x1974 JUMP JUMPDEST PUSH2 0xA01 DUP11 PUSH1 0x40 ADD MLOAD PUSH2 0x9FB PUSH2 0x9EE DUP15 PUSH1 0xC0 ADD MLOAD PUSH2 0x1974 JUMP JUMPDEST PUSH2 0x9FB DUP15 PUSH1 0x80 ADD MLOAD PUSH2 0x1974 JUMP JUMPDEST SWAP1 PUSH2 0x1983 JUMP JUMPDEST SWAP1 PUSH2 0x19AA JUMP JUMPDEST PUSH1 0x40 DUP8 ADD MLOAD SWAP1 SWAP2 POP PUSH2 0xA19 SWAP1 DUP3 PUSH2 0x19C9 JUMP JUMPDEST PUSH1 0x40 DUP8 ADD MSTORE PUSH1 0x80 DUP7 ADD MLOAD PUSH2 0x160 DUP9 ADD MLOAD PUSH1 0x0 SWAP2 PUSH2 0xA36 SWAP2 SWAP1 PUSH2 0x19DE JUMP JUMPDEST SWAP1 POP PUSH2 0xA55 DUP9 DUP8 DUP4 PUSH2 0xA4B DUP12 PUSH1 0x80 ADD MLOAD PUSH2 0xDBC JUMP JUMPDEST DUP12 SWAP4 SWAP3 SWAP2 SWAP1 PUSH2 0x1A11 JUMP JUMPDEST DUP7 MLOAD PUSH1 0x0 SLT ISZERO PUSH2 0xA64 JUMPI PUSH1 0x0 DUP8 MSTORE JUMPDEST DUP16 PUSH1 0x1 PUSH1 0x1 PUSH1 0xA0 SHL SUB AND DUP16 PUSH1 0x1 PUSH1 0x1 PUSH1 0xA0 SHL SUB AND PUSH32 0x5B4676A4ED91C52FD6C4A759AEC8A3561B67499C52870FC58000A8EB54FEC301 DUP5 DUP5 PUSH1 0x40 MLOAD PUSH2 0xAA9 SWAP3 SWAP2 SWAP1 PUSH2 0x5168 JUMP JUMPDEST PUSH1 0x40 MLOAD DUP1 SWAP2 SUB SWAP1 LOG3 POP PUSH2 0xABC DUP7 DUP9 PUSH2 0x1488 JUMP JUMPDEST DUP13 PUSH1 0x1 PUSH1 0x1 PUSH1 0xA0 SHL SUB AND DUP16 PUSH1 0x1 PUSH1 0x1 PUSH1 0xA0 SHL SUB AND DUP16 PUSH1 0x1 PUSH1 0x1 PUSH1 0xA0 SHL SUB AND PUSH32 0x1745A2FE0D7C484EA79432A82F950EAC6916ADC499A0223D2EBDADCDB210F2A DUP5 DUP16 PUSH1 0x40 MLOAD PUSH2 0xB0B SWAP3 SWAP2 SWAP1 PUSH2 0x5606 JUMP JUMPDEST PUSH1 0x40 MLOAD DUP1 SWAP2 SUB SWAP1 LOG4 DUP11 ISZERO PUSH2 0xB44 JUMPI DUP7 MLOAD PUSH2 0xB26 SWAP1 DUP7 SWAP1 PUSH2 0xE60 JUMP JUMPDEST PUSH2 0xB36 DUP14 DUP9 DUP4 DUP10 PUSH1 0x20 ADD MLOAD PUSH2 0x1A7F JUMP JUMPDEST SWAP8 POP POP POP POP POP POP POP POP PUSH2 0xB53 JUMP JUMPDEST PUSH2 0xB36 DUP14 DUP9 DUP8 DUP5 DUP15 DUP15 DUP9 PUSH2 0x1AF3 JUMP JUMPDEST PUSH1 0x1 PUSH1 0xA SSTORE SWAP8 SWAP7 POP POP POP POP POP POP POP JUMP JUMPDEST PUSH2 0xB6B PUSH2 0x4B96 JUMP JUMPDEST PUSH2 0xB75 DUP4 DUP4 PUSH2 0xC44 JUMP JUMPDEST SWAP1 POP JUMPDEST SWAP3 SWAP2 POP POP JUMP JUMPDEST PUSH20 0x0 SWAP1 JUMP JUMPDEST PUSH2 0xB9E PUSH2 0x4BCE JUMP JUMPDEST PUSH2 0xBA7 DUP3 PUSH2 0x1BC9 JUMP JUMPDEST SWAP1 POP PUSH2 0xBBA DUP2 PUSH1 0x40 ADD MLOAD PUSH2 0xFFFF AND PUSH2 0x1D47 JUMP JUMPDEST PUSH2 0x160 DUP3 ADD MSTORE SWAP2 SWAP1 POP JUMP JUMPDEST PUSH2 0xBCF DUP4 DUP3 PUSH2 0xC2F JUMP JUMPDEST ISZERO PUSH2 0xC02 JUMPI DUP3 MLOAD PUSH1 0x1 PUSH1 0x1 PUSH1 0xA0 SHL SUB AND CALLER EQ PUSH2 0xBFD JUMPI PUSH1 0x40 MLOAD PUSH3 0x461BCD PUSH1 0xE5 SHL DUP2 MSTORE PUSH1 0x4 ADD PUSH2 0x23D SWAP1 PUSH2 0x51A7 JUMP JUMPDEST PUSH2 0xC2A JUMP JUMPDEST PUSH1 0x1 PUSH1 0x1 PUSH1 0xA0 SHL SUB DUP3 AND CALLER EQ PUSH2 0xC2A JUMPI PUSH1 0x40 MLOAD PUSH3 0x461BCD PUSH1 0xE5 SHL DUP2 MSTORE PUSH1 0x4 ADD PUSH2 0x23D SWAP1 PUSH2 0x51A7 JUMP JUMPDEST POP POP POP JUMP JUMPDEST PUSH1 0x20 SWAP2 SWAP1 SWAP2 ADD MLOAD DUP2 AND PUSH2 0xFFFF SWAP1 DUP2 AND SWAP2 AND EQ SWAP1 JUMP JUMPDEST PUSH2 0xC4C PUSH2 0x4B96 JUMP JUMPDEST PUSH1 0x0 PUSH2 0xC56 PUSH2 0x1D93 JUMP JUMPDEST PUSH1 0x1 PUSH1 0x1 PUSH1 0xA0 SHL SUB SWAP5 DUP6 AND PUSH1 0x0 DUP2 DUP2 MSTORE PUSH1 0x20 SWAP3 DUP4 MSTORE PUSH1 0x40 DUP1 DUP3 KECCAK256 SWAP7 SWAP1 SWAP8 AND DUP2 MSTORE SWAP5 DUP3 MSTORE DUP6 DUP6 KECCAK256 SLOAD PUSH1 0x1 PUSH1 0x1 PUSH1 0x50 SHL SUB DUP1 DUP3 AND DUP8 SUB DUP7 MSTORE PUSH4 0xFFFFFFFF PUSH1 0x1 PUSH1 0xA0 SHL DUP4 DIV AND SWAP4 DUP7 ADD SWAP4 SWAP1 SWAP4 MSTORE PUSH1 0x1 PUSH1 0x50 SHL SWAP1 DIV SWAP1 SWAP2 AND SWAP5 DUP4 ADD SWAP5 SWAP1 SWAP5 MSTORE POP PUSH1 0x60 DUP2 ADD SWAP3 SWAP1 SWAP3 MSTORE PUSH1 0x80 DUP3 ADD MSTORE SWAP1 JUMP JUMPDEST PUSH2 0xCCA PUSH2 0x4C4B JUMP JUMPDEST PUSH1 0x0 PUSH2 0xCD4 PUSH2 0x1DA0 JUMP JUMPDEST PUSH1 0x1 PUSH1 0x1 PUSH1 0xA0 SHL SUB SWAP1 SWAP5 AND PUSH1 0x0 SWAP1 DUP2 MSTORE PUSH1 0x20 SWAP5 DUP6 MSTORE PUSH1 0x40 DUP1 DUP3 KECCAK256 DUP6 DUP4 MSTORE DUP7 MSTORE DUP1 DUP3 KECCAK256 SWAP5 DUP5 MSTORE DUP5 SLOAD PUSH1 0x1 PUSH1 0x1 PUSH1 0x50 SHL SUB DUP1 DUP3 AND SWAP1 SWAP4 SUB SWAP7 DUP6 ADD SWAP7 SWAP1 SWAP7 MSTORE PUSH1 0xFF PUSH1 0x1 PUSH1 0xF0 SHL DUP8 DIV AND ISZERO ISZERO SWAP1 DUP5 ADD MSTORE PUSH1 0x1 PUSH1 0x50 SHL DUP1 DUP7 DIV DUP3 AND PUSH1 0x80 DUP6 ADD MSTORE PUSH1 0x1 SWAP1 SWAP5 ADD SLOAD DUP1 DUP3 AND PUSH1 0xA0 DUP6 ADD MSTORE PUSH1 0x1 PUSH1 0xA0 SHL SWAP1 SWAP6 DIV AND PUSH1 0x60 DUP4 ADD MSTORE POP SWAP2 DIV PUSH1 0x9 SWAP1 DUP2 SIGNEXTEND SWAP1 SIGNEXTEND PUSH1 0xC0 DUP3 ADD MSTORE SWAP1 JUMP JUMPDEST DUP3 MLOAD PUSH1 0x20 DUP4 ADD MLOAD PUSH1 0x0 SWAP2 EQ PUSH2 0xD71 JUMPI PUSH1 0x0 DUP1 REVERT JUMPDEST PUSH1 0x40 DUP4 ADD MLOAD PUSH2 0xD80 SWAP1 DUP4 PUSH2 0x19C9 JUMP JUMPDEST PUSH1 0x40 DUP5 ADD MSTORE PUSH1 0x0 PUSH2 0xD91 DUP6 DUP5 PUSH2 0x1DAD JUMP JUMPDEST SWAP3 POP SWAP1 POP PUSH2 0xDAC PUSH2 0xDA1 DUP3 PUSH2 0x1426 JUMP JUMPDEST PUSH1 0x80 DUP7 ADD MLOAD SWAP1 PUSH2 0x1E04 JUMP JUMPDEST PUSH1 0x80 SWAP1 SWAP5 ADD SWAP4 SWAP1 SWAP4 MSTORE SWAP4 SWAP3 POP POP POP JUMP JUMPDEST PUSH1 0x0 PUSH2 0xDCA PUSH1 0x0 NOT DUP4 PUSH2 0x1E1A JUMP JUMPDEST SWAP1 POP JUMPDEST SWAP2 SWAP1 POP JUMP JUMPDEST DUP6 MLOAD PUSH1 0x0 SWAP1 PUSH2 0xDE1 SWAP1 DUP6 PUSH2 0x1E04 JUMP JUMPDEST SGT ISZERO PUSH2 0xDEC JUMPI PUSH1 0x0 DUP1 REVERT JUMPDEST DUP6 PUSH1 0x20 ADD MLOAD DUP2 LT PUSH2 0xDFC JUMPI PUSH1 0x0 DUP1 REVERT JUMPDEST PUSH1 0x0 PUSH2 0xE19 DUP7 PUSH1 0x40 ADD MLOAD DUP9 PUSH1 0x20 ADD MLOAD DUP7 DUP7 DUP11 PUSH2 0x100 ADD MLOAD DUP8 PUSH2 0x1E68 JUMP JUMPDEST SWAP1 POP DUP1 PUSH2 0xE3C JUMPI PUSH2 0x160 DUP7 ADD MLOAD PUSH2 0xE39 SWAP1 PUSH2 0xE34 SWAP1 DUP7 PUSH2 0x1F77 JUMP JUMPDEST PUSH2 0xDBC JUMP JUMPDEST SWAP1 POP JUMPDEST PUSH1 0x0 DUP2 SGT ISZERO PUSH2 0xE4A JUMPI PUSH1 0x0 DUP1 REVERT JUMPDEST PUSH2 0xE57 DUP8 DUP8 DUP8 DUP8 DUP6 PUSH2 0x1A11 JUMP JUMPDEST POP POP POP POP POP POP POP JUMP JUMPDEST PUSH1 0x0 PUSH2 0xE6A PUSH2 0x1DA0 JUMP JUMPDEST PUSH1 0x1 PUSH1 0x1 PUSH1 0xA0 SHL SUB DUP4 AND PUSH1 0x0 SWAP1 DUP2 MSTORE PUSH1 0x20 DUP3 DUP2 MSTORE PUSH1 0x40 DUP1 DUP4 KECCAK256 DUP8 MLOAD DUP5 MSTORE SWAP1 SWAP2 MSTORE SWAP1 DUP2 SWAP1 KECCAK256 SWAP1 DUP6 ADD MLOAD SWAP2 SWAP3 POP SWAP1 ISZERO PUSH2 0xEA0 JUMPI PUSH1 0x0 DUP1 REVERT JUMPDEST PUSH2 0xEBD PUSH2 0xEB8 PUSH2 0xEB3 DUP7 PUSH1 0x20 ADD MLOAD PUSH2 0xDBC JUMP JUMPDEST PUSH2 0x1974 JUMP JUMPDEST PUSH2 0x1FA2 JUMP JUMPDEST DUP2 SLOAD PUSH1 0x1 PUSH1 0x1 PUSH1 0x50 SHL SUB NOT AND PUSH1 0x1 PUSH1 0x1 PUSH1 0x50 SHL SUB SWAP2 SWAP1 SWAP2 AND OR DUP2 SSTORE PUSH1 0x80 DUP5 ADD MLOAD PUSH2 0xEE6 SWAP1 PUSH2 0x1FA2 JUMP JUMPDEST DUP2 SLOAD PUSH1 0x1 PUSH1 0x1 PUSH1 0x50 SHL SUB SWAP2 SWAP1 SWAP2 AND PUSH1 0x1 PUSH1 0x50 SHL MUL PUSH1 0x1 PUSH1 0x50 SHL PUSH1 0x1 PUSH1 0xA0 SHL SUB NOT SWAP1 SWAP2 AND OR DUP2 SSTORE PUSH1 0xA0 DUP5 ADD MLOAD PUSH2 0xF1A SWAP1 PUSH2 0x1FA2 JUMP JUMPDEST PUSH1 0x1 DUP3 ADD DUP1 SLOAD PUSH1 0x1 PUSH1 0x1 PUSH1 0x50 SHL SUB NOT AND PUSH1 0x1 PUSH1 0x1 PUSH1 0x50 SHL SUB SWAP3 SWAP1 SWAP3 AND SWAP2 SWAP1 SWAP2 OR SWAP1 SSTORE PUSH1 0x60 DUP5 ADD MLOAD PUSH2 0xF4A SWAP1 PUSH2 0x1FA2 JUMP JUMPDEST DUP2 SLOAD PUSH1 0x1 PUSH1 0x1 PUSH1 0x50 SHL SUB SWAP2 SWAP1 SWAP2 AND PUSH1 0x1 PUSH1 0xA0 SHL MUL PUSH10 0xFFFFFFFFFFFFFFFFFFFF PUSH1 0xA0 SHL NOT SWAP1 SWAP2 AND OR DUP2 SSTORE DUP4 MLOAD PUSH1 0x20 DUP6 ADD MLOAD PUSH1 0x80 DUP7 ADD MLOAD PUSH1 0xA0 DUP8 ADD MLOAD PUSH1 0x60 DUP9 ADD MLOAD PUSH1 0x40 MLOAD PUSH1 0x1 PUSH1 0x1 PUSH1 0xA0 SHL SUB DUP10 AND SWAP5 PUSH32 0x3A0FDAECF7B5DA75A56077F5B1C8FBC88F9B08E9D0C4DB31EB34E25BC6700CDE SWAP5 PUSH2 0xFC6 SWAP5 SWAP2 SWAP4 SWAP1 SWAP3 PUSH2 0x518C JUMP JUMPDEST PUSH1 0x40 MLOAD DUP1 SWAP2 SUB SWAP1 LOG3 POP POP POP POP JUMP JUMPDEST PUSH1 0x0 DUP8 DUP11 PUSH1 0x20 ADD MLOAD EQ DUP1 PUSH2 0xFE7 JUMPI POP DUP10 MLOAD ISZERO JUMPDEST PUSH2 0xFF0 JUMPI PUSH1 0x0 DUP1 REVERT JUMPDEST PUSH1 0x0 PUSH2 0x1000 DUP11 PUSH1 0x0 ADD MLOAD DUP11 PUSH2 0xCC2 JUMP JUMPDEST SWAP1 POP DUP8 ISZERO PUSH2 0x1026 JUMPI PUSH2 0x1021 DUP12 DUP12 DUP4 DUP13 PUSH2 0x101B PUSH2 0xE34 DUP15 PUSH2 0x1426 JUMP JUMPDEST DUP13 PUSH2 0x1FB8 JUMP JUMPDEST PUSH2 0x103D JUMP JUMPDEST PUSH2 0x103B DUP11 PUSH1 0x40 ADD MLOAD DUP11 DUP13 PUSH2 0x100 ADD MLOAD TIMESTAMP PUSH2 0x2048 JUMP JUMPDEST POP JUMPDEST PUSH2 0x104C DUP2 DUP13 DUP13 DUP8 DUP8 DUP12 DUP12 PUSH2 0x20B7 JUMP JUMPDEST SWAP2 POP PUSH2 0x1058 DUP12 DUP12 PUSH2 0x1488 JUMP JUMPDEST DUP8 ISZERO PUSH2 0x1069 JUMPI PUSH2 0x1069 DUP11 DUP3 DUP14 PUSH2 0x1440 JUMP JUMPDEST POP SWAP10 SWAP9 POP POP POP POP POP POP POP POP POP JUMP JUMPDEST PUSH2 0x107F PUSH2 0x4BCE JUMP JUMPDEST PUSH2 0x1088 DUP3 PUSH2 0x1BC9 JUMP JUMPDEST SWAP1 POP PUSH2 0xBBA DUP2 PUSH1 0x40 ADD MLOAD PUSH2 0xFFFF AND PUSH2 0x21EE JUMP JUMPDEST PUSH1 0x0 DUP1 PUSH2 0x10AA DUP7 DUP9 DUP8 DUP8 PUSH2 0x2204 JUMP JUMPDEST SWAP1 POP PUSH1 0x0 PUSH2 0x10BD DUP9 DUP8 DUP10 PUSH1 0x0 ADD MLOAD PUSH2 0x2269 JUMP JUMPDEST SWAP1 POP PUSH1 0x0 PUSH2 0x10E3 PUSH2 0x10D7 DUP4 PUSH2 0x10D1 DUP9 PUSH2 0xDBC JUMP JUMPDEST SWAP1 PUSH2 0x1E04 JUMP JUMPDEST PUSH2 0x160 DUP12 ADD MLOAD SWAP1 PUSH2 0x1F77 JUMP JUMPDEST SWAP1 POP PUSH1 0x0 PUSH2 0x10F1 DUP5 DUP4 PUSH2 0x2351 JUMP JUMPDEST SWAP1 POP DUP2 PUSH2 0x1107 JUMPI PUSH1 0x1 PUSH1 0x1 PUSH1 0xFF SHL SUB SWAP5 POP PUSH2 0x1114 JUMP JUMPDEST PUSH2 0x1111 DUP2 DUP4 PUSH2 0x2367 JUMP JUMPDEST SWAP5 POP JUMPDEST POP POP POP SWAP6 POP SWAP6 SWAP4 POP POP POP POP JUMP JUMPDEST PUSH1 0x0 DUP1 PUSH1 0x0 PUSH2 0x1142 PUSH4 0x3B9ACA00 DUP7 PUSH2 0x120 ADD MLOAD PUSH2 0x1E04 SWAP1 SWAP2 SWAP1 PUSH4 0xFFFFFFFF AND JUMP JUMPDEST SWAP1 POP PUSH1 0x0 PUSH2 0x1162 PUSH2 0x1156 DUP9 PUSH1 0x0 ADD MLOAD PUSH2 0xDBC JUMP JUMPDEST PUSH2 0x160 DUP9 ADD MLOAD SWAP1 PUSH2 0x1F77 JUMP JUMPDEST SWAP1 POP PUSH2 0x1198 PUSH2 0x117E DUP8 PUSH1 0xC0 ADD MLOAD DUP5 PUSH2 0x2351 SWAP1 SWAP2 SWAP1 PUSH4 0xFFFFFFFF AND JUMP JUMPDEST PUSH2 0x1192 DUP8 PUSH2 0x118C DUP6 DUP8 PUSH2 0x2380 JUMP JUMPDEST SWAP1 PUSH2 0x2351 JUMP JUMPDEST SWAP1 PUSH2 0x2367 JUMP JUMPDEST SWAP4 POP PUSH1 0x0 PUSH2 0x11A6 DUP3 DUP7 PUSH2 0x2351 JUMP JUMPDEST SWAP1 POP PUSH1 0x0 PUSH2 0x11C6 DUP9 PUSH1 0x60 ADD MLOAD DUP10 PUSH2 0x160 ADD MLOAD PUSH2 0x1F77 SWAP1 SWAP2 SWAP1 PUSH4 0xFFFFFFFF AND JUMP JUMPDEST SWAP1 POP PUSH2 0x11D2 DUP4 DUP3 PUSH2 0x2351 JUMP JUMPDEST SWAP5 POP DUP1 DUP3 SLT ISZERO PUSH2 0x11E0 JUMPI DUP3 SWAP6 POP JUMPDEST PUSH1 0x0 PUSH2 0x1203 DUP9 PUSH2 0x11FD DUP12 PUSH1 0xC0 ADD MLOAD DUP11 PUSH2 0x1E1A SWAP1 SWAP2 SWAP1 PUSH4 0xFFFFFFFF AND JUMP JUMPDEST SWAP1 PUSH2 0x2395 JUMP JUMPDEST SWAP1 POP PUSH4 0x3B9ACA00 DUP2 SLT PUSH2 0x1223 JUMPI PUSH1 0xC0 DUP10 ADD MLOAD PUSH2 0x1220 SWAP1 DUP10 SWAP1 PUSH2 0x2367 JUMP JUMPDEST SWAP7 POP JUMPDEST POP POP POP POP POP SWAP4 POP SWAP4 SWAP2 POP POP JUMP JUMPDEST PUSH1 0x0 DUP1 PUSH2 0x1245 DUP5 PUSH1 0x0 ADD MLOAD DUP7 PUSH1 0x20 ADD MLOAD PUSH2 0xCC2 JUMP JUMPDEST SWAP1 POP DUP1 PUSH1 0x40 ADD MLOAD PUSH2 0x1268 JUMPI PUSH1 0x40 MLOAD PUSH3 0x461BCD PUSH1 0xE5 SHL DUP2 MSTORE PUSH1 0x4 ADD PUSH2 0x23D SWAP1 PUSH2 0x5310 JUMP JUMPDEST PUSH1 0x0 PUSH2 0x1281 DUP6 PUSH1 0x40 ADD MLOAD PUSH2 0xFFFF AND DUP8 PUSH1 0x20 ADD MLOAD DUP7 PUSH2 0x23C6 JUMP JUMPDEST SWAP1 POP PUSH1 0x0 PUSH2 0x12A8 PUSH4 0x5F5E100 PUSH2 0x11FD DUP6 PUSH1 0xC0 ADD MLOAD PUSH2 0x12A2 DUP8 PUSH1 0xA0 ADD MLOAD PUSH2 0x1426 JUMP JUMPDEST SWAP1 PUSH2 0x1E1A JUMP JUMPDEST SWAP1 POP PUSH1 0x0 PUSH2 0x12B9 DUP9 DUP6 DUP10 DUP7 DUP7 PUSH2 0x2536 JUMP JUMPDEST SWAP1 POP PUSH1 0x0 PUSH2 0x12CA DUP9 DUP7 DUP7 DUP6 DUP8 PUSH2 0x26E3 JUMP JUMPDEST PUSH1 0x0 DUP12 MSTORE PUSH1 0x80 DUP12 ADD MLOAD SWAP1 SWAP8 POP SWAP1 SWAP2 POP PUSH2 0x12E3 SWAP1 DUP3 PUSH2 0x1E04 JUMP JUMPDEST PUSH1 0x80 DUP11 ADD MSTORE POP POP PUSH1 0x0 PUSH1 0x40 DUP9 ADD DUP2 SWAP1 MSTORE PUSH1 0x20 SWAP1 SWAP8 ADD SWAP7 SWAP1 SWAP7 MSTORE POP SWAP1 SWAP5 SWAP4 POP POP POP POP JUMP JUMPDEST PUSH1 0x0 DUP2 PUSH2 0x1315 JUMPI POP PUSH1 0x0 PUSH2 0x13A8 JUMP JUMPDEST PUSH1 0x0 DUP3 SGT PUSH2 0x1322 JUMPI PUSH1 0x0 DUP1 REVERT JUMPDEST PUSH1 0x0 PUSH2 0x1331 DUP5 PUSH2 0xFFFF AND PUSH2 0x1878 JUMP JUMPDEST SWAP1 POP PUSH1 0x0 PUSH2 0x133F DUP3 DUP6 PUSH2 0x291B JUMP JUMPDEST SWAP1 POP PUSH1 0x4 DUP3 PUSH1 0x60 ADD MLOAD PUSH1 0x5 DUP2 GT ISZERO PUSH2 0x1353 JUMPI INVALID JUMPDEST EQ ISZERO PUSH2 0x1381 JUMPI PUSH2 0x137A PUSH2 0xEB3 PUSH2 0xE34 DUP9 DUP9 PUSH2 0xFFFF AND PUSH2 0x1371 DUP7 PUSH2 0xDBC JUMP JUMPDEST DUP8 SWAP3 SWAP2 SWAP1 PUSH2 0x2953 JUMP JUMPDEST SWAP3 POP PUSH2 0x13A5 JUMP JUMPDEST PUSH2 0x13A2 PUSH2 0xEB3 PUSH2 0xE34 DUP8 PUSH2 0xFFFF AND DUP10 PUSH2 0x1399 DUP7 PUSH2 0x1974 JUMP JUMPDEST DUP8 SWAP3 SWAP2 SWAP1 PUSH2 0x29FB JUMP JUMPDEST SWAP3 POP JUMPDEST POP POP JUMPDEST SWAP4 SWAP3 POP POP POP JUMP JUMPDEST PUSH1 0x0 DUP1 DUP8 PUSH1 0x80 ADD MLOAD SGT ISZERO PUSH2 0x13C2 JUMPI PUSH1 0x0 DUP1 REVERT JUMPDEST PUSH2 0x140E DUP9 PUSH1 0x40 MLOAD DUP1 PUSH1 0xA0 ADD PUSH1 0x40 MSTORE DUP1 DUP11 PUSH1 0x60 ADD MLOAD PUSH1 0x1 PUSH1 0x1 PUSH1 0xA0 SHL SUB AND DUP2 MSTORE PUSH1 0x20 ADD DUP10 PUSH1 0x1 PUSH1 0x1 PUSH1 0xA0 SHL SUB AND DUP2 MSTORE PUSH1 0x20 ADD DUP9 DUP2 MSTORE PUSH1 0x20 ADD DUP8 DUP2 MSTORE PUSH1 0x20 ADD DUP11 PUSH1 0x80 ADD MLOAD DUP2 MSTORE POP DUP6 DUP6 PUSH2 0x2A9B JUMP JUMPDEST PUSH1 0x0 PUSH1 0x80 SWAP1 SWAP10 ADD SWAP9 SWAP1 SWAP9 MSTORE POP SWAP6 SWAP8 SWAP7 POP POP POP POP POP POP POP JUMP JUMPDEST PUSH1 0x0 PUSH1 0x1 PUSH1 0x1 PUSH1 0xFF SHL SUB DUP3 GT ISZERO PUSH2 0x143C JUMPI PUSH1 0x0 DUP1 REVERT JUMPDEST POP SWAP1 JUMP JUMPDEST PUSH1 0x0 PUSH2 0x145B DUP5 DUP5 DUP5 PUSH1 0x60 ADD MLOAD DUP6 PUSH1 0x40 ADD MLOAD DUP7 PUSH1 0x0 ADD MLOAD PUSH2 0x109B JUMP JUMPDEST POP SWAP1 POP DUP1 DUP5 PUSH1 0xA0 ADD MLOAD SGT ISZERO PUSH2 0x1482 JUMPI PUSH1 0x40 MLOAD PUSH3 0x461BCD PUSH1 0xE5 SHL DUP2 MSTORE PUSH1 0x4 ADD PUSH2 0x23D SWAP1 PUSH2 0x538E JUMP JUMPDEST POP POP POP POP JUMP JUMPDEST PUSH1 0x0 PUSH2 0x1492 PUSH2 0x1D93 JUMP JUMPDEST PUSH1 0x60 DUP5 ADD MLOAD PUSH1 0x1 PUSH1 0x1 PUSH1 0xA0 SHL SUB SWAP1 DUP2 AND PUSH1 0x0 SWAP1 DUP2 MSTORE PUSH1 0x20 DUP4 DUP2 MSTORE PUSH1 0x40 DUP1 DUP4 KECCAK256 DUP8 MLOAD SWAP1 SWAP5 AND DUP4 MSTORE SWAP3 SWAP1 MSTORE KECCAK256 PUSH1 0x80 DUP6 ADD MLOAD SWAP2 SWAP3 POP SWAP1 ISZERO PUSH2 0x14CF JUMPI PUSH1 0x0 DUP1 REVERT JUMPDEST PUSH1 0x60 DUP4 ADD MLOAD DUP5 MLOAD PUSH2 0x14DF SWAP1 PUSH2 0xDBC JUMP JUMPDEST SLT ISZERO PUSH2 0x1514 JUMPI DUP4 MLOAD ISZERO DUP1 PUSH2 0x14F8 JUMPI POP PUSH1 0x1 DUP5 PUSH1 0x40 ADD MLOAD GT ISZERO JUMPDEST PUSH2 0x1514 JUMPI PUSH1 0x40 MLOAD PUSH3 0x461BCD PUSH1 0xE5 SHL DUP2 MSTORE PUSH1 0x4 ADD PUSH2 0x23D SWAP1 PUSH2 0x5471 JUMP JUMPDEST PUSH2 0x151D DUP4 PUSH2 0x2D48 JUMP JUMPDEST ISZERO PUSH2 0x157F JUMPI PUSH1 0x0 PUSH2 0x152C PUSH2 0x1614 JUMP JUMPDEST PUSH1 0x60 DUP7 ADD MLOAD PUSH1 0x1 PUSH1 0x1 PUSH1 0xA0 SHL SUB SWAP1 DUP2 AND PUSH1 0x0 SWAP1 DUP2 MSTORE PUSH1 0x20 SWAP3 DUP4 MSTORE PUSH1 0x40 DUP1 DUP3 KECCAK256 DUP9 MLOAD SWAP1 SWAP4 AND DUP3 MSTORE SWAP2 DUP4 MSTORE KECCAK256 DUP1 SLOAD SWAP2 DUP8 ADD MLOAD SWAP1 SWAP3 POP PUSH4 0xFFFFFFFF SWAP1 SWAP2 AND SWAP1 DUP2 EQ DUP1 PUSH2 0x1573 JUMPI POP DUP1 ISZERO JUMPDEST PUSH2 0x157C JUMPI PUSH1 0x0 DUP1 REVERT JUMPDEST POP POP JUMPDEST PUSH2 0x1592 PUSH2 0xEB8 PUSH2 0xEB3 DUP7 PUSH1 0x0 ADD MLOAD PUSH2 0xDBC JUMP JUMPDEST DUP2 SLOAD PUSH1 0x1 PUSH1 0x1 PUSH1 0x50 SHL SUB NOT AND PUSH1 0x1 PUSH1 0x1 PUSH1 0x50 SHL SUB SWAP2 SWAP1 SWAP2 AND OR DUP2 SSTORE PUSH1 0x40 DUP5 ADD MLOAD PUSH2 0x15BB SWAP1 PUSH2 0x1FA2 JUMP JUMPDEST DUP2 SLOAD PUSH1 0x1 PUSH1 0x1 PUSH1 0x50 SHL SUB SWAP2 SWAP1 SWAP2 AND PUSH1 0x1 PUSH1 0x50 SHL MUL PUSH1 0x1 PUSH1 0x50 SHL PUSH1 0x1 PUSH1 0xA0 SHL SUB NOT SWAP1 SWAP2 AND OR DUP2 SSTORE PUSH1 0x20 DUP5 ADD MLOAD PUSH2 0x15EF SWAP1 PUSH2 0x2D71 JUMP JUMPDEST DUP2 SLOAD PUSH4 0xFFFFFFFF SWAP2 SWAP1 SWAP2 AND PUSH1 0x1 PUSH1 0xA0 SHL MUL PUSH4 0xFFFFFFFF PUSH1 0xA0 SHL NOT SWAP1 SWAP2 AND OR SWAP1 SSTORE POP POP POP JUMP JUMPDEST PUSH1 0x0 DUP1 PUSH2 0xB78 PUSH1 0x1A PUSH2 0x2D84 JUMP JUMPDEST PUSH1 0x0 DUP1 PUSH1 0x0 DUP5 PUSH1 0x60 ADD MLOAD GT ISZERO PUSH2 0x1674 JUMPI PUSH2 0x1650 DUP5 PUSH1 0x60 ADD MLOAD PUSH2 0xA01 DUP7 PUSH1 0x80 ADD MLOAD DUP7 PUSH2 0x1983 SWAP1 SWAP2 SWAP1 PUSH4 0xFFFFFFFF AND JUMP JUMPDEST SWAP2 POP PUSH2 0x1671 DUP5 PUSH1 0x60 ADD MLOAD PUSH2 0xA01 DUP7 PUSH1 0xA0 ADD MLOAD DUP7 PUSH2 0x1983 SWAP1 SWAP2 SWAP1 PUSH4 0xFFFFFFFF AND JUMP JUMPDEST SWAP1 POP JUMPDEST SWAP3 POP SWAP3 SWAP1 POP JUMP JUMPDEST PUSH1 0x1 PUSH1 0x1 PUSH1 0xA0 SHL SUB DUP2 AND PUSH2 0x168E JUMPI PUSH1 0x0 DUP1 REVERT JUMPDEST PUSH1 0x1 PUSH1 0x1 PUSH1 0xA0 SHL SUB DUP2 AND ADDRESS EQ ISZERO PUSH2 0x16A4 JUMPI PUSH1 0x0 DUP1 REVERT JUMPDEST PUSH1 0x0 PUSH2 0x16AF DUP3 PUSH2 0x2D9D JUMP JUMPDEST POP POP POP POP PUSH2 0xFFFF AND SWAP1 POP DUP1 PUSH1 0x0 EQ PUSH2 0x16C6 JUMPI PUSH1 0x0 DUP1 REVERT JUMPDEST POP POP JUMP JUMPDEST PUSH1 0x0 DUP2 PUSH2 0x16D9 JUMPI POP PUSH1 0x0 PUSH2 0x13A8 JUMP JUMPDEST PUSH1 0x0 PUSH2 0x16EC DUP6 PUSH1 0x40 ADD MLOAD PUSH2 0xFFFF AND PUSH2 0x1878 JUMP JUMPDEST SWAP1 POP PUSH1 0x0 PUSH1 0x4 DUP3 PUSH1 0x60 ADD MLOAD PUSH1 0x5 DUP2 GT ISZERO PUSH2 0x1702 JUMPI INVALID JUMPDEST EQ PUSH2 0x171D JUMPI PUSH2 0x1718 DUP7 PUSH1 0x40 ADD MLOAD PUSH2 0xFFFF AND PUSH2 0x2E09 JUMP JUMPDEST PUSH2 0x171F JUMP JUMPDEST DUP2 JUMPDEST DUP7 MLOAD PUSH1 0x20 DUP3 ADD MLOAD SWAP2 SWAP3 POP SWAP1 ISZERO PUSH2 0x1734 JUMPI PUSH1 0x0 DUP1 REVERT JUMPDEST PUSH1 0x3 DUP3 PUSH1 0x60 ADD MLOAD PUSH1 0x5 DUP2 GT ISZERO PUSH2 0x1746 JUMPI INVALID JUMPDEST EQ ISZERO PUSH2 0x1780 JUMPI DUP5 CALLVALUE EQ PUSH2 0x176B JUMPI PUSH1 0x40 MLOAD PUSH3 0x461BCD PUSH1 0xE5 SHL DUP2 MSTORE PUSH1 0x4 ADD PUSH2 0x23D SWAP1 PUSH2 0x5495 JUMP JUMPDEST PUSH2 0x1775 DUP2 CALLVALUE PUSH2 0x2E1C JUMP JUMPDEST CALLVALUE SWAP4 POP POP POP POP PUSH2 0x13A8 JUMP JUMPDEST DUP2 MLOAD PUSH2 0x178E SWAP1 DUP8 DUP4 DUP9 PUSH2 0x2E52 JUMP JUMPDEST DUP5 SWAP4 POP POP POP POP PUSH2 0x13A8 JUMP JUMPDEST POP POP POP SWAP4 SWAP3 POP POP POP JUMP JUMPDEST PUSH2 0x17AB PUSH2 0x4BCE JUMP JUMPDEST PUSH2 0x17B4 DUP4 PUSH2 0xB96 JUMP JUMPDEST SWAP1 POP PUSH2 0x17C1 DUP2 PUSH1 0x80 PUSH2 0xC2F JUMP JUMPDEST ISZERO PUSH2 0x17CC JUMPI PUSH1 0x1 PUSH1 0xA SSTORE JUMPDEST PUSH2 0x17D7 DUP2 PUSH1 0x20 PUSH2 0xC2F JUMP JUMPDEST ISZERO PUSH2 0x1809 JUMPI CALLER PUSH1 0x1 PUSH1 0x1 PUSH1 0xA0 SHL SUB DUP5 AND EQ PUSH2 0x1804 JUMPI PUSH1 0x40 MLOAD PUSH3 0x461BCD PUSH1 0xE5 SHL DUP2 MSTORE PUSH1 0x4 ADD PUSH2 0x23D SWAP1 PUSH2 0x51A7 JUMP JUMPDEST PUSH2 0x1831 JUMP JUMPDEST CALLER PUSH1 0x1 PUSH1 0x1 PUSH1 0xA0 SHL SUB DUP4 AND EQ PUSH2 0x1831 JUMPI PUSH1 0x40 MLOAD PUSH3 0x461BCD PUSH1 0xE5 SHL DUP2 MSTORE PUSH1 0x4 ADD PUSH2 0x23D SWAP1 PUSH2 0x51A7 JUMP JUMPDEST PUSH1 0x1 PUSH1 0x1 PUSH1 0xA0 SHL SUB DUP5 AND CALLER EQ DUP1 ISZERO SWAP1 PUSH2 0x185C JUMPI POP DUP2 PUSH1 0x1 PUSH1 0x1 PUSH1 0xA0 SHL SUB AND DUP5 PUSH1 0x1 PUSH1 0x1 PUSH1 0xA0 SHL SUB AND EQ ISZERO JUMPDEST PUSH2 0x13A8 JUMPI PUSH1 0x40 MLOAD PUSH3 0x461BCD PUSH1 0xE5 SHL DUP2 MSTORE PUSH1 0x4 ADD PUSH2 0x23D SWAP1 PUSH2 0x51A7 JUMP JUMPDEST PUSH2 0x1880 PUSH2 0x4C8A JUMP JUMPDEST PUSH2 0xDCA DUP3 PUSH1 0x0 PUSH2 0x2EDA JUMP JUMPDEST PUSH1 0x0 PUSH2 0x1896 DUP4 PUSH2 0x1426 JUMP JUMPDEST SWAP1 POP PUSH1 0x5 DUP7 PUSH1 0x60 ADD MLOAD PUSH1 0x5 DUP2 GT ISZERO PUSH2 0x18AA JUMPI INVALID JUMPDEST EQ ISZERO PUSH2 0x18C5 JUMPI PUSH2 0x18C2 DUP5 PUSH1 0x40 ADD MLOAD PUSH2 0xFFFF AND DUP3 PUSH2 0x2F88 JUMP JUMPDEST SWAP1 POP JUMPDEST PUSH1 0x0 DUP1 PUSH2 0x18D3 DUP8 DUP8 DUP7 PUSH2 0x1121 JUMP JUMPDEST SWAP2 POP SWAP2 POP PUSH1 0x0 DUP3 SGT PUSH2 0x18E4 JUMPI PUSH1 0x0 DUP1 REVERT JUMPDEST PUSH1 0x0 PUSH2 0x18F0 DUP10 DUP5 PUSH2 0x291B JUMP JUMPDEST SWAP1 POP DUP1 DUP5 SLT ISZERO PUSH2 0x1927 JUMPI PUSH2 0x1904 DUP10 DUP4 PUSH2 0x291B JUMP JUMPDEST DUP5 SLT PUSH2 0x1922 JUMPI PUSH1 0x40 MLOAD PUSH3 0x461BCD PUSH1 0xE5 SHL DUP2 MSTORE PUSH1 0x4 ADD PUSH2 0x23D SWAP1 PUSH2 0x53C5 JUMP JUMPDEST PUSH2 0x192B JUMP JUMPDEST DUP1 SWAP4 POP JUMPDEST PUSH1 0x40 DUP8 ADD MLOAD PUSH1 0x0 SWAP1 PUSH2 0x1945 SWAP1 DUP12 SWAP1 DUP14 SWAP1 PUSH2 0xFFFF AND DUP9 PUSH2 0x2953 JUMP JUMPDEST SWAP1 POP PUSH2 0x195F PUSH2 0x1954 DUP12 DUP4 PUSH2 0x300F JUMP JUMPDEST PUSH1 0x80 DUP12 ADD MLOAD SWAP1 PUSH2 0x1E04 JUMP JUMPDEST PUSH1 0x80 SWAP1 SWAP10 ADD SWAP9 SWAP1 SWAP9 MSTORE POP POP POP POP POP POP POP POP POP POP JUMP JUMPDEST PUSH1 0x0 DUP1 DUP3 SLT ISZERO PUSH2 0x143C JUMPI PUSH1 0x0 DUP1 REVERT JUMPDEST PUSH1 0x0 DUP3 PUSH2 0x1992 JUMPI POP PUSH1 0x0 PUSH2 0xB78 JUMP JUMPDEST DUP3 DUP3 MUL DUP3 DUP5 DUP3 DUP2 PUSH2 0x199F JUMPI INVALID JUMPDEST DIV EQ PUSH2 0xB75 JUMPI PUSH1 0x0 DUP1 REVERT JUMPDEST PUSH1 0x0 DUP1 DUP3 GT PUSH2 0x19B8 JUMPI PUSH1 0x0 DUP1 REVERT JUMPDEST DUP2 DUP4 DUP2 PUSH2 0x19C1 JUMPI INVALID JUMPDEST DIV SWAP4 SWAP3 POP POP POP JUMP JUMPDEST PUSH1 0x0 DUP3 DUP3 GT ISZERO PUSH2 0x19D8 JUMPI PUSH1 0x0 DUP1 REVERT JUMPDEST POP SWAP1 SUB SWAP1 JUMP JUMPDEST PUSH1 0x0 DUP1 PUSH2 0x1A09 DUP5 PUSH1 0x40 ADD MLOAD PUSH2 0x11FD PUSH5 0x2540BE400 PUSH2 0x11FD DUP8 DUP10 PUSH1 0x20 ADD MLOAD PUSH2 0x1E1A SWAP1 SWAP2 SWAP1 PUSH4 0xFFFFFFFF AND JUMP JUMPDEST SWAP5 SWAP4 POP POP POP POP JUMP JUMPDEST PUSH1 0x80 DUP6 ADD MLOAD PUSH2 0x1A20 SWAP1 DUP3 PUSH2 0x1E04 JUMP JUMPDEST PUSH1 0x80 DUP7 ADD MSTORE DUP5 MLOAD PUSH2 0x1A31 SWAP1 DUP4 PUSH2 0x1E04 JUMP JUMPDEST DUP1 DUP7 MSTORE PUSH1 0x0 SLT ISZERO PUSH2 0x1A41 JUMPI PUSH1 0x0 DUP1 REVERT JUMPDEST PUSH1 0x20 DUP4 ADD MLOAD PUSH2 0x1A50 SWAP1 DUP4 PUSH2 0x1E04 JUMP JUMPDEST PUSH1 0x20 DUP5 ADD DUP2 SWAP1 MSTORE PUSH1 0x0 SLT ISZERO PUSH2 0x1A64 JUMPI PUSH1 0x0 DUP1 REVERT JUMPDEST PUSH2 0x1A77 DUP5 PUSH1 0x0 ADD MLOAD DUP6 PUSH1 0x40 ADD MLOAD DUP5 PUSH2 0x303F JUMP JUMPDEST POP POP POP POP POP POP JUMP JUMPDEST PUSH1 0x0 DUP1 PUSH2 0x1A90 DUP7 DUP7 PUSH1 0x0 ADD MLOAD PUSH2 0xC44 JUMP JUMPDEST SWAP1 POP DUP1 PUSH1 0x20 ADD MLOAD PUSH1 0x0 EQ DUP1 PUSH2 0x1AA8 JUMPI POP DUP3 DUP2 PUSH1 0x20 ADD MLOAD EQ JUMPDEST PUSH2 0x1AC4 JUMPI PUSH1 0x40 MLOAD PUSH3 0x461BCD PUSH1 0xE5 SHL DUP2 MSTORE PUSH1 0x4 ADD PUSH2 0x23D SWAP1 PUSH2 0x51CD JUMP JUMPDEST PUSH1 0x20 DUP2 ADD DUP4 SWAP1 MSTORE PUSH1 0x40 DUP2 ADD MLOAD PUSH2 0x1ADA SWAP1 DUP6 PUSH2 0x3145 JUMP JUMPDEST PUSH1 0x40 DUP3 ADD MSTORE PUSH2 0x1AE9 DUP2 DUP7 PUSH2 0x1488 JUMP JUMPDEST POP SWAP2 SWAP5 SWAP4 POP POP POP POP JUMP JUMPDEST PUSH1 0x0 DUP1 DUP1 PUSH2 0x1B01 DUP9 DUP9 PUSH2 0x1DAD JUMP JUMPDEST DUP10 MLOAD SWAP2 SWAP4 POP SWAP2 POP PUSH1 0x0 SWAP1 PUSH2 0x1B1C SWAP1 DUP12 SWAP1 DUP14 SWAP1 DUP6 SWAP1 DUP12 DUP12 PUSH2 0x3157 JUMP JUMPDEST SWAP1 POP PUSH2 0x1B31 PUSH2 0x1B2A DUP5 PUSH2 0x1426 JUMP JUMPDEST DUP3 SWAP1 PUSH2 0x1E04 JUMP JUMPDEST DUP11 MLOAD SWAP1 SWAP2 POP PUSH2 0x1B41 SWAP1 DUP11 SWAP1 PUSH2 0xE60 JUMP JUMPDEST PUSH1 0x0 PUSH2 0x1B6C DUP13 DUP13 PUSH1 0x40 ADD MLOAD PUSH2 0xFFFF AND PUSH2 0x1B63 PUSH2 0x1B5C DUP7 PUSH2 0xDBC JUMP JUMPDEST DUP11 SWAP1 PUSH2 0x291B JUMP JUMPDEST DUP10 SWAP3 SWAP2 SWAP1 PUSH2 0x2953 JUMP JUMPDEST SWAP1 POP PUSH1 0x5 DUP7 PUSH1 0x60 ADD MLOAD PUSH1 0x5 DUP2 GT ISZERO PUSH2 0x1B80 JUMPI INVALID JUMPDEST EQ ISZERO PUSH2 0x1BAD JUMPI PUSH1 0x0 PUSH2 0x1B99 DUP13 PUSH1 0x40 ADD MLOAD PUSH2 0xFFFF AND PUSH2 0x2E09 JUMP JUMPDEST SWAP1 POP PUSH2 0x1BA9 DUP2 PUSH1 0x0 ADD MLOAD DUP4 PUSH2 0x31AA JUMP JUMPDEST SWAP2 POP POP JUMPDEST PUSH2 0x1BB9 PUSH2 0xEB3 DUP3 PUSH2 0xDBC JUMP JUMPDEST SWAP13 SWAP12 POP POP POP POP POP POP POP POP POP POP POP POP JUMP JUMPDEST PUSH2 0x1BD1 PUSH2 0x4BCE JUMP JUMPDEST PUSH1 0x0 PUSH2 0x1BDB PUSH2 0x3239 JUMP JUMPDEST PUSH1 0x1 PUSH1 0x1 PUSH1 0xA0 SHL SUB DUP5 AND PUSH1 0x0 DUP2 DUP2 MSTORE PUSH1 0x20 DUP4 DUP2 MSTORE PUSH1 0x40 SWAP2 DUP3 SWAP1 KECCAK256 SWAP3 DUP7 MSTORE DUP3 SLOAD PUSH2 0xFFFF DUP1 DUP3 AND SWAP3 DUP9 ADD SWAP3 SWAP1 SWAP3 MSTORE PUSH3 0x10000 DUP2 DIV SWAP1 SWAP2 AND SWAP2 DUP7 ADD SWAP2 SWAP1 SWAP2 MSTORE SWAP2 SWAP3 POP SWAP1 PUSH2 0x1C3C SWAP1 PUSH4 0xFFFFFFFF PUSH5 0x100000000 SWAP1 SWAP2 DIV DUP2 AND SWAP1 PUSH4 0x5F5E100 SWAP1 PUSH2 0x1E1A AND JUMP JUMPDEST PUSH1 0x60 DUP5 ADD MSTORE DUP1 SLOAD PUSH2 0x1C5A SWAP1 PUSH1 0x1 PUSH1 0x50 SHL SWAP1 DIV PUSH1 0xFF AND PUSH3 0x7A120 PUSH2 0x1983 JUMP JUMPDEST PUSH1 0x80 DUP5 ADD MSTORE DUP1 SLOAD PUSH2 0x1C7E SWAP1 PUSH9 0x10000000000000000 SWAP1 DIV PUSH2 0xFFFF AND PUSH3 0x186A0 PUSH2 0x1983 JUMP JUMPDEST PUSH1 0xA0 DUP5 ADD MSTORE DUP1 SLOAD PUSH2 0x1C9D SWAP1 PUSH1 0x1 PUSH1 0x70 SHL SWAP1 DIV PUSH2 0xFFFF AND PUSH3 0x186A0 PUSH2 0x1983 JUMP JUMPDEST PUSH2 0x120 DUP5 ADD MSTORE DUP1 SLOAD PUSH1 0x64 SWAP1 PUSH1 0xFF PUSH1 0x1 PUSH1 0x58 SHL SWAP1 SWAP2 DIV AND PUSH4 0x3B9ACA00 MUL SDIV PUSH1 0xC0 DUP5 ADD MSTORE DUP1 SLOAD PUSH1 0x1 PUSH1 0x60 SHL DUP2 DIV PUSH1 0xFF SWAP1 DUP2 AND PUSH1 0xE0 DUP7 ADD MSTORE PUSH1 0x1 PUSH1 0x68 SHL SWAP1 SWAP2 DIV AND PUSH2 0x100 DUP5 ADD MSTORE PUSH1 0x40 DUP1 MLOAD DUP1 DUP3 ADD SWAP2 DUP3 SWAP1 MSTORE SWAP1 PUSH1 0x1 DUP4 ADD SWAP1 PUSH1 0x2 SWAP1 DUP3 PUSH1 0x0 DUP6 JUMPDEST DUP3 DUP3 SWAP1 SLOAD SWAP1 PUSH2 0x100 EXP SWAP1 DIV PUSH2 0xFFFF AND PUSH2 0xFFFF AND DUP2 MSTORE PUSH1 0x20 ADD SWAP1 PUSH1 0x2 ADD SWAP1 PUSH1 0x20 DUP3 PUSH1 0x1 ADD DIV SWAP3 DUP4 ADD SWAP3 PUSH1 0x1 SUB DUP3 MUL SWAP2 POP DUP1 DUP5 GT PUSH2 0x1CFA JUMPI SWAP1 POP POP POP POP POP POP DUP4 PUSH2 0x140 ADD DUP2 SWAP1 MSTORE POP POP POP SWAP2 SWAP1 POP JUMP JUMPDEST PUSH2 0x1D4F PUSH2 0x4CB9 JUMP JUMPDEST PUSH1 0x0 DUP1 PUSH1 0x0 PUSH2 0x1D5D DUP6 PUSH2 0x3246 JUMP JUMPDEST PUSH1 0x40 DUP1 MLOAD PUSH1 0x60 DUP2 ADD DUP3 MSTORE PUSH1 0x1 PUSH1 0x1 PUSH1 0xA0 SHL SUB SWAP1 SWAP4 AND DUP4 MSTORE PUSH1 0x20 DUP4 ADD SWAP4 SWAP1 SWAP4 MSTORE PUSH1 0xFF AND PUSH1 0xA EXP SWAP2 DUP2 ADD SWAP2 SWAP1 SWAP2 MSTORE SWAP4 POP POP POP POP SWAP2 SWAP1 POP JUMP JUMPDEST PUSH1 0x0 DUP1 PUSH2 0xB78 PUSH1 0x16 PUSH2 0x2D84 JUMP JUMPDEST PUSH1 0x0 DUP1 PUSH2 0xB78 PUSH1 0x15 PUSH2 0x2D84 JUMP JUMPDEST PUSH1 0x0 DUP1 PUSH2 0x1DBA DUP5 DUP5 PUSH2 0x1621 JUMP JUMPDEST PUSH1 0x80 DUP7 ADD MLOAD SWAP2 SWAP4 POP SWAP2 POP PUSH2 0x1DCE SWAP1 DUP4 PUSH2 0x19C9 JUMP JUMPDEST PUSH1 0x80 DUP6 ADD MSTORE PUSH1 0xA0 DUP5 ADD MLOAD PUSH2 0x1DE2 SWAP1 DUP3 PUSH2 0x19C9 JUMP JUMPDEST PUSH1 0xA0 DUP6 ADD MSTORE PUSH1 0x60 DUP5 ADD MLOAD PUSH2 0x1DF6 SWAP1 DUP5 PUSH2 0x19C9 JUMP JUMPDEST PUSH1 0x60 SWAP1 SWAP5 ADD SWAP4 SWAP1 SWAP4 MSTORE SWAP3 SWAP1 POP JUMP JUMPDEST DUP2 DUP2 ADD DUP3 DUP2 SLT ISZERO PUSH1 0x0 DUP4 SLT ISZERO EQ PUSH2 0xB78 JUMPI PUSH1 0x0 DUP1 REVERT JUMPDEST DUP2 DUP2 MUL PUSH1 0x0 NOT DUP4 EQ ISZERO PUSH2 0x1E4A JUMPI DUP2 ISZERO DUP1 PUSH2 0x1E3C JUMPI POP DUP3 DUP3 DUP3 DUP2 PUSH2 0x1E39 JUMPI INVALID JUMPDEST SDIV EQ JUMPDEST PUSH2 0x1E45 JUMPI PUSH1 0x0 DUP1 REVERT JUMPDEST PUSH2 0xB78 JUMP JUMPDEST DUP3 ISZERO DUP1 PUSH2 0x1E5F JUMPI POP DUP2 DUP4 DUP3 DUP2 PUSH2 0x1E5C JUMPI INVALID JUMPDEST SDIV EQ JUMPDEST PUSH2 0xB78 JUMPI PUSH1 0x0 DUP1 REVERT JUMPDEST PUSH1 0x0 DUP1 PUSH2 0x1E77 DUP9 DUP9 DUP7 DUP7 PUSH2 0x2048 JUMP JUMPDEST SWAP1 POP PUSH1 0x0 PUSH2 0x1E84 DUP8 PUSH2 0x3309 JUMP JUMPDEST SWAP1 POP PUSH11 0xFFFFFFFFFFFFFFFFFFFFFF DUP2 LT PUSH2 0x1E9D JUMPI PUSH1 0x0 DUP1 REVERT JUMPDEST PUSH1 0x0 PUSH1 0x78 DUP8 PUSH4 0xFFFFFFFF AND SWAP1 SHL PUSH1 0x98 DUP4 SWAP1 SHL PUSH1 0xF0 DUP6 SWAP1 SHL PUSH1 0xF8 PUSH1 0x0 DUP13 SGT PUSH2 0x1EC5 JUMPI PUSH1 0x1 PUSH2 0x1EC8 JUMP JUMPDEST PUSH1 0x0 JUMPDEST PUSH1 0x5 DUP2 GT ISZERO PUSH2 0x1ED3 JUMPI INVALID JUMPDEST PUSH1 0xFF AND SWAP1 SHL OR OR OR PUSH1 0x0 SHL SWAP1 POP PUSH20 0x0 PUSH4 0xE50F349E DUP12 DUP4 PUSH1 0x40 MLOAD DUP4 PUSH4 0xFFFFFFFF AND PUSH1 0xE0 SHL DUP2 MSTORE PUSH1 0x4 ADD PUSH2 0x1F19 SWAP3 SWAP2 SWAP1 PUSH2 0x55B3 JUMP JUMPDEST PUSH1 0x20 PUSH1 0x40 MLOAD DUP1 DUP4 SUB DUP2 DUP7 DUP1 EXTCODESIZE ISZERO DUP1 ISZERO PUSH2 0x1F31 JUMPI PUSH1 0x0 DUP1 REVERT JUMPDEST POP GAS DELEGATECALL ISZERO DUP1 ISZERO PUSH2 0x1F45 JUMPI RETURNDATASIZE PUSH1 0x0 DUP1 RETURNDATACOPY RETURNDATASIZE PUSH1 0x0 REVERT JUMPDEST POP POP POP POP PUSH1 0x40 MLOAD RETURNDATASIZE PUSH1 0x1F NOT PUSH1 0x1F DUP3 ADD AND DUP3 ADD DUP1 PUSH1 0x40 MSTORE POP DUP2 ADD SWAP1 PUSH2 0x1F69 SWAP2 SWAP1 PUSH2 0x4FD2 JUMP JUMPDEST SWAP11 SWAP10 POP POP POP POP POP POP POP POP POP POP JUMP JUMPDEST PUSH1 0x0 DUP1 PUSH2 0x1A09 DUP5 PUSH1 0x20 ADD MLOAD PUSH2 0x11FD DUP7 PUSH1 0x40 ADD MLOAD PUSH2 0x12A2 PUSH5 0x2540BE400 DUP9 PUSH2 0x1E1A SWAP1 SWAP2 SWAP1 PUSH4 0xFFFFFFFF AND JUMP JUMPDEST PUSH1 0x0 PUSH1 0x1 PUSH1 0x1 PUSH1 0x50 SHL SUB DUP3 GT ISZERO PUSH2 0x143C JUMPI PUSH1 0x0 DUP1 REVERT JUMPDEST PUSH1 0x0 DUP3 SLT PUSH2 0x1FC5 JUMPI PUSH1 0x0 DUP1 REVERT JUMPDEST PUSH1 0x0 PUSH2 0x1FDE DUP7 PUSH1 0x40 ADD MLOAD DUP6 DUP6 DUP6 DUP11 PUSH2 0x100 ADD MLOAD TIMESTAMP PUSH2 0x1E68 JUMP JUMPDEST SWAP1 POP PUSH1 0x0 DUP2 SGT PUSH2 0x2000 JUMPI PUSH1 0x40 MLOAD PUSH3 0x461BCD PUSH1 0xE5 SHL DUP2 MSTORE PUSH1 0x4 ADD PUSH2 0x23D SWAP1 PUSH2 0x544A JUMP JUMPDEST PUSH2 0x200D DUP8 DUP8 DUP8 DUP7 DUP6 PUSH2 0x1A11 JUMP JUMPDEST DUP7 MLOAD PUSH2 0x2018 SWAP1 PUSH2 0xDBC JUMP JUMPDEST DUP7 PUSH1 0x60 ADD MLOAD SGT ISZERO PUSH2 0x203B JUMPI PUSH1 0x40 MLOAD PUSH3 0x461BCD PUSH1 0xE5 SHL DUP2 MSTORE PUSH1 0x4 ADD PUSH2 0x23D SWAP1 PUSH2 0x5471 JUMP JUMPDEST PUSH2 0xE57 DUP7 DUP9 DUP4 DUP8 TIMESTAMP PUSH2 0x332A JUMP JUMPDEST PUSH1 0x0 DUP1 PUSH1 0x0 PUSH2 0x205A DUP8 PUSH2 0xFFFF AND PUSH2 0x342A JUMP JUMPDEST SWAP1 POP PUSH2 0x206A DUP2 PUSH1 0xFF AND DUP8 DUP7 PUSH2 0x3440 JUMP JUMPDEST SWAP1 SWAP4 POP SWAP2 POP DUP5 DUP4 GT ISZERO PUSH2 0x208F JUMPI PUSH1 0x40 MLOAD PUSH3 0x461BCD PUSH1 0xE5 SHL DUP2 MSTORE PUSH1 0x4 ADD PUSH2 0x23D SWAP1 PUSH2 0x52C0 JUMP JUMPDEST DUP2 ISZERO PUSH2 0x20AD JUMPI PUSH1 0x40 MLOAD PUSH3 0x461BCD PUSH1 0xE5 SHL DUP2 MSTORE PUSH1 0x4 ADD PUSH2 0x23D SWAP1 PUSH2 0x52C0 JUMP JUMPDEST POP POP SWAP5 SWAP4 POP POP POP POP JUMP JUMPDEST PUSH1 0x0 DUP8 PUSH1 0x80 ADD MLOAD PUSH1 0x0 EQ PUSH2 0x20CA JUMPI PUSH1 0x0 DUP1 REVERT JUMPDEST PUSH1 0x0 DUP8 PUSH1 0x80 ADD MLOAD SLT ISZERO PUSH2 0x20DC JUMPI PUSH1 0x0 DUP1 REVERT JUMPDEST DUP8 MLOAD PUSH1 0x20 DUP9 ADD MLOAD LT ISZERO PUSH2 0x2104 JUMPI PUSH1 0x40 DUP8 ADD MLOAD ISZERO PUSH2 0x20F8 JUMPI PUSH1 0x0 DUP1 REVERT JUMPDEST DUP8 MLOAD PUSH1 0x20 DUP9 ADD MSTORE PUSH2 0x2115 JUMP JUMPDEST DUP8 MLOAD PUSH1 0x20 DUP9 ADD MLOAD EQ PUSH2 0x2115 JUMPI PUSH1 0x0 DUP1 REVERT JUMPDEST PUSH1 0x0 DUP6 ISZERO PUSH2 0x2130 JUMPI PUSH2 0x212D DUP10 DUP10 DUP9 DUP11 PUSH1 0x0 ADD MLOAD PUSH2 0x3508 JUMP JUMPDEST SWAP1 POP JUMPDEST PUSH1 0x60 DUP9 ADD MLOAD PUSH1 0x80 DUP10 ADD MLOAD DUP11 MLOAD PUSH1 0x0 SWAP3 PUSH2 0x214D SWAP3 DUP12 SWAP3 DUP11 DUP11 DUP11 PUSH2 0x3586 JUMP JUMPDEST SWAP1 POP PUSH2 0x2169 PUSH2 0x2162 DUP12 DUP12 DUP5 DUP13 PUSH1 0x0 ADD MLOAD PUSH2 0x3508 JUMP JUMPDEST DUP4 SWAP1 PUSH2 0x3145 JUMP JUMPDEST SWAP2 POP DUP9 PUSH1 0x60 ADD MLOAD PUSH1 0x1 PUSH1 0x1 PUSH1 0xA0 SHL SUB AND DUP11 PUSH1 0x0 ADD MLOAD DUP10 PUSH1 0x0 ADD MLOAD PUSH1 0x1 PUSH1 0x1 PUSH1 0xA0 SHL SUB AND PUSH32 0x87D46C761BDD82B4A559098BEEB0D5B8FA8C0E2AA3607704FE0757618E85E24D PUSH2 0x21C4 DUP11 DUP15 PUSH1 0x80 ADD MLOAD PUSH2 0x3145 SWAP1 SWAP2 SWAP1 PUSH4 0xFFFFFFFF AND JUMP JUMPDEST DUP12 DUP8 PUSH1 0x40 MLOAD PUSH2 0x21D5 SWAP4 SWAP3 SWAP2 SWAP1 PUSH2 0x5176 JUMP JUMPDEST PUSH1 0x40 MLOAD DUP1 SWAP2 SUB SWAP1 LOG4 PUSH1 0x0 PUSH1 0x80 DUP11 ADD MSTORE PUSH2 0x1F69 DUP8 DUP3 PUSH2 0x3145 JUMP JUMPDEST PUSH2 0x21F6 PUSH2 0x4CB9 JUMP JUMPDEST PUSH1 0x0 DUP1 PUSH1 0x0 PUSH2 0x1D5D DUP6 PUSH2 0x363C JUMP JUMPDEST PUSH1 0x0 DUP2 PUSH2 0x2213 JUMPI POP PUSH1 0x0 PUSH2 0x1A09 JUMP JUMPDEST PUSH1 0x0 DUP1 PUSH2 0x2220 DUP8 DUP6 PUSH2 0x1621 JUMP JUMPDEST SWAP2 POP SWAP2 POP PUSH1 0x0 PUSH2 0x223F DUP8 PUSH1 0x40 ADD MLOAD DUP9 PUSH1 0x0 ADD MLOAD DUP9 DUP6 DUP13 PUSH1 0x0 ADD MLOAD PUSH2 0x36BF JUMP JUMPDEST SWAP1 POP PUSH2 0x225D PUSH2 0x224D DUP5 PUSH2 0x1426 JUMP JUMPDEST PUSH2 0x160 DUP10 ADD MLOAD PUSH2 0x10D1 SWAP1 DUP5 PUSH2 0x1F77 JUMP JUMPDEST SWAP9 SWAP8 POP POP POP POP POP POP POP POP JUMP JUMPDEST PUSH1 0x0 PUSH2 0x2274 DUP5 PUSH2 0x2D48 JUMP JUMPDEST ISZERO PUSH2 0x13A8 JUMPI PUSH1 0x0 PUSH2 0x2283 PUSH2 0x1614 JUMP JUMPDEST PUSH1 0x1 PUSH1 0x1 PUSH1 0xA0 SHL SUB DUP1 DUP7 AND PUSH1 0x0 SWAP1 DUP2 MSTORE PUSH1 0x20 SWAP3 DUP4 MSTORE PUSH1 0x40 DUP1 DUP3 KECCAK256 DUP10 MLOAD SWAP1 SWAP4 AND DUP3 MSTORE SWAP2 SWAP1 SWAP3 MSTORE DUP1 DUP3 KECCAK256 SWAP1 DUP8 ADD MLOAD SWAP1 SWAP3 POP PUSH2 0x22BF SWAP1 PUSH2 0xFFFF AND PUSH2 0x3784 JUMP JUMPDEST DUP3 SLOAD SWAP1 SWAP2 POP PUSH1 0x1 PUSH1 0x1 PUSH1 0x50 SHL SUB PUSH5 0x100000000 DUP3 DIV DUP2 AND SWAP2 PUSH1 0x1 PUSH1 0x70 SHL SWAP1 DIV AND DUP2 ISZERO PUSH2 0x2316 JUMPI PUSH2 0x2313 PUSH2 0x230C DUP5 DUP11 PUSH2 0x140 ADD MLOAD PUSH1 0x0 PUSH1 0x2 DUP2 LT PUSH2 0x22FE JUMPI INVALID JUMPDEST PUSH1 0x20 MUL ADD MLOAD DUP12 MLOAD DUP11 DUP8 PUSH2 0x38E7 JUMP JUMPDEST DUP7 SWAP1 PUSH2 0x1E04 JUMP JUMPDEST SWAP5 POP JUMPDEST DUP1 ISZERO PUSH2 0x2346 JUMPI PUSH2 0x2343 PUSH2 0x230C DUP5 DUP11 PUSH2 0x140 ADD MLOAD PUSH1 0x1 PUSH1 0x2 DUP2 LT PUSH2 0x2335 JUMPI INVALID JUMPDEST PUSH1 0x20 MUL ADD MLOAD DUP12 MLOAD DUP11 DUP7 PUSH2 0x38E7 JUMP JUMPDEST SWAP5 POP JUMPDEST POP POP POP POP SWAP4 SWAP3 POP POP POP JUMP JUMPDEST DUP1 DUP3 SUB DUP3 DUP2 SGT ISZERO PUSH1 0x0 DUP4 SLT ISZERO EQ PUSH2 0xB78 JUMPI PUSH1 0x0 DUP1 REVERT JUMPDEST PUSH1 0x0 PUSH2 0xB75 PUSH2 0x237A DUP5 PUSH4 0x3B9ACA00 PUSH2 0x1E1A JUMP JUMPDEST DUP4 PUSH2 0x2395 JUMP JUMPDEST PUSH1 0x0 PUSH2 0xB75 PUSH2 0x238F DUP5 DUP5 PUSH2 0x1E1A JUMP JUMPDEST PUSH4 0x3B9ACA00 JUMPDEST PUSH1 0x0 DUP2 PUSH1 0x0 NOT EQ DUP1 ISZERO PUSH2 0x23AB JUMPI POP PUSH1 0x1 PUSH1 0xFF SHL DUP4 EQ JUMPDEST ISZERO PUSH2 0x23B5 JUMPI PUSH1 0x0 DUP1 REVERT JUMPDEST DUP2 DUP4 DUP2 PUSH2 0x23BE JUMPI INVALID JUMPDEST SDIV SWAP4 SWAP3 POP POP POP JUMP JUMPDEST PUSH2 0x23CE PUSH2 0x4CB9 JUMP JUMPDEST PUSH1 0x0 DUP1 PUSH2 0x23DB DUP7 DUP7 PUSH2 0x3988 JUMP JUMPDEST SWAP2 POP SWAP2 POP DUP2 PUSH1 0x0 EQ ISZERO PUSH2 0x250B JUMPI PUSH1 0x0 PUSH2 0x23F3 DUP8 PUSH2 0x3246 JUMP JUMPDEST SWAP2 SWAP5 POP SWAP1 SWAP3 POP SWAP1 POP PUSH1 0x1 PUSH1 0x1 PUSH1 0xA0 SHL SUB DUP2 AND ISZERO PUSH2 0x2509 JUMPI PUSH1 0x0 PUSH2 0x2414 PUSH2 0x39D1 JUMP JUMPDEST SWAP1 POP DUP6 PUSH1 0x0 LT DUP1 ISZERO PUSH2 0x2426 JUMPI POP DUP6 DUP8 GT ISZERO JUMPDEST DUP1 ISZERO PUSH2 0x2437 JUMPI POP PUSH5 0xFFFFFFFFFF DUP7 GT ISZERO JUMPDEST PUSH2 0x2440 JUMPI PUSH1 0x0 DUP1 REVERT JUMPDEST DUP4 PUSH1 0x0 SLT DUP1 ISZERO PUSH2 0x2457 JUMPI POP PUSH1 0x1 PUSH1 0x1 PUSH1 0x80 SHL SUB DUP5 SGT ISZERO JUMPDEST PUSH2 0x2460 JUMPI PUSH1 0x0 DUP1 REVERT JUMPDEST PUSH1 0x0 DUP9 DUP2 MSTORE PUSH1 0x20 DUP3 DUP2 MSTORE PUSH1 0x40 DUP1 DUP4 KECCAK256 DUP11 DUP5 MSTORE SWAP1 SWAP2 MSTORE SWAP1 DUP2 SWAP1 KECCAK256 DUP1 SLOAD PUSH5 0xFFFFFFFFFF NOT AND PUSH5 0xFFFFFFFFFF DUP10 AND OR PUSH21 0xFFFFFFFFFFFFFFFFFFFFFFFFFFFFFFFF0000000000 NOT AND PUSH6 0x10000000000 PUSH1 0x1 PUSH1 0x1 PUSH1 0x80 SHL SUB DUP9 AND MUL OR PUSH1 0xFF PUSH1 0xA8 SHL NOT AND PUSH1 0x1 PUSH1 0xA8 SHL PUSH1 0xFF DUP8 AND MUL OR DUP2 SSTORE SWAP1 MLOAD DUP9 SWAP1 DUP11 SWAP1 PUSH32 0xFDFA6885701E2F1F42E4187B9231CF81C1FE23671EF64FA46F34DDB56C1DC18 SWAP1 PUSH2 0x24FE SWAP1 DUP10 SWAP1 PUSH2 0x559F JUMP JUMPDEST PUSH1 0x40 MLOAD DUP1 SWAP2 SUB SWAP1 LOG3 POP POP JUMPDEST POP JUMPDEST PUSH1 0x40 DUP1 MLOAD PUSH1 0x60 DUP2 ADD DUP3 MSTORE PUSH1 0x0 DUP2 MSTORE PUSH1 0x20 DUP2 ADD SWAP4 SWAP1 SWAP4 MSTORE PUSH1 0xFF SWAP1 SWAP2 AND PUSH1 0xA EXP SWAP1 DUP3 ADD MSTORE SWAP1 POP SWAP4 SWAP3 POP POP POP JUMP JUMPDEST PUSH1 0x0 DUP1 PUSH2 0x255A PUSH2 0x2553 PUSH2 0x254C DUP9 PUSH1 0x80 ADD MLOAD PUSH2 0x1426 JUMP JUMPDEST DUP7 SWAP1 PUSH2 0x19DE JUMP JUMPDEST DUP5 SWAP1 PUSH2 0x1E04 JUMP JUMPDEST SWAP1 POP PUSH2 0x2565 DUP6 PUSH2 0x2D48 JUMP JUMPDEST ISZERO PUSH2 0x2679 JUMPI PUSH1 0x0 PUSH2 0x2574 PUSH2 0x1614 JUMP JUMPDEST PUSH1 0x60 DUP10 ADD MLOAD PUSH1 0x1 PUSH1 0x1 PUSH1 0xA0 SHL SUB SWAP1 DUP2 AND PUSH1 0x0 SWAP1 DUP2 MSTORE PUSH1 0x20 SWAP3 DUP4 MSTORE PUSH1 0x40 DUP1 DUP3 KECCAK256 DUP11 MLOAD SWAP1 SWAP4 AND DUP3 MSTORE SWAP2 SWAP1 SWAP3 MSTORE DUP2 KECCAK256 DUP8 MLOAD DUP10 MLOAD PUSH2 0x140 DUP11 ADD MLOAD MLOAD DUP4 SLOAD SWAP4 SWAP6 POP DUP5 SWAP4 PUSH2 0x25CF SWAP4 SWAP3 SWAP2 SWAP1 PUSH5 0x100000000 SWAP1 DIV PUSH1 0x1 PUSH1 0x1 PUSH1 0x50 SHL SUB AND PUSH2 0x39DE JUMP JUMPDEST SWAP1 SWAP3 POP SWAP1 POP PUSH2 0x25DE DUP5 DUP4 PUSH2 0x1E04 JUMP JUMPDEST SWAP4 POP PUSH2 0x25EA DUP6 DUP3 PUSH2 0x2351 JUMP JUMPDEST DUP9 MLOAD DUP11 MLOAD PUSH2 0x140 DUP12 ADD MLOAD PUSH1 0x20 ADD MLOAD DUP7 SLOAD SWAP4 SWAP9 POP PUSH2 0x2616 SWAP4 PUSH1 0x1 PUSH1 0x70 SHL SWAP1 DIV PUSH1 0x1 PUSH1 0x1 PUSH1 0x50 SHL SUB AND PUSH2 0x39DE JUMP JUMPDEST SWAP1 SWAP3 POP SWAP1 POP PUSH2 0x2625 DUP5 DUP4 PUSH2 0x1E04 JUMP JUMPDEST SWAP4 POP PUSH2 0x2631 DUP6 DUP3 PUSH2 0x2351 JUMP JUMPDEST SWAP5 POP PUSH2 0x263B PUSH2 0x1614 JUMP JUMPDEST PUSH1 0x60 DUP12 ADD MLOAD PUSH1 0x1 PUSH1 0x1 PUSH1 0xA0 SHL SUB SWAP1 DUP2 AND PUSH1 0x0 SWAP1 DUP2 MSTORE PUSH1 0x20 SWAP3 DUP4 MSTORE PUSH1 0x40 DUP1 DUP3 KECCAK256 DUP13 MLOAD SWAP1 SWAP4 AND DUP3 MSTORE SWAP2 SWAP1 SWAP3 MSTORE SWAP1 KECCAK256 DUP1 SLOAD PUSH1 0x1 PUSH1 0x1 PUSH1 0xC0 SHL SUB NOT AND SWAP1 SSTORE POP POP POP JUMPDEST PUSH2 0x26AC PUSH2 0x26A5 DUP9 PUSH1 0x0 ADD MLOAD PUSH2 0x10D1 PUSH2 0x2694 DUP11 PUSH1 0x60 ADD MLOAD PUSH2 0x1426 JUMP JUMPDEST PUSH2 0x11FD DUP7 PUSH2 0x12A2 DUP15 PUSH1 0x40 ADD MLOAD PUSH2 0x1426 JUMP JUMPDEST DUP4 SWAP1 PUSH2 0x1E04 JUMP JUMPDEST SWAP2 POP PUSH1 0x0 DUP3 SLT ISZERO PUSH2 0x26D9 JUMPI PUSH2 0x26CF PUSH2 0x26C4 DUP6 DUP5 PUSH2 0x1F77 JUMP JUMPDEST PUSH1 0x80 DUP10 ADD MLOAD SWAP1 PUSH2 0x1E04 JUMP JUMPDEST PUSH1 0x80 DUP9 ADD MSTORE PUSH1 0x0 SWAP2 POP JUMPDEST POP SWAP6 SWAP5 POP POP POP POP POP JUMP JUMPDEST PUSH1 0x0 DUP1 PUSH1 0x0 PUSH2 0x270F PUSH2 0x2702 DUP9 PUSH1 0x20 ADD MLOAD DUP9 PUSH2 0x1F77 SWAP1 SWAP2 SWAP1 PUSH4 0xFFFFFFFF AND JUMP JUMPDEST PUSH2 0x10D1 DUP10 PUSH1 0x80 ADD MLOAD PUSH2 0x1426 JUMP JUMPDEST SWAP1 POP PUSH1 0x0 PUSH2 0x2721 DUP6 PUSH2 0x10D1 DUP10 DUP6 PUSH2 0x19DE JUMP JUMPDEST SWAP1 POP DUP1 ISZERO PUSH2 0x275A JUMPI PUSH2 0x2747 PUSH2 0xEB3 DUP3 PUSH2 0x11FD PUSH2 0x2740 DUP13 PUSH1 0xA0 ADD MLOAD PUSH2 0x1426 JUMP JUMPDEST DUP11 SWAP1 PUSH2 0x1E1A JUMP JUMPDEST SWAP3 POP PUSH2 0x2757 DUP2 PUSH2 0x11FD DUP9 DUP6 PUSH2 0x1E1A JUMP JUMPDEST SWAP4 POP JUMPDEST POP POP PUSH1 0x0 PUSH2 0x2766 PUSH2 0x3A72 JUMP JUMPDEST DUP9 MLOAD PUSH1 0x1 PUSH1 0x1 PUSH1 0xA0 SHL SUB AND PUSH1 0x0 SWAP1 DUP2 MSTORE PUSH1 0x20 SWAP2 DUP3 MSTORE PUSH1 0x40 DUP1 DUP3 KECCAK256 DUP11 MLOAD DUP4 MSTORE SWAP1 SWAP3 MSTORE KECCAK256 DUP1 SLOAD SWAP1 SWAP2 POP PUSH1 0x1 PUSH1 0x1 PUSH1 0x50 SHL SUB DUP2 AND SWAP1 PUSH1 0x1 PUSH1 0x50 SHL SWAP1 DIV PUSH1 0x9 SWAP1 DUP2 SIGNEXTEND SWAP1 SIGNEXTEND DUP4 DUP3 LT ISZERO PUSH2 0x27E3 JUMPI PUSH2 0x27D6 PUSH2 0x230C PUSH2 0x27CF PUSH4 0x5F5E100 PUSH2 0x11FD DUP14 PUSH1 0xC0 ADD MLOAD PUSH2 0x12A2 DUP9 DUP12 SUB PUSH2 0x1426 JUMP JUMPDEST DUP11 SWAP1 PUSH2 0x1F77 JUMP JUMPDEST SWAP5 POP SWAP1 SWAP3 POP PUSH1 0x0 SWAP1 PUSH2 0x27E9 JUMP JUMPDEST DUP4 DUP3 SUB SWAP2 POP JUMPDEST DUP3 SLOAD PUSH1 0x1 PUSH1 0x1 PUSH1 0x50 SHL SUB NOT AND PUSH1 0x1 PUSH1 0x1 PUSH1 0x50 SHL SUB DUP4 AND OR DUP4 SSTORE PUSH1 0x0 DUP6 SLT ISZERO PUSH2 0x2810 JUMPI PUSH1 0x0 DUP1 REVERT JUMPDEST DUP5 DUP2 SLT ISZERO PUSH2 0x2883 JUMPI PUSH1 0x0 DUP1 DUP3 SGT PUSH2 0x2827 JUMPI DUP6 PUSH2 0x282B JUMP JUMPDEST DUP2 DUP7 SUB JUMPDEST SWAP1 POP PUSH1 0x0 PUSH2 0x2847 DUP13 PUSH1 0x0 ADD MLOAD DUP14 PUSH1 0x40 ADD MLOAD DUP5 DUP15 PUSH1 0x0 ADD MLOAD PUSH2 0x3A7F JUMP JUMPDEST SWAP1 POP PUSH1 0x0 DUP4 SGT ISZERO PUSH2 0x2878 JUMPI PUSH2 0x285C DUP4 DUP3 PUSH2 0x1E04 JUMP JUMPDEST DUP6 SLOAD PUSH1 0x1 PUSH1 0x50 SHL PUSH1 0x1 PUSH1 0xA0 SHL SUB NOT AND DUP7 SSTORE SWAP7 POP PUSH1 0x0 SWAP3 POP PUSH2 0x287C JUMP JUMPDEST DUP1 SWAP7 POP JUMPDEST POP POP PUSH2 0x28C2 JUMP JUMPDEST PUSH2 0x288D DUP2 DUP7 PUSH2 0x2351 JUMP JUMPDEST SWAP1 POP PUSH2 0x2898 DUP2 PUSH2 0x3BA7 JUMP JUMPDEST DUP4 SLOAD PUSH1 0x9 SWAP2 SWAP1 SWAP2 SIGNEXTEND PUSH1 0x1 PUSH1 0x1 PUSH1 0x50 SHL SUB AND PUSH1 0x1 PUSH1 0x50 SHL MUL PUSH1 0x1 PUSH1 0x50 SHL PUSH1 0x1 PUSH1 0xA0 SHL SUB NOT SWAP1 SWAP2 AND OR DUP4 SSTORE JUMPDEST DUP9 PUSH1 0x0 ADD MLOAD DUP11 PUSH1 0x0 ADD MLOAD PUSH1 0x1 PUSH1 0x1 PUSH1 0xA0 SHL SUB AND PUSH32 0xF5B347A56F0B5140F05EEC05FF743978670A56685689FDC2C3193D71CFAC31A9 DUP4 DUP6 PUSH1 0x40 MLOAD PUSH2 0x2906 SWAP3 SWAP2 SWAP1 PUSH2 0x5168 JUMP JUMPDEST PUSH1 0x40 MLOAD DUP1 SWAP2 SUB SWAP1 LOG3 POP POP POP SWAP6 POP SWAP6 SWAP4 POP POP POP POP JUMP JUMPDEST PUSH1 0x0 PUSH4 0x5F5E100 DUP4 PUSH1 0x40 ADD MLOAD EQ ISZERO PUSH2 0x2934 JUMPI POP DUP1 PUSH2 0xB78 JUMP JUMPDEST PUSH2 0xB75 PUSH4 0x5F5E100 PUSH2 0x11FD DUP6 PUSH1 0x40 ADD MLOAD DUP6 PUSH2 0x1E1A SWAP1 SWAP2 SWAP1 PUSH4 0xFFFFFFFF AND JUMP JUMPDEST DUP1 PUSH1 0x5 DUP6 PUSH1 0x60 ADD MLOAD PUSH1 0x5 DUP2 GT ISZERO PUSH2 0x2966 JUMPI INVALID JUMPDEST EQ ISZERO PUSH2 0x298B JUMPI PUSH1 0x0 PUSH2 0x2977 DUP5 PUSH2 0x2E09 JUMP JUMPDEST SWAP1 POP PUSH2 0x2987 DUP2 PUSH1 0x0 ADD MLOAD DUP5 PUSH2 0x31AA JUMP JUMPDEST SWAP3 POP POP JUMPDEST PUSH1 0x0 DUP3 SGT ISZERO PUSH2 0x29B7 JUMPI PUSH1 0x0 PUSH2 0x29A1 DUP7 DUP7 DUP6 PUSH2 0x3BD7 JUMP JUMPDEST SWAP1 POP DUP6 PUSH1 0x20 ADD MLOAD ISZERO PUSH2 0x29B1 JUMPI DUP1 SWAP2 POP JUMPDEST POP PUSH2 0x1A09 JUMP JUMPDEST PUSH1 0x3 DUP6 PUSH1 0x60 ADD MLOAD PUSH1 0x5 DUP2 GT ISZERO PUSH2 0x29C9 JUMPI INVALID JUMPDEST EQ ISZERO PUSH2 0x29E6 JUMPI PUSH2 0x29E1 DUP5 PUSH2 0x29DC DUP5 PUSH2 0xDBC JUMP JUMPDEST PUSH2 0x2E1C JUMP JUMPDEST PUSH2 0x1A09 JUMP JUMPDEST DUP5 MLOAD PUSH2 0x1A09 SWAP1 DUP6 PUSH2 0x29F6 DUP6 PUSH2 0xDBC JUMP JUMPDEST PUSH2 0x3CC0 JUMP JUMPDEST PUSH1 0x0 DUP1 PUSH1 0x2 DUP7 PUSH1 0x60 ADD MLOAD PUSH1 0x5 DUP2 GT ISZERO PUSH2 0x2A10 JUMPI INVALID JUMPDEST EQ ISZERO PUSH2 0x2A28 JUMPI PUSH2 0x2A21 DUP7 DUP6 DUP6 PUSH2 0x3D37 JUMP JUMPDEST SWAP1 POP PUSH2 0x2A85 JUMP JUMPDEST PUSH1 0x0 PUSH2 0x2A33 DUP7 PUSH2 0x2E09 JUMP JUMPDEST SWAP1 POP PUSH1 0x5 DUP8 PUSH1 0x60 ADD MLOAD PUSH1 0x5 DUP2 GT ISZERO PUSH2 0x2A47 JUMPI INVALID JUMPDEST EQ ISZERO PUSH2 0x2A5F JUMPI PUSH2 0x2A58 DUP2 DUP7 DUP7 PUSH2 0x3DF4 JUMP JUMPDEST SWAP2 POP PUSH2 0x2A83 JUMP JUMPDEST PUSH1 0x1 DUP8 PUSH1 0x60 ADD MLOAD PUSH1 0x5 DUP2 GT ISZERO PUSH2 0x2A71 JUMPI INVALID JUMPDEST EQ ISZERO PUSH2 0x9C JUMPI PUSH2 0x2A58 DUP8 DUP3 DUP8 DUP8 PUSH2 0x3EA5 JUMP JUMPDEST POP JUMPDEST PUSH2 0x2A91 PUSH2 0xE34 DUP3 PUSH2 0x1426 JUMP JUMPDEST SWAP7 SWAP6 POP POP POP POP POP POP JUMP JUMPDEST PUSH1 0x0 DUP1 PUSH1 0x0 PUSH2 0x2AB1 DUP8 PUSH1 0x40 ADD MLOAD PUSH2 0xFFFF AND PUSH2 0x1878 JUMP JUMPDEST SWAP1 POP PUSH1 0x0 PUSH1 0x4 DUP3 PUSH1 0x60 ADD MLOAD PUSH1 0x5 DUP2 GT ISZERO PUSH2 0x2AC7 JUMPI INVALID JUMPDEST EQ PUSH2 0x2AE2 JUMPI PUSH2 0x2ADD DUP9 PUSH1 0x40 ADD MLOAD PUSH2 0xFFFF AND PUSH2 0x2E09 JUMP JUMPDEST PUSH2 0x2AE4 JUMP JUMPDEST DUP2 JUMPDEST SWAP1 POP PUSH1 0x0 DUP1 DUP9 PUSH1 0x80 ADD MLOAD SLT ISZERO PUSH2 0x2B57 JUMPI PUSH1 0x4 DUP4 PUSH1 0x60 ADD MLOAD PUSH1 0x5 DUP2 GT ISZERO PUSH2 0x2B06 JUMPI INVALID JUMPDEST EQ ISZERO PUSH2 0x2B23 JUMPI PUSH2 0x2B1C PUSH2 0xEB3 DUP10 PUSH1 0x80 ADD MLOAD PUSH2 0xDBC JUMP JUMPDEST SWAP1 POP PUSH2 0x2B57 JUMP JUMPDEST PUSH1 0x0 PUSH2 0x2B44 PUSH2 0xE34 DUP11 PUSH1 0x80 ADD MLOAD DUP13 PUSH2 0x160 ADD MLOAD PUSH2 0x19DE SWAP1 SWAP2 SWAP1 PUSH4 0xFFFFFFFF AND JUMP JUMPDEST SWAP1 POP PUSH2 0x2B53 PUSH2 0xEB3 DUP5 DUP4 PUSH2 0x3FA3 JUMP JUMPDEST SWAP2 POP POP JUMPDEST PUSH1 0x40 DUP9 ADD MLOAD PUSH1 0x0 SWAP1 ISZERO PUSH2 0x2C2F JUMPI PUSH1 0x0 PUSH2 0x2B70 DUP5 ADDRESS PUSH2 0x3FDF JUMP JUMPDEST SWAP1 POP DUP11 PUSH1 0x0 ADD MLOAD PUSH1 0x1 PUSH1 0x1 PUSH1 0xA0 SHL SUB AND PUSH4 0x44F05108 DUP12 PUSH1 0x0 ADD MLOAD DUP13 PUSH1 0x20 ADD MLOAD DUP14 PUSH1 0x40 ADD MLOAD DUP15 PUSH1 0x60 ADD MLOAD DUP9 DUP16 DUP16 PUSH1 0x40 MLOAD DUP9 PUSH4 0xFFFFFFFF AND PUSH1 0xE0 SHL DUP2 MSTORE PUSH1 0x4 ADD PUSH2 0x2BBE SWAP8 SWAP7 SWAP6 SWAP5 SWAP4 SWAP3 SWAP2 SWAP1 PUSH2 0x5077 JUMP JUMPDEST PUSH1 0x20 PUSH1 0x40 MLOAD DUP1 DUP4 SUB DUP2 PUSH1 0x0 DUP8 DUP1 EXTCODESIZE ISZERO DUP1 ISZERO PUSH2 0x2BD8 JUMPI PUSH1 0x0 DUP1 REVERT JUMPDEST POP GAS CALL ISZERO DUP1 ISZERO PUSH2 0x2BEC JUMPI RETURNDATASIZE PUSH1 0x0 DUP1 RETURNDATACOPY RETURNDATASIZE PUSH1 0x0 REVERT JUMPDEST POP POP POP POP PUSH1 0x40 MLOAD RETURNDATASIZE PUSH1 0x1F NOT PUSH1 0x1F DUP3 ADD AND DUP3 ADD DUP1 PUSH1 0x40 MSTORE POP DUP2 ADD SWAP1 PUSH2 0x2C10 SWAP2 SWAP1 PUSH2 0x4FD2 JUMP JUMPDEST SWAP6 POP PUSH1 0x0 PUSH2 0x2C1E DUP6 ADDRESS PUSH2 0x3FDF JUMP JUMPDEST SWAP1 POP PUSH2 0x2C2A DUP2 DUP4 PUSH2 0x19C9 JUMP JUMPDEST SWAP3 POP POP POP JUMPDEST DUP2 DUP2 LT ISZERO PUSH2 0x2CCA JUMPI DUP1 DUP3 SUB PUSH1 0x3 DUP5 PUSH1 0x60 ADD MLOAD PUSH1 0x5 DUP2 GT ISZERO PUSH2 0x2C4C JUMPI INVALID JUMPDEST EQ ISZERO PUSH2 0x2C8A JUMPI CALLVALUE DUP2 GT ISZERO PUSH2 0x2C72 JUMPI PUSH1 0x40 MLOAD PUSH3 0x461BCD PUSH1 0xE5 SHL DUP2 MSTORE PUSH1 0x4 ADD PUSH2 0x23D SWAP1 PUSH2 0x523A JUMP JUMPDEST PUSH2 0x2C82 DUP11 PUSH1 0x0 ADD MLOAD DUP3 CALLVALUE SUB PUSH2 0x2E1C JUMP JUMPDEST DUP3 SWAP2 POP PUSH2 0x2CC8 JUMP JUMPDEST PUSH1 0x0 PUSH2 0x2CAF DUP12 PUSH1 0x0 ADD MLOAD DUP14 PUSH1 0x40 ADD MLOAD PUSH2 0xFFFF AND PUSH2 0x2CA6 DUP6 PUSH2 0x1426 JUMP JUMPDEST DUP9 SWAP3 SWAP2 SWAP1 PUSH2 0x2953 JUMP JUMPDEST SWAP1 POP PUSH2 0x2CC4 PUSH2 0x2CBD DUP3 PUSH2 0x1974 JUMP JUMPDEST DUP5 SWAP1 PUSH2 0x3145 JUMP JUMPDEST SWAP3 POP POP JUMPDEST POP JUMPDEST DUP2 DUP2 LT ISZERO PUSH2 0x2CEA JUMPI PUSH1 0x40 MLOAD PUSH3 0x461BCD PUSH1 0xE5 SHL DUP2 MSTORE PUSH1 0x4 ADD PUSH2 0x23D SWAP1 PUSH2 0x523A JUMP JUMPDEST PUSH1 0x0 PUSH1 0x4 DUP6 PUSH1 0x60 ADD MLOAD PUSH1 0x5 DUP2 GT ISZERO PUSH2 0x2CFE JUMPI INVALID JUMPDEST EQ ISZERO PUSH2 0x2D14 JUMPI PUSH2 0x2D0D DUP3 PUSH2 0x1426 JUMP JUMPDEST SWAP1 POP PUSH2 0x2D2E JUMP JUMPDEST DUP2 ISZERO PUSH2 0x2D2E JUMPI PUSH1 0x40 DUP12 ADD MLOAD PUSH2 0x2D2B SWAP1 DUP7 SWAP1 DUP5 PUSH2 0x4089 JUMP JUMPDEST SWAP1 POP JUMPDEST PUSH2 0x2D38 DUP6 DUP3 PUSH2 0x300F JUMP JUMPDEST SWAP7 POP POP POP POP POP POP SWAP5 POP SWAP5 SWAP3 POP POP POP JUMP JUMPDEST PUSH2 0x140 DUP2 ADD MLOAD MLOAD PUSH1 0x0 SWAP1 PUSH2 0xFFFF AND ISZERO ISZERO DUP1 PUSH2 0xDCA JUMPI POP POP PUSH2 0x140 ADD MLOAD PUSH1 0x20 ADD MLOAD PUSH2 0xFFFF AND ISZERO ISZERO SWAP1 JUMP JUMPDEST PUSH1 0x0 PUSH4 0xFFFFFFFF DUP3 GT ISZERO PUSH2 0x143C JUMPI PUSH1 0x0 DUP1 REVERT JUMPDEST PUSH1 0x0 PUSH3 0xF4240 DUP3 PUSH1 0x1A DUP2 GT ISZERO PUSH2 0x2D96 JUMPI INVALID JUMPDEST ADD SWAP3 SWAP2 POP POP JUMP JUMPDEST PUSH1 0x0 DUP1 PUSH1 0x0 DUP1 PUSH1 0x0 DUP1 PUSH2 0x2DAE PUSH2 0x4170 JUMP JUMPDEST PUSH1 0x1 PUSH1 0x1 PUSH1 0xA0 SHL SUB SWAP1 SWAP8 AND PUSH1 0x0 SWAP1 DUP2 MSTORE PUSH1 0x20 SWAP8 SWAP1 SWAP8 MSTORE POP POP PUSH1 0x40 SWAP1 SWAP5 KECCAK256 SLOAD PUSH2 0xFFFF DUP2 AND SWAP6 PUSH4 0xFFFFFFFF PUSH3 0x10000 DUP4 DIV DUP2 AND SWAP7 POP PUSH7 0x1000000000000 DUP4 DIV AND SWAP5 POP PUSH1 0xFF PUSH1 0x1 PUSH1 0x50 SHL DUP4 DIV AND SWAP4 POP PUSH1 0x1 PUSH1 0x58 SHL SWAP1 SWAP2 DIV PUSH1 0xD8 SHL SWAP2 POP JUMP JUMPDEST PUSH2 0x2E11 PUSH2 0x4C8A JUMP JUMPDEST PUSH2 0xDCA DUP3 PUSH1 0x1 PUSH2 0x2EDA JUMP JUMPDEST PUSH1 0x40 MLOAD PUSH1 0x1 PUSH1 0x1 PUSH1 0xA0 SHL SUB DUP4 AND SWAP1 DUP3 ISZERO PUSH2 0x8FC MUL SWAP1 DUP4 SWAP1 PUSH1 0x0 DUP2 DUP2 DUP2 DUP6 DUP9 DUP9 CALL SWAP4 POP POP POP POP ISZERO DUP1 ISZERO PUSH2 0xC2A JUMPI RETURNDATASIZE PUSH1 0x0 DUP1 RETURNDATACOPY RETURNDATASIZE PUSH1 0x0 REVERT JUMPDEST DUP4 PUSH1 0x1 PUSH1 0x1 PUSH1 0xA0 SHL SUB AND PUSH4 0x23B872DD DUP5 DUP5 DUP5 PUSH1 0x40 MLOAD DUP5 PUSH4 0xFFFFFFFF AND PUSH1 0xE0 SHL DUP2 MSTORE PUSH1 0x4 ADD DUP1 DUP5 PUSH1 0x1 PUSH1 0x1 PUSH1 0xA0 SHL SUB AND DUP2 MSTORE PUSH1 0x20 ADD DUP4 PUSH1 0x1 PUSH1 0x1 PUSH1 0xA0 SHL SUB AND DUP2 MSTORE PUSH1 0x20 ADD DUP3 DUP2 MSTORE PUSH1 0x20 ADD SWAP4 POP POP POP POP PUSH1 0x0 PUSH1 0x40 MLOAD DUP1 DUP4 SUB DUP2 PUSH1 0x0 DUP8 DUP1 EXTCODESIZE ISZERO DUP1 ISZERO PUSH2 0x2EBA JUMPI PUSH1 0x0 DUP1 REVERT JUMPDEST POP GAS CALL ISZERO DUP1 ISZERO PUSH2 0x2ECE JUMPI RETURNDATASIZE PUSH1 0x0 DUP1 RETURNDATACOPY RETURNDATASIZE PUSH1 0x0 REVERT JUMPDEST POP POP POP POP PUSH2 0x1482 PUSH2 0x417D JUMP JUMPDEST PUSH2 0x2EE2 PUSH2 0x4C8A JUMP JUMPDEST PUSH1 0x0 PUSH2 0x2EEC PUSH2 0x41EA JUMP JUMPDEST PUSH1 0x0 DUP6 DUP2 MSTORE PUSH1 0x20 DUP3 DUP2 MSTORE PUSH1 0x40 DUP1 DUP4 KECCAK256 DUP8 ISZERO ISZERO DUP5 MSTORE DUP3 MSTORE SWAP2 DUP3 SWAP1 KECCAK256 DUP3 MLOAD PUSH1 0xA0 DUP2 ADD DUP5 MSTORE DUP2 SLOAD PUSH1 0x1 PUSH1 0x1 PUSH1 0xA0 SHL SUB DUP2 AND DUP3 MSTORE PUSH1 0xFF PUSH1 0x1 PUSH1 0xA0 SHL DUP3 DIV DUP2 AND ISZERO ISZERO SWAP5 DUP4 ADD SWAP5 SWAP1 SWAP5 MSTORE PUSH1 0x1 PUSH1 0xB0 SHL DUP2 DIV DUP5 AND PUSH1 0xA EXP SWAP5 DUP3 ADD SWAP5 SWAP1 SWAP5 MSTORE SWAP4 SWAP5 POP SWAP3 SWAP2 PUSH1 0x60 DUP4 ADD SWAP2 PUSH1 0x1 PUSH1 0xA8 SHL SWAP1 SWAP2 DIV AND PUSH1 0x5 DUP2 GT ISZERO PUSH2 0x2F61 JUMPI INVALID JUMPDEST DUP2 MSTORE SWAP2 SLOAD PUSH1 0x1 PUSH1 0xB8 SHL SWAP1 DIV PUSH9 0xFFFFFFFFFFFFFFFFFF AND PUSH1 0x20 SWAP1 SWAP3 ADD SWAP2 SWAP1 SWAP2 MSTORE SWAP5 SWAP4 POP POP POP POP JUMP JUMPDEST PUSH1 0x0 DUP2 PUSH2 0x2F97 JUMPI POP PUSH1 0x0 PUSH2 0xB78 JUMP JUMPDEST PUSH1 0x0 DUP3 SGT PUSH2 0x2FA4 JUMPI PUSH1 0x0 DUP1 REVERT JUMPDEST PUSH1 0x0 PUSH2 0x2FAF DUP5 PUSH2 0x2E09 JUMP JUMPDEST SWAP1 POP PUSH1 0x0 PUSH2 0x2FC0 DUP3 PUSH1 0x0 ADD MLOAD PUSH2 0x41F7 JUMP JUMPDEST SWAP1 POP PUSH1 0x2 DUP2 SDIV PUSH12 0x33B2E3C9FD0803CE8000000 PUSH1 0x1 PUSH1 0x1 PUSH1 0xFF SHL SUB DUP3 SWAP1 SUB SDIV DUP6 SGT ISZERO PUSH2 0x2FEB JUMPI PUSH1 0x0 DUP1 REVERT JUMPDEST DUP2 DUP2 PUSH12 0x33B2E3C9FD0803CE8000000 DUP8 MUL ADD DUP2 PUSH2 0x3004 JUMPI INVALID JUMPDEST SDIV SWAP7 SWAP6 POP POP POP POP POP POP JUMP JUMPDEST PUSH1 0x0 PUSH4 0x5F5E100 DUP4 PUSH1 0x40 ADD MLOAD EQ ISZERO PUSH2 0x3028 JUMPI POP DUP1 PUSH2 0xB78 JUMP JUMPDEST PUSH1 0x40 DUP4 ADD MLOAD PUSH2 0xB75 SWAP1 PUSH2 0x11FD DUP5 PUSH4 0x5F5E100 PUSH2 0x1E1A JUMP JUMPDEST PUSH1 0x0 DUP1 PUSH2 0x304A PUSH2 0x4282 JUMP JUMPDEST PUSH1 0x1 PUSH1 0x1 PUSH1 0xA0 SHL SUB DUP7 AND PUSH1 0x0 SWAP1 DUP2 MSTORE PUSH1 0x20 SWAP2 DUP3 MSTORE PUSH1 0x40 DUP1 DUP3 KECCAK256 PUSH2 0xFFFF DUP9 AND DUP4 MSTORE SWAP1 SWAP3 MSTORE KECCAK256 DUP1 SLOAD SWAP1 SWAP2 POP PUSH2 0x308D SWAP1 PUSH1 0x1 PUSH1 0x50 SHL SWAP1 DIV PUSH1 0x1 PUSH1 0x1 PUSH1 0x50 SHL SUB AND DUP5 PUSH2 0x2351 JUMP JUMPDEST SWAP2 POP PUSH1 0x0 DUP4 SLT ISZERO PUSH2 0x30C2 JUMPI DUP1 SLOAD PUSH1 0x1 PUSH1 0x1 PUSH1 0x50 SHL SUB AND DUP3 SGT ISZERO PUSH2 0x30C2 JUMPI PUSH1 0x40 MLOAD PUSH3 0x461BCD PUSH1 0xE5 SHL DUP2 MSTORE PUSH1 0x4 ADD PUSH2 0x23D SWAP1 PUSH2 0x52EA JUMP JUMPDEST PUSH2 0x30CE PUSH2 0xEB8 DUP4 PUSH2 0x1974 JUMP JUMPDEST DUP2 SLOAD PUSH1 0x1 PUSH1 0x1 PUSH1 0x50 SHL SUB SWAP2 SWAP1 SWAP2 AND PUSH1 0x1 PUSH1 0x50 SHL MUL PUSH1 0x1 PUSH1 0x50 SHL PUSH1 0x1 PUSH1 0xA0 SHL SUB NOT SWAP1 SWAP2 AND OR DUP2 SSTORE PUSH1 0x40 MLOAD PUSH2 0xFFFF DUP6 AND SWAP1 PUSH1 0x1 PUSH1 0x1 PUSH1 0xA0 SHL SUB DUP8 AND SWAP1 PUSH32 0x20478EF460E49D010960D4F3FFF35D8DAE385443ABFAC09035D6A2CCBCD834C4 SWAP1 PUSH2 0x3135 SWAP1 DUP7 SWAP1 PUSH2 0x515F JUMP JUMPDEST PUSH1 0x40 MLOAD DUP1 SWAP2 SUB SWAP1 LOG3 POP SWAP4 SWAP3 POP POP POP JUMP JUMPDEST PUSH1 0x0 DUP3 DUP3 ADD DUP4 DUP2 LT ISZERO PUSH2 0xB75 JUMPI PUSH1 0x0 DUP1 REVERT JUMPDEST PUSH1 0x0 PUSH2 0x319E DUP8 PUSH1 0x40 MLOAD DUP1 PUSH1 0xA0 ADD PUSH1 0x40 MSTORE DUP1 DUP10 PUSH1 0x1 PUSH1 0x1 PUSH1 0xA0 SHL SUB AND DUP2 MSTORE PUSH1 0x20 ADD DUP10 PUSH1 0x1 PUSH1 0x1 PUSH1 0xA0 SHL SUB AND DUP2 MSTORE PUSH1 0x20 ADD DUP9 DUP2 MSTORE PUSH1 0x20 ADD DUP8 DUP2 MSTORE PUSH1 0x20 ADD PUSH1 0x0 DUP2 MSTORE POP DUP6 DUP6 PUSH2 0x2A9B JUMP JUMPDEST POP SWAP8 SWAP7 POP POP POP POP POP POP POP JUMP JUMPDEST PUSH1 0x0 DUP2 PUSH2 0x31B9 JUMPI POP PUSH1 0x0 PUSH2 0xB78 JUMP JUMPDEST PUSH1 0x0 PUSH2 0x31C4 DUP5 PUSH2 0x41F7 JUMP JUMPDEST SWAP1 POP PUSH1 0x0 PUSH2 0x31D1 DUP5 PUSH2 0x3309 JUMP JUMPDEST SWAP1 POP DUP2 PUSH12 0x19D971E4FE8401E74000001 PUSH1 0x1 PUSH1 0xFF SHL SUB DUP2 PUSH2 0x31EE JUMPI INVALID JUMPDEST SDIV DUP2 SGT ISZERO PUSH2 0x31FB JUMPI PUSH1 0x0 DUP1 REVERT JUMPDEST PUSH12 0x33B2E3C9FD0803CE8000000 PUSH12 0x19D971E4FE8401E74000000 DUP4 DUP4 MUL ADD SDIV PUSH1 0x0 DUP6 SGT PUSH2 0x3230 JUMPI PUSH2 0x322B DUP2 PUSH2 0xDBC JUMP JUMPDEST PUSH2 0x2A91 JUMP JUMPDEST SWAP6 SWAP5 POP POP POP POP POP JUMP JUMPDEST PUSH1 0x0 DUP1 PUSH2 0xB78 PUSH1 0x14 PUSH2 0x2D84 JUMP JUMPDEST PUSH1 0x0 DUP1 PUSH1 0x0 DUP1 PUSH1 0x0 PUSH2 0x3257 DUP7 PUSH2 0x428F JUMP JUMPDEST SWAP1 SWAP3 POP SWAP1 POP PUSH1 0x0 PUSH1 0x1 PUSH1 0x1 PUSH1 0xA0 SHL SUB DUP4 AND PUSH2 0x327C JUMPI POP PUSH1 0x0 SWAP1 POP PUSH5 0x2540BE400 PUSH2 0x32FE JUMP JUMPDEST DUP3 PUSH1 0x1 PUSH1 0x1 PUSH1 0xA0 SHL SUB AND PUSH4 0x1EE10833 PUSH1 0x40 MLOAD DUP2 PUSH4 0xFFFFFFFF AND PUSH1 0xE0 SHL DUP2 MSTORE PUSH1 0x4 ADD PUSH1 0x20 PUSH1 0x40 MLOAD DUP1 DUP4 SUB DUP2 PUSH1 0x0 DUP8 DUP1 EXTCODESIZE ISZERO DUP1 ISZERO PUSH2 0x32B7 JUMPI PUSH1 0x0 DUP1 REVERT JUMPDEST POP GAS CALL ISZERO DUP1 ISZERO PUSH2 0x32CB JUMPI RETURNDATASIZE PUSH1 0x0 DUP1 RETURNDATACOPY RETURNDATASIZE PUSH1 0x0 REVERT JUMPDEST POP POP POP POP PUSH1 0x40 MLOAD RETURNDATASIZE PUSH1 0x1F NOT PUSH1 0x1F DUP3 ADD AND DUP3 ADD DUP1 PUSH1 0x40 MSTORE POP DUP2 ADD SWAP1 PUSH2 0x32EF SWAP2 SWAP1 PUSH2 0x4FD2 JUMP JUMPDEST SWAP1 POP PUSH1 0x0 DUP2 SGT PUSH2 0x32FE JUMPI PUSH1 0x0 DUP1 REVERT JUMPDEST SWAP7 SWAP2 SWAP6 POP SWAP4 POP SWAP2 POP POP JUMP JUMPDEST PUSH1 0x0 DUP1 DUP3 SLT ISZERO PUSH2 0x3323 JUMPI PUSH2 0x331C DUP3 PUSH2 0xDBC JUMP JUMPDEST SWAP1 POP PUSH2 0xDCD JUMP JUMPDEST POP DUP1 PUSH2 0xDCD JUMP JUMPDEST PUSH1 0x0 PUSH2 0x3354 PUSH4 0x1DA9C00 PUSH2 0x11FD PUSH2 0x3349 PUSH2 0x3344 DUP8 DUP8 PUSH2 0x19C9 JUMP JUMPDEST PUSH2 0x1426 JUMP JUMPDEST PUSH1 0x80 DUP11 ADD MLOAD SWAP1 PUSH2 0x1E1A JUMP JUMPDEST SWAP1 POP PUSH1 0x0 PUSH2 0x3362 DUP6 DUP4 PUSH2 0x2380 JUMP JUMPDEST SWAP1 POP PUSH1 0x0 PUSH2 0x3382 PUSH1 0x64 PUSH2 0x11FD DUP11 PUSH1 0xE0 ADD MLOAD DUP6 PUSH2 0x1E1A SWAP1 SWAP2 SWAP1 PUSH4 0xFFFFFFFF AND JUMP JUMPDEST SWAP1 POP PUSH1 0x0 PUSH2 0x3390 DUP4 DUP4 PUSH2 0x2351 JUMP JUMPDEST SWAP1 POP PUSH2 0x33A4 DUP10 PUSH1 0x40 ADD MLOAD PUSH2 0xFFFF AND DUP4 PUSH2 0x42C6 JUMP JUMPDEST PUSH2 0x33B6 DUP10 PUSH1 0x40 ADD MLOAD PUSH2 0xFFFF AND DUP3 PUSH2 0x434D JUMP JUMPDEST PUSH1 0x80 DUP9 ADD MLOAD PUSH2 0x33C5 SWAP1 DUP5 PUSH2 0x2351 JUMP JUMPDEST DUP9 PUSH1 0x80 ADD DUP2 DUP2 MSTORE POP POP DUP6 DUP10 PUSH1 0x40 ADD MLOAD PUSH2 0xFFFF AND DUP11 PUSH1 0x0 ADD MLOAD PUSH1 0x1 PUSH1 0x1 PUSH1 0xA0 SHL SUB AND PUSH32 0x7456CB4B7C3068832FB334A03D3CD8E440286BAD834CB9E332DF05AE6792CFBB DUP6 DUP6 PUSH1 0x40 MLOAD PUSH2 0x3417 SWAP3 SWAP2 SWAP1 PUSH2 0x5168 JUMP JUMPDEST PUSH1 0x40 MLOAD DUP1 SWAP2 SUB SWAP1 LOG4 POP POP POP POP POP POP POP POP POP JUMP JUMPDEST PUSH1 0x0 DUP1 PUSH2 0x3436 DUP4 PUSH2 0x4399 JUMP JUMPDEST PUSH1 0xFF AND SWAP4 SWAP3 POP POP POP JUMP JUMPDEST PUSH1 0x0 DUP1 PUSH1 0x0 DUP6 GT PUSH2 0x3463 JUMPI PUSH1 0x40 MLOAD PUSH3 0x461BCD PUSH1 0xE5 SHL DUP2 MSTORE PUSH1 0x4 ADD PUSH2 0x23D SWAP1 PUSH2 0x526A JUMP JUMPDEST PUSH1 0x7 DUP6 GT ISZERO PUSH2 0x3484 JUMPI PUSH1 0x40 MLOAD PUSH3 0x461BCD PUSH1 0xE5 SHL DUP2 MSTORE PUSH1 0x4 ADD PUSH2 0x23D SWAP1 PUSH2 0x5335 JUMP JUMPDEST PUSH1 0x0 PUSH2 0x348F DUP5 PUSH2 0x43B6 JUMP JUMPDEST SWAP1 POP PUSH1 0x1 JUMPDEST DUP7 DUP2 GT PUSH2 0x34E7 JUMPI PUSH1 0x0 PUSH2 0x34B0 PUSH2 0x34A9 DUP4 PUSH2 0x43D4 JUMP JUMPDEST DUP5 SWAP1 PUSH2 0x4478 JUMP JUMPDEST SWAP1 POP DUP7 DUP2 EQ ISZERO PUSH2 0x34C8 JUMPI POP SWAP3 POP PUSH1 0x0 SWAP2 POP PUSH2 0x3500 SWAP1 POP JUMP JUMPDEST DUP7 DUP2 GT ISZERO PUSH2 0x34DE JUMPI POP SWAP3 POP PUSH1 0x1 SWAP2 POP PUSH2 0x3500 SWAP1 POP JUMP JUMPDEST POP PUSH1 0x1 ADD PUSH2 0x3494 JUMP JUMPDEST POP PUSH1 0x40 MLOAD PUSH3 0x461BCD PUSH1 0xE5 SHL DUP2 MSTORE PUSH1 0x4 ADD PUSH2 0x23D SWAP1 PUSH2 0x54BA JUMP JUMPDEST SWAP4 POP SWAP4 SWAP2 POP POP JUMP JUMPDEST PUSH1 0x0 DUP5 PUSH1 0xA0 ADD MLOAD PUSH1 0x0 EQ ISZERO PUSH2 0x351E JUMPI POP DUP2 PUSH2 0x3540 JUMP JUMPDEST PUSH2 0x353D DUP6 PUSH1 0xA0 ADD MLOAD PUSH2 0xA01 DUP8 PUSH1 0x60 ADD MLOAD DUP7 PUSH2 0x1983 SWAP1 SWAP2 SWAP1 PUSH4 0xFFFFFFFF AND JUMP JUMPDEST SWAP1 POP JUMPDEST PUSH1 0xA0 DUP6 ADD MLOAD PUSH2 0x354F SWAP1 DUP5 PUSH2 0x3145 JUMP JUMPDEST PUSH1 0xA0 DUP7 ADD MSTORE PUSH1 0x60 DUP6 ADD MLOAD PUSH2 0x3563 SWAP1 DUP3 PUSH2 0x3145 JUMP JUMPDEST PUSH1 0x60 DUP7 ADD MSTORE PUSH1 0x40 DUP5 ADD MLOAD PUSH2 0x3577 SWAP1 DUP3 PUSH2 0x3145 JUMP JUMPDEST PUSH1 0x40 DUP6 ADD MSTORE PUSH2 0x1A09 DUP6 DUP4 PUSH2 0xE60 JUMP JUMPDEST PUSH1 0x0 DUP1 PUSH2 0x359C DUP10 PUSH1 0x0 ADD MLOAD DUP11 PUSH1 0x40 ADD MLOAD DUP10 PUSH2 0x1306 JUMP JUMPDEST DUP10 MLOAD SWAP1 SWAP2 POP PUSH1 0x1 PUSH1 0x1 PUSH1 0xA0 SHL SUB AND PUSH4 0xDC6679C5 DUP10 PUSH2 0x35BA DUP5 DUP10 PUSH2 0x3145 JUMP JUMPDEST DUP10 DUP9 DUP9 PUSH1 0x40 MLOAD DUP7 PUSH4 0xFFFFFFFF AND PUSH1 0xE0 SHL DUP2 MSTORE PUSH1 0x4 ADD PUSH2 0x35DD SWAP6 SWAP5 SWAP4 SWAP3 SWAP2 SWAP1 PUSH2 0x5126 JUMP JUMPDEST PUSH1 0x20 PUSH1 0x40 MLOAD DUP1 DUP4 SUB DUP2 PUSH1 0x0 DUP8 DUP1 EXTCODESIZE ISZERO DUP1 ISZERO PUSH2 0x35F7 JUMPI PUSH1 0x0 DUP1 REVERT JUMPDEST POP GAS CALL ISZERO DUP1 ISZERO PUSH2 0x360B JUMPI RETURNDATASIZE PUSH1 0x0 DUP1 RETURNDATACOPY RETURNDATASIZE PUSH1 0x0 REVERT JUMPDEST POP POP POP POP PUSH1 0x40 MLOAD RETURNDATASIZE PUSH1 0x1F NOT PUSH1 0x1F DUP3 ADD AND DUP3 ADD DUP1 PUSH1 0x40 MSTORE POP DUP2 ADD SWAP1 PUSH2 0x362F SWAP2 SWAP1 PUSH2 0x4FD2 JUMP JUMPDEST SWAP10 SWAP9 POP POP POP POP POP POP POP POP POP JUMP JUMPDEST PUSH1 0x0 DUP1 PUSH1 0x0 DUP1 PUSH1 0x0 PUSH2 0x364D DUP7 PUSH2 0x428F JUMP JUMPDEST SWAP1 SWAP3 POP SWAP1 POP PUSH1 0x0 PUSH1 0x1 PUSH1 0x1 PUSH1 0xA0 SHL SUB DUP4 AND PUSH2 0x3672 JUMPI POP PUSH1 0x0 SWAP1 POP PUSH5 0x2540BE400 PUSH2 0x32FE JUMP JUMPDEST DUP3 PUSH1 0x1 PUSH1 0x1 PUSH1 0xA0 SHL SUB AND PUSH4 0xB2FFFB04 PUSH1 0x40 MLOAD DUP2 PUSH4 0xFFFFFFFF AND PUSH1 0xE0 SHL DUP2 MSTORE PUSH1 0x4 ADD PUSH1 0x20 PUSH1 0x40 MLOAD DUP1 DUP4 SUB DUP2 DUP7 DUP1 EXTCODESIZE ISZERO DUP1 ISZERO PUSH2 0x36AB JUMPI PUSH1 0x0 DUP1 REVERT JUMPDEST POP GAS STATICCALL ISZERO DUP1 ISZERO PUSH2 0x32CB JUMPI RETURNDATASIZE PUSH1 0x0 DUP1 RETURNDATACOPY RETURNDATASIZE PUSH1 0x0 REVERT JUMPDEST PUSH1 0x0 DUP1 PUSH2 0x36CF DUP8 PUSH2 0xFFFF AND PUSH2 0x2E09 JUMP JUMPDEST SWAP1 POP DUP1 PUSH1 0x40 ADD MLOAD PUSH1 0x0 EQ ISZERO PUSH2 0x36EE JUMPI PUSH2 0x36EB DUP8 PUSH2 0xFFFF AND PUSH2 0x1878 JUMP JUMPDEST SWAP1 POP JUMPDEST PUSH1 0x40 MLOAD PUSH4 0xE9377111 PUSH1 0xE0 SHL DUP2 MSTORE PUSH2 0x3779 SWAP1 PUSH1 0x1 PUSH1 0x1 PUSH1 0xA0 SHL SUB DUP9 AND SWAP1 PUSH4 0xE9377111 SWAP1 PUSH2 0x3722 SWAP1 DUP10 SWAP1 DUP10 SWAP1 DUP10 SWAP1 PUSH1 0x4 ADD PUSH2 0x5105 JUMP JUMPDEST PUSH1 0x20 PUSH1 0x40 MLOAD DUP1 DUP4 SUB DUP2 DUP7 DUP1 EXTCODESIZE ISZERO DUP1 ISZERO PUSH2 0x373A JUMPI PUSH1 0x0 DUP1 REVERT JUMPDEST POP GAS STATICCALL ISZERO DUP1 ISZERO PUSH2 0x374E JUMPI RETURNDATASIZE PUSH1 0x0 DUP1 RETURNDATACOPY RETURNDATASIZE PUSH1 0x0 REVERT JUMPDEST POP POP POP POP PUSH1 0x40 MLOAD RETURNDATASIZE PUSH1 0x1F NOT PUSH1 0x1F DUP3 ADD AND DUP3 ADD DUP1 PUSH1 0x40 MSTORE POP DUP2 ADD SWAP1 PUSH2 0x3772 SWAP2 SWAP1 PUSH2 0x4FD2 JUMP JUMPDEST DUP3 SWAP1 PUSH2 0x300F JUMP JUMPDEST SWAP8 SWAP7 POP POP POP POP POP POP POP JUMP JUMPDEST PUSH2 0x378C PUSH2 0x4CE3 JUMP JUMPDEST PUSH1 0x0 PUSH2 0x3796 PUSH2 0x44D2 JUMP JUMPDEST PUSH1 0x0 DUP5 DUP2 MSTORE PUSH1 0x20 DUP3 SWAP1 MSTORE PUSH1 0x40 DUP2 KECCAK256 SWAP2 SWAP3 POP DUP1 PUSH1 0x1 DUP7 EQ ISZERO PUSH2 0x37C3 JUMPI POP PUSH8 0xDE0B6B3A7640000 SWAP1 POP DUP1 PUSH2 0x3899 JUMP JUMPDEST DUP3 SLOAD PUSH1 0x40 DUP1 MLOAD PUSH4 0x3FABE5A3 PUSH1 0xE2 SHL DUP2 MSTORE SWAP1 MLOAD PUSH1 0x1 PUSH1 0x1 PUSH1 0xA0 SHL SUB SWAP1 SWAP3 AND SWAP2 PUSH4 0xFEAF968C SWAP2 PUSH1 0x4 DUP1 DUP3 ADD SWAP3 PUSH1 0xA0 SWAP3 SWAP1 SWAP2 SWAP1 DUP3 SWAP1 SUB ADD DUP2 DUP7 DUP1 EXTCODESIZE ISZERO DUP1 ISZERO PUSH2 0x3807 JUMPI PUSH1 0x0 DUP1 REVERT JUMPDEST POP GAS STATICCALL ISZERO DUP1 ISZERO PUSH2 0x381B JUMPI RETURNDATASIZE PUSH1 0x0 DUP1 RETURNDATACOPY RETURNDATASIZE PUSH1 0x0 REVERT JUMPDEST POP POP POP POP PUSH1 0x40 MLOAD RETURNDATASIZE PUSH1 0x1F NOT PUSH1 0x1F DUP3 ADD AND DUP3 ADD DUP1 PUSH1 0x40 MSTORE POP DUP2 ADD SWAP1 PUSH2 0x383F SWAP2 SWAP1 PUSH2 0x4FEA JUMP JUMPDEST POP SWAP2 SWAP4 POP POP PUSH1 0x0 DUP4 SGT SWAP2 POP PUSH2 0x3868 SWAP1 POP JUMPI PUSH1 0x40 MLOAD PUSH3 0x461BCD PUSH1 0xE5 SHL DUP2 MSTORE PUSH1 0x4 ADD PUSH2 0x23D SWAP1 PUSH2 0x53FC JUMP JUMPDEST DUP3 SLOAD PUSH1 0xFF PUSH1 0x1 PUSH1 0xA0 SHL DUP3 DIV DUP2 AND PUSH1 0xA EXP SWAP4 POP PUSH1 0x1 PUSH1 0xA8 SHL SWAP1 SWAP2 DIV AND ISZERO PUSH2 0x3899 JUMPI PUSH2 0x3896 DUP2 PUSH2 0x11FD DUP5 DUP1 PUSH2 0x1E1A JUMP JUMPDEST SWAP1 POP JUMPDEST PUSH1 0x40 DUP1 MLOAD PUSH1 0xA0 DUP2 ADD DUP3 MSTORE SWAP3 DUP4 MSTORE PUSH1 0x20 DUP4 ADD SWAP2 SWAP1 SWAP2 MSTORE SWAP2 SLOAD PUSH1 0xFF PUSH1 0x1 PUSH1 0xB0 SHL DUP3 DIV DUP2 AND SWAP4 DUP4 ADD SWAP4 SWAP1 SWAP4 MSTORE PUSH1 0x1 PUSH1 0xB8 SHL DUP2 DIV DUP4 AND PUSH1 0x60 DUP4 ADD MSTORE PUSH1 0x1 PUSH1 0xC0 SHL SWAP1 DIV SWAP1 SWAP2 AND PUSH1 0x80 DUP3 ADD MSTORE SWAP2 POP POP SWAP2 SWAP1 POP JUMP JUMPDEST PUSH1 0x0 DUP1 PUSH2 0x38F2 PUSH2 0x44DF JUMP JUMPDEST PUSH1 0x1 PUSH1 0x1 PUSH1 0xA0 SHL SUB DUP7 AND PUSH1 0x0 SWAP1 DUP2 MSTORE PUSH1 0x20 SWAP2 DUP3 MSTORE PUSH1 0x40 DUP1 DUP3 KECCAK256 DUP8 DUP4 MSTORE DUP4 MSTORE DUP1 DUP3 KECCAK256 PUSH2 0xFFFF DUP11 AND DUP4 MSTORE SWAP1 SWAP3 MSTORE SWAP1 DUP2 KECCAK256 DUP1 SLOAD SWAP1 SWAP3 POP PUSH1 0x1 PUSH1 0x1 PUSH1 0x50 SHL SUB DUP1 DUP3 AND SWAP3 PUSH1 0x1 PUSH1 0x50 SHL SWAP1 SWAP3 DIV AND SWAP1 PUSH2 0x394C PUSH2 0x3344 DUP4 PUSH2 0xA01 DUP10 DUP8 PUSH2 0x1983 JUMP JUMPDEST SWAP1 POP PUSH1 0x0 PUSH2 0x395D DUP11 PUSH2 0xFFFF AND PUSH2 0x3784 JUMP JUMPDEST SWAP1 POP PUSH1 0x0 PUSH2 0x396B DUP13 DUP4 PUSH2 0x44EC JUMP JUMPDEST SWAP1 POP PUSH2 0x1BB9 DUP2 PUSH2 0x11FD DUP15 PUSH1 0x0 ADD MLOAD DUP7 PUSH2 0x1E1A SWAP1 SWAP2 SWAP1 PUSH4 0xFFFFFFFF AND JUMP JUMPDEST PUSH1 0x0 DUP1 PUSH1 0x0 PUSH2 0x3995 PUSH2 0x39D1 JUMP JUMPDEST PUSH1 0x0 SWAP6 DUP7 MSTORE PUSH1 0x20 SWAP1 DUP2 MSTORE PUSH1 0x40 DUP1 DUP8 KECCAK256 SWAP6 DUP8 MSTORE SWAP5 SWAP1 MSTORE POP POP POP SWAP1 KECCAK256 SLOAD PUSH6 0x10000000000 DUP2 DIV PUSH1 0x1 PUSH1 0x1 PUSH1 0x80 SHL SUB AND SWAP2 PUSH1 0x1 PUSH1 0xA8 SHL SWAP1 SWAP2 DIV PUSH1 0xFF AND SWAP1 JUMP JUMPDEST PUSH1 0x0 DUP1 PUSH2 0xB78 PUSH1 0x8 PUSH2 0x2D84 JUMP JUMPDEST PUSH1 0x0 DUP1 PUSH2 0xFFFF DUP5 AND PUSH2 0x39F5 JUMPI POP PUSH1 0x0 SWAP1 POP DUP1 PUSH2 0x3A69 JUMP JUMPDEST PUSH1 0x0 PUSH2 0x39FF PUSH2 0x44DF JUMP JUMPDEST PUSH1 0x1 PUSH1 0x1 PUSH1 0xA0 SHL SUB DUP9 AND PUSH1 0x0 SWAP1 DUP2 MSTORE PUSH1 0x20 SWAP2 DUP3 MSTORE PUSH1 0x40 DUP1 DUP3 KECCAK256 DUP10 DUP4 MSTORE DUP4 MSTORE DUP1 DUP3 KECCAK256 PUSH2 0xFFFF DUP10 AND DUP4 MSTORE SWAP1 SWAP3 MSTORE KECCAK256 DUP1 SLOAD SWAP1 SWAP2 POP PUSH1 0x1 PUSH1 0x1 PUSH1 0x50 SHL SUB PUSH1 0x1 PUSH1 0xA0 SHL DUP3 DIV DUP2 AND SWAP2 PUSH1 0x1 PUSH1 0x50 SHL SWAP1 DIV AND DUP6 ISZERO PUSH2 0x3A64 JUMPI PUSH2 0x3A61 PUSH2 0x3344 DUP3 PUSH2 0xA01 DUP10 DUP7 PUSH2 0x1983 JUMP JUMPDEST SWAP4 POP JUMPDEST POP SWAP3 POP POP JUMPDEST SWAP5 POP SWAP5 SWAP3 POP POP POP JUMP JUMPDEST PUSH1 0x0 DUP1 PUSH2 0xB78 PUSH1 0x19 PUSH2 0x2D84 JUMP JUMPDEST PUSH1 0x0 PUSH2 0x3A8C DUP6 PUSH1 0x0 PUSH2 0x4511 JUMP JUMPDEST DUP5 PUSH1 0x1 PUSH1 0x1 PUSH1 0xA0 SHL SUB AND PUSH32 0x7C51C6AA77346C54CB051D9E792F9B7BDE5C28A9B57E6FB2D2DD727B38438CA9 PUSH1 0x0 PUSH1 0x40 MLOAD PUSH2 0x3AC6 SWAP2 SWAP1 PUSH2 0x5154 JUMP JUMPDEST PUSH1 0x40 MLOAD DUP1 SWAP2 SUB SWAP1 LOG2 DUP2 DUP5 PUSH2 0xFFFF AND DUP7 PUSH1 0x1 PUSH1 0x1 PUSH1 0xA0 SHL SUB AND PUSH32 0x823B641D46550301006F807A26587634F15BD13749EFDC8859734377D5304A3B DUP7 PUSH1 0x40 MLOAD PUSH2 0x3B0D SWAP2 SWAP1 PUSH2 0x515F JUMP JUMPDEST PUSH1 0x40 MLOAD DUP1 SWAP2 SUB SWAP1 LOG4 PUSH1 0x0 PUSH2 0x3B26 PUSH1 0x0 DUP7 PUSH2 0xFFFF AND PUSH2 0x4571 JUMP JUMPDEST POP POP POP SWAP1 POP DUP1 DUP5 SGT PUSH2 0x3B46 JUMPI PUSH2 0x3B3E DUP6 DUP6 DUP4 SUB PUSH2 0x461A JUMP JUMPDEST DUP4 SWAP2 POP PUSH2 0x3B9E JUMP JUMPDEST PUSH2 0x3B51 DUP6 PUSH1 0x0 PUSH2 0x461A JUMP JUMPDEST DUP3 DUP6 PUSH2 0xFFFF AND DUP8 PUSH1 0x1 PUSH1 0x1 PUSH1 0xA0 SHL SUB AND PUSH32 0x3A717B6924E3AD05B8C7609A2401472AF90869B52CC3C9CA69B50100B4BE6316 DUP5 DUP9 SUB PUSH1 0x40 MLOAD PUSH2 0x3B92 SWAP2 SWAP1 PUSH2 0x515F JUMP JUMPDEST PUSH1 0x40 MLOAD DUP1 SWAP2 SUB SWAP1 LOG4 DUP1 SWAP2 POP JUMPDEST POP SWAP5 SWAP4 POP POP POP POP JUMP JUMPDEST PUSH1 0x0 PUSH10 0x7FFFFFFFFFFFFFFFFFFF NOT DUP3 SLT DUP1 ISZERO SWAP1 PUSH2 0x3BCE JUMPI POP PUSH10 0x7FFFFFFFFFFFFFFFFFFF DUP3 SGT ISZERO JUMPDEST PUSH2 0x143C JUMPI PUSH1 0x0 DUP1 REVERT JUMPDEST PUSH1 0x0 DUP1 DUP1 DUP1 PUSH1 0x5 DUP8 PUSH1 0x60 ADD MLOAD PUSH1 0x5 DUP2 GT ISZERO PUSH2 0x3BEE JUMPI INVALID JUMPDEST EQ PUSH2 0x3C00 JUMPI PUSH4 0x70A08231 PUSH1 0xE0 SHL PUSH2 0x3C09 JUMP JUMPDEST PUSH4 0xED1279F PUSH1 0xE1 SHL JUMPDEST SWAP1 POP DUP7 PUSH1 0x20 ADD MLOAD ISZERO PUSH2 0x3C25 JUMPI DUP7 MLOAD PUSH2 0x3C22 SWAP1 ADDRESS DUP4 PUSH2 0x467D JUMP JUMPDEST SWAP3 POP JUMPDEST DUP7 MLOAD PUSH2 0x3C32 SWAP1 DUP8 DUP8 PUSH2 0x478F JUMP JUMPDEST DUP7 PUSH1 0x20 ADD MLOAD DUP1 PUSH2 0x3C46 JUMPI POP PUSH1 0x0 DUP8 PUSH1 0x80 ADD MLOAD GT JUMPDEST ISZERO PUSH2 0x3C5B JUMPI DUP7 MLOAD PUSH2 0x3C58 SWAP1 ADDRESS DUP4 PUSH2 0x467D JUMP JUMPDEST SWAP2 POP JUMPDEST PUSH1 0x80 DUP8 ADD MLOAD ISZERO PUSH2 0x3C96 JUMPI PUSH1 0x0 PUSH2 0x3C79 DUP9 PUSH2 0x3C74 DUP6 PUSH2 0x1426 JUMP JUMPDEST PUSH2 0x300F JUMP JUMPDEST SWAP1 POP PUSH2 0x3C88 DUP9 PUSH1 0x80 ADD MLOAD PUSH2 0x1426 JUMP JUMPDEST DUP2 SGT ISZERO PUSH2 0x3C94 JUMPI PUSH1 0x0 DUP1 REVERT JUMPDEST POP JUMPDEST DUP7 PUSH1 0x20 ADD MLOAD ISZERO PUSH2 0x3CB7 JUMPI PUSH2 0x3CAD PUSH2 0x3344 DUP4 DUP6 PUSH2 0x47E7 JUMP JUMPDEST SWAP4 POP POP POP POP PUSH2 0x13A8 JUMP JUMPDEST PUSH2 0x3CAD DUP6 PUSH2 0x1426 JUMP JUMPDEST DUP3 PUSH1 0x1 PUSH1 0x1 PUSH1 0xA0 SHL SUB AND PUSH4 0xA9059CBB DUP4 DUP4 PUSH1 0x40 MLOAD DUP4 PUSH4 0xFFFFFFFF AND PUSH1 0xE0 SHL DUP2 MSTORE PUSH1 0x4 ADD DUP1 DUP4 PUSH1 0x1 PUSH1 0x1 PUSH1 0xA0 SHL SUB AND DUP2 MSTORE PUSH1 0x20 ADD DUP3 DUP2 MSTORE PUSH1 0x20 ADD SWAP3 POP POP POP PUSH1 0x0 PUSH1 0x40 MLOAD DUP1 DUP4 SUB DUP2 PUSH1 0x0 DUP8 DUP1 EXTCODESIZE ISZERO DUP1 ISZERO PUSH2 0x3D17 JUMPI PUSH1 0x0 DUP1 REVERT JUMPDEST POP GAS CALL ISZERO DUP1 ISZERO PUSH2 0x3D2B JUMPI RETURNDATASIZE PUSH1 0x0 DUP1 RETURNDATACOPY RETURNDATASIZE PUSH1 0x0 REVERT JUMPDEST POP POP POP POP PUSH2 0xC2A PUSH2 0x417D JUMP JUMPDEST DUP3 MLOAD PUSH1 0x40 MLOAD PUSH4 0xDB006A75 PUSH1 0xE0 SHL DUP2 MSTORE PUSH1 0x0 SWAP2 SELFBALANCE SWAP2 DUP4 SWAP2 PUSH1 0x1 PUSH1 0x1 PUSH1 0xA0 SHL SUB AND SWAP1 PUSH4 0xDB006A75 SWAP1 PUSH2 0x3D6B SWAP1 DUP8 SWAP1 PUSH1 0x4 ADD PUSH2 0x515F JUMP JUMPDEST PUSH1 0x20 PUSH1 0x40 MLOAD DUP1 DUP4 SUB DUP2 PUSH1 0x0 DUP8 DUP1 EXTCODESIZE ISZERO DUP1 ISZERO PUSH2 0x3D85 JUMPI PUSH1 0x0 DUP1 REVERT JUMPDEST POP GAS CALL ISZERO DUP1 ISZERO PUSH2 0x3D99 JUMPI RETURNDATASIZE PUSH1 0x0 DUP1 RETURNDATACOPY RETURNDATASIZE PUSH1 0x0 REVERT JUMPDEST POP POP POP POP PUSH1 0x40 MLOAD RETURNDATASIZE PUSH1 0x1F NOT PUSH1 0x1F DUP3 ADD AND DUP3 ADD DUP1 PUSH1 0x40 MSTORE POP DUP2 ADD SWAP1 PUSH2 0x3DBD SWAP2 SWAP1 PUSH2 0x4FD2 JUMP JUMPDEST SWAP1 POP DUP1 ISZERO PUSH2 0x3DDD JUMPI PUSH1 0x40 MLOAD PUSH3 0x461BCD PUSH1 0xE5 SHL DUP2 MSTORE PUSH1 0x4 ADD PUSH2 0x23D SWAP1 PUSH2 0x521A JUMP JUMPDEST SELFBALANCE PUSH2 0x3DE8 DUP2 DUP5 PUSH2 0x47E7 JUMP JUMPDEST SWAP4 POP PUSH2 0x1799 DUP7 DUP6 PUSH2 0x2E1C JUMP JUMPDEST PUSH1 0x0 PUSH2 0x3E0F PUSH2 0xEB3 DUP6 PUSH1 0x0 ADD MLOAD PUSH2 0x3E0A DUP6 PUSH2 0x1426 JUMP JUMPDEST PUSH2 0x31AA JUMP JUMPDEST SWAP1 POP PUSH2 0x3E19 PUSH2 0x483E JUMP JUMPDEST SLOAD DUP5 MLOAD PUSH1 0x40 MLOAD PUSH4 0x1A4CA37B PUSH1 0xE2 SHL DUP2 MSTORE PUSH1 0x1 PUSH1 0x1 PUSH1 0xA0 SHL SUB SWAP1 SWAP3 AND SWAP2 PUSH4 0x69328DEC SWAP2 PUSH2 0x3E4B SWAP2 DUP6 SWAP1 DUP9 SWAP1 PUSH1 0x4 ADD PUSH2 0x50B5 JUMP JUMPDEST PUSH1 0x20 PUSH1 0x40 MLOAD DUP1 DUP4 SUB DUP2 PUSH1 0x0 DUP8 DUP1 EXTCODESIZE ISZERO DUP1 ISZERO PUSH2 0x3E65 JUMPI PUSH1 0x0 DUP1 REVERT JUMPDEST POP GAS CALL ISZERO DUP1 ISZERO PUSH2 0x3E79 JUMPI RETURNDATASIZE PUSH1 0x0 DUP1 RETURNDATACOPY RETURNDATASIZE PUSH1 0x0 REVERT JUMPDEST POP POP POP POP PUSH1 0x40 MLOAD RETURNDATASIZE PUSH1 0x1F NOT PUSH1 0x1F DUP3 ADD AND DUP3 ADD DUP1 PUSH1 0x40 MSTORE POP DUP2 ADD SWAP1 PUSH2 0x3E9D SWAP2 SWAP1 PUSH2 0x4FD2 JUMP JUMPDEST POP SWAP4 SWAP3 POP POP POP JUMP JUMPDEST DUP3 MLOAD PUSH1 0x0 SWAP1 DUP2 SWAP1 PUSH2 0x3EBE SWAP1 ADDRESS PUSH4 0x70A08231 PUSH1 0xE0 SHL PUSH2 0x467D JUMP JUMPDEST SWAP1 POP PUSH1 0x0 DUP7 PUSH1 0x0 ADD MLOAD PUSH1 0x1 PUSH1 0x1 PUSH1 0xA0 SHL SUB AND PUSH4 0xDB006A75 DUP6 PUSH1 0x40 MLOAD DUP3 PUSH4 0xFFFFFFFF AND PUSH1 0xE0 SHL DUP2 MSTORE PUSH1 0x4 ADD PUSH2 0x3EF2 SWAP2 SWAP1 PUSH2 0x515F JUMP JUMPDEST PUSH1 0x20 PUSH1 0x40 MLOAD DUP1 DUP4 SUB DUP2 PUSH1 0x0 DUP8 DUP1 EXTCODESIZE ISZERO DUP1 ISZERO PUSH2 0x3F0C JUMPI PUSH1 0x0 DUP1 REVERT JUMPDEST POP GAS CALL ISZERO DUP1 ISZERO PUSH2 0x3F20 JUMPI RETURNDATASIZE PUSH1 0x0 DUP1 RETURNDATACOPY RETURNDATASIZE PUSH1 0x0 REVERT JUMPDEST POP POP POP POP PUSH1 0x40 MLOAD RETURNDATASIZE PUSH1 0x1F NOT PUSH1 0x1F DUP3 ADD AND DUP3 ADD DUP1 PUSH1 0x40 MSTORE POP DUP2 ADD SWAP1 PUSH2 0x3F44 SWAP2 SWAP1 PUSH2 0x4FD2 JUMP JUMPDEST SWAP1 POP DUP1 ISZERO PUSH2 0x3F64 JUMPI PUSH1 0x40 MLOAD PUSH3 0x461BCD PUSH1 0xE5 SHL DUP2 MSTORE PUSH1 0x4 ADD PUSH2 0x23D SWAP1 PUSH2 0x521A JUMP JUMPDEST DUP6 MLOAD PUSH1 0x0 SWAP1 PUSH2 0x3F7B SWAP1 ADDRESS PUSH4 0x70A08231 PUSH1 0xE0 SHL PUSH2 0x467D JUMP JUMPDEST SWAP1 POP PUSH2 0x3F87 DUP2 DUP5 PUSH2 0x47E7 JUMP JUMPDEST SWAP4 POP PUSH2 0x3F98 DUP8 PUSH1 0x0 ADD MLOAD DUP8 DUP7 PUSH2 0x3CC0 JUMP JUMPDEST POP POP POP SWAP5 SWAP4 POP POP POP POP JUMP JUMPDEST PUSH1 0x0 PUSH4 0x5F5E100 DUP4 PUSH1 0x40 ADD MLOAD SLT ISZERO PUSH2 0x3FCB JUMPI PUSH2 0x3FC4 PUSH1 0x1 PUSH2 0x10D1 DUP6 DUP6 PUSH2 0x291B JUMP JUMPDEST SWAP1 POP PUSH2 0xB78 JUMP JUMPDEST PUSH2 0xB75 DUP4 PUSH2 0x3FDA DUP5 PUSH1 0x1 PUSH2 0x1E04 JUMP JUMPDEST PUSH2 0x291B JUMP JUMPDEST PUSH1 0x0 PUSH1 0x3 DUP4 PUSH1 0x60 ADD MLOAD PUSH1 0x5 DUP2 GT ISZERO PUSH2 0x3FF3 JUMPI INVALID JUMPDEST EQ ISZERO PUSH2 0x400A JUMPI POP PUSH1 0x1 PUSH1 0x1 PUSH1 0xA0 SHL SUB DUP2 AND BALANCE PUSH2 0xB78 JUMP JUMPDEST DUP3 MLOAD PUSH1 0x40 MLOAD PUSH4 0x70A08231 PUSH1 0xE0 SHL DUP2 MSTORE PUSH1 0x1 PUSH1 0x1 PUSH1 0xA0 SHL SUB SWAP1 SWAP2 AND SWAP1 PUSH4 0x70A08231 SWAP1 PUSH2 0x4039 SWAP1 DUP6 SWAP1 PUSH1 0x4 ADD PUSH2 0x5063 JUMP JUMPDEST PUSH1 0x20 PUSH1 0x40 MLOAD DUP1 DUP4 SUB DUP2 DUP7 DUP1 EXTCODESIZE ISZERO DUP1 ISZERO PUSH2 0x4051 JUMPI PUSH1 0x0 DUP1 REVERT JUMPDEST POP GAS STATICCALL ISZERO DUP1 ISZERO PUSH2 0x4065 JUMPI RETURNDATASIZE PUSH1 0x0 DUP1 RETURNDATACOPY RETURNDATASIZE PUSH1 0x0 REVERT JUMPDEST POP POP POP POP PUSH1 0x40 MLOAD RETURNDATASIZE PUSH1 0x1F NOT PUSH1 0x1F DUP3 ADD AND DUP3 ADD DUP1 PUSH1 0x40 MSTORE POP DUP2 ADD SWAP1 PUSH2 0x3FC4 SWAP2 SWAP1 PUSH2 0x4FD2 JUMP JUMPDEST PUSH1 0x0 DUP1 PUSH1 0x5 DUP6 PUSH1 0x60 ADD MLOAD PUSH1 0x5 DUP2 GT ISZERO PUSH2 0x409E JUMPI INVALID JUMPDEST EQ PUSH2 0x40B0 JUMPI PUSH4 0x70A08231 PUSH1 0xE0 SHL PUSH2 0x40B9 JUMP JUMPDEST PUSH4 0xED1279F PUSH1 0xE1 SHL JUMPDEST SWAP1 POP PUSH1 0x0 PUSH2 0x40CC DUP7 PUSH1 0x0 ADD MLOAD ADDRESS DUP5 PUSH2 0x467D JUMP JUMPDEST SWAP1 POP PUSH1 0x5 DUP7 PUSH1 0x60 ADD MLOAD PUSH1 0x5 DUP2 GT ISZERO PUSH2 0x40E0 JUMPI INVALID JUMPDEST EQ ISZERO PUSH2 0x4107 JUMPI PUSH1 0x0 PUSH2 0x40F5 DUP7 PUSH2 0xFFFF AND PUSH2 0x2E09 JUMP JUMPDEST SWAP1 POP PUSH2 0x4101 DUP2 DUP7 PUSH2 0x484B JUMP JUMPDEST POP PUSH2 0x4150 JUMP JUMPDEST PUSH1 0x1 DUP7 PUSH1 0x60 ADD MLOAD PUSH1 0x5 DUP2 GT ISZERO PUSH2 0x4119 JUMPI INVALID JUMPDEST EQ ISZERO PUSH2 0x412E JUMPI PUSH2 0x4129 DUP7 DUP6 PUSH2 0x48B6 JUMP JUMPDEST PUSH2 0x4150 JUMP JUMPDEST PUSH1 0x2 DUP7 PUSH1 0x60 ADD MLOAD PUSH1 0x5 DUP2 GT ISZERO PUSH2 0x4140 JUMPI INVALID JUMPDEST EQ ISZERO PUSH2 0x9C JUMPI PUSH2 0x4129 DUP7 DUP6 PUSH2 0x4958 JUMP JUMPDEST PUSH1 0x0 PUSH2 0x4161 DUP8 PUSH1 0x0 ADD MLOAD ADDRESS DUP6 PUSH2 0x467D JUMP JUMPDEST SWAP1 POP PUSH2 0x3779 PUSH2 0x3344 DUP3 DUP5 PUSH2 0x47E7 JUMP JUMPDEST PUSH1 0x0 DUP1 PUSH2 0xB78 PUSH1 0x2 PUSH2 0x2D84 JUMP JUMPDEST PUSH1 0x0 PUSH2 0x4187 PUSH2 0x4D12 JUMP JUMPDEST RETURNDATASIZE DUP1 ISZERO PUSH2 0x419B JUMPI PUSH1 0x20 DUP2 EQ PUSH2 0x41A4 JUMPI PUSH1 0x0 DUP1 REVERT JUMPDEST PUSH1 0x1 SWAP3 POP PUSH2 0x41AF JUMP JUMPDEST PUSH1 0x20 PUSH1 0x0 DUP4 RETURNDATACOPY DUP2 MLOAD SWAP3 POP JUMPDEST POP DUP2 PUSH2 0x16C6 JUMPI PUSH1 0x40 DUP1 MLOAD PUSH3 0x461BCD PUSH1 0xE5 SHL DUP2 MSTORE PUSH1 0x20 PUSH1 0x4 DUP3 ADD MSTORE PUSH1 0x5 PUSH1 0x24 DUP3 ADD MSTORE PUSH5 0x455243323 PUSH1 0xDC SHL PUSH1 0x44 DUP3 ADD MSTORE SWAP1 MLOAD SWAP1 DUP2 SWAP1 SUB PUSH1 0x64 ADD SWAP1 REVERT JUMPDEST PUSH1 0x0 DUP1 PUSH2 0xB78 PUSH1 0x7 PUSH2 0x2D84 JUMP JUMPDEST PUSH1 0x0 PUSH2 0xDCA PUSH2 0x4204 PUSH2 0x483E JUMP JUMPDEST SLOAD PUSH1 0x40 MLOAD PUSH4 0xD15E0053 PUSH1 0xE0 SHL DUP2 MSTORE PUSH1 0x1 PUSH1 0x1 PUSH1 0xA0 SHL SUB SWAP1 SWAP2 AND SWAP1 PUSH4 0xD15E0053 SWAP1 PUSH2 0x4232 SWAP1 DUP7 SWAP1 PUSH1 0x4 ADD PUSH2 0x5063 JUMP JUMPDEST PUSH1 0x20 PUSH1 0x40 MLOAD DUP1 DUP4 SUB DUP2 DUP7 DUP1 EXTCODESIZE ISZERO DUP1 ISZERO PUSH2 0x424A JUMPI PUSH1 0x0 DUP1 REVERT JUMPDEST POP GAS STATICCALL ISZERO DUP1 ISZERO PUSH2 0x425E JUMPI RETURNDATASIZE PUSH1 0x0 DUP1 RETURNDATACOPY RETURNDATASIZE PUSH1 0x0 REVERT JUMPDEST POP POP POP POP PUSH1 0x40 MLOAD RETURNDATASIZE PUSH1 0x1F NOT PUSH1 0x1F DUP3 ADD AND DUP3 ADD DUP1 PUSH1 0x40 MSTORE POP DUP2 ADD SWAP1 PUSH2 0x3344 SWAP2 SWAP1 PUSH2 0x4FD2 JUMP JUMPDEST PUSH1 0x0 DUP1 PUSH2 0xB78 PUSH1 0x17 PUSH2 0x2D84 JUMP JUMPDEST PUSH1 0x0 DUP1 PUSH1 0x0 PUSH2 0x429C PUSH2 0x49AB JUMP JUMPDEST PUSH1 0x0 SWAP5 DUP6 MSTORE PUSH1 0x20 MSTORE POP POP PUSH1 0x40 SWAP1 SWAP2 KECCAK256 SLOAD PUSH1 0x1 PUSH1 0x1 PUSH1 0xA0 SHL SUB DUP2 AND SWAP3 PUSH1 0x1 PUSH1 0xA0 SHL SWAP1 SWAP2 DIV PUSH1 0xFF AND SWAP2 POP JUMP JUMPDEST PUSH1 0x0 DUP2 SLT ISZERO PUSH2 0x42D4 JUMPI PUSH1 0x0 DUP1 REVERT JUMPDEST PUSH1 0x0 PUSH2 0x42E1 PUSH1 0x0 DUP5 PUSH2 0x4571 JUMP JUMPDEST POP POP POP SWAP1 POP PUSH2 0x42F9 DUP3 DUP3 PUSH2 0x1E04 SWAP1 SWAP2 SWAP1 PUSH4 0xFFFFFFFF AND JUMP JUMPDEST SWAP1 POP PUSH2 0x430C PUSH1 0x0 DUP5 DUP4 PUSH1 0x0 DUP1 PUSH1 0x0 PUSH2 0x49B8 JUMP JUMPDEST DUP3 PUSH2 0xFFFF AND PUSH32 0x85170C297762884F47EC6098B74925C795E6D33686B11019B400E33A9B23B5E9 DUP4 PUSH1 0x40 MLOAD PUSH2 0x4340 SWAP2 SWAP1 PUSH2 0x515F JUMP JUMPDEST PUSH1 0x40 MLOAD DUP1 SWAP2 SUB SWAP1 LOG2 POP POP POP JUMP JUMPDEST PUSH1 0x0 DUP2 SLT ISZERO PUSH2 0x435B JUMPI PUSH1 0x0 DUP1 REVERT JUMPDEST PUSH1 0x0 PUSH2 0x4366 DUP4 PUSH2 0x4AFF JUMP JUMPDEST SWAP1 POP PUSH1 0x0 PUSH2 0x4374 DUP3 DUP6 PUSH2 0x4571 JUMP JUMPDEST POP POP POP SWAP1 POP PUSH2 0x438C DUP4 DUP3 PUSH2 0x1E04 SWAP1 SWAP2 SWAP1 PUSH4 0xFFFFFFFF AND JUMP JUMPDEST SWAP1 POP PUSH2 0x1482 DUP3 DUP6 DUP4 PUSH2 0x4B25 JUMP JUMPDEST PUSH1 0x0 DUP1 PUSH2 0x43A4 PUSH2 0x4B43 JUMP JUMPDEST PUSH1 0x0 SWAP4 DUP5 MSTORE PUSH1 0x20 MSTORE POP POP PUSH1 0x40 SWAP1 KECCAK256 SLOAD SWAP1 JUMP JUMPDEST PUSH1 0x0 PUSH3 0x76A700 DUP3 LT ISZERO PUSH2 0x43C8 JUMPI PUSH1 0x0 DUP1 REVERT JUMPDEST POP PUSH3 0x76A700 DUP2 MOD SWAP1 SUB SWAP1 JUMP JUMPDEST PUSH1 0x0 DUP2 PUSH1 0x1 EQ ISZERO PUSH2 0x43E9 JUMPI POP PUSH3 0x76A700 PUSH2 0xDCD JUMP JUMPDEST DUP2 PUSH1 0x2 EQ ISZERO PUSH2 0x43FC JUMPI POP PUSH3 0xED4E00 PUSH2 0xDCD JUMP JUMPDEST DUP2 PUSH1 0x3 EQ ISZERO PUSH2 0x4410 JUMPI POP PUSH4 0x1DA9C00 PUSH2 0xDCD JUMP JUMPDEST DUP2 PUSH1 0x4 EQ ISZERO PUSH2 0x4424 JUMPI POP PUSH4 0x3B53800 PUSH2 0xDCD JUMP JUMPDEST DUP2 PUSH1 0x5 EQ ISZERO PUSH2 0x4438 JUMPI POP PUSH4 0x9450C00 PUSH2 0xDCD JUMP JUMPDEST DUP2 PUSH1 0x6 EQ ISZERO PUSH2 0x444C JUMPI POP PUSH4 0x128A1800 PUSH2 0xDCD JUMP JUMPDEST DUP2 PUSH1 0x7 EQ ISZERO PUSH2 0x4460 JUMPI POP PUSH4 0x25143000 PUSH2 0xDCD JUMP JUMPDEST PUSH1 0x40 MLOAD PUSH3 0x461BCD PUSH1 0xE5 SHL DUP2 MSTORE PUSH1 0x4 ADD PUSH2 0x23D SWAP1 PUSH2 0x5299 JUMP JUMPDEST PUSH1 0x0 DUP3 DUP3 ADD DUP4 DUP2 LT ISZERO PUSH2 0xB75 JUMPI PUSH1 0x40 DUP1 MLOAD PUSH3 0x461BCD PUSH1 0xE5 SHL DUP2 MSTORE PUSH1 0x20 PUSH1 0x4 DUP3 ADD MSTORE PUSH1 0x1B PUSH1 0x24 DUP3 ADD MSTORE PUSH32 0x536166654D6174683A206164646974696F6E206F766572666C6F770000000000 PUSH1 0x44 DUP3 ADD MSTORE SWAP1 MLOAD SWAP1 DUP2 SWAP1 SUB PUSH1 0x64 ADD SWAP1 REVERT JUMPDEST PUSH1 0x0 DUP1 PUSH2 0xB78 PUSH1 0x10 PUSH2 0x2D84 JUMP JUMPDEST PUSH1 0x0 DUP1 PUSH2 0xB78 PUSH1 0x18 PUSH2 0x2D84 JUMP JUMPDEST PUSH1 0x0 PUSH2 0xB75 DUP3 PUSH1 0x20 ADD MLOAD PUSH2 0x11FD DUP5 PUSH1 0x0 ADD MLOAD DUP7 PUSH1 0x20 ADD MLOAD PUSH2 0x1E1A SWAP1 SWAP2 SWAP1 PUSH4 0xFFFFFFFF AND JUMP JUMPDEST PUSH1 0x0 PUSH2 0x451B PUSH2 0x3239 JUMP JUMPDEST PUSH1 0x1 PUSH1 0x1 PUSH1 0xA0 SHL SUB DUP5 AND PUSH1 0x0 SWAP1 DUP2 MSTORE PUSH1 0x20 DUP3 SWAP1 MSTORE PUSH1 0x40 SWAP1 KECCAK256 DUP1 SLOAD SWAP2 SWAP3 POP SWAP1 PUSH2 0xFFFF AND DUP4 ISZERO PUSH2 0x455A JUMPI DUP2 SLOAD PUSH2 0xFFFF NOT AND PUSH1 0x1 DUP3 OR PUSH2 0xFFFF AND OR DUP3 SSTORE PUSH2 0x456A JUMP JUMPDEST DUP2 SLOAD PUSH2 0xFFFF NOT AND PUSH2 0xFFFE DUP3 AND OR DUP3 SSTORE JUMPDEST POP POP POP POP POP JUMP JUMPDEST PUSH1 0x0 DUP1 PUSH1 0x0 DUP1 PUSH1 0x0 PUSH2 0x4581 PUSH2 0x4B50 JUMP JUMPDEST PUSH1 0x1 PUSH1 0x1 PUSH1 0xA0 SHL SUB DUP9 AND PUSH1 0x0 SWAP1 DUP2 MSTORE PUSH1 0x20 DUP3 DUP2 MSTORE PUSH1 0x40 DUP1 DUP4 KECCAK256 DUP11 DUP5 MSTORE SWAP1 SWAP2 MSTORE SWAP1 KECCAK256 DUP1 SLOAD PUSH1 0x1 PUSH1 0x1 PUSH1 0x50 SHL SUB DUP2 AND SWAP7 POP PUSH1 0x1 PUSH1 0x50 SHL SWAP1 DIV PUSH4 0xFFFFFFFF AND SWAP5 POP SWAP1 SWAP2 POP DUP4 ISZERO PUSH2 0x45EA JUMPI DUP1 SLOAD PUSH2 0x45E3 SWAP1 PUSH1 0x1 PUSH1 0x70 SHL SWAP1 DIV PUSH7 0xFFFFFFFFFFFFFF AND PUSH2 0x4B5D JUMP JUMPDEST SWAP3 POP PUSH2 0x45FF JUMP JUMPDEST DUP1 SLOAD PUSH1 0x1 PUSH1 0x70 SHL SWAP1 DIV PUSH7 0xFFFFFFFFFFFFFF AND SWAP3 POP JUMPDEST SLOAD PUSH1 0x1 PUSH1 0xA8 SHL SWAP1 DIV PUSH1 0xA SWAP1 DUP2 SIGNEXTEND SWAP1 SIGNEXTEND SWAP8 SWAP4 SWAP7 POP SWAP2 SWAP5 POP SWAP3 POP POP JUMP JUMPDEST PUSH1 0x0 DUP2 SLT ISZERO PUSH2 0x4628 JUMPI PUSH1 0x0 DUP1 REVERT JUMPDEST PUSH2 0x463D PUSH1 0x0 DUP4 PUSH2 0xFFFF AND DUP4 PUSH1 0x0 DUP1 PUSH1 0x0 PUSH2 0x49B8 JUMP JUMPDEST DUP2 PUSH2 0xFFFF AND PUSH32 0xD3625F7B5926828151EFE19F7AE655488287357D99EBE67E5FB20522CA739C0B DUP3 PUSH1 0x40 MLOAD PUSH2 0x4671 SWAP2 SWAP1 PUSH2 0x515F JUMP JUMPDEST PUSH1 0x40 MLOAD DUP1 SWAP2 SUB SWAP1 LOG2 POP POP JUMP JUMPDEST PUSH1 0x40 DUP1 MLOAD PUSH1 0x1 PUSH1 0x1 PUSH1 0xA0 SHL SUB DUP5 DUP2 AND PUSH1 0x24 DUP1 DUP5 ADD SWAP2 SWAP1 SWAP2 MSTORE DUP4 MLOAD DUP1 DUP5 SUB SWAP1 SWAP2 ADD DUP2 MSTORE PUSH1 0x44 SWAP1 SWAP3 ADD DUP4 MSTORE PUSH1 0x20 DUP3 ADD DUP1 MLOAD PUSH1 0x1 PUSH1 0x1 PUSH1 0xE0 SHL SUB AND PUSH1 0x1 PUSH1 0x1 PUSH1 0xE0 SHL SUB NOT DUP7 AND OR DUP2 MSTORE SWAP3 MLOAD DUP3 MLOAD PUSH1 0x0 SWAP5 DUP6 SWAP5 DUP6 SWAP5 DUP11 AND SWAP4 SWAP1 SWAP3 SWAP1 SWAP2 DUP3 SWAP2 DUP1 DUP4 DUP4 JUMPDEST PUSH1 0x20 DUP4 LT PUSH2 0x46FA JUMPI DUP1 MLOAD DUP3 MSTORE PUSH1 0x1F NOT SWAP1 SWAP3 ADD SWAP2 PUSH1 0x20 SWAP2 DUP3 ADD SWAP2 ADD PUSH2 0x46DB JUMP JUMPDEST PUSH1 0x1 DUP4 PUSH1 0x20 SUB PUSH2 0x100 EXP SUB DUP1 NOT DUP3 MLOAD AND DUP2 DUP5 MLOAD AND DUP1 DUP3 OR DUP6 MSTORE POP POP POP POP POP POP SWAP1 POP ADD SWAP2 POP POP PUSH1 0x0 PUSH1 0x40 MLOAD DUP1 DUP4 SUB DUP2 DUP6 GAS STATICCALL SWAP2 POP POP RETURNDATASIZE DUP1 PUSH1 0x0 DUP2 EQ PUSH2 0x475A JUMPI PUSH1 0x40 MLOAD SWAP2 POP PUSH1 0x1F NOT PUSH1 0x3F RETURNDATASIZE ADD AND DUP3 ADD PUSH1 0x40 MSTORE RETURNDATASIZE DUP3 MSTORE RETURNDATASIZE PUSH1 0x0 PUSH1 0x20 DUP5 ADD RETURNDATACOPY PUSH2 0x475F JUMP JUMPDEST PUSH1 0x60 SWAP2 POP JUMPDEST POP SWAP2 POP SWAP2 POP DUP2 PUSH2 0x476E JUMPI PUSH1 0x0 DUP1 REVERT JUMPDEST DUP1 DUP1 PUSH1 0x20 ADD SWAP1 MLOAD PUSH1 0x20 DUP2 LT ISZERO PUSH2 0x4783 JUMPI PUSH1 0x0 DUP1 REVERT JUMPDEST POP MLOAD SWAP7 SWAP6 POP POP POP POP POP POP JUMP JUMPDEST PUSH1 0x40 DUP1 MLOAD PUSH4 0x23B872DD PUSH1 0xE0 SHL DUP2 MSTORE PUSH1 0x1 PUSH1 0x1 PUSH1 0xA0 SHL SUB DUP5 DUP2 AND PUSH1 0x4 DUP4 ADD MSTORE ADDRESS PUSH1 0x24 DUP4 ADD MSTORE PUSH1 0x44 DUP3 ADD DUP5 SWAP1 MSTORE SWAP2 MLOAD SWAP2 DUP6 AND SWAP2 PUSH4 0x23B872DD SWAP2 PUSH1 0x64 DUP1 DUP3 ADD SWAP3 PUSH1 0x0 SWAP3 SWAP1 SWAP2 SWAP1 DUP3 SWAP1 SUB ADD DUP2 DUP4 DUP8 DUP1 EXTCODESIZE ISZERO DUP1 ISZERO PUSH2 0x3D17 JUMPI PUSH1 0x0 DUP1 REVERT JUMPDEST PUSH1 0x0 DUP3 DUP3 GT ISZERO PUSH2 0x19D8 JUMPI PUSH1 0x40 DUP1 MLOAD PUSH3 0x461BCD PUSH1 0xE5 SHL DUP2 MSTORE PUSH1 0x20 PUSH1 0x4 DUP3 ADD MSTORE PUSH1 0x1E PUSH1 0x24 DUP3 ADD MSTORE PUSH32 0x536166654D6174683A207375627472616374696F6E206F766572666C6F770000 PUSH1 0x44 DUP3 ADD MSTORE SWAP1 MLOAD SWAP1 DUP2 SWAP1 SUB PUSH1 0x64 ADD SWAP1 REVERT JUMPDEST PUSH1 0x0 DUP1 PUSH2 0xB78 PUSH1 0x13 PUSH2 0x2D84 JUMP JUMPDEST PUSH2 0x4853 PUSH2 0x483E JUMP JUMPDEST SLOAD DUP3 MLOAD PUSH1 0x40 MLOAD PUSH4 0xE8EDA9DF PUSH1 0xE0 SHL DUP2 MSTORE PUSH1 0x1 PUSH1 0x1 PUSH1 0xA0 SHL SUB SWAP1 SWAP3 AND SWAP2 PUSH4 0xE8EDA9DF SWAP2 PUSH2 0x4888 SWAP2 DUP6 SWAP1 ADDRESS SWAP1 PUSH1 0x0 SWAP1 PUSH1 0x4 ADD PUSH2 0x50D8 JUMP JUMPDEST PUSH1 0x0 PUSH1 0x40 MLOAD DUP1 DUP4 SUB DUP2 PUSH1 0x0 DUP8 DUP1 EXTCODESIZE ISZERO DUP1 ISZERO PUSH2 0x48A2 JUMPI PUSH1 0x0 DUP1 REVERT JUMPDEST POP GAS CALL ISZERO DUP1 ISZERO PUSH2 0x1A77 JUMPI RETURNDATASIZE PUSH1 0x0 DUP1 RETURNDATACOPY RETURNDATASIZE PUSH1 0x0 REVERT JUMPDEST DUP2 MLOAD PUSH1 0x40 MLOAD PUSH4 0x140E25AD PUSH1 0xE3 SHL DUP2 MSTORE PUSH1 0x0 SWAP2 PUSH1 0x1 PUSH1 0x1 PUSH1 0xA0 SHL SUB AND SWAP1 PUSH4 0xA0712D68 SWAP1 PUSH2 0x48E6 SWAP1 DUP6 SWAP1 PUSH1 0x4 ADD PUSH2 0x515F JUMP JUMPDEST PUSH1 0x20 PUSH1 0x40 MLOAD DUP1 DUP4 SUB DUP2 PUSH1 0x0 DUP8 DUP1 EXTCODESIZE ISZERO DUP1 ISZERO PUSH2 0x4900 JUMPI PUSH1 0x0 DUP1 REVERT JUMPDEST POP GAS CALL ISZERO DUP1 ISZERO PUSH2 0x4914 JUMPI RETURNDATASIZE PUSH1 0x0 DUP1 RETURNDATACOPY RETURNDATASIZE PUSH1 0x0 REVERT JUMPDEST POP POP POP POP PUSH1 0x40 MLOAD RETURNDATASIZE PUSH1 0x1F NOT PUSH1 0x1F DUP3 ADD AND DUP3 ADD DUP1 PUSH1 0x40 MSTORE POP DUP2 ADD SWAP1 PUSH2 0x4938 SWAP2 SWAP1 PUSH2 0x4FD2 JUMP JUMPDEST SWAP1 POP DUP1 ISZERO PUSH2 0xC2A JUMPI PUSH1 0x40 MLOAD PUSH3 0x461BCD PUSH1 0xE5 SHL DUP2 MSTORE PUSH1 0x4 ADD PUSH2 0x23D SWAP1 PUSH2 0x51FC JUMP JUMPDEST DUP2 PUSH1 0x0 ADD MLOAD PUSH1 0x1 PUSH1 0x1 PUSH1 0xA0 SHL SUB AND PUSH4 0x1249C58B DUP3 PUSH1 0x40 MLOAD DUP3 PUSH4 0xFFFFFFFF AND PUSH1 0xE0 SHL DUP2 MSTORE PUSH1 0x4 ADD PUSH1 0x0 PUSH1 0x40 MLOAD DUP1 DUP4 SUB DUP2 DUP6 DUP9 DUP1 EXTCODESIZE ISZERO DUP1 ISZERO PUSH2 0x4997 JUMPI PUSH1 0x0 DUP1 REVERT JUMPDEST POP GAS CALL ISZERO DUP1 ISZERO PUSH2 0xE57 JUMPI RETURNDATASIZE PUSH1 0x0 DUP1 RETURNDATACOPY RETURNDATASIZE PUSH1 0x0 REVERT JUMPDEST PUSH1 0x0 DUP1 PUSH2 0xB78 PUSH1 0xF PUSH2 0x2D84 JUMP JUMPDEST PUSH1 0x0 PUSH2 0x49C2 PUSH2 0x4B50 JUMP JUMPDEST PUSH1 0x1 PUSH1 0x1 PUSH1 0xA0 SHL SUB DUP9 AND PUSH1 0x0 SWAP1 DUP2 MSTORE PUSH1 0x20 DUP3 DUP2 MSTORE PUSH1 0x40 DUP1 DUP4 KECCAK256 DUP11 DUP5 MSTORE SWAP1 SWAP2 MSTORE SWAP1 KECCAK256 SWAP1 SWAP2 POP PUSH11 0x7FFFFFFFFFFFFFFFFFFFFF NOT DUP7 SLT DUP1 ISZERO SWAP1 PUSH2 0x4A0D JUMPI POP PUSH11 0x7FFFFFFFFFFFFFFFFFFFFF DUP7 SGT ISZERO JUMPDEST PUSH2 0x4A16 JUMPI PUSH1 0x0 DUP1 REVERT JUMPDEST PUSH1 0x0 DUP6 SLT ISZERO DUP1 ISZERO PUSH2 0x4A2E JUMPI POP PUSH1 0x1 PUSH1 0x1 PUSH1 0x50 SHL SUB DUP6 SGT ISZERO JUMPDEST PUSH2 0x4A37 JUMPI PUSH1 0x0 DUP1 REVERT JUMPDEST DUP4 PUSH2 0x4A77 JUMPI PUSH7 0xFFFFFFFFFFFFFF DUP4 GT ISZERO PUSH2 0x4A50 JUMPI PUSH1 0x0 DUP1 REVERT JUMPDEST DUP1 SLOAD PUSH7 0xFFFFFFFFFFFFFF PUSH1 0x70 SHL NOT AND PUSH1 0x1 PUSH1 0x70 SHL PUSH7 0xFFFFFFFFFFFFFF DUP6 AND MUL OR DUP2 SSTORE PUSH2 0x4A91 JUMP JUMPDEST DUP1 SLOAD PUSH1 0x1 PUSH1 0x50 SHL SWAP1 DIV PUSH4 0xFFFFFFFF AND DUP5 EQ PUSH2 0x4A91 JUMPI PUSH1 0x0 DUP1 REVERT JUMPDEST DUP1 SLOAD PUSH1 0xA SWAP7 SWAP1 SWAP7 SIGNEXTEND PUSH11 0xFFFFFFFFFFFFFFFFFFFFFF AND PUSH1 0x1 PUSH1 0xA8 SHL MUL PUSH1 0x1 PUSH1 0x1 PUSH1 0xA8 SHL SUB PUSH1 0x1 PUSH1 0x1 PUSH1 0x50 SHL SUB SWAP1 SWAP7 AND PUSH1 0x1 PUSH1 0x1 PUSH1 0x50 SHL SUB NOT PUSH4 0xFFFFFFFF SWAP1 SWAP7 AND PUSH1 0x1 PUSH1 0x50 SHL MUL PUSH4 0xFFFFFFFF PUSH1 0x50 SHL NOT SWAP1 SWAP9 AND SWAP8 SWAP1 SWAP8 OR SWAP5 SWAP1 SWAP5 AND SWAP6 SWAP1 SWAP6 OR SWAP4 SWAP1 SWAP4 AND SWAP2 SWAP1 SWAP2 OR SWAP1 SWAP3 SSTORE POP POP POP POP JUMP JUMPDEST PUSH1 0x0 DUP1 PUSH2 0x4B0A PUSH2 0x4B6B JUMP JUMPDEST PUSH1 0x0 SWAP4 DUP5 MSTORE PUSH1 0x20 MSTORE POP POP PUSH1 0x40 SWAP1 KECCAK256 SLOAD PUSH1 0x1 PUSH1 0x1 PUSH1 0xA0 SHL SUB AND SWAP1 JUMP JUMPDEST PUSH1 0x0 DUP2 SLT ISZERO PUSH2 0x4B33 JUMPI PUSH1 0x0 DUP1 REVERT JUMPDEST PUSH2 0xC2A DUP4 DUP4 DUP4 PUSH1 0x0 DUP1 PUSH1 0x0 PUSH2 0x49B8 JUMP JUMPDEST PUSH1 0x0 DUP1 PUSH2 0xB78 PUSH1 0x9 PUSH2 0x2D84 JUMP JUMPDEST PUSH1 0x0 DUP1 PUSH2 0xB78 PUSH1 0x6 PUSH2 0x2D84 JUMP JUMPDEST PUSH1 0x8 DUP2 SWAP1 SHR PUSH1 0xFF SWAP1 SWAP2 AND SHL SWAP1 JUMP JUMPDEST PUSH1 0x0 DUP1 PUSH2 0xB78 PUSH1 0x3 PUSH2 0x2D84 JUMP JUMPDEST PUSH1 0x40 MLOAD DUP1 PUSH1 0x40 ADD PUSH1 0x40 MSTORE DUP1 PUSH1 0x2 SWAP1 PUSH1 0x20 DUP3 MUL DUP1 CALLDATASIZE DUP4 CALLDATACOPY POP SWAP2 SWAP3 SWAP2 POP POP JUMP JUMPDEST PUSH1 0x40 MLOAD DUP1 PUSH1 0xA0 ADD PUSH1 0x40 MSTORE DUP1 PUSH1 0x0 DUP2 MSTORE PUSH1 0x20 ADD PUSH1 0x0 DUP2 MSTORE PUSH1 0x20 ADD PUSH1 0x0 DUP2 MSTORE PUSH1 0x20 ADD PUSH1 0x0 PUSH1 0x1 PUSH1 0x1 PUSH1 0xA0 SHL SUB AND DUP2 MSTORE PUSH1 0x20 ADD PUSH1 0x0 DUP2 MSTORE POP SWAP1 JUMP JUMPDEST PUSH1 0x40 MLOAD DUP1 PUSH2 0x180 ADD PUSH1 0x40 MSTORE DUP1 PUSH1 0x0 PUSH1 0x1 PUSH1 0x1 PUSH1 0xA0 SHL SUB AND DUP2 MSTORE PUSH1 0x20 ADD PUSH1 0x0 PUSH2 0xFFFF AND DUP2 MSTORE PUSH1 0x20 ADD PUSH1 0x0 PUSH2 0xFFFF AND DUP2 MSTORE PUSH1 0x20 ADD PUSH1 0x0 DUP2 MSTORE PUSH1 0x20 ADD PUSH1 0x0 DUP2 MSTORE PUSH1 0x20 ADD PUSH1 0x0 DUP2 MSTORE PUSH1 0x20 ADD PUSH1 0x0 DUP2 MSTORE PUSH1 0x20 ADD PUSH1 0x0 DUP2 MSTORE PUSH1 0x20 ADD PUSH1 0x0 DUP2 MSTORE PUSH1 0x20 ADD PUSH1 0x0 DUP2 MSTORE PUSH1 0x20 ADD PUSH2 0x4C39 PUSH2 0x4B78 JUMP JUMPDEST DUP2 MSTORE PUSH1 0x20 ADD PUSH2 0x4C46 PUSH2 0x4CB9 JUMP JUMPDEST SWAP1 MSTORE SWAP1 JUMP JUMPDEST PUSH1 0x40 MLOAD DUP1 PUSH1 0xE0 ADD PUSH1 0x40 MSTORE DUP1 PUSH1 0x0 DUP2 MSTORE PUSH1 0x20 ADD PUSH1 0x0 DUP2 MSTORE PUSH1 0x20 ADD PUSH1 0x0 ISZERO ISZERO DUP2 MSTORE PUSH1 0x20 ADD PUSH1 0x0 DUP2 MSTORE PUSH1 0x20 ADD PUSH1 0x0 DUP2 MSTORE PUSH1 0x20 ADD PUSH1 0x0 DUP2 MSTORE PUSH1 0x20 ADD PUSH1 0x0 DUP2 MSTORE POP SWAP1 JUMP JUMPDEST PUSH1 0x40 DUP1 MLOAD PUSH1 0xA0 DUP2 ADD DUP3 MSTORE PUSH1 0x0 DUP1 DUP3 MSTORE PUSH1 0x20 DUP3 ADD DUP2 SWAP1 MSTORE SWAP2 DUP2 ADD DUP3 SWAP1 MSTORE SWAP1 PUSH1 0x60 DUP3 ADD SWAP1 DUP2 MSTORE PUSH1 0x20 ADD PUSH1 0x0 DUP2 MSTORE POP SWAP1 JUMP JUMPDEST PUSH1 0x40 MLOAD DUP1 PUSH1 0x60 ADD PUSH1 0x40 MSTORE DUP1 PUSH1 0x0 PUSH1 0x1 PUSH1 0x1 PUSH1 0xA0 SHL SUB AND DUP2 MSTORE PUSH1 0x20 ADD PUSH1 0x0 DUP2 MSTORE PUSH1 0x20 ADD PUSH1 0x0 DUP2 MSTORE POP SWAP1 JUMP JUMPDEST PUSH1 0x40 MLOAD DUP1 PUSH1 0xA0 ADD PUSH1 0x40 MSTORE DUP1 PUSH1 0x0 DUP2 MSTORE PUSH1 0x20 ADD PUSH1 0x0 DUP2 MSTORE PUSH1 0x20 ADD PUSH1 0x0 DUP2 MSTORE PUSH1 0x20 ADD PUSH1 0x0 DUP2 MSTORE PUSH1 0x20 ADD PUSH1 0x0 DUP2 MSTORE POP SWAP1 JUMP JUMPDEST PUSH1 0x40 MLOAD DUP1 PUSH1 0x20 ADD PUSH1 0x40 MSTORE DUP1 PUSH1 0x1 SWAP1 PUSH1 0x20 DUP3 MUL DUP1 CALLDATASIZE DUP4 CALLDATACOPY POP SWAP2 SWAP3 SWAP2 POP POP JUMP JUMPDEST DUP1 CALLDATALOAD PUSH1 0x1 PUSH1 0x1 PUSH1 0xA0 SHL SUB DUP2 AND DUP2 EQ PUSH2 0xDCD JUMPI PUSH1 0x0 DUP1 REVERT JUMPDEST PUSH1 0x0 DUP1 DUP4 PUSH1 0x1F DUP5 ADD SLT PUSH2 0x4D58 JUMPI DUP2 DUP3 REVERT JUMPDEST POP DUP2 CALLDATALOAD PUSH8 0xFFFFFFFFFFFFFFFF DUP2 GT ISZERO PUSH2 0x4D6F JUMPI DUP2 DUP3 REVERT JUMPDEST PUSH1 0x20 DUP4 ADD SWAP2 POP DUP4 PUSH1 0x20 DUP3 DUP6 ADD ADD GT ISZERO PUSH2 0x1674 JUMPI PUSH1 0x0 DUP1 REVERT JUMPDEST DUP1 CALLDATALOAD PUSH4 0xFFFFFFFF DUP2 AND DUP2 EQ PUSH2 0xDCD JUMPI PUSH1 0x0 DUP1 REVERT JUMPDEST DUP1 MLOAD PUSH1 0x1 PUSH1 0x1 PUSH1 0x50 SHL SUB DUP2 AND DUP2 EQ PUSH2 0xDCD JUMPI PUSH1 0x0 DUP1 REVERT JUMPDEST PUSH1 0x0 DUP1 PUSH1 0x40 DUP4 DUP6 SUB SLT ISZERO PUSH2 0x4DC4 JUMPI DUP2 DUP3 REVERT JUMPDEST PUSH2 0x4DCD DUP4 PUSH2 0x4D30 JUMP JUMPDEST SWAP2 POP PUSH2 0x1671 PUSH1 0x20 DUP5 ADD PUSH2 0x4D30 JUMP JUMPDEST PUSH1 0x0 DUP1 PUSH1 0x0 DUP1 PUSH1 0x0 DUP1 PUSH1 0x0 PUSH1 0xC0 DUP9 DUP11 SUB SLT ISZERO PUSH2 0x4DF5 JUMPI DUP3 DUP4 REVERT JUMPDEST PUSH2 0x4DFE DUP9 PUSH2 0x4D30 JUMP JUMPDEST SWAP7 POP PUSH2 0x4E0C PUSH1 0x20 DUP10 ADD PUSH2 0x4D30 JUMP JUMPDEST SWAP6 POP PUSH2 0x4E1A PUSH1 0x40 DUP10 ADD PUSH2 0x4D30 JUMP JUMPDEST SWAP5 POP PUSH1 0x60 DUP9 ADD CALLDATALOAD SWAP4 POP PUSH1 0x80 DUP9 ADD CALLDATALOAD DUP1 ISZERO ISZERO DUP2 EQ PUSH2 0x4E35 JUMPI DUP4 DUP5 REVERT JUMPDEST SWAP3 POP PUSH1 0xA0 DUP9 ADD CALLDATALOAD PUSH8 0xFFFFFFFFFFFFFFFF DUP2 GT ISZERO PUSH2 0x4E50 JUMPI DUP3 DUP4 REVERT JUMPDEST PUSH2 0x4E5C DUP11 DUP3 DUP12 ADD PUSH2 0x4D47 JUMP JUMPDEST SWAP9 SWAP12 SWAP8 SWAP11 POP SWAP6 SWAP9 POP SWAP4 SWAP7 SWAP3 SWAP6 SWAP3 SWAP4 POP POP POP JUMP JUMPDEST PUSH1 0x0 DUP1 PUSH1 0x0 DUP1 PUSH1 0x0 DUP1 PUSH1 0x0 DUP1 PUSH1 0xE0 DUP10 DUP12 SUB SLT ISZERO PUSH2 0x4E8A JUMPI DUP1 DUP2 REVERT JUMPDEST PUSH2 0x4E93 DUP10 PUSH2 0x4D30 JUMP JUMPDEST SWAP8 POP PUSH2 0x4EA1 PUSH1 0x20 DUP11 ADD PUSH2 0x4D30 JUMP JUMPDEST SWAP7 POP PUSH2 0x4EAF PUSH1 0x40 DUP11 ADD PUSH2 0x4D30 JUMP JUMPDEST SWAP6 POP PUSH1 0x60 DUP10 ADD CALLDATALOAD SWAP5 POP PUSH1 0x80 DUP10 ADD CALLDATALOAD SWAP4 POP PUSH2 0x4ECB PUSH1 0xA0 DUP11 ADD PUSH2 0x4D87 JUMP JUMPDEST SWAP3 POP PUSH1 0xC0 DUP10 ADD CALLDATALOAD PUSH8 0xFFFFFFFFFFFFFFFF DUP2 GT ISZERO PUSH2 0x4EE6 JUMPI DUP2 DUP3 REVERT JUMPDEST PUSH2 0x4EF2 DUP12 DUP3 DUP13 ADD PUSH2 0x4D47 JUMP JUMPDEST SWAP10 SWAP13 SWAP9 SWAP12 POP SWAP7 SWAP10 POP SWAP5 SWAP8 SWAP4 SWAP7 SWAP3 SWAP6 SWAP5 POP POP POP JUMP JUMPDEST PUSH1 0x0 DUP1 PUSH1 0x0 DUP1 PUSH1 0x0 DUP1 PUSH1 0x0 DUP1 PUSH1 0xE0 DUP10 DUP12 SUB SLT ISZERO PUSH2 0x4F21 JUMPI DUP4 DUP5 REVERT JUMPDEST PUSH2 0x4F2A DUP10 PUSH2 0x4D30 JUMP JUMPDEST SWAP8 POP PUSH2 0x4F38 PUSH1 0x20 DUP11 ADD PUSH2 0x4D30 JUMP JUMPDEST SWAP7 POP PUSH1 0x40 DUP10 ADD CALLDATALOAD SWAP6 POP PUSH1 0x60 DUP10 ADD CALLDATALOAD SWAP5 POP PUSH1 0x80 DUP10 ADD CALLDATALOAD SWAP4 POP PUSH2 0x4F5B PUSH1 0xA0 DUP11 ADD PUSH2 0x4D87 JUMP JUMPDEST SWAP3 POP PUSH1 0xC0 DUP10 ADD CALLDATALOAD PUSH8 0xFFFFFFFFFFFFFFFF DUP2 GT ISZERO PUSH2 0x4EE6 JUMPI DUP3 DUP4 REVERT JUMPDEST PUSH1 0x0 DUP1 PUSH1 0x0 DUP1 PUSH1 0x0 DUP1 PUSH1 0x0 DUP1 PUSH1 0xE0 DUP10 DUP12 SUB SLT ISZERO PUSH2 0x4F91 JUMPI DUP4 DUP5 REVERT JUMPDEST PUSH2 0x4F9A DUP10 PUSH2 0x4D30 JUMP JUMPDEST SWAP8 POP PUSH2 0x4FA8 PUSH1 0x20 DUP11 ADD PUSH2 0x4D30 JUMP JUMPDEST SWAP7 POP PUSH1 0x40 DUP10 ADD CALLDATALOAD SWAP6 POP PUSH1 0x60 DUP10 ADD CALLDATALOAD SWAP5 POP PUSH2 0x4FC4 PUSH1 0x80 DUP11 ADD PUSH2 0x4D87 JUMP JUMPDEST SWAP4 POP PUSH2 0x4F5B PUSH1 0xA0 DUP11 ADD PUSH2 0x4D87 JUMP JUMPDEST PUSH1 0x0 PUSH1 0x20 DUP3 DUP5 SUB SLT ISZERO PUSH2 0x4FE3 JUMPI DUP1 DUP2 REVERT JUMPDEST POP MLOAD SWAP2 SWAP1 POP JUMP JUMPDEST PUSH1 0x0 DUP1 PUSH1 0x0 DUP1 PUSH1 0x0 PUSH1 0xA0 DUP7 DUP9 SUB SLT ISZERO PUSH2 0x5001 JUMPI DUP1 DUP2 REVERT JUMPDEST PUSH2 0x500A DUP7 PUSH2 0x4D9B JUMP JUMPDEST SWAP5 POP PUSH1 0x20 DUP7 ADD MLOAD SWAP4 POP PUSH1 0x40 DUP7 ADD MLOAD SWAP3 POP PUSH1 0x60 DUP7 ADD MLOAD SWAP2 POP PUSH2 0x502D PUSH1 0x80 DUP8 ADD PUSH2 0x4D9B JUMP JUMPDEST SWAP1 POP SWAP3 SWAP6 POP SWAP3 SWAP6 SWAP1 SWAP4 POP JUMP JUMPDEST PUSH1 0x0 DUP3 DUP5 MSTORE DUP3 DUP3 PUSH1 0x20 DUP7 ADD CALLDATACOPY DUP1 PUSH1 0x20 DUP5 DUP7 ADD ADD MSTORE PUSH1 0x20 PUSH1 0x1F NOT PUSH1 0x1F DUP6 ADD AND DUP6 ADD ADD SWAP1 POP SWAP4 SWAP3 POP POP POP JUMP JUMPDEST PUSH1 0x1 PUSH1 0x1 PUSH1 0xA0 SHL SUB SWAP2 SWAP1 SWAP2 AND DUP2 MSTORE PUSH1 0x20 ADD SWAP1 JUMP JUMPDEST PUSH1 0x0 PUSH1 0x1 DUP1 PUSH1 0xA0 SHL SUB DUP1 DUP11 AND DUP4 MSTORE DUP1 DUP10 AND PUSH1 0x20 DUP5 ADD MSTORE POP DUP7 PUSH1 0x40 DUP4 ADD MSTORE DUP6 PUSH1 0x60 DUP4 ADD MSTORE DUP5 PUSH1 0x80 DUP4 ADD MSTORE PUSH1 0xC0 PUSH1 0xA0 DUP4 ADD MSTORE PUSH2 0x362F PUSH1 0xC0 DUP4 ADD DUP5 DUP7 PUSH2 0x5039 JUMP JUMPDEST PUSH1 0x1 PUSH1 0x1 PUSH1 0xA0 SHL SUB SWAP4 DUP5 AND DUP2 MSTORE PUSH1 0x20 DUP2 ADD SWAP3 SWAP1 SWAP3 MSTORE SWAP1 SWAP2 AND PUSH1 0x40 DUP3 ADD MSTORE PUSH1 0x60 ADD SWAP1 JUMP JUMPDEST PUSH1 0x1 PUSH1 0x1 PUSH1 0xA0 SHL SUB SWAP5 DUP6 AND DUP2 MSTORE PUSH1 0x20 DUP2 ADD SWAP4 SWAP1 SWAP4 MSTORE SWAP3 AND PUSH1 0x40 DUP3 ADD MSTORE PUSH2 0xFFFF SWAP1 SWAP2 AND PUSH1 0x60 DUP3 ADD MSTORE PUSH1 0x80 ADD SWAP1 JUMP JUMPDEST PUSH1 0x1 PUSH1 0x1 PUSH1 0xA0 SHL SUB SWAP4 SWAP1 SWAP4 AND DUP4 MSTORE PUSH1 0x20 DUP4 ADD SWAP2 SWAP1 SWAP2 MSTORE PUSH1 0x40 DUP3 ADD MSTORE PUSH1 0x60 ADD SWAP1 JUMP JUMPDEST PUSH1 0x0 PUSH1 0x1 DUP1 PUSH1 0xA0 SHL SUB DUP8 AND DUP3 MSTORE DUP6 PUSH1 0x20 DUP4 ADD MSTORE DUP5 PUSH1 0x40 DUP4 ADD MSTORE PUSH1 0x80 PUSH1 0x60 DUP4 ADD MSTORE PUSH2 0x3779 PUSH1 0x80 DUP4 ADD DUP5 DUP7 PUSH2 0x5039 JUMP JUMPDEST SWAP1 ISZERO ISZERO DUP2 MSTORE PUSH1 0x20 ADD SWAP1 JUMP JUMPDEST SWAP1 DUP2 MSTORE PUSH1 0x20 ADD SWAP1 JUMP JUMPDEST SWAP2 DUP3 MSTORE PUSH1 0x20 DUP3 ADD MSTORE PUSH1 0x40 ADD SWAP1 JUMP JUMPDEST SWAP3 DUP4 MSTORE PUSH1 0x20 DUP4 ADD SWAP2 SWAP1 SWAP2 MSTORE PUSH1 0x40 DUP3 ADD MSTORE PUSH1 0x60 ADD SWAP1 JUMP JUMPDEST SWAP4 DUP5 MSTORE PUSH1 0x20 DUP5 ADD SWAP3 SWAP1 SWAP3 MSTORE PUSH1 0x40 DUP4 ADD MSTORE PUSH1 0x60 DUP3 ADD MSTORE PUSH1 0x80 ADD SWAP1 JUMP JUMPDEST PUSH1 0x20 DUP1 DUP3 MSTORE PUSH1 0xC SWAP1 DUP3 ADD MSTORE PUSH12 0x155B985D5D1A1BDC9A5E9959 PUSH1 0xA2 SHL PUSH1 0x40 DUP3 ADD MSTORE PUSH1 0x60 ADD SWAP1 JUMP JUMPDEST PUSH1 0x20 DUP1 DUP3 MSTORE PUSH1 0x15 SWAP1 DUP3 ADD MSTORE PUSH21 0xACC2EAD8E840A6D0C2E4CAE6409AD2E6DAC2E8C6D PUSH1 0x5B SHL PUSH1 0x40 DUP3 ADD MSTORE PUSH1 0x60 ADD SWAP1 JUMP JUMPDEST PUSH1 0x20 DUP1 DUP3 MSTORE PUSH1 0x4 SWAP1 DUP3 ADD MSTORE PUSH4 0x135A5B9D PUSH1 0xE2 SHL PUSH1 0x40 DUP3 ADD MSTORE PUSH1 0x60 ADD SWAP1 JUMP JUMPDEST PUSH1 0x20 DUP1 DUP3 MSTORE PUSH1 0x6 SWAP1 DUP3 ADD MSTORE PUSH6 0x52656465656D PUSH1 0xD0 SHL PUSH1 0x40 DUP3 ADD MSTORE PUSH1 0x60 ADD SWAP1 JUMP JUMPDEST PUSH1 0x20 DUP1 DUP3 MSTORE PUSH1 0x16 SWAP1 DUP3 ADD MSTORE PUSH22 0x125B9CDD59999A58DA595B9D081C995C185E5B595B9D PUSH1 0x52 SHL PUSH1 0x40 DUP3 ADD MSTORE PUSH1 0x60 ADD SWAP1 JUMP JUMPDEST PUSH1 0x20 DUP1 DUP3 MSTORE PUSH1 0x15 SWAP1 DUP3 ADD MSTORE PUSH21 0x10D1CE881B9BC81B585C9AD95D1CC81B1A5CDD1959 PUSH1 0x5A SHL PUSH1 0x40 DUP3 ADD MSTORE PUSH1 0x60 ADD SWAP1 JUMP JUMPDEST PUSH1 0x20 DUP1 DUP3 MSTORE PUSH1 0xD SWAP1 DUP3 ADD MSTORE PUSH13 0x92DCECC2D8D2C840D2DCC8CAF PUSH1 0x9B SHL PUSH1 0x40 DUP3 ADD MSTORE PUSH1 0x60 ADD SWAP1 JUMP JUMPDEST PUSH1 0x20 DUP1 DUP3 MSTORE PUSH1 0x10 SWAP1 DUP3 ADD MSTORE PUSH16 0x496E76616C6964204D61747572697479 PUSH1 0x80 SHL PUSH1 0x40 DUP3 ADD MSTORE PUSH1 0x60 ADD SWAP1 JUMP JUMPDEST PUSH1 0x20 DUP1 DUP3 MSTORE PUSH1 0xC SWAP1 DUP3 ADD MSTORE PUSH12 0x4D6178204361706163697479 PUSH1 0xA0 SHL PUSH1 0x40 DUP3 ADD MSTORE PUSH1 0x60 ADD SWAP1 JUMP JUMPDEST PUSH1 0x20 DUP1 DUP3 MSTORE PUSH1 0xB SWAP1 DUP3 ADD MSTORE PUSH11 0x139BDD0814D95D1D1B1959 PUSH1 0xAA SHL PUSH1 0x40 DUP3 ADD MSTORE PUSH1 0x60 ADD SWAP1 JUMP JUMPDEST PUSH1 0x20 DUP1 DUP3 MSTORE PUSH1 0x16 SWAP1 DUP3 ADD MSTORE PUSH22 0x10D1CE881B585C9AD95D081A5B99195E08189BDD5B99 PUSH1 0x52 SHL PUSH1 0x40 DUP3 ADD MSTORE PUSH1 0x60 ADD SWAP1 JUMP JUMPDEST PUSH1 0x20 DUP1 DUP3 MSTORE PUSH1 0xF SWAP1 DUP3 ADD MSTORE PUSH15 0x139BC8149BDB1B08105B1B1BDDD959 PUSH1 0x8A SHL PUSH1 0x40 DUP3 ADD MSTORE PUSH1 0x60 ADD SWAP1 JUMP JUMPDEST PUSH1 0x20 DUP1 DUP3 MSTORE PUSH1 0x17 SWAP1 DUP3 ADD MSTORE PUSH32 0x496E73756666696369656E7420436F6C6C61746572616C000000000000000000 PUSH1 0x40 DUP3 ADD MSTORE PUSH1 0x60 ADD SWAP1 JUMP JUMPDEST PUSH1 0x20 DUP1 DUP3 MSTORE PUSH1 0x17 SWAP1 DUP3 ADD MSTORE PUSH32 0x4D757374204C697175696461746520416C6C2044656274000000000000000000 PUSH1 0x40 DUP3 ADD MSTORE PUSH1 0x60 ADD SWAP1 JUMP JUMPDEST PUSH1 0x20 DUP1 DUP3 MSTORE PUSH1 0xC SWAP1 DUP3 ADD MSTORE PUSH12 0x496E76616C69642072617465 PUSH1 0xA0 SHL PUSH1 0x40 DUP3 ADD MSTORE PUSH1 0x60 ADD SWAP1 JUMP JUMPDEST PUSH1 0x20 DUP1 DUP3 MSTORE PUSH1 0xE SWAP1 DUP3 ADD MSTORE PUSH14 0x1499595B9D1C985B9D0818D85B1B PUSH1 0x92 SHL PUSH1 0x40 DUP3 ADD MSTORE PUSH1 0x60 ADD SWAP1 JUMP JUMPDEST PUSH1 0x20 DUP1 DUP3 MSTORE PUSH1 0xD SWAP1 DUP3 ADD MSTORE PUSH13 0x109BDC9C9BDDC819985A5B1959 PUSH1 0x9A SHL PUSH1 0x40 DUP3 ADD MSTORE PUSH1 0x60 ADD SWAP1 JUMP JUMPDEST PUSH1 0x20 DUP1 DUP3 MSTORE PUSH1 0xA SWAP1 DUP3 ADD MSTORE PUSH10 0x4D696E20426F72726F77 PUSH1 0xB0 SHL PUSH1 0x40 DUP3 ADD MSTORE PUSH1 0x60 ADD SWAP1 JUMP JUMPDEST PUSH1 0x20 DUP1 DUP3 MSTORE PUSH1 0xB SWAP1 DUP3 ADD MSTORE PUSH11 0x92DCECC2D8D2C8408AA89 PUSH1 0xAB SHL PUSH1 0x40 DUP3 ADD MSTORE PUSH1 0x60 ADD SWAP1 JUMP JUMPDEST PUSH1 0x20 DUP1 DUP3 MSTORE PUSH1 0x13 SWAP1 DUP3 ADD MSTORE PUSH19 0x10D1CE881B9BC81B585C9AD95D08199BDD5B99 PUSH1 0x6A SHL PUSH1 0x40 DUP3 ADD MSTORE PUSH1 0x60 ADD SWAP1 JUMP JUMPDEST PUSH1 0x20 DUP1 DUP3 MSTORE PUSH1 0xC SWAP1 DUP3 ADD MSTORE PUSH12 0x21B0B73737BA1022B73A32B9 PUSH1 0xA1 SHL PUSH1 0x40 DUP3 ADD MSTORE PUSH1 0x60 ADD SWAP1 JUMP JUMPDEST PUSH1 0x20 DUP1 DUP3 MSTORE PUSH1 0xB SWAP1 DUP3 ADD MSTORE PUSH11 0x11985A5B19590813195B99 PUSH1 0xAA SHL PUSH1 0x40 DUP3 ADD MSTORE PUSH1 0x60 ADD SWAP1 JUMP JUMPDEST PUSH1 0x20 DUP1 DUP3 MSTORE PUSH1 0x15 SWAP1 DUP3 ADD MSTORE PUSH21 0x14DD59999A58DA595B9D0810DBDB1B185D195C985B PUSH1 0x5A SHL PUSH1 0x40 DUP3 ADD MSTORE PUSH1 0x60 ADD SWAP1 JUMP JUMPDEST DUP2 MLOAD DUP2 MSTORE PUSH1 0x20 DUP1 DUP4 ADD MLOAD SWAP1 DUP3 ADD MSTORE PUSH1 0x40 DUP1 DUP4 ADD MLOAD SWAP1 DUP3 ADD MSTORE PUSH1 0x60 DUP1 DUP4 ADD MLOAD PUSH1 0x1 PUSH1 0x1 PUSH1 0xA0 SHL SUB AND SWAP1 DUP3 ADD MSTORE PUSH1 0x80 SWAP2 DUP3 ADD MLOAD SWAP2 DUP2 ADD SWAP2 SWAP1 SWAP2 MSTORE PUSH1 0xA0 ADD SWAP1 JUMP JUMPDEST PUSH1 0x1 PUSH1 0x1 PUSH1 0x80 SHL SUB SWAP2 SWAP1 SWAP2 AND DUP2 MSTORE PUSH1 0x20 ADD SWAP1 JUMP JUMPDEST PUSH2 0xFFFF SWAP3 SWAP1 SWAP3 AND DUP3 MSTORE PUSH1 0x20 DUP3 ADD MSTORE PUSH1 0x40 ADD SWAP1 JUMP JUMPDEST DUP4 DUP2 MSTORE PUSH1 0x80 DUP2 ADD PUSH1 0x20 DUP1 DUP4 ADD DUP6 PUSH1 0x0 JUMPDEST PUSH1 0x2 DUP2 LT ISZERO PUSH2 0x55F4 JUMPI DUP2 MLOAD DUP4 MSTORE SWAP2 DUP4 ADD SWAP2 SWAP1 DUP4 ADD SWAP1 PUSH1 0x1 ADD PUSH2 0x55D7 JUMP JUMPDEST POP POP POP POP DUP3 PUSH1 0x60 DUP4 ADD MSTORE SWAP5 SWAP4 POP POP POP POP JUMP JUMPDEST SWAP2 DUP3 MSTORE ISZERO ISZERO PUSH1 0x20 DUP3 ADD MSTORE PUSH1 0x40 ADD SWAP1 JUMP INVALID LOG2 PUSH5 0x6970667358 0x22 SLT KECCAK256 0xB8 MSIZE 0x49 0x27 0xD8 0xE5 0x5C 0xE6 0xE1 0xA9 LOG1 SELFDESTRUCT 0xE1 SWAP15 0xFB LOG3 0xDE 0xDD PUSH26 0x40F591FD65B407B161ED67599C64736F6C634300070600330000 ","sha1":"077d94c6e728eb131af9fc1be5dc39e6a11b34bf","source":"// SPDX-License-Identifier: GPL-3.0-only\npragma solidity =0.7.6;\npragma abicoder v2;\n\nimport {ActionGuards} from \"./ActionGuards.sol\";\nimport {IVaultAccountAction} from \"../../../interfaces/notional/IVaultController.sol\";\nimport \"../../internal/vaults/VaultConfiguration.sol\";\nimport \"../../internal/vaults/VaultAccount.sol\";\nimport {VaultStateLib, VaultState} from \"../../internal/vaults/VaultState.sol\";\nimport {TokenHandler, Token, AaveHandler} from \"../../internal/balances/TokenHandler.sol\";\n\ncontract VaultAccountAction is ActionGuards, IVaultAccountAction {\n    using VaultConfiguration for VaultConfig;\n    using VaultAccountLib for VaultAccount;\n    using VaultStateLib for VaultState;\n    using AssetRate for AssetRateParameters;\n    using TokenHandler for Token;\n    using SafeInt256 for int256;\n    using SafeUint256 for uint256;\n\n    /// @notice Borrows a specified amount of fCash in the vault's borrow currency and deposits it\n    /// all plus the depositAmountExternal into the vault to mint strategy tokens.\n    /// @param account the address that will enter the vault\n    /// @param vault the vault to enter\n    /// @param depositAmountExternal some amount of additional collateral in the borrowed currency\n    /// to be transferred to vault\n    /// @param maturity the maturity to borrow at\n    /// @param fCash amount to borrow\n    /// @param maxBorrowRate maximum interest rate to borrow at\n    /// @param vaultData additional data to pass to the vault contract\n    /// @return strategyTokensAdded the total strategy tokens added to the maturity, including any tokens\n    /// from settlement. Allows enterVault to be used by off-chain methods to get an accurate simulation\n    /// of the strategy tokens minted.\n    function enterVault(\n        address account,\n        address vault,\n        uint256 depositAmountExternal,\n        uint256 maturity,\n        uint256 fCash,\n        uint32 maxBorrowRate,\n        bytes calldata vaultData\n    ) external payable override nonReentrant returns (uint256 strategyTokensAdded) { \n        // Ensure that system level accounts cannot enter vaults\n        requireValidAccount(account);\n        VaultConfig memory vaultConfig = VaultConfiguration.getVaultConfigStateful(vault);\n        vaultConfig.authorizeCaller(account, VaultConfiguration.ONLY_VAULT_ENTRY);\n\n        // If the vault allows further re-entrancy then set the status back to the default\n        if (vaultConfig.getFlag(VaultConfiguration.ALLOW_REENTRANCY)) {\n            reentrancyStatus = _NOT_ENTERED;\n        }\n\n        // Vaults cannot be entered if they are paused or matured\n        require(vaultConfig.getFlag(VaultConfiguration.ENABLED), \"Cannot Enter\");\n        require(block.timestamp < maturity, \"Cannot Enter\");\n        VaultAccount memory vaultAccount = VaultAccountLib.getVaultAccount(account, vault);\n\n        uint256 strategyTokens;\n        if (vaultAccount.maturity != 0 && vaultAccount.maturity <= block.timestamp) {\n            // These strategy tokens will be transferred to the new maturity\n            strategyTokens = vaultAccount.settleVaultAccount(vaultConfig, block.timestamp);\n        }\n\n        // Deposits some amount of underlying tokens into the vault directly to serve as additional collateral when\n        // entering the vault.\n        uint256 additionalUnderlyingExternal = vaultConfig.transferUnderlyingToVaultDirect(account, depositAmountExternal);\n        strategyTokensAdded = vaultAccount.borrowAndEnterVault(\n            vaultConfig, maturity, fCash, maxBorrowRate, vaultData, strategyTokens, additionalUnderlyingExternal\n        );\n\n        emit VaultEnterPosition(vault, account, maturity, fCash);\n    }\n\n    /// @notice Re-enters the vault at a longer dated maturity. The account's existing borrow position will be closed\n    /// and a new borrow position at the specified maturity will be opened. Strategy token holdings will transfer to\n    /// the longer dated maturity.\n    /// @param account the address that will reenter the vault\n    /// @param vault the vault to reenter\n    /// @param fCashToBorrow amount of fCash to borrow in the next maturity\n    /// @param maturity new maturity to borrow at\n    /// @return strategyTokensAdded the total strategy tokens added to the maturity, including any tokens\n    /// rolled from the previous maturity.. Allows rollVaultPosition to be used by off-chain methods to get\n    /// an accurate simulation of the strategy tokens minted.\n    function rollVaultPosition(\n        address account,\n        address vault,\n        uint256 fCashToBorrow,\n        uint256 maturity,\n        uint32 minLendRate,\n        uint32 maxBorrowRate,\n        bytes calldata enterVaultData\n    ) external override nonReentrant returns (uint256 strategyTokensAdded) {\n        VaultConfig memory vaultConfig = VaultConfiguration.getVaultConfigStateful(vault);\n        vaultConfig.authorizeCaller(account, VaultConfiguration.ONLY_VAULT_ROLL);\n\n        // If the vault allows further re-entrancy then set the status back to the default\n        if (vaultConfig.getFlag(VaultConfiguration.ALLOW_REENTRANCY)) {\n            reentrancyStatus = _NOT_ENTERED;\n        }\n\n        VaultAccount memory vaultAccount = VaultAccountLib.getVaultAccount(account, vault);\n        // Cannot roll unless all of these requirements are met\n        require(\n            vaultConfig.getFlag(VaultConfiguration.ENABLED) &&\n            vaultConfig.getFlag(VaultConfiguration.ALLOW_ROLL_POSITION) &&\n            block.timestamp < vaultAccount.maturity && // cannot have matured yet\n            vaultAccount.maturity < maturity && // new maturity must be forward in time\n            fCashToBorrow > 0, // must borrow into the next maturity, if not, then they should just exit\n            \"No Roll Allowed\"\n        );\n\n        VaultState memory vaultState = VaultStateLib.getVaultState(vaultConfig.vault, vaultAccount.maturity);\n        // Exit the maturity pool by removing all the vault shares. All of the strategy tokens will be\n        // re-deposited into the new maturity\n        uint256 strategyTokens = vaultState.exitMaturity(vaultAccount, vaultAccount.vaultShares);\n\n        // Exit the vault first and debit the temporary cash balance with the cost to exit\n        vaultAccount.lendToExitVault(\n            vaultConfig,\n            vaultState,\n            vaultAccount.fCash.neg(), // must fully exit the fCash position\n            minLendRate,\n            block.timestamp\n        );\n\n        // This should never be the case for a healthy vault account due to the mechanics of exiting the vault\n        // above but we check it for safety here.\n        require(vaultAccount.fCash == 0, \"Failed Lend\");\n        vaultState.setVaultState(vaultConfig.vault);\n\n        // Enters the vault at the longer dated maturity\n        strategyTokensAdded = vaultAccount.borrowAndEnterVault(\n            vaultConfig,\n            maturity, // This is the new maturity to enter\n            fCashToBorrow,\n            maxBorrowRate,\n            enterVaultData,\n            strategyTokens,\n            0 // No additional tokens deposited in this method\n        );\n\n        emit VaultRollPosition(vault, account, maturity, fCashToBorrow);\n    }\n\n    /// @notice Prior to maturity, allows an account to withdraw their position from the vault. Will\n    /// redeem some number of vault shares to the borrow currency and close the borrow position by\n    /// lending `fCashToLend`. Any shortfall in cash from lending will be transferred from the account,\n    /// any excess profits will be transferred to the account.\n    /// Post maturity, will net off the account's debt against vault cash balances and redeem all remaining\n    /// strategy tokens back to the borrowed currency and transfer the profits to the account.\n    /// @param account the address that will exit the vault\n    /// @param vault the vault to enter\n    /// @param receiver the address that will receive profits\n    /// @param vaultSharesToRedeem amount of vault tokens to exit, only relevant when exiting pre-maturity\n    /// @param fCashToLend amount of fCash to lend\n    /// @param minLendRate the minimum rate to lend at\n    /// @param exitVaultData passed to the vault during exit\n    /// @return underlyingToReceiver amount of underlying tokens returned to the receiver on exit\n    function exitVault(\n        address account,\n        address vault,\n        address receiver,\n        uint256 vaultSharesToRedeem,\n        uint256 fCashToLend,\n        uint32 minLendRate,\n        bytes calldata exitVaultData\n    ) external payable override nonReentrant returns (uint256 underlyingToReceiver) {\n        VaultConfig memory vaultConfig = VaultConfiguration.getVaultConfigStateful(vault);\n        vaultConfig.authorizeCaller(account, VaultConfiguration.ONLY_VAULT_EXIT);\n\n        // If the vault allows further re-entrancy then set the status back to the default\n        if (vaultConfig.getFlag(VaultConfiguration.ALLOW_REENTRANCY)) {\n            reentrancyStatus = _NOT_ENTERED;\n        }\n\n        VaultAccount memory vaultAccount = VaultAccountLib.getVaultAccount(account, vault);\n\n        if (vaultAccount.maturity <= block.timestamp) {\n            // Save this off because settleVaultAccount will clear the maturity\n            uint256 maturity = vaultAccount.maturity;\n            // Past maturity, an account will be settled instead\n            uint256 strategyTokens = vaultAccount.settleVaultAccount(vaultConfig, block.timestamp);\n\n            if (vaultAccount.tempCashBalance > 0) {\n                // Transfer asset cash back to the account\n                VaultConfiguration.transferFromNotional(\n                    receiver, vaultConfig.borrowCurrencyId, vaultAccount.tempCashBalance\n                );\n                vaultAccount.tempCashBalance = 0;\n            }\n\n            // Redeems all strategy tokens and any profits are sent back to the account, it is possible for temp\n            // cash balance to be negative here if the account is insolvent\n            underlyingToReceiver = vaultConfig.redeemWithDebtRepayment(\n                vaultAccount, receiver, strategyTokens, maturity, exitVaultData\n            );\n            emit VaultExitPostMaturity(vault, account, maturity, underlyingToReceiver);\n        } else {\n            VaultState memory vaultState = VaultStateLib.getVaultState(vaultConfig.vault, vaultAccount.maturity);\n            // Puts a negative cash balance on the vault's temporary cash balance\n            vaultAccount.lendToExitVault(\n                vaultConfig, vaultState, fCashToLend.toInt(), minLendRate, block.timestamp\n            );\n\n            uint256 strategyTokens = vaultState.exitMaturity(vaultAccount, vaultSharesToRedeem);\n\n            if (vaultAccount.tempCashBalance > 0) {\n                // Transfer asset cash back to the account, this is possible if there is asset cash\n                // when the vault exits the maturity\n                VaultConfiguration.transferFromNotional(\n                    receiver, vaultConfig.borrowCurrencyId, vaultAccount.tempCashBalance\n                );\n                vaultAccount.tempCashBalance = 0;\n            }\n\n            if (strategyTokens > 0) {\n                underlyingToReceiver = vaultConfig.redeemWithDebtRepayment(\n                    vaultAccount, receiver, strategyTokens, vaultState.maturity, exitVaultData\n                );\n            }\n\n            if (vaultAccount.fCash < 0) {\n                // It's possible that the user redeems more vault shares than they lend (it is not always the case\n                // that they will be increasing their collateral ratio here, so we check that this is the case).\n                vaultConfig.checkCollateralRatio(vaultState, vaultAccount);\n            }\n\n            // Set the vault state after redemption completes\n            vaultState.setVaultState(vaultConfig.vault);\n            emit VaultExitPreMaturity(vault, account, vaultState.maturity, fCashToLend, vaultSharesToRedeem, underlyingToReceiver);\n        }\n\n        if (vaultAccount.fCash == 0 && vaultAccount.vaultShares == 0) {\n            // If the account has no position in the vault at this point, set the maturity to zero as well\n            vaultAccount.maturity = 0;\n        }\n        vaultAccount.setVaultAccount(vaultConfig);\n    }\n\n    /// @notice If an account is below the minimum collateral ratio, this method wil deleverage (liquidate)\n    /// that account. `depositAmountExternal` in the borrow currency will be transferred from the liquidator\n    /// and used to offset the account's debt position. The liquidator will receive either vaultShares or\n    /// cash depending.\n    /// @param account the address that will exit the vault\n    /// @param vault the vault to enter\n    /// @param liquidator the address that will receive profits from liquidation\n    /// @param depositAmountExternal amount of asset cash to deposit\n    /// @param transferSharesToLiquidator transfers the shares to the liquidator instead of redeeming them\n    /// @param redeemData calldata sent to the vault when redeeming liquidator profits\n    /// @return profitFromLiquidation amount of vaultShares or cash received from liquidation\n    function deleverageAccount(\n        address account,\n        address vault,\n        address liquidator,\n        uint256 depositAmountExternal,\n        bool transferSharesToLiquidator,\n        bytes calldata redeemData\n    ) external nonReentrant override returns (uint256 profitFromLiquidation) {\n        VaultConfig memory vaultConfig = _authenticateDeleverage(account, vault, liquidator);\n        VaultAccount memory vaultAccount = VaultAccountLib.getVaultAccount(account, vault);\n        VaultState memory vaultState = VaultStateLib.getVaultState(vault, vaultAccount.maturity);\n\n        // Check that the account has an active position. After maturity, accounts will be settled instead.\n        require(block.timestamp < vaultAccount.maturity);\n\n        // Check that the collateral ratio is below the minimum allowed\n        (int256 collateralRatio, int256 vaultShareValue) = vaultConfig.calculateCollateralRatio(\n            vaultState, account, vaultAccount.vaultShares, vaultAccount.fCash\n        );\n        require(collateralRatio < vaultConfig.minCollateralRatio , \"Sufficient Collateral\");\n\n        Token memory assetToken = TokenHandler.getAssetToken(vaultConfig.borrowCurrencyId);\n        // This will deposit some amount of cash into vaultAccount.tempCashBalance\n        _depositLiquidatorAmount(\n            liquidator, assetToken, vaultAccount, vaultConfig, depositAmountExternal, vaultShareValue\n        );\n\n        // The liquidator will purchase vault shares from the vault account at discount. The calculation is:\n        // (cashDeposited / assetCashValueOfShares) * liquidationRate * vaultShares\n        //      where cashDeposited / assetCashValueOfShares represents the share of the total vault share\n        //      value the liquidator has deposited\n        //      and liquidationRate is a percentage greater than 100% that represents their bonus\n        uint256 vaultSharesToLiquidator;\n        {\n            vaultSharesToLiquidator = vaultAccount.tempCashBalance.toUint()\n                .mul(vaultConfig.liquidationRate.toUint())\n                .mul(vaultAccount.vaultShares)\n                .div(vaultShareValue.toUint())\n                .div(uint256(Constants.RATE_PRECISION));\n        }\n\n        vaultAccount.vaultShares = vaultAccount.vaultShares.sub(vaultSharesToLiquidator);\n        // The liquidated account will lend to exit their position at a zero interest rate and forgo any future interest\n        // from asset tokens. Trading on the AMM during liquidation is risky and lending at a zero interest rate is more\n        // costly to the the liquidated account but is safer from a protocol perspective. This can be seen as a protocol\n        // level liquidation fee.\n        {\n            int256 fCashToReduce = vaultConfig.assetRate.convertToUnderlying(vaultAccount.tempCashBalance);\n            vaultAccount.updateAccountfCash(vaultConfig, vaultState, fCashToReduce, vaultAccount.tempCashBalance.neg());\n            // _calculateLiquidatorDeposit should ensure that we only ever lend up to a zero balance, but in the\n            // case of any off by one issues we clear the fCash balance by down to zero.\n            if (vaultAccount.fCash > 0) vaultAccount.fCash = 0;\n            emit VaultDeleverageAccount(vault, account, vaultSharesToLiquidator, fCashToReduce);\n        }\n\n        // Sets the liquidated account account\n        vaultAccount.setVaultAccount(vaultConfig);\n\n        // Redeems the vault shares for asset cash and transfers it to the designated address\n        emit VaultLiquidatorProfit(vault, account, liquidator, vaultSharesToLiquidator, transferSharesToLiquidator);\n        if (transferSharesToLiquidator) {\n            vaultState.setVaultState(vaultConfig.vault);\n            return _transferLiquidatorProfits(liquidator, vaultConfig, vaultSharesToLiquidator, vaultAccount.maturity);\n        } else {\n            return _redeemLiquidatorProfits(\n                liquidator, vaultConfig, vaultState, vaultSharesToLiquidator, redeemData, assetToken\n            );\n        }\n    }\n\n    /// @notice Authenticates a call to the deleverage method\n    function _authenticateDeleverage(\n        address account,\n        address vault,\n        address liquidator\n    ) private returns (VaultConfig memory vaultConfig) {\n        vaultConfig = VaultConfiguration.getVaultConfigStateful(vault);\n        // If the vault allows further re-entrancy then set the status back to the default\n        if (vaultConfig.getFlag(VaultConfiguration.ALLOW_REENTRANCY)) {\n            reentrancyStatus = _NOT_ENTERED;\n        }\n\n        // Authorization rules for deleveraging\n        if (vaultConfig.getFlag(VaultConfiguration.ONLY_VAULT_DELEVERAGE)) {\n            require(msg.sender == vault, \"Unauthorized\");\n        } else {\n            require(msg.sender == liquidator, \"Unauthorized\");\n        }\n\n        // Cannot liquidate self, if a vault needs to deleverage itself as a whole it has other methods \n        // in VaultAction to do so.\n        require(account != msg.sender && account != liquidator, \"Unauthorized\");\n    }\n\n    /// @notice Calculates the amount the liquidator must deposit and then transfers it into Notional,\n    /// crediting the account's temporary cash balance. Deposits must be in the form of asset cash.\n    function _depositLiquidatorAmount(\n        address liquidator,\n        Token memory assetToken,\n        VaultAccount memory vaultAccount,\n        VaultConfig memory vaultConfig,\n        uint256 _depositAmountExternal,\n        int256 vaultShareValue\n    ) private {\n        int256 depositAmountExternal = _depositAmountExternal.toInt();\n        if (assetToken.tokenType == TokenType.aToken) {\n            // Handles special accounting requirements for aTokens\n            depositAmountExternal = AaveHandler.convertToScaledBalanceExternal(\n                vaultConfig.borrowCurrencyId, depositAmountExternal\n            );\n        }\n\n        // Calculates the maximum deleverage amount\n        (\n            int256 maxLiquidatorDepositAssetCash,\n            int256 debtOutstandingAboveMinBorrow\n        ) = vaultAccount.calculateDeleverageAmount(vaultConfig, vaultShareValue);\n        // Catch potential edge cases where this is negative due to insolvency inside the vault itself\n        require(maxLiquidatorDepositAssetCash > 0);\n        // For aTokens this amount is in scaled balance external precision (the same as depositAmountExternal)\n        int256 maxLiquidatorDepositExternal = assetToken.convertToExternal(maxLiquidatorDepositAssetCash);\n\n        // NOTE: deposit amount external is always positive in this method\n        if (depositAmountExternal < maxLiquidatorDepositExternal) {\n            // If liquidating past the debt outstanding above the min borrow, then the entire debt outstanding\n            // must be liquidated (that is set to maxLiquidatorDepositExternal)\n            require(depositAmountExternal < assetToken.convertToExternal(debtOutstandingAboveMinBorrow), \"Must Liquidate All Debt\");\n        } else {\n            // In the other case, limit the deposited amount to the maximum\n            depositAmountExternal = maxLiquidatorDepositExternal;\n        }\n\n        // Transfers the amount of asset tokens into Notional and credit it to the account's temp cash balance\n        int256 assetAmountExternalTransferred = assetToken.transfer(\n            liquidator, vaultConfig.borrowCurrencyId, depositAmountExternal\n        );\n\n        vaultAccount.tempCashBalance = vaultAccount.tempCashBalance.add(\n            assetToken.convertToInternal(assetAmountExternalTransferred)\n        );\n    }\n\n    /// @notice Transfers liquidator profits in the form of vault shares to be returned to the liquidator\n    function _transferLiquidatorProfits(\n        address receiver,\n        VaultConfig memory vaultConfig,\n        uint256 vaultSharesToLiquidator,\n        uint256 maturity\n    ) private returns (uint256) {\n        // Liquidator will receive vault shares that they can redeem by calling exitVault. If the liquidator has a\n        // leveraged position on then their collateral ratio will increase\n        VaultAccount memory liquidator = VaultAccountLib.getVaultAccount(receiver, vaultConfig.vault);\n        // The liquidator must be able to receive the vault shares (i.e. not be in the vault at all or be in the\n        // vault at the same maturity). If the liquidator has fCash in the current maturity then their collateral\n        // ratio will increase as a result of the liquidation, no need to check their collateral position.\n        require(liquidator.maturity == 0 || liquidator.maturity == maturity, \"Vault Shares Mismatch\"); // dev: has vault shares\n        liquidator.maturity = maturity;\n        liquidator.vaultShares = liquidator.vaultShares.add(vaultSharesToLiquidator);\n        liquidator.setVaultAccount(vaultConfig);\n\n        return vaultSharesToLiquidator;\n    }\n\n    /// @notice Redeems liquidator profits back to asset cash and transfers it to the liquidator\n    function _redeemLiquidatorProfits(\n        address liquidator,\n        VaultConfig memory vaultConfig,\n        VaultState memory vaultState,\n        uint256 vaultShares,\n        bytes calldata redeemData,\n        Token memory assetToken\n    ) private returns (uint256) {\n        (uint256 assetCash, uint256 strategyTokens) = vaultState.exitMaturityDirect(vaultShares);\n        int256 assetCashInternal = vaultConfig.redeemWithoutDebtRepayment(\n            liquidator, strategyTokens, vaultState.maturity, redeemData\n        );\n        assetCashInternal = assetCashInternal.add(assetCash.toInt());\n\n        // Set the vault state after redemption completes\n        vaultState.setVaultState(vaultConfig.vault);\n\n        // Returns a negative amount to signify assets have left the protocol. For aTokens this is the scaled\n        // balance external.\n        int256 actualTransferExternal = assetToken.transfer(\n            liquidator, vaultConfig.borrowCurrencyId, assetToken.convertToExternal(assetCashInternal.neg())\n        );\n\n        if (assetToken.tokenType == TokenType.aToken) {\n            // Convert this back to aToken balanceOf amount to return back to the liquidator\n            Token memory underlyingToken = TokenHandler.getUnderlyingToken(vaultConfig.borrowCurrencyId);\n            actualTransferExternal = AaveHandler.convertFromScaledBalanceExternal(\n                underlyingToken.tokenAddress, actualTransferExternal\n            );\n        }\n\n        // actualTransferExternal is negative to signify assets have left the protocol\n        return actualTransferExternal.neg().toUint();\n    }\n\n    /** View Methods **/\n    function getVaultAccount(address account, address vault) external override view returns (VaultAccount memory) {\n        return VaultAccountLib.getVaultAccount(account, vault);\n    }\n\n    function getVaultAccountDebtShares(\n        address account,\n        address vault\n    ) external override view returns (\n        uint256 debtSharesMaturity,\n        uint256[2] memory accountDebtShares,\n        uint256 accountStrategyTokens\n    ) {\n        VaultAccountSecondaryDebtShareStorage storage s = \n            LibStorage.getVaultAccountSecondaryDebtShare()[account][vault];\n        debtSharesMaturity = s.maturity;\n        accountDebtShares[0] = s.accountDebtSharesOne;\n        accountDebtShares[1] = s.accountDebtSharesTwo;\n\n        VaultAccount memory vaultAccount = VaultAccountLib.getVaultAccount(account, vault);\n        VaultState memory vaultState = VaultStateLib.getVaultState(vault, vaultAccount.maturity);\n        (/* */, accountStrategyTokens) = vaultState.getPoolShare(vaultAccount.vaultShares);\n    }\n\n    function getVaultAccountCollateralRatio(address account, address vault) external override view returns (\n        int256 collateralRatio,\n        int256 minCollateralRatio,\n        int256 maxLiquidatorDepositAssetCash\n    ) {\n        VaultConfig memory vaultConfig = VaultConfiguration.getVaultConfigView(vault);\n        VaultAccount memory vaultAccount = VaultAccountLib.getVaultAccount(account, vault);\n        VaultState memory vaultState = VaultStateLib.getVaultState(vault, vaultAccount.maturity);\n        minCollateralRatio = vaultConfig.minCollateralRatio;\n\n        if (vaultState.isSettled) {\n            // In this case, the maturity has been settled and although the vault account says that it has\n            // some fCash balance it does not actually owe any debt anymore.\n            collateralRatio = type(int256).max;\n        } else {\n            int256 vaultShareValue;\n            (collateralRatio, vaultShareValue) = vaultConfig.calculateCollateralRatio(\n                vaultState, account, vaultAccount.vaultShares, vaultAccount.fCash\n            );\n\n            // Calculates liquidation factors if the account is eligible\n            if (collateralRatio < minCollateralRatio && vaultShareValue > 0) {\n                (maxLiquidatorDepositAssetCash, /* */) = vaultAccount.calculateDeleverageAmount(\n                    vaultConfig, vaultShareValue\n                );\n            }\n        }\n    }\n\n    function getLibInfo() external pure returns (address) {\n        return address(TradingAction);\n    }\n}\n","sourcePath":"contracts/external/actions/VaultAccountAction.sol","type":"contract","deployment":{"address":"0xc560977166B3E59E8CF116a0ca5EEb8A6C1ffa8C","chainid":"5","blockHeight":7454268}}