{"bytecode":"61035f610026600b82828239805160001a60731461001957fe5b30600052607381538281f3fe73000000000000000000000000000000000000000030146080604052600436106100355760003560e01c8063e0c01a721461003a575b600080fd5b61004d6100483660046102ba565b610063565b60405161005a91906102ff565b60405180910390f35b6000806000806100728861011e565b925092509250856000148061008657508086115b156100975760009350505050610116565b85810360006100c46301da9c006100be6305f5e1006100b889818884610188565b90610188565b906101ea565b905060006100d6836100be878b610251565b9050806100ec5760009650505050505050610116565b60006100fc826100be8d86610188565b905061010c816305f5e1006101ea565b9750505050505050505b949350505050565b60008060008061012c6102ae565b6001600160a01b0395909516600090815260209590955250506040909220546bffffffffffffffffffffffff811693600160601b82046fffffffffffffffffffffffffffffffff169350600160e01b90910463ffffffff169150565b600082610197575060006101e4565b828202828482816101a457fe5b04146101e15760405162461bcd60e51b81526004018080602001828103825260218152602001806103096021913960400191505060405180910390fd5b90505b92915050565b6000808211610240576040805162461bcd60e51b815260206004820152601a60248201527f536166654d6174683a206469766973696f6e206279207a65726f000000000000604482015290519081900360640190fd5b81838161024957fe5b049392505050565b6000828211156102a8576040805162461bcd60e51b815260206004820152601e60248201527f536166654d6174683a207375627472616374696f6e206f766572666c6f770000604482015290519081900360640190fd5b50900390565b600080620f424e6101e4565b600080600080608085870312156102cf578384fd5b84356001600160a01b03811681146102e5578485fd5b966020860135965060408601359560600135945092505050565b9081526020019056fe536166654d6174683a206d756c7469706c69636174696f6e206f766572666c6f77a264697066735822122074504d9ce1974bb0b42639f7649888bd77a54d780c7c6be3d6a4ce32bf05797264736f6c63430007060033","bytecodeSha1":"6a66d6b9baf6594461911b1a4c155eab211daeb7","type":"library","abi":[{"inputs":[{"internalType":"address","name":"tokenAddress","type":"address"},{"internalType":"uint256","name":"nTokenBalance","type":"uint256"},{"internalType":"uint256","name":"lastClaimTime","type":"uint256"},{"internalType":"uint256","name":"lastClaimIntegralSupply","type":"uint256"}],"name":"migrateAccountFromPreviousCalculation","outputs":[{"internalType":"uint256","name":"","type":"uint256"}],"stateMutability":"view","type":"function"}],"compiler":{"version":"0.7.6+commit.7338295f","evm_version":"istanbul","optimizer":{"enabled":true,"runs":200}},"contractName":"MigrateIncentives","language":"Solidity","natspec":{"methods":{"migrateAccountFromPreviousCalculation(address,uint256,uint256,uint256)":{"notice":"Calculates the claimable incentives for a particular nToken and account in the previous regime. This should only ever be called ONCE for an account / currency combination to get the incentives accrued up until the migration date."}},"kind":"dev","notice":"Deployed library for migration of incentives from the old (inaccurate) calculation to a newer, more accurate calculation based on SushiSwap MasterChef math. The more accurate calculation is inside `Incentives.sol` and this library holds the legacy calculation as well as the system migration code to be called once.","version":1},"opcodes":"PUSH20 0x0 ADDRESS EQ PUSH1 0x80 PUSH1 0x40 MSTORE PUSH1 0x4 CALLDATASIZE LT PUSH2 0x35 JUMPI PUSH1 0x0 CALLDATALOAD PUSH1 0xE0 SHR DUP1 PUSH4 0xE0C01A72 EQ PUSH2 0x3A JUMPI JUMPDEST PUSH1 0x0 DUP1 REVERT JUMPDEST PUSH2 0x4D PUSH2 0x48 CALLDATASIZE PUSH1 0x4 PUSH2 0x2BA JUMP JUMPDEST PUSH2 0x63 JUMP JUMPDEST PUSH1 0x40 MLOAD PUSH2 0x5A SWAP2 SWAP1 PUSH2 0x2FF JUMP JUMPDEST PUSH1 0x40 MLOAD DUP1 SWAP2 SUB SWAP1 RETURN JUMPDEST PUSH1 0x0 DUP1 PUSH1 0x0 DUP1 PUSH2 0x72 DUP9 PUSH2 0x11E JUMP JUMPDEST SWAP3 POP SWAP3 POP SWAP3 POP DUP6 PUSH1 0x0 EQ DUP1 PUSH2 0x86 JUMPI POP DUP1 DUP7 GT JUMPDEST ISZERO PUSH2 0x97 JUMPI PUSH1 0x0 SWAP4 POP POP POP POP PUSH2 0x116 JUMP JUMPDEST DUP6 DUP2 SUB PUSH1 0x0 PUSH2 0xC4 PUSH4 0x1DA9C00 PUSH2 0xBE PUSH4 0x5F5E100 PUSH2 0xB8 DUP10 DUP2 DUP9 DUP5 PUSH2 0x188 JUMP JUMPDEST SWAP1 PUSH2 0x188 JUMP JUMPDEST SWAP1 PUSH2 0x1EA JUMP JUMPDEST SWAP1 POP PUSH1 0x0 PUSH2 0xD6 DUP4 PUSH2 0xBE DUP8 DUP12 PUSH2 0x251 JUMP JUMPDEST SWAP1 POP DUP1 PUSH2 0xEC JUMPI PUSH1 0x0 SWAP7 POP POP POP POP POP POP POP PUSH2 0x116 JUMP JUMPDEST PUSH1 0x0 PUSH2 0xFC DUP3 PUSH2 0xBE DUP14 DUP7 PUSH2 0x188 JUMP JUMPDEST SWAP1 POP PUSH2 0x10C DUP2 PUSH4 0x5F5E100 PUSH2 0x1EA JUMP JUMPDEST SWAP8 POP POP POP POP POP POP POP POP JUMPDEST SWAP5 SWAP4 POP POP POP POP JUMP JUMPDEST PUSH1 0x0 DUP1 PUSH1 0x0 DUP1 PUSH2 0x12C PUSH2 0x2AE JUMP JUMPDEST PUSH1 0x1 PUSH1 0x1 PUSH1 0xA0 SHL SUB SWAP6 SWAP1 SWAP6 AND PUSH1 0x0 SWAP1 DUP2 MSTORE PUSH1 0x20 SWAP6 SWAP1 SWAP6 MSTORE POP POP PUSH1 0x40 SWAP1 SWAP3 KECCAK256 SLOAD PUSH12 0xFFFFFFFFFFFFFFFFFFFFFFFF DUP2 AND SWAP4 PUSH1 0x1 PUSH1 0x60 SHL DUP3 DIV PUSH16 0xFFFFFFFFFFFFFFFFFFFFFFFFFFFFFFFF AND SWAP4 POP PUSH1 0x1 PUSH1 0xE0 SHL SWAP1 SWAP2 DIV PUSH4 0xFFFFFFFF AND SWAP2 POP JUMP JUMPDEST PUSH1 0x0 DUP3 PUSH2 0x197 JUMPI POP PUSH1 0x0 PUSH2 0x1E4 JUMP JUMPDEST DUP3 DUP3 MUL DUP3 DUP5 DUP3 DUP2 PUSH2 0x1A4 JUMPI INVALID JUMPDEST DIV EQ PUSH2 0x1E1 JUMPI PUSH1 0x40 MLOAD PUSH3 0x461BCD PUSH1 0xE5 SHL DUP2 MSTORE PUSH1 0x4 ADD DUP1 DUP1 PUSH1 0x20 ADD DUP3 DUP2 SUB DUP3 MSTORE PUSH1 0x21 DUP2 MSTORE PUSH1 0x20 ADD DUP1 PUSH2 0x309 PUSH1 0x21 SWAP2 CODECOPY PUSH1 0x40 ADD SWAP2 POP POP PUSH1 0x40 MLOAD DUP1 SWAP2 SUB SWAP1 REVERT JUMPDEST SWAP1 POP JUMPDEST SWAP3 SWAP2 POP POP JUMP JUMPDEST PUSH1 0x0 DUP1 DUP3 GT PUSH2 0x240 JUMPI PUSH1 0x40 DUP1 MLOAD PUSH3 0x461BCD PUSH1 0xE5 SHL DUP2 MSTORE PUSH1 0x20 PUSH1 0x4 DUP3 ADD MSTORE PUSH1 0x1A PUSH1 0x24 DUP3 ADD MSTORE PUSH32 0x536166654D6174683A206469766973696F6E206279207A65726F000000000000 PUSH1 0x44 DUP3 ADD MSTORE SWAP1 MLOAD SWAP1 DUP2 SWAP1 SUB PUSH1 0x64 ADD SWAP1 REVERT JUMPDEST DUP2 DUP4 DUP2 PUSH2 0x249 JUMPI INVALID JUMPDEST DIV SWAP4 SWAP3 POP POP POP JUMP JUMPDEST PUSH1 0x0 DUP3 DUP3 GT ISZERO PUSH2 0x2A8 JUMPI PUSH1 0x40 DUP1 MLOAD PUSH3 0x461BCD PUSH1 0xE5 SHL DUP2 MSTORE PUSH1 0x20 PUSH1 0x4 DUP3 ADD MSTORE PUSH1 0x1E PUSH1 0x24 DUP3 ADD MSTORE PUSH32 0x536166654D6174683A207375627472616374696F6E206F766572666C6F770000 PUSH1 0x44 DUP3 ADD MSTORE SWAP1 MLOAD SWAP1 DUP2 SWAP1 SUB PUSH1 0x64 ADD SWAP1 REVERT JUMPDEST POP SWAP1 SUB SWAP1 JUMP JUMPDEST PUSH1 0x0 DUP1 PUSH3 0xF424E PUSH2 0x1E4 JUMP JUMPDEST PUSH1 0x0 DUP1 PUSH1 0x0 DUP1 PUSH1 0x80 DUP6 DUP8 SUB SLT ISZERO PUSH2 0x2CF JUMPI DUP4 DUP5 REVERT JUMPDEST DUP5 CALLDATALOAD PUSH1 0x1 PUSH1 0x1 PUSH1 0xA0 SHL SUB DUP2 AND DUP2 EQ PUSH2 0x2E5 JUMPI DUP5 DUP6 REVERT JUMPDEST SWAP7 PUSH1 0x20 DUP7 ADD CALLDATALOAD SWAP7 POP PUSH1 0x40 DUP7 ADD CALLDATALOAD SWAP6 PUSH1 0x60 ADD CALLDATALOAD SWAP5 POP SWAP3 POP POP POP JUMP JUMPDEST SWAP1 DUP2 MSTORE PUSH1 0x20 ADD SWAP1 JUMP INVALID MSTORE8 PUSH2 0x6665 0x4D PUSH2 0x7468 GASPRICE KECCAK256 PUSH14 0x756C7469706C69636174696F6E20 PUSH16 0x766572666C6F77A26469706673582212 KECCAK256 PUSH21 0x504D9CE1974BB0B42639F7649888BD77A54D780C7C PUSH12 0xE3D6A4CE32BF05797264736F PUSH13 0x63430007060033000000000000 ","sha1":"71616c92167433e858a7997c25028cebfeafa1a3","source":"// SPDX-License-Identifier: GPL-3.0-only\npragma solidity ^0.7.0;\npragma abicoder v2;\n\nimport \"../global/LibStorage.sol\";\nimport \"../internal/nToken/nTokenHandler.sol\";\nimport \"@openzeppelin/contracts/math/SafeMath.sol\";\n\n/**\n * @notice Deployed library for migration of incentives from the old (inaccurate) calculation\n * to a newer, more accurate calculation based on SushiSwap MasterChef math. The more accurate\n * calculation is inside `Incentives.sol` and this library holds the legacy calculation as well\n * as the system migration code to be called once.\n */\nlibrary MigrateIncentives {\n    using SafeMath for uint256;\n\n    /// @notice Calculates the claimable incentives for a particular nToken and account in the\n    /// previous regime. This should only ever be called ONCE for an account / currency combination\n    /// to get the incentives accrued up until the migration date.\n    function migrateAccountFromPreviousCalculation(\n        address tokenAddress,\n        uint256 nTokenBalance,\n        uint256 lastClaimTime,\n        uint256 lastClaimIntegralSupply\n    ) external view returns (uint256) {\n        (\n            uint256 finalEmissionRatePerYear,\n            uint256 finalTotalIntegralSupply,\n            uint256 finalMigrationTime\n        ) = _getMigratedIncentiveValues(tokenAddress);\n\n        // This if statement should never be true but we return 0 just in case\n        if (lastClaimTime == 0 || lastClaimTime > finalMigrationTime) return 0;\n\n        // No overflow here, checked above. All incentives are claimed up until finalMigrationTime\n        // using the finalTotalIntegralSupply. Both these values are set on migration and will not\n        // change.\n        uint256 timeSinceMigration = finalMigrationTime - lastClaimTime;\n\n        // (timeSinceMigration * INTERNAL_TOKEN_PRECISION * finalEmissionRatePerYear) / YEAR\n        uint256 incentiveRate =\n            timeSinceMigration\n                .mul(uint256(Constants.INTERNAL_TOKEN_PRECISION))\n                // Migration emission rate is stored as is, denominated in whole tokens\n                .mul(finalEmissionRatePerYear).mul(uint256(Constants.INTERNAL_TOKEN_PRECISION))\n                .div(Constants.YEAR);\n\n        // Returns the average supply using the integral of the total supply.\n        uint256 avgTotalSupply = finalTotalIntegralSupply.sub(lastClaimIntegralSupply).div(timeSinceMigration);\n        if (avgTotalSupply == 0) return 0;\n\n        uint256 incentivesToClaim = nTokenBalance.mul(incentiveRate).div(avgTotalSupply);\n        // incentiveRate has a decimal basis of 1e16 so divide by token precision to reduce to 1e8\n        incentivesToClaim = incentivesToClaim.div(uint256(Constants.INTERNAL_TOKEN_PRECISION));\n\n        return incentivesToClaim;\n    }\n\n    function _getMigratedIncentiveValues(\n        address tokenAddress\n    ) private view returns (\n        uint256 finalEmissionRatePerYear,\n        uint256 finalTotalIntegralSupply,\n        uint256 finalMigrationTime\n    ) {\n        mapping(address => nTokenTotalSupplyStorage_deprecated) storage store = LibStorage.getDeprecatedNTokenTotalSupplyStorage();\n        nTokenTotalSupplyStorage_deprecated storage d_nTokenStorage = store[tokenAddress];\n\n        // The total supply value is overridden as emissionRatePerYear during the initialization\n        finalEmissionRatePerYear = d_nTokenStorage.totalSupply;\n        finalTotalIntegralSupply = d_nTokenStorage.integralTotalSupply;\n        finalMigrationTime = d_nTokenStorage.lastSupplyChangeTime;\n    }\n\n}","sourcePath":"contracts/external/MigrateIncentives.sol","deployment":{"address":"0xC7d73900E8Cffe0B5299a4703DfC5a9Aaf77355C","chainid":"5","blockHeight":6439053}}