{"bytecode":"6153d8610026600b82828239805160001a60731461001957fe5b30600052607381538281f3fe730000000000000000000000000000000000000000301460806040526004361061004b5760003560e01c8063bb6dd58e14610050578063c4c96dae14610072578063d0e064c014610090575b600080fd5b81801561005c57600080fd5b5061007061006b366004614f93565b6100b0565b005b61007a61029d565b6040516100879190614fe7565b60405180910390f35b81801561009c57600080fd5b506100706100ab366004614fad565b6102b5565b426100b9614dd8565b6100c38184610731565b602081015151516100ef5760405162461bcd60e51b81526004016100e69061514a565b60405180910390fd5b60006100fa8361074a565b905080826080015110156101205760405162461bcd60e51b81526004016100e690615090565b60a0820151608083015160009161013e919060021a610e100261076d565b905080841161015f5760405162461bcd60e51b81526004016100e690614ffb565b6040805160008082526020820190925261019d90859083610196565b610183614e21565b81526020019060019003908161017b5790505b50876107d0565b905060006101b882866060015161093090919063ffffffff16565b60c08601518651519192506101d19161ffff168461094c565b604051632128561360e11b815273__nTokenMintAction______________________90634250ac269061020a908a90859060040161536d565b60206040518083038186803b15801561022257600080fd5b505af4158015610236573d6000803e3d6000fd5b505050506040513d601f19601f8201168201806040525081019061025a9190614f7b565b507f120b36bd1b47ae64f0f3ea6eb0fbfba209b2c780a31864e382d9957377a9f946878260405161028c92919061536d565b60405180910390a150505050505050565b73__nTokenMintAction______________________90565b426102be614dd8565b6102c88185610731565b80516020015160009067ffffffffffffffff811180156102e757600080fd5b5060405190808252806020026020018201604052801561032157816020015b61030e614e21565b8152602001906001900390816103065790505b508251602001519091506103475760405162461bcd60e51b81526004016100e6906152e3565b83156103715760208201515151156103715760405162461bcd60e51b81526004016100e690615233565b60006103848383868961ffff168961096f565b9050600061039e8761ffff16856000015160200151610a01565b90506103a8614e21565b6000805b8651602001518110156106a1576103d76103c882600101610a3d565b6103d18a61074a565b9061076d565b60208401528351805160009161040a91889190859081106103f457fe5b602002602001015184600260ff1601878c610ae1565b905060006104258a8660200151610b4690919063ffffffff16565b895190915060009061043b906001860184610ba3565b90508b806104555750836001148015610455575088516002145b80610466575060208a015151518410155b80610494575083600114801561049457508860028151811061048457fe5b602002602001015160c001516000145b156105155760006104bc84896060015187815181106104af57fe5b6020026020010151610c15565b9050808760400181815250506104ec8185848b6040015189815181106104de57fe5b602002602001015187610c32565b60c0880181905261050f5760405162461bcd60e51b81526004016100e690615313565b5061067d565b8361053a578860018151811061052757fe5b602002602001015160c001519450610597565b836001141561055c57610555896105508d61074a565b610c5c565b9450610597565b600061057361056a86610a3d565b6103d18e61074a565b905061059381878c888151811061058657fe5b6020026020010151610cf5565b9550505b60006105bc8684848b6040015189815181106105af57fe5b6020026020010151610d8c565b9050876020015185815181106105ce57fe5b602002602001015181131561064857876020015185815181106105ed57fe5b602002602001015190506106018482610c15565b876040018181525050610624876040015185848b6040015189815181106104de57fe5b9550856106435760405162461bcd60e51b81526004016100e690615062565b610658565b6106528482610c15565b60408801525b60018760400151121561066d57600160408801525b5060c0860185905260e086018b90525b60c086015160a08701526106968661ffff8f168c610e2e565b5050506001016103ac565b5060006106bf8760c001518860200151610e7790919063ffffffff16565b50925050506106db8760c001518b61ffff16896060015161094c565b6106ee8760c001518289608001516110b6565b7fcffeff9accc9171f01fec36e09a1a06f0160ce50a8c4c0a2adff9cec562adf088a60405161071d919061535e565b60405180910390a150505050505050505050565b61073b8282611129565b610744816111cc565b90915250565b60006276a70082101561075c57600080fd5b6276a700825b06820390505b919050565b6000828201838110156107c7576040805162461bcd60e51b815260206004820152601b60248201527f536166654d6174683a206164646974696f6e206f766572666c6f770000000000604482015290519081900360640190fd5b90505b92915050565b6000806107ed8560c0015186600001516000015161ffff166111ef565b60a0860151855191925060011a620f424002906000901561081a57610815856276a700610b46565b61081c565b845b9050600061082984611224565b90505b8015610912576000610842896080015183611249565b90508751600014801561086157508851602001516108619082896112fc565b1561088557610872858360006113a1565b945061087d85611224565b91505061082c565b60c089015189515160009161089e9161ffff16846113ec565b905060008112156108f25789516000906108b9908487611431565b9050808611156108cb575060006108d8565b6108d58187610b46565b90505b6108ee6108e783858c85611510565b8990611556565b9750505b6108fe868460006113a1565b955061090986611224565b9250505061082c565b875160400151610922908661156c565b9450505050505b9392505050565b600061093c8383611556565b905060008112156107ca57600080fd5b600081121561095a57600080fd5b61096a838383600080600061159d565b505050565b6000806000831561099457610983866116c8565b64ffffffffff1660808901526109b9565b61099e88876116e4565b6109aa85878a8a6117be565b6109b68888878961184e565b90505b60608801516109c89082610930565b6060890182905291506305f5e10082136109f45760405162461bcd60e51b81526004016100e690615204565b5090505b95945050505050565b610a09614e69565b610a11614e69565b610a1b84846118d7565b60208301528152610a2c848461190f565b606083015260408201529392505050565b60008160011415610a5257506276a700610768565b8160021415610a65575062ed4e00610768565b8160031415610a7957506301da9c00610768565b8160041415610a8d57506303b53800610768565b8160051415610aa157506309450c00610768565b8160061415610ab5575063128a1800610768565b8160071415610ac957506325143000610768565b60405162461bcd60e51b81526004016100e6906150f6565b600080610afc6305f5e100610af68989611939565b90611987565b606085018190526080850181905283515160208087015190860151929350610b2b929161ffff169088856119b8565b825160400151610b3b9082611ab5565b979650505050505050565b600082821115610b9d576040805162461bcd60e51b815260206004820152601e60248201527f536166654d6174683a207375627472616374696f6e206f766572666c6f770000604482015290519081900360640190fd5b50900390565b600082600111158015610bba575083602001518311155b610bc357600080fd5b606084015160806008600019860102019060ff90821c16633b9aca00026000610bfc610bee86611ae0565b610af6846301da9c00611939565b905060008113610c0b57600080fd5b9695505050505050565b60006107c7610c28633b9aca0084611556565b610af68585611939565b600080610c3f8484611afa565b90506000610c508888888588611b65565b98975050505050505050565b6000600383511015610c805760405162461bcd60e51b81526004016100e69061511d565b6107c783600181518110610c9057fe5b60200260200101516020015184600281518110610ca957fe5b60200260200101516020015185600181518110610cc257fe5b602002602001015160c0015186600281518110610cdb57fe5b602090810291909101015160c0015162ed4e008701611c22565b602081015160c0820151600091906276a7008201828710610d285760405162461bcd60e51b81526004016100e69061519d565b858210610d5757610d4d866103d1898603610d478387038c8703611c80565b90611cd9565b9350505050610929565b6000610d6d888503610d47858a038b8603611c80565b9050808711610d7d576000610d81565b8087035b945050505050610929565b600080610d998386611afa565b90506000610da78787611afa565b90506000610dc7610dc287610dbc8587611556565b90611d40565b611d59565b9050610dd981621dcd6560491b611d8c565b9050610de481611ddf565b90506000610dff82610dfa84600160401b611e34565b611d8c565b9050610e1181621dcd6560491b611e67565b9050610e1c81611e9d565b60070b9450505050505b949350505050565b60006276a700610e3d4261074a565b019050610e4b848483611ea6565b610e708260c001518486602001518560800151610e6b8960400151611f0d565b611f1b565b5050505050565b6000808080808080805b895151811015610f085760008a600001518281518110610e9d57fe5b60200260200101519050600380811115610eb357fe5b8160a001516003811115610ec357fe5b1415610ece57600080fd5b60028160a001516003811115610ee057fe5b14158015610ef057506060810151155b15610eff57610eff8b83612085565b50600101610e81565b5060005b895151811015610fab5760008a600001518281518110610f2857fe5b6020026020010151905060026003811115610f3f57fe5b8160a001516003811115610f4f57fe5b1415610f6357608081015160009055610fa2565b60018160a001516003811115610f7557fe5b1415610f8e57608081015180610f8b83826121d5565b50505b610f9a818686866122fe565b919650945092505b50600101610f0c565b5060608901516000610fbb612361565b6001600160a01b038b1660009081526020829052604081209192505b8c60200151518110156110855760008d602001518281518110610ff657fe5b60200260200101519050806060015160001415611013575061107d565b60028160a00151600381111561102557fe5b14158015611043575060038160a00151600381111561104057fe5b14155b61104c57600080fd5b611058818989896122fe565b919950975095506110758184876010811061106f57fe5b016121d5565b600185019450505b600101610fd7565b506010831115801561109c575064ffffffffff8411155b6110a557600080fd5b50939a929950975095509350505050565b63ffffffff81106110c657600080fd5b60006110d061236e565b6001600160a01b039094166000908152602094909452506040909220805460ff909216600160501b0260ff60501b1963ffffffff909416600160301b0269ffffffff000000000000199093169290921792909216179055565b6111368161ffff1661237b565b6001600160a01b031660c0830181905260009081908190611156906123a1565b9450945094505050600061116d8660c0015161240a565b505060808701859052604087018190526001600160d81b0319831660a088015260c08701519091506111a19084600061246b565b602087015260c08601516111b99061ffff87166124fe565b5050506060909601959095525050505050565b6111d4614e91565b60006111e38361ffff166125a7565b905061092983826125f3565b6000806111fa612636565b6001600160a01b038516600090815260209182526040808220868352909252205491505092915050565b60008161123357506000610768565b61123c82612643565b60ff036001019050919050565b60008161125557600080fd5b61010082111561126457600080fd5b600061126f846116c8565b90506000605a841161128a57506201518083020190506107ca565b608784116112b2575060591983016207e900908102908206909103016276a7000190506107ca565b60c384116112db5750608619830162278d00908102908206909103016301da9c000190506107ca565b5060c21983016276a70090810290820690910301630b1fa8000190506107ca565b600080841161131d5760405162461bcd60e51b81526004016100e6906150c7565b600784111561133e5760405162461bcd60e51b81526004016100e6906151d4565b6276a70083061561135157506000610929565b600061135c8361074a565b905060015b8581116113955761137b61137482610a3d565b839061076d565b85141561138d57600192505050610929565b600101611361565b50600095945050505050565b6000600183101580156113b657506101008311155b6113bf57600080fd5b81156113d85750600160ff1b60001983011c8317610929565b50600160ff1b60001983011c198316610929565b6000806113f76126dc565b6001600160a01b03861660009081526020918252604080822087835283528082208683529092522054600f90810b900b9150509392505050565b6000806000611445866020015186866126e9565b915091506000611454876127b1565b90508161146d578651610d4d9061ffff168783886127c5565b60006114788661074a565b9050600061148861137486610a3d565b905060006114a08a6000015161ffff1683868b6127c5565b905060008087600114156114c5578991506114be8c60400151612864565b90506114f4565b6114db6114d460018a03610a3d565b869061076d565b91506114f18c6000015161ffff1683888d6127c5565b90505b611501828583868f611c22565b98505050505050505050610929565b60008461151f57506000610e26565b600061152b8585610b46565b9050600061153982856128f5565b9050633b9aca0081131561154c57600080fd5b610b3b8782611d40565b808203828113156000831215146107ca57600080fd5b600080610e268460200151610af686604001516115976402540be4008861193990919063ffffffff16565b90611939565b60006115a761295d565b6001600160a01b0388166000908152602082815260408083208a845290915290209091506001600160571b031986128015906115ea57506001600160571b038613155b6115f357600080fd5b6000851215801561160b57506001600160501b038513155b61161457600080fd5b831561161f57600080fd5b66ffffffffffffff83111561163357600080fd5b805466ffffffffffffff909316600160701b0266ffffffffffffff60701b19600a9790970b6affffffffffffffffffffff16600160a81b026001600160a81b0363ffffffff909616600160501b0263ffffffff60501b196001600160501b0390981669ffffffffffffffffffff1990961695909517969096169390931793909316939093179390931692909217909155505050565b6000620151808210156116da57600080fd5b6201518082610762565b60006116ef8261074a565b9050808360800151106117145760405162461bcd60e51b81526004016100e69061525f565b600061172484602001518461296a565b90506117558160008151811061173657fe5b6020026020010151602001518560600151612b6890919063ffffffff16565b60608501525060c08301518351516080850151600092839261177e9261ffff9091169087612b7e565b606087015191935091506117929083612b68565b606086015264ffffffffff8111156117a957600080fd5b64ffffffffff16608090940193909352505050565b60006117cd83600001516127b1565b905060006117da8561074a565b905060015b602085015151518110156118455761183d87866020015160000151838151811061180557fe5b60200260200101516020015188600087878a888151811061182257fe5b6020026020010151612ca3909695949392919063ffffffff16565b6001016117df565b50505050505050565b600060015b602086015151518110156118cb576000866020015160000151828151811061187757fe5b60200260200101519050600160ff1681604001511461189557600080fd5b6118b28760c001518683602001518a608001518560600151611f1b565b5060208701516118c29083612085565b50600101611853565b506109f88585846107d0565b60608060006118e4612cda565b60008681526020829052604081209192506119029082908790612ce7565b9097909650945050505050565b606080600061191c612e86565b600086815260208290526040902090915061190281866001612ce7565b8181026000198314156119695781158061195b57508282828161195857fe5b05145b61196457600080fd5b6107ca565b82158061197e57508183828161197b57fe5b05145b6107ca57600080fd5b60008160001914801561199d5750600160ff1b83145b156119a757600080fd5b8183816119b057fe5b059392505050565b84516119c79085858585612e93565b156119d157610e70565b6040850151156119fe5760006119ee866020015186868686612e93565b905080156119fc5750610e70565b505b611a0782612fa4565b15611a1a576000811215611a1a57600080fd5b6001600160571b03198112801590611a3957506001600160571b038113155b611a4257600080fd5b84602001515185604001511415611a6657611a608560200151612fba565b60208601525b60008560200151866040015181518110611a7c57fe5b6020908102919091018101519586528501939093526040808501929092526060840152600060a090930192909252500180516001019052565b600080610e268460400151610af66402540be400610af687896020015161193990919063ffffffff16565b60006001600160ff1b03821115611af657600080fd5b5090565b600080611b17611b126301da9c00610d478787611c80565b613073565b90506000611b2b82621dcd6560491b611d8c565b90506000611b3882611ddf565b90506000611b4c82621dcd6560491b611e67565b9050611b5781611e9d565b60070b979650505050505050565b6000806000611b7888888888600061308a565b9150915080611b8c576000925050506109f8565b6000611b9783611d59565b90506000611bab82621dcd6560491b611d8c565b90506000611bb882613140565b90506000611bd4611bcf83621dcd6560491b611e67565b61317a565b67ffffffffffffffff1690506000611bf489610d47846301da9c00611c80565b905063ffffffff811115611c125760009750505050505050506109f8565b9c9b505050505050505050505050565b6000818610611c3057600080fd5b848210611c3c57600080fd5b838310611c6257611c5b846103d1888803610d478388038b8803611c80565b90506109f8565b611c5b611c79878703610d478688038a8703611c80565b8590610b46565b600082611c8f575060006107ca565b82820282848281611c9c57fe5b04146107c75760405162461bcd60e51b81526004018080602001828103825260218152602001806153826021913960400191505060405180910390fd5b6000808211611d2f576040805162461bcd60e51b815260206004820152601a60248201527f536166654d6174683a206469766973696f6e206279207a65726f000000000000604482015290519081900360640190fd5b818381611d3857fe5b049392505050565b60006107c7611d4f8484611939565b633b9aca00611987565b6000677fffffffffffffff198212158015611d7c5750677fffffffffffffff8213155b611d8557600080fd5b5060401b90565b600081600f0b60001415611d9f57600080fd5b600082600f0b604085600f0b901b81611db457fe5b05905060016001607f1b03198112801590611dd6575060016001607f1b038113155b6107c757600080fd5b6000600160461b82600f0b12611df457600080fd5b683fffffffffffffffff1982600f0b1215611e1157506000610768565b6107ca608083600f0b700171547652b82fe1777d0ffda0d23a7d1202901d613196565b6000600f83810b9083900b0160016001607f1b03198112801590611dd6575060016001607f1b038113156107c757600080fd5b6000600f83810b9083900b0260401d60016001607f1b03198112801590611dd6575060016001607f1b038113156107c757600080fd5b600f0b60401d90565b6000611eb0613c44565b60008481526020828152604080832088830151845282528083208684529091529081902090860151606087015160a088015160c089015160e08a01519596509394611eff948694939291613c51565b610e70818660800151613d65565b60006107ca60001983611939565b600080611f2887876111ef565b90506000611f346126dc565b6001600160a01b0389166000908152602082815260408083208b845282528083208a8452909152812091925080611f6b888a613dae565b9150915080611f7957600080fd5b611f838583613eb9565b15612012578254600090611f9f908990600f90810b900b612b68565b905060016001607f1b03198112801590611fc0575060016001607f1b038113155b611fc957600080fd5b83546001600160801b0319166001600160801b03600f83900b1617845580611ffa57611ff7868460006113a1565b95505b6120058c8c88613ee9565b95506109f8945050505050565b86156120765760016001607f1b03198712801590612037575060016001607f1b038713155b61204057600080fd5b82546001600160801b0319166001600160801b03600f89900b16178355612069858360016113a1565b94506120768b8b87613ee9565b50949998505050505050505050565b815151811061209357600080fd5b60008260600151116120a457600080fd5b6000826000015182815181106120b657fe5b60200260200101519050600260038111156120cd57fe5b8160a0015160038111156120dd57fe5b141580156120fb575060038160a0015160038111156120f857fe5b14155b61210457600080fd5b606083018051600019019052600080805b8551518110156121775760008660000151828151811061213157fe5b6020026020010151905082816080015111801561215e575060028160a00151600381111561215b57fe5b14155b1561216e57806080015192508193505b50600101612115565b5081841415612190575050600260a091909101526121d1565b6000856000015183815181106121a257fe5b602090810291909101015160808581018051918301805190915252600160a09182015260029401939093525050505b5050565b8151158015906121e857508151613fff10155b6121f157600080fd5b8160200151600010801561220e5750602082015164ffffffffff10155b61221757600080fd5b8160400151600010801561223057506040820151600810155b61223957600080fd5b60608201516001600160571b031913801590612260575060608201516001600160571b0312155b61226957600080fd5b8151815460208401516040850151606090950151600a0b6affffffffffffffffffffff16600160401b0272ffffffffffffffffffffff00000000000000001960ff909616600160381b0267ff000000000000001964ffffffffff909316620100000266ffffffffff00001961ffff90961661ffff19909516949094179490941692909217169190911792909216919091179055565b60008060008061230d88613f43565b905084158061231b57508085115b15612324578094505b8680612334575060008860600151125b965061ffff86161561234557600080fd5b50509451939560109390931c60f09490941b9390931793509150565b6000806107ca600d613faa565b6000806107ca6002613faa565b600080612386613fc3565b6000938452602052505060409020546001600160a01b031690565b6000806000806000806123b261236e565b6001600160a01b039097166000908152602097909752505060409094205461ffff81169563ffffffff62010000830481169650600160301b830416945060ff600160501b8304169350600160581b90910460d81b9150565b600080600080612418613fd0565b6001600160a01b0395909516600090815260209590955250506040909220546bffffffffffffffffffffffff811693600160601b82046001600160801b03169350600160e01b90910463ffffffff169150565b612473614ebd565b61247b614ebd565b60ff841661248a579050610929565b6124948585613fdd565b815260ff841660608201528267ffffffffffffffff811180156124b657600080fd5b506040519080825280602002602001820160405280156124f057816020015b6124dd614ee5565b8152602001906001900390816124d55790505b506020820152949350505050565b600080600080600061250e61295d565b6001600160a01b0388166000908152602082815260408083208a8452909152902080546001600160501b0381169650600160501b900463ffffffff169450909150831561257757805461257090600160701b900466ffffffffffffff16614006565b925061258c565b8054600160701b900466ffffffffffffff1692505b54600160a81b9004600a90810b900b97939650919450925050565b6125af614f25565b60008060006125bd85614014565b604080516060810182526001600160a01b039093168352602083019390935260ff16600a0a918101919091529350505050919050565b6125fb614e91565b600061260a8461ffff166140d7565b6040805160808101825261ffff96909616865260ff821660208701528501939093525050606082015290565b6000806107ca600b613faa565b60008161264f57600080fd5b600160801b821061266257608091821c91015b600160401b821061267557604091821c91015b640100000000821061268957602091821c91015b62010000821061269b57601091821c91015b61010082106126ac57600891821c91015b601082106126bc57600491821c91015b600482106126cc57600291821c91015b6002821061076857600101919050565b6000806107ca600c613faa565b6000806000851161270c5760405162461bcd60e51b81526004016100e6906150c7565b600785111561272d5760405162461bcd60e51b81526004016100e6906151d4565b60006127388461074a565b905060015b86811161279057600061275961275283610a3d565b849061076d565b90508681141561277157509250600091506127a99050565b8681111561278757509250600191506127a99050565b5060010161273d565b5060405162461bcd60e51b81526004016100e6906152b6565b935093915050565b6060015161012c60089190911c60ff160290565b6000806127d0613c44565b905060006276a7006127e18561074a565b6000898152602085815260408083208b84528252808320949093018083529390522080549192509063ffffffff600160a01b8204811691600160c01b8104821691600160e01b90910416816128485760405162461bcd60e51b81526004016100e690615032565b6128558184848c8c6140f4565b9b9a5050505050505050505050565b80516000906001600160a01b031661287e57506000610768565b600082600001516001600160a01b031663dd30a6666040518163ffffffff1660e01b815260040160206040518083038186803b1580156128bd57600080fd5b505afa1580156128d1573d6000803e3d6000fd5b505050506040513d601f19601f820116820180604052508101906107c79190614f7b565b60008061290d611b126301da9c00610d478688611c80565b905061291f81621dcd6560491b611d8c565b905061293261292d82614187565b611ddf565b905061294481621dcd6560491b611e67565b9050600061295182611e9d565b60070b95945050505050565b6000806107ca6006613faa565b6060612974614f25565b600061298085856141a9565b905061298a614e21565b815161299a575091506107ca9050565b6000805b875151811015612b5c576000886000015182815181106129ba57fe5b6020026020010151905060006129cf82613f43565b9050888111156129e0575050612b54565b81600001518685815181106129f157fe5b60200260200101516000015114612a26576001840193508160000151868581518110612a1957fe5b6020908102919091010151525b604082015160009060011415612a7357612a49836000015184602001518c6142ce565b9750612a6283606001518961156c90919063ffffffff16565b9050612a6e8b85612085565b612b0a565b612a808360400151612fa4565b15612b0a57612a9986846000015185602001518561443e565b6000612ab284606001518861445290919063ffffffff16565b602086015191935091508b1015612ad357612ace8c86836144fa565b612b08565b612ae6846000015185602001518d6142ce565b9850612afc612af58a8361156c565b8390612b68565b9150612b088c86612085565b505b612b3481888781518110612b1a57fe5b602002602001015160200151612b6890919063ffffffff16565b878681518110612b4057fe5b602002602001015160200181815250505050505b60010161299e565b50919695505050505050565b818101828112156000831215146107ca57600080fd5b6000806000612b8d87876111ef565b9050612b98846116c8565b915084821015612ba757600080fd5b6000612bb38684613dae565b50905080612bc2575050612c9a565b6000612bcd83611224565b90505b8015801590612bdf5750818111155b15612c29576000612bf08883611249565b9050612c08612c018b8b848b6145b0565b8790612b68565b9550612c16848360006113a1565b9350612c2184611224565b915050612bd0565b60005b8115612c8a576000612c3e8984611249565b9050600080612c4d8884613dae565b9150915080612c5b57600080fd5b612c67848360016113a1565b9350612c75878660006113a1565b9650612c8087611224565b9450505050612c2c565b612c958a8a83613ee9565b505050505b94509492505050565b612cb0878787868561464b565b612cc98760e001518860a001518960c0015185886140f4565b60c090970196909652505050505050565b6000806107ca6004613faa565b6060806000808567ffffffffffffffff81118015612d0457600080fd5b50604051908082528060200260200182016040528015612d2e578160200160208202803683370190505b50905060008667ffffffffffffffff81118015612d4a57600080fd5b50604051908082528060200260200182016040528015612d74578160200160208202803683370190505b50905060005b87811015612e78578884600e8110612d8e57fe5b600891828204019190066004029054906101000a900463ffffffff1663ffffffff16838281518110612dbc57fe5b60209081029190910101526001909301928884600e8110612dd957fe5b600891828204019190066004029054906101000a900463ffffffff1663ffffffff16828281518110612e0757fe5b60209081029190910101526001909301928615612e70576000838281518110612e2c57fe5b6020026020010151138015612e5457506000828281518110612e4a57fe5b6020026020010151135b612e705760405162461bcd60e51b81526004016100e690615289565b600101612d7a565b509097909650945050505050565b6000806107ca6005613faa565b6000805b8651811015612f97576000878281518110612eae57fe5b60200260200101519050848160400151141580612ecc575080518714155b80612edb575085816020015114155b15612ee65750612f8f565b60028160a001516003811115612ef857fe5b14158015612f16575060038160a001516003811115612f1357fe5b14155b612f1f57600080fd5b6060810151600090612f319086612b68565b9050612f3c86612fa4565b15612f4f576000811215612f4f57600080fd5b6001600160571b03198112801590612f6e57506001600160571b038113155b612f7757600080fd5b6060820152600160a090910181905291506109f89050565b600101612e97565b5060009695505050505050565b6000600282108015906107ca5750506008101590565b606060008251600014612fd1578251600202612fd4565b60015b905060008167ffffffffffffffff81118015612fef57600080fd5b5060405190808252806020026020018201604052801561302957816020015b613016614ee5565b81526020019060019003908161300e5790505b50905060005b845181101561306b5784818151811061304457fe5b602002602001015182828151811061305857fe5b602090810291909101015260010161302f565b509392505050565b6000677fffffffffffffff821115611d8557600080fd5b600080806130988885610930565b905060006130b06130a98a8a612b68565b8390614706565b905063393870008113156130cc57600080935093505050613136565b6000806130d88361471f565b91509150806130f1576000809550955050505050613136565b600061310789613101858d614706565b90612b68565b9050633b9aca0081121561312657600080965096505050505050613136565b9550600194506131369350505050565b9550959350505050565b60008082600f0b1361315157600080fd5b608061315c836147c1565b600f0b6fb17217f7d1cf79abc9e3b39803f2f6af02901c9050919050565b60008082600f0b121561318c57600080fd5b50600f0b60401d90565b6000600160461b82600f0b126131ab57600080fd5b683fffffffffffffffff1982600f0b12156131c857506000610768565b6001607f1b60006001603f1b8416600f0b13156131f65770016a09e667f3bcc908b2fb1366ea957d3e0260801c5b60008367400000000000000016600f0b1315613223577001306fe0a31b7152de8d5a46305c85edec0260801c5b60008367200000000000000016600f0b1315613250577001172b83c7d517adcdf7c8c50eb14a791f0260801c5b60008367100000000000000016600f0b131561327d5770010b5586cf9890f6298b92b71842a983630260801c5b60008367080000000000000016600f0b13156132aa577001059b0d31585743ae7c548eb68ca417fd0260801c5b60008367040000000000000016600f0b13156132d757700102c9a3e778060ee6f7caca4f7a29bde80260801c5b60008367020000000000000016600f0b13156133045770010163da9fb33356d84a66ae336dcdfa3f0260801c5b600083600160381b16600f0b131561332d57700100b1afa5abcbed6129ab13ec11dc95430260801c5b600083668000000000000016600f0b13156133595770010058c86da1c09ea1ff19d294cf2f679b0260801c5b600083664000000000000016600f0b1315613385577001002c605e2e8cec506d21bfc89a23a00f0260801c5b600083662000000000000016600f0b13156133b157700100162f3904051fa128bca9c55c31e5df0260801c5b600083661000000000000016600f0b13156133dd577001000b175effdc76ba38e31671ca9397250260801c5b600083660800000000000016600f0b131561340957700100058ba01fb9f96d6cacd4b180917c3d0260801c5b600083660400000000000016600f0b13156134355770010002c5cc37da9491d0985c348c68e7b30260801c5b600083660200000000000016600f0b1315613461577001000162e525ee054754457d59952920260260801c5b600083600160301b16600f0b131561348a5770010000b17255775c040618bf4a4ade83fc0260801c5b6000836580000000000016600f0b13156134b5577001000058b91b5bc9ae2eed81e9b7d4cfab0260801c5b6000836540000000000016600f0b13156134e057700100002c5c89d5ec6ca4d7c8acc017b7c90260801c5b6000836520000000000016600f0b131561350b5770010000162e43f4f831060e02d839a9d16d0260801c5b6000836510000000000016600f0b131561353657700100000b1721bcfc99d9f890ea069117630260801c5b6000836508000000000016600f0b13156135615770010000058b90cf1e6d97f9ca14dbcc16280260801c5b6000836504000000000016600f0b131561358c577001000002c5c863b73f016468f6bac5ca2b0260801c5b6000836502000000000016600f0b13156135b757700100000162e430e5a18f6119e3c02282a50260801c5b6000836501000000000016600f0b13156135e2577001000000b1721835514b86e6d96efd1bfe0260801c5b60008364800000000016600f0b131561360c57700100000058b90c0b48c6be5df846c5b2ef0260801c5b60008364400000000016600f0b13156136365770010000002c5c8601cc6b9e94213c72737a0260801c5b60008364200000000016600f0b1315613660577001000000162e42fff037df38aa2b219f060260801c5b60008364100000000016600f0b131561368a5770010000000b17217fba9c739aa5819f44f90260801c5b60008364080000000016600f0b13156136b4577001000000058b90bfcdee5acd3c1cedc8230260801c5b60008364040000000016600f0b13156136de57700100000002c5c85fe31f35a6a30da1be500260801c5b60008364020000000016600f0b13156137085770010000000162e42ff0999ce3541b9fffcf0260801c5b60008364010000000016600f0b131561373257700100000000b17217f80f4ef5aadda455540260801c5b600083638000000016600f0b131561375b5770010000000058b90bfbf8479bd5a81b51ad0260801c5b600083634000000016600f0b1315613784577001000000002c5c85fdf84bd62ae30a74cc0260801c5b600083632000000016600f0b13156137ad57700100000000162e42fefb2fed257559bdaa0260801c5b600083631000000016600f0b13156137d6577001000000000b17217f7d5a7716bba4a9ae0260801c5b600083630800000016600f0b13156137ff57700100000000058b90bfbe9ddbac5e109cce0260801c5b600083630400000016600f0b13156138285770010000000002c5c85fdf4b15de6f17eb0d0260801c5b600083630200000016600f0b1315613851577001000000000162e42fefa494f1478fde050260801c5b600083630100000016600f0b131561387a5770010000000000b17217f7d20cf927c8e94c0260801c5b6000836280000016600f0b13156138a2577001000000000058b90bfbe8f71cb4e4b33d0260801c5b6000836240000016600f0b13156138ca57700100000000002c5c85fdf477b662b269450260801c5b6000836220000016600f0b13156138f25770010000000000162e42fefa3ae53369388c0260801c5b6000836210000016600f0b131561391a57700100000000000b17217f7d1d351a389d400260801c5b6000836208000016600f0b13156139425770010000000000058b90bfbe8e8b2d3d4ede0260801c5b6000836204000016600f0b131561396a577001000000000002c5c85fdf4741bea6e77e0260801c5b6000836202000016600f0b131561399257700100000000000162e42fefa39fe95583c20260801c5b6000836201000016600f0b13156139ba577001000000000000b17217f7d1cfb72b45e10260801c5b60008361800016600f0b13156139e157700100000000000058b90bfbe8e7cc35c3f00260801c5b60008361400016600f0b1315613a085770010000000000002c5c85fdf473e242ea380260801c5b60008361200016600f0b1315613a2f577001000000000000162e42fefa39f02b772c0260801c5b60008361100016600f0b1315613a565770010000000000000b17217f7d1cf7d83c1a0260801c5b60008361080016600f0b1315613a7d577001000000000000058b90bfbe8e7bdcbe2e0260801c5b60008361040016600f0b1315613aa457700100000000000002c5c85fdf473dea871f0260801c5b60008361020016600f0b1315613acb5770010000000000000162e42fefa39ef44d910260801c5b60008361010016600f0b1315613af257700100000000000000b17217f7d1cf79e9490260801c5b600083608016600f0b1315613b185770010000000000000058b90bfbe8e7bce5440260801c5b600083604016600f0b1315613b3e577001000000000000002c5c85fdf473de6eca0260801c5b600083602016600f0b1315613b6457700100000000000000162e42fefa39ef366f0260801c5b600083601016600f0b1315613b8a577001000000000000000b17217f7d1cf79afa0260801c5b600083600816600f0b1315613bb057700100000000000000058b90bfbe8e7bcd6d0260801c5b600083600416600f0b1315613bd65770010000000000000002c5c85fdf473de6b20260801c5b600083600216600f0b1315613bfc577001000000000000000162e42fefa39ef3580260801c5b600083600116600f0b1315613c225770010000000000000000b17217f7d1cf79ab0260801c5b600f83810b60401d603f03900b1c60016001607f1b038111156107ca57600080fd5b6000806107ca600a613faa565b60008512158015613c6957506001600160501b038513155b613c7257600080fd5b60008412158015613c8a57506001600160501b038413155b613c9357600080fd5b826000108015613ca7575063ffffffff8311155b613cb057600080fd5b816000108015613cc4575063ffffffff8211155b613ccd57600080fd5b63ffffffff811115613cde57600080fd5b855469ffffffffffffffffffff19166001600160501b039586161769ffffffffffffffffffff60501b1916600160501b94909516939093029390931763ffffffff60a01b1916600160a01b63ffffffff928316021763ffffffff60c01b1916600160c01b93821693909302929092176001600160e01b0316600160e01b9190921602179055565b60008112158015613d7d57506001600160501b038113155b613d8657600080fd5b600191909101805469ffffffffffffffffffff19166001600160501b03909216919091179055565b6000806000613dbc856116c8565b905062015180840615613dd6576000809250925050613eb2565b838110613dea576000809250925050613eb2565b6201518081850304605a8111613e0757925060019150613eb29050565b6101688111613e46576000620151806207e900840604820160591901905060068104605a0160068281613e3657fe5b0660001494509450505050613eb2565b6108708111613e765760006201518062278d00840604820161016719019050601e8104608701601e8281613e3657fe5b611de28111613ea6576000620151806276a700840604820161086f19019050605a810460c301605a8281613e3657fe5b61010060009350935050505b9250929050565b600060018210158015613ece57506101008211155b613ed757600080fd5b50600019011b600160ff1b9081161490565b6014613ef48261489c565b1115613f125760405162461bcd60e51b81526004016100e690615174565b6000613f1c612636565b6001600160a01b039094166000908152602094855260408082209482529390945250912055565b6000808260400151118015613f5d57506040820151600810155b613f6657600080fd5b6040820151600210613f7d57506020810151610768565b6000613f8f6001846040015103610a3d565b6020840151909150610929906276a700906103d19084610b46565b6000620f4240826012811115613fbc57fe5b0192915050565b6000806107ca6003613faa565b6000806107ca6011613faa565b60606000613feb848461496c565b90506001815111613ffd5790506107ca565b6107c781614a8e565b600881901c60ff9091161b90565b600080600080600061402586614c47565b909250905060006001600160a01b03831661404a5750600090506402540be4006140cc565b826001600160a01b0316631ee108336040518163ffffffff1660e01b8152600401602060405180830381600087803b15801561408557600080fd5b505af1158015614099573d6000803e3d6000fd5b505050506040513d601f19601f820116820180604052508101906140bd9190614f7b565b9050600081136140cc57600080fd5b969195509350915050565b6000806140e2614c7e565b60009384526020525050604090205490565b600080831161410257600080fd5b818611156141115750836109f8565b600061411d8388610b46565b90508381111561413057859150506109f8565b600061414485610d4784633b9aca00611c80565b90506000614156633b9aca0083610b46565b90506000614179633b9aca00610d4761416f8b86611c80565b6103d18d88611c80565b9a9950505050505050505050565b6000600f82900b60016001607f1b031914156141a257600080fd5b5060000390565b81515160609060009081906141f35760408051600080825260208201909252906141e9565b6141d6614f4f565b8152602001906001900390816141ce5790505b50925050506107ca565b8451515b6000198101901561424e5760008660000151828151811061421457fe5b602002602001015190508561422882613f43565b11156142345750614249565b8051831461424757805160019094019392505b505b6141f7565b5060008267ffffffffffffffff8111801561426857600080fd5b506040519080825280602002602001820160405280156142a257816020015b61428f614f4f565b8152602001906001900390816142875790505b50905082156109f85781816000815181106142b957fe5b60209081029190910101515295945050505050565b6142d6614f25565b6000806142e38686614c8b565b9150915081600014156144135760006142fb87614014565b91945090925090506001600160a01b0381161561441157600061431c614cd4565b905085600010801561432e5750858711155b801561433f575064ffffffffff8611155b61434857600080fd5b83600012801561435f57506001600160801b038413155b61436857600080fd5b6000888152602082815260408083208a845290915290819020805464ffffffffff191664ffffffffff89161774ffffffffffffffffffffffffffffffff00000000001916650100000000006001600160801b038816021760ff60a81b1916600160a81b60ff871602178155905188908a907f0fdfa6885701e2f1f42e4187b9231cf81c1fe23671ef64fa46f34ddb56c1dc189061440690899061534a565b60405180910390a350505b505b6040805160608101825260008152602081019390935260ff909116600a0a9082015290509392505050565b61444c84848460018561464b565b50505050565b6000808261446557506000905080613eb2565b6000831361447257600080fd5b6144918460800151610af685876060015161193990919063ffffffff16565b91506144b28460800151610af685876040015161193990919063ffffffff16565b60808501519091506144c49084610930565b608085015260408401516144d89082610930565b604085015260608401516144ec9083610930565b6060850152613eb284614ce1565b60008360000151838151811061450c57fe5b60200260200101519050826000146145975760008460000151600185038151811061453357fe5b602002602001015190508160000151816000015114801561455b575081602001518160200151145b801561456b575060408101516001145b1561459557606081015161457f9084612b68565b6060820152600160a08201526145958585612085565b505b600160408201819052606082019290925260a001525050565b6000806145bb6126dc565b6001600160a01b0387166000908152602082815260408083208984528252808320888452909152812054919250600f91820b90910b906145fc8787876142ce565b9050614608818361156c565b6001600160a01b03989098166000908152602093845260408082209882529784528781209681529590925250505091902080546001600160801b03191690555090565b6000614655613c44565b6000868152602082815260408083208884528252808320868452825291829020808a5290890187905280546001600160501b03808216938b0193909352600160501b810490921660608a015263ffffffff600160a01b8304811660a08b0152600160c01b8304811660c08b0152600160e01b90920490911660e08901529091508084156146f45760018201546001600160501b031660808901526146fc565b600060808901525b5050505050505050565b60006107c761471984633b9aca00611939565b83611987565b600080633b9aca00831415614739575060009050806147bc565b600061475361474c633b9aca0086611556565b8590614706565b9050600061476082611d59565b9050600081600f0b1361477b576000809350935050506147bc565b60006147af6147aa61479e61478f85613140565b6814b927f32bffb83338614d39565b621dcd6560491b611e67565b611e9d565b60070b9450600193505050505b915091565b60008082600f0b136147d257600080fd5b6000600f83900b600160401b81126147ec576040918201911d5b6401000000008112614800576020918201911d5b620100008112614812576010918201911d5b6101008112614823576008918201911d5b60108112614833576004918201911d5b60048112614843576002918201911d5b60028112614852576001820191505b603f19820160401b600f85900b607f8490031b6001603f1b5b60008113156148915790800260ff81901c8281029390930192607f011c9060011d61486b565b509095945050505050565b600181901c7f5555555555555555555555555555555555555555555555555555555555555555908116911601600281901c7f3333333333333333333333333333333333333333333333333333333333333333908116911601600481901c7f07070707070707070707070707070707070707070707070707070707070707079190911601600881901c7e0f000f000f000f000f000f000f000f000f000f000f000f000f000f000f000f908116911601601081901c01602081901c01604081901c01608081901c60ff90811691160190565b606060108260ff16111561497f57600080fd5b6000614989612361565b6001600160a01b038516600090815260208290526040812091925060ff851667ffffffffffffffff811180156149be57600080fd5b506040519080825280602002602001820160405280156149f857816020015b6149e5614ee5565b8152602001906001900390816149dd5790505b50905060005b8560ff16811015614a84576000838260108110614a1757fe5b0190506000838381518110614a2857fe5b602090810291909101810151835461ffff8116825264ffffffffff620100008204169282019290925260ff600160381b8304166040820152600160401b909104600a90810b900b606082015260800191909152506001016149fe565b5095945050505050565b805160008167ffffffffffffffff81118015614aa957600080fd5b50604051908082528060200260200182016040528015614ad3578160200160208202803683370190505b50905060005b82811015614b30576000848281518110614aef57fe5b60200260200101519050614b10816000015182602001518360400151614d6c565b838381518110614b1c57fe5b602090810291909101015250600101614ad9565b5060015b8281101561444c57805b600081118015614b765750828181518110614b5557fe5b6020026020010151836001830381518110614b6c57fe5b6020026020010151115b15614c3e57828181518110614b8757fe5b6020026020010151836001830381518110614b9e57fe5b6020026020010151846001840381518110614bb557fe5b60200260200101858481518110614bc857fe5b6020026020010182815250828152505050848181518110614be557fe5b6020026020010151856001830381518110614bfc57fe5b6020026020010151866001840381518110614c1357fe5b60200260200101878481518110614c2657fe5b60209081029190910101919091525260001901614b3e565b50600101614b34565b6000806000614c54614dc7565b600094855260205250506040909120546001600160a01b03811692600160a01b90910460ff169150565b6000806107ca6009613faa565b6000806000614c98614cd4565b6000958652602090815260408087209587529490525050509020546501000000000081046001600160801b031691600160a81b90910460ff1690565b6000806107ca6008613faa565b6000614cec82614dd4565b905060008160000160189054906101000a900463ffffffff169050614d2b82846040015185606001518660a001518563ffffffff168860e00151613c51565b61096a828460800151613d65565b6000600f82810b9084900b0360016001607f1b03198112801590611dd6575060016001607f1b038113156107c757600080fd5b6000613fff841115614d7d57600080fd5b64ffffffffff831115614d8f57600080fd5b6008821115614d9d57600080fd5b5067ffff000000000000603084901b1665ffffffffff00600884901b161760ff8216179392505050565b6000806107ca600f613faa565b5190565b6040518060e00160405280614deb614e91565b8152602001614df8614ebd565b815260006020820181905260408201819052606082018190526080820181905260a09091015290565b60405180610100016040528060008019168152602001600081526020016000815260200160008152602001600081526020016000815260200160008152602001600081525090565b6040518060800160405280606081526020016060815260200160608152602001606081525090565b6040805160808101825260008082526020820152908101614eb0614f25565b8152600060209091015290565b6040518060800160405280606081526020016060815260200160008152602001600081525090565b6040518060c00160405280600081526020016000815260200160008152602001600081526020016000815260200160006003811115614f2057fe5b905290565b604051806060016040528060006001600160a01b0316815260200160008152602001600081525090565b604051806040016040528060008152602001600081525090565b803561ffff8116811461076857600080fd5b600060208284031215614f8c578081fd5b5051919050565b600060208284031215614fa4578081fd5b6107c782614f69565b60008060408385031215614fbf578081fd5b614fc883614f69565b915060208301358015158114614fdc578182fd5b809150509250929050565b6001600160a01b0391909116815260200190565b60208082526017908201527f496e76616c696420737765657020636173682074696d65000000000000000000604082015260600190565b60208082526016908201527513585c9ad95d081b9bdd081a5b9a5d1a585b1a5e995960521b604082015260600190565b6020808252601490820152734f7261636c652072617465206f766572666c6f7760601b604082015260600190565b60208082526017908201527f4d75737420696e697469616c697a65206d61726b657473000000000000000000604082015260600190565b60208082526015908201527410d1ce881b9bc81b585c9ad95d1cc81b1a5cdd1959605a1b604082015260600190565b6020808252600d908201526c092dcecc2d8d2c840d2dcc8caf609b1b604082015260600190565b60208082526013908201527224a69d1039b4bc1036b7b73a341032b93937b960691b604082015260600190565b60208082526010908201526f4e6f206e546f6b656e2061737365747360801b604082015260600190565b6020808252600f908201526e4f766572206d61782061737365747360881b604082015260600190565b60208082526017908201527f494d3a20696e746572706f6c6174696f6e206572726f72000000000000000000604082015260600190565b60208082526016908201527510d1ce881b585c9ad95d081a5b99195e08189bdd5b9960521b604082015260600190565b6020808252601590820152740929a7440d2dce6eaccccd2c6d2cadce840c6c2e6d605b1b604082015260600190565b60208082526012908201527112534e881b9bdd08199a5c9cdd081a5b9a5d60721b604082015260600190565b60208082526010908201526f494d3a20696e76616c69642074696d6560801b604082015260600190565b60208082526013908201527250543a20696e69742076616c7565207a65726f60681b604082015260600190565b60208082526013908201527210d1ce881b9bc81b585c9ad95d08199bdd5b99606a1b604082015260600190565b60208082526016908201527512534e881b9bc81b585c9ad95d1cc81d1bc81a5b9a5d60521b604082015260600190565b60208082526017908201527f494d3a20696d706c6965642072617465206661696c6564000000000000000000604082015260600190565b6001600160801b0391909116815260200190565b61ffff91909116815260200190565b61ffff92909216825260208201526040019056fe536166654d6174683a206d756c7469706c69636174696f6e206f766572666c6f77a26469706673582212206450a3b2f25e4646df1812f17fb029168dd0f81dfe00973993ce5ddb299bc6a164736f6c63430007060033","bytecodeSha1":"78d6d7ae006e198a6c213d7090cd7cbc8bd17770","type":"library","abi":[{"anonymous":false,"inputs":[{"indexed":false,"internalType":"uint16","name":"currencyId","type":"uint16"}],"name":"MarketsInitialized","type":"event"},{"anonymous":false,"inputs":[{"indexed":false,"internalType":"uint16","name":"currencyId","type":"uint16"},{"indexed":false,"internalType":"int256","name":"cashIntoMarkets","type":"int256"}],"name":"SweepCashIntoMarkets","type":"event"},{"inputs":[],"name":"getLibInfo","outputs":[{"internalType":"address","name":"","type":"address"}],"stateMutability":"view","type":"function"}],"compiler":{"version":"0.7.6+commit.7338295f","evm_version":"istanbul","optimizer":{"enabled":true,"runs":200}},"contractName":"InitializeMarketsAction","deployedBytecode":"730000000000000000000000000000000000000000301460806040526004361061004b5760003560e01c8063bb6dd58e14610050578063c4c96dae14610072578063d0e064c014610090575b600080fd5b81801561005c57600080fd5b5061007061006b366004614f93565b6100b0565b005b61007a61029d565b6040516100879190614fe7565b60405180910390f35b81801561009c57600080fd5b506100706100ab366004614fad565b6102b5565b426100b9614dd8565b6100c38184610731565b602081015151516100ef5760405162461bcd60e51b81526004016100e69061514a565b60405180910390fd5b60006100fa8361074a565b905080826080015110156101205760405162461bcd60e51b81526004016100e690615090565b60a0820151608083015160009161013e919060021a610e100261076d565b905080841161015f5760405162461bcd60e51b81526004016100e690614ffb565b6040805160008082526020820190925261019d90859083610196565b610183614e21565b81526020019060019003908161017b5790505b50876107d0565b905060006101b882866060015161093090919063ffffffff16565b60c08601518651519192506101d19161ffff168461094c565b604051632128561360e11b815273__$892f367d396be2b92d3b049e6e62920984$__90634250ac269061020a908a90859060040161536d565b60206040518083038186803b15801561022257600080fd5b505af4158015610236573d6000803e3d6000fd5b505050506040513d601f19601f8201168201806040525081019061025a9190614f7b565b507f120b36bd1b47ae64f0f3ea6eb0fbfba209b2c780a31864e382d9957377a9f946878260405161028c92919061536d565b60405180910390a150505050505050565b73__$892f367d396be2b92d3b049e6e62920984$__90565b426102be614dd8565b6102c88185610731565b80516020015160009067ffffffffffffffff811180156102e757600080fd5b5060405190808252806020026020018201604052801561032157816020015b61030e614e21565b8152602001906001900390816103065790505b508251602001519091506103475760405162461bcd60e51b81526004016100e6906152e3565b83156103715760208201515151156103715760405162461bcd60e51b81526004016100e690615233565b60006103848383868961ffff168961096f565b9050600061039e8761ffff16856000015160200151610a01565b90506103a8614e21565b6000805b8651602001518110156106a1576103d76103c882600101610a3d565b6103d18a61074a565b9061076d565b60208401528351805160009161040a91889190859081106103f457fe5b602002602001015184600260ff1601878c610ae1565b905060006104258a8660200151610b4690919063ffffffff16565b895190915060009061043b906001860184610ba3565b90508b806104555750836001148015610455575088516002145b80610466575060208a015151518410155b80610494575083600114801561049457508860028151811061048457fe5b602002602001015160c001516000145b156105155760006104bc84896060015187815181106104af57fe5b6020026020010151610c15565b9050808760400181815250506104ec8185848b6040015189815181106104de57fe5b602002602001015187610c32565b60c0880181905261050f5760405162461bcd60e51b81526004016100e690615313565b5061067d565b8361053a578860018151811061052757fe5b602002602001015160c001519450610597565b836001141561055c57610555896105508d61074a565b610c5c565b9450610597565b600061057361056a86610a3d565b6103d18e61074a565b905061059381878c888151811061058657fe5b6020026020010151610cf5565b9550505b60006105bc8684848b6040015189815181106105af57fe5b6020026020010151610d8c565b9050876020015185815181106105ce57fe5b602002602001015181131561064857876020015185815181106105ed57fe5b602002602001015190506106018482610c15565b876040018181525050610624876040015185848b6040015189815181106104de57fe5b9550856106435760405162461bcd60e51b81526004016100e690615062565b610658565b6106528482610c15565b60408801525b60018760400151121561066d57600160408801525b5060c0860185905260e086018b90525b60c086015160a08701526106968661ffff8f168c610e2e565b5050506001016103ac565b5060006106bf8760c001518860200151610e7790919063ffffffff16565b50925050506106db8760c001518b61ffff16896060015161094c565b6106ee8760c001518289608001516110b6565b7fcffeff9accc9171f01fec36e09a1a06f0160ce50a8c4c0a2adff9cec562adf088a60405161071d919061535e565b60405180910390a150505050505050505050565b61073b8282611129565b610744816111cc565b90915250565b60006276a70082101561075c57600080fd5b6276a700825b06820390505b919050565b6000828201838110156107c7576040805162461bcd60e51b815260206004820152601b60248201527f536166654d6174683a206164646974696f6e206f766572666c6f770000000000604482015290519081900360640190fd5b90505b92915050565b6000806107ed8560c0015186600001516000015161ffff166111ef565b60a0860151855191925060011a620f424002906000901561081a57610815856276a700610b46565b61081c565b845b9050600061082984611224565b90505b8015610912576000610842896080015183611249565b90508751600014801561086157508851602001516108619082896112fc565b1561088557610872858360006113a1565b945061087d85611224565b91505061082c565b60c089015189515160009161089e9161ffff16846113ec565b905060008112156108f25789516000906108b9908487611431565b9050808611156108cb575060006108d8565b6108d58187610b46565b90505b6108ee6108e783858c85611510565b8990611556565b9750505b6108fe868460006113a1565b955061090986611224565b9250505061082c565b875160400151610922908661156c565b9450505050505b9392505050565b600061093c8383611556565b905060008112156107ca57600080fd5b600081121561095a57600080fd5b61096a838383600080600061159d565b505050565b6000806000831561099457610983866116c8565b64ffffffffff1660808901526109b9565b61099e88876116e4565b6109aa85878a8a6117be565b6109b68888878961184e565b90505b60608801516109c89082610930565b6060890182905291506305f5e10082136109f45760405162461bcd60e51b81526004016100e690615204565b5090505b95945050505050565b610a09614e69565b610a11614e69565b610a1b84846118d7565b60208301528152610a2c848461190f565b606083015260408201529392505050565b60008160011415610a5257506276a700610768565b8160021415610a65575062ed4e00610768565b8160031415610a7957506301da9c00610768565b8160041415610a8d57506303b53800610768565b8160051415610aa157506309450c00610768565b8160061415610ab5575063128a1800610768565b8160071415610ac957506325143000610768565b60405162461bcd60e51b81526004016100e6906150f6565b600080610afc6305f5e100610af68989611939565b90611987565b606085018190526080850181905283515160208087015190860151929350610b2b929161ffff169088856119b8565b825160400151610b3b9082611ab5565b979650505050505050565b600082821115610b9d576040805162461bcd60e51b815260206004820152601e60248201527f536166654d6174683a207375627472616374696f6e206f766572666c6f770000604482015290519081900360640190fd5b50900390565b600082600111158015610bba575083602001518311155b610bc357600080fd5b606084015160806008600019860102019060ff90821c16633b9aca00026000610bfc610bee86611ae0565b610af6846301da9c00611939565b905060008113610c0b57600080fd5b9695505050505050565b60006107c7610c28633b9aca0084611556565b610af68585611939565b600080610c3f8484611afa565b90506000610c508888888588611b65565b98975050505050505050565b6000600383511015610c805760405162461bcd60e51b81526004016100e69061511d565b6107c783600181518110610c9057fe5b60200260200101516020015184600281518110610ca957fe5b60200260200101516020015185600181518110610cc257fe5b602002602001015160c0015186600281518110610cdb57fe5b602090810291909101015160c0015162ed4e008701611c22565b602081015160c0820151600091906276a7008201828710610d285760405162461bcd60e51b81526004016100e69061519d565b858210610d5757610d4d866103d1898603610d478387038c8703611c80565b90611cd9565b9350505050610929565b6000610d6d888503610d47858a038b8603611c80565b9050808711610d7d576000610d81565b8087035b945050505050610929565b600080610d998386611afa565b90506000610da78787611afa565b90506000610dc7610dc287610dbc8587611556565b90611d40565b611d59565b9050610dd981621dcd6560491b611d8c565b9050610de481611ddf565b90506000610dff82610dfa84600160401b611e34565b611d8c565b9050610e1181621dcd6560491b611e67565b9050610e1c81611e9d565b60070b9450505050505b949350505050565b60006276a700610e3d4261074a565b019050610e4b848483611ea6565b610e708260c001518486602001518560800151610e6b8960400151611f0d565b611f1b565b5050505050565b6000808080808080805b895151811015610f085760008a600001518281518110610e9d57fe5b60200260200101519050600380811115610eb357fe5b8160a001516003811115610ec357fe5b1415610ece57600080fd5b60028160a001516003811115610ee057fe5b14158015610ef057506060810151155b15610eff57610eff8b83612085565b50600101610e81565b5060005b895151811015610fab5760008a600001518281518110610f2857fe5b6020026020010151905060026003811115610f3f57fe5b8160a001516003811115610f4f57fe5b1415610f6357608081015160009055610fa2565b60018160a001516003811115610f7557fe5b1415610f8e57608081015180610f8b83826121d5565b50505b610f9a818686866122fe565b919650945092505b50600101610f0c565b5060608901516000610fbb612361565b6001600160a01b038b1660009081526020829052604081209192505b8c60200151518110156110855760008d602001518281518110610ff657fe5b60200260200101519050806060015160001415611013575061107d565b60028160a00151600381111561102557fe5b14158015611043575060038160a00151600381111561104057fe5b14155b61104c57600080fd5b611058818989896122fe565b919950975095506110758184876010811061106f57fe5b016121d5565b600185019450505b600101610fd7565b506010831115801561109c575064ffffffffff8411155b6110a557600080fd5b50939a929950975095509350505050565b63ffffffff81106110c657600080fd5b60006110d061236e565b6001600160a01b039094166000908152602094909452506040909220805460ff909216600160501b0260ff60501b1963ffffffff909416600160301b0269ffffffff000000000000199093169290921792909216179055565b6111368161ffff1661237b565b6001600160a01b031660c0830181905260009081908190611156906123a1565b9450945094505050600061116d8660c0015161240a565b505060808701859052604087018190526001600160d81b0319831660a088015260c08701519091506111a19084600061246b565b602087015260c08601516111b99061ffff87166124fe565b5050506060909601959095525050505050565b6111d4614e91565b60006111e38361ffff166125a7565b905061092983826125f3565b6000806111fa612636565b6001600160a01b038516600090815260209182526040808220868352909252205491505092915050565b60008161123357506000610768565b61123c82612643565b60ff036001019050919050565b60008161125557600080fd5b61010082111561126457600080fd5b600061126f846116c8565b90506000605a841161128a57506201518083020190506107ca565b608784116112b2575060591983016207e900908102908206909103016276a7000190506107ca565b60c384116112db5750608619830162278d00908102908206909103016301da9c000190506107ca565b5060c21983016276a70090810290820690910301630b1fa8000190506107ca565b600080841161131d5760405162461bcd60e51b81526004016100e6906150c7565b600784111561133e5760405162461bcd60e51b81526004016100e6906151d4565b6276a70083061561135157506000610929565b600061135c8361074a565b905060015b8581116113955761137b61137482610a3d565b839061076d565b85141561138d57600192505050610929565b600101611361565b50600095945050505050565b6000600183101580156113b657506101008311155b6113bf57600080fd5b81156113d85750600160ff1b60001983011c8317610929565b50600160ff1b60001983011c198316610929565b6000806113f76126dc565b6001600160a01b03861660009081526020918252604080822087835283528082208683529092522054600f90810b900b9150509392505050565b6000806000611445866020015186866126e9565b915091506000611454876127b1565b90508161146d578651610d4d9061ffff168783886127c5565b60006114788661074a565b9050600061148861137486610a3d565b905060006114a08a6000015161ffff1683868b6127c5565b905060008087600114156114c5578991506114be8c60400151612864565b90506114f4565b6114db6114d460018a03610a3d565b869061076d565b91506114f18c6000015161ffff1683888d6127c5565b90505b611501828583868f611c22565b98505050505050505050610929565b60008461151f57506000610e26565b600061152b8585610b46565b9050600061153982856128f5565b9050633b9aca0081131561154c57600080fd5b610b3b8782611d40565b808203828113156000831215146107ca57600080fd5b600080610e268460200151610af686604001516115976402540be4008861193990919063ffffffff16565b90611939565b60006115a761295d565b6001600160a01b0388166000908152602082815260408083208a845290915290209091506001600160571b031986128015906115ea57506001600160571b038613155b6115f357600080fd5b6000851215801561160b57506001600160501b038513155b61161457600080fd5b831561161f57600080fd5b66ffffffffffffff83111561163357600080fd5b805466ffffffffffffff909316600160701b0266ffffffffffffff60701b19600a9790970b6affffffffffffffffffffff16600160a81b026001600160a81b0363ffffffff909616600160501b0263ffffffff60501b196001600160501b0390981669ffffffffffffffffffff1990961695909517969096169390931793909316939093179390931692909217909155505050565b6000620151808210156116da57600080fd5b6201518082610762565b60006116ef8261074a565b9050808360800151106117145760405162461bcd60e51b81526004016100e69061525f565b600061172484602001518461296a565b90506117558160008151811061173657fe5b6020026020010151602001518560600151612b6890919063ffffffff16565b60608501525060c08301518351516080850151600092839261177e9261ffff9091169087612b7e565b606087015191935091506117929083612b68565b606086015264ffffffffff8111156117a957600080fd5b64ffffffffff16608090940193909352505050565b60006117cd83600001516127b1565b905060006117da8561074a565b905060015b602085015151518110156118455761183d87866020015160000151838151811061180557fe5b60200260200101516020015188600087878a888151811061182257fe5b6020026020010151612ca3909695949392919063ffffffff16565b6001016117df565b50505050505050565b600060015b602086015151518110156118cb576000866020015160000151828151811061187757fe5b60200260200101519050600160ff1681604001511461189557600080fd5b6118b28760c001518683602001518a608001518560600151611f1b565b5060208701516118c29083612085565b50600101611853565b506109f88585846107d0565b60608060006118e4612cda565b60008681526020829052604081209192506119029082908790612ce7565b9097909650945050505050565b606080600061191c612e86565b600086815260208290526040902090915061190281866001612ce7565b8181026000198314156119695781158061195b57508282828161195857fe5b05145b61196457600080fd5b6107ca565b82158061197e57508183828161197b57fe5b05145b6107ca57600080fd5b60008160001914801561199d5750600160ff1b83145b156119a757600080fd5b8183816119b057fe5b059392505050565b84516119c79085858585612e93565b156119d157610e70565b6040850151156119fe5760006119ee866020015186868686612e93565b905080156119fc5750610e70565b505b611a0782612fa4565b15611a1a576000811215611a1a57600080fd5b6001600160571b03198112801590611a3957506001600160571b038113155b611a4257600080fd5b84602001515185604001511415611a6657611a608560200151612fba565b60208601525b60008560200151866040015181518110611a7c57fe5b6020908102919091018101519586528501939093526040808501929092526060840152600060a090930192909252500180516001019052565b600080610e268460400151610af66402540be400610af687896020015161193990919063ffffffff16565b60006001600160ff1b03821115611af657600080fd5b5090565b600080611b17611b126301da9c00610d478787611c80565b613073565b90506000611b2b82621dcd6560491b611d8c565b90506000611b3882611ddf565b90506000611b4c82621dcd6560491b611e67565b9050611b5781611e9d565b60070b979650505050505050565b6000806000611b7888888888600061308a565b9150915080611b8c576000925050506109f8565b6000611b9783611d59565b90506000611bab82621dcd6560491b611d8c565b90506000611bb882613140565b90506000611bd4611bcf83621dcd6560491b611e67565b61317a565b67ffffffffffffffff1690506000611bf489610d47846301da9c00611c80565b905063ffffffff811115611c125760009750505050505050506109f8565b9c9b505050505050505050505050565b6000818610611c3057600080fd5b848210611c3c57600080fd5b838310611c6257611c5b846103d1888803610d478388038b8803611c80565b90506109f8565b611c5b611c79878703610d478688038a8703611c80565b8590610b46565b600082611c8f575060006107ca565b82820282848281611c9c57fe5b04146107c75760405162461bcd60e51b81526004018080602001828103825260218152602001806153826021913960400191505060405180910390fd5b6000808211611d2f576040805162461bcd60e51b815260206004820152601a60248201527f536166654d6174683a206469766973696f6e206279207a65726f000000000000604482015290519081900360640190fd5b818381611d3857fe5b049392505050565b60006107c7611d4f8484611939565b633b9aca00611987565b6000677fffffffffffffff198212158015611d7c5750677fffffffffffffff8213155b611d8557600080fd5b5060401b90565b600081600f0b60001415611d9f57600080fd5b600082600f0b604085600f0b901b81611db457fe5b05905060016001607f1b03198112801590611dd6575060016001607f1b038113155b6107c757600080fd5b6000600160461b82600f0b12611df457600080fd5b683fffffffffffffffff1982600f0b1215611e1157506000610768565b6107ca608083600f0b700171547652b82fe1777d0ffda0d23a7d1202901d613196565b6000600f83810b9083900b0160016001607f1b03198112801590611dd6575060016001607f1b038113156107c757600080fd5b6000600f83810b9083900b0260401d60016001607f1b03198112801590611dd6575060016001607f1b038113156107c757600080fd5b600f0b60401d90565b6000611eb0613c44565b60008481526020828152604080832088830151845282528083208684529091529081902090860151606087015160a088015160c089015160e08a01519596509394611eff948694939291613c51565b610e70818660800151613d65565b60006107ca60001983611939565b600080611f2887876111ef565b90506000611f346126dc565b6001600160a01b0389166000908152602082815260408083208b845282528083208a8452909152812091925080611f6b888a613dae565b9150915080611f7957600080fd5b611f838583613eb9565b15612012578254600090611f9f908990600f90810b900b612b68565b905060016001607f1b03198112801590611fc0575060016001607f1b038113155b611fc957600080fd5b83546001600160801b0319166001600160801b03600f83900b1617845580611ffa57611ff7868460006113a1565b95505b6120058c8c88613ee9565b95506109f8945050505050565b86156120765760016001607f1b03198712801590612037575060016001607f1b038713155b61204057600080fd5b82546001600160801b0319166001600160801b03600f89900b16178355612069858360016113a1565b94506120768b8b87613ee9565b50949998505050505050505050565b815151811061209357600080fd5b60008260600151116120a457600080fd5b6000826000015182815181106120b657fe5b60200260200101519050600260038111156120cd57fe5b8160a0015160038111156120dd57fe5b141580156120fb575060038160a0015160038111156120f857fe5b14155b61210457600080fd5b606083018051600019019052600080805b8551518110156121775760008660000151828151811061213157fe5b6020026020010151905082816080015111801561215e575060028160a00151600381111561215b57fe5b14155b1561216e57806080015192508193505b50600101612115565b5081841415612190575050600260a091909101526121d1565b6000856000015183815181106121a257fe5b602090810291909101015160808581018051918301805190915252600160a09182015260029401939093525050505b5050565b8151158015906121e857508151613fff10155b6121f157600080fd5b8160200151600010801561220e5750602082015164ffffffffff10155b61221757600080fd5b8160400151600010801561223057506040820151600810155b61223957600080fd5b60608201516001600160571b031913801590612260575060608201516001600160571b0312155b61226957600080fd5b8151815460208401516040850151606090950151600a0b6affffffffffffffffffffff16600160401b0272ffffffffffffffffffffff00000000000000001960ff909616600160381b0267ff000000000000001964ffffffffff909316620100000266ffffffffff00001961ffff90961661ffff19909516949094179490941692909217169190911792909216919091179055565b60008060008061230d88613f43565b905084158061231b57508085115b15612324578094505b8680612334575060008860600151125b965061ffff86161561234557600080fd5b50509451939560109390931c60f09490941b9390931793509150565b6000806107ca600d613faa565b6000806107ca6002613faa565b600080612386613fc3565b6000938452602052505060409020546001600160a01b031690565b6000806000806000806123b261236e565b6001600160a01b039097166000908152602097909752505060409094205461ffff81169563ffffffff62010000830481169650600160301b830416945060ff600160501b8304169350600160581b90910460d81b9150565b600080600080612418613fd0565b6001600160a01b0395909516600090815260209590955250506040909220546bffffffffffffffffffffffff811693600160601b82046001600160801b03169350600160e01b90910463ffffffff169150565b612473614ebd565b61247b614ebd565b60ff841661248a579050610929565b6124948585613fdd565b815260ff841660608201528267ffffffffffffffff811180156124b657600080fd5b506040519080825280602002602001820160405280156124f057816020015b6124dd614ee5565b8152602001906001900390816124d55790505b506020820152949350505050565b600080600080600061250e61295d565b6001600160a01b0388166000908152602082815260408083208a8452909152902080546001600160501b0381169650600160501b900463ffffffff169450909150831561257757805461257090600160701b900466ffffffffffffff16614006565b925061258c565b8054600160701b900466ffffffffffffff1692505b54600160a81b9004600a90810b900b97939650919450925050565b6125af614f25565b60008060006125bd85614014565b604080516060810182526001600160a01b039093168352602083019390935260ff16600a0a918101919091529350505050919050565b6125fb614e91565b600061260a8461ffff166140d7565b6040805160808101825261ffff96909616865260ff821660208701528501939093525050606082015290565b6000806107ca600b613faa565b60008161264f57600080fd5b600160801b821061266257608091821c91015b600160401b821061267557604091821c91015b640100000000821061268957602091821c91015b62010000821061269b57601091821c91015b61010082106126ac57600891821c91015b601082106126bc57600491821c91015b600482106126cc57600291821c91015b6002821061076857600101919050565b6000806107ca600c613faa565b6000806000851161270c5760405162461bcd60e51b81526004016100e6906150c7565b600785111561272d5760405162461bcd60e51b81526004016100e6906151d4565b60006127388461074a565b905060015b86811161279057600061275961275283610a3d565b849061076d565b90508681141561277157509250600091506127a99050565b8681111561278757509250600191506127a99050565b5060010161273d565b5060405162461bcd60e51b81526004016100e6906152b6565b935093915050565b6060015161012c60089190911c60ff160290565b6000806127d0613c44565b905060006276a7006127e18561074a565b6000898152602085815260408083208b84528252808320949093018083529390522080549192509063ffffffff600160a01b8204811691600160c01b8104821691600160e01b90910416816128485760405162461bcd60e51b81526004016100e690615032565b6128558184848c8c6140f4565b9b9a5050505050505050505050565b80516000906001600160a01b031661287e57506000610768565b600082600001516001600160a01b031663dd30a6666040518163ffffffff1660e01b815260040160206040518083038186803b1580156128bd57600080fd5b505afa1580156128d1573d6000803e3d6000fd5b505050506040513d601f19601f820116820180604052508101906107c79190614f7b565b60008061290d611b126301da9c00610d478688611c80565b905061291f81621dcd6560491b611d8c565b905061293261292d82614187565b611ddf565b905061294481621dcd6560491b611e67565b9050600061295182611e9d565b60070b95945050505050565b6000806107ca6006613faa565b6060612974614f25565b600061298085856141a9565b905061298a614e21565b815161299a575091506107ca9050565b6000805b875151811015612b5c576000886000015182815181106129ba57fe5b6020026020010151905060006129cf82613f43565b9050888111156129e0575050612b54565b81600001518685815181106129f157fe5b60200260200101516000015114612a26576001840193508160000151868581518110612a1957fe5b6020908102919091010151525b604082015160009060011415612a7357612a49836000015184602001518c6142ce565b9750612a6283606001518961156c90919063ffffffff16565b9050612a6e8b85612085565b612b0a565b612a808360400151612fa4565b15612b0a57612a9986846000015185602001518561443e565b6000612ab284606001518861445290919063ffffffff16565b602086015191935091508b1015612ad357612ace8c86836144fa565b612b08565b612ae6846000015185602001518d6142ce565b9850612afc612af58a8361156c565b8390612b68565b9150612b088c86612085565b505b612b3481888781518110612b1a57fe5b602002602001015160200151612b6890919063ffffffff16565b878681518110612b4057fe5b602002602001015160200181815250505050505b60010161299e565b50919695505050505050565b818101828112156000831215146107ca57600080fd5b6000806000612b8d87876111ef565b9050612b98846116c8565b915084821015612ba757600080fd5b6000612bb38684613dae565b50905080612bc2575050612c9a565b6000612bcd83611224565b90505b8015801590612bdf5750818111155b15612c29576000612bf08883611249565b9050612c08612c018b8b848b6145b0565b8790612b68565b9550612c16848360006113a1565b9350612c2184611224565b915050612bd0565b60005b8115612c8a576000612c3e8984611249565b9050600080612c4d8884613dae565b9150915080612c5b57600080fd5b612c67848360016113a1565b9350612c75878660006113a1565b9650612c8087611224565b9450505050612c2c565b612c958a8a83613ee9565b505050505b94509492505050565b612cb0878787868561464b565b612cc98760e001518860a001518960c0015185886140f4565b60c090970196909652505050505050565b6000806107ca6004613faa565b6060806000808567ffffffffffffffff81118015612d0457600080fd5b50604051908082528060200260200182016040528015612d2e578160200160208202803683370190505b50905060008667ffffffffffffffff81118015612d4a57600080fd5b50604051908082528060200260200182016040528015612d74578160200160208202803683370190505b50905060005b87811015612e78578884600e8110612d8e57fe5b600891828204019190066004029054906101000a900463ffffffff1663ffffffff16838281518110612dbc57fe5b60209081029190910101526001909301928884600e8110612dd957fe5b600891828204019190066004029054906101000a900463ffffffff1663ffffffff16828281518110612e0757fe5b60209081029190910101526001909301928615612e70576000838281518110612e2c57fe5b6020026020010151138015612e5457506000828281518110612e4a57fe5b6020026020010151135b612e705760405162461bcd60e51b81526004016100e690615289565b600101612d7a565b509097909650945050505050565b6000806107ca6005613faa565b6000805b8651811015612f97576000878281518110612eae57fe5b60200260200101519050848160400151141580612ecc575080518714155b80612edb575085816020015114155b15612ee65750612f8f565b60028160a001516003811115612ef857fe5b14158015612f16575060038160a001516003811115612f1357fe5b14155b612f1f57600080fd5b6060810151600090612f319086612b68565b9050612f3c86612fa4565b15612f4f576000811215612f4f57600080fd5b6001600160571b03198112801590612f6e57506001600160571b038113155b612f7757600080fd5b6060820152600160a090910181905291506109f89050565b600101612e97565b5060009695505050505050565b6000600282108015906107ca5750506008101590565b606060008251600014612fd1578251600202612fd4565b60015b905060008167ffffffffffffffff81118015612fef57600080fd5b5060405190808252806020026020018201604052801561302957816020015b613016614ee5565b81526020019060019003908161300e5790505b50905060005b845181101561306b5784818151811061304457fe5b602002602001015182828151811061305857fe5b602090810291909101015260010161302f565b509392505050565b6000677fffffffffffffff821115611d8557600080fd5b600080806130988885610930565b905060006130b06130a98a8a612b68565b8390614706565b905063393870008113156130cc57600080935093505050613136565b6000806130d88361471f565b91509150806130f1576000809550955050505050613136565b600061310789613101858d614706565b90612b68565b9050633b9aca0081121561312657600080965096505050505050613136565b9550600194506131369350505050565b9550959350505050565b60008082600f0b1361315157600080fd5b608061315c836147c1565b600f0b6fb17217f7d1cf79abc9e3b39803f2f6af02901c9050919050565b60008082600f0b121561318c57600080fd5b50600f0b60401d90565b6000600160461b82600f0b126131ab57600080fd5b683fffffffffffffffff1982600f0b12156131c857506000610768565b6001607f1b60006001603f1b8416600f0b13156131f65770016a09e667f3bcc908b2fb1366ea957d3e0260801c5b60008367400000000000000016600f0b1315613223577001306fe0a31b7152de8d5a46305c85edec0260801c5b60008367200000000000000016600f0b1315613250577001172b83c7d517adcdf7c8c50eb14a791f0260801c5b60008367100000000000000016600f0b131561327d5770010b5586cf9890f6298b92b71842a983630260801c5b60008367080000000000000016600f0b13156132aa577001059b0d31585743ae7c548eb68ca417fd0260801c5b60008367040000000000000016600f0b13156132d757700102c9a3e778060ee6f7caca4f7a29bde80260801c5b60008367020000000000000016600f0b13156133045770010163da9fb33356d84a66ae336dcdfa3f0260801c5b600083600160381b16600f0b131561332d57700100b1afa5abcbed6129ab13ec11dc95430260801c5b600083668000000000000016600f0b13156133595770010058c86da1c09ea1ff19d294cf2f679b0260801c5b600083664000000000000016600f0b1315613385577001002c605e2e8cec506d21bfc89a23a00f0260801c5b600083662000000000000016600f0b13156133b157700100162f3904051fa128bca9c55c31e5df0260801c5b600083661000000000000016600f0b13156133dd577001000b175effdc76ba38e31671ca9397250260801c5b600083660800000000000016600f0b131561340957700100058ba01fb9f96d6cacd4b180917c3d0260801c5b600083660400000000000016600f0b13156134355770010002c5cc37da9491d0985c348c68e7b30260801c5b600083660200000000000016600f0b1315613461577001000162e525ee054754457d59952920260260801c5b600083600160301b16600f0b131561348a5770010000b17255775c040618bf4a4ade83fc0260801c5b6000836580000000000016600f0b13156134b5577001000058b91b5bc9ae2eed81e9b7d4cfab0260801c5b6000836540000000000016600f0b13156134e057700100002c5c89d5ec6ca4d7c8acc017b7c90260801c5b6000836520000000000016600f0b131561350b5770010000162e43f4f831060e02d839a9d16d0260801c5b6000836510000000000016600f0b131561353657700100000b1721bcfc99d9f890ea069117630260801c5b6000836508000000000016600f0b13156135615770010000058b90cf1e6d97f9ca14dbcc16280260801c5b6000836504000000000016600f0b131561358c577001000002c5c863b73f016468f6bac5ca2b0260801c5b6000836502000000000016600f0b13156135b757700100000162e430e5a18f6119e3c02282a50260801c5b6000836501000000000016600f0b13156135e2577001000000b1721835514b86e6d96efd1bfe0260801c5b60008364800000000016600f0b131561360c57700100000058b90c0b48c6be5df846c5b2ef0260801c5b60008364400000000016600f0b13156136365770010000002c5c8601cc6b9e94213c72737a0260801c5b60008364200000000016600f0b1315613660577001000000162e42fff037df38aa2b219f060260801c5b60008364100000000016600f0b131561368a5770010000000b17217fba9c739aa5819f44f90260801c5b60008364080000000016600f0b13156136b4577001000000058b90bfcdee5acd3c1cedc8230260801c5b60008364040000000016600f0b13156136de57700100000002c5c85fe31f35a6a30da1be500260801c5b60008364020000000016600f0b13156137085770010000000162e42ff0999ce3541b9fffcf0260801c5b60008364010000000016600f0b131561373257700100000000b17217f80f4ef5aadda455540260801c5b600083638000000016600f0b131561375b5770010000000058b90bfbf8479bd5a81b51ad0260801c5b600083634000000016600f0b1315613784577001000000002c5c85fdf84bd62ae30a74cc0260801c5b600083632000000016600f0b13156137ad57700100000000162e42fefb2fed257559bdaa0260801c5b600083631000000016600f0b13156137d6577001000000000b17217f7d5a7716bba4a9ae0260801c5b600083630800000016600f0b13156137ff57700100000000058b90bfbe9ddbac5e109cce0260801c5b600083630400000016600f0b13156138285770010000000002c5c85fdf4b15de6f17eb0d0260801c5b600083630200000016600f0b1315613851577001000000000162e42fefa494f1478fde050260801c5b600083630100000016600f0b131561387a5770010000000000b17217f7d20cf927c8e94c0260801c5b6000836280000016600f0b13156138a2577001000000000058b90bfbe8f71cb4e4b33d0260801c5b6000836240000016600f0b13156138ca57700100000000002c5c85fdf477b662b269450260801c5b6000836220000016600f0b13156138f25770010000000000162e42fefa3ae53369388c0260801c5b6000836210000016600f0b131561391a57700100000000000b17217f7d1d351a389d400260801c5b6000836208000016600f0b13156139425770010000000000058b90bfbe8e8b2d3d4ede0260801c5b6000836204000016600f0b131561396a577001000000000002c5c85fdf4741bea6e77e0260801c5b6000836202000016600f0b131561399257700100000000000162e42fefa39fe95583c20260801c5b6000836201000016600f0b13156139ba577001000000000000b17217f7d1cfb72b45e10260801c5b60008361800016600f0b13156139e157700100000000000058b90bfbe8e7cc35c3f00260801c5b60008361400016600f0b1315613a085770010000000000002c5c85fdf473e242ea380260801c5b60008361200016600f0b1315613a2f577001000000000000162e42fefa39f02b772c0260801c5b60008361100016600f0b1315613a565770010000000000000b17217f7d1cf7d83c1a0260801c5b60008361080016600f0b1315613a7d577001000000000000058b90bfbe8e7bdcbe2e0260801c5b60008361040016600f0b1315613aa457700100000000000002c5c85fdf473dea871f0260801c5b60008361020016600f0b1315613acb5770010000000000000162e42fefa39ef44d910260801c5b60008361010016600f0b1315613af257700100000000000000b17217f7d1cf79e9490260801c5b600083608016600f0b1315613b185770010000000000000058b90bfbe8e7bce5440260801c5b600083604016600f0b1315613b3e577001000000000000002c5c85fdf473de6eca0260801c5b600083602016600f0b1315613b6457700100000000000000162e42fefa39ef366f0260801c5b600083601016600f0b1315613b8a577001000000000000000b17217f7d1cf79afa0260801c5b600083600816600f0b1315613bb057700100000000000000058b90bfbe8e7bcd6d0260801c5b600083600416600f0b1315613bd65770010000000000000002c5c85fdf473de6b20260801c5b600083600216600f0b1315613bfc577001000000000000000162e42fefa39ef3580260801c5b600083600116600f0b1315613c225770010000000000000000b17217f7d1cf79ab0260801c5b600f83810b60401d603f03900b1c60016001607f1b038111156107ca57600080fd5b6000806107ca600a613faa565b60008512158015613c6957506001600160501b038513155b613c7257600080fd5b60008412158015613c8a57506001600160501b038413155b613c9357600080fd5b826000108015613ca7575063ffffffff8311155b613cb057600080fd5b816000108015613cc4575063ffffffff8211155b613ccd57600080fd5b63ffffffff811115613cde57600080fd5b855469ffffffffffffffffffff19166001600160501b039586161769ffffffffffffffffffff60501b1916600160501b94909516939093029390931763ffffffff60a01b1916600160a01b63ffffffff928316021763ffffffff60c01b1916600160c01b93821693909302929092176001600160e01b0316600160e01b9190921602179055565b60008112158015613d7d57506001600160501b038113155b613d8657600080fd5b600191909101805469ffffffffffffffffffff19166001600160501b03909216919091179055565b6000806000613dbc856116c8565b905062015180840615613dd6576000809250925050613eb2565b838110613dea576000809250925050613eb2565b6201518081850304605a8111613e0757925060019150613eb29050565b6101688111613e46576000620151806207e900840604820160591901905060068104605a0160068281613e3657fe5b0660001494509450505050613eb2565b6108708111613e765760006201518062278d00840604820161016719019050601e8104608701601e8281613e3657fe5b611de28111613ea6576000620151806276a700840604820161086f19019050605a810460c301605a8281613e3657fe5b61010060009350935050505b9250929050565b600060018210158015613ece57506101008211155b613ed757600080fd5b50600019011b600160ff1b9081161490565b6014613ef48261489c565b1115613f125760405162461bcd60e51b81526004016100e690615174565b6000613f1c612636565b6001600160a01b039094166000908152602094855260408082209482529390945250912055565b6000808260400151118015613f5d57506040820151600810155b613f6657600080fd5b6040820151600210613f7d57506020810151610768565b6000613f8f6001846040015103610a3d565b6020840151909150610929906276a700906103d19084610b46565b6000620f4240826012811115613fbc57fe5b0192915050565b6000806107ca6003613faa565b6000806107ca6011613faa565b60606000613feb848461496c565b90506001815111613ffd5790506107ca565b6107c781614a8e565b600881901c60ff9091161b90565b600080600080600061402586614c47565b909250905060006001600160a01b03831661404a5750600090506402540be4006140cc565b826001600160a01b0316631ee108336040518163ffffffff1660e01b8152600401602060405180830381600087803b15801561408557600080fd5b505af1158015614099573d6000803e3d6000fd5b505050506040513d601f19601f820116820180604052508101906140bd9190614f7b565b9050600081136140cc57600080fd5b969195509350915050565b6000806140e2614c7e565b60009384526020525050604090205490565b600080831161410257600080fd5b818611156141115750836109f8565b600061411d8388610b46565b90508381111561413057859150506109f8565b600061414485610d4784633b9aca00611c80565b90506000614156633b9aca0083610b46565b90506000614179633b9aca00610d4761416f8b86611c80565b6103d18d88611c80565b9a9950505050505050505050565b6000600f82900b60016001607f1b031914156141a257600080fd5b5060000390565b81515160609060009081906141f35760408051600080825260208201909252906141e9565b6141d6614f4f565b8152602001906001900390816141ce5790505b50925050506107ca565b8451515b6000198101901561424e5760008660000151828151811061421457fe5b602002602001015190508561422882613f43565b11156142345750614249565b8051831461424757805160019094019392505b505b6141f7565b5060008267ffffffffffffffff8111801561426857600080fd5b506040519080825280602002602001820160405280156142a257816020015b61428f614f4f565b8152602001906001900390816142875790505b50905082156109f85781816000815181106142b957fe5b60209081029190910101515295945050505050565b6142d6614f25565b6000806142e38686614c8b565b9150915081600014156144135760006142fb87614014565b91945090925090506001600160a01b0381161561441157600061431c614cd4565b905085600010801561432e5750858711155b801561433f575064ffffffffff8611155b61434857600080fd5b83600012801561435f57506001600160801b038413155b61436857600080fd5b6000888152602082815260408083208a845290915290819020805464ffffffffff191664ffffffffff89161774ffffffffffffffffffffffffffffffff00000000001916650100000000006001600160801b038816021760ff60a81b1916600160a81b60ff871602178155905188908a907f0fdfa6885701e2f1f42e4187b9231cf81c1fe23671ef64fa46f34ddb56c1dc189061440690899061534a565b60405180910390a350505b505b6040805160608101825260008152602081019390935260ff909116600a0a9082015290509392505050565b61444c84848460018561464b565b50505050565b6000808261446557506000905080613eb2565b6000831361447257600080fd5b6144918460800151610af685876060015161193990919063ffffffff16565b91506144b28460800151610af685876040015161193990919063ffffffff16565b60808501519091506144c49084610930565b608085015260408401516144d89082610930565b604085015260608401516144ec9083610930565b6060850152613eb284614ce1565b60008360000151838151811061450c57fe5b60200260200101519050826000146145975760008460000151600185038151811061453357fe5b602002602001015190508160000151816000015114801561455b575081602001518160200151145b801561456b575060408101516001145b1561459557606081015161457f9084612b68565b6060820152600160a08201526145958585612085565b505b600160408201819052606082019290925260a001525050565b6000806145bb6126dc565b6001600160a01b0387166000908152602082815260408083208984528252808320888452909152812054919250600f91820b90910b906145fc8787876142ce565b9050614608818361156c565b6001600160a01b03989098166000908152602093845260408082209882529784528781209681529590925250505091902080546001600160801b03191690555090565b6000614655613c44565b6000868152602082815260408083208884528252808320868452825291829020808a5290890187905280546001600160501b03808216938b0193909352600160501b810490921660608a015263ffffffff600160a01b8304811660a08b0152600160c01b8304811660c08b0152600160e01b90920490911660e08901529091508084156146f45760018201546001600160501b031660808901526146fc565b600060808901525b5050505050505050565b60006107c761471984633b9aca00611939565b83611987565b600080633b9aca00831415614739575060009050806147bc565b600061475361474c633b9aca0086611556565b8590614706565b9050600061476082611d59565b9050600081600f0b1361477b576000809350935050506147bc565b60006147af6147aa61479e61478f85613140565b6814b927f32bffb83338614d39565b621dcd6560491b611e67565b611e9d565b60070b9450600193505050505b915091565b60008082600f0b136147d257600080fd5b6000600f83900b600160401b81126147ec576040918201911d5b6401000000008112614800576020918201911d5b620100008112614812576010918201911d5b6101008112614823576008918201911d5b60108112614833576004918201911d5b60048112614843576002918201911d5b60028112614852576001820191505b603f19820160401b600f85900b607f8490031b6001603f1b5b60008113156148915790800260ff81901c8281029390930192607f011c9060011d61486b565b509095945050505050565b600181901c7f5555555555555555555555555555555555555555555555555555555555555555908116911601600281901c7f3333333333333333333333333333333333333333333333333333333333333333908116911601600481901c7f07070707070707070707070707070707070707070707070707070707070707079190911601600881901c7e0f000f000f000f000f000f000f000f000f000f000f000f000f000f000f000f908116911601601081901c01602081901c01604081901c01608081901c60ff90811691160190565b606060108260ff16111561497f57600080fd5b6000614989612361565b6001600160a01b038516600090815260208290526040812091925060ff851667ffffffffffffffff811180156149be57600080fd5b506040519080825280602002602001820160405280156149f857816020015b6149e5614ee5565b8152602001906001900390816149dd5790505b50905060005b8560ff16811015614a84576000838260108110614a1757fe5b0190506000838381518110614a2857fe5b602090810291909101810151835461ffff8116825264ffffffffff620100008204169282019290925260ff600160381b8304166040820152600160401b909104600a90810b900b606082015260800191909152506001016149fe565b5095945050505050565b805160008167ffffffffffffffff81118015614aa957600080fd5b50604051908082528060200260200182016040528015614ad3578160200160208202803683370190505b50905060005b82811015614b30576000848281518110614aef57fe5b60200260200101519050614b10816000015182602001518360400151614d6c565b838381518110614b1c57fe5b602090810291909101015250600101614ad9565b5060015b8281101561444c57805b600081118015614b765750828181518110614b5557fe5b6020026020010151836001830381518110614b6c57fe5b6020026020010151115b15614c3e57828181518110614b8757fe5b6020026020010151836001830381518110614b9e57fe5b6020026020010151846001840381518110614bb557fe5b60200260200101858481518110614bc857fe5b6020026020010182815250828152505050848181518110614be557fe5b6020026020010151856001830381518110614bfc57fe5b6020026020010151866001840381518110614c1357fe5b60200260200101878481518110614c2657fe5b60209081029190910101919091525260001901614b3e565b50600101614b34565b6000806000614c54614dc7565b600094855260205250506040909120546001600160a01b03811692600160a01b90910460ff169150565b6000806107ca6009613faa565b6000806000614c98614cd4565b6000958652602090815260408087209587529490525050509020546501000000000081046001600160801b031691600160a81b90910460ff1690565b6000806107ca6008613faa565b6000614cec82614dd4565b905060008160000160189054906101000a900463ffffffff169050614d2b82846040015185606001518660a001518563ffffffff168860e00151613c51565b61096a828460800151613d65565b6000600f82810b9084900b0360016001607f1b03198112801590611dd6575060016001607f1b038113156107c757600080fd5b6000613fff841115614d7d57600080fd5b64ffffffffff831115614d8f57600080fd5b6008821115614d9d57600080fd5b5067ffff000000000000603084901b1665ffffffffff00600884901b161760ff8216179392505050565b6000806107ca600f613faa565b5190565b6040518060e00160405280614deb614e91565b8152602001614df8614ebd565b815260006020820181905260408201819052606082018190526080820181905260a09091015290565b60405180610100016040528060008019168152602001600081526020016000815260200160008152602001600081526020016000815260200160008152602001600081525090565b6040518060800160405280606081526020016060815260200160608152602001606081525090565b6040805160808101825260008082526020820152908101614eb0614f25565b8152600060209091015290565b6040518060800160405280606081526020016060815260200160008152602001600081525090565b6040518060c00160405280600081526020016000815260200160008152602001600081526020016000815260200160006003811115614f2057fe5b905290565b604051806060016040528060006001600160a01b0316815260200160008152602001600081525090565b604051806040016040528060008152602001600081525090565b803561ffff8116811461076857600080fd5b600060208284031215614f8c578081fd5b5051919050565b600060208284031215614fa4578081fd5b6107c782614f69565b60008060408385031215614fbf578081fd5b614fc883614f69565b915060208301358015158114614fdc578182fd5b809150509250929050565b6001600160a01b0391909116815260200190565b60208082526017908201527f496e76616c696420737765657020636173682074696d65000000000000000000604082015260600190565b60208082526016908201527513585c9ad95d081b9bdd081a5b9a5d1a585b1a5e995960521b604082015260600190565b6020808252601490820152734f7261636c652072617465206f766572666c6f7760601b604082015260600190565b60208082526017908201527f4d75737420696e697469616c697a65206d61726b657473000000000000000000604082015260600190565b60208082526015908201527410d1ce881b9bc81b585c9ad95d1cc81b1a5cdd1959605a1b604082015260600190565b6020808252600d908201526c092dcecc2d8d2c840d2dcc8caf609b1b604082015260600190565b60208082526013908201527224a69d1039b4bc1036b7b73a341032b93937b960691b604082015260600190565b60208082526010908201526f4e6f206e546f6b656e2061737365747360801b604082015260600190565b6020808252600f908201526e4f766572206d61782061737365747360881b604082015260600190565b60208082526017908201527f494d3a20696e746572706f6c6174696f6e206572726f72000000000000000000604082015260600190565b60208082526016908201527510d1ce881b585c9ad95d081a5b99195e08189bdd5b9960521b604082015260600190565b6020808252601590820152740929a7440d2dce6eaccccd2c6d2cadce840c6c2e6d605b1b604082015260600190565b60208082526012908201527112534e881b9bdd08199a5c9cdd081a5b9a5d60721b604082015260600190565b60208082526010908201526f494d3a20696e76616c69642074696d6560801b604082015260600190565b60208082526013908201527250543a20696e69742076616c7565207a65726f60681b604082015260600190565b60208082526013908201527210d1ce881b9bc81b585c9ad95d08199bdd5b99606a1b604082015260600190565b60208082526016908201527512534e881b9bc81b585c9ad95d1cc81d1bc81a5b9a5d60521b604082015260600190565b60208082526017908201527f494d3a20696d706c6965642072617465206661696c6564000000000000000000604082015260600190565b6001600160801b0391909116815260200190565b61ffff91909116815260200190565b61ffff92909216825260208201526040019056fe536166654d6174683a206d756c7469706c69636174696f6e206f766572666c6f77a26469706673582212206450a3b2f25e4646df1812f17fb029168dd0f81dfe00973993ce5ddb299bc6a164736f6c63430007060033","language":"Solidity","natspec":{"methods":{"initializeMarkets(uint16,bool)":{"notice":"Initialize the market for a given currency id, done once a quarter","details":"emit:MarketsInitializedauth:none","params":{"currencyId":"currency of markets to initialize","isFirstInit":"true if this is the first time the markets have been initialized"}},"sweepCashIntoMarkets(uint16)":{"notice":"Sweeps nToken cash balance into markets after accounting for cash withholding. Can be done after fCash residuals are purchased to ensure that markets have maximum liquidity.","details":"emit:CashSweepIntoMarketsauth:none","params":{"currencyId":"currency of markets to initialize"}},"getLibInfo()":{"notice":"Get a list of deployed library addresses (sorted by library name)"}},"kind":"dev","notice":"Initialize markets is called once every quarter to setup the new markets. Only the nToken account can initialize markets, and this method will be called on behalf of that account. In this action the following will occur:  - nToken Liquidity Tokens will be settled  - Any ifCash assets will be settled  - If nToken liquidity tokens are settled with negative net ifCash, enough cash will be withheld at the PV    to purchase offsetting positions  - fCash positions are written to storage  - For each market, calculate the proportion of fCash to cash given:     - previous oracle rates     - rate anchor set by governance     - percent of cash to deposit into the market set by governance  - Set new markets and add liquidity tokens to portfolio","version":1},"opcodes":"PUSH20 0x0 ADDRESS EQ PUSH1 0x80 PUSH1 0x40 MSTORE PUSH1 0x4 CALLDATASIZE LT PUSH2 0x4B JUMPI PUSH1 0x0 CALLDATALOAD PUSH1 0xE0 SHR DUP1 PUSH4 0xBB6DD58E EQ PUSH2 0x50 JUMPI DUP1 PUSH4 0xC4C96DAE EQ PUSH2 0x72 JUMPI DUP1 PUSH4 0xD0E064C0 EQ PUSH2 0x90 JUMPI JUMPDEST PUSH1 0x0 DUP1 REVERT JUMPDEST DUP2 DUP1 ISZERO PUSH2 0x5C JUMPI PUSH1 0x0 DUP1 REVERT JUMPDEST POP PUSH2 0x70 PUSH2 0x6B CALLDATASIZE PUSH1 0x4 PUSH2 0x4F93 JUMP JUMPDEST PUSH2 0xB0 JUMP JUMPDEST STOP JUMPDEST PUSH2 0x7A PUSH2 0x29D JUMP JUMPDEST PUSH1 0x40 MLOAD PUSH2 0x87 SWAP2 SWAP1 PUSH2 0x4FE7 JUMP JUMPDEST PUSH1 0x40 MLOAD DUP1 SWAP2 SUB SWAP1 RETURN JUMPDEST DUP2 DUP1 ISZERO PUSH2 0x9C JUMPI PUSH1 0x0 DUP1 REVERT JUMPDEST POP PUSH2 0x70 PUSH2 0xAB CALLDATASIZE PUSH1 0x4 PUSH2 0x4FAD JUMP JUMPDEST PUSH2 0x2B5 JUMP JUMPDEST TIMESTAMP PUSH2 0xB9 PUSH2 0x4DD8 JUMP JUMPDEST PUSH2 0xC3 DUP2 DUP5 PUSH2 0x731 JUMP JUMPDEST PUSH1 0x20 DUP2 ADD MLOAD MLOAD MLOAD PUSH2 0xEF JUMPI PUSH1 0x40 MLOAD PUSH3 0x461BCD PUSH1 0xE5 SHL DUP2 MSTORE PUSH1 0x4 ADD PUSH2 0xE6 SWAP1 PUSH2 0x514A JUMP JUMPDEST PUSH1 0x40 MLOAD DUP1 SWAP2 SUB SWAP1 REVERT JUMPDEST PUSH1 0x0 PUSH2 0xFA DUP4 PUSH2 0x74A JUMP JUMPDEST SWAP1 POP DUP1 DUP3 PUSH1 0x80 ADD MLOAD LT ISZERO PUSH2 0x120 JUMPI PUSH1 0x40 MLOAD PUSH3 0x461BCD PUSH1 0xE5 SHL DUP2 MSTORE PUSH1 0x4 ADD PUSH2 0xE6 SWAP1 PUSH2 0x5090 JUMP JUMPDEST PUSH1 0xA0 DUP3 ADD MLOAD PUSH1 0x80 DUP4 ADD MLOAD PUSH1 0x0 SWAP2 PUSH2 0x13E SWAP2 SWAP1 PUSH1 0x2 BYTE PUSH2 0xE10 MUL PUSH2 0x76D JUMP JUMPDEST SWAP1 POP DUP1 DUP5 GT PUSH2 0x15F JUMPI PUSH1 0x40 MLOAD PUSH3 0x461BCD PUSH1 0xE5 SHL DUP2 MSTORE PUSH1 0x4 ADD PUSH2 0xE6 SWAP1 PUSH2 0x4FFB JUMP JUMPDEST PUSH1 0x40 DUP1 MLOAD PUSH1 0x0 DUP1 DUP3 MSTORE PUSH1 0x20 DUP3 ADD SWAP1 SWAP3 MSTORE PUSH2 0x19D SWAP1 DUP6 SWAP1 DUP4 PUSH2 0x196 JUMP JUMPDEST PUSH2 0x183 PUSH2 0x4E21 JUMP JUMPDEST DUP2 MSTORE PUSH1 0x20 ADD SWAP1 PUSH1 0x1 SWAP1 SUB SWAP1 DUP2 PUSH2 0x17B JUMPI SWAP1 POP JUMPDEST POP DUP8 PUSH2 0x7D0 JUMP JUMPDEST SWAP1 POP PUSH1 0x0 PUSH2 0x1B8 DUP3 DUP7 PUSH1 0x60 ADD MLOAD PUSH2 0x930 SWAP1 SWAP2 SWAP1 PUSH4 0xFFFFFFFF AND JUMP JUMPDEST PUSH1 0xC0 DUP7 ADD MLOAD DUP7 MLOAD MLOAD SWAP2 SWAP3 POP PUSH2 0x1D1 SWAP2 PUSH2 0xFFFF AND DUP5 PUSH2 0x94C JUMP JUMPDEST PUSH1 0x40 MLOAD PUSH4 0x21285613 PUSH1 0xE1 SHL DUP2 MSTORE PUSH20 0x0 SWAP1 PUSH4 0x4250AC26 SWAP1 PUSH2 0x20A SWAP1 DUP11 SWAP1 DUP6 SWAP1 PUSH1 0x4 ADD PUSH2 0x536D JUMP JUMPDEST PUSH1 0x20 PUSH1 0x40 MLOAD DUP1 DUP4 SUB DUP2 DUP7 DUP1 EXTCODESIZE ISZERO DUP1 ISZERO PUSH2 0x222 JUMPI PUSH1 0x0 DUP1 REVERT JUMPDEST POP GAS DELEGATECALL ISZERO DUP1 ISZERO PUSH2 0x236 JUMPI RETURNDATASIZE PUSH1 0x0 DUP1 RETURNDATACOPY RETURNDATASIZE PUSH1 0x0 REVERT JUMPDEST POP POP POP POP PUSH1 0x40 MLOAD RETURNDATASIZE PUSH1 0x1F NOT PUSH1 0x1F DUP3 ADD AND DUP3 ADD DUP1 PUSH1 0x40 MSTORE POP DUP2 ADD SWAP1 PUSH2 0x25A SWAP2 SWAP1 PUSH2 0x4F7B JUMP JUMPDEST POP PUSH32 0x120B36BD1B47AE64F0F3EA6EB0FBFBA209B2C780A31864E382D9957377A9F946 DUP8 DUP3 PUSH1 0x40 MLOAD PUSH2 0x28C SWAP3 SWAP2 SWAP1 PUSH2 0x536D JUMP JUMPDEST PUSH1 0x40 MLOAD DUP1 SWAP2 SUB SWAP1 LOG1 POP POP POP POP POP POP POP JUMP JUMPDEST PUSH20 0x0 SWAP1 JUMP JUMPDEST TIMESTAMP PUSH2 0x2BE PUSH2 0x4DD8 JUMP JUMPDEST PUSH2 0x2C8 DUP2 DUP6 PUSH2 0x731 JUMP JUMPDEST DUP1 MLOAD PUSH1 0x20 ADD MLOAD PUSH1 0x0 SWAP1 PUSH8 0xFFFFFFFFFFFFFFFF DUP2 GT DUP1 ISZERO PUSH2 0x2E7 JUMPI PUSH1 0x0 DUP1 REVERT JUMPDEST POP PUSH1 0x40 MLOAD SWAP1 DUP1 DUP3 MSTORE DUP1 PUSH1 0x20 MUL PUSH1 0x20 ADD DUP3 ADD PUSH1 0x40 MSTORE DUP1 ISZERO PUSH2 0x321 JUMPI DUP2 PUSH1 0x20 ADD JUMPDEST PUSH2 0x30E PUSH2 0x4E21 JUMP JUMPDEST DUP2 MSTORE PUSH1 0x20 ADD SWAP1 PUSH1 0x1 SWAP1 SUB SWAP1 DUP2 PUSH2 0x306 JUMPI SWAP1 POP JUMPDEST POP DUP3 MLOAD PUSH1 0x20 ADD MLOAD SWAP1 SWAP2 POP PUSH2 0x347 JUMPI PUSH1 0x40 MLOAD PUSH3 0x461BCD PUSH1 0xE5 SHL DUP2 MSTORE PUSH1 0x4 ADD PUSH2 0xE6 SWAP1 PUSH2 0x52E3 JUMP JUMPDEST DUP4 ISZERO PUSH2 0x371 JUMPI PUSH1 0x20 DUP3 ADD MLOAD MLOAD MLOAD ISZERO PUSH2 0x371 JUMPI PUSH1 0x40 MLOAD PUSH3 0x461BCD PUSH1 0xE5 SHL DUP2 MSTORE PUSH1 0x4 ADD PUSH2 0xE6 SWAP1 PUSH2 0x5233 JUMP JUMPDEST PUSH1 0x0 PUSH2 0x384 DUP4 DUP4 DUP7 DUP10 PUSH2 0xFFFF AND DUP10 PUSH2 0x96F JUMP JUMPDEST SWAP1 POP PUSH1 0x0 PUSH2 0x39E DUP8 PUSH2 0xFFFF AND DUP6 PUSH1 0x0 ADD MLOAD PUSH1 0x20 ADD MLOAD PUSH2 0xA01 JUMP JUMPDEST SWAP1 POP PUSH2 0x3A8 PUSH2 0x4E21 JUMP JUMPDEST PUSH1 0x0 DUP1 JUMPDEST DUP7 MLOAD PUSH1 0x20 ADD MLOAD DUP2 LT ISZERO PUSH2 0x6A1 JUMPI PUSH2 0x3D7 PUSH2 0x3C8 DUP3 PUSH1 0x1 ADD PUSH2 0xA3D JUMP JUMPDEST PUSH2 0x3D1 DUP11 PUSH2 0x74A JUMP JUMPDEST SWAP1 PUSH2 0x76D JUMP JUMPDEST PUSH1 0x20 DUP5 ADD MSTORE DUP4 MLOAD DUP1 MLOAD PUSH1 0x0 SWAP2 PUSH2 0x40A SWAP2 DUP9 SWAP2 SWAP1 DUP6 SWAP1 DUP2 LT PUSH2 0x3F4 JUMPI INVALID JUMPDEST PUSH1 0x20 MUL PUSH1 0x20 ADD ADD MLOAD DUP5 PUSH1 0x2 PUSH1 0xFF AND ADD DUP8 DUP13 PUSH2 0xAE1 JUMP JUMPDEST SWAP1 POP PUSH1 0x0 PUSH2 0x425 DUP11 DUP7 PUSH1 0x20 ADD MLOAD PUSH2 0xB46 SWAP1 SWAP2 SWAP1 PUSH4 0xFFFFFFFF AND JUMP JUMPDEST DUP10 MLOAD SWAP1 SWAP2 POP PUSH1 0x0 SWAP1 PUSH2 0x43B SWAP1 PUSH1 0x1 DUP7 ADD DUP5 PUSH2 0xBA3 JUMP JUMPDEST SWAP1 POP DUP12 DUP1 PUSH2 0x455 JUMPI POP DUP4 PUSH1 0x1 EQ DUP1 ISZERO PUSH2 0x455 JUMPI POP DUP9 MLOAD PUSH1 0x2 EQ JUMPDEST DUP1 PUSH2 0x466 JUMPI POP PUSH1 0x20 DUP11 ADD MLOAD MLOAD MLOAD DUP5 LT ISZERO JUMPDEST DUP1 PUSH2 0x494 JUMPI POP DUP4 PUSH1 0x1 EQ DUP1 ISZERO PUSH2 0x494 JUMPI POP DUP9 PUSH1 0x2 DUP2 MLOAD DUP2 LT PUSH2 0x484 JUMPI INVALID JUMPDEST PUSH1 0x20 MUL PUSH1 0x20 ADD ADD MLOAD PUSH1 0xC0 ADD MLOAD PUSH1 0x0 EQ JUMPDEST ISZERO PUSH2 0x515 JUMPI PUSH1 0x0 PUSH2 0x4BC DUP5 DUP10 PUSH1 0x60 ADD MLOAD DUP8 DUP2 MLOAD DUP2 LT PUSH2 0x4AF JUMPI INVALID JUMPDEST PUSH1 0x20 MUL PUSH1 0x20 ADD ADD MLOAD PUSH2 0xC15 JUMP JUMPDEST SWAP1 POP DUP1 DUP8 PUSH1 0x40 ADD DUP2 DUP2 MSTORE POP POP PUSH2 0x4EC DUP2 DUP6 DUP5 DUP12 PUSH1 0x40 ADD MLOAD DUP10 DUP2 MLOAD DUP2 LT PUSH2 0x4DE JUMPI INVALID JUMPDEST PUSH1 0x20 MUL PUSH1 0x20 ADD ADD MLOAD DUP8 PUSH2 0xC32 JUMP JUMPDEST PUSH1 0xC0 DUP9 ADD DUP2 SWAP1 MSTORE PUSH2 0x50F JUMPI PUSH1 0x40 MLOAD PUSH3 0x461BCD PUSH1 0xE5 SHL DUP2 MSTORE PUSH1 0x4 ADD PUSH2 0xE6 SWAP1 PUSH2 0x5313 JUMP JUMPDEST POP PUSH2 0x67D JUMP JUMPDEST DUP4 PUSH2 0x53A JUMPI DUP9 PUSH1 0x1 DUP2 MLOAD DUP2 LT PUSH2 0x527 JUMPI INVALID JUMPDEST PUSH1 0x20 MUL PUSH1 0x20 ADD ADD MLOAD PUSH1 0xC0 ADD MLOAD SWAP5 POP PUSH2 0x597 JUMP JUMPDEST DUP4 PUSH1 0x1 EQ ISZERO PUSH2 0x55C JUMPI PUSH2 0x555 DUP10 PUSH2 0x550 DUP14 PUSH2 0x74A JUMP JUMPDEST PUSH2 0xC5C JUMP JUMPDEST SWAP5 POP PUSH2 0x597 JUMP JUMPDEST PUSH1 0x0 PUSH2 0x573 PUSH2 0x56A DUP7 PUSH2 0xA3D JUMP JUMPDEST PUSH2 0x3D1 DUP15 PUSH2 0x74A JUMP JUMPDEST SWAP1 POP PUSH2 0x593 DUP2 DUP8 DUP13 DUP9 DUP2 MLOAD DUP2 LT PUSH2 0x586 JUMPI INVALID JUMPDEST PUSH1 0x20 MUL PUSH1 0x20 ADD ADD MLOAD PUSH2 0xCF5 JUMP JUMPDEST SWAP6 POP POP JUMPDEST PUSH1 0x0 PUSH2 0x5BC DUP7 DUP5 DUP5 DUP12 PUSH1 0x40 ADD MLOAD DUP10 DUP2 MLOAD DUP2 LT PUSH2 0x5AF JUMPI INVALID JUMPDEST PUSH1 0x20 MUL PUSH1 0x20 ADD ADD MLOAD PUSH2 0xD8C JUMP JUMPDEST SWAP1 POP DUP8 PUSH1 0x20 ADD MLOAD DUP6 DUP2 MLOAD DUP2 LT PUSH2 0x5CE JUMPI INVALID JUMPDEST PUSH1 0x20 MUL PUSH1 0x20 ADD ADD MLOAD DUP2 SGT ISZERO PUSH2 0x648 JUMPI DUP8 PUSH1 0x20 ADD MLOAD DUP6 DUP2 MLOAD DUP2 LT PUSH2 0x5ED JUMPI INVALID JUMPDEST PUSH1 0x20 MUL PUSH1 0x20 ADD ADD MLOAD SWAP1 POP PUSH2 0x601 DUP5 DUP3 PUSH2 0xC15 JUMP JUMPDEST DUP8 PUSH1 0x40 ADD DUP2 DUP2 MSTORE POP POP PUSH2 0x624 DUP8 PUSH1 0x40 ADD MLOAD DUP6 DUP5 DUP12 PUSH1 0x40 ADD MLOAD DUP10 DUP2 MLOAD DUP2 LT PUSH2 0x4DE JUMPI INVALID JUMPDEST SWAP6 POP DUP6 PUSH2 0x643 JUMPI PUSH1 0x40 MLOAD PUSH3 0x461BCD PUSH1 0xE5 SHL DUP2 MSTORE PUSH1 0x4 ADD PUSH2 0xE6 SWAP1 PUSH2 0x5062 JUMP JUMPDEST PUSH2 0x658 JUMP JUMPDEST PUSH2 0x652 DUP5 DUP3 PUSH2 0xC15 JUMP JUMPDEST PUSH1 0x40 DUP9 ADD MSTORE JUMPDEST PUSH1 0x1 DUP8 PUSH1 0x40 ADD MLOAD SLT ISZERO PUSH2 0x66D JUMPI PUSH1 0x1 PUSH1 0x40 DUP9 ADD MSTORE JUMPDEST POP PUSH1 0xC0 DUP7 ADD DUP6 SWAP1 MSTORE PUSH1 0xE0 DUP7 ADD DUP12 SWAP1 MSTORE JUMPDEST PUSH1 0xC0 DUP7 ADD MLOAD PUSH1 0xA0 DUP8 ADD MSTORE PUSH2 0x696 DUP7 PUSH2 0xFFFF DUP16 AND DUP13 PUSH2 0xE2E JUMP JUMPDEST POP POP POP PUSH1 0x1 ADD PUSH2 0x3AC JUMP JUMPDEST POP PUSH1 0x0 PUSH2 0x6BF DUP8 PUSH1 0xC0 ADD MLOAD DUP9 PUSH1 0x20 ADD MLOAD PUSH2 0xE77 SWAP1 SWAP2 SWAP1 PUSH4 0xFFFFFFFF AND JUMP JUMPDEST POP SWAP3 POP POP POP PUSH2 0x6DB DUP8 PUSH1 0xC0 ADD MLOAD DUP12 PUSH2 0xFFFF AND DUP10 PUSH1 0x60 ADD MLOAD PUSH2 0x94C JUMP JUMPDEST PUSH2 0x6EE DUP8 PUSH1 0xC0 ADD MLOAD DUP3 DUP10 PUSH1 0x80 ADD MLOAD PUSH2 0x10B6 JUMP JUMPDEST PUSH32 0xCFFEFF9ACCC9171F01FEC36E09A1A06F0160CE50A8C4C0A2ADFF9CEC562ADF08 DUP11 PUSH1 0x40 MLOAD PUSH2 0x71D SWAP2 SWAP1 PUSH2 0x535E JUMP JUMPDEST PUSH1 0x40 MLOAD DUP1 SWAP2 SUB SWAP1 LOG1 POP POP POP POP POP POP POP POP POP POP JUMP JUMPDEST PUSH2 0x73B DUP3 DUP3 PUSH2 0x1129 JUMP JUMPDEST PUSH2 0x744 DUP2 PUSH2 0x11CC JUMP JUMPDEST SWAP1 SWAP2 MSTORE POP JUMP JUMPDEST PUSH1 0x0 PUSH3 0x76A700 DUP3 LT ISZERO PUSH2 0x75C JUMPI PUSH1 0x0 DUP1 REVERT JUMPDEST PUSH3 0x76A700 DUP3 JUMPDEST MOD DUP3 SUB SWAP1 POP JUMPDEST SWAP2 SWAP1 POP JUMP JUMPDEST PUSH1 0x0 DUP3 DUP3 ADD DUP4 DUP2 LT ISZERO PUSH2 0x7C7 JUMPI PUSH1 0x40 DUP1 MLOAD PUSH3 0x461BCD PUSH1 0xE5 SHL DUP2 MSTORE PUSH1 0x20 PUSH1 0x4 DUP3 ADD MSTORE PUSH1 0x1B PUSH1 0x24 DUP3 ADD MSTORE PUSH32 0x536166654D6174683A206164646974696F6E206F766572666C6F770000000000 PUSH1 0x44 DUP3 ADD MSTORE SWAP1 MLOAD SWAP1 DUP2 SWAP1 SUB PUSH1 0x64 ADD SWAP1 REVERT JUMPDEST SWAP1 POP JUMPDEST SWAP3 SWAP2 POP POP JUMP JUMPDEST PUSH1 0x0 DUP1 PUSH2 0x7ED DUP6 PUSH1 0xC0 ADD MLOAD DUP7 PUSH1 0x0 ADD MLOAD PUSH1 0x0 ADD MLOAD PUSH2 0xFFFF AND PUSH2 0x11EF JUMP JUMPDEST PUSH1 0xA0 DUP7 ADD MLOAD DUP6 MLOAD SWAP2 SWAP3 POP PUSH1 0x1 BYTE PUSH3 0xF4240 MUL SWAP1 PUSH1 0x0 SWAP1 ISZERO PUSH2 0x81A JUMPI PUSH2 0x815 DUP6 PUSH3 0x76A700 PUSH2 0xB46 JUMP JUMPDEST PUSH2 0x81C JUMP JUMPDEST DUP5 JUMPDEST SWAP1 POP PUSH1 0x0 PUSH2 0x829 DUP5 PUSH2 0x1224 JUMP JUMPDEST SWAP1 POP JUMPDEST DUP1 ISZERO PUSH2 0x912 JUMPI PUSH1 0x0 PUSH2 0x842 DUP10 PUSH1 0x80 ADD MLOAD DUP4 PUSH2 0x1249 JUMP JUMPDEST SWAP1 POP DUP8 MLOAD PUSH1 0x0 EQ DUP1 ISZERO PUSH2 0x861 JUMPI POP DUP9 MLOAD PUSH1 0x20 ADD MLOAD PUSH2 0x861 SWAP1 DUP3 DUP10 PUSH2 0x12FC JUMP JUMPDEST ISZERO PUSH2 0x885 JUMPI PUSH2 0x872 DUP6 DUP4 PUSH1 0x0 PUSH2 0x13A1 JUMP JUMPDEST SWAP5 POP PUSH2 0x87D DUP6 PUSH2 0x1224 JUMP JUMPDEST SWAP2 POP POP PUSH2 0x82C JUMP JUMPDEST PUSH1 0xC0 DUP10 ADD MLOAD DUP10 MLOAD MLOAD PUSH1 0x0 SWAP2 PUSH2 0x89E SWAP2 PUSH2 0xFFFF AND DUP5 PUSH2 0x13EC JUMP JUMPDEST SWAP1 POP PUSH1 0x0 DUP2 SLT ISZERO PUSH2 0x8F2 JUMPI DUP10 MLOAD PUSH1 0x0 SWAP1 PUSH2 0x8B9 SWAP1 DUP5 DUP8 PUSH2 0x1431 JUMP JUMPDEST SWAP1 POP DUP1 DUP7 GT ISZERO PUSH2 0x8CB JUMPI POP PUSH1 0x0 PUSH2 0x8D8 JUMP JUMPDEST PUSH2 0x8D5 DUP2 DUP8 PUSH2 0xB46 JUMP JUMPDEST SWAP1 POP JUMPDEST PUSH2 0x8EE PUSH2 0x8E7 DUP4 DUP6 DUP13 DUP6 PUSH2 0x1510 JUMP JUMPDEST DUP10 SWAP1 PUSH2 0x1556 JUMP JUMPDEST SWAP8 POP POP JUMPDEST PUSH2 0x8FE DUP7 DUP5 PUSH1 0x0 PUSH2 0x13A1 JUMP JUMPDEST SWAP6 POP PUSH2 0x909 DUP7 PUSH2 0x1224 JUMP JUMPDEST SWAP3 POP POP POP PUSH2 0x82C JUMP JUMPDEST DUP8 MLOAD PUSH1 0x40 ADD MLOAD PUSH2 0x922 SWAP1 DUP7 PUSH2 0x156C JUMP JUMPDEST SWAP5 POP POP POP POP POP JUMPDEST SWAP4 SWAP3 POP POP POP JUMP JUMPDEST PUSH1 0x0 PUSH2 0x93C DUP4 DUP4 PUSH2 0x1556 JUMP JUMPDEST SWAP1 POP PUSH1 0x0 DUP2 SLT ISZERO PUSH2 0x7CA JUMPI PUSH1 0x0 DUP1 REVERT JUMPDEST PUSH1 0x0 DUP2 SLT ISZERO PUSH2 0x95A JUMPI PUSH1 0x0 DUP1 REVERT JUMPDEST PUSH2 0x96A DUP4 DUP4 DUP4 PUSH1 0x0 DUP1 PUSH1 0x0 PUSH2 0x159D JUMP JUMPDEST POP POP POP JUMP JUMPDEST PUSH1 0x0 DUP1 PUSH1 0x0 DUP4 ISZERO PUSH2 0x994 JUMPI PUSH2 0x983 DUP7 PUSH2 0x16C8 JUMP JUMPDEST PUSH5 0xFFFFFFFFFF AND PUSH1 0x80 DUP10 ADD MSTORE PUSH2 0x9B9 JUMP JUMPDEST PUSH2 0x99E DUP9 DUP8 PUSH2 0x16E4 JUMP JUMPDEST PUSH2 0x9AA DUP6 DUP8 DUP11 DUP11 PUSH2 0x17BE JUMP JUMPDEST PUSH2 0x9B6 DUP9 DUP9 DUP8 DUP10 PUSH2 0x184E JUMP JUMPDEST SWAP1 POP JUMPDEST PUSH1 0x60 DUP9 ADD MLOAD PUSH2 0x9C8 SWAP1 DUP3 PUSH2 0x930 JUMP JUMPDEST PUSH1 0x60 DUP10 ADD DUP3 SWAP1 MSTORE SWAP2 POP PUSH4 0x5F5E100 DUP3 SGT PUSH2 0x9F4 JUMPI PUSH1 0x40 MLOAD PUSH3 0x461BCD PUSH1 0xE5 SHL DUP2 MSTORE PUSH1 0x4 ADD PUSH2 0xE6 SWAP1 PUSH2 0x5204 JUMP JUMPDEST POP SWAP1 POP JUMPDEST SWAP6 SWAP5 POP POP POP POP POP JUMP JUMPDEST PUSH2 0xA09 PUSH2 0x4E69 JUMP JUMPDEST PUSH2 0xA11 PUSH2 0x4E69 JUMP JUMPDEST PUSH2 0xA1B DUP5 DUP5 PUSH2 0x18D7 JUMP JUMPDEST PUSH1 0x20 DUP4 ADD MSTORE DUP2 MSTORE PUSH2 0xA2C DUP5 DUP5 PUSH2 0x190F JUMP JUMPDEST PUSH1 0x60 DUP4 ADD MSTORE PUSH1 0x40 DUP3 ADD MSTORE SWAP4 SWAP3 POP POP POP JUMP JUMPDEST PUSH1 0x0 DUP2 PUSH1 0x1 EQ ISZERO PUSH2 0xA52 JUMPI POP PUSH3 0x76A700 PUSH2 0x768 JUMP JUMPDEST DUP2 PUSH1 0x2 EQ ISZERO PUSH2 0xA65 JUMPI POP PUSH3 0xED4E00 PUSH2 0x768 JUMP JUMPDEST DUP2 PUSH1 0x3 EQ ISZERO PUSH2 0xA79 JUMPI POP PUSH4 0x1DA9C00 PUSH2 0x768 JUMP JUMPDEST DUP2 PUSH1 0x4 EQ ISZERO PUSH2 0xA8D JUMPI POP PUSH4 0x3B53800 PUSH2 0x768 JUMP JUMPDEST DUP2 PUSH1 0x5 EQ ISZERO PUSH2 0xAA1 JUMPI POP PUSH4 0x9450C00 PUSH2 0x768 JUMP JUMPDEST DUP2 PUSH1 0x6 EQ ISZERO PUSH2 0xAB5 JUMPI POP PUSH4 0x128A1800 PUSH2 0x768 JUMP JUMPDEST DUP2 PUSH1 0x7 EQ ISZERO PUSH2 0xAC9 JUMPI POP PUSH4 0x25143000 PUSH2 0x768 JUMP JUMPDEST PUSH1 0x40 MLOAD PUSH3 0x461BCD PUSH1 0xE5 SHL DUP2 MSTORE PUSH1 0x4 ADD PUSH2 0xE6 SWAP1 PUSH2 0x50F6 JUMP JUMPDEST PUSH1 0x0 DUP1 PUSH2 0xAFC PUSH4 0x5F5E100 PUSH2 0xAF6 DUP10 DUP10 PUSH2 0x1939 JUMP JUMPDEST SWAP1 PUSH2 0x1987 JUMP JUMPDEST PUSH1 0x60 DUP6 ADD DUP2 SWAP1 MSTORE PUSH1 0x80 DUP6 ADD DUP2 SWAP1 MSTORE DUP4 MLOAD MLOAD PUSH1 0x20 DUP1 DUP8 ADD MLOAD SWAP1 DUP7 ADD MLOAD SWAP3 SWAP4 POP PUSH2 0xB2B SWAP3 SWAP2 PUSH2 0xFFFF AND SWAP1 DUP9 DUP6 PUSH2 0x19B8 JUMP JUMPDEST DUP3 MLOAD PUSH1 0x40 ADD MLOAD PUSH2 0xB3B SWAP1 DUP3 PUSH2 0x1AB5 JUMP JUMPDEST SWAP8 SWAP7 POP POP POP POP POP POP POP JUMP JUMPDEST PUSH1 0x0 DUP3 DUP3 GT ISZERO PUSH2 0xB9D JUMPI PUSH1 0x40 DUP1 MLOAD PUSH3 0x461BCD PUSH1 0xE5 SHL DUP2 MSTORE PUSH1 0x20 PUSH1 0x4 DUP3 ADD MSTORE PUSH1 0x1E PUSH1 0x24 DUP3 ADD MSTORE PUSH32 0x536166654D6174683A207375627472616374696F6E206F766572666C6F770000 PUSH1 0x44 DUP3 ADD MSTORE SWAP1 MLOAD SWAP1 DUP2 SWAP1 SUB PUSH1 0x64 ADD SWAP1 REVERT JUMPDEST POP SWAP1 SUB SWAP1 JUMP JUMPDEST PUSH1 0x0 DUP3 PUSH1 0x1 GT ISZERO DUP1 ISZERO PUSH2 0xBBA JUMPI POP DUP4 PUSH1 0x20 ADD MLOAD DUP4 GT ISZERO JUMPDEST PUSH2 0xBC3 JUMPI PUSH1 0x0 DUP1 REVERT JUMPDEST PUSH1 0x60 DUP5 ADD MLOAD PUSH1 0x80 PUSH1 0x8 PUSH1 0x0 NOT DUP7 ADD MUL ADD SWAP1 PUSH1 0xFF SWAP1 DUP3 SHR AND PUSH4 0x3B9ACA00 MUL PUSH1 0x0 PUSH2 0xBFC PUSH2 0xBEE DUP7 PUSH2 0x1AE0 JUMP JUMPDEST PUSH2 0xAF6 DUP5 PUSH4 0x1DA9C00 PUSH2 0x1939 JUMP JUMPDEST SWAP1 POP PUSH1 0x0 DUP2 SGT PUSH2 0xC0B JUMPI PUSH1 0x0 DUP1 REVERT JUMPDEST SWAP7 SWAP6 POP POP POP POP POP POP JUMP JUMPDEST PUSH1 0x0 PUSH2 0x7C7 PUSH2 0xC28 PUSH4 0x3B9ACA00 DUP5 PUSH2 0x1556 JUMP JUMPDEST PUSH2 0xAF6 DUP6 DUP6 PUSH2 0x1939 JUMP JUMPDEST PUSH1 0x0 DUP1 PUSH2 0xC3F DUP5 DUP5 PUSH2 0x1AFA JUMP JUMPDEST SWAP1 POP PUSH1 0x0 PUSH2 0xC50 DUP9 DUP9 DUP9 DUP6 DUP9 PUSH2 0x1B65 JUMP JUMPDEST SWAP9 SWAP8 POP POP POP POP POP POP POP POP JUMP JUMPDEST PUSH1 0x0 PUSH1 0x3 DUP4 MLOAD LT ISZERO PUSH2 0xC80 JUMPI PUSH1 0x40 MLOAD PUSH3 0x461BCD PUSH1 0xE5 SHL DUP2 MSTORE PUSH1 0x4 ADD PUSH2 0xE6 SWAP1 PUSH2 0x511D JUMP JUMPDEST PUSH2 0x7C7 DUP4 PUSH1 0x1 DUP2 MLOAD DUP2 LT PUSH2 0xC90 JUMPI INVALID JUMPDEST PUSH1 0x20 MUL PUSH1 0x20 ADD ADD MLOAD PUSH1 0x20 ADD MLOAD DUP5 PUSH1 0x2 DUP2 MLOAD DUP2 LT PUSH2 0xCA9 JUMPI INVALID JUMPDEST PUSH1 0x20 MUL PUSH1 0x20 ADD ADD MLOAD PUSH1 0x20 ADD MLOAD DUP6 PUSH1 0x1 DUP2 MLOAD DUP2 LT PUSH2 0xCC2 JUMPI INVALID JUMPDEST PUSH1 0x20 MUL PUSH1 0x20 ADD ADD MLOAD PUSH1 0xC0 ADD MLOAD DUP7 PUSH1 0x2 DUP2 MLOAD DUP2 LT PUSH2 0xCDB JUMPI INVALID JUMPDEST PUSH1 0x20 SWAP1 DUP2 MUL SWAP2 SWAP1 SWAP2 ADD ADD MLOAD PUSH1 0xC0 ADD MLOAD PUSH3 0xED4E00 DUP8 ADD PUSH2 0x1C22 JUMP JUMPDEST PUSH1 0x20 DUP2 ADD MLOAD PUSH1 0xC0 DUP3 ADD MLOAD PUSH1 0x0 SWAP2 SWAP1 PUSH3 0x76A700 DUP3 ADD DUP3 DUP8 LT PUSH2 0xD28 JUMPI PUSH1 0x40 MLOAD PUSH3 0x461BCD PUSH1 0xE5 SHL DUP2 MSTORE PUSH1 0x4 ADD PUSH2 0xE6 SWAP1 PUSH2 0x519D JUMP JUMPDEST DUP6 DUP3 LT PUSH2 0xD57 JUMPI PUSH2 0xD4D DUP7 PUSH2 0x3D1 DUP10 DUP7 SUB PUSH2 0xD47 DUP4 DUP8 SUB DUP13 DUP8 SUB PUSH2 0x1C80 JUMP JUMPDEST SWAP1 PUSH2 0x1CD9 JUMP JUMPDEST SWAP4 POP POP POP POP PUSH2 0x929 JUMP JUMPDEST PUSH1 0x0 PUSH2 0xD6D DUP9 DUP6 SUB PUSH2 0xD47 DUP6 DUP11 SUB DUP12 DUP7 SUB PUSH2 0x1C80 JUMP JUMPDEST SWAP1 POP DUP1 DUP8 GT PUSH2 0xD7D JUMPI PUSH1 0x0 PUSH2 0xD81 JUMP JUMPDEST DUP1 DUP8 SUB JUMPDEST SWAP5 POP POP POP POP POP PUSH2 0x929 JUMP JUMPDEST PUSH1 0x0 DUP1 PUSH2 0xD99 DUP4 DUP7 PUSH2 0x1AFA JUMP JUMPDEST SWAP1 POP PUSH1 0x0 PUSH2 0xDA7 DUP8 DUP8 PUSH2 0x1AFA JUMP JUMPDEST SWAP1 POP PUSH1 0x0 PUSH2 0xDC7 PUSH2 0xDC2 DUP8 PUSH2 0xDBC DUP6 DUP8 PUSH2 0x1556 JUMP JUMPDEST SWAP1 PUSH2 0x1D40 JUMP JUMPDEST PUSH2 0x1D59 JUMP JUMPDEST SWAP1 POP PUSH2 0xDD9 DUP2 PUSH3 0x1DCD65 PUSH1 0x49 SHL PUSH2 0x1D8C JUMP JUMPDEST SWAP1 POP PUSH2 0xDE4 DUP2 PUSH2 0x1DDF JUMP JUMPDEST SWAP1 POP PUSH1 0x0 PUSH2 0xDFF DUP3 PUSH2 0xDFA DUP5 PUSH1 0x1 PUSH1 0x40 SHL PUSH2 0x1E34 JUMP JUMPDEST PUSH2 0x1D8C JUMP JUMPDEST SWAP1 POP PUSH2 0xE11 DUP2 PUSH3 0x1DCD65 PUSH1 0x49 SHL PUSH2 0x1E67 JUMP JUMPDEST SWAP1 POP PUSH2 0xE1C DUP2 PUSH2 0x1E9D JUMP JUMPDEST PUSH1 0x7 SIGNEXTEND SWAP5 POP POP POP POP POP JUMPDEST SWAP5 SWAP4 POP POP POP POP JUMP JUMPDEST PUSH1 0x0 PUSH3 0x76A700 PUSH2 0xE3D TIMESTAMP PUSH2 0x74A JUMP JUMPDEST ADD SWAP1 POP PUSH2 0xE4B DUP5 DUP5 DUP4 PUSH2 0x1EA6 JUMP JUMPDEST PUSH2 0xE70 DUP3 PUSH1 0xC0 ADD MLOAD DUP5 DUP7 PUSH1 0x20 ADD MLOAD DUP6 PUSH1 0x80 ADD MLOAD PUSH2 0xE6B DUP10 PUSH1 0x40 ADD MLOAD PUSH2 0x1F0D JUMP JUMPDEST PUSH2 0x1F1B JUMP JUMPDEST POP POP POP POP POP JUMP JUMPDEST PUSH1 0x0 DUP1 DUP1 DUP1 DUP1 DUP1 DUP1 DUP1 JUMPDEST DUP10 MLOAD MLOAD DUP2 LT ISZERO PUSH2 0xF08 JUMPI PUSH1 0x0 DUP11 PUSH1 0x0 ADD MLOAD DUP3 DUP2 MLOAD DUP2 LT PUSH2 0xE9D JUMPI INVALID JUMPDEST PUSH1 0x20 MUL PUSH1 0x20 ADD ADD MLOAD SWAP1 POP PUSH1 0x3 DUP1 DUP2 GT ISZERO PUSH2 0xEB3 JUMPI INVALID JUMPDEST DUP2 PUSH1 0xA0 ADD MLOAD PUSH1 0x3 DUP2 GT ISZERO PUSH2 0xEC3 JUMPI INVALID JUMPDEST EQ ISZERO PUSH2 0xECE JUMPI PUSH1 0x0 DUP1 REVERT JUMPDEST PUSH1 0x2 DUP2 PUSH1 0xA0 ADD MLOAD PUSH1 0x3 DUP2 GT ISZERO PUSH2 0xEE0 JUMPI INVALID JUMPDEST EQ ISZERO DUP1 ISZERO PUSH2 0xEF0 JUMPI POP PUSH1 0x60 DUP2 ADD MLOAD ISZERO JUMPDEST ISZERO PUSH2 0xEFF JUMPI PUSH2 0xEFF DUP12 DUP4 PUSH2 0x2085 JUMP JUMPDEST POP PUSH1 0x1 ADD PUSH2 0xE81 JUMP JUMPDEST POP PUSH1 0x0 JUMPDEST DUP10 MLOAD MLOAD DUP2 LT ISZERO PUSH2 0xFAB JUMPI PUSH1 0x0 DUP11 PUSH1 0x0 ADD MLOAD DUP3 DUP2 MLOAD DUP2 LT PUSH2 0xF28 JUMPI INVALID JUMPDEST PUSH1 0x20 MUL PUSH1 0x20 ADD ADD MLOAD SWAP1 POP PUSH1 0x2 PUSH1 0x3 DUP2 GT ISZERO PUSH2 0xF3F JUMPI INVALID JUMPDEST DUP2 PUSH1 0xA0 ADD MLOAD PUSH1 0x3 DUP2 GT ISZERO PUSH2 0xF4F JUMPI INVALID JUMPDEST EQ ISZERO PUSH2 0xF63 JUMPI PUSH1 0x80 DUP2 ADD MLOAD PUSH1 0x0 SWAP1 SSTORE PUSH2 0xFA2 JUMP JUMPDEST PUSH1 0x1 DUP2 PUSH1 0xA0 ADD MLOAD PUSH1 0x3 DUP2 GT ISZERO PUSH2 0xF75 JUMPI INVALID JUMPDEST EQ ISZERO PUSH2 0xF8E JUMPI PUSH1 0x80 DUP2 ADD MLOAD DUP1 PUSH2 0xF8B DUP4 DUP3 PUSH2 0x21D5 JUMP JUMPDEST POP POP JUMPDEST PUSH2 0xF9A DUP2 DUP7 DUP7 DUP7 PUSH2 0x22FE JUMP JUMPDEST SWAP2 SWAP7 POP SWAP5 POP SWAP3 POP JUMPDEST POP PUSH1 0x1 ADD PUSH2 0xF0C JUMP JUMPDEST POP PUSH1 0x60 DUP10 ADD MLOAD PUSH1 0x0 PUSH2 0xFBB PUSH2 0x2361 JUMP JUMPDEST PUSH1 0x1 PUSH1 0x1 PUSH1 0xA0 SHL SUB DUP12 AND PUSH1 0x0 SWAP1 DUP2 MSTORE PUSH1 0x20 DUP3 SWAP1 MSTORE PUSH1 0x40 DUP2 KECCAK256 SWAP2 SWAP3 POP JUMPDEST DUP13 PUSH1 0x20 ADD MLOAD MLOAD DUP2 LT ISZERO PUSH2 0x1085 JUMPI PUSH1 0x0 DUP14 PUSH1 0x20 ADD MLOAD DUP3 DUP2 MLOAD DUP2 LT PUSH2 0xFF6 JUMPI INVALID JUMPDEST PUSH1 0x20 MUL PUSH1 0x20 ADD ADD MLOAD SWAP1 POP DUP1 PUSH1 0x60 ADD MLOAD PUSH1 0x0 EQ ISZERO PUSH2 0x1013 JUMPI POP PUSH2 0x107D JUMP JUMPDEST PUSH1 0x2 DUP2 PUSH1 0xA0 ADD MLOAD PUSH1 0x3 DUP2 GT ISZERO PUSH2 0x1025 JUMPI INVALID JUMPDEST EQ ISZERO DUP1 ISZERO PUSH2 0x1043 JUMPI POP PUSH1 0x3 DUP2 PUSH1 0xA0 ADD MLOAD PUSH1 0x3 DUP2 GT ISZERO PUSH2 0x1040 JUMPI INVALID JUMPDEST EQ ISZERO JUMPDEST PUSH2 0x104C JUMPI PUSH1 0x0 DUP1 REVERT JUMPDEST PUSH2 0x1058 DUP2 DUP10 DUP10 DUP10 PUSH2 0x22FE JUMP JUMPDEST SWAP2 SWAP10 POP SWAP8 POP SWAP6 POP PUSH2 0x1075 DUP2 DUP5 DUP8 PUSH1 0x10 DUP2 LT PUSH2 0x106F JUMPI INVALID JUMPDEST ADD PUSH2 0x21D5 JUMP JUMPDEST PUSH1 0x1 DUP6 ADD SWAP5 POP POP JUMPDEST PUSH1 0x1 ADD PUSH2 0xFD7 JUMP JUMPDEST POP PUSH1 0x10 DUP4 GT ISZERO DUP1 ISZERO PUSH2 0x109C JUMPI POP PUSH5 0xFFFFFFFFFF DUP5 GT ISZERO JUMPDEST PUSH2 0x10A5 JUMPI PUSH1 0x0 DUP1 REVERT JUMPDEST POP SWAP4 SWAP11 SWAP3 SWAP10 POP SWAP8 POP SWAP6 POP SWAP4 POP POP POP POP JUMP JUMPDEST PUSH4 0xFFFFFFFF DUP2 LT PUSH2 0x10C6 JUMPI PUSH1 0x0 DUP1 REVERT JUMPDEST PUSH1 0x0 PUSH2 0x10D0 PUSH2 0x236E JUMP JUMPDEST PUSH1 0x1 PUSH1 0x1 PUSH1 0xA0 SHL SUB SWAP1 SWAP5 AND PUSH1 0x0 SWAP1 DUP2 MSTORE PUSH1 0x20 SWAP5 SWAP1 SWAP5 MSTORE POP PUSH1 0x40 SWAP1 SWAP3 KECCAK256 DUP1 SLOAD PUSH1 0xFF SWAP1 SWAP3 AND PUSH1 0x1 PUSH1 0x50 SHL MUL PUSH1 0xFF PUSH1 0x50 SHL NOT PUSH4 0xFFFFFFFF SWAP1 SWAP5 AND PUSH1 0x1 PUSH1 0x30 SHL MUL PUSH10 0xFFFFFFFF000000000000 NOT SWAP1 SWAP4 AND SWAP3 SWAP1 SWAP3 OR SWAP3 SWAP1 SWAP3 AND OR SWAP1 SSTORE JUMP JUMPDEST PUSH2 0x1136 DUP2 PUSH2 0xFFFF AND PUSH2 0x237B JUMP JUMPDEST PUSH1 0x1 PUSH1 0x1 PUSH1 0xA0 SHL SUB AND PUSH1 0xC0 DUP4 ADD DUP2 SWAP1 MSTORE PUSH1 0x0 SWAP1 DUP2 SWAP1 DUP2 SWAP1 PUSH2 0x1156 SWAP1 PUSH2 0x23A1 JUMP JUMPDEST SWAP5 POP SWAP5 POP SWAP5 POP POP POP PUSH1 0x0 PUSH2 0x116D DUP7 PUSH1 0xC0 ADD MLOAD PUSH2 0x240A JUMP JUMPDEST POP POP PUSH1 0x80 DUP8 ADD DUP6 SWAP1 MSTORE PUSH1 0x40 DUP8 ADD DUP2 SWAP1 MSTORE PUSH1 0x1 PUSH1 0x1 PUSH1 0xD8 SHL SUB NOT DUP4 AND PUSH1 0xA0 DUP9 ADD MSTORE PUSH1 0xC0 DUP8 ADD MLOAD SWAP1 SWAP2 POP PUSH2 0x11A1 SWAP1 DUP5 PUSH1 0x0 PUSH2 0x246B JUMP JUMPDEST PUSH1 0x20 DUP8 ADD MSTORE PUSH1 0xC0 DUP7 ADD MLOAD PUSH2 0x11B9 SWAP1 PUSH2 0xFFFF DUP8 AND PUSH2 0x24FE JUMP JUMPDEST POP POP POP PUSH1 0x60 SWAP1 SWAP7 ADD SWAP6 SWAP1 SWAP6 MSTORE POP POP POP POP POP JUMP JUMPDEST PUSH2 0x11D4 PUSH2 0x4E91 JUMP JUMPDEST PUSH1 0x0 PUSH2 0x11E3 DUP4 PUSH2 0xFFFF AND PUSH2 0x25A7 JUMP JUMPDEST SWAP1 POP PUSH2 0x929 DUP4 DUP3 PUSH2 0x25F3 JUMP JUMPDEST PUSH1 0x0 DUP1 PUSH2 0x11FA PUSH2 0x2636 JUMP JUMPDEST PUSH1 0x1 PUSH1 0x1 PUSH1 0xA0 SHL SUB DUP6 AND PUSH1 0x0 SWAP1 DUP2 MSTORE PUSH1 0x20 SWAP2 DUP3 MSTORE PUSH1 0x40 DUP1 DUP3 KECCAK256 DUP7 DUP4 MSTORE SWAP1 SWAP3 MSTORE KECCAK256 SLOAD SWAP2 POP POP SWAP3 SWAP2 POP POP JUMP JUMPDEST PUSH1 0x0 DUP2 PUSH2 0x1233 JUMPI POP PUSH1 0x0 PUSH2 0x768 JUMP JUMPDEST PUSH2 0x123C DUP3 PUSH2 0x2643 JUMP JUMPDEST PUSH1 0xFF SUB PUSH1 0x1 ADD SWAP1 POP SWAP2 SWAP1 POP JUMP JUMPDEST PUSH1 0x0 DUP2 PUSH2 0x1255 JUMPI PUSH1 0x0 DUP1 REVERT JUMPDEST PUSH2 0x100 DUP3 GT ISZERO PUSH2 0x1264 JUMPI PUSH1 0x0 DUP1 REVERT JUMPDEST PUSH1 0x0 PUSH2 0x126F DUP5 PUSH2 0x16C8 JUMP JUMPDEST SWAP1 POP PUSH1 0x0 PUSH1 0x5A DUP5 GT PUSH2 0x128A JUMPI POP PUSH3 0x15180 DUP4 MUL ADD SWAP1 POP PUSH2 0x7CA JUMP JUMPDEST PUSH1 0x87 DUP5 GT PUSH2 0x12B2 JUMPI POP PUSH1 0x59 NOT DUP4 ADD PUSH3 0x7E900 SWAP1 DUP2 MUL SWAP1 DUP3 MOD SWAP1 SWAP2 SUB ADD PUSH3 0x76A700 ADD SWAP1 POP PUSH2 0x7CA JUMP JUMPDEST PUSH1 0xC3 DUP5 GT PUSH2 0x12DB JUMPI POP PUSH1 0x86 NOT DUP4 ADD PUSH3 0x278D00 SWAP1 DUP2 MUL SWAP1 DUP3 MOD SWAP1 SWAP2 SUB ADD PUSH4 0x1DA9C00 ADD SWAP1 POP PUSH2 0x7CA JUMP JUMPDEST POP PUSH1 0xC2 NOT DUP4 ADD PUSH3 0x76A700 SWAP1 DUP2 MUL SWAP1 DUP3 MOD SWAP1 SWAP2 SUB ADD PUSH4 0xB1FA800 ADD SWAP1 POP PUSH2 0x7CA JUMP JUMPDEST PUSH1 0x0 DUP1 DUP5 GT PUSH2 0x131D JUMPI PUSH1 0x40 MLOAD PUSH3 0x461BCD PUSH1 0xE5 SHL DUP2 MSTORE PUSH1 0x4 ADD PUSH2 0xE6 SWAP1 PUSH2 0x50C7 JUMP JUMPDEST PUSH1 0x7 DUP5 GT ISZERO PUSH2 0x133E JUMPI PUSH1 0x40 MLOAD PUSH3 0x461BCD PUSH1 0xE5 SHL DUP2 MSTORE PUSH1 0x4 ADD PUSH2 0xE6 SWAP1 PUSH2 0x51D4 JUMP JUMPDEST PUSH3 0x76A700 DUP4 MOD ISZERO PUSH2 0x1351 JUMPI POP PUSH1 0x0 PUSH2 0x929 JUMP JUMPDEST PUSH1 0x0 PUSH2 0x135C DUP4 PUSH2 0x74A JUMP JUMPDEST SWAP1 POP PUSH1 0x1 JUMPDEST DUP6 DUP2 GT PUSH2 0x1395 JUMPI PUSH2 0x137B PUSH2 0x1374 DUP3 PUSH2 0xA3D JUMP JUMPDEST DUP4 SWAP1 PUSH2 0x76D JUMP JUMPDEST DUP6 EQ ISZERO PUSH2 0x138D JUMPI PUSH1 0x1 SWAP3 POP POP POP PUSH2 0x929 JUMP JUMPDEST PUSH1 0x1 ADD PUSH2 0x1361 JUMP JUMPDEST POP PUSH1 0x0 SWAP6 SWAP5 POP POP POP POP POP JUMP JUMPDEST PUSH1 0x0 PUSH1 0x1 DUP4 LT ISZERO DUP1 ISZERO PUSH2 0x13B6 JUMPI POP PUSH2 0x100 DUP4 GT ISZERO JUMPDEST PUSH2 0x13BF JUMPI PUSH1 0x0 DUP1 REVERT JUMPDEST DUP2 ISZERO PUSH2 0x13D8 JUMPI POP PUSH1 0x1 PUSH1 0xFF SHL PUSH1 0x0 NOT DUP4 ADD SHR DUP4 OR PUSH2 0x929 JUMP JUMPDEST POP PUSH1 0x1 PUSH1 0xFF SHL PUSH1 0x0 NOT DUP4 ADD SHR NOT DUP4 AND PUSH2 0x929 JUMP JUMPDEST PUSH1 0x0 DUP1 PUSH2 0x13F7 PUSH2 0x26DC JUMP JUMPDEST PUSH1 0x1 PUSH1 0x1 PUSH1 0xA0 SHL SUB DUP7 AND PUSH1 0x0 SWAP1 DUP2 MSTORE PUSH1 0x20 SWAP2 DUP3 MSTORE PUSH1 0x40 DUP1 DUP3 KECCAK256 DUP8 DUP4 MSTORE DUP4 MSTORE DUP1 DUP3 KECCAK256 DUP7 DUP4 MSTORE SWAP1 SWAP3 MSTORE KECCAK256 SLOAD PUSH1 0xF SWAP1 DUP2 SIGNEXTEND SWAP1 SIGNEXTEND SWAP2 POP POP SWAP4 SWAP3 POP POP POP JUMP JUMPDEST PUSH1 0x0 DUP1 PUSH1 0x0 PUSH2 0x1445 DUP7 PUSH1 0x20 ADD MLOAD DUP7 DUP7 PUSH2 0x26E9 JUMP JUMPDEST SWAP2 POP SWAP2 POP PUSH1 0x0 PUSH2 0x1454 DUP8 PUSH2 0x27B1 JUMP JUMPDEST SWAP1 POP DUP2 PUSH2 0x146D JUMPI DUP7 MLOAD PUSH2 0xD4D SWAP1 PUSH2 0xFFFF AND DUP8 DUP4 DUP9 PUSH2 0x27C5 JUMP JUMPDEST PUSH1 0x0 PUSH2 0x1478 DUP7 PUSH2 0x74A JUMP JUMPDEST SWAP1 POP PUSH1 0x0 PUSH2 0x1488 PUSH2 0x1374 DUP7 PUSH2 0xA3D JUMP JUMPDEST SWAP1 POP PUSH1 0x0 PUSH2 0x14A0 DUP11 PUSH1 0x0 ADD MLOAD PUSH2 0xFFFF AND DUP4 DUP7 DUP12 PUSH2 0x27C5 JUMP JUMPDEST SWAP1 POP PUSH1 0x0 DUP1 DUP8 PUSH1 0x1 EQ ISZERO PUSH2 0x14C5 JUMPI DUP10 SWAP2 POP PUSH2 0x14BE DUP13 PUSH1 0x40 ADD MLOAD PUSH2 0x2864 JUMP JUMPDEST SWAP1 POP PUSH2 0x14F4 JUMP JUMPDEST PUSH2 0x14DB PUSH2 0x14D4 PUSH1 0x1 DUP11 SUB PUSH2 0xA3D JUMP JUMPDEST DUP7 SWAP1 PUSH2 0x76D JUMP JUMPDEST SWAP2 POP PUSH2 0x14F1 DUP13 PUSH1 0x0 ADD MLOAD PUSH2 0xFFFF AND DUP4 DUP9 DUP14 PUSH2 0x27C5 JUMP JUMPDEST SWAP1 POP JUMPDEST PUSH2 0x1501 DUP3 DUP6 DUP4 DUP7 DUP16 PUSH2 0x1C22 JUMP JUMPDEST SWAP9 POP POP POP POP POP POP POP POP POP PUSH2 0x929 JUMP JUMPDEST PUSH1 0x0 DUP5 PUSH2 0x151F JUMPI POP PUSH1 0x0 PUSH2 0xE26 JUMP JUMPDEST PUSH1 0x0 PUSH2 0x152B DUP6 DUP6 PUSH2 0xB46 JUMP JUMPDEST SWAP1 POP PUSH1 0x0 PUSH2 0x1539 DUP3 DUP6 PUSH2 0x28F5 JUMP JUMPDEST SWAP1 POP PUSH4 0x3B9ACA00 DUP2 SGT ISZERO PUSH2 0x154C JUMPI PUSH1 0x0 DUP1 REVERT JUMPDEST PUSH2 0xB3B DUP8 DUP3 PUSH2 0x1D40 JUMP JUMPDEST DUP1 DUP3 SUB DUP3 DUP2 SGT ISZERO PUSH1 0x0 DUP4 SLT ISZERO EQ PUSH2 0x7CA JUMPI PUSH1 0x0 DUP1 REVERT JUMPDEST PUSH1 0x0 DUP1 PUSH2 0xE26 DUP5 PUSH1 0x20 ADD MLOAD PUSH2 0xAF6 DUP7 PUSH1 0x40 ADD MLOAD PUSH2 0x1597 PUSH5 0x2540BE400 DUP9 PUSH2 0x1939 SWAP1 SWAP2 SWAP1 PUSH4 0xFFFFFFFF AND JUMP JUMPDEST SWAP1 PUSH2 0x1939 JUMP JUMPDEST PUSH1 0x0 PUSH2 0x15A7 PUSH2 0x295D JUMP JUMPDEST PUSH1 0x1 PUSH1 0x1 PUSH1 0xA0 SHL SUB DUP9 AND PUSH1 0x0 SWAP1 DUP2 MSTORE PUSH1 0x20 DUP3 DUP2 MSTORE PUSH1 0x40 DUP1 DUP4 KECCAK256 DUP11 DUP5 MSTORE SWAP1 SWAP2 MSTORE SWAP1 KECCAK256 SWAP1 SWAP2 POP PUSH1 0x1 PUSH1 0x1 PUSH1 0x57 SHL SUB NOT DUP7 SLT DUP1 ISZERO SWAP1 PUSH2 0x15EA JUMPI POP PUSH1 0x1 PUSH1 0x1 PUSH1 0x57 SHL SUB DUP7 SGT ISZERO JUMPDEST PUSH2 0x15F3 JUMPI PUSH1 0x0 DUP1 REVERT JUMPDEST PUSH1 0x0 DUP6 SLT ISZERO DUP1 ISZERO PUSH2 0x160B JUMPI POP PUSH1 0x1 PUSH1 0x1 PUSH1 0x50 SHL SUB DUP6 SGT ISZERO JUMPDEST PUSH2 0x1614 JUMPI PUSH1 0x0 DUP1 REVERT JUMPDEST DUP4 ISZERO PUSH2 0x161F JUMPI PUSH1 0x0 DUP1 REVERT JUMPDEST PUSH7 0xFFFFFFFFFFFFFF DUP4 GT ISZERO PUSH2 0x1633 JUMPI PUSH1 0x0 DUP1 REVERT JUMPDEST DUP1 SLOAD PUSH7 0xFFFFFFFFFFFFFF SWAP1 SWAP4 AND PUSH1 0x1 PUSH1 0x70 SHL MUL PUSH7 0xFFFFFFFFFFFFFF PUSH1 0x70 SHL NOT PUSH1 0xA SWAP8 SWAP1 SWAP8 SIGNEXTEND PUSH11 0xFFFFFFFFFFFFFFFFFFFFFF AND PUSH1 0x1 PUSH1 0xA8 SHL MUL PUSH1 0x1 PUSH1 0x1 PUSH1 0xA8 SHL SUB PUSH4 0xFFFFFFFF SWAP1 SWAP7 AND PUSH1 0x1 PUSH1 0x50 SHL MUL PUSH4 0xFFFFFFFF PUSH1 0x50 SHL NOT PUSH1 0x1 PUSH1 0x1 PUSH1 0x50 SHL SUB SWAP1 SWAP9 AND PUSH10 0xFFFFFFFFFFFFFFFFFFFF NOT SWAP1 SWAP7 AND SWAP6 SWAP1 SWAP6 OR SWAP7 SWAP1 SWAP7 AND SWAP4 SWAP1 SWAP4 OR SWAP4 SWAP1 SWAP4 AND SWAP4 SWAP1 SWAP4 OR SWAP4 SWAP1 SWAP4 AND SWAP3 SWAP1 SWAP3 OR SWAP1 SWAP2 SSTORE POP POP POP JUMP JUMPDEST PUSH1 0x0 PUSH3 0x15180 DUP3 LT ISZERO PUSH2 0x16DA JUMPI PUSH1 0x0 DUP1 REVERT JUMPDEST PUSH3 0x15180 DUP3 PUSH2 0x762 JUMP JUMPDEST PUSH1 0x0 PUSH2 0x16EF DUP3 PUSH2 0x74A JUMP JUMPDEST SWAP1 POP DUP1 DUP4 PUSH1 0x80 ADD MLOAD LT PUSH2 0x1714 JUMPI PUSH1 0x40 MLOAD PUSH3 0x461BCD PUSH1 0xE5 SHL DUP2 MSTORE PUSH1 0x4 ADD PUSH2 0xE6 SWAP1 PUSH2 0x525F JUMP JUMPDEST PUSH1 0x0 PUSH2 0x1724 DUP5 PUSH1 0x20 ADD MLOAD DUP5 PUSH2 0x296A JUMP JUMPDEST SWAP1 POP PUSH2 0x1755 DUP2 PUSH1 0x0 DUP2 MLOAD DUP2 LT PUSH2 0x1736 JUMPI INVALID JUMPDEST PUSH1 0x20 MUL PUSH1 0x20 ADD ADD MLOAD PUSH1 0x20 ADD MLOAD DUP6 PUSH1 0x60 ADD MLOAD PUSH2 0x2B68 SWAP1 SWAP2 SWAP1 PUSH4 0xFFFFFFFF AND JUMP JUMPDEST PUSH1 0x60 DUP6 ADD MSTORE POP PUSH1 0xC0 DUP4 ADD MLOAD DUP4 MLOAD MLOAD PUSH1 0x80 DUP6 ADD MLOAD PUSH1 0x0 SWAP3 DUP4 SWAP3 PUSH2 0x177E SWAP3 PUSH2 0xFFFF SWAP1 SWAP2 AND SWAP1 DUP8 PUSH2 0x2B7E JUMP JUMPDEST PUSH1 0x60 DUP8 ADD MLOAD SWAP2 SWAP4 POP SWAP2 POP PUSH2 0x1792 SWAP1 DUP4 PUSH2 0x2B68 JUMP JUMPDEST PUSH1 0x60 DUP7 ADD MSTORE PUSH5 0xFFFFFFFFFF DUP2 GT ISZERO PUSH2 0x17A9 JUMPI PUSH1 0x0 DUP1 REVERT JUMPDEST PUSH5 0xFFFFFFFFFF AND PUSH1 0x80 SWAP1 SWAP5 ADD SWAP4 SWAP1 SWAP4 MSTORE POP POP POP JUMP JUMPDEST PUSH1 0x0 PUSH2 0x17CD DUP4 PUSH1 0x0 ADD MLOAD PUSH2 0x27B1 JUMP JUMPDEST SWAP1 POP PUSH1 0x0 PUSH2 0x17DA DUP6 PUSH2 0x74A JUMP JUMPDEST SWAP1 POP PUSH1 0x1 JUMPDEST PUSH1 0x20 DUP6 ADD MLOAD MLOAD MLOAD DUP2 LT ISZERO PUSH2 0x1845 JUMPI PUSH2 0x183D DUP8 DUP7 PUSH1 0x20 ADD MLOAD PUSH1 0x0 ADD MLOAD DUP4 DUP2 MLOAD DUP2 LT PUSH2 0x1805 JUMPI INVALID JUMPDEST PUSH1 0x20 MUL PUSH1 0x20 ADD ADD MLOAD PUSH1 0x20 ADD MLOAD DUP9 PUSH1 0x0 DUP8 DUP8 DUP11 DUP9 DUP2 MLOAD DUP2 LT PUSH2 0x1822 JUMPI INVALID JUMPDEST PUSH1 0x20 MUL PUSH1 0x20 ADD ADD MLOAD PUSH2 0x2CA3 SWAP1 SWAP7 SWAP6 SWAP5 SWAP4 SWAP3 SWAP2 SWAP1 PUSH4 0xFFFFFFFF AND JUMP JUMPDEST PUSH1 0x1 ADD PUSH2 0x17DF JUMP JUMPDEST POP POP POP POP POP POP POP JUMP JUMPDEST PUSH1 0x0 PUSH1 0x1 JUMPDEST PUSH1 0x20 DUP7 ADD MLOAD MLOAD MLOAD DUP2 LT ISZERO PUSH2 0x18CB JUMPI PUSH1 0x0 DUP7 PUSH1 0x20 ADD MLOAD PUSH1 0x0 ADD MLOAD DUP3 DUP2 MLOAD DUP2 LT PUSH2 0x1877 JUMPI INVALID JUMPDEST PUSH1 0x20 MUL PUSH1 0x20 ADD ADD MLOAD SWAP1 POP PUSH1 0x1 PUSH1 0xFF AND DUP2 PUSH1 0x40 ADD MLOAD EQ PUSH2 0x1895 JUMPI PUSH1 0x0 DUP1 REVERT JUMPDEST PUSH2 0x18B2 DUP8 PUSH1 0xC0 ADD MLOAD DUP7 DUP4 PUSH1 0x20 ADD MLOAD DUP11 PUSH1 0x80 ADD MLOAD DUP6 PUSH1 0x60 ADD MLOAD PUSH2 0x1F1B JUMP JUMPDEST POP PUSH1 0x20 DUP8 ADD MLOAD PUSH2 0x18C2 SWAP1 DUP4 PUSH2 0x2085 JUMP JUMPDEST POP PUSH1 0x1 ADD PUSH2 0x1853 JUMP JUMPDEST POP PUSH2 0x9F8 DUP6 DUP6 DUP5 PUSH2 0x7D0 JUMP JUMPDEST PUSH1 0x60 DUP1 PUSH1 0x0 PUSH2 0x18E4 PUSH2 0x2CDA JUMP JUMPDEST PUSH1 0x0 DUP7 DUP2 MSTORE PUSH1 0x20 DUP3 SWAP1 MSTORE PUSH1 0x40 DUP2 KECCAK256 SWAP2 SWAP3 POP PUSH2 0x1902 SWAP1 DUP3 SWAP1 DUP8 SWAP1 PUSH2 0x2CE7 JUMP JUMPDEST SWAP1 SWAP8 SWAP1 SWAP7 POP SWAP5 POP POP POP POP POP JUMP JUMPDEST PUSH1 0x60 DUP1 PUSH1 0x0 PUSH2 0x191C PUSH2 0x2E86 JUMP JUMPDEST PUSH1 0x0 DUP7 DUP2 MSTORE PUSH1 0x20 DUP3 SWAP1 MSTORE PUSH1 0x40 SWAP1 KECCAK256 SWAP1 SWAP2 POP PUSH2 0x1902 DUP2 DUP7 PUSH1 0x1 PUSH2 0x2CE7 JUMP JUMPDEST DUP2 DUP2 MUL PUSH1 0x0 NOT DUP4 EQ ISZERO PUSH2 0x1969 JUMPI DUP2 ISZERO DUP1 PUSH2 0x195B JUMPI POP DUP3 DUP3 DUP3 DUP2 PUSH2 0x1958 JUMPI INVALID JUMPDEST SDIV EQ JUMPDEST PUSH2 0x1964 JUMPI PUSH1 0x0 DUP1 REVERT JUMPDEST PUSH2 0x7CA JUMP JUMPDEST DUP3 ISZERO DUP1 PUSH2 0x197E JUMPI POP DUP2 DUP4 DUP3 DUP2 PUSH2 0x197B JUMPI INVALID JUMPDEST SDIV EQ JUMPDEST PUSH2 0x7CA JUMPI PUSH1 0x0 DUP1 REVERT JUMPDEST PUSH1 0x0 DUP2 PUSH1 0x0 NOT EQ DUP1 ISZERO PUSH2 0x199D JUMPI POP PUSH1 0x1 PUSH1 0xFF SHL DUP4 EQ JUMPDEST ISZERO PUSH2 0x19A7 JUMPI PUSH1 0x0 DUP1 REVERT JUMPDEST DUP2 DUP4 DUP2 PUSH2 0x19B0 JUMPI INVALID JUMPDEST SDIV SWAP4 SWAP3 POP POP POP JUMP JUMPDEST DUP5 MLOAD PUSH2 0x19C7 SWAP1 DUP6 DUP6 DUP6 DUP6 PUSH2 0x2E93 JUMP JUMPDEST ISZERO PUSH2 0x19D1 JUMPI PUSH2 0xE70 JUMP JUMPDEST PUSH1 0x40 DUP6 ADD MLOAD ISZERO PUSH2 0x19FE JUMPI PUSH1 0x0 PUSH2 0x19EE DUP7 PUSH1 0x20 ADD MLOAD DUP7 DUP7 DUP7 DUP7 PUSH2 0x2E93 JUMP JUMPDEST SWAP1 POP DUP1 ISZERO PUSH2 0x19FC JUMPI POP PUSH2 0xE70 JUMP JUMPDEST POP JUMPDEST PUSH2 0x1A07 DUP3 PUSH2 0x2FA4 JUMP JUMPDEST ISZERO PUSH2 0x1A1A JUMPI PUSH1 0x0 DUP2 SLT ISZERO PUSH2 0x1A1A JUMPI PUSH1 0x0 DUP1 REVERT JUMPDEST PUSH1 0x1 PUSH1 0x1 PUSH1 0x57 SHL SUB NOT DUP2 SLT DUP1 ISZERO SWAP1 PUSH2 0x1A39 JUMPI POP PUSH1 0x1 PUSH1 0x1 PUSH1 0x57 SHL SUB DUP2 SGT ISZERO JUMPDEST PUSH2 0x1A42 JUMPI PUSH1 0x0 DUP1 REVERT JUMPDEST DUP5 PUSH1 0x20 ADD MLOAD MLOAD DUP6 PUSH1 0x40 ADD MLOAD EQ ISZERO PUSH2 0x1A66 JUMPI PUSH2 0x1A60 DUP6 PUSH1 0x20 ADD MLOAD PUSH2 0x2FBA JUMP JUMPDEST PUSH1 0x20 DUP7 ADD MSTORE JUMPDEST PUSH1 0x0 DUP6 PUSH1 0x20 ADD MLOAD DUP7 PUSH1 0x40 ADD MLOAD DUP2 MLOAD DUP2 LT PUSH2 0x1A7C JUMPI INVALID JUMPDEST PUSH1 0x20 SWAP1 DUP2 MUL SWAP2 SWAP1 SWAP2 ADD DUP2 ADD MLOAD SWAP6 DUP7 MSTORE DUP6 ADD SWAP4 SWAP1 SWAP4 MSTORE PUSH1 0x40 DUP1 DUP6 ADD SWAP3 SWAP1 SWAP3 MSTORE PUSH1 0x60 DUP5 ADD MSTORE PUSH1 0x0 PUSH1 0xA0 SWAP1 SWAP4 ADD SWAP3 SWAP1 SWAP3 MSTORE POP ADD DUP1 MLOAD PUSH1 0x1 ADD SWAP1 MSTORE JUMP JUMPDEST PUSH1 0x0 DUP1 PUSH2 0xE26 DUP5 PUSH1 0x40 ADD MLOAD PUSH2 0xAF6 PUSH5 0x2540BE400 PUSH2 0xAF6 DUP8 DUP10 PUSH1 0x20 ADD MLOAD PUSH2 0x1939 SWAP1 SWAP2 SWAP1 PUSH4 0xFFFFFFFF AND JUMP JUMPDEST PUSH1 0x0 PUSH1 0x1 PUSH1 0x1 PUSH1 0xFF SHL SUB DUP3 GT ISZERO PUSH2 0x1AF6 JUMPI PUSH1 0x0 DUP1 REVERT JUMPDEST POP SWAP1 JUMP JUMPDEST PUSH1 0x0 DUP1 PUSH2 0x1B17 PUSH2 0x1B12 PUSH4 0x1DA9C00 PUSH2 0xD47 DUP8 DUP8 PUSH2 0x1C80 JUMP JUMPDEST PUSH2 0x3073 JUMP JUMPDEST SWAP1 POP PUSH1 0x0 PUSH2 0x1B2B DUP3 PUSH3 0x1DCD65 PUSH1 0x49 SHL PUSH2 0x1D8C JUMP JUMPDEST SWAP1 POP PUSH1 0x0 PUSH2 0x1B38 DUP3 PUSH2 0x1DDF JUMP JUMPDEST SWAP1 POP PUSH1 0x0 PUSH2 0x1B4C DUP3 PUSH3 0x1DCD65 PUSH1 0x49 SHL PUSH2 0x1E67 JUMP JUMPDEST SWAP1 POP PUSH2 0x1B57 DUP2 PUSH2 0x1E9D JUMP JUMPDEST PUSH1 0x7 SIGNEXTEND SWAP8 SWAP7 POP POP POP POP POP POP POP JUMP JUMPDEST PUSH1 0x0 DUP1 PUSH1 0x0 PUSH2 0x1B78 DUP9 DUP9 DUP9 DUP9 PUSH1 0x0 PUSH2 0x308A JUMP JUMPDEST SWAP2 POP SWAP2 POP DUP1 PUSH2 0x1B8C JUMPI PUSH1 0x0 SWAP3 POP POP POP PUSH2 0x9F8 JUMP JUMPDEST PUSH1 0x0 PUSH2 0x1B97 DUP4 PUSH2 0x1D59 JUMP JUMPDEST SWAP1 POP PUSH1 0x0 PUSH2 0x1BAB DUP3 PUSH3 0x1DCD65 PUSH1 0x49 SHL PUSH2 0x1D8C JUMP JUMPDEST SWAP1 POP PUSH1 0x0 PUSH2 0x1BB8 DUP3 PUSH2 0x3140 JUMP JUMPDEST SWAP1 POP PUSH1 0x0 PUSH2 0x1BD4 PUSH2 0x1BCF DUP4 PUSH3 0x1DCD65 PUSH1 0x49 SHL PUSH2 0x1E67 JUMP JUMPDEST PUSH2 0x317A JUMP JUMPDEST PUSH8 0xFFFFFFFFFFFFFFFF AND SWAP1 POP PUSH1 0x0 PUSH2 0x1BF4 DUP10 PUSH2 0xD47 DUP5 PUSH4 0x1DA9C00 PUSH2 0x1C80 JUMP JUMPDEST SWAP1 POP PUSH4 0xFFFFFFFF DUP2 GT ISZERO PUSH2 0x1C12 JUMPI PUSH1 0x0 SWAP8 POP POP POP POP POP POP POP POP PUSH2 0x9F8 JUMP JUMPDEST SWAP13 SWAP12 POP POP POP POP POP POP POP POP POP POP POP POP JUMP JUMPDEST PUSH1 0x0 DUP2 DUP7 LT PUSH2 0x1C30 JUMPI PUSH1 0x0 DUP1 REVERT JUMPDEST DUP5 DUP3 LT PUSH2 0x1C3C JUMPI PUSH1 0x0 DUP1 REVERT JUMPDEST DUP4 DUP4 LT PUSH2 0x1C62 JUMPI PUSH2 0x1C5B DUP5 PUSH2 0x3D1 DUP9 DUP9 SUB PUSH2 0xD47 DUP4 DUP9 SUB DUP12 DUP9 SUB PUSH2 0x1C80 JUMP JUMPDEST SWAP1 POP PUSH2 0x9F8 JUMP JUMPDEST PUSH2 0x1C5B PUSH2 0x1C79 DUP8 DUP8 SUB PUSH2 0xD47 DUP7 DUP9 SUB DUP11 DUP8 SUB PUSH2 0x1C80 JUMP JUMPDEST DUP6 SWAP1 PUSH2 0xB46 JUMP JUMPDEST PUSH1 0x0 DUP3 PUSH2 0x1C8F JUMPI POP PUSH1 0x0 PUSH2 0x7CA JUMP JUMPDEST DUP3 DUP3 MUL DUP3 DUP5 DUP3 DUP2 PUSH2 0x1C9C JUMPI INVALID JUMPDEST DIV EQ PUSH2 0x7C7 JUMPI PUSH1 0x40 MLOAD PUSH3 0x461BCD PUSH1 0xE5 SHL DUP2 MSTORE PUSH1 0x4 ADD DUP1 DUP1 PUSH1 0x20 ADD DUP3 DUP2 SUB DUP3 MSTORE PUSH1 0x21 DUP2 MSTORE PUSH1 0x20 ADD DUP1 PUSH2 0x5382 PUSH1 0x21 SWAP2 CODECOPY PUSH1 0x40 ADD SWAP2 POP POP PUSH1 0x40 MLOAD DUP1 SWAP2 SUB SWAP1 REVERT JUMPDEST PUSH1 0x0 DUP1 DUP3 GT PUSH2 0x1D2F JUMPI PUSH1 0x40 DUP1 MLOAD PUSH3 0x461BCD PUSH1 0xE5 SHL DUP2 MSTORE PUSH1 0x20 PUSH1 0x4 DUP3 ADD MSTORE PUSH1 0x1A PUSH1 0x24 DUP3 ADD MSTORE PUSH32 0x536166654D6174683A206469766973696F6E206279207A65726F000000000000 PUSH1 0x44 DUP3 ADD MSTORE SWAP1 MLOAD SWAP1 DUP2 SWAP1 SUB PUSH1 0x64 ADD SWAP1 REVERT JUMPDEST DUP2 DUP4 DUP2 PUSH2 0x1D38 JUMPI INVALID JUMPDEST DIV SWAP4 SWAP3 POP POP POP JUMP JUMPDEST PUSH1 0x0 PUSH2 0x7C7 PUSH2 0x1D4F DUP5 DUP5 PUSH2 0x1939 JUMP JUMPDEST PUSH4 0x3B9ACA00 PUSH2 0x1987 JUMP JUMPDEST PUSH1 0x0 PUSH8 0x7FFFFFFFFFFFFFFF NOT DUP3 SLT ISZERO DUP1 ISZERO PUSH2 0x1D7C JUMPI POP PUSH8 0x7FFFFFFFFFFFFFFF DUP3 SGT ISZERO JUMPDEST PUSH2 0x1D85 JUMPI PUSH1 0x0 DUP1 REVERT JUMPDEST POP PUSH1 0x40 SHL SWAP1 JUMP JUMPDEST PUSH1 0x0 DUP2 PUSH1 0xF SIGNEXTEND PUSH1 0x0 EQ ISZERO PUSH2 0x1D9F JUMPI PUSH1 0x0 DUP1 REVERT JUMPDEST PUSH1 0x0 DUP3 PUSH1 0xF SIGNEXTEND PUSH1 0x40 DUP6 PUSH1 0xF SIGNEXTEND SWAP1 SHL DUP2 PUSH2 0x1DB4 JUMPI INVALID JUMPDEST SDIV SWAP1 POP PUSH1 0x1 PUSH1 0x1 PUSH1 0x7F SHL SUB NOT DUP2 SLT DUP1 ISZERO SWAP1 PUSH2 0x1DD6 JUMPI POP PUSH1 0x1 PUSH1 0x1 PUSH1 0x7F SHL SUB DUP2 SGT ISZERO JUMPDEST PUSH2 0x7C7 JUMPI PUSH1 0x0 DUP1 REVERT JUMPDEST PUSH1 0x0 PUSH1 0x1 PUSH1 0x46 SHL DUP3 PUSH1 0xF SIGNEXTEND SLT PUSH2 0x1DF4 JUMPI PUSH1 0x0 DUP1 REVERT JUMPDEST PUSH9 0x3FFFFFFFFFFFFFFFFF NOT DUP3 PUSH1 0xF SIGNEXTEND SLT ISZERO PUSH2 0x1E11 JUMPI POP PUSH1 0x0 PUSH2 0x768 JUMP JUMPDEST PUSH2 0x7CA PUSH1 0x80 DUP4 PUSH1 0xF SIGNEXTEND PUSH17 0x171547652B82FE1777D0FFDA0D23A7D12 MUL SWAP1 SAR PUSH2 0x3196 JUMP JUMPDEST PUSH1 0x0 PUSH1 0xF DUP4 DUP2 SIGNEXTEND SWAP1 DUP4 SWAP1 SIGNEXTEND ADD PUSH1 0x1 PUSH1 0x1 PUSH1 0x7F SHL SUB NOT DUP2 SLT DUP1 ISZERO SWAP1 PUSH2 0x1DD6 JUMPI POP PUSH1 0x1 PUSH1 0x1 PUSH1 0x7F SHL SUB DUP2 SGT ISZERO PUSH2 0x7C7 JUMPI PUSH1 0x0 DUP1 REVERT JUMPDEST PUSH1 0x0 PUSH1 0xF DUP4 DUP2 SIGNEXTEND SWAP1 DUP4 SWAP1 SIGNEXTEND MUL PUSH1 0x40 SAR PUSH1 0x1 PUSH1 0x1 PUSH1 0x7F SHL SUB NOT DUP2 SLT DUP1 ISZERO SWAP1 PUSH2 0x1DD6 JUMPI POP PUSH1 0x1 PUSH1 0x1 PUSH1 0x7F SHL SUB DUP2 SGT ISZERO PUSH2 0x7C7 JUMPI PUSH1 0x0 DUP1 REVERT JUMPDEST PUSH1 0xF SIGNEXTEND PUSH1 0x40 SAR SWAP1 JUMP JUMPDEST PUSH1 0x0 PUSH2 0x1EB0 PUSH2 0x3C44 JUMP JUMPDEST PUSH1 0x0 DUP5 DUP2 MSTORE PUSH1 0x20 DUP3 DUP2 MSTORE PUSH1 0x40 DUP1 DUP4 KECCAK256 DUP9 DUP4 ADD MLOAD DUP5 MSTORE DUP3 MSTORE DUP1 DUP4 KECCAK256 DUP7 DUP5 MSTORE SWAP1 SWAP2 MSTORE SWAP1 DUP2 SWAP1 KECCAK256 SWAP1 DUP7 ADD MLOAD PUSH1 0x60 DUP8 ADD MLOAD PUSH1 0xA0 DUP9 ADD MLOAD PUSH1 0xC0 DUP10 ADD MLOAD PUSH1 0xE0 DUP11 ADD MLOAD SWAP6 SWAP7 POP SWAP4 SWAP5 PUSH2 0x1EFF SWAP5 DUP7 SWAP5 SWAP4 SWAP3 SWAP2 PUSH2 0x3C51 JUMP JUMPDEST PUSH2 0xE70 DUP2 DUP7 PUSH1 0x80 ADD MLOAD PUSH2 0x3D65 JUMP JUMPDEST PUSH1 0x0 PUSH2 0x7CA PUSH1 0x0 NOT DUP4 PUSH2 0x1939 JUMP JUMPDEST PUSH1 0x0 DUP1 PUSH2 0x1F28 DUP8 DUP8 PUSH2 0x11EF JUMP JUMPDEST SWAP1 POP PUSH1 0x0 PUSH2 0x1F34 PUSH2 0x26DC JUMP JUMPDEST PUSH1 0x1 PUSH1 0x1 PUSH1 0xA0 SHL SUB DUP10 AND PUSH1 0x0 SWAP1 DUP2 MSTORE PUSH1 0x20 DUP3 DUP2 MSTORE PUSH1 0x40 DUP1 DUP4 KECCAK256 DUP12 DUP5 MSTORE DUP3 MSTORE DUP1 DUP4 KECCAK256 DUP11 DUP5 MSTORE SWAP1 SWAP2 MSTORE DUP2 KECCAK256 SWAP2 SWAP3 POP DUP1 PUSH2 0x1F6B DUP9 DUP11 PUSH2 0x3DAE JUMP JUMPDEST SWAP2 POP SWAP2 POP DUP1 PUSH2 0x1F79 JUMPI PUSH1 0x0 DUP1 REVERT JUMPDEST PUSH2 0x1F83 DUP6 DUP4 PUSH2 0x3EB9 JUMP JUMPDEST ISZERO PUSH2 0x2012 JUMPI DUP3 SLOAD PUSH1 0x0 SWAP1 PUSH2 0x1F9F SWAP1 DUP10 SWAP1 PUSH1 0xF SWAP1 DUP2 SIGNEXTEND SWAP1 SIGNEXTEND PUSH2 0x2B68 JUMP JUMPDEST SWAP1 POP PUSH1 0x1 PUSH1 0x1 PUSH1 0x7F SHL SUB NOT DUP2 SLT DUP1 ISZERO SWAP1 PUSH2 0x1FC0 JUMPI POP PUSH1 0x1 PUSH1 0x1 PUSH1 0x7F SHL SUB DUP2 SGT ISZERO JUMPDEST PUSH2 0x1FC9 JUMPI PUSH1 0x0 DUP1 REVERT JUMPDEST DUP4 SLOAD PUSH1 0x1 PUSH1 0x1 PUSH1 0x80 SHL SUB NOT AND PUSH1 0x1 PUSH1 0x1 PUSH1 0x80 SHL SUB PUSH1 0xF DUP4 SWAP1 SIGNEXTEND AND OR DUP5 SSTORE DUP1 PUSH2 0x1FFA JUMPI PUSH2 0x1FF7 DUP7 DUP5 PUSH1 0x0 PUSH2 0x13A1 JUMP JUMPDEST SWAP6 POP JUMPDEST PUSH2 0x2005 DUP13 DUP13 DUP9 PUSH2 0x3EE9 JUMP JUMPDEST SWAP6 POP PUSH2 0x9F8 SWAP5 POP POP POP POP POP JUMP JUMPDEST DUP7 ISZERO PUSH2 0x2076 JUMPI PUSH1 0x1 PUSH1 0x1 PUSH1 0x7F SHL SUB NOT DUP8 SLT DUP1 ISZERO SWAP1 PUSH2 0x2037 JUMPI POP PUSH1 0x1 PUSH1 0x1 PUSH1 0x7F SHL SUB DUP8 SGT ISZERO JUMPDEST PUSH2 0x2040 JUMPI PUSH1 0x0 DUP1 REVERT JUMPDEST DUP3 SLOAD PUSH1 0x1 PUSH1 0x1 PUSH1 0x80 SHL SUB NOT AND PUSH1 0x1 PUSH1 0x1 PUSH1 0x80 SHL SUB PUSH1 0xF DUP10 SWAP1 SIGNEXTEND AND OR DUP4 SSTORE PUSH2 0x2069 DUP6 DUP4 PUSH1 0x1 PUSH2 0x13A1 JUMP JUMPDEST SWAP5 POP PUSH2 0x2076 DUP12 DUP12 DUP8 PUSH2 0x3EE9 JUMP JUMPDEST POP SWAP5 SWAP10 SWAP9 POP POP POP POP POP POP POP POP POP JUMP JUMPDEST DUP2 MLOAD MLOAD DUP2 LT PUSH2 0x2093 JUMPI PUSH1 0x0 DUP1 REVERT JUMPDEST PUSH1 0x0 DUP3 PUSH1 0x60 ADD MLOAD GT PUSH2 0x20A4 JUMPI PUSH1 0x0 DUP1 REVERT JUMPDEST PUSH1 0x0 DUP3 PUSH1 0x0 ADD MLOAD DUP3 DUP2 MLOAD DUP2 LT PUSH2 0x20B6 JUMPI INVALID JUMPDEST PUSH1 0x20 MUL PUSH1 0x20 ADD ADD MLOAD SWAP1 POP PUSH1 0x2 PUSH1 0x3 DUP2 GT ISZERO PUSH2 0x20CD JUMPI INVALID JUMPDEST DUP2 PUSH1 0xA0 ADD MLOAD PUSH1 0x3 DUP2 GT ISZERO PUSH2 0x20DD JUMPI INVALID JUMPDEST EQ ISZERO DUP1 ISZERO PUSH2 0x20FB JUMPI POP PUSH1 0x3 DUP2 PUSH1 0xA0 ADD MLOAD PUSH1 0x3 DUP2 GT ISZERO PUSH2 0x20F8 JUMPI INVALID JUMPDEST EQ ISZERO JUMPDEST PUSH2 0x2104 JUMPI PUSH1 0x0 DUP1 REVERT JUMPDEST PUSH1 0x60 DUP4 ADD DUP1 MLOAD PUSH1 0x0 NOT ADD SWAP1 MSTORE PUSH1 0x0 DUP1 DUP1 JUMPDEST DUP6 MLOAD MLOAD DUP2 LT ISZERO PUSH2 0x2177 JUMPI PUSH1 0x0 DUP7 PUSH1 0x0 ADD MLOAD DUP3 DUP2 MLOAD DUP2 LT PUSH2 0x2131 JUMPI INVALID JUMPDEST PUSH1 0x20 MUL PUSH1 0x20 ADD ADD MLOAD SWAP1 POP DUP3 DUP2 PUSH1 0x80 ADD MLOAD GT DUP1 ISZERO PUSH2 0x215E JUMPI POP PUSH1 0x2 DUP2 PUSH1 0xA0 ADD MLOAD PUSH1 0x3 DUP2 GT ISZERO PUSH2 0x215B JUMPI INVALID JUMPDEST EQ ISZERO JUMPDEST ISZERO PUSH2 0x216E JUMPI DUP1 PUSH1 0x80 ADD MLOAD SWAP3 POP DUP2 SWAP4 POP JUMPDEST POP PUSH1 0x1 ADD PUSH2 0x2115 JUMP JUMPDEST POP DUP2 DUP5 EQ ISZERO PUSH2 0x2190 JUMPI POP POP PUSH1 0x2 PUSH1 0xA0 SWAP2 SWAP1 SWAP2 ADD MSTORE PUSH2 0x21D1 JUMP JUMPDEST PUSH1 0x0 DUP6 PUSH1 0x0 ADD MLOAD DUP4 DUP2 MLOAD DUP2 LT PUSH2 0x21A2 JUMPI INVALID JUMPDEST PUSH1 0x20 SWAP1 DUP2 MUL SWAP2 SWAP1 SWAP2 ADD ADD MLOAD PUSH1 0x80 DUP6 DUP2 ADD DUP1 MLOAD SWAP2 DUP4 ADD DUP1 MLOAD SWAP1 SWAP2 MSTORE MSTORE PUSH1 0x1 PUSH1 0xA0 SWAP2 DUP3 ADD MSTORE PUSH1 0x2 SWAP5 ADD SWAP4 SWAP1 SWAP4 MSTORE POP POP POP JUMPDEST POP POP JUMP JUMPDEST DUP2 MLOAD ISZERO DUP1 ISZERO SWAP1 PUSH2 0x21E8 JUMPI POP DUP2 MLOAD PUSH2 0x3FFF LT ISZERO JUMPDEST PUSH2 0x21F1 JUMPI PUSH1 0x0 DUP1 REVERT JUMPDEST DUP2 PUSH1 0x20 ADD MLOAD PUSH1 0x0 LT DUP1 ISZERO PUSH2 0x220E JUMPI POP PUSH1 0x20 DUP3 ADD MLOAD PUSH5 0xFFFFFFFFFF LT ISZERO JUMPDEST PUSH2 0x2217 JUMPI PUSH1 0x0 DUP1 REVERT JUMPDEST DUP2 PUSH1 0x40 ADD MLOAD PUSH1 0x0 LT DUP1 ISZERO PUSH2 0x2230 JUMPI POP PUSH1 0x40 DUP3 ADD MLOAD PUSH1 0x8 LT ISZERO JUMPDEST PUSH2 0x2239 JUMPI PUSH1 0x0 DUP1 REVERT JUMPDEST PUSH1 0x60 DUP3 ADD MLOAD PUSH1 0x1 PUSH1 0x1 PUSH1 0x57 SHL SUB NOT SGT DUP1 ISZERO SWAP1 PUSH2 0x2260 JUMPI POP PUSH1 0x60 DUP3 ADD MLOAD PUSH1 0x1 PUSH1 0x1 PUSH1 0x57 SHL SUB SLT ISZERO JUMPDEST PUSH2 0x2269 JUMPI PUSH1 0x0 DUP1 REVERT JUMPDEST DUP2 MLOAD DUP2 SLOAD PUSH1 0x20 DUP5 ADD MLOAD PUSH1 0x40 DUP6 ADD MLOAD PUSH1 0x60 SWAP1 SWAP6 ADD MLOAD PUSH1 0xA SIGNEXTEND PUSH11 0xFFFFFFFFFFFFFFFFFFFFFF AND PUSH1 0x1 PUSH1 0x40 SHL MUL PUSH19 0xFFFFFFFFFFFFFFFFFFFFFF0000000000000000 NOT PUSH1 0xFF SWAP1 SWAP7 AND PUSH1 0x1 PUSH1 0x38 SHL MUL PUSH8 0xFF00000000000000 NOT PUSH5 0xFFFFFFFFFF SWAP1 SWAP4 AND PUSH3 0x10000 MUL PUSH7 0xFFFFFFFFFF0000 NOT PUSH2 0xFFFF SWAP1 SWAP7 AND PUSH2 0xFFFF NOT SWAP1 SWAP6 AND SWAP5 SWAP1 SWAP5 OR SWAP5 SWAP1 SWAP5 AND SWAP3 SWAP1 SWAP3 OR AND SWAP2 SWAP1 SWAP2 OR SWAP3 SWAP1 SWAP3 AND SWAP2 SWAP1 SWAP2 OR SWAP1 SSTORE JUMP JUMPDEST PUSH1 0x0 DUP1 PUSH1 0x0 DUP1 PUSH2 0x230D DUP9 PUSH2 0x3F43 JUMP JUMPDEST SWAP1 POP DUP5 ISZERO DUP1 PUSH2 0x231B JUMPI POP DUP1 DUP6 GT JUMPDEST ISZERO PUSH2 0x2324 JUMPI DUP1 SWAP5 POP JUMPDEST DUP7 DUP1 PUSH2 0x2334 JUMPI POP PUSH1 0x0 DUP9 PUSH1 0x60 ADD MLOAD SLT JUMPDEST SWAP7 POP PUSH2 0xFFFF DUP7 AND ISZERO PUSH2 0x2345 JUMPI PUSH1 0x0 DUP1 REVERT JUMPDEST POP POP SWAP5 MLOAD SWAP4 SWAP6 PUSH1 0x10 SWAP4 SWAP1 SWAP4 SHR PUSH1 0xF0 SWAP5 SWAP1 SWAP5 SHL SWAP4 SWAP1 SWAP4 OR SWAP4 POP SWAP2 POP JUMP JUMPDEST PUSH1 0x0 DUP1 PUSH2 0x7CA PUSH1 0xD PUSH2 0x3FAA JUMP JUMPDEST PUSH1 0x0 DUP1 PUSH2 0x7CA PUSH1 0x2 PUSH2 0x3FAA JUMP JUMPDEST PUSH1 0x0 DUP1 PUSH2 0x2386 PUSH2 0x3FC3 JUMP JUMPDEST PUSH1 0x0 SWAP4 DUP5 MSTORE PUSH1 0x20 MSTORE POP POP PUSH1 0x40 SWAP1 KECCAK256 SLOAD PUSH1 0x1 PUSH1 0x1 PUSH1 0xA0 SHL SUB AND SWAP1 JUMP JUMPDEST PUSH1 0x0 DUP1 PUSH1 0x0 DUP1 PUSH1 0x0 DUP1 PUSH2 0x23B2 PUSH2 0x236E JUMP JUMPDEST PUSH1 0x1 PUSH1 0x1 PUSH1 0xA0 SHL SUB SWAP1 SWAP8 AND PUSH1 0x0 SWAP1 DUP2 MSTORE PUSH1 0x20 SWAP8 SWAP1 SWAP8 MSTORE POP POP PUSH1 0x40 SWAP1 SWAP5 KECCAK256 SLOAD PUSH2 0xFFFF DUP2 AND SWAP6 PUSH4 0xFFFFFFFF PUSH3 0x10000 DUP4 DIV DUP2 AND SWAP7 POP PUSH1 0x1 PUSH1 0x30 SHL DUP4 DIV AND SWAP5 POP PUSH1 0xFF PUSH1 0x1 PUSH1 0x50 SHL DUP4 DIV AND SWAP4 POP PUSH1 0x1 PUSH1 0x58 SHL SWAP1 SWAP2 DIV PUSH1 0xD8 SHL SWAP2 POP JUMP JUMPDEST PUSH1 0x0 DUP1 PUSH1 0x0 DUP1 PUSH2 0x2418 PUSH2 0x3FD0 JUMP JUMPDEST PUSH1 0x1 PUSH1 0x1 PUSH1 0xA0 SHL SUB SWAP6 SWAP1 SWAP6 AND PUSH1 0x0 SWAP1 DUP2 MSTORE PUSH1 0x20 SWAP6 SWAP1 SWAP6 MSTORE POP POP PUSH1 0x40 SWAP1 SWAP3 KECCAK256 SLOAD PUSH12 0xFFFFFFFFFFFFFFFFFFFFFFFF DUP2 AND SWAP4 PUSH1 0x1 PUSH1 0x60 SHL DUP3 DIV PUSH1 0x1 PUSH1 0x1 PUSH1 0x80 SHL SUB AND SWAP4 POP PUSH1 0x1 PUSH1 0xE0 SHL SWAP1 SWAP2 DIV PUSH4 0xFFFFFFFF AND SWAP2 POP JUMP JUMPDEST PUSH2 0x2473 PUSH2 0x4EBD JUMP JUMPDEST PUSH2 0x247B PUSH2 0x4EBD JUMP JUMPDEST PUSH1 0xFF DUP5 AND PUSH2 0x248A JUMPI SWAP1 POP PUSH2 0x929 JUMP JUMPDEST PUSH2 0x2494 DUP6 DUP6 PUSH2 0x3FDD JUMP JUMPDEST DUP2 MSTORE PUSH1 0xFF DUP5 AND PUSH1 0x60 DUP3 ADD MSTORE DUP3 PUSH8 0xFFFFFFFFFFFFFFFF DUP2 GT DUP1 ISZERO PUSH2 0x24B6 JUMPI PUSH1 0x0 DUP1 REVERT JUMPDEST POP PUSH1 0x40 MLOAD SWAP1 DUP1 DUP3 MSTORE DUP1 PUSH1 0x20 MUL PUSH1 0x20 ADD DUP3 ADD PUSH1 0x40 MSTORE DUP1 ISZERO PUSH2 0x24F0 JUMPI DUP2 PUSH1 0x20 ADD JUMPDEST PUSH2 0x24DD PUSH2 0x4EE5 JUMP JUMPDEST DUP2 MSTORE PUSH1 0x20 ADD SWAP1 PUSH1 0x1 SWAP1 SUB SWAP1 DUP2 PUSH2 0x24D5 JUMPI SWAP1 POP JUMPDEST POP PUSH1 0x20 DUP3 ADD MSTORE SWAP5 SWAP4 POP POP POP POP JUMP JUMPDEST PUSH1 0x0 DUP1 PUSH1 0x0 DUP1 PUSH1 0x0 PUSH2 0x250E PUSH2 0x295D JUMP JUMPDEST PUSH1 0x1 PUSH1 0x1 PUSH1 0xA0 SHL SUB DUP9 AND PUSH1 0x0 SWAP1 DUP2 MSTORE PUSH1 0x20 DUP3 DUP2 MSTORE PUSH1 0x40 DUP1 DUP4 KECCAK256 DUP11 DUP5 MSTORE SWAP1 SWAP2 MSTORE SWAP1 KECCAK256 DUP1 SLOAD PUSH1 0x1 PUSH1 0x1 PUSH1 0x50 SHL SUB DUP2 AND SWAP7 POP PUSH1 0x1 PUSH1 0x50 SHL SWAP1 DIV PUSH4 0xFFFFFFFF AND SWAP5 POP SWAP1 SWAP2 POP DUP4 ISZERO PUSH2 0x2577 JUMPI DUP1 SLOAD PUSH2 0x2570 SWAP1 PUSH1 0x1 PUSH1 0x70 SHL SWAP1 DIV PUSH7 0xFFFFFFFFFFFFFF AND PUSH2 0x4006 JUMP JUMPDEST SWAP3 POP PUSH2 0x258C JUMP JUMPDEST DUP1 SLOAD PUSH1 0x1 PUSH1 0x70 SHL SWAP1 DIV PUSH7 0xFFFFFFFFFFFFFF AND SWAP3 POP JUMPDEST SLOAD PUSH1 0x1 PUSH1 0xA8 SHL SWAP1 DIV PUSH1 0xA SWAP1 DUP2 SIGNEXTEND SWAP1 SIGNEXTEND SWAP8 SWAP4 SWAP7 POP SWAP2 SWAP5 POP SWAP3 POP POP JUMP JUMPDEST PUSH2 0x25AF PUSH2 0x4F25 JUMP JUMPDEST PUSH1 0x0 DUP1 PUSH1 0x0 PUSH2 0x25BD DUP6 PUSH2 0x4014 JUMP JUMPDEST PUSH1 0x40 DUP1 MLOAD PUSH1 0x60 DUP2 ADD DUP3 MSTORE PUSH1 0x1 PUSH1 0x1 PUSH1 0xA0 SHL SUB SWAP1 SWAP4 AND DUP4 MSTORE PUSH1 0x20 DUP4 ADD SWAP4 SWAP1 SWAP4 MSTORE PUSH1 0xFF AND PUSH1 0xA EXP SWAP2 DUP2 ADD SWAP2 SWAP1 SWAP2 MSTORE SWAP4 POP POP POP POP SWAP2 SWAP1 POP JUMP JUMPDEST PUSH2 0x25FB PUSH2 0x4E91 JUMP JUMPDEST PUSH1 0x0 PUSH2 0x260A DUP5 PUSH2 0xFFFF AND PUSH2 0x40D7 JUMP JUMPDEST PUSH1 0x40 DUP1 MLOAD PUSH1 0x80 DUP2 ADD DUP3 MSTORE PUSH2 0xFFFF SWAP7 SWAP1 SWAP7 AND DUP7 MSTORE PUSH1 0xFF DUP3 AND PUSH1 0x20 DUP8 ADD MSTORE DUP6 ADD SWAP4 SWAP1 SWAP4 MSTORE POP POP PUSH1 0x60 DUP3 ADD MSTORE SWAP1 JUMP JUMPDEST PUSH1 0x0 DUP1 PUSH2 0x7CA PUSH1 0xB PUSH2 0x3FAA JUMP JUMPDEST PUSH1 0x0 DUP2 PUSH2 0x264F JUMPI PUSH1 0x0 DUP1 REVERT JUMPDEST PUSH1 0x1 PUSH1 0x80 SHL DUP3 LT PUSH2 0x2662 JUMPI PUSH1 0x80 SWAP2 DUP3 SHR SWAP2 ADD JUMPDEST PUSH1 0x1 PUSH1 0x40 SHL DUP3 LT PUSH2 0x2675 JUMPI PUSH1 0x40 SWAP2 DUP3 SHR SWAP2 ADD JUMPDEST PUSH5 0x100000000 DUP3 LT PUSH2 0x2689 JUMPI PUSH1 0x20 SWAP2 DUP3 SHR SWAP2 ADD JUMPDEST PUSH3 0x10000 DUP3 LT PUSH2 0x269B JUMPI PUSH1 0x10 SWAP2 DUP3 SHR SWAP2 ADD JUMPDEST PUSH2 0x100 DUP3 LT PUSH2 0x26AC JUMPI PUSH1 0x8 SWAP2 DUP3 SHR SWAP2 ADD JUMPDEST PUSH1 0x10 DUP3 LT PUSH2 0x26BC JUMPI PUSH1 0x4 SWAP2 DUP3 SHR SWAP2 ADD JUMPDEST PUSH1 0x4 DUP3 LT PUSH2 0x26CC JUMPI PUSH1 0x2 SWAP2 DUP3 SHR SWAP2 ADD JUMPDEST PUSH1 0x2 DUP3 LT PUSH2 0x768 JUMPI PUSH1 0x1 ADD SWAP2 SWAP1 POP JUMP JUMPDEST PUSH1 0x0 DUP1 PUSH2 0x7CA PUSH1 0xC PUSH2 0x3FAA JUMP JUMPDEST PUSH1 0x0 DUP1 PUSH1 0x0 DUP6 GT PUSH2 0x270C JUMPI PUSH1 0x40 MLOAD PUSH3 0x461BCD PUSH1 0xE5 SHL DUP2 MSTORE PUSH1 0x4 ADD PUSH2 0xE6 SWAP1 PUSH2 0x50C7 JUMP JUMPDEST PUSH1 0x7 DUP6 GT ISZERO PUSH2 0x272D JUMPI PUSH1 0x40 MLOAD PUSH3 0x461BCD PUSH1 0xE5 SHL DUP2 MSTORE PUSH1 0x4 ADD PUSH2 0xE6 SWAP1 PUSH2 0x51D4 JUMP JUMPDEST PUSH1 0x0 PUSH2 0x2738 DUP5 PUSH2 0x74A JUMP JUMPDEST SWAP1 POP PUSH1 0x1 JUMPDEST DUP7 DUP2 GT PUSH2 0x2790 JUMPI PUSH1 0x0 PUSH2 0x2759 PUSH2 0x2752 DUP4 PUSH2 0xA3D JUMP JUMPDEST DUP5 SWAP1 PUSH2 0x76D JUMP JUMPDEST SWAP1 POP DUP7 DUP2 EQ ISZERO PUSH2 0x2771 JUMPI POP SWAP3 POP PUSH1 0x0 SWAP2 POP PUSH2 0x27A9 SWAP1 POP JUMP JUMPDEST DUP7 DUP2 GT ISZERO PUSH2 0x2787 JUMPI POP SWAP3 POP PUSH1 0x1 SWAP2 POP PUSH2 0x27A9 SWAP1 POP JUMP JUMPDEST POP PUSH1 0x1 ADD PUSH2 0x273D JUMP JUMPDEST POP PUSH1 0x40 MLOAD PUSH3 0x461BCD PUSH1 0xE5 SHL DUP2 MSTORE PUSH1 0x4 ADD PUSH2 0xE6 SWAP1 PUSH2 0x52B6 JUMP JUMPDEST SWAP4 POP SWAP4 SWAP2 POP POP JUMP JUMPDEST PUSH1 0x60 ADD MLOAD PUSH2 0x12C PUSH1 0x8 SWAP2 SWAP1 SWAP2 SHR PUSH1 0xFF AND MUL SWAP1 JUMP JUMPDEST PUSH1 0x0 DUP1 PUSH2 0x27D0 PUSH2 0x3C44 JUMP JUMPDEST SWAP1 POP PUSH1 0x0 PUSH3 0x76A700 PUSH2 0x27E1 DUP6 PUSH2 0x74A JUMP JUMPDEST PUSH1 0x0 DUP10 DUP2 MSTORE PUSH1 0x20 DUP6 DUP2 MSTORE PUSH1 0x40 DUP1 DUP4 KECCAK256 DUP12 DUP5 MSTORE DUP3 MSTORE DUP1 DUP4 KECCAK256 SWAP5 SWAP1 SWAP4 ADD DUP1 DUP4 MSTORE SWAP4 SWAP1 MSTORE KECCAK256 DUP1 SLOAD SWAP2 SWAP3 POP SWAP1 PUSH4 0xFFFFFFFF PUSH1 0x1 PUSH1 0xA0 SHL DUP3 DIV DUP2 AND SWAP2 PUSH1 0x1 PUSH1 0xC0 SHL DUP2 DIV DUP3 AND SWAP2 PUSH1 0x1 PUSH1 0xE0 SHL SWAP1 SWAP2 DIV AND DUP2 PUSH2 0x2848 JUMPI PUSH1 0x40 MLOAD PUSH3 0x461BCD PUSH1 0xE5 SHL DUP2 MSTORE PUSH1 0x4 ADD PUSH2 0xE6 SWAP1 PUSH2 0x5032 JUMP JUMPDEST PUSH2 0x2855 DUP2 DUP5 DUP5 DUP13 DUP13 PUSH2 0x40F4 JUMP JUMPDEST SWAP12 SWAP11 POP POP POP POP POP POP POP POP POP POP POP JUMP JUMPDEST DUP1 MLOAD PUSH1 0x0 SWAP1 PUSH1 0x1 PUSH1 0x1 PUSH1 0xA0 SHL SUB AND PUSH2 0x287E JUMPI POP PUSH1 0x0 PUSH2 0x768 JUMP JUMPDEST PUSH1 0x0 DUP3 PUSH1 0x0 ADD MLOAD PUSH1 0x1 PUSH1 0x1 PUSH1 0xA0 SHL SUB AND PUSH4 0xDD30A666 PUSH1 0x40 MLOAD DUP2 PUSH4 0xFFFFFFFF AND PUSH1 0xE0 SHL DUP2 MSTORE PUSH1 0x4 ADD PUSH1 0x20 PUSH1 0x40 MLOAD DUP1 DUP4 SUB DUP2 DUP7 DUP1 EXTCODESIZE ISZERO DUP1 ISZERO PUSH2 0x28BD JUMPI PUSH1 0x0 DUP1 REVERT JUMPDEST POP GAS STATICCALL ISZERO DUP1 ISZERO PUSH2 0x28D1 JUMPI RETURNDATASIZE PUSH1 0x0 DUP1 RETURNDATACOPY RETURNDATASIZE PUSH1 0x0 REVERT JUMPDEST POP POP POP POP PUSH1 0x40 MLOAD RETURNDATASIZE PUSH1 0x1F NOT PUSH1 0x1F DUP3 ADD AND DUP3 ADD DUP1 PUSH1 0x40 MSTORE POP DUP2 ADD SWAP1 PUSH2 0x7C7 SWAP2 SWAP1 PUSH2 0x4F7B JUMP JUMPDEST PUSH1 0x0 DUP1 PUSH2 0x290D PUSH2 0x1B12 PUSH4 0x1DA9C00 PUSH2 0xD47 DUP7 DUP9 PUSH2 0x1C80 JUMP JUMPDEST SWAP1 POP PUSH2 0x291F DUP2 PUSH3 0x1DCD65 PUSH1 0x49 SHL PUSH2 0x1D8C JUMP JUMPDEST SWAP1 POP PUSH2 0x2932 PUSH2 0x292D DUP3 PUSH2 0x4187 JUMP JUMPDEST PUSH2 0x1DDF JUMP JUMPDEST SWAP1 POP PUSH2 0x2944 DUP2 PUSH3 0x1DCD65 PUSH1 0x49 SHL PUSH2 0x1E67 JUMP JUMPDEST SWAP1 POP PUSH1 0x0 PUSH2 0x2951 DUP3 PUSH2 0x1E9D JUMP JUMPDEST PUSH1 0x7 SIGNEXTEND SWAP6 SWAP5 POP POP POP POP POP JUMP JUMPDEST PUSH1 0x0 DUP1 PUSH2 0x7CA PUSH1 0x6 PUSH2 0x3FAA JUMP JUMPDEST PUSH1 0x60 PUSH2 0x2974 PUSH2 0x4F25 JUMP JUMPDEST PUSH1 0x0 PUSH2 0x2980 DUP6 DUP6 PUSH2 0x41A9 JUMP JUMPDEST SWAP1 POP PUSH2 0x298A PUSH2 0x4E21 JUMP JUMPDEST DUP2 MLOAD PUSH2 0x299A JUMPI POP SWAP2 POP PUSH2 0x7CA SWAP1 POP JUMP JUMPDEST PUSH1 0x0 DUP1 JUMPDEST DUP8 MLOAD MLOAD DUP2 LT ISZERO PUSH2 0x2B5C JUMPI PUSH1 0x0 DUP9 PUSH1 0x0 ADD MLOAD DUP3 DUP2 MLOAD DUP2 LT PUSH2 0x29BA JUMPI INVALID JUMPDEST PUSH1 0x20 MUL PUSH1 0x20 ADD ADD MLOAD SWAP1 POP PUSH1 0x0 PUSH2 0x29CF DUP3 PUSH2 0x3F43 JUMP JUMPDEST SWAP1 POP DUP9 DUP2 GT ISZERO PUSH2 0x29E0 JUMPI POP POP PUSH2 0x2B54 JUMP JUMPDEST DUP2 PUSH1 0x0 ADD MLOAD DUP7 DUP6 DUP2 MLOAD DUP2 LT PUSH2 0x29F1 JUMPI INVALID JUMPDEST PUSH1 0x20 MUL PUSH1 0x20 ADD ADD MLOAD PUSH1 0x0 ADD MLOAD EQ PUSH2 0x2A26 JUMPI PUSH1 0x1 DUP5 ADD SWAP4 POP DUP2 PUSH1 0x0 ADD MLOAD DUP7 DUP6 DUP2 MLOAD DUP2 LT PUSH2 0x2A19 JUMPI INVALID JUMPDEST PUSH1 0x20 SWAP1 DUP2 MUL SWAP2 SWAP1 SWAP2 ADD ADD MLOAD MSTORE JUMPDEST PUSH1 0x40 DUP3 ADD MLOAD PUSH1 0x0 SWAP1 PUSH1 0x1 EQ ISZERO PUSH2 0x2A73 JUMPI PUSH2 0x2A49 DUP4 PUSH1 0x0 ADD MLOAD DUP5 PUSH1 0x20 ADD MLOAD DUP13 PUSH2 0x42CE JUMP JUMPDEST SWAP8 POP PUSH2 0x2A62 DUP4 PUSH1 0x60 ADD MLOAD DUP10 PUSH2 0x156C SWAP1 SWAP2 SWAP1 PUSH4 0xFFFFFFFF AND JUMP JUMPDEST SWAP1 POP PUSH2 0x2A6E DUP12 DUP6 PUSH2 0x2085 JUMP JUMPDEST PUSH2 0x2B0A JUMP JUMPDEST PUSH2 0x2A80 DUP4 PUSH1 0x40 ADD MLOAD PUSH2 0x2FA4 JUMP JUMPDEST ISZERO PUSH2 0x2B0A JUMPI PUSH2 0x2A99 DUP7 DUP5 PUSH1 0x0 ADD MLOAD DUP6 PUSH1 0x20 ADD MLOAD DUP6 PUSH2 0x443E JUMP JUMPDEST PUSH1 0x0 PUSH2 0x2AB2 DUP5 PUSH1 0x60 ADD MLOAD DUP9 PUSH2 0x4452 SWAP1 SWAP2 SWAP1 PUSH4 0xFFFFFFFF AND JUMP JUMPDEST PUSH1 0x20 DUP7 ADD MLOAD SWAP2 SWAP4 POP SWAP2 POP DUP12 LT ISZERO PUSH2 0x2AD3 JUMPI PUSH2 0x2ACE DUP13 DUP7 DUP4 PUSH2 0x44FA JUMP JUMPDEST PUSH2 0x2B08 JUMP JUMPDEST PUSH2 0x2AE6 DUP5 PUSH1 0x0 ADD MLOAD DUP6 PUSH1 0x20 ADD MLOAD DUP14 PUSH2 0x42CE JUMP JUMPDEST SWAP9 POP PUSH2 0x2AFC PUSH2 0x2AF5 DUP11 DUP4 PUSH2 0x156C JUMP JUMPDEST DUP4 SWAP1 PUSH2 0x2B68 JUMP JUMPDEST SWAP2 POP PUSH2 0x2B08 DUP13 DUP7 PUSH2 0x2085 JUMP JUMPDEST POP JUMPDEST PUSH2 0x2B34 DUP2 DUP9 DUP8 DUP2 MLOAD DUP2 LT PUSH2 0x2B1A JUMPI INVALID JUMPDEST PUSH1 0x20 MUL PUSH1 0x20 ADD ADD MLOAD PUSH1 0x20 ADD MLOAD PUSH2 0x2B68 SWAP1 SWAP2 SWAP1 PUSH4 0xFFFFFFFF AND JUMP JUMPDEST DUP8 DUP7 DUP2 MLOAD DUP2 LT PUSH2 0x2B40 JUMPI INVALID JUMPDEST PUSH1 0x20 MUL PUSH1 0x20 ADD ADD MLOAD PUSH1 0x20 ADD DUP2 DUP2 MSTORE POP POP POP POP POP JUMPDEST PUSH1 0x1 ADD PUSH2 0x299E JUMP JUMPDEST POP SWAP2 SWAP7 SWAP6 POP POP POP POP POP POP JUMP JUMPDEST DUP2 DUP2 ADD DUP3 DUP2 SLT ISZERO PUSH1 0x0 DUP4 SLT ISZERO EQ PUSH2 0x7CA JUMPI PUSH1 0x0 DUP1 REVERT JUMPDEST PUSH1 0x0 DUP1 PUSH1 0x0 PUSH2 0x2B8D DUP8 DUP8 PUSH2 0x11EF JUMP JUMPDEST SWAP1 POP PUSH2 0x2B98 DUP5 PUSH2 0x16C8 JUMP JUMPDEST SWAP2 POP DUP5 DUP3 LT ISZERO PUSH2 0x2BA7 JUMPI PUSH1 0x0 DUP1 REVERT JUMPDEST PUSH1 0x0 PUSH2 0x2BB3 DUP7 DUP5 PUSH2 0x3DAE JUMP JUMPDEST POP SWAP1 POP DUP1 PUSH2 0x2BC2 JUMPI POP POP PUSH2 0x2C9A JUMP JUMPDEST PUSH1 0x0 PUSH2 0x2BCD DUP4 PUSH2 0x1224 JUMP JUMPDEST SWAP1 POP JUMPDEST DUP1 ISZERO DUP1 ISZERO SWAP1 PUSH2 0x2BDF JUMPI POP DUP2 DUP2 GT ISZERO JUMPDEST ISZERO PUSH2 0x2C29 JUMPI PUSH1 0x0 PUSH2 0x2BF0 DUP9 DUP4 PUSH2 0x1249 JUMP JUMPDEST SWAP1 POP PUSH2 0x2C08 PUSH2 0x2C01 DUP12 DUP12 DUP5 DUP12 PUSH2 0x45B0 JUMP JUMPDEST DUP8 SWAP1 PUSH2 0x2B68 JUMP JUMPDEST SWAP6 POP PUSH2 0x2C16 DUP5 DUP4 PUSH1 0x0 PUSH2 0x13A1 JUMP JUMPDEST SWAP4 POP PUSH2 0x2C21 DUP5 PUSH2 0x1224 JUMP JUMPDEST SWAP2 POP POP PUSH2 0x2BD0 JUMP JUMPDEST PUSH1 0x0 JUMPDEST DUP2 ISZERO PUSH2 0x2C8A JUMPI PUSH1 0x0 PUSH2 0x2C3E DUP10 DUP5 PUSH2 0x1249 JUMP JUMPDEST SWAP1 POP PUSH1 0x0 DUP1 PUSH2 0x2C4D DUP9 DUP5 PUSH2 0x3DAE JUMP JUMPDEST SWAP2 POP SWAP2 POP DUP1 PUSH2 0x2C5B JUMPI PUSH1 0x0 DUP1 REVERT JUMPDEST PUSH2 0x2C67 DUP5 DUP4 PUSH1 0x1 PUSH2 0x13A1 JUMP JUMPDEST SWAP4 POP PUSH2 0x2C75 DUP8 DUP7 PUSH1 0x0 PUSH2 0x13A1 JUMP JUMPDEST SWAP7 POP PUSH2 0x2C80 DUP8 PUSH2 0x1224 JUMP JUMPDEST SWAP5 POP POP POP POP PUSH2 0x2C2C JUMP JUMPDEST PUSH2 0x2C95 DUP11 DUP11 DUP4 PUSH2 0x3EE9 JUMP JUMPDEST POP POP POP POP JUMPDEST SWAP5 POP SWAP5 SWAP3 POP POP POP JUMP JUMPDEST PUSH2 0x2CB0 DUP8 DUP8 DUP8 DUP7 DUP6 PUSH2 0x464B JUMP JUMPDEST PUSH2 0x2CC9 DUP8 PUSH1 0xE0 ADD MLOAD DUP9 PUSH1 0xA0 ADD MLOAD DUP10 PUSH1 0xC0 ADD MLOAD DUP6 DUP9 PUSH2 0x40F4 JUMP JUMPDEST PUSH1 0xC0 SWAP1 SWAP8 ADD SWAP7 SWAP1 SWAP7 MSTORE POP POP POP POP POP POP JUMP JUMPDEST PUSH1 0x0 DUP1 PUSH2 0x7CA PUSH1 0x4 PUSH2 0x3FAA JUMP JUMPDEST PUSH1 0x60 DUP1 PUSH1 0x0 DUP1 DUP6 PUSH8 0xFFFFFFFFFFFFFFFF DUP2 GT DUP1 ISZERO PUSH2 0x2D04 JUMPI PUSH1 0x0 DUP1 REVERT JUMPDEST POP PUSH1 0x40 MLOAD SWAP1 DUP1 DUP3 MSTORE DUP1 PUSH1 0x20 MUL PUSH1 0x20 ADD DUP3 ADD PUSH1 0x40 MSTORE DUP1 ISZERO PUSH2 0x2D2E JUMPI DUP2 PUSH1 0x20 ADD PUSH1 0x20 DUP3 MUL DUP1 CALLDATASIZE DUP4 CALLDATACOPY ADD SWAP1 POP JUMPDEST POP SWAP1 POP PUSH1 0x0 DUP7 PUSH8 0xFFFFFFFFFFFFFFFF DUP2 GT DUP1 ISZERO PUSH2 0x2D4A JUMPI PUSH1 0x0 DUP1 REVERT JUMPDEST POP PUSH1 0x40 MLOAD SWAP1 DUP1 DUP3 MSTORE DUP1 PUSH1 0x20 MUL PUSH1 0x20 ADD DUP3 ADD PUSH1 0x40 MSTORE DUP1 ISZERO PUSH2 0x2D74 JUMPI DUP2 PUSH1 0x20 ADD PUSH1 0x20 DUP3 MUL DUP1 CALLDATASIZE DUP4 CALLDATACOPY ADD SWAP1 POP JUMPDEST POP SWAP1 POP PUSH1 0x0 JUMPDEST DUP8 DUP2 LT ISZERO PUSH2 0x2E78 JUMPI DUP9 DUP5 PUSH1 0xE DUP2 LT PUSH2 0x2D8E JUMPI INVALID JUMPDEST PUSH1 0x8 SWAP2 DUP3 DUP3 DIV ADD SWAP2 SWAP1 MOD PUSH1 0x4 MUL SWAP1 SLOAD SWAP1 PUSH2 0x100 EXP SWAP1 DIV PUSH4 0xFFFFFFFF AND PUSH4 0xFFFFFFFF AND DUP4 DUP3 DUP2 MLOAD DUP2 LT PUSH2 0x2DBC JUMPI INVALID JUMPDEST PUSH1 0x20 SWAP1 DUP2 MUL SWAP2 SWAP1 SWAP2 ADD ADD MSTORE PUSH1 0x1 SWAP1 SWAP4 ADD SWAP3 DUP9 DUP5 PUSH1 0xE DUP2 LT PUSH2 0x2DD9 JUMPI INVALID JUMPDEST PUSH1 0x8 SWAP2 DUP3 DUP3 DIV ADD SWAP2 SWAP1 MOD PUSH1 0x4 MUL SWAP1 SLOAD SWAP1 PUSH2 0x100 EXP SWAP1 DIV PUSH4 0xFFFFFFFF AND PUSH4 0xFFFFFFFF AND DUP3 DUP3 DUP2 MLOAD DUP2 LT PUSH2 0x2E07 JUMPI INVALID JUMPDEST PUSH1 0x20 SWAP1 DUP2 MUL SWAP2 SWAP1 SWAP2 ADD ADD MSTORE PUSH1 0x1 SWAP1 SWAP4 ADD SWAP3 DUP7 ISZERO PUSH2 0x2E70 JUMPI PUSH1 0x0 DUP4 DUP3 DUP2 MLOAD DUP2 LT PUSH2 0x2E2C JUMPI INVALID JUMPDEST PUSH1 0x20 MUL PUSH1 0x20 ADD ADD MLOAD SGT DUP1 ISZERO PUSH2 0x2E54 JUMPI POP PUSH1 0x0 DUP3 DUP3 DUP2 MLOAD DUP2 LT PUSH2 0x2E4A JUMPI INVALID JUMPDEST PUSH1 0x20 MUL PUSH1 0x20 ADD ADD MLOAD SGT JUMPDEST PUSH2 0x2E70 JUMPI PUSH1 0x40 MLOAD PUSH3 0x461BCD PUSH1 0xE5 SHL DUP2 MSTORE PUSH1 0x4 ADD PUSH2 0xE6 SWAP1 PUSH2 0x5289 JUMP JUMPDEST PUSH1 0x1 ADD PUSH2 0x2D7A JUMP JUMPDEST POP SWAP1 SWAP8 SWAP1 SWAP7 POP SWAP5 POP POP POP POP POP JUMP JUMPDEST PUSH1 0x0 DUP1 PUSH2 0x7CA PUSH1 0x5 PUSH2 0x3FAA JUMP JUMPDEST PUSH1 0x0 DUP1 JUMPDEST DUP7 MLOAD DUP2 LT ISZERO PUSH2 0x2F97 JUMPI PUSH1 0x0 DUP8 DUP3 DUP2 MLOAD DUP2 LT PUSH2 0x2EAE JUMPI INVALID JUMPDEST PUSH1 0x20 MUL PUSH1 0x20 ADD ADD MLOAD SWAP1 POP DUP5 DUP2 PUSH1 0x40 ADD MLOAD EQ ISZERO DUP1 PUSH2 0x2ECC JUMPI POP DUP1 MLOAD DUP8 EQ ISZERO JUMPDEST DUP1 PUSH2 0x2EDB JUMPI POP DUP6 DUP2 PUSH1 0x20 ADD MLOAD EQ ISZERO JUMPDEST ISZERO PUSH2 0x2EE6 JUMPI POP PUSH2 0x2F8F JUMP JUMPDEST PUSH1 0x2 DUP2 PUSH1 0xA0 ADD MLOAD PUSH1 0x3 DUP2 GT ISZERO PUSH2 0x2EF8 JUMPI INVALID JUMPDEST EQ ISZERO DUP1 ISZERO PUSH2 0x2F16 JUMPI POP PUSH1 0x3 DUP2 PUSH1 0xA0 ADD MLOAD PUSH1 0x3 DUP2 GT ISZERO PUSH2 0x2F13 JUMPI INVALID JUMPDEST EQ ISZERO JUMPDEST PUSH2 0x2F1F JUMPI PUSH1 0x0 DUP1 REVERT JUMPDEST PUSH1 0x60 DUP2 ADD MLOAD PUSH1 0x0 SWAP1 PUSH2 0x2F31 SWAP1 DUP7 PUSH2 0x2B68 JUMP JUMPDEST SWAP1 POP PUSH2 0x2F3C DUP7 PUSH2 0x2FA4 JUMP JUMPDEST ISZERO PUSH2 0x2F4F JUMPI PUSH1 0x0 DUP2 SLT ISZERO PUSH2 0x2F4F JUMPI PUSH1 0x0 DUP1 REVERT JUMPDEST PUSH1 0x1 PUSH1 0x1 PUSH1 0x57 SHL SUB NOT DUP2 SLT DUP1 ISZERO SWAP1 PUSH2 0x2F6E JUMPI POP PUSH1 0x1 PUSH1 0x1 PUSH1 0x57 SHL SUB DUP2 SGT ISZERO JUMPDEST PUSH2 0x2F77 JUMPI PUSH1 0x0 DUP1 REVERT JUMPDEST PUSH1 0x60 DUP3 ADD MSTORE PUSH1 0x1 PUSH1 0xA0 SWAP1 SWAP2 ADD DUP2 SWAP1 MSTORE SWAP2 POP PUSH2 0x9F8 SWAP1 POP JUMP JUMPDEST PUSH1 0x1 ADD PUSH2 0x2E97 JUMP JUMPDEST POP PUSH1 0x0 SWAP7 SWAP6 POP POP POP POP POP POP JUMP JUMPDEST PUSH1 0x0 PUSH1 0x2 DUP3 LT DUP1 ISZERO SWAP1 PUSH2 0x7CA JUMPI POP POP PUSH1 0x8 LT ISZERO SWAP1 JUMP JUMPDEST PUSH1 0x60 PUSH1 0x0 DUP3 MLOAD PUSH1 0x0 EQ PUSH2 0x2FD1 JUMPI DUP3 MLOAD PUSH1 0x2 MUL PUSH2 0x2FD4 JUMP JUMPDEST PUSH1 0x1 JUMPDEST SWAP1 POP PUSH1 0x0 DUP2 PUSH8 0xFFFFFFFFFFFFFFFF DUP2 GT DUP1 ISZERO PUSH2 0x2FEF JUMPI PUSH1 0x0 DUP1 REVERT JUMPDEST POP PUSH1 0x40 MLOAD SWAP1 DUP1 DUP3 MSTORE DUP1 PUSH1 0x20 MUL PUSH1 0x20 ADD DUP3 ADD PUSH1 0x40 MSTORE DUP1 ISZERO PUSH2 0x3029 JUMPI DUP2 PUSH1 0x20 ADD JUMPDEST PUSH2 0x3016 PUSH2 0x4EE5 JUMP JUMPDEST DUP2 MSTORE PUSH1 0x20 ADD SWAP1 PUSH1 0x1 SWAP1 SUB SWAP1 DUP2 PUSH2 0x300E JUMPI SWAP1 POP JUMPDEST POP SWAP1 POP PUSH1 0x0 JUMPDEST DUP5 MLOAD DUP2 LT ISZERO PUSH2 0x306B JUMPI DUP5 DUP2 DUP2 MLOAD DUP2 LT PUSH2 0x3044 JUMPI INVALID JUMPDEST PUSH1 0x20 MUL PUSH1 0x20 ADD ADD MLOAD DUP3 DUP3 DUP2 MLOAD DUP2 LT PUSH2 0x3058 JUMPI INVALID JUMPDEST PUSH1 0x20 SWAP1 DUP2 MUL SWAP2 SWAP1 SWAP2 ADD ADD MSTORE PUSH1 0x1 ADD PUSH2 0x302F JUMP JUMPDEST POP SWAP4 SWAP3 POP POP POP JUMP JUMPDEST PUSH1 0x0 PUSH8 0x7FFFFFFFFFFFFFFF DUP3 GT ISZERO PUSH2 0x1D85 JUMPI PUSH1 0x0 DUP1 REVERT JUMPDEST PUSH1 0x0 DUP1 DUP1 PUSH2 0x3098 DUP9 DUP6 PUSH2 0x930 JUMP JUMPDEST SWAP1 POP PUSH1 0x0 PUSH2 0x30B0 PUSH2 0x30A9 DUP11 DUP11 PUSH2 0x2B68 JUMP JUMPDEST DUP4 SWAP1 PUSH2 0x4706 JUMP JUMPDEST SWAP1 POP PUSH4 0x39387000 DUP2 SGT ISZERO PUSH2 0x30CC JUMPI PUSH1 0x0 DUP1 SWAP4 POP SWAP4 POP POP POP PUSH2 0x3136 JUMP JUMPDEST PUSH1 0x0 DUP1 PUSH2 0x30D8 DUP4 PUSH2 0x471F JUMP JUMPDEST SWAP2 POP SWAP2 POP DUP1 PUSH2 0x30F1 JUMPI PUSH1 0x0 DUP1 SWAP6 POP SWAP6 POP POP POP POP POP PUSH2 0x3136 JUMP JUMPDEST PUSH1 0x0 PUSH2 0x3107 DUP10 PUSH2 0x3101 DUP6 DUP14 PUSH2 0x4706 JUMP JUMPDEST SWAP1 PUSH2 0x2B68 JUMP JUMPDEST SWAP1 POP PUSH4 0x3B9ACA00 DUP2 SLT ISZERO PUSH2 0x3126 JUMPI PUSH1 0x0 DUP1 SWAP7 POP SWAP7 POP POP POP POP POP POP PUSH2 0x3136 JUMP JUMPDEST SWAP6 POP PUSH1 0x1 SWAP5 POP PUSH2 0x3136 SWAP4 POP POP POP POP JUMP JUMPDEST SWAP6 POP SWAP6 SWAP4 POP POP POP POP JUMP JUMPDEST PUSH1 0x0 DUP1 DUP3 PUSH1 0xF SIGNEXTEND SGT PUSH2 0x3151 JUMPI PUSH1 0x0 DUP1 REVERT JUMPDEST PUSH1 0x80 PUSH2 0x315C DUP4 PUSH2 0x47C1 JUMP JUMPDEST PUSH1 0xF SIGNEXTEND PUSH16 0xB17217F7D1CF79ABC9E3B39803F2F6AF MUL SWAP1 SHR SWAP1 POP SWAP2 SWAP1 POP JUMP JUMPDEST PUSH1 0x0 DUP1 DUP3 PUSH1 0xF SIGNEXTEND SLT ISZERO PUSH2 0x318C JUMPI PUSH1 0x0 DUP1 REVERT JUMPDEST POP PUSH1 0xF SIGNEXTEND PUSH1 0x40 SAR SWAP1 JUMP JUMPDEST PUSH1 0x0 PUSH1 0x1 PUSH1 0x46 SHL DUP3 PUSH1 0xF SIGNEXTEND SLT PUSH2 0x31AB JUMPI PUSH1 0x0 DUP1 REVERT JUMPDEST PUSH9 0x3FFFFFFFFFFFFFFFFF NOT DUP3 PUSH1 0xF SIGNEXTEND SLT ISZERO PUSH2 0x31C8 JUMPI POP PUSH1 0x0 PUSH2 0x768 JUMP JUMPDEST PUSH1 0x1 PUSH1 0x7F SHL PUSH1 0x0 PUSH1 0x1 PUSH1 0x3F SHL DUP5 AND PUSH1 0xF SIGNEXTEND SGT ISZERO PUSH2 0x31F6 JUMPI PUSH17 0x16A09E667F3BCC908B2FB1366EA957D3E MUL PUSH1 0x80 SHR JUMPDEST PUSH1 0x0 DUP4 PUSH8 0x4000000000000000 AND PUSH1 0xF SIGNEXTEND SGT ISZERO PUSH2 0x3223 JUMPI PUSH17 0x1306FE0A31B7152DE8D5A46305C85EDEC MUL PUSH1 0x80 SHR JUMPDEST PUSH1 0x0 DUP4 PUSH8 0x2000000000000000 AND PUSH1 0xF SIGNEXTEND SGT ISZERO PUSH2 0x3250 JUMPI PUSH17 0x1172B83C7D517ADCDF7C8C50EB14A791F MUL PUSH1 0x80 SHR JUMPDEST PUSH1 0x0 DUP4 PUSH8 0x1000000000000000 AND PUSH1 0xF SIGNEXTEND SGT ISZERO PUSH2 0x327D JUMPI PUSH17 0x10B5586CF9890F6298B92B71842A98363 MUL PUSH1 0x80 SHR JUMPDEST PUSH1 0x0 DUP4 PUSH8 0x800000000000000 AND PUSH1 0xF SIGNEXTEND SGT ISZERO PUSH2 0x32AA JUMPI PUSH17 0x1059B0D31585743AE7C548EB68CA417FD MUL PUSH1 0x80 SHR JUMPDEST PUSH1 0x0 DUP4 PUSH8 0x400000000000000 AND PUSH1 0xF SIGNEXTEND SGT ISZERO PUSH2 0x32D7 JUMPI PUSH17 0x102C9A3E778060EE6F7CACA4F7A29BDE8 MUL PUSH1 0x80 SHR JUMPDEST PUSH1 0x0 DUP4 PUSH8 0x200000000000000 AND PUSH1 0xF SIGNEXTEND SGT ISZERO PUSH2 0x3304 JUMPI PUSH17 0x10163DA9FB33356D84A66AE336DCDFA3F MUL PUSH1 0x80 SHR JUMPDEST PUSH1 0x0 DUP4 PUSH1 0x1 PUSH1 0x38 SHL AND PUSH1 0xF SIGNEXTEND SGT ISZERO PUSH2 0x332D JUMPI PUSH17 0x100B1AFA5ABCBED6129AB13EC11DC9543 MUL PUSH1 0x80 SHR JUMPDEST PUSH1 0x0 DUP4 PUSH7 0x80000000000000 AND PUSH1 0xF SIGNEXTEND SGT ISZERO PUSH2 0x3359 JUMPI PUSH17 0x10058C86DA1C09EA1FF19D294CF2F679B MUL PUSH1 0x80 SHR JUMPDEST PUSH1 0x0 DUP4 PUSH7 0x40000000000000 AND PUSH1 0xF SIGNEXTEND SGT ISZERO PUSH2 0x3385 JUMPI PUSH17 0x1002C605E2E8CEC506D21BFC89A23A00F MUL PUSH1 0x80 SHR JUMPDEST PUSH1 0x0 DUP4 PUSH7 0x20000000000000 AND PUSH1 0xF SIGNEXTEND SGT ISZERO PUSH2 0x33B1 JUMPI PUSH17 0x100162F3904051FA128BCA9C55C31E5DF MUL PUSH1 0x80 SHR JUMPDEST PUSH1 0x0 DUP4 PUSH7 0x10000000000000 AND PUSH1 0xF SIGNEXTEND SGT ISZERO PUSH2 0x33DD JUMPI PUSH17 0x1000B175EFFDC76BA38E31671CA939725 MUL PUSH1 0x80 SHR JUMPDEST PUSH1 0x0 DUP4 PUSH7 0x8000000000000 AND PUSH1 0xF SIGNEXTEND SGT ISZERO PUSH2 0x3409 JUMPI PUSH17 0x100058BA01FB9F96D6CACD4B180917C3D MUL PUSH1 0x80 SHR JUMPDEST PUSH1 0x0 DUP4 PUSH7 0x4000000000000 AND PUSH1 0xF SIGNEXTEND SGT ISZERO PUSH2 0x3435 JUMPI PUSH17 0x10002C5CC37DA9491D0985C348C68E7B3 MUL PUSH1 0x80 SHR JUMPDEST PUSH1 0x0 DUP4 PUSH7 0x2000000000000 AND PUSH1 0xF SIGNEXTEND SGT ISZERO PUSH2 0x3461 JUMPI PUSH17 0x1000162E525EE054754457D5995292026 MUL PUSH1 0x80 SHR JUMPDEST PUSH1 0x0 DUP4 PUSH1 0x1 PUSH1 0x30 SHL AND PUSH1 0xF SIGNEXTEND SGT ISZERO PUSH2 0x348A JUMPI PUSH17 0x10000B17255775C040618BF4A4ADE83FC MUL PUSH1 0x80 SHR JUMPDEST PUSH1 0x0 DUP4 PUSH6 0x800000000000 AND PUSH1 0xF SIGNEXTEND SGT ISZERO PUSH2 0x34B5 JUMPI PUSH17 0x1000058B91B5BC9AE2EED81E9B7D4CFAB MUL PUSH1 0x80 SHR JUMPDEST PUSH1 0x0 DUP4 PUSH6 0x400000000000 AND PUSH1 0xF SIGNEXTEND SGT ISZERO PUSH2 0x34E0 JUMPI PUSH17 0x100002C5C89D5EC6CA4D7C8ACC017B7C9 MUL PUSH1 0x80 SHR JUMPDEST PUSH1 0x0 DUP4 PUSH6 0x200000000000 AND PUSH1 0xF SIGNEXTEND SGT ISZERO PUSH2 0x350B JUMPI PUSH17 0x10000162E43F4F831060E02D839A9D16D MUL PUSH1 0x80 SHR JUMPDEST PUSH1 0x0 DUP4 PUSH6 0x100000000000 AND PUSH1 0xF SIGNEXTEND SGT ISZERO PUSH2 0x3536 JUMPI PUSH17 0x100000B1721BCFC99D9F890EA06911763 MUL PUSH1 0x80 SHR JUMPDEST PUSH1 0x0 DUP4 PUSH6 0x80000000000 AND PUSH1 0xF SIGNEXTEND SGT ISZERO PUSH2 0x3561 JUMPI PUSH17 0x10000058B90CF1E6D97F9CA14DBCC1628 MUL PUSH1 0x80 SHR JUMPDEST PUSH1 0x0 DUP4 PUSH6 0x40000000000 AND PUSH1 0xF SIGNEXTEND SGT ISZERO PUSH2 0x358C JUMPI PUSH17 0x1000002C5C863B73F016468F6BAC5CA2B MUL PUSH1 0x80 SHR JUMPDEST PUSH1 0x0 DUP4 PUSH6 0x20000000000 AND PUSH1 0xF SIGNEXTEND SGT ISZERO PUSH2 0x35B7 JUMPI PUSH17 0x100000162E430E5A18F6119E3C02282A5 MUL PUSH1 0x80 SHR JUMPDEST PUSH1 0x0 DUP4 PUSH6 0x10000000000 AND PUSH1 0xF SIGNEXTEND SGT ISZERO PUSH2 0x35E2 JUMPI PUSH17 0x1000000B1721835514B86E6D96EFD1BFE MUL PUSH1 0x80 SHR JUMPDEST PUSH1 0x0 DUP4 PUSH5 0x8000000000 AND PUSH1 0xF SIGNEXTEND SGT ISZERO PUSH2 0x360C JUMPI PUSH17 0x100000058B90C0B48C6BE5DF846C5B2EF MUL PUSH1 0x80 SHR JUMPDEST PUSH1 0x0 DUP4 PUSH5 0x4000000000 AND PUSH1 0xF SIGNEXTEND SGT ISZERO PUSH2 0x3636 JUMPI PUSH17 0x10000002C5C8601CC6B9E94213C72737A MUL PUSH1 0x80 SHR JUMPDEST PUSH1 0x0 DUP4 PUSH5 0x2000000000 AND PUSH1 0xF SIGNEXTEND SGT ISZERO PUSH2 0x3660 JUMPI PUSH17 0x1000000162E42FFF037DF38AA2B219F06 MUL PUSH1 0x80 SHR JUMPDEST PUSH1 0x0 DUP4 PUSH5 0x1000000000 AND PUSH1 0xF SIGNEXTEND SGT ISZERO PUSH2 0x368A JUMPI PUSH17 0x10000000B17217FBA9C739AA5819F44F9 MUL PUSH1 0x80 SHR JUMPDEST PUSH1 0x0 DUP4 PUSH5 0x800000000 AND PUSH1 0xF SIGNEXTEND SGT ISZERO PUSH2 0x36B4 JUMPI PUSH17 0x1000000058B90BFCDEE5ACD3C1CEDC823 MUL PUSH1 0x80 SHR JUMPDEST PUSH1 0x0 DUP4 PUSH5 0x400000000 AND PUSH1 0xF SIGNEXTEND SGT ISZERO PUSH2 0x36DE JUMPI PUSH17 0x100000002C5C85FE31F35A6A30DA1BE50 MUL PUSH1 0x80 SHR JUMPDEST PUSH1 0x0 DUP4 PUSH5 0x200000000 AND PUSH1 0xF SIGNEXTEND SGT ISZERO PUSH2 0x3708 JUMPI PUSH17 0x10000000162E42FF0999CE3541B9FFFCF MUL PUSH1 0x80 SHR JUMPDEST PUSH1 0x0 DUP4 PUSH5 0x100000000 AND PUSH1 0xF SIGNEXTEND SGT ISZERO PUSH2 0x3732 JUMPI PUSH17 0x100000000B17217F80F4EF5AADDA45554 MUL PUSH1 0x80 SHR JUMPDEST PUSH1 0x0 DUP4 PUSH4 0x80000000 AND PUSH1 0xF SIGNEXTEND SGT ISZERO PUSH2 0x375B JUMPI PUSH17 0x10000000058B90BFBF8479BD5A81B51AD MUL PUSH1 0x80 SHR JUMPDEST PUSH1 0x0 DUP4 PUSH4 0x40000000 AND PUSH1 0xF SIGNEXTEND SGT ISZERO PUSH2 0x3784 JUMPI PUSH17 0x1000000002C5C85FDF84BD62AE30A74CC MUL PUSH1 0x80 SHR JUMPDEST PUSH1 0x0 DUP4 PUSH4 0x20000000 AND PUSH1 0xF SIGNEXTEND SGT ISZERO PUSH2 0x37AD JUMPI PUSH17 0x100000000162E42FEFB2FED257559BDAA MUL PUSH1 0x80 SHR JUMPDEST PUSH1 0x0 DUP4 PUSH4 0x10000000 AND PUSH1 0xF SIGNEXTEND SGT ISZERO PUSH2 0x37D6 JUMPI PUSH17 0x1000000000B17217F7D5A7716BBA4A9AE MUL PUSH1 0x80 SHR JUMPDEST PUSH1 0x0 DUP4 PUSH4 0x8000000 AND PUSH1 0xF SIGNEXTEND SGT ISZERO PUSH2 0x37FF JUMPI PUSH17 0x100000000058B90BFBE9DDBAC5E109CCE MUL PUSH1 0x80 SHR JUMPDEST PUSH1 0x0 DUP4 PUSH4 0x4000000 AND PUSH1 0xF SIGNEXTEND SGT ISZERO PUSH2 0x3828 JUMPI PUSH17 0x10000000002C5C85FDF4B15DE6F17EB0D MUL PUSH1 0x80 SHR JUMPDEST PUSH1 0x0 DUP4 PUSH4 0x2000000 AND PUSH1 0xF SIGNEXTEND SGT ISZERO PUSH2 0x3851 JUMPI PUSH17 0x1000000000162E42FEFA494F1478FDE05 MUL PUSH1 0x80 SHR JUMPDEST PUSH1 0x0 DUP4 PUSH4 0x1000000 AND PUSH1 0xF SIGNEXTEND SGT ISZERO PUSH2 0x387A JUMPI PUSH17 0x10000000000B17217F7D20CF927C8E94C MUL PUSH1 0x80 SHR JUMPDEST PUSH1 0x0 DUP4 PUSH3 0x800000 AND PUSH1 0xF SIGNEXTEND SGT ISZERO PUSH2 0x38A2 JUMPI PUSH17 0x1000000000058B90BFBE8F71CB4E4B33D MUL PUSH1 0x80 SHR JUMPDEST PUSH1 0x0 DUP4 PUSH3 0x400000 AND PUSH1 0xF SIGNEXTEND SGT ISZERO PUSH2 0x38CA JUMPI PUSH17 0x100000000002C5C85FDF477B662B26945 MUL PUSH1 0x80 SHR JUMPDEST PUSH1 0x0 DUP4 PUSH3 0x200000 AND PUSH1 0xF SIGNEXTEND SGT ISZERO PUSH2 0x38F2 JUMPI PUSH17 0x10000000000162E42FEFA3AE53369388C MUL PUSH1 0x80 SHR JUMPDEST PUSH1 0x0 DUP4 PUSH3 0x100000 AND PUSH1 0xF SIGNEXTEND SGT ISZERO PUSH2 0x391A JUMPI PUSH17 0x100000000000B17217F7D1D351A389D40 MUL PUSH1 0x80 SHR JUMPDEST PUSH1 0x0 DUP4 PUSH3 0x80000 AND PUSH1 0xF SIGNEXTEND SGT ISZERO PUSH2 0x3942 JUMPI PUSH17 0x10000000000058B90BFBE8E8B2D3D4EDE MUL PUSH1 0x80 SHR JUMPDEST PUSH1 0x0 DUP4 PUSH3 0x40000 AND PUSH1 0xF SIGNEXTEND SGT ISZERO PUSH2 0x396A JUMPI PUSH17 0x1000000000002C5C85FDF4741BEA6E77E MUL PUSH1 0x80 SHR JUMPDEST PUSH1 0x0 DUP4 PUSH3 0x20000 AND PUSH1 0xF SIGNEXTEND SGT ISZERO PUSH2 0x3992 JUMPI PUSH17 0x100000000000162E42FEFA39FE95583C2 MUL PUSH1 0x80 SHR JUMPDEST PUSH1 0x0 DUP4 PUSH3 0x10000 AND PUSH1 0xF SIGNEXTEND SGT ISZERO PUSH2 0x39BA JUMPI PUSH17 0x1000000000000B17217F7D1CFB72B45E1 MUL PUSH1 0x80 SHR JUMPDEST PUSH1 0x0 DUP4 PUSH2 0x8000 AND PUSH1 0xF SIGNEXTEND SGT ISZERO PUSH2 0x39E1 JUMPI PUSH17 0x100000000000058B90BFBE8E7CC35C3F0 MUL PUSH1 0x80 SHR JUMPDEST PUSH1 0x0 DUP4 PUSH2 0x4000 AND PUSH1 0xF SIGNEXTEND SGT ISZERO PUSH2 0x3A08 JUMPI PUSH17 0x10000000000002C5C85FDF473E242EA38 MUL PUSH1 0x80 SHR JUMPDEST PUSH1 0x0 DUP4 PUSH2 0x2000 AND PUSH1 0xF SIGNEXTEND SGT ISZERO PUSH2 0x3A2F JUMPI PUSH17 0x1000000000000162E42FEFA39F02B772C MUL PUSH1 0x80 SHR JUMPDEST PUSH1 0x0 DUP4 PUSH2 0x1000 AND PUSH1 0xF SIGNEXTEND SGT ISZERO PUSH2 0x3A56 JUMPI PUSH17 0x10000000000000B17217F7D1CF7D83C1A MUL PUSH1 0x80 SHR JUMPDEST PUSH1 0x0 DUP4 PUSH2 0x800 AND PUSH1 0xF SIGNEXTEND SGT ISZERO PUSH2 0x3A7D JUMPI PUSH17 0x1000000000000058B90BFBE8E7BDCBE2E MUL PUSH1 0x80 SHR JUMPDEST PUSH1 0x0 DUP4 PUSH2 0x400 AND PUSH1 0xF SIGNEXTEND SGT ISZERO PUSH2 0x3AA4 JUMPI PUSH17 0x100000000000002C5C85FDF473DEA871F MUL PUSH1 0x80 SHR JUMPDEST PUSH1 0x0 DUP4 PUSH2 0x200 AND PUSH1 0xF SIGNEXTEND SGT ISZERO PUSH2 0x3ACB JUMPI PUSH17 0x10000000000000162E42FEFA39EF44D91 MUL PUSH1 0x80 SHR JUMPDEST PUSH1 0x0 DUP4 PUSH2 0x100 AND PUSH1 0xF SIGNEXTEND SGT ISZERO PUSH2 0x3AF2 JUMPI PUSH17 0x100000000000000B17217F7D1CF79E949 MUL PUSH1 0x80 SHR JUMPDEST PUSH1 0x0 DUP4 PUSH1 0x80 AND PUSH1 0xF SIGNEXTEND SGT ISZERO PUSH2 0x3B18 JUMPI PUSH17 0x10000000000000058B90BFBE8E7BCE544 MUL PUSH1 0x80 SHR JUMPDEST PUSH1 0x0 DUP4 PUSH1 0x40 AND PUSH1 0xF SIGNEXTEND SGT ISZERO PUSH2 0x3B3E JUMPI PUSH17 0x1000000000000002C5C85FDF473DE6ECA MUL PUSH1 0x80 SHR JUMPDEST PUSH1 0x0 DUP4 PUSH1 0x20 AND PUSH1 0xF SIGNEXTEND SGT ISZERO PUSH2 0x3B64 JUMPI PUSH17 0x100000000000000162E42FEFA39EF366F MUL PUSH1 0x80 SHR JUMPDEST PUSH1 0x0 DUP4 PUSH1 0x10 AND PUSH1 0xF SIGNEXTEND SGT ISZERO PUSH2 0x3B8A JUMPI PUSH17 0x1000000000000000B17217F7D1CF79AFA MUL PUSH1 0x80 SHR JUMPDEST PUSH1 0x0 DUP4 PUSH1 0x8 AND PUSH1 0xF SIGNEXTEND SGT ISZERO PUSH2 0x3BB0 JUMPI PUSH17 0x100000000000000058B90BFBE8E7BCD6D MUL PUSH1 0x80 SHR JUMPDEST PUSH1 0x0 DUP4 PUSH1 0x4 AND PUSH1 0xF SIGNEXTEND SGT ISZERO PUSH2 0x3BD6 JUMPI PUSH17 0x10000000000000002C5C85FDF473DE6B2 MUL PUSH1 0x80 SHR JUMPDEST PUSH1 0x0 DUP4 PUSH1 0x2 AND PUSH1 0xF SIGNEXTEND SGT ISZERO PUSH2 0x3BFC JUMPI PUSH17 0x1000000000000000162E42FEFA39EF358 MUL PUSH1 0x80 SHR JUMPDEST PUSH1 0x0 DUP4 PUSH1 0x1 AND PUSH1 0xF SIGNEXTEND SGT ISZERO PUSH2 0x3C22 JUMPI PUSH17 0x10000000000000000B17217F7D1CF79AB MUL PUSH1 0x80 SHR JUMPDEST PUSH1 0xF DUP4 DUP2 SIGNEXTEND PUSH1 0x40 SAR PUSH1 0x3F SUB SWAP1 SIGNEXTEND SHR PUSH1 0x1 PUSH1 0x1 PUSH1 0x7F SHL SUB DUP2 GT ISZERO PUSH2 0x7CA JUMPI PUSH1 0x0 DUP1 REVERT JUMPDEST PUSH1 0x0 DUP1 PUSH2 0x7CA PUSH1 0xA PUSH2 0x3FAA JUMP JUMPDEST PUSH1 0x0 DUP6 SLT ISZERO DUP1 ISZERO PUSH2 0x3C69 JUMPI POP PUSH1 0x1 PUSH1 0x1 PUSH1 0x50 SHL SUB DUP6 SGT ISZERO JUMPDEST PUSH2 0x3C72 JUMPI PUSH1 0x0 DUP1 REVERT JUMPDEST PUSH1 0x0 DUP5 SLT ISZERO DUP1 ISZERO PUSH2 0x3C8A JUMPI POP PUSH1 0x1 PUSH1 0x1 PUSH1 0x50 SHL SUB DUP5 SGT ISZERO JUMPDEST PUSH2 0x3C93 JUMPI PUSH1 0x0 DUP1 REVERT JUMPDEST DUP3 PUSH1 0x0 LT DUP1 ISZERO PUSH2 0x3CA7 JUMPI POP PUSH4 0xFFFFFFFF DUP4 GT ISZERO JUMPDEST PUSH2 0x3CB0 JUMPI PUSH1 0x0 DUP1 REVERT JUMPDEST DUP2 PUSH1 0x0 LT DUP1 ISZERO PUSH2 0x3CC4 JUMPI POP PUSH4 0xFFFFFFFF DUP3 GT ISZERO JUMPDEST PUSH2 0x3CCD JUMPI PUSH1 0x0 DUP1 REVERT JUMPDEST PUSH4 0xFFFFFFFF DUP2 GT ISZERO PUSH2 0x3CDE JUMPI PUSH1 0x0 DUP1 REVERT JUMPDEST DUP6 SLOAD PUSH10 0xFFFFFFFFFFFFFFFFFFFF NOT AND PUSH1 0x1 PUSH1 0x1 PUSH1 0x50 SHL SUB SWAP6 DUP7 AND OR PUSH10 0xFFFFFFFFFFFFFFFFFFFF PUSH1 0x50 SHL NOT AND PUSH1 0x1 PUSH1 0x50 SHL SWAP5 SWAP1 SWAP6 AND SWAP4 SWAP1 SWAP4 MUL SWAP4 SWAP1 SWAP4 OR PUSH4 0xFFFFFFFF PUSH1 0xA0 SHL NOT AND PUSH1 0x1 PUSH1 0xA0 SHL PUSH4 0xFFFFFFFF SWAP3 DUP4 AND MUL OR PUSH4 0xFFFFFFFF PUSH1 0xC0 SHL NOT AND PUSH1 0x1 PUSH1 0xC0 SHL SWAP4 DUP3 AND SWAP4 SWAP1 SWAP4 MUL SWAP3 SWAP1 SWAP3 OR PUSH1 0x1 PUSH1 0x1 PUSH1 0xE0 SHL SUB AND PUSH1 0x1 PUSH1 0xE0 SHL SWAP2 SWAP1 SWAP3 AND MUL OR SWAP1 SSTORE JUMP JUMPDEST PUSH1 0x0 DUP2 SLT ISZERO DUP1 ISZERO PUSH2 0x3D7D JUMPI POP PUSH1 0x1 PUSH1 0x1 PUSH1 0x50 SHL SUB DUP2 SGT ISZERO JUMPDEST PUSH2 0x3D86 JUMPI PUSH1 0x0 DUP1 REVERT JUMPDEST PUSH1 0x1 SWAP2 SWAP1 SWAP2 ADD DUP1 SLOAD PUSH10 0xFFFFFFFFFFFFFFFFFFFF NOT AND PUSH1 0x1 PUSH1 0x1 PUSH1 0x50 SHL SUB SWAP1 SWAP3 AND SWAP2 SWAP1 SWAP2 OR SWAP1 SSTORE JUMP JUMPDEST PUSH1 0x0 DUP1 PUSH1 0x0 PUSH2 0x3DBC DUP6 PUSH2 0x16C8 JUMP JUMPDEST SWAP1 POP PUSH3 0x15180 DUP5 MOD ISZERO PUSH2 0x3DD6 JUMPI PUSH1 0x0 DUP1 SWAP3 POP SWAP3 POP POP PUSH2 0x3EB2 JUMP JUMPDEST DUP4 DUP2 LT PUSH2 0x3DEA JUMPI PUSH1 0x0 DUP1 SWAP3 POP SWAP3 POP POP PUSH2 0x3EB2 JUMP JUMPDEST PUSH3 0x15180 DUP2 DUP6 SUB DIV PUSH1 0x5A DUP2 GT PUSH2 0x3E07 JUMPI SWAP3 POP PUSH1 0x1 SWAP2 POP PUSH2 0x3EB2 SWAP1 POP JUMP JUMPDEST PUSH2 0x168 DUP2 GT PUSH2 0x3E46 JUMPI PUSH1 0x0 PUSH3 0x15180 PUSH3 0x7E900 DUP5 MOD DIV DUP3 ADD PUSH1 0x59 NOT ADD SWAP1 POP PUSH1 0x6 DUP2 DIV PUSH1 0x5A ADD PUSH1 0x6 DUP3 DUP2 PUSH2 0x3E36 JUMPI INVALID JUMPDEST MOD PUSH1 0x0 EQ SWAP5 POP SWAP5 POP POP POP POP PUSH2 0x3EB2 JUMP JUMPDEST PUSH2 0x870 DUP2 GT PUSH2 0x3E76 JUMPI PUSH1 0x0 PUSH3 0x15180 PUSH3 0x278D00 DUP5 MOD DIV DUP3 ADD PUSH2 0x167 NOT ADD SWAP1 POP PUSH1 0x1E DUP2 DIV PUSH1 0x87 ADD PUSH1 0x1E DUP3 DUP2 PUSH2 0x3E36 JUMPI INVALID JUMPDEST PUSH2 0x1DE2 DUP2 GT PUSH2 0x3EA6 JUMPI PUSH1 0x0 PUSH3 0x15180 PUSH3 0x76A700 DUP5 MOD DIV DUP3 ADD PUSH2 0x86F NOT ADD SWAP1 POP PUSH1 0x5A DUP2 DIV PUSH1 0xC3 ADD PUSH1 0x5A DUP3 DUP2 PUSH2 0x3E36 JUMPI INVALID JUMPDEST PUSH2 0x100 PUSH1 0x0 SWAP4 POP SWAP4 POP POP POP JUMPDEST SWAP3 POP SWAP3 SWAP1 POP JUMP JUMPDEST PUSH1 0x0 PUSH1 0x1 DUP3 LT ISZERO DUP1 ISZERO PUSH2 0x3ECE JUMPI POP PUSH2 0x100 DUP3 GT ISZERO JUMPDEST PUSH2 0x3ED7 JUMPI PUSH1 0x0 DUP1 REVERT JUMPDEST POP PUSH1 0x0 NOT ADD SHL PUSH1 0x1 PUSH1 0xFF SHL SWAP1 DUP2 AND EQ SWAP1 JUMP JUMPDEST PUSH1 0x14 PUSH2 0x3EF4 DUP3 PUSH2 0x489C JUMP JUMPDEST GT ISZERO PUSH2 0x3F12 JUMPI PUSH1 0x40 MLOAD PUSH3 0x461BCD PUSH1 0xE5 SHL DUP2 MSTORE PUSH1 0x4 ADD PUSH2 0xE6 SWAP1 PUSH2 0x5174 JUMP JUMPDEST PUSH1 0x0 PUSH2 0x3F1C PUSH2 0x2636 JUMP JUMPDEST PUSH1 0x1 PUSH1 0x1 PUSH1 0xA0 SHL SUB SWAP1 SWAP5 AND PUSH1 0x0 SWAP1 DUP2 MSTORE PUSH1 0x20 SWAP5 DUP6 MSTORE PUSH1 0x40 DUP1 DUP3 KECCAK256 SWAP5 DUP3 MSTORE SWAP4 SWAP1 SWAP5 MSTORE POP SWAP2 KECCAK256 SSTORE JUMP JUMPDEST PUSH1 0x0 DUP1 DUP3 PUSH1 0x40 ADD MLOAD GT DUP1 ISZERO PUSH2 0x3F5D JUMPI POP PUSH1 0x40 DUP3 ADD MLOAD PUSH1 0x8 LT ISZERO JUMPDEST PUSH2 0x3F66 JUMPI PUSH1 0x0 DUP1 REVERT JUMPDEST PUSH1 0x40 DUP3 ADD MLOAD PUSH1 0x2 LT PUSH2 0x3F7D JUMPI POP PUSH1 0x20 DUP2 ADD MLOAD PUSH2 0x768 JUMP JUMPDEST PUSH1 0x0 PUSH2 0x3F8F PUSH1 0x1 DUP5 PUSH1 0x40 ADD MLOAD SUB PUSH2 0xA3D JUMP JUMPDEST PUSH1 0x20 DUP5 ADD MLOAD SWAP1 SWAP2 POP PUSH2 0x929 SWAP1 PUSH3 0x76A700 SWAP1 PUSH2 0x3D1 SWAP1 DUP5 PUSH2 0xB46 JUMP JUMPDEST PUSH1 0x0 PUSH3 0xF4240 DUP3 PUSH1 0x12 DUP2 GT ISZERO PUSH2 0x3FBC JUMPI INVALID JUMPDEST ADD SWAP3 SWAP2 POP POP JUMP JUMPDEST PUSH1 0x0 DUP1 PUSH2 0x7CA PUSH1 0x3 PUSH2 0x3FAA JUMP JUMPDEST PUSH1 0x0 DUP1 PUSH2 0x7CA PUSH1 0x11 PUSH2 0x3FAA JUMP JUMPDEST PUSH1 0x60 PUSH1 0x0 PUSH2 0x3FEB DUP5 DUP5 PUSH2 0x496C JUMP JUMPDEST SWAP1 POP PUSH1 0x1 DUP2 MLOAD GT PUSH2 0x3FFD JUMPI SWAP1 POP PUSH2 0x7CA JUMP JUMPDEST PUSH2 0x7C7 DUP2 PUSH2 0x4A8E JUMP JUMPDEST PUSH1 0x8 DUP2 SWAP1 SHR PUSH1 0xFF SWAP1 SWAP2 AND SHL SWAP1 JUMP JUMPDEST PUSH1 0x0 DUP1 PUSH1 0x0 DUP1 PUSH1 0x0 PUSH2 0x4025 DUP7 PUSH2 0x4C47 JUMP JUMPDEST SWAP1 SWAP3 POP SWAP1 POP PUSH1 0x0 PUSH1 0x1 PUSH1 0x1 PUSH1 0xA0 SHL SUB DUP4 AND PUSH2 0x404A JUMPI POP PUSH1 0x0 SWAP1 POP PUSH5 0x2540BE400 PUSH2 0x40CC JUMP JUMPDEST DUP3 PUSH1 0x1 PUSH1 0x1 PUSH1 0xA0 SHL SUB AND PUSH4 0x1EE10833 PUSH1 0x40 MLOAD DUP2 PUSH4 0xFFFFFFFF AND PUSH1 0xE0 SHL DUP2 MSTORE PUSH1 0x4 ADD PUSH1 0x20 PUSH1 0x40 MLOAD DUP1 DUP4 SUB DUP2 PUSH1 0x0 DUP8 DUP1 EXTCODESIZE ISZERO DUP1 ISZERO PUSH2 0x4085 JUMPI PUSH1 0x0 DUP1 REVERT JUMPDEST POP GAS CALL ISZERO DUP1 ISZERO PUSH2 0x4099 JUMPI RETURNDATASIZE PUSH1 0x0 DUP1 RETURNDATACOPY RETURNDATASIZE PUSH1 0x0 REVERT JUMPDEST POP POP POP POP PUSH1 0x40 MLOAD RETURNDATASIZE PUSH1 0x1F NOT PUSH1 0x1F DUP3 ADD AND DUP3 ADD DUP1 PUSH1 0x40 MSTORE POP DUP2 ADD SWAP1 PUSH2 0x40BD SWAP2 SWAP1 PUSH2 0x4F7B JUMP JUMPDEST SWAP1 POP PUSH1 0x0 DUP2 SGT PUSH2 0x40CC JUMPI PUSH1 0x0 DUP1 REVERT JUMPDEST SWAP7 SWAP2 SWAP6 POP SWAP4 POP SWAP2 POP POP JUMP JUMPDEST PUSH1 0x0 DUP1 PUSH2 0x40E2 PUSH2 0x4C7E JUMP JUMPDEST PUSH1 0x0 SWAP4 DUP5 MSTORE PUSH1 0x20 MSTORE POP POP PUSH1 0x40 SWAP1 KECCAK256 SLOAD SWAP1 JUMP JUMPDEST PUSH1 0x0 DUP1 DUP4 GT PUSH2 0x4102 JUMPI PUSH1 0x0 DUP1 REVERT JUMPDEST DUP2 DUP7 GT ISZERO PUSH2 0x4111 JUMPI POP DUP4 PUSH2 0x9F8 JUMP JUMPDEST PUSH1 0x0 PUSH2 0x411D DUP4 DUP9 PUSH2 0xB46 JUMP JUMPDEST SWAP1 POP DUP4 DUP2 GT ISZERO PUSH2 0x4130 JUMPI DUP6 SWAP2 POP POP PUSH2 0x9F8 JUMP JUMPDEST PUSH1 0x0 PUSH2 0x4144 DUP6 PUSH2 0xD47 DUP5 PUSH4 0x3B9ACA00 PUSH2 0x1C80 JUMP JUMPDEST SWAP1 POP PUSH1 0x0 PUSH2 0x4156 PUSH4 0x3B9ACA00 DUP4 PUSH2 0xB46 JUMP JUMPDEST SWAP1 POP PUSH1 0x0 PUSH2 0x4179 PUSH4 0x3B9ACA00 PUSH2 0xD47 PUSH2 0x416F DUP12 DUP7 PUSH2 0x1C80 JUMP JUMPDEST PUSH2 0x3D1 DUP14 DUP9 PUSH2 0x1C80 JUMP JUMPDEST SWAP11 SWAP10 POP POP POP POP POP POP POP POP POP POP JUMP JUMPDEST PUSH1 0x0 PUSH1 0xF DUP3 SWAP1 SIGNEXTEND PUSH1 0x1 PUSH1 0x1 PUSH1 0x7F SHL SUB NOT EQ ISZERO PUSH2 0x41A2 JUMPI PUSH1 0x0 DUP1 REVERT JUMPDEST POP PUSH1 0x0 SUB SWAP1 JUMP JUMPDEST DUP2 MLOAD MLOAD PUSH1 0x60 SWAP1 PUSH1 0x0 SWAP1 DUP2 SWAP1 PUSH2 0x41F3 JUMPI PUSH1 0x40 DUP1 MLOAD PUSH1 0x0 DUP1 DUP3 MSTORE PUSH1 0x20 DUP3 ADD SWAP1 SWAP3 MSTORE SWAP1 PUSH2 0x41E9 JUMP JUMPDEST PUSH2 0x41D6 PUSH2 0x4F4F JUMP JUMPDEST DUP2 MSTORE PUSH1 0x20 ADD SWAP1 PUSH1 0x1 SWAP1 SUB SWAP1 DUP2 PUSH2 0x41CE JUMPI SWAP1 POP JUMPDEST POP SWAP3 POP POP POP PUSH2 0x7CA JUMP JUMPDEST DUP5 MLOAD MLOAD JUMPDEST PUSH1 0x0 NOT DUP2 ADD SWAP1 ISZERO PUSH2 0x424E JUMPI PUSH1 0x0 DUP7 PUSH1 0x0 ADD MLOAD DUP3 DUP2 MLOAD DUP2 LT PUSH2 0x4214 JUMPI INVALID JUMPDEST PUSH1 0x20 MUL PUSH1 0x20 ADD ADD MLOAD SWAP1 POP DUP6 PUSH2 0x4228 DUP3 PUSH2 0x3F43 JUMP JUMPDEST GT ISZERO PUSH2 0x4234 JUMPI POP PUSH2 0x4249 JUMP JUMPDEST DUP1 MLOAD DUP4 EQ PUSH2 0x4247 JUMPI DUP1 MLOAD PUSH1 0x1 SWAP1 SWAP5 ADD SWAP4 SWAP3 POP JUMPDEST POP JUMPDEST PUSH2 0x41F7 JUMP JUMPDEST POP PUSH1 0x0 DUP3 PUSH8 0xFFFFFFFFFFFFFFFF DUP2 GT DUP1 ISZERO PUSH2 0x4268 JUMPI PUSH1 0x0 DUP1 REVERT JUMPDEST POP PUSH1 0x40 MLOAD SWAP1 DUP1 DUP3 MSTORE DUP1 PUSH1 0x20 MUL PUSH1 0x20 ADD DUP3 ADD PUSH1 0x40 MSTORE DUP1 ISZERO PUSH2 0x42A2 JUMPI DUP2 PUSH1 0x20 ADD JUMPDEST PUSH2 0x428F PUSH2 0x4F4F JUMP JUMPDEST DUP2 MSTORE PUSH1 0x20 ADD SWAP1 PUSH1 0x1 SWAP1 SUB SWAP1 DUP2 PUSH2 0x4287 JUMPI SWAP1 POP JUMPDEST POP SWAP1 POP DUP3 ISZERO PUSH2 0x9F8 JUMPI DUP2 DUP2 PUSH1 0x0 DUP2 MLOAD DUP2 LT PUSH2 0x42B9 JUMPI INVALID JUMPDEST PUSH1 0x20 SWAP1 DUP2 MUL SWAP2 SWAP1 SWAP2 ADD ADD MLOAD MSTORE SWAP6 SWAP5 POP POP POP POP POP JUMP JUMPDEST PUSH2 0x42D6 PUSH2 0x4F25 JUMP JUMPDEST PUSH1 0x0 DUP1 PUSH2 0x42E3 DUP7 DUP7 PUSH2 0x4C8B JUMP JUMPDEST SWAP2 POP SWAP2 POP DUP2 PUSH1 0x0 EQ ISZERO PUSH2 0x4413 JUMPI PUSH1 0x0 PUSH2 0x42FB DUP8 PUSH2 0x4014 JUMP JUMPDEST SWAP2 SWAP5 POP SWAP1 SWAP3 POP SWAP1 POP PUSH1 0x1 PUSH1 0x1 PUSH1 0xA0 SHL SUB DUP2 AND ISZERO PUSH2 0x4411 JUMPI PUSH1 0x0 PUSH2 0x431C PUSH2 0x4CD4 JUMP JUMPDEST SWAP1 POP DUP6 PUSH1 0x0 LT DUP1 ISZERO PUSH2 0x432E JUMPI POP DUP6 DUP8 GT ISZERO JUMPDEST DUP1 ISZERO PUSH2 0x433F JUMPI POP PUSH5 0xFFFFFFFFFF DUP7 GT ISZERO JUMPDEST PUSH2 0x4348 JUMPI PUSH1 0x0 DUP1 REVERT JUMPDEST DUP4 PUSH1 0x0 SLT DUP1 ISZERO PUSH2 0x435F JUMPI POP PUSH1 0x1 PUSH1 0x1 PUSH1 0x80 SHL SUB DUP5 SGT ISZERO JUMPDEST PUSH2 0x4368 JUMPI PUSH1 0x0 DUP1 REVERT JUMPDEST PUSH1 0x0 DUP9 DUP2 MSTORE PUSH1 0x20 DUP3 DUP2 MSTORE PUSH1 0x40 DUP1 DUP4 KECCAK256 DUP11 DUP5 MSTORE SWAP1 SWAP2 MSTORE SWAP1 DUP2 SWAP1 KECCAK256 DUP1 SLOAD PUSH5 0xFFFFFFFFFF NOT AND PUSH5 0xFFFFFFFFFF DUP10 AND OR PUSH21 0xFFFFFFFFFFFFFFFFFFFFFFFFFFFFFFFF0000000000 NOT AND PUSH6 0x10000000000 PUSH1 0x1 PUSH1 0x1 PUSH1 0x80 SHL SUB DUP9 AND MUL OR PUSH1 0xFF PUSH1 0xA8 SHL NOT AND PUSH1 0x1 PUSH1 0xA8 SHL PUSH1 0xFF DUP8 AND MUL OR DUP2 SSTORE SWAP1 MLOAD DUP9 SWAP1 DUP11 SWAP1 PUSH32 0xFDFA6885701E2F1F42E4187B9231CF81C1FE23671EF64FA46F34DDB56C1DC18 SWAP1 PUSH2 0x4406 SWAP1 DUP10 SWAP1 PUSH2 0x534A JUMP JUMPDEST PUSH1 0x40 MLOAD DUP1 SWAP2 SUB SWAP1 LOG3 POP POP JUMPDEST POP JUMPDEST PUSH1 0x40 DUP1 MLOAD PUSH1 0x60 DUP2 ADD DUP3 MSTORE PUSH1 0x0 DUP2 MSTORE PUSH1 0x20 DUP2 ADD SWAP4 SWAP1 SWAP4 MSTORE PUSH1 0xFF SWAP1 SWAP2 AND PUSH1 0xA EXP SWAP1 DUP3 ADD MSTORE SWAP1 POP SWAP4 SWAP3 POP POP POP JUMP JUMPDEST PUSH2 0x444C DUP5 DUP5 DUP5 PUSH1 0x1 DUP6 PUSH2 0x464B JUMP JUMPDEST POP POP POP POP JUMP JUMPDEST PUSH1 0x0 DUP1 DUP3 PUSH2 0x4465 JUMPI POP PUSH1 0x0 SWAP1 POP DUP1 PUSH2 0x3EB2 JUMP JUMPDEST PUSH1 0x0 DUP4 SGT PUSH2 0x4472 JUMPI PUSH1 0x0 DUP1 REVERT JUMPDEST PUSH2 0x4491 DUP5 PUSH1 0x80 ADD MLOAD PUSH2 0xAF6 DUP6 DUP8 PUSH1 0x60 ADD MLOAD PUSH2 0x1939 SWAP1 SWAP2 SWAP1 PUSH4 0xFFFFFFFF AND JUMP JUMPDEST SWAP2 POP PUSH2 0x44B2 DUP5 PUSH1 0x80 ADD MLOAD PUSH2 0xAF6 DUP6 DUP8 PUSH1 0x40 ADD MLOAD PUSH2 0x1939 SWAP1 SWAP2 SWAP1 PUSH4 0xFFFFFFFF AND JUMP JUMPDEST PUSH1 0x80 DUP6 ADD MLOAD SWAP1 SWAP2 POP PUSH2 0x44C4 SWAP1 DUP5 PUSH2 0x930 JUMP JUMPDEST PUSH1 0x80 DUP6 ADD MSTORE PUSH1 0x40 DUP5 ADD MLOAD PUSH2 0x44D8 SWAP1 DUP3 PUSH2 0x930 JUMP JUMPDEST PUSH1 0x40 DUP6 ADD MSTORE PUSH1 0x60 DUP5 ADD MLOAD PUSH2 0x44EC SWAP1 DUP4 PUSH2 0x930 JUMP JUMPDEST PUSH1 0x60 DUP6 ADD MSTORE PUSH2 0x3EB2 DUP5 PUSH2 0x4CE1 JUMP JUMPDEST PUSH1 0x0 DUP4 PUSH1 0x0 ADD MLOAD DUP4 DUP2 MLOAD DUP2 LT PUSH2 0x450C JUMPI INVALID JUMPDEST PUSH1 0x20 MUL PUSH1 0x20 ADD ADD MLOAD SWAP1 POP DUP3 PUSH1 0x0 EQ PUSH2 0x4597 JUMPI PUSH1 0x0 DUP5 PUSH1 0x0 ADD MLOAD PUSH1 0x1 DUP6 SUB DUP2 MLOAD DUP2 LT PUSH2 0x4533 JUMPI INVALID JUMPDEST PUSH1 0x20 MUL PUSH1 0x20 ADD ADD MLOAD SWAP1 POP DUP2 PUSH1 0x0 ADD MLOAD DUP2 PUSH1 0x0 ADD MLOAD EQ DUP1 ISZERO PUSH2 0x455B JUMPI POP DUP2 PUSH1 0x20 ADD MLOAD DUP2 PUSH1 0x20 ADD MLOAD EQ JUMPDEST DUP1 ISZERO PUSH2 0x456B JUMPI POP PUSH1 0x40 DUP2 ADD MLOAD PUSH1 0x1 EQ JUMPDEST ISZERO PUSH2 0x4595 JUMPI PUSH1 0x60 DUP2 ADD MLOAD PUSH2 0x457F SWAP1 DUP5 PUSH2 0x2B68 JUMP JUMPDEST PUSH1 0x60 DUP3 ADD MSTORE PUSH1 0x1 PUSH1 0xA0 DUP3 ADD MSTORE PUSH2 0x4595 DUP6 DUP6 PUSH2 0x2085 JUMP JUMPDEST POP JUMPDEST PUSH1 0x1 PUSH1 0x40 DUP3 ADD DUP2 SWAP1 MSTORE PUSH1 0x60 DUP3 ADD SWAP3 SWAP1 SWAP3 MSTORE PUSH1 0xA0 ADD MSTORE POP POP JUMP JUMPDEST PUSH1 0x0 DUP1 PUSH2 0x45BB PUSH2 0x26DC JUMP JUMPDEST PUSH1 0x1 PUSH1 0x1 PUSH1 0xA0 SHL SUB DUP8 AND PUSH1 0x0 SWAP1 DUP2 MSTORE PUSH1 0x20 DUP3 DUP2 MSTORE PUSH1 0x40 DUP1 DUP4 KECCAK256 DUP10 DUP5 MSTORE DUP3 MSTORE DUP1 DUP4 KECCAK256 DUP9 DUP5 MSTORE SWAP1 SWAP2 MSTORE DUP2 KECCAK256 SLOAD SWAP2 SWAP3 POP PUSH1 0xF SWAP2 DUP3 SIGNEXTEND SWAP1 SWAP2 SIGNEXTEND SWAP1 PUSH2 0x45FC DUP8 DUP8 DUP8 PUSH2 0x42CE JUMP JUMPDEST SWAP1 POP PUSH2 0x4608 DUP2 DUP4 PUSH2 0x156C JUMP JUMPDEST PUSH1 0x1 PUSH1 0x1 PUSH1 0xA0 SHL SUB SWAP9 SWAP1 SWAP9 AND PUSH1 0x0 SWAP1 DUP2 MSTORE PUSH1 0x20 SWAP4 DUP5 MSTORE PUSH1 0x40 DUP1 DUP3 KECCAK256 SWAP9 DUP3 MSTORE SWAP8 DUP5 MSTORE DUP8 DUP2 KECCAK256 SWAP7 DUP2 MSTORE SWAP6 SWAP1 SWAP3 MSTORE POP POP POP SWAP2 SWAP1 KECCAK256 DUP1 SLOAD PUSH1 0x1 PUSH1 0x1 PUSH1 0x80 SHL SUB NOT AND SWAP1 SSTORE POP SWAP1 JUMP JUMPDEST PUSH1 0x0 PUSH2 0x4655 PUSH2 0x3C44 JUMP JUMPDEST PUSH1 0x0 DUP7 DUP2 MSTORE PUSH1 0x20 DUP3 DUP2 MSTORE PUSH1 0x40 DUP1 DUP4 KECCAK256 DUP9 DUP5 MSTORE DUP3 MSTORE DUP1 DUP4 KECCAK256 DUP7 DUP5 MSTORE DUP3 MSTORE SWAP2 DUP3 SWAP1 KECCAK256 DUP1 DUP11 MSTORE SWAP1 DUP10 ADD DUP8 SWAP1 MSTORE DUP1 SLOAD PUSH1 0x1 PUSH1 0x1 PUSH1 0x50 SHL SUB DUP1 DUP3 AND SWAP4 DUP12 ADD SWAP4 SWAP1 SWAP4 MSTORE PUSH1 0x1 PUSH1 0x50 SHL DUP2 DIV SWAP1 SWAP3 AND PUSH1 0x60 DUP11 ADD MSTORE PUSH4 0xFFFFFFFF PUSH1 0x1 PUSH1 0xA0 SHL DUP4 DIV DUP2 AND PUSH1 0xA0 DUP12 ADD MSTORE PUSH1 0x1 PUSH1 0xC0 SHL DUP4 DIV DUP2 AND PUSH1 0xC0 DUP12 ADD MSTORE PUSH1 0x1 PUSH1 0xE0 SHL SWAP1 SWAP3 DIV SWAP1 SWAP2 AND PUSH1 0xE0 DUP10 ADD MSTORE SWAP1 SWAP2 POP DUP1 DUP5 ISZERO PUSH2 0x46F4 JUMPI PUSH1 0x1 DUP3 ADD SLOAD PUSH1 0x1 PUSH1 0x1 PUSH1 0x50 SHL SUB AND PUSH1 0x80 DUP10 ADD MSTORE PUSH2 0x46FC JUMP JUMPDEST PUSH1 0x0 PUSH1 0x80 DUP10 ADD MSTORE JUMPDEST POP POP POP POP POP POP POP POP JUMP JUMPDEST PUSH1 0x0 PUSH2 0x7C7 PUSH2 0x4719 DUP5 PUSH4 0x3B9ACA00 PUSH2 0x1939 JUMP JUMPDEST DUP4 PUSH2 0x1987 JUMP JUMPDEST PUSH1 0x0 DUP1 PUSH4 0x3B9ACA00 DUP4 EQ ISZERO PUSH2 0x4739 JUMPI POP PUSH1 0x0 SWAP1 POP DUP1 PUSH2 0x47BC JUMP JUMPDEST PUSH1 0x0 PUSH2 0x4753 PUSH2 0x474C PUSH4 0x3B9ACA00 DUP7 PUSH2 0x1556 JUMP JUMPDEST DUP6 SWAP1 PUSH2 0x4706 JUMP JUMPDEST SWAP1 POP PUSH1 0x0 PUSH2 0x4760 DUP3 PUSH2 0x1D59 JUMP JUMPDEST SWAP1 POP PUSH1 0x0 DUP2 PUSH1 0xF SIGNEXTEND SGT PUSH2 0x477B JUMPI PUSH1 0x0 DUP1 SWAP4 POP SWAP4 POP POP POP PUSH2 0x47BC JUMP JUMPDEST PUSH1 0x0 PUSH2 0x47AF PUSH2 0x47AA PUSH2 0x479E PUSH2 0x478F DUP6 PUSH2 0x3140 JUMP JUMPDEST PUSH9 0x14B927F32BFFB83338 PUSH2 0x4D39 JUMP JUMPDEST PUSH3 0x1DCD65 PUSH1 0x49 SHL PUSH2 0x1E67 JUMP JUMPDEST PUSH2 0x1E9D JUMP JUMPDEST PUSH1 0x7 SIGNEXTEND SWAP5 POP PUSH1 0x1 SWAP4 POP POP POP POP JUMPDEST SWAP2 POP SWAP2 JUMP JUMPDEST PUSH1 0x0 DUP1 DUP3 PUSH1 0xF SIGNEXTEND SGT PUSH2 0x47D2 JUMPI PUSH1 0x0 DUP1 REVERT JUMPDEST PUSH1 0x0 PUSH1 0xF DUP4 SWAP1 SIGNEXTEND PUSH1 0x1 PUSH1 0x40 SHL DUP2 SLT PUSH2 0x47EC JUMPI PUSH1 0x40 SWAP2 DUP3 ADD SWAP2 SAR JUMPDEST PUSH5 0x100000000 DUP2 SLT PUSH2 0x4800 JUMPI PUSH1 0x20 SWAP2 DUP3 ADD SWAP2 SAR JUMPDEST PUSH3 0x10000 DUP2 SLT PUSH2 0x4812 JUMPI PUSH1 0x10 SWAP2 DUP3 ADD SWAP2 SAR JUMPDEST PUSH2 0x100 DUP2 SLT PUSH2 0x4823 JUMPI PUSH1 0x8 SWAP2 DUP3 ADD SWAP2 SAR JUMPDEST PUSH1 0x10 DUP2 SLT PUSH2 0x4833 JUMPI PUSH1 0x4 SWAP2 DUP3 ADD SWAP2 SAR JUMPDEST PUSH1 0x4 DUP2 SLT PUSH2 0x4843 JUMPI PUSH1 0x2 SWAP2 DUP3 ADD SWAP2 SAR JUMPDEST PUSH1 0x2 DUP2 SLT PUSH2 0x4852 JUMPI PUSH1 0x1 DUP3 ADD SWAP2 POP JUMPDEST PUSH1 0x3F NOT DUP3 ADD PUSH1 0x40 SHL PUSH1 0xF DUP6 SWAP1 SIGNEXTEND PUSH1 0x7F DUP5 SWAP1 SUB SHL PUSH1 0x1 PUSH1 0x3F SHL JUMPDEST PUSH1 0x0 DUP2 SGT ISZERO PUSH2 0x4891 JUMPI SWAP1 DUP1 MUL PUSH1 0xFF DUP2 SWAP1 SHR DUP3 DUP2 MUL SWAP4 SWAP1 SWAP4 ADD SWAP3 PUSH1 0x7F ADD SHR SWAP1 PUSH1 0x1 SAR PUSH2 0x486B JUMP JUMPDEST POP SWAP1 SWAP6 SWAP5 POP POP POP POP POP JUMP JUMPDEST PUSH1 0x1 DUP2 SWAP1 SHR PUSH32 0x5555555555555555555555555555555555555555555555555555555555555555 SWAP1 DUP2 AND SWAP2 AND ADD PUSH1 0x2 DUP2 SWAP1 SHR PUSH32 0x3333333333333333333333333333333333333333333333333333333333333333 SWAP1 DUP2 AND SWAP2 AND ADD PUSH1 0x4 DUP2 SWAP1 SHR PUSH32 0x707070707070707070707070707070707070707070707070707070707070707 SWAP2 SWAP1 SWAP2 AND ADD PUSH1 0x8 DUP2 SWAP1 SHR PUSH31 0xF000F000F000F000F000F000F000F000F000F000F000F000F000F000F000F SWAP1 DUP2 AND SWAP2 AND ADD PUSH1 0x10 DUP2 SWAP1 SHR ADD PUSH1 0x20 DUP2 SWAP1 SHR ADD PUSH1 0x40 DUP2 SWAP1 SHR ADD PUSH1 0x80 DUP2 SWAP1 SHR PUSH1 0xFF SWAP1 DUP2 AND SWAP2 AND ADD SWAP1 JUMP JUMPDEST PUSH1 0x60 PUSH1 0x10 DUP3 PUSH1 0xFF AND GT ISZERO PUSH2 0x497F JUMPI PUSH1 0x0 DUP1 REVERT JUMPDEST PUSH1 0x0 PUSH2 0x4989 PUSH2 0x2361 JUMP JUMPDEST PUSH1 0x1 PUSH1 0x1 PUSH1 0xA0 SHL SUB DUP6 AND PUSH1 0x0 SWAP1 DUP2 MSTORE PUSH1 0x20 DUP3 SWAP1 MSTORE PUSH1 0x40 DUP2 KECCAK256 SWAP2 SWAP3 POP PUSH1 0xFF DUP6 AND PUSH8 0xFFFFFFFFFFFFFFFF DUP2 GT DUP1 ISZERO PUSH2 0x49BE JUMPI PUSH1 0x0 DUP1 REVERT JUMPDEST POP PUSH1 0x40 MLOAD SWAP1 DUP1 DUP3 MSTORE DUP1 PUSH1 0x20 MUL PUSH1 0x20 ADD DUP3 ADD PUSH1 0x40 MSTORE DUP1 ISZERO PUSH2 0x49F8 JUMPI DUP2 PUSH1 0x20 ADD JUMPDEST PUSH2 0x49E5 PUSH2 0x4EE5 JUMP JUMPDEST DUP2 MSTORE PUSH1 0x20 ADD SWAP1 PUSH1 0x1 SWAP1 SUB SWAP1 DUP2 PUSH2 0x49DD JUMPI SWAP1 POP JUMPDEST POP SWAP1 POP PUSH1 0x0 JUMPDEST DUP6 PUSH1 0xFF AND DUP2 LT ISZERO PUSH2 0x4A84 JUMPI PUSH1 0x0 DUP4 DUP3 PUSH1 0x10 DUP2 LT PUSH2 0x4A17 JUMPI INVALID JUMPDEST ADD SWAP1 POP PUSH1 0x0 DUP4 DUP4 DUP2 MLOAD DUP2 LT PUSH2 0x4A28 JUMPI INVALID JUMPDEST PUSH1 0x20 SWAP1 DUP2 MUL SWAP2 SWAP1 SWAP2 ADD DUP2 ADD MLOAD DUP4 SLOAD PUSH2 0xFFFF DUP2 AND DUP3 MSTORE PUSH5 0xFFFFFFFFFF PUSH3 0x10000 DUP3 DIV AND SWAP3 DUP3 ADD SWAP3 SWAP1 SWAP3 MSTORE PUSH1 0xFF PUSH1 0x1 PUSH1 0x38 SHL DUP4 DIV AND PUSH1 0x40 DUP3 ADD MSTORE PUSH1 0x1 PUSH1 0x40 SHL SWAP1 SWAP2 DIV PUSH1 0xA SWAP1 DUP2 SIGNEXTEND SWAP1 SIGNEXTEND PUSH1 0x60 DUP3 ADD MSTORE PUSH1 0x80 ADD SWAP2 SWAP1 SWAP2 MSTORE POP PUSH1 0x1 ADD PUSH2 0x49FE JUMP JUMPDEST POP SWAP6 SWAP5 POP POP POP POP POP JUMP JUMPDEST DUP1 MLOAD PUSH1 0x0 DUP2 PUSH8 0xFFFFFFFFFFFFFFFF DUP2 GT DUP1 ISZERO PUSH2 0x4AA9 JUMPI PUSH1 0x0 DUP1 REVERT JUMPDEST POP PUSH1 0x40 MLOAD SWAP1 DUP1 DUP3 MSTORE DUP1 PUSH1 0x20 MUL PUSH1 0x20 ADD DUP3 ADD PUSH1 0x40 MSTORE DUP1 ISZERO PUSH2 0x4AD3 JUMPI DUP2 PUSH1 0x20 ADD PUSH1 0x20 DUP3 MUL DUP1 CALLDATASIZE DUP4 CALLDATACOPY ADD SWAP1 POP JUMPDEST POP SWAP1 POP PUSH1 0x0 JUMPDEST DUP3 DUP2 LT ISZERO PUSH2 0x4B30 JUMPI PUSH1 0x0 DUP5 DUP3 DUP2 MLOAD DUP2 LT PUSH2 0x4AEF JUMPI INVALID JUMPDEST PUSH1 0x20 MUL PUSH1 0x20 ADD ADD MLOAD SWAP1 POP PUSH2 0x4B10 DUP2 PUSH1 0x0 ADD MLOAD DUP3 PUSH1 0x20 ADD MLOAD DUP4 PUSH1 0x40 ADD MLOAD PUSH2 0x4D6C JUMP JUMPDEST DUP4 DUP4 DUP2 MLOAD DUP2 LT PUSH2 0x4B1C JUMPI INVALID JUMPDEST PUSH1 0x20 SWAP1 DUP2 MUL SWAP2 SWAP1 SWAP2 ADD ADD MSTORE POP PUSH1 0x1 ADD PUSH2 0x4AD9 JUMP JUMPDEST POP PUSH1 0x1 JUMPDEST DUP3 DUP2 LT ISZERO PUSH2 0x444C JUMPI DUP1 JUMPDEST PUSH1 0x0 DUP2 GT DUP1 ISZERO PUSH2 0x4B76 JUMPI POP DUP3 DUP2 DUP2 MLOAD DUP2 LT PUSH2 0x4B55 JUMPI INVALID JUMPDEST PUSH1 0x20 MUL PUSH1 0x20 ADD ADD MLOAD DUP4 PUSH1 0x1 DUP4 SUB DUP2 MLOAD DUP2 LT PUSH2 0x4B6C JUMPI INVALID JUMPDEST PUSH1 0x20 MUL PUSH1 0x20 ADD ADD MLOAD GT JUMPDEST ISZERO PUSH2 0x4C3E JUMPI DUP3 DUP2 DUP2 MLOAD DUP2 LT PUSH2 0x4B87 JUMPI INVALID JUMPDEST PUSH1 0x20 MUL PUSH1 0x20 ADD ADD MLOAD DUP4 PUSH1 0x1 DUP4 SUB DUP2 MLOAD DUP2 LT PUSH2 0x4B9E JUMPI INVALID JUMPDEST PUSH1 0x20 MUL PUSH1 0x20 ADD ADD MLOAD DUP5 PUSH1 0x1 DUP5 SUB DUP2 MLOAD DUP2 LT PUSH2 0x4BB5 JUMPI INVALID JUMPDEST PUSH1 0x20 MUL PUSH1 0x20 ADD ADD DUP6 DUP5 DUP2 MLOAD DUP2 LT PUSH2 0x4BC8 JUMPI INVALID JUMPDEST PUSH1 0x20 MUL PUSH1 0x20 ADD ADD DUP3 DUP2 MSTORE POP DUP3 DUP2 MSTORE POP POP POP DUP5 DUP2 DUP2 MLOAD DUP2 LT PUSH2 0x4BE5 JUMPI INVALID JUMPDEST PUSH1 0x20 MUL PUSH1 0x20 ADD ADD MLOAD DUP6 PUSH1 0x1 DUP4 SUB DUP2 MLOAD DUP2 LT PUSH2 0x4BFC JUMPI INVALID JUMPDEST PUSH1 0x20 MUL PUSH1 0x20 ADD ADD MLOAD DUP7 PUSH1 0x1 DUP5 SUB DUP2 MLOAD DUP2 LT PUSH2 0x4C13 JUMPI INVALID JUMPDEST PUSH1 0x20 MUL PUSH1 0x20 ADD ADD DUP8 DUP5 DUP2 MLOAD DUP2 LT PUSH2 0x4C26 JUMPI INVALID JUMPDEST PUSH1 0x20 SWAP1 DUP2 MUL SWAP2 SWAP1 SWAP2 ADD ADD SWAP2 SWAP1 SWAP2 MSTORE MSTORE PUSH1 0x0 NOT ADD PUSH2 0x4B3E JUMP JUMPDEST POP PUSH1 0x1 ADD PUSH2 0x4B34 JUMP JUMPDEST PUSH1 0x0 DUP1 PUSH1 0x0 PUSH2 0x4C54 PUSH2 0x4DC7 JUMP JUMPDEST PUSH1 0x0 SWAP5 DUP6 MSTORE PUSH1 0x20 MSTORE POP POP PUSH1 0x40 SWAP1 SWAP2 KECCAK256 SLOAD PUSH1 0x1 PUSH1 0x1 PUSH1 0xA0 SHL SUB DUP2 AND SWAP3 PUSH1 0x1 PUSH1 0xA0 SHL SWAP1 SWAP2 DIV PUSH1 0xFF AND SWAP2 POP JUMP JUMPDEST PUSH1 0x0 DUP1 PUSH2 0x7CA PUSH1 0x9 PUSH2 0x3FAA JUMP JUMPDEST PUSH1 0x0 DUP1 PUSH1 0x0 PUSH2 0x4C98 PUSH2 0x4CD4 JUMP JUMPDEST PUSH1 0x0 SWAP6 DUP7 MSTORE PUSH1 0x20 SWAP1 DUP2 MSTORE PUSH1 0x40 DUP1 DUP8 KECCAK256 SWAP6 DUP8 MSTORE SWAP5 SWAP1 MSTORE POP POP POP SWAP1 KECCAK256 SLOAD PUSH6 0x10000000000 DUP2 DIV PUSH1 0x1 PUSH1 0x1 PUSH1 0x80 SHL SUB AND SWAP2 PUSH1 0x1 PUSH1 0xA8 SHL SWAP1 SWAP2 DIV PUSH1 0xFF AND SWAP1 JUMP JUMPDEST PUSH1 0x0 DUP1 PUSH2 0x7CA PUSH1 0x8 PUSH2 0x3FAA JUMP JUMPDEST PUSH1 0x0 PUSH2 0x4CEC DUP3 PUSH2 0x4DD4 JUMP JUMPDEST SWAP1 POP PUSH1 0x0 DUP2 PUSH1 0x0 ADD PUSH1 0x18 SWAP1 SLOAD SWAP1 PUSH2 0x100 EXP SWAP1 DIV PUSH4 0xFFFFFFFF AND SWAP1 POP PUSH2 0x4D2B DUP3 DUP5 PUSH1 0x40 ADD MLOAD DUP6 PUSH1 0x60 ADD MLOAD DUP7 PUSH1 0xA0 ADD MLOAD DUP6 PUSH4 0xFFFFFFFF AND DUP9 PUSH1 0xE0 ADD MLOAD PUSH2 0x3C51 JUMP JUMPDEST PUSH2 0x96A DUP3 DUP5 PUSH1 0x80 ADD MLOAD PUSH2 0x3D65 JUMP JUMPDEST PUSH1 0x0 PUSH1 0xF DUP3 DUP2 SIGNEXTEND SWAP1 DUP5 SWAP1 SIGNEXTEND SUB PUSH1 0x1 PUSH1 0x1 PUSH1 0x7F SHL SUB NOT DUP2 SLT DUP1 ISZERO SWAP1 PUSH2 0x1DD6 JUMPI POP PUSH1 0x1 PUSH1 0x1 PUSH1 0x7F SHL SUB DUP2 SGT ISZERO PUSH2 0x7C7 JUMPI PUSH1 0x0 DUP1 REVERT JUMPDEST PUSH1 0x0 PUSH2 0x3FFF DUP5 GT ISZERO PUSH2 0x4D7D JUMPI PUSH1 0x0 DUP1 REVERT JUMPDEST PUSH5 0xFFFFFFFFFF DUP4 GT ISZERO PUSH2 0x4D8F JUMPI PUSH1 0x0 DUP1 REVERT JUMPDEST PUSH1 0x8 DUP3 GT ISZERO PUSH2 0x4D9D JUMPI PUSH1 0x0 DUP1 REVERT JUMPDEST POP PUSH8 0xFFFF000000000000 PUSH1 0x30 DUP5 SWAP1 SHL AND PUSH6 0xFFFFFFFFFF00 PUSH1 0x8 DUP5 SWAP1 SHL AND OR PUSH1 0xFF DUP3 AND OR SWAP4 SWAP3 POP POP POP JUMP JUMPDEST PUSH1 0x0 DUP1 PUSH2 0x7CA PUSH1 0xF PUSH2 0x3FAA JUMP JUMPDEST MLOAD SWAP1 JUMP JUMPDEST PUSH1 0x40 MLOAD DUP1 PUSH1 0xE0 ADD PUSH1 0x40 MSTORE DUP1 PUSH2 0x4DEB PUSH2 0x4E91 JUMP JUMPDEST DUP2 MSTORE PUSH1 0x20 ADD PUSH2 0x4DF8 PUSH2 0x4EBD JUMP JUMPDEST DUP2 MSTORE PUSH1 0x0 PUSH1 0x20 DUP3 ADD DUP2 SWAP1 MSTORE PUSH1 0x40 DUP3 ADD DUP2 SWAP1 MSTORE PUSH1 0x60 DUP3 ADD DUP2 SWAP1 MSTORE PUSH1 0x80 DUP3 ADD DUP2 SWAP1 MSTORE PUSH1 0xA0 SWAP1 SWAP2 ADD MSTORE SWAP1 JUMP JUMPDEST PUSH1 0x40 MLOAD DUP1 PUSH2 0x100 ADD PUSH1 0x40 MSTORE DUP1 PUSH1 0x0 DUP1 NOT AND DUP2 MSTORE PUSH1 0x20 ADD PUSH1 0x0 DUP2 MSTORE PUSH1 0x20 ADD PUSH1 0x0 DUP2 MSTORE PUSH1 0x20 ADD PUSH1 0x0 DUP2 MSTORE PUSH1 0x20 ADD PUSH1 0x0 DUP2 MSTORE PUSH1 0x20 ADD PUSH1 0x0 DUP2 MSTORE PUSH1 0x20 ADD PUSH1 0x0 DUP2 MSTORE PUSH1 0x20 ADD PUSH1 0x0 DUP2 MSTORE POP SWAP1 JUMP JUMPDEST PUSH1 0x40 MLOAD DUP1 PUSH1 0x80 ADD PUSH1 0x40 MSTORE DUP1 PUSH1 0x60 DUP2 MSTORE PUSH1 0x20 ADD PUSH1 0x60 DUP2 MSTORE PUSH1 0x20 ADD PUSH1 0x60 DUP2 MSTORE PUSH1 0x20 ADD PUSH1 0x60 DUP2 MSTORE POP SWAP1 JUMP JUMPDEST PUSH1 0x40 DUP1 MLOAD PUSH1 0x80 DUP2 ADD DUP3 MSTORE PUSH1 0x0 DUP1 DUP3 MSTORE PUSH1 0x20 DUP3 ADD MSTORE SWAP1 DUP2 ADD PUSH2 0x4EB0 PUSH2 0x4F25 JUMP JUMPDEST DUP2 MSTORE PUSH1 0x0 PUSH1 0x20 SWAP1 SWAP2 ADD MSTORE SWAP1 JUMP JUMPDEST PUSH1 0x40 MLOAD DUP1 PUSH1 0x80 ADD PUSH1 0x40 MSTORE DUP1 PUSH1 0x60 DUP2 MSTORE PUSH1 0x20 ADD PUSH1 0x60 DUP2 MSTORE PUSH1 0x20 ADD PUSH1 0x0 DUP2 MSTORE PUSH1 0x20 ADD PUSH1 0x0 DUP2 MSTORE POP SWAP1 JUMP JUMPDEST PUSH1 0x40 MLOAD DUP1 PUSH1 0xC0 ADD PUSH1 0x40 MSTORE DUP1 PUSH1 0x0 DUP2 MSTORE PUSH1 0x20 ADD PUSH1 0x0 DUP2 MSTORE PUSH1 0x20 ADD PUSH1 0x0 DUP2 MSTORE PUSH1 0x20 ADD PUSH1 0x0 DUP2 MSTORE PUSH1 0x20 ADD PUSH1 0x0 DUP2 MSTORE PUSH1 0x20 ADD PUSH1 0x0 PUSH1 0x3 DUP2 GT ISZERO PUSH2 0x4F20 JUMPI INVALID JUMPDEST SWAP1 MSTORE SWAP1 JUMP JUMPDEST PUSH1 0x40 MLOAD DUP1 PUSH1 0x60 ADD PUSH1 0x40 MSTORE DUP1 PUSH1 0x0 PUSH1 0x1 PUSH1 0x1 PUSH1 0xA0 SHL SUB AND DUP2 MSTORE PUSH1 0x20 ADD PUSH1 0x0 DUP2 MSTORE PUSH1 0x20 ADD PUSH1 0x0 DUP2 MSTORE POP SWAP1 JUMP JUMPDEST PUSH1 0x40 MLOAD DUP1 PUSH1 0x40 ADD PUSH1 0x40 MSTORE DUP1 PUSH1 0x0 DUP2 MSTORE PUSH1 0x20 ADD PUSH1 0x0 DUP2 MSTORE POP SWAP1 JUMP JUMPDEST DUP1 CALLDATALOAD PUSH2 0xFFFF DUP2 AND DUP2 EQ PUSH2 0x768 JUMPI PUSH1 0x0 DUP1 REVERT JUMPDEST PUSH1 0x0 PUSH1 0x20 DUP3 DUP5 SUB SLT ISZERO PUSH2 0x4F8C JUMPI DUP1 DUP2 REVERT JUMPDEST POP MLOAD SWAP2 SWAP1 POP JUMP JUMPDEST PUSH1 0x0 PUSH1 0x20 DUP3 DUP5 SUB SLT ISZERO PUSH2 0x4FA4 JUMPI DUP1 DUP2 REVERT JUMPDEST PUSH2 0x7C7 DUP3 PUSH2 0x4F69 JUMP JUMPDEST PUSH1 0x0 DUP1 PUSH1 0x40 DUP4 DUP6 SUB SLT ISZERO PUSH2 0x4FBF JUMPI DUP1 DUP2 REVERT JUMPDEST PUSH2 0x4FC8 DUP4 PUSH2 0x4F69 JUMP JUMPDEST SWAP2 POP PUSH1 0x20 DUP4 ADD CALLDATALOAD DUP1 ISZERO ISZERO DUP2 EQ PUSH2 0x4FDC JUMPI DUP2 DUP3 REVERT JUMPDEST DUP1 SWAP2 POP POP SWAP3 POP SWAP3 SWAP1 POP JUMP JUMPDEST PUSH1 0x1 PUSH1 0x1 PUSH1 0xA0 SHL SUB SWAP2 SWAP1 SWAP2 AND DUP2 MSTORE PUSH1 0x20 ADD SWAP1 JUMP JUMPDEST PUSH1 0x20 DUP1 DUP3 MSTORE PUSH1 0x17 SWAP1 DUP3 ADD MSTORE PUSH32 0x496E76616C696420737765657020636173682074696D65000000000000000000 PUSH1 0x40 DUP3 ADD MSTORE PUSH1 0x60 ADD SWAP1 JUMP JUMPDEST PUSH1 0x20 DUP1 DUP3 MSTORE PUSH1 0x16 SWAP1 DUP3 ADD MSTORE PUSH22 0x13585C9AD95D081B9BDD081A5B9A5D1A585B1A5E9959 PUSH1 0x52 SHL PUSH1 0x40 DUP3 ADD MSTORE PUSH1 0x60 ADD SWAP1 JUMP JUMPDEST PUSH1 0x20 DUP1 DUP3 MSTORE PUSH1 0x14 SWAP1 DUP3 ADD MSTORE PUSH20 0x4F7261636C652072617465206F766572666C6F77 PUSH1 0x60 SHL PUSH1 0x40 DUP3 ADD MSTORE PUSH1 0x60 ADD SWAP1 JUMP JUMPDEST PUSH1 0x20 DUP1 DUP3 MSTORE PUSH1 0x17 SWAP1 DUP3 ADD MSTORE PUSH32 0x4D75737420696E697469616C697A65206D61726B657473000000000000000000 PUSH1 0x40 DUP3 ADD MSTORE PUSH1 0x60 ADD SWAP1 JUMP JUMPDEST PUSH1 0x20 DUP1 DUP3 MSTORE PUSH1 0x15 SWAP1 DUP3 ADD MSTORE PUSH21 0x10D1CE881B9BC81B585C9AD95D1CC81B1A5CDD1959 PUSH1 0x5A SHL PUSH1 0x40 DUP3 ADD MSTORE PUSH1 0x60 ADD SWAP1 JUMP JUMPDEST PUSH1 0x20 DUP1 DUP3 MSTORE PUSH1 0xD SWAP1 DUP3 ADD MSTORE PUSH13 0x92DCECC2D8D2C840D2DCC8CAF PUSH1 0x9B SHL PUSH1 0x40 DUP3 ADD MSTORE PUSH1 0x60 ADD SWAP1 JUMP JUMPDEST PUSH1 0x20 DUP1 DUP3 MSTORE PUSH1 0x13 SWAP1 DUP3 ADD MSTORE PUSH19 0x24A69D1039B4BC1036B7B73A341032B93937B9 PUSH1 0x69 SHL PUSH1 0x40 DUP3 ADD MSTORE PUSH1 0x60 ADD SWAP1 JUMP JUMPDEST PUSH1 0x20 DUP1 DUP3 MSTORE PUSH1 0x10 SWAP1 DUP3 ADD MSTORE PUSH16 0x4E6F206E546F6B656E20617373657473 PUSH1 0x80 SHL PUSH1 0x40 DUP3 ADD MSTORE PUSH1 0x60 ADD SWAP1 JUMP JUMPDEST PUSH1 0x20 DUP1 DUP3 MSTORE PUSH1 0xF SWAP1 DUP3 ADD MSTORE PUSH15 0x4F766572206D617820617373657473 PUSH1 0x88 SHL PUSH1 0x40 DUP3 ADD MSTORE PUSH1 0x60 ADD SWAP1 JUMP JUMPDEST PUSH1 0x20 DUP1 DUP3 MSTORE PUSH1 0x17 SWAP1 DUP3 ADD MSTORE PUSH32 0x494D3A20696E746572706F6C6174696F6E206572726F72000000000000000000 PUSH1 0x40 DUP3 ADD MSTORE PUSH1 0x60 ADD SWAP1 JUMP JUMPDEST PUSH1 0x20 DUP1 DUP3 MSTORE PUSH1 0x16 SWAP1 DUP3 ADD MSTORE PUSH22 0x10D1CE881B585C9AD95D081A5B99195E08189BDD5B99 PUSH1 0x52 SHL PUSH1 0x40 DUP3 ADD MSTORE PUSH1 0x60 ADD SWAP1 JUMP JUMPDEST PUSH1 0x20 DUP1 DUP3 MSTORE PUSH1 0x15 SWAP1 DUP3 ADD MSTORE PUSH21 0x929A7440D2DCE6EACCCCD2C6D2CADCE840C6C2E6D PUSH1 0x5B SHL PUSH1 0x40 DUP3 ADD MSTORE PUSH1 0x60 ADD SWAP1 JUMP JUMPDEST PUSH1 0x20 DUP1 DUP3 MSTORE PUSH1 0x12 SWAP1 DUP3 ADD MSTORE PUSH18 0x12534E881B9BDD08199A5C9CDD081A5B9A5D PUSH1 0x72 SHL PUSH1 0x40 DUP3 ADD MSTORE PUSH1 0x60 ADD SWAP1 JUMP JUMPDEST PUSH1 0x20 DUP1 DUP3 MSTORE PUSH1 0x10 SWAP1 DUP3 ADD MSTORE PUSH16 0x494D3A20696E76616C69642074696D65 PUSH1 0x80 SHL PUSH1 0x40 DUP3 ADD MSTORE PUSH1 0x60 ADD SWAP1 JUMP JUMPDEST PUSH1 0x20 DUP1 DUP3 MSTORE PUSH1 0x13 SWAP1 DUP3 ADD MSTORE PUSH19 0x50543A20696E69742076616C7565207A65726F PUSH1 0x68 SHL PUSH1 0x40 DUP3 ADD MSTORE PUSH1 0x60 ADD SWAP1 JUMP JUMPDEST PUSH1 0x20 DUP1 DUP3 MSTORE PUSH1 0x13 SWAP1 DUP3 ADD MSTORE PUSH19 0x10D1CE881B9BC81B585C9AD95D08199BDD5B99 PUSH1 0x6A SHL PUSH1 0x40 DUP3 ADD MSTORE PUSH1 0x60 ADD SWAP1 JUMP JUMPDEST PUSH1 0x20 DUP1 DUP3 MSTORE PUSH1 0x16 SWAP1 DUP3 ADD MSTORE PUSH22 0x12534E881B9BC81B585C9AD95D1CC81D1BC81A5B9A5D PUSH1 0x52 SHL PUSH1 0x40 DUP3 ADD MSTORE PUSH1 0x60 ADD SWAP1 JUMP JUMPDEST PUSH1 0x20 DUP1 DUP3 MSTORE PUSH1 0x17 SWAP1 DUP3 ADD MSTORE PUSH32 0x494D3A20696D706C6965642072617465206661696C6564000000000000000000 PUSH1 0x40 DUP3 ADD MSTORE PUSH1 0x60 ADD SWAP1 JUMP JUMPDEST PUSH1 0x1 PUSH1 0x1 PUSH1 0x80 SHL SUB SWAP2 SWAP1 SWAP2 AND DUP2 MSTORE PUSH1 0x20 ADD SWAP1 JUMP JUMPDEST PUSH2 0xFFFF SWAP2 SWAP1 SWAP2 AND DUP2 MSTORE PUSH1 0x20 ADD SWAP1 JUMP JUMPDEST PUSH2 0xFFFF SWAP3 SWAP1 SWAP3 AND DUP3 MSTORE PUSH1 0x20 DUP3 ADD MSTORE PUSH1 0x40 ADD SWAP1 JUMP INVALID MSTORE8 PUSH2 0x6665 0x4D PUSH2 0x7468 GASPRICE KECCAK256 PUSH14 0x756C7469706C69636174696F6E20 PUSH16 0x766572666C6F77A26469706673582212 KECCAK256 PUSH5 0x50A3B2F25E CHAINID CHAINID 0xDF XOR SLT CALL PUSH32 0xB029168DD0F81DFE00973993CE5DDB299BC6A164736F6C634300070600330000 ","sha1":"eb89cf3cd2ca02e8805cd69bc8bca908d6d857bf","source":"// SPDX-License-Identifier: GPL-3.0-only\npragma solidity ^0.7.0;\npragma abicoder v2;\n\nimport \"./nTokenMintAction.sol\";\nimport \"../../internal/markets/Market.sol\";\nimport \"../../internal/markets/CashGroup.sol\";\nimport \"../../internal/markets/AssetRate.sol\";\nimport \"../../internal/balances/BalanceHandler.sol\";\nimport \"../../internal/portfolio/PortfolioHandler.sol\";\nimport \"../../internal/settlement/SettlePortfolioAssets.sol\";\nimport \"../../internal/settlement/SettleBitmapAssets.sol\";\nimport \"../../internal/nToken/nTokenHandler.sol\";\nimport \"../../math/SafeInt256.sol\";\nimport \"../../math/Bitmap.sol\";\nimport \"@openzeppelin/contracts/math/SafeMath.sol\";\n\n/// @notice Initialize markets is called once every quarter to setup the new markets. Only the nToken account\n/// can initialize markets, and this method will be called on behalf of that account. In this action\n/// the following will occur:\n///  - nToken Liquidity Tokens will be settled\n///  - Any ifCash assets will be settled\n///  - If nToken liquidity tokens are settled with negative net ifCash, enough cash will be withheld at the PV\n///    to purchase offsetting positions\n///  - fCash positions are written to storage\n///  - For each market, calculate the proportion of fCash to cash given:\n///     - previous oracle rates\n///     - rate anchor set by governance\n///     - percent of cash to deposit into the market set by governance\n///  - Set new markets and add liquidity tokens to portfolio\nlibrary InitializeMarketsAction {\n    using Bitmap for bytes32;\n    using SafeMath for uint256;\n    using SafeInt256 for int256;\n    using PortfolioHandler for PortfolioState;\n    using Market for MarketParameters;\n    using BalanceHandler for BalanceState;\n    using CashGroup for CashGroupParameters;\n    using AssetRate for AssetRateParameters;\n    using AccountContextHandler for AccountContext;\n    using nTokenHandler for nTokenPortfolio;\n\n    event MarketsInitialized(uint16 currencyId);\n    event SweepCashIntoMarkets(uint16 currencyId, int256 cashIntoMarkets);\n\n    struct GovernanceParameters {\n        int256[] depositShares;\n        int256[] leverageThresholds;\n        int256[] annualizedAnchorRates;\n        int256[] proportions;\n    }\n\n    function _getGovernanceParameters(uint256 currencyId, uint256 maxMarketIndex)\n        private\n        view\n        returns (GovernanceParameters memory)\n    {\n        GovernanceParameters memory params;\n        (params.depositShares, params.leverageThresholds) = nTokenHandler.getDepositParameters(\n            currencyId,\n            maxMarketIndex\n        );\n\n        (params.annualizedAnchorRates, params.proportions) = nTokenHandler.getInitializationParameters(\n            currencyId,\n            maxMarketIndex\n        );\n\n        return params;\n    }\n\n    function _settleNTokenPortfolio(nTokenPortfolio memory nToken, uint256 blockTime) private {\n        // nToken never has idiosyncratic cash between 90 day intervals but since it also has a\n        // bitmap fCash assets. We don't set the pointer to the settlement date of the liquidity\n        // tokens (1 quarter away), instead we set it to the current block time. This is a bit\n        // esoteric but will ensure that ifCash is never improperly settled.\n\n        // If lastInitializedTime == reference time then this will fail, that is the correct\n        // behavior since initialization begins at lastInitializedTime. That means that markets\n        // cannot be re-initialized during a single block (this is the correct behavior). If\n        // lastInitializedTime >= reference time then the markets have already been initialized\n        // for the quarter.\n        uint256 referenceTime = DateTime.getReferenceTime(blockTime);\n        require(nToken.lastInitializedTime < referenceTime, \"IM: invalid time\");\n\n        {\n            // Settles liquidity token balances and portfolio state now contains the net fCash amounts\n            SettleAmount[] memory settleAmount =\n                SettlePortfolioAssets.settlePortfolio(nToken.portfolioState, blockTime);\n            nToken.cashBalance = nToken.cashBalance.add(settleAmount[0].netCashChange);\n        }\n\n        (int256 settledAssetCash, uint256 blockTimeUTC0) =\n            SettleBitmapAssets.settleBitmappedCashGroup(\n                nToken.tokenAddress,\n                nToken.cashGroup.currencyId,\n                nToken.lastInitializedTime,\n                blockTime\n            );\n        nToken.cashBalance = nToken.cashBalance.add(settledAssetCash);\n\n        // The ifCashBitmap has been updated to reference this new settlement time\n        require(blockTimeUTC0 <= type(uint40).max);\n        nToken.lastInitializedTime = uint40(blockTimeUTC0);\n    }\n\n    /// @notice Special method to get previous markets, normal usage would not reference previous markets\n    /// in this way\n    function _getPreviousMarkets(\n        uint256 currencyId,\n        uint256 blockTime,\n        nTokenPortfolio memory nToken,\n        MarketParameters[] memory previousMarkets\n    ) private view {\n        uint256 rateOracleTimeWindow = nToken.cashGroup.getRateOracleTimeWindow();\n        // This will reference the previous settlement date to get the previous markets\n        uint256 settlementDate = DateTime.getReferenceTime(blockTime);\n\n        // Assume that assets are stored in order and include all assets of the previous market\n        // set. This will account for the potential that markets.length is greater than the previous\n        // markets when the maxMarketIndex is increased (increasing the overall number of markets).\n        // We don't fetch the 3 month market (i = 0) because it has settled and will not be used for\n        // the subsequent calculations. Since nTokens never allow liquidity to go to zero then we know\n        // there is always a matching token for each market.\n        for (uint256 i = 1; i < nToken.portfolioState.storedAssets.length; i++) {\n            previousMarkets[i].loadMarketWithSettlementDate(\n                currencyId,\n                // These assets will reference the previous liquidity tokens\n                nToken.portfolioState.storedAssets[i].maturity,\n                blockTime,\n                // No liquidity tokens required for this process\n                false,\n                rateOracleTimeWindow,\n                settlementDate\n            );\n        }\n    }\n\n    /// @notice Check the net fCash assets set by the portfolio and withhold cash to account for\n    /// the PV of negative ifCash. Also sets the ifCash assets into the nToken mapping.\n    function _withholdAndSetfCashAssets(\n        nTokenPortfolio memory nToken,\n        MarketParameters[] memory previousMarkets,\n        uint256 currencyId,\n        uint256 blockTime\n    ) private returns (int256) {\n        // Residual fcash must be put into the ifCash bitmap from the portfolio, skip the 3 month\n        // liquidity token since there is no residual fCash for that maturity, it always settles to cash.\n        for (uint256 i = 1; i < nToken.portfolioState.storedAssets.length; i++) {\n            PortfolioAsset memory asset = nToken.portfolioState.storedAssets[i];\n            // Defensive check to ensure that everything is an fcash asset, all liquidity tokens after\n            // the three month should have been settled to fCash at this point.\n            require(asset.assetType == Constants.FCASH_ASSET_TYPE);\n\n            BitmapAssetsHandler.addifCashAsset(\n                nToken.tokenAddress,\n                currencyId,\n                asset.maturity,\n                nToken.lastInitializedTime,\n                asset.notional\n            );\n\n            // Do not have fCash assets stored in the portfolio\n            nToken.portfolioState.deleteAsset(i);\n        }\n\n        // Recalculate what the withholdings are if there are any ifCash assets remaining\n        return _getNTokenNegativefCashWithholding(nToken, previousMarkets, blockTime);\n    }\n\n    /// @notice If a nToken incurs a negative fCash residual as a result of lending, this means\n    /// that we are going to need to withhold some amount of cash so that market makers can purchase and\n    /// clear the debts off the balance sheet.\n    function _getNTokenNegativefCashWithholding(\n        nTokenPortfolio memory nToken,\n        MarketParameters[] memory previousMarkets,\n        uint256 blockTime\n    ) internal view returns (int256 totalCashWithholding) {\n        bytes32 assetsBitmap = BitmapAssetsHandler.getAssetsBitmap(nToken.tokenAddress, nToken.cashGroup.currencyId);\n        // This buffer is denominated in rate precision with 10 basis point increments. It is used to shift the\n        // withholding rate to ensure that sufficient cash is withheld for negative fCash balances.\n        uint256 oracleRateBuffer =\n            uint256(uint8(nToken.parameters[Constants.CASH_WITHHOLDING_BUFFER])) * Constants.TEN_BASIS_POINTS;\n        uint256 oracleRateBlockTime = previousMarkets.length == 0 ? blockTime : blockTime.sub(Constants.QUARTER);\n\n        uint256 bitNum = assetsBitmap.getNextBitNum();\n        while (bitNum != 0) {\n            // lastInitializedTime is now the reference point for all ifCash bitmap\n            uint256 maturity = DateTime.getMaturityFromBitNum(nToken.lastInitializedTime, bitNum);\n\n            // When looping for sweepCashIntoMarkets, previousMarkets is not defined and we only\n            // want to apply withholding for idiosyncratic fCash.\n            if (\n                previousMarkets.length == 0 &&\n                DateTime.isValidMarketMaturity(\n                    nToken.cashGroup.maxMarketIndex,\n                    maturity,\n                    blockTime\n                )\n            ) {\n                // Turn off the bit and look for the next one\n                assetsBitmap = assetsBitmap.setBit(bitNum, false);\n                bitNum = assetsBitmap.getNextBitNum();\n                continue;\n            }\n\n            int256 notional =\n                BitmapAssetsHandler.getifCashNotional(\n                    nToken.tokenAddress,\n                    nToken.cashGroup.currencyId,\n                    maturity\n                );\n\n            // Withholding only applies for negative cash balances\n            if (notional < 0) {\n                uint256 oracleRate = nToken.cashGroup.calculateOracleRate(maturity, oracleRateBlockTime);\n\n                if (oracleRateBuffer > oracleRate) {\n                    oracleRate = 0;\n                } else {\n                    oracleRate = oracleRate.sub(oracleRateBuffer);\n                }\n\n                totalCashWithholding = totalCashWithholding.sub(\n                    AssetHandler.getPresentfCashValue(notional, maturity, blockTime, oracleRate)\n                );\n            }\n\n            // Turn off the bit and look for the next one\n            assetsBitmap = assetsBitmap.setBit(bitNum, false);\n            bitNum = assetsBitmap.getNextBitNum();\n        }\n\n        return nToken.cashGroup.assetRate.convertFromUnderlying(totalCashWithholding);\n    }\n\n    function _calculateNetAssetCashAvailable(\n        nTokenPortfolio memory nToken,\n        MarketParameters[] memory previousMarkets,\n        uint256 blockTime,\n        uint256 currencyId,\n        bool isFirstInit\n    ) private returns (int256) {\n        int256 netAssetCashAvailable;\n        int256 assetCashWithholding;\n\n        if (isFirstInit) {\n            nToken.lastInitializedTime = uint40(DateTime.getTimeUTC0(blockTime));\n        } else {\n            _settleNTokenPortfolio(nToken, blockTime);\n            _getPreviousMarkets(currencyId, blockTime, nToken, previousMarkets);\n            assetCashWithholding = _withholdAndSetfCashAssets(\n                nToken,\n                previousMarkets,\n                currencyId,\n                blockTime\n            );\n        }\n\n        // Deduct the amount of withholding required from the cash balance (at this point includes all settled cash)\n        netAssetCashAvailable = nToken.cashBalance.subNoNeg(assetCashWithholding);\n\n        // This is the new balance to store\n        nToken.cashBalance = assetCashWithholding;\n\n        // We can't have less net asset cash than our percent basis or some markets will end up not\n        // initialized\n        require(\n            netAssetCashAvailable > int256(Constants.DEPOSIT_PERCENT_BASIS),\n            \"IM: insufficient cash\"\n        );\n\n        return netAssetCashAvailable;\n    }\n\n    /// @notice The six month implied rate is zero if there have never been any markets initialized\n    /// otherwise the market will be the interpolation between the old 6 month and 1 year markets\n    /// which are now sitting at 3 month and 9 month time to maturity\n    function _getSixMonthImpliedRate(\n        MarketParameters[] memory previousMarkets,\n        uint256 referenceTime\n    ) private pure returns (uint256) {\n        // Cannot interpolate six month rate without a 1 year market\n        require(previousMarkets.length >= 3, \"IM: six month error\");\n\n        return\n            CashGroup.interpolateOracleRate(\n                previousMarkets[1].maturity,\n                previousMarkets[2].maturity,\n                previousMarkets[1].oracleRate,\n                previousMarkets[2].oracleRate,\n                // Maturity date == 6 months from reference time\n                referenceTime + 2 * Constants.QUARTER\n            );\n    }\n\n    /// @notice Calculates a market proportion via the implied rate. The formula is:\n    ///    exchangeRate = e ^ (impliedRate * timeToMaturity)\n    ///    exchangeRate = (1 / rateScalar) * ln(proportion / (1 - proportion)) + rateAnchor\n    ///    proportion / (1 - proportion) = e^((exchangeRate - rateAnchor) * rateScalar)\n    ///    exp = e^((exchangeRate - rateAnchor) * rateScalar)\n    ///    proportion / (1 - proportion) = exp\n    ///    exp * (1 - proportion) = proportion\n    ///    exp - exp * proportion = proportion\n    ///    exp = proportion + exp * proportion\n    ///    exp = proportion * (1 + exp)\n    ///    proportion = exp / (1 + exp)\n    function _getProportionFromOracleRate(\n        uint256 oracleRate,\n        uint256 timeToMaturity,\n        int256 rateScalar,\n        uint256 annualizedAnchorRate\n    ) private pure returns (int256) {\n        int256 rateAnchor = Market.getExchangeRateFromImpliedRate(annualizedAnchorRate, timeToMaturity);\n        // Exchange rate value here will be floored at Constants.RATE_PRECISION when the oracleRate is zero\n        int256 exchangeRate = Market.getExchangeRateFromImpliedRate(oracleRate, timeToMaturity);\n\n        int128 expValue = ABDKMath64x64.fromInt(\n            // (exchangeRate - rateAnchor) * rateScalar\n            (exchangeRate.sub(rateAnchor)).mulInRatePrecision(rateScalar)\n        );\n        // Scale this back to a decimal in abdk\n        expValue = ABDKMath64x64.div(expValue, Constants.RATE_PRECISION_64x64);\n        // Take the exponent\n        expValue = ABDKMath64x64.exp(expValue);\n        // proportion = exp / (1 + exp)\n        // NOTE: 2**64 == 1 in ABDKMath64x64\n        int128 proportion = ABDKMath64x64.div(expValue, ABDKMath64x64.add(expValue, 2**64));\n\n        // Scale this back to 1e9 precision\n        proportion = ABDKMath64x64.mul(proportion, Constants.RATE_PRECISION_64x64);\n\n        return ABDKMath64x64.toInt(proportion);\n    }\n\n    /// @dev Returns the oracle rate given the market ratios of fCash to cash. The annualizedAnchorRate\n    /// is used to calculate a rate anchor. Since a rate anchor varies with timeToMaturity and annualizedAnchorRate\n    /// does not, this method will return consistent values regardless of the timeToMaturity of when initialize\n    /// markets is called. This can be helpful if a currency needs to be initialized mid quarter when it is\n    /// newly launched.\n    function _calculateOracleRate(\n        int256 fCashAmount,\n        int256 underlyingCashToMarket,\n        int256 rateScalar,\n        uint256 annualizedAnchorRate,\n        uint256 timeToMaturity\n    ) internal pure returns (uint256) {\n        int256 rateAnchor = Market.getExchangeRateFromImpliedRate(annualizedAnchorRate, timeToMaturity);\n        uint256 oracleRate = Market.getImpliedRate(\n            fCashAmount,\n            underlyingCashToMarket,\n            rateScalar,\n            rateAnchor,\n            timeToMaturity\n        );\n\n        return oracleRate;\n    }\n\n    /// @notice Returns the linear interpolation between two market rates. The formula is\n    /// slope = (longMarket.oracleRate - shortMarket.oracleRate) / (longMarket.maturity - shortMarket.maturity)\n    /// interpolatedRate = slope * (assetMaturity - shortMarket.maturity) + shortMarket.oracleRate\n    function _interpolateFutureRate(\n        uint256 shortMaturity,\n        uint256 shortRate,\n        MarketParameters memory longMarket\n    ) private pure returns (uint256) {\n        uint256 longMaturity = longMarket.maturity;\n        uint256 longRate = longMarket.oracleRate;\n        // the next market maturity is always a quarter away\n        uint256 newMaturity = longMarket.maturity + Constants.QUARTER;\n        require(shortMaturity < longMaturity, \"IM: interpolation error\");\n\n        // It's possible that the rates are inverted where the short market rate > long market rate and\n        // we will get an underflow here so we check for that\n        if (longRate >= shortRate) {\n            return\n                (longRate - shortRate)\n                    .mul(newMaturity - shortMaturity)\n                // No underflow here, checked above\n                    .div(longMaturity - shortMaturity)\n                    .add(shortRate);\n        } else {\n            // In this case the slope is negative so:\n            // interpolatedRate = shortMarket.oracleRate - slope * (assetMaturity - shortMarket.maturity)\n            uint256 diff =\n                (shortRate - longRate)\n                    .mul(newMaturity - shortMaturity)\n                // No underflow here, checked above\n                    .div(longMaturity - shortMaturity);\n\n            // This interpolation may go below zero so we bottom out interpolated rates at zero\n            return shortRate > diff ? shortRate - diff : 0;\n        }\n    }\n\n    /// @dev This is here to clear the stack\n    function _setLiquidityAmount(\n        int256 netAssetCashAvailable,\n        int256 depositShare,\n        uint256 assetType,\n        MarketParameters memory newMarket,\n        nTokenPortfolio memory nToken\n    ) private pure returns (int256) {\n        // The portion of the cash available that will be deposited into the market\n        int256 assetCashToMarket =\n            netAssetCashAvailable.mul(depositShare).div(Constants.DEPOSIT_PERCENT_BASIS);\n        newMarket.totalAssetCash = assetCashToMarket;\n        newMarket.totalLiquidity = assetCashToMarket;\n\n        // Add a new liquidity token, this will end up in the new asset array\n        nToken.portfolioState.addAsset(\n            nToken.cashGroup.currencyId,\n            newMarket.maturity,\n            assetType, // This is liquidity token asset type\n            assetCashToMarket\n        );\n\n        // fCashAmount is calculated using the underlying amount\n        return nToken.cashGroup.assetRate.convertToUnderlying(assetCashToMarket);\n    }\n\n    /// @notice Calculates the fCash amount given the cash and proportion:\n    // proportion = totalfCash / (totalfCash + totalCashUnderlying)\n    // proportion * (totalfCash + totalCashUnderlying) = totalfCash\n    // proportion * totalCashUnderlying + proportion * totalfCash = totalfCash\n    // proportion * totalCashUnderlying = totalfCash * (1 - proportion)\n    // totalfCash = proportion * totalCashUnderlying / (1 - proportion)\n    function _calculatefCashAmountFromProportion(\n        int256 underlyingCashToMarket,\n        int256 proportion\n    ) private pure returns (int256) {\n        return underlyingCashToMarket\n            .mul(proportion)\n            .div(Constants.RATE_PRECISION.sub(proportion));\n    }\n\n    /// @notice Sweeps nToken cash balance into markets after accounting for cash withholding. Can be\n    /// done after fCash residuals are purchased to ensure that markets have maximum liquidity.\n    /// @param currencyId currency of markets to initialize\n    /// @dev emit:CashSweepIntoMarkets\n    /// @dev auth:none\n    function sweepCashIntoMarkets(uint16 currencyId) external {\n        uint256 blockTime = block.timestamp;\n        nTokenPortfolio memory nToken;\n        nToken.loadNTokenPortfolioStateful(currencyId);\n        require(nToken.portfolioState.storedAssets.length > 0, \"No nToken assets\");\n\n        // Can only sweep cash after markets have been initialized\n        uint256 referenceTime = DateTime.getReferenceTime(blockTime);\n        require(nToken.lastInitializedTime >= referenceTime, \"Must initialize markets\");\n\n        // Can only sweep cash after the residual purchase time has passed\n        uint256 minSweepCashTime =\n            nToken.lastInitializedTime.add(\n                uint256(uint8(nToken.parameters[Constants.RESIDUAL_PURCHASE_TIME_BUFFER])) * 1 hours\n            );\n        require(blockTime > minSweepCashTime, \"Invalid sweep cash time\");\n\n        int256 assetCashWithholding =\n            _getNTokenNegativefCashWithholding(\n                nToken,\n                new MarketParameters[](0), // Parameter is unused when referencing current markets\n                blockTime\n            );\n\n        int256 cashIntoMarkets = nToken.cashBalance.subNoNeg(assetCashWithholding);\n        BalanceHandler.setBalanceStorageForNToken(\n            nToken.tokenAddress,\n            nToken.cashGroup.currencyId,\n            assetCashWithholding\n        );\n\n        // This will deposit the cash balance into markets, but will not record a token supply change.\n        nTokenMintAction.nTokenMint(currencyId, cashIntoMarkets);\n        emit SweepCashIntoMarkets(currencyId, cashIntoMarkets);\n    }\n\n    /// @notice Initialize the market for a given currency id, done once a quarter\n    /// @param currencyId currency of markets to initialize\n    /// @param isFirstInit true if this is the first time the markets have been initialized\n    /// @dev emit:MarketsInitialized\n    /// @dev auth:none\n    function initializeMarkets(uint16 currencyId, bool isFirstInit) external {\n        uint256 blockTime = block.timestamp;\n        nTokenPortfolio memory nToken;\n        nToken.loadNTokenPortfolioStateful(currencyId);\n        MarketParameters[] memory previousMarkets =\n            new MarketParameters[](nToken.cashGroup.maxMarketIndex);\n\n        // This should be sufficient to validate that the currency id is valid\n        require(nToken.cashGroup.maxMarketIndex != 0, \"IM: no markets to init\");\n        // If the nToken has any assets then this is not the first initialization\n        if (isFirstInit) {\n            require(nToken.portfolioState.storedAssets.length == 0, \"IM: not first init\");\n        }\n\n        int256 netAssetCashAvailable = _calculateNetAssetCashAvailable(\n            nToken,\n            previousMarkets,\n            blockTime,\n            currencyId,\n            isFirstInit\n        );\n\n        GovernanceParameters memory parameters =\n            _getGovernanceParameters(currencyId, nToken.cashGroup.maxMarketIndex);\n\n        MarketParameters memory newMarket;\n        // Oracle rate is carried over between loops\n        uint256 oracleRate;\n        for (uint256 i = 0; i < nToken.cashGroup.maxMarketIndex; i++) {\n            // Traded markets are 1-indexed\n            newMarket.maturity = DateTime.getReferenceTime(blockTime).add(\n                DateTime.getTradedMarket(i + 1)\n            );\n\n            int256 underlyingCashToMarket =\n                _setLiquidityAmount(\n                    netAssetCashAvailable,\n                    parameters.depositShares[i],\n                    Constants.MIN_LIQUIDITY_TOKEN_INDEX + i, // liquidity token asset type\n                    newMarket,\n                    nToken\n                );\n\n            uint256 timeToMaturity = newMarket.maturity.sub(blockTime);\n            int256 rateScalar = nToken.cashGroup.getRateScalar(i + 1, timeToMaturity);\n            // Governance will prevent previousMarkets.length from being equal to 1, meaning that we will\n            // either have 0 markets (on first init), exactly 2 markets, or 2+ markets. In the case that there\n            // are exactly two markets then the 6 month market must be initialized via this method (there is no\n            // 9 month market to interpolate a rate against). In the case of 2+ markets then we will only enter this\n            // first branch when the number of markets is increased\n            if (\n                isFirstInit ||\n                // This is the six month market when there are only 3 and 6 month markets\n                (i == 1 && previousMarkets.length == 2) ||\n                // At this point, these are new markets and they must be initialized\n                (i >= nToken.portfolioState.storedAssets.length) ||\n                // When extending from the 6 month to 1 year market we must initialize both 6 and 1 year as new\n                (i == 1 && previousMarkets[2].oracleRate == 0)\n            ) {\n                // Any newly added markets cannot have their implied rates interpolated via the previous\n                // markets. In this case we initialize the markets using the rate anchor and proportion.\n                int256 fCashAmount = _calculatefCashAmountFromProportion(underlyingCashToMarket, parameters.proportions[i]);\n\n                newMarket.totalfCash = fCashAmount;\n                newMarket.oracleRate = _calculateOracleRate(\n                    fCashAmount,\n                    underlyingCashToMarket,\n                    rateScalar,\n                    uint256(parameters.annualizedAnchorRates[i]), // No overflow, uint32 when set\n                    timeToMaturity\n                );\n\n                // If this fails it is because the rate anchor and proportion are not set properly by\n                // governance.\n                require(newMarket.oracleRate > 0, \"IM: implied rate failed\");\n            } else {\n                // Two special cases for the 3 month and 6 month market when interpolating implied rates. The 3 month market\n                // inherits the implied rate from the previous 6 month market (they are now at the same maturity).\n                if (i == 0) {\n                    // We should never get an array out of bounds error here because of the inequality check in the first branch\n                    // of the outer if statement.\n                    oracleRate = previousMarkets[1].oracleRate;\n                } else if (i == 1) {\n                    // The six month market is the interpolation between the 3 month and the 1 year market (now at 9 months). This\n                    // interpolation is different since the rate is between 3 and 9 months, for all the other interpolations we interpolate\n                    // forward in time (i.e. use a 3 and 6 month rate to interpolate a 1 year rate). The first branch of this if statement\n                    // will capture the case when the 1 year rate has not been set.\n                    oracleRate = _getSixMonthImpliedRate(\n                        previousMarkets,\n                        DateTime.getReferenceTime(blockTime)\n                    );\n                } else {\n                    // Any other market has the interpolation between the new implied rate from the newly initialized market previous\n                    // to this market interpolated with the previous version of this market. For example, the newly initialized 1 year\n                    // market will have its implied rate set to the interpolation between the newly initialized 6 month market (done in\n                    // previous iteration of this loop) and the previous 1 year market (which has now rolled down to 9 months). Similarly,\n                    // a 2 year market will be interpolated from the newly initialized 1 year and the previous 2 year market.\n\n                    // This is the previous market maturity, traded markets are 1-indexed\n                    uint256 shortMarketMaturity =\n                        DateTime.getReferenceTime(blockTime).add(DateTime.getTradedMarket(i));\n                    oracleRate = _interpolateFutureRate(\n                        shortMarketMaturity,\n                        // This is the oracle rate from the previous iteration in the loop,\n                        // refers to the new oracle rate set on the newly initialized market\n                        // that is adjacent to the market currently being initialized.\n                        oracleRate,\n                        // This is the previous version of the current market\n                        previousMarkets[i]\n                    );\n                }\n\n                // When initializing new markets we need to ensure that the new implied oracle rates align\n                // with the current yield curve or valuations for ifCash will spike. This should reference the\n                // previously calculated implied rate and the current market.\n                int256 proportion =\n                    _getProportionFromOracleRate(\n                        oracleRate,\n                        timeToMaturity,\n                        rateScalar,\n                        uint256(parameters.annualizedAnchorRates[i]) // No overflow, uint32 when set\n                    );\n\n                // If the calculated proportion is greater than the leverage threshold then we cannot\n                // provide liquidity without risk of liquidation. In this case, set the leverage threshold\n                // as the new proportion and calculate the oracle rate from it. This will result in fCash valuations\n                // changing on chain, however, adding liquidity via nTokens would also end up with this\n                // result as well.\n                if (proportion > parameters.leverageThresholds[i]) {\n                    proportion = parameters.leverageThresholds[i];\n                    newMarket.totalfCash = _calculatefCashAmountFromProportion(underlyingCashToMarket, proportion);\n\n                    oracleRate = _calculateOracleRate(\n                        newMarket.totalfCash,\n                        underlyingCashToMarket,\n                        rateScalar,\n                        uint256(parameters.annualizedAnchorRates[i]), // No overflow, uint32 when set\n                        timeToMaturity\n                    );\n\n                    require(oracleRate != 0, \"Oracle rate overflow\");\n                } else {\n                    newMarket.totalfCash = _calculatefCashAmountFromProportion(underlyingCashToMarket, proportion);\n                }\n\n                // It's possible that totalfCash is zero from rounding errors above, we want to set this to a minimum value\n                // so that we don't have divide by zero errors.\n                if (newMarket.totalfCash < 1) newMarket.totalfCash = 1;\n\n                newMarket.oracleRate = oracleRate;\n                // The oracle rate has been changed so we set the previous trade time to current\n                newMarket.previousTradeTime = blockTime;\n            }\n\n            // Implied rate will always be set to oracle rate\n            newMarket.lastImpliedRate = newMarket.oracleRate;\n            finalizeMarket(newMarket, currencyId, nToken);\n        }\n\n        // prettier-ignore\n        (\n            /* hasDebt */,\n            /* activeCurrencies */,\n            uint8 assetArrayLength,\n            /* nextSettleTime */\n        ) = nToken.portfolioState.storeAssets(nToken.tokenAddress);\n        BalanceHandler.setBalanceStorageForNToken(\n            nToken.tokenAddress,\n            currencyId,\n            nToken.cashBalance\n        );\n        nTokenHandler.setArrayLengthAndInitializedTime(\n            nToken.tokenAddress,\n            assetArrayLength,\n            nToken.lastInitializedTime\n        );\n\n        emit MarketsInitialized(uint16(currencyId));\n    }\n\n    function finalizeMarket(\n        MarketParameters memory market,\n        uint256 currencyId,\n        nTokenPortfolio memory nToken\n    ) internal {\n        // Always reference the current settlement date\n        uint256 settlementDate = DateTime.getReferenceTime(block.timestamp) + Constants.QUARTER;\n        market.setMarketStorageForInitialize(currencyId, settlementDate);\n\n        BitmapAssetsHandler.addifCashAsset(\n            nToken.tokenAddress,\n            currencyId,\n            market.maturity,\n            nToken.lastInitializedTime,\n            market.totalfCash.neg()\n        );\n    }\n\n    /// @notice Get a list of deployed library addresses (sorted by library name)\n    function getLibInfo() external view returns (address) {\n        return address(nTokenMintAction);\n    }\n}\n","sourcePath":"contracts/external/actions/InitializeMarketsAction.sol","deployment":{"address":"0xCa3A0c6e06f4b5EdDceDD0c7720549B221bD8FAD","chainid":"5","blockHeight":6439057}}