{"abi":[{"anonymous":false,"inputs":[{"indexed":true,"internalType":"address","name":"vault","type":"address"},{"indexed":true,"internalType":"address","name":"account","type":"address"},{"indexed":false,"internalType":"uint256","name":"vaultSharesToLiquidator","type":"uint256"},{"indexed":false,"internalType":"int256","name":"fCashRepaid","type":"int256"}],"name":"VaultDeleverageAccount","type":"event"},{"anonymous":false,"inputs":[{"indexed":true,"internalType":"address","name":"vault","type":"address"},{"indexed":true,"internalType":"uint256","name":"maturity","type":"uint256"},{"indexed":true,"internalType":"address","name":"account","type":"address"},{"indexed":false,"internalType":"uint256","name":"underlyingTokensTransferred","type":"uint256"},{"indexed":false,"internalType":"uint256","name":"strategyTokenDeposited","type":"uint256"},{"indexed":false,"internalType":"uint256","name":"vaultSharesMinted","type":"uint256"}],"name":"VaultEnterMaturity","type":"event"},{"anonymous":false,"inputs":[{"indexed":true,"internalType":"address","name":"vault","type":"address"},{"indexed":true,"internalType":"address","name":"account","type":"address"},{"indexed":true,"internalType":"uint256","name":"maturity","type":"uint256"},{"indexed":false,"internalType":"uint256","name":"fCashBorrowed","type":"uint256"}],"name":"VaultEnterPosition","type":"event"},{"anonymous":false,"inputs":[{"indexed":true,"internalType":"address","name":"vault","type":"address"},{"indexed":true,"internalType":"address","name":"account","type":"address"},{"indexed":true,"internalType":"uint256","name":"maturity","type":"uint256"},{"indexed":false,"internalType":"uint256","name":"underlyingToReceiver","type":"uint256"}],"name":"VaultExitPostMaturity","type":"event"},{"anonymous":false,"inputs":[{"indexed":true,"internalType":"address","name":"vault","type":"address"},{"indexed":true,"internalType":"address","name":"account","type":"address"},{"indexed":true,"internalType":"uint256","name":"maturity","type":"uint256"},{"indexed":false,"internalType":"uint256","name":"fCashToLend","type":"uint256"},{"indexed":false,"internalType":"uint256","name":"vaultSharesToRedeem","type":"uint256"},{"indexed":false,"internalType":"uint256","name":"underlyingToReceiver","type":"uint256"}],"name":"VaultExitPreMaturity","type":"event"},{"anonymous":false,"inputs":[{"indexed":true,"internalType":"address","name":"vault","type":"address"},{"indexed":true,"internalType":"address","name":"account","type":"address"},{"indexed":true,"internalType":"address","name":"liquidator","type":"address"},{"indexed":false,"internalType":"uint256","name":"vaultSharesToLiquidator","type":"uint256"},{"indexed":false,"internalType":"bool","name":"transferSharesToLiquidator","type":"bool"}],"name":"VaultLiquidatorProfit","type":"event"},{"anonymous":false,"inputs":[{"indexed":true,"internalType":"address","name":"vault","type":"address"},{"indexed":true,"internalType":"address","name":"account","type":"address"},{"indexed":true,"internalType":"uint256","name":"newMaturity","type":"uint256"},{"indexed":false,"internalType":"uint256","name":"fCashBorrowed","type":"uint256"}],"name":"VaultRollPosition","type":"event"},{"inputs":[{"internalType":"address","name":"account","type":"address"},{"internalType":"address","name":"vault","type":"address"},{"internalType":"address","name":"liquidator","type":"address"},{"internalType":"uint256","name":"depositAmountExternal","type":"uint256"},{"internalType":"bool","name":"transferSharesToLiquidator","type":"bool"},{"internalType":"bytes","name":"redeemData","type":"bytes"}],"name":"deleverageAccount","outputs":[{"internalType":"uint256","name":"profitFromLiquidation","type":"uint256"}],"stateMutability":"nonpayable","type":"function"},{"inputs":[{"internalType":"address","name":"account","type":"address"},{"internalType":"address","name":"vault","type":"address"},{"internalType":"uint256","name":"depositAmountExternal","type":"uint256"},{"internalType":"uint256","name":"maturity","type":"uint256"},{"internalType":"uint256","name":"fCash","type":"uint256"},{"internalType":"uint32","name":"maxBorrowRate","type":"uint32"},{"internalType":"bytes","name":"vaultData","type":"bytes"}],"name":"enterVault","outputs":[{"internalType":"uint256","name":"strategyTokensAdded","type":"uint256"}],"stateMutability":"payable","type":"function"},{"inputs":[{"internalType":"address","name":"account","type":"address"},{"internalType":"address","name":"vault","type":"address"},{"internalType":"address","name":"receiver","type":"address"},{"internalType":"uint256","name":"vaultSharesToRedeem","type":"uint256"},{"internalType":"uint256","name":"fCashToLend","type":"uint256"},{"internalType":"uint32","name":"minLendRate","type":"uint32"},{"internalType":"bytes","name":"exitVaultData","type":"bytes"}],"name":"exitVault","outputs":[{"internalType":"uint256","name":"underlyingToReceiver","type":"uint256"}],"stateMutability":"payable","type":"function"},{"inputs":[],"name":"getLibInfo","outputs":[{"internalType":"address","name":"","type":"address"}],"stateMutability":"pure","type":"function"},{"inputs":[{"internalType":"address","name":"account","type":"address"},{"internalType":"address","name":"vault","type":"address"}],"name":"getVaultAccount","outputs":[{"components":[{"internalType":"int256","name":"fCash","type":"int256"},{"internalType":"uint256","name":"maturity","type":"uint256"},{"internalType":"uint256","name":"vaultShares","type":"uint256"},{"internalType":"address","name":"account","type":"address"},{"internalType":"int256","name":"tempCashBalance","type":"int256"}],"internalType":"struct VaultAccount","name":"","type":"tuple"}],"stateMutability":"view","type":"function"},{"inputs":[{"internalType":"address","name":"account","type":"address"},{"internalType":"address","name":"vault","type":"address"}],"name":"getVaultAccountCollateralRatio","outputs":[{"internalType":"int256","name":"collateralRatio","type":"int256"},{"internalType":"int256","name":"minCollateralRatio","type":"int256"},{"internalType":"int256","name":"maxLiquidatorDepositAssetCash","type":"int256"}],"stateMutability":"view","type":"function"},{"inputs":[{"internalType":"address","name":"account","type":"address"},{"internalType":"address","name":"vault","type":"address"}],"name":"getVaultAccountDebtShares","outputs":[{"internalType":"uint256","name":"debtSharesMaturity","type":"uint256"},{"internalType":"uint256[2]","name":"accountDebtShares","type":"uint256[2]"},{"internalType":"uint256","name":"accountStrategyTokens","type":"uint256"}],"stateMutability":"view","type":"function"},{"inputs":[],"name":"owner","outputs":[{"internalType":"address","name":"","type":"address"}],"stateMutability":"view","type":"function"},{"inputs":[],"name":"pauseGuardian","outputs":[{"internalType":"address","name":"","type":"address"}],"stateMutability":"view","type":"function"},{"inputs":[],"name":"pauseRouter","outputs":[{"internalType":"address","name":"","type":"address"}],"stateMutability":"view","type":"function"},{"inputs":[{"internalType":"address","name":"account","type":"address"},{"internalType":"address","name":"vault","type":"address"},{"internalType":"uint256","name":"fCashToBorrow","type":"uint256"},{"internalType":"uint256","name":"maturity","type":"uint256"},{"internalType":"uint256","name":"depositAmountExternal","type":"uint256"},{"internalType":"uint32","name":"minLendRate","type":"uint32"},{"internalType":"uint32","name":"maxBorrowRate","type":"uint32"},{"internalType":"bytes","name":"enterVaultData","type":"bytes"}],"name":"rollVaultPosition","outputs":[{"internalType":"uint256","name":"strategyTokensAdded","type":"uint256"}],"stateMutability":"payable","type":"function"}],"bytecode":"608060405234801561001057600080fd5b5061578880620000216000396000f3fe60806040526004361061009c5760003560e01c80638246336711610064578063824633671461015d5780638da5cb5b1461017257806395c1a202146101875780639948315e1461019a578063c025d1a5146101ba578063c4c96dae146101e75761009c565b806324a3d622146100a1578063647cc196146100cc578063653b6104146100fb5780636ce48f011461011b578063803c25fb1461012e575b600080fd5b3480156100ad57600080fd5b506100b66101fc565b6040516100c3919061519f565b60405180910390f35b3480156100d857600080fd5b506100ec6100e7366004614ea6565b61020b565b6040516100c3939291906152b2565b61010e61010936600461506a565b6102aa565b6040516100c3919061529b565b61010e610129366004614f63565b610481565b34801561013a57600080fd5b5061014e610149366004614ea6565b6106cd565b6040516100c393929190615703565b34801561016957600080fd5b506100b661077e565b34801561017e57600080fd5b506100b661078d565b61010e610195366004614ffa565b6107a4565b3480156101a657600080fd5b5061010e6101b5366004614ecf565b61090c565b3480156101c657600080fd5b506101da6101d5366004614ea6565b610b8a565b6040516100c3919061569d565b3480156101f357600080fd5b506100b6610ba5565b6002546001600160a01b031681565b60008060008061021a85610bbd565b905060006102288787610bec565b9050600061023a878360200151610c6a565b90508260a00151945080604001511561025c576001600160ff1b0395506102a0565b6040820151825160009161027691869185918d9190610d05565b9097509050858712801561028a5750600081135b1561029e5761029a838583610d8b565b5094505b505b5050509250925092565b60006002600a5414156102d85760405162461bcd60e51b81526004016102cf9061555e565b60405180910390fd5b6002600a5560006102e88a610e9a565b90506102f6818c6010610ebe565b610301816080610f28565b1561030c576001600a555b60006103188c8c610bec565b9050610325826001610f28565b80156103375750610337826002610f28565b80156103465750806020015142105b80156103555750888160200151105b8015610361575060008a115b61037d5760405162461bcd60e51b81526004016102cf906154a1565b600061039183600001518360200151610c6a565b905060006103ae83846040015184610f3d9092919063ffffffff16565b90506103cd84836103c28660000151610f9c565b869291908d42610fb2565b8251156103ec5760405162461bcd60e51b81526004016102cf90615649565b83516103f9908390611040565b891561040a5761040a83858c6111b4565b61041c83858d8f8c8c8c88600061129b565b94508a8e6001600160a01b03168e6001600160a01b03167f67c1d09e65227d62b788f4c3e6ace545ac922034d69bd4aa45c53dec290275be8f604051610462919061529b565b60405180910390a450506001600a5550909a9950505050505050505050565b60006002600a5414156104a65760405162461bcd60e51b81526004016102cf9061555e565b6002600a5560006104b689610e9a565b90506104c4818b6008610ebe565b6104cf816080610f28565b156104da576001600a555b60006104e68b8b610bec565b905042816020015111610594576020810151600061050583854261133e565b9050600083608001511315610530576105278b85604001518560800151611414565b50600060808401525b61053f84848d84868c8c6114bd565b9450818d6001600160a01b03168d6001600160a01b03167fccd6b9aec297a77187bfaabfe7f98ac1dd313c796a73695dff89de0885dbb29388604051610585919061529b565b60405180910390a45050610692565b60006105a883600001518360200151610c6a565b90506105c383826105b88b611534565b859291908b42610fb2565b60006105d082848c610f3d565b90506000836080015113156105fb576105f28b85604001518560800151611414565b50600060808401525b801561061957815161061690859085908e9085908c8c6114bd565b94505b82516000131561062e5761062e84838561154e565b835161063b908390611040565b81600001518d6001600160a01b03168d6001600160a01b03167fea195c44d2295a1df0defe8210abb22b4a911b4379b9e30e764548ebee65c4208c8e8a604051610687939291906152b2565b60405180910390a450505b80511580156106a357506040810151155b156106b057600060208201525b6106ba8183611596565b50506001600a5598975050505050505050565b60006106d7614c6c565b6000806106e2611722565b6001600160a01b03878116600090815260209283526040808220928916825291835290812080546001600160501b03640100000000820481168852600160701b8204169387019390935263ffffffff90921695509091506107438787610bec565b90506000610755878360200151610c6a565b905061076e82604001518261172f90919063ffffffff16565b9050809450505050509250925092565b6001546001600160a01b031681565b60005464010000000090046001600160a01b031681565b60006002600a5414156107c95760405162461bcd60e51b81526004016102cf9061555e565b6002600a556107d789611789565b60006107e289610e9a565b90506107f0818b6004610ebe565b6107fb816080610f28565b15610806576001600a555b610811816001610f28565b61082d5760405162461bcd60e51b81526004016102cf90615623565b86421061084c5760405162461bcd60e51b81526004016102cf90615623565b60006108588b8b610bec565b905060008160200151600014158015610875575042826020015111155b156108885761088582844261133e565b90505b6000610895848e8d6117d8565b90506108a883858c8c8c8c8c898961129b565b9450898d6001600160a01b03168d6001600160a01b03167f7e1a5e400898c4bb3cfc62f61a71f4369ec78f0e778a31286892b7d2c0d044f28c6040516108ee919061529b565b60405180910390a450506001600a5550909998505050505050505050565b60006002600a5414156109315760405162461bcd60e51b81526004016102cf9061555e565b6002600a5560006109438989896118b1565b905060006109518a8a610bec565b905060006109638a8360200151610c6a565b90508160200151421061097557600080fd5b600080610999838e8660400151876000015189610d0590949392919063ffffffff16565b915091508460a0015182126109c05760405162461bcd60e51b81526004016102cf9061566e565b60006109d3866040015161ffff16611986565b90506109e38c8287898f87611999565b6000610a2a633b9aca00610a246109f986611a82565b610a248a60400151610a1e610a118e60c00151611a82565b610a1e8e60800151611a82565b90611a91565b90611ab8565b6040870151909150610a3c9082611ad7565b60408701526080860151610160880151600091610a599190611aec565b9050610a78888783610a6e8b60800151610f9c565b8b93929190611b1f565b865160001215610a8757600087525b8f6001600160a01b03168f6001600160a01b03167f5b4676a4ed91c52fd6c4a759aec8a3561b67499c52870fc58000a8eb54fec3018484604051610acc9291906152a4565b60405180910390a350610adf8688611596565b8c6001600160a01b03168f6001600160a01b03168f6001600160a01b03167f01745a2fe0d7c484ea79432a82f950eac6916adc499a0223d2ebdadcdb210f2a848f604051610b2e929190615742565b60405180910390a48a15610b60578651610b49908690611040565b610b598d88838960200151611b8d565b9750610b72565b610b6f8d8887848e8e88611c01565b97505b50506001600a5550939b9a5050505050505050505050565b610b92614c8a565b610b9c8383610bec565b90505b92915050565b73__TradingAction_________________________90565b610bc5614cc2565b610bce82611c8f565b9050610be1816040015161ffff16611e0d565b610160820152919050565b610bf4614c8a565b6000610bfe611e59565b6001600160a01b03948516600081815260209283526040808220969097168152948252858520546001600160501b038082168703865263ffffffff600160a01b83041693860193909352600160501b900490911694830194909452506060810192909252608082015290565b610c72614d3f565b6000610c7c611e66565b6001600160a01b03909416600090815260209485526040808220858352865280822094845284546001600160501b038082169093039685019690965260ff600160f01b870416151590840152600160501b8086048216608085015260019094015480821660a0850152600160a01b909504166060830152509104600990810b900b60c082015290565b600080610d1486888787611e73565b90506000610d2788878960000151611ed8565b90506000610d4d610d4183610d3b88610f9c565b90611fc0565b6101608b015190611fd6565b90506000610d5b8483612001565b905081610d71576001600160ff1b039450610d7e565b610d7b8183612017565b94505b5050509550959350505050565b6000806000610dac633b9aca00866101200151611fc090919063ffffffff16565b90506000610dcc610dc08860000151610f9c565b61016088015190611fd6565b9050610e02610de88760c001518461200190919063ffffffff16565b610dfc87610df68587612030565b90612001565b90612017565b93506000610e108286612001565b90506000610e308860600151896101600151611fd690919063ffffffff16565b9050610e3c8382612001565b945080821215610e4a578295505b6000610e6d88610e678b60c001518a61204990919063ffffffff16565b90612097565b9050633b9aca008112610e8d5760c0890151610e8a908990612017565b96505b5050505050935093915050565b610ea2614cc2565b610eab82611c8f565b9050610be1816040015161ffff166120c8565b610ec88382610f28565b15610efb5782516001600160a01b03163314610ef65760405162461bcd60e51b81526004016102cf906152e3565b610f23565b6001600160a01b0382163314610f235760405162461bcd60e51b81526004016102cf906152e3565b505050565b60209190910151811661ffff90811691161490565b8251602083015160009114610f5157600080fd5b6040830151610f609083611ad7565b60408401526000610f7185846120de565b92509050610f8c610f8182611534565b608086015190611fc0565b6080909401939093529392505050565b6000610faa60001983612049565b90505b919050565b8551600090610fc19085611fc0565b1315610fcc57600080fd5b85602001518110610fdc57600080fd5b6000610ff98660400151886020015186868a610100015187612135565b90508061101c57610160860151611019906110149086611fd6565b610f9c565b90505b600081131561102a57600080fd5b6110378787878785611b1f565b50505050505050565b600061104a611e66565b6001600160a01b038316600090815260208281526040808320875184529091529081902090850151919250901561108057600080fd5b61109d6110986110938660200151610f9c565b611a82565b612244565b81546001600160501b0319166001600160501b039190911617815560808401516110c690612244565b81546001600160501b0391909116600160501b02600160501b600160a01b031990911617815560a08401516110fa90612244565b6001820180546001600160501b0319166001600160501b0392909216919091179055606084015161112a90612244565b81546001600160501b0391909116600160a01b0269ffffffffffffffffffff60a01b1990911617815583516020850151608086015160a087015160608801516040516001600160a01b038916947f3a0fdaecf7b5da75a56077f5b1c8fbc88f9b08e9d0c4db31eb34e25bc6700cde946111a694919390926152c8565b60405180910390a350505050565b6000806111c08461225a565b909250905060006003826060015160058111156111d957fe5b1415611205573484146111fe5760405162461bcd60e51b81526004016102cf906155d1565b503461122e565b61122b6110938760600151876040015161ffff1661122288611534565b869291906122b3565b90505b600060048460600151600581111561124257fe5b14156112585761125182611534565b9050611272565b811561127257604086015161126f9085908461235b565b90505b61128a61127f8583612452565b608089015190611fc0565b608090970196909652505050505050565b6000878a6020015114806112ae57508951155b6112b757600080fd5b60006112c78a600001518a610c6a565b905087156112ed576112e88b8b838c6112e26110148e611534565b8c612482565b611304565b6113028a604001518a8c610100015142612512565b505b611313818c8c87878b8b612581565b915061131f8b8b611596565b8715611330576113308a828d61154e565b509998505050505050505050565b60008061135384600001518660200151610c6a565b905080604001516113765760405162461bcd60e51b81526004016102cf9061544c565b600061138f856040015161ffff168760200151866126b8565b905060006113b66305f5e100610e678560c001516113b08760a00151611534565b90612049565b905060006113c78885898686612828565b905060006113d888868685876129ca565b60008b5260808b01519097509091506113f19082611fc0565b60808a015250506000604088018190526020909701969096525090949350505050565b600081611423575060006114b6565b6000821361143057600080fd5b600061143f8461ffff16611986565b9050600061144d8285612c02565b905060048260600151600581111561146157fe5b141561148f57611488611093611014888861ffff1661147f86610f9c565b879291906122b3565b92506114b3565b6114b06110936110148761ffff16896114a786611a82565b87929190612c3a565b92505b50505b9392505050565b600080876080015113156114d057600080fd5b61151c886040518060a001604052808a606001516001600160a01b03168152602001896001600160a01b031681526020018881526020018781526020018a608001518152508585612cda565b60006080909901989098525095979650505050505050565b60006001600160ff1b0382111561154a57600080fd5b5090565b60006115698484846060015185604001518660000151610d05565b509050808460a0015113156115905760405162461bcd60e51b81526004016102cf906154ca565b50505050565b60006115a0611e59565b60608401516001600160a01b039081166000908152602083815260408083208751909416835292905220608085015191925090156115dd57600080fd5b606083015184516115ed90610f9c565b1215611622578351158061160657506001846040015111155b6116225760405162461bcd60e51b81526004016102cf906155ad565b61162b83612f4f565b1561168d57600061163a611722565b60608601516001600160a01b03908116600090815260209283526040808220885190931682529183522080549187015190925063ffffffff90911690811480611681575080155b61168a57600080fd5b50505b6116a06110986110938660000151610f9c565b81546001600160501b0319166001600160501b039190911617815560408401516116c990612244565b81546001600160501b0391909116600160501b02600160501b600160a01b031990911617815560208401516116fd90612f78565b815463ffffffff91909116600160a01b0263ffffffff60a01b19909116179055505050565b600080610b9f601a612f8b565b6000806000846060015111156117825761175e8460600151610a24866080015186611a9190919063ffffffff16565b915061177f8460600151610a248660a0015186611a9190919063ffffffff16565b90505b9250929050565b6001600160a01b03811661179c57600080fd5b6001600160a01b0381163014156117b257600080fd5b60006117bd82612fa4565b5050505061ffff169050806000146117d457600080fd5b5050565b6000816117e7575060006114b6565b60006117fa856040015161ffff16611986565b9050600060048260600151600581111561181057fe5b1461182b57611826866040015161ffff16613010565b61182d565b815b86516020820151919250901561184257600080fd5b60038260600151600581111561185457fe5b141561188e578434146118795760405162461bcd60e51b81526004016102cf906155d1565b6118838134613023565b3493505050506114b6565b815161189c90878388613059565b8493505050506114b6565b5050509392505050565b6118b9614cc2565b6118c283610e9a565b90506118cf816080610f28565b156118da576001600a555b6118e5816020610f28565b1561191757336001600160a01b038416146119125760405162461bcd60e51b81526004016102cf906152e3565b61193f565b336001600160a01b0383161461193f5760405162461bcd60e51b81526004016102cf906152e3565b6001600160a01b038416331480159061196a5750816001600160a01b0316846001600160a01b031614155b6114b65760405162461bcd60e51b81526004016102cf906152e3565b61198e614d7e565b610faa8260006130e1565b60006119a483611534565b90506005866060015160058111156119b857fe5b14156119d3576119d0846040015161ffff168261318f565b90505b6000806119e1878786610d8b565b91509150600082136119f257600080fd5b60006119fe8984612c02565b905080841215611a3557611a128983612c02565b8412611a305760405162461bcd60e51b81526004016102cf90615501565b611a39565b8093505b6040870151600090611a53908b908d9061ffff16886122b3565b9050611a6d611a628b83612452565b60808b015190611fc0565b60809099019890985250505050505050505050565b60008082121561154a57600080fd5b600082611aa057506000610b9f565b82820282848281611aad57fe5b0414610b9c57600080fd5b6000808211611ac657600080fd5b818381611acf57fe5b049392505050565b600082821115611ae657600080fd5b50900390565b600080611b178460400151610e676402540be400610e6787896020015161204990919063ffffffff16565b949350505050565b6080850151611b2e9082611fc0565b60808601528451611b3f9083611fc0565b80865260001215611b4f57600080fd5b6020830151611b5e9083611fc0565b6020840181905260001215611b7257600080fd5b611b858460000151856040015184613216565b505050505050565b600080611b9e868660000151610bec565b9050806020015160001480611bb65750828160200151145b611bd25760405162461bcd60e51b81526004016102cf90615309565b602081018390526040810151611be8908561331c565b6040820152611bf78186611596565b5091949350505050565b60008080611c0f88886120de565b89519193509150611c27908a908c9084908a8a61332e565b8a51909450611c3891508990611040565b8115611c82576000611c726110936110148c6040015161ffff168e611c69611093611c628a611534565b8c90612c02565b8a929190612c3a565b9050611c7e848261331c565b9350505b5050979650505050505050565b611c97614cc2565b6000611ca1613385565b6001600160a01b03841660008181526020838152604091829020928652825461ffff808216928801929092526201000081049091169186019190915291925090611d029063ffffffff6401000000009091048116906305f5e1009061204916565b60608401528054611d2090600160501b900460ff166207a120611a91565b60808401528054611d449068010000000000000000900461ffff16620186a0611a91565b60a08401528054611d6390600160701b900461ffff16620186a0611a91565b610120840152805460649060ff600160581b90910416633b9aca00020560c08401528054600160601b810460ff90811660e0860152600160681b909104166101008401526040805180820191829052906001830190600290826000855b82829054906101000a900461ffff1661ffff1681526020019060020190602082600101049283019260010382029150808411611dc057905050505050508361014001819052505050919050565b611e15614dad565b6000806000611e2385613392565b604080516060810182526001600160a01b039093168352602083019390935260ff16600a0a918101919091529350505050919050565b600080610b9f6016612f8b565b600080610b9f6015612f8b565b600081611e8257506000611b17565b600080611e8f878561172f565b915091506000611eae8760400151886000015188858c60000151613453565b9050611ecc611ebc84611534565b610160890151610d3b9084611fd6565b98975050505050505050565b6000611ee384612f4f565b156114b6576000611ef2611722565b6001600160a01b03808616600090815260209283526040808220895190931682529190925280822090870151909250611f2e9061ffff1661350d565b82549091506001600160501b036401000000008204811691600160701b9004168115611f8557611f82611f7b848a6101400151600060028110611f6d57fe5b60200201518b518a87613670565b8690611fc0565b94505b8015611fb557611fb2611f7b848a6101400151600160028110611fa457fe5b60200201518b518a86613670565b94505b505050509392505050565b81810182811215600083121514610b9f57600080fd5b600080611b178460200151610e6786604001516113b06402540be4008861204990919063ffffffff16565b80820382811315600083121514610b9f57600080fd5b6000610b9c61202a84633b9aca00612049565b83612097565b6000610b9c61203f8484612049565b633b9aca00612097565b8181026000198314156120795781158061206b57508282828161206857fe5b05145b61207457600080fd5b610b9f565b82158061208e57508183828161208b57fe5b05145b610b9f57600080fd5b6000816000191480156120ad5750600160ff1b83145b156120b757600080fd5b8183816120c057fe5b059392505050565b6120d0614dad565b6000806000611e2385613721565b6000806120eb848461172f565b608086015191935091506120ff9083611ad7565b608085015260a08401516121139082611ad7565b60a085015260608401516121279084611ad7565b606090940193909352929050565b60008061214488888686612512565b90506000612151876137a6565b90506affffffffffffffffffffff811061216a57600080fd5b600060788763ffffffff16901b609883901b60f085901b60f860008c13612192576001612195565b60005b60058111156121a057fe5b60ff16901b17171760001b905073__TradingAction_________________________63e50f349e8b836040518363ffffffff1660e01b81526004016121e69291906156ef565b60206040518083038186803b1580156121fe57600080fd5b505af4158015612212573d6000803e3d6000fd5b505050506040513d601f19601f82011682018060405250810190612236919061510e565b9a9950505050505050505050565b60006001600160501b0382111561154a57600080fd5b612262614d7e565b61226a614d7e565b61227b836040015161ffff16611986565b915060048260600151600581111561228f57fe5b146122aa576122a5836040015161ffff16613010565b6122ac565b815b9050915091565b806005856060015160058111156122c657fe5b14156122eb5760006122d784613010565b90506122e78160000151846137c7565b9250505b6000821315612317576000612301868685613856565b9050856020015115612311578091505b50611b17565b60038560600151600581111561232957fe5b1415612346576123418461233c84610f9c565b613023565b611b17565b8451611b17908561235685610f9c565b61393f565b60008060058560600151600581111561237057fe5b14612382576370a0823160e01b61238b565b630ed1279f60e11b5b9050600061239e866000015130846139b6565b90506005866060015160058111156123b257fe5b14156123d95760006123c78661ffff16613010565b90506123d38186613ac8565b50612422565b6001866060015160058111156123eb57fe5b1415612400576123fb8685613b33565b612422565b60028660600151600581111561241257fe5b141561009c576123fb8685613bd5565b6000612433876000015130856139b6565b90506124476124428284613c28565b611534565b979650505050505050565b60006305f5e1008360400151141561246b575080610b9f565b6040830151610b9c90610e67846305f5e100612049565b6000821261248f57600080fd5b60006124a886604001518585858a610100015142612135565b9050600081136124ca5760405162461bcd60e51b81526004016102cf90615586565b6124d78787878685611b1f565b86516124e290610f9c565b866060015113156125055760405162461bcd60e51b81526004016102cf906155ad565b6110378688838742613c7f565b60008060006125248761ffff16613d7a565b90506125348160ff168786613d90565b9093509150848311156125595760405162461bcd60e51b81526004016102cf906153fc565b81156125775760405162461bcd60e51b81526004016102cf906153fc565b5050949350505050565b6000876080015160001461259457600080fd5b6000876080015112156125a657600080fd5b8751602088015110156125ce576040870151156125c257600080fd5b875160208801526125df565b87516020880151146125df57600080fd5b600085156125fa576125f78989888a60000151613e58565b90505b606088015160808901518a51600092612617928b928a8a8a613ed6565b905061263361262c8b8b848c60000151613e58565b839061331c565b915088606001516001600160a01b03168a6000015189600001516001600160a01b03167f87d46c761bdd82b4a559098beeb0d5b8fa8c0e2aa3607704fe0757618e85e24d61268e8a8e6080015161331c90919063ffffffff16565b8b8760405161269f939291906152b2565b60405180910390a4600060808a0152612236878261331c565b6126c0614dad565b6000806126cd8686613f8c565b9150915081600014156127fd5760006126e587613721565b91945090925090506001600160a01b038116156127fb576000612706613fd5565b90508560001080156127185750858711155b8015612729575064ffffffffff8611155b61273257600080fd5b83600012801561274957506001600160801b038413155b61275257600080fd5b6000888152602082815260408083208a845290915290819020805464ffffffffff191664ffffffffff89161774ffffffffffffffffffffffffffffffff00000000001916650100000000006001600160801b038816021760ff60a81b1916600160a81b60ff871602178155905188908a907f0fdfa6885701e2f1f42e4187b9231cf81c1fe23671ef64fa46f34ddb56c1dc18906127f09089906156db565b60405180910390a350505b505b6040805160608101825260008152602081019390935260ff909116600a0a9082015290509392505050565b60008061284c61284561283e8860800151611534565b8690611aec565b8490611fc0565b905061285785612f4f565b1561296b576000612866611722565b60608901516001600160a01b039081166000908152602092835260408082208a519093168252919092528120875189516101408a015151835493955084936128c19392919064010000000090046001600160501b0316613fe2565b90925090506128d08483611fc0565b93506128dc8582612001565b88518a516101408b015160200151865493985061290893600160701b90046001600160501b0316613fe2565b90925090506129178483611fc0565b93506129238582612001565b945061292d611722565b60608b01516001600160a01b039081166000908152602092835260408082208c51909316825291909252902080546001600160c01b03191690555050505b61299e6129978860000151610d3b6129868a60600151611534565b610e67866113b08e60400151611534565b8390611fc0565b915060008212156129c0576129b661127f8584611fd6565b6080880152600091505b5095945050505050565b60008060006129f66129e9886020015188611fd690919063ffffffff16565b610d3b8960800151611534565b90506000612a0885610d3b8985611aec565b90508015612a4157612a2e61109382610e67612a278c60a00151611534565b8a90612049565b9250612a3e81610e678885612049565b93505b50506000612a4d614076565b88516001600160a01b03166000908152602091825260408082208a5183529092522080549091506001600160501b03811690600160501b9004600990810b900b83821015612aca57612abd611f7b612ab66305f5e100610e678d60c001516113b0888b03611534565b8a90611fd6565b9450909250600090612ad0565b83820391505b82546001600160501b0319166001600160501b0383161783556000851215612af757600080fd5b84811215612b6a576000808213612b0e5785612b12565b8186035b90506000612b2e8c600001518d60400151848e60000151614083565b90506000831315612b5f57612b438382611fc0565b8554600160501b600160a01b0319168655965060009250612b63565b8096505b5050612ba9565b612b748186612001565b9050612b7f816141ab565b835460099190910b6001600160501b0316600160501b02600160501b600160a01b03199091161783555b88600001518a600001516001600160a01b03167ff5b347a56f0b5140f05eec05ff743978670a56685689fdc2c3193d71cfac31a98385604051612bed9291906152a4565b60405180910390a35050509550959350505050565b60006305f5e10083604001511415612c1b575080610b9f565b610b9c6305f5e100610e6785604001518561204990919063ffffffff16565b600080600286606001516005811115612c4f57fe5b1415612c6757612c608685856141db565b9050612cc4565b6000612c7286613010565b9050600587606001516005811115612c8657fe5b1415612c9e57612c97818686614298565b9150612cc2565b600187606001516005811115612cb057fe5b141561009c57612c9787828787614349565b505b612cd061101482611534565b9695505050505050565b600080600080612ce98861225a565b9150915060008088608001511215612d5e57600483606001516005811115612d0d57fe5b1415612d2a57612d236110938960800151610f9c565b9050612d5e565b6000612d4b6110148a608001518c6101600151611aec90919063ffffffff16565b9050612d5a6110938483614447565b9150505b604088015160009015612e36576000612d778430614483565b90508a600001516001600160a01b03166344f051088b600001518c602001518d604001518e60600151888f8f6040518863ffffffff1660e01b8152600401612dc597969594939291906151b3565b602060405180830381600087803b158015612ddf57600080fd5b505af1158015612df3573d6000803e3d6000fd5b505050506040513d601f19601f82011682018060405250810190612e17919061510e565b95506000612e258530614483565b9050612e318183611ad7565b925050505b81811015612ed157808203600384606001516005811115612e5357fe5b1415612e915734811115612e795760405162461bcd60e51b81526004016102cf90615376565b612e898a60000151823403613023565b829150612ecf565b6000612eb68b600001518d6040015161ffff16612ead85611534565b889291906122b3565b9050612ecb612ec482611a82565b849061331c565b9250505b505b81811015612ef15760405162461bcd60e51b81526004016102cf90615376565b6000600485606001516005811115612f0557fe5b1415612f1b57612f1482611534565b9050612f35565b8115612f355760408b0151612f329086908461235b565b90505b612f3f8582612452565b9650505050505094509492505050565b6101408101515160009061ffff16151580610faa57505061014001516020015161ffff16151590565b600063ffffffff82111561154a57600080fd5b6000620f424082601a811115612f9d57fe5b0192915050565b600080600080600080612fb561452d565b6001600160a01b039097166000908152602097909752505060409094205461ffff81169563ffffffff620100008304811696506601000000000000830416945060ff600160501b8304169350600160581b90910460d81b9150565b613018614d7e565b610faa8260016130e1565b6040516001600160a01b0383169082156108fc029083906000818181858888f19350505050158015610f23573d6000803e3d6000fd5b836001600160a01b03166323b872dd8484846040518463ffffffff1660e01b815260040180846001600160a01b03168152602001836001600160a01b031681526020018281526020019350505050600060405180830381600087803b1580156130c157600080fd5b505af11580156130d5573d6000803e3d6000fd5b5050505061159061453a565b6130e9614d7e565b60006130f36145a7565b6000858152602082815260408083208715158452825291829020825160a08101845281546001600160a01b038116825260ff600160a01b82048116151594830194909452600160b01b81048416600a0a9482019490945293945092916060830191600160a81b90910416600581111561316857fe5b81529154600160b81b900468ffffffffffffffffff16602090920191909152949350505050565b60008161319e57506000610b9f565b600082136131ab57600080fd5b60006131b684613010565b905060006131c782600001516145b4565b9050600281056b033b2e3c9fd0803ce80000006001600160ff1b03829003058513156131f257600080fd5b81816b033b2e3c9fd0803ce80000008702018161320b57fe5b059695505050505050565b60008061322161463f565b6001600160a01b03861660009081526020918252604080822061ffff8816835290925220805490915061326490600160501b90046001600160501b031684612001565b915060008312156132995780546001600160501b03168213156132995760405162461bcd60e51b81526004016102cf90615426565b6132a561109883611a82565b81546001600160501b0391909116600160501b02600160501b600160a01b031990911617815560405161ffff8516906001600160a01b038716907f20478ef460e49d010960d4f3fff35d8dae385443abfac09035d6a2ccbcd834c49061330c90869061529b565b60405180910390a3509392505050565b600082820183811015610b9c57600080fd5b600080613376886040518060a001604052808a6001600160a01b031681526020018a6001600160a01b0316815260200189815260200188815260200160008152508686612cda565b90999098509650505050505050565b600080610b9f6014612f8b565b60008060008060006133a38661464c565b909250905060006001600160a01b0383166133c85750600090506402540be400613448565b826001600160a01b031663b2fffb046040518163ffffffff1660e01b815260040160206040518083038186803b15801561340157600080fd5b505afa158015613415573d6000803e3d6000fd5b505050506040513d601f19601f82011682018060405250810190613439919061510e565b90506000811361344857600080fd5b969195509350915050565b6000806134638761ffff16613010565b90508060400151600014156134825761347f8761ffff16611986565b90505b60405163e937711160e01b8152612447906001600160a01b0388169063e9377111906134b690899089908990600401615241565b60206040518083038186803b1580156134ce57600080fd5b505afa1580156134e2573d6000803e3d6000fd5b505050506040513d601f19601f82011682018060405250810190613506919061510e565b8290612452565b613515614dd7565b600061351f614683565b600084815260208290526040812091925080600186141561354c5750670de0b6b3a7640000905080613622565b825460408051633fabe5a360e21b815290516001600160a01b039092169163feaf968c9160048082019260a092909190829003018186803b15801561359057600080fd5b505afa1580156135a4573d6000803e3d6000fd5b505050506040513d601f19601f820116820180604052508101906135c89190615126565b50919350506000831391506135f190505760405162461bcd60e51b81526004016102cf90615538565b825460ff600160a01b82048116600a0a9350600160a81b90910416156136225761361f81610e678480612049565b90505b6040805160a0810182529283526020830191909152915460ff600160b01b8204811693830193909352600160b81b810483166060830152600160c01b90049091166080820152915050919050565b60008061367b614690565b6001600160a01b038616600090815260209182526040808220878352835280822061ffff8a16835290925290812080549092506001600160501b0380821692600160501b90920416906136d561244283610a248987611a91565b905060006136e68a61ffff1661350d565b905060006136f48c8361469d565b905061371181610e678e600001518661204990919063ffffffff16565b9c9b505050505050505050505050565b60008060008060006137328661464c565b909250905060006001600160a01b0383166137575750600090506402540be400613448565b826001600160a01b0316631ee108336040518163ffffffff1660e01b8152600401602060405180830381600087803b15801561379257600080fd5b505af1158015613415573d6000803e3d6000fd5b6000808212156137c0576137b982610f9c565b9050610fad565b5080610fad565b6000816137d657506000610b9f565b60006137e1846145b4565b905060006137ee846137a6565b9050816b019d971e4fe8401e74000001600160ff1b038161380b57fe5b0581131561381857600080fd5b6b033b2e3c9fd0803ce80000006b019d971e4fe8401e7400000083830201056000851361384d5761384881610f9c565b612cd0565b95945050505050565b600080808060058760600151600581111561386d57fe5b1461387f576370a0823160e01b613888565b630ed1279f60e11b5b90508660200151156138a45786516138a19030836139b6565b92505b86516138b19087876146c2565b8660200151806138c5575060008760800151115b156138da5786516138d79030836139b6565b91505b6080870151156139155760006138f8886138f385611534565b612452565b90506139078860800151611534565b81131561391357600080fd5b505b8660200151156139365761392c6124428385613c28565b93505050506114b6565b61392c85611534565b826001600160a01b031663a9059cbb83836040518363ffffffff1660e01b815260040180836001600160a01b0316815260200182815260200192505050600060405180830381600087803b15801561399657600080fd5b505af11580156139aa573d6000803e3d6000fd5b50505050610f2361453a565b604080516001600160a01b0384811660248084019190915283518084039091018152604490920183526020820180516001600160e01b03166001600160e01b0319861617815292518251600094859485948a16939092909182918083835b60208310613a335780518252601f199092019160209182019101613a14565b6001836020036101000a038019825116818451168082178552505050505050905001915050600060405180830381855afa9150503d8060008114613a93576040519150601f19603f3d011682016040523d82523d6000602084013e613a98565b606091505b509150915081613aa757600080fd5b808060200190516020811015613abc57600080fd5b50519695505050505050565b613ad061471a565b54825160405163e8eda9df60e01b81526001600160a01b039092169163e8eda9df91613b059185903090600090600401615214565b600060405180830381600087803b158015613b1f57600080fd5b505af1158015611b85573d6000803e3d6000fd5b815160405163140e25ad60e31b81526000916001600160a01b03169063a0712d6890613b6390859060040161529b565b602060405180830381600087803b158015613b7d57600080fd5b505af1158015613b91573d6000803e3d6000fd5b505050506040513d601f19601f82011682018060405250810190613bb5919061510e565b90508015610f235760405162461bcd60e51b81526004016102cf90615338565b81600001516001600160a01b0316631249c58b826040518263ffffffff1660e01b81526004016000604051808303818588803b158015613c1457600080fd5b505af1158015611037573d6000803e3d6000fd5b600082821115611ae6576040805162461bcd60e51b815260206004820152601e60248201527f536166654d6174683a207375627472616374696f6e206f766572666c6f770000604482015290519081900360640190fd5b6000613ca46301da9c00610e67613c996124428787611ad7565b60808a015190612049565b90506000613cb28583612030565b90506000613cd26064610e678a60e001518561204990919063ffffffff16565b90506000613ce08383612001565b9050613cf4896040015161ffff1683614727565b613d06896040015161ffff16826147ae565b6080880151613d159084612001565b88608001818152505085896040015161ffff168a600001516001600160a01b03167f7456cb4b7c3068832fb334a03d3cd8e440286bad834cb9e332df05ae6792cfbb8585604051613d679291906152a4565b60405180910390a4505050505050505050565b600080613d86836147fa565b60ff169392505050565b60008060008511613db35760405162461bcd60e51b81526004016102cf906153a6565b6007851115613dd45760405162461bcd60e51b81526004016102cf90615471565b6000613ddf84614817565b905060015b868111613e37576000613e00613df983614835565b84906148d9565b905086811415613e185750925060009150613e509050565b86811115613e2e5750925060019150613e509050565b50600101613de4565b5060405162461bcd60e51b81526004016102cf906155f6565b935093915050565b60008460a0015160001415613e6e575081613e90565b613e8d8560a00151610a24876060015186611a9190919063ffffffff16565b90505b60a0850151613e9f908461331c565b60a08601526060850151613eb3908261331c565b60608601526040840151613ec7908261331c565b6040850152611b178583611040565b600080613eec89600001518a6040015189611414565b89519091506001600160a01b031663dc6679c589613f0a848961331c565b8988886040518663ffffffff1660e01b8152600401613f2d959493929190615262565b602060405180830381600087803b158015613f4757600080fd5b505af1158015613f5b573d6000803e3d6000fd5b505050506040513d601f19601f82011682018060405250810190613f7f919061510e565b9998505050505050505050565b6000806000613f99613fd5565b6000958652602090815260408087209587529490525050509020546501000000000081046001600160801b031691600160a81b90910460ff1690565b600080610b9f6008612f8b565b60008061ffff8416613ff95750600090508061406d565b6000614003614690565b6001600160a01b038816600090815260209182526040808220898352835280822061ffff891683529092522080549091506001600160501b03600160a01b8204811691600160501b90041685156140685761406561244282610a248986611a91565b93505b509250505b94509492505050565b600080610b9f6019612f8b565b6000614090856000614933565b846001600160a01b03167f7c51c6aa77346c54cb051d9e792f9b7bde5c28a9b57e6fb2d2dd727b38438ca960006040516140ca9190615290565b60405180910390a2818461ffff16866001600160a01b03167f823b641d46550301006f807a26587634f15bd13749efdc8859734377d5304a3b86604051614111919061529b565b60405180910390a4600061412a60008661ffff16614993565b505050905080841361414a5761414285858303614a3c565b8391506141a2565b614155856000614a3c565b828561ffff16876001600160a01b03167f3a717b6924e3ad05b8c7609a2401472af90869b52cc3c9ca69b50100b4be6316848803604051614196919061529b565b60405180910390a48091505b50949350505050565b6000697fffffffffffffffffff1982128015906141d25750697fffffffffffffffffff8213155b61154a57600080fd5b825160405163db006a7560e01b8152600091479183916001600160a01b03169063db006a759061420f90879060040161529b565b602060405180830381600087803b15801561422957600080fd5b505af115801561423d573d6000803e3d6000fd5b505050506040513d601f19601f82011682018060405250810190614261919061510e565b905080156142815760405162461bcd60e51b81526004016102cf90615356565b4761428c8184613c28565b93506118a78685613023565b60006142b361109385600001516142ae85611534565b6137c7565b90506142bd61471a565b548451604051631a4ca37b60e21b81526001600160a01b03909216916369328dec916142ef91859088906004016151f1565b602060405180830381600087803b15801561430957600080fd5b505af115801561431d573d6000803e3d6000fd5b505050506040513d601f19601f82011682018060405250810190614341919061510e565b509392505050565b8251600090819061436290306370a0823160e01b6139b6565b9050600086600001516001600160a01b031663db006a75856040518263ffffffff1660e01b8152600401614396919061529b565b602060405180830381600087803b1580156143b057600080fd5b505af11580156143c4573d6000803e3d6000fd5b505050506040513d601f19601f820116820180604052508101906143e8919061510e565b905080156144085760405162461bcd60e51b81526004016102cf90615356565b855160009061441f90306370a0823160e01b6139b6565b905061442b8184613c28565b935061443c8760000151878661393f565b505050949350505050565b60006305f5e1008360400151121561446f576144686001610d3b8585612c02565b9050610b9f565b610b9c8361447e846001611fc0565b612c02565b600060038360600151600581111561449757fe5b14156144ae57506001600160a01b03811631610b9f565b82516040516370a0823160e01b81526001600160a01b03909116906370a08231906144dd90859060040161519f565b60206040518083038186803b1580156144f557600080fd5b505afa158015614509573d6000803e3d6000fd5b505050506040513d601f19601f82011682018060405250810190614468919061510e565b600080610b9f6002612f8b565b6000614544614e06565b3d8015614558576020811461456157600080fd5b6001925061456c565b60206000833e815192505b50816117d4576040805162461bcd60e51b8152602060048201526005602482015264045524332360dc1b604482015290519081900360640190fd5b600080610b9f6007612f8b565b6000610faa6145c161471a565b5460405163d15e005360e01b81526001600160a01b039091169063d15e0053906145ef90869060040161519f565b60206040518083038186803b15801561460757600080fd5b505afa15801561461b573d6000803e3d6000fd5b505050506040513d601f19601f82011682018060405250810190612442919061510e565b600080610b9f6017612f8b565b6000806000614659614a9f565b600094855260205250506040909120546001600160a01b03811692600160a01b90910460ff169150565b600080610b9f6010612f8b565b600080610b9f6018612f8b565b6000610b9c8260200151610e678460000151866020015161204990919063ffffffff16565b604080516323b872dd60e01b81526001600160a01b038481166004830152306024830152604482018490529151918516916323b872dd9160648082019260009290919082900301818387803b15801561399657600080fd5b600080610b9f6013612f8b565b600081121561473557600080fd5b6000614742600084614993565b505050905061475a8282611fc090919063ffffffff16565b905061476d600084836000806000614aac565b8261ffff167f85170c297762884f47ec6098b74925c795e6d33686b11019b400e33a9b23b5e9836040516147a1919061529b565b60405180910390a2505050565b60008112156147bc57600080fd5b60006147c783614bf3565b905060006147d58285614993565b50505090506147ed8382611fc090919063ffffffff16565b9050611590828583614c19565b600080614805614c37565b60009384526020525050604090205490565b60006276a70082101561482957600080fd5b506276a7008106900390565b6000816001141561484a57506276a700610fad565b816002141561485d575062ed4e00610fad565b816003141561487157506301da9c00610fad565b816004141561488557506303b53800610fad565b816005141561489957506309450c00610fad565b81600614156148ad575063128a1800610fad565b81600714156148c157506325143000610fad565b60405162461bcd60e51b81526004016102cf906153d5565b600082820183811015610b9c576040805162461bcd60e51b815260206004820152601b60248201527f536166654d6174683a206164646974696f6e206f766572666c6f770000000000604482015290519081900360640190fd5b600061493d613385565b6001600160a01b038416600090815260208290526040902080549192509061ffff16831561497c57815461ffff19166001821761ffff1617825561498c565b815461ffff191661fffe82161782555b5050505050565b60008060008060006149a3614c44565b6001600160a01b0388166000908152602082815260408083208a8452909152902080546001600160501b0381169650600160501b900463ffffffff1694509091508315614a0c578054614a0590600160701b900466ffffffffffffff16614c51565b9250614a21565b8054600160701b900466ffffffffffffff1692505b54600160a81b9004600a90810b900b97939650919450925050565b6000811215614a4a57600080fd5b614a5f60008361ffff16836000806000614aac565b8161ffff167fd3625f7b5926828151efe19f7ae655488287357d99ebe67e5fb20522ca739c0b82604051614a93919061529b565b60405180910390a25050565b600080610b9f600f612f8b565b6000614ab6614c44565b6001600160a01b0388166000908152602082815260408083208a845290915290209091506a7fffffffffffffffffffff198612801590614b0157506a7fffffffffffffffffffff8613155b614b0a57600080fd5b60008512158015614b2257506001600160501b038513155b614b2b57600080fd5b83614b6b5766ffffffffffffff831115614b4457600080fd5b805466ffffffffffffff60701b1916600160701b66ffffffffffffff851602178155614b85565b8054600160501b900463ffffffff168414614b8557600080fd5b8054600a9690960b6affffffffffffffffffffff16600160a81b026001600160a81b036001600160501b039096166001600160501b031963ffffffff909616600160501b0263ffffffff60501b19909816979097179490941695909517939093169190911790925550505050565b600080614bfe614c5f565b6000938452602052505060409020546001600160a01b031690565b6000811215614c2757600080fd5b610f238383836000806000614aac565b600080610b9f6009612f8b565b600080610b9f6006612f8b565b600881901c60ff9091161b90565b600080610b9f6003612f8b565b60405180604001604052806002906020820280368337509192915050565b6040518060a0016040528060008152602001600081526020016000815260200160006001600160a01b03168152602001600081525090565b60405180610180016040528060006001600160a01b03168152602001600061ffff168152602001600061ffff16815260200160008152602001600081526020016000815260200160008152602001600081526020016000815260200160008152602001614d2d614c6c565b8152602001614d3a614dad565b905290565b6040518060e001604052806000815260200160008152602001600015158152602001600081526020016000815260200160008152602001600081525090565b6040805160a0810182526000808252602082018190529181018290529060608201908152602001600081525090565b604051806060016040528060006001600160a01b0316815260200160008152602001600081525090565b6040518060a0016040528060008152602001600081526020016000815260200160008152602001600081525090565b60405180602001604052806001906020820280368337509192915050565b80356001600160a01b0381168114610fad57600080fd5b60008083601f840112614e4c578182fd5b50813567ffffffffffffffff811115614e63578182fd5b60208301915083602082850101111561178257600080fd5b803563ffffffff81168114610fad57600080fd5b80516001600160501b0381168114610fad57600080fd5b60008060408385031215614eb8578182fd5b614ec183614e24565b915061177f60208401614e24565b600080600080600080600060c0888a031215614ee9578283fd5b614ef288614e24565b9650614f0060208901614e24565b9550614f0e60408901614e24565b94506060880135935060808801358015158114614f29578384fd5b925060a088013567ffffffffffffffff811115614f44578283fd5b614f508a828b01614e3b565b989b979a50959850939692959293505050565b60008060008060008060008060e0898b031215614f7e578081fd5b614f8789614e24565b9750614f9560208a01614e24565b9650614fa360408a01614e24565b95506060890135945060808901359350614fbf60a08a01614e7b565b925060c089013567ffffffffffffffff811115614fda578182fd5b614fe68b828c01614e3b565b999c989b5096995094979396929594505050565b60008060008060008060008060e0898b031215615015578384fd5b61501e89614e24565b975061502c60208a01614e24565b965060408901359550606089013594506080890135935061504f60a08a01614e7b565b925060c089013567ffffffffffffffff811115614fda578283fd5b60008060008060008060008060006101008a8c031215615088578081fd5b6150918a614e24565b985061509f60208b01614e24565b975060408a0135965060608a0135955060808a013594506150c260a08b01614e7b565b93506150d060c08b01614e7b565b925060e08a013567ffffffffffffffff8111156150eb578182fd5b6150f78c828d01614e3b565b915080935050809150509295985092959850929598565b60006020828403121561511f578081fd5b5051919050565b600080600080600060a0868803121561513d578081fd5b61514686614e8f565b945060208601519350604086015192506060860151915061516960808701614e8f565b90509295509295909350565b60008284528282602086013780602084860101526020601f19601f85011685010190509392505050565b6001600160a01b0391909116815260200190565b600060018060a01b03808a16835280891660208401525086604083015285606083015284608083015260c060a0830152613f7f60c083018486615175565b6001600160a01b0393841681526020810192909252909116604082015260600190565b6001600160a01b03948516815260208101939093529216604082015261ffff909116606082015260800190565b6001600160a01b039390931683526020830191909152604082015260600190565b600060018060a01b038716825285602083015284604083015260806060830152612447608083018486615175565b901515815260200190565b90815260200190565b918252602082015260400190565b9283526020830191909152604082015260600190565b93845260208401929092526040830152606082015260800190565b6020808252600c908201526b155b985d5d1a1bdc9a5e995960a21b604082015260600190565b6020808252601590820152740acc2ead8e840a6d0c2e4cae6409ad2e6dac2e8c6d605b1b604082015260600190565b602080825260049082015263135a5b9d60e21b604082015260600190565b60208082526006908201526552656465656d60d01b604082015260600190565b602080825260169082015275125b9cdd59999a58da595b9d081c995c185e5b595b9d60521b604082015260600190565b60208082526015908201527410d1ce881b9bc81b585c9ad95d1cc81b1a5cdd1959605a1b604082015260600190565b6020808252600d908201526c092dcecc2d8d2c840d2dcc8caf609b1b604082015260600190565b60208082526010908201526f496e76616c6964204d6174757269747960801b604082015260600190565b6020808252600c908201526b4d617820436170616369747960a01b604082015260600190565b6020808252600b908201526a139bdd0814d95d1d1b195960aa1b604082015260600190565b60208082526016908201527510d1ce881b585c9ad95d081a5b99195e08189bdd5b9960521b604082015260600190565b6020808252600f908201526e139bc8149bdb1b08105b1b1bddd959608a1b604082015260600190565b60208082526017908201527f496e73756666696369656e7420436f6c6c61746572616c000000000000000000604082015260600190565b60208082526017908201527f4d757374204c697175696461746520416c6c2044656274000000000000000000604082015260600190565b6020808252600c908201526b496e76616c6964207261746560a01b604082015260600190565b6020808252600e908201526d1499595b9d1c985b9d0818d85b1b60921b604082015260600190565b6020808252600d908201526c109bdc9c9bddc819985a5b1959609a1b604082015260600190565b6020808252600a90820152694d696e20426f72726f7760b01b604082015260600190565b6020808252600b908201526a092dcecc2d8d2c8408aa8960ab1b604082015260600190565b60208082526013908201527210d1ce881b9bc81b585c9ad95d08199bdd5b99606a1b604082015260600190565b6020808252600c908201526b21b0b73737ba1022b73a32b960a11b604082015260600190565b6020808252600b908201526a11985a5b19590813195b9960aa1b604082015260600190565b60208082526015908201527414dd59999a58da595b9d0810dbdb1b185d195c985b605a1b604082015260600190565b8151815260208083015190820152604080830151908201526060808301516001600160a01b0316908201526080918201519181019190915260a00190565b6001600160801b0391909116815260200190565b61ffff929092168252602082015260400190565b8381526080810160208083018560005b600281101561573057815183529183019190830190600101615713565b50505050826060830152949350505050565b918252151560208201526040019056fea26469706673582212202783a85e078cd67f4338761955ddbaf90cfa2c81b587d096196e22a4ef91135d64736f6c63430007060033","bytecodeSha1":"9457b7e37efe1bbcc3bab62e1ee8b6217cc27e5a","compiler":{"evm_version":"istanbul","optimizer":{"enabled":true,"runs":200},"version":"0.7.6+commit.7338295f"},"contractName":"VaultAccountAction","deployedBytecode":"60806040526004361061009c5760003560e01c80638246336711610064578063824633671461015d5780638da5cb5b1461017257806395c1a202146101875780639948315e1461019a578063c025d1a5146101ba578063c4c96dae146101e75761009c565b806324a3d622146100a1578063647cc196146100cc578063653b6104146100fb5780636ce48f011461011b578063803c25fb1461012e575b600080fd5b3480156100ad57600080fd5b506100b66101fc565b6040516100c3919061519f565b60405180910390f35b3480156100d857600080fd5b506100ec6100e7366004614ea6565b61020b565b6040516100c3939291906152b2565b61010e61010936600461506a565b6102aa565b6040516100c3919061529b565b61010e610129366004614f63565b610481565b34801561013a57600080fd5b5061014e610149366004614ea6565b6106cd565b6040516100c393929190615703565b34801561016957600080fd5b506100b661077e565b34801561017e57600080fd5b506100b661078d565b61010e610195366004614ffa565b6107a4565b3480156101a657600080fd5b5061010e6101b5366004614ecf565b61090c565b3480156101c657600080fd5b506101da6101d5366004614ea6565b610b8a565b6040516100c3919061569d565b3480156101f357600080fd5b506100b6610ba5565b6002546001600160a01b031681565b60008060008061021a85610bbd565b905060006102288787610bec565b9050600061023a878360200151610c6a565b90508260a00151945080604001511561025c576001600160ff1b0395506102a0565b6040820151825160009161027691869185918d9190610d05565b9097509050858712801561028a5750600081135b1561029e5761029a838583610d8b565b5094505b505b5050509250925092565b60006002600a5414156102d85760405162461bcd60e51b81526004016102cf9061555e565b60405180910390fd5b6002600a5560006102e88a610e9a565b90506102f6818c6010610ebe565b610301816080610f28565b1561030c576001600a555b60006103188c8c610bec565b9050610325826001610f28565b80156103375750610337826002610f28565b80156103465750806020015142105b80156103555750888160200151105b8015610361575060008a115b61037d5760405162461bcd60e51b81526004016102cf906154a1565b600061039183600001518360200151610c6a565b905060006103ae83846040015184610f3d9092919063ffffffff16565b90506103cd84836103c28660000151610f9c565b869291908d42610fb2565b8251156103ec5760405162461bcd60e51b81526004016102cf90615649565b83516103f9908390611040565b891561040a5761040a83858c6111b4565b61041c83858d8f8c8c8c88600061129b565b94508a8e6001600160a01b03168e6001600160a01b03167f67c1d09e65227d62b788f4c3e6ace545ac922034d69bd4aa45c53dec290275be8f604051610462919061529b565b60405180910390a450506001600a5550909a9950505050505050505050565b60006002600a5414156104a65760405162461bcd60e51b81526004016102cf9061555e565b6002600a5560006104b689610e9a565b90506104c4818b6008610ebe565b6104cf816080610f28565b156104da576001600a555b60006104e68b8b610bec565b905042816020015111610594576020810151600061050583854261133e565b9050600083608001511315610530576105278b85604001518560800151611414565b50600060808401525b61053f84848d84868c8c6114bd565b9450818d6001600160a01b03168d6001600160a01b03167fccd6b9aec297a77187bfaabfe7f98ac1dd313c796a73695dff89de0885dbb29388604051610585919061529b565b60405180910390a45050610692565b60006105a883600001518360200151610c6a565b90506105c383826105b88b611534565b859291908b42610fb2565b60006105d082848c610f3d565b90506000836080015113156105fb576105f28b85604001518560800151611414565b50600060808401525b801561061957815161061690859085908e9085908c8c6114bd565b94505b82516000131561062e5761062e84838561154e565b835161063b908390611040565b81600001518d6001600160a01b03168d6001600160a01b03167fea195c44d2295a1df0defe8210abb22b4a911b4379b9e30e764548ebee65c4208c8e8a604051610687939291906152b2565b60405180910390a450505b80511580156106a357506040810151155b156106b057600060208201525b6106ba8183611596565b50506001600a5598975050505050505050565b60006106d7614c6c565b6000806106e2611722565b6001600160a01b03878116600090815260209283526040808220928916825291835290812080546001600160501b03640100000000820481168852600160701b8204169387019390935263ffffffff90921695509091506107438787610bec565b90506000610755878360200151610c6a565b905061076e82604001518261172f90919063ffffffff16565b9050809450505050509250925092565b6001546001600160a01b031681565b60005464010000000090046001600160a01b031681565b60006002600a5414156107c95760405162461bcd60e51b81526004016102cf9061555e565b6002600a556107d789611789565b60006107e289610e9a565b90506107f0818b6004610ebe565b6107fb816080610f28565b15610806576001600a555b610811816001610f28565b61082d5760405162461bcd60e51b81526004016102cf90615623565b86421061084c5760405162461bcd60e51b81526004016102cf90615623565b60006108588b8b610bec565b905060008160200151600014158015610875575042826020015111155b156108885761088582844261133e565b90505b6000610895848e8d6117d8565b90506108a883858c8c8c8c8c898961129b565b9450898d6001600160a01b03168d6001600160a01b03167f7e1a5e400898c4bb3cfc62f61a71f4369ec78f0e778a31286892b7d2c0d044f28c6040516108ee919061529b565b60405180910390a450506001600a5550909998505050505050505050565b60006002600a5414156109315760405162461bcd60e51b81526004016102cf9061555e565b6002600a5560006109438989896118b1565b905060006109518a8a610bec565b905060006109638a8360200151610c6a565b90508160200151421061097557600080fd5b600080610999838e8660400151876000015189610d0590949392919063ffffffff16565b915091508460a0015182126109c05760405162461bcd60e51b81526004016102cf9061566e565b60006109d3866040015161ffff16611986565b90506109e38c8287898f87611999565b6000610a2a633b9aca00610a246109f986611a82565b610a248a60400151610a1e610a118e60c00151611a82565b610a1e8e60800151611a82565b90611a91565b90611ab8565b6040870151909150610a3c9082611ad7565b60408701526080860151610160880151600091610a599190611aec565b9050610a78888783610a6e8b60800151610f9c565b8b93929190611b1f565b865160001215610a8757600087525b8f6001600160a01b03168f6001600160a01b03167f5b4676a4ed91c52fd6c4a759aec8a3561b67499c52870fc58000a8eb54fec3018484604051610acc9291906152a4565b60405180910390a350610adf8688611596565b8c6001600160a01b03168f6001600160a01b03168f6001600160a01b03167f01745a2fe0d7c484ea79432a82f950eac6916adc499a0223d2ebdadcdb210f2a848f604051610b2e929190615742565b60405180910390a48a15610b60578651610b49908690611040565b610b598d88838960200151611b8d565b9750610b72565b610b6f8d8887848e8e88611c01565b97505b50506001600a5550939b9a5050505050505050505050565b610b92614c8a565b610b9c8383610bec565b90505b92915050565b73__$7ac922d04bd7a1b42c7f6e5f1dd89a70af$__90565b610bc5614cc2565b610bce82611c8f565b9050610be1816040015161ffff16611e0d565b610160820152919050565b610bf4614c8a565b6000610bfe611e59565b6001600160a01b03948516600081815260209283526040808220969097168152948252858520546001600160501b038082168703865263ffffffff600160a01b83041693860193909352600160501b900490911694830194909452506060810192909252608082015290565b610c72614d3f565b6000610c7c611e66565b6001600160a01b03909416600090815260209485526040808220858352865280822094845284546001600160501b038082169093039685019690965260ff600160f01b870416151590840152600160501b8086048216608085015260019094015480821660a0850152600160a01b909504166060830152509104600990810b900b60c082015290565b600080610d1486888787611e73565b90506000610d2788878960000151611ed8565b90506000610d4d610d4183610d3b88610f9c565b90611fc0565b6101608b015190611fd6565b90506000610d5b8483612001565b905081610d71576001600160ff1b039450610d7e565b610d7b8183612017565b94505b5050509550959350505050565b6000806000610dac633b9aca00866101200151611fc090919063ffffffff16565b90506000610dcc610dc08860000151610f9c565b61016088015190611fd6565b9050610e02610de88760c001518461200190919063ffffffff16565b610dfc87610df68587612030565b90612001565b90612017565b93506000610e108286612001565b90506000610e308860600151896101600151611fd690919063ffffffff16565b9050610e3c8382612001565b945080821215610e4a578295505b6000610e6d88610e678b60c001518a61204990919063ffffffff16565b90612097565b9050633b9aca008112610e8d5760c0890151610e8a908990612017565b96505b5050505050935093915050565b610ea2614cc2565b610eab82611c8f565b9050610be1816040015161ffff166120c8565b610ec88382610f28565b15610efb5782516001600160a01b03163314610ef65760405162461bcd60e51b81526004016102cf906152e3565b610f23565b6001600160a01b0382163314610f235760405162461bcd60e51b81526004016102cf906152e3565b505050565b60209190910151811661ffff90811691161490565b8251602083015160009114610f5157600080fd5b6040830151610f609083611ad7565b60408401526000610f7185846120de565b92509050610f8c610f8182611534565b608086015190611fc0565b6080909401939093529392505050565b6000610faa60001983612049565b90505b919050565b8551600090610fc19085611fc0565b1315610fcc57600080fd5b85602001518110610fdc57600080fd5b6000610ff98660400151886020015186868a610100015187612135565b90508061101c57610160860151611019906110149086611fd6565b610f9c565b90505b600081131561102a57600080fd5b6110378787878785611b1f565b50505050505050565b600061104a611e66565b6001600160a01b038316600090815260208281526040808320875184529091529081902090850151919250901561108057600080fd5b61109d6110986110938660200151610f9c565b611a82565b612244565b81546001600160501b0319166001600160501b039190911617815560808401516110c690612244565b81546001600160501b0391909116600160501b02600160501b600160a01b031990911617815560a08401516110fa90612244565b6001820180546001600160501b0319166001600160501b0392909216919091179055606084015161112a90612244565b81546001600160501b0391909116600160a01b0269ffffffffffffffffffff60a01b1990911617815583516020850151608086015160a087015160608801516040516001600160a01b038916947f3a0fdaecf7b5da75a56077f5b1c8fbc88f9b08e9d0c4db31eb34e25bc6700cde946111a694919390926152c8565b60405180910390a350505050565b6000806111c08461225a565b909250905060006003826060015160058111156111d957fe5b1415611205573484146111fe5760405162461bcd60e51b81526004016102cf906155d1565b503461122e565b61122b6110938760600151876040015161ffff1661122288611534565b869291906122b3565b90505b600060048460600151600581111561124257fe5b14156112585761125182611534565b9050611272565b811561127257604086015161126f9085908461235b565b90505b61128a61127f8583612452565b608089015190611fc0565b608090970196909652505050505050565b6000878a6020015114806112ae57508951155b6112b757600080fd5b60006112c78a600001518a610c6a565b905087156112ed576112e88b8b838c6112e26110148e611534565b8c612482565b611304565b6113028a604001518a8c610100015142612512565b505b611313818c8c87878b8b612581565b915061131f8b8b611596565b8715611330576113308a828d61154e565b509998505050505050505050565b60008061135384600001518660200151610c6a565b905080604001516113765760405162461bcd60e51b81526004016102cf9061544c565b600061138f856040015161ffff168760200151866126b8565b905060006113b66305f5e100610e678560c001516113b08760a00151611534565b90612049565b905060006113c78885898686612828565b905060006113d888868685876129ca565b60008b5260808b01519097509091506113f19082611fc0565b60808a015250506000604088018190526020909701969096525090949350505050565b600081611423575060006114b6565b6000821361143057600080fd5b600061143f8461ffff16611986565b9050600061144d8285612c02565b905060048260600151600581111561146157fe5b141561148f57611488611093611014888861ffff1661147f86610f9c565b879291906122b3565b92506114b3565b6114b06110936110148761ffff16896114a786611a82565b87929190612c3a565b92505b50505b9392505050565b600080876080015113156114d057600080fd5b61151c886040518060a001604052808a606001516001600160a01b03168152602001896001600160a01b031681526020018881526020018781526020018a608001518152508585612cda565b60006080909901989098525095979650505050505050565b60006001600160ff1b0382111561154a57600080fd5b5090565b60006115698484846060015185604001518660000151610d05565b509050808460a0015113156115905760405162461bcd60e51b81526004016102cf906154ca565b50505050565b60006115a0611e59565b60608401516001600160a01b039081166000908152602083815260408083208751909416835292905220608085015191925090156115dd57600080fd5b606083015184516115ed90610f9c565b1215611622578351158061160657506001846040015111155b6116225760405162461bcd60e51b81526004016102cf906155ad565b61162b83612f4f565b1561168d57600061163a611722565b60608601516001600160a01b03908116600090815260209283526040808220885190931682529183522080549187015190925063ffffffff90911690811480611681575080155b61168a57600080fd5b50505b6116a06110986110938660000151610f9c565b81546001600160501b0319166001600160501b039190911617815560408401516116c990612244565b81546001600160501b0391909116600160501b02600160501b600160a01b031990911617815560208401516116fd90612f78565b815463ffffffff91909116600160a01b0263ffffffff60a01b19909116179055505050565b600080610b9f601a612f8b565b6000806000846060015111156117825761175e8460600151610a24866080015186611a9190919063ffffffff16565b915061177f8460600151610a248660a0015186611a9190919063ffffffff16565b90505b9250929050565b6001600160a01b03811661179c57600080fd5b6001600160a01b0381163014156117b257600080fd5b60006117bd82612fa4565b5050505061ffff169050806000146117d457600080fd5b5050565b6000816117e7575060006114b6565b60006117fa856040015161ffff16611986565b9050600060048260600151600581111561181057fe5b1461182b57611826866040015161ffff16613010565b61182d565b815b86516020820151919250901561184257600080fd5b60038260600151600581111561185457fe5b141561188e578434146118795760405162461bcd60e51b81526004016102cf906155d1565b6118838134613023565b3493505050506114b6565b815161189c90878388613059565b8493505050506114b6565b5050509392505050565b6118b9614cc2565b6118c283610e9a565b90506118cf816080610f28565b156118da576001600a555b6118e5816020610f28565b1561191757336001600160a01b038416146119125760405162461bcd60e51b81526004016102cf906152e3565b61193f565b336001600160a01b0383161461193f5760405162461bcd60e51b81526004016102cf906152e3565b6001600160a01b038416331480159061196a5750816001600160a01b0316846001600160a01b031614155b6114b65760405162461bcd60e51b81526004016102cf906152e3565b61198e614d7e565b610faa8260006130e1565b60006119a483611534565b90506005866060015160058111156119b857fe5b14156119d3576119d0846040015161ffff168261318f565b90505b6000806119e1878786610d8b565b91509150600082136119f257600080fd5b60006119fe8984612c02565b905080841215611a3557611a128983612c02565b8412611a305760405162461bcd60e51b81526004016102cf90615501565b611a39565b8093505b6040870151600090611a53908b908d9061ffff16886122b3565b9050611a6d611a628b83612452565b60808b015190611fc0565b60809099019890985250505050505050505050565b60008082121561154a57600080fd5b600082611aa057506000610b9f565b82820282848281611aad57fe5b0414610b9c57600080fd5b6000808211611ac657600080fd5b818381611acf57fe5b049392505050565b600082821115611ae657600080fd5b50900390565b600080611b178460400151610e676402540be400610e6787896020015161204990919063ffffffff16565b949350505050565b6080850151611b2e9082611fc0565b60808601528451611b3f9083611fc0565b80865260001215611b4f57600080fd5b6020830151611b5e9083611fc0565b6020840181905260001215611b7257600080fd5b611b858460000151856040015184613216565b505050505050565b600080611b9e868660000151610bec565b9050806020015160001480611bb65750828160200151145b611bd25760405162461bcd60e51b81526004016102cf90615309565b602081018390526040810151611be8908561331c565b6040820152611bf78186611596565b5091949350505050565b60008080611c0f88886120de565b89519193509150611c27908a908c9084908a8a61332e565b8a51909450611c3891508990611040565b8115611c82576000611c726110936110148c6040015161ffff168e611c69611093611c628a611534565b8c90612c02565b8a929190612c3a565b9050611c7e848261331c565b9350505b5050979650505050505050565b611c97614cc2565b6000611ca1613385565b6001600160a01b03841660008181526020838152604091829020928652825461ffff808216928801929092526201000081049091169186019190915291925090611d029063ffffffff6401000000009091048116906305f5e1009061204916565b60608401528054611d2090600160501b900460ff166207a120611a91565b60808401528054611d449068010000000000000000900461ffff16620186a0611a91565b60a08401528054611d6390600160701b900461ffff16620186a0611a91565b610120840152805460649060ff600160581b90910416633b9aca00020560c08401528054600160601b810460ff90811660e0860152600160681b909104166101008401526040805180820191829052906001830190600290826000855b82829054906101000a900461ffff1661ffff1681526020019060020190602082600101049283019260010382029150808411611dc057905050505050508361014001819052505050919050565b611e15614dad565b6000806000611e2385613392565b604080516060810182526001600160a01b039093168352602083019390935260ff16600a0a918101919091529350505050919050565b600080610b9f6016612f8b565b600080610b9f6015612f8b565b600081611e8257506000611b17565b600080611e8f878561172f565b915091506000611eae8760400151886000015188858c60000151613453565b9050611ecc611ebc84611534565b610160890151610d3b9084611fd6565b98975050505050505050565b6000611ee384612f4f565b156114b6576000611ef2611722565b6001600160a01b03808616600090815260209283526040808220895190931682529190925280822090870151909250611f2e9061ffff1661350d565b82549091506001600160501b036401000000008204811691600160701b9004168115611f8557611f82611f7b848a6101400151600060028110611f6d57fe5b60200201518b518a87613670565b8690611fc0565b94505b8015611fb557611fb2611f7b848a6101400151600160028110611fa457fe5b60200201518b518a86613670565b94505b505050509392505050565b81810182811215600083121514610b9f57600080fd5b600080611b178460200151610e6786604001516113b06402540be4008861204990919063ffffffff16565b80820382811315600083121514610b9f57600080fd5b6000610b9c61202a84633b9aca00612049565b83612097565b6000610b9c61203f8484612049565b633b9aca00612097565b8181026000198314156120795781158061206b57508282828161206857fe5b05145b61207457600080fd5b610b9f565b82158061208e57508183828161208b57fe5b05145b610b9f57600080fd5b6000816000191480156120ad5750600160ff1b83145b156120b757600080fd5b8183816120c057fe5b059392505050565b6120d0614dad565b6000806000611e2385613721565b6000806120eb848461172f565b608086015191935091506120ff9083611ad7565b608085015260a08401516121139082611ad7565b60a085015260608401516121279084611ad7565b606090940193909352929050565b60008061214488888686612512565b90506000612151876137a6565b90506affffffffffffffffffffff811061216a57600080fd5b600060788763ffffffff16901b609883901b60f085901b60f860008c13612192576001612195565b60005b60058111156121a057fe5b60ff16901b17171760001b905073__$7ac922d04bd7a1b42c7f6e5f1dd89a70af$__63e50f349e8b836040518363ffffffff1660e01b81526004016121e69291906156ef565b60206040518083038186803b1580156121fe57600080fd5b505af4158015612212573d6000803e3d6000fd5b505050506040513d601f19601f82011682018060405250810190612236919061510e565b9a9950505050505050505050565b60006001600160501b0382111561154a57600080fd5b612262614d7e565b61226a614d7e565b61227b836040015161ffff16611986565b915060048260600151600581111561228f57fe5b146122aa576122a5836040015161ffff16613010565b6122ac565b815b9050915091565b806005856060015160058111156122c657fe5b14156122eb5760006122d784613010565b90506122e78160000151846137c7565b9250505b6000821315612317576000612301868685613856565b9050856020015115612311578091505b50611b17565b60038560600151600581111561232957fe5b1415612346576123418461233c84610f9c565b613023565b611b17565b8451611b17908561235685610f9c565b61393f565b60008060058560600151600581111561237057fe5b14612382576370a0823160e01b61238b565b630ed1279f60e11b5b9050600061239e866000015130846139b6565b90506005866060015160058111156123b257fe5b14156123d95760006123c78661ffff16613010565b90506123d38186613ac8565b50612422565b6001866060015160058111156123eb57fe5b1415612400576123fb8685613b33565b612422565b60028660600151600581111561241257fe5b141561009c576123fb8685613bd5565b6000612433876000015130856139b6565b90506124476124428284613c28565b611534565b979650505050505050565b60006305f5e1008360400151141561246b575080610b9f565b6040830151610b9c90610e67846305f5e100612049565b6000821261248f57600080fd5b60006124a886604001518585858a610100015142612135565b9050600081136124ca5760405162461bcd60e51b81526004016102cf90615586565b6124d78787878685611b1f565b86516124e290610f9c565b866060015113156125055760405162461bcd60e51b81526004016102cf906155ad565b6110378688838742613c7f565b60008060006125248761ffff16613d7a565b90506125348160ff168786613d90565b9093509150848311156125595760405162461bcd60e51b81526004016102cf906153fc565b81156125775760405162461bcd60e51b81526004016102cf906153fc565b5050949350505050565b6000876080015160001461259457600080fd5b6000876080015112156125a657600080fd5b8751602088015110156125ce576040870151156125c257600080fd5b875160208801526125df565b87516020880151146125df57600080fd5b600085156125fa576125f78989888a60000151613e58565b90505b606088015160808901518a51600092612617928b928a8a8a613ed6565b905061263361262c8b8b848c60000151613e58565b839061331c565b915088606001516001600160a01b03168a6000015189600001516001600160a01b03167f87d46c761bdd82b4a559098beeb0d5b8fa8c0e2aa3607704fe0757618e85e24d61268e8a8e6080015161331c90919063ffffffff16565b8b8760405161269f939291906152b2565b60405180910390a4600060808a0152612236878261331c565b6126c0614dad565b6000806126cd8686613f8c565b9150915081600014156127fd5760006126e587613721565b91945090925090506001600160a01b038116156127fb576000612706613fd5565b90508560001080156127185750858711155b8015612729575064ffffffffff8611155b61273257600080fd5b83600012801561274957506001600160801b038413155b61275257600080fd5b6000888152602082815260408083208a845290915290819020805464ffffffffff191664ffffffffff89161774ffffffffffffffffffffffffffffffff00000000001916650100000000006001600160801b038816021760ff60a81b1916600160a81b60ff871602178155905188908a907f0fdfa6885701e2f1f42e4187b9231cf81c1fe23671ef64fa46f34ddb56c1dc18906127f09089906156db565b60405180910390a350505b505b6040805160608101825260008152602081019390935260ff909116600a0a9082015290509392505050565b60008061284c61284561283e8860800151611534565b8690611aec565b8490611fc0565b905061285785612f4f565b1561296b576000612866611722565b60608901516001600160a01b039081166000908152602092835260408082208a519093168252919092528120875189516101408a015151835493955084936128c19392919064010000000090046001600160501b0316613fe2565b90925090506128d08483611fc0565b93506128dc8582612001565b88518a516101408b015160200151865493985061290893600160701b90046001600160501b0316613fe2565b90925090506129178483611fc0565b93506129238582612001565b945061292d611722565b60608b01516001600160a01b039081166000908152602092835260408082208c51909316825291909252902080546001600160c01b03191690555050505b61299e6129978860000151610d3b6129868a60600151611534565b610e67866113b08e60400151611534565b8390611fc0565b915060008212156129c0576129b661127f8584611fd6565b6080880152600091505b5095945050505050565b60008060006129f66129e9886020015188611fd690919063ffffffff16565b610d3b8960800151611534565b90506000612a0885610d3b8985611aec565b90508015612a4157612a2e61109382610e67612a278c60a00151611534565b8a90612049565b9250612a3e81610e678885612049565b93505b50506000612a4d614076565b88516001600160a01b03166000908152602091825260408082208a5183529092522080549091506001600160501b03811690600160501b9004600990810b900b83821015612aca57612abd611f7b612ab66305f5e100610e678d60c001516113b0888b03611534565b8a90611fd6565b9450909250600090612ad0565b83820391505b82546001600160501b0319166001600160501b0383161783556000851215612af757600080fd5b84811215612b6a576000808213612b0e5785612b12565b8186035b90506000612b2e8c600001518d60400151848e60000151614083565b90506000831315612b5f57612b438382611fc0565b8554600160501b600160a01b0319168655965060009250612b63565b8096505b5050612ba9565b612b748186612001565b9050612b7f816141ab565b835460099190910b6001600160501b0316600160501b02600160501b600160a01b03199091161783555b88600001518a600001516001600160a01b03167ff5b347a56f0b5140f05eec05ff743978670a56685689fdc2c3193d71cfac31a98385604051612bed9291906152a4565b60405180910390a35050509550959350505050565b60006305f5e10083604001511415612c1b575080610b9f565b610b9c6305f5e100610e6785604001518561204990919063ffffffff16565b600080600286606001516005811115612c4f57fe5b1415612c6757612c608685856141db565b9050612cc4565b6000612c7286613010565b9050600587606001516005811115612c8657fe5b1415612c9e57612c97818686614298565b9150612cc2565b600187606001516005811115612cb057fe5b141561009c57612c9787828787614349565b505b612cd061101482611534565b9695505050505050565b600080600080612ce98861225a565b9150915060008088608001511215612d5e57600483606001516005811115612d0d57fe5b1415612d2a57612d236110938960800151610f9c565b9050612d5e565b6000612d4b6110148a608001518c6101600151611aec90919063ffffffff16565b9050612d5a6110938483614447565b9150505b604088015160009015612e36576000612d778430614483565b90508a600001516001600160a01b03166344f051088b600001518c602001518d604001518e60600151888f8f6040518863ffffffff1660e01b8152600401612dc597969594939291906151b3565b602060405180830381600087803b158015612ddf57600080fd5b505af1158015612df3573d6000803e3d6000fd5b505050506040513d601f19601f82011682018060405250810190612e17919061510e565b95506000612e258530614483565b9050612e318183611ad7565b925050505b81811015612ed157808203600384606001516005811115612e5357fe5b1415612e915734811115612e795760405162461bcd60e51b81526004016102cf90615376565b612e898a60000151823403613023565b829150612ecf565b6000612eb68b600001518d6040015161ffff16612ead85611534565b889291906122b3565b9050612ecb612ec482611a82565b849061331c565b9250505b505b81811015612ef15760405162461bcd60e51b81526004016102cf90615376565b6000600485606001516005811115612f0557fe5b1415612f1b57612f1482611534565b9050612f35565b8115612f355760408b0151612f329086908461235b565b90505b612f3f8582612452565b9650505050505094509492505050565b6101408101515160009061ffff16151580610faa57505061014001516020015161ffff16151590565b600063ffffffff82111561154a57600080fd5b6000620f424082601a811115612f9d57fe5b0192915050565b600080600080600080612fb561452d565b6001600160a01b039097166000908152602097909752505060409094205461ffff81169563ffffffff620100008304811696506601000000000000830416945060ff600160501b8304169350600160581b90910460d81b9150565b613018614d7e565b610faa8260016130e1565b6040516001600160a01b0383169082156108fc029083906000818181858888f19350505050158015610f23573d6000803e3d6000fd5b836001600160a01b03166323b872dd8484846040518463ffffffff1660e01b815260040180846001600160a01b03168152602001836001600160a01b031681526020018281526020019350505050600060405180830381600087803b1580156130c157600080fd5b505af11580156130d5573d6000803e3d6000fd5b5050505061159061453a565b6130e9614d7e565b60006130f36145a7565b6000858152602082815260408083208715158452825291829020825160a08101845281546001600160a01b038116825260ff600160a01b82048116151594830194909452600160b01b81048416600a0a9482019490945293945092916060830191600160a81b90910416600581111561316857fe5b81529154600160b81b900468ffffffffffffffffff16602090920191909152949350505050565b60008161319e57506000610b9f565b600082136131ab57600080fd5b60006131b684613010565b905060006131c782600001516145b4565b9050600281056b033b2e3c9fd0803ce80000006001600160ff1b03829003058513156131f257600080fd5b81816b033b2e3c9fd0803ce80000008702018161320b57fe5b059695505050505050565b60008061322161463f565b6001600160a01b03861660009081526020918252604080822061ffff8816835290925220805490915061326490600160501b90046001600160501b031684612001565b915060008312156132995780546001600160501b03168213156132995760405162461bcd60e51b81526004016102cf90615426565b6132a561109883611a82565b81546001600160501b0391909116600160501b02600160501b600160a01b031990911617815560405161ffff8516906001600160a01b038716907f20478ef460e49d010960d4f3fff35d8dae385443abfac09035d6a2ccbcd834c49061330c90869061529b565b60405180910390a3509392505050565b600082820183811015610b9c57600080fd5b600080613376886040518060a001604052808a6001600160a01b031681526020018a6001600160a01b0316815260200189815260200188815260200160008152508686612cda565b90999098509650505050505050565b600080610b9f6014612f8b565b60008060008060006133a38661464c565b909250905060006001600160a01b0383166133c85750600090506402540be400613448565b826001600160a01b031663b2fffb046040518163ffffffff1660e01b815260040160206040518083038186803b15801561340157600080fd5b505afa158015613415573d6000803e3d6000fd5b505050506040513d601f19601f82011682018060405250810190613439919061510e565b90506000811361344857600080fd5b969195509350915050565b6000806134638761ffff16613010565b90508060400151600014156134825761347f8761ffff16611986565b90505b60405163e937711160e01b8152612447906001600160a01b0388169063e9377111906134b690899089908990600401615241565b60206040518083038186803b1580156134ce57600080fd5b505afa1580156134e2573d6000803e3d6000fd5b505050506040513d601f19601f82011682018060405250810190613506919061510e565b8290612452565b613515614dd7565b600061351f614683565b600084815260208290526040812091925080600186141561354c5750670de0b6b3a7640000905080613622565b825460408051633fabe5a360e21b815290516001600160a01b039092169163feaf968c9160048082019260a092909190829003018186803b15801561359057600080fd5b505afa1580156135a4573d6000803e3d6000fd5b505050506040513d601f19601f820116820180604052508101906135c89190615126565b50919350506000831391506135f190505760405162461bcd60e51b81526004016102cf90615538565b825460ff600160a01b82048116600a0a9350600160a81b90910416156136225761361f81610e678480612049565b90505b6040805160a0810182529283526020830191909152915460ff600160b01b8204811693830193909352600160b81b810483166060830152600160c01b90049091166080820152915050919050565b60008061367b614690565b6001600160a01b038616600090815260209182526040808220878352835280822061ffff8a16835290925290812080549092506001600160501b0380821692600160501b90920416906136d561244283610a248987611a91565b905060006136e68a61ffff1661350d565b905060006136f48c8361469d565b905061371181610e678e600001518661204990919063ffffffff16565b9c9b505050505050505050505050565b60008060008060006137328661464c565b909250905060006001600160a01b0383166137575750600090506402540be400613448565b826001600160a01b0316631ee108336040518163ffffffff1660e01b8152600401602060405180830381600087803b15801561379257600080fd5b505af1158015613415573d6000803e3d6000fd5b6000808212156137c0576137b982610f9c565b9050610fad565b5080610fad565b6000816137d657506000610b9f565b60006137e1846145b4565b905060006137ee846137a6565b9050816b019d971e4fe8401e74000001600160ff1b038161380b57fe5b0581131561381857600080fd5b6b033b2e3c9fd0803ce80000006b019d971e4fe8401e7400000083830201056000851361384d5761384881610f9c565b612cd0565b95945050505050565b600080808060058760600151600581111561386d57fe5b1461387f576370a0823160e01b613888565b630ed1279f60e11b5b90508660200151156138a45786516138a19030836139b6565b92505b86516138b19087876146c2565b8660200151806138c5575060008760800151115b156138da5786516138d79030836139b6565b91505b6080870151156139155760006138f8886138f385611534565b612452565b90506139078860800151611534565b81131561391357600080fd5b505b8660200151156139365761392c6124428385613c28565b93505050506114b6565b61392c85611534565b826001600160a01b031663a9059cbb83836040518363ffffffff1660e01b815260040180836001600160a01b0316815260200182815260200192505050600060405180830381600087803b15801561399657600080fd5b505af11580156139aa573d6000803e3d6000fd5b50505050610f2361453a565b604080516001600160a01b0384811660248084019190915283518084039091018152604490920183526020820180516001600160e01b03166001600160e01b0319861617815292518251600094859485948a16939092909182918083835b60208310613a335780518252601f199092019160209182019101613a14565b6001836020036101000a038019825116818451168082178552505050505050905001915050600060405180830381855afa9150503d8060008114613a93576040519150601f19603f3d011682016040523d82523d6000602084013e613a98565b606091505b509150915081613aa757600080fd5b808060200190516020811015613abc57600080fd5b50519695505050505050565b613ad061471a565b54825160405163e8eda9df60e01b81526001600160a01b039092169163e8eda9df91613b059185903090600090600401615214565b600060405180830381600087803b158015613b1f57600080fd5b505af1158015611b85573d6000803e3d6000fd5b815160405163140e25ad60e31b81526000916001600160a01b03169063a0712d6890613b6390859060040161529b565b602060405180830381600087803b158015613b7d57600080fd5b505af1158015613b91573d6000803e3d6000fd5b505050506040513d601f19601f82011682018060405250810190613bb5919061510e565b90508015610f235760405162461bcd60e51b81526004016102cf90615338565b81600001516001600160a01b0316631249c58b826040518263ffffffff1660e01b81526004016000604051808303818588803b158015613c1457600080fd5b505af1158015611037573d6000803e3d6000fd5b600082821115611ae6576040805162461bcd60e51b815260206004820152601e60248201527f536166654d6174683a207375627472616374696f6e206f766572666c6f770000604482015290519081900360640190fd5b6000613ca46301da9c00610e67613c996124428787611ad7565b60808a015190612049565b90506000613cb28583612030565b90506000613cd26064610e678a60e001518561204990919063ffffffff16565b90506000613ce08383612001565b9050613cf4896040015161ffff1683614727565b613d06896040015161ffff16826147ae565b6080880151613d159084612001565b88608001818152505085896040015161ffff168a600001516001600160a01b03167f7456cb4b7c3068832fb334a03d3cd8e440286bad834cb9e332df05ae6792cfbb8585604051613d679291906152a4565b60405180910390a4505050505050505050565b600080613d86836147fa565b60ff169392505050565b60008060008511613db35760405162461bcd60e51b81526004016102cf906153a6565b6007851115613dd45760405162461bcd60e51b81526004016102cf90615471565b6000613ddf84614817565b905060015b868111613e37576000613e00613df983614835565b84906148d9565b905086811415613e185750925060009150613e509050565b86811115613e2e5750925060019150613e509050565b50600101613de4565b5060405162461bcd60e51b81526004016102cf906155f6565b935093915050565b60008460a0015160001415613e6e575081613e90565b613e8d8560a00151610a24876060015186611a9190919063ffffffff16565b90505b60a0850151613e9f908461331c565b60a08601526060850151613eb3908261331c565b60608601526040840151613ec7908261331c565b6040850152611b178583611040565b600080613eec89600001518a6040015189611414565b89519091506001600160a01b031663dc6679c589613f0a848961331c565b8988886040518663ffffffff1660e01b8152600401613f2d959493929190615262565b602060405180830381600087803b158015613f4757600080fd5b505af1158015613f5b573d6000803e3d6000fd5b505050506040513d601f19601f82011682018060405250810190613f7f919061510e565b9998505050505050505050565b6000806000613f99613fd5565b6000958652602090815260408087209587529490525050509020546501000000000081046001600160801b031691600160a81b90910460ff1690565b600080610b9f6008612f8b565b60008061ffff8416613ff95750600090508061406d565b6000614003614690565b6001600160a01b038816600090815260209182526040808220898352835280822061ffff891683529092522080549091506001600160501b03600160a01b8204811691600160501b90041685156140685761406561244282610a248986611a91565b93505b509250505b94509492505050565b600080610b9f6019612f8b565b6000614090856000614933565b846001600160a01b03167f7c51c6aa77346c54cb051d9e792f9b7bde5c28a9b57e6fb2d2dd727b38438ca960006040516140ca9190615290565b60405180910390a2818461ffff16866001600160a01b03167f823b641d46550301006f807a26587634f15bd13749efdc8859734377d5304a3b86604051614111919061529b565b60405180910390a4600061412a60008661ffff16614993565b505050905080841361414a5761414285858303614a3c565b8391506141a2565b614155856000614a3c565b828561ffff16876001600160a01b03167f3a717b6924e3ad05b8c7609a2401472af90869b52cc3c9ca69b50100b4be6316848803604051614196919061529b565b60405180910390a48091505b50949350505050565b6000697fffffffffffffffffff1982128015906141d25750697fffffffffffffffffff8213155b61154a57600080fd5b825160405163db006a7560e01b8152600091479183916001600160a01b03169063db006a759061420f90879060040161529b565b602060405180830381600087803b15801561422957600080fd5b505af115801561423d573d6000803e3d6000fd5b505050506040513d601f19601f82011682018060405250810190614261919061510e565b905080156142815760405162461bcd60e51b81526004016102cf90615356565b4761428c8184613c28565b93506118a78685613023565b60006142b361109385600001516142ae85611534565b6137c7565b90506142bd61471a565b548451604051631a4ca37b60e21b81526001600160a01b03909216916369328dec916142ef91859088906004016151f1565b602060405180830381600087803b15801561430957600080fd5b505af115801561431d573d6000803e3d6000fd5b505050506040513d601f19601f82011682018060405250810190614341919061510e565b509392505050565b8251600090819061436290306370a0823160e01b6139b6565b9050600086600001516001600160a01b031663db006a75856040518263ffffffff1660e01b8152600401614396919061529b565b602060405180830381600087803b1580156143b057600080fd5b505af11580156143c4573d6000803e3d6000fd5b505050506040513d601f19601f820116820180604052508101906143e8919061510e565b905080156144085760405162461bcd60e51b81526004016102cf90615356565b855160009061441f90306370a0823160e01b6139b6565b905061442b8184613c28565b935061443c8760000151878661393f565b505050949350505050565b60006305f5e1008360400151121561446f576144686001610d3b8585612c02565b9050610b9f565b610b9c8361447e846001611fc0565b612c02565b600060038360600151600581111561449757fe5b14156144ae57506001600160a01b03811631610b9f565b82516040516370a0823160e01b81526001600160a01b03909116906370a08231906144dd90859060040161519f565b60206040518083038186803b1580156144f557600080fd5b505afa158015614509573d6000803e3d6000fd5b505050506040513d601f19601f82011682018060405250810190614468919061510e565b600080610b9f6002612f8b565b6000614544614e06565b3d8015614558576020811461456157600080fd5b6001925061456c565b60206000833e815192505b50816117d4576040805162461bcd60e51b8152602060048201526005602482015264045524332360dc1b604482015290519081900360640190fd5b600080610b9f6007612f8b565b6000610faa6145c161471a565b5460405163d15e005360e01b81526001600160a01b039091169063d15e0053906145ef90869060040161519f565b60206040518083038186803b15801561460757600080fd5b505afa15801561461b573d6000803e3d6000fd5b505050506040513d601f19601f82011682018060405250810190612442919061510e565b600080610b9f6017612f8b565b6000806000614659614a9f565b600094855260205250506040909120546001600160a01b03811692600160a01b90910460ff169150565b600080610b9f6010612f8b565b600080610b9f6018612f8b565b6000610b9c8260200151610e678460000151866020015161204990919063ffffffff16565b604080516323b872dd60e01b81526001600160a01b038481166004830152306024830152604482018490529151918516916323b872dd9160648082019260009290919082900301818387803b15801561399657600080fd5b600080610b9f6013612f8b565b600081121561473557600080fd5b6000614742600084614993565b505050905061475a8282611fc090919063ffffffff16565b905061476d600084836000806000614aac565b8261ffff167f85170c297762884f47ec6098b74925c795e6d33686b11019b400e33a9b23b5e9836040516147a1919061529b565b60405180910390a2505050565b60008112156147bc57600080fd5b60006147c783614bf3565b905060006147d58285614993565b50505090506147ed8382611fc090919063ffffffff16565b9050611590828583614c19565b600080614805614c37565b60009384526020525050604090205490565b60006276a70082101561482957600080fd5b506276a7008106900390565b6000816001141561484a57506276a700610fad565b816002141561485d575062ed4e00610fad565b816003141561487157506301da9c00610fad565b816004141561488557506303b53800610fad565b816005141561489957506309450c00610fad565b81600614156148ad575063128a1800610fad565b81600714156148c157506325143000610fad565b60405162461bcd60e51b81526004016102cf906153d5565b600082820183811015610b9c576040805162461bcd60e51b815260206004820152601b60248201527f536166654d6174683a206164646974696f6e206f766572666c6f770000000000604482015290519081900360640190fd5b600061493d613385565b6001600160a01b038416600090815260208290526040902080549192509061ffff16831561497c57815461ffff19166001821761ffff1617825561498c565b815461ffff191661fffe82161782555b5050505050565b60008060008060006149a3614c44565b6001600160a01b0388166000908152602082815260408083208a8452909152902080546001600160501b0381169650600160501b900463ffffffff1694509091508315614a0c578054614a0590600160701b900466ffffffffffffff16614c51565b9250614a21565b8054600160701b900466ffffffffffffff1692505b54600160a81b9004600a90810b900b97939650919450925050565b6000811215614a4a57600080fd5b614a5f60008361ffff16836000806000614aac565b8161ffff167fd3625f7b5926828151efe19f7ae655488287357d99ebe67e5fb20522ca739c0b82604051614a93919061529b565b60405180910390a25050565b600080610b9f600f612f8b565b6000614ab6614c44565b6001600160a01b0388166000908152602082815260408083208a845290915290209091506a7fffffffffffffffffffff198612801590614b0157506a7fffffffffffffffffffff8613155b614b0a57600080fd5b60008512158015614b2257506001600160501b038513155b614b2b57600080fd5b83614b6b5766ffffffffffffff831115614b4457600080fd5b805466ffffffffffffff60701b1916600160701b66ffffffffffffff851602178155614b85565b8054600160501b900463ffffffff168414614b8557600080fd5b8054600a9690960b6affffffffffffffffffffff16600160a81b026001600160a81b036001600160501b039096166001600160501b031963ffffffff909616600160501b0263ffffffff60501b19909816979097179490941695909517939093169190911790925550505050565b600080614bfe614c5f565b6000938452602052505060409020546001600160a01b031690565b6000811215614c2757600080fd5b610f238383836000806000614aac565b600080610b9f6009612f8b565b600080610b9f6006612f8b565b600881901c60ff9091161b90565b600080610b9f6003612f8b565b60405180604001604052806002906020820280368337509192915050565b6040518060a0016040528060008152602001600081526020016000815260200160006001600160a01b03168152602001600081525090565b60405180610180016040528060006001600160a01b03168152602001600061ffff168152602001600061ffff16815260200160008152602001600081526020016000815260200160008152602001600081526020016000815260200160008152602001614d2d614c6c565b8152602001614d3a614dad565b905290565b6040518060e001604052806000815260200160008152602001600015158152602001600081526020016000815260200160008152602001600081525090565b6040805160a0810182526000808252602082018190529181018290529060608201908152602001600081525090565b604051806060016040528060006001600160a01b0316815260200160008152602001600081525090565b6040518060a0016040528060008152602001600081526020016000815260200160008152602001600081525090565b60405180602001604052806001906020820280368337509192915050565b80356001600160a01b0381168114610fad57600080fd5b60008083601f840112614e4c578182fd5b50813567ffffffffffffffff811115614e63578182fd5b60208301915083602082850101111561178257600080fd5b803563ffffffff81168114610fad57600080fd5b80516001600160501b0381168114610fad57600080fd5b60008060408385031215614eb8578182fd5b614ec183614e24565b915061177f60208401614e24565b600080600080600080600060c0888a031215614ee9578283fd5b614ef288614e24565b9650614f0060208901614e24565b9550614f0e60408901614e24565b94506060880135935060808801358015158114614f29578384fd5b925060a088013567ffffffffffffffff811115614f44578283fd5b614f508a828b01614e3b565b989b979a50959850939692959293505050565b60008060008060008060008060e0898b031215614f7e578081fd5b614f8789614e24565b9750614f9560208a01614e24565b9650614fa360408a01614e24565b95506060890135945060808901359350614fbf60a08a01614e7b565b925060c089013567ffffffffffffffff811115614fda578182fd5b614fe68b828c01614e3b565b999c989b5096995094979396929594505050565b60008060008060008060008060e0898b031215615015578384fd5b61501e89614e24565b975061502c60208a01614e24565b965060408901359550606089013594506080890135935061504f60a08a01614e7b565b925060c089013567ffffffffffffffff811115614fda578283fd5b60008060008060008060008060006101008a8c031215615088578081fd5b6150918a614e24565b985061509f60208b01614e24565b975060408a0135965060608a0135955060808a013594506150c260a08b01614e7b565b93506150d060c08b01614e7b565b925060e08a013567ffffffffffffffff8111156150eb578182fd5b6150f78c828d01614e3b565b915080935050809150509295985092959850929598565b60006020828403121561511f578081fd5b5051919050565b600080600080600060a0868803121561513d578081fd5b61514686614e8f565b945060208601519350604086015192506060860151915061516960808701614e8f565b90509295509295909350565b60008284528282602086013780602084860101526020601f19601f85011685010190509392505050565b6001600160a01b0391909116815260200190565b600060018060a01b03808a16835280891660208401525086604083015285606083015284608083015260c060a0830152613f7f60c083018486615175565b6001600160a01b0393841681526020810192909252909116604082015260600190565b6001600160a01b03948516815260208101939093529216604082015261ffff909116606082015260800190565b6001600160a01b039390931683526020830191909152604082015260600190565b600060018060a01b038716825285602083015284604083015260806060830152612447608083018486615175565b901515815260200190565b90815260200190565b918252602082015260400190565b9283526020830191909152604082015260600190565b93845260208401929092526040830152606082015260800190565b6020808252600c908201526b155b985d5d1a1bdc9a5e995960a21b604082015260600190565b6020808252601590820152740acc2ead8e840a6d0c2e4cae6409ad2e6dac2e8c6d605b1b604082015260600190565b602080825260049082015263135a5b9d60e21b604082015260600190565b60208082526006908201526552656465656d60d01b604082015260600190565b602080825260169082015275125b9cdd59999a58da595b9d081c995c185e5b595b9d60521b604082015260600190565b60208082526015908201527410d1ce881b9bc81b585c9ad95d1cc81b1a5cdd1959605a1b604082015260600190565b6020808252600d908201526c092dcecc2d8d2c840d2dcc8caf609b1b604082015260600190565b60208082526010908201526f496e76616c6964204d6174757269747960801b604082015260600190565b6020808252600c908201526b4d617820436170616369747960a01b604082015260600190565b6020808252600b908201526a139bdd0814d95d1d1b195960aa1b604082015260600190565b60208082526016908201527510d1ce881b585c9ad95d081a5b99195e08189bdd5b9960521b604082015260600190565b6020808252600f908201526e139bc8149bdb1b08105b1b1bddd959608a1b604082015260600190565b60208082526017908201527f496e73756666696369656e7420436f6c6c61746572616c000000000000000000604082015260600190565b60208082526017908201527f4d757374204c697175696461746520416c6c2044656274000000000000000000604082015260600190565b6020808252600c908201526b496e76616c6964207261746560a01b604082015260600190565b6020808252600e908201526d1499595b9d1c985b9d0818d85b1b60921b604082015260600190565b6020808252600d908201526c109bdc9c9bddc819985a5b1959609a1b604082015260600190565b6020808252600a90820152694d696e20426f72726f7760b01b604082015260600190565b6020808252600b908201526a092dcecc2d8d2c8408aa8960ab1b604082015260600190565b60208082526013908201527210d1ce881b9bc81b585c9ad95d08199bdd5b99606a1b604082015260600190565b6020808252600c908201526b21b0b73737ba1022b73a32b960a11b604082015260600190565b6020808252600b908201526a11985a5b19590813195b9960aa1b604082015260600190565b60208082526015908201527414dd59999a58da595b9d0810dbdb1b185d195c985b605a1b604082015260600190565b8151815260208083015190820152604080830151908201526060808301516001600160a01b0316908201526080918201519181019190915260a00190565b6001600160801b0391909116815260200190565b61ffff929092168252602082015260400190565b8381526080810160208083018560005b600281101561573057815183529183019190830190600101615713565b50505050826060830152949350505050565b918252151560208201526040019056fea26469706673582212202783a85e078cd67f4338761955ddbaf90cfa2c81b587d096196e22a4ef91135d64736f6c63430007060033","language":"Solidity","natspec":{"kind":"dev","methods":{"deleverageAccount(address,address,address,uint256,bool,bytes)":{"notice":"If an account is below the minimum collateral ratio, this method wil deleverage (liquidate) that account. `depositAmountExternal` in the borrow currency will be transferred from the liquidator and used to offset the account's debt position. The liquidator will receive either vaultShares or cash depending.","params":{"account":"the address that will exit the vault","depositAmountExternal":"amount of asset cash to deposit","liquidator":"the address that will receive profits from liquidation","redeemData":"calldata sent to the vault when redeeming liquidator profits","transferSharesToLiquidator":"transfers the shares to the liquidator instead of redeeming them","vault":"the vault to enter"},"returns":{"profitFromLiquidation":"amount of vaultShares or cash received from liquidation"}},"enterVault(address,address,uint256,uint256,uint256,uint32,bytes)":{"notice":"Borrows a specified amount of fCash in the vault's borrow currency and deposits it all plus the depositAmountExternal into the vault to mint strategy tokens.","params":{"account":"the address that will enter the vault","depositAmountExternal":"some amount of additional collateral in the borrowed currency to be transferred to vault","fCash":"amount to borrow","maturity":"the maturity to borrow at","maxBorrowRate":"maximum interest rate to borrow at","vault":"the vault to enter","vaultData":"additional data to pass to the vault contract"},"returns":{"strategyTokensAdded":"the total strategy tokens added to the maturity, including any tokens from settlement. Allows enterVault to be used by off-chain methods to get an accurate simulation of the strategy tokens minted."}},"exitVault(address,address,address,uint256,uint256,uint32,bytes)":{"notice":"Prior to maturity, allows an account to withdraw their position from the vault. Will redeem some number of vault shares to the borrow currency and close the borrow position by lending `fCashToLend`. Any shortfall in cash from lending will be transferred from the account, any excess profits will be transferred to the account. Post maturity, will net off the account's debt against vault cash balances and redeem all remaining strategy tokens back to the borrowed currency and transfer the profits to the account.","params":{"account":"the address that will exit the vault","exitVaultData":"passed to the vault during exit","fCashToLend":"amount of fCash to lend","minLendRate":"the minimum rate to lend at","receiver":"the address that will receive profits","vault":"the vault to enter","vaultSharesToRedeem":"amount of vault tokens to exit, only relevant when exiting pre-maturity"},"returns":{"underlyingToReceiver":"amount of underlying tokens returned to the receiver on exit"}},"getVaultAccount(address,address)":{"notice":"View Methods *"},"rollVaultPosition(address,address,uint256,uint256,uint256,uint32,uint32,bytes)":{"notice":"Re-enters the vault at a longer dated maturity. The account's existing borrow position will be closed and a new borrow position at the specified maturity will be opened. Strategy token holdings will transfer to the longer dated maturity.","params":{"account":"the address that will reenter the vault","depositAmountExternal":"amount to deposit into the new maturity","fCashToBorrow":"amount of fCash to borrow in the next maturity","maturity":"new maturity to borrow at","maxBorrowRate":"slippage protection for new borrow position","minLendRate":"slippage protection for repaying debts","vault":"the vault to reenter"},"returns":{"strategyTokensAdded":"the total strategy tokens added to the maturity, including any tokens rolled from the previous maturity.. Allows rollVaultPosition to be used by off-chain methods to get an accurate simulation of the strategy tokens minted."}}},"version":1},"opcodes":"PUSH1 0x80 PUSH1 0x40 MSTORE PUSH1 0x4 CALLDATASIZE LT PUSH2 0x9C JUMPI PUSH1 0x0 CALLDATALOAD PUSH1 0xE0 SHR DUP1 PUSH4 0x82463367 GT PUSH2 0x64 JUMPI DUP1 PUSH4 0x82463367 EQ PUSH2 0x15D JUMPI DUP1 PUSH4 0x8DA5CB5B EQ PUSH2 0x172 JUMPI DUP1 PUSH4 0x95C1A202 EQ PUSH2 0x187 JUMPI DUP1 PUSH4 0x9948315E EQ PUSH2 0x19A JUMPI DUP1 PUSH4 0xC025D1A5 EQ PUSH2 0x1BA JUMPI DUP1 PUSH4 0xC4C96DAE EQ PUSH2 0x1E7 JUMPI PUSH2 0x9C JUMP JUMPDEST DUP1 PUSH4 0x24A3D622 EQ PUSH2 0xA1 JUMPI DUP1 PUSH4 0x647CC196 EQ PUSH2 0xCC JUMPI DUP1 PUSH4 0x653B6104 EQ PUSH2 0xFB JUMPI DUP1 PUSH4 0x6CE48F01 EQ PUSH2 0x11B JUMPI DUP1 PUSH4 0x803C25FB EQ PUSH2 0x12E JUMPI JUMPDEST PUSH1 0x0 DUP1 REVERT JUMPDEST CALLVALUE DUP1 ISZERO PUSH2 0xAD JUMPI PUSH1 0x0 DUP1 REVERT JUMPDEST POP PUSH2 0xB6 PUSH2 0x1FC JUMP JUMPDEST PUSH1 0x40 MLOAD PUSH2 0xC3 SWAP2 SWAP1 PUSH2 0x519F JUMP JUMPDEST PUSH1 0x40 MLOAD DUP1 SWAP2 SUB SWAP1 RETURN JUMPDEST CALLVALUE DUP1 ISZERO PUSH2 0xD8 JUMPI PUSH1 0x0 DUP1 REVERT JUMPDEST POP PUSH2 0xEC PUSH2 0xE7 CALLDATASIZE PUSH1 0x4 PUSH2 0x4EA6 JUMP JUMPDEST PUSH2 0x20B JUMP JUMPDEST PUSH1 0x40 MLOAD PUSH2 0xC3 SWAP4 SWAP3 SWAP2 SWAP1 PUSH2 0x52B2 JUMP JUMPDEST PUSH2 0x10E PUSH2 0x109 CALLDATASIZE PUSH1 0x4 PUSH2 0x506A JUMP JUMPDEST PUSH2 0x2AA JUMP JUMPDEST PUSH1 0x40 MLOAD PUSH2 0xC3 SWAP2 SWAP1 PUSH2 0x529B JUMP JUMPDEST PUSH2 0x10E PUSH2 0x129 CALLDATASIZE PUSH1 0x4 PUSH2 0x4F63 JUMP JUMPDEST PUSH2 0x481 JUMP JUMPDEST CALLVALUE DUP1 ISZERO PUSH2 0x13A JUMPI PUSH1 0x0 DUP1 REVERT JUMPDEST POP PUSH2 0x14E PUSH2 0x149 CALLDATASIZE PUSH1 0x4 PUSH2 0x4EA6 JUMP JUMPDEST PUSH2 0x6CD JUMP JUMPDEST PUSH1 0x40 MLOAD PUSH2 0xC3 SWAP4 SWAP3 SWAP2 SWAP1 PUSH2 0x5703 JUMP JUMPDEST CALLVALUE DUP1 ISZERO PUSH2 0x169 JUMPI PUSH1 0x0 DUP1 REVERT JUMPDEST POP PUSH2 0xB6 PUSH2 0x77E JUMP JUMPDEST CALLVALUE DUP1 ISZERO PUSH2 0x17E JUMPI PUSH1 0x0 DUP1 REVERT JUMPDEST POP PUSH2 0xB6 PUSH2 0x78D JUMP JUMPDEST PUSH2 0x10E PUSH2 0x195 CALLDATASIZE PUSH1 0x4 PUSH2 0x4FFA JUMP JUMPDEST PUSH2 0x7A4 JUMP JUMPDEST CALLVALUE DUP1 ISZERO PUSH2 0x1A6 JUMPI PUSH1 0x0 DUP1 REVERT JUMPDEST POP PUSH2 0x10E PUSH2 0x1B5 CALLDATASIZE PUSH1 0x4 PUSH2 0x4ECF JUMP JUMPDEST PUSH2 0x90C JUMP JUMPDEST CALLVALUE DUP1 ISZERO PUSH2 0x1C6 JUMPI PUSH1 0x0 DUP1 REVERT JUMPDEST POP PUSH2 0x1DA PUSH2 0x1D5 CALLDATASIZE PUSH1 0x4 PUSH2 0x4EA6 JUMP JUMPDEST PUSH2 0xB8A JUMP JUMPDEST PUSH1 0x40 MLOAD PUSH2 0xC3 SWAP2 SWAP1 PUSH2 0x569D JUMP JUMPDEST CALLVALUE DUP1 ISZERO PUSH2 0x1F3 JUMPI PUSH1 0x0 DUP1 REVERT JUMPDEST POP PUSH2 0xB6 PUSH2 0xBA5 JUMP JUMPDEST PUSH1 0x2 SLOAD PUSH1 0x1 PUSH1 0x1 PUSH1 0xA0 SHL SUB AND DUP2 JUMP JUMPDEST PUSH1 0x0 DUP1 PUSH1 0x0 DUP1 PUSH2 0x21A DUP6 PUSH2 0xBBD JUMP JUMPDEST SWAP1 POP PUSH1 0x0 PUSH2 0x228 DUP8 DUP8 PUSH2 0xBEC JUMP JUMPDEST SWAP1 POP PUSH1 0x0 PUSH2 0x23A DUP8 DUP4 PUSH1 0x20 ADD MLOAD PUSH2 0xC6A JUMP JUMPDEST SWAP1 POP DUP3 PUSH1 0xA0 ADD MLOAD SWAP5 POP DUP1 PUSH1 0x40 ADD MLOAD ISZERO PUSH2 0x25C JUMPI PUSH1 0x1 PUSH1 0x1 PUSH1 0xFF SHL SUB SWAP6 POP PUSH2 0x2A0 JUMP JUMPDEST PUSH1 0x40 DUP3 ADD MLOAD DUP3 MLOAD PUSH1 0x0 SWAP2 PUSH2 0x276 SWAP2 DUP7 SWAP2 DUP6 SWAP2 DUP14 SWAP2 SWAP1 PUSH2 0xD05 JUMP JUMPDEST SWAP1 SWAP8 POP SWAP1 POP DUP6 DUP8 SLT DUP1 ISZERO PUSH2 0x28A JUMPI POP PUSH1 0x0 DUP2 SGT JUMPDEST ISZERO PUSH2 0x29E JUMPI PUSH2 0x29A DUP4 DUP6 DUP4 PUSH2 0xD8B JUMP JUMPDEST POP SWAP5 POP JUMPDEST POP JUMPDEST POP POP POP SWAP3 POP SWAP3 POP SWAP3 JUMP JUMPDEST PUSH1 0x0 PUSH1 0x2 PUSH1 0xA SLOAD EQ ISZERO PUSH2 0x2D8 JUMPI PUSH1 0x40 MLOAD PUSH3 0x461BCD PUSH1 0xE5 SHL DUP2 MSTORE PUSH1 0x4 ADD PUSH2 0x2CF SWAP1 PUSH2 0x555E JUMP JUMPDEST PUSH1 0x40 MLOAD DUP1 SWAP2 SUB SWAP1 REVERT JUMPDEST PUSH1 0x2 PUSH1 0xA SSTORE PUSH1 0x0 PUSH2 0x2E8 DUP11 PUSH2 0xE9A JUMP JUMPDEST SWAP1 POP PUSH2 0x2F6 DUP2 DUP13 PUSH1 0x10 PUSH2 0xEBE JUMP JUMPDEST PUSH2 0x301 DUP2 PUSH1 0x80 PUSH2 0xF28 JUMP JUMPDEST ISZERO PUSH2 0x30C JUMPI PUSH1 0x1 PUSH1 0xA SSTORE JUMPDEST PUSH1 0x0 PUSH2 0x318 DUP13 DUP13 PUSH2 0xBEC JUMP JUMPDEST SWAP1 POP PUSH2 0x325 DUP3 PUSH1 0x1 PUSH2 0xF28 JUMP JUMPDEST DUP1 ISZERO PUSH2 0x337 JUMPI POP PUSH2 0x337 DUP3 PUSH1 0x2 PUSH2 0xF28 JUMP JUMPDEST DUP1 ISZERO PUSH2 0x346 JUMPI POP DUP1 PUSH1 0x20 ADD MLOAD TIMESTAMP LT JUMPDEST DUP1 ISZERO PUSH2 0x355 JUMPI POP DUP9 DUP2 PUSH1 0x20 ADD MLOAD LT JUMPDEST DUP1 ISZERO PUSH2 0x361 JUMPI POP PUSH1 0x0 DUP11 GT JUMPDEST PUSH2 0x37D JUMPI PUSH1 0x40 MLOAD PUSH3 0x461BCD PUSH1 0xE5 SHL DUP2 MSTORE PUSH1 0x4 ADD PUSH2 0x2CF SWAP1 PUSH2 0x54A1 JUMP JUMPDEST PUSH1 0x0 PUSH2 0x391 DUP4 PUSH1 0x0 ADD MLOAD DUP4 PUSH1 0x20 ADD MLOAD PUSH2 0xC6A JUMP JUMPDEST SWAP1 POP PUSH1 0x0 PUSH2 0x3AE DUP4 DUP5 PUSH1 0x40 ADD MLOAD DUP5 PUSH2 0xF3D SWAP1 SWAP3 SWAP2 SWAP1 PUSH4 0xFFFFFFFF AND JUMP JUMPDEST SWAP1 POP PUSH2 0x3CD DUP5 DUP4 PUSH2 0x3C2 DUP7 PUSH1 0x0 ADD MLOAD PUSH2 0xF9C JUMP JUMPDEST DUP7 SWAP3 SWAP2 SWAP1 DUP14 TIMESTAMP PUSH2 0xFB2 JUMP JUMPDEST DUP3 MLOAD ISZERO PUSH2 0x3EC JUMPI PUSH1 0x40 MLOAD PUSH3 0x461BCD PUSH1 0xE5 SHL DUP2 MSTORE PUSH1 0x4 ADD PUSH2 0x2CF SWAP1 PUSH2 0x5649 JUMP JUMPDEST DUP4 MLOAD PUSH2 0x3F9 SWAP1 DUP4 SWAP1 PUSH2 0x1040 JUMP JUMPDEST DUP10 ISZERO PUSH2 0x40A JUMPI PUSH2 0x40A DUP4 DUP6 DUP13 PUSH2 0x11B4 JUMP JUMPDEST PUSH2 0x41C DUP4 DUP6 DUP14 DUP16 DUP13 DUP13 DUP13 DUP9 PUSH1 0x0 PUSH2 0x129B JUMP JUMPDEST SWAP5 POP DUP11 DUP15 PUSH1 0x1 PUSH1 0x1 PUSH1 0xA0 SHL SUB AND DUP15 PUSH1 0x1 PUSH1 0x1 PUSH1 0xA0 SHL SUB AND PUSH32 0x67C1D09E65227D62B788F4C3E6ACE545AC922034D69BD4AA45C53DEC290275BE DUP16 PUSH1 0x40 MLOAD PUSH2 0x462 SWAP2 SWAP1 PUSH2 0x529B JUMP JUMPDEST PUSH1 0x40 MLOAD DUP1 SWAP2 SUB SWAP1 LOG4 POP POP PUSH1 0x1 PUSH1 0xA SSTORE POP SWAP1 SWAP11 SWAP10 POP POP POP POP POP POP POP POP POP POP JUMP JUMPDEST PUSH1 0x0 PUSH1 0x2 PUSH1 0xA SLOAD EQ ISZERO PUSH2 0x4A6 JUMPI PUSH1 0x40 MLOAD PUSH3 0x461BCD PUSH1 0xE5 SHL DUP2 MSTORE PUSH1 0x4 ADD PUSH2 0x2CF SWAP1 PUSH2 0x555E JUMP JUMPDEST PUSH1 0x2 PUSH1 0xA SSTORE PUSH1 0x0 PUSH2 0x4B6 DUP10 PUSH2 0xE9A JUMP JUMPDEST SWAP1 POP PUSH2 0x4C4 DUP2 DUP12 PUSH1 0x8 PUSH2 0xEBE JUMP JUMPDEST PUSH2 0x4CF DUP2 PUSH1 0x80 PUSH2 0xF28 JUMP JUMPDEST ISZERO PUSH2 0x4DA JUMPI PUSH1 0x1 PUSH1 0xA SSTORE JUMPDEST PUSH1 0x0 PUSH2 0x4E6 DUP12 DUP12 PUSH2 0xBEC JUMP JUMPDEST SWAP1 POP TIMESTAMP DUP2 PUSH1 0x20 ADD MLOAD GT PUSH2 0x594 JUMPI PUSH1 0x20 DUP2 ADD MLOAD PUSH1 0x0 PUSH2 0x505 DUP4 DUP6 TIMESTAMP PUSH2 0x133E JUMP JUMPDEST SWAP1 POP PUSH1 0x0 DUP4 PUSH1 0x80 ADD MLOAD SGT ISZERO PUSH2 0x530 JUMPI PUSH2 0x527 DUP12 DUP6 PUSH1 0x40 ADD MLOAD DUP6 PUSH1 0x80 ADD MLOAD PUSH2 0x1414 JUMP JUMPDEST POP PUSH1 0x0 PUSH1 0x80 DUP5 ADD MSTORE JUMPDEST PUSH2 0x53F DUP5 DUP5 DUP14 DUP5 DUP7 DUP13 DUP13 PUSH2 0x14BD JUMP JUMPDEST SWAP5 POP DUP2 DUP14 PUSH1 0x1 PUSH1 0x1 PUSH1 0xA0 SHL SUB AND DUP14 PUSH1 0x1 PUSH1 0x1 PUSH1 0xA0 SHL SUB AND PUSH32 0xCCD6B9AEC297A77187BFAABFE7F98AC1DD313C796A73695DFF89DE0885DBB293 DUP9 PUSH1 0x40 MLOAD PUSH2 0x585 SWAP2 SWAP1 PUSH2 0x529B JUMP JUMPDEST PUSH1 0x40 MLOAD DUP1 SWAP2 SUB SWAP1 LOG4 POP POP PUSH2 0x692 JUMP JUMPDEST PUSH1 0x0 PUSH2 0x5A8 DUP4 PUSH1 0x0 ADD MLOAD DUP4 PUSH1 0x20 ADD MLOAD PUSH2 0xC6A JUMP JUMPDEST SWAP1 POP PUSH2 0x5C3 DUP4 DUP3 PUSH2 0x5B8 DUP12 PUSH2 0x1534 JUMP JUMPDEST DUP6 SWAP3 SWAP2 SWAP1 DUP12 TIMESTAMP PUSH2 0xFB2 JUMP JUMPDEST PUSH1 0x0 PUSH2 0x5D0 DUP3 DUP5 DUP13 PUSH2 0xF3D JUMP JUMPDEST SWAP1 POP PUSH1 0x0 DUP4 PUSH1 0x80 ADD MLOAD SGT ISZERO PUSH2 0x5FB JUMPI PUSH2 0x5F2 DUP12 DUP6 PUSH1 0x40 ADD MLOAD DUP6 PUSH1 0x80 ADD MLOAD PUSH2 0x1414 JUMP JUMPDEST POP PUSH1 0x0 PUSH1 0x80 DUP5 ADD MSTORE JUMPDEST DUP1 ISZERO PUSH2 0x619 JUMPI DUP2 MLOAD PUSH2 0x616 SWAP1 DUP6 SWAP1 DUP6 SWAP1 DUP15 SWAP1 DUP6 SWAP1 DUP13 DUP13 PUSH2 0x14BD JUMP JUMPDEST SWAP5 POP JUMPDEST DUP3 MLOAD PUSH1 0x0 SGT ISZERO PUSH2 0x62E JUMPI PUSH2 0x62E DUP5 DUP4 DUP6 PUSH2 0x154E JUMP JUMPDEST DUP4 MLOAD PUSH2 0x63B SWAP1 DUP4 SWAP1 PUSH2 0x1040 JUMP JUMPDEST DUP2 PUSH1 0x0 ADD MLOAD DUP14 PUSH1 0x1 PUSH1 0x1 PUSH1 0xA0 SHL SUB AND DUP14 PUSH1 0x1 PUSH1 0x1 PUSH1 0xA0 SHL SUB AND PUSH32 0xEA195C44D2295A1DF0DEFE8210ABB22B4A911B4379B9E30E764548EBEE65C420 DUP13 DUP15 DUP11 PUSH1 0x40 MLOAD PUSH2 0x687 SWAP4 SWAP3 SWAP2 SWAP1 PUSH2 0x52B2 JUMP JUMPDEST PUSH1 0x40 MLOAD DUP1 SWAP2 SUB SWAP1 LOG4 POP POP JUMPDEST DUP1 MLOAD ISZERO DUP1 ISZERO PUSH2 0x6A3 JUMPI POP PUSH1 0x40 DUP2 ADD MLOAD ISZERO JUMPDEST ISZERO PUSH2 0x6B0 JUMPI PUSH1 0x0 PUSH1 0x20 DUP3 ADD MSTORE JUMPDEST PUSH2 0x6BA DUP2 DUP4 PUSH2 0x1596 JUMP JUMPDEST POP POP PUSH1 0x1 PUSH1 0xA SSTORE SWAP9 SWAP8 POP POP POP POP POP POP POP POP JUMP JUMPDEST PUSH1 0x0 PUSH2 0x6D7 PUSH2 0x4C6C JUMP JUMPDEST PUSH1 0x0 DUP1 PUSH2 0x6E2 PUSH2 0x1722 JUMP JUMPDEST PUSH1 0x1 PUSH1 0x1 PUSH1 0xA0 SHL SUB DUP8 DUP2 AND PUSH1 0x0 SWAP1 DUP2 MSTORE PUSH1 0x20 SWAP3 DUP4 MSTORE PUSH1 0x40 DUP1 DUP3 KECCAK256 SWAP3 DUP10 AND DUP3 MSTORE SWAP2 DUP4 MSTORE SWAP1 DUP2 KECCAK256 DUP1 SLOAD PUSH1 0x1 PUSH1 0x1 PUSH1 0x50 SHL SUB PUSH5 0x100000000 DUP3 DIV DUP2 AND DUP9 MSTORE PUSH1 0x1 PUSH1 0x70 SHL DUP3 DIV AND SWAP4 DUP8 ADD SWAP4 SWAP1 SWAP4 MSTORE PUSH4 0xFFFFFFFF SWAP1 SWAP3 AND SWAP6 POP SWAP1 SWAP2 POP PUSH2 0x743 DUP8 DUP8 PUSH2 0xBEC JUMP JUMPDEST SWAP1 POP PUSH1 0x0 PUSH2 0x755 DUP8 DUP4 PUSH1 0x20 ADD MLOAD PUSH2 0xC6A JUMP JUMPDEST SWAP1 POP PUSH2 0x76E DUP3 PUSH1 0x40 ADD MLOAD DUP3 PUSH2 0x172F SWAP1 SWAP2 SWAP1 PUSH4 0xFFFFFFFF AND JUMP JUMPDEST SWAP1 POP DUP1 SWAP5 POP POP POP POP POP SWAP3 POP SWAP3 POP SWAP3 JUMP JUMPDEST PUSH1 0x1 SLOAD PUSH1 0x1 PUSH1 0x1 PUSH1 0xA0 SHL SUB AND DUP2 JUMP JUMPDEST PUSH1 0x0 SLOAD PUSH5 0x100000000 SWAP1 DIV PUSH1 0x1 PUSH1 0x1 PUSH1 0xA0 SHL SUB AND DUP2 JUMP JUMPDEST PUSH1 0x0 PUSH1 0x2 PUSH1 0xA SLOAD EQ ISZERO PUSH2 0x7C9 JUMPI PUSH1 0x40 MLOAD PUSH3 0x461BCD PUSH1 0xE5 SHL DUP2 MSTORE PUSH1 0x4 ADD PUSH2 0x2CF SWAP1 PUSH2 0x555E JUMP JUMPDEST PUSH1 0x2 PUSH1 0xA SSTORE PUSH2 0x7D7 DUP10 PUSH2 0x1789 JUMP JUMPDEST PUSH1 0x0 PUSH2 0x7E2 DUP10 PUSH2 0xE9A JUMP JUMPDEST SWAP1 POP PUSH2 0x7F0 DUP2 DUP12 PUSH1 0x4 PUSH2 0xEBE JUMP JUMPDEST PUSH2 0x7FB DUP2 PUSH1 0x80 PUSH2 0xF28 JUMP JUMPDEST ISZERO PUSH2 0x806 JUMPI PUSH1 0x1 PUSH1 0xA SSTORE JUMPDEST PUSH2 0x811 DUP2 PUSH1 0x1 PUSH2 0xF28 JUMP JUMPDEST PUSH2 0x82D JUMPI PUSH1 0x40 MLOAD PUSH3 0x461BCD PUSH1 0xE5 SHL DUP2 MSTORE PUSH1 0x4 ADD PUSH2 0x2CF SWAP1 PUSH2 0x5623 JUMP JUMPDEST DUP7 TIMESTAMP LT PUSH2 0x84C JUMPI PUSH1 0x40 MLOAD PUSH3 0x461BCD PUSH1 0xE5 SHL DUP2 MSTORE PUSH1 0x4 ADD PUSH2 0x2CF SWAP1 PUSH2 0x5623 JUMP JUMPDEST PUSH1 0x0 PUSH2 0x858 DUP12 DUP12 PUSH2 0xBEC JUMP JUMPDEST SWAP1 POP PUSH1 0x0 DUP2 PUSH1 0x20 ADD MLOAD PUSH1 0x0 EQ ISZERO DUP1 ISZERO PUSH2 0x875 JUMPI POP TIMESTAMP DUP3 PUSH1 0x20 ADD MLOAD GT ISZERO JUMPDEST ISZERO PUSH2 0x888 JUMPI PUSH2 0x885 DUP3 DUP5 TIMESTAMP PUSH2 0x133E JUMP JUMPDEST SWAP1 POP JUMPDEST PUSH1 0x0 PUSH2 0x895 DUP5 DUP15 DUP14 PUSH2 0x17D8 JUMP JUMPDEST SWAP1 POP PUSH2 0x8A8 DUP4 DUP6 DUP13 DUP13 DUP13 DUP13 DUP13 DUP10 DUP10 PUSH2 0x129B JUMP JUMPDEST SWAP5 POP DUP10 DUP14 PUSH1 0x1 PUSH1 0x1 PUSH1 0xA0 SHL SUB AND DUP14 PUSH1 0x1 PUSH1 0x1 PUSH1 0xA0 SHL SUB AND PUSH32 0x7E1A5E400898C4BB3CFC62F61A71F4369EC78F0E778A31286892B7D2C0D044F2 DUP13 PUSH1 0x40 MLOAD PUSH2 0x8EE SWAP2 SWAP1 PUSH2 0x529B JUMP JUMPDEST PUSH1 0x40 MLOAD DUP1 SWAP2 SUB SWAP1 LOG4 POP POP PUSH1 0x1 PUSH1 0xA SSTORE POP SWAP1 SWAP10 SWAP9 POP POP POP POP POP POP POP POP POP JUMP JUMPDEST PUSH1 0x0 PUSH1 0x2 PUSH1 0xA SLOAD EQ ISZERO PUSH2 0x931 JUMPI PUSH1 0x40 MLOAD PUSH3 0x461BCD PUSH1 0xE5 SHL DUP2 MSTORE PUSH1 0x4 ADD PUSH2 0x2CF SWAP1 PUSH2 0x555E JUMP JUMPDEST PUSH1 0x2 PUSH1 0xA SSTORE PUSH1 0x0 PUSH2 0x943 DUP10 DUP10 DUP10 PUSH2 0x18B1 JUMP JUMPDEST SWAP1 POP PUSH1 0x0 PUSH2 0x951 DUP11 DUP11 PUSH2 0xBEC JUMP JUMPDEST SWAP1 POP PUSH1 0x0 PUSH2 0x963 DUP11 DUP4 PUSH1 0x20 ADD MLOAD PUSH2 0xC6A JUMP JUMPDEST SWAP1 POP DUP2 PUSH1 0x20 ADD MLOAD TIMESTAMP LT PUSH2 0x975 JUMPI PUSH1 0x0 DUP1 REVERT JUMPDEST PUSH1 0x0 DUP1 PUSH2 0x999 DUP4 DUP15 DUP7 PUSH1 0x40 ADD MLOAD DUP8 PUSH1 0x0 ADD MLOAD DUP10 PUSH2 0xD05 SWAP1 SWAP5 SWAP4 SWAP3 SWAP2 SWAP1 PUSH4 0xFFFFFFFF AND JUMP JUMPDEST SWAP2 POP SWAP2 POP DUP5 PUSH1 0xA0 ADD MLOAD DUP3 SLT PUSH2 0x9C0 JUMPI PUSH1 0x40 MLOAD PUSH3 0x461BCD PUSH1 0xE5 SHL DUP2 MSTORE PUSH1 0x4 ADD PUSH2 0x2CF SWAP1 PUSH2 0x566E JUMP JUMPDEST PUSH1 0x0 PUSH2 0x9D3 DUP7 PUSH1 0x40 ADD MLOAD PUSH2 0xFFFF AND PUSH2 0x1986 JUMP JUMPDEST SWAP1 POP PUSH2 0x9E3 DUP13 DUP3 DUP8 DUP10 DUP16 DUP8 PUSH2 0x1999 JUMP JUMPDEST PUSH1 0x0 PUSH2 0xA2A PUSH4 0x3B9ACA00 PUSH2 0xA24 PUSH2 0x9F9 DUP7 PUSH2 0x1A82 JUMP JUMPDEST PUSH2 0xA24 DUP11 PUSH1 0x40 ADD MLOAD PUSH2 0xA1E PUSH2 0xA11 DUP15 PUSH1 0xC0 ADD MLOAD PUSH2 0x1A82 JUMP JUMPDEST PUSH2 0xA1E DUP15 PUSH1 0x80 ADD MLOAD PUSH2 0x1A82 JUMP JUMPDEST SWAP1 PUSH2 0x1A91 JUMP JUMPDEST SWAP1 PUSH2 0x1AB8 JUMP JUMPDEST PUSH1 0x40 DUP8 ADD MLOAD SWAP1 SWAP2 POP PUSH2 0xA3C SWAP1 DUP3 PUSH2 0x1AD7 JUMP JUMPDEST PUSH1 0x40 DUP8 ADD MSTORE PUSH1 0x80 DUP7 ADD MLOAD PUSH2 0x160 DUP9 ADD MLOAD PUSH1 0x0 SWAP2 PUSH2 0xA59 SWAP2 SWAP1 PUSH2 0x1AEC JUMP JUMPDEST SWAP1 POP PUSH2 0xA78 DUP9 DUP8 DUP4 PUSH2 0xA6E DUP12 PUSH1 0x80 ADD MLOAD PUSH2 0xF9C JUMP JUMPDEST DUP12 SWAP4 SWAP3 SWAP2 SWAP1 PUSH2 0x1B1F JUMP JUMPDEST DUP7 MLOAD PUSH1 0x0 SLT ISZERO PUSH2 0xA87 JUMPI PUSH1 0x0 DUP8 MSTORE JUMPDEST DUP16 PUSH1 0x1 PUSH1 0x1 PUSH1 0xA0 SHL SUB AND DUP16 PUSH1 0x1 PUSH1 0x1 PUSH1 0xA0 SHL SUB AND PUSH32 0x5B4676A4ED91C52FD6C4A759AEC8A3561B67499C52870FC58000A8EB54FEC301 DUP5 DUP5 PUSH1 0x40 MLOAD PUSH2 0xACC SWAP3 SWAP2 SWAP1 PUSH2 0x52A4 JUMP JUMPDEST PUSH1 0x40 MLOAD DUP1 SWAP2 SUB SWAP1 LOG3 POP PUSH2 0xADF DUP7 DUP9 PUSH2 0x1596 JUMP JUMPDEST DUP13 PUSH1 0x1 PUSH1 0x1 PUSH1 0xA0 SHL SUB AND DUP16 PUSH1 0x1 PUSH1 0x1 PUSH1 0xA0 SHL SUB AND DUP16 PUSH1 0x1 PUSH1 0x1 PUSH1 0xA0 SHL SUB AND PUSH32 0x1745A2FE0D7C484EA79432A82F950EAC6916ADC499A0223D2EBDADCDB210F2A DUP5 DUP16 PUSH1 0x40 MLOAD PUSH2 0xB2E SWAP3 SWAP2 SWAP1 PUSH2 0x5742 JUMP JUMPDEST PUSH1 0x40 MLOAD DUP1 SWAP2 SUB SWAP1 LOG4 DUP11 ISZERO PUSH2 0xB60 JUMPI DUP7 MLOAD PUSH2 0xB49 SWAP1 DUP7 SWAP1 PUSH2 0x1040 JUMP JUMPDEST PUSH2 0xB59 DUP14 DUP9 DUP4 DUP10 PUSH1 0x20 ADD MLOAD PUSH2 0x1B8D JUMP JUMPDEST SWAP8 POP PUSH2 0xB72 JUMP JUMPDEST PUSH2 0xB6F DUP14 DUP9 DUP8 DUP5 DUP15 DUP15 DUP9 PUSH2 0x1C01 JUMP JUMPDEST SWAP8 POP JUMPDEST POP POP PUSH1 0x1 PUSH1 0xA SSTORE POP SWAP4 SWAP12 SWAP11 POP POP POP POP POP POP POP POP POP POP POP JUMP JUMPDEST PUSH2 0xB92 PUSH2 0x4C8A JUMP JUMPDEST PUSH2 0xB9C DUP4 DUP4 PUSH2 0xBEC JUMP JUMPDEST SWAP1 POP JUMPDEST SWAP3 SWAP2 POP POP JUMP JUMPDEST PUSH20 0x0 SWAP1 JUMP JUMPDEST PUSH2 0xBC5 PUSH2 0x4CC2 JUMP JUMPDEST PUSH2 0xBCE DUP3 PUSH2 0x1C8F JUMP JUMPDEST SWAP1 POP PUSH2 0xBE1 DUP2 PUSH1 0x40 ADD MLOAD PUSH2 0xFFFF AND PUSH2 0x1E0D JUMP JUMPDEST PUSH2 0x160 DUP3 ADD MSTORE SWAP2 SWAP1 POP JUMP JUMPDEST PUSH2 0xBF4 PUSH2 0x4C8A JUMP JUMPDEST PUSH1 0x0 PUSH2 0xBFE PUSH2 0x1E59 JUMP JUMPDEST PUSH1 0x1 PUSH1 0x1 PUSH1 0xA0 SHL SUB SWAP5 DUP6 AND PUSH1 0x0 DUP2 DUP2 MSTORE PUSH1 0x20 SWAP3 DUP4 MSTORE PUSH1 0x40 DUP1 DUP3 KECCAK256 SWAP7 SWAP1 SWAP8 AND DUP2 MSTORE SWAP5 DUP3 MSTORE DUP6 DUP6 KECCAK256 SLOAD PUSH1 0x1 PUSH1 0x1 PUSH1 0x50 SHL SUB DUP1 DUP3 AND DUP8 SUB DUP7 MSTORE PUSH4 0xFFFFFFFF PUSH1 0x1 PUSH1 0xA0 SHL DUP4 DIV AND SWAP4 DUP7 ADD SWAP4 SWAP1 SWAP4 MSTORE PUSH1 0x1 PUSH1 0x50 SHL SWAP1 DIV SWAP1 SWAP2 AND SWAP5 DUP4 ADD SWAP5 SWAP1 SWAP5 MSTORE POP PUSH1 0x60 DUP2 ADD SWAP3 SWAP1 SWAP3 MSTORE PUSH1 0x80 DUP3 ADD MSTORE SWAP1 JUMP JUMPDEST PUSH2 0xC72 PUSH2 0x4D3F JUMP JUMPDEST PUSH1 0x0 PUSH2 0xC7C PUSH2 0x1E66 JUMP JUMPDEST PUSH1 0x1 PUSH1 0x1 PUSH1 0xA0 SHL SUB SWAP1 SWAP5 AND PUSH1 0x0 SWAP1 DUP2 MSTORE PUSH1 0x20 SWAP5 DUP6 MSTORE PUSH1 0x40 DUP1 DUP3 KECCAK256 DUP6 DUP4 MSTORE DUP7 MSTORE DUP1 DUP3 KECCAK256 SWAP5 DUP5 MSTORE DUP5 SLOAD PUSH1 0x1 PUSH1 0x1 PUSH1 0x50 SHL SUB DUP1 DUP3 AND SWAP1 SWAP4 SUB SWAP7 DUP6 ADD SWAP7 SWAP1 SWAP7 MSTORE PUSH1 0xFF PUSH1 0x1 PUSH1 0xF0 SHL DUP8 DIV AND ISZERO ISZERO SWAP1 DUP5 ADD MSTORE PUSH1 0x1 PUSH1 0x50 SHL DUP1 DUP7 DIV DUP3 AND PUSH1 0x80 DUP6 ADD MSTORE PUSH1 0x1 SWAP1 SWAP5 ADD SLOAD DUP1 DUP3 AND PUSH1 0xA0 DUP6 ADD MSTORE PUSH1 0x1 PUSH1 0xA0 SHL SWAP1 SWAP6 DIV AND PUSH1 0x60 DUP4 ADD MSTORE POP SWAP2 DIV PUSH1 0x9 SWAP1 DUP2 SIGNEXTEND SWAP1 SIGNEXTEND PUSH1 0xC0 DUP3 ADD MSTORE SWAP1 JUMP JUMPDEST PUSH1 0x0 DUP1 PUSH2 0xD14 DUP7 DUP9 DUP8 DUP8 PUSH2 0x1E73 JUMP JUMPDEST SWAP1 POP PUSH1 0x0 PUSH2 0xD27 DUP9 DUP8 DUP10 PUSH1 0x0 ADD MLOAD PUSH2 0x1ED8 JUMP JUMPDEST SWAP1 POP PUSH1 0x0 PUSH2 0xD4D PUSH2 0xD41 DUP4 PUSH2 0xD3B DUP9 PUSH2 0xF9C JUMP JUMPDEST SWAP1 PUSH2 0x1FC0 JUMP JUMPDEST PUSH2 0x160 DUP12 ADD MLOAD SWAP1 PUSH2 0x1FD6 JUMP JUMPDEST SWAP1 POP PUSH1 0x0 PUSH2 0xD5B DUP5 DUP4 PUSH2 0x2001 JUMP JUMPDEST SWAP1 POP DUP2 PUSH2 0xD71 JUMPI PUSH1 0x1 PUSH1 0x1 PUSH1 0xFF SHL SUB SWAP5 POP PUSH2 0xD7E JUMP JUMPDEST PUSH2 0xD7B DUP2 DUP4 PUSH2 0x2017 JUMP JUMPDEST SWAP5 POP JUMPDEST POP POP POP SWAP6 POP SWAP6 SWAP4 POP POP POP POP JUMP JUMPDEST PUSH1 0x0 DUP1 PUSH1 0x0 PUSH2 0xDAC PUSH4 0x3B9ACA00 DUP7 PUSH2 0x120 ADD MLOAD PUSH2 0x1FC0 SWAP1 SWAP2 SWAP1 PUSH4 0xFFFFFFFF AND JUMP JUMPDEST SWAP1 POP PUSH1 0x0 PUSH2 0xDCC PUSH2 0xDC0 DUP9 PUSH1 0x0 ADD MLOAD PUSH2 0xF9C JUMP JUMPDEST PUSH2 0x160 DUP9 ADD MLOAD SWAP1 PUSH2 0x1FD6 JUMP JUMPDEST SWAP1 POP PUSH2 0xE02 PUSH2 0xDE8 DUP8 PUSH1 0xC0 ADD MLOAD DUP5 PUSH2 0x2001 SWAP1 SWAP2 SWAP1 PUSH4 0xFFFFFFFF AND JUMP JUMPDEST PUSH2 0xDFC DUP8 PUSH2 0xDF6 DUP6 DUP8 PUSH2 0x2030 JUMP JUMPDEST SWAP1 PUSH2 0x2001 JUMP JUMPDEST SWAP1 PUSH2 0x2017 JUMP JUMPDEST SWAP4 POP PUSH1 0x0 PUSH2 0xE10 DUP3 DUP7 PUSH2 0x2001 JUMP JUMPDEST SWAP1 POP PUSH1 0x0 PUSH2 0xE30 DUP9 PUSH1 0x60 ADD MLOAD DUP10 PUSH2 0x160 ADD MLOAD PUSH2 0x1FD6 SWAP1 SWAP2 SWAP1 PUSH4 0xFFFFFFFF AND JUMP JUMPDEST SWAP1 POP PUSH2 0xE3C DUP4 DUP3 PUSH2 0x2001 JUMP JUMPDEST SWAP5 POP DUP1 DUP3 SLT ISZERO PUSH2 0xE4A JUMPI DUP3 SWAP6 POP JUMPDEST PUSH1 0x0 PUSH2 0xE6D DUP9 PUSH2 0xE67 DUP12 PUSH1 0xC0 ADD MLOAD DUP11 PUSH2 0x2049 SWAP1 SWAP2 SWAP1 PUSH4 0xFFFFFFFF AND JUMP JUMPDEST SWAP1 PUSH2 0x2097 JUMP JUMPDEST SWAP1 POP PUSH4 0x3B9ACA00 DUP2 SLT PUSH2 0xE8D JUMPI PUSH1 0xC0 DUP10 ADD MLOAD PUSH2 0xE8A SWAP1 DUP10 SWAP1 PUSH2 0x2017 JUMP JUMPDEST SWAP7 POP JUMPDEST POP POP POP POP POP SWAP4 POP SWAP4 SWAP2 POP POP JUMP JUMPDEST PUSH2 0xEA2 PUSH2 0x4CC2 JUMP JUMPDEST PUSH2 0xEAB DUP3 PUSH2 0x1C8F JUMP JUMPDEST SWAP1 POP PUSH2 0xBE1 DUP2 PUSH1 0x40 ADD MLOAD PUSH2 0xFFFF AND PUSH2 0x20C8 JUMP JUMPDEST PUSH2 0xEC8 DUP4 DUP3 PUSH2 0xF28 JUMP JUMPDEST ISZERO PUSH2 0xEFB JUMPI DUP3 MLOAD PUSH1 0x1 PUSH1 0x1 PUSH1 0xA0 SHL SUB AND CALLER EQ PUSH2 0xEF6 JUMPI PUSH1 0x40 MLOAD PUSH3 0x461BCD PUSH1 0xE5 SHL DUP2 MSTORE PUSH1 0x4 ADD PUSH2 0x2CF SWAP1 PUSH2 0x52E3 JUMP JUMPDEST PUSH2 0xF23 JUMP JUMPDEST PUSH1 0x1 PUSH1 0x1 PUSH1 0xA0 SHL SUB DUP3 AND CALLER EQ PUSH2 0xF23 JUMPI PUSH1 0x40 MLOAD PUSH3 0x461BCD PUSH1 0xE5 SHL DUP2 MSTORE PUSH1 0x4 ADD PUSH2 0x2CF SWAP1 PUSH2 0x52E3 JUMP JUMPDEST POP POP POP JUMP JUMPDEST PUSH1 0x20 SWAP2 SWAP1 SWAP2 ADD MLOAD DUP2 AND PUSH2 0xFFFF SWAP1 DUP2 AND SWAP2 AND EQ SWAP1 JUMP JUMPDEST DUP3 MLOAD PUSH1 0x20 DUP4 ADD MLOAD PUSH1 0x0 SWAP2 EQ PUSH2 0xF51 JUMPI PUSH1 0x0 DUP1 REVERT JUMPDEST PUSH1 0x40 DUP4 ADD MLOAD PUSH2 0xF60 SWAP1 DUP4 PUSH2 0x1AD7 JUMP JUMPDEST PUSH1 0x40 DUP5 ADD MSTORE PUSH1 0x0 PUSH2 0xF71 DUP6 DUP5 PUSH2 0x20DE JUMP JUMPDEST SWAP3 POP SWAP1 POP PUSH2 0xF8C PUSH2 0xF81 DUP3 PUSH2 0x1534 JUMP JUMPDEST PUSH1 0x80 DUP7 ADD MLOAD SWAP1 PUSH2 0x1FC0 JUMP JUMPDEST PUSH1 0x80 SWAP1 SWAP5 ADD SWAP4 SWAP1 SWAP4 MSTORE SWAP4 SWAP3 POP POP POP JUMP JUMPDEST PUSH1 0x0 PUSH2 0xFAA PUSH1 0x0 NOT DUP4 PUSH2 0x2049 JUMP JUMPDEST SWAP1 POP JUMPDEST SWAP2 SWAP1 POP JUMP JUMPDEST DUP6 MLOAD PUSH1 0x0 SWAP1 PUSH2 0xFC1 SWAP1 DUP6 PUSH2 0x1FC0 JUMP JUMPDEST SGT ISZERO PUSH2 0xFCC JUMPI PUSH1 0x0 DUP1 REVERT JUMPDEST DUP6 PUSH1 0x20 ADD MLOAD DUP2 LT PUSH2 0xFDC JUMPI PUSH1 0x0 DUP1 REVERT JUMPDEST PUSH1 0x0 PUSH2 0xFF9 DUP7 PUSH1 0x40 ADD MLOAD DUP9 PUSH1 0x20 ADD MLOAD DUP7 DUP7 DUP11 PUSH2 0x100 ADD MLOAD DUP8 PUSH2 0x2135 JUMP JUMPDEST SWAP1 POP DUP1 PUSH2 0x101C JUMPI PUSH2 0x160 DUP7 ADD MLOAD PUSH2 0x1019 SWAP1 PUSH2 0x1014 SWAP1 DUP7 PUSH2 0x1FD6 JUMP JUMPDEST PUSH2 0xF9C JUMP JUMPDEST SWAP1 POP JUMPDEST PUSH1 0x0 DUP2 SGT ISZERO PUSH2 0x102A JUMPI PUSH1 0x0 DUP1 REVERT JUMPDEST PUSH2 0x1037 DUP8 DUP8 DUP8 DUP8 DUP6 PUSH2 0x1B1F JUMP JUMPDEST POP POP POP POP POP POP POP JUMP JUMPDEST PUSH1 0x0 PUSH2 0x104A PUSH2 0x1E66 JUMP JUMPDEST PUSH1 0x1 PUSH1 0x1 PUSH1 0xA0 SHL SUB DUP4 AND PUSH1 0x0 SWAP1 DUP2 MSTORE PUSH1 0x20 DUP3 DUP2 MSTORE PUSH1 0x40 DUP1 DUP4 KECCAK256 DUP8 MLOAD DUP5 MSTORE SWAP1 SWAP2 MSTORE SWAP1 DUP2 SWAP1 KECCAK256 SWAP1 DUP6 ADD MLOAD SWAP2 SWAP3 POP SWAP1 ISZERO PUSH2 0x1080 JUMPI PUSH1 0x0 DUP1 REVERT JUMPDEST PUSH2 0x109D PUSH2 0x1098 PUSH2 0x1093 DUP7 PUSH1 0x20 ADD MLOAD PUSH2 0xF9C JUMP JUMPDEST PUSH2 0x1A82 JUMP JUMPDEST PUSH2 0x2244 JUMP JUMPDEST DUP2 SLOAD PUSH1 0x1 PUSH1 0x1 PUSH1 0x50 SHL SUB NOT AND PUSH1 0x1 PUSH1 0x1 PUSH1 0x50 SHL SUB SWAP2 SWAP1 SWAP2 AND OR DUP2 SSTORE PUSH1 0x80 DUP5 ADD MLOAD PUSH2 0x10C6 SWAP1 PUSH2 0x2244 JUMP JUMPDEST DUP2 SLOAD PUSH1 0x1 PUSH1 0x1 PUSH1 0x50 SHL SUB SWAP2 SWAP1 SWAP2 AND PUSH1 0x1 PUSH1 0x50 SHL MUL PUSH1 0x1 PUSH1 0x50 SHL PUSH1 0x1 PUSH1 0xA0 SHL SUB NOT SWAP1 SWAP2 AND OR DUP2 SSTORE PUSH1 0xA0 DUP5 ADD MLOAD PUSH2 0x10FA SWAP1 PUSH2 0x2244 JUMP JUMPDEST PUSH1 0x1 DUP3 ADD DUP1 SLOAD PUSH1 0x1 PUSH1 0x1 PUSH1 0x50 SHL SUB NOT AND PUSH1 0x1 PUSH1 0x1 PUSH1 0x50 SHL SUB SWAP3 SWAP1 SWAP3 AND SWAP2 SWAP1 SWAP2 OR SWAP1 SSTORE PUSH1 0x60 DUP5 ADD MLOAD PUSH2 0x112A SWAP1 PUSH2 0x2244 JUMP JUMPDEST DUP2 SLOAD PUSH1 0x1 PUSH1 0x1 PUSH1 0x50 SHL SUB SWAP2 SWAP1 SWAP2 AND PUSH1 0x1 PUSH1 0xA0 SHL MUL PUSH10 0xFFFFFFFFFFFFFFFFFFFF PUSH1 0xA0 SHL NOT SWAP1 SWAP2 AND OR DUP2 SSTORE DUP4 MLOAD PUSH1 0x20 DUP6 ADD MLOAD PUSH1 0x80 DUP7 ADD MLOAD PUSH1 0xA0 DUP8 ADD MLOAD PUSH1 0x60 DUP9 ADD MLOAD PUSH1 0x40 MLOAD PUSH1 0x1 PUSH1 0x1 PUSH1 0xA0 SHL SUB DUP10 AND SWAP5 PUSH32 0x3A0FDAECF7B5DA75A56077F5B1C8FBC88F9B08E9D0C4DB31EB34E25BC6700CDE SWAP5 PUSH2 0x11A6 SWAP5 SWAP2 SWAP4 SWAP1 SWAP3 PUSH2 0x52C8 JUMP JUMPDEST PUSH1 0x40 MLOAD DUP1 SWAP2 SUB SWAP1 LOG3 POP POP POP POP JUMP JUMPDEST PUSH1 0x0 DUP1 PUSH2 0x11C0 DUP5 PUSH2 0x225A JUMP JUMPDEST SWAP1 SWAP3 POP SWAP1 POP PUSH1 0x0 PUSH1 0x3 DUP3 PUSH1 0x60 ADD MLOAD PUSH1 0x5 DUP2 GT ISZERO PUSH2 0x11D9 JUMPI INVALID JUMPDEST EQ ISZERO PUSH2 0x1205 JUMPI CALLVALUE DUP5 EQ PUSH2 0x11FE JUMPI PUSH1 0x40 MLOAD PUSH3 0x461BCD PUSH1 0xE5 SHL DUP2 MSTORE PUSH1 0x4 ADD PUSH2 0x2CF SWAP1 PUSH2 0x55D1 JUMP JUMPDEST POP CALLVALUE PUSH2 0x122E JUMP JUMPDEST PUSH2 0x122B PUSH2 0x1093 DUP8 PUSH1 0x60 ADD MLOAD DUP8 PUSH1 0x40 ADD MLOAD PUSH2 0xFFFF AND PUSH2 0x1222 DUP9 PUSH2 0x1534 JUMP JUMPDEST DUP7 SWAP3 SWAP2 SWAP1 PUSH2 0x22B3 JUMP JUMPDEST SWAP1 POP JUMPDEST PUSH1 0x0 PUSH1 0x4 DUP5 PUSH1 0x60 ADD MLOAD PUSH1 0x5 DUP2 GT ISZERO PUSH2 0x1242 JUMPI INVALID JUMPDEST EQ ISZERO PUSH2 0x1258 JUMPI PUSH2 0x1251 DUP3 PUSH2 0x1534 JUMP JUMPDEST SWAP1 POP PUSH2 0x1272 JUMP JUMPDEST DUP2 ISZERO PUSH2 0x1272 JUMPI PUSH1 0x40 DUP7 ADD MLOAD PUSH2 0x126F SWAP1 DUP6 SWAP1 DUP5 PUSH2 0x235B JUMP JUMPDEST SWAP1 POP JUMPDEST PUSH2 0x128A PUSH2 0x127F DUP6 DUP4 PUSH2 0x2452 JUMP JUMPDEST PUSH1 0x80 DUP10 ADD MLOAD SWAP1 PUSH2 0x1FC0 JUMP JUMPDEST PUSH1 0x80 SWAP1 SWAP8 ADD SWAP7 SWAP1 SWAP7 MSTORE POP POP POP POP POP POP JUMP JUMPDEST PUSH1 0x0 DUP8 DUP11 PUSH1 0x20 ADD MLOAD EQ DUP1 PUSH2 0x12AE JUMPI POP DUP10 MLOAD ISZERO JUMPDEST PUSH2 0x12B7 JUMPI PUSH1 0x0 DUP1 REVERT JUMPDEST PUSH1 0x0 PUSH2 0x12C7 DUP11 PUSH1 0x0 ADD MLOAD DUP11 PUSH2 0xC6A JUMP JUMPDEST SWAP1 POP DUP8 ISZERO PUSH2 0x12ED JUMPI PUSH2 0x12E8 DUP12 DUP12 DUP4 DUP13 PUSH2 0x12E2 PUSH2 0x1014 DUP15 PUSH2 0x1534 JUMP JUMPDEST DUP13 PUSH2 0x2482 JUMP JUMPDEST PUSH2 0x1304 JUMP JUMPDEST PUSH2 0x1302 DUP11 PUSH1 0x40 ADD MLOAD DUP11 DUP13 PUSH2 0x100 ADD MLOAD TIMESTAMP PUSH2 0x2512 JUMP JUMPDEST POP JUMPDEST PUSH2 0x1313 DUP2 DUP13 DUP13 DUP8 DUP8 DUP12 DUP12 PUSH2 0x2581 JUMP JUMPDEST SWAP2 POP PUSH2 0x131F DUP12 DUP12 PUSH2 0x1596 JUMP JUMPDEST DUP8 ISZERO PUSH2 0x1330 JUMPI PUSH2 0x1330 DUP11 DUP3 DUP14 PUSH2 0x154E JUMP JUMPDEST POP SWAP10 SWAP9 POP POP POP POP POP POP POP POP POP JUMP JUMPDEST PUSH1 0x0 DUP1 PUSH2 0x1353 DUP5 PUSH1 0x0 ADD MLOAD DUP7 PUSH1 0x20 ADD MLOAD PUSH2 0xC6A JUMP JUMPDEST SWAP1 POP DUP1 PUSH1 0x40 ADD MLOAD PUSH2 0x1376 JUMPI PUSH1 0x40 MLOAD PUSH3 0x461BCD PUSH1 0xE5 SHL DUP2 MSTORE PUSH1 0x4 ADD PUSH2 0x2CF SWAP1 PUSH2 0x544C JUMP JUMPDEST PUSH1 0x0 PUSH2 0x138F DUP6 PUSH1 0x40 ADD MLOAD PUSH2 0xFFFF AND DUP8 PUSH1 0x20 ADD MLOAD DUP7 PUSH2 0x26B8 JUMP JUMPDEST SWAP1 POP PUSH1 0x0 PUSH2 0x13B6 PUSH4 0x5F5E100 PUSH2 0xE67 DUP6 PUSH1 0xC0 ADD MLOAD PUSH2 0x13B0 DUP8 PUSH1 0xA0 ADD MLOAD PUSH2 0x1534 JUMP JUMPDEST SWAP1 PUSH2 0x2049 JUMP JUMPDEST SWAP1 POP PUSH1 0x0 PUSH2 0x13C7 DUP9 DUP6 DUP10 DUP7 DUP7 PUSH2 0x2828 JUMP JUMPDEST SWAP1 POP PUSH1 0x0 PUSH2 0x13D8 DUP9 DUP7 DUP7 DUP6 DUP8 PUSH2 0x29CA JUMP JUMPDEST PUSH1 0x0 DUP12 MSTORE PUSH1 0x80 DUP12 ADD MLOAD SWAP1 SWAP8 POP SWAP1 SWAP2 POP PUSH2 0x13F1 SWAP1 DUP3 PUSH2 0x1FC0 JUMP JUMPDEST PUSH1 0x80 DUP11 ADD MSTORE POP POP PUSH1 0x0 PUSH1 0x40 DUP9 ADD DUP2 SWAP1 MSTORE PUSH1 0x20 SWAP1 SWAP8 ADD SWAP7 SWAP1 SWAP7 MSTORE POP SWAP1 SWAP5 SWAP4 POP POP POP POP JUMP JUMPDEST PUSH1 0x0 DUP2 PUSH2 0x1423 JUMPI POP PUSH1 0x0 PUSH2 0x14B6 JUMP JUMPDEST PUSH1 0x0 DUP3 SGT PUSH2 0x1430 JUMPI PUSH1 0x0 DUP1 REVERT JUMPDEST PUSH1 0x0 PUSH2 0x143F DUP5 PUSH2 0xFFFF AND PUSH2 0x1986 JUMP JUMPDEST SWAP1 POP PUSH1 0x0 PUSH2 0x144D DUP3 DUP6 PUSH2 0x2C02 JUMP JUMPDEST SWAP1 POP PUSH1 0x4 DUP3 PUSH1 0x60 ADD MLOAD PUSH1 0x5 DUP2 GT ISZERO PUSH2 0x1461 JUMPI INVALID JUMPDEST EQ ISZERO PUSH2 0x148F JUMPI PUSH2 0x1488 PUSH2 0x1093 PUSH2 0x1014 DUP9 DUP9 PUSH2 0xFFFF AND PUSH2 0x147F DUP7 PUSH2 0xF9C JUMP JUMPDEST DUP8 SWAP3 SWAP2 SWAP1 PUSH2 0x22B3 JUMP JUMPDEST SWAP3 POP PUSH2 0x14B3 JUMP JUMPDEST PUSH2 0x14B0 PUSH2 0x1093 PUSH2 0x1014 DUP8 PUSH2 0xFFFF AND DUP10 PUSH2 0x14A7 DUP7 PUSH2 0x1A82 JUMP JUMPDEST DUP8 SWAP3 SWAP2 SWAP1 PUSH2 0x2C3A JUMP JUMPDEST SWAP3 POP JUMPDEST POP POP JUMPDEST SWAP4 SWAP3 POP POP POP JUMP JUMPDEST PUSH1 0x0 DUP1 DUP8 PUSH1 0x80 ADD MLOAD SGT ISZERO PUSH2 0x14D0 JUMPI PUSH1 0x0 DUP1 REVERT JUMPDEST PUSH2 0x151C DUP9 PUSH1 0x40 MLOAD DUP1 PUSH1 0xA0 ADD PUSH1 0x40 MSTORE DUP1 DUP11 PUSH1 0x60 ADD MLOAD PUSH1 0x1 PUSH1 0x1 PUSH1 0xA0 SHL SUB AND DUP2 MSTORE PUSH1 0x20 ADD DUP10 PUSH1 0x1 PUSH1 0x1 PUSH1 0xA0 SHL SUB AND DUP2 MSTORE PUSH1 0x20 ADD DUP9 DUP2 MSTORE PUSH1 0x20 ADD DUP8 DUP2 MSTORE PUSH1 0x20 ADD DUP11 PUSH1 0x80 ADD MLOAD DUP2 MSTORE POP DUP6 DUP6 PUSH2 0x2CDA JUMP JUMPDEST PUSH1 0x0 PUSH1 0x80 SWAP1 SWAP10 ADD SWAP9 SWAP1 SWAP9 MSTORE POP SWAP6 SWAP8 SWAP7 POP POP POP POP POP POP POP JUMP JUMPDEST PUSH1 0x0 PUSH1 0x1 PUSH1 0x1 PUSH1 0xFF SHL SUB DUP3 GT ISZERO PUSH2 0x154A JUMPI PUSH1 0x0 DUP1 REVERT JUMPDEST POP SWAP1 JUMP JUMPDEST PUSH1 0x0 PUSH2 0x1569 DUP5 DUP5 DUP5 PUSH1 0x60 ADD MLOAD DUP6 PUSH1 0x40 ADD MLOAD DUP7 PUSH1 0x0 ADD MLOAD PUSH2 0xD05 JUMP JUMPDEST POP SWAP1 POP DUP1 DUP5 PUSH1 0xA0 ADD MLOAD SGT ISZERO PUSH2 0x1590 JUMPI PUSH1 0x40 MLOAD PUSH3 0x461BCD PUSH1 0xE5 SHL DUP2 MSTORE PUSH1 0x4 ADD PUSH2 0x2CF SWAP1 PUSH2 0x54CA JUMP JUMPDEST POP POP POP POP JUMP JUMPDEST PUSH1 0x0 PUSH2 0x15A0 PUSH2 0x1E59 JUMP JUMPDEST PUSH1 0x60 DUP5 ADD MLOAD PUSH1 0x1 PUSH1 0x1 PUSH1 0xA0 SHL SUB SWAP1 DUP2 AND PUSH1 0x0 SWAP1 DUP2 MSTORE PUSH1 0x20 DUP4 DUP2 MSTORE PUSH1 0x40 DUP1 DUP4 KECCAK256 DUP8 MLOAD SWAP1 SWAP5 AND DUP4 MSTORE SWAP3 SWAP1 MSTORE KECCAK256 PUSH1 0x80 DUP6 ADD MLOAD SWAP2 SWAP3 POP SWAP1 ISZERO PUSH2 0x15DD JUMPI PUSH1 0x0 DUP1 REVERT JUMPDEST PUSH1 0x60 DUP4 ADD MLOAD DUP5 MLOAD PUSH2 0x15ED SWAP1 PUSH2 0xF9C JUMP JUMPDEST SLT ISZERO PUSH2 0x1622 JUMPI DUP4 MLOAD ISZERO DUP1 PUSH2 0x1606 JUMPI POP PUSH1 0x1 DUP5 PUSH1 0x40 ADD MLOAD GT ISZERO JUMPDEST PUSH2 0x1622 JUMPI PUSH1 0x40 MLOAD PUSH3 0x461BCD PUSH1 0xE5 SHL DUP2 MSTORE PUSH1 0x4 ADD PUSH2 0x2CF SWAP1 PUSH2 0x55AD JUMP JUMPDEST PUSH2 0x162B DUP4 PUSH2 0x2F4F JUMP JUMPDEST ISZERO PUSH2 0x168D JUMPI PUSH1 0x0 PUSH2 0x163A PUSH2 0x1722 JUMP JUMPDEST PUSH1 0x60 DUP7 ADD MLOAD PUSH1 0x1 PUSH1 0x1 PUSH1 0xA0 SHL SUB SWAP1 DUP2 AND PUSH1 0x0 SWAP1 DUP2 MSTORE PUSH1 0x20 SWAP3 DUP4 MSTORE PUSH1 0x40 DUP1 DUP3 KECCAK256 DUP9 MLOAD SWAP1 SWAP4 AND DUP3 MSTORE SWAP2 DUP4 MSTORE KECCAK256 DUP1 SLOAD SWAP2 DUP8 ADD MLOAD SWAP1 SWAP3 POP PUSH4 0xFFFFFFFF SWAP1 SWAP2 AND SWAP1 DUP2 EQ DUP1 PUSH2 0x1681 JUMPI POP DUP1 ISZERO JUMPDEST PUSH2 0x168A JUMPI PUSH1 0x0 DUP1 REVERT JUMPDEST POP POP JUMPDEST PUSH2 0x16A0 PUSH2 0x1098 PUSH2 0x1093 DUP7 PUSH1 0x0 ADD MLOAD PUSH2 0xF9C JUMP JUMPDEST DUP2 SLOAD PUSH1 0x1 PUSH1 0x1 PUSH1 0x50 SHL SUB NOT AND PUSH1 0x1 PUSH1 0x1 PUSH1 0x50 SHL SUB SWAP2 SWAP1 SWAP2 AND OR DUP2 SSTORE PUSH1 0x40 DUP5 ADD MLOAD PUSH2 0x16C9 SWAP1 PUSH2 0x2244 JUMP JUMPDEST DUP2 SLOAD PUSH1 0x1 PUSH1 0x1 PUSH1 0x50 SHL SUB SWAP2 SWAP1 SWAP2 AND PUSH1 0x1 PUSH1 0x50 SHL MUL PUSH1 0x1 PUSH1 0x50 SHL PUSH1 0x1 PUSH1 0xA0 SHL SUB NOT SWAP1 SWAP2 AND OR DUP2 SSTORE PUSH1 0x20 DUP5 ADD MLOAD PUSH2 0x16FD SWAP1 PUSH2 0x2F78 JUMP JUMPDEST DUP2 SLOAD PUSH4 0xFFFFFFFF SWAP2 SWAP1 SWAP2 AND PUSH1 0x1 PUSH1 0xA0 SHL MUL PUSH4 0xFFFFFFFF PUSH1 0xA0 SHL NOT SWAP1 SWAP2 AND OR SWAP1 SSTORE POP POP POP JUMP JUMPDEST PUSH1 0x0 DUP1 PUSH2 0xB9F PUSH1 0x1A PUSH2 0x2F8B JUMP JUMPDEST PUSH1 0x0 DUP1 PUSH1 0x0 DUP5 PUSH1 0x60 ADD MLOAD GT ISZERO PUSH2 0x1782 JUMPI PUSH2 0x175E DUP5 PUSH1 0x60 ADD MLOAD PUSH2 0xA24 DUP7 PUSH1 0x80 ADD MLOAD DUP7 PUSH2 0x1A91 SWAP1 SWAP2 SWAP1 PUSH4 0xFFFFFFFF AND JUMP JUMPDEST SWAP2 POP PUSH2 0x177F DUP5 PUSH1 0x60 ADD MLOAD PUSH2 0xA24 DUP7 PUSH1 0xA0 ADD MLOAD DUP7 PUSH2 0x1A91 SWAP1 SWAP2 SWAP1 PUSH4 0xFFFFFFFF AND JUMP JUMPDEST SWAP1 POP JUMPDEST SWAP3 POP SWAP3 SWAP1 POP JUMP JUMPDEST PUSH1 0x1 PUSH1 0x1 PUSH1 0xA0 SHL SUB DUP2 AND PUSH2 0x179C JUMPI PUSH1 0x0 DUP1 REVERT JUMPDEST PUSH1 0x1 PUSH1 0x1 PUSH1 0xA0 SHL SUB DUP2 AND ADDRESS EQ ISZERO PUSH2 0x17B2 JUMPI PUSH1 0x0 DUP1 REVERT JUMPDEST PUSH1 0x0 PUSH2 0x17BD DUP3 PUSH2 0x2FA4 JUMP JUMPDEST POP POP POP POP PUSH2 0xFFFF AND SWAP1 POP DUP1 PUSH1 0x0 EQ PUSH2 0x17D4 JUMPI PUSH1 0x0 DUP1 REVERT JUMPDEST POP POP JUMP JUMPDEST PUSH1 0x0 DUP2 PUSH2 0x17E7 JUMPI POP PUSH1 0x0 PUSH2 0x14B6 JUMP JUMPDEST PUSH1 0x0 PUSH2 0x17FA DUP6 PUSH1 0x40 ADD MLOAD PUSH2 0xFFFF AND PUSH2 0x1986 JUMP JUMPDEST SWAP1 POP PUSH1 0x0 PUSH1 0x4 DUP3 PUSH1 0x60 ADD MLOAD PUSH1 0x5 DUP2 GT ISZERO PUSH2 0x1810 JUMPI INVALID JUMPDEST EQ PUSH2 0x182B JUMPI PUSH2 0x1826 DUP7 PUSH1 0x40 ADD MLOAD PUSH2 0xFFFF AND PUSH2 0x3010 JUMP JUMPDEST PUSH2 0x182D JUMP JUMPDEST DUP2 JUMPDEST DUP7 MLOAD PUSH1 0x20 DUP3 ADD MLOAD SWAP2 SWAP3 POP SWAP1 ISZERO PUSH2 0x1842 JUMPI PUSH1 0x0 DUP1 REVERT JUMPDEST PUSH1 0x3 DUP3 PUSH1 0x60 ADD MLOAD PUSH1 0x5 DUP2 GT ISZERO PUSH2 0x1854 JUMPI INVALID JUMPDEST EQ ISZERO PUSH2 0x188E JUMPI DUP5 CALLVALUE EQ PUSH2 0x1879 JUMPI PUSH1 0x40 MLOAD PUSH3 0x461BCD PUSH1 0xE5 SHL DUP2 MSTORE PUSH1 0x4 ADD PUSH2 0x2CF SWAP1 PUSH2 0x55D1 JUMP JUMPDEST PUSH2 0x1883 DUP2 CALLVALUE PUSH2 0x3023 JUMP JUMPDEST CALLVALUE SWAP4 POP POP POP POP PUSH2 0x14B6 JUMP JUMPDEST DUP2 MLOAD PUSH2 0x189C SWAP1 DUP8 DUP4 DUP9 PUSH2 0x3059 JUMP JUMPDEST DUP5 SWAP4 POP POP POP POP PUSH2 0x14B6 JUMP JUMPDEST POP POP POP SWAP4 SWAP3 POP POP POP JUMP JUMPDEST PUSH2 0x18B9 PUSH2 0x4CC2 JUMP JUMPDEST PUSH2 0x18C2 DUP4 PUSH2 0xE9A JUMP JUMPDEST SWAP1 POP PUSH2 0x18CF DUP2 PUSH1 0x80 PUSH2 0xF28 JUMP JUMPDEST ISZERO PUSH2 0x18DA JUMPI PUSH1 0x1 PUSH1 0xA SSTORE JUMPDEST PUSH2 0x18E5 DUP2 PUSH1 0x20 PUSH2 0xF28 JUMP JUMPDEST ISZERO PUSH2 0x1917 JUMPI CALLER PUSH1 0x1 PUSH1 0x1 PUSH1 0xA0 SHL SUB DUP5 AND EQ PUSH2 0x1912 JUMPI PUSH1 0x40 MLOAD PUSH3 0x461BCD PUSH1 0xE5 SHL DUP2 MSTORE PUSH1 0x4 ADD PUSH2 0x2CF SWAP1 PUSH2 0x52E3 JUMP JUMPDEST PUSH2 0x193F JUMP JUMPDEST CALLER PUSH1 0x1 PUSH1 0x1 PUSH1 0xA0 SHL SUB DUP4 AND EQ PUSH2 0x193F JUMPI PUSH1 0x40 MLOAD PUSH3 0x461BCD PUSH1 0xE5 SHL DUP2 MSTORE PUSH1 0x4 ADD PUSH2 0x2CF SWAP1 PUSH2 0x52E3 JUMP JUMPDEST PUSH1 0x1 PUSH1 0x1 PUSH1 0xA0 SHL SUB DUP5 AND CALLER EQ DUP1 ISZERO SWAP1 PUSH2 0x196A JUMPI POP DUP2 PUSH1 0x1 PUSH1 0x1 PUSH1 0xA0 SHL SUB AND DUP5 PUSH1 0x1 PUSH1 0x1 PUSH1 0xA0 SHL SUB AND EQ ISZERO JUMPDEST PUSH2 0x14B6 JUMPI PUSH1 0x40 MLOAD PUSH3 0x461BCD PUSH1 0xE5 SHL DUP2 MSTORE PUSH1 0x4 ADD PUSH2 0x2CF SWAP1 PUSH2 0x52E3 JUMP JUMPDEST PUSH2 0x198E PUSH2 0x4D7E JUMP JUMPDEST PUSH2 0xFAA DUP3 PUSH1 0x0 PUSH2 0x30E1 JUMP JUMPDEST PUSH1 0x0 PUSH2 0x19A4 DUP4 PUSH2 0x1534 JUMP JUMPDEST SWAP1 POP PUSH1 0x5 DUP7 PUSH1 0x60 ADD MLOAD PUSH1 0x5 DUP2 GT ISZERO PUSH2 0x19B8 JUMPI INVALID JUMPDEST EQ ISZERO PUSH2 0x19D3 JUMPI PUSH2 0x19D0 DUP5 PUSH1 0x40 ADD MLOAD PUSH2 0xFFFF AND DUP3 PUSH2 0x318F JUMP JUMPDEST SWAP1 POP JUMPDEST PUSH1 0x0 DUP1 PUSH2 0x19E1 DUP8 DUP8 DUP7 PUSH2 0xD8B JUMP JUMPDEST SWAP2 POP SWAP2 POP PUSH1 0x0 DUP3 SGT PUSH2 0x19F2 JUMPI PUSH1 0x0 DUP1 REVERT JUMPDEST PUSH1 0x0 PUSH2 0x19FE DUP10 DUP5 PUSH2 0x2C02 JUMP JUMPDEST SWAP1 POP DUP1 DUP5 SLT ISZERO PUSH2 0x1A35 JUMPI PUSH2 0x1A12 DUP10 DUP4 PUSH2 0x2C02 JUMP JUMPDEST DUP5 SLT PUSH2 0x1A30 JUMPI PUSH1 0x40 MLOAD PUSH3 0x461BCD PUSH1 0xE5 SHL DUP2 MSTORE PUSH1 0x4 ADD PUSH2 0x2CF SWAP1 PUSH2 0x5501 JUMP JUMPDEST PUSH2 0x1A39 JUMP JUMPDEST DUP1 SWAP4 POP JUMPDEST PUSH1 0x40 DUP8 ADD MLOAD PUSH1 0x0 SWAP1 PUSH2 0x1A53 SWAP1 DUP12 SWAP1 DUP14 SWAP1 PUSH2 0xFFFF AND DUP9 PUSH2 0x22B3 JUMP JUMPDEST SWAP1 POP PUSH2 0x1A6D PUSH2 0x1A62 DUP12 DUP4 PUSH2 0x2452 JUMP JUMPDEST PUSH1 0x80 DUP12 ADD MLOAD SWAP1 PUSH2 0x1FC0 JUMP JUMPDEST PUSH1 0x80 SWAP1 SWAP10 ADD SWAP9 SWAP1 SWAP9 MSTORE POP POP POP POP POP POP POP POP POP POP JUMP JUMPDEST PUSH1 0x0 DUP1 DUP3 SLT ISZERO PUSH2 0x154A JUMPI PUSH1 0x0 DUP1 REVERT JUMPDEST PUSH1 0x0 DUP3 PUSH2 0x1AA0 JUMPI POP PUSH1 0x0 PUSH2 0xB9F JUMP JUMPDEST DUP3 DUP3 MUL DUP3 DUP5 DUP3 DUP2 PUSH2 0x1AAD JUMPI INVALID JUMPDEST DIV EQ PUSH2 0xB9C JUMPI PUSH1 0x0 DUP1 REVERT JUMPDEST PUSH1 0x0 DUP1 DUP3 GT PUSH2 0x1AC6 JUMPI PUSH1 0x0 DUP1 REVERT JUMPDEST DUP2 DUP4 DUP2 PUSH2 0x1ACF JUMPI INVALID JUMPDEST DIV SWAP4 SWAP3 POP POP POP JUMP JUMPDEST PUSH1 0x0 DUP3 DUP3 GT ISZERO PUSH2 0x1AE6 JUMPI PUSH1 0x0 DUP1 REVERT JUMPDEST POP SWAP1 SUB SWAP1 JUMP JUMPDEST PUSH1 0x0 DUP1 PUSH2 0x1B17 DUP5 PUSH1 0x40 ADD MLOAD PUSH2 0xE67 PUSH5 0x2540BE400 PUSH2 0xE67 DUP8 DUP10 PUSH1 0x20 ADD MLOAD PUSH2 0x2049 SWAP1 SWAP2 SWAP1 PUSH4 0xFFFFFFFF AND JUMP JUMPDEST SWAP5 SWAP4 POP POP POP POP JUMP JUMPDEST PUSH1 0x80 DUP6 ADD MLOAD PUSH2 0x1B2E SWAP1 DUP3 PUSH2 0x1FC0 JUMP JUMPDEST PUSH1 0x80 DUP7 ADD MSTORE DUP5 MLOAD PUSH2 0x1B3F SWAP1 DUP4 PUSH2 0x1FC0 JUMP JUMPDEST DUP1 DUP7 MSTORE PUSH1 0x0 SLT ISZERO PUSH2 0x1B4F JUMPI PUSH1 0x0 DUP1 REVERT JUMPDEST PUSH1 0x20 DUP4 ADD MLOAD PUSH2 0x1B5E SWAP1 DUP4 PUSH2 0x1FC0 JUMP JUMPDEST PUSH1 0x20 DUP5 ADD DUP2 SWAP1 MSTORE PUSH1 0x0 SLT ISZERO PUSH2 0x1B72 JUMPI PUSH1 0x0 DUP1 REVERT JUMPDEST PUSH2 0x1B85 DUP5 PUSH1 0x0 ADD MLOAD DUP6 PUSH1 0x40 ADD MLOAD DUP5 PUSH2 0x3216 JUMP JUMPDEST POP POP POP POP POP POP JUMP JUMPDEST PUSH1 0x0 DUP1 PUSH2 0x1B9E DUP7 DUP7 PUSH1 0x0 ADD MLOAD PUSH2 0xBEC JUMP JUMPDEST SWAP1 POP DUP1 PUSH1 0x20 ADD MLOAD PUSH1 0x0 EQ DUP1 PUSH2 0x1BB6 JUMPI POP DUP3 DUP2 PUSH1 0x20 ADD MLOAD EQ JUMPDEST PUSH2 0x1BD2 JUMPI PUSH1 0x40 MLOAD PUSH3 0x461BCD PUSH1 0xE5 SHL DUP2 MSTORE PUSH1 0x4 ADD PUSH2 0x2CF SWAP1 PUSH2 0x5309 JUMP JUMPDEST PUSH1 0x20 DUP2 ADD DUP4 SWAP1 MSTORE PUSH1 0x40 DUP2 ADD MLOAD PUSH2 0x1BE8 SWAP1 DUP6 PUSH2 0x331C JUMP JUMPDEST PUSH1 0x40 DUP3 ADD MSTORE PUSH2 0x1BF7 DUP2 DUP7 PUSH2 0x1596 JUMP JUMPDEST POP SWAP2 SWAP5 SWAP4 POP POP POP POP JUMP JUMPDEST PUSH1 0x0 DUP1 DUP1 PUSH2 0x1C0F DUP9 DUP9 PUSH2 0x20DE JUMP JUMPDEST DUP10 MLOAD SWAP2 SWAP4 POP SWAP2 POP PUSH2 0x1C27 SWAP1 DUP11 SWAP1 DUP13 SWAP1 DUP5 SWAP1 DUP11 DUP11 PUSH2 0x332E JUMP JUMPDEST DUP11 MLOAD SWAP1 SWAP5 POP PUSH2 0x1C38 SWAP2 POP DUP10 SWAP1 PUSH2 0x1040 JUMP JUMPDEST DUP2 ISZERO PUSH2 0x1C82 JUMPI PUSH1 0x0 PUSH2 0x1C72 PUSH2 0x1093 PUSH2 0x1014 DUP13 PUSH1 0x40 ADD MLOAD PUSH2 0xFFFF AND DUP15 PUSH2 0x1C69 PUSH2 0x1093 PUSH2 0x1C62 DUP11 PUSH2 0x1534 JUMP JUMPDEST DUP13 SWAP1 PUSH2 0x2C02 JUMP JUMPDEST DUP11 SWAP3 SWAP2 SWAP1 PUSH2 0x2C3A JUMP JUMPDEST SWAP1 POP PUSH2 0x1C7E DUP5 DUP3 PUSH2 0x331C JUMP JUMPDEST SWAP4 POP POP JUMPDEST POP POP SWAP8 SWAP7 POP POP POP POP POP POP POP JUMP JUMPDEST PUSH2 0x1C97 PUSH2 0x4CC2 JUMP JUMPDEST PUSH1 0x0 PUSH2 0x1CA1 PUSH2 0x3385 JUMP JUMPDEST PUSH1 0x1 PUSH1 0x1 PUSH1 0xA0 SHL SUB DUP5 AND PUSH1 0x0 DUP2 DUP2 MSTORE PUSH1 0x20 DUP4 DUP2 MSTORE PUSH1 0x40 SWAP2 DUP3 SWAP1 KECCAK256 SWAP3 DUP7 MSTORE DUP3 SLOAD PUSH2 0xFFFF DUP1 DUP3 AND SWAP3 DUP9 ADD SWAP3 SWAP1 SWAP3 MSTORE PUSH3 0x10000 DUP2 DIV SWAP1 SWAP2 AND SWAP2 DUP7 ADD SWAP2 SWAP1 SWAP2 MSTORE SWAP2 SWAP3 POP SWAP1 PUSH2 0x1D02 SWAP1 PUSH4 0xFFFFFFFF PUSH5 0x100000000 SWAP1 SWAP2 DIV DUP2 AND SWAP1 PUSH4 0x5F5E100 SWAP1 PUSH2 0x2049 AND JUMP JUMPDEST PUSH1 0x60 DUP5 ADD MSTORE DUP1 SLOAD PUSH2 0x1D20 SWAP1 PUSH1 0x1 PUSH1 0x50 SHL SWAP1 DIV PUSH1 0xFF AND PUSH3 0x7A120 PUSH2 0x1A91 JUMP JUMPDEST PUSH1 0x80 DUP5 ADD MSTORE DUP1 SLOAD PUSH2 0x1D44 SWAP1 PUSH9 0x10000000000000000 SWAP1 DIV PUSH2 0xFFFF AND PUSH3 0x186A0 PUSH2 0x1A91 JUMP JUMPDEST PUSH1 0xA0 DUP5 ADD MSTORE DUP1 SLOAD PUSH2 0x1D63 SWAP1 PUSH1 0x1 PUSH1 0x70 SHL SWAP1 DIV PUSH2 0xFFFF AND PUSH3 0x186A0 PUSH2 0x1A91 JUMP JUMPDEST PUSH2 0x120 DUP5 ADD MSTORE DUP1 SLOAD PUSH1 0x64 SWAP1 PUSH1 0xFF PUSH1 0x1 PUSH1 0x58 SHL SWAP1 SWAP2 DIV AND PUSH4 0x3B9ACA00 MUL SDIV PUSH1 0xC0 DUP5 ADD MSTORE DUP1 SLOAD PUSH1 0x1 PUSH1 0x60 SHL DUP2 DIV PUSH1 0xFF SWAP1 DUP2 AND PUSH1 0xE0 DUP7 ADD MSTORE PUSH1 0x1 PUSH1 0x68 SHL SWAP1 SWAP2 DIV AND PUSH2 0x100 DUP5 ADD MSTORE PUSH1 0x40 DUP1 MLOAD DUP1 DUP3 ADD SWAP2 DUP3 SWAP1 MSTORE SWAP1 PUSH1 0x1 DUP4 ADD SWAP1 PUSH1 0x2 SWAP1 DUP3 PUSH1 0x0 DUP6 JUMPDEST DUP3 DUP3 SWAP1 SLOAD SWAP1 PUSH2 0x100 EXP SWAP1 DIV PUSH2 0xFFFF AND PUSH2 0xFFFF AND DUP2 MSTORE PUSH1 0x20 ADD SWAP1 PUSH1 0x2 ADD SWAP1 PUSH1 0x20 DUP3 PUSH1 0x1 ADD DIV SWAP3 DUP4 ADD SWAP3 PUSH1 0x1 SUB DUP3 MUL SWAP2 POP DUP1 DUP5 GT PUSH2 0x1DC0 JUMPI SWAP1 POP POP POP POP POP POP DUP4 PUSH2 0x140 ADD DUP2 SWAP1 MSTORE POP POP POP SWAP2 SWAP1 POP JUMP JUMPDEST PUSH2 0x1E15 PUSH2 0x4DAD JUMP JUMPDEST PUSH1 0x0 DUP1 PUSH1 0x0 PUSH2 0x1E23 DUP6 PUSH2 0x3392 JUMP JUMPDEST PUSH1 0x40 DUP1 MLOAD PUSH1 0x60 DUP2 ADD DUP3 MSTORE PUSH1 0x1 PUSH1 0x1 PUSH1 0xA0 SHL SUB SWAP1 SWAP4 AND DUP4 MSTORE PUSH1 0x20 DUP4 ADD SWAP4 SWAP1 SWAP4 MSTORE PUSH1 0xFF AND PUSH1 0xA EXP SWAP2 DUP2 ADD SWAP2 SWAP1 SWAP2 MSTORE SWAP4 POP POP POP POP SWAP2 SWAP1 POP JUMP JUMPDEST PUSH1 0x0 DUP1 PUSH2 0xB9F PUSH1 0x16 PUSH2 0x2F8B JUMP JUMPDEST PUSH1 0x0 DUP1 PUSH2 0xB9F PUSH1 0x15 PUSH2 0x2F8B JUMP JUMPDEST PUSH1 0x0 DUP2 PUSH2 0x1E82 JUMPI POP PUSH1 0x0 PUSH2 0x1B17 JUMP JUMPDEST PUSH1 0x0 DUP1 PUSH2 0x1E8F DUP8 DUP6 PUSH2 0x172F JUMP JUMPDEST SWAP2 POP SWAP2 POP PUSH1 0x0 PUSH2 0x1EAE DUP8 PUSH1 0x40 ADD MLOAD DUP9 PUSH1 0x0 ADD MLOAD DUP9 DUP6 DUP13 PUSH1 0x0 ADD MLOAD PUSH2 0x3453 JUMP JUMPDEST SWAP1 POP PUSH2 0x1ECC PUSH2 0x1EBC DUP5 PUSH2 0x1534 JUMP JUMPDEST PUSH2 0x160 DUP10 ADD MLOAD PUSH2 0xD3B SWAP1 DUP5 PUSH2 0x1FD6 JUMP JUMPDEST SWAP9 SWAP8 POP POP POP POP POP POP POP POP JUMP JUMPDEST PUSH1 0x0 PUSH2 0x1EE3 DUP5 PUSH2 0x2F4F JUMP JUMPDEST ISZERO PUSH2 0x14B6 JUMPI PUSH1 0x0 PUSH2 0x1EF2 PUSH2 0x1722 JUMP JUMPDEST PUSH1 0x1 PUSH1 0x1 PUSH1 0xA0 SHL SUB DUP1 DUP7 AND PUSH1 0x0 SWAP1 DUP2 MSTORE PUSH1 0x20 SWAP3 DUP4 MSTORE PUSH1 0x40 DUP1 DUP3 KECCAK256 DUP10 MLOAD SWAP1 SWAP4 AND DUP3 MSTORE SWAP2 SWAP1 SWAP3 MSTORE DUP1 DUP3 KECCAK256 SWAP1 DUP8 ADD MLOAD SWAP1 SWAP3 POP PUSH2 0x1F2E SWAP1 PUSH2 0xFFFF AND PUSH2 0x350D JUMP JUMPDEST DUP3 SLOAD SWAP1 SWAP2 POP PUSH1 0x1 PUSH1 0x1 PUSH1 0x50 SHL SUB PUSH5 0x100000000 DUP3 DIV DUP2 AND SWAP2 PUSH1 0x1 PUSH1 0x70 SHL SWAP1 DIV AND DUP2 ISZERO PUSH2 0x1F85 JUMPI PUSH2 0x1F82 PUSH2 0x1F7B DUP5 DUP11 PUSH2 0x140 ADD MLOAD PUSH1 0x0 PUSH1 0x2 DUP2 LT PUSH2 0x1F6D JUMPI INVALID JUMPDEST PUSH1 0x20 MUL ADD MLOAD DUP12 MLOAD DUP11 DUP8 PUSH2 0x3670 JUMP JUMPDEST DUP7 SWAP1 PUSH2 0x1FC0 JUMP JUMPDEST SWAP5 POP JUMPDEST DUP1 ISZERO PUSH2 0x1FB5 JUMPI PUSH2 0x1FB2 PUSH2 0x1F7B DUP5 DUP11 PUSH2 0x140 ADD MLOAD PUSH1 0x1 PUSH1 0x2 DUP2 LT PUSH2 0x1FA4 JUMPI INVALID JUMPDEST PUSH1 0x20 MUL ADD MLOAD DUP12 MLOAD DUP11 DUP7 PUSH2 0x3670 JUMP JUMPDEST SWAP5 POP JUMPDEST POP POP POP POP SWAP4 SWAP3 POP POP POP JUMP JUMPDEST DUP2 DUP2 ADD DUP3 DUP2 SLT ISZERO PUSH1 0x0 DUP4 SLT ISZERO EQ PUSH2 0xB9F JUMPI PUSH1 0x0 DUP1 REVERT JUMPDEST PUSH1 0x0 DUP1 PUSH2 0x1B17 DUP5 PUSH1 0x20 ADD MLOAD PUSH2 0xE67 DUP7 PUSH1 0x40 ADD MLOAD PUSH2 0x13B0 PUSH5 0x2540BE400 DUP9 PUSH2 0x2049 SWAP1 SWAP2 SWAP1 PUSH4 0xFFFFFFFF AND JUMP JUMPDEST DUP1 DUP3 SUB DUP3 DUP2 SGT ISZERO PUSH1 0x0 DUP4 SLT ISZERO EQ PUSH2 0xB9F JUMPI PUSH1 0x0 DUP1 REVERT JUMPDEST PUSH1 0x0 PUSH2 0xB9C PUSH2 0x202A DUP5 PUSH4 0x3B9ACA00 PUSH2 0x2049 JUMP JUMPDEST DUP4 PUSH2 0x2097 JUMP JUMPDEST PUSH1 0x0 PUSH2 0xB9C PUSH2 0x203F DUP5 DUP5 PUSH2 0x2049 JUMP JUMPDEST PUSH4 0x3B9ACA00 PUSH2 0x2097 JUMP JUMPDEST DUP2 DUP2 MUL PUSH1 0x0 NOT DUP4 EQ ISZERO PUSH2 0x2079 JUMPI DUP2 ISZERO DUP1 PUSH2 0x206B JUMPI POP DUP3 DUP3 DUP3 DUP2 PUSH2 0x2068 JUMPI INVALID JUMPDEST SDIV EQ JUMPDEST PUSH2 0x2074 JUMPI PUSH1 0x0 DUP1 REVERT JUMPDEST PUSH2 0xB9F JUMP JUMPDEST DUP3 ISZERO DUP1 PUSH2 0x208E JUMPI POP DUP2 DUP4 DUP3 DUP2 PUSH2 0x208B JUMPI INVALID JUMPDEST SDIV EQ JUMPDEST PUSH2 0xB9F JUMPI PUSH1 0x0 DUP1 REVERT JUMPDEST PUSH1 0x0 DUP2 PUSH1 0x0 NOT EQ DUP1 ISZERO PUSH2 0x20AD JUMPI POP PUSH1 0x1 PUSH1 0xFF SHL DUP4 EQ JUMPDEST ISZERO PUSH2 0x20B7 JUMPI PUSH1 0x0 DUP1 REVERT JUMPDEST DUP2 DUP4 DUP2 PUSH2 0x20C0 JUMPI INVALID JUMPDEST SDIV SWAP4 SWAP3 POP POP POP JUMP JUMPDEST PUSH2 0x20D0 PUSH2 0x4DAD JUMP JUMPDEST PUSH1 0x0 DUP1 PUSH1 0x0 PUSH2 0x1E23 DUP6 PUSH2 0x3721 JUMP JUMPDEST PUSH1 0x0 DUP1 PUSH2 0x20EB DUP5 DUP5 PUSH2 0x172F JUMP JUMPDEST PUSH1 0x80 DUP7 ADD MLOAD SWAP2 SWAP4 POP SWAP2 POP PUSH2 0x20FF SWAP1 DUP4 PUSH2 0x1AD7 JUMP JUMPDEST PUSH1 0x80 DUP6 ADD MSTORE PUSH1 0xA0 DUP5 ADD MLOAD PUSH2 0x2113 SWAP1 DUP3 PUSH2 0x1AD7 JUMP JUMPDEST PUSH1 0xA0 DUP6 ADD MSTORE PUSH1 0x60 DUP5 ADD MLOAD PUSH2 0x2127 SWAP1 DUP5 PUSH2 0x1AD7 JUMP JUMPDEST PUSH1 0x60 SWAP1 SWAP5 ADD SWAP4 SWAP1 SWAP4 MSTORE SWAP3 SWAP1 POP JUMP JUMPDEST PUSH1 0x0 DUP1 PUSH2 0x2144 DUP9 DUP9 DUP7 DUP7 PUSH2 0x2512 JUMP JUMPDEST SWAP1 POP PUSH1 0x0 PUSH2 0x2151 DUP8 PUSH2 0x37A6 JUMP JUMPDEST SWAP1 POP PUSH11 0xFFFFFFFFFFFFFFFFFFFFFF DUP2 LT PUSH2 0x216A JUMPI PUSH1 0x0 DUP1 REVERT JUMPDEST PUSH1 0x0 PUSH1 0x78 DUP8 PUSH4 0xFFFFFFFF AND SWAP1 SHL PUSH1 0x98 DUP4 SWAP1 SHL PUSH1 0xF0 DUP6 SWAP1 SHL PUSH1 0xF8 PUSH1 0x0 DUP13 SGT PUSH2 0x2192 JUMPI PUSH1 0x1 PUSH2 0x2195 JUMP JUMPDEST PUSH1 0x0 JUMPDEST PUSH1 0x5 DUP2 GT ISZERO PUSH2 0x21A0 JUMPI INVALID JUMPDEST PUSH1 0xFF AND SWAP1 SHL OR OR OR PUSH1 0x0 SHL SWAP1 POP PUSH20 0x0 PUSH4 0xE50F349E DUP12 DUP4 PUSH1 0x40 MLOAD DUP4 PUSH4 0xFFFFFFFF AND PUSH1 0xE0 SHL DUP2 MSTORE PUSH1 0x4 ADD PUSH2 0x21E6 SWAP3 SWAP2 SWAP1 PUSH2 0x56EF JUMP JUMPDEST PUSH1 0x20 PUSH1 0x40 MLOAD DUP1 DUP4 SUB DUP2 DUP7 DUP1 EXTCODESIZE ISZERO DUP1 ISZERO PUSH2 0x21FE JUMPI PUSH1 0x0 DUP1 REVERT JUMPDEST POP GAS DELEGATECALL ISZERO DUP1 ISZERO PUSH2 0x2212 JUMPI RETURNDATASIZE PUSH1 0x0 DUP1 RETURNDATACOPY RETURNDATASIZE PUSH1 0x0 REVERT JUMPDEST POP POP POP POP PUSH1 0x40 MLOAD RETURNDATASIZE PUSH1 0x1F NOT PUSH1 0x1F DUP3 ADD AND DUP3 ADD DUP1 PUSH1 0x40 MSTORE POP DUP2 ADD SWAP1 PUSH2 0x2236 SWAP2 SWAP1 PUSH2 0x510E JUMP JUMPDEST SWAP11 SWAP10 POP POP POP POP POP POP POP POP POP POP JUMP JUMPDEST PUSH1 0x0 PUSH1 0x1 PUSH1 0x1 PUSH1 0x50 SHL SUB DUP3 GT ISZERO PUSH2 0x154A JUMPI PUSH1 0x0 DUP1 REVERT JUMPDEST PUSH2 0x2262 PUSH2 0x4D7E JUMP JUMPDEST PUSH2 0x226A PUSH2 0x4D7E JUMP JUMPDEST PUSH2 0x227B DUP4 PUSH1 0x40 ADD MLOAD PUSH2 0xFFFF AND PUSH2 0x1986 JUMP JUMPDEST SWAP2 POP PUSH1 0x4 DUP3 PUSH1 0x60 ADD MLOAD PUSH1 0x5 DUP2 GT ISZERO PUSH2 0x228F JUMPI INVALID JUMPDEST EQ PUSH2 0x22AA JUMPI PUSH2 0x22A5 DUP4 PUSH1 0x40 ADD MLOAD PUSH2 0xFFFF AND PUSH2 0x3010 JUMP JUMPDEST PUSH2 0x22AC JUMP JUMPDEST DUP2 JUMPDEST SWAP1 POP SWAP2 POP SWAP2 JUMP JUMPDEST DUP1 PUSH1 0x5 DUP6 PUSH1 0x60 ADD MLOAD PUSH1 0x5 DUP2 GT ISZERO PUSH2 0x22C6 JUMPI INVALID JUMPDEST EQ ISZERO PUSH2 0x22EB JUMPI PUSH1 0x0 PUSH2 0x22D7 DUP5 PUSH2 0x3010 JUMP JUMPDEST SWAP1 POP PUSH2 0x22E7 DUP2 PUSH1 0x0 ADD MLOAD DUP5 PUSH2 0x37C7 JUMP JUMPDEST SWAP3 POP POP JUMPDEST PUSH1 0x0 DUP3 SGT ISZERO PUSH2 0x2317 JUMPI PUSH1 0x0 PUSH2 0x2301 DUP7 DUP7 DUP6 PUSH2 0x3856 JUMP JUMPDEST SWAP1 POP DUP6 PUSH1 0x20 ADD MLOAD ISZERO PUSH2 0x2311 JUMPI DUP1 SWAP2 POP JUMPDEST POP PUSH2 0x1B17 JUMP JUMPDEST PUSH1 0x3 DUP6 PUSH1 0x60 ADD MLOAD PUSH1 0x5 DUP2 GT ISZERO PUSH2 0x2329 JUMPI INVALID JUMPDEST EQ ISZERO PUSH2 0x2346 JUMPI PUSH2 0x2341 DUP5 PUSH2 0x233C DUP5 PUSH2 0xF9C JUMP JUMPDEST PUSH2 0x3023 JUMP JUMPDEST PUSH2 0x1B17 JUMP JUMPDEST DUP5 MLOAD PUSH2 0x1B17 SWAP1 DUP6 PUSH2 0x2356 DUP6 PUSH2 0xF9C JUMP JUMPDEST PUSH2 0x393F JUMP JUMPDEST PUSH1 0x0 DUP1 PUSH1 0x5 DUP6 PUSH1 0x60 ADD MLOAD PUSH1 0x5 DUP2 GT ISZERO PUSH2 0x2370 JUMPI INVALID JUMPDEST EQ PUSH2 0x2382 JUMPI PUSH4 0x70A08231 PUSH1 0xE0 SHL PUSH2 0x238B JUMP JUMPDEST PUSH4 0xED1279F PUSH1 0xE1 SHL JUMPDEST SWAP1 POP PUSH1 0x0 PUSH2 0x239E DUP7 PUSH1 0x0 ADD MLOAD ADDRESS DUP5 PUSH2 0x39B6 JUMP JUMPDEST SWAP1 POP PUSH1 0x5 DUP7 PUSH1 0x60 ADD MLOAD PUSH1 0x5 DUP2 GT ISZERO PUSH2 0x23B2 JUMPI INVALID JUMPDEST EQ ISZERO PUSH2 0x23D9 JUMPI PUSH1 0x0 PUSH2 0x23C7 DUP7 PUSH2 0xFFFF AND PUSH2 0x3010 JUMP JUMPDEST SWAP1 POP PUSH2 0x23D3 DUP2 DUP7 PUSH2 0x3AC8 JUMP JUMPDEST POP PUSH2 0x2422 JUMP JUMPDEST PUSH1 0x1 DUP7 PUSH1 0x60 ADD MLOAD PUSH1 0x5 DUP2 GT ISZERO PUSH2 0x23EB JUMPI INVALID JUMPDEST EQ ISZERO PUSH2 0x2400 JUMPI PUSH2 0x23FB DUP7 DUP6 PUSH2 0x3B33 JUMP JUMPDEST PUSH2 0x2422 JUMP JUMPDEST PUSH1 0x2 DUP7 PUSH1 0x60 ADD MLOAD PUSH1 0x5 DUP2 GT ISZERO PUSH2 0x2412 JUMPI INVALID JUMPDEST EQ ISZERO PUSH2 0x9C JUMPI PUSH2 0x23FB DUP7 DUP6 PUSH2 0x3BD5 JUMP JUMPDEST PUSH1 0x0 PUSH2 0x2433 DUP8 PUSH1 0x0 ADD MLOAD ADDRESS DUP6 PUSH2 0x39B6 JUMP JUMPDEST SWAP1 POP PUSH2 0x2447 PUSH2 0x2442 DUP3 DUP5 PUSH2 0x3C28 JUMP JUMPDEST PUSH2 0x1534 JUMP JUMPDEST SWAP8 SWAP7 POP POP POP POP POP POP POP JUMP JUMPDEST PUSH1 0x0 PUSH4 0x5F5E100 DUP4 PUSH1 0x40 ADD MLOAD EQ ISZERO PUSH2 0x246B JUMPI POP DUP1 PUSH2 0xB9F JUMP JUMPDEST PUSH1 0x40 DUP4 ADD MLOAD PUSH2 0xB9C SWAP1 PUSH2 0xE67 DUP5 PUSH4 0x5F5E100 PUSH2 0x2049 JUMP JUMPDEST PUSH1 0x0 DUP3 SLT PUSH2 0x248F JUMPI PUSH1 0x0 DUP1 REVERT JUMPDEST PUSH1 0x0 PUSH2 0x24A8 DUP7 PUSH1 0x40 ADD MLOAD DUP6 DUP6 DUP6 DUP11 PUSH2 0x100 ADD MLOAD TIMESTAMP PUSH2 0x2135 JUMP JUMPDEST SWAP1 POP PUSH1 0x0 DUP2 SGT PUSH2 0x24CA JUMPI PUSH1 0x40 MLOAD PUSH3 0x461BCD PUSH1 0xE5 SHL DUP2 MSTORE PUSH1 0x4 ADD PUSH2 0x2CF SWAP1 PUSH2 0x5586 JUMP JUMPDEST PUSH2 0x24D7 DUP8 DUP8 DUP8 DUP7 DUP6 PUSH2 0x1B1F JUMP JUMPDEST DUP7 MLOAD PUSH2 0x24E2 SWAP1 PUSH2 0xF9C JUMP JUMPDEST DUP7 PUSH1 0x60 ADD MLOAD SGT ISZERO PUSH2 0x2505 JUMPI PUSH1 0x40 MLOAD PUSH3 0x461BCD PUSH1 0xE5 SHL DUP2 MSTORE PUSH1 0x4 ADD PUSH2 0x2CF SWAP1 PUSH2 0x55AD JUMP JUMPDEST PUSH2 0x1037 DUP7 DUP9 DUP4 DUP8 TIMESTAMP PUSH2 0x3C7F JUMP JUMPDEST PUSH1 0x0 DUP1 PUSH1 0x0 PUSH2 0x2524 DUP8 PUSH2 0xFFFF AND PUSH2 0x3D7A JUMP JUMPDEST SWAP1 POP PUSH2 0x2534 DUP2 PUSH1 0xFF AND DUP8 DUP7 PUSH2 0x3D90 JUMP JUMPDEST SWAP1 SWAP4 POP SWAP2 POP DUP5 DUP4 GT ISZERO PUSH2 0x2559 JUMPI PUSH1 0x40 MLOAD PUSH3 0x461BCD PUSH1 0xE5 SHL DUP2 MSTORE PUSH1 0x4 ADD PUSH2 0x2CF SWAP1 PUSH2 0x53FC JUMP JUMPDEST DUP2 ISZERO PUSH2 0x2577 JUMPI PUSH1 0x40 MLOAD PUSH3 0x461BCD PUSH1 0xE5 SHL DUP2 MSTORE PUSH1 0x4 ADD PUSH2 0x2CF SWAP1 PUSH2 0x53FC JUMP JUMPDEST POP POP SWAP5 SWAP4 POP POP POP POP JUMP JUMPDEST PUSH1 0x0 DUP8 PUSH1 0x80 ADD MLOAD PUSH1 0x0 EQ PUSH2 0x2594 JUMPI PUSH1 0x0 DUP1 REVERT JUMPDEST PUSH1 0x0 DUP8 PUSH1 0x80 ADD MLOAD SLT ISZERO PUSH2 0x25A6 JUMPI PUSH1 0x0 DUP1 REVERT JUMPDEST DUP8 MLOAD PUSH1 0x20 DUP9 ADD MLOAD LT ISZERO PUSH2 0x25CE JUMPI PUSH1 0x40 DUP8 ADD MLOAD ISZERO PUSH2 0x25C2 JUMPI PUSH1 0x0 DUP1 REVERT JUMPDEST DUP8 MLOAD PUSH1 0x20 DUP9 ADD MSTORE PUSH2 0x25DF JUMP JUMPDEST DUP8 MLOAD PUSH1 0x20 DUP9 ADD MLOAD EQ PUSH2 0x25DF JUMPI PUSH1 0x0 DUP1 REVERT JUMPDEST PUSH1 0x0 DUP6 ISZERO PUSH2 0x25FA JUMPI PUSH2 0x25F7 DUP10 DUP10 DUP9 DUP11 PUSH1 0x0 ADD MLOAD PUSH2 0x3E58 JUMP JUMPDEST SWAP1 POP JUMPDEST PUSH1 0x60 DUP9 ADD MLOAD PUSH1 0x80 DUP10 ADD MLOAD DUP11 MLOAD PUSH1 0x0 SWAP3 PUSH2 0x2617 SWAP3 DUP12 SWAP3 DUP11 DUP11 DUP11 PUSH2 0x3ED6 JUMP JUMPDEST SWAP1 POP PUSH2 0x2633 PUSH2 0x262C DUP12 DUP12 DUP5 DUP13 PUSH1 0x0 ADD MLOAD PUSH2 0x3E58 JUMP JUMPDEST DUP4 SWAP1 PUSH2 0x331C JUMP JUMPDEST SWAP2 POP DUP9 PUSH1 0x60 ADD MLOAD PUSH1 0x1 PUSH1 0x1 PUSH1 0xA0 SHL SUB AND DUP11 PUSH1 0x0 ADD MLOAD DUP10 PUSH1 0x0 ADD MLOAD PUSH1 0x1 PUSH1 0x1 PUSH1 0xA0 SHL SUB AND PUSH32 0x87D46C761BDD82B4A559098BEEB0D5B8FA8C0E2AA3607704FE0757618E85E24D PUSH2 0x268E DUP11 DUP15 PUSH1 0x80 ADD MLOAD PUSH2 0x331C SWAP1 SWAP2 SWAP1 PUSH4 0xFFFFFFFF AND JUMP JUMPDEST DUP12 DUP8 PUSH1 0x40 MLOAD PUSH2 0x269F SWAP4 SWAP3 SWAP2 SWAP1 PUSH2 0x52B2 JUMP JUMPDEST PUSH1 0x40 MLOAD DUP1 SWAP2 SUB SWAP1 LOG4 PUSH1 0x0 PUSH1 0x80 DUP11 ADD MSTORE PUSH2 0x2236 DUP8 DUP3 PUSH2 0x331C JUMP JUMPDEST PUSH2 0x26C0 PUSH2 0x4DAD JUMP JUMPDEST PUSH1 0x0 DUP1 PUSH2 0x26CD DUP7 DUP7 PUSH2 0x3F8C JUMP JUMPDEST SWAP2 POP SWAP2 POP DUP2 PUSH1 0x0 EQ ISZERO PUSH2 0x27FD JUMPI PUSH1 0x0 PUSH2 0x26E5 DUP8 PUSH2 0x3721 JUMP JUMPDEST SWAP2 SWAP5 POP SWAP1 SWAP3 POP SWAP1 POP PUSH1 0x1 PUSH1 0x1 PUSH1 0xA0 SHL SUB DUP2 AND ISZERO PUSH2 0x27FB JUMPI PUSH1 0x0 PUSH2 0x2706 PUSH2 0x3FD5 JUMP JUMPDEST SWAP1 POP DUP6 PUSH1 0x0 LT DUP1 ISZERO PUSH2 0x2718 JUMPI POP DUP6 DUP8 GT ISZERO JUMPDEST DUP1 ISZERO PUSH2 0x2729 JUMPI POP PUSH5 0xFFFFFFFFFF DUP7 GT ISZERO JUMPDEST PUSH2 0x2732 JUMPI PUSH1 0x0 DUP1 REVERT JUMPDEST DUP4 PUSH1 0x0 SLT DUP1 ISZERO PUSH2 0x2749 JUMPI POP PUSH1 0x1 PUSH1 0x1 PUSH1 0x80 SHL SUB DUP5 SGT ISZERO JUMPDEST PUSH2 0x2752 JUMPI PUSH1 0x0 DUP1 REVERT JUMPDEST PUSH1 0x0 DUP9 DUP2 MSTORE PUSH1 0x20 DUP3 DUP2 MSTORE PUSH1 0x40 DUP1 DUP4 KECCAK256 DUP11 DUP5 MSTORE SWAP1 SWAP2 MSTORE SWAP1 DUP2 SWAP1 KECCAK256 DUP1 SLOAD PUSH5 0xFFFFFFFFFF NOT AND PUSH5 0xFFFFFFFFFF DUP10 AND OR PUSH21 0xFFFFFFFFFFFFFFFFFFFFFFFFFFFFFFFF0000000000 NOT AND PUSH6 0x10000000000 PUSH1 0x1 PUSH1 0x1 PUSH1 0x80 SHL SUB DUP9 AND MUL OR PUSH1 0xFF PUSH1 0xA8 SHL NOT AND PUSH1 0x1 PUSH1 0xA8 SHL PUSH1 0xFF DUP8 AND MUL OR DUP2 SSTORE SWAP1 MLOAD DUP9 SWAP1 DUP11 SWAP1 PUSH32 0xFDFA6885701E2F1F42E4187B9231CF81C1FE23671EF64FA46F34DDB56C1DC18 SWAP1 PUSH2 0x27F0 SWAP1 DUP10 SWAP1 PUSH2 0x56DB JUMP JUMPDEST PUSH1 0x40 MLOAD DUP1 SWAP2 SUB SWAP1 LOG3 POP POP JUMPDEST POP JUMPDEST PUSH1 0x40 DUP1 MLOAD PUSH1 0x60 DUP2 ADD DUP3 MSTORE PUSH1 0x0 DUP2 MSTORE PUSH1 0x20 DUP2 ADD SWAP4 SWAP1 SWAP4 MSTORE PUSH1 0xFF SWAP1 SWAP2 AND PUSH1 0xA EXP SWAP1 DUP3 ADD MSTORE SWAP1 POP SWAP4 SWAP3 POP POP POP JUMP JUMPDEST PUSH1 0x0 DUP1 PUSH2 0x284C PUSH2 0x2845 PUSH2 0x283E DUP9 PUSH1 0x80 ADD MLOAD PUSH2 0x1534 JUMP JUMPDEST DUP7 SWAP1 PUSH2 0x1AEC JUMP JUMPDEST DUP5 SWAP1 PUSH2 0x1FC0 JUMP JUMPDEST SWAP1 POP PUSH2 0x2857 DUP6 PUSH2 0x2F4F JUMP JUMPDEST ISZERO PUSH2 0x296B JUMPI PUSH1 0x0 PUSH2 0x2866 PUSH2 0x1722 JUMP JUMPDEST PUSH1 0x60 DUP10 ADD MLOAD PUSH1 0x1 PUSH1 0x1 PUSH1 0xA0 SHL SUB SWAP1 DUP2 AND PUSH1 0x0 SWAP1 DUP2 MSTORE PUSH1 0x20 SWAP3 DUP4 MSTORE PUSH1 0x40 DUP1 DUP3 KECCAK256 DUP11 MLOAD SWAP1 SWAP4 AND DUP3 MSTORE SWAP2 SWAP1 SWAP3 MSTORE DUP2 KECCAK256 DUP8 MLOAD DUP10 MLOAD PUSH2 0x140 DUP11 ADD MLOAD MLOAD DUP4 SLOAD SWAP4 SWAP6 POP DUP5 SWAP4 PUSH2 0x28C1 SWAP4 SWAP3 SWAP2 SWAP1 PUSH5 0x100000000 SWAP1 DIV PUSH1 0x1 PUSH1 0x1 PUSH1 0x50 SHL SUB AND PUSH2 0x3FE2 JUMP JUMPDEST SWAP1 SWAP3 POP SWAP1 POP PUSH2 0x28D0 DUP5 DUP4 PUSH2 0x1FC0 JUMP JUMPDEST SWAP4 POP PUSH2 0x28DC DUP6 DUP3 PUSH2 0x2001 JUMP JUMPDEST DUP9 MLOAD DUP11 MLOAD PUSH2 0x140 DUP12 ADD MLOAD PUSH1 0x20 ADD MLOAD DUP7 SLOAD SWAP4 SWAP9 POP PUSH2 0x2908 SWAP4 PUSH1 0x1 PUSH1 0x70 SHL SWAP1 DIV PUSH1 0x1 PUSH1 0x1 PUSH1 0x50 SHL SUB AND PUSH2 0x3FE2 JUMP JUMPDEST SWAP1 SWAP3 POP SWAP1 POP PUSH2 0x2917 DUP5 DUP4 PUSH2 0x1FC0 JUMP JUMPDEST SWAP4 POP PUSH2 0x2923 DUP6 DUP3 PUSH2 0x2001 JUMP JUMPDEST SWAP5 POP PUSH2 0x292D PUSH2 0x1722 JUMP JUMPDEST PUSH1 0x60 DUP12 ADD MLOAD PUSH1 0x1 PUSH1 0x1 PUSH1 0xA0 SHL SUB SWAP1 DUP2 AND PUSH1 0x0 SWAP1 DUP2 MSTORE PUSH1 0x20 SWAP3 DUP4 MSTORE PUSH1 0x40 DUP1 DUP3 KECCAK256 DUP13 MLOAD SWAP1 SWAP4 AND DUP3 MSTORE SWAP2 SWAP1 SWAP3 MSTORE SWAP1 KECCAK256 DUP1 SLOAD PUSH1 0x1 PUSH1 0x1 PUSH1 0xC0 SHL SUB NOT AND SWAP1 SSTORE POP POP POP JUMPDEST PUSH2 0x299E PUSH2 0x2997 DUP9 PUSH1 0x0 ADD MLOAD PUSH2 0xD3B PUSH2 0x2986 DUP11 PUSH1 0x60 ADD MLOAD PUSH2 0x1534 JUMP JUMPDEST PUSH2 0xE67 DUP7 PUSH2 0x13B0 DUP15 PUSH1 0x40 ADD MLOAD PUSH2 0x1534 JUMP JUMPDEST DUP4 SWAP1 PUSH2 0x1FC0 JUMP JUMPDEST SWAP2 POP PUSH1 0x0 DUP3 SLT ISZERO PUSH2 0x29C0 JUMPI PUSH2 0x29B6 PUSH2 0x127F DUP6 DUP5 PUSH2 0x1FD6 JUMP JUMPDEST PUSH1 0x80 DUP9 ADD MSTORE PUSH1 0x0 SWAP2 POP JUMPDEST POP SWAP6 SWAP5 POP POP POP POP POP JUMP JUMPDEST PUSH1 0x0 DUP1 PUSH1 0x0 PUSH2 0x29F6 PUSH2 0x29E9 DUP9 PUSH1 0x20 ADD MLOAD DUP9 PUSH2 0x1FD6 SWAP1 SWAP2 SWAP1 PUSH4 0xFFFFFFFF AND JUMP JUMPDEST PUSH2 0xD3B DUP10 PUSH1 0x80 ADD MLOAD PUSH2 0x1534 JUMP JUMPDEST SWAP1 POP PUSH1 0x0 PUSH2 0x2A08 DUP6 PUSH2 0xD3B DUP10 DUP6 PUSH2 0x1AEC JUMP JUMPDEST SWAP1 POP DUP1 ISZERO PUSH2 0x2A41 JUMPI PUSH2 0x2A2E PUSH2 0x1093 DUP3 PUSH2 0xE67 PUSH2 0x2A27 DUP13 PUSH1 0xA0 ADD MLOAD PUSH2 0x1534 JUMP JUMPDEST DUP11 SWAP1 PUSH2 0x2049 JUMP JUMPDEST SWAP3 POP PUSH2 0x2A3E DUP2 PUSH2 0xE67 DUP9 DUP6 PUSH2 0x2049 JUMP JUMPDEST SWAP4 POP JUMPDEST POP POP PUSH1 0x0 PUSH2 0x2A4D PUSH2 0x4076 JUMP JUMPDEST DUP9 MLOAD PUSH1 0x1 PUSH1 0x1 PUSH1 0xA0 SHL SUB AND PUSH1 0x0 SWAP1 DUP2 MSTORE PUSH1 0x20 SWAP2 DUP3 MSTORE PUSH1 0x40 DUP1 DUP3 KECCAK256 DUP11 MLOAD DUP4 MSTORE SWAP1 SWAP3 MSTORE KECCAK256 DUP1 SLOAD SWAP1 SWAP2 POP PUSH1 0x1 PUSH1 0x1 PUSH1 0x50 SHL SUB DUP2 AND SWAP1 PUSH1 0x1 PUSH1 0x50 SHL SWAP1 DIV PUSH1 0x9 SWAP1 DUP2 SIGNEXTEND SWAP1 SIGNEXTEND DUP4 DUP3 LT ISZERO PUSH2 0x2ACA JUMPI PUSH2 0x2ABD PUSH2 0x1F7B PUSH2 0x2AB6 PUSH4 0x5F5E100 PUSH2 0xE67 DUP14 PUSH1 0xC0 ADD MLOAD PUSH2 0x13B0 DUP9 DUP12 SUB PUSH2 0x1534 JUMP JUMPDEST DUP11 SWAP1 PUSH2 0x1FD6 JUMP JUMPDEST SWAP5 POP SWAP1 SWAP3 POP PUSH1 0x0 SWAP1 PUSH2 0x2AD0 JUMP JUMPDEST DUP4 DUP3 SUB SWAP2 POP JUMPDEST DUP3 SLOAD PUSH1 0x1 PUSH1 0x1 PUSH1 0x50 SHL SUB NOT AND PUSH1 0x1 PUSH1 0x1 PUSH1 0x50 SHL SUB DUP4 AND OR DUP4 SSTORE PUSH1 0x0 DUP6 SLT ISZERO PUSH2 0x2AF7 JUMPI PUSH1 0x0 DUP1 REVERT JUMPDEST DUP5 DUP2 SLT ISZERO PUSH2 0x2B6A JUMPI PUSH1 0x0 DUP1 DUP3 SGT PUSH2 0x2B0E JUMPI DUP6 PUSH2 0x2B12 JUMP JUMPDEST DUP2 DUP7 SUB JUMPDEST SWAP1 POP PUSH1 0x0 PUSH2 0x2B2E DUP13 PUSH1 0x0 ADD MLOAD DUP14 PUSH1 0x40 ADD MLOAD DUP5 DUP15 PUSH1 0x0 ADD MLOAD PUSH2 0x4083 JUMP JUMPDEST SWAP1 POP PUSH1 0x0 DUP4 SGT ISZERO PUSH2 0x2B5F JUMPI PUSH2 0x2B43 DUP4 DUP3 PUSH2 0x1FC0 JUMP JUMPDEST DUP6 SLOAD PUSH1 0x1 PUSH1 0x50 SHL PUSH1 0x1 PUSH1 0xA0 SHL SUB NOT AND DUP7 SSTORE SWAP7 POP PUSH1 0x0 SWAP3 POP PUSH2 0x2B63 JUMP JUMPDEST DUP1 SWAP7 POP JUMPDEST POP POP PUSH2 0x2BA9 JUMP JUMPDEST PUSH2 0x2B74 DUP2 DUP7 PUSH2 0x2001 JUMP JUMPDEST SWAP1 POP PUSH2 0x2B7F DUP2 PUSH2 0x41AB JUMP JUMPDEST DUP4 SLOAD PUSH1 0x9 SWAP2 SWAP1 SWAP2 SIGNEXTEND PUSH1 0x1 PUSH1 0x1 PUSH1 0x50 SHL SUB AND PUSH1 0x1 PUSH1 0x50 SHL MUL PUSH1 0x1 PUSH1 0x50 SHL PUSH1 0x1 PUSH1 0xA0 SHL SUB NOT SWAP1 SWAP2 AND OR DUP4 SSTORE JUMPDEST DUP9 PUSH1 0x0 ADD MLOAD DUP11 PUSH1 0x0 ADD MLOAD PUSH1 0x1 PUSH1 0x1 PUSH1 0xA0 SHL SUB AND PUSH32 0xF5B347A56F0B5140F05EEC05FF743978670A56685689FDC2C3193D71CFAC31A9 DUP4 DUP6 PUSH1 0x40 MLOAD PUSH2 0x2BED SWAP3 SWAP2 SWAP1 PUSH2 0x52A4 JUMP JUMPDEST PUSH1 0x40 MLOAD DUP1 SWAP2 SUB SWAP1 LOG3 POP POP POP SWAP6 POP SWAP6 SWAP4 POP POP POP POP JUMP JUMPDEST PUSH1 0x0 PUSH4 0x5F5E100 DUP4 PUSH1 0x40 ADD MLOAD EQ ISZERO PUSH2 0x2C1B JUMPI POP DUP1 PUSH2 0xB9F JUMP JUMPDEST PUSH2 0xB9C PUSH4 0x5F5E100 PUSH2 0xE67 DUP6 PUSH1 0x40 ADD MLOAD DUP6 PUSH2 0x2049 SWAP1 SWAP2 SWAP1 PUSH4 0xFFFFFFFF AND JUMP JUMPDEST PUSH1 0x0 DUP1 PUSH1 0x2 DUP7 PUSH1 0x60 ADD MLOAD PUSH1 0x5 DUP2 GT ISZERO PUSH2 0x2C4F JUMPI INVALID JUMPDEST EQ ISZERO PUSH2 0x2C67 JUMPI PUSH2 0x2C60 DUP7 DUP6 DUP6 PUSH2 0x41DB JUMP JUMPDEST SWAP1 POP PUSH2 0x2CC4 JUMP JUMPDEST PUSH1 0x0 PUSH2 0x2C72 DUP7 PUSH2 0x3010 JUMP JUMPDEST SWAP1 POP PUSH1 0x5 DUP8 PUSH1 0x60 ADD MLOAD PUSH1 0x5 DUP2 GT ISZERO PUSH2 0x2C86 JUMPI INVALID JUMPDEST EQ ISZERO PUSH2 0x2C9E JUMPI PUSH2 0x2C97 DUP2 DUP7 DUP7 PUSH2 0x4298 JUMP JUMPDEST SWAP2 POP PUSH2 0x2CC2 JUMP JUMPDEST PUSH1 0x1 DUP8 PUSH1 0x60 ADD MLOAD PUSH1 0x5 DUP2 GT ISZERO PUSH2 0x2CB0 JUMPI INVALID JUMPDEST EQ ISZERO PUSH2 0x9C JUMPI PUSH2 0x2C97 DUP8 DUP3 DUP8 DUP8 PUSH2 0x4349 JUMP JUMPDEST POP JUMPDEST PUSH2 0x2CD0 PUSH2 0x1014 DUP3 PUSH2 0x1534 JUMP JUMPDEST SWAP7 SWAP6 POP POP POP POP POP POP JUMP JUMPDEST PUSH1 0x0 DUP1 PUSH1 0x0 DUP1 PUSH2 0x2CE9 DUP9 PUSH2 0x225A JUMP JUMPDEST SWAP2 POP SWAP2 POP PUSH1 0x0 DUP1 DUP9 PUSH1 0x80 ADD MLOAD SLT ISZERO PUSH2 0x2D5E JUMPI PUSH1 0x4 DUP4 PUSH1 0x60 ADD MLOAD PUSH1 0x5 DUP2 GT ISZERO PUSH2 0x2D0D JUMPI INVALID JUMPDEST EQ ISZERO PUSH2 0x2D2A JUMPI PUSH2 0x2D23 PUSH2 0x1093 DUP10 PUSH1 0x80 ADD MLOAD PUSH2 0xF9C JUMP JUMPDEST SWAP1 POP PUSH2 0x2D5E JUMP JUMPDEST PUSH1 0x0 PUSH2 0x2D4B PUSH2 0x1014 DUP11 PUSH1 0x80 ADD MLOAD DUP13 PUSH2 0x160 ADD MLOAD PUSH2 0x1AEC SWAP1 SWAP2 SWAP1 PUSH4 0xFFFFFFFF AND JUMP JUMPDEST SWAP1 POP PUSH2 0x2D5A PUSH2 0x1093 DUP5 DUP4 PUSH2 0x4447 JUMP JUMPDEST SWAP2 POP POP JUMPDEST PUSH1 0x40 DUP9 ADD MLOAD PUSH1 0x0 SWAP1 ISZERO PUSH2 0x2E36 JUMPI PUSH1 0x0 PUSH2 0x2D77 DUP5 ADDRESS PUSH2 0x4483 JUMP JUMPDEST SWAP1 POP DUP11 PUSH1 0x0 ADD MLOAD PUSH1 0x1 PUSH1 0x1 PUSH1 0xA0 SHL SUB AND PUSH4 0x44F05108 DUP12 PUSH1 0x0 ADD MLOAD DUP13 PUSH1 0x20 ADD MLOAD DUP14 PUSH1 0x40 ADD MLOAD DUP15 PUSH1 0x60 ADD MLOAD DUP9 DUP16 DUP16 PUSH1 0x40 MLOAD DUP9 PUSH4 0xFFFFFFFF AND PUSH1 0xE0 SHL DUP2 MSTORE PUSH1 0x4 ADD PUSH2 0x2DC5 SWAP8 SWAP7 SWAP6 SWAP5 SWAP4 SWAP3 SWAP2 SWAP1 PUSH2 0x51B3 JUMP JUMPDEST PUSH1 0x20 PUSH1 0x40 MLOAD DUP1 DUP4 SUB DUP2 PUSH1 0x0 DUP8 DUP1 EXTCODESIZE ISZERO DUP1 ISZERO PUSH2 0x2DDF JUMPI PUSH1 0x0 DUP1 REVERT JUMPDEST POP GAS CALL ISZERO DUP1 ISZERO PUSH2 0x2DF3 JUMPI RETURNDATASIZE PUSH1 0x0 DUP1 RETURNDATACOPY RETURNDATASIZE PUSH1 0x0 REVERT JUMPDEST POP POP POP POP PUSH1 0x40 MLOAD RETURNDATASIZE PUSH1 0x1F NOT PUSH1 0x1F DUP3 ADD AND DUP3 ADD DUP1 PUSH1 0x40 MSTORE POP DUP2 ADD SWAP1 PUSH2 0x2E17 SWAP2 SWAP1 PUSH2 0x510E JUMP JUMPDEST SWAP6 POP PUSH1 0x0 PUSH2 0x2E25 DUP6 ADDRESS PUSH2 0x4483 JUMP JUMPDEST SWAP1 POP PUSH2 0x2E31 DUP2 DUP4 PUSH2 0x1AD7 JUMP JUMPDEST SWAP3 POP POP POP JUMPDEST DUP2 DUP2 LT ISZERO PUSH2 0x2ED1 JUMPI DUP1 DUP3 SUB PUSH1 0x3 DUP5 PUSH1 0x60 ADD MLOAD PUSH1 0x5 DUP2 GT ISZERO PUSH2 0x2E53 JUMPI INVALID JUMPDEST EQ ISZERO PUSH2 0x2E91 JUMPI CALLVALUE DUP2 GT ISZERO PUSH2 0x2E79 JUMPI PUSH1 0x40 MLOAD PUSH3 0x461BCD PUSH1 0xE5 SHL DUP2 MSTORE PUSH1 0x4 ADD PUSH2 0x2CF SWAP1 PUSH2 0x5376 JUMP JUMPDEST PUSH2 0x2E89 DUP11 PUSH1 0x0 ADD MLOAD DUP3 CALLVALUE SUB PUSH2 0x3023 JUMP JUMPDEST DUP3 SWAP2 POP PUSH2 0x2ECF JUMP JUMPDEST PUSH1 0x0 PUSH2 0x2EB6 DUP12 PUSH1 0x0 ADD MLOAD DUP14 PUSH1 0x40 ADD MLOAD PUSH2 0xFFFF AND PUSH2 0x2EAD DUP6 PUSH2 0x1534 JUMP JUMPDEST DUP9 SWAP3 SWAP2 SWAP1 PUSH2 0x22B3 JUMP JUMPDEST SWAP1 POP PUSH2 0x2ECB PUSH2 0x2EC4 DUP3 PUSH2 0x1A82 JUMP JUMPDEST DUP5 SWAP1 PUSH2 0x331C JUMP JUMPDEST SWAP3 POP POP JUMPDEST POP JUMPDEST DUP2 DUP2 LT ISZERO PUSH2 0x2EF1 JUMPI PUSH1 0x40 MLOAD PUSH3 0x461BCD PUSH1 0xE5 SHL DUP2 MSTORE PUSH1 0x4 ADD PUSH2 0x2CF SWAP1 PUSH2 0x5376 JUMP JUMPDEST PUSH1 0x0 PUSH1 0x4 DUP6 PUSH1 0x60 ADD MLOAD PUSH1 0x5 DUP2 GT ISZERO PUSH2 0x2F05 JUMPI INVALID JUMPDEST EQ ISZERO PUSH2 0x2F1B JUMPI PUSH2 0x2F14 DUP3 PUSH2 0x1534 JUMP JUMPDEST SWAP1 POP PUSH2 0x2F35 JUMP JUMPDEST DUP2 ISZERO PUSH2 0x2F35 JUMPI PUSH1 0x40 DUP12 ADD MLOAD PUSH2 0x2F32 SWAP1 DUP7 SWAP1 DUP5 PUSH2 0x235B JUMP JUMPDEST SWAP1 POP JUMPDEST PUSH2 0x2F3F DUP6 DUP3 PUSH2 0x2452 JUMP JUMPDEST SWAP7 POP POP POP POP POP POP SWAP5 POP SWAP5 SWAP3 POP POP POP JUMP JUMPDEST PUSH2 0x140 DUP2 ADD MLOAD MLOAD PUSH1 0x0 SWAP1 PUSH2 0xFFFF AND ISZERO ISZERO DUP1 PUSH2 0xFAA JUMPI POP POP PUSH2 0x140 ADD MLOAD PUSH1 0x20 ADD MLOAD PUSH2 0xFFFF AND ISZERO ISZERO SWAP1 JUMP JUMPDEST PUSH1 0x0 PUSH4 0xFFFFFFFF DUP3 GT ISZERO PUSH2 0x154A JUMPI PUSH1 0x0 DUP1 REVERT JUMPDEST PUSH1 0x0 PUSH3 0xF4240 DUP3 PUSH1 0x1A DUP2 GT ISZERO PUSH2 0x2F9D JUMPI INVALID JUMPDEST ADD SWAP3 SWAP2 POP POP JUMP JUMPDEST PUSH1 0x0 DUP1 PUSH1 0x0 DUP1 PUSH1 0x0 DUP1 PUSH2 0x2FB5 PUSH2 0x452D JUMP JUMPDEST PUSH1 0x1 PUSH1 0x1 PUSH1 0xA0 SHL SUB SWAP1 SWAP8 AND PUSH1 0x0 SWAP1 DUP2 MSTORE PUSH1 0x20 SWAP8 SWAP1 SWAP8 MSTORE POP POP PUSH1 0x40 SWAP1 SWAP5 KECCAK256 SLOAD PUSH2 0xFFFF DUP2 AND SWAP6 PUSH4 0xFFFFFFFF PUSH3 0x10000 DUP4 DIV DUP2 AND SWAP7 POP PUSH7 0x1000000000000 DUP4 DIV AND SWAP5 POP PUSH1 0xFF PUSH1 0x1 PUSH1 0x50 SHL DUP4 DIV AND SWAP4 POP PUSH1 0x1 PUSH1 0x58 SHL SWAP1 SWAP2 DIV PUSH1 0xD8 SHL SWAP2 POP JUMP JUMPDEST PUSH2 0x3018 PUSH2 0x4D7E JUMP JUMPDEST PUSH2 0xFAA DUP3 PUSH1 0x1 PUSH2 0x30E1 JUMP JUMPDEST PUSH1 0x40 MLOAD PUSH1 0x1 PUSH1 0x1 PUSH1 0xA0 SHL SUB DUP4 AND SWAP1 DUP3 ISZERO PUSH2 0x8FC MUL SWAP1 DUP4 SWAP1 PUSH1 0x0 DUP2 DUP2 DUP2 DUP6 DUP9 DUP9 CALL SWAP4 POP POP POP POP ISZERO DUP1 ISZERO PUSH2 0xF23 JUMPI RETURNDATASIZE PUSH1 0x0 DUP1 RETURNDATACOPY RETURNDATASIZE PUSH1 0x0 REVERT JUMPDEST DUP4 PUSH1 0x1 PUSH1 0x1 PUSH1 0xA0 SHL SUB AND PUSH4 0x23B872DD DUP5 DUP5 DUP5 PUSH1 0x40 MLOAD DUP5 PUSH4 0xFFFFFFFF AND PUSH1 0xE0 SHL DUP2 MSTORE PUSH1 0x4 ADD DUP1 DUP5 PUSH1 0x1 PUSH1 0x1 PUSH1 0xA0 SHL SUB AND DUP2 MSTORE PUSH1 0x20 ADD DUP4 PUSH1 0x1 PUSH1 0x1 PUSH1 0xA0 SHL SUB AND DUP2 MSTORE PUSH1 0x20 ADD DUP3 DUP2 MSTORE PUSH1 0x20 ADD SWAP4 POP POP POP POP PUSH1 0x0 PUSH1 0x40 MLOAD DUP1 DUP4 SUB DUP2 PUSH1 0x0 DUP8 DUP1 EXTCODESIZE ISZERO DUP1 ISZERO PUSH2 0x30C1 JUMPI PUSH1 0x0 DUP1 REVERT JUMPDEST POP GAS CALL ISZERO DUP1 ISZERO PUSH2 0x30D5 JUMPI RETURNDATASIZE PUSH1 0x0 DUP1 RETURNDATACOPY RETURNDATASIZE PUSH1 0x0 REVERT JUMPDEST POP POP POP POP PUSH2 0x1590 PUSH2 0x453A JUMP JUMPDEST PUSH2 0x30E9 PUSH2 0x4D7E JUMP JUMPDEST PUSH1 0x0 PUSH2 0x30F3 PUSH2 0x45A7 JUMP JUMPDEST PUSH1 0x0 DUP6 DUP2 MSTORE PUSH1 0x20 DUP3 DUP2 MSTORE PUSH1 0x40 DUP1 DUP4 KECCAK256 DUP8 ISZERO ISZERO DUP5 MSTORE DUP3 MSTORE SWAP2 DUP3 SWAP1 KECCAK256 DUP3 MLOAD PUSH1 0xA0 DUP2 ADD DUP5 MSTORE DUP2 SLOAD PUSH1 0x1 PUSH1 0x1 PUSH1 0xA0 SHL SUB DUP2 AND DUP3 MSTORE PUSH1 0xFF PUSH1 0x1 PUSH1 0xA0 SHL DUP3 DIV DUP2 AND ISZERO ISZERO SWAP5 DUP4 ADD SWAP5 SWAP1 SWAP5 MSTORE PUSH1 0x1 PUSH1 0xB0 SHL DUP2 DIV DUP5 AND PUSH1 0xA EXP SWAP5 DUP3 ADD SWAP5 SWAP1 SWAP5 MSTORE SWAP4 SWAP5 POP SWAP3 SWAP2 PUSH1 0x60 DUP4 ADD SWAP2 PUSH1 0x1 PUSH1 0xA8 SHL SWAP1 SWAP2 DIV AND PUSH1 0x5 DUP2 GT ISZERO PUSH2 0x3168 JUMPI INVALID JUMPDEST DUP2 MSTORE SWAP2 SLOAD PUSH1 0x1 PUSH1 0xB8 SHL SWAP1 DIV PUSH9 0xFFFFFFFFFFFFFFFFFF AND PUSH1 0x20 SWAP1 SWAP3 ADD SWAP2 SWAP1 SWAP2 MSTORE SWAP5 SWAP4 POP POP POP POP JUMP JUMPDEST PUSH1 0x0 DUP2 PUSH2 0x319E JUMPI POP PUSH1 0x0 PUSH2 0xB9F JUMP JUMPDEST PUSH1 0x0 DUP3 SGT PUSH2 0x31AB JUMPI PUSH1 0x0 DUP1 REVERT JUMPDEST PUSH1 0x0 PUSH2 0x31B6 DUP5 PUSH2 0x3010 JUMP JUMPDEST SWAP1 POP PUSH1 0x0 PUSH2 0x31C7 DUP3 PUSH1 0x0 ADD MLOAD PUSH2 0x45B4 JUMP JUMPDEST SWAP1 POP PUSH1 0x2 DUP2 SDIV PUSH12 0x33B2E3C9FD0803CE8000000 PUSH1 0x1 PUSH1 0x1 PUSH1 0xFF SHL SUB DUP3 SWAP1 SUB SDIV DUP6 SGT ISZERO PUSH2 0x31F2 JUMPI PUSH1 0x0 DUP1 REVERT JUMPDEST DUP2 DUP2 PUSH12 0x33B2E3C9FD0803CE8000000 DUP8 MUL ADD DUP2 PUSH2 0x320B JUMPI INVALID JUMPDEST SDIV SWAP7 SWAP6 POP POP POP POP POP POP JUMP JUMPDEST PUSH1 0x0 DUP1 PUSH2 0x3221 PUSH2 0x463F JUMP JUMPDEST PUSH1 0x1 PUSH1 0x1 PUSH1 0xA0 SHL SUB DUP7 AND PUSH1 0x0 SWAP1 DUP2 MSTORE PUSH1 0x20 SWAP2 DUP3 MSTORE PUSH1 0x40 DUP1 DUP3 KECCAK256 PUSH2 0xFFFF DUP9 AND DUP4 MSTORE SWAP1 SWAP3 MSTORE KECCAK256 DUP1 SLOAD SWAP1 SWAP2 POP PUSH2 0x3264 SWAP1 PUSH1 0x1 PUSH1 0x50 SHL SWAP1 DIV PUSH1 0x1 PUSH1 0x1 PUSH1 0x50 SHL SUB AND DUP5 PUSH2 0x2001 JUMP JUMPDEST SWAP2 POP PUSH1 0x0 DUP4 SLT ISZERO PUSH2 0x3299 JUMPI DUP1 SLOAD PUSH1 0x1 PUSH1 0x1 PUSH1 0x50 SHL SUB AND DUP3 SGT ISZERO PUSH2 0x3299 JUMPI PUSH1 0x40 MLOAD PUSH3 0x461BCD PUSH1 0xE5 SHL DUP2 MSTORE PUSH1 0x4 ADD PUSH2 0x2CF SWAP1 PUSH2 0x5426 JUMP JUMPDEST PUSH2 0x32A5 PUSH2 0x1098 DUP4 PUSH2 0x1A82 JUMP JUMPDEST DUP2 SLOAD PUSH1 0x1 PUSH1 0x1 PUSH1 0x50 SHL SUB SWAP2 SWAP1 SWAP2 AND PUSH1 0x1 PUSH1 0x50 SHL MUL PUSH1 0x1 PUSH1 0x50 SHL PUSH1 0x1 PUSH1 0xA0 SHL SUB NOT SWAP1 SWAP2 AND OR DUP2 SSTORE PUSH1 0x40 MLOAD PUSH2 0xFFFF DUP6 AND SWAP1 PUSH1 0x1 PUSH1 0x1 PUSH1 0xA0 SHL SUB DUP8 AND SWAP1 PUSH32 0x20478EF460E49D010960D4F3FFF35D8DAE385443ABFAC09035D6A2CCBCD834C4 SWAP1 PUSH2 0x330C SWAP1 DUP7 SWAP1 PUSH2 0x529B JUMP JUMPDEST PUSH1 0x40 MLOAD DUP1 SWAP2 SUB SWAP1 LOG3 POP SWAP4 SWAP3 POP POP POP JUMP JUMPDEST PUSH1 0x0 DUP3 DUP3 ADD DUP4 DUP2 LT ISZERO PUSH2 0xB9C JUMPI PUSH1 0x0 DUP1 REVERT JUMPDEST PUSH1 0x0 DUP1 PUSH2 0x3376 DUP9 PUSH1 0x40 MLOAD DUP1 PUSH1 0xA0 ADD PUSH1 0x40 MSTORE DUP1 DUP11 PUSH1 0x1 PUSH1 0x1 PUSH1 0xA0 SHL SUB AND DUP2 MSTORE PUSH1 0x20 ADD DUP11 PUSH1 0x1 PUSH1 0x1 PUSH1 0xA0 SHL SUB AND DUP2 MSTORE PUSH1 0x20 ADD DUP10 DUP2 MSTORE PUSH1 0x20 ADD DUP9 DUP2 MSTORE PUSH1 0x20 ADD PUSH1 0x0 DUP2 MSTORE POP DUP7 DUP7 PUSH2 0x2CDA JUMP JUMPDEST SWAP1 SWAP10 SWAP1 SWAP9 POP SWAP7 POP POP POP POP POP POP POP JUMP JUMPDEST PUSH1 0x0 DUP1 PUSH2 0xB9F PUSH1 0x14 PUSH2 0x2F8B JUMP JUMPDEST PUSH1 0x0 DUP1 PUSH1 0x0 DUP1 PUSH1 0x0 PUSH2 0x33A3 DUP7 PUSH2 0x464C JUMP JUMPDEST SWAP1 SWAP3 POP SWAP1 POP PUSH1 0x0 PUSH1 0x1 PUSH1 0x1 PUSH1 0xA0 SHL SUB DUP4 AND PUSH2 0x33C8 JUMPI POP PUSH1 0x0 SWAP1 POP PUSH5 0x2540BE400 PUSH2 0x3448 JUMP JUMPDEST DUP3 PUSH1 0x1 PUSH1 0x1 PUSH1 0xA0 SHL SUB AND PUSH4 0xB2FFFB04 PUSH1 0x40 MLOAD DUP2 PUSH4 0xFFFFFFFF AND PUSH1 0xE0 SHL DUP2 MSTORE PUSH1 0x4 ADD PUSH1 0x20 PUSH1 0x40 MLOAD DUP1 DUP4 SUB DUP2 DUP7 DUP1 EXTCODESIZE ISZERO DUP1 ISZERO PUSH2 0x3401 JUMPI PUSH1 0x0 DUP1 REVERT JUMPDEST POP GAS STATICCALL ISZERO DUP1 ISZERO PUSH2 0x3415 JUMPI RETURNDATASIZE PUSH1 0x0 DUP1 RETURNDATACOPY RETURNDATASIZE PUSH1 0x0 REVERT JUMPDEST POP POP POP POP PUSH1 0x40 MLOAD RETURNDATASIZE PUSH1 0x1F NOT PUSH1 0x1F DUP3 ADD AND DUP3 ADD DUP1 PUSH1 0x40 MSTORE POP DUP2 ADD SWAP1 PUSH2 0x3439 SWAP2 SWAP1 PUSH2 0x510E JUMP JUMPDEST SWAP1 POP PUSH1 0x0 DUP2 SGT PUSH2 0x3448 JUMPI PUSH1 0x0 DUP1 REVERT JUMPDEST SWAP7 SWAP2 SWAP6 POP SWAP4 POP SWAP2 POP POP JUMP JUMPDEST PUSH1 0x0 DUP1 PUSH2 0x3463 DUP8 PUSH2 0xFFFF AND PUSH2 0x3010 JUMP JUMPDEST SWAP1 POP DUP1 PUSH1 0x40 ADD MLOAD PUSH1 0x0 EQ ISZERO PUSH2 0x3482 JUMPI PUSH2 0x347F DUP8 PUSH2 0xFFFF AND PUSH2 0x1986 JUMP JUMPDEST SWAP1 POP JUMPDEST PUSH1 0x40 MLOAD PUSH4 0xE9377111 PUSH1 0xE0 SHL DUP2 MSTORE PUSH2 0x2447 SWAP1 PUSH1 0x1 PUSH1 0x1 PUSH1 0xA0 SHL SUB DUP9 AND SWAP1 PUSH4 0xE9377111 SWAP1 PUSH2 0x34B6 SWAP1 DUP10 SWAP1 DUP10 SWAP1 DUP10 SWAP1 PUSH1 0x4 ADD PUSH2 0x5241 JUMP JUMPDEST PUSH1 0x20 PUSH1 0x40 MLOAD DUP1 DUP4 SUB DUP2 DUP7 DUP1 EXTCODESIZE ISZERO DUP1 ISZERO PUSH2 0x34CE JUMPI PUSH1 0x0 DUP1 REVERT JUMPDEST POP GAS STATICCALL ISZERO DUP1 ISZERO PUSH2 0x34E2 JUMPI RETURNDATASIZE PUSH1 0x0 DUP1 RETURNDATACOPY RETURNDATASIZE PUSH1 0x0 REVERT JUMPDEST POP POP POP POP PUSH1 0x40 MLOAD RETURNDATASIZE PUSH1 0x1F NOT PUSH1 0x1F DUP3 ADD AND DUP3 ADD DUP1 PUSH1 0x40 MSTORE POP DUP2 ADD SWAP1 PUSH2 0x3506 SWAP2 SWAP1 PUSH2 0x510E JUMP JUMPDEST DUP3 SWAP1 PUSH2 0x2452 JUMP JUMPDEST PUSH2 0x3515 PUSH2 0x4DD7 JUMP JUMPDEST PUSH1 0x0 PUSH2 0x351F PUSH2 0x4683 JUMP JUMPDEST PUSH1 0x0 DUP5 DUP2 MSTORE PUSH1 0x20 DUP3 SWAP1 MSTORE PUSH1 0x40 DUP2 KECCAK256 SWAP2 SWAP3 POP DUP1 PUSH1 0x1 DUP7 EQ ISZERO PUSH2 0x354C JUMPI POP PUSH8 0xDE0B6B3A7640000 SWAP1 POP DUP1 PUSH2 0x3622 JUMP JUMPDEST DUP3 SLOAD PUSH1 0x40 DUP1 MLOAD PUSH4 0x3FABE5A3 PUSH1 0xE2 SHL DUP2 MSTORE SWAP1 MLOAD PUSH1 0x1 PUSH1 0x1 PUSH1 0xA0 SHL SUB SWAP1 SWAP3 AND SWAP2 PUSH4 0xFEAF968C SWAP2 PUSH1 0x4 DUP1 DUP3 ADD SWAP3 PUSH1 0xA0 SWAP3 SWAP1 SWAP2 SWAP1 DUP3 SWAP1 SUB ADD DUP2 DUP7 DUP1 EXTCODESIZE ISZERO DUP1 ISZERO PUSH2 0x3590 JUMPI PUSH1 0x0 DUP1 REVERT JUMPDEST POP GAS STATICCALL ISZERO DUP1 ISZERO PUSH2 0x35A4 JUMPI RETURNDATASIZE PUSH1 0x0 DUP1 RETURNDATACOPY RETURNDATASIZE PUSH1 0x0 REVERT JUMPDEST POP POP POP POP PUSH1 0x40 MLOAD RETURNDATASIZE PUSH1 0x1F NOT PUSH1 0x1F DUP3 ADD AND DUP3 ADD DUP1 PUSH1 0x40 MSTORE POP DUP2 ADD SWAP1 PUSH2 0x35C8 SWAP2 SWAP1 PUSH2 0x5126 JUMP JUMPDEST POP SWAP2 SWAP4 POP POP PUSH1 0x0 DUP4 SGT SWAP2 POP PUSH2 0x35F1 SWAP1 POP JUMPI PUSH1 0x40 MLOAD PUSH3 0x461BCD PUSH1 0xE5 SHL DUP2 MSTORE PUSH1 0x4 ADD PUSH2 0x2CF SWAP1 PUSH2 0x5538 JUMP JUMPDEST DUP3 SLOAD PUSH1 0xFF PUSH1 0x1 PUSH1 0xA0 SHL DUP3 DIV DUP2 AND PUSH1 0xA EXP SWAP4 POP PUSH1 0x1 PUSH1 0xA8 SHL SWAP1 SWAP2 DIV AND ISZERO PUSH2 0x3622 JUMPI PUSH2 0x361F DUP2 PUSH2 0xE67 DUP5 DUP1 PUSH2 0x2049 JUMP JUMPDEST SWAP1 POP JUMPDEST PUSH1 0x40 DUP1 MLOAD PUSH1 0xA0 DUP2 ADD DUP3 MSTORE SWAP3 DUP4 MSTORE PUSH1 0x20 DUP4 ADD SWAP2 SWAP1 SWAP2 MSTORE SWAP2 SLOAD PUSH1 0xFF PUSH1 0x1 PUSH1 0xB0 SHL DUP3 DIV DUP2 AND SWAP4 DUP4 ADD SWAP4 SWAP1 SWAP4 MSTORE PUSH1 0x1 PUSH1 0xB8 SHL DUP2 DIV DUP4 AND PUSH1 0x60 DUP4 ADD MSTORE PUSH1 0x1 PUSH1 0xC0 SHL SWAP1 DIV SWAP1 SWAP2 AND PUSH1 0x80 DUP3 ADD MSTORE SWAP2 POP POP SWAP2 SWAP1 POP JUMP JUMPDEST PUSH1 0x0 DUP1 PUSH2 0x367B PUSH2 0x4690 JUMP JUMPDEST PUSH1 0x1 PUSH1 0x1 PUSH1 0xA0 SHL SUB DUP7 AND PUSH1 0x0 SWAP1 DUP2 MSTORE PUSH1 0x20 SWAP2 DUP3 MSTORE PUSH1 0x40 DUP1 DUP3 KECCAK256 DUP8 DUP4 MSTORE DUP4 MSTORE DUP1 DUP3 KECCAK256 PUSH2 0xFFFF DUP11 AND DUP4 MSTORE SWAP1 SWAP3 MSTORE SWAP1 DUP2 KECCAK256 DUP1 SLOAD SWAP1 SWAP3 POP PUSH1 0x1 PUSH1 0x1 PUSH1 0x50 SHL SUB DUP1 DUP3 AND SWAP3 PUSH1 0x1 PUSH1 0x50 SHL SWAP1 SWAP3 DIV AND SWAP1 PUSH2 0x36D5 PUSH2 0x2442 DUP4 PUSH2 0xA24 DUP10 DUP8 PUSH2 0x1A91 JUMP JUMPDEST SWAP1 POP PUSH1 0x0 PUSH2 0x36E6 DUP11 PUSH2 0xFFFF AND PUSH2 0x350D JUMP JUMPDEST SWAP1 POP PUSH1 0x0 PUSH2 0x36F4 DUP13 DUP4 PUSH2 0x469D JUMP JUMPDEST SWAP1 POP PUSH2 0x3711 DUP2 PUSH2 0xE67 DUP15 PUSH1 0x0 ADD MLOAD DUP7 PUSH2 0x2049 SWAP1 SWAP2 SWAP1 PUSH4 0xFFFFFFFF AND JUMP JUMPDEST SWAP13 SWAP12 POP POP POP POP POP POP POP POP POP POP POP POP JUMP JUMPDEST PUSH1 0x0 DUP1 PUSH1 0x0 DUP1 PUSH1 0x0 PUSH2 0x3732 DUP7 PUSH2 0x464C JUMP JUMPDEST SWAP1 SWAP3 POP SWAP1 POP PUSH1 0x0 PUSH1 0x1 PUSH1 0x1 PUSH1 0xA0 SHL SUB DUP4 AND PUSH2 0x3757 JUMPI POP PUSH1 0x0 SWAP1 POP PUSH5 0x2540BE400 PUSH2 0x3448 JUMP JUMPDEST DUP3 PUSH1 0x1 PUSH1 0x1 PUSH1 0xA0 SHL SUB AND PUSH4 0x1EE10833 PUSH1 0x40 MLOAD DUP2 PUSH4 0xFFFFFFFF AND PUSH1 0xE0 SHL DUP2 MSTORE PUSH1 0x4 ADD PUSH1 0x20 PUSH1 0x40 MLOAD DUP1 DUP4 SUB DUP2 PUSH1 0x0 DUP8 DUP1 EXTCODESIZE ISZERO DUP1 ISZERO PUSH2 0x3792 JUMPI PUSH1 0x0 DUP1 REVERT JUMPDEST POP GAS CALL ISZERO DUP1 ISZERO PUSH2 0x3415 JUMPI RETURNDATASIZE PUSH1 0x0 DUP1 RETURNDATACOPY RETURNDATASIZE PUSH1 0x0 REVERT JUMPDEST PUSH1 0x0 DUP1 DUP3 SLT ISZERO PUSH2 0x37C0 JUMPI PUSH2 0x37B9 DUP3 PUSH2 0xF9C JUMP JUMPDEST SWAP1 POP PUSH2 0xFAD JUMP JUMPDEST POP DUP1 PUSH2 0xFAD JUMP JUMPDEST PUSH1 0x0 DUP2 PUSH2 0x37D6 JUMPI POP PUSH1 0x0 PUSH2 0xB9F JUMP JUMPDEST PUSH1 0x0 PUSH2 0x37E1 DUP5 PUSH2 0x45B4 JUMP JUMPDEST SWAP1 POP PUSH1 0x0 PUSH2 0x37EE DUP5 PUSH2 0x37A6 JUMP JUMPDEST SWAP1 POP DUP2 PUSH12 0x19D971E4FE8401E74000001 PUSH1 0x1 PUSH1 0xFF SHL SUB DUP2 PUSH2 0x380B JUMPI INVALID JUMPDEST SDIV DUP2 SGT ISZERO PUSH2 0x3818 JUMPI PUSH1 0x0 DUP1 REVERT JUMPDEST PUSH12 0x33B2E3C9FD0803CE8000000 PUSH12 0x19D971E4FE8401E74000000 DUP4 DUP4 MUL ADD SDIV PUSH1 0x0 DUP6 SGT PUSH2 0x384D JUMPI PUSH2 0x3848 DUP2 PUSH2 0xF9C JUMP JUMPDEST PUSH2 0x2CD0 JUMP JUMPDEST SWAP6 SWAP5 POP POP POP POP POP JUMP JUMPDEST PUSH1 0x0 DUP1 DUP1 DUP1 PUSH1 0x5 DUP8 PUSH1 0x60 ADD MLOAD PUSH1 0x5 DUP2 GT ISZERO PUSH2 0x386D JUMPI INVALID JUMPDEST EQ PUSH2 0x387F JUMPI PUSH4 0x70A08231 PUSH1 0xE0 SHL PUSH2 0x3888 JUMP JUMPDEST PUSH4 0xED1279F PUSH1 0xE1 SHL JUMPDEST SWAP1 POP DUP7 PUSH1 0x20 ADD MLOAD ISZERO PUSH2 0x38A4 JUMPI DUP7 MLOAD PUSH2 0x38A1 SWAP1 ADDRESS DUP4 PUSH2 0x39B6 JUMP JUMPDEST SWAP3 POP JUMPDEST DUP7 MLOAD PUSH2 0x38B1 SWAP1 DUP8 DUP8 PUSH2 0x46C2 JUMP JUMPDEST DUP7 PUSH1 0x20 ADD MLOAD DUP1 PUSH2 0x38C5 JUMPI POP PUSH1 0x0 DUP8 PUSH1 0x80 ADD MLOAD GT JUMPDEST ISZERO PUSH2 0x38DA JUMPI DUP7 MLOAD PUSH2 0x38D7 SWAP1 ADDRESS DUP4 PUSH2 0x39B6 JUMP JUMPDEST SWAP2 POP JUMPDEST PUSH1 0x80 DUP8 ADD MLOAD ISZERO PUSH2 0x3915 JUMPI PUSH1 0x0 PUSH2 0x38F8 DUP9 PUSH2 0x38F3 DUP6 PUSH2 0x1534 JUMP JUMPDEST PUSH2 0x2452 JUMP JUMPDEST SWAP1 POP PUSH2 0x3907 DUP9 PUSH1 0x80 ADD MLOAD PUSH2 0x1534 JUMP JUMPDEST DUP2 SGT ISZERO PUSH2 0x3913 JUMPI PUSH1 0x0 DUP1 REVERT JUMPDEST POP JUMPDEST DUP7 PUSH1 0x20 ADD MLOAD ISZERO PUSH2 0x3936 JUMPI PUSH2 0x392C PUSH2 0x2442 DUP4 DUP6 PUSH2 0x3C28 JUMP JUMPDEST SWAP4 POP POP POP POP PUSH2 0x14B6 JUMP JUMPDEST PUSH2 0x392C DUP6 PUSH2 0x1534 JUMP JUMPDEST DUP3 PUSH1 0x1 PUSH1 0x1 PUSH1 0xA0 SHL SUB AND PUSH4 0xA9059CBB DUP4 DUP4 PUSH1 0x40 MLOAD DUP4 PUSH4 0xFFFFFFFF AND PUSH1 0xE0 SHL DUP2 MSTORE PUSH1 0x4 ADD DUP1 DUP4 PUSH1 0x1 PUSH1 0x1 PUSH1 0xA0 SHL SUB AND DUP2 MSTORE PUSH1 0x20 ADD DUP3 DUP2 MSTORE PUSH1 0x20 ADD SWAP3 POP POP POP PUSH1 0x0 PUSH1 0x40 MLOAD DUP1 DUP4 SUB DUP2 PUSH1 0x0 DUP8 DUP1 EXTCODESIZE ISZERO DUP1 ISZERO PUSH2 0x3996 JUMPI PUSH1 0x0 DUP1 REVERT JUMPDEST POP GAS CALL ISZERO DUP1 ISZERO PUSH2 0x39AA JUMPI RETURNDATASIZE PUSH1 0x0 DUP1 RETURNDATACOPY RETURNDATASIZE PUSH1 0x0 REVERT JUMPDEST POP POP POP POP PUSH2 0xF23 PUSH2 0x453A JUMP JUMPDEST PUSH1 0x40 DUP1 MLOAD PUSH1 0x1 PUSH1 0x1 PUSH1 0xA0 SHL SUB DUP5 DUP2 AND PUSH1 0x24 DUP1 DUP5 ADD SWAP2 SWAP1 SWAP2 MSTORE DUP4 MLOAD DUP1 DUP5 SUB SWAP1 SWAP2 ADD DUP2 MSTORE PUSH1 0x44 SWAP1 SWAP3 ADD DUP4 MSTORE PUSH1 0x20 DUP3 ADD DUP1 MLOAD PUSH1 0x1 PUSH1 0x1 PUSH1 0xE0 SHL SUB AND PUSH1 0x1 PUSH1 0x1 PUSH1 0xE0 SHL SUB NOT DUP7 AND OR DUP2 MSTORE SWAP3 MLOAD DUP3 MLOAD PUSH1 0x0 SWAP5 DUP6 SWAP5 DUP6 SWAP5 DUP11 AND SWAP4 SWAP1 SWAP3 SWAP1 SWAP2 DUP3 SWAP2 DUP1 DUP4 DUP4 JUMPDEST PUSH1 0x20 DUP4 LT PUSH2 0x3A33 JUMPI DUP1 MLOAD DUP3 MSTORE PUSH1 0x1F NOT SWAP1 SWAP3 ADD SWAP2 PUSH1 0x20 SWAP2 DUP3 ADD SWAP2 ADD PUSH2 0x3A14 JUMP JUMPDEST PUSH1 0x1 DUP4 PUSH1 0x20 SUB PUSH2 0x100 EXP SUB DUP1 NOT DUP3 MLOAD AND DUP2 DUP5 MLOAD AND DUP1 DUP3 OR DUP6 MSTORE POP POP POP POP POP POP SWAP1 POP ADD SWAP2 POP POP PUSH1 0x0 PUSH1 0x40 MLOAD DUP1 DUP4 SUB DUP2 DUP6 GAS STATICCALL SWAP2 POP POP RETURNDATASIZE DUP1 PUSH1 0x0 DUP2 EQ PUSH2 0x3A93 JUMPI PUSH1 0x40 MLOAD SWAP2 POP PUSH1 0x1F NOT PUSH1 0x3F RETURNDATASIZE ADD AND DUP3 ADD PUSH1 0x40 MSTORE RETURNDATASIZE DUP3 MSTORE RETURNDATASIZE PUSH1 0x0 PUSH1 0x20 DUP5 ADD RETURNDATACOPY PUSH2 0x3A98 JUMP JUMPDEST PUSH1 0x60 SWAP2 POP JUMPDEST POP SWAP2 POP SWAP2 POP DUP2 PUSH2 0x3AA7 JUMPI PUSH1 0x0 DUP1 REVERT JUMPDEST DUP1 DUP1 PUSH1 0x20 ADD SWAP1 MLOAD PUSH1 0x20 DUP2 LT ISZERO PUSH2 0x3ABC JUMPI PUSH1 0x0 DUP1 REVERT JUMPDEST POP MLOAD SWAP7 SWAP6 POP POP POP POP POP POP JUMP JUMPDEST PUSH2 0x3AD0 PUSH2 0x471A JUMP JUMPDEST SLOAD DUP3 MLOAD PUSH1 0x40 MLOAD PUSH4 0xE8EDA9DF PUSH1 0xE0 SHL DUP2 MSTORE PUSH1 0x1 PUSH1 0x1 PUSH1 0xA0 SHL SUB SWAP1 SWAP3 AND SWAP2 PUSH4 0xE8EDA9DF SWAP2 PUSH2 0x3B05 SWAP2 DUP6 SWAP1 ADDRESS SWAP1 PUSH1 0x0 SWAP1 PUSH1 0x4 ADD PUSH2 0x5214 JUMP JUMPDEST PUSH1 0x0 PUSH1 0x40 MLOAD DUP1 DUP4 SUB DUP2 PUSH1 0x0 DUP8 DUP1 EXTCODESIZE ISZERO DUP1 ISZERO PUSH2 0x3B1F JUMPI PUSH1 0x0 DUP1 REVERT JUMPDEST POP GAS CALL ISZERO DUP1 ISZERO PUSH2 0x1B85 JUMPI RETURNDATASIZE PUSH1 0x0 DUP1 RETURNDATACOPY RETURNDATASIZE PUSH1 0x0 REVERT JUMPDEST DUP2 MLOAD PUSH1 0x40 MLOAD PUSH4 0x140E25AD PUSH1 0xE3 SHL DUP2 MSTORE PUSH1 0x0 SWAP2 PUSH1 0x1 PUSH1 0x1 PUSH1 0xA0 SHL SUB AND SWAP1 PUSH4 0xA0712D68 SWAP1 PUSH2 0x3B63 SWAP1 DUP6 SWAP1 PUSH1 0x4 ADD PUSH2 0x529B JUMP JUMPDEST PUSH1 0x20 PUSH1 0x40 MLOAD DUP1 DUP4 SUB DUP2 PUSH1 0x0 DUP8 DUP1 EXTCODESIZE ISZERO DUP1 ISZERO PUSH2 0x3B7D JUMPI PUSH1 0x0 DUP1 REVERT JUMPDEST POP GAS CALL ISZERO DUP1 ISZERO PUSH2 0x3B91 JUMPI RETURNDATASIZE PUSH1 0x0 DUP1 RETURNDATACOPY RETURNDATASIZE PUSH1 0x0 REVERT JUMPDEST POP POP POP POP PUSH1 0x40 MLOAD RETURNDATASIZE PUSH1 0x1F NOT PUSH1 0x1F DUP3 ADD AND DUP3 ADD DUP1 PUSH1 0x40 MSTORE POP DUP2 ADD SWAP1 PUSH2 0x3BB5 SWAP2 SWAP1 PUSH2 0x510E JUMP JUMPDEST SWAP1 POP DUP1 ISZERO PUSH2 0xF23 JUMPI PUSH1 0x40 MLOAD PUSH3 0x461BCD PUSH1 0xE5 SHL DUP2 MSTORE PUSH1 0x4 ADD PUSH2 0x2CF SWAP1 PUSH2 0x5338 JUMP JUMPDEST DUP2 PUSH1 0x0 ADD MLOAD PUSH1 0x1 PUSH1 0x1 PUSH1 0xA0 SHL SUB AND PUSH4 0x1249C58B DUP3 PUSH1 0x40 MLOAD DUP3 PUSH4 0xFFFFFFFF AND PUSH1 0xE0 SHL DUP2 MSTORE PUSH1 0x4 ADD PUSH1 0x0 PUSH1 0x40 MLOAD DUP1 DUP4 SUB DUP2 DUP6 DUP9 DUP1 EXTCODESIZE ISZERO DUP1 ISZERO PUSH2 0x3C14 JUMPI PUSH1 0x0 DUP1 REVERT JUMPDEST POP GAS CALL ISZERO DUP1 ISZERO PUSH2 0x1037 JUMPI RETURNDATASIZE PUSH1 0x0 DUP1 RETURNDATACOPY RETURNDATASIZE PUSH1 0x0 REVERT JUMPDEST PUSH1 0x0 DUP3 DUP3 GT ISZERO PUSH2 0x1AE6 JUMPI PUSH1 0x40 DUP1 MLOAD PUSH3 0x461BCD PUSH1 0xE5 SHL DUP2 MSTORE PUSH1 0x20 PUSH1 0x4 DUP3 ADD MSTORE PUSH1 0x1E PUSH1 0x24 DUP3 ADD MSTORE PUSH32 0x536166654D6174683A207375627472616374696F6E206F766572666C6F770000 PUSH1 0x44 DUP3 ADD MSTORE SWAP1 MLOAD SWAP1 DUP2 SWAP1 SUB PUSH1 0x64 ADD SWAP1 REVERT JUMPDEST PUSH1 0x0 PUSH2 0x3CA4 PUSH4 0x1DA9C00 PUSH2 0xE67 PUSH2 0x3C99 PUSH2 0x2442 DUP8 DUP8 PUSH2 0x1AD7 JUMP JUMPDEST PUSH1 0x80 DUP11 ADD MLOAD SWAP1 PUSH2 0x2049 JUMP JUMPDEST SWAP1 POP PUSH1 0x0 PUSH2 0x3CB2 DUP6 DUP4 PUSH2 0x2030 JUMP JUMPDEST SWAP1 POP PUSH1 0x0 PUSH2 0x3CD2 PUSH1 0x64 PUSH2 0xE67 DUP11 PUSH1 0xE0 ADD MLOAD DUP6 PUSH2 0x2049 SWAP1 SWAP2 SWAP1 PUSH4 0xFFFFFFFF AND JUMP JUMPDEST SWAP1 POP PUSH1 0x0 PUSH2 0x3CE0 DUP4 DUP4 PUSH2 0x2001 JUMP JUMPDEST SWAP1 POP PUSH2 0x3CF4 DUP10 PUSH1 0x40 ADD MLOAD PUSH2 0xFFFF AND DUP4 PUSH2 0x4727 JUMP JUMPDEST PUSH2 0x3D06 DUP10 PUSH1 0x40 ADD MLOAD PUSH2 0xFFFF AND DUP3 PUSH2 0x47AE JUMP JUMPDEST PUSH1 0x80 DUP9 ADD MLOAD PUSH2 0x3D15 SWAP1 DUP5 PUSH2 0x2001 JUMP JUMPDEST DUP9 PUSH1 0x80 ADD DUP2 DUP2 MSTORE POP POP DUP6 DUP10 PUSH1 0x40 ADD MLOAD PUSH2 0xFFFF AND DUP11 PUSH1 0x0 ADD MLOAD PUSH1 0x1 PUSH1 0x1 PUSH1 0xA0 SHL SUB AND PUSH32 0x7456CB4B7C3068832FB334A03D3CD8E440286BAD834CB9E332DF05AE6792CFBB DUP6 DUP6 PUSH1 0x40 MLOAD PUSH2 0x3D67 SWAP3 SWAP2 SWAP1 PUSH2 0x52A4 JUMP JUMPDEST PUSH1 0x40 MLOAD DUP1 SWAP2 SUB SWAP1 LOG4 POP POP POP POP POP POP POP POP POP JUMP JUMPDEST PUSH1 0x0 DUP1 PUSH2 0x3D86 DUP4 PUSH2 0x47FA JUMP JUMPDEST PUSH1 0xFF AND SWAP4 SWAP3 POP POP POP JUMP JUMPDEST PUSH1 0x0 DUP1 PUSH1 0x0 DUP6 GT PUSH2 0x3DB3 JUMPI PUSH1 0x40 MLOAD PUSH3 0x461BCD PUSH1 0xE5 SHL DUP2 MSTORE PUSH1 0x4 ADD PUSH2 0x2CF SWAP1 PUSH2 0x53A6 JUMP JUMPDEST PUSH1 0x7 DUP6 GT ISZERO PUSH2 0x3DD4 JUMPI PUSH1 0x40 MLOAD PUSH3 0x461BCD PUSH1 0xE5 SHL DUP2 MSTORE PUSH1 0x4 ADD PUSH2 0x2CF SWAP1 PUSH2 0x5471 JUMP JUMPDEST PUSH1 0x0 PUSH2 0x3DDF DUP5 PUSH2 0x4817 JUMP JUMPDEST SWAP1 POP PUSH1 0x1 JUMPDEST DUP7 DUP2 GT PUSH2 0x3E37 JUMPI PUSH1 0x0 PUSH2 0x3E00 PUSH2 0x3DF9 DUP4 PUSH2 0x4835 JUMP JUMPDEST DUP5 SWAP1 PUSH2 0x48D9 JUMP JUMPDEST SWAP1 POP DUP7 DUP2 EQ ISZERO PUSH2 0x3E18 JUMPI POP SWAP3 POP PUSH1 0x0 SWAP2 POP PUSH2 0x3E50 SWAP1 POP JUMP JUMPDEST DUP7 DUP2 GT ISZERO PUSH2 0x3E2E JUMPI POP SWAP3 POP PUSH1 0x1 SWAP2 POP PUSH2 0x3E50 SWAP1 POP JUMP JUMPDEST POP PUSH1 0x1 ADD PUSH2 0x3DE4 JUMP JUMPDEST POP PUSH1 0x40 MLOAD PUSH3 0x461BCD PUSH1 0xE5 SHL DUP2 MSTORE PUSH1 0x4 ADD PUSH2 0x2CF SWAP1 PUSH2 0x55F6 JUMP JUMPDEST SWAP4 POP SWAP4 SWAP2 POP POP JUMP JUMPDEST PUSH1 0x0 DUP5 PUSH1 0xA0 ADD MLOAD PUSH1 0x0 EQ ISZERO PUSH2 0x3E6E JUMPI POP DUP2 PUSH2 0x3E90 JUMP JUMPDEST PUSH2 0x3E8D DUP6 PUSH1 0xA0 ADD MLOAD PUSH2 0xA24 DUP8 PUSH1 0x60 ADD MLOAD DUP7 PUSH2 0x1A91 SWAP1 SWAP2 SWAP1 PUSH4 0xFFFFFFFF AND JUMP JUMPDEST SWAP1 POP JUMPDEST PUSH1 0xA0 DUP6 ADD MLOAD PUSH2 0x3E9F SWAP1 DUP5 PUSH2 0x331C JUMP JUMPDEST PUSH1 0xA0 DUP7 ADD MSTORE PUSH1 0x60 DUP6 ADD MLOAD PUSH2 0x3EB3 SWAP1 DUP3 PUSH2 0x331C JUMP JUMPDEST PUSH1 0x60 DUP7 ADD MSTORE PUSH1 0x40 DUP5 ADD MLOAD PUSH2 0x3EC7 SWAP1 DUP3 PUSH2 0x331C JUMP JUMPDEST PUSH1 0x40 DUP6 ADD MSTORE PUSH2 0x1B17 DUP6 DUP4 PUSH2 0x1040 JUMP JUMPDEST PUSH1 0x0 DUP1 PUSH2 0x3EEC DUP10 PUSH1 0x0 ADD MLOAD DUP11 PUSH1 0x40 ADD MLOAD DUP10 PUSH2 0x1414 JUMP JUMPDEST DUP10 MLOAD SWAP1 SWAP2 POP PUSH1 0x1 PUSH1 0x1 PUSH1 0xA0 SHL SUB AND PUSH4 0xDC6679C5 DUP10 PUSH2 0x3F0A DUP5 DUP10 PUSH2 0x331C JUMP JUMPDEST DUP10 DUP9 DUP9 PUSH1 0x40 MLOAD DUP7 PUSH4 0xFFFFFFFF AND PUSH1 0xE0 SHL DUP2 MSTORE PUSH1 0x4 ADD PUSH2 0x3F2D SWAP6 SWAP5 SWAP4 SWAP3 SWAP2 SWAP1 PUSH2 0x5262 JUMP JUMPDEST PUSH1 0x20 PUSH1 0x40 MLOAD DUP1 DUP4 SUB DUP2 PUSH1 0x0 DUP8 DUP1 EXTCODESIZE ISZERO DUP1 ISZERO PUSH2 0x3F47 JUMPI PUSH1 0x0 DUP1 REVERT JUMPDEST POP GAS CALL ISZERO DUP1 ISZERO PUSH2 0x3F5B JUMPI RETURNDATASIZE PUSH1 0x0 DUP1 RETURNDATACOPY RETURNDATASIZE PUSH1 0x0 REVERT JUMPDEST POP POP POP POP PUSH1 0x40 MLOAD RETURNDATASIZE PUSH1 0x1F NOT PUSH1 0x1F DUP3 ADD AND DUP3 ADD DUP1 PUSH1 0x40 MSTORE POP DUP2 ADD SWAP1 PUSH2 0x3F7F SWAP2 SWAP1 PUSH2 0x510E JUMP JUMPDEST SWAP10 SWAP9 POP POP POP POP POP POP POP POP POP JUMP JUMPDEST PUSH1 0x0 DUP1 PUSH1 0x0 PUSH2 0x3F99 PUSH2 0x3FD5 JUMP JUMPDEST PUSH1 0x0 SWAP6 DUP7 MSTORE PUSH1 0x20 SWAP1 DUP2 MSTORE PUSH1 0x40 DUP1 DUP8 KECCAK256 SWAP6 DUP8 MSTORE SWAP5 SWAP1 MSTORE POP POP POP SWAP1 KECCAK256 SLOAD PUSH6 0x10000000000 DUP2 DIV PUSH1 0x1 PUSH1 0x1 PUSH1 0x80 SHL SUB AND SWAP2 PUSH1 0x1 PUSH1 0xA8 SHL SWAP1 SWAP2 DIV PUSH1 0xFF AND SWAP1 JUMP JUMPDEST PUSH1 0x0 DUP1 PUSH2 0xB9F PUSH1 0x8 PUSH2 0x2F8B JUMP JUMPDEST PUSH1 0x0 DUP1 PUSH2 0xFFFF DUP5 AND PUSH2 0x3FF9 JUMPI POP PUSH1 0x0 SWAP1 POP DUP1 PUSH2 0x406D JUMP JUMPDEST PUSH1 0x0 PUSH2 0x4003 PUSH2 0x4690 JUMP JUMPDEST PUSH1 0x1 PUSH1 0x1 PUSH1 0xA0 SHL SUB DUP9 AND PUSH1 0x0 SWAP1 DUP2 MSTORE PUSH1 0x20 SWAP2 DUP3 MSTORE PUSH1 0x40 DUP1 DUP3 KECCAK256 DUP10 DUP4 MSTORE DUP4 MSTORE DUP1 DUP3 KECCAK256 PUSH2 0xFFFF DUP10 AND DUP4 MSTORE SWAP1 SWAP3 MSTORE KECCAK256 DUP1 SLOAD SWAP1 SWAP2 POP PUSH1 0x1 PUSH1 0x1 PUSH1 0x50 SHL SUB PUSH1 0x1 PUSH1 0xA0 SHL DUP3 DIV DUP2 AND SWAP2 PUSH1 0x1 PUSH1 0x50 SHL SWAP1 DIV AND DUP6 ISZERO PUSH2 0x4068 JUMPI PUSH2 0x4065 PUSH2 0x2442 DUP3 PUSH2 0xA24 DUP10 DUP7 PUSH2 0x1A91 JUMP JUMPDEST SWAP4 POP JUMPDEST POP SWAP3 POP POP JUMPDEST SWAP5 POP SWAP5 SWAP3 POP POP POP JUMP JUMPDEST PUSH1 0x0 DUP1 PUSH2 0xB9F PUSH1 0x19 PUSH2 0x2F8B JUMP JUMPDEST PUSH1 0x0 PUSH2 0x4090 DUP6 PUSH1 0x0 PUSH2 0x4933 JUMP JUMPDEST DUP5 PUSH1 0x1 PUSH1 0x1 PUSH1 0xA0 SHL SUB AND PUSH32 0x7C51C6AA77346C54CB051D9E792F9B7BDE5C28A9B57E6FB2D2DD727B38438CA9 PUSH1 0x0 PUSH1 0x40 MLOAD PUSH2 0x40CA SWAP2 SWAP1 PUSH2 0x5290 JUMP JUMPDEST PUSH1 0x40 MLOAD DUP1 SWAP2 SUB SWAP1 LOG2 DUP2 DUP5 PUSH2 0xFFFF AND DUP7 PUSH1 0x1 PUSH1 0x1 PUSH1 0xA0 SHL SUB AND PUSH32 0x823B641D46550301006F807A26587634F15BD13749EFDC8859734377D5304A3B DUP7 PUSH1 0x40 MLOAD PUSH2 0x4111 SWAP2 SWAP1 PUSH2 0x529B JUMP JUMPDEST PUSH1 0x40 MLOAD DUP1 SWAP2 SUB SWAP1 LOG4 PUSH1 0x0 PUSH2 0x412A PUSH1 0x0 DUP7 PUSH2 0xFFFF AND PUSH2 0x4993 JUMP JUMPDEST POP POP POP SWAP1 POP DUP1 DUP5 SGT PUSH2 0x414A JUMPI PUSH2 0x4142 DUP6 DUP6 DUP4 SUB PUSH2 0x4A3C JUMP JUMPDEST DUP4 SWAP2 POP PUSH2 0x41A2 JUMP JUMPDEST PUSH2 0x4155 DUP6 PUSH1 0x0 PUSH2 0x4A3C JUMP JUMPDEST DUP3 DUP6 PUSH2 0xFFFF AND DUP8 PUSH1 0x1 PUSH1 0x1 PUSH1 0xA0 SHL SUB AND PUSH32 0x3A717B6924E3AD05B8C7609A2401472AF90869B52CC3C9CA69B50100B4BE6316 DUP5 DUP9 SUB PUSH1 0x40 MLOAD PUSH2 0x4196 SWAP2 SWAP1 PUSH2 0x529B JUMP JUMPDEST PUSH1 0x40 MLOAD DUP1 SWAP2 SUB SWAP1 LOG4 DUP1 SWAP2 POP JUMPDEST POP SWAP5 SWAP4 POP POP POP POP JUMP JUMPDEST PUSH1 0x0 PUSH10 0x7FFFFFFFFFFFFFFFFFFF NOT DUP3 SLT DUP1 ISZERO SWAP1 PUSH2 0x41D2 JUMPI POP PUSH10 0x7FFFFFFFFFFFFFFFFFFF DUP3 SGT ISZERO JUMPDEST PUSH2 0x154A JUMPI PUSH1 0x0 DUP1 REVERT JUMPDEST DUP3 MLOAD PUSH1 0x40 MLOAD PUSH4 0xDB006A75 PUSH1 0xE0 SHL DUP2 MSTORE PUSH1 0x0 SWAP2 SELFBALANCE SWAP2 DUP4 SWAP2 PUSH1 0x1 PUSH1 0x1 PUSH1 0xA0 SHL SUB AND SWAP1 PUSH4 0xDB006A75 SWAP1 PUSH2 0x420F SWAP1 DUP8 SWAP1 PUSH1 0x4 ADD PUSH2 0x529B JUMP JUMPDEST PUSH1 0x20 PUSH1 0x40 MLOAD DUP1 DUP4 SUB DUP2 PUSH1 0x0 DUP8 DUP1 EXTCODESIZE ISZERO DUP1 ISZERO PUSH2 0x4229 JUMPI PUSH1 0x0 DUP1 REVERT JUMPDEST POP GAS CALL ISZERO DUP1 ISZERO PUSH2 0x423D JUMPI RETURNDATASIZE PUSH1 0x0 DUP1 RETURNDATACOPY RETURNDATASIZE PUSH1 0x0 REVERT JUMPDEST POP POP POP POP PUSH1 0x40 MLOAD RETURNDATASIZE PUSH1 0x1F NOT PUSH1 0x1F DUP3 ADD AND DUP3 ADD DUP1 PUSH1 0x40 MSTORE POP DUP2 ADD SWAP1 PUSH2 0x4261 SWAP2 SWAP1 PUSH2 0x510E JUMP JUMPDEST SWAP1 POP DUP1 ISZERO PUSH2 0x4281 JUMPI PUSH1 0x40 MLOAD PUSH3 0x461BCD PUSH1 0xE5 SHL DUP2 MSTORE PUSH1 0x4 ADD PUSH2 0x2CF SWAP1 PUSH2 0x5356 JUMP JUMPDEST SELFBALANCE PUSH2 0x428C DUP2 DUP5 PUSH2 0x3C28 JUMP JUMPDEST SWAP4 POP PUSH2 0x18A7 DUP7 DUP6 PUSH2 0x3023 JUMP JUMPDEST PUSH1 0x0 PUSH2 0x42B3 PUSH2 0x1093 DUP6 PUSH1 0x0 ADD MLOAD PUSH2 0x42AE DUP6 PUSH2 0x1534 JUMP JUMPDEST PUSH2 0x37C7 JUMP JUMPDEST SWAP1 POP PUSH2 0x42BD PUSH2 0x471A JUMP JUMPDEST SLOAD DUP5 MLOAD PUSH1 0x40 MLOAD PUSH4 0x1A4CA37B PUSH1 0xE2 SHL DUP2 MSTORE PUSH1 0x1 PUSH1 0x1 PUSH1 0xA0 SHL SUB SWAP1 SWAP3 AND SWAP2 PUSH4 0x69328DEC SWAP2 PUSH2 0x42EF SWAP2 DUP6 SWAP1 DUP9 SWAP1 PUSH1 0x4 ADD PUSH2 0x51F1 JUMP JUMPDEST PUSH1 0x20 PUSH1 0x40 MLOAD DUP1 DUP4 SUB DUP2 PUSH1 0x0 DUP8 DUP1 EXTCODESIZE ISZERO DUP1 ISZERO PUSH2 0x4309 JUMPI PUSH1 0x0 DUP1 REVERT JUMPDEST POP GAS CALL ISZERO DUP1 ISZERO PUSH2 0x431D JUMPI RETURNDATASIZE PUSH1 0x0 DUP1 RETURNDATACOPY RETURNDATASIZE PUSH1 0x0 REVERT JUMPDEST POP POP POP POP PUSH1 0x40 MLOAD RETURNDATASIZE PUSH1 0x1F NOT PUSH1 0x1F DUP3 ADD AND DUP3 ADD DUP1 PUSH1 0x40 MSTORE POP DUP2 ADD SWAP1 PUSH2 0x4341 SWAP2 SWAP1 PUSH2 0x510E JUMP JUMPDEST POP SWAP4 SWAP3 POP POP POP JUMP JUMPDEST DUP3 MLOAD PUSH1 0x0 SWAP1 DUP2 SWAP1 PUSH2 0x4362 SWAP1 ADDRESS PUSH4 0x70A08231 PUSH1 0xE0 SHL PUSH2 0x39B6 JUMP JUMPDEST SWAP1 POP PUSH1 0x0 DUP7 PUSH1 0x0 ADD MLOAD PUSH1 0x1 PUSH1 0x1 PUSH1 0xA0 SHL SUB AND PUSH4 0xDB006A75 DUP6 PUSH1 0x40 MLOAD DUP3 PUSH4 0xFFFFFFFF AND PUSH1 0xE0 SHL DUP2 MSTORE PUSH1 0x4 ADD PUSH2 0x4396 SWAP2 SWAP1 PUSH2 0x529B JUMP JUMPDEST PUSH1 0x20 PUSH1 0x40 MLOAD DUP1 DUP4 SUB DUP2 PUSH1 0x0 DUP8 DUP1 EXTCODESIZE ISZERO DUP1 ISZERO PUSH2 0x43B0 JUMPI PUSH1 0x0 DUP1 REVERT JUMPDEST POP GAS CALL ISZERO DUP1 ISZERO PUSH2 0x43C4 JUMPI RETURNDATASIZE PUSH1 0x0 DUP1 RETURNDATACOPY RETURNDATASIZE PUSH1 0x0 REVERT JUMPDEST POP POP POP POP PUSH1 0x40 MLOAD RETURNDATASIZE PUSH1 0x1F NOT PUSH1 0x1F DUP3 ADD AND DUP3 ADD DUP1 PUSH1 0x40 MSTORE POP DUP2 ADD SWAP1 PUSH2 0x43E8 SWAP2 SWAP1 PUSH2 0x510E JUMP JUMPDEST SWAP1 POP DUP1 ISZERO PUSH2 0x4408 JUMPI PUSH1 0x40 MLOAD PUSH3 0x461BCD PUSH1 0xE5 SHL DUP2 MSTORE PUSH1 0x4 ADD PUSH2 0x2CF SWAP1 PUSH2 0x5356 JUMP JUMPDEST DUP6 MLOAD PUSH1 0x0 SWAP1 PUSH2 0x441F SWAP1 ADDRESS PUSH4 0x70A08231 PUSH1 0xE0 SHL PUSH2 0x39B6 JUMP JUMPDEST SWAP1 POP PUSH2 0x442B DUP2 DUP5 PUSH2 0x3C28 JUMP JUMPDEST SWAP4 POP PUSH2 0x443C DUP8 PUSH1 0x0 ADD MLOAD DUP8 DUP7 PUSH2 0x393F JUMP JUMPDEST POP POP POP SWAP5 SWAP4 POP POP POP POP JUMP JUMPDEST PUSH1 0x0 PUSH4 0x5F5E100 DUP4 PUSH1 0x40 ADD MLOAD SLT ISZERO PUSH2 0x446F JUMPI PUSH2 0x4468 PUSH1 0x1 PUSH2 0xD3B DUP6 DUP6 PUSH2 0x2C02 JUMP JUMPDEST SWAP1 POP PUSH2 0xB9F JUMP JUMPDEST PUSH2 0xB9C DUP4 PUSH2 0x447E DUP5 PUSH1 0x1 PUSH2 0x1FC0 JUMP JUMPDEST PUSH2 0x2C02 JUMP JUMPDEST PUSH1 0x0 PUSH1 0x3 DUP4 PUSH1 0x60 ADD MLOAD PUSH1 0x5 DUP2 GT ISZERO PUSH2 0x4497 JUMPI INVALID JUMPDEST EQ ISZERO PUSH2 0x44AE JUMPI POP PUSH1 0x1 PUSH1 0x1 PUSH1 0xA0 SHL SUB DUP2 AND BALANCE PUSH2 0xB9F JUMP JUMPDEST DUP3 MLOAD PUSH1 0x40 MLOAD PUSH4 0x70A08231 PUSH1 0xE0 SHL DUP2 MSTORE PUSH1 0x1 PUSH1 0x1 PUSH1 0xA0 SHL SUB SWAP1 SWAP2 AND SWAP1 PUSH4 0x70A08231 SWAP1 PUSH2 0x44DD SWAP1 DUP6 SWAP1 PUSH1 0x4 ADD PUSH2 0x519F JUMP JUMPDEST PUSH1 0x20 PUSH1 0x40 MLOAD DUP1 DUP4 SUB DUP2 DUP7 DUP1 EXTCODESIZE ISZERO DUP1 ISZERO PUSH2 0x44F5 JUMPI PUSH1 0x0 DUP1 REVERT JUMPDEST POP GAS STATICCALL ISZERO DUP1 ISZERO PUSH2 0x4509 JUMPI RETURNDATASIZE PUSH1 0x0 DUP1 RETURNDATACOPY RETURNDATASIZE PUSH1 0x0 REVERT JUMPDEST POP POP POP POP PUSH1 0x40 MLOAD RETURNDATASIZE PUSH1 0x1F NOT PUSH1 0x1F DUP3 ADD AND DUP3 ADD DUP1 PUSH1 0x40 MSTORE POP DUP2 ADD SWAP1 PUSH2 0x4468 SWAP2 SWAP1 PUSH2 0x510E JUMP JUMPDEST PUSH1 0x0 DUP1 PUSH2 0xB9F PUSH1 0x2 PUSH2 0x2F8B JUMP JUMPDEST PUSH1 0x0 PUSH2 0x4544 PUSH2 0x4E06 JUMP JUMPDEST RETURNDATASIZE DUP1 ISZERO PUSH2 0x4558 JUMPI PUSH1 0x20 DUP2 EQ PUSH2 0x4561 JUMPI PUSH1 0x0 DUP1 REVERT JUMPDEST PUSH1 0x1 SWAP3 POP PUSH2 0x456C JUMP JUMPDEST PUSH1 0x20 PUSH1 0x0 DUP4 RETURNDATACOPY DUP2 MLOAD SWAP3 POP JUMPDEST POP DUP2 PUSH2 0x17D4 JUMPI PUSH1 0x40 DUP1 MLOAD PUSH3 0x461BCD PUSH1 0xE5 SHL DUP2 MSTORE PUSH1 0x20 PUSH1 0x4 DUP3 ADD MSTORE PUSH1 0x5 PUSH1 0x24 DUP3 ADD MSTORE PUSH5 0x455243323 PUSH1 0xDC SHL PUSH1 0x44 DUP3 ADD MSTORE SWAP1 MLOAD SWAP1 DUP2 SWAP1 SUB PUSH1 0x64 ADD SWAP1 REVERT JUMPDEST PUSH1 0x0 DUP1 PUSH2 0xB9F PUSH1 0x7 PUSH2 0x2F8B JUMP JUMPDEST PUSH1 0x0 PUSH2 0xFAA PUSH2 0x45C1 PUSH2 0x471A JUMP JUMPDEST SLOAD PUSH1 0x40 MLOAD PUSH4 0xD15E0053 PUSH1 0xE0 SHL DUP2 MSTORE PUSH1 0x1 PUSH1 0x1 PUSH1 0xA0 SHL SUB SWAP1 SWAP2 AND SWAP1 PUSH4 0xD15E0053 SWAP1 PUSH2 0x45EF SWAP1 DUP7 SWAP1 PUSH1 0x4 ADD PUSH2 0x519F JUMP JUMPDEST PUSH1 0x20 PUSH1 0x40 MLOAD DUP1 DUP4 SUB DUP2 DUP7 DUP1 EXTCODESIZE ISZERO DUP1 ISZERO PUSH2 0x4607 JUMPI PUSH1 0x0 DUP1 REVERT JUMPDEST POP GAS STATICCALL ISZERO DUP1 ISZERO PUSH2 0x461B JUMPI RETURNDATASIZE PUSH1 0x0 DUP1 RETURNDATACOPY RETURNDATASIZE PUSH1 0x0 REVERT JUMPDEST POP POP POP POP PUSH1 0x40 MLOAD RETURNDATASIZE PUSH1 0x1F NOT PUSH1 0x1F DUP3 ADD AND DUP3 ADD DUP1 PUSH1 0x40 MSTORE POP DUP2 ADD SWAP1 PUSH2 0x2442 SWAP2 SWAP1 PUSH2 0x510E JUMP JUMPDEST PUSH1 0x0 DUP1 PUSH2 0xB9F PUSH1 0x17 PUSH2 0x2F8B JUMP JUMPDEST PUSH1 0x0 DUP1 PUSH1 0x0 PUSH2 0x4659 PUSH2 0x4A9F JUMP JUMPDEST PUSH1 0x0 SWAP5 DUP6 MSTORE PUSH1 0x20 MSTORE POP POP PUSH1 0x40 SWAP1 SWAP2 KECCAK256 SLOAD PUSH1 0x1 PUSH1 0x1 PUSH1 0xA0 SHL SUB DUP2 AND SWAP3 PUSH1 0x1 PUSH1 0xA0 SHL SWAP1 SWAP2 DIV PUSH1 0xFF AND SWAP2 POP JUMP JUMPDEST PUSH1 0x0 DUP1 PUSH2 0xB9F PUSH1 0x10 PUSH2 0x2F8B JUMP JUMPDEST PUSH1 0x0 DUP1 PUSH2 0xB9F PUSH1 0x18 PUSH2 0x2F8B JUMP JUMPDEST PUSH1 0x0 PUSH2 0xB9C DUP3 PUSH1 0x20 ADD MLOAD PUSH2 0xE67 DUP5 PUSH1 0x0 ADD MLOAD DUP7 PUSH1 0x20 ADD MLOAD PUSH2 0x2049 SWAP1 SWAP2 SWAP1 PUSH4 0xFFFFFFFF AND JUMP JUMPDEST PUSH1 0x40 DUP1 MLOAD PUSH4 0x23B872DD PUSH1 0xE0 SHL DUP2 MSTORE PUSH1 0x1 PUSH1 0x1 PUSH1 0xA0 SHL SUB DUP5 DUP2 AND PUSH1 0x4 DUP4 ADD MSTORE ADDRESS PUSH1 0x24 DUP4 ADD MSTORE PUSH1 0x44 DUP3 ADD DUP5 SWAP1 MSTORE SWAP2 MLOAD SWAP2 DUP6 AND SWAP2 PUSH4 0x23B872DD SWAP2 PUSH1 0x64 DUP1 DUP3 ADD SWAP3 PUSH1 0x0 SWAP3 SWAP1 SWAP2 SWAP1 DUP3 SWAP1 SUB ADD DUP2 DUP4 DUP8 DUP1 EXTCODESIZE ISZERO DUP1 ISZERO PUSH2 0x3996 JUMPI PUSH1 0x0 DUP1 REVERT JUMPDEST PUSH1 0x0 DUP1 PUSH2 0xB9F PUSH1 0x13 PUSH2 0x2F8B JUMP JUMPDEST PUSH1 0x0 DUP2 SLT ISZERO PUSH2 0x4735 JUMPI PUSH1 0x0 DUP1 REVERT JUMPDEST PUSH1 0x0 PUSH2 0x4742 PUSH1 0x0 DUP5 PUSH2 0x4993 JUMP JUMPDEST POP POP POP SWAP1 POP PUSH2 0x475A DUP3 DUP3 PUSH2 0x1FC0 SWAP1 SWAP2 SWAP1 PUSH4 0xFFFFFFFF AND JUMP JUMPDEST SWAP1 POP PUSH2 0x476D PUSH1 0x0 DUP5 DUP4 PUSH1 0x0 DUP1 PUSH1 0x0 PUSH2 0x4AAC JUMP JUMPDEST DUP3 PUSH2 0xFFFF AND PUSH32 0x85170C297762884F47EC6098B74925C795E6D33686B11019B400E33A9B23B5E9 DUP4 PUSH1 0x40 MLOAD PUSH2 0x47A1 SWAP2 SWAP1 PUSH2 0x529B JUMP JUMPDEST PUSH1 0x40 MLOAD DUP1 SWAP2 SUB SWAP1 LOG2 POP POP POP JUMP JUMPDEST PUSH1 0x0 DUP2 SLT ISZERO PUSH2 0x47BC JUMPI PUSH1 0x0 DUP1 REVERT JUMPDEST PUSH1 0x0 PUSH2 0x47C7 DUP4 PUSH2 0x4BF3 JUMP JUMPDEST SWAP1 POP PUSH1 0x0 PUSH2 0x47D5 DUP3 DUP6 PUSH2 0x4993 JUMP JUMPDEST POP POP POP SWAP1 POP PUSH2 0x47ED DUP4 DUP3 PUSH2 0x1FC0 SWAP1 SWAP2 SWAP1 PUSH4 0xFFFFFFFF AND JUMP JUMPDEST SWAP1 POP PUSH2 0x1590 DUP3 DUP6 DUP4 PUSH2 0x4C19 JUMP JUMPDEST PUSH1 0x0 DUP1 PUSH2 0x4805 PUSH2 0x4C37 JUMP JUMPDEST PUSH1 0x0 SWAP4 DUP5 MSTORE PUSH1 0x20 MSTORE POP POP PUSH1 0x40 SWAP1 KECCAK256 SLOAD SWAP1 JUMP JUMPDEST PUSH1 0x0 PUSH3 0x76A700 DUP3 LT ISZERO PUSH2 0x4829 JUMPI PUSH1 0x0 DUP1 REVERT JUMPDEST POP PUSH3 0x76A700 DUP2 MOD SWAP1 SUB SWAP1 JUMP JUMPDEST PUSH1 0x0 DUP2 PUSH1 0x1 EQ ISZERO PUSH2 0x484A JUMPI POP PUSH3 0x76A700 PUSH2 0xFAD JUMP JUMPDEST DUP2 PUSH1 0x2 EQ ISZERO PUSH2 0x485D JUMPI POP PUSH3 0xED4E00 PUSH2 0xFAD JUMP JUMPDEST DUP2 PUSH1 0x3 EQ ISZERO PUSH2 0x4871 JUMPI POP PUSH4 0x1DA9C00 PUSH2 0xFAD JUMP JUMPDEST DUP2 PUSH1 0x4 EQ ISZERO PUSH2 0x4885 JUMPI POP PUSH4 0x3B53800 PUSH2 0xFAD JUMP JUMPDEST DUP2 PUSH1 0x5 EQ ISZERO PUSH2 0x4899 JUMPI POP PUSH4 0x9450C00 PUSH2 0xFAD JUMP JUMPDEST DUP2 PUSH1 0x6 EQ ISZERO PUSH2 0x48AD JUMPI POP PUSH4 0x128A1800 PUSH2 0xFAD JUMP JUMPDEST DUP2 PUSH1 0x7 EQ ISZERO PUSH2 0x48C1 JUMPI POP PUSH4 0x25143000 PUSH2 0xFAD JUMP JUMPDEST PUSH1 0x40 MLOAD PUSH3 0x461BCD PUSH1 0xE5 SHL DUP2 MSTORE PUSH1 0x4 ADD PUSH2 0x2CF SWAP1 PUSH2 0x53D5 JUMP JUMPDEST PUSH1 0x0 DUP3 DUP3 ADD DUP4 DUP2 LT ISZERO PUSH2 0xB9C JUMPI PUSH1 0x40 DUP1 MLOAD PUSH3 0x461BCD PUSH1 0xE5 SHL DUP2 MSTORE PUSH1 0x20 PUSH1 0x4 DUP3 ADD MSTORE PUSH1 0x1B PUSH1 0x24 DUP3 ADD MSTORE PUSH32 0x536166654D6174683A206164646974696F6E206F766572666C6F770000000000 PUSH1 0x44 DUP3 ADD MSTORE SWAP1 MLOAD SWAP1 DUP2 SWAP1 SUB PUSH1 0x64 ADD SWAP1 REVERT JUMPDEST PUSH1 0x0 PUSH2 0x493D PUSH2 0x3385 JUMP JUMPDEST PUSH1 0x1 PUSH1 0x1 PUSH1 0xA0 SHL SUB DUP5 AND PUSH1 0x0 SWAP1 DUP2 MSTORE PUSH1 0x20 DUP3 SWAP1 MSTORE PUSH1 0x40 SWAP1 KECCAK256 DUP1 SLOAD SWAP2 SWAP3 POP SWAP1 PUSH2 0xFFFF AND DUP4 ISZERO PUSH2 0x497C JUMPI DUP2 SLOAD PUSH2 0xFFFF NOT AND PUSH1 0x1 DUP3 OR PUSH2 0xFFFF AND OR DUP3 SSTORE PUSH2 0x498C JUMP JUMPDEST DUP2 SLOAD PUSH2 0xFFFF NOT AND PUSH2 0xFFFE DUP3 AND OR DUP3 SSTORE JUMPDEST POP POP POP POP POP JUMP JUMPDEST PUSH1 0x0 DUP1 PUSH1 0x0 DUP1 PUSH1 0x0 PUSH2 0x49A3 PUSH2 0x4C44 JUMP JUMPDEST PUSH1 0x1 PUSH1 0x1 PUSH1 0xA0 SHL SUB DUP9 AND PUSH1 0x0 SWAP1 DUP2 MSTORE PUSH1 0x20 DUP3 DUP2 MSTORE PUSH1 0x40 DUP1 DUP4 KECCAK256 DUP11 DUP5 MSTORE SWAP1 SWAP2 MSTORE SWAP1 KECCAK256 DUP1 SLOAD PUSH1 0x1 PUSH1 0x1 PUSH1 0x50 SHL SUB DUP2 AND SWAP7 POP PUSH1 0x1 PUSH1 0x50 SHL SWAP1 DIV PUSH4 0xFFFFFFFF AND SWAP5 POP SWAP1 SWAP2 POP DUP4 ISZERO PUSH2 0x4A0C JUMPI DUP1 SLOAD PUSH2 0x4A05 SWAP1 PUSH1 0x1 PUSH1 0x70 SHL SWAP1 DIV PUSH7 0xFFFFFFFFFFFFFF AND PUSH2 0x4C51 JUMP JUMPDEST SWAP3 POP PUSH2 0x4A21 JUMP JUMPDEST DUP1 SLOAD PUSH1 0x1 PUSH1 0x70 SHL SWAP1 DIV PUSH7 0xFFFFFFFFFFFFFF AND SWAP3 POP JUMPDEST SLOAD PUSH1 0x1 PUSH1 0xA8 SHL SWAP1 DIV PUSH1 0xA SWAP1 DUP2 SIGNEXTEND SWAP1 SIGNEXTEND SWAP8 SWAP4 SWAP7 POP SWAP2 SWAP5 POP SWAP3 POP POP JUMP JUMPDEST PUSH1 0x0 DUP2 SLT ISZERO PUSH2 0x4A4A JUMPI PUSH1 0x0 DUP1 REVERT JUMPDEST PUSH2 0x4A5F PUSH1 0x0 DUP4 PUSH2 0xFFFF AND DUP4 PUSH1 0x0 DUP1 PUSH1 0x0 PUSH2 0x4AAC JUMP JUMPDEST DUP2 PUSH2 0xFFFF AND PUSH32 0xD3625F7B5926828151EFE19F7AE655488287357D99EBE67E5FB20522CA739C0B DUP3 PUSH1 0x40 MLOAD PUSH2 0x4A93 SWAP2 SWAP1 PUSH2 0x529B JUMP JUMPDEST PUSH1 0x40 MLOAD DUP1 SWAP2 SUB SWAP1 LOG2 POP POP JUMP JUMPDEST PUSH1 0x0 DUP1 PUSH2 0xB9F PUSH1 0xF PUSH2 0x2F8B JUMP JUMPDEST PUSH1 0x0 PUSH2 0x4AB6 PUSH2 0x4C44 JUMP JUMPDEST PUSH1 0x1 PUSH1 0x1 PUSH1 0xA0 SHL SUB DUP9 AND PUSH1 0x0 SWAP1 DUP2 MSTORE PUSH1 0x20 DUP3 DUP2 MSTORE PUSH1 0x40 DUP1 DUP4 KECCAK256 DUP11 DUP5 MSTORE SWAP1 SWAP2 MSTORE SWAP1 KECCAK256 SWAP1 SWAP2 POP PUSH11 0x7FFFFFFFFFFFFFFFFFFFFF NOT DUP7 SLT DUP1 ISZERO SWAP1 PUSH2 0x4B01 JUMPI POP PUSH11 0x7FFFFFFFFFFFFFFFFFFFFF DUP7 SGT ISZERO JUMPDEST PUSH2 0x4B0A JUMPI PUSH1 0x0 DUP1 REVERT JUMPDEST PUSH1 0x0 DUP6 SLT ISZERO DUP1 ISZERO PUSH2 0x4B22 JUMPI POP PUSH1 0x1 PUSH1 0x1 PUSH1 0x50 SHL SUB DUP6 SGT ISZERO JUMPDEST PUSH2 0x4B2B JUMPI PUSH1 0x0 DUP1 REVERT JUMPDEST DUP4 PUSH2 0x4B6B JUMPI PUSH7 0xFFFFFFFFFFFFFF DUP4 GT ISZERO PUSH2 0x4B44 JUMPI PUSH1 0x0 DUP1 REVERT JUMPDEST DUP1 SLOAD PUSH7 0xFFFFFFFFFFFFFF PUSH1 0x70 SHL NOT AND PUSH1 0x1 PUSH1 0x70 SHL PUSH7 0xFFFFFFFFFFFFFF DUP6 AND MUL OR DUP2 SSTORE PUSH2 0x4B85 JUMP JUMPDEST DUP1 SLOAD PUSH1 0x1 PUSH1 0x50 SHL SWAP1 DIV PUSH4 0xFFFFFFFF AND DUP5 EQ PUSH2 0x4B85 JUMPI PUSH1 0x0 DUP1 REVERT JUMPDEST DUP1 SLOAD PUSH1 0xA SWAP7 SWAP1 SWAP7 SIGNEXTEND PUSH11 0xFFFFFFFFFFFFFFFFFFFFFF AND PUSH1 0x1 PUSH1 0xA8 SHL MUL PUSH1 0x1 PUSH1 0x1 PUSH1 0xA8 SHL SUB PUSH1 0x1 PUSH1 0x1 PUSH1 0x50 SHL SUB SWAP1 SWAP7 AND PUSH1 0x1 PUSH1 0x1 PUSH1 0x50 SHL SUB NOT PUSH4 0xFFFFFFFF SWAP1 SWAP7 AND PUSH1 0x1 PUSH1 0x50 SHL MUL PUSH4 0xFFFFFFFF PUSH1 0x50 SHL NOT SWAP1 SWAP9 AND SWAP8 SWAP1 SWAP8 OR SWAP5 SWAP1 SWAP5 AND SWAP6 SWAP1 SWAP6 OR SWAP4 SWAP1 SWAP4 AND SWAP2 SWAP1 SWAP2 OR SWAP1 SWAP3 SSTORE POP POP POP POP JUMP JUMPDEST PUSH1 0x0 DUP1 PUSH2 0x4BFE PUSH2 0x4C5F JUMP JUMPDEST PUSH1 0x0 SWAP4 DUP5 MSTORE PUSH1 0x20 MSTORE POP POP PUSH1 0x40 SWAP1 KECCAK256 SLOAD PUSH1 0x1 PUSH1 0x1 PUSH1 0xA0 SHL SUB AND SWAP1 JUMP JUMPDEST PUSH1 0x0 DUP2 SLT ISZERO PUSH2 0x4C27 JUMPI PUSH1 0x0 DUP1 REVERT JUMPDEST PUSH2 0xF23 DUP4 DUP4 DUP4 PUSH1 0x0 DUP1 PUSH1 0x0 PUSH2 0x4AAC JUMP JUMPDEST PUSH1 0x0 DUP1 PUSH2 0xB9F PUSH1 0x9 PUSH2 0x2F8B JUMP JUMPDEST PUSH1 0x0 DUP1 PUSH2 0xB9F PUSH1 0x6 PUSH2 0x2F8B JUMP JUMPDEST PUSH1 0x8 DUP2 SWAP1 SHR PUSH1 0xFF SWAP1 SWAP2 AND SHL SWAP1 JUMP JUMPDEST PUSH1 0x0 DUP1 PUSH2 0xB9F PUSH1 0x3 PUSH2 0x2F8B JUMP JUMPDEST PUSH1 0x40 MLOAD DUP1 PUSH1 0x40 ADD PUSH1 0x40 MSTORE DUP1 PUSH1 0x2 SWAP1 PUSH1 0x20 DUP3 MUL DUP1 CALLDATASIZE DUP4 CALLDATACOPY POP SWAP2 SWAP3 SWAP2 POP POP JUMP JUMPDEST PUSH1 0x40 MLOAD DUP1 PUSH1 0xA0 ADD PUSH1 0x40 MSTORE DUP1 PUSH1 0x0 DUP2 MSTORE PUSH1 0x20 ADD PUSH1 0x0 DUP2 MSTORE PUSH1 0x20 ADD PUSH1 0x0 DUP2 MSTORE PUSH1 0x20 ADD PUSH1 0x0 PUSH1 0x1 PUSH1 0x1 PUSH1 0xA0 SHL SUB AND DUP2 MSTORE PUSH1 0x20 ADD PUSH1 0x0 DUP2 MSTORE POP SWAP1 JUMP JUMPDEST PUSH1 0x40 MLOAD DUP1 PUSH2 0x180 ADD PUSH1 0x40 MSTORE DUP1 PUSH1 0x0 PUSH1 0x1 PUSH1 0x1 PUSH1 0xA0 SHL SUB AND DUP2 MSTORE PUSH1 0x20 ADD PUSH1 0x0 PUSH2 0xFFFF AND DUP2 MSTORE PUSH1 0x20 ADD PUSH1 0x0 PUSH2 0xFFFF AND DUP2 MSTORE PUSH1 0x20 ADD PUSH1 0x0 DUP2 MSTORE PUSH1 0x20 ADD PUSH1 0x0 DUP2 MSTORE PUSH1 0x20 ADD PUSH1 0x0 DUP2 MSTORE PUSH1 0x20 ADD PUSH1 0x0 DUP2 MSTORE PUSH1 0x20 ADD PUSH1 0x0 DUP2 MSTORE PUSH1 0x20 ADD PUSH1 0x0 DUP2 MSTORE PUSH1 0x20 ADD PUSH1 0x0 DUP2 MSTORE PUSH1 0x20 ADD PUSH2 0x4D2D PUSH2 0x4C6C JUMP JUMPDEST DUP2 MSTORE PUSH1 0x20 ADD PUSH2 0x4D3A PUSH2 0x4DAD JUMP JUMPDEST SWAP1 MSTORE SWAP1 JUMP JUMPDEST PUSH1 0x40 MLOAD DUP1 PUSH1 0xE0 ADD PUSH1 0x40 MSTORE DUP1 PUSH1 0x0 DUP2 MSTORE PUSH1 0x20 ADD PUSH1 0x0 DUP2 MSTORE PUSH1 0x20 ADD PUSH1 0x0 ISZERO ISZERO DUP2 MSTORE PUSH1 0x20 ADD PUSH1 0x0 DUP2 MSTORE PUSH1 0x20 ADD PUSH1 0x0 DUP2 MSTORE PUSH1 0x20 ADD PUSH1 0x0 DUP2 MSTORE PUSH1 0x20 ADD PUSH1 0x0 DUP2 MSTORE POP SWAP1 JUMP JUMPDEST PUSH1 0x40 DUP1 MLOAD PUSH1 0xA0 DUP2 ADD DUP3 MSTORE PUSH1 0x0 DUP1 DUP3 MSTORE PUSH1 0x20 DUP3 ADD DUP2 SWAP1 MSTORE SWAP2 DUP2 ADD DUP3 SWAP1 MSTORE SWAP1 PUSH1 0x60 DUP3 ADD SWAP1 DUP2 MSTORE PUSH1 0x20 ADD PUSH1 0x0 DUP2 MSTORE POP SWAP1 JUMP JUMPDEST PUSH1 0x40 MLOAD DUP1 PUSH1 0x60 ADD PUSH1 0x40 MSTORE DUP1 PUSH1 0x0 PUSH1 0x1 PUSH1 0x1 PUSH1 0xA0 SHL SUB AND DUP2 MSTORE PUSH1 0x20 ADD PUSH1 0x0 DUP2 MSTORE PUSH1 0x20 ADD PUSH1 0x0 DUP2 MSTORE POP SWAP1 JUMP JUMPDEST PUSH1 0x40 MLOAD DUP1 PUSH1 0xA0 ADD PUSH1 0x40 MSTORE DUP1 PUSH1 0x0 DUP2 MSTORE PUSH1 0x20 ADD PUSH1 0x0 DUP2 MSTORE PUSH1 0x20 ADD PUSH1 0x0 DUP2 MSTORE PUSH1 0x20 ADD PUSH1 0x0 DUP2 MSTORE PUSH1 0x20 ADD PUSH1 0x0 DUP2 MSTORE POP SWAP1 JUMP JUMPDEST PUSH1 0x40 MLOAD DUP1 PUSH1 0x20 ADD PUSH1 0x40 MSTORE DUP1 PUSH1 0x1 SWAP1 PUSH1 0x20 DUP3 MUL DUP1 CALLDATASIZE DUP4 CALLDATACOPY POP SWAP2 SWAP3 SWAP2 POP POP JUMP JUMPDEST DUP1 CALLDATALOAD PUSH1 0x1 PUSH1 0x1 PUSH1 0xA0 SHL SUB DUP2 AND DUP2 EQ PUSH2 0xFAD JUMPI PUSH1 0x0 DUP1 REVERT JUMPDEST PUSH1 0x0 DUP1 DUP4 PUSH1 0x1F DUP5 ADD SLT PUSH2 0x4E4C JUMPI DUP2 DUP3 REVERT JUMPDEST POP DUP2 CALLDATALOAD PUSH8 0xFFFFFFFFFFFFFFFF DUP2 GT ISZERO PUSH2 0x4E63 JUMPI DUP2 DUP3 REVERT JUMPDEST PUSH1 0x20 DUP4 ADD SWAP2 POP DUP4 PUSH1 0x20 DUP3 DUP6 ADD ADD GT ISZERO PUSH2 0x1782 JUMPI PUSH1 0x0 DUP1 REVERT JUMPDEST DUP1 CALLDATALOAD PUSH4 0xFFFFFFFF DUP2 AND DUP2 EQ PUSH2 0xFAD JUMPI PUSH1 0x0 DUP1 REVERT JUMPDEST DUP1 MLOAD PUSH1 0x1 PUSH1 0x1 PUSH1 0x50 SHL SUB DUP2 AND DUP2 EQ PUSH2 0xFAD JUMPI PUSH1 0x0 DUP1 REVERT JUMPDEST PUSH1 0x0 DUP1 PUSH1 0x40 DUP4 DUP6 SUB SLT ISZERO PUSH2 0x4EB8 JUMPI DUP2 DUP3 REVERT JUMPDEST PUSH2 0x4EC1 DUP4 PUSH2 0x4E24 JUMP JUMPDEST SWAP2 POP PUSH2 0x177F PUSH1 0x20 DUP5 ADD PUSH2 0x4E24 JUMP JUMPDEST PUSH1 0x0 DUP1 PUSH1 0x0 DUP1 PUSH1 0x0 DUP1 PUSH1 0x0 PUSH1 0xC0 DUP9 DUP11 SUB SLT ISZERO PUSH2 0x4EE9 JUMPI DUP3 DUP4 REVERT JUMPDEST PUSH2 0x4EF2 DUP9 PUSH2 0x4E24 JUMP JUMPDEST SWAP7 POP PUSH2 0x4F00 PUSH1 0x20 DUP10 ADD PUSH2 0x4E24 JUMP JUMPDEST SWAP6 POP PUSH2 0x4F0E PUSH1 0x40 DUP10 ADD PUSH2 0x4E24 JUMP JUMPDEST SWAP5 POP PUSH1 0x60 DUP9 ADD CALLDATALOAD SWAP4 POP PUSH1 0x80 DUP9 ADD CALLDATALOAD DUP1 ISZERO ISZERO DUP2 EQ PUSH2 0x4F29 JUMPI DUP4 DUP5 REVERT JUMPDEST SWAP3 POP PUSH1 0xA0 DUP9 ADD CALLDATALOAD PUSH8 0xFFFFFFFFFFFFFFFF DUP2 GT ISZERO PUSH2 0x4F44 JUMPI DUP3 DUP4 REVERT JUMPDEST PUSH2 0x4F50 DUP11 DUP3 DUP12 ADD PUSH2 0x4E3B JUMP JUMPDEST SWAP9 SWAP12 SWAP8 SWAP11 POP SWAP6 SWAP9 POP SWAP4 SWAP7 SWAP3 SWAP6 SWAP3 SWAP4 POP POP POP JUMP JUMPDEST PUSH1 0x0 DUP1 PUSH1 0x0 DUP1 PUSH1 0x0 DUP1 PUSH1 0x0 DUP1 PUSH1 0xE0 DUP10 DUP12 SUB SLT ISZERO PUSH2 0x4F7E JUMPI DUP1 DUP2 REVERT JUMPDEST PUSH2 0x4F87 DUP10 PUSH2 0x4E24 JUMP JUMPDEST SWAP8 POP PUSH2 0x4F95 PUSH1 0x20 DUP11 ADD PUSH2 0x4E24 JUMP JUMPDEST SWAP7 POP PUSH2 0x4FA3 PUSH1 0x40 DUP11 ADD PUSH2 0x4E24 JUMP JUMPDEST SWAP6 POP PUSH1 0x60 DUP10 ADD CALLDATALOAD SWAP5 POP PUSH1 0x80 DUP10 ADD CALLDATALOAD SWAP4 POP PUSH2 0x4FBF PUSH1 0xA0 DUP11 ADD PUSH2 0x4E7B JUMP JUMPDEST SWAP3 POP PUSH1 0xC0 DUP10 ADD CALLDATALOAD PUSH8 0xFFFFFFFFFFFFFFFF DUP2 GT ISZERO PUSH2 0x4FDA JUMPI DUP2 DUP3 REVERT JUMPDEST PUSH2 0x4FE6 DUP12 DUP3 DUP13 ADD PUSH2 0x4E3B JUMP JUMPDEST SWAP10 SWAP13 SWAP9 SWAP12 POP SWAP7 SWAP10 POP SWAP5 SWAP8 SWAP4 SWAP7 SWAP3 SWAP6 SWAP5 POP POP POP JUMP JUMPDEST PUSH1 0x0 DUP1 PUSH1 0x0 DUP1 PUSH1 0x0 DUP1 PUSH1 0x0 DUP1 PUSH1 0xE0 DUP10 DUP12 SUB SLT ISZERO PUSH2 0x5015 JUMPI DUP4 DUP5 REVERT JUMPDEST PUSH2 0x501E DUP10 PUSH2 0x4E24 JUMP JUMPDEST SWAP8 POP PUSH2 0x502C PUSH1 0x20 DUP11 ADD PUSH2 0x4E24 JUMP JUMPDEST SWAP7 POP PUSH1 0x40 DUP10 ADD CALLDATALOAD SWAP6 POP PUSH1 0x60 DUP10 ADD CALLDATALOAD SWAP5 POP PUSH1 0x80 DUP10 ADD CALLDATALOAD SWAP4 POP PUSH2 0x504F PUSH1 0xA0 DUP11 ADD PUSH2 0x4E7B JUMP JUMPDEST SWAP3 POP PUSH1 0xC0 DUP10 ADD CALLDATALOAD PUSH8 0xFFFFFFFFFFFFFFFF DUP2 GT ISZERO PUSH2 0x4FDA JUMPI DUP3 DUP4 REVERT JUMPDEST PUSH1 0x0 DUP1 PUSH1 0x0 DUP1 PUSH1 0x0 DUP1 PUSH1 0x0 DUP1 PUSH1 0x0 PUSH2 0x100 DUP11 DUP13 SUB SLT ISZERO PUSH2 0x5088 JUMPI DUP1 DUP2 REVERT JUMPDEST PUSH2 0x5091 DUP11 PUSH2 0x4E24 JUMP JUMPDEST SWAP9 POP PUSH2 0x509F PUSH1 0x20 DUP12 ADD PUSH2 0x4E24 JUMP JUMPDEST SWAP8 POP PUSH1 0x40 DUP11 ADD CALLDATALOAD SWAP7 POP PUSH1 0x60 DUP11 ADD CALLDATALOAD SWAP6 POP PUSH1 0x80 DUP11 ADD CALLDATALOAD SWAP5 POP PUSH2 0x50C2 PUSH1 0xA0 DUP12 ADD PUSH2 0x4E7B JUMP JUMPDEST SWAP4 POP PUSH2 0x50D0 PUSH1 0xC0 DUP12 ADD PUSH2 0x4E7B JUMP JUMPDEST SWAP3 POP PUSH1 0xE0 DUP11 ADD CALLDATALOAD PUSH8 0xFFFFFFFFFFFFFFFF DUP2 GT ISZERO PUSH2 0x50EB JUMPI DUP2 DUP3 REVERT JUMPDEST PUSH2 0x50F7 DUP13 DUP3 DUP14 ADD PUSH2 0x4E3B JUMP JUMPDEST SWAP2 POP DUP1 SWAP4 POP POP DUP1 SWAP2 POP POP SWAP3 SWAP6 SWAP9 POP SWAP3 SWAP6 SWAP9 POP SWAP3 SWAP6 SWAP9 JUMP JUMPDEST PUSH1 0x0 PUSH1 0x20 DUP3 DUP5 SUB SLT ISZERO PUSH2 0x511F JUMPI DUP1 DUP2 REVERT JUMPDEST POP MLOAD SWAP2 SWAP1 POP JUMP JUMPDEST PUSH1 0x0 DUP1 PUSH1 0x0 DUP1 PUSH1 0x0 PUSH1 0xA0 DUP7 DUP9 SUB SLT ISZERO PUSH2 0x513D JUMPI DUP1 DUP2 REVERT JUMPDEST PUSH2 0x5146 DUP7 PUSH2 0x4E8F JUMP JUMPDEST SWAP5 POP PUSH1 0x20 DUP7 ADD MLOAD SWAP4 POP PUSH1 0x40 DUP7 ADD MLOAD SWAP3 POP PUSH1 0x60 DUP7 ADD MLOAD SWAP2 POP PUSH2 0x5169 PUSH1 0x80 DUP8 ADD PUSH2 0x4E8F JUMP JUMPDEST SWAP1 POP SWAP3 SWAP6 POP SWAP3 SWAP6 SWAP1 SWAP4 POP JUMP JUMPDEST PUSH1 0x0 DUP3 DUP5 MSTORE DUP3 DUP3 PUSH1 0x20 DUP7 ADD CALLDATACOPY DUP1 PUSH1 0x20 DUP5 DUP7 ADD ADD MSTORE PUSH1 0x20 PUSH1 0x1F NOT PUSH1 0x1F DUP6 ADD AND DUP6 ADD ADD SWAP1 POP SWAP4 SWAP3 POP POP POP JUMP JUMPDEST PUSH1 0x1 PUSH1 0x1 PUSH1 0xA0 SHL SUB SWAP2 SWAP1 SWAP2 AND DUP2 MSTORE PUSH1 0x20 ADD SWAP1 JUMP JUMPDEST PUSH1 0x0 PUSH1 0x1 DUP1 PUSH1 0xA0 SHL SUB DUP1 DUP11 AND DUP4 MSTORE DUP1 DUP10 AND PUSH1 0x20 DUP5 ADD MSTORE POP DUP7 PUSH1 0x40 DUP4 ADD MSTORE DUP6 PUSH1 0x60 DUP4 ADD MSTORE DUP5 PUSH1 0x80 DUP4 ADD MSTORE PUSH1 0xC0 PUSH1 0xA0 DUP4 ADD MSTORE PUSH2 0x3F7F PUSH1 0xC0 DUP4 ADD DUP5 DUP7 PUSH2 0x5175 JUMP JUMPDEST PUSH1 0x1 PUSH1 0x1 PUSH1 0xA0 SHL SUB SWAP4 DUP5 AND DUP2 MSTORE PUSH1 0x20 DUP2 ADD SWAP3 SWAP1 SWAP3 MSTORE SWAP1 SWAP2 AND PUSH1 0x40 DUP3 ADD MSTORE PUSH1 0x60 ADD SWAP1 JUMP JUMPDEST PUSH1 0x1 PUSH1 0x1 PUSH1 0xA0 SHL SUB SWAP5 DUP6 AND DUP2 MSTORE PUSH1 0x20 DUP2 ADD SWAP4 SWAP1 SWAP4 MSTORE SWAP3 AND PUSH1 0x40 DUP3 ADD MSTORE PUSH2 0xFFFF SWAP1 SWAP2 AND PUSH1 0x60 DUP3 ADD MSTORE PUSH1 0x80 ADD SWAP1 JUMP JUMPDEST PUSH1 0x1 PUSH1 0x1 PUSH1 0xA0 SHL SUB SWAP4 SWAP1 SWAP4 AND DUP4 MSTORE PUSH1 0x20 DUP4 ADD SWAP2 SWAP1 SWAP2 MSTORE PUSH1 0x40 DUP3 ADD MSTORE PUSH1 0x60 ADD SWAP1 JUMP JUMPDEST PUSH1 0x0 PUSH1 0x1 DUP1 PUSH1 0xA0 SHL SUB DUP8 AND DUP3 MSTORE DUP6 PUSH1 0x20 DUP4 ADD MSTORE DUP5 PUSH1 0x40 DUP4 ADD MSTORE PUSH1 0x80 PUSH1 0x60 DUP4 ADD MSTORE PUSH2 0x2447 PUSH1 0x80 DUP4 ADD DUP5 DUP7 PUSH2 0x5175 JUMP JUMPDEST SWAP1 ISZERO ISZERO DUP2 MSTORE PUSH1 0x20 ADD SWAP1 JUMP JUMPDEST SWAP1 DUP2 MSTORE PUSH1 0x20 ADD SWAP1 JUMP JUMPDEST SWAP2 DUP3 MSTORE PUSH1 0x20 DUP3 ADD MSTORE PUSH1 0x40 ADD SWAP1 JUMP JUMPDEST SWAP3 DUP4 MSTORE PUSH1 0x20 DUP4 ADD SWAP2 SWAP1 SWAP2 MSTORE PUSH1 0x40 DUP3 ADD MSTORE PUSH1 0x60 ADD SWAP1 JUMP JUMPDEST SWAP4 DUP5 MSTORE PUSH1 0x20 DUP5 ADD SWAP3 SWAP1 SWAP3 MSTORE PUSH1 0x40 DUP4 ADD MSTORE PUSH1 0x60 DUP3 ADD MSTORE PUSH1 0x80 ADD SWAP1 JUMP JUMPDEST PUSH1 0x20 DUP1 DUP3 MSTORE PUSH1 0xC SWAP1 DUP3 ADD MSTORE PUSH12 0x155B985D5D1A1BDC9A5E9959 PUSH1 0xA2 SHL PUSH1 0x40 DUP3 ADD MSTORE PUSH1 0x60 ADD SWAP1 JUMP JUMPDEST PUSH1 0x20 DUP1 DUP3 MSTORE PUSH1 0x15 SWAP1 DUP3 ADD MSTORE PUSH21 0xACC2EAD8E840A6D0C2E4CAE6409AD2E6DAC2E8C6D PUSH1 0x5B SHL PUSH1 0x40 DUP3 ADD MSTORE PUSH1 0x60 ADD SWAP1 JUMP JUMPDEST PUSH1 0x20 DUP1 DUP3 MSTORE PUSH1 0x4 SWAP1 DUP3 ADD MSTORE PUSH4 0x135A5B9D PUSH1 0xE2 SHL PUSH1 0x40 DUP3 ADD MSTORE PUSH1 0x60 ADD SWAP1 JUMP JUMPDEST PUSH1 0x20 DUP1 DUP3 MSTORE PUSH1 0x6 SWAP1 DUP3 ADD MSTORE PUSH6 0x52656465656D PUSH1 0xD0 SHL PUSH1 0x40 DUP3 ADD MSTORE PUSH1 0x60 ADD SWAP1 JUMP JUMPDEST PUSH1 0x20 DUP1 DUP3 MSTORE PUSH1 0x16 SWAP1 DUP3 ADD MSTORE PUSH22 0x125B9CDD59999A58DA595B9D081C995C185E5B595B9D PUSH1 0x52 SHL PUSH1 0x40 DUP3 ADD MSTORE PUSH1 0x60 ADD SWAP1 JUMP JUMPDEST PUSH1 0x20 DUP1 DUP3 MSTORE PUSH1 0x15 SWAP1 DUP3 ADD MSTORE PUSH21 0x10D1CE881B9BC81B585C9AD95D1CC81B1A5CDD1959 PUSH1 0x5A SHL PUSH1 0x40 DUP3 ADD MSTORE PUSH1 0x60 ADD SWAP1 JUMP JUMPDEST PUSH1 0x20 DUP1 DUP3 MSTORE PUSH1 0xD SWAP1 DUP3 ADD MSTORE PUSH13 0x92DCECC2D8D2C840D2DCC8CAF PUSH1 0x9B SHL PUSH1 0x40 DUP3 ADD MSTORE PUSH1 0x60 ADD SWAP1 JUMP JUMPDEST PUSH1 0x20 DUP1 DUP3 MSTORE PUSH1 0x10 SWAP1 DUP3 ADD MSTORE PUSH16 0x496E76616C6964204D61747572697479 PUSH1 0x80 SHL PUSH1 0x40 DUP3 ADD MSTORE PUSH1 0x60 ADD SWAP1 JUMP JUMPDEST PUSH1 0x20 DUP1 DUP3 MSTORE PUSH1 0xC SWAP1 DUP3 ADD MSTORE PUSH12 0x4D6178204361706163697479 PUSH1 0xA0 SHL PUSH1 0x40 DUP3 ADD MSTORE PUSH1 0x60 ADD SWAP1 JUMP JUMPDEST PUSH1 0x20 DUP1 DUP3 MSTORE PUSH1 0xB SWAP1 DUP3 ADD MSTORE PUSH11 0x139BDD0814D95D1D1B1959 PUSH1 0xAA SHL PUSH1 0x40 DUP3 ADD MSTORE PUSH1 0x60 ADD SWAP1 JUMP JUMPDEST PUSH1 0x20 DUP1 DUP3 MSTORE PUSH1 0x16 SWAP1 DUP3 ADD MSTORE PUSH22 0x10D1CE881B585C9AD95D081A5B99195E08189BDD5B99 PUSH1 0x52 SHL PUSH1 0x40 DUP3 ADD MSTORE PUSH1 0x60 ADD SWAP1 JUMP JUMPDEST PUSH1 0x20 DUP1 DUP3 MSTORE PUSH1 0xF SWAP1 DUP3 ADD MSTORE PUSH15 0x139BC8149BDB1B08105B1B1BDDD959 PUSH1 0x8A SHL PUSH1 0x40 DUP3 ADD MSTORE PUSH1 0x60 ADD SWAP1 JUMP JUMPDEST PUSH1 0x20 DUP1 DUP3 MSTORE PUSH1 0x17 SWAP1 DUP3 ADD MSTORE PUSH32 0x496E73756666696369656E7420436F6C6C61746572616C000000000000000000 PUSH1 0x40 DUP3 ADD MSTORE PUSH1 0x60 ADD SWAP1 JUMP JUMPDEST PUSH1 0x20 DUP1 DUP3 MSTORE PUSH1 0x17 SWAP1 DUP3 ADD MSTORE PUSH32 0x4D757374204C697175696461746520416C6C2044656274000000000000000000 PUSH1 0x40 DUP3 ADD MSTORE PUSH1 0x60 ADD SWAP1 JUMP JUMPDEST PUSH1 0x20 DUP1 DUP3 MSTORE PUSH1 0xC SWAP1 DUP3 ADD MSTORE PUSH12 0x496E76616C69642072617465 PUSH1 0xA0 SHL PUSH1 0x40 DUP3 ADD MSTORE PUSH1 0x60 ADD SWAP1 JUMP JUMPDEST PUSH1 0x20 DUP1 DUP3 MSTORE PUSH1 0xE SWAP1 DUP3 ADD MSTORE PUSH14 0x1499595B9D1C985B9D0818D85B1B PUSH1 0x92 SHL PUSH1 0x40 DUP3 ADD MSTORE PUSH1 0x60 ADD SWAP1 JUMP JUMPDEST PUSH1 0x20 DUP1 DUP3 MSTORE PUSH1 0xD SWAP1 DUP3 ADD MSTORE PUSH13 0x109BDC9C9BDDC819985A5B1959 PUSH1 0x9A SHL PUSH1 0x40 DUP3 ADD MSTORE PUSH1 0x60 ADD SWAP1 JUMP JUMPDEST PUSH1 0x20 DUP1 DUP3 MSTORE PUSH1 0xA SWAP1 DUP3 ADD MSTORE PUSH10 0x4D696E20426F72726F77 PUSH1 0xB0 SHL PUSH1 0x40 DUP3 ADD MSTORE PUSH1 0x60 ADD SWAP1 JUMP JUMPDEST PUSH1 0x20 DUP1 DUP3 MSTORE PUSH1 0xB SWAP1 DUP3 ADD MSTORE PUSH11 0x92DCECC2D8D2C8408AA89 PUSH1 0xAB SHL PUSH1 0x40 DUP3 ADD MSTORE PUSH1 0x60 ADD SWAP1 JUMP JUMPDEST PUSH1 0x20 DUP1 DUP3 MSTORE PUSH1 0x13 SWAP1 DUP3 ADD MSTORE PUSH19 0x10D1CE881B9BC81B585C9AD95D08199BDD5B99 PUSH1 0x6A SHL PUSH1 0x40 DUP3 ADD MSTORE PUSH1 0x60 ADD SWAP1 JUMP JUMPDEST PUSH1 0x20 DUP1 DUP3 MSTORE PUSH1 0xC SWAP1 DUP3 ADD MSTORE PUSH12 0x21B0B73737BA1022B73A32B9 PUSH1 0xA1 SHL PUSH1 0x40 DUP3 ADD MSTORE PUSH1 0x60 ADD SWAP1 JUMP JUMPDEST PUSH1 0x20 DUP1 DUP3 MSTORE PUSH1 0xB SWAP1 DUP3 ADD MSTORE PUSH11 0x11985A5B19590813195B99 PUSH1 0xAA SHL PUSH1 0x40 DUP3 ADD MSTORE PUSH1 0x60 ADD SWAP1 JUMP JUMPDEST PUSH1 0x20 DUP1 DUP3 MSTORE PUSH1 0x15 SWAP1 DUP3 ADD MSTORE PUSH21 0x14DD59999A58DA595B9D0810DBDB1B185D195C985B PUSH1 0x5A SHL PUSH1 0x40 DUP3 ADD MSTORE PUSH1 0x60 ADD SWAP1 JUMP JUMPDEST DUP2 MLOAD DUP2 MSTORE PUSH1 0x20 DUP1 DUP4 ADD MLOAD SWAP1 DUP3 ADD MSTORE PUSH1 0x40 DUP1 DUP4 ADD MLOAD SWAP1 DUP3 ADD MSTORE PUSH1 0x60 DUP1 DUP4 ADD MLOAD PUSH1 0x1 PUSH1 0x1 PUSH1 0xA0 SHL SUB AND SWAP1 DUP3 ADD MSTORE PUSH1 0x80 SWAP2 DUP3 ADD MLOAD SWAP2 DUP2 ADD SWAP2 SWAP1 SWAP2 MSTORE PUSH1 0xA0 ADD SWAP1 JUMP JUMPDEST PUSH1 0x1 PUSH1 0x1 PUSH1 0x80 SHL SUB SWAP2 SWAP1 SWAP2 AND DUP2 MSTORE PUSH1 0x20 ADD SWAP1 JUMP JUMPDEST PUSH2 0xFFFF SWAP3 SWAP1 SWAP3 AND DUP3 MSTORE PUSH1 0x20 DUP3 ADD MSTORE PUSH1 0x40 ADD SWAP1 JUMP JUMPDEST DUP4 DUP2 MSTORE PUSH1 0x80 DUP2 ADD PUSH1 0x20 DUP1 DUP4 ADD DUP6 PUSH1 0x0 JUMPDEST PUSH1 0x2 DUP2 LT ISZERO PUSH2 0x5730 JUMPI DUP2 MLOAD DUP4 MSTORE SWAP2 DUP4 ADD SWAP2 SWAP1 DUP4 ADD SWAP1 PUSH1 0x1 ADD PUSH2 0x5713 JUMP JUMPDEST POP POP POP POP DUP3 PUSH1 0x60 DUP4 ADD MSTORE SWAP5 SWAP4 POP POP POP POP JUMP JUMPDEST SWAP2 DUP3 MSTORE ISZERO ISZERO PUSH1 0x20 DUP3 ADD MSTORE PUSH1 0x40 ADD SWAP1 JUMP INVALID LOG2 PUSH5 0x6970667358 0x22 SLT KECCAK256 0x27 DUP4 0xA8 0x5E SMOD DUP13 0xD6 PUSH32 0x4338761955DDBAF90CFA2C81B587D096196E22A4EF91135D64736F6C63430007 MOD STOP CALLER ","sha1":"c66c205afe623b490bc8ff84cd8d6fe00bdd4f59","source":"// SPDX-License-Identifier: GPL-3.0-only\npragma solidity =0.7.6;\npragma abicoder v2;\n\nimport {ActionGuards} from \"./ActionGuards.sol\";\nimport {IVaultAccountAction} from \"../../../interfaces/notional/IVaultController.sol\";\nimport \"../../internal/vaults/VaultConfiguration.sol\";\nimport \"../../internal/vaults/VaultAccount.sol\";\nimport {VaultStateLib, VaultState} from \"../../internal/vaults/VaultState.sol\";\nimport {TokenHandler, Token, AaveHandler} from \"../../internal/balances/TokenHandler.sol\";\n\ncontract VaultAccountAction is ActionGuards, IVaultAccountAction {\n    using VaultConfiguration for VaultConfig;\n    using VaultAccountLib for VaultAccount;\n    using VaultStateLib for VaultState;\n    using AssetRate for AssetRateParameters;\n    using TokenHandler for Token;\n    using SafeInt256 for int256;\n    using SafeUint256 for uint256;\n\n    /// @notice Borrows a specified amount of fCash in the vault's borrow currency and deposits it\n    /// all plus the depositAmountExternal into the vault to mint strategy tokens.\n    /// @param account the address that will enter the vault\n    /// @param vault the vault to enter\n    /// @param depositAmountExternal some amount of additional collateral in the borrowed currency\n    /// to be transferred to vault\n    /// @param maturity the maturity to borrow at\n    /// @param fCash amount to borrow\n    /// @param maxBorrowRate maximum interest rate to borrow at\n    /// @param vaultData additional data to pass to the vault contract\n    /// @return strategyTokensAdded the total strategy tokens added to the maturity, including any tokens\n    /// from settlement. Allows enterVault to be used by off-chain methods to get an accurate simulation\n    /// of the strategy tokens minted.\n    function enterVault(\n        address account,\n        address vault,\n        uint256 depositAmountExternal,\n        uint256 maturity,\n        uint256 fCash,\n        uint32 maxBorrowRate,\n        bytes calldata vaultData\n    ) external payable override nonReentrant returns (uint256 strategyTokensAdded) { \n        // Ensure that system level accounts cannot enter vaults\n        requireValidAccount(account);\n        VaultConfig memory vaultConfig = VaultConfiguration.getVaultConfigStateful(vault);\n        vaultConfig.authorizeCaller(account, VaultConfiguration.ONLY_VAULT_ENTRY);\n\n        // If the vault allows further re-entrancy then set the status back to the default\n        if (vaultConfig.getFlag(VaultConfiguration.ALLOW_REENTRANCY)) {\n            reentrancyStatus = _NOT_ENTERED;\n        }\n\n        // Vaults cannot be entered if they are paused or matured\n        require(vaultConfig.getFlag(VaultConfiguration.ENABLED), \"Cannot Enter\");\n        require(block.timestamp < maturity, \"Cannot Enter\");\n        VaultAccount memory vaultAccount = VaultAccountLib.getVaultAccount(account, vault);\n\n        uint256 strategyTokens;\n        if (vaultAccount.maturity != 0 && vaultAccount.maturity <= block.timestamp) {\n            // These strategy tokens will be transferred to the new maturity\n            strategyTokens = vaultAccount.settleVaultAccount(vaultConfig, block.timestamp);\n        }\n\n        // Deposits some amount of underlying tokens into the vault directly to serve as additional collateral when\n        // entering the vault.\n        uint256 additionalUnderlyingExternal = vaultConfig.transferUnderlyingToVaultDirect(account, depositAmountExternal);\n        strategyTokensAdded = vaultAccount.borrowAndEnterVault(\n            vaultConfig, maturity, fCash, maxBorrowRate, vaultData, strategyTokens, additionalUnderlyingExternal\n        );\n\n        emit VaultEnterPosition(vault, account, maturity, fCash);\n    }\n\n    /// @notice Re-enters the vault at a longer dated maturity. The account's existing borrow position will be closed\n    /// and a new borrow position at the specified maturity will be opened. Strategy token holdings will transfer to\n    /// the longer dated maturity.\n    /// @param account the address that will reenter the vault\n    /// @param vault the vault to reenter\n    /// @param fCashToBorrow amount of fCash to borrow in the next maturity\n    /// @param maturity new maturity to borrow at\n    /// @param depositAmountExternal amount to deposit into the new maturity\n    /// @param minLendRate slippage protection for repaying debts\n    /// @param maxBorrowRate slippage protection for new borrow position\n    /// @return strategyTokensAdded the total strategy tokens added to the maturity, including any tokens\n    /// rolled from the previous maturity.. Allows rollVaultPosition to be used by off-chain methods to get\n    /// an accurate simulation of the strategy tokens minted.\n    function rollVaultPosition(\n        address account,\n        address vault,\n        uint256 fCashToBorrow,\n        uint256 maturity,\n        uint256 depositAmountExternal,\n        uint32 minLendRate,\n        uint32 maxBorrowRate,\n        bytes calldata enterVaultData\n    ) external payable override nonReentrant returns (uint256 strategyTokensAdded) {\n        VaultConfig memory vaultConfig = VaultConfiguration.getVaultConfigStateful(vault);\n        vaultConfig.authorizeCaller(account, VaultConfiguration.ONLY_VAULT_ROLL);\n\n        // If the vault allows further re-entrancy then set the status back to the default\n        if (vaultConfig.getFlag(VaultConfiguration.ALLOW_REENTRANCY)) {\n            reentrancyStatus = _NOT_ENTERED;\n        }\n\n        VaultAccount memory vaultAccount = VaultAccountLib.getVaultAccount(account, vault);\n        // Cannot roll unless all of these requirements are met\n        require(\n            vaultConfig.getFlag(VaultConfiguration.ENABLED) &&\n            vaultConfig.getFlag(VaultConfiguration.ALLOW_ROLL_POSITION) &&\n            block.timestamp < vaultAccount.maturity && // cannot have matured yet\n            vaultAccount.maturity < maturity && // new maturity must be forward in time\n            fCashToBorrow > 0, // must borrow into the next maturity, if not, then they should just exit\n            \"No Roll Allowed\"\n        );\n\n        VaultState memory vaultState = VaultStateLib.getVaultState(vaultConfig.vault, vaultAccount.maturity);\n        // Exit the maturity pool by removing all the vault shares. All of the strategy tokens will be\n        // re-deposited into the new maturity\n        uint256 strategyTokens = vaultState.exitMaturity(vaultAccount, vaultAccount.vaultShares);\n\n        // Exit the vault first and debit the temporary cash balance with the cost to exit\n        vaultAccount.lendToExitVault(\n            vaultConfig,\n            vaultState,\n            vaultAccount.fCash.neg(), // must fully exit the fCash position\n            minLendRate,\n            block.timestamp\n        );\n\n        // This should never be the case for a healthy vault account due to the mechanics of exiting the vault\n        // above but we check it for safety here.\n        require(vaultAccount.fCash == 0, \"Failed Lend\");\n        vaultState.setVaultState(vaultConfig.vault);\n\n        // Takes a deposit from the user as repayment for the lending, allows an account to roll their position\n        // even if they are close to the max borrow capacity.\n        if (depositAmountExternal > 0) {\n            vaultAccount.depositForRollPosition(vaultConfig, depositAmountExternal);\n        }\n\n        // Enters the vault at the longer dated maturity\n        strategyTokensAdded = vaultAccount.borrowAndEnterVault(\n            vaultConfig,\n            maturity, // This is the new maturity to enter\n            fCashToBorrow,\n            maxBorrowRate,\n            enterVaultData,\n            strategyTokens,\n            0 // No additional tokens deposited in this method\n        );\n\n        emit VaultRollPosition(vault, account, maturity, fCashToBorrow);\n    }\n\n    /// @notice Prior to maturity, allows an account to withdraw their position from the vault. Will\n    /// redeem some number of vault shares to the borrow currency and close the borrow position by\n    /// lending `fCashToLend`. Any shortfall in cash from lending will be transferred from the account,\n    /// any excess profits will be transferred to the account.\n    /// Post maturity, will net off the account's debt against vault cash balances and redeem all remaining\n    /// strategy tokens back to the borrowed currency and transfer the profits to the account.\n    /// @param account the address that will exit the vault\n    /// @param vault the vault to enter\n    /// @param receiver the address that will receive profits\n    /// @param vaultSharesToRedeem amount of vault tokens to exit, only relevant when exiting pre-maturity\n    /// @param fCashToLend amount of fCash to lend\n    /// @param minLendRate the minimum rate to lend at\n    /// @param exitVaultData passed to the vault during exit\n    /// @return underlyingToReceiver amount of underlying tokens returned to the receiver on exit\n    function exitVault(\n        address account,\n        address vault,\n        address receiver,\n        uint256 vaultSharesToRedeem,\n        uint256 fCashToLend,\n        uint32 minLendRate,\n        bytes calldata exitVaultData\n    ) external payable override nonReentrant returns (uint256 underlyingToReceiver) {\n        VaultConfig memory vaultConfig = VaultConfiguration.getVaultConfigStateful(vault);\n        vaultConfig.authorizeCaller(account, VaultConfiguration.ONLY_VAULT_EXIT);\n\n        // If the vault allows further re-entrancy then set the status back to the default\n        if (vaultConfig.getFlag(VaultConfiguration.ALLOW_REENTRANCY)) {\n            reentrancyStatus = _NOT_ENTERED;\n        }\n\n        VaultAccount memory vaultAccount = VaultAccountLib.getVaultAccount(account, vault);\n\n        if (vaultAccount.maturity <= block.timestamp) {\n            // Save this off because settleVaultAccount will clear the maturity\n            uint256 maturity = vaultAccount.maturity;\n            // Past maturity, an account will be settled instead\n            uint256 strategyTokens = vaultAccount.settleVaultAccount(vaultConfig, block.timestamp);\n\n            if (vaultAccount.tempCashBalance > 0) {\n                // Transfer asset cash back to the account\n                VaultConfiguration.transferFromNotional(\n                    receiver, vaultConfig.borrowCurrencyId, vaultAccount.tempCashBalance\n                );\n                vaultAccount.tempCashBalance = 0;\n            }\n\n            // Redeems all strategy tokens and any profits are sent back to the account, it is possible for temp\n            // cash balance to be negative here if the account is insolvent\n            underlyingToReceiver = vaultConfig.redeemWithDebtRepayment(\n                vaultAccount, receiver, strategyTokens, maturity, exitVaultData\n            );\n            emit VaultExitPostMaturity(vault, account, maturity, underlyingToReceiver);\n        } else {\n            VaultState memory vaultState = VaultStateLib.getVaultState(vaultConfig.vault, vaultAccount.maturity);\n            // Puts a negative cash balance on the vault's temporary cash balance\n            vaultAccount.lendToExitVault(\n                vaultConfig, vaultState, fCashToLend.toInt(), minLendRate, block.timestamp\n            );\n\n            uint256 strategyTokens = vaultState.exitMaturity(vaultAccount, vaultSharesToRedeem);\n\n            if (vaultAccount.tempCashBalance > 0) {\n                // Transfer asset cash back to the account, this is possible if there is asset cash\n                // when the vault exits the maturity\n                VaultConfiguration.transferFromNotional(\n                    receiver, vaultConfig.borrowCurrencyId, vaultAccount.tempCashBalance\n                );\n                vaultAccount.tempCashBalance = 0;\n            }\n\n            if (strategyTokens > 0) {\n                underlyingToReceiver = vaultConfig.redeemWithDebtRepayment(\n                    vaultAccount, receiver, strategyTokens, vaultState.maturity, exitVaultData\n                );\n            }\n\n            if (vaultAccount.fCash < 0) {\n                // It's possible that the user redeems more vault shares than they lend (it is not always the case\n                // that they will be increasing their collateral ratio here, so we check that this is the case).\n                vaultConfig.checkCollateralRatio(vaultState, vaultAccount);\n            }\n\n            // Set the vault state after redemption completes\n            vaultState.setVaultState(vaultConfig.vault);\n            emit VaultExitPreMaturity(vault, account, vaultState.maturity, fCashToLend, vaultSharesToRedeem, underlyingToReceiver);\n        }\n\n        if (vaultAccount.fCash == 0 && vaultAccount.vaultShares == 0) {\n            // If the account has no position in the vault at this point, set the maturity to zero as well\n            vaultAccount.maturity = 0;\n        }\n        vaultAccount.setVaultAccount(vaultConfig);\n    }\n\n    /// @notice If an account is below the minimum collateral ratio, this method wil deleverage (liquidate)\n    /// that account. `depositAmountExternal` in the borrow currency will be transferred from the liquidator\n    /// and used to offset the account's debt position. The liquidator will receive either vaultShares or\n    /// cash depending.\n    /// @param account the address that will exit the vault\n    /// @param vault the vault to enter\n    /// @param liquidator the address that will receive profits from liquidation\n    /// @param depositAmountExternal amount of asset cash to deposit\n    /// @param transferSharesToLiquidator transfers the shares to the liquidator instead of redeeming them\n    /// @param redeemData calldata sent to the vault when redeeming liquidator profits\n    /// @return profitFromLiquidation amount of vaultShares or cash received from liquidation\n    function deleverageAccount(\n        address account,\n        address vault,\n        address liquidator,\n        uint256 depositAmountExternal,\n        bool transferSharesToLiquidator,\n        bytes calldata redeemData\n    ) external nonReentrant override returns (uint256 profitFromLiquidation) {\n        VaultConfig memory vaultConfig = _authenticateDeleverage(account, vault, liquidator);\n        VaultAccount memory vaultAccount = VaultAccountLib.getVaultAccount(account, vault);\n        VaultState memory vaultState = VaultStateLib.getVaultState(vault, vaultAccount.maturity);\n\n        // Check that the account has an active position. After maturity, accounts will be settled instead.\n        require(block.timestamp < vaultAccount.maturity);\n\n        // Check that the collateral ratio is below the minimum allowed\n        (int256 collateralRatio, int256 vaultShareValue) = vaultConfig.calculateCollateralRatio(\n            vaultState, account, vaultAccount.vaultShares, vaultAccount.fCash\n        );\n        require(collateralRatio < vaultConfig.minCollateralRatio , \"Sufficient Collateral\");\n\n        Token memory assetToken = TokenHandler.getAssetToken(vaultConfig.borrowCurrencyId);\n        // This will deposit some amount of cash into vaultAccount.tempCashBalance\n        _depositLiquidatorAmount(\n            liquidator, assetToken, vaultAccount, vaultConfig, depositAmountExternal, vaultShareValue\n        );\n\n        // The liquidator will purchase vault shares from the vault account at discount. The calculation is:\n        // (cashDeposited / assetCashValueOfShares) * liquidationRate * vaultShares\n        //      where cashDeposited / assetCashValueOfShares represents the share of the total vault share\n        //      value the liquidator has deposited\n        //      and liquidationRate is a percentage greater than 100% that represents their bonus\n        uint256 vaultSharesToLiquidator;\n        {\n            vaultSharesToLiquidator = vaultAccount.tempCashBalance.toUint()\n                .mul(vaultConfig.liquidationRate.toUint())\n                .mul(vaultAccount.vaultShares)\n                .div(vaultShareValue.toUint())\n                .div(uint256(Constants.RATE_PRECISION));\n        }\n\n        vaultAccount.vaultShares = vaultAccount.vaultShares.sub(vaultSharesToLiquidator);\n        // The liquidated account will lend to exit their position at a zero interest rate and forgo any future interest\n        // from asset tokens. Trading on the AMM during liquidation is risky and lending at a zero interest rate is more\n        // costly to the the liquidated account but is safer from a protocol perspective. This can be seen as a protocol\n        // level liquidation fee.\n        {\n            int256 fCashToReduce = vaultConfig.assetRate.convertToUnderlying(vaultAccount.tempCashBalance);\n            vaultAccount.updateAccountfCash(vaultConfig, vaultState, fCashToReduce, vaultAccount.tempCashBalance.neg());\n            // _calculateLiquidatorDeposit should ensure that we only ever lend up to a zero balance, but in the\n            // case of any off by one issues we clear the fCash balance by down to zero.\n            if (vaultAccount.fCash > 0) vaultAccount.fCash = 0;\n            emit VaultDeleverageAccount(vault, account, vaultSharesToLiquidator, fCashToReduce);\n        }\n\n        // Sets the liquidated account account\n        vaultAccount.setVaultAccount(vaultConfig);\n\n        // Redeems the vault shares for asset cash and transfers it to the designated address\n        emit VaultLiquidatorProfit(vault, account, liquidator, vaultSharesToLiquidator, transferSharesToLiquidator);\n        if (transferSharesToLiquidator) {\n            vaultState.setVaultState(vaultConfig.vault);\n            profitFromLiquidation = _transferLiquidatorProfits(liquidator, vaultConfig, vaultSharesToLiquidator, vaultAccount.maturity);\n        } else {\n            profitFromLiquidation = _redeemLiquidatorProfits(\n                liquidator, vaultConfig, vaultState, vaultSharesToLiquidator, redeemData, assetToken\n            );\n        }\n    }\n\n    /// @notice Authenticates a call to the deleverage method\n    function _authenticateDeleverage(\n        address account,\n        address vault,\n        address liquidator\n    ) private returns (VaultConfig memory vaultConfig) {\n        vaultConfig = VaultConfiguration.getVaultConfigStateful(vault);\n        // If the vault allows further re-entrancy then set the status back to the default\n        if (vaultConfig.getFlag(VaultConfiguration.ALLOW_REENTRANCY)) {\n            reentrancyStatus = _NOT_ENTERED;\n        }\n\n        // Authorization rules for deleveraging\n        if (vaultConfig.getFlag(VaultConfiguration.ONLY_VAULT_DELEVERAGE)) {\n            require(msg.sender == vault, \"Unauthorized\");\n        } else {\n            require(msg.sender == liquidator, \"Unauthorized\");\n        }\n\n        // Cannot liquidate self, if a vault needs to deleverage itself as a whole it has other methods \n        // in VaultAction to do so.\n        require(account != msg.sender && account != liquidator, \"Unauthorized\");\n    }\n\n    /// @notice Calculates the amount the liquidator must deposit and then transfers it into Notional,\n    /// crediting the account's temporary cash balance. Deposits must be in the form of asset cash.\n    function _depositLiquidatorAmount(\n        address liquidator,\n        Token memory assetToken,\n        VaultAccount memory vaultAccount,\n        VaultConfig memory vaultConfig,\n        uint256 _depositAmountExternal,\n        int256 vaultShareValue\n    ) private {\n        int256 depositAmountExternal = _depositAmountExternal.toInt();\n        if (assetToken.tokenType == TokenType.aToken) {\n            // Handles special accounting requirements for aTokens\n            depositAmountExternal = AaveHandler.convertToScaledBalanceExternal(\n                vaultConfig.borrowCurrencyId, depositAmountExternal\n            );\n        }\n\n        // Calculates the maximum deleverage amount\n        (\n            int256 maxLiquidatorDepositAssetCash,\n            int256 debtOutstandingAboveMinBorrow\n        ) = vaultAccount.calculateDeleverageAmount(vaultConfig, vaultShareValue);\n        // Catch potential edge cases where this is negative due to insolvency inside the vault itself\n        require(maxLiquidatorDepositAssetCash > 0);\n        // For aTokens this amount is in scaled balance external precision (the same as depositAmountExternal)\n        int256 maxLiquidatorDepositExternal = assetToken.convertToExternal(maxLiquidatorDepositAssetCash);\n\n        // NOTE: deposit amount external is always positive in this method\n        if (depositAmountExternal < maxLiquidatorDepositExternal) {\n            // If liquidating past the debt outstanding above the min borrow, then the entire debt outstanding\n            // must be liquidated (that is set to maxLiquidatorDepositExternal)\n            require(depositAmountExternal < assetToken.convertToExternal(debtOutstandingAboveMinBorrow), \"Must Liquidate All Debt\");\n        } else {\n            // In the other case, limit the deposited amount to the maximum\n            depositAmountExternal = maxLiquidatorDepositExternal;\n        }\n\n        // Transfers the amount of asset tokens into Notional and credit it to the account's temp cash balance\n        int256 assetAmountExternalTransferred = assetToken.transfer(\n            liquidator, vaultConfig.borrowCurrencyId, depositAmountExternal\n        );\n\n        vaultAccount.tempCashBalance = vaultAccount.tempCashBalance.add(\n            assetToken.convertToInternal(assetAmountExternalTransferred)\n        );\n    }\n\n    /// @notice Transfers liquidator profits in the form of vault shares to be returned to the liquidator\n    function _transferLiquidatorProfits(\n        address receiver,\n        VaultConfig memory vaultConfig,\n        uint256 vaultSharesToLiquidator,\n        uint256 maturity\n    ) private returns (uint256) {\n        // Liquidator will receive vault shares that they can redeem by calling exitVault. If the liquidator has a\n        // leveraged position on then their collateral ratio will increase\n        VaultAccount memory liquidator = VaultAccountLib.getVaultAccount(receiver, vaultConfig.vault);\n        // The liquidator must be able to receive the vault shares (i.e. not be in the vault at all or be in the\n        // vault at the same maturity). If the liquidator has fCash in the current maturity then their collateral\n        // ratio will increase as a result of the liquidation, no need to check their collateral position.\n        require(liquidator.maturity == 0 || liquidator.maturity == maturity, \"Vault Shares Mismatch\"); // dev: has vault shares\n        liquidator.maturity = maturity;\n        liquidator.vaultShares = liquidator.vaultShares.add(vaultSharesToLiquidator);\n        liquidator.setVaultAccount(vaultConfig);\n\n        return vaultSharesToLiquidator;\n    }\n\n    /// @notice Redeems liquidator profits back to asset cash and transfers it to the liquidator\n    function _redeemLiquidatorProfits(\n        address liquidator,\n        VaultConfig memory vaultConfig,\n        VaultState memory vaultState,\n        uint256 vaultShares,\n        bytes calldata redeemData,\n        Token memory assetToken\n    ) private returns (uint256 underlyingToReceiver) {\n        (uint256 assetCash, uint256 strategyTokens) = vaultState.exitMaturityDirect(vaultShares);\n        (/* */, underlyingToReceiver) = vaultConfig.redeemWithoutDebtRepayment(\n            liquidator, strategyTokens, vaultState.maturity, redeemData\n        );\n\n        // Set the vault state after redemption completes\n        vaultState.setVaultState(vaultConfig.vault);\n\n        if (assetCash > 0) {\n            // Represents the amount of asset cash returned to the liquidator in underlying terms\n            uint256 underlyingRedeemed = assetToken.redeem(\n                vaultConfig.borrowCurrencyId, liquidator, assetToken.convertToExternal(assetCash.toInt()).toUint()\n            ).neg().toUint();\n            underlyingToReceiver = underlyingToReceiver.add(underlyingRedeemed);\n        }\n    }\n\n    /** View Methods **/\n    function getVaultAccount(address account, address vault) external override view returns (VaultAccount memory) {\n        return VaultAccountLib.getVaultAccount(account, vault);\n    }\n\n    function getVaultAccountDebtShares(\n        address account,\n        address vault\n    ) external override view returns (\n        uint256 debtSharesMaturity,\n        uint256[2] memory accountDebtShares,\n        uint256 accountStrategyTokens\n    ) {\n        VaultAccountSecondaryDebtShareStorage storage s = \n            LibStorage.getVaultAccountSecondaryDebtShare()[account][vault];\n        debtSharesMaturity = s.maturity;\n        accountDebtShares[0] = s.accountDebtSharesOne;\n        accountDebtShares[1] = s.accountDebtSharesTwo;\n\n        VaultAccount memory vaultAccount = VaultAccountLib.getVaultAccount(account, vault);\n        VaultState memory vaultState = VaultStateLib.getVaultState(vault, vaultAccount.maturity);\n        (/* */, accountStrategyTokens) = vaultState.getPoolShare(vaultAccount.vaultShares);\n    }\n\n    function getVaultAccountCollateralRatio(address account, address vault) external override view returns (\n        int256 collateralRatio,\n        int256 minCollateralRatio,\n        int256 maxLiquidatorDepositAssetCash\n    ) {\n        VaultConfig memory vaultConfig = VaultConfiguration.getVaultConfigView(vault);\n        VaultAccount memory vaultAccount = VaultAccountLib.getVaultAccount(account, vault);\n        VaultState memory vaultState = VaultStateLib.getVaultState(vault, vaultAccount.maturity);\n        minCollateralRatio = vaultConfig.minCollateralRatio;\n\n        if (vaultState.isSettled) {\n            // In this case, the maturity has been settled and although the vault account says that it has\n            // some fCash balance it does not actually owe any debt anymore.\n            collateralRatio = type(int256).max;\n        } else {\n            int256 vaultShareValue;\n            (collateralRatio, vaultShareValue) = vaultConfig.calculateCollateralRatio(\n                vaultState, account, vaultAccount.vaultShares, vaultAccount.fCash\n            );\n\n            // Calculates liquidation factors if the account is eligible\n            if (collateralRatio < minCollateralRatio && vaultShareValue > 0) {\n                (maxLiquidatorDepositAssetCash, /* */) = vaultAccount.calculateDeleverageAmount(\n                    vaultConfig, vaultShareValue\n                );\n            }\n        }\n    }\n\n    function getLibInfo() external pure returns (address) {\n        return address(TradingAction);\n    }\n}\n","sourcePath":"contracts/external/actions/VaultAccountAction.sol","type":"contract","deployment":{"address":"0xD6542036A7681F6b79b6Ea48fEcbF0B1D64592d5","chainid":"5","blockHeight":7585936}}