{"bytecode":"608060405234801561001057600080fd5b506138bc806100206000396000f3fe6080604052600436106100e75760003560e01c8063735a1dc81161008a578063a22cb46511610059578063a22cb4651461026a578063c4c96dae1461028a578063e985e9c5146102ad578063f242432a146102cd576100e7565b8063735a1dc81461020057806381a868551461022057806382463367146102405780638da5cb5b14610255576100e7565b806324a3d622116100c657806324a3d6221461016f5780632eb2c2d6146101915780633fa6b808146101a65780634e1273f4146101d3576100e7565b8062fdd58e146100ec57806301ffc9a7146101225780630fac8f091461014f575b600080fd5b3480156100f857600080fd5b5061010c610107366004613112565b6102e0565b6040516101199190613615565b60405180910390f35b34801561012e57600080fd5b5061014261013d3660046131bd565b610312565b604051610119919061360a565b34801561015b57600080fd5b5061010c61016a366004613112565b61032c565b34801561017b57600080fd5b50610184610380565b60405161011991906133d9565b6101a461019f366004612fae565b61038f565b005b3480156101b257600080fd5b506101c66101c136600461313d565b610557565b6040516101199190613556565b3480156101df57600080fd5b506101f36101ee36600461313d565b610572565b6040516101199190613512565b34801561020c57600080fd5b5061010c61021b366004613321565b610635565b34801561022c57600080fd5b506101f361023b36600461313d565b61065a565b34801561024c57600080fd5b50610184610713565b34801561026157600080fd5b50610184610722565b34801561027657600080fd5b506101a46102853660046130e1565b610739565b34801561029657600080fd5b5061029f6107a8565b60405161011992919061348c565b3480156102b957600080fd5b506101426102c8366004612f76565b6107d6565b6101a46102db366004613068565b61082e565b6000806102ed848461032c565b9050600081126103055761030081610a23565b610308565b60005b9150505b92915050565b6001600160e01b03198116636cdb3d1360e11b145b919050565b60008061033884610a36565b905061034381610ad7565b156103625761035b84826060015161ffff1685610ae4565b9150610379565b610308610373858360400151610b2f565b84610b58565b5092915050565b6002546001600160a01b031681565b6103998888610bde565b6000806103a888888888610c7e565b9150915080156103e1576103bc89336107d6565b6103e15760405162461bcd60e51b81526004016103d8906136a5565b60405180910390fd5b6000806103ef8c8c86610dc8565b915091506104028c8c84848a8a89610f68565b8a6001600160a01b03168c6001600160a01b0316336001600160a01b03167f4a39dc06d4c0dbc64b70af90fd698a233a518aa5d07e595d983b8c0526c8f7fb8d8d8d8d60405161045594939291906135d8565b60405180910390a46104668b61122b565b15610549577fbc197c819b3e337a6f9652dd10becd7eef83032af3b9d958d3d42f66941466216001600160e01b0319168b6001600160a01b031663bc197c81338f8e8e8e8e8e8e6040518963ffffffff1660e01b81526004016104d09897969594939291906133ed565b602060405180830381600087803b1580156104ea57600080fd5b505af11580156104fe573d6000803e3d6000fd5b505050506040513d601f19601f8201168201806040525081019061052291906131d9565b6001600160e01b031916146105495760405162461bcd60e51b81526004016103d89061379e565b505050505050505050505050565b6060600061056786868686610c7e565b509695505050505050565b606083821461058057600080fd5b6000846001600160401b038111801561059857600080fd5b506040519080825280602002602001820160405280156105c2578160200160208202803683370190505b50905060005b8581101561062b5761060c8787838181106105df57fe5b90506020020160208101906105f49190612f5a565b86868481811061060057fe5b905060200201356102e0565b82828151811061061857fe5b60209081029190910101526001016105c8565b5095945050505050565b60006106508461ffff168464ffffffffff168460ff16611231565b90505b9392505050565b606083821461066857600080fd5b6000846001600160401b038111801561068057600080fd5b506040519080825280602002602001820160405280156106aa578160200160208202803683370190505b50905060005b8581101561062b576106f48787838181106106c757fe5b90506020020160208101906106dc9190612f5a565b8686848181106106e857fe5b9050602002013561032c565b82828151811061070057fe5b60209081029190910101526001016106b0565b6001546001600160a01b031681565b60005464010000000090046001600160a01b031681565b3360008181526007602090815260408083206001600160a01b038716808552925291829020805460ff191685151517905590519091907f17307eab39ab6107e8899845ad3d59bd9653f200f220920489ca2b5937696c319061079c90859061360a565b60405180910390a35050565b73__FreeCollateralExternal________________73__SettleAssetsExternal__________________9091565b6001600160a01b03811660009081526006602052604081205460ff16156107ff5750600161030c565b506001600160a01b03918216600090815260076020908152604080832093909416825291909152205460ff1690565b6108388686610bde565b610840612e16565b831561093657604080516001808252818301909252600091816020015b610865612e44565b81526020019060019003908161085d57905050905060008160008151811061088957fe5b6020026020010151905061089c8761128c565b6040840152602083015281526108b1866112a9565b6060820152805160208201516108c89190426112bf565b6108d3898984610dc8565b5080935050876001600160a01b0316896001600160a01b0316336001600160a01b03167fc3d58168c5ae7397731d063d5bbf3d657854427343f4c083240f7aacaa2d0f628a8a6040516109279291906137c4565b60405180910390a45050610942565b61093f87610a36565b90505b61094a612e16565b61095a8888848488886000610f68565b6109638761122b565b15610a195760405163f23a6e6160e01b808252906001600160a01b0389169063f23a6e61906109a09033908d908c908c908c908c90600401613451565b602060405180830381600087803b1580156109ba57600080fd5b505af11580156109ce573d6000803e3d6000fd5b505050506040513d601f19601f820116820180604052508101906109f291906131d9565b6001600160e01b03191614610a195760405162461bcd60e51b81526004016103d89061379e565b5050505050505050565b600080821215610a3257600080fd5b5090565b610a3e612e16565b6000610a486112f6565b6001600160a01b039390931660009081526020938452604090819020815160a081018352905464ffffffffff8116825265010000000000810460f81b6001600160f81b03191695820195909552600160301b850460ff1691810191909152600160381b840461ffff166060820152600160481b90930460701b6001600160701b03191660808401525090919050565b6060015161ffff16151590565b600080600080610af38561128c565b9250925092508583141580610b09575060018114155b15610b1a5760009350505050610653565b610b25878484611303565b9350505050610653565b60606000610b3d8484611348565b90506001815111610b4f57905061030c565b6106538161145f565b600080600080610b678561128c565b92509250925060005b8651811015610bd4576000878281518110610b8757fe5b60200260200101519050848160000151148015610ba75750838160200151145b8015610bb65750828160400151145b15610bcb5760600151945061030c9350505050565b50600101610b70565b5050505092915050565b806001600160a01b0316826001600160a01b031614158015610c0857506001600160a01b03811615155b8015610c1d57506001600160a01b0381163014155b610c395760405162461bcd60e51b81526004016103d890613651565b336001600160a01b0383161480610c555750610c5582336107d6565b610c715760405162461bcd60e51b81526004016103d8906136a5565b610c7a8261161d565b5050565b60606000848314610c8e57600080fd5b600080866001600160401b0381118015610ca757600080fd5b50604051908082528060200260200182016040528015610ce157816020015b610cce612e44565b815260200190600190039081610cc65790505b50905060005b87811015610dbb578015610d3b57888860018303818110610d0457fe5b90506020020135898983818110610d1757fe5b9050602002013511610d3b5760405162461bcd60e51b81526004016103d890613772565b6000828281518110610d4957fe5b60200260200101519050610d6e8a8a84818110610d6257fe5b9050602002013561128c565b604084015260208301819052818352610d889190426112bf565b878783818110610d9457fe5b602002919091013560608301819052600013159050610db257600193505b50600101610ce7565b5097909650945050505050565b610dd0612e16565b610dd8612e16565b6000610de385610a36565b9050610dee81611668565b15610e7f576040516337b5fc2160e11b815273__SettleAssetsExternal__________________90636f6bf84290610e2c90889085906004016134a6565b60a06040518083038186803b158015610e4457600080fd5b505af4158015610e58573d6000803e3d6000fd5b505050506040513d601f19601f82011682018060405250810190610e7c919061328b565b90505b610e8a8582866116bc565b9050610e96818661173d565b610e9f84611841565b6000610eaa87610a36565b9050610eb581611668565b15610f46576040516337b5fc2160e11b815273__SettleAssetsExternal__________________90636f6bf84290610ef3908a9085906004016134a6565b60a06040518083038186803b158015610f0b57600080fd5b505af4158015610f1f573d6000803e3d6000fd5b505050506040513d601f19601f82011682018060405250810190610f43919061328b565b90505b610f518782876116bc565b9050610f5d818861173d565b969095509350505050565b60008060208410610f85576000610f81858701876131a5565b9250505b6001600160e01b03198216636689064360e01b1480610fb457506001600160e01b03198216633735195360e11b145b80610fcf57506001600160e01b03198216630276b64b60e01b145b156110df57610fe26024600486886137d2565b810190610fef9190612f5a565b9050886001600160a01b0316816001600160a01b031614806110325750876001600160a01b0316816001600160a01b0316148015611032575061103288336107d6565b61104e5760405162461bcd60e51b81526004016103d89061367a565b600080306001600160a01b031634888860405161106c9291906133c9565b60006040518083038185875af1925050503d80600081146110a9576040519150601f19603f3d011682016040523d82523d6000602084013e6110ae565b606091505b5091509150816110bd82611890565b906110db5760405162461bcd60e51b81526004016103d8919061361e565b5050505b886001600160a01b0316816001600160a01b03161415801561110e575060208701516001600160f81b03191615155b1561117b57604051636ccc642f60e01b815273__FreeCollateralExternal________________90636ccc642f9061114a908c906004016133d9565b60006040518083038186803b15801561116257600080fd5b505af4158015611176573d6000803e3d6000fd5b505050505b82801561119a5750876001600160a01b0316816001600160a01b031614155b80156111b3575060208601516001600160f81b03191615155b1561122057604051636ccc642f60e01b815273__FreeCollateralExternal________________90636ccc642f906111ef908b906004016133d9565b60006040518083038186803b15801561120757600080fd5b505af415801561121b573d6000803e3d6000fd5b505050505b505050505050505050565b3b151590565b6000613fff84111561124257600080fd5b64ffffffffff83111561125457600080fd5b600882111561126257600080fd5b5067ffff000000000000603084901b1665ffffffffff00600884901b161760ff8216179392505050565b61ffff603082901c169164ffffffffff600883901c169160ff1690565b60006001600160ff1b03821115610a3257600080fd5b6112d56112cb846118f0565b60ff168383611906565b6112f15760405162461bcd60e51b81526004016103d890613748565b505050565b60008061030c6001611956565b60008061130e61196f565b6001600160a01b03861660009081526020918252604080822087835283528082208683529092522054600f90810b900b9150509392505050565b606060108260ff16111561135b57600080fd5b600061136561197c565b6001600160a01b038516600090815260208290526040812091925060ff85166001600160401b038111801561139957600080fd5b506040519080825280602002602001820160405280156113d357816020015b6113c0612e44565b8152602001906001900390816113b85790505b50905060005b8560ff1681101561062b5760008382601081106113f257fe5b019050600083838151811061140357fe5b602090810291909101810151835461ffff8116825264ffffffffff620100008204169282019290925260ff600160381b8304166040820152600160401b909104600a90810b900b606082015260800191909152506001016113d9565b80516000816001600160401b038111801561147957600080fd5b506040519080825280602002602001820160405280156114a3578160200160208202803683370190505b50905060005b828110156115005760008482815181106114bf57fe5b602002602001015190506114e0816000015182602001518360400151611231565b8383815181106114ec57fe5b6020908102919091010152506001016114a9565b5060015b8281101561161757805b600081118015611546575082818151811061152557fe5b602002602001015183600183038151811061153c57fe5b6020026020010151115b1561160e5782818151811061155757fe5b602002602001015183600183038151811061156e57fe5b602002602001015184600184038151811061158557fe5b6020026020010185848151811061159857fe5b60200260200101828152508281525050508481815181106115b557fe5b60200260200101518560018303815181106115cc57fe5b60200260200101518660018403815181106115e357fe5b602002602001018784815181106115f657fe5b6020908102919091010191909152526000190161150e565b50600101611504565b50505050565b6001600160a01b03811661163057600080fd5b6001600160a01b03811630141561164657600080fd5b600061165182611989565b5050505061ffff16905080600014610c7a57600080fd5b60004261167483610ad7565b1561169557611682816119f2565b835164ffffffffff161091506103279050565b825164ffffffffff16158015906116b45750825164ffffffffff168110155b915050610327565b6116c4612e16565b6116cd83611668565b156116ea5760405162461bcd60e51b81526004016103d8906136f2565b6116f383610ad7565b1561170857611703848484611a13565b611735565b600061171a8585604001518551611adb565b90506117268184611b6d565b6117338486836000611bcb565b505b509092915050565b60006117476112f6565b6001600160a01b03831660008181526020838152604080832088518154938a0151838b015160608c015160808d015160701c600160481b027affffffffffffffffffffffffffffffffffff0000000000000000001961ffff909216600160381b0268ffff000000000000001960ff94909416600160301b0266ff0000000000001960f89690961c650100000000000265ff00000000001964ffffffffff90981664ffffffffff19909b169a909a1796909616989098179390931693909317169490941716929092179091555192935090917f6bd4b121bca854a191536a2ca891155c42ee2fb23f307fb34e8bc65cfcb5412e9190a2505050565b60005b8151811015610c7a5761186d82828151811061185c57fe5b602002602001015160600151611ca2565b82828151811061187957fe5b602090810291909101015160600152600101611844565b60606044825110156118d6575060408051808201909152601d81527f5472616e73616374696f6e2072657665727465642073696c656e746c790000006020820152610327565b6004820191508180602001905181019061030c91906131f5565b6000806118fc83611cb0565b60ff169392505050565b60008061191283611ccd565b9050600061192961192287611ce9565b8390611d8d565b90508085111561193e57600092505050610653565b600061194a8587611de7565b98975050505050505050565b6000620f424082601281111561196857fe5b0192915050565b60008061030c600c611956565b60008061030c600d611956565b60008060008060008061199a611ef2565b6001600160a01b039097166000908152602097909752505060409094205461ffff81169563ffffffff62010000830481169650600160301b830416945060ff600160501b8304169350600160581b90910460d81b9150565b600062015180821015611a0457600080fd5b62015180825b06909103919050565b611a1c82610ad7565b611a2557600080fd5b606082015161ffff1660005b8251811015611ad4576000838281518110611a4857fe5b60200260200101519050806060015160001415611a655750611acc565b80518314611a7257600080fd5b6040810151600114611a8357600080fd5b6000611aa587858460200151896000015164ffffffffff168660600151611eff565b90506000811215611ac957602086018051600160f81b176001600160f81b03191690525b50505b600101611a31565b5050505050565b611ae3612e84565b611aeb612e84565b60ff8416611afa579050610653565b611b048585610b2f565b815260ff84166060820152826001600160401b0381118015611b2557600080fd5b50604051908082528060200260200182016040528015611b5f57816020015b611b4c612e44565b815260200190600190039081611b445790505b506020820152949350505050565b60005b81518110156112f1576000828281518110611b8757fe5b60200260200101519050806060015160001415611ba45750611bc3565b611bc184826000015183602001518460400151856060015161206c565b505b600101611b70565b6000808080611bda8688612171565b64ffffffffff81168c5292965090945092509050611bf788611668565b15611c0157600080fd5b60ff8216604089015284611c2057600760ff83161115611c2057600080fd5b8315611c4357602088018051600160f81b176001600160f81b0319169052611c52565b602088018051607f60f91b1690525b611c5f88608001516123b0565b6001600160701b031916608089015260005b83156112205760f084901c818114611c9457611c948a826001600160ff1b61242b565b60109490941b939050611c71565b600061030c6000198361262a565b600080611cbb612678565b60009384526020525050604090205490565b60006276a700821015611cdf57600080fd5b6276a70082611a0a565b60008160011415611cfe57506276a700610327565b8160021415611d11575062ed4e00610327565b8160031415611d2557506301da9c00610327565b8160041415611d3957506303b53800610327565b8160051415611d4d57506309450c00610327565b8160061415611d61575063128a1800610327565b8160071415611d7557506325143000610327565b60405162461bcd60e51b81526004016103d8906136cb565b600082820183811015610653576040805162461bcd60e51b815260206004820152601b60248201527f536166654d6174683a206164646974696f6e206f766572666c6f770000000000604482015290519081900360640190fd5b6000806000611df5856119f2565b905062015180840615611e0f576000809250925050611eeb565b838110611e23576000809250925050611eeb565b6201518081850304605a8111611e4057925060019150611eeb9050565b6101688111611e7f576000620151806207e900840604820160591901905060068104605a0160068281611e6f57fe5b0660001494509450505050611eeb565b6108708111611eaf5760006201518062278d00840604820161016719019050601e8104608701601e8281611e6f57fe5b611de28111611edf576000620151806276a700840604820161086f19019050605a810460c301605a8281611e6f57fe5b61010060009350935050505b9250929050565b60008061030c6002611956565b600080611f0c8787612685565b90506000611f1861196f565b6001600160a01b0389166000908152602082815260408083208b845282528083208a8452909152812091925080611f4f888a611de7565b9150915080611f5d57600080fd5b611f6785836126ba565b15611ff6578254600090611f83908990600f90810b900b6126ea565b905060016001607f1b03198112801590611fa4575060016001607f1b038113155b611fad57600080fd5b83546001600160801b0319166001600160801b03600f83900b1617845580611fde57611fdb86846000612700565b95505b611fe98c8c8861274b565b9550612063945050505050565b861561205a5760016001607f1b0319871280159061201b575060016001607f1b038713155b61202457600080fd5b82546001600160801b0319166001600160801b03600f89900b1617835561204d85836001612700565b945061205a8b8b8761274b565b86955050505050505b95945050505050565b845161207b90858585856127a5565b1561208557611ad4565b6040850151156120b25760006120a28660200151868686866127a5565b905080156120b05750611ad4565b505b6120bb826128be565b156120ce5760008112156120ce57600080fd5b6a7fffffffffffffffffffff1981128015906120f557506a7fffffffffffffffffffff8113155b6120fe57600080fd5b846020015151856040015114156121225761211c85602001516128d4565b60208601525b6000856020015186604001518151811061213857fe5b6020908102919091018101519586528501939093526040808501929092526060840152600060a090930192909252500180516001019052565b6000808080808080805b8951518110156122025760008a60000151828151811061219757fe5b602002602001015190506003808111156121ad57fe5b8160a0015160038111156121bd57fe5b14156121c857600080fd5b60028160a0015160038111156121da57fe5b141580156121ea57506060810151155b156121f9576121f98b8361298c565b5060010161217b565b5060005b8951518110156122a55760008a60000151828151811061222257fe5b602002602001015190506002600381111561223957fe5b8160a00151600381111561224957fe5b141561225d5760808101516000905561229c565b60018160a00151600381111561226f57fe5b1415612288576080810151806122858382612adb565b50505b61229481868686612c0c565b919650945092505b50600101612206565b50606089015160006122b561197c565b6001600160a01b038b1660009081526020829052604081209192505b8c602001515181101561237f5760008d6020015182815181106122f057fe5b6020026020010151905080606001516000141561230d5750612377565b60028160a00151600381111561231f57fe5b1415801561233d575060038160a00151600381111561233a57fe5b14155b61234657600080fd5b61235281898989612c0c565b9199509750955061236f8184876010811061236957fe5b01612adb565b600185019450505b6001016122d1565b5060108311158015612396575064ffffffffff8411155b61239f57600080fd5b50939a929950975095509350505050565b6000807f7fff7fff7fff7fff7fff7fff7fff7fff7fff00000000000000000000000000008316815b6001600160701b031982161561242257600160fe1b828116141561240c576001600160f01b03198216811c92909217916010015b6010826001600160701b031916901b91506123d8565b50909392505050565b82600010801561243d5750613fff8311155b61244657600080fd5b81801561245a575082846060015161ffff16145b1561246457611617565b6080840151600090815b6001600160701b03198216156125df5760f082901c613fff1686811480156124935750855b156124cb57506080870180516001600160f01b0319861660109093029290921c919091176001600160701b0319169052506116179050565b86811480156124d8575085155b1561252d576001600160f01b03198516199290921691600360fe1b831661250b576010836001600160701b031916901b92505b506001600160701b031991821660109091021c91909117166080850152611617565b86811180156125395750855b15612593576080888101516001600160f01b031960f08a901b88178116601086021c9690961795911b161561256d57600080fd5b506001600160701b03199182166001919091016010021c91909117166080850152611617565b86811180156125a0575085155b156125ae5750505050611617565b506001600160f01b0319821660108281029190911c93909317929190911b6001600160801b0319169060010161246e565b846125ec57505050611617565b600981106125f957600080fd5b6001600160f01b031960f087901b85171660109091021c919091176001600160701b03191660808601525050505050565b81810260001983141561265a5781158061264c57508282828161264957fe5b05145b61265557600080fd5b61030c565b82158061266f57508183828161266c57fe5b05145b61030c57600080fd5b60008061030c6009611956565b600080612690612c6f565b6001600160a01b038516600090815260209182526040808220868352909252205491505092915050565b6000600182101580156126cf57506101008211155b6126d857600080fd5b50600019011b600160ff1b9081161490565b8181018281121560008312151461030c57600080fd5b60006001831015801561271557506101008311155b61271e57600080fd5b81156127375750600160ff1b60001983011c8317610653565b50600160ff1b60001983011c198316610653565b601461275682612c7c565b11156127745760405162461bcd60e51b81526004016103d89061371f565b600061277e612c6f565b6001600160a01b039094166000908152602094855260408082209482529390945250912055565b6000805b86518110156128b15760008782815181106127c057fe5b602002602001015190508481604001511415806127de575080518714155b806127ed575085816020015114155b156127f857506128a9565b60028160a00151600381111561280a57fe5b14158015612828575060038160a00151600381111561282557fe5b14155b61283157600080fd5b606081015160009061284390866126ea565b905061284e866128be565b1561286157600081121561286157600080fd5b6a7fffffffffffffffffffff19811280159061288857506a7fffffffffffffffffffff8113155b61289157600080fd5b6060820152600160a090910181905291506120639050565b6001016127a9565b5060009695505050505050565b60006002821080159061030c5750506008101590565b6060600082516000146128eb5782516002026128ee565b60015b90506000816001600160401b038111801561290857600080fd5b5060405190808252806020026020018201604052801561294257816020015b61292f612e44565b8152602001906001900390816129275790505b50905060005b84518110156129845784818151811061295d57fe5b602002602001015182828151811061297157fe5b6020908102919091010152600101612948565b509392505050565b815151811061299a57600080fd5b60008260600151116129ab57600080fd5b6000826000015182815181106129bd57fe5b60200260200101519050600260038111156129d457fe5b8160a0015160038111156129e457fe5b14158015612a02575060038160a0015160038111156129ff57fe5b14155b612a0b57600080fd5b606083018051600019019052600080805b855151811015612a7e57600086600001518281518110612a3857fe5b60200260200101519050828160800151118015612a65575060028160a001516003811115612a6257fe5b14155b15612a7557806080015192508193505b50600101612a1c565b5081841415612a97575050600260a09190910152610c7a565b600085600001518381518110612aa957fe5b602090810291909101015160808581018051918301805190915252600160a09182015260029401939093525050505050565b815115801590612aee57508151613fff10155b612af757600080fd5b81602001516000108015612b145750602082015164ffffffffff10155b612b1d57600080fd5b81604001516000108015612b3657506040820151600810155b612b3f57600080fd5b60608201516a7fffffffffffffffffffff1913801590612b6e575060608201516a7fffffffffffffffffffff12155b612b7757600080fd5b8151815460208401516040850151606090950151600a0b6affffffffffffffffffffff16600160401b0272ffffffffffffffffffffff00000000000000001960ff909616600160381b0267ff000000000000001964ffffffffff909316620100000266ffffffffff00001961ffff90961661ffff19909516949094179490941692909217169190911792909216919091179055565b600080600080612c1b88612d4c565b9050841580612c2957508085115b15612c32578094505b8680612c42575060008860600151125b965061ffff861615612c5357600080fd5b50509451939560109390931c60f09490941b9390931793509150565b60008061030c600b611956565b600181901c7f5555555555555555555555555555555555555555555555555555555555555555908116911601600281901c7f3333333333333333333333333333333333333333333333333333333333333333908116911601600481901c7f07070707070707070707070707070707070707070707070707070707070707079190911601600881901c7e0f000f000f000f000f000f000f000f000f000f000f000f000f000f000f000f908116911601601081901c01602081901c01604081901c01608081901c60ff90811691160190565b6000808260400151118015612d6657506040820151600810155b612d6f57600080fd5b6040820151600210612d8657506020810151610327565b6000612d986001846040015103611ce9565b6020840151909150610653906276a70090612db39084612db9565b90611d8d565b600082821115612e10576040805162461bcd60e51b815260206004820152601e60248201527f536166654d6174683a207375627472616374696f6e206f766572666c6f770000604482015290519081900360640190fd5b50900390565b6040805160a08101825260008082526020820181905291810182905260608101829052608081019190915290565b6040518060c00160405280600081526020016000815260200160008152602001600081526020016000815260200160006003811115612e7f57fe5b905290565b6040518060800160405280606081526020016060815260200160008152602001600081525090565b60008083601f840112612ebd578081fd5b5081356001600160401b03811115612ed3578182fd5b6020830191508360208083028501011115611eeb57600080fd5b80516001600160701b03198116811461032757600080fd5b60008083601f840112612f16578182fd5b5081356001600160401b03811115612f2c578182fd5b602083019150836020828501011115611eeb57600080fd5b805161032781613854565b805161032781613877565b600060208284031215612f6b578081fd5b813561065381613826565b60008060408385031215612f88578081fd5b8235612f9381613826565b91506020830135612fa381613826565b809150509250929050565b60008060008060008060008060a0898b031215612fc9578384fd5b8835612fd481613826565b97506020890135612fe481613826565b965060408901356001600160401b0380821115612fff578586fd5b61300b8c838d01612eac565b909850965060608b0135915080821115613023578586fd5b61302f8c838d01612eac565b909650945060808b0135915080821115613047578384fd5b506130548b828c01612f05565b999c989b5096995094979396929594505050565b60008060008060008060a08789031215613080578182fd5b863561308b81613826565b9550602087013561309b81613826565b9450604087013593506060870135925060808701356001600160401b038111156130c3578283fd5b6130cf89828a01612f05565b979a9699509497509295939492505050565b600080604083850312156130f3578182fd5b82356130fe81613826565b915060208301358015158114612fa3578182fd5b60008060408385031215613124578182fd5b823561312f81613826565b946020939093013593505050565b60008060008060408587031215613152578182fd5b84356001600160401b0380821115613168578384fd5b61317488838901612eac565b9096509450602087013591508082111561318c578384fd5b5061319987828801612eac565b95989497509550505050565b6000602082840312156131b6578081fd5b5035919050565b6000602082840312156131ce578081fd5b81356106538161383e565b6000602082840312156131ea578081fd5b81516106538161383e565b600060208284031215613206578081fd5b81516001600160401b038082111561321c578283fd5b818401915084601f83011261322f578283fd5b81518181111561323b57fe5b604051601f8201601f19168101602001838111828210171561325957fe5b604052818152838201602001871015613270578485fd5b6132818260208301602087016137fa565b9695505050505050565b600060a0828403121561329c578081fd5b60405160a081018181106001600160401b03821117156132b857fe5b60405282516132c681613864565b815260208301516001600160f81b0319811681146132e2578283fd5b60208201526132f360408401612f4f565b604082015261330460608401612f44565b606082015261331560808401612eed565b60808201529392505050565b600080600060608486031215613335578081fd5b833561334081613854565b9250602084013561335081613864565b9150604084013561336081613877565b809150509250925092565b81835260006001600160fb1b03831115613383578081fd5b6020830280836020870137939093016020019283525090919050565b60008284528282602086013780602084860101526020601f19601f85011685010190509392505050565b6000828483379101908152919050565b6001600160a01b0391909116815260200190565b6001600160a01b0389811682528816602082015260a06040820181905260009061341a908301888a61336b565b828103606084015261342d81878961336b565b9050828103608084015261344281858761339f565b9b9a5050505050505050505050565b6001600160a01b03878116825286166020820152604081018590526060810184905260a06080820181905260009061194a908301848661339f565b6001600160a01b0392831681529116602082015260400190565b6001600160a01b03929092168252805164ffffffffff166020808401919091528101516001600160f81b03191660408084019190915281015160ff1660608084019190915281015161ffff1660808084019190915201516001600160701b03191660a082015260c00190565b6020808252825182820181905260009190848201906040850190845b8181101561354a5783518352928401929184019160010161352e565b50909695505050505050565b602080825282518282018190526000919060409081850190868401855b828110156135cb5781518051855286810151878601528581015186860152606080820151908601526080808201519086015260a09081015190600482106135b657fe5b85015260c09093019290850190600101613573565b5091979650505050505050565b6000604082526135ec60408301868861336b565b82810360208401526135ff81858761336b565b979650505050505050565b901515815260200190565b90815260200190565b600060208252825180602084015261363d8160408501602087016137fa565b601f01601f19169190910160400192915050565b6020808252600f908201526e496e76616c6964206164647265737360881b604082015260600190565b602080825260119082015270155b985d5d1a1bdc9a5e99590818d85b1b607a1b604082015260600190565b6020808252600c908201526b155b985d5d1a1bdc9a5e995960a21b604082015260600190565b6020808252600d908201526c092dcecc2d8d2c840d2dcc8caf609b1b604082015260600190565b6020808252601390820152724163636f756e74206d75737420736574746c6560681b604082015260600190565b6020808252600f908201526e4f766572206d61782061737365747360881b604082015260600190565b60208082526010908201526f496e76616c6964206d6174757269747960801b604082015260600190565b60208082526012908201527112511cc81b5d5cdd081899481cdbdc9d195960721b604082015260600190565b6020808252600c908201526b139bdd081858d8d95c1d195960a21b604082015260600190565b918252602082015260400190565b600080858511156137e1578182fd5b838611156137ed578182fd5b5050820193919092039150565b60005b838110156138155781810151838201526020016137fd565b838111156116175750506000910152565b6001600160a01b038116811461383b57600080fd5b50565b6001600160e01b03198116811461383b57600080fd5b61ffff8116811461383b57600080fd5b64ffffffffff8116811461383b57600080fd5b60ff8116811461383b57600080fdfea264697066735822122017156ff7fab7b9690caa59c8e8495b162322dce8fe30d62434ee91ae6ffca1ea64736f6c63430007060033","bytecodeSha1":"9f84b601e9df6c8817efabc9833cc1b1a7559d12","type":"contract","abi":[{"anonymous":false,"inputs":[{"indexed":true,"internalType":"address","name":"account","type":"address"},{"indexed":true,"internalType":"address","name":"operator","type":"address"},{"indexed":false,"internalType":"bool","name":"approved","type":"bool"}],"name":"ApprovalForAll","type":"event"},{"anonymous":false,"inputs":[{"indexed":true,"internalType":"address","name":"operator","type":"address"},{"indexed":true,"internalType":"address","name":"from","type":"address"},{"indexed":true,"internalType":"address","name":"to","type":"address"},{"indexed":false,"internalType":"uint256[]","name":"ids","type":"uint256[]"},{"indexed":false,"internalType":"uint256[]","name":"values","type":"uint256[]"}],"name":"TransferBatch","type":"event"},{"anonymous":false,"inputs":[{"indexed":true,"internalType":"address","name":"operator","type":"address"},{"indexed":true,"internalType":"address","name":"from","type":"address"},{"indexed":true,"internalType":"address","name":"to","type":"address"},{"indexed":false,"internalType":"uint256","name":"id","type":"uint256"},{"indexed":false,"internalType":"uint256","name":"value","type":"uint256"}],"name":"TransferSingle","type":"event"},{"anonymous":false,"inputs":[{"indexed":false,"internalType":"string","name":"value","type":"string"},{"indexed":true,"internalType":"uint256","name":"id","type":"uint256"}],"name":"URI","type":"event"},{"inputs":[{"internalType":"address","name":"account","type":"address"},{"internalType":"uint256","name":"id","type":"uint256"}],"name":"balanceOf","outputs":[{"internalType":"uint256","name":"","type":"uint256"}],"stateMutability":"view","type":"function"},{"inputs":[{"internalType":"address[]","name":"accounts","type":"address[]"},{"internalType":"uint256[]","name":"ids","type":"uint256[]"}],"name":"balanceOfBatch","outputs":[{"internalType":"uint256[]","name":"","type":"uint256[]"}],"stateMutability":"view","type":"function"},{"inputs":[{"internalType":"uint256[]","name":"ids","type":"uint256[]"},{"internalType":"uint256[]","name":"amounts","type":"uint256[]"}],"name":"decodeToAssets","outputs":[{"components":[{"internalType":"uint256","name":"currencyId","type":"uint256"},{"internalType":"uint256","name":"maturity","type":"uint256"},{"internalType":"uint256","name":"assetType","type":"uint256"},{"internalType":"int256","name":"notional","type":"int256"},{"internalType":"uint256","name":"storageSlot","type":"uint256"},{"internalType":"enum AssetStorageState","name":"storageState","type":"uint8"}],"internalType":"struct PortfolioAsset[]","name":"","type":"tuple[]"}],"stateMutability":"view","type":"function"},{"inputs":[{"internalType":"uint16","name":"currencyId","type":"uint16"},{"internalType":"uint40","name":"maturity","type":"uint40"},{"internalType":"uint8","name":"assetType","type":"uint8"}],"name":"encodeToId","outputs":[{"internalType":"uint256","name":"","type":"uint256"}],"stateMutability":"pure","type":"function"},{"inputs":[],"name":"getLibInfo","outputs":[{"internalType":"address","name":"","type":"address"},{"internalType":"address","name":"","type":"address"}],"stateMutability":"view","type":"function"},{"inputs":[{"internalType":"address","name":"account","type":"address"},{"internalType":"address","name":"operator","type":"address"}],"name":"isApprovedForAll","outputs":[{"internalType":"bool","name":"","type":"bool"}],"stateMutability":"view","type":"function"},{"inputs":[],"name":"owner","outputs":[{"internalType":"address","name":"","type":"address"}],"stateMutability":"view","type":"function"},{"inputs":[],"name":"pauseGuardian","outputs":[{"internalType":"address","name":"","type":"address"}],"stateMutability":"view","type":"function"},{"inputs":[],"name":"pauseRouter","outputs":[{"internalType":"address","name":"","type":"address"}],"stateMutability":"view","type":"function"},{"inputs":[{"internalType":"address","name":"from","type":"address"},{"internalType":"address","name":"to","type":"address"},{"internalType":"uint256[]","name":"ids","type":"uint256[]"},{"internalType":"uint256[]","name":"amounts","type":"uint256[]"},{"internalType":"bytes","name":"data","type":"bytes"}],"name":"safeBatchTransferFrom","outputs":[],"stateMutability":"payable","type":"function"},{"inputs":[{"internalType":"address","name":"from","type":"address"},{"internalType":"address","name":"to","type":"address"},{"internalType":"uint256","name":"id","type":"uint256"},{"internalType":"uint256","name":"amount","type":"uint256"},{"internalType":"bytes","name":"data","type":"bytes"}],"name":"safeTransferFrom","outputs":[],"stateMutability":"payable","type":"function"},{"inputs":[{"internalType":"address","name":"operator","type":"address"},{"internalType":"bool","name":"approved","type":"bool"}],"name":"setApprovalForAll","outputs":[],"stateMutability":"nonpayable","type":"function"},{"inputs":[{"internalType":"address","name":"account","type":"address"},{"internalType":"uint256","name":"id","type":"uint256"}],"name":"signedBalanceOf","outputs":[{"internalType":"int256","name":"notional","type":"int256"}],"stateMutability":"view","type":"function"},{"inputs":[{"internalType":"address[]","name":"accounts","type":"address[]"},{"internalType":"uint256[]","name":"ids","type":"uint256[]"}],"name":"signedBalanceOfBatch","outputs":[{"internalType":"int256[]","name":"","type":"int256[]"}],"stateMutability":"view","type":"function"},{"inputs":[{"internalType":"bytes4","name":"interfaceId","type":"bytes4"}],"name":"supportsInterface","outputs":[{"internalType":"bool","name":"","type":"bool"}],"stateMutability":"pure","type":"function"}],"compiler":{"version":"0.7.6+commit.7338295f","evm_version":"istanbul","optimizer":{"enabled":true,"runs":200}},"contractName":"ERC1155Action","deployedBytecode":"6080604052600436106100e75760003560e01c8063735a1dc81161008a578063a22cb46511610059578063a22cb4651461026a578063c4c96dae1461028a578063e985e9c5146102ad578063f242432a146102cd576100e7565b8063735a1dc81461020057806381a868551461022057806382463367146102405780638da5cb5b14610255576100e7565b806324a3d622116100c657806324a3d6221461016f5780632eb2c2d6146101915780633fa6b808146101a65780634e1273f4146101d3576100e7565b8062fdd58e146100ec57806301ffc9a7146101225780630fac8f091461014f575b600080fd5b3480156100f857600080fd5b5061010c610107366004613112565b6102e0565b6040516101199190613615565b60405180910390f35b34801561012e57600080fd5b5061014261013d3660046131bd565b610312565b604051610119919061360a565b34801561015b57600080fd5b5061010c61016a366004613112565b61032c565b34801561017b57600080fd5b50610184610380565b60405161011991906133d9565b6101a461019f366004612fae565b61038f565b005b3480156101b257600080fd5b506101c66101c136600461313d565b610557565b6040516101199190613556565b3480156101df57600080fd5b506101f36101ee36600461313d565b610572565b6040516101199190613512565b34801561020c57600080fd5b5061010c61021b366004613321565b610635565b34801561022c57600080fd5b506101f361023b36600461313d565b61065a565b34801561024c57600080fd5b50610184610713565b34801561026157600080fd5b50610184610722565b34801561027657600080fd5b506101a46102853660046130e1565b610739565b34801561029657600080fd5b5061029f6107a8565b60405161011992919061348c565b3480156102b957600080fd5b506101426102c8366004612f76565b6107d6565b6101a46102db366004613068565b61082e565b6000806102ed848461032c565b9050600081126103055761030081610a23565b610308565b60005b9150505b92915050565b6001600160e01b03198116636cdb3d1360e11b145b919050565b60008061033884610a36565b905061034381610ad7565b156103625761035b84826060015161ffff1685610ae4565b9150610379565b610308610373858360400151610b2f565b84610b58565b5092915050565b6002546001600160a01b031681565b6103998888610bde565b6000806103a888888888610c7e565b9150915080156103e1576103bc89336107d6565b6103e15760405162461bcd60e51b81526004016103d8906136a5565b60405180910390fd5b6000806103ef8c8c86610dc8565b915091506104028c8c84848a8a89610f68565b8a6001600160a01b03168c6001600160a01b0316336001600160a01b03167f4a39dc06d4c0dbc64b70af90fd698a233a518aa5d07e595d983b8c0526c8f7fb8d8d8d8d60405161045594939291906135d8565b60405180910390a46104668b61122b565b15610549577fbc197c819b3e337a6f9652dd10becd7eef83032af3b9d958d3d42f66941466216001600160e01b0319168b6001600160a01b031663bc197c81338f8e8e8e8e8e8e6040518963ffffffff1660e01b81526004016104d09897969594939291906133ed565b602060405180830381600087803b1580156104ea57600080fd5b505af11580156104fe573d6000803e3d6000fd5b505050506040513d601f19601f8201168201806040525081019061052291906131d9565b6001600160e01b031916146105495760405162461bcd60e51b81526004016103d89061379e565b505050505050505050505050565b6060600061056786868686610c7e565b509695505050505050565b606083821461058057600080fd5b6000846001600160401b038111801561059857600080fd5b506040519080825280602002602001820160405280156105c2578160200160208202803683370190505b50905060005b8581101561062b5761060c8787838181106105df57fe5b90506020020160208101906105f49190612f5a565b86868481811061060057fe5b905060200201356102e0565b82828151811061061857fe5b60209081029190910101526001016105c8565b5095945050505050565b60006106508461ffff168464ffffffffff168460ff16611231565b90505b9392505050565b606083821461066857600080fd5b6000846001600160401b038111801561068057600080fd5b506040519080825280602002602001820160405280156106aa578160200160208202803683370190505b50905060005b8581101561062b576106f48787838181106106c757fe5b90506020020160208101906106dc9190612f5a565b8686848181106106e857fe5b9050602002013561032c565b82828151811061070057fe5b60209081029190910101526001016106b0565b6001546001600160a01b031681565b60005464010000000090046001600160a01b031681565b3360008181526007602090815260408083206001600160a01b038716808552925291829020805460ff191685151517905590519091907f17307eab39ab6107e8899845ad3d59bd9653f200f220920489ca2b5937696c319061079c90859061360a565b60405180910390a35050565b73__$841fddfe32830bb6dbc3a02d7f16c53722$__73__$f6541b0d362a0c7d99a2a29cd3d373d61b$__9091565b6001600160a01b03811660009081526006602052604081205460ff16156107ff5750600161030c565b506001600160a01b03918216600090815260076020908152604080832093909416825291909152205460ff1690565b6108388686610bde565b610840612e16565b831561093657604080516001808252818301909252600091816020015b610865612e44565b81526020019060019003908161085d57905050905060008160008151811061088957fe5b6020026020010151905061089c8761128c565b6040840152602083015281526108b1866112a9565b6060820152805160208201516108c89190426112bf565b6108d3898984610dc8565b5080935050876001600160a01b0316896001600160a01b0316336001600160a01b03167fc3d58168c5ae7397731d063d5bbf3d657854427343f4c083240f7aacaa2d0f628a8a6040516109279291906137c4565b60405180910390a45050610942565b61093f87610a36565b90505b61094a612e16565b61095a8888848488886000610f68565b6109638761122b565b15610a195760405163f23a6e6160e01b808252906001600160a01b0389169063f23a6e61906109a09033908d908c908c908c908c90600401613451565b602060405180830381600087803b1580156109ba57600080fd5b505af11580156109ce573d6000803e3d6000fd5b505050506040513d601f19601f820116820180604052508101906109f291906131d9565b6001600160e01b03191614610a195760405162461bcd60e51b81526004016103d89061379e565b5050505050505050565b600080821215610a3257600080fd5b5090565b610a3e612e16565b6000610a486112f6565b6001600160a01b039390931660009081526020938452604090819020815160a081018352905464ffffffffff8116825265010000000000810460f81b6001600160f81b03191695820195909552600160301b850460ff1691810191909152600160381b840461ffff166060820152600160481b90930460701b6001600160701b03191660808401525090919050565b6060015161ffff16151590565b600080600080610af38561128c565b9250925092508583141580610b09575060018114155b15610b1a5760009350505050610653565b610b25878484611303565b9350505050610653565b60606000610b3d8484611348565b90506001815111610b4f57905061030c565b6106538161145f565b600080600080610b678561128c565b92509250925060005b8651811015610bd4576000878281518110610b8757fe5b60200260200101519050848160000151148015610ba75750838160200151145b8015610bb65750828160400151145b15610bcb5760600151945061030c9350505050565b50600101610b70565b5050505092915050565b806001600160a01b0316826001600160a01b031614158015610c0857506001600160a01b03811615155b8015610c1d57506001600160a01b0381163014155b610c395760405162461bcd60e51b81526004016103d890613651565b336001600160a01b0383161480610c555750610c5582336107d6565b610c715760405162461bcd60e51b81526004016103d8906136a5565b610c7a8261161d565b5050565b60606000848314610c8e57600080fd5b600080866001600160401b0381118015610ca757600080fd5b50604051908082528060200260200182016040528015610ce157816020015b610cce612e44565b815260200190600190039081610cc65790505b50905060005b87811015610dbb578015610d3b57888860018303818110610d0457fe5b90506020020135898983818110610d1757fe5b9050602002013511610d3b5760405162461bcd60e51b81526004016103d890613772565b6000828281518110610d4957fe5b60200260200101519050610d6e8a8a84818110610d6257fe5b9050602002013561128c565b604084015260208301819052818352610d889190426112bf565b878783818110610d9457fe5b602002919091013560608301819052600013159050610db257600193505b50600101610ce7565b5097909650945050505050565b610dd0612e16565b610dd8612e16565b6000610de385610a36565b9050610dee81611668565b15610e7f576040516337b5fc2160e11b815273__$f6541b0d362a0c7d99a2a29cd3d373d61b$__90636f6bf84290610e2c90889085906004016134a6565b60a06040518083038186803b158015610e4457600080fd5b505af4158015610e58573d6000803e3d6000fd5b505050506040513d601f19601f82011682018060405250810190610e7c919061328b565b90505b610e8a8582866116bc565b9050610e96818661173d565b610e9f84611841565b6000610eaa87610a36565b9050610eb581611668565b15610f46576040516337b5fc2160e11b815273__$f6541b0d362a0c7d99a2a29cd3d373d61b$__90636f6bf84290610ef3908a9085906004016134a6565b60a06040518083038186803b158015610f0b57600080fd5b505af4158015610f1f573d6000803e3d6000fd5b505050506040513d601f19601f82011682018060405250810190610f43919061328b565b90505b610f518782876116bc565b9050610f5d818861173d565b969095509350505050565b60008060208410610f85576000610f81858701876131a5565b9250505b6001600160e01b03198216636689064360e01b1480610fb457506001600160e01b03198216633735195360e11b145b80610fcf57506001600160e01b03198216630276b64b60e01b145b156110df57610fe26024600486886137d2565b810190610fef9190612f5a565b9050886001600160a01b0316816001600160a01b031614806110325750876001600160a01b0316816001600160a01b0316148015611032575061103288336107d6565b61104e5760405162461bcd60e51b81526004016103d89061367a565b600080306001600160a01b031634888860405161106c9291906133c9565b60006040518083038185875af1925050503d80600081146110a9576040519150601f19603f3d011682016040523d82523d6000602084013e6110ae565b606091505b5091509150816110bd82611890565b906110db5760405162461bcd60e51b81526004016103d8919061361e565b5050505b886001600160a01b0316816001600160a01b03161415801561110e575060208701516001600160f81b03191615155b1561117b57604051636ccc642f60e01b815273__$841fddfe32830bb6dbc3a02d7f16c53722$__90636ccc642f9061114a908c906004016133d9565b60006040518083038186803b15801561116257600080fd5b505af4158015611176573d6000803e3d6000fd5b505050505b82801561119a5750876001600160a01b0316816001600160a01b031614155b80156111b3575060208601516001600160f81b03191615155b1561122057604051636ccc642f60e01b815273__$841fddfe32830bb6dbc3a02d7f16c53722$__90636ccc642f906111ef908b906004016133d9565b60006040518083038186803b15801561120757600080fd5b505af415801561121b573d6000803e3d6000fd5b505050505b505050505050505050565b3b151590565b6000613fff84111561124257600080fd5b64ffffffffff83111561125457600080fd5b600882111561126257600080fd5b5067ffff000000000000603084901b1665ffffffffff00600884901b161760ff8216179392505050565b61ffff603082901c169164ffffffffff600883901c169160ff1690565b60006001600160ff1b03821115610a3257600080fd5b6112d56112cb846118f0565b60ff168383611906565b6112f15760405162461bcd60e51b81526004016103d890613748565b505050565b60008061030c6001611956565b60008061130e61196f565b6001600160a01b03861660009081526020918252604080822087835283528082208683529092522054600f90810b900b9150509392505050565b606060108260ff16111561135b57600080fd5b600061136561197c565b6001600160a01b038516600090815260208290526040812091925060ff85166001600160401b038111801561139957600080fd5b506040519080825280602002602001820160405280156113d357816020015b6113c0612e44565b8152602001906001900390816113b85790505b50905060005b8560ff1681101561062b5760008382601081106113f257fe5b019050600083838151811061140357fe5b602090810291909101810151835461ffff8116825264ffffffffff620100008204169282019290925260ff600160381b8304166040820152600160401b909104600a90810b900b606082015260800191909152506001016113d9565b80516000816001600160401b038111801561147957600080fd5b506040519080825280602002602001820160405280156114a3578160200160208202803683370190505b50905060005b828110156115005760008482815181106114bf57fe5b602002602001015190506114e0816000015182602001518360400151611231565b8383815181106114ec57fe5b6020908102919091010152506001016114a9565b5060015b8281101561161757805b600081118015611546575082818151811061152557fe5b602002602001015183600183038151811061153c57fe5b6020026020010151115b1561160e5782818151811061155757fe5b602002602001015183600183038151811061156e57fe5b602002602001015184600184038151811061158557fe5b6020026020010185848151811061159857fe5b60200260200101828152508281525050508481815181106115b557fe5b60200260200101518560018303815181106115cc57fe5b60200260200101518660018403815181106115e357fe5b602002602001018784815181106115f657fe5b6020908102919091010191909152526000190161150e565b50600101611504565b50505050565b6001600160a01b03811661163057600080fd5b6001600160a01b03811630141561164657600080fd5b600061165182611989565b5050505061ffff16905080600014610c7a57600080fd5b60004261167483610ad7565b1561169557611682816119f2565b835164ffffffffff161091506103279050565b825164ffffffffff16158015906116b45750825164ffffffffff168110155b915050610327565b6116c4612e16565b6116cd83611668565b156116ea5760405162461bcd60e51b81526004016103d8906136f2565b6116f383610ad7565b1561170857611703848484611a13565b611735565b600061171a8585604001518551611adb565b90506117268184611b6d565b6117338486836000611bcb565b505b509092915050565b60006117476112f6565b6001600160a01b03831660008181526020838152604080832088518154938a0151838b015160608c015160808d015160701c600160481b027affffffffffffffffffffffffffffffffffff0000000000000000001961ffff909216600160381b0268ffff000000000000001960ff94909416600160301b0266ff0000000000001960f89690961c650100000000000265ff00000000001964ffffffffff90981664ffffffffff19909b169a909a1796909616989098179390931693909317169490941716929092179091555192935090917f6bd4b121bca854a191536a2ca891155c42ee2fb23f307fb34e8bc65cfcb5412e9190a2505050565b60005b8151811015610c7a5761186d82828151811061185c57fe5b602002602001015160600151611ca2565b82828151811061187957fe5b602090810291909101015160600152600101611844565b60606044825110156118d6575060408051808201909152601d81527f5472616e73616374696f6e2072657665727465642073696c656e746c790000006020820152610327565b6004820191508180602001905181019061030c91906131f5565b6000806118fc83611cb0565b60ff169392505050565b60008061191283611ccd565b9050600061192961192287611ce9565b8390611d8d565b90508085111561193e57600092505050610653565b600061194a8587611de7565b98975050505050505050565b6000620f424082601281111561196857fe5b0192915050565b60008061030c600c611956565b60008061030c600d611956565b60008060008060008061199a611ef2565b6001600160a01b039097166000908152602097909752505060409094205461ffff81169563ffffffff62010000830481169650600160301b830416945060ff600160501b8304169350600160581b90910460d81b9150565b600062015180821015611a0457600080fd5b62015180825b06909103919050565b611a1c82610ad7565b611a2557600080fd5b606082015161ffff1660005b8251811015611ad4576000838281518110611a4857fe5b60200260200101519050806060015160001415611a655750611acc565b80518314611a7257600080fd5b6040810151600114611a8357600080fd5b6000611aa587858460200151896000015164ffffffffff168660600151611eff565b90506000811215611ac957602086018051600160f81b176001600160f81b03191690525b50505b600101611a31565b5050505050565b611ae3612e84565b611aeb612e84565b60ff8416611afa579050610653565b611b048585610b2f565b815260ff84166060820152826001600160401b0381118015611b2557600080fd5b50604051908082528060200260200182016040528015611b5f57816020015b611b4c612e44565b815260200190600190039081611b445790505b506020820152949350505050565b60005b81518110156112f1576000828281518110611b8757fe5b60200260200101519050806060015160001415611ba45750611bc3565b611bc184826000015183602001518460400151856060015161206c565b505b600101611b70565b6000808080611bda8688612171565b64ffffffffff81168c5292965090945092509050611bf788611668565b15611c0157600080fd5b60ff8216604089015284611c2057600760ff83161115611c2057600080fd5b8315611c4357602088018051600160f81b176001600160f81b0319169052611c52565b602088018051607f60f91b1690525b611c5f88608001516123b0565b6001600160701b031916608089015260005b83156112205760f084901c818114611c9457611c948a826001600160ff1b61242b565b60109490941b939050611c71565b600061030c6000198361262a565b600080611cbb612678565b60009384526020525050604090205490565b60006276a700821015611cdf57600080fd5b6276a70082611a0a565b60008160011415611cfe57506276a700610327565b8160021415611d11575062ed4e00610327565b8160031415611d2557506301da9c00610327565b8160041415611d3957506303b53800610327565b8160051415611d4d57506309450c00610327565b8160061415611d61575063128a1800610327565b8160071415611d7557506325143000610327565b60405162461bcd60e51b81526004016103d8906136cb565b600082820183811015610653576040805162461bcd60e51b815260206004820152601b60248201527f536166654d6174683a206164646974696f6e206f766572666c6f770000000000604482015290519081900360640190fd5b6000806000611df5856119f2565b905062015180840615611e0f576000809250925050611eeb565b838110611e23576000809250925050611eeb565b6201518081850304605a8111611e4057925060019150611eeb9050565b6101688111611e7f576000620151806207e900840604820160591901905060068104605a0160068281611e6f57fe5b0660001494509450505050611eeb565b6108708111611eaf5760006201518062278d00840604820161016719019050601e8104608701601e8281611e6f57fe5b611de28111611edf576000620151806276a700840604820161086f19019050605a810460c301605a8281611e6f57fe5b61010060009350935050505b9250929050565b60008061030c6002611956565b600080611f0c8787612685565b90506000611f1861196f565b6001600160a01b0389166000908152602082815260408083208b845282528083208a8452909152812091925080611f4f888a611de7565b9150915080611f5d57600080fd5b611f6785836126ba565b15611ff6578254600090611f83908990600f90810b900b6126ea565b905060016001607f1b03198112801590611fa4575060016001607f1b038113155b611fad57600080fd5b83546001600160801b0319166001600160801b03600f83900b1617845580611fde57611fdb86846000612700565b95505b611fe98c8c8861274b565b9550612063945050505050565b861561205a5760016001607f1b0319871280159061201b575060016001607f1b038713155b61202457600080fd5b82546001600160801b0319166001600160801b03600f89900b1617835561204d85836001612700565b945061205a8b8b8761274b565b86955050505050505b95945050505050565b845161207b90858585856127a5565b1561208557611ad4565b6040850151156120b25760006120a28660200151868686866127a5565b905080156120b05750611ad4565b505b6120bb826128be565b156120ce5760008112156120ce57600080fd5b6a7fffffffffffffffffffff1981128015906120f557506a7fffffffffffffffffffff8113155b6120fe57600080fd5b846020015151856040015114156121225761211c85602001516128d4565b60208601525b6000856020015186604001518151811061213857fe5b6020908102919091018101519586528501939093526040808501929092526060840152600060a090930192909252500180516001019052565b6000808080808080805b8951518110156122025760008a60000151828151811061219757fe5b602002602001015190506003808111156121ad57fe5b8160a0015160038111156121bd57fe5b14156121c857600080fd5b60028160a0015160038111156121da57fe5b141580156121ea57506060810151155b156121f9576121f98b8361298c565b5060010161217b565b5060005b8951518110156122a55760008a60000151828151811061222257fe5b602002602001015190506002600381111561223957fe5b8160a00151600381111561224957fe5b141561225d5760808101516000905561229c565b60018160a00151600381111561226f57fe5b1415612288576080810151806122858382612adb565b50505b61229481868686612c0c565b919650945092505b50600101612206565b50606089015160006122b561197c565b6001600160a01b038b1660009081526020829052604081209192505b8c602001515181101561237f5760008d6020015182815181106122f057fe5b6020026020010151905080606001516000141561230d5750612377565b60028160a00151600381111561231f57fe5b1415801561233d575060038160a00151600381111561233a57fe5b14155b61234657600080fd5b61235281898989612c0c565b9199509750955061236f8184876010811061236957fe5b01612adb565b600185019450505b6001016122d1565b5060108311158015612396575064ffffffffff8411155b61239f57600080fd5b50939a929950975095509350505050565b6000807f7fff7fff7fff7fff7fff7fff7fff7fff7fff00000000000000000000000000008316815b6001600160701b031982161561242257600160fe1b828116141561240c576001600160f01b03198216811c92909217916010015b6010826001600160701b031916901b91506123d8565b50909392505050565b82600010801561243d5750613fff8311155b61244657600080fd5b81801561245a575082846060015161ffff16145b1561246457611617565b6080840151600090815b6001600160701b03198216156125df5760f082901c613fff1686811480156124935750855b156124cb57506080870180516001600160f01b0319861660109093029290921c919091176001600160701b0319169052506116179050565b86811480156124d8575085155b1561252d576001600160f01b03198516199290921691600360fe1b831661250b576010836001600160701b031916901b92505b506001600160701b031991821660109091021c91909117166080850152611617565b86811180156125395750855b15612593576080888101516001600160f01b031960f08a901b88178116601086021c9690961795911b161561256d57600080fd5b506001600160701b03199182166001919091016010021c91909117166080850152611617565b86811180156125a0575085155b156125ae5750505050611617565b506001600160f01b0319821660108281029190911c93909317929190911b6001600160801b0319169060010161246e565b846125ec57505050611617565b600981106125f957600080fd5b6001600160f01b031960f087901b85171660109091021c919091176001600160701b03191660808601525050505050565b81810260001983141561265a5781158061264c57508282828161264957fe5b05145b61265557600080fd5b61030c565b82158061266f57508183828161266c57fe5b05145b61030c57600080fd5b60008061030c6009611956565b600080612690612c6f565b6001600160a01b038516600090815260209182526040808220868352909252205491505092915050565b6000600182101580156126cf57506101008211155b6126d857600080fd5b50600019011b600160ff1b9081161490565b8181018281121560008312151461030c57600080fd5b60006001831015801561271557506101008311155b61271e57600080fd5b81156127375750600160ff1b60001983011c8317610653565b50600160ff1b60001983011c198316610653565b601461275682612c7c565b11156127745760405162461bcd60e51b81526004016103d89061371f565b600061277e612c6f565b6001600160a01b039094166000908152602094855260408082209482529390945250912055565b6000805b86518110156128b15760008782815181106127c057fe5b602002602001015190508481604001511415806127de575080518714155b806127ed575085816020015114155b156127f857506128a9565b60028160a00151600381111561280a57fe5b14158015612828575060038160a00151600381111561282557fe5b14155b61283157600080fd5b606081015160009061284390866126ea565b905061284e866128be565b1561286157600081121561286157600080fd5b6a7fffffffffffffffffffff19811280159061288857506a7fffffffffffffffffffff8113155b61289157600080fd5b6060820152600160a090910181905291506120639050565b6001016127a9565b5060009695505050505050565b60006002821080159061030c5750506008101590565b6060600082516000146128eb5782516002026128ee565b60015b90506000816001600160401b038111801561290857600080fd5b5060405190808252806020026020018201604052801561294257816020015b61292f612e44565b8152602001906001900390816129275790505b50905060005b84518110156129845784818151811061295d57fe5b602002602001015182828151811061297157fe5b6020908102919091010152600101612948565b509392505050565b815151811061299a57600080fd5b60008260600151116129ab57600080fd5b6000826000015182815181106129bd57fe5b60200260200101519050600260038111156129d457fe5b8160a0015160038111156129e457fe5b14158015612a02575060038160a0015160038111156129ff57fe5b14155b612a0b57600080fd5b606083018051600019019052600080805b855151811015612a7e57600086600001518281518110612a3857fe5b60200260200101519050828160800151118015612a65575060028160a001516003811115612a6257fe5b14155b15612a7557806080015192508193505b50600101612a1c565b5081841415612a97575050600260a09190910152610c7a565b600085600001518381518110612aa957fe5b602090810291909101015160808581018051918301805190915252600160a09182015260029401939093525050505050565b815115801590612aee57508151613fff10155b612af757600080fd5b81602001516000108015612b145750602082015164ffffffffff10155b612b1d57600080fd5b81604001516000108015612b3657506040820151600810155b612b3f57600080fd5b60608201516a7fffffffffffffffffffff1913801590612b6e575060608201516a7fffffffffffffffffffff12155b612b7757600080fd5b8151815460208401516040850151606090950151600a0b6affffffffffffffffffffff16600160401b0272ffffffffffffffffffffff00000000000000001960ff909616600160381b0267ff000000000000001964ffffffffff909316620100000266ffffffffff00001961ffff90961661ffff19909516949094179490941692909217169190911792909216919091179055565b600080600080612c1b88612d4c565b9050841580612c2957508085115b15612c32578094505b8680612c42575060008860600151125b965061ffff861615612c5357600080fd5b50509451939560109390931c60f09490941b9390931793509150565b60008061030c600b611956565b600181901c7f5555555555555555555555555555555555555555555555555555555555555555908116911601600281901c7f3333333333333333333333333333333333333333333333333333333333333333908116911601600481901c7f07070707070707070707070707070707070707070707070707070707070707079190911601600881901c7e0f000f000f000f000f000f000f000f000f000f000f000f000f000f000f000f908116911601601081901c01602081901c01604081901c01608081901c60ff90811691160190565b6000808260400151118015612d6657506040820151600810155b612d6f57600080fd5b6040820151600210612d8657506020810151610327565b6000612d986001846040015103611ce9565b6020840151909150610653906276a70090612db39084612db9565b90611d8d565b600082821115612e10576040805162461bcd60e51b815260206004820152601e60248201527f536166654d6174683a207375627472616374696f6e206f766572666c6f770000604482015290519081900360640190fd5b50900390565b6040805160a08101825260008082526020820181905291810182905260608101829052608081019190915290565b6040518060c00160405280600081526020016000815260200160008152602001600081526020016000815260200160006003811115612e7f57fe5b905290565b6040518060800160405280606081526020016060815260200160008152602001600081525090565b60008083601f840112612ebd578081fd5b5081356001600160401b03811115612ed3578182fd5b6020830191508360208083028501011115611eeb57600080fd5b80516001600160701b03198116811461032757600080fd5b60008083601f840112612f16578182fd5b5081356001600160401b03811115612f2c578182fd5b602083019150836020828501011115611eeb57600080fd5b805161032781613854565b805161032781613877565b600060208284031215612f6b578081fd5b813561065381613826565b60008060408385031215612f88578081fd5b8235612f9381613826565b91506020830135612fa381613826565b809150509250929050565b60008060008060008060008060a0898b031215612fc9578384fd5b8835612fd481613826565b97506020890135612fe481613826565b965060408901356001600160401b0380821115612fff578586fd5b61300b8c838d01612eac565b909850965060608b0135915080821115613023578586fd5b61302f8c838d01612eac565b909650945060808b0135915080821115613047578384fd5b506130548b828c01612f05565b999c989b5096995094979396929594505050565b60008060008060008060a08789031215613080578182fd5b863561308b81613826565b9550602087013561309b81613826565b9450604087013593506060870135925060808701356001600160401b038111156130c3578283fd5b6130cf89828a01612f05565b979a9699509497509295939492505050565b600080604083850312156130f3578182fd5b82356130fe81613826565b915060208301358015158114612fa3578182fd5b60008060408385031215613124578182fd5b823561312f81613826565b946020939093013593505050565b60008060008060408587031215613152578182fd5b84356001600160401b0380821115613168578384fd5b61317488838901612eac565b9096509450602087013591508082111561318c578384fd5b5061319987828801612eac565b95989497509550505050565b6000602082840312156131b6578081fd5b5035919050565b6000602082840312156131ce578081fd5b81356106538161383e565b6000602082840312156131ea578081fd5b81516106538161383e565b600060208284031215613206578081fd5b81516001600160401b038082111561321c578283fd5b818401915084601f83011261322f578283fd5b81518181111561323b57fe5b604051601f8201601f19168101602001838111828210171561325957fe5b604052818152838201602001871015613270578485fd5b6132818260208301602087016137fa565b9695505050505050565b600060a0828403121561329c578081fd5b60405160a081018181106001600160401b03821117156132b857fe5b60405282516132c681613864565b815260208301516001600160f81b0319811681146132e2578283fd5b60208201526132f360408401612f4f565b604082015261330460608401612f44565b606082015261331560808401612eed565b60808201529392505050565b600080600060608486031215613335578081fd5b833561334081613854565b9250602084013561335081613864565b9150604084013561336081613877565b809150509250925092565b81835260006001600160fb1b03831115613383578081fd5b6020830280836020870137939093016020019283525090919050565b60008284528282602086013780602084860101526020601f19601f85011685010190509392505050565b6000828483379101908152919050565b6001600160a01b0391909116815260200190565b6001600160a01b0389811682528816602082015260a06040820181905260009061341a908301888a61336b565b828103606084015261342d81878961336b565b9050828103608084015261344281858761339f565b9b9a5050505050505050505050565b6001600160a01b03878116825286166020820152604081018590526060810184905260a06080820181905260009061194a908301848661339f565b6001600160a01b0392831681529116602082015260400190565b6001600160a01b03929092168252805164ffffffffff166020808401919091528101516001600160f81b03191660408084019190915281015160ff1660608084019190915281015161ffff1660808084019190915201516001600160701b03191660a082015260c00190565b6020808252825182820181905260009190848201906040850190845b8181101561354a5783518352928401929184019160010161352e565b50909695505050505050565b602080825282518282018190526000919060409081850190868401855b828110156135cb5781518051855286810151878601528581015186860152606080820151908601526080808201519086015260a09081015190600482106135b657fe5b85015260c09093019290850190600101613573565b5091979650505050505050565b6000604082526135ec60408301868861336b565b82810360208401526135ff81858761336b565b979650505050505050565b901515815260200190565b90815260200190565b600060208252825180602084015261363d8160408501602087016137fa565b601f01601f19169190910160400192915050565b6020808252600f908201526e496e76616c6964206164647265737360881b604082015260600190565b602080825260119082015270155b985d5d1a1bdc9a5e99590818d85b1b607a1b604082015260600190565b6020808252600c908201526b155b985d5d1a1bdc9a5e995960a21b604082015260600190565b6020808252600d908201526c092dcecc2d8d2c840d2dcc8caf609b1b604082015260600190565b6020808252601390820152724163636f756e74206d75737420736574746c6560681b604082015260600190565b6020808252600f908201526e4f766572206d61782061737365747360881b604082015260600190565b60208082526010908201526f496e76616c6964206d6174757269747960801b604082015260600190565b60208082526012908201527112511cc81b5d5cdd081899481cdbdc9d195960721b604082015260600190565b6020808252600c908201526b139bdd081858d8d95c1d195960a21b604082015260600190565b918252602082015260400190565b600080858511156137e1578182fd5b838611156137ed578182fd5b5050820193919092039150565b60005b838110156138155781810151838201526020016137fd565b838111156116175750506000910152565b6001600160a01b038116811461383b57600080fd5b50565b6001600160e01b03198116811461383b57600080fd5b61ffff8116811461383b57600080fd5b64ffffffffff8116811461383b57600080fd5b60ff8116811461383b57600080fdfea264697066735822122017156ff7fab7b9690caa59c8e8495b162322dce8fe30d62434ee91ae6ffca1ea64736f6c63430007060033","language":"Solidity","natspec":{"methods":{"balanceOf(address,uint256)":{"notice":"Returns the balance of an ERC1155 id on an account. WARNING: the balances returned by this method do not show negative fCash balances because only unsigned integers are returned. They are represented by zero here. Use `signedBalanceOf` to get a signed return value.","params":{"account":"account to get the id for","id":"the ERC1155 id"},"returns":{"_0":"Balance of the ERC1155 id as an unsigned integer (negative fCash balances return zero)"}},"balanceOfBatch(address[],uint256[])":{"notice":"Returns the balance of a batch of accounts and ids. WARNING: negative fCash balances are represented as zero balances in the array. ","params":{"accounts":"array of accounts to get balances for","ids":"array of ids to get balances for"},"returns":{"_0":"Returns an array of unsigned balances"}},"decodeToAssets(uint256[],uint256[])":{"notice":"Decodes ids and amounts to PortfolioAsset objects","params":{"amounts":"amounts to transfer","ids":"array of ERC1155 ids"},"returns":{"_0":"array of portfolio asset objects"}},"encodeToId(uint16,uint40,uint8)":{"notice":"Encodes parameters into an ERC1155 id","params":{"assetType":"id of the asset type","currencyId":"currency id of the asset","maturity":"timestamp of the maturity"},"returns":{"_0":"ERC1155 id"}},"isApprovedForAll(address,address)":{"notice":"Checks approval state for an account, will first check if global transfer operator is enabled before falling through to an account specific transfer operator.","params":{"account":"address of the account","operator":"address of the operator"},"returns":{"_0":"true for approved"}},"safeBatchTransferFrom(address,address,uint256[],uint256[],bytes)":{"notice":"Transfer of a batch of fCash or liquidity token assets between accounts. Allows `from` account to transfer more fCash than they have as long as they pass a subsequent free collateral check. This enables OTC trading of fCash assets.","details":"emit:TransferBatch, emit:AccountContextUpdate, emit:AccountSettled","params":{"amounts":"amounts to transfer","data":"arbitrary data passed to ERC1155Receiver (if contract) and if properly specified can be used to initiate a trading action on Notional for the `from` address","from":"account to transfer from","ids":"ERC1155 ids of the assets","to":"account to transfer to"}},"safeTransferFrom(address,address,uint256,uint256,bytes)":{"notice":"Transfer of a single fCash or liquidity token asset between accounts. Allows `from` account to transfer more fCash than they have as long as they pass a subsequent free collateral check. This enables OTC trading of fCash assets.","details":"emit:TransferSingle, emit:AccountContextUpdate, emit:AccountSettled","params":{"amount":"amount to transfer","data":"arbitrary data passed to ERC1155Receiver (if contract) and if properly specified can be used to initiate a trading action on Notional for the `from` address","from":"account to transfer from","id":"ERC1155 id of the asset","to":"account to transfer to"}},"setApprovalForAll(address,bool)":{"notice":"Allows an account to set approval for an operator","details":"emit:ApprovalForAll","params":{"approved":"state of the approval","operator":"address of the operator"}},"signedBalanceOf(address,uint256)":{"notice":"Returns the balance of an ERC1155 id on an account.","params":{"account":"account to get the id for","id":"the ERC1155 id"},"returns":{"notional":"balance of the ERC1155 id as a signed integer"}},"signedBalanceOfBatch(address[],uint256[])":{"notice":"Returns the balance of a batch of accounts and ids.","params":{"accounts":"array of accounts to get balances for","ids":"array of ids to get balances for"},"returns":{"_0":"Returns an array of signed balances"}},"getLibInfo()":{"notice":"Get a list of deployed library addresses (sorted by library name)"}},"kind":"dev","version":1},"opcodes":"PUSH1 0x80 PUSH1 0x40 MSTORE PUSH1 0x4 CALLDATASIZE LT PUSH2 0xE7 JUMPI PUSH1 0x0 CALLDATALOAD PUSH1 0xE0 SHR DUP1 PUSH4 0x735A1DC8 GT PUSH2 0x8A JUMPI DUP1 PUSH4 0xA22CB465 GT PUSH2 0x59 JUMPI DUP1 PUSH4 0xA22CB465 EQ PUSH2 0x26A JUMPI DUP1 PUSH4 0xC4C96DAE EQ PUSH2 0x28A JUMPI DUP1 PUSH4 0xE985E9C5 EQ PUSH2 0x2AD JUMPI DUP1 PUSH4 0xF242432A EQ PUSH2 0x2CD JUMPI PUSH2 0xE7 JUMP JUMPDEST DUP1 PUSH4 0x735A1DC8 EQ PUSH2 0x200 JUMPI DUP1 PUSH4 0x81A86855 EQ PUSH2 0x220 JUMPI DUP1 PUSH4 0x82463367 EQ PUSH2 0x240 JUMPI DUP1 PUSH4 0x8DA5CB5B EQ PUSH2 0x255 JUMPI PUSH2 0xE7 JUMP JUMPDEST DUP1 PUSH4 0x24A3D622 GT PUSH2 0xC6 JUMPI DUP1 PUSH4 0x24A3D622 EQ PUSH2 0x16F JUMPI DUP1 PUSH4 0x2EB2C2D6 EQ PUSH2 0x191 JUMPI DUP1 PUSH4 0x3FA6B808 EQ PUSH2 0x1A6 JUMPI DUP1 PUSH4 0x4E1273F4 EQ PUSH2 0x1D3 JUMPI PUSH2 0xE7 JUMP JUMPDEST DUP1 PUSH3 0xFDD58E EQ PUSH2 0xEC JUMPI DUP1 PUSH4 0x1FFC9A7 EQ PUSH2 0x122 JUMPI DUP1 PUSH4 0xFAC8F09 EQ PUSH2 0x14F JUMPI JUMPDEST PUSH1 0x0 DUP1 REVERT JUMPDEST CALLVALUE DUP1 ISZERO PUSH2 0xF8 JUMPI PUSH1 0x0 DUP1 REVERT JUMPDEST POP PUSH2 0x10C PUSH2 0x107 CALLDATASIZE PUSH1 0x4 PUSH2 0x3112 JUMP JUMPDEST PUSH2 0x2E0 JUMP JUMPDEST PUSH1 0x40 MLOAD PUSH2 0x119 SWAP2 SWAP1 PUSH2 0x3615 JUMP JUMPDEST PUSH1 0x40 MLOAD DUP1 SWAP2 SUB SWAP1 RETURN JUMPDEST CALLVALUE DUP1 ISZERO PUSH2 0x12E JUMPI PUSH1 0x0 DUP1 REVERT JUMPDEST POP PUSH2 0x142 PUSH2 0x13D CALLDATASIZE PUSH1 0x4 PUSH2 0x31BD JUMP JUMPDEST PUSH2 0x312 JUMP JUMPDEST PUSH1 0x40 MLOAD PUSH2 0x119 SWAP2 SWAP1 PUSH2 0x360A JUMP JUMPDEST CALLVALUE DUP1 ISZERO PUSH2 0x15B JUMPI PUSH1 0x0 DUP1 REVERT JUMPDEST POP PUSH2 0x10C PUSH2 0x16A CALLDATASIZE PUSH1 0x4 PUSH2 0x3112 JUMP JUMPDEST PUSH2 0x32C JUMP JUMPDEST CALLVALUE DUP1 ISZERO PUSH2 0x17B JUMPI PUSH1 0x0 DUP1 REVERT JUMPDEST POP PUSH2 0x184 PUSH2 0x380 JUMP JUMPDEST PUSH1 0x40 MLOAD PUSH2 0x119 SWAP2 SWAP1 PUSH2 0x33D9 JUMP JUMPDEST PUSH2 0x1A4 PUSH2 0x19F CALLDATASIZE PUSH1 0x4 PUSH2 0x2FAE JUMP JUMPDEST PUSH2 0x38F JUMP JUMPDEST STOP JUMPDEST CALLVALUE DUP1 ISZERO PUSH2 0x1B2 JUMPI PUSH1 0x0 DUP1 REVERT JUMPDEST POP PUSH2 0x1C6 PUSH2 0x1C1 CALLDATASIZE PUSH1 0x4 PUSH2 0x313D JUMP JUMPDEST PUSH2 0x557 JUMP JUMPDEST PUSH1 0x40 MLOAD PUSH2 0x119 SWAP2 SWAP1 PUSH2 0x3556 JUMP JUMPDEST CALLVALUE DUP1 ISZERO PUSH2 0x1DF JUMPI PUSH1 0x0 DUP1 REVERT JUMPDEST POP PUSH2 0x1F3 PUSH2 0x1EE CALLDATASIZE PUSH1 0x4 PUSH2 0x313D JUMP JUMPDEST PUSH2 0x572 JUMP JUMPDEST PUSH1 0x40 MLOAD PUSH2 0x119 SWAP2 SWAP1 PUSH2 0x3512 JUMP JUMPDEST CALLVALUE DUP1 ISZERO PUSH2 0x20C JUMPI PUSH1 0x0 DUP1 REVERT JUMPDEST POP PUSH2 0x10C PUSH2 0x21B CALLDATASIZE PUSH1 0x4 PUSH2 0x3321 JUMP JUMPDEST PUSH2 0x635 JUMP JUMPDEST CALLVALUE DUP1 ISZERO PUSH2 0x22C JUMPI PUSH1 0x0 DUP1 REVERT JUMPDEST POP PUSH2 0x1F3 PUSH2 0x23B CALLDATASIZE PUSH1 0x4 PUSH2 0x313D JUMP JUMPDEST PUSH2 0x65A JUMP JUMPDEST CALLVALUE DUP1 ISZERO PUSH2 0x24C JUMPI PUSH1 0x0 DUP1 REVERT JUMPDEST POP PUSH2 0x184 PUSH2 0x713 JUMP JUMPDEST CALLVALUE DUP1 ISZERO PUSH2 0x261 JUMPI PUSH1 0x0 DUP1 REVERT JUMPDEST POP PUSH2 0x184 PUSH2 0x722 JUMP JUMPDEST CALLVALUE DUP1 ISZERO PUSH2 0x276 JUMPI PUSH1 0x0 DUP1 REVERT JUMPDEST POP PUSH2 0x1A4 PUSH2 0x285 CALLDATASIZE PUSH1 0x4 PUSH2 0x30E1 JUMP JUMPDEST PUSH2 0x739 JUMP JUMPDEST CALLVALUE DUP1 ISZERO PUSH2 0x296 JUMPI PUSH1 0x0 DUP1 REVERT JUMPDEST POP PUSH2 0x29F PUSH2 0x7A8 JUMP JUMPDEST PUSH1 0x40 MLOAD PUSH2 0x119 SWAP3 SWAP2 SWAP1 PUSH2 0x348C JUMP JUMPDEST CALLVALUE DUP1 ISZERO PUSH2 0x2B9 JUMPI PUSH1 0x0 DUP1 REVERT JUMPDEST POP PUSH2 0x142 PUSH2 0x2C8 CALLDATASIZE PUSH1 0x4 PUSH2 0x2F76 JUMP JUMPDEST PUSH2 0x7D6 JUMP JUMPDEST PUSH2 0x1A4 PUSH2 0x2DB CALLDATASIZE PUSH1 0x4 PUSH2 0x3068 JUMP JUMPDEST PUSH2 0x82E JUMP JUMPDEST PUSH1 0x0 DUP1 PUSH2 0x2ED DUP5 DUP5 PUSH2 0x32C JUMP JUMPDEST SWAP1 POP PUSH1 0x0 DUP2 SLT PUSH2 0x305 JUMPI PUSH2 0x300 DUP2 PUSH2 0xA23 JUMP JUMPDEST PUSH2 0x308 JUMP JUMPDEST PUSH1 0x0 JUMPDEST SWAP2 POP POP JUMPDEST SWAP3 SWAP2 POP POP JUMP JUMPDEST PUSH1 0x1 PUSH1 0x1 PUSH1 0xE0 SHL SUB NOT DUP2 AND PUSH4 0x6CDB3D13 PUSH1 0xE1 SHL EQ JUMPDEST SWAP2 SWAP1 POP JUMP JUMPDEST PUSH1 0x0 DUP1 PUSH2 0x338 DUP5 PUSH2 0xA36 JUMP JUMPDEST SWAP1 POP PUSH2 0x343 DUP2 PUSH2 0xAD7 JUMP JUMPDEST ISZERO PUSH2 0x362 JUMPI PUSH2 0x35B DUP5 DUP3 PUSH1 0x60 ADD MLOAD PUSH2 0xFFFF AND DUP6 PUSH2 0xAE4 JUMP JUMPDEST SWAP2 POP PUSH2 0x379 JUMP JUMPDEST PUSH2 0x308 PUSH2 0x373 DUP6 DUP4 PUSH1 0x40 ADD MLOAD PUSH2 0xB2F JUMP JUMPDEST DUP5 PUSH2 0xB58 JUMP JUMPDEST POP SWAP3 SWAP2 POP POP JUMP JUMPDEST PUSH1 0x2 SLOAD PUSH1 0x1 PUSH1 0x1 PUSH1 0xA0 SHL SUB AND DUP2 JUMP JUMPDEST PUSH2 0x399 DUP9 DUP9 PUSH2 0xBDE JUMP JUMPDEST PUSH1 0x0 DUP1 PUSH2 0x3A8 DUP9 DUP9 DUP9 DUP9 PUSH2 0xC7E JUMP JUMPDEST SWAP2 POP SWAP2 POP DUP1 ISZERO PUSH2 0x3E1 JUMPI PUSH2 0x3BC DUP10 CALLER PUSH2 0x7D6 JUMP JUMPDEST PUSH2 0x3E1 JUMPI PUSH1 0x40 MLOAD PUSH3 0x461BCD PUSH1 0xE5 SHL DUP2 MSTORE PUSH1 0x4 ADD PUSH2 0x3D8 SWAP1 PUSH2 0x36A5 JUMP JUMPDEST PUSH1 0x40 MLOAD DUP1 SWAP2 SUB SWAP1 REVERT JUMPDEST PUSH1 0x0 DUP1 PUSH2 0x3EF DUP13 DUP13 DUP7 PUSH2 0xDC8 JUMP JUMPDEST SWAP2 POP SWAP2 POP PUSH2 0x402 DUP13 DUP13 DUP5 DUP5 DUP11 DUP11 DUP10 PUSH2 0xF68 JUMP JUMPDEST DUP11 PUSH1 0x1 PUSH1 0x1 PUSH1 0xA0 SHL SUB AND DUP13 PUSH1 0x1 PUSH1 0x1 PUSH1 0xA0 SHL SUB AND CALLER PUSH1 0x1 PUSH1 0x1 PUSH1 0xA0 SHL SUB AND PUSH32 0x4A39DC06D4C0DBC64B70AF90FD698A233A518AA5D07E595D983B8C0526C8F7FB DUP14 DUP14 DUP14 DUP14 PUSH1 0x40 MLOAD PUSH2 0x455 SWAP5 SWAP4 SWAP3 SWAP2 SWAP1 PUSH2 0x35D8 JUMP JUMPDEST PUSH1 0x40 MLOAD DUP1 SWAP2 SUB SWAP1 LOG4 PUSH2 0x466 DUP12 PUSH2 0x122B JUMP JUMPDEST ISZERO PUSH2 0x549 JUMPI PUSH32 0xBC197C819B3E337A6F9652DD10BECD7EEF83032AF3B9D958D3D42F6694146621 PUSH1 0x1 PUSH1 0x1 PUSH1 0xE0 SHL SUB NOT AND DUP12 PUSH1 0x1 PUSH1 0x1 PUSH1 0xA0 SHL SUB AND PUSH4 0xBC197C81 CALLER DUP16 DUP15 DUP15 DUP15 DUP15 DUP15 DUP15 PUSH1 0x40 MLOAD DUP10 PUSH4 0xFFFFFFFF AND PUSH1 0xE0 SHL DUP2 MSTORE PUSH1 0x4 ADD PUSH2 0x4D0 SWAP9 SWAP8 SWAP7 SWAP6 SWAP5 SWAP4 SWAP3 SWAP2 SWAP1 PUSH2 0x33ED JUMP JUMPDEST PUSH1 0x20 PUSH1 0x40 MLOAD DUP1 DUP4 SUB DUP2 PUSH1 0x0 DUP8 DUP1 EXTCODESIZE ISZERO DUP1 ISZERO PUSH2 0x4EA JUMPI PUSH1 0x0 DUP1 REVERT JUMPDEST POP GAS CALL ISZERO DUP1 ISZERO PUSH2 0x4FE JUMPI RETURNDATASIZE PUSH1 0x0 DUP1 RETURNDATACOPY RETURNDATASIZE PUSH1 0x0 REVERT JUMPDEST POP POP POP POP PUSH1 0x40 MLOAD RETURNDATASIZE PUSH1 0x1F NOT PUSH1 0x1F DUP3 ADD AND DUP3 ADD DUP1 PUSH1 0x40 MSTORE POP DUP2 ADD SWAP1 PUSH2 0x522 SWAP2 SWAP1 PUSH2 0x31D9 JUMP JUMPDEST PUSH1 0x1 PUSH1 0x1 PUSH1 0xE0 SHL SUB NOT AND EQ PUSH2 0x549 JUMPI PUSH1 0x40 MLOAD PUSH3 0x461BCD PUSH1 0xE5 SHL DUP2 MSTORE PUSH1 0x4 ADD PUSH2 0x3D8 SWAP1 PUSH2 0x379E JUMP JUMPDEST POP POP POP POP POP POP POP POP POP POP POP POP JUMP JUMPDEST PUSH1 0x60 PUSH1 0x0 PUSH2 0x567 DUP7 DUP7 DUP7 DUP7 PUSH2 0xC7E JUMP JUMPDEST POP SWAP7 SWAP6 POP POP POP POP POP POP JUMP JUMPDEST PUSH1 0x60 DUP4 DUP3 EQ PUSH2 0x580 JUMPI PUSH1 0x0 DUP1 REVERT JUMPDEST PUSH1 0x0 DUP5 PUSH1 0x1 PUSH1 0x1 PUSH1 0x40 SHL SUB DUP2 GT DUP1 ISZERO PUSH2 0x598 JUMPI PUSH1 0x0 DUP1 REVERT JUMPDEST POP PUSH1 0x40 MLOAD SWAP1 DUP1 DUP3 MSTORE DUP1 PUSH1 0x20 MUL PUSH1 0x20 ADD DUP3 ADD PUSH1 0x40 MSTORE DUP1 ISZERO PUSH2 0x5C2 JUMPI DUP2 PUSH1 0x20 ADD PUSH1 0x20 DUP3 MUL DUP1 CALLDATASIZE DUP4 CALLDATACOPY ADD SWAP1 POP JUMPDEST POP SWAP1 POP PUSH1 0x0 JUMPDEST DUP6 DUP2 LT ISZERO PUSH2 0x62B JUMPI PUSH2 0x60C DUP8 DUP8 DUP4 DUP2 DUP2 LT PUSH2 0x5DF JUMPI INVALID JUMPDEST SWAP1 POP PUSH1 0x20 MUL ADD PUSH1 0x20 DUP2 ADD SWAP1 PUSH2 0x5F4 SWAP2 SWAP1 PUSH2 0x2F5A JUMP JUMPDEST DUP7 DUP7 DUP5 DUP2 DUP2 LT PUSH2 0x600 JUMPI INVALID JUMPDEST SWAP1 POP PUSH1 0x20 MUL ADD CALLDATALOAD PUSH2 0x2E0 JUMP JUMPDEST DUP3 DUP3 DUP2 MLOAD DUP2 LT PUSH2 0x618 JUMPI INVALID JUMPDEST PUSH1 0x20 SWAP1 DUP2 MUL SWAP2 SWAP1 SWAP2 ADD ADD MSTORE PUSH1 0x1 ADD PUSH2 0x5C8 JUMP JUMPDEST POP SWAP6 SWAP5 POP POP POP POP POP JUMP JUMPDEST PUSH1 0x0 PUSH2 0x650 DUP5 PUSH2 0xFFFF AND DUP5 PUSH5 0xFFFFFFFFFF AND DUP5 PUSH1 0xFF AND PUSH2 0x1231 JUMP JUMPDEST SWAP1 POP JUMPDEST SWAP4 SWAP3 POP POP POP JUMP JUMPDEST PUSH1 0x60 DUP4 DUP3 EQ PUSH2 0x668 JUMPI PUSH1 0x0 DUP1 REVERT JUMPDEST PUSH1 0x0 DUP5 PUSH1 0x1 PUSH1 0x1 PUSH1 0x40 SHL SUB DUP2 GT DUP1 ISZERO PUSH2 0x680 JUMPI PUSH1 0x0 DUP1 REVERT JUMPDEST POP PUSH1 0x40 MLOAD SWAP1 DUP1 DUP3 MSTORE DUP1 PUSH1 0x20 MUL PUSH1 0x20 ADD DUP3 ADD PUSH1 0x40 MSTORE DUP1 ISZERO PUSH2 0x6AA JUMPI DUP2 PUSH1 0x20 ADD PUSH1 0x20 DUP3 MUL DUP1 CALLDATASIZE DUP4 CALLDATACOPY ADD SWAP1 POP JUMPDEST POP SWAP1 POP PUSH1 0x0 JUMPDEST DUP6 DUP2 LT ISZERO PUSH2 0x62B JUMPI PUSH2 0x6F4 DUP8 DUP8 DUP4 DUP2 DUP2 LT PUSH2 0x6C7 JUMPI INVALID JUMPDEST SWAP1 POP PUSH1 0x20 MUL ADD PUSH1 0x20 DUP2 ADD SWAP1 PUSH2 0x6DC SWAP2 SWAP1 PUSH2 0x2F5A JUMP JUMPDEST DUP7 DUP7 DUP5 DUP2 DUP2 LT PUSH2 0x6E8 JUMPI INVALID JUMPDEST SWAP1 POP PUSH1 0x20 MUL ADD CALLDATALOAD PUSH2 0x32C JUMP JUMPDEST DUP3 DUP3 DUP2 MLOAD DUP2 LT PUSH2 0x700 JUMPI INVALID JUMPDEST PUSH1 0x20 SWAP1 DUP2 MUL SWAP2 SWAP1 SWAP2 ADD ADD MSTORE PUSH1 0x1 ADD PUSH2 0x6B0 JUMP JUMPDEST PUSH1 0x1 SLOAD PUSH1 0x1 PUSH1 0x1 PUSH1 0xA0 SHL SUB AND DUP2 JUMP JUMPDEST PUSH1 0x0 SLOAD PUSH5 0x100000000 SWAP1 DIV PUSH1 0x1 PUSH1 0x1 PUSH1 0xA0 SHL SUB AND DUP2 JUMP JUMPDEST CALLER PUSH1 0x0 DUP2 DUP2 MSTORE PUSH1 0x7 PUSH1 0x20 SWAP1 DUP2 MSTORE PUSH1 0x40 DUP1 DUP4 KECCAK256 PUSH1 0x1 PUSH1 0x1 PUSH1 0xA0 SHL SUB DUP8 AND DUP1 DUP6 MSTORE SWAP3 MSTORE SWAP2 DUP3 SWAP1 KECCAK256 DUP1 SLOAD PUSH1 0xFF NOT AND DUP6 ISZERO ISZERO OR SWAP1 SSTORE SWAP1 MLOAD SWAP1 SWAP2 SWAP1 PUSH32 0x17307EAB39AB6107E8899845AD3D59BD9653F200F220920489CA2B5937696C31 SWAP1 PUSH2 0x79C SWAP1 DUP6 SWAP1 PUSH2 0x360A JUMP JUMPDEST PUSH1 0x40 MLOAD DUP1 SWAP2 SUB SWAP1 LOG3 POP POP JUMP JUMPDEST PUSH20 0x0 PUSH20 0x0 SWAP1 SWAP2 JUMP JUMPDEST PUSH1 0x1 PUSH1 0x1 PUSH1 0xA0 SHL SUB DUP2 AND PUSH1 0x0 SWAP1 DUP2 MSTORE PUSH1 0x6 PUSH1 0x20 MSTORE PUSH1 0x40 DUP2 KECCAK256 SLOAD PUSH1 0xFF AND ISZERO PUSH2 0x7FF JUMPI POP PUSH1 0x1 PUSH2 0x30C JUMP JUMPDEST POP PUSH1 0x1 PUSH1 0x1 PUSH1 0xA0 SHL SUB SWAP2 DUP3 AND PUSH1 0x0 SWAP1 DUP2 MSTORE PUSH1 0x7 PUSH1 0x20 SWAP1 DUP2 MSTORE PUSH1 0x40 DUP1 DUP4 KECCAK256 SWAP4 SWAP1 SWAP5 AND DUP3 MSTORE SWAP2 SWAP1 SWAP2 MSTORE KECCAK256 SLOAD PUSH1 0xFF AND SWAP1 JUMP JUMPDEST PUSH2 0x838 DUP7 DUP7 PUSH2 0xBDE JUMP JUMPDEST PUSH2 0x840 PUSH2 0x2E16 JUMP JUMPDEST DUP4 ISZERO PUSH2 0x936 JUMPI PUSH1 0x40 DUP1 MLOAD PUSH1 0x1 DUP1 DUP3 MSTORE DUP2 DUP4 ADD SWAP1 SWAP3 MSTORE PUSH1 0x0 SWAP2 DUP2 PUSH1 0x20 ADD JUMPDEST PUSH2 0x865 PUSH2 0x2E44 JUMP JUMPDEST DUP2 MSTORE PUSH1 0x20 ADD SWAP1 PUSH1 0x1 SWAP1 SUB SWAP1 DUP2 PUSH2 0x85D JUMPI SWAP1 POP POP SWAP1 POP PUSH1 0x0 DUP2 PUSH1 0x0 DUP2 MLOAD DUP2 LT PUSH2 0x889 JUMPI INVALID JUMPDEST PUSH1 0x20 MUL PUSH1 0x20 ADD ADD MLOAD SWAP1 POP PUSH2 0x89C DUP8 PUSH2 0x128C JUMP JUMPDEST PUSH1 0x40 DUP5 ADD MSTORE PUSH1 0x20 DUP4 ADD MSTORE DUP2 MSTORE PUSH2 0x8B1 DUP7 PUSH2 0x12A9 JUMP JUMPDEST PUSH1 0x60 DUP3 ADD MSTORE DUP1 MLOAD PUSH1 0x20 DUP3 ADD MLOAD PUSH2 0x8C8 SWAP2 SWAP1 TIMESTAMP PUSH2 0x12BF JUMP JUMPDEST PUSH2 0x8D3 DUP10 DUP10 DUP5 PUSH2 0xDC8 JUMP JUMPDEST POP DUP1 SWAP4 POP POP DUP8 PUSH1 0x1 PUSH1 0x1 PUSH1 0xA0 SHL SUB AND DUP10 PUSH1 0x1 PUSH1 0x1 PUSH1 0xA0 SHL SUB AND CALLER PUSH1 0x1 PUSH1 0x1 PUSH1 0xA0 SHL SUB AND PUSH32 0xC3D58168C5AE7397731D063D5BBF3D657854427343F4C083240F7AACAA2D0F62 DUP11 DUP11 PUSH1 0x40 MLOAD PUSH2 0x927 SWAP3 SWAP2 SWAP1 PUSH2 0x37C4 JUMP JUMPDEST PUSH1 0x40 MLOAD DUP1 SWAP2 SUB SWAP1 LOG4 POP POP PUSH2 0x942 JUMP JUMPDEST PUSH2 0x93F DUP8 PUSH2 0xA36 JUMP JUMPDEST SWAP1 POP JUMPDEST PUSH2 0x94A PUSH2 0x2E16 JUMP JUMPDEST PUSH2 0x95A DUP9 DUP9 DUP5 DUP5 DUP9 DUP9 PUSH1 0x0 PUSH2 0xF68 JUMP JUMPDEST PUSH2 0x963 DUP8 PUSH2 0x122B JUMP JUMPDEST ISZERO PUSH2 0xA19 JUMPI PUSH1 0x40 MLOAD PUSH4 0xF23A6E61 PUSH1 0xE0 SHL DUP1 DUP3 MSTORE SWAP1 PUSH1 0x1 PUSH1 0x1 PUSH1 0xA0 SHL SUB DUP10 AND SWAP1 PUSH4 0xF23A6E61 SWAP1 PUSH2 0x9A0 SWAP1 CALLER SWAP1 DUP14 SWAP1 DUP13 SWAP1 DUP13 SWAP1 DUP13 SWAP1 DUP13 SWAP1 PUSH1 0x4 ADD PUSH2 0x3451 JUMP JUMPDEST PUSH1 0x20 PUSH1 0x40 MLOAD DUP1 DUP4 SUB DUP2 PUSH1 0x0 DUP8 DUP1 EXTCODESIZE ISZERO DUP1 ISZERO PUSH2 0x9BA JUMPI PUSH1 0x0 DUP1 REVERT JUMPDEST POP GAS CALL ISZERO DUP1 ISZERO PUSH2 0x9CE JUMPI RETURNDATASIZE PUSH1 0x0 DUP1 RETURNDATACOPY RETURNDATASIZE PUSH1 0x0 REVERT JUMPDEST POP POP POP POP PUSH1 0x40 MLOAD RETURNDATASIZE PUSH1 0x1F NOT PUSH1 0x1F DUP3 ADD AND DUP3 ADD DUP1 PUSH1 0x40 MSTORE POP DUP2 ADD SWAP1 PUSH2 0x9F2 SWAP2 SWAP1 PUSH2 0x31D9 JUMP JUMPDEST PUSH1 0x1 PUSH1 0x1 PUSH1 0xE0 SHL SUB NOT AND EQ PUSH2 0xA19 JUMPI PUSH1 0x40 MLOAD PUSH3 0x461BCD PUSH1 0xE5 SHL DUP2 MSTORE PUSH1 0x4 ADD PUSH2 0x3D8 SWAP1 PUSH2 0x379E JUMP JUMPDEST POP POP POP POP POP POP POP POP JUMP JUMPDEST PUSH1 0x0 DUP1 DUP3 SLT ISZERO PUSH2 0xA32 JUMPI PUSH1 0x0 DUP1 REVERT JUMPDEST POP SWAP1 JUMP JUMPDEST PUSH2 0xA3E PUSH2 0x2E16 JUMP JUMPDEST PUSH1 0x0 PUSH2 0xA48 PUSH2 0x12F6 JUMP JUMPDEST PUSH1 0x1 PUSH1 0x1 PUSH1 0xA0 SHL SUB SWAP4 SWAP1 SWAP4 AND PUSH1 0x0 SWAP1 DUP2 MSTORE PUSH1 0x20 SWAP4 DUP5 MSTORE PUSH1 0x40 SWAP1 DUP2 SWAP1 KECCAK256 DUP2 MLOAD PUSH1 0xA0 DUP2 ADD DUP4 MSTORE SWAP1 SLOAD PUSH5 0xFFFFFFFFFF DUP2 AND DUP3 MSTORE PUSH6 0x10000000000 DUP2 DIV PUSH1 0xF8 SHL PUSH1 0x1 PUSH1 0x1 PUSH1 0xF8 SHL SUB NOT AND SWAP6 DUP3 ADD SWAP6 SWAP1 SWAP6 MSTORE PUSH1 0x1 PUSH1 0x30 SHL DUP6 DIV PUSH1 0xFF AND SWAP2 DUP2 ADD SWAP2 SWAP1 SWAP2 MSTORE PUSH1 0x1 PUSH1 0x38 SHL DUP5 DIV PUSH2 0xFFFF AND PUSH1 0x60 DUP3 ADD MSTORE PUSH1 0x1 PUSH1 0x48 SHL SWAP1 SWAP4 DIV PUSH1 0x70 SHL PUSH1 0x1 PUSH1 0x1 PUSH1 0x70 SHL SUB NOT AND PUSH1 0x80 DUP5 ADD MSTORE POP SWAP1 SWAP2 SWAP1 POP JUMP JUMPDEST PUSH1 0x60 ADD MLOAD PUSH2 0xFFFF AND ISZERO ISZERO SWAP1 JUMP JUMPDEST PUSH1 0x0 DUP1 PUSH1 0x0 DUP1 PUSH2 0xAF3 DUP6 PUSH2 0x128C JUMP JUMPDEST SWAP3 POP SWAP3 POP SWAP3 POP DUP6 DUP4 EQ ISZERO DUP1 PUSH2 0xB09 JUMPI POP PUSH1 0x1 DUP2 EQ ISZERO JUMPDEST ISZERO PUSH2 0xB1A JUMPI PUSH1 0x0 SWAP4 POP POP POP POP PUSH2 0x653 JUMP JUMPDEST PUSH2 0xB25 DUP8 DUP5 DUP5 PUSH2 0x1303 JUMP JUMPDEST SWAP4 POP POP POP POP PUSH2 0x653 JUMP JUMPDEST PUSH1 0x60 PUSH1 0x0 PUSH2 0xB3D DUP5 DUP5 PUSH2 0x1348 JUMP JUMPDEST SWAP1 POP PUSH1 0x1 DUP2 MLOAD GT PUSH2 0xB4F JUMPI SWAP1 POP PUSH2 0x30C JUMP JUMPDEST PUSH2 0x653 DUP2 PUSH2 0x145F JUMP JUMPDEST PUSH1 0x0 DUP1 PUSH1 0x0 DUP1 PUSH2 0xB67 DUP6 PUSH2 0x128C JUMP JUMPDEST SWAP3 POP SWAP3 POP SWAP3 POP PUSH1 0x0 JUMPDEST DUP7 MLOAD DUP2 LT ISZERO PUSH2 0xBD4 JUMPI PUSH1 0x0 DUP8 DUP3 DUP2 MLOAD DUP2 LT PUSH2 0xB87 JUMPI INVALID JUMPDEST PUSH1 0x20 MUL PUSH1 0x20 ADD ADD MLOAD SWAP1 POP DUP5 DUP2 PUSH1 0x0 ADD MLOAD EQ DUP1 ISZERO PUSH2 0xBA7 JUMPI POP DUP4 DUP2 PUSH1 0x20 ADD MLOAD EQ JUMPDEST DUP1 ISZERO PUSH2 0xBB6 JUMPI POP DUP3 DUP2 PUSH1 0x40 ADD MLOAD EQ JUMPDEST ISZERO PUSH2 0xBCB JUMPI PUSH1 0x60 ADD MLOAD SWAP5 POP PUSH2 0x30C SWAP4 POP POP POP POP JUMP JUMPDEST POP PUSH1 0x1 ADD PUSH2 0xB70 JUMP JUMPDEST POP POP POP POP SWAP3 SWAP2 POP POP JUMP JUMPDEST DUP1 PUSH1 0x1 PUSH1 0x1 PUSH1 0xA0 SHL SUB AND DUP3 PUSH1 0x1 PUSH1 0x1 PUSH1 0xA0 SHL SUB AND EQ ISZERO DUP1 ISZERO PUSH2 0xC08 JUMPI POP PUSH1 0x1 PUSH1 0x1 PUSH1 0xA0 SHL SUB DUP2 AND ISZERO ISZERO JUMPDEST DUP1 ISZERO PUSH2 0xC1D JUMPI POP PUSH1 0x1 PUSH1 0x1 PUSH1 0xA0 SHL SUB DUP2 AND ADDRESS EQ ISZERO JUMPDEST PUSH2 0xC39 JUMPI PUSH1 0x40 MLOAD PUSH3 0x461BCD PUSH1 0xE5 SHL DUP2 MSTORE PUSH1 0x4 ADD PUSH2 0x3D8 SWAP1 PUSH2 0x3651 JUMP JUMPDEST CALLER PUSH1 0x1 PUSH1 0x1 PUSH1 0xA0 SHL SUB DUP4 AND EQ DUP1 PUSH2 0xC55 JUMPI POP PUSH2 0xC55 DUP3 CALLER PUSH2 0x7D6 JUMP JUMPDEST PUSH2 0xC71 JUMPI PUSH1 0x40 MLOAD PUSH3 0x461BCD PUSH1 0xE5 SHL DUP2 MSTORE PUSH1 0x4 ADD PUSH2 0x3D8 SWAP1 PUSH2 0x36A5 JUMP JUMPDEST PUSH2 0xC7A DUP3 PUSH2 0x161D JUMP JUMPDEST POP POP JUMP JUMPDEST PUSH1 0x60 PUSH1 0x0 DUP5 DUP4 EQ PUSH2 0xC8E JUMPI PUSH1 0x0 DUP1 REVERT JUMPDEST PUSH1 0x0 DUP1 DUP7 PUSH1 0x1 PUSH1 0x1 PUSH1 0x40 SHL SUB DUP2 GT DUP1 ISZERO PUSH2 0xCA7 JUMPI PUSH1 0x0 DUP1 REVERT JUMPDEST POP PUSH1 0x40 MLOAD SWAP1 DUP1 DUP3 MSTORE DUP1 PUSH1 0x20 MUL PUSH1 0x20 ADD DUP3 ADD PUSH1 0x40 MSTORE DUP1 ISZERO PUSH2 0xCE1 JUMPI DUP2 PUSH1 0x20 ADD JUMPDEST PUSH2 0xCCE PUSH2 0x2E44 JUMP JUMPDEST DUP2 MSTORE PUSH1 0x20 ADD SWAP1 PUSH1 0x1 SWAP1 SUB SWAP1 DUP2 PUSH2 0xCC6 JUMPI SWAP1 POP JUMPDEST POP SWAP1 POP PUSH1 0x0 JUMPDEST DUP8 DUP2 LT ISZERO PUSH2 0xDBB JUMPI DUP1 ISZERO PUSH2 0xD3B JUMPI DUP9 DUP9 PUSH1 0x1 DUP4 SUB DUP2 DUP2 LT PUSH2 0xD04 JUMPI INVALID JUMPDEST SWAP1 POP PUSH1 0x20 MUL ADD CALLDATALOAD DUP10 DUP10 DUP4 DUP2 DUP2 LT PUSH2 0xD17 JUMPI INVALID JUMPDEST SWAP1 POP PUSH1 0x20 MUL ADD CALLDATALOAD GT PUSH2 0xD3B JUMPI PUSH1 0x40 MLOAD PUSH3 0x461BCD PUSH1 0xE5 SHL DUP2 MSTORE PUSH1 0x4 ADD PUSH2 0x3D8 SWAP1 PUSH2 0x3772 JUMP JUMPDEST PUSH1 0x0 DUP3 DUP3 DUP2 MLOAD DUP2 LT PUSH2 0xD49 JUMPI INVALID JUMPDEST PUSH1 0x20 MUL PUSH1 0x20 ADD ADD MLOAD SWAP1 POP PUSH2 0xD6E DUP11 DUP11 DUP5 DUP2 DUP2 LT PUSH2 0xD62 JUMPI INVALID JUMPDEST SWAP1 POP PUSH1 0x20 MUL ADD CALLDATALOAD PUSH2 0x128C JUMP JUMPDEST PUSH1 0x40 DUP5 ADD MSTORE PUSH1 0x20 DUP4 ADD DUP2 SWAP1 MSTORE DUP2 DUP4 MSTORE PUSH2 0xD88 SWAP2 SWAP1 TIMESTAMP PUSH2 0x12BF JUMP JUMPDEST DUP8 DUP8 DUP4 DUP2 DUP2 LT PUSH2 0xD94 JUMPI INVALID JUMPDEST PUSH1 0x20 MUL SWAP2 SWAP1 SWAP2 ADD CALLDATALOAD PUSH1 0x60 DUP4 ADD DUP2 SWAP1 MSTORE PUSH1 0x0 SGT ISZERO SWAP1 POP PUSH2 0xDB2 JUMPI PUSH1 0x1 SWAP4 POP JUMPDEST POP PUSH1 0x1 ADD PUSH2 0xCE7 JUMP JUMPDEST POP SWAP8 SWAP1 SWAP7 POP SWAP5 POP POP POP POP POP JUMP JUMPDEST PUSH2 0xDD0 PUSH2 0x2E16 JUMP JUMPDEST PUSH2 0xDD8 PUSH2 0x2E16 JUMP JUMPDEST PUSH1 0x0 PUSH2 0xDE3 DUP6 PUSH2 0xA36 JUMP JUMPDEST SWAP1 POP PUSH2 0xDEE DUP2 PUSH2 0x1668 JUMP JUMPDEST ISZERO PUSH2 0xE7F JUMPI PUSH1 0x40 MLOAD PUSH4 0x37B5FC21 PUSH1 0xE1 SHL DUP2 MSTORE PUSH20 0x0 SWAP1 PUSH4 0x6F6BF842 SWAP1 PUSH2 0xE2C SWAP1 DUP9 SWAP1 DUP6 SWAP1 PUSH1 0x4 ADD PUSH2 0x34A6 JUMP JUMPDEST PUSH1 0xA0 PUSH1 0x40 MLOAD DUP1 DUP4 SUB DUP2 DUP7 DUP1 EXTCODESIZE ISZERO DUP1 ISZERO PUSH2 0xE44 JUMPI PUSH1 0x0 DUP1 REVERT JUMPDEST POP GAS DELEGATECALL ISZERO DUP1 ISZERO PUSH2 0xE58 JUMPI RETURNDATASIZE PUSH1 0x0 DUP1 RETURNDATACOPY RETURNDATASIZE PUSH1 0x0 REVERT JUMPDEST POP POP POP POP PUSH1 0x40 MLOAD RETURNDATASIZE PUSH1 0x1F NOT PUSH1 0x1F DUP3 ADD AND DUP3 ADD DUP1 PUSH1 0x40 MSTORE POP DUP2 ADD SWAP1 PUSH2 0xE7C SWAP2 SWAP1 PUSH2 0x328B JUMP JUMPDEST SWAP1 POP JUMPDEST PUSH2 0xE8A DUP6 DUP3 DUP7 PUSH2 0x16BC JUMP JUMPDEST SWAP1 POP PUSH2 0xE96 DUP2 DUP7 PUSH2 0x173D JUMP JUMPDEST PUSH2 0xE9F DUP5 PUSH2 0x1841 JUMP JUMPDEST PUSH1 0x0 PUSH2 0xEAA DUP8 PUSH2 0xA36 JUMP JUMPDEST SWAP1 POP PUSH2 0xEB5 DUP2 PUSH2 0x1668 JUMP JUMPDEST ISZERO PUSH2 0xF46 JUMPI PUSH1 0x40 MLOAD PUSH4 0x37B5FC21 PUSH1 0xE1 SHL DUP2 MSTORE PUSH20 0x0 SWAP1 PUSH4 0x6F6BF842 SWAP1 PUSH2 0xEF3 SWAP1 DUP11 SWAP1 DUP6 SWAP1 PUSH1 0x4 ADD PUSH2 0x34A6 JUMP JUMPDEST PUSH1 0xA0 PUSH1 0x40 MLOAD DUP1 DUP4 SUB DUP2 DUP7 DUP1 EXTCODESIZE ISZERO DUP1 ISZERO PUSH2 0xF0B JUMPI PUSH1 0x0 DUP1 REVERT JUMPDEST POP GAS DELEGATECALL ISZERO DUP1 ISZERO PUSH2 0xF1F JUMPI RETURNDATASIZE PUSH1 0x0 DUP1 RETURNDATACOPY RETURNDATASIZE PUSH1 0x0 REVERT JUMPDEST POP POP POP POP PUSH1 0x40 MLOAD RETURNDATASIZE PUSH1 0x1F NOT PUSH1 0x1F DUP3 ADD AND DUP3 ADD DUP1 PUSH1 0x40 MSTORE POP DUP2 ADD SWAP1 PUSH2 0xF43 SWAP2 SWAP1 PUSH2 0x328B JUMP JUMPDEST SWAP1 POP JUMPDEST PUSH2 0xF51 DUP8 DUP3 DUP8 PUSH2 0x16BC JUMP JUMPDEST SWAP1 POP PUSH2 0xF5D DUP2 DUP9 PUSH2 0x173D JUMP JUMPDEST SWAP7 SWAP1 SWAP6 POP SWAP4 POP POP POP POP JUMP JUMPDEST PUSH1 0x0 DUP1 PUSH1 0x20 DUP5 LT PUSH2 0xF85 JUMPI PUSH1 0x0 PUSH2 0xF81 DUP6 DUP8 ADD DUP8 PUSH2 0x31A5 JUMP JUMPDEST SWAP3 POP POP JUMPDEST PUSH1 0x1 PUSH1 0x1 PUSH1 0xE0 SHL SUB NOT DUP3 AND PUSH4 0x66890643 PUSH1 0xE0 SHL EQ DUP1 PUSH2 0xFB4 JUMPI POP PUSH1 0x1 PUSH1 0x1 PUSH1 0xE0 SHL SUB NOT DUP3 AND PUSH4 0x37351953 PUSH1 0xE1 SHL EQ JUMPDEST DUP1 PUSH2 0xFCF JUMPI POP PUSH1 0x1 PUSH1 0x1 PUSH1 0xE0 SHL SUB NOT DUP3 AND PUSH4 0x276B64B PUSH1 0xE0 SHL EQ JUMPDEST ISZERO PUSH2 0x10DF JUMPI PUSH2 0xFE2 PUSH1 0x24 PUSH1 0x4 DUP7 DUP9 PUSH2 0x37D2 JUMP JUMPDEST DUP2 ADD SWAP1 PUSH2 0xFEF SWAP2 SWAP1 PUSH2 0x2F5A JUMP JUMPDEST SWAP1 POP DUP9 PUSH1 0x1 PUSH1 0x1 PUSH1 0xA0 SHL SUB AND DUP2 PUSH1 0x1 PUSH1 0x1 PUSH1 0xA0 SHL SUB AND EQ DUP1 PUSH2 0x1032 JUMPI POP DUP8 PUSH1 0x1 PUSH1 0x1 PUSH1 0xA0 SHL SUB AND DUP2 PUSH1 0x1 PUSH1 0x1 PUSH1 0xA0 SHL SUB AND EQ DUP1 ISZERO PUSH2 0x1032 JUMPI POP PUSH2 0x1032 DUP9 CALLER PUSH2 0x7D6 JUMP JUMPDEST PUSH2 0x104E JUMPI PUSH1 0x40 MLOAD PUSH3 0x461BCD PUSH1 0xE5 SHL DUP2 MSTORE PUSH1 0x4 ADD PUSH2 0x3D8 SWAP1 PUSH2 0x367A JUMP JUMPDEST PUSH1 0x0 DUP1 ADDRESS PUSH1 0x1 PUSH1 0x1 PUSH1 0xA0 SHL SUB AND CALLVALUE DUP9 DUP9 PUSH1 0x40 MLOAD PUSH2 0x106C SWAP3 SWAP2 SWAP1 PUSH2 0x33C9 JUMP JUMPDEST PUSH1 0x0 PUSH1 0x40 MLOAD DUP1 DUP4 SUB DUP2 DUP6 DUP8 GAS CALL SWAP3 POP POP POP RETURNDATASIZE DUP1 PUSH1 0x0 DUP2 EQ PUSH2 0x10A9 JUMPI PUSH1 0x40 MLOAD SWAP2 POP PUSH1 0x1F NOT PUSH1 0x3F RETURNDATASIZE ADD AND DUP3 ADD PUSH1 0x40 MSTORE RETURNDATASIZE DUP3 MSTORE RETURNDATASIZE PUSH1 0x0 PUSH1 0x20 DUP5 ADD RETURNDATACOPY PUSH2 0x10AE JUMP JUMPDEST PUSH1 0x60 SWAP2 POP JUMPDEST POP SWAP2 POP SWAP2 POP DUP2 PUSH2 0x10BD DUP3 PUSH2 0x1890 JUMP JUMPDEST SWAP1 PUSH2 0x10DB JUMPI PUSH1 0x40 MLOAD PUSH3 0x461BCD PUSH1 0xE5 SHL DUP2 MSTORE PUSH1 0x4 ADD PUSH2 0x3D8 SWAP2 SWAP1 PUSH2 0x361E JUMP JUMPDEST POP POP POP JUMPDEST DUP9 PUSH1 0x1 PUSH1 0x1 PUSH1 0xA0 SHL SUB AND DUP2 PUSH1 0x1 PUSH1 0x1 PUSH1 0xA0 SHL SUB AND EQ ISZERO DUP1 ISZERO PUSH2 0x110E JUMPI POP PUSH1 0x20 DUP8 ADD MLOAD PUSH1 0x1 PUSH1 0x1 PUSH1 0xF8 SHL SUB NOT AND ISZERO ISZERO JUMPDEST ISZERO PUSH2 0x117B JUMPI PUSH1 0x40 MLOAD PUSH4 0x6CCC642F PUSH1 0xE0 SHL DUP2 MSTORE PUSH20 0x0 SWAP1 PUSH4 0x6CCC642F SWAP1 PUSH2 0x114A SWAP1 DUP13 SWAP1 PUSH1 0x4 ADD PUSH2 0x33D9 JUMP JUMPDEST PUSH1 0x0 PUSH1 0x40 MLOAD DUP1 DUP4 SUB DUP2 DUP7 DUP1 EXTCODESIZE ISZERO DUP1 ISZERO PUSH2 0x1162 JUMPI PUSH1 0x0 DUP1 REVERT JUMPDEST POP GAS DELEGATECALL ISZERO DUP1 ISZERO PUSH2 0x1176 JUMPI RETURNDATASIZE PUSH1 0x0 DUP1 RETURNDATACOPY RETURNDATASIZE PUSH1 0x0 REVERT JUMPDEST POP POP POP POP JUMPDEST DUP3 DUP1 ISZERO PUSH2 0x119A JUMPI POP DUP8 PUSH1 0x1 PUSH1 0x1 PUSH1 0xA0 SHL SUB AND DUP2 PUSH1 0x1 PUSH1 0x1 PUSH1 0xA0 SHL SUB AND EQ ISZERO JUMPDEST DUP1 ISZERO PUSH2 0x11B3 JUMPI POP PUSH1 0x20 DUP7 ADD MLOAD PUSH1 0x1 PUSH1 0x1 PUSH1 0xF8 SHL SUB NOT AND ISZERO ISZERO JUMPDEST ISZERO PUSH2 0x1220 JUMPI PUSH1 0x40 MLOAD PUSH4 0x6CCC642F PUSH1 0xE0 SHL DUP2 MSTORE PUSH20 0x0 SWAP1 PUSH4 0x6CCC642F SWAP1 PUSH2 0x11EF SWAP1 DUP12 SWAP1 PUSH1 0x4 ADD PUSH2 0x33D9 JUMP JUMPDEST PUSH1 0x0 PUSH1 0x40 MLOAD DUP1 DUP4 SUB DUP2 DUP7 DUP1 EXTCODESIZE ISZERO DUP1 ISZERO PUSH2 0x1207 JUMPI PUSH1 0x0 DUP1 REVERT JUMPDEST POP GAS DELEGATECALL ISZERO DUP1 ISZERO PUSH2 0x121B JUMPI RETURNDATASIZE PUSH1 0x0 DUP1 RETURNDATACOPY RETURNDATASIZE PUSH1 0x0 REVERT JUMPDEST POP POP POP POP JUMPDEST POP POP POP POP POP POP POP POP POP JUMP JUMPDEST EXTCODESIZE ISZERO ISZERO SWAP1 JUMP JUMPDEST PUSH1 0x0 PUSH2 0x3FFF DUP5 GT ISZERO PUSH2 0x1242 JUMPI PUSH1 0x0 DUP1 REVERT JUMPDEST PUSH5 0xFFFFFFFFFF DUP4 GT ISZERO PUSH2 0x1254 JUMPI PUSH1 0x0 DUP1 REVERT JUMPDEST PUSH1 0x8 DUP3 GT ISZERO PUSH2 0x1262 JUMPI PUSH1 0x0 DUP1 REVERT JUMPDEST POP PUSH8 0xFFFF000000000000 PUSH1 0x30 DUP5 SWAP1 SHL AND PUSH6 0xFFFFFFFFFF00 PUSH1 0x8 DUP5 SWAP1 SHL AND OR PUSH1 0xFF DUP3 AND OR SWAP4 SWAP3 POP POP POP JUMP JUMPDEST PUSH2 0xFFFF PUSH1 0x30 DUP3 SWAP1 SHR AND SWAP2 PUSH5 0xFFFFFFFFFF PUSH1 0x8 DUP4 SWAP1 SHR AND SWAP2 PUSH1 0xFF AND SWAP1 JUMP JUMPDEST PUSH1 0x0 PUSH1 0x1 PUSH1 0x1 PUSH1 0xFF SHL SUB DUP3 GT ISZERO PUSH2 0xA32 JUMPI PUSH1 0x0 DUP1 REVERT JUMPDEST PUSH2 0x12D5 PUSH2 0x12CB DUP5 PUSH2 0x18F0 JUMP JUMPDEST PUSH1 0xFF AND DUP4 DUP4 PUSH2 0x1906 JUMP JUMPDEST PUSH2 0x12F1 JUMPI PUSH1 0x40 MLOAD PUSH3 0x461BCD PUSH1 0xE5 SHL DUP2 MSTORE PUSH1 0x4 ADD PUSH2 0x3D8 SWAP1 PUSH2 0x3748 JUMP JUMPDEST POP POP POP JUMP JUMPDEST PUSH1 0x0 DUP1 PUSH2 0x30C PUSH1 0x1 PUSH2 0x1956 JUMP JUMPDEST PUSH1 0x0 DUP1 PUSH2 0x130E PUSH2 0x196F JUMP JUMPDEST PUSH1 0x1 PUSH1 0x1 PUSH1 0xA0 SHL SUB DUP7 AND PUSH1 0x0 SWAP1 DUP2 MSTORE PUSH1 0x20 SWAP2 DUP3 MSTORE PUSH1 0x40 DUP1 DUP3 KECCAK256 DUP8 DUP4 MSTORE DUP4 MSTORE DUP1 DUP3 KECCAK256 DUP7 DUP4 MSTORE SWAP1 SWAP3 MSTORE KECCAK256 SLOAD PUSH1 0xF SWAP1 DUP2 SIGNEXTEND SWAP1 SIGNEXTEND SWAP2 POP POP SWAP4 SWAP3 POP POP POP JUMP JUMPDEST PUSH1 0x60 PUSH1 0x10 DUP3 PUSH1 0xFF AND GT ISZERO PUSH2 0x135B JUMPI PUSH1 0x0 DUP1 REVERT JUMPDEST PUSH1 0x0 PUSH2 0x1365 PUSH2 0x197C JUMP JUMPDEST PUSH1 0x1 PUSH1 0x1 PUSH1 0xA0 SHL SUB DUP6 AND PUSH1 0x0 SWAP1 DUP2 MSTORE PUSH1 0x20 DUP3 SWAP1 MSTORE PUSH1 0x40 DUP2 KECCAK256 SWAP2 SWAP3 POP PUSH1 0xFF DUP6 AND PUSH1 0x1 PUSH1 0x1 PUSH1 0x40 SHL SUB DUP2 GT DUP1 ISZERO PUSH2 0x1399 JUMPI PUSH1 0x0 DUP1 REVERT JUMPDEST POP PUSH1 0x40 MLOAD SWAP1 DUP1 DUP3 MSTORE DUP1 PUSH1 0x20 MUL PUSH1 0x20 ADD DUP3 ADD PUSH1 0x40 MSTORE DUP1 ISZERO PUSH2 0x13D3 JUMPI DUP2 PUSH1 0x20 ADD JUMPDEST PUSH2 0x13C0 PUSH2 0x2E44 JUMP JUMPDEST DUP2 MSTORE PUSH1 0x20 ADD SWAP1 PUSH1 0x1 SWAP1 SUB SWAP1 DUP2 PUSH2 0x13B8 JUMPI SWAP1 POP JUMPDEST POP SWAP1 POP PUSH1 0x0 JUMPDEST DUP6 PUSH1 0xFF AND DUP2 LT ISZERO PUSH2 0x62B JUMPI PUSH1 0x0 DUP4 DUP3 PUSH1 0x10 DUP2 LT PUSH2 0x13F2 JUMPI INVALID JUMPDEST ADD SWAP1 POP PUSH1 0x0 DUP4 DUP4 DUP2 MLOAD DUP2 LT PUSH2 0x1403 JUMPI INVALID JUMPDEST PUSH1 0x20 SWAP1 DUP2 MUL SWAP2 SWAP1 SWAP2 ADD DUP2 ADD MLOAD DUP4 SLOAD PUSH2 0xFFFF DUP2 AND DUP3 MSTORE PUSH5 0xFFFFFFFFFF PUSH3 0x10000 DUP3 DIV AND SWAP3 DUP3 ADD SWAP3 SWAP1 SWAP3 MSTORE PUSH1 0xFF PUSH1 0x1 PUSH1 0x38 SHL DUP4 DIV AND PUSH1 0x40 DUP3 ADD MSTORE PUSH1 0x1 PUSH1 0x40 SHL SWAP1 SWAP2 DIV PUSH1 0xA SWAP1 DUP2 SIGNEXTEND SWAP1 SIGNEXTEND PUSH1 0x60 DUP3 ADD MSTORE PUSH1 0x80 ADD SWAP2 SWAP1 SWAP2 MSTORE POP PUSH1 0x1 ADD PUSH2 0x13D9 JUMP JUMPDEST DUP1 MLOAD PUSH1 0x0 DUP2 PUSH1 0x1 PUSH1 0x1 PUSH1 0x40 SHL SUB DUP2 GT DUP1 ISZERO PUSH2 0x1479 JUMPI PUSH1 0x0 DUP1 REVERT JUMPDEST POP PUSH1 0x40 MLOAD SWAP1 DUP1 DUP3 MSTORE DUP1 PUSH1 0x20 MUL PUSH1 0x20 ADD DUP3 ADD PUSH1 0x40 MSTORE DUP1 ISZERO PUSH2 0x14A3 JUMPI DUP2 PUSH1 0x20 ADD PUSH1 0x20 DUP3 MUL DUP1 CALLDATASIZE DUP4 CALLDATACOPY ADD SWAP1 POP JUMPDEST POP SWAP1 POP PUSH1 0x0 JUMPDEST DUP3 DUP2 LT ISZERO PUSH2 0x1500 JUMPI PUSH1 0x0 DUP5 DUP3 DUP2 MLOAD DUP2 LT PUSH2 0x14BF JUMPI INVALID JUMPDEST PUSH1 0x20 MUL PUSH1 0x20 ADD ADD MLOAD SWAP1 POP PUSH2 0x14E0 DUP2 PUSH1 0x0 ADD MLOAD DUP3 PUSH1 0x20 ADD MLOAD DUP4 PUSH1 0x40 ADD MLOAD PUSH2 0x1231 JUMP JUMPDEST DUP4 DUP4 DUP2 MLOAD DUP2 LT PUSH2 0x14EC JUMPI INVALID JUMPDEST PUSH1 0x20 SWAP1 DUP2 MUL SWAP2 SWAP1 SWAP2 ADD ADD MSTORE POP PUSH1 0x1 ADD PUSH2 0x14A9 JUMP JUMPDEST POP PUSH1 0x1 JUMPDEST DUP3 DUP2 LT ISZERO PUSH2 0x1617 JUMPI DUP1 JUMPDEST PUSH1 0x0 DUP2 GT DUP1 ISZERO PUSH2 0x1546 JUMPI POP DUP3 DUP2 DUP2 MLOAD DUP2 LT PUSH2 0x1525 JUMPI INVALID JUMPDEST PUSH1 0x20 MUL PUSH1 0x20 ADD ADD MLOAD DUP4 PUSH1 0x1 DUP4 SUB DUP2 MLOAD DUP2 LT PUSH2 0x153C JUMPI INVALID JUMPDEST PUSH1 0x20 MUL PUSH1 0x20 ADD ADD MLOAD GT JUMPDEST ISZERO PUSH2 0x160E JUMPI DUP3 DUP2 DUP2 MLOAD DUP2 LT PUSH2 0x1557 JUMPI INVALID JUMPDEST PUSH1 0x20 MUL PUSH1 0x20 ADD ADD MLOAD DUP4 PUSH1 0x1 DUP4 SUB DUP2 MLOAD DUP2 LT PUSH2 0x156E JUMPI INVALID JUMPDEST PUSH1 0x20 MUL PUSH1 0x20 ADD ADD MLOAD DUP5 PUSH1 0x1 DUP5 SUB DUP2 MLOAD DUP2 LT PUSH2 0x1585 JUMPI INVALID JUMPDEST PUSH1 0x20 MUL PUSH1 0x20 ADD ADD DUP6 DUP5 DUP2 MLOAD DUP2 LT PUSH2 0x1598 JUMPI INVALID JUMPDEST PUSH1 0x20 MUL PUSH1 0x20 ADD ADD DUP3 DUP2 MSTORE POP DUP3 DUP2 MSTORE POP POP POP DUP5 DUP2 DUP2 MLOAD DUP2 LT PUSH2 0x15B5 JUMPI INVALID JUMPDEST PUSH1 0x20 MUL PUSH1 0x20 ADD ADD MLOAD DUP6 PUSH1 0x1 DUP4 SUB DUP2 MLOAD DUP2 LT PUSH2 0x15CC JUMPI INVALID JUMPDEST PUSH1 0x20 MUL PUSH1 0x20 ADD ADD MLOAD DUP7 PUSH1 0x1 DUP5 SUB DUP2 MLOAD DUP2 LT PUSH2 0x15E3 JUMPI INVALID JUMPDEST PUSH1 0x20 MUL PUSH1 0x20 ADD ADD DUP8 DUP5 DUP2 MLOAD DUP2 LT PUSH2 0x15F6 JUMPI INVALID JUMPDEST PUSH1 0x20 SWAP1 DUP2 MUL SWAP2 SWAP1 SWAP2 ADD ADD SWAP2 SWAP1 SWAP2 MSTORE MSTORE PUSH1 0x0 NOT ADD PUSH2 0x150E JUMP JUMPDEST POP PUSH1 0x1 ADD PUSH2 0x1504 JUMP JUMPDEST POP POP POP POP JUMP JUMPDEST PUSH1 0x1 PUSH1 0x1 PUSH1 0xA0 SHL SUB DUP2 AND PUSH2 0x1630 JUMPI PUSH1 0x0 DUP1 REVERT JUMPDEST PUSH1 0x1 PUSH1 0x1 PUSH1 0xA0 SHL SUB DUP2 AND ADDRESS EQ ISZERO PUSH2 0x1646 JUMPI PUSH1 0x0 DUP1 REVERT JUMPDEST PUSH1 0x0 PUSH2 0x1651 DUP3 PUSH2 0x1989 JUMP JUMPDEST POP POP POP POP PUSH2 0xFFFF AND SWAP1 POP DUP1 PUSH1 0x0 EQ PUSH2 0xC7A JUMPI PUSH1 0x0 DUP1 REVERT JUMPDEST PUSH1 0x0 TIMESTAMP PUSH2 0x1674 DUP4 PUSH2 0xAD7 JUMP JUMPDEST ISZERO PUSH2 0x1695 JUMPI PUSH2 0x1682 DUP2 PUSH2 0x19F2 JUMP JUMPDEST DUP4 MLOAD PUSH5 0xFFFFFFFFFF AND LT SWAP2 POP PUSH2 0x327 SWAP1 POP JUMP JUMPDEST DUP3 MLOAD PUSH5 0xFFFFFFFFFF AND ISZERO DUP1 ISZERO SWAP1 PUSH2 0x16B4 JUMPI POP DUP3 MLOAD PUSH5 0xFFFFFFFFFF AND DUP2 LT ISZERO JUMPDEST SWAP2 POP POP PUSH2 0x327 JUMP JUMPDEST PUSH2 0x16C4 PUSH2 0x2E16 JUMP JUMPDEST PUSH2 0x16CD DUP4 PUSH2 0x1668 JUMP JUMPDEST ISZERO PUSH2 0x16EA JUMPI PUSH1 0x40 MLOAD PUSH3 0x461BCD PUSH1 0xE5 SHL DUP2 MSTORE PUSH1 0x4 ADD PUSH2 0x3D8 SWAP1 PUSH2 0x36F2 JUMP JUMPDEST PUSH2 0x16F3 DUP4 PUSH2 0xAD7 JUMP JUMPDEST ISZERO PUSH2 0x1708 JUMPI PUSH2 0x1703 DUP5 DUP5 DUP5 PUSH2 0x1A13 JUMP JUMPDEST PUSH2 0x1735 JUMP JUMPDEST PUSH1 0x0 PUSH2 0x171A DUP6 DUP6 PUSH1 0x40 ADD MLOAD DUP6 MLOAD PUSH2 0x1ADB JUMP JUMPDEST SWAP1 POP PUSH2 0x1726 DUP2 DUP5 PUSH2 0x1B6D JUMP JUMPDEST PUSH2 0x1733 DUP5 DUP7 DUP4 PUSH1 0x0 PUSH2 0x1BCB JUMP JUMPDEST POP JUMPDEST POP SWAP1 SWAP3 SWAP2 POP POP JUMP JUMPDEST PUSH1 0x0 PUSH2 0x1747 PUSH2 0x12F6 JUMP JUMPDEST PUSH1 0x1 PUSH1 0x1 PUSH1 0xA0 SHL SUB DUP4 AND PUSH1 0x0 DUP2 DUP2 MSTORE PUSH1 0x20 DUP4 DUP2 MSTORE PUSH1 0x40 DUP1 DUP4 KECCAK256 DUP9 MLOAD DUP2 SLOAD SWAP4 DUP11 ADD MLOAD DUP4 DUP12 ADD MLOAD PUSH1 0x60 DUP13 ADD MLOAD PUSH1 0x80 DUP14 ADD MLOAD PUSH1 0x70 SHR PUSH1 0x1 PUSH1 0x48 SHL MUL PUSH27 0xFFFFFFFFFFFFFFFFFFFFFFFFFFFFFFFFFFFF000000000000000000 NOT PUSH2 0xFFFF SWAP1 SWAP3 AND PUSH1 0x1 PUSH1 0x38 SHL MUL PUSH9 0xFFFF00000000000000 NOT PUSH1 0xFF SWAP5 SWAP1 SWAP5 AND PUSH1 0x1 PUSH1 0x30 SHL MUL PUSH7 0xFF000000000000 NOT PUSH1 0xF8 SWAP7 SWAP1 SWAP7 SHR PUSH6 0x10000000000 MUL PUSH6 0xFF0000000000 NOT PUSH5 0xFFFFFFFFFF SWAP1 SWAP9 AND PUSH5 0xFFFFFFFFFF NOT SWAP1 SWAP12 AND SWAP11 SWAP1 SWAP11 OR SWAP7 SWAP1 SWAP7 AND SWAP9 SWAP1 SWAP9 OR SWAP4 SWAP1 SWAP4 AND SWAP4 SWAP1 SWAP4 OR AND SWAP5 SWAP1 SWAP5 OR AND SWAP3 SWAP1 SWAP3 OR SWAP1 SWAP2 SSTORE MLOAD SWAP3 SWAP4 POP SWAP1 SWAP2 PUSH32 0x6BD4B121BCA854A191536A2CA891155C42EE2FB23F307FB34E8BC65CFCB5412E SWAP2 SWAP1 LOG2 POP POP POP JUMP JUMPDEST PUSH1 0x0 JUMPDEST DUP2 MLOAD DUP2 LT ISZERO PUSH2 0xC7A JUMPI PUSH2 0x186D DUP3 DUP3 DUP2 MLOAD DUP2 LT PUSH2 0x185C JUMPI INVALID JUMPDEST PUSH1 0x20 MUL PUSH1 0x20 ADD ADD MLOAD PUSH1 0x60 ADD MLOAD PUSH2 0x1CA2 JUMP JUMPDEST DUP3 DUP3 DUP2 MLOAD DUP2 LT PUSH2 0x1879 JUMPI INVALID JUMPDEST PUSH1 0x20 SWAP1 DUP2 MUL SWAP2 SWAP1 SWAP2 ADD ADD MLOAD PUSH1 0x60 ADD MSTORE PUSH1 0x1 ADD PUSH2 0x1844 JUMP JUMPDEST PUSH1 0x60 PUSH1 0x44 DUP3 MLOAD LT ISZERO PUSH2 0x18D6 JUMPI POP PUSH1 0x40 DUP1 MLOAD DUP1 DUP3 ADD SWAP1 SWAP2 MSTORE PUSH1 0x1D DUP2 MSTORE PUSH32 0x5472616E73616374696F6E2072657665727465642073696C656E746C79000000 PUSH1 0x20 DUP3 ADD MSTORE PUSH2 0x327 JUMP JUMPDEST PUSH1 0x4 DUP3 ADD SWAP2 POP DUP2 DUP1 PUSH1 0x20 ADD SWAP1 MLOAD DUP2 ADD SWAP1 PUSH2 0x30C SWAP2 SWAP1 PUSH2 0x31F5 JUMP JUMPDEST PUSH1 0x0 DUP1 PUSH2 0x18FC DUP4 PUSH2 0x1CB0 JUMP JUMPDEST PUSH1 0xFF AND SWAP4 SWAP3 POP POP POP JUMP JUMPDEST PUSH1 0x0 DUP1 PUSH2 0x1912 DUP4 PUSH2 0x1CCD JUMP JUMPDEST SWAP1 POP PUSH1 0x0 PUSH2 0x1929 PUSH2 0x1922 DUP8 PUSH2 0x1CE9 JUMP JUMPDEST DUP4 SWAP1 PUSH2 0x1D8D JUMP JUMPDEST SWAP1 POP DUP1 DUP6 GT ISZERO PUSH2 0x193E JUMPI PUSH1 0x0 SWAP3 POP POP POP PUSH2 0x653 JUMP JUMPDEST PUSH1 0x0 PUSH2 0x194A DUP6 DUP8 PUSH2 0x1DE7 JUMP JUMPDEST SWAP9 SWAP8 POP POP POP POP POP POP POP POP JUMP JUMPDEST PUSH1 0x0 PUSH3 0xF4240 DUP3 PUSH1 0x12 DUP2 GT ISZERO PUSH2 0x1968 JUMPI INVALID JUMPDEST ADD SWAP3 SWAP2 POP POP JUMP JUMPDEST PUSH1 0x0 DUP1 PUSH2 0x30C PUSH1 0xC PUSH2 0x1956 JUMP JUMPDEST PUSH1 0x0 DUP1 PUSH2 0x30C PUSH1 0xD PUSH2 0x1956 JUMP JUMPDEST PUSH1 0x0 DUP1 PUSH1 0x0 DUP1 PUSH1 0x0 DUP1 PUSH2 0x199A PUSH2 0x1EF2 JUMP JUMPDEST PUSH1 0x1 PUSH1 0x1 PUSH1 0xA0 SHL SUB SWAP1 SWAP8 AND PUSH1 0x0 SWAP1 DUP2 MSTORE PUSH1 0x20 SWAP8 SWAP1 SWAP8 MSTORE POP POP PUSH1 0x40 SWAP1 SWAP5 KECCAK256 SLOAD PUSH2 0xFFFF DUP2 AND SWAP6 PUSH4 0xFFFFFFFF PUSH3 0x10000 DUP4 DIV DUP2 AND SWAP7 POP PUSH1 0x1 PUSH1 0x30 SHL DUP4 DIV AND SWAP5 POP PUSH1 0xFF PUSH1 0x1 PUSH1 0x50 SHL DUP4 DIV AND SWAP4 POP PUSH1 0x1 PUSH1 0x58 SHL SWAP1 SWAP2 DIV PUSH1 0xD8 SHL SWAP2 POP JUMP JUMPDEST PUSH1 0x0 PUSH3 0x15180 DUP3 LT ISZERO PUSH2 0x1A04 JUMPI PUSH1 0x0 DUP1 REVERT JUMPDEST PUSH3 0x15180 DUP3 JUMPDEST MOD SWAP1 SWAP2 SUB SWAP2 SWAP1 POP JUMP JUMPDEST PUSH2 0x1A1C DUP3 PUSH2 0xAD7 JUMP JUMPDEST PUSH2 0x1A25 JUMPI PUSH1 0x0 DUP1 REVERT JUMPDEST PUSH1 0x60 DUP3 ADD MLOAD PUSH2 0xFFFF AND PUSH1 0x0 JUMPDEST DUP3 MLOAD DUP2 LT ISZERO PUSH2 0x1AD4 JUMPI PUSH1 0x0 DUP4 DUP3 DUP2 MLOAD DUP2 LT PUSH2 0x1A48 JUMPI INVALID JUMPDEST PUSH1 0x20 MUL PUSH1 0x20 ADD ADD MLOAD SWAP1 POP DUP1 PUSH1 0x60 ADD MLOAD PUSH1 0x0 EQ ISZERO PUSH2 0x1A65 JUMPI POP PUSH2 0x1ACC JUMP JUMPDEST DUP1 MLOAD DUP4 EQ PUSH2 0x1A72 JUMPI PUSH1 0x0 DUP1 REVERT JUMPDEST PUSH1 0x40 DUP2 ADD MLOAD PUSH1 0x1 EQ PUSH2 0x1A83 JUMPI PUSH1 0x0 DUP1 REVERT JUMPDEST PUSH1 0x0 PUSH2 0x1AA5 DUP8 DUP6 DUP5 PUSH1 0x20 ADD MLOAD DUP10 PUSH1 0x0 ADD MLOAD PUSH5 0xFFFFFFFFFF AND DUP7 PUSH1 0x60 ADD MLOAD PUSH2 0x1EFF JUMP JUMPDEST SWAP1 POP PUSH1 0x0 DUP2 SLT ISZERO PUSH2 0x1AC9 JUMPI PUSH1 0x20 DUP7 ADD DUP1 MLOAD PUSH1 0x1 PUSH1 0xF8 SHL OR PUSH1 0x1 PUSH1 0x1 PUSH1 0xF8 SHL SUB NOT AND SWAP1 MSTORE JUMPDEST POP POP JUMPDEST PUSH1 0x1 ADD PUSH2 0x1A31 JUMP JUMPDEST POP POP POP POP POP JUMP JUMPDEST PUSH2 0x1AE3 PUSH2 0x2E84 JUMP JUMPDEST PUSH2 0x1AEB PUSH2 0x2E84 JUMP JUMPDEST PUSH1 0xFF DUP5 AND PUSH2 0x1AFA JUMPI SWAP1 POP PUSH2 0x653 JUMP JUMPDEST PUSH2 0x1B04 DUP6 DUP6 PUSH2 0xB2F JUMP JUMPDEST DUP2 MSTORE PUSH1 0xFF DUP5 AND PUSH1 0x60 DUP3 ADD MSTORE DUP3 PUSH1 0x1 PUSH1 0x1 PUSH1 0x40 SHL SUB DUP2 GT DUP1 ISZERO PUSH2 0x1B25 JUMPI PUSH1 0x0 DUP1 REVERT JUMPDEST POP PUSH1 0x40 MLOAD SWAP1 DUP1 DUP3 MSTORE DUP1 PUSH1 0x20 MUL PUSH1 0x20 ADD DUP3 ADD PUSH1 0x40 MSTORE DUP1 ISZERO PUSH2 0x1B5F JUMPI DUP2 PUSH1 0x20 ADD JUMPDEST PUSH2 0x1B4C PUSH2 0x2E44 JUMP JUMPDEST DUP2 MSTORE PUSH1 0x20 ADD SWAP1 PUSH1 0x1 SWAP1 SUB SWAP1 DUP2 PUSH2 0x1B44 JUMPI SWAP1 POP JUMPDEST POP PUSH1 0x20 DUP3 ADD MSTORE SWAP5 SWAP4 POP POP POP POP JUMP JUMPDEST PUSH1 0x0 JUMPDEST DUP2 MLOAD DUP2 LT ISZERO PUSH2 0x12F1 JUMPI PUSH1 0x0 DUP3 DUP3 DUP2 MLOAD DUP2 LT PUSH2 0x1B87 JUMPI INVALID JUMPDEST PUSH1 0x20 MUL PUSH1 0x20 ADD ADD MLOAD SWAP1 POP DUP1 PUSH1 0x60 ADD MLOAD PUSH1 0x0 EQ ISZERO PUSH2 0x1BA4 JUMPI POP PUSH2 0x1BC3 JUMP JUMPDEST PUSH2 0x1BC1 DUP5 DUP3 PUSH1 0x0 ADD MLOAD DUP4 PUSH1 0x20 ADD MLOAD DUP5 PUSH1 0x40 ADD MLOAD DUP6 PUSH1 0x60 ADD MLOAD PUSH2 0x206C JUMP JUMPDEST POP JUMPDEST PUSH1 0x1 ADD PUSH2 0x1B70 JUMP JUMPDEST PUSH1 0x0 DUP1 DUP1 DUP1 PUSH2 0x1BDA DUP7 DUP9 PUSH2 0x2171 JUMP JUMPDEST PUSH5 0xFFFFFFFFFF DUP2 AND DUP13 MSTORE SWAP3 SWAP7 POP SWAP1 SWAP5 POP SWAP3 POP SWAP1 POP PUSH2 0x1BF7 DUP9 PUSH2 0x1668 JUMP JUMPDEST ISZERO PUSH2 0x1C01 JUMPI PUSH1 0x0 DUP1 REVERT JUMPDEST PUSH1 0xFF DUP3 AND PUSH1 0x40 DUP10 ADD MSTORE DUP5 PUSH2 0x1C20 JUMPI PUSH1 0x7 PUSH1 0xFF DUP4 AND GT ISZERO PUSH2 0x1C20 JUMPI PUSH1 0x0 DUP1 REVERT JUMPDEST DUP4 ISZERO PUSH2 0x1C43 JUMPI PUSH1 0x20 DUP9 ADD DUP1 MLOAD PUSH1 0x1 PUSH1 0xF8 SHL OR PUSH1 0x1 PUSH1 0x1 PUSH1 0xF8 SHL SUB NOT AND SWAP1 MSTORE PUSH2 0x1C52 JUMP JUMPDEST PUSH1 0x20 DUP9 ADD DUP1 MLOAD PUSH1 0x7F PUSH1 0xF9 SHL AND SWAP1 MSTORE JUMPDEST PUSH2 0x1C5F DUP9 PUSH1 0x80 ADD MLOAD PUSH2 0x23B0 JUMP JUMPDEST PUSH1 0x1 PUSH1 0x1 PUSH1 0x70 SHL SUB NOT AND PUSH1 0x80 DUP10 ADD MSTORE PUSH1 0x0 JUMPDEST DUP4 ISZERO PUSH2 0x1220 JUMPI PUSH1 0xF0 DUP5 SWAP1 SHR DUP2 DUP2 EQ PUSH2 0x1C94 JUMPI PUSH2 0x1C94 DUP11 DUP3 PUSH1 0x1 PUSH1 0x1 PUSH1 0xFF SHL PUSH2 0x242B JUMP JUMPDEST PUSH1 0x10 SWAP5 SWAP1 SWAP5 SHL SWAP4 SWAP1 POP PUSH2 0x1C71 JUMP JUMPDEST PUSH1 0x0 PUSH2 0x30C PUSH1 0x0 NOT DUP4 PUSH2 0x262A JUMP JUMPDEST PUSH1 0x0 DUP1 PUSH2 0x1CBB PUSH2 0x2678 JUMP JUMPDEST PUSH1 0x0 SWAP4 DUP5 MSTORE PUSH1 0x20 MSTORE POP POP PUSH1 0x40 SWAP1 KECCAK256 SLOAD SWAP1 JUMP JUMPDEST PUSH1 0x0 PUSH3 0x76A700 DUP3 LT ISZERO PUSH2 0x1CDF JUMPI PUSH1 0x0 DUP1 REVERT JUMPDEST PUSH3 0x76A700 DUP3 PUSH2 0x1A0A JUMP JUMPDEST PUSH1 0x0 DUP2 PUSH1 0x1 EQ ISZERO PUSH2 0x1CFE JUMPI POP PUSH3 0x76A700 PUSH2 0x327 JUMP JUMPDEST DUP2 PUSH1 0x2 EQ ISZERO PUSH2 0x1D11 JUMPI POP PUSH3 0xED4E00 PUSH2 0x327 JUMP JUMPDEST DUP2 PUSH1 0x3 EQ ISZERO PUSH2 0x1D25 JUMPI POP PUSH4 0x1DA9C00 PUSH2 0x327 JUMP JUMPDEST DUP2 PUSH1 0x4 EQ ISZERO PUSH2 0x1D39 JUMPI POP PUSH4 0x3B53800 PUSH2 0x327 JUMP JUMPDEST DUP2 PUSH1 0x5 EQ ISZERO PUSH2 0x1D4D JUMPI POP PUSH4 0x9450C00 PUSH2 0x327 JUMP JUMPDEST DUP2 PUSH1 0x6 EQ ISZERO PUSH2 0x1D61 JUMPI POP PUSH4 0x128A1800 PUSH2 0x327 JUMP JUMPDEST DUP2 PUSH1 0x7 EQ ISZERO PUSH2 0x1D75 JUMPI POP PUSH4 0x25143000 PUSH2 0x327 JUMP JUMPDEST PUSH1 0x40 MLOAD PUSH3 0x461BCD PUSH1 0xE5 SHL DUP2 MSTORE PUSH1 0x4 ADD PUSH2 0x3D8 SWAP1 PUSH2 0x36CB JUMP JUMPDEST PUSH1 0x0 DUP3 DUP3 ADD DUP4 DUP2 LT ISZERO PUSH2 0x653 JUMPI PUSH1 0x40 DUP1 MLOAD PUSH3 0x461BCD PUSH1 0xE5 SHL DUP2 MSTORE PUSH1 0x20 PUSH1 0x4 DUP3 ADD MSTORE PUSH1 0x1B PUSH1 0x24 DUP3 ADD MSTORE PUSH32 0x536166654D6174683A206164646974696F6E206F766572666C6F770000000000 PUSH1 0x44 DUP3 ADD MSTORE SWAP1 MLOAD SWAP1 DUP2 SWAP1 SUB PUSH1 0x64 ADD SWAP1 REVERT JUMPDEST PUSH1 0x0 DUP1 PUSH1 0x0 PUSH2 0x1DF5 DUP6 PUSH2 0x19F2 JUMP JUMPDEST SWAP1 POP PUSH3 0x15180 DUP5 MOD ISZERO PUSH2 0x1E0F JUMPI PUSH1 0x0 DUP1 SWAP3 POP SWAP3 POP POP PUSH2 0x1EEB JUMP JUMPDEST DUP4 DUP2 LT PUSH2 0x1E23 JUMPI PUSH1 0x0 DUP1 SWAP3 POP SWAP3 POP POP PUSH2 0x1EEB JUMP JUMPDEST PUSH3 0x15180 DUP2 DUP6 SUB DIV PUSH1 0x5A DUP2 GT PUSH2 0x1E40 JUMPI SWAP3 POP PUSH1 0x1 SWAP2 POP PUSH2 0x1EEB SWAP1 POP JUMP JUMPDEST PUSH2 0x168 DUP2 GT PUSH2 0x1E7F JUMPI PUSH1 0x0 PUSH3 0x15180 PUSH3 0x7E900 DUP5 MOD DIV DUP3 ADD PUSH1 0x59 NOT ADD SWAP1 POP PUSH1 0x6 DUP2 DIV PUSH1 0x5A ADD PUSH1 0x6 DUP3 DUP2 PUSH2 0x1E6F JUMPI INVALID JUMPDEST MOD PUSH1 0x0 EQ SWAP5 POP SWAP5 POP POP POP POP PUSH2 0x1EEB JUMP JUMPDEST PUSH2 0x870 DUP2 GT PUSH2 0x1EAF JUMPI PUSH1 0x0 PUSH3 0x15180 PUSH3 0x278D00 DUP5 MOD DIV DUP3 ADD PUSH2 0x167 NOT ADD SWAP1 POP PUSH1 0x1E DUP2 DIV PUSH1 0x87 ADD PUSH1 0x1E DUP3 DUP2 PUSH2 0x1E6F JUMPI INVALID JUMPDEST PUSH2 0x1DE2 DUP2 GT PUSH2 0x1EDF JUMPI PUSH1 0x0 PUSH3 0x15180 PUSH3 0x76A700 DUP5 MOD DIV DUP3 ADD PUSH2 0x86F NOT ADD SWAP1 POP PUSH1 0x5A DUP2 DIV PUSH1 0xC3 ADD PUSH1 0x5A DUP3 DUP2 PUSH2 0x1E6F JUMPI INVALID JUMPDEST PUSH2 0x100 PUSH1 0x0 SWAP4 POP SWAP4 POP POP POP JUMPDEST SWAP3 POP SWAP3 SWAP1 POP JUMP JUMPDEST PUSH1 0x0 DUP1 PUSH2 0x30C PUSH1 0x2 PUSH2 0x1956 JUMP JUMPDEST PUSH1 0x0 DUP1 PUSH2 0x1F0C DUP8 DUP8 PUSH2 0x2685 JUMP JUMPDEST SWAP1 POP PUSH1 0x0 PUSH2 0x1F18 PUSH2 0x196F JUMP JUMPDEST PUSH1 0x1 PUSH1 0x1 PUSH1 0xA0 SHL SUB DUP10 AND PUSH1 0x0 SWAP1 DUP2 MSTORE PUSH1 0x20 DUP3 DUP2 MSTORE PUSH1 0x40 DUP1 DUP4 KECCAK256 DUP12 DUP5 MSTORE DUP3 MSTORE DUP1 DUP4 KECCAK256 DUP11 DUP5 MSTORE SWAP1 SWAP2 MSTORE DUP2 KECCAK256 SWAP2 SWAP3 POP DUP1 PUSH2 0x1F4F DUP9 DUP11 PUSH2 0x1DE7 JUMP JUMPDEST SWAP2 POP SWAP2 POP DUP1 PUSH2 0x1F5D JUMPI PUSH1 0x0 DUP1 REVERT JUMPDEST PUSH2 0x1F67 DUP6 DUP4 PUSH2 0x26BA JUMP JUMPDEST ISZERO PUSH2 0x1FF6 JUMPI DUP3 SLOAD PUSH1 0x0 SWAP1 PUSH2 0x1F83 SWAP1 DUP10 SWAP1 PUSH1 0xF SWAP1 DUP2 SIGNEXTEND SWAP1 SIGNEXTEND PUSH2 0x26EA JUMP JUMPDEST SWAP1 POP PUSH1 0x1 PUSH1 0x1 PUSH1 0x7F SHL SUB NOT DUP2 SLT DUP1 ISZERO SWAP1 PUSH2 0x1FA4 JUMPI POP PUSH1 0x1 PUSH1 0x1 PUSH1 0x7F SHL SUB DUP2 SGT ISZERO JUMPDEST PUSH2 0x1FAD JUMPI PUSH1 0x0 DUP1 REVERT JUMPDEST DUP4 SLOAD PUSH1 0x1 PUSH1 0x1 PUSH1 0x80 SHL SUB NOT AND PUSH1 0x1 PUSH1 0x1 PUSH1 0x80 SHL SUB PUSH1 0xF DUP4 SWAP1 SIGNEXTEND AND OR DUP5 SSTORE DUP1 PUSH2 0x1FDE JUMPI PUSH2 0x1FDB DUP7 DUP5 PUSH1 0x0 PUSH2 0x2700 JUMP JUMPDEST SWAP6 POP JUMPDEST PUSH2 0x1FE9 DUP13 DUP13 DUP9 PUSH2 0x274B JUMP JUMPDEST SWAP6 POP PUSH2 0x2063 SWAP5 POP POP POP POP POP JUMP JUMPDEST DUP7 ISZERO PUSH2 0x205A JUMPI PUSH1 0x1 PUSH1 0x1 PUSH1 0x7F SHL SUB NOT DUP8 SLT DUP1 ISZERO SWAP1 PUSH2 0x201B JUMPI POP PUSH1 0x1 PUSH1 0x1 PUSH1 0x7F SHL SUB DUP8 SGT ISZERO JUMPDEST PUSH2 0x2024 JUMPI PUSH1 0x0 DUP1 REVERT JUMPDEST DUP3 SLOAD PUSH1 0x1 PUSH1 0x1 PUSH1 0x80 SHL SUB NOT AND PUSH1 0x1 PUSH1 0x1 PUSH1 0x80 SHL SUB PUSH1 0xF DUP10 SWAP1 SIGNEXTEND AND OR DUP4 SSTORE PUSH2 0x204D DUP6 DUP4 PUSH1 0x1 PUSH2 0x2700 JUMP JUMPDEST SWAP5 POP PUSH2 0x205A DUP12 DUP12 DUP8 PUSH2 0x274B JUMP JUMPDEST DUP7 SWAP6 POP POP POP POP POP POP JUMPDEST SWAP6 SWAP5 POP POP POP POP POP JUMP JUMPDEST DUP5 MLOAD PUSH2 0x207B SWAP1 DUP6 DUP6 DUP6 DUP6 PUSH2 0x27A5 JUMP JUMPDEST ISZERO PUSH2 0x2085 JUMPI PUSH2 0x1AD4 JUMP JUMPDEST PUSH1 0x40 DUP6 ADD MLOAD ISZERO PUSH2 0x20B2 JUMPI PUSH1 0x0 PUSH2 0x20A2 DUP7 PUSH1 0x20 ADD MLOAD DUP7 DUP7 DUP7 DUP7 PUSH2 0x27A5 JUMP JUMPDEST SWAP1 POP DUP1 ISZERO PUSH2 0x20B0 JUMPI POP PUSH2 0x1AD4 JUMP JUMPDEST POP JUMPDEST PUSH2 0x20BB DUP3 PUSH2 0x28BE JUMP JUMPDEST ISZERO PUSH2 0x20CE JUMPI PUSH1 0x0 DUP2 SLT ISZERO PUSH2 0x20CE JUMPI PUSH1 0x0 DUP1 REVERT JUMPDEST PUSH11 0x7FFFFFFFFFFFFFFFFFFFFF NOT DUP2 SLT DUP1 ISZERO SWAP1 PUSH2 0x20F5 JUMPI POP PUSH11 0x7FFFFFFFFFFFFFFFFFFFFF DUP2 SGT ISZERO JUMPDEST PUSH2 0x20FE JUMPI PUSH1 0x0 DUP1 REVERT JUMPDEST DUP5 PUSH1 0x20 ADD MLOAD MLOAD DUP6 PUSH1 0x40 ADD MLOAD EQ ISZERO PUSH2 0x2122 JUMPI PUSH2 0x211C DUP6 PUSH1 0x20 ADD MLOAD PUSH2 0x28D4 JUMP JUMPDEST PUSH1 0x20 DUP7 ADD MSTORE JUMPDEST PUSH1 0x0 DUP6 PUSH1 0x20 ADD MLOAD DUP7 PUSH1 0x40 ADD MLOAD DUP2 MLOAD DUP2 LT PUSH2 0x2138 JUMPI INVALID JUMPDEST PUSH1 0x20 SWAP1 DUP2 MUL SWAP2 SWAP1 SWAP2 ADD DUP2 ADD MLOAD SWAP6 DUP7 MSTORE DUP6 ADD SWAP4 SWAP1 SWAP4 MSTORE PUSH1 0x40 DUP1 DUP6 ADD SWAP3 SWAP1 SWAP3 MSTORE PUSH1 0x60 DUP5 ADD MSTORE PUSH1 0x0 PUSH1 0xA0 SWAP1 SWAP4 ADD SWAP3 SWAP1 SWAP3 MSTORE POP ADD DUP1 MLOAD PUSH1 0x1 ADD SWAP1 MSTORE JUMP JUMPDEST PUSH1 0x0 DUP1 DUP1 DUP1 DUP1 DUP1 DUP1 DUP1 JUMPDEST DUP10 MLOAD MLOAD DUP2 LT ISZERO PUSH2 0x2202 JUMPI PUSH1 0x0 DUP11 PUSH1 0x0 ADD MLOAD DUP3 DUP2 MLOAD DUP2 LT PUSH2 0x2197 JUMPI INVALID JUMPDEST PUSH1 0x20 MUL PUSH1 0x20 ADD ADD MLOAD SWAP1 POP PUSH1 0x3 DUP1 DUP2 GT ISZERO PUSH2 0x21AD JUMPI INVALID JUMPDEST DUP2 PUSH1 0xA0 ADD MLOAD PUSH1 0x3 DUP2 GT ISZERO PUSH2 0x21BD JUMPI INVALID JUMPDEST EQ ISZERO PUSH2 0x21C8 JUMPI PUSH1 0x0 DUP1 REVERT JUMPDEST PUSH1 0x2 DUP2 PUSH1 0xA0 ADD MLOAD PUSH1 0x3 DUP2 GT ISZERO PUSH2 0x21DA JUMPI INVALID JUMPDEST EQ ISZERO DUP1 ISZERO PUSH2 0x21EA JUMPI POP PUSH1 0x60 DUP2 ADD MLOAD ISZERO JUMPDEST ISZERO PUSH2 0x21F9 JUMPI PUSH2 0x21F9 DUP12 DUP4 PUSH2 0x298C JUMP JUMPDEST POP PUSH1 0x1 ADD PUSH2 0x217B JUMP JUMPDEST POP PUSH1 0x0 JUMPDEST DUP10 MLOAD MLOAD DUP2 LT ISZERO PUSH2 0x22A5 JUMPI PUSH1 0x0 DUP11 PUSH1 0x0 ADD MLOAD DUP3 DUP2 MLOAD DUP2 LT PUSH2 0x2222 JUMPI INVALID JUMPDEST PUSH1 0x20 MUL PUSH1 0x20 ADD ADD MLOAD SWAP1 POP PUSH1 0x2 PUSH1 0x3 DUP2 GT ISZERO PUSH2 0x2239 JUMPI INVALID JUMPDEST DUP2 PUSH1 0xA0 ADD MLOAD PUSH1 0x3 DUP2 GT ISZERO PUSH2 0x2249 JUMPI INVALID JUMPDEST EQ ISZERO PUSH2 0x225D JUMPI PUSH1 0x80 DUP2 ADD MLOAD PUSH1 0x0 SWAP1 SSTORE PUSH2 0x229C JUMP JUMPDEST PUSH1 0x1 DUP2 PUSH1 0xA0 ADD MLOAD PUSH1 0x3 DUP2 GT ISZERO PUSH2 0x226F JUMPI INVALID JUMPDEST EQ ISZERO PUSH2 0x2288 JUMPI PUSH1 0x80 DUP2 ADD MLOAD DUP1 PUSH2 0x2285 DUP4 DUP3 PUSH2 0x2ADB JUMP JUMPDEST POP POP JUMPDEST PUSH2 0x2294 DUP2 DUP7 DUP7 DUP7 PUSH2 0x2C0C JUMP JUMPDEST SWAP2 SWAP7 POP SWAP5 POP SWAP3 POP JUMPDEST POP PUSH1 0x1 ADD PUSH2 0x2206 JUMP JUMPDEST POP PUSH1 0x60 DUP10 ADD MLOAD PUSH1 0x0 PUSH2 0x22B5 PUSH2 0x197C JUMP JUMPDEST PUSH1 0x1 PUSH1 0x1 PUSH1 0xA0 SHL SUB DUP12 AND PUSH1 0x0 SWAP1 DUP2 MSTORE PUSH1 0x20 DUP3 SWAP1 MSTORE PUSH1 0x40 DUP2 KECCAK256 SWAP2 SWAP3 POP JUMPDEST DUP13 PUSH1 0x20 ADD MLOAD MLOAD DUP2 LT ISZERO PUSH2 0x237F JUMPI PUSH1 0x0 DUP14 PUSH1 0x20 ADD MLOAD DUP3 DUP2 MLOAD DUP2 LT PUSH2 0x22F0 JUMPI INVALID JUMPDEST PUSH1 0x20 MUL PUSH1 0x20 ADD ADD MLOAD SWAP1 POP DUP1 PUSH1 0x60 ADD MLOAD PUSH1 0x0 EQ ISZERO PUSH2 0x230D JUMPI POP PUSH2 0x2377 JUMP JUMPDEST PUSH1 0x2 DUP2 PUSH1 0xA0 ADD MLOAD PUSH1 0x3 DUP2 GT ISZERO PUSH2 0x231F JUMPI INVALID JUMPDEST EQ ISZERO DUP1 ISZERO PUSH2 0x233D JUMPI POP PUSH1 0x3 DUP2 PUSH1 0xA0 ADD MLOAD PUSH1 0x3 DUP2 GT ISZERO PUSH2 0x233A JUMPI INVALID JUMPDEST EQ ISZERO JUMPDEST PUSH2 0x2346 JUMPI PUSH1 0x0 DUP1 REVERT JUMPDEST PUSH2 0x2352 DUP2 DUP10 DUP10 DUP10 PUSH2 0x2C0C JUMP JUMPDEST SWAP2 SWAP10 POP SWAP8 POP SWAP6 POP PUSH2 0x236F DUP2 DUP5 DUP8 PUSH1 0x10 DUP2 LT PUSH2 0x2369 JUMPI INVALID JUMPDEST ADD PUSH2 0x2ADB JUMP JUMPDEST PUSH1 0x1 DUP6 ADD SWAP5 POP POP JUMPDEST PUSH1 0x1 ADD PUSH2 0x22D1 JUMP JUMPDEST POP PUSH1 0x10 DUP4 GT ISZERO DUP1 ISZERO PUSH2 0x2396 JUMPI POP PUSH5 0xFFFFFFFFFF DUP5 GT ISZERO JUMPDEST PUSH2 0x239F JUMPI PUSH1 0x0 DUP1 REVERT JUMPDEST POP SWAP4 SWAP11 SWAP3 SWAP10 POP SWAP8 POP SWAP6 POP SWAP4 POP POP POP POP JUMP JUMPDEST PUSH1 0x0 DUP1 PUSH32 0x7FFF7FFF7FFF7FFF7FFF7FFF7FFF7FFF7FFF0000000000000000000000000000 DUP4 AND DUP2 JUMPDEST PUSH1 0x1 PUSH1 0x1 PUSH1 0x70 SHL SUB NOT DUP3 AND ISZERO PUSH2 0x2422 JUMPI PUSH1 0x1 PUSH1 0xFE SHL DUP3 DUP2 AND EQ ISZERO PUSH2 0x240C JUMPI PUSH1 0x1 PUSH1 0x1 PUSH1 0xF0 SHL SUB NOT DUP3 AND DUP2 SHR SWAP3 SWAP1 SWAP3 OR SWAP2 PUSH1 0x10 ADD JUMPDEST PUSH1 0x10 DUP3 PUSH1 0x1 PUSH1 0x1 PUSH1 0x70 SHL SUB NOT AND SWAP1 SHL SWAP2 POP PUSH2 0x23D8 JUMP JUMPDEST POP SWAP1 SWAP4 SWAP3 POP POP POP JUMP JUMPDEST DUP3 PUSH1 0x0 LT DUP1 ISZERO PUSH2 0x243D JUMPI POP PUSH2 0x3FFF DUP4 GT ISZERO JUMPDEST PUSH2 0x2446 JUMPI PUSH1 0x0 DUP1 REVERT JUMPDEST DUP2 DUP1 ISZERO PUSH2 0x245A JUMPI POP DUP3 DUP5 PUSH1 0x60 ADD MLOAD PUSH2 0xFFFF AND EQ JUMPDEST ISZERO PUSH2 0x2464 JUMPI PUSH2 0x1617 JUMP JUMPDEST PUSH1 0x80 DUP5 ADD MLOAD PUSH1 0x0 SWAP1 DUP2 JUMPDEST PUSH1 0x1 PUSH1 0x1 PUSH1 0x70 SHL SUB NOT DUP3 AND ISZERO PUSH2 0x25DF JUMPI PUSH1 0xF0 DUP3 SWAP1 SHR PUSH2 0x3FFF AND DUP7 DUP2 EQ DUP1 ISZERO PUSH2 0x2493 JUMPI POP DUP6 JUMPDEST ISZERO PUSH2 0x24CB JUMPI POP PUSH1 0x80 DUP8 ADD DUP1 MLOAD PUSH1 0x1 PUSH1 0x1 PUSH1 0xF0 SHL SUB NOT DUP7 AND PUSH1 0x10 SWAP1 SWAP4 MUL SWAP3 SWAP1 SWAP3 SHR SWAP2 SWAP1 SWAP2 OR PUSH1 0x1 PUSH1 0x1 PUSH1 0x70 SHL SUB NOT AND SWAP1 MSTORE POP PUSH2 0x1617 SWAP1 POP JUMP JUMPDEST DUP7 DUP2 EQ DUP1 ISZERO PUSH2 0x24D8 JUMPI POP DUP6 ISZERO JUMPDEST ISZERO PUSH2 0x252D JUMPI PUSH1 0x1 PUSH1 0x1 PUSH1 0xF0 SHL SUB NOT DUP6 AND NOT SWAP3 SWAP1 SWAP3 AND SWAP2 PUSH1 0x3 PUSH1 0xFE SHL DUP4 AND PUSH2 0x250B JUMPI PUSH1 0x10 DUP4 PUSH1 0x1 PUSH1 0x1 PUSH1 0x70 SHL SUB NOT AND SWAP1 SHL SWAP3 POP JUMPDEST POP PUSH1 0x1 PUSH1 0x1 PUSH1 0x70 SHL SUB NOT SWAP2 DUP3 AND PUSH1 0x10 SWAP1 SWAP2 MUL SHR SWAP2 SWAP1 SWAP2 OR AND PUSH1 0x80 DUP6 ADD MSTORE PUSH2 0x1617 JUMP JUMPDEST DUP7 DUP2 GT DUP1 ISZERO PUSH2 0x2539 JUMPI POP DUP6 JUMPDEST ISZERO PUSH2 0x2593 JUMPI PUSH1 0x80 DUP9 DUP2 ADD MLOAD PUSH1 0x1 PUSH1 0x1 PUSH1 0xF0 SHL SUB NOT PUSH1 0xF0 DUP11 SWAP1 SHL DUP9 OR DUP2 AND PUSH1 0x10 DUP7 MUL SHR SWAP7 SWAP1 SWAP7 OR SWAP6 SWAP2 SHL AND ISZERO PUSH2 0x256D JUMPI PUSH1 0x0 DUP1 REVERT JUMPDEST POP PUSH1 0x1 PUSH1 0x1 PUSH1 0x70 SHL SUB NOT SWAP2 DUP3 AND PUSH1 0x1 SWAP2 SWAP1 SWAP2 ADD PUSH1 0x10 MUL SHR SWAP2 SWAP1 SWAP2 OR AND PUSH1 0x80 DUP6 ADD MSTORE PUSH2 0x1617 JUMP JUMPDEST DUP7 DUP2 GT DUP1 ISZERO PUSH2 0x25A0 JUMPI POP DUP6 ISZERO JUMPDEST ISZERO PUSH2 0x25AE JUMPI POP POP POP POP PUSH2 0x1617 JUMP JUMPDEST POP PUSH1 0x1 PUSH1 0x1 PUSH1 0xF0 SHL SUB NOT DUP3 AND PUSH1 0x10 DUP3 DUP2 MUL SWAP2 SWAP1 SWAP2 SHR SWAP4 SWAP1 SWAP4 OR SWAP3 SWAP2 SWAP1 SWAP2 SHL PUSH1 0x1 PUSH1 0x1 PUSH1 0x80 SHL SUB NOT AND SWAP1 PUSH1 0x1 ADD PUSH2 0x246E JUMP JUMPDEST DUP5 PUSH2 0x25EC JUMPI POP POP POP PUSH2 0x1617 JUMP JUMPDEST PUSH1 0x9 DUP2 LT PUSH2 0x25F9 JUMPI PUSH1 0x0 DUP1 REVERT JUMPDEST PUSH1 0x1 PUSH1 0x1 PUSH1 0xF0 SHL SUB NOT PUSH1 0xF0 DUP8 SWAP1 SHL DUP6 OR AND PUSH1 0x10 SWAP1 SWAP2 MUL SHR SWAP2 SWAP1 SWAP2 OR PUSH1 0x1 PUSH1 0x1 PUSH1 0x70 SHL SUB NOT AND PUSH1 0x80 DUP7 ADD MSTORE POP POP POP POP POP JUMP JUMPDEST DUP2 DUP2 MUL PUSH1 0x0 NOT DUP4 EQ ISZERO PUSH2 0x265A JUMPI DUP2 ISZERO DUP1 PUSH2 0x264C JUMPI POP DUP3 DUP3 DUP3 DUP2 PUSH2 0x2649 JUMPI INVALID JUMPDEST SDIV EQ JUMPDEST PUSH2 0x2655 JUMPI PUSH1 0x0 DUP1 REVERT JUMPDEST PUSH2 0x30C JUMP JUMPDEST DUP3 ISZERO DUP1 PUSH2 0x266F JUMPI POP DUP2 DUP4 DUP3 DUP2 PUSH2 0x266C JUMPI INVALID JUMPDEST SDIV EQ JUMPDEST PUSH2 0x30C JUMPI PUSH1 0x0 DUP1 REVERT JUMPDEST PUSH1 0x0 DUP1 PUSH2 0x30C PUSH1 0x9 PUSH2 0x1956 JUMP JUMPDEST PUSH1 0x0 DUP1 PUSH2 0x2690 PUSH2 0x2C6F JUMP JUMPDEST PUSH1 0x1 PUSH1 0x1 PUSH1 0xA0 SHL SUB DUP6 AND PUSH1 0x0 SWAP1 DUP2 MSTORE PUSH1 0x20 SWAP2 DUP3 MSTORE PUSH1 0x40 DUP1 DUP3 KECCAK256 DUP7 DUP4 MSTORE SWAP1 SWAP3 MSTORE KECCAK256 SLOAD SWAP2 POP POP SWAP3 SWAP2 POP POP JUMP JUMPDEST PUSH1 0x0 PUSH1 0x1 DUP3 LT ISZERO DUP1 ISZERO PUSH2 0x26CF JUMPI POP PUSH2 0x100 DUP3 GT ISZERO JUMPDEST PUSH2 0x26D8 JUMPI PUSH1 0x0 DUP1 REVERT JUMPDEST POP PUSH1 0x0 NOT ADD SHL PUSH1 0x1 PUSH1 0xFF SHL SWAP1 DUP2 AND EQ SWAP1 JUMP JUMPDEST DUP2 DUP2 ADD DUP3 DUP2 SLT ISZERO PUSH1 0x0 DUP4 SLT ISZERO EQ PUSH2 0x30C JUMPI PUSH1 0x0 DUP1 REVERT JUMPDEST PUSH1 0x0 PUSH1 0x1 DUP4 LT ISZERO DUP1 ISZERO PUSH2 0x2715 JUMPI POP PUSH2 0x100 DUP4 GT ISZERO JUMPDEST PUSH2 0x271E JUMPI PUSH1 0x0 DUP1 REVERT JUMPDEST DUP2 ISZERO PUSH2 0x2737 JUMPI POP PUSH1 0x1 PUSH1 0xFF SHL PUSH1 0x0 NOT DUP4 ADD SHR DUP4 OR PUSH2 0x653 JUMP JUMPDEST POP PUSH1 0x1 PUSH1 0xFF SHL PUSH1 0x0 NOT DUP4 ADD SHR NOT DUP4 AND PUSH2 0x653 JUMP JUMPDEST PUSH1 0x14 PUSH2 0x2756 DUP3 PUSH2 0x2C7C JUMP JUMPDEST GT ISZERO PUSH2 0x2774 JUMPI PUSH1 0x40 MLOAD PUSH3 0x461BCD PUSH1 0xE5 SHL DUP2 MSTORE PUSH1 0x4 ADD PUSH2 0x3D8 SWAP1 PUSH2 0x371F JUMP JUMPDEST PUSH1 0x0 PUSH2 0x277E PUSH2 0x2C6F JUMP JUMPDEST PUSH1 0x1 PUSH1 0x1 PUSH1 0xA0 SHL SUB SWAP1 SWAP5 AND PUSH1 0x0 SWAP1 DUP2 MSTORE PUSH1 0x20 SWAP5 DUP6 MSTORE PUSH1 0x40 DUP1 DUP3 KECCAK256 SWAP5 DUP3 MSTORE SWAP4 SWAP1 SWAP5 MSTORE POP SWAP2 KECCAK256 SSTORE JUMP JUMPDEST PUSH1 0x0 DUP1 JUMPDEST DUP7 MLOAD DUP2 LT ISZERO PUSH2 0x28B1 JUMPI PUSH1 0x0 DUP8 DUP3 DUP2 MLOAD DUP2 LT PUSH2 0x27C0 JUMPI INVALID JUMPDEST PUSH1 0x20 MUL PUSH1 0x20 ADD ADD MLOAD SWAP1 POP DUP5 DUP2 PUSH1 0x40 ADD MLOAD EQ ISZERO DUP1 PUSH2 0x27DE JUMPI POP DUP1 MLOAD DUP8 EQ ISZERO JUMPDEST DUP1 PUSH2 0x27ED JUMPI POP DUP6 DUP2 PUSH1 0x20 ADD MLOAD EQ ISZERO JUMPDEST ISZERO PUSH2 0x27F8 JUMPI POP PUSH2 0x28A9 JUMP JUMPDEST PUSH1 0x2 DUP2 PUSH1 0xA0 ADD MLOAD PUSH1 0x3 DUP2 GT ISZERO PUSH2 0x280A JUMPI INVALID JUMPDEST EQ ISZERO DUP1 ISZERO PUSH2 0x2828 JUMPI POP PUSH1 0x3 DUP2 PUSH1 0xA0 ADD MLOAD PUSH1 0x3 DUP2 GT ISZERO PUSH2 0x2825 JUMPI INVALID JUMPDEST EQ ISZERO JUMPDEST PUSH2 0x2831 JUMPI PUSH1 0x0 DUP1 REVERT JUMPDEST PUSH1 0x60 DUP2 ADD MLOAD PUSH1 0x0 SWAP1 PUSH2 0x2843 SWAP1 DUP7 PUSH2 0x26EA JUMP JUMPDEST SWAP1 POP PUSH2 0x284E DUP7 PUSH2 0x28BE JUMP JUMPDEST ISZERO PUSH2 0x2861 JUMPI PUSH1 0x0 DUP2 SLT ISZERO PUSH2 0x2861 JUMPI PUSH1 0x0 DUP1 REVERT JUMPDEST PUSH11 0x7FFFFFFFFFFFFFFFFFFFFF NOT DUP2 SLT DUP1 ISZERO SWAP1 PUSH2 0x2888 JUMPI POP PUSH11 0x7FFFFFFFFFFFFFFFFFFFFF DUP2 SGT ISZERO JUMPDEST PUSH2 0x2891 JUMPI PUSH1 0x0 DUP1 REVERT JUMPDEST PUSH1 0x60 DUP3 ADD MSTORE PUSH1 0x1 PUSH1 0xA0 SWAP1 SWAP2 ADD DUP2 SWAP1 MSTORE SWAP2 POP PUSH2 0x2063 SWAP1 POP JUMP JUMPDEST PUSH1 0x1 ADD PUSH2 0x27A9 JUMP JUMPDEST POP PUSH1 0x0 SWAP7 SWAP6 POP POP POP POP POP POP JUMP JUMPDEST PUSH1 0x0 PUSH1 0x2 DUP3 LT DUP1 ISZERO SWAP1 PUSH2 0x30C JUMPI POP POP PUSH1 0x8 LT ISZERO SWAP1 JUMP JUMPDEST PUSH1 0x60 PUSH1 0x0 DUP3 MLOAD PUSH1 0x0 EQ PUSH2 0x28EB JUMPI DUP3 MLOAD PUSH1 0x2 MUL PUSH2 0x28EE JUMP JUMPDEST PUSH1 0x1 JUMPDEST SWAP1 POP PUSH1 0x0 DUP2 PUSH1 0x1 PUSH1 0x1 PUSH1 0x40 SHL SUB DUP2 GT DUP1 ISZERO PUSH2 0x2908 JUMPI PUSH1 0x0 DUP1 REVERT JUMPDEST POP PUSH1 0x40 MLOAD SWAP1 DUP1 DUP3 MSTORE DUP1 PUSH1 0x20 MUL PUSH1 0x20 ADD DUP3 ADD PUSH1 0x40 MSTORE DUP1 ISZERO PUSH2 0x2942 JUMPI DUP2 PUSH1 0x20 ADD JUMPDEST PUSH2 0x292F PUSH2 0x2E44 JUMP JUMPDEST DUP2 MSTORE PUSH1 0x20 ADD SWAP1 PUSH1 0x1 SWAP1 SUB SWAP1 DUP2 PUSH2 0x2927 JUMPI SWAP1 POP JUMPDEST POP SWAP1 POP PUSH1 0x0 JUMPDEST DUP5 MLOAD DUP2 LT ISZERO PUSH2 0x2984 JUMPI DUP5 DUP2 DUP2 MLOAD DUP2 LT PUSH2 0x295D JUMPI INVALID JUMPDEST PUSH1 0x20 MUL PUSH1 0x20 ADD ADD MLOAD DUP3 DUP3 DUP2 MLOAD DUP2 LT PUSH2 0x2971 JUMPI INVALID JUMPDEST PUSH1 0x20 SWAP1 DUP2 MUL SWAP2 SWAP1 SWAP2 ADD ADD MSTORE PUSH1 0x1 ADD PUSH2 0x2948 JUMP JUMPDEST POP SWAP4 SWAP3 POP POP POP JUMP JUMPDEST DUP2 MLOAD MLOAD DUP2 LT PUSH2 0x299A JUMPI PUSH1 0x0 DUP1 REVERT JUMPDEST PUSH1 0x0 DUP3 PUSH1 0x60 ADD MLOAD GT PUSH2 0x29AB JUMPI PUSH1 0x0 DUP1 REVERT JUMPDEST PUSH1 0x0 DUP3 PUSH1 0x0 ADD MLOAD DUP3 DUP2 MLOAD DUP2 LT PUSH2 0x29BD JUMPI INVALID JUMPDEST PUSH1 0x20 MUL PUSH1 0x20 ADD ADD MLOAD SWAP1 POP PUSH1 0x2 PUSH1 0x3 DUP2 GT ISZERO PUSH2 0x29D4 JUMPI INVALID JUMPDEST DUP2 PUSH1 0xA0 ADD MLOAD PUSH1 0x3 DUP2 GT ISZERO PUSH2 0x29E4 JUMPI INVALID JUMPDEST EQ ISZERO DUP1 ISZERO PUSH2 0x2A02 JUMPI POP PUSH1 0x3 DUP2 PUSH1 0xA0 ADD MLOAD PUSH1 0x3 DUP2 GT ISZERO PUSH2 0x29FF JUMPI INVALID JUMPDEST EQ ISZERO JUMPDEST PUSH2 0x2A0B JUMPI PUSH1 0x0 DUP1 REVERT JUMPDEST PUSH1 0x60 DUP4 ADD DUP1 MLOAD PUSH1 0x0 NOT ADD SWAP1 MSTORE PUSH1 0x0 DUP1 DUP1 JUMPDEST DUP6 MLOAD MLOAD DUP2 LT ISZERO PUSH2 0x2A7E JUMPI PUSH1 0x0 DUP7 PUSH1 0x0 ADD MLOAD DUP3 DUP2 MLOAD DUP2 LT PUSH2 0x2A38 JUMPI INVALID JUMPDEST PUSH1 0x20 MUL PUSH1 0x20 ADD ADD MLOAD SWAP1 POP DUP3 DUP2 PUSH1 0x80 ADD MLOAD GT DUP1 ISZERO PUSH2 0x2A65 JUMPI POP PUSH1 0x2 DUP2 PUSH1 0xA0 ADD MLOAD PUSH1 0x3 DUP2 GT ISZERO PUSH2 0x2A62 JUMPI INVALID JUMPDEST EQ ISZERO JUMPDEST ISZERO PUSH2 0x2A75 JUMPI DUP1 PUSH1 0x80 ADD MLOAD SWAP3 POP DUP2 SWAP4 POP JUMPDEST POP PUSH1 0x1 ADD PUSH2 0x2A1C JUMP JUMPDEST POP DUP2 DUP5 EQ ISZERO PUSH2 0x2A97 JUMPI POP POP PUSH1 0x2 PUSH1 0xA0 SWAP2 SWAP1 SWAP2 ADD MSTORE PUSH2 0xC7A JUMP JUMPDEST PUSH1 0x0 DUP6 PUSH1 0x0 ADD MLOAD DUP4 DUP2 MLOAD DUP2 LT PUSH2 0x2AA9 JUMPI INVALID JUMPDEST PUSH1 0x20 SWAP1 DUP2 MUL SWAP2 SWAP1 SWAP2 ADD ADD MLOAD PUSH1 0x80 DUP6 DUP2 ADD DUP1 MLOAD SWAP2 DUP4 ADD DUP1 MLOAD SWAP1 SWAP2 MSTORE MSTORE PUSH1 0x1 PUSH1 0xA0 SWAP2 DUP3 ADD MSTORE PUSH1 0x2 SWAP5 ADD SWAP4 SWAP1 SWAP4 MSTORE POP POP POP POP POP JUMP JUMPDEST DUP2 MLOAD ISZERO DUP1 ISZERO SWAP1 PUSH2 0x2AEE JUMPI POP DUP2 MLOAD PUSH2 0x3FFF LT ISZERO JUMPDEST PUSH2 0x2AF7 JUMPI PUSH1 0x0 DUP1 REVERT JUMPDEST DUP2 PUSH1 0x20 ADD MLOAD PUSH1 0x0 LT DUP1 ISZERO PUSH2 0x2B14 JUMPI POP PUSH1 0x20 DUP3 ADD MLOAD PUSH5 0xFFFFFFFFFF LT ISZERO JUMPDEST PUSH2 0x2B1D JUMPI PUSH1 0x0 DUP1 REVERT JUMPDEST DUP2 PUSH1 0x40 ADD MLOAD PUSH1 0x0 LT DUP1 ISZERO PUSH2 0x2B36 JUMPI POP PUSH1 0x40 DUP3 ADD MLOAD PUSH1 0x8 LT ISZERO JUMPDEST PUSH2 0x2B3F JUMPI PUSH1 0x0 DUP1 REVERT JUMPDEST PUSH1 0x60 DUP3 ADD MLOAD PUSH11 0x7FFFFFFFFFFFFFFFFFFFFF NOT SGT DUP1 ISZERO SWAP1 PUSH2 0x2B6E JUMPI POP PUSH1 0x60 DUP3 ADD MLOAD PUSH11 0x7FFFFFFFFFFFFFFFFFFFFF SLT ISZERO JUMPDEST PUSH2 0x2B77 JUMPI PUSH1 0x0 DUP1 REVERT JUMPDEST DUP2 MLOAD DUP2 SLOAD PUSH1 0x20 DUP5 ADD MLOAD PUSH1 0x40 DUP6 ADD MLOAD PUSH1 0x60 SWAP1 SWAP6 ADD MLOAD PUSH1 0xA SIGNEXTEND PUSH11 0xFFFFFFFFFFFFFFFFFFFFFF AND PUSH1 0x1 PUSH1 0x40 SHL MUL PUSH19 0xFFFFFFFFFFFFFFFFFFFFFF0000000000000000 NOT PUSH1 0xFF SWAP1 SWAP7 AND PUSH1 0x1 PUSH1 0x38 SHL MUL PUSH8 0xFF00000000000000 NOT PUSH5 0xFFFFFFFFFF SWAP1 SWAP4 AND PUSH3 0x10000 MUL PUSH7 0xFFFFFFFFFF0000 NOT PUSH2 0xFFFF SWAP1 SWAP7 AND PUSH2 0xFFFF NOT SWAP1 SWAP6 AND SWAP5 SWAP1 SWAP5 OR SWAP5 SWAP1 SWAP5 AND SWAP3 SWAP1 SWAP3 OR AND SWAP2 SWAP1 SWAP2 OR SWAP3 SWAP1 SWAP3 AND SWAP2 SWAP1 SWAP2 OR SWAP1 SSTORE JUMP JUMPDEST PUSH1 0x0 DUP1 PUSH1 0x0 DUP1 PUSH2 0x2C1B DUP9 PUSH2 0x2D4C JUMP JUMPDEST SWAP1 POP DUP5 ISZERO DUP1 PUSH2 0x2C29 JUMPI POP DUP1 DUP6 GT JUMPDEST ISZERO PUSH2 0x2C32 JUMPI DUP1 SWAP5 POP JUMPDEST DUP7 DUP1 PUSH2 0x2C42 JUMPI POP PUSH1 0x0 DUP9 PUSH1 0x60 ADD MLOAD SLT JUMPDEST SWAP7 POP PUSH2 0xFFFF DUP7 AND ISZERO PUSH2 0x2C53 JUMPI PUSH1 0x0 DUP1 REVERT JUMPDEST POP POP SWAP5 MLOAD SWAP4 SWAP6 PUSH1 0x10 SWAP4 SWAP1 SWAP4 SHR PUSH1 0xF0 SWAP5 SWAP1 SWAP5 SHL SWAP4 SWAP1 SWAP4 OR SWAP4 POP SWAP2 POP JUMP JUMPDEST PUSH1 0x0 DUP1 PUSH2 0x30C PUSH1 0xB PUSH2 0x1956 JUMP JUMPDEST PUSH1 0x1 DUP2 SWAP1 SHR PUSH32 0x5555555555555555555555555555555555555555555555555555555555555555 SWAP1 DUP2 AND SWAP2 AND ADD PUSH1 0x2 DUP2 SWAP1 SHR PUSH32 0x3333333333333333333333333333333333333333333333333333333333333333 SWAP1 DUP2 AND SWAP2 AND ADD PUSH1 0x4 DUP2 SWAP1 SHR PUSH32 0x707070707070707070707070707070707070707070707070707070707070707 SWAP2 SWAP1 SWAP2 AND ADD PUSH1 0x8 DUP2 SWAP1 SHR PUSH31 0xF000F000F000F000F000F000F000F000F000F000F000F000F000F000F000F SWAP1 DUP2 AND SWAP2 AND ADD PUSH1 0x10 DUP2 SWAP1 SHR ADD PUSH1 0x20 DUP2 SWAP1 SHR ADD PUSH1 0x40 DUP2 SWAP1 SHR ADD PUSH1 0x80 DUP2 SWAP1 SHR PUSH1 0xFF SWAP1 DUP2 AND SWAP2 AND ADD SWAP1 JUMP JUMPDEST PUSH1 0x0 DUP1 DUP3 PUSH1 0x40 ADD MLOAD GT DUP1 ISZERO PUSH2 0x2D66 JUMPI POP PUSH1 0x40 DUP3 ADD MLOAD PUSH1 0x8 LT ISZERO JUMPDEST PUSH2 0x2D6F JUMPI PUSH1 0x0 DUP1 REVERT JUMPDEST PUSH1 0x40 DUP3 ADD MLOAD PUSH1 0x2 LT PUSH2 0x2D86 JUMPI POP PUSH1 0x20 DUP2 ADD MLOAD PUSH2 0x327 JUMP JUMPDEST PUSH1 0x0 PUSH2 0x2D98 PUSH1 0x1 DUP5 PUSH1 0x40 ADD MLOAD SUB PUSH2 0x1CE9 JUMP JUMPDEST PUSH1 0x20 DUP5 ADD MLOAD SWAP1 SWAP2 POP PUSH2 0x653 SWAP1 PUSH3 0x76A700 SWAP1 PUSH2 0x2DB3 SWAP1 DUP5 PUSH2 0x2DB9 JUMP JUMPDEST SWAP1 PUSH2 0x1D8D JUMP JUMPDEST PUSH1 0x0 DUP3 DUP3 GT ISZERO PUSH2 0x2E10 JUMPI PUSH1 0x40 DUP1 MLOAD PUSH3 0x461BCD PUSH1 0xE5 SHL DUP2 MSTORE PUSH1 0x20 PUSH1 0x4 DUP3 ADD MSTORE PUSH1 0x1E PUSH1 0x24 DUP3 ADD MSTORE PUSH32 0x536166654D6174683A207375627472616374696F6E206F766572666C6F770000 PUSH1 0x44 DUP3 ADD MSTORE SWAP1 MLOAD SWAP1 DUP2 SWAP1 SUB PUSH1 0x64 ADD SWAP1 REVERT JUMPDEST POP SWAP1 SUB SWAP1 JUMP JUMPDEST PUSH1 0x40 DUP1 MLOAD PUSH1 0xA0 DUP2 ADD DUP3 MSTORE PUSH1 0x0 DUP1 DUP3 MSTORE PUSH1 0x20 DUP3 ADD DUP2 SWAP1 MSTORE SWAP2 DUP2 ADD DUP3 SWAP1 MSTORE PUSH1 0x60 DUP2 ADD DUP3 SWAP1 MSTORE PUSH1 0x80 DUP2 ADD SWAP2 SWAP1 SWAP2 MSTORE SWAP1 JUMP JUMPDEST PUSH1 0x40 MLOAD DUP1 PUSH1 0xC0 ADD PUSH1 0x40 MSTORE DUP1 PUSH1 0x0 DUP2 MSTORE PUSH1 0x20 ADD PUSH1 0x0 DUP2 MSTORE PUSH1 0x20 ADD PUSH1 0x0 DUP2 MSTORE PUSH1 0x20 ADD PUSH1 0x0 DUP2 MSTORE PUSH1 0x20 ADD PUSH1 0x0 DUP2 MSTORE PUSH1 0x20 ADD PUSH1 0x0 PUSH1 0x3 DUP2 GT ISZERO PUSH2 0x2E7F JUMPI INVALID JUMPDEST SWAP1 MSTORE SWAP1 JUMP JUMPDEST PUSH1 0x40 MLOAD DUP1 PUSH1 0x80 ADD PUSH1 0x40 MSTORE DUP1 PUSH1 0x60 DUP2 MSTORE PUSH1 0x20 ADD PUSH1 0x60 DUP2 MSTORE PUSH1 0x20 ADD PUSH1 0x0 DUP2 MSTORE PUSH1 0x20 ADD PUSH1 0x0 DUP2 MSTORE POP SWAP1 JUMP JUMPDEST PUSH1 0x0 DUP1 DUP4 PUSH1 0x1F DUP5 ADD SLT PUSH2 0x2EBD JUMPI DUP1 DUP2 REVERT JUMPDEST POP DUP2 CALLDATALOAD PUSH1 0x1 PUSH1 0x1 PUSH1 0x40 SHL SUB DUP2 GT ISZERO PUSH2 0x2ED3 JUMPI DUP2 DUP3 REVERT JUMPDEST PUSH1 0x20 DUP4 ADD SWAP2 POP DUP4 PUSH1 0x20 DUP1 DUP4 MUL DUP6 ADD ADD GT ISZERO PUSH2 0x1EEB JUMPI PUSH1 0x0 DUP1 REVERT JUMPDEST DUP1 MLOAD PUSH1 0x1 PUSH1 0x1 PUSH1 0x70 SHL SUB NOT DUP2 AND DUP2 EQ PUSH2 0x327 JUMPI PUSH1 0x0 DUP1 REVERT JUMPDEST PUSH1 0x0 DUP1 DUP4 PUSH1 0x1F DUP5 ADD SLT PUSH2 0x2F16 JUMPI DUP2 DUP3 REVERT JUMPDEST POP DUP2 CALLDATALOAD PUSH1 0x1 PUSH1 0x1 PUSH1 0x40 SHL SUB DUP2 GT ISZERO PUSH2 0x2F2C JUMPI DUP2 DUP3 REVERT JUMPDEST PUSH1 0x20 DUP4 ADD SWAP2 POP DUP4 PUSH1 0x20 DUP3 DUP6 ADD ADD GT ISZERO PUSH2 0x1EEB JUMPI PUSH1 0x0 DUP1 REVERT JUMPDEST DUP1 MLOAD PUSH2 0x327 DUP2 PUSH2 0x3854 JUMP JUMPDEST DUP1 MLOAD PUSH2 0x327 DUP2 PUSH2 0x3877 JUMP JUMPDEST PUSH1 0x0 PUSH1 0x20 DUP3 DUP5 SUB SLT ISZERO PUSH2 0x2F6B JUMPI DUP1 DUP2 REVERT JUMPDEST DUP2 CALLDATALOAD PUSH2 0x653 DUP2 PUSH2 0x3826 JUMP JUMPDEST PUSH1 0x0 DUP1 PUSH1 0x40 DUP4 DUP6 SUB SLT ISZERO PUSH2 0x2F88 JUMPI DUP1 DUP2 REVERT JUMPDEST DUP3 CALLDATALOAD PUSH2 0x2F93 DUP2 PUSH2 0x3826 JUMP JUMPDEST SWAP2 POP PUSH1 0x20 DUP4 ADD CALLDATALOAD PUSH2 0x2FA3 DUP2 PUSH2 0x3826 JUMP JUMPDEST DUP1 SWAP2 POP POP SWAP3 POP SWAP3 SWAP1 POP JUMP JUMPDEST PUSH1 0x0 DUP1 PUSH1 0x0 DUP1 PUSH1 0x0 DUP1 PUSH1 0x0 DUP1 PUSH1 0xA0 DUP10 DUP12 SUB SLT ISZERO PUSH2 0x2FC9 JUMPI DUP4 DUP5 REVERT JUMPDEST DUP9 CALLDATALOAD PUSH2 0x2FD4 DUP2 PUSH2 0x3826 JUMP JUMPDEST SWAP8 POP PUSH1 0x20 DUP10 ADD CALLDATALOAD PUSH2 0x2FE4 DUP2 PUSH2 0x3826 JUMP JUMPDEST SWAP7 POP PUSH1 0x40 DUP10 ADD CALLDATALOAD PUSH1 0x1 PUSH1 0x1 PUSH1 0x40 SHL SUB DUP1 DUP3 GT ISZERO PUSH2 0x2FFF JUMPI DUP6 DUP7 REVERT JUMPDEST PUSH2 0x300B DUP13 DUP4 DUP14 ADD PUSH2 0x2EAC JUMP JUMPDEST SWAP1 SWAP9 POP SWAP7 POP PUSH1 0x60 DUP12 ADD CALLDATALOAD SWAP2 POP DUP1 DUP3 GT ISZERO PUSH2 0x3023 JUMPI DUP6 DUP7 REVERT JUMPDEST PUSH2 0x302F DUP13 DUP4 DUP14 ADD PUSH2 0x2EAC JUMP JUMPDEST SWAP1 SWAP7 POP SWAP5 POP PUSH1 0x80 DUP12 ADD CALLDATALOAD SWAP2 POP DUP1 DUP3 GT ISZERO PUSH2 0x3047 JUMPI DUP4 DUP5 REVERT JUMPDEST POP PUSH2 0x3054 DUP12 DUP3 DUP13 ADD PUSH2 0x2F05 JUMP JUMPDEST SWAP10 SWAP13 SWAP9 SWAP12 POP SWAP7 SWAP10 POP SWAP5 SWAP8 SWAP4 SWAP7 SWAP3 SWAP6 SWAP5 POP POP POP JUMP JUMPDEST PUSH1 0x0 DUP1 PUSH1 0x0 DUP1 PUSH1 0x0 DUP1 PUSH1 0xA0 DUP8 DUP10 SUB SLT ISZERO PUSH2 0x3080 JUMPI DUP2 DUP3 REVERT JUMPDEST DUP7 CALLDATALOAD PUSH2 0x308B DUP2 PUSH2 0x3826 JUMP JUMPDEST SWAP6 POP PUSH1 0x20 DUP8 ADD CALLDATALOAD PUSH2 0x309B DUP2 PUSH2 0x3826 JUMP JUMPDEST SWAP5 POP PUSH1 0x40 DUP8 ADD CALLDATALOAD SWAP4 POP PUSH1 0x60 DUP8 ADD CALLDATALOAD SWAP3 POP PUSH1 0x80 DUP8 ADD CALLDATALOAD PUSH1 0x1 PUSH1 0x1 PUSH1 0x40 SHL SUB DUP2 GT ISZERO PUSH2 0x30C3 JUMPI DUP3 DUP4 REVERT JUMPDEST PUSH2 0x30CF DUP10 DUP3 DUP11 ADD PUSH2 0x2F05 JUMP JUMPDEST SWAP8 SWAP11 SWAP7 SWAP10 POP SWAP5 SWAP8 POP SWAP3 SWAP6 SWAP4 SWAP5 SWAP3 POP POP POP JUMP JUMPDEST PUSH1 0x0 DUP1 PUSH1 0x40 DUP4 DUP6 SUB SLT ISZERO PUSH2 0x30F3 JUMPI DUP2 DUP3 REVERT JUMPDEST DUP3 CALLDATALOAD PUSH2 0x30FE DUP2 PUSH2 0x3826 JUMP JUMPDEST SWAP2 POP PUSH1 0x20 DUP4 ADD CALLDATALOAD DUP1 ISZERO ISZERO DUP2 EQ PUSH2 0x2FA3 JUMPI DUP2 DUP3 REVERT JUMPDEST PUSH1 0x0 DUP1 PUSH1 0x40 DUP4 DUP6 SUB SLT ISZERO PUSH2 0x3124 JUMPI DUP2 DUP3 REVERT JUMPDEST DUP3 CALLDATALOAD PUSH2 0x312F DUP2 PUSH2 0x3826 JUMP JUMPDEST SWAP5 PUSH1 0x20 SWAP4 SWAP1 SWAP4 ADD CALLDATALOAD SWAP4 POP POP POP JUMP JUMPDEST PUSH1 0x0 DUP1 PUSH1 0x0 DUP1 PUSH1 0x40 DUP6 DUP8 SUB SLT ISZERO PUSH2 0x3152 JUMPI DUP2 DUP3 REVERT JUMPDEST DUP5 CALLDATALOAD PUSH1 0x1 PUSH1 0x1 PUSH1 0x40 SHL SUB DUP1 DUP3 GT ISZERO PUSH2 0x3168 JUMPI DUP4 DUP5 REVERT JUMPDEST PUSH2 0x3174 DUP9 DUP4 DUP10 ADD PUSH2 0x2EAC JUMP JUMPDEST SWAP1 SWAP7 POP SWAP5 POP PUSH1 0x20 DUP8 ADD CALLDATALOAD SWAP2 POP DUP1 DUP3 GT ISZERO PUSH2 0x318C JUMPI DUP4 DUP5 REVERT JUMPDEST POP PUSH2 0x3199 DUP8 DUP3 DUP9 ADD PUSH2 0x2EAC JUMP JUMPDEST SWAP6 SWAP9 SWAP5 SWAP8 POP SWAP6 POP POP POP POP JUMP JUMPDEST PUSH1 0x0 PUSH1 0x20 DUP3 DUP5 SUB SLT ISZERO PUSH2 0x31B6 JUMPI DUP1 DUP2 REVERT JUMPDEST POP CALLDATALOAD SWAP2 SWAP1 POP JUMP JUMPDEST PUSH1 0x0 PUSH1 0x20 DUP3 DUP5 SUB SLT ISZERO PUSH2 0x31CE JUMPI DUP1 DUP2 REVERT JUMPDEST DUP2 CALLDATALOAD PUSH2 0x653 DUP2 PUSH2 0x383E JUMP JUMPDEST PUSH1 0x0 PUSH1 0x20 DUP3 DUP5 SUB SLT ISZERO PUSH2 0x31EA JUMPI DUP1 DUP2 REVERT JUMPDEST DUP2 MLOAD PUSH2 0x653 DUP2 PUSH2 0x383E JUMP JUMPDEST PUSH1 0x0 PUSH1 0x20 DUP3 DUP5 SUB SLT ISZERO PUSH2 0x3206 JUMPI DUP1 DUP2 REVERT JUMPDEST DUP2 MLOAD PUSH1 0x1 PUSH1 0x1 PUSH1 0x40 SHL SUB DUP1 DUP3 GT ISZERO PUSH2 0x321C JUMPI DUP3 DUP4 REVERT JUMPDEST DUP2 DUP5 ADD SWAP2 POP DUP5 PUSH1 0x1F DUP4 ADD SLT PUSH2 0x322F JUMPI DUP3 DUP4 REVERT JUMPDEST DUP2 MLOAD DUP2 DUP2 GT ISZERO PUSH2 0x323B JUMPI INVALID JUMPDEST PUSH1 0x40 MLOAD PUSH1 0x1F DUP3 ADD PUSH1 0x1F NOT AND DUP2 ADD PUSH1 0x20 ADD DUP4 DUP2 GT DUP3 DUP3 LT OR ISZERO PUSH2 0x3259 JUMPI INVALID JUMPDEST PUSH1 0x40 MSTORE DUP2 DUP2 MSTORE DUP4 DUP3 ADD PUSH1 0x20 ADD DUP8 LT ISZERO PUSH2 0x3270 JUMPI DUP5 DUP6 REVERT JUMPDEST PUSH2 0x3281 DUP3 PUSH1 0x20 DUP4 ADD PUSH1 0x20 DUP8 ADD PUSH2 0x37FA JUMP JUMPDEST SWAP7 SWAP6 POP POP POP POP POP POP JUMP JUMPDEST PUSH1 0x0 PUSH1 0xA0 DUP3 DUP5 SUB SLT ISZERO PUSH2 0x329C JUMPI DUP1 DUP2 REVERT JUMPDEST PUSH1 0x40 MLOAD PUSH1 0xA0 DUP2 ADD DUP2 DUP2 LT PUSH1 0x1 PUSH1 0x1 PUSH1 0x40 SHL SUB DUP3 GT OR ISZERO PUSH2 0x32B8 JUMPI INVALID JUMPDEST PUSH1 0x40 MSTORE DUP3 MLOAD PUSH2 0x32C6 DUP2 PUSH2 0x3864 JUMP JUMPDEST DUP2 MSTORE PUSH1 0x20 DUP4 ADD MLOAD PUSH1 0x1 PUSH1 0x1 PUSH1 0xF8 SHL SUB NOT DUP2 AND DUP2 EQ PUSH2 0x32E2 JUMPI DUP3 DUP4 REVERT JUMPDEST PUSH1 0x20 DUP3 ADD MSTORE PUSH2 0x32F3 PUSH1 0x40 DUP5 ADD PUSH2 0x2F4F JUMP JUMPDEST PUSH1 0x40 DUP3 ADD MSTORE PUSH2 0x3304 PUSH1 0x60 DUP5 ADD PUSH2 0x2F44 JUMP JUMPDEST PUSH1 0x60 DUP3 ADD MSTORE PUSH2 0x3315 PUSH1 0x80 DUP5 ADD PUSH2 0x2EED JUMP JUMPDEST PUSH1 0x80 DUP3 ADD MSTORE SWAP4 SWAP3 POP POP POP JUMP JUMPDEST PUSH1 0x0 DUP1 PUSH1 0x0 PUSH1 0x60 DUP5 DUP7 SUB SLT ISZERO PUSH2 0x3335 JUMPI DUP1 DUP2 REVERT JUMPDEST DUP4 CALLDATALOAD PUSH2 0x3340 DUP2 PUSH2 0x3854 JUMP JUMPDEST SWAP3 POP PUSH1 0x20 DUP5 ADD CALLDATALOAD PUSH2 0x3350 DUP2 PUSH2 0x3864 JUMP JUMPDEST SWAP2 POP PUSH1 0x40 DUP5 ADD CALLDATALOAD PUSH2 0x3360 DUP2 PUSH2 0x3877 JUMP JUMPDEST DUP1 SWAP2 POP POP SWAP3 POP SWAP3 POP SWAP3 JUMP JUMPDEST DUP2 DUP4 MSTORE PUSH1 0x0 PUSH1 0x1 PUSH1 0x1 PUSH1 0xFB SHL SUB DUP4 GT ISZERO PUSH2 0x3383 JUMPI DUP1 DUP2 REVERT JUMPDEST PUSH1 0x20 DUP4 MUL DUP1 DUP4 PUSH1 0x20 DUP8 ADD CALLDATACOPY SWAP4 SWAP1 SWAP4 ADD PUSH1 0x20 ADD SWAP3 DUP4 MSTORE POP SWAP1 SWAP2 SWAP1 POP JUMP JUMPDEST PUSH1 0x0 DUP3 DUP5 MSTORE DUP3 DUP3 PUSH1 0x20 DUP7 ADD CALLDATACOPY DUP1 PUSH1 0x20 DUP5 DUP7 ADD ADD MSTORE PUSH1 0x20 PUSH1 0x1F NOT PUSH1 0x1F DUP6 ADD AND DUP6 ADD ADD SWAP1 POP SWAP4 SWAP3 POP POP POP JUMP JUMPDEST PUSH1 0x0 DUP3 DUP5 DUP4 CALLDATACOPY SWAP2 ADD SWAP1 DUP2 MSTORE SWAP2 SWAP1 POP JUMP JUMPDEST PUSH1 0x1 PUSH1 0x1 PUSH1 0xA0 SHL SUB SWAP2 SWAP1 SWAP2 AND DUP2 MSTORE PUSH1 0x20 ADD SWAP1 JUMP JUMPDEST PUSH1 0x1 PUSH1 0x1 PUSH1 0xA0 SHL SUB DUP10 DUP2 AND DUP3 MSTORE DUP9 AND PUSH1 0x20 DUP3 ADD MSTORE PUSH1 0xA0 PUSH1 0x40 DUP3 ADD DUP2 SWAP1 MSTORE PUSH1 0x0 SWAP1 PUSH2 0x341A SWAP1 DUP4 ADD DUP9 DUP11 PUSH2 0x336B JUMP JUMPDEST DUP3 DUP2 SUB PUSH1 0x60 DUP5 ADD MSTORE PUSH2 0x342D DUP2 DUP8 DUP10 PUSH2 0x336B JUMP JUMPDEST SWAP1 POP DUP3 DUP2 SUB PUSH1 0x80 DUP5 ADD MSTORE PUSH2 0x3442 DUP2 DUP6 DUP8 PUSH2 0x339F JUMP JUMPDEST SWAP12 SWAP11 POP POP POP POP POP POP POP POP POP POP POP JUMP JUMPDEST PUSH1 0x1 PUSH1 0x1 PUSH1 0xA0 SHL SUB DUP8 DUP2 AND DUP3 MSTORE DUP7 AND PUSH1 0x20 DUP3 ADD MSTORE PUSH1 0x40 DUP2 ADD DUP6 SWAP1 MSTORE PUSH1 0x60 DUP2 ADD DUP5 SWAP1 MSTORE PUSH1 0xA0 PUSH1 0x80 DUP3 ADD DUP2 SWAP1 MSTORE PUSH1 0x0 SWAP1 PUSH2 0x194A SWAP1 DUP4 ADD DUP5 DUP7 PUSH2 0x339F JUMP JUMPDEST PUSH1 0x1 PUSH1 0x1 PUSH1 0xA0 SHL SUB SWAP3 DUP4 AND DUP2 MSTORE SWAP2 AND PUSH1 0x20 DUP3 ADD MSTORE PUSH1 0x40 ADD SWAP1 JUMP JUMPDEST PUSH1 0x1 PUSH1 0x1 PUSH1 0xA0 SHL SUB SWAP3 SWAP1 SWAP3 AND DUP3 MSTORE DUP1 MLOAD PUSH5 0xFFFFFFFFFF AND PUSH1 0x20 DUP1 DUP5 ADD SWAP2 SWAP1 SWAP2 MSTORE DUP2 ADD MLOAD PUSH1 0x1 PUSH1 0x1 PUSH1 0xF8 SHL SUB NOT AND PUSH1 0x40 DUP1 DUP5 ADD SWAP2 SWAP1 SWAP2 MSTORE DUP2 ADD MLOAD PUSH1 0xFF AND PUSH1 0x60 DUP1 DUP5 ADD SWAP2 SWAP1 SWAP2 MSTORE DUP2 ADD MLOAD PUSH2 0xFFFF AND PUSH1 0x80 DUP1 DUP5 ADD SWAP2 SWAP1 SWAP2 MSTORE ADD MLOAD PUSH1 0x1 PUSH1 0x1 PUSH1 0x70 SHL SUB NOT AND PUSH1 0xA0 DUP3 ADD MSTORE PUSH1 0xC0 ADD SWAP1 JUMP JUMPDEST PUSH1 0x20 DUP1 DUP3 MSTORE DUP3 MLOAD DUP3 DUP3 ADD DUP2 SWAP1 MSTORE PUSH1 0x0 SWAP2 SWAP1 DUP5 DUP3 ADD SWAP1 PUSH1 0x40 DUP6 ADD SWAP1 DUP5 JUMPDEST DUP2 DUP2 LT ISZERO PUSH2 0x354A JUMPI DUP4 MLOAD DUP4 MSTORE SWAP3 DUP5 ADD SWAP3 SWAP2 DUP5 ADD SWAP2 PUSH1 0x1 ADD PUSH2 0x352E JUMP JUMPDEST POP SWAP1 SWAP7 SWAP6 POP POP POP POP POP POP JUMP JUMPDEST PUSH1 0x20 DUP1 DUP3 MSTORE DUP3 MLOAD DUP3 DUP3 ADD DUP2 SWAP1 MSTORE PUSH1 0x0 SWAP2 SWAP1 PUSH1 0x40 SWAP1 DUP2 DUP6 ADD SWAP1 DUP7 DUP5 ADD DUP6 JUMPDEST DUP3 DUP2 LT ISZERO PUSH2 0x35CB JUMPI DUP2 MLOAD DUP1 MLOAD DUP6 MSTORE DUP7 DUP2 ADD MLOAD DUP8 DUP7 ADD MSTORE DUP6 DUP2 ADD MLOAD DUP7 DUP7 ADD MSTORE PUSH1 0x60 DUP1 DUP3 ADD MLOAD SWAP1 DUP7 ADD MSTORE PUSH1 0x80 DUP1 DUP3 ADD MLOAD SWAP1 DUP7 ADD MSTORE PUSH1 0xA0 SWAP1 DUP2 ADD MLOAD SWAP1 PUSH1 0x4 DUP3 LT PUSH2 0x35B6 JUMPI INVALID JUMPDEST DUP6 ADD MSTORE PUSH1 0xC0 SWAP1 SWAP4 ADD SWAP3 SWAP1 DUP6 ADD SWAP1 PUSH1 0x1 ADD PUSH2 0x3573 JUMP JUMPDEST POP SWAP2 SWAP8 SWAP7 POP POP POP POP POP POP POP JUMP JUMPDEST PUSH1 0x0 PUSH1 0x40 DUP3 MSTORE PUSH2 0x35EC PUSH1 0x40 DUP4 ADD DUP7 DUP9 PUSH2 0x336B JUMP JUMPDEST DUP3 DUP2 SUB PUSH1 0x20 DUP5 ADD MSTORE PUSH2 0x35FF DUP2 DUP6 DUP8 PUSH2 0x336B JUMP JUMPDEST SWAP8 SWAP7 POP POP POP POP POP POP POP JUMP JUMPDEST SWAP1 ISZERO ISZERO DUP2 MSTORE PUSH1 0x20 ADD SWAP1 JUMP JUMPDEST SWAP1 DUP2 MSTORE PUSH1 0x20 ADD SWAP1 JUMP JUMPDEST PUSH1 0x0 PUSH1 0x20 DUP3 MSTORE DUP3 MLOAD DUP1 PUSH1 0x20 DUP5 ADD MSTORE PUSH2 0x363D DUP2 PUSH1 0x40 DUP6 ADD PUSH1 0x20 DUP8 ADD PUSH2 0x37FA JUMP JUMPDEST PUSH1 0x1F ADD PUSH1 0x1F NOT AND SWAP2 SWAP1 SWAP2 ADD PUSH1 0x40 ADD SWAP3 SWAP2 POP POP JUMP JUMPDEST PUSH1 0x20 DUP1 DUP3 MSTORE PUSH1 0xF SWAP1 DUP3 ADD MSTORE PUSH15 0x496E76616C69642061646472657373 PUSH1 0x88 SHL PUSH1 0x40 DUP3 ADD MSTORE PUSH1 0x60 ADD SWAP1 JUMP JUMPDEST PUSH1 0x20 DUP1 DUP3 MSTORE PUSH1 0x11 SWAP1 DUP3 ADD MSTORE PUSH17 0x155B985D5D1A1BDC9A5E99590818D85B1B PUSH1 0x7A SHL PUSH1 0x40 DUP3 ADD MSTORE PUSH1 0x60 ADD SWAP1 JUMP JUMPDEST PUSH1 0x20 DUP1 DUP3 MSTORE PUSH1 0xC SWAP1 DUP3 ADD MSTORE PUSH12 0x155B985D5D1A1BDC9A5E9959 PUSH1 0xA2 SHL PUSH1 0x40 DUP3 ADD MSTORE PUSH1 0x60 ADD SWAP1 JUMP JUMPDEST PUSH1 0x20 DUP1 DUP3 MSTORE PUSH1 0xD SWAP1 DUP3 ADD MSTORE PUSH13 0x92DCECC2D8D2C840D2DCC8CAF PUSH1 0x9B SHL PUSH1 0x40 DUP3 ADD MSTORE PUSH1 0x60 ADD SWAP1 JUMP JUMPDEST PUSH1 0x20 DUP1 DUP3 MSTORE PUSH1 0x13 SWAP1 DUP3 ADD MSTORE PUSH19 0x4163636F756E74206D75737420736574746C65 PUSH1 0x68 SHL PUSH1 0x40 DUP3 ADD MSTORE PUSH1 0x60 ADD SWAP1 JUMP JUMPDEST PUSH1 0x20 DUP1 DUP3 MSTORE PUSH1 0xF SWAP1 DUP3 ADD MSTORE PUSH15 0x4F766572206D617820617373657473 PUSH1 0x88 SHL PUSH1 0x40 DUP3 ADD MSTORE PUSH1 0x60 ADD SWAP1 JUMP JUMPDEST PUSH1 0x20 DUP1 DUP3 MSTORE PUSH1 0x10 SWAP1 DUP3 ADD MSTORE PUSH16 0x496E76616C6964206D61747572697479 PUSH1 0x80 SHL PUSH1 0x40 DUP3 ADD MSTORE PUSH1 0x60 ADD SWAP1 JUMP JUMPDEST PUSH1 0x20 DUP1 DUP3 MSTORE PUSH1 0x12 SWAP1 DUP3 ADD MSTORE PUSH18 0x12511CC81B5D5CDD081899481CDBDC9D1959 PUSH1 0x72 SHL PUSH1 0x40 DUP3 ADD MSTORE PUSH1 0x60 ADD SWAP1 JUMP JUMPDEST PUSH1 0x20 DUP1 DUP3 MSTORE PUSH1 0xC SWAP1 DUP3 ADD MSTORE PUSH12 0x139BDD081858D8D95C1D1959 PUSH1 0xA2 SHL PUSH1 0x40 DUP3 ADD MSTORE PUSH1 0x60 ADD SWAP1 JUMP JUMPDEST SWAP2 DUP3 MSTORE PUSH1 0x20 DUP3 ADD MSTORE PUSH1 0x40 ADD SWAP1 JUMP JUMPDEST PUSH1 0x0 DUP1 DUP6 DUP6 GT ISZERO PUSH2 0x37E1 JUMPI DUP2 DUP3 REVERT JUMPDEST DUP4 DUP7 GT ISZERO PUSH2 0x37ED JUMPI DUP2 DUP3 REVERT JUMPDEST POP POP DUP3 ADD SWAP4 SWAP2 SWAP1 SWAP3 SUB SWAP2 POP JUMP JUMPDEST PUSH1 0x0 JUMPDEST DUP4 DUP2 LT ISZERO PUSH2 0x3815 JUMPI DUP2 DUP2 ADD MLOAD DUP4 DUP3 ADD MSTORE PUSH1 0x20 ADD PUSH2 0x37FD JUMP JUMPDEST DUP4 DUP2 GT ISZERO PUSH2 0x1617 JUMPI POP POP PUSH1 0x0 SWAP2 ADD MSTORE JUMP JUMPDEST PUSH1 0x1 PUSH1 0x1 PUSH1 0xA0 SHL SUB DUP2 AND DUP2 EQ PUSH2 0x383B JUMPI PUSH1 0x0 DUP1 REVERT JUMPDEST POP JUMP JUMPDEST PUSH1 0x1 PUSH1 0x1 PUSH1 0xE0 SHL SUB NOT DUP2 AND DUP2 EQ PUSH2 0x383B JUMPI PUSH1 0x0 DUP1 REVERT JUMPDEST PUSH2 0xFFFF DUP2 AND DUP2 EQ PUSH2 0x383B JUMPI PUSH1 0x0 DUP1 REVERT JUMPDEST PUSH5 0xFFFFFFFFFF DUP2 AND DUP2 EQ PUSH2 0x383B JUMPI PUSH1 0x0 DUP1 REVERT JUMPDEST PUSH1 0xFF DUP2 AND DUP2 EQ PUSH2 0x383B JUMPI PUSH1 0x0 DUP1 REVERT INVALID LOG2 PUSH5 0x6970667358 0x22 SLT KECCAK256 OR ISZERO PUSH16 0xF7FAB7B9690CAA59C8E8495B162322DC 0xE8 INVALID ADDRESS 0xD6 0x24 CALLVALUE 0xEE SWAP2 0xAE PUSH16 0xFCA1EA64736F6C634300070600330000 ","sha1":"71eeabc3232ea90caee9c2b2b03fc75190ae0938","source":"// SPDX-License-Identifier: GPL-3.0-only\npragma solidity ^0.7.0;\npragma abicoder v2;\n\nimport \"./ActionGuards.sol\";\nimport \"../FreeCollateralExternal.sol\";\nimport \"../../global/StorageLayoutV1.sol\";\nimport \"../../math/SafeInt256.sol\";\nimport \"../../internal/AccountContextHandler.sol\";\nimport \"../../internal/portfolio/TransferAssets.sol\";\nimport \"../../internal/portfolio/PortfolioHandler.sol\";\nimport \"../../../interfaces/notional/NotionalProxy.sol\";\nimport \"../../../interfaces/IERC1155TokenReceiver.sol\";\nimport \"../../../interfaces/notional/nERC1155Interface.sol\";\nimport \"@openzeppelin/contracts/token/ERC1155/IERC1155.sol\";\nimport \"@openzeppelin/contracts/utils/Address.sol\";\n\ncontract ERC1155Action is nERC1155Interface, ActionGuards {\n    using SafeInt256 for int256;\n    using AccountContextHandler for AccountContext;\n\n    bytes4 internal constant ERC1155_ACCEPTED = bytes4(keccak256(\"onERC1155Received(address,address,uint256,uint256,bytes)\"));\n    bytes4 internal constant ERC1155_BATCH_ACCEPTED = bytes4(keccak256(\"onERC1155BatchReceived(address,address,uint256[],uint256[],bytes)\"));\n\n    function supportsInterface(bytes4 interfaceId) external pure override returns (bool) {\n        return interfaceId == type(IERC1155).interfaceId;\n    }\n\n    /// @notice Returns the balance of an ERC1155 id on an account. WARNING: the balances returned by\n    /// this method do not show negative fCash balances because only unsigned integers are returned. They\n    /// are represented by zero here. Use `signedBalanceOf` to get a signed return value.\n    /// @param account account to get the id for\n    /// @param id the ERC1155 id\n    /// @return Balance of the ERC1155 id as an unsigned integer (negative fCash balances return zero)\n    function balanceOf(address account, uint256 id) public view override returns (uint256) {\n        int256 notional = signedBalanceOf(account, id);\n        return notional < 0 ? 0 : notional.toUint();\n    }\n\n    /// @notice Returns the balance of an ERC1155 id on an account.\n    /// @param account account to get the id for\n    /// @param id the ERC1155 id\n    /// @return notional balance of the ERC1155 id as a signed integer\n    function signedBalanceOf(address account, uint256 id) public view override returns (int256 notional) {\n        AccountContext memory accountContext = AccountContextHandler.getAccountContext(account);\n\n        if (accountContext.isBitmapEnabled()) {\n            notional = _balanceInBitmap(account, accountContext.bitmapCurrencyId, id);\n        } else {\n            notional = _balanceInArray(\n                PortfolioHandler.getSortedPortfolio(account, accountContext.assetArrayLength),\n                id\n            );\n        }\n    }\n\n    /// @notice Returns the balance of a batch of accounts and ids.\n    /// @param accounts array of accounts to get balances for\n    /// @param ids array of ids to get balances for\n    /// @return Returns an array of signed balances\n    function signedBalanceOfBatch(address[] calldata accounts, uint256[] calldata ids)\n        external\n        view\n        override\n        returns (int256[] memory)\n    {\n        require(accounts.length == ids.length);\n        int256[] memory amounts = new int256[](accounts.length);\n\n        for (uint256 i; i < accounts.length; i++) {\n            // This is pretty inefficient but gets the job done\n            amounts[i] = signedBalanceOf(accounts[i], ids[i]);\n        }\n\n        return amounts;\n    }\n\n    /// @notice Returns the balance of a batch of accounts and ids. WARNING: negative fCash balances are represented\n    /// as zero balances in the array. \n    /// @param accounts array of accounts to get balances for\n    /// @param ids array of ids to get balances for\n    /// @return Returns an array of unsigned balances\n    function balanceOfBatch(address[] calldata accounts, uint256[] calldata ids)\n        external\n        view\n        override\n        returns (uint256[] memory)\n    {\n        require(accounts.length == ids.length);\n        uint256[] memory amounts = new uint256[](accounts.length);\n\n        for (uint256 i; i < accounts.length; i++) {\n            // This is pretty inefficient but gets the job done\n            amounts[i] = balanceOf(accounts[i], ids[i]);\n        }\n\n        return amounts;\n    }\n\n    /// @dev Returns the balance from a bitmap given the id\n    function _balanceInBitmap(\n        address account,\n        uint256 bitmapCurrencyId,\n        uint256 id\n    ) internal view returns (int256) {\n        (uint256 currencyId, uint256 maturity, uint256 assetType) = TransferAssets.decodeAssetId(id);\n\n        if (\n            currencyId != bitmapCurrencyId ||\n            assetType != Constants.FCASH_ASSET_TYPE\n        ) {\n            // Neither of these are possible for a bitmap group\n            return 0;\n        } else {\n            return BitmapAssetsHandler.getifCashNotional(account, currencyId, maturity);\n        }\n    }\n\n    /// @dev Searches an array for the matching asset\n    function _balanceInArray(PortfolioAsset[] memory portfolio, uint256 id)\n        internal\n        pure\n        returns (int256)\n    {\n        (uint256 currencyId, uint256 maturity, uint256 assetType) = TransferAssets.decodeAssetId(id);\n\n        for (uint256 i; i < portfolio.length; i++) {\n            PortfolioAsset memory asset = portfolio[i];\n            if (\n                asset.currencyId == currencyId &&\n                asset.maturity == maturity &&\n                asset.assetType == assetType\n            ) return asset.notional;\n        }\n    }\n\n    /// @notice Transfer of a single fCash or liquidity token asset between accounts. Allows `from` account to transfer more fCash\n    /// than they have as long as they pass a subsequent free collateral check. This enables OTC trading of fCash assets.\n    /// @param from account to transfer from\n    /// @param to account to transfer to\n    /// @param id ERC1155 id of the asset\n    /// @param amount amount to transfer\n    /// @param data arbitrary data passed to ERC1155Receiver (if contract) and if properly specified can be used to initiate\n    /// a trading action on Notional for the `from` address\n    /// @dev emit:TransferSingle, emit:AccountContextUpdate, emit:AccountSettled\n    function safeTransferFrom(\n        address from,\n        address to,\n        uint256 id,\n        uint256 amount,\n        bytes calldata data\n    ) external payable override {\n        // NOTE: there is no re-entrancy guard on this method because that would prevent a callback in \n        // _checkPostTransferEvent. The external call to the receiver is done at the very end after all stateful\n        // updates have occurred.\n        _validateAccounts(from, to);\n\n        // When amount is set to zero this method can be used as a way to execute trades via a transfer operator\n        AccountContext memory fromContext;\n        if (amount > 0) {\n            PortfolioAsset[] memory assets = new PortfolioAsset[](1);\n            PortfolioAsset memory asset = assets[0];\n\n            (asset.currencyId, asset.maturity, asset.assetType) = TransferAssets.decodeAssetId(id);\n            // This ensures that asset.notional is always a positive amount\n            asset.notional = SafeInt256.toInt(amount);\n            _requireValidMaturity(asset.currencyId, asset.maturity, block.timestamp);\n\n            // prettier-ignore\n            (fromContext, /* toContext */) = _transfer(from, to, assets);\n\n            emit TransferSingle(msg.sender, from, to, id, amount);\n        } else {\n            fromContext = AccountContextHandler.getAccountContext(from);\n        }\n\n        // toContext is always empty here because we cannot have bidirectional transfers in `safeTransferFrom`\n        AccountContext memory toContext;\n        _checkPostTransferEvent(from, to, fromContext, toContext, data, false);\n\n        // Do this external call at the end to prevent re-entrancy\n        if (Address.isContract(to)) {\n            require(\n                IERC1155TokenReceiver(to).onERC1155Received(msg.sender, from, id, amount, data) ==\n                    ERC1155_ACCEPTED,\n                \"Not accepted\"\n            );\n        }\n    }\n\n    /// @notice Transfer of a batch of fCash or liquidity token assets between accounts. Allows `from` account to transfer more fCash\n    /// than they have as long as they pass a subsequent free collateral check. This enables OTC trading of fCash assets.\n    /// @param from account to transfer from\n    /// @param to account to transfer to\n    /// @param ids ERC1155 ids of the assets\n    /// @param amounts amounts to transfer\n    /// @param data arbitrary data passed to ERC1155Receiver (if contract) and if properly specified can be used to initiate\n    /// a trading action on Notional for the `from` address\n    /// @dev emit:TransferBatch, emit:AccountContextUpdate, emit:AccountSettled\n    function safeBatchTransferFrom(\n        address from,\n        address to,\n        uint256[] calldata ids,\n        uint256[] calldata amounts,\n        bytes calldata data\n    ) external payable override {\n        // NOTE: there is no re-entrancy guard on this method because that would prevent a callback in \n        // _checkPostTransferEvent. The external call to the receiver is done at the very end.\n        _validateAccounts(from, to);\n\n        (PortfolioAsset[] memory assets, bool toTransferNegative) = _decodeToAssets(ids, amounts);\n        // When doing a bidirectional transfer must ensure that the `to` account has given approval\n        // to msg.sender as well.\n        if (toTransferNegative) require(isApprovedForAll(to, msg.sender), \"Unauthorized\");\n\n        (AccountContext memory fromContext, AccountContext memory toContext) = _transfer(\n            from,\n            to,\n            assets\n        );\n\n        _checkPostTransferEvent(from, to, fromContext, toContext, data, toTransferNegative);\n        emit TransferBatch(msg.sender, from, to, ids, amounts);\n\n        // Do this at the end to prevent re-entrancy\n        if (Address.isContract(to)) {\n            require(\n                IERC1155TokenReceiver(to).onERC1155BatchReceived(\n                    msg.sender,\n                    from,\n                    ids,\n                    amounts,\n                    data\n                ) == ERC1155_BATCH_ACCEPTED,\n                \"Not accepted\"\n            );\n        }\n    }\n\n    /// @dev Validates accounts on transfer\n    function _validateAccounts(address from, address to) private view {\n        // Cannot transfer to self, cannot transfer to zero address\n        require(from != to && to != address(0) && to != address(this), \"Invalid address\");\n        // Authentication is valid\n        require(msg.sender == from || isApprovedForAll(from, msg.sender), \"Unauthorized\");\n        // nTokens will not accept transfers because they do not implement the ERC1155\n        // receive method\n\n        // Defensive check to ensure that an authorized operator does not call these methods\n        // with an invalid `from` account\n        requireValidAccount(from);\n    }\n\n    /// @notice Decodes ids and amounts to PortfolioAsset objects\n    /// @param ids array of ERC1155 ids\n    /// @param amounts amounts to transfer\n    /// @return array of portfolio asset objects\n    function decodeToAssets(uint256[] calldata ids, uint256[] calldata amounts)\n        external\n        view\n        override\n        returns (PortfolioAsset[] memory)\n    {\n        // prettier-ignore\n        (PortfolioAsset[] memory assets, /* */) = _decodeToAssets(ids, amounts);\n        return assets;\n    }\n\n    function _decodeToAssets(uint256[] calldata ids, uint256[] calldata amounts)\n        internal\n        view\n        returns (PortfolioAsset[] memory, bool)\n    {\n        require(ids.length == amounts.length);\n        bool toTransferNegative = false;\n        PortfolioAsset[] memory assets = new PortfolioAsset[](ids.length);\n\n        for (uint256 i; i < ids.length; i++) {\n            // Require that ids are not duplicated, there is no valid reason to have duplicate ids\n            if (i > 0) require(ids[i] > ids[i - 1], \"IDs must be sorted\");\n\n            PortfolioAsset memory asset = assets[i];\n            (asset.currencyId, asset.maturity, asset.assetType) = TransferAssets.decodeAssetId(ids[i]);\n\n            _requireValidMaturity(asset.currencyId, asset.maturity, block.timestamp);\n            // Although amounts is encoded as uint256 we allow it to be negative here. This will\n            // allow for bidirectional transfers of fCash. Internally fCash assets are always stored\n            // as int128 (for bitmap portfolio) or int88 (for array portfolio) so there is no potential\n            // that a uint256 value that is greater than type(int256).max would actually valid.\n            asset.notional = int256(amounts[i]);\n            // If there is a negative transfer we mark it as such, this will force us to do a free collateral\n            // check on the `to` address as well.\n            if (asset.notional < 0) toTransferNegative = true;\n        }\n\n        return (assets, toTransferNegative);\n    }\n\n    /// @notice Encodes parameters into an ERC1155 id\n    /// @param currencyId currency id of the asset\n    /// @param maturity timestamp of the maturity\n    /// @param assetType id of the asset type\n    /// @return ERC1155 id\n    function encodeToId(\n        uint16 currencyId,\n        uint40 maturity,\n        uint8 assetType\n    ) external pure override returns (uint256) {\n        return TransferAssets.encodeAssetId(currencyId, maturity, assetType);\n    }\n\n    /// @dev Ensures that all maturities specified are valid for the currency id (i.e. they do not\n    /// go past the max maturity date)\n    function _requireValidMaturity(\n        uint256 currencyId,\n        uint256 maturity,\n        uint256 blockTime\n    ) private view {\n        require(\n            DateTime.isValidMaturity(CashGroup.getMaxMarketIndex(currencyId), maturity, blockTime),\n            \"Invalid maturity\"\n        );\n    }\n\n    /// @dev Internal asset transfer event between accounts\n    function _transfer(\n        address from,\n        address to,\n        PortfolioAsset[] memory assets\n    ) internal returns (AccountContext memory, AccountContext memory) {\n        // Finalize all parts of a transfer for each account separately. Settlement must happen\n        // before the call to placeAssetsInAccount so that we load the proper portfolio state.\n        AccountContext memory toContext = AccountContextHandler.getAccountContext(to);\n        if (toContext.mustSettleAssets()) {\n            toContext = SettleAssetsExternal.settleAccount(to, toContext);\n        }\n        toContext = TransferAssets.placeAssetsInAccount(to, toContext, assets);\n        toContext.setAccountContext(to);\n\n        // Will flip the sign of notional in the assets array in memory\n        TransferAssets.invertNotionalAmountsInPlace(assets);\n\n        // Now finalize the from account\n        AccountContext memory fromContext = AccountContextHandler.getAccountContext(from);\n        if (fromContext.mustSettleAssets()) {\n            fromContext = SettleAssetsExternal.settleAccount(from, fromContext);\n        }\n        fromContext = TransferAssets.placeAssetsInAccount(from, fromContext, assets);\n        fromContext.setAccountContext(from);\n\n        return (fromContext, toContext);\n    }\n\n    /// @dev Checks post transfer events which will either be initiating one of the batch trading events or a free collateral\n    /// check if required.\n    function _checkPostTransferEvent(\n        address from,\n        address to,\n        AccountContext memory fromContext,\n        AccountContext memory toContext,\n        bytes calldata data,\n        bool toTransferNegative\n    ) internal {\n        bytes4 sig = 0;\n        address transactedAccount = address(0);\n        if (data.length >= 32) {\n            // Method signature is not abi encoded so decode to bytes32 first and take the first 4 bytes. This works\n            // because all the methods we want to call below require more than 32 bytes in the calldata\n            bytes32 tmp = abi.decode(data, (bytes32));\n            sig = bytes4(tmp);\n        }\n\n        // These are the only three methods allowed to occur in a post transfer event. These actions allow `from`\n        // accounts to take any sort of trading action as a result of their transfer. All of these actions will\n        // handle checking free collateral so no additional check is necessary here.\n        if (\n            sig == NotionalProxy.nTokenRedeem.selector ||\n            sig == NotionalProxy.batchBalanceAction.selector ||\n            sig == NotionalProxy.batchBalanceAndTradeAction.selector\n        ) {\n            transactedAccount = abi.decode(data[4:36], (address));\n            // Ensure that the \"transactedAccount\" parameter of the call is set to the from address or the\n            // to address. If it is the \"to\" address then ensure that the msg.sender has approval to\n            // execute operations\n            require(\n                transactedAccount == from ||\n                    (transactedAccount == to && isApprovedForAll(to, msg.sender)),\n                \"Unauthorized call\"\n            );\n\n            // We can only call back to Notional itself at this point, account context is already\n            // stored and all three of the whitelisted methods above will check free collateral.\n            (bool status, bytes memory result) = address(this).call{value: msg.value}(data);\n            require(status, _getRevertMsg(result));\n        }\n\n        // The transacted account will have its free collateral checked above so there is\n        // no need to recheck here.\n        // If transactedAccount == 0 then will check fc\n        // If transactedAccount == to then will check fc\n        // If transactedAccount == from then will skip, prefer call above\n        if (transactedAccount != from && fromContext.hasDebt != 0x00) {\n            FreeCollateralExternal.checkFreeCollateralAndRevert(from);\n        }\n\n        // Check free collateral if the `to` account has taken on a negative fCash amount\n        // If toTransferNegative is false then will not check\n        // If transactedAccount == 0 then will check fc\n        // If transactedAccount == from then will check fc\n        // If transactedAccount == to then will skip, prefer call above\n        if (toTransferNegative && transactedAccount != to && toContext.hasDebt != 0x00) {\n            FreeCollateralExternal.checkFreeCollateralAndRevert(to);\n        }\n    }\n\n    function _getRevertMsg(bytes memory _returnData) internal pure returns (string memory) {\n        // If the _res length is less than 68, then the transaction failed silently (without a revert message)\n        if (_returnData.length < 68) return \"Transaction reverted silently\";\n\n        assembly {\n            // Slice the sighash.\n            _returnData := add(_returnData, 0x04)\n        }\n        return abi.decode(_returnData, (string)); // All that remains is the revert string\n    }\n\n    /// @notice Allows an account to set approval for an operator\n    /// @param operator address of the operator\n    /// @param approved state of the approval\n    /// @dev emit:ApprovalForAll\n    function setApprovalForAll(address operator, bool approved) external override {\n        accountAuthorizedTransferOperator[msg.sender][operator] = approved;\n        emit ApprovalForAll(msg.sender, operator, approved);\n    }\n\n    /// @notice Checks approval state for an account, will first check if global transfer operator is enabled\n    /// before falling through to an account specific transfer operator.\n    /// @param account address of the account\n    /// @param operator address of the operator\n    /// @return true for approved\n    function isApprovedForAll(address account, address operator)\n        public\n        view\n        override\n        returns (bool)\n    {\n        if (globalTransferOperator[operator]) return true;\n\n        return accountAuthorizedTransferOperator[account][operator];\n    }\n\n    /// @notice Get a list of deployed library addresses (sorted by library name)\n    function getLibInfo() external view returns (address, address) {\n        return (address(FreeCollateralExternal), address(SettleAssetsExternal));\n    }\n}\n","sourcePath":"contracts/external/actions/ERC1155Action.sol","deployment":{"address":"0xdb7657ad39E6Ee8a08d088a89f6b211dbe05D421","chainid":"5","blockHeight":6439062}}