{"abi":[{"inputs":[{"internalType":"contract Comptroller","name":"_comptroller","type":"address"}],"stateMutability":"nonpayable","type":"constructor","name":"constructor"},{"anonymous":false,"inputs":[{"indexed":true,"internalType":"uint16","name":"currencyId","type":"uint16"},{"indexed":false,"internalType":"int256","name":"harvestAmount","type":"int256"}],"name":"ExcessReserveBalanceHarvested","type":"event"},{"anonymous":false,"inputs":[{"indexed":true,"internalType":"uint16","name":"currencyId","type":"uint16"},{"indexed":false,"internalType":"int256","name":"newBalance","type":"int256"}],"name":"ReserveBalanceUpdated","type":"event"},{"anonymous":false,"inputs":[{"indexed":false,"internalType":"uint16","name":"currencyId","type":"uint16"},{"indexed":false,"internalType":"uint256","name":"bufferAmount","type":"uint256"}],"name":"ReserveBufferUpdated","type":"event"},{"anonymous":false,"inputs":[{"indexed":true,"internalType":"address","name":"previousManager","type":"address"},{"indexed":true,"internalType":"address","name":"newManager","type":"address"}],"name":"TreasuryManagerChanged","type":"event"},{"inputs":[],"name":"COMP","outputs":[{"internalType":"contract IERC20","name":"","type":"address"}],"stateMutability":"view","type":"function"},{"inputs":[],"name":"COMPTROLLER","outputs":[{"internalType":"contract Comptroller","name":"","type":"address"}],"stateMutability":"view","type":"function"},{"inputs":[{"internalType":"address[]","name":"cTokens","type":"address[]"}],"name":"claimCOMPAndTransfer","outputs":[{"internalType":"uint256","name":"","type":"uint256"}],"stateMutability":"nonpayable","type":"function"},{"inputs":[],"name":"owner","outputs":[{"internalType":"address","name":"","type":"address"}],"stateMutability":"view","type":"function"},{"inputs":[],"name":"pauseGuardian","outputs":[{"internalType":"address","name":"","type":"address"}],"stateMutability":"view","type":"function"},{"inputs":[],"name":"pauseRouter","outputs":[{"internalType":"address","name":"","type":"address"}],"stateMutability":"view","type":"function"},{"inputs":[{"internalType":"uint16","name":"currencyId","type":"uint16"},{"internalType":"uint256","name":"bufferAmount","type":"uint256"}],"name":"setReserveBuffer","outputs":[],"stateMutability":"nonpayable","type":"function"},{"inputs":[{"internalType":"uint16","name":"currencyId","type":"uint16"},{"internalType":"int256","name":"newBalance","type":"int256"}],"name":"setReserveCashBalance","outputs":[],"stateMutability":"nonpayable","type":"function"},{"inputs":[{"internalType":"address","name":"manager","type":"address"}],"name":"setTreasuryManager","outputs":[],"stateMutability":"nonpayable","type":"function"},{"inputs":[{"internalType":"uint16[]","name":"currencies","type":"uint16[]"}],"name":"transferReserveToTreasury","outputs":[{"internalType":"uint256[]","name":"","type":"uint256[]"}],"stateMutability":"nonpayable","type":"function"}],"bytecode":"60c06040523480156200001157600080fd5b5060405162001c1938038062001c198339810160408190526200003491620000dd565b806001600160a01b031660a0816001600160a01b031660601b81525050806001600160a01b0316639d1b5a0a6040518163ffffffff1660e01b815260040160206040518083038186803b1580156200008b57600080fd5b505afa158015620000a0573d6000803e3d6000fd5b505050506040513d601f19601f82011682018060405250810190620000c69190620000dd565b60601b6001600160601b031916608052506200011c565b600060208284031215620000ef578081fd5b8151620000fc8162000103565b9392505050565b6001600160a01b03811681146200011957600080fd5b50565b60805160601c60a05160601c611ac462000155600039806101bf5280610516525080610489528061059a52806106355250611ac46000f3fe608060405234801561001057600080fd5b506004361061009e5760003560e01c80638da5cb5b116100665780638da5cb5b146101065780638e73b23c1461010e578063b71501bc14610121578063fadb7fee14610129578063fe47a9f2146101495761009e565b806312adc47b146100a357806324a3d622146100b85780635f82c67e146100d65780636d7a00eb146100de57806382463367146100fe575b600080fd5b6100b66100b13660046117fe565b61015c565b005b6100c06101ae565b6040516100cd919061183f565b60405180910390f35b6100c06101bd565b6100f16100ec3660046117bc565b6101e1565b6040516100cd91906118d0565b6100c06103d2565b6100c06103e1565b6100b661011c3660046117fe565b6103f8565b6100c0610487565b61013c61013736600461177c565b6104ab565b6040516100cd9190611914565b6100b6610157366004611762565b610668565b60005464010000000090046001600160a01b031633146101975760405162461bcd60e51b815260040161018e90611974565b60405180910390fd5b6101a0826106f6565b6101aa8282610733565b5050565b6002546001600160a01b031681565b7f000000000000000000000000000000000000000000000000000000000000000081565b600b546060906001600160a01b0316331461020e5760405162461bcd60e51b815260040161018e9061193d565b6002600a5414156102315760405162461bcd60e51b815260040161018e906119d5565b6002600a5560008267ffffffffffffffff8111801561024f57600080fd5b50604051908082528060200260200182016040528015610279578160200160208202803683370190505b50905060005b838110156103c55780156102f75784846001830381811061029c57fe5b90506020020160208101906102b191906117e4565b61ffff168585838181106102c157fe5b90506020020160208101906102d691906117e4565b61ffff16116102f75760405162461bcd60e51b815260040161018e906119a9565b600085858381811061030557fe5b905060200201602081019061031a91906117e4565b9050610325816106f6565b61ffff81166000908152600c602052604081205461034290610796565b9050806103505750506103bd565b600061036160008461ffff166107b4565b5050509050818113610375575050506103bd565b60006103848461ffff16610860565b9050828203610394858383610879565b8787815181106103a057fe5b6020026020010181815250506103b78584836108d2565b50505050505b60010161027f565b506001600a559392505050565b6001546001600160a01b031681565b60005464010000000090046001600160a01b031681565b60005464010000000090046001600160a01b0316331461042a5760405162461bcd60e51b815260040161018e90611974565b610433826106f6565b61ffff82166000908152600c602052604090819020829055517ffd37f6bc518c96b848c133a7d44a5a9b5acea171be7dc45e363f153347ed76419061047b9084908490611a2a565b60405180910390a15050565b7f000000000000000000000000000000000000000000000000000000000000000081565b600b546000906001600160a01b031633146104d85760405162461bcd60e51b815260040161018e9061193d565b6002600a5414156104fb5760405162461bcd60e51b815260040161018e906119d5565b6002600a5560405162e1ed9760e51b81526001600160a01b037f00000000000000000000000000000000000000000000000000000000000000001690631c3db2e09061054f90309087908790600401611853565b600060405180830381600087803b15801561056957600080fd5b505af115801561057d573d6000803e3d6000fd5b50506040516370a0823160e01b8152600092506001600160a01b037f00000000000000000000000000000000000000000000000000000000000000001691506370a08231906105d090309060040161183f565b60206040518083038186803b1580156105e857600080fd5b505afa1580156105fc573d6000803e3d6000fd5b505050506040513d601f19601f820116820180604052508101906106209190611827565b9050801561065c5761065c6001600160a01b037f0000000000000000000000000000000000000000000000000000000000000000163383610934565b6001600a559392505050565b60005464010000000090046001600160a01b0316331461069a5760405162461bcd60e51b815260040161018e90611974565b600b546040516001600160a01b038084169216907ff92cfddd8d7ab2f6e4fd488959c76c8033aaaa6dad691a0cbd1fc68f194b3d0c90600090a3600b80546001600160a01b0319166001600160a01b0392909216919091179055565b8061ffff166000108015610714575060005461ffff90811690821611155b6107305760405162461bcd60e51b815260040161018e906119fd565b50565b600081121561074157600080fd5b61075660008361ffff1683600080600061098b565b8161ffff167fd3625f7b5926828151efe19f7ae655488287357d99ebe67e5fb20522ca739c0b8260405161078a9190611914565b60405180910390a25050565b60006001600160ff1b038211156107ac57600080fd5b50805b919050565b60008060008060006107c4610adb565b6001600160a01b0388166000908152602082815260408083208a84529091529020805469ffffffffffffffffffff81169650600160501b900463ffffffff169450909150831561083057805461082990600160701b900466ffffffffffffff16610ae8565b9250610845565b8054600160701b900466ffffffffffffff1692505b54600160a81b9004600a90810b900b97939650919450925050565b6108686116a3565b610873826000610af6565b92915050565b6000806108868484610ba5565b600b549091506000906108c6906108c1906108bc9061ffff8a16906001600160a01b03166108b387610be3565b8a929190610bf2565b610c92565b610be3565b925050505b9392505050565b6108dc8282610ca0565b91506108f360008461ffff1684600080600061098b565b8261ffff167f7c5e8932dd97cea84f9ab339dad12a29a4cd81e67e7d892663aa03a3f0832b73826040516109279190611914565b60405180910390a2505050565b604080516001600160a01b038416602482015260448082018490528251808303909101815260649091019091526020810180516001600160e01b031663a9059cbb60e01b179052610986908490610cbc565b505050565b6000610995610adb565b6001600160a01b0388166000908152602082815260408083208a845290915290209091506a7fffffffffffffffffffff1986128015906109e057506a7fffffffffffffffffffff8613155b6109e957600080fd5b60008512158015610a04575069ffffffffffffffffffff8513155b610a0d57600080fd5b83610a4d5766ffffffffffffff831115610a2657600080fd5b805466ffffffffffffff60701b1916600160701b66ffffffffffffff851602178155610a67565b8054600160501b900463ffffffff168414610a6757600080fd5b8054600a9690960b6affffffffffffffffffffff16600160a81b026001600160a81b0369ffffffffffffffffffff90961669ffffffffffffffffffff1963ffffffff909616600160501b0263ffffffff60501b19909816979097179490941695909517939093169190911790925550505050565b6000806108736006610d6d565b600881901c60ff9091161b90565b610afe6116a3565b6000610b08610d86565b6000858152602082815260408083208715158452825291829020825160a08101845281546001600160a01b038116825260ff600160a01b82048116151594830194909452600160b01b81048416600a0a9482019490945293945092916060830191600160a81b909104166005811115610b7d57fe5b81529154600160b81b900468ffffffffffffffffff1660209092019190915291505092915050565b60006305f5e10083604001511415610bbe575080610873565b6108cb6305f5e100610bdd856040015185610d9390919063ffffffff16565b90610de1565b6000808212156107ac57600080fd5b600080600286606001516005811115610c0757fe5b1415610c1f57610c18868585610e12565b9050610c7c565b6000610c2a86610ed9565b9050600587606001516005811115610c3e57fe5b1415610c5657610c4f818686610eec565b9150610c7a565b600187606001516005811115610c6857fe5b141561009e57610c4f87828787610f9d565b505b610c886108bc82610796565b9695505050505050565b600061087360001983610d93565b6000610cac838361109b565b9050600081121561087357600080fd5b6000610d11826040518060400160405280602081526020017f5361666545524332303a206c6f772d6c6576656c2063616c6c206661696c6564815250856001600160a01b03166110b19092919063ffffffff16565b80519091501561098657808060200190516020811015610d3057600080fd5b50516109865760405162461bcd60e51b815260040180806020018281038252602a815260200180611a65602a913960400191505060405180910390fd5b6000620f424082601a811115610d7f57fe5b0192915050565b6000806108736007610d6d565b818102600019831415610dc357811580610db5575082828281610db257fe5b05145b610dbe57600080fd5b610873565b821580610dd8575081838281610dd557fe5b05145b61087357600080fd5b600081600019148015610df75750600160ff1b83145b15610e0157600080fd5b818381610e0a57fe5b059392505050565b825160405163db006a7560e01b8152600091479183916001600160a01b03169063db006a7590610e46908790600401611914565b602060405180830381600087803b158015610e6057600080fd5b505af1158015610e74573d6000803e3d6000fd5b505050506040513d601f19601f82011682018060405250810190610e989190611827565b90508015610eb85760405162461bcd60e51b815260040161018e9061191d565b47610ec381846110c8565b9350610ecf8685611125565b5050509392505050565b610ee16116a3565b610873826001610af6565b6000610f076108c18560000151610f0285610796565b61115b565b9050610f116111ea565b548451604051631a4ca37b60e21b81526001600160a01b03909216916369328dec91610f4391859088906004016118ad565b602060405180830381600087803b158015610f5d57600080fd5b505af1158015610f71573d6000803e3d6000fd5b505050506040513d601f19601f82011682018060405250810190610f959190611827565b509392505050565b82516000908190610fb690306370a0823160e01b6111f7565b9050600086600001516001600160a01b031663db006a75856040518263ffffffff1660e01b8152600401610fea9190611914565b602060405180830381600087803b15801561100457600080fd5b505af1158015611018573d6000803e3d6000fd5b505050506040513d601f19601f8201168201806040525081019061103c9190611827565b9050801561105c5760405162461bcd60e51b815260040161018e9061191d565b855160009061107390306370a0823160e01b6111f7565b905061107f81846110c8565b935061109087600001518786611309565b505050949350505050565b8082038281131560008312151461087357600080fd5b60606110c08484600085611380565b949350505050565b60008282111561111f576040805162461bcd60e51b815260206004820152601e60248201527f536166654d6174683a207375627472616374696f6e206f766572666c6f770000604482015290519081900360640190fd5b50900390565b6040516001600160a01b0383169082156108fc029083906000818181858888f19350505050158015610986573d6000803e3d6000fd5b60008161116a57506000610873565b6000611175846114db565b905060006111828461156b565b9050816b019d971e4fe8401e74000001600160ff1b038161119f57fe5b058113156111ac57600080fd5b6b033b2e3c9fd0803ce80000006b019d971e4fe8401e740000008383020105600085136111e1576111dc81610c92565b610c88565b95945050505050565b6000806108736013610d6d565b604080516001600160a01b0384811660248084019190915283518084039091018152604490920183526020820180516001600160e01b03166001600160e01b0319861617815292518251600094859485948a16939092909182918083835b602083106112745780518252601f199092019160209182019101611255565b6001836020036101000a038019825116818451168082178552505050505050905001915050600060405180830381855afa9150503d80600081146112d4576040519150601f19603f3d011682016040523d82523d6000602084013e6112d9565b606091505b5091509150816112e857600080fd5b8080602001905160208110156112fd57600080fd5b50519695505050505050565b826001600160a01b031663a9059cbb83836040518363ffffffff1660e01b815260040180836001600160a01b0316815260200182815260200192505050600060405180830381600087803b15801561136057600080fd5b505af1158015611374573d6000803e3d6000fd5b5050505061098661158c565b6060824710156113c15760405162461bcd60e51b8152600401808060200182810382526026815260200180611a3f6026913960400191505060405180910390fd5b6113ca856115f9565b61141b576040805162461bcd60e51b815260206004820152601d60248201527f416464726573733a2063616c6c20746f206e6f6e2d636f6e7472616374000000604482015290519081900360640190fd5b600080866001600160a01b031685876040518082805190602001908083835b602083106114595780518252601f19909201916020918201910161143a565b6001836020036101000a03801982511681845116808217855250505050505090500191505060006040518083038185875af1925050503d80600081146114bb576040519150601f19603f3d011682016040523d82523d6000602084013e6114c0565b606091505b50915091506114d08282866115ff565b979650505050505050565b60006108736114e86111ea565b5460405163d15e005360e01b81526001600160a01b039091169063d15e00539061151690869060040161183f565b60206040518083038186803b15801561152e57600080fd5b505afa158015611542573d6000803e3d6000fd5b505050506040513d601f19601f820116820180604052508101906115669190611827565b610796565b6000808212156115855761157e82610c92565b90506107af565b50806107af565b60006115966116d2565b3d80156115aa57602081146115b357600080fd5b600192506115be565b60206000833e815192505b50816101aa576040805162461bcd60e51b8152602060048201526005602482015264045524332360dc1b604482015290519081900360640190fd5b3b151590565b6060831561160e5750816108cb565b82511561161e5782518084602001fd5b8160405162461bcd60e51b81526004018080602001828103825283818151815260200191508051906020019080838360005b83811015611668578181015183820152602001611650565b50505050905090810190601f1680156116955780820380516001836020036101000a031916815260200191505b509250505060405180910390fd5b6040805160a0810182526000808252602082018190529181018290529060608201908152602001600081525090565b60405180602001604052806001906020820280368337509192915050565b80356001600160a01b03811681146107af57600080fd5b60008083601f840112611718578182fd5b50813567ffffffffffffffff81111561172f578182fd5b602083019150836020808302850101111561174957600080fd5b9250929050565b803561ffff811681146107af57600080fd5b600060208284031215611773578081fd5b6108cb826116f0565b6000806020838503121561178e578081fd5b823567ffffffffffffffff8111156117a4578182fd5b6117b085828601611707565b90969095509350505050565b600080602083850312156117ce578182fd5b823567ffffffffffffffff8111156117a4578283fd5b6000602082840312156117f5578081fd5b6108cb82611750565b60008060408385031215611810578182fd5b61181983611750565b946020939093013593505050565b600060208284031215611838578081fd5b5051919050565b6001600160a01b0391909116815260200190565b6001600160a01b03848116825260406020808401829052908301849052600091859160608501845b878110156118a0578361188d866116f0565b168252938201939082019060010161187b565b5098975050505050505050565b6001600160a01b0393841681526020810192909252909116604082015260600190565b6020808252825182820181905260009190848201906040850190845b81811015611908578351835292840192918401916001016118ec565b50909695505050505050565b90815260200190565b60208082526006908201526552656465656d60d01b604082015260600190565b60208082526019908201527f5472656173757279206d616e6167657220726571756972656400000000000000604082015260600190565b6020808252818101527f4f776e61626c653a2063616c6c6572206973206e6f7420746865206f776e6572604082015260600190565b60208082526012908201527112511cc81b5d5cdd081899481cdbdc9d195960721b604082015260600190565b6020808252600e908201526d1499595b9d1c985b9d0818d85b1b60921b604082015260600190565b602080825260139082015272125b9d985b1a590818dd5c9c995b98de481a59606a1b604082015260600190565b61ffff92909216825260208201526040019056fe416464726573733a20696e73756666696369656e742062616c616e636520666f722063616c6c5361666545524332303a204552433230206f7065726174696f6e20646964206e6f742073756363656564a26469706673582212203bef722f5a28d077c33575f63c33c312938124061c3f621d85c56509b0c3e28964736f6c63430007060033","bytecodeSha1":"d7cb3dd6f3f488e2c50f58e883ed74f3e930f55d","compiler":{"evm_version":"istanbul","optimizer":{"enabled":true,"runs":200},"version":"0.7.6+commit.7338295f"},"contractName":"TreasuryAction","language":"Solidity","natspec":{"kind":"dev","methods":{"claimCOMPAndTransfer(address[])":{"notice":"Claims COMP incentives earned and transfers to the treasury manager contract.","params":{"cTokens":"a list of cTokens to claim incentives for"},"returns":{"_0":"the balance of COMP claimed"}},"setReserveBuffer(uint16,uint256)":{"notice":"Sets the reserve buffer. This is the amount of reserve balance to keep denominated in 1e8 The reserve cannot be harvested if it's below this amount. This portion of the reserve will remain on the contract to act as a buffer against potential insolvency.","params":{"bufferAmount":"reserve buffer amount to keep in internal token precision (1e8)","currencyId":"refers to the currency of the reserve"}},"setReserveCashBalance(uint16,int256)":{"notice":"This is used in the case of insolvency. It allows the owner to re-align the reserve with its correct balance.","params":{"currencyId":"refers to the currency of the reserve","newBalance":"new reserve balance to set, must be less than the current balance"}},"setTreasuryManager(address)":{"notice":"Sets the new treasury manager contract"},"transferReserveToTreasury(uint16[])":{"notice":"Transfers some amount of reserve assets to the treasury manager contract to be invested into the sNOTE pool.","params":{"currencies":"an array of currencies to transfer from Notional"}}},"version":1},"opcodes":"PUSH1 0x80 PUSH1 0x40 MSTORE CALLVALUE DUP1 ISZERO PUSH2 0x10 JUMPI PUSH1 0x0 DUP1 REVERT JUMPDEST POP PUSH1 0x4 CALLDATASIZE LT PUSH2 0x9E JUMPI PUSH1 0x0 CALLDATALOAD PUSH1 0xE0 SHR DUP1 PUSH4 0x8DA5CB5B GT PUSH2 0x66 JUMPI DUP1 PUSH4 0x8DA5CB5B EQ PUSH2 0x106 JUMPI DUP1 PUSH4 0x8E73B23C EQ PUSH2 0x10E JUMPI DUP1 PUSH4 0xB71501BC EQ PUSH2 0x121 JUMPI DUP1 PUSH4 0xFADB7FEE EQ PUSH2 0x129 JUMPI DUP1 PUSH4 0xFE47A9F2 EQ PUSH2 0x149 JUMPI PUSH2 0x9E JUMP JUMPDEST DUP1 PUSH4 0x12ADC47B EQ PUSH2 0xA3 JUMPI DUP1 PUSH4 0x24A3D622 EQ PUSH2 0xB8 JUMPI DUP1 PUSH4 0x5F82C67E EQ PUSH2 0xD6 JUMPI DUP1 PUSH4 0x6D7A00EB EQ PUSH2 0xDE JUMPI DUP1 PUSH4 0x82463367 EQ PUSH2 0xFE JUMPI JUMPDEST PUSH1 0x0 DUP1 REVERT JUMPDEST PUSH2 0xB6 PUSH2 0xB1 CALLDATASIZE PUSH1 0x4 PUSH2 0x17FE JUMP JUMPDEST PUSH2 0x15C JUMP JUMPDEST STOP JUMPDEST PUSH2 0xC0 PUSH2 0x1AE JUMP JUMPDEST PUSH1 0x40 MLOAD PUSH2 0xCD SWAP2 SWAP1 PUSH2 0x183F JUMP JUMPDEST PUSH1 0x40 MLOAD DUP1 SWAP2 SUB SWAP1 RETURN JUMPDEST PUSH2 0xC0 PUSH2 0x1BD JUMP JUMPDEST PUSH2 0xF1 PUSH2 0xEC CALLDATASIZE PUSH1 0x4 PUSH2 0x17BC JUMP JUMPDEST PUSH2 0x1E1 JUMP JUMPDEST PUSH1 0x40 MLOAD PUSH2 0xCD SWAP2 SWAP1 PUSH2 0x18D0 JUMP JUMPDEST PUSH2 0xC0 PUSH2 0x3D2 JUMP JUMPDEST PUSH2 0xC0 PUSH2 0x3E1 JUMP JUMPDEST PUSH2 0xB6 PUSH2 0x11C CALLDATASIZE PUSH1 0x4 PUSH2 0x17FE JUMP JUMPDEST PUSH2 0x3F8 JUMP JUMPDEST PUSH2 0xC0 PUSH2 0x487 JUMP JUMPDEST PUSH2 0x13C PUSH2 0x137 CALLDATASIZE PUSH1 0x4 PUSH2 0x177C JUMP JUMPDEST PUSH2 0x4AB JUMP JUMPDEST PUSH1 0x40 MLOAD PUSH2 0xCD SWAP2 SWAP1 PUSH2 0x1914 JUMP JUMPDEST PUSH2 0xB6 PUSH2 0x157 CALLDATASIZE PUSH1 0x4 PUSH2 0x1762 JUMP JUMPDEST PUSH2 0x668 JUMP JUMPDEST PUSH1 0x0 SLOAD PUSH5 0x100000000 SWAP1 DIV PUSH1 0x1 PUSH1 0x1 PUSH1 0xA0 SHL SUB AND CALLER EQ PUSH2 0x197 JUMPI PUSH1 0x40 MLOAD PUSH3 0x461BCD PUSH1 0xE5 SHL DUP2 MSTORE PUSH1 0x4 ADD PUSH2 0x18E SWAP1 PUSH2 0x1974 JUMP JUMPDEST PUSH1 0x40 MLOAD DUP1 SWAP2 SUB SWAP1 REVERT JUMPDEST PUSH2 0x1A0 DUP3 PUSH2 0x6F6 JUMP JUMPDEST PUSH2 0x1AA DUP3 DUP3 PUSH2 0x733 JUMP JUMPDEST POP POP JUMP JUMPDEST PUSH1 0x2 SLOAD PUSH1 0x1 PUSH1 0x1 PUSH1 0xA0 SHL SUB AND DUP2 JUMP JUMPDEST PUSH32 0x0 DUP2 JUMP JUMPDEST PUSH1 0xB SLOAD PUSH1 0x60 SWAP1 PUSH1 0x1 PUSH1 0x1 PUSH1 0xA0 SHL SUB AND CALLER EQ PUSH2 0x20E JUMPI PUSH1 0x40 MLOAD PUSH3 0x461BCD PUSH1 0xE5 SHL DUP2 MSTORE PUSH1 0x4 ADD PUSH2 0x18E SWAP1 PUSH2 0x193D JUMP JUMPDEST PUSH1 0x2 PUSH1 0xA SLOAD EQ ISZERO PUSH2 0x231 JUMPI PUSH1 0x40 MLOAD PUSH3 0x461BCD PUSH1 0xE5 SHL DUP2 MSTORE PUSH1 0x4 ADD PUSH2 0x18E SWAP1 PUSH2 0x19D5 JUMP JUMPDEST PUSH1 0x2 PUSH1 0xA SSTORE PUSH1 0x0 DUP3 PUSH8 0xFFFFFFFFFFFFFFFF DUP2 GT DUP1 ISZERO PUSH2 0x24F JUMPI PUSH1 0x0 DUP1 REVERT JUMPDEST POP PUSH1 0x40 MLOAD SWAP1 DUP1 DUP3 MSTORE DUP1 PUSH1 0x20 MUL PUSH1 0x20 ADD DUP3 ADD PUSH1 0x40 MSTORE DUP1 ISZERO PUSH2 0x279 JUMPI DUP2 PUSH1 0x20 ADD PUSH1 0x20 DUP3 MUL DUP1 CALLDATASIZE DUP4 CALLDATACOPY ADD SWAP1 POP JUMPDEST POP SWAP1 POP PUSH1 0x0 JUMPDEST DUP4 DUP2 LT ISZERO PUSH2 0x3C5 JUMPI DUP1 ISZERO PUSH2 0x2F7 JUMPI DUP5 DUP5 PUSH1 0x1 DUP4 SUB DUP2 DUP2 LT PUSH2 0x29C JUMPI INVALID JUMPDEST SWAP1 POP PUSH1 0x20 MUL ADD PUSH1 0x20 DUP2 ADD SWAP1 PUSH2 0x2B1 SWAP2 SWAP1 PUSH2 0x17E4 JUMP JUMPDEST PUSH2 0xFFFF AND DUP6 DUP6 DUP4 DUP2 DUP2 LT PUSH2 0x2C1 JUMPI INVALID JUMPDEST SWAP1 POP PUSH1 0x20 MUL ADD PUSH1 0x20 DUP2 ADD SWAP1 PUSH2 0x2D6 SWAP2 SWAP1 PUSH2 0x17E4 JUMP JUMPDEST PUSH2 0xFFFF AND GT PUSH2 0x2F7 JUMPI PUSH1 0x40 MLOAD PUSH3 0x461BCD PUSH1 0xE5 SHL DUP2 MSTORE PUSH1 0x4 ADD PUSH2 0x18E SWAP1 PUSH2 0x19A9 JUMP JUMPDEST PUSH1 0x0 DUP6 DUP6 DUP4 DUP2 DUP2 LT PUSH2 0x305 JUMPI INVALID JUMPDEST SWAP1 POP PUSH1 0x20 MUL ADD PUSH1 0x20 DUP2 ADD SWAP1 PUSH2 0x31A SWAP2 SWAP1 PUSH2 0x17E4 JUMP JUMPDEST SWAP1 POP PUSH2 0x325 DUP2 PUSH2 0x6F6 JUMP JUMPDEST PUSH2 0xFFFF DUP2 AND PUSH1 0x0 SWAP1 DUP2 MSTORE PUSH1 0xC PUSH1 0x20 MSTORE PUSH1 0x40 DUP2 KECCAK256 SLOAD PUSH2 0x342 SWAP1 PUSH2 0x796 JUMP JUMPDEST SWAP1 POP DUP1 PUSH2 0x350 JUMPI POP POP PUSH2 0x3BD JUMP JUMPDEST PUSH1 0x0 PUSH2 0x361 PUSH1 0x0 DUP5 PUSH2 0xFFFF AND PUSH2 0x7B4 JUMP JUMPDEST POP POP POP SWAP1 POP DUP2 DUP2 SGT PUSH2 0x375 JUMPI POP POP POP PUSH2 0x3BD JUMP JUMPDEST PUSH1 0x0 PUSH2 0x384 DUP5 PUSH2 0xFFFF AND PUSH2 0x860 JUMP JUMPDEST SWAP1 POP DUP3 DUP3 SUB PUSH2 0x394 DUP6 DUP4 DUP4 PUSH2 0x879 JUMP JUMPDEST DUP8 DUP8 DUP2 MLOAD DUP2 LT PUSH2 0x3A0 JUMPI INVALID JUMPDEST PUSH1 0x20 MUL PUSH1 0x20 ADD ADD DUP2 DUP2 MSTORE POP POP PUSH2 0x3B7 DUP6 DUP5 DUP4 PUSH2 0x8D2 JUMP JUMPDEST POP POP POP POP POP JUMPDEST PUSH1 0x1 ADD PUSH2 0x27F JUMP JUMPDEST POP PUSH1 0x1 PUSH1 0xA SSTORE SWAP4 SWAP3 POP POP POP JUMP JUMPDEST PUSH1 0x1 SLOAD PUSH1 0x1 PUSH1 0x1 PUSH1 0xA0 SHL SUB AND DUP2 JUMP JUMPDEST PUSH1 0x0 SLOAD PUSH5 0x100000000 SWAP1 DIV PUSH1 0x1 PUSH1 0x1 PUSH1 0xA0 SHL SUB AND DUP2 JUMP JUMPDEST PUSH1 0x0 SLOAD PUSH5 0x100000000 SWAP1 DIV PUSH1 0x1 PUSH1 0x1 PUSH1 0xA0 SHL SUB AND CALLER EQ PUSH2 0x42A JUMPI PUSH1 0x40 MLOAD PUSH3 0x461BCD PUSH1 0xE5 SHL DUP2 MSTORE PUSH1 0x4 ADD PUSH2 0x18E SWAP1 PUSH2 0x1974 JUMP JUMPDEST PUSH2 0x433 DUP3 PUSH2 0x6F6 JUMP JUMPDEST PUSH2 0xFFFF DUP3 AND PUSH1 0x0 SWAP1 DUP2 MSTORE PUSH1 0xC PUSH1 0x20 MSTORE PUSH1 0x40 SWAP1 DUP2 SWAP1 KECCAK256 DUP3 SWAP1 SSTORE MLOAD PUSH32 0xFD37F6BC518C96B848C133A7D44A5A9B5ACEA171BE7DC45E363F153347ED7641 SWAP1 PUSH2 0x47B SWAP1 DUP5 SWAP1 DUP5 SWAP1 PUSH2 0x1A2A JUMP JUMPDEST PUSH1 0x40 MLOAD DUP1 SWAP2 SUB SWAP1 LOG1 POP POP JUMP JUMPDEST PUSH32 0x0 DUP2 JUMP JUMPDEST PUSH1 0xB SLOAD PUSH1 0x0 SWAP1 PUSH1 0x1 PUSH1 0x1 PUSH1 0xA0 SHL SUB AND CALLER EQ PUSH2 0x4D8 JUMPI PUSH1 0x40 MLOAD PUSH3 0x461BCD PUSH1 0xE5 SHL DUP2 MSTORE PUSH1 0x4 ADD PUSH2 0x18E SWAP1 PUSH2 0x193D JUMP JUMPDEST PUSH1 0x2 PUSH1 0xA SLOAD EQ ISZERO PUSH2 0x4FB JUMPI PUSH1 0x40 MLOAD PUSH3 0x461BCD PUSH1 0xE5 SHL DUP2 MSTORE PUSH1 0x4 ADD PUSH2 0x18E SWAP1 PUSH2 0x19D5 JUMP JUMPDEST PUSH1 0x2 PUSH1 0xA SSTORE PUSH1 0x40 MLOAD PUSH3 0xE1ED97 PUSH1 0xE5 SHL DUP2 MSTORE PUSH1 0x1 PUSH1 0x1 PUSH1 0xA0 SHL SUB PUSH32 0x0 AND SWAP1 PUSH4 0x1C3DB2E0 SWAP1 PUSH2 0x54F SWAP1 ADDRESS SWAP1 DUP8 SWAP1 DUP8 SWAP1 PUSH1 0x4 ADD PUSH2 0x1853 JUMP JUMPDEST PUSH1 0x0 PUSH1 0x40 MLOAD DUP1 DUP4 SUB DUP2 PUSH1 0x0 DUP8 DUP1 EXTCODESIZE ISZERO DUP1 ISZERO PUSH2 0x569 JUMPI PUSH1 0x0 DUP1 REVERT JUMPDEST POP GAS CALL ISZERO DUP1 ISZERO PUSH2 0x57D JUMPI RETURNDATASIZE PUSH1 0x0 DUP1 RETURNDATACOPY RETURNDATASIZE PUSH1 0x0 REVERT JUMPDEST POP POP PUSH1 0x40 MLOAD PUSH4 0x70A08231 PUSH1 0xE0 SHL DUP2 MSTORE PUSH1 0x0 SWAP3 POP PUSH1 0x1 PUSH1 0x1 PUSH1 0xA0 SHL SUB PUSH32 0x0 AND SWAP2 POP PUSH4 0x70A08231 SWAP1 PUSH2 0x5D0 SWAP1 ADDRESS SWAP1 PUSH1 0x4 ADD PUSH2 0x183F JUMP JUMPDEST PUSH1 0x20 PUSH1 0x40 MLOAD DUP1 DUP4 SUB DUP2 DUP7 DUP1 EXTCODESIZE ISZERO DUP1 ISZERO PUSH2 0x5E8 JUMPI PUSH1 0x0 DUP1 REVERT JUMPDEST POP GAS STATICCALL ISZERO DUP1 ISZERO PUSH2 0x5FC JUMPI RETURNDATASIZE PUSH1 0x0 DUP1 RETURNDATACOPY RETURNDATASIZE PUSH1 0x0 REVERT JUMPDEST POP POP POP POP PUSH1 0x40 MLOAD RETURNDATASIZE PUSH1 0x1F NOT PUSH1 0x1F DUP3 ADD AND DUP3 ADD DUP1 PUSH1 0x40 MSTORE POP DUP2 ADD SWAP1 PUSH2 0x620 SWAP2 SWAP1 PUSH2 0x1827 JUMP JUMPDEST SWAP1 POP DUP1 ISZERO PUSH2 0x65C JUMPI PUSH2 0x65C PUSH1 0x1 PUSH1 0x1 PUSH1 0xA0 SHL SUB PUSH32 0x0 AND CALLER DUP4 PUSH2 0x934 JUMP JUMPDEST PUSH1 0x1 PUSH1 0xA SSTORE SWAP4 SWAP3 POP POP POP JUMP JUMPDEST PUSH1 0x0 SLOAD PUSH5 0x100000000 SWAP1 DIV PUSH1 0x1 PUSH1 0x1 PUSH1 0xA0 SHL SUB AND CALLER EQ PUSH2 0x69A JUMPI PUSH1 0x40 MLOAD PUSH3 0x461BCD PUSH1 0xE5 SHL DUP2 MSTORE PUSH1 0x4 ADD PUSH2 0x18E SWAP1 PUSH2 0x1974 JUMP JUMPDEST PUSH1 0xB SLOAD PUSH1 0x40 MLOAD PUSH1 0x1 PUSH1 0x1 PUSH1 0xA0 SHL SUB DUP1 DUP5 AND SWAP3 AND SWAP1 PUSH32 0xF92CFDDD8D7AB2F6E4FD488959C76C8033AAAA6DAD691A0CBD1FC68F194B3D0C SWAP1 PUSH1 0x0 SWAP1 LOG3 PUSH1 0xB DUP1 SLOAD PUSH1 0x1 PUSH1 0x1 PUSH1 0xA0 SHL SUB NOT AND PUSH1 0x1 PUSH1 0x1 PUSH1 0xA0 SHL SUB SWAP3 SWAP1 SWAP3 AND SWAP2 SWAP1 SWAP2 OR SWAP1 SSTORE JUMP JUMPDEST DUP1 PUSH2 0xFFFF AND PUSH1 0x0 LT DUP1 ISZERO PUSH2 0x714 JUMPI POP PUSH1 0x0 SLOAD PUSH2 0xFFFF SWAP1 DUP2 AND SWAP1 DUP3 AND GT ISZERO JUMPDEST PUSH2 0x730 JUMPI PUSH1 0x40 MLOAD PUSH3 0x461BCD PUSH1 0xE5 SHL DUP2 MSTORE PUSH1 0x4 ADD PUSH2 0x18E SWAP1 PUSH2 0x19FD JUMP JUMPDEST POP JUMP JUMPDEST PUSH1 0x0 DUP2 SLT ISZERO PUSH2 0x741 JUMPI PUSH1 0x0 DUP1 REVERT JUMPDEST PUSH2 0x756 PUSH1 0x0 DUP4 PUSH2 0xFFFF AND DUP4 PUSH1 0x0 DUP1 PUSH1 0x0 PUSH2 0x98B JUMP JUMPDEST DUP2 PUSH2 0xFFFF AND PUSH32 0xD3625F7B5926828151EFE19F7AE655488287357D99EBE67E5FB20522CA739C0B DUP3 PUSH1 0x40 MLOAD PUSH2 0x78A SWAP2 SWAP1 PUSH2 0x1914 JUMP JUMPDEST PUSH1 0x40 MLOAD DUP1 SWAP2 SUB SWAP1 LOG2 POP POP JUMP JUMPDEST PUSH1 0x0 PUSH1 0x1 PUSH1 0x1 PUSH1 0xFF SHL SUB DUP3 GT ISZERO PUSH2 0x7AC JUMPI PUSH1 0x0 DUP1 REVERT JUMPDEST POP DUP1 JUMPDEST SWAP2 SWAP1 POP JUMP JUMPDEST PUSH1 0x0 DUP1 PUSH1 0x0 DUP1 PUSH1 0x0 PUSH2 0x7C4 PUSH2 0xADB JUMP JUMPDEST PUSH1 0x1 PUSH1 0x1 PUSH1 0xA0 SHL SUB DUP9 AND PUSH1 0x0 SWAP1 DUP2 MSTORE PUSH1 0x20 DUP3 DUP2 MSTORE PUSH1 0x40 DUP1 DUP4 KECCAK256 DUP11 DUP5 MSTORE SWAP1 SWAP2 MSTORE SWAP1 KECCAK256 DUP1 SLOAD PUSH10 0xFFFFFFFFFFFFFFFFFFFF DUP2 AND SWAP7 POP PUSH1 0x1 PUSH1 0x50 SHL SWAP1 DIV PUSH4 0xFFFFFFFF AND SWAP5 POP SWAP1 SWAP2 POP DUP4 ISZERO PUSH2 0x830 JUMPI DUP1 SLOAD PUSH2 0x829 SWAP1 PUSH1 0x1 PUSH1 0x70 SHL SWAP1 DIV PUSH7 0xFFFFFFFFFFFFFF AND PUSH2 0xAE8 JUMP JUMPDEST SWAP3 POP PUSH2 0x845 JUMP JUMPDEST DUP1 SLOAD PUSH1 0x1 PUSH1 0x70 SHL SWAP1 DIV PUSH7 0xFFFFFFFFFFFFFF AND SWAP3 POP JUMPDEST SLOAD PUSH1 0x1 PUSH1 0xA8 SHL SWAP1 DIV PUSH1 0xA SWAP1 DUP2 SIGNEXTEND SWAP1 SIGNEXTEND SWAP8 SWAP4 SWAP7 POP SWAP2 SWAP5 POP SWAP3 POP POP JUMP JUMPDEST PUSH2 0x868 PUSH2 0x16A3 JUMP JUMPDEST PUSH2 0x873 DUP3 PUSH1 0x0 PUSH2 0xAF6 JUMP JUMPDEST SWAP3 SWAP2 POP POP JUMP JUMPDEST PUSH1 0x0 DUP1 PUSH2 0x886 DUP5 DUP5 PUSH2 0xBA5 JUMP JUMPDEST PUSH1 0xB SLOAD SWAP1 SWAP2 POP PUSH1 0x0 SWAP1 PUSH2 0x8C6 SWAP1 PUSH2 0x8C1 SWAP1 PUSH2 0x8BC SWAP1 PUSH2 0xFFFF DUP11 AND SWAP1 PUSH1 0x1 PUSH1 0x1 PUSH1 0xA0 SHL SUB AND PUSH2 0x8B3 DUP8 PUSH2 0xBE3 JUMP JUMPDEST DUP11 SWAP3 SWAP2 SWAP1 PUSH2 0xBF2 JUMP JUMPDEST PUSH2 0xC92 JUMP JUMPDEST PUSH2 0xBE3 JUMP JUMPDEST SWAP3 POP POP POP JUMPDEST SWAP4 SWAP3 POP POP POP JUMP JUMPDEST PUSH2 0x8DC DUP3 DUP3 PUSH2 0xCA0 JUMP JUMPDEST SWAP2 POP PUSH2 0x8F3 PUSH1 0x0 DUP5 PUSH2 0xFFFF AND DUP5 PUSH1 0x0 DUP1 PUSH1 0x0 PUSH2 0x98B JUMP JUMPDEST DUP3 PUSH2 0xFFFF AND PUSH32 0x7C5E8932DD97CEA84F9AB339DAD12A29A4CD81E67E7D892663AA03A3F0832B73 DUP3 PUSH1 0x40 MLOAD PUSH2 0x927 SWAP2 SWAP1 PUSH2 0x1914 JUMP JUMPDEST PUSH1 0x40 MLOAD DUP1 SWAP2 SUB SWAP1 LOG2 POP POP POP JUMP JUMPDEST PUSH1 0x40 DUP1 MLOAD PUSH1 0x1 PUSH1 0x1 PUSH1 0xA0 SHL SUB DUP5 AND PUSH1 0x24 DUP3 ADD MSTORE PUSH1 0x44 DUP1 DUP3 ADD DUP5 SWAP1 MSTORE DUP3 MLOAD DUP1 DUP4 SUB SWAP1 SWAP2 ADD DUP2 MSTORE PUSH1 0x64 SWAP1 SWAP2 ADD SWAP1 SWAP2 MSTORE PUSH1 0x20 DUP2 ADD DUP1 MLOAD PUSH1 0x1 PUSH1 0x1 PUSH1 0xE0 SHL SUB AND PUSH4 0xA9059CBB PUSH1 0xE0 SHL OR SWAP1 MSTORE PUSH2 0x986 SWAP1 DUP5 SWAP1 PUSH2 0xCBC JUMP JUMPDEST POP POP POP JUMP JUMPDEST PUSH1 0x0 PUSH2 0x995 PUSH2 0xADB JUMP JUMPDEST PUSH1 0x1 PUSH1 0x1 PUSH1 0xA0 SHL SUB DUP9 AND PUSH1 0x0 SWAP1 DUP2 MSTORE PUSH1 0x20 DUP3 DUP2 MSTORE PUSH1 0x40 DUP1 DUP4 KECCAK256 DUP11 DUP5 MSTORE SWAP1 SWAP2 MSTORE SWAP1 KECCAK256 SWAP1 SWAP2 POP PUSH11 0x7FFFFFFFFFFFFFFFFFFFFF NOT DUP7 SLT DUP1 ISZERO SWAP1 PUSH2 0x9E0 JUMPI POP PUSH11 0x7FFFFFFFFFFFFFFFFFFFFF DUP7 SGT ISZERO JUMPDEST PUSH2 0x9E9 JUMPI PUSH1 0x0 DUP1 REVERT JUMPDEST PUSH1 0x0 DUP6 SLT ISZERO DUP1 ISZERO PUSH2 0xA04 JUMPI POP PUSH10 0xFFFFFFFFFFFFFFFFFFFF DUP6 SGT ISZERO JUMPDEST PUSH2 0xA0D JUMPI PUSH1 0x0 DUP1 REVERT JUMPDEST DUP4 PUSH2 0xA4D JUMPI PUSH7 0xFFFFFFFFFFFFFF DUP4 GT ISZERO PUSH2 0xA26 JUMPI PUSH1 0x0 DUP1 REVERT JUMPDEST DUP1 SLOAD PUSH7 0xFFFFFFFFFFFFFF PUSH1 0x70 SHL NOT AND PUSH1 0x1 PUSH1 0x70 SHL PUSH7 0xFFFFFFFFFFFFFF DUP6 AND MUL OR DUP2 SSTORE PUSH2 0xA67 JUMP JUMPDEST DUP1 SLOAD PUSH1 0x1 PUSH1 0x50 SHL SWAP1 DIV PUSH4 0xFFFFFFFF AND DUP5 EQ PUSH2 0xA67 JUMPI PUSH1 0x0 DUP1 REVERT JUMPDEST DUP1 SLOAD PUSH1 0xA SWAP7 SWAP1 SWAP7 SIGNEXTEND PUSH11 0xFFFFFFFFFFFFFFFFFFFFFF AND PUSH1 0x1 PUSH1 0xA8 SHL MUL PUSH1 0x1 PUSH1 0x1 PUSH1 0xA8 SHL SUB PUSH10 0xFFFFFFFFFFFFFFFFFFFF SWAP1 SWAP7 AND PUSH10 0xFFFFFFFFFFFFFFFFFFFF NOT PUSH4 0xFFFFFFFF SWAP1 SWAP7 AND PUSH1 0x1 PUSH1 0x50 SHL MUL PUSH4 0xFFFFFFFF PUSH1 0x50 SHL NOT SWAP1 SWAP9 AND SWAP8 SWAP1 SWAP8 OR SWAP5 SWAP1 SWAP5 AND SWAP6 SWAP1 SWAP6 OR SWAP4 SWAP1 SWAP4 AND SWAP2 SWAP1 SWAP2 OR SWAP1 SWAP3 SSTORE POP POP POP POP JUMP JUMPDEST PUSH1 0x0 DUP1 PUSH2 0x873 PUSH1 0x6 PUSH2 0xD6D JUMP JUMPDEST PUSH1 0x8 DUP2 SWAP1 SHR PUSH1 0xFF SWAP1 SWAP2 AND SHL SWAP1 JUMP JUMPDEST PUSH2 0xAFE PUSH2 0x16A3 JUMP JUMPDEST PUSH1 0x0 PUSH2 0xB08 PUSH2 0xD86 JUMP JUMPDEST PUSH1 0x0 DUP6 DUP2 MSTORE PUSH1 0x20 DUP3 DUP2 MSTORE PUSH1 0x40 DUP1 DUP4 KECCAK256 DUP8 ISZERO ISZERO DUP5 MSTORE DUP3 MSTORE SWAP2 DUP3 SWAP1 KECCAK256 DUP3 MLOAD PUSH1 0xA0 DUP2 ADD DUP5 MSTORE DUP2 SLOAD PUSH1 0x1 PUSH1 0x1 PUSH1 0xA0 SHL SUB DUP2 AND DUP3 MSTORE PUSH1 0xFF PUSH1 0x1 PUSH1 0xA0 SHL DUP3 DIV DUP2 AND ISZERO ISZERO SWAP5 DUP4 ADD SWAP5 SWAP1 SWAP5 MSTORE PUSH1 0x1 PUSH1 0xB0 SHL DUP2 DIV DUP5 AND PUSH1 0xA EXP SWAP5 DUP3 ADD SWAP5 SWAP1 SWAP5 MSTORE SWAP4 SWAP5 POP SWAP3 SWAP2 PUSH1 0x60 DUP4 ADD SWAP2 PUSH1 0x1 PUSH1 0xA8 SHL SWAP1 SWAP2 DIV AND PUSH1 0x5 DUP2 GT ISZERO PUSH2 0xB7D JUMPI INVALID JUMPDEST DUP2 MSTORE SWAP2 SLOAD PUSH1 0x1 PUSH1 0xB8 SHL SWAP1 DIV PUSH9 0xFFFFFFFFFFFFFFFFFF AND PUSH1 0x20 SWAP1 SWAP3 ADD SWAP2 SWAP1 SWAP2 MSTORE SWAP2 POP POP SWAP3 SWAP2 POP POP JUMP JUMPDEST PUSH1 0x0 PUSH4 0x5F5E100 DUP4 PUSH1 0x40 ADD MLOAD EQ ISZERO PUSH2 0xBBE JUMPI POP DUP1 PUSH2 0x873 JUMP JUMPDEST PUSH2 0x8CB PUSH4 0x5F5E100 PUSH2 0xBDD DUP6 PUSH1 0x40 ADD MLOAD DUP6 PUSH2 0xD93 SWAP1 SWAP2 SWAP1 PUSH4 0xFFFFFFFF AND JUMP JUMPDEST SWAP1 PUSH2 0xDE1 JUMP JUMPDEST PUSH1 0x0 DUP1 DUP3 SLT ISZERO PUSH2 0x7AC JUMPI PUSH1 0x0 DUP1 REVERT JUMPDEST PUSH1 0x0 DUP1 PUSH1 0x2 DUP7 PUSH1 0x60 ADD MLOAD PUSH1 0x5 DUP2 GT ISZERO PUSH2 0xC07 JUMPI INVALID JUMPDEST EQ ISZERO PUSH2 0xC1F JUMPI PUSH2 0xC18 DUP7 DUP6 DUP6 PUSH2 0xE12 JUMP JUMPDEST SWAP1 POP PUSH2 0xC7C JUMP JUMPDEST PUSH1 0x0 PUSH2 0xC2A DUP7 PUSH2 0xED9 JUMP JUMPDEST SWAP1 POP PUSH1 0x5 DUP8 PUSH1 0x60 ADD MLOAD PUSH1 0x5 DUP2 GT ISZERO PUSH2 0xC3E JUMPI INVALID JUMPDEST EQ ISZERO PUSH2 0xC56 JUMPI PUSH2 0xC4F DUP2 DUP7 DUP7 PUSH2 0xEEC JUMP JUMPDEST SWAP2 POP PUSH2 0xC7A JUMP JUMPDEST PUSH1 0x1 DUP8 PUSH1 0x60 ADD MLOAD PUSH1 0x5 DUP2 GT ISZERO PUSH2 0xC68 JUMPI INVALID JUMPDEST EQ ISZERO PUSH2 0x9E JUMPI PUSH2 0xC4F DUP8 DUP3 DUP8 DUP8 PUSH2 0xF9D JUMP JUMPDEST POP JUMPDEST PUSH2 0xC88 PUSH2 0x8BC DUP3 PUSH2 0x796 JUMP JUMPDEST SWAP7 SWAP6 POP POP POP POP POP POP JUMP JUMPDEST PUSH1 0x0 PUSH2 0x873 PUSH1 0x0 NOT DUP4 PUSH2 0xD93 JUMP JUMPDEST PUSH1 0x0 PUSH2 0xCAC DUP4 DUP4 PUSH2 0x109B JUMP JUMPDEST SWAP1 POP PUSH1 0x0 DUP2 SLT ISZERO PUSH2 0x873 JUMPI PUSH1 0x0 DUP1 REVERT JUMPDEST PUSH1 0x0 PUSH2 0xD11 DUP3 PUSH1 0x40 MLOAD DUP1 PUSH1 0x40 ADD PUSH1 0x40 MSTORE DUP1 PUSH1 0x20 DUP2 MSTORE PUSH1 0x20 ADD PUSH32 0x5361666545524332303A206C6F772D6C6576656C2063616C6C206661696C6564 DUP2 MSTORE POP DUP6 PUSH1 0x1 PUSH1 0x1 PUSH1 0xA0 SHL SUB AND PUSH2 0x10B1 SWAP1 SWAP3 SWAP2 SWAP1 PUSH4 0xFFFFFFFF AND JUMP JUMPDEST DUP1 MLOAD SWAP1 SWAP2 POP ISZERO PUSH2 0x986 JUMPI DUP1 DUP1 PUSH1 0x20 ADD SWAP1 MLOAD PUSH1 0x20 DUP2 LT ISZERO PUSH2 0xD30 JUMPI PUSH1 0x0 DUP1 REVERT JUMPDEST POP MLOAD PUSH2 0x986 JUMPI PUSH1 0x40 MLOAD PUSH3 0x461BCD PUSH1 0xE5 SHL DUP2 MSTORE PUSH1 0x4 ADD DUP1 DUP1 PUSH1 0x20 ADD DUP3 DUP2 SUB DUP3 MSTORE PUSH1 0x2A DUP2 MSTORE PUSH1 0x20 ADD DUP1 PUSH2 0x1A65 PUSH1 0x2A SWAP2 CODECOPY PUSH1 0x40 ADD SWAP2 POP POP PUSH1 0x40 MLOAD DUP1 SWAP2 SUB SWAP1 REVERT JUMPDEST PUSH1 0x0 PUSH3 0xF4240 DUP3 PUSH1 0x1A DUP2 GT ISZERO PUSH2 0xD7F JUMPI INVALID JUMPDEST ADD SWAP3 SWAP2 POP POP JUMP JUMPDEST PUSH1 0x0 DUP1 PUSH2 0x873 PUSH1 0x7 PUSH2 0xD6D JUMP JUMPDEST DUP2 DUP2 MUL PUSH1 0x0 NOT DUP4 EQ ISZERO PUSH2 0xDC3 JUMPI DUP2 ISZERO DUP1 PUSH2 0xDB5 JUMPI POP DUP3 DUP3 DUP3 DUP2 PUSH2 0xDB2 JUMPI INVALID JUMPDEST SDIV EQ JUMPDEST PUSH2 0xDBE JUMPI PUSH1 0x0 DUP1 REVERT JUMPDEST PUSH2 0x873 JUMP JUMPDEST DUP3 ISZERO DUP1 PUSH2 0xDD8 JUMPI POP DUP2 DUP4 DUP3 DUP2 PUSH2 0xDD5 JUMPI INVALID JUMPDEST SDIV EQ JUMPDEST PUSH2 0x873 JUMPI PUSH1 0x0 DUP1 REVERT JUMPDEST PUSH1 0x0 DUP2 PUSH1 0x0 NOT EQ DUP1 ISZERO PUSH2 0xDF7 JUMPI POP PUSH1 0x1 PUSH1 0xFF SHL DUP4 EQ JUMPDEST ISZERO PUSH2 0xE01 JUMPI PUSH1 0x0 DUP1 REVERT JUMPDEST DUP2 DUP4 DUP2 PUSH2 0xE0A JUMPI INVALID JUMPDEST SDIV SWAP4 SWAP3 POP POP POP JUMP JUMPDEST DUP3 MLOAD PUSH1 0x40 MLOAD PUSH4 0xDB006A75 PUSH1 0xE0 SHL DUP2 MSTORE PUSH1 0x0 SWAP2 SELFBALANCE SWAP2 DUP4 SWAP2 PUSH1 0x1 PUSH1 0x1 PUSH1 0xA0 SHL SUB AND SWAP1 PUSH4 0xDB006A75 SWAP1 PUSH2 0xE46 SWAP1 DUP8 SWAP1 PUSH1 0x4 ADD PUSH2 0x1914 JUMP JUMPDEST PUSH1 0x20 PUSH1 0x40 MLOAD DUP1 DUP4 SUB DUP2 PUSH1 0x0 DUP8 DUP1 EXTCODESIZE ISZERO DUP1 ISZERO PUSH2 0xE60 JUMPI PUSH1 0x0 DUP1 REVERT JUMPDEST POP GAS CALL ISZERO DUP1 ISZERO PUSH2 0xE74 JUMPI RETURNDATASIZE PUSH1 0x0 DUP1 RETURNDATACOPY RETURNDATASIZE PUSH1 0x0 REVERT JUMPDEST POP POP POP POP PUSH1 0x40 MLOAD RETURNDATASIZE PUSH1 0x1F NOT PUSH1 0x1F DUP3 ADD AND DUP3 ADD DUP1 PUSH1 0x40 MSTORE POP DUP2 ADD SWAP1 PUSH2 0xE98 SWAP2 SWAP1 PUSH2 0x1827 JUMP JUMPDEST SWAP1 POP DUP1 ISZERO PUSH2 0xEB8 JUMPI PUSH1 0x40 MLOAD PUSH3 0x461BCD PUSH1 0xE5 SHL DUP2 MSTORE PUSH1 0x4 ADD PUSH2 0x18E SWAP1 PUSH2 0x191D JUMP JUMPDEST SELFBALANCE PUSH2 0xEC3 DUP2 DUP5 PUSH2 0x10C8 JUMP JUMPDEST SWAP4 POP PUSH2 0xECF DUP7 DUP6 PUSH2 0x1125 JUMP JUMPDEST POP POP POP SWAP4 SWAP3 POP POP POP JUMP JUMPDEST PUSH2 0xEE1 PUSH2 0x16A3 JUMP JUMPDEST PUSH2 0x873 DUP3 PUSH1 0x1 PUSH2 0xAF6 JUMP JUMPDEST PUSH1 0x0 PUSH2 0xF07 PUSH2 0x8C1 DUP6 PUSH1 0x0 ADD MLOAD PUSH2 0xF02 DUP6 PUSH2 0x796 JUMP JUMPDEST PUSH2 0x115B JUMP JUMPDEST SWAP1 POP PUSH2 0xF11 PUSH2 0x11EA JUMP JUMPDEST SLOAD DUP5 MLOAD PUSH1 0x40 MLOAD PUSH4 0x1A4CA37B PUSH1 0xE2 SHL DUP2 MSTORE PUSH1 0x1 PUSH1 0x1 PUSH1 0xA0 SHL SUB SWAP1 SWAP3 AND SWAP2 PUSH4 0x69328DEC SWAP2 PUSH2 0xF43 SWAP2 DUP6 SWAP1 DUP9 SWAP1 PUSH1 0x4 ADD PUSH2 0x18AD JUMP JUMPDEST PUSH1 0x20 PUSH1 0x40 MLOAD DUP1 DUP4 SUB DUP2 PUSH1 0x0 DUP8 DUP1 EXTCODESIZE ISZERO DUP1 ISZERO PUSH2 0xF5D JUMPI PUSH1 0x0 DUP1 REVERT JUMPDEST POP GAS CALL ISZERO DUP1 ISZERO PUSH2 0xF71 JUMPI RETURNDATASIZE PUSH1 0x0 DUP1 RETURNDATACOPY RETURNDATASIZE PUSH1 0x0 REVERT JUMPDEST POP POP POP POP PUSH1 0x40 MLOAD RETURNDATASIZE PUSH1 0x1F NOT PUSH1 0x1F DUP3 ADD AND DUP3 ADD DUP1 PUSH1 0x40 MSTORE POP DUP2 ADD SWAP1 PUSH2 0xF95 SWAP2 SWAP1 PUSH2 0x1827 JUMP JUMPDEST POP SWAP4 SWAP3 POP POP POP JUMP JUMPDEST DUP3 MLOAD PUSH1 0x0 SWAP1 DUP2 SWAP1 PUSH2 0xFB6 SWAP1 ADDRESS PUSH4 0x70A08231 PUSH1 0xE0 SHL PUSH2 0x11F7 JUMP JUMPDEST SWAP1 POP PUSH1 0x0 DUP7 PUSH1 0x0 ADD MLOAD PUSH1 0x1 PUSH1 0x1 PUSH1 0xA0 SHL SUB AND PUSH4 0xDB006A75 DUP6 PUSH1 0x40 MLOAD DUP3 PUSH4 0xFFFFFFFF AND PUSH1 0xE0 SHL DUP2 MSTORE PUSH1 0x4 ADD PUSH2 0xFEA SWAP2 SWAP1 PUSH2 0x1914 JUMP JUMPDEST PUSH1 0x20 PUSH1 0x40 MLOAD DUP1 DUP4 SUB DUP2 PUSH1 0x0 DUP8 DUP1 EXTCODESIZE ISZERO DUP1 ISZERO PUSH2 0x1004 JUMPI PUSH1 0x0 DUP1 REVERT JUMPDEST POP GAS CALL ISZERO DUP1 ISZERO PUSH2 0x1018 JUMPI RETURNDATASIZE PUSH1 0x0 DUP1 RETURNDATACOPY RETURNDATASIZE PUSH1 0x0 REVERT JUMPDEST POP POP POP POP PUSH1 0x40 MLOAD RETURNDATASIZE PUSH1 0x1F NOT PUSH1 0x1F DUP3 ADD AND DUP3 ADD DUP1 PUSH1 0x40 MSTORE POP DUP2 ADD SWAP1 PUSH2 0x103C SWAP2 SWAP1 PUSH2 0x1827 JUMP JUMPDEST SWAP1 POP DUP1 ISZERO PUSH2 0x105C JUMPI PUSH1 0x40 MLOAD PUSH3 0x461BCD PUSH1 0xE5 SHL DUP2 MSTORE PUSH1 0x4 ADD PUSH2 0x18E SWAP1 PUSH2 0x191D JUMP JUMPDEST DUP6 MLOAD PUSH1 0x0 SWAP1 PUSH2 0x1073 SWAP1 ADDRESS PUSH4 0x70A08231 PUSH1 0xE0 SHL PUSH2 0x11F7 JUMP JUMPDEST SWAP1 POP PUSH2 0x107F DUP2 DUP5 PUSH2 0x10C8 JUMP JUMPDEST SWAP4 POP PUSH2 0x1090 DUP8 PUSH1 0x0 ADD MLOAD DUP8 DUP7 PUSH2 0x1309 JUMP JUMPDEST POP POP POP SWAP5 SWAP4 POP POP POP POP JUMP JUMPDEST DUP1 DUP3 SUB DUP3 DUP2 SGT ISZERO PUSH1 0x0 DUP4 SLT ISZERO EQ PUSH2 0x873 JUMPI PUSH1 0x0 DUP1 REVERT JUMPDEST PUSH1 0x60 PUSH2 0x10C0 DUP5 DUP5 PUSH1 0x0 DUP6 PUSH2 0x1380 JUMP JUMPDEST SWAP5 SWAP4 POP POP POP POP JUMP JUMPDEST PUSH1 0x0 DUP3 DUP3 GT ISZERO PUSH2 0x111F JUMPI PUSH1 0x40 DUP1 MLOAD PUSH3 0x461BCD PUSH1 0xE5 SHL DUP2 MSTORE PUSH1 0x20 PUSH1 0x4 DUP3 ADD MSTORE PUSH1 0x1E PUSH1 0x24 DUP3 ADD MSTORE PUSH32 0x536166654D6174683A207375627472616374696F6E206F766572666C6F770000 PUSH1 0x44 DUP3 ADD MSTORE SWAP1 MLOAD SWAP1 DUP2 SWAP1 SUB PUSH1 0x64 ADD SWAP1 REVERT JUMPDEST POP SWAP1 SUB SWAP1 JUMP JUMPDEST PUSH1 0x40 MLOAD PUSH1 0x1 PUSH1 0x1 PUSH1 0xA0 SHL SUB DUP4 AND SWAP1 DUP3 ISZERO PUSH2 0x8FC MUL SWAP1 DUP4 SWAP1 PUSH1 0x0 DUP2 DUP2 DUP2 DUP6 DUP9 DUP9 CALL SWAP4 POP POP POP POP ISZERO DUP1 ISZERO PUSH2 0x986 JUMPI RETURNDATASIZE PUSH1 0x0 DUP1 RETURNDATACOPY RETURNDATASIZE PUSH1 0x0 REVERT JUMPDEST PUSH1 0x0 DUP2 PUSH2 0x116A JUMPI POP PUSH1 0x0 PUSH2 0x873 JUMP JUMPDEST PUSH1 0x0 PUSH2 0x1175 DUP5 PUSH2 0x14DB JUMP JUMPDEST SWAP1 POP PUSH1 0x0 PUSH2 0x1182 DUP5 PUSH2 0x156B JUMP JUMPDEST SWAP1 POP DUP2 PUSH12 0x19D971E4FE8401E74000001 PUSH1 0x1 PUSH1 0xFF SHL SUB DUP2 PUSH2 0x119F JUMPI INVALID JUMPDEST SDIV DUP2 SGT ISZERO PUSH2 0x11AC JUMPI PUSH1 0x0 DUP1 REVERT JUMPDEST PUSH12 0x33B2E3C9FD0803CE8000000 PUSH12 0x19D971E4FE8401E74000000 DUP4 DUP4 MUL ADD SDIV PUSH1 0x0 DUP6 SGT PUSH2 0x11E1 JUMPI PUSH2 0x11DC DUP2 PUSH2 0xC92 JUMP JUMPDEST PUSH2 0xC88 JUMP JUMPDEST SWAP6 SWAP5 POP POP POP POP POP JUMP JUMPDEST PUSH1 0x0 DUP1 PUSH2 0x873 PUSH1 0x13 PUSH2 0xD6D JUMP JUMPDEST PUSH1 0x40 DUP1 MLOAD PUSH1 0x1 PUSH1 0x1 PUSH1 0xA0 SHL SUB DUP5 DUP2 AND PUSH1 0x24 DUP1 DUP5 ADD SWAP2 SWAP1 SWAP2 MSTORE DUP4 MLOAD DUP1 DUP5 SUB SWAP1 SWAP2 ADD DUP2 MSTORE PUSH1 0x44 SWAP1 SWAP3 ADD DUP4 MSTORE PUSH1 0x20 DUP3 ADD DUP1 MLOAD PUSH1 0x1 PUSH1 0x1 PUSH1 0xE0 SHL SUB AND PUSH1 0x1 PUSH1 0x1 PUSH1 0xE0 SHL SUB NOT DUP7 AND OR DUP2 MSTORE SWAP3 MLOAD DUP3 MLOAD PUSH1 0x0 SWAP5 DUP6 SWAP5 DUP6 SWAP5 DUP11 AND SWAP4 SWAP1 SWAP3 SWAP1 SWAP2 DUP3 SWAP2 DUP1 DUP4 DUP4 JUMPDEST PUSH1 0x20 DUP4 LT PUSH2 0x1274 JUMPI DUP1 MLOAD DUP3 MSTORE PUSH1 0x1F NOT SWAP1 SWAP3 ADD SWAP2 PUSH1 0x20 SWAP2 DUP3 ADD SWAP2 ADD PUSH2 0x1255 JUMP JUMPDEST PUSH1 0x1 DUP4 PUSH1 0x20 SUB PUSH2 0x100 EXP SUB DUP1 NOT DUP3 MLOAD AND DUP2 DUP5 MLOAD AND DUP1 DUP3 OR DUP6 MSTORE POP POP POP POP POP POP SWAP1 POP ADD SWAP2 POP POP PUSH1 0x0 PUSH1 0x40 MLOAD DUP1 DUP4 SUB DUP2 DUP6 GAS STATICCALL SWAP2 POP POP RETURNDATASIZE DUP1 PUSH1 0x0 DUP2 EQ PUSH2 0x12D4 JUMPI PUSH1 0x40 MLOAD SWAP2 POP PUSH1 0x1F NOT PUSH1 0x3F RETURNDATASIZE ADD AND DUP3 ADD PUSH1 0x40 MSTORE RETURNDATASIZE DUP3 MSTORE RETURNDATASIZE PUSH1 0x0 PUSH1 0x20 DUP5 ADD RETURNDATACOPY PUSH2 0x12D9 JUMP JUMPDEST PUSH1 0x60 SWAP2 POP JUMPDEST POP SWAP2 POP SWAP2 POP DUP2 PUSH2 0x12E8 JUMPI PUSH1 0x0 DUP1 REVERT JUMPDEST DUP1 DUP1 PUSH1 0x20 ADD SWAP1 MLOAD PUSH1 0x20 DUP2 LT ISZERO PUSH2 0x12FD JUMPI PUSH1 0x0 DUP1 REVERT JUMPDEST POP MLOAD SWAP7 SWAP6 POP POP POP POP POP POP JUMP JUMPDEST DUP3 PUSH1 0x1 PUSH1 0x1 PUSH1 0xA0 SHL SUB AND PUSH4 0xA9059CBB DUP4 DUP4 PUSH1 0x40 MLOAD DUP4 PUSH4 0xFFFFFFFF AND PUSH1 0xE0 SHL DUP2 MSTORE PUSH1 0x4 ADD DUP1 DUP4 PUSH1 0x1 PUSH1 0x1 PUSH1 0xA0 SHL SUB AND DUP2 MSTORE PUSH1 0x20 ADD DUP3 DUP2 MSTORE PUSH1 0x20 ADD SWAP3 POP POP POP PUSH1 0x0 PUSH1 0x40 MLOAD DUP1 DUP4 SUB DUP2 PUSH1 0x0 DUP8 DUP1 EXTCODESIZE ISZERO DUP1 ISZERO PUSH2 0x1360 JUMPI PUSH1 0x0 DUP1 REVERT JUMPDEST POP GAS CALL ISZERO DUP1 ISZERO PUSH2 0x1374 JUMPI RETURNDATASIZE PUSH1 0x0 DUP1 RETURNDATACOPY RETURNDATASIZE PUSH1 0x0 REVERT JUMPDEST POP POP POP POP PUSH2 0x986 PUSH2 0x158C JUMP JUMPDEST PUSH1 0x60 DUP3 SELFBALANCE LT ISZERO PUSH2 0x13C1 JUMPI PUSH1 0x40 MLOAD PUSH3 0x461BCD PUSH1 0xE5 SHL DUP2 MSTORE PUSH1 0x4 ADD DUP1 DUP1 PUSH1 0x20 ADD DUP3 DUP2 SUB DUP3 MSTORE PUSH1 0x26 DUP2 MSTORE PUSH1 0x20 ADD DUP1 PUSH2 0x1A3F PUSH1 0x26 SWAP2 CODECOPY PUSH1 0x40 ADD SWAP2 POP POP PUSH1 0x40 MLOAD DUP1 SWAP2 SUB SWAP1 REVERT JUMPDEST PUSH2 0x13CA DUP6 PUSH2 0x15F9 JUMP JUMPDEST PUSH2 0x141B JUMPI PUSH1 0x40 DUP1 MLOAD PUSH3 0x461BCD PUSH1 0xE5 SHL DUP2 MSTORE PUSH1 0x20 PUSH1 0x4 DUP3 ADD MSTORE PUSH1 0x1D PUSH1 0x24 DUP3 ADD MSTORE PUSH32 0x416464726573733A2063616C6C20746F206E6F6E2D636F6E7472616374000000 PUSH1 0x44 DUP3 ADD MSTORE SWAP1 MLOAD SWAP1 DUP2 SWAP1 SUB PUSH1 0x64 ADD SWAP1 REVERT JUMPDEST PUSH1 0x0 DUP1 DUP7 PUSH1 0x1 PUSH1 0x1 PUSH1 0xA0 SHL SUB AND DUP6 DUP8 PUSH1 0x40 MLOAD DUP1 DUP3 DUP1 MLOAD SWAP1 PUSH1 0x20 ADD SWAP1 DUP1 DUP4 DUP4 JUMPDEST PUSH1 0x20 DUP4 LT PUSH2 0x1459 JUMPI DUP1 MLOAD DUP3 MSTORE PUSH1 0x1F NOT SWAP1 SWAP3 ADD SWAP2 PUSH1 0x20 SWAP2 DUP3 ADD SWAP2 ADD PUSH2 0x143A JUMP JUMPDEST PUSH1 0x1 DUP4 PUSH1 0x20 SUB PUSH2 0x100 EXP SUB DUP1 NOT DUP3 MLOAD AND DUP2 DUP5 MLOAD AND DUP1 DUP3 OR DUP6 MSTORE POP POP POP POP POP POP SWAP1 POP ADD SWAP2 POP POP PUSH1 0x0 PUSH1 0x40 MLOAD DUP1 DUP4 SUB DUP2 DUP6 DUP8 GAS CALL SWAP3 POP POP POP RETURNDATASIZE DUP1 PUSH1 0x0 DUP2 EQ PUSH2 0x14BB JUMPI PUSH1 0x40 MLOAD SWAP2 POP PUSH1 0x1F NOT PUSH1 0x3F RETURNDATASIZE ADD AND DUP3 ADD PUSH1 0x40 MSTORE RETURNDATASIZE DUP3 MSTORE RETURNDATASIZE PUSH1 0x0 PUSH1 0x20 DUP5 ADD RETURNDATACOPY PUSH2 0x14C0 JUMP JUMPDEST PUSH1 0x60 SWAP2 POP JUMPDEST POP SWAP2 POP SWAP2 POP PUSH2 0x14D0 DUP3 DUP3 DUP7 PUSH2 0x15FF JUMP JUMPDEST SWAP8 SWAP7 POP POP POP POP POP POP POP JUMP JUMPDEST PUSH1 0x0 PUSH2 0x873 PUSH2 0x14E8 PUSH2 0x11EA JUMP JUMPDEST SLOAD PUSH1 0x40 MLOAD PUSH4 0xD15E0053 PUSH1 0xE0 SHL DUP2 MSTORE PUSH1 0x1 PUSH1 0x1 PUSH1 0xA0 SHL SUB SWAP1 SWAP2 AND SWAP1 PUSH4 0xD15E0053 SWAP1 PUSH2 0x1516 SWAP1 DUP7 SWAP1 PUSH1 0x4 ADD PUSH2 0x183F JUMP JUMPDEST PUSH1 0x20 PUSH1 0x40 MLOAD DUP1 DUP4 SUB DUP2 DUP7 DUP1 EXTCODESIZE ISZERO DUP1 ISZERO PUSH2 0x152E JUMPI PUSH1 0x0 DUP1 REVERT JUMPDEST POP GAS STATICCALL ISZERO DUP1 ISZERO PUSH2 0x1542 JUMPI RETURNDATASIZE PUSH1 0x0 DUP1 RETURNDATACOPY RETURNDATASIZE PUSH1 0x0 REVERT JUMPDEST POP POP POP POP PUSH1 0x40 MLOAD RETURNDATASIZE PUSH1 0x1F NOT PUSH1 0x1F DUP3 ADD AND DUP3 ADD DUP1 PUSH1 0x40 MSTORE POP DUP2 ADD SWAP1 PUSH2 0x1566 SWAP2 SWAP1 PUSH2 0x1827 JUMP JUMPDEST PUSH2 0x796 JUMP JUMPDEST PUSH1 0x0 DUP1 DUP3 SLT ISZERO PUSH2 0x1585 JUMPI PUSH2 0x157E DUP3 PUSH2 0xC92 JUMP JUMPDEST SWAP1 POP PUSH2 0x7AF JUMP JUMPDEST POP DUP1 PUSH2 0x7AF JUMP JUMPDEST PUSH1 0x0 PUSH2 0x1596 PUSH2 0x16D2 JUMP JUMPDEST RETURNDATASIZE DUP1 ISZERO PUSH2 0x15AA JUMPI PUSH1 0x20 DUP2 EQ PUSH2 0x15B3 JUMPI PUSH1 0x0 DUP1 REVERT JUMPDEST PUSH1 0x1 SWAP3 POP PUSH2 0x15BE JUMP JUMPDEST PUSH1 0x20 PUSH1 0x0 DUP4 RETURNDATACOPY DUP2 MLOAD SWAP3 POP JUMPDEST POP DUP2 PUSH2 0x1AA JUMPI PUSH1 0x40 DUP1 MLOAD PUSH3 0x461BCD PUSH1 0xE5 SHL DUP2 MSTORE PUSH1 0x20 PUSH1 0x4 DUP3 ADD MSTORE PUSH1 0x5 PUSH1 0x24 DUP3 ADD MSTORE PUSH5 0x455243323 PUSH1 0xDC SHL PUSH1 0x44 DUP3 ADD MSTORE SWAP1 MLOAD SWAP1 DUP2 SWAP1 SUB PUSH1 0x64 ADD SWAP1 REVERT JUMPDEST EXTCODESIZE ISZERO ISZERO SWAP1 JUMP JUMPDEST PUSH1 0x60 DUP4 ISZERO PUSH2 0x160E JUMPI POP DUP2 PUSH2 0x8CB JUMP JUMPDEST DUP3 MLOAD ISZERO PUSH2 0x161E JUMPI DUP3 MLOAD DUP1 DUP5 PUSH1 0x20 ADD REVERT JUMPDEST DUP2 PUSH1 0x40 MLOAD PUSH3 0x461BCD PUSH1 0xE5 SHL DUP2 MSTORE PUSH1 0x4 ADD DUP1 DUP1 PUSH1 0x20 ADD DUP3 DUP2 SUB DUP3 MSTORE DUP4 DUP2 DUP2 MLOAD DUP2 MSTORE PUSH1 0x20 ADD SWAP2 POP DUP1 MLOAD SWAP1 PUSH1 0x20 ADD SWAP1 DUP1 DUP4 DUP4 PUSH1 0x0 JUMPDEST DUP4 DUP2 LT ISZERO PUSH2 0x1668 JUMPI DUP2 DUP2 ADD MLOAD DUP4 DUP3 ADD MSTORE PUSH1 0x20 ADD PUSH2 0x1650 JUMP JUMPDEST POP POP POP POP SWAP1 POP SWAP1 DUP2 ADD SWAP1 PUSH1 0x1F AND DUP1 ISZERO PUSH2 0x1695 JUMPI DUP1 DUP3 SUB DUP1 MLOAD PUSH1 0x1 DUP4 PUSH1 0x20 SUB PUSH2 0x100 EXP SUB NOT AND DUP2 MSTORE PUSH1 0x20 ADD SWAP2 POP JUMPDEST POP SWAP3 POP POP POP PUSH1 0x40 MLOAD DUP1 SWAP2 SUB SWAP1 REVERT JUMPDEST PUSH1 0x40 DUP1 MLOAD PUSH1 0xA0 DUP2 ADD DUP3 MSTORE PUSH1 0x0 DUP1 DUP3 MSTORE PUSH1 0x20 DUP3 ADD DUP2 SWAP1 MSTORE SWAP2 DUP2 ADD DUP3 SWAP1 MSTORE SWAP1 PUSH1 0x60 DUP3 ADD SWAP1 DUP2 MSTORE PUSH1 0x20 ADD PUSH1 0x0 DUP2 MSTORE POP SWAP1 JUMP JUMPDEST PUSH1 0x40 MLOAD DUP1 PUSH1 0x20 ADD PUSH1 0x40 MSTORE DUP1 PUSH1 0x1 SWAP1 PUSH1 0x20 DUP3 MUL DUP1 CALLDATASIZE DUP4 CALLDATACOPY POP SWAP2 SWAP3 SWAP2 POP POP JUMP JUMPDEST DUP1 CALLDATALOAD PUSH1 0x1 PUSH1 0x1 PUSH1 0xA0 SHL SUB DUP2 AND DUP2 EQ PUSH2 0x7AF JUMPI PUSH1 0x0 DUP1 REVERT JUMPDEST PUSH1 0x0 DUP1 DUP4 PUSH1 0x1F DUP5 ADD SLT PUSH2 0x1718 JUMPI DUP2 DUP3 REVERT JUMPDEST POP DUP2 CALLDATALOAD PUSH8 0xFFFFFFFFFFFFFFFF DUP2 GT ISZERO PUSH2 0x172F JUMPI DUP2 DUP3 REVERT JUMPDEST PUSH1 0x20 DUP4 ADD SWAP2 POP DUP4 PUSH1 0x20 DUP1 DUP4 MUL DUP6 ADD ADD GT ISZERO PUSH2 0x1749 JUMPI PUSH1 0x0 DUP1 REVERT JUMPDEST SWAP3 POP SWAP3 SWAP1 POP JUMP JUMPDEST DUP1 CALLDATALOAD PUSH2 0xFFFF DUP2 AND DUP2 EQ PUSH2 0x7AF JUMPI PUSH1 0x0 DUP1 REVERT JUMPDEST PUSH1 0x0 PUSH1 0x20 DUP3 DUP5 SUB SLT ISZERO PUSH2 0x1773 JUMPI DUP1 DUP2 REVERT JUMPDEST PUSH2 0x8CB DUP3 PUSH2 0x16F0 JUMP JUMPDEST PUSH1 0x0 DUP1 PUSH1 0x20 DUP4 DUP6 SUB SLT ISZERO PUSH2 0x178E JUMPI DUP1 DUP2 REVERT JUMPDEST DUP3 CALLDATALOAD PUSH8 0xFFFFFFFFFFFFFFFF DUP2 GT ISZERO PUSH2 0x17A4 JUMPI DUP2 DUP3 REVERT JUMPDEST PUSH2 0x17B0 DUP6 DUP3 DUP7 ADD PUSH2 0x1707 JUMP JUMPDEST SWAP1 SWAP7 SWAP1 SWAP6 POP SWAP4 POP POP POP POP JUMP JUMPDEST PUSH1 0x0 DUP1 PUSH1 0x20 DUP4 DUP6 SUB SLT ISZERO PUSH2 0x17CE JUMPI DUP2 DUP3 REVERT JUMPDEST DUP3 CALLDATALOAD PUSH8 0xFFFFFFFFFFFFFFFF DUP2 GT ISZERO PUSH2 0x17A4 JUMPI DUP3 DUP4 REVERT JUMPDEST PUSH1 0x0 PUSH1 0x20 DUP3 DUP5 SUB SLT ISZERO PUSH2 0x17F5 JUMPI DUP1 DUP2 REVERT JUMPDEST PUSH2 0x8CB DUP3 PUSH2 0x1750 JUMP JUMPDEST PUSH1 0x0 DUP1 PUSH1 0x40 DUP4 DUP6 SUB SLT ISZERO PUSH2 0x1810 JUMPI DUP2 DUP3 REVERT JUMPDEST PUSH2 0x1819 DUP4 PUSH2 0x1750 JUMP JUMPDEST SWAP5 PUSH1 0x20 SWAP4 SWAP1 SWAP4 ADD CALLDATALOAD SWAP4 POP POP POP JUMP JUMPDEST PUSH1 0x0 PUSH1 0x20 DUP3 DUP5 SUB SLT ISZERO PUSH2 0x1838 JUMPI DUP1 DUP2 REVERT JUMPDEST POP MLOAD SWAP2 SWAP1 POP JUMP JUMPDEST PUSH1 0x1 PUSH1 0x1 PUSH1 0xA0 SHL SUB SWAP2 SWAP1 SWAP2 AND DUP2 MSTORE PUSH1 0x20 ADD SWAP1 JUMP JUMPDEST PUSH1 0x1 PUSH1 0x1 PUSH1 0xA0 SHL SUB DUP5 DUP2 AND DUP3 MSTORE PUSH1 0x40 PUSH1 0x20 DUP1 DUP5 ADD DUP3 SWAP1 MSTORE SWAP1 DUP4 ADD DUP5 SWAP1 MSTORE PUSH1 0x0 SWAP2 DUP6 SWAP2 PUSH1 0x60 DUP6 ADD DUP5 JUMPDEST DUP8 DUP2 LT ISZERO PUSH2 0x18A0 JUMPI DUP4 PUSH2 0x188D DUP7 PUSH2 0x16F0 JUMP JUMPDEST AND DUP3 MSTORE SWAP4 DUP3 ADD SWAP4 SWAP1 DUP3 ADD SWAP1 PUSH1 0x1 ADD PUSH2 0x187B JUMP JUMPDEST POP SWAP9 SWAP8 POP POP POP POP POP POP POP POP JUMP JUMPDEST PUSH1 0x1 PUSH1 0x1 PUSH1 0xA0 SHL SUB SWAP4 DUP5 AND DUP2 MSTORE PUSH1 0x20 DUP2 ADD SWAP3 SWAP1 SWAP3 MSTORE SWAP1 SWAP2 AND PUSH1 0x40 DUP3 ADD MSTORE PUSH1 0x60 ADD SWAP1 JUMP JUMPDEST PUSH1 0x20 DUP1 DUP3 MSTORE DUP3 MLOAD DUP3 DUP3 ADD DUP2 SWAP1 MSTORE PUSH1 0x0 SWAP2 SWAP1 DUP5 DUP3 ADD SWAP1 PUSH1 0x40 DUP6 ADD SWAP1 DUP5 JUMPDEST DUP2 DUP2 LT ISZERO PUSH2 0x1908 JUMPI DUP4 MLOAD DUP4 MSTORE SWAP3 DUP5 ADD SWAP3 SWAP2 DUP5 ADD SWAP2 PUSH1 0x1 ADD PUSH2 0x18EC JUMP JUMPDEST POP SWAP1 SWAP7 SWAP6 POP POP POP POP POP POP JUMP JUMPDEST SWAP1 DUP2 MSTORE PUSH1 0x20 ADD SWAP1 JUMP JUMPDEST PUSH1 0x20 DUP1 DUP3 MSTORE PUSH1 0x6 SWAP1 DUP3 ADD MSTORE PUSH6 0x52656465656D PUSH1 0xD0 SHL PUSH1 0x40 DUP3 ADD MSTORE PUSH1 0x60 ADD SWAP1 JUMP JUMPDEST PUSH1 0x20 DUP1 DUP3 MSTORE PUSH1 0x19 SWAP1 DUP3 ADD MSTORE PUSH32 0x5472656173757279206D616E6167657220726571756972656400000000000000 PUSH1 0x40 DUP3 ADD MSTORE PUSH1 0x60 ADD SWAP1 JUMP JUMPDEST PUSH1 0x20 DUP1 DUP3 MSTORE DUP2 DUP2 ADD MSTORE PUSH32 0x4F776E61626C653A2063616C6C6572206973206E6F7420746865206F776E6572 PUSH1 0x40 DUP3 ADD MSTORE PUSH1 0x60 ADD SWAP1 JUMP JUMPDEST PUSH1 0x20 DUP1 DUP3 MSTORE PUSH1 0x12 SWAP1 DUP3 ADD MSTORE PUSH18 0x12511CC81B5D5CDD081899481CDBDC9D1959 PUSH1 0x72 SHL PUSH1 0x40 DUP3 ADD MSTORE PUSH1 0x60 ADD SWAP1 JUMP JUMPDEST PUSH1 0x20 DUP1 DUP3 MSTORE PUSH1 0xE SWAP1 DUP3 ADD MSTORE PUSH14 0x1499595B9D1C985B9D0818D85B1B PUSH1 0x92 SHL PUSH1 0x40 DUP3 ADD MSTORE PUSH1 0x60 ADD SWAP1 JUMP JUMPDEST PUSH1 0x20 DUP1 DUP3 MSTORE PUSH1 0x13 SWAP1 DUP3 ADD MSTORE PUSH19 0x125B9D985B1A590818DD5C9C995B98DE481A59 PUSH1 0x6A SHL PUSH1 0x40 DUP3 ADD MSTORE PUSH1 0x60 ADD SWAP1 JUMP JUMPDEST PUSH2 0xFFFF SWAP3 SWAP1 SWAP3 AND DUP3 MSTORE PUSH1 0x20 DUP3 ADD MSTORE PUSH1 0x40 ADD SWAP1 JUMP INVALID COINBASE PUSH5 0x6472657373 GASPRICE KECCAK256 PUSH10 0x6E73756666696369656E PUSH21 0x2062616C616E636520666F722063616C6C53616665 GASLIMIT MSTORE NUMBER ORIGIN ADDRESS GASPRICE KECCAK256 GASLIMIT MSTORE NUMBER ORIGIN ADDRESS KECCAK256 PUSH16 0x7065726174696F6E20646964206E6F74 KECCAK256 PUSH20 0x756363656564A26469706673582212203BEF722F GAS 0x28 0xD0 PUSH24 0xC33575F63C33C312938124061C3F621D85C56509B0C3E289 PUSH5 0x736F6C6343 STOP SMOD MOD STOP CALLER ","sha1":"d0d711bb6a313fa618d413b9d12631db9275f70e","source":"// SPDX-License-Identifier: GPL-3.0-only\npragma solidity =0.7.6;\npragma abicoder v2;\n\nimport \"@openzeppelin/contracts/math/SafeMath.sol\";\nimport \"@openzeppelin/contracts/token/ERC20/SafeERC20.sol\";\nimport \"./ActionGuards.sol\";\nimport \"../../math/SafeInt256.sol\";\nimport \"../../internal/balances/BalanceHandler.sol\";\nimport \"../../internal/balances/TokenHandler.sol\";\nimport \"../../global/StorageLayoutV2.sol\";\nimport \"../../global/Constants.sol\";\nimport \"../../../interfaces/notional/NotionalTreasury.sol\";\nimport \"../../../interfaces/compound/ComptrollerInterface.sol\";\nimport \"../../../interfaces/compound/CErc20Interface.sol\";\n\ncontract TreasuryAction is StorageLayoutV2, ActionGuards, NotionalTreasury {\n    using SafeMath for uint256;\n    using SafeInt256 for int256;\n    using SafeERC20 for IERC20;\n    using TokenHandler for Token;\n\n    IERC20 public immutable COMP;\n    Comptroller public immutable COMPTROLLER;\n\n    /// @dev Harvest methods are only callable by the authorized treasury manager contract\n    modifier onlyManagerContract() {\n        require(treasuryManagerContract == msg.sender, \"Treasury manager required\");\n        _;\n    }\n\n    constructor(Comptroller _comptroller) {\n        COMPTROLLER = _comptroller;\n        COMP = IERC20(_comptroller.getCompAddress());\n    }\n\n    /// @notice Sets the new treasury manager contract\n    function setTreasuryManager(address manager) external override onlyOwner {\n        emit TreasuryManagerChanged(treasuryManagerContract, manager);\n        treasuryManagerContract = manager;\n    }\n\n    /// @notice Sets the reserve buffer. This is the amount of reserve balance to keep denominated in 1e8\n    /// The reserve cannot be harvested if it's below this amount. This portion of the reserve will remain on\n    /// the contract to act as a buffer against potential insolvency.\n    /// @param currencyId refers to the currency of the reserve\n    /// @param bufferAmount reserve buffer amount to keep in internal token precision (1e8)\n    function setReserveBuffer(uint16 currencyId, uint256 bufferAmount) external override onlyOwner {\n        _checkValidCurrency(currencyId);\n        reserveBuffer[currencyId] = bufferAmount;\n        emit ReserveBufferUpdated(currencyId, bufferAmount);\n    }\n\n    /// @notice This is used in the case of insolvency. It allows the owner to re-align the reserve with its correct balance.\n    /// @param currencyId refers to the currency of the reserve\n    /// @param newBalance new reserve balance to set, must be less than the current balance\n    function setReserveCashBalance(uint16 currencyId, int256 newBalance)\n        external\n        override\n        onlyOwner\n    {\n        _checkValidCurrency(currencyId);\n        // newBalance cannot be negative and is checked inside BalanceHandler.setReserveCashBalance\n        BalanceHandler.setReserveCashBalance(currencyId, newBalance);\n    }\n\n    /// @notice Claims COMP incentives earned and transfers to the treasury manager contract.\n    /// @param cTokens a list of cTokens to claim incentives for\n    /// @return the balance of COMP claimed\n    function claimCOMPAndTransfer(address[] calldata cTokens)\n        external\n        override\n        onlyManagerContract\n        nonReentrant\n        returns (uint256)\n    {\n        COMPTROLLER.claimComp(address(this), cTokens);\n        // NOTE: If Notional ever lists COMP as a collateral asset it will be cCOMP instead and it\n        // will never hold COMP balances directly. In this case we can always transfer all the COMP\n        // off of the contract.\n        uint256 bal = COMP.balanceOf(address(this));\n        // NOTE: the onlyManagerContract modifier prevents a transfer to address(0) here\n        if (bal > 0) COMP.safeTransfer(msg.sender, bal);\n        // NOTE: TreasuryManager contract will emit a COMPHarvested event\n        return bal;\n    }\n\n    /// @notice redeems and transfers tokens to the treasury manager contract\n    function _redeemAndTransfer(\n        uint16 currencyId,\n        Token memory asset,\n        int256 assetInternalRedeemAmount\n    ) private returns (uint256) {\n        int256 assetExternalRedeemAmount = asset.convertToExternal(assetInternalRedeemAmount);\n\n        // This is the actual redeemed amount in underlying external precision\n        // NOTE: asset.redeem will return a negative number to represent that assets have left the\n        // contract, convert to a positive uint here. asset.redeem() will also transfer the underlying\n        // to the treasuryManagerContract\n        uint256 redeemedExternalUnderlying = asset\n            .redeem(currencyId, treasuryManagerContract, assetExternalRedeemAmount.toUint())\n            .neg()\n            .toUint();\n\n        return redeemedExternalUnderlying;\n    }\n\n    /// @notice Transfers some amount of reserve assets to the treasury manager contract to be invested\n    /// into the sNOTE pool.\n    /// @param currencies an array of currencies to transfer from Notional\n    function transferReserveToTreasury(uint16[] calldata currencies)\n        external\n        override\n        onlyManagerContract\n        nonReentrant\n        returns (uint256[] memory)\n    {\n        uint256[] memory amountsTransferred = new uint256[](currencies.length);\n\n        for (uint256 i; i < currencies.length; ++i) {\n            // Prevents duplicate currency IDs\n            if (i > 0) require(currencies[i] > currencies[i - 1], \"IDs must be sorted\");\n\n            uint16 currencyId = currencies[i];\n\n            _checkValidCurrency(currencyId);\n\n            // Reserve buffer amount in INTERNAL_TOKEN_PRECISION\n            int256 bufferInternal = SafeInt256.toInt(reserveBuffer[currencyId]);\n\n            // Reserve requirement not defined\n            if (bufferInternal == 0) continue;\n\n            // prettier-ignore\n            (int256 reserveInternal, /* */, /* */, /* */) = BalanceHandler.getBalanceStorage(Constants.RESERVE, currencyId);\n\n            // Do not withdraw anything if reserve is below or equal to reserve requirement\n            if (reserveInternal <= bufferInternal) continue;\n\n            Token memory asset = TokenHandler.getAssetToken(currencyId);\n\n            // Actual reserve amount allowed to be redeemed and transferred\n            // NOTE: overflow not possible with the check above\n            int256 assetInternalRedeemAmount = reserveInternal - bufferInternal;\n\n            // Redeems cTokens and transfer underlying to treasury manager contract\n            amountsTransferred[i] = _redeemAndTransfer(\n                currencyId,\n                asset,\n                assetInternalRedeemAmount\n            );\n\n            // Updates the reserve balance\n            BalanceHandler.harvestExcessReserveBalance(\n                currencyId,\n                reserveInternal,\n                assetInternalRedeemAmount\n            );\n        }\n\n        // NOTE: TreasuryManager contract will emit an AssetsHarvested event\n        return amountsTransferred;\n    }\n}\n","sourcePath":"contracts/external/actions/TreasuryAction.sol","type":"contract","deployment":{"address":"0xeB0112019DB7B647d94eb1a010e62bD8aBAF158d","chainid":"5","blockHeight":7454267}}