{"abi":[{"inputs":[{"internalType":"address","name":"currentRouter","type":"address"},{"internalType":"address","name":"finalRouter","type":"address"},{"internalType":"contract NotionalProxy","name":"proxy","type":"address"},{"internalType":"address","name":"_nwETH","type":"address"},{"internalType":"address","name":"_nwDAI","type":"address"},{"internalType":"address","name":"_nwUSDC","type":"address"},{"internalType":"address","name":"_nwWBTC","type":"address"}],"stateMutability":"nonpayable","type":"constructor","name":"constructor"},{"anonymous":false,"inputs":[{"indexed":false,"internalType":"address","name":"previousAdmin","type":"address"},{"indexed":false,"internalType":"address","name":"newAdmin","type":"address"}],"name":"AdminChanged","type":"event"},{"anonymous":false,"inputs":[{"indexed":true,"internalType":"address","name":"beacon","type":"address"}],"name":"BeaconUpgraded","type":"event"},{"anonymous":false,"inputs":[{"indexed":false,"internalType":"uint16","name":"newCurrencyId","type":"uint16"}],"name":"ListCurrency","type":"event"},{"anonymous":false,"inputs":[{"indexed":false,"internalType":"uint16","name":"currencyId","type":"uint16"}],"name":"UpdateAssetRate","type":"event"},{"anonymous":false,"inputs":[{"indexed":true,"internalType":"address","name":"implementation","type":"address"}],"name":"Upgraded","type":"event"},{"inputs":[],"name":"CURRENT_ROUTER","outputs":[{"internalType":"address","name":"","type":"address"}],"stateMutability":"view","type":"function"},{"inputs":[],"name":"FINAL_ROUTER","outputs":[{"internalType":"address","name":"","type":"address"}],"stateMutability":"view","type":"function"},{"inputs":[],"name":"NOTIONAL","outputs":[{"internalType":"contract NotionalProxy","name":"","type":"address"}],"stateMutability":"view","type":"function"},{"inputs":[],"name":"OWNER","outputs":[{"internalType":"address","name":"","type":"address"}],"stateMutability":"view","type":"function"},{"inputs":[],"name":"SELF","outputs":[{"internalType":"address","name":"","type":"address"}],"stateMutability":"view","type":"function"},{"inputs":[],"name":"atomicPatchAndUpgrade","outputs":[],"stateMutability":"nonpayable","type":"function"},{"inputs":[],"name":"nwDAI","outputs":[{"internalType":"address","name":"","type":"address"}],"stateMutability":"view","type":"function"},{"inputs":[],"name":"nwETH","outputs":[{"internalType":"address","name":"","type":"address"}],"stateMutability":"view","type":"function"},{"inputs":[],"name":"nwUSDC","outputs":[{"internalType":"address","name":"","type":"address"}],"stateMutability":"view","type":"function"},{"inputs":[],"name":"nwWBTC","outputs":[{"internalType":"address","name":"","type":"address"}],"stateMutability":"view","type":"function"},{"inputs":[],"name":"owner","outputs":[{"internalType":"address","name":"","type":"address"}],"stateMutability":"view","type":"function"},{"inputs":[],"name":"patchFix","outputs":[],"stateMutability":"nonpayable","type":"function"},{"inputs":[],"name":"pauseGuardian","outputs":[{"internalType":"address","name":"","type":"address"}],"stateMutability":"view","type":"function"},{"inputs":[],"name":"pauseRouter","outputs":[{"internalType":"address","name":"","type":"address"}],"stateMutability":"view","type":"function"},{"inputs":[],"name":"returnOwnership","outputs":[],"stateMutability":"nonpayable","type":"function"},{"inputs":[{"internalType":"address","name":"newImplementation","type":"address"}],"name":"upgradeTo","outputs":[],"stateMutability":"nonpayable","type":"function"},{"inputs":[{"internalType":"address","name":"newImplementation","type":"address"},{"internalType":"bytes","name":"data","type":"bytes"}],"name":"upgradeToAndCall","outputs":[],"stateMutability":"payable","type":"function"}],"bytecode":"6101a06040523060601b610100523480156200001a57600080fd5b50604051620021a4380380620021a48339810160408190526200003d916200014a565b6001600160601b0319606087811b821660a05286811b821660e05288901b1660c05260408051638da5cb5b60e01b815290518891889188916001600160a01b03831691638da5cb5b91600480820192602092909190829003018186803b158015620000a757600080fd5b505afa158015620000bc573d6000803e3d6000fd5b505050506040513d601f19601f82011682018060405250810190620000e2919062000124565b6001600160601b0319606091821b811660805297811b88166101205295861b87166101405250505090821b831661016052901b1661018052506200020d915050565b60006020828403121562000136578081fd5b81516200014381620001f4565b9392505050565b600080600080600080600060e0888a03121562000165578283fd5b87516200017281620001f4565b60208901519097506200018581620001f4565b60408901519096506200019881620001f4565b6060890151909550620001ab81620001f4565b6080890151909450620001be81620001f4565b60a0890151909350620001d181620001f4565b60c0890151909250620001e481620001f4565b8091505092959891949750929550565b6001600160a01b03811681146200020a57600080fd5b50565b60805160601c60a05160601c60c05160601c60e05160601c6101005160601c6101205160601c6101405160601c6101605160601c6101805160601c611ea6620002fe600039806104425280610b6752508061028b5280610b3c5250806104f85280610b115250806104d45280610ae65250806102e2528061062e52806108cb528061090a5250806103505280610475528061055152806105ff528061069c528061073a52806107f2525080610499528061096f52508061040552806106cb52806109345250806102af528061030f528061037d5280610525528061076952806107c852806108965250611ea66000f3fe6080604052600436106100fe5760003560e01c80637e2cee25116100955780638da5cb5b116100645780638da5cb5b146102205780638dbbcb9c14610235578063cac510cf1461024a578063e2960e661461025f578063f028e6fb14610274576100fe565b80637e2cee25146101cc57806382463367146101e1578063858dccb3146101f65780638d6ac7681461020b576100fe565b8063297d1a34116100d1578063297d1a341461016d5780633659cfe61461018457806343dc9bb2146101a45780634f1ef286146101b9576100fe565b80630ae8789014610103578063117803e31461012e57806324a3d6221461014357806326bd0c4e14610158575b600080fd5b34801561010f57600080fd5b50610118610289565b6040516101259190611c5b565b60405180910390f35b34801561013a57600080fd5b506101186102ad565b34801561014f57600080fd5b506101186102d1565b34801561016457600080fd5b506101186102e0565b34801561017957600080fd5b50610182610304565b005b34801561019057600080fd5b5061018261019f366004611b40565b6103dc565b3480156101b057600080fd5b50610118610403565b6101826101c7366004611b78565b610427565b3480156101d857600080fd5b50610118610440565b3480156101ed57600080fd5b50610118610464565b34801561020257600080fd5b50610118610473565b34801561021757600080fd5b50610118610497565b34801561022c57600080fd5b506101186104bb565b34801561024157600080fd5b506101186104d2565b34801561025657600080fd5b506101186104f6565b34801561026b57600080fd5b5061018261051a565b34801561028057600080fd5b506101826108c0565b7f000000000000000000000000000000000000000000000000000000000000000081565b7f000000000000000000000000000000000000000000000000000000000000000081565b6002546001600160a01b031681565b7f000000000000000000000000000000000000000000000000000000000000000081565b336001600160a01b037f0000000000000000000000000000000000000000000000000000000000000000161461033957600080fd5b604051632c90b94d60e21b81526001600160a01b037f0000000000000000000000000000000000000000000000000000000000000000169063b242e534906103a8907f000000000000000000000000000000000000000000000000000000000000000090600190600401611c6f565b600060405180830381600087803b1580156103c257600080fd5b505af11580156103d6573d6000803e3d6000fd5b50505050565b6103e5816108ff565b610400816040518060200160405280600081525060006109ac565b50565b7f000000000000000000000000000000000000000000000000000000000000000081565b610430826108ff565b61043c828260016109ac565b5050565b7f000000000000000000000000000000000000000000000000000000000000000081565b6001546001600160a01b031681565b7f000000000000000000000000000000000000000000000000000000000000000081565b7f000000000000000000000000000000000000000000000000000000000000000081565b60005464010000000090046001600160a01b031681565b7f000000000000000000000000000000000000000000000000000000000000000081565b7f000000000000000000000000000000000000000000000000000000000000000081565b336001600160a01b037f0000000000000000000000000000000000000000000000000000000000000000161461054f57600080fd5b7f00000000000000000000000000000000000000000000000000000000000000006001600160a01b0316634e71e0c86040518163ffffffff1660e01b8152600401600060405180830381600087803b1580156105aa57600080fd5b505af11580156105be573d6000803e3d6000fd5b50506040805160048082526024820183526020820180516001600160e01b031663f028e6fb60e01b179052915163278f794360e11b81526001600160a01b037f0000000000000000000000000000000000000000000000000000000000000000169450634f1ef2869350610655927f0000000000000000000000000000000000000000000000000000000000000000929101611c8a565b600060405180830381600087803b15801561066f57600080fd5b505af1158015610683573d6000803e3d6000fd5b5050604051631b2ce7f360e11b81526001600160a01b037f0000000000000000000000000000000000000000000000000000000000000000169250633659cfe691506106f3907f000000000000000000000000000000000000000000000000000000000000000090600401611c5b565b600060405180830381600087803b15801561070d57600080fd5b505af1158015610721573d6000803e3d6000fd5b5050604051632c90b94d60e21b81526001600160a01b037f000000000000000000000000000000000000000000000000000000000000000016925063b242e5349150610794907f000000000000000000000000000000000000000000000000000000000000000090600190600401611c6f565b600060405180830381600087803b1580156107ae57600080fd5b505af11580156107c2573d6000803e3d6000fd5b505050507f00000000000000000000000000000000000000000000000000000000000000006001600160a01b03167f00000000000000000000000000000000000000000000000000000000000000006001600160a01b0316638da5cb5b6040518163ffffffff1660e01b815260040160206040518083038186803b15801561084957600080fd5b505afa15801561085d573d6000803e3d6000fd5b505050506040513d601f19601f820116820180604052508101906108819190611b5c565b6001600160a01b03161461089457600080fd5b7f00000000000000000000000000000000000000000000000000000000000000006001600160a01b0316ff5b336001600160a01b037f000000000000000000000000000000000000000000000000000000000000000016146108f557600080fd5b6108fd610adf565b565b336001600160a01b037f0000000000000000000000000000000000000000000000000000000000000000161480156109a357507f00000000000000000000000000000000000000000000000000000000000000006001600160a01b0316816001600160a01b031614806109a357507f00000000000000000000000000000000000000000000000000000000000000006001600160a01b0316816001600160a01b0316145b61040057600080fd5b60006109b6610b8b565b90506109c184610bc5565b6000835111806109ce5750815b156109df576109dd8484610c54565b505b6000610a0a7f4910fdfa16fed3260ed0e7147f7cc6da11a60208b5b9406d12a635614ffd9143610c82565b805490915060ff16610ad857805460ff19166001178155604080516001600160a01b0384166024808301919091528251808303909101815260449091019091526020810180516001600160e01b0316631b2ce7f360e11b179052610a6f908690610c54565b50805460ff19168155610a80610b8b565b6001600160a01b0316826001600160a01b031614610acf5760405162461bcd60e51b815260040180806020018281038252602f815260200180611d42602f913960400191505060405180910390fd5b610ad885610c85565b5050505050565b610b0a60017f0000000000000000000000000000000000000000000000000000000000000000610cc5565b610b3560027f0000000000000000000000000000000000000000000000000000000000000000610cc5565b610b6060037f0000000000000000000000000000000000000000000000000000000000000000610cc5565b6108fd60047f0000000000000000000000000000000000000000000000000000000000000000610cc5565b6000610bb67f360894a13ba1a3210667c828492db98dca3e2076cc3735a920a3ca505d382bbc610c82565b546001600160a01b0316905090565b610bce8161118b565b610c095760405162461bcd60e51b815260040180806020018281038252602d815260200180611d97602d913960400191505060405180910390fd5b80610c337f360894a13ba1a3210667c828492db98dca3e2076cc3735a920a3ca505d382bbc610c82565b80546001600160a01b0319166001600160a01b039290921691909117905550565b6060610c798383604051806060016040528060278152602001611dc460279139611191565b90505b92915050565b90565b610c8e81610bc5565b6040516001600160a01b038216907fbc7cd75a20ee27fd9adebab32041f755214dbc6bffa90cc0225b39da2e5c2d3b90600090a250565b6000610cd48361ffff16611295565b905060018361ffff161415610d0457600281606001516005811115610cf557fe5b14610cff57600080fd5b610d20565b600181606001516005811115610d1657fe5b14610d2057600080fd5b6000610d2f8461ffff166112a8565b9050826001600160a01b031663fe4b84df610d4d83602001516112f4565b6040518263ffffffff1660e01b8152600401610d699190611d23565b600060405180830381600087803b158015610d8357600080fd5b505af1158015610d97573d6000803e3d6000fd5b505050506000610daa8561ffff16611307565b90506000610db8823061131a565b84516040516370a0823160e01b81529192506000916001600160a01b039091169063db006a759082906370a0823190610df5903090600401611c5b565b60206040518083038186803b158015610e0d57600080fd5b505afa158015610e21573d6000803e3d6000fd5b505050506040513d601f19601f82011682018060405250810190610e459190611c22565b6040518263ffffffff1660e01b8152600401610e619190611d23565b602060405180830381600087803b158015610e7b57600080fd5b505af1158015610e8f573d6000803e3d6000fd5b505050506040513d601f19601f82011682018060405250810190610eb39190611c22565b90508015610edc5760405162461bcd60e51b8152600401610ed390611ced565b60405180910390fd5b6000610ef283610eec863061131a565b906113cb565b905060018861ffff161415610f5a57866001600160a01b0316631249c58b826040518263ffffffff1660e01b81526004016000604051808303818588803b158015610f3c57600080fd5b505af1158015610f50573d6000803e3d6000fd5b505050505061100d565b85518451610f75916001600160a01b039091169060006113e0565b8351610f8d906001600160a01b0316886000196113e0565b60405163140e25ad60e31b81526001600160a01b0388169063a0712d6890610fb9908490600401611d23565b602060405180830381600087803b158015610fd357600080fd5b505af1158015610fe7573d6000803e3d6000fd5b505050506040513d601f19601f8201168201806040525081019061100b9190611c22565b505b608086015168ffffffffffffffffff101561102757600080fd5b6040805160a0810182526001600160a01b03891681526000602082015261110291810161ffff8b1660011461105d576001611060565b60025b600581111561106b57fe5b8152602001896001600160a01b031663313ce5676040518163ffffffff1660e01b815260040160206040518083038186803b1580156110a957600080fd5b505afa1580156110bd573d6000803e3d6000fd5b505050506040513d601f19601f820116820180604052508101906110e19190611c3a565b60ff168152602001886080015168ffffffffffffffffff16815250896114f8565b85516001600160a01b03908116600090815260096020526040808220805461ffff19908116909155928a16825290819020805490921661ffff8b1617909155517f31404ff4a0f1116f17cfc89a376d7cb9cd8dbd8415e6aa24fdcb8e14e60d71429061116f908a90611d14565b60405180910390a161118188886115cc565b5050505050505050565b3b151590565b606061119c8461118b565b6111d75760405162461bcd60e51b8152600401808060200182810382526026815260200180611deb6026913960400191505060405180910390fd5b600080856001600160a01b0316856040518082805190602001908083835b602083106112145780518252601f1990920191602091820191016111f5565b6001836020036101000a038019825116818451168082178552505050505050905001915050600060405180830381855af49150503d8060008114611274576040519150601f19603f3d011682016040523d82523d6000602084013e611279565b606091505b5091509150611289828286611645565b925050505b9392505050565b61129d611ae7565b610c7c8260006116e9565b6112b0611b16565b60008060006112be85611797565b604080516060810182526001600160a01b039093168352602083019390935260ff16600a0a918101919091529350505050919050565b60008082121561130357600080fd5b5090565b61130f611ae7565b610c7c8260016116e9565b600060038360600151600581111561132e57fe5b141561134557506001600160a01b03811631610c7c565b82516040516370a0823160e01b81526001600160a01b03909116906370a0823190611374908590600401611c5b565b60206040518083038186803b15801561138c57600080fd5b505afa1580156113a0573d6000803e3d6000fd5b505050506040513d601f19601f820116820180604052508101906113c49190611c22565b9050610c7c565b6000828211156113da57600080fd5b50900390565b801580611466575060408051636eb1769f60e11b81523060048201526001600160a01b03848116602483015291519185169163dd62ed3e91604480820192602092909190829003018186803b15801561143857600080fd5b505afa15801561144c573d6000803e3d6000fd5b505050506040513d602081101561146257600080fd5b5051155b6114a15760405162461bcd60e51b8152600401808060200182810382526036815260200180611e3b6036913960400191505060405180910390fd5b604080516001600160a01b038416602482015260448082018490528251808303909101815260649091019091526020810180516001600160e01b031663095ea7b360e01b1790526114f390849061185a565b505050565b600061150261190b565b61ffff831660009081526020828152604080832083805282529182902086518154928801511515600160a01b0260ff60a01b196001600160a01b039092166001600160a01b03199094169390931716919091178082559186015192935085929091829060ff60a81b1916600160a81b83600581111561157d57fe5b02179055506060820151815460809093015168ffffffffffffffffff16600160b81b026001600160b81b0360ff909216600160b01b0260ff60b01b199094169390931716919091179055505050565b60006115d6611918565b61ffff84166000908152602082905260409081902080546001600160a01b0319166001600160a01b0386161781559051919250907f6cdee7159e82379f09a4a5d337e4681b6907c7851f6bba2b90e1ccc02aa7a39690611637908690611d14565b60405180910390a150505050565b6060831561165457508161128e565b8251156116645782518084602001fd5b8160405162461bcd60e51b81526004018080602001828103825283818151815260200191508051906020019080838360005b838110156116ae578181015183820152602001611696565b50505050905090810190601f1680156116db5780820380516001836020036101000a031916815260200191505b509250505060405180910390fd5b6116f1611ae7565b60006116fb61190b565b6000858152602082815260408083208715158452825291829020825160a08101845281546001600160a01b038116825260ff600160a01b82048116151594830194909452600160b01b81048416600a0a9482019490945293945092916060830191600160a81b90910416600581111561177057fe5b81529154600160b81b900468ffffffffffffffffff16602090920191909152949350505050565b60008060008060006117a886611925565b909250905060006001600160a01b0383166117cd5750600090506402540be40061184f565b826001600160a01b0316631ee108336040518163ffffffff1660e01b8152600401602060405180830381600087803b15801561180857600080fd5b505af115801561181c573d6000803e3d6000fd5b505050506040513d601f19601f820116820180604052508101906118409190611c22565b90506000811361184f57600080fd5b969195509350915050565b60006118af826040518060400160405280602081526020017f5361666545524332303a206c6f772d6c6576656c2063616c6c206661696c6564815250856001600160a01b031661195c9092919063ffffffff16565b8051909150156114f3578080602001905160208110156118ce57600080fd5b50516114f35760405162461bcd60e51b815260040180806020018281038252602a815260200180611e11602a913960400191505060405180910390fd5b600080610c7c6007611973565b600080610c7c600f611973565b6000806000611932611918565b600094855260205250506040909120546001600160a01b03811692600160a01b90910460ff169150565b606061196b848460008561198c565b949350505050565b6000620f424082601a81111561198557fe5b0192915050565b6060824710156119cd5760405162461bcd60e51b8152600401808060200182810382526026815260200180611d716026913960400191505060405180910390fd5b6119d68561118b565b611a27576040805162461bcd60e51b815260206004820152601d60248201527f416464726573733a2063616c6c20746f206e6f6e2d636f6e7472616374000000604482015290519081900360640190fd5b600080866001600160a01b031685876040518082805190602001908083835b60208310611a655780518252601f199092019160209182019101611a46565b6001836020036101000a03801982511681845116808217855250505050505090500191505060006040518083038185875af1925050503d8060008114611ac7576040519150601f19603f3d011682016040523d82523d6000602084013e611acc565b606091505b5091509150611adc828286611645565b979650505050505050565b6040805160a0810182526000808252602082018190529181018290529060608201908152602001600081525090565b604051806060016040528060006001600160a01b0316815260200160008152602001600081525090565b600060208284031215611b51578081fd5b813561128e81611d2c565b600060208284031215611b6d578081fd5b815161128e81611d2c565b60008060408385031215611b8a578081fd5b8235611b9581611d2c565b915060208381013567ffffffffffffffff80821115611bb2578384fd5b818601915086601f830112611bc5578384fd5b813581811115611bd157fe5b604051601f8201601f1916810185018381118282101715611bee57fe5b6040528181528382018501891015611c04578586fd5b81858501868301378585838301015280955050505050509250929050565b600060208284031215611c33578081fd5b5051919050565b600060208284031215611c4b578081fd5b815160ff8116811461128e578182fd5b6001600160a01b0391909116815260200190565b6001600160a01b039290921682521515602082015260400190565b600060018060a01b038416825260206040818401528351806040850152825b81811015611cc557858101830151858201606001528201611ca9565b81811115611cd65783606083870101525b50601f01601f191692909201606001949350505050565b6020808252600d908201526c14995919595b4811985a5b1959609a1b604082015260600190565b61ffff91909116815260200190565b90815260200190565b6001600160a01b038116811461040057600080fdfe45524331393637557067726164653a207570677261646520627265616b732066757274686572207570677261646573416464726573733a20696e73756666696369656e742062616c616e636520666f722063616c6c455243313936373a206e657720696d706c656d656e746174696f6e206973206e6f74206120636f6e7472616374416464726573733a206c6f772d6c6576656c2064656c65676174652063616c6c206661696c6564416464726573733a2064656c65676174652063616c6c20746f206e6f6e2d636f6e74726163745361666545524332303a204552433230206f7065726174696f6e20646964206e6f7420737563636565645361666545524332303a20617070726f76652066726f6d206e6f6e2d7a65726f20746f206e6f6e2d7a65726f20616c6c6f77616e6365a264697066735822122027422dc410275379ca4eec9116dcea8c964f6d516d38e7fcd027675b77c419d964736f6c63430007060033","bytecodeSha1":"807be8c1dc9e00385791181a0685a3b3a2118a8b","compiler":{"evm_version":"istanbul","optimizer":{"enabled":true,"runs":200},"version":"0.7.6+commit.7338295f"},"contractName":"MigrateCTokens","language":"Solidity","natspec":{"kind":"dev","methods":{"atomicPatchAndUpgrade()":{"notice":"The owner of the proxy can call this method to run the patch fix code and upgrade the router. The owner must first transfer ownership to this contract, so that the upgrade methods can succeed. At the end of the method, ownership will be transferred back to the owner."},"patchFix()":{"details":"Can only be called by this contract during the `upgradeToAndCall` method"},"upgradeTo(address)":{"details":"Upgrade the implementation of the proxy to `newImplementation`. Calls {_authorizeUpgrade}. Emits an {Upgraded} event."},"upgradeToAndCall(address,bytes)":{"details":"Upgrade the implementation of the proxy to `newImplementation`, and subsequently execute the function call encoded in `data`. Calls {_authorizeUpgrade}. Emits an {Upgraded} event."}},"version":1},"opcodes":"PUSH1 0x80 PUSH1 0x40 MSTORE PUSH1 0x4 CALLDATASIZE LT PUSH2 0xFE JUMPI PUSH1 0x0 CALLDATALOAD PUSH1 0xE0 SHR DUP1 PUSH4 0x7E2CEE25 GT PUSH2 0x95 JUMPI DUP1 PUSH4 0x8DA5CB5B GT PUSH2 0x64 JUMPI DUP1 PUSH4 0x8DA5CB5B EQ PUSH2 0x220 JUMPI DUP1 PUSH4 0x8DBBCB9C EQ PUSH2 0x235 JUMPI DUP1 PUSH4 0xCAC510CF EQ PUSH2 0x24A JUMPI DUP1 PUSH4 0xE2960E66 EQ PUSH2 0x25F JUMPI DUP1 PUSH4 0xF028E6FB EQ PUSH2 0x274 JUMPI PUSH2 0xFE JUMP JUMPDEST DUP1 PUSH4 0x7E2CEE25 EQ PUSH2 0x1CC JUMPI DUP1 PUSH4 0x82463367 EQ PUSH2 0x1E1 JUMPI DUP1 PUSH4 0x858DCCB3 EQ PUSH2 0x1F6 JUMPI DUP1 PUSH4 0x8D6AC768 EQ PUSH2 0x20B JUMPI PUSH2 0xFE JUMP JUMPDEST DUP1 PUSH4 0x297D1A34 GT PUSH2 0xD1 JUMPI DUP1 PUSH4 0x297D1A34 EQ PUSH2 0x16D JUMPI DUP1 PUSH4 0x3659CFE6 EQ PUSH2 0x184 JUMPI DUP1 PUSH4 0x43DC9BB2 EQ PUSH2 0x1A4 JUMPI DUP1 PUSH4 0x4F1EF286 EQ PUSH2 0x1B9 JUMPI PUSH2 0xFE JUMP JUMPDEST DUP1 PUSH4 0xAE87890 EQ PUSH2 0x103 JUMPI DUP1 PUSH4 0x117803E3 EQ PUSH2 0x12E JUMPI DUP1 PUSH4 0x24A3D622 EQ PUSH2 0x143 JUMPI DUP1 PUSH4 0x26BD0C4E EQ PUSH2 0x158 JUMPI JUMPDEST PUSH1 0x0 DUP1 REVERT JUMPDEST CALLVALUE DUP1 ISZERO PUSH2 0x10F JUMPI PUSH1 0x0 DUP1 REVERT JUMPDEST POP PUSH2 0x118 PUSH2 0x289 JUMP JUMPDEST PUSH1 0x40 MLOAD PUSH2 0x125 SWAP2 SWAP1 PUSH2 0x1C5B JUMP JUMPDEST PUSH1 0x40 MLOAD DUP1 SWAP2 SUB SWAP1 RETURN JUMPDEST CALLVALUE DUP1 ISZERO PUSH2 0x13A JUMPI PUSH1 0x0 DUP1 REVERT JUMPDEST POP PUSH2 0x118 PUSH2 0x2AD JUMP JUMPDEST CALLVALUE DUP1 ISZERO PUSH2 0x14F JUMPI PUSH1 0x0 DUP1 REVERT JUMPDEST POP PUSH2 0x118 PUSH2 0x2D1 JUMP JUMPDEST CALLVALUE DUP1 ISZERO PUSH2 0x164 JUMPI PUSH1 0x0 DUP1 REVERT JUMPDEST POP PUSH2 0x118 PUSH2 0x2E0 JUMP JUMPDEST CALLVALUE DUP1 ISZERO PUSH2 0x179 JUMPI PUSH1 0x0 DUP1 REVERT JUMPDEST POP PUSH2 0x182 PUSH2 0x304 JUMP JUMPDEST STOP JUMPDEST CALLVALUE DUP1 ISZERO PUSH2 0x190 JUMPI PUSH1 0x0 DUP1 REVERT JUMPDEST POP PUSH2 0x182 PUSH2 0x19F CALLDATASIZE PUSH1 0x4 PUSH2 0x1B40 JUMP JUMPDEST PUSH2 0x3DC JUMP JUMPDEST CALLVALUE DUP1 ISZERO PUSH2 0x1B0 JUMPI PUSH1 0x0 DUP1 REVERT JUMPDEST POP PUSH2 0x118 PUSH2 0x403 JUMP JUMPDEST PUSH2 0x182 PUSH2 0x1C7 CALLDATASIZE PUSH1 0x4 PUSH2 0x1B78 JUMP JUMPDEST PUSH2 0x427 JUMP JUMPDEST CALLVALUE DUP1 ISZERO PUSH2 0x1D8 JUMPI PUSH1 0x0 DUP1 REVERT JUMPDEST POP PUSH2 0x118 PUSH2 0x440 JUMP JUMPDEST CALLVALUE DUP1 ISZERO PUSH2 0x1ED JUMPI PUSH1 0x0 DUP1 REVERT JUMPDEST POP PUSH2 0x118 PUSH2 0x464 JUMP JUMPDEST CALLVALUE DUP1 ISZERO PUSH2 0x202 JUMPI PUSH1 0x0 DUP1 REVERT JUMPDEST POP PUSH2 0x118 PUSH2 0x473 JUMP JUMPDEST CALLVALUE DUP1 ISZERO PUSH2 0x217 JUMPI PUSH1 0x0 DUP1 REVERT JUMPDEST POP PUSH2 0x118 PUSH2 0x497 JUMP JUMPDEST CALLVALUE DUP1 ISZERO PUSH2 0x22C JUMPI PUSH1 0x0 DUP1 REVERT JUMPDEST POP PUSH2 0x118 PUSH2 0x4BB JUMP JUMPDEST CALLVALUE DUP1 ISZERO PUSH2 0x241 JUMPI PUSH1 0x0 DUP1 REVERT JUMPDEST POP PUSH2 0x118 PUSH2 0x4D2 JUMP JUMPDEST CALLVALUE DUP1 ISZERO PUSH2 0x256 JUMPI PUSH1 0x0 DUP1 REVERT JUMPDEST POP PUSH2 0x118 PUSH2 0x4F6 JUMP JUMPDEST CALLVALUE DUP1 ISZERO PUSH2 0x26B JUMPI PUSH1 0x0 DUP1 REVERT JUMPDEST POP PUSH2 0x182 PUSH2 0x51A JUMP JUMPDEST CALLVALUE DUP1 ISZERO PUSH2 0x280 JUMPI PUSH1 0x0 DUP1 REVERT JUMPDEST POP PUSH2 0x182 PUSH2 0x8C0 JUMP JUMPDEST PUSH32 0x0 DUP2 JUMP JUMPDEST PUSH32 0x0 DUP2 JUMP JUMPDEST PUSH1 0x2 SLOAD PUSH1 0x1 PUSH1 0x1 PUSH1 0xA0 SHL SUB AND DUP2 JUMP JUMPDEST PUSH32 0x0 DUP2 JUMP JUMPDEST CALLER PUSH1 0x1 PUSH1 0x1 PUSH1 0xA0 SHL SUB PUSH32 0x0 AND EQ PUSH2 0x339 JUMPI PUSH1 0x0 DUP1 REVERT JUMPDEST PUSH1 0x40 MLOAD PUSH4 0x2C90B94D PUSH1 0xE2 SHL DUP2 MSTORE PUSH1 0x1 PUSH1 0x1 PUSH1 0xA0 SHL SUB PUSH32 0x0 AND SWAP1 PUSH4 0xB242E534 SWAP1 PUSH2 0x3A8 SWAP1 PUSH32 0x0 SWAP1 PUSH1 0x1 SWAP1 PUSH1 0x4 ADD PUSH2 0x1C6F JUMP JUMPDEST PUSH1 0x0 PUSH1 0x40 MLOAD DUP1 DUP4 SUB DUP2 PUSH1 0x0 DUP8 DUP1 EXTCODESIZE ISZERO DUP1 ISZERO PUSH2 0x3C2 JUMPI PUSH1 0x0 DUP1 REVERT JUMPDEST POP GAS CALL ISZERO DUP1 ISZERO PUSH2 0x3D6 JUMPI RETURNDATASIZE PUSH1 0x0 DUP1 RETURNDATACOPY RETURNDATASIZE PUSH1 0x0 REVERT JUMPDEST POP POP POP POP JUMP JUMPDEST PUSH2 0x3E5 DUP2 PUSH2 0x8FF JUMP JUMPDEST PUSH2 0x400 DUP2 PUSH1 0x40 MLOAD DUP1 PUSH1 0x20 ADD PUSH1 0x40 MSTORE DUP1 PUSH1 0x0 DUP2 MSTORE POP PUSH1 0x0 PUSH2 0x9AC JUMP JUMPDEST POP JUMP JUMPDEST PUSH32 0x0 DUP2 JUMP JUMPDEST PUSH2 0x430 DUP3 PUSH2 0x8FF JUMP JUMPDEST PUSH2 0x43C DUP3 DUP3 PUSH1 0x1 PUSH2 0x9AC JUMP JUMPDEST POP POP JUMP JUMPDEST PUSH32 0x0 DUP2 JUMP JUMPDEST PUSH1 0x1 SLOAD PUSH1 0x1 PUSH1 0x1 PUSH1 0xA0 SHL SUB AND DUP2 JUMP JUMPDEST PUSH32 0x0 DUP2 JUMP JUMPDEST PUSH32 0x0 DUP2 JUMP JUMPDEST PUSH1 0x0 SLOAD PUSH5 0x100000000 SWAP1 DIV PUSH1 0x1 PUSH1 0x1 PUSH1 0xA0 SHL SUB AND DUP2 JUMP JUMPDEST PUSH32 0x0 DUP2 JUMP JUMPDEST PUSH32 0x0 DUP2 JUMP JUMPDEST CALLER PUSH1 0x1 PUSH1 0x1 PUSH1 0xA0 SHL SUB PUSH32 0x0 AND EQ PUSH2 0x54F JUMPI PUSH1 0x0 DUP1 REVERT JUMPDEST PUSH32 0x0 PUSH1 0x1 PUSH1 0x1 PUSH1 0xA0 SHL SUB AND PUSH4 0x4E71E0C8 PUSH1 0x40 MLOAD DUP2 PUSH4 0xFFFFFFFF AND PUSH1 0xE0 SHL DUP2 MSTORE PUSH1 0x4 ADD PUSH1 0x0 PUSH1 0x40 MLOAD DUP1 DUP4 SUB DUP2 PUSH1 0x0 DUP8 DUP1 EXTCODESIZE ISZERO DUP1 ISZERO PUSH2 0x5AA JUMPI PUSH1 0x0 DUP1 REVERT JUMPDEST POP GAS CALL ISZERO DUP1 ISZERO PUSH2 0x5BE JUMPI RETURNDATASIZE PUSH1 0x0 DUP1 RETURNDATACOPY RETURNDATASIZE PUSH1 0x0 REVERT JUMPDEST POP POP PUSH1 0x40 DUP1 MLOAD PUSH1 0x4 DUP1 DUP3 MSTORE PUSH1 0x24 DUP3 ADD DUP4 MSTORE PUSH1 0x20 DUP3 ADD DUP1 MLOAD PUSH1 0x1 PUSH1 0x1 PUSH1 0xE0 SHL SUB AND PUSH4 0xF028E6FB PUSH1 0xE0 SHL OR SWAP1 MSTORE SWAP2 MLOAD PUSH4 0x278F7943 PUSH1 0xE1 SHL DUP2 MSTORE PUSH1 0x1 PUSH1 0x1 PUSH1 0xA0 SHL SUB PUSH32 0x0 AND SWAP5 POP PUSH4 0x4F1EF286 SWAP4 POP PUSH2 0x655 SWAP3 PUSH32 0x0 SWAP3 SWAP2 ADD PUSH2 0x1C8A JUMP JUMPDEST PUSH1 0x0 PUSH1 0x40 MLOAD DUP1 DUP4 SUB DUP2 PUSH1 0x0 DUP8 DUP1 EXTCODESIZE ISZERO DUP1 ISZERO PUSH2 0x66F JUMPI PUSH1 0x0 DUP1 REVERT JUMPDEST POP GAS CALL ISZERO DUP1 ISZERO PUSH2 0x683 JUMPI RETURNDATASIZE PUSH1 0x0 DUP1 RETURNDATACOPY RETURNDATASIZE PUSH1 0x0 REVERT JUMPDEST POP POP PUSH1 0x40 MLOAD PUSH4 0x1B2CE7F3 PUSH1 0xE1 SHL DUP2 MSTORE PUSH1 0x1 PUSH1 0x1 PUSH1 0xA0 SHL SUB PUSH32 0x0 AND SWAP3 POP PUSH4 0x3659CFE6 SWAP2 POP PUSH2 0x6F3 SWAP1 PUSH32 0x0 SWAP1 PUSH1 0x4 ADD PUSH2 0x1C5B JUMP JUMPDEST PUSH1 0x0 PUSH1 0x40 MLOAD DUP1 DUP4 SUB DUP2 PUSH1 0x0 DUP8 DUP1 EXTCODESIZE ISZERO DUP1 ISZERO PUSH2 0x70D JUMPI PUSH1 0x0 DUP1 REVERT JUMPDEST POP GAS CALL ISZERO DUP1 ISZERO PUSH2 0x721 JUMPI RETURNDATASIZE PUSH1 0x0 DUP1 RETURNDATACOPY RETURNDATASIZE PUSH1 0x0 REVERT JUMPDEST POP POP PUSH1 0x40 MLOAD PUSH4 0x2C90B94D PUSH1 0xE2 SHL DUP2 MSTORE PUSH1 0x1 PUSH1 0x1 PUSH1 0xA0 SHL SUB PUSH32 0x0 AND SWAP3 POP PUSH4 0xB242E534 SWAP2 POP PUSH2 0x794 SWAP1 PUSH32 0x0 SWAP1 PUSH1 0x1 SWAP1 PUSH1 0x4 ADD PUSH2 0x1C6F JUMP JUMPDEST PUSH1 0x0 PUSH1 0x40 MLOAD DUP1 DUP4 SUB DUP2 PUSH1 0x0 DUP8 DUP1 EXTCODESIZE ISZERO DUP1 ISZERO PUSH2 0x7AE JUMPI PUSH1 0x0 DUP1 REVERT JUMPDEST POP GAS CALL ISZERO DUP1 ISZERO PUSH2 0x7C2 JUMPI RETURNDATASIZE PUSH1 0x0 DUP1 RETURNDATACOPY RETURNDATASIZE PUSH1 0x0 REVERT JUMPDEST POP POP POP POP PUSH32 0x0 PUSH1 0x1 PUSH1 0x1 PUSH1 0xA0 SHL SUB AND PUSH32 0x0 PUSH1 0x1 PUSH1 0x1 PUSH1 0xA0 SHL SUB AND PUSH4 0x8DA5CB5B PUSH1 0x40 MLOAD DUP2 PUSH4 0xFFFFFFFF AND PUSH1 0xE0 SHL DUP2 MSTORE PUSH1 0x4 ADD PUSH1 0x20 PUSH1 0x40 MLOAD DUP1 DUP4 SUB DUP2 DUP7 DUP1 EXTCODESIZE ISZERO DUP1 ISZERO PUSH2 0x849 JUMPI PUSH1 0x0 DUP1 REVERT JUMPDEST POP GAS STATICCALL ISZERO DUP1 ISZERO PUSH2 0x85D JUMPI RETURNDATASIZE PUSH1 0x0 DUP1 RETURNDATACOPY RETURNDATASIZE PUSH1 0x0 REVERT JUMPDEST POP POP POP POP PUSH1 0x40 MLOAD RETURNDATASIZE PUSH1 0x1F NOT PUSH1 0x1F DUP3 ADD AND DUP3 ADD DUP1 PUSH1 0x40 MSTORE POP DUP2 ADD SWAP1 PUSH2 0x881 SWAP2 SWAP1 PUSH2 0x1B5C JUMP JUMPDEST PUSH1 0x1 PUSH1 0x1 PUSH1 0xA0 SHL SUB AND EQ PUSH2 0x894 JUMPI PUSH1 0x0 DUP1 REVERT JUMPDEST PUSH32 0x0 PUSH1 0x1 PUSH1 0x1 PUSH1 0xA0 SHL SUB AND SELFDESTRUCT JUMPDEST CALLER PUSH1 0x1 PUSH1 0x1 PUSH1 0xA0 SHL SUB PUSH32 0x0 AND EQ PUSH2 0x8F5 JUMPI PUSH1 0x0 DUP1 REVERT JUMPDEST PUSH2 0x8FD PUSH2 0xADF JUMP JUMPDEST JUMP JUMPDEST CALLER PUSH1 0x1 PUSH1 0x1 PUSH1 0xA0 SHL SUB PUSH32 0x0 AND EQ DUP1 ISZERO PUSH2 0x9A3 JUMPI POP PUSH32 0x0 PUSH1 0x1 PUSH1 0x1 PUSH1 0xA0 SHL SUB AND DUP2 PUSH1 0x1 PUSH1 0x1 PUSH1 0xA0 SHL SUB AND EQ DUP1 PUSH2 0x9A3 JUMPI POP PUSH32 0x0 PUSH1 0x1 PUSH1 0x1 PUSH1 0xA0 SHL SUB AND DUP2 PUSH1 0x1 PUSH1 0x1 PUSH1 0xA0 SHL SUB AND EQ JUMPDEST PUSH2 0x400 JUMPI PUSH1 0x0 DUP1 REVERT JUMPDEST PUSH1 0x0 PUSH2 0x9B6 PUSH2 0xB8B JUMP JUMPDEST SWAP1 POP PUSH2 0x9C1 DUP5 PUSH2 0xBC5 JUMP JUMPDEST PUSH1 0x0 DUP4 MLOAD GT DUP1 PUSH2 0x9CE JUMPI POP DUP2 JUMPDEST ISZERO PUSH2 0x9DF JUMPI PUSH2 0x9DD DUP5 DUP5 PUSH2 0xC54 JUMP JUMPDEST POP JUMPDEST PUSH1 0x0 PUSH2 0xA0A PUSH32 0x4910FDFA16FED3260ED0E7147F7CC6DA11A60208B5B9406D12A635614FFD9143 PUSH2 0xC82 JUMP JUMPDEST DUP1 SLOAD SWAP1 SWAP2 POP PUSH1 0xFF AND PUSH2 0xAD8 JUMPI DUP1 SLOAD PUSH1 0xFF NOT AND PUSH1 0x1 OR DUP2 SSTORE PUSH1 0x40 DUP1 MLOAD PUSH1 0x1 PUSH1 0x1 PUSH1 0xA0 SHL SUB DUP5 AND PUSH1 0x24 DUP1 DUP4 ADD SWAP2 SWAP1 SWAP2 MSTORE DUP3 MLOAD DUP1 DUP4 SUB SWAP1 SWAP2 ADD DUP2 MSTORE PUSH1 0x44 SWAP1 SWAP2 ADD SWAP1 SWAP2 MSTORE PUSH1 0x20 DUP2 ADD DUP1 MLOAD PUSH1 0x1 PUSH1 0x1 PUSH1 0xE0 SHL SUB AND PUSH4 0x1B2CE7F3 PUSH1 0xE1 SHL OR SWAP1 MSTORE PUSH2 0xA6F SWAP1 DUP7 SWAP1 PUSH2 0xC54 JUMP JUMPDEST POP DUP1 SLOAD PUSH1 0xFF NOT AND DUP2 SSTORE PUSH2 0xA80 PUSH2 0xB8B JUMP JUMPDEST PUSH1 0x1 PUSH1 0x1 PUSH1 0xA0 SHL SUB AND DUP3 PUSH1 0x1 PUSH1 0x1 PUSH1 0xA0 SHL SUB AND EQ PUSH2 0xACF JUMPI PUSH1 0x40 MLOAD PUSH3 0x461BCD PUSH1 0xE5 SHL DUP2 MSTORE PUSH1 0x4 ADD DUP1 DUP1 PUSH1 0x20 ADD DUP3 DUP2 SUB DUP3 MSTORE PUSH1 0x2F DUP2 MSTORE PUSH1 0x20 ADD DUP1 PUSH2 0x1D42 PUSH1 0x2F SWAP2 CODECOPY PUSH1 0x40 ADD SWAP2 POP POP PUSH1 0x40 MLOAD DUP1 SWAP2 SUB SWAP1 REVERT JUMPDEST PUSH2 0xAD8 DUP6 PUSH2 0xC85 JUMP JUMPDEST POP POP POP POP POP JUMP JUMPDEST PUSH2 0xB0A PUSH1 0x1 PUSH32 0x0 PUSH2 0xCC5 JUMP JUMPDEST PUSH2 0xB35 PUSH1 0x2 PUSH32 0x0 PUSH2 0xCC5 JUMP JUMPDEST PUSH2 0xB60 PUSH1 0x3 PUSH32 0x0 PUSH2 0xCC5 JUMP JUMPDEST PUSH2 0x8FD PUSH1 0x4 PUSH32 0x0 PUSH2 0xCC5 JUMP JUMPDEST PUSH1 0x0 PUSH2 0xBB6 PUSH32 0x360894A13BA1A3210667C828492DB98DCA3E2076CC3735A920A3CA505D382BBC PUSH2 0xC82 JUMP JUMPDEST SLOAD PUSH1 0x1 PUSH1 0x1 PUSH1 0xA0 SHL SUB AND SWAP1 POP SWAP1 JUMP JUMPDEST PUSH2 0xBCE DUP2 PUSH2 0x118B JUMP JUMPDEST PUSH2 0xC09 JUMPI PUSH1 0x40 MLOAD PUSH3 0x461BCD PUSH1 0xE5 SHL DUP2 MSTORE PUSH1 0x4 ADD DUP1 DUP1 PUSH1 0x20 ADD DUP3 DUP2 SUB DUP3 MSTORE PUSH1 0x2D DUP2 MSTORE PUSH1 0x20 ADD DUP1 PUSH2 0x1D97 PUSH1 0x2D SWAP2 CODECOPY PUSH1 0x40 ADD SWAP2 POP POP PUSH1 0x40 MLOAD DUP1 SWAP2 SUB SWAP1 REVERT JUMPDEST DUP1 PUSH2 0xC33 PUSH32 0x360894A13BA1A3210667C828492DB98DCA3E2076CC3735A920A3CA505D382BBC PUSH2 0xC82 JUMP JUMPDEST DUP1 SLOAD PUSH1 0x1 PUSH1 0x1 PUSH1 0xA0 SHL SUB NOT AND PUSH1 0x1 PUSH1 0x1 PUSH1 0xA0 SHL SUB SWAP3 SWAP1 SWAP3 AND SWAP2 SWAP1 SWAP2 OR SWAP1 SSTORE POP JUMP JUMPDEST PUSH1 0x60 PUSH2 0xC79 DUP4 DUP4 PUSH1 0x40 MLOAD DUP1 PUSH1 0x60 ADD PUSH1 0x40 MSTORE DUP1 PUSH1 0x27 DUP2 MSTORE PUSH1 0x20 ADD PUSH2 0x1DC4 PUSH1 0x27 SWAP2 CODECOPY PUSH2 0x1191 JUMP JUMPDEST SWAP1 POP JUMPDEST SWAP3 SWAP2 POP POP JUMP JUMPDEST SWAP1 JUMP JUMPDEST PUSH2 0xC8E DUP2 PUSH2 0xBC5 JUMP JUMPDEST PUSH1 0x40 MLOAD PUSH1 0x1 PUSH1 0x1 PUSH1 0xA0 SHL SUB DUP3 AND SWAP1 PUSH32 0xBC7CD75A20EE27FD9ADEBAB32041F755214DBC6BFFA90CC0225B39DA2E5C2D3B SWAP1 PUSH1 0x0 SWAP1 LOG2 POP JUMP JUMPDEST PUSH1 0x0 PUSH2 0xCD4 DUP4 PUSH2 0xFFFF AND PUSH2 0x1295 JUMP JUMPDEST SWAP1 POP PUSH1 0x1 DUP4 PUSH2 0xFFFF AND EQ ISZERO PUSH2 0xD04 JUMPI PUSH1 0x2 DUP2 PUSH1 0x60 ADD MLOAD PUSH1 0x5 DUP2 GT ISZERO PUSH2 0xCF5 JUMPI INVALID JUMPDEST EQ PUSH2 0xCFF JUMPI PUSH1 0x0 DUP1 REVERT JUMPDEST PUSH2 0xD20 JUMP JUMPDEST PUSH1 0x1 DUP2 PUSH1 0x60 ADD MLOAD PUSH1 0x5 DUP2 GT ISZERO PUSH2 0xD16 JUMPI INVALID JUMPDEST EQ PUSH2 0xD20 JUMPI PUSH1 0x0 DUP1 REVERT JUMPDEST PUSH1 0x0 PUSH2 0xD2F DUP5 PUSH2 0xFFFF AND PUSH2 0x12A8 JUMP JUMPDEST SWAP1 POP DUP3 PUSH1 0x1 PUSH1 0x1 PUSH1 0xA0 SHL SUB AND PUSH4 0xFE4B84DF PUSH2 0xD4D DUP4 PUSH1 0x20 ADD MLOAD PUSH2 0x12F4 JUMP JUMPDEST PUSH1 0x40 MLOAD DUP3 PUSH4 0xFFFFFFFF AND PUSH1 0xE0 SHL DUP2 MSTORE PUSH1 0x4 ADD PUSH2 0xD69 SWAP2 SWAP1 PUSH2 0x1D23 JUMP JUMPDEST PUSH1 0x0 PUSH1 0x40 MLOAD DUP1 DUP4 SUB DUP2 PUSH1 0x0 DUP8 DUP1 EXTCODESIZE ISZERO DUP1 ISZERO PUSH2 0xD83 JUMPI PUSH1 0x0 DUP1 REVERT JUMPDEST POP GAS CALL ISZERO DUP1 ISZERO PUSH2 0xD97 JUMPI RETURNDATASIZE PUSH1 0x0 DUP1 RETURNDATACOPY RETURNDATASIZE PUSH1 0x0 REVERT JUMPDEST POP POP POP POP PUSH1 0x0 PUSH2 0xDAA DUP6 PUSH2 0xFFFF AND PUSH2 0x1307 JUMP JUMPDEST SWAP1 POP PUSH1 0x0 PUSH2 0xDB8 DUP3 ADDRESS PUSH2 0x131A JUMP JUMPDEST DUP5 MLOAD PUSH1 0x40 MLOAD PUSH4 0x70A08231 PUSH1 0xE0 SHL DUP2 MSTORE SWAP2 SWAP3 POP PUSH1 0x0 SWAP2 PUSH1 0x1 PUSH1 0x1 PUSH1 0xA0 SHL SUB SWAP1 SWAP2 AND SWAP1 PUSH4 0xDB006A75 SWAP1 DUP3 SWAP1 PUSH4 0x70A08231 SWAP1 PUSH2 0xDF5 SWAP1 ADDRESS SWAP1 PUSH1 0x4 ADD PUSH2 0x1C5B JUMP JUMPDEST PUSH1 0x20 PUSH1 0x40 MLOAD DUP1 DUP4 SUB DUP2 DUP7 DUP1 EXTCODESIZE ISZERO DUP1 ISZERO PUSH2 0xE0D JUMPI PUSH1 0x0 DUP1 REVERT JUMPDEST POP GAS STATICCALL ISZERO DUP1 ISZERO PUSH2 0xE21 JUMPI RETURNDATASIZE PUSH1 0x0 DUP1 RETURNDATACOPY RETURNDATASIZE PUSH1 0x0 REVERT JUMPDEST POP POP POP POP PUSH1 0x40 MLOAD RETURNDATASIZE PUSH1 0x1F NOT PUSH1 0x1F DUP3 ADD AND DUP3 ADD DUP1 PUSH1 0x40 MSTORE POP DUP2 ADD SWAP1 PUSH2 0xE45 SWAP2 SWAP1 PUSH2 0x1C22 JUMP JUMPDEST PUSH1 0x40 MLOAD DUP3 PUSH4 0xFFFFFFFF AND PUSH1 0xE0 SHL DUP2 MSTORE PUSH1 0x4 ADD PUSH2 0xE61 SWAP2 SWAP1 PUSH2 0x1D23 JUMP JUMPDEST PUSH1 0x20 PUSH1 0x40 MLOAD DUP1 DUP4 SUB DUP2 PUSH1 0x0 DUP8 DUP1 EXTCODESIZE ISZERO DUP1 ISZERO PUSH2 0xE7B JUMPI PUSH1 0x0 DUP1 REVERT JUMPDEST POP GAS CALL ISZERO DUP1 ISZERO PUSH2 0xE8F JUMPI RETURNDATASIZE PUSH1 0x0 DUP1 RETURNDATACOPY RETURNDATASIZE PUSH1 0x0 REVERT JUMPDEST POP POP POP POP PUSH1 0x40 MLOAD RETURNDATASIZE PUSH1 0x1F NOT PUSH1 0x1F DUP3 ADD AND DUP3 ADD DUP1 PUSH1 0x40 MSTORE POP DUP2 ADD SWAP1 PUSH2 0xEB3 SWAP2 SWAP1 PUSH2 0x1C22 JUMP JUMPDEST SWAP1 POP DUP1 ISZERO PUSH2 0xEDC JUMPI PUSH1 0x40 MLOAD PUSH3 0x461BCD PUSH1 0xE5 SHL DUP2 MSTORE PUSH1 0x4 ADD PUSH2 0xED3 SWAP1 PUSH2 0x1CED JUMP JUMPDEST PUSH1 0x40 MLOAD DUP1 SWAP2 SUB SWAP1 REVERT JUMPDEST PUSH1 0x0 PUSH2 0xEF2 DUP4 PUSH2 0xEEC DUP7 ADDRESS PUSH2 0x131A JUMP JUMPDEST SWAP1 PUSH2 0x13CB JUMP JUMPDEST SWAP1 POP PUSH1 0x1 DUP9 PUSH2 0xFFFF AND EQ ISZERO PUSH2 0xF5A JUMPI DUP7 PUSH1 0x1 PUSH1 0x1 PUSH1 0xA0 SHL SUB AND PUSH4 0x1249C58B DUP3 PUSH1 0x40 MLOAD DUP3 PUSH4 0xFFFFFFFF AND PUSH1 0xE0 SHL DUP2 MSTORE PUSH1 0x4 ADD PUSH1 0x0 PUSH1 0x40 MLOAD DUP1 DUP4 SUB DUP2 DUP6 DUP9 DUP1 EXTCODESIZE ISZERO DUP1 ISZERO PUSH2 0xF3C JUMPI PUSH1 0x0 DUP1 REVERT JUMPDEST POP GAS CALL ISZERO DUP1 ISZERO PUSH2 0xF50 JUMPI RETURNDATASIZE PUSH1 0x0 DUP1 RETURNDATACOPY RETURNDATASIZE PUSH1 0x0 REVERT JUMPDEST POP POP POP POP POP PUSH2 0x100D JUMP JUMPDEST DUP6 MLOAD DUP5 MLOAD PUSH2 0xF75 SWAP2 PUSH1 0x1 PUSH1 0x1 PUSH1 0xA0 SHL SUB SWAP1 SWAP2 AND SWAP1 PUSH1 0x0 PUSH2 0x13E0 JUMP JUMPDEST DUP4 MLOAD PUSH2 0xF8D SWAP1 PUSH1 0x1 PUSH1 0x1 PUSH1 0xA0 SHL SUB AND DUP9 PUSH1 0x0 NOT PUSH2 0x13E0 JUMP JUMPDEST PUSH1 0x40 MLOAD PUSH4 0x140E25AD PUSH1 0xE3 SHL DUP2 MSTORE PUSH1 0x1 PUSH1 0x1 PUSH1 0xA0 SHL SUB DUP9 AND SWAP1 PUSH4 0xA0712D68 SWAP1 PUSH2 0xFB9 SWAP1 DUP5 SWAP1 PUSH1 0x4 ADD PUSH2 0x1D23 JUMP JUMPDEST PUSH1 0x20 PUSH1 0x40 MLOAD DUP1 DUP4 SUB DUP2 PUSH1 0x0 DUP8 DUP1 EXTCODESIZE ISZERO DUP1 ISZERO PUSH2 0xFD3 JUMPI PUSH1 0x0 DUP1 REVERT JUMPDEST POP GAS CALL ISZERO DUP1 ISZERO PUSH2 0xFE7 JUMPI RETURNDATASIZE PUSH1 0x0 DUP1 RETURNDATACOPY RETURNDATASIZE PUSH1 0x0 REVERT JUMPDEST POP POP POP POP PUSH1 0x40 MLOAD RETURNDATASIZE PUSH1 0x1F NOT PUSH1 0x1F DUP3 ADD AND DUP3 ADD DUP1 PUSH1 0x40 MSTORE POP DUP2 ADD SWAP1 PUSH2 0x100B SWAP2 SWAP1 PUSH2 0x1C22 JUMP JUMPDEST POP JUMPDEST PUSH1 0x80 DUP7 ADD MLOAD PUSH9 0xFFFFFFFFFFFFFFFFFF LT ISZERO PUSH2 0x1027 JUMPI PUSH1 0x0 DUP1 REVERT JUMPDEST PUSH1 0x40 DUP1 MLOAD PUSH1 0xA0 DUP2 ADD DUP3 MSTORE PUSH1 0x1 PUSH1 0x1 PUSH1 0xA0 SHL SUB DUP10 AND DUP2 MSTORE PUSH1 0x0 PUSH1 0x20 DUP3 ADD MSTORE PUSH2 0x1102 SWAP2 DUP2 ADD PUSH2 0xFFFF DUP12 AND PUSH1 0x1 EQ PUSH2 0x105D JUMPI PUSH1 0x1 PUSH2 0x1060 JUMP JUMPDEST PUSH1 0x2 JUMPDEST PUSH1 0x5 DUP2 GT ISZERO PUSH2 0x106B JUMPI INVALID JUMPDEST DUP2 MSTORE PUSH1 0x20 ADD DUP10 PUSH1 0x1 PUSH1 0x1 PUSH1 0xA0 SHL SUB AND PUSH4 0x313CE567 PUSH1 0x40 MLOAD DUP2 PUSH4 0xFFFFFFFF AND PUSH1 0xE0 SHL DUP2 MSTORE PUSH1 0x4 ADD PUSH1 0x20 PUSH1 0x40 MLOAD DUP1 DUP4 SUB DUP2 DUP7 DUP1 EXTCODESIZE ISZERO DUP1 ISZERO PUSH2 0x10A9 JUMPI PUSH1 0x0 DUP1 REVERT JUMPDEST POP GAS STATICCALL ISZERO DUP1 ISZERO PUSH2 0x10BD JUMPI RETURNDATASIZE PUSH1 0x0 DUP1 RETURNDATACOPY RETURNDATASIZE PUSH1 0x0 REVERT JUMPDEST POP POP POP POP PUSH1 0x40 MLOAD RETURNDATASIZE PUSH1 0x1F NOT PUSH1 0x1F DUP3 ADD AND DUP3 ADD DUP1 PUSH1 0x40 MSTORE POP DUP2 ADD SWAP1 PUSH2 0x10E1 SWAP2 SWAP1 PUSH2 0x1C3A JUMP JUMPDEST PUSH1 0xFF AND DUP2 MSTORE PUSH1 0x20 ADD DUP9 PUSH1 0x80 ADD MLOAD PUSH9 0xFFFFFFFFFFFFFFFFFF AND DUP2 MSTORE POP DUP10 PUSH2 0x14F8 JUMP JUMPDEST DUP6 MLOAD PUSH1 0x1 PUSH1 0x1 PUSH1 0xA0 SHL SUB SWAP1 DUP2 AND PUSH1 0x0 SWAP1 DUP2 MSTORE PUSH1 0x9 PUSH1 0x20 MSTORE PUSH1 0x40 DUP1 DUP3 KECCAK256 DUP1 SLOAD PUSH2 0xFFFF NOT SWAP1 DUP2 AND SWAP1 SWAP2 SSTORE SWAP3 DUP11 AND DUP3 MSTORE SWAP1 DUP2 SWAP1 KECCAK256 DUP1 SLOAD SWAP1 SWAP3 AND PUSH2 0xFFFF DUP12 AND OR SWAP1 SWAP2 SSTORE MLOAD PUSH32 0x31404FF4A0F1116F17CFC89A376D7CB9CD8DBD8415E6AA24FDCB8E14E60D7142 SWAP1 PUSH2 0x116F SWAP1 DUP11 SWAP1 PUSH2 0x1D14 JUMP JUMPDEST PUSH1 0x40 MLOAD DUP1 SWAP2 SUB SWAP1 LOG1 PUSH2 0x1181 DUP9 DUP9 PUSH2 0x15CC JUMP JUMPDEST POP POP POP POP POP POP POP POP JUMP JUMPDEST EXTCODESIZE ISZERO ISZERO SWAP1 JUMP JUMPDEST PUSH1 0x60 PUSH2 0x119C DUP5 PUSH2 0x118B JUMP JUMPDEST PUSH2 0x11D7 JUMPI PUSH1 0x40 MLOAD PUSH3 0x461BCD PUSH1 0xE5 SHL DUP2 MSTORE PUSH1 0x4 ADD DUP1 DUP1 PUSH1 0x20 ADD DUP3 DUP2 SUB DUP3 MSTORE PUSH1 0x26 DUP2 MSTORE PUSH1 0x20 ADD DUP1 PUSH2 0x1DEB PUSH1 0x26 SWAP2 CODECOPY PUSH1 0x40 ADD SWAP2 POP POP PUSH1 0x40 MLOAD DUP1 SWAP2 SUB SWAP1 REVERT JUMPDEST PUSH1 0x0 DUP1 DUP6 PUSH1 0x1 PUSH1 0x1 PUSH1 0xA0 SHL SUB AND DUP6 PUSH1 0x40 MLOAD DUP1 DUP3 DUP1 MLOAD SWAP1 PUSH1 0x20 ADD SWAP1 DUP1 DUP4 DUP4 JUMPDEST PUSH1 0x20 DUP4 LT PUSH2 0x1214 JUMPI DUP1 MLOAD DUP3 MSTORE PUSH1 0x1F NOT SWAP1 SWAP3 ADD SWAP2 PUSH1 0x20 SWAP2 DUP3 ADD SWAP2 ADD PUSH2 0x11F5 JUMP JUMPDEST PUSH1 0x1 DUP4 PUSH1 0x20 SUB PUSH2 0x100 EXP SUB DUP1 NOT DUP3 MLOAD AND DUP2 DUP5 MLOAD AND DUP1 DUP3 OR DUP6 MSTORE POP POP POP POP POP POP SWAP1 POP ADD SWAP2 POP POP PUSH1 0x0 PUSH1 0x40 MLOAD DUP1 DUP4 SUB DUP2 DUP6 GAS DELEGATECALL SWAP2 POP POP RETURNDATASIZE DUP1 PUSH1 0x0 DUP2 EQ PUSH2 0x1274 JUMPI PUSH1 0x40 MLOAD SWAP2 POP PUSH1 0x1F NOT PUSH1 0x3F RETURNDATASIZE ADD AND DUP3 ADD PUSH1 0x40 MSTORE RETURNDATASIZE DUP3 MSTORE RETURNDATASIZE PUSH1 0x0 PUSH1 0x20 DUP5 ADD RETURNDATACOPY PUSH2 0x1279 JUMP JUMPDEST PUSH1 0x60 SWAP2 POP JUMPDEST POP SWAP2 POP SWAP2 POP PUSH2 0x1289 DUP3 DUP3 DUP7 PUSH2 0x1645 JUMP JUMPDEST SWAP3 POP POP POP JUMPDEST SWAP4 SWAP3 POP POP POP JUMP JUMPDEST PUSH2 0x129D PUSH2 0x1AE7 JUMP JUMPDEST PUSH2 0xC7C DUP3 PUSH1 0x0 PUSH2 0x16E9 JUMP JUMPDEST PUSH2 0x12B0 PUSH2 0x1B16 JUMP JUMPDEST PUSH1 0x0 DUP1 PUSH1 0x0 PUSH2 0x12BE DUP6 PUSH2 0x1797 JUMP JUMPDEST PUSH1 0x40 DUP1 MLOAD PUSH1 0x60 DUP2 ADD DUP3 MSTORE PUSH1 0x1 PUSH1 0x1 PUSH1 0xA0 SHL SUB SWAP1 SWAP4 AND DUP4 MSTORE PUSH1 0x20 DUP4 ADD SWAP4 SWAP1 SWAP4 MSTORE PUSH1 0xFF AND PUSH1 0xA EXP SWAP2 DUP2 ADD SWAP2 SWAP1 SWAP2 MSTORE SWAP4 POP POP POP POP SWAP2 SWAP1 POP JUMP JUMPDEST PUSH1 0x0 DUP1 DUP3 SLT ISZERO PUSH2 0x1303 JUMPI PUSH1 0x0 DUP1 REVERT JUMPDEST POP SWAP1 JUMP JUMPDEST PUSH2 0x130F PUSH2 0x1AE7 JUMP JUMPDEST PUSH2 0xC7C DUP3 PUSH1 0x1 PUSH2 0x16E9 JUMP JUMPDEST PUSH1 0x0 PUSH1 0x3 DUP4 PUSH1 0x60 ADD MLOAD PUSH1 0x5 DUP2 GT ISZERO PUSH2 0x132E JUMPI INVALID JUMPDEST EQ ISZERO PUSH2 0x1345 JUMPI POP PUSH1 0x1 PUSH1 0x1 PUSH1 0xA0 SHL SUB DUP2 AND BALANCE PUSH2 0xC7C JUMP JUMPDEST DUP3 MLOAD PUSH1 0x40 MLOAD PUSH4 0x70A08231 PUSH1 0xE0 SHL DUP2 MSTORE PUSH1 0x1 PUSH1 0x1 PUSH1 0xA0 SHL SUB SWAP1 SWAP2 AND SWAP1 PUSH4 0x70A08231 SWAP1 PUSH2 0x1374 SWAP1 DUP6 SWAP1 PUSH1 0x4 ADD PUSH2 0x1C5B JUMP JUMPDEST PUSH1 0x20 PUSH1 0x40 MLOAD DUP1 DUP4 SUB DUP2 DUP7 DUP1 EXTCODESIZE ISZERO DUP1 ISZERO PUSH2 0x138C JUMPI PUSH1 0x0 DUP1 REVERT JUMPDEST POP GAS STATICCALL ISZERO DUP1 ISZERO PUSH2 0x13A0 JUMPI RETURNDATASIZE PUSH1 0x0 DUP1 RETURNDATACOPY RETURNDATASIZE PUSH1 0x0 REVERT JUMPDEST POP POP POP POP PUSH1 0x40 MLOAD RETURNDATASIZE PUSH1 0x1F NOT PUSH1 0x1F DUP3 ADD AND DUP3 ADD DUP1 PUSH1 0x40 MSTORE POP DUP2 ADD SWAP1 PUSH2 0x13C4 SWAP2 SWAP1 PUSH2 0x1C22 JUMP JUMPDEST SWAP1 POP PUSH2 0xC7C JUMP JUMPDEST PUSH1 0x0 DUP3 DUP3 GT ISZERO PUSH2 0x13DA JUMPI PUSH1 0x0 DUP1 REVERT JUMPDEST POP SWAP1 SUB SWAP1 JUMP JUMPDEST DUP1 ISZERO DUP1 PUSH2 0x1466 JUMPI POP PUSH1 0x40 DUP1 MLOAD PUSH4 0x6EB1769F PUSH1 0xE1 SHL DUP2 MSTORE ADDRESS PUSH1 0x4 DUP3 ADD MSTORE PUSH1 0x1 PUSH1 0x1 PUSH1 0xA0 SHL SUB DUP5 DUP2 AND PUSH1 0x24 DUP4 ADD MSTORE SWAP2 MLOAD SWAP2 DUP6 AND SWAP2 PUSH4 0xDD62ED3E SWAP2 PUSH1 0x44 DUP1 DUP3 ADD SWAP3 PUSH1 0x20 SWAP3 SWAP1 SWAP2 SWAP1 DUP3 SWAP1 SUB ADD DUP2 DUP7 DUP1 EXTCODESIZE ISZERO DUP1 ISZERO PUSH2 0x1438 JUMPI PUSH1 0x0 DUP1 REVERT JUMPDEST POP GAS STATICCALL ISZERO DUP1 ISZERO PUSH2 0x144C JUMPI RETURNDATASIZE PUSH1 0x0 DUP1 RETURNDATACOPY RETURNDATASIZE PUSH1 0x0 REVERT JUMPDEST POP POP POP POP PUSH1 0x40 MLOAD RETURNDATASIZE PUSH1 0x20 DUP2 LT ISZERO PUSH2 0x1462 JUMPI PUSH1 0x0 DUP1 REVERT JUMPDEST POP MLOAD ISZERO JUMPDEST PUSH2 0x14A1 JUMPI PUSH1 0x40 MLOAD PUSH3 0x461BCD PUSH1 0xE5 SHL DUP2 MSTORE PUSH1 0x4 ADD DUP1 DUP1 PUSH1 0x20 ADD DUP3 DUP2 SUB DUP3 MSTORE PUSH1 0x36 DUP2 MSTORE PUSH1 0x20 ADD DUP1 PUSH2 0x1E3B PUSH1 0x36 SWAP2 CODECOPY PUSH1 0x40 ADD SWAP2 POP POP PUSH1 0x40 MLOAD DUP1 SWAP2 SUB SWAP1 REVERT JUMPDEST PUSH1 0x40 DUP1 MLOAD PUSH1 0x1 PUSH1 0x1 PUSH1 0xA0 SHL SUB DUP5 AND PUSH1 0x24 DUP3 ADD MSTORE PUSH1 0x44 DUP1 DUP3 ADD DUP5 SWAP1 MSTORE DUP3 MLOAD DUP1 DUP4 SUB SWAP1 SWAP2 ADD DUP2 MSTORE PUSH1 0x64 SWAP1 SWAP2 ADD SWAP1 SWAP2 MSTORE PUSH1 0x20 DUP2 ADD DUP1 MLOAD PUSH1 0x1 PUSH1 0x1 PUSH1 0xE0 SHL SUB AND PUSH4 0x95EA7B3 PUSH1 0xE0 SHL OR SWAP1 MSTORE PUSH2 0x14F3 SWAP1 DUP5 SWAP1 PUSH2 0x185A JUMP JUMPDEST POP POP POP JUMP JUMPDEST PUSH1 0x0 PUSH2 0x1502 PUSH2 0x190B JUMP JUMPDEST PUSH2 0xFFFF DUP4 AND PUSH1 0x0 SWAP1 DUP2 MSTORE PUSH1 0x20 DUP3 DUP2 MSTORE PUSH1 0x40 DUP1 DUP4 KECCAK256 DUP4 DUP1 MSTORE DUP3 MSTORE SWAP2 DUP3 SWAP1 KECCAK256 DUP7 MLOAD DUP2 SLOAD SWAP3 DUP9 ADD MLOAD ISZERO ISZERO PUSH1 0x1 PUSH1 0xA0 SHL MUL PUSH1 0xFF PUSH1 0xA0 SHL NOT PUSH1 0x1 PUSH1 0x1 PUSH1 0xA0 SHL SUB SWAP1 SWAP3 AND PUSH1 0x1 PUSH1 0x1 PUSH1 0xA0 SHL SUB NOT SWAP1 SWAP5 AND SWAP4 SWAP1 SWAP4 OR AND SWAP2 SWAP1 SWAP2 OR DUP1 DUP3 SSTORE SWAP2 DUP7 ADD MLOAD SWAP3 SWAP4 POP DUP6 SWAP3 SWAP1 SWAP2 DUP3 SWAP1 PUSH1 0xFF PUSH1 0xA8 SHL NOT AND PUSH1 0x1 PUSH1 0xA8 SHL DUP4 PUSH1 0x5 DUP2 GT ISZERO PUSH2 0x157D JUMPI INVALID JUMPDEST MUL OR SWAP1 SSTORE POP PUSH1 0x60 DUP3 ADD MLOAD DUP2 SLOAD PUSH1 0x80 SWAP1 SWAP4 ADD MLOAD PUSH9 0xFFFFFFFFFFFFFFFFFF AND PUSH1 0x1 PUSH1 0xB8 SHL MUL PUSH1 0x1 PUSH1 0x1 PUSH1 0xB8 SHL SUB PUSH1 0xFF SWAP1 SWAP3 AND PUSH1 0x1 PUSH1 0xB0 SHL MUL PUSH1 0xFF PUSH1 0xB0 SHL NOT SWAP1 SWAP5 AND SWAP4 SWAP1 SWAP4 OR AND SWAP2 SWAP1 SWAP2 OR SWAP1 SSTORE POP POP POP JUMP JUMPDEST PUSH1 0x0 PUSH2 0x15D6 PUSH2 0x1918 JUMP JUMPDEST PUSH2 0xFFFF DUP5 AND PUSH1 0x0 SWAP1 DUP2 MSTORE PUSH1 0x20 DUP3 SWAP1 MSTORE PUSH1 0x40 SWAP1 DUP2 SWAP1 KECCAK256 DUP1 SLOAD PUSH1 0x1 PUSH1 0x1 PUSH1 0xA0 SHL SUB NOT AND PUSH1 0x1 PUSH1 0x1 PUSH1 0xA0 SHL SUB DUP7 AND OR DUP2 SSTORE SWAP1 MLOAD SWAP2 SWAP3 POP SWAP1 PUSH32 0x6CDEE7159E82379F09A4A5D337E4681B6907C7851F6BBA2B90E1CCC02AA7A396 SWAP1 PUSH2 0x1637 SWAP1 DUP7 SWAP1 PUSH2 0x1D14 JUMP JUMPDEST PUSH1 0x40 MLOAD DUP1 SWAP2 SUB SWAP1 LOG1 POP POP POP POP JUMP JUMPDEST PUSH1 0x60 DUP4 ISZERO PUSH2 0x1654 JUMPI POP DUP2 PUSH2 0x128E JUMP JUMPDEST DUP3 MLOAD ISZERO PUSH2 0x1664 JUMPI DUP3 MLOAD DUP1 DUP5 PUSH1 0x20 ADD REVERT JUMPDEST DUP2 PUSH1 0x40 MLOAD PUSH3 0x461BCD PUSH1 0xE5 SHL DUP2 MSTORE PUSH1 0x4 ADD DUP1 DUP1 PUSH1 0x20 ADD DUP3 DUP2 SUB DUP3 MSTORE DUP4 DUP2 DUP2 MLOAD DUP2 MSTORE PUSH1 0x20 ADD SWAP2 POP DUP1 MLOAD SWAP1 PUSH1 0x20 ADD SWAP1 DUP1 DUP4 DUP4 PUSH1 0x0 JUMPDEST DUP4 DUP2 LT ISZERO PUSH2 0x16AE JUMPI DUP2 DUP2 ADD MLOAD DUP4 DUP3 ADD MSTORE PUSH1 0x20 ADD PUSH2 0x1696 JUMP JUMPDEST POP POP POP POP SWAP1 POP SWAP1 DUP2 ADD SWAP1 PUSH1 0x1F AND DUP1 ISZERO PUSH2 0x16DB JUMPI DUP1 DUP3 SUB DUP1 MLOAD PUSH1 0x1 DUP4 PUSH1 0x20 SUB PUSH2 0x100 EXP SUB NOT AND DUP2 MSTORE PUSH1 0x20 ADD SWAP2 POP JUMPDEST POP SWAP3 POP POP POP PUSH1 0x40 MLOAD DUP1 SWAP2 SUB SWAP1 REVERT JUMPDEST PUSH2 0x16F1 PUSH2 0x1AE7 JUMP JUMPDEST PUSH1 0x0 PUSH2 0x16FB PUSH2 0x190B JUMP JUMPDEST PUSH1 0x0 DUP6 DUP2 MSTORE PUSH1 0x20 DUP3 DUP2 MSTORE PUSH1 0x40 DUP1 DUP4 KECCAK256 DUP8 ISZERO ISZERO DUP5 MSTORE DUP3 MSTORE SWAP2 DUP3 SWAP1 KECCAK256 DUP3 MLOAD PUSH1 0xA0 DUP2 ADD DUP5 MSTORE DUP2 SLOAD PUSH1 0x1 PUSH1 0x1 PUSH1 0xA0 SHL SUB DUP2 AND DUP3 MSTORE PUSH1 0xFF PUSH1 0x1 PUSH1 0xA0 SHL DUP3 DIV DUP2 AND ISZERO ISZERO SWAP5 DUP4 ADD SWAP5 SWAP1 SWAP5 MSTORE PUSH1 0x1 PUSH1 0xB0 SHL DUP2 DIV DUP5 AND PUSH1 0xA EXP SWAP5 DUP3 ADD SWAP5 SWAP1 SWAP5 MSTORE SWAP4 SWAP5 POP SWAP3 SWAP2 PUSH1 0x60 DUP4 ADD SWAP2 PUSH1 0x1 PUSH1 0xA8 SHL SWAP1 SWAP2 DIV AND PUSH1 0x5 DUP2 GT ISZERO PUSH2 0x1770 JUMPI INVALID JUMPDEST DUP2 MSTORE SWAP2 SLOAD PUSH1 0x1 PUSH1 0xB8 SHL SWAP1 DIV PUSH9 0xFFFFFFFFFFFFFFFFFF AND PUSH1 0x20 SWAP1 SWAP3 ADD SWAP2 SWAP1 SWAP2 MSTORE SWAP5 SWAP4 POP POP POP POP JUMP JUMPDEST PUSH1 0x0 DUP1 PUSH1 0x0 DUP1 PUSH1 0x0 PUSH2 0x17A8 DUP7 PUSH2 0x1925 JUMP JUMPDEST SWAP1 SWAP3 POP SWAP1 POP PUSH1 0x0 PUSH1 0x1 PUSH1 0x1 PUSH1 0xA0 SHL SUB DUP4 AND PUSH2 0x17CD JUMPI POP PUSH1 0x0 SWAP1 POP PUSH5 0x2540BE400 PUSH2 0x184F JUMP JUMPDEST DUP3 PUSH1 0x1 PUSH1 0x1 PUSH1 0xA0 SHL SUB AND PUSH4 0x1EE10833 PUSH1 0x40 MLOAD DUP2 PUSH4 0xFFFFFFFF AND PUSH1 0xE0 SHL DUP2 MSTORE PUSH1 0x4 ADD PUSH1 0x20 PUSH1 0x40 MLOAD DUP1 DUP4 SUB DUP2 PUSH1 0x0 DUP8 DUP1 EXTCODESIZE ISZERO DUP1 ISZERO PUSH2 0x1808 JUMPI PUSH1 0x0 DUP1 REVERT JUMPDEST POP GAS CALL ISZERO DUP1 ISZERO PUSH2 0x181C JUMPI RETURNDATASIZE PUSH1 0x0 DUP1 RETURNDATACOPY RETURNDATASIZE PUSH1 0x0 REVERT JUMPDEST POP POP POP POP PUSH1 0x40 MLOAD RETURNDATASIZE PUSH1 0x1F NOT PUSH1 0x1F DUP3 ADD AND DUP3 ADD DUP1 PUSH1 0x40 MSTORE POP DUP2 ADD SWAP1 PUSH2 0x1840 SWAP2 SWAP1 PUSH2 0x1C22 JUMP JUMPDEST SWAP1 POP PUSH1 0x0 DUP2 SGT PUSH2 0x184F JUMPI PUSH1 0x0 DUP1 REVERT JUMPDEST SWAP7 SWAP2 SWAP6 POP SWAP4 POP SWAP2 POP POP JUMP JUMPDEST PUSH1 0x0 PUSH2 0x18AF DUP3 PUSH1 0x40 MLOAD DUP1 PUSH1 0x40 ADD PUSH1 0x40 MSTORE DUP1 PUSH1 0x20 DUP2 MSTORE PUSH1 0x20 ADD PUSH32 0x5361666545524332303A206C6F772D6C6576656C2063616C6C206661696C6564 DUP2 MSTORE POP DUP6 PUSH1 0x1 PUSH1 0x1 PUSH1 0xA0 SHL SUB AND PUSH2 0x195C SWAP1 SWAP3 SWAP2 SWAP1 PUSH4 0xFFFFFFFF AND JUMP JUMPDEST DUP1 MLOAD SWAP1 SWAP2 POP ISZERO PUSH2 0x14F3 JUMPI DUP1 DUP1 PUSH1 0x20 ADD SWAP1 MLOAD PUSH1 0x20 DUP2 LT ISZERO PUSH2 0x18CE JUMPI PUSH1 0x0 DUP1 REVERT JUMPDEST POP MLOAD PUSH2 0x14F3 JUMPI PUSH1 0x40 MLOAD PUSH3 0x461BCD PUSH1 0xE5 SHL DUP2 MSTORE PUSH1 0x4 ADD DUP1 DUP1 PUSH1 0x20 ADD DUP3 DUP2 SUB DUP3 MSTORE PUSH1 0x2A DUP2 MSTORE PUSH1 0x20 ADD DUP1 PUSH2 0x1E11 PUSH1 0x2A SWAP2 CODECOPY PUSH1 0x40 ADD SWAP2 POP POP PUSH1 0x40 MLOAD DUP1 SWAP2 SUB SWAP1 REVERT JUMPDEST PUSH1 0x0 DUP1 PUSH2 0xC7C PUSH1 0x7 PUSH2 0x1973 JUMP JUMPDEST PUSH1 0x0 DUP1 PUSH2 0xC7C PUSH1 0xF PUSH2 0x1973 JUMP JUMPDEST PUSH1 0x0 DUP1 PUSH1 0x0 PUSH2 0x1932 PUSH2 0x1918 JUMP JUMPDEST PUSH1 0x0 SWAP5 DUP6 MSTORE PUSH1 0x20 MSTORE POP POP PUSH1 0x40 SWAP1 SWAP2 KECCAK256 SLOAD PUSH1 0x1 PUSH1 0x1 PUSH1 0xA0 SHL SUB DUP2 AND SWAP3 PUSH1 0x1 PUSH1 0xA0 SHL SWAP1 SWAP2 DIV PUSH1 0xFF AND SWAP2 POP JUMP JUMPDEST PUSH1 0x60 PUSH2 0x196B DUP5 DUP5 PUSH1 0x0 DUP6 PUSH2 0x198C JUMP JUMPDEST SWAP5 SWAP4 POP POP POP POP JUMP JUMPDEST PUSH1 0x0 PUSH3 0xF4240 DUP3 PUSH1 0x1A DUP2 GT ISZERO PUSH2 0x1985 JUMPI INVALID JUMPDEST ADD SWAP3 SWAP2 POP POP JUMP JUMPDEST PUSH1 0x60 DUP3 SELFBALANCE LT ISZERO PUSH2 0x19CD JUMPI PUSH1 0x40 MLOAD PUSH3 0x461BCD PUSH1 0xE5 SHL DUP2 MSTORE PUSH1 0x4 ADD DUP1 DUP1 PUSH1 0x20 ADD DUP3 DUP2 SUB DUP3 MSTORE PUSH1 0x26 DUP2 MSTORE PUSH1 0x20 ADD DUP1 PUSH2 0x1D71 PUSH1 0x26 SWAP2 CODECOPY PUSH1 0x40 ADD SWAP2 POP POP PUSH1 0x40 MLOAD DUP1 SWAP2 SUB SWAP1 REVERT JUMPDEST PUSH2 0x19D6 DUP6 PUSH2 0x118B JUMP JUMPDEST PUSH2 0x1A27 JUMPI PUSH1 0x40 DUP1 MLOAD PUSH3 0x461BCD PUSH1 0xE5 SHL DUP2 MSTORE PUSH1 0x20 PUSH1 0x4 DUP3 ADD MSTORE PUSH1 0x1D PUSH1 0x24 DUP3 ADD MSTORE PUSH32 0x416464726573733A2063616C6C20746F206E6F6E2D636F6E7472616374000000 PUSH1 0x44 DUP3 ADD MSTORE SWAP1 MLOAD SWAP1 DUP2 SWAP1 SUB PUSH1 0x64 ADD SWAP1 REVERT JUMPDEST PUSH1 0x0 DUP1 DUP7 PUSH1 0x1 PUSH1 0x1 PUSH1 0xA0 SHL SUB AND DUP6 DUP8 PUSH1 0x40 MLOAD DUP1 DUP3 DUP1 MLOAD SWAP1 PUSH1 0x20 ADD SWAP1 DUP1 DUP4 DUP4 JUMPDEST PUSH1 0x20 DUP4 LT PUSH2 0x1A65 JUMPI DUP1 MLOAD DUP3 MSTORE PUSH1 0x1F NOT SWAP1 SWAP3 ADD SWAP2 PUSH1 0x20 SWAP2 DUP3 ADD SWAP2 ADD PUSH2 0x1A46 JUMP JUMPDEST PUSH1 0x1 DUP4 PUSH1 0x20 SUB PUSH2 0x100 EXP SUB DUP1 NOT DUP3 MLOAD AND DUP2 DUP5 MLOAD AND DUP1 DUP3 OR DUP6 MSTORE POP POP POP POP POP POP SWAP1 POP ADD SWAP2 POP POP PUSH1 0x0 PUSH1 0x40 MLOAD DUP1 DUP4 SUB DUP2 DUP6 DUP8 GAS CALL SWAP3 POP POP POP RETURNDATASIZE DUP1 PUSH1 0x0 DUP2 EQ PUSH2 0x1AC7 JUMPI PUSH1 0x40 MLOAD SWAP2 POP PUSH1 0x1F NOT PUSH1 0x3F RETURNDATASIZE ADD AND DUP3 ADD PUSH1 0x40 MSTORE RETURNDATASIZE DUP3 MSTORE RETURNDATASIZE PUSH1 0x0 PUSH1 0x20 DUP5 ADD RETURNDATACOPY PUSH2 0x1ACC JUMP JUMPDEST PUSH1 0x60 SWAP2 POP JUMPDEST POP SWAP2 POP SWAP2 POP PUSH2 0x1ADC DUP3 DUP3 DUP7 PUSH2 0x1645 JUMP JUMPDEST SWAP8 SWAP7 POP POP POP POP POP POP POP JUMP JUMPDEST PUSH1 0x40 DUP1 MLOAD PUSH1 0xA0 DUP2 ADD DUP3 MSTORE PUSH1 0x0 DUP1 DUP3 MSTORE PUSH1 0x20 DUP3 ADD DUP2 SWAP1 MSTORE SWAP2 DUP2 ADD DUP3 SWAP1 MSTORE SWAP1 PUSH1 0x60 DUP3 ADD SWAP1 DUP2 MSTORE PUSH1 0x20 ADD PUSH1 0x0 DUP2 MSTORE POP SWAP1 JUMP JUMPDEST PUSH1 0x40 MLOAD DUP1 PUSH1 0x60 ADD PUSH1 0x40 MSTORE DUP1 PUSH1 0x0 PUSH1 0x1 PUSH1 0x1 PUSH1 0xA0 SHL SUB AND DUP2 MSTORE PUSH1 0x20 ADD PUSH1 0x0 DUP2 MSTORE PUSH1 0x20 ADD PUSH1 0x0 DUP2 MSTORE POP SWAP1 JUMP JUMPDEST PUSH1 0x0 PUSH1 0x20 DUP3 DUP5 SUB SLT ISZERO PUSH2 0x1B51 JUMPI DUP1 DUP2 REVERT JUMPDEST DUP2 CALLDATALOAD PUSH2 0x128E DUP2 PUSH2 0x1D2C JUMP JUMPDEST PUSH1 0x0 PUSH1 0x20 DUP3 DUP5 SUB SLT ISZERO PUSH2 0x1B6D JUMPI DUP1 DUP2 REVERT JUMPDEST DUP2 MLOAD PUSH2 0x128E DUP2 PUSH2 0x1D2C JUMP JUMPDEST PUSH1 0x0 DUP1 PUSH1 0x40 DUP4 DUP6 SUB SLT ISZERO PUSH2 0x1B8A JUMPI DUP1 DUP2 REVERT JUMPDEST DUP3 CALLDATALOAD PUSH2 0x1B95 DUP2 PUSH2 0x1D2C JUMP JUMPDEST SWAP2 POP PUSH1 0x20 DUP4 DUP2 ADD CALLDATALOAD PUSH8 0xFFFFFFFFFFFFFFFF DUP1 DUP3 GT ISZERO PUSH2 0x1BB2 JUMPI DUP4 DUP5 REVERT JUMPDEST DUP2 DUP7 ADD SWAP2 POP DUP7 PUSH1 0x1F DUP4 ADD SLT PUSH2 0x1BC5 JUMPI DUP4 DUP5 REVERT JUMPDEST DUP2 CALLDATALOAD DUP2 DUP2 GT ISZERO PUSH2 0x1BD1 JUMPI INVALID JUMPDEST PUSH1 0x40 MLOAD PUSH1 0x1F DUP3 ADD PUSH1 0x1F NOT AND DUP2 ADD DUP6 ADD DUP4 DUP2 GT DUP3 DUP3 LT OR ISZERO PUSH2 0x1BEE JUMPI INVALID JUMPDEST PUSH1 0x40 MSTORE DUP2 DUP2 MSTORE DUP4 DUP3 ADD DUP6 ADD DUP10 LT ISZERO PUSH2 0x1C04 JUMPI DUP6 DUP7 REVERT JUMPDEST DUP2 DUP6 DUP6 ADD DUP7 DUP4 ADD CALLDATACOPY DUP6 DUP6 DUP4 DUP4 ADD ADD MSTORE DUP1 SWAP6 POP POP POP POP POP POP SWAP3 POP SWAP3 SWAP1 POP JUMP JUMPDEST PUSH1 0x0 PUSH1 0x20 DUP3 DUP5 SUB SLT ISZERO PUSH2 0x1C33 JUMPI DUP1 DUP2 REVERT JUMPDEST POP MLOAD SWAP2 SWAP1 POP JUMP JUMPDEST PUSH1 0x0 PUSH1 0x20 DUP3 DUP5 SUB SLT ISZERO PUSH2 0x1C4B JUMPI DUP1 DUP2 REVERT JUMPDEST DUP2 MLOAD PUSH1 0xFF DUP2 AND DUP2 EQ PUSH2 0x128E JUMPI DUP2 DUP3 REVERT JUMPDEST PUSH1 0x1 PUSH1 0x1 PUSH1 0xA0 SHL SUB SWAP2 SWAP1 SWAP2 AND DUP2 MSTORE PUSH1 0x20 ADD SWAP1 JUMP JUMPDEST PUSH1 0x1 PUSH1 0x1 PUSH1 0xA0 SHL SUB SWAP3 SWAP1 SWAP3 AND DUP3 MSTORE ISZERO ISZERO PUSH1 0x20 DUP3 ADD MSTORE PUSH1 0x40 ADD SWAP1 JUMP JUMPDEST PUSH1 0x0 PUSH1 0x1 DUP1 PUSH1 0xA0 SHL SUB DUP5 AND DUP3 MSTORE PUSH1 0x20 PUSH1 0x40 DUP2 DUP5 ADD MSTORE DUP4 MLOAD DUP1 PUSH1 0x40 DUP6 ADD MSTORE DUP3 JUMPDEST DUP2 DUP2 LT ISZERO PUSH2 0x1CC5 JUMPI DUP6 DUP2 ADD DUP4 ADD MLOAD DUP6 DUP3 ADD PUSH1 0x60 ADD MSTORE DUP3 ADD PUSH2 0x1CA9 JUMP JUMPDEST DUP2 DUP2 GT ISZERO PUSH2 0x1CD6 JUMPI DUP4 PUSH1 0x60 DUP4 DUP8 ADD ADD MSTORE JUMPDEST POP PUSH1 0x1F ADD PUSH1 0x1F NOT AND SWAP3 SWAP1 SWAP3 ADD PUSH1 0x60 ADD SWAP5 SWAP4 POP POP POP POP JUMP JUMPDEST PUSH1 0x20 DUP1 DUP3 MSTORE PUSH1 0xD SWAP1 DUP3 ADD MSTORE PUSH13 0x14995919595B4811985A5B1959 PUSH1 0x9A SHL PUSH1 0x40 DUP3 ADD MSTORE PUSH1 0x60 ADD SWAP1 JUMP JUMPDEST PUSH2 0xFFFF SWAP2 SWAP1 SWAP2 AND DUP2 MSTORE PUSH1 0x20 ADD SWAP1 JUMP JUMPDEST SWAP1 DUP2 MSTORE PUSH1 0x20 ADD SWAP1 JUMP JUMPDEST PUSH1 0x1 PUSH1 0x1 PUSH1 0xA0 SHL SUB DUP2 AND DUP2 EQ PUSH2 0x400 JUMPI PUSH1 0x0 DUP1 REVERT INVALID GASLIMIT MSTORE NUMBER BALANCE CODECOPY CALLDATASIZE CALLDATACOPY SSTORE PUSH17 0x67726164653A2075706772616465206272 PUSH6 0x616B73206675 PUSH19 0x74686572207570677261646573416464726573 PUSH20 0x3A20696E73756666696369656E742062616C616E PUSH4 0x6520666F PUSH19 0x2063616C6C455243313936373A206E65772069 PUSH14 0x706C656D656E746174696F6E2069 PUSH20 0x206E6F74206120636F6E74726163744164647265 PUSH20 0x733A206C6F772D6C6576656C2064656C65676174 PUSH6 0x2063616C6C20 PUSH7 0x61696C65644164 PUSH5 0x726573733A KECCAK256 PUSH5 0x656C656761 PUSH21 0x652063616C6C20746F206E6F6E2D636F6E74726163 PUSH21 0x5361666545524332303A204552433230206F706572 PUSH2 0x7469 PUSH16 0x6E20646964206E6F7420737563636565 PUSH5 0x5361666545 MSTORE NUMBER ORIGIN ADDRESS GASPRICE KECCAK256 PUSH2 0x7070 PUSH19 0x6F76652066726F6D206E6F6E2D7A65726F2074 PUSH16 0x206E6F6E2D7A65726F20616C6C6F7761 PUSH15 0x6365A264697066735822122027422D 0xC4 LT 0x27 MSTORE8 PUSH26 0xCA4EEC9116DCEA8C964F6D516D38E7FCD027675B77C419D96473 PUSH16 0x6C634300070600330000000000000000 ","sha1":"f55fdc955eac01d17d11c61c36402fa59047bf78","source":"// SPDX-License-Identifier: GPL-3.0-only\npragma solidity =0.7.6;\npragma abicoder v2;\n\nimport {SafeERC20} from \"@openzeppelin/contracts/token/ERC20/SafeERC20.sol\";\nimport {ERC20} from \"@openzeppelin/contracts/token/ERC20/ERC20.sol\";\nimport {Token, TokenType, TokenStorage, AssetRateStorage, AssetRateParameters} from \"../../global/Types.sol\";\nimport {Constants} from \"../../global/Constants.sol\";\nimport {LibStorage} from \"../../global/LibStorage.sol\";\nimport {SafeUint256} from \"../../math/SafeUint256.sol\";\nimport {SafeInt256} from \"../../math/SafeInt256.sol\";\nimport {BasePatchFixRouter, NotionalProxy} from \"./BasePatchFixRouter.sol\";\nimport {StorageLayoutV2} from \"../../global/StorageLayoutV2.sol\";\nimport {TokenHandler} from \"../../internal/balances/TokenHandler.sol\";\nimport {AssetRate} from \"../../internal/markets/AssetRate.sol\";\nimport {CErc20Interface} from \"../../../interfaces/compound/CErc20Interface.sol\";\nimport {nwTokenInterface} from \"../../../interfaces/notional/nwTokenInterface.sol\";\nimport {AssetRateAdapter} from \"../../../interfaces/notional/AssetRateAdapter.sol\";\n\ncontract MigrateCTokens is BasePatchFixRouter, StorageLayoutV2 {\n    using SafeUint256 for uint256;\n    using SafeInt256 for int256;\n    using SafeERC20 for ERC20;\n    using TokenHandler for Token;\n\n    event ListCurrency(uint16 newCurrencyId);\n    event UpdateAssetRate(uint16 currencyId);\n\n    address public immutable nwETH;\n    address public immutable nwDAI;\n    address public immutable nwUSDC;\n    address public immutable nwWBTC;\n    uint256 internal constant COMPOUND_RETURN_CODE_NO_ERROR = 0;\n\n    constructor(\n        address currentRouter,\n        address finalRouter,\n        NotionalProxy proxy,\n        address _nwETH,\n        address _nwDAI,\n        address _nwUSDC,\n        address _nwWBTC\n    ) BasePatchFixRouter(currentRouter, finalRouter, proxy) {\n        nwETH = _nwETH;\n        nwDAI = _nwDAI;\n        nwUSDC = _nwUSDC;\n        nwWBTC = _nwWBTC;\n    }\n\n    /// @notice This method is called during a delegate call context while this contract is the implementation of the\n    /// Notional proxy. This happens prior to an upgrade to the final router.\n    function _patchFix() internal override {\n        _migrateToken(1, nwETH);\n        _migrateToken(2, nwDAI);\n        _migrateToken(3, nwUSDC);\n        _migrateToken(4, nwWBTC);\n    }\n        \n    function _migrateToken(uint16 currencyId, address ncToken) private {\n        Token memory assetToken = TokenHandler.getAssetToken(currencyId);\n\n        if (currencyId == Constants.ETH_CURRENCY_ID) {\n            require(assetToken.tokenType == TokenType.cETH);\n        } else {\n            require(assetToken.tokenType == TokenType.cToken);\n        }\n\n        // Initialize ncToken contract with the final cToken rate\n        AssetRateParameters memory assetRate = AssetRate.buildAssetRateStateful(currencyId);\n        nwTokenInterface(ncToken).initialize(assetRate.rate.toUint());\n        \n        Token memory underlyingToken = TokenHandler.getUnderlyingToken(currencyId);\n\n        // Redeem asset to underlying\n        uint256 underlyingBefore = underlyingToken.balanceOf(address(this));\n        uint256 success = CErc20Interface(assetToken.tokenAddress).redeem(\n            ERC20(assetToken.tokenAddress).balanceOf(address(this))\n        );\n        require(success == COMPOUND_RETURN_CODE_NO_ERROR, \"Redeem Failed\");\n        uint256 underlyingChange = underlyingToken.balanceOf(address(this)).sub(underlyingBefore);\n\n        // Mint ncTokens\n        if (currencyId == Constants.ETH_CURRENCY_ID) {\n            nwTokenInterface(ncToken).mint{value: underlyingChange}();\n        } else {\n            // Revoke cToken approval\n            ERC20(underlyingToken.tokenAddress).safeApprove(assetToken.tokenAddress, 0);\n            // Approve ncToken to pull underlying\n            ERC20(underlyingToken.tokenAddress).safeApprove(ncToken, type(uint256).max);\n            nwTokenInterface(ncToken).mint(underlyingChange);\n        }\n\n        // Sets the asset token to ncToken\n        require(assetToken.maxCollateralBalance <= type(uint72).max);\n        _setTokenStorage(TokenStorage({\n            tokenAddress: ncToken,\n            hasTransferFee: false,\n            decimalPlaces: ERC20(ncToken).decimals(),\n            tokenType: currencyId == Constants.ETH_CURRENCY_ID ? TokenType.cETH : TokenType.cToken,\n            maxCollateralBalance: uint72(assetToken.maxCollateralBalance)\n        }), currencyId);\n\n        // Remap the token address to currency id information\n        delete tokenAddressToCurrencyId[assetToken.tokenAddress];\n        tokenAddressToCurrencyId[ncToken] = currencyId;\n\n        emit ListCurrency(currencyId);\n\n        // Set asset rate adapter\n        /// NOTE: ncToken also implements the AssetRateAdapter interface\n        _setAssetRateAdapter(currencyId, ncToken);\n    }\n\n    function _setTokenStorage(TokenStorage memory tokenStorage, uint16 currencyId) private {\n        mapping(uint256 => mapping(bool => TokenStorage)) storage store = LibStorage.getTokenStorage();\n        /// NOTE: underlying = false\n        store[currencyId][false] = tokenStorage;\n    }\n\n    function _setAssetRateAdapter(uint16 currencyId, address ncToken) private {\n        mapping(uint256 => AssetRateStorage) storage store = LibStorage.getAssetRateStorage();\n        AssetRateStorage storage ar = store[currencyId];\n        ar.rateOracle = AssetRateAdapter(ncToken);\n        emit UpdateAssetRate(currencyId);\n    }\n}\n","sourcePath":"contracts/external/patchfix/MigrateCTokens.sol","type":"contract","deployment":{"address":"0x02551ded3F5B25f60Ea67f258D907eD051E042b2","chainid":"1","blockHeight":17061070}}