{"abi":[{"inputs":[{"internalType":"uint96","name":"quorumVotes_","type":"uint96"},{"internalType":"uint96","name":"proposalThreshold_","type":"uint96"},{"internalType":"uint32","name":"votingDelayBlocks_","type":"uint32"},{"internalType":"uint32","name":"votingPeriodBlocks_","type":"uint32"},{"internalType":"contract INoteERC20","name":"note_","type":"address"},{"internalType":"address","name":"guardian_","type":"address"},{"internalType":"uint256","name":"minDelay_","type":"uint256"},{"internalType":"uint256","name":"proposalCount_","type":"uint256"}],"stateMutability":"nonpayable","type":"constructor","name":"constructor"},{"anonymous":false,"inputs":[],"name":"Abdicate","type":"event"},{"anonymous":false,"inputs":[{"indexed":true,"internalType":"bytes32","name":"id","type":"bytes32"},{"indexed":true,"internalType":"uint256","name":"index","type":"uint256"},{"indexed":false,"internalType":"address","name":"target","type":"address"},{"indexed":false,"internalType":"uint256","name":"value","type":"uint256"},{"indexed":false,"internalType":"bytes","name":"data","type":"bytes"}],"name":"CallExecuted","type":"event"},{"anonymous":false,"inputs":[{"indexed":true,"internalType":"bytes32","name":"id","type":"bytes32"},{"indexed":true,"internalType":"uint256","name":"index","type":"uint256"},{"indexed":false,"internalType":"address","name":"target","type":"address"},{"indexed":false,"internalType":"uint256","name":"value","type":"uint256"},{"indexed":false,"internalType":"bytes","name":"data","type":"bytes"},{"indexed":false,"internalType":"bytes32","name":"predecessor","type":"bytes32"},{"indexed":false,"internalType":"uint256","name":"delay","type":"uint256"}],"name":"CallScheduled","type":"event"},{"anonymous":false,"inputs":[{"indexed":true,"internalType":"bytes32","name":"id","type":"bytes32"}],"name":"Cancelled","type":"event"},{"anonymous":false,"inputs":[{"indexed":false,"internalType":"uint256","name":"oldDuration","type":"uint256"},{"indexed":false,"internalType":"uint256","name":"newDuration","type":"uint256"}],"name":"MinDelayChange","type":"event"},{"anonymous":false,"inputs":[{"indexed":true,"internalType":"uint256","name":"id","type":"uint256"}],"name":"ProposalCanceled","type":"event"},{"anonymous":false,"inputs":[{"indexed":true,"internalType":"uint256","name":"id","type":"uint256"},{"indexed":true,"internalType":"address","name":"proposer","type":"address"},{"indexed":false,"internalType":"address[]","name":"targets","type":"address[]"},{"indexed":false,"internalType":"uint256[]","name":"values","type":"uint256[]"},{"indexed":false,"internalType":"bytes[]","name":"calldatas","type":"bytes[]"},{"indexed":false,"internalType":"uint256","name":"startBlock","type":"uint256"},{"indexed":false,"internalType":"uint256","name":"endBlock","type":"uint256"}],"name":"ProposalCreated","type":"event"},{"anonymous":false,"inputs":[{"indexed":true,"internalType":"uint256","name":"id","type":"uint256"}],"name":"ProposalExecuted","type":"event"},{"anonymous":false,"inputs":[{"indexed":true,"internalType":"uint256","name":"id","type":"uint256"},{"indexed":false,"internalType":"uint256","name":"eta","type":"uint256"}],"name":"ProposalQueued","type":"event"},{"anonymous":false,"inputs":[{"indexed":true,"internalType":"bytes32","name":"role","type":"bytes32"},{"indexed":true,"internalType":"bytes32","name":"previousAdminRole","type":"bytes32"},{"indexed":true,"internalType":"bytes32","name":"newAdminRole","type":"bytes32"}],"name":"RoleAdminChanged","type":"event"},{"anonymous":false,"inputs":[{"indexed":true,"internalType":"bytes32","name":"role","type":"bytes32"},{"indexed":true,"internalType":"address","name":"account","type":"address"},{"indexed":true,"internalType":"address","name":"sender","type":"address"}],"name":"RoleGranted","type":"event"},{"anonymous":false,"inputs":[{"indexed":true,"internalType":"bytes32","name":"role","type":"bytes32"},{"indexed":true,"internalType":"address","name":"account","type":"address"},{"indexed":true,"internalType":"address","name":"sender","type":"address"}],"name":"RoleRevoked","type":"event"},{"anonymous":false,"inputs":[{"indexed":false,"internalType":"address","name":"newGuardian","type":"address"}],"name":"TransferGuardian","type":"event"},{"anonymous":false,"inputs":[{"indexed":false,"internalType":"uint96","name":"newProposalThreshold","type":"uint96"}],"name":"UpdateProposalThreshold","type":"event"},{"anonymous":false,"inputs":[{"indexed":false,"internalType":"uint96","name":"newQuorumVotes","type":"uint96"}],"name":"UpdateQuorumVotes","type":"event"},{"anonymous":false,"inputs":[{"indexed":false,"internalType":"uint32","name":"newVotingDelayBlocks","type":"uint32"}],"name":"UpdateVotingDelayBlocks","type":"event"},{"anonymous":false,"inputs":[{"indexed":false,"internalType":"uint32","name":"newVotingPeriodBlocks","type":"uint32"}],"name":"UpdateVotingPeriodBlocks","type":"event"},{"anonymous":false,"inputs":[{"indexed":true,"internalType":"address","name":"voter","type":"address"},{"indexed":true,"internalType":"uint256","name":"proposalId","type":"uint256"},{"indexed":false,"internalType":"bool","name":"support","type":"bool"},{"indexed":false,"internalType":"uint256","name":"votes","type":"uint256"}],"name":"VoteCast","type":"event"},{"inputs":[],"name":"BALLOT_TYPEHASH","outputs":[{"internalType":"bytes32","name":"","type":"bytes32"}],"stateMutability":"view","type":"function"},{"inputs":[],"name":"DEFAULT_ADMIN_ROLE","outputs":[{"internalType":"bytes32","name":"","type":"bytes32"}],"stateMutability":"view","type":"function"},{"inputs":[],"name":"DOMAIN_TYPEHASH","outputs":[{"internalType":"bytes32","name":"","type":"bytes32"}],"stateMutability":"view","type":"function"},{"inputs":[],"name":"EXECUTOR_ROLE","outputs":[{"internalType":"bytes32","name":"","type":"bytes32"}],"stateMutability":"view","type":"function"},{"inputs":[],"name":"MIN_VOTING_PERIOD_BLOCKS","outputs":[{"internalType":"uint32","name":"","type":"uint32"}],"stateMutability":"view","type":"function"},{"inputs":[],"name":"PROPOSAL_MAX_OPERATIONS","outputs":[{"internalType":"uint8","name":"","type":"uint8"}],"stateMutability":"view","type":"function"},{"inputs":[],"name":"PROPOSER_ROLE","outputs":[{"internalType":"bytes32","name":"","type":"bytes32"}],"stateMutability":"view","type":"function"},{"inputs":[],"name":"TIMELOCK_ADMIN_ROLE","outputs":[{"internalType":"bytes32","name":"","type":"bytes32"}],"stateMutability":"view","type":"function"},{"inputs":[],"name":"__abdicate","outputs":[],"stateMutability":"nonpayable","type":"function"},{"inputs":[{"internalType":"address","name":"newGuardian","type":"address"}],"name":"__transferGuardian","outputs":[],"stateMutability":"nonpayable","type":"function"},{"inputs":[{"internalType":"bytes32","name":"id","type":"bytes32"}],"name":"cancel","outputs":[],"stateMutability":"nonpayable","type":"function"},{"inputs":[{"internalType":"uint256","name":"proposalId","type":"uint256"}],"name":"cancelProposal","outputs":[],"stateMutability":"nonpayable","type":"function"},{"inputs":[{"internalType":"uint256","name":"proposalId","type":"uint256"},{"internalType":"bool","name":"support","type":"bool"}],"name":"castVote","outputs":[],"stateMutability":"nonpayable","type":"function"},{"inputs":[{"internalType":"uint256","name":"proposalId","type":"uint256"},{"internalType":"bool","name":"support","type":"bool"},{"internalType":"uint8","name":"v","type":"uint8"},{"internalType":"bytes32","name":"r","type":"bytes32"},{"internalType":"bytes32","name":"s","type":"bytes32"}],"name":"castVoteBySig","outputs":[],"stateMutability":"nonpayable","type":"function"},{"inputs":[{"internalType":"address","name":"target","type":"address"},{"internalType":"uint256","name":"value","type":"uint256"},{"internalType":"bytes","name":"data","type":"bytes"},{"internalType":"bytes32","name":"predecessor","type":"bytes32"},{"internalType":"bytes32","name":"salt","type":"bytes32"}],"name":"execute","outputs":[],"stateMutability":"payable","type":"function"},{"inputs":[{"internalType":"address[]","name":"targets","type":"address[]"},{"internalType":"uint256[]","name":"values","type":"uint256[]"},{"internalType":"bytes[]","name":"datas","type":"bytes[]"},{"internalType":"bytes32","name":"predecessor","type":"bytes32"},{"internalType":"bytes32","name":"salt","type":"bytes32"}],"name":"executeBatch","outputs":[],"stateMutability":"payable","type":"function"},{"inputs":[{"internalType":"uint256","name":"proposalId","type":"uint256"},{"internalType":"address[]","name":"targets","type":"address[]"},{"internalType":"uint256[]","name":"values","type":"uint256[]"},{"internalType":"bytes[]","name":"calldatas","type":"bytes[]"}],"name":"executeProposal","outputs":[],"stateMutability":"payable","type":"function"},{"inputs":[],"name":"getMinDelay","outputs":[{"internalType":"uint256","name":"duration","type":"uint256"}],"stateMutability":"view","type":"function"},{"inputs":[{"internalType":"uint256","name":"proposalId","type":"uint256"},{"internalType":"address","name":"voter","type":"address"}],"name":"getReceipt","outputs":[{"components":[{"internalType":"bool","name":"hasVoted","type":"bool"},{"internalType":"bool","name":"support","type":"bool"},{"internalType":"uint96","name":"votes","type":"uint96"}],"internalType":"struct GovernorAlpha.Receipt","name":"","type":"tuple"}],"stateMutability":"view","type":"function"},{"inputs":[{"internalType":"bytes32","name":"role","type":"bytes32"}],"name":"getRoleAdmin","outputs":[{"internalType":"bytes32","name":"","type":"bytes32"}],"stateMutability":"view","type":"function"},{"inputs":[{"internalType":"bytes32","name":"role","type":"bytes32"},{"internalType":"uint256","name":"index","type":"uint256"}],"name":"getRoleMember","outputs":[{"internalType":"address","name":"","type":"address"}],"stateMutability":"view","type":"function"},{"inputs":[{"internalType":"bytes32","name":"role","type":"bytes32"}],"name":"getRoleMemberCount","outputs":[{"internalType":"uint256","name":"","type":"uint256"}],"stateMutability":"view","type":"function"},{"inputs":[{"internalType":"bytes32","name":"id","type":"bytes32"}],"name":"getTimestamp","outputs":[{"internalType":"uint256","name":"timestamp","type":"uint256"}],"stateMutability":"view","type":"function"},{"inputs":[{"internalType":"bytes32","name":"role","type":"bytes32"},{"internalType":"address","name":"account","type":"address"}],"name":"grantRole","outputs":[],"stateMutability":"nonpayable","type":"function"},{"inputs":[],"name":"guardian","outputs":[{"internalType":"address","name":"","type":"address"}],"stateMutability":"view","type":"function"},{"inputs":[{"internalType":"bytes32","name":"role","type":"bytes32"},{"internalType":"address","name":"account","type":"address"}],"name":"hasRole","outputs":[{"internalType":"bool","name":"","type":"bool"}],"stateMutability":"view","type":"function"},{"inputs":[{"internalType":"address","name":"target","type":"address"},{"internalType":"uint256","name":"value","type":"uint256"},{"internalType":"bytes","name":"data","type":"bytes"},{"internalType":"bytes32","name":"predecessor","type":"bytes32"},{"internalType":"bytes32","name":"salt","type":"bytes32"}],"name":"hashOperation","outputs":[{"internalType":"bytes32","name":"hash","type":"bytes32"}],"stateMutability":"pure","type":"function"},{"inputs":[{"internalType":"address[]","name":"targets","type":"address[]"},{"internalType":"uint256[]","name":"values","type":"uint256[]"},{"internalType":"bytes[]","name":"datas","type":"bytes[]"},{"internalType":"bytes32","name":"predecessor","type":"bytes32"},{"internalType":"bytes32","name":"salt","type":"bytes32"}],"name":"hashOperationBatch","outputs":[{"internalType":"bytes32","name":"hash","type":"bytes32"}],"stateMutability":"pure","type":"function"},{"inputs":[{"internalType":"bytes32","name":"id","type":"bytes32"}],"name":"isOperation","outputs":[{"internalType":"bool","name":"pending","type":"bool"}],"stateMutability":"view","type":"function"},{"inputs":[{"internalType":"bytes32","name":"id","type":"bytes32"}],"name":"isOperationDone","outputs":[{"internalType":"bool","name":"done","type":"bool"}],"stateMutability":"view","type":"function"},{"inputs":[{"internalType":"bytes32","name":"id","type":"bytes32"}],"name":"isOperationPending","outputs":[{"internalType":"bool","name":"pending","type":"bool"}],"stateMutability":"view","type":"function"},{"inputs":[{"internalType":"bytes32","name":"id","type":"bytes32"}],"name":"isOperationReady","outputs":[{"internalType":"bool","name":"ready","type":"bool"}],"stateMutability":"view","type":"function"},{"inputs":[{"internalType":"address","name":"","type":"address"}],"name":"latestProposalIds","outputs":[{"internalType":"uint256","name":"","type":"uint256"}],"stateMutability":"view","type":"function"},{"inputs":[],"name":"name","outputs":[{"internalType":"string","name":"","type":"string"}],"stateMutability":"view","type":"function"},{"inputs":[],"name":"note","outputs":[{"internalType":"contract INoteERC20","name":"","type":"address"}],"stateMutability":"view","type":"function"},{"inputs":[],"name":"proposalCount","outputs":[{"internalType":"uint256","name":"","type":"uint256"}],"stateMutability":"view","type":"function"},{"inputs":[],"name":"proposalThreshold","outputs":[{"internalType":"uint96","name":"","type":"uint96"}],"stateMutability":"view","type":"function"},{"inputs":[{"internalType":"uint256","name":"","type":"uint256"}],"name":"proposals","outputs":[{"internalType":"uint256","name":"id","type":"uint256"},{"internalType":"uint32","name":"startBlock","type":"uint32"},{"internalType":"uint32","name":"endBlock","type":"uint32"},{"internalType":"uint96","name":"forVotes","type":"uint96"},{"internalType":"uint96","name":"againstVotes","type":"uint96"},{"internalType":"address","name":"proposer","type":"address"},{"internalType":"bool","name":"canceled","type":"bool"},{"internalType":"bool","name":"executed","type":"bool"},{"internalType":"bytes32","name":"operationHash","type":"bytes32"}],"stateMutability":"view","type":"function"},{"inputs":[{"internalType":"address[]","name":"targets","type":"address[]"},{"internalType":"uint256[]","name":"values","type":"uint256[]"},{"internalType":"bytes[]","name":"calldatas","type":"bytes[]"}],"name":"propose","outputs":[{"internalType":"uint256","name":"","type":"uint256"}],"stateMutability":"nonpayable","type":"function"},{"inputs":[{"internalType":"uint256","name":"proposalId","type":"uint256"},{"internalType":"address[]","name":"targets","type":"address[]"},{"internalType":"uint256[]","name":"values","type":"uint256[]"},{"internalType":"bytes[]","name":"calldatas","type":"bytes[]"}],"name":"queueProposal","outputs":[],"stateMutability":"nonpayable","type":"function"},{"inputs":[],"name":"quorumVotes","outputs":[{"internalType":"uint96","name":"","type":"uint96"}],"stateMutability":"view","type":"function"},{"inputs":[{"internalType":"uint256","name":"","type":"uint256"},{"internalType":"address","name":"","type":"address"}],"name":"receipts","outputs":[{"internalType":"bool","name":"hasVoted","type":"bool"},{"internalType":"bool","name":"support","type":"bool"},{"internalType":"uint96","name":"votes","type":"uint96"}],"stateMutability":"view","type":"function"},{"inputs":[{"internalType":"bytes32","name":"role","type":"bytes32"},{"internalType":"address","name":"account","type":"address"}],"name":"renounceRole","outputs":[],"stateMutability":"nonpayable","type":"function"},{"inputs":[{"internalType":"bytes32","name":"role","type":"bytes32"},{"internalType":"address","name":"account","type":"address"}],"name":"revokeRole","outputs":[],"stateMutability":"nonpayable","type":"function"},{"inputs":[{"internalType":"address","name":"target","type":"address"},{"internalType":"uint256","name":"value","type":"uint256"},{"internalType":"bytes","name":"data","type":"bytes"},{"internalType":"bytes32","name":"predecessor","type":"bytes32"},{"internalType":"bytes32","name":"salt","type":"bytes32"},{"internalType":"uint256","name":"delay","type":"uint256"}],"name":"schedule","outputs":[],"stateMutability":"nonpayable","type":"function"},{"inputs":[{"internalType":"address[]","name":"targets","type":"address[]"},{"internalType":"uint256[]","name":"values","type":"uint256[]"},{"internalType":"bytes[]","name":"datas","type":"bytes[]"},{"internalType":"bytes32","name":"predecessor","type":"bytes32"},{"internalType":"bytes32","name":"salt","type":"bytes32"},{"internalType":"uint256","name":"delay","type":"uint256"}],"name":"scheduleBatch","outputs":[],"stateMutability":"nonpayable","type":"function"},{"inputs":[{"internalType":"uint256","name":"proposalId","type":"uint256"}],"name":"state","outputs":[{"internalType":"enum GovernorAlpha.ProposalState","name":"","type":"uint8"}],"stateMutability":"view","type":"function"},{"inputs":[{"internalType":"uint256","name":"newDelay","type":"uint256"}],"name":"updateDelay","outputs":[],"stateMutability":"nonpayable","type":"function"},{"inputs":[{"internalType":"uint96","name":"newProposalThreshold","type":"uint96"}],"name":"updateProposalThreshold","outputs":[],"stateMutability":"nonpayable","type":"function"},{"inputs":[{"internalType":"uint96","name":"newQuorumVotes","type":"uint96"}],"name":"updateQuorumVotes","outputs":[],"stateMutability":"nonpayable","type":"function"},{"inputs":[{"internalType":"uint32","name":"newVotingDelayBlocks","type":"uint32"}],"name":"updateVotingDelayBlocks","outputs":[],"stateMutability":"nonpayable","type":"function"},{"inputs":[{"internalType":"uint32","name":"newVotingPeriodBlocks","type":"uint32"}],"name":"updateVotingPeriodBlocks","outputs":[],"stateMutability":"nonpayable","type":"function"},{"inputs":[],"name":"votingDelayBlocks","outputs":[{"internalType":"uint32","name":"","type":"uint32"}],"stateMutability":"view","type":"function"},{"inputs":[],"name":"votingPeriodBlocks","outputs":[{"internalType":"uint32","name":"","type":"uint32"}],"stateMutability":"view","type":"function"},{"stateMutability":"payable","type":"receive"}],"bytecode":"60a06040523480156200001157600080fd5b5060405162004b1638038062004b16833981016040819052620000349162000889565b6040805160008082526020820190815281830190925283916200006760008051602062004ab683398151915280620003cd565b6200009160008051602062004ad683398151915260008051602062004ab6833981519152620003cd565b620000bb60008051602062004af683398151915260008051602062004ab6833981519152620003cd565b620000df60008051602062004ab6833981519152620000d96200041f565b62000423565b620000fa60008051602062004ab68339815191523062000423565b60005b825181101562000145576200013c60008051602062004ad68339815191528483815181106200012857fe5b60200260200101516200042360201b60201c565b600101620000fd565b5060005b81518110156200017d576200017460008051602062004af68339815191528383815181106200012857fe5b60010162000149565b5060028390556040517f11c24f4ead16507c69ac467fbd5e4eed5fb5c699626d2cc6d66421df253886d590620001b890600090869062000922565b60405180910390a1505050604051806040016040528060048152602001634e4f544560e01b81525080519060200120846001600160a01b03166395d89b416040518163ffffffff1660e01b815260040160006040518083038186803b1580156200022157600080fd5b505afa15801562000236573d6000803e3d6000fd5b505050506040513d6000823e601f3d908101601f19168201604052620002609190810190620007ca565b80519060200120146200027257600080fd5b87600360006101000a8154816001600160601b0302191690836001600160601b03160217905550866003600c6101000a8154816001600160601b0302191690836001600160601b0316021790555085600360186101000a81548163ffffffff021916908363ffffffff160217905550846003601c6101000a81548163ffffffff021916908363ffffffff160217905550836001600160a01b03166080816001600160a01b031660601b8152505082600460006101000a8154816001600160a01b0302191690836001600160a01b03160217905550806005819055506200036e60008051602062004ad6833981519152306200043360201b60201c565b6200038960008051602062004af68339815191523062000433565b620003a460008051602062004ab68339815191523062000497565b620003bf60008051602062004ab68339815191523362000497565b505050505050505062000949565b600082815260208190526040808220600201549051839285917fbd79b86ffe0ab8e8776151514217cd7cacd52c909f66475c3af44e129f0b00ff9190a460009182526020829052604090912060020155565b3390565b6200042f828262000501565b5050565b6000828152602081905260409020600201546200045a90620004546200041f565b6200057a565b620004235760405162461bcd60e51b815260040180806020018281038252602f81526020018062004a57602f913960400191505060405180910390fd5b600082815260208190526040902060020154620004b890620004546200041f565b620004f55760405162461bcd60e51b815260040180806020018281038252603081526020018062004a866030913960400191505060405180910390fd5b6200042f8282620005a7565b600082815260208181526040909120620005269183906200226962000620821b17901c565b156200042f57620005366200041f565b6001600160a01b0316816001600160a01b0316837f2f8788117e7eff1d82e926ec794901d17c78024a50270940304540a733656f0d60405160405180910390a45050565b60008281526020818152604082206200059e9184906200227e62000637821b17901c565b90505b92915050565b600082815260208181526040909120620005cc918390620022936200064e821b17901c565b156200042f57620005dc6200041f565b6001600160a01b0316816001600160a01b0316837ff6391f5c32d9c69d2a47ea670b442974b53935d1edc7fd64eb21e047a839171b60405160405180910390a45050565b60006200059e836001600160a01b03841662000665565b60006200059e836001600160a01b038416620006b4565b60006200059e836001600160a01b038416620006cc565b6000620006738383620006b4565b620006ab57508154600181810184556000848152602080822090930184905584548482528286019093526040902091909155620005a1565b506000620005a1565b60009081526001919091016020526040902054151590565b600081815260018301602052604081205480156200078d57835460001980830191908101906000908790839081106200070157fe5b90600052602060002001549050808760000184815481106200071f57fe5b6000918252602080832090910192909255828152600189810190925260409020908401905586548790806200075057fe5b60019003818190600052602060002001600090559055866001016000878152602001908152602001600020600090556001945050505050620005a1565b6000915050620005a1565b805163ffffffff81168114620007ad57600080fd5b919050565b80516001600160601b0381168114620007ad57600080fd5b60006020808385031215620007dd578182fd5b82516001600160401b0380821115620007f4578384fd5b818501915085601f83011262000808578384fd5b8151818111156200081557fe5b604051601f8201601f19168101850183811182821017156200083357fe5b60405281815283820185018810156200084a578586fd5b8592505b818310156200086d57838301850151818401860152918401916200084e565b818311156200087e57858583830101525b979650505050505050565b600080600080600080600080610100898b031215620008a6578384fd5b620008b189620007b2565b9750620008c160208a01620007b2565b9650620008d160408a0162000798565b9550620008e160608a0162000798565b94506080890151620008f38162000930565b60a08a0151909450620009068162000930565b60c08a015160e0909a0151989b979a5095989497939692505050565b918252602082015260400190565b6001600160a01b03811681146200094657600080fd5b50565b60805160601c6140e16200097660003980610d38528061182b5280611ee2528061250a52506140e16000f3fe6080604052600436106103395760003560e01c8063760fbc13116101ab578063b24b7ffd116100f7578063db725e1711610095578063e23a9a521161006f578063e23a9a5214610947578063e38335e514610974578063e765e70414610987578063f27a0c92146109a757610340565b8063db725e17146108fd578063deaaa7cc14610912578063e0a8f6f51461092757610340565b8063ca15c873116100d1578063ca15c87314610888578063d45c4435146108a8578063d547741f146108c8578063da35c664146108e857610340565b8063b24b7ffd1461083e578063b58131b014610853578063c4d252f51461086857610340565b80639ce2392811610164578063a33463a61161013e578063a33463a6146107be578063a6a1fc0a146107de578063a8f84259146107fe578063b1c5f4271461081e57610340565b80639ce2392814610774578063a1dffd4714610796578063a217fddf146107a957610340565b8063760fbc13146106ca5780638065657f146106df5780638f2a0bb0146106ff5780638f61f4f51461071f5780639010d07c1461073457806391d148541461075457610340565b806326d111f5116102855780634178b249116102235780634bffb477116101fd5780634bffb4771461064a578063584b153e1461066a5780635caada2e1461068a57806364d62353146106aa57610340565b80634178b249146105e6578063452a9320146106155780634634c61f1461062a57610340565b806331d507501161025f57806331d507501461055757806336568abe1461057757806336e7048a146105975780633e4f49e6146105b957610340565b806326d111f5146104f55780632ab0f529146105175780632f2ff15d1461053757610340565b806313bc9f20116102f25780631afef6e4116102cc5780631afef6e41461047e57806320606b701461049e578063248a9ca3146104b357806324bc1a64146104d357610340565b806313bc9f201461041157806315373e3d1461043e57806317977c611461045e57610340565b8063013cf08b1461034557806301d5062a1461038357806306fdde03146103a557806307bd0265146103c75780630d3cf6fc146103e9578063134008d3146103fe57610340565b3661034057005b600080fd5b34801561035157600080fd5b50610365610360366004612ffd565b6109bc565b60405161037a99989796959493929190613ea9565b60405180910390f35b34801561038f57600080fd5b506103a361039e366004612da1565b610a31565b005b3480156103b157600080fd5b506103ba610aed565b60405161037a919061359a565b3480156103d357600080fd5b506103dc610b20565b60405161037a9190613541565b3480156103f557600080fd5b506103dc610b44565b6103a361040c366004612d37565b610b68565b34801561041d57600080fd5b5061043161042c366004612ffd565b610c00565b60405161037a91906134fc565b34801561044a57600080fd5b506103a3610459366004613101565b610c27565b34801561046a57600080fd5b506103dc610479366004612d1d565b610c36565b34801561048a57600080fd5b506103a3610499366004612d1d565b610c48565b3480156104aa57600080fd5b506103dc610cee565b3480156104bf57600080fd5b506103dc6104ce366004612ffd565b610d12565b3480156104df57600080fd5b506104e8610d27565b60405161037a9190613f26565b34801561050157600080fd5b5061050a610d36565b60405161037a919061332d565b34801561052357600080fd5b50610431610532366004612ffd565b610d5a565b34801561054357600080fd5b506103a3610552366004613015565b610d6e565b34801561056357600080fd5b50610431610572366004612ffd565b610dd1565b34801561058357600080fd5b506103a3610592366004613015565b610de4565b3480156105a357600080fd5b506105ac610e45565b60405161037a9190613f18565b3480156105c557600080fd5b506105d96105d4366004612ffd565b610e4a565b60405161037a9190613586565b3480156105f257600080fd5b50610606610601366004613015565b611070565b60405161037a93929190613507565b34801561062157600080fd5b5061050a6110ab565b34801561063657600080fd5b506103a3610645366004613123565b6110ba565b34801561065657600080fd5b506103a361066536600461319b565b611203565b34801561067657600080fd5b50610431610685366004612ffd565b61127b565b34801561069657600080fd5b506103a36106a5366004613177565b611288565b3480156106b657600080fd5b506103a36106c5366004612ffd565b61131c565b3480156106d657600080fd5b506103a361137b565b3480156106eb57600080fd5b506103dc6106fa366004612d37565b6113e0565b34801561070b57600080fd5b506103a361071a366004612f4f565b61141f565b34801561072b57600080fd5b506103dc611575565b34801561074057600080fd5b5061050a61074f366004613040565b611587565b34801561076057600080fd5b5061043161076f366004613015565b6115a8565b34801561078057600080fd5b506107896115c0565b60405161037a9190613f07565b6103a36107a4366004613061565b6115d3565b3480156107b557600080fd5b506103dc6116a3565b3480156107ca57600080fd5b506103a36107d9366004613061565b6116a8565b3480156107ea57600080fd5b506103a36107f936600461319b565b61177a565b34801561080a57600080fd5b506103dc610819366004612e14565b6117e9565b34801561082a57600080fd5b506103dc610839366004612eaa565b611c78565b34801561084a57600080fd5b50610789611cbd565b34801561085f57600080fd5b506104e8611cd0565b34801561087457600080fd5b506103a3610883366004612ffd565b611ce6565b34801561089457600080fd5b506103dc6108a3366004612ffd565b611d8f565b3480156108b457600080fd5b506103dc6108c3366004612ffd565b611da6565b3480156108d457600080fd5b506103a36108e3366004613015565b611db8565b3480156108f457600080fd5b506103dc611e11565b34801561090957600080fd5b50610789611e17565b34801561091e57600080fd5b506103dc611e1d565b34801561093357600080fd5b506103a3610942366004612ffd565b611e41565b34801561095357600080fd5b50610967610962366004613015565b612053565b60405161037a9190613e6d565b6103a3610982366004612eaa565b6120bb565b34801561099357600080fd5b506103a36109a2366004613177565b6121f6565b3480156109b357600080fd5b506103dc612263565b6006602052600090815260409020805460018201546002830154600390930154919263ffffffff808316936401000000008404909116926001600160601b03600160401b8204811693600160a01b92839004909116926001600160a01b0382169260ff908304811692600160a81b9004169089565b60008051602061405d833981519152610a4c8161076f6122a8565b80610a5d5750610a5d8160006115a8565b610a825760405162461bcd60e51b8152600401610a7990613676565b60405180910390fd5b6000610a928989898989896113e0565b9050610a9e81846122ac565b6000817f4cf4410cc57040e44862ef0f45f3dd5a5e02db8eb8add648d4b0e236f1d07dca8b8b8b8b8b8a604051610ada969594939291906133ab565b60405180910390a3505050505050505050565b604051806040016040528060178152602001764e6f74696f6e616c20476f7665726e6f7220416c70686160481b81525081565b7fd8aa0f3194971a2a116679f7c2090f6939c8d4e01a2a8d7e41d55e5351469e6381565b7f5f58e3a2316349923ce3780f8d587db2d72378aed66a8261c916544fa6846ca581565b7fd8aa0f3194971a2a116679f7c2090f6939c8d4e01a2a8d7e41d55e5351469e63610b958161076f6122a8565b80610ba65750610ba68160006115a8565b610bc25760405162461bcd60e51b8152600401610a7990613676565b6000610bd28888888888886113e0565b9050610bde8185612319565b610bed8160008a8a8a8a61236b565b610bf681612433565b5050505050505050565b600080610c0c83611da6565b9050600181118015610c1e5750428111155b9150505b919050565b610c3233838361246c565b5050565b60086020526000908152604090205481565b6004546001600160a01b03163314610c725760405162461bcd60e51b8152600401610a79906137be565b6001600160a01b038116610c985760405162461bcd60e51b8152600401610a7990613b0f565b600480546001600160a01b0319166001600160a01b0383161790556040517f36826e87f86e1b36b72883e7c7478b12c59472674d51b3254836445ffe44844590610ce390839061332d565b60405180910390a150565b7f8cad95687ba82c2ce50e74f7b754645e5117c3a5bec8151c0726d5857980a86681565b60009081526020819052604090206002015490565b6003546001600160601b031681565b7f000000000000000000000000000000000000000000000000000000000000000081565b60006001610d6783611da6565b1492915050565b600082815260208190526040902060020154610d8c9061076f6122a8565b610dc75760405162461bcd60e51b815260040180806020018281038252602f815260200180613fba602f913960400191505060405180910390fd5b610c3282826126d3565b600080610ddd83611da6565b1192915050565b610dec6122a8565b6001600160a01b0316816001600160a01b031614610e3b5760405162461bcd60e51b815260040180806020018281038252602f81526020018061407d602f913960400191505060405180910390fd5b610c32828261273c565b600a81565b60008160055410158015610e5e5750600082115b610e7a5760405162461bcd60e51b8152600401610a7990613728565b60008281526006602090815260409182902082516101208101845281548152600182015463ffffffff808216948301949094526401000000008104909316938101939093526001600160601b03600160401b830481166060850152600160a01b9283900416608084015260028101546001600160a01b03811660a085015260ff9281048316151560c0850152600160a81b9004909116151560e083015260030154610100820152438015801590610f35575063ffffffff8111155b610f3e57600080fd5b8160c0015115610f5357600292505050610c22565b816020015163ffffffff168111610f6f57600092505050610c22565b816040015163ffffffff168111610f8b57600192505050610c22565b81608001516001600160601b031682606001516001600160601b0316111580610fc6575060035460608301516001600160601b039182169116105b15610fd657600392505050610c22565b8160e0015115610feb57600692505050610c22565b610ff982610100015161127b565b1561100957600592505050610c22565b81608001516001600160601b031682606001516001600160601b0316118015611044575060035460608301516001600160601b039182169116115b80156110595750816040015163ffffffff1681115b1561106957600492505050610c22565b5050919050565b600760209081526000928352604080842090915290825290205460ff808216916101008104909116906201000090046001600160601b031683565b6004546001600160a01b031681565b6040805180820190915260178152764e6f74696f6e616c20476f7665726e6f7220416c70686160481b60209091015260007f8cad95687ba82c2ce50e74f7b754645e5117c3a5bec8151c0726d5857980a8667fe9b969b80363bd7cb59fe81a78f41d9f457788f63d1c29fb79439075a7ef5f1a6111356127a5565b30604051602001611149949392919061354a565b60405160208183030381529060405280519060200120905060007f8e25870c07e0b0b3884c78da52790939a455c275406c44ae8b434b692fb916ee87876040516020016111989392919061356e565b604051602081830303815290604052805190602001209050600082826040516020016111c5929190613312565b60405160208183030381529060405280519060200120905060006111eb828888886127a9565b90506111f8818a8a61246c565b505050505050505050565b3330146112225760405162461bcd60e51b8152600401610a799061381b565b600380546bffffffffffffffffffffffff60601b1916600160601b6001600160601b038416021790556040517f3ac61fe2b647a8e449ab34419fd8b66dd0823dd7ed01c3585599fc753d1771a790610ce3908390613f26565b60006001610ddd83611da6565b3330146112a75760405162461bcd60e51b8152600401610a799061381b565b611a2c63ffffffff821610156112cf5760405162461bcd60e51b8152600401610a7990613959565b600380546001600160e01b0316600160e01b63ffffffff8416021790556040517fe45e050af6f329c98fa2102ffc7f869ad04d1c53febf68c656ca80d5343d5f4f90610ce3908390613f07565b33301461133b5760405162461bcd60e51b8152600401610a7990613d98565b7f11c24f4ead16507c69ac467fbd5e4eed5fb5c699626d2cc6d66421df253886d56002548260405161136e929190613e9b565b60405180910390a1600255565b6004546001600160a01b031633146113a55760405162461bcd60e51b8152600401610a7990613d42565b600480546001600160a01b03191690556040517f0bad8e82b686f0760035c7a4b282ad4d87884172ff1fbe67dbcec14d771222ed90600090a1565b60008686868686866040516020016113fd969594939291906133ab565b6040516020818303038152906040528051906020012090509695505050505050565b60008051602061405d83398151915261143a8161076f6122a8565b8061144b575061144b8160006115a8565b6114675760405162461bcd60e51b8152600401610a7990613676565b8887146114865760405162461bcd60e51b8152600401610a7990613633565b8885146114a55760405162461bcd60e51b8152600401610a7990613633565b60006114b78b8b8b8b8b8b8b8b611c78565b90506114c381846122ac565b60005b8a8110156115675780827f4cf4410cc57040e44862ef0f45f3dd5a5e02db8eb8add648d4b0e236f1d07dca8e8e858181106114fd57fe5b90506020020160208101906115129190612d1d565b8d8d8681811061151e57fe5b905060200201358c8c8781811061153157fe5b90506020028101906115439190613f3a565b8c8b604051611557969594939291906133ab565b60405180910390a36001016114c6565b505050505050505050505050565b60008051602061405d83398151915281565b600082815260208190526040812061159f9083612927565b90505b92915050565b600082815260208190526040812061159f908361227e565b600354600160c01b900463ffffffff1681565b60056115de88610e4a565b60068111156115e957fe5b146116065760405162461bcd60e51b8152600401610a79906136fb565b600087815260066020526040812060028101805460ff60a81b1916600160a81b179055906116398888888888888f612933565b90508160030154811461165e5760405162461bcd60e51b8152600401610a7990613e36565b61166d8888888888888f612951565b60405189907f712ae1383f79ac853f8d882153778e0260ef8f03b504e2866e0593e04d2b291f90600090a2505050505050505050565b600081565b60046116b388610e4a565b60068111156116be57fe5b146116db5760405162461bcd60e51b8152600401610a7990613cc1565b60006116ec8787878787878e612933565b600089815260066020526040902060038101549192509082146117215760405162461bcd60e51b8152600401610a7990613e36565b506117318787878787878e6129be565b877f9a2e42fd6722813d69113e7d0079d3d940171428df7373df9c7f7617cfda289261175b612263565b6040516117689190613541565b60405180910390a25050505050505050565b3330146117995760405162461bcd60e51b8152600401610a799061381b565b600380546bffffffffffffffffffffffff19166001600160601b0383161790556040517fbc5f124165b1165274f3788b8b7b072f1a52c67a17eb2e9942327d511dbf2fb590610ce3908390613f26565b600080431180156117fd575063ffffffff43105b61180657600080fd5b60035460405163782d6fe160e01b81524391600160601b90046001600160601b0316907f00000000000000000000000000000000000000000000000000000000000000006001600160a01b03169063782d6fe19061186e903390600019870190600401613341565b60206040518083038186803b15801561188657600080fd5b505afa15801561189a573d6000803e3d6000fd5b505050506040513d601f19601f820116820180604052508101906118be91906131b7565b6001600160601b031610156118e55760405162461bcd60e51b8152600401610a7990613b90565b86851480156118f357508683145b61190f5760405162461bcd60e51b8152600401610a79906139bb565b8661192c5760405162461bcd60e51b8152600401610a7990613a74565b600a87111561194d5760405162461bcd60e51b8152600401610a7990613911565b3360009081526008602052604090205480156119ca57600061196e82610e4a565b9050600181600681111561197e57fe5b141561199c5760405162461bcd60e51b8152600401610a7990613bed565b60008160068111156119aa57fe5b14156119c85760405162461bcd60e51b8152600401610a7990613848565b505b5060058054600101908190556003546000906119f4908490600160c01b900463ffffffff166129f9565b90506000611a14826003601c9054906101000a900463ffffffff166129f9565b90506000611a278c8c8c8c8c8c8a612933565b905060006040518061012001604052808681526020018563ffffffff1681526020018463ffffffff16815260200160006001600160601b0316815260200160006001600160601b03168152602001336001600160a01b031681526020016000151581526020016000151581526020018381525090508060066000836000015181526020019081526020016000206000820151816000015560208201518160010160006101000a81548163ffffffff021916908363ffffffff16021790555060408201518160010160046101000a81548163ffffffff021916908363ffffffff16021790555060608201518160010160086101000a8154816001600160601b0302191690836001600160601b0316021790555060808201518160010160146101000a8154816001600160601b0302191690836001600160601b0316021790555060a08201518160020160006101000a8154816001600160a01b0302191690836001600160a01b0316021790555060c08201518160020160146101000a81548160ff02191690831515021790555060e08201518160020160156101000a81548160ff02191690831515021790555061010082015181600301559050508060000151600860008360a001516001600160a01b03166001600160a01b0316815260200190815260200160002081905550336001600160a01b031681600001517fa2366c4f1e103949cc41bc8117f334969890a670cfe1bbc5f09eb8ceaac0bae08f8f8f8f8f8f8c8c604051611c5f98979695949392919061349a565b60405180910390a3519c9b505050505050505050505050565b60008888888888888888604051602001611c999897969594939291906133e8565b60405160208183030381529060405280519060200120905098975050505050505050565b600354600160e01b900463ffffffff1681565b600354600160601b90046001600160601b031681565b60008051602061405d833981519152611d018161076f6122a8565b80611d125750611d128160006115a8565b611d2e5760405162461bcd60e51b8152600401610a7990613676565b611d378261127b565b611d535760405162461bcd60e51b8152600401610a7990613c70565b6000828152600160205260408082208290555183917fbaa1eb22f2a492ba1a5fea61b8df4d27c6c8b5f3971e63bb58fa14ff72eedb7091a25050565b60008181526020819052604081206115a290612a27565b60009081526001602052604090205490565b600082815260208190526040902060020154611dd69061076f6122a8565b610e3b5760405162461bcd60e51b815260040180806020018281038252603081526020018061400b6030913960400191505060405180910390fd5b60055481565b611a2c81565b7f8e25870c07e0b0b3884c78da52790939a455c275406c44ae8b434b692fb916ee81565b6000611e4c82610e4a565b90506006816006811115611e5c57fe5b1415611e7a5760405162461bcd60e51b8152600401610a79906136c4565b6000828152600660205260409020438015801590611e9c575063ffffffff8111155b611ea557600080fd5b6004546001600160a01b0316331480611f845750600354600283015460405163782d6fe160e01b8152600160601b9092046001600160601b0316917f00000000000000000000000000000000000000000000000000000000000000006001600160a01b039081169263782d6fe192611f299290911690600019870190600401613360565b60206040518083038186803b158015611f4157600080fd5b505afa158015611f55573d6000803e3d6000fd5b505050506040513d601f19601f82011682018060405250810190611f7991906131b7565b6001600160601b0316105b611fa05760405162461bcd60e51b8152600401610a7990613a25565b60028201805460ff60a01b1916600160a01b1790556003820154611fc39061127b565b1561202257600382015460405163c4d252f560e01b8152309163c4d252f591611fef9190600401613541565b600060405180830381600087803b15801561200957600080fd5b505af115801561201d573d6000803e3d6000fd5b505050505b60405184907f789cf55be980739dad1d0699b93b58e806b51c9d96619bfa8fe0a28abaa7b30c90600090a250505050565b61205b612c4d565b5060009182526007602090815260408084206001600160a01b03939093168452918152918190208151606081018352905460ff80821615158352610100820416151593820193909352620100009092046001600160601b03169082015290565b7fd8aa0f3194971a2a116679f7c2090f6939c8d4e01a2a8d7e41d55e5351469e636120e88161076f6122a8565b806120f957506120f98160006115a8565b6121155760405162461bcd60e51b8152600401610a7990613676565b8786146121345760405162461bcd60e51b8152600401610a7990613633565b8784146121535760405162461bcd60e51b8152600401610a7990613633565b60006121658a8a8a8a8a8a8a8a611c78565b90506121718185612319565b60005b898110156121e0576121d882828d8d8581811061218d57fe5b90506020020160208101906121a29190612d1d565b8c8c868181106121ae57fe5b905060200201358b8b878181106121c157fe5b90506020028101906121d39190613f3a565b61236b565b600101612174565b506121ea81612433565b50505050505050505050565b3330146122155760405162461bcd60e51b8152600401610a799061381b565b6003805463ffffffff60c01b1916600160c01b63ffffffff8416021790556040517f4681ed297a125c4ef179fb69c0aa0e6705ab8779f35d104eacf5d776a6910d2e90610ce3908390613f07565b60025490565b600061159f836001600160a01b038416612a32565b600061159f836001600160a01b038416612a7c565b600061159f836001600160a01b038416612a94565b3390565b6122b582610dd1565b156122d25760405162461bcd60e51b8152600401610a7990613ac0565b6122da612263565b8110156122f95760405162461bcd60e51b8152600401610a79906138cb565b6123034282612b5a565b6000928352600160205260409092209190915550565b61232282610c00565b61233e5760405162461bcd60e51b8152600401610a7990613b46565b80158061234f575061234f81610d5a565b610c325760405162461bcd60e51b8152600401610a79906135ed565b6000846001600160a01b0316848484604051612388929190613302565b60006040518083038185875af1925050503d80600081146123c5576040519150601f19603f3d011682016040523d82523d6000602084013e6123ca565b606091505b50509050806123eb5760405162461bcd60e51b8152600401610a7990613de3565b85877fc2617efa69bab66782fa219543714338489c4e9e178271560a91b82c3f612b58878787876040516124229493929190613379565b60405180910390a350505050505050565b61243c81610c00565b6124585760405162461bcd60e51b8152600401610a7990613b46565b600090815260016020819052604090912055565b600161247783610e4a565b600681111561248257fe5b1461249f5760405162461bcd60e51b8152600401610a7990613cf8565b6000828152600660209081526040808320600783528184206001600160a01b0388168552909252909120805460ff16156124eb5760405162461bcd60e51b8152600401610a7990613771565b600182015460405163782d6fe160e01b81526000916001600160a01b037f0000000000000000000000000000000000000000000000000000000000000000169163782d6fe191612546918a9163ffffffff1690600401613341565b60206040518083038186803b15801561255e57600080fd5b505afa158015612572573d6000803e3d6000fd5b505050506040513d601f19601f8201168201806040525081019061259691906131b7565b90506001600160601b0381166125ae575050506126ce565b83156126005760018301546125d390600160401b90046001600160601b031682612bb4565b8360010160086101000a8154816001600160601b0302191690836001600160601b03160217905550612648565b600183015461261f90600160a01b90046001600160601b031682612bb4565b8360010160146101000a8154816001600160601b0302191690836001600160601b031602179055505b8154600160ff199091161761ff00191661010085151502176dffffffffffffffffffffffff00001916620100006001600160601b0383160217825560405185906001600160a01b038816907f877856338e13f63d0c36822ff0ef736b80934cd90574a3a5bc9262c39d217c46906126c29088908690613528565b60405180910390a35050505b505050565b60008281526020819052604090206126eb9082612269565b15610c32576126f86122a8565b6001600160a01b0316816001600160a01b0316837f2f8788117e7eff1d82e926ec794901d17c78024a50270940304540a733656f0d60405160405180910390a45050565b60008281526020819052604090206127549082612293565b15610c32576127616122a8565b6001600160a01b0316816001600160a01b0316837ff6391f5c32d9c69d2a47ea670b442974b53935d1edc7fd64eb21e047a839171b60405160405180910390a45050565b4690565b60007f7fffffffffffffffffffffffffffffff5d576e7357a4501ddfe92f46681b20a082111561280a5760405162461bcd60e51b8152600401808060200182810382526022815260200180613fe96022913960400191505060405180910390fd5b8360ff16601b148061281f57508360ff16601c145b61285a5760405162461bcd60e51b815260040180806020018281038252602281526020018061403b6022913960400191505060405180910390fd5b600060018686868660405160008152602001604052604051808581526020018460ff1681526020018381526020018281526020019450505050506020604051602081039080840390855afa1580156128b6573d6000803e3d6000fd5b5050604051601f1901519150506001600160a01b03811661291e576040805162461bcd60e51b815260206004820152601860248201527f45434453413a20696e76616c6964207369676e61747572650000000000000000604482015290519081900360640190fd5b95945050505050565b600061159f8383612be5565b60006129458888888888888789611c78565b98975050505050505050565b60405163e38335e560e01b8152309063e38335e590612983908a908a908a908a908a908a906000908b906004016133e8565b600060405180830381600087803b15801561299d57600080fd5b505af11580156129b1573d6000803e3d6000fd5b5050505050505050505050565b30638f2a0bb08888888888886000896129d5612263565b6040518a63ffffffff1660e01b81526004016129839998979695949392919061343c565b600082820163ffffffff808516908216101561159f5760405162461bcd60e51b8152600401610a7990613990565b60006115a282612c49565b6000612a3e8383612a7c565b612a74575081546001818101845560008481526020808220909301849055845484825282860190935260409020919091556115a2565b5060006115a2565b60009081526001919091016020526040902054151590565b60008181526001830160205260408120548015612b505783546000198083019190810190600090879083908110612ac757fe5b9060005260206000200154905080876000018481548110612ae457fe5b600091825260208083209091019290925582815260018981019092526040902090840190558654879080612b1457fe5b600190038181906000526020600020016000905590558660010160008781526020019081526020016000206000905560019450505050506115a2565b60009150506115a2565b60008282018381101561159f576040805162461bcd60e51b815260206004820152601b60248201527f536166654d6174683a206164646974696f6e206f766572666c6f770000000000604482015290519081900360640190fd5b60008282016001600160601b03808516908216101561159f5760405162461bcd60e51b8152600401610a7990613990565b81546000908210612c275760405162461bcd60e51b8152600401808060200182810382526022815260200180613f986022913960400191505060405180910390fd5b826000018281548110612c3657fe5b9060005260206000200154905092915050565b5490565b604080516060810182526000808252602082018190529181019190915290565b80356001600160a01b0381168114610c2257600080fd5b60008083601f840112612c95578182fd5b50813567ffffffffffffffff811115612cac578182fd5b6020830191508360208083028501011115612cc657600080fd5b9250929050565b80358015158114610c2257600080fd5b60008083601f840112612cee578182fd5b50813567ffffffffffffffff811115612d05578182fd5b602083019150836020828501011115612cc657600080fd5b600060208284031215612d2e578081fd5b61159f82612c6d565b60008060008060008060a08789031215612d4f578182fd5b612d5887612c6d565b955060208701359450604087013567ffffffffffffffff811115612d7a578283fd5b612d8689828a01612cdd565b979a9699509760608101359660809091013595509350505050565b600080600080600080600060c0888a031215612dbb578081fd5b612dc488612c6d565b965060208801359550604088013567ffffffffffffffff811115612de6578182fd5b612df28a828b01612cdd565b989b979a50986060810135976080820135975060a09091013595509350505050565b60008060008060008060608789031215612e2c578182fd5b863567ffffffffffffffff80821115612e43578384fd5b612e4f8a838b01612c84565b90985096506020890135915080821115612e67578384fd5b612e738a838b01612c84565b90965094506040890135915080821115612e8b578384fd5b50612e9889828a01612c84565b979a9699509497509295939492505050565b60008060008060008060008060a0898b031215612ec5578081fd5b883567ffffffffffffffff80821115612edc578283fd5b612ee88c838d01612c84565b909a50985060208b0135915080821115612f00578283fd5b612f0c8c838d01612c84565b909850965060408b0135915080821115612f24578283fd5b50612f318b828c01612c84565b999c989b509699959896976060870135966080013595509350505050565b600080600080600080600080600060c08a8c031215612f6c578081fd5b893567ffffffffffffffff80821115612f83578283fd5b612f8f8d838e01612c84565b909b50995060208c0135915080821115612fa7578283fd5b612fb38d838e01612c84565b909950975060408c0135915080821115612fcb578283fd5b50612fd88c828d01612c84565b9a9d999c50979a969997986060880135976080810135975060a0013595509350505050565b60006020828403121561300e578081fd5b5035919050565b60008060408385031215613027578182fd5b8235915061303760208401612c6d565b90509250929050565b60008060408385031215613052578182fd5b50508035926020909101359150565b60008060008060008060006080888a03121561307b578081fd5b87359650602088013567ffffffffffffffff80821115613099578283fd5b6130a58b838c01612c84565b909850965060408a01359150808211156130bd578283fd5b6130c98b838c01612c84565b909650945060608a01359150808211156130e1578283fd5b506130ee8a828b01612c84565b989b979a50959850939692959293505050565b60008060408385031215613113578182fd5b8235915061303760208401612ccd565b600080600080600060a0868803121561313a578283fd5b8535945061314a60208701612ccd565b9350604086013560ff8116811461315f578384fd5b94979396509394606081013594506080013592915050565b600060208284031215613188578081fd5b813563ffffffff8116811461159f578182fd5b6000602082840312156131ac578081fd5b813561159f81613f7f565b6000602082840312156131c8578081fd5b815161159f81613f7f565b60008284526020808501945082825b8581101561320e576001600160a01b036131fb83612c6d565b16875295820195908201906001016131e2565b509495945050505050565b818352602080840193600091908185020181018584845b878110156132975782840389528135601e19883603018112613250578687fd5b8701803567ffffffffffffffff811115613268578788fd5b803603891315613276578788fd5b61328386828985016132d8565b9a87019a9550505090840190600101613230565b5091979650505050505050565b81835260006001600160fb1b038311156132bc578081fd5b6020830280836020870137939093016020019283525090919050565b60008284528282602086013780602084860101526020601f19601f85011685010190509392505050565b6000828483379101908152919050565b61190160f01b81526002810192909252602282015260420190565b6001600160a01b0391909116815260200190565b6001600160a01b0392909216825263ffffffff16602082015260400190565b6001600160a01b03929092168252602082015260400190565b600060018060a01b0386168252846020830152606060408301526133a16060830184866132d8565b9695505050505050565b600060018060a01b038816825286602083015260a060408301526133d360a0830186886132d8565b60608301949094525060800152949350505050565b600060a082526133fc60a083018a8c6131d3565b828103602084015261340f81898b6132a4565b90508281036040840152613424818789613219565b60608401959095525050608001529695505050505050565b600060c0825261345060c083018b8d6131d3565b8281036020840152613463818a8c6132a4565b9050828103604084015261347881888a613219565b60608401969096525050608081019290925260a0909101529695505050505050565b600060a082526134ae60a083018a8c6131d3565b82810360208401526134c181898b6132a4565b905082810360408401526134d6818789613219565b91505063ffffffff80851660608401528084166080840152509998505050505050505050565b901515815260200190565b921515835290151560208301526001600160601b0316604082015260600190565b91151582526001600160601b0316602082015260400190565b90815260200190565b938452602084019290925260408301526001600160a01b0316606082015260800190565b92835260208301919091521515604082015260600190565b602081016007831061359457fe5b91905290565b6000602080835283518082850152825b818110156135c6578581018301518582016040015282016135aa565b818111156135d75783604083870101525b50601f01601f1916929092016040019392505050565b60208082526026908201527f54696d656c6f636b436f6e74726f6c6c65723a206d697373696e6720646570656040820152656e64656e637960d01b606082015260800190565b60208082526023908201527f54696d656c6f636b436f6e74726f6c6c65723a206c656e677468206d69736d616040820152620e8c6d60eb1b606082015260800190565b6020808252602e908201527f54696d656c6f636b436f6e74726f6c6c65723a2073656e64657220726571756960408201526d3932b9903832b936b4b9b9b4b7b760911b606082015260800190565b60208082526019908201527f50726f706f73616c20616c726561647920657865637574656400000000000000604082015260600190565b602080825260139082015272141c9bdc1bdcd85b081b9bdd081c5d595d5959606a1b604082015260600190565b60208082526029908201527f476f7665726e6f72416c7068613a3a73746174653a20696e76616c69642070726040820152681bdc1bdcd85b081a5960ba1b606082015260800190565b6020808252602d908201527f476f7665726e6f72416c7068613a3a5f63617374566f74653a20766f7465722060408201526c185b1c9958591e481d9bdd1959609a1b606082015260800190565b6020808252603e908201527f476f7665726e6f72416c7068613a3a5f5f7472616e736665724775617264696160408201527f6e3a2073656e646572206d75737420626520676f7620677561726469616e0000606082015260800190565b6020808252601390820152722ab730baba3437b934bd32b21031b0b63632b960691b604082015260600190565b60208082526059908201527f476f7665726e6f72416c7068613a3a70726f706f73653a206f6e65206c69766560408201527f2070726f706f73616c207065722070726f706f7365722c20666f756e6420616e60608201527f20616c72656164792070656e64696e672070726f706f73616c00000000000000608082015260a00190565b60208082526026908201527f54696d656c6f636b436f6e74726f6c6c65723a20696e73756666696369656e746040820152652064656c617960d01b606082015260800190565b60208082526028908201527f476f7665726e6f72416c7068613a3a70726f706f73653a20746f6f206d616e7960408201526720616374696f6e7360c01b606082015260800190565b60208082526017908201527f42656c6f77206d696e20766f74696e6720706572696f64000000000000000000604082015260600190565b6020808252601190820152706164646974696f6e206f766572666c6f7760781b604082015260600190565b60208082526044908201527f476f7665726e6f72416c7068613a3a70726f706f73653a2070726f706f73616c60408201527f2066756e6374696f6e20696e666f726d6174696f6e206172697479206d69736d6060820152630c2e8c6d60e31b608082015260a00190565b6020808252602f908201527f476f7665726e6f72416c7068613a3a63616e63656c3a2070726f706f7365722060408201526e18589bdd99481d1a1c995cda1bdb19608a1b606082015260800190565b6020808252602c908201527f476f7665726e6f72416c7068613a3a70726f706f73653a206d7573742070726f60408201526b7669646520616374696f6e7360a01b606082015260800190565b6020808252602f908201527f54696d656c6f636b436f6e74726f6c6c65723a206f7065726174696f6e20616c60408201526e1c9958591e481cd8da19591d5b1959608a1b606082015260800190565b6020808252601f908201527f43616e6e6f74207472616e7366657220746f207a65726f206164647265737300604082015260600190565b6020808252602a908201527f54696d656c6f636b436f6e74726f6c6c65723a206f7065726174696f6e206973604082015269206e6f7420726561647960b01b606082015260800190565b6020808252603f908201527f476f7665726e6f72416c7068613a3a70726f706f73653a2070726f706f73657260408201527f20766f7465732062656c6f772070726f706f73616c207468726573686f6c6400606082015260800190565b60208082526058908201527f476f7665726e6f72416c7068613a3a70726f706f73653a206f6e65206c69766560408201527f2070726f706f73616c207065722070726f706f7365722c20666f756e6420616e60608201527f20616c7265616479206163746976652070726f706f73616c0000000000000000608082015260a00190565b60208082526031908201527f54696d656c6f636b436f6e74726f6c6c65723a206f7065726174696f6e2063616040820152701b9b9bdd0818994818d85b98d95b1b1959607a1b606082015260800190565b60208082526018908201527f50726f706f73616c206d75737420626520737563636573730000000000000000604082015260600190565b6020808252602a908201527f476f7665726e6f72416c7068613a3a5f63617374566f74653a20766f74696e67604082015269081a5cc818db1bdcd95960b21b606082015260800190565b60208082526036908201527f476f7665726e6f72416c7068613a3a5f5f61626469636174653a2073656e6465604082015275391036bab9ba1031329033b7bb1033bab0b93234b0b760511b606082015260800190565b6020808252602b908201527f54696d656c6f636b436f6e74726f6c6c65723a2063616c6c6572206d7573742060408201526a62652074696d656c6f636b60a81b606082015260800190565b60208082526033908201527f54696d656c6f636b436f6e74726f6c6c65723a20756e6465726c79696e6720746040820152721c985b9cd858dd1a5bdb881c995d995c9d1959606a1b606082015260800190565b60208082526017908201527f4f7065726174696f6e2068617368206d69736d61746368000000000000000000604082015260600190565b8151151581526020808301511515908201526040918201516001600160601b03169181019190915260600190565b918252602082015260400190565b98895263ffffffff97881660208a01529590961660408801526001600160601b0393841660608801529190921660808601526001600160a01b0390911660a0850152151560c084015290151560e08301526101008201526101200190565b63ffffffff91909116815260200190565b60ff91909116815260200190565b6001600160601b0391909116815260200190565b6000808335601e19843603018112613f50578283fd5b83018035915067ffffffffffffffff821115613f6a578283fd5b602001915036819003821315612cc657600080fd5b6001600160601b0381168114613f9457600080fd5b5056fe456e756d657261626c655365743a20696e646578206f7574206f6620626f756e6473416363657373436f6e74726f6c3a2073656e646572206d75737420626520616e2061646d696e20746f206772616e7445434453413a20696e76616c6964207369676e6174757265202773272076616c7565416363657373436f6e74726f6c3a2073656e646572206d75737420626520616e2061646d696e20746f207265766f6b6545434453413a20696e76616c6964207369676e6174757265202776272076616c7565b09aa5aeb3702cfd50b6b62bc4532604938f21248a27a1d5ca736082b6819cc1416363657373436f6e74726f6c3a2063616e206f6e6c792072656e6f756e636520726f6c657320666f722073656c66a26469706673582212201b42bfce62e17509485d0fd90b8fc4735e8f2eed9933e33dd2e7605afae0788c64736f6c63430007060033416363657373436f6e74726f6c3a2073656e646572206d75737420626520616e2061646d696e20746f206772616e74416363657373436f6e74726f6c3a2073656e646572206d75737420626520616e2061646d696e20746f207265766f6b655f58e3a2316349923ce3780f8d587db2d72378aed66a8261c916544fa6846ca5b09aa5aeb3702cfd50b6b62bc4532604938f21248a27a1d5ca736082b6819cc1d8aa0f3194971a2a116679f7c2090f6939c8d4e01a2a8d7e41d55e5351469e63","bytecodeSha1":"da39a3ee5e6b4b0d3255bfef95601890afd80709","compiler":{"evm_version":"istanbul","optimizer":{"enabled":true,"runs":200},"version":"0.7.6+commit.7338295f"},"contractName":"GovernorAlpha","language":"Solidity","natspec":{"kind":"dev","methods":{"BALLOT_TYPEHASH()":{"notice":"The EIP-712 typehash for the ballot struct uComp by the contract"},"DOMAIN_TYPEHASH()":{"notice":"The EIP-712 typehash for the contract's domain"},"MIN_VOTING_PERIOD_BLOCKS()":{"notice":"The minimum voting period in blocks, about 1 day assuming 13 second blocks. Ensures that proposals will always have time to be voted on."},"PROPOSAL_MAX_OPERATIONS()":{"notice":"The maximum number of actions that can be included in a proposal"},"__abdicate()":{"details":"Hidden public method"},"__transferGuardian(address)":{"notice":"Transfers guardian role to a new guardian","params":{"newGuardian":"address to transfer role to"}},"cancel(bytes32)":{"details":"Cancel an operation. Requirements: - the caller must have the 'proposer' role."},"cancelProposal(uint256)":{"details":"emit:ProposalCanceled emit:Canceled","notice":"Cancels a proposal after it has been created. Can only be done if the proposer no longer has sufficient votes (i.e. they made a proposal and then sold their tokens) or by a guardian address if it exists.","params":{"proposalId":"unique identifier for the proposal"}},"castVote(uint256,bool)":{"details":"emit:VoteCast","notice":"Cast a vote for a proposal","params":{"proposalId":"unique identifier for the proposal","support":"true if votes are for the proposal, false if against"}},"castVoteBySig(uint256,bool,uint8,bytes32,bytes32)":{"details":"emit:VoteCast","notice":"Cast a vote for a proposal via signature","params":{"proposalId":"unique identifier for the proposal","r":"signature component","s":"signature component","support":"true if votes are for the proposal, false if against","v":"signature component"}},"constructor":{"notice":"Initializes the GovernorAlpha with initial parameters","params":{"guardian_":"address of guardian","minDelay_":"initial minimum delay for timelock in seconds","note_":"address of the NOTE token to get voting power","proposalCount_":"initial proposal count setting, can be used to maintain proposal id continuity between upgrades","proposalThreshold_":"initial proposal threshold value","quorumVotes_":"initial quorum votes value","votingDelayBlocks_":"initial voting delay blocks value","votingPeriodBlocks_":"initial voting period blocks value"}},"execute(address,uint256,bytes,bytes32,bytes32)":{"details":"Execute an (ready) operation containing a single transaction. Emits a {CallExecuted} event. Requirements: - the caller must have the 'executor' role."},"executeBatch(address[],uint256[],bytes[],bytes32,bytes32)":{"details":"Execute an (ready) operation containing a batch of transactions. Emits one {CallExecuted} event per transaction in the batch. Requirements: - the caller must have the 'executor' role."},"executeProposal(uint256,address[],uint256[],bytes[])":{"details":"emit:ProposalExecuted emit:CallExecuted (per call)","notice":"Executes a proposal in the timelock queue after its delay has passed, `targets`, `values`, and `calldatas` provided must hash back to the original proposal.","params":{"calldatas":"an array of calldata bytes to call respective target address with","proposalId":"unique identifier for the proposal","targets":"an array of addresses to take actions on","values":"an array of ether amounts to send to respective target address"}},"getMinDelay()":{"details":"Returns the minimum delay for an operation to become valid. This value can be changed by executing an operation that calls `updateDelay`."},"getReceipt(uint256,address)":{"notice":"Returns the voting receipt for a voter on a proposal","params":{"proposalId":"unique identifier for the proposal","voter":"address of the voter"},"returns":{"_0":"the voting receipt for the voter and proposal"}},"getRoleAdmin(bytes32)":{"details":"Returns the admin role that controls `role`. See {grantRole} and {revokeRole}. To change a role's admin, use {_setRoleAdmin}."},"getRoleMember(bytes32,uint256)":{"details":"Returns one of the accounts that have `role`. `index` must be a value between 0 and {getRoleMemberCount}, non-inclusive. Role bearers are not sorted in any particular way, and their ordering may change at any point. WARNING: When using {getRoleMember} and {getRoleMemberCount}, make sure you perform all queries on the same block. See the following https://forum.openzeppelin.com/t/iterating-over-elements-on-enumerableset-in-openzeppelin-contracts/2296[forum post] for more information."},"getRoleMemberCount(bytes32)":{"details":"Returns the number of accounts that have `role`. Can be used together with {getRoleMember} to enumerate all bearers of a role."},"getTimestamp(bytes32)":{"details":"Returns the timestamp at with an operation becomes ready (0 for unset operations, 1 for done operations)."},"grantRole(bytes32,address)":{"details":"Grants `role` to `account`. If `account` had not been already granted `role`, emits a {RoleGranted} event. Requirements: - the caller must have ``role``'s admin role."},"guardian()":{"notice":"The address of the Governor Guardian"},"hasRole(bytes32,address)":{"details":"Returns `true` if `account` has been granted `role`."},"hashOperation(address,uint256,bytes,bytes32,bytes32)":{"details":"Returns the identifier of an operation containing a single transaction."},"hashOperationBatch(address[],uint256[],bytes[],bytes32,bytes32)":{"details":"Returns the identifier of an operation containing a batch of transactions."},"isOperation(bytes32)":{"details":"Returns whether an id correspond to a registered operation. This includes both Pending, Ready and Done operations."},"isOperationDone(bytes32)":{"details":"Returns whether an operation is done or not."},"isOperationPending(bytes32)":{"details":"Returns whether an operation is pending or not."},"isOperationReady(bytes32)":{"details":"Returns whether an operation is ready or not."},"latestProposalIds(address)":{"notice":"The latest proposal for each proposer"},"name()":{"notice":"The name of this contract"},"note()":{"notice":"The address of the Notional governance token"},"proposalCount()":{"notice":"The total number of proposals"},"proposalThreshold()":{"notice":"The number of votes required in order for a voter to become a proposer"},"proposals(uint256)":{"notice":"The official record of all proposals ever proposed"},"propose(address[],uint256[],bytes[])":{"details":"emit:ProposalCreated","notice":"Proposes a new governance action","params":{"calldatas":"an array of calldata bytes to call respective target address with","targets":"an array of addresses to take actions on","values":"an array of ether amounts to send to respective target address"},"returns":{"_0":"newly created proposal id"}},"queueProposal(uint256,address[],uint256[],bytes[])":{"details":"emit:ProposalQueued emit:CallScheduled (per call)","notice":"Adds a proposal to the timelock queue only after its vote has passed, `targets`, `values`, and `calldatas` provided must hash back to the original proposal. All proposals will automatically be delayed `getMinDelay()` seconds.","params":{"calldatas":"an array of calldata bytes to call respective target address with","proposalId":"unique identifier for the proposal","targets":"an array of addresses to take actions on","values":"an array of ether amounts to send to respective target address"}},"quorumVotes()":{"notice":"The number of votes in support of a proposal required in order for a quorum to be reached and for a proposal to succeed"},"receipts(uint256,address)":{"notice":"Receipts of ballots for the entire set of voters, from proposal id to address of voter"},"renounceRole(bytes32,address)":{"details":"Revokes `role` from the calling account. Roles are often managed via {grantRole} and {revokeRole}: this function's purpose is to provide a mechanism for accounts to lose their privileges if they are compromised (such as when a trusted device is misplaced). If the calling account had been granted `role`, emits a {RoleRevoked} event. Requirements: - the caller must be `account`."},"revokeRole(bytes32,address)":{"details":"Revokes `role` from `account`. If `account` had been granted `role`, emits a {RoleRevoked} event. Requirements: - the caller must have ``role``'s admin role."},"schedule(address,uint256,bytes,bytes32,bytes32,uint256)":{"details":"Schedule an operation containing a single transaction. Emits a {CallScheduled} event. Requirements: - the caller must have the 'proposer' role."},"scheduleBatch(address[],uint256[],bytes[],bytes32,bytes32,uint256)":{"details":"Schedule an operation containing a batch of transactions. Emits one {CallScheduled} event per transaction in the batch. Requirements: - the caller must have the 'proposer' role."},"state(uint256)":{"notice":"Returns the current state of a proposal","params":{"proposalId":"unique identifier for the proposal"},"returns":{"_0":"ProposalState enum for the current state of the proposal"}},"updateDelay(uint256)":{"details":"Changes the minimum timelock duration for future operations. Emits a {MinDelayChange} event. Requirements: - the caller must be the timelock itself. This can only be achieved by scheduling and later executing an operation where the timelock is the target and the data is the ABI-encoded call to this function."},"updateProposalThreshold(uint96)":{"details":"emit:UpdateProposalThreshold","notice":"Updates the proposal threshold required, can only be executed via a proposal","params":{"newProposalThreshold":"new proposal threshold"}},"updateQuorumVotes(uint96)":{"details":"emit:UpdateQuorumVotes","notice":"Updates the quorum votes required, can only be executed via a proposal","params":{"newQuorumVotes":"new quorum votes required"}},"updateVotingDelayBlocks(uint32)":{"details":"emit:UpdateVotingDelayBlocks","notice":"Updates the voting delay blocks required, can only be executed via a proposal","params":{"newVotingDelayBlocks":"new voting delay blocks"}},"updateVotingPeriodBlocks(uint32)":{"details":"emit:UpdateVotingPeriodBlocks","notice":"Updates the voting period blocks required, can only be executed via a proposal","params":{"newVotingPeriodBlocks":"new voting period blocks"}},"votingDelayBlocks()":{"notice":"The delay before voting on a proposal may take place, once proposed"},"votingPeriodBlocks()":{"notice":"The duration of voting on a proposal, in blocks"}},"title":"Notional Governor Alpha Fork of Compound Governor Alpha at commit hash https://github.com/compound-finance/compound-protocol/commit/9bcff34a5c9c76d51e51bcb0ca1139588362ef96","version":1},"opcodes":"PUSH1 0x80 PUSH1 0x40 MSTORE PUSH1 0x4 CALLDATASIZE LT PUSH2 0x339 JUMPI PUSH1 0x0 CALLDATALOAD PUSH1 0xE0 SHR DUP1 PUSH4 0x760FBC13 GT PUSH2 0x1AB JUMPI DUP1 PUSH4 0xB24B7FFD GT PUSH2 0xF7 JUMPI DUP1 PUSH4 0xDB725E17 GT PUSH2 0x95 JUMPI DUP1 PUSH4 0xE23A9A52 GT PUSH2 0x6F JUMPI DUP1 PUSH4 0xE23A9A52 EQ PUSH2 0x947 JUMPI DUP1 PUSH4 0xE38335E5 EQ PUSH2 0x974 JUMPI DUP1 PUSH4 0xE765E704 EQ PUSH2 0x987 JUMPI DUP1 PUSH4 0xF27A0C92 EQ PUSH2 0x9A7 JUMPI PUSH2 0x340 JUMP JUMPDEST DUP1 PUSH4 0xDB725E17 EQ PUSH2 0x8FD JUMPI DUP1 PUSH4 0xDEAAA7CC EQ PUSH2 0x912 JUMPI DUP1 PUSH4 0xE0A8F6F5 EQ PUSH2 0x927 JUMPI PUSH2 0x340 JUMP JUMPDEST DUP1 PUSH4 0xCA15C873 GT PUSH2 0xD1 JUMPI DUP1 PUSH4 0xCA15C873 EQ PUSH2 0x888 JUMPI DUP1 PUSH4 0xD45C4435 EQ PUSH2 0x8A8 JUMPI DUP1 PUSH4 0xD547741F EQ PUSH2 0x8C8 JUMPI DUP1 PUSH4 0xDA35C664 EQ PUSH2 0x8E8 JUMPI PUSH2 0x340 JUMP JUMPDEST DUP1 PUSH4 0xB24B7FFD EQ PUSH2 0x83E JUMPI DUP1 PUSH4 0xB58131B0 EQ PUSH2 0x853 JUMPI DUP1 PUSH4 0xC4D252F5 EQ PUSH2 0x868 JUMPI PUSH2 0x340 JUMP JUMPDEST DUP1 PUSH4 0x9CE23928 GT PUSH2 0x164 JUMPI DUP1 PUSH4 0xA33463A6 GT PUSH2 0x13E JUMPI DUP1 PUSH4 0xA33463A6 EQ PUSH2 0x7BE JUMPI DUP1 PUSH4 0xA6A1FC0A EQ PUSH2 0x7DE JUMPI DUP1 PUSH4 0xA8F84259 EQ PUSH2 0x7FE JUMPI DUP1 PUSH4 0xB1C5F427 EQ PUSH2 0x81E JUMPI PUSH2 0x340 JUMP JUMPDEST DUP1 PUSH4 0x9CE23928 EQ PUSH2 0x774 JUMPI DUP1 PUSH4 0xA1DFFD47 EQ PUSH2 0x796 JUMPI DUP1 PUSH4 0xA217FDDF EQ PUSH2 0x7A9 JUMPI PUSH2 0x340 JUMP JUMPDEST DUP1 PUSH4 0x760FBC13 EQ PUSH2 0x6CA JUMPI DUP1 PUSH4 0x8065657F EQ PUSH2 0x6DF JUMPI DUP1 PUSH4 0x8F2A0BB0 EQ PUSH2 0x6FF JUMPI DUP1 PUSH4 0x8F61F4F5 EQ PUSH2 0x71F JUMPI DUP1 PUSH4 0x9010D07C EQ PUSH2 0x734 JUMPI DUP1 PUSH4 0x91D14854 EQ PUSH2 0x754 JUMPI PUSH2 0x340 JUMP JUMPDEST DUP1 PUSH4 0x26D111F5 GT PUSH2 0x285 JUMPI DUP1 PUSH4 0x4178B249 GT PUSH2 0x223 JUMPI DUP1 PUSH4 0x4BFFB477 GT PUSH2 0x1FD JUMPI DUP1 PUSH4 0x4BFFB477 EQ PUSH2 0x64A JUMPI DUP1 PUSH4 0x584B153E EQ PUSH2 0x66A JUMPI DUP1 PUSH4 0x5CAADA2E EQ PUSH2 0x68A JUMPI DUP1 PUSH4 0x64D62353 EQ PUSH2 0x6AA JUMPI PUSH2 0x340 JUMP JUMPDEST DUP1 PUSH4 0x4178B249 EQ PUSH2 0x5E6 JUMPI DUP1 PUSH4 0x452A9320 EQ PUSH2 0x615 JUMPI DUP1 PUSH4 0x4634C61F EQ PUSH2 0x62A JUMPI PUSH2 0x340 JUMP JUMPDEST DUP1 PUSH4 0x31D50750 GT PUSH2 0x25F JUMPI DUP1 PUSH4 0x31D50750 EQ PUSH2 0x557 JUMPI DUP1 PUSH4 0x36568ABE EQ PUSH2 0x577 JUMPI DUP1 PUSH4 0x36E7048A EQ PUSH2 0x597 JUMPI DUP1 PUSH4 0x3E4F49E6 EQ PUSH2 0x5B9 JUMPI PUSH2 0x340 JUMP JUMPDEST DUP1 PUSH4 0x26D111F5 EQ PUSH2 0x4F5 JUMPI DUP1 PUSH4 0x2AB0F529 EQ PUSH2 0x517 JUMPI DUP1 PUSH4 0x2F2FF15D EQ PUSH2 0x537 JUMPI PUSH2 0x340 JUMP JUMPDEST DUP1 PUSH4 0x13BC9F20 GT PUSH2 0x2F2 JUMPI DUP1 PUSH4 0x1AFEF6E4 GT PUSH2 0x2CC JUMPI DUP1 PUSH4 0x1AFEF6E4 EQ PUSH2 0x47E JUMPI DUP1 PUSH4 0x20606B70 EQ PUSH2 0x49E JUMPI DUP1 PUSH4 0x248A9CA3 EQ PUSH2 0x4B3 JUMPI DUP1 PUSH4 0x24BC1A64 EQ PUSH2 0x4D3 JUMPI PUSH2 0x340 JUMP JUMPDEST DUP1 PUSH4 0x13BC9F20 EQ PUSH2 0x411 JUMPI DUP1 PUSH4 0x15373E3D EQ PUSH2 0x43E JUMPI DUP1 PUSH4 0x17977C61 EQ PUSH2 0x45E JUMPI PUSH2 0x340 JUMP JUMPDEST DUP1 PUSH4 0x13CF08B EQ PUSH2 0x345 JUMPI DUP1 PUSH4 0x1D5062A EQ PUSH2 0x383 JUMPI DUP1 PUSH4 0x6FDDE03 EQ PUSH2 0x3A5 JUMPI DUP1 PUSH4 0x7BD0265 EQ PUSH2 0x3C7 JUMPI DUP1 PUSH4 0xD3CF6FC EQ PUSH2 0x3E9 JUMPI DUP1 PUSH4 0x134008D3 EQ PUSH2 0x3FE JUMPI PUSH2 0x340 JUMP JUMPDEST CALLDATASIZE PUSH2 0x340 JUMPI STOP JUMPDEST PUSH1 0x0 DUP1 REVERT JUMPDEST CALLVALUE DUP1 ISZERO PUSH2 0x351 JUMPI PUSH1 0x0 DUP1 REVERT JUMPDEST POP PUSH2 0x365 PUSH2 0x360 CALLDATASIZE PUSH1 0x4 PUSH2 0x2FFD JUMP JUMPDEST PUSH2 0x9BC JUMP JUMPDEST PUSH1 0x40 MLOAD PUSH2 0x37A SWAP10 SWAP9 SWAP8 SWAP7 SWAP6 SWAP5 SWAP4 SWAP3 SWAP2 SWAP1 PUSH2 0x3EA9 JUMP JUMPDEST PUSH1 0x40 MLOAD DUP1 SWAP2 SUB SWAP1 RETURN JUMPDEST CALLVALUE DUP1 ISZERO PUSH2 0x38F JUMPI PUSH1 0x0 DUP1 REVERT JUMPDEST POP PUSH2 0x3A3 PUSH2 0x39E CALLDATASIZE PUSH1 0x4 PUSH2 0x2DA1 JUMP JUMPDEST PUSH2 0xA31 JUMP JUMPDEST STOP JUMPDEST CALLVALUE DUP1 ISZERO PUSH2 0x3B1 JUMPI PUSH1 0x0 DUP1 REVERT JUMPDEST POP PUSH2 0x3BA PUSH2 0xAED JUMP JUMPDEST PUSH1 0x40 MLOAD PUSH2 0x37A SWAP2 SWAP1 PUSH2 0x359A JUMP JUMPDEST CALLVALUE DUP1 ISZERO PUSH2 0x3D3 JUMPI PUSH1 0x0 DUP1 REVERT JUMPDEST POP PUSH2 0x3DC PUSH2 0xB20 JUMP JUMPDEST PUSH1 0x40 MLOAD PUSH2 0x37A SWAP2 SWAP1 PUSH2 0x3541 JUMP JUMPDEST CALLVALUE DUP1 ISZERO PUSH2 0x3F5 JUMPI PUSH1 0x0 DUP1 REVERT JUMPDEST POP PUSH2 0x3DC PUSH2 0xB44 JUMP JUMPDEST PUSH2 0x3A3 PUSH2 0x40C CALLDATASIZE PUSH1 0x4 PUSH2 0x2D37 JUMP JUMPDEST PUSH2 0xB68 JUMP JUMPDEST CALLVALUE DUP1 ISZERO PUSH2 0x41D JUMPI PUSH1 0x0 DUP1 REVERT JUMPDEST POP PUSH2 0x431 PUSH2 0x42C CALLDATASIZE PUSH1 0x4 PUSH2 0x2FFD JUMP JUMPDEST PUSH2 0xC00 JUMP JUMPDEST PUSH1 0x40 MLOAD PUSH2 0x37A SWAP2 SWAP1 PUSH2 0x34FC JUMP JUMPDEST CALLVALUE DUP1 ISZERO PUSH2 0x44A JUMPI PUSH1 0x0 DUP1 REVERT JUMPDEST POP PUSH2 0x3A3 PUSH2 0x459 CALLDATASIZE PUSH1 0x4 PUSH2 0x3101 JUMP JUMPDEST PUSH2 0xC27 JUMP JUMPDEST CALLVALUE DUP1 ISZERO PUSH2 0x46A JUMPI PUSH1 0x0 DUP1 REVERT JUMPDEST POP PUSH2 0x3DC PUSH2 0x479 CALLDATASIZE PUSH1 0x4 PUSH2 0x2D1D JUMP JUMPDEST PUSH2 0xC36 JUMP JUMPDEST CALLVALUE DUP1 ISZERO PUSH2 0x48A JUMPI PUSH1 0x0 DUP1 REVERT JUMPDEST POP PUSH2 0x3A3 PUSH2 0x499 CALLDATASIZE PUSH1 0x4 PUSH2 0x2D1D JUMP JUMPDEST PUSH2 0xC48 JUMP JUMPDEST CALLVALUE DUP1 ISZERO PUSH2 0x4AA JUMPI PUSH1 0x0 DUP1 REVERT JUMPDEST POP PUSH2 0x3DC PUSH2 0xCEE JUMP JUMPDEST CALLVALUE DUP1 ISZERO PUSH2 0x4BF JUMPI PUSH1 0x0 DUP1 REVERT JUMPDEST POP PUSH2 0x3DC PUSH2 0x4CE CALLDATASIZE PUSH1 0x4 PUSH2 0x2FFD JUMP JUMPDEST PUSH2 0xD12 JUMP JUMPDEST CALLVALUE DUP1 ISZERO PUSH2 0x4DF JUMPI PUSH1 0x0 DUP1 REVERT JUMPDEST POP PUSH2 0x4E8 PUSH2 0xD27 JUMP JUMPDEST PUSH1 0x40 MLOAD PUSH2 0x37A SWAP2 SWAP1 PUSH2 0x3F26 JUMP JUMPDEST CALLVALUE DUP1 ISZERO PUSH2 0x501 JUMPI PUSH1 0x0 DUP1 REVERT JUMPDEST POP PUSH2 0x50A PUSH2 0xD36 JUMP JUMPDEST PUSH1 0x40 MLOAD PUSH2 0x37A SWAP2 SWAP1 PUSH2 0x332D JUMP JUMPDEST CALLVALUE DUP1 ISZERO PUSH2 0x523 JUMPI PUSH1 0x0 DUP1 REVERT JUMPDEST POP PUSH2 0x431 PUSH2 0x532 CALLDATASIZE PUSH1 0x4 PUSH2 0x2FFD JUMP JUMPDEST PUSH2 0xD5A JUMP JUMPDEST CALLVALUE DUP1 ISZERO PUSH2 0x543 JUMPI PUSH1 0x0 DUP1 REVERT JUMPDEST POP PUSH2 0x3A3 PUSH2 0x552 CALLDATASIZE PUSH1 0x4 PUSH2 0x3015 JUMP JUMPDEST PUSH2 0xD6E JUMP JUMPDEST CALLVALUE DUP1 ISZERO PUSH2 0x563 JUMPI PUSH1 0x0 DUP1 REVERT JUMPDEST POP PUSH2 0x431 PUSH2 0x572 CALLDATASIZE PUSH1 0x4 PUSH2 0x2FFD JUMP JUMPDEST PUSH2 0xDD1 JUMP JUMPDEST CALLVALUE DUP1 ISZERO PUSH2 0x583 JUMPI PUSH1 0x0 DUP1 REVERT JUMPDEST POP PUSH2 0x3A3 PUSH2 0x592 CALLDATASIZE PUSH1 0x4 PUSH2 0x3015 JUMP JUMPDEST PUSH2 0xDE4 JUMP JUMPDEST CALLVALUE DUP1 ISZERO PUSH2 0x5A3 JUMPI PUSH1 0x0 DUP1 REVERT JUMPDEST POP PUSH2 0x5AC PUSH2 0xE45 JUMP JUMPDEST PUSH1 0x40 MLOAD PUSH2 0x37A SWAP2 SWAP1 PUSH2 0x3F18 JUMP JUMPDEST CALLVALUE DUP1 ISZERO PUSH2 0x5C5 JUMPI PUSH1 0x0 DUP1 REVERT JUMPDEST POP PUSH2 0x5D9 PUSH2 0x5D4 CALLDATASIZE PUSH1 0x4 PUSH2 0x2FFD JUMP JUMPDEST PUSH2 0xE4A JUMP JUMPDEST PUSH1 0x40 MLOAD PUSH2 0x37A SWAP2 SWAP1 PUSH2 0x3586 JUMP JUMPDEST CALLVALUE DUP1 ISZERO PUSH2 0x5F2 JUMPI PUSH1 0x0 DUP1 REVERT JUMPDEST POP PUSH2 0x606 PUSH2 0x601 CALLDATASIZE PUSH1 0x4 PUSH2 0x3015 JUMP JUMPDEST PUSH2 0x1070 JUMP JUMPDEST PUSH1 0x40 MLOAD PUSH2 0x37A SWAP4 SWAP3 SWAP2 SWAP1 PUSH2 0x3507 JUMP JUMPDEST CALLVALUE DUP1 ISZERO PUSH2 0x621 JUMPI PUSH1 0x0 DUP1 REVERT JUMPDEST POP PUSH2 0x50A PUSH2 0x10AB JUMP JUMPDEST CALLVALUE DUP1 ISZERO PUSH2 0x636 JUMPI PUSH1 0x0 DUP1 REVERT JUMPDEST POP PUSH2 0x3A3 PUSH2 0x645 CALLDATASIZE PUSH1 0x4 PUSH2 0x3123 JUMP JUMPDEST PUSH2 0x10BA JUMP JUMPDEST CALLVALUE DUP1 ISZERO PUSH2 0x656 JUMPI PUSH1 0x0 DUP1 REVERT JUMPDEST POP PUSH2 0x3A3 PUSH2 0x665 CALLDATASIZE PUSH1 0x4 PUSH2 0x319B JUMP JUMPDEST PUSH2 0x1203 JUMP JUMPDEST CALLVALUE DUP1 ISZERO PUSH2 0x676 JUMPI PUSH1 0x0 DUP1 REVERT JUMPDEST POP PUSH2 0x431 PUSH2 0x685 CALLDATASIZE PUSH1 0x4 PUSH2 0x2FFD JUMP JUMPDEST PUSH2 0x127B JUMP JUMPDEST CALLVALUE DUP1 ISZERO PUSH2 0x696 JUMPI PUSH1 0x0 DUP1 REVERT JUMPDEST POP PUSH2 0x3A3 PUSH2 0x6A5 CALLDATASIZE PUSH1 0x4 PUSH2 0x3177 JUMP JUMPDEST PUSH2 0x1288 JUMP JUMPDEST CALLVALUE DUP1 ISZERO PUSH2 0x6B6 JUMPI PUSH1 0x0 DUP1 REVERT JUMPDEST POP PUSH2 0x3A3 PUSH2 0x6C5 CALLDATASIZE PUSH1 0x4 PUSH2 0x2FFD JUMP JUMPDEST PUSH2 0x131C JUMP JUMPDEST CALLVALUE DUP1 ISZERO PUSH2 0x6D6 JUMPI PUSH1 0x0 DUP1 REVERT JUMPDEST POP PUSH2 0x3A3 PUSH2 0x137B JUMP JUMPDEST CALLVALUE DUP1 ISZERO PUSH2 0x6EB JUMPI PUSH1 0x0 DUP1 REVERT JUMPDEST POP PUSH2 0x3DC PUSH2 0x6FA CALLDATASIZE PUSH1 0x4 PUSH2 0x2D37 JUMP JUMPDEST PUSH2 0x13E0 JUMP JUMPDEST CALLVALUE DUP1 ISZERO PUSH2 0x70B JUMPI PUSH1 0x0 DUP1 REVERT JUMPDEST POP PUSH2 0x3A3 PUSH2 0x71A CALLDATASIZE PUSH1 0x4 PUSH2 0x2F4F JUMP JUMPDEST PUSH2 0x141F JUMP JUMPDEST CALLVALUE DUP1 ISZERO PUSH2 0x72B JUMPI PUSH1 0x0 DUP1 REVERT JUMPDEST POP PUSH2 0x3DC PUSH2 0x1575 JUMP JUMPDEST CALLVALUE DUP1 ISZERO PUSH2 0x740 JUMPI PUSH1 0x0 DUP1 REVERT JUMPDEST POP PUSH2 0x50A PUSH2 0x74F CALLDATASIZE PUSH1 0x4 PUSH2 0x3040 JUMP JUMPDEST PUSH2 0x1587 JUMP JUMPDEST CALLVALUE DUP1 ISZERO PUSH2 0x760 JUMPI PUSH1 0x0 DUP1 REVERT JUMPDEST POP PUSH2 0x431 PUSH2 0x76F CALLDATASIZE PUSH1 0x4 PUSH2 0x3015 JUMP JUMPDEST PUSH2 0x15A8 JUMP JUMPDEST CALLVALUE DUP1 ISZERO PUSH2 0x780 JUMPI PUSH1 0x0 DUP1 REVERT JUMPDEST POP PUSH2 0x789 PUSH2 0x15C0 JUMP JUMPDEST PUSH1 0x40 MLOAD PUSH2 0x37A SWAP2 SWAP1 PUSH2 0x3F07 JUMP JUMPDEST PUSH2 0x3A3 PUSH2 0x7A4 CALLDATASIZE PUSH1 0x4 PUSH2 0x3061 JUMP JUMPDEST PUSH2 0x15D3 JUMP JUMPDEST CALLVALUE DUP1 ISZERO PUSH2 0x7B5 JUMPI PUSH1 0x0 DUP1 REVERT JUMPDEST POP PUSH2 0x3DC PUSH2 0x16A3 JUMP JUMPDEST CALLVALUE DUP1 ISZERO PUSH2 0x7CA JUMPI PUSH1 0x0 DUP1 REVERT JUMPDEST POP PUSH2 0x3A3 PUSH2 0x7D9 CALLDATASIZE PUSH1 0x4 PUSH2 0x3061 JUMP JUMPDEST PUSH2 0x16A8 JUMP JUMPDEST CALLVALUE DUP1 ISZERO PUSH2 0x7EA JUMPI PUSH1 0x0 DUP1 REVERT JUMPDEST POP PUSH2 0x3A3 PUSH2 0x7F9 CALLDATASIZE PUSH1 0x4 PUSH2 0x319B JUMP JUMPDEST PUSH2 0x177A JUMP JUMPDEST CALLVALUE DUP1 ISZERO PUSH2 0x80A JUMPI PUSH1 0x0 DUP1 REVERT JUMPDEST POP PUSH2 0x3DC PUSH2 0x819 CALLDATASIZE PUSH1 0x4 PUSH2 0x2E14 JUMP JUMPDEST PUSH2 0x17E9 JUMP JUMPDEST CALLVALUE DUP1 ISZERO PUSH2 0x82A JUMPI PUSH1 0x0 DUP1 REVERT JUMPDEST POP PUSH2 0x3DC PUSH2 0x839 CALLDATASIZE PUSH1 0x4 PUSH2 0x2EAA JUMP JUMPDEST PUSH2 0x1C78 JUMP JUMPDEST CALLVALUE DUP1 ISZERO PUSH2 0x84A JUMPI PUSH1 0x0 DUP1 REVERT JUMPDEST POP PUSH2 0x789 PUSH2 0x1CBD JUMP JUMPDEST CALLVALUE DUP1 ISZERO PUSH2 0x85F JUMPI PUSH1 0x0 DUP1 REVERT JUMPDEST POP PUSH2 0x4E8 PUSH2 0x1CD0 JUMP JUMPDEST CALLVALUE DUP1 ISZERO PUSH2 0x874 JUMPI PUSH1 0x0 DUP1 REVERT JUMPDEST POP PUSH2 0x3A3 PUSH2 0x883 CALLDATASIZE PUSH1 0x4 PUSH2 0x2FFD JUMP JUMPDEST PUSH2 0x1CE6 JUMP JUMPDEST CALLVALUE DUP1 ISZERO PUSH2 0x894 JUMPI PUSH1 0x0 DUP1 REVERT JUMPDEST POP PUSH2 0x3DC PUSH2 0x8A3 CALLDATASIZE PUSH1 0x4 PUSH2 0x2FFD JUMP JUMPDEST PUSH2 0x1D8F JUMP JUMPDEST CALLVALUE DUP1 ISZERO PUSH2 0x8B4 JUMPI PUSH1 0x0 DUP1 REVERT JUMPDEST POP PUSH2 0x3DC PUSH2 0x8C3 CALLDATASIZE PUSH1 0x4 PUSH2 0x2FFD JUMP JUMPDEST PUSH2 0x1DA6 JUMP JUMPDEST CALLVALUE DUP1 ISZERO PUSH2 0x8D4 JUMPI PUSH1 0x0 DUP1 REVERT JUMPDEST POP PUSH2 0x3A3 PUSH2 0x8E3 CALLDATASIZE PUSH1 0x4 PUSH2 0x3015 JUMP JUMPDEST PUSH2 0x1DB8 JUMP JUMPDEST CALLVALUE DUP1 ISZERO PUSH2 0x8F4 JUMPI PUSH1 0x0 DUP1 REVERT JUMPDEST POP PUSH2 0x3DC PUSH2 0x1E11 JUMP JUMPDEST CALLVALUE DUP1 ISZERO PUSH2 0x909 JUMPI PUSH1 0x0 DUP1 REVERT JUMPDEST POP PUSH2 0x789 PUSH2 0x1E17 JUMP JUMPDEST CALLVALUE DUP1 ISZERO PUSH2 0x91E JUMPI PUSH1 0x0 DUP1 REVERT JUMPDEST POP PUSH2 0x3DC PUSH2 0x1E1D JUMP JUMPDEST CALLVALUE DUP1 ISZERO PUSH2 0x933 JUMPI PUSH1 0x0 DUP1 REVERT JUMPDEST POP PUSH2 0x3A3 PUSH2 0x942 CALLDATASIZE PUSH1 0x4 PUSH2 0x2FFD JUMP JUMPDEST PUSH2 0x1E41 JUMP JUMPDEST CALLVALUE DUP1 ISZERO PUSH2 0x953 JUMPI PUSH1 0x0 DUP1 REVERT JUMPDEST POP PUSH2 0x967 PUSH2 0x962 CALLDATASIZE PUSH1 0x4 PUSH2 0x3015 JUMP JUMPDEST PUSH2 0x2053 JUMP JUMPDEST PUSH1 0x40 MLOAD PUSH2 0x37A SWAP2 SWAP1 PUSH2 0x3E6D JUMP JUMPDEST PUSH2 0x3A3 PUSH2 0x982 CALLDATASIZE PUSH1 0x4 PUSH2 0x2EAA JUMP JUMPDEST PUSH2 0x20BB JUMP JUMPDEST CALLVALUE DUP1 ISZERO PUSH2 0x993 JUMPI PUSH1 0x0 DUP1 REVERT JUMPDEST POP PUSH2 0x3A3 PUSH2 0x9A2 CALLDATASIZE PUSH1 0x4 PUSH2 0x3177 JUMP JUMPDEST PUSH2 0x21F6 JUMP JUMPDEST CALLVALUE DUP1 ISZERO PUSH2 0x9B3 JUMPI PUSH1 0x0 DUP1 REVERT JUMPDEST POP PUSH2 0x3DC PUSH2 0x2263 JUMP JUMPDEST PUSH1 0x6 PUSH1 0x20 MSTORE PUSH1 0x0 SWAP1 DUP2 MSTORE PUSH1 0x40 SWAP1 KECCAK256 DUP1 SLOAD PUSH1 0x1 DUP3 ADD SLOAD PUSH1 0x2 DUP4 ADD SLOAD PUSH1 0x3 SWAP1 SWAP4 ADD SLOAD SWAP2 SWAP3 PUSH4 0xFFFFFFFF DUP1 DUP4 AND SWAP4 PUSH5 0x100000000 DUP5 DIV SWAP1 SWAP2 AND SWAP3 PUSH1 0x1 PUSH1 0x1 PUSH1 0x60 SHL SUB PUSH1 0x1 PUSH1 0x40 SHL DUP3 DIV DUP2 AND SWAP4 PUSH1 0x1 PUSH1 0xA0 SHL SWAP3 DUP4 SWAP1 DIV SWAP1 SWAP2 AND SWAP3 PUSH1 0x1 PUSH1 0x1 PUSH1 0xA0 SHL SUB DUP3 AND SWAP3 PUSH1 0xFF SWAP1 DUP4 DIV DUP2 AND SWAP3 PUSH1 0x1 PUSH1 0xA8 SHL SWAP1 DIV AND SWAP1 DUP10 JUMP JUMPDEST PUSH1 0x0 DUP1 MLOAD PUSH1 0x20 PUSH2 0x405D DUP4 CODECOPY DUP2 MLOAD SWAP2 MSTORE PUSH2 0xA4C DUP2 PUSH2 0x76F PUSH2 0x22A8 JUMP JUMPDEST DUP1 PUSH2 0xA5D JUMPI POP PUSH2 0xA5D DUP2 PUSH1 0x0 PUSH2 0x15A8 JUMP JUMPDEST PUSH2 0xA82 JUMPI PUSH1 0x40 MLOAD PUSH3 0x461BCD PUSH1 0xE5 SHL DUP2 MSTORE PUSH1 0x4 ADD PUSH2 0xA79 SWAP1 PUSH2 0x3676 JUMP JUMPDEST PUSH1 0x40 MLOAD DUP1 SWAP2 SUB SWAP1 REVERT JUMPDEST PUSH1 0x0 PUSH2 0xA92 DUP10 DUP10 DUP10 DUP10 DUP10 DUP10 PUSH2 0x13E0 JUMP JUMPDEST SWAP1 POP PUSH2 0xA9E DUP2 DUP5 PUSH2 0x22AC JUMP JUMPDEST PUSH1 0x0 DUP2 PUSH32 0x4CF4410CC57040E44862EF0F45F3DD5A5E02DB8EB8ADD648D4B0E236F1D07DCA DUP12 DUP12 DUP12 DUP12 DUP12 DUP11 PUSH1 0x40 MLOAD PUSH2 0xADA SWAP7 SWAP6 SWAP5 SWAP4 SWAP3 SWAP2 SWAP1 PUSH2 0x33AB JUMP JUMPDEST PUSH1 0x40 MLOAD DUP1 SWAP2 SUB SWAP1 LOG3 POP POP POP POP POP POP POP POP POP JUMP JUMPDEST PUSH1 0x40 MLOAD DUP1 PUSH1 0x40 ADD PUSH1 0x40 MSTORE DUP1 PUSH1 0x17 DUP2 MSTORE PUSH1 0x20 ADD PUSH23 0x4E6F74696F6E616C20476F7665726E6F7220416C706861 PUSH1 0x48 SHL DUP2 MSTORE POP DUP2 JUMP JUMPDEST PUSH32 0xD8AA0F3194971A2A116679F7C2090F6939C8D4E01A2A8D7E41D55E5351469E63 DUP2 JUMP JUMPDEST PUSH32 0x5F58E3A2316349923CE3780F8D587DB2D72378AED66A8261C916544FA6846CA5 DUP2 JUMP JUMPDEST PUSH32 0xD8AA0F3194971A2A116679F7C2090F6939C8D4E01A2A8D7E41D55E5351469E63 PUSH2 0xB95 DUP2 PUSH2 0x76F PUSH2 0x22A8 JUMP JUMPDEST DUP1 PUSH2 0xBA6 JUMPI POP PUSH2 0xBA6 DUP2 PUSH1 0x0 PUSH2 0x15A8 JUMP JUMPDEST PUSH2 0xBC2 JUMPI PUSH1 0x40 MLOAD PUSH3 0x461BCD PUSH1 0xE5 SHL DUP2 MSTORE PUSH1 0x4 ADD PUSH2 0xA79 SWAP1 PUSH2 0x3676 JUMP JUMPDEST PUSH1 0x0 PUSH2 0xBD2 DUP9 DUP9 DUP9 DUP9 DUP9 DUP9 PUSH2 0x13E0 JUMP JUMPDEST SWAP1 POP PUSH2 0xBDE DUP2 DUP6 PUSH2 0x2319 JUMP JUMPDEST PUSH2 0xBED DUP2 PUSH1 0x0 DUP11 DUP11 DUP11 DUP11 PUSH2 0x236B JUMP JUMPDEST PUSH2 0xBF6 DUP2 PUSH2 0x2433 JUMP JUMPDEST POP POP POP POP POP POP POP POP JUMP JUMPDEST PUSH1 0x0 DUP1 PUSH2 0xC0C DUP4 PUSH2 0x1DA6 JUMP JUMPDEST SWAP1 POP PUSH1 0x1 DUP2 GT DUP1 ISZERO PUSH2 0xC1E JUMPI POP TIMESTAMP DUP2 GT ISZERO JUMPDEST SWAP2 POP POP JUMPDEST SWAP2 SWAP1 POP JUMP JUMPDEST PUSH2 0xC32 CALLER DUP4 DUP4 PUSH2 0x246C JUMP JUMPDEST POP POP JUMP JUMPDEST PUSH1 0x8 PUSH1 0x20 MSTORE PUSH1 0x0 SWAP1 DUP2 MSTORE PUSH1 0x40 SWAP1 KECCAK256 SLOAD DUP2 JUMP JUMPDEST PUSH1 0x4 SLOAD PUSH1 0x1 PUSH1 0x1 PUSH1 0xA0 SHL SUB AND CALLER EQ PUSH2 0xC72 JUMPI PUSH1 0x40 MLOAD PUSH3 0x461BCD PUSH1 0xE5 SHL DUP2 MSTORE PUSH1 0x4 ADD PUSH2 0xA79 SWAP1 PUSH2 0x37BE JUMP JUMPDEST PUSH1 0x1 PUSH1 0x1 PUSH1 0xA0 SHL SUB DUP2 AND PUSH2 0xC98 JUMPI PUSH1 0x40 MLOAD PUSH3 0x461BCD PUSH1 0xE5 SHL DUP2 MSTORE PUSH1 0x4 ADD PUSH2 0xA79 SWAP1 PUSH2 0x3B0F JUMP JUMPDEST PUSH1 0x4 DUP1 SLOAD PUSH1 0x1 PUSH1 0x1 PUSH1 0xA0 SHL SUB NOT AND PUSH1 0x1 PUSH1 0x1 PUSH1 0xA0 SHL SUB DUP4 AND OR SWAP1 SSTORE PUSH1 0x40 MLOAD PUSH32 0x36826E87F86E1B36B72883E7C7478B12C59472674D51B3254836445FFE448445 SWAP1 PUSH2 0xCE3 SWAP1 DUP4 SWAP1 PUSH2 0x332D JUMP JUMPDEST PUSH1 0x40 MLOAD DUP1 SWAP2 SUB SWAP1 LOG1 POP JUMP JUMPDEST PUSH32 0x8CAD95687BA82C2CE50E74F7B754645E5117C3A5BEC8151C0726D5857980A866 DUP2 JUMP JUMPDEST PUSH1 0x0 SWAP1 DUP2 MSTORE PUSH1 0x20 DUP2 SWAP1 MSTORE PUSH1 0x40 SWAP1 KECCAK256 PUSH1 0x2 ADD SLOAD SWAP1 JUMP JUMPDEST PUSH1 0x3 SLOAD PUSH1 0x1 PUSH1 0x1 PUSH1 0x60 SHL SUB AND DUP2 JUMP JUMPDEST PUSH32 0x0 DUP2 JUMP JUMPDEST PUSH1 0x0 PUSH1 0x1 PUSH2 0xD67 DUP4 PUSH2 0x1DA6 JUMP JUMPDEST EQ SWAP3 SWAP2 POP POP JUMP JUMPDEST PUSH1 0x0 DUP3 DUP2 MSTORE PUSH1 0x20 DUP2 SWAP1 MSTORE PUSH1 0x40 SWAP1 KECCAK256 PUSH1 0x2 ADD SLOAD PUSH2 0xD8C SWAP1 PUSH2 0x76F PUSH2 0x22A8 JUMP JUMPDEST PUSH2 0xDC7 JUMPI PUSH1 0x40 MLOAD PUSH3 0x461BCD PUSH1 0xE5 SHL DUP2 MSTORE PUSH1 0x4 ADD DUP1 DUP1 PUSH1 0x20 ADD DUP3 DUP2 SUB DUP3 MSTORE PUSH1 0x2F DUP2 MSTORE PUSH1 0x20 ADD DUP1 PUSH2 0x3FBA PUSH1 0x2F SWAP2 CODECOPY PUSH1 0x40 ADD SWAP2 POP POP PUSH1 0x40 MLOAD DUP1 SWAP2 SUB SWAP1 REVERT JUMPDEST PUSH2 0xC32 DUP3 DUP3 PUSH2 0x26D3 JUMP JUMPDEST PUSH1 0x0 DUP1 PUSH2 0xDDD DUP4 PUSH2 0x1DA6 JUMP JUMPDEST GT SWAP3 SWAP2 POP POP JUMP JUMPDEST PUSH2 0xDEC PUSH2 0x22A8 JUMP JUMPDEST PUSH1 0x1 PUSH1 0x1 PUSH1 0xA0 SHL SUB AND DUP2 PUSH1 0x1 PUSH1 0x1 PUSH1 0xA0 SHL SUB AND EQ PUSH2 0xE3B JUMPI PUSH1 0x40 MLOAD PUSH3 0x461BCD PUSH1 0xE5 SHL DUP2 MSTORE PUSH1 0x4 ADD DUP1 DUP1 PUSH1 0x20 ADD DUP3 DUP2 SUB DUP3 MSTORE PUSH1 0x2F DUP2 MSTORE PUSH1 0x20 ADD DUP1 PUSH2 0x407D PUSH1 0x2F SWAP2 CODECOPY PUSH1 0x40 ADD SWAP2 POP POP PUSH1 0x40 MLOAD DUP1 SWAP2 SUB SWAP1 REVERT JUMPDEST PUSH2 0xC32 DUP3 DUP3 PUSH2 0x273C JUMP JUMPDEST PUSH1 0xA DUP2 JUMP JUMPDEST PUSH1 0x0 DUP2 PUSH1 0x5 SLOAD LT ISZERO DUP1 ISZERO PUSH2 0xE5E JUMPI POP PUSH1 0x0 DUP3 GT JUMPDEST PUSH2 0xE7A JUMPI PUSH1 0x40 MLOAD PUSH3 0x461BCD PUSH1 0xE5 SHL DUP2 MSTORE PUSH1 0x4 ADD PUSH2 0xA79 SWAP1 PUSH2 0x3728 JUMP JUMPDEST PUSH1 0x0 DUP3 DUP2 MSTORE PUSH1 0x6 PUSH1 0x20 SWAP1 DUP2 MSTORE PUSH1 0x40 SWAP2 DUP3 SWAP1 KECCAK256 DUP3 MLOAD PUSH2 0x120 DUP2 ADD DUP5 MSTORE DUP2 SLOAD DUP2 MSTORE PUSH1 0x1 DUP3 ADD SLOAD PUSH4 0xFFFFFFFF DUP1 DUP3 AND SWAP5 DUP4 ADD SWAP5 SWAP1 SWAP5 MSTORE PUSH5 0x100000000 DUP2 DIV SWAP1 SWAP4 AND SWAP4 DUP2 ADD SWAP4 SWAP1 SWAP4 MSTORE PUSH1 0x1 PUSH1 0x1 PUSH1 0x60 SHL SUB PUSH1 0x1 PUSH1 0x40 SHL DUP4 DIV DUP2 AND PUSH1 0x60 DUP6 ADD MSTORE PUSH1 0x1 PUSH1 0xA0 SHL SWAP3 DUP4 SWAP1 DIV AND PUSH1 0x80 DUP5 ADD MSTORE PUSH1 0x2 DUP2 ADD SLOAD PUSH1 0x1 PUSH1 0x1 PUSH1 0xA0 SHL SUB DUP2 AND PUSH1 0xA0 DUP6 ADD MSTORE PUSH1 0xFF SWAP3 DUP2 DIV DUP4 AND ISZERO ISZERO PUSH1 0xC0 DUP6 ADD MSTORE PUSH1 0x1 PUSH1 0xA8 SHL SWAP1 DIV SWAP1 SWAP2 AND ISZERO ISZERO PUSH1 0xE0 DUP4 ADD MSTORE PUSH1 0x3 ADD SLOAD PUSH2 0x100 DUP3 ADD MSTORE NUMBER DUP1 ISZERO DUP1 ISZERO SWAP1 PUSH2 0xF35 JUMPI POP PUSH4 0xFFFFFFFF DUP2 GT ISZERO JUMPDEST PUSH2 0xF3E JUMPI PUSH1 0x0 DUP1 REVERT JUMPDEST DUP2 PUSH1 0xC0 ADD MLOAD ISZERO PUSH2 0xF53 JUMPI PUSH1 0x2 SWAP3 POP POP POP PUSH2 0xC22 JUMP JUMPDEST DUP2 PUSH1 0x20 ADD MLOAD PUSH4 0xFFFFFFFF AND DUP2 GT PUSH2 0xF6F JUMPI PUSH1 0x0 SWAP3 POP POP POP PUSH2 0xC22 JUMP JUMPDEST DUP2 PUSH1 0x40 ADD MLOAD PUSH4 0xFFFFFFFF AND DUP2 GT PUSH2 0xF8B JUMPI PUSH1 0x1 SWAP3 POP POP POP PUSH2 0xC22 JUMP JUMPDEST DUP2 PUSH1 0x80 ADD MLOAD PUSH1 0x1 PUSH1 0x1 PUSH1 0x60 SHL SUB AND DUP3 PUSH1 0x60 ADD MLOAD PUSH1 0x1 PUSH1 0x1 PUSH1 0x60 SHL SUB AND GT ISZERO DUP1 PUSH2 0xFC6 JUMPI POP PUSH1 0x3 SLOAD PUSH1 0x60 DUP4 ADD MLOAD PUSH1 0x1 PUSH1 0x1 PUSH1 0x60 SHL SUB SWAP2 DUP3 AND SWAP2 AND LT JUMPDEST ISZERO PUSH2 0xFD6 JUMPI PUSH1 0x3 SWAP3 POP POP POP PUSH2 0xC22 JUMP JUMPDEST DUP2 PUSH1 0xE0 ADD MLOAD ISZERO PUSH2 0xFEB JUMPI PUSH1 0x6 SWAP3 POP POP POP PUSH2 0xC22 JUMP JUMPDEST PUSH2 0xFF9 DUP3 PUSH2 0x100 ADD MLOAD PUSH2 0x127B JUMP JUMPDEST ISZERO PUSH2 0x1009 JUMPI PUSH1 0x5 SWAP3 POP POP POP PUSH2 0xC22 JUMP JUMPDEST DUP2 PUSH1 0x80 ADD MLOAD PUSH1 0x1 PUSH1 0x1 PUSH1 0x60 SHL SUB AND DUP3 PUSH1 0x60 ADD MLOAD PUSH1 0x1 PUSH1 0x1 PUSH1 0x60 SHL SUB AND GT DUP1 ISZERO PUSH2 0x1044 JUMPI POP PUSH1 0x3 SLOAD PUSH1 0x60 DUP4 ADD MLOAD PUSH1 0x1 PUSH1 0x1 PUSH1 0x60 SHL SUB SWAP2 DUP3 AND SWAP2 AND GT JUMPDEST DUP1 ISZERO PUSH2 0x1059 JUMPI POP DUP2 PUSH1 0x40 ADD MLOAD PUSH4 0xFFFFFFFF AND DUP2 GT JUMPDEST ISZERO PUSH2 0x1069 JUMPI PUSH1 0x4 SWAP3 POP POP POP PUSH2 0xC22 JUMP JUMPDEST POP POP SWAP2 SWAP1 POP JUMP JUMPDEST PUSH1 0x7 PUSH1 0x20 SWAP1 DUP2 MSTORE PUSH1 0x0 SWAP3 DUP4 MSTORE PUSH1 0x40 DUP1 DUP5 KECCAK256 SWAP1 SWAP2 MSTORE SWAP1 DUP3 MSTORE SWAP1 KECCAK256 SLOAD PUSH1 0xFF DUP1 DUP3 AND SWAP2 PUSH2 0x100 DUP2 DIV SWAP1 SWAP2 AND SWAP1 PUSH3 0x10000 SWAP1 DIV PUSH1 0x1 PUSH1 0x1 PUSH1 0x60 SHL SUB AND DUP4 JUMP JUMPDEST PUSH1 0x4 SLOAD PUSH1 0x1 PUSH1 0x1 PUSH1 0xA0 SHL SUB AND DUP2 JUMP JUMPDEST PUSH1 0x40 DUP1 MLOAD DUP1 DUP3 ADD SWAP1 SWAP2 MSTORE PUSH1 0x17 DUP2 MSTORE PUSH23 0x4E6F74696F6E616C20476F7665726E6F7220416C706861 PUSH1 0x48 SHL PUSH1 0x20 SWAP1 SWAP2 ADD MSTORE PUSH1 0x0 PUSH32 0x8CAD95687BA82C2CE50E74F7B754645E5117C3A5BEC8151C0726D5857980A866 PUSH32 0xE9B969B80363BD7CB59FE81A78F41D9F457788F63D1C29FB79439075A7EF5F1A PUSH2 0x1135 PUSH2 0x27A5 JUMP JUMPDEST ADDRESS PUSH1 0x40 MLOAD PUSH1 0x20 ADD PUSH2 0x1149 SWAP5 SWAP4 SWAP3 SWAP2 SWAP1 PUSH2 0x354A JUMP JUMPDEST PUSH1 0x40 MLOAD PUSH1 0x20 DUP2 DUP4 SUB SUB DUP2 MSTORE SWAP1 PUSH1 0x40 MSTORE DUP1 MLOAD SWAP1 PUSH1 0x20 ADD KECCAK256 SWAP1 POP PUSH1 0x0 PUSH32 0x8E25870C07E0B0B3884C78DA52790939A455C275406C44AE8B434B692FB916EE DUP8 DUP8 PUSH1 0x40 MLOAD PUSH1 0x20 ADD PUSH2 0x1198 SWAP4 SWAP3 SWAP2 SWAP1 PUSH2 0x356E JUMP JUMPDEST PUSH1 0x40 MLOAD PUSH1 0x20 DUP2 DUP4 SUB SUB DUP2 MSTORE SWAP1 PUSH1 0x40 MSTORE DUP1 MLOAD SWAP1 PUSH1 0x20 ADD KECCAK256 SWAP1 POP PUSH1 0x0 DUP3 DUP3 PUSH1 0x40 MLOAD PUSH1 0x20 ADD PUSH2 0x11C5 SWAP3 SWAP2 SWAP1 PUSH2 0x3312 JUMP JUMPDEST PUSH1 0x40 MLOAD PUSH1 0x20 DUP2 DUP4 SUB SUB DUP2 MSTORE SWAP1 PUSH1 0x40 MSTORE DUP1 MLOAD SWAP1 PUSH1 0x20 ADD KECCAK256 SWAP1 POP PUSH1 0x0 PUSH2 0x11EB DUP3 DUP9 DUP9 DUP9 PUSH2 0x27A9 JUMP JUMPDEST SWAP1 POP PUSH2 0x11F8 DUP2 DUP11 DUP11 PUSH2 0x246C JUMP JUMPDEST POP POP POP POP POP POP POP POP POP JUMP JUMPDEST CALLER ADDRESS EQ PUSH2 0x1222 JUMPI PUSH1 0x40 MLOAD PUSH3 0x461BCD PUSH1 0xE5 SHL DUP2 MSTORE PUSH1 0x4 ADD PUSH2 0xA79 SWAP1 PUSH2 0x381B JUMP JUMPDEST PUSH1 0x3 DUP1 SLOAD PUSH12 0xFFFFFFFFFFFFFFFFFFFFFFFF PUSH1 0x60 SHL NOT AND PUSH1 0x1 PUSH1 0x60 SHL PUSH1 0x1 PUSH1 0x1 PUSH1 0x60 SHL SUB DUP5 AND MUL OR SWAP1 SSTORE PUSH1 0x40 MLOAD PUSH32 0x3AC61FE2B647A8E449AB34419FD8B66DD0823DD7ED01C3585599FC753D1771A7 SWAP1 PUSH2 0xCE3 SWAP1 DUP4 SWAP1 PUSH2 0x3F26 JUMP JUMPDEST PUSH1 0x0 PUSH1 0x1 PUSH2 0xDDD DUP4 PUSH2 0x1DA6 JUMP JUMPDEST CALLER ADDRESS EQ PUSH2 0x12A7 JUMPI PUSH1 0x40 MLOAD PUSH3 0x461BCD PUSH1 0xE5 SHL DUP2 MSTORE PUSH1 0x4 ADD PUSH2 0xA79 SWAP1 PUSH2 0x381B JUMP JUMPDEST PUSH2 0x1A2C PUSH4 0xFFFFFFFF DUP3 AND LT ISZERO PUSH2 0x12CF JUMPI PUSH1 0x40 MLOAD PUSH3 0x461BCD PUSH1 0xE5 SHL DUP2 MSTORE PUSH1 0x4 ADD PUSH2 0xA79 SWAP1 PUSH2 0x3959 JUMP JUMPDEST PUSH1 0x3 DUP1 SLOAD PUSH1 0x1 PUSH1 0x1 PUSH1 0xE0 SHL SUB AND PUSH1 0x1 PUSH1 0xE0 SHL PUSH4 0xFFFFFFFF DUP5 AND MUL OR SWAP1 SSTORE PUSH1 0x40 MLOAD PUSH32 0xE45E050AF6F329C98FA2102FFC7F869AD04D1C53FEBF68C656CA80D5343D5F4F SWAP1 PUSH2 0xCE3 SWAP1 DUP4 SWAP1 PUSH2 0x3F07 JUMP JUMPDEST CALLER ADDRESS EQ PUSH2 0x133B JUMPI PUSH1 0x40 MLOAD PUSH3 0x461BCD PUSH1 0xE5 SHL DUP2 MSTORE PUSH1 0x4 ADD PUSH2 0xA79 SWAP1 PUSH2 0x3D98 JUMP JUMPDEST PUSH32 0x11C24F4EAD16507C69AC467FBD5E4EED5FB5C699626D2CC6D66421DF253886D5 PUSH1 0x2 SLOAD DUP3 PUSH1 0x40 MLOAD PUSH2 0x136E SWAP3 SWAP2 SWAP1 PUSH2 0x3E9B JUMP JUMPDEST PUSH1 0x40 MLOAD DUP1 SWAP2 SUB SWAP1 LOG1 PUSH1 0x2 SSTORE JUMP JUMPDEST PUSH1 0x4 SLOAD PUSH1 0x1 PUSH1 0x1 PUSH1 0xA0 SHL SUB AND CALLER EQ PUSH2 0x13A5 JUMPI PUSH1 0x40 MLOAD PUSH3 0x461BCD PUSH1 0xE5 SHL DUP2 MSTORE PUSH1 0x4 ADD PUSH2 0xA79 SWAP1 PUSH2 0x3D42 JUMP JUMPDEST PUSH1 0x4 DUP1 SLOAD PUSH1 0x1 PUSH1 0x1 PUSH1 0xA0 SHL SUB NOT AND SWAP1 SSTORE PUSH1 0x40 MLOAD PUSH32 0xBAD8E82B686F0760035C7A4B282AD4D87884172FF1FBE67DBCEC14D771222ED SWAP1 PUSH1 0x0 SWAP1 LOG1 JUMP JUMPDEST PUSH1 0x0 DUP7 DUP7 DUP7 DUP7 DUP7 DUP7 PUSH1 0x40 MLOAD PUSH1 0x20 ADD PUSH2 0x13FD SWAP7 SWAP6 SWAP5 SWAP4 SWAP3 SWAP2 SWAP1 PUSH2 0x33AB JUMP JUMPDEST PUSH1 0x40 MLOAD PUSH1 0x20 DUP2 DUP4 SUB SUB DUP2 MSTORE SWAP1 PUSH1 0x40 MSTORE DUP1 MLOAD SWAP1 PUSH1 0x20 ADD KECCAK256 SWAP1 POP SWAP7 SWAP6 POP POP POP POP POP POP JUMP JUMPDEST PUSH1 0x0 DUP1 MLOAD PUSH1 0x20 PUSH2 0x405D DUP4 CODECOPY DUP2 MLOAD SWAP2 MSTORE PUSH2 0x143A DUP2 PUSH2 0x76F PUSH2 0x22A8 JUMP JUMPDEST DUP1 PUSH2 0x144B JUMPI POP PUSH2 0x144B DUP2 PUSH1 0x0 PUSH2 0x15A8 JUMP JUMPDEST PUSH2 0x1467 JUMPI PUSH1 0x40 MLOAD PUSH3 0x461BCD PUSH1 0xE5 SHL DUP2 MSTORE PUSH1 0x4 ADD PUSH2 0xA79 SWAP1 PUSH2 0x3676 JUMP JUMPDEST DUP9 DUP8 EQ PUSH2 0x1486 JUMPI PUSH1 0x40 MLOAD PUSH3 0x461BCD PUSH1 0xE5 SHL DUP2 MSTORE PUSH1 0x4 ADD PUSH2 0xA79 SWAP1 PUSH2 0x3633 JUMP JUMPDEST DUP9 DUP6 EQ PUSH2 0x14A5 JUMPI PUSH1 0x40 MLOAD PUSH3 0x461BCD PUSH1 0xE5 SHL DUP2 MSTORE PUSH1 0x4 ADD PUSH2 0xA79 SWAP1 PUSH2 0x3633 JUMP JUMPDEST PUSH1 0x0 PUSH2 0x14B7 DUP12 DUP12 DUP12 DUP12 DUP12 DUP12 DUP12 DUP12 PUSH2 0x1C78 JUMP JUMPDEST SWAP1 POP PUSH2 0x14C3 DUP2 DUP5 PUSH2 0x22AC JUMP JUMPDEST PUSH1 0x0 JUMPDEST DUP11 DUP2 LT ISZERO PUSH2 0x1567 JUMPI DUP1 DUP3 PUSH32 0x4CF4410CC57040E44862EF0F45F3DD5A5E02DB8EB8ADD648D4B0E236F1D07DCA DUP15 DUP15 DUP6 DUP2 DUP2 LT PUSH2 0x14FD JUMPI INVALID JUMPDEST SWAP1 POP PUSH1 0x20 MUL ADD PUSH1 0x20 DUP2 ADD SWAP1 PUSH2 0x1512 SWAP2 SWAP1 PUSH2 0x2D1D JUMP JUMPDEST DUP14 DUP14 DUP7 DUP2 DUP2 LT PUSH2 0x151E JUMPI INVALID JUMPDEST SWAP1 POP PUSH1 0x20 MUL ADD CALLDATALOAD DUP13 DUP13 DUP8 DUP2 DUP2 LT PUSH2 0x1531 JUMPI INVALID JUMPDEST SWAP1 POP PUSH1 0x20 MUL DUP2 ADD SWAP1 PUSH2 0x1543 SWAP2 SWAP1 PUSH2 0x3F3A JUMP JUMPDEST DUP13 DUP12 PUSH1 0x40 MLOAD PUSH2 0x1557 SWAP7 SWAP6 SWAP5 SWAP4 SWAP3 SWAP2 SWAP1 PUSH2 0x33AB JUMP JUMPDEST PUSH1 0x40 MLOAD DUP1 SWAP2 SUB SWAP1 LOG3 PUSH1 0x1 ADD PUSH2 0x14C6 JUMP JUMPDEST POP POP POP POP POP POP POP POP POP POP POP POP JUMP JUMPDEST PUSH1 0x0 DUP1 MLOAD PUSH1 0x20 PUSH2 0x405D DUP4 CODECOPY DUP2 MLOAD SWAP2 MSTORE DUP2 JUMP JUMPDEST PUSH1 0x0 DUP3 DUP2 MSTORE PUSH1 0x20 DUP2 SWAP1 MSTORE PUSH1 0x40 DUP2 KECCAK256 PUSH2 0x159F SWAP1 DUP4 PUSH2 0x2927 JUMP JUMPDEST SWAP1 POP JUMPDEST SWAP3 SWAP2 POP POP JUMP JUMPDEST PUSH1 0x0 DUP3 DUP2 MSTORE PUSH1 0x20 DUP2 SWAP1 MSTORE PUSH1 0x40 DUP2 KECCAK256 PUSH2 0x159F SWAP1 DUP4 PUSH2 0x227E JUMP JUMPDEST PUSH1 0x3 SLOAD PUSH1 0x1 PUSH1 0xC0 SHL SWAP1 DIV PUSH4 0xFFFFFFFF AND DUP2 JUMP JUMPDEST PUSH1 0x5 PUSH2 0x15DE DUP9 PUSH2 0xE4A JUMP JUMPDEST PUSH1 0x6 DUP2 GT ISZERO PUSH2 0x15E9 JUMPI INVALID JUMPDEST EQ PUSH2 0x1606 JUMPI PUSH1 0x40 MLOAD PUSH3 0x461BCD PUSH1 0xE5 SHL DUP2 MSTORE PUSH1 0x4 ADD PUSH2 0xA79 SWAP1 PUSH2 0x36FB JUMP JUMPDEST PUSH1 0x0 DUP8 DUP2 MSTORE PUSH1 0x6 PUSH1 0x20 MSTORE PUSH1 0x40 DUP2 KECCAK256 PUSH1 0x2 DUP2 ADD DUP1 SLOAD PUSH1 0xFF PUSH1 0xA8 SHL NOT AND PUSH1 0x1 PUSH1 0xA8 SHL OR SWAP1 SSTORE SWAP1 PUSH2 0x1639 DUP9 DUP9 DUP9 DUP9 DUP9 DUP9 DUP16 PUSH2 0x2933 JUMP JUMPDEST SWAP1 POP DUP2 PUSH1 0x3 ADD SLOAD DUP2 EQ PUSH2 0x165E JUMPI PUSH1 0x40 MLOAD PUSH3 0x461BCD PUSH1 0xE5 SHL DUP2 MSTORE PUSH1 0x4 ADD PUSH2 0xA79 SWAP1 PUSH2 0x3E36 JUMP JUMPDEST PUSH2 0x166D DUP9 DUP9 DUP9 DUP9 DUP9 DUP9 DUP16 PUSH2 0x2951 JUMP JUMPDEST PUSH1 0x40 MLOAD DUP10 SWAP1 PUSH32 0x712AE1383F79AC853F8D882153778E0260EF8F03B504E2866E0593E04D2B291F SWAP1 PUSH1 0x0 SWAP1 LOG2 POP POP POP POP POP POP POP POP POP JUMP JUMPDEST PUSH1 0x0 DUP2 JUMP JUMPDEST PUSH1 0x4 PUSH2 0x16B3 DUP9 PUSH2 0xE4A JUMP JUMPDEST PUSH1 0x6 DUP2 GT ISZERO PUSH2 0x16BE JUMPI INVALID JUMPDEST EQ PUSH2 0x16DB JUMPI PUSH1 0x40 MLOAD PUSH3 0x461BCD PUSH1 0xE5 SHL DUP2 MSTORE PUSH1 0x4 ADD PUSH2 0xA79 SWAP1 PUSH2 0x3CC1 JUMP JUMPDEST PUSH1 0x0 PUSH2 0x16EC DUP8 DUP8 DUP8 DUP8 DUP8 DUP8 DUP15 PUSH2 0x2933 JUMP JUMPDEST PUSH1 0x0 DUP10 DUP2 MSTORE PUSH1 0x6 PUSH1 0x20 MSTORE PUSH1 0x40 SWAP1 KECCAK256 PUSH1 0x3 DUP2 ADD SLOAD SWAP2 SWAP3 POP SWAP1 DUP3 EQ PUSH2 0x1721 JUMPI PUSH1 0x40 MLOAD PUSH3 0x461BCD PUSH1 0xE5 SHL DUP2 MSTORE PUSH1 0x4 ADD PUSH2 0xA79 SWAP1 PUSH2 0x3E36 JUMP JUMPDEST POP PUSH2 0x1731 DUP8 DUP8 DUP8 DUP8 DUP8 DUP8 DUP15 PUSH2 0x29BE JUMP JUMPDEST DUP8 PUSH32 0x9A2E42FD6722813D69113E7D0079D3D940171428DF7373DF9C7F7617CFDA2892 PUSH2 0x175B PUSH2 0x2263 JUMP JUMPDEST PUSH1 0x40 MLOAD PUSH2 0x1768 SWAP2 SWAP1 PUSH2 0x3541 JUMP JUMPDEST PUSH1 0x40 MLOAD DUP1 SWAP2 SUB SWAP1 LOG2 POP POP POP POP POP POP POP POP JUMP JUMPDEST CALLER ADDRESS EQ PUSH2 0x1799 JUMPI PUSH1 0x40 MLOAD PUSH3 0x461BCD PUSH1 0xE5 SHL DUP2 MSTORE PUSH1 0x4 ADD PUSH2 0xA79 SWAP1 PUSH2 0x381B JUMP JUMPDEST PUSH1 0x3 DUP1 SLOAD PUSH12 0xFFFFFFFFFFFFFFFFFFFFFFFF NOT AND PUSH1 0x1 PUSH1 0x1 PUSH1 0x60 SHL SUB DUP4 AND OR SWAP1 SSTORE PUSH1 0x40 MLOAD PUSH32 0xBC5F124165B1165274F3788B8B7B072F1A52C67A17EB2E9942327D511DBF2FB5 SWAP1 PUSH2 0xCE3 SWAP1 DUP4 SWAP1 PUSH2 0x3F26 JUMP JUMPDEST PUSH1 0x0 DUP1 NUMBER GT DUP1 ISZERO PUSH2 0x17FD JUMPI POP PUSH4 0xFFFFFFFF NUMBER LT JUMPDEST PUSH2 0x1806 JUMPI PUSH1 0x0 DUP1 REVERT JUMPDEST PUSH1 0x3 SLOAD PUSH1 0x40 MLOAD PUSH4 0x782D6FE1 PUSH1 0xE0 SHL DUP2 MSTORE NUMBER SWAP2 PUSH1 0x1 PUSH1 0x60 SHL SWAP1 DIV PUSH1 0x1 PUSH1 0x1 PUSH1 0x60 SHL SUB AND SWAP1 PUSH32 0x0 PUSH1 0x1 PUSH1 0x1 PUSH1 0xA0 SHL SUB AND SWAP1 PUSH4 0x782D6FE1 SWAP1 PUSH2 0x186E SWAP1 CALLER SWAP1 PUSH1 0x0 NOT DUP8 ADD SWAP1 PUSH1 0x4 ADD PUSH2 0x3341 JUMP JUMPDEST PUSH1 0x20 PUSH1 0x40 MLOAD DUP1 DUP4 SUB DUP2 DUP7 DUP1 EXTCODESIZE ISZERO DUP1 ISZERO PUSH2 0x1886 JUMPI PUSH1 0x0 DUP1 REVERT JUMPDEST POP GAS STATICCALL ISZERO DUP1 ISZERO PUSH2 0x189A JUMPI RETURNDATASIZE PUSH1 0x0 DUP1 RETURNDATACOPY RETURNDATASIZE PUSH1 0x0 REVERT JUMPDEST POP POP POP POP PUSH1 0x40 MLOAD RETURNDATASIZE PUSH1 0x1F NOT PUSH1 0x1F DUP3 ADD AND DUP3 ADD DUP1 PUSH1 0x40 MSTORE POP DUP2 ADD SWAP1 PUSH2 0x18BE SWAP2 SWAP1 PUSH2 0x31B7 JUMP JUMPDEST PUSH1 0x1 PUSH1 0x1 PUSH1 0x60 SHL SUB AND LT ISZERO PUSH2 0x18E5 JUMPI PUSH1 0x40 MLOAD PUSH3 0x461BCD PUSH1 0xE5 SHL DUP2 MSTORE PUSH1 0x4 ADD PUSH2 0xA79 SWAP1 PUSH2 0x3B90 JUMP JUMPDEST DUP7 DUP6 EQ DUP1 ISZERO PUSH2 0x18F3 JUMPI POP DUP7 DUP4 EQ JUMPDEST PUSH2 0x190F JUMPI PUSH1 0x40 MLOAD PUSH3 0x461BCD PUSH1 0xE5 SHL DUP2 MSTORE PUSH1 0x4 ADD PUSH2 0xA79 SWAP1 PUSH2 0x39BB JUMP JUMPDEST DUP7 PUSH2 0x192C JUMPI PUSH1 0x40 MLOAD PUSH3 0x461BCD PUSH1 0xE5 SHL DUP2 MSTORE PUSH1 0x4 ADD PUSH2 0xA79 SWAP1 PUSH2 0x3A74 JUMP JUMPDEST PUSH1 0xA DUP8 GT ISZERO PUSH2 0x194D JUMPI PUSH1 0x40 MLOAD PUSH3 0x461BCD PUSH1 0xE5 SHL DUP2 MSTORE PUSH1 0x4 ADD PUSH2 0xA79 SWAP1 PUSH2 0x3911 JUMP JUMPDEST CALLER PUSH1 0x0 SWAP1 DUP2 MSTORE PUSH1 0x8 PUSH1 0x20 MSTORE PUSH1 0x40 SWAP1 KECCAK256 SLOAD DUP1 ISZERO PUSH2 0x19CA JUMPI PUSH1 0x0 PUSH2 0x196E DUP3 PUSH2 0xE4A JUMP JUMPDEST SWAP1 POP PUSH1 0x1 DUP2 PUSH1 0x6 DUP2 GT ISZERO PUSH2 0x197E JUMPI INVALID JUMPDEST EQ ISZERO PUSH2 0x199C JUMPI PUSH1 0x40 MLOAD PUSH3 0x461BCD PUSH1 0xE5 SHL DUP2 MSTORE PUSH1 0x4 ADD PUSH2 0xA79 SWAP1 PUSH2 0x3BED JUMP JUMPDEST PUSH1 0x0 DUP2 PUSH1 0x6 DUP2 GT ISZERO PUSH2 0x19AA JUMPI INVALID JUMPDEST EQ ISZERO PUSH2 0x19C8 JUMPI PUSH1 0x40 MLOAD PUSH3 0x461BCD PUSH1 0xE5 SHL DUP2 MSTORE PUSH1 0x4 ADD PUSH2 0xA79 SWAP1 PUSH2 0x3848 JUMP JUMPDEST POP JUMPDEST POP PUSH1 0x5 DUP1 SLOAD PUSH1 0x1 ADD SWAP1 DUP2 SWAP1 SSTORE PUSH1 0x3 SLOAD PUSH1 0x0 SWAP1 PUSH2 0x19F4 SWAP1 DUP5 SWAP1 PUSH1 0x1 PUSH1 0xC0 SHL SWAP1 DIV PUSH4 0xFFFFFFFF AND PUSH2 0x29F9 JUMP JUMPDEST SWAP1 POP PUSH1 0x0 PUSH2 0x1A14 DUP3 PUSH1 0x3 PUSH1 0x1C SWAP1 SLOAD SWAP1 PUSH2 0x100 EXP SWAP1 DIV PUSH4 0xFFFFFFFF AND PUSH2 0x29F9 JUMP JUMPDEST SWAP1 POP PUSH1 0x0 PUSH2 0x1A27 DUP13 DUP13 DUP13 DUP13 DUP13 DUP13 DUP11 PUSH2 0x2933 JUMP JUMPDEST SWAP1 POP PUSH1 0x0 PUSH1 0x40 MLOAD DUP1 PUSH2 0x120 ADD PUSH1 0x40 MSTORE DUP1 DUP7 DUP2 MSTORE PUSH1 0x20 ADD DUP6 PUSH4 0xFFFFFFFF AND DUP2 MSTORE PUSH1 0x20 ADD DUP5 PUSH4 0xFFFFFFFF AND DUP2 MSTORE PUSH1 0x20 ADD PUSH1 0x0 PUSH1 0x1 PUSH1 0x1 PUSH1 0x60 SHL SUB AND DUP2 MSTORE PUSH1 0x20 ADD PUSH1 0x0 PUSH1 0x1 PUSH1 0x1 PUSH1 0x60 SHL SUB AND DUP2 MSTORE PUSH1 0x20 ADD CALLER PUSH1 0x1 PUSH1 0x1 PUSH1 0xA0 SHL SUB AND DUP2 MSTORE PUSH1 0x20 ADD PUSH1 0x0 ISZERO ISZERO DUP2 MSTORE PUSH1 0x20 ADD PUSH1 0x0 ISZERO ISZERO DUP2 MSTORE PUSH1 0x20 ADD DUP4 DUP2 MSTORE POP SWAP1 POP DUP1 PUSH1 0x6 PUSH1 0x0 DUP4 PUSH1 0x0 ADD MLOAD DUP2 MSTORE PUSH1 0x20 ADD SWAP1 DUP2 MSTORE PUSH1 0x20 ADD PUSH1 0x0 KECCAK256 PUSH1 0x0 DUP3 ADD MLOAD DUP2 PUSH1 0x0 ADD SSTORE PUSH1 0x20 DUP3 ADD MLOAD DUP2 PUSH1 0x1 ADD PUSH1 0x0 PUSH2 0x100 EXP DUP2 SLOAD DUP2 PUSH4 0xFFFFFFFF MUL NOT AND SWAP1 DUP4 PUSH4 0xFFFFFFFF AND MUL OR SWAP1 SSTORE POP PUSH1 0x40 DUP3 ADD MLOAD DUP2 PUSH1 0x1 ADD PUSH1 0x4 PUSH2 0x100 EXP DUP2 SLOAD DUP2 PUSH4 0xFFFFFFFF MUL NOT AND SWAP1 DUP4 PUSH4 0xFFFFFFFF AND MUL OR SWAP1 SSTORE POP PUSH1 0x60 DUP3 ADD MLOAD DUP2 PUSH1 0x1 ADD PUSH1 0x8 PUSH2 0x100 EXP DUP2 SLOAD DUP2 PUSH1 0x1 PUSH1 0x1 PUSH1 0x60 SHL SUB MUL NOT AND SWAP1 DUP4 PUSH1 0x1 PUSH1 0x1 PUSH1 0x60 SHL SUB AND MUL OR SWAP1 SSTORE POP PUSH1 0x80 DUP3 ADD MLOAD DUP2 PUSH1 0x1 ADD PUSH1 0x14 PUSH2 0x100 EXP DUP2 SLOAD DUP2 PUSH1 0x1 PUSH1 0x1 PUSH1 0x60 SHL SUB MUL NOT AND SWAP1 DUP4 PUSH1 0x1 PUSH1 0x1 PUSH1 0x60 SHL SUB AND MUL OR SWAP1 SSTORE POP PUSH1 0xA0 DUP3 ADD MLOAD DUP2 PUSH1 0x2 ADD PUSH1 0x0 PUSH2 0x100 EXP DUP2 SLOAD DUP2 PUSH1 0x1 PUSH1 0x1 PUSH1 0xA0 SHL SUB MUL NOT AND SWAP1 DUP4 PUSH1 0x1 PUSH1 0x1 PUSH1 0xA0 SHL SUB AND MUL OR SWAP1 SSTORE POP PUSH1 0xC0 DUP3 ADD MLOAD DUP2 PUSH1 0x2 ADD PUSH1 0x14 PUSH2 0x100 EXP DUP2 SLOAD DUP2 PUSH1 0xFF MUL NOT AND SWAP1 DUP4 ISZERO ISZERO MUL OR SWAP1 SSTORE POP PUSH1 0xE0 DUP3 ADD MLOAD DUP2 PUSH1 0x2 ADD PUSH1 0x15 PUSH2 0x100 EXP DUP2 SLOAD DUP2 PUSH1 0xFF MUL NOT AND SWAP1 DUP4 ISZERO ISZERO MUL OR SWAP1 SSTORE POP PUSH2 0x100 DUP3 ADD MLOAD DUP2 PUSH1 0x3 ADD SSTORE SWAP1 POP POP DUP1 PUSH1 0x0 ADD MLOAD PUSH1 0x8 PUSH1 0x0 DUP4 PUSH1 0xA0 ADD MLOAD PUSH1 0x1 PUSH1 0x1 PUSH1 0xA0 SHL SUB AND PUSH1 0x1 PUSH1 0x1 PUSH1 0xA0 SHL SUB AND DUP2 MSTORE PUSH1 0x20 ADD SWAP1 DUP2 MSTORE PUSH1 0x20 ADD PUSH1 0x0 KECCAK256 DUP2 SWAP1 SSTORE POP CALLER PUSH1 0x1 PUSH1 0x1 PUSH1 0xA0 SHL SUB AND DUP2 PUSH1 0x0 ADD MLOAD PUSH32 0xA2366C4F1E103949CC41BC8117F334969890A670CFE1BBC5F09EB8CEAAC0BAE0 DUP16 DUP16 DUP16 DUP16 DUP16 DUP16 DUP13 DUP13 PUSH1 0x40 MLOAD PUSH2 0x1C5F SWAP9 SWAP8 SWAP7 SWAP6 SWAP5 SWAP4 SWAP3 SWAP2 SWAP1 PUSH2 0x349A JUMP JUMPDEST PUSH1 0x40 MLOAD DUP1 SWAP2 SUB SWAP1 LOG3 MLOAD SWAP13 SWAP12 POP POP POP POP POP POP POP POP POP POP POP POP JUMP JUMPDEST PUSH1 0x0 DUP9 DUP9 DUP9 DUP9 DUP9 DUP9 DUP9 DUP9 PUSH1 0x40 MLOAD PUSH1 0x20 ADD PUSH2 0x1C99 SWAP9 SWAP8 SWAP7 SWAP6 SWAP5 SWAP4 SWAP3 SWAP2 SWAP1 PUSH2 0x33E8 JUMP JUMPDEST PUSH1 0x40 MLOAD PUSH1 0x20 DUP2 DUP4 SUB SUB DUP2 MSTORE SWAP1 PUSH1 0x40 MSTORE DUP1 MLOAD SWAP1 PUSH1 0x20 ADD KECCAK256 SWAP1 POP SWAP9 SWAP8 POP POP POP POP POP POP POP POP JUMP JUMPDEST PUSH1 0x3 SLOAD PUSH1 0x1 PUSH1 0xE0 SHL SWAP1 DIV PUSH4 0xFFFFFFFF AND DUP2 JUMP JUMPDEST PUSH1 0x3 SLOAD PUSH1 0x1 PUSH1 0x60 SHL SWAP1 DIV PUSH1 0x1 PUSH1 0x1 PUSH1 0x60 SHL SUB AND DUP2 JUMP JUMPDEST PUSH1 0x0 DUP1 MLOAD PUSH1 0x20 PUSH2 0x405D DUP4 CODECOPY DUP2 MLOAD SWAP2 MSTORE PUSH2 0x1D01 DUP2 PUSH2 0x76F PUSH2 0x22A8 JUMP JUMPDEST DUP1 PUSH2 0x1D12 JUMPI POP PUSH2 0x1D12 DUP2 PUSH1 0x0 PUSH2 0x15A8 JUMP JUMPDEST PUSH2 0x1D2E JUMPI PUSH1 0x40 MLOAD PUSH3 0x461BCD PUSH1 0xE5 SHL DUP2 MSTORE PUSH1 0x4 ADD PUSH2 0xA79 SWAP1 PUSH2 0x3676 JUMP JUMPDEST PUSH2 0x1D37 DUP3 PUSH2 0x127B JUMP JUMPDEST PUSH2 0x1D53 JUMPI PUSH1 0x40 MLOAD PUSH3 0x461BCD PUSH1 0xE5 SHL DUP2 MSTORE PUSH1 0x4 ADD PUSH2 0xA79 SWAP1 PUSH2 0x3C70 JUMP JUMPDEST PUSH1 0x0 DUP3 DUP2 MSTORE PUSH1 0x1 PUSH1 0x20 MSTORE PUSH1 0x40 DUP1 DUP3 KECCAK256 DUP3 SWAP1 SSTORE MLOAD DUP4 SWAP2 PUSH32 0xBAA1EB22F2A492BA1A5FEA61B8DF4D27C6C8B5F3971E63BB58FA14FF72EEDB70 SWAP2 LOG2 POP POP JUMP JUMPDEST PUSH1 0x0 DUP2 DUP2 MSTORE PUSH1 0x20 DUP2 SWAP1 MSTORE PUSH1 0x40 DUP2 KECCAK256 PUSH2 0x15A2 SWAP1 PUSH2 0x2A27 JUMP JUMPDEST PUSH1 0x0 SWAP1 DUP2 MSTORE PUSH1 0x1 PUSH1 0x20 MSTORE PUSH1 0x40 SWAP1 KECCAK256 SLOAD SWAP1 JUMP JUMPDEST PUSH1 0x0 DUP3 DUP2 MSTORE PUSH1 0x20 DUP2 SWAP1 MSTORE PUSH1 0x40 SWAP1 KECCAK256 PUSH1 0x2 ADD SLOAD PUSH2 0x1DD6 SWAP1 PUSH2 0x76F PUSH2 0x22A8 JUMP JUMPDEST PUSH2 0xE3B JUMPI PUSH1 0x40 MLOAD PUSH3 0x461BCD PUSH1 0xE5 SHL DUP2 MSTORE PUSH1 0x4 ADD DUP1 DUP1 PUSH1 0x20 ADD DUP3 DUP2 SUB DUP3 MSTORE PUSH1 0x30 DUP2 MSTORE PUSH1 0x20 ADD DUP1 PUSH2 0x400B PUSH1 0x30 SWAP2 CODECOPY PUSH1 0x40 ADD SWAP2 POP POP PUSH1 0x40 MLOAD DUP1 SWAP2 SUB SWAP1 REVERT JUMPDEST PUSH1 0x5 SLOAD DUP2 JUMP JUMPDEST PUSH2 0x1A2C DUP2 JUMP JUMPDEST PUSH32 0x8E25870C07E0B0B3884C78DA52790939A455C275406C44AE8B434B692FB916EE DUP2 JUMP JUMPDEST PUSH1 0x0 PUSH2 0x1E4C DUP3 PUSH2 0xE4A JUMP JUMPDEST SWAP1 POP PUSH1 0x6 DUP2 PUSH1 0x6 DUP2 GT ISZERO PUSH2 0x1E5C JUMPI INVALID JUMPDEST EQ ISZERO PUSH2 0x1E7A JUMPI PUSH1 0x40 MLOAD PUSH3 0x461BCD PUSH1 0xE5 SHL DUP2 MSTORE PUSH1 0x4 ADD PUSH2 0xA79 SWAP1 PUSH2 0x36C4 JUMP JUMPDEST PUSH1 0x0 DUP3 DUP2 MSTORE PUSH1 0x6 PUSH1 0x20 MSTORE PUSH1 0x40 SWAP1 KECCAK256 NUMBER DUP1 ISZERO DUP1 ISZERO SWAP1 PUSH2 0x1E9C JUMPI POP PUSH4 0xFFFFFFFF DUP2 GT ISZERO JUMPDEST PUSH2 0x1EA5 JUMPI PUSH1 0x0 DUP1 REVERT JUMPDEST PUSH1 0x4 SLOAD PUSH1 0x1 PUSH1 0x1 PUSH1 0xA0 SHL SUB AND CALLER EQ DUP1 PUSH2 0x1F84 JUMPI POP PUSH1 0x3 SLOAD PUSH1 0x2 DUP4 ADD SLOAD PUSH1 0x40 MLOAD PUSH4 0x782D6FE1 PUSH1 0xE0 SHL DUP2 MSTORE PUSH1 0x1 PUSH1 0x60 SHL SWAP1 SWAP3 DIV PUSH1 0x1 PUSH1 0x1 PUSH1 0x60 SHL SUB AND SWAP2 PUSH32 0x0 PUSH1 0x1 PUSH1 0x1 PUSH1 0xA0 SHL SUB SWAP1 DUP2 AND SWAP3 PUSH4 0x782D6FE1 SWAP3 PUSH2 0x1F29 SWAP3 SWAP1 SWAP2 AND SWAP1 PUSH1 0x0 NOT DUP8 ADD SWAP1 PUSH1 0x4 ADD PUSH2 0x3360 JUMP JUMPDEST PUSH1 0x20 PUSH1 0x40 MLOAD DUP1 DUP4 SUB DUP2 DUP7 DUP1 EXTCODESIZE ISZERO DUP1 ISZERO PUSH2 0x1F41 JUMPI PUSH1 0x0 DUP1 REVERT JUMPDEST POP GAS STATICCALL ISZERO DUP1 ISZERO PUSH2 0x1F55 JUMPI RETURNDATASIZE PUSH1 0x0 DUP1 RETURNDATACOPY RETURNDATASIZE PUSH1 0x0 REVERT JUMPDEST POP POP POP POP PUSH1 0x40 MLOAD RETURNDATASIZE PUSH1 0x1F NOT PUSH1 0x1F DUP3 ADD AND DUP3 ADD DUP1 PUSH1 0x40 MSTORE POP DUP2 ADD SWAP1 PUSH2 0x1F79 SWAP2 SWAP1 PUSH2 0x31B7 JUMP JUMPDEST PUSH1 0x1 PUSH1 0x1 PUSH1 0x60 SHL SUB AND LT JUMPDEST PUSH2 0x1FA0 JUMPI PUSH1 0x40 MLOAD PUSH3 0x461BCD PUSH1 0xE5 SHL DUP2 MSTORE PUSH1 0x4 ADD PUSH2 0xA79 SWAP1 PUSH2 0x3A25 JUMP JUMPDEST PUSH1 0x2 DUP3 ADD DUP1 SLOAD PUSH1 0xFF PUSH1 0xA0 SHL NOT AND PUSH1 0x1 PUSH1 0xA0 SHL OR SWAP1 SSTORE PUSH1 0x3 DUP3 ADD SLOAD PUSH2 0x1FC3 SWAP1 PUSH2 0x127B JUMP JUMPDEST ISZERO PUSH2 0x2022 JUMPI PUSH1 0x3 DUP3 ADD SLOAD PUSH1 0x40 MLOAD PUSH4 0xC4D252F5 PUSH1 0xE0 SHL DUP2 MSTORE ADDRESS SWAP2 PUSH4 0xC4D252F5 SWAP2 PUSH2 0x1FEF SWAP2 SWAP1 PUSH1 0x4 ADD PUSH2 0x3541 JUMP JUMPDEST PUSH1 0x0 PUSH1 0x40 MLOAD DUP1 DUP4 SUB DUP2 PUSH1 0x0 DUP8 DUP1 EXTCODESIZE ISZERO DUP1 ISZERO PUSH2 0x2009 JUMPI PUSH1 0x0 DUP1 REVERT JUMPDEST POP GAS CALL ISZERO DUP1 ISZERO PUSH2 0x201D JUMPI RETURNDATASIZE PUSH1 0x0 DUP1 RETURNDATACOPY RETURNDATASIZE PUSH1 0x0 REVERT JUMPDEST POP POP POP POP JUMPDEST PUSH1 0x40 MLOAD DUP5 SWAP1 PUSH32 0x789CF55BE980739DAD1D0699B93B58E806B51C9D96619BFA8FE0A28ABAA7B30C SWAP1 PUSH1 0x0 SWAP1 LOG2 POP POP POP POP JUMP JUMPDEST PUSH2 0x205B PUSH2 0x2C4D JUMP JUMPDEST POP PUSH1 0x0 SWAP2 DUP3 MSTORE PUSH1 0x7 PUSH1 0x20 SWAP1 DUP2 MSTORE PUSH1 0x40 DUP1 DUP5 KECCAK256 PUSH1 0x1 PUSH1 0x1 PUSH1 0xA0 SHL SUB SWAP4 SWAP1 SWAP4 AND DUP5 MSTORE SWAP2 DUP2 MSTORE SWAP2 DUP2 SWAP1 KECCAK256 DUP2 MLOAD PUSH1 0x60 DUP2 ADD DUP4 MSTORE SWAP1 SLOAD PUSH1 0xFF DUP1 DUP3 AND ISZERO ISZERO DUP4 MSTORE PUSH2 0x100 DUP3 DIV AND ISZERO ISZERO SWAP4 DUP3 ADD SWAP4 SWAP1 SWAP4 MSTORE PUSH3 0x10000 SWAP1 SWAP3 DIV PUSH1 0x1 PUSH1 0x1 PUSH1 0x60 SHL SUB AND SWAP1 DUP3 ADD MSTORE SWAP1 JUMP JUMPDEST PUSH32 0xD8AA0F3194971A2A116679F7C2090F6939C8D4E01A2A8D7E41D55E5351469E63 PUSH2 0x20E8 DUP2 PUSH2 0x76F PUSH2 0x22A8 JUMP JUMPDEST DUP1 PUSH2 0x20F9 JUMPI POP PUSH2 0x20F9 DUP2 PUSH1 0x0 PUSH2 0x15A8 JUMP JUMPDEST PUSH2 0x2115 JUMPI PUSH1 0x40 MLOAD PUSH3 0x461BCD PUSH1 0xE5 SHL DUP2 MSTORE PUSH1 0x4 ADD PUSH2 0xA79 SWAP1 PUSH2 0x3676 JUMP JUMPDEST DUP8 DUP7 EQ PUSH2 0x2134 JUMPI PUSH1 0x40 MLOAD PUSH3 0x461BCD PUSH1 0xE5 SHL DUP2 MSTORE PUSH1 0x4 ADD PUSH2 0xA79 SWAP1 PUSH2 0x3633 JUMP JUMPDEST DUP8 DUP5 EQ PUSH2 0x2153 JUMPI PUSH1 0x40 MLOAD PUSH3 0x461BCD PUSH1 0xE5 SHL DUP2 MSTORE PUSH1 0x4 ADD PUSH2 0xA79 SWAP1 PUSH2 0x3633 JUMP JUMPDEST PUSH1 0x0 PUSH2 0x2165 DUP11 DUP11 DUP11 DUP11 DUP11 DUP11 DUP11 DUP11 PUSH2 0x1C78 JUMP JUMPDEST SWAP1 POP PUSH2 0x2171 DUP2 DUP6 PUSH2 0x2319 JUMP JUMPDEST PUSH1 0x0 JUMPDEST DUP10 DUP2 LT ISZERO PUSH2 0x21E0 JUMPI PUSH2 0x21D8 DUP3 DUP3 DUP14 DUP14 DUP6 DUP2 DUP2 LT PUSH2 0x218D JUMPI INVALID JUMPDEST SWAP1 POP PUSH1 0x20 MUL ADD PUSH1 0x20 DUP2 ADD SWAP1 PUSH2 0x21A2 SWAP2 SWAP1 PUSH2 0x2D1D JUMP JUMPDEST DUP13 DUP13 DUP7 DUP2 DUP2 LT PUSH2 0x21AE JUMPI INVALID JUMPDEST SWAP1 POP PUSH1 0x20 MUL ADD CALLDATALOAD DUP12 DUP12 DUP8 DUP2 DUP2 LT PUSH2 0x21C1 JUMPI INVALID JUMPDEST SWAP1 POP PUSH1 0x20 MUL DUP2 ADD SWAP1 PUSH2 0x21D3 SWAP2 SWAP1 PUSH2 0x3F3A JUMP JUMPDEST PUSH2 0x236B JUMP JUMPDEST PUSH1 0x1 ADD PUSH2 0x2174 JUMP JUMPDEST POP PUSH2 0x21EA DUP2 PUSH2 0x2433 JUMP JUMPDEST POP POP POP POP POP POP POP POP POP POP JUMP JUMPDEST CALLER ADDRESS EQ PUSH2 0x2215 JUMPI PUSH1 0x40 MLOAD PUSH3 0x461BCD PUSH1 0xE5 SHL DUP2 MSTORE PUSH1 0x4 ADD PUSH2 0xA79 SWAP1 PUSH2 0x381B JUMP JUMPDEST PUSH1 0x3 DUP1 SLOAD PUSH4 0xFFFFFFFF PUSH1 0xC0 SHL NOT AND PUSH1 0x1 PUSH1 0xC0 SHL PUSH4 0xFFFFFFFF DUP5 AND MUL OR SWAP1 SSTORE PUSH1 0x40 MLOAD PUSH32 0x4681ED297A125C4EF179FB69C0AA0E6705AB8779F35D104EACF5D776A6910D2E SWAP1 PUSH2 0xCE3 SWAP1 DUP4 SWAP1 PUSH2 0x3F07 JUMP JUMPDEST PUSH1 0x2 SLOAD SWAP1 JUMP JUMPDEST PUSH1 0x0 PUSH2 0x159F DUP4 PUSH1 0x1 PUSH1 0x1 PUSH1 0xA0 SHL SUB DUP5 AND PUSH2 0x2A32 JUMP JUMPDEST PUSH1 0x0 PUSH2 0x159F DUP4 PUSH1 0x1 PUSH1 0x1 PUSH1 0xA0 SHL SUB DUP5 AND PUSH2 0x2A7C JUMP JUMPDEST PUSH1 0x0 PUSH2 0x159F DUP4 PUSH1 0x1 PUSH1 0x1 PUSH1 0xA0 SHL SUB DUP5 AND PUSH2 0x2A94 JUMP JUMPDEST CALLER SWAP1 JUMP JUMPDEST PUSH2 0x22B5 DUP3 PUSH2 0xDD1 JUMP JUMPDEST ISZERO PUSH2 0x22D2 JUMPI PUSH1 0x40 MLOAD PUSH3 0x461BCD PUSH1 0xE5 SHL DUP2 MSTORE PUSH1 0x4 ADD PUSH2 0xA79 SWAP1 PUSH2 0x3AC0 JUMP JUMPDEST PUSH2 0x22DA PUSH2 0x2263 JUMP JUMPDEST DUP2 LT ISZERO PUSH2 0x22F9 JUMPI PUSH1 0x40 MLOAD PUSH3 0x461BCD PUSH1 0xE5 SHL DUP2 MSTORE PUSH1 0x4 ADD PUSH2 0xA79 SWAP1 PUSH2 0x38CB JUMP JUMPDEST PUSH2 0x2303 TIMESTAMP DUP3 PUSH2 0x2B5A JUMP JUMPDEST PUSH1 0x0 SWAP3 DUP4 MSTORE PUSH1 0x1 PUSH1 0x20 MSTORE PUSH1 0x40 SWAP1 SWAP3 KECCAK256 SWAP2 SWAP1 SWAP2 SSTORE POP JUMP JUMPDEST PUSH2 0x2322 DUP3 PUSH2 0xC00 JUMP JUMPDEST PUSH2 0x233E JUMPI PUSH1 0x40 MLOAD PUSH3 0x461BCD PUSH1 0xE5 SHL DUP2 MSTORE PUSH1 0x4 ADD PUSH2 0xA79 SWAP1 PUSH2 0x3B46 JUMP JUMPDEST DUP1 ISZERO DUP1 PUSH2 0x234F JUMPI POP PUSH2 0x234F DUP2 PUSH2 0xD5A JUMP JUMPDEST PUSH2 0xC32 JUMPI PUSH1 0x40 MLOAD PUSH3 0x461BCD PUSH1 0xE5 SHL DUP2 MSTORE PUSH1 0x4 ADD PUSH2 0xA79 SWAP1 PUSH2 0x35ED JUMP JUMPDEST PUSH1 0x0 DUP5 PUSH1 0x1 PUSH1 0x1 PUSH1 0xA0 SHL SUB AND DUP5 DUP5 DUP5 PUSH1 0x40 MLOAD PUSH2 0x2388 SWAP3 SWAP2 SWAP1 PUSH2 0x3302 JUMP JUMPDEST PUSH1 0x0 PUSH1 0x40 MLOAD DUP1 DUP4 SUB DUP2 DUP6 DUP8 GAS CALL SWAP3 POP POP POP RETURNDATASIZE DUP1 PUSH1 0x0 DUP2 EQ PUSH2 0x23C5 JUMPI PUSH1 0x40 MLOAD SWAP2 POP PUSH1 0x1F NOT PUSH1 0x3F RETURNDATASIZE ADD AND DUP3 ADD PUSH1 0x40 MSTORE RETURNDATASIZE DUP3 MSTORE RETURNDATASIZE PUSH1 0x0 PUSH1 0x20 DUP5 ADD RETURNDATACOPY PUSH2 0x23CA JUMP JUMPDEST PUSH1 0x60 SWAP2 POP JUMPDEST POP POP SWAP1 POP DUP1 PUSH2 0x23EB JUMPI PUSH1 0x40 MLOAD PUSH3 0x461BCD PUSH1 0xE5 SHL DUP2 MSTORE PUSH1 0x4 ADD PUSH2 0xA79 SWAP1 PUSH2 0x3DE3 JUMP JUMPDEST DUP6 DUP8 PUSH32 0xC2617EFA69BAB66782FA219543714338489C4E9E178271560A91B82C3F612B58 DUP8 DUP8 DUP8 DUP8 PUSH1 0x40 MLOAD PUSH2 0x2422 SWAP5 SWAP4 SWAP3 SWAP2 SWAP1 PUSH2 0x3379 JUMP JUMPDEST PUSH1 0x40 MLOAD DUP1 SWAP2 SUB SWAP1 LOG3 POP POP POP POP POP POP POP JUMP JUMPDEST PUSH2 0x243C DUP2 PUSH2 0xC00 JUMP JUMPDEST PUSH2 0x2458 JUMPI PUSH1 0x40 MLOAD PUSH3 0x461BCD PUSH1 0xE5 SHL DUP2 MSTORE PUSH1 0x4 ADD PUSH2 0xA79 SWAP1 PUSH2 0x3B46 JUMP JUMPDEST PUSH1 0x0 SWAP1 DUP2 MSTORE PUSH1 0x1 PUSH1 0x20 DUP2 SWAP1 MSTORE PUSH1 0x40 SWAP1 SWAP2 KECCAK256 SSTORE JUMP JUMPDEST PUSH1 0x1 PUSH2 0x2477 DUP4 PUSH2 0xE4A JUMP JUMPDEST PUSH1 0x6 DUP2 GT ISZERO PUSH2 0x2482 JUMPI INVALID JUMPDEST EQ PUSH2 0x249F JUMPI PUSH1 0x40 MLOAD PUSH3 0x461BCD PUSH1 0xE5 SHL DUP2 MSTORE PUSH1 0x4 ADD PUSH2 0xA79 SWAP1 PUSH2 0x3CF8 JUMP JUMPDEST PUSH1 0x0 DUP3 DUP2 MSTORE PUSH1 0x6 PUSH1 0x20 SWAP1 DUP2 MSTORE PUSH1 0x40 DUP1 DUP4 KECCAK256 PUSH1 0x7 DUP4 MSTORE DUP2 DUP5 KECCAK256 PUSH1 0x1 PUSH1 0x1 PUSH1 0xA0 SHL SUB DUP9 AND DUP6 MSTORE SWAP1 SWAP3 MSTORE SWAP1 SWAP2 KECCAK256 DUP1 SLOAD PUSH1 0xFF AND ISZERO PUSH2 0x24EB JUMPI PUSH1 0x40 MLOAD PUSH3 0x461BCD PUSH1 0xE5 SHL DUP2 MSTORE PUSH1 0x4 ADD PUSH2 0xA79 SWAP1 PUSH2 0x3771 JUMP JUMPDEST PUSH1 0x1 DUP3 ADD SLOAD PUSH1 0x40 MLOAD PUSH4 0x782D6FE1 PUSH1 0xE0 SHL DUP2 MSTORE PUSH1 0x0 SWAP2 PUSH1 0x1 PUSH1 0x1 PUSH1 0xA0 SHL SUB PUSH32 0x0 AND SWAP2 PUSH4 0x782D6FE1 SWAP2 PUSH2 0x2546 SWAP2 DUP11 SWAP2 PUSH4 0xFFFFFFFF AND SWAP1 PUSH1 0x4 ADD PUSH2 0x3341 JUMP JUMPDEST PUSH1 0x20 PUSH1 0x40 MLOAD DUP1 DUP4 SUB DUP2 DUP7 DUP1 EXTCODESIZE ISZERO DUP1 ISZERO PUSH2 0x255E JUMPI PUSH1 0x0 DUP1 REVERT JUMPDEST POP GAS STATICCALL ISZERO DUP1 ISZERO PUSH2 0x2572 JUMPI RETURNDATASIZE PUSH1 0x0 DUP1 RETURNDATACOPY RETURNDATASIZE PUSH1 0x0 REVERT JUMPDEST POP POP POP POP PUSH1 0x40 MLOAD RETURNDATASIZE PUSH1 0x1F NOT PUSH1 0x1F DUP3 ADD AND DUP3 ADD DUP1 PUSH1 0x40 MSTORE POP DUP2 ADD SWAP1 PUSH2 0x2596 SWAP2 SWAP1 PUSH2 0x31B7 JUMP JUMPDEST SWAP1 POP PUSH1 0x1 PUSH1 0x1 PUSH1 0x60 SHL SUB DUP2 AND PUSH2 0x25AE JUMPI POP POP POP PUSH2 0x26CE JUMP JUMPDEST DUP4 ISZERO PUSH2 0x2600 JUMPI PUSH1 0x1 DUP4 ADD SLOAD PUSH2 0x25D3 SWAP1 PUSH1 0x1 PUSH1 0x40 SHL SWAP1 DIV PUSH1 0x1 PUSH1 0x1 PUSH1 0x60 SHL SUB AND DUP3 PUSH2 0x2BB4 JUMP JUMPDEST DUP4 PUSH1 0x1 ADD PUSH1 0x8 PUSH2 0x100 EXP DUP2 SLOAD DUP2 PUSH1 0x1 PUSH1 0x1 PUSH1 0x60 SHL SUB MUL NOT AND SWAP1 DUP4 PUSH1 0x1 PUSH1 0x1 PUSH1 0x60 SHL SUB AND MUL OR SWAP1 SSTORE POP PUSH2 0x2648 JUMP JUMPDEST PUSH1 0x1 DUP4 ADD SLOAD PUSH2 0x261F SWAP1 PUSH1 0x1 PUSH1 0xA0 SHL SWAP1 DIV PUSH1 0x1 PUSH1 0x1 PUSH1 0x60 SHL SUB AND DUP3 PUSH2 0x2BB4 JUMP JUMPDEST DUP4 PUSH1 0x1 ADD PUSH1 0x14 PUSH2 0x100 EXP DUP2 SLOAD DUP2 PUSH1 0x1 PUSH1 0x1 PUSH1 0x60 SHL SUB MUL NOT AND SWAP1 DUP4 PUSH1 0x1 PUSH1 0x1 PUSH1 0x60 SHL SUB AND MUL OR SWAP1 SSTORE POP JUMPDEST DUP2 SLOAD PUSH1 0x1 PUSH1 0xFF NOT SWAP1 SWAP2 AND OR PUSH2 0xFF00 NOT AND PUSH2 0x100 DUP6 ISZERO ISZERO MUL OR PUSH14 0xFFFFFFFFFFFFFFFFFFFFFFFF0000 NOT AND PUSH3 0x10000 PUSH1 0x1 PUSH1 0x1 PUSH1 0x60 SHL SUB DUP4 AND MUL OR DUP3 SSTORE PUSH1 0x40 MLOAD DUP6 SWAP1 PUSH1 0x1 PUSH1 0x1 PUSH1 0xA0 SHL SUB DUP9 AND SWAP1 PUSH32 0x877856338E13F63D0C36822FF0EF736B80934CD90574A3A5BC9262C39D217C46 SWAP1 PUSH2 0x26C2 SWAP1 DUP9 SWAP1 DUP7 SWAP1 PUSH2 0x3528 JUMP JUMPDEST PUSH1 0x40 MLOAD DUP1 SWAP2 SUB SWAP1 LOG3 POP POP POP JUMPDEST POP POP POP JUMP JUMPDEST PUSH1 0x0 DUP3 DUP2 MSTORE PUSH1 0x20 DUP2 SWAP1 MSTORE PUSH1 0x40 SWAP1 KECCAK256 PUSH2 0x26EB SWAP1 DUP3 PUSH2 0x2269 JUMP JUMPDEST ISZERO PUSH2 0xC32 JUMPI PUSH2 0x26F8 PUSH2 0x22A8 JUMP JUMPDEST PUSH1 0x1 PUSH1 0x1 PUSH1 0xA0 SHL SUB AND DUP2 PUSH1 0x1 PUSH1 0x1 PUSH1 0xA0 SHL SUB AND DUP4 PUSH32 0x2F8788117E7EFF1D82E926EC794901D17C78024A50270940304540A733656F0D PUSH1 0x40 MLOAD PUSH1 0x40 MLOAD DUP1 SWAP2 SUB SWAP1 LOG4 POP POP JUMP JUMPDEST PUSH1 0x0 DUP3 DUP2 MSTORE PUSH1 0x20 DUP2 SWAP1 MSTORE PUSH1 0x40 SWAP1 KECCAK256 PUSH2 0x2754 SWAP1 DUP3 PUSH2 0x2293 JUMP JUMPDEST ISZERO PUSH2 0xC32 JUMPI PUSH2 0x2761 PUSH2 0x22A8 JUMP JUMPDEST PUSH1 0x1 PUSH1 0x1 PUSH1 0xA0 SHL SUB AND DUP2 PUSH1 0x1 PUSH1 0x1 PUSH1 0xA0 SHL SUB AND DUP4 PUSH32 0xF6391F5C32D9C69D2A47EA670B442974B53935D1EDC7FD64EB21E047A839171B PUSH1 0x40 MLOAD PUSH1 0x40 MLOAD DUP1 SWAP2 SUB SWAP1 LOG4 POP POP JUMP JUMPDEST CHAINID SWAP1 JUMP JUMPDEST PUSH1 0x0 PUSH32 0x7FFFFFFFFFFFFFFFFFFFFFFFFFFFFFFF5D576E7357A4501DDFE92F46681B20A0 DUP3 GT ISZERO PUSH2 0x280A JUMPI PUSH1 0x40 MLOAD PUSH3 0x461BCD PUSH1 0xE5 SHL DUP2 MSTORE PUSH1 0x4 ADD DUP1 DUP1 PUSH1 0x20 ADD DUP3 DUP2 SUB DUP3 MSTORE PUSH1 0x22 DUP2 MSTORE PUSH1 0x20 ADD DUP1 PUSH2 0x3FE9 PUSH1 0x22 SWAP2 CODECOPY PUSH1 0x40 ADD SWAP2 POP POP PUSH1 0x40 MLOAD DUP1 SWAP2 SUB SWAP1 REVERT JUMPDEST DUP4 PUSH1 0xFF AND PUSH1 0x1B EQ DUP1 PUSH2 0x281F JUMPI POP DUP4 PUSH1 0xFF AND PUSH1 0x1C EQ JUMPDEST PUSH2 0x285A JUMPI PUSH1 0x40 MLOAD PUSH3 0x461BCD PUSH1 0xE5 SHL DUP2 MSTORE PUSH1 0x4 ADD DUP1 DUP1 PUSH1 0x20 ADD DUP3 DUP2 SUB DUP3 MSTORE PUSH1 0x22 DUP2 MSTORE PUSH1 0x20 ADD DUP1 PUSH2 0x403B PUSH1 0x22 SWAP2 CODECOPY PUSH1 0x40 ADD SWAP2 POP POP PUSH1 0x40 MLOAD DUP1 SWAP2 SUB SWAP1 REVERT JUMPDEST PUSH1 0x0 PUSH1 0x1 DUP7 DUP7 DUP7 DUP7 PUSH1 0x40 MLOAD PUSH1 0x0 DUP2 MSTORE PUSH1 0x20 ADD PUSH1 0x40 MSTORE PUSH1 0x40 MLOAD DUP1 DUP6 DUP2 MSTORE PUSH1 0x20 ADD DUP5 PUSH1 0xFF AND DUP2 MSTORE PUSH1 0x20 ADD DUP4 DUP2 MSTORE PUSH1 0x20 ADD DUP3 DUP2 MSTORE PUSH1 0x20 ADD SWAP5 POP POP POP POP POP PUSH1 0x20 PUSH1 0x40 MLOAD PUSH1 0x20 DUP2 SUB SWAP1 DUP1 DUP5 SUB SWAP1 DUP6 GAS STATICCALL ISZERO DUP1 ISZERO PUSH2 0x28B6 JUMPI RETURNDATASIZE PUSH1 0x0 DUP1 RETURNDATACOPY RETURNDATASIZE PUSH1 0x0 REVERT JUMPDEST POP POP PUSH1 0x40 MLOAD PUSH1 0x1F NOT ADD MLOAD SWAP2 POP POP PUSH1 0x1 PUSH1 0x1 PUSH1 0xA0 SHL SUB DUP2 AND PUSH2 0x291E JUMPI PUSH1 0x40 DUP1 MLOAD PUSH3 0x461BCD PUSH1 0xE5 SHL DUP2 MSTORE PUSH1 0x20 PUSH1 0x4 DUP3 ADD MSTORE PUSH1 0x18 PUSH1 0x24 DUP3 ADD MSTORE PUSH32 0x45434453413A20696E76616C6964207369676E61747572650000000000000000 PUSH1 0x44 DUP3 ADD MSTORE SWAP1 MLOAD SWAP1 DUP2 SWAP1 SUB PUSH1 0x64 ADD SWAP1 REVERT JUMPDEST SWAP6 SWAP5 POP POP POP POP POP JUMP JUMPDEST PUSH1 0x0 PUSH2 0x159F DUP4 DUP4 PUSH2 0x2BE5 JUMP JUMPDEST PUSH1 0x0 PUSH2 0x2945 DUP9 DUP9 DUP9 DUP9 DUP9 DUP9 DUP8 DUP10 PUSH2 0x1C78 JUMP JUMPDEST SWAP9 SWAP8 POP POP POP POP POP POP POP POP JUMP JUMPDEST PUSH1 0x40 MLOAD PUSH4 0xE38335E5 PUSH1 0xE0 SHL DUP2 MSTORE ADDRESS SWAP1 PUSH4 0xE38335E5 SWAP1 PUSH2 0x2983 SWAP1 DUP11 SWAP1 DUP11 SWAP1 DUP11 SWAP1 DUP11 SWAP1 DUP11 SWAP1 DUP11 SWAP1 PUSH1 0x0 SWAP1 DUP12 SWAP1 PUSH1 0x4 ADD PUSH2 0x33E8 JUMP JUMPDEST PUSH1 0x0 PUSH1 0x40 MLOAD DUP1 DUP4 SUB DUP2 PUSH1 0x0 DUP8 DUP1 EXTCODESIZE ISZERO DUP1 ISZERO PUSH2 0x299D JUMPI PUSH1 0x0 DUP1 REVERT JUMPDEST POP GAS CALL ISZERO DUP1 ISZERO PUSH2 0x29B1 JUMPI RETURNDATASIZE PUSH1 0x0 DUP1 RETURNDATACOPY RETURNDATASIZE PUSH1 0x0 REVERT JUMPDEST POP POP POP POP POP POP POP POP POP POP POP JUMP JUMPDEST ADDRESS PUSH4 0x8F2A0BB0 DUP9 DUP9 DUP9 DUP9 DUP9 DUP9 PUSH1 0x0 DUP10 PUSH2 0x29D5 PUSH2 0x2263 JUMP JUMPDEST PUSH1 0x40 MLOAD DUP11 PUSH4 0xFFFFFFFF AND PUSH1 0xE0 SHL DUP2 MSTORE PUSH1 0x4 ADD PUSH2 0x2983 SWAP10 SWAP9 SWAP8 SWAP7 SWAP6 SWAP5 SWAP4 SWAP3 SWAP2 SWAP1 PUSH2 0x343C JUMP JUMPDEST PUSH1 0x0 DUP3 DUP3 ADD PUSH4 0xFFFFFFFF DUP1 DUP6 AND SWAP1 DUP3 AND LT ISZERO PUSH2 0x159F JUMPI PUSH1 0x40 MLOAD PUSH3 0x461BCD PUSH1 0xE5 SHL DUP2 MSTORE PUSH1 0x4 ADD PUSH2 0xA79 SWAP1 PUSH2 0x3990 JUMP JUMPDEST PUSH1 0x0 PUSH2 0x15A2 DUP3 PUSH2 0x2C49 JUMP JUMPDEST PUSH1 0x0 PUSH2 0x2A3E DUP4 DUP4 PUSH2 0x2A7C JUMP JUMPDEST PUSH2 0x2A74 JUMPI POP DUP2 SLOAD PUSH1 0x1 DUP2 DUP2 ADD DUP5 SSTORE PUSH1 0x0 DUP5 DUP2 MSTORE PUSH1 0x20 DUP1 DUP3 KECCAK256 SWAP1 SWAP4 ADD DUP5 SWAP1 SSTORE DUP5 SLOAD DUP5 DUP3 MSTORE DUP3 DUP7 ADD SWAP1 SWAP4 MSTORE PUSH1 0x40 SWAP1 KECCAK256 SWAP2 SWAP1 SWAP2 SSTORE PUSH2 0x15A2 JUMP JUMPDEST POP PUSH1 0x0 PUSH2 0x15A2 JUMP JUMPDEST PUSH1 0x0 SWAP1 DUP2 MSTORE PUSH1 0x1 SWAP2 SWAP1 SWAP2 ADD PUSH1 0x20 MSTORE PUSH1 0x40 SWAP1 KECCAK256 SLOAD ISZERO ISZERO SWAP1 JUMP JUMPDEST PUSH1 0x0 DUP2 DUP2 MSTORE PUSH1 0x1 DUP4 ADD PUSH1 0x20 MSTORE PUSH1 0x40 DUP2 KECCAK256 SLOAD DUP1 ISZERO PUSH2 0x2B50 JUMPI DUP4 SLOAD PUSH1 0x0 NOT DUP1 DUP4 ADD SWAP2 SWAP1 DUP2 ADD SWAP1 PUSH1 0x0 SWAP1 DUP8 SWAP1 DUP4 SWAP1 DUP2 LT PUSH2 0x2AC7 JUMPI INVALID JUMPDEST SWAP1 PUSH1 0x0 MSTORE PUSH1 0x20 PUSH1 0x0 KECCAK256 ADD SLOAD SWAP1 POP DUP1 DUP8 PUSH1 0x0 ADD DUP5 DUP2 SLOAD DUP2 LT PUSH2 0x2AE4 JUMPI INVALID JUMPDEST PUSH1 0x0 SWAP2 DUP3 MSTORE PUSH1 0x20 DUP1 DUP4 KECCAK256 SWAP1 SWAP2 ADD SWAP3 SWAP1 SWAP3 SSTORE DUP3 DUP2 MSTORE PUSH1 0x1 DUP10 DUP2 ADD SWAP1 SWAP3 MSTORE PUSH1 0x40 SWAP1 KECCAK256 SWAP1 DUP5 ADD SWAP1 SSTORE DUP7 SLOAD DUP8 SWAP1 DUP1 PUSH2 0x2B14 JUMPI INVALID JUMPDEST PUSH1 0x1 SWAP1 SUB DUP2 DUP2 SWAP1 PUSH1 0x0 MSTORE PUSH1 0x20 PUSH1 0x0 KECCAK256 ADD PUSH1 0x0 SWAP1 SSTORE SWAP1 SSTORE DUP7 PUSH1 0x1 ADD PUSH1 0x0 DUP8 DUP2 MSTORE PUSH1 0x20 ADD SWAP1 DUP2 MSTORE PUSH1 0x20 ADD PUSH1 0x0 KECCAK256 PUSH1 0x0 SWAP1 SSTORE PUSH1 0x1 SWAP5 POP POP POP POP POP PUSH2 0x15A2 JUMP JUMPDEST PUSH1 0x0 SWAP2 POP POP PUSH2 0x15A2 JUMP JUMPDEST PUSH1 0x0 DUP3 DUP3 ADD DUP4 DUP2 LT ISZERO PUSH2 0x159F JUMPI PUSH1 0x40 DUP1 MLOAD PUSH3 0x461BCD PUSH1 0xE5 SHL DUP2 MSTORE PUSH1 0x20 PUSH1 0x4 DUP3 ADD MSTORE PUSH1 0x1B PUSH1 0x24 DUP3 ADD MSTORE PUSH32 0x536166654D6174683A206164646974696F6E206F766572666C6F770000000000 PUSH1 0x44 DUP3 ADD MSTORE SWAP1 MLOAD SWAP1 DUP2 SWAP1 SUB PUSH1 0x64 ADD SWAP1 REVERT JUMPDEST PUSH1 0x0 DUP3 DUP3 ADD PUSH1 0x1 PUSH1 0x1 PUSH1 0x60 SHL SUB DUP1 DUP6 AND SWAP1 DUP3 AND LT ISZERO PUSH2 0x159F JUMPI PUSH1 0x40 MLOAD PUSH3 0x461BCD PUSH1 0xE5 SHL DUP2 MSTORE PUSH1 0x4 ADD PUSH2 0xA79 SWAP1 PUSH2 0x3990 JUMP JUMPDEST DUP2 SLOAD PUSH1 0x0 SWAP1 DUP3 LT PUSH2 0x2C27 JUMPI PUSH1 0x40 MLOAD PUSH3 0x461BCD PUSH1 0xE5 SHL DUP2 MSTORE PUSH1 0x4 ADD DUP1 DUP1 PUSH1 0x20 ADD DUP3 DUP2 SUB DUP3 MSTORE PUSH1 0x22 DUP2 MSTORE PUSH1 0x20 ADD DUP1 PUSH2 0x3F98 PUSH1 0x22 SWAP2 CODECOPY PUSH1 0x40 ADD SWAP2 POP POP PUSH1 0x40 MLOAD DUP1 SWAP2 SUB SWAP1 REVERT JUMPDEST DUP3 PUSH1 0x0 ADD DUP3 DUP2 SLOAD DUP2 LT PUSH2 0x2C36 JUMPI INVALID JUMPDEST SWAP1 PUSH1 0x0 MSTORE PUSH1 0x20 PUSH1 0x0 KECCAK256 ADD SLOAD SWAP1 POP SWAP3 SWAP2 POP POP JUMP JUMPDEST SLOAD SWAP1 JUMP JUMPDEST PUSH1 0x40 DUP1 MLOAD PUSH1 0x60 DUP2 ADD DUP3 MSTORE PUSH1 0x0 DUP1 DUP3 MSTORE PUSH1 0x20 DUP3 ADD DUP2 SWAP1 MSTORE SWAP2 DUP2 ADD SWAP2 SWAP1 SWAP2 MSTORE SWAP1 JUMP JUMPDEST DUP1 CALLDATALOAD PUSH1 0x1 PUSH1 0x1 PUSH1 0xA0 SHL SUB DUP2 AND DUP2 EQ PUSH2 0xC22 JUMPI PUSH1 0x0 DUP1 REVERT JUMPDEST PUSH1 0x0 DUP1 DUP4 PUSH1 0x1F DUP5 ADD SLT PUSH2 0x2C95 JUMPI DUP2 DUP3 REVERT JUMPDEST POP DUP2 CALLDATALOAD PUSH8 0xFFFFFFFFFFFFFFFF DUP2 GT ISZERO PUSH2 0x2CAC JUMPI DUP2 DUP3 REVERT JUMPDEST PUSH1 0x20 DUP4 ADD SWAP2 POP DUP4 PUSH1 0x20 DUP1 DUP4 MUL DUP6 ADD ADD GT ISZERO PUSH2 0x2CC6 JUMPI PUSH1 0x0 DUP1 REVERT JUMPDEST SWAP3 POP SWAP3 SWAP1 POP JUMP JUMPDEST DUP1 CALLDATALOAD DUP1 ISZERO ISZERO DUP2 EQ PUSH2 0xC22 JUMPI PUSH1 0x0 DUP1 REVERT JUMPDEST PUSH1 0x0 DUP1 DUP4 PUSH1 0x1F DUP5 ADD SLT PUSH2 0x2CEE JUMPI DUP2 DUP3 REVERT JUMPDEST POP DUP2 CALLDATALOAD PUSH8 0xFFFFFFFFFFFFFFFF DUP2 GT ISZERO PUSH2 0x2D05 JUMPI DUP2 DUP3 REVERT JUMPDEST PUSH1 0x20 DUP4 ADD SWAP2 POP DUP4 PUSH1 0x20 DUP3 DUP6 ADD ADD GT ISZERO PUSH2 0x2CC6 JUMPI PUSH1 0x0 DUP1 REVERT JUMPDEST PUSH1 0x0 PUSH1 0x20 DUP3 DUP5 SUB SLT ISZERO PUSH2 0x2D2E JUMPI DUP1 DUP2 REVERT JUMPDEST PUSH2 0x159F DUP3 PUSH2 0x2C6D JUMP JUMPDEST PUSH1 0x0 DUP1 PUSH1 0x0 DUP1 PUSH1 0x0 DUP1 PUSH1 0xA0 DUP8 DUP10 SUB SLT ISZERO PUSH2 0x2D4F JUMPI DUP2 DUP3 REVERT JUMPDEST PUSH2 0x2D58 DUP8 PUSH2 0x2C6D JUMP JUMPDEST SWAP6 POP PUSH1 0x20 DUP8 ADD CALLDATALOAD SWAP5 POP PUSH1 0x40 DUP8 ADD CALLDATALOAD PUSH8 0xFFFFFFFFFFFFFFFF DUP2 GT ISZERO PUSH2 0x2D7A JUMPI DUP3 DUP4 REVERT JUMPDEST PUSH2 0x2D86 DUP10 DUP3 DUP11 ADD PUSH2 0x2CDD JUMP JUMPDEST SWAP8 SWAP11 SWAP7 SWAP10 POP SWAP8 PUSH1 0x60 DUP2 ADD CALLDATALOAD SWAP7 PUSH1 0x80 SWAP1 SWAP2 ADD CALLDATALOAD SWAP6 POP SWAP4 POP POP POP POP JUMP JUMPDEST PUSH1 0x0 DUP1 PUSH1 0x0 DUP1 PUSH1 0x0 DUP1 PUSH1 0x0 PUSH1 0xC0 DUP9 DUP11 SUB SLT ISZERO PUSH2 0x2DBB JUMPI DUP1 DUP2 REVERT JUMPDEST PUSH2 0x2DC4 DUP9 PUSH2 0x2C6D JUMP JUMPDEST SWAP7 POP PUSH1 0x20 DUP9 ADD CALLDATALOAD SWAP6 POP PUSH1 0x40 DUP9 ADD CALLDATALOAD PUSH8 0xFFFFFFFFFFFFFFFF DUP2 GT ISZERO PUSH2 0x2DE6 JUMPI DUP2 DUP3 REVERT JUMPDEST PUSH2 0x2DF2 DUP11 DUP3 DUP12 ADD PUSH2 0x2CDD JUMP JUMPDEST SWAP9 SWAP12 SWAP8 SWAP11 POP SWAP9 PUSH1 0x60 DUP2 ADD CALLDATALOAD SWAP8 PUSH1 0x80 DUP3 ADD CALLDATALOAD SWAP8 POP PUSH1 0xA0 SWAP1 SWAP2 ADD CALLDATALOAD SWAP6 POP SWAP4 POP POP POP POP JUMP JUMPDEST PUSH1 0x0 DUP1 PUSH1 0x0 DUP1 PUSH1 0x0 DUP1 PUSH1 0x60 DUP8 DUP10 SUB SLT ISZERO PUSH2 0x2E2C JUMPI DUP2 DUP3 REVERT JUMPDEST DUP7 CALLDATALOAD PUSH8 0xFFFFFFFFFFFFFFFF DUP1 DUP3 GT ISZERO PUSH2 0x2E43 JUMPI DUP4 DUP5 REVERT JUMPDEST PUSH2 0x2E4F DUP11 DUP4 DUP12 ADD PUSH2 0x2C84 JUMP JUMPDEST SWAP1 SWAP9 POP SWAP7 POP PUSH1 0x20 DUP10 ADD CALLDATALOAD SWAP2 POP DUP1 DUP3 GT ISZERO PUSH2 0x2E67 JUMPI DUP4 DUP5 REVERT JUMPDEST PUSH2 0x2E73 DUP11 DUP4 DUP12 ADD PUSH2 0x2C84 JUMP JUMPDEST SWAP1 SWAP7 POP SWAP5 POP PUSH1 0x40 DUP10 ADD CALLDATALOAD SWAP2 POP DUP1 DUP3 GT ISZERO PUSH2 0x2E8B JUMPI DUP4 DUP5 REVERT JUMPDEST POP PUSH2 0x2E98 DUP10 DUP3 DUP11 ADD PUSH2 0x2C84 JUMP JUMPDEST SWAP8 SWAP11 SWAP7 SWAP10 POP SWAP5 SWAP8 POP SWAP3 SWAP6 SWAP4 SWAP5 SWAP3 POP POP POP JUMP JUMPDEST PUSH1 0x0 DUP1 PUSH1 0x0 DUP1 PUSH1 0x0 DUP1 PUSH1 0x0 DUP1 PUSH1 0xA0 DUP10 DUP12 SUB SLT ISZERO PUSH2 0x2EC5 JUMPI DUP1 DUP2 REVERT JUMPDEST DUP9 CALLDATALOAD PUSH8 0xFFFFFFFFFFFFFFFF DUP1 DUP3 GT ISZERO PUSH2 0x2EDC JUMPI DUP3 DUP4 REVERT JUMPDEST PUSH2 0x2EE8 DUP13 DUP4 DUP14 ADD PUSH2 0x2C84 JUMP JUMPDEST SWAP1 SWAP11 POP SWAP9 POP PUSH1 0x20 DUP12 ADD CALLDATALOAD SWAP2 POP DUP1 DUP3 GT ISZERO PUSH2 0x2F00 JUMPI DUP3 DUP4 REVERT JUMPDEST PUSH2 0x2F0C DUP13 DUP4 DUP14 ADD PUSH2 0x2C84 JUMP JUMPDEST SWAP1 SWAP9 POP SWAP7 POP PUSH1 0x40 DUP12 ADD CALLDATALOAD SWAP2 POP DUP1 DUP3 GT ISZERO PUSH2 0x2F24 JUMPI DUP3 DUP4 REVERT JUMPDEST POP PUSH2 0x2F31 DUP12 DUP3 DUP13 ADD PUSH2 0x2C84 JUMP JUMPDEST SWAP10 SWAP13 SWAP9 SWAP12 POP SWAP7 SWAP10 SWAP6 SWAP9 SWAP7 SWAP8 PUSH1 0x60 DUP8 ADD CALLDATALOAD SWAP7 PUSH1 0x80 ADD CALLDATALOAD SWAP6 POP SWAP4 POP POP POP POP JUMP JUMPDEST PUSH1 0x0 DUP1 PUSH1 0x0 DUP1 PUSH1 0x0 DUP1 PUSH1 0x0 DUP1 PUSH1 0x0 PUSH1 0xC0 DUP11 DUP13 SUB SLT ISZERO PUSH2 0x2F6C JUMPI DUP1 DUP2 REVERT JUMPDEST DUP10 CALLDATALOAD PUSH8 0xFFFFFFFFFFFFFFFF DUP1 DUP3 GT ISZERO PUSH2 0x2F83 JUMPI DUP3 DUP4 REVERT JUMPDEST PUSH2 0x2F8F DUP14 DUP4 DUP15 ADD PUSH2 0x2C84 JUMP JUMPDEST SWAP1 SWAP12 POP SWAP10 POP PUSH1 0x20 DUP13 ADD CALLDATALOAD SWAP2 POP DUP1 DUP3 GT ISZERO PUSH2 0x2FA7 JUMPI DUP3 DUP4 REVERT JUMPDEST PUSH2 0x2FB3 DUP14 DUP4 DUP15 ADD PUSH2 0x2C84 JUMP JUMPDEST SWAP1 SWAP10 POP SWAP8 POP PUSH1 0x40 DUP13 ADD CALLDATALOAD SWAP2 POP DUP1 DUP3 GT ISZERO PUSH2 0x2FCB JUMPI DUP3 DUP4 REVERT JUMPDEST POP PUSH2 0x2FD8 DUP13 DUP3 DUP14 ADD PUSH2 0x2C84 JUMP JUMPDEST SWAP11 SWAP14 SWAP10 SWAP13 POP SWAP8 SWAP11 SWAP7 SWAP10 SWAP8 SWAP9 PUSH1 0x60 DUP9 ADD CALLDATALOAD SWAP8 PUSH1 0x80 DUP2 ADD CALLDATALOAD SWAP8 POP PUSH1 0xA0 ADD CALLDATALOAD SWAP6 POP SWAP4 POP POP POP POP JUMP JUMPDEST PUSH1 0x0 PUSH1 0x20 DUP3 DUP5 SUB SLT ISZERO PUSH2 0x300E JUMPI DUP1 DUP2 REVERT JUMPDEST POP CALLDATALOAD SWAP2 SWAP1 POP JUMP JUMPDEST PUSH1 0x0 DUP1 PUSH1 0x40 DUP4 DUP6 SUB SLT ISZERO PUSH2 0x3027 JUMPI DUP2 DUP3 REVERT JUMPDEST DUP3 CALLDATALOAD SWAP2 POP PUSH2 0x3037 PUSH1 0x20 DUP5 ADD PUSH2 0x2C6D JUMP JUMPDEST SWAP1 POP SWAP3 POP SWAP3 SWAP1 POP JUMP JUMPDEST PUSH1 0x0 DUP1 PUSH1 0x40 DUP4 DUP6 SUB SLT ISZERO PUSH2 0x3052 JUMPI DUP2 DUP3 REVERT JUMPDEST POP POP DUP1 CALLDATALOAD SWAP3 PUSH1 0x20 SWAP1 SWAP2 ADD CALLDATALOAD SWAP2 POP JUMP JUMPDEST PUSH1 0x0 DUP1 PUSH1 0x0 DUP1 PUSH1 0x0 DUP1 PUSH1 0x0 PUSH1 0x80 DUP9 DUP11 SUB SLT ISZERO PUSH2 0x307B JUMPI DUP1 DUP2 REVERT JUMPDEST DUP8 CALLDATALOAD SWAP7 POP PUSH1 0x20 DUP9 ADD CALLDATALOAD PUSH8 0xFFFFFFFFFFFFFFFF DUP1 DUP3 GT ISZERO PUSH2 0x3099 JUMPI DUP3 DUP4 REVERT JUMPDEST PUSH2 0x30A5 DUP12 DUP4 DUP13 ADD PUSH2 0x2C84 JUMP JUMPDEST SWAP1 SWAP9 POP SWAP7 POP PUSH1 0x40 DUP11 ADD CALLDATALOAD SWAP2 POP DUP1 DUP3 GT ISZERO PUSH2 0x30BD JUMPI DUP3 DUP4 REVERT JUMPDEST PUSH2 0x30C9 DUP12 DUP4 DUP13 ADD PUSH2 0x2C84 JUMP JUMPDEST SWAP1 SWAP7 POP SWAP5 POP PUSH1 0x60 DUP11 ADD CALLDATALOAD SWAP2 POP DUP1 DUP3 GT ISZERO PUSH2 0x30E1 JUMPI DUP3 DUP4 REVERT JUMPDEST POP PUSH2 0x30EE DUP11 DUP3 DUP12 ADD PUSH2 0x2C84 JUMP JUMPDEST SWAP9 SWAP12 SWAP8 SWAP11 POP SWAP6 SWAP9 POP SWAP4 SWAP7 SWAP3 SWAP6 SWAP3 SWAP4 POP POP POP JUMP JUMPDEST PUSH1 0x0 DUP1 PUSH1 0x40 DUP4 DUP6 SUB SLT ISZERO PUSH2 0x3113 JUMPI DUP2 DUP3 REVERT JUMPDEST DUP3 CALLDATALOAD SWAP2 POP PUSH2 0x3037 PUSH1 0x20 DUP5 ADD PUSH2 0x2CCD JUMP JUMPDEST PUSH1 0x0 DUP1 PUSH1 0x0 DUP1 PUSH1 0x0 PUSH1 0xA0 DUP7 DUP9 SUB SLT ISZERO PUSH2 0x313A JUMPI DUP3 DUP4 REVERT JUMPDEST DUP6 CALLDATALOAD SWAP5 POP PUSH2 0x314A PUSH1 0x20 DUP8 ADD PUSH2 0x2CCD JUMP JUMPDEST SWAP4 POP PUSH1 0x40 DUP7 ADD CALLDATALOAD PUSH1 0xFF DUP2 AND DUP2 EQ PUSH2 0x315F JUMPI DUP4 DUP5 REVERT JUMPDEST SWAP5 SWAP8 SWAP4 SWAP7 POP SWAP4 SWAP5 PUSH1 0x60 DUP2 ADD CALLDATALOAD SWAP5 POP PUSH1 0x80 ADD CALLDATALOAD SWAP3 SWAP2 POP POP JUMP JUMPDEST PUSH1 0x0 PUSH1 0x20 DUP3 DUP5 SUB SLT ISZERO PUSH2 0x3188 JUMPI DUP1 DUP2 REVERT JUMPDEST DUP2 CALLDATALOAD PUSH4 0xFFFFFFFF DUP2 AND DUP2 EQ PUSH2 0x159F JUMPI DUP2 DUP3 REVERT JUMPDEST PUSH1 0x0 PUSH1 0x20 DUP3 DUP5 SUB SLT ISZERO PUSH2 0x31AC JUMPI DUP1 DUP2 REVERT JUMPDEST DUP2 CALLDATALOAD PUSH2 0x159F DUP2 PUSH2 0x3F7F JUMP JUMPDEST PUSH1 0x0 PUSH1 0x20 DUP3 DUP5 SUB SLT ISZERO PUSH2 0x31C8 JUMPI DUP1 DUP2 REVERT JUMPDEST DUP2 MLOAD PUSH2 0x159F DUP2 PUSH2 0x3F7F JUMP JUMPDEST PUSH1 0x0 DUP3 DUP5 MSTORE PUSH1 0x20 DUP1 DUP6 ADD SWAP5 POP DUP3 DUP3 JUMPDEST DUP6 DUP2 LT ISZERO PUSH2 0x320E JUMPI PUSH1 0x1 PUSH1 0x1 PUSH1 0xA0 SHL SUB PUSH2 0x31FB DUP4 PUSH2 0x2C6D JUMP JUMPDEST AND DUP8 MSTORE SWAP6 DUP3 ADD SWAP6 SWAP1 DUP3 ADD SWAP1 PUSH1 0x1 ADD PUSH2 0x31E2 JUMP JUMPDEST POP SWAP5 SWAP6 SWAP5 POP POP POP POP POP JUMP JUMPDEST DUP2 DUP4 MSTORE PUSH1 0x20 DUP1 DUP5 ADD SWAP4 PUSH1 0x0 SWAP2 SWAP1 DUP2 DUP6 MUL ADD DUP2 ADD DUP6 DUP5 DUP5 JUMPDEST DUP8 DUP2 LT ISZERO PUSH2 0x3297 JUMPI DUP3 DUP5 SUB DUP10 MSTORE DUP2 CALLDATALOAD PUSH1 0x1E NOT DUP9 CALLDATASIZE SUB ADD DUP2 SLT PUSH2 0x3250 JUMPI DUP7 DUP8 REVERT JUMPDEST DUP8 ADD DUP1 CALLDATALOAD PUSH8 0xFFFFFFFFFFFFFFFF DUP2 GT ISZERO PUSH2 0x3268 JUMPI DUP8 DUP9 REVERT JUMPDEST DUP1 CALLDATASIZE SUB DUP10 SGT ISZERO PUSH2 0x3276 JUMPI DUP8 DUP9 REVERT JUMPDEST PUSH2 0x3283 DUP7 DUP3 DUP10 DUP6 ADD PUSH2 0x32D8 JUMP JUMPDEST SWAP11 DUP8 ADD SWAP11 SWAP6 POP POP POP SWAP1 DUP5 ADD SWAP1 PUSH1 0x1 ADD PUSH2 0x3230 JUMP JUMPDEST POP SWAP2 SWAP8 SWAP7 POP POP POP POP POP POP POP JUMP JUMPDEST DUP2 DUP4 MSTORE PUSH1 0x0 PUSH1 0x1 PUSH1 0x1 PUSH1 0xFB SHL SUB DUP4 GT ISZERO PUSH2 0x32BC JUMPI DUP1 DUP2 REVERT JUMPDEST PUSH1 0x20 DUP4 MUL DUP1 DUP4 PUSH1 0x20 DUP8 ADD CALLDATACOPY SWAP4 SWAP1 SWAP4 ADD PUSH1 0x20 ADD SWAP3 DUP4 MSTORE POP SWAP1 SWAP2 SWAP1 POP JUMP JUMPDEST PUSH1 0x0 DUP3 DUP5 MSTORE DUP3 DUP3 PUSH1 0x20 DUP7 ADD CALLDATACOPY DUP1 PUSH1 0x20 DUP5 DUP7 ADD ADD MSTORE PUSH1 0x20 PUSH1 0x1F NOT PUSH1 0x1F DUP6 ADD AND DUP6 ADD ADD SWAP1 POP SWAP4 SWAP3 POP POP POP JUMP JUMPDEST PUSH1 0x0 DUP3 DUP5 DUP4 CALLDATACOPY SWAP2 ADD SWAP1 DUP2 MSTORE SWAP2 SWAP1 POP JUMP JUMPDEST PUSH2 0x1901 PUSH1 0xF0 SHL DUP2 MSTORE PUSH1 0x2 DUP2 ADD SWAP3 SWAP1 SWAP3 MSTORE PUSH1 0x22 DUP3 ADD MSTORE PUSH1 0x42 ADD SWAP1 JUMP JUMPDEST PUSH1 0x1 PUSH1 0x1 PUSH1 0xA0 SHL SUB SWAP2 SWAP1 SWAP2 AND DUP2 MSTORE PUSH1 0x20 ADD SWAP1 JUMP JUMPDEST PUSH1 0x1 PUSH1 0x1 PUSH1 0xA0 SHL SUB SWAP3 SWAP1 SWAP3 AND DUP3 MSTORE PUSH4 0xFFFFFFFF AND PUSH1 0x20 DUP3 ADD MSTORE PUSH1 0x40 ADD SWAP1 JUMP JUMPDEST PUSH1 0x1 PUSH1 0x1 PUSH1 0xA0 SHL SUB SWAP3 SWAP1 SWAP3 AND DUP3 MSTORE PUSH1 0x20 DUP3 ADD MSTORE PUSH1 0x40 ADD SWAP1 JUMP JUMPDEST PUSH1 0x0 PUSH1 0x1 DUP1 PUSH1 0xA0 SHL SUB DUP7 AND DUP3 MSTORE DUP5 PUSH1 0x20 DUP4 ADD MSTORE PUSH1 0x60 PUSH1 0x40 DUP4 ADD MSTORE PUSH2 0x33A1 PUSH1 0x60 DUP4 ADD DUP5 DUP7 PUSH2 0x32D8 JUMP JUMPDEST SWAP7 SWAP6 POP POP POP POP POP POP JUMP JUMPDEST PUSH1 0x0 PUSH1 0x1 DUP1 PUSH1 0xA0 SHL SUB DUP9 AND DUP3 MSTORE DUP7 PUSH1 0x20 DUP4 ADD MSTORE PUSH1 0xA0 PUSH1 0x40 DUP4 ADD MSTORE PUSH2 0x33D3 PUSH1 0xA0 DUP4 ADD DUP7 DUP9 PUSH2 0x32D8 JUMP JUMPDEST PUSH1 0x60 DUP4 ADD SWAP5 SWAP1 SWAP5 MSTORE POP PUSH1 0x80 ADD MSTORE SWAP5 SWAP4 POP POP POP POP JUMP JUMPDEST PUSH1 0x0 PUSH1 0xA0 DUP3 MSTORE PUSH2 0x33FC PUSH1 0xA0 DUP4 ADD DUP11 DUP13 PUSH2 0x31D3 JUMP JUMPDEST DUP3 DUP2 SUB PUSH1 0x20 DUP5 ADD MSTORE PUSH2 0x340F DUP2 DUP10 DUP12 PUSH2 0x32A4 JUMP JUMPDEST SWAP1 POP DUP3 DUP2 SUB PUSH1 0x40 DUP5 ADD MSTORE PUSH2 0x3424 DUP2 DUP8 DUP10 PUSH2 0x3219 JUMP JUMPDEST PUSH1 0x60 DUP5 ADD SWAP6 SWAP1 SWAP6 MSTORE POP POP PUSH1 0x80 ADD MSTORE SWAP7 SWAP6 POP POP POP POP POP POP JUMP JUMPDEST PUSH1 0x0 PUSH1 0xC0 DUP3 MSTORE PUSH2 0x3450 PUSH1 0xC0 DUP4 ADD DUP12 DUP14 PUSH2 0x31D3 JUMP JUMPDEST DUP3 DUP2 SUB PUSH1 0x20 DUP5 ADD MSTORE PUSH2 0x3463 DUP2 DUP11 DUP13 PUSH2 0x32A4 JUMP JUMPDEST SWAP1 POP DUP3 DUP2 SUB PUSH1 0x40 DUP5 ADD MSTORE PUSH2 0x3478 DUP2 DUP9 DUP11 PUSH2 0x3219 JUMP JUMPDEST PUSH1 0x60 DUP5 ADD SWAP7 SWAP1 SWAP7 MSTORE POP POP PUSH1 0x80 DUP2 ADD SWAP3 SWAP1 SWAP3 MSTORE PUSH1 0xA0 SWAP1 SWAP2 ADD MSTORE SWAP7 SWAP6 POP POP POP POP POP POP JUMP JUMPDEST PUSH1 0x0 PUSH1 0xA0 DUP3 MSTORE PUSH2 0x34AE PUSH1 0xA0 DUP4 ADD DUP11 DUP13 PUSH2 0x31D3 JUMP JUMPDEST DUP3 DUP2 SUB PUSH1 0x20 DUP5 ADD MSTORE PUSH2 0x34C1 DUP2 DUP10 DUP12 PUSH2 0x32A4 JUMP JUMPDEST SWAP1 POP DUP3 DUP2 SUB PUSH1 0x40 DUP5 ADD MSTORE PUSH2 0x34D6 DUP2 DUP8 DUP10 PUSH2 0x3219 JUMP JUMPDEST SWAP2 POP POP PUSH4 0xFFFFFFFF DUP1 DUP6 AND PUSH1 0x60 DUP5 ADD MSTORE DUP1 DUP5 AND PUSH1 0x80 DUP5 ADD MSTORE POP SWAP10 SWAP9 POP POP POP POP POP POP POP POP POP JUMP JUMPDEST SWAP1 ISZERO ISZERO DUP2 MSTORE PUSH1 0x20 ADD SWAP1 JUMP JUMPDEST SWAP3 ISZERO ISZERO DUP4 MSTORE SWAP1 ISZERO ISZERO PUSH1 0x20 DUP4 ADD MSTORE PUSH1 0x1 PUSH1 0x1 PUSH1 0x60 SHL SUB AND PUSH1 0x40 DUP3 ADD MSTORE PUSH1 0x60 ADD SWAP1 JUMP JUMPDEST SWAP2 ISZERO ISZERO DUP3 MSTORE PUSH1 0x1 PUSH1 0x1 PUSH1 0x60 SHL SUB AND PUSH1 0x20 DUP3 ADD MSTORE PUSH1 0x40 ADD SWAP1 JUMP JUMPDEST SWAP1 DUP2 MSTORE PUSH1 0x20 ADD SWAP1 JUMP JUMPDEST SWAP4 DUP5 MSTORE PUSH1 0x20 DUP5 ADD SWAP3 SWAP1 SWAP3 MSTORE PUSH1 0x40 DUP4 ADD MSTORE PUSH1 0x1 PUSH1 0x1 PUSH1 0xA0 SHL SUB AND PUSH1 0x60 DUP3 ADD MSTORE PUSH1 0x80 ADD SWAP1 JUMP JUMPDEST SWAP3 DUP4 MSTORE PUSH1 0x20 DUP4 ADD SWAP2 SWAP1 SWAP2 MSTORE ISZERO ISZERO PUSH1 0x40 DUP3 ADD MSTORE PUSH1 0x60 ADD SWAP1 JUMP JUMPDEST PUSH1 0x20 DUP2 ADD PUSH1 0x7 DUP4 LT PUSH2 0x3594 JUMPI INVALID JUMPDEST SWAP2 SWAP1 MSTORE SWAP1 JUMP JUMPDEST PUSH1 0x0 PUSH1 0x20 DUP1 DUP4 MSTORE DUP4 MLOAD DUP1 DUP3 DUP6 ADD MSTORE DUP3 JUMPDEST DUP2 DUP2 LT ISZERO PUSH2 0x35C6 JUMPI DUP6 DUP2 ADD DUP4 ADD MLOAD DUP6 DUP3 ADD PUSH1 0x40 ADD MSTORE DUP3 ADD PUSH2 0x35AA JUMP JUMPDEST DUP2 DUP2 GT ISZERO PUSH2 0x35D7 JUMPI DUP4 PUSH1 0x40 DUP4 DUP8 ADD ADD MSTORE JUMPDEST POP PUSH1 0x1F ADD PUSH1 0x1F NOT AND SWAP3 SWAP1 SWAP3 ADD PUSH1 0x40 ADD SWAP4 SWAP3 POP POP POP JUMP JUMPDEST PUSH1 0x20 DUP1 DUP3 MSTORE PUSH1 0x26 SWAP1 DUP3 ADD MSTORE PUSH32 0x54696D656C6F636B436F6E74726F6C6C65723A206D697373696E672064657065 PUSH1 0x40 DUP3 ADD MSTORE PUSH6 0x6E64656E6379 PUSH1 0xD0 SHL PUSH1 0x60 DUP3 ADD MSTORE PUSH1 0x80 ADD SWAP1 JUMP JUMPDEST PUSH1 0x20 DUP1 DUP3 MSTORE PUSH1 0x23 SWAP1 DUP3 ADD MSTORE PUSH32 0x54696D656C6F636B436F6E74726F6C6C65723A206C656E677468206D69736D61 PUSH1 0x40 DUP3 ADD MSTORE PUSH3 0xE8C6D PUSH1 0xEB SHL PUSH1 0x60 DUP3 ADD MSTORE PUSH1 0x80 ADD SWAP1 JUMP JUMPDEST PUSH1 0x20 DUP1 DUP3 MSTORE PUSH1 0x2E SWAP1 DUP3 ADD MSTORE PUSH32 0x54696D656C6F636B436F6E74726F6C6C65723A2073656E646572207265717569 PUSH1 0x40 DUP3 ADD MSTORE PUSH14 0x3932B9903832B936B4B9B9B4B7B7 PUSH1 0x91 SHL PUSH1 0x60 DUP3 ADD MSTORE PUSH1 0x80 ADD SWAP1 JUMP JUMPDEST PUSH1 0x20 DUP1 DUP3 MSTORE PUSH1 0x19 SWAP1 DUP3 ADD MSTORE PUSH32 0x50726F706F73616C20616C726561647920657865637574656400000000000000 PUSH1 0x40 DUP3 ADD MSTORE PUSH1 0x60 ADD SWAP1 JUMP JUMPDEST PUSH1 0x20 DUP1 DUP3 MSTORE PUSH1 0x13 SWAP1 DUP3 ADD MSTORE PUSH19 0x141C9BDC1BDCD85B081B9BDD081C5D595D5959 PUSH1 0x6A SHL PUSH1 0x40 DUP3 ADD MSTORE PUSH1 0x60 ADD SWAP1 JUMP JUMPDEST PUSH1 0x20 DUP1 DUP3 MSTORE PUSH1 0x29 SWAP1 DUP3 ADD MSTORE PUSH32 0x476F7665726E6F72416C7068613A3A73746174653A20696E76616C6964207072 PUSH1 0x40 DUP3 ADD MSTORE PUSH9 0x1BDC1BDCD85B081A59 PUSH1 0xBA SHL PUSH1 0x60 DUP3 ADD MSTORE PUSH1 0x80 ADD SWAP1 JUMP JUMPDEST PUSH1 0x20 DUP1 DUP3 MSTORE PUSH1 0x2D SWAP1 DUP3 ADD MSTORE PUSH32 0x476F7665726E6F72416C7068613A3A5F63617374566F74653A20766F74657220 PUSH1 0x40 DUP3 ADD MSTORE PUSH13 0x185B1C9958591E481D9BDD1959 PUSH1 0x9A SHL PUSH1 0x60 DUP3 ADD MSTORE PUSH1 0x80 ADD SWAP1 JUMP JUMPDEST PUSH1 0x20 DUP1 DUP3 MSTORE PUSH1 0x3E SWAP1 DUP3 ADD MSTORE PUSH32 0x476F7665726E6F72416C7068613A3A5F5F7472616E7366657247756172646961 PUSH1 0x40 DUP3 ADD MSTORE PUSH32 0x6E3A2073656E646572206D75737420626520676F7620677561726469616E0000 PUSH1 0x60 DUP3 ADD MSTORE PUSH1 0x80 ADD SWAP1 JUMP JUMPDEST PUSH1 0x20 DUP1 DUP3 MSTORE PUSH1 0x13 SWAP1 DUP3 ADD MSTORE PUSH19 0x2AB730BABA3437B934BD32B21031B0B63632B9 PUSH1 0x69 SHL PUSH1 0x40 DUP3 ADD MSTORE PUSH1 0x60 ADD SWAP1 JUMP JUMPDEST PUSH1 0x20 DUP1 DUP3 MSTORE PUSH1 0x59 SWAP1 DUP3 ADD MSTORE PUSH32 0x476F7665726E6F72416C7068613A3A70726F706F73653A206F6E65206C697665 PUSH1 0x40 DUP3 ADD MSTORE PUSH32 0x2070726F706F73616C207065722070726F706F7365722C20666F756E6420616E PUSH1 0x60 DUP3 ADD MSTORE PUSH32 0x20616C72656164792070656E64696E672070726F706F73616C00000000000000 PUSH1 0x80 DUP3 ADD MSTORE PUSH1 0xA0 ADD SWAP1 JUMP JUMPDEST PUSH1 0x20 DUP1 DUP3 MSTORE PUSH1 0x26 SWAP1 DUP3 ADD MSTORE PUSH32 0x54696D656C6F636B436F6E74726F6C6C65723A20696E73756666696369656E74 PUSH1 0x40 DUP3 ADD MSTORE PUSH6 0x2064656C6179 PUSH1 0xD0 SHL PUSH1 0x60 DUP3 ADD MSTORE PUSH1 0x80 ADD SWAP1 JUMP JUMPDEST PUSH1 0x20 DUP1 DUP3 MSTORE PUSH1 0x28 SWAP1 DUP3 ADD MSTORE PUSH32 0x476F7665726E6F72416C7068613A3A70726F706F73653A20746F6F206D616E79 PUSH1 0x40 DUP3 ADD MSTORE PUSH8 0x20616374696F6E73 PUSH1 0xC0 SHL PUSH1 0x60 DUP3 ADD MSTORE PUSH1 0x80 ADD SWAP1 JUMP JUMPDEST PUSH1 0x20 DUP1 DUP3 MSTORE PUSH1 0x17 SWAP1 DUP3 ADD MSTORE PUSH32 0x42656C6F77206D696E20766F74696E6720706572696F64000000000000000000 PUSH1 0x40 DUP3 ADD MSTORE PUSH1 0x60 ADD SWAP1 JUMP JUMPDEST PUSH1 0x20 DUP1 DUP3 MSTORE PUSH1 0x11 SWAP1 DUP3 ADD MSTORE PUSH17 0x6164646974696F6E206F766572666C6F77 PUSH1 0x78 SHL PUSH1 0x40 DUP3 ADD MSTORE PUSH1 0x60 ADD SWAP1 JUMP JUMPDEST PUSH1 0x20 DUP1 DUP3 MSTORE PUSH1 0x44 SWAP1 DUP3 ADD MSTORE PUSH32 0x476F7665726E6F72416C7068613A3A70726F706F73653A2070726F706F73616C PUSH1 0x40 DUP3 ADD MSTORE PUSH32 0x2066756E6374696F6E20696E666F726D6174696F6E206172697479206D69736D PUSH1 0x60 DUP3 ADD MSTORE PUSH4 0xC2E8C6D PUSH1 0xE3 SHL PUSH1 0x80 DUP3 ADD MSTORE PUSH1 0xA0 ADD SWAP1 JUMP JUMPDEST PUSH1 0x20 DUP1 DUP3 MSTORE PUSH1 0x2F SWAP1 DUP3 ADD MSTORE PUSH32 0x476F7665726E6F72416C7068613A3A63616E63656C3A2070726F706F73657220 PUSH1 0x40 DUP3 ADD MSTORE PUSH15 0x18589BDD99481D1A1C995CDA1BDB19 PUSH1 0x8A SHL PUSH1 0x60 DUP3 ADD MSTORE PUSH1 0x80 ADD SWAP1 JUMP JUMPDEST PUSH1 0x20 DUP1 DUP3 MSTORE PUSH1 0x2C SWAP1 DUP3 ADD MSTORE PUSH32 0x476F7665726E6F72416C7068613A3A70726F706F73653A206D7573742070726F PUSH1 0x40 DUP3 ADD MSTORE PUSH12 0x7669646520616374696F6E73 PUSH1 0xA0 SHL PUSH1 0x60 DUP3 ADD MSTORE PUSH1 0x80 ADD SWAP1 JUMP JUMPDEST PUSH1 0x20 DUP1 DUP3 MSTORE PUSH1 0x2F SWAP1 DUP3 ADD MSTORE PUSH32 0x54696D656C6F636B436F6E74726F6C6C65723A206F7065726174696F6E20616C PUSH1 0x40 DUP3 ADD MSTORE PUSH15 0x1C9958591E481CD8DA19591D5B1959 PUSH1 0x8A SHL PUSH1 0x60 DUP3 ADD MSTORE PUSH1 0x80 ADD SWAP1 JUMP JUMPDEST PUSH1 0x20 DUP1 DUP3 MSTORE PUSH1 0x1F SWAP1 DUP3 ADD MSTORE PUSH32 0x43616E6E6F74207472616E7366657220746F207A65726F206164647265737300 PUSH1 0x40 DUP3 ADD MSTORE PUSH1 0x60 ADD SWAP1 JUMP JUMPDEST PUSH1 0x20 DUP1 DUP3 MSTORE PUSH1 0x2A SWAP1 DUP3 ADD MSTORE PUSH32 0x54696D656C6F636B436F6E74726F6C6C65723A206F7065726174696F6E206973 PUSH1 0x40 DUP3 ADD MSTORE PUSH10 0x206E6F74207265616479 PUSH1 0xB0 SHL PUSH1 0x60 DUP3 ADD MSTORE PUSH1 0x80 ADD SWAP1 JUMP JUMPDEST PUSH1 0x20 DUP1 DUP3 MSTORE PUSH1 0x3F SWAP1 DUP3 ADD MSTORE PUSH32 0x476F7665726E6F72416C7068613A3A70726F706F73653A2070726F706F736572 PUSH1 0x40 DUP3 ADD MSTORE PUSH32 0x20766F7465732062656C6F772070726F706F73616C207468726573686F6C6400 PUSH1 0x60 DUP3 ADD MSTORE PUSH1 0x80 ADD SWAP1 JUMP JUMPDEST PUSH1 0x20 DUP1 DUP3 MSTORE PUSH1 0x58 SWAP1 DUP3 ADD MSTORE PUSH32 0x476F7665726E6F72416C7068613A3A70726F706F73653A206F6E65206C697665 PUSH1 0x40 DUP3 ADD MSTORE PUSH32 0x2070726F706F73616C207065722070726F706F7365722C20666F756E6420616E PUSH1 0x60 DUP3 ADD MSTORE PUSH32 0x20616C7265616479206163746976652070726F706F73616C0000000000000000 PUSH1 0x80 DUP3 ADD MSTORE PUSH1 0xA0 ADD SWAP1 JUMP JUMPDEST PUSH1 0x20 DUP1 DUP3 MSTORE PUSH1 0x31 SWAP1 DUP3 ADD MSTORE PUSH32 0x54696D656C6F636B436F6E74726F6C6C65723A206F7065726174696F6E206361 PUSH1 0x40 DUP3 ADD MSTORE PUSH17 0x1B9B9BDD0818994818D85B98D95B1B1959 PUSH1 0x7A SHL PUSH1 0x60 DUP3 ADD MSTORE PUSH1 0x80 ADD SWAP1 JUMP JUMPDEST PUSH1 0x20 DUP1 DUP3 MSTORE PUSH1 0x18 SWAP1 DUP3 ADD MSTORE PUSH32 0x50726F706F73616C206D75737420626520737563636573730000000000000000 PUSH1 0x40 DUP3 ADD MSTORE PUSH1 0x60 ADD SWAP1 JUMP JUMPDEST PUSH1 0x20 DUP1 DUP3 MSTORE PUSH1 0x2A SWAP1 DUP3 ADD MSTORE PUSH32 0x476F7665726E6F72416C7068613A3A5F63617374566F74653A20766F74696E67 PUSH1 0x40 DUP3 ADD MSTORE PUSH10 0x81A5CC818DB1BDCD959 PUSH1 0xB2 SHL PUSH1 0x60 DUP3 ADD MSTORE PUSH1 0x80 ADD SWAP1 JUMP JUMPDEST PUSH1 0x20 DUP1 DUP3 MSTORE PUSH1 0x36 SWAP1 DUP3 ADD MSTORE PUSH32 0x476F7665726E6F72416C7068613A3A5F5F61626469636174653A2073656E6465 PUSH1 0x40 DUP3 ADD MSTORE PUSH22 0x391036BAB9BA1031329033B7BB1033BAB0B93234B0B7 PUSH1 0x51 SHL PUSH1 0x60 DUP3 ADD MSTORE PUSH1 0x80 ADD SWAP1 JUMP JUMPDEST PUSH1 0x20 DUP1 DUP3 MSTORE PUSH1 0x2B SWAP1 DUP3 ADD MSTORE PUSH32 0x54696D656C6F636B436F6E74726F6C6C65723A2063616C6C6572206D75737420 PUSH1 0x40 DUP3 ADD MSTORE PUSH11 0x62652074696D656C6F636B PUSH1 0xA8 SHL PUSH1 0x60 DUP3 ADD MSTORE PUSH1 0x80 ADD SWAP1 JUMP JUMPDEST PUSH1 0x20 DUP1 DUP3 MSTORE PUSH1 0x33 SWAP1 DUP3 ADD MSTORE PUSH32 0x54696D656C6F636B436F6E74726F6C6C65723A20756E6465726C79696E672074 PUSH1 0x40 DUP3 ADD MSTORE PUSH19 0x1C985B9CD858DD1A5BDB881C995D995C9D1959 PUSH1 0x6A SHL PUSH1 0x60 DUP3 ADD MSTORE PUSH1 0x80 ADD SWAP1 JUMP JUMPDEST PUSH1 0x20 DUP1 DUP3 MSTORE PUSH1 0x17 SWAP1 DUP3 ADD MSTORE PUSH32 0x4F7065726174696F6E2068617368206D69736D61746368000000000000000000 PUSH1 0x40 DUP3 ADD MSTORE PUSH1 0x60 ADD SWAP1 JUMP JUMPDEST DUP2 MLOAD ISZERO ISZERO DUP2 MSTORE PUSH1 0x20 DUP1 DUP4 ADD MLOAD ISZERO ISZERO SWAP1 DUP3 ADD MSTORE PUSH1 0x40 SWAP2 DUP3 ADD MLOAD PUSH1 0x1 PUSH1 0x1 PUSH1 0x60 SHL SUB AND SWAP2 DUP2 ADD SWAP2 SWAP1 SWAP2 MSTORE PUSH1 0x60 ADD SWAP1 JUMP JUMPDEST SWAP2 DUP3 MSTORE PUSH1 0x20 DUP3 ADD MSTORE PUSH1 0x40 ADD SWAP1 JUMP JUMPDEST SWAP9 DUP10 MSTORE PUSH4 0xFFFFFFFF SWAP8 DUP9 AND PUSH1 0x20 DUP11 ADD MSTORE SWAP6 SWAP1 SWAP7 AND PUSH1 0x40 DUP9 ADD MSTORE PUSH1 0x1 PUSH1 0x1 PUSH1 0x60 SHL SUB SWAP4 DUP5 AND PUSH1 0x60 DUP9 ADD MSTORE SWAP2 SWAP1 SWAP3 AND PUSH1 0x80 DUP7 ADD MSTORE PUSH1 0x1 PUSH1 0x1 PUSH1 0xA0 SHL SUB SWAP1 SWAP2 AND PUSH1 0xA0 DUP6 ADD MSTORE ISZERO ISZERO PUSH1 0xC0 DUP5 ADD MSTORE SWAP1 ISZERO ISZERO PUSH1 0xE0 DUP4 ADD MSTORE PUSH2 0x100 DUP3 ADD MSTORE PUSH2 0x120 ADD SWAP1 JUMP JUMPDEST PUSH4 0xFFFFFFFF SWAP2 SWAP1 SWAP2 AND DUP2 MSTORE PUSH1 0x20 ADD SWAP1 JUMP JUMPDEST PUSH1 0xFF SWAP2 SWAP1 SWAP2 AND DUP2 MSTORE PUSH1 0x20 ADD SWAP1 JUMP JUMPDEST PUSH1 0x1 PUSH1 0x1 PUSH1 0x60 SHL SUB SWAP2 SWAP1 SWAP2 AND DUP2 MSTORE PUSH1 0x20 ADD SWAP1 JUMP JUMPDEST PUSH1 0x0 DUP1 DUP4 CALLDATALOAD PUSH1 0x1E NOT DUP5 CALLDATASIZE SUB ADD DUP2 SLT PUSH2 0x3F50 JUMPI DUP3 DUP4 REVERT JUMPDEST DUP4 ADD DUP1 CALLDATALOAD SWAP2 POP PUSH8 0xFFFFFFFFFFFFFFFF DUP3 GT ISZERO PUSH2 0x3F6A JUMPI DUP3 DUP4 REVERT JUMPDEST PUSH1 0x20 ADD SWAP2 POP CALLDATASIZE DUP2 SWAP1 SUB DUP3 SGT ISZERO PUSH2 0x2CC6 JUMPI PUSH1 0x0 DUP1 REVERT JUMPDEST PUSH1 0x1 PUSH1 0x1 PUSH1 0x60 SHL SUB DUP2 AND DUP2 EQ PUSH2 0x3F94 JUMPI PUSH1 0x0 DUP1 REVERT JUMPDEST POP JUMP INVALID GASLIMIT PUSH15 0x756D657261626C655365743A20696E PUSH5 0x6578206F75 PUSH21 0x206F6620626F756E6473416363657373436F6E7472 PUSH16 0x6C3A2073656E646572206D7573742062 PUSH6 0x20616E206164 PUSH14 0x696E20746F206772616E74454344 MSTORE8 COINBASE GASPRICE KECCAK256 PUSH10 0x6E76616C696420736967 PUSH15 0x6174757265202773272076616C7565 COINBASE PUSH4 0x63657373 NUMBER PUSH16 0x6E74726F6C3A2073656E646572206D75 PUSH20 0x7420626520616E2061646D696E20746F20726576 PUSH16 0x6B6545434453413A20696E76616C6964 KECCAK256 PUSH20 0x69676E6174757265202776272076616C7565B09A 0xA5 0xAE 0xB3 PUSH17 0x2CFD50B6B62BC4532604938F21248A27A1 0xD5 0xCA PUSH20 0x6082B6819CC1416363657373436F6E74726F6C3A KECCAK256 PUSH4 0x616E206F PUSH15 0x6C792072656E6F756E636520726F6C PUSH6 0x7320666F7220 PUSH20 0x656C66A26469706673582212201B42BFCE62E175 MULMOD 0x48 0x5D 0xF 0xD9 SIGNEXTEND DUP16 0xC4 PUSH20 0x5E8F2EED9933E33DD2E7605AFAE0788C64736F6C PUSH4 0x43000706 STOP CALLER ","sha1":"fa949bbd9d8bd3e1d6202d904c7eaf5e85ea1af7","source":"// SPDX-License-Identifier: GPL-3.0-only\npragma solidity ^0.7.0;\npragma abicoder v2;\n\nimport \"interfaces/notional/INoteERC20.sol\";\nimport \"@openzeppelin/contracts/access/TimelockController.sol\";\nimport \"@openzeppelin/contracts/cryptography/ECDSA.sol\";\nimport \"@openzeppelin/contracts/utils/Address.sol\";\n\n/**\n * @title Notional Governor Alpha\n * Fork of Compound Governor Alpha at commit hash\n * https://github.com/compound-finance/compound-protocol/commit/9bcff34a5c9c76d51e51bcb0ca1139588362ef96\n */\ncontract GovernorAlpha is TimelockController {\n    /// @notice The name of this contract\n    string public constant name = \"Notional Governor Alpha\";\n\n    /// @notice The address of the Notional governance token\n    INoteERC20 public immutable note;\n\n    /// @notice The maximum number of actions that can be included in a proposal\n    uint8 public constant PROPOSAL_MAX_OPERATIONS = 10;\n\n    /// @notice The minimum voting period in blocks, about 1 day assuming 13 second blocks. Ensures that proposals will always have\n    /// time to be voted on.\n    uint32 public constant MIN_VOTING_PERIOD_BLOCKS = 6700;\n\n    /// @notice The number of votes in support of a proposal required in order for a quorum to be reached and for a proposal to succeed\n    uint96 public quorumVotes;\n\n    /// @notice The number of votes required in order for a voter to become a proposer\n    uint96 public proposalThreshold;\n\n    /// @notice The delay before voting on a proposal may take place, once proposed\n    uint32 public votingDelayBlocks;\n\n    /// @notice The duration of voting on a proposal, in blocks\n    uint32 public votingPeriodBlocks;\n\n    /// @notice The address of the Governor Guardian\n    address public guardian;\n\n    /// @notice The total number of proposals\n    uint256 public proposalCount;\n\n    struct Proposal {\n        // Unique id for looking up a proposal\n        uint256 id;\n        // The timestamp at which voting begins: holders must delegate their votes prior to this block\n        uint32 startBlock;\n        // The timestamp at which voting ends: votes must be cast prior to this block\n        uint32 endBlock;\n        // Current number of votes in favor of this proposal\n        uint96 forVotes;\n        // Current number of votes in opposition to this proposal\n        uint96 againstVotes;\n        // Creator of the proposal\n        address proposer;\n        // Flag marking whether the proposal has been canceled\n        bool canceled;\n        // Flag marking whether the proposal has been executed\n        bool executed;\n        // Hash of the operation to reduce storage cost\n        bytes32 operationHash;\n    }\n\n    // Ballot receipt record for a voter\n    struct Receipt {\n        // Whether or not a vote has been cast\n        bool hasVoted;\n        // Whether or not the voter supports the proposal\n        bool support;\n        // The number of votes the voter had, which were cast\n        uint96 votes;\n    }\n\n    // Possible states that a proposal may be in\n    enum ProposalState {Pending, Active, Canceled, Defeated, Succeeded, Queued, Executed}\n\n    /// @notice The official record of all proposals ever proposed\n    mapping(uint256 => Proposal) public proposals;\n\n    /// @notice Receipts of ballots for the entire set of voters, from proposal id to\n    /// address of voter\n    mapping(uint256 => mapping(address => Receipt)) public receipts;\n\n    /// @notice The latest proposal for each proposer\n    mapping(address => uint256) public latestProposalIds;\n\n    /// @notice The EIP-712 typehash for the contract's domain\n    bytes32 public constant DOMAIN_TYPEHASH =\n        keccak256(\"EIP712Domain(string name,uint256 chainId,address verifyingContract)\");\n\n    /// @notice The EIP-712 typehash for the ballot struct uComp by the contract\n    bytes32 public constant BALLOT_TYPEHASH = keccak256(\"Ballot(uint256 proposalId,bool support)\");\n\n    /// @notice An event emitted when a new proposal is created\n    event ProposalCreated(\n        uint256 indexed id,\n        address indexed proposer,\n        address[] targets,\n        uint256[] values,\n        bytes[] calldatas,\n        uint256 startBlock,\n        uint256 endBlock\n    );\n\n    /// @notice An event emitted when a vote has been cast on a proposal\n    event VoteCast(address indexed voter, uint256 indexed proposalId, bool support, uint256 votes);\n\n    /// @notice An event emitted when a proposal has been canceled\n    event ProposalCanceled(uint256 indexed id);\n\n    /// @notice An event emitted when a proposal has been queued in the Timelock\n    event ProposalQueued(uint256 indexed id, uint256 eta);\n\n    /// @notice An event emitted when a proposal has been executed in the Timelock\n    event ProposalExecuted(uint256 indexed id);\n\n    /// @notice An event emitted when amount of quorum votes required is updated\n    event UpdateQuorumVotes(uint96 newQuorumVotes);\n\n    /// @notice An event emitted when a new proposal threshold has been set\n    event UpdateProposalThreshold(uint96 newProposalThreshold);\n\n    /// @notice An event emitted when a new voting delay in blocks has been set\n    event UpdateVotingDelayBlocks(uint32 newVotingDelayBlocks);\n\n    /// @notice An event emitted when a new voting period in blocks has been set\n    event UpdateVotingPeriodBlocks(uint32 newVotingPeriodBlocks);\n\n    /// @notice Emitted when the guardian abdicates their role\n    event Abdicate();\n\n    /// @notice An event emitted when guardian is transferred\n    event TransferGuardian(address newGuardian);\n    \n    /// @notice Initializes the GovernorAlpha with initial parameters\n    /// @param quorumVotes_ initial quorum votes value\n    /// @param proposalThreshold_ initial proposal threshold value\n    /// @param votingDelayBlocks_ initial voting delay blocks value\n    /// @param votingPeriodBlocks_ initial voting period blocks value\n    /// @param note_ address of the NOTE token to get voting power\n    /// @param guardian_ address of guardian\n    /// @param minDelay_ initial minimum delay for timelock in seconds\n    /// @param proposalCount_ initial proposal count setting, can be used to maintain\n    /// proposal id continuity between upgrades\n    constructor(\n        uint96 quorumVotes_,\n        uint96 proposalThreshold_,\n        uint32 votingDelayBlocks_,\n        uint32 votingPeriodBlocks_,\n        INoteERC20 note_,\n        address guardian_,\n        uint256 minDelay_,\n        uint256 proposalCount_\n    ) TimelockController(minDelay_, new address[](0), new address[](0)) {\n        // Sanity check to make sure we've set the correct token contract\n        require(keccak256(bytes(note_.symbol())) == keccak256(bytes(\"NOTE\")));\n\n        quorumVotes = quorumVotes_;\n        proposalThreshold = proposalThreshold_;\n        votingDelayBlocks = votingDelayBlocks_;\n        // Do not enforce MIN_VOTING_DELAY during constructor so that tests don't require a large number\n        // of blocks for the voting period. During actual mainnet deployment this will be set to a reasonable value.\n        votingPeriodBlocks = votingPeriodBlocks_;\n        note = note_;\n        guardian = guardian_;\n        proposalCount = proposalCount_;\n\n        // Only the external methods can be used to execute governance\n        grantRole(PROPOSER_ROLE, address(this));\n        grantRole(EXECUTOR_ROLE, address(this));\n        revokeRole(TIMELOCK_ADMIN_ROLE, address(this));\n        revokeRole(TIMELOCK_ADMIN_ROLE, msg.sender);\n    }\n\n    /// @notice Proposes a new governance action\n    /// @param targets an array of addresses to take actions on\n    /// @param values an array of ether amounts to send to respective target address\n    /// @param calldatas an array of calldata bytes to call respective target address with\n    /// @dev emit:ProposalCreated\n    /// @return newly created proposal id\n    function propose(\n        address[] calldata targets,\n        uint256[] calldata values,\n        bytes[] calldata calldatas\n    ) external returns (uint256) {\n        require(block.number > 0 && block.number < type(uint32).max);\n        uint32 blockNumber = uint32(block.number);\n\n        require(\n            note.getPriorVotes(msg.sender, blockNumber - 1) >= proposalThreshold,\n            \"GovernorAlpha::propose: proposer votes below proposal threshold\"\n        );\n        require(\n            targets.length == values.length && targets.length == calldatas.length,\n            \"GovernorAlpha::propose: proposal function information arity mismatch\"\n        );\n        require(targets.length != 0, \"GovernorAlpha::propose: must provide actions\");\n        require(\n            targets.length <= PROPOSAL_MAX_OPERATIONS,\n            \"GovernorAlpha::propose: too many actions\"\n        );\n\n        {\n            uint256 latestProposalId = latestProposalIds[msg.sender];\n            if (latestProposalId != 0) {\n                ProposalState proposersLatestProposalState = state(latestProposalId);\n                require(\n                    proposersLatestProposalState != ProposalState.Active,\n                    \"GovernorAlpha::propose: one live proposal per proposer, found an already active proposal\"\n                );\n                require(\n                    proposersLatestProposalState != ProposalState.Pending,\n                    \"GovernorAlpha::propose: one live proposal per proposer, found an already pending proposal\"\n                );\n            }\n        }\n\n        uint256 newProposalId = proposalCount + 1;\n        proposalCount = newProposalId;\n\n        uint32 startBlock = _add32(uint32(blockNumber), votingDelayBlocks);\n        uint32 endBlock = _add32(startBlock, votingPeriodBlocks);\n        bytes32 operationHash = _computeHash(targets, values, calldatas, newProposalId);\n\n        Proposal memory newProposal =\n            Proposal({\n                id: newProposalId,\n                proposer: msg.sender,\n                startBlock: startBlock,\n                endBlock: endBlock,\n                forVotes: 0,\n                againstVotes: 0,\n                canceled: false,\n                executed: false,\n                operationHash: operationHash\n            });\n\n        proposals[newProposal.id] = newProposal;\n        latestProposalIds[newProposal.proposer] = newProposal.id;\n\n        emit ProposalCreated(\n            newProposal.id,\n            msg.sender,\n            targets,\n            values,\n            calldatas,\n            startBlock,\n            endBlock\n        );\n        return newProposal.id;\n    }\n\n    /// @dev Helper method required to clear the stack for hashing operations\n    function _computeHash(\n        address[] calldata targets,\n        uint256[] calldata values,\n        bytes[] calldata calldatas,\n        uint256 proposalId\n    ) private pure returns (bytes32) {\n        return hashOperationBatch(targets, values, calldatas, bytes32(0), bytes32(proposalId));\n    }\n\n    /// @notice Adds a proposal to the timelock queue only after its vote has passed, `targets`,\n    /// `values`, and `calldatas` provided must hash back to the original proposal. All proposals\n    /// will automatically be delayed `getMinDelay()` seconds.\n    /// @param proposalId unique identifier for the proposal\n    /// @param targets an array of addresses to take actions on\n    /// @param values an array of ether amounts to send to respective target address\n    /// @param calldatas an array of calldata bytes to call respective target address with\n    /// @dev emit:ProposalQueued emit:CallScheduled (per call)\n    function queueProposal(\n        uint256 proposalId,\n        address[] calldata targets,\n        uint256[] calldata values,\n        bytes[] calldata calldatas\n    ) external {\n        require(state(proposalId) == ProposalState.Succeeded, \"Proposal must be success\");\n        bytes32 computedOperationHash = _computeHash(targets, values, calldatas, proposalId);\n        {\n            Proposal storage proposal = proposals[proposalId];\n            require(computedOperationHash == proposal.operationHash, \"Operation hash mismatch\");\n        }\n\n        _scheduleBatch(targets, values, calldatas, proposalId);\n\n        emit ProposalQueued(proposalId, getMinDelay());\n    }\n\n    /// @dev Required to clear the stack for calling the timelock controller\n    function _scheduleBatch(\n        address[] calldata targets,\n        uint256[] calldata values,\n        bytes[] calldata calldatas,\n        uint256 proposalId\n    ) private {\n        // NOTE: this will also emit events\n        this.scheduleBatch(\n            targets,\n            values,\n            calldatas,\n            bytes32(0),\n            bytes32(proposalId),\n            getMinDelay()\n        );\n    }\n\n    /// @notice Executes a proposal in the timelock queue after its delay has passed, `targets`,\n    /// `values`, and `calldatas` provided must hash back to the original proposal.\n    /// @param proposalId unique identifier for the proposal\n    /// @param targets an array of addresses to take actions on\n    /// @param values an array of ether amounts to send to respective target address\n    /// @param calldatas an array of calldata bytes to call respective target address with\n    /// @dev emit:ProposalExecuted emit:CallExecuted (per call)\n    function executeProposal(\n        uint256 proposalId,\n        address[] calldata targets,\n        uint256[] calldata values,\n        bytes[] calldata calldatas\n    ) external payable {\n        require(state(proposalId) == ProposalState.Queued, \"Proposal not queued\");\n\n        Proposal storage proposal = proposals[proposalId];\n        proposal.executed = true;\n\n        bytes32 computedOperationHash = _computeHash(targets, values, calldatas, proposalId);\n        require(computedOperationHash == proposal.operationHash, \"Operation hash mismatch\");\n        // Execute batch will revert if the call has not been scheduled\n        _executeBatch(targets, values, calldatas, proposalId);\n\n        emit ProposalExecuted(proposalId);\n    }\n\n    /// @dev Helper function to clear the stack for the timelock controller call\n    function _executeBatch(\n        address[] calldata targets,\n        uint256[] calldata values,\n        bytes[] calldata calldatas,\n        uint256 proposalId\n    ) private {\n        this.executeBatch(targets, values, calldatas, bytes32(0), bytes32(proposalId));\n    }\n\n    /// @notice Cancels a proposal after it has been created. Can only be done if the proposer\n    /// no longer has sufficient votes (i.e. they made a proposal and then sold their tokens) or\n    /// by a guardian address if it exists.\n    /// @param proposalId unique identifier for the proposal\n    /// @dev emit:ProposalCanceled emit:Canceled\n    function cancelProposal(uint256 proposalId) public {\n        ProposalState proposalState = state(proposalId);\n        require(proposalState != ProposalState.Executed, \"Proposal already executed\");\n\n        Proposal storage proposal = proposals[proposalId];\n        uint256 blockNumber = block.number;\n        require(blockNumber > 0 && blockNumber <= type(uint32).max);\n        require(\n            msg.sender == guardian ||\n                note.getPriorVotes(proposal.proposer, blockNumber - 1) < proposalThreshold,\n            \"GovernorAlpha::cancel: proposer above threshold\"\n        );\n\n        proposal.canceled = true;\n        // Removes the operation hash from the timelock controller if pending.\n        if (isOperationPending(proposal.operationHash)) this.cancel(proposal.operationHash);\n\n        emit ProposalCanceled(proposalId);\n    }\n\n    /// @notice Returns the voting receipt for a voter on a proposal\n    /// @param proposalId unique identifier for the proposal\n    /// @param voter address of the voter\n    /// @return the voting receipt for the voter and proposal\n    function getReceipt(uint256 proposalId, address voter) public view returns (Receipt memory) {\n        return receipts[proposalId][voter];\n    }\n\n    /// @notice Returns the current state of a proposal\n    /// @param proposalId unique identifier for the proposal\n    /// @return ProposalState enum for the current state of the proposal\n    function state(uint256 proposalId) public view returns (ProposalState) {\n        require(\n            proposalCount >= proposalId && proposalId > 0,\n            \"GovernorAlpha::state: invalid proposal id\"\n        );\n        Proposal memory proposal = proposals[proposalId];\n        uint256 blockNumber = block.number;\n        require(blockNumber > 0 && blockNumber <= type(uint32).max);\n\n        if (proposal.canceled) {\n            return ProposalState.Canceled;\n        } else if (blockNumber <= proposal.startBlock) {\n            return ProposalState.Pending;\n        } else if (blockNumber <= proposal.endBlock) {\n            return ProposalState.Active;\n        } else if (proposal.forVotes <= proposal.againstVotes || proposal.forVotes < quorumVotes) {\n            return ProposalState.Defeated;\n        } else if (proposal.executed) {\n            return ProposalState.Executed;\n        } else if (isOperationPending(proposal.operationHash)) {\n            return ProposalState.Queued;\n        } else if (\n            proposal.forVotes > proposal.againstVotes &&\n            proposal.forVotes > quorumVotes &&\n            blockNumber > proposal.endBlock\n        ) {\n            return ProposalState.Succeeded;\n        }\n    }\n\n    /// @notice Cast a vote for a proposal\n    /// @param proposalId unique identifier for the proposal\n    /// @param support true if votes are for the proposal, false if against\n    /// @dev emit:VoteCast\n    function castVote(uint256 proposalId, bool support) public {\n        return _castVote(msg.sender, proposalId, support);\n    }\n\n    /// @notice Cast a vote for a proposal via signature\n    /// @param proposalId unique identifier for the proposal\n    /// @param support true if votes are for the proposal, false if against\n    /// @param v signature component\n    /// @param r signature component\n    /// @param s signature component\n    /// @dev emit:VoteCast\n    function castVoteBySig(\n        uint256 proposalId,\n        bool support,\n        uint8 v,\n        bytes32 r,\n        bytes32 s\n    ) public {\n        bytes32 domainSeparator =\n            keccak256(\n                abi.encode(DOMAIN_TYPEHASH, keccak256(bytes(name)), _getChainId(), address(this))\n            );\n        bytes32 structHash = keccak256(abi.encode(BALLOT_TYPEHASH, proposalId, support));\n        bytes32 digest = keccak256(abi.encodePacked(\"\\x19\\x01\", domainSeparator, structHash));\n        // ECDSA.recover will check if address is zero\n        address signatory = ECDSA.recover(digest, v, r, s);\n        return _castVote(signatory, proposalId, support);\n    }\n\n    /// @dev Registers a vote, calls the NOTE token to get the voting power for the voter\n    function _castVote(\n        address voter,\n        uint256 proposalId,\n        bool support\n    ) internal {\n        require(\n            state(proposalId) == ProposalState.Active,\n            \"GovernorAlpha::_castVote: voting is closed\"\n        );\n        Proposal storage proposal = proposals[proposalId];\n        Receipt storage receipt = receipts[proposalId][voter];\n        require(receipt.hasVoted == false, \"GovernorAlpha::_castVote: voter already voted\");\n        uint96 votes = note.getPriorVotes(voter, proposal.startBlock);\n        // Short circuit if voter has no votes\n        if (votes == 0) return;\n\n        if (support) {\n            proposal.forVotes = _add96(proposal.forVotes, votes);\n        } else {\n            proposal.againstVotes = _add96(proposal.againstVotes, votes);\n        }\n\n        receipt.hasVoted = true;\n        receipt.support = support;\n        receipt.votes = votes;\n\n        emit VoteCast(voter, proposalId, support, votes);\n    }\n\n    /// @notice Updates the quorum votes required, can only be executed via a proposal\n    /// @param newQuorumVotes new quorum votes required\n    /// @dev emit:UpdateQuorumVotes\n    function updateQuorumVotes(uint96 newQuorumVotes) external {\n        require(msg.sender == address(this), \"Unauthorized caller\");\n        quorumVotes = newQuorumVotes;\n        emit UpdateQuorumVotes(newQuorumVotes);\n    }\n\n    /// @notice Updates the proposal threshold required, can only be executed via a proposal\n    /// @param newProposalThreshold new proposal threshold\n    /// @dev emit:UpdateProposalThreshold\n    function updateProposalThreshold(uint96 newProposalThreshold) external {\n        require(msg.sender == address(this), \"Unauthorized caller\");\n        proposalThreshold = newProposalThreshold;\n        emit UpdateProposalThreshold(newProposalThreshold);\n    }\n\n    /// @notice Updates the voting delay blocks required, can only be executed via a proposal\n    /// @param newVotingDelayBlocks new voting delay blocks\n    /// @dev emit:UpdateVotingDelayBlocks\n    function updateVotingDelayBlocks(uint32 newVotingDelayBlocks) external {\n        require(msg.sender == address(this), \"Unauthorized caller\");\n        votingDelayBlocks = newVotingDelayBlocks;\n        emit UpdateVotingDelayBlocks(newVotingDelayBlocks);\n    }\n\n    /// @notice Updates the voting period blocks required, can only be executed via a proposal\n    /// @param newVotingPeriodBlocks new voting period blocks\n    /// @dev emit:UpdateVotingPeriodBlocks\n    function updateVotingPeriodBlocks(uint32 newVotingPeriodBlocks) external {\n        require(msg.sender == address(this), \"Unauthorized caller\");\n        require(newVotingPeriodBlocks >= MIN_VOTING_PERIOD_BLOCKS, \"Below min voting period\");\n        votingPeriodBlocks = newVotingPeriodBlocks;\n        emit UpdateVotingPeriodBlocks(newVotingPeriodBlocks);\n    }\n\n    /// @dev Hidden public method\n    function __abdicate() external {\n        require(msg.sender == guardian, \"GovernorAlpha::__abdicate: sender must be gov guardian\");\n        guardian = address(0);\n        emit Abdicate();\n    }\n\n    /// @notice Transfers guardian role to a new guardian\n    /// @param newGuardian address to transfer role to\n    function __transferGuardian(address newGuardian) external {\n        require(\n            msg.sender == guardian,\n            \"GovernorAlpha::__transferGuardian: sender must be gov guardian\"\n        );\n        require(newGuardian != address(0), \"Cannot transfer to zero address\");\n\n        guardian = newGuardian;\n        emit TransferGuardian(newGuardian);\n    }\n\n    /// @dev Overflow check for adding votes\n    function _add96(uint96 a, uint96 b) private pure returns (uint96) {\n        uint96 c = a + b;\n        require(c >= a, \"addition overflow\");\n        return c;\n    }\n\n    /// @dev Overflow check for adding block numbers\n    function _add32(uint32 a, uint32 b) private pure returns (uint32) {\n        uint32 c = a + b;\n        require(c >= a, \"addition overflow\");\n        return c;\n    }\n\n    /// @dev Helper method for signature check\n    function _getChainId() private pure returns (uint256) {\n        uint256 chainId;\n        assembly {\n            chainId := chainid()\n        }\n        return chainId;\n    }\n}\n","sourcePath":"contracts/external/governance/GovernorAlpha.sol","type":"contract","deployment":{"address":"0x086b4ecD75c494dD36641195E89c25373E06d7cB","chainid":"1","blockHeight":13493339}}