{"abi":[{"anonymous":false,"inputs":[{"indexed":true,"internalType":"address","name":"owner","type":"address"},{"indexed":true,"internalType":"address","name":"spender","type":"address"},{"indexed":false,"internalType":"uint256","name":"amount","type":"uint256"}],"name":"Approval","type":"event"},{"anonymous":false,"inputs":[{"indexed":true,"internalType":"address","name":"from","type":"address"},{"indexed":true,"internalType":"address","name":"to","type":"address"},{"indexed":false,"internalType":"uint256","name":"amount","type":"uint256"}],"name":"Transfer","type":"event"},{"inputs":[{"internalType":"uint16","name":"currencyId","type":"uint16"},{"internalType":"address","name":"account","type":"address"}],"name":"nTokenBalanceOf","outputs":[{"internalType":"uint256","name":"","type":"uint256"}],"stateMutability":"view","type":"function"},{"inputs":[],"name":"nTokenClaimIncentives","outputs":[{"internalType":"uint256","name":"","type":"uint256"}],"stateMutability":"nonpayable","type":"function"},{"inputs":[{"internalType":"uint16","name":"currencyId","type":"uint16"}],"name":"nTokenPresentValueAssetDenominated","outputs":[{"internalType":"int256","name":"","type":"int256"}],"stateMutability":"view","type":"function"},{"inputs":[{"internalType":"uint16","name":"currencyId","type":"uint16"}],"name":"nTokenPresentValueUnderlyingDenominated","outputs":[{"internalType":"int256","name":"","type":"int256"}],"stateMutability":"view","type":"function"},{"inputs":[{"internalType":"address","name":"nTokenAddress","type":"address"}],"name":"nTokenTotalSupply","outputs":[{"internalType":"uint256","name":"totalSupply","type":"uint256"}],"stateMutability":"view","type":"function"},{"inputs":[{"internalType":"uint16","name":"currencyId","type":"uint16"},{"internalType":"address","name":"from","type":"address"},{"internalType":"address","name":"to","type":"address"},{"internalType":"uint256","name":"amount","type":"uint256"}],"name":"nTokenTransfer","outputs":[{"internalType":"bool","name":"","type":"bool"}],"stateMutability":"nonpayable","type":"function"},{"inputs":[{"internalType":"uint16","name":"currencyId","type":"uint16"},{"internalType":"address","name":"tokenHolder","type":"address"},{"internalType":"address","name":"spender","type":"address"}],"name":"nTokenTransferAllowance","outputs":[{"internalType":"uint256","name":"","type":"uint256"}],"stateMutability":"view","type":"function"},{"inputs":[{"internalType":"uint16","name":"currencyId","type":"uint16"},{"internalType":"address","name":"tokenHolder","type":"address"},{"internalType":"address","name":"spender","type":"address"},{"internalType":"uint256","name":"amount","type":"uint256"}],"name":"nTokenTransferApprove","outputs":[{"internalType":"bool","name":"","type":"bool"}],"stateMutability":"nonpayable","type":"function"},{"inputs":[{"internalType":"address","name":"spender","type":"address"},{"internalType":"uint256","name":"amount","type":"uint256"}],"name":"nTokenTransferApproveAll","outputs":[{"internalType":"bool","name":"","type":"bool"}],"stateMutability":"nonpayable","type":"function"},{"inputs":[{"internalType":"uint16","name":"currencyId","type":"uint16"},{"internalType":"address","name":"spender","type":"address"},{"internalType":"address","name":"from","type":"address"},{"internalType":"address","name":"to","type":"address"},{"internalType":"uint256","name":"amount","type":"uint256"}],"name":"nTokenTransferFrom","outputs":[{"internalType":"bool","name":"","type":"bool"}],"stateMutability":"nonpayable","type":"function"},{"inputs":[],"name":"owner","outputs":[{"internalType":"address","name":"","type":"address"}],"stateMutability":"view","type":"function"},{"inputs":[],"name":"pauseGuardian","outputs":[{"internalType":"address","name":"","type":"address"}],"stateMutability":"view","type":"function"},{"inputs":[],"name":"pauseRouter","outputs":[{"internalType":"address","name":"","type":"address"}],"stateMutability":"view","type":"function"}],"bytecode":"608060405234801561001057600080fd5b50614a8a806100206000396000f3fe608060405234801561001057600080fd5b50600436106100cf5760003560e01c80636a96e86f1161008c578063884a709211610066578063884a7092146101995780638da5cb5b146101ac578063a78dbfff146101b4578063daca07a6146101c7576100cf565b80636a96e86f1461016b5780637db31ab91461017e5780638246336714610191576100cf565b806318ae40d7146100d45780631a05bce1146100fd57806324a3d6221461011d5780632e0ecba814610132578063309c00a6146101455780633b2987b314610158575b600080fd5b6100e76100e23660046146b7565b6101cf565b6040516100f491906147c0565b60405180910390f35b61011061010b3660046145cf565b610265565b6040516100f491906147cb565b61012561027b565b6040516100f49190614703565b6100e76101403660046144ee565b61028a565b6100e76101533660046146b7565b6102f5565b6101106101663660046145cf565b610381565b6101106101793660046144d4565b6103a4565b61011061018c366004614616565b6103b8565b610125610429565b6100e76101a736600461465a565b610438565b6101256105cc565b6101106101c23660046145eb565b6105e3565b610110610607565b6000806101df8661ffff166106c7565b9050336001600160a01b038216146102125760405162461bcd60e51b8152600401610209906148aa565b60405180910390fd5b836001600160a01b0316856001600160a01b031614156102445760405162461bcd60e51b815260040161020990614970565b61024d846106ed565b6102598686868661073c565b9150505b949350505050565b600080610271836108f7565b509150505b919050565b6002546001600160a01b031681565b3360008181526004602090815260408083206001600160a01b038716808552925280832085905551919290917f8c5be1e5ebec7d5bd14f71427d1e84f3dd0314c0f7b2291e5b200ac8c7c3b925906102e39086906147cb565b60405180910390a35060015b92915050565b6000806103058661ffff166106c7565b9050336001600160a01b0382161461032f5760405162461bcd60e51b8152600401610209906148aa565b6001600160a01b03851661034257600080fd5b50506001600160a01b03928316600090815260056020908152604080832094909516825292835283812061ffff95909516815293909152912055600190565b600080600061038f846108f7565b805160400151919350915061025d908361092c565b60006103af8261095d565b50909392505050565b6001600160a01b038083166000908152600560209081526040808320938516835292815282822061ffff8716835290529081205480156103f9579050610422565b50506001600160a01b038083166000908152600460209081526040808320938516835292905220545b9392505050565b6001546001600160a01b031681565b6000806104488761ffff166106c7565b9050336001600160a01b038216146104725760405162461bcd60e51b8152600401610209906148aa565b836001600160a01b0316856001600160a01b031614156104a45760405162461bcd60e51b815260040161020990614970565b6104ad846106ed565b6001600160a01b038086166000908152600560209081526040808320938a16835292815282822061ffff8b16835290522054801561054057838110156105055760405162461bcd60e51b81526004016102099061487a565b6001600160a01b038087166000908152600560209081526040808320938b16835292815282822061ffff8c16835290522084820390556105b2565b506001600160a01b038086166000908152600460209081526040808320938a1683529290522054838110156105875760405162461bcd60e51b81526004016102099061487a565b6001600160a01b038087166000908152600460209081526040808320938b1683529290522084820390555b6105be8887878761073c565b925050505b95945050505050565b60005464010000000090046001600160a01b031681565b6000806105f4838561ffff166109b9565b5050915050600081121561042257600080fd5b6000338161061482610a42565b9050600061062061426f565b61062983610ae3565b1561065b576060830151610641908290869086610af0565b60008160400151131561065b576106588185610b96565b91505b60808301515b6001600160701b03198116156106bd5760f081901c613fff1661068683878388610af0565b6000836040015113156106aa576106a76106a08488610b96565b8590610bcc565b93505b5060101b6001600160801b031916610661565b5090935050505090565b6000806106d2610c26565b6000938452602052505060409020546001600160a01b031690565b6001600160a01b03811661070057600080fd5b6001600160a01b03811630141561071657600080fd5b600061072182610c33565b5050505061ffff1690508060001461073857600080fd5b5050565b60008061074883610c9c565b9050600061075586610a42565b905061076081610ce4565b156107f1576040516337b5fc2160e11b815273__SettleAssetsExternal__________________90636f6bf8429061079e908990859060040161473b565b60a06040518083038186803b1580156107b657600080fd5b505af41580156107ca573d6000803e3d6000fd5b505050506040513d601f19601f820116820180604052508101906107ee919061452f565b90505b6107f961426f565b61080581888a85610af0565b61080e83610d38565b60a08201526108208188846000610d46565b5061082b8288610fb7565b600061083687610a42565b905061084061426f565b61084c81898c85610af0565b60a081018590526108608189846000610d46565b5061086b8289610fb7565b60208401516001600160f81b031916156108e757604051636ccc642f60e01b815273__FreeCollateralExternal________________90636ccc642f906108b6908c90600401614703565b60006040518083038186803b1580156108ce57600080fd5b505af41580156108e2573d6000803e3d6000fd5b505050505b5060019998505050505050505050565b60006109016142bf565b4261090a6142bf565b61091481866110bb565b600061092082846110d4565b94509092505050915091565b60008061025d84604001516109576402540be4006109578789602001516111bb90919063ffffffff16565b90611209565b60008060008061096b61123a565b6001600160a01b0395909516600090815260209590955250506040909220546001600160601b03811693600160601b82046001600160801b03169350600160e01b90910463ffffffff169150565b60008060008060006109c9611247565b6001600160a01b0388166000908152602082815260408083208a8452909152902080546001600160501b0381169650600160501b810463ffffffff16955091925090610a2490600160701b900466ffffffffffffff16611254565b9054600160a81b9004600a90810b900b989497509295509193505050565b610a4a614308565b6000610a54611262565b6001600160a01b039390931660009081526020938452604090819020815160a081018352905464ffffffffff8116825265010000000000810460f81b6001600160f81b03191695820195909552600160301b850460ff1691810191909152600160381b840461ffff166060820152600160481b90930460701b6001600160701b03191660808401525090919050565b6060015161ffff16151590565b8161ffff166000108015610b0a5750613fff61ffff831611155b610b1357600080fd5b61ffff8216808552610b2690829061126f565b15610b5357610b39838361ffff166109b9565b61010088015260e087015260408601526020850152610b71565b6000602085018190526040850181905260e085018190526101008501525b50506000606083018190526080830181905260a0830181905260c09092019190915250565b600080610ba384846112f9565b905061042283856000015161ffff16866020015187604001518860e0015189610100015161136a565b600082820183811015610422576040805162461bcd60e51b815260206004820152601b60248201527f536166654d6174683a206164646974696f6e206f766572666c6f770000000000604482015290519081900360640190fd5b6000806102ef6003611488565b600080600080600080610c446114a1565b6001600160a01b039097166000908152602097909752505060409094205461ffff81169563ffffffff62010000830481169650600160301b830416945060ff600160501b8304169350600160581b90910460d81b9150565b6000600160ff1b8210610ce05760405162461bcd60e51b8152600401808060200182810382526028815260200180614a2d6028913960400191505060405180910390fd5b5090565b600042610cf083610ae3565b15610d1157610cfe816114ae565b835164ffffffffff161091506102769050565b825164ffffffffff1615801590610d305750825164ffffffffff168110155b915050610276565b60006102ef600019836111bb565b60008060008660a001511215610d9f576000610d818760a00151610d7b8960c001518a604001516114cf90919063ffffffff16565b906114cf565b1215610d9f5760405162461bcd60e51b8152600401610209906149a7565b600086608001511215610def576000610dd18760800151610d7b89606001518a602001516114cf90919063ffffffff16565b1215610def5760405162461bcd60e51b81526004016102099061494e565b610dfa8686856114e5565b608088018190526060880151919350600091610e15916114cf565b90508015610e82576020870151610e2c90826114cf565b602088015286516040516001935061ffff909116906001600160a01b038816907f5441e4a5fac93a951d782e6f1cdb82e95c8fc58561a013953d17e395c5e69b4b90610e799085906147cb565b60405180910390a35b60a0870151151580610e97575060c087015115155b15610f2d57610ea687876112f9565b50610eca8760c00151610d7b8960a001518a604001516114cf90919063ffffffff16565b604088015260c087015115610f2857866000015161ffff16866001600160a01b03167f412bc13d202a2ea5119e55fec9c5e420dddb18faf186373ad9795ad4f4545aa98960c00151604051610f1f91906147cb565b60405180910390a35b600191505b8115610f5a57610f5a86886000015161ffff1689602001518a604001518b60e001518c610100015161136a565b86516020880151610f879161ffff1690151580610f7a5750604089015115155b879190600160fe1b6115ba565b600087602001511215610fad57602085018051600160f91b176001600160f81b03191690525b5050949350505050565b6000610fc1611262565b6001600160a01b03831660008181526020838152604080832088518154938a0151838b015160608c015160808d015160701c600160481b027affffffffffffffffffffffffffffffffffff0000000000000000001961ffff909216600160381b0268ffff000000000000001960ff94909416600160301b0266ff0000000000001960f89690961c650100000000000265ff00000000001964ffffffffff90981664ffffffffff19909b169a909a1796909616989098179390931693909317169490941716929092179091555192935090917f6bd4b121bca854a191536a2ca891155c42ee2fb23f307fb34e8bc65cfcb5412e9190a2505050565b6110c582826117c1565b6110ce81611864565b90915250565b6000806000806110e386611887565b90508481116110f3576001810394505b506110fc614336565b60005b602087015151518110156111525760008061112b838a60000151868c60200151600001518c60006118b1565b909250905061113a86836114cf565b955061114685826114cf565b945050506001016110ff565b5050600061117d8660c0015187600001516000015161ffff168860800151888a6000015160006119f9565b50905061118a82826114cf565b60608701518751604001519193506111b191610d7b906111aa9086611a85565b86906114cf565b9695505050505050565b8181026000198314156111eb578115806111dd5750828282816111da57fe5b05145b6111e657600080fd5b6102ef565b8215806112005750818382816111fd57fe5b05145b6102ef57600080fd5b60008160001914801561121f5750600160ff1b83145b1561122957600080fd5b81838161123257fe5b059392505050565b6000806102ef600e611488565b6000806102ef6006611488565b600881901c60ff9091161b90565b6000806102ef6001611488565b600081158015906112825750613fff8211155b61128b57600080fd5b6080830151606084015161ffff168314156112aa5760019150506102ef565b6001600160701b03198116156112ef5760f081901c613fff16838114156112dc5750600160fe1b9081161490506102ef565b5060101b6001600160801b0319166112aa565b5060009392505050565b81516000904290829061130f9061ffff166106c7565b90506000611322828760c0015185611ab6565b90506000611349836113378960400151611b8f565b8960e001518a61010001518887611b9e565b60e088018590526101008801839052905080156111b1576111b18682611c45565b6000611374611247565b6001600160a01b0388166000908152602082815260408083208a845290915290209091506a7fffffffffffffffffffff1986128015906113bf57506a7fffffffffffffffffffff8613155b6113c857600080fd5b600085121580156113e057506001600160501b038513155b6113e957600080fd5b63ffffffff8411156113fa57600080fd5b805469ffffffffffffffffffff19166001600160501b0386161763ffffffff60501b1916600160501b63ffffffff861602176001600160a81b0316600160a81b6affffffffffffffffffffff600a89900b160217815561145983611c64565b815466ffffffffffffff91909116600160701b0266ffffffffffffff60701b1990911617905550505050505050565b6000620f424082601081111561149a57fe5b0192915050565b6000806102ef6002611488565b6000620151808210156114c057600080fd5b62015180825b06909103919050565b818101828112156000831215146102ef57600080fd5b60008060006114fb866000015161ffff16611c92565b90506000611516876080015183611ca590919063ffffffff16565b90508061152b576000809350935050506115b2565b8480156115385750600081125b15611595576000611550886000015161ffff16611cdd565b905060006115698261156185610d38565b869190611cf0565b90506115808861157883610d38565b849190611f0e565b955061158c8484611fb2565b945050506115af565b6115a0828783611f0e565b93506115ac8285611fb2565b92505b50505b935093915050565b8260001080156115cc5750613fff8311155b6115d557600080fd5b8180156115e9575082846060015161ffff16145b156115f3576117bb565b6080840151600090815b6001600160701b03198216156117755760f082901c613fff1686811480156116225750855b1561165a57506080870180516001600160f01b0319861660109093029290921c919091176001600160701b0319169052506117bb9050565b8681148015611667575085155b156116c3576001600160f01b03198516199290921691600360fe1b83166116a1576010836dffffffffffffffffffffffffffff1916901b92505b506001600160701b031991821660109091021c919091171660808501526117bb565b86811180156116cf5750855b15611729576080888101516001600160f01b031960f08a901b88178116601086021c9690961795911b161561170357600080fd5b506001600160701b03199182166001919091016010021c919091171660808501526117bb565b8681118015611736575085155b1561174457505050506117bb565b506001600160f01b0319821660108281029190911c93909317929190911b6001600160801b031916906001016115fd565b84611782575050506117bb565b6009811061178f57600080fd5b6001600160f01b031960f087901b85171660109091021c919091176001600160701b0319166080860152505b50505050565b6117ce8161ffff166106c7565b6001600160a01b031660c08301819052600090819081906117ee90610c33565b945094509450505060006118058660c0015161095d565b505060808701859052604087018190526001600160d81b0319831660a088015260c087015190915061183990846000611fe2565b602087015260c08601516118519061ffff87166109b9565b5050506060909601959095525050505050565b61186c61437e565b600061187b8361ffff16612075565b905061042283826120c1565b600081608001516000141561189e57506000610276565b60808201516276a7009061149a90612104565b60008060008589815181106118c257fe5b602002602001015190506000806118e28a60200151846020015189612120565b9150915080156118f157600080fd5b6118ff8a8a8460018b6121e0565b5050600080851561191f57611915838a8c61225b565b909250905061192f565b611929838a6122f4565b90925090505b8a156119ac5760008860018d038151811061194657fe5b60200260200101519050600160ff168160400151148015611968575083518151145b801561197b575083602001518160200151145b156119aa57606081015161198f90836114cf565b6060820152600360a090910152509250600091506119ee9050565b505b85156119d85760006119c98b8386602001518b8e60c0015161236f565b9295509193506119ee92505050565b60006119c98285602001518a8d60c00151612403565b965096945050505050565b6000806000611a088989612449565b90506000611a158261247e565b90505b8015611a78576000611a2a89836124a3565b90506000611a3c8c8c848c8c8c612556565b9050611a4886826114cf565b95506000811215611a5857600194505b611a64848460006125ab565b9350611a6f8461247e565b92505050611a18565b5050965096945050505050565b60008061025d84602001516109578660400151611ab06402540be400886111bb90919063ffffffff16565b906111bb565b6000806000611ac586856125f6565b5091509150846000146105c3576000611ade83876114cf565b905060008112158015611af757506001600160601b0381105b611b0057600080fd5b6000611b0a61123a565b6001600160a01b03891660009081526020919091526040902080546bffffffffffffffffffffffff19166001600160601b0393909316929092176fffffffffffffffffffffffffffffffff60601b1916600160601b6001600160801b03851602176001600160e01b0316600160e01b63ffffffff881602179091555095945050505050565b600080821215610ce057600080fd5b6000841580611bad5750828510155b15611bba575060006111b1565b6000611bc588610c33565b50919350505086850390506000611be982611be4856305f5e100612662565b6126bb565b90506000611c0183611bfb888b6126e0565b9061273d565b905080611c155760009450505050506111b1565b6000611c2582611bfb8d86612662565b9050611c35816305f5e10061273d565b9c9b505050505050505050505050565b61073873cfeaead4947f0705a14ec42ac3d44129e1ef3ed583836127a4565b60008065ffffffffffff831115611c8457602f611c8084612811565b0390505b82811c60081b179050919050565b611c9a6143aa565b6102ef8260006128aa565b60006305f5e10083604001511415611cbe5750806102ef565b6104226305f5e1006109578560400151856111bb90919063ffffffff16565b611ce56143aa565b6102ef8260016128aa565b600080600285606001516004811115611d0557fe5b1415611d12575047611dac565b600185606001516004811115611d2457fe5b14156100cf5783516040516370a0823160e01b81526001600160a01b03909116906370a0823190611d59903090600401614703565b60206040518083038186803b158015611d7157600080fd5b505afa158015611d85573d6000803e3d6000fd5b505050506040513d601f19601f82011682018060405250810190611da99190614517565b90505b845160405163db006a7560e01b81526000916001600160a01b03169063db006a7590611ddc9087906004016147cb565b602060405180830381600087803b158015611df657600080fd5b505af1158015611e0a573d6000803e3d6000fd5b505050506040513d601f19601f82011682018060405250810190611e2e9190614517565b90508015611e4e5760405162461bcd60e51b815260040161020990614804565b6000600287606001516004811115611e6257fe5b1415611e6f575047611ef1565b85516040516370a0823160e01b81526001600160a01b03909116906370a0823190611e9e903090600401614703565b60206040518083038186803b158015611eb657600080fd5b505afa158015611eca573d6000803e3d6000fd5b505050506040513d601f19601f82011682018060405250810190611eee9190614517565b90505b611f03611efe82856126e0565b612958565b979650505050505050565b600080821315611f2a57611f2384848461296e565b9150611fab565b600384606001516004811115611f3c57fe5b1415611f96576000821315611f5057600080fd5b826001600160a01b0381166108fc611f6785610d38565b6040518115909202916000818181858888f19350505050158015611f8f573d6000803e3d6000fd5b5050611fab565b8351611fab9084611fa685610d38565b6127a4565b5092915050565b60006305f5e10083604001511415611fcb5750806102ef565b604083015161042290610957846305f5e1006111bb565b611fea6143d9565b611ff26143d9565b60ff8416612001579050610422565b61200b8585612b0b565b815260ff841660608201528267ffffffffffffffff8111801561202d57600080fd5b5060405190808252806020026020018201604052801561206757816020015b612054614401565b81526020019060019003908161204c5790505b506020820152949350505050565b61207d614441565b600080600061208b85612b34565b604080516060810182526001600160a01b039093168352602083019390935260ff16600a0a918101919091529350505050919050565b6120c961437e565b60006120d88461ffff16612bf5565b6040805160808101825261ffff96909616865260ff821660208701528501939093525050606082015290565b60006276a70082101561211657600080fd5b6276a700826114c6565b600080600085116121435760405162461bcd60e51b815260040161020990614824565b60078511156121645760405162461bcd60e51b8152600401610209906148d7565b600061216f84612104565b905060015b8681116121c757600061219061218983612c12565b8490610bcc565b9050868114156121a857509250600091506115b29050565b868111156121be57509250600191506115b29050565b50600101612174565b5060405162461bcd60e51b8152600401610209906149cb565b826001111580156121f5575084602001518311155b6122115760405162461bcd60e51b815260040161020990614907565b600061222e61221f85612c12565b61222884612104565b90610bcc565b9050612253866000015161ffff168284866122488b612cb6565b8a9493929190612cca565b505050505050565b60008061226b8560400151612cf4565b801561227c57506000856060015112155b61228557600080fd5b8251855161ffff9091161461229957600080fd5b60006122b2866040015185612d0a90919063ffffffff16565b60ff1690506122cf85606001518760600151838860800151612d3f565b92506122e985604001518760600151838860800151612d3f565b915050935093915050565b6000806123048460400151612cf4565b801561231557506000846060015112155b61231e57600080fd5b6123418360800151610957866060015186606001516111bb90919063ffffffff16565b91506123668360800151610957866060015186604001516111bb90919063ffffffff16565b90509250929050565b60008461237e575060006105c3565b600061238a85856126e0565b90506000808713156123b9576123b2826123ad6123a68b612d56565b8790610bcc565b612d6b565b90506123e8565b60006123c489612dd8565b90508481106123d8578793505050506105c3565b6123e483828703612d6b565b9150505b633b9aca008113156123f957600080fd5b6105be8782612ded565b6000846124125750600061025d565b600061241e85856126e0565b9050600061242c8285612d6b565b9050633b9aca0081131561243f57600080fd5b611f038782612ded565b600080612454612e06565b6001600160a01b038516600090815260209182526040808220868352909252205491505092915050565b60008161248d57506000610276565b61249682612811565b60ff036001019050919050565b6000816124af57600080fd5b6101008211156124be57600080fd5b60006124c9846114ae565b90506000605a84116124e457506201518083020190506102ef565b6087841161250c575060591983016207e900908102908206909103016276a7000190506102ef565b60c384116125355750608619830162278d00908102908206909103016301da9c000190506102ef565b5060c21983016276a70090810290820690910301630b1fa8000190506102ef565b600080612564888888612e13565b90508486116125745790506111b1565b6000612581858888612e58565b9050831561259f57612596858389898561236f565b925050506111b1565b61259682888884612403565b6000600183101580156125c057506101008311155b6125c957600080fd5b81156125e25750600160ff1b60001983011c8317610422565b50600160ff1b60001983011c198316610422565b60008060006126048561095d565b91945092509050806126135750825b8084101561262057600080fd5b61263661262f848387036111bb565b83906114cf565b91506001600160801b03821061264b57600080fd5b63ffffffff841061265b57600080fd5b9250925092565b600082612671575060006102ef565b8282028284828161267e57fe5b04146104225760405162461bcd60e51b8152600401808060200182810382526021815260200180614a0c6021913960400191505060405180910390fd5b6000806126d46301da9c00611bfb866305f5e100612662565b905061025d8184612662565b600082821115612737576040805162461bcd60e51b815260206004820152601e60248201527f536166654d6174683a207375627472616374696f6e206f766572666c6f770000604482015290519081900360640190fd5b50900390565b6000808211612793576040805162461bcd60e51b815260206004820152601a60248201527f536166654d6174683a206469766973696f6e206279207a65726f000000000000604482015290519081900360640190fd5b81838161279c57fe5b049392505050565b60405163a9059cbb60e01b81526001600160a01b0384169063a9059cbb906127d290859085906004016147a7565b600060405180830381600087803b1580156127ec57600080fd5b505af1158015612800573d6000803e3d6000fd5b5050505061280c612f48565b505050565b60008161281d57600080fd5b600160801b821061283057608091821c91015b600160401b821061284357604091821c91015b640100000000821061285757602091821c91015b62010000821061286957601091821c91015b610100821061287a57600891821c91015b6010821061288a57600491821c91015b6004821061289a57600291821c91015b6002821061027657600101919050565b6128b26143aa565b60006128bc612f98565b6000858152602082815260408083208715158452825291829020825160a08101845281546001600160a01b038116825260ff600160a01b82048116151594830194909452600160b01b81048416600a0a9482019490945293945092916060830191600160a81b90910416600481111561293157fe5b81529154600160b81b900468ffffffffffffffffff16602090920191909152949350505050565b60006001600160ff1b03821115610ce057600080fd5b60008060008560200151156129ff5785516040516370a0823160e01b81526001600160a01b03909116906370a08231906129ac903090600401614703565b60206040518083038186803b1580156129c457600080fd5b505afa1580156129d8573d6000803e3d6000fd5b505050506040513d601f19601f820116820180604052508101906129fc9190614517565b91505b8551612a0c908686612fa5565b856020015180612a20575060008660800151115b15612aa75785516040516370a0823160e01b81526001600160a01b03909116906370a0823190612a54903090600401614703565b60206040518083038186803b158015612a6c57600080fd5b505afa158015612a80573d6000803e3d6000fd5b505050506040513d601f19601f82011682018060405250810190612aa49190614517565b90505b608086015115612ae2576000612ac587612ac084612958565b611fb2565b9050612ad48760800151612958565b811315612ae057600080fd5b505b856020015115612b0257612af9611efe82846126e0565b92505050610422565b612af984612958565b60606000612b198484612fd5565b90506001815111612b2b5790506102ef565b610422816130f7565b6000806000806000612b45866132b0565b909250905060006001600160a01b038316612b6a5750600090506402540be400612bea565b826001600160a01b031663b2fffb046040518163ffffffff1660e01b815260040160206040518083038186803b158015612ba357600080fd5b505afa158015612bb7573d6000803e3d6000fd5b505050506040513d601f19601f82011682018060405250810190612bdb9190614517565b905060008113612bea57600080fd5b969195509350915050565b600080612c006132e7565b60009384526020525050604090205490565b60008160011415612c2757506276a700610276565b8160021415612c3a575062ed4e00610276565b8160031415612c4e57506301da9c00610276565b8160041415612c6257506303b53800610276565b8160051415612c7657506309450c00610276565b8160061415612c8a575063128a1800610276565b8160071415612c9e57506325143000610276565b60405162461bcd60e51b815260040161020990614853565b6060015161012c60089190911c60ff160290565b60006276a700612cd985612104565b019050612ceb878787878787876132f4565b50505050505050565b6000600282108015906102ef5750506008101590565b600060028210801590612d1e575060088211155b612d2757600080fd5b50606082015160486008600119840102011c92915050565b60006105c38261095760648187611ab08b8b6111bb565b606001516207a12060289190911c60ff160290565b600080612d88612d836301da9c00611bfb8688612662565b61332b565b9050612d9a81621dcd6560491b613349565b9050612dad612da88261339c565b6133be565b9050612dbf81621dcd6560491b613413565b90506000612dcc82613449565b60070b95945050505050565b606001516207a12060209190911c60ff160290565b6000610422612dfc84846111bb565b633b9aca00611209565b6000806102ef600b611488565b600080612e1e613452565b6001600160a01b03861660009081526020918252604080822087835283528082208683529092522054600f90810b900b9150509392505050565b6000806000612e6c86602001518686612120565b915091506000612e7b87612cb6565b905081612e9e578651612e949061ffff1687838861345f565b9350505050610422565b6000612ea986612104565b90506000612ec0612eb986612c12565b8390610bcc565b90506000612ed88a6000015161ffff1683868b61345f565b90506000808760011415612efd57899150612ef68c604001516134fe565b9050612f2c565b612f13612f0c60018a03612c12565b8690610bcc565b9150612f298c6000015161ffff1683888d61345f565b90505b612f39828583868f61358f565b98505050505050505050610422565b6000612f5261446b565b3d8015612f665760208114612f6f57600080fd5b60019250612f7a565b60206000833e815192505b50816107385760405162461bcd60e51b81526004016102099061492f565b6000806102ef6007611488565b6040516323b872dd60e01b81526001600160a01b038416906323b872dd906127d290859030908690600401614717565b606060108260ff161115612fe857600080fd5b6000612ff26135ed565b6001600160a01b038516600090815260208290526040812091925060ff851667ffffffffffffffff8111801561302757600080fd5b5060405190808252806020026020018201604052801561306157816020015b61304e614401565b8152602001906001900390816130465790505b50905060005b8560ff168110156130ed57600083826010811061308057fe5b019050600083838151811061309157fe5b602090810291909101810151835461ffff8116825264ffffffffff620100008204169282019290925260ff600160381b8304166040820152600160401b909104600a90810b900b60608201526080019190915250600101613067565b5095945050505050565b805160008167ffffffffffffffff8111801561311257600080fd5b5060405190808252806020026020018201604052801561313c578160200160208202803683370190505b50905060005b8281101561319957600084828151811061315857fe5b602002602001015190506131798160000151826020015183604001516135fa565b83838151811061318557fe5b602090810291909101015250600101613142565b5060015b828110156117bb57805b6000811180156131df57508281815181106131be57fe5b60200260200101518360018303815181106131d557fe5b6020026020010151115b156132a7578281815181106131f057fe5b602002602001015183600183038151811061320757fe5b602002602001015184600184038151811061321e57fe5b6020026020010185848151811061323157fe5b602002602001018281525082815250505084818151811061324e57fe5b602002602001015185600183038151811061326557fe5b602002602001015186600184038151811061327c57fe5b6020026020010187848151811061328f57fe5b602090810291909101019190915252600019016131a7565b5060010161319d565b60008060006132bd613655565b600094855260205250506040909120546001600160a01b03811692600160a01b90910460ff169150565b6000806102ef6009611488565b6133018787878685613662565b61331a8760e001518860a001518960c00151858861371d565b60c090970196909652505050505050565b6000677fffffffffffffff82111561334257600080fd5b5060401b90565b600081600f0b6000141561335c57600080fd5b600082600f0b604085600f0b901b8161337157fe5b05905060016001607f1b03198112801590613393575060016001607f1b038113155b61042257600080fd5b6000600f82900b60016001607f1b031914156133b757600080fd5b5060000390565b6000600160461b82600f0b126133d357600080fd5b683fffffffffffffffff1982600f0b12156133f057506000610276565b6102ef608083600f0b700171547652b82fe1777d0ffda0d23a7d1202901d6137b0565b6000600f83810b9083900b0260401d60016001607f1b03198112801590613393575060016001607f1b0381131561042257600080fd5b600f0b60401d90565b6000806102ef600c611488565b60008061346a614262565b905060006276a70061347b85612104565b6000898152602085815260408083208b84528252808320949093018083529390522080549192509063ffffffff600160a01b8204811691600160c01b8104821691600160e01b90910416816134e25760405162461bcd60e51b8152600401610209906147d4565b6134ef8184848c8c61371d565b9b9a5050505050505050505050565b80516000906001600160a01b031661351857506000610276565b600082600001516001600160a01b031663dd30a6666040518163ffffffff1660e01b815260040160206040518083038186803b15801561355757600080fd5b505afa15801561356b573d6000803e3d6000fd5b505050506040513d601f19601f820116820180604052508101906104229190614517565b600081861061359d57600080fd5b8482106135a957600080fd5b8383106135cf576135c884612228888803611bfb8388038b8803612662565b90506105c3565b6135c86135e6878703611bfb8688038a8703612662565b85906126e0565b6000806102ef600d611488565b6000613fff84111561360b57600080fd5b64ffffffffff83111561361d57600080fd5b600882111561362b57600080fd5b5067ffff000000000000603084901b1665ffffffffff00600884901b161760ff8216179392505050565b6000806102ef600f611488565b600061366c614262565b6000868152602082815260408083208884528252808320868452825291829020808a5290890187905280546001600160501b03808216938b0193909352600160501b810490921660608a015263ffffffff600160a01b8304811660a08b0152600160c01b8304811660c08b0152600160e01b90920490911660e089015290915080841561370b5760018201546001600160501b03166080890152613713565b600060808901525b5050505050505050565b600080831161372b57600080fd5b8186111561373a5750836105c3565b600061374683886126e0565b90508381111561375957859150506105c3565b600061376d85611bfb84633b9aca00612662565b9050600061377f633b9aca00836126e0565b905060006137a2633b9aca00611bfb6137988b86612662565b6122288d88612662565b9a9950505050505050505050565b6000600160461b82600f0b126137c557600080fd5b683fffffffffffffffff1982600f0b12156137e257506000610276565b6001607f1b60006780000000000000008416600f0b13156138145770016a09e667f3bcc908b2fb1366ea957d3e0260801c5b60008367400000000000000016600f0b1315613841577001306fe0a31b7152de8d5a46305c85edec0260801c5b60008367200000000000000016600f0b131561386e577001172b83c7d517adcdf7c8c50eb14a791f0260801c5b60008367100000000000000016600f0b131561389b5770010b5586cf9890f6298b92b71842a983630260801c5b60008367080000000000000016600f0b13156138c8577001059b0d31585743ae7c548eb68ca417fd0260801c5b60008367040000000000000016600f0b13156138f557700102c9a3e778060ee6f7caca4f7a29bde80260801c5b60008367020000000000000016600f0b13156139225770010163da9fb33356d84a66ae336dcdfa3f0260801c5b600083600160381b16600f0b131561394b57700100b1afa5abcbed6129ab13ec11dc95430260801c5b600083668000000000000016600f0b13156139775770010058c86da1c09ea1ff19d294cf2f679b0260801c5b600083664000000000000016600f0b13156139a3577001002c605e2e8cec506d21bfc89a23a00f0260801c5b600083662000000000000016600f0b13156139cf57700100162f3904051fa128bca9c55c31e5df0260801c5b600083661000000000000016600f0b13156139fb577001000b175effdc76ba38e31671ca9397250260801c5b600083660800000000000016600f0b1315613a2757700100058ba01fb9f96d6cacd4b180917c3d0260801c5b600083660400000000000016600f0b1315613a535770010002c5cc37da9491d0985c348c68e7b30260801c5b600083660200000000000016600f0b1315613a7f577001000162e525ee054754457d59952920260260801c5b600083600160301b16600f0b1315613aa85770010000b17255775c040618bf4a4ade83fc0260801c5b6000836580000000000016600f0b1315613ad3577001000058b91b5bc9ae2eed81e9b7d4cfab0260801c5b6000836540000000000016600f0b1315613afe57700100002c5c89d5ec6ca4d7c8acc017b7c90260801c5b6000836520000000000016600f0b1315613b295770010000162e43f4f831060e02d839a9d16d0260801c5b6000836510000000000016600f0b1315613b5457700100000b1721bcfc99d9f890ea069117630260801c5b6000836508000000000016600f0b1315613b7f5770010000058b90cf1e6d97f9ca14dbcc16280260801c5b6000836504000000000016600f0b1315613baa577001000002c5c863b73f016468f6bac5ca2b0260801c5b6000836502000000000016600f0b1315613bd557700100000162e430e5a18f6119e3c02282a50260801c5b6000836501000000000016600f0b1315613c00577001000000b1721835514b86e6d96efd1bfe0260801c5b60008364800000000016600f0b1315613c2a57700100000058b90c0b48c6be5df846c5b2ef0260801c5b60008364400000000016600f0b1315613c545770010000002c5c8601cc6b9e94213c72737a0260801c5b60008364200000000016600f0b1315613c7e577001000000162e42fff037df38aa2b219f060260801c5b60008364100000000016600f0b1315613ca85770010000000b17217fba9c739aa5819f44f90260801c5b60008364080000000016600f0b1315613cd2577001000000058b90bfcdee5acd3c1cedc8230260801c5b60008364040000000016600f0b1315613cfc57700100000002c5c85fe31f35a6a30da1be500260801c5b60008364020000000016600f0b1315613d265770010000000162e42ff0999ce3541b9fffcf0260801c5b60008364010000000016600f0b1315613d5057700100000000b17217f80f4ef5aadda455540260801c5b600083638000000016600f0b1315613d795770010000000058b90bfbf8479bd5a81b51ad0260801c5b600083634000000016600f0b1315613da2577001000000002c5c85fdf84bd62ae30a74cc0260801c5b600083632000000016600f0b1315613dcb57700100000000162e42fefb2fed257559bdaa0260801c5b600083631000000016600f0b1315613df4577001000000000b17217f7d5a7716bba4a9ae0260801c5b600083630800000016600f0b1315613e1d57700100000000058b90bfbe9ddbac5e109cce0260801c5b600083630400000016600f0b1315613e465770010000000002c5c85fdf4b15de6f17eb0d0260801c5b600083630200000016600f0b1315613e6f577001000000000162e42fefa494f1478fde050260801c5b600083630100000016600f0b1315613e985770010000000000b17217f7d20cf927c8e94c0260801c5b6000836280000016600f0b1315613ec0577001000000000058b90bfbe8f71cb4e4b33d0260801c5b6000836240000016600f0b1315613ee857700100000000002c5c85fdf477b662b269450260801c5b6000836220000016600f0b1315613f105770010000000000162e42fefa3ae53369388c0260801c5b6000836210000016600f0b1315613f3857700100000000000b17217f7d1d351a389d400260801c5b6000836208000016600f0b1315613f605770010000000000058b90bfbe8e8b2d3d4ede0260801c5b6000836204000016600f0b1315613f88577001000000000002c5c85fdf4741bea6e77e0260801c5b6000836202000016600f0b1315613fb057700100000000000162e42fefa39fe95583c20260801c5b6000836201000016600f0b1315613fd8577001000000000000b17217f7d1cfb72b45e10260801c5b60008361800016600f0b1315613fff57700100000000000058b90bfbe8e7cc35c3f00260801c5b60008361400016600f0b13156140265770010000000000002c5c85fdf473e242ea380260801c5b60008361200016600f0b131561404d577001000000000000162e42fefa39f02b772c0260801c5b60008361100016600f0b13156140745770010000000000000b17217f7d1cf7d83c1a0260801c5b60008361080016600f0b131561409b577001000000000000058b90bfbe8e7bdcbe2e0260801c5b60008361040016600f0b13156140c257700100000000000002c5c85fdf473dea871f0260801c5b60008361020016600f0b13156140e95770010000000000000162e42fefa39ef44d910260801c5b60008361010016600f0b131561411057700100000000000000b17217f7d1cf79e9490260801c5b600083608016600f0b13156141365770010000000000000058b90bfbe8e7bce5440260801c5b600083604016600f0b131561415c577001000000000000002c5c85fdf473de6eca0260801c5b600083602016600f0b131561418257700100000000000000162e42fefa39ef366f0260801c5b600083601016600f0b13156141a8577001000000000000000b17217f7d1cf79afa0260801c5b600083600816600f0b13156141ce57700100000000000000058b90bfbe8e7bcd6d0260801c5b600083600416600f0b13156141f45770010000000000000002c5c85fdf473de6b20260801c5b600083600216600f0b131561421a577001000000000000000162e42fefa39ef3580260801c5b600083600116600f0b13156142405770010000000000000000b17217f7d1cf79ab0260801c5b600f83810b60401d603f03900b1c60016001607f1b038111156102ef57600080fd5b6000806102ef600a611488565b604051806101200160405280600061ffff16815260200160008152602001600081526020016000815260200160008152602001600081526020016000815260200160008152602001600081525090565b6040518060e001604052806142d261437e565b81526020016142df6143d9565b815260006020820181905260408201819052606082018190526080820181905260a09091015290565b6040805160a08101825260008082526020820181905291810182905260608101829052608081019190915290565b60405180610100016040528060008019168152602001600081526020016000815260200160008152602001600081526020016000815260200160008152602001600081525090565b604080516080810182526000808252602082015290810161439d614441565b8152600060209091015290565b6040805160a0810182526000808252602082018190529181018290529060608201908152602001600081525090565b6040518060800160405280606081526020016060815260200160008152602001600081525090565b6040518060c0016040528060008152602001600081526020016000815260200160008152602001600081526020016000600381111561443c57fe5b905290565b604051806060016040528060006001600160a01b0316815260200160008152602001600081525090565b60405180602001604052806001906020820280368337509192915050565b80356001600160a01b038116811461027657600080fd5b80516001600160701b03198116811461027657600080fd5b8051610276816149f8565b805160ff8116811461027657600080fd5b6000602082840312156144e5578081fd5b61042282614489565b60008060408385031215614500578081fd5b61450983614489565b946020939093013593505050565b600060208284031215614528578081fd5b5051919050565b600060a08284031215614540578081fd5b60405160a0810181811067ffffffffffffffff8211171561455d57fe5b604052825164ffffffffff81168114614574578283fd5b815260208301516001600160f81b031981168114614590578283fd5b60208201526145a1604084016144c3565b60408201526145b2606084016144b8565b60608201526145c3608084016144a0565b60808201529392505050565b6000602082840312156145e0578081fd5b8135610422816149f8565b600080604083850312156145fd578182fd5b8235614608816149f8565b915061236660208401614489565b60008060006060848603121561462a578081fd5b8335614635816149f8565b925061464360208501614489565b915061465160408501614489565b90509250925092565b600080600080600060a08688031215614671578081fd5b853561467c816149f8565b945061468a60208701614489565b935061469860408701614489565b92506146a660608701614489565b949793965091946080013592915050565b600080600080608085870312156146cc578384fd5b84356146d7816149f8565b93506146e560208601614489565b92506146f360408601614489565b9396929550929360600135925050565b6001600160a01b0391909116815260200190565b6001600160a01b039384168152919092166020820152604081019190915260600190565b6001600160a01b03929092168252805164ffffffffff166020808401919091528101516001600160f81b03191660408084019190915281015160ff1660608084019190915281015161ffff1660808084019190915201516001600160701b03191660a082015260c00190565b6001600160a01b03929092168252602082015260400190565b901515815260200190565b90815260200190565b60208082526016908201527513585c9ad95d081b9bdd081a5b9a5d1a585b1a5e995960521b604082015260600190565b60208082526006908201526552656465656d60d01b604082015260600190565b60208082526015908201527410d1ce881b9bc81b585c9ad95d1cc81b1a5cdd1959605a1b604082015260600190565b6020808252600d908201526c092dcecc2d8d2c840d2dcc8caf609b1b604082015260600190565b602080825260169082015275496e73756666696369656e7420616c6c6f77616e636560501b604082015260600190565b6020808252601390820152722ab730baba3437b934bd32b21031b0b63632b960691b604082015260600190565b60208082526016908201527510d1ce881b585c9ad95d081a5b99195e08189bdd5b9960521b604082015260600190565b6020808252600e908201526d125b9d985b1a59081b585c9ad95d60921b604082015260600190565b602080825260059082015264045524332360dc1b604082015260600190565b60208082526008908201526709ccace4086c2e6d60c31b604082015260600190565b60208082526017908201527f43616e6e6f74207472616e7366657220746f2073656c66000000000000000000604082015260600190565b6020808252600a90820152692732b390372a37b5b2b760b11b604082015260600190565b60208082526013908201527210d1ce881b9bc81b585c9ad95d08199bdd5b99606a1b604082015260600190565b61ffff81168114614a0857600080fd5b5056fe536166654d6174683a206d756c7469706c69636174696f6e206f766572666c6f7753616665436173743a2076616c756520646f65736e27742066697420696e20616e20696e74323536a26469706673582212206505d88b40c9660849aa9142be6f02d8a09773204dfb4134e0b8d5507b5dd87a64736f6c63430007060033","bytecodeSha1":"8069f87506e2140a51b4dc29b2ef231c6b7dba6f","compiler":{"evm_version":"istanbul","optimizer":{"enabled":true,"runs":200},"version":"0.7.6+commit.7338295f"},"contractName":"nTokenAction","deployedBytecode":"608060405234801561001057600080fd5b50600436106100cf5760003560e01c80636a96e86f1161008c578063884a709211610066578063884a7092146101995780638da5cb5b146101ac578063a78dbfff146101b4578063daca07a6146101c7576100cf565b80636a96e86f1461016b5780637db31ab91461017e5780638246336714610191576100cf565b806318ae40d7146100d45780631a05bce1146100fd57806324a3d6221461011d5780632e0ecba814610132578063309c00a6146101455780633b2987b314610158575b600080fd5b6100e76100e23660046146b7565b6101cf565b6040516100f491906147c0565b60405180910390f35b61011061010b3660046145cf565b610265565b6040516100f491906147cb565b61012561027b565b6040516100f49190614703565b6100e76101403660046144ee565b61028a565b6100e76101533660046146b7565b6102f5565b6101106101663660046145cf565b610381565b6101106101793660046144d4565b6103a4565b61011061018c366004614616565b6103b8565b610125610429565b6100e76101a736600461465a565b610438565b6101256105cc565b6101106101c23660046145eb565b6105e3565b610110610607565b6000806101df8661ffff166106c7565b9050336001600160a01b038216146102125760405162461bcd60e51b8152600401610209906148aa565b60405180910390fd5b836001600160a01b0316856001600160a01b031614156102445760405162461bcd60e51b815260040161020990614970565b61024d846106ed565b6102598686868661073c565b9150505b949350505050565b600080610271836108f7565b509150505b919050565b6002546001600160a01b031681565b3360008181526004602090815260408083206001600160a01b038716808552925280832085905551919290917f8c5be1e5ebec7d5bd14f71427d1e84f3dd0314c0f7b2291e5b200ac8c7c3b925906102e39086906147cb565b60405180910390a35060015b92915050565b6000806103058661ffff166106c7565b9050336001600160a01b0382161461032f5760405162461bcd60e51b8152600401610209906148aa565b6001600160a01b03851661034257600080fd5b50506001600160a01b03928316600090815260056020908152604080832094909516825292835283812061ffff95909516815293909152912055600190565b600080600061038f846108f7565b805160400151919350915061025d908361092c565b60006103af8261095d565b50909392505050565b6001600160a01b038083166000908152600560209081526040808320938516835292815282822061ffff8716835290529081205480156103f9579050610422565b50506001600160a01b038083166000908152600460209081526040808320938516835292905220545b9392505050565b6001546001600160a01b031681565b6000806104488761ffff166106c7565b9050336001600160a01b038216146104725760405162461bcd60e51b8152600401610209906148aa565b836001600160a01b0316856001600160a01b031614156104a45760405162461bcd60e51b815260040161020990614970565b6104ad846106ed565b6001600160a01b038086166000908152600560209081526040808320938a16835292815282822061ffff8b16835290522054801561054057838110156105055760405162461bcd60e51b81526004016102099061487a565b6001600160a01b038087166000908152600560209081526040808320938b16835292815282822061ffff8c16835290522084820390556105b2565b506001600160a01b038086166000908152600460209081526040808320938a1683529290522054838110156105875760405162461bcd60e51b81526004016102099061487a565b6001600160a01b038087166000908152600460209081526040808320938b1683529290522084820390555b6105be8887878761073c565b925050505b95945050505050565b60005464010000000090046001600160a01b031681565b6000806105f4838561ffff166109b9565b5050915050600081121561042257600080fd5b6000338161061482610a42565b9050600061062061426f565b61062983610ae3565b1561065b576060830151610641908290869086610af0565b60008160400151131561065b576106588185610b96565b91505b60808301515b6001600160701b03198116156106bd5760f081901c613fff1661068683878388610af0565b6000836040015113156106aa576106a76106a08488610b96565b8590610bcc565b93505b5060101b6001600160801b031916610661565b5090935050505090565b6000806106d2610c26565b6000938452602052505060409020546001600160a01b031690565b6001600160a01b03811661070057600080fd5b6001600160a01b03811630141561071657600080fd5b600061072182610c33565b5050505061ffff1690508060001461073857600080fd5b5050565b60008061074883610c9c565b9050600061075586610a42565b905061076081610ce4565b156107f1576040516337b5fc2160e11b815273__$f6541b0d362a0c7d99a2a29cd3d373d61b$__90636f6bf8429061079e908990859060040161473b565b60a06040518083038186803b1580156107b657600080fd5b505af41580156107ca573d6000803e3d6000fd5b505050506040513d601f19601f820116820180604052508101906107ee919061452f565b90505b6107f961426f565b61080581888a85610af0565b61080e83610d38565b60a08201526108208188846000610d46565b5061082b8288610fb7565b600061083687610a42565b905061084061426f565b61084c81898c85610af0565b60a081018590526108608189846000610d46565b5061086b8289610fb7565b60208401516001600160f81b031916156108e757604051636ccc642f60e01b815273__$841fddfe32830bb6dbc3a02d7f16c53722$__90636ccc642f906108b6908c90600401614703565b60006040518083038186803b1580156108ce57600080fd5b505af41580156108e2573d6000803e3d6000fd5b505050505b5060019998505050505050505050565b60006109016142bf565b4261090a6142bf565b61091481866110bb565b600061092082846110d4565b94509092505050915091565b60008061025d84604001516109576402540be4006109578789602001516111bb90919063ffffffff16565b90611209565b60008060008061096b61123a565b6001600160a01b0395909516600090815260209590955250506040909220546001600160601b03811693600160601b82046001600160801b03169350600160e01b90910463ffffffff169150565b60008060008060006109c9611247565b6001600160a01b0388166000908152602082815260408083208a8452909152902080546001600160501b0381169650600160501b810463ffffffff16955091925090610a2490600160701b900466ffffffffffffff16611254565b9054600160a81b9004600a90810b900b989497509295509193505050565b610a4a614308565b6000610a54611262565b6001600160a01b039390931660009081526020938452604090819020815160a081018352905464ffffffffff8116825265010000000000810460f81b6001600160f81b03191695820195909552600160301b850460ff1691810191909152600160381b840461ffff166060820152600160481b90930460701b6001600160701b03191660808401525090919050565b6060015161ffff16151590565b8161ffff166000108015610b0a5750613fff61ffff831611155b610b1357600080fd5b61ffff8216808552610b2690829061126f565b15610b5357610b39838361ffff166109b9565b61010088015260e087015260408601526020850152610b71565b6000602085018190526040850181905260e085018190526101008501525b50506000606083018190526080830181905260a0830181905260c09092019190915250565b600080610ba384846112f9565b905061042283856000015161ffff16866020015187604001518860e0015189610100015161136a565b600082820183811015610422576040805162461bcd60e51b815260206004820152601b60248201527f536166654d6174683a206164646974696f6e206f766572666c6f770000000000604482015290519081900360640190fd5b6000806102ef6003611488565b600080600080600080610c446114a1565b6001600160a01b039097166000908152602097909752505060409094205461ffff81169563ffffffff62010000830481169650600160301b830416945060ff600160501b8304169350600160581b90910460d81b9150565b6000600160ff1b8210610ce05760405162461bcd60e51b8152600401808060200182810382526028815260200180614a2d6028913960400191505060405180910390fd5b5090565b600042610cf083610ae3565b15610d1157610cfe816114ae565b835164ffffffffff161091506102769050565b825164ffffffffff1615801590610d305750825164ffffffffff168110155b915050610276565b60006102ef600019836111bb565b60008060008660a001511215610d9f576000610d818760a00151610d7b8960c001518a604001516114cf90919063ffffffff16565b906114cf565b1215610d9f5760405162461bcd60e51b8152600401610209906149a7565b600086608001511215610def576000610dd18760800151610d7b89606001518a602001516114cf90919063ffffffff16565b1215610def5760405162461bcd60e51b81526004016102099061494e565b610dfa8686856114e5565b608088018190526060880151919350600091610e15916114cf565b90508015610e82576020870151610e2c90826114cf565b602088015286516040516001935061ffff909116906001600160a01b038816907f5441e4a5fac93a951d782e6f1cdb82e95c8fc58561a013953d17e395c5e69b4b90610e799085906147cb565b60405180910390a35b60a0870151151580610e97575060c087015115155b15610f2d57610ea687876112f9565b50610eca8760c00151610d7b8960a001518a604001516114cf90919063ffffffff16565b604088015260c087015115610f2857866000015161ffff16866001600160a01b03167f412bc13d202a2ea5119e55fec9c5e420dddb18faf186373ad9795ad4f4545aa98960c00151604051610f1f91906147cb565b60405180910390a35b600191505b8115610f5a57610f5a86886000015161ffff1689602001518a604001518b60e001518c610100015161136a565b86516020880151610f879161ffff1690151580610f7a5750604089015115155b879190600160fe1b6115ba565b600087602001511215610fad57602085018051600160f91b176001600160f81b03191690525b5050949350505050565b6000610fc1611262565b6001600160a01b03831660008181526020838152604080832088518154938a0151838b015160608c015160808d015160701c600160481b027affffffffffffffffffffffffffffffffffff0000000000000000001961ffff909216600160381b0268ffff000000000000001960ff94909416600160301b0266ff0000000000001960f89690961c650100000000000265ff00000000001964ffffffffff90981664ffffffffff19909b169a909a1796909616989098179390931693909317169490941716929092179091555192935090917f6bd4b121bca854a191536a2ca891155c42ee2fb23f307fb34e8bc65cfcb5412e9190a2505050565b6110c582826117c1565b6110ce81611864565b90915250565b6000806000806110e386611887565b90508481116110f3576001810394505b506110fc614336565b60005b602087015151518110156111525760008061112b838a60000151868c60200151600001518c60006118b1565b909250905061113a86836114cf565b955061114685826114cf565b945050506001016110ff565b5050600061117d8660c0015187600001516000015161ffff168860800151888a6000015160006119f9565b50905061118a82826114cf565b60608701518751604001519193506111b191610d7b906111aa9086611a85565b86906114cf565b9695505050505050565b8181026000198314156111eb578115806111dd5750828282816111da57fe5b05145b6111e657600080fd5b6102ef565b8215806112005750818382816111fd57fe5b05145b6102ef57600080fd5b60008160001914801561121f5750600160ff1b83145b1561122957600080fd5b81838161123257fe5b059392505050565b6000806102ef600e611488565b6000806102ef6006611488565b600881901c60ff9091161b90565b6000806102ef6001611488565b600081158015906112825750613fff8211155b61128b57600080fd5b6080830151606084015161ffff168314156112aa5760019150506102ef565b6001600160701b03198116156112ef5760f081901c613fff16838114156112dc5750600160fe1b9081161490506102ef565b5060101b6001600160801b0319166112aa565b5060009392505050565b81516000904290829061130f9061ffff166106c7565b90506000611322828760c0015185611ab6565b90506000611349836113378960400151611b8f565b8960e001518a61010001518887611b9e565b60e088018590526101008801839052905080156111b1576111b18682611c45565b6000611374611247565b6001600160a01b0388166000908152602082815260408083208a845290915290209091506a7fffffffffffffffffffff1986128015906113bf57506a7fffffffffffffffffffff8613155b6113c857600080fd5b600085121580156113e057506001600160501b038513155b6113e957600080fd5b63ffffffff8411156113fa57600080fd5b805469ffffffffffffffffffff19166001600160501b0386161763ffffffff60501b1916600160501b63ffffffff861602176001600160a81b0316600160a81b6affffffffffffffffffffff600a89900b160217815561145983611c64565b815466ffffffffffffff91909116600160701b0266ffffffffffffff60701b1990911617905550505050505050565b6000620f424082601081111561149a57fe5b0192915050565b6000806102ef6002611488565b6000620151808210156114c057600080fd5b62015180825b06909103919050565b818101828112156000831215146102ef57600080fd5b60008060006114fb866000015161ffff16611c92565b90506000611516876080015183611ca590919063ffffffff16565b90508061152b576000809350935050506115b2565b8480156115385750600081125b15611595576000611550886000015161ffff16611cdd565b905060006115698261156185610d38565b869190611cf0565b90506115808861157883610d38565b849190611f0e565b955061158c8484611fb2565b945050506115af565b6115a0828783611f0e565b93506115ac8285611fb2565b92505b50505b935093915050565b8260001080156115cc5750613fff8311155b6115d557600080fd5b8180156115e9575082846060015161ffff16145b156115f3576117bb565b6080840151600090815b6001600160701b03198216156117755760f082901c613fff1686811480156116225750855b1561165a57506080870180516001600160f01b0319861660109093029290921c919091176001600160701b0319169052506117bb9050565b8681148015611667575085155b156116c3576001600160f01b03198516199290921691600360fe1b83166116a1576010836dffffffffffffffffffffffffffff1916901b92505b506001600160701b031991821660109091021c919091171660808501526117bb565b86811180156116cf5750855b15611729576080888101516001600160f01b031960f08a901b88178116601086021c9690961795911b161561170357600080fd5b506001600160701b03199182166001919091016010021c919091171660808501526117bb565b8681118015611736575085155b1561174457505050506117bb565b506001600160f01b0319821660108281029190911c93909317929190911b6001600160801b031916906001016115fd565b84611782575050506117bb565b6009811061178f57600080fd5b6001600160f01b031960f087901b85171660109091021c919091176001600160701b0319166080860152505b50505050565b6117ce8161ffff166106c7565b6001600160a01b031660c08301819052600090819081906117ee90610c33565b945094509450505060006118058660c0015161095d565b505060808701859052604087018190526001600160d81b0319831660a088015260c087015190915061183990846000611fe2565b602087015260c08601516118519061ffff87166109b9565b5050506060909601959095525050505050565b61186c61437e565b600061187b8361ffff16612075565b905061042283826120c1565b600081608001516000141561189e57506000610276565b60808201516276a7009061149a90612104565b60008060008589815181106118c257fe5b602002602001015190506000806118e28a60200151846020015189612120565b9150915080156118f157600080fd5b6118ff8a8a8460018b6121e0565b5050600080851561191f57611915838a8c61225b565b909250905061192f565b611929838a6122f4565b90925090505b8a156119ac5760008860018d038151811061194657fe5b60200260200101519050600160ff168160400151148015611968575083518151145b801561197b575083602001518160200151145b156119aa57606081015161198f90836114cf565b6060820152600360a090910152509250600091506119ee9050565b505b85156119d85760006119c98b8386602001518b8e60c0015161236f565b9295509193506119ee92505050565b60006119c98285602001518a8d60c00151612403565b965096945050505050565b6000806000611a088989612449565b90506000611a158261247e565b90505b8015611a78576000611a2a89836124a3565b90506000611a3c8c8c848c8c8c612556565b9050611a4886826114cf565b95506000811215611a5857600194505b611a64848460006125ab565b9350611a6f8461247e565b92505050611a18565b5050965096945050505050565b60008061025d84602001516109578660400151611ab06402540be400886111bb90919063ffffffff16565b906111bb565b6000806000611ac586856125f6565b5091509150846000146105c3576000611ade83876114cf565b905060008112158015611af757506001600160601b0381105b611b0057600080fd5b6000611b0a61123a565b6001600160a01b03891660009081526020919091526040902080546bffffffffffffffffffffffff19166001600160601b0393909316929092176fffffffffffffffffffffffffffffffff60601b1916600160601b6001600160801b03851602176001600160e01b0316600160e01b63ffffffff881602179091555095945050505050565b600080821215610ce057600080fd5b6000841580611bad5750828510155b15611bba575060006111b1565b6000611bc588610c33565b50919350505086850390506000611be982611be4856305f5e100612662565b6126bb565b90506000611c0183611bfb888b6126e0565b9061273d565b905080611c155760009450505050506111b1565b6000611c2582611bfb8d86612662565b9050611c35816305f5e10061273d565b9c9b505050505050505050505050565b61073873cfeaead4947f0705a14ec42ac3d44129e1ef3ed583836127a4565b60008065ffffffffffff831115611c8457602f611c8084612811565b0390505b82811c60081b179050919050565b611c9a6143aa565b6102ef8260006128aa565b60006305f5e10083604001511415611cbe5750806102ef565b6104226305f5e1006109578560400151856111bb90919063ffffffff16565b611ce56143aa565b6102ef8260016128aa565b600080600285606001516004811115611d0557fe5b1415611d12575047611dac565b600185606001516004811115611d2457fe5b14156100cf5783516040516370a0823160e01b81526001600160a01b03909116906370a0823190611d59903090600401614703565b60206040518083038186803b158015611d7157600080fd5b505afa158015611d85573d6000803e3d6000fd5b505050506040513d601f19601f82011682018060405250810190611da99190614517565b90505b845160405163db006a7560e01b81526000916001600160a01b03169063db006a7590611ddc9087906004016147cb565b602060405180830381600087803b158015611df657600080fd5b505af1158015611e0a573d6000803e3d6000fd5b505050506040513d601f19601f82011682018060405250810190611e2e9190614517565b90508015611e4e5760405162461bcd60e51b815260040161020990614804565b6000600287606001516004811115611e6257fe5b1415611e6f575047611ef1565b85516040516370a0823160e01b81526001600160a01b03909116906370a0823190611e9e903090600401614703565b60206040518083038186803b158015611eb657600080fd5b505afa158015611eca573d6000803e3d6000fd5b505050506040513d601f19601f82011682018060405250810190611eee9190614517565b90505b611f03611efe82856126e0565b612958565b979650505050505050565b600080821315611f2a57611f2384848461296e565b9150611fab565b600384606001516004811115611f3c57fe5b1415611f96576000821315611f5057600080fd5b826001600160a01b0381166108fc611f6785610d38565b6040518115909202916000818181858888f19350505050158015611f8f573d6000803e3d6000fd5b5050611fab565b8351611fab9084611fa685610d38565b6127a4565b5092915050565b60006305f5e10083604001511415611fcb5750806102ef565b604083015161042290610957846305f5e1006111bb565b611fea6143d9565b611ff26143d9565b60ff8416612001579050610422565b61200b8585612b0b565b815260ff841660608201528267ffffffffffffffff8111801561202d57600080fd5b5060405190808252806020026020018201604052801561206757816020015b612054614401565b81526020019060019003908161204c5790505b506020820152949350505050565b61207d614441565b600080600061208b85612b34565b604080516060810182526001600160a01b039093168352602083019390935260ff16600a0a918101919091529350505050919050565b6120c961437e565b60006120d88461ffff16612bf5565b6040805160808101825261ffff96909616865260ff821660208701528501939093525050606082015290565b60006276a70082101561211657600080fd5b6276a700826114c6565b600080600085116121435760405162461bcd60e51b815260040161020990614824565b60078511156121645760405162461bcd60e51b8152600401610209906148d7565b600061216f84612104565b905060015b8681116121c757600061219061218983612c12565b8490610bcc565b9050868114156121a857509250600091506115b29050565b868111156121be57509250600191506115b29050565b50600101612174565b5060405162461bcd60e51b8152600401610209906149cb565b826001111580156121f5575084602001518311155b6122115760405162461bcd60e51b815260040161020990614907565b600061222e61221f85612c12565b61222884612104565b90610bcc565b9050612253866000015161ffff168284866122488b612cb6565b8a9493929190612cca565b505050505050565b60008061226b8560400151612cf4565b801561227c57506000856060015112155b61228557600080fd5b8251855161ffff9091161461229957600080fd5b60006122b2866040015185612d0a90919063ffffffff16565b60ff1690506122cf85606001518760600151838860800151612d3f565b92506122e985604001518760600151838860800151612d3f565b915050935093915050565b6000806123048460400151612cf4565b801561231557506000846060015112155b61231e57600080fd5b6123418360800151610957866060015186606001516111bb90919063ffffffff16565b91506123668360800151610957866060015186604001516111bb90919063ffffffff16565b90509250929050565b60008461237e575060006105c3565b600061238a85856126e0565b90506000808713156123b9576123b2826123ad6123a68b612d56565b8790610bcc565b612d6b565b90506123e8565b60006123c489612dd8565b90508481106123d8578793505050506105c3565b6123e483828703612d6b565b9150505b633b9aca008113156123f957600080fd5b6105be8782612ded565b6000846124125750600061025d565b600061241e85856126e0565b9050600061242c8285612d6b565b9050633b9aca0081131561243f57600080fd5b611f038782612ded565b600080612454612e06565b6001600160a01b038516600090815260209182526040808220868352909252205491505092915050565b60008161248d57506000610276565b61249682612811565b60ff036001019050919050565b6000816124af57600080fd5b6101008211156124be57600080fd5b60006124c9846114ae565b90506000605a84116124e457506201518083020190506102ef565b6087841161250c575060591983016207e900908102908206909103016276a7000190506102ef565b60c384116125355750608619830162278d00908102908206909103016301da9c000190506102ef565b5060c21983016276a70090810290820690910301630b1fa8000190506102ef565b600080612564888888612e13565b90508486116125745790506111b1565b6000612581858888612e58565b9050831561259f57612596858389898561236f565b925050506111b1565b61259682888884612403565b6000600183101580156125c057506101008311155b6125c957600080fd5b81156125e25750600160ff1b60001983011c8317610422565b50600160ff1b60001983011c198316610422565b60008060006126048561095d565b91945092509050806126135750825b8084101561262057600080fd5b61263661262f848387036111bb565b83906114cf565b91506001600160801b03821061264b57600080fd5b63ffffffff841061265b57600080fd5b9250925092565b600082612671575060006102ef565b8282028284828161267e57fe5b04146104225760405162461bcd60e51b8152600401808060200182810382526021815260200180614a0c6021913960400191505060405180910390fd5b6000806126d46301da9c00611bfb866305f5e100612662565b905061025d8184612662565b600082821115612737576040805162461bcd60e51b815260206004820152601e60248201527f536166654d6174683a207375627472616374696f6e206f766572666c6f770000604482015290519081900360640190fd5b50900390565b6000808211612793576040805162461bcd60e51b815260206004820152601a60248201527f536166654d6174683a206469766973696f6e206279207a65726f000000000000604482015290519081900360640190fd5b81838161279c57fe5b049392505050565b60405163a9059cbb60e01b81526001600160a01b0384169063a9059cbb906127d290859085906004016147a7565b600060405180830381600087803b1580156127ec57600080fd5b505af1158015612800573d6000803e3d6000fd5b5050505061280c612f48565b505050565b60008161281d57600080fd5b600160801b821061283057608091821c91015b600160401b821061284357604091821c91015b640100000000821061285757602091821c91015b62010000821061286957601091821c91015b610100821061287a57600891821c91015b6010821061288a57600491821c91015b6004821061289a57600291821c91015b6002821061027657600101919050565b6128b26143aa565b60006128bc612f98565b6000858152602082815260408083208715158452825291829020825160a08101845281546001600160a01b038116825260ff600160a01b82048116151594830194909452600160b01b81048416600a0a9482019490945293945092916060830191600160a81b90910416600481111561293157fe5b81529154600160b81b900468ffffffffffffffffff16602090920191909152949350505050565b60006001600160ff1b03821115610ce057600080fd5b60008060008560200151156129ff5785516040516370a0823160e01b81526001600160a01b03909116906370a08231906129ac903090600401614703565b60206040518083038186803b1580156129c457600080fd5b505afa1580156129d8573d6000803e3d6000fd5b505050506040513d601f19601f820116820180604052508101906129fc9190614517565b91505b8551612a0c908686612fa5565b856020015180612a20575060008660800151115b15612aa75785516040516370a0823160e01b81526001600160a01b03909116906370a0823190612a54903090600401614703565b60206040518083038186803b158015612a6c57600080fd5b505afa158015612a80573d6000803e3d6000fd5b505050506040513d601f19601f82011682018060405250810190612aa49190614517565b90505b608086015115612ae2576000612ac587612ac084612958565b611fb2565b9050612ad48760800151612958565b811315612ae057600080fd5b505b856020015115612b0257612af9611efe82846126e0565b92505050610422565b612af984612958565b60606000612b198484612fd5565b90506001815111612b2b5790506102ef565b610422816130f7565b6000806000806000612b45866132b0565b909250905060006001600160a01b038316612b6a5750600090506402540be400612bea565b826001600160a01b031663b2fffb046040518163ffffffff1660e01b815260040160206040518083038186803b158015612ba357600080fd5b505afa158015612bb7573d6000803e3d6000fd5b505050506040513d601f19601f82011682018060405250810190612bdb9190614517565b905060008113612bea57600080fd5b969195509350915050565b600080612c006132e7565b60009384526020525050604090205490565b60008160011415612c2757506276a700610276565b8160021415612c3a575062ed4e00610276565b8160031415612c4e57506301da9c00610276565b8160041415612c6257506303b53800610276565b8160051415612c7657506309450c00610276565b8160061415612c8a575063128a1800610276565b8160071415612c9e57506325143000610276565b60405162461bcd60e51b815260040161020990614853565b6060015161012c60089190911c60ff160290565b60006276a700612cd985612104565b019050612ceb878787878787876132f4565b50505050505050565b6000600282108015906102ef5750506008101590565b600060028210801590612d1e575060088211155b612d2757600080fd5b50606082015160486008600119840102011c92915050565b60006105c38261095760648187611ab08b8b6111bb565b606001516207a12060289190911c60ff160290565b600080612d88612d836301da9c00611bfb8688612662565b61332b565b9050612d9a81621dcd6560491b613349565b9050612dad612da88261339c565b6133be565b9050612dbf81621dcd6560491b613413565b90506000612dcc82613449565b60070b95945050505050565b606001516207a12060209190911c60ff160290565b6000610422612dfc84846111bb565b633b9aca00611209565b6000806102ef600b611488565b600080612e1e613452565b6001600160a01b03861660009081526020918252604080822087835283528082208683529092522054600f90810b900b9150509392505050565b6000806000612e6c86602001518686612120565b915091506000612e7b87612cb6565b905081612e9e578651612e949061ffff1687838861345f565b9350505050610422565b6000612ea986612104565b90506000612ec0612eb986612c12565b8390610bcc565b90506000612ed88a6000015161ffff1683868b61345f565b90506000808760011415612efd57899150612ef68c604001516134fe565b9050612f2c565b612f13612f0c60018a03612c12565b8690610bcc565b9150612f298c6000015161ffff1683888d61345f565b90505b612f39828583868f61358f565b98505050505050505050610422565b6000612f5261446b565b3d8015612f665760208114612f6f57600080fd5b60019250612f7a565b60206000833e815192505b50816107385760405162461bcd60e51b81526004016102099061492f565b6000806102ef6007611488565b6040516323b872dd60e01b81526001600160a01b038416906323b872dd906127d290859030908690600401614717565b606060108260ff161115612fe857600080fd5b6000612ff26135ed565b6001600160a01b038516600090815260208290526040812091925060ff851667ffffffffffffffff8111801561302757600080fd5b5060405190808252806020026020018201604052801561306157816020015b61304e614401565b8152602001906001900390816130465790505b50905060005b8560ff168110156130ed57600083826010811061308057fe5b019050600083838151811061309157fe5b602090810291909101810151835461ffff8116825264ffffffffff620100008204169282019290925260ff600160381b8304166040820152600160401b909104600a90810b900b60608201526080019190915250600101613067565b5095945050505050565b805160008167ffffffffffffffff8111801561311257600080fd5b5060405190808252806020026020018201604052801561313c578160200160208202803683370190505b50905060005b8281101561319957600084828151811061315857fe5b602002602001015190506131798160000151826020015183604001516135fa565b83838151811061318557fe5b602090810291909101015250600101613142565b5060015b828110156117bb57805b6000811180156131df57508281815181106131be57fe5b60200260200101518360018303815181106131d557fe5b6020026020010151115b156132a7578281815181106131f057fe5b602002602001015183600183038151811061320757fe5b602002602001015184600184038151811061321e57fe5b6020026020010185848151811061323157fe5b602002602001018281525082815250505084818151811061324e57fe5b602002602001015185600183038151811061326557fe5b602002602001015186600184038151811061327c57fe5b6020026020010187848151811061328f57fe5b602090810291909101019190915252600019016131a7565b5060010161319d565b60008060006132bd613655565b600094855260205250506040909120546001600160a01b03811692600160a01b90910460ff169150565b6000806102ef6009611488565b6133018787878685613662565b61331a8760e001518860a001518960c00151858861371d565b60c090970196909652505050505050565b6000677fffffffffffffff82111561334257600080fd5b5060401b90565b600081600f0b6000141561335c57600080fd5b600082600f0b604085600f0b901b8161337157fe5b05905060016001607f1b03198112801590613393575060016001607f1b038113155b61042257600080fd5b6000600f82900b60016001607f1b031914156133b757600080fd5b5060000390565b6000600160461b82600f0b126133d357600080fd5b683fffffffffffffffff1982600f0b12156133f057506000610276565b6102ef608083600f0b700171547652b82fe1777d0ffda0d23a7d1202901d6137b0565b6000600f83810b9083900b0260401d60016001607f1b03198112801590613393575060016001607f1b0381131561042257600080fd5b600f0b60401d90565b6000806102ef600c611488565b60008061346a614262565b905060006276a70061347b85612104565b6000898152602085815260408083208b84528252808320949093018083529390522080549192509063ffffffff600160a01b8204811691600160c01b8104821691600160e01b90910416816134e25760405162461bcd60e51b8152600401610209906147d4565b6134ef8184848c8c61371d565b9b9a5050505050505050505050565b80516000906001600160a01b031661351857506000610276565b600082600001516001600160a01b031663dd30a6666040518163ffffffff1660e01b815260040160206040518083038186803b15801561355757600080fd5b505afa15801561356b573d6000803e3d6000fd5b505050506040513d601f19601f820116820180604052508101906104229190614517565b600081861061359d57600080fd5b8482106135a957600080fd5b8383106135cf576135c884612228888803611bfb8388038b8803612662565b90506105c3565b6135c86135e6878703611bfb8688038a8703612662565b85906126e0565b6000806102ef600d611488565b6000613fff84111561360b57600080fd5b64ffffffffff83111561361d57600080fd5b600882111561362b57600080fd5b5067ffff000000000000603084901b1665ffffffffff00600884901b161760ff8216179392505050565b6000806102ef600f611488565b600061366c614262565b6000868152602082815260408083208884528252808320868452825291829020808a5290890187905280546001600160501b03808216938b0193909352600160501b810490921660608a015263ffffffff600160a01b8304811660a08b0152600160c01b8304811660c08b0152600160e01b90920490911660e089015290915080841561370b5760018201546001600160501b03166080890152613713565b600060808901525b5050505050505050565b600080831161372b57600080fd5b8186111561373a5750836105c3565b600061374683886126e0565b90508381111561375957859150506105c3565b600061376d85611bfb84633b9aca00612662565b9050600061377f633b9aca00836126e0565b905060006137a2633b9aca00611bfb6137988b86612662565b6122288d88612662565b9a9950505050505050505050565b6000600160461b82600f0b126137c557600080fd5b683fffffffffffffffff1982600f0b12156137e257506000610276565b6001607f1b60006780000000000000008416600f0b13156138145770016a09e667f3bcc908b2fb1366ea957d3e0260801c5b60008367400000000000000016600f0b1315613841577001306fe0a31b7152de8d5a46305c85edec0260801c5b60008367200000000000000016600f0b131561386e577001172b83c7d517adcdf7c8c50eb14a791f0260801c5b60008367100000000000000016600f0b131561389b5770010b5586cf9890f6298b92b71842a983630260801c5b60008367080000000000000016600f0b13156138c8577001059b0d31585743ae7c548eb68ca417fd0260801c5b60008367040000000000000016600f0b13156138f557700102c9a3e778060ee6f7caca4f7a29bde80260801c5b60008367020000000000000016600f0b13156139225770010163da9fb33356d84a66ae336dcdfa3f0260801c5b600083600160381b16600f0b131561394b57700100b1afa5abcbed6129ab13ec11dc95430260801c5b600083668000000000000016600f0b13156139775770010058c86da1c09ea1ff19d294cf2f679b0260801c5b600083664000000000000016600f0b13156139a3577001002c605e2e8cec506d21bfc89a23a00f0260801c5b600083662000000000000016600f0b13156139cf57700100162f3904051fa128bca9c55c31e5df0260801c5b600083661000000000000016600f0b13156139fb577001000b175effdc76ba38e31671ca9397250260801c5b600083660800000000000016600f0b1315613a2757700100058ba01fb9f96d6cacd4b180917c3d0260801c5b600083660400000000000016600f0b1315613a535770010002c5cc37da9491d0985c348c68e7b30260801c5b600083660200000000000016600f0b1315613a7f577001000162e525ee054754457d59952920260260801c5b600083600160301b16600f0b1315613aa85770010000b17255775c040618bf4a4ade83fc0260801c5b6000836580000000000016600f0b1315613ad3577001000058b91b5bc9ae2eed81e9b7d4cfab0260801c5b6000836540000000000016600f0b1315613afe57700100002c5c89d5ec6ca4d7c8acc017b7c90260801c5b6000836520000000000016600f0b1315613b295770010000162e43f4f831060e02d839a9d16d0260801c5b6000836510000000000016600f0b1315613b5457700100000b1721bcfc99d9f890ea069117630260801c5b6000836508000000000016600f0b1315613b7f5770010000058b90cf1e6d97f9ca14dbcc16280260801c5b6000836504000000000016600f0b1315613baa577001000002c5c863b73f016468f6bac5ca2b0260801c5b6000836502000000000016600f0b1315613bd557700100000162e430e5a18f6119e3c02282a50260801c5b6000836501000000000016600f0b1315613c00577001000000b1721835514b86e6d96efd1bfe0260801c5b60008364800000000016600f0b1315613c2a57700100000058b90c0b48c6be5df846c5b2ef0260801c5b60008364400000000016600f0b1315613c545770010000002c5c8601cc6b9e94213c72737a0260801c5b60008364200000000016600f0b1315613c7e577001000000162e42fff037df38aa2b219f060260801c5b60008364100000000016600f0b1315613ca85770010000000b17217fba9c739aa5819f44f90260801c5b60008364080000000016600f0b1315613cd2577001000000058b90bfcdee5acd3c1cedc8230260801c5b60008364040000000016600f0b1315613cfc57700100000002c5c85fe31f35a6a30da1be500260801c5b60008364020000000016600f0b1315613d265770010000000162e42ff0999ce3541b9fffcf0260801c5b60008364010000000016600f0b1315613d5057700100000000b17217f80f4ef5aadda455540260801c5b600083638000000016600f0b1315613d795770010000000058b90bfbf8479bd5a81b51ad0260801c5b600083634000000016600f0b1315613da2577001000000002c5c85fdf84bd62ae30a74cc0260801c5b600083632000000016600f0b1315613dcb57700100000000162e42fefb2fed257559bdaa0260801c5b600083631000000016600f0b1315613df4577001000000000b17217f7d5a7716bba4a9ae0260801c5b600083630800000016600f0b1315613e1d57700100000000058b90bfbe9ddbac5e109cce0260801c5b600083630400000016600f0b1315613e465770010000000002c5c85fdf4b15de6f17eb0d0260801c5b600083630200000016600f0b1315613e6f577001000000000162e42fefa494f1478fde050260801c5b600083630100000016600f0b1315613e985770010000000000b17217f7d20cf927c8e94c0260801c5b6000836280000016600f0b1315613ec0577001000000000058b90bfbe8f71cb4e4b33d0260801c5b6000836240000016600f0b1315613ee857700100000000002c5c85fdf477b662b269450260801c5b6000836220000016600f0b1315613f105770010000000000162e42fefa3ae53369388c0260801c5b6000836210000016600f0b1315613f3857700100000000000b17217f7d1d351a389d400260801c5b6000836208000016600f0b1315613f605770010000000000058b90bfbe8e8b2d3d4ede0260801c5b6000836204000016600f0b1315613f88577001000000000002c5c85fdf4741bea6e77e0260801c5b6000836202000016600f0b1315613fb057700100000000000162e42fefa39fe95583c20260801c5b6000836201000016600f0b1315613fd8577001000000000000b17217f7d1cfb72b45e10260801c5b60008361800016600f0b1315613fff57700100000000000058b90bfbe8e7cc35c3f00260801c5b60008361400016600f0b13156140265770010000000000002c5c85fdf473e242ea380260801c5b60008361200016600f0b131561404d577001000000000000162e42fefa39f02b772c0260801c5b60008361100016600f0b13156140745770010000000000000b17217f7d1cf7d83c1a0260801c5b60008361080016600f0b131561409b577001000000000000058b90bfbe8e7bdcbe2e0260801c5b60008361040016600f0b13156140c257700100000000000002c5c85fdf473dea871f0260801c5b60008361020016600f0b13156140e95770010000000000000162e42fefa39ef44d910260801c5b60008361010016600f0b131561411057700100000000000000b17217f7d1cf79e9490260801c5b600083608016600f0b13156141365770010000000000000058b90bfbe8e7bce5440260801c5b600083604016600f0b131561415c577001000000000000002c5c85fdf473de6eca0260801c5b600083602016600f0b131561418257700100000000000000162e42fefa39ef366f0260801c5b600083601016600f0b13156141a8577001000000000000000b17217f7d1cf79afa0260801c5b600083600816600f0b13156141ce57700100000000000000058b90bfbe8e7bcd6d0260801c5b600083600416600f0b13156141f45770010000000000000002c5c85fdf473de6b20260801c5b600083600216600f0b131561421a577001000000000000000162e42fefa39ef3580260801c5b600083600116600f0b13156142405770010000000000000000b17217f7d1cf79ab0260801c5b600f83810b60401d603f03900b1c60016001607f1b038111156102ef57600080fd5b6000806102ef600a611488565b604051806101200160405280600061ffff16815260200160008152602001600081526020016000815260200160008152602001600081526020016000815260200160008152602001600081525090565b6040518060e001604052806142d261437e565b81526020016142df6143d9565b815260006020820181905260408201819052606082018190526080820181905260a09091015290565b6040805160a08101825260008082526020820181905291810182905260608101829052608081019190915290565b60405180610100016040528060008019168152602001600081526020016000815260200160008152602001600081526020016000815260200160008152602001600081525090565b604080516080810182526000808252602082015290810161439d614441565b8152600060209091015290565b6040805160a0810182526000808252602082018190529181018290529060608201908152602001600081525090565b6040518060800160405280606081526020016060815260200160008152602001600081525090565b6040518060c0016040528060008152602001600081526020016000815260200160008152602001600081526020016000600381111561443c57fe5b905290565b604051806060016040528060006001600160a01b0316815260200160008152602001600081525090565b60405180602001604052806001906020820280368337509192915050565b80356001600160a01b038116811461027657600080fd5b80516001600160701b03198116811461027657600080fd5b8051610276816149f8565b805160ff8116811461027657600080fd5b6000602082840312156144e5578081fd5b61042282614489565b60008060408385031215614500578081fd5b61450983614489565b946020939093013593505050565b600060208284031215614528578081fd5b5051919050565b600060a08284031215614540578081fd5b60405160a0810181811067ffffffffffffffff8211171561455d57fe5b604052825164ffffffffff81168114614574578283fd5b815260208301516001600160f81b031981168114614590578283fd5b60208201526145a1604084016144c3565b60408201526145b2606084016144b8565b60608201526145c3608084016144a0565b60808201529392505050565b6000602082840312156145e0578081fd5b8135610422816149f8565b600080604083850312156145fd578182fd5b8235614608816149f8565b915061236660208401614489565b60008060006060848603121561462a578081fd5b8335614635816149f8565b925061464360208501614489565b915061465160408501614489565b90509250925092565b600080600080600060a08688031215614671578081fd5b853561467c816149f8565b945061468a60208701614489565b935061469860408701614489565b92506146a660608701614489565b949793965091946080013592915050565b600080600080608085870312156146cc578384fd5b84356146d7816149f8565b93506146e560208601614489565b92506146f360408601614489565b9396929550929360600135925050565b6001600160a01b0391909116815260200190565b6001600160a01b039384168152919092166020820152604081019190915260600190565b6001600160a01b03929092168252805164ffffffffff166020808401919091528101516001600160f81b03191660408084019190915281015160ff1660608084019190915281015161ffff1660808084019190915201516001600160701b03191660a082015260c00190565b6001600160a01b03929092168252602082015260400190565b901515815260200190565b90815260200190565b60208082526016908201527513585c9ad95d081b9bdd081a5b9a5d1a585b1a5e995960521b604082015260600190565b60208082526006908201526552656465656d60d01b604082015260600190565b60208082526015908201527410d1ce881b9bc81b585c9ad95d1cc81b1a5cdd1959605a1b604082015260600190565b6020808252600d908201526c092dcecc2d8d2c840d2dcc8caf609b1b604082015260600190565b602080825260169082015275496e73756666696369656e7420616c6c6f77616e636560501b604082015260600190565b6020808252601390820152722ab730baba3437b934bd32b21031b0b63632b960691b604082015260600190565b60208082526016908201527510d1ce881b585c9ad95d081a5b99195e08189bdd5b9960521b604082015260600190565b6020808252600e908201526d125b9d985b1a59081b585c9ad95d60921b604082015260600190565b602080825260059082015264045524332360dc1b604082015260600190565b60208082526008908201526709ccace4086c2e6d60c31b604082015260600190565b60208082526017908201527f43616e6e6f74207472616e7366657220746f2073656c66000000000000000000604082015260600190565b6020808252600a90820152692732b390372a37b5b2b760b11b604082015260600190565b60208082526013908201527210d1ce881b9bc81b585c9ad95d08199bdd5b99606a1b604082015260600190565b61ffff81168114614a0857600080fd5b5056fe536166654d6174683a206d756c7469706c69636174696f6e206f766572666c6f7753616665436173743a2076616c756520646f65736e27742066697420696e20616e20696e74323536a26469706673582212206505d88b40c9660849aa9142be6f02d8a09773204dfb4134e0b8d5507b5dd87a64736f6c63430007060033","language":"Solidity","natspec":{"kind":"dev","methods":{"nTokenBalanceOf(uint16,address)":{"notice":"Get the number of tokens held by the `account`","params":{"account":"The address of the account to get the balance of"},"returns":{"_0":"The number of tokens held"}},"nTokenClaimIncentives()":{"details":"auth:msg.sender","notice":"Claims incentives accrued on all nToken balances and transfers them to the msg.sender","returns":{"_0":"Total amount of incentives claimed"}},"nTokenPresentValueAssetDenominated(uint16)":{"notice":"Returns the present value of the nToken's assets denominated in asset tokens"},"nTokenPresentValueUnderlyingDenominated(uint16)":{"notice":"Returns the present value of the nToken's assets denominated in underlying"},"nTokenTotalSupply(address)":{"notice":"Total number of tokens in circulation","params":{"nTokenAddress":"The address of the nToken"},"returns":{"totalSupply":"number of tokens held"}},"nTokenTransfer(uint16,address,address,uint256)":{"details":"auth:nTokenProxy","notice":"Transfer `amount` tokens from `msg.sender` to `dst`","params":{"amount":"The number of tokens to transfer","from":"The address of the destination account","to":"The address of the destination account"},"returns":{"_0":"Whether or not the transfer succeeded"}},"nTokenTransferAllowance(uint16,address,address)":{"notice":"Get the number of tokens `spender` is approved to spend on behalf of `account`","params":{"currencyId":"Currency id of the nToken account","spender":"The address of the account spending the funds","tokenHolder":"The address of the account holding the funds"},"returns":{"_0":"The number of tokens approved"}},"nTokenTransferApprove(uint16,address,address,uint256)":{"details":"auth:nTokenProxy","notice":"Approve `spender` to transfer up to `amount` from `src`","params":{"amount":"The number of tokens that are approved (2^256-1 means infinite)","currencyId":"Currency id of the nToken account","spender":"The address of the account which may transfer tokens","tokenHolder":"The address of the account holding the funds"},"returns":{"_0":"Whether or not the approval succeeded"}},"nTokenTransferApproveAll(address,uint256)":{"details":"emit:Approvalauth:msg.sender","notice":"Will approve all nToken transfers to the specific sender. This is used for simplifying UX, a user can approve all token transfers to an external exchange or protocol in a single txn. This must be called directly on the Notional contract, not available via the ERC20 proxy.","params":{"amount":"The number of tokens that are approved","spender":"The address of the account which may transfer tokens"},"returns":{"_0":"Whether or not the approval succeeded"}},"nTokenTransferFrom(uint16,address,address,address,uint256)":{"details":"auth:nTokenProxy","notice":"Transfer `amount` tokens from `src` to `dst`","params":{"amount":"The number of tokens to transfer","currencyId":"Currency id of the nToken","from":"The address of the source account","spender":"The address of the original caller","to":"The address of the destination account"},"returns":{"_0":"Whether or not the transfer succeeded"}}},"version":1},"opcodes":"PUSH1 0x80 PUSH1 0x40 MSTORE CALLVALUE DUP1 ISZERO PUSH2 0x10 JUMPI PUSH1 0x0 DUP1 REVERT JUMPDEST POP PUSH1 0x4 CALLDATASIZE LT PUSH2 0xCF JUMPI PUSH1 0x0 CALLDATALOAD PUSH1 0xE0 SHR DUP1 PUSH4 0x6A96E86F GT PUSH2 0x8C JUMPI DUP1 PUSH4 0x884A7092 GT PUSH2 0x66 JUMPI DUP1 PUSH4 0x884A7092 EQ PUSH2 0x199 JUMPI DUP1 PUSH4 0x8DA5CB5B EQ PUSH2 0x1AC JUMPI DUP1 PUSH4 0xA78DBFFF EQ PUSH2 0x1B4 JUMPI DUP1 PUSH4 0xDACA07A6 EQ PUSH2 0x1C7 JUMPI PUSH2 0xCF JUMP JUMPDEST DUP1 PUSH4 0x6A96E86F EQ PUSH2 0x16B JUMPI DUP1 PUSH4 0x7DB31AB9 EQ PUSH2 0x17E JUMPI DUP1 PUSH4 0x82463367 EQ PUSH2 0x191 JUMPI PUSH2 0xCF JUMP JUMPDEST DUP1 PUSH4 0x18AE40D7 EQ PUSH2 0xD4 JUMPI DUP1 PUSH4 0x1A05BCE1 EQ PUSH2 0xFD JUMPI DUP1 PUSH4 0x24A3D622 EQ PUSH2 0x11D JUMPI DUP1 PUSH4 0x2E0ECBA8 EQ PUSH2 0x132 JUMPI DUP1 PUSH4 0x309C00A6 EQ PUSH2 0x145 JUMPI DUP1 PUSH4 0x3B2987B3 EQ PUSH2 0x158 JUMPI JUMPDEST PUSH1 0x0 DUP1 REVERT JUMPDEST PUSH2 0xE7 PUSH2 0xE2 CALLDATASIZE PUSH1 0x4 PUSH2 0x46B7 JUMP JUMPDEST PUSH2 0x1CF JUMP JUMPDEST PUSH1 0x40 MLOAD PUSH2 0xF4 SWAP2 SWAP1 PUSH2 0x47C0 JUMP JUMPDEST PUSH1 0x40 MLOAD DUP1 SWAP2 SUB SWAP1 RETURN JUMPDEST PUSH2 0x110 PUSH2 0x10B CALLDATASIZE PUSH1 0x4 PUSH2 0x45CF JUMP JUMPDEST PUSH2 0x265 JUMP JUMPDEST PUSH1 0x40 MLOAD PUSH2 0xF4 SWAP2 SWAP1 PUSH2 0x47CB JUMP JUMPDEST PUSH2 0x125 PUSH2 0x27B JUMP JUMPDEST PUSH1 0x40 MLOAD PUSH2 0xF4 SWAP2 SWAP1 PUSH2 0x4703 JUMP JUMPDEST PUSH2 0xE7 PUSH2 0x140 CALLDATASIZE PUSH1 0x4 PUSH2 0x44EE JUMP JUMPDEST PUSH2 0x28A JUMP JUMPDEST PUSH2 0xE7 PUSH2 0x153 CALLDATASIZE PUSH1 0x4 PUSH2 0x46B7 JUMP JUMPDEST PUSH2 0x2F5 JUMP JUMPDEST PUSH2 0x110 PUSH2 0x166 CALLDATASIZE PUSH1 0x4 PUSH2 0x45CF JUMP JUMPDEST PUSH2 0x381 JUMP JUMPDEST PUSH2 0x110 PUSH2 0x179 CALLDATASIZE PUSH1 0x4 PUSH2 0x44D4 JUMP JUMPDEST PUSH2 0x3A4 JUMP JUMPDEST PUSH2 0x110 PUSH2 0x18C CALLDATASIZE PUSH1 0x4 PUSH2 0x4616 JUMP JUMPDEST PUSH2 0x3B8 JUMP JUMPDEST PUSH2 0x125 PUSH2 0x429 JUMP JUMPDEST PUSH2 0xE7 PUSH2 0x1A7 CALLDATASIZE PUSH1 0x4 PUSH2 0x465A JUMP JUMPDEST PUSH2 0x438 JUMP JUMPDEST PUSH2 0x125 PUSH2 0x5CC JUMP JUMPDEST PUSH2 0x110 PUSH2 0x1C2 CALLDATASIZE PUSH1 0x4 PUSH2 0x45EB JUMP JUMPDEST PUSH2 0x5E3 JUMP JUMPDEST PUSH2 0x110 PUSH2 0x607 JUMP JUMPDEST PUSH1 0x0 DUP1 PUSH2 0x1DF DUP7 PUSH2 0xFFFF AND PUSH2 0x6C7 JUMP JUMPDEST SWAP1 POP CALLER PUSH1 0x1 PUSH1 0x1 PUSH1 0xA0 SHL SUB DUP3 AND EQ PUSH2 0x212 JUMPI PUSH1 0x40 MLOAD PUSH3 0x461BCD PUSH1 0xE5 SHL DUP2 MSTORE PUSH1 0x4 ADD PUSH2 0x209 SWAP1 PUSH2 0x48AA JUMP JUMPDEST PUSH1 0x40 MLOAD DUP1 SWAP2 SUB SWAP1 REVERT JUMPDEST DUP4 PUSH1 0x1 PUSH1 0x1 PUSH1 0xA0 SHL SUB AND DUP6 PUSH1 0x1 PUSH1 0x1 PUSH1 0xA0 SHL SUB AND EQ ISZERO PUSH2 0x244 JUMPI PUSH1 0x40 MLOAD PUSH3 0x461BCD PUSH1 0xE5 SHL DUP2 MSTORE PUSH1 0x4 ADD PUSH2 0x209 SWAP1 PUSH2 0x4970 JUMP JUMPDEST PUSH2 0x24D DUP5 PUSH2 0x6ED JUMP JUMPDEST PUSH2 0x259 DUP7 DUP7 DUP7 DUP7 PUSH2 0x73C JUMP JUMPDEST SWAP2 POP POP JUMPDEST SWAP5 SWAP4 POP POP POP POP JUMP JUMPDEST PUSH1 0x0 DUP1 PUSH2 0x271 DUP4 PUSH2 0x8F7 JUMP JUMPDEST POP SWAP2 POP POP JUMPDEST SWAP2 SWAP1 POP JUMP JUMPDEST PUSH1 0x2 SLOAD PUSH1 0x1 PUSH1 0x1 PUSH1 0xA0 SHL SUB AND DUP2 JUMP JUMPDEST CALLER PUSH1 0x0 DUP2 DUP2 MSTORE PUSH1 0x4 PUSH1 0x20 SWAP1 DUP2 MSTORE PUSH1 0x40 DUP1 DUP4 KECCAK256 PUSH1 0x1 PUSH1 0x1 PUSH1 0xA0 SHL SUB DUP8 AND DUP1 DUP6 MSTORE SWAP3 MSTORE DUP1 DUP4 KECCAK256 DUP6 SWAP1 SSTORE MLOAD SWAP2 SWAP3 SWAP1 SWAP2 PUSH32 0x8C5BE1E5EBEC7D5BD14F71427D1E84F3DD0314C0F7B2291E5B200AC8C7C3B925 SWAP1 PUSH2 0x2E3 SWAP1 DUP7 SWAP1 PUSH2 0x47CB JUMP JUMPDEST PUSH1 0x40 MLOAD DUP1 SWAP2 SUB SWAP1 LOG3 POP PUSH1 0x1 JUMPDEST SWAP3 SWAP2 POP POP JUMP JUMPDEST PUSH1 0x0 DUP1 PUSH2 0x305 DUP7 PUSH2 0xFFFF AND PUSH2 0x6C7 JUMP JUMPDEST SWAP1 POP CALLER PUSH1 0x1 PUSH1 0x1 PUSH1 0xA0 SHL SUB DUP3 AND EQ PUSH2 0x32F JUMPI PUSH1 0x40 MLOAD PUSH3 0x461BCD PUSH1 0xE5 SHL DUP2 MSTORE PUSH1 0x4 ADD PUSH2 0x209 SWAP1 PUSH2 0x48AA JUMP JUMPDEST PUSH1 0x1 PUSH1 0x1 PUSH1 0xA0 SHL SUB DUP6 AND PUSH2 0x342 JUMPI PUSH1 0x0 DUP1 REVERT JUMPDEST POP POP PUSH1 0x1 PUSH1 0x1 PUSH1 0xA0 SHL SUB SWAP3 DUP4 AND PUSH1 0x0 SWAP1 DUP2 MSTORE PUSH1 0x5 PUSH1 0x20 SWAP1 DUP2 MSTORE PUSH1 0x40 DUP1 DUP4 KECCAK256 SWAP5 SWAP1 SWAP6 AND DUP3 MSTORE SWAP3 DUP4 MSTORE DUP4 DUP2 KECCAK256 PUSH2 0xFFFF SWAP6 SWAP1 SWAP6 AND DUP2 MSTORE SWAP4 SWAP1 SWAP2 MSTORE SWAP2 KECCAK256 SSTORE PUSH1 0x1 SWAP1 JUMP JUMPDEST PUSH1 0x0 DUP1 PUSH1 0x0 PUSH2 0x38F DUP5 PUSH2 0x8F7 JUMP JUMPDEST DUP1 MLOAD PUSH1 0x40 ADD MLOAD SWAP2 SWAP4 POP SWAP2 POP PUSH2 0x25D SWAP1 DUP4 PUSH2 0x92C JUMP JUMPDEST PUSH1 0x0 PUSH2 0x3AF DUP3 PUSH2 0x95D JUMP JUMPDEST POP SWAP1 SWAP4 SWAP3 POP POP POP JUMP JUMPDEST PUSH1 0x1 PUSH1 0x1 PUSH1 0xA0 SHL SUB DUP1 DUP4 AND PUSH1 0x0 SWAP1 DUP2 MSTORE PUSH1 0x5 PUSH1 0x20 SWAP1 DUP2 MSTORE PUSH1 0x40 DUP1 DUP4 KECCAK256 SWAP4 DUP6 AND DUP4 MSTORE SWAP3 DUP2 MSTORE DUP3 DUP3 KECCAK256 PUSH2 0xFFFF DUP8 AND DUP4 MSTORE SWAP1 MSTORE SWAP1 DUP2 KECCAK256 SLOAD DUP1 ISZERO PUSH2 0x3F9 JUMPI SWAP1 POP PUSH2 0x422 JUMP JUMPDEST POP POP PUSH1 0x1 PUSH1 0x1 PUSH1 0xA0 SHL SUB DUP1 DUP4 AND PUSH1 0x0 SWAP1 DUP2 MSTORE PUSH1 0x4 PUSH1 0x20 SWAP1 DUP2 MSTORE PUSH1 0x40 DUP1 DUP4 KECCAK256 SWAP4 DUP6 AND DUP4 MSTORE SWAP3 SWAP1 MSTORE KECCAK256 SLOAD JUMPDEST SWAP4 SWAP3 POP POP POP JUMP JUMPDEST PUSH1 0x1 SLOAD PUSH1 0x1 PUSH1 0x1 PUSH1 0xA0 SHL SUB AND DUP2 JUMP JUMPDEST PUSH1 0x0 DUP1 PUSH2 0x448 DUP8 PUSH2 0xFFFF AND PUSH2 0x6C7 JUMP JUMPDEST SWAP1 POP CALLER PUSH1 0x1 PUSH1 0x1 PUSH1 0xA0 SHL SUB DUP3 AND EQ PUSH2 0x472 JUMPI PUSH1 0x40 MLOAD PUSH3 0x461BCD PUSH1 0xE5 SHL DUP2 MSTORE PUSH1 0x4 ADD PUSH2 0x209 SWAP1 PUSH2 0x48AA JUMP JUMPDEST DUP4 PUSH1 0x1 PUSH1 0x1 PUSH1 0xA0 SHL SUB AND DUP6 PUSH1 0x1 PUSH1 0x1 PUSH1 0xA0 SHL SUB AND EQ ISZERO PUSH2 0x4A4 JUMPI PUSH1 0x40 MLOAD PUSH3 0x461BCD PUSH1 0xE5 SHL DUP2 MSTORE PUSH1 0x4 ADD PUSH2 0x209 SWAP1 PUSH2 0x4970 JUMP JUMPDEST PUSH2 0x4AD DUP5 PUSH2 0x6ED JUMP JUMPDEST PUSH1 0x1 PUSH1 0x1 PUSH1 0xA0 SHL SUB DUP1 DUP7 AND PUSH1 0x0 SWAP1 DUP2 MSTORE PUSH1 0x5 PUSH1 0x20 SWAP1 DUP2 MSTORE PUSH1 0x40 DUP1 DUP4 KECCAK256 SWAP4 DUP11 AND DUP4 MSTORE SWAP3 DUP2 MSTORE DUP3 DUP3 KECCAK256 PUSH2 0xFFFF DUP12 AND DUP4 MSTORE SWAP1 MSTORE KECCAK256 SLOAD DUP1 ISZERO PUSH2 0x540 JUMPI DUP4 DUP2 LT ISZERO PUSH2 0x505 JUMPI PUSH1 0x40 MLOAD PUSH3 0x461BCD PUSH1 0xE5 SHL DUP2 MSTORE PUSH1 0x4 ADD PUSH2 0x209 SWAP1 PUSH2 0x487A JUMP JUMPDEST PUSH1 0x1 PUSH1 0x1 PUSH1 0xA0 SHL SUB DUP1 DUP8 AND PUSH1 0x0 SWAP1 DUP2 MSTORE PUSH1 0x5 PUSH1 0x20 SWAP1 DUP2 MSTORE PUSH1 0x40 DUP1 DUP4 KECCAK256 SWAP4 DUP12 AND DUP4 MSTORE SWAP3 DUP2 MSTORE DUP3 DUP3 KECCAK256 PUSH2 0xFFFF DUP13 AND DUP4 MSTORE SWAP1 MSTORE KECCAK256 DUP5 DUP3 SUB SWAP1 SSTORE PUSH2 0x5B2 JUMP JUMPDEST POP PUSH1 0x1 PUSH1 0x1 PUSH1 0xA0 SHL SUB DUP1 DUP7 AND PUSH1 0x0 SWAP1 DUP2 MSTORE PUSH1 0x4 PUSH1 0x20 SWAP1 DUP2 MSTORE PUSH1 0x40 DUP1 DUP4 KECCAK256 SWAP4 DUP11 AND DUP4 MSTORE SWAP3 SWAP1 MSTORE KECCAK256 SLOAD DUP4 DUP2 LT ISZERO PUSH2 0x587 JUMPI PUSH1 0x40 MLOAD PUSH3 0x461BCD PUSH1 0xE5 SHL DUP2 MSTORE PUSH1 0x4 ADD PUSH2 0x209 SWAP1 PUSH2 0x487A JUMP JUMPDEST PUSH1 0x1 PUSH1 0x1 PUSH1 0xA0 SHL SUB DUP1 DUP8 AND PUSH1 0x0 SWAP1 DUP2 MSTORE PUSH1 0x4 PUSH1 0x20 SWAP1 DUP2 MSTORE PUSH1 0x40 DUP1 DUP4 KECCAK256 SWAP4 DUP12 AND DUP4 MSTORE SWAP3 SWAP1 MSTORE KECCAK256 DUP5 DUP3 SUB SWAP1 SSTORE JUMPDEST PUSH2 0x5BE DUP9 DUP8 DUP8 DUP8 PUSH2 0x73C JUMP JUMPDEST SWAP3 POP POP POP JUMPDEST SWAP6 SWAP5 POP POP POP POP POP JUMP JUMPDEST PUSH1 0x0 SLOAD PUSH5 0x100000000 SWAP1 DIV PUSH1 0x1 PUSH1 0x1 PUSH1 0xA0 SHL SUB AND DUP2 JUMP JUMPDEST PUSH1 0x0 DUP1 PUSH2 0x5F4 DUP4 DUP6 PUSH2 0xFFFF AND PUSH2 0x9B9 JUMP JUMPDEST POP POP SWAP2 POP POP PUSH1 0x0 DUP2 SLT ISZERO PUSH2 0x422 JUMPI PUSH1 0x0 DUP1 REVERT JUMPDEST PUSH1 0x0 CALLER DUP2 PUSH2 0x614 DUP3 PUSH2 0xA42 JUMP JUMPDEST SWAP1 POP PUSH1 0x0 PUSH2 0x620 PUSH2 0x426F JUMP JUMPDEST PUSH2 0x629 DUP4 PUSH2 0xAE3 JUMP JUMPDEST ISZERO PUSH2 0x65B JUMPI PUSH1 0x60 DUP4 ADD MLOAD PUSH2 0x641 SWAP1 DUP3 SWAP1 DUP7 SWAP1 DUP7 PUSH2 0xAF0 JUMP JUMPDEST PUSH1 0x0 DUP2 PUSH1 0x40 ADD MLOAD SGT ISZERO PUSH2 0x65B JUMPI PUSH2 0x658 DUP2 DUP6 PUSH2 0xB96 JUMP JUMPDEST SWAP2 POP JUMPDEST PUSH1 0x80 DUP4 ADD MLOAD JUMPDEST PUSH1 0x1 PUSH1 0x1 PUSH1 0x70 SHL SUB NOT DUP2 AND ISZERO PUSH2 0x6BD JUMPI PUSH1 0xF0 DUP2 SWAP1 SHR PUSH2 0x3FFF AND PUSH2 0x686 DUP4 DUP8 DUP4 DUP9 PUSH2 0xAF0 JUMP JUMPDEST PUSH1 0x0 DUP4 PUSH1 0x40 ADD MLOAD SGT ISZERO PUSH2 0x6AA JUMPI PUSH2 0x6A7 PUSH2 0x6A0 DUP5 DUP9 PUSH2 0xB96 JUMP JUMPDEST DUP6 SWAP1 PUSH2 0xBCC JUMP JUMPDEST SWAP4 POP JUMPDEST POP PUSH1 0x10 SHL PUSH1 0x1 PUSH1 0x1 PUSH1 0x80 SHL SUB NOT AND PUSH2 0x661 JUMP JUMPDEST POP SWAP1 SWAP4 POP POP POP POP SWAP1 JUMP JUMPDEST PUSH1 0x0 DUP1 PUSH2 0x6D2 PUSH2 0xC26 JUMP JUMPDEST PUSH1 0x0 SWAP4 DUP5 MSTORE PUSH1 0x20 MSTORE POP POP PUSH1 0x40 SWAP1 KECCAK256 SLOAD PUSH1 0x1 PUSH1 0x1 PUSH1 0xA0 SHL SUB AND SWAP1 JUMP JUMPDEST PUSH1 0x1 PUSH1 0x1 PUSH1 0xA0 SHL SUB DUP2 AND PUSH2 0x700 JUMPI PUSH1 0x0 DUP1 REVERT JUMPDEST PUSH1 0x1 PUSH1 0x1 PUSH1 0xA0 SHL SUB DUP2 AND ADDRESS EQ ISZERO PUSH2 0x716 JUMPI PUSH1 0x0 DUP1 REVERT JUMPDEST PUSH1 0x0 PUSH2 0x721 DUP3 PUSH2 0xC33 JUMP JUMPDEST POP POP POP POP PUSH2 0xFFFF AND SWAP1 POP DUP1 PUSH1 0x0 EQ PUSH2 0x738 JUMPI PUSH1 0x0 DUP1 REVERT JUMPDEST POP POP JUMP JUMPDEST PUSH1 0x0 DUP1 PUSH2 0x748 DUP4 PUSH2 0xC9C JUMP JUMPDEST SWAP1 POP PUSH1 0x0 PUSH2 0x755 DUP7 PUSH2 0xA42 JUMP JUMPDEST SWAP1 POP PUSH2 0x760 DUP2 PUSH2 0xCE4 JUMP JUMPDEST ISZERO PUSH2 0x7F1 JUMPI PUSH1 0x40 MLOAD PUSH4 0x37B5FC21 PUSH1 0xE1 SHL DUP2 MSTORE PUSH20 0x0 SWAP1 PUSH4 0x6F6BF842 SWAP1 PUSH2 0x79E SWAP1 DUP10 SWAP1 DUP6 SWAP1 PUSH1 0x4 ADD PUSH2 0x473B JUMP JUMPDEST PUSH1 0xA0 PUSH1 0x40 MLOAD DUP1 DUP4 SUB DUP2 DUP7 DUP1 EXTCODESIZE ISZERO DUP1 ISZERO PUSH2 0x7B6 JUMPI PUSH1 0x0 DUP1 REVERT JUMPDEST POP GAS DELEGATECALL ISZERO DUP1 ISZERO PUSH2 0x7CA JUMPI RETURNDATASIZE PUSH1 0x0 DUP1 RETURNDATACOPY RETURNDATASIZE PUSH1 0x0 REVERT JUMPDEST POP POP POP POP PUSH1 0x40 MLOAD RETURNDATASIZE PUSH1 0x1F NOT PUSH1 0x1F DUP3 ADD AND DUP3 ADD DUP1 PUSH1 0x40 MSTORE POP DUP2 ADD SWAP1 PUSH2 0x7EE SWAP2 SWAP1 PUSH2 0x452F JUMP JUMPDEST SWAP1 POP JUMPDEST PUSH2 0x7F9 PUSH2 0x426F JUMP JUMPDEST PUSH2 0x805 DUP2 DUP9 DUP11 DUP6 PUSH2 0xAF0 JUMP JUMPDEST PUSH2 0x80E DUP4 PUSH2 0xD38 JUMP JUMPDEST PUSH1 0xA0 DUP3 ADD MSTORE PUSH2 0x820 DUP2 DUP9 DUP5 PUSH1 0x0 PUSH2 0xD46 JUMP JUMPDEST POP PUSH2 0x82B DUP3 DUP9 PUSH2 0xFB7 JUMP JUMPDEST PUSH1 0x0 PUSH2 0x836 DUP8 PUSH2 0xA42 JUMP JUMPDEST SWAP1 POP PUSH2 0x840 PUSH2 0x426F JUMP JUMPDEST PUSH2 0x84C DUP2 DUP10 DUP13 DUP6 PUSH2 0xAF0 JUMP JUMPDEST PUSH1 0xA0 DUP2 ADD DUP6 SWAP1 MSTORE PUSH2 0x860 DUP2 DUP10 DUP5 PUSH1 0x0 PUSH2 0xD46 JUMP JUMPDEST POP PUSH2 0x86B DUP3 DUP10 PUSH2 0xFB7 JUMP JUMPDEST PUSH1 0x20 DUP5 ADD MLOAD PUSH1 0x1 PUSH1 0x1 PUSH1 0xF8 SHL SUB NOT AND ISZERO PUSH2 0x8E7 JUMPI PUSH1 0x40 MLOAD PUSH4 0x6CCC642F PUSH1 0xE0 SHL DUP2 MSTORE PUSH20 0x0 SWAP1 PUSH4 0x6CCC642F SWAP1 PUSH2 0x8B6 SWAP1 DUP13 SWAP1 PUSH1 0x4 ADD PUSH2 0x4703 JUMP JUMPDEST PUSH1 0x0 PUSH1 0x40 MLOAD DUP1 DUP4 SUB DUP2 DUP7 DUP1 EXTCODESIZE ISZERO DUP1 ISZERO PUSH2 0x8CE JUMPI PUSH1 0x0 DUP1 REVERT JUMPDEST POP GAS DELEGATECALL ISZERO DUP1 ISZERO PUSH2 0x8E2 JUMPI RETURNDATASIZE PUSH1 0x0 DUP1 RETURNDATACOPY RETURNDATASIZE PUSH1 0x0 REVERT JUMPDEST POP POP POP POP JUMPDEST POP PUSH1 0x1 SWAP10 SWAP9 POP POP POP POP POP POP POP POP POP JUMP JUMPDEST PUSH1 0x0 PUSH2 0x901 PUSH2 0x42BF JUMP JUMPDEST TIMESTAMP PUSH2 0x90A PUSH2 0x42BF JUMP JUMPDEST PUSH2 0x914 DUP2 DUP7 PUSH2 0x10BB JUMP JUMPDEST PUSH1 0x0 PUSH2 0x920 DUP3 DUP5 PUSH2 0x10D4 JUMP JUMPDEST SWAP5 POP SWAP1 SWAP3 POP POP POP SWAP2 POP SWAP2 JUMP JUMPDEST PUSH1 0x0 DUP1 PUSH2 0x25D DUP5 PUSH1 0x40 ADD MLOAD PUSH2 0x957 PUSH5 0x2540BE400 PUSH2 0x957 DUP8 DUP10 PUSH1 0x20 ADD MLOAD PUSH2 0x11BB SWAP1 SWAP2 SWAP1 PUSH4 0xFFFFFFFF AND JUMP JUMPDEST SWAP1 PUSH2 0x1209 JUMP JUMPDEST PUSH1 0x0 DUP1 PUSH1 0x0 DUP1 PUSH2 0x96B PUSH2 0x123A JUMP JUMPDEST PUSH1 0x1 PUSH1 0x1 PUSH1 0xA0 SHL SUB SWAP6 SWAP1 SWAP6 AND PUSH1 0x0 SWAP1 DUP2 MSTORE PUSH1 0x20 SWAP6 SWAP1 SWAP6 MSTORE POP POP PUSH1 0x40 SWAP1 SWAP3 KECCAK256 SLOAD PUSH1 0x1 PUSH1 0x1 PUSH1 0x60 SHL SUB DUP2 AND SWAP4 PUSH1 0x1 PUSH1 0x60 SHL DUP3 DIV PUSH1 0x1 PUSH1 0x1 PUSH1 0x80 SHL SUB AND SWAP4 POP PUSH1 0x1 PUSH1 0xE0 SHL SWAP1 SWAP2 DIV PUSH4 0xFFFFFFFF AND SWAP2 POP JUMP JUMPDEST PUSH1 0x0 DUP1 PUSH1 0x0 DUP1 PUSH1 0x0 PUSH2 0x9C9 PUSH2 0x1247 JUMP JUMPDEST PUSH1 0x1 PUSH1 0x1 PUSH1 0xA0 SHL SUB DUP9 AND PUSH1 0x0 SWAP1 DUP2 MSTORE PUSH1 0x20 DUP3 DUP2 MSTORE PUSH1 0x40 DUP1 DUP4 KECCAK256 DUP11 DUP5 MSTORE SWAP1 SWAP2 MSTORE SWAP1 KECCAK256 DUP1 SLOAD PUSH1 0x1 PUSH1 0x1 PUSH1 0x50 SHL SUB DUP2 AND SWAP7 POP PUSH1 0x1 PUSH1 0x50 SHL DUP2 DIV PUSH4 0xFFFFFFFF AND SWAP6 POP SWAP2 SWAP3 POP SWAP1 PUSH2 0xA24 SWAP1 PUSH1 0x1 PUSH1 0x70 SHL SWAP1 DIV PUSH7 0xFFFFFFFFFFFFFF AND PUSH2 0x1254 JUMP JUMPDEST SWAP1 SLOAD PUSH1 0x1 PUSH1 0xA8 SHL SWAP1 DIV PUSH1 0xA SWAP1 DUP2 SIGNEXTEND SWAP1 SIGNEXTEND SWAP9 SWAP5 SWAP8 POP SWAP3 SWAP6 POP SWAP2 SWAP4 POP POP POP JUMP JUMPDEST PUSH2 0xA4A PUSH2 0x4308 JUMP JUMPDEST PUSH1 0x0 PUSH2 0xA54 PUSH2 0x1262 JUMP JUMPDEST PUSH1 0x1 PUSH1 0x1 PUSH1 0xA0 SHL SUB SWAP4 SWAP1 SWAP4 AND PUSH1 0x0 SWAP1 DUP2 MSTORE PUSH1 0x20 SWAP4 DUP5 MSTORE PUSH1 0x40 SWAP1 DUP2 SWAP1 KECCAK256 DUP2 MLOAD PUSH1 0xA0 DUP2 ADD DUP4 MSTORE SWAP1 SLOAD PUSH5 0xFFFFFFFFFF DUP2 AND DUP3 MSTORE PUSH6 0x10000000000 DUP2 DIV PUSH1 0xF8 SHL PUSH1 0x1 PUSH1 0x1 PUSH1 0xF8 SHL SUB NOT AND SWAP6 DUP3 ADD SWAP6 SWAP1 SWAP6 MSTORE PUSH1 0x1 PUSH1 0x30 SHL DUP6 DIV PUSH1 0xFF AND SWAP2 DUP2 ADD SWAP2 SWAP1 SWAP2 MSTORE PUSH1 0x1 PUSH1 0x38 SHL DUP5 DIV PUSH2 0xFFFF AND PUSH1 0x60 DUP3 ADD MSTORE PUSH1 0x1 PUSH1 0x48 SHL SWAP1 SWAP4 DIV PUSH1 0x70 SHL PUSH1 0x1 PUSH1 0x1 PUSH1 0x70 SHL SUB NOT AND PUSH1 0x80 DUP5 ADD MSTORE POP SWAP1 SWAP2 SWAP1 POP JUMP JUMPDEST PUSH1 0x60 ADD MLOAD PUSH2 0xFFFF AND ISZERO ISZERO SWAP1 JUMP JUMPDEST DUP2 PUSH2 0xFFFF AND PUSH1 0x0 LT DUP1 ISZERO PUSH2 0xB0A JUMPI POP PUSH2 0x3FFF PUSH2 0xFFFF DUP4 AND GT ISZERO JUMPDEST PUSH2 0xB13 JUMPI PUSH1 0x0 DUP1 REVERT JUMPDEST PUSH2 0xFFFF DUP3 AND DUP1 DUP6 MSTORE PUSH2 0xB26 SWAP1 DUP3 SWAP1 PUSH2 0x126F JUMP JUMPDEST ISZERO PUSH2 0xB53 JUMPI PUSH2 0xB39 DUP4 DUP4 PUSH2 0xFFFF AND PUSH2 0x9B9 JUMP JUMPDEST PUSH2 0x100 DUP9 ADD MSTORE PUSH1 0xE0 DUP8 ADD MSTORE PUSH1 0x40 DUP7 ADD MSTORE PUSH1 0x20 DUP6 ADD MSTORE PUSH2 0xB71 JUMP JUMPDEST PUSH1 0x0 PUSH1 0x20 DUP6 ADD DUP2 SWAP1 MSTORE PUSH1 0x40 DUP6 ADD DUP2 SWAP1 MSTORE PUSH1 0xE0 DUP6 ADD DUP2 SWAP1 MSTORE PUSH2 0x100 DUP6 ADD MSTORE JUMPDEST POP POP PUSH1 0x0 PUSH1 0x60 DUP4 ADD DUP2 SWAP1 MSTORE PUSH1 0x80 DUP4 ADD DUP2 SWAP1 MSTORE PUSH1 0xA0 DUP4 ADD DUP2 SWAP1 MSTORE PUSH1 0xC0 SWAP1 SWAP3 ADD SWAP2 SWAP1 SWAP2 MSTORE POP JUMP JUMPDEST PUSH1 0x0 DUP1 PUSH2 0xBA3 DUP5 DUP5 PUSH2 0x12F9 JUMP JUMPDEST SWAP1 POP PUSH2 0x422 DUP4 DUP6 PUSH1 0x0 ADD MLOAD PUSH2 0xFFFF AND DUP7 PUSH1 0x20 ADD MLOAD DUP8 PUSH1 0x40 ADD MLOAD DUP9 PUSH1 0xE0 ADD MLOAD DUP10 PUSH2 0x100 ADD MLOAD PUSH2 0x136A JUMP JUMPDEST PUSH1 0x0 DUP3 DUP3 ADD DUP4 DUP2 LT ISZERO PUSH2 0x422 JUMPI PUSH1 0x40 DUP1 MLOAD PUSH3 0x461BCD PUSH1 0xE5 SHL DUP2 MSTORE PUSH1 0x20 PUSH1 0x4 DUP3 ADD MSTORE PUSH1 0x1B PUSH1 0x24 DUP3 ADD MSTORE PUSH32 0x536166654D6174683A206164646974696F6E206F766572666C6F770000000000 PUSH1 0x44 DUP3 ADD MSTORE SWAP1 MLOAD SWAP1 DUP2 SWAP1 SUB PUSH1 0x64 ADD SWAP1 REVERT JUMPDEST PUSH1 0x0 DUP1 PUSH2 0x2EF PUSH1 0x3 PUSH2 0x1488 JUMP JUMPDEST PUSH1 0x0 DUP1 PUSH1 0x0 DUP1 PUSH1 0x0 DUP1 PUSH2 0xC44 PUSH2 0x14A1 JUMP JUMPDEST PUSH1 0x1 PUSH1 0x1 PUSH1 0xA0 SHL SUB SWAP1 SWAP8 AND PUSH1 0x0 SWAP1 DUP2 MSTORE PUSH1 0x20 SWAP8 SWAP1 SWAP8 MSTORE POP POP PUSH1 0x40 SWAP1 SWAP5 KECCAK256 SLOAD PUSH2 0xFFFF DUP2 AND SWAP6 PUSH4 0xFFFFFFFF PUSH3 0x10000 DUP4 DIV DUP2 AND SWAP7 POP PUSH1 0x1 PUSH1 0x30 SHL DUP4 DIV AND SWAP5 POP PUSH1 0xFF PUSH1 0x1 PUSH1 0x50 SHL DUP4 DIV AND SWAP4 POP PUSH1 0x1 PUSH1 0x58 SHL SWAP1 SWAP2 DIV PUSH1 0xD8 SHL SWAP2 POP JUMP JUMPDEST PUSH1 0x0 PUSH1 0x1 PUSH1 0xFF SHL DUP3 LT PUSH2 0xCE0 JUMPI PUSH1 0x40 MLOAD PUSH3 0x461BCD PUSH1 0xE5 SHL DUP2 MSTORE PUSH1 0x4 ADD DUP1 DUP1 PUSH1 0x20 ADD DUP3 DUP2 SUB DUP3 MSTORE PUSH1 0x28 DUP2 MSTORE PUSH1 0x20 ADD DUP1 PUSH2 0x4A2D PUSH1 0x28 SWAP2 CODECOPY PUSH1 0x40 ADD SWAP2 POP POP PUSH1 0x40 MLOAD DUP1 SWAP2 SUB SWAP1 REVERT JUMPDEST POP SWAP1 JUMP JUMPDEST PUSH1 0x0 TIMESTAMP PUSH2 0xCF0 DUP4 PUSH2 0xAE3 JUMP JUMPDEST ISZERO PUSH2 0xD11 JUMPI PUSH2 0xCFE DUP2 PUSH2 0x14AE JUMP JUMPDEST DUP4 MLOAD PUSH5 0xFFFFFFFFFF AND LT SWAP2 POP PUSH2 0x276 SWAP1 POP JUMP JUMPDEST DUP3 MLOAD PUSH5 0xFFFFFFFFFF AND ISZERO DUP1 ISZERO SWAP1 PUSH2 0xD30 JUMPI POP DUP3 MLOAD PUSH5 0xFFFFFFFFFF AND DUP2 LT ISZERO JUMPDEST SWAP2 POP POP PUSH2 0x276 JUMP JUMPDEST PUSH1 0x0 PUSH2 0x2EF PUSH1 0x0 NOT DUP4 PUSH2 0x11BB JUMP JUMPDEST PUSH1 0x0 DUP1 PUSH1 0x0 DUP7 PUSH1 0xA0 ADD MLOAD SLT ISZERO PUSH2 0xD9F JUMPI PUSH1 0x0 PUSH2 0xD81 DUP8 PUSH1 0xA0 ADD MLOAD PUSH2 0xD7B DUP10 PUSH1 0xC0 ADD MLOAD DUP11 PUSH1 0x40 ADD MLOAD PUSH2 0x14CF SWAP1 SWAP2 SWAP1 PUSH4 0xFFFFFFFF AND JUMP JUMPDEST SWAP1 PUSH2 0x14CF JUMP JUMPDEST SLT ISZERO PUSH2 0xD9F JUMPI PUSH1 0x40 MLOAD PUSH3 0x461BCD PUSH1 0xE5 SHL DUP2 MSTORE PUSH1 0x4 ADD PUSH2 0x209 SWAP1 PUSH2 0x49A7 JUMP JUMPDEST PUSH1 0x0 DUP7 PUSH1 0x80 ADD MLOAD SLT ISZERO PUSH2 0xDEF JUMPI PUSH1 0x0 PUSH2 0xDD1 DUP8 PUSH1 0x80 ADD MLOAD PUSH2 0xD7B DUP10 PUSH1 0x60 ADD MLOAD DUP11 PUSH1 0x20 ADD MLOAD PUSH2 0x14CF SWAP1 SWAP2 SWAP1 PUSH4 0xFFFFFFFF AND JUMP JUMPDEST SLT ISZERO PUSH2 0xDEF JUMPI PUSH1 0x40 MLOAD PUSH3 0x461BCD PUSH1 0xE5 SHL DUP2 MSTORE PUSH1 0x4 ADD PUSH2 0x209 SWAP1 PUSH2 0x494E JUMP JUMPDEST PUSH2 0xDFA DUP7 DUP7 DUP6 PUSH2 0x14E5 JUMP JUMPDEST PUSH1 0x80 DUP9 ADD DUP2 SWAP1 MSTORE PUSH1 0x60 DUP9 ADD MLOAD SWAP2 SWAP4 POP PUSH1 0x0 SWAP2 PUSH2 0xE15 SWAP2 PUSH2 0x14CF JUMP JUMPDEST SWAP1 POP DUP1 ISZERO PUSH2 0xE82 JUMPI PUSH1 0x20 DUP8 ADD MLOAD PUSH2 0xE2C SWAP1 DUP3 PUSH2 0x14CF JUMP JUMPDEST PUSH1 0x20 DUP9 ADD MSTORE DUP7 MLOAD PUSH1 0x40 MLOAD PUSH1 0x1 SWAP4 POP PUSH2 0xFFFF SWAP1 SWAP2 AND SWAP1 PUSH1 0x1 PUSH1 0x1 PUSH1 0xA0 SHL SUB DUP9 AND SWAP1 PUSH32 0x5441E4A5FAC93A951D782E6F1CDB82E95C8FC58561A013953D17E395C5E69B4B SWAP1 PUSH2 0xE79 SWAP1 DUP6 SWAP1 PUSH2 0x47CB JUMP JUMPDEST PUSH1 0x40 MLOAD DUP1 SWAP2 SUB SWAP1 LOG3 JUMPDEST PUSH1 0xA0 DUP8 ADD MLOAD ISZERO ISZERO DUP1 PUSH2 0xE97 JUMPI POP PUSH1 0xC0 DUP8 ADD MLOAD ISZERO ISZERO JUMPDEST ISZERO PUSH2 0xF2D JUMPI PUSH2 0xEA6 DUP8 DUP8 PUSH2 0x12F9 JUMP JUMPDEST POP PUSH2 0xECA DUP8 PUSH1 0xC0 ADD MLOAD PUSH2 0xD7B DUP10 PUSH1 0xA0 ADD MLOAD DUP11 PUSH1 0x40 ADD MLOAD PUSH2 0x14CF SWAP1 SWAP2 SWAP1 PUSH4 0xFFFFFFFF AND JUMP JUMPDEST PUSH1 0x40 DUP9 ADD MSTORE PUSH1 0xC0 DUP8 ADD MLOAD ISZERO PUSH2 0xF28 JUMPI DUP7 PUSH1 0x0 ADD MLOAD PUSH2 0xFFFF AND DUP7 PUSH1 0x1 PUSH1 0x1 PUSH1 0xA0 SHL SUB AND PUSH32 0x412BC13D202A2EA5119E55FEC9C5E420DDDB18FAF186373AD9795AD4F4545AA9 DUP10 PUSH1 0xC0 ADD MLOAD PUSH1 0x40 MLOAD PUSH2 0xF1F SWAP2 SWAP1 PUSH2 0x47CB JUMP JUMPDEST PUSH1 0x40 MLOAD DUP1 SWAP2 SUB SWAP1 LOG3 JUMPDEST PUSH1 0x1 SWAP2 POP JUMPDEST DUP2 ISZERO PUSH2 0xF5A JUMPI PUSH2 0xF5A DUP7 DUP9 PUSH1 0x0 ADD MLOAD PUSH2 0xFFFF AND DUP10 PUSH1 0x20 ADD MLOAD DUP11 PUSH1 0x40 ADD MLOAD DUP12 PUSH1 0xE0 ADD MLOAD DUP13 PUSH2 0x100 ADD MLOAD PUSH2 0x136A JUMP JUMPDEST DUP7 MLOAD PUSH1 0x20 DUP9 ADD MLOAD PUSH2 0xF87 SWAP2 PUSH2 0xFFFF AND SWAP1 ISZERO ISZERO DUP1 PUSH2 0xF7A JUMPI POP PUSH1 0x40 DUP10 ADD MLOAD ISZERO ISZERO JUMPDEST DUP8 SWAP2 SWAP1 PUSH1 0x1 PUSH1 0xFE SHL PUSH2 0x15BA JUMP JUMPDEST PUSH1 0x0 DUP8 PUSH1 0x20 ADD MLOAD SLT ISZERO PUSH2 0xFAD JUMPI PUSH1 0x20 DUP6 ADD DUP1 MLOAD PUSH1 0x1 PUSH1 0xF9 SHL OR PUSH1 0x1 PUSH1 0x1 PUSH1 0xF8 SHL SUB NOT AND SWAP1 MSTORE JUMPDEST POP POP SWAP5 SWAP4 POP POP POP POP JUMP JUMPDEST PUSH1 0x0 PUSH2 0xFC1 PUSH2 0x1262 JUMP JUMPDEST PUSH1 0x1 PUSH1 0x1 PUSH1 0xA0 SHL SUB DUP4 AND PUSH1 0x0 DUP2 DUP2 MSTORE PUSH1 0x20 DUP4 DUP2 MSTORE PUSH1 0x40 DUP1 DUP4 KECCAK256 DUP9 MLOAD DUP2 SLOAD SWAP4 DUP11 ADD MLOAD DUP4 DUP12 ADD MLOAD PUSH1 0x60 DUP13 ADD MLOAD PUSH1 0x80 DUP14 ADD MLOAD PUSH1 0x70 SHR PUSH1 0x1 PUSH1 0x48 SHL MUL PUSH27 0xFFFFFFFFFFFFFFFFFFFFFFFFFFFFFFFFFFFF000000000000000000 NOT PUSH2 0xFFFF SWAP1 SWAP3 AND PUSH1 0x1 PUSH1 0x38 SHL MUL PUSH9 0xFFFF00000000000000 NOT PUSH1 0xFF SWAP5 SWAP1 SWAP5 AND PUSH1 0x1 PUSH1 0x30 SHL MUL PUSH7 0xFF000000000000 NOT PUSH1 0xF8 SWAP7 SWAP1 SWAP7 SHR PUSH6 0x10000000000 MUL PUSH6 0xFF0000000000 NOT PUSH5 0xFFFFFFFFFF SWAP1 SWAP9 AND PUSH5 0xFFFFFFFFFF NOT SWAP1 SWAP12 AND SWAP11 SWAP1 SWAP11 OR SWAP7 SWAP1 SWAP7 AND SWAP9 SWAP1 SWAP9 OR SWAP4 SWAP1 SWAP4 AND SWAP4 SWAP1 SWAP4 OR AND SWAP5 SWAP1 SWAP5 OR AND SWAP3 SWAP1 SWAP3 OR SWAP1 SWAP2 SSTORE MLOAD SWAP3 SWAP4 POP SWAP1 SWAP2 PUSH32 0x6BD4B121BCA854A191536A2CA891155C42EE2FB23F307FB34E8BC65CFCB5412E SWAP2 SWAP1 LOG2 POP POP POP JUMP JUMPDEST PUSH2 0x10C5 DUP3 DUP3 PUSH2 0x17C1 JUMP JUMPDEST PUSH2 0x10CE DUP2 PUSH2 0x1864 JUMP JUMPDEST SWAP1 SWAP2 MSTORE POP JUMP JUMPDEST PUSH1 0x0 DUP1 PUSH1 0x0 DUP1 PUSH2 0x10E3 DUP7 PUSH2 0x1887 JUMP JUMPDEST SWAP1 POP DUP5 DUP2 GT PUSH2 0x10F3 JUMPI PUSH1 0x1 DUP2 SUB SWAP5 POP JUMPDEST POP PUSH2 0x10FC PUSH2 0x4336 JUMP JUMPDEST PUSH1 0x0 JUMPDEST PUSH1 0x20 DUP8 ADD MLOAD MLOAD MLOAD DUP2 LT ISZERO PUSH2 0x1152 JUMPI PUSH1 0x0 DUP1 PUSH2 0x112B DUP4 DUP11 PUSH1 0x0 ADD MLOAD DUP7 DUP13 PUSH1 0x20 ADD MLOAD PUSH1 0x0 ADD MLOAD DUP13 PUSH1 0x0 PUSH2 0x18B1 JUMP JUMPDEST SWAP1 SWAP3 POP SWAP1 POP PUSH2 0x113A DUP7 DUP4 PUSH2 0x14CF JUMP JUMPDEST SWAP6 POP PUSH2 0x1146 DUP6 DUP3 PUSH2 0x14CF JUMP JUMPDEST SWAP5 POP POP POP PUSH1 0x1 ADD PUSH2 0x10FF JUMP JUMPDEST POP POP PUSH1 0x0 PUSH2 0x117D DUP7 PUSH1 0xC0 ADD MLOAD DUP8 PUSH1 0x0 ADD MLOAD PUSH1 0x0 ADD MLOAD PUSH2 0xFFFF AND DUP9 PUSH1 0x80 ADD MLOAD DUP9 DUP11 PUSH1 0x0 ADD MLOAD PUSH1 0x0 PUSH2 0x19F9 JUMP JUMPDEST POP SWAP1 POP PUSH2 0x118A DUP3 DUP3 PUSH2 0x14CF JUMP JUMPDEST PUSH1 0x60 DUP8 ADD MLOAD DUP8 MLOAD PUSH1 0x40 ADD MLOAD SWAP2 SWAP4 POP PUSH2 0x11B1 SWAP2 PUSH2 0xD7B SWAP1 PUSH2 0x11AA SWAP1 DUP7 PUSH2 0x1A85 JUMP JUMPDEST DUP7 SWAP1 PUSH2 0x14CF JUMP JUMPDEST SWAP7 SWAP6 POP POP POP POP POP POP JUMP JUMPDEST DUP2 DUP2 MUL PUSH1 0x0 NOT DUP4 EQ ISZERO PUSH2 0x11EB JUMPI DUP2 ISZERO DUP1 PUSH2 0x11DD JUMPI POP DUP3 DUP3 DUP3 DUP2 PUSH2 0x11DA JUMPI INVALID JUMPDEST SDIV EQ JUMPDEST PUSH2 0x11E6 JUMPI PUSH1 0x0 DUP1 REVERT JUMPDEST PUSH2 0x2EF JUMP JUMPDEST DUP3 ISZERO DUP1 PUSH2 0x1200 JUMPI POP DUP2 DUP4 DUP3 DUP2 PUSH2 0x11FD JUMPI INVALID JUMPDEST SDIV EQ JUMPDEST PUSH2 0x2EF JUMPI PUSH1 0x0 DUP1 REVERT JUMPDEST PUSH1 0x0 DUP2 PUSH1 0x0 NOT EQ DUP1 ISZERO PUSH2 0x121F JUMPI POP PUSH1 0x1 PUSH1 0xFF SHL DUP4 EQ JUMPDEST ISZERO PUSH2 0x1229 JUMPI PUSH1 0x0 DUP1 REVERT JUMPDEST DUP2 DUP4 DUP2 PUSH2 0x1232 JUMPI INVALID JUMPDEST SDIV SWAP4 SWAP3 POP POP POP JUMP JUMPDEST PUSH1 0x0 DUP1 PUSH2 0x2EF PUSH1 0xE PUSH2 0x1488 JUMP JUMPDEST PUSH1 0x0 DUP1 PUSH2 0x2EF PUSH1 0x6 PUSH2 0x1488 JUMP JUMPDEST PUSH1 0x8 DUP2 SWAP1 SHR PUSH1 0xFF SWAP1 SWAP2 AND SHL SWAP1 JUMP JUMPDEST PUSH1 0x0 DUP1 PUSH2 0x2EF PUSH1 0x1 PUSH2 0x1488 JUMP JUMPDEST PUSH1 0x0 DUP2 ISZERO DUP1 ISZERO SWAP1 PUSH2 0x1282 JUMPI POP PUSH2 0x3FFF DUP3 GT ISZERO JUMPDEST PUSH2 0x128B JUMPI PUSH1 0x0 DUP1 REVERT JUMPDEST PUSH1 0x80 DUP4 ADD MLOAD PUSH1 0x60 DUP5 ADD MLOAD PUSH2 0xFFFF AND DUP4 EQ ISZERO PUSH2 0x12AA JUMPI PUSH1 0x1 SWAP2 POP POP PUSH2 0x2EF JUMP JUMPDEST PUSH1 0x1 PUSH1 0x1 PUSH1 0x70 SHL SUB NOT DUP2 AND ISZERO PUSH2 0x12EF JUMPI PUSH1 0xF0 DUP2 SWAP1 SHR PUSH2 0x3FFF AND DUP4 DUP2 EQ ISZERO PUSH2 0x12DC JUMPI POP PUSH1 0x1 PUSH1 0xFE SHL SWAP1 DUP2 AND EQ SWAP1 POP PUSH2 0x2EF JUMP JUMPDEST POP PUSH1 0x10 SHL PUSH1 0x1 PUSH1 0x1 PUSH1 0x80 SHL SUB NOT AND PUSH2 0x12AA JUMP JUMPDEST POP PUSH1 0x0 SWAP4 SWAP3 POP POP POP JUMP JUMPDEST DUP2 MLOAD PUSH1 0x0 SWAP1 TIMESTAMP SWAP1 DUP3 SWAP1 PUSH2 0x130F SWAP1 PUSH2 0xFFFF AND PUSH2 0x6C7 JUMP JUMPDEST SWAP1 POP PUSH1 0x0 PUSH2 0x1322 DUP3 DUP8 PUSH1 0xC0 ADD MLOAD DUP6 PUSH2 0x1AB6 JUMP JUMPDEST SWAP1 POP PUSH1 0x0 PUSH2 0x1349 DUP4 PUSH2 0x1337 DUP10 PUSH1 0x40 ADD MLOAD PUSH2 0x1B8F JUMP JUMPDEST DUP10 PUSH1 0xE0 ADD MLOAD DUP11 PUSH2 0x100 ADD MLOAD DUP9 DUP8 PUSH2 0x1B9E JUMP JUMPDEST PUSH1 0xE0 DUP9 ADD DUP6 SWAP1 MSTORE PUSH2 0x100 DUP9 ADD DUP4 SWAP1 MSTORE SWAP1 POP DUP1 ISZERO PUSH2 0x11B1 JUMPI PUSH2 0x11B1 DUP7 DUP3 PUSH2 0x1C45 JUMP JUMPDEST PUSH1 0x0 PUSH2 0x1374 PUSH2 0x1247 JUMP JUMPDEST PUSH1 0x1 PUSH1 0x1 PUSH1 0xA0 SHL SUB DUP9 AND PUSH1 0x0 SWAP1 DUP2 MSTORE PUSH1 0x20 DUP3 DUP2 MSTORE PUSH1 0x40 DUP1 DUP4 KECCAK256 DUP11 DUP5 MSTORE SWAP1 SWAP2 MSTORE SWAP1 KECCAK256 SWAP1 SWAP2 POP PUSH11 0x7FFFFFFFFFFFFFFFFFFFFF NOT DUP7 SLT DUP1 ISZERO SWAP1 PUSH2 0x13BF JUMPI POP PUSH11 0x7FFFFFFFFFFFFFFFFFFFFF DUP7 SGT ISZERO JUMPDEST PUSH2 0x13C8 JUMPI PUSH1 0x0 DUP1 REVERT JUMPDEST PUSH1 0x0 DUP6 SLT ISZERO DUP1 ISZERO PUSH2 0x13E0 JUMPI POP PUSH1 0x1 PUSH1 0x1 PUSH1 0x50 SHL SUB DUP6 SGT ISZERO JUMPDEST PUSH2 0x13E9 JUMPI PUSH1 0x0 DUP1 REVERT JUMPDEST PUSH4 0xFFFFFFFF DUP5 GT ISZERO PUSH2 0x13FA JUMPI PUSH1 0x0 DUP1 REVERT JUMPDEST DUP1 SLOAD PUSH10 0xFFFFFFFFFFFFFFFFFFFF NOT AND PUSH1 0x1 PUSH1 0x1 PUSH1 0x50 SHL SUB DUP7 AND OR PUSH4 0xFFFFFFFF PUSH1 0x50 SHL NOT AND PUSH1 0x1 PUSH1 0x50 SHL PUSH4 0xFFFFFFFF DUP7 AND MUL OR PUSH1 0x1 PUSH1 0x1 PUSH1 0xA8 SHL SUB AND PUSH1 0x1 PUSH1 0xA8 SHL PUSH11 0xFFFFFFFFFFFFFFFFFFFFFF PUSH1 0xA DUP10 SWAP1 SIGNEXTEND AND MUL OR DUP2 SSTORE PUSH2 0x1459 DUP4 PUSH2 0x1C64 JUMP JUMPDEST DUP2 SLOAD PUSH7 0xFFFFFFFFFFFFFF SWAP2 SWAP1 SWAP2 AND PUSH1 0x1 PUSH1 0x70 SHL MUL PUSH7 0xFFFFFFFFFFFFFF PUSH1 0x70 SHL NOT SWAP1 SWAP2 AND OR SWAP1 SSTORE POP POP POP POP POP POP POP JUMP JUMPDEST PUSH1 0x0 PUSH3 0xF4240 DUP3 PUSH1 0x10 DUP2 GT ISZERO PUSH2 0x149A JUMPI INVALID JUMPDEST ADD SWAP3 SWAP2 POP POP JUMP JUMPDEST PUSH1 0x0 DUP1 PUSH2 0x2EF PUSH1 0x2 PUSH2 0x1488 JUMP JUMPDEST PUSH1 0x0 PUSH3 0x15180 DUP3 LT ISZERO PUSH2 0x14C0 JUMPI PUSH1 0x0 DUP1 REVERT JUMPDEST PUSH3 0x15180 DUP3 JUMPDEST MOD SWAP1 SWAP2 SUB SWAP2 SWAP1 POP JUMP JUMPDEST DUP2 DUP2 ADD DUP3 DUP2 SLT ISZERO PUSH1 0x0 DUP4 SLT ISZERO EQ PUSH2 0x2EF JUMPI PUSH1 0x0 DUP1 REVERT JUMPDEST PUSH1 0x0 DUP1 PUSH1 0x0 PUSH2 0x14FB DUP7 PUSH1 0x0 ADD MLOAD PUSH2 0xFFFF AND PUSH2 0x1C92 JUMP JUMPDEST SWAP1 POP PUSH1 0x0 PUSH2 0x1516 DUP8 PUSH1 0x80 ADD MLOAD DUP4 PUSH2 0x1CA5 SWAP1 SWAP2 SWAP1 PUSH4 0xFFFFFFFF AND JUMP JUMPDEST SWAP1 POP DUP1 PUSH2 0x152B JUMPI PUSH1 0x0 DUP1 SWAP4 POP SWAP4 POP POP POP PUSH2 0x15B2 JUMP JUMPDEST DUP5 DUP1 ISZERO PUSH2 0x1538 JUMPI POP PUSH1 0x0 DUP2 SLT JUMPDEST ISZERO PUSH2 0x1595 JUMPI PUSH1 0x0 PUSH2 0x1550 DUP9 PUSH1 0x0 ADD MLOAD PUSH2 0xFFFF AND PUSH2 0x1CDD JUMP JUMPDEST SWAP1 POP PUSH1 0x0 PUSH2 0x1569 DUP3 PUSH2 0x1561 DUP6 PUSH2 0xD38 JUMP JUMPDEST DUP7 SWAP2 SWAP1 PUSH2 0x1CF0 JUMP JUMPDEST SWAP1 POP PUSH2 0x1580 DUP9 PUSH2 0x1578 DUP4 PUSH2 0xD38 JUMP JUMPDEST DUP5 SWAP2 SWAP1 PUSH2 0x1F0E JUMP JUMPDEST SWAP6 POP PUSH2 0x158C DUP5 DUP5 PUSH2 0x1FB2 JUMP JUMPDEST SWAP5 POP POP POP PUSH2 0x15AF JUMP JUMPDEST PUSH2 0x15A0 DUP3 DUP8 DUP4 PUSH2 0x1F0E JUMP JUMPDEST SWAP4 POP PUSH2 0x15AC DUP3 DUP6 PUSH2 0x1FB2 JUMP JUMPDEST SWAP3 POP JUMPDEST POP POP JUMPDEST SWAP4 POP SWAP4 SWAP2 POP POP JUMP JUMPDEST DUP3 PUSH1 0x0 LT DUP1 ISZERO PUSH2 0x15CC JUMPI POP PUSH2 0x3FFF DUP4 GT ISZERO JUMPDEST PUSH2 0x15D5 JUMPI PUSH1 0x0 DUP1 REVERT JUMPDEST DUP2 DUP1 ISZERO PUSH2 0x15E9 JUMPI POP DUP3 DUP5 PUSH1 0x60 ADD MLOAD PUSH2 0xFFFF AND EQ JUMPDEST ISZERO PUSH2 0x15F3 JUMPI PUSH2 0x17BB JUMP JUMPDEST PUSH1 0x80 DUP5 ADD MLOAD PUSH1 0x0 SWAP1 DUP2 JUMPDEST PUSH1 0x1 PUSH1 0x1 PUSH1 0x70 SHL SUB NOT DUP3 AND ISZERO PUSH2 0x1775 JUMPI PUSH1 0xF0 DUP3 SWAP1 SHR PUSH2 0x3FFF AND DUP7 DUP2 EQ DUP1 ISZERO PUSH2 0x1622 JUMPI POP DUP6 JUMPDEST ISZERO PUSH2 0x165A JUMPI POP PUSH1 0x80 DUP8 ADD DUP1 MLOAD PUSH1 0x1 PUSH1 0x1 PUSH1 0xF0 SHL SUB NOT DUP7 AND PUSH1 0x10 SWAP1 SWAP4 MUL SWAP3 SWAP1 SWAP3 SHR SWAP2 SWAP1 SWAP2 OR PUSH1 0x1 PUSH1 0x1 PUSH1 0x70 SHL SUB NOT AND SWAP1 MSTORE POP PUSH2 0x17BB SWAP1 POP JUMP JUMPDEST DUP7 DUP2 EQ DUP1 ISZERO PUSH2 0x1667 JUMPI POP DUP6 ISZERO JUMPDEST ISZERO PUSH2 0x16C3 JUMPI PUSH1 0x1 PUSH1 0x1 PUSH1 0xF0 SHL SUB NOT DUP6 AND NOT SWAP3 SWAP1 SWAP3 AND SWAP2 PUSH1 0x3 PUSH1 0xFE SHL DUP4 AND PUSH2 0x16A1 JUMPI PUSH1 0x10 DUP4 PUSH14 0xFFFFFFFFFFFFFFFFFFFFFFFFFFFF NOT AND SWAP1 SHL SWAP3 POP JUMPDEST POP PUSH1 0x1 PUSH1 0x1 PUSH1 0x70 SHL SUB NOT SWAP2 DUP3 AND PUSH1 0x10 SWAP1 SWAP2 MUL SHR SWAP2 SWAP1 SWAP2 OR AND PUSH1 0x80 DUP6 ADD MSTORE PUSH2 0x17BB JUMP JUMPDEST DUP7 DUP2 GT DUP1 ISZERO PUSH2 0x16CF JUMPI POP DUP6 JUMPDEST ISZERO PUSH2 0x1729 JUMPI PUSH1 0x80 DUP9 DUP2 ADD MLOAD PUSH1 0x1 PUSH1 0x1 PUSH1 0xF0 SHL SUB NOT PUSH1 0xF0 DUP11 SWAP1 SHL DUP9 OR DUP2 AND PUSH1 0x10 DUP7 MUL SHR SWAP7 SWAP1 SWAP7 OR SWAP6 SWAP2 SHL AND ISZERO PUSH2 0x1703 JUMPI PUSH1 0x0 DUP1 REVERT JUMPDEST POP PUSH1 0x1 PUSH1 0x1 PUSH1 0x70 SHL SUB NOT SWAP2 DUP3 AND PUSH1 0x1 SWAP2 SWAP1 SWAP2 ADD PUSH1 0x10 MUL SHR SWAP2 SWAP1 SWAP2 OR AND PUSH1 0x80 DUP6 ADD MSTORE PUSH2 0x17BB JUMP JUMPDEST DUP7 DUP2 GT DUP1 ISZERO PUSH2 0x1736 JUMPI POP DUP6 ISZERO JUMPDEST ISZERO PUSH2 0x1744 JUMPI POP POP POP POP PUSH2 0x17BB JUMP JUMPDEST POP PUSH1 0x1 PUSH1 0x1 PUSH1 0xF0 SHL SUB NOT DUP3 AND PUSH1 0x10 DUP3 DUP2 MUL SWAP2 SWAP1 SWAP2 SHR SWAP4 SWAP1 SWAP4 OR SWAP3 SWAP2 SWAP1 SWAP2 SHL PUSH1 0x1 PUSH1 0x1 PUSH1 0x80 SHL SUB NOT AND SWAP1 PUSH1 0x1 ADD PUSH2 0x15FD JUMP JUMPDEST DUP5 PUSH2 0x1782 JUMPI POP POP POP PUSH2 0x17BB JUMP JUMPDEST PUSH1 0x9 DUP2 LT PUSH2 0x178F JUMPI PUSH1 0x0 DUP1 REVERT JUMPDEST PUSH1 0x1 PUSH1 0x1 PUSH1 0xF0 SHL SUB NOT PUSH1 0xF0 DUP8 SWAP1 SHL DUP6 OR AND PUSH1 0x10 SWAP1 SWAP2 MUL SHR SWAP2 SWAP1 SWAP2 OR PUSH1 0x1 PUSH1 0x1 PUSH1 0x70 SHL SUB NOT AND PUSH1 0x80 DUP7 ADD MSTORE POP JUMPDEST POP POP POP POP JUMP JUMPDEST PUSH2 0x17CE DUP2 PUSH2 0xFFFF AND PUSH2 0x6C7 JUMP JUMPDEST PUSH1 0x1 PUSH1 0x1 PUSH1 0xA0 SHL SUB AND PUSH1 0xC0 DUP4 ADD DUP2 SWAP1 MSTORE PUSH1 0x0 SWAP1 DUP2 SWAP1 DUP2 SWAP1 PUSH2 0x17EE SWAP1 PUSH2 0xC33 JUMP JUMPDEST SWAP5 POP SWAP5 POP SWAP5 POP POP POP PUSH1 0x0 PUSH2 0x1805 DUP7 PUSH1 0xC0 ADD MLOAD PUSH2 0x95D JUMP JUMPDEST POP POP PUSH1 0x80 DUP8 ADD DUP6 SWAP1 MSTORE PUSH1 0x40 DUP8 ADD DUP2 SWAP1 MSTORE PUSH1 0x1 PUSH1 0x1 PUSH1 0xD8 SHL SUB NOT DUP4 AND PUSH1 0xA0 DUP9 ADD MSTORE PUSH1 0xC0 DUP8 ADD MLOAD SWAP1 SWAP2 POP PUSH2 0x1839 SWAP1 DUP5 PUSH1 0x0 PUSH2 0x1FE2 JUMP JUMPDEST PUSH1 0x20 DUP8 ADD MSTORE PUSH1 0xC0 DUP7 ADD MLOAD PUSH2 0x1851 SWAP1 PUSH2 0xFFFF DUP8 AND PUSH2 0x9B9 JUMP JUMPDEST POP POP POP PUSH1 0x60 SWAP1 SWAP7 ADD SWAP6 SWAP1 SWAP6 MSTORE POP POP POP POP POP JUMP JUMPDEST PUSH2 0x186C PUSH2 0x437E JUMP JUMPDEST PUSH1 0x0 PUSH2 0x187B DUP4 PUSH2 0xFFFF AND PUSH2 0x2075 JUMP JUMPDEST SWAP1 POP PUSH2 0x422 DUP4 DUP3 PUSH2 0x20C1 JUMP JUMPDEST PUSH1 0x0 DUP2 PUSH1 0x80 ADD MLOAD PUSH1 0x0 EQ ISZERO PUSH2 0x189E JUMPI POP PUSH1 0x0 PUSH2 0x276 JUMP JUMPDEST PUSH1 0x80 DUP3 ADD MLOAD PUSH3 0x76A700 SWAP1 PUSH2 0x149A SWAP1 PUSH2 0x2104 JUMP JUMPDEST PUSH1 0x0 DUP1 PUSH1 0x0 DUP6 DUP10 DUP2 MLOAD DUP2 LT PUSH2 0x18C2 JUMPI INVALID JUMPDEST PUSH1 0x20 MUL PUSH1 0x20 ADD ADD MLOAD SWAP1 POP PUSH1 0x0 DUP1 PUSH2 0x18E2 DUP11 PUSH1 0x20 ADD MLOAD DUP5 PUSH1 0x20 ADD MLOAD DUP10 PUSH2 0x2120 JUMP JUMPDEST SWAP2 POP SWAP2 POP DUP1 ISZERO PUSH2 0x18F1 JUMPI PUSH1 0x0 DUP1 REVERT JUMPDEST PUSH2 0x18FF DUP11 DUP11 DUP5 PUSH1 0x1 DUP12 PUSH2 0x21E0 JUMP JUMPDEST POP POP PUSH1 0x0 DUP1 DUP6 ISZERO PUSH2 0x191F JUMPI PUSH2 0x1915 DUP4 DUP11 DUP13 PUSH2 0x225B JUMP JUMPDEST SWAP1 SWAP3 POP SWAP1 POP PUSH2 0x192F JUMP JUMPDEST PUSH2 0x1929 DUP4 DUP11 PUSH2 0x22F4 JUMP JUMPDEST SWAP1 SWAP3 POP SWAP1 POP JUMPDEST DUP11 ISZERO PUSH2 0x19AC JUMPI PUSH1 0x0 DUP9 PUSH1 0x1 DUP14 SUB DUP2 MLOAD DUP2 LT PUSH2 0x1946 JUMPI INVALID JUMPDEST PUSH1 0x20 MUL PUSH1 0x20 ADD ADD MLOAD SWAP1 POP PUSH1 0x1 PUSH1 0xFF AND DUP2 PUSH1 0x40 ADD MLOAD EQ DUP1 ISZERO PUSH2 0x1968 JUMPI POP DUP4 MLOAD DUP2 MLOAD EQ JUMPDEST DUP1 ISZERO PUSH2 0x197B JUMPI POP DUP4 PUSH1 0x20 ADD MLOAD DUP2 PUSH1 0x20 ADD MLOAD EQ JUMPDEST ISZERO PUSH2 0x19AA JUMPI PUSH1 0x60 DUP2 ADD MLOAD PUSH2 0x198F SWAP1 DUP4 PUSH2 0x14CF JUMP JUMPDEST PUSH1 0x60 DUP3 ADD MSTORE PUSH1 0x3 PUSH1 0xA0 SWAP1 SWAP2 ADD MSTORE POP SWAP3 POP PUSH1 0x0 SWAP2 POP PUSH2 0x19EE SWAP1 POP JUMP JUMPDEST POP JUMPDEST DUP6 ISZERO PUSH2 0x19D8 JUMPI PUSH1 0x0 PUSH2 0x19C9 DUP12 DUP4 DUP7 PUSH1 0x20 ADD MLOAD DUP12 DUP15 PUSH1 0xC0 ADD MLOAD PUSH2 0x236F JUMP JUMPDEST SWAP3 SWAP6 POP SWAP2 SWAP4 POP PUSH2 0x19EE SWAP3 POP POP POP JUMP JUMPDEST PUSH1 0x0 PUSH2 0x19C9 DUP3 DUP6 PUSH1 0x20 ADD MLOAD DUP11 DUP14 PUSH1 0xC0 ADD MLOAD PUSH2 0x2403 JUMP JUMPDEST SWAP7 POP SWAP7 SWAP5 POP POP POP POP POP JUMP JUMPDEST PUSH1 0x0 DUP1 PUSH1 0x0 PUSH2 0x1A08 DUP10 DUP10 PUSH2 0x2449 JUMP JUMPDEST SWAP1 POP PUSH1 0x0 PUSH2 0x1A15 DUP3 PUSH2 0x247E JUMP JUMPDEST SWAP1 POP JUMPDEST DUP1 ISZERO PUSH2 0x1A78 JUMPI PUSH1 0x0 PUSH2 0x1A2A DUP10 DUP4 PUSH2 0x24A3 JUMP JUMPDEST SWAP1 POP PUSH1 0x0 PUSH2 0x1A3C DUP13 DUP13 DUP5 DUP13 DUP13 DUP13 PUSH2 0x2556 JUMP JUMPDEST SWAP1 POP PUSH2 0x1A48 DUP7 DUP3 PUSH2 0x14CF JUMP JUMPDEST SWAP6 POP PUSH1 0x0 DUP2 SLT ISZERO PUSH2 0x1A58 JUMPI PUSH1 0x1 SWAP5 POP JUMPDEST PUSH2 0x1A64 DUP5 DUP5 PUSH1 0x0 PUSH2 0x25AB JUMP JUMPDEST SWAP4 POP PUSH2 0x1A6F DUP5 PUSH2 0x247E JUMP JUMPDEST SWAP3 POP POP POP PUSH2 0x1A18 JUMP JUMPDEST POP POP SWAP7 POP SWAP7 SWAP5 POP POP POP POP POP JUMP JUMPDEST PUSH1 0x0 DUP1 PUSH2 0x25D DUP5 PUSH1 0x20 ADD MLOAD PUSH2 0x957 DUP7 PUSH1 0x40 ADD MLOAD PUSH2 0x1AB0 PUSH5 0x2540BE400 DUP9 PUSH2 0x11BB SWAP1 SWAP2 SWAP1 PUSH4 0xFFFFFFFF AND JUMP JUMPDEST SWAP1 PUSH2 0x11BB JUMP JUMPDEST PUSH1 0x0 DUP1 PUSH1 0x0 PUSH2 0x1AC5 DUP7 DUP6 PUSH2 0x25F6 JUMP JUMPDEST POP SWAP2 POP SWAP2 POP DUP5 PUSH1 0x0 EQ PUSH2 0x5C3 JUMPI PUSH1 0x0 PUSH2 0x1ADE DUP4 DUP8 PUSH2 0x14CF JUMP JUMPDEST SWAP1 POP PUSH1 0x0 DUP2 SLT ISZERO DUP1 ISZERO PUSH2 0x1AF7 JUMPI POP PUSH1 0x1 PUSH1 0x1 PUSH1 0x60 SHL SUB DUP2 LT JUMPDEST PUSH2 0x1B00 JUMPI PUSH1 0x0 DUP1 REVERT JUMPDEST PUSH1 0x0 PUSH2 0x1B0A PUSH2 0x123A JUMP JUMPDEST PUSH1 0x1 PUSH1 0x1 PUSH1 0xA0 SHL SUB DUP10 AND PUSH1 0x0 SWAP1 DUP2 MSTORE PUSH1 0x20 SWAP2 SWAP1 SWAP2 MSTORE PUSH1 0x40 SWAP1 KECCAK256 DUP1 SLOAD PUSH12 0xFFFFFFFFFFFFFFFFFFFFFFFF NOT AND PUSH1 0x1 PUSH1 0x1 PUSH1 0x60 SHL SUB SWAP4 SWAP1 SWAP4 AND SWAP3 SWAP1 SWAP3 OR PUSH16 0xFFFFFFFFFFFFFFFFFFFFFFFFFFFFFFFF PUSH1 0x60 SHL NOT AND PUSH1 0x1 PUSH1 0x60 SHL PUSH1 0x1 PUSH1 0x1 PUSH1 0x80 SHL SUB DUP6 AND MUL OR PUSH1 0x1 PUSH1 0x1 PUSH1 0xE0 SHL SUB AND PUSH1 0x1 PUSH1 0xE0 SHL PUSH4 0xFFFFFFFF DUP9 AND MUL OR SWAP1 SWAP2 SSTORE POP SWAP6 SWAP5 POP POP POP POP POP JUMP JUMPDEST PUSH1 0x0 DUP1 DUP3 SLT ISZERO PUSH2 0xCE0 JUMPI PUSH1 0x0 DUP1 REVERT JUMPDEST PUSH1 0x0 DUP5 ISZERO DUP1 PUSH2 0x1BAD JUMPI POP DUP3 DUP6 LT ISZERO JUMPDEST ISZERO PUSH2 0x1BBA JUMPI POP PUSH1 0x0 PUSH2 0x11B1 JUMP JUMPDEST PUSH1 0x0 PUSH2 0x1BC5 DUP9 PUSH2 0xC33 JUMP JUMPDEST POP SWAP2 SWAP4 POP POP POP DUP7 DUP6 SUB SWAP1 POP PUSH1 0x0 PUSH2 0x1BE9 DUP3 PUSH2 0x1BE4 DUP6 PUSH4 0x5F5E100 PUSH2 0x2662 JUMP JUMPDEST PUSH2 0x26BB JUMP JUMPDEST SWAP1 POP PUSH1 0x0 PUSH2 0x1C01 DUP4 PUSH2 0x1BFB DUP9 DUP12 PUSH2 0x26E0 JUMP JUMPDEST SWAP1 PUSH2 0x273D JUMP JUMPDEST SWAP1 POP DUP1 PUSH2 0x1C15 JUMPI PUSH1 0x0 SWAP5 POP POP POP POP POP PUSH2 0x11B1 JUMP JUMPDEST PUSH1 0x0 PUSH2 0x1C25 DUP3 PUSH2 0x1BFB DUP14 DUP7 PUSH2 0x2662 JUMP JUMPDEST SWAP1 POP PUSH2 0x1C35 DUP2 PUSH4 0x5F5E100 PUSH2 0x273D JUMP JUMPDEST SWAP13 SWAP12 POP POP POP POP POP POP POP POP POP POP POP POP JUMP JUMPDEST PUSH2 0x738 PUSH20 0xCFEAEAD4947F0705A14EC42AC3D44129E1EF3ED5 DUP4 DUP4 PUSH2 0x27A4 JUMP JUMPDEST PUSH1 0x0 DUP1 PUSH6 0xFFFFFFFFFFFF DUP4 GT ISZERO PUSH2 0x1C84 JUMPI PUSH1 0x2F PUSH2 0x1C80 DUP5 PUSH2 0x2811 JUMP JUMPDEST SUB SWAP1 POP JUMPDEST DUP3 DUP2 SHR PUSH1 0x8 SHL OR SWAP1 POP SWAP2 SWAP1 POP JUMP JUMPDEST PUSH2 0x1C9A PUSH2 0x43AA JUMP JUMPDEST PUSH2 0x2EF DUP3 PUSH1 0x0 PUSH2 0x28AA JUMP JUMPDEST PUSH1 0x0 PUSH4 0x5F5E100 DUP4 PUSH1 0x40 ADD MLOAD EQ ISZERO PUSH2 0x1CBE JUMPI POP DUP1 PUSH2 0x2EF JUMP JUMPDEST PUSH2 0x422 PUSH4 0x5F5E100 PUSH2 0x957 DUP6 PUSH1 0x40 ADD MLOAD DUP6 PUSH2 0x11BB SWAP1 SWAP2 SWAP1 PUSH4 0xFFFFFFFF AND JUMP JUMPDEST PUSH2 0x1CE5 PUSH2 0x43AA JUMP JUMPDEST PUSH2 0x2EF DUP3 PUSH1 0x1 PUSH2 0x28AA JUMP JUMPDEST PUSH1 0x0 DUP1 PUSH1 0x2 DUP6 PUSH1 0x60 ADD MLOAD PUSH1 0x4 DUP2 GT ISZERO PUSH2 0x1D05 JUMPI INVALID JUMPDEST EQ ISZERO PUSH2 0x1D12 JUMPI POP SELFBALANCE PUSH2 0x1DAC JUMP JUMPDEST PUSH1 0x1 DUP6 PUSH1 0x60 ADD MLOAD PUSH1 0x4 DUP2 GT ISZERO PUSH2 0x1D24 JUMPI INVALID JUMPDEST EQ ISZERO PUSH2 0xCF JUMPI DUP4 MLOAD PUSH1 0x40 MLOAD PUSH4 0x70A08231 PUSH1 0xE0 SHL DUP2 MSTORE PUSH1 0x1 PUSH1 0x1 PUSH1 0xA0 SHL SUB SWAP1 SWAP2 AND SWAP1 PUSH4 0x70A08231 SWAP1 PUSH2 0x1D59 SWAP1 ADDRESS SWAP1 PUSH1 0x4 ADD PUSH2 0x4703 JUMP JUMPDEST PUSH1 0x20 PUSH1 0x40 MLOAD DUP1 DUP4 SUB DUP2 DUP7 DUP1 EXTCODESIZE ISZERO DUP1 ISZERO PUSH2 0x1D71 JUMPI PUSH1 0x0 DUP1 REVERT JUMPDEST POP GAS STATICCALL ISZERO DUP1 ISZERO PUSH2 0x1D85 JUMPI RETURNDATASIZE PUSH1 0x0 DUP1 RETURNDATACOPY RETURNDATASIZE PUSH1 0x0 REVERT JUMPDEST POP POP POP POP PUSH1 0x40 MLOAD RETURNDATASIZE PUSH1 0x1F NOT PUSH1 0x1F DUP3 ADD AND DUP3 ADD DUP1 PUSH1 0x40 MSTORE POP DUP2 ADD SWAP1 PUSH2 0x1DA9 SWAP2 SWAP1 PUSH2 0x4517 JUMP JUMPDEST SWAP1 POP JUMPDEST DUP5 MLOAD PUSH1 0x40 MLOAD PUSH4 0xDB006A75 PUSH1 0xE0 SHL DUP2 MSTORE PUSH1 0x0 SWAP2 PUSH1 0x1 PUSH1 0x1 PUSH1 0xA0 SHL SUB AND SWAP1 PUSH4 0xDB006A75 SWAP1 PUSH2 0x1DDC SWAP1 DUP8 SWAP1 PUSH1 0x4 ADD PUSH2 0x47CB JUMP JUMPDEST PUSH1 0x20 PUSH1 0x40 MLOAD DUP1 DUP4 SUB DUP2 PUSH1 0x0 DUP8 DUP1 EXTCODESIZE ISZERO DUP1 ISZERO PUSH2 0x1DF6 JUMPI PUSH1 0x0 DUP1 REVERT JUMPDEST POP GAS CALL ISZERO DUP1 ISZERO PUSH2 0x1E0A JUMPI RETURNDATASIZE PUSH1 0x0 DUP1 RETURNDATACOPY RETURNDATASIZE PUSH1 0x0 REVERT JUMPDEST POP POP POP POP PUSH1 0x40 MLOAD RETURNDATASIZE PUSH1 0x1F NOT PUSH1 0x1F DUP3 ADD AND DUP3 ADD DUP1 PUSH1 0x40 MSTORE POP DUP2 ADD SWAP1 PUSH2 0x1E2E SWAP2 SWAP1 PUSH2 0x4517 JUMP JUMPDEST SWAP1 POP DUP1 ISZERO PUSH2 0x1E4E JUMPI PUSH1 0x40 MLOAD PUSH3 0x461BCD PUSH1 0xE5 SHL DUP2 MSTORE PUSH1 0x4 ADD PUSH2 0x209 SWAP1 PUSH2 0x4804 JUMP JUMPDEST PUSH1 0x0 PUSH1 0x2 DUP8 PUSH1 0x60 ADD MLOAD PUSH1 0x4 DUP2 GT ISZERO PUSH2 0x1E62 JUMPI INVALID JUMPDEST EQ ISZERO PUSH2 0x1E6F JUMPI POP SELFBALANCE PUSH2 0x1EF1 JUMP JUMPDEST DUP6 MLOAD PUSH1 0x40 MLOAD PUSH4 0x70A08231 PUSH1 0xE0 SHL DUP2 MSTORE PUSH1 0x1 PUSH1 0x1 PUSH1 0xA0 SHL SUB SWAP1 SWAP2 AND SWAP1 PUSH4 0x70A08231 SWAP1 PUSH2 0x1E9E SWAP1 ADDRESS SWAP1 PUSH1 0x4 ADD PUSH2 0x4703 JUMP JUMPDEST PUSH1 0x20 PUSH1 0x40 MLOAD DUP1 DUP4 SUB DUP2 DUP7 DUP1 EXTCODESIZE ISZERO DUP1 ISZERO PUSH2 0x1EB6 JUMPI PUSH1 0x0 DUP1 REVERT JUMPDEST POP GAS STATICCALL ISZERO DUP1 ISZERO PUSH2 0x1ECA JUMPI RETURNDATASIZE PUSH1 0x0 DUP1 RETURNDATACOPY RETURNDATASIZE PUSH1 0x0 REVERT JUMPDEST POP POP POP POP PUSH1 0x40 MLOAD RETURNDATASIZE PUSH1 0x1F NOT PUSH1 0x1F DUP3 ADD AND DUP3 ADD DUP1 PUSH1 0x40 MSTORE POP DUP2 ADD SWAP1 PUSH2 0x1EEE SWAP2 SWAP1 PUSH2 0x4517 JUMP JUMPDEST SWAP1 POP JUMPDEST PUSH2 0x1F03 PUSH2 0x1EFE DUP3 DUP6 PUSH2 0x26E0 JUMP JUMPDEST PUSH2 0x2958 JUMP JUMPDEST SWAP8 SWAP7 POP POP POP POP POP POP POP JUMP JUMPDEST PUSH1 0x0 DUP1 DUP3 SGT ISZERO PUSH2 0x1F2A JUMPI PUSH2 0x1F23 DUP5 DUP5 DUP5 PUSH2 0x296E JUMP JUMPDEST SWAP2 POP PUSH2 0x1FAB JUMP JUMPDEST PUSH1 0x3 DUP5 PUSH1 0x60 ADD MLOAD PUSH1 0x4 DUP2 GT ISZERO PUSH2 0x1F3C JUMPI INVALID JUMPDEST EQ ISZERO PUSH2 0x1F96 JUMPI PUSH1 0x0 DUP3 SGT ISZERO PUSH2 0x1F50 JUMPI PUSH1 0x0 DUP1 REVERT JUMPDEST DUP3 PUSH1 0x1 PUSH1 0x1 PUSH1 0xA0 SHL SUB DUP2 AND PUSH2 0x8FC PUSH2 0x1F67 DUP6 PUSH2 0xD38 JUMP JUMPDEST PUSH1 0x40 MLOAD DUP2 ISZERO SWAP1 SWAP3 MUL SWAP2 PUSH1 0x0 DUP2 DUP2 DUP2 DUP6 DUP9 DUP9 CALL SWAP4 POP POP POP POP ISZERO DUP1 ISZERO PUSH2 0x1F8F JUMPI RETURNDATASIZE PUSH1 0x0 DUP1 RETURNDATACOPY RETURNDATASIZE PUSH1 0x0 REVERT JUMPDEST POP POP PUSH2 0x1FAB JUMP JUMPDEST DUP4 MLOAD PUSH2 0x1FAB SWAP1 DUP5 PUSH2 0x1FA6 DUP6 PUSH2 0xD38 JUMP JUMPDEST PUSH2 0x27A4 JUMP JUMPDEST POP SWAP3 SWAP2 POP POP JUMP JUMPDEST PUSH1 0x0 PUSH4 0x5F5E100 DUP4 PUSH1 0x40 ADD MLOAD EQ ISZERO PUSH2 0x1FCB JUMPI POP DUP1 PUSH2 0x2EF JUMP JUMPDEST PUSH1 0x40 DUP4 ADD MLOAD PUSH2 0x422 SWAP1 PUSH2 0x957 DUP5 PUSH4 0x5F5E100 PUSH2 0x11BB JUMP JUMPDEST PUSH2 0x1FEA PUSH2 0x43D9 JUMP JUMPDEST PUSH2 0x1FF2 PUSH2 0x43D9 JUMP JUMPDEST PUSH1 0xFF DUP5 AND PUSH2 0x2001 JUMPI SWAP1 POP PUSH2 0x422 JUMP JUMPDEST PUSH2 0x200B DUP6 DUP6 PUSH2 0x2B0B JUMP JUMPDEST DUP2 MSTORE PUSH1 0xFF DUP5 AND PUSH1 0x60 DUP3 ADD MSTORE DUP3 PUSH8 0xFFFFFFFFFFFFFFFF DUP2 GT DUP1 ISZERO PUSH2 0x202D JUMPI PUSH1 0x0 DUP1 REVERT JUMPDEST POP PUSH1 0x40 MLOAD SWAP1 DUP1 DUP3 MSTORE DUP1 PUSH1 0x20 MUL PUSH1 0x20 ADD DUP3 ADD PUSH1 0x40 MSTORE DUP1 ISZERO PUSH2 0x2067 JUMPI DUP2 PUSH1 0x20 ADD JUMPDEST PUSH2 0x2054 PUSH2 0x4401 JUMP JUMPDEST DUP2 MSTORE PUSH1 0x20 ADD SWAP1 PUSH1 0x1 SWAP1 SUB SWAP1 DUP2 PUSH2 0x204C JUMPI SWAP1 POP JUMPDEST POP PUSH1 0x20 DUP3 ADD MSTORE SWAP5 SWAP4 POP POP POP POP JUMP JUMPDEST PUSH2 0x207D PUSH2 0x4441 JUMP JUMPDEST PUSH1 0x0 DUP1 PUSH1 0x0 PUSH2 0x208B DUP6 PUSH2 0x2B34 JUMP JUMPDEST PUSH1 0x40 DUP1 MLOAD PUSH1 0x60 DUP2 ADD DUP3 MSTORE PUSH1 0x1 PUSH1 0x1 PUSH1 0xA0 SHL SUB SWAP1 SWAP4 AND DUP4 MSTORE PUSH1 0x20 DUP4 ADD SWAP4 SWAP1 SWAP4 MSTORE PUSH1 0xFF AND PUSH1 0xA EXP SWAP2 DUP2 ADD SWAP2 SWAP1 SWAP2 MSTORE SWAP4 POP POP POP POP SWAP2 SWAP1 POP JUMP JUMPDEST PUSH2 0x20C9 PUSH2 0x437E JUMP JUMPDEST PUSH1 0x0 PUSH2 0x20D8 DUP5 PUSH2 0xFFFF AND PUSH2 0x2BF5 JUMP JUMPDEST PUSH1 0x40 DUP1 MLOAD PUSH1 0x80 DUP2 ADD DUP3 MSTORE PUSH2 0xFFFF SWAP7 SWAP1 SWAP7 AND DUP7 MSTORE PUSH1 0xFF DUP3 AND PUSH1 0x20 DUP8 ADD MSTORE DUP6 ADD SWAP4 SWAP1 SWAP4 MSTORE POP POP PUSH1 0x60 DUP3 ADD MSTORE SWAP1 JUMP JUMPDEST PUSH1 0x0 PUSH3 0x76A700 DUP3 LT ISZERO PUSH2 0x2116 JUMPI PUSH1 0x0 DUP1 REVERT JUMPDEST PUSH3 0x76A700 DUP3 PUSH2 0x14C6 JUMP JUMPDEST PUSH1 0x0 DUP1 PUSH1 0x0 DUP6 GT PUSH2 0x2143 JUMPI PUSH1 0x40 MLOAD PUSH3 0x461BCD PUSH1 0xE5 SHL DUP2 MSTORE PUSH1 0x4 ADD PUSH2 0x209 SWAP1 PUSH2 0x4824 JUMP JUMPDEST PUSH1 0x7 DUP6 GT ISZERO PUSH2 0x2164 JUMPI PUSH1 0x40 MLOAD PUSH3 0x461BCD PUSH1 0xE5 SHL DUP2 MSTORE PUSH1 0x4 ADD PUSH2 0x209 SWAP1 PUSH2 0x48D7 JUMP JUMPDEST PUSH1 0x0 PUSH2 0x216F DUP5 PUSH2 0x2104 JUMP JUMPDEST SWAP1 POP PUSH1 0x1 JUMPDEST DUP7 DUP2 GT PUSH2 0x21C7 JUMPI PUSH1 0x0 PUSH2 0x2190 PUSH2 0x2189 DUP4 PUSH2 0x2C12 JUMP JUMPDEST DUP5 SWAP1 PUSH2 0xBCC JUMP JUMPDEST SWAP1 POP DUP7 DUP2 EQ ISZERO PUSH2 0x21A8 JUMPI POP SWAP3 POP PUSH1 0x0 SWAP2 POP PUSH2 0x15B2 SWAP1 POP JUMP JUMPDEST DUP7 DUP2 GT ISZERO PUSH2 0x21BE JUMPI POP SWAP3 POP PUSH1 0x1 SWAP2 POP PUSH2 0x15B2 SWAP1 POP JUMP JUMPDEST POP PUSH1 0x1 ADD PUSH2 0x2174 JUMP JUMPDEST POP PUSH1 0x40 MLOAD PUSH3 0x461BCD PUSH1 0xE5 SHL DUP2 MSTORE PUSH1 0x4 ADD PUSH2 0x209 SWAP1 PUSH2 0x49CB JUMP JUMPDEST DUP3 PUSH1 0x1 GT ISZERO DUP1 ISZERO PUSH2 0x21F5 JUMPI POP DUP5 PUSH1 0x20 ADD MLOAD DUP4 GT ISZERO JUMPDEST PUSH2 0x2211 JUMPI PUSH1 0x40 MLOAD PUSH3 0x461BCD PUSH1 0xE5 SHL DUP2 MSTORE PUSH1 0x4 ADD PUSH2 0x209 SWAP1 PUSH2 0x4907 JUMP JUMPDEST PUSH1 0x0 PUSH2 0x222E PUSH2 0x221F DUP6 PUSH2 0x2C12 JUMP JUMPDEST PUSH2 0x2228 DUP5 PUSH2 0x2104 JUMP JUMPDEST SWAP1 PUSH2 0xBCC JUMP JUMPDEST SWAP1 POP PUSH2 0x2253 DUP7 PUSH1 0x0 ADD MLOAD PUSH2 0xFFFF AND DUP3 DUP5 DUP7 PUSH2 0x2248 DUP12 PUSH2 0x2CB6 JUMP JUMPDEST DUP11 SWAP5 SWAP4 SWAP3 SWAP2 SWAP1 PUSH2 0x2CCA JUMP JUMPDEST POP POP POP POP POP POP JUMP JUMPDEST PUSH1 0x0 DUP1 PUSH2 0x226B DUP6 PUSH1 0x40 ADD MLOAD PUSH2 0x2CF4 JUMP JUMPDEST DUP1 ISZERO PUSH2 0x227C JUMPI POP PUSH1 0x0 DUP6 PUSH1 0x60 ADD MLOAD SLT ISZERO JUMPDEST PUSH2 0x2285 JUMPI PUSH1 0x0 DUP1 REVERT JUMPDEST DUP3 MLOAD DUP6 MLOAD PUSH2 0xFFFF SWAP1 SWAP2 AND EQ PUSH2 0x2299 JUMPI PUSH1 0x0 DUP1 REVERT JUMPDEST PUSH1 0x0 PUSH2 0x22B2 DUP7 PUSH1 0x40 ADD MLOAD DUP6 PUSH2 0x2D0A SWAP1 SWAP2 SWAP1 PUSH4 0xFFFFFFFF AND JUMP JUMPDEST PUSH1 0xFF AND SWAP1 POP PUSH2 0x22CF DUP6 PUSH1 0x60 ADD MLOAD DUP8 PUSH1 0x60 ADD MLOAD DUP4 DUP9 PUSH1 0x80 ADD MLOAD PUSH2 0x2D3F JUMP JUMPDEST SWAP3 POP PUSH2 0x22E9 DUP6 PUSH1 0x40 ADD MLOAD DUP8 PUSH1 0x60 ADD MLOAD DUP4 DUP9 PUSH1 0x80 ADD MLOAD PUSH2 0x2D3F JUMP JUMPDEST SWAP2 POP POP SWAP4 POP SWAP4 SWAP2 POP POP JUMP JUMPDEST PUSH1 0x0 DUP1 PUSH2 0x2304 DUP5 PUSH1 0x40 ADD MLOAD PUSH2 0x2CF4 JUMP JUMPDEST DUP1 ISZERO PUSH2 0x2315 JUMPI POP PUSH1 0x0 DUP5 PUSH1 0x60 ADD MLOAD SLT ISZERO JUMPDEST PUSH2 0x231E JUMPI PUSH1 0x0 DUP1 REVERT JUMPDEST PUSH2 0x2341 DUP4 PUSH1 0x80 ADD MLOAD PUSH2 0x957 DUP7 PUSH1 0x60 ADD MLOAD DUP7 PUSH1 0x60 ADD MLOAD PUSH2 0x11BB SWAP1 SWAP2 SWAP1 PUSH4 0xFFFFFFFF AND JUMP JUMPDEST SWAP2 POP PUSH2 0x2366 DUP4 PUSH1 0x80 ADD MLOAD PUSH2 0x957 DUP7 PUSH1 0x60 ADD MLOAD DUP7 PUSH1 0x40 ADD MLOAD PUSH2 0x11BB SWAP1 SWAP2 SWAP1 PUSH4 0xFFFFFFFF AND JUMP JUMPDEST SWAP1 POP SWAP3 POP SWAP3 SWAP1 POP JUMP JUMPDEST PUSH1 0x0 DUP5 PUSH2 0x237E JUMPI POP PUSH1 0x0 PUSH2 0x5C3 JUMP JUMPDEST PUSH1 0x0 PUSH2 0x238A DUP6 DUP6 PUSH2 0x26E0 JUMP JUMPDEST SWAP1 POP PUSH1 0x0 DUP1 DUP8 SGT ISZERO PUSH2 0x23B9 JUMPI PUSH2 0x23B2 DUP3 PUSH2 0x23AD PUSH2 0x23A6 DUP12 PUSH2 0x2D56 JUMP JUMPDEST DUP8 SWAP1 PUSH2 0xBCC JUMP JUMPDEST PUSH2 0x2D6B JUMP JUMPDEST SWAP1 POP PUSH2 0x23E8 JUMP JUMPDEST PUSH1 0x0 PUSH2 0x23C4 DUP10 PUSH2 0x2DD8 JUMP JUMPDEST SWAP1 POP DUP5 DUP2 LT PUSH2 0x23D8 JUMPI DUP8 SWAP4 POP POP POP POP PUSH2 0x5C3 JUMP JUMPDEST PUSH2 0x23E4 DUP4 DUP3 DUP8 SUB PUSH2 0x2D6B JUMP JUMPDEST SWAP2 POP POP JUMPDEST PUSH4 0x3B9ACA00 DUP2 SGT ISZERO PUSH2 0x23F9 JUMPI PUSH1 0x0 DUP1 REVERT JUMPDEST PUSH2 0x5BE DUP8 DUP3 PUSH2 0x2DED JUMP JUMPDEST PUSH1 0x0 DUP5 PUSH2 0x2412 JUMPI POP PUSH1 0x0 PUSH2 0x25D JUMP JUMPDEST PUSH1 0x0 PUSH2 0x241E DUP6 DUP6 PUSH2 0x26E0 JUMP JUMPDEST SWAP1 POP PUSH1 0x0 PUSH2 0x242C DUP3 DUP6 PUSH2 0x2D6B JUMP JUMPDEST SWAP1 POP PUSH4 0x3B9ACA00 DUP2 SGT ISZERO PUSH2 0x243F JUMPI PUSH1 0x0 DUP1 REVERT JUMPDEST PUSH2 0x1F03 DUP8 DUP3 PUSH2 0x2DED JUMP JUMPDEST PUSH1 0x0 DUP1 PUSH2 0x2454 PUSH2 0x2E06 JUMP JUMPDEST PUSH1 0x1 PUSH1 0x1 PUSH1 0xA0 SHL SUB DUP6 AND PUSH1 0x0 SWAP1 DUP2 MSTORE PUSH1 0x20 SWAP2 DUP3 MSTORE PUSH1 0x40 DUP1 DUP3 KECCAK256 DUP7 DUP4 MSTORE SWAP1 SWAP3 MSTORE KECCAK256 SLOAD SWAP2 POP POP SWAP3 SWAP2 POP POP JUMP JUMPDEST PUSH1 0x0 DUP2 PUSH2 0x248D JUMPI POP PUSH1 0x0 PUSH2 0x276 JUMP JUMPDEST PUSH2 0x2496 DUP3 PUSH2 0x2811 JUMP JUMPDEST PUSH1 0xFF SUB PUSH1 0x1 ADD SWAP1 POP SWAP2 SWAP1 POP JUMP JUMPDEST PUSH1 0x0 DUP2 PUSH2 0x24AF JUMPI PUSH1 0x0 DUP1 REVERT JUMPDEST PUSH2 0x100 DUP3 GT ISZERO PUSH2 0x24BE JUMPI PUSH1 0x0 DUP1 REVERT JUMPDEST PUSH1 0x0 PUSH2 0x24C9 DUP5 PUSH2 0x14AE JUMP JUMPDEST SWAP1 POP PUSH1 0x0 PUSH1 0x5A DUP5 GT PUSH2 0x24E4 JUMPI POP PUSH3 0x15180 DUP4 MUL ADD SWAP1 POP PUSH2 0x2EF JUMP JUMPDEST PUSH1 0x87 DUP5 GT PUSH2 0x250C JUMPI POP PUSH1 0x59 NOT DUP4 ADD PUSH3 0x7E900 SWAP1 DUP2 MUL SWAP1 DUP3 MOD SWAP1 SWAP2 SUB ADD PUSH3 0x76A700 ADD SWAP1 POP PUSH2 0x2EF JUMP JUMPDEST PUSH1 0xC3 DUP5 GT PUSH2 0x2535 JUMPI POP PUSH1 0x86 NOT DUP4 ADD PUSH3 0x278D00 SWAP1 DUP2 MUL SWAP1 DUP3 MOD SWAP1 SWAP2 SUB ADD PUSH4 0x1DA9C00 ADD SWAP1 POP PUSH2 0x2EF JUMP JUMPDEST POP PUSH1 0xC2 NOT DUP4 ADD PUSH3 0x76A700 SWAP1 DUP2 MUL SWAP1 DUP3 MOD SWAP1 SWAP2 SUB ADD PUSH4 0xB1FA800 ADD SWAP1 POP PUSH2 0x2EF JUMP JUMPDEST PUSH1 0x0 DUP1 PUSH2 0x2564 DUP9 DUP9 DUP9 PUSH2 0x2E13 JUMP JUMPDEST SWAP1 POP DUP5 DUP7 GT PUSH2 0x2574 JUMPI SWAP1 POP PUSH2 0x11B1 JUMP JUMPDEST PUSH1 0x0 PUSH2 0x2581 DUP6 DUP9 DUP9 PUSH2 0x2E58 JUMP JUMPDEST SWAP1 POP DUP4 ISZERO PUSH2 0x259F JUMPI PUSH2 0x2596 DUP6 DUP4 DUP10 DUP10 DUP6 PUSH2 0x236F JUMP JUMPDEST SWAP3 POP POP POP PUSH2 0x11B1 JUMP JUMPDEST PUSH2 0x2596 DUP3 DUP9 DUP9 DUP5 PUSH2 0x2403 JUMP JUMPDEST PUSH1 0x0 PUSH1 0x1 DUP4 LT ISZERO DUP1 ISZERO PUSH2 0x25C0 JUMPI POP PUSH2 0x100 DUP4 GT ISZERO JUMPDEST PUSH2 0x25C9 JUMPI PUSH1 0x0 DUP1 REVERT JUMPDEST DUP2 ISZERO PUSH2 0x25E2 JUMPI POP PUSH1 0x1 PUSH1 0xFF SHL PUSH1 0x0 NOT DUP4 ADD SHR DUP4 OR PUSH2 0x422 JUMP JUMPDEST POP PUSH1 0x1 PUSH1 0xFF SHL PUSH1 0x0 NOT DUP4 ADD SHR NOT DUP4 AND PUSH2 0x422 JUMP JUMPDEST PUSH1 0x0 DUP1 PUSH1 0x0 PUSH2 0x2604 DUP6 PUSH2 0x95D JUMP JUMPDEST SWAP2 SWAP5 POP SWAP3 POP SWAP1 POP DUP1 PUSH2 0x2613 JUMPI POP DUP3 JUMPDEST DUP1 DUP5 LT ISZERO PUSH2 0x2620 JUMPI PUSH1 0x0 DUP1 REVERT JUMPDEST PUSH2 0x2636 PUSH2 0x262F DUP5 DUP4 DUP8 SUB PUSH2 0x11BB JUMP JUMPDEST DUP4 SWAP1 PUSH2 0x14CF JUMP JUMPDEST SWAP2 POP PUSH1 0x1 PUSH1 0x1 PUSH1 0x80 SHL SUB DUP3 LT PUSH2 0x264B JUMPI PUSH1 0x0 DUP1 REVERT JUMPDEST PUSH4 0xFFFFFFFF DUP5 LT PUSH2 0x265B JUMPI PUSH1 0x0 DUP1 REVERT JUMPDEST SWAP3 POP SWAP3 POP SWAP3 JUMP JUMPDEST PUSH1 0x0 DUP3 PUSH2 0x2671 JUMPI POP PUSH1 0x0 PUSH2 0x2EF JUMP JUMPDEST DUP3 DUP3 MUL DUP3 DUP5 DUP3 DUP2 PUSH2 0x267E JUMPI INVALID JUMPDEST DIV EQ PUSH2 0x422 JUMPI PUSH1 0x40 MLOAD PUSH3 0x461BCD PUSH1 0xE5 SHL DUP2 MSTORE PUSH1 0x4 ADD DUP1 DUP1 PUSH1 0x20 ADD DUP3 DUP2 SUB DUP3 MSTORE PUSH1 0x21 DUP2 MSTORE PUSH1 0x20 ADD DUP1 PUSH2 0x4A0C PUSH1 0x21 SWAP2 CODECOPY PUSH1 0x40 ADD SWAP2 POP POP PUSH1 0x40 MLOAD DUP1 SWAP2 SUB SWAP1 REVERT JUMPDEST PUSH1 0x0 DUP1 PUSH2 0x26D4 PUSH4 0x1DA9C00 PUSH2 0x1BFB DUP7 PUSH4 0x5F5E100 PUSH2 0x2662 JUMP JUMPDEST SWAP1 POP PUSH2 0x25D DUP2 DUP5 PUSH2 0x2662 JUMP JUMPDEST PUSH1 0x0 DUP3 DUP3 GT ISZERO PUSH2 0x2737 JUMPI PUSH1 0x40 DUP1 MLOAD PUSH3 0x461BCD PUSH1 0xE5 SHL DUP2 MSTORE PUSH1 0x20 PUSH1 0x4 DUP3 ADD MSTORE PUSH1 0x1E PUSH1 0x24 DUP3 ADD MSTORE PUSH32 0x536166654D6174683A207375627472616374696F6E206F766572666C6F770000 PUSH1 0x44 DUP3 ADD MSTORE SWAP1 MLOAD SWAP1 DUP2 SWAP1 SUB PUSH1 0x64 ADD SWAP1 REVERT JUMPDEST POP SWAP1 SUB SWAP1 JUMP JUMPDEST PUSH1 0x0 DUP1 DUP3 GT PUSH2 0x2793 JUMPI PUSH1 0x40 DUP1 MLOAD PUSH3 0x461BCD PUSH1 0xE5 SHL DUP2 MSTORE PUSH1 0x20 PUSH1 0x4 DUP3 ADD MSTORE PUSH1 0x1A PUSH1 0x24 DUP3 ADD MSTORE PUSH32 0x536166654D6174683A206469766973696F6E206279207A65726F000000000000 PUSH1 0x44 DUP3 ADD MSTORE SWAP1 MLOAD SWAP1 DUP2 SWAP1 SUB PUSH1 0x64 ADD SWAP1 REVERT JUMPDEST DUP2 DUP4 DUP2 PUSH2 0x279C JUMPI INVALID JUMPDEST DIV SWAP4 SWAP3 POP POP POP JUMP JUMPDEST PUSH1 0x40 MLOAD PUSH4 0xA9059CBB PUSH1 0xE0 SHL DUP2 MSTORE PUSH1 0x1 PUSH1 0x1 PUSH1 0xA0 SHL SUB DUP5 AND SWAP1 PUSH4 0xA9059CBB SWAP1 PUSH2 0x27D2 SWAP1 DUP6 SWAP1 DUP6 SWAP1 PUSH1 0x4 ADD PUSH2 0x47A7 JUMP JUMPDEST PUSH1 0x0 PUSH1 0x40 MLOAD DUP1 DUP4 SUB DUP2 PUSH1 0x0 DUP8 DUP1 EXTCODESIZE ISZERO DUP1 ISZERO PUSH2 0x27EC JUMPI PUSH1 0x0 DUP1 REVERT JUMPDEST POP GAS CALL ISZERO DUP1 ISZERO PUSH2 0x2800 JUMPI RETURNDATASIZE PUSH1 0x0 DUP1 RETURNDATACOPY RETURNDATASIZE PUSH1 0x0 REVERT JUMPDEST POP POP POP POP PUSH2 0x280C PUSH2 0x2F48 JUMP JUMPDEST POP POP POP JUMP JUMPDEST PUSH1 0x0 DUP2 PUSH2 0x281D JUMPI PUSH1 0x0 DUP1 REVERT JUMPDEST PUSH1 0x1 PUSH1 0x80 SHL DUP3 LT PUSH2 0x2830 JUMPI PUSH1 0x80 SWAP2 DUP3 SHR SWAP2 ADD JUMPDEST PUSH1 0x1 PUSH1 0x40 SHL DUP3 LT PUSH2 0x2843 JUMPI PUSH1 0x40 SWAP2 DUP3 SHR SWAP2 ADD JUMPDEST PUSH5 0x100000000 DUP3 LT PUSH2 0x2857 JUMPI PUSH1 0x20 SWAP2 DUP3 SHR SWAP2 ADD JUMPDEST PUSH3 0x10000 DUP3 LT PUSH2 0x2869 JUMPI PUSH1 0x10 SWAP2 DUP3 SHR SWAP2 ADD JUMPDEST PUSH2 0x100 DUP3 LT PUSH2 0x287A JUMPI PUSH1 0x8 SWAP2 DUP3 SHR SWAP2 ADD JUMPDEST PUSH1 0x10 DUP3 LT PUSH2 0x288A JUMPI PUSH1 0x4 SWAP2 DUP3 SHR SWAP2 ADD JUMPDEST PUSH1 0x4 DUP3 LT PUSH2 0x289A JUMPI PUSH1 0x2 SWAP2 DUP3 SHR SWAP2 ADD JUMPDEST PUSH1 0x2 DUP3 LT PUSH2 0x276 JUMPI PUSH1 0x1 ADD SWAP2 SWAP1 POP JUMP JUMPDEST PUSH2 0x28B2 PUSH2 0x43AA JUMP JUMPDEST PUSH1 0x0 PUSH2 0x28BC PUSH2 0x2F98 JUMP JUMPDEST PUSH1 0x0 DUP6 DUP2 MSTORE PUSH1 0x20 DUP3 DUP2 MSTORE PUSH1 0x40 DUP1 DUP4 KECCAK256 DUP8 ISZERO ISZERO DUP5 MSTORE DUP3 MSTORE SWAP2 DUP3 SWAP1 KECCAK256 DUP3 MLOAD PUSH1 0xA0 DUP2 ADD DUP5 MSTORE DUP2 SLOAD PUSH1 0x1 PUSH1 0x1 PUSH1 0xA0 SHL SUB DUP2 AND DUP3 MSTORE PUSH1 0xFF PUSH1 0x1 PUSH1 0xA0 SHL DUP3 DIV DUP2 AND ISZERO ISZERO SWAP5 DUP4 ADD SWAP5 SWAP1 SWAP5 MSTORE PUSH1 0x1 PUSH1 0xB0 SHL DUP2 DIV DUP5 AND PUSH1 0xA EXP SWAP5 DUP3 ADD SWAP5 SWAP1 SWAP5 MSTORE SWAP4 SWAP5 POP SWAP3 SWAP2 PUSH1 0x60 DUP4 ADD SWAP2 PUSH1 0x1 PUSH1 0xA8 SHL SWAP1 SWAP2 DIV AND PUSH1 0x4 DUP2 GT ISZERO PUSH2 0x2931 JUMPI INVALID JUMPDEST DUP2 MSTORE SWAP2 SLOAD PUSH1 0x1 PUSH1 0xB8 SHL SWAP1 DIV PUSH9 0xFFFFFFFFFFFFFFFFFF AND PUSH1 0x20 SWAP1 SWAP3 ADD SWAP2 SWAP1 SWAP2 MSTORE SWAP5 SWAP4 POP POP POP POP JUMP JUMPDEST PUSH1 0x0 PUSH1 0x1 PUSH1 0x1 PUSH1 0xFF SHL SUB DUP3 GT ISZERO PUSH2 0xCE0 JUMPI PUSH1 0x0 DUP1 REVERT JUMPDEST PUSH1 0x0 DUP1 PUSH1 0x0 DUP6 PUSH1 0x20 ADD MLOAD ISZERO PUSH2 0x29FF JUMPI DUP6 MLOAD PUSH1 0x40 MLOAD PUSH4 0x70A08231 PUSH1 0xE0 SHL DUP2 MSTORE PUSH1 0x1 PUSH1 0x1 PUSH1 0xA0 SHL SUB SWAP1 SWAP2 AND SWAP1 PUSH4 0x70A08231 SWAP1 PUSH2 0x29AC SWAP1 ADDRESS SWAP1 PUSH1 0x4 ADD PUSH2 0x4703 JUMP JUMPDEST PUSH1 0x20 PUSH1 0x40 MLOAD DUP1 DUP4 SUB DUP2 DUP7 DUP1 EXTCODESIZE ISZERO DUP1 ISZERO PUSH2 0x29C4 JUMPI PUSH1 0x0 DUP1 REVERT JUMPDEST POP GAS STATICCALL ISZERO DUP1 ISZERO PUSH2 0x29D8 JUMPI RETURNDATASIZE PUSH1 0x0 DUP1 RETURNDATACOPY RETURNDATASIZE PUSH1 0x0 REVERT JUMPDEST POP POP POP POP PUSH1 0x40 MLOAD RETURNDATASIZE PUSH1 0x1F NOT PUSH1 0x1F DUP3 ADD AND DUP3 ADD DUP1 PUSH1 0x40 MSTORE POP DUP2 ADD SWAP1 PUSH2 0x29FC SWAP2 SWAP1 PUSH2 0x4517 JUMP JUMPDEST SWAP2 POP JUMPDEST DUP6 MLOAD PUSH2 0x2A0C SWAP1 DUP7 DUP7 PUSH2 0x2FA5 JUMP JUMPDEST DUP6 PUSH1 0x20 ADD MLOAD DUP1 PUSH2 0x2A20 JUMPI POP PUSH1 0x0 DUP7 PUSH1 0x80 ADD MLOAD GT JUMPDEST ISZERO PUSH2 0x2AA7 JUMPI DUP6 MLOAD PUSH1 0x40 MLOAD PUSH4 0x70A08231 PUSH1 0xE0 SHL DUP2 MSTORE PUSH1 0x1 PUSH1 0x1 PUSH1 0xA0 SHL SUB SWAP1 SWAP2 AND SWAP1 PUSH4 0x70A08231 SWAP1 PUSH2 0x2A54 SWAP1 ADDRESS SWAP1 PUSH1 0x4 ADD PUSH2 0x4703 JUMP JUMPDEST PUSH1 0x20 PUSH1 0x40 MLOAD DUP1 DUP4 SUB DUP2 DUP7 DUP1 EXTCODESIZE ISZERO DUP1 ISZERO PUSH2 0x2A6C JUMPI PUSH1 0x0 DUP1 REVERT JUMPDEST POP GAS STATICCALL ISZERO DUP1 ISZERO PUSH2 0x2A80 JUMPI RETURNDATASIZE PUSH1 0x0 DUP1 RETURNDATACOPY RETURNDATASIZE PUSH1 0x0 REVERT JUMPDEST POP POP POP POP PUSH1 0x40 MLOAD RETURNDATASIZE PUSH1 0x1F NOT PUSH1 0x1F DUP3 ADD AND DUP3 ADD DUP1 PUSH1 0x40 MSTORE POP DUP2 ADD SWAP1 PUSH2 0x2AA4 SWAP2 SWAP1 PUSH2 0x4517 JUMP JUMPDEST SWAP1 POP JUMPDEST PUSH1 0x80 DUP7 ADD MLOAD ISZERO PUSH2 0x2AE2 JUMPI PUSH1 0x0 PUSH2 0x2AC5 DUP8 PUSH2 0x2AC0 DUP5 PUSH2 0x2958 JUMP JUMPDEST PUSH2 0x1FB2 JUMP JUMPDEST SWAP1 POP PUSH2 0x2AD4 DUP8 PUSH1 0x80 ADD MLOAD PUSH2 0x2958 JUMP JUMPDEST DUP2 SGT ISZERO PUSH2 0x2AE0 JUMPI PUSH1 0x0 DUP1 REVERT JUMPDEST POP JUMPDEST DUP6 PUSH1 0x20 ADD MLOAD ISZERO PUSH2 0x2B02 JUMPI PUSH2 0x2AF9 PUSH2 0x1EFE DUP3 DUP5 PUSH2 0x26E0 JUMP JUMPDEST SWAP3 POP POP POP PUSH2 0x422 JUMP JUMPDEST PUSH2 0x2AF9 DUP5 PUSH2 0x2958 JUMP JUMPDEST PUSH1 0x60 PUSH1 0x0 PUSH2 0x2B19 DUP5 DUP5 PUSH2 0x2FD5 JUMP JUMPDEST SWAP1 POP PUSH1 0x1 DUP2 MLOAD GT PUSH2 0x2B2B JUMPI SWAP1 POP PUSH2 0x2EF JUMP JUMPDEST PUSH2 0x422 DUP2 PUSH2 0x30F7 JUMP JUMPDEST PUSH1 0x0 DUP1 PUSH1 0x0 DUP1 PUSH1 0x0 PUSH2 0x2B45 DUP7 PUSH2 0x32B0 JUMP JUMPDEST SWAP1 SWAP3 POP SWAP1 POP PUSH1 0x0 PUSH1 0x1 PUSH1 0x1 PUSH1 0xA0 SHL SUB DUP4 AND PUSH2 0x2B6A JUMPI POP PUSH1 0x0 SWAP1 POP PUSH5 0x2540BE400 PUSH2 0x2BEA JUMP JUMPDEST DUP3 PUSH1 0x1 PUSH1 0x1 PUSH1 0xA0 SHL SUB AND PUSH4 0xB2FFFB04 PUSH1 0x40 MLOAD DUP2 PUSH4 0xFFFFFFFF AND PUSH1 0xE0 SHL DUP2 MSTORE PUSH1 0x4 ADD PUSH1 0x20 PUSH1 0x40 MLOAD DUP1 DUP4 SUB DUP2 DUP7 DUP1 EXTCODESIZE ISZERO DUP1 ISZERO PUSH2 0x2BA3 JUMPI PUSH1 0x0 DUP1 REVERT JUMPDEST POP GAS STATICCALL ISZERO DUP1 ISZERO PUSH2 0x2BB7 JUMPI RETURNDATASIZE PUSH1 0x0 DUP1 RETURNDATACOPY RETURNDATASIZE PUSH1 0x0 REVERT JUMPDEST POP POP POP POP PUSH1 0x40 MLOAD RETURNDATASIZE PUSH1 0x1F NOT PUSH1 0x1F DUP3 ADD AND DUP3 ADD DUP1 PUSH1 0x40 MSTORE POP DUP2 ADD SWAP1 PUSH2 0x2BDB SWAP2 SWAP1 PUSH2 0x4517 JUMP JUMPDEST SWAP1 POP PUSH1 0x0 DUP2 SGT PUSH2 0x2BEA JUMPI PUSH1 0x0 DUP1 REVERT JUMPDEST SWAP7 SWAP2 SWAP6 POP SWAP4 POP SWAP2 POP POP JUMP JUMPDEST PUSH1 0x0 DUP1 PUSH2 0x2C00 PUSH2 0x32E7 JUMP JUMPDEST PUSH1 0x0 SWAP4 DUP5 MSTORE PUSH1 0x20 MSTORE POP POP PUSH1 0x40 SWAP1 KECCAK256 SLOAD SWAP1 JUMP JUMPDEST PUSH1 0x0 DUP2 PUSH1 0x1 EQ ISZERO PUSH2 0x2C27 JUMPI POP PUSH3 0x76A700 PUSH2 0x276 JUMP JUMPDEST DUP2 PUSH1 0x2 EQ ISZERO PUSH2 0x2C3A JUMPI POP PUSH3 0xED4E00 PUSH2 0x276 JUMP JUMPDEST DUP2 PUSH1 0x3 EQ ISZERO PUSH2 0x2C4E JUMPI POP PUSH4 0x1DA9C00 PUSH2 0x276 JUMP JUMPDEST DUP2 PUSH1 0x4 EQ ISZERO PUSH2 0x2C62 JUMPI POP PUSH4 0x3B53800 PUSH2 0x276 JUMP JUMPDEST DUP2 PUSH1 0x5 EQ ISZERO PUSH2 0x2C76 JUMPI POP PUSH4 0x9450C00 PUSH2 0x276 JUMP JUMPDEST DUP2 PUSH1 0x6 EQ ISZERO PUSH2 0x2C8A JUMPI POP PUSH4 0x128A1800 PUSH2 0x276 JUMP JUMPDEST DUP2 PUSH1 0x7 EQ ISZERO PUSH2 0x2C9E JUMPI POP PUSH4 0x25143000 PUSH2 0x276 JUMP JUMPDEST PUSH1 0x40 MLOAD PUSH3 0x461BCD PUSH1 0xE5 SHL DUP2 MSTORE PUSH1 0x4 ADD PUSH2 0x209 SWAP1 PUSH2 0x4853 JUMP JUMPDEST PUSH1 0x60 ADD MLOAD PUSH2 0x12C PUSH1 0x8 SWAP2 SWAP1 SWAP2 SHR PUSH1 0xFF AND MUL SWAP1 JUMP JUMPDEST PUSH1 0x0 PUSH3 0x76A700 PUSH2 0x2CD9 DUP6 PUSH2 0x2104 JUMP JUMPDEST ADD SWAP1 POP PUSH2 0x2CEB DUP8 DUP8 DUP8 DUP8 DUP8 DUP8 DUP8 PUSH2 0x32F4 JUMP JUMPDEST POP POP POP POP POP POP POP JUMP JUMPDEST PUSH1 0x0 PUSH1 0x2 DUP3 LT DUP1 ISZERO SWAP1 PUSH2 0x2EF JUMPI POP POP PUSH1 0x8 LT ISZERO SWAP1 JUMP JUMPDEST PUSH1 0x0 PUSH1 0x2 DUP3 LT DUP1 ISZERO SWAP1 PUSH2 0x2D1E JUMPI POP PUSH1 0x8 DUP3 GT ISZERO JUMPDEST PUSH2 0x2D27 JUMPI PUSH1 0x0 DUP1 REVERT JUMPDEST POP PUSH1 0x60 DUP3 ADD MLOAD PUSH1 0x48 PUSH1 0x8 PUSH1 0x1 NOT DUP5 ADD MUL ADD SHR SWAP3 SWAP2 POP POP JUMP JUMPDEST PUSH1 0x0 PUSH2 0x5C3 DUP3 PUSH2 0x957 PUSH1 0x64 DUP2 DUP8 PUSH2 0x1AB0 DUP12 DUP12 PUSH2 0x11BB JUMP JUMPDEST PUSH1 0x60 ADD MLOAD PUSH3 0x7A120 PUSH1 0x28 SWAP2 SWAP1 SWAP2 SHR PUSH1 0xFF AND MUL SWAP1 JUMP JUMPDEST PUSH1 0x0 DUP1 PUSH2 0x2D88 PUSH2 0x2D83 PUSH4 0x1DA9C00 PUSH2 0x1BFB DUP7 DUP9 PUSH2 0x2662 JUMP JUMPDEST PUSH2 0x332B JUMP JUMPDEST SWAP1 POP PUSH2 0x2D9A DUP2 PUSH3 0x1DCD65 PUSH1 0x49 SHL PUSH2 0x3349 JUMP JUMPDEST SWAP1 POP PUSH2 0x2DAD PUSH2 0x2DA8 DUP3 PUSH2 0x339C JUMP JUMPDEST PUSH2 0x33BE JUMP JUMPDEST SWAP1 POP PUSH2 0x2DBF DUP2 PUSH3 0x1DCD65 PUSH1 0x49 SHL PUSH2 0x3413 JUMP JUMPDEST SWAP1 POP PUSH1 0x0 PUSH2 0x2DCC DUP3 PUSH2 0x3449 JUMP JUMPDEST PUSH1 0x7 SIGNEXTEND SWAP6 SWAP5 POP POP POP POP POP JUMP JUMPDEST PUSH1 0x60 ADD MLOAD PUSH3 0x7A120 PUSH1 0x20 SWAP2 SWAP1 SWAP2 SHR PUSH1 0xFF AND MUL SWAP1 JUMP JUMPDEST PUSH1 0x0 PUSH2 0x422 PUSH2 0x2DFC DUP5 DUP5 PUSH2 0x11BB JUMP JUMPDEST PUSH4 0x3B9ACA00 PUSH2 0x1209 JUMP JUMPDEST PUSH1 0x0 DUP1 PUSH2 0x2EF PUSH1 0xB PUSH2 0x1488 JUMP JUMPDEST PUSH1 0x0 DUP1 PUSH2 0x2E1E PUSH2 0x3452 JUMP JUMPDEST PUSH1 0x1 PUSH1 0x1 PUSH1 0xA0 SHL SUB DUP7 AND PUSH1 0x0 SWAP1 DUP2 MSTORE PUSH1 0x20 SWAP2 DUP3 MSTORE PUSH1 0x40 DUP1 DUP3 KECCAK256 DUP8 DUP4 MSTORE DUP4 MSTORE DUP1 DUP3 KECCAK256 DUP7 DUP4 MSTORE SWAP1 SWAP3 MSTORE KECCAK256 SLOAD PUSH1 0xF SWAP1 DUP2 SIGNEXTEND SWAP1 SIGNEXTEND SWAP2 POP POP SWAP4 SWAP3 POP POP POP JUMP JUMPDEST PUSH1 0x0 DUP1 PUSH1 0x0 PUSH2 0x2E6C DUP7 PUSH1 0x20 ADD MLOAD DUP7 DUP7 PUSH2 0x2120 JUMP JUMPDEST SWAP2 POP SWAP2 POP PUSH1 0x0 PUSH2 0x2E7B DUP8 PUSH2 0x2CB6 JUMP JUMPDEST SWAP1 POP DUP2 PUSH2 0x2E9E JUMPI DUP7 MLOAD PUSH2 0x2E94 SWAP1 PUSH2 0xFFFF AND DUP8 DUP4 DUP9 PUSH2 0x345F JUMP JUMPDEST SWAP4 POP POP POP POP PUSH2 0x422 JUMP JUMPDEST PUSH1 0x0 PUSH2 0x2EA9 DUP7 PUSH2 0x2104 JUMP JUMPDEST SWAP1 POP PUSH1 0x0 PUSH2 0x2EC0 PUSH2 0x2EB9 DUP7 PUSH2 0x2C12 JUMP JUMPDEST DUP4 SWAP1 PUSH2 0xBCC JUMP JUMPDEST SWAP1 POP PUSH1 0x0 PUSH2 0x2ED8 DUP11 PUSH1 0x0 ADD MLOAD PUSH2 0xFFFF AND DUP4 DUP7 DUP12 PUSH2 0x345F JUMP JUMPDEST SWAP1 POP PUSH1 0x0 DUP1 DUP8 PUSH1 0x1 EQ ISZERO PUSH2 0x2EFD JUMPI DUP10 SWAP2 POP PUSH2 0x2EF6 DUP13 PUSH1 0x40 ADD MLOAD PUSH2 0x34FE JUMP JUMPDEST SWAP1 POP PUSH2 0x2F2C JUMP JUMPDEST PUSH2 0x2F13 PUSH2 0x2F0C PUSH1 0x1 DUP11 SUB PUSH2 0x2C12 JUMP JUMPDEST DUP7 SWAP1 PUSH2 0xBCC JUMP JUMPDEST SWAP2 POP PUSH2 0x2F29 DUP13 PUSH1 0x0 ADD MLOAD PUSH2 0xFFFF AND DUP4 DUP9 DUP14 PUSH2 0x345F JUMP JUMPDEST SWAP1 POP JUMPDEST PUSH2 0x2F39 DUP3 DUP6 DUP4 DUP7 DUP16 PUSH2 0x358F JUMP JUMPDEST SWAP9 POP POP POP POP POP POP POP POP POP PUSH2 0x422 JUMP JUMPDEST PUSH1 0x0 PUSH2 0x2F52 PUSH2 0x446B JUMP JUMPDEST RETURNDATASIZE DUP1 ISZERO PUSH2 0x2F66 JUMPI PUSH1 0x20 DUP2 EQ PUSH2 0x2F6F JUMPI PUSH1 0x0 DUP1 REVERT JUMPDEST PUSH1 0x1 SWAP3 POP PUSH2 0x2F7A JUMP JUMPDEST PUSH1 0x20 PUSH1 0x0 DUP4 RETURNDATACOPY DUP2 MLOAD SWAP3 POP JUMPDEST POP DUP2 PUSH2 0x738 JUMPI PUSH1 0x40 MLOAD PUSH3 0x461BCD PUSH1 0xE5 SHL DUP2 MSTORE PUSH1 0x4 ADD PUSH2 0x209 SWAP1 PUSH2 0x492F JUMP JUMPDEST PUSH1 0x0 DUP1 PUSH2 0x2EF PUSH1 0x7 PUSH2 0x1488 JUMP JUMPDEST PUSH1 0x40 MLOAD PUSH4 0x23B872DD PUSH1 0xE0 SHL DUP2 MSTORE PUSH1 0x1 PUSH1 0x1 PUSH1 0xA0 SHL SUB DUP5 AND SWAP1 PUSH4 0x23B872DD SWAP1 PUSH2 0x27D2 SWAP1 DUP6 SWAP1 ADDRESS SWAP1 DUP7 SWAP1 PUSH1 0x4 ADD PUSH2 0x4717 JUMP JUMPDEST PUSH1 0x60 PUSH1 0x10 DUP3 PUSH1 0xFF AND GT ISZERO PUSH2 0x2FE8 JUMPI PUSH1 0x0 DUP1 REVERT JUMPDEST PUSH1 0x0 PUSH2 0x2FF2 PUSH2 0x35ED JUMP JUMPDEST PUSH1 0x1 PUSH1 0x1 PUSH1 0xA0 SHL SUB DUP6 AND PUSH1 0x0 SWAP1 DUP2 MSTORE PUSH1 0x20 DUP3 SWAP1 MSTORE PUSH1 0x40 DUP2 KECCAK256 SWAP2 SWAP3 POP PUSH1 0xFF DUP6 AND PUSH8 0xFFFFFFFFFFFFFFFF DUP2 GT DUP1 ISZERO PUSH2 0x3027 JUMPI PUSH1 0x0 DUP1 REVERT JUMPDEST POP PUSH1 0x40 MLOAD SWAP1 DUP1 DUP3 MSTORE DUP1 PUSH1 0x20 MUL PUSH1 0x20 ADD DUP3 ADD PUSH1 0x40 MSTORE DUP1 ISZERO PUSH2 0x3061 JUMPI DUP2 PUSH1 0x20 ADD JUMPDEST PUSH2 0x304E PUSH2 0x4401 JUMP JUMPDEST DUP2 MSTORE PUSH1 0x20 ADD SWAP1 PUSH1 0x1 SWAP1 SUB SWAP1 DUP2 PUSH2 0x3046 JUMPI SWAP1 POP JUMPDEST POP SWAP1 POP PUSH1 0x0 JUMPDEST DUP6 PUSH1 0xFF AND DUP2 LT ISZERO PUSH2 0x30ED JUMPI PUSH1 0x0 DUP4 DUP3 PUSH1 0x10 DUP2 LT PUSH2 0x3080 JUMPI INVALID JUMPDEST ADD SWAP1 POP PUSH1 0x0 DUP4 DUP4 DUP2 MLOAD DUP2 LT PUSH2 0x3091 JUMPI INVALID JUMPDEST PUSH1 0x20 SWAP1 DUP2 MUL SWAP2 SWAP1 SWAP2 ADD DUP2 ADD MLOAD DUP4 SLOAD PUSH2 0xFFFF DUP2 AND DUP3 MSTORE PUSH5 0xFFFFFFFFFF PUSH3 0x10000 DUP3 DIV AND SWAP3 DUP3 ADD SWAP3 SWAP1 SWAP3 MSTORE PUSH1 0xFF PUSH1 0x1 PUSH1 0x38 SHL DUP4 DIV AND PUSH1 0x40 DUP3 ADD MSTORE PUSH1 0x1 PUSH1 0x40 SHL SWAP1 SWAP2 DIV PUSH1 0xA SWAP1 DUP2 SIGNEXTEND SWAP1 SIGNEXTEND PUSH1 0x60 DUP3 ADD MSTORE PUSH1 0x80 ADD SWAP2 SWAP1 SWAP2 MSTORE POP PUSH1 0x1 ADD PUSH2 0x3067 JUMP JUMPDEST POP SWAP6 SWAP5 POP POP POP POP POP JUMP JUMPDEST DUP1 MLOAD PUSH1 0x0 DUP2 PUSH8 0xFFFFFFFFFFFFFFFF DUP2 GT DUP1 ISZERO PUSH2 0x3112 JUMPI PUSH1 0x0 DUP1 REVERT JUMPDEST POP PUSH1 0x40 MLOAD SWAP1 DUP1 DUP3 MSTORE DUP1 PUSH1 0x20 MUL PUSH1 0x20 ADD DUP3 ADD PUSH1 0x40 MSTORE DUP1 ISZERO PUSH2 0x313C JUMPI DUP2 PUSH1 0x20 ADD PUSH1 0x20 DUP3 MUL DUP1 CALLDATASIZE DUP4 CALLDATACOPY ADD SWAP1 POP JUMPDEST POP SWAP1 POP PUSH1 0x0 JUMPDEST DUP3 DUP2 LT ISZERO PUSH2 0x3199 JUMPI PUSH1 0x0 DUP5 DUP3 DUP2 MLOAD DUP2 LT PUSH2 0x3158 JUMPI INVALID JUMPDEST PUSH1 0x20 MUL PUSH1 0x20 ADD ADD MLOAD SWAP1 POP PUSH2 0x3179 DUP2 PUSH1 0x0 ADD MLOAD DUP3 PUSH1 0x20 ADD MLOAD DUP4 PUSH1 0x40 ADD MLOAD PUSH2 0x35FA JUMP JUMPDEST DUP4 DUP4 DUP2 MLOAD DUP2 LT PUSH2 0x3185 JUMPI INVALID JUMPDEST PUSH1 0x20 SWAP1 DUP2 MUL SWAP2 SWAP1 SWAP2 ADD ADD MSTORE POP PUSH1 0x1 ADD PUSH2 0x3142 JUMP JUMPDEST POP PUSH1 0x1 JUMPDEST DUP3 DUP2 LT ISZERO PUSH2 0x17BB JUMPI DUP1 JUMPDEST PUSH1 0x0 DUP2 GT DUP1 ISZERO PUSH2 0x31DF JUMPI POP DUP3 DUP2 DUP2 MLOAD DUP2 LT PUSH2 0x31BE JUMPI INVALID JUMPDEST PUSH1 0x20 MUL PUSH1 0x20 ADD ADD MLOAD DUP4 PUSH1 0x1 DUP4 SUB DUP2 MLOAD DUP2 LT PUSH2 0x31D5 JUMPI INVALID JUMPDEST PUSH1 0x20 MUL PUSH1 0x20 ADD ADD MLOAD GT JUMPDEST ISZERO PUSH2 0x32A7 JUMPI DUP3 DUP2 DUP2 MLOAD DUP2 LT PUSH2 0x31F0 JUMPI INVALID JUMPDEST PUSH1 0x20 MUL PUSH1 0x20 ADD ADD MLOAD DUP4 PUSH1 0x1 DUP4 SUB DUP2 MLOAD DUP2 LT PUSH2 0x3207 JUMPI INVALID JUMPDEST PUSH1 0x20 MUL PUSH1 0x20 ADD ADD MLOAD DUP5 PUSH1 0x1 DUP5 SUB DUP2 MLOAD DUP2 LT PUSH2 0x321E JUMPI INVALID JUMPDEST PUSH1 0x20 MUL PUSH1 0x20 ADD ADD DUP6 DUP5 DUP2 MLOAD DUP2 LT PUSH2 0x3231 JUMPI INVALID JUMPDEST PUSH1 0x20 MUL PUSH1 0x20 ADD ADD DUP3 DUP2 MSTORE POP DUP3 DUP2 MSTORE POP POP POP DUP5 DUP2 DUP2 MLOAD DUP2 LT PUSH2 0x324E JUMPI INVALID JUMPDEST PUSH1 0x20 MUL PUSH1 0x20 ADD ADD MLOAD DUP6 PUSH1 0x1 DUP4 SUB DUP2 MLOAD DUP2 LT PUSH2 0x3265 JUMPI INVALID JUMPDEST PUSH1 0x20 MUL PUSH1 0x20 ADD ADD MLOAD DUP7 PUSH1 0x1 DUP5 SUB DUP2 MLOAD DUP2 LT PUSH2 0x327C JUMPI INVALID JUMPDEST PUSH1 0x20 MUL PUSH1 0x20 ADD ADD DUP8 DUP5 DUP2 MLOAD DUP2 LT PUSH2 0x328F JUMPI INVALID JUMPDEST PUSH1 0x20 SWAP1 DUP2 MUL SWAP2 SWAP1 SWAP2 ADD ADD SWAP2 SWAP1 SWAP2 MSTORE MSTORE PUSH1 0x0 NOT ADD PUSH2 0x31A7 JUMP JUMPDEST POP PUSH1 0x1 ADD PUSH2 0x319D JUMP JUMPDEST PUSH1 0x0 DUP1 PUSH1 0x0 PUSH2 0x32BD PUSH2 0x3655 JUMP JUMPDEST PUSH1 0x0 SWAP5 DUP6 MSTORE PUSH1 0x20 MSTORE POP POP PUSH1 0x40 SWAP1 SWAP2 KECCAK256 SLOAD PUSH1 0x1 PUSH1 0x1 PUSH1 0xA0 SHL SUB DUP2 AND SWAP3 PUSH1 0x1 PUSH1 0xA0 SHL SWAP1 SWAP2 DIV PUSH1 0xFF AND SWAP2 POP JUMP JUMPDEST PUSH1 0x0 DUP1 PUSH2 0x2EF PUSH1 0x9 PUSH2 0x1488 JUMP JUMPDEST PUSH2 0x3301 DUP8 DUP8 DUP8 DUP7 DUP6 PUSH2 0x3662 JUMP JUMPDEST PUSH2 0x331A DUP8 PUSH1 0xE0 ADD MLOAD DUP9 PUSH1 0xA0 ADD MLOAD DUP10 PUSH1 0xC0 ADD MLOAD DUP6 DUP9 PUSH2 0x371D JUMP JUMPDEST PUSH1 0xC0 SWAP1 SWAP8 ADD SWAP7 SWAP1 SWAP7 MSTORE POP POP POP POP POP POP JUMP JUMPDEST PUSH1 0x0 PUSH8 0x7FFFFFFFFFFFFFFF DUP3 GT ISZERO PUSH2 0x3342 JUMPI PUSH1 0x0 DUP1 REVERT JUMPDEST POP PUSH1 0x40 SHL SWAP1 JUMP JUMPDEST PUSH1 0x0 DUP2 PUSH1 0xF SIGNEXTEND PUSH1 0x0 EQ ISZERO PUSH2 0x335C JUMPI PUSH1 0x0 DUP1 REVERT JUMPDEST PUSH1 0x0 DUP3 PUSH1 0xF SIGNEXTEND PUSH1 0x40 DUP6 PUSH1 0xF SIGNEXTEND SWAP1 SHL DUP2 PUSH2 0x3371 JUMPI INVALID JUMPDEST SDIV SWAP1 POP PUSH1 0x1 PUSH1 0x1 PUSH1 0x7F SHL SUB NOT DUP2 SLT DUP1 ISZERO SWAP1 PUSH2 0x3393 JUMPI POP PUSH1 0x1 PUSH1 0x1 PUSH1 0x7F SHL SUB DUP2 SGT ISZERO JUMPDEST PUSH2 0x422 JUMPI PUSH1 0x0 DUP1 REVERT JUMPDEST PUSH1 0x0 PUSH1 0xF DUP3 SWAP1 SIGNEXTEND PUSH1 0x1 PUSH1 0x1 PUSH1 0x7F SHL SUB NOT EQ ISZERO PUSH2 0x33B7 JUMPI PUSH1 0x0 DUP1 REVERT JUMPDEST POP PUSH1 0x0 SUB SWAP1 JUMP JUMPDEST PUSH1 0x0 PUSH1 0x1 PUSH1 0x46 SHL DUP3 PUSH1 0xF SIGNEXTEND SLT PUSH2 0x33D3 JUMPI PUSH1 0x0 DUP1 REVERT JUMPDEST PUSH9 0x3FFFFFFFFFFFFFFFFF NOT DUP3 PUSH1 0xF SIGNEXTEND SLT ISZERO PUSH2 0x33F0 JUMPI POP PUSH1 0x0 PUSH2 0x276 JUMP JUMPDEST PUSH2 0x2EF PUSH1 0x80 DUP4 PUSH1 0xF SIGNEXTEND PUSH17 0x171547652B82FE1777D0FFDA0D23A7D12 MUL SWAP1 SAR PUSH2 0x37B0 JUMP JUMPDEST PUSH1 0x0 PUSH1 0xF DUP4 DUP2 SIGNEXTEND SWAP1 DUP4 SWAP1 SIGNEXTEND MUL PUSH1 0x40 SAR PUSH1 0x1 PUSH1 0x1 PUSH1 0x7F SHL SUB NOT DUP2 SLT DUP1 ISZERO SWAP1 PUSH2 0x3393 JUMPI POP PUSH1 0x1 PUSH1 0x1 PUSH1 0x7F SHL SUB DUP2 SGT ISZERO PUSH2 0x422 JUMPI PUSH1 0x0 DUP1 REVERT JUMPDEST PUSH1 0xF SIGNEXTEND PUSH1 0x40 SAR SWAP1 JUMP JUMPDEST PUSH1 0x0 DUP1 PUSH2 0x2EF PUSH1 0xC PUSH2 0x1488 JUMP JUMPDEST PUSH1 0x0 DUP1 PUSH2 0x346A PUSH2 0x4262 JUMP JUMPDEST SWAP1 POP PUSH1 0x0 PUSH3 0x76A700 PUSH2 0x347B DUP6 PUSH2 0x2104 JUMP JUMPDEST PUSH1 0x0 DUP10 DUP2 MSTORE PUSH1 0x20 DUP6 DUP2 MSTORE PUSH1 0x40 DUP1 DUP4 KECCAK256 DUP12 DUP5 MSTORE DUP3 MSTORE DUP1 DUP4 KECCAK256 SWAP5 SWAP1 SWAP4 ADD DUP1 DUP4 MSTORE SWAP4 SWAP1 MSTORE KECCAK256 DUP1 SLOAD SWAP2 SWAP3 POP SWAP1 PUSH4 0xFFFFFFFF PUSH1 0x1 PUSH1 0xA0 SHL DUP3 DIV DUP2 AND SWAP2 PUSH1 0x1 PUSH1 0xC0 SHL DUP2 DIV DUP3 AND SWAP2 PUSH1 0x1 PUSH1 0xE0 SHL SWAP1 SWAP2 DIV AND DUP2 PUSH2 0x34E2 JUMPI PUSH1 0x40 MLOAD PUSH3 0x461BCD PUSH1 0xE5 SHL DUP2 MSTORE PUSH1 0x4 ADD PUSH2 0x209 SWAP1 PUSH2 0x47D4 JUMP JUMPDEST PUSH2 0x34EF DUP2 DUP5 DUP5 DUP13 DUP13 PUSH2 0x371D JUMP JUMPDEST SWAP12 SWAP11 POP POP POP POP POP POP POP POP POP POP POP JUMP JUMPDEST DUP1 MLOAD PUSH1 0x0 SWAP1 PUSH1 0x1 PUSH1 0x1 PUSH1 0xA0 SHL SUB AND PUSH2 0x3518 JUMPI POP PUSH1 0x0 PUSH2 0x276 JUMP JUMPDEST PUSH1 0x0 DUP3 PUSH1 0x0 ADD MLOAD PUSH1 0x1 PUSH1 0x1 PUSH1 0xA0 SHL SUB AND PUSH4 0xDD30A666 PUSH1 0x40 MLOAD DUP2 PUSH4 0xFFFFFFFF AND PUSH1 0xE0 SHL DUP2 MSTORE PUSH1 0x4 ADD PUSH1 0x20 PUSH1 0x40 MLOAD DUP1 DUP4 SUB DUP2 DUP7 DUP1 EXTCODESIZE ISZERO DUP1 ISZERO PUSH2 0x3557 JUMPI PUSH1 0x0 DUP1 REVERT JUMPDEST POP GAS STATICCALL ISZERO DUP1 ISZERO PUSH2 0x356B JUMPI RETURNDATASIZE PUSH1 0x0 DUP1 RETURNDATACOPY RETURNDATASIZE PUSH1 0x0 REVERT JUMPDEST POP POP POP POP PUSH1 0x40 MLOAD RETURNDATASIZE PUSH1 0x1F NOT PUSH1 0x1F DUP3 ADD AND DUP3 ADD DUP1 PUSH1 0x40 MSTORE POP DUP2 ADD SWAP1 PUSH2 0x422 SWAP2 SWAP1 PUSH2 0x4517 JUMP JUMPDEST PUSH1 0x0 DUP2 DUP7 LT PUSH2 0x359D JUMPI PUSH1 0x0 DUP1 REVERT JUMPDEST DUP5 DUP3 LT PUSH2 0x35A9 JUMPI PUSH1 0x0 DUP1 REVERT JUMPDEST DUP4 DUP4 LT PUSH2 0x35CF JUMPI PUSH2 0x35C8 DUP5 PUSH2 0x2228 DUP9 DUP9 SUB PUSH2 0x1BFB DUP4 DUP9 SUB DUP12 DUP9 SUB PUSH2 0x2662 JUMP JUMPDEST SWAP1 POP PUSH2 0x5C3 JUMP JUMPDEST PUSH2 0x35C8 PUSH2 0x35E6 DUP8 DUP8 SUB PUSH2 0x1BFB DUP7 DUP9 SUB DUP11 DUP8 SUB PUSH2 0x2662 JUMP JUMPDEST DUP6 SWAP1 PUSH2 0x26E0 JUMP JUMPDEST PUSH1 0x0 DUP1 PUSH2 0x2EF PUSH1 0xD PUSH2 0x1488 JUMP JUMPDEST PUSH1 0x0 PUSH2 0x3FFF DUP5 GT ISZERO PUSH2 0x360B JUMPI PUSH1 0x0 DUP1 REVERT JUMPDEST PUSH5 0xFFFFFFFFFF DUP4 GT ISZERO PUSH2 0x361D JUMPI PUSH1 0x0 DUP1 REVERT JUMPDEST PUSH1 0x8 DUP3 GT ISZERO PUSH2 0x362B JUMPI PUSH1 0x0 DUP1 REVERT JUMPDEST POP PUSH8 0xFFFF000000000000 PUSH1 0x30 DUP5 SWAP1 SHL AND PUSH6 0xFFFFFFFFFF00 PUSH1 0x8 DUP5 SWAP1 SHL AND OR PUSH1 0xFF DUP3 AND OR SWAP4 SWAP3 POP POP POP JUMP JUMPDEST PUSH1 0x0 DUP1 PUSH2 0x2EF PUSH1 0xF PUSH2 0x1488 JUMP JUMPDEST PUSH1 0x0 PUSH2 0x366C PUSH2 0x4262 JUMP JUMPDEST PUSH1 0x0 DUP7 DUP2 MSTORE PUSH1 0x20 DUP3 DUP2 MSTORE PUSH1 0x40 DUP1 DUP4 KECCAK256 DUP9 DUP5 MSTORE DUP3 MSTORE DUP1 DUP4 KECCAK256 DUP7 DUP5 MSTORE DUP3 MSTORE SWAP2 DUP3 SWAP1 KECCAK256 DUP1 DUP11 MSTORE SWAP1 DUP10 ADD DUP8 SWAP1 MSTORE DUP1 SLOAD PUSH1 0x1 PUSH1 0x1 PUSH1 0x50 SHL SUB DUP1 DUP3 AND SWAP4 DUP12 ADD SWAP4 SWAP1 SWAP4 MSTORE PUSH1 0x1 PUSH1 0x50 SHL DUP2 DIV SWAP1 SWAP3 AND PUSH1 0x60 DUP11 ADD MSTORE PUSH4 0xFFFFFFFF PUSH1 0x1 PUSH1 0xA0 SHL DUP4 DIV DUP2 AND PUSH1 0xA0 DUP12 ADD MSTORE PUSH1 0x1 PUSH1 0xC0 SHL DUP4 DIV DUP2 AND PUSH1 0xC0 DUP12 ADD MSTORE PUSH1 0x1 PUSH1 0xE0 SHL SWAP1 SWAP3 DIV SWAP1 SWAP2 AND PUSH1 0xE0 DUP10 ADD MSTORE SWAP1 SWAP2 POP DUP1 DUP5 ISZERO PUSH2 0x370B JUMPI PUSH1 0x1 DUP3 ADD SLOAD PUSH1 0x1 PUSH1 0x1 PUSH1 0x50 SHL SUB AND PUSH1 0x80 DUP10 ADD MSTORE PUSH2 0x3713 JUMP JUMPDEST PUSH1 0x0 PUSH1 0x80 DUP10 ADD MSTORE JUMPDEST POP POP POP POP POP POP POP POP JUMP JUMPDEST PUSH1 0x0 DUP1 DUP4 GT PUSH2 0x372B JUMPI PUSH1 0x0 DUP1 REVERT JUMPDEST DUP2 DUP7 GT ISZERO PUSH2 0x373A JUMPI POP DUP4 PUSH2 0x5C3 JUMP JUMPDEST PUSH1 0x0 PUSH2 0x3746 DUP4 DUP9 PUSH2 0x26E0 JUMP JUMPDEST SWAP1 POP DUP4 DUP2 GT ISZERO PUSH2 0x3759 JUMPI DUP6 SWAP2 POP POP PUSH2 0x5C3 JUMP JUMPDEST PUSH1 0x0 PUSH2 0x376D DUP6 PUSH2 0x1BFB DUP5 PUSH4 0x3B9ACA00 PUSH2 0x2662 JUMP JUMPDEST SWAP1 POP PUSH1 0x0 PUSH2 0x377F PUSH4 0x3B9ACA00 DUP4 PUSH2 0x26E0 JUMP JUMPDEST SWAP1 POP PUSH1 0x0 PUSH2 0x37A2 PUSH4 0x3B9ACA00 PUSH2 0x1BFB PUSH2 0x3798 DUP12 DUP7 PUSH2 0x2662 JUMP JUMPDEST PUSH2 0x2228 DUP14 DUP9 PUSH2 0x2662 JUMP JUMPDEST SWAP11 SWAP10 POP POP POP POP POP POP POP POP POP POP JUMP JUMPDEST PUSH1 0x0 PUSH1 0x1 PUSH1 0x46 SHL DUP3 PUSH1 0xF SIGNEXTEND SLT PUSH2 0x37C5 JUMPI PUSH1 0x0 DUP1 REVERT JUMPDEST PUSH9 0x3FFFFFFFFFFFFFFFFF NOT DUP3 PUSH1 0xF SIGNEXTEND SLT ISZERO PUSH2 0x37E2 JUMPI POP PUSH1 0x0 PUSH2 0x276 JUMP JUMPDEST PUSH1 0x1 PUSH1 0x7F SHL PUSH1 0x0 PUSH8 0x8000000000000000 DUP5 AND PUSH1 0xF SIGNEXTEND SGT ISZERO PUSH2 0x3814 JUMPI PUSH17 0x16A09E667F3BCC908B2FB1366EA957D3E MUL PUSH1 0x80 SHR JUMPDEST PUSH1 0x0 DUP4 PUSH8 0x4000000000000000 AND PUSH1 0xF SIGNEXTEND SGT ISZERO PUSH2 0x3841 JUMPI PUSH17 0x1306FE0A31B7152DE8D5A46305C85EDEC MUL PUSH1 0x80 SHR JUMPDEST PUSH1 0x0 DUP4 PUSH8 0x2000000000000000 AND PUSH1 0xF SIGNEXTEND SGT ISZERO PUSH2 0x386E JUMPI PUSH17 0x1172B83C7D517ADCDF7C8C50EB14A791F MUL PUSH1 0x80 SHR JUMPDEST PUSH1 0x0 DUP4 PUSH8 0x1000000000000000 AND PUSH1 0xF SIGNEXTEND SGT ISZERO PUSH2 0x389B JUMPI PUSH17 0x10B5586CF9890F6298B92B71842A98363 MUL PUSH1 0x80 SHR JUMPDEST PUSH1 0x0 DUP4 PUSH8 0x800000000000000 AND PUSH1 0xF SIGNEXTEND SGT ISZERO PUSH2 0x38C8 JUMPI PUSH17 0x1059B0D31585743AE7C548EB68CA417FD MUL PUSH1 0x80 SHR JUMPDEST PUSH1 0x0 DUP4 PUSH8 0x400000000000000 AND PUSH1 0xF SIGNEXTEND SGT ISZERO PUSH2 0x38F5 JUMPI PUSH17 0x102C9A3E778060EE6F7CACA4F7A29BDE8 MUL PUSH1 0x80 SHR JUMPDEST PUSH1 0x0 DUP4 PUSH8 0x200000000000000 AND PUSH1 0xF SIGNEXTEND SGT ISZERO PUSH2 0x3922 JUMPI PUSH17 0x10163DA9FB33356D84A66AE336DCDFA3F MUL PUSH1 0x80 SHR JUMPDEST PUSH1 0x0 DUP4 PUSH1 0x1 PUSH1 0x38 SHL AND PUSH1 0xF SIGNEXTEND SGT ISZERO PUSH2 0x394B JUMPI PUSH17 0x100B1AFA5ABCBED6129AB13EC11DC9543 MUL PUSH1 0x80 SHR JUMPDEST PUSH1 0x0 DUP4 PUSH7 0x80000000000000 AND PUSH1 0xF SIGNEXTEND SGT ISZERO PUSH2 0x3977 JUMPI PUSH17 0x10058C86DA1C09EA1FF19D294CF2F679B MUL PUSH1 0x80 SHR JUMPDEST PUSH1 0x0 DUP4 PUSH7 0x40000000000000 AND PUSH1 0xF SIGNEXTEND SGT ISZERO PUSH2 0x39A3 JUMPI PUSH17 0x1002C605E2E8CEC506D21BFC89A23A00F MUL PUSH1 0x80 SHR JUMPDEST PUSH1 0x0 DUP4 PUSH7 0x20000000000000 AND PUSH1 0xF SIGNEXTEND SGT ISZERO PUSH2 0x39CF JUMPI PUSH17 0x100162F3904051FA128BCA9C55C31E5DF MUL PUSH1 0x80 SHR JUMPDEST PUSH1 0x0 DUP4 PUSH7 0x10000000000000 AND PUSH1 0xF SIGNEXTEND SGT ISZERO PUSH2 0x39FB JUMPI PUSH17 0x1000B175EFFDC76BA38E31671CA939725 MUL PUSH1 0x80 SHR JUMPDEST PUSH1 0x0 DUP4 PUSH7 0x8000000000000 AND PUSH1 0xF SIGNEXTEND SGT ISZERO PUSH2 0x3A27 JUMPI PUSH17 0x100058BA01FB9F96D6CACD4B180917C3D MUL PUSH1 0x80 SHR JUMPDEST PUSH1 0x0 DUP4 PUSH7 0x4000000000000 AND PUSH1 0xF SIGNEXTEND SGT ISZERO PUSH2 0x3A53 JUMPI PUSH17 0x10002C5CC37DA9491D0985C348C68E7B3 MUL PUSH1 0x80 SHR JUMPDEST PUSH1 0x0 DUP4 PUSH7 0x2000000000000 AND PUSH1 0xF SIGNEXTEND SGT ISZERO PUSH2 0x3A7F JUMPI PUSH17 0x1000162E525EE054754457D5995292026 MUL PUSH1 0x80 SHR JUMPDEST PUSH1 0x0 DUP4 PUSH1 0x1 PUSH1 0x30 SHL AND PUSH1 0xF SIGNEXTEND SGT ISZERO PUSH2 0x3AA8 JUMPI PUSH17 0x10000B17255775C040618BF4A4ADE83FC MUL PUSH1 0x80 SHR JUMPDEST PUSH1 0x0 DUP4 PUSH6 0x800000000000 AND PUSH1 0xF SIGNEXTEND SGT ISZERO PUSH2 0x3AD3 JUMPI PUSH17 0x1000058B91B5BC9AE2EED81E9B7D4CFAB MUL PUSH1 0x80 SHR JUMPDEST PUSH1 0x0 DUP4 PUSH6 0x400000000000 AND PUSH1 0xF SIGNEXTEND SGT ISZERO PUSH2 0x3AFE JUMPI PUSH17 0x100002C5C89D5EC6CA4D7C8ACC017B7C9 MUL PUSH1 0x80 SHR JUMPDEST PUSH1 0x0 DUP4 PUSH6 0x200000000000 AND PUSH1 0xF SIGNEXTEND SGT ISZERO PUSH2 0x3B29 JUMPI PUSH17 0x10000162E43F4F831060E02D839A9D16D MUL PUSH1 0x80 SHR JUMPDEST PUSH1 0x0 DUP4 PUSH6 0x100000000000 AND PUSH1 0xF SIGNEXTEND SGT ISZERO PUSH2 0x3B54 JUMPI PUSH17 0x100000B1721BCFC99D9F890EA06911763 MUL PUSH1 0x80 SHR JUMPDEST PUSH1 0x0 DUP4 PUSH6 0x80000000000 AND PUSH1 0xF SIGNEXTEND SGT ISZERO PUSH2 0x3B7F JUMPI PUSH17 0x10000058B90CF1E6D97F9CA14DBCC1628 MUL PUSH1 0x80 SHR JUMPDEST PUSH1 0x0 DUP4 PUSH6 0x40000000000 AND PUSH1 0xF SIGNEXTEND SGT ISZERO PUSH2 0x3BAA JUMPI PUSH17 0x1000002C5C863B73F016468F6BAC5CA2B MUL PUSH1 0x80 SHR JUMPDEST PUSH1 0x0 DUP4 PUSH6 0x20000000000 AND PUSH1 0xF SIGNEXTEND SGT ISZERO PUSH2 0x3BD5 JUMPI PUSH17 0x100000162E430E5A18F6119E3C02282A5 MUL PUSH1 0x80 SHR JUMPDEST PUSH1 0x0 DUP4 PUSH6 0x10000000000 AND PUSH1 0xF SIGNEXTEND SGT ISZERO PUSH2 0x3C00 JUMPI PUSH17 0x1000000B1721835514B86E6D96EFD1BFE MUL PUSH1 0x80 SHR JUMPDEST PUSH1 0x0 DUP4 PUSH5 0x8000000000 AND PUSH1 0xF SIGNEXTEND SGT ISZERO PUSH2 0x3C2A JUMPI PUSH17 0x100000058B90C0B48C6BE5DF846C5B2EF MUL PUSH1 0x80 SHR JUMPDEST PUSH1 0x0 DUP4 PUSH5 0x4000000000 AND PUSH1 0xF SIGNEXTEND SGT ISZERO PUSH2 0x3C54 JUMPI PUSH17 0x10000002C5C8601CC6B9E94213C72737A MUL PUSH1 0x80 SHR JUMPDEST PUSH1 0x0 DUP4 PUSH5 0x2000000000 AND PUSH1 0xF SIGNEXTEND SGT ISZERO PUSH2 0x3C7E JUMPI PUSH17 0x1000000162E42FFF037DF38AA2B219F06 MUL PUSH1 0x80 SHR JUMPDEST PUSH1 0x0 DUP4 PUSH5 0x1000000000 AND PUSH1 0xF SIGNEXTEND SGT ISZERO PUSH2 0x3CA8 JUMPI PUSH17 0x10000000B17217FBA9C739AA5819F44F9 MUL PUSH1 0x80 SHR JUMPDEST PUSH1 0x0 DUP4 PUSH5 0x800000000 AND PUSH1 0xF SIGNEXTEND SGT ISZERO PUSH2 0x3CD2 JUMPI PUSH17 0x1000000058B90BFCDEE5ACD3C1CEDC823 MUL PUSH1 0x80 SHR JUMPDEST PUSH1 0x0 DUP4 PUSH5 0x400000000 AND PUSH1 0xF SIGNEXTEND SGT ISZERO PUSH2 0x3CFC JUMPI PUSH17 0x100000002C5C85FE31F35A6A30DA1BE50 MUL PUSH1 0x80 SHR JUMPDEST PUSH1 0x0 DUP4 PUSH5 0x200000000 AND PUSH1 0xF SIGNEXTEND SGT ISZERO PUSH2 0x3D26 JUMPI PUSH17 0x10000000162E42FF0999CE3541B9FFFCF MUL PUSH1 0x80 SHR JUMPDEST PUSH1 0x0 DUP4 PUSH5 0x100000000 AND PUSH1 0xF SIGNEXTEND SGT ISZERO PUSH2 0x3D50 JUMPI PUSH17 0x100000000B17217F80F4EF5AADDA45554 MUL PUSH1 0x80 SHR JUMPDEST PUSH1 0x0 DUP4 PUSH4 0x80000000 AND PUSH1 0xF SIGNEXTEND SGT ISZERO PUSH2 0x3D79 JUMPI PUSH17 0x10000000058B90BFBF8479BD5A81B51AD MUL PUSH1 0x80 SHR JUMPDEST PUSH1 0x0 DUP4 PUSH4 0x40000000 AND PUSH1 0xF SIGNEXTEND SGT ISZERO PUSH2 0x3DA2 JUMPI PUSH17 0x1000000002C5C85FDF84BD62AE30A74CC MUL PUSH1 0x80 SHR JUMPDEST PUSH1 0x0 DUP4 PUSH4 0x20000000 AND PUSH1 0xF SIGNEXTEND SGT ISZERO PUSH2 0x3DCB JUMPI PUSH17 0x100000000162E42FEFB2FED257559BDAA MUL PUSH1 0x80 SHR JUMPDEST PUSH1 0x0 DUP4 PUSH4 0x10000000 AND PUSH1 0xF SIGNEXTEND SGT ISZERO PUSH2 0x3DF4 JUMPI PUSH17 0x1000000000B17217F7D5A7716BBA4A9AE MUL PUSH1 0x80 SHR JUMPDEST PUSH1 0x0 DUP4 PUSH4 0x8000000 AND PUSH1 0xF SIGNEXTEND SGT ISZERO PUSH2 0x3E1D JUMPI PUSH17 0x100000000058B90BFBE9DDBAC5E109CCE MUL PUSH1 0x80 SHR JUMPDEST PUSH1 0x0 DUP4 PUSH4 0x4000000 AND PUSH1 0xF SIGNEXTEND SGT ISZERO PUSH2 0x3E46 JUMPI PUSH17 0x10000000002C5C85FDF4B15DE6F17EB0D MUL PUSH1 0x80 SHR JUMPDEST PUSH1 0x0 DUP4 PUSH4 0x2000000 AND PUSH1 0xF SIGNEXTEND SGT ISZERO PUSH2 0x3E6F JUMPI PUSH17 0x1000000000162E42FEFA494F1478FDE05 MUL PUSH1 0x80 SHR JUMPDEST PUSH1 0x0 DUP4 PUSH4 0x1000000 AND PUSH1 0xF SIGNEXTEND SGT ISZERO PUSH2 0x3E98 JUMPI PUSH17 0x10000000000B17217F7D20CF927C8E94C MUL PUSH1 0x80 SHR JUMPDEST PUSH1 0x0 DUP4 PUSH3 0x800000 AND PUSH1 0xF SIGNEXTEND SGT ISZERO PUSH2 0x3EC0 JUMPI PUSH17 0x1000000000058B90BFBE8F71CB4E4B33D MUL PUSH1 0x80 SHR JUMPDEST PUSH1 0x0 DUP4 PUSH3 0x400000 AND PUSH1 0xF SIGNEXTEND SGT ISZERO PUSH2 0x3EE8 JUMPI PUSH17 0x100000000002C5C85FDF477B662B26945 MUL PUSH1 0x80 SHR JUMPDEST PUSH1 0x0 DUP4 PUSH3 0x200000 AND PUSH1 0xF SIGNEXTEND SGT ISZERO PUSH2 0x3F10 JUMPI PUSH17 0x10000000000162E42FEFA3AE53369388C MUL PUSH1 0x80 SHR JUMPDEST PUSH1 0x0 DUP4 PUSH3 0x100000 AND PUSH1 0xF SIGNEXTEND SGT ISZERO PUSH2 0x3F38 JUMPI PUSH17 0x100000000000B17217F7D1D351A389D40 MUL PUSH1 0x80 SHR JUMPDEST PUSH1 0x0 DUP4 PUSH3 0x80000 AND PUSH1 0xF SIGNEXTEND SGT ISZERO PUSH2 0x3F60 JUMPI PUSH17 0x10000000000058B90BFBE8E8B2D3D4EDE MUL PUSH1 0x80 SHR JUMPDEST PUSH1 0x0 DUP4 PUSH3 0x40000 AND PUSH1 0xF SIGNEXTEND SGT ISZERO PUSH2 0x3F88 JUMPI PUSH17 0x1000000000002C5C85FDF4741BEA6E77E MUL PUSH1 0x80 SHR JUMPDEST PUSH1 0x0 DUP4 PUSH3 0x20000 AND PUSH1 0xF SIGNEXTEND SGT ISZERO PUSH2 0x3FB0 JUMPI PUSH17 0x100000000000162E42FEFA39FE95583C2 MUL PUSH1 0x80 SHR JUMPDEST PUSH1 0x0 DUP4 PUSH3 0x10000 AND PUSH1 0xF SIGNEXTEND SGT ISZERO PUSH2 0x3FD8 JUMPI PUSH17 0x1000000000000B17217F7D1CFB72B45E1 MUL PUSH1 0x80 SHR JUMPDEST PUSH1 0x0 DUP4 PUSH2 0x8000 AND PUSH1 0xF SIGNEXTEND SGT ISZERO PUSH2 0x3FFF JUMPI PUSH17 0x100000000000058B90BFBE8E7CC35C3F0 MUL PUSH1 0x80 SHR JUMPDEST PUSH1 0x0 DUP4 PUSH2 0x4000 AND PUSH1 0xF SIGNEXTEND SGT ISZERO PUSH2 0x4026 JUMPI PUSH17 0x10000000000002C5C85FDF473E242EA38 MUL PUSH1 0x80 SHR JUMPDEST PUSH1 0x0 DUP4 PUSH2 0x2000 AND PUSH1 0xF SIGNEXTEND SGT ISZERO PUSH2 0x404D JUMPI PUSH17 0x1000000000000162E42FEFA39F02B772C MUL PUSH1 0x80 SHR JUMPDEST PUSH1 0x0 DUP4 PUSH2 0x1000 AND PUSH1 0xF SIGNEXTEND SGT ISZERO PUSH2 0x4074 JUMPI PUSH17 0x10000000000000B17217F7D1CF7D83C1A MUL PUSH1 0x80 SHR JUMPDEST PUSH1 0x0 DUP4 PUSH2 0x800 AND PUSH1 0xF SIGNEXTEND SGT ISZERO PUSH2 0x409B JUMPI PUSH17 0x1000000000000058B90BFBE8E7BDCBE2E MUL PUSH1 0x80 SHR JUMPDEST PUSH1 0x0 DUP4 PUSH2 0x400 AND PUSH1 0xF SIGNEXTEND SGT ISZERO PUSH2 0x40C2 JUMPI PUSH17 0x100000000000002C5C85FDF473DEA871F MUL PUSH1 0x80 SHR JUMPDEST PUSH1 0x0 DUP4 PUSH2 0x200 AND PUSH1 0xF SIGNEXTEND SGT ISZERO PUSH2 0x40E9 JUMPI PUSH17 0x10000000000000162E42FEFA39EF44D91 MUL PUSH1 0x80 SHR JUMPDEST PUSH1 0x0 DUP4 PUSH2 0x100 AND PUSH1 0xF SIGNEXTEND SGT ISZERO PUSH2 0x4110 JUMPI PUSH17 0x100000000000000B17217F7D1CF79E949 MUL PUSH1 0x80 SHR JUMPDEST PUSH1 0x0 DUP4 PUSH1 0x80 AND PUSH1 0xF SIGNEXTEND SGT ISZERO PUSH2 0x4136 JUMPI PUSH17 0x10000000000000058B90BFBE8E7BCE544 MUL PUSH1 0x80 SHR JUMPDEST PUSH1 0x0 DUP4 PUSH1 0x40 AND PUSH1 0xF SIGNEXTEND SGT ISZERO PUSH2 0x415C JUMPI PUSH17 0x1000000000000002C5C85FDF473DE6ECA MUL PUSH1 0x80 SHR JUMPDEST PUSH1 0x0 DUP4 PUSH1 0x20 AND PUSH1 0xF SIGNEXTEND SGT ISZERO PUSH2 0x4182 JUMPI PUSH17 0x100000000000000162E42FEFA39EF366F MUL PUSH1 0x80 SHR JUMPDEST PUSH1 0x0 DUP4 PUSH1 0x10 AND PUSH1 0xF SIGNEXTEND SGT ISZERO PUSH2 0x41A8 JUMPI PUSH17 0x1000000000000000B17217F7D1CF79AFA MUL PUSH1 0x80 SHR JUMPDEST PUSH1 0x0 DUP4 PUSH1 0x8 AND PUSH1 0xF SIGNEXTEND SGT ISZERO PUSH2 0x41CE JUMPI PUSH17 0x100000000000000058B90BFBE8E7BCD6D MUL PUSH1 0x80 SHR JUMPDEST PUSH1 0x0 DUP4 PUSH1 0x4 AND PUSH1 0xF SIGNEXTEND SGT ISZERO PUSH2 0x41F4 JUMPI PUSH17 0x10000000000000002C5C85FDF473DE6B2 MUL PUSH1 0x80 SHR JUMPDEST PUSH1 0x0 DUP4 PUSH1 0x2 AND PUSH1 0xF SIGNEXTEND SGT ISZERO PUSH2 0x421A JUMPI PUSH17 0x1000000000000000162E42FEFA39EF358 MUL PUSH1 0x80 SHR JUMPDEST PUSH1 0x0 DUP4 PUSH1 0x1 AND PUSH1 0xF SIGNEXTEND SGT ISZERO PUSH2 0x4240 JUMPI PUSH17 0x10000000000000000B17217F7D1CF79AB MUL PUSH1 0x80 SHR JUMPDEST PUSH1 0xF DUP4 DUP2 SIGNEXTEND PUSH1 0x40 SAR PUSH1 0x3F SUB SWAP1 SIGNEXTEND SHR PUSH1 0x1 PUSH1 0x1 PUSH1 0x7F SHL SUB DUP2 GT ISZERO PUSH2 0x2EF JUMPI PUSH1 0x0 DUP1 REVERT JUMPDEST PUSH1 0x0 DUP1 PUSH2 0x2EF PUSH1 0xA PUSH2 0x1488 JUMP JUMPDEST PUSH1 0x40 MLOAD DUP1 PUSH2 0x120 ADD PUSH1 0x40 MSTORE DUP1 PUSH1 0x0 PUSH2 0xFFFF AND DUP2 MSTORE PUSH1 0x20 ADD PUSH1 0x0 DUP2 MSTORE PUSH1 0x20 ADD PUSH1 0x0 DUP2 MSTORE PUSH1 0x20 ADD PUSH1 0x0 DUP2 MSTORE PUSH1 0x20 ADD PUSH1 0x0 DUP2 MSTORE PUSH1 0x20 ADD PUSH1 0x0 DUP2 MSTORE PUSH1 0x20 ADD PUSH1 0x0 DUP2 MSTORE PUSH1 0x20 ADD PUSH1 0x0 DUP2 MSTORE PUSH1 0x20 ADD PUSH1 0x0 DUP2 MSTORE POP SWAP1 JUMP JUMPDEST PUSH1 0x40 MLOAD DUP1 PUSH1 0xE0 ADD PUSH1 0x40 MSTORE DUP1 PUSH2 0x42D2 PUSH2 0x437E JUMP JUMPDEST DUP2 MSTORE PUSH1 0x20 ADD PUSH2 0x42DF PUSH2 0x43D9 JUMP JUMPDEST DUP2 MSTORE PUSH1 0x0 PUSH1 0x20 DUP3 ADD DUP2 SWAP1 MSTORE PUSH1 0x40 DUP3 ADD DUP2 SWAP1 MSTORE PUSH1 0x60 DUP3 ADD DUP2 SWAP1 MSTORE PUSH1 0x80 DUP3 ADD DUP2 SWAP1 MSTORE PUSH1 0xA0 SWAP1 SWAP2 ADD MSTORE SWAP1 JUMP JUMPDEST PUSH1 0x40 DUP1 MLOAD PUSH1 0xA0 DUP2 ADD DUP3 MSTORE PUSH1 0x0 DUP1 DUP3 MSTORE PUSH1 0x20 DUP3 ADD DUP2 SWAP1 MSTORE SWAP2 DUP2 ADD DUP3 SWAP1 MSTORE PUSH1 0x60 DUP2 ADD DUP3 SWAP1 MSTORE PUSH1 0x80 DUP2 ADD SWAP2 SWAP1 SWAP2 MSTORE SWAP1 JUMP JUMPDEST PUSH1 0x40 MLOAD DUP1 PUSH2 0x100 ADD PUSH1 0x40 MSTORE DUP1 PUSH1 0x0 DUP1 NOT AND DUP2 MSTORE PUSH1 0x20 ADD PUSH1 0x0 DUP2 MSTORE PUSH1 0x20 ADD PUSH1 0x0 DUP2 MSTORE PUSH1 0x20 ADD PUSH1 0x0 DUP2 MSTORE PUSH1 0x20 ADD PUSH1 0x0 DUP2 MSTORE PUSH1 0x20 ADD PUSH1 0x0 DUP2 MSTORE PUSH1 0x20 ADD PUSH1 0x0 DUP2 MSTORE PUSH1 0x20 ADD PUSH1 0x0 DUP2 MSTORE POP SWAP1 JUMP JUMPDEST PUSH1 0x40 DUP1 MLOAD PUSH1 0x80 DUP2 ADD DUP3 MSTORE PUSH1 0x0 DUP1 DUP3 MSTORE PUSH1 0x20 DUP3 ADD MSTORE SWAP1 DUP2 ADD PUSH2 0x439D PUSH2 0x4441 JUMP JUMPDEST DUP2 MSTORE PUSH1 0x0 PUSH1 0x20 SWAP1 SWAP2 ADD MSTORE SWAP1 JUMP JUMPDEST PUSH1 0x40 DUP1 MLOAD PUSH1 0xA0 DUP2 ADD DUP3 MSTORE PUSH1 0x0 DUP1 DUP3 MSTORE PUSH1 0x20 DUP3 ADD DUP2 SWAP1 MSTORE SWAP2 DUP2 ADD DUP3 SWAP1 MSTORE SWAP1 PUSH1 0x60 DUP3 ADD SWAP1 DUP2 MSTORE PUSH1 0x20 ADD PUSH1 0x0 DUP2 MSTORE POP SWAP1 JUMP JUMPDEST PUSH1 0x40 MLOAD DUP1 PUSH1 0x80 ADD PUSH1 0x40 MSTORE DUP1 PUSH1 0x60 DUP2 MSTORE PUSH1 0x20 ADD PUSH1 0x60 DUP2 MSTORE PUSH1 0x20 ADD PUSH1 0x0 DUP2 MSTORE PUSH1 0x20 ADD PUSH1 0x0 DUP2 MSTORE POP SWAP1 JUMP JUMPDEST PUSH1 0x40 MLOAD DUP1 PUSH1 0xC0 ADD PUSH1 0x40 MSTORE DUP1 PUSH1 0x0 DUP2 MSTORE PUSH1 0x20 ADD PUSH1 0x0 DUP2 MSTORE PUSH1 0x20 ADD PUSH1 0x0 DUP2 MSTORE PUSH1 0x20 ADD PUSH1 0x0 DUP2 MSTORE PUSH1 0x20 ADD PUSH1 0x0 DUP2 MSTORE PUSH1 0x20 ADD PUSH1 0x0 PUSH1 0x3 DUP2 GT ISZERO PUSH2 0x443C JUMPI INVALID JUMPDEST SWAP1 MSTORE SWAP1 JUMP JUMPDEST PUSH1 0x40 MLOAD DUP1 PUSH1 0x60 ADD PUSH1 0x40 MSTORE DUP1 PUSH1 0x0 PUSH1 0x1 PUSH1 0x1 PUSH1 0xA0 SHL SUB AND DUP2 MSTORE PUSH1 0x20 ADD PUSH1 0x0 DUP2 MSTORE PUSH1 0x20 ADD PUSH1 0x0 DUP2 MSTORE POP SWAP1 JUMP JUMPDEST PUSH1 0x40 MLOAD DUP1 PUSH1 0x20 ADD PUSH1 0x40 MSTORE DUP1 PUSH1 0x1 SWAP1 PUSH1 0x20 DUP3 MUL DUP1 CALLDATASIZE DUP4 CALLDATACOPY POP SWAP2 SWAP3 SWAP2 POP POP JUMP JUMPDEST DUP1 CALLDATALOAD PUSH1 0x1 PUSH1 0x1 PUSH1 0xA0 SHL SUB DUP2 AND DUP2 EQ PUSH2 0x276 JUMPI PUSH1 0x0 DUP1 REVERT JUMPDEST DUP1 MLOAD PUSH1 0x1 PUSH1 0x1 PUSH1 0x70 SHL SUB NOT DUP2 AND DUP2 EQ PUSH2 0x276 JUMPI PUSH1 0x0 DUP1 REVERT JUMPDEST DUP1 MLOAD PUSH2 0x276 DUP2 PUSH2 0x49F8 JUMP JUMPDEST DUP1 MLOAD PUSH1 0xFF DUP2 AND DUP2 EQ PUSH2 0x276 JUMPI PUSH1 0x0 DUP1 REVERT JUMPDEST PUSH1 0x0 PUSH1 0x20 DUP3 DUP5 SUB SLT ISZERO PUSH2 0x44E5 JUMPI DUP1 DUP2 REVERT JUMPDEST PUSH2 0x422 DUP3 PUSH2 0x4489 JUMP JUMPDEST PUSH1 0x0 DUP1 PUSH1 0x40 DUP4 DUP6 SUB SLT ISZERO PUSH2 0x4500 JUMPI DUP1 DUP2 REVERT JUMPDEST PUSH2 0x4509 DUP4 PUSH2 0x4489 JUMP JUMPDEST SWAP5 PUSH1 0x20 SWAP4 SWAP1 SWAP4 ADD CALLDATALOAD SWAP4 POP POP POP JUMP JUMPDEST PUSH1 0x0 PUSH1 0x20 DUP3 DUP5 SUB SLT ISZERO PUSH2 0x4528 JUMPI DUP1 DUP2 REVERT JUMPDEST POP MLOAD SWAP2 SWAP1 POP JUMP JUMPDEST PUSH1 0x0 PUSH1 0xA0 DUP3 DUP5 SUB SLT ISZERO PUSH2 0x4540 JUMPI DUP1 DUP2 REVERT JUMPDEST PUSH1 0x40 MLOAD PUSH1 0xA0 DUP2 ADD DUP2 DUP2 LT PUSH8 0xFFFFFFFFFFFFFFFF DUP3 GT OR ISZERO PUSH2 0x455D JUMPI INVALID JUMPDEST PUSH1 0x40 MSTORE DUP3 MLOAD PUSH5 0xFFFFFFFFFF DUP2 AND DUP2 EQ PUSH2 0x4574 JUMPI DUP3 DUP4 REVERT JUMPDEST DUP2 MSTORE PUSH1 0x20 DUP4 ADD MLOAD PUSH1 0x1 PUSH1 0x1 PUSH1 0xF8 SHL SUB NOT DUP2 AND DUP2 EQ PUSH2 0x4590 JUMPI DUP3 DUP4 REVERT JUMPDEST PUSH1 0x20 DUP3 ADD MSTORE PUSH2 0x45A1 PUSH1 0x40 DUP5 ADD PUSH2 0x44C3 JUMP JUMPDEST PUSH1 0x40 DUP3 ADD MSTORE PUSH2 0x45B2 PUSH1 0x60 DUP5 ADD PUSH2 0x44B8 JUMP JUMPDEST PUSH1 0x60 DUP3 ADD MSTORE PUSH2 0x45C3 PUSH1 0x80 DUP5 ADD PUSH2 0x44A0 JUMP JUMPDEST PUSH1 0x80 DUP3 ADD MSTORE SWAP4 SWAP3 POP POP POP JUMP JUMPDEST PUSH1 0x0 PUSH1 0x20 DUP3 DUP5 SUB SLT ISZERO PUSH2 0x45E0 JUMPI DUP1 DUP2 REVERT JUMPDEST DUP2 CALLDATALOAD PUSH2 0x422 DUP2 PUSH2 0x49F8 JUMP JUMPDEST PUSH1 0x0 DUP1 PUSH1 0x40 DUP4 DUP6 SUB SLT ISZERO PUSH2 0x45FD JUMPI DUP2 DUP3 REVERT JUMPDEST DUP3 CALLDATALOAD PUSH2 0x4608 DUP2 PUSH2 0x49F8 JUMP JUMPDEST SWAP2 POP PUSH2 0x2366 PUSH1 0x20 DUP5 ADD PUSH2 0x4489 JUMP JUMPDEST PUSH1 0x0 DUP1 PUSH1 0x0 PUSH1 0x60 DUP5 DUP7 SUB SLT ISZERO PUSH2 0x462A JUMPI DUP1 DUP2 REVERT JUMPDEST DUP4 CALLDATALOAD PUSH2 0x4635 DUP2 PUSH2 0x49F8 JUMP JUMPDEST SWAP3 POP PUSH2 0x4643 PUSH1 0x20 DUP6 ADD PUSH2 0x4489 JUMP JUMPDEST SWAP2 POP PUSH2 0x4651 PUSH1 0x40 DUP6 ADD PUSH2 0x4489 JUMP JUMPDEST SWAP1 POP SWAP3 POP SWAP3 POP SWAP3 JUMP JUMPDEST PUSH1 0x0 DUP1 PUSH1 0x0 DUP1 PUSH1 0x0 PUSH1 0xA0 DUP7 DUP9 SUB SLT ISZERO PUSH2 0x4671 JUMPI DUP1 DUP2 REVERT JUMPDEST DUP6 CALLDATALOAD PUSH2 0x467C DUP2 PUSH2 0x49F8 JUMP JUMPDEST SWAP5 POP PUSH2 0x468A PUSH1 0x20 DUP8 ADD PUSH2 0x4489 JUMP JUMPDEST SWAP4 POP PUSH2 0x4698 PUSH1 0x40 DUP8 ADD PUSH2 0x4489 JUMP JUMPDEST SWAP3 POP PUSH2 0x46A6 PUSH1 0x60 DUP8 ADD PUSH2 0x4489 JUMP JUMPDEST SWAP5 SWAP8 SWAP4 SWAP7 POP SWAP2 SWAP5 PUSH1 0x80 ADD CALLDATALOAD SWAP3 SWAP2 POP POP JUMP JUMPDEST PUSH1 0x0 DUP1 PUSH1 0x0 DUP1 PUSH1 0x80 DUP6 DUP8 SUB SLT ISZERO PUSH2 0x46CC JUMPI DUP4 DUP5 REVERT JUMPDEST DUP5 CALLDATALOAD PUSH2 0x46D7 DUP2 PUSH2 0x49F8 JUMP JUMPDEST SWAP4 POP PUSH2 0x46E5 PUSH1 0x20 DUP7 ADD PUSH2 0x4489 JUMP JUMPDEST SWAP3 POP PUSH2 0x46F3 PUSH1 0x40 DUP7 ADD PUSH2 0x4489 JUMP JUMPDEST SWAP4 SWAP7 SWAP3 SWAP6 POP SWAP3 SWAP4 PUSH1 0x60 ADD CALLDATALOAD SWAP3 POP POP JUMP JUMPDEST PUSH1 0x1 PUSH1 0x1 PUSH1 0xA0 SHL SUB SWAP2 SWAP1 SWAP2 AND DUP2 MSTORE PUSH1 0x20 ADD SWAP1 JUMP JUMPDEST PUSH1 0x1 PUSH1 0x1 PUSH1 0xA0 SHL SUB SWAP4 DUP5 AND DUP2 MSTORE SWAP2 SWAP1 SWAP3 AND PUSH1 0x20 DUP3 ADD MSTORE PUSH1 0x40 DUP2 ADD SWAP2 SWAP1 SWAP2 MSTORE PUSH1 0x60 ADD SWAP1 JUMP JUMPDEST PUSH1 0x1 PUSH1 0x1 PUSH1 0xA0 SHL SUB SWAP3 SWAP1 SWAP3 AND DUP3 MSTORE DUP1 MLOAD PUSH5 0xFFFFFFFFFF AND PUSH1 0x20 DUP1 DUP5 ADD SWAP2 SWAP1 SWAP2 MSTORE DUP2 ADD MLOAD PUSH1 0x1 PUSH1 0x1 PUSH1 0xF8 SHL SUB NOT AND PUSH1 0x40 DUP1 DUP5 ADD SWAP2 SWAP1 SWAP2 MSTORE DUP2 ADD MLOAD PUSH1 0xFF AND PUSH1 0x60 DUP1 DUP5 ADD SWAP2 SWAP1 SWAP2 MSTORE DUP2 ADD MLOAD PUSH2 0xFFFF AND PUSH1 0x80 DUP1 DUP5 ADD SWAP2 SWAP1 SWAP2 MSTORE ADD MLOAD PUSH1 0x1 PUSH1 0x1 PUSH1 0x70 SHL SUB NOT AND PUSH1 0xA0 DUP3 ADD MSTORE PUSH1 0xC0 ADD SWAP1 JUMP JUMPDEST PUSH1 0x1 PUSH1 0x1 PUSH1 0xA0 SHL SUB SWAP3 SWAP1 SWAP3 AND DUP3 MSTORE PUSH1 0x20 DUP3 ADD MSTORE PUSH1 0x40 ADD SWAP1 JUMP JUMPDEST SWAP1 ISZERO ISZERO DUP2 MSTORE PUSH1 0x20 ADD SWAP1 JUMP JUMPDEST SWAP1 DUP2 MSTORE PUSH1 0x20 ADD SWAP1 JUMP JUMPDEST PUSH1 0x20 DUP1 DUP3 MSTORE PUSH1 0x16 SWAP1 DUP3 ADD MSTORE PUSH22 0x13585C9AD95D081B9BDD081A5B9A5D1A585B1A5E9959 PUSH1 0x52 SHL PUSH1 0x40 DUP3 ADD MSTORE PUSH1 0x60 ADD SWAP1 JUMP JUMPDEST PUSH1 0x20 DUP1 DUP3 MSTORE PUSH1 0x6 SWAP1 DUP3 ADD MSTORE PUSH6 0x52656465656D PUSH1 0xD0 SHL PUSH1 0x40 DUP3 ADD MSTORE PUSH1 0x60 ADD SWAP1 JUMP JUMPDEST PUSH1 0x20 DUP1 DUP3 MSTORE PUSH1 0x15 SWAP1 DUP3 ADD MSTORE PUSH21 0x10D1CE881B9BC81B585C9AD95D1CC81B1A5CDD1959 PUSH1 0x5A SHL PUSH1 0x40 DUP3 ADD MSTORE PUSH1 0x60 ADD SWAP1 JUMP JUMPDEST PUSH1 0x20 DUP1 DUP3 MSTORE PUSH1 0xD SWAP1 DUP3 ADD MSTORE PUSH13 0x92DCECC2D8D2C840D2DCC8CAF PUSH1 0x9B SHL PUSH1 0x40 DUP3 ADD MSTORE PUSH1 0x60 ADD SWAP1 JUMP JUMPDEST PUSH1 0x20 DUP1 DUP3 MSTORE PUSH1 0x16 SWAP1 DUP3 ADD MSTORE PUSH22 0x496E73756666696369656E7420616C6C6F77616E6365 PUSH1 0x50 SHL PUSH1 0x40 DUP3 ADD MSTORE PUSH1 0x60 ADD SWAP1 JUMP JUMPDEST PUSH1 0x20 DUP1 DUP3 MSTORE PUSH1 0x13 SWAP1 DUP3 ADD MSTORE PUSH19 0x2AB730BABA3437B934BD32B21031B0B63632B9 PUSH1 0x69 SHL PUSH1 0x40 DUP3 ADD MSTORE PUSH1 0x60 ADD SWAP1 JUMP JUMPDEST PUSH1 0x20 DUP1 DUP3 MSTORE PUSH1 0x16 SWAP1 DUP3 ADD MSTORE PUSH22 0x10D1CE881B585C9AD95D081A5B99195E08189BDD5B99 PUSH1 0x52 SHL PUSH1 0x40 DUP3 ADD MSTORE PUSH1 0x60 ADD SWAP1 JUMP JUMPDEST PUSH1 0x20 DUP1 DUP3 MSTORE PUSH1 0xE SWAP1 DUP3 ADD MSTORE PUSH14 0x125B9D985B1A59081B585C9AD95D PUSH1 0x92 SHL PUSH1 0x40 DUP3 ADD MSTORE PUSH1 0x60 ADD SWAP1 JUMP JUMPDEST PUSH1 0x20 DUP1 DUP3 MSTORE PUSH1 0x5 SWAP1 DUP3 ADD MSTORE PUSH5 0x455243323 PUSH1 0xDC SHL PUSH1 0x40 DUP3 ADD MSTORE PUSH1 0x60 ADD SWAP1 JUMP JUMPDEST PUSH1 0x20 DUP1 DUP3 MSTORE PUSH1 0x8 SWAP1 DUP3 ADD MSTORE PUSH8 0x9CCACE4086C2E6D PUSH1 0xC3 SHL PUSH1 0x40 DUP3 ADD MSTORE PUSH1 0x60 ADD SWAP1 JUMP JUMPDEST PUSH1 0x20 DUP1 DUP3 MSTORE PUSH1 0x17 SWAP1 DUP3 ADD MSTORE PUSH32 0x43616E6E6F74207472616E7366657220746F2073656C66000000000000000000 PUSH1 0x40 DUP3 ADD MSTORE PUSH1 0x60 ADD SWAP1 JUMP JUMPDEST PUSH1 0x20 DUP1 DUP3 MSTORE PUSH1 0xA SWAP1 DUP3 ADD MSTORE PUSH10 0x2732B390372A37B5B2B7 PUSH1 0xB1 SHL PUSH1 0x40 DUP3 ADD MSTORE PUSH1 0x60 ADD SWAP1 JUMP JUMPDEST PUSH1 0x20 DUP1 DUP3 MSTORE PUSH1 0x13 SWAP1 DUP3 ADD MSTORE PUSH19 0x10D1CE881B9BC81B585C9AD95D08199BDD5B99 PUSH1 0x6A SHL PUSH1 0x40 DUP3 ADD MSTORE PUSH1 0x60 ADD SWAP1 JUMP JUMPDEST PUSH2 0xFFFF DUP2 AND DUP2 EQ PUSH2 0x4A08 JUMPI PUSH1 0x0 DUP1 REVERT JUMPDEST POP JUMP INVALID MSTORE8 PUSH2 0x6665 0x4D PUSH2 0x7468 GASPRICE KECCAK256 PUSH14 0x756C7469706C69636174696F6E20 PUSH16 0x766572666C6F7753616665436173743A KECCAK256 PUSH23 0x616C756520646F65736E27742066697420696E20616E20 PUSH10 0x6E74323536A264697066 PUSH20 0x582212206505D88B40C9660849AA9142BE6F02D8 LOG0 SWAP8 PUSH20 0x204DFB4134E0B8D5507B5DD87A64736F6C634300 SMOD MOD STOP CALLER ","sha1":"bb402de329ea13310671e8ff3d4d1833549e2a8f","source":"// SPDX-License-Identifier: GPL-3.0-only\npragma solidity ^0.7.0;\npragma abicoder v2;\n\nimport \"./ActionGuards.sol\";\nimport \"../../internal/nTokenHandler.sol\";\nimport \"../../internal/markets/AssetRate.sol\";\nimport \"../../internal/balances/BalanceHandler.sol\";\nimport \"../../internal/balances/Incentives.sol\";\nimport \"../../math/SafeInt256.sol\";\nimport \"../../global/StorageLayoutV1.sol\";\nimport \"../../external/FreeCollateralExternal.sol\";\nimport \"interfaces/notional/nTokenERC20.sol\";\nimport \"@openzeppelin/contracts/utils/SafeCast.sol\";\nimport \"@openzeppelin/contracts/math/SafeMath.sol\";\n\ncontract nTokenAction is StorageLayoutV1, nTokenERC20, ActionGuards {\n    using BalanceHandler for BalanceState;\n    using AssetRate for AssetRateParameters;\n    using AccountContextHandler for AccountContext;\n    using nTokenHandler for nTokenPortfolio;\n    using SafeInt256 for int256;\n    using SafeMath for uint256;\n\n    /// @notice Total number of tokens in circulation\n    /// @param nTokenAddress The address of the nToken\n    /// @return totalSupply number of tokens held\n    function nTokenTotalSupply(address nTokenAddress)\n        external\n        view\n        override\n        returns (uint256 totalSupply)\n    {\n        // prettier-ignore\n        (\n            totalSupply,\n            /* integralTotalSupply */,\n            /* lastSupplyChangeTime */\n        ) = nTokenHandler.getStoredNTokenSupplyFactors(nTokenAddress);\n    }\n\n    /// @notice Get the number of tokens held by the `account`\n    /// @param account The address of the account to get the balance of\n    /// @return The number of tokens held\n    function nTokenBalanceOf(uint16 currencyId, address account)\n        external\n        view\n        override\n        returns (uint256)\n    {\n        // prettier-ignore\n        (\n            /* int cashBalance */,\n            int256 nTokenBalance,\n            /* uint lastClaimTime */,\n            /* uint lastClaimIntegralSupply */\n        ) = BalanceHandler.getBalanceStorage(account, currencyId);\n\n        require(nTokenBalance >= 0); // dev: negative nToken balance\n        return uint256(nTokenBalance);\n    }\n\n    /// @notice Get the number of tokens `spender` is approved to spend on behalf of `account`\n    /// @param currencyId Currency id of the nToken account\n    /// @param tokenHolder The address of the account holding the funds\n    /// @param spender The address of the account spending the funds\n    /// @return The number of tokens approved\n    function nTokenTransferAllowance(\n        uint16 currencyId,\n        address tokenHolder,\n        address spender\n    ) external view override returns (uint256) {\n        // The specific allowance overrides the blanket whitelist\n        uint256 allowance = nTokenAllowance[tokenHolder][spender][currencyId];\n        if (allowance > 0) {\n            return allowance;\n        } else {\n            return nTokenWhitelist[tokenHolder][spender];\n        }\n    }\n\n    /// @notice Approve `spender` to transfer up to `amount` from `src`\n    /// @dev auth:nTokenProxy\n    /// @param currencyId Currency id of the nToken account\n    /// @param tokenHolder The address of the account holding the funds\n    /// @param spender The address of the account which may transfer tokens\n    /// @param amount The number of tokens that are approved (2^256-1 means infinite)\n    /// @return Whether or not the approval succeeded\n    function nTokenTransferApprove(\n        uint16 currencyId,\n        address tokenHolder,\n        address spender,\n        uint256 amount\n    ) external override returns (bool) {\n        address nTokenAddress = nTokenHandler.nTokenAddress(currencyId);\n        require(msg.sender == nTokenAddress, \"Unauthorized caller\");\n        require(tokenHolder != address(0));\n\n        nTokenAllowance[tokenHolder][spender][currencyId] = amount;\n\n        return true;\n    }\n\n    /// @notice Transfer `amount` tokens from `msg.sender` to `dst`\n    /// @dev auth:nTokenProxy\n    /// @param from The address of the destination account\n    /// @param to The address of the destination account\n    /// @param amount The number of tokens to transfer\n    /// @return Whether or not the transfer succeeded\n    function nTokenTransfer(\n        uint16 currencyId,\n        address from,\n        address to,\n        uint256 amount\n    ) external override returns (bool) {\n        address nTokenAddress = nTokenHandler.nTokenAddress(currencyId);\n        require(msg.sender == nTokenAddress, \"Unauthorized caller\");\n        require(from != to, \"Cannot transfer to self\");\n        requireValidAccount(to);\n\n        return _transfer(currencyId, from, to, amount);\n    }\n\n    /// @notice Transfer `amount` tokens from `src` to `dst`\n    /// @dev auth:nTokenProxy\n    /// @param currencyId Currency id of the nToken\n    /// @param spender The address of the original caller\n    /// @param from The address of the source account\n    /// @param to The address of the destination account\n    /// @param amount The number of tokens to transfer\n    /// @return Whether or not the transfer succeeded\n    function nTokenTransferFrom(\n        uint16 currencyId,\n        address spender,\n        address from,\n        address to,\n        uint256 amount\n    ) external override returns (bool) {\n        address nTokenAddress = nTokenHandler.nTokenAddress(currencyId);\n        require(msg.sender == nTokenAddress, \"Unauthorized caller\");\n        require(from != to, \"Cannot transfer to self\");\n        requireValidAccount(to);\n\n        uint256 allowance = nTokenAllowance[from][spender][currencyId];\n\n        if (allowance > 0) {\n            // This is the specific allowance for the nToken.\n            require(allowance >= amount, \"Insufficient allowance\");\n            // Overflow checked above\n            nTokenAllowance[from][spender][currencyId] = allowance - amount;\n        } else {\n            // This whitelist allowance works across all nTokens\n            allowance = nTokenWhitelist[from][spender];\n            require(allowance >= amount, \"Insufficient allowance\");\n            // Overflow checked above\n            nTokenWhitelist[from][spender] = allowance - amount;\n        }\n\n        return _transfer(currencyId, from, to, amount);\n    }\n\n    /// @notice Will approve all nToken transfers to the specific sender. This is used for simplifying UX, a user can approve\n    /// all token transfers to an external exchange or protocol in a single txn. This must be called directly\n    /// on the Notional contract, not available via the ERC20 proxy.\n    /// @dev emit:Approval\n    /// @dev auth:msg.sender\n    /// @param spender The address of the account which may transfer tokens\n    /// @param amount The number of tokens that are approved\n    /// @return Whether or not the approval succeeded\n    function nTokenTransferApproveAll(address spender, uint256 amount)\n        external\n        override\n        returns (bool)\n    {\n        nTokenWhitelist[msg.sender][spender] = amount;\n        emit Approval(msg.sender, spender, amount);\n        return true;\n    }\n\n    /// @notice Claims incentives accrued on all nToken balances and transfers them to the msg.sender\n    /// @dev auth:msg.sender\n    /// @return Total amount of incentives claimed\n    function nTokenClaimIncentives() external override returns (uint256) {\n        address account = msg.sender;\n        AccountContext memory accountContext = AccountContextHandler.getAccountContext(account);\n        uint256 totalIncentivesClaimed = 0;\n        BalanceState memory balanceState;\n\n        if (accountContext.isBitmapEnabled()) {\n            balanceState.loadBalanceState(account, accountContext.bitmapCurrencyId, accountContext);\n            if (balanceState.storedNTokenBalance > 0) {\n                // balance state is updated inside claim incentives manual\n                totalIncentivesClaimed = balanceState.claimIncentivesManual(account);\n            }\n        }\n\n        bytes18 currencies = accountContext.activeCurrencies;\n        while (currencies != 0) {\n            uint16 currencyId = uint16(bytes2(currencies) & Constants.UNMASK_FLAGS);\n\n            balanceState.loadBalanceState(account, currencyId, accountContext);\n            if (balanceState.storedNTokenBalance > 0) {\n                // balance state is updated inside claim incentives manual\n                totalIncentivesClaimed = totalIncentivesClaimed\n                    .add(balanceState.claimIncentivesManual(account));\n            }\n\n            currencies = currencies << 16;\n        }\n\n        // NOTE: no need to set account context after claiming incentives. No currencies\n        // or fCash assets have been added or changed.\n        return totalIncentivesClaimed;\n    }\n\n    /// @notice Returns the present value of the nToken's assets denominated in asset tokens\n    function nTokenPresentValueAssetDenominated(uint16 currencyId)\n        external\n        view\n        override\n        returns (int256)\n    {\n        // prettier-ignore\n        (\n            int256 totalAssetPV,\n            /* portfolio */\n        ) = _getNTokenPV(currencyId);\n\n        return totalAssetPV;\n    }\n\n    /// @notice Returns the present value of the nToken's assets denominated in underlying\n    function nTokenPresentValueUnderlyingDenominated(uint16 currencyId)\n        external\n        view\n        override\n        returns (int256)\n    {\n        (int256 totalAssetPV, nTokenPortfolio memory nToken) = _getNTokenPV(currencyId);\n\n        return nToken.cashGroup.assetRate.convertToUnderlying(totalAssetPV);\n    }\n\n    function _getNTokenPV(uint16 currencyId)\n        private\n        view\n        returns (int256, nTokenPortfolio memory)\n    {\n        uint256 blockTime = block.timestamp;\n        nTokenPortfolio memory nToken;\n        nToken.loadNTokenPortfolioView(currencyId);\n\n        int256 totalAssetPV = nToken.getNTokenAssetPV(blockTime);\n\n        return (totalAssetPV, nToken);\n    }\n\n    /// @notice Transferring tokens will also claim incentives at the same time\n    function _transfer(\n        uint16 currencyId,\n        address sender,\n        address recipient,\n        uint256 amount\n    ) internal returns (bool) {\n        // This prevents amountInt from being negative\n        int256 amountInt = SafeCast.toInt256(amount);\n\n        AccountContext memory senderContext = AccountContextHandler.getAccountContext(sender);\n        // If sender has debt then we will check free collateral which will revert if we have not\n        // settled assets first. To prevent this we settle sender context if required.\n        if (senderContext.mustSettleAssets()) {\n            senderContext = SettleAssetsExternal.settleAccount(sender, senderContext);\n        }\n\n        BalanceState memory senderBalance;\n        senderBalance.loadBalanceState(sender, currencyId, senderContext);\n        senderBalance.netNTokenTransfer = amountInt.neg();\n        senderBalance.finalize(sender, senderContext, false);\n        senderContext.setAccountContext(sender);\n\n        AccountContext memory recipientContext = AccountContextHandler.getAccountContext(recipient);\n        BalanceState memory recipientBalance;\n        recipientBalance.loadBalanceState(recipient, currencyId, recipientContext);\n        recipientBalance.netNTokenTransfer = amountInt;\n        recipientBalance.finalize(recipient, recipientContext, false);\n        recipientContext.setAccountContext(recipient);\n\n        // nTokens are used as collateral so we have to check the free collateral when we transfer. Only the\n        // sender needs a free collateral check, the receiver's net free collateral position will only increase\n        if (senderContext.hasDebt != 0x00) {\n            FreeCollateralExternal.checkFreeCollateralAndRevert(sender);\n        }\n\n        return true;\n    }\n}\n","sourcePath":"contracts/external/actions/nTokenAction.sol","type":"contract","deployment":{"address":"0x1cd33f81420Bfce8A3622dc56BBD617b7Fa3c93A","chainid":"1","blockHeight":13492392}}