{"abi":[{"inputs":[{"internalType":"address","name":"notional_","type":"address"},{"internalType":"address","name":"cToken_","type":"address"},{"internalType":"bool","name":"isETH_","type":"bool"}],"stateMutability":"nonpayable","type":"constructor","name":"constructor"},{"anonymous":false,"inputs":[{"indexed":false,"internalType":"address","name":"previousAdmin","type":"address"},{"indexed":false,"internalType":"address","name":"newAdmin","type":"address"}],"name":"AdminChanged","type":"event"},{"anonymous":false,"inputs":[{"indexed":true,"internalType":"address","name":"owner","type":"address"},{"indexed":true,"internalType":"address","name":"spender","type":"address"},{"indexed":false,"internalType":"uint256","name":"value","type":"uint256"}],"name":"Approval","type":"event"},{"anonymous":false,"inputs":[{"indexed":true,"internalType":"address","name":"beacon","type":"address"}],"name":"BeaconUpgraded","type":"event"},{"anonymous":false,"inputs":[{"indexed":false,"internalType":"uint8","name":"version","type":"uint8"}],"name":"Initialized","type":"event"},{"anonymous":false,"inputs":[{"indexed":true,"internalType":"address","name":"from","type":"address"},{"indexed":true,"internalType":"address","name":"to","type":"address"},{"indexed":false,"internalType":"uint256","name":"value","type":"uint256"}],"name":"Transfer","type":"event"},{"anonymous":false,"inputs":[{"indexed":true,"internalType":"address","name":"implementation","type":"address"}],"name":"Upgraded","type":"event"},{"inputs":[],"name":"ETH_ADDRESS","outputs":[{"internalType":"address","name":"","type":"address"}],"stateMutability":"view","type":"function"},{"inputs":[],"name":"NOTIONAL","outputs":[{"internalType":"address","name":"","type":"address"}],"stateMutability":"view","type":"function"},{"inputs":[{"internalType":"address","name":"owner","type":"address"},{"internalType":"address","name":"spender","type":"address"}],"name":"allowance","outputs":[{"internalType":"uint256","name":"","type":"uint256"}],"stateMutability":"view","type":"function"},{"inputs":[{"internalType":"address","name":"spender","type":"address"},{"internalType":"uint256","name":"amount","type":"uint256"}],"name":"approve","outputs":[{"internalType":"bool","name":"","type":"bool"}],"stateMutability":"nonpayable","type":"function"},{"inputs":[{"internalType":"address","name":"account","type":"address"}],"name":"balanceOf","outputs":[{"internalType":"uint256","name":"","type":"uint256"}],"stateMutability":"view","type":"function"},{"inputs":[],"name":"decimals","outputs":[{"internalType":"uint8","name":"","type":"uint8"}],"stateMutability":"view","type":"function"},{"inputs":[{"internalType":"address","name":"spender","type":"address"},{"internalType":"uint256","name":"subtractedValue","type":"uint256"}],"name":"decreaseAllowance","outputs":[{"internalType":"bool","name":"","type":"bool"}],"stateMutability":"nonpayable","type":"function"},{"inputs":[],"name":"description","outputs":[{"internalType":"string","name":"","type":"string"}],"stateMutability":"view","type":"function"},{"inputs":[],"name":"getAnnualizedSupplyRate","outputs":[{"internalType":"uint256","name":"","type":"uint256"}],"stateMutability":"view","type":"function"},{"inputs":[],"name":"getExchangeRateStateful","outputs":[{"internalType":"int256","name":"","type":"int256"}],"stateMutability":"nonpayable","type":"function"},{"inputs":[],"name":"getExchangeRateView","outputs":[{"internalType":"int256","name":"","type":"int256"}],"stateMutability":"view","type":"function"},{"inputs":[{"internalType":"address","name":"spender","type":"address"},{"internalType":"uint256","name":"addedValue","type":"uint256"}],"name":"increaseAllowance","outputs":[{"internalType":"bool","name":"","type":"bool"}],"stateMutability":"nonpayable","type":"function"},{"inputs":[{"internalType":"uint256","name":"finalExchangeRate_","type":"uint256"}],"name":"initialize","outputs":[],"stateMutability":"nonpayable","type":"function"},{"inputs":[],"name":"mint","outputs":[],"stateMutability":"payable","type":"function"},{"inputs":[{"internalType":"uint256","name":"mintAmount","type":"uint256"}],"name":"mint","outputs":[{"internalType":"uint256","name":"","type":"uint256"}],"stateMutability":"nonpayable","type":"function"},{"inputs":[],"name":"name","outputs":[{"internalType":"string","name":"","type":"string"}],"stateMutability":"view","type":"function"},{"inputs":[],"name":"proxiableUUID","outputs":[{"internalType":"bytes32","name":"","type":"bytes32"}],"stateMutability":"view","type":"function"},{"inputs":[{"internalType":"uint256","name":"redeemTokens","type":"uint256"}],"name":"redeem","outputs":[{"internalType":"uint256","name":"","type":"uint256"}],"stateMutability":"nonpayable","type":"function"},{"inputs":[{"internalType":"uint256","name":"redeemAmount","type":"uint256"}],"name":"redeemUnderlying","outputs":[{"internalType":"uint256","name":"","type":"uint256"}],"stateMutability":"nonpayable","type":"function"},{"inputs":[],"name":"symbol","outputs":[{"internalType":"string","name":"","type":"string"}],"stateMutability":"view","type":"function"},{"inputs":[],"name":"token","outputs":[{"internalType":"address","name":"","type":"address"}],"stateMutability":"view","type":"function"},{"inputs":[],"name":"totalSupply","outputs":[{"internalType":"uint256","name":"","type":"uint256"}],"stateMutability":"view","type":"function"},{"inputs":[{"internalType":"address","name":"to","type":"address"},{"internalType":"uint256","name":"amount","type":"uint256"}],"name":"transfer","outputs":[{"internalType":"bool","name":"","type":"bool"}],"stateMutability":"nonpayable","type":"function"},{"inputs":[{"internalType":"address","name":"from","type":"address"},{"internalType":"address","name":"to","type":"address"},{"internalType":"uint256","name":"amount","type":"uint256"}],"name":"transferFrom","outputs":[{"internalType":"bool","name":"","type":"bool"}],"stateMutability":"nonpayable","type":"function"},{"inputs":[],"name":"underlying","outputs":[{"internalType":"address","name":"","type":"address"}],"stateMutability":"view","type":"function"},{"inputs":[{"internalType":"address","name":"newImplementation","type":"address"}],"name":"upgradeTo","outputs":[],"stateMutability":"nonpayable","type":"function"},{"inputs":[{"internalType":"address","name":"newImplementation","type":"address"},{"internalType":"bytes","name":"data","type":"bytes"}],"name":"upgradeToAndCall","outputs":[],"stateMutability":"payable","type":"function"},{"inputs":[],"name":"version","outputs":[{"internalType":"uint256","name":"","type":"uint256"}],"stateMutability":"view","type":"function"}],"bytecode":"610120604052306080523480156200001657600080fd5b5060405162002a8338038062002a838339810160408190526200003991620002f5565b600160658190556000906200004e90620001b7565b9050801562000067576000805461ff0019166101001790555b826001600160a01b031663313ce5676040518163ffffffff1660e01b8152600401602060405180830381865afa158015620000a6573d6000803e3d6000fd5b505050506040513d601f19601f82011682018060405250810190620000cc919062000347565b60ff16610100526001600160a01b0380841660c052841660a052816200015757826001600160a01b0316636f307dc36040518163ffffffff1660e01b8152600401602060405180830381865afa1580156200012b573d6000803e3d6000fd5b505050506040513d601f19601f8201168201806040525081019062000151919062000373565b6200015a565b60005b6001600160a01b031660e0528015620001ad576000805461ff0019169055604051600181527f7f26b83ff96e1f2b6a682f133852f6798a09c465da95921460cefb38474024989060200160405180910390a15b5050505062000391565b60008054610100900460ff161562000250578160ff166001148015620001f05750620001ee30620002ce60201b62000f141760201c565b155b620002485760405162461bcd60e51b815260206004820152602e602482015260008051602062002a6383398151915260448201526d191e481a5b9a5d1a585b1a5e995960921b60648201526084015b60405180910390fd5b506000919050565b60005460ff808416911610620002af5760405162461bcd60e51b815260206004820152602e602482015260008051602062002a6383398151915260448201526d191e481a5b9a5d1a585b1a5e995960921b60648201526084016200023f565b506000805460ff191660ff92909216919091179055600190565b919050565b6001600160a01b03163b151590565b80516001600160a01b0381168114620002c957600080fd5b6000806000606084860312156200030b57600080fd5b6200031684620002dd565b92506200032660208501620002dd565b9150604084015180151581146200033c57600080fd5b809150509250925092565b6000602082840312156200035a57600080fd5b815160ff811681146200036c57600080fd5b9392505050565b6000602082840312156200038657600080fd5b6200036c82620002dd565b60805160a05160c05160e051610100516126196200044a600039600061028901526000818161033e0152818161060401528181610a5b01528181610ab801528181610cc801528181610cf701528181610da501528181610dd401528181611161015281816111a30152818161186e01526118d4015260005050600081816103f301528181610c9a01526114c601526000818161072301528181610763015281816108240152818161086401526108f701526126196000f3fe6080604052600436106101b75760003560e01c80637284e416116100ec578063a9059cbb1161008a578063dd30a66611610064578063dd30a666146104bf578063dd62ed3e146104d3578063fc0c546a146104f3578063fe4b84df1461050657600080fd5b8063a9059cbb1461047f578063b2fffb0414610240578063db006a751461049f57600080fd5b806395d89b41116100c657806395d89b4114610415578063a0712d681461042a578063a457c2d71461044a578063a734f06e1461046a57600080fd5b80637284e416146103ac578063852a12e3146103c1578063858dccb3146103e157600080fd5b80633659cfe61161015957806352d1902d1161013357806352d1902d1461030657806354fd4d501461031b5780636f307dc31461032f57806370a082311461037657600080fd5b80633659cfe6146102b357806339509351146102d35780634f1ef286146102f357600080fd5b806318160ddd1161019557806318160ddd146102215780631ee108331461024057806323b872dd14610255578063313ce5671461027557600080fd5b806306fdde03146101bc578063095ea7b3146101e75780631249c58b14610217575b600080fd5b3480156101c857600080fd5b506101d1610526565b6040516101de9190611f0c565b60405180910390f35b3480156101f357600080fd5b50610207610202366004611f54565b6105b8565b60405190151581526020016101de565b61021f6105d2565b005b34801561022d57600080fd5b506035545b6040519081526020016101de565b34801561024c57600080fd5b506102326106e1565b34801561026157600080fd5b50610207610270366004611f80565b6106f3565b34801561028157600080fd5b5060405160ff7f00000000000000000000000000000000000000000000000000000000000000001681526020016101de565b3480156102bf57600080fd5b5061021f6102ce366004611fc1565b610719565b3480156102df57600080fd5b506102076102ee366004611f54565b6107f8565b61021f61030136600461204d565b61081a565b34801561031257600080fd5b506102326108ea565b34801561032757600080fd5b506001610232565b34801561033b57600080fd5b507f00000000000000000000000000000000000000000000000000000000000000005b6040516001600160a01b0390911681526020016101de565b34801561038257600080fd5b50610232610391366004611fc1565b6001600160a01b031660009081526033602052604090205490565b3480156103b857600080fd5b506101d161099d565b3480156103cd57600080fd5b506102326103dc3660046120e0565b6109a7565b3480156103ed57600080fd5b5061035e7f000000000000000000000000000000000000000000000000000000000000000081565b34801561042157600080fd5b506101d1610a21565b34801561043657600080fd5b506102326104453660046120e0565b610a30565b34801561045657600080fd5b50610207610465366004611f54565b610b48565b34801561047657600080fd5b5061035e600081565b34801561048b57600080fd5b5061020761049a366004611f54565b610bce565b3480156104ab57600080fd5b506102326104ba3660046120e0565b610bdc565b3480156104cb57600080fd5b506000610232565b3480156104df57600080fd5b506102326104ee3660046120f9565b610c40565b3480156104ff57600080fd5b503061035e565b34801561051257600080fd5b5061021f6105213660046120e0565b610c6b565b60606036805461053590612132565b80601f016020809104026020016040519081016040528092919081815260200182805461056190612132565b80156105ae5780601f10610583576101008083540402835291602001916105ae565b820191906000526020600020905b81548152906001019060200180831161059157829003601f168201915b5050505050905090565b6000336105c6818585610f23565b60019150505b92915050565b6002606554036105fd5760405162461bcd60e51b81526004016105f49061216c565b60405180910390fd5b60026065557f00000000000000000000000000000000000000000000000000000000000000006001600160a01b03161561063657600080fd5b60ca5460000361064557600080fd5b3460000361067e5760405162461bcd60e51b815260206004820152600660248201526509cde408aa8960d31b60448201526064016105f4565b600061068934611047565b9050600081116106c75760405162461bcd60e51b81526020600482015260096024820152684e6f2053686172657360b81b60448201526064016105f4565b6106d13382611069565b6106d9611148565b506001606555565b60006106ee60ca54611262565b905090565b60003361070185828561127c565b61070c8585856112f6565b60019150505b9392505050565b6001600160a01b037f00000000000000000000000000000000000000000000000000000000000000001630036107615760405162461bcd60e51b81526004016105f4906121a3565b7f00000000000000000000000000000000000000000000000000000000000000006001600160a01b03166107aa60008051602061259d833981519152546001600160a01b031690565b6001600160a01b0316146107d05760405162461bcd60e51b81526004016105f4906121ef565b6107d9816114c4565b604080516000808252602082019092526107f591839190611563565b50565b6000336105c681858561080b8383610c40565b6108159190612251565b610f23565b6001600160a01b037f00000000000000000000000000000000000000000000000000000000000000001630036108625760405162461bcd60e51b81526004016105f4906121a3565b7f00000000000000000000000000000000000000000000000000000000000000006001600160a01b03166108ab60008051602061259d833981519152546001600160a01b031690565b6001600160a01b0316146108d15760405162461bcd60e51b81526004016105f4906121ef565b6108da826114c4565b6108e682826001611563565b5050565b6000306001600160a01b037f0000000000000000000000000000000000000000000000000000000000000000161461098a5760405162461bcd60e51b815260206004820152603860248201527f555550535570677261646561626c653a206d757374206e6f742062652063616c60448201527f6c6564207468726f7567682064656c656761746563616c6c000000000000000060648201526084016105f4565b5060008051602061259d83398151915290565b60606106ee610a21565b60006002606554036109cb5760405162461bcd60e51b81526004016105f49061216c565b600260655560008290036109e157506000610a17565b60ca546000036109f057600080fd5b610a02336109fd846116d3565b61171e565b610a0b8261186c565b610a13611148565b5060005b6001606555919050565b60606037805461053590612132565b6000600260655403610a545760405162461bcd60e51b81526004016105f49061216c565b60026065557f00000000000000000000000000000000000000000000000000000000000000006001600160a01b0316610a8c57600080fd5b60ca54600003610a9b57600080fd5b81600003610aab57506000610a17565b610ae06001600160a01b037f0000000000000000000000000000000000000000000000000000000000000000163330856118fb565b6000610aeb83611047565b905060008111610b295760405162461bcd60e51b81526020600482015260096024820152684e6f2053686172657360b81b60448201526064016105f4565b610b333382611069565b610b3b611148565b5050600160655550600090565b60003381610b568286610c40565b905083811015610bb65760405162461bcd60e51b815260206004820152602560248201527f45524332303a2064656372656173656420616c6c6f77616e63652062656c6f77604482015264207a65726f60d81b60648201526084016105f4565b610bc38286868403610f23565b506001949350505050565b6000336105c68185856112f6565b6000600260655403610c005760405162461bcd60e51b81526004016105f49061216c565b60026065556000829003610c1657506000610a17565b60ca54600003610c2557600080fd5b610c2f338361171e565b610a0b610c3b83611966565b61186c565b6001600160a01b03918216600090815260346020908152604080832093909416825291909152205490565b6000610c77600161197f565b90508015610c8f576000805461ff0019166101001790555b336001600160a01b037f00000000000000000000000000000000000000000000000000000000000000001614610cc457600080fd5b60007f00000000000000000000000000000000000000000000000000000000000000006001600160a01b031615610d80577f00000000000000000000000000000000000000000000000000000000000000006001600160a01b03166306fdde036040518163ffffffff1660e01b8152600401600060405180830381865afa158015610d53573d6000803e3d6000fd5b505050506040513d6000823e601f3d908101601f19168201604052610d7b9190810190612264565b610d9f565b6040518060400160405280600581526020016422ba3432b960d91b8152505b905060007f00000000000000000000000000000000000000000000000000000000000000006001600160a01b031615610e5d577f00000000000000000000000000000000000000000000000000000000000000006001600160a01b03166395d89b416040518163ffffffff1660e01b8152600401600060405180830381865afa158015610e30573d6000803e3d6000fd5b505050506040513d6000823e601f3d908101601f19168201604052610e589190810190612264565b610e7a565b6040518060400160405280600381526020016208aa8960eb1b8152505b9050610ec482604051602001610e9091906122d2565b60405160208183030381529060405282604051602001610eb0919061230b565b6040516020818303038152906040526119ff565b505060ca82905580156108e6576000805461ff0019169055604051600181527f7f26b83ff96e1f2b6a682f133852f6798a09c465da95921460cefb38474024989060200160405180910390a15050565b6001600160a01b03163b151590565b6001600160a01b038316610f855760405162461bcd60e51b8152602060048201526024808201527f45524332303a20617070726f76652066726f6d20746865207a65726f206164646044820152637265737360e01b60648201526084016105f4565b6001600160a01b038216610fe65760405162461bcd60e51b815260206004820152602260248201527f45524332303a20617070726f766520746f20746865207a65726f206164647265604482015261737360f01b60648201526084016105f4565b6001600160a01b0383811660008181526034602090815260408083209487168084529482529182902085905590518481527f8c5be1e5ebec7d5bd14f71427d1e84f3dd0314c0f7b2291e5b200ac8c7c3b925910160405180910390a3505050565b60ca5460009061105f670de0b6b3a764000084612335565b6105cc919061234c565b6001600160a01b0382166110bf5760405162461bcd60e51b815260206004820152601f60248201527f45524332303a206d696e7420746f20746865207a65726f20616464726573730060448201526064016105f4565b80603560008282546110d19190612251565b90915550506001600160a01b038216600090815260336020526040812080548392906110fe908490612251565b90915550506040518181526001600160a01b038316906000907fddf252ad1be2c89b69c2b068fc378daa952ba7f163c4a11628f55a4df523b3ef9060200160405180910390a35050565b600061115b61115660355490565b611966565b905060007f00000000000000000000000000000000000000000000000000000000000000006001600160a01b03161561121b576040516370a0823160e01b81523060048201527f00000000000000000000000000000000000000000000000000000000000000006001600160a01b0316906370a0823190602401602060405180830381865afa1580156111f2573d6000803e3d6000fd5b505050506040513d601f19601f82011682018060405250810190611216919061236e565b61121d565b475b9050808211156108e65760405162461bcd60e51b815260206004820152601060248201526f125b9d985c9a585b9d0811985a5b195960821b60448201526064016105f4565b60006001600160ff1b0382111561127857600080fd5b5090565b60006112888484610c40565b905060001981146112f057818110156112e35760405162461bcd60e51b815260206004820152601d60248201527f45524332303a20696e73756666696369656e7420616c6c6f77616e636500000060448201526064016105f4565b6112f08484848403610f23565b50505050565b6001600160a01b03831661135a5760405162461bcd60e51b815260206004820152602560248201527f45524332303a207472616e736665722066726f6d20746865207a65726f206164604482015264647265737360d81b60648201526084016105f4565b6001600160a01b0382166113bc5760405162461bcd60e51b815260206004820152602360248201527f45524332303a207472616e7366657220746f20746865207a65726f206164647260448201526265737360e81b60648201526084016105f4565b6001600160a01b038316600090815260336020526040902054818110156114345760405162461bcd60e51b815260206004820152602660248201527f45524332303a207472616e7366657220616d6f756e7420657863656564732062604482015265616c616e636560d01b60648201526084016105f4565b6001600160a01b0380851660009081526033602052604080822085850390559185168152908120805484929061146b908490612251565b92505081905550826001600160a01b0316846001600160a01b03167fddf252ad1be2c89b69c2b068fc378daa952ba7f163c4a11628f55a4df523b3ef846040516114b791815260200190565b60405180910390a36112f0565b7f00000000000000000000000000000000000000000000000000000000000000006001600160a01b0316638da5cb5b6040518163ffffffff1660e01b8152600401602060405180830381865afa158015611522573d6000803e3d6000fd5b505050506040513d601f19601f820116820180604052508101906115469190612387565b6001600160a01b0316336001600160a01b0316146107f557600080fd5b7f4910fdfa16fed3260ed0e7147f7cc6da11a60208b5b9406d12a635614ffd91435460ff161561159b5761159683611a30565b505050565b826001600160a01b03166352d1902d6040518163ffffffff1660e01b8152600401602060405180830381865afa9250505080156115f5575060408051601f3d908101601f191682019092526115f29181019061236e565b60015b6116585760405162461bcd60e51b815260206004820152602e60248201527f45524331393637557067726164653a206e657720696d706c656d656e7461746960448201526d6f6e206973206e6f74205555505360901b60648201526084016105f4565b60008051602061259d83398151915281146116c75760405162461bcd60e51b815260206004820152602960248201527f45524331393637557067726164653a20756e737570706f727465642070726f786044820152681a58589b195555525160ba1b60648201526084016105f4565b50611596838383611acc565b600081156117165760ca5460016116f2670de0b6b3a764000085612335565b6116fc91906123a4565b611706919061234c565b611711906001612251565b6105cc565b600092915050565b6001600160a01b03821661177e5760405162461bcd60e51b815260206004820152602160248201527f45524332303a206275726e2066726f6d20746865207a65726f206164647265736044820152607360f81b60648201526084016105f4565b6001600160a01b038216600090815260336020526040902054818110156117f25760405162461bcd60e51b815260206004820152602260248201527f45524332303a206275726e20616d6f756e7420657863656564732062616c616e604482015261636560f01b60648201526084016105f4565b6001600160a01b03831660009081526033602052604081208383039055603580548492906118219084906123a4565b90915550506040518281526000906001600160a01b038516907fddf252ad1be2c89b69c2b068fc378daa952ba7f163c4a11628f55a4df523b3ef9060200160405180910390a3505050565b7f00000000000000000000000000000000000000000000000000000000000000006001600160a01b03166118c757604051339082156108fc029083906000818181858888f193505050501580156108e6573d6000803e3d6000fd5b6107f56001600160a01b037f0000000000000000000000000000000000000000000000000000000000000000163383611af1565b6040516001600160a01b03808516602483015283166044820152606481018290526112f09085906323b872dd60e01b906084015b60408051601f198184030181529190526020810180516001600160e01b03166001600160e01b031990931692909217909152611b21565b6000670de0b6b3a764000060ca548361105f9190612335565b60008054610100900460ff16156119be578160ff1660011480156119a25750303b155b6117165760405162461bcd60e51b81526004016105f4906123b7565b60005460ff8084169116106119e55760405162461bcd60e51b81526004016105f4906123b7565b506000805460ff191660ff92909216919091179055600190565b600054610100900460ff16611a265760405162461bcd60e51b81526004016105f490612405565b6108e68282611bf3565b6001600160a01b0381163b611a9d5760405162461bcd60e51b815260206004820152602d60248201527f455243313936373a206e657720696d706c656d656e746174696f6e206973206e60448201526c1bdd08184818dbdb9d1c9858dd609a1b60648201526084016105f4565b60008051602061259d83398151915280546001600160a01b0319166001600160a01b0392909216919091179055565b611ad583611c33565b600082511180611ae25750805b15611596576112f08383611c73565b6040516001600160a01b03831660248201526044810182905261159690849063a9059cbb60e01b9060640161192f565b6000611b76826040518060400160405280602081526020017f5361666545524332303a206c6f772d6c6576656c2063616c6c206661696c6564815250856001600160a01b0316611d679092919063ffffffff16565b8051909150156115965780806020019051810190611b949190612450565b6115965760405162461bcd60e51b815260206004820152602a60248201527f5361666545524332303a204552433230206f7065726174696f6e20646964206e6044820152691bdd081cdd58d8d9595960b21b60648201526084016105f4565b600054610100900460ff16611c1a5760405162461bcd60e51b81526004016105f490612405565b6036611c2683826124c0565b50603761159682826124c0565b611c3c81611a30565b6040516001600160a01b038216907fbc7cd75a20ee27fd9adebab32041f755214dbc6bffa90cc0225b39da2e5c2d3b90600090a250565b60606001600160a01b0383163b611cdb5760405162461bcd60e51b815260206004820152602660248201527f416464726573733a2064656c65676174652063616c6c20746f206e6f6e2d636f6044820152651b9d1c9858dd60d21b60648201526084016105f4565b600080846001600160a01b031684604051611cf69190612580565b600060405180830381855af49150503d8060008114611d31576040519150601f19603f3d011682016040523d82523d6000602084013e611d36565b606091505b5091509150611d5e82826040518060600160405280602781526020016125bd60279139611d7e565b95945050505050565b6060611d768484600085611db7565b949350505050565b60608315611d8d575081610712565b825115611d9d5782518084602001fd5b8160405162461bcd60e51b81526004016105f49190611f0c565b606082471015611e185760405162461bcd60e51b815260206004820152602660248201527f416464726573733a20696e73756666696369656e742062616c616e636520666f6044820152651c8818d85b1b60d21b60648201526084016105f4565b6001600160a01b0385163b611e6f5760405162461bcd60e51b815260206004820152601d60248201527f416464726573733a2063616c6c20746f206e6f6e2d636f6e747261637400000060448201526064016105f4565b600080866001600160a01b03168587604051611e8b9190612580565b60006040518083038185875af1925050503d8060008114611ec8576040519150601f19603f3d011682016040523d82523d6000602084013e611ecd565b606091505b5091509150611edd828286611d7e565b979650505050505050565b60005b83811015611f03578181015183820152602001611eeb565b50506000910152565b6020815260008251806020840152611f2b816040850160208701611ee8565b601f01601f19169190910160400192915050565b6001600160a01b03811681146107f557600080fd5b60008060408385031215611f6757600080fd5b8235611f7281611f3f565b946020939093013593505050565b600080600060608486031215611f9557600080fd5b8335611fa081611f3f565b92506020840135611fb081611f3f565b929592945050506040919091013590565b600060208284031215611fd357600080fd5b813561071281611f3f565b634e487b7160e01b600052604160045260246000fd5b604051601f8201601f1916810167ffffffffffffffff8111828210171561201d5761201d611fde565b604052919050565b600067ffffffffffffffff82111561203f5761203f611fde565b50601f01601f191660200190565b6000806040838503121561206057600080fd5b823561206b81611f3f565b9150602083013567ffffffffffffffff81111561208757600080fd5b8301601f8101851361209857600080fd5b80356120ab6120a682612025565b611ff4565b8181528660208385010111156120c057600080fd5b816020840160208301376000602083830101528093505050509250929050565b6000602082840312156120f257600080fd5b5035919050565b6000806040838503121561210c57600080fd5b823561211781611f3f565b9150602083013561212781611f3f565b809150509250929050565b600181811c9082168061214657607f821691505b60208210810361216657634e487b7160e01b600052602260045260246000fd5b50919050565b6020808252601f908201527f5265656e7472616e637947756172643a207265656e7472616e742063616c6c00604082015260600190565b6020808252602c908201527f46756e6374696f6e206d7573742062652063616c6c6564207468726f7567682060408201526b19195b1959d85d1958d85b1b60a21b606082015260800190565b6020808252602c908201527f46756e6374696f6e206d7573742062652063616c6c6564207468726f7567682060408201526b6163746976652070726f787960a01b606082015260800190565b634e487b7160e01b600052601160045260246000fd5b808201808211156105cc576105cc61223b565b60006020828403121561227657600080fd5b815167ffffffffffffffff81111561228d57600080fd5b8201601f8101841361229e57600080fd5b80516122ac6120a682612025565b8181528560208385010111156122c157600080fd5b611d5e826020830160208601611ee8565b7002737ba34b7b730b6102bb930b83832b21607d1b8152600082516122fe816011850160208701611ee8565b9190910160110192915050565b616e7760f01b815260008251612328816002850160208701611ee8565b9190910160020192915050565b80820281158282048414176105cc576105cc61223b565b60008261236957634e487b7160e01b600052601260045260246000fd5b500490565b60006020828403121561238057600080fd5b5051919050565b60006020828403121561239957600080fd5b815161071281611f3f565b818103818111156105cc576105cc61223b565b6020808252602e908201527f496e697469616c697a61626c653a20636f6e747261637420697320616c72656160408201526d191e481a5b9a5d1a585b1a5e995960921b606082015260800190565b6020808252602b908201527f496e697469616c697a61626c653a20636f6e7472616374206973206e6f74206960408201526a6e697469616c697a696e6760a81b606082015260800190565b60006020828403121561246257600080fd5b8151801515811461071257600080fd5b601f82111561159657600081815260208120601f850160051c810160208610156124995750805b601f850160051c820191505b818110156124b8578281556001016124a5565b505050505050565b815167ffffffffffffffff8111156124da576124da611fde565b6124ee816124e88454612132565b84612472565b602080601f831160018114612523576000841561250b5750858301515b600019600386901b1c1916600185901b1785556124b8565b600085815260208120601f198616915b8281101561255257888601518255948401946001909101908401612533565b50858210156125705787850151600019600388901b60f8161c191681555b5050505050600190811b01905550565b60008251612592818460208701611ee8565b919091019291505056fe360894a13ba1a3210667c828492db98dca3e2076cc3735a920a3ca505d382bbc416464726573733a206c6f772d6c6576656c2064656c65676174652063616c6c206661696c6564a26469706673582212209292632c90556930aa39f4d142d001ddd90574fe01afce4d042ff6e752a59f8d64736f6c63430008110033496e697469616c697a61626c653a20636f6e747261637420697320616c726561","bytecodeSha1":"da39a3ee5e6b4b0d3255bfef95601890afd80709","compiler":{"evm_version":"istanbul","optimizer":{"enabled":true,"runs":200},"version":"0.8.17+commit.8df45f5f"},"contractName":"nwToken","language":"Solidity","natspec":{"kind":"dev","methods":{"allowance(address,address)":{"details":"See {IERC20-allowance}."},"approve(address,uint256)":{"details":"See {IERC20-approve}. NOTE: If `amount` is the maximum `uint256`, the allowance is not updated on `transferFrom`. This is semantically equivalent to an infinite approval. Requirements: - `spender` cannot be the zero address."},"balanceOf(address)":{"details":"See {IERC20-balanceOf}."},"decimals()":{"details":"Returns the number of decimals used to get its user representation. For example, if `decimals` equals `2`, a balance of `505` tokens should be displayed to a user as `5.05` (`505 / 10 ** 2`). Tokens usually opt for a value of 18, imitating the relationship between Ether and Wei. This is the value {ERC20} uses, unless this function is overridden; NOTE: This information is only used for _display_ purposes: it in no way affects any of the arithmetic of the contract, including {IERC20-balanceOf} and {IERC20-transfer}."},"decreaseAllowance(address,uint256)":{"details":"Atomically decreases the allowance granted to `spender` by the caller. This is an alternative to {approve} that can be used as a mitigation for problems described in {IERC20-approve}. Emits an {Approval} event indicating the updated allowance. Requirements: - `spender` cannot be the zero address. - `spender` must have allowance for the caller of at least `subtractedValue`."},"increaseAllowance(address,uint256)":{"details":"Atomically increases the allowance granted to `spender` by the caller. This is an alternative to {approve} that can be used as a mitigation for problems described in {IERC20-approve}. Emits an {Approval} event indicating the updated allowance. Requirements: - `spender` cannot be the zero address."},"name()":{"details":"Returns the name of the token."},"proxiableUUID()":{"details":"Implementation of the ERC1822 {proxiableUUID} function. This returns the storage slot used by the implementation. It is used to validate that the this implementation remains valid after an upgrade. IMPORTANT: A proxy pointing at a proxiable contract should not be considered proxiable itself, because this risks bricking a proxy that upgrades to it, by delegating to itself until out of gas. Thus it is critical that this function revert if invoked through a proxy. This is guaranteed by the `notDelegated` modifier."},"symbol()":{"details":"Returns the symbol of the token, usually a shorter version of the name."},"totalSupply()":{"details":"See {IERC20-totalSupply}."},"transfer(address,uint256)":{"details":"See {IERC20-transfer}. Requirements: - `to` cannot be the zero address. - the caller must have a balance of at least `amount`."},"transferFrom(address,address,uint256)":{"details":"See {IERC20-transferFrom}. Emits an {Approval} event indicating the updated allowance. This is not required by the EIP. See the note at the beginning of {ERC20}. NOTE: Does not update the allowance if the current allowance is the maximum `uint256`. Requirements: - `from` and `to` cannot be the zero address. - `from` must have a balance of at least `amount`. - the caller must have allowance for ``from``'s tokens of at least `amount`."},"upgradeTo(address)":{"details":"Upgrade the implementation of the proxy to `newImplementation`. Calls {_authorizeUpgrade}. Emits an {Upgraded} event."},"upgradeToAndCall(address,bytes)":{"details":"Upgrade the implementation of the proxy to `newImplementation`, and subsequently execute the function call encoded in `data`. Calls {_authorizeUpgrade}. Emits an {Upgraded} event."}},"version":1},"opcodes":"PUSH1 0x80 PUSH1 0x40 MSTORE PUSH1 0x4 CALLDATASIZE LT PUSH2 0x1B7 JUMPI PUSH1 0x0 CALLDATALOAD PUSH1 0xE0 SHR DUP1 PUSH4 0x7284E416 GT PUSH2 0xEC JUMPI DUP1 PUSH4 0xA9059CBB GT PUSH2 0x8A JUMPI DUP1 PUSH4 0xDD30A666 GT PUSH2 0x64 JUMPI DUP1 PUSH4 0xDD30A666 EQ PUSH2 0x4BF JUMPI DUP1 PUSH4 0xDD62ED3E EQ PUSH2 0x4D3 JUMPI DUP1 PUSH4 0xFC0C546A EQ PUSH2 0x4F3 JUMPI DUP1 PUSH4 0xFE4B84DF EQ PUSH2 0x506 JUMPI PUSH1 0x0 DUP1 REVERT JUMPDEST DUP1 PUSH4 0xA9059CBB EQ PUSH2 0x47F JUMPI DUP1 PUSH4 0xB2FFFB04 EQ PUSH2 0x240 JUMPI DUP1 PUSH4 0xDB006A75 EQ PUSH2 0x49F JUMPI PUSH1 0x0 DUP1 REVERT JUMPDEST DUP1 PUSH4 0x95D89B41 GT PUSH2 0xC6 JUMPI DUP1 PUSH4 0x95D89B41 EQ PUSH2 0x415 JUMPI DUP1 PUSH4 0xA0712D68 EQ PUSH2 0x42A JUMPI DUP1 PUSH4 0xA457C2D7 EQ PUSH2 0x44A JUMPI DUP1 PUSH4 0xA734F06E EQ PUSH2 0x46A JUMPI PUSH1 0x0 DUP1 REVERT JUMPDEST DUP1 PUSH4 0x7284E416 EQ PUSH2 0x3AC JUMPI DUP1 PUSH4 0x852A12E3 EQ PUSH2 0x3C1 JUMPI DUP1 PUSH4 0x858DCCB3 EQ PUSH2 0x3E1 JUMPI PUSH1 0x0 DUP1 REVERT JUMPDEST DUP1 PUSH4 0x3659CFE6 GT PUSH2 0x159 JUMPI DUP1 PUSH4 0x52D1902D GT PUSH2 0x133 JUMPI DUP1 PUSH4 0x52D1902D EQ PUSH2 0x306 JUMPI DUP1 PUSH4 0x54FD4D50 EQ PUSH2 0x31B JUMPI DUP1 PUSH4 0x6F307DC3 EQ PUSH2 0x32F JUMPI DUP1 PUSH4 0x70A08231 EQ PUSH2 0x376 JUMPI PUSH1 0x0 DUP1 REVERT JUMPDEST DUP1 PUSH4 0x3659CFE6 EQ PUSH2 0x2B3 JUMPI DUP1 PUSH4 0x39509351 EQ PUSH2 0x2D3 JUMPI DUP1 PUSH4 0x4F1EF286 EQ PUSH2 0x2F3 JUMPI PUSH1 0x0 DUP1 REVERT JUMPDEST DUP1 PUSH4 0x18160DDD GT PUSH2 0x195 JUMPI DUP1 PUSH4 0x18160DDD EQ PUSH2 0x221 JUMPI DUP1 PUSH4 0x1EE10833 EQ PUSH2 0x240 JUMPI DUP1 PUSH4 0x23B872DD EQ PUSH2 0x255 JUMPI DUP1 PUSH4 0x313CE567 EQ PUSH2 0x275 JUMPI PUSH1 0x0 DUP1 REVERT JUMPDEST DUP1 PUSH4 0x6FDDE03 EQ PUSH2 0x1BC JUMPI DUP1 PUSH4 0x95EA7B3 EQ PUSH2 0x1E7 JUMPI DUP1 PUSH4 0x1249C58B EQ PUSH2 0x217 JUMPI JUMPDEST PUSH1 0x0 DUP1 REVERT JUMPDEST CALLVALUE DUP1 ISZERO PUSH2 0x1C8 JUMPI PUSH1 0x0 DUP1 REVERT JUMPDEST POP PUSH2 0x1D1 PUSH2 0x526 JUMP JUMPDEST PUSH1 0x40 MLOAD PUSH2 0x1DE SWAP2 SWAP1 PUSH2 0x1F0C JUMP JUMPDEST PUSH1 0x40 MLOAD DUP1 SWAP2 SUB SWAP1 RETURN JUMPDEST CALLVALUE DUP1 ISZERO PUSH2 0x1F3 JUMPI PUSH1 0x0 DUP1 REVERT JUMPDEST POP PUSH2 0x207 PUSH2 0x202 CALLDATASIZE PUSH1 0x4 PUSH2 0x1F54 JUMP JUMPDEST PUSH2 0x5B8 JUMP JUMPDEST PUSH1 0x40 MLOAD SWAP1 ISZERO ISZERO DUP2 MSTORE PUSH1 0x20 ADD PUSH2 0x1DE JUMP JUMPDEST PUSH2 0x21F PUSH2 0x5D2 JUMP JUMPDEST STOP JUMPDEST CALLVALUE DUP1 ISZERO PUSH2 0x22D JUMPI PUSH1 0x0 DUP1 REVERT JUMPDEST POP PUSH1 0x35 SLOAD JUMPDEST PUSH1 0x40 MLOAD SWAP1 DUP2 MSTORE PUSH1 0x20 ADD PUSH2 0x1DE JUMP JUMPDEST CALLVALUE DUP1 ISZERO PUSH2 0x24C JUMPI PUSH1 0x0 DUP1 REVERT JUMPDEST POP PUSH2 0x232 PUSH2 0x6E1 JUMP JUMPDEST CALLVALUE DUP1 ISZERO PUSH2 0x261 JUMPI PUSH1 0x0 DUP1 REVERT JUMPDEST POP PUSH2 0x207 PUSH2 0x270 CALLDATASIZE PUSH1 0x4 PUSH2 0x1F80 JUMP JUMPDEST PUSH2 0x6F3 JUMP JUMPDEST CALLVALUE DUP1 ISZERO PUSH2 0x281 JUMPI PUSH1 0x0 DUP1 REVERT JUMPDEST POP PUSH1 0x40 MLOAD PUSH1 0xFF PUSH32 0x0 AND DUP2 MSTORE PUSH1 0x20 ADD PUSH2 0x1DE JUMP JUMPDEST CALLVALUE DUP1 ISZERO PUSH2 0x2BF JUMPI PUSH1 0x0 DUP1 REVERT JUMPDEST POP PUSH2 0x21F PUSH2 0x2CE CALLDATASIZE PUSH1 0x4 PUSH2 0x1FC1 JUMP JUMPDEST PUSH2 0x719 JUMP JUMPDEST CALLVALUE DUP1 ISZERO PUSH2 0x2DF JUMPI PUSH1 0x0 DUP1 REVERT JUMPDEST POP PUSH2 0x207 PUSH2 0x2EE CALLDATASIZE PUSH1 0x4 PUSH2 0x1F54 JUMP JUMPDEST PUSH2 0x7F8 JUMP JUMPDEST PUSH2 0x21F PUSH2 0x301 CALLDATASIZE PUSH1 0x4 PUSH2 0x204D JUMP JUMPDEST PUSH2 0x81A JUMP JUMPDEST CALLVALUE DUP1 ISZERO PUSH2 0x312 JUMPI PUSH1 0x0 DUP1 REVERT JUMPDEST POP PUSH2 0x232 PUSH2 0x8EA JUMP JUMPDEST CALLVALUE DUP1 ISZERO PUSH2 0x327 JUMPI PUSH1 0x0 DUP1 REVERT JUMPDEST POP PUSH1 0x1 PUSH2 0x232 JUMP JUMPDEST CALLVALUE DUP1 ISZERO PUSH2 0x33B JUMPI PUSH1 0x0 DUP1 REVERT JUMPDEST POP PUSH32 0x0 JUMPDEST PUSH1 0x40 MLOAD PUSH1 0x1 PUSH1 0x1 PUSH1 0xA0 SHL SUB SWAP1 SWAP2 AND DUP2 MSTORE PUSH1 0x20 ADD PUSH2 0x1DE JUMP JUMPDEST CALLVALUE DUP1 ISZERO PUSH2 0x382 JUMPI PUSH1 0x0 DUP1 REVERT JUMPDEST POP PUSH2 0x232 PUSH2 0x391 CALLDATASIZE PUSH1 0x4 PUSH2 0x1FC1 JUMP JUMPDEST PUSH1 0x1 PUSH1 0x1 PUSH1 0xA0 SHL SUB AND PUSH1 0x0 SWAP1 DUP2 MSTORE PUSH1 0x33 PUSH1 0x20 MSTORE PUSH1 0x40 SWAP1 KECCAK256 SLOAD SWAP1 JUMP JUMPDEST CALLVALUE DUP1 ISZERO PUSH2 0x3B8 JUMPI PUSH1 0x0 DUP1 REVERT JUMPDEST POP PUSH2 0x1D1 PUSH2 0x99D JUMP JUMPDEST CALLVALUE DUP1 ISZERO PUSH2 0x3CD JUMPI PUSH1 0x0 DUP1 REVERT JUMPDEST POP PUSH2 0x232 PUSH2 0x3DC CALLDATASIZE PUSH1 0x4 PUSH2 0x20E0 JUMP JUMPDEST PUSH2 0x9A7 JUMP JUMPDEST CALLVALUE DUP1 ISZERO PUSH2 0x3ED JUMPI PUSH1 0x0 DUP1 REVERT JUMPDEST POP PUSH2 0x35E PUSH32 0x0 DUP2 JUMP JUMPDEST CALLVALUE DUP1 ISZERO PUSH2 0x421 JUMPI PUSH1 0x0 DUP1 REVERT JUMPDEST POP PUSH2 0x1D1 PUSH2 0xA21 JUMP JUMPDEST CALLVALUE DUP1 ISZERO PUSH2 0x436 JUMPI PUSH1 0x0 DUP1 REVERT JUMPDEST POP PUSH2 0x232 PUSH2 0x445 CALLDATASIZE PUSH1 0x4 PUSH2 0x20E0 JUMP JUMPDEST PUSH2 0xA30 JUMP JUMPDEST CALLVALUE DUP1 ISZERO PUSH2 0x456 JUMPI PUSH1 0x0 DUP1 REVERT JUMPDEST POP PUSH2 0x207 PUSH2 0x465 CALLDATASIZE PUSH1 0x4 PUSH2 0x1F54 JUMP JUMPDEST PUSH2 0xB48 JUMP JUMPDEST CALLVALUE DUP1 ISZERO PUSH2 0x476 JUMPI PUSH1 0x0 DUP1 REVERT JUMPDEST POP PUSH2 0x35E PUSH1 0x0 DUP2 JUMP JUMPDEST CALLVALUE DUP1 ISZERO PUSH2 0x48B JUMPI PUSH1 0x0 DUP1 REVERT JUMPDEST POP PUSH2 0x207 PUSH2 0x49A CALLDATASIZE PUSH1 0x4 PUSH2 0x1F54 JUMP JUMPDEST PUSH2 0xBCE JUMP JUMPDEST CALLVALUE DUP1 ISZERO PUSH2 0x4AB JUMPI PUSH1 0x0 DUP1 REVERT JUMPDEST POP PUSH2 0x232 PUSH2 0x4BA CALLDATASIZE PUSH1 0x4 PUSH2 0x20E0 JUMP JUMPDEST PUSH2 0xBDC JUMP JUMPDEST CALLVALUE DUP1 ISZERO PUSH2 0x4CB JUMPI PUSH1 0x0 DUP1 REVERT JUMPDEST POP PUSH1 0x0 PUSH2 0x232 JUMP JUMPDEST CALLVALUE DUP1 ISZERO PUSH2 0x4DF JUMPI PUSH1 0x0 DUP1 REVERT JUMPDEST POP PUSH2 0x232 PUSH2 0x4EE CALLDATASIZE PUSH1 0x4 PUSH2 0x20F9 JUMP JUMPDEST PUSH2 0xC40 JUMP JUMPDEST CALLVALUE DUP1 ISZERO PUSH2 0x4FF JUMPI PUSH1 0x0 DUP1 REVERT JUMPDEST POP ADDRESS PUSH2 0x35E JUMP JUMPDEST CALLVALUE DUP1 ISZERO PUSH2 0x512 JUMPI PUSH1 0x0 DUP1 REVERT JUMPDEST POP PUSH2 0x21F PUSH2 0x521 CALLDATASIZE PUSH1 0x4 PUSH2 0x20E0 JUMP JUMPDEST PUSH2 0xC6B JUMP JUMPDEST PUSH1 0x60 PUSH1 0x36 DUP1 SLOAD PUSH2 0x535 SWAP1 PUSH2 0x2132 JUMP JUMPDEST DUP1 PUSH1 0x1F ADD PUSH1 0x20 DUP1 SWAP2 DIV MUL PUSH1 0x20 ADD PUSH1 0x40 MLOAD SWAP1 DUP2 ADD PUSH1 0x40 MSTORE DUP1 SWAP3 SWAP2 SWAP1 DUP2 DUP2 MSTORE PUSH1 0x20 ADD DUP3 DUP1 SLOAD PUSH2 0x561 SWAP1 PUSH2 0x2132 JUMP JUMPDEST DUP1 ISZERO PUSH2 0x5AE JUMPI DUP1 PUSH1 0x1F LT PUSH2 0x583 JUMPI PUSH2 0x100 DUP1 DUP4 SLOAD DIV MUL DUP4 MSTORE SWAP2 PUSH1 0x20 ADD SWAP2 PUSH2 0x5AE JUMP JUMPDEST DUP3 ADD SWAP2 SWAP1 PUSH1 0x0 MSTORE PUSH1 0x20 PUSH1 0x0 KECCAK256 SWAP1 JUMPDEST DUP2 SLOAD DUP2 MSTORE SWAP1 PUSH1 0x1 ADD SWAP1 PUSH1 0x20 ADD DUP1 DUP4 GT PUSH2 0x591 JUMPI DUP3 SWAP1 SUB PUSH1 0x1F AND DUP3 ADD SWAP2 JUMPDEST POP POP POP POP POP SWAP1 POP SWAP1 JUMP JUMPDEST PUSH1 0x0 CALLER PUSH2 0x5C6 DUP2 DUP6 DUP6 PUSH2 0xF23 JUMP JUMPDEST PUSH1 0x1 SWAP2 POP POP JUMPDEST SWAP3 SWAP2 POP POP JUMP JUMPDEST PUSH1 0x2 PUSH1 0x65 SLOAD SUB PUSH2 0x5FD JUMPI PUSH1 0x40 MLOAD PUSH3 0x461BCD PUSH1 0xE5 SHL DUP2 MSTORE PUSH1 0x4 ADD PUSH2 0x5F4 SWAP1 PUSH2 0x216C JUMP JUMPDEST PUSH1 0x40 MLOAD DUP1 SWAP2 SUB SWAP1 REVERT JUMPDEST PUSH1 0x2 PUSH1 0x65 SSTORE PUSH32 0x0 PUSH1 0x1 PUSH1 0x1 PUSH1 0xA0 SHL SUB AND ISZERO PUSH2 0x636 JUMPI PUSH1 0x0 DUP1 REVERT JUMPDEST PUSH1 0xCA SLOAD PUSH1 0x0 SUB PUSH2 0x645 JUMPI PUSH1 0x0 DUP1 REVERT JUMPDEST CALLVALUE PUSH1 0x0 SUB PUSH2 0x67E JUMPI PUSH1 0x40 MLOAD PUSH3 0x461BCD PUSH1 0xE5 SHL DUP2 MSTORE PUSH1 0x20 PUSH1 0x4 DUP3 ADD MSTORE PUSH1 0x6 PUSH1 0x24 DUP3 ADD MSTORE PUSH6 0x9CDE408AA89 PUSH1 0xD3 SHL PUSH1 0x44 DUP3 ADD MSTORE PUSH1 0x64 ADD PUSH2 0x5F4 JUMP JUMPDEST PUSH1 0x0 PUSH2 0x689 CALLVALUE PUSH2 0x1047 JUMP JUMPDEST SWAP1 POP PUSH1 0x0 DUP2 GT PUSH2 0x6C7 JUMPI PUSH1 0x40 MLOAD PUSH3 0x461BCD PUSH1 0xE5 SHL DUP2 MSTORE PUSH1 0x20 PUSH1 0x4 DUP3 ADD MSTORE PUSH1 0x9 PUSH1 0x24 DUP3 ADD MSTORE PUSH9 0x4E6F20536861726573 PUSH1 0xB8 SHL PUSH1 0x44 DUP3 ADD MSTORE PUSH1 0x64 ADD PUSH2 0x5F4 JUMP JUMPDEST PUSH2 0x6D1 CALLER DUP3 PUSH2 0x1069 JUMP JUMPDEST PUSH2 0x6D9 PUSH2 0x1148 JUMP JUMPDEST POP PUSH1 0x1 PUSH1 0x65 SSTORE JUMP JUMPDEST PUSH1 0x0 PUSH2 0x6EE PUSH1 0xCA SLOAD PUSH2 0x1262 JUMP JUMPDEST SWAP1 POP SWAP1 JUMP JUMPDEST PUSH1 0x0 CALLER PUSH2 0x701 DUP6 DUP3 DUP6 PUSH2 0x127C JUMP JUMPDEST PUSH2 0x70C DUP6 DUP6 DUP6 PUSH2 0x12F6 JUMP JUMPDEST PUSH1 0x1 SWAP2 POP POP JUMPDEST SWAP4 SWAP3 POP POP POP JUMP JUMPDEST PUSH1 0x1 PUSH1 0x1 PUSH1 0xA0 SHL SUB PUSH32 0x0 AND ADDRESS SUB PUSH2 0x761 JUMPI PUSH1 0x40 MLOAD PUSH3 0x461BCD PUSH1 0xE5 SHL DUP2 MSTORE PUSH1 0x4 ADD PUSH2 0x5F4 SWAP1 PUSH2 0x21A3 JUMP JUMPDEST PUSH32 0x0 PUSH1 0x1 PUSH1 0x1 PUSH1 0xA0 SHL SUB AND PUSH2 0x7AA PUSH1 0x0 DUP1 MLOAD PUSH1 0x20 PUSH2 0x259D DUP4 CODECOPY DUP2 MLOAD SWAP2 MSTORE SLOAD PUSH1 0x1 PUSH1 0x1 PUSH1 0xA0 SHL SUB AND SWAP1 JUMP JUMPDEST PUSH1 0x1 PUSH1 0x1 PUSH1 0xA0 SHL SUB AND EQ PUSH2 0x7D0 JUMPI PUSH1 0x40 MLOAD PUSH3 0x461BCD PUSH1 0xE5 SHL DUP2 MSTORE PUSH1 0x4 ADD PUSH2 0x5F4 SWAP1 PUSH2 0x21EF JUMP JUMPDEST PUSH2 0x7D9 DUP2 PUSH2 0x14C4 JUMP JUMPDEST PUSH1 0x40 DUP1 MLOAD PUSH1 0x0 DUP1 DUP3 MSTORE PUSH1 0x20 DUP3 ADD SWAP1 SWAP3 MSTORE PUSH2 0x7F5 SWAP2 DUP4 SWAP2 SWAP1 PUSH2 0x1563 JUMP JUMPDEST POP JUMP JUMPDEST PUSH1 0x0 CALLER PUSH2 0x5C6 DUP2 DUP6 DUP6 PUSH2 0x80B DUP4 DUP4 PUSH2 0xC40 JUMP JUMPDEST PUSH2 0x815 SWAP2 SWAP1 PUSH2 0x2251 JUMP JUMPDEST PUSH2 0xF23 JUMP JUMPDEST PUSH1 0x1 PUSH1 0x1 PUSH1 0xA0 SHL SUB PUSH32 0x0 AND ADDRESS SUB PUSH2 0x862 JUMPI PUSH1 0x40 MLOAD PUSH3 0x461BCD PUSH1 0xE5 SHL DUP2 MSTORE PUSH1 0x4 ADD PUSH2 0x5F4 SWAP1 PUSH2 0x21A3 JUMP JUMPDEST PUSH32 0x0 PUSH1 0x1 PUSH1 0x1 PUSH1 0xA0 SHL SUB AND PUSH2 0x8AB PUSH1 0x0 DUP1 MLOAD PUSH1 0x20 PUSH2 0x259D DUP4 CODECOPY DUP2 MLOAD SWAP2 MSTORE SLOAD PUSH1 0x1 PUSH1 0x1 PUSH1 0xA0 SHL SUB AND SWAP1 JUMP JUMPDEST PUSH1 0x1 PUSH1 0x1 PUSH1 0xA0 SHL SUB AND EQ PUSH2 0x8D1 JUMPI PUSH1 0x40 MLOAD PUSH3 0x461BCD PUSH1 0xE5 SHL DUP2 MSTORE PUSH1 0x4 ADD PUSH2 0x5F4 SWAP1 PUSH2 0x21EF JUMP JUMPDEST PUSH2 0x8DA DUP3 PUSH2 0x14C4 JUMP JUMPDEST PUSH2 0x8E6 DUP3 DUP3 PUSH1 0x1 PUSH2 0x1563 JUMP JUMPDEST POP POP JUMP JUMPDEST PUSH1 0x0 ADDRESS PUSH1 0x1 PUSH1 0x1 PUSH1 0xA0 SHL SUB PUSH32 0x0 AND EQ PUSH2 0x98A JUMPI PUSH1 0x40 MLOAD PUSH3 0x461BCD PUSH1 0xE5 SHL DUP2 MSTORE PUSH1 0x20 PUSH1 0x4 DUP3 ADD MSTORE PUSH1 0x38 PUSH1 0x24 DUP3 ADD MSTORE PUSH32 0x555550535570677261646561626C653A206D757374206E6F742062652063616C PUSH1 0x44 DUP3 ADD MSTORE PUSH32 0x6C6564207468726F7567682064656C656761746563616C6C0000000000000000 PUSH1 0x64 DUP3 ADD MSTORE PUSH1 0x84 ADD PUSH2 0x5F4 JUMP JUMPDEST POP PUSH1 0x0 DUP1 MLOAD PUSH1 0x20 PUSH2 0x259D DUP4 CODECOPY DUP2 MLOAD SWAP2 MSTORE SWAP1 JUMP JUMPDEST PUSH1 0x60 PUSH2 0x6EE PUSH2 0xA21 JUMP JUMPDEST PUSH1 0x0 PUSH1 0x2 PUSH1 0x65 SLOAD SUB PUSH2 0x9CB JUMPI PUSH1 0x40 MLOAD PUSH3 0x461BCD PUSH1 0xE5 SHL DUP2 MSTORE PUSH1 0x4 ADD PUSH2 0x5F4 SWAP1 PUSH2 0x216C JUMP JUMPDEST PUSH1 0x2 PUSH1 0x65 SSTORE PUSH1 0x0 DUP3 SWAP1 SUB PUSH2 0x9E1 JUMPI POP PUSH1 0x0 PUSH2 0xA17 JUMP JUMPDEST PUSH1 0xCA SLOAD PUSH1 0x0 SUB PUSH2 0x9F0 JUMPI PUSH1 0x0 DUP1 REVERT JUMPDEST PUSH2 0xA02 CALLER PUSH2 0x9FD DUP5 PUSH2 0x16D3 JUMP JUMPDEST PUSH2 0x171E JUMP JUMPDEST PUSH2 0xA0B DUP3 PUSH2 0x186C JUMP JUMPDEST PUSH2 0xA13 PUSH2 0x1148 JUMP JUMPDEST POP PUSH1 0x0 JUMPDEST PUSH1 0x1 PUSH1 0x65 SSTORE SWAP2 SWAP1 POP JUMP JUMPDEST PUSH1 0x60 PUSH1 0x37 DUP1 SLOAD PUSH2 0x535 SWAP1 PUSH2 0x2132 JUMP JUMPDEST PUSH1 0x0 PUSH1 0x2 PUSH1 0x65 SLOAD SUB PUSH2 0xA54 JUMPI PUSH1 0x40 MLOAD PUSH3 0x461BCD PUSH1 0xE5 SHL DUP2 MSTORE PUSH1 0x4 ADD PUSH2 0x5F4 SWAP1 PUSH2 0x216C JUMP JUMPDEST PUSH1 0x2 PUSH1 0x65 SSTORE PUSH32 0x0 PUSH1 0x1 PUSH1 0x1 PUSH1 0xA0 SHL SUB AND PUSH2 0xA8C JUMPI PUSH1 0x0 DUP1 REVERT JUMPDEST PUSH1 0xCA SLOAD PUSH1 0x0 SUB PUSH2 0xA9B JUMPI PUSH1 0x0 DUP1 REVERT JUMPDEST DUP2 PUSH1 0x0 SUB PUSH2 0xAAB JUMPI POP PUSH1 0x0 PUSH2 0xA17 JUMP JUMPDEST PUSH2 0xAE0 PUSH1 0x1 PUSH1 0x1 PUSH1 0xA0 SHL SUB PUSH32 0x0 AND CALLER ADDRESS DUP6 PUSH2 0x18FB JUMP JUMPDEST PUSH1 0x0 PUSH2 0xAEB DUP4 PUSH2 0x1047 JUMP JUMPDEST SWAP1 POP PUSH1 0x0 DUP2 GT PUSH2 0xB29 JUMPI PUSH1 0x40 MLOAD PUSH3 0x461BCD PUSH1 0xE5 SHL DUP2 MSTORE PUSH1 0x20 PUSH1 0x4 DUP3 ADD MSTORE PUSH1 0x9 PUSH1 0x24 DUP3 ADD MSTORE PUSH9 0x4E6F20536861726573 PUSH1 0xB8 SHL PUSH1 0x44 DUP3 ADD MSTORE PUSH1 0x64 ADD PUSH2 0x5F4 JUMP JUMPDEST PUSH2 0xB33 CALLER DUP3 PUSH2 0x1069 JUMP JUMPDEST PUSH2 0xB3B PUSH2 0x1148 JUMP JUMPDEST POP POP PUSH1 0x1 PUSH1 0x65 SSTORE POP PUSH1 0x0 SWAP1 JUMP JUMPDEST PUSH1 0x0 CALLER DUP2 PUSH2 0xB56 DUP3 DUP7 PUSH2 0xC40 JUMP JUMPDEST SWAP1 POP DUP4 DUP2 LT ISZERO PUSH2 0xBB6 JUMPI PUSH1 0x40 MLOAD PUSH3 0x461BCD PUSH1 0xE5 SHL DUP2 MSTORE PUSH1 0x20 PUSH1 0x4 DUP3 ADD MSTORE PUSH1 0x25 PUSH1 0x24 DUP3 ADD MSTORE PUSH32 0x45524332303A2064656372656173656420616C6C6F77616E63652062656C6F77 PUSH1 0x44 DUP3 ADD MSTORE PUSH5 0x207A65726F PUSH1 0xD8 SHL PUSH1 0x64 DUP3 ADD MSTORE PUSH1 0x84 ADD PUSH2 0x5F4 JUMP JUMPDEST PUSH2 0xBC3 DUP3 DUP7 DUP7 DUP5 SUB PUSH2 0xF23 JUMP JUMPDEST POP PUSH1 0x1 SWAP5 SWAP4 POP POP POP POP JUMP JUMPDEST PUSH1 0x0 CALLER PUSH2 0x5C6 DUP2 DUP6 DUP6 PUSH2 0x12F6 JUMP JUMPDEST PUSH1 0x0 PUSH1 0x2 PUSH1 0x65 SLOAD SUB PUSH2 0xC00 JUMPI PUSH1 0x40 MLOAD PUSH3 0x461BCD PUSH1 0xE5 SHL DUP2 MSTORE PUSH1 0x4 ADD PUSH2 0x5F4 SWAP1 PUSH2 0x216C JUMP JUMPDEST PUSH1 0x2 PUSH1 0x65 SSTORE PUSH1 0x0 DUP3 SWAP1 SUB PUSH2 0xC16 JUMPI POP PUSH1 0x0 PUSH2 0xA17 JUMP JUMPDEST PUSH1 0xCA SLOAD PUSH1 0x0 SUB PUSH2 0xC25 JUMPI PUSH1 0x0 DUP1 REVERT JUMPDEST PUSH2 0xC2F CALLER DUP4 PUSH2 0x171E JUMP JUMPDEST PUSH2 0xA0B PUSH2 0xC3B DUP4 PUSH2 0x1966 JUMP JUMPDEST PUSH2 0x186C JUMP JUMPDEST PUSH1 0x1 PUSH1 0x1 PUSH1 0xA0 SHL SUB SWAP2 DUP3 AND PUSH1 0x0 SWAP1 DUP2 MSTORE PUSH1 0x34 PUSH1 0x20 SWAP1 DUP2 MSTORE PUSH1 0x40 DUP1 DUP4 KECCAK256 SWAP4 SWAP1 SWAP5 AND DUP3 MSTORE SWAP2 SWAP1 SWAP2 MSTORE KECCAK256 SLOAD SWAP1 JUMP JUMPDEST PUSH1 0x0 PUSH2 0xC77 PUSH1 0x1 PUSH2 0x197F JUMP JUMPDEST SWAP1 POP DUP1 ISZERO PUSH2 0xC8F JUMPI PUSH1 0x0 DUP1 SLOAD PUSH2 0xFF00 NOT AND PUSH2 0x100 OR SWAP1 SSTORE JUMPDEST CALLER PUSH1 0x1 PUSH1 0x1 PUSH1 0xA0 SHL SUB PUSH32 0x0 AND EQ PUSH2 0xCC4 JUMPI PUSH1 0x0 DUP1 REVERT JUMPDEST PUSH1 0x0 PUSH32 0x0 PUSH1 0x1 PUSH1 0x1 PUSH1 0xA0 SHL SUB AND ISZERO PUSH2 0xD80 JUMPI PUSH32 0x0 PUSH1 0x1 PUSH1 0x1 PUSH1 0xA0 SHL SUB AND PUSH4 0x6FDDE03 PUSH1 0x40 MLOAD DUP2 PUSH4 0xFFFFFFFF AND PUSH1 0xE0 SHL DUP2 MSTORE PUSH1 0x4 ADD PUSH1 0x0 PUSH1 0x40 MLOAD DUP1 DUP4 SUB DUP2 DUP7 GAS STATICCALL ISZERO DUP1 ISZERO PUSH2 0xD53 JUMPI RETURNDATASIZE PUSH1 0x0 DUP1 RETURNDATACOPY RETURNDATASIZE PUSH1 0x0 REVERT JUMPDEST POP POP POP POP PUSH1 0x40 MLOAD RETURNDATASIZE PUSH1 0x0 DUP3 RETURNDATACOPY PUSH1 0x1F RETURNDATASIZE SWAP1 DUP2 ADD PUSH1 0x1F NOT AND DUP3 ADD PUSH1 0x40 MSTORE PUSH2 0xD7B SWAP2 SWAP1 DUP2 ADD SWAP1 PUSH2 0x2264 JUMP JUMPDEST PUSH2 0xD9F JUMP JUMPDEST PUSH1 0x40 MLOAD DUP1 PUSH1 0x40 ADD PUSH1 0x40 MSTORE DUP1 PUSH1 0x5 DUP2 MSTORE PUSH1 0x20 ADD PUSH5 0x22BA3432B9 PUSH1 0xD9 SHL DUP2 MSTORE POP JUMPDEST SWAP1 POP PUSH1 0x0 PUSH32 0x0 PUSH1 0x1 PUSH1 0x1 PUSH1 0xA0 SHL SUB AND ISZERO PUSH2 0xE5D JUMPI PUSH32 0x0 PUSH1 0x1 PUSH1 0x1 PUSH1 0xA0 SHL SUB AND PUSH4 0x95D89B41 PUSH1 0x40 MLOAD DUP2 PUSH4 0xFFFFFFFF AND PUSH1 0xE0 SHL DUP2 MSTORE PUSH1 0x4 ADD PUSH1 0x0 PUSH1 0x40 MLOAD DUP1 DUP4 SUB DUP2 DUP7 GAS STATICCALL ISZERO DUP1 ISZERO PUSH2 0xE30 JUMPI RETURNDATASIZE PUSH1 0x0 DUP1 RETURNDATACOPY RETURNDATASIZE PUSH1 0x0 REVERT JUMPDEST POP POP POP POP PUSH1 0x40 MLOAD RETURNDATASIZE PUSH1 0x0 DUP3 RETURNDATACOPY PUSH1 0x1F RETURNDATASIZE SWAP1 DUP2 ADD PUSH1 0x1F NOT AND DUP3 ADD PUSH1 0x40 MSTORE PUSH2 0xE58 SWAP2 SWAP1 DUP2 ADD SWAP1 PUSH2 0x2264 JUMP JUMPDEST PUSH2 0xE7A JUMP JUMPDEST PUSH1 0x40 MLOAD DUP1 PUSH1 0x40 ADD PUSH1 0x40 MSTORE DUP1 PUSH1 0x3 DUP2 MSTORE PUSH1 0x20 ADD PUSH3 0x8AA89 PUSH1 0xEB SHL DUP2 MSTORE POP JUMPDEST SWAP1 POP PUSH2 0xEC4 DUP3 PUSH1 0x40 MLOAD PUSH1 0x20 ADD PUSH2 0xE90 SWAP2 SWAP1 PUSH2 0x22D2 JUMP JUMPDEST PUSH1 0x40 MLOAD PUSH1 0x20 DUP2 DUP4 SUB SUB DUP2 MSTORE SWAP1 PUSH1 0x40 MSTORE DUP3 PUSH1 0x40 MLOAD PUSH1 0x20 ADD PUSH2 0xEB0 SWAP2 SWAP1 PUSH2 0x230B JUMP JUMPDEST PUSH1 0x40 MLOAD PUSH1 0x20 DUP2 DUP4 SUB SUB DUP2 MSTORE SWAP1 PUSH1 0x40 MSTORE PUSH2 0x19FF JUMP JUMPDEST POP POP PUSH1 0xCA DUP3 SWAP1 SSTORE DUP1 ISZERO PUSH2 0x8E6 JUMPI PUSH1 0x0 DUP1 SLOAD PUSH2 0xFF00 NOT AND SWAP1 SSTORE PUSH1 0x40 MLOAD PUSH1 0x1 DUP2 MSTORE PUSH32 0x7F26B83FF96E1F2B6A682F133852F6798A09C465DA95921460CEFB3847402498 SWAP1 PUSH1 0x20 ADD PUSH1 0x40 MLOAD DUP1 SWAP2 SUB SWAP1 LOG1 POP POP JUMP JUMPDEST PUSH1 0x1 PUSH1 0x1 PUSH1 0xA0 SHL SUB AND EXTCODESIZE ISZERO ISZERO SWAP1 JUMP JUMPDEST PUSH1 0x1 PUSH1 0x1 PUSH1 0xA0 SHL SUB DUP4 AND PUSH2 0xF85 JUMPI PUSH1 0x40 MLOAD PUSH3 0x461BCD PUSH1 0xE5 SHL DUP2 MSTORE PUSH1 0x20 PUSH1 0x4 DUP3 ADD MSTORE PUSH1 0x24 DUP1 DUP3 ADD MSTORE PUSH32 0x45524332303A20617070726F76652066726F6D20746865207A65726F20616464 PUSH1 0x44 DUP3 ADD MSTORE PUSH4 0x72657373 PUSH1 0xE0 SHL PUSH1 0x64 DUP3 ADD MSTORE PUSH1 0x84 ADD PUSH2 0x5F4 JUMP JUMPDEST PUSH1 0x1 PUSH1 0x1 PUSH1 0xA0 SHL SUB DUP3 AND PUSH2 0xFE6 JUMPI PUSH1 0x40 MLOAD PUSH3 0x461BCD PUSH1 0xE5 SHL DUP2 MSTORE PUSH1 0x20 PUSH1 0x4 DUP3 ADD MSTORE PUSH1 0x22 PUSH1 0x24 DUP3 ADD MSTORE PUSH32 0x45524332303A20617070726F766520746F20746865207A65726F206164647265 PUSH1 0x44 DUP3 ADD MSTORE PUSH2 0x7373 PUSH1 0xF0 SHL PUSH1 0x64 DUP3 ADD MSTORE PUSH1 0x84 ADD PUSH2 0x5F4 JUMP JUMPDEST PUSH1 0x1 PUSH1 0x1 PUSH1 0xA0 SHL SUB DUP4 DUP2 AND PUSH1 0x0 DUP2 DUP2 MSTORE PUSH1 0x34 PUSH1 0x20 SWAP1 DUP2 MSTORE PUSH1 0x40 DUP1 DUP4 KECCAK256 SWAP5 DUP8 AND DUP1 DUP5 MSTORE SWAP5 DUP3 MSTORE SWAP2 DUP3 SWAP1 KECCAK256 DUP6 SWAP1 SSTORE SWAP1 MLOAD DUP5 DUP2 MSTORE PUSH32 0x8C5BE1E5EBEC7D5BD14F71427D1E84F3DD0314C0F7B2291E5B200AC8C7C3B925 SWAP2 ADD PUSH1 0x40 MLOAD DUP1 SWAP2 SUB SWAP1 LOG3 POP POP POP JUMP JUMPDEST PUSH1 0xCA SLOAD PUSH1 0x0 SWAP1 PUSH2 0x105F PUSH8 0xDE0B6B3A7640000 DUP5 PUSH2 0x2335 JUMP JUMPDEST PUSH2 0x5CC SWAP2 SWAP1 PUSH2 0x234C JUMP JUMPDEST PUSH1 0x1 PUSH1 0x1 PUSH1 0xA0 SHL SUB DUP3 AND PUSH2 0x10BF JUMPI PUSH1 0x40 MLOAD PUSH3 0x461BCD PUSH1 0xE5 SHL DUP2 MSTORE PUSH1 0x20 PUSH1 0x4 DUP3 ADD MSTORE PUSH1 0x1F PUSH1 0x24 DUP3 ADD MSTORE PUSH32 0x45524332303A206D696E7420746F20746865207A65726F206164647265737300 PUSH1 0x44 DUP3 ADD MSTORE PUSH1 0x64 ADD PUSH2 0x5F4 JUMP JUMPDEST DUP1 PUSH1 0x35 PUSH1 0x0 DUP3 DUP3 SLOAD PUSH2 0x10D1 SWAP2 SWAP1 PUSH2 0x2251 JUMP JUMPDEST SWAP1 SWAP2 SSTORE POP POP PUSH1 0x1 PUSH1 0x1 PUSH1 0xA0 SHL SUB DUP3 AND PUSH1 0x0 SWAP1 DUP2 MSTORE PUSH1 0x33 PUSH1 0x20 MSTORE PUSH1 0x40 DUP2 KECCAK256 DUP1 SLOAD DUP4 SWAP3 SWAP1 PUSH2 0x10FE SWAP1 DUP5 SWAP1 PUSH2 0x2251 JUMP JUMPDEST SWAP1 SWAP2 SSTORE POP POP PUSH1 0x40 MLOAD DUP2 DUP2 MSTORE PUSH1 0x1 PUSH1 0x1 PUSH1 0xA0 SHL SUB DUP4 AND SWAP1 PUSH1 0x0 SWAP1 PUSH32 0xDDF252AD1BE2C89B69C2B068FC378DAA952BA7F163C4A11628F55A4DF523B3EF SWAP1 PUSH1 0x20 ADD PUSH1 0x40 MLOAD DUP1 SWAP2 SUB SWAP1 LOG3 POP POP JUMP JUMPDEST PUSH1 0x0 PUSH2 0x115B PUSH2 0x1156 PUSH1 0x35 SLOAD SWAP1 JUMP JUMPDEST PUSH2 0x1966 JUMP JUMPDEST SWAP1 POP PUSH1 0x0 PUSH32 0x0 PUSH1 0x1 PUSH1 0x1 PUSH1 0xA0 SHL SUB AND ISZERO PUSH2 0x121B JUMPI PUSH1 0x40 MLOAD PUSH4 0x70A08231 PUSH1 0xE0 SHL DUP2 MSTORE ADDRESS PUSH1 0x4 DUP3 ADD MSTORE PUSH32 0x0 PUSH1 0x1 PUSH1 0x1 PUSH1 0xA0 SHL SUB AND SWAP1 PUSH4 0x70A08231 SWAP1 PUSH1 0x24 ADD PUSH1 0x20 PUSH1 0x40 MLOAD DUP1 DUP4 SUB DUP2 DUP7 GAS STATICCALL ISZERO DUP1 ISZERO PUSH2 0x11F2 JUMPI RETURNDATASIZE PUSH1 0x0 DUP1 RETURNDATACOPY RETURNDATASIZE PUSH1 0x0 REVERT JUMPDEST POP POP POP POP PUSH1 0x40 MLOAD RETURNDATASIZE PUSH1 0x1F NOT PUSH1 0x1F DUP3 ADD AND DUP3 ADD DUP1 PUSH1 0x40 MSTORE POP DUP2 ADD SWAP1 PUSH2 0x1216 SWAP2 SWAP1 PUSH2 0x236E JUMP JUMPDEST PUSH2 0x121D JUMP JUMPDEST SELFBALANCE JUMPDEST SWAP1 POP DUP1 DUP3 GT ISZERO PUSH2 0x8E6 JUMPI PUSH1 0x40 MLOAD PUSH3 0x461BCD PUSH1 0xE5 SHL DUP2 MSTORE PUSH1 0x20 PUSH1 0x4 DUP3 ADD MSTORE PUSH1 0x10 PUSH1 0x24 DUP3 ADD MSTORE PUSH16 0x125B9D985C9A585B9D0811985A5B1959 PUSH1 0x82 SHL PUSH1 0x44 DUP3 ADD MSTORE PUSH1 0x64 ADD PUSH2 0x5F4 JUMP JUMPDEST PUSH1 0x0 PUSH1 0x1 PUSH1 0x1 PUSH1 0xFF SHL SUB DUP3 GT ISZERO PUSH2 0x1278 JUMPI PUSH1 0x0 DUP1 REVERT JUMPDEST POP SWAP1 JUMP JUMPDEST PUSH1 0x0 PUSH2 0x1288 DUP5 DUP5 PUSH2 0xC40 JUMP JUMPDEST SWAP1 POP PUSH1 0x0 NOT DUP2 EQ PUSH2 0x12F0 JUMPI DUP2 DUP2 LT ISZERO PUSH2 0x12E3 JUMPI PUSH1 0x40 MLOAD PUSH3 0x461BCD PUSH1 0xE5 SHL DUP2 MSTORE PUSH1 0x20 PUSH1 0x4 DUP3 ADD MSTORE PUSH1 0x1D PUSH1 0x24 DUP3 ADD MSTORE PUSH32 0x45524332303A20696E73756666696369656E7420616C6C6F77616E6365000000 PUSH1 0x44 DUP3 ADD MSTORE PUSH1 0x64 ADD PUSH2 0x5F4 JUMP JUMPDEST PUSH2 0x12F0 DUP5 DUP5 DUP5 DUP5 SUB PUSH2 0xF23 JUMP JUMPDEST POP POP POP POP JUMP JUMPDEST PUSH1 0x1 PUSH1 0x1 PUSH1 0xA0 SHL SUB DUP4 AND PUSH2 0x135A JUMPI PUSH1 0x40 MLOAD PUSH3 0x461BCD PUSH1 0xE5 SHL DUP2 MSTORE PUSH1 0x20 PUSH1 0x4 DUP3 ADD MSTORE PUSH1 0x25 PUSH1 0x24 DUP3 ADD MSTORE PUSH32 0x45524332303A207472616E736665722066726F6D20746865207A65726F206164 PUSH1 0x44 DUP3 ADD MSTORE PUSH5 0x6472657373 PUSH1 0xD8 SHL PUSH1 0x64 DUP3 ADD MSTORE PUSH1 0x84 ADD PUSH2 0x5F4 JUMP JUMPDEST PUSH1 0x1 PUSH1 0x1 PUSH1 0xA0 SHL SUB DUP3 AND PUSH2 0x13BC JUMPI PUSH1 0x40 MLOAD PUSH3 0x461BCD PUSH1 0xE5 SHL DUP2 MSTORE PUSH1 0x20 PUSH1 0x4 DUP3 ADD MSTORE PUSH1 0x23 PUSH1 0x24 DUP3 ADD MSTORE PUSH32 0x45524332303A207472616E7366657220746F20746865207A65726F2061646472 PUSH1 0x44 DUP3 ADD MSTORE PUSH3 0x657373 PUSH1 0xE8 SHL PUSH1 0x64 DUP3 ADD MSTORE PUSH1 0x84 ADD PUSH2 0x5F4 JUMP JUMPDEST PUSH1 0x1 PUSH1 0x1 PUSH1 0xA0 SHL SUB DUP4 AND PUSH1 0x0 SWAP1 DUP2 MSTORE PUSH1 0x33 PUSH1 0x20 MSTORE PUSH1 0x40 SWAP1 KECCAK256 SLOAD DUP2 DUP2 LT ISZERO PUSH2 0x1434 JUMPI PUSH1 0x40 MLOAD PUSH3 0x461BCD PUSH1 0xE5 SHL DUP2 MSTORE PUSH1 0x20 PUSH1 0x4 DUP3 ADD MSTORE PUSH1 0x26 PUSH1 0x24 DUP3 ADD MSTORE PUSH32 0x45524332303A207472616E7366657220616D6F756E7420657863656564732062 PUSH1 0x44 DUP3 ADD MSTORE PUSH6 0x616C616E6365 PUSH1 0xD0 SHL PUSH1 0x64 DUP3 ADD MSTORE PUSH1 0x84 ADD PUSH2 0x5F4 JUMP JUMPDEST PUSH1 0x1 PUSH1 0x1 PUSH1 0xA0 SHL SUB DUP1 DUP6 AND PUSH1 0x0 SWAP1 DUP2 MSTORE PUSH1 0x33 PUSH1 0x20 MSTORE PUSH1 0x40 DUP1 DUP3 KECCAK256 DUP6 DUP6 SUB SWAP1 SSTORE SWAP2 DUP6 AND DUP2 MSTORE SWAP1 DUP2 KECCAK256 DUP1 SLOAD DUP5 SWAP3 SWAP1 PUSH2 0x146B SWAP1 DUP5 SWAP1 PUSH2 0x2251 JUMP JUMPDEST SWAP3 POP POP DUP2 SWAP1 SSTORE POP DUP3 PUSH1 0x1 PUSH1 0x1 PUSH1 0xA0 SHL SUB AND DUP5 PUSH1 0x1 PUSH1 0x1 PUSH1 0xA0 SHL SUB AND PUSH32 0xDDF252AD1BE2C89B69C2B068FC378DAA952BA7F163C4A11628F55A4DF523B3EF DUP5 PUSH1 0x40 MLOAD PUSH2 0x14B7 SWAP2 DUP2 MSTORE PUSH1 0x20 ADD SWAP1 JUMP JUMPDEST PUSH1 0x40 MLOAD DUP1 SWAP2 SUB SWAP1 LOG3 PUSH2 0x12F0 JUMP JUMPDEST PUSH32 0x0 PUSH1 0x1 PUSH1 0x1 PUSH1 0xA0 SHL SUB AND PUSH4 0x8DA5CB5B PUSH1 0x40 MLOAD DUP2 PUSH4 0xFFFFFFFF AND PUSH1 0xE0 SHL DUP2 MSTORE PUSH1 0x4 ADD PUSH1 0x20 PUSH1 0x40 MLOAD DUP1 DUP4 SUB DUP2 DUP7 GAS STATICCALL ISZERO DUP1 ISZERO PUSH2 0x1522 JUMPI RETURNDATASIZE PUSH1 0x0 DUP1 RETURNDATACOPY RETURNDATASIZE PUSH1 0x0 REVERT JUMPDEST POP POP POP POP PUSH1 0x40 MLOAD RETURNDATASIZE PUSH1 0x1F NOT PUSH1 0x1F DUP3 ADD AND DUP3 ADD DUP1 PUSH1 0x40 MSTORE POP DUP2 ADD SWAP1 PUSH2 0x1546 SWAP2 SWAP1 PUSH2 0x2387 JUMP JUMPDEST PUSH1 0x1 PUSH1 0x1 PUSH1 0xA0 SHL SUB AND CALLER PUSH1 0x1 PUSH1 0x1 PUSH1 0xA0 SHL SUB AND EQ PUSH2 0x7F5 JUMPI PUSH1 0x0 DUP1 REVERT JUMPDEST PUSH32 0x4910FDFA16FED3260ED0E7147F7CC6DA11A60208B5B9406D12A635614FFD9143 SLOAD PUSH1 0xFF AND ISZERO PUSH2 0x159B JUMPI PUSH2 0x1596 DUP4 PUSH2 0x1A30 JUMP JUMPDEST POP POP POP JUMP JUMPDEST DUP3 PUSH1 0x1 PUSH1 0x1 PUSH1 0xA0 SHL SUB AND PUSH4 0x52D1902D PUSH1 0x40 MLOAD DUP2 PUSH4 0xFFFFFFFF AND PUSH1 0xE0 SHL DUP2 MSTORE PUSH1 0x4 ADD PUSH1 0x20 PUSH1 0x40 MLOAD DUP1 DUP4 SUB DUP2 DUP7 GAS STATICCALL SWAP3 POP POP POP DUP1 ISZERO PUSH2 0x15F5 JUMPI POP PUSH1 0x40 DUP1 MLOAD PUSH1 0x1F RETURNDATASIZE SWAP1 DUP2 ADD PUSH1 0x1F NOT AND DUP3 ADD SWAP1 SWAP3 MSTORE PUSH2 0x15F2 SWAP2 DUP2 ADD SWAP1 PUSH2 0x236E JUMP JUMPDEST PUSH1 0x1 JUMPDEST PUSH2 0x1658 JUMPI PUSH1 0x40 MLOAD PUSH3 0x461BCD PUSH1 0xE5 SHL DUP2 MSTORE PUSH1 0x20 PUSH1 0x4 DUP3 ADD MSTORE PUSH1 0x2E PUSH1 0x24 DUP3 ADD MSTORE PUSH32 0x45524331393637557067726164653A206E657720696D706C656D656E74617469 PUSH1 0x44 DUP3 ADD MSTORE PUSH14 0x6F6E206973206E6F742055555053 PUSH1 0x90 SHL PUSH1 0x64 DUP3 ADD MSTORE PUSH1 0x84 ADD PUSH2 0x5F4 JUMP JUMPDEST PUSH1 0x0 DUP1 MLOAD PUSH1 0x20 PUSH2 0x259D DUP4 CODECOPY DUP2 MLOAD SWAP2 MSTORE DUP2 EQ PUSH2 0x16C7 JUMPI PUSH1 0x40 MLOAD PUSH3 0x461BCD PUSH1 0xE5 SHL DUP2 MSTORE PUSH1 0x20 PUSH1 0x4 DUP3 ADD MSTORE PUSH1 0x29 PUSH1 0x24 DUP3 ADD MSTORE PUSH32 0x45524331393637557067726164653A20756E737570706F727465642070726F78 PUSH1 0x44 DUP3 ADD MSTORE PUSH9 0x1A58589B1955555251 PUSH1 0xBA SHL PUSH1 0x64 DUP3 ADD MSTORE PUSH1 0x84 ADD PUSH2 0x5F4 JUMP JUMPDEST POP PUSH2 0x1596 DUP4 DUP4 DUP4 PUSH2 0x1ACC JUMP JUMPDEST PUSH1 0x0 DUP2 ISZERO PUSH2 0x1716 JUMPI PUSH1 0xCA SLOAD PUSH1 0x1 PUSH2 0x16F2 PUSH8 0xDE0B6B3A7640000 DUP6 PUSH2 0x2335 JUMP JUMPDEST PUSH2 0x16FC SWAP2 SWAP1 PUSH2 0x23A4 JUMP JUMPDEST PUSH2 0x1706 SWAP2 SWAP1 PUSH2 0x234C JUMP JUMPDEST PUSH2 0x1711 SWAP1 PUSH1 0x1 PUSH2 0x2251 JUMP JUMPDEST PUSH2 0x5CC JUMP JUMPDEST PUSH1 0x0 SWAP3 SWAP2 POP POP JUMP JUMPDEST PUSH1 0x1 PUSH1 0x1 PUSH1 0xA0 SHL SUB DUP3 AND PUSH2 0x177E JUMPI PUSH1 0x40 MLOAD PUSH3 0x461BCD PUSH1 0xE5 SHL DUP2 MSTORE PUSH1 0x20 PUSH1 0x4 DUP3 ADD MSTORE PUSH1 0x21 PUSH1 0x24 DUP3 ADD MSTORE PUSH32 0x45524332303A206275726E2066726F6D20746865207A65726F20616464726573 PUSH1 0x44 DUP3 ADD MSTORE PUSH1 0x73 PUSH1 0xF8 SHL PUSH1 0x64 DUP3 ADD MSTORE PUSH1 0x84 ADD PUSH2 0x5F4 JUMP JUMPDEST PUSH1 0x1 PUSH1 0x1 PUSH1 0xA0 SHL SUB DUP3 AND PUSH1 0x0 SWAP1 DUP2 MSTORE PUSH1 0x33 PUSH1 0x20 MSTORE PUSH1 0x40 SWAP1 KECCAK256 SLOAD DUP2 DUP2 LT ISZERO PUSH2 0x17F2 JUMPI PUSH1 0x40 MLOAD PUSH3 0x461BCD PUSH1 0xE5 SHL DUP2 MSTORE PUSH1 0x20 PUSH1 0x4 DUP3 ADD MSTORE PUSH1 0x22 PUSH1 0x24 DUP3 ADD MSTORE PUSH32 0x45524332303A206275726E20616D6F756E7420657863656564732062616C616E PUSH1 0x44 DUP3 ADD MSTORE PUSH2 0x6365 PUSH1 0xF0 SHL PUSH1 0x64 DUP3 ADD MSTORE PUSH1 0x84 ADD PUSH2 0x5F4 JUMP JUMPDEST PUSH1 0x1 PUSH1 0x1 PUSH1 0xA0 SHL SUB DUP4 AND PUSH1 0x0 SWAP1 DUP2 MSTORE PUSH1 0x33 PUSH1 0x20 MSTORE PUSH1 0x40 DUP2 KECCAK256 DUP4 DUP4 SUB SWAP1 SSTORE PUSH1 0x35 DUP1 SLOAD DUP5 SWAP3 SWAP1 PUSH2 0x1821 SWAP1 DUP5 SWAP1 PUSH2 0x23A4 JUMP JUMPDEST SWAP1 SWAP2 SSTORE POP POP PUSH1 0x40 MLOAD DUP3 DUP2 MSTORE PUSH1 0x0 SWAP1 PUSH1 0x1 PUSH1 0x1 PUSH1 0xA0 SHL SUB DUP6 AND SWAP1 PUSH32 0xDDF252AD1BE2C89B69C2B068FC378DAA952BA7F163C4A11628F55A4DF523B3EF SWAP1 PUSH1 0x20 ADD PUSH1 0x40 MLOAD DUP1 SWAP2 SUB SWAP1 LOG3 POP POP POP JUMP JUMPDEST PUSH32 0x0 PUSH1 0x1 PUSH1 0x1 PUSH1 0xA0 SHL SUB AND PUSH2 0x18C7 JUMPI PUSH1 0x40 MLOAD CALLER SWAP1 DUP3 ISZERO PUSH2 0x8FC MUL SWAP1 DUP4 SWAP1 PUSH1 0x0 DUP2 DUP2 DUP2 DUP6 DUP9 DUP9 CALL SWAP4 POP POP POP POP ISZERO DUP1 ISZERO PUSH2 0x8E6 JUMPI RETURNDATASIZE PUSH1 0x0 DUP1 RETURNDATACOPY RETURNDATASIZE PUSH1 0x0 REVERT JUMPDEST PUSH2 0x7F5 PUSH1 0x1 PUSH1 0x1 PUSH1 0xA0 SHL SUB PUSH32 0x0 AND CALLER DUP4 PUSH2 0x1AF1 JUMP JUMPDEST PUSH1 0x40 MLOAD PUSH1 0x1 PUSH1 0x1 PUSH1 0xA0 SHL SUB DUP1 DUP6 AND PUSH1 0x24 DUP4 ADD MSTORE DUP4 AND PUSH1 0x44 DUP3 ADD MSTORE PUSH1 0x64 DUP2 ADD DUP3 SWAP1 MSTORE PUSH2 0x12F0 SWAP1 DUP6 SWAP1 PUSH4 0x23B872DD PUSH1 0xE0 SHL SWAP1 PUSH1 0x84 ADD JUMPDEST PUSH1 0x40 DUP1 MLOAD PUSH1 0x1F NOT DUP2 DUP5 SUB ADD DUP2 MSTORE SWAP2 SWAP1 MSTORE PUSH1 0x20 DUP2 ADD DUP1 MLOAD PUSH1 0x1 PUSH1 0x1 PUSH1 0xE0 SHL SUB AND PUSH1 0x1 PUSH1 0x1 PUSH1 0xE0 SHL SUB NOT SWAP1 SWAP4 AND SWAP3 SWAP1 SWAP3 OR SWAP1 SWAP2 MSTORE PUSH2 0x1B21 JUMP JUMPDEST PUSH1 0x0 PUSH8 0xDE0B6B3A7640000 PUSH1 0xCA SLOAD DUP4 PUSH2 0x105F SWAP2 SWAP1 PUSH2 0x2335 JUMP JUMPDEST PUSH1 0x0 DUP1 SLOAD PUSH2 0x100 SWAP1 DIV PUSH1 0xFF AND ISZERO PUSH2 0x19BE JUMPI DUP2 PUSH1 0xFF AND PUSH1 0x1 EQ DUP1 ISZERO PUSH2 0x19A2 JUMPI POP ADDRESS EXTCODESIZE ISZERO JUMPDEST PUSH2 0x1716 JUMPI PUSH1 0x40 MLOAD PUSH3 0x461BCD PUSH1 0xE5 SHL DUP2 MSTORE PUSH1 0x4 ADD PUSH2 0x5F4 SWAP1 PUSH2 0x23B7 JUMP JUMPDEST PUSH1 0x0 SLOAD PUSH1 0xFF DUP1 DUP5 AND SWAP2 AND LT PUSH2 0x19E5 JUMPI PUSH1 0x40 MLOAD PUSH3 0x461BCD PUSH1 0xE5 SHL DUP2 MSTORE PUSH1 0x4 ADD PUSH2 0x5F4 SWAP1 PUSH2 0x23B7 JUMP JUMPDEST POP PUSH1 0x0 DUP1 SLOAD PUSH1 0xFF NOT AND PUSH1 0xFF SWAP3 SWAP1 SWAP3 AND SWAP2 SWAP1 SWAP2 OR SWAP1 SSTORE PUSH1 0x1 SWAP1 JUMP JUMPDEST PUSH1 0x0 SLOAD PUSH2 0x100 SWAP1 DIV PUSH1 0xFF AND PUSH2 0x1A26 JUMPI PUSH1 0x40 MLOAD PUSH3 0x461BCD PUSH1 0xE5 SHL DUP2 MSTORE PUSH1 0x4 ADD PUSH2 0x5F4 SWAP1 PUSH2 0x2405 JUMP JUMPDEST PUSH2 0x8E6 DUP3 DUP3 PUSH2 0x1BF3 JUMP JUMPDEST PUSH1 0x1 PUSH1 0x1 PUSH1 0xA0 SHL SUB DUP2 AND EXTCODESIZE PUSH2 0x1A9D JUMPI PUSH1 0x40 MLOAD PUSH3 0x461BCD PUSH1 0xE5 SHL DUP2 MSTORE PUSH1 0x20 PUSH1 0x4 DUP3 ADD MSTORE PUSH1 0x2D PUSH1 0x24 DUP3 ADD MSTORE PUSH32 0x455243313936373A206E657720696D706C656D656E746174696F6E206973206E PUSH1 0x44 DUP3 ADD MSTORE PUSH13 0x1BDD08184818DBDB9D1C9858DD PUSH1 0x9A SHL PUSH1 0x64 DUP3 ADD MSTORE PUSH1 0x84 ADD PUSH2 0x5F4 JUMP JUMPDEST PUSH1 0x0 DUP1 MLOAD PUSH1 0x20 PUSH2 0x259D DUP4 CODECOPY DUP2 MLOAD SWAP2 MSTORE DUP1 SLOAD PUSH1 0x1 PUSH1 0x1 PUSH1 0xA0 SHL SUB NOT AND PUSH1 0x1 PUSH1 0x1 PUSH1 0xA0 SHL SUB SWAP3 SWAP1 SWAP3 AND SWAP2 SWAP1 SWAP2 OR SWAP1 SSTORE JUMP JUMPDEST PUSH2 0x1AD5 DUP4 PUSH2 0x1C33 JUMP JUMPDEST PUSH1 0x0 DUP3 MLOAD GT DUP1 PUSH2 0x1AE2 JUMPI POP DUP1 JUMPDEST ISZERO PUSH2 0x1596 JUMPI PUSH2 0x12F0 DUP4 DUP4 PUSH2 0x1C73 JUMP JUMPDEST PUSH1 0x40 MLOAD PUSH1 0x1 PUSH1 0x1 PUSH1 0xA0 SHL SUB DUP4 AND PUSH1 0x24 DUP3 ADD MSTORE PUSH1 0x44 DUP2 ADD DUP3 SWAP1 MSTORE PUSH2 0x1596 SWAP1 DUP5 SWAP1 PUSH4 0xA9059CBB PUSH1 0xE0 SHL SWAP1 PUSH1 0x64 ADD PUSH2 0x192F JUMP JUMPDEST PUSH1 0x0 PUSH2 0x1B76 DUP3 PUSH1 0x40 MLOAD DUP1 PUSH1 0x40 ADD PUSH1 0x40 MSTORE DUP1 PUSH1 0x20 DUP2 MSTORE PUSH1 0x20 ADD PUSH32 0x5361666545524332303A206C6F772D6C6576656C2063616C6C206661696C6564 DUP2 MSTORE POP DUP6 PUSH1 0x1 PUSH1 0x1 PUSH1 0xA0 SHL SUB AND PUSH2 0x1D67 SWAP1 SWAP3 SWAP2 SWAP1 PUSH4 0xFFFFFFFF AND JUMP JUMPDEST DUP1 MLOAD SWAP1 SWAP2 POP ISZERO PUSH2 0x1596 JUMPI DUP1 DUP1 PUSH1 0x20 ADD SWAP1 MLOAD DUP2 ADD SWAP1 PUSH2 0x1B94 SWAP2 SWAP1 PUSH2 0x2450 JUMP JUMPDEST PUSH2 0x1596 JUMPI PUSH1 0x40 MLOAD PUSH3 0x461BCD PUSH1 0xE5 SHL DUP2 MSTORE PUSH1 0x20 PUSH1 0x4 DUP3 ADD MSTORE PUSH1 0x2A PUSH1 0x24 DUP3 ADD MSTORE PUSH32 0x5361666545524332303A204552433230206F7065726174696F6E20646964206E PUSH1 0x44 DUP3 ADD MSTORE PUSH10 0x1BDD081CDD58D8D95959 PUSH1 0xB2 SHL PUSH1 0x64 DUP3 ADD MSTORE PUSH1 0x84 ADD PUSH2 0x5F4 JUMP JUMPDEST PUSH1 0x0 SLOAD PUSH2 0x100 SWAP1 DIV PUSH1 0xFF AND PUSH2 0x1C1A JUMPI PUSH1 0x40 MLOAD PUSH3 0x461BCD PUSH1 0xE5 SHL DUP2 MSTORE PUSH1 0x4 ADD PUSH2 0x5F4 SWAP1 PUSH2 0x2405 JUMP JUMPDEST PUSH1 0x36 PUSH2 0x1C26 DUP4 DUP3 PUSH2 0x24C0 JUMP JUMPDEST POP PUSH1 0x37 PUSH2 0x1596 DUP3 DUP3 PUSH2 0x24C0 JUMP JUMPDEST PUSH2 0x1C3C DUP2 PUSH2 0x1A30 JUMP JUMPDEST PUSH1 0x40 MLOAD PUSH1 0x1 PUSH1 0x1 PUSH1 0xA0 SHL SUB DUP3 AND SWAP1 PUSH32 0xBC7CD75A20EE27FD9ADEBAB32041F755214DBC6BFFA90CC0225B39DA2E5C2D3B SWAP1 PUSH1 0x0 SWAP1 LOG2 POP JUMP JUMPDEST PUSH1 0x60 PUSH1 0x1 PUSH1 0x1 PUSH1 0xA0 SHL SUB DUP4 AND EXTCODESIZE PUSH2 0x1CDB JUMPI PUSH1 0x40 MLOAD PUSH3 0x461BCD PUSH1 0xE5 SHL DUP2 MSTORE PUSH1 0x20 PUSH1 0x4 DUP3 ADD MSTORE PUSH1 0x26 PUSH1 0x24 DUP3 ADD MSTORE PUSH32 0x416464726573733A2064656C65676174652063616C6C20746F206E6F6E2D636F PUSH1 0x44 DUP3 ADD MSTORE PUSH6 0x1B9D1C9858DD PUSH1 0xD2 SHL PUSH1 0x64 DUP3 ADD MSTORE PUSH1 0x84 ADD PUSH2 0x5F4 JUMP JUMPDEST PUSH1 0x0 DUP1 DUP5 PUSH1 0x1 PUSH1 0x1 PUSH1 0xA0 SHL SUB AND DUP5 PUSH1 0x40 MLOAD PUSH2 0x1CF6 SWAP2 SWAP1 PUSH2 0x2580 JUMP JUMPDEST PUSH1 0x0 PUSH1 0x40 MLOAD DUP1 DUP4 SUB DUP2 DUP6 GAS DELEGATECALL SWAP2 POP POP RETURNDATASIZE DUP1 PUSH1 0x0 DUP2 EQ PUSH2 0x1D31 JUMPI PUSH1 0x40 MLOAD SWAP2 POP PUSH1 0x1F NOT PUSH1 0x3F RETURNDATASIZE ADD AND DUP3 ADD PUSH1 0x40 MSTORE RETURNDATASIZE DUP3 MSTORE RETURNDATASIZE PUSH1 0x0 PUSH1 0x20 DUP5 ADD RETURNDATACOPY PUSH2 0x1D36 JUMP JUMPDEST PUSH1 0x60 SWAP2 POP JUMPDEST POP SWAP2 POP SWAP2 POP PUSH2 0x1D5E DUP3 DUP3 PUSH1 0x40 MLOAD DUP1 PUSH1 0x60 ADD PUSH1 0x40 MSTORE DUP1 PUSH1 0x27 DUP2 MSTORE PUSH1 0x20 ADD PUSH2 0x25BD PUSH1 0x27 SWAP2 CODECOPY PUSH2 0x1D7E JUMP JUMPDEST SWAP6 SWAP5 POP POP POP POP POP JUMP JUMPDEST PUSH1 0x60 PUSH2 0x1D76 DUP5 DUP5 PUSH1 0x0 DUP6 PUSH2 0x1DB7 JUMP JUMPDEST SWAP5 SWAP4 POP POP POP POP JUMP JUMPDEST PUSH1 0x60 DUP4 ISZERO PUSH2 0x1D8D JUMPI POP DUP2 PUSH2 0x712 JUMP JUMPDEST DUP3 MLOAD ISZERO PUSH2 0x1D9D JUMPI DUP3 MLOAD DUP1 DUP5 PUSH1 0x20 ADD REVERT JUMPDEST DUP2 PUSH1 0x40 MLOAD PUSH3 0x461BCD PUSH1 0xE5 SHL DUP2 MSTORE PUSH1 0x4 ADD PUSH2 0x5F4 SWAP2 SWAP1 PUSH2 0x1F0C JUMP JUMPDEST PUSH1 0x60 DUP3 SELFBALANCE LT ISZERO PUSH2 0x1E18 JUMPI PUSH1 0x40 MLOAD PUSH3 0x461BCD PUSH1 0xE5 SHL DUP2 MSTORE PUSH1 0x20 PUSH1 0x4 DUP3 ADD MSTORE PUSH1 0x26 PUSH1 0x24 DUP3 ADD MSTORE PUSH32 0x416464726573733A20696E73756666696369656E742062616C616E636520666F PUSH1 0x44 DUP3 ADD MSTORE PUSH6 0x1C8818D85B1B PUSH1 0xD2 SHL PUSH1 0x64 DUP3 ADD MSTORE PUSH1 0x84 ADD PUSH2 0x5F4 JUMP JUMPDEST PUSH1 0x1 PUSH1 0x1 PUSH1 0xA0 SHL SUB DUP6 AND EXTCODESIZE PUSH2 0x1E6F JUMPI PUSH1 0x40 MLOAD PUSH3 0x461BCD PUSH1 0xE5 SHL DUP2 MSTORE PUSH1 0x20 PUSH1 0x4 DUP3 ADD MSTORE PUSH1 0x1D PUSH1 0x24 DUP3 ADD MSTORE PUSH32 0x416464726573733A2063616C6C20746F206E6F6E2D636F6E7472616374000000 PUSH1 0x44 DUP3 ADD MSTORE PUSH1 0x64 ADD PUSH2 0x5F4 JUMP JUMPDEST PUSH1 0x0 DUP1 DUP7 PUSH1 0x1 PUSH1 0x1 PUSH1 0xA0 SHL SUB AND DUP6 DUP8 PUSH1 0x40 MLOAD PUSH2 0x1E8B SWAP2 SWAP1 PUSH2 0x2580 JUMP JUMPDEST PUSH1 0x0 PUSH1 0x40 MLOAD DUP1 DUP4 SUB DUP2 DUP6 DUP8 GAS CALL SWAP3 POP POP POP RETURNDATASIZE DUP1 PUSH1 0x0 DUP2 EQ PUSH2 0x1EC8 JUMPI PUSH1 0x40 MLOAD SWAP2 POP PUSH1 0x1F NOT PUSH1 0x3F RETURNDATASIZE ADD AND DUP3 ADD PUSH1 0x40 MSTORE RETURNDATASIZE DUP3 MSTORE RETURNDATASIZE PUSH1 0x0 PUSH1 0x20 DUP5 ADD RETURNDATACOPY PUSH2 0x1ECD JUMP JUMPDEST PUSH1 0x60 SWAP2 POP JUMPDEST POP SWAP2 POP SWAP2 POP PUSH2 0x1EDD DUP3 DUP3 DUP7 PUSH2 0x1D7E JUMP JUMPDEST SWAP8 SWAP7 POP POP POP POP POP POP POP JUMP JUMPDEST PUSH1 0x0 JUMPDEST DUP4 DUP2 LT ISZERO PUSH2 0x1F03 JUMPI DUP2 DUP2 ADD MLOAD DUP4 DUP3 ADD MSTORE PUSH1 0x20 ADD PUSH2 0x1EEB JUMP JUMPDEST POP POP PUSH1 0x0 SWAP2 ADD MSTORE JUMP JUMPDEST PUSH1 0x20 DUP2 MSTORE PUSH1 0x0 DUP3 MLOAD DUP1 PUSH1 0x20 DUP5 ADD MSTORE PUSH2 0x1F2B DUP2 PUSH1 0x40 DUP6 ADD PUSH1 0x20 DUP8 ADD PUSH2 0x1EE8 JUMP JUMPDEST PUSH1 0x1F ADD PUSH1 0x1F NOT AND SWAP2 SWAP1 SWAP2 ADD PUSH1 0x40 ADD SWAP3 SWAP2 POP POP JUMP JUMPDEST PUSH1 0x1 PUSH1 0x1 PUSH1 0xA0 SHL SUB DUP2 AND DUP2 EQ PUSH2 0x7F5 JUMPI PUSH1 0x0 DUP1 REVERT JUMPDEST PUSH1 0x0 DUP1 PUSH1 0x40 DUP4 DUP6 SUB SLT ISZERO PUSH2 0x1F67 JUMPI PUSH1 0x0 DUP1 REVERT JUMPDEST DUP3 CALLDATALOAD PUSH2 0x1F72 DUP2 PUSH2 0x1F3F JUMP JUMPDEST SWAP5 PUSH1 0x20 SWAP4 SWAP1 SWAP4 ADD CALLDATALOAD SWAP4 POP POP POP JUMP JUMPDEST PUSH1 0x0 DUP1 PUSH1 0x0 PUSH1 0x60 DUP5 DUP7 SUB SLT ISZERO PUSH2 0x1F95 JUMPI PUSH1 0x0 DUP1 REVERT JUMPDEST DUP4 CALLDATALOAD PUSH2 0x1FA0 DUP2 PUSH2 0x1F3F JUMP JUMPDEST SWAP3 POP PUSH1 0x20 DUP5 ADD CALLDATALOAD PUSH2 0x1FB0 DUP2 PUSH2 0x1F3F JUMP JUMPDEST SWAP3 SWAP6 SWAP3 SWAP5 POP POP POP PUSH1 0x40 SWAP2 SWAP1 SWAP2 ADD CALLDATALOAD SWAP1 JUMP JUMPDEST PUSH1 0x0 PUSH1 0x20 DUP3 DUP5 SUB SLT ISZERO PUSH2 0x1FD3 JUMPI PUSH1 0x0 DUP1 REVERT JUMPDEST DUP2 CALLDATALOAD PUSH2 0x712 DUP2 PUSH2 0x1F3F JUMP JUMPDEST PUSH4 0x4E487B71 PUSH1 0xE0 SHL PUSH1 0x0 MSTORE PUSH1 0x41 PUSH1 0x4 MSTORE PUSH1 0x24 PUSH1 0x0 REVERT JUMPDEST PUSH1 0x40 MLOAD PUSH1 0x1F DUP3 ADD PUSH1 0x1F NOT AND DUP2 ADD PUSH8 0xFFFFFFFFFFFFFFFF DUP2 GT DUP3 DUP3 LT OR ISZERO PUSH2 0x201D JUMPI PUSH2 0x201D PUSH2 0x1FDE JUMP JUMPDEST PUSH1 0x40 MSTORE SWAP2 SWAP1 POP JUMP JUMPDEST PUSH1 0x0 PUSH8 0xFFFFFFFFFFFFFFFF DUP3 GT ISZERO PUSH2 0x203F JUMPI PUSH2 0x203F PUSH2 0x1FDE JUMP JUMPDEST POP PUSH1 0x1F ADD PUSH1 0x1F NOT AND PUSH1 0x20 ADD SWAP1 JUMP JUMPDEST PUSH1 0x0 DUP1 PUSH1 0x40 DUP4 DUP6 SUB SLT ISZERO PUSH2 0x2060 JUMPI PUSH1 0x0 DUP1 REVERT JUMPDEST DUP3 CALLDATALOAD PUSH2 0x206B DUP2 PUSH2 0x1F3F JUMP JUMPDEST SWAP2 POP PUSH1 0x20 DUP4 ADD CALLDATALOAD PUSH8 0xFFFFFFFFFFFFFFFF DUP2 GT ISZERO PUSH2 0x2087 JUMPI PUSH1 0x0 DUP1 REVERT JUMPDEST DUP4 ADD PUSH1 0x1F DUP2 ADD DUP6 SGT PUSH2 0x2098 JUMPI PUSH1 0x0 DUP1 REVERT JUMPDEST DUP1 CALLDATALOAD PUSH2 0x20AB PUSH2 0x20A6 DUP3 PUSH2 0x2025 JUMP JUMPDEST PUSH2 0x1FF4 JUMP JUMPDEST DUP2 DUP2 MSTORE DUP7 PUSH1 0x20 DUP4 DUP6 ADD ADD GT ISZERO PUSH2 0x20C0 JUMPI PUSH1 0x0 DUP1 REVERT JUMPDEST DUP2 PUSH1 0x20 DUP5 ADD PUSH1 0x20 DUP4 ADD CALLDATACOPY PUSH1 0x0 PUSH1 0x20 DUP4 DUP4 ADD ADD MSTORE DUP1 SWAP4 POP POP POP POP SWAP3 POP SWAP3 SWAP1 POP JUMP JUMPDEST PUSH1 0x0 PUSH1 0x20 DUP3 DUP5 SUB SLT ISZERO PUSH2 0x20F2 JUMPI PUSH1 0x0 DUP1 REVERT JUMPDEST POP CALLDATALOAD SWAP2 SWAP1 POP JUMP JUMPDEST PUSH1 0x0 DUP1 PUSH1 0x40 DUP4 DUP6 SUB SLT ISZERO PUSH2 0x210C JUMPI PUSH1 0x0 DUP1 REVERT JUMPDEST DUP3 CALLDATALOAD PUSH2 0x2117 DUP2 PUSH2 0x1F3F JUMP JUMPDEST SWAP2 POP PUSH1 0x20 DUP4 ADD CALLDATALOAD PUSH2 0x2127 DUP2 PUSH2 0x1F3F JUMP JUMPDEST DUP1 SWAP2 POP POP SWAP3 POP SWAP3 SWAP1 POP JUMP JUMPDEST PUSH1 0x1 DUP2 DUP2 SHR SWAP1 DUP3 AND DUP1 PUSH2 0x2146 JUMPI PUSH1 0x7F DUP3 AND SWAP2 POP JUMPDEST PUSH1 0x20 DUP3 LT DUP2 SUB PUSH2 0x2166 JUMPI PUSH4 0x4E487B71 PUSH1 0xE0 SHL PUSH1 0x0 MSTORE PUSH1 0x22 PUSH1 0x4 MSTORE PUSH1 0x24 PUSH1 0x0 REVERT JUMPDEST POP SWAP2 SWAP1 POP JUMP JUMPDEST PUSH1 0x20 DUP1 DUP3 MSTORE PUSH1 0x1F SWAP1 DUP3 ADD MSTORE PUSH32 0x5265656E7472616E637947756172643A207265656E7472616E742063616C6C00 PUSH1 0x40 DUP3 ADD MSTORE PUSH1 0x60 ADD SWAP1 JUMP JUMPDEST PUSH1 0x20 DUP1 DUP3 MSTORE PUSH1 0x2C SWAP1 DUP3 ADD MSTORE PUSH32 0x46756E6374696F6E206D7573742062652063616C6C6564207468726F75676820 PUSH1 0x40 DUP3 ADD MSTORE PUSH12 0x19195B1959D85D1958D85B1B PUSH1 0xA2 SHL PUSH1 0x60 DUP3 ADD MSTORE PUSH1 0x80 ADD SWAP1 JUMP JUMPDEST PUSH1 0x20 DUP1 DUP3 MSTORE PUSH1 0x2C SWAP1 DUP3 ADD MSTORE PUSH32 0x46756E6374696F6E206D7573742062652063616C6C6564207468726F75676820 PUSH1 0x40 DUP3 ADD MSTORE PUSH12 0x6163746976652070726F7879 PUSH1 0xA0 SHL PUSH1 0x60 DUP3 ADD MSTORE PUSH1 0x80 ADD SWAP1 JUMP JUMPDEST PUSH4 0x4E487B71 PUSH1 0xE0 SHL PUSH1 0x0 MSTORE PUSH1 0x11 PUSH1 0x4 MSTORE PUSH1 0x24 PUSH1 0x0 REVERT JUMPDEST DUP1 DUP3 ADD DUP1 DUP3 GT ISZERO PUSH2 0x5CC JUMPI PUSH2 0x5CC PUSH2 0x223B JUMP JUMPDEST PUSH1 0x0 PUSH1 0x20 DUP3 DUP5 SUB SLT ISZERO PUSH2 0x2276 JUMPI PUSH1 0x0 DUP1 REVERT JUMPDEST DUP2 MLOAD PUSH8 0xFFFFFFFFFFFFFFFF DUP2 GT ISZERO PUSH2 0x228D JUMPI PUSH1 0x0 DUP1 REVERT JUMPDEST DUP3 ADD PUSH1 0x1F DUP2 ADD DUP5 SGT PUSH2 0x229E JUMPI PUSH1 0x0 DUP1 REVERT JUMPDEST DUP1 MLOAD PUSH2 0x22AC PUSH2 0x20A6 DUP3 PUSH2 0x2025 JUMP JUMPDEST DUP2 DUP2 MSTORE DUP6 PUSH1 0x20 DUP4 DUP6 ADD ADD GT ISZERO PUSH2 0x22C1 JUMPI PUSH1 0x0 DUP1 REVERT JUMPDEST PUSH2 0x1D5E DUP3 PUSH1 0x20 DUP4 ADD PUSH1 0x20 DUP7 ADD PUSH2 0x1EE8 JUMP JUMPDEST PUSH17 0x2737BA34B7B730B6102BB930B83832B21 PUSH1 0x7D SHL DUP2 MSTORE PUSH1 0x0 DUP3 MLOAD PUSH2 0x22FE DUP2 PUSH1 0x11 DUP6 ADD PUSH1 0x20 DUP8 ADD PUSH2 0x1EE8 JUMP JUMPDEST SWAP2 SWAP1 SWAP2 ADD PUSH1 0x11 ADD SWAP3 SWAP2 POP POP JUMP JUMPDEST PUSH2 0x6E77 PUSH1 0xF0 SHL DUP2 MSTORE PUSH1 0x0 DUP3 MLOAD PUSH2 0x2328 DUP2 PUSH1 0x2 DUP6 ADD PUSH1 0x20 DUP8 ADD PUSH2 0x1EE8 JUMP JUMPDEST SWAP2 SWAP1 SWAP2 ADD PUSH1 0x2 ADD SWAP3 SWAP2 POP POP JUMP JUMPDEST DUP1 DUP3 MUL DUP2 ISZERO DUP3 DUP3 DIV DUP5 EQ OR PUSH2 0x5CC JUMPI PUSH2 0x5CC PUSH2 0x223B JUMP JUMPDEST PUSH1 0x0 DUP3 PUSH2 0x2369 JUMPI PUSH4 0x4E487B71 PUSH1 0xE0 SHL PUSH1 0x0 MSTORE PUSH1 0x12 PUSH1 0x4 MSTORE PUSH1 0x24 PUSH1 0x0 REVERT JUMPDEST POP DIV SWAP1 JUMP JUMPDEST PUSH1 0x0 PUSH1 0x20 DUP3 DUP5 SUB SLT ISZERO PUSH2 0x2380 JUMPI PUSH1 0x0 DUP1 REVERT JUMPDEST POP MLOAD SWAP2 SWAP1 POP JUMP JUMPDEST PUSH1 0x0 PUSH1 0x20 DUP3 DUP5 SUB SLT ISZERO PUSH2 0x2399 JUMPI PUSH1 0x0 DUP1 REVERT JUMPDEST DUP2 MLOAD PUSH2 0x712 DUP2 PUSH2 0x1F3F JUMP JUMPDEST DUP2 DUP2 SUB DUP2 DUP2 GT ISZERO PUSH2 0x5CC JUMPI PUSH2 0x5CC PUSH2 0x223B JUMP JUMPDEST PUSH1 0x20 DUP1 DUP3 MSTORE PUSH1 0x2E SWAP1 DUP3 ADD MSTORE PUSH32 0x496E697469616C697A61626C653A20636F6E747261637420697320616C726561 PUSH1 0x40 DUP3 ADD MSTORE PUSH14 0x191E481A5B9A5D1A585B1A5E9959 PUSH1 0x92 SHL PUSH1 0x60 DUP3 ADD MSTORE PUSH1 0x80 ADD SWAP1 JUMP JUMPDEST PUSH1 0x20 DUP1 DUP3 MSTORE PUSH1 0x2B SWAP1 DUP3 ADD MSTORE PUSH32 0x496E697469616C697A61626C653A20636F6E7472616374206973206E6F742069 PUSH1 0x40 DUP3 ADD MSTORE PUSH11 0x6E697469616C697A696E67 PUSH1 0xA8 SHL PUSH1 0x60 DUP3 ADD MSTORE PUSH1 0x80 ADD SWAP1 JUMP JUMPDEST PUSH1 0x0 PUSH1 0x20 DUP3 DUP5 SUB SLT ISZERO PUSH2 0x2462 JUMPI PUSH1 0x0 DUP1 REVERT JUMPDEST DUP2 MLOAD DUP1 ISZERO ISZERO DUP2 EQ PUSH2 0x712 JUMPI PUSH1 0x0 DUP1 REVERT JUMPDEST PUSH1 0x1F DUP3 GT ISZERO PUSH2 0x1596 JUMPI PUSH1 0x0 DUP2 DUP2 MSTORE PUSH1 0x20 DUP2 KECCAK256 PUSH1 0x1F DUP6 ADD PUSH1 0x5 SHR DUP2 ADD PUSH1 0x20 DUP7 LT ISZERO PUSH2 0x2499 JUMPI POP DUP1 JUMPDEST PUSH1 0x1F DUP6 ADD PUSH1 0x5 SHR DUP3 ADD SWAP2 POP JUMPDEST DUP2 DUP2 LT ISZERO PUSH2 0x24B8 JUMPI DUP3 DUP2 SSTORE PUSH1 0x1 ADD PUSH2 0x24A5 JUMP JUMPDEST POP POP POP POP POP POP JUMP JUMPDEST DUP2 MLOAD PUSH8 0xFFFFFFFFFFFFFFFF DUP2 GT ISZERO PUSH2 0x24DA JUMPI PUSH2 0x24DA PUSH2 0x1FDE JUMP JUMPDEST PUSH2 0x24EE DUP2 PUSH2 0x24E8 DUP5 SLOAD PUSH2 0x2132 JUMP JUMPDEST DUP5 PUSH2 0x2472 JUMP JUMPDEST PUSH1 0x20 DUP1 PUSH1 0x1F DUP4 GT PUSH1 0x1 DUP2 EQ PUSH2 0x2523 JUMPI PUSH1 0x0 DUP5 ISZERO PUSH2 0x250B JUMPI POP DUP6 DUP4 ADD MLOAD JUMPDEST PUSH1 0x0 NOT PUSH1 0x3 DUP7 SWAP1 SHL SHR NOT AND PUSH1 0x1 DUP6 SWAP1 SHL OR DUP6 SSTORE PUSH2 0x24B8 JUMP JUMPDEST PUSH1 0x0 DUP6 DUP2 MSTORE PUSH1 0x20 DUP2 KECCAK256 PUSH1 0x1F NOT DUP7 AND SWAP2 JUMPDEST DUP3 DUP2 LT ISZERO PUSH2 0x2552 JUMPI DUP9 DUP7 ADD MLOAD DUP3 SSTORE SWAP5 DUP5 ADD SWAP5 PUSH1 0x1 SWAP1 SWAP2 ADD SWAP1 DUP5 ADD PUSH2 0x2533 JUMP JUMPDEST POP DUP6 DUP3 LT ISZERO PUSH2 0x2570 JUMPI DUP8 DUP6 ADD MLOAD PUSH1 0x0 NOT PUSH1 0x3 DUP9 SWAP1 SHL PUSH1 0xF8 AND SHR NOT AND DUP2 SSTORE JUMPDEST POP POP POP POP POP PUSH1 0x1 SWAP1 DUP2 SHL ADD SWAP1 SSTORE POP JUMP JUMPDEST PUSH1 0x0 DUP3 MLOAD PUSH2 0x2592 DUP2 DUP5 PUSH1 0x20 DUP8 ADD PUSH2 0x1EE8 JUMP JUMPDEST SWAP2 SWAP1 SWAP2 ADD SWAP3 SWAP2 POP POP JUMP INVALID CALLDATASIZE ADDMOD SWAP5 LOG1 EXTCODESIZE LOG1 LOG3 0x21 MOD PUSH8 0xC828492DB98DCA3E KECCAK256 PUSH23 0xCC3735A920A3CA505D382BBC416464726573733A206C6F PUSH24 0x2D6C6576656C2064656C65676174652063616C6C20666169 PUSH13 0x6564A264697066735822122092 SWAP3 PUSH4 0x2C905569 ADDRESS 0xAA CODECOPY DELEGATECALL 0xD1 TIMESTAMP 0xD0 ADD 0xDD 0xD9 SDIV PUSH21 0xFE01AFCE4D042FF6E752A59F8D64736F6C63430008 GT STOP CALLER ","sha1":"ba641e2ec255702f109f38dd2f204f063cd7ef0f","source":"// SPDX-License-Identifier: GPL-3.0-only\npragma solidity =0.8.17;\n\nimport {ERC20} from \"@openzeppelin-4.6/contracts/token/ERC20/ERC20.sol\";\nimport {SafeERC20} from \"@openzeppelin-4.6/contracts/token/ERC20/utils/SafeERC20.sol\";\nimport {ReentrancyGuard} from \"@openzeppelin-4.6/contracts/security/ReentrancyGuard.sol\";\nimport {ERC20Upgradeable} from \"@openzeppelin-4.6/contracts-upgradeable/token/ERC20/ERC20Upgradeable.sol\";\nimport {UUPSUpgradeable} from \"@openzeppelin-4.6/contracts-upgradeable/proxy/utils/UUPSUpgradeable.sol\";\nimport {CTokenInterface} from \"../../../interfaces/compound/CTokenInterface.sol\";\nimport {CEtherInterface} from \"../../../interfaces/compound/CEtherInterface.sol\";\nimport {CErc20Interface} from \"../../../interfaces/compound/CErc20Interface.sol\";\nimport {AssetRateAdapter} from \"../../../interfaces/notional/AssetRateAdapter.sol\";\nimport {NotionalProxy} from \"../../../interfaces/notional/NotionalProxy.sol\";\nimport {nwTokenInterface} from \"../../../interfaces/notional/nwTokenInterface.sol\";\n\ncontract nwToken is ERC20Upgradeable, ReentrancyGuard, UUPSUpgradeable, nwTokenInterface {\n    using SafeERC20 for ERC20;\n\n    address public constant ETH_ADDRESS = address(0);\n    uint256 internal constant EXCHANGE_RATE_PRECISION = 1e18;\n    uint256 internal constant NO_ERROR = 0;\n\n    address public immutable NOTIONAL;\n    address private immutable COMPOUND_TOKEN;\n    address private immutable UNDERLYING_TOKEN;\n    uint8 private immutable CTOKEN_DECIMALS;\n\n    uint256 private finalExchangeRate;\n\n    modifier onlyNotional() {\n        require(msg.sender == NOTIONAL);\n        _;\n    }\n\n    modifier onlyNotionalOwner() {\n        require(msg.sender == NotionalProxy(NOTIONAL).owner());\n        _;\n    }\n\n    constructor(address notional_, address cToken_, bool isETH_) initializer {\n        CTOKEN_DECIMALS = ERC20(cToken_).decimals();\n        COMPOUND_TOKEN = cToken_;\n        NOTIONAL = notional_;\n        UNDERLYING_TOKEN = isETH_ ? ETH_ADDRESS : CTokenInterface(cToken_).underlying();\n    }\n\n    function initialize(uint256 finalExchangeRate_) external initializer onlyNotional {\n        string memory underlyingName = UNDERLYING_TOKEN == ETH_ADDRESS ? \n            'Ether' :\n            ERC20(UNDERLYING_TOKEN).name();\n\n        string memory underlyingSymbol = UNDERLYING_TOKEN == ETH_ADDRESS ? \n            'ETH' :\n            ERC20(UNDERLYING_TOKEN).symbol();\n\n        __ERC20_init(\n            string(abi.encodePacked(\"Notional Wrapped \", underlyingName)), \n            string(abi.encodePacked(\"nw\", underlyingSymbol))\n        );\n        finalExchangeRate = finalExchangeRate_;\n    }\n\n    // ERC20 functions\n    function decimals() public view override returns (uint8) {\n        return CTOKEN_DECIMALS;\n    }\n\n    // CEtherInterface functions\n    function mint() external payable nonReentrant override {\n        require(UNDERLYING_TOKEN == ETH_ADDRESS);\n        require(finalExchangeRate != 0);\n\n        if (msg.value == 0) revert(\"No ETH\");\n\n        uint256 assetTokenAmount = _convertToAsset(msg.value);\n        require(assetTokenAmount > 0, \"No Shares\");\n\n        // Handles event emission, balance update and total supply update\n        super._mint(msg.sender, assetTokenAmount);\n        _checkSupplyInvariant();\n    }\n\n    // CErc20Interface functions \n    function mint(uint mintAmount) external nonReentrant override returns (uint) {\n        require(UNDERLYING_TOKEN != ETH_ADDRESS);\n        require(finalExchangeRate != 0);\n\n        if (mintAmount == 0) return NO_ERROR;\n\n        ERC20(UNDERLYING_TOKEN).safeTransferFrom(\n            msg.sender,\n            address(this),\n            mintAmount\n        );\n        uint256 assetTokenAmount = _convertToAsset(mintAmount);\n        require(assetTokenAmount > 0, \"No Shares\");\n\n        // Handles event emission, balance update and total supply update\n        super._mint(msg.sender, assetTokenAmount);\n\n        _checkSupplyInvariant();\n        return NO_ERROR;\n    }\n\n    function redeem(uint redeemTokens) external nonReentrant override returns (uint) {\n        if (redeemTokens == 0) return NO_ERROR;\n        require(finalExchangeRate != 0);\n\n        // Handles event emission, balance update and total supply update\n        super._burn(msg.sender, redeemTokens);\n\n        _transferUnderlyingToSender(_convertToUnderlying(redeemTokens));\n        \n        _checkSupplyInvariant();\n        return NO_ERROR;\n    }\n\n    function redeemUnderlying(uint redeemAmount) external nonReentrant override returns (uint) {\n        if (redeemAmount == 0) return NO_ERROR;\n        require(finalExchangeRate != 0);\n\n        // Handles event emission, balance update and total supply update.\n        super._burn(msg.sender, _convertToAssetRoundUp(redeemAmount));\n\n        _transferUnderlyingToSender(redeemAmount);\n\n        _checkSupplyInvariant();\n        return NO_ERROR;\n    }\n\n    function _checkSupplyInvariant() private view {\n        uint256 totalSupplyInUnderlying = _convertToUnderlying(totalSupply());\n        uint256 balanceOfUnderlying = UNDERLYING_TOKEN == ETH_ADDRESS ?\n            address(this).balance :\n            ERC20(UNDERLYING_TOKEN).balanceOf(address(this));\n\n        require(totalSupplyInUnderlying <= balanceOfUnderlying, \"Invariant Failed\");\n    }\n\n    function _transferUnderlyingToSender(uint256 amount) private {\n        if (UNDERLYING_TOKEN == ETH_ADDRESS) {\n            payable(msg.sender).transfer(amount);\n        } else {\n            ERC20(UNDERLYING_TOKEN).safeTransfer(msg.sender, amount);\n        }\n    }\n\n    // AssetRateAdapter functions\n    function token() external view returns (address) {\n        return address(this);\n    }\n\n    function description() external view returns (string memory) {\n        return super.symbol();\n    }\n\n    function version() external view returns (uint256) {\n        return 1;\n    }\n\n    function underlying() external view returns (address) {\n        return UNDERLYING_TOKEN;\n    }\n\n    function getExchangeRateStateful() external returns (int256) {\n        return _toInt(finalExchangeRate);\n    }\n\n    function getExchangeRateView() external view returns (int256) {\n        return _toInt(finalExchangeRate);\n    }\n\n    function getAnnualizedSupplyRate() external view returns (uint256) {\n        return 0;\n    }\n\n    function _toInt(uint256 x) private pure returns (int256) {\n        require (x <= uint256(type(int256).max)); // dev: toInt overflow\n        return int256(x);\n    }\n\n    function _convertToAsset(uint256 underlyingAmount) private view returns (uint256) {\n        return underlyingAmount * EXCHANGE_RATE_PRECISION / finalExchangeRate;\n    }\n\n    function _convertToAssetRoundUp(uint256 underlyingAmount) private view returns (uint256) {\n        return underlyingAmount == 0 ? 0 :\n            ((underlyingAmount * EXCHANGE_RATE_PRECISION - 1) / finalExchangeRate) + 1;\n    }\n\n    function _convertToUnderlying(uint256 assetAmount) private view returns (uint256) {\n        return assetAmount * finalExchangeRate / EXCHANGE_RATE_PRECISION;\n    }\n\n    function _authorizeUpgrade(\n        address /* newImplementation */\n    ) internal override onlyNotionalOwner {}\n}\n","sourcePath":"contracts/external/adapters/nwToken.sol","type":"contract","deployment":{"address":"0x24B5FF402440aB10618F3798253d2cD5801E40F7","chainid":"1","blockHeight":17060713}}