{"abi":[{"inputs":[{"internalType":"address","name":"account","type":"address"},{"components":[{"internalType":"enum DepositActionType","name":"actionType","type":"uint8"},{"internalType":"uint16","name":"currencyId","type":"uint16"},{"internalType":"uint256","name":"depositActionAmount","type":"uint256"},{"internalType":"uint256","name":"withdrawAmountInternalPrecision","type":"uint256"},{"internalType":"bool","name":"withdrawEntireCashBalance","type":"bool"},{"internalType":"bool","name":"redeemToUnderlying","type":"bool"}],"internalType":"struct BalanceAction[]","name":"actions","type":"tuple[]"}],"name":"batchBalanceAction","outputs":[],"stateMutability":"payable","type":"function"},{"inputs":[{"internalType":"address","name":"account","type":"address"},{"components":[{"internalType":"enum DepositActionType","name":"actionType","type":"uint8"},{"internalType":"uint16","name":"currencyId","type":"uint16"},{"internalType":"uint256","name":"depositActionAmount","type":"uint256"},{"internalType":"uint256","name":"withdrawAmountInternalPrecision","type":"uint256"},{"internalType":"bool","name":"withdrawEntireCashBalance","type":"bool"},{"internalType":"bool","name":"redeemToUnderlying","type":"bool"},{"internalType":"bytes32[]","name":"trades","type":"bytes32[]"}],"internalType":"struct BalanceActionWithTrades[]","name":"actions","type":"tuple[]"}],"name":"batchBalanceAndTradeAction","outputs":[],"stateMutability":"payable","type":"function"},{"inputs":[{"internalType":"address","name":"account","type":"address"},{"components":[{"internalType":"enum DepositActionType","name":"actionType","type":"uint8"},{"internalType":"uint16","name":"currencyId","type":"uint16"},{"internalType":"uint256","name":"depositActionAmount","type":"uint256"},{"internalType":"uint256","name":"withdrawAmountInternalPrecision","type":"uint256"},{"internalType":"bool","name":"withdrawEntireCashBalance","type":"bool"},{"internalType":"bool","name":"redeemToUnderlying","type":"bool"},{"internalType":"bytes32[]","name":"trades","type":"bytes32[]"}],"internalType":"struct BalanceActionWithTrades[]","name":"actions","type":"tuple[]"},{"internalType":"bytes","name":"callbackData","type":"bytes"}],"name":"batchBalanceAndTradeActionWithCallback","outputs":[],"stateMutability":"payable","type":"function"},{"inputs":[{"internalType":"address","name":"account","type":"address"},{"components":[{"internalType":"uint16","name":"currencyId","type":"uint16"},{"internalType":"bool","name":"depositUnderlying","type":"bool"},{"internalType":"bytes32[]","name":"trades","type":"bytes32[]"}],"internalType":"struct BatchLend[]","name":"actions","type":"tuple[]"}],"name":"batchLend","outputs":[],"stateMutability":"nonpayable","type":"function"},{"inputs":[],"name":"getLibInfo","outputs":[{"internalType":"address","name":"","type":"address"},{"internalType":"address","name":"","type":"address"},{"internalType":"address","name":"","type":"address"},{"internalType":"address","name":"","type":"address"},{"internalType":"address","name":"","type":"address"},{"internalType":"address","name":"","type":"address"}],"stateMutability":"pure","type":"function"},{"inputs":[],"name":"owner","outputs":[{"internalType":"address","name":"","type":"address"}],"stateMutability":"view","type":"function"},{"inputs":[],"name":"pauseGuardian","outputs":[{"internalType":"address","name":"","type":"address"}],"stateMutability":"view","type":"function"},{"inputs":[],"name":"pauseRouter","outputs":[{"internalType":"address","name":"","type":"address"}],"stateMutability":"view","type":"function"}],"bytecode":"608060405234801561001057600080fd5b50614c32806100206000396000f3fe60806040526004361061007b5760003560e01c80636e6a32a61161004e5780636e6a32a6146100f357806382463367146101065780638da5cb5b1461011b578063c4c96dae146101305761007b565b80630276b64b1461008057806324a3d62214610095578063541f5270146100c05780635950d8e9146100e0575b600080fd5b61009361008e36600461422f565b610157565b005b3480156100a157600080fd5b506100aa6101e7565b6040516100b7919061467e565b60405180910390f35b3480156100cc57600080fd5b506100936100db3660046143a3565b6101f6565b6100936100ee36600461427f565b61050c565b610093610101366004614323565b61063c565b34801561011257600080fd5b506100aa6107c2565b34801561012757600080fd5b506100aa6107d1565b34801561013c57600080fd5b506101456107e8565b6040516100b7969594939291906146db565b6002600a5414156101835760405162461bcd60e51b815260040161017a90614a0b565b60405180910390fd5b6002600a556001600160a01b03831633148061019e57503330145b6101ba5760405162461bcd60e51b815260040161017a906148fa565b6101c38361086e565b60006101d08484846108bd565b90506101dc8482610a78565b50506001600a555050565b6002546001600160a01b031681565b6002600a5414156102195760405162461bcd60e51b815260040161017a90614a0b565b6002600a556001600160a01b03831633148061023457503330145b6102505760405162461bcd60e51b815260040161017a906148fa565b6102598361086e565b600061026484610af9565b905060006102788583604001516000610bb5565b9050610282613f4f565b60005b848110156104da573686868381811061029a57fe5b90506020028101906102ac9190614b82565b90508115610315578686600184038181106102c357fe5b90506020028101906102d59190614b82565b6102e39060208101906145b6565b61ffff166102f460208301836145b6565b61ffff16116103155760405162461bcd60e51b815260040161017a906149aa565b60006103246040830183614b1d565b9150508061033157600080fd5b60005b8181101561037457600061034b6040850185614b1d565b8381811061035557fe5b9050602002013560f81c60ff161461036c57600080fd5b600101610334565b5061038f8961038660208501856145b6565b86919089610c47565b6103b4896103a060208501856145b6565b6103ad6040860186614b1d565b8a8a610ced565b606086018290529550600012156103ca57600080fd5b60006103ef6103ea86606001518760200151610e9390919063ffffffff16565b610eaf565b905060008113156104bd5761040a60408401602085016143da565b156104a857600061042a61042160208601866145b6565b61ffff16610ebd565b9050600061044761043e60208701876145b6565b61ffff16610f09565b905060006104558385610f1c565b905060006104638383610f55565b9050600061047c8f838c610f979092919063ffffffff16565b90508581121561049e5760405162461bcd60e51b815260040161017a90614adb565b50505050506104bd565b60808501516104b79082610e93565b60808601525b6104ca858b89600061107c565b5050600190920191506102859050565b506104e4836112f7565b6104f5576104f58387846000611304565b6104ff8684610a78565b50506001600a5550505050565b3360009081526008602052604090205460ff1661053b5760405162461bcd60e51b815260040161017a906148fa565b6105448561086e565b60006105518686866108bd565b905061055d81876113e6565b60405163550d065760e11b8152339063aa1a0cae906105869083908a9088908890600401614692565b600060405180830381600087803b1580156105a057600080fd5b505af11580156105b4573d6000803e3d6000fd5b5050505060208101516001600160f81b0319161561063457604051636ccc642f60e01b815273__FreeCollateralExternal________________90636ccc642f9061060390899060040161467e565b60006040518083038186803b15801561061b57600080fd5b505af415801561062f573d6000803e3d6000fd5b505050505b505050505050565b6002600a54141561065f5760405162461bcd60e51b815260040161017a90614a0b565b6002600a556001600160a01b03831633148061067a57503330145b6106965760405162461bcd60e51b815260040161017a906148fa565b61069f8361086e565b60006106aa84610af9565b90506106b4613f4f565b60005b838110156107ab57368585838181106106cc57fe5b905060c0020190506000821115610739578585600184038181106106ec57fe5b905060c00201602001602081019061070491906145b6565b61ffff1661071860408301602084016145b6565b61ffff16116107395760405162461bcd60e51b815260040161017a906149aa565b6107568761074d60408401602085016145b6565b85919087610c47565b610772878461076860208501856143f6565b84604001356114ea565b6107a2878585606085013561078d60a08701608088016143da565b61079d60c0880160a089016143da565b6115bd565b506001016106b7565b506107b68583610a78565b50506001600a55505050565b6001546001600160a01b031681565b60005464010000000090046001600160a01b031681565b73__FreeCollateralExternal________________73__MigrateIncentives_____________________73__SettleAssetsExternal__________________73__TradingAction_________________________73__nTokenMintAction______________________73__nTokenRedeemAction____________________909192939495565b6001600160a01b03811661088157600080fd5b6001600160a01b03811630141561089757600080fd5b60006108a28261163a565b5050505061ffff169050806000146108b957600080fd5b5050565b6108c5613f9f565b60006108d085610af9565b90506108da613f4f565b60006108ec8784604001516000610bb5565b905060005b85811015610a50573687878381811061090657fe5b90506020028101906109189190614b63565b905081156109875787876001840381811061092f57fe5b90506020028101906109419190614b63565b6109529060408101906020016145b6565b61ffff1661096660408301602084016145b6565b61ffff16116109875760405162461bcd60e51b815260040161017a906149aa565b6109a48961099b60408401602085016145b6565b86919088610c47565b6109b6898561076860208501856143f6565b60006109c560c0830183614b1d565b90501115610a2c5760006109f78a6109e360408501602086016145b6565b6109f060c0860186614b1d565b8a89610ced565b945090506000811215610a1657610a1685610a1183610eaf565b6116a3565b6060850151610a259082610e93565b6060860152505b610a47898686606085013561078d60a08701608088016143da565b506001016108f1565b50610a5a836112f7565b610a6b57610a6b8388836000611304565b50909150505b9392505050565b610a8281836113e6565b60208101516001600160f81b031916156108b957604051636ccc642f60e01b815273__FreeCollateralExternal________________90636ccc642f90610acd90859060040161467e565b60006040518083038186803b158015610ae557600080fd5b505af4158015610634573d6000803e3d6000fd5b610b01613f9f565b6000610b0c836116f2565b9050610b1781611793565b15610bad576040516337b5fc2160e11b815273__SettleAssetsExternal__________________90636f6bf84290610b559086908590600401614715565b60a06040518083038186803b158015610b6d57600080fd5b505af4158015610b81573d6000803e3d6000fd5b505050506040513d601f19601f82011682018060405250810190610ba5919061445c565b915050610bb0565b90505b919050565b610bbd613fcd565b610bc5613fcd565b60ff8416610bd4579050610a71565b610bde85856117e4565b815260ff84166060820152826001600160401b0381118015610bff57600080fd5b50604051908082528060200260200182016040528015610c3957816020015b610c26613ff5565b815260200190600190039081610c1e5790505b506020820152949350505050565b8161ffff166000108015610c615750613fff61ffff831611155b610c6a57600080fd5b61ffff8216808552610c7d90829061180d565b15610caa57610c90838361ffff16611897565b61010088015260e087015260408601526020850152610cc8565b6000602085018190526040850181905260e085018190526101008501525b50506000606083018190526080830181905260a0830181905260c09092019190915250565b6000610cf7613fcd565b610d00846112f7565b15610df0578661ffff16846060015161ffff1614610d305760405162461bcd60e51b815260040161017a90614a55565b60608401518451604051633643f39b60e01b815260009273__TradingAction_________________________92633643f39b92610d77928e9290918d908d9060040161483f565b604080518083038186803b158015610d8e57600080fd5b505af4158015610da2573d6000803e3d6000fd5b505050506040513d601f19601f82011682018060405250810190610dc6919061442d565b90935090508015610dea57602085018051600160f81b176001600160f81b03191690525b50610e88565b60405163b58f83ed60e01b815273__TradingAction_________________________9063b58f83ed90610e2f908b908b9088908c908c90600401614781565b60006040518083038186803b158015610e4757600080fd5b505af4158015610e5b573d6000803e3d6000fd5b505050506040513d6000823e601f3d908101601f19168201604052610e8391908101906144fb565b925090505b965096945050505050565b81810182811215600083121514610ea957600080fd5b92915050565b6000610bad60001983611943565b610ec5614035565b6000806000610ed385611991565b604080516060810182526001600160a01b039093168352602083019390935260ff16600a0a918101919091529350505050919050565b610f1161405f565b610bad826001611a54565b600080610f4d8460400151610f476402540be400610f4787896020015161194390919063ffffffff16565b90611b02565b949350505050565b60006305f5e10083604001511215610f8357610f7c6001610f768585611b33565b90610e93565b9050610ea9565b610a7183610f92846001610e93565b611b33565b600081610fa657506000610a71565b60008213610fb357600080fd5b6000610fc6856000015161ffff16610f09565b9050600381606001516005811115610fda57fe5b141561100457348314610fff5760405162461bcd60e51b815260040161017a9061493e565b61101b565b8451611018908290869061ffff1686611b6b565b92505b600061102e866000015161ffff16611c13565b9050600061104b876000015161104387611c26565b849190611c39565b905060006110598383611d30565b606089015190915061106b9082610e93565b606089015293505050509392505050565b60008060008660a0015112156110cf5760006110b18760a00151610f768960c001518a60400151610e9390919063ffffffff16565b12156110cf5760405162461bcd60e51b815260040161017a90614a8c565b60008660800151121561111f5760006111018760800151610f7689606001518a60200151610e9390919063ffffffff16565b121561111f5760405162461bcd60e51b815260040161017a90614a33565b61112a868685611d60565b60808801819052606088015191935060009161114591610e93565b905080156111b257602087015161115c9082610e93565b602088015286516040516001935061ffff909116906001600160a01b038816907f5441e4a5fac93a951d782e6f1cdb82e95c8fc58561a013953d17e395c5e69b4b906111a99085906148f1565b60405180910390a35b60a08701511515806111c7575060c087015115155b1561126d5760006111f18860c00151610f768a60a001518b60400151610e9390919063ffffffff16565b9050611206888861120184611c26565b611e16565b506040880181905260c08801511561126757876000015161ffff16876001600160a01b03167f412bc13d202a2ea5119e55fec9c5e420dddb18faf186373ad9795ad4f4545aa98a60c0015160405161125e91906148f1565b60405180910390a35b60019250505b811561129a5761129a86886000015161ffff1689602001518a604001518b60e001518c6101000151611f03565b865160208801516112c79161ffff16901515806112ba5750604089015115155b879190600160fe1b612053565b6000876020015112156112ed57602085018051600160f91b176001600160f81b03191690525b5050949350505050565b6060015161ffff16151590565b60008080806113138688612252565b64ffffffffff81168c529296509094509250905061133088611793565b1561133a57600080fd5b60ff821660408901528461135957600760ff8316111561135957600080fd5b831561137c57602088018051600160f81b176001600160f81b031916905261138b565b602088018051607f60f91b1690525b6113988860800151612491565b6001600160701b031916608089015260005b83156113db5760f084901c8181146113cd576113cd8a826001600160ff1b612053565b60109490941b9390506113aa565b505050505050505050565b60006113f061250c565b6001600160a01b03831660008181526020838152604080832088518154938a0151838b015160608c015160808d015160701c600160481b027affffffffffffffffffffffffffffffffffff0000000000000000001961ffff909216600160381b0268ffff000000000000001960ff94909416600160301b0266ff0000000000001960f89690961c650100000000000265ff00000000001964ffffffffff90981664ffffffffff19909b169a909a1796909616989098179390931693909317169490941716929092179091555192935090917f6bd4b121bca854a191536a2ca891155c42ee2fb23f307fb34e8bc65cfcb5412e9190a2505050565b60006114f582612519565b905060008082121561150657600080fd5b600084600681111561151457fe5b14156115215750506115b7565b600184600681111561152f57fe5b14806115465750600384600681111561154457fe5b145b1561155f57611558858784600061252f565b90506115ab565b600284600681111561156d57fe5b14806115845750600484600681111561158257fe5b145b1561159457611558858784610f97565b60068460068111156115a257fe5b14156115ab5750805b61063485858484612606565b50505050565b60006115c884612519565b905060008112156115d857600080fd5b8215611610576116018560800151610f7687606001518860200151610e9390919063ffffffff16565b90506000811215611610575060005b608085015161161f9082612821565b60808601526116308588888561107c565b5050505050505050565b60008060008060008061164b612837565b6001600160a01b039097166000908152602097909752505060409094205461ffff81169563ffffffff62010000830481169650600160301b830416945060ff600160501b8304169350600160581b90910460d81b9150565b600081121580156116d65750806116d38360800151610f7685606001518660200151610e9390919063ffffffff16565b12155b6108b95760405162461bcd60e51b815260040161017a90614ab0565b6116fa613f9f565b600061170461250c565b6001600160a01b039390931660009081526020938452604090819020815160a081018352905464ffffffffff8116825265010000000000810460f81b6001600160f81b03191695820195909552600160301b850460ff1691810191909152600160381b840461ffff166060820152600160481b90930460701b6001600160701b03191660808401525090919050565b60004261179f836112f7565b156117c0576117ad81612844565b835164ffffffffff16109150610bb09050565b825164ffffffffff1615801590610ba55750825164ffffffffff1611159050610bb0565b606060006117f28484612862565b90506001815111611804579050610ea9565b610a7181612983565b600081158015906118205750613fff8211155b61182957600080fd5b6080830151606084015161ffff16831415611848576001915050610ea9565b6001600160701b031981161561188d5760f081901c613fff168381141561187a5750600160fe1b908116149050610ea9565b5060101b6001600160801b031916611848565b5060009392505050565b60008060008060006118a7612b3b565b6001600160a01b0388166000908152602082815260408083208a84529091529020805469ffffffffffffffffffff81169650600160501b900463ffffffff169450909150831561191357805461190c90600160701b900466ffffffffffffff16612b48565b9250611928565b8054600160701b900466ffffffffffffff1692505b54600160a81b9004600a90810b900b97939650919450925050565b8181026000198314156119735781158061196557508282828161196257fe5b05145b61196e57600080fd5b610ea9565b82158061198857508183828161198557fe5b05145b610ea957600080fd5b60008060008060006119a286612b56565b909250905060006001600160a01b0383166119c75750600090506402540be400611a49565b826001600160a01b0316631ee108336040518163ffffffff1660e01b8152600401602060405180830381600087803b158015611a0257600080fd5b505af1158015611a16573d6000803e3d6000fd5b505050506040513d601f19601f82011682018060405250810190611a3a9190614415565b905060008113611a4957600080fd5b969195509350915050565b611a5c61405f565b6000611a66612b8d565b6000858152602082815260408083208715158452825291829020825160a08101845281546001600160a01b038116825260ff600160a01b82048116151594830194909452600160b01b81048416600a0a9482019490945293945092916060830191600160a81b909104166005811115611adb57fe5b81529154600160b81b900468ffffffffffffffffff16602090920191909152949350505050565b600081600019148015611b185750600160ff1b83145b15611b2257600080fd5b818381611b2b57fe5b059392505050565b60006305f5e10083604001511415611b4c575080610ea9565b610a716305f5e100610f4785604001518561194390919063ffffffff16565b80600585606001516005811115611b7e57fe5b1415611ba3576000611b8f84610f09565b9050611b9f816000015184612b9a565b9250505b6000821315611bcf576000611bb9868685612c2c565b9050856020015115611bc9578091505b50610f4d565b600385606001516005811115611be157fe5b1415611bfe57611bf984611bf484610eaf565b612d1f565b610f4d565b8451610f4d9085611c0e85610eaf565b612d5a565b611c1b61405f565b610bad826000611a54565b600080821215611c3557600080fd5b5090565b600080600585606001516005811115611c4e57fe5b14611c60576370a0823160e01b611c69565b630ed1279f60e11b5b90506000611c7c86600001513084612dd1565b9050600586606001516005811115611c9057fe5b1415611cb7576000611ca58661ffff16610f09565b9050611cb18186612ee3565b50611d00565b600186606001516005811115611cc957fe5b1415611cde57611cd98685612f4e565b611d00565b600286606001516005811115611cf057fe5b141561007b57611cd98685612ff0565b6000611d1187600001513085612dd1565b9050611d25611d20828461304c565b612519565b979650505050505050565b60006305f5e10083604001511415611d49575080610ea9565b6040830151610a7190610f47846305f5e100611943565b6000806000611d76866000015161ffff16611c13565b90506000611d91876080015183611b3390919063ffffffff16565b905080611da657600080935093505050611e0e565b848015611db35750600081125b15611de8578651611dd59061ffff1687611dcc84610eaf565b859291906130a9565b9350611de18282611d30565b9250611e0b565b8651611dfc908390889061ffff1684611b6b565b9350611e088285611d30565b92505b50505b935093915050565b825160009042908290611e2c9061ffff1661313f565b90506000611e3f828860c0015185613165565b9050611e4d87838388613248565b93506000611e5a83613375565b90506001600160a01b03811615611ee857806001600160a01b0316631d684dd2888a60000151611e8d8c60400151611c26565b8a8d60c001518b6040518763ffffffff1660e01b8152600401611eb596959493929190614808565b600060405180830381600087803b158015611ecf57600080fd5b505af1158015611ee3573d6000803e3d6000fd5b505050505b8415611ef857611ef887866133e7565b505050509392505050565b6000611f0d612b3b565b6001600160a01b0388166000908152602082815260408083208a845290915290209091506a7fffffffffffffffffffff198612801590611f5857506a7fffffffffffffffffffff8613155b611f6157600080fd5b60008512158015611f7c575069ffffffffffffffffffff8513155b611f8557600080fd5b83611fc55766ffffffffffffff831115611f9e57600080fd5b805466ffffffffffffff60701b1916600160701b66ffffffffffffff851602178155611fdf565b8054600160501b900463ffffffff168414611fdf57600080fd5b8054600a9690960b6affffffffffffffffffffff16600160a81b026001600160a81b0369ffffffffffffffffffff90961669ffffffffffffffffffff1963ffffffff909616600160501b0263ffffffff60501b19909816979097179490941695909517939093169190911790925550505050565b8260001080156120655750613fff8311155b61206e57600080fd5b818015612082575082846060015161ffff16145b1561208c576115b7565b6080840151600090815b6001600160701b03198216156122075760f082901c613fff1686811480156120bb5750855b156120f357506080870180516001600160f01b0319861660109093029290921c919091176001600160701b0319169052506115b79050565b8681148015612100575085155b15612155576001600160f01b03198516199290921691600360fe1b8316612133576010836001600160701b031916901b92505b506001600160701b031991821660109091021c919091171660808501526115b7565b86811180156121615750855b156121bb576080888101516001600160f01b031960f08a901b88178116601086021c9690961795911b161561219557600080fd5b506001600160701b03199182166001919091016010021c919091171660808501526115b7565b86811180156121c8575085155b156121d657505050506115b7565b506001600160f01b0319821660108281029190911c93909317929190911b6001600160801b03191690600101612096565b84612214575050506115b7565b6009811061222157600080fd5b6001600160f01b031960f087901b85171660109091021c919091176001600160701b03191660808601525050505050565b6000808080808080805b8951518110156122e35760008a60000151828151811061227857fe5b6020026020010151905060038081111561228e57fe5b8160a00151600381111561229e57fe5b14156122a957600080fd5b60028160a0015160038111156122bb57fe5b141580156122cb57506060810151155b156122da576122da8b83613406565b5060010161225c565b5060005b8951518110156123865760008a60000151828151811061230357fe5b602002602001015190506002600381111561231a57fe5b8160a00151600381111561232a57fe5b141561233e5760808101516000905561237d565b60018160a00151600381111561235057fe5b1415612369576080810151806123668382613555565b50505b61237581868686613686565b919650945092505b506001016122e7565b50606089015160006123966136e9565b6001600160a01b038b1660009081526020829052604081209192505b8c60200151518110156124605760008d6020015182815181106123d157fe5b602002602001015190508060600151600014156123ee5750612458565b60028160a00151600381111561240057fe5b1415801561241e575060038160a00151600381111561241b57fe5b14155b61242757600080fd5b61243381898989613686565b919950975095506124508184876010811061244a57fe5b01613555565b600185019450505b6001016123b2565b5060108311158015612477575064ffffffffff8411155b61248057600080fd5b50939a929950975095509350505050565b6000807f7fff7fff7fff7fff7fff7fff7fff7fff7fff00000000000000000000000000008316815b6001600160701b031982161561250357600160fe1b82811614156124ed576001600160f01b03198216811c92909217916010015b6010826001600160701b031916901b91506124b9565b50909392505050565b600080610ea960016136f2565b60006001600160ff1b03821115611c3557600080fd5b60008261253e57506000610f4d565b6000831361254b57600080fd5b600061255e866000015161ffff16611c13565b905060058160600151600581111561257257fe5b141561258b5785516125889061ffff168561370b565b93505b8060200151806125985750825b156125df5785516000906125b4908390889061ffff1688611b6b565b90506125c08282611d30565b60608801519093506125d29084610e93565b606088015250610f4d9050565b6125e98185611d30565b60808701519092506125fb9083610e93565b608087015250610f4d565b600383600681111561261457fe5b148061262b5750600483600681111561262957fe5b145b806126415750600683600681111561263f57fe5b145b1561270d5761265084826116a3565b606084015161265f9082612821565b60608501528351604051632128561360e11b815260009173__nTokenMintAction______________________91634250ac26916126a0918690600401614b09565b60206040518083038186803b1580156126b857600080fd5b505af41580156126cc573d6000803e3d6000fd5b505050506040513d601f19601f820116820180604052508101906126f09190614415565b60c08601519091506127029082610e93565b60c0860152506115b7565b600583600681111561271b57fe5b14156115b757816127458560c00151610f768760a001518860400151610e9390919063ffffffff16565b12156127635760405162461bcd60e51b815260040161017a906149d4565b60c08401516127729083612821565b60c085015283516040516352e73f7760e01b815260009173__nTokenRedeemAction____________________916352e73f77916127b3918790600401614b09565b60206040518083038186803b1580156127cb57600080fd5b505af41580156127df573d6000803e3d6000fd5b505050506040513d601f19601f820116820180604052508101906128039190614415565b60608601519091506128159082610e93565b60608601525050505050565b80820382811315600083121514610ea957600080fd5b600080610ea960026136f2565b60006201518082101561285657600080fd5b50620151808106900390565b606060108260ff16111561287557600080fd5b600061287f6136e9565b6001600160a01b038516600090815260208290526040812091925060ff85166001600160401b03811180156128b357600080fd5b506040519080825280602002602001820160405280156128ed57816020015b6128da613ff5565b8152602001906001900390816128d25790505b50905060005b8560ff1681101561297957600083826010811061290c57fe5b019050600083838151811061291d57fe5b602090810291909101810151835461ffff8116825264ffffffffff620100008204169282019290925260ff600160381b8304166040820152600160401b909104600a90810b900b606082015260800191909152506001016128f3565b5095945050505050565b80516000816001600160401b038111801561299d57600080fd5b506040519080825280602002602001820160405280156129c7578160200160208202803683370190505b50905060005b82811015612a245760008482815181106129e357fe5b60200260200101519050612a04816000015182602001518360400151613792565b838381518110612a1057fe5b6020908102919091010152506001016129cd565b5060015b828110156115b757805b600081118015612a6a5750828181518110612a4957fe5b6020026020010151836001830381518110612a6057fe5b6020026020010151115b15612b3257828181518110612a7b57fe5b6020026020010151836001830381518110612a9257fe5b6020026020010151846001840381518110612aa957fe5b60200260200101858481518110612abc57fe5b6020026020010182815250828152505050848181518110612ad957fe5b6020026020010151856001830381518110612af057fe5b6020026020010151866001840381518110612b0757fe5b60200260200101878481518110612b1a57fe5b60209081029190910101919091525260001901612a32565b50600101612a28565b600080610ea960066136f2565b600881901c60ff9091161b90565b6000806000612b636137ed565b600094855260205250506040909120546001600160a01b03811692600160a01b90910460ff169150565b600080610ea960076136f2565b600081612ba957506000610ea9565b6000612bb4846137fa565b90506000612bc184613885565b9050816b019d971e4fe8401e74000001600160ff1b0381612bde57fe5b05811315612beb57600080fd5b6b033b2e3c9fd0803ce80000006b019d971e4fe8401e74000000838302010560008513612c2057612c1b81610eaf565b612c22565b805b9695505050505050565b6000808080600587606001516005811115612c4357fe5b14612c55576370a0823160e01b612c5e565b630ed1279f60e11b5b9050866020015115612c7a578651612c77903083612dd1565b92505b8651612c879087876138a6565b866020015180612c9b575060008760800151115b15612cb0578651612cad903083612dd1565b91505b608087015115612ceb576000612cce88612cc985612519565b611d30565b9050612cdd8860800151612519565b811315612ce957600080fd5b505b866020015115612d0c57612d02611d20838561304c565b9350505050610a71565b612d0285612519565b5050509392505050565b6040516001600160a01b0383169082156108fc029083906000818181858888f19350505050158015612d55573d6000803e3d6000fd5b505050565b826001600160a01b031663a9059cbb83836040518363ffffffff1660e01b815260040180836001600160a01b0316815260200182815260200192505050600060405180830381600087803b158015612db157600080fd5b505af1158015612dc5573d6000803e3d6000fd5b50505050612d556138fe565b604080516001600160a01b0384811660248084019190915283518084039091018152604490920183526020820180516001600160e01b03166001600160e01b0319861617815292518251600094859485948a16939092909182918083835b60208310612e4e5780518252601f199092019160209182019101612e2f565b6001836020036101000a038019825116818451168082178552505050505050905001915050600060405180830381855afa9150503d8060008114612eae576040519150601f19603f3d011682016040523d82523d6000602084013e612eb3565b606091505b509150915081612ec257600080fd5b808060200190516020811015612ed757600080fd5b50519695505050505050565b612eeb61396b565b54825160405163e8eda9df60e01b81526001600160a01b039092169163e8eda9df91612f20918590309060009060040161489e565b600060405180830381600087803b158015612f3a57600080fd5b505af1158015610634573d6000803e3d6000fd5b815160405163140e25ad60e31b81526000916001600160a01b03169063a0712d6890612f7e9085906004016148f1565b602060405180830381600087803b158015612f9857600080fd5b505af1158015612fac573d6000803e3d6000fd5b505050506040513d601f19601f82011682018060405250810190612fd09190614415565b90508015612d555760405162461bcd60e51b815260040161017a90614920565b81600001516001600160a01b0316631249c58b826040518263ffffffff1660e01b81526004016000604051808303818588803b15801561302f57600080fd5b505af1158015613043573d6000803e3d6000fd5b50505050505050565b6000828211156130a3576040805162461bcd60e51b815260206004820152601e60248201527f536166654d6174683a207375627472616374696f6e206f766572666c6f770000604482015290519081900360640190fd5b50900390565b6000806002866060015160058111156130be57fe5b14156130d6576130cf868585613978565b9050613133565b60006130e186610f09565b90506005876060015160058111156130f557fe5b141561310d57613106818686613a35565b9150613131565b60018760600151600581111561311f57fe5b141561007b5761310687828787613aeb565b505b612c226103ea82612519565b60008061314a613be9565b6000938452602052505060409020546001600160a01b031690565b60008060006131748685613bf6565b50915091506000613183613c8c565b6001600160a01b03881660009081526020829052604081209192506131a88589610e93565b9050806000131580156131c157506001600160601b0381105b6131ca57600080fd5b81546bffffffffffffffffffffffff19166001600160601b038216176fffffffffffffffffffffffffffffffff60601b1916600160601b6001600160801b0386160217825563ffffffff871061321f57600080fd5b50805463ffffffff8716600160e01b026001600160e01b03909116179055509150509392505050565b60e0840151600090156133095773__MigrateIncentives_____________________63e0c01a728561327d8860400151611c26565b8860e001518961010001516040518563ffffffff1660e01b81526004016132a794939291906148cb565b60206040518083038186803b1580156132bf57600080fd5b505af41580156132d3573d6000803e3d6000fd5b505050506040513d601f19601f820116820180604052508101906132f79190614415565b600060e0870181905261010087015290505b61334b61334486610100015161333e670de0b6b3a7640000613338886133328c60400151611c26565b90613c99565b90613cf2565b9061304c565b8290613d59565b9050613363670de0b6b3a76400006133388486613c99565b85610100018181525050949350505050565b600080613380612837565b6001600160a01b0384166000908152602082905260409020805491925090600160f81b900460ff16156133dc576133b5613db3565b6001600160a01b038086166000908152602092909252604090912054169250610bb0915050565b600092505050610bb0565b6108b973cfeaead4947f0705a14ec42ac3d44129e1ef3ed58383612d5a565b815151811061341457600080fd5b600082606001511161342557600080fd5b60008260000151828151811061343757fe5b602002602001015190506002600381111561344e57fe5b8160a00151600381111561345e57fe5b1415801561347c575060038160a00151600381111561347957fe5b14155b61348557600080fd5b606083018051600019019052600080805b8551518110156134f8576000866000015182815181106134b257fe5b602002602001015190508281608001511180156134df575060028160a0015160038111156134dc57fe5b14155b156134ef57806080015192508193505b50600101613496565b5081841415613511575050600260a091909101526108b9565b60008560000151838151811061352357fe5b602090810291909101015160808581018051918301805190915252600160a09182015260029401939093525050505050565b81511580159061356857508151613fff10155b61357157600080fd5b8160200151600010801561358e5750602082015164ffffffffff10155b61359757600080fd5b816040015160001080156135b057506040820151600810155b6135b957600080fd5b60608201516a7fffffffffffffffffffff19138015906135e8575060608201516a7fffffffffffffffffffff12155b6135f157600080fd5b8151815460208401516040850151606090950151600a0b6affffffffffffffffffffff16600160401b0272ffffffffffffffffffffff00000000000000001960ff909616600160381b0267ff000000000000001964ffffffffff909316620100000266ffffffffff00001961ffff90961661ffff19909516949094179490941692909217169190911792909216919091179055565b60008060008061369588613dc0565b90508415806136a357508085115b156136ac578094505b86806136bc575060008860600151125b965061ffff8616156136cd57600080fd5b50509451939560109390931c60f09490941b9390931793509150565b600080610ea9600d5b6000620f424082601a81111561370457fe5b0192915050565b60008161371a57506000610ea9565b6000821361372757600080fd5b600061373284610f09565b9050600061374382600001516137fa565b9050600281056b033b2e3c9fd0803ce80000006001600160ff1b038290030585131561376e57600080fd5b81816b033b2e3c9fd0803ce80000008702018161378757fe5b059695505050505050565b6000613fff8411156137a357600080fd5b64ffffffffff8311156137b557600080fd5b60088211156137c357600080fd5b5067ffff000000000000603084901b1665ffffffffff00600884901b161760ff8216179392505050565b600080610ea9600f6136f2565b6000610bad61380761396b565b5460405163d15e005360e01b81526001600160a01b039091169063d15e00539061383590869060040161467e565b60206040518083038186803b15801561384d57600080fd5b505afa158015613861573d6000803e3d6000fd5b505050506040513d601f19601f82011682018060405250810190611d209190614415565b60008082121561389f5761389882610eaf565b9050610bb0565b5080610bb0565b604080516323b872dd60e01b81526001600160a01b038481166004830152306024830152604482018490529151918516916323b872dd9160648082019260009290919082900301818387803b158015612db157600080fd5b600061390861408e565b3d801561391c576020811461392557600080fd5b60019250613930565b60206000833e815192505b50816108b9576040805162461bcd60e51b8152602060048201526005602482015264045524332360dc1b604482015290519081900360640190fd5b600080610ea960136136f2565b825160405163db006a7560e01b8152600091479183916001600160a01b03169063db006a75906139ac9087906004016148f1565b602060405180830381600087803b1580156139c657600080fd5b505af11580156139da573d6000803e3d6000fd5b505050506040513d601f19601f820116820180604052508101906139fe9190614415565b90508015613a1e5760405162461bcd60e51b815260040161017a90614963565b47613a29818461304c565b9350612d158685612d1f565b6000613a55613a508560000151613a4b85612519565b612b9a565b611c26565b9050613a5f61396b565b548451604051631a4ca37b60e21b81526001600160a01b03909216916369328dec91613a91918590889060040161487b565b602060405180830381600087803b158015613aab57600080fd5b505af1158015613abf573d6000803e3d6000fd5b505050506040513d601f19601f82011682018060405250810190613ae39190614415565b509392505050565b82516000908190613b0490306370a0823160e01b612dd1565b9050600086600001516001600160a01b031663db006a75856040518263ffffffff1660e01b8152600401613b3891906148f1565b602060405180830381600087803b158015613b5257600080fd5b505af1158015613b66573d6000803e3d6000fd5b505050506040513d601f19601f82011682018060405250810190613b8a9190614415565b90508015613baa5760405162461bcd60e51b815260040161017a90614963565b8551600090613bc190306370a0823160e01b612dd1565b9050613bcd818461304c565b9350613bde87600001518786612d5a565b505050949350505050565b600080610ea960036136f2565b6000806000613c0485613e2d565b919450925090508084118015613c1a5750600081115b8015613c265750600083115b15613c85576000613c368661163a565b5050509150506000613c61613c586305f5e10084613c9990919063ffffffff16565b84880387613e89565b9050613c6d8482613d59565b93506001600160801b038410613c8257600080fd5b50505b9250925092565b600080610ea960116136f2565b600082613ca857506000610ea9565b82820282848281613cb557fe5b0414610a715760405162461bcd60e51b8152600401808060200182810382526021815260200180614bdc6021913960400191505060405180910390fd5b6000808211613d48576040805162461bcd60e51b815260206004820152601a60248201527f536166654d6174683a206469766973696f6e206279207a65726f000000000000604482015290519081900360640190fd5b818381613d5157fe5b049392505050565b600082820183811015610a71576040805162461bcd60e51b815260206004820152601b60248201527f536166654d6174683a206164646974696f6e206f766572666c6f770000000000604482015290519081900360640190fd5b600080610ea960126136f2565b6000808260400151118015613dda57506040820151600810155b613de357600080fd5b6040820151600210613dfa57506020810151610bb0565b6000613e0c6001846040015103613eab565b6020840151909150610a71906276a70090613e27908461304c565b90613d59565b600080600080613e3b613c8c565b6001600160a01b0395909516600090815260209590955250506040909220546001600160601b03811693600160601b82046001600160801b03169350600160e01b90910463ffffffff169150565b6000610f4d826133386301da9c00818861333289670de0b6b3a7640000613c99565b60008160011415613ec057506276a700610bb0565b8160021415613ed3575062ed4e00610bb0565b8160031415613ee757506301da9c00610bb0565b8160041415613efb57506303b53800610bb0565b8160051415613f0f57506309450c00610bb0565b8160061415613f23575063128a1800610bb0565b8160071415613f3757506325143000610bb0565b60405162461bcd60e51b815260040161017a90614983565b604051806101200160405280600061ffff16815260200160008152602001600081526020016000815260200160008152602001600081526020016000815260200160008152602001600081525090565b6040805160a08101825260008082526020820181905291810182905260608101829052608081019190915290565b6040518060800160405280606081526020016060815260200160008152602001600081525090565b6040518060c0016040528060008152602001600081526020016000815260200160008152602001600081526020016000600381111561403057fe5b905290565b604051806060016040528060006001600160a01b0316815260200160008152602001600081525090565b6040805160a0810182526000808252602082018190529181018290529060608201908152602001600081525090565b60405180602001604052806001906020820280368337509192915050565b80356001600160a01b0381168114610bb057600080fd5b60008083601f8401126140d4578081fd5b5081356001600160401b038111156140ea578182fd5b602083019150836020808302850101111561410457600080fd5b9250929050565b600082601f83011261411b578081fd5b815160206001600160401b038083111561413157fe5b61413e8283850201614b97565b8381528281019086840160c0808702890186018a101561415c578788fd5b875b878110156141dd5781838c031215614174578889fd5b60408051838101818110898211171561418957fe5b82528451815288850151898201528482015191810191909152606080850151908201526080808501519082015260a0906141c4828601614204565b918101919091528552938601939181019160010161415e565b50919998505050505050505050565b80516001600160701b031981168114610bb057600080fd5b805160048110610bb057600080fd5b8051610bb081614bcb565b805160ff81168114610bb057600080fd5b600080600060408486031215614243578283fd5b61424c846140ac565b925060208401356001600160401b03811115614266578283fd5b614272868287016140c3565b9497909650939450505050565b600080600080600060608688031215614296578081fd5b61429f866140ac565b945060208601356001600160401b03808211156142ba578283fd5b6142c689838a016140c3565b909650945060408801359150808211156142de578283fd5b818801915088601f8301126142f1578283fd5b8135818111156142ff578384fd5b896020828501011115614310578384fd5b9699959850939650602001949392505050565b600080600060408486031215614337578283fd5b614340846140ac565b925060208401356001600160401b038082111561435b578384fd5b818601915086601f83011261436e578384fd5b81358181111561437c578485fd5b87602060c083028501011115614390578485fd5b6020830194508093505050509250925092565b6000806000604084860312156143b7578081fd5b6143c0846140ac565b925060208401356001600160401b03811115614266578182fd5b6000602082840312156143eb578081fd5b8135610a7181614bba565b600060208284031215614407578081fd5b813560078110610a71578182fd5b600060208284031215614426578081fd5b5051919050565b6000806040838503121561443f578182fd5b82519150602083015161445181614bba565b809150509250929050565b600060a0828403121561446d578081fd5b60405160a081018181106001600160401b038211171561448957fe5b604052825164ffffffffff811681146144a0578283fd5b815260208301516001600160f81b0319811681146144bc578283fd5b60208201526144cd6040840161421e565b60408201526144de60608401614213565b60608201526144ef608084016141ec565b60808201529392505050565b6000806040838503121561450d578182fd5b82516001600160401b0380821115614523578384fd5b9084019060808287031215614536578384fd5b60405160808101818110838211171561454b57fe5b60405282518281111561455c578586fd5b6145688882860161410b565b82525060208301518281111561457c578586fd5b6145888882860161410b565b6020830152506040830151604082015260608301516060820152809450505050602083015190509250929050565b6000602082840312156145c7578081fd5b8135610a7181614bcb565b81835260006001600160fb1b038311156145ea578081fd5b6020830280836020870137939093016020019283525090919050565b6000815180845260208085019450808401835b8381101561467357815180518852838101518489015260408082015190890152606080820151908901526080808201519089015260a090810151906004821061465e57fe5b88015260c09096019590820190600101614619565b509495945050505050565b6001600160a01b0391909116815260200190565b6001600160a01b038581168252841660208201526060604082018190528101829052600082846080840137818301608090810191909152601f909201601f191601019392505050565b6001600160a01b0396871681529486166020860152928516604085015290841660608401528316608083015290911660a082015260c00190565b6001600160a01b03929092168252805164ffffffffff166020808401919091528101516001600160f81b03191660408084019190915281015160ff1660608084019190915281015161ffff1660808084019190915201516001600160701b03191660a082015260c00190565b600060018060a01b038716825261ffff861660208301526080604083015284516080808401526147b5610100840182614606565b90506020860151607f198483030160a08501526147d28282614606565b915050604086015160c0840152606086015160e084015282810360608401526147fc8185876145d2565b98975050505050505050565b6001600160a01b0396909616865261ffff94909416602086015260408501929092526060840152608083015260a082015260c00190565b6001600160a01b038616815261ffff8516602082015264ffffffffff84166040820152608060608201819052600090611d2590830184866145d2565b6001600160a01b0393841681526020810192909252909116604082015260600190565b6001600160a01b03948516815260208101939093529216604082015261ffff909116606082015260800190565b6001600160a01b0394909416845260208401929092526040830152606082015260800190565b90815260200190565b6020808252600c908201526b155b985d5d1a1bdc9a5e995960a21b604082015260600190565b602080825260049082015263135a5b9d60e21b604082015260600190565b6020808252600b908201526a4554482042616c616e636560a81b604082015260600190565b60208082526006908201526552656465656d60d01b604082015260600190565b6020808252600d908201526c092dcecc2d8d2c840d2dcc8caf609b1b604082015260600190565b60208082526010908201526f556e736f7274656420616374696f6e7360801b604082015260600190565b6020808252601a908201527f496e73756666696369656e7420746f6b656e2062616c616e6365000000000000604082015260600190565b6020808252600e908201526d1499595b9d1c985b9d0818d85b1b60921b604082015260600190565b60208082526008908201526709ccace4086c2e6d60c31b604082015260600190565b6020808252601a908201527f496e76616c69642074726164657320666f72206163636f756e74000000000000604082015260600190565b6020808252600a90820152692732b390372a37b5b2b760b11b604082015260600190565b602080825260119082015270092dce6eaccccd2c6d2cadce840c6c2e6d607b1b604082015260600190565b602080825260149082015273125b9cdd59999a58da595b9d0819195c1bdcda5d60621b604082015260600190565b61ffff929092168252602082015260400190565b6000808335601e19843603018112614b33578283fd5b8301803591506001600160401b03821115614b4c578283fd5b602090810192508102360382131561410457600080fd5b6000823560de19833603018112614b78578182fd5b9190910192915050565b60008235605e19833603018112614b78578182fd5b6040518181016001600160401b0381118282101715614bb257fe5b604052919050565b8015158114614bc857600080fd5b50565b61ffff81168114614bc857600080fdfe536166654d6174683a206d756c7469706c69636174696f6e206f766572666c6f77a2646970667358221220e2d3954cb46f2a2bd24df117bef9172a66a77165e441e73ffec43ac2ce2c17c564736f6c63430007060033","bytecodeSha1":"dcf0b87391e3954f5665df507c77d51069172900","compiler":{"evm_version":"istanbul","optimizer":{"enabled":true,"runs":200},"version":"0.7.6+commit.7338295f"},"contractName":"BatchAction","deployedBytecode":"60806040526004361061007b5760003560e01c80636e6a32a61161004e5780636e6a32a6146100f357806382463367146101065780638da5cb5b1461011b578063c4c96dae146101305761007b565b80630276b64b1461008057806324a3d62214610095578063541f5270146100c05780635950d8e9146100e0575b600080fd5b61009361008e36600461422f565b610157565b005b3480156100a157600080fd5b506100aa6101e7565b6040516100b7919061467e565b60405180910390f35b3480156100cc57600080fd5b506100936100db3660046143a3565b6101f6565b6100936100ee36600461427f565b61050c565b610093610101366004614323565b61063c565b34801561011257600080fd5b506100aa6107c2565b34801561012757600080fd5b506100aa6107d1565b34801561013c57600080fd5b506101456107e8565b6040516100b7969594939291906146db565b6002600a5414156101835760405162461bcd60e51b815260040161017a90614a0b565b60405180910390fd5b6002600a556001600160a01b03831633148061019e57503330145b6101ba5760405162461bcd60e51b815260040161017a906148fa565b6101c38361086e565b60006101d08484846108bd565b90506101dc8482610a78565b50506001600a555050565b6002546001600160a01b031681565b6002600a5414156102195760405162461bcd60e51b815260040161017a90614a0b565b6002600a556001600160a01b03831633148061023457503330145b6102505760405162461bcd60e51b815260040161017a906148fa565b6102598361086e565b600061026484610af9565b905060006102788583604001516000610bb5565b9050610282613f4f565b60005b848110156104da573686868381811061029a57fe5b90506020028101906102ac9190614b82565b90508115610315578686600184038181106102c357fe5b90506020028101906102d59190614b82565b6102e39060208101906145b6565b61ffff166102f460208301836145b6565b61ffff16116103155760405162461bcd60e51b815260040161017a906149aa565b60006103246040830183614b1d565b9150508061033157600080fd5b60005b8181101561037457600061034b6040850185614b1d565b8381811061035557fe5b9050602002013560f81c60ff161461036c57600080fd5b600101610334565b5061038f8961038660208501856145b6565b86919089610c47565b6103b4896103a060208501856145b6565b6103ad6040860186614b1d565b8a8a610ced565b606086018290529550600012156103ca57600080fd5b60006103ef6103ea86606001518760200151610e9390919063ffffffff16565b610eaf565b905060008113156104bd5761040a60408401602085016143da565b156104a857600061042a61042160208601866145b6565b61ffff16610ebd565b9050600061044761043e60208701876145b6565b61ffff16610f09565b905060006104558385610f1c565b905060006104638383610f55565b9050600061047c8f838c610f979092919063ffffffff16565b90508581121561049e5760405162461bcd60e51b815260040161017a90614adb565b50505050506104bd565b60808501516104b79082610e93565b60808601525b6104ca858b89600061107c565b5050600190920191506102859050565b506104e4836112f7565b6104f5576104f58387846000611304565b6104ff8684610a78565b50506001600a5550505050565b3360009081526008602052604090205460ff1661053b5760405162461bcd60e51b815260040161017a906148fa565b6105448561086e565b60006105518686866108bd565b905061055d81876113e6565b60405163550d065760e11b8152339063aa1a0cae906105869083908a9088908890600401614692565b600060405180830381600087803b1580156105a057600080fd5b505af11580156105b4573d6000803e3d6000fd5b5050505060208101516001600160f81b0319161561063457604051636ccc642f60e01b815273__$841fddfe32830bb6dbc3a02d7f16c53722$__90636ccc642f9061060390899060040161467e565b60006040518083038186803b15801561061b57600080fd5b505af415801561062f573d6000803e3d6000fd5b505050505b505050505050565b6002600a54141561065f5760405162461bcd60e51b815260040161017a90614a0b565b6002600a556001600160a01b03831633148061067a57503330145b6106965760405162461bcd60e51b815260040161017a906148fa565b61069f8361086e565b60006106aa84610af9565b90506106b4613f4f565b60005b838110156107ab57368585838181106106cc57fe5b905060c0020190506000821115610739578585600184038181106106ec57fe5b905060c00201602001602081019061070491906145b6565b61ffff1661071860408301602084016145b6565b61ffff16116107395760405162461bcd60e51b815260040161017a906149aa565b6107568761074d60408401602085016145b6565b85919087610c47565b610772878461076860208501856143f6565b84604001356114ea565b6107a2878585606085013561078d60a08701608088016143da565b61079d60c0880160a089016143da565b6115bd565b506001016106b7565b506107b68583610a78565b50506001600a55505050565b6001546001600160a01b031681565b60005464010000000090046001600160a01b031681565b73__$841fddfe32830bb6dbc3a02d7f16c53722$__73__$b21a4dc043b77aa57922ad9143a3cb040e$__73__$f6541b0d362a0c7d99a2a29cd3d373d61b$__73__$7ac922d04bd7a1b42c7f6e5f1dd89a70af$__73__$892f367d396be2b92d3b049e6e62920984$__73__$43fd92ea4ea9b72ca0014644dbfd757564$__909192939495565b6001600160a01b03811661088157600080fd5b6001600160a01b03811630141561089757600080fd5b60006108a28261163a565b5050505061ffff169050806000146108b957600080fd5b5050565b6108c5613f9f565b60006108d085610af9565b90506108da613f4f565b60006108ec8784604001516000610bb5565b905060005b85811015610a50573687878381811061090657fe5b90506020028101906109189190614b63565b905081156109875787876001840381811061092f57fe5b90506020028101906109419190614b63565b6109529060408101906020016145b6565b61ffff1661096660408301602084016145b6565b61ffff16116109875760405162461bcd60e51b815260040161017a906149aa565b6109a48961099b60408401602085016145b6565b86919088610c47565b6109b6898561076860208501856143f6565b60006109c560c0830183614b1d565b90501115610a2c5760006109f78a6109e360408501602086016145b6565b6109f060c0860186614b1d565b8a89610ced565b945090506000811215610a1657610a1685610a1183610eaf565b6116a3565b6060850151610a259082610e93565b6060860152505b610a47898686606085013561078d60a08701608088016143da565b506001016108f1565b50610a5a836112f7565b610a6b57610a6b8388836000611304565b50909150505b9392505050565b610a8281836113e6565b60208101516001600160f81b031916156108b957604051636ccc642f60e01b815273__$841fddfe32830bb6dbc3a02d7f16c53722$__90636ccc642f90610acd90859060040161467e565b60006040518083038186803b158015610ae557600080fd5b505af4158015610634573d6000803e3d6000fd5b610b01613f9f565b6000610b0c836116f2565b9050610b1781611793565b15610bad576040516337b5fc2160e11b815273__$f6541b0d362a0c7d99a2a29cd3d373d61b$__90636f6bf84290610b559086908590600401614715565b60a06040518083038186803b158015610b6d57600080fd5b505af4158015610b81573d6000803e3d6000fd5b505050506040513d601f19601f82011682018060405250810190610ba5919061445c565b915050610bb0565b90505b919050565b610bbd613fcd565b610bc5613fcd565b60ff8416610bd4579050610a71565b610bde85856117e4565b815260ff84166060820152826001600160401b0381118015610bff57600080fd5b50604051908082528060200260200182016040528015610c3957816020015b610c26613ff5565b815260200190600190039081610c1e5790505b506020820152949350505050565b8161ffff166000108015610c615750613fff61ffff831611155b610c6a57600080fd5b61ffff8216808552610c7d90829061180d565b15610caa57610c90838361ffff16611897565b61010088015260e087015260408601526020850152610cc8565b6000602085018190526040850181905260e085018190526101008501525b50506000606083018190526080830181905260a0830181905260c09092019190915250565b6000610cf7613fcd565b610d00846112f7565b15610df0578661ffff16846060015161ffff1614610d305760405162461bcd60e51b815260040161017a90614a55565b60608401518451604051633643f39b60e01b815260009273__$7ac922d04bd7a1b42c7f6e5f1dd89a70af$__92633643f39b92610d77928e9290918d908d9060040161483f565b604080518083038186803b158015610d8e57600080fd5b505af4158015610da2573d6000803e3d6000fd5b505050506040513d601f19601f82011682018060405250810190610dc6919061442d565b90935090508015610dea57602085018051600160f81b176001600160f81b03191690525b50610e88565b60405163b58f83ed60e01b815273__$7ac922d04bd7a1b42c7f6e5f1dd89a70af$__9063b58f83ed90610e2f908b908b9088908c908c90600401614781565b60006040518083038186803b158015610e4757600080fd5b505af4158015610e5b573d6000803e3d6000fd5b505050506040513d6000823e601f3d908101601f19168201604052610e8391908101906144fb565b925090505b965096945050505050565b81810182811215600083121514610ea957600080fd5b92915050565b6000610bad60001983611943565b610ec5614035565b6000806000610ed385611991565b604080516060810182526001600160a01b039093168352602083019390935260ff16600a0a918101919091529350505050919050565b610f1161405f565b610bad826001611a54565b600080610f4d8460400151610f476402540be400610f4787896020015161194390919063ffffffff16565b90611b02565b949350505050565b60006305f5e10083604001511215610f8357610f7c6001610f768585611b33565b90610e93565b9050610ea9565b610a7183610f92846001610e93565b611b33565b600081610fa657506000610a71565b60008213610fb357600080fd5b6000610fc6856000015161ffff16610f09565b9050600381606001516005811115610fda57fe5b141561100457348314610fff5760405162461bcd60e51b815260040161017a9061493e565b61101b565b8451611018908290869061ffff1686611b6b565b92505b600061102e866000015161ffff16611c13565b9050600061104b876000015161104387611c26565b849190611c39565b905060006110598383611d30565b606089015190915061106b9082610e93565b606089015293505050509392505050565b60008060008660a0015112156110cf5760006110b18760a00151610f768960c001518a60400151610e9390919063ffffffff16565b12156110cf5760405162461bcd60e51b815260040161017a90614a8c565b60008660800151121561111f5760006111018760800151610f7689606001518a60200151610e9390919063ffffffff16565b121561111f5760405162461bcd60e51b815260040161017a90614a33565b61112a868685611d60565b60808801819052606088015191935060009161114591610e93565b905080156111b257602087015161115c9082610e93565b602088015286516040516001935061ffff909116906001600160a01b038816907f5441e4a5fac93a951d782e6f1cdb82e95c8fc58561a013953d17e395c5e69b4b906111a99085906148f1565b60405180910390a35b60a08701511515806111c7575060c087015115155b1561126d5760006111f18860c00151610f768a60a001518b60400151610e9390919063ffffffff16565b9050611206888861120184611c26565b611e16565b506040880181905260c08801511561126757876000015161ffff16876001600160a01b03167f412bc13d202a2ea5119e55fec9c5e420dddb18faf186373ad9795ad4f4545aa98a60c0015160405161125e91906148f1565b60405180910390a35b60019250505b811561129a5761129a86886000015161ffff1689602001518a604001518b60e001518c6101000151611f03565b865160208801516112c79161ffff16901515806112ba5750604089015115155b879190600160fe1b612053565b6000876020015112156112ed57602085018051600160f91b176001600160f81b03191690525b5050949350505050565b6060015161ffff16151590565b60008080806113138688612252565b64ffffffffff81168c529296509094509250905061133088611793565b1561133a57600080fd5b60ff821660408901528461135957600760ff8316111561135957600080fd5b831561137c57602088018051600160f81b176001600160f81b031916905261138b565b602088018051607f60f91b1690525b6113988860800151612491565b6001600160701b031916608089015260005b83156113db5760f084901c8181146113cd576113cd8a826001600160ff1b612053565b60109490941b9390506113aa565b505050505050505050565b60006113f061250c565b6001600160a01b03831660008181526020838152604080832088518154938a0151838b015160608c015160808d015160701c600160481b027affffffffffffffffffffffffffffffffffff0000000000000000001961ffff909216600160381b0268ffff000000000000001960ff94909416600160301b0266ff0000000000001960f89690961c650100000000000265ff00000000001964ffffffffff90981664ffffffffff19909b169a909a1796909616989098179390931693909317169490941716929092179091555192935090917f6bd4b121bca854a191536a2ca891155c42ee2fb23f307fb34e8bc65cfcb5412e9190a2505050565b60006114f582612519565b905060008082121561150657600080fd5b600084600681111561151457fe5b14156115215750506115b7565b600184600681111561152f57fe5b14806115465750600384600681111561154457fe5b145b1561155f57611558858784600061252f565b90506115ab565b600284600681111561156d57fe5b14806115845750600484600681111561158257fe5b145b1561159457611558858784610f97565b60068460068111156115a257fe5b14156115ab5750805b61063485858484612606565b50505050565b60006115c884612519565b905060008112156115d857600080fd5b8215611610576116018560800151610f7687606001518860200151610e9390919063ffffffff16565b90506000811215611610575060005b608085015161161f9082612821565b60808601526116308588888561107c565b5050505050505050565b60008060008060008061164b612837565b6001600160a01b039097166000908152602097909752505060409094205461ffff81169563ffffffff62010000830481169650600160301b830416945060ff600160501b8304169350600160581b90910460d81b9150565b600081121580156116d65750806116d38360800151610f7685606001518660200151610e9390919063ffffffff16565b12155b6108b95760405162461bcd60e51b815260040161017a90614ab0565b6116fa613f9f565b600061170461250c565b6001600160a01b039390931660009081526020938452604090819020815160a081018352905464ffffffffff8116825265010000000000810460f81b6001600160f81b03191695820195909552600160301b850460ff1691810191909152600160381b840461ffff166060820152600160481b90930460701b6001600160701b03191660808401525090919050565b60004261179f836112f7565b156117c0576117ad81612844565b835164ffffffffff16109150610bb09050565b825164ffffffffff1615801590610ba55750825164ffffffffff1611159050610bb0565b606060006117f28484612862565b90506001815111611804579050610ea9565b610a7181612983565b600081158015906118205750613fff8211155b61182957600080fd5b6080830151606084015161ffff16831415611848576001915050610ea9565b6001600160701b031981161561188d5760f081901c613fff168381141561187a5750600160fe1b908116149050610ea9565b5060101b6001600160801b031916611848565b5060009392505050565b60008060008060006118a7612b3b565b6001600160a01b0388166000908152602082815260408083208a84529091529020805469ffffffffffffffffffff81169650600160501b900463ffffffff169450909150831561191357805461190c90600160701b900466ffffffffffffff16612b48565b9250611928565b8054600160701b900466ffffffffffffff1692505b54600160a81b9004600a90810b900b97939650919450925050565b8181026000198314156119735781158061196557508282828161196257fe5b05145b61196e57600080fd5b610ea9565b82158061198857508183828161198557fe5b05145b610ea957600080fd5b60008060008060006119a286612b56565b909250905060006001600160a01b0383166119c75750600090506402540be400611a49565b826001600160a01b0316631ee108336040518163ffffffff1660e01b8152600401602060405180830381600087803b158015611a0257600080fd5b505af1158015611a16573d6000803e3d6000fd5b505050506040513d601f19601f82011682018060405250810190611a3a9190614415565b905060008113611a4957600080fd5b969195509350915050565b611a5c61405f565b6000611a66612b8d565b6000858152602082815260408083208715158452825291829020825160a08101845281546001600160a01b038116825260ff600160a01b82048116151594830194909452600160b01b81048416600a0a9482019490945293945092916060830191600160a81b909104166005811115611adb57fe5b81529154600160b81b900468ffffffffffffffffff16602090920191909152949350505050565b600081600019148015611b185750600160ff1b83145b15611b2257600080fd5b818381611b2b57fe5b059392505050565b60006305f5e10083604001511415611b4c575080610ea9565b610a716305f5e100610f4785604001518561194390919063ffffffff16565b80600585606001516005811115611b7e57fe5b1415611ba3576000611b8f84610f09565b9050611b9f816000015184612b9a565b9250505b6000821315611bcf576000611bb9868685612c2c565b9050856020015115611bc9578091505b50610f4d565b600385606001516005811115611be157fe5b1415611bfe57611bf984611bf484610eaf565b612d1f565b610f4d565b8451610f4d9085611c0e85610eaf565b612d5a565b611c1b61405f565b610bad826000611a54565b600080821215611c3557600080fd5b5090565b600080600585606001516005811115611c4e57fe5b14611c60576370a0823160e01b611c69565b630ed1279f60e11b5b90506000611c7c86600001513084612dd1565b9050600586606001516005811115611c9057fe5b1415611cb7576000611ca58661ffff16610f09565b9050611cb18186612ee3565b50611d00565b600186606001516005811115611cc957fe5b1415611cde57611cd98685612f4e565b611d00565b600286606001516005811115611cf057fe5b141561007b57611cd98685612ff0565b6000611d1187600001513085612dd1565b9050611d25611d20828461304c565b612519565b979650505050505050565b60006305f5e10083604001511415611d49575080610ea9565b6040830151610a7190610f47846305f5e100611943565b6000806000611d76866000015161ffff16611c13565b90506000611d91876080015183611b3390919063ffffffff16565b905080611da657600080935093505050611e0e565b848015611db35750600081125b15611de8578651611dd59061ffff1687611dcc84610eaf565b859291906130a9565b9350611de18282611d30565b9250611e0b565b8651611dfc908390889061ffff1684611b6b565b9350611e088285611d30565b92505b50505b935093915050565b825160009042908290611e2c9061ffff1661313f565b90506000611e3f828860c0015185613165565b9050611e4d87838388613248565b93506000611e5a83613375565b90506001600160a01b03811615611ee857806001600160a01b0316631d684dd2888a60000151611e8d8c60400151611c26565b8a8d60c001518b6040518763ffffffff1660e01b8152600401611eb596959493929190614808565b600060405180830381600087803b158015611ecf57600080fd5b505af1158015611ee3573d6000803e3d6000fd5b505050505b8415611ef857611ef887866133e7565b505050509392505050565b6000611f0d612b3b565b6001600160a01b0388166000908152602082815260408083208a845290915290209091506a7fffffffffffffffffffff198612801590611f5857506a7fffffffffffffffffffff8613155b611f6157600080fd5b60008512158015611f7c575069ffffffffffffffffffff8513155b611f8557600080fd5b83611fc55766ffffffffffffff831115611f9e57600080fd5b805466ffffffffffffff60701b1916600160701b66ffffffffffffff851602178155611fdf565b8054600160501b900463ffffffff168414611fdf57600080fd5b8054600a9690960b6affffffffffffffffffffff16600160a81b026001600160a81b0369ffffffffffffffffffff90961669ffffffffffffffffffff1963ffffffff909616600160501b0263ffffffff60501b19909816979097179490941695909517939093169190911790925550505050565b8260001080156120655750613fff8311155b61206e57600080fd5b818015612082575082846060015161ffff16145b1561208c576115b7565b6080840151600090815b6001600160701b03198216156122075760f082901c613fff1686811480156120bb5750855b156120f357506080870180516001600160f01b0319861660109093029290921c919091176001600160701b0319169052506115b79050565b8681148015612100575085155b15612155576001600160f01b03198516199290921691600360fe1b8316612133576010836001600160701b031916901b92505b506001600160701b031991821660109091021c919091171660808501526115b7565b86811180156121615750855b156121bb576080888101516001600160f01b031960f08a901b88178116601086021c9690961795911b161561219557600080fd5b506001600160701b03199182166001919091016010021c919091171660808501526115b7565b86811180156121c8575085155b156121d657505050506115b7565b506001600160f01b0319821660108281029190911c93909317929190911b6001600160801b03191690600101612096565b84612214575050506115b7565b6009811061222157600080fd5b6001600160f01b031960f087901b85171660109091021c919091176001600160701b03191660808601525050505050565b6000808080808080805b8951518110156122e35760008a60000151828151811061227857fe5b6020026020010151905060038081111561228e57fe5b8160a00151600381111561229e57fe5b14156122a957600080fd5b60028160a0015160038111156122bb57fe5b141580156122cb57506060810151155b156122da576122da8b83613406565b5060010161225c565b5060005b8951518110156123865760008a60000151828151811061230357fe5b602002602001015190506002600381111561231a57fe5b8160a00151600381111561232a57fe5b141561233e5760808101516000905561237d565b60018160a00151600381111561235057fe5b1415612369576080810151806123668382613555565b50505b61237581868686613686565b919650945092505b506001016122e7565b50606089015160006123966136e9565b6001600160a01b038b1660009081526020829052604081209192505b8c60200151518110156124605760008d6020015182815181106123d157fe5b602002602001015190508060600151600014156123ee5750612458565b60028160a00151600381111561240057fe5b1415801561241e575060038160a00151600381111561241b57fe5b14155b61242757600080fd5b61243381898989613686565b919950975095506124508184876010811061244a57fe5b01613555565b600185019450505b6001016123b2565b5060108311158015612477575064ffffffffff8411155b61248057600080fd5b50939a929950975095509350505050565b6000807f7fff7fff7fff7fff7fff7fff7fff7fff7fff00000000000000000000000000008316815b6001600160701b031982161561250357600160fe1b82811614156124ed576001600160f01b03198216811c92909217916010015b6010826001600160701b031916901b91506124b9565b50909392505050565b600080610ea960016136f2565b60006001600160ff1b03821115611c3557600080fd5b60008261253e57506000610f4d565b6000831361254b57600080fd5b600061255e866000015161ffff16611c13565b905060058160600151600581111561257257fe5b141561258b5785516125889061ffff168561370b565b93505b8060200151806125985750825b156125df5785516000906125b4908390889061ffff1688611b6b565b90506125c08282611d30565b60608801519093506125d29084610e93565b606088015250610f4d9050565b6125e98185611d30565b60808701519092506125fb9083610e93565b608087015250610f4d565b600383600681111561261457fe5b148061262b5750600483600681111561262957fe5b145b806126415750600683600681111561263f57fe5b145b1561270d5761265084826116a3565b606084015161265f9082612821565b60608501528351604051632128561360e11b815260009173__$892f367d396be2b92d3b049e6e62920984$__91634250ac26916126a0918690600401614b09565b60206040518083038186803b1580156126b857600080fd5b505af41580156126cc573d6000803e3d6000fd5b505050506040513d601f19601f820116820180604052508101906126f09190614415565b60c08601519091506127029082610e93565b60c0860152506115b7565b600583600681111561271b57fe5b14156115b757816127458560c00151610f768760a001518860400151610e9390919063ffffffff16565b12156127635760405162461bcd60e51b815260040161017a906149d4565b60c08401516127729083612821565b60c085015283516040516352e73f7760e01b815260009173__$43fd92ea4ea9b72ca0014644dbfd757564$__916352e73f77916127b3918790600401614b09565b60206040518083038186803b1580156127cb57600080fd5b505af41580156127df573d6000803e3d6000fd5b505050506040513d601f19601f820116820180604052508101906128039190614415565b60608601519091506128159082610e93565b60608601525050505050565b80820382811315600083121514610ea957600080fd5b600080610ea960026136f2565b60006201518082101561285657600080fd5b50620151808106900390565b606060108260ff16111561287557600080fd5b600061287f6136e9565b6001600160a01b038516600090815260208290526040812091925060ff85166001600160401b03811180156128b357600080fd5b506040519080825280602002602001820160405280156128ed57816020015b6128da613ff5565b8152602001906001900390816128d25790505b50905060005b8560ff1681101561297957600083826010811061290c57fe5b019050600083838151811061291d57fe5b602090810291909101810151835461ffff8116825264ffffffffff620100008204169282019290925260ff600160381b8304166040820152600160401b909104600a90810b900b606082015260800191909152506001016128f3565b5095945050505050565b80516000816001600160401b038111801561299d57600080fd5b506040519080825280602002602001820160405280156129c7578160200160208202803683370190505b50905060005b82811015612a245760008482815181106129e357fe5b60200260200101519050612a04816000015182602001518360400151613792565b838381518110612a1057fe5b6020908102919091010152506001016129cd565b5060015b828110156115b757805b600081118015612a6a5750828181518110612a4957fe5b6020026020010151836001830381518110612a6057fe5b6020026020010151115b15612b3257828181518110612a7b57fe5b6020026020010151836001830381518110612a9257fe5b6020026020010151846001840381518110612aa957fe5b60200260200101858481518110612abc57fe5b6020026020010182815250828152505050848181518110612ad957fe5b6020026020010151856001830381518110612af057fe5b6020026020010151866001840381518110612b0757fe5b60200260200101878481518110612b1a57fe5b60209081029190910101919091525260001901612a32565b50600101612a28565b600080610ea960066136f2565b600881901c60ff9091161b90565b6000806000612b636137ed565b600094855260205250506040909120546001600160a01b03811692600160a01b90910460ff169150565b600080610ea960076136f2565b600081612ba957506000610ea9565b6000612bb4846137fa565b90506000612bc184613885565b9050816b019d971e4fe8401e74000001600160ff1b0381612bde57fe5b05811315612beb57600080fd5b6b033b2e3c9fd0803ce80000006b019d971e4fe8401e74000000838302010560008513612c2057612c1b81610eaf565b612c22565b805b9695505050505050565b6000808080600587606001516005811115612c4357fe5b14612c55576370a0823160e01b612c5e565b630ed1279f60e11b5b9050866020015115612c7a578651612c77903083612dd1565b92505b8651612c879087876138a6565b866020015180612c9b575060008760800151115b15612cb0578651612cad903083612dd1565b91505b608087015115612ceb576000612cce88612cc985612519565b611d30565b9050612cdd8860800151612519565b811315612ce957600080fd5b505b866020015115612d0c57612d02611d20838561304c565b9350505050610a71565b612d0285612519565b5050509392505050565b6040516001600160a01b0383169082156108fc029083906000818181858888f19350505050158015612d55573d6000803e3d6000fd5b505050565b826001600160a01b031663a9059cbb83836040518363ffffffff1660e01b815260040180836001600160a01b0316815260200182815260200192505050600060405180830381600087803b158015612db157600080fd5b505af1158015612dc5573d6000803e3d6000fd5b50505050612d556138fe565b604080516001600160a01b0384811660248084019190915283518084039091018152604490920183526020820180516001600160e01b03166001600160e01b0319861617815292518251600094859485948a16939092909182918083835b60208310612e4e5780518252601f199092019160209182019101612e2f565b6001836020036101000a038019825116818451168082178552505050505050905001915050600060405180830381855afa9150503d8060008114612eae576040519150601f19603f3d011682016040523d82523d6000602084013e612eb3565b606091505b509150915081612ec257600080fd5b808060200190516020811015612ed757600080fd5b50519695505050505050565b612eeb61396b565b54825160405163e8eda9df60e01b81526001600160a01b039092169163e8eda9df91612f20918590309060009060040161489e565b600060405180830381600087803b158015612f3a57600080fd5b505af1158015610634573d6000803e3d6000fd5b815160405163140e25ad60e31b81526000916001600160a01b03169063a0712d6890612f7e9085906004016148f1565b602060405180830381600087803b158015612f9857600080fd5b505af1158015612fac573d6000803e3d6000fd5b505050506040513d601f19601f82011682018060405250810190612fd09190614415565b90508015612d555760405162461bcd60e51b815260040161017a90614920565b81600001516001600160a01b0316631249c58b826040518263ffffffff1660e01b81526004016000604051808303818588803b15801561302f57600080fd5b505af1158015613043573d6000803e3d6000fd5b50505050505050565b6000828211156130a3576040805162461bcd60e51b815260206004820152601e60248201527f536166654d6174683a207375627472616374696f6e206f766572666c6f770000604482015290519081900360640190fd5b50900390565b6000806002866060015160058111156130be57fe5b14156130d6576130cf868585613978565b9050613133565b60006130e186610f09565b90506005876060015160058111156130f557fe5b141561310d57613106818686613a35565b9150613131565b60018760600151600581111561311f57fe5b141561007b5761310687828787613aeb565b505b612c226103ea82612519565b60008061314a613be9565b6000938452602052505060409020546001600160a01b031690565b60008060006131748685613bf6565b50915091506000613183613c8c565b6001600160a01b03881660009081526020829052604081209192506131a88589610e93565b9050806000131580156131c157506001600160601b0381105b6131ca57600080fd5b81546bffffffffffffffffffffffff19166001600160601b038216176fffffffffffffffffffffffffffffffff60601b1916600160601b6001600160801b0386160217825563ffffffff871061321f57600080fd5b50805463ffffffff8716600160e01b026001600160e01b03909116179055509150509392505050565b60e0840151600090156133095773__$b21a4dc043b77aa57922ad9143a3cb040e$__63e0c01a728561327d8860400151611c26565b8860e001518961010001516040518563ffffffff1660e01b81526004016132a794939291906148cb565b60206040518083038186803b1580156132bf57600080fd5b505af41580156132d3573d6000803e3d6000fd5b505050506040513d601f19601f820116820180604052508101906132f79190614415565b600060e0870181905261010087015290505b61334b61334486610100015161333e670de0b6b3a7640000613338886133328c60400151611c26565b90613c99565b90613cf2565b9061304c565b8290613d59565b9050613363670de0b6b3a76400006133388486613c99565b85610100018181525050949350505050565b600080613380612837565b6001600160a01b0384166000908152602082905260409020805491925090600160f81b900460ff16156133dc576133b5613db3565b6001600160a01b038086166000908152602092909252604090912054169250610bb0915050565b600092505050610bb0565b6108b973cfeaead4947f0705a14ec42ac3d44129e1ef3ed58383612d5a565b815151811061341457600080fd5b600082606001511161342557600080fd5b60008260000151828151811061343757fe5b602002602001015190506002600381111561344e57fe5b8160a00151600381111561345e57fe5b1415801561347c575060038160a00151600381111561347957fe5b14155b61348557600080fd5b606083018051600019019052600080805b8551518110156134f8576000866000015182815181106134b257fe5b602002602001015190508281608001511180156134df575060028160a0015160038111156134dc57fe5b14155b156134ef57806080015192508193505b50600101613496565b5081841415613511575050600260a091909101526108b9565b60008560000151838151811061352357fe5b602090810291909101015160808581018051918301805190915252600160a09182015260029401939093525050505050565b81511580159061356857508151613fff10155b61357157600080fd5b8160200151600010801561358e5750602082015164ffffffffff10155b61359757600080fd5b816040015160001080156135b057506040820151600810155b6135b957600080fd5b60608201516a7fffffffffffffffffffff19138015906135e8575060608201516a7fffffffffffffffffffff12155b6135f157600080fd5b8151815460208401516040850151606090950151600a0b6affffffffffffffffffffff16600160401b0272ffffffffffffffffffffff00000000000000001960ff909616600160381b0267ff000000000000001964ffffffffff909316620100000266ffffffffff00001961ffff90961661ffff19909516949094179490941692909217169190911792909216919091179055565b60008060008061369588613dc0565b90508415806136a357508085115b156136ac578094505b86806136bc575060008860600151125b965061ffff8616156136cd57600080fd5b50509451939560109390931c60f09490941b9390931793509150565b600080610ea9600d5b6000620f424082601a81111561370457fe5b0192915050565b60008161371a57506000610ea9565b6000821361372757600080fd5b600061373284610f09565b9050600061374382600001516137fa565b9050600281056b033b2e3c9fd0803ce80000006001600160ff1b038290030585131561376e57600080fd5b81816b033b2e3c9fd0803ce80000008702018161378757fe5b059695505050505050565b6000613fff8411156137a357600080fd5b64ffffffffff8311156137b557600080fd5b60088211156137c357600080fd5b5067ffff000000000000603084901b1665ffffffffff00600884901b161760ff8216179392505050565b600080610ea9600f6136f2565b6000610bad61380761396b565b5460405163d15e005360e01b81526001600160a01b039091169063d15e00539061383590869060040161467e565b60206040518083038186803b15801561384d57600080fd5b505afa158015613861573d6000803e3d6000fd5b505050506040513d601f19601f82011682018060405250810190611d209190614415565b60008082121561389f5761389882610eaf565b9050610bb0565b5080610bb0565b604080516323b872dd60e01b81526001600160a01b038481166004830152306024830152604482018490529151918516916323b872dd9160648082019260009290919082900301818387803b158015612db157600080fd5b600061390861408e565b3d801561391c576020811461392557600080fd5b60019250613930565b60206000833e815192505b50816108b9576040805162461bcd60e51b8152602060048201526005602482015264045524332360dc1b604482015290519081900360640190fd5b600080610ea960136136f2565b825160405163db006a7560e01b8152600091479183916001600160a01b03169063db006a75906139ac9087906004016148f1565b602060405180830381600087803b1580156139c657600080fd5b505af11580156139da573d6000803e3d6000fd5b505050506040513d601f19601f820116820180604052508101906139fe9190614415565b90508015613a1e5760405162461bcd60e51b815260040161017a90614963565b47613a29818461304c565b9350612d158685612d1f565b6000613a55613a508560000151613a4b85612519565b612b9a565b611c26565b9050613a5f61396b565b548451604051631a4ca37b60e21b81526001600160a01b03909216916369328dec91613a91918590889060040161487b565b602060405180830381600087803b158015613aab57600080fd5b505af1158015613abf573d6000803e3d6000fd5b505050506040513d601f19601f82011682018060405250810190613ae39190614415565b509392505050565b82516000908190613b0490306370a0823160e01b612dd1565b9050600086600001516001600160a01b031663db006a75856040518263ffffffff1660e01b8152600401613b3891906148f1565b602060405180830381600087803b158015613b5257600080fd5b505af1158015613b66573d6000803e3d6000fd5b505050506040513d601f19601f82011682018060405250810190613b8a9190614415565b90508015613baa5760405162461bcd60e51b815260040161017a90614963565b8551600090613bc190306370a0823160e01b612dd1565b9050613bcd818461304c565b9350613bde87600001518786612d5a565b505050949350505050565b600080610ea960036136f2565b6000806000613c0485613e2d565b919450925090508084118015613c1a5750600081115b8015613c265750600083115b15613c85576000613c368661163a565b5050509150506000613c61613c586305f5e10084613c9990919063ffffffff16565b84880387613e89565b9050613c6d8482613d59565b93506001600160801b038410613c8257600080fd5b50505b9250925092565b600080610ea960116136f2565b600082613ca857506000610ea9565b82820282848281613cb557fe5b0414610a715760405162461bcd60e51b8152600401808060200182810382526021815260200180614bdc6021913960400191505060405180910390fd5b6000808211613d48576040805162461bcd60e51b815260206004820152601a60248201527f536166654d6174683a206469766973696f6e206279207a65726f000000000000604482015290519081900360640190fd5b818381613d5157fe5b049392505050565b600082820183811015610a71576040805162461bcd60e51b815260206004820152601b60248201527f536166654d6174683a206164646974696f6e206f766572666c6f770000000000604482015290519081900360640190fd5b600080610ea960126136f2565b6000808260400151118015613dda57506040820151600810155b613de357600080fd5b6040820151600210613dfa57506020810151610bb0565b6000613e0c6001846040015103613eab565b6020840151909150610a71906276a70090613e27908461304c565b90613d59565b600080600080613e3b613c8c565b6001600160a01b0395909516600090815260209590955250506040909220546001600160601b03811693600160601b82046001600160801b03169350600160e01b90910463ffffffff169150565b6000610f4d826133386301da9c00818861333289670de0b6b3a7640000613c99565b60008160011415613ec057506276a700610bb0565b8160021415613ed3575062ed4e00610bb0565b8160031415613ee757506301da9c00610bb0565b8160041415613efb57506303b53800610bb0565b8160051415613f0f57506309450c00610bb0565b8160061415613f23575063128a1800610bb0565b8160071415613f3757506325143000610bb0565b60405162461bcd60e51b815260040161017a90614983565b604051806101200160405280600061ffff16815260200160008152602001600081526020016000815260200160008152602001600081526020016000815260200160008152602001600081525090565b6040805160a08101825260008082526020820181905291810182905260608101829052608081019190915290565b6040518060800160405280606081526020016060815260200160008152602001600081525090565b6040518060c0016040528060008152602001600081526020016000815260200160008152602001600081526020016000600381111561403057fe5b905290565b604051806060016040528060006001600160a01b0316815260200160008152602001600081525090565b6040805160a0810182526000808252602082018190529181018290529060608201908152602001600081525090565b60405180602001604052806001906020820280368337509192915050565b80356001600160a01b0381168114610bb057600080fd5b60008083601f8401126140d4578081fd5b5081356001600160401b038111156140ea578182fd5b602083019150836020808302850101111561410457600080fd5b9250929050565b600082601f83011261411b578081fd5b815160206001600160401b038083111561413157fe5b61413e8283850201614b97565b8381528281019086840160c0808702890186018a101561415c578788fd5b875b878110156141dd5781838c031215614174578889fd5b60408051838101818110898211171561418957fe5b82528451815288850151898201528482015191810191909152606080850151908201526080808501519082015260a0906141c4828601614204565b918101919091528552938601939181019160010161415e565b50919998505050505050505050565b80516001600160701b031981168114610bb057600080fd5b805160048110610bb057600080fd5b8051610bb081614bcb565b805160ff81168114610bb057600080fd5b600080600060408486031215614243578283fd5b61424c846140ac565b925060208401356001600160401b03811115614266578283fd5b614272868287016140c3565b9497909650939450505050565b600080600080600060608688031215614296578081fd5b61429f866140ac565b945060208601356001600160401b03808211156142ba578283fd5b6142c689838a016140c3565b909650945060408801359150808211156142de578283fd5b818801915088601f8301126142f1578283fd5b8135818111156142ff578384fd5b896020828501011115614310578384fd5b9699959850939650602001949392505050565b600080600060408486031215614337578283fd5b614340846140ac565b925060208401356001600160401b038082111561435b578384fd5b818601915086601f83011261436e578384fd5b81358181111561437c578485fd5b87602060c083028501011115614390578485fd5b6020830194508093505050509250925092565b6000806000604084860312156143b7578081fd5b6143c0846140ac565b925060208401356001600160401b03811115614266578182fd5b6000602082840312156143eb578081fd5b8135610a7181614bba565b600060208284031215614407578081fd5b813560078110610a71578182fd5b600060208284031215614426578081fd5b5051919050565b6000806040838503121561443f578182fd5b82519150602083015161445181614bba565b809150509250929050565b600060a0828403121561446d578081fd5b60405160a081018181106001600160401b038211171561448957fe5b604052825164ffffffffff811681146144a0578283fd5b815260208301516001600160f81b0319811681146144bc578283fd5b60208201526144cd6040840161421e565b60408201526144de60608401614213565b60608201526144ef608084016141ec565b60808201529392505050565b6000806040838503121561450d578182fd5b82516001600160401b0380821115614523578384fd5b9084019060808287031215614536578384fd5b60405160808101818110838211171561454b57fe5b60405282518281111561455c578586fd5b6145688882860161410b565b82525060208301518281111561457c578586fd5b6145888882860161410b565b6020830152506040830151604082015260608301516060820152809450505050602083015190509250929050565b6000602082840312156145c7578081fd5b8135610a7181614bcb565b81835260006001600160fb1b038311156145ea578081fd5b6020830280836020870137939093016020019283525090919050565b6000815180845260208085019450808401835b8381101561467357815180518852838101518489015260408082015190890152606080820151908901526080808201519089015260a090810151906004821061465e57fe5b88015260c09096019590820190600101614619565b509495945050505050565b6001600160a01b0391909116815260200190565b6001600160a01b038581168252841660208201526060604082018190528101829052600082846080840137818301608090810191909152601f909201601f191601019392505050565b6001600160a01b0396871681529486166020860152928516604085015290841660608401528316608083015290911660a082015260c00190565b6001600160a01b03929092168252805164ffffffffff166020808401919091528101516001600160f81b03191660408084019190915281015160ff1660608084019190915281015161ffff1660808084019190915201516001600160701b03191660a082015260c00190565b600060018060a01b038716825261ffff861660208301526080604083015284516080808401526147b5610100840182614606565b90506020860151607f198483030160a08501526147d28282614606565b915050604086015160c0840152606086015160e084015282810360608401526147fc8185876145d2565b98975050505050505050565b6001600160a01b0396909616865261ffff94909416602086015260408501929092526060840152608083015260a082015260c00190565b6001600160a01b038616815261ffff8516602082015264ffffffffff84166040820152608060608201819052600090611d2590830184866145d2565b6001600160a01b0393841681526020810192909252909116604082015260600190565b6001600160a01b03948516815260208101939093529216604082015261ffff909116606082015260800190565b6001600160a01b0394909416845260208401929092526040830152606082015260800190565b90815260200190565b6020808252600c908201526b155b985d5d1a1bdc9a5e995960a21b604082015260600190565b602080825260049082015263135a5b9d60e21b604082015260600190565b6020808252600b908201526a4554482042616c616e636560a81b604082015260600190565b60208082526006908201526552656465656d60d01b604082015260600190565b6020808252600d908201526c092dcecc2d8d2c840d2dcc8caf609b1b604082015260600190565b60208082526010908201526f556e736f7274656420616374696f6e7360801b604082015260600190565b6020808252601a908201527f496e73756666696369656e7420746f6b656e2062616c616e6365000000000000604082015260600190565b6020808252600e908201526d1499595b9d1c985b9d0818d85b1b60921b604082015260600190565b60208082526008908201526709ccace4086c2e6d60c31b604082015260600190565b6020808252601a908201527f496e76616c69642074726164657320666f72206163636f756e74000000000000604082015260600190565b6020808252600a90820152692732b390372a37b5b2b760b11b604082015260600190565b602080825260119082015270092dce6eaccccd2c6d2cadce840c6c2e6d607b1b604082015260600190565b602080825260149082015273125b9cdd59999a58da595b9d0819195c1bdcda5d60621b604082015260600190565b61ffff929092168252602082015260400190565b6000808335601e19843603018112614b33578283fd5b8301803591506001600160401b03821115614b4c578283fd5b602090810192508102360382131561410457600080fd5b6000823560de19833603018112614b78578182fd5b9190910192915050565b60008235605e19833603018112614b78578182fd5b6040518181016001600160401b0381118282101715614bb257fe5b604052919050565b8015158114614bc857600080fd5b50565b61ffff81168114614bc857600080fdfe536166654d6174683a206d756c7469706c69636174696f6e206f766572666c6f77a2646970667358221220e2d3954cb46f2a2bd24df117bef9172a66a77165e441e73ffec43ac2ce2c17c564736f6c63430007060033","language":"Solidity","natspec":{"kind":"dev","methods":{"batchBalanceAction(address,(uint8,uint16,uint256,uint256,bool,bool)[])":{"details":"emit:CashBalanceChange, emit:nTokenSupplyChangeauth:msg.sender auth:ERC1155","notice":"Executes a batch of balance transfers including minting and redeeming nTokens.","params":{"account":"the account for the action","actions":"array of balance actions to take, must be sorted by currency id"}},"batchBalanceAndTradeAction(address,(uint8,uint16,uint256,uint256,bool,bool,bytes32[])[])":{"details":"emit:CashBalanceChange, emit:nTokenSupplyChange, emit:LendBorrowTrade, emit:AddRemoveLiquidity,emit:SettledCashDebt, emit:nTokenResidualPurchase, emit:ReserveFeeAccruedauth:msg.sender auth:ERC1155","notice":"Executes a batch of balance transfers and trading actions","params":{"account":"the account for the action","actions":"array of balance actions with trades to take, must be sorted by currency id"}},"batchBalanceAndTradeActionWithCallback(address,(uint8,uint16,uint256,uint256,bool,bool,bytes32[])[],bytes)":{"details":"emit:CashBalanceChange, emit:nTokenSupplyChange, emit:LendBorrowTrade, emit:AddRemoveLiquidity,emit:SettledCashDebt, emit:nTokenResidualPurchase, emit:ReserveFeeAccruedauth:authorizedCallbackContract","notice":"Executes a batch of balance transfers and trading actions via an authorized callback contract. This can be used as a \"flash loan\" facility for special contracts that migrate assets between protocols or perform other actions on behalf of the user. Contracts can borrow from Notional and receive a callback prior to an FC check, this can be useful if the contract needs to perform a trade or repay a debt on a different protocol before depositing collateral. Since Notional's AMM will never be as capital efficient or gas efficient as other flash loan facilities, this method requires whitelisting and will mainly be used for contracts that make migrating assets a better user experience.","params":{"account":"the account that will take all the actions","actions":"array of balance actions with trades to take, must be sorted by currency id","callbackData":"arbitrary bytes to be passed backed to the caller in the callback"}},"batchLend(address,(uint16,bool,bytes32[])[])":{"details":"Note that this method does not work with native ETH because it requires the ability to pull payment from an ERC20 token. Therefore, this method is marked as nonpayable. It will still work with cETH or aETH.emit:CashBalanceChange, emit:LendBorrowTrade emit:SettledCashDebtauth:msg.sender auth:ERC1155","notice":"Executes a batch of lending actions. This is different from batchBalanceAndTrade because it always pulls the required amount of tokens to get an account to a cash balance of zero. It reduces the gas costs for lending because there is no second token transfer where residual balances are sent back to the account.","params":{"account":"the account for the action","actions":"array of batch lending actions"}},"getLibInfo()":{"notice":"Get a list of deployed library addresses (sorted by library name)"}},"version":1},"opcodes":"PUSH1 0x80 PUSH1 0x40 MSTORE PUSH1 0x4 CALLDATASIZE LT PUSH2 0x7B JUMPI PUSH1 0x0 CALLDATALOAD PUSH1 0xE0 SHR DUP1 PUSH4 0x6E6A32A6 GT PUSH2 0x4E JUMPI DUP1 PUSH4 0x6E6A32A6 EQ PUSH2 0xF3 JUMPI DUP1 PUSH4 0x82463367 EQ PUSH2 0x106 JUMPI DUP1 PUSH4 0x8DA5CB5B EQ PUSH2 0x11B JUMPI DUP1 PUSH4 0xC4C96DAE EQ PUSH2 0x130 JUMPI PUSH2 0x7B JUMP JUMPDEST DUP1 PUSH4 0x276B64B EQ PUSH2 0x80 JUMPI DUP1 PUSH4 0x24A3D622 EQ PUSH2 0x95 JUMPI DUP1 PUSH4 0x541F5270 EQ PUSH2 0xC0 JUMPI DUP1 PUSH4 0x5950D8E9 EQ PUSH2 0xE0 JUMPI JUMPDEST PUSH1 0x0 DUP1 REVERT JUMPDEST PUSH2 0x93 PUSH2 0x8E CALLDATASIZE PUSH1 0x4 PUSH2 0x422F JUMP JUMPDEST PUSH2 0x157 JUMP JUMPDEST STOP JUMPDEST CALLVALUE DUP1 ISZERO PUSH2 0xA1 JUMPI PUSH1 0x0 DUP1 REVERT JUMPDEST POP PUSH2 0xAA PUSH2 0x1E7 JUMP JUMPDEST PUSH1 0x40 MLOAD PUSH2 0xB7 SWAP2 SWAP1 PUSH2 0x467E JUMP JUMPDEST PUSH1 0x40 MLOAD DUP1 SWAP2 SUB SWAP1 RETURN JUMPDEST CALLVALUE DUP1 ISZERO PUSH2 0xCC JUMPI PUSH1 0x0 DUP1 REVERT JUMPDEST POP PUSH2 0x93 PUSH2 0xDB CALLDATASIZE PUSH1 0x4 PUSH2 0x43A3 JUMP JUMPDEST PUSH2 0x1F6 JUMP JUMPDEST PUSH2 0x93 PUSH2 0xEE CALLDATASIZE PUSH1 0x4 PUSH2 0x427F JUMP JUMPDEST PUSH2 0x50C JUMP JUMPDEST PUSH2 0x93 PUSH2 0x101 CALLDATASIZE PUSH1 0x4 PUSH2 0x4323 JUMP JUMPDEST PUSH2 0x63C JUMP JUMPDEST CALLVALUE DUP1 ISZERO PUSH2 0x112 JUMPI PUSH1 0x0 DUP1 REVERT JUMPDEST POP PUSH2 0xAA PUSH2 0x7C2 JUMP JUMPDEST CALLVALUE DUP1 ISZERO PUSH2 0x127 JUMPI PUSH1 0x0 DUP1 REVERT JUMPDEST POP PUSH2 0xAA PUSH2 0x7D1 JUMP JUMPDEST CALLVALUE DUP1 ISZERO PUSH2 0x13C JUMPI PUSH1 0x0 DUP1 REVERT JUMPDEST POP PUSH2 0x145 PUSH2 0x7E8 JUMP JUMPDEST PUSH1 0x40 MLOAD PUSH2 0xB7 SWAP7 SWAP6 SWAP5 SWAP4 SWAP3 SWAP2 SWAP1 PUSH2 0x46DB JUMP JUMPDEST PUSH1 0x2 PUSH1 0xA SLOAD EQ ISZERO PUSH2 0x183 JUMPI PUSH1 0x40 MLOAD PUSH3 0x461BCD PUSH1 0xE5 SHL DUP2 MSTORE PUSH1 0x4 ADD PUSH2 0x17A SWAP1 PUSH2 0x4A0B JUMP JUMPDEST PUSH1 0x40 MLOAD DUP1 SWAP2 SUB SWAP1 REVERT JUMPDEST PUSH1 0x2 PUSH1 0xA SSTORE PUSH1 0x1 PUSH1 0x1 PUSH1 0xA0 SHL SUB DUP4 AND CALLER EQ DUP1 PUSH2 0x19E JUMPI POP CALLER ADDRESS EQ JUMPDEST PUSH2 0x1BA JUMPI PUSH1 0x40 MLOAD PUSH3 0x461BCD PUSH1 0xE5 SHL DUP2 MSTORE PUSH1 0x4 ADD PUSH2 0x17A SWAP1 PUSH2 0x48FA JUMP JUMPDEST PUSH2 0x1C3 DUP4 PUSH2 0x86E JUMP JUMPDEST PUSH1 0x0 PUSH2 0x1D0 DUP5 DUP5 DUP5 PUSH2 0x8BD JUMP JUMPDEST SWAP1 POP PUSH2 0x1DC DUP5 DUP3 PUSH2 0xA78 JUMP JUMPDEST POP POP PUSH1 0x1 PUSH1 0xA SSTORE POP POP JUMP JUMPDEST PUSH1 0x2 SLOAD PUSH1 0x1 PUSH1 0x1 PUSH1 0xA0 SHL SUB AND DUP2 JUMP JUMPDEST PUSH1 0x2 PUSH1 0xA SLOAD EQ ISZERO PUSH2 0x219 JUMPI PUSH1 0x40 MLOAD PUSH3 0x461BCD PUSH1 0xE5 SHL DUP2 MSTORE PUSH1 0x4 ADD PUSH2 0x17A SWAP1 PUSH2 0x4A0B JUMP JUMPDEST PUSH1 0x2 PUSH1 0xA SSTORE PUSH1 0x1 PUSH1 0x1 PUSH1 0xA0 SHL SUB DUP4 AND CALLER EQ DUP1 PUSH2 0x234 JUMPI POP CALLER ADDRESS EQ JUMPDEST PUSH2 0x250 JUMPI PUSH1 0x40 MLOAD PUSH3 0x461BCD PUSH1 0xE5 SHL DUP2 MSTORE PUSH1 0x4 ADD PUSH2 0x17A SWAP1 PUSH2 0x48FA JUMP JUMPDEST PUSH2 0x259 DUP4 PUSH2 0x86E JUMP JUMPDEST PUSH1 0x0 PUSH2 0x264 DUP5 PUSH2 0xAF9 JUMP JUMPDEST SWAP1 POP PUSH1 0x0 PUSH2 0x278 DUP6 DUP4 PUSH1 0x40 ADD MLOAD PUSH1 0x0 PUSH2 0xBB5 JUMP JUMPDEST SWAP1 POP PUSH2 0x282 PUSH2 0x3F4F JUMP JUMPDEST PUSH1 0x0 JUMPDEST DUP5 DUP2 LT ISZERO PUSH2 0x4DA JUMPI CALLDATASIZE DUP7 DUP7 DUP4 DUP2 DUP2 LT PUSH2 0x29A JUMPI INVALID JUMPDEST SWAP1 POP PUSH1 0x20 MUL DUP2 ADD SWAP1 PUSH2 0x2AC SWAP2 SWAP1 PUSH2 0x4B82 JUMP JUMPDEST SWAP1 POP DUP2 ISZERO PUSH2 0x315 JUMPI DUP7 DUP7 PUSH1 0x1 DUP5 SUB DUP2 DUP2 LT PUSH2 0x2C3 JUMPI INVALID JUMPDEST SWAP1 POP PUSH1 0x20 MUL DUP2 ADD SWAP1 PUSH2 0x2D5 SWAP2 SWAP1 PUSH2 0x4B82 JUMP JUMPDEST PUSH2 0x2E3 SWAP1 PUSH1 0x20 DUP2 ADD SWAP1 PUSH2 0x45B6 JUMP JUMPDEST PUSH2 0xFFFF AND PUSH2 0x2F4 PUSH1 0x20 DUP4 ADD DUP4 PUSH2 0x45B6 JUMP JUMPDEST PUSH2 0xFFFF AND GT PUSH2 0x315 JUMPI PUSH1 0x40 MLOAD PUSH3 0x461BCD PUSH1 0xE5 SHL DUP2 MSTORE PUSH1 0x4 ADD PUSH2 0x17A SWAP1 PUSH2 0x49AA JUMP JUMPDEST PUSH1 0x0 PUSH2 0x324 PUSH1 0x40 DUP4 ADD DUP4 PUSH2 0x4B1D JUMP JUMPDEST SWAP2 POP POP DUP1 PUSH2 0x331 JUMPI PUSH1 0x0 DUP1 REVERT JUMPDEST PUSH1 0x0 JUMPDEST DUP2 DUP2 LT ISZERO PUSH2 0x374 JUMPI PUSH1 0x0 PUSH2 0x34B PUSH1 0x40 DUP6 ADD DUP6 PUSH2 0x4B1D JUMP JUMPDEST DUP4 DUP2 DUP2 LT PUSH2 0x355 JUMPI INVALID JUMPDEST SWAP1 POP PUSH1 0x20 MUL ADD CALLDATALOAD PUSH1 0xF8 SHR PUSH1 0xFF AND EQ PUSH2 0x36C JUMPI PUSH1 0x0 DUP1 REVERT JUMPDEST PUSH1 0x1 ADD PUSH2 0x334 JUMP JUMPDEST POP PUSH2 0x38F DUP10 PUSH2 0x386 PUSH1 0x20 DUP6 ADD DUP6 PUSH2 0x45B6 JUMP JUMPDEST DUP7 SWAP2 SWAP1 DUP10 PUSH2 0xC47 JUMP JUMPDEST PUSH2 0x3B4 DUP10 PUSH2 0x3A0 PUSH1 0x20 DUP6 ADD DUP6 PUSH2 0x45B6 JUMP JUMPDEST PUSH2 0x3AD PUSH1 0x40 DUP7 ADD DUP7 PUSH2 0x4B1D JUMP JUMPDEST DUP11 DUP11 PUSH2 0xCED JUMP JUMPDEST PUSH1 0x60 DUP7 ADD DUP3 SWAP1 MSTORE SWAP6 POP PUSH1 0x0 SLT ISZERO PUSH2 0x3CA JUMPI PUSH1 0x0 DUP1 REVERT JUMPDEST PUSH1 0x0 PUSH2 0x3EF PUSH2 0x3EA DUP7 PUSH1 0x60 ADD MLOAD DUP8 PUSH1 0x20 ADD MLOAD PUSH2 0xE93 SWAP1 SWAP2 SWAP1 PUSH4 0xFFFFFFFF AND JUMP JUMPDEST PUSH2 0xEAF JUMP JUMPDEST SWAP1 POP PUSH1 0x0 DUP2 SGT ISZERO PUSH2 0x4BD JUMPI PUSH2 0x40A PUSH1 0x40 DUP5 ADD PUSH1 0x20 DUP6 ADD PUSH2 0x43DA JUMP JUMPDEST ISZERO PUSH2 0x4A8 JUMPI PUSH1 0x0 PUSH2 0x42A PUSH2 0x421 PUSH1 0x20 DUP7 ADD DUP7 PUSH2 0x45B6 JUMP JUMPDEST PUSH2 0xFFFF AND PUSH2 0xEBD JUMP JUMPDEST SWAP1 POP PUSH1 0x0 PUSH2 0x447 PUSH2 0x43E PUSH1 0x20 DUP8 ADD DUP8 PUSH2 0x45B6 JUMP JUMPDEST PUSH2 0xFFFF AND PUSH2 0xF09 JUMP JUMPDEST SWAP1 POP PUSH1 0x0 PUSH2 0x455 DUP4 DUP6 PUSH2 0xF1C JUMP JUMPDEST SWAP1 POP PUSH1 0x0 PUSH2 0x463 DUP4 DUP4 PUSH2 0xF55 JUMP JUMPDEST SWAP1 POP PUSH1 0x0 PUSH2 0x47C DUP16 DUP4 DUP13 PUSH2 0xF97 SWAP1 SWAP3 SWAP2 SWAP1 PUSH4 0xFFFFFFFF AND JUMP JUMPDEST SWAP1 POP DUP6 DUP2 SLT ISZERO PUSH2 0x49E JUMPI PUSH1 0x40 MLOAD PUSH3 0x461BCD PUSH1 0xE5 SHL DUP2 MSTORE PUSH1 0x4 ADD PUSH2 0x17A SWAP1 PUSH2 0x4ADB JUMP JUMPDEST POP POP POP POP POP PUSH2 0x4BD JUMP JUMPDEST PUSH1 0x80 DUP6 ADD MLOAD PUSH2 0x4B7 SWAP1 DUP3 PUSH2 0xE93 JUMP JUMPDEST PUSH1 0x80 DUP7 ADD MSTORE JUMPDEST PUSH2 0x4CA DUP6 DUP12 DUP10 PUSH1 0x0 PUSH2 0x107C JUMP JUMPDEST POP POP PUSH1 0x1 SWAP1 SWAP3 ADD SWAP2 POP PUSH2 0x285 SWAP1 POP JUMP JUMPDEST POP PUSH2 0x4E4 DUP4 PUSH2 0x12F7 JUMP JUMPDEST PUSH2 0x4F5 JUMPI PUSH2 0x4F5 DUP4 DUP8 DUP5 PUSH1 0x0 PUSH2 0x1304 JUMP JUMPDEST PUSH2 0x4FF DUP7 DUP5 PUSH2 0xA78 JUMP JUMPDEST POP POP PUSH1 0x1 PUSH1 0xA SSTORE POP POP POP POP JUMP JUMPDEST CALLER PUSH1 0x0 SWAP1 DUP2 MSTORE PUSH1 0x8 PUSH1 0x20 MSTORE PUSH1 0x40 SWAP1 KECCAK256 SLOAD PUSH1 0xFF AND PUSH2 0x53B JUMPI PUSH1 0x40 MLOAD PUSH3 0x461BCD PUSH1 0xE5 SHL DUP2 MSTORE PUSH1 0x4 ADD PUSH2 0x17A SWAP1 PUSH2 0x48FA JUMP JUMPDEST PUSH2 0x544 DUP6 PUSH2 0x86E JUMP JUMPDEST PUSH1 0x0 PUSH2 0x551 DUP7 DUP7 DUP7 PUSH2 0x8BD JUMP JUMPDEST SWAP1 POP PUSH2 0x55D DUP2 DUP8 PUSH2 0x13E6 JUMP JUMPDEST PUSH1 0x40 MLOAD PUSH4 0x550D0657 PUSH1 0xE1 SHL DUP2 MSTORE CALLER SWAP1 PUSH4 0xAA1A0CAE SWAP1 PUSH2 0x586 SWAP1 DUP4 SWAP1 DUP11 SWAP1 DUP9 SWAP1 DUP9 SWAP1 PUSH1 0x4 ADD PUSH2 0x4692 JUMP JUMPDEST PUSH1 0x0 PUSH1 0x40 MLOAD DUP1 DUP4 SUB DUP2 PUSH1 0x0 DUP8 DUP1 EXTCODESIZE ISZERO DUP1 ISZERO PUSH2 0x5A0 JUMPI PUSH1 0x0 DUP1 REVERT JUMPDEST POP GAS CALL ISZERO DUP1 ISZERO PUSH2 0x5B4 JUMPI RETURNDATASIZE PUSH1 0x0 DUP1 RETURNDATACOPY RETURNDATASIZE PUSH1 0x0 REVERT JUMPDEST POP POP POP POP PUSH1 0x20 DUP2 ADD MLOAD PUSH1 0x1 PUSH1 0x1 PUSH1 0xF8 SHL SUB NOT AND ISZERO PUSH2 0x634 JUMPI PUSH1 0x40 MLOAD PUSH4 0x6CCC642F PUSH1 0xE0 SHL DUP2 MSTORE PUSH20 0x0 SWAP1 PUSH4 0x6CCC642F SWAP1 PUSH2 0x603 SWAP1 DUP10 SWAP1 PUSH1 0x4 ADD PUSH2 0x467E JUMP JUMPDEST PUSH1 0x0 PUSH1 0x40 MLOAD DUP1 DUP4 SUB DUP2 DUP7 DUP1 EXTCODESIZE ISZERO DUP1 ISZERO PUSH2 0x61B JUMPI PUSH1 0x0 DUP1 REVERT JUMPDEST POP GAS DELEGATECALL ISZERO DUP1 ISZERO PUSH2 0x62F JUMPI RETURNDATASIZE PUSH1 0x0 DUP1 RETURNDATACOPY RETURNDATASIZE PUSH1 0x0 REVERT JUMPDEST POP POP POP POP JUMPDEST POP POP POP POP POP POP JUMP JUMPDEST PUSH1 0x2 PUSH1 0xA SLOAD EQ ISZERO PUSH2 0x65F JUMPI PUSH1 0x40 MLOAD PUSH3 0x461BCD PUSH1 0xE5 SHL DUP2 MSTORE PUSH1 0x4 ADD PUSH2 0x17A SWAP1 PUSH2 0x4A0B JUMP JUMPDEST PUSH1 0x2 PUSH1 0xA SSTORE PUSH1 0x1 PUSH1 0x1 PUSH1 0xA0 SHL SUB DUP4 AND CALLER EQ DUP1 PUSH2 0x67A JUMPI POP CALLER ADDRESS EQ JUMPDEST PUSH2 0x696 JUMPI PUSH1 0x40 MLOAD PUSH3 0x461BCD PUSH1 0xE5 SHL DUP2 MSTORE PUSH1 0x4 ADD PUSH2 0x17A SWAP1 PUSH2 0x48FA JUMP JUMPDEST PUSH2 0x69F DUP4 PUSH2 0x86E JUMP JUMPDEST PUSH1 0x0 PUSH2 0x6AA DUP5 PUSH2 0xAF9 JUMP JUMPDEST SWAP1 POP PUSH2 0x6B4 PUSH2 0x3F4F JUMP JUMPDEST PUSH1 0x0 JUMPDEST DUP4 DUP2 LT ISZERO PUSH2 0x7AB JUMPI CALLDATASIZE DUP6 DUP6 DUP4 DUP2 DUP2 LT PUSH2 0x6CC JUMPI INVALID JUMPDEST SWAP1 POP PUSH1 0xC0 MUL ADD SWAP1 POP PUSH1 0x0 DUP3 GT ISZERO PUSH2 0x739 JUMPI DUP6 DUP6 PUSH1 0x1 DUP5 SUB DUP2 DUP2 LT PUSH2 0x6EC JUMPI INVALID JUMPDEST SWAP1 POP PUSH1 0xC0 MUL ADD PUSH1 0x20 ADD PUSH1 0x20 DUP2 ADD SWAP1 PUSH2 0x704 SWAP2 SWAP1 PUSH2 0x45B6 JUMP JUMPDEST PUSH2 0xFFFF AND PUSH2 0x718 PUSH1 0x40 DUP4 ADD PUSH1 0x20 DUP5 ADD PUSH2 0x45B6 JUMP JUMPDEST PUSH2 0xFFFF AND GT PUSH2 0x739 JUMPI PUSH1 0x40 MLOAD PUSH3 0x461BCD PUSH1 0xE5 SHL DUP2 MSTORE PUSH1 0x4 ADD PUSH2 0x17A SWAP1 PUSH2 0x49AA JUMP JUMPDEST PUSH2 0x756 DUP8 PUSH2 0x74D PUSH1 0x40 DUP5 ADD PUSH1 0x20 DUP6 ADD PUSH2 0x45B6 JUMP JUMPDEST DUP6 SWAP2 SWAP1 DUP8 PUSH2 0xC47 JUMP JUMPDEST PUSH2 0x772 DUP8 DUP5 PUSH2 0x768 PUSH1 0x20 DUP6 ADD DUP6 PUSH2 0x43F6 JUMP JUMPDEST DUP5 PUSH1 0x40 ADD CALLDATALOAD PUSH2 0x14EA JUMP JUMPDEST PUSH2 0x7A2 DUP8 DUP6 DUP6 PUSH1 0x60 DUP6 ADD CALLDATALOAD PUSH2 0x78D PUSH1 0xA0 DUP8 ADD PUSH1 0x80 DUP9 ADD PUSH2 0x43DA JUMP JUMPDEST PUSH2 0x79D PUSH1 0xC0 DUP9 ADD PUSH1 0xA0 DUP10 ADD PUSH2 0x43DA JUMP JUMPDEST PUSH2 0x15BD JUMP JUMPDEST POP PUSH1 0x1 ADD PUSH2 0x6B7 JUMP JUMPDEST POP PUSH2 0x7B6 DUP6 DUP4 PUSH2 0xA78 JUMP JUMPDEST POP POP PUSH1 0x1 PUSH1 0xA SSTORE POP POP POP JUMP JUMPDEST PUSH1 0x1 SLOAD PUSH1 0x1 PUSH1 0x1 PUSH1 0xA0 SHL SUB AND DUP2 JUMP JUMPDEST PUSH1 0x0 SLOAD PUSH5 0x100000000 SWAP1 DIV PUSH1 0x1 PUSH1 0x1 PUSH1 0xA0 SHL SUB AND DUP2 JUMP JUMPDEST PUSH20 0x0 PUSH20 0x0 PUSH20 0x0 PUSH20 0x0 PUSH20 0x0 PUSH20 0x0 SWAP1 SWAP2 SWAP3 SWAP4 SWAP5 SWAP6 JUMP JUMPDEST PUSH1 0x1 PUSH1 0x1 PUSH1 0xA0 SHL SUB DUP2 AND PUSH2 0x881 JUMPI PUSH1 0x0 DUP1 REVERT JUMPDEST PUSH1 0x1 PUSH1 0x1 PUSH1 0xA0 SHL SUB DUP2 AND ADDRESS EQ ISZERO PUSH2 0x897 JUMPI PUSH1 0x0 DUP1 REVERT JUMPDEST PUSH1 0x0 PUSH2 0x8A2 DUP3 PUSH2 0x163A JUMP JUMPDEST POP POP POP POP PUSH2 0xFFFF AND SWAP1 POP DUP1 PUSH1 0x0 EQ PUSH2 0x8B9 JUMPI PUSH1 0x0 DUP1 REVERT JUMPDEST POP POP JUMP JUMPDEST PUSH2 0x8C5 PUSH2 0x3F9F JUMP JUMPDEST PUSH1 0x0 PUSH2 0x8D0 DUP6 PUSH2 0xAF9 JUMP JUMPDEST SWAP1 POP PUSH2 0x8DA PUSH2 0x3F4F JUMP JUMPDEST PUSH1 0x0 PUSH2 0x8EC DUP8 DUP5 PUSH1 0x40 ADD MLOAD PUSH1 0x0 PUSH2 0xBB5 JUMP JUMPDEST SWAP1 POP PUSH1 0x0 JUMPDEST DUP6 DUP2 LT ISZERO PUSH2 0xA50 JUMPI CALLDATASIZE DUP8 DUP8 DUP4 DUP2 DUP2 LT PUSH2 0x906 JUMPI INVALID JUMPDEST SWAP1 POP PUSH1 0x20 MUL DUP2 ADD SWAP1 PUSH2 0x918 SWAP2 SWAP1 PUSH2 0x4B63 JUMP JUMPDEST SWAP1 POP DUP2 ISZERO PUSH2 0x987 JUMPI DUP8 DUP8 PUSH1 0x1 DUP5 SUB DUP2 DUP2 LT PUSH2 0x92F JUMPI INVALID JUMPDEST SWAP1 POP PUSH1 0x20 MUL DUP2 ADD SWAP1 PUSH2 0x941 SWAP2 SWAP1 PUSH2 0x4B63 JUMP JUMPDEST PUSH2 0x952 SWAP1 PUSH1 0x40 DUP2 ADD SWAP1 PUSH1 0x20 ADD PUSH2 0x45B6 JUMP JUMPDEST PUSH2 0xFFFF AND PUSH2 0x966 PUSH1 0x40 DUP4 ADD PUSH1 0x20 DUP5 ADD PUSH2 0x45B6 JUMP JUMPDEST PUSH2 0xFFFF AND GT PUSH2 0x987 JUMPI PUSH1 0x40 MLOAD PUSH3 0x461BCD PUSH1 0xE5 SHL DUP2 MSTORE PUSH1 0x4 ADD PUSH2 0x17A SWAP1 PUSH2 0x49AA JUMP JUMPDEST PUSH2 0x9A4 DUP10 PUSH2 0x99B PUSH1 0x40 DUP5 ADD PUSH1 0x20 DUP6 ADD PUSH2 0x45B6 JUMP JUMPDEST DUP7 SWAP2 SWAP1 DUP9 PUSH2 0xC47 JUMP JUMPDEST PUSH2 0x9B6 DUP10 DUP6 PUSH2 0x768 PUSH1 0x20 DUP6 ADD DUP6 PUSH2 0x43F6 JUMP JUMPDEST PUSH1 0x0 PUSH2 0x9C5 PUSH1 0xC0 DUP4 ADD DUP4 PUSH2 0x4B1D JUMP JUMPDEST SWAP1 POP GT ISZERO PUSH2 0xA2C JUMPI PUSH1 0x0 PUSH2 0x9F7 DUP11 PUSH2 0x9E3 PUSH1 0x40 DUP6 ADD PUSH1 0x20 DUP7 ADD PUSH2 0x45B6 JUMP JUMPDEST PUSH2 0x9F0 PUSH1 0xC0 DUP7 ADD DUP7 PUSH2 0x4B1D JUMP JUMPDEST DUP11 DUP10 PUSH2 0xCED JUMP JUMPDEST SWAP5 POP SWAP1 POP PUSH1 0x0 DUP2 SLT ISZERO PUSH2 0xA16 JUMPI PUSH2 0xA16 DUP6 PUSH2 0xA11 DUP4 PUSH2 0xEAF JUMP JUMPDEST PUSH2 0x16A3 JUMP JUMPDEST PUSH1 0x60 DUP6 ADD MLOAD PUSH2 0xA25 SWAP1 DUP3 PUSH2 0xE93 JUMP JUMPDEST PUSH1 0x60 DUP7 ADD MSTORE POP JUMPDEST PUSH2 0xA47 DUP10 DUP7 DUP7 PUSH1 0x60 DUP6 ADD CALLDATALOAD PUSH2 0x78D PUSH1 0xA0 DUP8 ADD PUSH1 0x80 DUP9 ADD PUSH2 0x43DA JUMP JUMPDEST POP PUSH1 0x1 ADD PUSH2 0x8F1 JUMP JUMPDEST POP PUSH2 0xA5A DUP4 PUSH2 0x12F7 JUMP JUMPDEST PUSH2 0xA6B JUMPI PUSH2 0xA6B DUP4 DUP9 DUP4 PUSH1 0x0 PUSH2 0x1304 JUMP JUMPDEST POP SWAP1 SWAP2 POP POP JUMPDEST SWAP4 SWAP3 POP POP POP JUMP JUMPDEST PUSH2 0xA82 DUP2 DUP4 PUSH2 0x13E6 JUMP JUMPDEST PUSH1 0x20 DUP2 ADD MLOAD PUSH1 0x1 PUSH1 0x1 PUSH1 0xF8 SHL SUB NOT AND ISZERO PUSH2 0x8B9 JUMPI PUSH1 0x40 MLOAD PUSH4 0x6CCC642F PUSH1 0xE0 SHL DUP2 MSTORE PUSH20 0x0 SWAP1 PUSH4 0x6CCC642F SWAP1 PUSH2 0xACD SWAP1 DUP6 SWAP1 PUSH1 0x4 ADD PUSH2 0x467E JUMP JUMPDEST PUSH1 0x0 PUSH1 0x40 MLOAD DUP1 DUP4 SUB DUP2 DUP7 DUP1 EXTCODESIZE ISZERO DUP1 ISZERO PUSH2 0xAE5 JUMPI PUSH1 0x0 DUP1 REVERT JUMPDEST POP GAS DELEGATECALL ISZERO DUP1 ISZERO PUSH2 0x634 JUMPI RETURNDATASIZE PUSH1 0x0 DUP1 RETURNDATACOPY RETURNDATASIZE PUSH1 0x0 REVERT JUMPDEST PUSH2 0xB01 PUSH2 0x3F9F JUMP JUMPDEST PUSH1 0x0 PUSH2 0xB0C DUP4 PUSH2 0x16F2 JUMP JUMPDEST SWAP1 POP PUSH2 0xB17 DUP2 PUSH2 0x1793 JUMP JUMPDEST ISZERO PUSH2 0xBAD JUMPI PUSH1 0x40 MLOAD PUSH4 0x37B5FC21 PUSH1 0xE1 SHL DUP2 MSTORE PUSH20 0x0 SWAP1 PUSH4 0x6F6BF842 SWAP1 PUSH2 0xB55 SWAP1 DUP7 SWAP1 DUP6 SWAP1 PUSH1 0x4 ADD PUSH2 0x4715 JUMP JUMPDEST PUSH1 0xA0 PUSH1 0x40 MLOAD DUP1 DUP4 SUB DUP2 DUP7 DUP1 EXTCODESIZE ISZERO DUP1 ISZERO PUSH2 0xB6D JUMPI PUSH1 0x0 DUP1 REVERT JUMPDEST POP GAS DELEGATECALL ISZERO DUP1 ISZERO PUSH2 0xB81 JUMPI RETURNDATASIZE PUSH1 0x0 DUP1 RETURNDATACOPY RETURNDATASIZE PUSH1 0x0 REVERT JUMPDEST POP POP POP POP PUSH1 0x40 MLOAD RETURNDATASIZE PUSH1 0x1F NOT PUSH1 0x1F DUP3 ADD AND DUP3 ADD DUP1 PUSH1 0x40 MSTORE POP DUP2 ADD SWAP1 PUSH2 0xBA5 SWAP2 SWAP1 PUSH2 0x445C JUMP JUMPDEST SWAP2 POP POP PUSH2 0xBB0 JUMP JUMPDEST SWAP1 POP JUMPDEST SWAP2 SWAP1 POP JUMP JUMPDEST PUSH2 0xBBD PUSH2 0x3FCD JUMP JUMPDEST PUSH2 0xBC5 PUSH2 0x3FCD JUMP JUMPDEST PUSH1 0xFF DUP5 AND PUSH2 0xBD4 JUMPI SWAP1 POP PUSH2 0xA71 JUMP JUMPDEST PUSH2 0xBDE DUP6 DUP6 PUSH2 0x17E4 JUMP JUMPDEST DUP2 MSTORE PUSH1 0xFF DUP5 AND PUSH1 0x60 DUP3 ADD MSTORE DUP3 PUSH1 0x1 PUSH1 0x1 PUSH1 0x40 SHL SUB DUP2 GT DUP1 ISZERO PUSH2 0xBFF JUMPI PUSH1 0x0 DUP1 REVERT JUMPDEST POP PUSH1 0x40 MLOAD SWAP1 DUP1 DUP3 MSTORE DUP1 PUSH1 0x20 MUL PUSH1 0x20 ADD DUP3 ADD PUSH1 0x40 MSTORE DUP1 ISZERO PUSH2 0xC39 JUMPI DUP2 PUSH1 0x20 ADD JUMPDEST PUSH2 0xC26 PUSH2 0x3FF5 JUMP JUMPDEST DUP2 MSTORE PUSH1 0x20 ADD SWAP1 PUSH1 0x1 SWAP1 SUB SWAP1 DUP2 PUSH2 0xC1E JUMPI SWAP1 POP JUMPDEST POP PUSH1 0x20 DUP3 ADD MSTORE SWAP5 SWAP4 POP POP POP POP JUMP JUMPDEST DUP2 PUSH2 0xFFFF AND PUSH1 0x0 LT DUP1 ISZERO PUSH2 0xC61 JUMPI POP PUSH2 0x3FFF PUSH2 0xFFFF DUP4 AND GT ISZERO JUMPDEST PUSH2 0xC6A JUMPI PUSH1 0x0 DUP1 REVERT JUMPDEST PUSH2 0xFFFF DUP3 AND DUP1 DUP6 MSTORE PUSH2 0xC7D SWAP1 DUP3 SWAP1 PUSH2 0x180D JUMP JUMPDEST ISZERO PUSH2 0xCAA JUMPI PUSH2 0xC90 DUP4 DUP4 PUSH2 0xFFFF AND PUSH2 0x1897 JUMP JUMPDEST PUSH2 0x100 DUP9 ADD MSTORE PUSH1 0xE0 DUP8 ADD MSTORE PUSH1 0x40 DUP7 ADD MSTORE PUSH1 0x20 DUP6 ADD MSTORE PUSH2 0xCC8 JUMP JUMPDEST PUSH1 0x0 PUSH1 0x20 DUP6 ADD DUP2 SWAP1 MSTORE PUSH1 0x40 DUP6 ADD DUP2 SWAP1 MSTORE PUSH1 0xE0 DUP6 ADD DUP2 SWAP1 MSTORE PUSH2 0x100 DUP6 ADD MSTORE JUMPDEST POP POP PUSH1 0x0 PUSH1 0x60 DUP4 ADD DUP2 SWAP1 MSTORE PUSH1 0x80 DUP4 ADD DUP2 SWAP1 MSTORE PUSH1 0xA0 DUP4 ADD DUP2 SWAP1 MSTORE PUSH1 0xC0 SWAP1 SWAP3 ADD SWAP2 SWAP1 SWAP2 MSTORE POP JUMP JUMPDEST PUSH1 0x0 PUSH2 0xCF7 PUSH2 0x3FCD JUMP JUMPDEST PUSH2 0xD00 DUP5 PUSH2 0x12F7 JUMP JUMPDEST ISZERO PUSH2 0xDF0 JUMPI DUP7 PUSH2 0xFFFF AND DUP5 PUSH1 0x60 ADD MLOAD PUSH2 0xFFFF AND EQ PUSH2 0xD30 JUMPI PUSH1 0x40 MLOAD PUSH3 0x461BCD PUSH1 0xE5 SHL DUP2 MSTORE PUSH1 0x4 ADD PUSH2 0x17A SWAP1 PUSH2 0x4A55 JUMP JUMPDEST PUSH1 0x60 DUP5 ADD MLOAD DUP5 MLOAD PUSH1 0x40 MLOAD PUSH4 0x3643F39B PUSH1 0xE0 SHL DUP2 MSTORE PUSH1 0x0 SWAP3 PUSH20 0x0 SWAP3 PUSH4 0x3643F39B SWAP3 PUSH2 0xD77 SWAP3 DUP15 SWAP3 SWAP1 SWAP2 DUP14 SWAP1 DUP14 SWAP1 PUSH1 0x4 ADD PUSH2 0x483F JUMP JUMPDEST PUSH1 0x40 DUP1 MLOAD DUP1 DUP4 SUB DUP2 DUP7 DUP1 EXTCODESIZE ISZERO DUP1 ISZERO PUSH2 0xD8E JUMPI PUSH1 0x0 DUP1 REVERT JUMPDEST POP GAS DELEGATECALL ISZERO DUP1 ISZERO PUSH2 0xDA2 JUMPI RETURNDATASIZE PUSH1 0x0 DUP1 RETURNDATACOPY RETURNDATASIZE PUSH1 0x0 REVERT JUMPDEST POP POP POP POP PUSH1 0x40 MLOAD RETURNDATASIZE PUSH1 0x1F NOT PUSH1 0x1F DUP3 ADD AND DUP3 ADD DUP1 PUSH1 0x40 MSTORE POP DUP2 ADD SWAP1 PUSH2 0xDC6 SWAP2 SWAP1 PUSH2 0x442D JUMP JUMPDEST SWAP1 SWAP4 POP SWAP1 POP DUP1 ISZERO PUSH2 0xDEA JUMPI PUSH1 0x20 DUP6 ADD DUP1 MLOAD PUSH1 0x1 PUSH1 0xF8 SHL OR PUSH1 0x1 PUSH1 0x1 PUSH1 0xF8 SHL SUB NOT AND SWAP1 MSTORE JUMPDEST POP PUSH2 0xE88 JUMP JUMPDEST PUSH1 0x40 MLOAD PUSH4 0xB58F83ED PUSH1 0xE0 SHL DUP2 MSTORE PUSH20 0x0 SWAP1 PUSH4 0xB58F83ED SWAP1 PUSH2 0xE2F SWAP1 DUP12 SWAP1 DUP12 SWAP1 DUP9 SWAP1 DUP13 SWAP1 DUP13 SWAP1 PUSH1 0x4 ADD PUSH2 0x4781 JUMP JUMPDEST PUSH1 0x0 PUSH1 0x40 MLOAD DUP1 DUP4 SUB DUP2 DUP7 DUP1 EXTCODESIZE ISZERO DUP1 ISZERO PUSH2 0xE47 JUMPI PUSH1 0x0 DUP1 REVERT JUMPDEST POP GAS DELEGATECALL ISZERO DUP1 ISZERO PUSH2 0xE5B JUMPI RETURNDATASIZE PUSH1 0x0 DUP1 RETURNDATACOPY RETURNDATASIZE PUSH1 0x0 REVERT JUMPDEST POP POP POP POP PUSH1 0x40 MLOAD RETURNDATASIZE PUSH1 0x0 DUP3 RETURNDATACOPY PUSH1 0x1F RETURNDATASIZE SWAP1 DUP2 ADD PUSH1 0x1F NOT AND DUP3 ADD PUSH1 0x40 MSTORE PUSH2 0xE83 SWAP2 SWAP1 DUP2 ADD SWAP1 PUSH2 0x44FB JUMP JUMPDEST SWAP3 POP SWAP1 POP JUMPDEST SWAP7 POP SWAP7 SWAP5 POP POP POP POP POP JUMP JUMPDEST DUP2 DUP2 ADD DUP3 DUP2 SLT ISZERO PUSH1 0x0 DUP4 SLT ISZERO EQ PUSH2 0xEA9 JUMPI PUSH1 0x0 DUP1 REVERT JUMPDEST SWAP3 SWAP2 POP POP JUMP JUMPDEST PUSH1 0x0 PUSH2 0xBAD PUSH1 0x0 NOT DUP4 PUSH2 0x1943 JUMP JUMPDEST PUSH2 0xEC5 PUSH2 0x4035 JUMP JUMPDEST PUSH1 0x0 DUP1 PUSH1 0x0 PUSH2 0xED3 DUP6 PUSH2 0x1991 JUMP JUMPDEST PUSH1 0x40 DUP1 MLOAD PUSH1 0x60 DUP2 ADD DUP3 MSTORE PUSH1 0x1 PUSH1 0x1 PUSH1 0xA0 SHL SUB SWAP1 SWAP4 AND DUP4 MSTORE PUSH1 0x20 DUP4 ADD SWAP4 SWAP1 SWAP4 MSTORE PUSH1 0xFF AND PUSH1 0xA EXP SWAP2 DUP2 ADD SWAP2 SWAP1 SWAP2 MSTORE SWAP4 POP POP POP POP SWAP2 SWAP1 POP JUMP JUMPDEST PUSH2 0xF11 PUSH2 0x405F JUMP JUMPDEST PUSH2 0xBAD DUP3 PUSH1 0x1 PUSH2 0x1A54 JUMP JUMPDEST PUSH1 0x0 DUP1 PUSH2 0xF4D DUP5 PUSH1 0x40 ADD MLOAD PUSH2 0xF47 PUSH5 0x2540BE400 PUSH2 0xF47 DUP8 DUP10 PUSH1 0x20 ADD MLOAD PUSH2 0x1943 SWAP1 SWAP2 SWAP1 PUSH4 0xFFFFFFFF AND JUMP JUMPDEST SWAP1 PUSH2 0x1B02 JUMP JUMPDEST SWAP5 SWAP4 POP POP POP POP JUMP JUMPDEST PUSH1 0x0 PUSH4 0x5F5E100 DUP4 PUSH1 0x40 ADD MLOAD SLT ISZERO PUSH2 0xF83 JUMPI PUSH2 0xF7C PUSH1 0x1 PUSH2 0xF76 DUP6 DUP6 PUSH2 0x1B33 JUMP JUMPDEST SWAP1 PUSH2 0xE93 JUMP JUMPDEST SWAP1 POP PUSH2 0xEA9 JUMP JUMPDEST PUSH2 0xA71 DUP4 PUSH2 0xF92 DUP5 PUSH1 0x1 PUSH2 0xE93 JUMP JUMPDEST PUSH2 0x1B33 JUMP JUMPDEST PUSH1 0x0 DUP2 PUSH2 0xFA6 JUMPI POP PUSH1 0x0 PUSH2 0xA71 JUMP JUMPDEST PUSH1 0x0 DUP3 SGT PUSH2 0xFB3 JUMPI PUSH1 0x0 DUP1 REVERT JUMPDEST PUSH1 0x0 PUSH2 0xFC6 DUP6 PUSH1 0x0 ADD MLOAD PUSH2 0xFFFF AND PUSH2 0xF09 JUMP JUMPDEST SWAP1 POP PUSH1 0x3 DUP2 PUSH1 0x60 ADD MLOAD PUSH1 0x5 DUP2 GT ISZERO PUSH2 0xFDA JUMPI INVALID JUMPDEST EQ ISZERO PUSH2 0x1004 JUMPI CALLVALUE DUP4 EQ PUSH2 0xFFF JUMPI PUSH1 0x40 MLOAD PUSH3 0x461BCD PUSH1 0xE5 SHL DUP2 MSTORE PUSH1 0x4 ADD PUSH2 0x17A SWAP1 PUSH2 0x493E JUMP JUMPDEST PUSH2 0x101B JUMP JUMPDEST DUP5 MLOAD PUSH2 0x1018 SWAP1 DUP3 SWAP1 DUP7 SWAP1 PUSH2 0xFFFF AND DUP7 PUSH2 0x1B6B JUMP JUMPDEST SWAP3 POP JUMPDEST PUSH1 0x0 PUSH2 0x102E DUP7 PUSH1 0x0 ADD MLOAD PUSH2 0xFFFF AND PUSH2 0x1C13 JUMP JUMPDEST SWAP1 POP PUSH1 0x0 PUSH2 0x104B DUP8 PUSH1 0x0 ADD MLOAD PUSH2 0x1043 DUP8 PUSH2 0x1C26 JUMP JUMPDEST DUP5 SWAP2 SWAP1 PUSH2 0x1C39 JUMP JUMPDEST SWAP1 POP PUSH1 0x0 PUSH2 0x1059 DUP4 DUP4 PUSH2 0x1D30 JUMP JUMPDEST PUSH1 0x60 DUP10 ADD MLOAD SWAP1 SWAP2 POP PUSH2 0x106B SWAP1 DUP3 PUSH2 0xE93 JUMP JUMPDEST PUSH1 0x60 DUP10 ADD MSTORE SWAP4 POP POP POP POP SWAP4 SWAP3 POP POP POP JUMP JUMPDEST PUSH1 0x0 DUP1 PUSH1 0x0 DUP7 PUSH1 0xA0 ADD MLOAD SLT ISZERO PUSH2 0x10CF JUMPI PUSH1 0x0 PUSH2 0x10B1 DUP8 PUSH1 0xA0 ADD MLOAD PUSH2 0xF76 DUP10 PUSH1 0xC0 ADD MLOAD DUP11 PUSH1 0x40 ADD MLOAD PUSH2 0xE93 SWAP1 SWAP2 SWAP1 PUSH4 0xFFFFFFFF AND JUMP JUMPDEST SLT ISZERO PUSH2 0x10CF JUMPI PUSH1 0x40 MLOAD PUSH3 0x461BCD PUSH1 0xE5 SHL DUP2 MSTORE PUSH1 0x4 ADD PUSH2 0x17A SWAP1 PUSH2 0x4A8C JUMP JUMPDEST PUSH1 0x0 DUP7 PUSH1 0x80 ADD MLOAD SLT ISZERO PUSH2 0x111F JUMPI PUSH1 0x0 PUSH2 0x1101 DUP8 PUSH1 0x80 ADD MLOAD PUSH2 0xF76 DUP10 PUSH1 0x60 ADD MLOAD DUP11 PUSH1 0x20 ADD MLOAD PUSH2 0xE93 SWAP1 SWAP2 SWAP1 PUSH4 0xFFFFFFFF AND JUMP JUMPDEST SLT ISZERO PUSH2 0x111F JUMPI PUSH1 0x40 MLOAD PUSH3 0x461BCD PUSH1 0xE5 SHL DUP2 MSTORE PUSH1 0x4 ADD PUSH2 0x17A SWAP1 PUSH2 0x4A33 JUMP JUMPDEST PUSH2 0x112A DUP7 DUP7 DUP6 PUSH2 0x1D60 JUMP JUMPDEST PUSH1 0x80 DUP9 ADD DUP2 SWAP1 MSTORE PUSH1 0x60 DUP9 ADD MLOAD SWAP2 SWAP4 POP PUSH1 0x0 SWAP2 PUSH2 0x1145 SWAP2 PUSH2 0xE93 JUMP JUMPDEST SWAP1 POP DUP1 ISZERO PUSH2 0x11B2 JUMPI PUSH1 0x20 DUP8 ADD MLOAD PUSH2 0x115C SWAP1 DUP3 PUSH2 0xE93 JUMP JUMPDEST PUSH1 0x20 DUP9 ADD MSTORE DUP7 MLOAD PUSH1 0x40 MLOAD PUSH1 0x1 SWAP4 POP PUSH2 0xFFFF SWAP1 SWAP2 AND SWAP1 PUSH1 0x1 PUSH1 0x1 PUSH1 0xA0 SHL SUB DUP9 AND SWAP1 PUSH32 0x5441E4A5FAC93A951D782E6F1CDB82E95C8FC58561A013953D17E395C5E69B4B SWAP1 PUSH2 0x11A9 SWAP1 DUP6 SWAP1 PUSH2 0x48F1 JUMP JUMPDEST PUSH1 0x40 MLOAD DUP1 SWAP2 SUB SWAP1 LOG3 JUMPDEST PUSH1 0xA0 DUP8 ADD MLOAD ISZERO ISZERO DUP1 PUSH2 0x11C7 JUMPI POP PUSH1 0xC0 DUP8 ADD MLOAD ISZERO ISZERO JUMPDEST ISZERO PUSH2 0x126D JUMPI PUSH1 0x0 PUSH2 0x11F1 DUP9 PUSH1 0xC0 ADD MLOAD PUSH2 0xF76 DUP11 PUSH1 0xA0 ADD MLOAD DUP12 PUSH1 0x40 ADD MLOAD PUSH2 0xE93 SWAP1 SWAP2 SWAP1 PUSH4 0xFFFFFFFF AND JUMP JUMPDEST SWAP1 POP PUSH2 0x1206 DUP9 DUP9 PUSH2 0x1201 DUP5 PUSH2 0x1C26 JUMP JUMPDEST PUSH2 0x1E16 JUMP JUMPDEST POP PUSH1 0x40 DUP9 ADD DUP2 SWAP1 MSTORE PUSH1 0xC0 DUP9 ADD MLOAD ISZERO PUSH2 0x1267 JUMPI DUP8 PUSH1 0x0 ADD MLOAD PUSH2 0xFFFF AND DUP8 PUSH1 0x1 PUSH1 0x1 PUSH1 0xA0 SHL SUB AND PUSH32 0x412BC13D202A2EA5119E55FEC9C5E420DDDB18FAF186373AD9795AD4F4545AA9 DUP11 PUSH1 0xC0 ADD MLOAD PUSH1 0x40 MLOAD PUSH2 0x125E SWAP2 SWAP1 PUSH2 0x48F1 JUMP JUMPDEST PUSH1 0x40 MLOAD DUP1 SWAP2 SUB SWAP1 LOG3 JUMPDEST PUSH1 0x1 SWAP3 POP POP JUMPDEST DUP2 ISZERO PUSH2 0x129A JUMPI PUSH2 0x129A DUP7 DUP9 PUSH1 0x0 ADD MLOAD PUSH2 0xFFFF AND DUP10 PUSH1 0x20 ADD MLOAD DUP11 PUSH1 0x40 ADD MLOAD DUP12 PUSH1 0xE0 ADD MLOAD DUP13 PUSH2 0x100 ADD MLOAD PUSH2 0x1F03 JUMP JUMPDEST DUP7 MLOAD PUSH1 0x20 DUP9 ADD MLOAD PUSH2 0x12C7 SWAP2 PUSH2 0xFFFF AND SWAP1 ISZERO ISZERO DUP1 PUSH2 0x12BA JUMPI POP PUSH1 0x40 DUP10 ADD MLOAD ISZERO ISZERO JUMPDEST DUP8 SWAP2 SWAP1 PUSH1 0x1 PUSH1 0xFE SHL PUSH2 0x2053 JUMP JUMPDEST PUSH1 0x0 DUP8 PUSH1 0x20 ADD MLOAD SLT ISZERO PUSH2 0x12ED JUMPI PUSH1 0x20 DUP6 ADD DUP1 MLOAD PUSH1 0x1 PUSH1 0xF9 SHL OR PUSH1 0x1 PUSH1 0x1 PUSH1 0xF8 SHL SUB NOT AND SWAP1 MSTORE JUMPDEST POP POP SWAP5 SWAP4 POP POP POP POP JUMP JUMPDEST PUSH1 0x60 ADD MLOAD PUSH2 0xFFFF AND ISZERO ISZERO SWAP1 JUMP JUMPDEST PUSH1 0x0 DUP1 DUP1 DUP1 PUSH2 0x1313 DUP7 DUP9 PUSH2 0x2252 JUMP JUMPDEST PUSH5 0xFFFFFFFFFF DUP2 AND DUP13 MSTORE SWAP3 SWAP7 POP SWAP1 SWAP5 POP SWAP3 POP SWAP1 POP PUSH2 0x1330 DUP9 PUSH2 0x1793 JUMP JUMPDEST ISZERO PUSH2 0x133A JUMPI PUSH1 0x0 DUP1 REVERT JUMPDEST PUSH1 0xFF DUP3 AND PUSH1 0x40 DUP10 ADD MSTORE DUP5 PUSH2 0x1359 JUMPI PUSH1 0x7 PUSH1 0xFF DUP4 AND GT ISZERO PUSH2 0x1359 JUMPI PUSH1 0x0 DUP1 REVERT JUMPDEST DUP4 ISZERO PUSH2 0x137C JUMPI PUSH1 0x20 DUP9 ADD DUP1 MLOAD PUSH1 0x1 PUSH1 0xF8 SHL OR PUSH1 0x1 PUSH1 0x1 PUSH1 0xF8 SHL SUB NOT AND SWAP1 MSTORE PUSH2 0x138B JUMP JUMPDEST PUSH1 0x20 DUP9 ADD DUP1 MLOAD PUSH1 0x7F PUSH1 0xF9 SHL AND SWAP1 MSTORE JUMPDEST PUSH2 0x1398 DUP9 PUSH1 0x80 ADD MLOAD PUSH2 0x2491 JUMP JUMPDEST PUSH1 0x1 PUSH1 0x1 PUSH1 0x70 SHL SUB NOT AND PUSH1 0x80 DUP10 ADD MSTORE PUSH1 0x0 JUMPDEST DUP4 ISZERO PUSH2 0x13DB JUMPI PUSH1 0xF0 DUP5 SWAP1 SHR DUP2 DUP2 EQ PUSH2 0x13CD JUMPI PUSH2 0x13CD DUP11 DUP3 PUSH1 0x1 PUSH1 0x1 PUSH1 0xFF SHL PUSH2 0x2053 JUMP JUMPDEST PUSH1 0x10 SWAP5 SWAP1 SWAP5 SHL SWAP4 SWAP1 POP PUSH2 0x13AA JUMP JUMPDEST POP POP POP POP POP POP POP POP POP JUMP JUMPDEST PUSH1 0x0 PUSH2 0x13F0 PUSH2 0x250C JUMP JUMPDEST PUSH1 0x1 PUSH1 0x1 PUSH1 0xA0 SHL SUB DUP4 AND PUSH1 0x0 DUP2 DUP2 MSTORE PUSH1 0x20 DUP4 DUP2 MSTORE PUSH1 0x40 DUP1 DUP4 KECCAK256 DUP9 MLOAD DUP2 SLOAD SWAP4 DUP11 ADD MLOAD DUP4 DUP12 ADD MLOAD PUSH1 0x60 DUP13 ADD MLOAD PUSH1 0x80 DUP14 ADD MLOAD PUSH1 0x70 SHR PUSH1 0x1 PUSH1 0x48 SHL MUL PUSH27 0xFFFFFFFFFFFFFFFFFFFFFFFFFFFFFFFFFFFF000000000000000000 NOT PUSH2 0xFFFF SWAP1 SWAP3 AND PUSH1 0x1 PUSH1 0x38 SHL MUL PUSH9 0xFFFF00000000000000 NOT PUSH1 0xFF SWAP5 SWAP1 SWAP5 AND PUSH1 0x1 PUSH1 0x30 SHL MUL PUSH7 0xFF000000000000 NOT PUSH1 0xF8 SWAP7 SWAP1 SWAP7 SHR PUSH6 0x10000000000 MUL PUSH6 0xFF0000000000 NOT PUSH5 0xFFFFFFFFFF SWAP1 SWAP9 AND PUSH5 0xFFFFFFFFFF NOT SWAP1 SWAP12 AND SWAP11 SWAP1 SWAP11 OR SWAP7 SWAP1 SWAP7 AND SWAP9 SWAP1 SWAP9 OR SWAP4 SWAP1 SWAP4 AND SWAP4 SWAP1 SWAP4 OR AND SWAP5 SWAP1 SWAP5 OR AND SWAP3 SWAP1 SWAP3 OR SWAP1 SWAP2 SSTORE MLOAD SWAP3 SWAP4 POP SWAP1 SWAP2 PUSH32 0x6BD4B121BCA854A191536A2CA891155C42EE2FB23F307FB34E8BC65CFCB5412E SWAP2 SWAP1 LOG2 POP POP POP JUMP JUMPDEST PUSH1 0x0 PUSH2 0x14F5 DUP3 PUSH2 0x2519 JUMP JUMPDEST SWAP1 POP PUSH1 0x0 DUP1 DUP3 SLT ISZERO PUSH2 0x1506 JUMPI PUSH1 0x0 DUP1 REVERT JUMPDEST PUSH1 0x0 DUP5 PUSH1 0x6 DUP2 GT ISZERO PUSH2 0x1514 JUMPI INVALID JUMPDEST EQ ISZERO PUSH2 0x1521 JUMPI POP POP PUSH2 0x15B7 JUMP JUMPDEST PUSH1 0x1 DUP5 PUSH1 0x6 DUP2 GT ISZERO PUSH2 0x152F JUMPI INVALID JUMPDEST EQ DUP1 PUSH2 0x1546 JUMPI POP PUSH1 0x3 DUP5 PUSH1 0x6 DUP2 GT ISZERO PUSH2 0x1544 JUMPI INVALID JUMPDEST EQ JUMPDEST ISZERO PUSH2 0x155F JUMPI PUSH2 0x1558 DUP6 DUP8 DUP5 PUSH1 0x0 PUSH2 0x252F JUMP JUMPDEST SWAP1 POP PUSH2 0x15AB JUMP JUMPDEST PUSH1 0x2 DUP5 PUSH1 0x6 DUP2 GT ISZERO PUSH2 0x156D JUMPI INVALID JUMPDEST EQ DUP1 PUSH2 0x1584 JUMPI POP PUSH1 0x4 DUP5 PUSH1 0x6 DUP2 GT ISZERO PUSH2 0x1582 JUMPI INVALID JUMPDEST EQ JUMPDEST ISZERO PUSH2 0x1594 JUMPI PUSH2 0x1558 DUP6 DUP8 DUP5 PUSH2 0xF97 JUMP JUMPDEST PUSH1 0x6 DUP5 PUSH1 0x6 DUP2 GT ISZERO PUSH2 0x15A2 JUMPI INVALID JUMPDEST EQ ISZERO PUSH2 0x15AB JUMPI POP DUP1 JUMPDEST PUSH2 0x634 DUP6 DUP6 DUP5 DUP5 PUSH2 0x2606 JUMP JUMPDEST POP POP POP POP JUMP JUMPDEST PUSH1 0x0 PUSH2 0x15C8 DUP5 PUSH2 0x2519 JUMP JUMPDEST SWAP1 POP PUSH1 0x0 DUP2 SLT ISZERO PUSH2 0x15D8 JUMPI PUSH1 0x0 DUP1 REVERT JUMPDEST DUP3 ISZERO PUSH2 0x1610 JUMPI PUSH2 0x1601 DUP6 PUSH1 0x80 ADD MLOAD PUSH2 0xF76 DUP8 PUSH1 0x60 ADD MLOAD DUP9 PUSH1 0x20 ADD MLOAD PUSH2 0xE93 SWAP1 SWAP2 SWAP1 PUSH4 0xFFFFFFFF AND JUMP JUMPDEST SWAP1 POP PUSH1 0x0 DUP2 SLT ISZERO PUSH2 0x1610 JUMPI POP PUSH1 0x0 JUMPDEST PUSH1 0x80 DUP6 ADD MLOAD PUSH2 0x161F SWAP1 DUP3 PUSH2 0x2821 JUMP JUMPDEST PUSH1 0x80 DUP7 ADD MSTORE PUSH2 0x1630 DUP6 DUP9 DUP9 DUP6 PUSH2 0x107C JUMP JUMPDEST POP POP POP POP POP POP POP POP JUMP JUMPDEST PUSH1 0x0 DUP1 PUSH1 0x0 DUP1 PUSH1 0x0 DUP1 PUSH2 0x164B PUSH2 0x2837 JUMP JUMPDEST PUSH1 0x1 PUSH1 0x1 PUSH1 0xA0 SHL SUB SWAP1 SWAP8 AND PUSH1 0x0 SWAP1 DUP2 MSTORE PUSH1 0x20 SWAP8 SWAP1 SWAP8 MSTORE POP POP PUSH1 0x40 SWAP1 SWAP5 KECCAK256 SLOAD PUSH2 0xFFFF DUP2 AND SWAP6 PUSH4 0xFFFFFFFF PUSH3 0x10000 DUP4 DIV DUP2 AND SWAP7 POP PUSH1 0x1 PUSH1 0x30 SHL DUP4 DIV AND SWAP5 POP PUSH1 0xFF PUSH1 0x1 PUSH1 0x50 SHL DUP4 DIV AND SWAP4 POP PUSH1 0x1 PUSH1 0x58 SHL SWAP1 SWAP2 DIV PUSH1 0xD8 SHL SWAP2 POP JUMP JUMPDEST PUSH1 0x0 DUP2 SLT ISZERO DUP1 ISZERO PUSH2 0x16D6 JUMPI POP DUP1 PUSH2 0x16D3 DUP4 PUSH1 0x80 ADD MLOAD PUSH2 0xF76 DUP6 PUSH1 0x60 ADD MLOAD DUP7 PUSH1 0x20 ADD MLOAD PUSH2 0xE93 SWAP1 SWAP2 SWAP1 PUSH4 0xFFFFFFFF AND JUMP JUMPDEST SLT ISZERO JUMPDEST PUSH2 0x8B9 JUMPI PUSH1 0x40 MLOAD PUSH3 0x461BCD PUSH1 0xE5 SHL DUP2 MSTORE PUSH1 0x4 ADD PUSH2 0x17A SWAP1 PUSH2 0x4AB0 JUMP JUMPDEST PUSH2 0x16FA PUSH2 0x3F9F JUMP JUMPDEST PUSH1 0x0 PUSH2 0x1704 PUSH2 0x250C JUMP JUMPDEST PUSH1 0x1 PUSH1 0x1 PUSH1 0xA0 SHL SUB SWAP4 SWAP1 SWAP4 AND PUSH1 0x0 SWAP1 DUP2 MSTORE PUSH1 0x20 SWAP4 DUP5 MSTORE PUSH1 0x40 SWAP1 DUP2 SWAP1 KECCAK256 DUP2 MLOAD PUSH1 0xA0 DUP2 ADD DUP4 MSTORE SWAP1 SLOAD PUSH5 0xFFFFFFFFFF DUP2 AND DUP3 MSTORE PUSH6 0x10000000000 DUP2 DIV PUSH1 0xF8 SHL PUSH1 0x1 PUSH1 0x1 PUSH1 0xF8 SHL SUB NOT AND SWAP6 DUP3 ADD SWAP6 SWAP1 SWAP6 MSTORE PUSH1 0x1 PUSH1 0x30 SHL DUP6 DIV PUSH1 0xFF AND SWAP2 DUP2 ADD SWAP2 SWAP1 SWAP2 MSTORE PUSH1 0x1 PUSH1 0x38 SHL DUP5 DIV PUSH2 0xFFFF AND PUSH1 0x60 DUP3 ADD MSTORE PUSH1 0x1 PUSH1 0x48 SHL SWAP1 SWAP4 DIV PUSH1 0x70 SHL PUSH1 0x1 PUSH1 0x1 PUSH1 0x70 SHL SUB NOT AND PUSH1 0x80 DUP5 ADD MSTORE POP SWAP1 SWAP2 SWAP1 POP JUMP JUMPDEST PUSH1 0x0 TIMESTAMP PUSH2 0x179F DUP4 PUSH2 0x12F7 JUMP JUMPDEST ISZERO PUSH2 0x17C0 JUMPI PUSH2 0x17AD DUP2 PUSH2 0x2844 JUMP JUMPDEST DUP4 MLOAD PUSH5 0xFFFFFFFFFF AND LT SWAP2 POP PUSH2 0xBB0 SWAP1 POP JUMP JUMPDEST DUP3 MLOAD PUSH5 0xFFFFFFFFFF AND ISZERO DUP1 ISZERO SWAP1 PUSH2 0xBA5 JUMPI POP DUP3 MLOAD PUSH5 0xFFFFFFFFFF AND GT ISZERO SWAP1 POP PUSH2 0xBB0 JUMP JUMPDEST PUSH1 0x60 PUSH1 0x0 PUSH2 0x17F2 DUP5 DUP5 PUSH2 0x2862 JUMP JUMPDEST SWAP1 POP PUSH1 0x1 DUP2 MLOAD GT PUSH2 0x1804 JUMPI SWAP1 POP PUSH2 0xEA9 JUMP JUMPDEST PUSH2 0xA71 DUP2 PUSH2 0x2983 JUMP JUMPDEST PUSH1 0x0 DUP2 ISZERO DUP1 ISZERO SWAP1 PUSH2 0x1820 JUMPI POP PUSH2 0x3FFF DUP3 GT ISZERO JUMPDEST PUSH2 0x1829 JUMPI PUSH1 0x0 DUP1 REVERT JUMPDEST PUSH1 0x80 DUP4 ADD MLOAD PUSH1 0x60 DUP5 ADD MLOAD PUSH2 0xFFFF AND DUP4 EQ ISZERO PUSH2 0x1848 JUMPI PUSH1 0x1 SWAP2 POP POP PUSH2 0xEA9 JUMP JUMPDEST PUSH1 0x1 PUSH1 0x1 PUSH1 0x70 SHL SUB NOT DUP2 AND ISZERO PUSH2 0x188D JUMPI PUSH1 0xF0 DUP2 SWAP1 SHR PUSH2 0x3FFF AND DUP4 DUP2 EQ ISZERO PUSH2 0x187A JUMPI POP PUSH1 0x1 PUSH1 0xFE SHL SWAP1 DUP2 AND EQ SWAP1 POP PUSH2 0xEA9 JUMP JUMPDEST POP PUSH1 0x10 SHL PUSH1 0x1 PUSH1 0x1 PUSH1 0x80 SHL SUB NOT AND PUSH2 0x1848 JUMP JUMPDEST POP PUSH1 0x0 SWAP4 SWAP3 POP POP POP JUMP JUMPDEST PUSH1 0x0 DUP1 PUSH1 0x0 DUP1 PUSH1 0x0 PUSH2 0x18A7 PUSH2 0x2B3B JUMP JUMPDEST PUSH1 0x1 PUSH1 0x1 PUSH1 0xA0 SHL SUB DUP9 AND PUSH1 0x0 SWAP1 DUP2 MSTORE PUSH1 0x20 DUP3 DUP2 MSTORE PUSH1 0x40 DUP1 DUP4 KECCAK256 DUP11 DUP5 MSTORE SWAP1 SWAP2 MSTORE SWAP1 KECCAK256 DUP1 SLOAD PUSH10 0xFFFFFFFFFFFFFFFFFFFF DUP2 AND SWAP7 POP PUSH1 0x1 PUSH1 0x50 SHL SWAP1 DIV PUSH4 0xFFFFFFFF AND SWAP5 POP SWAP1 SWAP2 POP DUP4 ISZERO PUSH2 0x1913 JUMPI DUP1 SLOAD PUSH2 0x190C SWAP1 PUSH1 0x1 PUSH1 0x70 SHL SWAP1 DIV PUSH7 0xFFFFFFFFFFFFFF AND PUSH2 0x2B48 JUMP JUMPDEST SWAP3 POP PUSH2 0x1928 JUMP JUMPDEST DUP1 SLOAD PUSH1 0x1 PUSH1 0x70 SHL SWAP1 DIV PUSH7 0xFFFFFFFFFFFFFF AND SWAP3 POP JUMPDEST SLOAD PUSH1 0x1 PUSH1 0xA8 SHL SWAP1 DIV PUSH1 0xA SWAP1 DUP2 SIGNEXTEND SWAP1 SIGNEXTEND SWAP8 SWAP4 SWAP7 POP SWAP2 SWAP5 POP SWAP3 POP POP JUMP JUMPDEST DUP2 DUP2 MUL PUSH1 0x0 NOT DUP4 EQ ISZERO PUSH2 0x1973 JUMPI DUP2 ISZERO DUP1 PUSH2 0x1965 JUMPI POP DUP3 DUP3 DUP3 DUP2 PUSH2 0x1962 JUMPI INVALID JUMPDEST SDIV EQ JUMPDEST PUSH2 0x196E JUMPI PUSH1 0x0 DUP1 REVERT JUMPDEST PUSH2 0xEA9 JUMP JUMPDEST DUP3 ISZERO DUP1 PUSH2 0x1988 JUMPI POP DUP2 DUP4 DUP3 DUP2 PUSH2 0x1985 JUMPI INVALID JUMPDEST SDIV EQ JUMPDEST PUSH2 0xEA9 JUMPI PUSH1 0x0 DUP1 REVERT JUMPDEST PUSH1 0x0 DUP1 PUSH1 0x0 DUP1 PUSH1 0x0 PUSH2 0x19A2 DUP7 PUSH2 0x2B56 JUMP JUMPDEST SWAP1 SWAP3 POP SWAP1 POP PUSH1 0x0 PUSH1 0x1 PUSH1 0x1 PUSH1 0xA0 SHL SUB DUP4 AND PUSH2 0x19C7 JUMPI POP PUSH1 0x0 SWAP1 POP PUSH5 0x2540BE400 PUSH2 0x1A49 JUMP JUMPDEST DUP3 PUSH1 0x1 PUSH1 0x1 PUSH1 0xA0 SHL SUB AND PUSH4 0x1EE10833 PUSH1 0x40 MLOAD DUP2 PUSH4 0xFFFFFFFF AND PUSH1 0xE0 SHL DUP2 MSTORE PUSH1 0x4 ADD PUSH1 0x20 PUSH1 0x40 MLOAD DUP1 DUP4 SUB DUP2 PUSH1 0x0 DUP8 DUP1 EXTCODESIZE ISZERO DUP1 ISZERO PUSH2 0x1A02 JUMPI PUSH1 0x0 DUP1 REVERT JUMPDEST POP GAS CALL ISZERO DUP1 ISZERO PUSH2 0x1A16 JUMPI RETURNDATASIZE PUSH1 0x0 DUP1 RETURNDATACOPY RETURNDATASIZE PUSH1 0x0 REVERT JUMPDEST POP POP POP POP PUSH1 0x40 MLOAD RETURNDATASIZE PUSH1 0x1F NOT PUSH1 0x1F DUP3 ADD AND DUP3 ADD DUP1 PUSH1 0x40 MSTORE POP DUP2 ADD SWAP1 PUSH2 0x1A3A SWAP2 SWAP1 PUSH2 0x4415 JUMP JUMPDEST SWAP1 POP PUSH1 0x0 DUP2 SGT PUSH2 0x1A49 JUMPI PUSH1 0x0 DUP1 REVERT JUMPDEST SWAP7 SWAP2 SWAP6 POP SWAP4 POP SWAP2 POP POP JUMP JUMPDEST PUSH2 0x1A5C PUSH2 0x405F JUMP JUMPDEST PUSH1 0x0 PUSH2 0x1A66 PUSH2 0x2B8D JUMP JUMPDEST PUSH1 0x0 DUP6 DUP2 MSTORE PUSH1 0x20 DUP3 DUP2 MSTORE PUSH1 0x40 DUP1 DUP4 KECCAK256 DUP8 ISZERO ISZERO DUP5 MSTORE DUP3 MSTORE SWAP2 DUP3 SWAP1 KECCAK256 DUP3 MLOAD PUSH1 0xA0 DUP2 ADD DUP5 MSTORE DUP2 SLOAD PUSH1 0x1 PUSH1 0x1 PUSH1 0xA0 SHL SUB DUP2 AND DUP3 MSTORE PUSH1 0xFF PUSH1 0x1 PUSH1 0xA0 SHL DUP3 DIV DUP2 AND ISZERO ISZERO SWAP5 DUP4 ADD SWAP5 SWAP1 SWAP5 MSTORE PUSH1 0x1 PUSH1 0xB0 SHL DUP2 DIV DUP5 AND PUSH1 0xA EXP SWAP5 DUP3 ADD SWAP5 SWAP1 SWAP5 MSTORE SWAP4 SWAP5 POP SWAP3 SWAP2 PUSH1 0x60 DUP4 ADD SWAP2 PUSH1 0x1 PUSH1 0xA8 SHL SWAP1 SWAP2 DIV AND PUSH1 0x5 DUP2 GT ISZERO PUSH2 0x1ADB JUMPI INVALID JUMPDEST DUP2 MSTORE SWAP2 SLOAD PUSH1 0x1 PUSH1 0xB8 SHL SWAP1 DIV PUSH9 0xFFFFFFFFFFFFFFFFFF AND PUSH1 0x20 SWAP1 SWAP3 ADD SWAP2 SWAP1 SWAP2 MSTORE SWAP5 SWAP4 POP POP POP POP JUMP JUMPDEST PUSH1 0x0 DUP2 PUSH1 0x0 NOT EQ DUP1 ISZERO PUSH2 0x1B18 JUMPI POP PUSH1 0x1 PUSH1 0xFF SHL DUP4 EQ JUMPDEST ISZERO PUSH2 0x1B22 JUMPI PUSH1 0x0 DUP1 REVERT JUMPDEST DUP2 DUP4 DUP2 PUSH2 0x1B2B JUMPI INVALID JUMPDEST SDIV SWAP4 SWAP3 POP POP POP JUMP JUMPDEST PUSH1 0x0 PUSH4 0x5F5E100 DUP4 PUSH1 0x40 ADD MLOAD EQ ISZERO PUSH2 0x1B4C JUMPI POP DUP1 PUSH2 0xEA9 JUMP JUMPDEST PUSH2 0xA71 PUSH4 0x5F5E100 PUSH2 0xF47 DUP6 PUSH1 0x40 ADD MLOAD DUP6 PUSH2 0x1943 SWAP1 SWAP2 SWAP1 PUSH4 0xFFFFFFFF AND JUMP JUMPDEST DUP1 PUSH1 0x5 DUP6 PUSH1 0x60 ADD MLOAD PUSH1 0x5 DUP2 GT ISZERO PUSH2 0x1B7E JUMPI INVALID JUMPDEST EQ ISZERO PUSH2 0x1BA3 JUMPI PUSH1 0x0 PUSH2 0x1B8F DUP5 PUSH2 0xF09 JUMP JUMPDEST SWAP1 POP PUSH2 0x1B9F DUP2 PUSH1 0x0 ADD MLOAD DUP5 PUSH2 0x2B9A JUMP JUMPDEST SWAP3 POP POP JUMPDEST PUSH1 0x0 DUP3 SGT ISZERO PUSH2 0x1BCF JUMPI PUSH1 0x0 PUSH2 0x1BB9 DUP7 DUP7 DUP6 PUSH2 0x2C2C JUMP JUMPDEST SWAP1 POP DUP6 PUSH1 0x20 ADD MLOAD ISZERO PUSH2 0x1BC9 JUMPI DUP1 SWAP2 POP JUMPDEST POP PUSH2 0xF4D JUMP JUMPDEST PUSH1 0x3 DUP6 PUSH1 0x60 ADD MLOAD PUSH1 0x5 DUP2 GT ISZERO PUSH2 0x1BE1 JUMPI INVALID JUMPDEST EQ ISZERO PUSH2 0x1BFE JUMPI PUSH2 0x1BF9 DUP5 PUSH2 0x1BF4 DUP5 PUSH2 0xEAF JUMP JUMPDEST PUSH2 0x2D1F JUMP JUMPDEST PUSH2 0xF4D JUMP JUMPDEST DUP5 MLOAD PUSH2 0xF4D SWAP1 DUP6 PUSH2 0x1C0E DUP6 PUSH2 0xEAF JUMP JUMPDEST PUSH2 0x2D5A JUMP JUMPDEST PUSH2 0x1C1B PUSH2 0x405F JUMP JUMPDEST PUSH2 0xBAD DUP3 PUSH1 0x0 PUSH2 0x1A54 JUMP JUMPDEST PUSH1 0x0 DUP1 DUP3 SLT ISZERO PUSH2 0x1C35 JUMPI PUSH1 0x0 DUP1 REVERT JUMPDEST POP SWAP1 JUMP JUMPDEST PUSH1 0x0 DUP1 PUSH1 0x5 DUP6 PUSH1 0x60 ADD MLOAD PUSH1 0x5 DUP2 GT ISZERO PUSH2 0x1C4E JUMPI INVALID JUMPDEST EQ PUSH2 0x1C60 JUMPI PUSH4 0x70A08231 PUSH1 0xE0 SHL PUSH2 0x1C69 JUMP JUMPDEST PUSH4 0xED1279F PUSH1 0xE1 SHL JUMPDEST SWAP1 POP PUSH1 0x0 PUSH2 0x1C7C DUP7 PUSH1 0x0 ADD MLOAD ADDRESS DUP5 PUSH2 0x2DD1 JUMP JUMPDEST SWAP1 POP PUSH1 0x5 DUP7 PUSH1 0x60 ADD MLOAD PUSH1 0x5 DUP2 GT ISZERO PUSH2 0x1C90 JUMPI INVALID JUMPDEST EQ ISZERO PUSH2 0x1CB7 JUMPI PUSH1 0x0 PUSH2 0x1CA5 DUP7 PUSH2 0xFFFF AND PUSH2 0xF09 JUMP JUMPDEST SWAP1 POP PUSH2 0x1CB1 DUP2 DUP7 PUSH2 0x2EE3 JUMP JUMPDEST POP PUSH2 0x1D00 JUMP JUMPDEST PUSH1 0x1 DUP7 PUSH1 0x60 ADD MLOAD PUSH1 0x5 DUP2 GT ISZERO PUSH2 0x1CC9 JUMPI INVALID JUMPDEST EQ ISZERO PUSH2 0x1CDE JUMPI PUSH2 0x1CD9 DUP7 DUP6 PUSH2 0x2F4E JUMP JUMPDEST PUSH2 0x1D00 JUMP JUMPDEST PUSH1 0x2 DUP7 PUSH1 0x60 ADD MLOAD PUSH1 0x5 DUP2 GT ISZERO PUSH2 0x1CF0 JUMPI INVALID JUMPDEST EQ ISZERO PUSH2 0x7B JUMPI PUSH2 0x1CD9 DUP7 DUP6 PUSH2 0x2FF0 JUMP JUMPDEST PUSH1 0x0 PUSH2 0x1D11 DUP8 PUSH1 0x0 ADD MLOAD ADDRESS DUP6 PUSH2 0x2DD1 JUMP JUMPDEST SWAP1 POP PUSH2 0x1D25 PUSH2 0x1D20 DUP3 DUP5 PUSH2 0x304C JUMP JUMPDEST PUSH2 0x2519 JUMP JUMPDEST SWAP8 SWAP7 POP POP POP POP POP POP POP JUMP JUMPDEST PUSH1 0x0 PUSH4 0x5F5E100 DUP4 PUSH1 0x40 ADD MLOAD EQ ISZERO PUSH2 0x1D49 JUMPI POP DUP1 PUSH2 0xEA9 JUMP JUMPDEST PUSH1 0x40 DUP4 ADD MLOAD PUSH2 0xA71 SWAP1 PUSH2 0xF47 DUP5 PUSH4 0x5F5E100 PUSH2 0x1943 JUMP JUMPDEST PUSH1 0x0 DUP1 PUSH1 0x0 PUSH2 0x1D76 DUP7 PUSH1 0x0 ADD MLOAD PUSH2 0xFFFF AND PUSH2 0x1C13 JUMP JUMPDEST SWAP1 POP PUSH1 0x0 PUSH2 0x1D91 DUP8 PUSH1 0x80 ADD MLOAD DUP4 PUSH2 0x1B33 SWAP1 SWAP2 SWAP1 PUSH4 0xFFFFFFFF AND JUMP JUMPDEST SWAP1 POP DUP1 PUSH2 0x1DA6 JUMPI PUSH1 0x0 DUP1 SWAP4 POP SWAP4 POP POP POP PUSH2 0x1E0E JUMP JUMPDEST DUP5 DUP1 ISZERO PUSH2 0x1DB3 JUMPI POP PUSH1 0x0 DUP2 SLT JUMPDEST ISZERO PUSH2 0x1DE8 JUMPI DUP7 MLOAD PUSH2 0x1DD5 SWAP1 PUSH2 0xFFFF AND DUP8 PUSH2 0x1DCC DUP5 PUSH2 0xEAF JUMP JUMPDEST DUP6 SWAP3 SWAP2 SWAP1 PUSH2 0x30A9 JUMP JUMPDEST SWAP4 POP PUSH2 0x1DE1 DUP3 DUP3 PUSH2 0x1D30 JUMP JUMPDEST SWAP3 POP PUSH2 0x1E0B JUMP JUMPDEST DUP7 MLOAD PUSH2 0x1DFC SWAP1 DUP4 SWAP1 DUP9 SWAP1 PUSH2 0xFFFF AND DUP5 PUSH2 0x1B6B JUMP JUMPDEST SWAP4 POP PUSH2 0x1E08 DUP3 DUP6 PUSH2 0x1D30 JUMP JUMPDEST SWAP3 POP JUMPDEST POP POP JUMPDEST SWAP4 POP SWAP4 SWAP2 POP POP JUMP JUMPDEST DUP3 MLOAD PUSH1 0x0 SWAP1 TIMESTAMP SWAP1 DUP3 SWAP1 PUSH2 0x1E2C SWAP1 PUSH2 0xFFFF AND PUSH2 0x313F JUMP JUMPDEST SWAP1 POP PUSH1 0x0 PUSH2 0x1E3F DUP3 DUP9 PUSH1 0xC0 ADD MLOAD DUP6 PUSH2 0x3165 JUMP JUMPDEST SWAP1 POP PUSH2 0x1E4D DUP8 DUP4 DUP4 DUP9 PUSH2 0x3248 JUMP JUMPDEST SWAP4 POP PUSH1 0x0 PUSH2 0x1E5A DUP4 PUSH2 0x3375 JUMP JUMPDEST SWAP1 POP PUSH1 0x1 PUSH1 0x1 PUSH1 0xA0 SHL SUB DUP2 AND ISZERO PUSH2 0x1EE8 JUMPI DUP1 PUSH1 0x1 PUSH1 0x1 PUSH1 0xA0 SHL SUB AND PUSH4 0x1D684DD2 DUP9 DUP11 PUSH1 0x0 ADD MLOAD PUSH2 0x1E8D DUP13 PUSH1 0x40 ADD MLOAD PUSH2 0x1C26 JUMP JUMPDEST DUP11 DUP14 PUSH1 0xC0 ADD MLOAD DUP12 PUSH1 0x40 MLOAD DUP8 PUSH4 0xFFFFFFFF AND PUSH1 0xE0 SHL DUP2 MSTORE PUSH1 0x4 ADD PUSH2 0x1EB5 SWAP7 SWAP6 SWAP5 SWAP4 SWAP3 SWAP2 SWAP1 PUSH2 0x4808 JUMP JUMPDEST PUSH1 0x0 PUSH1 0x40 MLOAD DUP1 DUP4 SUB DUP2 PUSH1 0x0 DUP8 DUP1 EXTCODESIZE ISZERO DUP1 ISZERO PUSH2 0x1ECF JUMPI PUSH1 0x0 DUP1 REVERT JUMPDEST POP GAS CALL ISZERO DUP1 ISZERO PUSH2 0x1EE3 JUMPI RETURNDATASIZE PUSH1 0x0 DUP1 RETURNDATACOPY RETURNDATASIZE PUSH1 0x0 REVERT JUMPDEST POP POP POP POP JUMPDEST DUP5 ISZERO PUSH2 0x1EF8 JUMPI PUSH2 0x1EF8 DUP8 DUP7 PUSH2 0x33E7 JUMP JUMPDEST POP POP POP POP SWAP4 SWAP3 POP POP POP JUMP JUMPDEST PUSH1 0x0 PUSH2 0x1F0D PUSH2 0x2B3B JUMP JUMPDEST PUSH1 0x1 PUSH1 0x1 PUSH1 0xA0 SHL SUB DUP9 AND PUSH1 0x0 SWAP1 DUP2 MSTORE PUSH1 0x20 DUP3 DUP2 MSTORE PUSH1 0x40 DUP1 DUP4 KECCAK256 DUP11 DUP5 MSTORE SWAP1 SWAP2 MSTORE SWAP1 KECCAK256 SWAP1 SWAP2 POP PUSH11 0x7FFFFFFFFFFFFFFFFFFFFF NOT DUP7 SLT DUP1 ISZERO SWAP1 PUSH2 0x1F58 JUMPI POP PUSH11 0x7FFFFFFFFFFFFFFFFFFFFF DUP7 SGT ISZERO JUMPDEST PUSH2 0x1F61 JUMPI PUSH1 0x0 DUP1 REVERT JUMPDEST PUSH1 0x0 DUP6 SLT ISZERO DUP1 ISZERO PUSH2 0x1F7C JUMPI POP PUSH10 0xFFFFFFFFFFFFFFFFFFFF DUP6 SGT ISZERO JUMPDEST PUSH2 0x1F85 JUMPI PUSH1 0x0 DUP1 REVERT JUMPDEST DUP4 PUSH2 0x1FC5 JUMPI PUSH7 0xFFFFFFFFFFFFFF DUP4 GT ISZERO PUSH2 0x1F9E JUMPI PUSH1 0x0 DUP1 REVERT JUMPDEST DUP1 SLOAD PUSH7 0xFFFFFFFFFFFFFF PUSH1 0x70 SHL NOT AND PUSH1 0x1 PUSH1 0x70 SHL PUSH7 0xFFFFFFFFFFFFFF DUP6 AND MUL OR DUP2 SSTORE PUSH2 0x1FDF JUMP JUMPDEST DUP1 SLOAD PUSH1 0x1 PUSH1 0x50 SHL SWAP1 DIV PUSH4 0xFFFFFFFF AND DUP5 EQ PUSH2 0x1FDF JUMPI PUSH1 0x0 DUP1 REVERT JUMPDEST DUP1 SLOAD PUSH1 0xA SWAP7 SWAP1 SWAP7 SIGNEXTEND PUSH11 0xFFFFFFFFFFFFFFFFFFFFFF AND PUSH1 0x1 PUSH1 0xA8 SHL MUL PUSH1 0x1 PUSH1 0x1 PUSH1 0xA8 SHL SUB PUSH10 0xFFFFFFFFFFFFFFFFFFFF SWAP1 SWAP7 AND PUSH10 0xFFFFFFFFFFFFFFFFFFFF NOT PUSH4 0xFFFFFFFF SWAP1 SWAP7 AND PUSH1 0x1 PUSH1 0x50 SHL MUL PUSH4 0xFFFFFFFF PUSH1 0x50 SHL NOT SWAP1 SWAP9 AND SWAP8 SWAP1 SWAP8 OR SWAP5 SWAP1 SWAP5 AND SWAP6 SWAP1 SWAP6 OR SWAP4 SWAP1 SWAP4 AND SWAP2 SWAP1 SWAP2 OR SWAP1 SWAP3 SSTORE POP POP POP POP JUMP JUMPDEST DUP3 PUSH1 0x0 LT DUP1 ISZERO PUSH2 0x2065 JUMPI POP PUSH2 0x3FFF DUP4 GT ISZERO JUMPDEST PUSH2 0x206E JUMPI PUSH1 0x0 DUP1 REVERT JUMPDEST DUP2 DUP1 ISZERO PUSH2 0x2082 JUMPI POP DUP3 DUP5 PUSH1 0x60 ADD MLOAD PUSH2 0xFFFF AND EQ JUMPDEST ISZERO PUSH2 0x208C JUMPI PUSH2 0x15B7 JUMP JUMPDEST PUSH1 0x80 DUP5 ADD MLOAD PUSH1 0x0 SWAP1 DUP2 JUMPDEST PUSH1 0x1 PUSH1 0x1 PUSH1 0x70 SHL SUB NOT DUP3 AND ISZERO PUSH2 0x2207 JUMPI PUSH1 0xF0 DUP3 SWAP1 SHR PUSH2 0x3FFF AND DUP7 DUP2 EQ DUP1 ISZERO PUSH2 0x20BB JUMPI POP DUP6 JUMPDEST ISZERO PUSH2 0x20F3 JUMPI POP PUSH1 0x80 DUP8 ADD DUP1 MLOAD PUSH1 0x1 PUSH1 0x1 PUSH1 0xF0 SHL SUB NOT DUP7 AND PUSH1 0x10 SWAP1 SWAP4 MUL SWAP3 SWAP1 SWAP3 SHR SWAP2 SWAP1 SWAP2 OR PUSH1 0x1 PUSH1 0x1 PUSH1 0x70 SHL SUB NOT AND SWAP1 MSTORE POP PUSH2 0x15B7 SWAP1 POP JUMP JUMPDEST DUP7 DUP2 EQ DUP1 ISZERO PUSH2 0x2100 JUMPI POP DUP6 ISZERO JUMPDEST ISZERO PUSH2 0x2155 JUMPI PUSH1 0x1 PUSH1 0x1 PUSH1 0xF0 SHL SUB NOT DUP6 AND NOT SWAP3 SWAP1 SWAP3 AND SWAP2 PUSH1 0x3 PUSH1 0xFE SHL DUP4 AND PUSH2 0x2133 JUMPI PUSH1 0x10 DUP4 PUSH1 0x1 PUSH1 0x1 PUSH1 0x70 SHL SUB NOT AND SWAP1 SHL SWAP3 POP JUMPDEST POP PUSH1 0x1 PUSH1 0x1 PUSH1 0x70 SHL SUB NOT SWAP2 DUP3 AND PUSH1 0x10 SWAP1 SWAP2 MUL SHR SWAP2 SWAP1 SWAP2 OR AND PUSH1 0x80 DUP6 ADD MSTORE PUSH2 0x15B7 JUMP JUMPDEST DUP7 DUP2 GT DUP1 ISZERO PUSH2 0x2161 JUMPI POP DUP6 JUMPDEST ISZERO PUSH2 0x21BB JUMPI PUSH1 0x80 DUP9 DUP2 ADD MLOAD PUSH1 0x1 PUSH1 0x1 PUSH1 0xF0 SHL SUB NOT PUSH1 0xF0 DUP11 SWAP1 SHL DUP9 OR DUP2 AND PUSH1 0x10 DUP7 MUL SHR SWAP7 SWAP1 SWAP7 OR SWAP6 SWAP2 SHL AND ISZERO PUSH2 0x2195 JUMPI PUSH1 0x0 DUP1 REVERT JUMPDEST POP PUSH1 0x1 PUSH1 0x1 PUSH1 0x70 SHL SUB NOT SWAP2 DUP3 AND PUSH1 0x1 SWAP2 SWAP1 SWAP2 ADD PUSH1 0x10 MUL SHR SWAP2 SWAP1 SWAP2 OR AND PUSH1 0x80 DUP6 ADD MSTORE PUSH2 0x15B7 JUMP JUMPDEST DUP7 DUP2 GT DUP1 ISZERO PUSH2 0x21C8 JUMPI POP DUP6 ISZERO JUMPDEST ISZERO PUSH2 0x21D6 JUMPI POP POP POP POP PUSH2 0x15B7 JUMP JUMPDEST POP PUSH1 0x1 PUSH1 0x1 PUSH1 0xF0 SHL SUB NOT DUP3 AND PUSH1 0x10 DUP3 DUP2 MUL SWAP2 SWAP1 SWAP2 SHR SWAP4 SWAP1 SWAP4 OR SWAP3 SWAP2 SWAP1 SWAP2 SHL PUSH1 0x1 PUSH1 0x1 PUSH1 0x80 SHL SUB NOT AND SWAP1 PUSH1 0x1 ADD PUSH2 0x2096 JUMP JUMPDEST DUP5 PUSH2 0x2214 JUMPI POP POP POP PUSH2 0x15B7 JUMP JUMPDEST PUSH1 0x9 DUP2 LT PUSH2 0x2221 JUMPI PUSH1 0x0 DUP1 REVERT JUMPDEST PUSH1 0x1 PUSH1 0x1 PUSH1 0xF0 SHL SUB NOT PUSH1 0xF0 DUP8 SWAP1 SHL DUP6 OR AND PUSH1 0x10 SWAP1 SWAP2 MUL SHR SWAP2 SWAP1 SWAP2 OR PUSH1 0x1 PUSH1 0x1 PUSH1 0x70 SHL SUB NOT AND PUSH1 0x80 DUP7 ADD MSTORE POP POP POP POP POP JUMP JUMPDEST PUSH1 0x0 DUP1 DUP1 DUP1 DUP1 DUP1 DUP1 DUP1 JUMPDEST DUP10 MLOAD MLOAD DUP2 LT ISZERO PUSH2 0x22E3 JUMPI PUSH1 0x0 DUP11 PUSH1 0x0 ADD MLOAD DUP3 DUP2 MLOAD DUP2 LT PUSH2 0x2278 JUMPI INVALID JUMPDEST PUSH1 0x20 MUL PUSH1 0x20 ADD ADD MLOAD SWAP1 POP PUSH1 0x3 DUP1 DUP2 GT ISZERO PUSH2 0x228E JUMPI INVALID JUMPDEST DUP2 PUSH1 0xA0 ADD MLOAD PUSH1 0x3 DUP2 GT ISZERO PUSH2 0x229E JUMPI INVALID JUMPDEST EQ ISZERO PUSH2 0x22A9 JUMPI PUSH1 0x0 DUP1 REVERT JUMPDEST PUSH1 0x2 DUP2 PUSH1 0xA0 ADD MLOAD PUSH1 0x3 DUP2 GT ISZERO PUSH2 0x22BB JUMPI INVALID JUMPDEST EQ ISZERO DUP1 ISZERO PUSH2 0x22CB JUMPI POP PUSH1 0x60 DUP2 ADD MLOAD ISZERO JUMPDEST ISZERO PUSH2 0x22DA JUMPI PUSH2 0x22DA DUP12 DUP4 PUSH2 0x3406 JUMP JUMPDEST POP PUSH1 0x1 ADD PUSH2 0x225C JUMP JUMPDEST POP PUSH1 0x0 JUMPDEST DUP10 MLOAD MLOAD DUP2 LT ISZERO PUSH2 0x2386 JUMPI PUSH1 0x0 DUP11 PUSH1 0x0 ADD MLOAD DUP3 DUP2 MLOAD DUP2 LT PUSH2 0x2303 JUMPI INVALID JUMPDEST PUSH1 0x20 MUL PUSH1 0x20 ADD ADD MLOAD SWAP1 POP PUSH1 0x2 PUSH1 0x3 DUP2 GT ISZERO PUSH2 0x231A JUMPI INVALID JUMPDEST DUP2 PUSH1 0xA0 ADD MLOAD PUSH1 0x3 DUP2 GT ISZERO PUSH2 0x232A JUMPI INVALID JUMPDEST EQ ISZERO PUSH2 0x233E JUMPI PUSH1 0x80 DUP2 ADD MLOAD PUSH1 0x0 SWAP1 SSTORE PUSH2 0x237D JUMP JUMPDEST PUSH1 0x1 DUP2 PUSH1 0xA0 ADD MLOAD PUSH1 0x3 DUP2 GT ISZERO PUSH2 0x2350 JUMPI INVALID JUMPDEST EQ ISZERO PUSH2 0x2369 JUMPI PUSH1 0x80 DUP2 ADD MLOAD DUP1 PUSH2 0x2366 DUP4 DUP3 PUSH2 0x3555 JUMP JUMPDEST POP POP JUMPDEST PUSH2 0x2375 DUP2 DUP7 DUP7 DUP7 PUSH2 0x3686 JUMP JUMPDEST SWAP2 SWAP7 POP SWAP5 POP SWAP3 POP JUMPDEST POP PUSH1 0x1 ADD PUSH2 0x22E7 JUMP JUMPDEST POP PUSH1 0x60 DUP10 ADD MLOAD PUSH1 0x0 PUSH2 0x2396 PUSH2 0x36E9 JUMP JUMPDEST PUSH1 0x1 PUSH1 0x1 PUSH1 0xA0 SHL SUB DUP12 AND PUSH1 0x0 SWAP1 DUP2 MSTORE PUSH1 0x20 DUP3 SWAP1 MSTORE PUSH1 0x40 DUP2 KECCAK256 SWAP2 SWAP3 POP JUMPDEST DUP13 PUSH1 0x20 ADD MLOAD MLOAD DUP2 LT ISZERO PUSH2 0x2460 JUMPI PUSH1 0x0 DUP14 PUSH1 0x20 ADD MLOAD DUP3 DUP2 MLOAD DUP2 LT PUSH2 0x23D1 JUMPI INVALID JUMPDEST PUSH1 0x20 MUL PUSH1 0x20 ADD ADD MLOAD SWAP1 POP DUP1 PUSH1 0x60 ADD MLOAD PUSH1 0x0 EQ ISZERO PUSH2 0x23EE JUMPI POP PUSH2 0x2458 JUMP JUMPDEST PUSH1 0x2 DUP2 PUSH1 0xA0 ADD MLOAD PUSH1 0x3 DUP2 GT ISZERO PUSH2 0x2400 JUMPI INVALID JUMPDEST EQ ISZERO DUP1 ISZERO PUSH2 0x241E JUMPI POP PUSH1 0x3 DUP2 PUSH1 0xA0 ADD MLOAD PUSH1 0x3 DUP2 GT ISZERO PUSH2 0x241B JUMPI INVALID JUMPDEST EQ ISZERO JUMPDEST PUSH2 0x2427 JUMPI PUSH1 0x0 DUP1 REVERT JUMPDEST PUSH2 0x2433 DUP2 DUP10 DUP10 DUP10 PUSH2 0x3686 JUMP JUMPDEST SWAP2 SWAP10 POP SWAP8 POP SWAP6 POP PUSH2 0x2450 DUP2 DUP5 DUP8 PUSH1 0x10 DUP2 LT PUSH2 0x244A JUMPI INVALID JUMPDEST ADD PUSH2 0x3555 JUMP JUMPDEST PUSH1 0x1 DUP6 ADD SWAP5 POP POP JUMPDEST PUSH1 0x1 ADD PUSH2 0x23B2 JUMP JUMPDEST POP PUSH1 0x10 DUP4 GT ISZERO DUP1 ISZERO PUSH2 0x2477 JUMPI POP PUSH5 0xFFFFFFFFFF DUP5 GT ISZERO JUMPDEST PUSH2 0x2480 JUMPI PUSH1 0x0 DUP1 REVERT JUMPDEST POP SWAP4 SWAP11 SWAP3 SWAP10 POP SWAP8 POP SWAP6 POP SWAP4 POP POP POP POP JUMP JUMPDEST PUSH1 0x0 DUP1 PUSH32 0x7FFF7FFF7FFF7FFF7FFF7FFF7FFF7FFF7FFF0000000000000000000000000000 DUP4 AND DUP2 JUMPDEST PUSH1 0x1 PUSH1 0x1 PUSH1 0x70 SHL SUB NOT DUP3 AND ISZERO PUSH2 0x2503 JUMPI PUSH1 0x1 PUSH1 0xFE SHL DUP3 DUP2 AND EQ ISZERO PUSH2 0x24ED JUMPI PUSH1 0x1 PUSH1 0x1 PUSH1 0xF0 SHL SUB NOT DUP3 AND DUP2 SHR SWAP3 SWAP1 SWAP3 OR SWAP2 PUSH1 0x10 ADD JUMPDEST PUSH1 0x10 DUP3 PUSH1 0x1 PUSH1 0x1 PUSH1 0x70 SHL SUB NOT AND SWAP1 SHL SWAP2 POP PUSH2 0x24B9 JUMP JUMPDEST POP SWAP1 SWAP4 SWAP3 POP POP POP JUMP JUMPDEST PUSH1 0x0 DUP1 PUSH2 0xEA9 PUSH1 0x1 PUSH2 0x36F2 JUMP JUMPDEST PUSH1 0x0 PUSH1 0x1 PUSH1 0x1 PUSH1 0xFF SHL SUB DUP3 GT ISZERO PUSH2 0x1C35 JUMPI PUSH1 0x0 DUP1 REVERT JUMPDEST PUSH1 0x0 DUP3 PUSH2 0x253E JUMPI POP PUSH1 0x0 PUSH2 0xF4D JUMP JUMPDEST PUSH1 0x0 DUP4 SGT PUSH2 0x254B JUMPI PUSH1 0x0 DUP1 REVERT JUMPDEST PUSH1 0x0 PUSH2 0x255E DUP7 PUSH1 0x0 ADD MLOAD PUSH2 0xFFFF AND PUSH2 0x1C13 JUMP JUMPDEST SWAP1 POP PUSH1 0x5 DUP2 PUSH1 0x60 ADD MLOAD PUSH1 0x5 DUP2 GT ISZERO PUSH2 0x2572 JUMPI INVALID JUMPDEST EQ ISZERO PUSH2 0x258B JUMPI DUP6 MLOAD PUSH2 0x2588 SWAP1 PUSH2 0xFFFF AND DUP6 PUSH2 0x370B JUMP JUMPDEST SWAP4 POP JUMPDEST DUP1 PUSH1 0x20 ADD MLOAD DUP1 PUSH2 0x2598 JUMPI POP DUP3 JUMPDEST ISZERO PUSH2 0x25DF JUMPI DUP6 MLOAD PUSH1 0x0 SWAP1 PUSH2 0x25B4 SWAP1 DUP4 SWAP1 DUP9 SWAP1 PUSH2 0xFFFF AND DUP9 PUSH2 0x1B6B JUMP JUMPDEST SWAP1 POP PUSH2 0x25C0 DUP3 DUP3 PUSH2 0x1D30 JUMP JUMPDEST PUSH1 0x60 DUP9 ADD MLOAD SWAP1 SWAP4 POP PUSH2 0x25D2 SWAP1 DUP5 PUSH2 0xE93 JUMP JUMPDEST PUSH1 0x60 DUP9 ADD MSTORE POP PUSH2 0xF4D SWAP1 POP JUMP JUMPDEST PUSH2 0x25E9 DUP2 DUP6 PUSH2 0x1D30 JUMP JUMPDEST PUSH1 0x80 DUP8 ADD MLOAD SWAP1 SWAP3 POP PUSH2 0x25FB SWAP1 DUP4 PUSH2 0xE93 JUMP JUMPDEST PUSH1 0x80 DUP8 ADD MSTORE POP PUSH2 0xF4D JUMP JUMPDEST PUSH1 0x3 DUP4 PUSH1 0x6 DUP2 GT ISZERO PUSH2 0x2614 JUMPI INVALID JUMPDEST EQ DUP1 PUSH2 0x262B JUMPI POP PUSH1 0x4 DUP4 PUSH1 0x6 DUP2 GT ISZERO PUSH2 0x2629 JUMPI INVALID JUMPDEST EQ JUMPDEST DUP1 PUSH2 0x2641 JUMPI POP PUSH1 0x6 DUP4 PUSH1 0x6 DUP2 GT ISZERO PUSH2 0x263F JUMPI INVALID JUMPDEST EQ JUMPDEST ISZERO PUSH2 0x270D JUMPI PUSH2 0x2650 DUP5 DUP3 PUSH2 0x16A3 JUMP JUMPDEST PUSH1 0x60 DUP5 ADD MLOAD PUSH2 0x265F SWAP1 DUP3 PUSH2 0x2821 JUMP JUMPDEST PUSH1 0x60 DUP6 ADD MSTORE DUP4 MLOAD PUSH1 0x40 MLOAD PUSH4 0x21285613 PUSH1 0xE1 SHL DUP2 MSTORE PUSH1 0x0 SWAP2 PUSH20 0x0 SWAP2 PUSH4 0x4250AC26 SWAP2 PUSH2 0x26A0 SWAP2 DUP7 SWAP1 PUSH1 0x4 ADD PUSH2 0x4B09 JUMP JUMPDEST PUSH1 0x20 PUSH1 0x40 MLOAD DUP1 DUP4 SUB DUP2 DUP7 DUP1 EXTCODESIZE ISZERO DUP1 ISZERO PUSH2 0x26B8 JUMPI PUSH1 0x0 DUP1 REVERT JUMPDEST POP GAS DELEGATECALL ISZERO DUP1 ISZERO PUSH2 0x26CC JUMPI RETURNDATASIZE PUSH1 0x0 DUP1 RETURNDATACOPY RETURNDATASIZE PUSH1 0x0 REVERT JUMPDEST POP POP POP POP PUSH1 0x40 MLOAD RETURNDATASIZE PUSH1 0x1F NOT PUSH1 0x1F DUP3 ADD AND DUP3 ADD DUP1 PUSH1 0x40 MSTORE POP DUP2 ADD SWAP1 PUSH2 0x26F0 SWAP2 SWAP1 PUSH2 0x4415 JUMP JUMPDEST PUSH1 0xC0 DUP7 ADD MLOAD SWAP1 SWAP2 POP PUSH2 0x2702 SWAP1 DUP3 PUSH2 0xE93 JUMP JUMPDEST PUSH1 0xC0 DUP7 ADD MSTORE POP PUSH2 0x15B7 JUMP JUMPDEST PUSH1 0x5 DUP4 PUSH1 0x6 DUP2 GT ISZERO PUSH2 0x271B JUMPI INVALID JUMPDEST EQ ISZERO PUSH2 0x15B7 JUMPI DUP2 PUSH2 0x2745 DUP6 PUSH1 0xC0 ADD MLOAD PUSH2 0xF76 DUP8 PUSH1 0xA0 ADD MLOAD DUP9 PUSH1 0x40 ADD MLOAD PUSH2 0xE93 SWAP1 SWAP2 SWAP1 PUSH4 0xFFFFFFFF AND JUMP JUMPDEST SLT ISZERO PUSH2 0x2763 JUMPI PUSH1 0x40 MLOAD PUSH3 0x461BCD PUSH1 0xE5 SHL DUP2 MSTORE PUSH1 0x4 ADD PUSH2 0x17A SWAP1 PUSH2 0x49D4 JUMP JUMPDEST PUSH1 0xC0 DUP5 ADD MLOAD PUSH2 0x2772 SWAP1 DUP4 PUSH2 0x2821 JUMP JUMPDEST PUSH1 0xC0 DUP6 ADD MSTORE DUP4 MLOAD PUSH1 0x40 MLOAD PUSH4 0x52E73F77 PUSH1 0xE0 SHL DUP2 MSTORE PUSH1 0x0 SWAP2 PUSH20 0x0 SWAP2 PUSH4 0x52E73F77 SWAP2 PUSH2 0x27B3 SWAP2 DUP8 SWAP1 PUSH1 0x4 ADD PUSH2 0x4B09 JUMP JUMPDEST PUSH1 0x20 PUSH1 0x40 MLOAD DUP1 DUP4 SUB DUP2 DUP7 DUP1 EXTCODESIZE ISZERO DUP1 ISZERO PUSH2 0x27CB JUMPI PUSH1 0x0 DUP1 REVERT JUMPDEST POP GAS DELEGATECALL ISZERO DUP1 ISZERO PUSH2 0x27DF JUMPI RETURNDATASIZE PUSH1 0x0 DUP1 RETURNDATACOPY RETURNDATASIZE PUSH1 0x0 REVERT JUMPDEST POP POP POP POP PUSH1 0x40 MLOAD RETURNDATASIZE PUSH1 0x1F NOT PUSH1 0x1F DUP3 ADD AND DUP3 ADD DUP1 PUSH1 0x40 MSTORE POP DUP2 ADD SWAP1 PUSH2 0x2803 SWAP2 SWAP1 PUSH2 0x4415 JUMP JUMPDEST PUSH1 0x60 DUP7 ADD MLOAD SWAP1 SWAP2 POP PUSH2 0x2815 SWAP1 DUP3 PUSH2 0xE93 JUMP JUMPDEST PUSH1 0x60 DUP7 ADD MSTORE POP POP POP POP POP JUMP JUMPDEST DUP1 DUP3 SUB DUP3 DUP2 SGT ISZERO PUSH1 0x0 DUP4 SLT ISZERO EQ PUSH2 0xEA9 JUMPI PUSH1 0x0 DUP1 REVERT JUMPDEST PUSH1 0x0 DUP1 PUSH2 0xEA9 PUSH1 0x2 PUSH2 0x36F2 JUMP JUMPDEST PUSH1 0x0 PUSH3 0x15180 DUP3 LT ISZERO PUSH2 0x2856 JUMPI PUSH1 0x0 DUP1 REVERT JUMPDEST POP PUSH3 0x15180 DUP2 MOD SWAP1 SUB SWAP1 JUMP JUMPDEST PUSH1 0x60 PUSH1 0x10 DUP3 PUSH1 0xFF AND GT ISZERO PUSH2 0x2875 JUMPI PUSH1 0x0 DUP1 REVERT JUMPDEST PUSH1 0x0 PUSH2 0x287F PUSH2 0x36E9 JUMP JUMPDEST PUSH1 0x1 PUSH1 0x1 PUSH1 0xA0 SHL SUB DUP6 AND PUSH1 0x0 SWAP1 DUP2 MSTORE PUSH1 0x20 DUP3 SWAP1 MSTORE PUSH1 0x40 DUP2 KECCAK256 SWAP2 SWAP3 POP PUSH1 0xFF DUP6 AND PUSH1 0x1 PUSH1 0x1 PUSH1 0x40 SHL SUB DUP2 GT DUP1 ISZERO PUSH2 0x28B3 JUMPI PUSH1 0x0 DUP1 REVERT JUMPDEST POP PUSH1 0x40 MLOAD SWAP1 DUP1 DUP3 MSTORE DUP1 PUSH1 0x20 MUL PUSH1 0x20 ADD DUP3 ADD PUSH1 0x40 MSTORE DUP1 ISZERO PUSH2 0x28ED JUMPI DUP2 PUSH1 0x20 ADD JUMPDEST PUSH2 0x28DA PUSH2 0x3FF5 JUMP JUMPDEST DUP2 MSTORE PUSH1 0x20 ADD SWAP1 PUSH1 0x1 SWAP1 SUB SWAP1 DUP2 PUSH2 0x28D2 JUMPI SWAP1 POP JUMPDEST POP SWAP1 POP PUSH1 0x0 JUMPDEST DUP6 PUSH1 0xFF AND DUP2 LT ISZERO PUSH2 0x2979 JUMPI PUSH1 0x0 DUP4 DUP3 PUSH1 0x10 DUP2 LT PUSH2 0x290C JUMPI INVALID JUMPDEST ADD SWAP1 POP PUSH1 0x0 DUP4 DUP4 DUP2 MLOAD DUP2 LT PUSH2 0x291D JUMPI INVALID JUMPDEST PUSH1 0x20 SWAP1 DUP2 MUL SWAP2 SWAP1 SWAP2 ADD DUP2 ADD MLOAD DUP4 SLOAD PUSH2 0xFFFF DUP2 AND DUP3 MSTORE PUSH5 0xFFFFFFFFFF PUSH3 0x10000 DUP3 DIV AND SWAP3 DUP3 ADD SWAP3 SWAP1 SWAP3 MSTORE PUSH1 0xFF PUSH1 0x1 PUSH1 0x38 SHL DUP4 DIV AND PUSH1 0x40 DUP3 ADD MSTORE PUSH1 0x1 PUSH1 0x40 SHL SWAP1 SWAP2 DIV PUSH1 0xA SWAP1 DUP2 SIGNEXTEND SWAP1 SIGNEXTEND PUSH1 0x60 DUP3 ADD MSTORE PUSH1 0x80 ADD SWAP2 SWAP1 SWAP2 MSTORE POP PUSH1 0x1 ADD PUSH2 0x28F3 JUMP JUMPDEST POP SWAP6 SWAP5 POP POP POP POP POP JUMP JUMPDEST DUP1 MLOAD PUSH1 0x0 DUP2 PUSH1 0x1 PUSH1 0x1 PUSH1 0x40 SHL SUB DUP2 GT DUP1 ISZERO PUSH2 0x299D JUMPI PUSH1 0x0 DUP1 REVERT JUMPDEST POP PUSH1 0x40 MLOAD SWAP1 DUP1 DUP3 MSTORE DUP1 PUSH1 0x20 MUL PUSH1 0x20 ADD DUP3 ADD PUSH1 0x40 MSTORE DUP1 ISZERO PUSH2 0x29C7 JUMPI DUP2 PUSH1 0x20 ADD PUSH1 0x20 DUP3 MUL DUP1 CALLDATASIZE DUP4 CALLDATACOPY ADD SWAP1 POP JUMPDEST POP SWAP1 POP PUSH1 0x0 JUMPDEST DUP3 DUP2 LT ISZERO PUSH2 0x2A24 JUMPI PUSH1 0x0 DUP5 DUP3 DUP2 MLOAD DUP2 LT PUSH2 0x29E3 JUMPI INVALID JUMPDEST PUSH1 0x20 MUL PUSH1 0x20 ADD ADD MLOAD SWAP1 POP PUSH2 0x2A04 DUP2 PUSH1 0x0 ADD MLOAD DUP3 PUSH1 0x20 ADD MLOAD DUP4 PUSH1 0x40 ADD MLOAD PUSH2 0x3792 JUMP JUMPDEST DUP4 DUP4 DUP2 MLOAD DUP2 LT PUSH2 0x2A10 JUMPI INVALID JUMPDEST PUSH1 0x20 SWAP1 DUP2 MUL SWAP2 SWAP1 SWAP2 ADD ADD MSTORE POP PUSH1 0x1 ADD PUSH2 0x29CD JUMP JUMPDEST POP PUSH1 0x1 JUMPDEST DUP3 DUP2 LT ISZERO PUSH2 0x15B7 JUMPI DUP1 JUMPDEST PUSH1 0x0 DUP2 GT DUP1 ISZERO PUSH2 0x2A6A JUMPI POP DUP3 DUP2 DUP2 MLOAD DUP2 LT PUSH2 0x2A49 JUMPI INVALID JUMPDEST PUSH1 0x20 MUL PUSH1 0x20 ADD ADD MLOAD DUP4 PUSH1 0x1 DUP4 SUB DUP2 MLOAD DUP2 LT PUSH2 0x2A60 JUMPI INVALID JUMPDEST PUSH1 0x20 MUL PUSH1 0x20 ADD ADD MLOAD GT JUMPDEST ISZERO PUSH2 0x2B32 JUMPI DUP3 DUP2 DUP2 MLOAD DUP2 LT PUSH2 0x2A7B JUMPI INVALID JUMPDEST PUSH1 0x20 MUL PUSH1 0x20 ADD ADD MLOAD DUP4 PUSH1 0x1 DUP4 SUB DUP2 MLOAD DUP2 LT PUSH2 0x2A92 JUMPI INVALID JUMPDEST PUSH1 0x20 MUL PUSH1 0x20 ADD ADD MLOAD DUP5 PUSH1 0x1 DUP5 SUB DUP2 MLOAD DUP2 LT PUSH2 0x2AA9 JUMPI INVALID JUMPDEST PUSH1 0x20 MUL PUSH1 0x20 ADD ADD DUP6 DUP5 DUP2 MLOAD DUP2 LT PUSH2 0x2ABC JUMPI INVALID JUMPDEST PUSH1 0x20 MUL PUSH1 0x20 ADD ADD DUP3 DUP2 MSTORE POP DUP3 DUP2 MSTORE POP POP POP DUP5 DUP2 DUP2 MLOAD DUP2 LT PUSH2 0x2AD9 JUMPI INVALID JUMPDEST PUSH1 0x20 MUL PUSH1 0x20 ADD ADD MLOAD DUP6 PUSH1 0x1 DUP4 SUB DUP2 MLOAD DUP2 LT PUSH2 0x2AF0 JUMPI INVALID JUMPDEST PUSH1 0x20 MUL PUSH1 0x20 ADD ADD MLOAD DUP7 PUSH1 0x1 DUP5 SUB DUP2 MLOAD DUP2 LT PUSH2 0x2B07 JUMPI INVALID JUMPDEST PUSH1 0x20 MUL PUSH1 0x20 ADD ADD DUP8 DUP5 DUP2 MLOAD DUP2 LT PUSH2 0x2B1A JUMPI INVALID JUMPDEST PUSH1 0x20 SWAP1 DUP2 MUL SWAP2 SWAP1 SWAP2 ADD ADD SWAP2 SWAP1 SWAP2 MSTORE MSTORE PUSH1 0x0 NOT ADD PUSH2 0x2A32 JUMP JUMPDEST POP PUSH1 0x1 ADD PUSH2 0x2A28 JUMP JUMPDEST PUSH1 0x0 DUP1 PUSH2 0xEA9 PUSH1 0x6 PUSH2 0x36F2 JUMP JUMPDEST PUSH1 0x8 DUP2 SWAP1 SHR PUSH1 0xFF SWAP1 SWAP2 AND SHL SWAP1 JUMP JUMPDEST PUSH1 0x0 DUP1 PUSH1 0x0 PUSH2 0x2B63 PUSH2 0x37ED JUMP JUMPDEST PUSH1 0x0 SWAP5 DUP6 MSTORE PUSH1 0x20 MSTORE POP POP PUSH1 0x40 SWAP1 SWAP2 KECCAK256 SLOAD PUSH1 0x1 PUSH1 0x1 PUSH1 0xA0 SHL SUB DUP2 AND SWAP3 PUSH1 0x1 PUSH1 0xA0 SHL SWAP1 SWAP2 DIV PUSH1 0xFF AND SWAP2 POP JUMP JUMPDEST PUSH1 0x0 DUP1 PUSH2 0xEA9 PUSH1 0x7 PUSH2 0x36F2 JUMP JUMPDEST PUSH1 0x0 DUP2 PUSH2 0x2BA9 JUMPI POP PUSH1 0x0 PUSH2 0xEA9 JUMP JUMPDEST PUSH1 0x0 PUSH2 0x2BB4 DUP5 PUSH2 0x37FA JUMP JUMPDEST SWAP1 POP PUSH1 0x0 PUSH2 0x2BC1 DUP5 PUSH2 0x3885 JUMP JUMPDEST SWAP1 POP DUP2 PUSH12 0x19D971E4FE8401E74000001 PUSH1 0x1 PUSH1 0xFF SHL SUB DUP2 PUSH2 0x2BDE JUMPI INVALID JUMPDEST SDIV DUP2 SGT ISZERO PUSH2 0x2BEB JUMPI PUSH1 0x0 DUP1 REVERT JUMPDEST PUSH12 0x33B2E3C9FD0803CE8000000 PUSH12 0x19D971E4FE8401E74000000 DUP4 DUP4 MUL ADD SDIV PUSH1 0x0 DUP6 SGT PUSH2 0x2C20 JUMPI PUSH2 0x2C1B DUP2 PUSH2 0xEAF JUMP JUMPDEST PUSH2 0x2C22 JUMP JUMPDEST DUP1 JUMPDEST SWAP7 SWAP6 POP POP POP POP POP POP JUMP JUMPDEST PUSH1 0x0 DUP1 DUP1 DUP1 PUSH1 0x5 DUP8 PUSH1 0x60 ADD MLOAD PUSH1 0x5 DUP2 GT ISZERO PUSH2 0x2C43 JUMPI INVALID JUMPDEST EQ PUSH2 0x2C55 JUMPI PUSH4 0x70A08231 PUSH1 0xE0 SHL PUSH2 0x2C5E JUMP JUMPDEST PUSH4 0xED1279F PUSH1 0xE1 SHL JUMPDEST SWAP1 POP DUP7 PUSH1 0x20 ADD MLOAD ISZERO PUSH2 0x2C7A JUMPI DUP7 MLOAD PUSH2 0x2C77 SWAP1 ADDRESS DUP4 PUSH2 0x2DD1 JUMP JUMPDEST SWAP3 POP JUMPDEST DUP7 MLOAD PUSH2 0x2C87 SWAP1 DUP8 DUP8 PUSH2 0x38A6 JUMP JUMPDEST DUP7 PUSH1 0x20 ADD MLOAD DUP1 PUSH2 0x2C9B JUMPI POP PUSH1 0x0 DUP8 PUSH1 0x80 ADD MLOAD GT JUMPDEST ISZERO PUSH2 0x2CB0 JUMPI DUP7 MLOAD PUSH2 0x2CAD SWAP1 ADDRESS DUP4 PUSH2 0x2DD1 JUMP JUMPDEST SWAP2 POP JUMPDEST PUSH1 0x80 DUP8 ADD MLOAD ISZERO PUSH2 0x2CEB JUMPI PUSH1 0x0 PUSH2 0x2CCE DUP9 PUSH2 0x2CC9 DUP6 PUSH2 0x2519 JUMP JUMPDEST PUSH2 0x1D30 JUMP JUMPDEST SWAP1 POP PUSH2 0x2CDD DUP9 PUSH1 0x80 ADD MLOAD PUSH2 0x2519 JUMP JUMPDEST DUP2 SGT ISZERO PUSH2 0x2CE9 JUMPI PUSH1 0x0 DUP1 REVERT JUMPDEST POP JUMPDEST DUP7 PUSH1 0x20 ADD MLOAD ISZERO PUSH2 0x2D0C JUMPI PUSH2 0x2D02 PUSH2 0x1D20 DUP4 DUP6 PUSH2 0x304C JUMP JUMPDEST SWAP4 POP POP POP POP PUSH2 0xA71 JUMP JUMPDEST PUSH2 0x2D02 DUP6 PUSH2 0x2519 JUMP JUMPDEST POP POP POP SWAP4 SWAP3 POP POP POP JUMP JUMPDEST PUSH1 0x40 MLOAD PUSH1 0x1 PUSH1 0x1 PUSH1 0xA0 SHL SUB DUP4 AND SWAP1 DUP3 ISZERO PUSH2 0x8FC MUL SWAP1 DUP4 SWAP1 PUSH1 0x0 DUP2 DUP2 DUP2 DUP6 DUP9 DUP9 CALL SWAP4 POP POP POP POP ISZERO DUP1 ISZERO PUSH2 0x2D55 JUMPI RETURNDATASIZE PUSH1 0x0 DUP1 RETURNDATACOPY RETURNDATASIZE PUSH1 0x0 REVERT JUMPDEST POP POP POP JUMP JUMPDEST DUP3 PUSH1 0x1 PUSH1 0x1 PUSH1 0xA0 SHL SUB AND PUSH4 0xA9059CBB DUP4 DUP4 PUSH1 0x40 MLOAD DUP4 PUSH4 0xFFFFFFFF AND PUSH1 0xE0 SHL DUP2 MSTORE PUSH1 0x4 ADD DUP1 DUP4 PUSH1 0x1 PUSH1 0x1 PUSH1 0xA0 SHL SUB AND DUP2 MSTORE PUSH1 0x20 ADD DUP3 DUP2 MSTORE PUSH1 0x20 ADD SWAP3 POP POP POP PUSH1 0x0 PUSH1 0x40 MLOAD DUP1 DUP4 SUB DUP2 PUSH1 0x0 DUP8 DUP1 EXTCODESIZE ISZERO DUP1 ISZERO PUSH2 0x2DB1 JUMPI PUSH1 0x0 DUP1 REVERT JUMPDEST POP GAS CALL ISZERO DUP1 ISZERO PUSH2 0x2DC5 JUMPI RETURNDATASIZE PUSH1 0x0 DUP1 RETURNDATACOPY RETURNDATASIZE PUSH1 0x0 REVERT JUMPDEST POP POP POP POP PUSH2 0x2D55 PUSH2 0x38FE JUMP JUMPDEST PUSH1 0x40 DUP1 MLOAD PUSH1 0x1 PUSH1 0x1 PUSH1 0xA0 SHL SUB DUP5 DUP2 AND PUSH1 0x24 DUP1 DUP5 ADD SWAP2 SWAP1 SWAP2 MSTORE DUP4 MLOAD DUP1 DUP5 SUB SWAP1 SWAP2 ADD DUP2 MSTORE PUSH1 0x44 SWAP1 SWAP3 ADD DUP4 MSTORE PUSH1 0x20 DUP3 ADD DUP1 MLOAD PUSH1 0x1 PUSH1 0x1 PUSH1 0xE0 SHL SUB AND PUSH1 0x1 PUSH1 0x1 PUSH1 0xE0 SHL SUB NOT DUP7 AND OR DUP2 MSTORE SWAP3 MLOAD DUP3 MLOAD PUSH1 0x0 SWAP5 DUP6 SWAP5 DUP6 SWAP5 DUP11 AND SWAP4 SWAP1 SWAP3 SWAP1 SWAP2 DUP3 SWAP2 DUP1 DUP4 DUP4 JUMPDEST PUSH1 0x20 DUP4 LT PUSH2 0x2E4E JUMPI DUP1 MLOAD DUP3 MSTORE PUSH1 0x1F NOT SWAP1 SWAP3 ADD SWAP2 PUSH1 0x20 SWAP2 DUP3 ADD SWAP2 ADD PUSH2 0x2E2F JUMP JUMPDEST PUSH1 0x1 DUP4 PUSH1 0x20 SUB PUSH2 0x100 EXP SUB DUP1 NOT DUP3 MLOAD AND DUP2 DUP5 MLOAD AND DUP1 DUP3 OR DUP6 MSTORE POP POP POP POP POP POP SWAP1 POP ADD SWAP2 POP POP PUSH1 0x0 PUSH1 0x40 MLOAD DUP1 DUP4 SUB DUP2 DUP6 GAS STATICCALL SWAP2 POP POP RETURNDATASIZE DUP1 PUSH1 0x0 DUP2 EQ PUSH2 0x2EAE JUMPI PUSH1 0x40 MLOAD SWAP2 POP PUSH1 0x1F NOT PUSH1 0x3F RETURNDATASIZE ADD AND DUP3 ADD PUSH1 0x40 MSTORE RETURNDATASIZE DUP3 MSTORE RETURNDATASIZE PUSH1 0x0 PUSH1 0x20 DUP5 ADD RETURNDATACOPY PUSH2 0x2EB3 JUMP JUMPDEST PUSH1 0x60 SWAP2 POP JUMPDEST POP SWAP2 POP SWAP2 POP DUP2 PUSH2 0x2EC2 JUMPI PUSH1 0x0 DUP1 REVERT JUMPDEST DUP1 DUP1 PUSH1 0x20 ADD SWAP1 MLOAD PUSH1 0x20 DUP2 LT ISZERO PUSH2 0x2ED7 JUMPI PUSH1 0x0 DUP1 REVERT JUMPDEST POP MLOAD SWAP7 SWAP6 POP POP POP POP POP POP JUMP JUMPDEST PUSH2 0x2EEB PUSH2 0x396B JUMP JUMPDEST SLOAD DUP3 MLOAD PUSH1 0x40 MLOAD PUSH4 0xE8EDA9DF PUSH1 0xE0 SHL DUP2 MSTORE PUSH1 0x1 PUSH1 0x1 PUSH1 0xA0 SHL SUB SWAP1 SWAP3 AND SWAP2 PUSH4 0xE8EDA9DF SWAP2 PUSH2 0x2F20 SWAP2 DUP6 SWAP1 ADDRESS SWAP1 PUSH1 0x0 SWAP1 PUSH1 0x4 ADD PUSH2 0x489E JUMP JUMPDEST PUSH1 0x0 PUSH1 0x40 MLOAD DUP1 DUP4 SUB DUP2 PUSH1 0x0 DUP8 DUP1 EXTCODESIZE ISZERO DUP1 ISZERO PUSH2 0x2F3A JUMPI PUSH1 0x0 DUP1 REVERT JUMPDEST POP GAS CALL ISZERO DUP1 ISZERO PUSH2 0x634 JUMPI RETURNDATASIZE PUSH1 0x0 DUP1 RETURNDATACOPY RETURNDATASIZE PUSH1 0x0 REVERT JUMPDEST DUP2 MLOAD PUSH1 0x40 MLOAD PUSH4 0x140E25AD PUSH1 0xE3 SHL DUP2 MSTORE PUSH1 0x0 SWAP2 PUSH1 0x1 PUSH1 0x1 PUSH1 0xA0 SHL SUB AND SWAP1 PUSH4 0xA0712D68 SWAP1 PUSH2 0x2F7E SWAP1 DUP6 SWAP1 PUSH1 0x4 ADD PUSH2 0x48F1 JUMP JUMPDEST PUSH1 0x20 PUSH1 0x40 MLOAD DUP1 DUP4 SUB DUP2 PUSH1 0x0 DUP8 DUP1 EXTCODESIZE ISZERO DUP1 ISZERO PUSH2 0x2F98 JUMPI PUSH1 0x0 DUP1 REVERT JUMPDEST POP GAS CALL ISZERO DUP1 ISZERO PUSH2 0x2FAC JUMPI RETURNDATASIZE PUSH1 0x0 DUP1 RETURNDATACOPY RETURNDATASIZE PUSH1 0x0 REVERT JUMPDEST POP POP POP POP PUSH1 0x40 MLOAD RETURNDATASIZE PUSH1 0x1F NOT PUSH1 0x1F DUP3 ADD AND DUP3 ADD DUP1 PUSH1 0x40 MSTORE POP DUP2 ADD SWAP1 PUSH2 0x2FD0 SWAP2 SWAP1 PUSH2 0x4415 JUMP JUMPDEST SWAP1 POP DUP1 ISZERO PUSH2 0x2D55 JUMPI PUSH1 0x40 MLOAD PUSH3 0x461BCD PUSH1 0xE5 SHL DUP2 MSTORE PUSH1 0x4 ADD PUSH2 0x17A SWAP1 PUSH2 0x4920 JUMP JUMPDEST DUP2 PUSH1 0x0 ADD MLOAD PUSH1 0x1 PUSH1 0x1 PUSH1 0xA0 SHL SUB AND PUSH4 0x1249C58B DUP3 PUSH1 0x40 MLOAD DUP3 PUSH4 0xFFFFFFFF AND PUSH1 0xE0 SHL DUP2 MSTORE PUSH1 0x4 ADD PUSH1 0x0 PUSH1 0x40 MLOAD DUP1 DUP4 SUB DUP2 DUP6 DUP9 DUP1 EXTCODESIZE ISZERO DUP1 ISZERO PUSH2 0x302F JUMPI PUSH1 0x0 DUP1 REVERT JUMPDEST POP GAS CALL ISZERO DUP1 ISZERO PUSH2 0x3043 JUMPI RETURNDATASIZE PUSH1 0x0 DUP1 RETURNDATACOPY RETURNDATASIZE PUSH1 0x0 REVERT JUMPDEST POP POP POP POP POP POP POP JUMP JUMPDEST PUSH1 0x0 DUP3 DUP3 GT ISZERO PUSH2 0x30A3 JUMPI PUSH1 0x40 DUP1 MLOAD PUSH3 0x461BCD PUSH1 0xE5 SHL DUP2 MSTORE PUSH1 0x20 PUSH1 0x4 DUP3 ADD MSTORE PUSH1 0x1E PUSH1 0x24 DUP3 ADD MSTORE PUSH32 0x536166654D6174683A207375627472616374696F6E206F766572666C6F770000 PUSH1 0x44 DUP3 ADD MSTORE SWAP1 MLOAD SWAP1 DUP2 SWAP1 SUB PUSH1 0x64 ADD SWAP1 REVERT JUMPDEST POP SWAP1 SUB SWAP1 JUMP JUMPDEST PUSH1 0x0 DUP1 PUSH1 0x2 DUP7 PUSH1 0x60 ADD MLOAD PUSH1 0x5 DUP2 GT ISZERO PUSH2 0x30BE JUMPI INVALID JUMPDEST EQ ISZERO PUSH2 0x30D6 JUMPI PUSH2 0x30CF DUP7 DUP6 DUP6 PUSH2 0x3978 JUMP JUMPDEST SWAP1 POP PUSH2 0x3133 JUMP JUMPDEST PUSH1 0x0 PUSH2 0x30E1 DUP7 PUSH2 0xF09 JUMP JUMPDEST SWAP1 POP PUSH1 0x5 DUP8 PUSH1 0x60 ADD MLOAD PUSH1 0x5 DUP2 GT ISZERO PUSH2 0x30F5 JUMPI INVALID JUMPDEST EQ ISZERO PUSH2 0x310D JUMPI PUSH2 0x3106 DUP2 DUP7 DUP7 PUSH2 0x3A35 JUMP JUMPDEST SWAP2 POP PUSH2 0x3131 JUMP JUMPDEST PUSH1 0x1 DUP8 PUSH1 0x60 ADD MLOAD PUSH1 0x5 DUP2 GT ISZERO PUSH2 0x311F JUMPI INVALID JUMPDEST EQ ISZERO PUSH2 0x7B JUMPI PUSH2 0x3106 DUP8 DUP3 DUP8 DUP8 PUSH2 0x3AEB JUMP JUMPDEST POP JUMPDEST PUSH2 0x2C22 PUSH2 0x3EA DUP3 PUSH2 0x2519 JUMP JUMPDEST PUSH1 0x0 DUP1 PUSH2 0x314A PUSH2 0x3BE9 JUMP JUMPDEST PUSH1 0x0 SWAP4 DUP5 MSTORE PUSH1 0x20 MSTORE POP POP PUSH1 0x40 SWAP1 KECCAK256 SLOAD PUSH1 0x1 PUSH1 0x1 PUSH1 0xA0 SHL SUB AND SWAP1 JUMP JUMPDEST PUSH1 0x0 DUP1 PUSH1 0x0 PUSH2 0x3174 DUP7 DUP6 PUSH2 0x3BF6 JUMP JUMPDEST POP SWAP2 POP SWAP2 POP PUSH1 0x0 PUSH2 0x3183 PUSH2 0x3C8C JUMP JUMPDEST PUSH1 0x1 PUSH1 0x1 PUSH1 0xA0 SHL SUB DUP9 AND PUSH1 0x0 SWAP1 DUP2 MSTORE PUSH1 0x20 DUP3 SWAP1 MSTORE PUSH1 0x40 DUP2 KECCAK256 SWAP2 SWAP3 POP PUSH2 0x31A8 DUP6 DUP10 PUSH2 0xE93 JUMP JUMPDEST SWAP1 POP DUP1 PUSH1 0x0 SGT ISZERO DUP1 ISZERO PUSH2 0x31C1 JUMPI POP PUSH1 0x1 PUSH1 0x1 PUSH1 0x60 SHL SUB DUP2 LT JUMPDEST PUSH2 0x31CA JUMPI PUSH1 0x0 DUP1 REVERT JUMPDEST DUP2 SLOAD PUSH12 0xFFFFFFFFFFFFFFFFFFFFFFFF NOT AND PUSH1 0x1 PUSH1 0x1 PUSH1 0x60 SHL SUB DUP3 AND OR PUSH16 0xFFFFFFFFFFFFFFFFFFFFFFFFFFFFFFFF PUSH1 0x60 SHL NOT AND PUSH1 0x1 PUSH1 0x60 SHL PUSH1 0x1 PUSH1 0x1 PUSH1 0x80 SHL SUB DUP7 AND MUL OR DUP3 SSTORE PUSH4 0xFFFFFFFF DUP8 LT PUSH2 0x321F JUMPI PUSH1 0x0 DUP1 REVERT JUMPDEST POP DUP1 SLOAD PUSH4 0xFFFFFFFF DUP8 AND PUSH1 0x1 PUSH1 0xE0 SHL MUL PUSH1 0x1 PUSH1 0x1 PUSH1 0xE0 SHL SUB SWAP1 SWAP2 AND OR SWAP1 SSTORE POP SWAP2 POP POP SWAP4 SWAP3 POP POP POP JUMP JUMPDEST PUSH1 0xE0 DUP5 ADD MLOAD PUSH1 0x0 SWAP1 ISZERO PUSH2 0x3309 JUMPI PUSH20 0x0 PUSH4 0xE0C01A72 DUP6 PUSH2 0x327D DUP9 PUSH1 0x40 ADD MLOAD PUSH2 0x1C26 JUMP JUMPDEST DUP9 PUSH1 0xE0 ADD MLOAD DUP10 PUSH2 0x100 ADD MLOAD PUSH1 0x40 MLOAD DUP6 PUSH4 0xFFFFFFFF AND PUSH1 0xE0 SHL DUP2 MSTORE PUSH1 0x4 ADD PUSH2 0x32A7 SWAP5 SWAP4 SWAP3 SWAP2 SWAP1 PUSH2 0x48CB JUMP JUMPDEST PUSH1 0x20 PUSH1 0x40 MLOAD DUP1 DUP4 SUB DUP2 DUP7 DUP1 EXTCODESIZE ISZERO DUP1 ISZERO PUSH2 0x32BF JUMPI PUSH1 0x0 DUP1 REVERT JUMPDEST POP GAS DELEGATECALL ISZERO DUP1 ISZERO PUSH2 0x32D3 JUMPI RETURNDATASIZE PUSH1 0x0 DUP1 RETURNDATACOPY RETURNDATASIZE PUSH1 0x0 REVERT JUMPDEST POP POP POP POP PUSH1 0x40 MLOAD RETURNDATASIZE PUSH1 0x1F NOT PUSH1 0x1F DUP3 ADD AND DUP3 ADD DUP1 PUSH1 0x40 MSTORE POP DUP2 ADD SWAP1 PUSH2 0x32F7 SWAP2 SWAP1 PUSH2 0x4415 JUMP JUMPDEST PUSH1 0x0 PUSH1 0xE0 DUP8 ADD DUP2 SWAP1 MSTORE PUSH2 0x100 DUP8 ADD MSTORE SWAP1 POP JUMPDEST PUSH2 0x334B PUSH2 0x3344 DUP7 PUSH2 0x100 ADD MLOAD PUSH2 0x333E PUSH8 0xDE0B6B3A7640000 PUSH2 0x3338 DUP9 PUSH2 0x3332 DUP13 PUSH1 0x40 ADD MLOAD PUSH2 0x1C26 JUMP JUMPDEST SWAP1 PUSH2 0x3C99 JUMP JUMPDEST SWAP1 PUSH2 0x3CF2 JUMP JUMPDEST SWAP1 PUSH2 0x304C JUMP JUMPDEST DUP3 SWAP1 PUSH2 0x3D59 JUMP JUMPDEST SWAP1 POP PUSH2 0x3363 PUSH8 0xDE0B6B3A7640000 PUSH2 0x3338 DUP5 DUP7 PUSH2 0x3C99 JUMP JUMPDEST DUP6 PUSH2 0x100 ADD DUP2 DUP2 MSTORE POP POP SWAP5 SWAP4 POP POP POP POP JUMP JUMPDEST PUSH1 0x0 DUP1 PUSH2 0x3380 PUSH2 0x2837 JUMP JUMPDEST PUSH1 0x1 PUSH1 0x1 PUSH1 0xA0 SHL SUB DUP5 AND PUSH1 0x0 SWAP1 DUP2 MSTORE PUSH1 0x20 DUP3 SWAP1 MSTORE PUSH1 0x40 SWAP1 KECCAK256 DUP1 SLOAD SWAP2 SWAP3 POP SWAP1 PUSH1 0x1 PUSH1 0xF8 SHL SWAP1 DIV PUSH1 0xFF AND ISZERO PUSH2 0x33DC JUMPI PUSH2 0x33B5 PUSH2 0x3DB3 JUMP JUMPDEST PUSH1 0x1 PUSH1 0x1 PUSH1 0xA0 SHL SUB DUP1 DUP7 AND PUSH1 0x0 SWAP1 DUP2 MSTORE PUSH1 0x20 SWAP3 SWAP1 SWAP3 MSTORE PUSH1 0x40 SWAP1 SWAP2 KECCAK256 SLOAD AND SWAP3 POP PUSH2 0xBB0 SWAP2 POP POP JUMP JUMPDEST PUSH1 0x0 SWAP3 POP POP POP PUSH2 0xBB0 JUMP JUMPDEST PUSH2 0x8B9 PUSH20 0xCFEAEAD4947F0705A14EC42AC3D44129E1EF3ED5 DUP4 DUP4 PUSH2 0x2D5A JUMP JUMPDEST DUP2 MLOAD MLOAD DUP2 LT PUSH2 0x3414 JUMPI PUSH1 0x0 DUP1 REVERT JUMPDEST PUSH1 0x0 DUP3 PUSH1 0x60 ADD MLOAD GT PUSH2 0x3425 JUMPI PUSH1 0x0 DUP1 REVERT JUMPDEST PUSH1 0x0 DUP3 PUSH1 0x0 ADD MLOAD DUP3 DUP2 MLOAD DUP2 LT PUSH2 0x3437 JUMPI INVALID JUMPDEST PUSH1 0x20 MUL PUSH1 0x20 ADD ADD MLOAD SWAP1 POP PUSH1 0x2 PUSH1 0x3 DUP2 GT ISZERO PUSH2 0x344E JUMPI INVALID JUMPDEST DUP2 PUSH1 0xA0 ADD MLOAD PUSH1 0x3 DUP2 GT ISZERO PUSH2 0x345E JUMPI INVALID JUMPDEST EQ ISZERO DUP1 ISZERO PUSH2 0x347C JUMPI POP PUSH1 0x3 DUP2 PUSH1 0xA0 ADD MLOAD PUSH1 0x3 DUP2 GT ISZERO PUSH2 0x3479 JUMPI INVALID JUMPDEST EQ ISZERO JUMPDEST PUSH2 0x3485 JUMPI PUSH1 0x0 DUP1 REVERT JUMPDEST PUSH1 0x60 DUP4 ADD DUP1 MLOAD PUSH1 0x0 NOT ADD SWAP1 MSTORE PUSH1 0x0 DUP1 DUP1 JUMPDEST DUP6 MLOAD MLOAD DUP2 LT ISZERO PUSH2 0x34F8 JUMPI PUSH1 0x0 DUP7 PUSH1 0x0 ADD MLOAD DUP3 DUP2 MLOAD DUP2 LT PUSH2 0x34B2 JUMPI INVALID JUMPDEST PUSH1 0x20 MUL PUSH1 0x20 ADD ADD MLOAD SWAP1 POP DUP3 DUP2 PUSH1 0x80 ADD MLOAD GT DUP1 ISZERO PUSH2 0x34DF JUMPI POP PUSH1 0x2 DUP2 PUSH1 0xA0 ADD MLOAD PUSH1 0x3 DUP2 GT ISZERO PUSH2 0x34DC JUMPI INVALID JUMPDEST EQ ISZERO JUMPDEST ISZERO PUSH2 0x34EF JUMPI DUP1 PUSH1 0x80 ADD MLOAD SWAP3 POP DUP2 SWAP4 POP JUMPDEST POP PUSH1 0x1 ADD PUSH2 0x3496 JUMP JUMPDEST POP DUP2 DUP5 EQ ISZERO PUSH2 0x3511 JUMPI POP POP PUSH1 0x2 PUSH1 0xA0 SWAP2 SWAP1 SWAP2 ADD MSTORE PUSH2 0x8B9 JUMP JUMPDEST PUSH1 0x0 DUP6 PUSH1 0x0 ADD MLOAD DUP4 DUP2 MLOAD DUP2 LT PUSH2 0x3523 JUMPI INVALID JUMPDEST PUSH1 0x20 SWAP1 DUP2 MUL SWAP2 SWAP1 SWAP2 ADD ADD MLOAD PUSH1 0x80 DUP6 DUP2 ADD DUP1 MLOAD SWAP2 DUP4 ADD DUP1 MLOAD SWAP1 SWAP2 MSTORE MSTORE PUSH1 0x1 PUSH1 0xA0 SWAP2 DUP3 ADD MSTORE PUSH1 0x2 SWAP5 ADD SWAP4 SWAP1 SWAP4 MSTORE POP POP POP POP POP JUMP JUMPDEST DUP2 MLOAD ISZERO DUP1 ISZERO SWAP1 PUSH2 0x3568 JUMPI POP DUP2 MLOAD PUSH2 0x3FFF LT ISZERO JUMPDEST PUSH2 0x3571 JUMPI PUSH1 0x0 DUP1 REVERT JUMPDEST DUP2 PUSH1 0x20 ADD MLOAD PUSH1 0x0 LT DUP1 ISZERO PUSH2 0x358E JUMPI POP PUSH1 0x20 DUP3 ADD MLOAD PUSH5 0xFFFFFFFFFF LT ISZERO JUMPDEST PUSH2 0x3597 JUMPI PUSH1 0x0 DUP1 REVERT JUMPDEST DUP2 PUSH1 0x40 ADD MLOAD PUSH1 0x0 LT DUP1 ISZERO PUSH2 0x35B0 JUMPI POP PUSH1 0x40 DUP3 ADD MLOAD PUSH1 0x8 LT ISZERO JUMPDEST PUSH2 0x35B9 JUMPI PUSH1 0x0 DUP1 REVERT JUMPDEST PUSH1 0x60 DUP3 ADD MLOAD PUSH11 0x7FFFFFFFFFFFFFFFFFFFFF NOT SGT DUP1 ISZERO SWAP1 PUSH2 0x35E8 JUMPI POP PUSH1 0x60 DUP3 ADD MLOAD PUSH11 0x7FFFFFFFFFFFFFFFFFFFFF SLT ISZERO JUMPDEST PUSH2 0x35F1 JUMPI PUSH1 0x0 DUP1 REVERT JUMPDEST DUP2 MLOAD DUP2 SLOAD PUSH1 0x20 DUP5 ADD MLOAD PUSH1 0x40 DUP6 ADD MLOAD PUSH1 0x60 SWAP1 SWAP6 ADD MLOAD PUSH1 0xA SIGNEXTEND PUSH11 0xFFFFFFFFFFFFFFFFFFFFFF AND PUSH1 0x1 PUSH1 0x40 SHL MUL PUSH19 0xFFFFFFFFFFFFFFFFFFFFFF0000000000000000 NOT PUSH1 0xFF SWAP1 SWAP7 AND PUSH1 0x1 PUSH1 0x38 SHL MUL PUSH8 0xFF00000000000000 NOT PUSH5 0xFFFFFFFFFF SWAP1 SWAP4 AND PUSH3 0x10000 MUL PUSH7 0xFFFFFFFFFF0000 NOT PUSH2 0xFFFF SWAP1 SWAP7 AND PUSH2 0xFFFF NOT SWAP1 SWAP6 AND SWAP5 SWAP1 SWAP5 OR SWAP5 SWAP1 SWAP5 AND SWAP3 SWAP1 SWAP3 OR AND SWAP2 SWAP1 SWAP2 OR SWAP3 SWAP1 SWAP3 AND SWAP2 SWAP1 SWAP2 OR SWAP1 SSTORE JUMP JUMPDEST PUSH1 0x0 DUP1 PUSH1 0x0 DUP1 PUSH2 0x3695 DUP9 PUSH2 0x3DC0 JUMP JUMPDEST SWAP1 POP DUP5 ISZERO DUP1 PUSH2 0x36A3 JUMPI POP DUP1 DUP6 GT JUMPDEST ISZERO PUSH2 0x36AC JUMPI DUP1 SWAP5 POP JUMPDEST DUP7 DUP1 PUSH2 0x36BC JUMPI POP PUSH1 0x0 DUP9 PUSH1 0x60 ADD MLOAD SLT JUMPDEST SWAP7 POP PUSH2 0xFFFF DUP7 AND ISZERO PUSH2 0x36CD JUMPI PUSH1 0x0 DUP1 REVERT JUMPDEST POP POP SWAP5 MLOAD SWAP4 SWAP6 PUSH1 0x10 SWAP4 SWAP1 SWAP4 SHR PUSH1 0xF0 SWAP5 SWAP1 SWAP5 SHL SWAP4 SWAP1 SWAP4 OR SWAP4 POP SWAP2 POP JUMP JUMPDEST PUSH1 0x0 DUP1 PUSH2 0xEA9 PUSH1 0xD JUMPDEST PUSH1 0x0 PUSH3 0xF4240 DUP3 PUSH1 0x1A DUP2 GT ISZERO PUSH2 0x3704 JUMPI INVALID JUMPDEST ADD SWAP3 SWAP2 POP POP JUMP JUMPDEST PUSH1 0x0 DUP2 PUSH2 0x371A JUMPI POP PUSH1 0x0 PUSH2 0xEA9 JUMP JUMPDEST PUSH1 0x0 DUP3 SGT PUSH2 0x3727 JUMPI PUSH1 0x0 DUP1 REVERT JUMPDEST PUSH1 0x0 PUSH2 0x3732 DUP5 PUSH2 0xF09 JUMP JUMPDEST SWAP1 POP PUSH1 0x0 PUSH2 0x3743 DUP3 PUSH1 0x0 ADD MLOAD PUSH2 0x37FA JUMP JUMPDEST SWAP1 POP PUSH1 0x2 DUP2 SDIV PUSH12 0x33B2E3C9FD0803CE8000000 PUSH1 0x1 PUSH1 0x1 PUSH1 0xFF SHL SUB DUP3 SWAP1 SUB SDIV DUP6 SGT ISZERO PUSH2 0x376E JUMPI PUSH1 0x0 DUP1 REVERT JUMPDEST DUP2 DUP2 PUSH12 0x33B2E3C9FD0803CE8000000 DUP8 MUL ADD DUP2 PUSH2 0x3787 JUMPI INVALID JUMPDEST SDIV SWAP7 SWAP6 POP POP POP POP POP POP JUMP JUMPDEST PUSH1 0x0 PUSH2 0x3FFF DUP5 GT ISZERO PUSH2 0x37A3 JUMPI PUSH1 0x0 DUP1 REVERT JUMPDEST PUSH5 0xFFFFFFFFFF DUP4 GT ISZERO PUSH2 0x37B5 JUMPI PUSH1 0x0 DUP1 REVERT JUMPDEST PUSH1 0x8 DUP3 GT ISZERO PUSH2 0x37C3 JUMPI PUSH1 0x0 DUP1 REVERT JUMPDEST POP PUSH8 0xFFFF000000000000 PUSH1 0x30 DUP5 SWAP1 SHL AND PUSH6 0xFFFFFFFFFF00 PUSH1 0x8 DUP5 SWAP1 SHL AND OR PUSH1 0xFF DUP3 AND OR SWAP4 SWAP3 POP POP POP JUMP JUMPDEST PUSH1 0x0 DUP1 PUSH2 0xEA9 PUSH1 0xF PUSH2 0x36F2 JUMP JUMPDEST PUSH1 0x0 PUSH2 0xBAD PUSH2 0x3807 PUSH2 0x396B JUMP JUMPDEST SLOAD PUSH1 0x40 MLOAD PUSH4 0xD15E0053 PUSH1 0xE0 SHL DUP2 MSTORE PUSH1 0x1 PUSH1 0x1 PUSH1 0xA0 SHL SUB SWAP1 SWAP2 AND SWAP1 PUSH4 0xD15E0053 SWAP1 PUSH2 0x3835 SWAP1 DUP7 SWAP1 PUSH1 0x4 ADD PUSH2 0x467E JUMP JUMPDEST PUSH1 0x20 PUSH1 0x40 MLOAD DUP1 DUP4 SUB DUP2 DUP7 DUP1 EXTCODESIZE ISZERO DUP1 ISZERO PUSH2 0x384D JUMPI PUSH1 0x0 DUP1 REVERT JUMPDEST POP GAS STATICCALL ISZERO DUP1 ISZERO PUSH2 0x3861 JUMPI RETURNDATASIZE PUSH1 0x0 DUP1 RETURNDATACOPY RETURNDATASIZE PUSH1 0x0 REVERT JUMPDEST POP POP POP POP PUSH1 0x40 MLOAD RETURNDATASIZE PUSH1 0x1F NOT PUSH1 0x1F DUP3 ADD AND DUP3 ADD DUP1 PUSH1 0x40 MSTORE POP DUP2 ADD SWAP1 PUSH2 0x1D20 SWAP2 SWAP1 PUSH2 0x4415 JUMP JUMPDEST PUSH1 0x0 DUP1 DUP3 SLT ISZERO PUSH2 0x389F JUMPI PUSH2 0x3898 DUP3 PUSH2 0xEAF JUMP JUMPDEST SWAP1 POP PUSH2 0xBB0 JUMP JUMPDEST POP DUP1 PUSH2 0xBB0 JUMP JUMPDEST PUSH1 0x40 DUP1 MLOAD PUSH4 0x23B872DD PUSH1 0xE0 SHL DUP2 MSTORE PUSH1 0x1 PUSH1 0x1 PUSH1 0xA0 SHL SUB DUP5 DUP2 AND PUSH1 0x4 DUP4 ADD MSTORE ADDRESS PUSH1 0x24 DUP4 ADD MSTORE PUSH1 0x44 DUP3 ADD DUP5 SWAP1 MSTORE SWAP2 MLOAD SWAP2 DUP6 AND SWAP2 PUSH4 0x23B872DD SWAP2 PUSH1 0x64 DUP1 DUP3 ADD SWAP3 PUSH1 0x0 SWAP3 SWAP1 SWAP2 SWAP1 DUP3 SWAP1 SUB ADD DUP2 DUP4 DUP8 DUP1 EXTCODESIZE ISZERO DUP1 ISZERO PUSH2 0x2DB1 JUMPI PUSH1 0x0 DUP1 REVERT JUMPDEST PUSH1 0x0 PUSH2 0x3908 PUSH2 0x408E JUMP JUMPDEST RETURNDATASIZE DUP1 ISZERO PUSH2 0x391C JUMPI PUSH1 0x20 DUP2 EQ PUSH2 0x3925 JUMPI PUSH1 0x0 DUP1 REVERT JUMPDEST PUSH1 0x1 SWAP3 POP PUSH2 0x3930 JUMP JUMPDEST PUSH1 0x20 PUSH1 0x0 DUP4 RETURNDATACOPY DUP2 MLOAD SWAP3 POP JUMPDEST POP DUP2 PUSH2 0x8B9 JUMPI PUSH1 0x40 DUP1 MLOAD PUSH3 0x461BCD PUSH1 0xE5 SHL DUP2 MSTORE PUSH1 0x20 PUSH1 0x4 DUP3 ADD MSTORE PUSH1 0x5 PUSH1 0x24 DUP3 ADD MSTORE PUSH5 0x455243323 PUSH1 0xDC SHL PUSH1 0x44 DUP3 ADD MSTORE SWAP1 MLOAD SWAP1 DUP2 SWAP1 SUB PUSH1 0x64 ADD SWAP1 REVERT JUMPDEST PUSH1 0x0 DUP1 PUSH2 0xEA9 PUSH1 0x13 PUSH2 0x36F2 JUMP JUMPDEST DUP3 MLOAD PUSH1 0x40 MLOAD PUSH4 0xDB006A75 PUSH1 0xE0 SHL DUP2 MSTORE PUSH1 0x0 SWAP2 SELFBALANCE SWAP2 DUP4 SWAP2 PUSH1 0x1 PUSH1 0x1 PUSH1 0xA0 SHL SUB AND SWAP1 PUSH4 0xDB006A75 SWAP1 PUSH2 0x39AC SWAP1 DUP8 SWAP1 PUSH1 0x4 ADD PUSH2 0x48F1 JUMP JUMPDEST PUSH1 0x20 PUSH1 0x40 MLOAD DUP1 DUP4 SUB DUP2 PUSH1 0x0 DUP8 DUP1 EXTCODESIZE ISZERO DUP1 ISZERO PUSH2 0x39C6 JUMPI PUSH1 0x0 DUP1 REVERT JUMPDEST POP GAS CALL ISZERO DUP1 ISZERO PUSH2 0x39DA JUMPI RETURNDATASIZE PUSH1 0x0 DUP1 RETURNDATACOPY RETURNDATASIZE PUSH1 0x0 REVERT JUMPDEST POP POP POP POP PUSH1 0x40 MLOAD RETURNDATASIZE PUSH1 0x1F NOT PUSH1 0x1F DUP3 ADD AND DUP3 ADD DUP1 PUSH1 0x40 MSTORE POP DUP2 ADD SWAP1 PUSH2 0x39FE SWAP2 SWAP1 PUSH2 0x4415 JUMP JUMPDEST SWAP1 POP DUP1 ISZERO PUSH2 0x3A1E JUMPI PUSH1 0x40 MLOAD PUSH3 0x461BCD PUSH1 0xE5 SHL DUP2 MSTORE PUSH1 0x4 ADD PUSH2 0x17A SWAP1 PUSH2 0x4963 JUMP JUMPDEST SELFBALANCE PUSH2 0x3A29 DUP2 DUP5 PUSH2 0x304C JUMP JUMPDEST SWAP4 POP PUSH2 0x2D15 DUP7 DUP6 PUSH2 0x2D1F JUMP JUMPDEST PUSH1 0x0 PUSH2 0x3A55 PUSH2 0x3A50 DUP6 PUSH1 0x0 ADD MLOAD PUSH2 0x3A4B DUP6 PUSH2 0x2519 JUMP JUMPDEST PUSH2 0x2B9A JUMP JUMPDEST PUSH2 0x1C26 JUMP JUMPDEST SWAP1 POP PUSH2 0x3A5F PUSH2 0x396B JUMP JUMPDEST SLOAD DUP5 MLOAD PUSH1 0x40 MLOAD PUSH4 0x1A4CA37B PUSH1 0xE2 SHL DUP2 MSTORE PUSH1 0x1 PUSH1 0x1 PUSH1 0xA0 SHL SUB SWAP1 SWAP3 AND SWAP2 PUSH4 0x69328DEC SWAP2 PUSH2 0x3A91 SWAP2 DUP6 SWAP1 DUP9 SWAP1 PUSH1 0x4 ADD PUSH2 0x487B JUMP JUMPDEST PUSH1 0x20 PUSH1 0x40 MLOAD DUP1 DUP4 SUB DUP2 PUSH1 0x0 DUP8 DUP1 EXTCODESIZE ISZERO DUP1 ISZERO PUSH2 0x3AAB JUMPI PUSH1 0x0 DUP1 REVERT JUMPDEST POP GAS CALL ISZERO DUP1 ISZERO PUSH2 0x3ABF JUMPI RETURNDATASIZE PUSH1 0x0 DUP1 RETURNDATACOPY RETURNDATASIZE PUSH1 0x0 REVERT JUMPDEST POP POP POP POP PUSH1 0x40 MLOAD RETURNDATASIZE PUSH1 0x1F NOT PUSH1 0x1F DUP3 ADD AND DUP3 ADD DUP1 PUSH1 0x40 MSTORE POP DUP2 ADD SWAP1 PUSH2 0x3AE3 SWAP2 SWAP1 PUSH2 0x4415 JUMP JUMPDEST POP SWAP4 SWAP3 POP POP POP JUMP JUMPDEST DUP3 MLOAD PUSH1 0x0 SWAP1 DUP2 SWAP1 PUSH2 0x3B04 SWAP1 ADDRESS PUSH4 0x70A08231 PUSH1 0xE0 SHL PUSH2 0x2DD1 JUMP JUMPDEST SWAP1 POP PUSH1 0x0 DUP7 PUSH1 0x0 ADD MLOAD PUSH1 0x1 PUSH1 0x1 PUSH1 0xA0 SHL SUB AND PUSH4 0xDB006A75 DUP6 PUSH1 0x40 MLOAD DUP3 PUSH4 0xFFFFFFFF AND PUSH1 0xE0 SHL DUP2 MSTORE PUSH1 0x4 ADD PUSH2 0x3B38 SWAP2 SWAP1 PUSH2 0x48F1 JUMP JUMPDEST PUSH1 0x20 PUSH1 0x40 MLOAD DUP1 DUP4 SUB DUP2 PUSH1 0x0 DUP8 DUP1 EXTCODESIZE ISZERO DUP1 ISZERO PUSH2 0x3B52 JUMPI PUSH1 0x0 DUP1 REVERT JUMPDEST POP GAS CALL ISZERO DUP1 ISZERO PUSH2 0x3B66 JUMPI RETURNDATASIZE PUSH1 0x0 DUP1 RETURNDATACOPY RETURNDATASIZE PUSH1 0x0 REVERT JUMPDEST POP POP POP POP PUSH1 0x40 MLOAD RETURNDATASIZE PUSH1 0x1F NOT PUSH1 0x1F DUP3 ADD AND DUP3 ADD DUP1 PUSH1 0x40 MSTORE POP DUP2 ADD SWAP1 PUSH2 0x3B8A SWAP2 SWAP1 PUSH2 0x4415 JUMP JUMPDEST SWAP1 POP DUP1 ISZERO PUSH2 0x3BAA JUMPI PUSH1 0x40 MLOAD PUSH3 0x461BCD PUSH1 0xE5 SHL DUP2 MSTORE PUSH1 0x4 ADD PUSH2 0x17A SWAP1 PUSH2 0x4963 JUMP JUMPDEST DUP6 MLOAD PUSH1 0x0 SWAP1 PUSH2 0x3BC1 SWAP1 ADDRESS PUSH4 0x70A08231 PUSH1 0xE0 SHL PUSH2 0x2DD1 JUMP JUMPDEST SWAP1 POP PUSH2 0x3BCD DUP2 DUP5 PUSH2 0x304C JUMP JUMPDEST SWAP4 POP PUSH2 0x3BDE DUP8 PUSH1 0x0 ADD MLOAD DUP8 DUP7 PUSH2 0x2D5A JUMP JUMPDEST POP POP POP SWAP5 SWAP4 POP POP POP POP JUMP JUMPDEST PUSH1 0x0 DUP1 PUSH2 0xEA9 PUSH1 0x3 PUSH2 0x36F2 JUMP JUMPDEST PUSH1 0x0 DUP1 PUSH1 0x0 PUSH2 0x3C04 DUP6 PUSH2 0x3E2D JUMP JUMPDEST SWAP2 SWAP5 POP SWAP3 POP SWAP1 POP DUP1 DUP5 GT DUP1 ISZERO PUSH2 0x3C1A JUMPI POP PUSH1 0x0 DUP2 GT JUMPDEST DUP1 ISZERO PUSH2 0x3C26 JUMPI POP PUSH1 0x0 DUP4 GT JUMPDEST ISZERO PUSH2 0x3C85 JUMPI PUSH1 0x0 PUSH2 0x3C36 DUP7 PUSH2 0x163A JUMP JUMPDEST POP POP POP SWAP2 POP POP PUSH1 0x0 PUSH2 0x3C61 PUSH2 0x3C58 PUSH4 0x5F5E100 DUP5 PUSH2 0x3C99 SWAP1 SWAP2 SWAP1 PUSH4 0xFFFFFFFF AND JUMP JUMPDEST DUP5 DUP9 SUB DUP8 PUSH2 0x3E89 JUMP JUMPDEST SWAP1 POP PUSH2 0x3C6D DUP5 DUP3 PUSH2 0x3D59 JUMP JUMPDEST SWAP4 POP PUSH1 0x1 PUSH1 0x1 PUSH1 0x80 SHL SUB DUP5 LT PUSH2 0x3C82 JUMPI PUSH1 0x0 DUP1 REVERT JUMPDEST POP POP JUMPDEST SWAP3 POP SWAP3 POP SWAP3 JUMP JUMPDEST PUSH1 0x0 DUP1 PUSH2 0xEA9 PUSH1 0x11 PUSH2 0x36F2 JUMP JUMPDEST PUSH1 0x0 DUP3 PUSH2 0x3CA8 JUMPI POP PUSH1 0x0 PUSH2 0xEA9 JUMP JUMPDEST DUP3 DUP3 MUL DUP3 DUP5 DUP3 DUP2 PUSH2 0x3CB5 JUMPI INVALID JUMPDEST DIV EQ PUSH2 0xA71 JUMPI PUSH1 0x40 MLOAD PUSH3 0x461BCD PUSH1 0xE5 SHL DUP2 MSTORE PUSH1 0x4 ADD DUP1 DUP1 PUSH1 0x20 ADD DUP3 DUP2 SUB DUP3 MSTORE PUSH1 0x21 DUP2 MSTORE PUSH1 0x20 ADD DUP1 PUSH2 0x4BDC PUSH1 0x21 SWAP2 CODECOPY PUSH1 0x40 ADD SWAP2 POP POP PUSH1 0x40 MLOAD DUP1 SWAP2 SUB SWAP1 REVERT JUMPDEST PUSH1 0x0 DUP1 DUP3 GT PUSH2 0x3D48 JUMPI PUSH1 0x40 DUP1 MLOAD PUSH3 0x461BCD PUSH1 0xE5 SHL DUP2 MSTORE PUSH1 0x20 PUSH1 0x4 DUP3 ADD MSTORE PUSH1 0x1A PUSH1 0x24 DUP3 ADD MSTORE PUSH32 0x536166654D6174683A206469766973696F6E206279207A65726F000000000000 PUSH1 0x44 DUP3 ADD MSTORE SWAP1 MLOAD SWAP1 DUP2 SWAP1 SUB PUSH1 0x64 ADD SWAP1 REVERT JUMPDEST DUP2 DUP4 DUP2 PUSH2 0x3D51 JUMPI INVALID JUMPDEST DIV SWAP4 SWAP3 POP POP POP JUMP JUMPDEST PUSH1 0x0 DUP3 DUP3 ADD DUP4 DUP2 LT ISZERO PUSH2 0xA71 JUMPI PUSH1 0x40 DUP1 MLOAD PUSH3 0x461BCD PUSH1 0xE5 SHL DUP2 MSTORE PUSH1 0x20 PUSH1 0x4 DUP3 ADD MSTORE PUSH1 0x1B PUSH1 0x24 DUP3 ADD MSTORE PUSH32 0x536166654D6174683A206164646974696F6E206F766572666C6F770000000000 PUSH1 0x44 DUP3 ADD MSTORE SWAP1 MLOAD SWAP1 DUP2 SWAP1 SUB PUSH1 0x64 ADD SWAP1 REVERT JUMPDEST PUSH1 0x0 DUP1 PUSH2 0xEA9 PUSH1 0x12 PUSH2 0x36F2 JUMP JUMPDEST PUSH1 0x0 DUP1 DUP3 PUSH1 0x40 ADD MLOAD GT DUP1 ISZERO PUSH2 0x3DDA JUMPI POP PUSH1 0x40 DUP3 ADD MLOAD PUSH1 0x8 LT ISZERO JUMPDEST PUSH2 0x3DE3 JUMPI PUSH1 0x0 DUP1 REVERT JUMPDEST PUSH1 0x40 DUP3 ADD MLOAD PUSH1 0x2 LT PUSH2 0x3DFA JUMPI POP PUSH1 0x20 DUP2 ADD MLOAD PUSH2 0xBB0 JUMP JUMPDEST PUSH1 0x0 PUSH2 0x3E0C PUSH1 0x1 DUP5 PUSH1 0x40 ADD MLOAD SUB PUSH2 0x3EAB JUMP JUMPDEST PUSH1 0x20 DUP5 ADD MLOAD SWAP1 SWAP2 POP PUSH2 0xA71 SWAP1 PUSH3 0x76A700 SWAP1 PUSH2 0x3E27 SWAP1 DUP5 PUSH2 0x304C JUMP JUMPDEST SWAP1 PUSH2 0x3D59 JUMP JUMPDEST PUSH1 0x0 DUP1 PUSH1 0x0 DUP1 PUSH2 0x3E3B PUSH2 0x3C8C JUMP JUMPDEST PUSH1 0x1 PUSH1 0x1 PUSH1 0xA0 SHL SUB SWAP6 SWAP1 SWAP6 AND PUSH1 0x0 SWAP1 DUP2 MSTORE PUSH1 0x20 SWAP6 SWAP1 SWAP6 MSTORE POP POP PUSH1 0x40 SWAP1 SWAP3 KECCAK256 SLOAD PUSH1 0x1 PUSH1 0x1 PUSH1 0x60 SHL SUB DUP2 AND SWAP4 PUSH1 0x1 PUSH1 0x60 SHL DUP3 DIV PUSH1 0x1 PUSH1 0x1 PUSH1 0x80 SHL SUB AND SWAP4 POP PUSH1 0x1 PUSH1 0xE0 SHL SWAP1 SWAP2 DIV PUSH4 0xFFFFFFFF AND SWAP2 POP JUMP JUMPDEST PUSH1 0x0 PUSH2 0xF4D DUP3 PUSH2 0x3338 PUSH4 0x1DA9C00 DUP2 DUP9 PUSH2 0x3332 DUP10 PUSH8 0xDE0B6B3A7640000 PUSH2 0x3C99 JUMP JUMPDEST PUSH1 0x0 DUP2 PUSH1 0x1 EQ ISZERO PUSH2 0x3EC0 JUMPI POP PUSH3 0x76A700 PUSH2 0xBB0 JUMP JUMPDEST DUP2 PUSH1 0x2 EQ ISZERO PUSH2 0x3ED3 JUMPI POP PUSH3 0xED4E00 PUSH2 0xBB0 JUMP JUMPDEST DUP2 PUSH1 0x3 EQ ISZERO PUSH2 0x3EE7 JUMPI POP PUSH4 0x1DA9C00 PUSH2 0xBB0 JUMP JUMPDEST DUP2 PUSH1 0x4 EQ ISZERO PUSH2 0x3EFB JUMPI POP PUSH4 0x3B53800 PUSH2 0xBB0 JUMP JUMPDEST DUP2 PUSH1 0x5 EQ ISZERO PUSH2 0x3F0F JUMPI POP PUSH4 0x9450C00 PUSH2 0xBB0 JUMP JUMPDEST DUP2 PUSH1 0x6 EQ ISZERO PUSH2 0x3F23 JUMPI POP PUSH4 0x128A1800 PUSH2 0xBB0 JUMP JUMPDEST DUP2 PUSH1 0x7 EQ ISZERO PUSH2 0x3F37 JUMPI POP PUSH4 0x25143000 PUSH2 0xBB0 JUMP JUMPDEST PUSH1 0x40 MLOAD PUSH3 0x461BCD PUSH1 0xE5 SHL DUP2 MSTORE PUSH1 0x4 ADD PUSH2 0x17A SWAP1 PUSH2 0x4983 JUMP JUMPDEST PUSH1 0x40 MLOAD DUP1 PUSH2 0x120 ADD PUSH1 0x40 MSTORE DUP1 PUSH1 0x0 PUSH2 0xFFFF AND DUP2 MSTORE PUSH1 0x20 ADD PUSH1 0x0 DUP2 MSTORE PUSH1 0x20 ADD PUSH1 0x0 DUP2 MSTORE PUSH1 0x20 ADD PUSH1 0x0 DUP2 MSTORE PUSH1 0x20 ADD PUSH1 0x0 DUP2 MSTORE PUSH1 0x20 ADD PUSH1 0x0 DUP2 MSTORE PUSH1 0x20 ADD PUSH1 0x0 DUP2 MSTORE PUSH1 0x20 ADD PUSH1 0x0 DUP2 MSTORE PUSH1 0x20 ADD PUSH1 0x0 DUP2 MSTORE POP SWAP1 JUMP JUMPDEST PUSH1 0x40 DUP1 MLOAD PUSH1 0xA0 DUP2 ADD DUP3 MSTORE PUSH1 0x0 DUP1 DUP3 MSTORE PUSH1 0x20 DUP3 ADD DUP2 SWAP1 MSTORE SWAP2 DUP2 ADD DUP3 SWAP1 MSTORE PUSH1 0x60 DUP2 ADD DUP3 SWAP1 MSTORE PUSH1 0x80 DUP2 ADD SWAP2 SWAP1 SWAP2 MSTORE SWAP1 JUMP JUMPDEST PUSH1 0x40 MLOAD DUP1 PUSH1 0x80 ADD PUSH1 0x40 MSTORE DUP1 PUSH1 0x60 DUP2 MSTORE PUSH1 0x20 ADD PUSH1 0x60 DUP2 MSTORE PUSH1 0x20 ADD PUSH1 0x0 DUP2 MSTORE PUSH1 0x20 ADD PUSH1 0x0 DUP2 MSTORE POP SWAP1 JUMP JUMPDEST PUSH1 0x40 MLOAD DUP1 PUSH1 0xC0 ADD PUSH1 0x40 MSTORE DUP1 PUSH1 0x0 DUP2 MSTORE PUSH1 0x20 ADD PUSH1 0x0 DUP2 MSTORE PUSH1 0x20 ADD PUSH1 0x0 DUP2 MSTORE PUSH1 0x20 ADD PUSH1 0x0 DUP2 MSTORE PUSH1 0x20 ADD PUSH1 0x0 DUP2 MSTORE PUSH1 0x20 ADD PUSH1 0x0 PUSH1 0x3 DUP2 GT ISZERO PUSH2 0x4030 JUMPI INVALID JUMPDEST SWAP1 MSTORE SWAP1 JUMP JUMPDEST PUSH1 0x40 MLOAD DUP1 PUSH1 0x60 ADD PUSH1 0x40 MSTORE DUP1 PUSH1 0x0 PUSH1 0x1 PUSH1 0x1 PUSH1 0xA0 SHL SUB AND DUP2 MSTORE PUSH1 0x20 ADD PUSH1 0x0 DUP2 MSTORE PUSH1 0x20 ADD PUSH1 0x0 DUP2 MSTORE POP SWAP1 JUMP JUMPDEST PUSH1 0x40 DUP1 MLOAD PUSH1 0xA0 DUP2 ADD DUP3 MSTORE PUSH1 0x0 DUP1 DUP3 MSTORE PUSH1 0x20 DUP3 ADD DUP2 SWAP1 MSTORE SWAP2 DUP2 ADD DUP3 SWAP1 MSTORE SWAP1 PUSH1 0x60 DUP3 ADD SWAP1 DUP2 MSTORE PUSH1 0x20 ADD PUSH1 0x0 DUP2 MSTORE POP SWAP1 JUMP JUMPDEST PUSH1 0x40 MLOAD DUP1 PUSH1 0x20 ADD PUSH1 0x40 MSTORE DUP1 PUSH1 0x1 SWAP1 PUSH1 0x20 DUP3 MUL DUP1 CALLDATASIZE DUP4 CALLDATACOPY POP SWAP2 SWAP3 SWAP2 POP POP JUMP JUMPDEST DUP1 CALLDATALOAD PUSH1 0x1 PUSH1 0x1 PUSH1 0xA0 SHL SUB DUP2 AND DUP2 EQ PUSH2 0xBB0 JUMPI PUSH1 0x0 DUP1 REVERT JUMPDEST PUSH1 0x0 DUP1 DUP4 PUSH1 0x1F DUP5 ADD SLT PUSH2 0x40D4 JUMPI DUP1 DUP2 REVERT JUMPDEST POP DUP2 CALLDATALOAD PUSH1 0x1 PUSH1 0x1 PUSH1 0x40 SHL SUB DUP2 GT ISZERO PUSH2 0x40EA JUMPI DUP2 DUP3 REVERT JUMPDEST PUSH1 0x20 DUP4 ADD SWAP2 POP DUP4 PUSH1 0x20 DUP1 DUP4 MUL DUP6 ADD ADD GT ISZERO PUSH2 0x4104 JUMPI PUSH1 0x0 DUP1 REVERT JUMPDEST SWAP3 POP SWAP3 SWAP1 POP JUMP JUMPDEST PUSH1 0x0 DUP3 PUSH1 0x1F DUP4 ADD SLT PUSH2 0x411B JUMPI DUP1 DUP2 REVERT JUMPDEST DUP2 MLOAD PUSH1 0x20 PUSH1 0x1 PUSH1 0x1 PUSH1 0x40 SHL SUB DUP1 DUP4 GT ISZERO PUSH2 0x4131 JUMPI INVALID JUMPDEST PUSH2 0x413E DUP3 DUP4 DUP6 MUL ADD PUSH2 0x4B97 JUMP JUMPDEST DUP4 DUP2 MSTORE DUP3 DUP2 ADD SWAP1 DUP7 DUP5 ADD PUSH1 0xC0 DUP1 DUP8 MUL DUP10 ADD DUP7 ADD DUP11 LT ISZERO PUSH2 0x415C JUMPI DUP8 DUP9 REVERT JUMPDEST DUP8 JUMPDEST DUP8 DUP2 LT ISZERO PUSH2 0x41DD JUMPI DUP2 DUP4 DUP13 SUB SLT ISZERO PUSH2 0x4174 JUMPI DUP9 DUP10 REVERT JUMPDEST PUSH1 0x40 DUP1 MLOAD DUP4 DUP2 ADD DUP2 DUP2 LT DUP10 DUP3 GT OR ISZERO PUSH2 0x4189 JUMPI INVALID JUMPDEST DUP3 MSTORE DUP5 MLOAD DUP2 MSTORE DUP9 DUP6 ADD MLOAD DUP10 DUP3 ADD MSTORE DUP5 DUP3 ADD MLOAD SWAP2 DUP2 ADD SWAP2 SWAP1 SWAP2 MSTORE PUSH1 0x60 DUP1 DUP6 ADD MLOAD SWAP1 DUP3 ADD MSTORE PUSH1 0x80 DUP1 DUP6 ADD MLOAD SWAP1 DUP3 ADD MSTORE PUSH1 0xA0 SWAP1 PUSH2 0x41C4 DUP3 DUP7 ADD PUSH2 0x4204 JUMP JUMPDEST SWAP2 DUP2 ADD SWAP2 SWAP1 SWAP2 MSTORE DUP6 MSTORE SWAP4 DUP7 ADD SWAP4 SWAP2 DUP2 ADD SWAP2 PUSH1 0x1 ADD PUSH2 0x415E JUMP JUMPDEST POP SWAP2 SWAP10 SWAP9 POP POP POP POP POP POP POP POP POP JUMP JUMPDEST DUP1 MLOAD PUSH1 0x1 PUSH1 0x1 PUSH1 0x70 SHL SUB NOT DUP2 AND DUP2 EQ PUSH2 0xBB0 JUMPI PUSH1 0x0 DUP1 REVERT JUMPDEST DUP1 MLOAD PUSH1 0x4 DUP2 LT PUSH2 0xBB0 JUMPI PUSH1 0x0 DUP1 REVERT JUMPDEST DUP1 MLOAD PUSH2 0xBB0 DUP2 PUSH2 0x4BCB JUMP JUMPDEST DUP1 MLOAD PUSH1 0xFF DUP2 AND DUP2 EQ PUSH2 0xBB0 JUMPI PUSH1 0x0 DUP1 REVERT JUMPDEST PUSH1 0x0 DUP1 PUSH1 0x0 PUSH1 0x40 DUP5 DUP7 SUB SLT ISZERO PUSH2 0x4243 JUMPI DUP3 DUP4 REVERT JUMPDEST PUSH2 0x424C DUP5 PUSH2 0x40AC JUMP JUMPDEST SWAP3 POP PUSH1 0x20 DUP5 ADD CALLDATALOAD PUSH1 0x1 PUSH1 0x1 PUSH1 0x40 SHL SUB DUP2 GT ISZERO PUSH2 0x4266 JUMPI DUP3 DUP4 REVERT JUMPDEST PUSH2 0x4272 DUP7 DUP3 DUP8 ADD PUSH2 0x40C3 JUMP JUMPDEST SWAP5 SWAP8 SWAP1 SWAP7 POP SWAP4 SWAP5 POP POP POP POP JUMP JUMPDEST PUSH1 0x0 DUP1 PUSH1 0x0 DUP1 PUSH1 0x0 PUSH1 0x60 DUP7 DUP9 SUB SLT ISZERO PUSH2 0x4296 JUMPI DUP1 DUP2 REVERT JUMPDEST PUSH2 0x429F DUP7 PUSH2 0x40AC JUMP JUMPDEST SWAP5 POP PUSH1 0x20 DUP7 ADD CALLDATALOAD PUSH1 0x1 PUSH1 0x1 PUSH1 0x40 SHL SUB DUP1 DUP3 GT ISZERO PUSH2 0x42BA JUMPI DUP3 DUP4 REVERT JUMPDEST PUSH2 0x42C6 DUP10 DUP4 DUP11 ADD PUSH2 0x40C3 JUMP JUMPDEST SWAP1 SWAP7 POP SWAP5 POP PUSH1 0x40 DUP9 ADD CALLDATALOAD SWAP2 POP DUP1 DUP3 GT ISZERO PUSH2 0x42DE JUMPI DUP3 DUP4 REVERT JUMPDEST DUP2 DUP9 ADD SWAP2 POP DUP9 PUSH1 0x1F DUP4 ADD SLT PUSH2 0x42F1 JUMPI DUP3 DUP4 REVERT JUMPDEST DUP2 CALLDATALOAD DUP2 DUP2 GT ISZERO PUSH2 0x42FF JUMPI DUP4 DUP5 REVERT JUMPDEST DUP10 PUSH1 0x20 DUP3 DUP6 ADD ADD GT ISZERO PUSH2 0x4310 JUMPI DUP4 DUP5 REVERT JUMPDEST SWAP7 SWAP10 SWAP6 SWAP9 POP SWAP4 SWAP7 POP PUSH1 0x20 ADD SWAP5 SWAP4 SWAP3 POP POP POP JUMP JUMPDEST PUSH1 0x0 DUP1 PUSH1 0x0 PUSH1 0x40 DUP5 DUP7 SUB SLT ISZERO PUSH2 0x4337 JUMPI DUP3 DUP4 REVERT JUMPDEST PUSH2 0x4340 DUP5 PUSH2 0x40AC JUMP JUMPDEST SWAP3 POP PUSH1 0x20 DUP5 ADD CALLDATALOAD PUSH1 0x1 PUSH1 0x1 PUSH1 0x40 SHL SUB DUP1 DUP3 GT ISZERO PUSH2 0x435B JUMPI DUP4 DUP5 REVERT JUMPDEST DUP2 DUP7 ADD SWAP2 POP DUP7 PUSH1 0x1F DUP4 ADD SLT PUSH2 0x436E JUMPI DUP4 DUP5 REVERT JUMPDEST DUP2 CALLDATALOAD DUP2 DUP2 GT ISZERO PUSH2 0x437C JUMPI DUP5 DUP6 REVERT JUMPDEST DUP8 PUSH1 0x20 PUSH1 0xC0 DUP4 MUL DUP6 ADD ADD GT ISZERO PUSH2 0x4390 JUMPI DUP5 DUP6 REVERT JUMPDEST PUSH1 0x20 DUP4 ADD SWAP5 POP DUP1 SWAP4 POP POP POP POP SWAP3 POP SWAP3 POP SWAP3 JUMP JUMPDEST PUSH1 0x0 DUP1 PUSH1 0x0 PUSH1 0x40 DUP5 DUP7 SUB SLT ISZERO PUSH2 0x43B7 JUMPI DUP1 DUP2 REVERT JUMPDEST PUSH2 0x43C0 DUP5 PUSH2 0x40AC JUMP JUMPDEST SWAP3 POP PUSH1 0x20 DUP5 ADD CALLDATALOAD PUSH1 0x1 PUSH1 0x1 PUSH1 0x40 SHL SUB DUP2 GT ISZERO PUSH2 0x4266 JUMPI DUP2 DUP3 REVERT JUMPDEST PUSH1 0x0 PUSH1 0x20 DUP3 DUP5 SUB SLT ISZERO PUSH2 0x43EB JUMPI DUP1 DUP2 REVERT JUMPDEST DUP2 CALLDATALOAD PUSH2 0xA71 DUP2 PUSH2 0x4BBA JUMP JUMPDEST PUSH1 0x0 PUSH1 0x20 DUP3 DUP5 SUB SLT ISZERO PUSH2 0x4407 JUMPI DUP1 DUP2 REVERT JUMPDEST DUP2 CALLDATALOAD PUSH1 0x7 DUP2 LT PUSH2 0xA71 JUMPI DUP2 DUP3 REVERT JUMPDEST PUSH1 0x0 PUSH1 0x20 DUP3 DUP5 SUB SLT ISZERO PUSH2 0x4426 JUMPI DUP1 DUP2 REVERT JUMPDEST POP MLOAD SWAP2 SWAP1 POP JUMP JUMPDEST PUSH1 0x0 DUP1 PUSH1 0x40 DUP4 DUP6 SUB SLT ISZERO PUSH2 0x443F JUMPI DUP2 DUP3 REVERT JUMPDEST DUP3 MLOAD SWAP2 POP PUSH1 0x20 DUP4 ADD MLOAD PUSH2 0x4451 DUP2 PUSH2 0x4BBA JUMP JUMPDEST DUP1 SWAP2 POP POP SWAP3 POP SWAP3 SWAP1 POP JUMP JUMPDEST PUSH1 0x0 PUSH1 0xA0 DUP3 DUP5 SUB SLT ISZERO PUSH2 0x446D JUMPI DUP1 DUP2 REVERT JUMPDEST PUSH1 0x40 MLOAD PUSH1 0xA0 DUP2 ADD DUP2 DUP2 LT PUSH1 0x1 PUSH1 0x1 PUSH1 0x40 SHL SUB DUP3 GT OR ISZERO PUSH2 0x4489 JUMPI INVALID JUMPDEST PUSH1 0x40 MSTORE DUP3 MLOAD PUSH5 0xFFFFFFFFFF DUP2 AND DUP2 EQ PUSH2 0x44A0 JUMPI DUP3 DUP4 REVERT JUMPDEST DUP2 MSTORE PUSH1 0x20 DUP4 ADD MLOAD PUSH1 0x1 PUSH1 0x1 PUSH1 0xF8 SHL SUB NOT DUP2 AND DUP2 EQ PUSH2 0x44BC JUMPI DUP3 DUP4 REVERT JUMPDEST PUSH1 0x20 DUP3 ADD MSTORE PUSH2 0x44CD PUSH1 0x40 DUP5 ADD PUSH2 0x421E JUMP JUMPDEST PUSH1 0x40 DUP3 ADD MSTORE PUSH2 0x44DE PUSH1 0x60 DUP5 ADD PUSH2 0x4213 JUMP JUMPDEST PUSH1 0x60 DUP3 ADD MSTORE PUSH2 0x44EF PUSH1 0x80 DUP5 ADD PUSH2 0x41EC JUMP JUMPDEST PUSH1 0x80 DUP3 ADD MSTORE SWAP4 SWAP3 POP POP POP JUMP JUMPDEST PUSH1 0x0 DUP1 PUSH1 0x40 DUP4 DUP6 SUB SLT ISZERO PUSH2 0x450D JUMPI DUP2 DUP3 REVERT JUMPDEST DUP3 MLOAD PUSH1 0x1 PUSH1 0x1 PUSH1 0x40 SHL SUB DUP1 DUP3 GT ISZERO PUSH2 0x4523 JUMPI DUP4 DUP5 REVERT JUMPDEST SWAP1 DUP5 ADD SWAP1 PUSH1 0x80 DUP3 DUP8 SUB SLT ISZERO PUSH2 0x4536 JUMPI DUP4 DUP5 REVERT JUMPDEST PUSH1 0x40 MLOAD PUSH1 0x80 DUP2 ADD DUP2 DUP2 LT DUP4 DUP3 GT OR ISZERO PUSH2 0x454B JUMPI INVALID JUMPDEST PUSH1 0x40 MSTORE DUP3 MLOAD DUP3 DUP2 GT ISZERO PUSH2 0x455C JUMPI DUP6 DUP7 REVERT JUMPDEST PUSH2 0x4568 DUP9 DUP3 DUP7 ADD PUSH2 0x410B JUMP JUMPDEST DUP3 MSTORE POP PUSH1 0x20 DUP4 ADD MLOAD DUP3 DUP2 GT ISZERO PUSH2 0x457C JUMPI DUP6 DUP7 REVERT JUMPDEST PUSH2 0x4588 DUP9 DUP3 DUP7 ADD PUSH2 0x410B JUMP JUMPDEST PUSH1 0x20 DUP4 ADD MSTORE POP PUSH1 0x40 DUP4 ADD MLOAD PUSH1 0x40 DUP3 ADD MSTORE PUSH1 0x60 DUP4 ADD MLOAD PUSH1 0x60 DUP3 ADD MSTORE DUP1 SWAP5 POP POP POP POP PUSH1 0x20 DUP4 ADD MLOAD SWAP1 POP SWAP3 POP SWAP3 SWAP1 POP JUMP JUMPDEST PUSH1 0x0 PUSH1 0x20 DUP3 DUP5 SUB SLT ISZERO PUSH2 0x45C7 JUMPI DUP1 DUP2 REVERT JUMPDEST DUP2 CALLDATALOAD PUSH2 0xA71 DUP2 PUSH2 0x4BCB JUMP JUMPDEST DUP2 DUP4 MSTORE PUSH1 0x0 PUSH1 0x1 PUSH1 0x1 PUSH1 0xFB SHL SUB DUP4 GT ISZERO PUSH2 0x45EA JUMPI DUP1 DUP2 REVERT JUMPDEST PUSH1 0x20 DUP4 MUL DUP1 DUP4 PUSH1 0x20 DUP8 ADD CALLDATACOPY SWAP4 SWAP1 SWAP4 ADD PUSH1 0x20 ADD SWAP3 DUP4 MSTORE POP SWAP1 SWAP2 SWAP1 POP JUMP JUMPDEST PUSH1 0x0 DUP2 MLOAD DUP1 DUP5 MSTORE PUSH1 0x20 DUP1 DUP6 ADD SWAP5 POP DUP1 DUP5 ADD DUP4 JUMPDEST DUP4 DUP2 LT ISZERO PUSH2 0x4673 JUMPI DUP2 MLOAD DUP1 MLOAD DUP9 MSTORE DUP4 DUP2 ADD MLOAD DUP5 DUP10 ADD MSTORE PUSH1 0x40 DUP1 DUP3 ADD MLOAD SWAP1 DUP10 ADD MSTORE PUSH1 0x60 DUP1 DUP3 ADD MLOAD SWAP1 DUP10 ADD MSTORE PUSH1 0x80 DUP1 DUP3 ADD MLOAD SWAP1 DUP10 ADD MSTORE PUSH1 0xA0 SWAP1 DUP2 ADD MLOAD SWAP1 PUSH1 0x4 DUP3 LT PUSH2 0x465E JUMPI INVALID JUMPDEST DUP9 ADD MSTORE PUSH1 0xC0 SWAP1 SWAP7 ADD SWAP6 SWAP1 DUP3 ADD SWAP1 PUSH1 0x1 ADD PUSH2 0x4619 JUMP JUMPDEST POP SWAP5 SWAP6 SWAP5 POP POP POP POP POP JUMP JUMPDEST PUSH1 0x1 PUSH1 0x1 PUSH1 0xA0 SHL SUB SWAP2 SWAP1 SWAP2 AND DUP2 MSTORE PUSH1 0x20 ADD SWAP1 JUMP JUMPDEST PUSH1 0x1 PUSH1 0x1 PUSH1 0xA0 SHL SUB DUP6 DUP2 AND DUP3 MSTORE DUP5 AND PUSH1 0x20 DUP3 ADD MSTORE PUSH1 0x60 PUSH1 0x40 DUP3 ADD DUP2 SWAP1 MSTORE DUP2 ADD DUP3 SWAP1 MSTORE PUSH1 0x0 DUP3 DUP5 PUSH1 0x80 DUP5 ADD CALLDATACOPY DUP2 DUP4 ADD PUSH1 0x80 SWAP1 DUP2 ADD SWAP2 SWAP1 SWAP2 MSTORE PUSH1 0x1F SWAP1 SWAP3 ADD PUSH1 0x1F NOT AND ADD ADD SWAP4 SWAP3 POP POP POP JUMP JUMPDEST PUSH1 0x1 PUSH1 0x1 PUSH1 0xA0 SHL SUB SWAP7 DUP8 AND DUP2 MSTORE SWAP5 DUP7 AND PUSH1 0x20 DUP7 ADD MSTORE SWAP3 DUP6 AND PUSH1 0x40 DUP6 ADD MSTORE SWAP1 DUP5 AND PUSH1 0x60 DUP5 ADD MSTORE DUP4 AND PUSH1 0x80 DUP4 ADD MSTORE SWAP1 SWAP2 AND PUSH1 0xA0 DUP3 ADD MSTORE PUSH1 0xC0 ADD SWAP1 JUMP JUMPDEST PUSH1 0x1 PUSH1 0x1 PUSH1 0xA0 SHL SUB SWAP3 SWAP1 SWAP3 AND DUP3 MSTORE DUP1 MLOAD PUSH5 0xFFFFFFFFFF AND PUSH1 0x20 DUP1 DUP5 ADD SWAP2 SWAP1 SWAP2 MSTORE DUP2 ADD MLOAD PUSH1 0x1 PUSH1 0x1 PUSH1 0xF8 SHL SUB NOT AND PUSH1 0x40 DUP1 DUP5 ADD SWAP2 SWAP1 SWAP2 MSTORE DUP2 ADD MLOAD PUSH1 0xFF AND PUSH1 0x60 DUP1 DUP5 ADD SWAP2 SWAP1 SWAP2 MSTORE DUP2 ADD MLOAD PUSH2 0xFFFF AND PUSH1 0x80 DUP1 DUP5 ADD SWAP2 SWAP1 SWAP2 MSTORE ADD MLOAD PUSH1 0x1 PUSH1 0x1 PUSH1 0x70 SHL SUB NOT AND PUSH1 0xA0 DUP3 ADD MSTORE PUSH1 0xC0 ADD SWAP1 JUMP JUMPDEST PUSH1 0x0 PUSH1 0x1 DUP1 PUSH1 0xA0 SHL SUB DUP8 AND DUP3 MSTORE PUSH2 0xFFFF DUP7 AND PUSH1 0x20 DUP4 ADD MSTORE PUSH1 0x80 PUSH1 0x40 DUP4 ADD MSTORE DUP5 MLOAD PUSH1 0x80 DUP1 DUP5 ADD MSTORE PUSH2 0x47B5 PUSH2 0x100 DUP5 ADD DUP3 PUSH2 0x4606 JUMP JUMPDEST SWAP1 POP PUSH1 0x20 DUP7 ADD MLOAD PUSH1 0x7F NOT DUP5 DUP4 SUB ADD PUSH1 0xA0 DUP6 ADD MSTORE PUSH2 0x47D2 DUP3 DUP3 PUSH2 0x4606 JUMP JUMPDEST SWAP2 POP POP PUSH1 0x40 DUP7 ADD MLOAD PUSH1 0xC0 DUP5 ADD MSTORE PUSH1 0x60 DUP7 ADD MLOAD PUSH1 0xE0 DUP5 ADD MSTORE DUP3 DUP2 SUB PUSH1 0x60 DUP5 ADD MSTORE PUSH2 0x47FC DUP2 DUP6 DUP8 PUSH2 0x45D2 JUMP JUMPDEST SWAP9 SWAP8 POP POP POP POP POP POP POP POP JUMP JUMPDEST PUSH1 0x1 PUSH1 0x1 PUSH1 0xA0 SHL SUB SWAP7 SWAP1 SWAP7 AND DUP7 MSTORE PUSH2 0xFFFF SWAP5 SWAP1 SWAP5 AND PUSH1 0x20 DUP7 ADD MSTORE PUSH1 0x40 DUP6 ADD SWAP3 SWAP1 SWAP3 MSTORE PUSH1 0x60 DUP5 ADD MSTORE PUSH1 0x80 DUP4 ADD MSTORE PUSH1 0xA0 DUP3 ADD MSTORE PUSH1 0xC0 ADD SWAP1 JUMP JUMPDEST PUSH1 0x1 PUSH1 0x1 PUSH1 0xA0 SHL SUB DUP7 AND DUP2 MSTORE PUSH2 0xFFFF DUP6 AND PUSH1 0x20 DUP3 ADD MSTORE PUSH5 0xFFFFFFFFFF DUP5 AND PUSH1 0x40 DUP3 ADD MSTORE PUSH1 0x80 PUSH1 0x60 DUP3 ADD DUP2 SWAP1 MSTORE PUSH1 0x0 SWAP1 PUSH2 0x1D25 SWAP1 DUP4 ADD DUP5 DUP7 PUSH2 0x45D2 JUMP JUMPDEST PUSH1 0x1 PUSH1 0x1 PUSH1 0xA0 SHL SUB SWAP4 DUP5 AND DUP2 MSTORE PUSH1 0x20 DUP2 ADD SWAP3 SWAP1 SWAP3 MSTORE SWAP1 SWAP2 AND PUSH1 0x40 DUP3 ADD MSTORE PUSH1 0x60 ADD SWAP1 JUMP JUMPDEST PUSH1 0x1 PUSH1 0x1 PUSH1 0xA0 SHL SUB SWAP5 DUP6 AND DUP2 MSTORE PUSH1 0x20 DUP2 ADD SWAP4 SWAP1 SWAP4 MSTORE SWAP3 AND PUSH1 0x40 DUP3 ADD MSTORE PUSH2 0xFFFF SWAP1 SWAP2 AND PUSH1 0x60 DUP3 ADD MSTORE PUSH1 0x80 ADD SWAP1 JUMP JUMPDEST PUSH1 0x1 PUSH1 0x1 PUSH1 0xA0 SHL SUB SWAP5 SWAP1 SWAP5 AND DUP5 MSTORE PUSH1 0x20 DUP5 ADD SWAP3 SWAP1 SWAP3 MSTORE PUSH1 0x40 DUP4 ADD MSTORE PUSH1 0x60 DUP3 ADD MSTORE PUSH1 0x80 ADD SWAP1 JUMP JUMPDEST SWAP1 DUP2 MSTORE PUSH1 0x20 ADD SWAP1 JUMP JUMPDEST PUSH1 0x20 DUP1 DUP3 MSTORE PUSH1 0xC SWAP1 DUP3 ADD MSTORE PUSH12 0x155B985D5D1A1BDC9A5E9959 PUSH1 0xA2 SHL PUSH1 0x40 DUP3 ADD MSTORE PUSH1 0x60 ADD SWAP1 JUMP JUMPDEST PUSH1 0x20 DUP1 DUP3 MSTORE PUSH1 0x4 SWAP1 DUP3 ADD MSTORE PUSH4 0x135A5B9D PUSH1 0xE2 SHL PUSH1 0x40 DUP3 ADD MSTORE PUSH1 0x60 ADD SWAP1 JUMP JUMPDEST PUSH1 0x20 DUP1 DUP3 MSTORE PUSH1 0xB SWAP1 DUP3 ADD MSTORE PUSH11 0x4554482042616C616E6365 PUSH1 0xA8 SHL PUSH1 0x40 DUP3 ADD MSTORE PUSH1 0x60 ADD SWAP1 JUMP JUMPDEST PUSH1 0x20 DUP1 DUP3 MSTORE PUSH1 0x6 SWAP1 DUP3 ADD MSTORE PUSH6 0x52656465656D PUSH1 0xD0 SHL PUSH1 0x40 DUP3 ADD MSTORE PUSH1 0x60 ADD SWAP1 JUMP JUMPDEST PUSH1 0x20 DUP1 DUP3 MSTORE PUSH1 0xD SWAP1 DUP3 ADD MSTORE PUSH13 0x92DCECC2D8D2C840D2DCC8CAF PUSH1 0x9B SHL PUSH1 0x40 DUP3 ADD MSTORE PUSH1 0x60 ADD SWAP1 JUMP JUMPDEST PUSH1 0x20 DUP1 DUP3 MSTORE PUSH1 0x10 SWAP1 DUP3 ADD MSTORE PUSH16 0x556E736F7274656420616374696F6E73 PUSH1 0x80 SHL PUSH1 0x40 DUP3 ADD MSTORE PUSH1 0x60 ADD SWAP1 JUMP JUMPDEST PUSH1 0x20 DUP1 DUP3 MSTORE PUSH1 0x1A SWAP1 DUP3 ADD MSTORE PUSH32 0x496E73756666696369656E7420746F6B656E2062616C616E6365000000000000 PUSH1 0x40 DUP3 ADD MSTORE PUSH1 0x60 ADD SWAP1 JUMP JUMPDEST PUSH1 0x20 DUP1 DUP3 MSTORE PUSH1 0xE SWAP1 DUP3 ADD MSTORE PUSH14 0x1499595B9D1C985B9D0818D85B1B PUSH1 0x92 SHL PUSH1 0x40 DUP3 ADD MSTORE PUSH1 0x60 ADD SWAP1 JUMP JUMPDEST PUSH1 0x20 DUP1 DUP3 MSTORE PUSH1 0x8 SWAP1 DUP3 ADD MSTORE PUSH8 0x9CCACE4086C2E6D PUSH1 0xC3 SHL PUSH1 0x40 DUP3 ADD MSTORE PUSH1 0x60 ADD SWAP1 JUMP JUMPDEST PUSH1 0x20 DUP1 DUP3 MSTORE PUSH1 0x1A SWAP1 DUP3 ADD MSTORE PUSH32 0x496E76616C69642074726164657320666F72206163636F756E74000000000000 PUSH1 0x40 DUP3 ADD MSTORE PUSH1 0x60 ADD SWAP1 JUMP JUMPDEST PUSH1 0x20 DUP1 DUP3 MSTORE PUSH1 0xA SWAP1 DUP3 ADD MSTORE PUSH10 0x2732B390372A37B5B2B7 PUSH1 0xB1 SHL PUSH1 0x40 DUP3 ADD MSTORE PUSH1 0x60 ADD SWAP1 JUMP JUMPDEST PUSH1 0x20 DUP1 DUP3 MSTORE PUSH1 0x11 SWAP1 DUP3 ADD MSTORE PUSH17 0x92DCE6EACCCCD2C6D2CADCE840C6C2E6D PUSH1 0x7B SHL PUSH1 0x40 DUP3 ADD MSTORE PUSH1 0x60 ADD SWAP1 JUMP JUMPDEST PUSH1 0x20 DUP1 DUP3 MSTORE PUSH1 0x14 SWAP1 DUP3 ADD MSTORE PUSH20 0x125B9CDD59999A58DA595B9D0819195C1BDCDA5D PUSH1 0x62 SHL PUSH1 0x40 DUP3 ADD MSTORE PUSH1 0x60 ADD SWAP1 JUMP JUMPDEST PUSH2 0xFFFF SWAP3 SWAP1 SWAP3 AND DUP3 MSTORE PUSH1 0x20 DUP3 ADD MSTORE PUSH1 0x40 ADD SWAP1 JUMP JUMPDEST PUSH1 0x0 DUP1 DUP4 CALLDATALOAD PUSH1 0x1E NOT DUP5 CALLDATASIZE SUB ADD DUP2 SLT PUSH2 0x4B33 JUMPI DUP3 DUP4 REVERT JUMPDEST DUP4 ADD DUP1 CALLDATALOAD SWAP2 POP PUSH1 0x1 PUSH1 0x1 PUSH1 0x40 SHL SUB DUP3 GT ISZERO PUSH2 0x4B4C JUMPI DUP3 DUP4 REVERT JUMPDEST PUSH1 0x20 SWAP1 DUP2 ADD SWAP3 POP DUP2 MUL CALLDATASIZE SUB DUP3 SGT ISZERO PUSH2 0x4104 JUMPI PUSH1 0x0 DUP1 REVERT JUMPDEST PUSH1 0x0 DUP3 CALLDATALOAD PUSH1 0xDE NOT DUP4 CALLDATASIZE SUB ADD DUP2 SLT PUSH2 0x4B78 JUMPI DUP2 DUP3 REVERT JUMPDEST SWAP2 SWAP1 SWAP2 ADD SWAP3 SWAP2 POP POP JUMP JUMPDEST PUSH1 0x0 DUP3 CALLDATALOAD PUSH1 0x5E NOT DUP4 CALLDATASIZE SUB ADD DUP2 SLT PUSH2 0x4B78 JUMPI DUP2 DUP3 REVERT JUMPDEST PUSH1 0x40 MLOAD DUP2 DUP2 ADD PUSH1 0x1 PUSH1 0x1 PUSH1 0x40 SHL SUB DUP2 GT DUP3 DUP3 LT OR ISZERO PUSH2 0x4BB2 JUMPI INVALID JUMPDEST PUSH1 0x40 MSTORE SWAP2 SWAP1 POP JUMP JUMPDEST DUP1 ISZERO ISZERO DUP2 EQ PUSH2 0x4BC8 JUMPI PUSH1 0x0 DUP1 REVERT JUMPDEST POP JUMP JUMPDEST PUSH2 0xFFFF DUP2 AND DUP2 EQ PUSH2 0x4BC8 JUMPI PUSH1 0x0 DUP1 REVERT INVALID MSTORE8 PUSH2 0x6665 0x4D PUSH2 0x7468 GASPRICE KECCAK256 PUSH14 0x756C7469706C69636174696F6E20 PUSH16 0x766572666C6F77A26469706673582212 KECCAK256 0xE2 0xD3 SWAP6 0x4C 0xB4 PUSH16 0x2A2BD24DF117BEF9172A66A77165E441 0xE7 EXTCODEHASH INVALID 0xC4 GASPRICE 0xC2 0xCE 0x2C OR 0xC5 PUSH5 0x736F6C6343 STOP SMOD MOD STOP CALLER ","sha1":"739de87ac938c6c51f14b52190e6859e8e48fc26","source":"// SPDX-License-Identifier: GPL-3.0-only\npragma solidity =0.7.6;\npragma abicoder v2;\n\nimport \"./TradingAction.sol\";\nimport \"./ActionGuards.sol\";\nimport \"./nTokenMintAction.sol\";\nimport \"./nTokenRedeemAction.sol\";\nimport \"../SettleAssetsExternal.sol\";\nimport \"../FreeCollateralExternal.sol\";\nimport \"../../math/SafeInt256.sol\";\nimport \"../../global/StorageLayoutV1.sol\";\nimport \"../../internal/balances/BalanceHandler.sol\";\nimport \"../../internal/portfolio/PortfolioHandler.sol\";\nimport \"../../internal/AccountContextHandler.sol\";\nimport \"../../../interfaces/notional/NotionalCallback.sol\";\n\ncontract BatchAction is StorageLayoutV1, ActionGuards {\n    using BalanceHandler for BalanceState;\n    using PortfolioHandler for PortfolioState;\n    using AccountContextHandler for AccountContext;\n    using AssetRate for AssetRateParameters;\n    using TokenHandler for Token;\n    using SafeInt256 for int256;\n\n    /// @notice Executes a batch of balance transfers including minting and redeeming nTokens.\n    /// @param account the account for the action\n    /// @param actions array of balance actions to take, must be sorted by currency id\n    /// @dev emit:CashBalanceChange, emit:nTokenSupplyChange\n    /// @dev auth:msg.sender auth:ERC1155\n    function batchBalanceAction(address account, BalanceAction[] calldata actions)\n        external\n        payable\n        nonReentrant\n    {\n        require(account == msg.sender || msg.sender == address(this), \"Unauthorized\");\n        requireValidAccount(account);\n\n        AccountContext memory accountContext = _settleAccountIfRequired(account);\n        BalanceState memory balanceState;\n\n        for (uint256 i = 0; i < actions.length; i++) {\n            BalanceAction calldata action = actions[i];\n            // msg.value will only be used when currency id == 1, referencing ETH. The requirement\n            // to sort actions by increasing id enforces that msg.value will only be used once.\n            if (i > 0) {\n                require(action.currencyId > actions[i - 1].currencyId, \"Unsorted actions\");\n            }\n            // Loads the currencyId into balance state\n            balanceState.loadBalanceState(account, action.currencyId, accountContext);\n\n            _executeDepositAction(\n                account,\n                balanceState,\n                action.actionType,\n                action.depositActionAmount\n            );\n\n            _calculateWithdrawActionAndFinalize(\n                account,\n                accountContext,\n                balanceState,\n                action.withdrawAmountInternalPrecision,\n                action.withdrawEntireCashBalance,\n                action.redeemToUnderlying\n            );\n        }\n\n        _finalizeAccountContext(account, accountContext);\n    }\n\n    /// @notice Executes a batch of balance transfers and trading actions\n    /// @param account the account for the action\n    /// @param actions array of balance actions with trades to take, must be sorted by currency id\n    /// @dev emit:CashBalanceChange, emit:nTokenSupplyChange, emit:LendBorrowTrade, emit:AddRemoveLiquidity,\n    /// @dev emit:SettledCashDebt, emit:nTokenResidualPurchase, emit:ReserveFeeAccrued\n    /// @dev auth:msg.sender auth:ERC1155\n    function batchBalanceAndTradeAction(address account, BalanceActionWithTrades[] calldata actions)\n        external\n        payable\n        nonReentrant\n    {\n        require(account == msg.sender || msg.sender == address(this), \"Unauthorized\");\n        requireValidAccount(account);\n        AccountContext memory accountContext = _batchBalanceAndTradeAction(account, actions);\n        _finalizeAccountContext(account, accountContext);\n    }\n\n    /// @notice Executes a batch of lending actions. This is different from batchBalanceAndTrade because\n    /// it always pulls the required amount of tokens to get an account to a cash balance of zero. It reduces\n    /// the gas costs for lending because there is no second token transfer where residual balances are sent\n    /// back to the account.\n    /// @dev Note that this method does not work with native ETH because it requires the ability to pull payment\n    /// from an ERC20 token. Therefore, this method is marked as nonpayable. It will still work with cETH or aETH.\n    /// @param account the account for the action\n    /// @param actions array of batch lending actions\n    /// @dev emit:CashBalanceChange, emit:LendBorrowTrade emit:SettledCashDebt\n    /// @dev auth:msg.sender auth:ERC1155\n    function batchLend(address account, BatchLend[] calldata actions)\n        external\n        nonReentrant\n    {\n        require(account == msg.sender || msg.sender == address(this), \"Unauthorized\");\n        requireValidAccount(account);\n\n        AccountContext memory accountContext = _settleAccountIfRequired(account);\n        // NOTE: loading the portfolio state must happen after settle account to get the\n        // correct portfolio, it will have changed if the account is settled.\n        PortfolioState memory portfolioState = PortfolioHandler.buildPortfolioState(\n            account,\n            accountContext.assetArrayLength,\n            0\n        );\n        BalanceState memory balanceState;\n\n        for (uint256 i = 0; i < actions.length; i++) {\n            BatchLend calldata action = actions[i];\n            // msg.value will never be used in this method because it is non-payable\n            if (i > 0) {\n                require(action.currencyId > actions[i - 1].currencyId, \"Unsorted actions\");\n            }\n\n            // Require that each action have at least 1 trade and all trades are lending trades\n            uint256 numTrades = action.trades.length;\n            require(numTrades > 0); // dev: no actions\n            for (uint256 j = 0; j < numTrades; j++) {\n                require(uint8(bytes1(action.trades[j])) == uint8(TradeActionType.Lend)); // dev: only lend trades\n            }\n\n            // Loads the currencyId into balance state\n            balanceState.loadBalanceState(account, action.currencyId, accountContext);\n            (balanceState.netCashChange, portfolioState) = _executeTrades(\n                account,\n                action.currencyId,\n                action.trades,\n                accountContext,\n                portfolioState\n            );\n            // This must be negative as a result of requiring only lending\n            require(balanceState.netCashChange <= 0);\n\n            // Deposit sufficient cash to get the balance up to zero. If required cash is negative (i.e. there\n            // is sufficient cash) then we don't need to do anything. The account's cash balance will be net off\n            // and there will be no token transfer.\n            // NOTE: it is possible that free collateral decreases as a result of lending a cash balance, will\n            // check FC at the end of the method.\n            int256 requiredCash = balanceState.storedCashBalance.add(balanceState.netCashChange).neg();\n            if (requiredCash > 0) {\n                if (action.depositUnderlying) {\n                    // If depositing underlying, get the current asset rate and convert the required cash\n                    // back to underlying.\n                    AssetRateParameters memory ar = AssetRate.buildAssetRateStateful(action.currencyId);\n                    Token memory underlyingToken = TokenHandler.getUnderlyingToken(action.currencyId);\n                    int256 underlyingInternalAmount = ar.convertToUnderlying(requiredCash);\n                    int256 underlyingExternalAmount = underlyingToken.convertToUnderlyingExternalWithAdjustment(\n                        underlyingInternalAmount\n                    );\n\n                    // This returns the cToken / aToken amount as a result of transfer and mint. It must be sufficient to\n                    // cover the required cash.\n                    int256 assetAmountInternal = balanceState.depositUnderlyingToken(account, underlyingExternalAmount);\n                    require(assetAmountInternal >= requiredCash, \"Insufficient deposit\");\n                } else {\n                    // balanceState.finalize will handle conversions to external precision as well as aToken\n                    // scaled balance conversions.\n                    balanceState.netAssetTransferInternalPrecision = balanceState\n                        .netAssetTransferInternalPrecision\n                        .add(requiredCash);\n                }\n            }\n\n            // Will write all the balance changes to storage and transfer asset tokens if required.\n            balanceState.finalize(account, accountContext, false);\n        }\n\n        // Update the portfolio state if bitmap is not enabled. If bitmap is already enabled\n        // then all the assets have already been updated in in storage.\n        if (!accountContext.isBitmapEnabled()) {\n            // NOTE: account context is updated in memory inside this method call.\n            accountContext.storeAssetsAndUpdateContext(account, portfolioState, false);\n        }\n\n        // This will save the account context and check free collateral\n        _finalizeAccountContext(account, accountContext);\n    }\n\n    /// @notice Executes a batch of balance transfers and trading actions via an authorized callback contract. This\n    /// can be used as a \"flash loan\" facility for special contracts that migrate assets between protocols or perform\n    /// other actions on behalf of the user.\n    /// Contracts can borrow from Notional and receive a callback prior to an FC check, this can be useful if the contract\n    /// needs to perform a trade or repay a debt on a different protocol before depositing collateral. Since Notional's AMM\n    /// will never be as capital efficient or gas efficient as other flash loan facilities, this method requires whitelisting\n    /// and will mainly be used for contracts that make migrating assets a better user experience.\n    /// @param account the account that will take all the actions\n    /// @param actions array of balance actions with trades to take, must be sorted by currency id\n    /// @param callbackData arbitrary bytes to be passed backed to the caller in the callback\n    /// @dev emit:CashBalanceChange, emit:nTokenSupplyChange, emit:LendBorrowTrade, emit:AddRemoveLiquidity,\n    /// @dev emit:SettledCashDebt, emit:nTokenResidualPurchase, emit:ReserveFeeAccrued\n    /// @dev auth:authorizedCallbackContract\n    function batchBalanceAndTradeActionWithCallback(\n        address account,\n        BalanceActionWithTrades[] calldata actions,\n        bytes calldata callbackData\n    ) external payable {\n        // NOTE: Re-entrancy is allowed for authorized callback functions.\n        require(authorizedCallbackContract[msg.sender], \"Unauthorized\");\n        requireValidAccount(account);\n\n        AccountContext memory accountContext = _batchBalanceAndTradeAction(account, actions);\n        accountContext.setAccountContext(account);\n\n        // Be sure to set the account context before initiating the callback, all stateful updates\n        // have been finalized at this point so we are safe to issue a callback. This callback may\n        // re-enter Notional safely to deposit or take other actions.\n        NotionalCallback(msg.sender).notionalCallback(msg.sender, account, callbackData);\n\n        if (accountContext.hasDebt != 0x00) {\n            // NOTE: this method may update the account context to turn off the hasDebt flag, this\n            // is ok because the worst case would be causing an extra free collateral check when it\n            // is not required. This check will be entered if the account hasDebt prior to the callback\n            // being triggered above, so it will happen regardless of what the callback function does.\n            FreeCollateralExternal.checkFreeCollateralAndRevert(account);\n        }\n    }\n\n    function _batchBalanceAndTradeAction(\n        address account,\n        BalanceActionWithTrades[] calldata actions\n    ) internal returns (AccountContext memory) {\n        AccountContext memory accountContext = _settleAccountIfRequired(account);\n        BalanceState memory balanceState;\n        // NOTE: loading the portfolio state must happen after settle account to get the\n        // correct portfolio, it will have changed if the account is settled.\n        PortfolioState memory portfolioState = PortfolioHandler.buildPortfolioState(\n            account,\n            accountContext.assetArrayLength,\n            0\n        );\n\n        for (uint256 i = 0; i < actions.length; i++) {\n            BalanceActionWithTrades calldata action = actions[i];\n            // msg.value will only be used when currency id == 1, referencing ETH. The requirement\n            // to sort actions by increasing id enforces that msg.value will only be used once.\n            if (i > 0) {\n                require(action.currencyId > actions[i - 1].currencyId, \"Unsorted actions\");\n            }\n            // Loads the currencyId into balance state\n            balanceState.loadBalanceState(account, action.currencyId, accountContext);\n\n            // Does not revert on invalid action types here, they also have no effect.\n            _executeDepositAction(\n                account,\n                balanceState,\n                action.actionType,\n                action.depositActionAmount\n            );\n\n            if (action.trades.length > 0) {\n                int256 netCash;\n                (netCash, portfolioState) = _executeTrades(\n                    account,\n                    action.currencyId,\n                    action.trades,\n                    accountContext,\n                    portfolioState\n                );\n\n                // If the account owes cash after trading, ensure that it has enough\n                if (netCash < 0) _checkSufficientCash(balanceState, netCash.neg());\n                balanceState.netCashChange = balanceState.netCashChange.add(netCash);\n            }\n\n            _calculateWithdrawActionAndFinalize(\n                account,\n                accountContext,\n                balanceState,\n                action.withdrawAmountInternalPrecision,\n                action.withdrawEntireCashBalance,\n                action.redeemToUnderlying\n            );\n        }\n\n        // Update the portfolio state if bitmap is not enabled. If bitmap is already enabled\n        // then all the assets have already been updated in in storage.\n        if (!accountContext.isBitmapEnabled()) {\n            // NOTE: account context is updated in memory inside this method call.\n            accountContext.storeAssetsAndUpdateContext(account, portfolioState, false);\n        }\n\n        // NOTE: free collateral and account context will be set outside of this method call.\n        return accountContext;\n    }\n\n    /// @dev Executes deposits\n    function _executeDepositAction(\n        address account,\n        BalanceState memory balanceState,\n        DepositActionType depositType,\n        uint256 depositActionAmount_\n    ) private {\n        int256 depositActionAmount = SafeInt256.toInt(depositActionAmount_);\n        int256 assetInternalAmount;\n        require(depositActionAmount >= 0);\n\n        if (depositType == DepositActionType.None) {\n            return;\n        } else if (\n            depositType == DepositActionType.DepositAsset ||\n            depositType == DepositActionType.DepositAssetAndMintNToken\n        ) {\n            // NOTE: this deposit will NOT revert on a failed transfer unless there is a\n            // transfer fee. The actual transfer will take effect later in balanceState.finalize\n            assetInternalAmount = balanceState.depositAssetToken(\n                account,\n                depositActionAmount,\n                false // no force transfer\n            );\n        } else if (\n            depositType == DepositActionType.DepositUnderlying ||\n            depositType == DepositActionType.DepositUnderlyingAndMintNToken\n        ) {\n            // NOTE: this deposit will revert on a failed transfer immediately\n            assetInternalAmount = balanceState.depositUnderlyingToken(account, depositActionAmount);\n        } else if (depositType == DepositActionType.ConvertCashToNToken) {\n            // _executeNTokenAction will check if the account has sufficient cash\n            assetInternalAmount = depositActionAmount;\n        }\n\n        _executeNTokenAction(\n            balanceState,\n            depositType,\n            depositActionAmount,\n            assetInternalAmount\n        );\n    }\n\n    /// @dev Executes nToken actions\n    function _executeNTokenAction(\n        BalanceState memory balanceState,\n        DepositActionType depositType,\n        int256 depositActionAmount,\n        int256 assetInternalAmount\n    ) private {\n        // After deposits have occurred, check if we are minting nTokens\n        if (\n            depositType == DepositActionType.DepositAssetAndMintNToken ||\n            depositType == DepositActionType.DepositUnderlyingAndMintNToken ||\n            depositType == DepositActionType.ConvertCashToNToken\n        ) {\n            // Will revert if trying to mint ntokens and results in a negative cash balance\n            _checkSufficientCash(balanceState, assetInternalAmount);\n            balanceState.netCashChange = balanceState.netCashChange.sub(assetInternalAmount);\n\n            // Converts a given amount of cash (denominated in internal precision) into nTokens\n            int256 tokensMinted = nTokenMintAction.nTokenMint(\n                balanceState.currencyId,\n                assetInternalAmount\n            );\n\n            balanceState.netNTokenSupplyChange = balanceState.netNTokenSupplyChange.add(\n                tokensMinted\n            );\n        } else if (depositType == DepositActionType.RedeemNToken) {\n            require(\n                // prettier-ignore\n                balanceState\n                    .storedNTokenBalance\n                    .add(balanceState.netNTokenTransfer) // transfers would not occur at this point\n                    .add(balanceState.netNTokenSupplyChange) >= depositActionAmount,\n                \"Insufficient token balance\"\n            );\n\n            balanceState.netNTokenSupplyChange = balanceState.netNTokenSupplyChange.sub(\n                depositActionAmount\n            );\n\n            int256 assetCash = nTokenRedeemAction.nTokenRedeemViaBatch(\n                balanceState.currencyId,\n                depositActionAmount\n            );\n\n            balanceState.netCashChange = balanceState.netCashChange.add(assetCash);\n        }\n    }\n\n    /// @dev Calculations any withdraws and finalizes balances\n    function _calculateWithdrawActionAndFinalize(\n        address account,\n        AccountContext memory accountContext,\n        BalanceState memory balanceState,\n        uint256 withdrawAmountInternalPrecision,\n        bool withdrawEntireCashBalance,\n        bool redeemToUnderlying\n    ) private {\n        int256 withdrawAmount = SafeInt256.toInt(withdrawAmountInternalPrecision);\n        require(withdrawAmount >= 0); // dev: withdraw action overflow\n\n        // NOTE: if withdrawEntireCashBalance is set it will override the withdrawAmountInternalPrecision input\n        if (withdrawEntireCashBalance) {\n            // This option is here so that accounts do not end up with dust after lending since we generally\n            // cannot calculate exact cash amounts from the liquidity curve.\n            withdrawAmount = balanceState.storedCashBalance\n                .add(balanceState.netCashChange)\n                .add(balanceState.netAssetTransferInternalPrecision);\n\n            // If the account has a negative cash balance then cannot withdraw\n            if (withdrawAmount < 0) withdrawAmount = 0;\n        }\n\n        // prettier-ignore\n        balanceState.netAssetTransferInternalPrecision = balanceState\n            .netAssetTransferInternalPrecision\n            .sub(withdrawAmount);\n\n        balanceState.finalize(account, accountContext, redeemToUnderlying);\n    }\n\n    function _finalizeAccountContext(address account, AccountContext memory accountContext)\n        private\n    {\n        // At this point all balances, market states and portfolio states should be finalized. Just need to check free\n        // collateral if required.\n        accountContext.setAccountContext(account);\n        if (accountContext.hasDebt != 0x00) {\n            FreeCollateralExternal.checkFreeCollateralAndRevert(account);\n        }\n    }\n\n    function _executeTrades(\n        address account,\n        uint16 currencyId,\n        bytes32[] calldata trades,\n        AccountContext memory accountContext,\n        PortfolioState memory portfolioState\n    ) private returns (int256 netCash, PortfolioState memory postTradeState) {\n        if (accountContext.isBitmapEnabled()) {\n            require(\n                accountContext.bitmapCurrencyId == currencyId,\n                \"Invalid trades for account\"\n            );\n            bool didIncurDebt;\n            (netCash, didIncurDebt) = TradingAction.executeTradesBitmapBatch(\n                account,\n                accountContext.bitmapCurrencyId,\n                accountContext.nextSettleTime,\n                trades\n            );\n            if (didIncurDebt) {\n                accountContext.hasDebt = Constants.HAS_ASSET_DEBT | accountContext.hasDebt;\n            }\n        } else {\n            // NOTE: we return portfolio state here instead of setting it inside executeTradesArrayBatch\n            // because we want to only write to storage once after all trades are completed\n            (postTradeState, netCash) = TradingAction.executeTradesArrayBatch(\n                account,\n                currencyId,\n                portfolioState,\n                trades\n            );\n        }\n    }\n\n    /// @notice When lending, adding liquidity or minting nTokens the account must have a sufficient cash balance\n    /// to do so.\n    function _checkSufficientCash(BalanceState memory balanceState, int256 amountInternalPrecision)\n        private\n        pure\n    {\n        // The total cash position at this point is: storedCashBalance + netCashChange + netAssetTransferInternalPrecision\n        require(\n            amountInternalPrecision >= 0 &&\n                balanceState.storedCashBalance\n                .add(balanceState.netCashChange)\n                .add(balanceState.netAssetTransferInternalPrecision) >= amountInternalPrecision,\n            \"Insufficient cash\"\n        );\n    }\n\n    function _settleAccountIfRequired(address account)\n        private\n        returns (AccountContext memory)\n    {\n        AccountContext memory accountContext = AccountContextHandler.getAccountContext(account);\n        if (accountContext.mustSettleAssets()) {\n            // Returns a new memory reference to account context\n            return SettleAssetsExternal.settleAccount(account, accountContext);\n        } else {\n            return accountContext;\n        }\n    }\n\n    /// @notice Get a list of deployed library addresses (sorted by library name)\n    function getLibInfo() external pure returns (address, address, address, address, address, address) {\n        return (\n            address(FreeCollateralExternal), \n            address(MigrateIncentives), \n            address(SettleAssetsExternal), \n            address(TradingAction),\n            address(nTokenMintAction), \n            address(nTokenRedeemAction)\n        );\n    }\n}\n","sourcePath":"contracts/external/actions/BatchAction.sol","type":"contract","deployment":{"address":"0x53423Db7ac663Aa1941a809A6D787bfFc7A5C8A9","chainid":"1","blockHeight":17060885}}