{"abi":[{"anonymous":false,"inputs":[{"indexed":true,"internalType":"address","name":"liquidated","type":"address"},{"indexed":true,"internalType":"address","name":"liquidator","type":"address"},{"indexed":false,"internalType":"uint16","name":"localCurrencyId","type":"uint16"},{"indexed":false,"internalType":"uint16","name":"collateralCurrencyId","type":"uint16"},{"indexed":false,"internalType":"int256","name":"localAssetCashFromLiquidator","type":"int256"},{"indexed":false,"internalType":"int256","name":"netCollateralTransfer","type":"int256"},{"indexed":false,"internalType":"int256","name":"netNTokenTransfer","type":"int256"}],"name":"LiquidateCollateralCurrency","type":"event"},{"anonymous":false,"inputs":[{"indexed":true,"internalType":"address","name":"liquidated","type":"address"},{"indexed":true,"internalType":"address","name":"liquidator","type":"address"},{"indexed":false,"internalType":"uint16","name":"localCurrencyId","type":"uint16"},{"indexed":false,"internalType":"int256","name":"localAssetCashFromLiquidator","type":"int256"}],"name":"LiquidateLocalCurrency","type":"event"},{"inputs":[{"internalType":"address","name":"liquidateAccount","type":"address"},{"internalType":"uint16","name":"localCurrency","type":"uint16"},{"internalType":"uint16","name":"collateralCurrency","type":"uint16"},{"internalType":"uint128","name":"maxCollateralLiquidation","type":"uint128"},{"internalType":"uint96","name":"maxNTokenLiquidation","type":"uint96"}],"name":"calculateCollateralCurrencyLiquidation","outputs":[{"internalType":"int256","name":"","type":"int256"},{"internalType":"int256","name":"","type":"int256"},{"internalType":"int256","name":"","type":"int256"}],"stateMutability":"nonpayable","type":"function"},{"inputs":[{"internalType":"address","name":"liquidateAccount","type":"address"},{"internalType":"uint16","name":"localCurrency","type":"uint16"},{"internalType":"uint96","name":"maxNTokenLiquidation","type":"uint96"}],"name":"calculateLocalCurrencyLiquidation","outputs":[{"internalType":"int256","name":"","type":"int256"},{"internalType":"int256","name":"","type":"int256"}],"stateMutability":"nonpayable","type":"function"},{"inputs":[{"internalType":"address","name":"liquidateAccount","type":"address"},{"internalType":"uint16","name":"localCurrency","type":"uint16"},{"internalType":"uint16","name":"collateralCurrency","type":"uint16"},{"internalType":"uint128","name":"maxCollateralLiquidation","type":"uint128"},{"internalType":"uint96","name":"maxNTokenLiquidation","type":"uint96"},{"internalType":"bool","name":"withdrawCollateral","type":"bool"},{"internalType":"bool","name":"redeemToUnderlying","type":"bool"}],"name":"liquidateCollateralCurrency","outputs":[{"internalType":"int256","name":"","type":"int256"},{"internalType":"int256","name":"","type":"int256"},{"internalType":"int256","name":"","type":"int256"}],"stateMutability":"nonpayable","type":"function"},{"inputs":[{"internalType":"address","name":"liquidateAccount","type":"address"},{"internalType":"uint16","name":"localCurrency","type":"uint16"},{"internalType":"uint96","name":"maxNTokenLiquidation","type":"uint96"}],"name":"liquidateLocalCurrency","outputs":[{"internalType":"int256","name":"","type":"int256"},{"internalType":"int256","name":"","type":"int256"}],"stateMutability":"nonpayable","type":"function"},{"inputs":[],"name":"owner","outputs":[{"internalType":"address","name":"","type":"address"}],"stateMutability":"view","type":"function"},{"inputs":[],"name":"pauseGuardian","outputs":[{"internalType":"address","name":"","type":"address"}],"stateMutability":"view","type":"function"},{"inputs":[],"name":"pauseRouter","outputs":[{"internalType":"address","name":"","type":"address"}],"stateMutability":"view","type":"function"}],"bytecode":"608060405234801561001057600080fd5b50614727806100206000396000f3fe608060405234801561001057600080fd5b506004361061007d5760003560e01c8063824633671161005b57806382463367146100e35780638da5cb5b146100eb5780639a600eeb146100f3578063e3e7cb4f146101065761007d565b806324a3d622146100825780632d10e6eb146100a05780636633af39146100c1575b600080fd5b61008a610119565b6040516100979190614428565b60405180910390f35b6100b36100ae3660046142e9565b610128565b6040516100979291906144a7565b6100d46100cf366004614258565b610218565b604051610097939291906144b5565b61008a6102c8565b61008a6102d7565b6100d46101013660046141ee565b6102ee565b6100b36101143660046142e9565b610335565b6002546001600160a01b031681565b6000806002600a5414156101575760405162461bcd60e51b815260040161014e906145c8565b60405180910390fd5b6002600a55600080808061016d8989898461036b565b9350935093509350600061018f338a8761018a8860a001516103e2565b6103f8565b905061019b81336104d2565b6101a78a8584866105d6565b336001600160a01b03168a6001600160a01b03167f4596c3b6545e97eb42b719442dd0afa8eb7680f3ff72c762763d4b292ee26ea78b886040516101ec929190614636565b60405180910390a3846102028560a001516103e2565b6001600a55909b909a5098505050505050505050565b60008060006002600a5414156102405760405162461bcd60e51b815260040161014e906145c8565b6002600a5560008080806102588e8e8e8e8e86610625565b935093509350935061026e8d8d86868d8d6106a8565b61027a8e8e86866106f0565b6102868e8e8387610761565b6102928e8483856105d6565b8361029c84610791565b6102a98560a001516103e2565b965096509650505050506001600a819055509750975097945050505050565b6001546001600160a01b031681565b60005464010000000090046001600160a01b031681565b60008060008060006103058a8a8a8a8a6001610625565b5050915091508161031582610791565b6103228360a001516103e2565b9450945094505050955095509592505050565b600080600080610348878787600161036b565b5050915091508161035c8260a001516103e2565b9350935050505b935093915050565b6000610375613ba5565b61037d613bf5565b610385613c1d565b60008060006103968b8b60006107ae565b9250925092506103a4613ba5565b6103b0818d8d87610923565b88151561014084015260006103cd61ffff8d168c428588886109c9565b9d919c50919a50929850919650505050505050565b60006103f060001983610b5d565b90505b919050565b610400613c1d565b600061040f8561ffff16610bb1565b9050600061041c87610bc4565b9050610426613ba5565b61043281898985610923565b826020015180156104435750600086135b156104975785816020015112158015610468575060208201516001600160f81b031916155b6104845760405162461bcd60e51b815260040161014e90614561565b61048d866103e2565b60608201526104af565b6104ad886104a58589610c65565b859190610ca4565b505b60a081018590526104c38189846000610d48565b5090925050505b949350505050565b60006104dc610fb3565b6001600160a01b03831660008181526020838152604080832088518154938a0151838b015160608c015160808d015160701c600160481b027affffffffffffffffffffffffffffffffffff0000000000000000001961ffff909216600160381b0268ffff000000000000001960ff94909416600160301b0266ff0000000000001960f89690961c650100000000000265ff00000000001964ffffffffff90981664ffffffffff19909b169a909a1796909616989098179390931693909317169490941716929092179091555192935090917f6bd4b121bca854a191536a2ca891155c42ee2fb23f307fb34e8bc65cfcb5412e9190a2505050565b608083018051600091829052906105f290859087908690610d48565b506105fc83610fc0565b61060d5761060d8386846001610fcd565b61061783866104d2565b608090930192909252505050565b600061062f613ba5565b610637613bf5565b61063f613c1d565b426000808061064f8e8e8e6107ae565b92509250925061065d613ba5565b6106748f8e8684610923909392919063ffffffff16565b891515610140840152600061068d8d8d888588886110af565b99509097509095509193505050509650965096509692505050565b60006106b733888760006103f8565b90506106dc3382886106c888610791565b6106d58960a001516103e2565b8888611224565b506106e781336104d2565b50505050505050565b336001600160a01b0316846001600160a01b03167f88fff2f00941b1272999212de454ee8d15f54d132723b35e3423ef742109861c8584600001518661073587610791565b6107428860a001516103e2565b60405161075395949392919061464a565b60405180910390a350505050565b610769613ba5565b61077581868686610923565b606081018290526107898186856000610d48565b505050505050565b60006103f082608001516107a884606001516103e2565b9061127d565b6107b6613c1d565b6107be613c4b565b6107c6613bf5565b336001600160a01b03871614156107dc57600080fd5b61ffff85166107ea57600080fd5b8461ffff168461ffff1614156107ff57600080fd5b600080600073__FreeCollateralExternal________________63451d958f8a8a8a6040518463ffffffff1660e01b815260040161083f93929190614460565b60006040518083038186803b15801561085757600080fd5b505af415801561086b573d6000803e3d6000fd5b505050506040513d6000823e601f3d908101601f19168201604052610893919081019061432f565b92509250925060006040518060800160405280838152602001600067ffffffffffffffff811180156108c457600080fd5b506040519080825280602002602001820160405280156108fe57816020015b6108eb613cd0565b8152602001906001900390816108e35790505b5081526000602082015292516040909301929092525091989097509095509350505050565b8161ffff16600010801561093d5750613fff61ffff831611155b61094657600080fd5b61ffff8216808552610959908290611293565b156109865761096c838361ffff1661131d565b61010088015260e0870152604086015260208501526109a4565b6000602085018190526040850181905260e085018190526101008501525b50506000606083018190526080830181905260a0830181905260c09092019190915250565b60008260400151600014156109dd57600080fd5b6000610a056109f9856040015186602001518760c001516113a6565b610100860151906113f5565b9050610a0f613d10565b610a1b84868985611420565b6060820151909350909150610a2f906103e2565b9250610a4c8160600151826080015161166790919063ffffffff16565b606087015250608084015160001215610b525760a0840151600090600381901a90821a11610a7957600080fd5b60a08501516080860151600382901a60009290921a9190910360ff1690610acd90610aa49083610b5d565b60a088015160408a0151610ac79160031a90610ac1908890610b5d565b90610b5d565b9061167d565b915050610ae88187604001518a6001600160601b03166116ae565b9050610af3816103e2565b60a0878101919091526040870151908601516080870151600092610b2c929091610ac791600381901a918391610ac1908990891a610b5d565b6060880151909150610b3e908261127d565b6060880152610b4d848261127d565b935050505b509695505050505050565b818102600019831415610b8d57811580610b7f575082828281610b7c57fe5b05145b610b8857600080fd5b610bab565b821580610ba2575081838281610b9f57fe5b05145b610bab57600080fd5b92915050565b610bb9613d46565b6103f08260006116f8565b610bcc613c1d565b6000610bd6610fb3565b6001600160a01b039390931660009081526020938452604090819020815160a081018352905464ffffffffff8116825265010000000000810460f81b6001600160f81b03191695820195909552600160301b850460ff1691810191909152600160381b840461ffff166060820152600160481b90930460701b6001600160701b03191660808401525090919050565b60006305f5e10083604001511415610c7e575080610bab565b610c9d6305f5e100610ac7856040015185610b5d90919063ffffffff16565b9392505050565b600080821315610cc057610cb98484846117a6565b9150610d41565b600384606001516004811115610cd257fe5b1415610d2c576000821315610ce657600080fd5b826001600160a01b0381166108fc610cfd856103e2565b6040518115909202916000818181858888f19350505050158015610d25573d6000803e3d6000fd5b5050610d41565b8351610d419084610d3c856103e2565b611948565b5092915050565b60008060008660a001511215610d9b576000610d7d8760a001516107a88960c001518a6040015161127d90919063ffffffff16565b1215610d9b5760405162461bcd60e51b815260040161014e90614612565b600086608001511215610deb576000610dcd87608001516107a889606001518a6020015161127d90919063ffffffff16565b1215610deb5760405162461bcd60e51b815260040161014e906145f0565b610df68686856119b5565b608088018190526060880151919350600091610e119161127d565b90508015610e7e576020870151610e28908261127d565b602088015286516040516001935061ffff909116906001600160a01b038816907f5441e4a5fac93a951d782e6f1cdb82e95c8fc58561a013953d17e395c5e69b4b90610e7590859061449e565b60405180910390a35b60a0870151151580610e93575060c087015115155b15610f2957610ea28787611a89565b50610ec68760c001516107a88960a001518a6040015161127d90919063ffffffff16565b604088015260c087015115610f2457866000015161ffff16866001600160a01b03167f412bc13d202a2ea5119e55fec9c5e420dddb18faf186373ad9795ad4f4545aa98960c00151604051610f1b919061449e565b60405180910390a35b600191505b8115610f5657610f5686886000015161ffff1689602001518a604001518b60e001518c6101000151611afa565b86516020880151610f839161ffff1690151580610f765750604089015115155b879190600160fe1b611c10565b600087602001511215610fa957602085018051600160f91b176001600160f81b03191690525b5050949350505050565b600080610bab6001611e10565b6060015161ffff16151590565b6000808080610fdc8688611e29565b64ffffffffff81168c5292965090945092509050610ff988612068565b1561100357600080fd5b60ff821660408901528461102257600760ff8316111561102257600080fd5b831561104557602088018051600160f81b176001600160f81b0319169052611054565b602088018051607f60f91b1690525b61106188608001516120bc565b6001600160701b031916608089015260005b83156110a45760f084901c818114611096576110968a826001600160ff1b611c10565b60109490941b939050611073565b505050505050505050565b6000808360400151126110d45760405162461bcd60e51b815260040161014e906144cb565b60008360600151136110f85760405162461bcd60e51b815260040161014e906145a1565b6000806000611110868b6001600160801b0316612137565b925092509250600083905060008860200151131561116e57808860200151126111495761113c816103e2565b606089015250600061116e565b61115688602001516103e2565b6060890152602088015161116b9082906121e2565b90505b600081131561119957600061118587898c856121fe565b90506111918282611667565b60808a015290505b6000811380156111ad575060008760800151135b156111ca576111c78888838d6001600160601b031661239f565b90505b60008113156112135760006111df8583611667565b905060006111ff828a61012001516040015161245d90919063ffffffff16565b905061120d89858385612488565b95505050505b5090925050505b9695505050505050565b61122c613c1d565b611234613ba5565b611240818a898b610923565b60608101869052831561125c57611256866103e2565b60808201525b60a0810185905261126f818a8a86610d48565b509698975050505050505050565b81810182811215600083121514610bab57600080fd5b600081158015906112a65750613fff8211155b6112af57600080fd5b6080830151606084015161ffff168314156112ce576001915050610bab565b6001600160701b03198116156113135760f081901c613fff16838114156113005750600160fe1b908116149050610bab565b5060101b6001600160801b0319166112ce565b5060009392505050565b600080600080600061132d612515565b6001600160a01b0388166000908152602082815260408083208a8452909152902080546001600160501b0381169650600160501b810463ffffffff1695509192509061138890600160701b900466ffffffffffffff16612522565b9054600160a81b9004600a90810b900b989497509295509193505050565b600080600085136113bb5782604001516113c1565b82606001515b9050600081136113d057600080fd5b6113ec81610ac76064610ac16113e5896103e2565b8890612530565b95945050505050565b6000806104ca8460200151610ac78660400151610ac16402540be40088610b5d90919063ffffffff16565b611428613d10565b600085602001515160001461143c57600080fd5b611444613d75565b61144c613d10565b8751515b600019810190156116595760008960000151828151811061146d57fe5b6020026020010151905061148e818a61012001516000015161ffff16612552565b6114985750611654565b6114a9818a6101200151868b61258e565b602085015260408085018290528201516114c4918b916125c2565b60a0850181905281855288916114d9916121e2565b1361151e576114e88a8361261a565b88610140015161150557606081015161150290859061276a565b50505b60a0830151835161151591611667565b870396506115f1565b60a0830151835160009161154491611535916121e2565b6060840151610ac7908b610b5d565b90508961014001516115695761155a858261276a565b602086015260408501526115b6565b6115888560800151610ac7838860600151610b5d90919063ffffffff16565b8460400181815250506115b08560800151610ac7838860400151610b5d90919063ffffffff16565b60208501525b6115c98a856040015184604001516125c2565b60a0860152845260608201516115df90826121e2565b606083015250600160a0820152600096505b60a083015160608401516116049161127d565b60608401526040830151608084015161161c9161127d565b60808401526101208901515160208083015190850151611647928d9261ffff90911691600190612819565b866116525750611659565b505b611450565b509793965092945050505050565b80820382811315600083121514610bab57600080fd5b6000816000191480156116935750600160ff1b83145b1561169d57600080fd5b8183816116a657fe5b059392505050565b6000806116c16064610ac7866028610b5d565b905084848113156116cf5750835b818612156116da5750805b6000841380156116e957508381135b156113ec575091949350505050565b611700613d46565b600061170a61291e565b6000858152602082815260408083208715158452825291829020825160a08101845281546001600160a01b038116825260ff600160a01b82048116151594830194909452600160b01b81048416600a0a9482019490945293945092916060830191600160a81b90910416600481111561177f57fe5b81529154600160b81b900468ffffffffffffffffff16602090920191909152949350505050565b60008060008560200151156118375785516040516370a0823160e01b81526001600160a01b03909116906370a08231906117e4903090600401614428565b60206040518083038186803b1580156117fc57600080fd5b505afa158015611810573d6000803e3d6000fd5b505050506040513d601f19601f820116820180604052508101906118349190614410565b91505b855161184490868661292b565b856020015180611858575060008660800151115b156118df5785516040516370a0823160e01b81526001600160a01b03909116906370a082319061188c903090600401614428565b60206040518083038186803b1580156118a457600080fd5b505afa1580156118b8573d6000803e3d6000fd5b505050506040513d601f19601f820116820180604052508101906118dc9190614410565b90505b60808601511561191a5760006118fd876118f88461295b565b612975565b905061190c876080015161295b565b81131561191857600080fd5b505b85602001511561193f5761193661193182846129a5565b61295b565b92505050610c9d565b6119368461295b565b60405163a9059cbb60e01b81526001600160a01b0384169063a9059cbb906119769085908590600401614485565b600060405180830381600087803b15801561199057600080fd5b505af11580156119a4573d6000803e3d6000fd5b505050506119b0612a02565b505050565b60008060006119cb866000015161ffff16610bb1565b905060006119e6876080015183610c6590919063ffffffff16565b9050806119fb57600080935093505050610363565b848015611a085750600081125b15611a65576000611a20886000015161ffff16612a52565b90506000611a3982611a31856103e2565b869190612a65565b9050611a5088611a48836103e2565b849190610ca4565b9550611a5c8484612975565b94505050611a7f565b611a70828783610ca4565b9350611a7c8285612975565b92505b5050935093915050565b815160009042908290611a9f9061ffff16612c7e565b90506000611ab2828760c0015185612ca4565b90506000611ad983611ac78960400151612d86565b8960e001518a61010001518887612d95565b60e0880185905261010088018390529050801561121a5761121a8682612e3c565b6000611b04612515565b6001600160a01b0388166000908152602082815260408083208a845290915290209091506001600160571b03198612801590611b4757506001600160571b038613155b611b5057600080fd5b60008512158015611b6857506001600160501b038513155b611b7157600080fd5b63ffffffff841115611b8257600080fd5b805469ffffffffffffffffffff19166001600160501b0386161763ffffffff60501b1916600160501b63ffffffff861602176001600160a81b0316600160a81b6affffffffffffffffffffff600a89900b1602178155611be183612e5b565b815466ffffffffffffff91909116600160701b0266ffffffffffffff60701b1990911617905550505050505050565b826000108015611c225750613fff8311155b611c2b57600080fd5b818015611c3f575082846060015161ffff16145b15611c4957611e0a565b6080840151600090815b6001600160701b0319821615611dc45760f082901c613fff168681148015611c785750855b15611cb057506080870180516001600160f01b0319861660109093029290921c919091176001600160701b031916905250611e0a9050565b8681148015611cbd575085155b15611d12576001600160f01b03198516199290921691600360fe1b8316611cf0576010836001600160701b031916901b92505b506001600160701b031991821660109091021c91909117166080850152611e0a565b8681118015611d1e5750855b15611d78576080888101516001600160f01b031960f08a901b88178116601086021c9690961795911b1615611d5257600080fd5b506001600160701b03199182166001919091016010021c91909117166080850152611e0a565b8681118015611d85575085155b15611d935750505050611e0a565b506001600160f01b0319821660108281029190911c93909317929190911b6001600160801b03191690600101611c53565b84611dd157505050611e0a565b60098110611dde57600080fd5b6001600160f01b031960f087901b85171660109091021c919091176001600160701b0319166080860152505b50505050565b6000620f4240826010811115611e2257fe5b0192915050565b6000808080808080805b895151811015611eba5760008a600001518281518110611e4f57fe5b60200260200101519050600380811115611e6557fe5b8160a001516003811115611e7557fe5b1415611e8057600080fd5b60028160a001516003811115611e9257fe5b14158015611ea257506060810151155b15611eb157611eb18b8361261a565b50600101611e33565b5060005b895151811015611f5d5760008a600001518281518110611eda57fe5b6020026020010151905060026003811115611ef157fe5b8160a001516003811115611f0157fe5b1415611f1557608081015160009055611f54565b60018160a001516003811115611f2757fe5b1415611f4057608081015180611f3d8382612e89565b50505b611f4c81868686612fb2565b919650945092505b50600101611ebe565b5060608901516000611f6d613015565b6001600160a01b038b1660009081526020829052604081209192505b8c60200151518110156120375760008d602001518281518110611fa857fe5b60200260200101519050806060015160001415611fc5575061202f565b60028160a001516003811115611fd757fe5b14158015611ff5575060038160a001516003811115611ff257fe5b14155b611ffe57600080fd5b61200a81898989612fb2565b919950975095506120278184876010811061202157fe5b01612e89565b600185019450505b600101611f89565b506010831115801561204e575064ffffffffff8411155b61205757600080fd5b50939a929950975095509350505050565b60004261207483610fc0565b156120955761208281613022565b835164ffffffffff161091506103f39050565b825164ffffffffff16158015906120b45750825164ffffffffff168110155b9150506103f3565b6000807f7fff7fff7fff7fff7fff7fff7fff7fff7fff00000000000000000000000000008316815b6001600160701b031982161561212e57600160fe1b8281161415612118576001600160f01b03198216811c92909217916010015b6010826001600160701b031916901b91506120e4565b50909392505050565b60008060008061214686613043565b809350819250505060006121828760e001516060015161217c85610ac760648c60c0015160400151610b5d90919063ffffffff16565b90611667565b905061219381610ac7846064610b5d565b9450506121a5848760600151876116ae565b935060006121c5858861012001516040015161245d90919063ffffffff16565b90506121d387848388612488565b909550935050505b9250925092565b60006121ee8383611667565b90506000811215610bab57600080fd5b600084602001515160001461221257600080fd5b61221a613d75565b8551515b600019810190156123945760008760000151828151811061223b57fe5b6020026020010151905061225c818861012001516000015161ffff16612552565b612266575061238f565b60008061227a838a6101200151878b61258e565b915091508682136122b65761228f8a8561261a565b8861014001516122ac5760608301516122a990869061276a565b50505b8187039650612357565b60006122d383610ac78a8760600151610b5d90919063ffffffff16565b90508961014001516122f3576122e9868261276a565b9093509150612336565b6123128660800151610ac7838960600151610b5d90919063ffffffff16565b92506123338660800151610ac7838960400151610b5d90919063ffffffff16565b91505b606084015161234590826121e2565b606085015250600160a0840152600096505b610120890151516020840151612378918c9161ffff90911690600185612819565b8661238b576000955050505050506104ca565b5050505b61221e565b509195945050505050565b60a0830151608084015160009180831a9160039190911a9083906123e2906123c79085610b5d565b610ac784610ac18c604001518b610b5d90919063ffffffff16565b90506000851380156123f357508481135b156123fb5750835b876040015181131561240e575060408701515b612417816103e2565b8860a001818152505061245161244a8960400151610ac785610ac788610ac18e6080015189610b5d90919063ffffffff16565b87906121e2565b98975050505050505050565b6000806104ca8460400151610ac76402540be400610ac7878960200151610b5d90919063ffffffff16565b60008060006124bb86610ac76124a68a60c001518b60e00151613097565b60c08b015151610ac790610ac18b6064610b5d565b905060006124d7828961010001516113f590919063ffffffff16565b905060006124e889604001516103e2565b9050808213156125065761250082610ac78884610b5d565b95508091505b50939793965092945050505050565b600080610bab6006611e10565b600881901c60ff9091161b90565b6000806104ca8460200151610ac7866000015186610b5d90919063ffffffff16565b81516000908214801561256d575061256d83604001516130bc565b8015610c9d575060008360a00151600381111561258657fe5b149392505050565b60408401516000908190600019016125aa8686836001886130d2565b6125b48786613145565b909890975095505050505050565b60008060006125df848761012001516131c090919063ffffffff16565b60ff1690506125fd6064610ac76125f68285611667565b8890610b5d565b925061260f6064610ac785601e610b5d565b915050935093915050565b815151811061262857600080fd5b600082606001511161263957600080fd5b60008260000151828151811061264b57fe5b602002602001015190506002600381111561266257fe5b8160a00151600381111561267257fe5b14158015612690575060038160a00151600381111561268d57fe5b14155b61269957600080fd5b606083018051600019019052600080805b85515181101561270c576000866000015182815181106126c657fe5b602002602001015190508281608001511180156126f3575060028160a0015160038111156126f057fe5b14155b1561270357806080015192508193505b506001016126aa565b5081841415612725575050600260a09190910152612766565b60008560000151838151811061273757fe5b602090810291909101015160808581018051918301805190915252600160a09182015260029401939093525050505b5050565b6000808261277d57506000905080612812565b6000831361278a57600080fd5b6127a98460800151610ac7858760600151610b5d90919063ffffffff16565b91506127ca8460800151610ac7858760400151610b5d90919063ffffffff16565b60808501519091506127dc90846121e2565b608085015260408401516127f090826121e2565b6040850152606084015161280490836121e2565b6060850152612812846131f5565b9250929050565b8451612828908585858561324d565b1561283257612917565b60408501511561285f57600061284f86602001518686868661324d565b9050801561285d5750612917565b505b612868826130bc565b1561287b57600081121561287b57600080fd5b6001600160571b0319811280159061289a57506001600160571b038113155b6128a357600080fd5b846020015151856040015114156128c7576128c1856020015161335e565b60208601525b600085602001518660400151815181106128dd57fe5b602090810291909101810151868152908101859052604080820185905260608201849052600060a090920191909152860180516001019052505b5050505050565b600080610bab6007611e10565b6040516323b872dd60e01b81526001600160a01b038416906323b872dd906119769085903090869060040161443c565b60006001600160ff1b0382111561297157600080fd5b5090565b60006305f5e1008360400151141561298e575080610bab565b6040830151610c9d90610ac7846305f5e100610b5d565b6000828211156129fc576040805162461bcd60e51b815260206004820152601e60248201527f536166654d6174683a207375627472616374696f6e206f766572666c6f770000604482015290519081900360640190fd5b50900390565b6000612a0c613dbd565b3d8015612a205760208114612a2957600080fd5b60019250612a34565b60206000833e815192505b50816127665760405162461bcd60e51b815260040161014e90614582565b612a5a613d46565b6103f08260016116f8565b600080600285606001516004811115612a7a57fe5b1415612a87575047612b21565b600185606001516004811115612a9957fe5b141561007d5783516040516370a0823160e01b81526001600160a01b03909116906370a0823190612ace903090600401614428565b60206040518083038186803b158015612ae657600080fd5b505afa158015612afa573d6000803e3d6000fd5b505050506040513d601f19601f82011682018060405250810190612b1e9190614410565b90505b845160405163db006a7560e01b81526000916001600160a01b03169063db006a7590612b5190879060040161449e565b602060405180830381600087803b158015612b6b57600080fd5b505af1158015612b7f573d6000803e3d6000fd5b505050506040513d601f19601f82011682018060405250810190612ba39190614410565b90508015612bc35760405162461bcd60e51b815260040161014e906144f2565b6000600287606001516004811115612bd757fe5b1415612be4575047612c66565b85516040516370a0823160e01b81526001600160a01b03909116906370a0823190612c13903090600401614428565b60206040518083038186803b158015612c2b57600080fd5b505afa158015612c3f573d6000803e3d6000fd5b505050506040513d601f19601f82011682018060405250810190612c639190614410565b90505b612c7361193182856129a5565b979650505050505050565b600080612c89613417565b6000938452602052505060409020546001600160a01b031690565b6000806000612cb38685613424565b5091509150846000146113ec576000612ccc838761127d565b905060008112158015612ce557506001600160601b0381105b612cee57600080fd5b6000612cf8613489565b6001600160a01b0398909816600090815260209890985250604090962080546bffffffffffffffffffffffff19166001600160601b0397909716969096176fffffffffffffffffffffffffffffffff60601b1916600160601b6001600160801b03831602176001600160e01b0316600160e01b63ffffffff9590951694909402939093179094555092915050565b60008082121561297157600080fd5b6000841580612da45750828510155b15612db15750600061121a565b6000612dbc88613496565b50919350505086850390506000612de082612ddb856305f5e1006134ff565b613558565b90506000612df883612df2888b6129a5565b9061357d565b905080612e0c57600094505050505061121a565b6000612e1c82612df28d866134ff565b9050612e2c816305f5e10061357d565b9c9b505050505050505050505050565b61276673cfeaead4947f0705a14ec42ac3d44129e1ef3ed58383611948565b60008065ffffffffffff831115612e7b57602f612e77846135e4565b0390505b82811c60081b179050919050565b815115801590612e9c57508151613fff10155b612ea557600080fd5b81602001516000108015612ec25750602082015164ffffffffff10155b612ecb57600080fd5b81604001516000108015612ee457506040820151600810155b612eed57600080fd5b60608201516001600160571b031913801590612f14575060608201516001600160571b0312155b612f1d57600080fd5b8151815460208401516040850151606090950151600a0b6affffffffffffffffffffff16600160401b0272ffffffffffffffffffffff00000000000000001960ff909616600160381b0267ff000000000000001964ffffffffff909316620100000266ffffffffff00001961ffff90961661ffff19909516949094179490941692909217169190911792909216919091179055565b600080600080612fc18861367d565b9050841580612fcf57508085115b15612fd8578094505b8680612fe8575060008860600151125b965061ffff861615612ff957600080fd5b50509451939560109390931c60f09490941b9390931793509150565b600080610bab600d611e10565b60006201518082101561303457600080fd5b62015180825b06909103919050565b60008061307461306461305985602001516103e2565b60e086015190612530565b61012085015160400151906113f5565b91506130908360e00151608001518460c00151608001516136e4565b9050915091565b6000610c9d8260200151610ac784600001518660200151610b5d90919063ffffffff16565b6000600282108015906103f05750506008101590565b826001111580156130e7575084602001518311155b6131035760405162461bcd60e51b815260040161014e90614539565b6000613120613111856136fa565b61311a8461379e565b906137ba565b9050610789866000015161ffff1682848661313a8b613814565b8a9493929190613828565b60008061315584604001516130bc565b801561316657506000846060015112155b61316f57600080fd5b6131928360800151610ac786606001518660600151610b5d90919063ffffffff16565b91506131b78360800151610ac786606001518660400151610b5d90919063ffffffff16565b90509250929050565b6000600282108015906131d4575060088211155b6131dd57600080fd5b50606082015160486008600119840102011c92915050565b600061320082613849565b905060008160000160189054906101000a900463ffffffff16905061323f82846040015185606001518660a001518563ffffffff168860e0015161384d565b6119b0828460800151613961565b6000805b865181101561335157600087828151811061326857fe5b60200260200101519050848160400151141580613286575080518714155b80613295575085816020015114155b156132a05750613349565b60028160a0015160038111156132b257fe5b141580156132d0575060038160a0015160038111156132cd57fe5b14155b6132d957600080fd5b60608101516000906132eb908661127d565b90506132f6866130bc565b1561330957600081121561330957600080fd5b6001600160571b0319811280159061332857506001600160571b038113155b61333157600080fd5b6060820152600160a090910181905291506113ec9050565b600101613251565b5060009695505050505050565b606060008251600014613375578251600202613378565b60015b905060008167ffffffffffffffff8111801561339357600080fd5b506040519080825280602002602001820160405280156133cd57816020015b6133ba613cd0565b8152602001906001900390816133b25790505b50905060005b845181101561340f578481815181106133e857fe5b60200260200101518282815181106133fc57fe5b60209081029190910101526001016133d3565b509392505050565b600080610bab6003611e10565b6000806000613432856139aa565b91945092509050806134415750825b8084101561344e57600080fd5b61346461345d84838703610b5d565b839061127d565b91506001600160801b03821061347957600080fd5b63ffffffff84106121db57600080fd5b600080610bab600e611e10565b6000806000806000806134a7613a06565b6001600160a01b039097166000908152602097909752505060409094205461ffff81169563ffffffff62010000830481169650600160301b830416945060ff600160501b8304169350600160581b90910460d81b9150565b60008261350e57506000610bab565b8282028284828161351b57fe5b0414610c9d5760405162461bcd60e51b81526004018080602001828103825260218152602001806146d16021913960400191505060405180910390fd5b6000806135716301da9c00612df2866305f5e1006134ff565b90506104ca81846134ff565b60008082116135d3576040805162461bcd60e51b815260206004820152601a60248201527f536166654d6174683a206469766973696f6e206279207a65726f000000000000604482015290519081900360640190fd5b8183816135dc57fe5b049392505050565b6000816135f057600080fd5b600160801b821061360357608091821c91015b600160401b821061361657604091821c91015b640100000000821061362a57602091821c91015b62010000821061363c57601091821c91015b610100821061364d57600891821c91015b6010821061365d57600491821c91015b6004821061366d57600291821c91015b600282106103f357600101919050565b600080826040015111801561369757506040820151600810155b6136a057600080fd5b60408201516002106136b7575060208101516103f3565b60006136c960018460400151036136fa565b6020840151909150610c9d906276a7009061311a90846129a5565b60008183136136f35781610c9d565b5090919050565b6000816001141561370f57506276a7006103f3565b8160021415613722575062ed4e006103f3565b816003141561373657506301da9c006103f3565b816004141561374a57506303b538006103f3565b816005141561375e57506309450c006103f3565b8160061415613772575063128a18006103f3565b8160071415613786575063251430006103f3565b60405162461bcd60e51b815260040161014e90614512565b60006276a7008210156137b057600080fd5b6276a7008261303a565b600082820183811015610c9d576040805162461bcd60e51b815260206004820152601b60248201527f536166654d6174683a206164646974696f6e206f766572666c6f770000000000604482015290519081900360640190fd5b6060015161012c60089190911c60ff160290565b60006276a7006138378561379e565b0190506106e787878787878787613a13565b5190565b6000851215801561386557506001600160501b038513155b61386e57600080fd5b6000841215801561388657506001600160501b038413155b61388f57600080fd5b8260001080156138a3575063ffffffff8311155b6138ac57600080fd5b8160001080156138c0575063ffffffff8211155b6138c957600080fd5b63ffffffff8111156138da57600080fd5b855469ffffffffffffffffffff19166001600160501b039586161769ffffffffffffffffffff60501b1916600160501b94909516939093029390931763ffffffff60a01b1916600160a01b63ffffffff928316021763ffffffff60c01b1916600160c01b93821693909302929092176001600160e01b0316600160e01b9190921602179055565b6000811215801561397957506001600160501b038113155b61398257600080fd5b600191909101805469ffffffffffffffffffff19166001600160501b03909216919091179055565b6000806000806139b8613489565b6001600160a01b0395909516600090815260209590955250506040909220546001600160601b03811693600160601b82046001600160801b03169350600160e01b90910463ffffffff169150565b600080610bab6002611e10565b613a208787878685613a4a565b613a398760e001518860a001518960c001518588613b05565b60c090970196909652505050505050565b6000613a54613b98565b6000868152602082815260408083208884528252808320868452825291829020808a5290890187905280546001600160501b03808216938b0193909352600160501b810490921660608a015263ffffffff600160a01b8304811660a08b0152600160c01b8304811660c08b0152600160e01b90920490911660e0890152909150808415613af35760018201546001600160501b03166080890152613afb565b600060808901525b5050505050505050565b6000808311613b1357600080fd5b81861115613b225750836113ec565b6000613b2e83886129a5565b905083811115613b4157859150506113ec565b6000613b5585612df284633b9aca006134ff565b90506000613b67633b9aca00836129a5565b90506000613b8a633b9aca00612df2613b808b866134ff565b61311a8d886134ff565b9a9950505050505050505050565b600080610bab600a611e10565b604051806101200160405280600061ffff16815260200160008152602001600081526020016000815260200160008152602001600081526020016000815260200160008152602001600081525090565b6040518060800160405280606081526020016060815260200160008152602001600081525090565b6040805160a08101825260008082526020820181905291810182905260608101829052608081019190915290565b60405180610160016040528060006001600160a01b031681526020016000815260200160008152602001600081526020016000815260200160006001600160d01b0319168152602001613c9c613ddb565b8152602001613ca9613ddb565b8152602001613cb6613e0a565b8152602001613cc3613e34565b8152600060209091015290565b6040518060c00160405280600081526020016000815260200160008152602001600081526020016000815260200160006003811115613d0b57fe5b905290565b6040518060c001604052806000815260200160008152602001600081526020016000815260200160008152602001600081525090565b6040805160a0810182526000808252602082018190529181018290529060608201908152602001600081525090565b60405180610100016040528060008019168152602001600081526020016000815260200160008152602001600081526020016000815260200160008152602001600081525090565b60405180602001604052806001906020820280368337509192915050565b6040518060a0016040528060008152602001600081526020016000815260200160008152602001600081525090565b604051806060016040528060006001600160a01b0316815260200160008152602001600081525090565b6040805160808101825260008082526020820152908101613cc3613e0a565b80516103f38161469a565b600082601f830112613e6e578081fd5b8151602067ffffffffffffffff80831115613e8557fe5b613e928283850201614676565b8381528281019086840160c0808702890186018a1015613eb0578788fd5b875b87811015613f315781838c031215613ec8578889fd5b604080518381018181108982111715613edd57fe5b82528451815288850151898201528482015191810191909152606080850151908201526080808501519082015260a090613f18828601613f93565b9181019190915285529386019391810191600101613eb2565b50919998505050505050505050565b80516103f3816146b2565b80516001600160701b0319811681146103f357600080fd5b80516001600160f81b0319811681146103f357600080fd5b80516001600160d01b0319811681146103f357600080fd5b8051600481106103f357600080fd5b600060608284031215613fb3578081fd5b6040516060810181811067ffffffffffffffff82111715613fd057fe5b80604052508091508251613fe38161469a565b8082525060208301516020820152604083015160408201525092915050565b600060c08284031215614013578081fd5b6040516080810181811067ffffffffffffffff8211171561403057fe5b80604052508091508251614043816146c0565b81526020838101519082015261405c8460408501613fa2565b604082015260a083015160608201525092915050565b600060a08284031215614083578081fd5b60405160a0810181811067ffffffffffffffff821117156140a057fe5b806040525080915082518152602083015160208201526040830151604082015260608301516060820152608083015160808201525092915050565b600061034082840312156140ed578081fd5b6101606140f981614676565b915061410483613e53565b82526020830151602083015260408301516040830152606083015160608301526080830151608083015261413a60a08401613f7b565b60a083015261414c8460c08501614072565b60c083015261415d84828501614072565b60e083015250614171836102008401613fa2565b610100820152614185836102608401614002565b6101208201526141986103208301613f40565b61014082015292915050565b80356001600160801b03811681146103f357600080fd5b80516103f3816146c0565b805160ff811681146103f357600080fd5b80356001600160601b03811681146103f357600080fd5b600080600080600060a08688031215614205578081fd5b85356142108161469a565b94506020860135614220816146c0565b93506040860135614230816146c0565b925061423e606087016141a4565b915061424c608087016141d7565b90509295509295909350565b600080600080600080600060e0888a031215614272578485fd5b873561427d8161469a565b9650602088013561428d816146c0565b9550604088013561429d816146c0565b94506142ab606089016141a4565b93506142b9608089016141d7565b925060a08801356142c9816146b2565b915060c08801356142d9816146b2565b8091505092959891949750929550565b6000806000606084860312156142fd578081fd5b83356143088161469a565b92506020840135614318816146c0565b9150614326604085016141d7565b90509250925092565b6000806000838503610400811215614345578182fd5b60a0811215614352578182fd5b5060405160a0810167ffffffffffffffff828210818311171561437157fe5b816040528651915064ffffffffff8216821461438b578384fd5b81835261439a60208801613f63565b60208401526143ab604088016141c6565b60408401526143bc606088016141bb565b60608401526143cd60808801613f4b565b60808401528295506143e28860a089016140db565b94506103e08701519250808311156143f8578384fd5b505061440686828701613e5e565b9150509250925092565b600060208284031215614421578081fd5b5051919050565b6001600160a01b0391909116815260200190565b6001600160a01b039384168152919092166020820152604081019190915260600190565b6001600160a01b0393909316835261ffff918216602084015216604082015260600190565b6001600160a01b03929092168252602082015260400190565b90815260200190565b918252602082015260400190565b9283526020830191909152604082015260600190565b6020808252600d908201526c139bc81b1bd8d85b081919589d609a1b604082015260600190565b60208082526006908201526552656465656d60d01b604082015260600190565b6020808252600d908201526c092dcecc2d8d2c840d2dcc8caf609b1b604082015260600190565b6020808252600e908201526d125b9d985b1a59081b585c9ad95d60921b604082015260600190565b60208082526007908201526609cde40c6c2e6d60cb1b604082015260600190565b602080825260059082015264045524332360dc1b604082015260600190565b6020808252600d908201526c139bc818dbdb1b185d195c985b609a1b604082015260600190565b6020808252600e908201526d1499595b9d1c985b9d0818d85b1b60921b604082015260600190565b60208082526008908201526709ccace4086c2e6d60c31b604082015260600190565b6020808252600a90820152692732b390372a37b5b2b760b11b604082015260600190565b61ffff929092168252602082015260400190565b61ffff958616815293909416602084015260408301919091526060820152608081019190915260a00190565b60405181810167ffffffffffffffff8111828210171561469257fe5b604052919050565b6001600160a01b03811681146146af57600080fd5b50565b80151581146146af57600080fd5b61ffff811681146146af57600080fdfe536166654d6174683a206d756c7469706c69636174696f6e206f766572666c6f77a2646970667358221220cb8144a72318969ff90db018d5161ce91f674363d41c470db44eee16e72a9ed564736f6c63430007060033","bytecodeSha1":"eca6a8e9b54e0df2ffe224561d3cab86cb498ac4","compiler":{"evm_version":"istanbul","optimizer":{"enabled":true,"runs":200},"version":"0.7.6+commit.7338295f"},"contractName":"LiquidateCurrencyAction","deployedBytecode":"608060405234801561001057600080fd5b506004361061007d5760003560e01c8063824633671161005b57806382463367146100e35780638da5cb5b146100eb5780639a600eeb146100f3578063e3e7cb4f146101065761007d565b806324a3d622146100825780632d10e6eb146100a05780636633af39146100c1575b600080fd5b61008a610119565b6040516100979190614428565b60405180910390f35b6100b36100ae3660046142e9565b610128565b6040516100979291906144a7565b6100d46100cf366004614258565b610218565b604051610097939291906144b5565b61008a6102c8565b61008a6102d7565b6100d46101013660046141ee565b6102ee565b6100b36101143660046142e9565b610335565b6002546001600160a01b031681565b6000806002600a5414156101575760405162461bcd60e51b815260040161014e906145c8565b60405180910390fd5b6002600a55600080808061016d8989898461036b565b9350935093509350600061018f338a8761018a8860a001516103e2565b6103f8565b905061019b81336104d2565b6101a78a8584866105d6565b336001600160a01b03168a6001600160a01b03167f4596c3b6545e97eb42b719442dd0afa8eb7680f3ff72c762763d4b292ee26ea78b886040516101ec929190614636565b60405180910390a3846102028560a001516103e2565b6001600a55909b909a5098505050505050505050565b60008060006002600a5414156102405760405162461bcd60e51b815260040161014e906145c8565b6002600a5560008080806102588e8e8e8e8e86610625565b935093509350935061026e8d8d86868d8d6106a8565b61027a8e8e86866106f0565b6102868e8e8387610761565b6102928e8483856105d6565b8361029c84610791565b6102a98560a001516103e2565b965096509650505050506001600a819055509750975097945050505050565b6001546001600160a01b031681565b60005464010000000090046001600160a01b031681565b60008060008060006103058a8a8a8a8a6001610625565b5050915091508161031582610791565b6103228360a001516103e2565b9450945094505050955095509592505050565b600080600080610348878787600161036b565b5050915091508161035c8260a001516103e2565b9350935050505b935093915050565b6000610375613ba5565b61037d613bf5565b610385613c1d565b60008060006103968b8b60006107ae565b9250925092506103a4613ba5565b6103b0818d8d87610923565b88151561014084015260006103cd61ffff8d168c428588886109c9565b9d919c50919a50929850919650505050505050565b60006103f060001983610b5d565b90505b919050565b610400613c1d565b600061040f8561ffff16610bb1565b9050600061041c87610bc4565b9050610426613ba5565b61043281898985610923565b826020015180156104435750600086135b156104975785816020015112158015610468575060208201516001600160f81b031916155b6104845760405162461bcd60e51b815260040161014e90614561565b61048d866103e2565b60608201526104af565b6104ad886104a58589610c65565b859190610ca4565b505b60a081018590526104c38189846000610d48565b5090925050505b949350505050565b60006104dc610fb3565b6001600160a01b03831660008181526020838152604080832088518154938a0151838b015160608c015160808d015160701c600160481b027affffffffffffffffffffffffffffffffffff0000000000000000001961ffff909216600160381b0268ffff000000000000001960ff94909416600160301b0266ff0000000000001960f89690961c650100000000000265ff00000000001964ffffffffff90981664ffffffffff19909b169a909a1796909616989098179390931693909317169490941716929092179091555192935090917f6bd4b121bca854a191536a2ca891155c42ee2fb23f307fb34e8bc65cfcb5412e9190a2505050565b608083018051600091829052906105f290859087908690610d48565b506105fc83610fc0565b61060d5761060d8386846001610fcd565b61061783866104d2565b608090930192909252505050565b600061062f613ba5565b610637613bf5565b61063f613c1d565b426000808061064f8e8e8e6107ae565b92509250925061065d613ba5565b6106748f8e8684610923909392919063ffffffff16565b891515610140840152600061068d8d8d888588886110af565b99509097509095509193505050509650965096509692505050565b60006106b733888760006103f8565b90506106dc3382886106c888610791565b6106d58960a001516103e2565b8888611224565b506106e781336104d2565b50505050505050565b336001600160a01b0316846001600160a01b03167f88fff2f00941b1272999212de454ee8d15f54d132723b35e3423ef742109861c8584600001518661073587610791565b6107428860a001516103e2565b60405161075395949392919061464a565b60405180910390a350505050565b610769613ba5565b61077581868686610923565b606081018290526107898186856000610d48565b505050505050565b60006103f082608001516107a884606001516103e2565b9061127d565b6107b6613c1d565b6107be613c4b565b6107c6613bf5565b336001600160a01b03871614156107dc57600080fd5b61ffff85166107ea57600080fd5b8461ffff168461ffff1614156107ff57600080fd5b600080600073__$841fddfe32830bb6dbc3a02d7f16c53722$__63451d958f8a8a8a6040518463ffffffff1660e01b815260040161083f93929190614460565b60006040518083038186803b15801561085757600080fd5b505af415801561086b573d6000803e3d6000fd5b505050506040513d6000823e601f3d908101601f19168201604052610893919081019061432f565b92509250925060006040518060800160405280838152602001600067ffffffffffffffff811180156108c457600080fd5b506040519080825280602002602001820160405280156108fe57816020015b6108eb613cd0565b8152602001906001900390816108e35790505b5081526000602082015292516040909301929092525091989097509095509350505050565b8161ffff16600010801561093d5750613fff61ffff831611155b61094657600080fd5b61ffff8216808552610959908290611293565b156109865761096c838361ffff1661131d565b61010088015260e0870152604086015260208501526109a4565b6000602085018190526040850181905260e085018190526101008501525b50506000606083018190526080830181905260a0830181905260c09092019190915250565b60008260400151600014156109dd57600080fd5b6000610a056109f9856040015186602001518760c001516113a6565b610100860151906113f5565b9050610a0f613d10565b610a1b84868985611420565b6060820151909350909150610a2f906103e2565b9250610a4c8160600151826080015161166790919063ffffffff16565b606087015250608084015160001215610b525760a0840151600090600381901a90821a11610a7957600080fd5b60a08501516080860151600382901a60009290921a9190910360ff1690610acd90610aa49083610b5d565b60a088015160408a0151610ac79160031a90610ac1908890610b5d565b90610b5d565b9061167d565b915050610ae88187604001518a6001600160601b03166116ae565b9050610af3816103e2565b60a0878101919091526040870151908601516080870151600092610b2c929091610ac791600381901a918391610ac1908990891a610b5d565b6060880151909150610b3e908261127d565b6060880152610b4d848261127d565b935050505b509695505050505050565b818102600019831415610b8d57811580610b7f575082828281610b7c57fe5b05145b610b8857600080fd5b610bab565b821580610ba2575081838281610b9f57fe5b05145b610bab57600080fd5b92915050565b610bb9613d46565b6103f08260006116f8565b610bcc613c1d565b6000610bd6610fb3565b6001600160a01b039390931660009081526020938452604090819020815160a081018352905464ffffffffff8116825265010000000000810460f81b6001600160f81b03191695820195909552600160301b850460ff1691810191909152600160381b840461ffff166060820152600160481b90930460701b6001600160701b03191660808401525090919050565b60006305f5e10083604001511415610c7e575080610bab565b610c9d6305f5e100610ac7856040015185610b5d90919063ffffffff16565b9392505050565b600080821315610cc057610cb98484846117a6565b9150610d41565b600384606001516004811115610cd257fe5b1415610d2c576000821315610ce657600080fd5b826001600160a01b0381166108fc610cfd856103e2565b6040518115909202916000818181858888f19350505050158015610d25573d6000803e3d6000fd5b5050610d41565b8351610d419084610d3c856103e2565b611948565b5092915050565b60008060008660a001511215610d9b576000610d7d8760a001516107a88960c001518a6040015161127d90919063ffffffff16565b1215610d9b5760405162461bcd60e51b815260040161014e90614612565b600086608001511215610deb576000610dcd87608001516107a889606001518a6020015161127d90919063ffffffff16565b1215610deb5760405162461bcd60e51b815260040161014e906145f0565b610df68686856119b5565b608088018190526060880151919350600091610e119161127d565b90508015610e7e576020870151610e28908261127d565b602088015286516040516001935061ffff909116906001600160a01b038816907f5441e4a5fac93a951d782e6f1cdb82e95c8fc58561a013953d17e395c5e69b4b90610e7590859061449e565b60405180910390a35b60a0870151151580610e93575060c087015115155b15610f2957610ea28787611a89565b50610ec68760c001516107a88960a001518a6040015161127d90919063ffffffff16565b604088015260c087015115610f2457866000015161ffff16866001600160a01b03167f412bc13d202a2ea5119e55fec9c5e420dddb18faf186373ad9795ad4f4545aa98960c00151604051610f1b919061449e565b60405180910390a35b600191505b8115610f5657610f5686886000015161ffff1689602001518a604001518b60e001518c6101000151611afa565b86516020880151610f839161ffff1690151580610f765750604089015115155b879190600160fe1b611c10565b600087602001511215610fa957602085018051600160f91b176001600160f81b03191690525b5050949350505050565b600080610bab6001611e10565b6060015161ffff16151590565b6000808080610fdc8688611e29565b64ffffffffff81168c5292965090945092509050610ff988612068565b1561100357600080fd5b60ff821660408901528461102257600760ff8316111561102257600080fd5b831561104557602088018051600160f81b176001600160f81b0319169052611054565b602088018051607f60f91b1690525b61106188608001516120bc565b6001600160701b031916608089015260005b83156110a45760f084901c818114611096576110968a826001600160ff1b611c10565b60109490941b939050611073565b505050505050505050565b6000808360400151126110d45760405162461bcd60e51b815260040161014e906144cb565b60008360600151136110f85760405162461bcd60e51b815260040161014e906145a1565b6000806000611110868b6001600160801b0316612137565b925092509250600083905060008860200151131561116e57808860200151126111495761113c816103e2565b606089015250600061116e565b61115688602001516103e2565b6060890152602088015161116b9082906121e2565b90505b600081131561119957600061118587898c856121fe565b90506111918282611667565b60808a015290505b6000811380156111ad575060008760800151135b156111ca576111c78888838d6001600160601b031661239f565b90505b60008113156112135760006111df8583611667565b905060006111ff828a61012001516040015161245d90919063ffffffff16565b905061120d89858385612488565b95505050505b5090925050505b9695505050505050565b61122c613c1d565b611234613ba5565b611240818a898b610923565b60608101869052831561125c57611256866103e2565b60808201525b60a0810185905261126f818a8a86610d48565b509698975050505050505050565b81810182811215600083121514610bab57600080fd5b600081158015906112a65750613fff8211155b6112af57600080fd5b6080830151606084015161ffff168314156112ce576001915050610bab565b6001600160701b03198116156113135760f081901c613fff16838114156113005750600160fe1b908116149050610bab565b5060101b6001600160801b0319166112ce565b5060009392505050565b600080600080600061132d612515565b6001600160a01b0388166000908152602082815260408083208a8452909152902080546001600160501b0381169650600160501b810463ffffffff1695509192509061138890600160701b900466ffffffffffffff16612522565b9054600160a81b9004600a90810b900b989497509295509193505050565b600080600085136113bb5782604001516113c1565b82606001515b9050600081136113d057600080fd5b6113ec81610ac76064610ac16113e5896103e2565b8890612530565b95945050505050565b6000806104ca8460200151610ac78660400151610ac16402540be40088610b5d90919063ffffffff16565b611428613d10565b600085602001515160001461143c57600080fd5b611444613d75565b61144c613d10565b8751515b600019810190156116595760008960000151828151811061146d57fe5b6020026020010151905061148e818a61012001516000015161ffff16612552565b6114985750611654565b6114a9818a6101200151868b61258e565b602085015260408085018290528201516114c4918b916125c2565b60a0850181905281855288916114d9916121e2565b1361151e576114e88a8361261a565b88610140015161150557606081015161150290859061276a565b50505b60a0830151835161151591611667565b870396506115f1565b60a0830151835160009161154491611535916121e2565b6060840151610ac7908b610b5d565b90508961014001516115695761155a858261276a565b602086015260408501526115b6565b6115888560800151610ac7838860600151610b5d90919063ffffffff16565b8460400181815250506115b08560800151610ac7838860400151610b5d90919063ffffffff16565b60208501525b6115c98a856040015184604001516125c2565b60a0860152845260608201516115df90826121e2565b606083015250600160a0820152600096505b60a083015160608401516116049161127d565b60608401526040830151608084015161161c9161127d565b60808401526101208901515160208083015190850151611647928d9261ffff90911691600190612819565b866116525750611659565b505b611450565b509793965092945050505050565b80820382811315600083121514610bab57600080fd5b6000816000191480156116935750600160ff1b83145b1561169d57600080fd5b8183816116a657fe5b059392505050565b6000806116c16064610ac7866028610b5d565b905084848113156116cf5750835b818612156116da5750805b6000841380156116e957508381135b156113ec575091949350505050565b611700613d46565b600061170a61291e565b6000858152602082815260408083208715158452825291829020825160a08101845281546001600160a01b038116825260ff600160a01b82048116151594830194909452600160b01b81048416600a0a9482019490945293945092916060830191600160a81b90910416600481111561177f57fe5b81529154600160b81b900468ffffffffffffffffff16602090920191909152949350505050565b60008060008560200151156118375785516040516370a0823160e01b81526001600160a01b03909116906370a08231906117e4903090600401614428565b60206040518083038186803b1580156117fc57600080fd5b505afa158015611810573d6000803e3d6000fd5b505050506040513d601f19601f820116820180604052508101906118349190614410565b91505b855161184490868661292b565b856020015180611858575060008660800151115b156118df5785516040516370a0823160e01b81526001600160a01b03909116906370a082319061188c903090600401614428565b60206040518083038186803b1580156118a457600080fd5b505afa1580156118b8573d6000803e3d6000fd5b505050506040513d601f19601f820116820180604052508101906118dc9190614410565b90505b60808601511561191a5760006118fd876118f88461295b565b612975565b905061190c876080015161295b565b81131561191857600080fd5b505b85602001511561193f5761193661193182846129a5565b61295b565b92505050610c9d565b6119368461295b565b60405163a9059cbb60e01b81526001600160a01b0384169063a9059cbb906119769085908590600401614485565b600060405180830381600087803b15801561199057600080fd5b505af11580156119a4573d6000803e3d6000fd5b505050506119b0612a02565b505050565b60008060006119cb866000015161ffff16610bb1565b905060006119e6876080015183610c6590919063ffffffff16565b9050806119fb57600080935093505050610363565b848015611a085750600081125b15611a65576000611a20886000015161ffff16612a52565b90506000611a3982611a31856103e2565b869190612a65565b9050611a5088611a48836103e2565b849190610ca4565b9550611a5c8484612975565b94505050611a7f565b611a70828783610ca4565b9350611a7c8285612975565b92505b5050935093915050565b815160009042908290611a9f9061ffff16612c7e565b90506000611ab2828760c0015185612ca4565b90506000611ad983611ac78960400151612d86565b8960e001518a61010001518887612d95565b60e0880185905261010088018390529050801561121a5761121a8682612e3c565b6000611b04612515565b6001600160a01b0388166000908152602082815260408083208a845290915290209091506001600160571b03198612801590611b4757506001600160571b038613155b611b5057600080fd5b60008512158015611b6857506001600160501b038513155b611b7157600080fd5b63ffffffff841115611b8257600080fd5b805469ffffffffffffffffffff19166001600160501b0386161763ffffffff60501b1916600160501b63ffffffff861602176001600160a81b0316600160a81b6affffffffffffffffffffff600a89900b1602178155611be183612e5b565b815466ffffffffffffff91909116600160701b0266ffffffffffffff60701b1990911617905550505050505050565b826000108015611c225750613fff8311155b611c2b57600080fd5b818015611c3f575082846060015161ffff16145b15611c4957611e0a565b6080840151600090815b6001600160701b0319821615611dc45760f082901c613fff168681148015611c785750855b15611cb057506080870180516001600160f01b0319861660109093029290921c919091176001600160701b031916905250611e0a9050565b8681148015611cbd575085155b15611d12576001600160f01b03198516199290921691600360fe1b8316611cf0576010836001600160701b031916901b92505b506001600160701b031991821660109091021c91909117166080850152611e0a565b8681118015611d1e5750855b15611d78576080888101516001600160f01b031960f08a901b88178116601086021c9690961795911b1615611d5257600080fd5b506001600160701b03199182166001919091016010021c91909117166080850152611e0a565b8681118015611d85575085155b15611d935750505050611e0a565b506001600160f01b0319821660108281029190911c93909317929190911b6001600160801b03191690600101611c53565b84611dd157505050611e0a565b60098110611dde57600080fd5b6001600160f01b031960f087901b85171660109091021c919091176001600160701b0319166080860152505b50505050565b6000620f4240826010811115611e2257fe5b0192915050565b6000808080808080805b895151811015611eba5760008a600001518281518110611e4f57fe5b60200260200101519050600380811115611e6557fe5b8160a001516003811115611e7557fe5b1415611e8057600080fd5b60028160a001516003811115611e9257fe5b14158015611ea257506060810151155b15611eb157611eb18b8361261a565b50600101611e33565b5060005b895151811015611f5d5760008a600001518281518110611eda57fe5b6020026020010151905060026003811115611ef157fe5b8160a001516003811115611f0157fe5b1415611f1557608081015160009055611f54565b60018160a001516003811115611f2757fe5b1415611f4057608081015180611f3d8382612e89565b50505b611f4c81868686612fb2565b919650945092505b50600101611ebe565b5060608901516000611f6d613015565b6001600160a01b038b1660009081526020829052604081209192505b8c60200151518110156120375760008d602001518281518110611fa857fe5b60200260200101519050806060015160001415611fc5575061202f565b60028160a001516003811115611fd757fe5b14158015611ff5575060038160a001516003811115611ff257fe5b14155b611ffe57600080fd5b61200a81898989612fb2565b919950975095506120278184876010811061202157fe5b01612e89565b600185019450505b600101611f89565b506010831115801561204e575064ffffffffff8411155b61205757600080fd5b50939a929950975095509350505050565b60004261207483610fc0565b156120955761208281613022565b835164ffffffffff161091506103f39050565b825164ffffffffff16158015906120b45750825164ffffffffff168110155b9150506103f3565b6000807f7fff7fff7fff7fff7fff7fff7fff7fff7fff00000000000000000000000000008316815b6001600160701b031982161561212e57600160fe1b8281161415612118576001600160f01b03198216811c92909217916010015b6010826001600160701b031916901b91506120e4565b50909392505050565b60008060008061214686613043565b809350819250505060006121828760e001516060015161217c85610ac760648c60c0015160400151610b5d90919063ffffffff16565b90611667565b905061219381610ac7846064610b5d565b9450506121a5848760600151876116ae565b935060006121c5858861012001516040015161245d90919063ffffffff16565b90506121d387848388612488565b909550935050505b9250925092565b60006121ee8383611667565b90506000811215610bab57600080fd5b600084602001515160001461221257600080fd5b61221a613d75565b8551515b600019810190156123945760008760000151828151811061223b57fe5b6020026020010151905061225c818861012001516000015161ffff16612552565b612266575061238f565b60008061227a838a6101200151878b61258e565b915091508682136122b65761228f8a8561261a565b8861014001516122ac5760608301516122a990869061276a565b50505b8187039650612357565b60006122d383610ac78a8760600151610b5d90919063ffffffff16565b90508961014001516122f3576122e9868261276a565b9093509150612336565b6123128660800151610ac7838960600151610b5d90919063ffffffff16565b92506123338660800151610ac7838960400151610b5d90919063ffffffff16565b91505b606084015161234590826121e2565b606085015250600160a0840152600096505b610120890151516020840151612378918c9161ffff90911690600185612819565b8661238b576000955050505050506104ca565b5050505b61221e565b509195945050505050565b60a0830151608084015160009180831a9160039190911a9083906123e2906123c79085610b5d565b610ac784610ac18c604001518b610b5d90919063ffffffff16565b90506000851380156123f357508481135b156123fb5750835b876040015181131561240e575060408701515b612417816103e2565b8860a001818152505061245161244a8960400151610ac785610ac788610ac18e6080015189610b5d90919063ffffffff16565b87906121e2565b98975050505050505050565b6000806104ca8460400151610ac76402540be400610ac7878960200151610b5d90919063ffffffff16565b60008060006124bb86610ac76124a68a60c001518b60e00151613097565b60c08b015151610ac790610ac18b6064610b5d565b905060006124d7828961010001516113f590919063ffffffff16565b905060006124e889604001516103e2565b9050808213156125065761250082610ac78884610b5d565b95508091505b50939793965092945050505050565b600080610bab6006611e10565b600881901c60ff9091161b90565b6000806104ca8460200151610ac7866000015186610b5d90919063ffffffff16565b81516000908214801561256d575061256d83604001516130bc565b8015610c9d575060008360a00151600381111561258657fe5b149392505050565b60408401516000908190600019016125aa8686836001886130d2565b6125b48786613145565b909890975095505050505050565b60008060006125df848761012001516131c090919063ffffffff16565b60ff1690506125fd6064610ac76125f68285611667565b8890610b5d565b925061260f6064610ac785601e610b5d565b915050935093915050565b815151811061262857600080fd5b600082606001511161263957600080fd5b60008260000151828151811061264b57fe5b602002602001015190506002600381111561266257fe5b8160a00151600381111561267257fe5b14158015612690575060038160a00151600381111561268d57fe5b14155b61269957600080fd5b606083018051600019019052600080805b85515181101561270c576000866000015182815181106126c657fe5b602002602001015190508281608001511180156126f3575060028160a0015160038111156126f057fe5b14155b1561270357806080015192508193505b506001016126aa565b5081841415612725575050600260a09190910152612766565b60008560000151838151811061273757fe5b602090810291909101015160808581018051918301805190915252600160a09182015260029401939093525050505b5050565b6000808261277d57506000905080612812565b6000831361278a57600080fd5b6127a98460800151610ac7858760600151610b5d90919063ffffffff16565b91506127ca8460800151610ac7858760400151610b5d90919063ffffffff16565b60808501519091506127dc90846121e2565b608085015260408401516127f090826121e2565b6040850152606084015161280490836121e2565b6060850152612812846131f5565b9250929050565b8451612828908585858561324d565b1561283257612917565b60408501511561285f57600061284f86602001518686868661324d565b9050801561285d5750612917565b505b612868826130bc565b1561287b57600081121561287b57600080fd5b6001600160571b0319811280159061289a57506001600160571b038113155b6128a357600080fd5b846020015151856040015114156128c7576128c1856020015161335e565b60208601525b600085602001518660400151815181106128dd57fe5b602090810291909101810151868152908101859052604080820185905260608201849052600060a090920191909152860180516001019052505b5050505050565b600080610bab6007611e10565b6040516323b872dd60e01b81526001600160a01b038416906323b872dd906119769085903090869060040161443c565b60006001600160ff1b0382111561297157600080fd5b5090565b60006305f5e1008360400151141561298e575080610bab565b6040830151610c9d90610ac7846305f5e100610b5d565b6000828211156129fc576040805162461bcd60e51b815260206004820152601e60248201527f536166654d6174683a207375627472616374696f6e206f766572666c6f770000604482015290519081900360640190fd5b50900390565b6000612a0c613dbd565b3d8015612a205760208114612a2957600080fd5b60019250612a34565b60206000833e815192505b50816127665760405162461bcd60e51b815260040161014e90614582565b612a5a613d46565b6103f08260016116f8565b600080600285606001516004811115612a7a57fe5b1415612a87575047612b21565b600185606001516004811115612a9957fe5b141561007d5783516040516370a0823160e01b81526001600160a01b03909116906370a0823190612ace903090600401614428565b60206040518083038186803b158015612ae657600080fd5b505afa158015612afa573d6000803e3d6000fd5b505050506040513d601f19601f82011682018060405250810190612b1e9190614410565b90505b845160405163db006a7560e01b81526000916001600160a01b03169063db006a7590612b5190879060040161449e565b602060405180830381600087803b158015612b6b57600080fd5b505af1158015612b7f573d6000803e3d6000fd5b505050506040513d601f19601f82011682018060405250810190612ba39190614410565b90508015612bc35760405162461bcd60e51b815260040161014e906144f2565b6000600287606001516004811115612bd757fe5b1415612be4575047612c66565b85516040516370a0823160e01b81526001600160a01b03909116906370a0823190612c13903090600401614428565b60206040518083038186803b158015612c2b57600080fd5b505afa158015612c3f573d6000803e3d6000fd5b505050506040513d601f19601f82011682018060405250810190612c639190614410565b90505b612c7361193182856129a5565b979650505050505050565b600080612c89613417565b6000938452602052505060409020546001600160a01b031690565b6000806000612cb38685613424565b5091509150846000146113ec576000612ccc838761127d565b905060008112158015612ce557506001600160601b0381105b612cee57600080fd5b6000612cf8613489565b6001600160a01b0398909816600090815260209890985250604090962080546bffffffffffffffffffffffff19166001600160601b0397909716969096176fffffffffffffffffffffffffffffffff60601b1916600160601b6001600160801b03831602176001600160e01b0316600160e01b63ffffffff9590951694909402939093179094555092915050565b60008082121561297157600080fd5b6000841580612da45750828510155b15612db15750600061121a565b6000612dbc88613496565b50919350505086850390506000612de082612ddb856305f5e1006134ff565b613558565b90506000612df883612df2888b6129a5565b9061357d565b905080612e0c57600094505050505061121a565b6000612e1c82612df28d866134ff565b9050612e2c816305f5e10061357d565b9c9b505050505050505050505050565b61276673cfeaead4947f0705a14ec42ac3d44129e1ef3ed58383611948565b60008065ffffffffffff831115612e7b57602f612e77846135e4565b0390505b82811c60081b179050919050565b815115801590612e9c57508151613fff10155b612ea557600080fd5b81602001516000108015612ec25750602082015164ffffffffff10155b612ecb57600080fd5b81604001516000108015612ee457506040820151600810155b612eed57600080fd5b60608201516001600160571b031913801590612f14575060608201516001600160571b0312155b612f1d57600080fd5b8151815460208401516040850151606090950151600a0b6affffffffffffffffffffff16600160401b0272ffffffffffffffffffffff00000000000000001960ff909616600160381b0267ff000000000000001964ffffffffff909316620100000266ffffffffff00001961ffff90961661ffff19909516949094179490941692909217169190911792909216919091179055565b600080600080612fc18861367d565b9050841580612fcf57508085115b15612fd8578094505b8680612fe8575060008860600151125b965061ffff861615612ff957600080fd5b50509451939560109390931c60f09490941b9390931793509150565b600080610bab600d611e10565b60006201518082101561303457600080fd5b62015180825b06909103919050565b60008061307461306461305985602001516103e2565b60e086015190612530565b61012085015160400151906113f5565b91506130908360e00151608001518460c00151608001516136e4565b9050915091565b6000610c9d8260200151610ac784600001518660200151610b5d90919063ffffffff16565b6000600282108015906103f05750506008101590565b826001111580156130e7575084602001518311155b6131035760405162461bcd60e51b815260040161014e90614539565b6000613120613111856136fa565b61311a8461379e565b906137ba565b9050610789866000015161ffff1682848661313a8b613814565b8a9493929190613828565b60008061315584604001516130bc565b801561316657506000846060015112155b61316f57600080fd5b6131928360800151610ac786606001518660600151610b5d90919063ffffffff16565b91506131b78360800151610ac786606001518660400151610b5d90919063ffffffff16565b90509250929050565b6000600282108015906131d4575060088211155b6131dd57600080fd5b50606082015160486008600119840102011c92915050565b600061320082613849565b905060008160000160189054906101000a900463ffffffff16905061323f82846040015185606001518660a001518563ffffffff168860e0015161384d565b6119b0828460800151613961565b6000805b865181101561335157600087828151811061326857fe5b60200260200101519050848160400151141580613286575080518714155b80613295575085816020015114155b156132a05750613349565b60028160a0015160038111156132b257fe5b141580156132d0575060038160a0015160038111156132cd57fe5b14155b6132d957600080fd5b60608101516000906132eb908661127d565b90506132f6866130bc565b1561330957600081121561330957600080fd5b6001600160571b0319811280159061332857506001600160571b038113155b61333157600080fd5b6060820152600160a090910181905291506113ec9050565b600101613251565b5060009695505050505050565b606060008251600014613375578251600202613378565b60015b905060008167ffffffffffffffff8111801561339357600080fd5b506040519080825280602002602001820160405280156133cd57816020015b6133ba613cd0565b8152602001906001900390816133b25790505b50905060005b845181101561340f578481815181106133e857fe5b60200260200101518282815181106133fc57fe5b60209081029190910101526001016133d3565b509392505050565b600080610bab6003611e10565b6000806000613432856139aa565b91945092509050806134415750825b8084101561344e57600080fd5b61346461345d84838703610b5d565b839061127d565b91506001600160801b03821061347957600080fd5b63ffffffff84106121db57600080fd5b600080610bab600e611e10565b6000806000806000806134a7613a06565b6001600160a01b039097166000908152602097909752505060409094205461ffff81169563ffffffff62010000830481169650600160301b830416945060ff600160501b8304169350600160581b90910460d81b9150565b60008261350e57506000610bab565b8282028284828161351b57fe5b0414610c9d5760405162461bcd60e51b81526004018080602001828103825260218152602001806146d16021913960400191505060405180910390fd5b6000806135716301da9c00612df2866305f5e1006134ff565b90506104ca81846134ff565b60008082116135d3576040805162461bcd60e51b815260206004820152601a60248201527f536166654d6174683a206469766973696f6e206279207a65726f000000000000604482015290519081900360640190fd5b8183816135dc57fe5b049392505050565b6000816135f057600080fd5b600160801b821061360357608091821c91015b600160401b821061361657604091821c91015b640100000000821061362a57602091821c91015b62010000821061363c57601091821c91015b610100821061364d57600891821c91015b6010821061365d57600491821c91015b6004821061366d57600291821c91015b600282106103f357600101919050565b600080826040015111801561369757506040820151600810155b6136a057600080fd5b60408201516002106136b7575060208101516103f3565b60006136c960018460400151036136fa565b6020840151909150610c9d906276a7009061311a90846129a5565b60008183136136f35781610c9d565b5090919050565b6000816001141561370f57506276a7006103f3565b8160021415613722575062ed4e006103f3565b816003141561373657506301da9c006103f3565b816004141561374a57506303b538006103f3565b816005141561375e57506309450c006103f3565b8160061415613772575063128a18006103f3565b8160071415613786575063251430006103f3565b60405162461bcd60e51b815260040161014e90614512565b60006276a7008210156137b057600080fd5b6276a7008261303a565b600082820183811015610c9d576040805162461bcd60e51b815260206004820152601b60248201527f536166654d6174683a206164646974696f6e206f766572666c6f770000000000604482015290519081900360640190fd5b6060015161012c60089190911c60ff160290565b60006276a7006138378561379e565b0190506106e787878787878787613a13565b5190565b6000851215801561386557506001600160501b038513155b61386e57600080fd5b6000841215801561388657506001600160501b038413155b61388f57600080fd5b8260001080156138a3575063ffffffff8311155b6138ac57600080fd5b8160001080156138c0575063ffffffff8211155b6138c957600080fd5b63ffffffff8111156138da57600080fd5b855469ffffffffffffffffffff19166001600160501b039586161769ffffffffffffffffffff60501b1916600160501b94909516939093029390931763ffffffff60a01b1916600160a01b63ffffffff928316021763ffffffff60c01b1916600160c01b93821693909302929092176001600160e01b0316600160e01b9190921602179055565b6000811215801561397957506001600160501b038113155b61398257600080fd5b600191909101805469ffffffffffffffffffff19166001600160501b03909216919091179055565b6000806000806139b8613489565b6001600160a01b0395909516600090815260209590955250506040909220546001600160601b03811693600160601b82046001600160801b03169350600160e01b90910463ffffffff169150565b600080610bab6002611e10565b613a208787878685613a4a565b613a398760e001518860a001518960c001518588613b05565b60c090970196909652505050505050565b6000613a54613b98565b6000868152602082815260408083208884528252808320868452825291829020808a5290890187905280546001600160501b03808216938b0193909352600160501b810490921660608a015263ffffffff600160a01b8304811660a08b0152600160c01b8304811660c08b0152600160e01b90920490911660e0890152909150808415613af35760018201546001600160501b03166080890152613afb565b600060808901525b5050505050505050565b6000808311613b1357600080fd5b81861115613b225750836113ec565b6000613b2e83886129a5565b905083811115613b4157859150506113ec565b6000613b5585612df284633b9aca006134ff565b90506000613b67633b9aca00836129a5565b90506000613b8a633b9aca00612df2613b808b866134ff565b61311a8d886134ff565b9a9950505050505050505050565b600080610bab600a611e10565b604051806101200160405280600061ffff16815260200160008152602001600081526020016000815260200160008152602001600081526020016000815260200160008152602001600081525090565b6040518060800160405280606081526020016060815260200160008152602001600081525090565b6040805160a08101825260008082526020820181905291810182905260608101829052608081019190915290565b60405180610160016040528060006001600160a01b031681526020016000815260200160008152602001600081526020016000815260200160006001600160d01b0319168152602001613c9c613ddb565b8152602001613ca9613ddb565b8152602001613cb6613e0a565b8152602001613cc3613e34565b8152600060209091015290565b6040518060c00160405280600081526020016000815260200160008152602001600081526020016000815260200160006003811115613d0b57fe5b905290565b6040518060c001604052806000815260200160008152602001600081526020016000815260200160008152602001600081525090565b6040805160a0810182526000808252602082018190529181018290529060608201908152602001600081525090565b60405180610100016040528060008019168152602001600081526020016000815260200160008152602001600081526020016000815260200160008152602001600081525090565b60405180602001604052806001906020820280368337509192915050565b6040518060a0016040528060008152602001600081526020016000815260200160008152602001600081525090565b604051806060016040528060006001600160a01b0316815260200160008152602001600081525090565b6040805160808101825260008082526020820152908101613cc3613e0a565b80516103f38161469a565b600082601f830112613e6e578081fd5b8151602067ffffffffffffffff80831115613e8557fe5b613e928283850201614676565b8381528281019086840160c0808702890186018a1015613eb0578788fd5b875b87811015613f315781838c031215613ec8578889fd5b604080518381018181108982111715613edd57fe5b82528451815288850151898201528482015191810191909152606080850151908201526080808501519082015260a090613f18828601613f93565b9181019190915285529386019391810191600101613eb2565b50919998505050505050505050565b80516103f3816146b2565b80516001600160701b0319811681146103f357600080fd5b80516001600160f81b0319811681146103f357600080fd5b80516001600160d01b0319811681146103f357600080fd5b8051600481106103f357600080fd5b600060608284031215613fb3578081fd5b6040516060810181811067ffffffffffffffff82111715613fd057fe5b80604052508091508251613fe38161469a565b8082525060208301516020820152604083015160408201525092915050565b600060c08284031215614013578081fd5b6040516080810181811067ffffffffffffffff8211171561403057fe5b80604052508091508251614043816146c0565b81526020838101519082015261405c8460408501613fa2565b604082015260a083015160608201525092915050565b600060a08284031215614083578081fd5b60405160a0810181811067ffffffffffffffff821117156140a057fe5b806040525080915082518152602083015160208201526040830151604082015260608301516060820152608083015160808201525092915050565b600061034082840312156140ed578081fd5b6101606140f981614676565b915061410483613e53565b82526020830151602083015260408301516040830152606083015160608301526080830151608083015261413a60a08401613f7b565b60a083015261414c8460c08501614072565b60c083015261415d84828501614072565b60e083015250614171836102008401613fa2565b610100820152614185836102608401614002565b6101208201526141986103208301613f40565b61014082015292915050565b80356001600160801b03811681146103f357600080fd5b80516103f3816146c0565b805160ff811681146103f357600080fd5b80356001600160601b03811681146103f357600080fd5b600080600080600060a08688031215614205578081fd5b85356142108161469a565b94506020860135614220816146c0565b93506040860135614230816146c0565b925061423e606087016141a4565b915061424c608087016141d7565b90509295509295909350565b600080600080600080600060e0888a031215614272578485fd5b873561427d8161469a565b9650602088013561428d816146c0565b9550604088013561429d816146c0565b94506142ab606089016141a4565b93506142b9608089016141d7565b925060a08801356142c9816146b2565b915060c08801356142d9816146b2565b8091505092959891949750929550565b6000806000606084860312156142fd578081fd5b83356143088161469a565b92506020840135614318816146c0565b9150614326604085016141d7565b90509250925092565b6000806000838503610400811215614345578182fd5b60a0811215614352578182fd5b5060405160a0810167ffffffffffffffff828210818311171561437157fe5b816040528651915064ffffffffff8216821461438b578384fd5b81835261439a60208801613f63565b60208401526143ab604088016141c6565b60408401526143bc606088016141bb565b60608401526143cd60808801613f4b565b60808401528295506143e28860a089016140db565b94506103e08701519250808311156143f8578384fd5b505061440686828701613e5e565b9150509250925092565b600060208284031215614421578081fd5b5051919050565b6001600160a01b0391909116815260200190565b6001600160a01b039384168152919092166020820152604081019190915260600190565b6001600160a01b0393909316835261ffff918216602084015216604082015260600190565b6001600160a01b03929092168252602082015260400190565b90815260200190565b918252602082015260400190565b9283526020830191909152604082015260600190565b6020808252600d908201526c139bc81b1bd8d85b081919589d609a1b604082015260600190565b60208082526006908201526552656465656d60d01b604082015260600190565b6020808252600d908201526c092dcecc2d8d2c840d2dcc8caf609b1b604082015260600190565b6020808252600e908201526d125b9d985b1a59081b585c9ad95d60921b604082015260600190565b60208082526007908201526609cde40c6c2e6d60cb1b604082015260600190565b602080825260059082015264045524332360dc1b604082015260600190565b6020808252600d908201526c139bc818dbdb1b185d195c985b609a1b604082015260600190565b6020808252600e908201526d1499595b9d1c985b9d0818d85b1b60921b604082015260600190565b60208082526008908201526709ccace4086c2e6d60c31b604082015260600190565b6020808252600a90820152692732b390372a37b5b2b760b11b604082015260600190565b61ffff929092168252602082015260400190565b61ffff958616815293909416602084015260408301919091526060820152608081019190915260a00190565b60405181810167ffffffffffffffff8111828210171561469257fe5b604052919050565b6001600160a01b03811681146146af57600080fd5b50565b80151581146146af57600080fd5b61ffff811681146146af57600080fdfe536166654d6174683a206d756c7469706c69636174696f6e206f766572666c6f77a2646970667358221220cb8144a72318969ff90db018d5161ce91f674363d41c470db44eee16e72a9ed564736f6c63430007060033","language":"Solidity","natspec":{"kind":"dev","methods":{"calculateCollateralCurrencyLiquidation(address,uint16,uint16,uint128,uint96)":{"notice":"Calculates local and collateral currency transfers for a liquidation. This is a stateful method because it may settle the liquidated account if required. However, it can be called using staticcall off chain to determine the net currency amounts required before liquidating.","params":{"collateralCurrency":"id of the collateral currency","liquidateAccount":"account to liquidate","localCurrency":"id of the local currency","maxCollateralLiquidation":"maximum amount of collateral (inclusive of cash and nTokens) to liquidate","maxNTokenLiquidation":"maximum amount of nTokens to purchase (if any)"},"returns":{"_0":"local currency required from liquidator (negative)","_1":"collateral asset cash paid to liquidator (positive)","_2":"collateral nTokens paid to liquidator (positive)"}},"calculateLocalCurrencyLiquidation(address,uint16,uint96)":{"notice":"Calculates the net local currency required by the liquidator. This is a stateful method because it may settle the liquidated account if required. However, it can be called using staticcall off chain to determine the net local currency required before liquidating.","params":{"liquidateAccount":"account to liquidate","localCurrency":"id of the local currency","maxNTokenLiquidation":"maximum amount of nTokens to purchase (if any)"},"returns":{"_0":"local currency required from liquidator (positive or negative)","_1":"local nTokens paid to liquidator (positive)"}},"liquidateCollateralCurrency(address,uint16,uint16,uint128,uint96,bool,bool)":{"notice":"Liquidates an account between local and collateral currency","params":{"collateralCurrency":"id of the collateral currency","liquidateAccount":"account to liquidate","localCurrency":"id of the local currency","maxCollateralLiquidation":"maximum amount of collateral (inclusive of cash and nTokens) to liquidate","maxNTokenLiquidation":"maximum amount of nTokens to purchase (if any)","redeemToUnderlying":"if true, converts collateral cash from asset cash to underlying","withdrawCollateral":"if true, withdraws collateral cash back to msg.sender"},"returns":{"_0":"local currency required from liquidator (negative)","_1":"collateral asset cash paid to liquidator (positive)","_2":"collateral nTokens paid to liquidator (positive)"}},"liquidateLocalCurrency(address,uint16,uint96)":{"notice":"Liquidates an account using local currency only","params":{"liquidateAccount":"account to liquidate","localCurrency":"id of the local currency","maxNTokenLiquidation":"maximum amount of nTokens to purchase (if any)"},"returns":{"_0":"local currency required from liquidator (positive or negative)","_1":"local nTokens paid to liquidator (positive)"}}},"version":1},"opcodes":"PUSH1 0x80 PUSH1 0x40 MSTORE CALLVALUE DUP1 ISZERO PUSH2 0x10 JUMPI PUSH1 0x0 DUP1 REVERT JUMPDEST POP PUSH1 0x4 CALLDATASIZE LT PUSH2 0x7D JUMPI PUSH1 0x0 CALLDATALOAD PUSH1 0xE0 SHR DUP1 PUSH4 0x82463367 GT PUSH2 0x5B JUMPI DUP1 PUSH4 0x82463367 EQ PUSH2 0xE3 JUMPI DUP1 PUSH4 0x8DA5CB5B EQ PUSH2 0xEB JUMPI DUP1 PUSH4 0x9A600EEB EQ PUSH2 0xF3 JUMPI DUP1 PUSH4 0xE3E7CB4F EQ PUSH2 0x106 JUMPI PUSH2 0x7D JUMP JUMPDEST DUP1 PUSH4 0x24A3D622 EQ PUSH2 0x82 JUMPI DUP1 PUSH4 0x2D10E6EB EQ PUSH2 0xA0 JUMPI DUP1 PUSH4 0x6633AF39 EQ PUSH2 0xC1 JUMPI JUMPDEST PUSH1 0x0 DUP1 REVERT JUMPDEST PUSH2 0x8A PUSH2 0x119 JUMP JUMPDEST PUSH1 0x40 MLOAD PUSH2 0x97 SWAP2 SWAP1 PUSH2 0x4428 JUMP JUMPDEST PUSH1 0x40 MLOAD DUP1 SWAP2 SUB SWAP1 RETURN JUMPDEST PUSH2 0xB3 PUSH2 0xAE CALLDATASIZE PUSH1 0x4 PUSH2 0x42E9 JUMP JUMPDEST PUSH2 0x128 JUMP JUMPDEST PUSH1 0x40 MLOAD PUSH2 0x97 SWAP3 SWAP2 SWAP1 PUSH2 0x44A7 JUMP JUMPDEST PUSH2 0xD4 PUSH2 0xCF CALLDATASIZE PUSH1 0x4 PUSH2 0x4258 JUMP JUMPDEST PUSH2 0x218 JUMP JUMPDEST PUSH1 0x40 MLOAD PUSH2 0x97 SWAP4 SWAP3 SWAP2 SWAP1 PUSH2 0x44B5 JUMP JUMPDEST PUSH2 0x8A PUSH2 0x2C8 JUMP JUMPDEST PUSH2 0x8A PUSH2 0x2D7 JUMP JUMPDEST PUSH2 0xD4 PUSH2 0x101 CALLDATASIZE PUSH1 0x4 PUSH2 0x41EE JUMP JUMPDEST PUSH2 0x2EE JUMP JUMPDEST PUSH2 0xB3 PUSH2 0x114 CALLDATASIZE PUSH1 0x4 PUSH2 0x42E9 JUMP JUMPDEST PUSH2 0x335 JUMP JUMPDEST PUSH1 0x2 SLOAD PUSH1 0x1 PUSH1 0x1 PUSH1 0xA0 SHL SUB AND DUP2 JUMP JUMPDEST PUSH1 0x0 DUP1 PUSH1 0x2 PUSH1 0xA SLOAD EQ ISZERO PUSH2 0x157 JUMPI PUSH1 0x40 MLOAD PUSH3 0x461BCD PUSH1 0xE5 SHL DUP2 MSTORE PUSH1 0x4 ADD PUSH2 0x14E SWAP1 PUSH2 0x45C8 JUMP JUMPDEST PUSH1 0x40 MLOAD DUP1 SWAP2 SUB SWAP1 REVERT JUMPDEST PUSH1 0x2 PUSH1 0xA SSTORE PUSH1 0x0 DUP1 DUP1 DUP1 PUSH2 0x16D DUP10 DUP10 DUP10 DUP5 PUSH2 0x36B JUMP JUMPDEST SWAP4 POP SWAP4 POP SWAP4 POP SWAP4 POP PUSH1 0x0 PUSH2 0x18F CALLER DUP11 DUP8 PUSH2 0x18A DUP9 PUSH1 0xA0 ADD MLOAD PUSH2 0x3E2 JUMP JUMPDEST PUSH2 0x3F8 JUMP JUMPDEST SWAP1 POP PUSH2 0x19B DUP2 CALLER PUSH2 0x4D2 JUMP JUMPDEST PUSH2 0x1A7 DUP11 DUP6 DUP5 DUP7 PUSH2 0x5D6 JUMP JUMPDEST CALLER PUSH1 0x1 PUSH1 0x1 PUSH1 0xA0 SHL SUB AND DUP11 PUSH1 0x1 PUSH1 0x1 PUSH1 0xA0 SHL SUB AND PUSH32 0x4596C3B6545E97EB42B719442DD0AFA8EB7680F3FF72C762763D4B292EE26EA7 DUP12 DUP9 PUSH1 0x40 MLOAD PUSH2 0x1EC SWAP3 SWAP2 SWAP1 PUSH2 0x4636 JUMP JUMPDEST PUSH1 0x40 MLOAD DUP1 SWAP2 SUB SWAP1 LOG3 DUP5 PUSH2 0x202 DUP6 PUSH1 0xA0 ADD MLOAD PUSH2 0x3E2 JUMP JUMPDEST PUSH1 0x1 PUSH1 0xA SSTORE SWAP1 SWAP12 SWAP1 SWAP11 POP SWAP9 POP POP POP POP POP POP POP POP POP JUMP JUMPDEST PUSH1 0x0 DUP1 PUSH1 0x0 PUSH1 0x2 PUSH1 0xA SLOAD EQ ISZERO PUSH2 0x240 JUMPI PUSH1 0x40 MLOAD PUSH3 0x461BCD PUSH1 0xE5 SHL DUP2 MSTORE PUSH1 0x4 ADD PUSH2 0x14E SWAP1 PUSH2 0x45C8 JUMP JUMPDEST PUSH1 0x2 PUSH1 0xA SSTORE PUSH1 0x0 DUP1 DUP1 DUP1 PUSH2 0x258 DUP15 DUP15 DUP15 DUP15 DUP15 DUP7 PUSH2 0x625 JUMP JUMPDEST SWAP4 POP SWAP4 POP SWAP4 POP SWAP4 POP PUSH2 0x26E DUP14 DUP14 DUP7 DUP7 DUP14 DUP14 PUSH2 0x6A8 JUMP JUMPDEST PUSH2 0x27A DUP15 DUP15 DUP7 DUP7 PUSH2 0x6F0 JUMP JUMPDEST PUSH2 0x286 DUP15 DUP15 DUP4 DUP8 PUSH2 0x761 JUMP JUMPDEST PUSH2 0x292 DUP15 DUP5 DUP4 DUP6 PUSH2 0x5D6 JUMP JUMPDEST DUP4 PUSH2 0x29C DUP5 PUSH2 0x791 JUMP JUMPDEST PUSH2 0x2A9 DUP6 PUSH1 0xA0 ADD MLOAD PUSH2 0x3E2 JUMP JUMPDEST SWAP7 POP SWAP7 POP SWAP7 POP POP POP POP POP PUSH1 0x1 PUSH1 0xA DUP2 SWAP1 SSTORE POP SWAP8 POP SWAP8 POP SWAP8 SWAP5 POP POP POP POP POP JUMP JUMPDEST PUSH1 0x1 SLOAD PUSH1 0x1 PUSH1 0x1 PUSH1 0xA0 SHL SUB AND DUP2 JUMP JUMPDEST PUSH1 0x0 SLOAD PUSH5 0x100000000 SWAP1 DIV PUSH1 0x1 PUSH1 0x1 PUSH1 0xA0 SHL SUB AND DUP2 JUMP JUMPDEST PUSH1 0x0 DUP1 PUSH1 0x0 DUP1 PUSH1 0x0 PUSH2 0x305 DUP11 DUP11 DUP11 DUP11 DUP11 PUSH1 0x1 PUSH2 0x625 JUMP JUMPDEST POP POP SWAP2 POP SWAP2 POP DUP2 PUSH2 0x315 DUP3 PUSH2 0x791 JUMP JUMPDEST PUSH2 0x322 DUP4 PUSH1 0xA0 ADD MLOAD PUSH2 0x3E2 JUMP JUMPDEST SWAP5 POP SWAP5 POP SWAP5 POP POP POP SWAP6 POP SWAP6 POP SWAP6 SWAP3 POP POP POP JUMP JUMPDEST PUSH1 0x0 DUP1 PUSH1 0x0 DUP1 PUSH2 0x348 DUP8 DUP8 DUP8 PUSH1 0x1 PUSH2 0x36B JUMP JUMPDEST POP POP SWAP2 POP SWAP2 POP DUP2 PUSH2 0x35C DUP3 PUSH1 0xA0 ADD MLOAD PUSH2 0x3E2 JUMP JUMPDEST SWAP4 POP SWAP4 POP POP POP JUMPDEST SWAP4 POP SWAP4 SWAP2 POP POP JUMP JUMPDEST PUSH1 0x0 PUSH2 0x375 PUSH2 0x3BA5 JUMP JUMPDEST PUSH2 0x37D PUSH2 0x3BF5 JUMP JUMPDEST PUSH2 0x385 PUSH2 0x3C1D JUMP JUMPDEST PUSH1 0x0 DUP1 PUSH1 0x0 PUSH2 0x396 DUP12 DUP12 PUSH1 0x0 PUSH2 0x7AE JUMP JUMPDEST SWAP3 POP SWAP3 POP SWAP3 POP PUSH2 0x3A4 PUSH2 0x3BA5 JUMP JUMPDEST PUSH2 0x3B0 DUP2 DUP14 DUP14 DUP8 PUSH2 0x923 JUMP JUMPDEST DUP9 ISZERO ISZERO PUSH2 0x140 DUP5 ADD MSTORE PUSH1 0x0 PUSH2 0x3CD PUSH2 0xFFFF DUP14 AND DUP13 TIMESTAMP DUP6 DUP9 DUP9 PUSH2 0x9C9 JUMP JUMPDEST SWAP14 SWAP2 SWAP13 POP SWAP2 SWAP11 POP SWAP3 SWAP9 POP SWAP2 SWAP7 POP POP POP POP POP POP POP JUMP JUMPDEST PUSH1 0x0 PUSH2 0x3F0 PUSH1 0x0 NOT DUP4 PUSH2 0xB5D JUMP JUMPDEST SWAP1 POP JUMPDEST SWAP2 SWAP1 POP JUMP JUMPDEST PUSH2 0x400 PUSH2 0x3C1D JUMP JUMPDEST PUSH1 0x0 PUSH2 0x40F DUP6 PUSH2 0xFFFF AND PUSH2 0xBB1 JUMP JUMPDEST SWAP1 POP PUSH1 0x0 PUSH2 0x41C DUP8 PUSH2 0xBC4 JUMP JUMPDEST SWAP1 POP PUSH2 0x426 PUSH2 0x3BA5 JUMP JUMPDEST PUSH2 0x432 DUP2 DUP10 DUP10 DUP6 PUSH2 0x923 JUMP JUMPDEST DUP3 PUSH1 0x20 ADD MLOAD DUP1 ISZERO PUSH2 0x443 JUMPI POP PUSH1 0x0 DUP7 SGT JUMPDEST ISZERO PUSH2 0x497 JUMPI DUP6 DUP2 PUSH1 0x20 ADD MLOAD SLT ISZERO DUP1 ISZERO PUSH2 0x468 JUMPI POP PUSH1 0x20 DUP3 ADD MLOAD PUSH1 0x1 PUSH1 0x1 PUSH1 0xF8 SHL SUB NOT AND ISZERO JUMPDEST PUSH2 0x484 JUMPI PUSH1 0x40 MLOAD PUSH3 0x461BCD PUSH1 0xE5 SHL DUP2 MSTORE PUSH1 0x4 ADD PUSH2 0x14E SWAP1 PUSH2 0x4561 JUMP JUMPDEST PUSH2 0x48D DUP7 PUSH2 0x3E2 JUMP JUMPDEST PUSH1 0x60 DUP3 ADD MSTORE PUSH2 0x4AF JUMP JUMPDEST PUSH2 0x4AD DUP9 PUSH2 0x4A5 DUP6 DUP10 PUSH2 0xC65 JUMP JUMPDEST DUP6 SWAP2 SWAP1 PUSH2 0xCA4 JUMP JUMPDEST POP JUMPDEST PUSH1 0xA0 DUP2 ADD DUP6 SWAP1 MSTORE PUSH2 0x4C3 DUP2 DUP10 DUP5 PUSH1 0x0 PUSH2 0xD48 JUMP JUMPDEST POP SWAP1 SWAP3 POP POP POP JUMPDEST SWAP5 SWAP4 POP POP POP POP JUMP JUMPDEST PUSH1 0x0 PUSH2 0x4DC PUSH2 0xFB3 JUMP JUMPDEST PUSH1 0x1 PUSH1 0x1 PUSH1 0xA0 SHL SUB DUP4 AND PUSH1 0x0 DUP2 DUP2 MSTORE PUSH1 0x20 DUP4 DUP2 MSTORE PUSH1 0x40 DUP1 DUP4 KECCAK256 DUP9 MLOAD DUP2 SLOAD SWAP4 DUP11 ADD MLOAD DUP4 DUP12 ADD MLOAD PUSH1 0x60 DUP13 ADD MLOAD PUSH1 0x80 DUP14 ADD MLOAD PUSH1 0x70 SHR PUSH1 0x1 PUSH1 0x48 SHL MUL PUSH27 0xFFFFFFFFFFFFFFFFFFFFFFFFFFFFFFFFFFFF000000000000000000 NOT PUSH2 0xFFFF SWAP1 SWAP3 AND PUSH1 0x1 PUSH1 0x38 SHL MUL PUSH9 0xFFFF00000000000000 NOT PUSH1 0xFF SWAP5 SWAP1 SWAP5 AND PUSH1 0x1 PUSH1 0x30 SHL MUL PUSH7 0xFF000000000000 NOT PUSH1 0xF8 SWAP7 SWAP1 SWAP7 SHR PUSH6 0x10000000000 MUL PUSH6 0xFF0000000000 NOT PUSH5 0xFFFFFFFFFF SWAP1 SWAP9 AND PUSH5 0xFFFFFFFFFF NOT SWAP1 SWAP12 AND SWAP11 SWAP1 SWAP11 OR SWAP7 SWAP1 SWAP7 AND SWAP9 SWAP1 SWAP9 OR SWAP4 SWAP1 SWAP4 AND SWAP4 SWAP1 SWAP4 OR AND SWAP5 SWAP1 SWAP5 OR AND SWAP3 SWAP1 SWAP3 OR SWAP1 SWAP2 SSTORE MLOAD SWAP3 SWAP4 POP SWAP1 SWAP2 PUSH32 0x6BD4B121BCA854A191536A2CA891155C42EE2FB23F307FB34E8BC65CFCB5412E SWAP2 SWAP1 LOG2 POP POP POP JUMP JUMPDEST PUSH1 0x80 DUP4 ADD DUP1 MLOAD PUSH1 0x0 SWAP2 DUP3 SWAP1 MSTORE SWAP1 PUSH2 0x5F2 SWAP1 DUP6 SWAP1 DUP8 SWAP1 DUP7 SWAP1 PUSH2 0xD48 JUMP JUMPDEST POP PUSH2 0x5FC DUP4 PUSH2 0xFC0 JUMP JUMPDEST PUSH2 0x60D JUMPI PUSH2 0x60D DUP4 DUP7 DUP5 PUSH1 0x1 PUSH2 0xFCD JUMP JUMPDEST PUSH2 0x617 DUP4 DUP7 PUSH2 0x4D2 JUMP JUMPDEST PUSH1 0x80 SWAP1 SWAP4 ADD SWAP3 SWAP1 SWAP3 MSTORE POP POP POP JUMP JUMPDEST PUSH1 0x0 PUSH2 0x62F PUSH2 0x3BA5 JUMP JUMPDEST PUSH2 0x637 PUSH2 0x3BF5 JUMP JUMPDEST PUSH2 0x63F PUSH2 0x3C1D JUMP JUMPDEST TIMESTAMP PUSH1 0x0 DUP1 DUP1 PUSH2 0x64F DUP15 DUP15 DUP15 PUSH2 0x7AE JUMP JUMPDEST SWAP3 POP SWAP3 POP SWAP3 POP PUSH2 0x65D PUSH2 0x3BA5 JUMP JUMPDEST PUSH2 0x674 DUP16 DUP15 DUP7 DUP5 PUSH2 0x923 SWAP1 SWAP4 SWAP3 SWAP2 SWAP1 PUSH4 0xFFFFFFFF AND JUMP JUMPDEST DUP10 ISZERO ISZERO PUSH2 0x140 DUP5 ADD MSTORE PUSH1 0x0 PUSH2 0x68D DUP14 DUP14 DUP9 DUP6 DUP9 DUP9 PUSH2 0x10AF JUMP JUMPDEST SWAP10 POP SWAP1 SWAP8 POP SWAP1 SWAP6 POP SWAP2 SWAP4 POP POP POP POP SWAP7 POP SWAP7 POP SWAP7 POP SWAP7 SWAP3 POP POP POP JUMP JUMPDEST PUSH1 0x0 PUSH2 0x6B7 CALLER DUP9 DUP8 PUSH1 0x0 PUSH2 0x3F8 JUMP JUMPDEST SWAP1 POP PUSH2 0x6DC CALLER DUP3 DUP9 PUSH2 0x6C8 DUP9 PUSH2 0x791 JUMP JUMPDEST PUSH2 0x6D5 DUP10 PUSH1 0xA0 ADD MLOAD PUSH2 0x3E2 JUMP JUMPDEST DUP9 DUP9 PUSH2 0x1224 JUMP JUMPDEST POP PUSH2 0x6E7 DUP2 CALLER PUSH2 0x4D2 JUMP JUMPDEST POP POP POP POP POP POP POP JUMP JUMPDEST CALLER PUSH1 0x1 PUSH1 0x1 PUSH1 0xA0 SHL SUB AND DUP5 PUSH1 0x1 PUSH1 0x1 PUSH1 0xA0 SHL SUB AND PUSH32 0x88FFF2F00941B1272999212DE454EE8D15F54D132723B35E3423EF742109861C DUP6 DUP5 PUSH1 0x0 ADD MLOAD DUP7 PUSH2 0x735 DUP8 PUSH2 0x791 JUMP JUMPDEST PUSH2 0x742 DUP9 PUSH1 0xA0 ADD MLOAD PUSH2 0x3E2 JUMP JUMPDEST PUSH1 0x40 MLOAD PUSH2 0x753 SWAP6 SWAP5 SWAP4 SWAP3 SWAP2 SWAP1 PUSH2 0x464A JUMP JUMPDEST PUSH1 0x40 MLOAD DUP1 SWAP2 SUB SWAP1 LOG3 POP POP POP POP JUMP JUMPDEST PUSH2 0x769 PUSH2 0x3BA5 JUMP JUMPDEST PUSH2 0x775 DUP2 DUP7 DUP7 DUP7 PUSH2 0x923 JUMP JUMPDEST PUSH1 0x60 DUP2 ADD DUP3 SWAP1 MSTORE PUSH2 0x789 DUP2 DUP7 DUP6 PUSH1 0x0 PUSH2 0xD48 JUMP JUMPDEST POP POP POP POP POP POP JUMP JUMPDEST PUSH1 0x0 PUSH2 0x3F0 DUP3 PUSH1 0x80 ADD MLOAD PUSH2 0x7A8 DUP5 PUSH1 0x60 ADD MLOAD PUSH2 0x3E2 JUMP JUMPDEST SWAP1 PUSH2 0x127D JUMP JUMPDEST PUSH2 0x7B6 PUSH2 0x3C1D JUMP JUMPDEST PUSH2 0x7BE PUSH2 0x3C4B JUMP JUMPDEST PUSH2 0x7C6 PUSH2 0x3BF5 JUMP JUMPDEST CALLER PUSH1 0x1 PUSH1 0x1 PUSH1 0xA0 SHL SUB DUP8 AND EQ ISZERO PUSH2 0x7DC JUMPI PUSH1 0x0 DUP1 REVERT JUMPDEST PUSH2 0xFFFF DUP6 AND PUSH2 0x7EA JUMPI PUSH1 0x0 DUP1 REVERT JUMPDEST DUP5 PUSH2 0xFFFF AND DUP5 PUSH2 0xFFFF AND EQ ISZERO PUSH2 0x7FF JUMPI PUSH1 0x0 DUP1 REVERT JUMPDEST PUSH1 0x0 DUP1 PUSH1 0x0 PUSH20 0x0 PUSH4 0x451D958F DUP11 DUP11 DUP11 PUSH1 0x40 MLOAD DUP5 PUSH4 0xFFFFFFFF AND PUSH1 0xE0 SHL DUP2 MSTORE PUSH1 0x4 ADD PUSH2 0x83F SWAP4 SWAP3 SWAP2 SWAP1 PUSH2 0x4460 JUMP JUMPDEST PUSH1 0x0 PUSH1 0x40 MLOAD DUP1 DUP4 SUB DUP2 DUP7 DUP1 EXTCODESIZE ISZERO DUP1 ISZERO PUSH2 0x857 JUMPI PUSH1 0x0 DUP1 REVERT JUMPDEST POP GAS DELEGATECALL ISZERO DUP1 ISZERO PUSH2 0x86B JUMPI RETURNDATASIZE PUSH1 0x0 DUP1 RETURNDATACOPY RETURNDATASIZE PUSH1 0x0 REVERT JUMPDEST POP POP POP POP PUSH1 0x40 MLOAD RETURNDATASIZE PUSH1 0x0 DUP3 RETURNDATACOPY PUSH1 0x1F RETURNDATASIZE SWAP1 DUP2 ADD PUSH1 0x1F NOT AND DUP3 ADD PUSH1 0x40 MSTORE PUSH2 0x893 SWAP2 SWAP1 DUP2 ADD SWAP1 PUSH2 0x432F JUMP JUMPDEST SWAP3 POP SWAP3 POP SWAP3 POP PUSH1 0x0 PUSH1 0x40 MLOAD DUP1 PUSH1 0x80 ADD PUSH1 0x40 MSTORE DUP1 DUP4 DUP2 MSTORE PUSH1 0x20 ADD PUSH1 0x0 PUSH8 0xFFFFFFFFFFFFFFFF DUP2 GT DUP1 ISZERO PUSH2 0x8C4 JUMPI PUSH1 0x0 DUP1 REVERT JUMPDEST POP PUSH1 0x40 MLOAD SWAP1 DUP1 DUP3 MSTORE DUP1 PUSH1 0x20 MUL PUSH1 0x20 ADD DUP3 ADD PUSH1 0x40 MSTORE DUP1 ISZERO PUSH2 0x8FE JUMPI DUP2 PUSH1 0x20 ADD JUMPDEST PUSH2 0x8EB PUSH2 0x3CD0 JUMP JUMPDEST DUP2 MSTORE PUSH1 0x20 ADD SWAP1 PUSH1 0x1 SWAP1 SUB SWAP1 DUP2 PUSH2 0x8E3 JUMPI SWAP1 POP JUMPDEST POP DUP2 MSTORE PUSH1 0x0 PUSH1 0x20 DUP3 ADD MSTORE SWAP3 MLOAD PUSH1 0x40 SWAP1 SWAP4 ADD SWAP3 SWAP1 SWAP3 MSTORE POP SWAP2 SWAP9 SWAP1 SWAP8 POP SWAP1 SWAP6 POP SWAP4 POP POP POP POP JUMP JUMPDEST DUP2 PUSH2 0xFFFF AND PUSH1 0x0 LT DUP1 ISZERO PUSH2 0x93D JUMPI POP PUSH2 0x3FFF PUSH2 0xFFFF DUP4 AND GT ISZERO JUMPDEST PUSH2 0x946 JUMPI PUSH1 0x0 DUP1 REVERT JUMPDEST PUSH2 0xFFFF DUP3 AND DUP1 DUP6 MSTORE PUSH2 0x959 SWAP1 DUP3 SWAP1 PUSH2 0x1293 JUMP JUMPDEST ISZERO PUSH2 0x986 JUMPI PUSH2 0x96C DUP4 DUP4 PUSH2 0xFFFF AND PUSH2 0x131D JUMP JUMPDEST PUSH2 0x100 DUP9 ADD MSTORE PUSH1 0xE0 DUP8 ADD MSTORE PUSH1 0x40 DUP7 ADD MSTORE PUSH1 0x20 DUP6 ADD MSTORE PUSH2 0x9A4 JUMP JUMPDEST PUSH1 0x0 PUSH1 0x20 DUP6 ADD DUP2 SWAP1 MSTORE PUSH1 0x40 DUP6 ADD DUP2 SWAP1 MSTORE PUSH1 0xE0 DUP6 ADD DUP2 SWAP1 MSTORE PUSH2 0x100 DUP6 ADD MSTORE JUMPDEST POP POP PUSH1 0x0 PUSH1 0x60 DUP4 ADD DUP2 SWAP1 MSTORE PUSH1 0x80 DUP4 ADD DUP2 SWAP1 MSTORE PUSH1 0xA0 DUP4 ADD DUP2 SWAP1 MSTORE PUSH1 0xC0 SWAP1 SWAP3 ADD SWAP2 SWAP1 SWAP2 MSTORE POP JUMP JUMPDEST PUSH1 0x0 DUP3 PUSH1 0x40 ADD MLOAD PUSH1 0x0 EQ ISZERO PUSH2 0x9DD JUMPI PUSH1 0x0 DUP1 REVERT JUMPDEST PUSH1 0x0 PUSH2 0xA05 PUSH2 0x9F9 DUP6 PUSH1 0x40 ADD MLOAD DUP7 PUSH1 0x20 ADD MLOAD DUP8 PUSH1 0xC0 ADD MLOAD PUSH2 0x13A6 JUMP JUMPDEST PUSH2 0x100 DUP7 ADD MLOAD SWAP1 PUSH2 0x13F5 JUMP JUMPDEST SWAP1 POP PUSH2 0xA0F PUSH2 0x3D10 JUMP JUMPDEST PUSH2 0xA1B DUP5 DUP7 DUP10 DUP6 PUSH2 0x1420 JUMP JUMPDEST PUSH1 0x60 DUP3 ADD MLOAD SWAP1 SWAP4 POP SWAP1 SWAP2 POP PUSH2 0xA2F SWAP1 PUSH2 0x3E2 JUMP JUMPDEST SWAP3 POP PUSH2 0xA4C DUP2 PUSH1 0x60 ADD MLOAD DUP3 PUSH1 0x80 ADD MLOAD PUSH2 0x1667 SWAP1 SWAP2 SWAP1 PUSH4 0xFFFFFFFF AND JUMP JUMPDEST PUSH1 0x60 DUP8 ADD MSTORE POP PUSH1 0x80 DUP5 ADD MLOAD PUSH1 0x0 SLT ISZERO PUSH2 0xB52 JUMPI PUSH1 0xA0 DUP5 ADD MLOAD PUSH1 0x0 SWAP1 PUSH1 0x3 DUP2 SWAP1 BYTE SWAP1 DUP3 BYTE GT PUSH2 0xA79 JUMPI PUSH1 0x0 DUP1 REVERT JUMPDEST PUSH1 0xA0 DUP6 ADD MLOAD PUSH1 0x80 DUP7 ADD MLOAD PUSH1 0x3 DUP3 SWAP1 BYTE PUSH1 0x0 SWAP3 SWAP1 SWAP3 BYTE SWAP2 SWAP1 SWAP2 SUB PUSH1 0xFF AND SWAP1 PUSH2 0xACD SWAP1 PUSH2 0xAA4 SWAP1 DUP4 PUSH2 0xB5D JUMP JUMPDEST PUSH1 0xA0 DUP9 ADD MLOAD PUSH1 0x40 DUP11 ADD MLOAD PUSH2 0xAC7 SWAP2 PUSH1 0x3 BYTE SWAP1 PUSH2 0xAC1 SWAP1 DUP9 SWAP1 PUSH2 0xB5D JUMP JUMPDEST SWAP1 PUSH2 0xB5D JUMP JUMPDEST SWAP1 PUSH2 0x167D JUMP JUMPDEST SWAP2 POP POP PUSH2 0xAE8 DUP2 DUP8 PUSH1 0x40 ADD MLOAD DUP11 PUSH1 0x1 PUSH1 0x1 PUSH1 0x60 SHL SUB AND PUSH2 0x16AE JUMP JUMPDEST SWAP1 POP PUSH2 0xAF3 DUP2 PUSH2 0x3E2 JUMP JUMPDEST PUSH1 0xA0 DUP8 DUP2 ADD SWAP2 SWAP1 SWAP2 MSTORE PUSH1 0x40 DUP8 ADD MLOAD SWAP1 DUP7 ADD MLOAD PUSH1 0x80 DUP8 ADD MLOAD PUSH1 0x0 SWAP3 PUSH2 0xB2C SWAP3 SWAP1 SWAP2 PUSH2 0xAC7 SWAP2 PUSH1 0x3 DUP2 SWAP1 BYTE SWAP2 DUP4 SWAP2 PUSH2 0xAC1 SWAP1 DUP10 SWAP1 DUP10 BYTE PUSH2 0xB5D JUMP JUMPDEST PUSH1 0x60 DUP9 ADD MLOAD SWAP1 SWAP2 POP PUSH2 0xB3E SWAP1 DUP3 PUSH2 0x127D JUMP JUMPDEST PUSH1 0x60 DUP9 ADD MSTORE PUSH2 0xB4D DUP5 DUP3 PUSH2 0x127D JUMP JUMPDEST SWAP4 POP POP POP JUMPDEST POP SWAP7 SWAP6 POP POP POP POP POP POP JUMP JUMPDEST DUP2 DUP2 MUL PUSH1 0x0 NOT DUP4 EQ ISZERO PUSH2 0xB8D JUMPI DUP2 ISZERO DUP1 PUSH2 0xB7F JUMPI POP DUP3 DUP3 DUP3 DUP2 PUSH2 0xB7C JUMPI INVALID JUMPDEST SDIV EQ JUMPDEST PUSH2 0xB88 JUMPI PUSH1 0x0 DUP1 REVERT JUMPDEST PUSH2 0xBAB JUMP JUMPDEST DUP3 ISZERO DUP1 PUSH2 0xBA2 JUMPI POP DUP2 DUP4 DUP3 DUP2 PUSH2 0xB9F JUMPI INVALID JUMPDEST SDIV EQ JUMPDEST PUSH2 0xBAB JUMPI PUSH1 0x0 DUP1 REVERT JUMPDEST SWAP3 SWAP2 POP POP JUMP JUMPDEST PUSH2 0xBB9 PUSH2 0x3D46 JUMP JUMPDEST PUSH2 0x3F0 DUP3 PUSH1 0x0 PUSH2 0x16F8 JUMP JUMPDEST PUSH2 0xBCC PUSH2 0x3C1D JUMP JUMPDEST PUSH1 0x0 PUSH2 0xBD6 PUSH2 0xFB3 JUMP JUMPDEST PUSH1 0x1 PUSH1 0x1 PUSH1 0xA0 SHL SUB SWAP4 SWAP1 SWAP4 AND PUSH1 0x0 SWAP1 DUP2 MSTORE PUSH1 0x20 SWAP4 DUP5 MSTORE PUSH1 0x40 SWAP1 DUP2 SWAP1 KECCAK256 DUP2 MLOAD PUSH1 0xA0 DUP2 ADD DUP4 MSTORE SWAP1 SLOAD PUSH5 0xFFFFFFFFFF DUP2 AND DUP3 MSTORE PUSH6 0x10000000000 DUP2 DIV PUSH1 0xF8 SHL PUSH1 0x1 PUSH1 0x1 PUSH1 0xF8 SHL SUB NOT AND SWAP6 DUP3 ADD SWAP6 SWAP1 SWAP6 MSTORE PUSH1 0x1 PUSH1 0x30 SHL DUP6 DIV PUSH1 0xFF AND SWAP2 DUP2 ADD SWAP2 SWAP1 SWAP2 MSTORE PUSH1 0x1 PUSH1 0x38 SHL DUP5 DIV PUSH2 0xFFFF AND PUSH1 0x60 DUP3 ADD MSTORE PUSH1 0x1 PUSH1 0x48 SHL SWAP1 SWAP4 DIV PUSH1 0x70 SHL PUSH1 0x1 PUSH1 0x1 PUSH1 0x70 SHL SUB NOT AND PUSH1 0x80 DUP5 ADD MSTORE POP SWAP1 SWAP2 SWAP1 POP JUMP JUMPDEST PUSH1 0x0 PUSH4 0x5F5E100 DUP4 PUSH1 0x40 ADD MLOAD EQ ISZERO PUSH2 0xC7E JUMPI POP DUP1 PUSH2 0xBAB JUMP JUMPDEST PUSH2 0xC9D PUSH4 0x5F5E100 PUSH2 0xAC7 DUP6 PUSH1 0x40 ADD MLOAD DUP6 PUSH2 0xB5D SWAP1 SWAP2 SWAP1 PUSH4 0xFFFFFFFF AND JUMP JUMPDEST SWAP4 SWAP3 POP POP POP JUMP JUMPDEST PUSH1 0x0 DUP1 DUP3 SGT ISZERO PUSH2 0xCC0 JUMPI PUSH2 0xCB9 DUP5 DUP5 DUP5 PUSH2 0x17A6 JUMP JUMPDEST SWAP2 POP PUSH2 0xD41 JUMP JUMPDEST PUSH1 0x3 DUP5 PUSH1 0x60 ADD MLOAD PUSH1 0x4 DUP2 GT ISZERO PUSH2 0xCD2 JUMPI INVALID JUMPDEST EQ ISZERO PUSH2 0xD2C JUMPI PUSH1 0x0 DUP3 SGT ISZERO PUSH2 0xCE6 JUMPI PUSH1 0x0 DUP1 REVERT JUMPDEST DUP3 PUSH1 0x1 PUSH1 0x1 PUSH1 0xA0 SHL SUB DUP2 AND PUSH2 0x8FC PUSH2 0xCFD DUP6 PUSH2 0x3E2 JUMP JUMPDEST PUSH1 0x40 MLOAD DUP2 ISZERO SWAP1 SWAP3 MUL SWAP2 PUSH1 0x0 DUP2 DUP2 DUP2 DUP6 DUP9 DUP9 CALL SWAP4 POP POP POP POP ISZERO DUP1 ISZERO PUSH2 0xD25 JUMPI RETURNDATASIZE PUSH1 0x0 DUP1 RETURNDATACOPY RETURNDATASIZE PUSH1 0x0 REVERT JUMPDEST POP POP PUSH2 0xD41 JUMP JUMPDEST DUP4 MLOAD PUSH2 0xD41 SWAP1 DUP5 PUSH2 0xD3C DUP6 PUSH2 0x3E2 JUMP JUMPDEST PUSH2 0x1948 JUMP JUMPDEST POP SWAP3 SWAP2 POP POP JUMP JUMPDEST PUSH1 0x0 DUP1 PUSH1 0x0 DUP7 PUSH1 0xA0 ADD MLOAD SLT ISZERO PUSH2 0xD9B JUMPI PUSH1 0x0 PUSH2 0xD7D DUP8 PUSH1 0xA0 ADD MLOAD PUSH2 0x7A8 DUP10 PUSH1 0xC0 ADD MLOAD DUP11 PUSH1 0x40 ADD MLOAD PUSH2 0x127D SWAP1 SWAP2 SWAP1 PUSH4 0xFFFFFFFF AND JUMP JUMPDEST SLT ISZERO PUSH2 0xD9B JUMPI PUSH1 0x40 MLOAD PUSH3 0x461BCD PUSH1 0xE5 SHL DUP2 MSTORE PUSH1 0x4 ADD PUSH2 0x14E SWAP1 PUSH2 0x4612 JUMP JUMPDEST PUSH1 0x0 DUP7 PUSH1 0x80 ADD MLOAD SLT ISZERO PUSH2 0xDEB JUMPI PUSH1 0x0 PUSH2 0xDCD DUP8 PUSH1 0x80 ADD MLOAD PUSH2 0x7A8 DUP10 PUSH1 0x60 ADD MLOAD DUP11 PUSH1 0x20 ADD MLOAD PUSH2 0x127D SWAP1 SWAP2 SWAP1 PUSH4 0xFFFFFFFF AND JUMP JUMPDEST SLT ISZERO PUSH2 0xDEB JUMPI PUSH1 0x40 MLOAD PUSH3 0x461BCD PUSH1 0xE5 SHL DUP2 MSTORE PUSH1 0x4 ADD PUSH2 0x14E SWAP1 PUSH2 0x45F0 JUMP JUMPDEST PUSH2 0xDF6 DUP7 DUP7 DUP6 PUSH2 0x19B5 JUMP JUMPDEST PUSH1 0x80 DUP9 ADD DUP2 SWAP1 MSTORE PUSH1 0x60 DUP9 ADD MLOAD SWAP2 SWAP4 POP PUSH1 0x0 SWAP2 PUSH2 0xE11 SWAP2 PUSH2 0x127D JUMP JUMPDEST SWAP1 POP DUP1 ISZERO PUSH2 0xE7E JUMPI PUSH1 0x20 DUP8 ADD MLOAD PUSH2 0xE28 SWAP1 DUP3 PUSH2 0x127D JUMP JUMPDEST PUSH1 0x20 DUP9 ADD MSTORE DUP7 MLOAD PUSH1 0x40 MLOAD PUSH1 0x1 SWAP4 POP PUSH2 0xFFFF SWAP1 SWAP2 AND SWAP1 PUSH1 0x1 PUSH1 0x1 PUSH1 0xA0 SHL SUB DUP9 AND SWAP1 PUSH32 0x5441E4A5FAC93A951D782E6F1CDB82E95C8FC58561A013953D17E395C5E69B4B SWAP1 PUSH2 0xE75 SWAP1 DUP6 SWAP1 PUSH2 0x449E JUMP JUMPDEST PUSH1 0x40 MLOAD DUP1 SWAP2 SUB SWAP1 LOG3 JUMPDEST PUSH1 0xA0 DUP8 ADD MLOAD ISZERO ISZERO DUP1 PUSH2 0xE93 JUMPI POP PUSH1 0xC0 DUP8 ADD MLOAD ISZERO ISZERO JUMPDEST ISZERO PUSH2 0xF29 JUMPI PUSH2 0xEA2 DUP8 DUP8 PUSH2 0x1A89 JUMP JUMPDEST POP PUSH2 0xEC6 DUP8 PUSH1 0xC0 ADD MLOAD PUSH2 0x7A8 DUP10 PUSH1 0xA0 ADD MLOAD DUP11 PUSH1 0x40 ADD MLOAD PUSH2 0x127D SWAP1 SWAP2 SWAP1 PUSH4 0xFFFFFFFF AND JUMP JUMPDEST PUSH1 0x40 DUP9 ADD MSTORE PUSH1 0xC0 DUP8 ADD MLOAD ISZERO PUSH2 0xF24 JUMPI DUP7 PUSH1 0x0 ADD MLOAD PUSH2 0xFFFF AND DUP7 PUSH1 0x1 PUSH1 0x1 PUSH1 0xA0 SHL SUB AND PUSH32 0x412BC13D202A2EA5119E55FEC9C5E420DDDB18FAF186373AD9795AD4F4545AA9 DUP10 PUSH1 0xC0 ADD MLOAD PUSH1 0x40 MLOAD PUSH2 0xF1B SWAP2 SWAP1 PUSH2 0x449E JUMP JUMPDEST PUSH1 0x40 MLOAD DUP1 SWAP2 SUB SWAP1 LOG3 JUMPDEST PUSH1 0x1 SWAP2 POP JUMPDEST DUP2 ISZERO PUSH2 0xF56 JUMPI PUSH2 0xF56 DUP7 DUP9 PUSH1 0x0 ADD MLOAD PUSH2 0xFFFF AND DUP10 PUSH1 0x20 ADD MLOAD DUP11 PUSH1 0x40 ADD MLOAD DUP12 PUSH1 0xE0 ADD MLOAD DUP13 PUSH2 0x100 ADD MLOAD PUSH2 0x1AFA JUMP JUMPDEST DUP7 MLOAD PUSH1 0x20 DUP9 ADD MLOAD PUSH2 0xF83 SWAP2 PUSH2 0xFFFF AND SWAP1 ISZERO ISZERO DUP1 PUSH2 0xF76 JUMPI POP PUSH1 0x40 DUP10 ADD MLOAD ISZERO ISZERO JUMPDEST DUP8 SWAP2 SWAP1 PUSH1 0x1 PUSH1 0xFE SHL PUSH2 0x1C10 JUMP JUMPDEST PUSH1 0x0 DUP8 PUSH1 0x20 ADD MLOAD SLT ISZERO PUSH2 0xFA9 JUMPI PUSH1 0x20 DUP6 ADD DUP1 MLOAD PUSH1 0x1 PUSH1 0xF9 SHL OR PUSH1 0x1 PUSH1 0x1 PUSH1 0xF8 SHL SUB NOT AND SWAP1 MSTORE JUMPDEST POP POP SWAP5 SWAP4 POP POP POP POP JUMP JUMPDEST PUSH1 0x0 DUP1 PUSH2 0xBAB PUSH1 0x1 PUSH2 0x1E10 JUMP JUMPDEST PUSH1 0x60 ADD MLOAD PUSH2 0xFFFF AND ISZERO ISZERO SWAP1 JUMP JUMPDEST PUSH1 0x0 DUP1 DUP1 DUP1 PUSH2 0xFDC DUP7 DUP9 PUSH2 0x1E29 JUMP JUMPDEST PUSH5 0xFFFFFFFFFF DUP2 AND DUP13 MSTORE SWAP3 SWAP7 POP SWAP1 SWAP5 POP SWAP3 POP SWAP1 POP PUSH2 0xFF9 DUP9 PUSH2 0x2068 JUMP JUMPDEST ISZERO PUSH2 0x1003 JUMPI PUSH1 0x0 DUP1 REVERT JUMPDEST PUSH1 0xFF DUP3 AND PUSH1 0x40 DUP10 ADD MSTORE DUP5 PUSH2 0x1022 JUMPI PUSH1 0x7 PUSH1 0xFF DUP4 AND GT ISZERO PUSH2 0x1022 JUMPI PUSH1 0x0 DUP1 REVERT JUMPDEST DUP4 ISZERO PUSH2 0x1045 JUMPI PUSH1 0x20 DUP9 ADD DUP1 MLOAD PUSH1 0x1 PUSH1 0xF8 SHL OR PUSH1 0x1 PUSH1 0x1 PUSH1 0xF8 SHL SUB NOT AND SWAP1 MSTORE PUSH2 0x1054 JUMP JUMPDEST PUSH1 0x20 DUP9 ADD DUP1 MLOAD PUSH1 0x7F PUSH1 0xF9 SHL AND SWAP1 MSTORE JUMPDEST PUSH2 0x1061 DUP9 PUSH1 0x80 ADD MLOAD PUSH2 0x20BC JUMP JUMPDEST PUSH1 0x1 PUSH1 0x1 PUSH1 0x70 SHL SUB NOT AND PUSH1 0x80 DUP10 ADD MSTORE PUSH1 0x0 JUMPDEST DUP4 ISZERO PUSH2 0x10A4 JUMPI PUSH1 0xF0 DUP5 SWAP1 SHR DUP2 DUP2 EQ PUSH2 0x1096 JUMPI PUSH2 0x1096 DUP11 DUP3 PUSH1 0x1 PUSH1 0x1 PUSH1 0xFF SHL PUSH2 0x1C10 JUMP JUMPDEST PUSH1 0x10 SWAP5 SWAP1 SWAP5 SHL SWAP4 SWAP1 POP PUSH2 0x1073 JUMP JUMPDEST POP POP POP POP POP POP POP POP POP JUMP JUMPDEST PUSH1 0x0 DUP1 DUP4 PUSH1 0x40 ADD MLOAD SLT PUSH2 0x10D4 JUMPI PUSH1 0x40 MLOAD PUSH3 0x461BCD PUSH1 0xE5 SHL DUP2 MSTORE PUSH1 0x4 ADD PUSH2 0x14E SWAP1 PUSH2 0x44CB JUMP JUMPDEST PUSH1 0x0 DUP4 PUSH1 0x60 ADD MLOAD SGT PUSH2 0x10F8 JUMPI PUSH1 0x40 MLOAD PUSH3 0x461BCD PUSH1 0xE5 SHL DUP2 MSTORE PUSH1 0x4 ADD PUSH2 0x14E SWAP1 PUSH2 0x45A1 JUMP JUMPDEST PUSH1 0x0 DUP1 PUSH1 0x0 PUSH2 0x1110 DUP7 DUP12 PUSH1 0x1 PUSH1 0x1 PUSH1 0x80 SHL SUB AND PUSH2 0x2137 JUMP JUMPDEST SWAP3 POP SWAP3 POP SWAP3 POP PUSH1 0x0 DUP4 SWAP1 POP PUSH1 0x0 DUP9 PUSH1 0x20 ADD MLOAD SGT ISZERO PUSH2 0x116E JUMPI DUP1 DUP9 PUSH1 0x20 ADD MLOAD SLT PUSH2 0x1149 JUMPI PUSH2 0x113C DUP2 PUSH2 0x3E2 JUMP JUMPDEST PUSH1 0x60 DUP10 ADD MSTORE POP PUSH1 0x0 PUSH2 0x116E JUMP JUMPDEST PUSH2 0x1156 DUP9 PUSH1 0x20 ADD MLOAD PUSH2 0x3E2 JUMP JUMPDEST PUSH1 0x60 DUP10 ADD MSTORE PUSH1 0x20 DUP9 ADD MLOAD PUSH2 0x116B SWAP1 DUP3 SWAP1 PUSH2 0x21E2 JUMP JUMPDEST SWAP1 POP JUMPDEST PUSH1 0x0 DUP2 SGT ISZERO PUSH2 0x1199 JUMPI PUSH1 0x0 PUSH2 0x1185 DUP8 DUP10 DUP13 DUP6 PUSH2 0x21FE JUMP JUMPDEST SWAP1 POP PUSH2 0x1191 DUP3 DUP3 PUSH2 0x1667 JUMP JUMPDEST PUSH1 0x80 DUP11 ADD MSTORE SWAP1 POP JUMPDEST PUSH1 0x0 DUP2 SGT DUP1 ISZERO PUSH2 0x11AD JUMPI POP PUSH1 0x0 DUP8 PUSH1 0x80 ADD MLOAD SGT JUMPDEST ISZERO PUSH2 0x11CA JUMPI PUSH2 0x11C7 DUP9 DUP9 DUP4 DUP14 PUSH1 0x1 PUSH1 0x1 PUSH1 0x60 SHL SUB AND PUSH2 0x239F JUMP JUMPDEST SWAP1 POP JUMPDEST PUSH1 0x0 DUP2 SGT ISZERO PUSH2 0x1213 JUMPI PUSH1 0x0 PUSH2 0x11DF DUP6 DUP4 PUSH2 0x1667 JUMP JUMPDEST SWAP1 POP PUSH1 0x0 PUSH2 0x11FF DUP3 DUP11 PUSH2 0x120 ADD MLOAD PUSH1 0x40 ADD MLOAD PUSH2 0x245D SWAP1 SWAP2 SWAP1 PUSH4 0xFFFFFFFF AND JUMP JUMPDEST SWAP1 POP PUSH2 0x120D DUP10 DUP6 DUP4 DUP6 PUSH2 0x2488 JUMP JUMPDEST SWAP6 POP POP POP POP JUMPDEST POP SWAP1 SWAP3 POP POP POP JUMPDEST SWAP7 SWAP6 POP POP POP POP POP POP JUMP JUMPDEST PUSH2 0x122C PUSH2 0x3C1D JUMP JUMPDEST PUSH2 0x1234 PUSH2 0x3BA5 JUMP JUMPDEST PUSH2 0x1240 DUP2 DUP11 DUP10 DUP12 PUSH2 0x923 JUMP JUMPDEST PUSH1 0x60 DUP2 ADD DUP7 SWAP1 MSTORE DUP4 ISZERO PUSH2 0x125C JUMPI PUSH2 0x1256 DUP7 PUSH2 0x3E2 JUMP JUMPDEST PUSH1 0x80 DUP3 ADD MSTORE JUMPDEST PUSH1 0xA0 DUP2 ADD DUP6 SWAP1 MSTORE PUSH2 0x126F DUP2 DUP11 DUP11 DUP7 PUSH2 0xD48 JUMP JUMPDEST POP SWAP7 SWAP9 SWAP8 POP POP POP POP POP POP POP POP JUMP JUMPDEST DUP2 DUP2 ADD DUP3 DUP2 SLT ISZERO PUSH1 0x0 DUP4 SLT ISZERO EQ PUSH2 0xBAB JUMPI PUSH1 0x0 DUP1 REVERT JUMPDEST PUSH1 0x0 DUP2 ISZERO DUP1 ISZERO SWAP1 PUSH2 0x12A6 JUMPI POP PUSH2 0x3FFF DUP3 GT ISZERO JUMPDEST PUSH2 0x12AF JUMPI PUSH1 0x0 DUP1 REVERT JUMPDEST PUSH1 0x80 DUP4 ADD MLOAD PUSH1 0x60 DUP5 ADD MLOAD PUSH2 0xFFFF AND DUP4 EQ ISZERO PUSH2 0x12CE JUMPI PUSH1 0x1 SWAP2 POP POP PUSH2 0xBAB JUMP JUMPDEST PUSH1 0x1 PUSH1 0x1 PUSH1 0x70 SHL SUB NOT DUP2 AND ISZERO PUSH2 0x1313 JUMPI PUSH1 0xF0 DUP2 SWAP1 SHR PUSH2 0x3FFF AND DUP4 DUP2 EQ ISZERO PUSH2 0x1300 JUMPI POP PUSH1 0x1 PUSH1 0xFE SHL SWAP1 DUP2 AND EQ SWAP1 POP PUSH2 0xBAB JUMP JUMPDEST POP PUSH1 0x10 SHL PUSH1 0x1 PUSH1 0x1 PUSH1 0x80 SHL SUB NOT AND PUSH2 0x12CE JUMP JUMPDEST POP PUSH1 0x0 SWAP4 SWAP3 POP POP POP JUMP JUMPDEST PUSH1 0x0 DUP1 PUSH1 0x0 DUP1 PUSH1 0x0 PUSH2 0x132D PUSH2 0x2515 JUMP JUMPDEST PUSH1 0x1 PUSH1 0x1 PUSH1 0xA0 SHL SUB DUP9 AND PUSH1 0x0 SWAP1 DUP2 MSTORE PUSH1 0x20 DUP3 DUP2 MSTORE PUSH1 0x40 DUP1 DUP4 KECCAK256 DUP11 DUP5 MSTORE SWAP1 SWAP2 MSTORE SWAP1 KECCAK256 DUP1 SLOAD PUSH1 0x1 PUSH1 0x1 PUSH1 0x50 SHL SUB DUP2 AND SWAP7 POP PUSH1 0x1 PUSH1 0x50 SHL DUP2 DIV PUSH4 0xFFFFFFFF AND SWAP6 POP SWAP2 SWAP3 POP SWAP1 PUSH2 0x1388 SWAP1 PUSH1 0x1 PUSH1 0x70 SHL SWAP1 DIV PUSH7 0xFFFFFFFFFFFFFF AND PUSH2 0x2522 JUMP JUMPDEST SWAP1 SLOAD PUSH1 0x1 PUSH1 0xA8 SHL SWAP1 DIV PUSH1 0xA SWAP1 DUP2 SIGNEXTEND SWAP1 SIGNEXTEND SWAP9 SWAP5 SWAP8 POP SWAP3 SWAP6 POP SWAP2 SWAP4 POP POP POP JUMP JUMPDEST PUSH1 0x0 DUP1 PUSH1 0x0 DUP6 SGT PUSH2 0x13BB JUMPI DUP3 PUSH1 0x40 ADD MLOAD PUSH2 0x13C1 JUMP JUMPDEST DUP3 PUSH1 0x60 ADD MLOAD JUMPDEST SWAP1 POP PUSH1 0x0 DUP2 SGT PUSH2 0x13D0 JUMPI PUSH1 0x0 DUP1 REVERT JUMPDEST PUSH2 0x13EC DUP2 PUSH2 0xAC7 PUSH1 0x64 PUSH2 0xAC1 PUSH2 0x13E5 DUP10 PUSH2 0x3E2 JUMP JUMPDEST DUP9 SWAP1 PUSH2 0x2530 JUMP JUMPDEST SWAP6 SWAP5 POP POP POP POP POP JUMP JUMPDEST PUSH1 0x0 DUP1 PUSH2 0x4CA DUP5 PUSH1 0x20 ADD MLOAD PUSH2 0xAC7 DUP7 PUSH1 0x40 ADD MLOAD PUSH2 0xAC1 PUSH5 0x2540BE400 DUP9 PUSH2 0xB5D SWAP1 SWAP2 SWAP1 PUSH4 0xFFFFFFFF AND JUMP JUMPDEST PUSH2 0x1428 PUSH2 0x3D10 JUMP JUMPDEST PUSH1 0x0 DUP6 PUSH1 0x20 ADD MLOAD MLOAD PUSH1 0x0 EQ PUSH2 0x143C JUMPI PUSH1 0x0 DUP1 REVERT JUMPDEST PUSH2 0x1444 PUSH2 0x3D75 JUMP JUMPDEST PUSH2 0x144C PUSH2 0x3D10 JUMP JUMPDEST DUP8 MLOAD MLOAD JUMPDEST PUSH1 0x0 NOT DUP2 ADD SWAP1 ISZERO PUSH2 0x1659 JUMPI PUSH1 0x0 DUP10 PUSH1 0x0 ADD MLOAD DUP3 DUP2 MLOAD DUP2 LT PUSH2 0x146D JUMPI INVALID JUMPDEST PUSH1 0x20 MUL PUSH1 0x20 ADD ADD MLOAD SWAP1 POP PUSH2 0x148E DUP2 DUP11 PUSH2 0x120 ADD MLOAD PUSH1 0x0 ADD MLOAD PUSH2 0xFFFF AND PUSH2 0x2552 JUMP JUMPDEST PUSH2 0x1498 JUMPI POP PUSH2 0x1654 JUMP JUMPDEST PUSH2 0x14A9 DUP2 DUP11 PUSH2 0x120 ADD MLOAD DUP7 DUP12 PUSH2 0x258E JUMP JUMPDEST PUSH1 0x20 DUP6 ADD MSTORE PUSH1 0x40 DUP1 DUP6 ADD DUP3 SWAP1 MSTORE DUP3 ADD MLOAD PUSH2 0x14C4 SWAP2 DUP12 SWAP2 PUSH2 0x25C2 JUMP JUMPDEST PUSH1 0xA0 DUP6 ADD DUP2 SWAP1 MSTORE DUP2 DUP6 MSTORE DUP9 SWAP2 PUSH2 0x14D9 SWAP2 PUSH2 0x21E2 JUMP JUMPDEST SGT PUSH2 0x151E JUMPI PUSH2 0x14E8 DUP11 DUP4 PUSH2 0x261A JUMP JUMPDEST DUP9 PUSH2 0x140 ADD MLOAD PUSH2 0x1505 JUMPI PUSH1 0x60 DUP2 ADD MLOAD PUSH2 0x1502 SWAP1 DUP6 SWAP1 PUSH2 0x276A JUMP JUMPDEST POP POP JUMPDEST PUSH1 0xA0 DUP4 ADD MLOAD DUP4 MLOAD PUSH2 0x1515 SWAP2 PUSH2 0x1667 JUMP JUMPDEST DUP8 SUB SWAP7 POP PUSH2 0x15F1 JUMP JUMPDEST PUSH1 0xA0 DUP4 ADD MLOAD DUP4 MLOAD PUSH1 0x0 SWAP2 PUSH2 0x1544 SWAP2 PUSH2 0x1535 SWAP2 PUSH2 0x21E2 JUMP JUMPDEST PUSH1 0x60 DUP5 ADD MLOAD PUSH2 0xAC7 SWAP1 DUP12 PUSH2 0xB5D JUMP JUMPDEST SWAP1 POP DUP10 PUSH2 0x140 ADD MLOAD PUSH2 0x1569 JUMPI PUSH2 0x155A DUP6 DUP3 PUSH2 0x276A JUMP JUMPDEST PUSH1 0x20 DUP7 ADD MSTORE PUSH1 0x40 DUP6 ADD MSTORE PUSH2 0x15B6 JUMP JUMPDEST PUSH2 0x1588 DUP6 PUSH1 0x80 ADD MLOAD PUSH2 0xAC7 DUP4 DUP9 PUSH1 0x60 ADD MLOAD PUSH2 0xB5D SWAP1 SWAP2 SWAP1 PUSH4 0xFFFFFFFF AND JUMP JUMPDEST DUP5 PUSH1 0x40 ADD DUP2 DUP2 MSTORE POP POP PUSH2 0x15B0 DUP6 PUSH1 0x80 ADD MLOAD PUSH2 0xAC7 DUP4 DUP9 PUSH1 0x40 ADD MLOAD PUSH2 0xB5D SWAP1 SWAP2 SWAP1 PUSH4 0xFFFFFFFF AND JUMP JUMPDEST PUSH1 0x20 DUP6 ADD MSTORE JUMPDEST PUSH2 0x15C9 DUP11 DUP6 PUSH1 0x40 ADD MLOAD DUP5 PUSH1 0x40 ADD MLOAD PUSH2 0x25C2 JUMP JUMPDEST PUSH1 0xA0 DUP7 ADD MSTORE DUP5 MSTORE PUSH1 0x60 DUP3 ADD MLOAD PUSH2 0x15DF SWAP1 DUP3 PUSH2 0x21E2 JUMP JUMPDEST PUSH1 0x60 DUP4 ADD MSTORE POP PUSH1 0x1 PUSH1 0xA0 DUP3 ADD MSTORE PUSH1 0x0 SWAP7 POP JUMPDEST PUSH1 0xA0 DUP4 ADD MLOAD PUSH1 0x60 DUP5 ADD MLOAD PUSH2 0x1604 SWAP2 PUSH2 0x127D JUMP JUMPDEST PUSH1 0x60 DUP5 ADD MSTORE PUSH1 0x40 DUP4 ADD MLOAD PUSH1 0x80 DUP5 ADD MLOAD PUSH2 0x161C SWAP2 PUSH2 0x127D JUMP JUMPDEST PUSH1 0x80 DUP5 ADD MSTORE PUSH2 0x120 DUP10 ADD MLOAD MLOAD PUSH1 0x20 DUP1 DUP4 ADD MLOAD SWAP1 DUP6 ADD MLOAD PUSH2 0x1647 SWAP3 DUP14 SWAP3 PUSH2 0xFFFF SWAP1 SWAP2 AND SWAP2 PUSH1 0x1 SWAP1 PUSH2 0x2819 JUMP JUMPDEST DUP7 PUSH2 0x1652 JUMPI POP PUSH2 0x1659 JUMP JUMPDEST POP JUMPDEST PUSH2 0x1450 JUMP JUMPDEST POP SWAP8 SWAP4 SWAP7 POP SWAP3 SWAP5 POP POP POP POP POP JUMP JUMPDEST DUP1 DUP3 SUB DUP3 DUP2 SGT ISZERO PUSH1 0x0 DUP4 SLT ISZERO EQ PUSH2 0xBAB JUMPI PUSH1 0x0 DUP1 REVERT JUMPDEST PUSH1 0x0 DUP2 PUSH1 0x0 NOT EQ DUP1 ISZERO PUSH2 0x1693 JUMPI POP PUSH1 0x1 PUSH1 0xFF SHL DUP4 EQ JUMPDEST ISZERO PUSH2 0x169D JUMPI PUSH1 0x0 DUP1 REVERT JUMPDEST DUP2 DUP4 DUP2 PUSH2 0x16A6 JUMPI INVALID JUMPDEST SDIV SWAP4 SWAP3 POP POP POP JUMP JUMPDEST PUSH1 0x0 DUP1 PUSH2 0x16C1 PUSH1 0x64 PUSH2 0xAC7 DUP7 PUSH1 0x28 PUSH2 0xB5D JUMP JUMPDEST SWAP1 POP DUP5 DUP5 DUP2 SGT ISZERO PUSH2 0x16CF JUMPI POP DUP4 JUMPDEST DUP2 DUP7 SLT ISZERO PUSH2 0x16DA JUMPI POP DUP1 JUMPDEST PUSH1 0x0 DUP5 SGT DUP1 ISZERO PUSH2 0x16E9 JUMPI POP DUP4 DUP2 SGT JUMPDEST ISZERO PUSH2 0x13EC JUMPI POP SWAP2 SWAP5 SWAP4 POP POP POP POP JUMP JUMPDEST PUSH2 0x1700 PUSH2 0x3D46 JUMP JUMPDEST PUSH1 0x0 PUSH2 0x170A PUSH2 0x291E JUMP JUMPDEST PUSH1 0x0 DUP6 DUP2 MSTORE PUSH1 0x20 DUP3 DUP2 MSTORE PUSH1 0x40 DUP1 DUP4 KECCAK256 DUP8 ISZERO ISZERO DUP5 MSTORE DUP3 MSTORE SWAP2 DUP3 SWAP1 KECCAK256 DUP3 MLOAD PUSH1 0xA0 DUP2 ADD DUP5 MSTORE DUP2 SLOAD PUSH1 0x1 PUSH1 0x1 PUSH1 0xA0 SHL SUB DUP2 AND DUP3 MSTORE PUSH1 0xFF PUSH1 0x1 PUSH1 0xA0 SHL DUP3 DIV DUP2 AND ISZERO ISZERO SWAP5 DUP4 ADD SWAP5 SWAP1 SWAP5 MSTORE PUSH1 0x1 PUSH1 0xB0 SHL DUP2 DIV DUP5 AND PUSH1 0xA EXP SWAP5 DUP3 ADD SWAP5 SWAP1 SWAP5 MSTORE SWAP4 SWAP5 POP SWAP3 SWAP2 PUSH1 0x60 DUP4 ADD SWAP2 PUSH1 0x1 PUSH1 0xA8 SHL SWAP1 SWAP2 DIV AND PUSH1 0x4 DUP2 GT ISZERO PUSH2 0x177F JUMPI INVALID JUMPDEST DUP2 MSTORE SWAP2 SLOAD PUSH1 0x1 PUSH1 0xB8 SHL SWAP1 DIV PUSH9 0xFFFFFFFFFFFFFFFFFF AND PUSH1 0x20 SWAP1 SWAP3 ADD SWAP2 SWAP1 SWAP2 MSTORE SWAP5 SWAP4 POP POP POP POP JUMP JUMPDEST PUSH1 0x0 DUP1 PUSH1 0x0 DUP6 PUSH1 0x20 ADD MLOAD ISZERO PUSH2 0x1837 JUMPI DUP6 MLOAD PUSH1 0x40 MLOAD PUSH4 0x70A08231 PUSH1 0xE0 SHL DUP2 MSTORE PUSH1 0x1 PUSH1 0x1 PUSH1 0xA0 SHL SUB SWAP1 SWAP2 AND SWAP1 PUSH4 0x70A08231 SWAP1 PUSH2 0x17E4 SWAP1 ADDRESS SWAP1 PUSH1 0x4 ADD PUSH2 0x4428 JUMP JUMPDEST PUSH1 0x20 PUSH1 0x40 MLOAD DUP1 DUP4 SUB DUP2 DUP7 DUP1 EXTCODESIZE ISZERO DUP1 ISZERO PUSH2 0x17FC JUMPI PUSH1 0x0 DUP1 REVERT JUMPDEST POP GAS STATICCALL ISZERO DUP1 ISZERO PUSH2 0x1810 JUMPI RETURNDATASIZE PUSH1 0x0 DUP1 RETURNDATACOPY RETURNDATASIZE PUSH1 0x0 REVERT JUMPDEST POP POP POP POP PUSH1 0x40 MLOAD RETURNDATASIZE PUSH1 0x1F NOT PUSH1 0x1F DUP3 ADD AND DUP3 ADD DUP1 PUSH1 0x40 MSTORE POP DUP2 ADD SWAP1 PUSH2 0x1834 SWAP2 SWAP1 PUSH2 0x4410 JUMP JUMPDEST SWAP2 POP JUMPDEST DUP6 MLOAD PUSH2 0x1844 SWAP1 DUP7 DUP7 PUSH2 0x292B JUMP JUMPDEST DUP6 PUSH1 0x20 ADD MLOAD DUP1 PUSH2 0x1858 JUMPI POP PUSH1 0x0 DUP7 PUSH1 0x80 ADD MLOAD GT JUMPDEST ISZERO PUSH2 0x18DF JUMPI DUP6 MLOAD PUSH1 0x40 MLOAD PUSH4 0x70A08231 PUSH1 0xE0 SHL DUP2 MSTORE PUSH1 0x1 PUSH1 0x1 PUSH1 0xA0 SHL SUB SWAP1 SWAP2 AND SWAP1 PUSH4 0x70A08231 SWAP1 PUSH2 0x188C SWAP1 ADDRESS SWAP1 PUSH1 0x4 ADD PUSH2 0x4428 JUMP JUMPDEST PUSH1 0x20 PUSH1 0x40 MLOAD DUP1 DUP4 SUB DUP2 DUP7 DUP1 EXTCODESIZE ISZERO DUP1 ISZERO PUSH2 0x18A4 JUMPI PUSH1 0x0 DUP1 REVERT JUMPDEST POP GAS STATICCALL ISZERO DUP1 ISZERO PUSH2 0x18B8 JUMPI RETURNDATASIZE PUSH1 0x0 DUP1 RETURNDATACOPY RETURNDATASIZE PUSH1 0x0 REVERT JUMPDEST POP POP POP POP PUSH1 0x40 MLOAD RETURNDATASIZE PUSH1 0x1F NOT PUSH1 0x1F DUP3 ADD AND DUP3 ADD DUP1 PUSH1 0x40 MSTORE POP DUP2 ADD SWAP1 PUSH2 0x18DC SWAP2 SWAP1 PUSH2 0x4410 JUMP JUMPDEST SWAP1 POP JUMPDEST PUSH1 0x80 DUP7 ADD MLOAD ISZERO PUSH2 0x191A JUMPI PUSH1 0x0 PUSH2 0x18FD DUP8 PUSH2 0x18F8 DUP5 PUSH2 0x295B JUMP JUMPDEST PUSH2 0x2975 JUMP JUMPDEST SWAP1 POP PUSH2 0x190C DUP8 PUSH1 0x80 ADD MLOAD PUSH2 0x295B JUMP JUMPDEST DUP2 SGT ISZERO PUSH2 0x1918 JUMPI PUSH1 0x0 DUP1 REVERT JUMPDEST POP JUMPDEST DUP6 PUSH1 0x20 ADD MLOAD ISZERO PUSH2 0x193F JUMPI PUSH2 0x1936 PUSH2 0x1931 DUP3 DUP5 PUSH2 0x29A5 JUMP JUMPDEST PUSH2 0x295B JUMP JUMPDEST SWAP3 POP POP POP PUSH2 0xC9D JUMP JUMPDEST PUSH2 0x1936 DUP5 PUSH2 0x295B JUMP JUMPDEST PUSH1 0x40 MLOAD PUSH4 0xA9059CBB PUSH1 0xE0 SHL DUP2 MSTORE PUSH1 0x1 PUSH1 0x1 PUSH1 0xA0 SHL SUB DUP5 AND SWAP1 PUSH4 0xA9059CBB SWAP1 PUSH2 0x1976 SWAP1 DUP6 SWAP1 DUP6 SWAP1 PUSH1 0x4 ADD PUSH2 0x4485 JUMP JUMPDEST PUSH1 0x0 PUSH1 0x40 MLOAD DUP1 DUP4 SUB DUP2 PUSH1 0x0 DUP8 DUP1 EXTCODESIZE ISZERO DUP1 ISZERO PUSH2 0x1990 JUMPI PUSH1 0x0 DUP1 REVERT JUMPDEST POP GAS CALL ISZERO DUP1 ISZERO PUSH2 0x19A4 JUMPI RETURNDATASIZE PUSH1 0x0 DUP1 RETURNDATACOPY RETURNDATASIZE PUSH1 0x0 REVERT JUMPDEST POP POP POP POP PUSH2 0x19B0 PUSH2 0x2A02 JUMP JUMPDEST POP POP POP JUMP JUMPDEST PUSH1 0x0 DUP1 PUSH1 0x0 PUSH2 0x19CB DUP7 PUSH1 0x0 ADD MLOAD PUSH2 0xFFFF AND PUSH2 0xBB1 JUMP JUMPDEST SWAP1 POP PUSH1 0x0 PUSH2 0x19E6 DUP8 PUSH1 0x80 ADD MLOAD DUP4 PUSH2 0xC65 SWAP1 SWAP2 SWAP1 PUSH4 0xFFFFFFFF AND JUMP JUMPDEST SWAP1 POP DUP1 PUSH2 0x19FB JUMPI PUSH1 0x0 DUP1 SWAP4 POP SWAP4 POP POP POP PUSH2 0x363 JUMP JUMPDEST DUP5 DUP1 ISZERO PUSH2 0x1A08 JUMPI POP PUSH1 0x0 DUP2 SLT JUMPDEST ISZERO PUSH2 0x1A65 JUMPI PUSH1 0x0 PUSH2 0x1A20 DUP9 PUSH1 0x0 ADD MLOAD PUSH2 0xFFFF AND PUSH2 0x2A52 JUMP JUMPDEST SWAP1 POP PUSH1 0x0 PUSH2 0x1A39 DUP3 PUSH2 0x1A31 DUP6 PUSH2 0x3E2 JUMP JUMPDEST DUP7 SWAP2 SWAP1 PUSH2 0x2A65 JUMP JUMPDEST SWAP1 POP PUSH2 0x1A50 DUP9 PUSH2 0x1A48 DUP4 PUSH2 0x3E2 JUMP JUMPDEST DUP5 SWAP2 SWAP1 PUSH2 0xCA4 JUMP JUMPDEST SWAP6 POP PUSH2 0x1A5C DUP5 DUP5 PUSH2 0x2975 JUMP JUMPDEST SWAP5 POP POP POP PUSH2 0x1A7F JUMP JUMPDEST PUSH2 0x1A70 DUP3 DUP8 DUP4 PUSH2 0xCA4 JUMP JUMPDEST SWAP4 POP PUSH2 0x1A7C DUP3 DUP6 PUSH2 0x2975 JUMP JUMPDEST SWAP3 POP JUMPDEST POP POP SWAP4 POP SWAP4 SWAP2 POP POP JUMP JUMPDEST DUP2 MLOAD PUSH1 0x0 SWAP1 TIMESTAMP SWAP1 DUP3 SWAP1 PUSH2 0x1A9F SWAP1 PUSH2 0xFFFF AND PUSH2 0x2C7E JUMP JUMPDEST SWAP1 POP PUSH1 0x0 PUSH2 0x1AB2 DUP3 DUP8 PUSH1 0xC0 ADD MLOAD DUP6 PUSH2 0x2CA4 JUMP JUMPDEST SWAP1 POP PUSH1 0x0 PUSH2 0x1AD9 DUP4 PUSH2 0x1AC7 DUP10 PUSH1 0x40 ADD MLOAD PUSH2 0x2D86 JUMP JUMPDEST DUP10 PUSH1 0xE0 ADD MLOAD DUP11 PUSH2 0x100 ADD MLOAD DUP9 DUP8 PUSH2 0x2D95 JUMP JUMPDEST PUSH1 0xE0 DUP9 ADD DUP6 SWAP1 MSTORE PUSH2 0x100 DUP9 ADD DUP4 SWAP1 MSTORE SWAP1 POP DUP1 ISZERO PUSH2 0x121A JUMPI PUSH2 0x121A DUP7 DUP3 PUSH2 0x2E3C JUMP JUMPDEST PUSH1 0x0 PUSH2 0x1B04 PUSH2 0x2515 JUMP JUMPDEST PUSH1 0x1 PUSH1 0x1 PUSH1 0xA0 SHL SUB DUP9 AND PUSH1 0x0 SWAP1 DUP2 MSTORE PUSH1 0x20 DUP3 DUP2 MSTORE PUSH1 0x40 DUP1 DUP4 KECCAK256 DUP11 DUP5 MSTORE SWAP1 SWAP2 MSTORE SWAP1 KECCAK256 SWAP1 SWAP2 POP PUSH1 0x1 PUSH1 0x1 PUSH1 0x57 SHL SUB NOT DUP7 SLT DUP1 ISZERO SWAP1 PUSH2 0x1B47 JUMPI POP PUSH1 0x1 PUSH1 0x1 PUSH1 0x57 SHL SUB DUP7 SGT ISZERO JUMPDEST PUSH2 0x1B50 JUMPI PUSH1 0x0 DUP1 REVERT JUMPDEST PUSH1 0x0 DUP6 SLT ISZERO DUP1 ISZERO PUSH2 0x1B68 JUMPI POP PUSH1 0x1 PUSH1 0x1 PUSH1 0x50 SHL SUB DUP6 SGT ISZERO JUMPDEST PUSH2 0x1B71 JUMPI PUSH1 0x0 DUP1 REVERT JUMPDEST PUSH4 0xFFFFFFFF DUP5 GT ISZERO PUSH2 0x1B82 JUMPI PUSH1 0x0 DUP1 REVERT JUMPDEST DUP1 SLOAD PUSH10 0xFFFFFFFFFFFFFFFFFFFF NOT AND PUSH1 0x1 PUSH1 0x1 PUSH1 0x50 SHL SUB DUP7 AND OR PUSH4 0xFFFFFFFF PUSH1 0x50 SHL NOT AND PUSH1 0x1 PUSH1 0x50 SHL PUSH4 0xFFFFFFFF DUP7 AND MUL OR PUSH1 0x1 PUSH1 0x1 PUSH1 0xA8 SHL SUB AND PUSH1 0x1 PUSH1 0xA8 SHL PUSH11 0xFFFFFFFFFFFFFFFFFFFFFF PUSH1 0xA DUP10 SWAP1 SIGNEXTEND AND MUL OR DUP2 SSTORE PUSH2 0x1BE1 DUP4 PUSH2 0x2E5B JUMP JUMPDEST DUP2 SLOAD PUSH7 0xFFFFFFFFFFFFFF SWAP2 SWAP1 SWAP2 AND PUSH1 0x1 PUSH1 0x70 SHL MUL PUSH7 0xFFFFFFFFFFFFFF PUSH1 0x70 SHL NOT SWAP1 SWAP2 AND OR SWAP1 SSTORE POP POP POP POP POP POP POP JUMP JUMPDEST DUP3 PUSH1 0x0 LT DUP1 ISZERO PUSH2 0x1C22 JUMPI POP PUSH2 0x3FFF DUP4 GT ISZERO JUMPDEST PUSH2 0x1C2B JUMPI PUSH1 0x0 DUP1 REVERT JUMPDEST DUP2 DUP1 ISZERO PUSH2 0x1C3F JUMPI POP DUP3 DUP5 PUSH1 0x60 ADD MLOAD PUSH2 0xFFFF AND EQ JUMPDEST ISZERO PUSH2 0x1C49 JUMPI PUSH2 0x1E0A JUMP JUMPDEST PUSH1 0x80 DUP5 ADD MLOAD PUSH1 0x0 SWAP1 DUP2 JUMPDEST PUSH1 0x1 PUSH1 0x1 PUSH1 0x70 SHL SUB NOT DUP3 AND ISZERO PUSH2 0x1DC4 JUMPI PUSH1 0xF0 DUP3 SWAP1 SHR PUSH2 0x3FFF AND DUP7 DUP2 EQ DUP1 ISZERO PUSH2 0x1C78 JUMPI POP DUP6 JUMPDEST ISZERO PUSH2 0x1CB0 JUMPI POP PUSH1 0x80 DUP8 ADD DUP1 MLOAD PUSH1 0x1 PUSH1 0x1 PUSH1 0xF0 SHL SUB NOT DUP7 AND PUSH1 0x10 SWAP1 SWAP4 MUL SWAP3 SWAP1 SWAP3 SHR SWAP2 SWAP1 SWAP2 OR PUSH1 0x1 PUSH1 0x1 PUSH1 0x70 SHL SUB NOT AND SWAP1 MSTORE POP PUSH2 0x1E0A SWAP1 POP JUMP JUMPDEST DUP7 DUP2 EQ DUP1 ISZERO PUSH2 0x1CBD JUMPI POP DUP6 ISZERO JUMPDEST ISZERO PUSH2 0x1D12 JUMPI PUSH1 0x1 PUSH1 0x1 PUSH1 0xF0 SHL SUB NOT DUP6 AND NOT SWAP3 SWAP1 SWAP3 AND SWAP2 PUSH1 0x3 PUSH1 0xFE SHL DUP4 AND PUSH2 0x1CF0 JUMPI PUSH1 0x10 DUP4 PUSH1 0x1 PUSH1 0x1 PUSH1 0x70 SHL SUB NOT AND SWAP1 SHL SWAP3 POP JUMPDEST POP PUSH1 0x1 PUSH1 0x1 PUSH1 0x70 SHL SUB NOT SWAP2 DUP3 AND PUSH1 0x10 SWAP1 SWAP2 MUL SHR SWAP2 SWAP1 SWAP2 OR AND PUSH1 0x80 DUP6 ADD MSTORE PUSH2 0x1E0A JUMP JUMPDEST DUP7 DUP2 GT DUP1 ISZERO PUSH2 0x1D1E JUMPI POP DUP6 JUMPDEST ISZERO PUSH2 0x1D78 JUMPI PUSH1 0x80 DUP9 DUP2 ADD MLOAD PUSH1 0x1 PUSH1 0x1 PUSH1 0xF0 SHL SUB NOT PUSH1 0xF0 DUP11 SWAP1 SHL DUP9 OR DUP2 AND PUSH1 0x10 DUP7 MUL SHR SWAP7 SWAP1 SWAP7 OR SWAP6 SWAP2 SHL AND ISZERO PUSH2 0x1D52 JUMPI PUSH1 0x0 DUP1 REVERT JUMPDEST POP PUSH1 0x1 PUSH1 0x1 PUSH1 0x70 SHL SUB NOT SWAP2 DUP3 AND PUSH1 0x1 SWAP2 SWAP1 SWAP2 ADD PUSH1 0x10 MUL SHR SWAP2 SWAP1 SWAP2 OR AND PUSH1 0x80 DUP6 ADD MSTORE PUSH2 0x1E0A JUMP JUMPDEST DUP7 DUP2 GT DUP1 ISZERO PUSH2 0x1D85 JUMPI POP DUP6 ISZERO JUMPDEST ISZERO PUSH2 0x1D93 JUMPI POP POP POP POP PUSH2 0x1E0A JUMP JUMPDEST POP PUSH1 0x1 PUSH1 0x1 PUSH1 0xF0 SHL SUB NOT DUP3 AND PUSH1 0x10 DUP3 DUP2 MUL SWAP2 SWAP1 SWAP2 SHR SWAP4 SWAP1 SWAP4 OR SWAP3 SWAP2 SWAP1 SWAP2 SHL PUSH1 0x1 PUSH1 0x1 PUSH1 0x80 SHL SUB NOT AND SWAP1 PUSH1 0x1 ADD PUSH2 0x1C53 JUMP JUMPDEST DUP5 PUSH2 0x1DD1 JUMPI POP POP POP PUSH2 0x1E0A JUMP JUMPDEST PUSH1 0x9 DUP2 LT PUSH2 0x1DDE JUMPI PUSH1 0x0 DUP1 REVERT JUMPDEST PUSH1 0x1 PUSH1 0x1 PUSH1 0xF0 SHL SUB NOT PUSH1 0xF0 DUP8 SWAP1 SHL DUP6 OR AND PUSH1 0x10 SWAP1 SWAP2 MUL SHR SWAP2 SWAP1 SWAP2 OR PUSH1 0x1 PUSH1 0x1 PUSH1 0x70 SHL SUB NOT AND PUSH1 0x80 DUP7 ADD MSTORE POP JUMPDEST POP POP POP POP JUMP JUMPDEST PUSH1 0x0 PUSH3 0xF4240 DUP3 PUSH1 0x10 DUP2 GT ISZERO PUSH2 0x1E22 JUMPI INVALID JUMPDEST ADD SWAP3 SWAP2 POP POP JUMP JUMPDEST PUSH1 0x0 DUP1 DUP1 DUP1 DUP1 DUP1 DUP1 DUP1 JUMPDEST DUP10 MLOAD MLOAD DUP2 LT ISZERO PUSH2 0x1EBA JUMPI PUSH1 0x0 DUP11 PUSH1 0x0 ADD MLOAD DUP3 DUP2 MLOAD DUP2 LT PUSH2 0x1E4F JUMPI INVALID JUMPDEST PUSH1 0x20 MUL PUSH1 0x20 ADD ADD MLOAD SWAP1 POP PUSH1 0x3 DUP1 DUP2 GT ISZERO PUSH2 0x1E65 JUMPI INVALID JUMPDEST DUP2 PUSH1 0xA0 ADD MLOAD PUSH1 0x3 DUP2 GT ISZERO PUSH2 0x1E75 JUMPI INVALID JUMPDEST EQ ISZERO PUSH2 0x1E80 JUMPI PUSH1 0x0 DUP1 REVERT JUMPDEST PUSH1 0x2 DUP2 PUSH1 0xA0 ADD MLOAD PUSH1 0x3 DUP2 GT ISZERO PUSH2 0x1E92 JUMPI INVALID JUMPDEST EQ ISZERO DUP1 ISZERO PUSH2 0x1EA2 JUMPI POP PUSH1 0x60 DUP2 ADD MLOAD ISZERO JUMPDEST ISZERO PUSH2 0x1EB1 JUMPI PUSH2 0x1EB1 DUP12 DUP4 PUSH2 0x261A JUMP JUMPDEST POP PUSH1 0x1 ADD PUSH2 0x1E33 JUMP JUMPDEST POP PUSH1 0x0 JUMPDEST DUP10 MLOAD MLOAD DUP2 LT ISZERO PUSH2 0x1F5D JUMPI PUSH1 0x0 DUP11 PUSH1 0x0 ADD MLOAD DUP3 DUP2 MLOAD DUP2 LT PUSH2 0x1EDA JUMPI INVALID JUMPDEST PUSH1 0x20 MUL PUSH1 0x20 ADD ADD MLOAD SWAP1 POP PUSH1 0x2 PUSH1 0x3 DUP2 GT ISZERO PUSH2 0x1EF1 JUMPI INVALID JUMPDEST DUP2 PUSH1 0xA0 ADD MLOAD PUSH1 0x3 DUP2 GT ISZERO PUSH2 0x1F01 JUMPI INVALID JUMPDEST EQ ISZERO PUSH2 0x1F15 JUMPI PUSH1 0x80 DUP2 ADD MLOAD PUSH1 0x0 SWAP1 SSTORE PUSH2 0x1F54 JUMP JUMPDEST PUSH1 0x1 DUP2 PUSH1 0xA0 ADD MLOAD PUSH1 0x3 DUP2 GT ISZERO PUSH2 0x1F27 JUMPI INVALID JUMPDEST EQ ISZERO PUSH2 0x1F40 JUMPI PUSH1 0x80 DUP2 ADD MLOAD DUP1 PUSH2 0x1F3D DUP4 DUP3 PUSH2 0x2E89 JUMP JUMPDEST POP POP JUMPDEST PUSH2 0x1F4C DUP2 DUP7 DUP7 DUP7 PUSH2 0x2FB2 JUMP JUMPDEST SWAP2 SWAP7 POP SWAP5 POP SWAP3 POP JUMPDEST POP PUSH1 0x1 ADD PUSH2 0x1EBE JUMP JUMPDEST POP PUSH1 0x60 DUP10 ADD MLOAD PUSH1 0x0 PUSH2 0x1F6D PUSH2 0x3015 JUMP JUMPDEST PUSH1 0x1 PUSH1 0x1 PUSH1 0xA0 SHL SUB DUP12 AND PUSH1 0x0 SWAP1 DUP2 MSTORE PUSH1 0x20 DUP3 SWAP1 MSTORE PUSH1 0x40 DUP2 KECCAK256 SWAP2 SWAP3 POP JUMPDEST DUP13 PUSH1 0x20 ADD MLOAD MLOAD DUP2 LT ISZERO PUSH2 0x2037 JUMPI PUSH1 0x0 DUP14 PUSH1 0x20 ADD MLOAD DUP3 DUP2 MLOAD DUP2 LT PUSH2 0x1FA8 JUMPI INVALID JUMPDEST PUSH1 0x20 MUL PUSH1 0x20 ADD ADD MLOAD SWAP1 POP DUP1 PUSH1 0x60 ADD MLOAD PUSH1 0x0 EQ ISZERO PUSH2 0x1FC5 JUMPI POP PUSH2 0x202F JUMP JUMPDEST PUSH1 0x2 DUP2 PUSH1 0xA0 ADD MLOAD PUSH1 0x3 DUP2 GT ISZERO PUSH2 0x1FD7 JUMPI INVALID JUMPDEST EQ ISZERO DUP1 ISZERO PUSH2 0x1FF5 JUMPI POP PUSH1 0x3 DUP2 PUSH1 0xA0 ADD MLOAD PUSH1 0x3 DUP2 GT ISZERO PUSH2 0x1FF2 JUMPI INVALID JUMPDEST EQ ISZERO JUMPDEST PUSH2 0x1FFE JUMPI PUSH1 0x0 DUP1 REVERT JUMPDEST PUSH2 0x200A DUP2 DUP10 DUP10 DUP10 PUSH2 0x2FB2 JUMP JUMPDEST SWAP2 SWAP10 POP SWAP8 POP SWAP6 POP PUSH2 0x2027 DUP2 DUP5 DUP8 PUSH1 0x10 DUP2 LT PUSH2 0x2021 JUMPI INVALID JUMPDEST ADD PUSH2 0x2E89 JUMP JUMPDEST PUSH1 0x1 DUP6 ADD SWAP5 POP POP JUMPDEST PUSH1 0x1 ADD PUSH2 0x1F89 JUMP JUMPDEST POP PUSH1 0x10 DUP4 GT ISZERO DUP1 ISZERO PUSH2 0x204E JUMPI POP PUSH5 0xFFFFFFFFFF DUP5 GT ISZERO JUMPDEST PUSH2 0x2057 JUMPI PUSH1 0x0 DUP1 REVERT JUMPDEST POP SWAP4 SWAP11 SWAP3 SWAP10 POP SWAP8 POP SWAP6 POP SWAP4 POP POP POP POP JUMP JUMPDEST PUSH1 0x0 TIMESTAMP PUSH2 0x2074 DUP4 PUSH2 0xFC0 JUMP JUMPDEST ISZERO PUSH2 0x2095 JUMPI PUSH2 0x2082 DUP2 PUSH2 0x3022 JUMP JUMPDEST DUP4 MLOAD PUSH5 0xFFFFFFFFFF AND LT SWAP2 POP PUSH2 0x3F3 SWAP1 POP JUMP JUMPDEST DUP3 MLOAD PUSH5 0xFFFFFFFFFF AND ISZERO DUP1 ISZERO SWAP1 PUSH2 0x20B4 JUMPI POP DUP3 MLOAD PUSH5 0xFFFFFFFFFF AND DUP2 LT ISZERO JUMPDEST SWAP2 POP POP PUSH2 0x3F3 JUMP JUMPDEST PUSH1 0x0 DUP1 PUSH32 0x7FFF7FFF7FFF7FFF7FFF7FFF7FFF7FFF7FFF0000000000000000000000000000 DUP4 AND DUP2 JUMPDEST PUSH1 0x1 PUSH1 0x1 PUSH1 0x70 SHL SUB NOT DUP3 AND ISZERO PUSH2 0x212E JUMPI PUSH1 0x1 PUSH1 0xFE SHL DUP3 DUP2 AND EQ ISZERO PUSH2 0x2118 JUMPI PUSH1 0x1 PUSH1 0x1 PUSH1 0xF0 SHL SUB NOT DUP3 AND DUP2 SHR SWAP3 SWAP1 SWAP3 OR SWAP2 PUSH1 0x10 ADD JUMPDEST PUSH1 0x10 DUP3 PUSH1 0x1 PUSH1 0x1 PUSH1 0x70 SHL SUB NOT AND SWAP1 SHL SWAP2 POP PUSH2 0x20E4 JUMP JUMPDEST POP SWAP1 SWAP4 SWAP3 POP POP POP JUMP JUMPDEST PUSH1 0x0 DUP1 PUSH1 0x0 DUP1 PUSH2 0x2146 DUP7 PUSH2 0x3043 JUMP JUMPDEST DUP1 SWAP4 POP DUP2 SWAP3 POP POP POP PUSH1 0x0 PUSH2 0x2182 DUP8 PUSH1 0xE0 ADD MLOAD PUSH1 0x60 ADD MLOAD PUSH2 0x217C DUP6 PUSH2 0xAC7 PUSH1 0x64 DUP13 PUSH1 0xC0 ADD MLOAD PUSH1 0x40 ADD MLOAD PUSH2 0xB5D SWAP1 SWAP2 SWAP1 PUSH4 0xFFFFFFFF AND JUMP JUMPDEST SWAP1 PUSH2 0x1667 JUMP JUMPDEST SWAP1 POP PUSH2 0x2193 DUP2 PUSH2 0xAC7 DUP5 PUSH1 0x64 PUSH2 0xB5D JUMP JUMPDEST SWAP5 POP POP PUSH2 0x21A5 DUP5 DUP8 PUSH1 0x60 ADD MLOAD DUP8 PUSH2 0x16AE JUMP JUMPDEST SWAP4 POP PUSH1 0x0 PUSH2 0x21C5 DUP6 DUP9 PUSH2 0x120 ADD MLOAD PUSH1 0x40 ADD MLOAD PUSH2 0x245D SWAP1 SWAP2 SWAP1 PUSH4 0xFFFFFFFF AND JUMP JUMPDEST SWAP1 POP PUSH2 0x21D3 DUP8 DUP5 DUP4 DUP9 PUSH2 0x2488 JUMP JUMPDEST SWAP1 SWAP6 POP SWAP4 POP POP POP JUMPDEST SWAP3 POP SWAP3 POP SWAP3 JUMP JUMPDEST PUSH1 0x0 PUSH2 0x21EE DUP4 DUP4 PUSH2 0x1667 JUMP JUMPDEST SWAP1 POP PUSH1 0x0 DUP2 SLT ISZERO PUSH2 0xBAB JUMPI PUSH1 0x0 DUP1 REVERT JUMPDEST PUSH1 0x0 DUP5 PUSH1 0x20 ADD MLOAD MLOAD PUSH1 0x0 EQ PUSH2 0x2212 JUMPI PUSH1 0x0 DUP1 REVERT JUMPDEST PUSH2 0x221A PUSH2 0x3D75 JUMP JUMPDEST DUP6 MLOAD MLOAD JUMPDEST PUSH1 0x0 NOT DUP2 ADD SWAP1 ISZERO PUSH2 0x2394 JUMPI PUSH1 0x0 DUP8 PUSH1 0x0 ADD MLOAD DUP3 DUP2 MLOAD DUP2 LT PUSH2 0x223B JUMPI INVALID JUMPDEST PUSH1 0x20 MUL PUSH1 0x20 ADD ADD MLOAD SWAP1 POP PUSH2 0x225C DUP2 DUP9 PUSH2 0x120 ADD MLOAD PUSH1 0x0 ADD MLOAD PUSH2 0xFFFF AND PUSH2 0x2552 JUMP JUMPDEST PUSH2 0x2266 JUMPI POP PUSH2 0x238F JUMP JUMPDEST PUSH1 0x0 DUP1 PUSH2 0x227A DUP4 DUP11 PUSH2 0x120 ADD MLOAD DUP8 DUP12 PUSH2 0x258E JUMP JUMPDEST SWAP2 POP SWAP2 POP DUP7 DUP3 SGT PUSH2 0x22B6 JUMPI PUSH2 0x228F DUP11 DUP6 PUSH2 0x261A JUMP JUMPDEST DUP9 PUSH2 0x140 ADD MLOAD PUSH2 0x22AC JUMPI PUSH1 0x60 DUP4 ADD MLOAD PUSH2 0x22A9 SWAP1 DUP7 SWAP1 PUSH2 0x276A JUMP JUMPDEST POP POP JUMPDEST DUP2 DUP8 SUB SWAP7 POP PUSH2 0x2357 JUMP JUMPDEST PUSH1 0x0 PUSH2 0x22D3 DUP4 PUSH2 0xAC7 DUP11 DUP8 PUSH1 0x60 ADD MLOAD PUSH2 0xB5D SWAP1 SWAP2 SWAP1 PUSH4 0xFFFFFFFF AND JUMP JUMPDEST SWAP1 POP DUP10 PUSH2 0x140 ADD MLOAD PUSH2 0x22F3 JUMPI PUSH2 0x22E9 DUP7 DUP3 PUSH2 0x276A JUMP JUMPDEST SWAP1 SWAP4 POP SWAP2 POP PUSH2 0x2336 JUMP JUMPDEST PUSH2 0x2312 DUP7 PUSH1 0x80 ADD MLOAD PUSH2 0xAC7 DUP4 DUP10 PUSH1 0x60 ADD MLOAD PUSH2 0xB5D SWAP1 SWAP2 SWAP1 PUSH4 0xFFFFFFFF AND JUMP JUMPDEST SWAP3 POP PUSH2 0x2333 DUP7 PUSH1 0x80 ADD MLOAD PUSH2 0xAC7 DUP4 DUP10 PUSH1 0x40 ADD MLOAD PUSH2 0xB5D SWAP1 SWAP2 SWAP1 PUSH4 0xFFFFFFFF AND JUMP JUMPDEST SWAP2 POP JUMPDEST PUSH1 0x60 DUP5 ADD MLOAD PUSH2 0x2345 SWAP1 DUP3 PUSH2 0x21E2 JUMP JUMPDEST PUSH1 0x60 DUP6 ADD MSTORE POP PUSH1 0x1 PUSH1 0xA0 DUP5 ADD MSTORE PUSH1 0x0 SWAP7 POP JUMPDEST PUSH2 0x120 DUP10 ADD MLOAD MLOAD PUSH1 0x20 DUP5 ADD MLOAD PUSH2 0x2378 SWAP2 DUP13 SWAP2 PUSH2 0xFFFF SWAP1 SWAP2 AND SWAP1 PUSH1 0x1 DUP6 PUSH2 0x2819 JUMP JUMPDEST DUP7 PUSH2 0x238B JUMPI PUSH1 0x0 SWAP6 POP POP POP POP POP POP PUSH2 0x4CA JUMP JUMPDEST POP POP POP JUMPDEST PUSH2 0x221E JUMP JUMPDEST POP SWAP2 SWAP6 SWAP5 POP POP POP POP POP JUMP JUMPDEST PUSH1 0xA0 DUP4 ADD MLOAD PUSH1 0x80 DUP5 ADD MLOAD PUSH1 0x0 SWAP2 DUP1 DUP4 BYTE SWAP2 PUSH1 0x3 SWAP2 SWAP1 SWAP2 BYTE SWAP1 DUP4 SWAP1 PUSH2 0x23E2 SWAP1 PUSH2 0x23C7 SWAP1 DUP6 PUSH2 0xB5D JUMP JUMPDEST PUSH2 0xAC7 DUP5 PUSH2 0xAC1 DUP13 PUSH1 0x40 ADD MLOAD DUP12 PUSH2 0xB5D SWAP1 SWAP2 SWAP1 PUSH4 0xFFFFFFFF AND JUMP JUMPDEST SWAP1 POP PUSH1 0x0 DUP6 SGT DUP1 ISZERO PUSH2 0x23F3 JUMPI POP DUP5 DUP2 SGT JUMPDEST ISZERO PUSH2 0x23FB JUMPI POP DUP4 JUMPDEST DUP8 PUSH1 0x40 ADD MLOAD DUP2 SGT ISZERO PUSH2 0x240E JUMPI POP PUSH1 0x40 DUP8 ADD MLOAD JUMPDEST PUSH2 0x2417 DUP2 PUSH2 0x3E2 JUMP JUMPDEST DUP9 PUSH1 0xA0 ADD DUP2 DUP2 MSTORE POP POP PUSH2 0x2451 PUSH2 0x244A DUP10 PUSH1 0x40 ADD MLOAD PUSH2 0xAC7 DUP6 PUSH2 0xAC7 DUP9 PUSH2 0xAC1 DUP15 PUSH1 0x80 ADD MLOAD DUP10 PUSH2 0xB5D SWAP1 SWAP2 SWAP1 PUSH4 0xFFFFFFFF AND JUMP JUMPDEST DUP8 SWAP1 PUSH2 0x21E2 JUMP JUMPDEST SWAP9 SWAP8 POP POP POP POP POP POP POP POP JUMP JUMPDEST PUSH1 0x0 DUP1 PUSH2 0x4CA DUP5 PUSH1 0x40 ADD MLOAD PUSH2 0xAC7 PUSH5 0x2540BE400 PUSH2 0xAC7 DUP8 DUP10 PUSH1 0x20 ADD MLOAD PUSH2 0xB5D SWAP1 SWAP2 SWAP1 PUSH4 0xFFFFFFFF AND JUMP JUMPDEST PUSH1 0x0 DUP1 PUSH1 0x0 PUSH2 0x24BB DUP7 PUSH2 0xAC7 PUSH2 0x24A6 DUP11 PUSH1 0xC0 ADD MLOAD DUP12 PUSH1 0xE0 ADD MLOAD PUSH2 0x3097 JUMP JUMPDEST PUSH1 0xC0 DUP12 ADD MLOAD MLOAD PUSH2 0xAC7 SWAP1 PUSH2 0xAC1 DUP12 PUSH1 0x64 PUSH2 0xB5D JUMP JUMPDEST SWAP1 POP PUSH1 0x0 PUSH2 0x24D7 DUP3 DUP10 PUSH2 0x100 ADD MLOAD PUSH2 0x13F5 SWAP1 SWAP2 SWAP1 PUSH4 0xFFFFFFFF AND JUMP JUMPDEST SWAP1 POP PUSH1 0x0 PUSH2 0x24E8 DUP10 PUSH1 0x40 ADD MLOAD PUSH2 0x3E2 JUMP JUMPDEST SWAP1 POP DUP1 DUP3 SGT ISZERO PUSH2 0x2506 JUMPI PUSH2 0x2500 DUP3 PUSH2 0xAC7 DUP9 DUP5 PUSH2 0xB5D JUMP JUMPDEST SWAP6 POP DUP1 SWAP2 POP JUMPDEST POP SWAP4 SWAP8 SWAP4 SWAP7 POP SWAP3 SWAP5 POP POP POP POP POP JUMP JUMPDEST PUSH1 0x0 DUP1 PUSH2 0xBAB PUSH1 0x6 PUSH2 0x1E10 JUMP JUMPDEST PUSH1 0x8 DUP2 SWAP1 SHR PUSH1 0xFF SWAP1 SWAP2 AND SHL SWAP1 JUMP JUMPDEST PUSH1 0x0 DUP1 PUSH2 0x4CA DUP5 PUSH1 0x20 ADD MLOAD PUSH2 0xAC7 DUP7 PUSH1 0x0 ADD MLOAD DUP7 PUSH2 0xB5D SWAP1 SWAP2 SWAP1 PUSH4 0xFFFFFFFF AND JUMP JUMPDEST DUP2 MLOAD PUSH1 0x0 SWAP1 DUP3 EQ DUP1 ISZERO PUSH2 0x256D JUMPI POP PUSH2 0x256D DUP4 PUSH1 0x40 ADD MLOAD PUSH2 0x30BC JUMP JUMPDEST DUP1 ISZERO PUSH2 0xC9D JUMPI POP PUSH1 0x0 DUP4 PUSH1 0xA0 ADD MLOAD PUSH1 0x3 DUP2 GT ISZERO PUSH2 0x2586 JUMPI INVALID JUMPDEST EQ SWAP4 SWAP3 POP POP POP JUMP JUMPDEST PUSH1 0x40 DUP5 ADD MLOAD PUSH1 0x0 SWAP1 DUP2 SWAP1 PUSH1 0x0 NOT ADD PUSH2 0x25AA DUP7 DUP7 DUP4 PUSH1 0x1 DUP9 PUSH2 0x30D2 JUMP JUMPDEST PUSH2 0x25B4 DUP8 DUP7 PUSH2 0x3145 JUMP JUMPDEST SWAP1 SWAP9 SWAP1 SWAP8 POP SWAP6 POP POP POP POP POP POP JUMP JUMPDEST PUSH1 0x0 DUP1 PUSH1 0x0 PUSH2 0x25DF DUP5 DUP8 PUSH2 0x120 ADD MLOAD PUSH2 0x31C0 SWAP1 SWAP2 SWAP1 PUSH4 0xFFFFFFFF AND JUMP JUMPDEST PUSH1 0xFF AND SWAP1 POP PUSH2 0x25FD PUSH1 0x64 PUSH2 0xAC7 PUSH2 0x25F6 DUP3 DUP6 PUSH2 0x1667 JUMP JUMPDEST DUP9 SWAP1 PUSH2 0xB5D JUMP JUMPDEST SWAP3 POP PUSH2 0x260F PUSH1 0x64 PUSH2 0xAC7 DUP6 PUSH1 0x1E PUSH2 0xB5D JUMP JUMPDEST SWAP2 POP POP SWAP4 POP SWAP4 SWAP2 POP POP JUMP JUMPDEST DUP2 MLOAD MLOAD DUP2 LT PUSH2 0x2628 JUMPI PUSH1 0x0 DUP1 REVERT JUMPDEST PUSH1 0x0 DUP3 PUSH1 0x60 ADD MLOAD GT PUSH2 0x2639 JUMPI PUSH1 0x0 DUP1 REVERT JUMPDEST PUSH1 0x0 DUP3 PUSH1 0x0 ADD MLOAD DUP3 DUP2 MLOAD DUP2 LT PUSH2 0x264B JUMPI INVALID JUMPDEST PUSH1 0x20 MUL PUSH1 0x20 ADD ADD MLOAD SWAP1 POP PUSH1 0x2 PUSH1 0x3 DUP2 GT ISZERO PUSH2 0x2662 JUMPI INVALID JUMPDEST DUP2 PUSH1 0xA0 ADD MLOAD PUSH1 0x3 DUP2 GT ISZERO PUSH2 0x2672 JUMPI INVALID JUMPDEST EQ ISZERO DUP1 ISZERO PUSH2 0x2690 JUMPI POP PUSH1 0x3 DUP2 PUSH1 0xA0 ADD MLOAD PUSH1 0x3 DUP2 GT ISZERO PUSH2 0x268D JUMPI INVALID JUMPDEST EQ ISZERO JUMPDEST PUSH2 0x2699 JUMPI PUSH1 0x0 DUP1 REVERT JUMPDEST PUSH1 0x60 DUP4 ADD DUP1 MLOAD PUSH1 0x0 NOT ADD SWAP1 MSTORE PUSH1 0x0 DUP1 DUP1 JUMPDEST DUP6 MLOAD MLOAD DUP2 LT ISZERO PUSH2 0x270C JUMPI PUSH1 0x0 DUP7 PUSH1 0x0 ADD MLOAD DUP3 DUP2 MLOAD DUP2 LT PUSH2 0x26C6 JUMPI INVALID JUMPDEST PUSH1 0x20 MUL PUSH1 0x20 ADD ADD MLOAD SWAP1 POP DUP3 DUP2 PUSH1 0x80 ADD MLOAD GT DUP1 ISZERO PUSH2 0x26F3 JUMPI POP PUSH1 0x2 DUP2 PUSH1 0xA0 ADD MLOAD PUSH1 0x3 DUP2 GT ISZERO PUSH2 0x26F0 JUMPI INVALID JUMPDEST EQ ISZERO JUMPDEST ISZERO PUSH2 0x2703 JUMPI DUP1 PUSH1 0x80 ADD MLOAD SWAP3 POP DUP2 SWAP4 POP JUMPDEST POP PUSH1 0x1 ADD PUSH2 0x26AA JUMP JUMPDEST POP DUP2 DUP5 EQ ISZERO PUSH2 0x2725 JUMPI POP POP PUSH1 0x2 PUSH1 0xA0 SWAP2 SWAP1 SWAP2 ADD MSTORE PUSH2 0x2766 JUMP JUMPDEST PUSH1 0x0 DUP6 PUSH1 0x0 ADD MLOAD DUP4 DUP2 MLOAD DUP2 LT PUSH2 0x2737 JUMPI INVALID JUMPDEST PUSH1 0x20 SWAP1 DUP2 MUL SWAP2 SWAP1 SWAP2 ADD ADD MLOAD PUSH1 0x80 DUP6 DUP2 ADD DUP1 MLOAD SWAP2 DUP4 ADD DUP1 MLOAD SWAP1 SWAP2 MSTORE MSTORE PUSH1 0x1 PUSH1 0xA0 SWAP2 DUP3 ADD MSTORE PUSH1 0x2 SWAP5 ADD SWAP4 SWAP1 SWAP4 MSTORE POP POP POP JUMPDEST POP POP JUMP JUMPDEST PUSH1 0x0 DUP1 DUP3 PUSH2 0x277D JUMPI POP PUSH1 0x0 SWAP1 POP DUP1 PUSH2 0x2812 JUMP JUMPDEST PUSH1 0x0 DUP4 SGT PUSH2 0x278A JUMPI PUSH1 0x0 DUP1 REVERT JUMPDEST PUSH2 0x27A9 DUP5 PUSH1 0x80 ADD MLOAD PUSH2 0xAC7 DUP6 DUP8 PUSH1 0x60 ADD MLOAD PUSH2 0xB5D SWAP1 SWAP2 SWAP1 PUSH4 0xFFFFFFFF AND JUMP JUMPDEST SWAP2 POP PUSH2 0x27CA DUP5 PUSH1 0x80 ADD MLOAD PUSH2 0xAC7 DUP6 DUP8 PUSH1 0x40 ADD MLOAD PUSH2 0xB5D SWAP1 SWAP2 SWAP1 PUSH4 0xFFFFFFFF AND JUMP JUMPDEST PUSH1 0x80 DUP6 ADD MLOAD SWAP1 SWAP2 POP PUSH2 0x27DC SWAP1 DUP5 PUSH2 0x21E2 JUMP JUMPDEST PUSH1 0x80 DUP6 ADD MSTORE PUSH1 0x40 DUP5 ADD MLOAD PUSH2 0x27F0 SWAP1 DUP3 PUSH2 0x21E2 JUMP JUMPDEST PUSH1 0x40 DUP6 ADD MSTORE PUSH1 0x60 DUP5 ADD MLOAD PUSH2 0x2804 SWAP1 DUP4 PUSH2 0x21E2 JUMP JUMPDEST PUSH1 0x60 DUP6 ADD MSTORE PUSH2 0x2812 DUP5 PUSH2 0x31F5 JUMP JUMPDEST SWAP3 POP SWAP3 SWAP1 POP JUMP JUMPDEST DUP5 MLOAD PUSH2 0x2828 SWAP1 DUP6 DUP6 DUP6 DUP6 PUSH2 0x324D JUMP JUMPDEST ISZERO PUSH2 0x2832 JUMPI PUSH2 0x2917 JUMP JUMPDEST PUSH1 0x40 DUP6 ADD MLOAD ISZERO PUSH2 0x285F JUMPI PUSH1 0x0 PUSH2 0x284F DUP7 PUSH1 0x20 ADD MLOAD DUP7 DUP7 DUP7 DUP7 PUSH2 0x324D JUMP JUMPDEST SWAP1 POP DUP1 ISZERO PUSH2 0x285D JUMPI POP PUSH2 0x2917 JUMP JUMPDEST POP JUMPDEST PUSH2 0x2868 DUP3 PUSH2 0x30BC JUMP JUMPDEST ISZERO PUSH2 0x287B JUMPI PUSH1 0x0 DUP2 SLT ISZERO PUSH2 0x287B JUMPI PUSH1 0x0 DUP1 REVERT JUMPDEST PUSH1 0x1 PUSH1 0x1 PUSH1 0x57 SHL SUB NOT DUP2 SLT DUP1 ISZERO SWAP1 PUSH2 0x289A JUMPI POP PUSH1 0x1 PUSH1 0x1 PUSH1 0x57 SHL SUB DUP2 SGT ISZERO JUMPDEST PUSH2 0x28A3 JUMPI PUSH1 0x0 DUP1 REVERT JUMPDEST DUP5 PUSH1 0x20 ADD MLOAD MLOAD DUP6 PUSH1 0x40 ADD MLOAD EQ ISZERO PUSH2 0x28C7 JUMPI PUSH2 0x28C1 DUP6 PUSH1 0x20 ADD MLOAD PUSH2 0x335E JUMP JUMPDEST PUSH1 0x20 DUP7 ADD MSTORE JUMPDEST PUSH1 0x0 DUP6 PUSH1 0x20 ADD MLOAD DUP7 PUSH1 0x40 ADD MLOAD DUP2 MLOAD DUP2 LT PUSH2 0x28DD JUMPI INVALID JUMPDEST PUSH1 0x20 SWAP1 DUP2 MUL SWAP2 SWAP1 SWAP2 ADD DUP2 ADD MLOAD DUP7 DUP2 MSTORE SWAP1 DUP2 ADD DUP6 SWAP1 MSTORE PUSH1 0x40 DUP1 DUP3 ADD DUP6 SWAP1 MSTORE PUSH1 0x60 DUP3 ADD DUP5 SWAP1 MSTORE PUSH1 0x0 PUSH1 0xA0 SWAP1 SWAP3 ADD SWAP2 SWAP1 SWAP2 MSTORE DUP7 ADD DUP1 MLOAD PUSH1 0x1 ADD SWAP1 MSTORE POP JUMPDEST POP POP POP POP POP JUMP JUMPDEST PUSH1 0x0 DUP1 PUSH2 0xBAB PUSH1 0x7 PUSH2 0x1E10 JUMP JUMPDEST PUSH1 0x40 MLOAD PUSH4 0x23B872DD PUSH1 0xE0 SHL DUP2 MSTORE PUSH1 0x1 PUSH1 0x1 PUSH1 0xA0 SHL SUB DUP5 AND SWAP1 PUSH4 0x23B872DD SWAP1 PUSH2 0x1976 SWAP1 DUP6 SWAP1 ADDRESS SWAP1 DUP7 SWAP1 PUSH1 0x4 ADD PUSH2 0x443C JUMP JUMPDEST PUSH1 0x0 PUSH1 0x1 PUSH1 0x1 PUSH1 0xFF SHL SUB DUP3 GT ISZERO PUSH2 0x2971 JUMPI PUSH1 0x0 DUP1 REVERT JUMPDEST POP SWAP1 JUMP JUMPDEST PUSH1 0x0 PUSH4 0x5F5E100 DUP4 PUSH1 0x40 ADD MLOAD EQ ISZERO PUSH2 0x298E JUMPI POP DUP1 PUSH2 0xBAB JUMP JUMPDEST PUSH1 0x40 DUP4 ADD MLOAD PUSH2 0xC9D SWAP1 PUSH2 0xAC7 DUP5 PUSH4 0x5F5E100 PUSH2 0xB5D JUMP JUMPDEST PUSH1 0x0 DUP3 DUP3 GT ISZERO PUSH2 0x29FC JUMPI PUSH1 0x40 DUP1 MLOAD PUSH3 0x461BCD PUSH1 0xE5 SHL DUP2 MSTORE PUSH1 0x20 PUSH1 0x4 DUP3 ADD MSTORE PUSH1 0x1E PUSH1 0x24 DUP3 ADD MSTORE PUSH32 0x536166654D6174683A207375627472616374696F6E206F766572666C6F770000 PUSH1 0x44 DUP3 ADD MSTORE SWAP1 MLOAD SWAP1 DUP2 SWAP1 SUB PUSH1 0x64 ADD SWAP1 REVERT JUMPDEST POP SWAP1 SUB SWAP1 JUMP JUMPDEST PUSH1 0x0 PUSH2 0x2A0C PUSH2 0x3DBD JUMP JUMPDEST RETURNDATASIZE DUP1 ISZERO PUSH2 0x2A20 JUMPI PUSH1 0x20 DUP2 EQ PUSH2 0x2A29 JUMPI PUSH1 0x0 DUP1 REVERT JUMPDEST PUSH1 0x1 SWAP3 POP PUSH2 0x2A34 JUMP JUMPDEST PUSH1 0x20 PUSH1 0x0 DUP4 RETURNDATACOPY DUP2 MLOAD SWAP3 POP JUMPDEST POP DUP2 PUSH2 0x2766 JUMPI PUSH1 0x40 MLOAD PUSH3 0x461BCD PUSH1 0xE5 SHL DUP2 MSTORE PUSH1 0x4 ADD PUSH2 0x14E SWAP1 PUSH2 0x4582 JUMP JUMPDEST PUSH2 0x2A5A PUSH2 0x3D46 JUMP JUMPDEST PUSH2 0x3F0 DUP3 PUSH1 0x1 PUSH2 0x16F8 JUMP JUMPDEST PUSH1 0x0 DUP1 PUSH1 0x2 DUP6 PUSH1 0x60 ADD MLOAD PUSH1 0x4 DUP2 GT ISZERO PUSH2 0x2A7A JUMPI INVALID JUMPDEST EQ ISZERO PUSH2 0x2A87 JUMPI POP SELFBALANCE PUSH2 0x2B21 JUMP JUMPDEST PUSH1 0x1 DUP6 PUSH1 0x60 ADD MLOAD PUSH1 0x4 DUP2 GT ISZERO PUSH2 0x2A99 JUMPI INVALID JUMPDEST EQ ISZERO PUSH2 0x7D JUMPI DUP4 MLOAD PUSH1 0x40 MLOAD PUSH4 0x70A08231 PUSH1 0xE0 SHL DUP2 MSTORE PUSH1 0x1 PUSH1 0x1 PUSH1 0xA0 SHL SUB SWAP1 SWAP2 AND SWAP1 PUSH4 0x70A08231 SWAP1 PUSH2 0x2ACE SWAP1 ADDRESS SWAP1 PUSH1 0x4 ADD PUSH2 0x4428 JUMP JUMPDEST PUSH1 0x20 PUSH1 0x40 MLOAD DUP1 DUP4 SUB DUP2 DUP7 DUP1 EXTCODESIZE ISZERO DUP1 ISZERO PUSH2 0x2AE6 JUMPI PUSH1 0x0 DUP1 REVERT JUMPDEST POP GAS STATICCALL ISZERO DUP1 ISZERO PUSH2 0x2AFA JUMPI RETURNDATASIZE PUSH1 0x0 DUP1 RETURNDATACOPY RETURNDATASIZE PUSH1 0x0 REVERT JUMPDEST POP POP POP POP PUSH1 0x40 MLOAD RETURNDATASIZE PUSH1 0x1F NOT PUSH1 0x1F DUP3 ADD AND DUP3 ADD DUP1 PUSH1 0x40 MSTORE POP DUP2 ADD SWAP1 PUSH2 0x2B1E SWAP2 SWAP1 PUSH2 0x4410 JUMP JUMPDEST SWAP1 POP JUMPDEST DUP5 MLOAD PUSH1 0x40 MLOAD PUSH4 0xDB006A75 PUSH1 0xE0 SHL DUP2 MSTORE PUSH1 0x0 SWAP2 PUSH1 0x1 PUSH1 0x1 PUSH1 0xA0 SHL SUB AND SWAP1 PUSH4 0xDB006A75 SWAP1 PUSH2 0x2B51 SWAP1 DUP8 SWAP1 PUSH1 0x4 ADD PUSH2 0x449E JUMP JUMPDEST PUSH1 0x20 PUSH1 0x40 MLOAD DUP1 DUP4 SUB DUP2 PUSH1 0x0 DUP8 DUP1 EXTCODESIZE ISZERO DUP1 ISZERO PUSH2 0x2B6B JUMPI PUSH1 0x0 DUP1 REVERT JUMPDEST POP GAS CALL ISZERO DUP1 ISZERO PUSH2 0x2B7F JUMPI RETURNDATASIZE PUSH1 0x0 DUP1 RETURNDATACOPY RETURNDATASIZE PUSH1 0x0 REVERT JUMPDEST POP POP POP POP PUSH1 0x40 MLOAD RETURNDATASIZE PUSH1 0x1F NOT PUSH1 0x1F DUP3 ADD AND DUP3 ADD DUP1 PUSH1 0x40 MSTORE POP DUP2 ADD SWAP1 PUSH2 0x2BA3 SWAP2 SWAP1 PUSH2 0x4410 JUMP JUMPDEST SWAP1 POP DUP1 ISZERO PUSH2 0x2BC3 JUMPI PUSH1 0x40 MLOAD PUSH3 0x461BCD PUSH1 0xE5 SHL DUP2 MSTORE PUSH1 0x4 ADD PUSH2 0x14E SWAP1 PUSH2 0x44F2 JUMP JUMPDEST PUSH1 0x0 PUSH1 0x2 DUP8 PUSH1 0x60 ADD MLOAD PUSH1 0x4 DUP2 GT ISZERO PUSH2 0x2BD7 JUMPI INVALID JUMPDEST EQ ISZERO PUSH2 0x2BE4 JUMPI POP SELFBALANCE PUSH2 0x2C66 JUMP JUMPDEST DUP6 MLOAD PUSH1 0x40 MLOAD PUSH4 0x70A08231 PUSH1 0xE0 SHL DUP2 MSTORE PUSH1 0x1 PUSH1 0x1 PUSH1 0xA0 SHL SUB SWAP1 SWAP2 AND SWAP1 PUSH4 0x70A08231 SWAP1 PUSH2 0x2C13 SWAP1 ADDRESS SWAP1 PUSH1 0x4 ADD PUSH2 0x4428 JUMP JUMPDEST PUSH1 0x20 PUSH1 0x40 MLOAD DUP1 DUP4 SUB DUP2 DUP7 DUP1 EXTCODESIZE ISZERO DUP1 ISZERO PUSH2 0x2C2B JUMPI PUSH1 0x0 DUP1 REVERT JUMPDEST POP GAS STATICCALL ISZERO DUP1 ISZERO PUSH2 0x2C3F JUMPI RETURNDATASIZE PUSH1 0x0 DUP1 RETURNDATACOPY RETURNDATASIZE PUSH1 0x0 REVERT JUMPDEST POP POP POP POP PUSH1 0x40 MLOAD RETURNDATASIZE PUSH1 0x1F NOT PUSH1 0x1F DUP3 ADD AND DUP3 ADD DUP1 PUSH1 0x40 MSTORE POP DUP2 ADD SWAP1 PUSH2 0x2C63 SWAP2 SWAP1 PUSH2 0x4410 JUMP JUMPDEST SWAP1 POP JUMPDEST PUSH2 0x2C73 PUSH2 0x1931 DUP3 DUP6 PUSH2 0x29A5 JUMP JUMPDEST SWAP8 SWAP7 POP POP POP POP POP POP POP JUMP JUMPDEST PUSH1 0x0 DUP1 PUSH2 0x2C89 PUSH2 0x3417 JUMP JUMPDEST PUSH1 0x0 SWAP4 DUP5 MSTORE PUSH1 0x20 MSTORE POP POP PUSH1 0x40 SWAP1 KECCAK256 SLOAD PUSH1 0x1 PUSH1 0x1 PUSH1 0xA0 SHL SUB AND SWAP1 JUMP JUMPDEST PUSH1 0x0 DUP1 PUSH1 0x0 PUSH2 0x2CB3 DUP7 DUP6 PUSH2 0x3424 JUMP JUMPDEST POP SWAP2 POP SWAP2 POP DUP5 PUSH1 0x0 EQ PUSH2 0x13EC JUMPI PUSH1 0x0 PUSH2 0x2CCC DUP4 DUP8 PUSH2 0x127D JUMP JUMPDEST SWAP1 POP PUSH1 0x0 DUP2 SLT ISZERO DUP1 ISZERO PUSH2 0x2CE5 JUMPI POP PUSH1 0x1 PUSH1 0x1 PUSH1 0x60 SHL SUB DUP2 LT JUMPDEST PUSH2 0x2CEE JUMPI PUSH1 0x0 DUP1 REVERT JUMPDEST PUSH1 0x0 PUSH2 0x2CF8 PUSH2 0x3489 JUMP JUMPDEST PUSH1 0x1 PUSH1 0x1 PUSH1 0xA0 SHL SUB SWAP9 SWAP1 SWAP9 AND PUSH1 0x0 SWAP1 DUP2 MSTORE PUSH1 0x20 SWAP9 SWAP1 SWAP9 MSTORE POP PUSH1 0x40 SWAP1 SWAP7 KECCAK256 DUP1 SLOAD PUSH12 0xFFFFFFFFFFFFFFFFFFFFFFFF NOT AND PUSH1 0x1 PUSH1 0x1 PUSH1 0x60 SHL SUB SWAP8 SWAP1 SWAP8 AND SWAP7 SWAP1 SWAP7 OR PUSH16 0xFFFFFFFFFFFFFFFFFFFFFFFFFFFFFFFF PUSH1 0x60 SHL NOT AND PUSH1 0x1 PUSH1 0x60 SHL PUSH1 0x1 PUSH1 0x1 PUSH1 0x80 SHL SUB DUP4 AND MUL OR PUSH1 0x1 PUSH1 0x1 PUSH1 0xE0 SHL SUB AND PUSH1 0x1 PUSH1 0xE0 SHL PUSH4 0xFFFFFFFF SWAP6 SWAP1 SWAP6 AND SWAP5 SWAP1 SWAP5 MUL SWAP4 SWAP1 SWAP4 OR SWAP1 SWAP5 SSTORE POP SWAP3 SWAP2 POP POP JUMP JUMPDEST PUSH1 0x0 DUP1 DUP3 SLT ISZERO PUSH2 0x2971 JUMPI PUSH1 0x0 DUP1 REVERT JUMPDEST PUSH1 0x0 DUP5 ISZERO DUP1 PUSH2 0x2DA4 JUMPI POP DUP3 DUP6 LT ISZERO JUMPDEST ISZERO PUSH2 0x2DB1 JUMPI POP PUSH1 0x0 PUSH2 0x121A JUMP JUMPDEST PUSH1 0x0 PUSH2 0x2DBC DUP9 PUSH2 0x3496 JUMP JUMPDEST POP SWAP2 SWAP4 POP POP POP DUP7 DUP6 SUB SWAP1 POP PUSH1 0x0 PUSH2 0x2DE0 DUP3 PUSH2 0x2DDB DUP6 PUSH4 0x5F5E100 PUSH2 0x34FF JUMP JUMPDEST PUSH2 0x3558 JUMP JUMPDEST SWAP1 POP PUSH1 0x0 PUSH2 0x2DF8 DUP4 PUSH2 0x2DF2 DUP9 DUP12 PUSH2 0x29A5 JUMP JUMPDEST SWAP1 PUSH2 0x357D JUMP JUMPDEST SWAP1 POP DUP1 PUSH2 0x2E0C JUMPI PUSH1 0x0 SWAP5 POP POP POP POP POP PUSH2 0x121A JUMP JUMPDEST PUSH1 0x0 PUSH2 0x2E1C DUP3 PUSH2 0x2DF2 DUP14 DUP7 PUSH2 0x34FF JUMP JUMPDEST SWAP1 POP PUSH2 0x2E2C DUP2 PUSH4 0x5F5E100 PUSH2 0x357D JUMP JUMPDEST SWAP13 SWAP12 POP POP POP POP POP POP POP POP POP POP POP POP JUMP JUMPDEST PUSH2 0x2766 PUSH20 0xCFEAEAD4947F0705A14EC42AC3D44129E1EF3ED5 DUP4 DUP4 PUSH2 0x1948 JUMP JUMPDEST PUSH1 0x0 DUP1 PUSH6 0xFFFFFFFFFFFF DUP4 GT ISZERO PUSH2 0x2E7B JUMPI PUSH1 0x2F PUSH2 0x2E77 DUP5 PUSH2 0x35E4 JUMP JUMPDEST SUB SWAP1 POP JUMPDEST DUP3 DUP2 SHR PUSH1 0x8 SHL OR SWAP1 POP SWAP2 SWAP1 POP JUMP JUMPDEST DUP2 MLOAD ISZERO DUP1 ISZERO SWAP1 PUSH2 0x2E9C JUMPI POP DUP2 MLOAD PUSH2 0x3FFF LT ISZERO JUMPDEST PUSH2 0x2EA5 JUMPI PUSH1 0x0 DUP1 REVERT JUMPDEST DUP2 PUSH1 0x20 ADD MLOAD PUSH1 0x0 LT DUP1 ISZERO PUSH2 0x2EC2 JUMPI POP PUSH1 0x20 DUP3 ADD MLOAD PUSH5 0xFFFFFFFFFF LT ISZERO JUMPDEST PUSH2 0x2ECB JUMPI PUSH1 0x0 DUP1 REVERT JUMPDEST DUP2 PUSH1 0x40 ADD MLOAD PUSH1 0x0 LT DUP1 ISZERO PUSH2 0x2EE4 JUMPI POP PUSH1 0x40 DUP3 ADD MLOAD PUSH1 0x8 LT ISZERO JUMPDEST PUSH2 0x2EED JUMPI PUSH1 0x0 DUP1 REVERT JUMPDEST PUSH1 0x60 DUP3 ADD MLOAD PUSH1 0x1 PUSH1 0x1 PUSH1 0x57 SHL SUB NOT SGT DUP1 ISZERO SWAP1 PUSH2 0x2F14 JUMPI POP PUSH1 0x60 DUP3 ADD MLOAD PUSH1 0x1 PUSH1 0x1 PUSH1 0x57 SHL SUB SLT ISZERO JUMPDEST PUSH2 0x2F1D JUMPI PUSH1 0x0 DUP1 REVERT JUMPDEST DUP2 MLOAD DUP2 SLOAD PUSH1 0x20 DUP5 ADD MLOAD PUSH1 0x40 DUP6 ADD MLOAD PUSH1 0x60 SWAP1 SWAP6 ADD MLOAD PUSH1 0xA SIGNEXTEND PUSH11 0xFFFFFFFFFFFFFFFFFFFFFF AND PUSH1 0x1 PUSH1 0x40 SHL MUL PUSH19 0xFFFFFFFFFFFFFFFFFFFFFF0000000000000000 NOT PUSH1 0xFF SWAP1 SWAP7 AND PUSH1 0x1 PUSH1 0x38 SHL MUL PUSH8 0xFF00000000000000 NOT PUSH5 0xFFFFFFFFFF SWAP1 SWAP4 AND PUSH3 0x10000 MUL PUSH7 0xFFFFFFFFFF0000 NOT PUSH2 0xFFFF SWAP1 SWAP7 AND PUSH2 0xFFFF NOT SWAP1 SWAP6 AND SWAP5 SWAP1 SWAP5 OR SWAP5 SWAP1 SWAP5 AND SWAP3 SWAP1 SWAP3 OR AND SWAP2 SWAP1 SWAP2 OR SWAP3 SWAP1 SWAP3 AND SWAP2 SWAP1 SWAP2 OR SWAP1 SSTORE JUMP JUMPDEST PUSH1 0x0 DUP1 PUSH1 0x0 DUP1 PUSH2 0x2FC1 DUP9 PUSH2 0x367D JUMP JUMPDEST SWAP1 POP DUP5 ISZERO DUP1 PUSH2 0x2FCF JUMPI POP DUP1 DUP6 GT JUMPDEST ISZERO PUSH2 0x2FD8 JUMPI DUP1 SWAP5 POP JUMPDEST DUP7 DUP1 PUSH2 0x2FE8 JUMPI POP PUSH1 0x0 DUP9 PUSH1 0x60 ADD MLOAD SLT JUMPDEST SWAP7 POP PUSH2 0xFFFF DUP7 AND ISZERO PUSH2 0x2FF9 JUMPI PUSH1 0x0 DUP1 REVERT JUMPDEST POP POP SWAP5 MLOAD SWAP4 SWAP6 PUSH1 0x10 SWAP4 SWAP1 SWAP4 SHR PUSH1 0xF0 SWAP5 SWAP1 SWAP5 SHL SWAP4 SWAP1 SWAP4 OR SWAP4 POP SWAP2 POP JUMP JUMPDEST PUSH1 0x0 DUP1 PUSH2 0xBAB PUSH1 0xD PUSH2 0x1E10 JUMP JUMPDEST PUSH1 0x0 PUSH3 0x15180 DUP3 LT ISZERO PUSH2 0x3034 JUMPI PUSH1 0x0 DUP1 REVERT JUMPDEST PUSH3 0x15180 DUP3 JUMPDEST MOD SWAP1 SWAP2 SUB SWAP2 SWAP1 POP JUMP JUMPDEST PUSH1 0x0 DUP1 PUSH2 0x3074 PUSH2 0x3064 PUSH2 0x3059 DUP6 PUSH1 0x20 ADD MLOAD PUSH2 0x3E2 JUMP JUMPDEST PUSH1 0xE0 DUP7 ADD MLOAD SWAP1 PUSH2 0x2530 JUMP JUMPDEST PUSH2 0x120 DUP6 ADD MLOAD PUSH1 0x40 ADD MLOAD SWAP1 PUSH2 0x13F5 JUMP JUMPDEST SWAP2 POP PUSH2 0x3090 DUP4 PUSH1 0xE0 ADD MLOAD PUSH1 0x80 ADD MLOAD DUP5 PUSH1 0xC0 ADD MLOAD PUSH1 0x80 ADD MLOAD PUSH2 0x36E4 JUMP JUMPDEST SWAP1 POP SWAP2 POP SWAP2 JUMP JUMPDEST PUSH1 0x0 PUSH2 0xC9D DUP3 PUSH1 0x20 ADD MLOAD PUSH2 0xAC7 DUP5 PUSH1 0x0 ADD MLOAD DUP7 PUSH1 0x20 ADD MLOAD PUSH2 0xB5D SWAP1 SWAP2 SWAP1 PUSH4 0xFFFFFFFF AND JUMP JUMPDEST PUSH1 0x0 PUSH1 0x2 DUP3 LT DUP1 ISZERO SWAP1 PUSH2 0x3F0 JUMPI POP POP PUSH1 0x8 LT ISZERO SWAP1 JUMP JUMPDEST DUP3 PUSH1 0x1 GT ISZERO DUP1 ISZERO PUSH2 0x30E7 JUMPI POP DUP5 PUSH1 0x20 ADD MLOAD DUP4 GT ISZERO JUMPDEST PUSH2 0x3103 JUMPI PUSH1 0x40 MLOAD PUSH3 0x461BCD PUSH1 0xE5 SHL DUP2 MSTORE PUSH1 0x4 ADD PUSH2 0x14E SWAP1 PUSH2 0x4539 JUMP JUMPDEST PUSH1 0x0 PUSH2 0x3120 PUSH2 0x3111 DUP6 PUSH2 0x36FA JUMP JUMPDEST PUSH2 0x311A DUP5 PUSH2 0x379E JUMP JUMPDEST SWAP1 PUSH2 0x37BA JUMP JUMPDEST SWAP1 POP PUSH2 0x789 DUP7 PUSH1 0x0 ADD MLOAD PUSH2 0xFFFF AND DUP3 DUP5 DUP7 PUSH2 0x313A DUP12 PUSH2 0x3814 JUMP JUMPDEST DUP11 SWAP5 SWAP4 SWAP3 SWAP2 SWAP1 PUSH2 0x3828 JUMP JUMPDEST PUSH1 0x0 DUP1 PUSH2 0x3155 DUP5 PUSH1 0x40 ADD MLOAD PUSH2 0x30BC JUMP JUMPDEST DUP1 ISZERO PUSH2 0x3166 JUMPI POP PUSH1 0x0 DUP5 PUSH1 0x60 ADD MLOAD SLT ISZERO JUMPDEST PUSH2 0x316F JUMPI PUSH1 0x0 DUP1 REVERT JUMPDEST PUSH2 0x3192 DUP4 PUSH1 0x80 ADD MLOAD PUSH2 0xAC7 DUP7 PUSH1 0x60 ADD MLOAD DUP7 PUSH1 0x60 ADD MLOAD PUSH2 0xB5D SWAP1 SWAP2 SWAP1 PUSH4 0xFFFFFFFF AND JUMP JUMPDEST SWAP2 POP PUSH2 0x31B7 DUP4 PUSH1 0x80 ADD MLOAD PUSH2 0xAC7 DUP7 PUSH1 0x60 ADD MLOAD DUP7 PUSH1 0x40 ADD MLOAD PUSH2 0xB5D SWAP1 SWAP2 SWAP1 PUSH4 0xFFFFFFFF AND JUMP JUMPDEST SWAP1 POP SWAP3 POP SWAP3 SWAP1 POP JUMP JUMPDEST PUSH1 0x0 PUSH1 0x2 DUP3 LT DUP1 ISZERO SWAP1 PUSH2 0x31D4 JUMPI POP PUSH1 0x8 DUP3 GT ISZERO JUMPDEST PUSH2 0x31DD JUMPI PUSH1 0x0 DUP1 REVERT JUMPDEST POP PUSH1 0x60 DUP3 ADD MLOAD PUSH1 0x48 PUSH1 0x8 PUSH1 0x1 NOT DUP5 ADD MUL ADD SHR SWAP3 SWAP2 POP POP JUMP JUMPDEST PUSH1 0x0 PUSH2 0x3200 DUP3 PUSH2 0x3849 JUMP JUMPDEST SWAP1 POP PUSH1 0x0 DUP2 PUSH1 0x0 ADD PUSH1 0x18 SWAP1 SLOAD SWAP1 PUSH2 0x100 EXP SWAP1 DIV PUSH4 0xFFFFFFFF AND SWAP1 POP PUSH2 0x323F DUP3 DUP5 PUSH1 0x40 ADD MLOAD DUP6 PUSH1 0x60 ADD MLOAD DUP7 PUSH1 0xA0 ADD MLOAD DUP6 PUSH4 0xFFFFFFFF AND DUP9 PUSH1 0xE0 ADD MLOAD PUSH2 0x384D JUMP JUMPDEST PUSH2 0x19B0 DUP3 DUP5 PUSH1 0x80 ADD MLOAD PUSH2 0x3961 JUMP JUMPDEST PUSH1 0x0 DUP1 JUMPDEST DUP7 MLOAD DUP2 LT ISZERO PUSH2 0x3351 JUMPI PUSH1 0x0 DUP8 DUP3 DUP2 MLOAD DUP2 LT PUSH2 0x3268 JUMPI INVALID JUMPDEST PUSH1 0x20 MUL PUSH1 0x20 ADD ADD MLOAD SWAP1 POP DUP5 DUP2 PUSH1 0x40 ADD MLOAD EQ ISZERO DUP1 PUSH2 0x3286 JUMPI POP DUP1 MLOAD DUP8 EQ ISZERO JUMPDEST DUP1 PUSH2 0x3295 JUMPI POP DUP6 DUP2 PUSH1 0x20 ADD MLOAD EQ ISZERO JUMPDEST ISZERO PUSH2 0x32A0 JUMPI POP PUSH2 0x3349 JUMP JUMPDEST PUSH1 0x2 DUP2 PUSH1 0xA0 ADD MLOAD PUSH1 0x3 DUP2 GT ISZERO PUSH2 0x32B2 JUMPI INVALID JUMPDEST EQ ISZERO DUP1 ISZERO PUSH2 0x32D0 JUMPI POP PUSH1 0x3 DUP2 PUSH1 0xA0 ADD MLOAD PUSH1 0x3 DUP2 GT ISZERO PUSH2 0x32CD JUMPI INVALID JUMPDEST EQ ISZERO JUMPDEST PUSH2 0x32D9 JUMPI PUSH1 0x0 DUP1 REVERT JUMPDEST PUSH1 0x60 DUP2 ADD MLOAD PUSH1 0x0 SWAP1 PUSH2 0x32EB SWAP1 DUP7 PUSH2 0x127D JUMP JUMPDEST SWAP1 POP PUSH2 0x32F6 DUP7 PUSH2 0x30BC JUMP JUMPDEST ISZERO PUSH2 0x3309 JUMPI PUSH1 0x0 DUP2 SLT ISZERO PUSH2 0x3309 JUMPI PUSH1 0x0 DUP1 REVERT JUMPDEST PUSH1 0x1 PUSH1 0x1 PUSH1 0x57 SHL SUB NOT DUP2 SLT DUP1 ISZERO SWAP1 PUSH2 0x3328 JUMPI POP PUSH1 0x1 PUSH1 0x1 PUSH1 0x57 SHL SUB DUP2 SGT ISZERO JUMPDEST PUSH2 0x3331 JUMPI PUSH1 0x0 DUP1 REVERT JUMPDEST PUSH1 0x60 DUP3 ADD MSTORE PUSH1 0x1 PUSH1 0xA0 SWAP1 SWAP2 ADD DUP2 SWAP1 MSTORE SWAP2 POP PUSH2 0x13EC SWAP1 POP JUMP JUMPDEST PUSH1 0x1 ADD PUSH2 0x3251 JUMP JUMPDEST POP PUSH1 0x0 SWAP7 SWAP6 POP POP POP POP POP POP JUMP JUMPDEST PUSH1 0x60 PUSH1 0x0 DUP3 MLOAD PUSH1 0x0 EQ PUSH2 0x3375 JUMPI DUP3 MLOAD PUSH1 0x2 MUL PUSH2 0x3378 JUMP JUMPDEST PUSH1 0x1 JUMPDEST SWAP1 POP PUSH1 0x0 DUP2 PUSH8 0xFFFFFFFFFFFFFFFF DUP2 GT DUP1 ISZERO PUSH2 0x3393 JUMPI PUSH1 0x0 DUP1 REVERT JUMPDEST POP PUSH1 0x40 MLOAD SWAP1 DUP1 DUP3 MSTORE DUP1 PUSH1 0x20 MUL PUSH1 0x20 ADD DUP3 ADD PUSH1 0x40 MSTORE DUP1 ISZERO PUSH2 0x33CD JUMPI DUP2 PUSH1 0x20 ADD JUMPDEST PUSH2 0x33BA PUSH2 0x3CD0 JUMP JUMPDEST DUP2 MSTORE PUSH1 0x20 ADD SWAP1 PUSH1 0x1 SWAP1 SUB SWAP1 DUP2 PUSH2 0x33B2 JUMPI SWAP1 POP JUMPDEST POP SWAP1 POP PUSH1 0x0 JUMPDEST DUP5 MLOAD DUP2 LT ISZERO PUSH2 0x340F JUMPI DUP5 DUP2 DUP2 MLOAD DUP2 LT PUSH2 0x33E8 JUMPI INVALID JUMPDEST PUSH1 0x20 MUL PUSH1 0x20 ADD ADD MLOAD DUP3 DUP3 DUP2 MLOAD DUP2 LT PUSH2 0x33FC JUMPI INVALID JUMPDEST PUSH1 0x20 SWAP1 DUP2 MUL SWAP2 SWAP1 SWAP2 ADD ADD MSTORE PUSH1 0x1 ADD PUSH2 0x33D3 JUMP JUMPDEST POP SWAP4 SWAP3 POP POP POP JUMP JUMPDEST PUSH1 0x0 DUP1 PUSH2 0xBAB PUSH1 0x3 PUSH2 0x1E10 JUMP JUMPDEST PUSH1 0x0 DUP1 PUSH1 0x0 PUSH2 0x3432 DUP6 PUSH2 0x39AA JUMP JUMPDEST SWAP2 SWAP5 POP SWAP3 POP SWAP1 POP DUP1 PUSH2 0x3441 JUMPI POP DUP3 JUMPDEST DUP1 DUP5 LT ISZERO PUSH2 0x344E JUMPI PUSH1 0x0 DUP1 REVERT JUMPDEST PUSH2 0x3464 PUSH2 0x345D DUP5 DUP4 DUP8 SUB PUSH2 0xB5D JUMP JUMPDEST DUP4 SWAP1 PUSH2 0x127D JUMP JUMPDEST SWAP2 POP PUSH1 0x1 PUSH1 0x1 PUSH1 0x80 SHL SUB DUP3 LT PUSH2 0x3479 JUMPI PUSH1 0x0 DUP1 REVERT JUMPDEST PUSH4 0xFFFFFFFF DUP5 LT PUSH2 0x21DB JUMPI PUSH1 0x0 DUP1 REVERT JUMPDEST PUSH1 0x0 DUP1 PUSH2 0xBAB PUSH1 0xE PUSH2 0x1E10 JUMP JUMPDEST PUSH1 0x0 DUP1 PUSH1 0x0 DUP1 PUSH1 0x0 DUP1 PUSH2 0x34A7 PUSH2 0x3A06 JUMP JUMPDEST PUSH1 0x1 PUSH1 0x1 PUSH1 0xA0 SHL SUB SWAP1 SWAP8 AND PUSH1 0x0 SWAP1 DUP2 MSTORE PUSH1 0x20 SWAP8 SWAP1 SWAP8 MSTORE POP POP PUSH1 0x40 SWAP1 SWAP5 KECCAK256 SLOAD PUSH2 0xFFFF DUP2 AND SWAP6 PUSH4 0xFFFFFFFF PUSH3 0x10000 DUP4 DIV DUP2 AND SWAP7 POP PUSH1 0x1 PUSH1 0x30 SHL DUP4 DIV AND SWAP5 POP PUSH1 0xFF PUSH1 0x1 PUSH1 0x50 SHL DUP4 DIV AND SWAP4 POP PUSH1 0x1 PUSH1 0x58 SHL SWAP1 SWAP2 DIV PUSH1 0xD8 SHL SWAP2 POP JUMP JUMPDEST PUSH1 0x0 DUP3 PUSH2 0x350E JUMPI POP PUSH1 0x0 PUSH2 0xBAB JUMP JUMPDEST DUP3 DUP3 MUL DUP3 DUP5 DUP3 DUP2 PUSH2 0x351B JUMPI INVALID JUMPDEST DIV EQ PUSH2 0xC9D JUMPI PUSH1 0x40 MLOAD PUSH3 0x461BCD PUSH1 0xE5 SHL DUP2 MSTORE PUSH1 0x4 ADD DUP1 DUP1 PUSH1 0x20 ADD DUP3 DUP2 SUB DUP3 MSTORE PUSH1 0x21 DUP2 MSTORE PUSH1 0x20 ADD DUP1 PUSH2 0x46D1 PUSH1 0x21 SWAP2 CODECOPY PUSH1 0x40 ADD SWAP2 POP POP PUSH1 0x40 MLOAD DUP1 SWAP2 SUB SWAP1 REVERT JUMPDEST PUSH1 0x0 DUP1 PUSH2 0x3571 PUSH4 0x1DA9C00 PUSH2 0x2DF2 DUP7 PUSH4 0x5F5E100 PUSH2 0x34FF JUMP JUMPDEST SWAP1 POP PUSH2 0x4CA DUP2 DUP5 PUSH2 0x34FF JUMP JUMPDEST PUSH1 0x0 DUP1 DUP3 GT PUSH2 0x35D3 JUMPI PUSH1 0x40 DUP1 MLOAD PUSH3 0x461BCD PUSH1 0xE5 SHL DUP2 MSTORE PUSH1 0x20 PUSH1 0x4 DUP3 ADD MSTORE PUSH1 0x1A PUSH1 0x24 DUP3 ADD MSTORE PUSH32 0x536166654D6174683A206469766973696F6E206279207A65726F000000000000 PUSH1 0x44 DUP3 ADD MSTORE SWAP1 MLOAD SWAP1 DUP2 SWAP1 SUB PUSH1 0x64 ADD SWAP1 REVERT JUMPDEST DUP2 DUP4 DUP2 PUSH2 0x35DC JUMPI INVALID JUMPDEST DIV SWAP4 SWAP3 POP POP POP JUMP JUMPDEST PUSH1 0x0 DUP2 PUSH2 0x35F0 JUMPI PUSH1 0x0 DUP1 REVERT JUMPDEST PUSH1 0x1 PUSH1 0x80 SHL DUP3 LT PUSH2 0x3603 JUMPI PUSH1 0x80 SWAP2 DUP3 SHR SWAP2 ADD JUMPDEST PUSH1 0x1 PUSH1 0x40 SHL DUP3 LT PUSH2 0x3616 JUMPI PUSH1 0x40 SWAP2 DUP3 SHR SWAP2 ADD JUMPDEST PUSH5 0x100000000 DUP3 LT PUSH2 0x362A JUMPI PUSH1 0x20 SWAP2 DUP3 SHR SWAP2 ADD JUMPDEST PUSH3 0x10000 DUP3 LT PUSH2 0x363C JUMPI PUSH1 0x10 SWAP2 DUP3 SHR SWAP2 ADD JUMPDEST PUSH2 0x100 DUP3 LT PUSH2 0x364D JUMPI PUSH1 0x8 SWAP2 DUP3 SHR SWAP2 ADD JUMPDEST PUSH1 0x10 DUP3 LT PUSH2 0x365D JUMPI PUSH1 0x4 SWAP2 DUP3 SHR SWAP2 ADD JUMPDEST PUSH1 0x4 DUP3 LT PUSH2 0x366D JUMPI PUSH1 0x2 SWAP2 DUP3 SHR SWAP2 ADD JUMPDEST PUSH1 0x2 DUP3 LT PUSH2 0x3F3 JUMPI PUSH1 0x1 ADD SWAP2 SWAP1 POP JUMP JUMPDEST PUSH1 0x0 DUP1 DUP3 PUSH1 0x40 ADD MLOAD GT DUP1 ISZERO PUSH2 0x3697 JUMPI POP PUSH1 0x40 DUP3 ADD MLOAD PUSH1 0x8 LT ISZERO JUMPDEST PUSH2 0x36A0 JUMPI PUSH1 0x0 DUP1 REVERT JUMPDEST PUSH1 0x40 DUP3 ADD MLOAD PUSH1 0x2 LT PUSH2 0x36B7 JUMPI POP PUSH1 0x20 DUP2 ADD MLOAD PUSH2 0x3F3 JUMP JUMPDEST PUSH1 0x0 PUSH2 0x36C9 PUSH1 0x1 DUP5 PUSH1 0x40 ADD MLOAD SUB PUSH2 0x36FA JUMP JUMPDEST PUSH1 0x20 DUP5 ADD MLOAD SWAP1 SWAP2 POP PUSH2 0xC9D SWAP1 PUSH3 0x76A700 SWAP1 PUSH2 0x311A SWAP1 DUP5 PUSH2 0x29A5 JUMP JUMPDEST PUSH1 0x0 DUP2 DUP4 SGT PUSH2 0x36F3 JUMPI DUP2 PUSH2 0xC9D JUMP JUMPDEST POP SWAP1 SWAP2 SWAP1 POP JUMP JUMPDEST PUSH1 0x0 DUP2 PUSH1 0x1 EQ ISZERO PUSH2 0x370F JUMPI POP PUSH3 0x76A700 PUSH2 0x3F3 JUMP JUMPDEST DUP2 PUSH1 0x2 EQ ISZERO PUSH2 0x3722 JUMPI POP PUSH3 0xED4E00 PUSH2 0x3F3 JUMP JUMPDEST DUP2 PUSH1 0x3 EQ ISZERO PUSH2 0x3736 JUMPI POP PUSH4 0x1DA9C00 PUSH2 0x3F3 JUMP JUMPDEST DUP2 PUSH1 0x4 EQ ISZERO PUSH2 0x374A JUMPI POP PUSH4 0x3B53800 PUSH2 0x3F3 JUMP JUMPDEST DUP2 PUSH1 0x5 EQ ISZERO PUSH2 0x375E JUMPI POP PUSH4 0x9450C00 PUSH2 0x3F3 JUMP JUMPDEST DUP2 PUSH1 0x6 EQ ISZERO PUSH2 0x3772 JUMPI POP PUSH4 0x128A1800 PUSH2 0x3F3 JUMP JUMPDEST DUP2 PUSH1 0x7 EQ ISZERO PUSH2 0x3786 JUMPI POP PUSH4 0x25143000 PUSH2 0x3F3 JUMP JUMPDEST PUSH1 0x40 MLOAD PUSH3 0x461BCD PUSH1 0xE5 SHL DUP2 MSTORE PUSH1 0x4 ADD PUSH2 0x14E SWAP1 PUSH2 0x4512 JUMP JUMPDEST PUSH1 0x0 PUSH3 0x76A700 DUP3 LT ISZERO PUSH2 0x37B0 JUMPI PUSH1 0x0 DUP1 REVERT JUMPDEST PUSH3 0x76A700 DUP3 PUSH2 0x303A JUMP JUMPDEST PUSH1 0x0 DUP3 DUP3 ADD DUP4 DUP2 LT ISZERO PUSH2 0xC9D JUMPI PUSH1 0x40 DUP1 MLOAD PUSH3 0x461BCD PUSH1 0xE5 SHL DUP2 MSTORE PUSH1 0x20 PUSH1 0x4 DUP3 ADD MSTORE PUSH1 0x1B PUSH1 0x24 DUP3 ADD MSTORE PUSH32 0x536166654D6174683A206164646974696F6E206F766572666C6F770000000000 PUSH1 0x44 DUP3 ADD MSTORE SWAP1 MLOAD SWAP1 DUP2 SWAP1 SUB PUSH1 0x64 ADD SWAP1 REVERT JUMPDEST PUSH1 0x60 ADD MLOAD PUSH2 0x12C PUSH1 0x8 SWAP2 SWAP1 SWAP2 SHR PUSH1 0xFF AND MUL SWAP1 JUMP JUMPDEST PUSH1 0x0 PUSH3 0x76A700 PUSH2 0x3837 DUP6 PUSH2 0x379E JUMP JUMPDEST ADD SWAP1 POP PUSH2 0x6E7 DUP8 DUP8 DUP8 DUP8 DUP8 DUP8 DUP8 PUSH2 0x3A13 JUMP JUMPDEST MLOAD SWAP1 JUMP JUMPDEST PUSH1 0x0 DUP6 SLT ISZERO DUP1 ISZERO PUSH2 0x3865 JUMPI POP PUSH1 0x1 PUSH1 0x1 PUSH1 0x50 SHL SUB DUP6 SGT ISZERO JUMPDEST PUSH2 0x386E JUMPI PUSH1 0x0 DUP1 REVERT JUMPDEST PUSH1 0x0 DUP5 SLT ISZERO DUP1 ISZERO PUSH2 0x3886 JUMPI POP PUSH1 0x1 PUSH1 0x1 PUSH1 0x50 SHL SUB DUP5 SGT ISZERO JUMPDEST PUSH2 0x388F JUMPI PUSH1 0x0 DUP1 REVERT JUMPDEST DUP3 PUSH1 0x0 LT DUP1 ISZERO PUSH2 0x38A3 JUMPI POP PUSH4 0xFFFFFFFF DUP4 GT ISZERO JUMPDEST PUSH2 0x38AC JUMPI PUSH1 0x0 DUP1 REVERT JUMPDEST DUP2 PUSH1 0x0 LT DUP1 ISZERO PUSH2 0x38C0 JUMPI POP PUSH4 0xFFFFFFFF DUP3 GT ISZERO JUMPDEST PUSH2 0x38C9 JUMPI PUSH1 0x0 DUP1 REVERT JUMPDEST PUSH4 0xFFFFFFFF DUP2 GT ISZERO PUSH2 0x38DA JUMPI PUSH1 0x0 DUP1 REVERT JUMPDEST DUP6 SLOAD PUSH10 0xFFFFFFFFFFFFFFFFFFFF NOT AND PUSH1 0x1 PUSH1 0x1 PUSH1 0x50 SHL SUB SWAP6 DUP7 AND OR PUSH10 0xFFFFFFFFFFFFFFFFFFFF PUSH1 0x50 SHL NOT AND PUSH1 0x1 PUSH1 0x50 SHL SWAP5 SWAP1 SWAP6 AND SWAP4 SWAP1 SWAP4 MUL SWAP4 SWAP1 SWAP4 OR PUSH4 0xFFFFFFFF PUSH1 0xA0 SHL NOT AND PUSH1 0x1 PUSH1 0xA0 SHL PUSH4 0xFFFFFFFF SWAP3 DUP4 AND MUL OR PUSH4 0xFFFFFFFF PUSH1 0xC0 SHL NOT AND PUSH1 0x1 PUSH1 0xC0 SHL SWAP4 DUP3 AND SWAP4 SWAP1 SWAP4 MUL SWAP3 SWAP1 SWAP3 OR PUSH1 0x1 PUSH1 0x1 PUSH1 0xE0 SHL SUB AND PUSH1 0x1 PUSH1 0xE0 SHL SWAP2 SWAP1 SWAP3 AND MUL OR SWAP1 SSTORE JUMP JUMPDEST PUSH1 0x0 DUP2 SLT ISZERO DUP1 ISZERO PUSH2 0x3979 JUMPI POP PUSH1 0x1 PUSH1 0x1 PUSH1 0x50 SHL SUB DUP2 SGT ISZERO JUMPDEST PUSH2 0x3982 JUMPI PUSH1 0x0 DUP1 REVERT JUMPDEST PUSH1 0x1 SWAP2 SWAP1 SWAP2 ADD DUP1 SLOAD PUSH10 0xFFFFFFFFFFFFFFFFFFFF NOT AND PUSH1 0x1 PUSH1 0x1 PUSH1 0x50 SHL SUB SWAP1 SWAP3 AND SWAP2 SWAP1 SWAP2 OR SWAP1 SSTORE JUMP JUMPDEST PUSH1 0x0 DUP1 PUSH1 0x0 DUP1 PUSH2 0x39B8 PUSH2 0x3489 JUMP JUMPDEST PUSH1 0x1 PUSH1 0x1 PUSH1 0xA0 SHL SUB SWAP6 SWAP1 SWAP6 AND PUSH1 0x0 SWAP1 DUP2 MSTORE PUSH1 0x20 SWAP6 SWAP1 SWAP6 MSTORE POP POP PUSH1 0x40 SWAP1 SWAP3 KECCAK256 SLOAD PUSH1 0x1 PUSH1 0x1 PUSH1 0x60 SHL SUB DUP2 AND SWAP4 PUSH1 0x1 PUSH1 0x60 SHL DUP3 DIV PUSH1 0x1 PUSH1 0x1 PUSH1 0x80 SHL SUB AND SWAP4 POP PUSH1 0x1 PUSH1 0xE0 SHL SWAP1 SWAP2 DIV PUSH4 0xFFFFFFFF AND SWAP2 POP JUMP JUMPDEST PUSH1 0x0 DUP1 PUSH2 0xBAB PUSH1 0x2 PUSH2 0x1E10 JUMP JUMPDEST PUSH2 0x3A20 DUP8 DUP8 DUP8 DUP7 DUP6 PUSH2 0x3A4A JUMP JUMPDEST PUSH2 0x3A39 DUP8 PUSH1 0xE0 ADD MLOAD DUP9 PUSH1 0xA0 ADD MLOAD DUP10 PUSH1 0xC0 ADD MLOAD DUP6 DUP9 PUSH2 0x3B05 JUMP JUMPDEST PUSH1 0xC0 SWAP1 SWAP8 ADD SWAP7 SWAP1 SWAP7 MSTORE POP POP POP POP POP POP JUMP JUMPDEST PUSH1 0x0 PUSH2 0x3A54 PUSH2 0x3B98 JUMP JUMPDEST PUSH1 0x0 DUP7 DUP2 MSTORE PUSH1 0x20 DUP3 DUP2 MSTORE PUSH1 0x40 DUP1 DUP4 KECCAK256 DUP9 DUP5 MSTORE DUP3 MSTORE DUP1 DUP4 KECCAK256 DUP7 DUP5 MSTORE DUP3 MSTORE SWAP2 DUP3 SWAP1 KECCAK256 DUP1 DUP11 MSTORE SWAP1 DUP10 ADD DUP8 SWAP1 MSTORE DUP1 SLOAD PUSH1 0x1 PUSH1 0x1 PUSH1 0x50 SHL SUB DUP1 DUP3 AND SWAP4 DUP12 ADD SWAP4 SWAP1 SWAP4 MSTORE PUSH1 0x1 PUSH1 0x50 SHL DUP2 DIV SWAP1 SWAP3 AND PUSH1 0x60 DUP11 ADD MSTORE PUSH4 0xFFFFFFFF PUSH1 0x1 PUSH1 0xA0 SHL DUP4 DIV DUP2 AND PUSH1 0xA0 DUP12 ADD MSTORE PUSH1 0x1 PUSH1 0xC0 SHL DUP4 DIV DUP2 AND PUSH1 0xC0 DUP12 ADD MSTORE PUSH1 0x1 PUSH1 0xE0 SHL SWAP1 SWAP3 DIV SWAP1 SWAP2 AND PUSH1 0xE0 DUP10 ADD MSTORE SWAP1 SWAP2 POP DUP1 DUP5 ISZERO PUSH2 0x3AF3 JUMPI PUSH1 0x1 DUP3 ADD SLOAD PUSH1 0x1 PUSH1 0x1 PUSH1 0x50 SHL SUB AND PUSH1 0x80 DUP10 ADD MSTORE PUSH2 0x3AFB JUMP JUMPDEST PUSH1 0x0 PUSH1 0x80 DUP10 ADD MSTORE JUMPDEST POP POP POP POP POP POP POP POP JUMP JUMPDEST PUSH1 0x0 DUP1 DUP4 GT PUSH2 0x3B13 JUMPI PUSH1 0x0 DUP1 REVERT JUMPDEST DUP2 DUP7 GT ISZERO PUSH2 0x3B22 JUMPI POP DUP4 PUSH2 0x13EC JUMP JUMPDEST PUSH1 0x0 PUSH2 0x3B2E DUP4 DUP9 PUSH2 0x29A5 JUMP JUMPDEST SWAP1 POP DUP4 DUP2 GT ISZERO PUSH2 0x3B41 JUMPI DUP6 SWAP2 POP POP PUSH2 0x13EC JUMP JUMPDEST PUSH1 0x0 PUSH2 0x3B55 DUP6 PUSH2 0x2DF2 DUP5 PUSH4 0x3B9ACA00 PUSH2 0x34FF JUMP JUMPDEST SWAP1 POP PUSH1 0x0 PUSH2 0x3B67 PUSH4 0x3B9ACA00 DUP4 PUSH2 0x29A5 JUMP JUMPDEST SWAP1 POP PUSH1 0x0 PUSH2 0x3B8A PUSH4 0x3B9ACA00 PUSH2 0x2DF2 PUSH2 0x3B80 DUP12 DUP7 PUSH2 0x34FF JUMP JUMPDEST PUSH2 0x311A DUP14 DUP9 PUSH2 0x34FF JUMP JUMPDEST SWAP11 SWAP10 POP POP POP POP POP POP POP POP POP POP JUMP JUMPDEST PUSH1 0x0 DUP1 PUSH2 0xBAB PUSH1 0xA PUSH2 0x1E10 JUMP JUMPDEST PUSH1 0x40 MLOAD DUP1 PUSH2 0x120 ADD PUSH1 0x40 MSTORE DUP1 PUSH1 0x0 PUSH2 0xFFFF AND DUP2 MSTORE PUSH1 0x20 ADD PUSH1 0x0 DUP2 MSTORE PUSH1 0x20 ADD PUSH1 0x0 DUP2 MSTORE PUSH1 0x20 ADD PUSH1 0x0 DUP2 MSTORE PUSH1 0x20 ADD PUSH1 0x0 DUP2 MSTORE PUSH1 0x20 ADD PUSH1 0x0 DUP2 MSTORE PUSH1 0x20 ADD PUSH1 0x0 DUP2 MSTORE PUSH1 0x20 ADD PUSH1 0x0 DUP2 MSTORE PUSH1 0x20 ADD PUSH1 0x0 DUP2 MSTORE POP SWAP1 JUMP JUMPDEST PUSH1 0x40 MLOAD DUP1 PUSH1 0x80 ADD PUSH1 0x40 MSTORE DUP1 PUSH1 0x60 DUP2 MSTORE PUSH1 0x20 ADD PUSH1 0x60 DUP2 MSTORE PUSH1 0x20 ADD PUSH1 0x0 DUP2 MSTORE PUSH1 0x20 ADD PUSH1 0x0 DUP2 MSTORE POP SWAP1 JUMP JUMPDEST PUSH1 0x40 DUP1 MLOAD PUSH1 0xA0 DUP2 ADD DUP3 MSTORE PUSH1 0x0 DUP1 DUP3 MSTORE PUSH1 0x20 DUP3 ADD DUP2 SWAP1 MSTORE SWAP2 DUP2 ADD DUP3 SWAP1 MSTORE PUSH1 0x60 DUP2 ADD DUP3 SWAP1 MSTORE PUSH1 0x80 DUP2 ADD SWAP2 SWAP1 SWAP2 MSTORE SWAP1 JUMP JUMPDEST PUSH1 0x40 MLOAD DUP1 PUSH2 0x160 ADD PUSH1 0x40 MSTORE DUP1 PUSH1 0x0 PUSH1 0x1 PUSH1 0x1 PUSH1 0xA0 SHL SUB AND DUP2 MSTORE PUSH1 0x20 ADD PUSH1 0x0 DUP2 MSTORE PUSH1 0x20 ADD PUSH1 0x0 DUP2 MSTORE PUSH1 0x20 ADD PUSH1 0x0 DUP2 MSTORE PUSH1 0x20 ADD PUSH1 0x0 DUP2 MSTORE PUSH1 0x20 ADD PUSH1 0x0 PUSH1 0x1 PUSH1 0x1 PUSH1 0xD0 SHL SUB NOT AND DUP2 MSTORE PUSH1 0x20 ADD PUSH2 0x3C9C PUSH2 0x3DDB JUMP JUMPDEST DUP2 MSTORE PUSH1 0x20 ADD PUSH2 0x3CA9 PUSH2 0x3DDB JUMP JUMPDEST DUP2 MSTORE PUSH1 0x20 ADD PUSH2 0x3CB6 PUSH2 0x3E0A JUMP JUMPDEST DUP2 MSTORE PUSH1 0x20 ADD PUSH2 0x3CC3 PUSH2 0x3E34 JUMP JUMPDEST DUP2 MSTORE PUSH1 0x0 PUSH1 0x20 SWAP1 SWAP2 ADD MSTORE SWAP1 JUMP JUMPDEST PUSH1 0x40 MLOAD DUP1 PUSH1 0xC0 ADD PUSH1 0x40 MSTORE DUP1 PUSH1 0x0 DUP2 MSTORE PUSH1 0x20 ADD PUSH1 0x0 DUP2 MSTORE PUSH1 0x20 ADD PUSH1 0x0 DUP2 MSTORE PUSH1 0x20 ADD PUSH1 0x0 DUP2 MSTORE PUSH1 0x20 ADD PUSH1 0x0 DUP2 MSTORE PUSH1 0x20 ADD PUSH1 0x0 PUSH1 0x3 DUP2 GT ISZERO PUSH2 0x3D0B JUMPI INVALID JUMPDEST SWAP1 MSTORE SWAP1 JUMP JUMPDEST PUSH1 0x40 MLOAD DUP1 PUSH1 0xC0 ADD PUSH1 0x40 MSTORE DUP1 PUSH1 0x0 DUP2 MSTORE PUSH1 0x20 ADD PUSH1 0x0 DUP2 MSTORE PUSH1 0x20 ADD PUSH1 0x0 DUP2 MSTORE PUSH1 0x20 ADD PUSH1 0x0 DUP2 MSTORE PUSH1 0x20 ADD PUSH1 0x0 DUP2 MSTORE PUSH1 0x20 ADD PUSH1 0x0 DUP2 MSTORE POP SWAP1 JUMP JUMPDEST PUSH1 0x40 DUP1 MLOAD PUSH1 0xA0 DUP2 ADD DUP3 MSTORE PUSH1 0x0 DUP1 DUP3 MSTORE PUSH1 0x20 DUP3 ADD DUP2 SWAP1 MSTORE SWAP2 DUP2 ADD DUP3 SWAP1 MSTORE SWAP1 PUSH1 0x60 DUP3 ADD SWAP1 DUP2 MSTORE PUSH1 0x20 ADD PUSH1 0x0 DUP2 MSTORE POP SWAP1 JUMP JUMPDEST PUSH1 0x40 MLOAD DUP1 PUSH2 0x100 ADD PUSH1 0x40 MSTORE DUP1 PUSH1 0x0 DUP1 NOT AND DUP2 MSTORE PUSH1 0x20 ADD PUSH1 0x0 DUP2 MSTORE PUSH1 0x20 ADD PUSH1 0x0 DUP2 MSTORE PUSH1 0x20 ADD PUSH1 0x0 DUP2 MSTORE PUSH1 0x20 ADD PUSH1 0x0 DUP2 MSTORE PUSH1 0x20 ADD PUSH1 0x0 DUP2 MSTORE PUSH1 0x20 ADD PUSH1 0x0 DUP2 MSTORE PUSH1 0x20 ADD PUSH1 0x0 DUP2 MSTORE POP SWAP1 JUMP JUMPDEST PUSH1 0x40 MLOAD DUP1 PUSH1 0x20 ADD PUSH1 0x40 MSTORE DUP1 PUSH1 0x1 SWAP1 PUSH1 0x20 DUP3 MUL DUP1 CALLDATASIZE DUP4 CALLDATACOPY POP SWAP2 SWAP3 SWAP2 POP POP JUMP JUMPDEST PUSH1 0x40 MLOAD DUP1 PUSH1 0xA0 ADD PUSH1 0x40 MSTORE DUP1 PUSH1 0x0 DUP2 MSTORE PUSH1 0x20 ADD PUSH1 0x0 DUP2 MSTORE PUSH1 0x20 ADD PUSH1 0x0 DUP2 MSTORE PUSH1 0x20 ADD PUSH1 0x0 DUP2 MSTORE PUSH1 0x20 ADD PUSH1 0x0 DUP2 MSTORE POP SWAP1 JUMP JUMPDEST PUSH1 0x40 MLOAD DUP1 PUSH1 0x60 ADD PUSH1 0x40 MSTORE DUP1 PUSH1 0x0 PUSH1 0x1 PUSH1 0x1 PUSH1 0xA0 SHL SUB AND DUP2 MSTORE PUSH1 0x20 ADD PUSH1 0x0 DUP2 MSTORE PUSH1 0x20 ADD PUSH1 0x0 DUP2 MSTORE POP SWAP1 JUMP JUMPDEST PUSH1 0x40 DUP1 MLOAD PUSH1 0x80 DUP2 ADD DUP3 MSTORE PUSH1 0x0 DUP1 DUP3 MSTORE PUSH1 0x20 DUP3 ADD MSTORE SWAP1 DUP2 ADD PUSH2 0x3CC3 PUSH2 0x3E0A JUMP JUMPDEST DUP1 MLOAD PUSH2 0x3F3 DUP2 PUSH2 0x469A JUMP JUMPDEST PUSH1 0x0 DUP3 PUSH1 0x1F DUP4 ADD SLT PUSH2 0x3E6E JUMPI DUP1 DUP2 REVERT JUMPDEST DUP2 MLOAD PUSH1 0x20 PUSH8 0xFFFFFFFFFFFFFFFF DUP1 DUP4 GT ISZERO PUSH2 0x3E85 JUMPI INVALID JUMPDEST PUSH2 0x3E92 DUP3 DUP4 DUP6 MUL ADD PUSH2 0x4676 JUMP JUMPDEST DUP4 DUP2 MSTORE DUP3 DUP2 ADD SWAP1 DUP7 DUP5 ADD PUSH1 0xC0 DUP1 DUP8 MUL DUP10 ADD DUP7 ADD DUP11 LT ISZERO PUSH2 0x3EB0 JUMPI DUP8 DUP9 REVERT JUMPDEST DUP8 JUMPDEST DUP8 DUP2 LT ISZERO PUSH2 0x3F31 JUMPI DUP2 DUP4 DUP13 SUB SLT ISZERO PUSH2 0x3EC8 JUMPI DUP9 DUP10 REVERT JUMPDEST PUSH1 0x40 DUP1 MLOAD DUP4 DUP2 ADD DUP2 DUP2 LT DUP10 DUP3 GT OR ISZERO PUSH2 0x3EDD JUMPI INVALID JUMPDEST DUP3 MSTORE DUP5 MLOAD DUP2 MSTORE DUP9 DUP6 ADD MLOAD DUP10 DUP3 ADD MSTORE DUP5 DUP3 ADD MLOAD SWAP2 DUP2 ADD SWAP2 SWAP1 SWAP2 MSTORE PUSH1 0x60 DUP1 DUP6 ADD MLOAD SWAP1 DUP3 ADD MSTORE PUSH1 0x80 DUP1 DUP6 ADD MLOAD SWAP1 DUP3 ADD MSTORE PUSH1 0xA0 SWAP1 PUSH2 0x3F18 DUP3 DUP7 ADD PUSH2 0x3F93 JUMP JUMPDEST SWAP2 DUP2 ADD SWAP2 SWAP1 SWAP2 MSTORE DUP6 MSTORE SWAP4 DUP7 ADD SWAP4 SWAP2 DUP2 ADD SWAP2 PUSH1 0x1 ADD PUSH2 0x3EB2 JUMP JUMPDEST POP SWAP2 SWAP10 SWAP9 POP POP POP POP POP POP POP POP POP JUMP JUMPDEST DUP1 MLOAD PUSH2 0x3F3 DUP2 PUSH2 0x46B2 JUMP JUMPDEST DUP1 MLOAD PUSH1 0x1 PUSH1 0x1 PUSH1 0x70 SHL SUB NOT DUP2 AND DUP2 EQ PUSH2 0x3F3 JUMPI PUSH1 0x0 DUP1 REVERT JUMPDEST DUP1 MLOAD PUSH1 0x1 PUSH1 0x1 PUSH1 0xF8 SHL SUB NOT DUP2 AND DUP2 EQ PUSH2 0x3F3 JUMPI PUSH1 0x0 DUP1 REVERT JUMPDEST DUP1 MLOAD PUSH1 0x1 PUSH1 0x1 PUSH1 0xD0 SHL SUB NOT DUP2 AND DUP2 EQ PUSH2 0x3F3 JUMPI PUSH1 0x0 DUP1 REVERT JUMPDEST DUP1 MLOAD PUSH1 0x4 DUP2 LT PUSH2 0x3F3 JUMPI PUSH1 0x0 DUP1 REVERT JUMPDEST PUSH1 0x0 PUSH1 0x60 DUP3 DUP5 SUB SLT ISZERO PUSH2 0x3FB3 JUMPI DUP1 DUP2 REVERT JUMPDEST PUSH1 0x40 MLOAD PUSH1 0x60 DUP2 ADD DUP2 DUP2 LT PUSH8 0xFFFFFFFFFFFFFFFF DUP3 GT OR ISZERO PUSH2 0x3FD0 JUMPI INVALID JUMPDEST DUP1 PUSH1 0x40 MSTORE POP DUP1 SWAP2 POP DUP3 MLOAD PUSH2 0x3FE3 DUP2 PUSH2 0x469A JUMP JUMPDEST DUP1 DUP3 MSTORE POP PUSH1 0x20 DUP4 ADD MLOAD PUSH1 0x20 DUP3 ADD MSTORE PUSH1 0x40 DUP4 ADD MLOAD PUSH1 0x40 DUP3 ADD MSTORE POP SWAP3 SWAP2 POP POP JUMP JUMPDEST PUSH1 0x0 PUSH1 0xC0 DUP3 DUP5 SUB SLT ISZERO PUSH2 0x4013 JUMPI DUP1 DUP2 REVERT JUMPDEST PUSH1 0x40 MLOAD PUSH1 0x80 DUP2 ADD DUP2 DUP2 LT PUSH8 0xFFFFFFFFFFFFFFFF DUP3 GT OR ISZERO PUSH2 0x4030 JUMPI INVALID JUMPDEST DUP1 PUSH1 0x40 MSTORE POP DUP1 SWAP2 POP DUP3 MLOAD PUSH2 0x4043 DUP2 PUSH2 0x46C0 JUMP JUMPDEST DUP2 MSTORE PUSH1 0x20 DUP4 DUP2 ADD MLOAD SWAP1 DUP3 ADD MSTORE PUSH2 0x405C DUP5 PUSH1 0x40 DUP6 ADD PUSH2 0x3FA2 JUMP JUMPDEST PUSH1 0x40 DUP3 ADD MSTORE PUSH1 0xA0 DUP4 ADD MLOAD PUSH1 0x60 DUP3 ADD MSTORE POP SWAP3 SWAP2 POP POP JUMP JUMPDEST PUSH1 0x0 PUSH1 0xA0 DUP3 DUP5 SUB SLT ISZERO PUSH2 0x4083 JUMPI DUP1 DUP2 REVERT JUMPDEST PUSH1 0x40 MLOAD PUSH1 0xA0 DUP2 ADD DUP2 DUP2 LT PUSH8 0xFFFFFFFFFFFFFFFF DUP3 GT OR ISZERO PUSH2 0x40A0 JUMPI INVALID JUMPDEST DUP1 PUSH1 0x40 MSTORE POP DUP1 SWAP2 POP DUP3 MLOAD DUP2 MSTORE PUSH1 0x20 DUP4 ADD MLOAD PUSH1 0x20 DUP3 ADD MSTORE PUSH1 0x40 DUP4 ADD MLOAD PUSH1 0x40 DUP3 ADD MSTORE PUSH1 0x60 DUP4 ADD MLOAD PUSH1 0x60 DUP3 ADD MSTORE PUSH1 0x80 DUP4 ADD MLOAD PUSH1 0x80 DUP3 ADD MSTORE POP SWAP3 SWAP2 POP POP JUMP JUMPDEST PUSH1 0x0 PUSH2 0x340 DUP3 DUP5 SUB SLT ISZERO PUSH2 0x40ED JUMPI DUP1 DUP2 REVERT JUMPDEST PUSH2 0x160 PUSH2 0x40F9 DUP2 PUSH2 0x4676 JUMP JUMPDEST SWAP2 POP PUSH2 0x4104 DUP4 PUSH2 0x3E53 JUMP JUMPDEST DUP3 MSTORE PUSH1 0x20 DUP4 ADD MLOAD PUSH1 0x20 DUP4 ADD MSTORE PUSH1 0x40 DUP4 ADD MLOAD PUSH1 0x40 DUP4 ADD MSTORE PUSH1 0x60 DUP4 ADD MLOAD PUSH1 0x60 DUP4 ADD MSTORE PUSH1 0x80 DUP4 ADD MLOAD PUSH1 0x80 DUP4 ADD MSTORE PUSH2 0x413A PUSH1 0xA0 DUP5 ADD PUSH2 0x3F7B JUMP JUMPDEST PUSH1 0xA0 DUP4 ADD MSTORE PUSH2 0x414C DUP5 PUSH1 0xC0 DUP6 ADD PUSH2 0x4072 JUMP JUMPDEST PUSH1 0xC0 DUP4 ADD MSTORE PUSH2 0x415D DUP5 DUP3 DUP6 ADD PUSH2 0x4072 JUMP JUMPDEST PUSH1 0xE0 DUP4 ADD MSTORE POP PUSH2 0x4171 DUP4 PUSH2 0x200 DUP5 ADD PUSH2 0x3FA2 JUMP JUMPDEST PUSH2 0x100 DUP3 ADD MSTORE PUSH2 0x4185 DUP4 PUSH2 0x260 DUP5 ADD PUSH2 0x4002 JUMP JUMPDEST PUSH2 0x120 DUP3 ADD MSTORE PUSH2 0x4198 PUSH2 0x320 DUP4 ADD PUSH2 0x3F40 JUMP JUMPDEST PUSH2 0x140 DUP3 ADD MSTORE SWAP3 SWAP2 POP POP JUMP JUMPDEST DUP1 CALLDATALOAD PUSH1 0x1 PUSH1 0x1 PUSH1 0x80 SHL SUB DUP2 AND DUP2 EQ PUSH2 0x3F3 JUMPI PUSH1 0x0 DUP1 REVERT JUMPDEST DUP1 MLOAD PUSH2 0x3F3 DUP2 PUSH2 0x46C0 JUMP JUMPDEST DUP1 MLOAD PUSH1 0xFF DUP2 AND DUP2 EQ PUSH2 0x3F3 JUMPI PUSH1 0x0 DUP1 REVERT JUMPDEST DUP1 CALLDATALOAD PUSH1 0x1 PUSH1 0x1 PUSH1 0x60 SHL SUB DUP2 AND DUP2 EQ PUSH2 0x3F3 JUMPI PUSH1 0x0 DUP1 REVERT JUMPDEST PUSH1 0x0 DUP1 PUSH1 0x0 DUP1 PUSH1 0x0 PUSH1 0xA0 DUP7 DUP9 SUB SLT ISZERO PUSH2 0x4205 JUMPI DUP1 DUP2 REVERT JUMPDEST DUP6 CALLDATALOAD PUSH2 0x4210 DUP2 PUSH2 0x469A JUMP JUMPDEST SWAP5 POP PUSH1 0x20 DUP7 ADD CALLDATALOAD PUSH2 0x4220 DUP2 PUSH2 0x46C0 JUMP JUMPDEST SWAP4 POP PUSH1 0x40 DUP7 ADD CALLDATALOAD PUSH2 0x4230 DUP2 PUSH2 0x46C0 JUMP JUMPDEST SWAP3 POP PUSH2 0x423E PUSH1 0x60 DUP8 ADD PUSH2 0x41A4 JUMP JUMPDEST SWAP2 POP PUSH2 0x424C PUSH1 0x80 DUP8 ADD PUSH2 0x41D7 JUMP JUMPDEST SWAP1 POP SWAP3 SWAP6 POP SWAP3 SWAP6 SWAP1 SWAP4 POP JUMP JUMPDEST PUSH1 0x0 DUP1 PUSH1 0x0 DUP1 PUSH1 0x0 DUP1 PUSH1 0x0 PUSH1 0xE0 DUP9 DUP11 SUB SLT ISZERO PUSH2 0x4272 JUMPI DUP5 DUP6 REVERT JUMPDEST DUP8 CALLDATALOAD PUSH2 0x427D DUP2 PUSH2 0x469A JUMP JUMPDEST SWAP7 POP PUSH1 0x20 DUP9 ADD CALLDATALOAD PUSH2 0x428D DUP2 PUSH2 0x46C0 JUMP JUMPDEST SWAP6 POP PUSH1 0x40 DUP9 ADD CALLDATALOAD PUSH2 0x429D DUP2 PUSH2 0x46C0 JUMP JUMPDEST SWAP5 POP PUSH2 0x42AB PUSH1 0x60 DUP10 ADD PUSH2 0x41A4 JUMP JUMPDEST SWAP4 POP PUSH2 0x42B9 PUSH1 0x80 DUP10 ADD PUSH2 0x41D7 JUMP JUMPDEST SWAP3 POP PUSH1 0xA0 DUP9 ADD CALLDATALOAD PUSH2 0x42C9 DUP2 PUSH2 0x46B2 JUMP JUMPDEST SWAP2 POP PUSH1 0xC0 DUP9 ADD CALLDATALOAD PUSH2 0x42D9 DUP2 PUSH2 0x46B2 JUMP JUMPDEST DUP1 SWAP2 POP POP SWAP3 SWAP6 SWAP9 SWAP2 SWAP5 SWAP8 POP SWAP3 SWAP6 POP JUMP JUMPDEST PUSH1 0x0 DUP1 PUSH1 0x0 PUSH1 0x60 DUP5 DUP7 SUB SLT ISZERO PUSH2 0x42FD JUMPI DUP1 DUP2 REVERT JUMPDEST DUP4 CALLDATALOAD PUSH2 0x4308 DUP2 PUSH2 0x469A JUMP JUMPDEST SWAP3 POP PUSH1 0x20 DUP5 ADD CALLDATALOAD PUSH2 0x4318 DUP2 PUSH2 0x46C0 JUMP JUMPDEST SWAP2 POP PUSH2 0x4326 PUSH1 0x40 DUP6 ADD PUSH2 0x41D7 JUMP JUMPDEST SWAP1 POP SWAP3 POP SWAP3 POP SWAP3 JUMP JUMPDEST PUSH1 0x0 DUP1 PUSH1 0x0 DUP4 DUP6 SUB PUSH2 0x400 DUP2 SLT ISZERO PUSH2 0x4345 JUMPI DUP2 DUP3 REVERT JUMPDEST PUSH1 0xA0 DUP2 SLT ISZERO PUSH2 0x4352 JUMPI DUP2 DUP3 REVERT JUMPDEST POP PUSH1 0x40 MLOAD PUSH1 0xA0 DUP2 ADD PUSH8 0xFFFFFFFFFFFFFFFF DUP3 DUP3 LT DUP2 DUP4 GT OR ISZERO PUSH2 0x4371 JUMPI INVALID JUMPDEST DUP2 PUSH1 0x40 MSTORE DUP7 MLOAD SWAP2 POP PUSH5 0xFFFFFFFFFF DUP3 AND DUP3 EQ PUSH2 0x438B JUMPI DUP4 DUP5 REVERT JUMPDEST DUP2 DUP4 MSTORE PUSH2 0x439A PUSH1 0x20 DUP9 ADD PUSH2 0x3F63 JUMP JUMPDEST PUSH1 0x20 DUP5 ADD MSTORE PUSH2 0x43AB PUSH1 0x40 DUP9 ADD PUSH2 0x41C6 JUMP JUMPDEST PUSH1 0x40 DUP5 ADD MSTORE PUSH2 0x43BC PUSH1 0x60 DUP9 ADD PUSH2 0x41BB JUMP JUMPDEST PUSH1 0x60 DUP5 ADD MSTORE PUSH2 0x43CD PUSH1 0x80 DUP9 ADD PUSH2 0x3F4B JUMP JUMPDEST PUSH1 0x80 DUP5 ADD MSTORE DUP3 SWAP6 POP PUSH2 0x43E2 DUP9 PUSH1 0xA0 DUP10 ADD PUSH2 0x40DB JUMP JUMPDEST SWAP5 POP PUSH2 0x3E0 DUP8 ADD MLOAD SWAP3 POP DUP1 DUP4 GT ISZERO PUSH2 0x43F8 JUMPI DUP4 DUP5 REVERT JUMPDEST POP POP PUSH2 0x4406 DUP7 DUP3 DUP8 ADD PUSH2 0x3E5E JUMP JUMPDEST SWAP2 POP POP SWAP3 POP SWAP3 POP SWAP3 JUMP JUMPDEST PUSH1 0x0 PUSH1 0x20 DUP3 DUP5 SUB SLT ISZERO PUSH2 0x4421 JUMPI DUP1 DUP2 REVERT JUMPDEST POP MLOAD SWAP2 SWAP1 POP JUMP JUMPDEST PUSH1 0x1 PUSH1 0x1 PUSH1 0xA0 SHL SUB SWAP2 SWAP1 SWAP2 AND DUP2 MSTORE PUSH1 0x20 ADD SWAP1 JUMP JUMPDEST PUSH1 0x1 PUSH1 0x1 PUSH1 0xA0 SHL SUB SWAP4 DUP5 AND DUP2 MSTORE SWAP2 SWAP1 SWAP3 AND PUSH1 0x20 DUP3 ADD MSTORE PUSH1 0x40 DUP2 ADD SWAP2 SWAP1 SWAP2 MSTORE PUSH1 0x60 ADD SWAP1 JUMP JUMPDEST PUSH1 0x1 PUSH1 0x1 PUSH1 0xA0 SHL SUB SWAP4 SWAP1 SWAP4 AND DUP4 MSTORE PUSH2 0xFFFF SWAP2 DUP3 AND PUSH1 0x20 DUP5 ADD MSTORE AND PUSH1 0x40 DUP3 ADD MSTORE PUSH1 0x60 ADD SWAP1 JUMP JUMPDEST PUSH1 0x1 PUSH1 0x1 PUSH1 0xA0 SHL SUB SWAP3 SWAP1 SWAP3 AND DUP3 MSTORE PUSH1 0x20 DUP3 ADD MSTORE PUSH1 0x40 ADD SWAP1 JUMP JUMPDEST SWAP1 DUP2 MSTORE PUSH1 0x20 ADD SWAP1 JUMP JUMPDEST SWAP2 DUP3 MSTORE PUSH1 0x20 DUP3 ADD MSTORE PUSH1 0x40 ADD SWAP1 JUMP JUMPDEST SWAP3 DUP4 MSTORE PUSH1 0x20 DUP4 ADD SWAP2 SWAP1 SWAP2 MSTORE PUSH1 0x40 DUP3 ADD MSTORE PUSH1 0x60 ADD SWAP1 JUMP JUMPDEST PUSH1 0x20 DUP1 DUP3 MSTORE PUSH1 0xD SWAP1 DUP3 ADD MSTORE PUSH13 0x139BC81B1BD8D85B081919589D PUSH1 0x9A SHL PUSH1 0x40 DUP3 ADD MSTORE PUSH1 0x60 ADD SWAP1 JUMP JUMPDEST PUSH1 0x20 DUP1 DUP3 MSTORE PUSH1 0x6 SWAP1 DUP3 ADD MSTORE PUSH6 0x52656465656D PUSH1 0xD0 SHL PUSH1 0x40 DUP3 ADD MSTORE PUSH1 0x60 ADD SWAP1 JUMP JUMPDEST PUSH1 0x20 DUP1 DUP3 MSTORE PUSH1 0xD SWAP1 DUP3 ADD MSTORE PUSH13 0x92DCECC2D8D2C840D2DCC8CAF PUSH1 0x9B SHL PUSH1 0x40 DUP3 ADD MSTORE PUSH1 0x60 ADD SWAP1 JUMP JUMPDEST PUSH1 0x20 DUP1 DUP3 MSTORE PUSH1 0xE SWAP1 DUP3 ADD MSTORE PUSH14 0x125B9D985B1A59081B585C9AD95D PUSH1 0x92 SHL PUSH1 0x40 DUP3 ADD MSTORE PUSH1 0x60 ADD SWAP1 JUMP JUMPDEST PUSH1 0x20 DUP1 DUP3 MSTORE PUSH1 0x7 SWAP1 DUP3 ADD MSTORE PUSH7 0x9CDE40C6C2E6D PUSH1 0xCB SHL PUSH1 0x40 DUP3 ADD MSTORE PUSH1 0x60 ADD SWAP1 JUMP JUMPDEST PUSH1 0x20 DUP1 DUP3 MSTORE PUSH1 0x5 SWAP1 DUP3 ADD MSTORE PUSH5 0x455243323 PUSH1 0xDC SHL PUSH1 0x40 DUP3 ADD MSTORE PUSH1 0x60 ADD SWAP1 JUMP JUMPDEST PUSH1 0x20 DUP1 DUP3 MSTORE PUSH1 0xD SWAP1 DUP3 ADD MSTORE PUSH13 0x139BC818DBDB1B185D195C985B PUSH1 0x9A SHL PUSH1 0x40 DUP3 ADD MSTORE PUSH1 0x60 ADD SWAP1 JUMP JUMPDEST PUSH1 0x20 DUP1 DUP3 MSTORE PUSH1 0xE SWAP1 DUP3 ADD MSTORE PUSH14 0x1499595B9D1C985B9D0818D85B1B PUSH1 0x92 SHL PUSH1 0x40 DUP3 ADD MSTORE PUSH1 0x60 ADD SWAP1 JUMP JUMPDEST PUSH1 0x20 DUP1 DUP3 MSTORE PUSH1 0x8 SWAP1 DUP3 ADD MSTORE PUSH8 0x9CCACE4086C2E6D PUSH1 0xC3 SHL PUSH1 0x40 DUP3 ADD MSTORE PUSH1 0x60 ADD SWAP1 JUMP JUMPDEST PUSH1 0x20 DUP1 DUP3 MSTORE PUSH1 0xA SWAP1 DUP3 ADD MSTORE PUSH10 0x2732B390372A37B5B2B7 PUSH1 0xB1 SHL PUSH1 0x40 DUP3 ADD MSTORE PUSH1 0x60 ADD SWAP1 JUMP JUMPDEST PUSH2 0xFFFF SWAP3 SWAP1 SWAP3 AND DUP3 MSTORE PUSH1 0x20 DUP3 ADD MSTORE PUSH1 0x40 ADD SWAP1 JUMP JUMPDEST PUSH2 0xFFFF SWAP6 DUP7 AND DUP2 MSTORE SWAP4 SWAP1 SWAP5 AND PUSH1 0x20 DUP5 ADD MSTORE PUSH1 0x40 DUP4 ADD SWAP2 SWAP1 SWAP2 MSTORE PUSH1 0x60 DUP3 ADD MSTORE PUSH1 0x80 DUP2 ADD SWAP2 SWAP1 SWAP2 MSTORE PUSH1 0xA0 ADD SWAP1 JUMP JUMPDEST PUSH1 0x40 MLOAD DUP2 DUP2 ADD PUSH8 0xFFFFFFFFFFFFFFFF DUP2 GT DUP3 DUP3 LT OR ISZERO PUSH2 0x4692 JUMPI INVALID JUMPDEST PUSH1 0x40 MSTORE SWAP2 SWAP1 POP JUMP JUMPDEST PUSH1 0x1 PUSH1 0x1 PUSH1 0xA0 SHL SUB DUP2 AND DUP2 EQ PUSH2 0x46AF JUMPI PUSH1 0x0 DUP1 REVERT JUMPDEST POP JUMP JUMPDEST DUP1 ISZERO ISZERO DUP2 EQ PUSH2 0x46AF JUMPI PUSH1 0x0 DUP1 REVERT JUMPDEST PUSH2 0xFFFF DUP2 AND DUP2 EQ PUSH2 0x46AF JUMPI PUSH1 0x0 DUP1 REVERT INVALID MSTORE8 PUSH2 0x6665 0x4D PUSH2 0x7468 GASPRICE KECCAK256 PUSH14 0x756C7469706C69636174696F6E20 PUSH16 0x766572666C6F77A26469706673582212 KECCAK256 0xCB DUP2 DIFFICULTY 0xA7 0x23 XOR SWAP7 SWAP16 0xF9 0xD 0xB0 XOR 0xD5 AND SHR 0xE9 0x1F PUSH8 0x4363D41C470DB44E 0xEE AND 0xE7 0x2A SWAP15 0xD5 PUSH5 0x736F6C6343 STOP SMOD MOD STOP CALLER ","sha1":"a9a3c27c90d6e9872c66a4cdc1f0267ec0a38860","source":"// SPDX-License-Identifier: GPL-3.0-only\npragma solidity ^0.7.0;\npragma abicoder v2;\n\nimport \"./ActionGuards.sol\";\nimport \"../../internal/AccountContextHandler.sol\";\nimport \"../../internal/liquidation/LiquidateCurrency.sol\";\nimport \"../../internal/liquidation/LiquidationHelpers.sol\";\nimport \"../../math/SafeInt256.sol\";\n\ncontract LiquidateCurrencyAction is ActionGuards {\n    using AccountContextHandler for AccountContext;\n    using BalanceHandler for BalanceState;\n    using SafeInt256 for int256;\n\n    event LiquidateLocalCurrency(\n        address indexed liquidated,\n        address indexed liquidator,\n        uint16 localCurrencyId,\n        int256 localAssetCashFromLiquidator\n    );\n\n    event LiquidateCollateralCurrency(\n        address indexed liquidated,\n        address indexed liquidator,\n        uint16 localCurrencyId,\n        uint16 collateralCurrencyId,\n        int256 localAssetCashFromLiquidator,\n        int256 netCollateralTransfer,\n        int256 netNTokenTransfer\n    );\n\n    /// @notice Calculates the net local currency required by the liquidator. This is a stateful method\n    /// because it may settle the liquidated account if required. However, it can be called using staticcall\n    /// off chain to determine the net local currency required before liquidating.\n    /// @param liquidateAccount account to liquidate\n    /// @param localCurrency id of the local currency\n    /// @param maxNTokenLiquidation maximum amount of nTokens to purchase (if any)\n    /// @return local currency required from liquidator (positive or negative)\n    /// @return local nTokens paid to liquidator (positive)\n    function calculateLocalCurrencyLiquidation(\n        address liquidateAccount,\n        uint16 localCurrency,\n        uint96 maxNTokenLiquidation\n    ) external returns (int256, int256) {\n        // prettier-ignore\n        (\n            int256 localAssetCashFromLiquidator,\n            BalanceState memory localBalanceState,\n            /* PortfolioState memory portfolio */,\n            /* AccountContext memory accountContext */\n        ) = _localCurrencyLiquidation(\n            liquidateAccount,\n            localCurrency,\n            maxNTokenLiquidation,\n            true // Is Calculation\n        );\n\n        return (\n            localAssetCashFromLiquidator,\n            localBalanceState.netNTokenTransfer.neg()\n        );\n    }\n\n    /// @notice Liquidates an account using local currency only\n    /// @param liquidateAccount account to liquidate\n    /// @param localCurrency id of the local currency\n    /// @param maxNTokenLiquidation maximum amount of nTokens to purchase (if any)\n    /// @return local currency required from liquidator (positive or negative)\n    /// @return local nTokens paid to liquidator (positive)\n    function liquidateLocalCurrency(\n        address liquidateAccount,\n        uint16 localCurrency,\n        uint96 maxNTokenLiquidation\n    ) external nonReentrant returns (int256, int256) {\n        // Calculates liquidation results:\n        //  - withdraws liquidity tokens in local currency\n        //  - ntoken transfers\n        //  - amount of cash paid to/from the liquidator\n        (\n            int256 localAssetCashFromLiquidator,\n            BalanceState memory localBalanceState,\n            PortfolioState memory portfolio,\n            AccountContext memory accountContext\n        ) = _localCurrencyLiquidation(\n            liquidateAccount,\n            localCurrency,\n            maxNTokenLiquidation,\n            false // is not calculation\n        );\n\n        // Finalizes liquidator account changes:\n        //  - transfers local asset cash to/from liquidator wallet (not notional cash\n        //    balance). Exception is with tokens that have a transfer fee\n        //  - transfers ntokens to liquidator\n        AccountContext memory liquidatorContext =\n            LiquidationHelpers.finalizeLiquidatorLocal(\n                msg.sender,\n                localCurrency,\n                localAssetCashFromLiquidator,\n                localBalanceState.netNTokenTransfer.neg()\n            );\n        liquidatorContext.setAccountContext(msg.sender);\n\n        // Finalizes liquidated account changes:\n        //   - credits additional change in localBalanceChange.netCashChange\n        //   - removes transferred nTokens from the account\n        //   - finalizes any liquidity token withdraws in an array portfolio\n        //   - sets the account context\n        LiquidateCurrency.finalizeLiquidatedCollateralAndPortfolio(\n            liquidateAccount,\n            localBalanceState, // In this case, local currency is the collateral\n            accountContext,\n            portfolio\n        );\n\n        emit LiquidateLocalCurrency(\n            liquidateAccount,\n            msg.sender,\n            localCurrency,\n            localAssetCashFromLiquidator\n        );\n\n        return (\n            localAssetCashFromLiquidator,\n            localBalanceState.netNTokenTransfer.neg()\n        );\n    }\n\n    /// @notice Calculates local and collateral currency transfers for a liquidation. This is a stateful method\n    /// because it may settle the liquidated account if required. However, it can be called using staticcall\n    /// off chain to determine the net currency amounts required before liquidating.\n    /// @param liquidateAccount account to liquidate\n    /// @param localCurrency id of the local currency\n    /// @param collateralCurrency id of the collateral currency\n    /// @param maxCollateralLiquidation maximum amount of collateral (inclusive of cash and nTokens) to liquidate\n    /// @param maxNTokenLiquidation maximum amount of nTokens to purchase (if any)\n    /// @return local currency required from liquidator (negative)\n    /// @return collateral asset cash paid to liquidator (positive)\n    /// @return collateral nTokens paid to liquidator (positive)\n    function calculateCollateralCurrencyLiquidation(\n        address liquidateAccount,\n        uint16 localCurrency,\n        uint16 collateralCurrency,\n        uint128 maxCollateralLiquidation,\n        uint96 maxNTokenLiquidation\n    )\n        external\n        returns (\n            int256,\n            int256,\n            int256\n        )\n    {\n        // prettier-ignore\n        (\n            int256 localAssetCashFromLiquidator,\n            BalanceState memory collateralBalanceState,\n            /* PortfolioState memory portfolio */,\n            /* AccountContext memory accountContext */\n        ) = _collateralCurrencyLiquidation(\n                liquidateAccount,\n                localCurrency,\n                collateralCurrency,\n                maxCollateralLiquidation,\n                maxNTokenLiquidation,\n                true // is calculation\n            );\n\n        return (\n            localAssetCashFromLiquidator,\n            _collateralAssetCashToLiquidator(collateralBalanceState),\n            collateralBalanceState.netNTokenTransfer.neg()\n        );\n    }\n\n    /// @notice Liquidates an account between local and collateral currency\n    /// @param liquidateAccount account to liquidate\n    /// @param localCurrency id of the local currency\n    /// @param collateralCurrency id of the collateral currency\n    /// @param maxCollateralLiquidation maximum amount of collateral (inclusive of cash and nTokens) to liquidate\n    /// @param maxNTokenLiquidation maximum amount of nTokens to purchase (if any)\n    /// @param withdrawCollateral if true, withdraws collateral cash back to msg.sender\n    /// @param redeemToUnderlying if true, converts collateral cash from asset cash to underlying\n    /// @return local currency required from liquidator (negative)\n    /// @return collateral asset cash paid to liquidator (positive)\n    /// @return collateral nTokens paid to liquidator (positive)\n    function liquidateCollateralCurrency(\n        address liquidateAccount,\n        uint16 localCurrency,\n        uint16 collateralCurrency,\n        uint128 maxCollateralLiquidation,\n        uint96 maxNTokenLiquidation,\n        bool withdrawCollateral,\n        bool redeemToUnderlying\n    )\n        external\n        nonReentrant\n        returns (\n            int256,\n            int256,\n            int256\n        )\n    {\n        // Calculates currency liquidation:\n        //  - amount of collateral cash balance given to liquidator\n        //  - liquidity tokens withdrawn\n        //  - collateral ntokens transferred to liquidator\n        (\n            int256 localAssetCashFromLiquidator,\n            BalanceState memory collateralBalanceState,\n            PortfolioState memory portfolio,\n            AccountContext memory accountContext\n        ) =\n            _collateralCurrencyLiquidation(\n                liquidateAccount,\n                localCurrency,\n                collateralCurrency,\n                maxCollateralLiquidation,\n                maxNTokenLiquidation,\n                false // is not calculation\n            );\n\n        // Finalizes the liquidator side of the transaction:\n        //   - transfers local asset cash from the liquidator wallet (exception\n        //     is if local asset has transfer fees)\n        //   - transfers collateral cash to liquidator, withdrawing and redeeming\n        //     if specified\n        //   - transfers ntokens to liquidator\n        //   - sets account context\n        _finalizeLiquidatorBalances(\n            localCurrency,\n            collateralCurrency,\n            localAssetCashFromLiquidator,\n            collateralBalanceState,\n            withdrawCollateral,\n            redeemToUnderlying\n        );\n\n        _emitCollateralEvent(\n            liquidateAccount,\n            localCurrency,\n            localAssetCashFromLiquidator,\n            collateralBalanceState\n        );\n\n        // Finalize liquidated account local balance:\n        //   - adds local asset cash to the balance\n        LiquidationHelpers.finalizeLiquidatedLocalBalance(\n            liquidateAccount,\n            localCurrency,\n            accountContext,\n            localAssetCashFromLiquidator\n        );\n\n        // Finalizes the liquidated account collateral balance:\n        //   - removes collateral cash paid to liquidator from cash balance\n        //   - stores any updates to the portfolio array from removed liquidity tokens\n        //   - removes collateral nTokens from the account\n        //   - sets the account context\n        LiquidateCurrency.finalizeLiquidatedCollateralAndPortfolio(\n            liquidateAccount,\n            collateralBalanceState,\n            accountContext,\n            portfolio\n        );\n\n        return (\n            localAssetCashFromLiquidator,\n            _collateralAssetCashToLiquidator(collateralBalanceState),\n            collateralBalanceState.netNTokenTransfer.neg()\n        );\n    }\n\n    function _emitCollateralEvent(\n        address liquidateAccount,\n        uint16 localCurrency,\n        int256 localAssetCashFromLiquidator,\n        BalanceState memory collateralBalanceState\n    ) private {\n        emit LiquidateCollateralCurrency(\n            liquidateAccount,\n            msg.sender,\n            localCurrency,\n            uint16(collateralBalanceState.currencyId),\n            localAssetCashFromLiquidator,\n            _collateralAssetCashToLiquidator(collateralBalanceState),\n            collateralBalanceState.netNTokenTransfer.neg()\n        );\n    }\n\n    function _localCurrencyLiquidation(\n        address liquidateAccount,\n        uint16 localCurrency,\n        uint96 maxNTokenLiquidation,\n        bool isCalculation\n    )\n        internal\n        returns (\n            int256,\n            BalanceState memory,\n            PortfolioState memory,\n            AccountContext memory\n        )\n    {\n        (\n            AccountContext memory accountContext,\n            LiquidationFactors memory factors,\n            PortfolioState memory portfolio\n        ) = LiquidationHelpers.preLiquidationActions(liquidateAccount, localCurrency, 0);\n        BalanceState memory localBalanceState;\n        localBalanceState.loadBalanceState(liquidateAccount, localCurrency, accountContext);\n        factors.isCalculation = isCalculation;\n\n        int256 localAssetCashFromLiquidator =\n            LiquidateCurrency.liquidateLocalCurrency(\n                localCurrency,\n                maxNTokenLiquidation,\n                block.timestamp,\n                localBalanceState,\n                factors,\n                portfolio\n            );\n\n        return (\n            localAssetCashFromLiquidator,\n            localBalanceState,\n            portfolio,\n            accountContext\n        );\n    }\n\n    function _collateralCurrencyLiquidation(\n        address liquidateAccount,\n        uint16 localCurrency,\n        uint16 collateralCurrency,\n        uint128 maxCollateralLiquidation,\n        uint96 maxNTokenLiquidation,\n        bool isCalculation\n    )\n        private\n        returns (\n            int256,\n            BalanceState memory,\n            PortfolioState memory,\n            AccountContext memory\n        )\n    {\n        uint256 blockTime = block.timestamp;\n        (\n            AccountContext memory accountContext,\n            LiquidationFactors memory factors,\n            PortfolioState memory portfolio\n        ) =\n            LiquidationHelpers.preLiquidationActions(\n                liquidateAccount,\n                localCurrency,\n                collateralCurrency\n            );\n\n        BalanceState memory collateralBalanceState;\n        collateralBalanceState.loadBalanceState(\n            liquidateAccount,\n            collateralCurrency,\n            accountContext\n        );\n        factors.isCalculation = isCalculation;\n\n        int256 localAssetCashFromLiquidator =\n            LiquidateCurrency.liquidateCollateralCurrency(\n                maxCollateralLiquidation,\n                maxNTokenLiquidation,\n                blockTime,\n                collateralBalanceState,\n                factors,\n                portfolio\n            );\n\n        return (\n            localAssetCashFromLiquidator,\n            collateralBalanceState,\n            portfolio,\n            accountContext\n        );\n    }\n\n    /// @dev Only used for collateral currency liquidation\n    function _finalizeLiquidatorBalances(\n        uint16 localCurrency,\n        uint16 collateralCurrency,\n        int256 localAssetCashFromLiquidator,\n        BalanceState memory collateralBalanceState,\n        bool withdrawCollateral,\n        bool redeemToUnderlying\n    ) private {\n        // Will transfer local currency from the liquidator\n        AccountContext memory liquidatorContext =\n            LiquidationHelpers.finalizeLiquidatorLocal(\n                msg.sender,\n                localCurrency,\n                localAssetCashFromLiquidator,\n                0 // No nToken transfers\n            );\n\n        // Will transfer collateral to the liquidator\n        LiquidationHelpers.finalizeLiquidatorCollateral(\n            msg.sender,\n            liquidatorContext,\n            collateralCurrency,\n            _collateralAssetCashToLiquidator(collateralBalanceState),\n            collateralBalanceState.netNTokenTransfer.neg(),\n            withdrawCollateral,\n            redeemToUnderlying\n        );\n\n        liquidatorContext.setAccountContext(msg.sender);\n    }\n\n    function _collateralAssetCashToLiquidator(BalanceState memory collateralBalanceState)\n        private\n        pure\n        returns (int256)\n    {\n        // netAssetTransferInternalPrecision is the cash claim withdrawn from collateral\n        // liquidity tokens.\n        return\n            collateralBalanceState.netCashChange.neg().add(\n                collateralBalanceState.netAssetTransferInternalPrecision\n            );\n    }\n}\n","sourcePath":"contracts/external/actions/LiquidateCurrencyAction.sol","type":"contract","deployment":{"address":"0x6b986A60216ACA687457782aDFA0B002aD392Ce7","chainid":"1","blockHeight":13492475}}