{"abi":[{"inputs":[{"internalType":"contract nTokenERC20","name":"proxy_","type":"address"},{"internalType":"uint16","name":"currencyId_","type":"uint16"},{"internalType":"string","name":"underlyingName_","type":"string"},{"internalType":"string","name":"underlyingSymbol_","type":"string"}],"stateMutability":"nonpayable","type":"constructor","name":"constructor"},{"anonymous":false,"inputs":[{"indexed":true,"internalType":"address","name":"owner","type":"address"},{"indexed":true,"internalType":"address","name":"spender","type":"address"},{"indexed":false,"internalType":"uint256","name":"value","type":"uint256"}],"name":"Approval","type":"event"},{"anonymous":false,"inputs":[{"indexed":true,"internalType":"address","name":"from","type":"address"},{"indexed":true,"internalType":"address","name":"to","type":"address"},{"indexed":false,"internalType":"uint256","name":"value","type":"uint256"}],"name":"Transfer","type":"event"},{"inputs":[{"internalType":"address","name":"account","type":"address"},{"internalType":"address","name":"spender","type":"address"}],"name":"allowance","outputs":[{"internalType":"uint256","name":"","type":"uint256"}],"stateMutability":"view","type":"function"},{"inputs":[{"internalType":"address","name":"spender","type":"address"},{"internalType":"uint256","name":"amount","type":"uint256"}],"name":"approve","outputs":[{"internalType":"bool","name":"","type":"bool"}],"stateMutability":"nonpayable","type":"function"},{"inputs":[{"internalType":"address","name":"account","type":"address"}],"name":"balanceOf","outputs":[{"internalType":"uint256","name":"","type":"uint256"}],"stateMutability":"view","type":"function"},{"inputs":[],"name":"currencyId","outputs":[{"internalType":"uint16","name":"","type":"uint16"}],"stateMutability":"view","type":"function"},{"inputs":[],"name":"decimals","outputs":[{"internalType":"uint8","name":"","type":"uint8"}],"stateMutability":"view","type":"function"},{"inputs":[],"name":"getPresentValueAssetDenominated","outputs":[{"internalType":"int256","name":"","type":"int256"}],"stateMutability":"view","type":"function"},{"inputs":[],"name":"getPresentValueUnderlyingDenominated","outputs":[{"internalType":"int256","name":"","type":"int256"}],"stateMutability":"view","type":"function"},{"inputs":[],"name":"name","outputs":[{"internalType":"string","name":"","type":"string"}],"stateMutability":"view","type":"function"},{"inputs":[],"name":"proxy","outputs":[{"internalType":"contract nTokenERC20","name":"","type":"address"}],"stateMutability":"view","type":"function"},{"inputs":[],"name":"symbol","outputs":[{"internalType":"string","name":"","type":"string"}],"stateMutability":"view","type":"function"},{"inputs":[],"name":"totalSupply","outputs":[{"internalType":"uint256","name":"","type":"uint256"}],"stateMutability":"view","type":"function"},{"inputs":[{"internalType":"address","name":"to","type":"address"},{"internalType":"uint256","name":"amount","type":"uint256"}],"name":"transfer","outputs":[{"internalType":"bool","name":"","type":"bool"}],"stateMutability":"nonpayable","type":"function"},{"inputs":[{"internalType":"address","name":"from","type":"address"},{"internalType":"address","name":"to","type":"address"},{"internalType":"uint256","name":"amount","type":"uint256"}],"name":"transferFrom","outputs":[{"internalType":"bool","name":"","type":"bool"}],"stateMutability":"nonpayable","type":"function"}],"bytecode":"60c06040523480156200001157600080fd5b5060405162000f7438038062000f748339810160408190526200003491620001fb565b6001600160601b0319606085901b166080526001600160f01b031960f084901b1660a0526040516200006b908390602001620002c7565b6040516020818303038152906040526000908051906020019062000091929190620000d6565b5080604051602001620000a591906200029c565b60405160208183030381529060405260019080519060200190620000cb929190620000d6565b50505050506200032b565b828054600181600116156101000203166002900490600052602060002090601f0160209004810192826200010e576000855562000159565b82601f106200012957805160ff191683800117855562000159565b8280016001018555821562000159579182015b82811115620001595782518255916020019190600101906200013c565b50620001679291506200016b565b5090565b5b808211156200016757600081556001016200016c565b600082601f83011262000193578081fd5b81516001600160401b0380821115620001a857fe5b604051601f8301601f191681016020018281118282101715620001c757fe5b604052828152848301602001861015620001df578384fd5b620001f2836020830160208801620002f8565b95945050505050565b6000806000806080858703121562000211578384fd5b84516001600160a01b038116811462000228578485fd5b602086015190945061ffff8116811462000240578384fd5b60408601519093506001600160401b03808211156200025d578384fd5b6200026b8883890162000182565b9350606087015191508082111562000281578283fd5b50620002908782880162000182565b91505092959194509250565b6000603760f91b82528251620002ba816001850160208701620002f8565b9190910160010192915050565b6000660372a37b5b2b7160cd1b82528251620002eb816007850160208701620002f8565b9190910160070192915050565b60005b8381101562000315578181015183820152602001620002fb565b8381111562000325576000848401525b50505050565b60805160601c60a05160f01c610bd4620003a06000398061028c5280610420528061047652806105b3528061067c52806106eb52806107a152806108c652508061025d528061039452806104475280610586528061064f52806106be5280610772528061089952806109445250610bd46000f3fe608060405234801561001057600080fd5b50600436106100cf5760003560e01c806370a082311161008c57806395d89b411161006657806395d89b4114610187578063a9059cbb1461018f578063dd62ed3e146101a2578063ec556889146101b5576100cf565b806370a082311461016457806390ab60a71461017757806391cf16a81461017f576100cf565b806306fdde03146100d4578063095ea7b3146100f257806318160ddd146101125780631feeece21461012757806323b872dd1461013c578063313ce5671461014f575b600080fd5b6100dc6101ca565b6040516100e99190610a8d565b60405180910390f35b610105610100366004610a04565b610258565b6040516100e99190610a79565b61011a61037a565b6040516100e99190610a84565b61012f61041e565b6040516100e99190610ae0565b61010561014a3660046109c9565b610442565b610157610567565b6040516100e99190610b90565b61011a61017236600461097d565b61056c565b61011a610635565b61011a6106a4565b6100dc610713565b61010561019d366004610a04565b61076d565b61011a6101b0366004610997565b61087f565b6101bd610942565b6040516100e99190610a65565b6000805460408051602060026001851615610100026000190190941693909304601f810184900484028201840190925281815292918301828280156102505780601f1061022557610100808354040283529160200191610250565b820191906000526020600020905b81548152906001019060200180831161023357829003601f168201915b505050505081565b6000807f00000000000000000000000000000000000000000000000000000000000000006001600160a01b031663309c00a67f00000000000000000000000000000000000000000000000000000000000000003387876040518563ffffffff1660e01b81526004016102cd9493929190610b40565b602060405180830381600087803b1580156102e757600080fd5b505af11580156102fb573d6000803e3d6000fd5b505050506040513d601f19601f8201168201806040525081019061031f9190610a2d565b9050801561037357836001600160a01b0316336001600160a01b03167f8c5be1e5ebec7d5bd14f71427d1e84f3dd0314c0f7b2291e5b200ac8c7c3b9258560405161036a9190610a84565b60405180910390a35b9392505050565b604051636a96e86f60e01b81526000906001600160a01b037f00000000000000000000000000000000000000000000000000000000000000001690636a96e86f906103c9903090600401610a65565b60206040518083038186803b1580156103e157600080fd5b505afa1580156103f5573d6000803e3d6000fd5b505050506040513d601f19601f820116820180604052508101906104199190610a4d565b905090565b7f000000000000000000000000000000000000000000000000000000000000000081565b6000807f00000000000000000000000000000000000000000000000000000000000000006001600160a01b031663884a70927f0000000000000000000000000000000000000000000000000000000000000000338888886040518663ffffffff1660e01b81526004016104b9959493929190610b0c565b602060405180830381600087803b1580156104d357600080fd5b505af11580156104e7573d6000803e3d6000fd5b505050506040513d601f19601f8201168201806040525081019061050b9190610a2d565b9050801561055f57836001600160a01b0316856001600160a01b03167fddf252ad1be2c89b69c2b068fc378daa952ba7f163c4a11628f55a4df523b3ef856040516105569190610a84565b60405180910390a35b949350505050565b600881565b60405163a78dbfff60e01b81526000906001600160a01b037f0000000000000000000000000000000000000000000000000000000000000000169063a78dbfff906105dd907f0000000000000000000000000000000000000000000000000000000000000000908690600401610aef565b60206040518083038186803b1580156105f557600080fd5b505afa158015610609573d6000803e3d6000fd5b505050506040513d601f19601f8201168201806040525081019061062d9190610a4d565b90505b919050565b604051631a05bce160e01b81526000906001600160a01b037f00000000000000000000000000000000000000000000000000000000000000001690631a05bce1906103c9907f000000000000000000000000000000000000000000000000000000000000000090600401610ae0565b604051633b2987b360e01b81526000906001600160a01b037f00000000000000000000000000000000000000000000000000000000000000001690633b2987b3906103c9907f000000000000000000000000000000000000000000000000000000000000000090600401610ae0565b60018054604080516020600284861615610100026000190190941693909304601f810184900484028201840190925281815292918301828280156102505780601f1061022557610100808354040283529160200191610250565b6000807f00000000000000000000000000000000000000000000000000000000000000006001600160a01b03166318ae40d77f00000000000000000000000000000000000000000000000000000000000000003387876040518563ffffffff1660e01b81526004016107e29493929190610b40565b602060405180830381600087803b1580156107fc57600080fd5b505af1158015610810573d6000803e3d6000fd5b505050506040513d601f19601f820116820180604052508101906108349190610a2d565b9050801561037357836001600160a01b0316336001600160a01b03167fddf252ad1be2c89b69c2b068fc378daa952ba7f163c4a11628f55a4df523b3ef8560405161036a9190610a84565b604051637db31ab960e01b81526000906001600160a01b037f00000000000000000000000000000000000000000000000000000000000000001690637db31ab9906108f2907f00000000000000000000000000000000000000000000000000000000000000009087908790600401610b6b565b60206040518083038186803b15801561090a57600080fd5b505afa15801561091e573d6000803e3d6000fd5b505050506040513d601f19601f820116820180604052508101906103739190610a4d565b7f000000000000000000000000000000000000000000000000000000000000000081565b80356001600160a01b038116811461063057600080fd5b60006020828403121561098e578081fd5b61037382610966565b600080604083850312156109a9578081fd5b6109b283610966565b91506109c060208401610966565b90509250929050565b6000806000606084860312156109dd578081fd5b6109e684610966565b92506109f460208501610966565b9150604084013590509250925092565b60008060408385031215610a16578182fd5b610a1f83610966565b946020939093013593505050565b600060208284031215610a3e578081fd5b81518015158114610373578182fd5b600060208284031215610a5e578081fd5b5051919050565b6001600160a01b0391909116815260200190565b901515815260200190565b90815260200190565b6000602080835283518082850152825b81811015610ab957858101830151858201604001528201610a9d565b81811115610aca5783604083870101525b50601f01601f1916929092016040019392505050565b61ffff91909116815260200190565b61ffff9290921682526001600160a01b0316602082015260400190565b61ffff9590951685526001600160a01b03938416602086015291831660408501529091166060830152608082015260a00190565b61ffff9490941684526001600160a01b03928316602085015291166040830152606082015260800190565b61ffff9390931683526001600160a01b03918216602084015216604082015260600190565b60ff9190911681526020019056fea2646970667358221220e44982fe854db0dc23bcb5638b22a82555e6658468bfb0292e5514ea3b5416ce64736f6c63430007060033","bytecodeSha1":"7ac31fec1db94c4b36442101c79c3b8ca83624c5","compiler":{"evm_version":"istanbul","optimizer":{"enabled":true,"runs":200},"version":"0.7.6+commit.7338295f"},"contractName":"nTokenERC20Proxy","language":"Solidity","natspec":{"kind":"dev","methods":{"allowance(address,address)":{"notice":"Get the number of tokens `spender` is approved to spend on behalf of `account`","params":{"account":"The address of the account holding the funds","spender":"The address of the account spending the funds"},"returns":{"_0":"The number of tokens approved"}},"approve(address,uint256)":{"details":"This will overwrite the approval amount for `spender`  and is subject to issues noted [here](https://eips.ethereum.org/EIPS/eip-20#approve)  emit:Approval","notice":"Approve `spender` to transfer up to `amount` from `src`","params":{"amount":"The number of tokens that are approved (2^256-1 means infinite)","spender":"The address of the account which may transfer tokens"},"returns":{"_0":"Whether or not the approval succeeded"}},"balanceOf(address)":{"notice":"Get the number of tokens held by the `account`","params":{"account":"The address of the account to get the balance of"},"returns":{"_0":"The number of tokens held"}},"currencyId()":{"notice":"Currency id that this nToken refers to"},"decimals()":{"notice":"Inherits from Constants.INTERNAL_TOKEN_PRECISION"},"getPresentValueAssetDenominated()":{"notice":"Returns the present value of the nToken's assets denominated in asset tokens"},"getPresentValueUnderlyingDenominated()":{"notice":"Returns the present value of the nToken's assets denominated in underlying"},"name()":{"notice":"Will be \"nToken {Underlying Token}.name()\", therefore \"USD Coin\" will be nToken USD Coin"},"proxy()":{"notice":"Address of the notional proxy"},"symbol()":{"notice":"Will be \"n{Underlying Token}.symbol()\", therefore \"USDC\" will be \"nUSDC\""},"totalSupply()":{"notice":"Total number of tokens in circulation"},"transfer(address,uint256)":{"details":"emit:Transfer","notice":"Transfer `amount` tokens from `msg.sender` to `to`","params":{"amount":"The number of tokens to transfer","to":"The address of the destination account"},"returns":{"_0":"Whether or not the transfer succeeded"}},"transferFrom(address,address,uint256)":{"details":"emit:Transfer emit:Approval","notice":"Transfer `amount` tokens from `from` to `to`","params":{"amount":"The number of tokens to transfer","from":"The address of the source account","to":"The address of the destination account"},"returns":{"_0":"Whether or not the transfer succeeded"}}},"notice":"ERC20 proxy for nToken contracts that forwards calls to the Router, all nToken balances and allowances are stored in at single address for gas efficiency. This contract is used simply for ERC20 compliance.","version":1},"opcodes":"PUSH1 0x80 PUSH1 0x40 MSTORE CALLVALUE DUP1 ISZERO PUSH2 0x10 JUMPI PUSH1 0x0 DUP1 REVERT JUMPDEST POP PUSH1 0x4 CALLDATASIZE LT PUSH2 0xCF JUMPI PUSH1 0x0 CALLDATALOAD PUSH1 0xE0 SHR DUP1 PUSH4 0x70A08231 GT PUSH2 0x8C JUMPI DUP1 PUSH4 0x95D89B41 GT PUSH2 0x66 JUMPI DUP1 PUSH4 0x95D89B41 EQ PUSH2 0x187 JUMPI DUP1 PUSH4 0xA9059CBB EQ PUSH2 0x18F JUMPI DUP1 PUSH4 0xDD62ED3E EQ PUSH2 0x1A2 JUMPI DUP1 PUSH4 0xEC556889 EQ PUSH2 0x1B5 JUMPI PUSH2 0xCF JUMP JUMPDEST DUP1 PUSH4 0x70A08231 EQ PUSH2 0x164 JUMPI DUP1 PUSH4 0x90AB60A7 EQ PUSH2 0x177 JUMPI DUP1 PUSH4 0x91CF16A8 EQ PUSH2 0x17F JUMPI PUSH2 0xCF JUMP JUMPDEST DUP1 PUSH4 0x6FDDE03 EQ PUSH2 0xD4 JUMPI DUP1 PUSH4 0x95EA7B3 EQ PUSH2 0xF2 JUMPI DUP1 PUSH4 0x18160DDD EQ PUSH2 0x112 JUMPI DUP1 PUSH4 0x1FEEECE2 EQ PUSH2 0x127 JUMPI DUP1 PUSH4 0x23B872DD EQ PUSH2 0x13C JUMPI DUP1 PUSH4 0x313CE567 EQ PUSH2 0x14F JUMPI JUMPDEST PUSH1 0x0 DUP1 REVERT JUMPDEST PUSH2 0xDC PUSH2 0x1CA JUMP JUMPDEST PUSH1 0x40 MLOAD PUSH2 0xE9 SWAP2 SWAP1 PUSH2 0xA8D JUMP JUMPDEST PUSH1 0x40 MLOAD DUP1 SWAP2 SUB SWAP1 RETURN JUMPDEST PUSH2 0x105 PUSH2 0x100 CALLDATASIZE PUSH1 0x4 PUSH2 0xA04 JUMP JUMPDEST PUSH2 0x258 JUMP JUMPDEST PUSH1 0x40 MLOAD PUSH2 0xE9 SWAP2 SWAP1 PUSH2 0xA79 JUMP JUMPDEST PUSH2 0x11A PUSH2 0x37A JUMP JUMPDEST PUSH1 0x40 MLOAD PUSH2 0xE9 SWAP2 SWAP1 PUSH2 0xA84 JUMP JUMPDEST PUSH2 0x12F PUSH2 0x41E JUMP JUMPDEST PUSH1 0x40 MLOAD PUSH2 0xE9 SWAP2 SWAP1 PUSH2 0xAE0 JUMP JUMPDEST PUSH2 0x105 PUSH2 0x14A CALLDATASIZE PUSH1 0x4 PUSH2 0x9C9 JUMP JUMPDEST PUSH2 0x442 JUMP JUMPDEST PUSH2 0x157 PUSH2 0x567 JUMP JUMPDEST PUSH1 0x40 MLOAD PUSH2 0xE9 SWAP2 SWAP1 PUSH2 0xB90 JUMP JUMPDEST PUSH2 0x11A PUSH2 0x172 CALLDATASIZE PUSH1 0x4 PUSH2 0x97D JUMP JUMPDEST PUSH2 0x56C JUMP JUMPDEST PUSH2 0x11A PUSH2 0x635 JUMP JUMPDEST PUSH2 0x11A PUSH2 0x6A4 JUMP JUMPDEST PUSH2 0xDC PUSH2 0x713 JUMP JUMPDEST PUSH2 0x105 PUSH2 0x19D CALLDATASIZE PUSH1 0x4 PUSH2 0xA04 JUMP JUMPDEST PUSH2 0x76D JUMP JUMPDEST PUSH2 0x11A PUSH2 0x1B0 CALLDATASIZE PUSH1 0x4 PUSH2 0x997 JUMP JUMPDEST PUSH2 0x87F JUMP JUMPDEST PUSH2 0x1BD PUSH2 0x942 JUMP JUMPDEST PUSH1 0x40 MLOAD PUSH2 0xE9 SWAP2 SWAP1 PUSH2 0xA65 JUMP JUMPDEST PUSH1 0x0 DUP1 SLOAD PUSH1 0x40 DUP1 MLOAD PUSH1 0x20 PUSH1 0x2 PUSH1 0x1 DUP6 AND ISZERO PUSH2 0x100 MUL PUSH1 0x0 NOT ADD SWAP1 SWAP5 AND SWAP4 SWAP1 SWAP4 DIV PUSH1 0x1F DUP2 ADD DUP5 SWAP1 DIV DUP5 MUL DUP3 ADD DUP5 ADD SWAP1 SWAP3 MSTORE DUP2 DUP2 MSTORE SWAP3 SWAP2 DUP4 ADD DUP3 DUP3 DUP1 ISZERO PUSH2 0x250 JUMPI DUP1 PUSH1 0x1F LT PUSH2 0x225 JUMPI PUSH2 0x100 DUP1 DUP4 SLOAD DIV MUL DUP4 MSTORE SWAP2 PUSH1 0x20 ADD SWAP2 PUSH2 0x250 JUMP JUMPDEST DUP3 ADD SWAP2 SWAP1 PUSH1 0x0 MSTORE PUSH1 0x20 PUSH1 0x0 KECCAK256 SWAP1 JUMPDEST DUP2 SLOAD DUP2 MSTORE SWAP1 PUSH1 0x1 ADD SWAP1 PUSH1 0x20 ADD DUP1 DUP4 GT PUSH2 0x233 JUMPI DUP3 SWAP1 SUB PUSH1 0x1F AND DUP3 ADD SWAP2 JUMPDEST POP POP POP POP POP DUP2 JUMP JUMPDEST PUSH1 0x0 DUP1 PUSH32 0x0 PUSH1 0x1 PUSH1 0x1 PUSH1 0xA0 SHL SUB AND PUSH4 0x309C00A6 PUSH32 0x0 CALLER DUP8 DUP8 PUSH1 0x40 MLOAD DUP6 PUSH4 0xFFFFFFFF AND PUSH1 0xE0 SHL DUP2 MSTORE PUSH1 0x4 ADD PUSH2 0x2CD SWAP5 SWAP4 SWAP3 SWAP2 SWAP1 PUSH2 0xB40 JUMP JUMPDEST PUSH1 0x20 PUSH1 0x40 MLOAD DUP1 DUP4 SUB DUP2 PUSH1 0x0 DUP8 DUP1 EXTCODESIZE ISZERO DUP1 ISZERO PUSH2 0x2E7 JUMPI PUSH1 0x0 DUP1 REVERT JUMPDEST POP GAS CALL ISZERO DUP1 ISZERO PUSH2 0x2FB JUMPI RETURNDATASIZE PUSH1 0x0 DUP1 RETURNDATACOPY RETURNDATASIZE PUSH1 0x0 REVERT JUMPDEST POP POP POP POP PUSH1 0x40 MLOAD RETURNDATASIZE PUSH1 0x1F NOT PUSH1 0x1F DUP3 ADD AND DUP3 ADD DUP1 PUSH1 0x40 MSTORE POP DUP2 ADD SWAP1 PUSH2 0x31F SWAP2 SWAP1 PUSH2 0xA2D JUMP JUMPDEST SWAP1 POP DUP1 ISZERO PUSH2 0x373 JUMPI DUP4 PUSH1 0x1 PUSH1 0x1 PUSH1 0xA0 SHL SUB AND CALLER PUSH1 0x1 PUSH1 0x1 PUSH1 0xA0 SHL SUB AND PUSH32 0x8C5BE1E5EBEC7D5BD14F71427D1E84F3DD0314C0F7B2291E5B200AC8C7C3B925 DUP6 PUSH1 0x40 MLOAD PUSH2 0x36A SWAP2 SWAP1 PUSH2 0xA84 JUMP JUMPDEST PUSH1 0x40 MLOAD DUP1 SWAP2 SUB SWAP1 LOG3 JUMPDEST SWAP4 SWAP3 POP POP POP JUMP JUMPDEST PUSH1 0x40 MLOAD PUSH4 0x6A96E86F PUSH1 0xE0 SHL DUP2 MSTORE PUSH1 0x0 SWAP1 PUSH1 0x1 PUSH1 0x1 PUSH1 0xA0 SHL SUB PUSH32 0x0 AND SWAP1 PUSH4 0x6A96E86F SWAP1 PUSH2 0x3C9 SWAP1 ADDRESS SWAP1 PUSH1 0x4 ADD PUSH2 0xA65 JUMP JUMPDEST PUSH1 0x20 PUSH1 0x40 MLOAD DUP1 DUP4 SUB DUP2 DUP7 DUP1 EXTCODESIZE ISZERO DUP1 ISZERO PUSH2 0x3E1 JUMPI PUSH1 0x0 DUP1 REVERT JUMPDEST POP GAS STATICCALL ISZERO DUP1 ISZERO PUSH2 0x3F5 JUMPI RETURNDATASIZE PUSH1 0x0 DUP1 RETURNDATACOPY RETURNDATASIZE PUSH1 0x0 REVERT JUMPDEST POP POP POP POP PUSH1 0x40 MLOAD RETURNDATASIZE PUSH1 0x1F NOT PUSH1 0x1F DUP3 ADD AND DUP3 ADD DUP1 PUSH1 0x40 MSTORE POP DUP2 ADD SWAP1 PUSH2 0x419 SWAP2 SWAP1 PUSH2 0xA4D JUMP JUMPDEST SWAP1 POP SWAP1 JUMP JUMPDEST PUSH32 0x0 DUP2 JUMP JUMPDEST PUSH1 0x0 DUP1 PUSH32 0x0 PUSH1 0x1 PUSH1 0x1 PUSH1 0xA0 SHL SUB AND PUSH4 0x884A7092 PUSH32 0x0 CALLER DUP9 DUP9 DUP9 PUSH1 0x40 MLOAD DUP7 PUSH4 0xFFFFFFFF AND PUSH1 0xE0 SHL DUP2 MSTORE PUSH1 0x4 ADD PUSH2 0x4B9 SWAP6 SWAP5 SWAP4 SWAP3 SWAP2 SWAP1 PUSH2 0xB0C JUMP JUMPDEST PUSH1 0x20 PUSH1 0x40 MLOAD DUP1 DUP4 SUB DUP2 PUSH1 0x0 DUP8 DUP1 EXTCODESIZE ISZERO DUP1 ISZERO PUSH2 0x4D3 JUMPI PUSH1 0x0 DUP1 REVERT JUMPDEST POP GAS CALL ISZERO DUP1 ISZERO PUSH2 0x4E7 JUMPI RETURNDATASIZE PUSH1 0x0 DUP1 RETURNDATACOPY RETURNDATASIZE PUSH1 0x0 REVERT JUMPDEST POP POP POP POP PUSH1 0x40 MLOAD RETURNDATASIZE PUSH1 0x1F NOT PUSH1 0x1F DUP3 ADD AND DUP3 ADD DUP1 PUSH1 0x40 MSTORE POP DUP2 ADD SWAP1 PUSH2 0x50B SWAP2 SWAP1 PUSH2 0xA2D JUMP JUMPDEST SWAP1 POP DUP1 ISZERO PUSH2 0x55F JUMPI DUP4 PUSH1 0x1 PUSH1 0x1 PUSH1 0xA0 SHL SUB AND DUP6 PUSH1 0x1 PUSH1 0x1 PUSH1 0xA0 SHL SUB AND PUSH32 0xDDF252AD1BE2C89B69C2B068FC378DAA952BA7F163C4A11628F55A4DF523B3EF DUP6 PUSH1 0x40 MLOAD PUSH2 0x556 SWAP2 SWAP1 PUSH2 0xA84 JUMP JUMPDEST PUSH1 0x40 MLOAD DUP1 SWAP2 SUB SWAP1 LOG3 JUMPDEST SWAP5 SWAP4 POP POP POP POP JUMP JUMPDEST PUSH1 0x8 DUP2 JUMP JUMPDEST PUSH1 0x40 MLOAD PUSH4 0xA78DBFFF PUSH1 0xE0 SHL DUP2 MSTORE PUSH1 0x0 SWAP1 PUSH1 0x1 PUSH1 0x1 PUSH1 0xA0 SHL SUB PUSH32 0x0 AND SWAP1 PUSH4 0xA78DBFFF SWAP1 PUSH2 0x5DD SWAP1 PUSH32 0x0 SWAP1 DUP7 SWAP1 PUSH1 0x4 ADD PUSH2 0xAEF JUMP JUMPDEST PUSH1 0x20 PUSH1 0x40 MLOAD DUP1 DUP4 SUB DUP2 DUP7 DUP1 EXTCODESIZE ISZERO DUP1 ISZERO PUSH2 0x5F5 JUMPI PUSH1 0x0 DUP1 REVERT JUMPDEST POP GAS STATICCALL ISZERO DUP1 ISZERO PUSH2 0x609 JUMPI RETURNDATASIZE PUSH1 0x0 DUP1 RETURNDATACOPY RETURNDATASIZE PUSH1 0x0 REVERT JUMPDEST POP POP POP POP PUSH1 0x40 MLOAD RETURNDATASIZE PUSH1 0x1F NOT PUSH1 0x1F DUP3 ADD AND DUP3 ADD DUP1 PUSH1 0x40 MSTORE POP DUP2 ADD SWAP1 PUSH2 0x62D SWAP2 SWAP1 PUSH2 0xA4D JUMP JUMPDEST SWAP1 POP JUMPDEST SWAP2 SWAP1 POP JUMP JUMPDEST PUSH1 0x40 MLOAD PUSH4 0x1A05BCE1 PUSH1 0xE0 SHL DUP2 MSTORE PUSH1 0x0 SWAP1 PUSH1 0x1 PUSH1 0x1 PUSH1 0xA0 SHL SUB PUSH32 0x0 AND SWAP1 PUSH4 0x1A05BCE1 SWAP1 PUSH2 0x3C9 SWAP1 PUSH32 0x0 SWAP1 PUSH1 0x4 ADD PUSH2 0xAE0 JUMP JUMPDEST PUSH1 0x40 MLOAD PUSH4 0x3B2987B3 PUSH1 0xE0 SHL DUP2 MSTORE PUSH1 0x0 SWAP1 PUSH1 0x1 PUSH1 0x1 PUSH1 0xA0 SHL SUB PUSH32 0x0 AND SWAP1 PUSH4 0x3B2987B3 SWAP1 PUSH2 0x3C9 SWAP1 PUSH32 0x0 SWAP1 PUSH1 0x4 ADD PUSH2 0xAE0 JUMP JUMPDEST PUSH1 0x1 DUP1 SLOAD PUSH1 0x40 DUP1 MLOAD PUSH1 0x20 PUSH1 0x2 DUP5 DUP7 AND ISZERO PUSH2 0x100 MUL PUSH1 0x0 NOT ADD SWAP1 SWAP5 AND SWAP4 SWAP1 SWAP4 DIV PUSH1 0x1F DUP2 ADD DUP5 SWAP1 DIV DUP5 MUL DUP3 ADD DUP5 ADD SWAP1 SWAP3 MSTORE DUP2 DUP2 MSTORE SWAP3 SWAP2 DUP4 ADD DUP3 DUP3 DUP1 ISZERO PUSH2 0x250 JUMPI DUP1 PUSH1 0x1F LT PUSH2 0x225 JUMPI PUSH2 0x100 DUP1 DUP4 SLOAD DIV MUL DUP4 MSTORE SWAP2 PUSH1 0x20 ADD SWAP2 PUSH2 0x250 JUMP JUMPDEST PUSH1 0x0 DUP1 PUSH32 0x0 PUSH1 0x1 PUSH1 0x1 PUSH1 0xA0 SHL SUB AND PUSH4 0x18AE40D7 PUSH32 0x0 CALLER DUP8 DUP8 PUSH1 0x40 MLOAD DUP6 PUSH4 0xFFFFFFFF AND PUSH1 0xE0 SHL DUP2 MSTORE PUSH1 0x4 ADD PUSH2 0x7E2 SWAP5 SWAP4 SWAP3 SWAP2 SWAP1 PUSH2 0xB40 JUMP JUMPDEST PUSH1 0x20 PUSH1 0x40 MLOAD DUP1 DUP4 SUB DUP2 PUSH1 0x0 DUP8 DUP1 EXTCODESIZE ISZERO DUP1 ISZERO PUSH2 0x7FC JUMPI PUSH1 0x0 DUP1 REVERT JUMPDEST POP GAS CALL ISZERO DUP1 ISZERO PUSH2 0x810 JUMPI RETURNDATASIZE PUSH1 0x0 DUP1 RETURNDATACOPY RETURNDATASIZE PUSH1 0x0 REVERT JUMPDEST POP POP POP POP PUSH1 0x40 MLOAD RETURNDATASIZE PUSH1 0x1F NOT PUSH1 0x1F DUP3 ADD AND DUP3 ADD DUP1 PUSH1 0x40 MSTORE POP DUP2 ADD SWAP1 PUSH2 0x834 SWAP2 SWAP1 PUSH2 0xA2D JUMP JUMPDEST SWAP1 POP DUP1 ISZERO PUSH2 0x373 JUMPI DUP4 PUSH1 0x1 PUSH1 0x1 PUSH1 0xA0 SHL SUB AND CALLER PUSH1 0x1 PUSH1 0x1 PUSH1 0xA0 SHL SUB AND PUSH32 0xDDF252AD1BE2C89B69C2B068FC378DAA952BA7F163C4A11628F55A4DF523B3EF DUP6 PUSH1 0x40 MLOAD PUSH2 0x36A SWAP2 SWAP1 PUSH2 0xA84 JUMP JUMPDEST PUSH1 0x40 MLOAD PUSH4 0x7DB31AB9 PUSH1 0xE0 SHL DUP2 MSTORE PUSH1 0x0 SWAP1 PUSH1 0x1 PUSH1 0x1 PUSH1 0xA0 SHL SUB PUSH32 0x0 AND SWAP1 PUSH4 0x7DB31AB9 SWAP1 PUSH2 0x8F2 SWAP1 PUSH32 0x0 SWAP1 DUP8 SWAP1 DUP8 SWAP1 PUSH1 0x4 ADD PUSH2 0xB6B JUMP JUMPDEST PUSH1 0x20 PUSH1 0x40 MLOAD DUP1 DUP4 SUB DUP2 DUP7 DUP1 EXTCODESIZE ISZERO DUP1 ISZERO PUSH2 0x90A JUMPI PUSH1 0x0 DUP1 REVERT JUMPDEST POP GAS STATICCALL ISZERO DUP1 ISZERO PUSH2 0x91E JUMPI RETURNDATASIZE PUSH1 0x0 DUP1 RETURNDATACOPY RETURNDATASIZE PUSH1 0x0 REVERT JUMPDEST POP POP POP POP PUSH1 0x40 MLOAD RETURNDATASIZE PUSH1 0x1F NOT PUSH1 0x1F DUP3 ADD AND DUP3 ADD DUP1 PUSH1 0x40 MSTORE POP DUP2 ADD SWAP1 PUSH2 0x373 SWAP2 SWAP1 PUSH2 0xA4D JUMP JUMPDEST PUSH32 0x0 DUP2 JUMP JUMPDEST DUP1 CALLDATALOAD PUSH1 0x1 PUSH1 0x1 PUSH1 0xA0 SHL SUB DUP2 AND DUP2 EQ PUSH2 0x630 JUMPI PUSH1 0x0 DUP1 REVERT JUMPDEST PUSH1 0x0 PUSH1 0x20 DUP3 DUP5 SUB SLT ISZERO PUSH2 0x98E JUMPI DUP1 DUP2 REVERT JUMPDEST PUSH2 0x373 DUP3 PUSH2 0x966 JUMP JUMPDEST PUSH1 0x0 DUP1 PUSH1 0x40 DUP4 DUP6 SUB SLT ISZERO PUSH2 0x9A9 JUMPI DUP1 DUP2 REVERT JUMPDEST PUSH2 0x9B2 DUP4 PUSH2 0x966 JUMP JUMPDEST SWAP2 POP PUSH2 0x9C0 PUSH1 0x20 DUP5 ADD PUSH2 0x966 JUMP JUMPDEST SWAP1 POP SWAP3 POP SWAP3 SWAP1 POP JUMP JUMPDEST PUSH1 0x0 DUP1 PUSH1 0x0 PUSH1 0x60 DUP5 DUP7 SUB SLT ISZERO PUSH2 0x9DD JUMPI DUP1 DUP2 REVERT JUMPDEST PUSH2 0x9E6 DUP5 PUSH2 0x966 JUMP JUMPDEST SWAP3 POP PUSH2 0x9F4 PUSH1 0x20 DUP6 ADD PUSH2 0x966 JUMP JUMPDEST SWAP2 POP PUSH1 0x40 DUP5 ADD CALLDATALOAD SWAP1 POP SWAP3 POP SWAP3 POP SWAP3 JUMP JUMPDEST PUSH1 0x0 DUP1 PUSH1 0x40 DUP4 DUP6 SUB SLT ISZERO PUSH2 0xA16 JUMPI DUP2 DUP3 REVERT JUMPDEST PUSH2 0xA1F DUP4 PUSH2 0x966 JUMP JUMPDEST SWAP5 PUSH1 0x20 SWAP4 SWAP1 SWAP4 ADD CALLDATALOAD SWAP4 POP POP POP JUMP JUMPDEST PUSH1 0x0 PUSH1 0x20 DUP3 DUP5 SUB SLT ISZERO PUSH2 0xA3E JUMPI DUP1 DUP2 REVERT JUMPDEST DUP2 MLOAD DUP1 ISZERO ISZERO DUP2 EQ PUSH2 0x373 JUMPI DUP2 DUP3 REVERT JUMPDEST PUSH1 0x0 PUSH1 0x20 DUP3 DUP5 SUB SLT ISZERO PUSH2 0xA5E JUMPI DUP1 DUP2 REVERT JUMPDEST POP MLOAD SWAP2 SWAP1 POP JUMP JUMPDEST PUSH1 0x1 PUSH1 0x1 PUSH1 0xA0 SHL SUB SWAP2 SWAP1 SWAP2 AND DUP2 MSTORE PUSH1 0x20 ADD SWAP1 JUMP JUMPDEST SWAP1 ISZERO ISZERO DUP2 MSTORE PUSH1 0x20 ADD SWAP1 JUMP JUMPDEST SWAP1 DUP2 MSTORE PUSH1 0x20 ADD SWAP1 JUMP JUMPDEST PUSH1 0x0 PUSH1 0x20 DUP1 DUP4 MSTORE DUP4 MLOAD DUP1 DUP3 DUP6 ADD MSTORE DUP3 JUMPDEST DUP2 DUP2 LT ISZERO PUSH2 0xAB9 JUMPI DUP6 DUP2 ADD DUP4 ADD MLOAD DUP6 DUP3 ADD PUSH1 0x40 ADD MSTORE DUP3 ADD PUSH2 0xA9D JUMP JUMPDEST DUP2 DUP2 GT ISZERO PUSH2 0xACA JUMPI DUP4 PUSH1 0x40 DUP4 DUP8 ADD ADD MSTORE JUMPDEST POP PUSH1 0x1F ADD PUSH1 0x1F NOT AND SWAP3 SWAP1 SWAP3 ADD PUSH1 0x40 ADD SWAP4 SWAP3 POP POP POP JUMP JUMPDEST PUSH2 0xFFFF SWAP2 SWAP1 SWAP2 AND DUP2 MSTORE PUSH1 0x20 ADD SWAP1 JUMP JUMPDEST PUSH2 0xFFFF SWAP3 SWAP1 SWAP3 AND DUP3 MSTORE PUSH1 0x1 PUSH1 0x1 PUSH1 0xA0 SHL SUB AND PUSH1 0x20 DUP3 ADD MSTORE PUSH1 0x40 ADD SWAP1 JUMP JUMPDEST PUSH2 0xFFFF SWAP6 SWAP1 SWAP6 AND DUP6 MSTORE PUSH1 0x1 PUSH1 0x1 PUSH1 0xA0 SHL SUB SWAP4 DUP5 AND PUSH1 0x20 DUP7 ADD MSTORE SWAP2 DUP4 AND PUSH1 0x40 DUP6 ADD MSTORE SWAP1 SWAP2 AND PUSH1 0x60 DUP4 ADD MSTORE PUSH1 0x80 DUP3 ADD MSTORE PUSH1 0xA0 ADD SWAP1 JUMP JUMPDEST PUSH2 0xFFFF SWAP5 SWAP1 SWAP5 AND DUP5 MSTORE PUSH1 0x1 PUSH1 0x1 PUSH1 0xA0 SHL SUB SWAP3 DUP4 AND PUSH1 0x20 DUP6 ADD MSTORE SWAP2 AND PUSH1 0x40 DUP4 ADD MSTORE PUSH1 0x60 DUP3 ADD MSTORE PUSH1 0x80 ADD SWAP1 JUMP JUMPDEST PUSH2 0xFFFF SWAP4 SWAP1 SWAP4 AND DUP4 MSTORE PUSH1 0x1 PUSH1 0x1 PUSH1 0xA0 SHL SUB SWAP2 DUP3 AND PUSH1 0x20 DUP5 ADD MSTORE AND PUSH1 0x40 DUP3 ADD MSTORE PUSH1 0x60 ADD SWAP1 JUMP JUMPDEST PUSH1 0xFF SWAP2 SWAP1 SWAP2 AND DUP2 MSTORE PUSH1 0x20 ADD SWAP1 JUMP INVALID LOG2 PUSH5 0x6970667358 0x22 SLT KECCAK256 0xE4 0x49 DUP3 INVALID DUP6 0x4D 0xB0 0xDC 0x23 0xBC 0xB5 PUSH4 0x8B22A825 SSTORE 0xE6 PUSH6 0x8468BFB0292E SSTORE EQ 0xEA EXTCODESIZE SLOAD AND 0xCE PUSH5 0x736F6C6343 STOP SMOD MOD STOP CALLER ","sha1":"b25eb61beffb142e4fbd7906a6c3400dc15bd83d","source":"// SPDX-License-Identifier: GPL-3.0-only\npragma solidity ^0.7.0;\npragma abicoder v2;\n\nimport \"interfaces/notional/nTokenERC20.sol\";\nimport \"@openzeppelin/contracts/token/ERC20/IERC20.sol\";\n\n/// @notice ERC20 proxy for nToken contracts that forwards calls to the Router, all nToken\n/// balances and allowances are stored in at single address for gas efficiency. This contract\n/// is used simply for ERC20 compliance.\ncontract nTokenERC20Proxy is IERC20 {\n    /// @notice Will be \"nToken {Underlying Token}.name()\", therefore \"USD Coin\" will be\n    /// nToken USD Coin\n    string public name;\n\n    /// @notice Will be \"n{Underlying Token}.symbol()\", therefore \"USDC\" will be \"nUSDC\"\n    string public symbol;\n\n    /// @notice Inherits from Constants.INTERNAL_TOKEN_PRECISION\n    uint8 public constant decimals = 8;\n\n    /// @notice Address of the notional proxy\n    nTokenERC20 public immutable proxy;\n\n    /// @notice Currency id that this nToken refers to\n    uint16 public immutable currencyId;\n\n    constructor(\n        nTokenERC20 proxy_,\n        uint16 currencyId_,\n        string memory underlyingName_,\n        string memory underlyingSymbol_\n    ) {\n        proxy = proxy_;\n        currencyId = currencyId_;\n        name = string(abi.encodePacked(\"nToken \", underlyingName_));\n        symbol = string(abi.encodePacked(\"n\", underlyingSymbol_));\n    }\n\n    /// @notice Total number of tokens in circulation\n    function totalSupply() external view override returns (uint256) {\n        // Total supply is looked up via the token address\n        return proxy.nTokenTotalSupply(address(this));\n    }\n\n    /// @notice Get the number of tokens held by the `account`\n    /// @param account The address of the account to get the balance of\n    /// @return The number of tokens held\n    function balanceOf(address account) external view override returns (uint256) {\n        return proxy.nTokenBalanceOf(currencyId, account);\n    }\n\n    /// @notice Get the number of tokens `spender` is approved to spend on behalf of `account`\n    /// @param account The address of the account holding the funds\n    /// @param spender The address of the account spending the funds\n    /// @return The number of tokens approved\n    function allowance(address account, address spender) external view override returns (uint256) {\n        return proxy.nTokenTransferAllowance(currencyId, account, spender);\n    }\n\n    /// @notice Approve `spender` to transfer up to `amount` from `src`\n    /// @dev This will overwrite the approval amount for `spender`\n    ///  and is subject to issues noted [here](https://eips.ethereum.org/EIPS/eip-20#approve)\n    ///  emit:Approval\n    /// @param spender The address of the account which may transfer tokens\n    /// @param amount The number of tokens that are approved (2^256-1 means infinite)\n    /// @return Whether or not the approval succeeded\n    function approve(address spender, uint256 amount) external override returns (bool) {\n        bool success = proxy.nTokenTransferApprove(currencyId, msg.sender, spender, amount);\n        // Emit approvals here so that they come from the correct contract address\n        if (success) emit Approval(msg.sender, spender, amount);\n        return success;\n    }\n\n    /// @notice Transfer `amount` tokens from `msg.sender` to `to`\n    /// @dev emit:Transfer\n    /// @param to The address of the destination account\n    /// @param amount The number of tokens to transfer\n    /// @return Whether or not the transfer succeeded\n    function transfer(address to, uint256 amount) external override returns (bool) {\n        bool success = proxy.nTokenTransfer(currencyId, msg.sender, to, amount);\n        // Emit transfer events here so they come from the correct contract\n        if (success) emit Transfer(msg.sender, to, amount);\n        return success;\n    }\n\n    /// @notice Transfer `amount` tokens from `from` to `to`\n    /// @dev emit:Transfer emit:Approval\n    /// @param from The address of the source account\n    /// @param to The address of the destination account\n    /// @param amount The number of tokens to transfer\n    /// @return Whether or not the transfer succeeded\n    function transferFrom(\n        address from,\n        address to,\n        uint256 amount\n    ) external override returns (bool) {\n        bool success =\n            proxy.nTokenTransferFrom(currencyId, msg.sender, from, to, amount);\n\n        // Emit transfer events here so they come from the correct contract\n        if (success) emit Transfer(from, to, amount);\n        return success;\n    }\n\n    /// @notice Returns the present value of the nToken's assets denominated in asset tokens\n    function getPresentValueAssetDenominated() external view returns (int256) {\n        return proxy.nTokenPresentValueAssetDenominated(currencyId);\n    }\n\n    /// @notice Returns the present value of the nToken's assets denominated in underlying\n    function getPresentValueUnderlyingDenominated() external view returns (int256) {\n        return proxy.nTokenPresentValueUnderlyingDenominated(currencyId);\n    }\n}\n","sourcePath":"contracts/external/adapters/nTokenERC20Proxy.sol","type":"contract","deployment":{"address":"0x6EbcE2453398af200c688C7c4eBD479171231818","chainid":"1","blockHeight":13493203}}