{"abi":[{"inputs":[{"internalType":"contract CTokenInterface","name":"_cToken","type":"address"}],"stateMutability":"nonpayable","type":"constructor","name":"constructor"},{"inputs":[],"name":"BLOCKS_PER_YEAR","outputs":[{"internalType":"uint256","name":"","type":"uint256"}],"stateMutability":"view","type":"function"},{"inputs":[],"name":"SCALE_RATE","outputs":[{"internalType":"uint256","name":"","type":"uint256"}],"stateMutability":"view","type":"function"},{"inputs":[],"name":"decimals","outputs":[{"internalType":"uint8","name":"","type":"uint8"}],"stateMutability":"view","type":"function"},{"inputs":[],"name":"description","outputs":[{"internalType":"string","name":"","type":"string"}],"stateMutability":"view","type":"function"},{"inputs":[],"name":"getAnnualizedSupplyRate","outputs":[{"internalType":"uint256","name":"","type":"uint256"}],"stateMutability":"view","type":"function"},{"inputs":[],"name":"getExchangeRateStateful","outputs":[{"internalType":"int256","name":"","type":"int256"}],"stateMutability":"nonpayable","type":"function"},{"inputs":[],"name":"getExchangeRateView","outputs":[{"internalType":"int256","name":"","type":"int256"}],"stateMutability":"view","type":"function"},{"inputs":[],"name":"token","outputs":[{"internalType":"address","name":"","type":"address"}],"stateMutability":"view","type":"function"},{"inputs":[],"name":"underlying","outputs":[{"internalType":"address","name":"","type":"address"}],"stateMutability":"view","type":"function"},{"inputs":[],"name":"version","outputs":[{"internalType":"uint256","name":"","type":"uint256"}],"stateMutability":"view","type":"function"}],"bytecode":"60a06040526000805460ff191660121790556001805534801561002157600080fd5b506040516108a93803806108a98339818101604052602081101561004457600080fd5b50516001600160601b0319606082901b16608052604080516395d89b4160e01b815290516001600160a01b038316916395d89b41916004808301926000929190829003018186803b15801561009857600080fd5b505afa1580156100ac573d6000803e3d6000fd5b505050506040513d6000823e601f3d908101601f1916820160405260208110156100d557600080fd5b81019080805160405193929190846401000000008211156100f557600080fd5b90830190602082018581111561010a57600080fd5b825164010000000081118282018810171561012457600080fd5b82525081516020918201929091019080838360005b83811015610151578181015183820152602001610139565b50505050905090810190601f16801561017e5780820380516001836020036101000a031916815260200191505b506040525050815161019792600292506020019061019e565b505061023f565b828054600181600116156101000203166002900490600052602060002090601f0160209004810192826101d4576000855561021a565b82601f106101ed57805160ff191683800117855561021a565b8280016001018555821561021a579182015b8281111561021a5782518255916020019190600101906101ff565b5061022692915061022a565b5090565b5b80821115610226576000815560010161022b565b60805160601c610639610270600039806101b15280610259528061037152806103f0528061049852506106396000f3fe608060405234801561001057600080fd5b506004361061009e5760003560e01c8063b2fffb0411610066578063b2fffb0414610184578063c6d5802f1461018c578063d37db1d214610194578063dd30a6661461019c578063fc0c546a146101a45761009e565b80631ee10833146100a3578063313ce567146100bd57806354fd4d50146100db5780636f307dc3146100e35780637284e41614610107575b600080fd5b6100ab6101ac565b60408051918252519081900360200190f35b6100c5610246565b6040805160ff9092168252519081900360200190f35b6100ab61024f565b6100eb610255565b604080516001600160a01b039092168252519081900360200190f35b61010f6102e1565b6040805160208082528351818301528351919283929083019185019080838360005b83811015610149578181015183820152602001610131565b50505050905090810190601f1680156101765780820380516001836020036101000a031916815260200191505b509250505060405180910390f35b6100ab61036c565b6100ab6103dc565b6100ab6103e4565b6100ab6103eb565b6100eb610496565b6000807f00000000000000000000000000000000000000000000000000000000000000006001600160a01b031663bd6d894d6040518163ffffffff1660e01b8152600401602060405180830381600087803b15801561020a57600080fd5b505af115801561021e573d6000803e3d6000fd5b505050506040513d602081101561023457600080fd5b50519050610241816104ba565b905090565b60005460ff1681565b60015481565b60007f00000000000000000000000000000000000000000000000000000000000000006001600160a01b0316636f307dc36040518163ffffffff1660e01b815260040160206040518083038186803b1580156102b057600080fd5b505afa1580156102c4573d6000803e3d6000fd5b505050506040513d60208110156102da57600080fd5b5051905090565b6002805460408051602060018416156101000260001901909316849004601f810184900484028201840190925281815292918301828280156103645780601f1061033957610100808354040283529160200191610364565b820191906000526020600020905b81548152906001019060200180831161034757829003601f168201915b505050505081565b6000807f00000000000000000000000000000000000000000000000000000000000000006001600160a01b031663182df0f56040518163ffffffff1660e01b815260040160206040518083038186803b1580156103c857600080fd5b505afa15801561021e573d6000803e3d6000fd5b633b9aca0081565b6220148081565b6000807f00000000000000000000000000000000000000000000000000000000000000006001600160a01b031663ae9d70b06040518163ffffffff1660e01b815260040160206040518083038186803b15801561044757600080fd5b505afa15801561045b573d6000803e3d6000fd5b505050506040513d602081101561047157600080fd5b50519050610490633b9aca0061048a8362201480610519565b9061057b565b91505090565b7f000000000000000000000000000000000000000000000000000000000000000090565b6001600160ff1b03811115610516576040805162461bcd60e51b815260206004820152601760248201527f63546f6b656e416461707465723a206f766572666c6f77000000000000000000604482015290519081900360640190fd5b50565b60008261052857506000610575565b8282028284828161053557fe5b04146105725760405162461bcd60e51b81526004018080602001828103825260218152602001806105e36021913960400191505060405180910390fd5b90505b92915050565b60008082116105d1576040805162461bcd60e51b815260206004820152601a60248201527f536166654d6174683a206469766973696f6e206279207a65726f000000000000604482015290519081900360640190fd5b8183816105da57fe5b04939250505056fe536166654d6174683a206d756c7469706c69636174696f6e206f766572666c6f77a2646970667358221220545ca16d00e6563a8008892d9c6fbd60ca5c51baddc9c18f719a0d80c7fde96664736f6c63430007050033","bytecodeSha1":"0e5d8e7f5fe3fcc0c4b4f29d24f42e2a7c7c4c28","compiler":{"evm_version":"istanbul","optimizer":{"enabled":true,"runs":200},"version":"0.7.5+commit.eb77ed08"},"contractName":"cTokenAggregator","language":"Solidity","natspec":{"kind":"dev","methods":{"getExchangeRateStateful()":{"notice":"Returns the current exchange rate for the cToken to the underlying "}},"version":1},"opcodes":"PUSH1 0x80 PUSH1 0x40 MSTORE CALLVALUE DUP1 ISZERO PUSH2 0x10 JUMPI PUSH1 0x0 DUP1 REVERT JUMPDEST POP PUSH1 0x4 CALLDATASIZE LT PUSH2 0x9E JUMPI PUSH1 0x0 CALLDATALOAD PUSH1 0xE0 SHR DUP1 PUSH4 0xB2FFFB04 GT PUSH2 0x66 JUMPI DUP1 PUSH4 0xB2FFFB04 EQ PUSH2 0x184 JUMPI DUP1 PUSH4 0xC6D5802F EQ PUSH2 0x18C JUMPI DUP1 PUSH4 0xD37DB1D2 EQ PUSH2 0x194 JUMPI DUP1 PUSH4 0xDD30A666 EQ PUSH2 0x19C JUMPI DUP1 PUSH4 0xFC0C546A EQ PUSH2 0x1A4 JUMPI PUSH2 0x9E JUMP JUMPDEST DUP1 PUSH4 0x1EE10833 EQ PUSH2 0xA3 JUMPI DUP1 PUSH4 0x313CE567 EQ PUSH2 0xBD JUMPI DUP1 PUSH4 0x54FD4D50 EQ PUSH2 0xDB JUMPI DUP1 PUSH4 0x6F307DC3 EQ PUSH2 0xE3 JUMPI DUP1 PUSH4 0x7284E416 EQ PUSH2 0x107 JUMPI JUMPDEST PUSH1 0x0 DUP1 REVERT JUMPDEST PUSH2 0xAB PUSH2 0x1AC JUMP JUMPDEST PUSH1 0x40 DUP1 MLOAD SWAP2 DUP3 MSTORE MLOAD SWAP1 DUP2 SWAP1 SUB PUSH1 0x20 ADD SWAP1 RETURN JUMPDEST PUSH2 0xC5 PUSH2 0x246 JUMP JUMPDEST PUSH1 0x40 DUP1 MLOAD PUSH1 0xFF SWAP1 SWAP3 AND DUP3 MSTORE MLOAD SWAP1 DUP2 SWAP1 SUB PUSH1 0x20 ADD SWAP1 RETURN JUMPDEST PUSH2 0xAB PUSH2 0x24F JUMP JUMPDEST PUSH2 0xEB PUSH2 0x255 JUMP JUMPDEST PUSH1 0x40 DUP1 MLOAD PUSH1 0x1 PUSH1 0x1 PUSH1 0xA0 SHL SUB SWAP1 SWAP3 AND DUP3 MSTORE MLOAD SWAP1 DUP2 SWAP1 SUB PUSH1 0x20 ADD SWAP1 RETURN JUMPDEST PUSH2 0x10F PUSH2 0x2E1 JUMP JUMPDEST PUSH1 0x40 DUP1 MLOAD PUSH1 0x20 DUP1 DUP3 MSTORE DUP4 MLOAD DUP2 DUP4 ADD MSTORE DUP4 MLOAD SWAP2 SWAP3 DUP4 SWAP3 SWAP1 DUP4 ADD SWAP2 DUP6 ADD SWAP1 DUP1 DUP4 DUP4 PUSH1 0x0 JUMPDEST DUP4 DUP2 LT ISZERO PUSH2 0x149 JUMPI DUP2 DUP2 ADD MLOAD DUP4 DUP3 ADD MSTORE PUSH1 0x20 ADD PUSH2 0x131 JUMP JUMPDEST POP POP POP POP SWAP1 POP SWAP1 DUP2 ADD SWAP1 PUSH1 0x1F AND DUP1 ISZERO PUSH2 0x176 JUMPI DUP1 DUP3 SUB DUP1 MLOAD PUSH1 0x1 DUP4 PUSH1 0x20 SUB PUSH2 0x100 EXP SUB NOT AND DUP2 MSTORE PUSH1 0x20 ADD SWAP2 POP JUMPDEST POP SWAP3 POP POP POP PUSH1 0x40 MLOAD DUP1 SWAP2 SUB SWAP1 RETURN JUMPDEST PUSH2 0xAB PUSH2 0x36C JUMP JUMPDEST PUSH2 0xAB PUSH2 0x3DC JUMP JUMPDEST PUSH2 0xAB PUSH2 0x3E4 JUMP JUMPDEST PUSH2 0xAB PUSH2 0x3EB JUMP JUMPDEST PUSH2 0xEB PUSH2 0x496 JUMP JUMPDEST PUSH1 0x0 DUP1 PUSH32 0x0 PUSH1 0x1 PUSH1 0x1 PUSH1 0xA0 SHL SUB AND PUSH4 0xBD6D894D PUSH1 0x40 MLOAD DUP2 PUSH4 0xFFFFFFFF AND PUSH1 0xE0 SHL DUP2 MSTORE PUSH1 0x4 ADD PUSH1 0x20 PUSH1 0x40 MLOAD DUP1 DUP4 SUB DUP2 PUSH1 0x0 DUP8 DUP1 EXTCODESIZE ISZERO DUP1 ISZERO PUSH2 0x20A JUMPI PUSH1 0x0 DUP1 REVERT JUMPDEST POP GAS CALL ISZERO DUP1 ISZERO PUSH2 0x21E JUMPI RETURNDATASIZE PUSH1 0x0 DUP1 RETURNDATACOPY RETURNDATASIZE PUSH1 0x0 REVERT JUMPDEST POP POP POP POP PUSH1 0x40 MLOAD RETURNDATASIZE PUSH1 0x20 DUP2 LT ISZERO PUSH2 0x234 JUMPI PUSH1 0x0 DUP1 REVERT JUMPDEST POP MLOAD SWAP1 POP PUSH2 0x241 DUP2 PUSH2 0x4BA JUMP JUMPDEST SWAP1 POP SWAP1 JUMP JUMPDEST PUSH1 0x0 SLOAD PUSH1 0xFF AND DUP2 JUMP JUMPDEST PUSH1 0x1 SLOAD DUP2 JUMP JUMPDEST PUSH1 0x0 PUSH32 0x0 PUSH1 0x1 PUSH1 0x1 PUSH1 0xA0 SHL SUB AND PUSH4 0x6F307DC3 PUSH1 0x40 MLOAD DUP2 PUSH4 0xFFFFFFFF AND PUSH1 0xE0 SHL DUP2 MSTORE PUSH1 0x4 ADD PUSH1 0x20 PUSH1 0x40 MLOAD DUP1 DUP4 SUB DUP2 DUP7 DUP1 EXTCODESIZE ISZERO DUP1 ISZERO PUSH2 0x2B0 JUMPI PUSH1 0x0 DUP1 REVERT JUMPDEST POP GAS STATICCALL ISZERO DUP1 ISZERO PUSH2 0x2C4 JUMPI RETURNDATASIZE PUSH1 0x0 DUP1 RETURNDATACOPY RETURNDATASIZE PUSH1 0x0 REVERT JUMPDEST POP POP POP POP PUSH1 0x40 MLOAD RETURNDATASIZE PUSH1 0x20 DUP2 LT ISZERO PUSH2 0x2DA JUMPI PUSH1 0x0 DUP1 REVERT JUMPDEST POP MLOAD SWAP1 POP SWAP1 JUMP JUMPDEST PUSH1 0x2 DUP1 SLOAD PUSH1 0x40 DUP1 MLOAD PUSH1 0x20 PUSH1 0x1 DUP5 AND ISZERO PUSH2 0x100 MUL PUSH1 0x0 NOT ADD SWAP1 SWAP4 AND DUP5 SWAP1 DIV PUSH1 0x1F DUP2 ADD DUP5 SWAP1 DIV DUP5 MUL DUP3 ADD DUP5 ADD SWAP1 SWAP3 MSTORE DUP2 DUP2 MSTORE SWAP3 SWAP2 DUP4 ADD DUP3 DUP3 DUP1 ISZERO PUSH2 0x364 JUMPI DUP1 PUSH1 0x1F LT PUSH2 0x339 JUMPI PUSH2 0x100 DUP1 DUP4 SLOAD DIV MUL DUP4 MSTORE SWAP2 PUSH1 0x20 ADD SWAP2 PUSH2 0x364 JUMP JUMPDEST DUP3 ADD SWAP2 SWAP1 PUSH1 0x0 MSTORE PUSH1 0x20 PUSH1 0x0 KECCAK256 SWAP1 JUMPDEST DUP2 SLOAD DUP2 MSTORE SWAP1 PUSH1 0x1 ADD SWAP1 PUSH1 0x20 ADD DUP1 DUP4 GT PUSH2 0x347 JUMPI DUP3 SWAP1 SUB PUSH1 0x1F AND DUP3 ADD SWAP2 JUMPDEST POP POP POP POP POP DUP2 JUMP JUMPDEST PUSH1 0x0 DUP1 PUSH32 0x0 PUSH1 0x1 PUSH1 0x1 PUSH1 0xA0 SHL SUB AND PUSH4 0x182DF0F5 PUSH1 0x40 MLOAD DUP2 PUSH4 0xFFFFFFFF AND PUSH1 0xE0 SHL DUP2 MSTORE PUSH1 0x4 ADD PUSH1 0x20 PUSH1 0x40 MLOAD DUP1 DUP4 SUB DUP2 DUP7 DUP1 EXTCODESIZE ISZERO DUP1 ISZERO PUSH2 0x3C8 JUMPI PUSH1 0x0 DUP1 REVERT JUMPDEST POP GAS STATICCALL ISZERO DUP1 ISZERO PUSH2 0x21E JUMPI RETURNDATASIZE PUSH1 0x0 DUP1 RETURNDATACOPY RETURNDATASIZE PUSH1 0x0 REVERT JUMPDEST PUSH4 0x3B9ACA00 DUP2 JUMP JUMPDEST PUSH3 0x201480 DUP2 JUMP JUMPDEST PUSH1 0x0 DUP1 PUSH32 0x0 PUSH1 0x1 PUSH1 0x1 PUSH1 0xA0 SHL SUB AND PUSH4 0xAE9D70B0 PUSH1 0x40 MLOAD DUP2 PUSH4 0xFFFFFFFF AND PUSH1 0xE0 SHL DUP2 MSTORE PUSH1 0x4 ADD PUSH1 0x20 PUSH1 0x40 MLOAD DUP1 DUP4 SUB DUP2 DUP7 DUP1 EXTCODESIZE ISZERO DUP1 ISZERO PUSH2 0x447 JUMPI PUSH1 0x0 DUP1 REVERT JUMPDEST POP GAS STATICCALL ISZERO DUP1 ISZERO PUSH2 0x45B JUMPI RETURNDATASIZE PUSH1 0x0 DUP1 RETURNDATACOPY RETURNDATASIZE PUSH1 0x0 REVERT JUMPDEST POP POP POP POP PUSH1 0x40 MLOAD RETURNDATASIZE PUSH1 0x20 DUP2 LT ISZERO PUSH2 0x471 JUMPI PUSH1 0x0 DUP1 REVERT JUMPDEST POP MLOAD SWAP1 POP PUSH2 0x490 PUSH4 0x3B9ACA00 PUSH2 0x48A DUP4 PUSH3 0x201480 PUSH2 0x519 JUMP JUMPDEST SWAP1 PUSH2 0x57B JUMP JUMPDEST SWAP2 POP POP SWAP1 JUMP JUMPDEST PUSH32 0x0 SWAP1 JUMP JUMPDEST PUSH1 0x1 PUSH1 0x1 PUSH1 0xFF SHL SUB DUP2 GT ISZERO PUSH2 0x516 JUMPI PUSH1 0x40 DUP1 MLOAD PUSH3 0x461BCD PUSH1 0xE5 SHL DUP2 MSTORE PUSH1 0x20 PUSH1 0x4 DUP3 ADD MSTORE PUSH1 0x17 PUSH1 0x24 DUP3 ADD MSTORE PUSH32 0x63546F6B656E416461707465723A206F766572666C6F77000000000000000000 PUSH1 0x44 DUP3 ADD MSTORE SWAP1 MLOAD SWAP1 DUP2 SWAP1 SUB PUSH1 0x64 ADD SWAP1 REVERT JUMPDEST POP JUMP JUMPDEST PUSH1 0x0 DUP3 PUSH2 0x528 JUMPI POP PUSH1 0x0 PUSH2 0x575 JUMP JUMPDEST DUP3 DUP3 MUL DUP3 DUP5 DUP3 DUP2 PUSH2 0x535 JUMPI INVALID JUMPDEST DIV EQ PUSH2 0x572 JUMPI PUSH1 0x40 MLOAD PUSH3 0x461BCD PUSH1 0xE5 SHL DUP2 MSTORE PUSH1 0x4 ADD DUP1 DUP1 PUSH1 0x20 ADD DUP3 DUP2 SUB DUP3 MSTORE PUSH1 0x21 DUP2 MSTORE PUSH1 0x20 ADD DUP1 PUSH2 0x5E3 PUSH1 0x21 SWAP2 CODECOPY PUSH1 0x40 ADD SWAP2 POP POP PUSH1 0x40 MLOAD DUP1 SWAP2 SUB SWAP1 REVERT JUMPDEST SWAP1 POP JUMPDEST SWAP3 SWAP2 POP POP JUMP JUMPDEST PUSH1 0x0 DUP1 DUP3 GT PUSH2 0x5D1 JUMPI PUSH1 0x40 DUP1 MLOAD PUSH3 0x461BCD PUSH1 0xE5 SHL DUP2 MSTORE PUSH1 0x20 PUSH1 0x4 DUP3 ADD MSTORE PUSH1 0x1A PUSH1 0x24 DUP3 ADD MSTORE PUSH32 0x536166654D6174683A206469766973696F6E206279207A65726F000000000000 PUSH1 0x44 DUP3 ADD MSTORE SWAP1 MLOAD SWAP1 DUP2 SWAP1 SUB PUSH1 0x64 ADD SWAP1 REVERT JUMPDEST DUP2 DUP4 DUP2 PUSH2 0x5DA JUMPI INVALID JUMPDEST DIV SWAP4 SWAP3 POP POP POP JUMP INVALID MSTORE8 PUSH2 0x6665 0x4D PUSH2 0x7468 GASPRICE KECCAK256 PUSH14 0x756C7469706C69636174696F6E20 PUSH16 0x766572666C6F77A26469706673582212 KECCAK256 SLOAD 0x5C LOG1 PUSH14 0xE6563A8008892D9C6FBD60CA5C MLOAD 0xBA 0xDD 0xC9 0xC1 DUP16 PUSH18 0x9A0D80C7FDE96664736F6C63430007050033 ","sha1":"c0fa948feec30aa4a98828e2cbe1de0c8085e516","source":"// SPDX-License-Identifier: GPL-3.0-only\npragma solidity ^0.7.0;\n\nimport \"interfaces/notional/AssetRateAdapter.sol\";\nimport \"interfaces/compound/CTokenInterface.sol\";\nimport \"@openzeppelin/contracts/token/ERC20/ERC20.sol\";\nimport \"@openzeppelin/contracts/math/SafeMath.sol\";\n\ncontract cTokenAggregator is AssetRateAdapter {\n    using SafeMath for uint256;\n\n    CTokenInterface private immutable cToken;\n    uint8 public override decimals = 18;\n    uint256 public override version = 1;\n    string public override description;\n    // This is defined in the Compound interest rate model:\n    // https://github.com/compound-finance/compound-protocol/blob/b9b14038612d846b83f8a009a82c38974ff2dcfe/contracts/JumpRateModel.sol#L18\n    uint256 public constant BLOCKS_PER_YEAR = 2102400;\n    // Notional rate precision = 1e9\n    // Compound rate precision = 1e18\n    uint256 public constant SCALE_RATE = 1e9;\n\n    constructor(CTokenInterface _cToken) {\n        cToken = _cToken;\n        description = ERC20(address(_cToken)).symbol();\n    }\n\n    function token() external view override returns (address) {\n        return address(cToken);\n    }\n\n    function underlying() external view override returns (address) {\n        return cToken.underlying();\n    }\n\n    function _checkExchangeRate(uint256 exchangeRate) private pure {\n        require(exchangeRate <= uint256(type(int256).max), \"cTokenAdapter: overflow\");\n    }\n\n    /** @notice Returns the current exchange rate for the cToken to the underlying */\n    function getExchangeRateStateful() external override returns (int256) {\n        uint256 exchangeRate = cToken.exchangeRateCurrent();\n        _checkExchangeRate(exchangeRate);\n\n        return int256(exchangeRate);\n    }\n\n    function getExchangeRateView() external view override returns (int256) {\n        uint256 exchangeRate = cToken.exchangeRateStored();\n        _checkExchangeRate(exchangeRate);\n\n        return int256(exchangeRate);\n    }\n\n    function getAnnualizedSupplyRate() external view override returns (uint256) {\n        uint256 supplyRatePerBlock = cToken.supplyRatePerBlock();\n\n        // Although the Compound documentation recommends doing a per day compounding of the supply\n        // rate to get the annualized rate (https://compound.finance/docs#protocol-math), we just do a\n        // simple linear approximation of the rate here. Since Compound rates are variable per block\n        // any rate we calculate here will be an approximation and so this is the simplest implementation\n        // that gets a pretty good answer. Supply rates are only used when valuing idiosyncratic fCash assets\n        // that are shorter dated than the 3 month fCash market.\n\n        // Supply rate per block * blocks per year * notional rate precision / supply rate precision\n        return supplyRatePerBlock.mul(BLOCKS_PER_YEAR).div(SCALE_RATE);\n    }\n}\n","sourcePath":"contracts/external/adapters/cTokenAggregator.sol","type":"contract","deployment":{"address":"0x913F575653C933AC15C8eB5996eD71A5547977d8","chainid":"1","blockHeight":13498982}}