{"abi":[{"anonymous":false,"inputs":[{"indexed":true,"internalType":"address","name":"account","type":"address"},{"indexed":true,"internalType":"uint16","name":"currencyId","type":"uint16"},{"indexed":false,"internalType":"int256","name":"tokenSupplyChange","type":"int256"}],"name":"nTokenSupplyChange","type":"event"},{"inputs":[{"internalType":"address","name":"account","type":"address"},{"internalType":"uint16","name":"currencyId","type":"uint16"},{"internalType":"uint256","name":"amountExternalPrecision","type":"uint256"}],"name":"depositAssetToken","outputs":[{"internalType":"uint256","name":"","type":"uint256"}],"stateMutability":"nonpayable","type":"function"},{"inputs":[{"internalType":"address","name":"account","type":"address"},{"internalType":"uint16","name":"currencyId","type":"uint16"},{"internalType":"uint256","name":"amountExternalPrecision","type":"uint256"}],"name":"depositUnderlyingToken","outputs":[{"internalType":"uint256","name":"","type":"uint256"}],"stateMutability":"payable","type":"function"},{"inputs":[{"internalType":"uint16","name":"currencyId","type":"uint16"}],"name":"enableBitmapCurrency","outputs":[],"stateMutability":"nonpayable","type":"function"},{"inputs":[],"name":"getLibInfo","outputs":[{"internalType":"address","name":"","type":"address"},{"internalType":"address","name":"","type":"address"},{"internalType":"address","name":"","type":"address"},{"internalType":"address","name":"","type":"address"}],"stateMutability":"pure","type":"function"},{"inputs":[{"internalType":"address","name":"redeemer","type":"address"},{"internalType":"uint16","name":"currencyId","type":"uint16"},{"internalType":"uint96","name":"tokensToRedeem_","type":"uint96"},{"internalType":"bool","name":"sellTokenAssets","type":"bool"},{"internalType":"bool","name":"acceptResidualAssets","type":"bool"}],"name":"nTokenRedeem","outputs":[{"internalType":"int256","name":"","type":"int256"},{"internalType":"bool","name":"","type":"bool"}],"stateMutability":"nonpayable","type":"function"},{"inputs":[],"name":"owner","outputs":[{"internalType":"address","name":"","type":"address"}],"stateMutability":"view","type":"function"},{"inputs":[],"name":"pauseGuardian","outputs":[{"internalType":"address","name":"","type":"address"}],"stateMutability":"view","type":"function"},{"inputs":[],"name":"pauseRouter","outputs":[{"internalType":"address","name":"","type":"address"}],"stateMutability":"view","type":"function"},{"inputs":[{"internalType":"address","name":"account","type":"address"}],"name":"settleAccount","outputs":[{"internalType":"bool","name":"","type":"bool"}],"stateMutability":"nonpayable","type":"function"},{"inputs":[{"internalType":"uint16","name":"currencyId","type":"uint16"},{"internalType":"uint88","name":"amountInternalPrecision","type":"uint88"},{"internalType":"bool","name":"redeemToUnderlying","type":"bool"}],"name":"withdraw","outputs":[{"internalType":"uint256","name":"","type":"uint256"}],"stateMutability":"nonpayable","type":"function"}],"bytecode":"608060405234801561001057600080fd5b50614861806100206000396000f3fe6080604052600436106100915760003560e01c80638da5cb5b116100595780638da5cb5b146101445780639c97945014610159578063b8a694551461017b578063c4c96dae1461019b578063f667f897146101c057610091565b806302f332e81461009657806324a3d622146100cc5780632890fb65146100ee5780636689064314610101578063824633671461012f575b600080fd5b3480156100a257600080fd5b506100b66100b1366004614330565b6101ed565b6040516100c39190614500565b60405180910390f35b3480156100d857600080fd5b506100e161034b565b6040516100c3919061439d565b6100b66100fc36600461409a565b61035a565b34801561010d57600080fd5b5061012161011c3660046140d8565b610402565b6040516100c3929190614509565b34801561013b57600080fd5b506100e1610623565b34801561015057600080fd5b506100e1610632565b34801561016557600080fd5b50610179610174366004614314565b610649565b005b34801561018757600080fd5b506100b661019636600461409a565b610696565b3480156101a757600080fd5b506101b0610710565b6040516100c394939291906143b1565b3480156101cc57600080fd5b506101e06101db366004614080565b61076a565b6040516100c391906144f5565b60006002600a54141561021b5760405162461bcd60e51b815260040161021290614680565b60405180910390fd5b6002600a55600061022b3361079e565b509050610236613ef3565b61024281338885610863565b846001600160581b03168160200151121561026f5760405162461bcd60e51b8152600401610212906145cf565b610281856001600160581b0316610909565b608082015260006102948233858861091d565b90506102a08333610b9e565b60208301516001600160f81b0319161561031c57604051636ccc642f60e01b815273__FreeCollateralExternal________________90636ccc642f906102eb90339060040161439d565b60006040518083038186803b15801561030357600080fd5b505af4158015610317573d6000803e3d6000fd5b505050505b600081131561032a57600080fd5b61033b61033682610909565b610ca2565b6001600a55979650505050505050565b6002546001600160a01b031681565b60006002600a54141561037f5760405162461bcd60e51b815260040161021290614680565b6002600a553330141561039157600080fd5b61039a84610cb5565b60006103a585610d04565b90506103af613ef3565b6103bb81878785610863565b60006103d2336103ca87610da5565b849190610dbb565b9050600081136103e157600080fd5b6103ee828885600061091d565b506103f98388610b9e565b61033b81610ca2565b6000806002600a5414156104285760405162461bcd60e51b815260040161021290614680565b6002600a55336001600160a01b038816148061044357503330145b61045f5760405162461bcd60e51b815260040161021290614653565b6001600160601b03851660006104748961079e565b50905061047f613ef3565b61048b818b8b85610863565b82816040015112156104af5760405162461bcd60e51b815260040161021290614773565b6104b883610909565b60c082015260405162d57c9960e51b8152600090819073__nTokenRedeemAction____________________90631aaf9320906104fe908e9089908e908e906004016147a0565b60006040518083038186803b15801561051657600080fd5b505af415801561052a573d6000803e3d6000fd5b505050506040513d6000823e601f3d908101601f191682016040526105529190810190614151565b6060860183905291935090915061056e9050838d86600061091d565b50805115610584576105818c8583610ea1565b93505b61058e848d610b9e565b60208401516001600160f81b0319161561060a57604051636ccc642f60e01b815273__FreeCollateralExternal________________90636ccc642f906105d9908f9060040161439d565b60006040518083038186803b1580156105f157600080fd5b505af4158015610605573d6000803e3d6000fd5b505050505b516001600a55909b9015159a5098505050505050505050565b6001546001600160a01b031681565b60005464010000000090046001600160a01b031681565b3330141561065657600080fd5b60005461ffff908116908216111561066d57600080fd5b3360006106798261079e565b509050610687818442610f22565b6106918183610b9e565b505050565b60006002600a5414156106bb5760405162461bcd60e51b815260040161021290614680565b6002600a55333014156106cd57600080fd5b6106d684610cb5565b60006106e185610d04565b90506106eb613ef3565b6106f781878785610863565b60006103d23361070687610da5565b849190600161101a565b73__FreeCollateralExternal________________73__MigrateIncentives_____________________73__SettleAssetsExternal__________________73__nTokenRedeemAction____________________90919293565b600061077582610cb5565b6000806107818461079e565b915091508015610795576107958285610b9e565b9150505b919050565b6107a6613f43565b6000806107b284610d04565b90506107bd816110f5565b15610857576040516337b5fc2160e11b815273__SettleAssetsExternal__________________90636f6bf842906107fb90879085906004016143dc565b60a06040518083038186803b15801561081357600080fd5b505af4158015610827573d6000803e3d6000fd5b505050506040513d601f19601f8201168201806040525081019061084b9190614274565b6001925092505061085e565b9150600090505b915091565b8161ffff16600010801561087d5750613fff61ffff831611155b61088657600080fd5b61ffff8216808552610899908290611149565b156108c6576108ac838361ffff166111d3565b61010088015260e0870152604086015260208501526108e4565b6000602085018190526040850181905260e085018190526101008501525b50506000606083018190526080830181905260a0830181905260c09092019190915250565b60006109176000198361127f565b92915050565b60008060008660a0015112156109765760006109588760a001516109528960c001518a604001516112cd90919063ffffffff16565b906112cd565b12156109765760405162461bcd60e51b815260040161021290614722565b6000866080015112156109c65760006109a8876080015161095289606001518a602001516112cd90919063ffffffff16565b12156109c65760405162461bcd60e51b8152600401610212906146d6565b6109d18686856112e3565b6080880181905260608801519193506000916109ec916112cd565b90508015610a59576020870151610a0390826112cd565b602088015286516040516001935061ffff909116906001600160a01b038816907f5441e4a5fac93a951d782e6f1cdb82e95c8fc58561a013953d17e395c5e69b4b90610a50908590614500565b60405180910390a35b60a0870151151580610a6e575060c087015115155b15610b14576000610a988860c001516109528a60a001518b604001516112cd90919063ffffffff16565b9050610aad8888610aa884610ca2565b611399565b506040880181905260c088015115610b0e57876000015161ffff16876001600160a01b03167f412bc13d202a2ea5119e55fec9c5e420dddb18faf186373ad9795ad4f4545aa98a60c00151604051610b059190614500565b60405180910390a35b60019250505b8115610b4157610b4186886000015161ffff1689602001518a604001518b60e001518c6101000151611486565b86516020880151610b6e9161ffff1690151580610b615750604089015115155b879190600160fe1b6115ca565b600087602001511215610b9457602085018051600160f91b176001600160f81b03191690525b5050949350505050565b6000610ba86117ca565b6001600160a01b03831660008181526020838152604080832088518154938a0151838b015160608c015160808d015160701c600160481b027affffffffffffffffffffffffffffffffffff0000000000000000001961ffff909216600160381b0268ffff000000000000001960ff94909416600160301b0266ff0000000000001960f89690961c650100000000000265ff00000000001964ffffffffff90981664ffffffffff19909b169a909a1796909616989098179390931693909317169490941716929092179091555192935090917f6bd4b121bca854a191536a2ca891155c42ee2fb23f307fb34e8bc65cfcb5412e9190a2505050565b600080821215610cb157600080fd5b5090565b6001600160a01b038116610cc857600080fd5b6001600160a01b038116301415610cde57600080fd5b6000610ce9826117d7565b5050505061ffff16905080600014610d0057600080fd5b5050565b610d0c613f43565b6000610d166117ca565b6001600160a01b039390931660009081526020938452604090819020815160a081018352905464ffffffffff8116825265010000000000810460f81b6001600160f81b03191695820195909552600160301b850460ff1691810191909152600160381b840461ffff166060820152600160481b90930460701b6001600160701b03191660808401525090919050565b60006001600160ff1b03821115610cb157600080fd5b600081610dca57506000610e9a565b60008213610dd757600080fd5b6000610dea856000015161ffff16611840565b9050600381606001516005811115610dfe57fe5b1415610e2857348314610e235760405162461bcd60e51b815260040161021290614537565b610e3f565b8451610e3c908290869061ffff1686611853565b92505b6000610e52866000015161ffff166118fb565b90506000610e6f8760000151610e6787610ca2565b84919061190e565b90506000610e7d8383611a05565b6060890151909150610e8f90826112cd565b606089015293505050505b9392505050565b610ea9613f43565b610eb2836110f5565b15610ecf5760405162461bcd60e51b8152600401610212906145fd565b610ed883611a3b565b15610eed57610ee8848484611a48565b610f1a565b6000610eff8585604001518551611b10565b9050610f0b8184611ba3565b610f188486836000611c01565b505b509092915050565b610f2b83611a3b565b15610f485760405162461bcd60e51b8152600401610212906146a8565b8161ffff166000108015610f625750613fff61ffff831611155b610f7e5760405162461bcd60e51b815260040161021290614746565b604083015160ff1615610fa35760405162461bcd60e51b8152600401610212906145a3565b60208301516001600160f81b03191615610fcf5760405162461bcd60e51b8152600401610212906146f8565b610fe48361ffff84166000600160fe1b6115ca565b61ffff821660608401526000610ff982611ce3565b905064ffffffffff811061100c57600080fd5b64ffffffffff169092525050565b600082611029575060006110ed565b6000831361103657600080fd5b6000611049866000015161ffff166118fb565b905060058160600151600581111561105d57fe5b14156110765785516110739061ffff1685611d01565b93505b8060200151806110835750825b156110ca57855160009061109f908390889061ffff1688611853565b90506110ab8282611a05565b60608801519093506110bd90846112cd565b6060880152506110ed9050565b6110d48185611a05565b60808701519092506110e690836112cd565b6080870152505b949350505050565b60004261110183611a3b565b156111225761110f81611ce3565b835164ffffffffff161091506107999050565b825164ffffffffff16158015906111415750825164ffffffffff168110155b915050610799565b6000811580159061115c5750613fff8211155b61116557600080fd5b6080830151606084015161ffff16831415611184576001915050610917565b6001600160701b03198116156111c95760f081901c613fff16838114156111b65750600160fe1b908116149050610917565b5060101b6001600160801b031916611184565b5060009392505050565b60008060008060006111e3611d88565b6001600160a01b0388166000908152602082815260408083208a84529091529020805469ffffffffffffffffffff81169650600160501b900463ffffffff169450909150831561124f57805461124890600160701b900466ffffffffffffff16611d95565b9250611264565b8054600160701b900466ffffffffffffff1692505b54600160a81b9004600a90810b900b97939650919450925050565b8181026000198314156112af578115806112a157508282828161129e57fe5b05145b6112aa57600080fd5b610917565b8215806112c45750818382816112c157fe5b05145b61091757600080fd5b8181018281121560008312151461091757600080fd5b60008060006112f9866000015161ffff166118fb565b90506000611314876080015183611da390919063ffffffff16565b90508061132957600080935093505050611391565b8480156113365750600081125b1561136b5786516113589061ffff168761134f84610909565b85929190611ddb565b93506113648282611a05565b925061138e565b865161137f908390889061ffff1684611853565b935061138b8285611a05565b92505b50505b935093915050565b8251600090429082906113af9061ffff16611e80565b905060006113c2828860c0015185611ea6565b90506113d087838388611f89565b935060006113dd836120b6565b90506001600160a01b0381161561146b57806001600160a01b0316631d684dd2888a600001516114108c60400151610ca2565b8a8d60c001518b6040518763ffffffff1660e01b815260040161143896959493929190614448565b600060405180830381600087803b15801561145257600080fd5b505af1158015611466573d6000803e3d6000fd5b505050505b841561147b5761147b8786612128565b505050509392505050565b6000611490611d88565b6001600160a01b0388166000908152602082815260408083208a845290915290209091506001600160571b031986128015906114d357506001600160571b038613155b6114dc57600080fd5b600085121580156114f7575069ffffffffffffffffffff8513155b61150057600080fd5b836115405766ffffffffffffff83111561151957600080fd5b805466ffffffffffffff60701b1916600160701b66ffffffffffffff85160217815561155a565b8054600160501b900463ffffffff16841461155a57600080fd5b8054600a9690960b6001600160581b0316600160a81b026001600160a81b0369ffffffffffffffffffff90961669ffffffffffffffffffff1963ffffffff909616600160501b0263ffffffff60501b19909816979097179490941695909517939093169190911790925550505050565b8260001080156115dc5750613fff8311155b6115e557600080fd5b8180156115f9575082846060015161ffff16145b15611603576117c4565b6080840151600090815b6001600160701b031982161561177e5760f082901c613fff1686811480156116325750855b1561166a57506080870180516001600160f01b0319861660109093029290921c919091176001600160701b0319169052506117c49050565b8681148015611677575085155b156116cc576001600160f01b03198516199290921691600360fe1b83166116aa576010836001600160701b031916901b92505b506001600160701b031991821660109091021c919091171660808501526117c4565b86811180156116d85750855b15611732576080888101516001600160f01b031960f08a901b88178116601086021c9690961795911b161561170c57600080fd5b506001600160701b03199182166001919091016010021c919091171660808501526117c4565b868111801561173f575085155b1561174d57505050506117c4565b506001600160f01b0319821660108281029190911c93909317929190911b6001600160801b0319169060010161160d565b8461178b575050506117c4565b6009811061179857600080fd5b6001600160f01b031960f087901b85171660109091021c919091176001600160701b0319166080860152505b50505050565b6000806109176001612147565b6000806000806000806117e8612160565b6001600160a01b039097166000908152602097909752505060409094205461ffff81169563ffffffff62010000830481169650600160301b830416945060ff600160501b8304169350600160581b90910460d01b9150565b611848613f71565b61091782600161216d565b8060058560600151600581111561186657fe5b141561188b57600061187784611840565b905061188781600001518461221b565b9250505b60008213156118b75760006118a18686856122aa565b90508560200151156118b1578091505b506110ed565b6003856060015160058111156118c957fe5b14156118e6576118e1846118dc84610909565b61239d565b6110ed565b84516110ed90856118f685610909565b6123d3565b611903613f71565b61091782600061216d565b60008060058560600151600581111561192357fe5b14611935576370a0823160e01b61193e565b630ed1279f60e11b5b905060006119518660000151308461244a565b905060058660600151600581111561196557fe5b141561198c57600061197a8661ffff16611840565b9050611986818661255c565b506119d5565b60018660600151600581111561199e57fe5b14156119b3576119ae86856125cf565b6119d5565b6002866060015160058111156119c557fe5b1415610091576119ae8685612671565b60006119e68760000151308561244a565b90506119fa6119f582846126cd565b610da5565b979650505050505050565b60006305f5e10083604001511415611a1e575080610917565b6040830151610e9a90611a35846305f5e10061127f565b9061272a565b6060015161ffff16151590565b611a5182611a3b565b611a5a57600080fd5b606082015161ffff1660005b8251811015611b09576000838281518110611a7d57fe5b60200260200101519050806060015160001415611a9a5750611b01565b80518314611aa757600080fd5b6040810151600114611ab857600080fd5b6000611ada87858460200151896000015164ffffffffff16866060015161275b565b90506000811215611afe57602086018051600160f81b176001600160f81b03191690525b50505b600101611a66565b5050505050565b611b18613fa0565b611b20613fa0565b60ff8416611b2f579050610e9a565b611b3985856128c5565b815260ff841660608201528267ffffffffffffffff81118015611b5b57600080fd5b50604051908082528060200260200182016040528015611b9557816020015b611b82613fc8565b815260200190600190039081611b7a5790505b506020820152949350505050565b60005b8151811015610691576000828281518110611bbd57fe5b60200260200101519050806060015160001415611bda5750611bf9565b611bf78482600001518360200151846040015185606001516128ee565b505b600101611ba6565b6000808080611c1086886129eb565b64ffffffffff81168c5292965090945092509050611c2d886110f5565b15611c3757600080fd5b60ff8216604089015284611c5657600760ff83161115611c5657600080fd5b8315611c7957602088018051600160f81b176001600160f81b0319169052611c88565b602088018051607f60f91b1690525b611c958860800151612c2a565b6001600160701b031916608089015260005b8315611cd85760f084901c818114611cca57611cca8a826001600160ff1b6115ca565b60109490941b939050611ca7565b505050505050505050565b600062015180821015611cf557600080fd5b50620151808106900390565b600081611d1057506000610917565b60008213611d1d57600080fd5b6000611d2884611840565b90506000611d398260000151612ca5565b9050600281056b033b2e3c9fd0803ce80000006001600160ff1b0382900305851315611d6457600080fd5b81816b033b2e3c9fd0803ce800000087020181611d7d57fe5b059695505050505050565b6000806109176006612147565b600881901c60ff9091161b90565b60006305f5e10083604001511415611dbc575080610917565b610e9a6305f5e100611a3585604001518561127f90919063ffffffff16565b600080600286606001516005811115611df057fe5b1415611e0857611e01868585612d30565b9050611e65565b6000611e1386611840565b9050600587606001516005811115611e2757fe5b1415611e3f57611e38818686612ded565b9150611e63565b600187606001516005811115611e5157fe5b141561009157611e3887828787612e9e565b505b611e76611e7182610da5565b610909565b9695505050505050565b600080611e8b612f9c565b6000938452602052505060409020546001600160a01b031690565b6000806000611eb58685612fa9565b50915091506000611ec461303f565b6001600160a01b0388166000908152602082905260408120919250611ee985896112cd565b905080600013158015611f0257506001600160601b0381105b611f0b57600080fd5b81546bffffffffffffffffffffffff19166001600160601b038216176fffffffffffffffffffffffffffffffff60601b1916600160601b6001600160801b0386160217825563ffffffff8710611f6057600080fd5b50805463ffffffff8716600160e01b026001600160e01b03909116179055509150509392505050565b60e08401516000901561204a5773__MigrateIncentives_____________________63e0c01a7285611fbe8860400151610ca2565b8860e001518961010001516040518563ffffffff1660e01b8152600401611fe894939291906144cf565b60206040518083038186803b15801561200057600080fd5b505af4158015612014573d6000803e3d6000fd5b505050506040513d601f19601f820116820180604052508101906120389190614385565b600060e0870181905261010087015290505b61208c61208586610100015161207f670de0b6b3a7640000612079886120738c60400151610ca2565b9061304c565b906130a5565b906126cd565b829061310c565b90506120a4670de0b6b3a7640000612079848661304c565b85610100018181525050949350505050565b6000806120c1612160565b6001600160a01b0384166000908152602082905260409020805491925090600160f81b900460ff161561211d576120f6613166565b6001600160a01b038086166000908152602092909252604090912054169250610799915050565b600092505050610799565b610d0073cfeaead4947f0705a14ec42ac3d44129e1ef3ed583836123d3565b6000620f424082601a81111561215957fe5b0192915050565b6000806109176002612147565b612175613f71565b600061217f613173565b6000858152602082815260408083208715158452825291829020825160a08101845281546001600160a01b038116825260ff600160a01b82048116151594830194909452600160b01b81048416600a0a9482019490945293945092916060830191600160a81b9091041660058111156121f457fe5b81529154600160b81b900468ffffffffffffffffff16602090920191909152949350505050565b60008161222a57506000610917565b600061223584612ca5565b9050600061224284613180565b9050816b019d971e4fe8401e74000001600160ff1b038161225f57fe5b0581131561226c57600080fd5b6b033b2e3c9fd0803ce80000006b019d971e4fe8401e740000008383020105600085136122a15761229c81610909565b611e76565b95945050505050565b60008080806005876060015160058111156122c157fe5b146122d3576370a0823160e01b6122dc565b630ed1279f60e11b5b90508660200151156122f85786516122f590308361244a565b92505b86516123059087876131a1565b866020015180612319575060008760800151115b1561232e57865161232b90308361244a565b91505b60808701511561236957600061234c8861234785610da5565b611a05565b905061235b8860800151610da5565b81131561236757600080fd5b505b86602001511561238a576123806119f583856126cd565b9350505050610e9a565b61238085610da5565b5050509392505050565b6040516001600160a01b0383169082156108fc029083906000818181858888f19350505050158015610691573d6000803e3d6000fd5b826001600160a01b031663a9059cbb83836040518363ffffffff1660e01b815260040180836001600160a01b0316815260200182815260200192505050600060405180830381600087803b15801561242a57600080fd5b505af115801561243e573d6000803e3d6000fd5b505050506106916131f9565b604080516001600160a01b0384811660248084019190915283518084039091018152604490920183526020820180516001600160e01b03166001600160e01b0319861617815292518251600094859485948a16939092909182918083835b602083106124c75780518252601f1990920191602091820191016124a8565b6001836020036101000a038019825116818451168082178552505050505050905001915050600060405180830381855afa9150503d8060008114612527576040519150601f19603f3d011682016040523d82523d6000602084013e61252c565b606091505b50915091508161253b57600080fd5b80806020019051602081101561255057600080fd5b50519695505050505050565b612564613266565b54825160405163e8eda9df60e01b81526001600160a01b039092169163e8eda9df9161259991859030906000906004016144a2565b600060405180830381600087803b1580156125b357600080fd5b505af11580156125c7573d6000803e3d6000fd5b505050505050565b815160405163140e25ad60e31b81526000916001600160a01b03169063a0712d68906125ff908590600401614500565b602060405180830381600087803b15801561261957600080fd5b505af115801561262d573d6000803e3d6000fd5b505050506040513d601f19601f820116820180604052508101906126519190614385565b905080156106915760405162461bcd60e51b815260040161021290614519565b81600001516001600160a01b0316631249c58b826040518263ffffffff1660e01b81526004016000604051808303818588803b1580156126b057600080fd5b505af11580156126c4573d6000803e3d6000fd5b50505050505050565b600082821115612724576040805162461bcd60e51b815260206004820152601e60248201527f536166654d6174683a207375627472616374696f6e206f766572666c6f770000604482015290519081900360640190fd5b50900390565b6000816000191480156127405750600160ff1b83145b1561274a57600080fd5b81838161275357fe5b059392505050565b6000806127688787613273565b905060006127746132a8565b6001600160a01b0389166000908152602082815260408083208b845282528083208a84529091528120919250806127ab888a6132b5565b91509150806127b957600080fd5b6127c385836133c0565b156128525782546000906127df908990600f90810b900b6112cd565b905060016001607f1b03198112801590612800575060016001607f1b038113155b61280957600080fd5b83546001600160801b0319166001600160801b03600f83900b161784558061283a57612837868460006133f0565b95505b6128458c8c8861343b565b95506122a1945050505050565b86156128b65760016001607f1b03198712801590612877575060016001607f1b038713155b61288057600080fd5b82546001600160801b0319166001600160801b03600f89900b161783556128a9858360016133f0565b94506128b68b8b8761343b565b50949998505050505050505050565b606060006128d38484613495565b905060018151116128e5579050610917565b610e9a816135b7565b84516128fd9085858585613770565b1561290757611b09565b604085015115612934576000612924866020015186868686613770565b905080156129325750611b09565b505b61293d82613881565b1561295057600081121561295057600080fd5b6001600160571b0319811280159061296f57506001600160571b038113155b61297857600080fd5b8460200151518560400151141561299c576129968560200151613897565b60208601525b600085602001518660400151815181106129b257fe5b6020908102919091018101519586528501939093526040808501929092526060840152600060a090930192909252500180516001019052565b6000808080808080805b895151811015612a7c5760008a600001518281518110612a1157fe5b60200260200101519050600380811115612a2757fe5b8160a001516003811115612a3757fe5b1415612a4257600080fd5b60028160a001516003811115612a5457fe5b14158015612a6457506060810151155b15612a7357612a738b83613948565b506001016129f5565b5060005b895151811015612b1f5760008a600001518281518110612a9c57fe5b6020026020010151905060026003811115612ab357fe5b8160a001516003811115612ac357fe5b1415612ad757608081015160009055612b16565b60018160a001516003811115612ae957fe5b1415612b0257608081015180612aff8382613a97565b50505b612b0e81868686613bbc565b919650945092505b50600101612a80565b5060608901516000612b2f613c1f565b6001600160a01b038b1660009081526020829052604081209192505b8c6020015151811015612bf95760008d602001518281518110612b6a57fe5b60200260200101519050806060015160001415612b875750612bf1565b60028160a001516003811115612b9957fe5b14158015612bb7575060038160a001516003811115612bb457fe5b14155b612bc057600080fd5b612bcc81898989613bbc565b91995097509550612be981848760108110612be357fe5b01613a97565b600185019450505b600101612b4b565b5060108311158015612c10575064ffffffffff8411155b612c1957600080fd5b50939a929950975095509350505050565b6000807f7fff7fff7fff7fff7fff7fff7fff7fff7fff00000000000000000000000000008316815b6001600160701b0319821615612c9c57600160fe1b8281161415612c86576001600160f01b03198216811c92909217916010015b6010826001600160701b031916901b9150612c52565b50909392505050565b6000610917612cb2613266565b5460405163d15e005360e01b81526001600160a01b039091169063d15e005390612ce090869060040161439d565b60206040518083038186803b158015612cf857600080fd5b505afa158015612d0c573d6000803e3d6000fd5b505050506040513d601f19601f820116820180604052508101906119f59190614385565b825160405163db006a7560e01b8152600091479183916001600160a01b03169063db006a7590612d64908790600401614500565b602060405180830381600087803b158015612d7e57600080fd5b505af1158015612d92573d6000803e3d6000fd5b505050506040513d601f19601f82011682018060405250810190612db69190614385565b90508015612dd65760405162461bcd60e51b81526004016102129061455c565b47612de181846126cd565b9350612393868561239d565b6000612e086103368560000151612e0385610da5565b61221b565b9050612e12613266565b548451604051631a4ca37b60e21b81526001600160a01b03909216916369328dec91612e44918590889060040161447f565b602060405180830381600087803b158015612e5e57600080fd5b505af1158015612e72573d6000803e3d6000fd5b505050506040513d601f19601f82011682018060405250810190612e969190614385565b509392505050565b82516000908190612eb790306370a0823160e01b61244a565b9050600086600001516001600160a01b031663db006a75856040518263ffffffff1660e01b8152600401612eeb9190614500565b602060405180830381600087803b158015612f0557600080fd5b505af1158015612f19573d6000803e3d6000fd5b505050506040513d601f19601f82011682018060405250810190612f3d9190614385565b90508015612f5d5760405162461bcd60e51b81526004016102129061455c565b8551600090612f7490306370a0823160e01b61244a565b9050612f8081846126cd565b9350612f91876000015187866123d3565b505050949350505050565b6000806109176003612147565b6000806000612fb785613c2c565b919450925090508084118015612fcd5750600081115b8015612fd95750600083115b15613038576000612fe9866117d7565b505050915050600061301461300b6305f5e1008461304c90919063ffffffff16565b84880387613c88565b9050613020848261310c565b93506001600160801b03841061303557600080fd5b50505b9250925092565b6000806109176011612147565b60008261305b57506000610917565b8282028284828161306857fe5b0414610e9a5760405162461bcd60e51b815260040180806020018281038252602181526020018061480b6021913960400191505060405180910390fd5b60008082116130fb576040805162461bcd60e51b815260206004820152601a60248201527f536166654d6174683a206469766973696f6e206279207a65726f000000000000604482015290519081900360640190fd5b81838161310457fe5b049392505050565b600082820183811015610e9a576040805162461bcd60e51b815260206004820152601b60248201527f536166654d6174683a206164646974696f6e206f766572666c6f770000000000604482015290519081900360640190fd5b6000806109176012612147565b6000806109176007612147565b60008082121561319a5761319382610909565b9050610799565b5080610799565b604080516323b872dd60e01b81526001600160a01b038481166004830152306024830152604482018490529151918516916323b872dd9160648082019260009290919082900301818387803b15801561242a57600080fd5b6000613203614008565b3d8015613217576020811461322057600080fd5b6001925061322b565b60206000833e815192505b5081610d00576040805162461bcd60e51b8152602060048201526005602482015264045524332360dc1b604482015290519081900360640190fd5b6000806109176013612147565b60008061327e613caa565b6001600160a01b038516600090815260209182526040808220868352909252205491505092915050565b600080610917600c612147565b60008060006132c385611ce3565b9050620151808406156132dd5760008092509250506133b9565b8381106132f15760008092509250506133b9565b6201518081850304605a811161330e579250600191506133b99050565b610168811161334d576000620151806207e900840604820160591901905060068104605a016006828161333d57fe5b06600014945094505050506133b9565b610870811161337d5760006201518062278d00840604820161016719019050601e8104608701601e828161333d57fe5b611de281116133ad576000620151806276a700840604820161086f19019050605a810460c301605a828161333d57fe5b61010060009350935050505b9250929050565b6000600182101580156133d557506101008211155b6133de57600080fd5b50600019011b600160ff1b9081161490565b60006001831015801561340557506101008311155b61340e57600080fd5b81156134275750600160ff1b60001983011c8317610e9a565b50600160ff1b60001983011c198316610e9a565b601461344682613cb7565b11156134645760405162461bcd60e51b81526004016102129061462a565b600061346e613caa565b6001600160a01b039094166000908152602094855260408082209482529390945250912055565b606060108260ff1611156134a857600080fd5b60006134b2613c1f565b6001600160a01b038516600090815260208290526040812091925060ff851667ffffffffffffffff811180156134e757600080fd5b5060405190808252806020026020018201604052801561352157816020015b61350e613fc8565b8152602001906001900390816135065790505b50905060005b8560ff168110156135ad57600083826010811061354057fe5b019050600083838151811061355157fe5b602090810291909101810151835461ffff8116825264ffffffffff620100008204169282019290925260ff600160381b8304166040820152600160401b909104600a90810b900b60608201526080019190915250600101613527565b5095945050505050565b805160008167ffffffffffffffff811180156135d257600080fd5b506040519080825280602002602001820160405280156135fc578160200160208202803683370190505b50905060005b8281101561365957600084828151811061361857fe5b60200260200101519050613639816000015182602001518360400151613d87565b83838151811061364557fe5b602090810291909101015250600101613602565b5060015b828110156117c457805b60008111801561369f575082818151811061367e57fe5b602002602001015183600183038151811061369557fe5b6020026020010151115b15613767578281815181106136b057fe5b60200260200101518360018303815181106136c757fe5b60200260200101518460018403815181106136de57fe5b602002602001018584815181106136f157fe5b602002602001018281525082815250505084818151811061370e57fe5b602002602001015185600183038151811061372557fe5b602002602001015186600184038151811061373c57fe5b6020026020010187848151811061374f57fe5b60209081029190910101919091525260001901613667565b5060010161365d565b6000805b865181101561387457600087828151811061378b57fe5b602002602001015190508481604001511415806137a9575080518714155b806137b8575085816020015114155b156137c3575061386c565b60028160a0015160038111156137d557fe5b141580156137f3575060038160a0015160038111156137f057fe5b14155b6137fc57600080fd5b606081015160009061380e90866112cd565b905061381986613881565b1561382c57600081121561382c57600080fd5b6001600160571b0319811280159061384b57506001600160571b038113155b61385457600080fd5b6060820152600160a090910181905291506122a19050565b600101613774565b5060009695505050505050565b6000600282108015906109175750506008101590565b6060600082516000146138ae5782516002026138b1565b60015b905060008167ffffffffffffffff811180156138cc57600080fd5b5060405190808252806020026020018201604052801561390657816020015b6138f3613fc8565b8152602001906001900390816138eb5790505b50905060005b8451811015612e965784818151811061392157fe5b602002602001015182828151811061393557fe5b602090810291909101015260010161390c565b815151811061395657600080fd5b600082606001511161396757600080fd5b60008260000151828151811061397957fe5b602002602001015190506002600381111561399057fe5b8160a0015160038111156139a057fe5b141580156139be575060038160a0015160038111156139bb57fe5b14155b6139c757600080fd5b606083018051600019019052600080805b855151811015613a3a576000866000015182815181106139f457fe5b60200260200101519050828160800151118015613a21575060028160a001516003811115613a1e57fe5b14155b15613a3157806080015192508193505b506001016139d8565b5081841415613a53575050600260a09190910152610d00565b600085600001518381518110613a6557fe5b602090810291909101015160808581018051918301805190915252600160a09182015260029401939093525050505050565b815115801590613aaa57508151613fff10155b613ab357600080fd5b81602001516000108015613ad05750602082015164ffffffffff10155b613ad957600080fd5b81604001516000108015613af257506040820151600810155b613afb57600080fd5b60608201516001600160571b031913801590613b22575060608201516001600160571b0312155b613b2b57600080fd5b8151815460208401516040850151606090950151600a0b6001600160581b0316600160401b0272ffffffffffffffffffffff00000000000000001960ff909616600160381b0267ff000000000000001964ffffffffff909316620100000266ffffffffff00001961ffff90961661ffff19909516949094179490941692909217169190911792909216919091179055565b600080600080613bcb88613de2565b9050841580613bd957508085115b15613be2578094505b8680613bf2575060008860600151125b965061ffff861615613c0357600080fd5b50509451939560109390931c60f09490941b9390931793509150565b600080610917600d612147565b600080600080613c3a61303f565b6001600160a01b0395909516600090815260209590955250506040909220546001600160601b03811693600160601b82046001600160801b03169350600160e01b90910463ffffffff169150565b60006110ed826120796301da9c00818861207389670de0b6b3a764000061304c565b600080610917600b612147565b600181901c7f5555555555555555555555555555555555555555555555555555555555555555908116911601600281901c7f3333333333333333333333333333333333333333333333333333333333333333908116911601600481901c7f07070707070707070707070707070707070707070707070707070707070707079190911601600881901c7e0f000f000f000f000f000f000f000f000f000f000f000f000f000f000f000f908116911601601081901c01602081901c01604081901c01608081901c60ff90811691160190565b6000613fff841115613d9857600080fd5b64ffffffffff831115613daa57600080fd5b6008821115613db857600080fd5b5067ffff000000000000603084901b1665ffffffffff00600884901b161760ff8216179392505050565b6000808260400151118015613dfc57506040820151600810155b613e0557600080fd5b6040820151600210613e1c57506020810151610799565b6000613e2e6001846040015103613e4f565b6020840151909150610795906276a70090613e4990846126cd565b9061310c565b60008160011415613e6457506276a700610799565b8160021415613e77575062ed4e00610799565b8160031415613e8b57506301da9c00610799565b8160041415613e9f57506303b53800610799565b8160051415613eb357506309450c00610799565b8160061415613ec7575063128a1800610799565b8160071415613edb57506325143000610799565b60405162461bcd60e51b81526004016102129061457c565b604051806101200160405280600061ffff16815260200160008152602001600081526020016000815260200160008152602001600081526020016000815260200160008152602001600081525090565b6040805160a08101825260008082526020820181905291810182905260608101829052608081019190915290565b6040805160a0810182526000808252602082018190529181018290529060608201908152602001600081525090565b6040518060800160405280606081526020016060815260200160008152602001600081525090565b6040518060c0016040528060008152602001600081526020016000815260200160008152602001600081526020016000600381111561400357fe5b905290565b60405180602001604052806001906020820280368337509192915050565b80356001600160a01b038116811461079957600080fd5b80516001600160701b03198116811461079957600080fd5b80516004811061079957600080fd5b8051610799816147fa565b805160ff8116811461079957600080fd5b600060208284031215614091578081fd5b610e9a82614026565b6000806000606084860312156140ae578182fd5b6140b784614026565b925060208401356140c7816147fa565b929592945050506040919091013590565b600080600080600060a086880312156140ef578081fd5b6140f886614026565b94506020860135614108816147fa565b935060408601356001600160601b0381168114614123578182fd5b92506060860135614133816147e9565b91506080860135614143816147e9565b809150509295509295909350565b600080600060608486031215614165578283fd5b83519250602080850151614178816147e9565b8093505060408086015167ffffffffffffffff80821115614197578485fd5b818801915088601f8301126141aa578485fd5b8151818111156141b657fe5b6141c385868302016147c5565b8181528581019084870160c0808502870189018e10156141e157898afd5b8996505b848710156142615780828f0312156141fb57898afd5b8751818101818110888211171561420e57fe5b808a525082518152898301518a8201528883015189820152606083015160608201526080830151608082015261424660a08401614055565b60a082015284526001969096019592880192908101906141e5565b5050809750505050505050509250925092565b600060a08284031215614285578081fd5b60405160a0810181811067ffffffffffffffff821117156142a257fe5b604052825164ffffffffff811681146142b9578283fd5b815260208301516001600160f81b0319811681146142d5578283fd5b60208201526142e66040840161406f565b60408201526142f760608401614064565b60608201526143086080840161403d565b60808201529392505050565b600060208284031215614325578081fd5b8135610e9a816147fa565b600080600060608486031215614344578081fd5b833561434f816147fa565b925060208401356001600160581b038116811461436a578182fd5b9150604084013561437a816147e9565b809150509250925092565b600060208284031215614396578081fd5b5051919050565b6001600160a01b0391909116815260200190565b6001600160a01b03948516815292841660208401529083166040830152909116606082015260800190565b6001600160a01b03929092168252805164ffffffffff166020808401919091528101516001600160f81b03191660408084019190915281015160ff1660608084019190915281015161ffff1660808084019190915201516001600160701b03191660a082015260c00190565b6001600160a01b0396909616865261ffff94909416602086015260408501929092526060840152608083015260a082015260c00190565b6001600160a01b0393841681526020810192909252909116604082015260600190565b6001600160a01b03948516815260208101939093529216604082015261ffff909116606082015260800190565b6001600160a01b0394909416845260208401929092526040830152606082015260800190565b901515815260200190565b90815260200190565b9182521515602082015260400190565b602080825260049082015263135a5b9d60e21b604082015260600190565b6020808252600b908201526a4554482042616c616e636560a81b604082015260600190565b60208082526006908201526552656465656d60d01b604082015260600190565b6020808252600d908201526c092dcecc2d8d2c840d2dcc8caf609b1b604082015260600190565b60208082526012908201527143616e6e6f7420686176652061737365747360701b604082015260600190565b602080825260149082015273496e73756666696369656e742062616c616e636560601b604082015260600190565b6020808252601390820152724163636f756e74206d75737420736574746c6560681b604082015260600190565b6020808252600f908201526e4f766572206d61782061737365747360881b604082015260600190565b6020808252601390820152722ab730baba3437b934bd32b21031b0b63632b960691b604082015260600190565b6020808252600e908201526d1499595b9d1c985b9d0818d85b1b60921b604082015260600190565b602080825260149082015273043616e6e6f74206368616e6765206269746d61760641b604082015260600190565b60208082526008908201526709ccace4086c2e6d60c31b604082015260600190565b60208082526010908201526f10d85b9b9bdd081a185d99481919589d60821b604082015260600190565b6020808252600a90820152692732b390372a37b5b2b760b11b604082015260600190565b602080825260139082015272125b9d985b1a590818dd5c9c995b98de481a59606a1b604082015260600190565b602080825260139082015272496e73756666696369656e7420746f6b656e7360681b604082015260600190565b61ffff9490941684526020840192909252151560408301521515606082015260800190565b60405181810167ffffffffffffffff811182821017156147e157fe5b604052919050565b80151581146147f757600080fd5b50565b61ffff811681146147f757600080fdfe536166654d6174683a206d756c7469706c69636174696f6e206f766572666c6f77a2646970667358221220271154b0ea9b5da8412e1cd79f555c00cc48c95f7744683297d01ae4e278ae0364736f6c63430007060033","bytecodeSha1":"0b3ad0352b53396535dbe7818435c4c3ae0d357a","compiler":{"evm_version":"istanbul","optimizer":{"enabled":true,"runs":200},"version":"0.7.6+commit.7338295f"},"contractName":"AccountAction","deployedBytecode":"6080604052600436106100915760003560e01c80638da5cb5b116100595780638da5cb5b146101445780639c97945014610159578063b8a694551461017b578063c4c96dae1461019b578063f667f897146101c057610091565b806302f332e81461009657806324a3d622146100cc5780632890fb65146100ee5780636689064314610101578063824633671461012f575b600080fd5b3480156100a257600080fd5b506100b66100b1366004614330565b6101ed565b6040516100c39190614500565b60405180910390f35b3480156100d857600080fd5b506100e161034b565b6040516100c3919061439d565b6100b66100fc36600461409a565b61035a565b34801561010d57600080fd5b5061012161011c3660046140d8565b610402565b6040516100c3929190614509565b34801561013b57600080fd5b506100e1610623565b34801561015057600080fd5b506100e1610632565b34801561016557600080fd5b50610179610174366004614314565b610649565b005b34801561018757600080fd5b506100b661019636600461409a565b610696565b3480156101a757600080fd5b506101b0610710565b6040516100c394939291906143b1565b3480156101cc57600080fd5b506101e06101db366004614080565b61076a565b6040516100c391906144f5565b60006002600a54141561021b5760405162461bcd60e51b815260040161021290614680565b60405180910390fd5b6002600a55600061022b3361079e565b509050610236613ef3565b61024281338885610863565b846001600160581b03168160200151121561026f5760405162461bcd60e51b8152600401610212906145cf565b610281856001600160581b0316610909565b608082015260006102948233858861091d565b90506102a08333610b9e565b60208301516001600160f81b0319161561031c57604051636ccc642f60e01b815273__$841fddfe32830bb6dbc3a02d7f16c53722$__90636ccc642f906102eb90339060040161439d565b60006040518083038186803b15801561030357600080fd5b505af4158015610317573d6000803e3d6000fd5b505050505b600081131561032a57600080fd5b61033b61033682610909565b610ca2565b6001600a55979650505050505050565b6002546001600160a01b031681565b60006002600a54141561037f5760405162461bcd60e51b815260040161021290614680565b6002600a553330141561039157600080fd5b61039a84610cb5565b60006103a585610d04565b90506103af613ef3565b6103bb81878785610863565b60006103d2336103ca87610da5565b849190610dbb565b9050600081136103e157600080fd5b6103ee828885600061091d565b506103f98388610b9e565b61033b81610ca2565b6000806002600a5414156104285760405162461bcd60e51b815260040161021290614680565b6002600a55336001600160a01b038816148061044357503330145b61045f5760405162461bcd60e51b815260040161021290614653565b6001600160601b03851660006104748961079e565b50905061047f613ef3565b61048b818b8b85610863565b82816040015112156104af5760405162461bcd60e51b815260040161021290614773565b6104b883610909565b60c082015260405162d57c9960e51b8152600090819073__$43fd92ea4ea9b72ca0014644dbfd757564$__90631aaf9320906104fe908e9089908e908e906004016147a0565b60006040518083038186803b15801561051657600080fd5b505af415801561052a573d6000803e3d6000fd5b505050506040513d6000823e601f3d908101601f191682016040526105529190810190614151565b6060860183905291935090915061056e9050838d86600061091d565b50805115610584576105818c8583610ea1565b93505b61058e848d610b9e565b60208401516001600160f81b0319161561060a57604051636ccc642f60e01b815273__$841fddfe32830bb6dbc3a02d7f16c53722$__90636ccc642f906105d9908f9060040161439d565b60006040518083038186803b1580156105f157600080fd5b505af4158015610605573d6000803e3d6000fd5b505050505b516001600a55909b9015159a5098505050505050505050565b6001546001600160a01b031681565b60005464010000000090046001600160a01b031681565b3330141561065657600080fd5b60005461ffff908116908216111561066d57600080fd5b3360006106798261079e565b509050610687818442610f22565b6106918183610b9e565b505050565b60006002600a5414156106bb5760405162461bcd60e51b815260040161021290614680565b6002600a55333014156106cd57600080fd5b6106d684610cb5565b60006106e185610d04565b90506106eb613ef3565b6106f781878785610863565b60006103d23361070687610da5565b849190600161101a565b73__$841fddfe32830bb6dbc3a02d7f16c53722$__73__$b21a4dc043b77aa57922ad9143a3cb040e$__73__$f6541b0d362a0c7d99a2a29cd3d373d61b$__73__$43fd92ea4ea9b72ca0014644dbfd757564$__90919293565b600061077582610cb5565b6000806107818461079e565b915091508015610795576107958285610b9e565b9150505b919050565b6107a6613f43565b6000806107b284610d04565b90506107bd816110f5565b15610857576040516337b5fc2160e11b815273__$f6541b0d362a0c7d99a2a29cd3d373d61b$__90636f6bf842906107fb90879085906004016143dc565b60a06040518083038186803b15801561081357600080fd5b505af4158015610827573d6000803e3d6000fd5b505050506040513d601f19601f8201168201806040525081019061084b9190614274565b6001925092505061085e565b9150600090505b915091565b8161ffff16600010801561087d5750613fff61ffff831611155b61088657600080fd5b61ffff8216808552610899908290611149565b156108c6576108ac838361ffff166111d3565b61010088015260e0870152604086015260208501526108e4565b6000602085018190526040850181905260e085018190526101008501525b50506000606083018190526080830181905260a0830181905260c09092019190915250565b60006109176000198361127f565b92915050565b60008060008660a0015112156109765760006109588760a001516109528960c001518a604001516112cd90919063ffffffff16565b906112cd565b12156109765760405162461bcd60e51b815260040161021290614722565b6000866080015112156109c65760006109a8876080015161095289606001518a602001516112cd90919063ffffffff16565b12156109c65760405162461bcd60e51b8152600401610212906146d6565b6109d18686856112e3565b6080880181905260608801519193506000916109ec916112cd565b90508015610a59576020870151610a0390826112cd565b602088015286516040516001935061ffff909116906001600160a01b038816907f5441e4a5fac93a951d782e6f1cdb82e95c8fc58561a013953d17e395c5e69b4b90610a50908590614500565b60405180910390a35b60a0870151151580610a6e575060c087015115155b15610b14576000610a988860c001516109528a60a001518b604001516112cd90919063ffffffff16565b9050610aad8888610aa884610ca2565b611399565b506040880181905260c088015115610b0e57876000015161ffff16876001600160a01b03167f412bc13d202a2ea5119e55fec9c5e420dddb18faf186373ad9795ad4f4545aa98a60c00151604051610b059190614500565b60405180910390a35b60019250505b8115610b4157610b4186886000015161ffff1689602001518a604001518b60e001518c6101000151611486565b86516020880151610b6e9161ffff1690151580610b615750604089015115155b879190600160fe1b6115ca565b600087602001511215610b9457602085018051600160f91b176001600160f81b03191690525b5050949350505050565b6000610ba86117ca565b6001600160a01b03831660008181526020838152604080832088518154938a0151838b015160608c015160808d015160701c600160481b027affffffffffffffffffffffffffffffffffff0000000000000000001961ffff909216600160381b0268ffff000000000000001960ff94909416600160301b0266ff0000000000001960f89690961c650100000000000265ff00000000001964ffffffffff90981664ffffffffff19909b169a909a1796909616989098179390931693909317169490941716929092179091555192935090917f6bd4b121bca854a191536a2ca891155c42ee2fb23f307fb34e8bc65cfcb5412e9190a2505050565b600080821215610cb157600080fd5b5090565b6001600160a01b038116610cc857600080fd5b6001600160a01b038116301415610cde57600080fd5b6000610ce9826117d7565b5050505061ffff16905080600014610d0057600080fd5b5050565b610d0c613f43565b6000610d166117ca565b6001600160a01b039390931660009081526020938452604090819020815160a081018352905464ffffffffff8116825265010000000000810460f81b6001600160f81b03191695820195909552600160301b850460ff1691810191909152600160381b840461ffff166060820152600160481b90930460701b6001600160701b03191660808401525090919050565b60006001600160ff1b03821115610cb157600080fd5b600081610dca57506000610e9a565b60008213610dd757600080fd5b6000610dea856000015161ffff16611840565b9050600381606001516005811115610dfe57fe5b1415610e2857348314610e235760405162461bcd60e51b815260040161021290614537565b610e3f565b8451610e3c908290869061ffff1686611853565b92505b6000610e52866000015161ffff166118fb565b90506000610e6f8760000151610e6787610ca2565b84919061190e565b90506000610e7d8383611a05565b6060890151909150610e8f90826112cd565b606089015293505050505b9392505050565b610ea9613f43565b610eb2836110f5565b15610ecf5760405162461bcd60e51b8152600401610212906145fd565b610ed883611a3b565b15610eed57610ee8848484611a48565b610f1a565b6000610eff8585604001518551611b10565b9050610f0b8184611ba3565b610f188486836000611c01565b505b509092915050565b610f2b83611a3b565b15610f485760405162461bcd60e51b8152600401610212906146a8565b8161ffff166000108015610f625750613fff61ffff831611155b610f7e5760405162461bcd60e51b815260040161021290614746565b604083015160ff1615610fa35760405162461bcd60e51b8152600401610212906145a3565b60208301516001600160f81b03191615610fcf5760405162461bcd60e51b8152600401610212906146f8565b610fe48361ffff84166000600160fe1b6115ca565b61ffff821660608401526000610ff982611ce3565b905064ffffffffff811061100c57600080fd5b64ffffffffff169092525050565b600082611029575060006110ed565b6000831361103657600080fd5b6000611049866000015161ffff166118fb565b905060058160600151600581111561105d57fe5b14156110765785516110739061ffff1685611d01565b93505b8060200151806110835750825b156110ca57855160009061109f908390889061ffff1688611853565b90506110ab8282611a05565b60608801519093506110bd90846112cd565b6060880152506110ed9050565b6110d48185611a05565b60808701519092506110e690836112cd565b6080870152505b949350505050565b60004261110183611a3b565b156111225761110f81611ce3565b835164ffffffffff161091506107999050565b825164ffffffffff16158015906111415750825164ffffffffff168110155b915050610799565b6000811580159061115c5750613fff8211155b61116557600080fd5b6080830151606084015161ffff16831415611184576001915050610917565b6001600160701b03198116156111c95760f081901c613fff16838114156111b65750600160fe1b908116149050610917565b5060101b6001600160801b031916611184565b5060009392505050565b60008060008060006111e3611d88565b6001600160a01b0388166000908152602082815260408083208a84529091529020805469ffffffffffffffffffff81169650600160501b900463ffffffff169450909150831561124f57805461124890600160701b900466ffffffffffffff16611d95565b9250611264565b8054600160701b900466ffffffffffffff1692505b54600160a81b9004600a90810b900b97939650919450925050565b8181026000198314156112af578115806112a157508282828161129e57fe5b05145b6112aa57600080fd5b610917565b8215806112c45750818382816112c157fe5b05145b61091757600080fd5b8181018281121560008312151461091757600080fd5b60008060006112f9866000015161ffff166118fb565b90506000611314876080015183611da390919063ffffffff16565b90508061132957600080935093505050611391565b8480156113365750600081125b1561136b5786516113589061ffff168761134f84610909565b85929190611ddb565b93506113648282611a05565b925061138e565b865161137f908390889061ffff1684611853565b935061138b8285611a05565b92505b50505b935093915050565b8251600090429082906113af9061ffff16611e80565b905060006113c2828860c0015185611ea6565b90506113d087838388611f89565b935060006113dd836120b6565b90506001600160a01b0381161561146b57806001600160a01b0316631d684dd2888a600001516114108c60400151610ca2565b8a8d60c001518b6040518763ffffffff1660e01b815260040161143896959493929190614448565b600060405180830381600087803b15801561145257600080fd5b505af1158015611466573d6000803e3d6000fd5b505050505b841561147b5761147b8786612128565b505050509392505050565b6000611490611d88565b6001600160a01b0388166000908152602082815260408083208a845290915290209091506001600160571b031986128015906114d357506001600160571b038613155b6114dc57600080fd5b600085121580156114f7575069ffffffffffffffffffff8513155b61150057600080fd5b836115405766ffffffffffffff83111561151957600080fd5b805466ffffffffffffff60701b1916600160701b66ffffffffffffff85160217815561155a565b8054600160501b900463ffffffff16841461155a57600080fd5b8054600a9690960b6001600160581b0316600160a81b026001600160a81b0369ffffffffffffffffffff90961669ffffffffffffffffffff1963ffffffff909616600160501b0263ffffffff60501b19909816979097179490941695909517939093169190911790925550505050565b8260001080156115dc5750613fff8311155b6115e557600080fd5b8180156115f9575082846060015161ffff16145b15611603576117c4565b6080840151600090815b6001600160701b031982161561177e5760f082901c613fff1686811480156116325750855b1561166a57506080870180516001600160f01b0319861660109093029290921c919091176001600160701b0319169052506117c49050565b8681148015611677575085155b156116cc576001600160f01b03198516199290921691600360fe1b83166116aa576010836001600160701b031916901b92505b506001600160701b031991821660109091021c919091171660808501526117c4565b86811180156116d85750855b15611732576080888101516001600160f01b031960f08a901b88178116601086021c9690961795911b161561170c57600080fd5b506001600160701b03199182166001919091016010021c919091171660808501526117c4565b868111801561173f575085155b1561174d57505050506117c4565b506001600160f01b0319821660108281029190911c93909317929190911b6001600160801b0319169060010161160d565b8461178b575050506117c4565b6009811061179857600080fd5b6001600160f01b031960f087901b85171660109091021c919091176001600160701b0319166080860152505b50505050565b6000806109176001612147565b6000806000806000806117e8612160565b6001600160a01b039097166000908152602097909752505060409094205461ffff81169563ffffffff62010000830481169650600160301b830416945060ff600160501b8304169350600160581b90910460d01b9150565b611848613f71565b61091782600161216d565b8060058560600151600581111561186657fe5b141561188b57600061187784611840565b905061188781600001518461221b565b9250505b60008213156118b75760006118a18686856122aa565b90508560200151156118b1578091505b506110ed565b6003856060015160058111156118c957fe5b14156118e6576118e1846118dc84610909565b61239d565b6110ed565b84516110ed90856118f685610909565b6123d3565b611903613f71565b61091782600061216d565b60008060058560600151600581111561192357fe5b14611935576370a0823160e01b61193e565b630ed1279f60e11b5b905060006119518660000151308461244a565b905060058660600151600581111561196557fe5b141561198c57600061197a8661ffff16611840565b9050611986818661255c565b506119d5565b60018660600151600581111561199e57fe5b14156119b3576119ae86856125cf565b6119d5565b6002866060015160058111156119c557fe5b1415610091576119ae8685612671565b60006119e68760000151308561244a565b90506119fa6119f582846126cd565b610da5565b979650505050505050565b60006305f5e10083604001511415611a1e575080610917565b6040830151610e9a90611a35846305f5e10061127f565b9061272a565b6060015161ffff16151590565b611a5182611a3b565b611a5a57600080fd5b606082015161ffff1660005b8251811015611b09576000838281518110611a7d57fe5b60200260200101519050806060015160001415611a9a5750611b01565b80518314611aa757600080fd5b6040810151600114611ab857600080fd5b6000611ada87858460200151896000015164ffffffffff16866060015161275b565b90506000811215611afe57602086018051600160f81b176001600160f81b03191690525b50505b600101611a66565b5050505050565b611b18613fa0565b611b20613fa0565b60ff8416611b2f579050610e9a565b611b3985856128c5565b815260ff841660608201528267ffffffffffffffff81118015611b5b57600080fd5b50604051908082528060200260200182016040528015611b9557816020015b611b82613fc8565b815260200190600190039081611b7a5790505b506020820152949350505050565b60005b8151811015610691576000828281518110611bbd57fe5b60200260200101519050806060015160001415611bda5750611bf9565b611bf78482600001518360200151846040015185606001516128ee565b505b600101611ba6565b6000808080611c1086886129eb565b64ffffffffff81168c5292965090945092509050611c2d886110f5565b15611c3757600080fd5b60ff8216604089015284611c5657600760ff83161115611c5657600080fd5b8315611c7957602088018051600160f81b176001600160f81b0319169052611c88565b602088018051607f60f91b1690525b611c958860800151612c2a565b6001600160701b031916608089015260005b8315611cd85760f084901c818114611cca57611cca8a826001600160ff1b6115ca565b60109490941b939050611ca7565b505050505050505050565b600062015180821015611cf557600080fd5b50620151808106900390565b600081611d1057506000610917565b60008213611d1d57600080fd5b6000611d2884611840565b90506000611d398260000151612ca5565b9050600281056b033b2e3c9fd0803ce80000006001600160ff1b0382900305851315611d6457600080fd5b81816b033b2e3c9fd0803ce800000087020181611d7d57fe5b059695505050505050565b6000806109176006612147565b600881901c60ff9091161b90565b60006305f5e10083604001511415611dbc575080610917565b610e9a6305f5e100611a3585604001518561127f90919063ffffffff16565b600080600286606001516005811115611df057fe5b1415611e0857611e01868585612d30565b9050611e65565b6000611e1386611840565b9050600587606001516005811115611e2757fe5b1415611e3f57611e38818686612ded565b9150611e63565b600187606001516005811115611e5157fe5b141561009157611e3887828787612e9e565b505b611e76611e7182610da5565b610909565b9695505050505050565b600080611e8b612f9c565b6000938452602052505060409020546001600160a01b031690565b6000806000611eb58685612fa9565b50915091506000611ec461303f565b6001600160a01b0388166000908152602082905260408120919250611ee985896112cd565b905080600013158015611f0257506001600160601b0381105b611f0b57600080fd5b81546bffffffffffffffffffffffff19166001600160601b038216176fffffffffffffffffffffffffffffffff60601b1916600160601b6001600160801b0386160217825563ffffffff8710611f6057600080fd5b50805463ffffffff8716600160e01b026001600160e01b03909116179055509150509392505050565b60e08401516000901561204a5773__$b21a4dc043b77aa57922ad9143a3cb040e$__63e0c01a7285611fbe8860400151610ca2565b8860e001518961010001516040518563ffffffff1660e01b8152600401611fe894939291906144cf565b60206040518083038186803b15801561200057600080fd5b505af4158015612014573d6000803e3d6000fd5b505050506040513d601f19601f820116820180604052508101906120389190614385565b600060e0870181905261010087015290505b61208c61208586610100015161207f670de0b6b3a7640000612079886120738c60400151610ca2565b9061304c565b906130a5565b906126cd565b829061310c565b90506120a4670de0b6b3a7640000612079848661304c565b85610100018181525050949350505050565b6000806120c1612160565b6001600160a01b0384166000908152602082905260409020805491925090600160f81b900460ff161561211d576120f6613166565b6001600160a01b038086166000908152602092909252604090912054169250610799915050565b600092505050610799565b610d0073cfeaead4947f0705a14ec42ac3d44129e1ef3ed583836123d3565b6000620f424082601a81111561215957fe5b0192915050565b6000806109176002612147565b612175613f71565b600061217f613173565b6000858152602082815260408083208715158452825291829020825160a08101845281546001600160a01b038116825260ff600160a01b82048116151594830194909452600160b01b81048416600a0a9482019490945293945092916060830191600160a81b9091041660058111156121f457fe5b81529154600160b81b900468ffffffffffffffffff16602090920191909152949350505050565b60008161222a57506000610917565b600061223584612ca5565b9050600061224284613180565b9050816b019d971e4fe8401e74000001600160ff1b038161225f57fe5b0581131561226c57600080fd5b6b033b2e3c9fd0803ce80000006b019d971e4fe8401e740000008383020105600085136122a15761229c81610909565b611e76565b95945050505050565b60008080806005876060015160058111156122c157fe5b146122d3576370a0823160e01b6122dc565b630ed1279f60e11b5b90508660200151156122f85786516122f590308361244a565b92505b86516123059087876131a1565b866020015180612319575060008760800151115b1561232e57865161232b90308361244a565b91505b60808701511561236957600061234c8861234785610da5565b611a05565b905061235b8860800151610da5565b81131561236757600080fd5b505b86602001511561238a576123806119f583856126cd565b9350505050610e9a565b61238085610da5565b5050509392505050565b6040516001600160a01b0383169082156108fc029083906000818181858888f19350505050158015610691573d6000803e3d6000fd5b826001600160a01b031663a9059cbb83836040518363ffffffff1660e01b815260040180836001600160a01b0316815260200182815260200192505050600060405180830381600087803b15801561242a57600080fd5b505af115801561243e573d6000803e3d6000fd5b505050506106916131f9565b604080516001600160a01b0384811660248084019190915283518084039091018152604490920183526020820180516001600160e01b03166001600160e01b0319861617815292518251600094859485948a16939092909182918083835b602083106124c75780518252601f1990920191602091820191016124a8565b6001836020036101000a038019825116818451168082178552505050505050905001915050600060405180830381855afa9150503d8060008114612527576040519150601f19603f3d011682016040523d82523d6000602084013e61252c565b606091505b50915091508161253b57600080fd5b80806020019051602081101561255057600080fd5b50519695505050505050565b612564613266565b54825160405163e8eda9df60e01b81526001600160a01b039092169163e8eda9df9161259991859030906000906004016144a2565b600060405180830381600087803b1580156125b357600080fd5b505af11580156125c7573d6000803e3d6000fd5b505050505050565b815160405163140e25ad60e31b81526000916001600160a01b03169063a0712d68906125ff908590600401614500565b602060405180830381600087803b15801561261957600080fd5b505af115801561262d573d6000803e3d6000fd5b505050506040513d601f19601f820116820180604052508101906126519190614385565b905080156106915760405162461bcd60e51b815260040161021290614519565b81600001516001600160a01b0316631249c58b826040518263ffffffff1660e01b81526004016000604051808303818588803b1580156126b057600080fd5b505af11580156126c4573d6000803e3d6000fd5b50505050505050565b600082821115612724576040805162461bcd60e51b815260206004820152601e60248201527f536166654d6174683a207375627472616374696f6e206f766572666c6f770000604482015290519081900360640190fd5b50900390565b6000816000191480156127405750600160ff1b83145b1561274a57600080fd5b81838161275357fe5b059392505050565b6000806127688787613273565b905060006127746132a8565b6001600160a01b0389166000908152602082815260408083208b845282528083208a84529091528120919250806127ab888a6132b5565b91509150806127b957600080fd5b6127c385836133c0565b156128525782546000906127df908990600f90810b900b6112cd565b905060016001607f1b03198112801590612800575060016001607f1b038113155b61280957600080fd5b83546001600160801b0319166001600160801b03600f83900b161784558061283a57612837868460006133f0565b95505b6128458c8c8861343b565b95506122a1945050505050565b86156128b65760016001607f1b03198712801590612877575060016001607f1b038713155b61288057600080fd5b82546001600160801b0319166001600160801b03600f89900b161783556128a9858360016133f0565b94506128b68b8b8761343b565b50949998505050505050505050565b606060006128d38484613495565b905060018151116128e5579050610917565b610e9a816135b7565b84516128fd9085858585613770565b1561290757611b09565b604085015115612934576000612924866020015186868686613770565b905080156129325750611b09565b505b61293d82613881565b1561295057600081121561295057600080fd5b6001600160571b0319811280159061296f57506001600160571b038113155b61297857600080fd5b8460200151518560400151141561299c576129968560200151613897565b60208601525b600085602001518660400151815181106129b257fe5b6020908102919091018101519586528501939093526040808501929092526060840152600060a090930192909252500180516001019052565b6000808080808080805b895151811015612a7c5760008a600001518281518110612a1157fe5b60200260200101519050600380811115612a2757fe5b8160a001516003811115612a3757fe5b1415612a4257600080fd5b60028160a001516003811115612a5457fe5b14158015612a6457506060810151155b15612a7357612a738b83613948565b506001016129f5565b5060005b895151811015612b1f5760008a600001518281518110612a9c57fe5b6020026020010151905060026003811115612ab357fe5b8160a001516003811115612ac357fe5b1415612ad757608081015160009055612b16565b60018160a001516003811115612ae957fe5b1415612b0257608081015180612aff8382613a97565b50505b612b0e81868686613bbc565b919650945092505b50600101612a80565b5060608901516000612b2f613c1f565b6001600160a01b038b1660009081526020829052604081209192505b8c6020015151811015612bf95760008d602001518281518110612b6a57fe5b60200260200101519050806060015160001415612b875750612bf1565b60028160a001516003811115612b9957fe5b14158015612bb7575060038160a001516003811115612bb457fe5b14155b612bc057600080fd5b612bcc81898989613bbc565b91995097509550612be981848760108110612be357fe5b01613a97565b600185019450505b600101612b4b565b5060108311158015612c10575064ffffffffff8411155b612c1957600080fd5b50939a929950975095509350505050565b6000807f7fff7fff7fff7fff7fff7fff7fff7fff7fff00000000000000000000000000008316815b6001600160701b0319821615612c9c57600160fe1b8281161415612c86576001600160f01b03198216811c92909217916010015b6010826001600160701b031916901b9150612c52565b50909392505050565b6000610917612cb2613266565b5460405163d15e005360e01b81526001600160a01b039091169063d15e005390612ce090869060040161439d565b60206040518083038186803b158015612cf857600080fd5b505afa158015612d0c573d6000803e3d6000fd5b505050506040513d601f19601f820116820180604052508101906119f59190614385565b825160405163db006a7560e01b8152600091479183916001600160a01b03169063db006a7590612d64908790600401614500565b602060405180830381600087803b158015612d7e57600080fd5b505af1158015612d92573d6000803e3d6000fd5b505050506040513d601f19601f82011682018060405250810190612db69190614385565b90508015612dd65760405162461bcd60e51b81526004016102129061455c565b47612de181846126cd565b9350612393868561239d565b6000612e086103368560000151612e0385610da5565b61221b565b9050612e12613266565b548451604051631a4ca37b60e21b81526001600160a01b03909216916369328dec91612e44918590889060040161447f565b602060405180830381600087803b158015612e5e57600080fd5b505af1158015612e72573d6000803e3d6000fd5b505050506040513d601f19601f82011682018060405250810190612e969190614385565b509392505050565b82516000908190612eb790306370a0823160e01b61244a565b9050600086600001516001600160a01b031663db006a75856040518263ffffffff1660e01b8152600401612eeb9190614500565b602060405180830381600087803b158015612f0557600080fd5b505af1158015612f19573d6000803e3d6000fd5b505050506040513d601f19601f82011682018060405250810190612f3d9190614385565b90508015612f5d5760405162461bcd60e51b81526004016102129061455c565b8551600090612f7490306370a0823160e01b61244a565b9050612f8081846126cd565b9350612f91876000015187866123d3565b505050949350505050565b6000806109176003612147565b6000806000612fb785613c2c565b919450925090508084118015612fcd5750600081115b8015612fd95750600083115b15613038576000612fe9866117d7565b505050915050600061301461300b6305f5e1008461304c90919063ffffffff16565b84880387613c88565b9050613020848261310c565b93506001600160801b03841061303557600080fd5b50505b9250925092565b6000806109176011612147565b60008261305b57506000610917565b8282028284828161306857fe5b0414610e9a5760405162461bcd60e51b815260040180806020018281038252602181526020018061480b6021913960400191505060405180910390fd5b60008082116130fb576040805162461bcd60e51b815260206004820152601a60248201527f536166654d6174683a206469766973696f6e206279207a65726f000000000000604482015290519081900360640190fd5b81838161310457fe5b049392505050565b600082820183811015610e9a576040805162461bcd60e51b815260206004820152601b60248201527f536166654d6174683a206164646974696f6e206f766572666c6f770000000000604482015290519081900360640190fd5b6000806109176012612147565b6000806109176007612147565b60008082121561319a5761319382610909565b9050610799565b5080610799565b604080516323b872dd60e01b81526001600160a01b038481166004830152306024830152604482018490529151918516916323b872dd9160648082019260009290919082900301818387803b15801561242a57600080fd5b6000613203614008565b3d8015613217576020811461322057600080fd5b6001925061322b565b60206000833e815192505b5081610d00576040805162461bcd60e51b8152602060048201526005602482015264045524332360dc1b604482015290519081900360640190fd5b6000806109176013612147565b60008061327e613caa565b6001600160a01b038516600090815260209182526040808220868352909252205491505092915050565b600080610917600c612147565b60008060006132c385611ce3565b9050620151808406156132dd5760008092509250506133b9565b8381106132f15760008092509250506133b9565b6201518081850304605a811161330e579250600191506133b99050565b610168811161334d576000620151806207e900840604820160591901905060068104605a016006828161333d57fe5b06600014945094505050506133b9565b610870811161337d5760006201518062278d00840604820161016719019050601e8104608701601e828161333d57fe5b611de281116133ad576000620151806276a700840604820161086f19019050605a810460c301605a828161333d57fe5b61010060009350935050505b9250929050565b6000600182101580156133d557506101008211155b6133de57600080fd5b50600019011b600160ff1b9081161490565b60006001831015801561340557506101008311155b61340e57600080fd5b81156134275750600160ff1b60001983011c8317610e9a565b50600160ff1b60001983011c198316610e9a565b601461344682613cb7565b11156134645760405162461bcd60e51b81526004016102129061462a565b600061346e613caa565b6001600160a01b039094166000908152602094855260408082209482529390945250912055565b606060108260ff1611156134a857600080fd5b60006134b2613c1f565b6001600160a01b038516600090815260208290526040812091925060ff851667ffffffffffffffff811180156134e757600080fd5b5060405190808252806020026020018201604052801561352157816020015b61350e613fc8565b8152602001906001900390816135065790505b50905060005b8560ff168110156135ad57600083826010811061354057fe5b019050600083838151811061355157fe5b602090810291909101810151835461ffff8116825264ffffffffff620100008204169282019290925260ff600160381b8304166040820152600160401b909104600a90810b900b60608201526080019190915250600101613527565b5095945050505050565b805160008167ffffffffffffffff811180156135d257600080fd5b506040519080825280602002602001820160405280156135fc578160200160208202803683370190505b50905060005b8281101561365957600084828151811061361857fe5b60200260200101519050613639816000015182602001518360400151613d87565b83838151811061364557fe5b602090810291909101015250600101613602565b5060015b828110156117c457805b60008111801561369f575082818151811061367e57fe5b602002602001015183600183038151811061369557fe5b6020026020010151115b15613767578281815181106136b057fe5b60200260200101518360018303815181106136c757fe5b60200260200101518460018403815181106136de57fe5b602002602001018584815181106136f157fe5b602002602001018281525082815250505084818151811061370e57fe5b602002602001015185600183038151811061372557fe5b602002602001015186600184038151811061373c57fe5b6020026020010187848151811061374f57fe5b60209081029190910101919091525260001901613667565b5060010161365d565b6000805b865181101561387457600087828151811061378b57fe5b602002602001015190508481604001511415806137a9575080518714155b806137b8575085816020015114155b156137c3575061386c565b60028160a0015160038111156137d557fe5b141580156137f3575060038160a0015160038111156137f057fe5b14155b6137fc57600080fd5b606081015160009061380e90866112cd565b905061381986613881565b1561382c57600081121561382c57600080fd5b6001600160571b0319811280159061384b57506001600160571b038113155b61385457600080fd5b6060820152600160a090910181905291506122a19050565b600101613774565b5060009695505050505050565b6000600282108015906109175750506008101590565b6060600082516000146138ae5782516002026138b1565b60015b905060008167ffffffffffffffff811180156138cc57600080fd5b5060405190808252806020026020018201604052801561390657816020015b6138f3613fc8565b8152602001906001900390816138eb5790505b50905060005b8451811015612e965784818151811061392157fe5b602002602001015182828151811061393557fe5b602090810291909101015260010161390c565b815151811061395657600080fd5b600082606001511161396757600080fd5b60008260000151828151811061397957fe5b602002602001015190506002600381111561399057fe5b8160a0015160038111156139a057fe5b141580156139be575060038160a0015160038111156139bb57fe5b14155b6139c757600080fd5b606083018051600019019052600080805b855151811015613a3a576000866000015182815181106139f457fe5b60200260200101519050828160800151118015613a21575060028160a001516003811115613a1e57fe5b14155b15613a3157806080015192508193505b506001016139d8565b5081841415613a53575050600260a09190910152610d00565b600085600001518381518110613a6557fe5b602090810291909101015160808581018051918301805190915252600160a09182015260029401939093525050505050565b815115801590613aaa57508151613fff10155b613ab357600080fd5b81602001516000108015613ad05750602082015164ffffffffff10155b613ad957600080fd5b81604001516000108015613af257506040820151600810155b613afb57600080fd5b60608201516001600160571b031913801590613b22575060608201516001600160571b0312155b613b2b57600080fd5b8151815460208401516040850151606090950151600a0b6001600160581b0316600160401b0272ffffffffffffffffffffff00000000000000001960ff909616600160381b0267ff000000000000001964ffffffffff909316620100000266ffffffffff00001961ffff90961661ffff19909516949094179490941692909217169190911792909216919091179055565b600080600080613bcb88613de2565b9050841580613bd957508085115b15613be2578094505b8680613bf2575060008860600151125b965061ffff861615613c0357600080fd5b50509451939560109390931c60f09490941b9390931793509150565b600080610917600d612147565b600080600080613c3a61303f565b6001600160a01b0395909516600090815260209590955250506040909220546001600160601b03811693600160601b82046001600160801b03169350600160e01b90910463ffffffff169150565b60006110ed826120796301da9c00818861207389670de0b6b3a764000061304c565b600080610917600b612147565b600181901c7f5555555555555555555555555555555555555555555555555555555555555555908116911601600281901c7f3333333333333333333333333333333333333333333333333333333333333333908116911601600481901c7f07070707070707070707070707070707070707070707070707070707070707079190911601600881901c7e0f000f000f000f000f000f000f000f000f000f000f000f000f000f000f000f908116911601601081901c01602081901c01604081901c01608081901c60ff90811691160190565b6000613fff841115613d9857600080fd5b64ffffffffff831115613daa57600080fd5b6008821115613db857600080fd5b5067ffff000000000000603084901b1665ffffffffff00600884901b161760ff8216179392505050565b6000808260400151118015613dfc57506040820151600810155b613e0557600080fd5b6040820151600210613e1c57506020810151610799565b6000613e2e6001846040015103613e4f565b6020840151909150610795906276a70090613e4990846126cd565b9061310c565b60008160011415613e6457506276a700610799565b8160021415613e77575062ed4e00610799565b8160031415613e8b57506301da9c00610799565b8160041415613e9f57506303b53800610799565b8160051415613eb357506309450c00610799565b8160061415613ec7575063128a1800610799565b8160071415613edb57506325143000610799565b60405162461bcd60e51b81526004016102129061457c565b604051806101200160405280600061ffff16815260200160008152602001600081526020016000815260200160008152602001600081526020016000815260200160008152602001600081525090565b6040805160a08101825260008082526020820181905291810182905260608101829052608081019190915290565b6040805160a0810182526000808252602082018190529181018290529060608201908152602001600081525090565b6040518060800160405280606081526020016060815260200160008152602001600081525090565b6040518060c0016040528060008152602001600081526020016000815260200160008152602001600081526020016000600381111561400357fe5b905290565b60405180602001604052806001906020820280368337509192915050565b80356001600160a01b038116811461079957600080fd5b80516001600160701b03198116811461079957600080fd5b80516004811061079957600080fd5b8051610799816147fa565b805160ff8116811461079957600080fd5b600060208284031215614091578081fd5b610e9a82614026565b6000806000606084860312156140ae578182fd5b6140b784614026565b925060208401356140c7816147fa565b929592945050506040919091013590565b600080600080600060a086880312156140ef578081fd5b6140f886614026565b94506020860135614108816147fa565b935060408601356001600160601b0381168114614123578182fd5b92506060860135614133816147e9565b91506080860135614143816147e9565b809150509295509295909350565b600080600060608486031215614165578283fd5b83519250602080850151614178816147e9565b8093505060408086015167ffffffffffffffff80821115614197578485fd5b818801915088601f8301126141aa578485fd5b8151818111156141b657fe5b6141c385868302016147c5565b8181528581019084870160c0808502870189018e10156141e157898afd5b8996505b848710156142615780828f0312156141fb57898afd5b8751818101818110888211171561420e57fe5b808a525082518152898301518a8201528883015189820152606083015160608201526080830151608082015261424660a08401614055565b60a082015284526001969096019592880192908101906141e5565b5050809750505050505050509250925092565b600060a08284031215614285578081fd5b60405160a0810181811067ffffffffffffffff821117156142a257fe5b604052825164ffffffffff811681146142b9578283fd5b815260208301516001600160f81b0319811681146142d5578283fd5b60208201526142e66040840161406f565b60408201526142f760608401614064565b60608201526143086080840161403d565b60808201529392505050565b600060208284031215614325578081fd5b8135610e9a816147fa565b600080600060608486031215614344578081fd5b833561434f816147fa565b925060208401356001600160581b038116811461436a578182fd5b9150604084013561437a816147e9565b809150509250925092565b600060208284031215614396578081fd5b5051919050565b6001600160a01b0391909116815260200190565b6001600160a01b03948516815292841660208401529083166040830152909116606082015260800190565b6001600160a01b03929092168252805164ffffffffff166020808401919091528101516001600160f81b03191660408084019190915281015160ff1660608084019190915281015161ffff1660808084019190915201516001600160701b03191660a082015260c00190565b6001600160a01b0396909616865261ffff94909416602086015260408501929092526060840152608083015260a082015260c00190565b6001600160a01b0393841681526020810192909252909116604082015260600190565b6001600160a01b03948516815260208101939093529216604082015261ffff909116606082015260800190565b6001600160a01b0394909416845260208401929092526040830152606082015260800190565b901515815260200190565b90815260200190565b9182521515602082015260400190565b602080825260049082015263135a5b9d60e21b604082015260600190565b6020808252600b908201526a4554482042616c616e636560a81b604082015260600190565b60208082526006908201526552656465656d60d01b604082015260600190565b6020808252600d908201526c092dcecc2d8d2c840d2dcc8caf609b1b604082015260600190565b60208082526012908201527143616e6e6f7420686176652061737365747360701b604082015260600190565b602080825260149082015273496e73756666696369656e742062616c616e636560601b604082015260600190565b6020808252601390820152724163636f756e74206d75737420736574746c6560681b604082015260600190565b6020808252600f908201526e4f766572206d61782061737365747360881b604082015260600190565b6020808252601390820152722ab730baba3437b934bd32b21031b0b63632b960691b604082015260600190565b6020808252600e908201526d1499595b9d1c985b9d0818d85b1b60921b604082015260600190565b602080825260149082015273043616e6e6f74206368616e6765206269746d61760641b604082015260600190565b60208082526008908201526709ccace4086c2e6d60c31b604082015260600190565b60208082526010908201526f10d85b9b9bdd081a185d99481919589d60821b604082015260600190565b6020808252600a90820152692732b390372a37b5b2b760b11b604082015260600190565b602080825260139082015272125b9d985b1a590818dd5c9c995b98de481a59606a1b604082015260600190565b602080825260139082015272496e73756666696369656e7420746f6b656e7360681b604082015260600190565b61ffff9490941684526020840192909252151560408301521515606082015260800190565b60405181810167ffffffffffffffff811182821017156147e157fe5b604052919050565b80151581146147f757600080fd5b50565b61ffff811681146147f757600080fdfe536166654d6174683a206d756c7469706c69636174696f6e206f766572666c6f77a2646970667358221220271154b0ea9b5da8412e1cd79f555c00cc48c95f7744683297d01ae4e278ae0364736f6c63430007060033","language":"Solidity","natspec":{"kind":"dev","methods":{"depositAssetToken(address,uint16,uint256)":{"details":"emit:CashBalanceChange emit:AccountContextUpdateauth:none","notice":"Deposits asset tokens into an account. Does not settle or check free collateral, idea is to make deposit as gas efficient as possible during potential liquidation events.","params":{"account":"the account to deposit into","amountExternalPrecision":"the amount of asset tokens in its native decimal precision (i.e. 8 decimals for cTokens).","currencyId":"currency id of the asset token"},"returns":{"_0":"asset tokens minted and deposited to the account in internal decimals (8)"}},"depositUnderlyingToken(address,uint16,uint256)":{"details":"emit:CashBalanceChange emit:AccountContextUpdateauth:none","notice":"Deposits and wraps the underlying token for a particular cToken. Does not settle assets or check free collateral, idea is to be as gas efficient as possible during potential liquidation events.","params":{"account":"the account to deposit into","amountExternalPrecision":"the amount of underlying tokens in its native decimal precision (i.e. 18 decimals for DAI or 6 decimals for USDC). This will be converted to 8 decimals during transfer.","currencyId":"currency id of the asset token that wraps this underlying"},"returns":{"_0":"asset tokens minted and deposited to the account in internal decimals (8)"}},"enableBitmapCurrency(uint16)":{"details":"emit:AccountSettled emit:AccountContextUpdateauth:msg.sender","notice":"Enables a bitmap currency for msg.sender, account cannot have any assets when this call occurs. Will revert if the account already has a bitmap currency set.","params":{"currencyId":"the currency to enable the bitmap for."}},"getLibInfo()":{"notice":"Get a list of deployed library addresses (sorted by library name)"},"nTokenRedeem(address,uint16,uint96,bool,bool)":{"details":"auth:msg.sender auth:ERC1155","notice":"Allows accounts to redeem nTokens into constituent assets and then absorb the assets into their portfolio. Due to the complexity here, it is not allowed to be called during a batch trading operation and must be done separately.","params":{"acceptResidualAssets":"if true, will place any residual fCash that could not be sold (either due to slippage or because it was idiosyncratic) into the account's portfolio","currencyId":"the currency associated the nToken","redeemer":"the address that holds the nTokens to redeem","sellTokenAssets":"attempt to sell residual fCash and convert to cash","tokensToRedeem_":"the amount of nTokens to convert to cash"},"returns":{"_0":"total amount of asset cash redeemed","_1":"true or false if there were residuals that were placed into the portfolio"}},"settleAccount(address)":{"details":"emit:AccountSettled emit:AccountContextUpdateauth:none","notice":"Method for manually settling an account, generally should not be called because other methods will check if an account needs to be settled automatically. If a bitmap account has debt and is settled via this method, the hasDebt flag will not be cleared until a free collateral check is performed on the account.","params":{"account":"the account to settle"},"returns":{"_0":"returns true if account has been settled"}},"withdraw(uint16,uint88,bool)":{"details":"emit:CashBalanceChange emit:AccountContextUpdateauth:msg.sender","notice":"Withdraws balances from Notional, may also redeem to underlying tokens on user request. Will settle and do free collateral checks if required. Can only be called by msg.sender, operators who want to withdraw for an account must do an authenticated call via ERC1155Action `safeTransferFrom` or `safeBatchTransferFrom`","params":{"amountInternalPrecision":"the amount of cash balance in internal 8 decimal precision to withdraw, this is be denominated in asset cash.","currencyId":"currency id of the asset token","redeemToUnderlying":"true if the tokens should be converted to underlying assets"},"returns":{"_0":"the amount of tokens received by the account denominated in the destination token precision (if"}}},"version":1},"opcodes":"PUSH1 0x80 PUSH1 0x40 MSTORE PUSH1 0x4 CALLDATASIZE LT PUSH2 0x91 JUMPI PUSH1 0x0 CALLDATALOAD PUSH1 0xE0 SHR DUP1 PUSH4 0x8DA5CB5B GT PUSH2 0x59 JUMPI DUP1 PUSH4 0x8DA5CB5B EQ PUSH2 0x144 JUMPI DUP1 PUSH4 0x9C979450 EQ PUSH2 0x159 JUMPI DUP1 PUSH4 0xB8A69455 EQ PUSH2 0x17B JUMPI DUP1 PUSH4 0xC4C96DAE EQ PUSH2 0x19B JUMPI DUP1 PUSH4 0xF667F897 EQ PUSH2 0x1C0 JUMPI PUSH2 0x91 JUMP JUMPDEST DUP1 PUSH4 0x2F332E8 EQ PUSH2 0x96 JUMPI DUP1 PUSH4 0x24A3D622 EQ PUSH2 0xCC JUMPI DUP1 PUSH4 0x2890FB65 EQ PUSH2 0xEE JUMPI DUP1 PUSH4 0x66890643 EQ PUSH2 0x101 JUMPI DUP1 PUSH4 0x82463367 EQ PUSH2 0x12F JUMPI JUMPDEST PUSH1 0x0 DUP1 REVERT JUMPDEST CALLVALUE DUP1 ISZERO PUSH2 0xA2 JUMPI PUSH1 0x0 DUP1 REVERT JUMPDEST POP PUSH2 0xB6 PUSH2 0xB1 CALLDATASIZE PUSH1 0x4 PUSH2 0x4330 JUMP JUMPDEST PUSH2 0x1ED JUMP JUMPDEST PUSH1 0x40 MLOAD PUSH2 0xC3 SWAP2 SWAP1 PUSH2 0x4500 JUMP JUMPDEST PUSH1 0x40 MLOAD DUP1 SWAP2 SUB SWAP1 RETURN JUMPDEST CALLVALUE DUP1 ISZERO PUSH2 0xD8 JUMPI PUSH1 0x0 DUP1 REVERT JUMPDEST POP PUSH2 0xE1 PUSH2 0x34B JUMP JUMPDEST PUSH1 0x40 MLOAD PUSH2 0xC3 SWAP2 SWAP1 PUSH2 0x439D JUMP JUMPDEST PUSH2 0xB6 PUSH2 0xFC CALLDATASIZE PUSH1 0x4 PUSH2 0x409A JUMP JUMPDEST PUSH2 0x35A JUMP JUMPDEST CALLVALUE DUP1 ISZERO PUSH2 0x10D JUMPI PUSH1 0x0 DUP1 REVERT JUMPDEST POP PUSH2 0x121 PUSH2 0x11C CALLDATASIZE PUSH1 0x4 PUSH2 0x40D8 JUMP JUMPDEST PUSH2 0x402 JUMP JUMPDEST PUSH1 0x40 MLOAD PUSH2 0xC3 SWAP3 SWAP2 SWAP1 PUSH2 0x4509 JUMP JUMPDEST CALLVALUE DUP1 ISZERO PUSH2 0x13B JUMPI PUSH1 0x0 DUP1 REVERT JUMPDEST POP PUSH2 0xE1 PUSH2 0x623 JUMP JUMPDEST CALLVALUE DUP1 ISZERO PUSH2 0x150 JUMPI PUSH1 0x0 DUP1 REVERT JUMPDEST POP PUSH2 0xE1 PUSH2 0x632 JUMP JUMPDEST CALLVALUE DUP1 ISZERO PUSH2 0x165 JUMPI PUSH1 0x0 DUP1 REVERT JUMPDEST POP PUSH2 0x179 PUSH2 0x174 CALLDATASIZE PUSH1 0x4 PUSH2 0x4314 JUMP JUMPDEST PUSH2 0x649 JUMP JUMPDEST STOP JUMPDEST CALLVALUE DUP1 ISZERO PUSH2 0x187 JUMPI PUSH1 0x0 DUP1 REVERT JUMPDEST POP PUSH2 0xB6 PUSH2 0x196 CALLDATASIZE PUSH1 0x4 PUSH2 0x409A JUMP JUMPDEST PUSH2 0x696 JUMP JUMPDEST CALLVALUE DUP1 ISZERO PUSH2 0x1A7 JUMPI PUSH1 0x0 DUP1 REVERT JUMPDEST POP PUSH2 0x1B0 PUSH2 0x710 JUMP JUMPDEST PUSH1 0x40 MLOAD PUSH2 0xC3 SWAP5 SWAP4 SWAP3 SWAP2 SWAP1 PUSH2 0x43B1 JUMP JUMPDEST CALLVALUE DUP1 ISZERO PUSH2 0x1CC JUMPI PUSH1 0x0 DUP1 REVERT JUMPDEST POP PUSH2 0x1E0 PUSH2 0x1DB CALLDATASIZE PUSH1 0x4 PUSH2 0x4080 JUMP JUMPDEST PUSH2 0x76A JUMP JUMPDEST PUSH1 0x40 MLOAD PUSH2 0xC3 SWAP2 SWAP1 PUSH2 0x44F5 JUMP JUMPDEST PUSH1 0x0 PUSH1 0x2 PUSH1 0xA SLOAD EQ ISZERO PUSH2 0x21B JUMPI PUSH1 0x40 MLOAD PUSH3 0x461BCD PUSH1 0xE5 SHL DUP2 MSTORE PUSH1 0x4 ADD PUSH2 0x212 SWAP1 PUSH2 0x4680 JUMP JUMPDEST PUSH1 0x40 MLOAD DUP1 SWAP2 SUB SWAP1 REVERT JUMPDEST PUSH1 0x2 PUSH1 0xA SSTORE PUSH1 0x0 PUSH2 0x22B CALLER PUSH2 0x79E JUMP JUMPDEST POP SWAP1 POP PUSH2 0x236 PUSH2 0x3EF3 JUMP JUMPDEST PUSH2 0x242 DUP2 CALLER DUP9 DUP6 PUSH2 0x863 JUMP JUMPDEST DUP5 PUSH1 0x1 PUSH1 0x1 PUSH1 0x58 SHL SUB AND DUP2 PUSH1 0x20 ADD MLOAD SLT ISZERO PUSH2 0x26F JUMPI PUSH1 0x40 MLOAD PUSH3 0x461BCD PUSH1 0xE5 SHL DUP2 MSTORE PUSH1 0x4 ADD PUSH2 0x212 SWAP1 PUSH2 0x45CF JUMP JUMPDEST PUSH2 0x281 DUP6 PUSH1 0x1 PUSH1 0x1 PUSH1 0x58 SHL SUB AND PUSH2 0x909 JUMP JUMPDEST PUSH1 0x80 DUP3 ADD MSTORE PUSH1 0x0 PUSH2 0x294 DUP3 CALLER DUP6 DUP9 PUSH2 0x91D JUMP JUMPDEST SWAP1 POP PUSH2 0x2A0 DUP4 CALLER PUSH2 0xB9E JUMP JUMPDEST PUSH1 0x20 DUP4 ADD MLOAD PUSH1 0x1 PUSH1 0x1 PUSH1 0xF8 SHL SUB NOT AND ISZERO PUSH2 0x31C JUMPI PUSH1 0x40 MLOAD PUSH4 0x6CCC642F PUSH1 0xE0 SHL DUP2 MSTORE PUSH20 0x0 SWAP1 PUSH4 0x6CCC642F SWAP1 PUSH2 0x2EB SWAP1 CALLER SWAP1 PUSH1 0x4 ADD PUSH2 0x439D JUMP JUMPDEST PUSH1 0x0 PUSH1 0x40 MLOAD DUP1 DUP4 SUB DUP2 DUP7 DUP1 EXTCODESIZE ISZERO DUP1 ISZERO PUSH2 0x303 JUMPI PUSH1 0x0 DUP1 REVERT JUMPDEST POP GAS DELEGATECALL ISZERO DUP1 ISZERO PUSH2 0x317 JUMPI RETURNDATASIZE PUSH1 0x0 DUP1 RETURNDATACOPY RETURNDATASIZE PUSH1 0x0 REVERT JUMPDEST POP POP POP POP JUMPDEST PUSH1 0x0 DUP2 SGT ISZERO PUSH2 0x32A JUMPI PUSH1 0x0 DUP1 REVERT JUMPDEST PUSH2 0x33B PUSH2 0x336 DUP3 PUSH2 0x909 JUMP JUMPDEST PUSH2 0xCA2 JUMP JUMPDEST PUSH1 0x1 PUSH1 0xA SSTORE SWAP8 SWAP7 POP POP POP POP POP POP POP JUMP JUMPDEST PUSH1 0x2 SLOAD PUSH1 0x1 PUSH1 0x1 PUSH1 0xA0 SHL SUB AND DUP2 JUMP JUMPDEST PUSH1 0x0 PUSH1 0x2 PUSH1 0xA SLOAD EQ ISZERO PUSH2 0x37F JUMPI PUSH1 0x40 MLOAD PUSH3 0x461BCD PUSH1 0xE5 SHL DUP2 MSTORE PUSH1 0x4 ADD PUSH2 0x212 SWAP1 PUSH2 0x4680 JUMP JUMPDEST PUSH1 0x2 PUSH1 0xA SSTORE CALLER ADDRESS EQ ISZERO PUSH2 0x391 JUMPI PUSH1 0x0 DUP1 REVERT JUMPDEST PUSH2 0x39A DUP5 PUSH2 0xCB5 JUMP JUMPDEST PUSH1 0x0 PUSH2 0x3A5 DUP6 PUSH2 0xD04 JUMP JUMPDEST SWAP1 POP PUSH2 0x3AF PUSH2 0x3EF3 JUMP JUMPDEST PUSH2 0x3BB DUP2 DUP8 DUP8 DUP6 PUSH2 0x863 JUMP JUMPDEST PUSH1 0x0 PUSH2 0x3D2 CALLER PUSH2 0x3CA DUP8 PUSH2 0xDA5 JUMP JUMPDEST DUP5 SWAP2 SWAP1 PUSH2 0xDBB JUMP JUMPDEST SWAP1 POP PUSH1 0x0 DUP2 SGT PUSH2 0x3E1 JUMPI PUSH1 0x0 DUP1 REVERT JUMPDEST PUSH2 0x3EE DUP3 DUP9 DUP6 PUSH1 0x0 PUSH2 0x91D JUMP JUMPDEST POP PUSH2 0x3F9 DUP4 DUP9 PUSH2 0xB9E JUMP JUMPDEST PUSH2 0x33B DUP2 PUSH2 0xCA2 JUMP JUMPDEST PUSH1 0x0 DUP1 PUSH1 0x2 PUSH1 0xA SLOAD EQ ISZERO PUSH2 0x428 JUMPI PUSH1 0x40 MLOAD PUSH3 0x461BCD PUSH1 0xE5 SHL DUP2 MSTORE PUSH1 0x4 ADD PUSH2 0x212 SWAP1 PUSH2 0x4680 JUMP JUMPDEST PUSH1 0x2 PUSH1 0xA SSTORE CALLER PUSH1 0x1 PUSH1 0x1 PUSH1 0xA0 SHL SUB DUP9 AND EQ DUP1 PUSH2 0x443 JUMPI POP CALLER ADDRESS EQ JUMPDEST PUSH2 0x45F JUMPI PUSH1 0x40 MLOAD PUSH3 0x461BCD PUSH1 0xE5 SHL DUP2 MSTORE PUSH1 0x4 ADD PUSH2 0x212 SWAP1 PUSH2 0x4653 JUMP JUMPDEST PUSH1 0x1 PUSH1 0x1 PUSH1 0x60 SHL SUB DUP6 AND PUSH1 0x0 PUSH2 0x474 DUP10 PUSH2 0x79E JUMP JUMPDEST POP SWAP1 POP PUSH2 0x47F PUSH2 0x3EF3 JUMP JUMPDEST PUSH2 0x48B DUP2 DUP12 DUP12 DUP6 PUSH2 0x863 JUMP JUMPDEST DUP3 DUP2 PUSH1 0x40 ADD MLOAD SLT ISZERO PUSH2 0x4AF JUMPI PUSH1 0x40 MLOAD PUSH3 0x461BCD PUSH1 0xE5 SHL DUP2 MSTORE PUSH1 0x4 ADD PUSH2 0x212 SWAP1 PUSH2 0x4773 JUMP JUMPDEST PUSH2 0x4B8 DUP4 PUSH2 0x909 JUMP JUMPDEST PUSH1 0xC0 DUP3 ADD MSTORE PUSH1 0x40 MLOAD PUSH3 0xD57C99 PUSH1 0xE5 SHL DUP2 MSTORE PUSH1 0x0 SWAP1 DUP2 SWAP1 PUSH20 0x0 SWAP1 PUSH4 0x1AAF9320 SWAP1 PUSH2 0x4FE SWAP1 DUP15 SWAP1 DUP10 SWAP1 DUP15 SWAP1 DUP15 SWAP1 PUSH1 0x4 ADD PUSH2 0x47A0 JUMP JUMPDEST PUSH1 0x0 PUSH1 0x40 MLOAD DUP1 DUP4 SUB DUP2 DUP7 DUP1 EXTCODESIZE ISZERO DUP1 ISZERO PUSH2 0x516 JUMPI PUSH1 0x0 DUP1 REVERT JUMPDEST POP GAS DELEGATECALL ISZERO DUP1 ISZERO PUSH2 0x52A JUMPI RETURNDATASIZE PUSH1 0x0 DUP1 RETURNDATACOPY RETURNDATASIZE PUSH1 0x0 REVERT JUMPDEST POP POP POP POP PUSH1 0x40 MLOAD RETURNDATASIZE PUSH1 0x0 DUP3 RETURNDATACOPY PUSH1 0x1F RETURNDATASIZE SWAP1 DUP2 ADD PUSH1 0x1F NOT AND DUP3 ADD PUSH1 0x40 MSTORE PUSH2 0x552 SWAP2 SWAP1 DUP2 ADD SWAP1 PUSH2 0x4151 JUMP JUMPDEST PUSH1 0x60 DUP7 ADD DUP4 SWAP1 MSTORE SWAP2 SWAP4 POP SWAP1 SWAP2 POP PUSH2 0x56E SWAP1 POP DUP4 DUP14 DUP7 PUSH1 0x0 PUSH2 0x91D JUMP JUMPDEST POP DUP1 MLOAD ISZERO PUSH2 0x584 JUMPI PUSH2 0x581 DUP13 DUP6 DUP4 PUSH2 0xEA1 JUMP JUMPDEST SWAP4 POP JUMPDEST PUSH2 0x58E DUP5 DUP14 PUSH2 0xB9E JUMP JUMPDEST PUSH1 0x20 DUP5 ADD MLOAD PUSH1 0x1 PUSH1 0x1 PUSH1 0xF8 SHL SUB NOT AND ISZERO PUSH2 0x60A JUMPI PUSH1 0x40 MLOAD PUSH4 0x6CCC642F PUSH1 0xE0 SHL DUP2 MSTORE PUSH20 0x0 SWAP1 PUSH4 0x6CCC642F SWAP1 PUSH2 0x5D9 SWAP1 DUP16 SWAP1 PUSH1 0x4 ADD PUSH2 0x439D JUMP JUMPDEST PUSH1 0x0 PUSH1 0x40 MLOAD DUP1 DUP4 SUB DUP2 DUP7 DUP1 EXTCODESIZE ISZERO DUP1 ISZERO PUSH2 0x5F1 JUMPI PUSH1 0x0 DUP1 REVERT JUMPDEST POP GAS DELEGATECALL ISZERO DUP1 ISZERO PUSH2 0x605 JUMPI RETURNDATASIZE PUSH1 0x0 DUP1 RETURNDATACOPY RETURNDATASIZE PUSH1 0x0 REVERT JUMPDEST POP POP POP POP JUMPDEST MLOAD PUSH1 0x1 PUSH1 0xA SSTORE SWAP1 SWAP12 SWAP1 ISZERO ISZERO SWAP11 POP SWAP9 POP POP POP POP POP POP POP POP POP JUMP JUMPDEST PUSH1 0x1 SLOAD PUSH1 0x1 PUSH1 0x1 PUSH1 0xA0 SHL SUB AND DUP2 JUMP JUMPDEST PUSH1 0x0 SLOAD PUSH5 0x100000000 SWAP1 DIV PUSH1 0x1 PUSH1 0x1 PUSH1 0xA0 SHL SUB AND DUP2 JUMP JUMPDEST CALLER ADDRESS EQ ISZERO PUSH2 0x656 JUMPI PUSH1 0x0 DUP1 REVERT JUMPDEST PUSH1 0x0 SLOAD PUSH2 0xFFFF SWAP1 DUP2 AND SWAP1 DUP3 AND GT ISZERO PUSH2 0x66D JUMPI PUSH1 0x0 DUP1 REVERT JUMPDEST CALLER PUSH1 0x0 PUSH2 0x679 DUP3 PUSH2 0x79E JUMP JUMPDEST POP SWAP1 POP PUSH2 0x687 DUP2 DUP5 TIMESTAMP PUSH2 0xF22 JUMP JUMPDEST PUSH2 0x691 DUP2 DUP4 PUSH2 0xB9E JUMP JUMPDEST POP POP POP JUMP JUMPDEST PUSH1 0x0 PUSH1 0x2 PUSH1 0xA SLOAD EQ ISZERO PUSH2 0x6BB JUMPI PUSH1 0x40 MLOAD PUSH3 0x461BCD PUSH1 0xE5 SHL DUP2 MSTORE PUSH1 0x4 ADD PUSH2 0x212 SWAP1 PUSH2 0x4680 JUMP JUMPDEST PUSH1 0x2 PUSH1 0xA SSTORE CALLER ADDRESS EQ ISZERO PUSH2 0x6CD JUMPI PUSH1 0x0 DUP1 REVERT JUMPDEST PUSH2 0x6D6 DUP5 PUSH2 0xCB5 JUMP JUMPDEST PUSH1 0x0 PUSH2 0x6E1 DUP6 PUSH2 0xD04 JUMP JUMPDEST SWAP1 POP PUSH2 0x6EB PUSH2 0x3EF3 JUMP JUMPDEST PUSH2 0x6F7 DUP2 DUP8 DUP8 DUP6 PUSH2 0x863 JUMP JUMPDEST PUSH1 0x0 PUSH2 0x3D2 CALLER PUSH2 0x706 DUP8 PUSH2 0xDA5 JUMP JUMPDEST DUP5 SWAP2 SWAP1 PUSH1 0x1 PUSH2 0x101A JUMP JUMPDEST PUSH20 0x0 PUSH20 0x0 PUSH20 0x0 PUSH20 0x0 SWAP1 SWAP2 SWAP3 SWAP4 JUMP JUMPDEST PUSH1 0x0 PUSH2 0x775 DUP3 PUSH2 0xCB5 JUMP JUMPDEST PUSH1 0x0 DUP1 PUSH2 0x781 DUP5 PUSH2 0x79E JUMP JUMPDEST SWAP2 POP SWAP2 POP DUP1 ISZERO PUSH2 0x795 JUMPI PUSH2 0x795 DUP3 DUP6 PUSH2 0xB9E JUMP JUMPDEST SWAP2 POP POP JUMPDEST SWAP2 SWAP1 POP JUMP JUMPDEST PUSH2 0x7A6 PUSH2 0x3F43 JUMP JUMPDEST PUSH1 0x0 DUP1 PUSH2 0x7B2 DUP5 PUSH2 0xD04 JUMP JUMPDEST SWAP1 POP PUSH2 0x7BD DUP2 PUSH2 0x10F5 JUMP JUMPDEST ISZERO PUSH2 0x857 JUMPI PUSH1 0x40 MLOAD PUSH4 0x37B5FC21 PUSH1 0xE1 SHL DUP2 MSTORE PUSH20 0x0 SWAP1 PUSH4 0x6F6BF842 SWAP1 PUSH2 0x7FB SWAP1 DUP8 SWAP1 DUP6 SWAP1 PUSH1 0x4 ADD PUSH2 0x43DC JUMP JUMPDEST PUSH1 0xA0 PUSH1 0x40 MLOAD DUP1 DUP4 SUB DUP2 DUP7 DUP1 EXTCODESIZE ISZERO DUP1 ISZERO PUSH2 0x813 JUMPI PUSH1 0x0 DUP1 REVERT JUMPDEST POP GAS DELEGATECALL ISZERO DUP1 ISZERO PUSH2 0x827 JUMPI RETURNDATASIZE PUSH1 0x0 DUP1 RETURNDATACOPY RETURNDATASIZE PUSH1 0x0 REVERT JUMPDEST POP POP POP POP PUSH1 0x40 MLOAD RETURNDATASIZE PUSH1 0x1F NOT PUSH1 0x1F DUP3 ADD AND DUP3 ADD DUP1 PUSH1 0x40 MSTORE POP DUP2 ADD SWAP1 PUSH2 0x84B SWAP2 SWAP1 PUSH2 0x4274 JUMP JUMPDEST PUSH1 0x1 SWAP3 POP SWAP3 POP POP PUSH2 0x85E JUMP JUMPDEST SWAP2 POP PUSH1 0x0 SWAP1 POP JUMPDEST SWAP2 POP SWAP2 JUMP JUMPDEST DUP2 PUSH2 0xFFFF AND PUSH1 0x0 LT DUP1 ISZERO PUSH2 0x87D JUMPI POP PUSH2 0x3FFF PUSH2 0xFFFF DUP4 AND GT ISZERO JUMPDEST PUSH2 0x886 JUMPI PUSH1 0x0 DUP1 REVERT JUMPDEST PUSH2 0xFFFF DUP3 AND DUP1 DUP6 MSTORE PUSH2 0x899 SWAP1 DUP3 SWAP1 PUSH2 0x1149 JUMP JUMPDEST ISZERO PUSH2 0x8C6 JUMPI PUSH2 0x8AC DUP4 DUP4 PUSH2 0xFFFF AND PUSH2 0x11D3 JUMP JUMPDEST PUSH2 0x100 DUP9 ADD MSTORE PUSH1 0xE0 DUP8 ADD MSTORE PUSH1 0x40 DUP7 ADD MSTORE PUSH1 0x20 DUP6 ADD MSTORE PUSH2 0x8E4 JUMP JUMPDEST PUSH1 0x0 PUSH1 0x20 DUP6 ADD DUP2 SWAP1 MSTORE PUSH1 0x40 DUP6 ADD DUP2 SWAP1 MSTORE PUSH1 0xE0 DUP6 ADD DUP2 SWAP1 MSTORE PUSH2 0x100 DUP6 ADD MSTORE JUMPDEST POP POP PUSH1 0x0 PUSH1 0x60 DUP4 ADD DUP2 SWAP1 MSTORE PUSH1 0x80 DUP4 ADD DUP2 SWAP1 MSTORE PUSH1 0xA0 DUP4 ADD DUP2 SWAP1 MSTORE PUSH1 0xC0 SWAP1 SWAP3 ADD SWAP2 SWAP1 SWAP2 MSTORE POP JUMP JUMPDEST PUSH1 0x0 PUSH2 0x917 PUSH1 0x0 NOT DUP4 PUSH2 0x127F JUMP JUMPDEST SWAP3 SWAP2 POP POP JUMP JUMPDEST PUSH1 0x0 DUP1 PUSH1 0x0 DUP7 PUSH1 0xA0 ADD MLOAD SLT ISZERO PUSH2 0x976 JUMPI PUSH1 0x0 PUSH2 0x958 DUP8 PUSH1 0xA0 ADD MLOAD PUSH2 0x952 DUP10 PUSH1 0xC0 ADD MLOAD DUP11 PUSH1 0x40 ADD MLOAD PUSH2 0x12CD SWAP1 SWAP2 SWAP1 PUSH4 0xFFFFFFFF AND JUMP JUMPDEST SWAP1 PUSH2 0x12CD JUMP JUMPDEST SLT ISZERO PUSH2 0x976 JUMPI PUSH1 0x40 MLOAD PUSH3 0x461BCD PUSH1 0xE5 SHL DUP2 MSTORE PUSH1 0x4 ADD PUSH2 0x212 SWAP1 PUSH2 0x4722 JUMP JUMPDEST PUSH1 0x0 DUP7 PUSH1 0x80 ADD MLOAD SLT ISZERO PUSH2 0x9C6 JUMPI PUSH1 0x0 PUSH2 0x9A8 DUP8 PUSH1 0x80 ADD MLOAD PUSH2 0x952 DUP10 PUSH1 0x60 ADD MLOAD DUP11 PUSH1 0x20 ADD MLOAD PUSH2 0x12CD SWAP1 SWAP2 SWAP1 PUSH4 0xFFFFFFFF AND JUMP JUMPDEST SLT ISZERO PUSH2 0x9C6 JUMPI PUSH1 0x40 MLOAD PUSH3 0x461BCD PUSH1 0xE5 SHL DUP2 MSTORE PUSH1 0x4 ADD PUSH2 0x212 SWAP1 PUSH2 0x46D6 JUMP JUMPDEST PUSH2 0x9D1 DUP7 DUP7 DUP6 PUSH2 0x12E3 JUMP JUMPDEST PUSH1 0x80 DUP9 ADD DUP2 SWAP1 MSTORE PUSH1 0x60 DUP9 ADD MLOAD SWAP2 SWAP4 POP PUSH1 0x0 SWAP2 PUSH2 0x9EC SWAP2 PUSH2 0x12CD JUMP JUMPDEST SWAP1 POP DUP1 ISZERO PUSH2 0xA59 JUMPI PUSH1 0x20 DUP8 ADD MLOAD PUSH2 0xA03 SWAP1 DUP3 PUSH2 0x12CD JUMP JUMPDEST PUSH1 0x20 DUP9 ADD MSTORE DUP7 MLOAD PUSH1 0x40 MLOAD PUSH1 0x1 SWAP4 POP PUSH2 0xFFFF SWAP1 SWAP2 AND SWAP1 PUSH1 0x1 PUSH1 0x1 PUSH1 0xA0 SHL SUB DUP9 AND SWAP1 PUSH32 0x5441E4A5FAC93A951D782E6F1CDB82E95C8FC58561A013953D17E395C5E69B4B SWAP1 PUSH2 0xA50 SWAP1 DUP6 SWAP1 PUSH2 0x4500 JUMP JUMPDEST PUSH1 0x40 MLOAD DUP1 SWAP2 SUB SWAP1 LOG3 JUMPDEST PUSH1 0xA0 DUP8 ADD MLOAD ISZERO ISZERO DUP1 PUSH2 0xA6E JUMPI POP PUSH1 0xC0 DUP8 ADD MLOAD ISZERO ISZERO JUMPDEST ISZERO PUSH2 0xB14 JUMPI PUSH1 0x0 PUSH2 0xA98 DUP9 PUSH1 0xC0 ADD MLOAD PUSH2 0x952 DUP11 PUSH1 0xA0 ADD MLOAD DUP12 PUSH1 0x40 ADD MLOAD PUSH2 0x12CD SWAP1 SWAP2 SWAP1 PUSH4 0xFFFFFFFF AND JUMP JUMPDEST SWAP1 POP PUSH2 0xAAD DUP9 DUP9 PUSH2 0xAA8 DUP5 PUSH2 0xCA2 JUMP JUMPDEST PUSH2 0x1399 JUMP JUMPDEST POP PUSH1 0x40 DUP9 ADD DUP2 SWAP1 MSTORE PUSH1 0xC0 DUP9 ADD MLOAD ISZERO PUSH2 0xB0E JUMPI DUP8 PUSH1 0x0 ADD MLOAD PUSH2 0xFFFF AND DUP8 PUSH1 0x1 PUSH1 0x1 PUSH1 0xA0 SHL SUB AND PUSH32 0x412BC13D202A2EA5119E55FEC9C5E420DDDB18FAF186373AD9795AD4F4545AA9 DUP11 PUSH1 0xC0 ADD MLOAD PUSH1 0x40 MLOAD PUSH2 0xB05 SWAP2 SWAP1 PUSH2 0x4500 JUMP JUMPDEST PUSH1 0x40 MLOAD DUP1 SWAP2 SUB SWAP1 LOG3 JUMPDEST PUSH1 0x1 SWAP3 POP POP JUMPDEST DUP2 ISZERO PUSH2 0xB41 JUMPI PUSH2 0xB41 DUP7 DUP9 PUSH1 0x0 ADD MLOAD PUSH2 0xFFFF AND DUP10 PUSH1 0x20 ADD MLOAD DUP11 PUSH1 0x40 ADD MLOAD DUP12 PUSH1 0xE0 ADD MLOAD DUP13 PUSH2 0x100 ADD MLOAD PUSH2 0x1486 JUMP JUMPDEST DUP7 MLOAD PUSH1 0x20 DUP9 ADD MLOAD PUSH2 0xB6E SWAP2 PUSH2 0xFFFF AND SWAP1 ISZERO ISZERO DUP1 PUSH2 0xB61 JUMPI POP PUSH1 0x40 DUP10 ADD MLOAD ISZERO ISZERO JUMPDEST DUP8 SWAP2 SWAP1 PUSH1 0x1 PUSH1 0xFE SHL PUSH2 0x15CA JUMP JUMPDEST PUSH1 0x0 DUP8 PUSH1 0x20 ADD MLOAD SLT ISZERO PUSH2 0xB94 JUMPI PUSH1 0x20 DUP6 ADD DUP1 MLOAD PUSH1 0x1 PUSH1 0xF9 SHL OR PUSH1 0x1 PUSH1 0x1 PUSH1 0xF8 SHL SUB NOT AND SWAP1 MSTORE JUMPDEST POP POP SWAP5 SWAP4 POP POP POP POP JUMP JUMPDEST PUSH1 0x0 PUSH2 0xBA8 PUSH2 0x17CA JUMP JUMPDEST PUSH1 0x1 PUSH1 0x1 PUSH1 0xA0 SHL SUB DUP4 AND PUSH1 0x0 DUP2 DUP2 MSTORE PUSH1 0x20 DUP4 DUP2 MSTORE PUSH1 0x40 DUP1 DUP4 KECCAK256 DUP9 MLOAD DUP2 SLOAD SWAP4 DUP11 ADD MLOAD DUP4 DUP12 ADD MLOAD PUSH1 0x60 DUP13 ADD MLOAD PUSH1 0x80 DUP14 ADD MLOAD PUSH1 0x70 SHR PUSH1 0x1 PUSH1 0x48 SHL MUL PUSH27 0xFFFFFFFFFFFFFFFFFFFFFFFFFFFFFFFFFFFF000000000000000000 NOT PUSH2 0xFFFF SWAP1 SWAP3 AND PUSH1 0x1 PUSH1 0x38 SHL MUL PUSH9 0xFFFF00000000000000 NOT PUSH1 0xFF SWAP5 SWAP1 SWAP5 AND PUSH1 0x1 PUSH1 0x30 SHL MUL PUSH7 0xFF000000000000 NOT PUSH1 0xF8 SWAP7 SWAP1 SWAP7 SHR PUSH6 0x10000000000 MUL PUSH6 0xFF0000000000 NOT PUSH5 0xFFFFFFFFFF SWAP1 SWAP9 AND PUSH5 0xFFFFFFFFFF NOT SWAP1 SWAP12 AND SWAP11 SWAP1 SWAP11 OR SWAP7 SWAP1 SWAP7 AND SWAP9 SWAP1 SWAP9 OR SWAP4 SWAP1 SWAP4 AND SWAP4 SWAP1 SWAP4 OR AND SWAP5 SWAP1 SWAP5 OR AND SWAP3 SWAP1 SWAP3 OR SWAP1 SWAP2 SSTORE MLOAD SWAP3 SWAP4 POP SWAP1 SWAP2 PUSH32 0x6BD4B121BCA854A191536A2CA891155C42EE2FB23F307FB34E8BC65CFCB5412E SWAP2 SWAP1 LOG2 POP POP POP JUMP JUMPDEST PUSH1 0x0 DUP1 DUP3 SLT ISZERO PUSH2 0xCB1 JUMPI PUSH1 0x0 DUP1 REVERT JUMPDEST POP SWAP1 JUMP JUMPDEST PUSH1 0x1 PUSH1 0x1 PUSH1 0xA0 SHL SUB DUP2 AND PUSH2 0xCC8 JUMPI PUSH1 0x0 DUP1 REVERT JUMPDEST PUSH1 0x1 PUSH1 0x1 PUSH1 0xA0 SHL SUB DUP2 AND ADDRESS EQ ISZERO PUSH2 0xCDE JUMPI PUSH1 0x0 DUP1 REVERT JUMPDEST PUSH1 0x0 PUSH2 0xCE9 DUP3 PUSH2 0x17D7 JUMP JUMPDEST POP POP POP POP PUSH2 0xFFFF AND SWAP1 POP DUP1 PUSH1 0x0 EQ PUSH2 0xD00 JUMPI PUSH1 0x0 DUP1 REVERT JUMPDEST POP POP JUMP JUMPDEST PUSH2 0xD0C PUSH2 0x3F43 JUMP JUMPDEST PUSH1 0x0 PUSH2 0xD16 PUSH2 0x17CA JUMP JUMPDEST PUSH1 0x1 PUSH1 0x1 PUSH1 0xA0 SHL SUB SWAP4 SWAP1 SWAP4 AND PUSH1 0x0 SWAP1 DUP2 MSTORE PUSH1 0x20 SWAP4 DUP5 MSTORE PUSH1 0x40 SWAP1 DUP2 SWAP1 KECCAK256 DUP2 MLOAD PUSH1 0xA0 DUP2 ADD DUP4 MSTORE SWAP1 SLOAD PUSH5 0xFFFFFFFFFF DUP2 AND DUP3 MSTORE PUSH6 0x10000000000 DUP2 DIV PUSH1 0xF8 SHL PUSH1 0x1 PUSH1 0x1 PUSH1 0xF8 SHL SUB NOT AND SWAP6 DUP3 ADD SWAP6 SWAP1 SWAP6 MSTORE PUSH1 0x1 PUSH1 0x30 SHL DUP6 DIV PUSH1 0xFF AND SWAP2 DUP2 ADD SWAP2 SWAP1 SWAP2 MSTORE PUSH1 0x1 PUSH1 0x38 SHL DUP5 DIV PUSH2 0xFFFF AND PUSH1 0x60 DUP3 ADD MSTORE PUSH1 0x1 PUSH1 0x48 SHL SWAP1 SWAP4 DIV PUSH1 0x70 SHL PUSH1 0x1 PUSH1 0x1 PUSH1 0x70 SHL SUB NOT AND PUSH1 0x80 DUP5 ADD MSTORE POP SWAP1 SWAP2 SWAP1 POP JUMP JUMPDEST PUSH1 0x0 PUSH1 0x1 PUSH1 0x1 PUSH1 0xFF SHL SUB DUP3 GT ISZERO PUSH2 0xCB1 JUMPI PUSH1 0x0 DUP1 REVERT JUMPDEST PUSH1 0x0 DUP2 PUSH2 0xDCA JUMPI POP PUSH1 0x0 PUSH2 0xE9A JUMP JUMPDEST PUSH1 0x0 DUP3 SGT PUSH2 0xDD7 JUMPI PUSH1 0x0 DUP1 REVERT JUMPDEST PUSH1 0x0 PUSH2 0xDEA DUP6 PUSH1 0x0 ADD MLOAD PUSH2 0xFFFF AND PUSH2 0x1840 JUMP JUMPDEST SWAP1 POP PUSH1 0x3 DUP2 PUSH1 0x60 ADD MLOAD PUSH1 0x5 DUP2 GT ISZERO PUSH2 0xDFE JUMPI INVALID JUMPDEST EQ ISZERO PUSH2 0xE28 JUMPI CALLVALUE DUP4 EQ PUSH2 0xE23 JUMPI PUSH1 0x40 MLOAD PUSH3 0x461BCD PUSH1 0xE5 SHL DUP2 MSTORE PUSH1 0x4 ADD PUSH2 0x212 SWAP1 PUSH2 0x4537 JUMP JUMPDEST PUSH2 0xE3F JUMP JUMPDEST DUP5 MLOAD PUSH2 0xE3C SWAP1 DUP3 SWAP1 DUP7 SWAP1 PUSH2 0xFFFF AND DUP7 PUSH2 0x1853 JUMP JUMPDEST SWAP3 POP JUMPDEST PUSH1 0x0 PUSH2 0xE52 DUP7 PUSH1 0x0 ADD MLOAD PUSH2 0xFFFF AND PUSH2 0x18FB JUMP JUMPDEST SWAP1 POP PUSH1 0x0 PUSH2 0xE6F DUP8 PUSH1 0x0 ADD MLOAD PUSH2 0xE67 DUP8 PUSH2 0xCA2 JUMP JUMPDEST DUP5 SWAP2 SWAP1 PUSH2 0x190E JUMP JUMPDEST SWAP1 POP PUSH1 0x0 PUSH2 0xE7D DUP4 DUP4 PUSH2 0x1A05 JUMP JUMPDEST PUSH1 0x60 DUP10 ADD MLOAD SWAP1 SWAP2 POP PUSH2 0xE8F SWAP1 DUP3 PUSH2 0x12CD JUMP JUMPDEST PUSH1 0x60 DUP10 ADD MSTORE SWAP4 POP POP POP POP JUMPDEST SWAP4 SWAP3 POP POP POP JUMP JUMPDEST PUSH2 0xEA9 PUSH2 0x3F43 JUMP JUMPDEST PUSH2 0xEB2 DUP4 PUSH2 0x10F5 JUMP JUMPDEST ISZERO PUSH2 0xECF JUMPI PUSH1 0x40 MLOAD PUSH3 0x461BCD PUSH1 0xE5 SHL DUP2 MSTORE PUSH1 0x4 ADD PUSH2 0x212 SWAP1 PUSH2 0x45FD JUMP JUMPDEST PUSH2 0xED8 DUP4 PUSH2 0x1A3B JUMP JUMPDEST ISZERO PUSH2 0xEED JUMPI PUSH2 0xEE8 DUP5 DUP5 DUP5 PUSH2 0x1A48 JUMP JUMPDEST PUSH2 0xF1A JUMP JUMPDEST PUSH1 0x0 PUSH2 0xEFF DUP6 DUP6 PUSH1 0x40 ADD MLOAD DUP6 MLOAD PUSH2 0x1B10 JUMP JUMPDEST SWAP1 POP PUSH2 0xF0B DUP2 DUP5 PUSH2 0x1BA3 JUMP JUMPDEST PUSH2 0xF18 DUP5 DUP7 DUP4 PUSH1 0x0 PUSH2 0x1C01 JUMP JUMPDEST POP JUMPDEST POP SWAP1 SWAP3 SWAP2 POP POP JUMP JUMPDEST PUSH2 0xF2B DUP4 PUSH2 0x1A3B JUMP JUMPDEST ISZERO PUSH2 0xF48 JUMPI PUSH1 0x40 MLOAD PUSH3 0x461BCD PUSH1 0xE5 SHL DUP2 MSTORE PUSH1 0x4 ADD PUSH2 0x212 SWAP1 PUSH2 0x46A8 JUMP JUMPDEST DUP2 PUSH2 0xFFFF AND PUSH1 0x0 LT DUP1 ISZERO PUSH2 0xF62 JUMPI POP PUSH2 0x3FFF PUSH2 0xFFFF DUP4 AND GT ISZERO JUMPDEST PUSH2 0xF7E JUMPI PUSH1 0x40 MLOAD PUSH3 0x461BCD PUSH1 0xE5 SHL DUP2 MSTORE PUSH1 0x4 ADD PUSH2 0x212 SWAP1 PUSH2 0x4746 JUMP JUMPDEST PUSH1 0x40 DUP4 ADD MLOAD PUSH1 0xFF AND ISZERO PUSH2 0xFA3 JUMPI PUSH1 0x40 MLOAD PUSH3 0x461BCD PUSH1 0xE5 SHL DUP2 MSTORE PUSH1 0x4 ADD PUSH2 0x212 SWAP1 PUSH2 0x45A3 JUMP JUMPDEST PUSH1 0x20 DUP4 ADD MLOAD PUSH1 0x1 PUSH1 0x1 PUSH1 0xF8 SHL SUB NOT AND ISZERO PUSH2 0xFCF JUMPI PUSH1 0x40 MLOAD PUSH3 0x461BCD PUSH1 0xE5 SHL DUP2 MSTORE PUSH1 0x4 ADD PUSH2 0x212 SWAP1 PUSH2 0x46F8 JUMP JUMPDEST PUSH2 0xFE4 DUP4 PUSH2 0xFFFF DUP5 AND PUSH1 0x0 PUSH1 0x1 PUSH1 0xFE SHL PUSH2 0x15CA JUMP JUMPDEST PUSH2 0xFFFF DUP3 AND PUSH1 0x60 DUP5 ADD MSTORE PUSH1 0x0 PUSH2 0xFF9 DUP3 PUSH2 0x1CE3 JUMP JUMPDEST SWAP1 POP PUSH5 0xFFFFFFFFFF DUP2 LT PUSH2 0x100C JUMPI PUSH1 0x0 DUP1 REVERT JUMPDEST PUSH5 0xFFFFFFFFFF AND SWAP1 SWAP3 MSTORE POP POP JUMP JUMPDEST PUSH1 0x0 DUP3 PUSH2 0x1029 JUMPI POP PUSH1 0x0 PUSH2 0x10ED JUMP JUMPDEST PUSH1 0x0 DUP4 SGT PUSH2 0x1036 JUMPI PUSH1 0x0 DUP1 REVERT JUMPDEST PUSH1 0x0 PUSH2 0x1049 DUP7 PUSH1 0x0 ADD MLOAD PUSH2 0xFFFF AND PUSH2 0x18FB JUMP JUMPDEST SWAP1 POP PUSH1 0x5 DUP2 PUSH1 0x60 ADD MLOAD PUSH1 0x5 DUP2 GT ISZERO PUSH2 0x105D JUMPI INVALID JUMPDEST EQ ISZERO PUSH2 0x1076 JUMPI DUP6 MLOAD PUSH2 0x1073 SWAP1 PUSH2 0xFFFF AND DUP6 PUSH2 0x1D01 JUMP JUMPDEST SWAP4 POP JUMPDEST DUP1 PUSH1 0x20 ADD MLOAD DUP1 PUSH2 0x1083 JUMPI POP DUP3 JUMPDEST ISZERO PUSH2 0x10CA JUMPI DUP6 MLOAD PUSH1 0x0 SWAP1 PUSH2 0x109F SWAP1 DUP4 SWAP1 DUP9 SWAP1 PUSH2 0xFFFF AND DUP9 PUSH2 0x1853 JUMP JUMPDEST SWAP1 POP PUSH2 0x10AB DUP3 DUP3 PUSH2 0x1A05 JUMP JUMPDEST PUSH1 0x60 DUP9 ADD MLOAD SWAP1 SWAP4 POP PUSH2 0x10BD SWAP1 DUP5 PUSH2 0x12CD JUMP JUMPDEST PUSH1 0x60 DUP9 ADD MSTORE POP PUSH2 0x10ED SWAP1 POP JUMP JUMPDEST PUSH2 0x10D4 DUP2 DUP6 PUSH2 0x1A05 JUMP JUMPDEST PUSH1 0x80 DUP8 ADD MLOAD SWAP1 SWAP3 POP PUSH2 0x10E6 SWAP1 DUP4 PUSH2 0x12CD JUMP JUMPDEST PUSH1 0x80 DUP8 ADD MSTORE POP JUMPDEST SWAP5 SWAP4 POP POP POP POP JUMP JUMPDEST PUSH1 0x0 TIMESTAMP PUSH2 0x1101 DUP4 PUSH2 0x1A3B JUMP JUMPDEST ISZERO PUSH2 0x1122 JUMPI PUSH2 0x110F DUP2 PUSH2 0x1CE3 JUMP JUMPDEST DUP4 MLOAD PUSH5 0xFFFFFFFFFF AND LT SWAP2 POP PUSH2 0x799 SWAP1 POP JUMP JUMPDEST DUP3 MLOAD PUSH5 0xFFFFFFFFFF AND ISZERO DUP1 ISZERO SWAP1 PUSH2 0x1141 JUMPI POP DUP3 MLOAD PUSH5 0xFFFFFFFFFF AND DUP2 LT ISZERO JUMPDEST SWAP2 POP POP PUSH2 0x799 JUMP JUMPDEST PUSH1 0x0 DUP2 ISZERO DUP1 ISZERO SWAP1 PUSH2 0x115C JUMPI POP PUSH2 0x3FFF DUP3 GT ISZERO JUMPDEST PUSH2 0x1165 JUMPI PUSH1 0x0 DUP1 REVERT JUMPDEST PUSH1 0x80 DUP4 ADD MLOAD PUSH1 0x60 DUP5 ADD MLOAD PUSH2 0xFFFF AND DUP4 EQ ISZERO PUSH2 0x1184 JUMPI PUSH1 0x1 SWAP2 POP POP PUSH2 0x917 JUMP JUMPDEST PUSH1 0x1 PUSH1 0x1 PUSH1 0x70 SHL SUB NOT DUP2 AND ISZERO PUSH2 0x11C9 JUMPI PUSH1 0xF0 DUP2 SWAP1 SHR PUSH2 0x3FFF AND DUP4 DUP2 EQ ISZERO PUSH2 0x11B6 JUMPI POP PUSH1 0x1 PUSH1 0xFE SHL SWAP1 DUP2 AND EQ SWAP1 POP PUSH2 0x917 JUMP JUMPDEST POP PUSH1 0x10 SHL PUSH1 0x1 PUSH1 0x1 PUSH1 0x80 SHL SUB NOT AND PUSH2 0x1184 JUMP JUMPDEST POP PUSH1 0x0 SWAP4 SWAP3 POP POP POP JUMP JUMPDEST PUSH1 0x0 DUP1 PUSH1 0x0 DUP1 PUSH1 0x0 PUSH2 0x11E3 PUSH2 0x1D88 JUMP JUMPDEST PUSH1 0x1 PUSH1 0x1 PUSH1 0xA0 SHL SUB DUP9 AND PUSH1 0x0 SWAP1 DUP2 MSTORE PUSH1 0x20 DUP3 DUP2 MSTORE PUSH1 0x40 DUP1 DUP4 KECCAK256 DUP11 DUP5 MSTORE SWAP1 SWAP2 MSTORE SWAP1 KECCAK256 DUP1 SLOAD PUSH10 0xFFFFFFFFFFFFFFFFFFFF DUP2 AND SWAP7 POP PUSH1 0x1 PUSH1 0x50 SHL SWAP1 DIV PUSH4 0xFFFFFFFF AND SWAP5 POP SWAP1 SWAP2 POP DUP4 ISZERO PUSH2 0x124F JUMPI DUP1 SLOAD PUSH2 0x1248 SWAP1 PUSH1 0x1 PUSH1 0x70 SHL SWAP1 DIV PUSH7 0xFFFFFFFFFFFFFF AND PUSH2 0x1D95 JUMP JUMPDEST SWAP3 POP PUSH2 0x1264 JUMP JUMPDEST DUP1 SLOAD PUSH1 0x1 PUSH1 0x70 SHL SWAP1 DIV PUSH7 0xFFFFFFFFFFFFFF AND SWAP3 POP JUMPDEST SLOAD PUSH1 0x1 PUSH1 0xA8 SHL SWAP1 DIV PUSH1 0xA SWAP1 DUP2 SIGNEXTEND SWAP1 SIGNEXTEND SWAP8 SWAP4 SWAP7 POP SWAP2 SWAP5 POP SWAP3 POP POP JUMP JUMPDEST DUP2 DUP2 MUL PUSH1 0x0 NOT DUP4 EQ ISZERO PUSH2 0x12AF JUMPI DUP2 ISZERO DUP1 PUSH2 0x12A1 JUMPI POP DUP3 DUP3 DUP3 DUP2 PUSH2 0x129E JUMPI INVALID JUMPDEST SDIV EQ JUMPDEST PUSH2 0x12AA JUMPI PUSH1 0x0 DUP1 REVERT JUMPDEST PUSH2 0x917 JUMP JUMPDEST DUP3 ISZERO DUP1 PUSH2 0x12C4 JUMPI POP DUP2 DUP4 DUP3 DUP2 PUSH2 0x12C1 JUMPI INVALID JUMPDEST SDIV EQ JUMPDEST PUSH2 0x917 JUMPI PUSH1 0x0 DUP1 REVERT JUMPDEST DUP2 DUP2 ADD DUP3 DUP2 SLT ISZERO PUSH1 0x0 DUP4 SLT ISZERO EQ PUSH2 0x917 JUMPI PUSH1 0x0 DUP1 REVERT JUMPDEST PUSH1 0x0 DUP1 PUSH1 0x0 PUSH2 0x12F9 DUP7 PUSH1 0x0 ADD MLOAD PUSH2 0xFFFF AND PUSH2 0x18FB JUMP JUMPDEST SWAP1 POP PUSH1 0x0 PUSH2 0x1314 DUP8 PUSH1 0x80 ADD MLOAD DUP4 PUSH2 0x1DA3 SWAP1 SWAP2 SWAP1 PUSH4 0xFFFFFFFF AND JUMP JUMPDEST SWAP1 POP DUP1 PUSH2 0x1329 JUMPI PUSH1 0x0 DUP1 SWAP4 POP SWAP4 POP POP POP PUSH2 0x1391 JUMP JUMPDEST DUP5 DUP1 ISZERO PUSH2 0x1336 JUMPI POP PUSH1 0x0 DUP2 SLT JUMPDEST ISZERO PUSH2 0x136B JUMPI DUP7 MLOAD PUSH2 0x1358 SWAP1 PUSH2 0xFFFF AND DUP8 PUSH2 0x134F DUP5 PUSH2 0x909 JUMP JUMPDEST DUP6 SWAP3 SWAP2 SWAP1 PUSH2 0x1DDB JUMP JUMPDEST SWAP4 POP PUSH2 0x1364 DUP3 DUP3 PUSH2 0x1A05 JUMP JUMPDEST SWAP3 POP PUSH2 0x138E JUMP JUMPDEST DUP7 MLOAD PUSH2 0x137F SWAP1 DUP4 SWAP1 DUP9 SWAP1 PUSH2 0xFFFF AND DUP5 PUSH2 0x1853 JUMP JUMPDEST SWAP4 POP PUSH2 0x138B DUP3 DUP6 PUSH2 0x1A05 JUMP JUMPDEST SWAP3 POP JUMPDEST POP POP JUMPDEST SWAP4 POP SWAP4 SWAP2 POP POP JUMP JUMPDEST DUP3 MLOAD PUSH1 0x0 SWAP1 TIMESTAMP SWAP1 DUP3 SWAP1 PUSH2 0x13AF SWAP1 PUSH2 0xFFFF AND PUSH2 0x1E80 JUMP JUMPDEST SWAP1 POP PUSH1 0x0 PUSH2 0x13C2 DUP3 DUP9 PUSH1 0xC0 ADD MLOAD DUP6 PUSH2 0x1EA6 JUMP JUMPDEST SWAP1 POP PUSH2 0x13D0 DUP8 DUP4 DUP4 DUP9 PUSH2 0x1F89 JUMP JUMPDEST SWAP4 POP PUSH1 0x0 PUSH2 0x13DD DUP4 PUSH2 0x20B6 JUMP JUMPDEST SWAP1 POP PUSH1 0x1 PUSH1 0x1 PUSH1 0xA0 SHL SUB DUP2 AND ISZERO PUSH2 0x146B JUMPI DUP1 PUSH1 0x1 PUSH1 0x1 PUSH1 0xA0 SHL SUB AND PUSH4 0x1D684DD2 DUP9 DUP11 PUSH1 0x0 ADD MLOAD PUSH2 0x1410 DUP13 PUSH1 0x40 ADD MLOAD PUSH2 0xCA2 JUMP JUMPDEST DUP11 DUP14 PUSH1 0xC0 ADD MLOAD DUP12 PUSH1 0x40 MLOAD DUP8 PUSH4 0xFFFFFFFF AND PUSH1 0xE0 SHL DUP2 MSTORE PUSH1 0x4 ADD PUSH2 0x1438 SWAP7 SWAP6 SWAP5 SWAP4 SWAP3 SWAP2 SWAP1 PUSH2 0x4448 JUMP JUMPDEST PUSH1 0x0 PUSH1 0x40 MLOAD DUP1 DUP4 SUB DUP2 PUSH1 0x0 DUP8 DUP1 EXTCODESIZE ISZERO DUP1 ISZERO PUSH2 0x1452 JUMPI PUSH1 0x0 DUP1 REVERT JUMPDEST POP GAS CALL ISZERO DUP1 ISZERO PUSH2 0x1466 JUMPI RETURNDATASIZE PUSH1 0x0 DUP1 RETURNDATACOPY RETURNDATASIZE PUSH1 0x0 REVERT JUMPDEST POP POP POP POP JUMPDEST DUP5 ISZERO PUSH2 0x147B JUMPI PUSH2 0x147B DUP8 DUP7 PUSH2 0x2128 JUMP JUMPDEST POP POP POP POP SWAP4 SWAP3 POP POP POP JUMP JUMPDEST PUSH1 0x0 PUSH2 0x1490 PUSH2 0x1D88 JUMP JUMPDEST PUSH1 0x1 PUSH1 0x1 PUSH1 0xA0 SHL SUB DUP9 AND PUSH1 0x0 SWAP1 DUP2 MSTORE PUSH1 0x20 DUP3 DUP2 MSTORE PUSH1 0x40 DUP1 DUP4 KECCAK256 DUP11 DUP5 MSTORE SWAP1 SWAP2 MSTORE SWAP1 KECCAK256 SWAP1 SWAP2 POP PUSH1 0x1 PUSH1 0x1 PUSH1 0x57 SHL SUB NOT DUP7 SLT DUP1 ISZERO SWAP1 PUSH2 0x14D3 JUMPI POP PUSH1 0x1 PUSH1 0x1 PUSH1 0x57 SHL SUB DUP7 SGT ISZERO JUMPDEST PUSH2 0x14DC JUMPI PUSH1 0x0 DUP1 REVERT JUMPDEST PUSH1 0x0 DUP6 SLT ISZERO DUP1 ISZERO PUSH2 0x14F7 JUMPI POP PUSH10 0xFFFFFFFFFFFFFFFFFFFF DUP6 SGT ISZERO JUMPDEST PUSH2 0x1500 JUMPI PUSH1 0x0 DUP1 REVERT JUMPDEST DUP4 PUSH2 0x1540 JUMPI PUSH7 0xFFFFFFFFFFFFFF DUP4 GT ISZERO PUSH2 0x1519 JUMPI PUSH1 0x0 DUP1 REVERT JUMPDEST DUP1 SLOAD PUSH7 0xFFFFFFFFFFFFFF PUSH1 0x70 SHL NOT AND PUSH1 0x1 PUSH1 0x70 SHL PUSH7 0xFFFFFFFFFFFFFF DUP6 AND MUL OR DUP2 SSTORE PUSH2 0x155A JUMP JUMPDEST DUP1 SLOAD PUSH1 0x1 PUSH1 0x50 SHL SWAP1 DIV PUSH4 0xFFFFFFFF AND DUP5 EQ PUSH2 0x155A JUMPI PUSH1 0x0 DUP1 REVERT JUMPDEST DUP1 SLOAD PUSH1 0xA SWAP7 SWAP1 SWAP7 SIGNEXTEND PUSH1 0x1 PUSH1 0x1 PUSH1 0x58 SHL SUB AND PUSH1 0x1 PUSH1 0xA8 SHL MUL PUSH1 0x1 PUSH1 0x1 PUSH1 0xA8 SHL SUB PUSH10 0xFFFFFFFFFFFFFFFFFFFF SWAP1 SWAP7 AND PUSH10 0xFFFFFFFFFFFFFFFFFFFF NOT PUSH4 0xFFFFFFFF SWAP1 SWAP7 AND PUSH1 0x1 PUSH1 0x50 SHL MUL PUSH4 0xFFFFFFFF PUSH1 0x50 SHL NOT SWAP1 SWAP9 AND SWAP8 SWAP1 SWAP8 OR SWAP5 SWAP1 SWAP5 AND SWAP6 SWAP1 SWAP6 OR SWAP4 SWAP1 SWAP4 AND SWAP2 SWAP1 SWAP2 OR SWAP1 SWAP3 SSTORE POP POP POP POP JUMP JUMPDEST DUP3 PUSH1 0x0 LT DUP1 ISZERO PUSH2 0x15DC JUMPI POP PUSH2 0x3FFF DUP4 GT ISZERO JUMPDEST PUSH2 0x15E5 JUMPI PUSH1 0x0 DUP1 REVERT JUMPDEST DUP2 DUP1 ISZERO PUSH2 0x15F9 JUMPI POP DUP3 DUP5 PUSH1 0x60 ADD MLOAD PUSH2 0xFFFF AND EQ JUMPDEST ISZERO PUSH2 0x1603 JUMPI PUSH2 0x17C4 JUMP JUMPDEST PUSH1 0x80 DUP5 ADD MLOAD PUSH1 0x0 SWAP1 DUP2 JUMPDEST PUSH1 0x1 PUSH1 0x1 PUSH1 0x70 SHL SUB NOT DUP3 AND ISZERO PUSH2 0x177E JUMPI PUSH1 0xF0 DUP3 SWAP1 SHR PUSH2 0x3FFF AND DUP7 DUP2 EQ DUP1 ISZERO PUSH2 0x1632 JUMPI POP DUP6 JUMPDEST ISZERO PUSH2 0x166A JUMPI POP PUSH1 0x80 DUP8 ADD DUP1 MLOAD PUSH1 0x1 PUSH1 0x1 PUSH1 0xF0 SHL SUB NOT DUP7 AND PUSH1 0x10 SWAP1 SWAP4 MUL SWAP3 SWAP1 SWAP3 SHR SWAP2 SWAP1 SWAP2 OR PUSH1 0x1 PUSH1 0x1 PUSH1 0x70 SHL SUB NOT AND SWAP1 MSTORE POP PUSH2 0x17C4 SWAP1 POP JUMP JUMPDEST DUP7 DUP2 EQ DUP1 ISZERO PUSH2 0x1677 JUMPI POP DUP6 ISZERO JUMPDEST ISZERO PUSH2 0x16CC JUMPI PUSH1 0x1 PUSH1 0x1 PUSH1 0xF0 SHL SUB NOT DUP6 AND NOT SWAP3 SWAP1 SWAP3 AND SWAP2 PUSH1 0x3 PUSH1 0xFE SHL DUP4 AND PUSH2 0x16AA JUMPI PUSH1 0x10 DUP4 PUSH1 0x1 PUSH1 0x1 PUSH1 0x70 SHL SUB NOT AND SWAP1 SHL SWAP3 POP JUMPDEST POP PUSH1 0x1 PUSH1 0x1 PUSH1 0x70 SHL SUB NOT SWAP2 DUP3 AND PUSH1 0x10 SWAP1 SWAP2 MUL SHR SWAP2 SWAP1 SWAP2 OR AND PUSH1 0x80 DUP6 ADD MSTORE PUSH2 0x17C4 JUMP JUMPDEST DUP7 DUP2 GT DUP1 ISZERO PUSH2 0x16D8 JUMPI POP DUP6 JUMPDEST ISZERO PUSH2 0x1732 JUMPI PUSH1 0x80 DUP9 DUP2 ADD MLOAD PUSH1 0x1 PUSH1 0x1 PUSH1 0xF0 SHL SUB NOT PUSH1 0xF0 DUP11 SWAP1 SHL DUP9 OR DUP2 AND PUSH1 0x10 DUP7 MUL SHR SWAP7 SWAP1 SWAP7 OR SWAP6 SWAP2 SHL AND ISZERO PUSH2 0x170C JUMPI PUSH1 0x0 DUP1 REVERT JUMPDEST POP PUSH1 0x1 PUSH1 0x1 PUSH1 0x70 SHL SUB NOT SWAP2 DUP3 AND PUSH1 0x1 SWAP2 SWAP1 SWAP2 ADD PUSH1 0x10 MUL SHR SWAP2 SWAP1 SWAP2 OR AND PUSH1 0x80 DUP6 ADD MSTORE PUSH2 0x17C4 JUMP JUMPDEST DUP7 DUP2 GT DUP1 ISZERO PUSH2 0x173F JUMPI POP DUP6 ISZERO JUMPDEST ISZERO PUSH2 0x174D JUMPI POP POP POP POP PUSH2 0x17C4 JUMP JUMPDEST POP PUSH1 0x1 PUSH1 0x1 PUSH1 0xF0 SHL SUB NOT DUP3 AND PUSH1 0x10 DUP3 DUP2 MUL SWAP2 SWAP1 SWAP2 SHR SWAP4 SWAP1 SWAP4 OR SWAP3 SWAP2 SWAP1 SWAP2 SHL PUSH1 0x1 PUSH1 0x1 PUSH1 0x80 SHL SUB NOT AND SWAP1 PUSH1 0x1 ADD PUSH2 0x160D JUMP JUMPDEST DUP5 PUSH2 0x178B JUMPI POP POP POP PUSH2 0x17C4 JUMP JUMPDEST PUSH1 0x9 DUP2 LT PUSH2 0x1798 JUMPI PUSH1 0x0 DUP1 REVERT JUMPDEST PUSH1 0x1 PUSH1 0x1 PUSH1 0xF0 SHL SUB NOT PUSH1 0xF0 DUP8 SWAP1 SHL DUP6 OR AND PUSH1 0x10 SWAP1 SWAP2 MUL SHR SWAP2 SWAP1 SWAP2 OR PUSH1 0x1 PUSH1 0x1 PUSH1 0x70 SHL SUB NOT AND PUSH1 0x80 DUP7 ADD MSTORE POP JUMPDEST POP POP POP POP JUMP JUMPDEST PUSH1 0x0 DUP1 PUSH2 0x917 PUSH1 0x1 PUSH2 0x2147 JUMP JUMPDEST PUSH1 0x0 DUP1 PUSH1 0x0 DUP1 PUSH1 0x0 DUP1 PUSH2 0x17E8 PUSH2 0x2160 JUMP JUMPDEST PUSH1 0x1 PUSH1 0x1 PUSH1 0xA0 SHL SUB SWAP1 SWAP8 AND PUSH1 0x0 SWAP1 DUP2 MSTORE PUSH1 0x20 SWAP8 SWAP1 SWAP8 MSTORE POP POP PUSH1 0x40 SWAP1 SWAP5 KECCAK256 SLOAD PUSH2 0xFFFF DUP2 AND SWAP6 PUSH4 0xFFFFFFFF PUSH3 0x10000 DUP4 DIV DUP2 AND SWAP7 POP PUSH1 0x1 PUSH1 0x30 SHL DUP4 DIV AND SWAP5 POP PUSH1 0xFF PUSH1 0x1 PUSH1 0x50 SHL DUP4 DIV AND SWAP4 POP PUSH1 0x1 PUSH1 0x58 SHL SWAP1 SWAP2 DIV PUSH1 0xD0 SHL SWAP2 POP JUMP JUMPDEST PUSH2 0x1848 PUSH2 0x3F71 JUMP JUMPDEST PUSH2 0x917 DUP3 PUSH1 0x1 PUSH2 0x216D JUMP JUMPDEST DUP1 PUSH1 0x5 DUP6 PUSH1 0x60 ADD MLOAD PUSH1 0x5 DUP2 GT ISZERO PUSH2 0x1866 JUMPI INVALID JUMPDEST EQ ISZERO PUSH2 0x188B JUMPI PUSH1 0x0 PUSH2 0x1877 DUP5 PUSH2 0x1840 JUMP JUMPDEST SWAP1 POP PUSH2 0x1887 DUP2 PUSH1 0x0 ADD MLOAD DUP5 PUSH2 0x221B JUMP JUMPDEST SWAP3 POP POP JUMPDEST PUSH1 0x0 DUP3 SGT ISZERO PUSH2 0x18B7 JUMPI PUSH1 0x0 PUSH2 0x18A1 DUP7 DUP7 DUP6 PUSH2 0x22AA JUMP JUMPDEST SWAP1 POP DUP6 PUSH1 0x20 ADD MLOAD ISZERO PUSH2 0x18B1 JUMPI DUP1 SWAP2 POP JUMPDEST POP PUSH2 0x10ED JUMP JUMPDEST PUSH1 0x3 DUP6 PUSH1 0x60 ADD MLOAD PUSH1 0x5 DUP2 GT ISZERO PUSH2 0x18C9 JUMPI INVALID JUMPDEST EQ ISZERO PUSH2 0x18E6 JUMPI PUSH2 0x18E1 DUP5 PUSH2 0x18DC DUP5 PUSH2 0x909 JUMP JUMPDEST PUSH2 0x239D JUMP JUMPDEST PUSH2 0x10ED JUMP JUMPDEST DUP5 MLOAD PUSH2 0x10ED SWAP1 DUP6 PUSH2 0x18F6 DUP6 PUSH2 0x909 JUMP JUMPDEST PUSH2 0x23D3 JUMP JUMPDEST PUSH2 0x1903 PUSH2 0x3F71 JUMP JUMPDEST PUSH2 0x917 DUP3 PUSH1 0x0 PUSH2 0x216D JUMP JUMPDEST PUSH1 0x0 DUP1 PUSH1 0x5 DUP6 PUSH1 0x60 ADD MLOAD PUSH1 0x5 DUP2 GT ISZERO PUSH2 0x1923 JUMPI INVALID JUMPDEST EQ PUSH2 0x1935 JUMPI PUSH4 0x70A08231 PUSH1 0xE0 SHL PUSH2 0x193E JUMP JUMPDEST PUSH4 0xED1279F PUSH1 0xE1 SHL JUMPDEST SWAP1 POP PUSH1 0x0 PUSH2 0x1951 DUP7 PUSH1 0x0 ADD MLOAD ADDRESS DUP5 PUSH2 0x244A JUMP JUMPDEST SWAP1 POP PUSH1 0x5 DUP7 PUSH1 0x60 ADD MLOAD PUSH1 0x5 DUP2 GT ISZERO PUSH2 0x1965 JUMPI INVALID JUMPDEST EQ ISZERO PUSH2 0x198C JUMPI PUSH1 0x0 PUSH2 0x197A DUP7 PUSH2 0xFFFF AND PUSH2 0x1840 JUMP JUMPDEST SWAP1 POP PUSH2 0x1986 DUP2 DUP7 PUSH2 0x255C JUMP JUMPDEST POP PUSH2 0x19D5 JUMP JUMPDEST PUSH1 0x1 DUP7 PUSH1 0x60 ADD MLOAD PUSH1 0x5 DUP2 GT ISZERO PUSH2 0x199E JUMPI INVALID JUMPDEST EQ ISZERO PUSH2 0x19B3 JUMPI PUSH2 0x19AE DUP7 DUP6 PUSH2 0x25CF JUMP JUMPDEST PUSH2 0x19D5 JUMP JUMPDEST PUSH1 0x2 DUP7 PUSH1 0x60 ADD MLOAD PUSH1 0x5 DUP2 GT ISZERO PUSH2 0x19C5 JUMPI INVALID JUMPDEST EQ ISZERO PUSH2 0x91 JUMPI PUSH2 0x19AE DUP7 DUP6 PUSH2 0x2671 JUMP JUMPDEST PUSH1 0x0 PUSH2 0x19E6 DUP8 PUSH1 0x0 ADD MLOAD ADDRESS DUP6 PUSH2 0x244A JUMP JUMPDEST SWAP1 POP PUSH2 0x19FA PUSH2 0x19F5 DUP3 DUP5 PUSH2 0x26CD JUMP JUMPDEST PUSH2 0xDA5 JUMP JUMPDEST SWAP8 SWAP7 POP POP POP POP POP POP POP JUMP JUMPDEST PUSH1 0x0 PUSH4 0x5F5E100 DUP4 PUSH1 0x40 ADD MLOAD EQ ISZERO PUSH2 0x1A1E JUMPI POP DUP1 PUSH2 0x917 JUMP JUMPDEST PUSH1 0x40 DUP4 ADD MLOAD PUSH2 0xE9A SWAP1 PUSH2 0x1A35 DUP5 PUSH4 0x5F5E100 PUSH2 0x127F JUMP JUMPDEST SWAP1 PUSH2 0x272A JUMP JUMPDEST PUSH1 0x60 ADD MLOAD PUSH2 0xFFFF AND ISZERO ISZERO SWAP1 JUMP JUMPDEST PUSH2 0x1A51 DUP3 PUSH2 0x1A3B JUMP JUMPDEST PUSH2 0x1A5A JUMPI PUSH1 0x0 DUP1 REVERT JUMPDEST PUSH1 0x60 DUP3 ADD MLOAD PUSH2 0xFFFF AND PUSH1 0x0 JUMPDEST DUP3 MLOAD DUP2 LT ISZERO PUSH2 0x1B09 JUMPI PUSH1 0x0 DUP4 DUP3 DUP2 MLOAD DUP2 LT PUSH2 0x1A7D JUMPI INVALID JUMPDEST PUSH1 0x20 MUL PUSH1 0x20 ADD ADD MLOAD SWAP1 POP DUP1 PUSH1 0x60 ADD MLOAD PUSH1 0x0 EQ ISZERO PUSH2 0x1A9A JUMPI POP PUSH2 0x1B01 JUMP JUMPDEST DUP1 MLOAD DUP4 EQ PUSH2 0x1AA7 JUMPI PUSH1 0x0 DUP1 REVERT JUMPDEST PUSH1 0x40 DUP2 ADD MLOAD PUSH1 0x1 EQ PUSH2 0x1AB8 JUMPI PUSH1 0x0 DUP1 REVERT JUMPDEST PUSH1 0x0 PUSH2 0x1ADA DUP8 DUP6 DUP5 PUSH1 0x20 ADD MLOAD DUP10 PUSH1 0x0 ADD MLOAD PUSH5 0xFFFFFFFFFF AND DUP7 PUSH1 0x60 ADD MLOAD PUSH2 0x275B JUMP JUMPDEST SWAP1 POP PUSH1 0x0 DUP2 SLT ISZERO PUSH2 0x1AFE JUMPI PUSH1 0x20 DUP7 ADD DUP1 MLOAD PUSH1 0x1 PUSH1 0xF8 SHL OR PUSH1 0x1 PUSH1 0x1 PUSH1 0xF8 SHL SUB NOT AND SWAP1 MSTORE JUMPDEST POP POP JUMPDEST PUSH1 0x1 ADD PUSH2 0x1A66 JUMP JUMPDEST POP POP POP POP POP JUMP JUMPDEST PUSH2 0x1B18 PUSH2 0x3FA0 JUMP JUMPDEST PUSH2 0x1B20 PUSH2 0x3FA0 JUMP JUMPDEST PUSH1 0xFF DUP5 AND PUSH2 0x1B2F JUMPI SWAP1 POP PUSH2 0xE9A JUMP JUMPDEST PUSH2 0x1B39 DUP6 DUP6 PUSH2 0x28C5 JUMP JUMPDEST DUP2 MSTORE PUSH1 0xFF DUP5 AND PUSH1 0x60 DUP3 ADD MSTORE DUP3 PUSH8 0xFFFFFFFFFFFFFFFF DUP2 GT DUP1 ISZERO PUSH2 0x1B5B JUMPI PUSH1 0x0 DUP1 REVERT JUMPDEST POP PUSH1 0x40 MLOAD SWAP1 DUP1 DUP3 MSTORE DUP1 PUSH1 0x20 MUL PUSH1 0x20 ADD DUP3 ADD PUSH1 0x40 MSTORE DUP1 ISZERO PUSH2 0x1B95 JUMPI DUP2 PUSH1 0x20 ADD JUMPDEST PUSH2 0x1B82 PUSH2 0x3FC8 JUMP JUMPDEST DUP2 MSTORE PUSH1 0x20 ADD SWAP1 PUSH1 0x1 SWAP1 SUB SWAP1 DUP2 PUSH2 0x1B7A JUMPI SWAP1 POP JUMPDEST POP PUSH1 0x20 DUP3 ADD MSTORE SWAP5 SWAP4 POP POP POP POP JUMP JUMPDEST PUSH1 0x0 JUMPDEST DUP2 MLOAD DUP2 LT ISZERO PUSH2 0x691 JUMPI PUSH1 0x0 DUP3 DUP3 DUP2 MLOAD DUP2 LT PUSH2 0x1BBD JUMPI INVALID JUMPDEST PUSH1 0x20 MUL PUSH1 0x20 ADD ADD MLOAD SWAP1 POP DUP1 PUSH1 0x60 ADD MLOAD PUSH1 0x0 EQ ISZERO PUSH2 0x1BDA JUMPI POP PUSH2 0x1BF9 JUMP JUMPDEST PUSH2 0x1BF7 DUP5 DUP3 PUSH1 0x0 ADD MLOAD DUP4 PUSH1 0x20 ADD MLOAD DUP5 PUSH1 0x40 ADD MLOAD DUP6 PUSH1 0x60 ADD MLOAD PUSH2 0x28EE JUMP JUMPDEST POP JUMPDEST PUSH1 0x1 ADD PUSH2 0x1BA6 JUMP JUMPDEST PUSH1 0x0 DUP1 DUP1 DUP1 PUSH2 0x1C10 DUP7 DUP9 PUSH2 0x29EB JUMP JUMPDEST PUSH5 0xFFFFFFFFFF DUP2 AND DUP13 MSTORE SWAP3 SWAP7 POP SWAP1 SWAP5 POP SWAP3 POP SWAP1 POP PUSH2 0x1C2D DUP9 PUSH2 0x10F5 JUMP JUMPDEST ISZERO PUSH2 0x1C37 JUMPI PUSH1 0x0 DUP1 REVERT JUMPDEST PUSH1 0xFF DUP3 AND PUSH1 0x40 DUP10 ADD MSTORE DUP5 PUSH2 0x1C56 JUMPI PUSH1 0x7 PUSH1 0xFF DUP4 AND GT ISZERO PUSH2 0x1C56 JUMPI PUSH1 0x0 DUP1 REVERT JUMPDEST DUP4 ISZERO PUSH2 0x1C79 JUMPI PUSH1 0x20 DUP9 ADD DUP1 MLOAD PUSH1 0x1 PUSH1 0xF8 SHL OR PUSH1 0x1 PUSH1 0x1 PUSH1 0xF8 SHL SUB NOT AND SWAP1 MSTORE PUSH2 0x1C88 JUMP JUMPDEST PUSH1 0x20 DUP9 ADD DUP1 MLOAD PUSH1 0x7F PUSH1 0xF9 SHL AND SWAP1 MSTORE JUMPDEST PUSH2 0x1C95 DUP9 PUSH1 0x80 ADD MLOAD PUSH2 0x2C2A JUMP JUMPDEST PUSH1 0x1 PUSH1 0x1 PUSH1 0x70 SHL SUB NOT AND PUSH1 0x80 DUP10 ADD MSTORE PUSH1 0x0 JUMPDEST DUP4 ISZERO PUSH2 0x1CD8 JUMPI PUSH1 0xF0 DUP5 SWAP1 SHR DUP2 DUP2 EQ PUSH2 0x1CCA JUMPI PUSH2 0x1CCA DUP11 DUP3 PUSH1 0x1 PUSH1 0x1 PUSH1 0xFF SHL PUSH2 0x15CA JUMP JUMPDEST PUSH1 0x10 SWAP5 SWAP1 SWAP5 SHL SWAP4 SWAP1 POP PUSH2 0x1CA7 JUMP JUMPDEST POP POP POP POP POP POP POP POP POP JUMP JUMPDEST PUSH1 0x0 PUSH3 0x15180 DUP3 LT ISZERO PUSH2 0x1CF5 JUMPI PUSH1 0x0 DUP1 REVERT JUMPDEST POP PUSH3 0x15180 DUP2 MOD SWAP1 SUB SWAP1 JUMP JUMPDEST PUSH1 0x0 DUP2 PUSH2 0x1D10 JUMPI POP PUSH1 0x0 PUSH2 0x917 JUMP JUMPDEST PUSH1 0x0 DUP3 SGT PUSH2 0x1D1D JUMPI PUSH1 0x0 DUP1 REVERT JUMPDEST PUSH1 0x0 PUSH2 0x1D28 DUP5 PUSH2 0x1840 JUMP JUMPDEST SWAP1 POP PUSH1 0x0 PUSH2 0x1D39 DUP3 PUSH1 0x0 ADD MLOAD PUSH2 0x2CA5 JUMP JUMPDEST SWAP1 POP PUSH1 0x2 DUP2 SDIV PUSH12 0x33B2E3C9FD0803CE8000000 PUSH1 0x1 PUSH1 0x1 PUSH1 0xFF SHL SUB DUP3 SWAP1 SUB SDIV DUP6 SGT ISZERO PUSH2 0x1D64 JUMPI PUSH1 0x0 DUP1 REVERT JUMPDEST DUP2 DUP2 PUSH12 0x33B2E3C9FD0803CE8000000 DUP8 MUL ADD DUP2 PUSH2 0x1D7D JUMPI INVALID JUMPDEST SDIV SWAP7 SWAP6 POP POP POP POP POP POP JUMP JUMPDEST PUSH1 0x0 DUP1 PUSH2 0x917 PUSH1 0x6 PUSH2 0x2147 JUMP JUMPDEST PUSH1 0x8 DUP2 SWAP1 SHR PUSH1 0xFF SWAP1 SWAP2 AND SHL SWAP1 JUMP JUMPDEST PUSH1 0x0 PUSH4 0x5F5E100 DUP4 PUSH1 0x40 ADD MLOAD EQ ISZERO PUSH2 0x1DBC JUMPI POP DUP1 PUSH2 0x917 JUMP JUMPDEST PUSH2 0xE9A PUSH4 0x5F5E100 PUSH2 0x1A35 DUP6 PUSH1 0x40 ADD MLOAD DUP6 PUSH2 0x127F SWAP1 SWAP2 SWAP1 PUSH4 0xFFFFFFFF AND JUMP JUMPDEST PUSH1 0x0 DUP1 PUSH1 0x2 DUP7 PUSH1 0x60 ADD MLOAD PUSH1 0x5 DUP2 GT ISZERO PUSH2 0x1DF0 JUMPI INVALID JUMPDEST EQ ISZERO PUSH2 0x1E08 JUMPI PUSH2 0x1E01 DUP7 DUP6 DUP6 PUSH2 0x2D30 JUMP JUMPDEST SWAP1 POP PUSH2 0x1E65 JUMP JUMPDEST PUSH1 0x0 PUSH2 0x1E13 DUP7 PUSH2 0x1840 JUMP JUMPDEST SWAP1 POP PUSH1 0x5 DUP8 PUSH1 0x60 ADD MLOAD PUSH1 0x5 DUP2 GT ISZERO PUSH2 0x1E27 JUMPI INVALID JUMPDEST EQ ISZERO PUSH2 0x1E3F JUMPI PUSH2 0x1E38 DUP2 DUP7 DUP7 PUSH2 0x2DED JUMP JUMPDEST SWAP2 POP PUSH2 0x1E63 JUMP JUMPDEST PUSH1 0x1 DUP8 PUSH1 0x60 ADD MLOAD PUSH1 0x5 DUP2 GT ISZERO PUSH2 0x1E51 JUMPI INVALID JUMPDEST EQ ISZERO PUSH2 0x91 JUMPI PUSH2 0x1E38 DUP8 DUP3 DUP8 DUP8 PUSH2 0x2E9E JUMP JUMPDEST POP JUMPDEST PUSH2 0x1E76 PUSH2 0x1E71 DUP3 PUSH2 0xDA5 JUMP JUMPDEST PUSH2 0x909 JUMP JUMPDEST SWAP7 SWAP6 POP POP POP POP POP POP JUMP JUMPDEST PUSH1 0x0 DUP1 PUSH2 0x1E8B PUSH2 0x2F9C JUMP JUMPDEST PUSH1 0x0 SWAP4 DUP5 MSTORE PUSH1 0x20 MSTORE POP POP PUSH1 0x40 SWAP1 KECCAK256 SLOAD PUSH1 0x1 PUSH1 0x1 PUSH1 0xA0 SHL SUB AND SWAP1 JUMP JUMPDEST PUSH1 0x0 DUP1 PUSH1 0x0 PUSH2 0x1EB5 DUP7 DUP6 PUSH2 0x2FA9 JUMP JUMPDEST POP SWAP2 POP SWAP2 POP PUSH1 0x0 PUSH2 0x1EC4 PUSH2 0x303F JUMP JUMPDEST PUSH1 0x1 PUSH1 0x1 PUSH1 0xA0 SHL SUB DUP9 AND PUSH1 0x0 SWAP1 DUP2 MSTORE PUSH1 0x20 DUP3 SWAP1 MSTORE PUSH1 0x40 DUP2 KECCAK256 SWAP2 SWAP3 POP PUSH2 0x1EE9 DUP6 DUP10 PUSH2 0x12CD JUMP JUMPDEST SWAP1 POP DUP1 PUSH1 0x0 SGT ISZERO DUP1 ISZERO PUSH2 0x1F02 JUMPI POP PUSH1 0x1 PUSH1 0x1 PUSH1 0x60 SHL SUB DUP2 LT JUMPDEST PUSH2 0x1F0B JUMPI PUSH1 0x0 DUP1 REVERT JUMPDEST DUP2 SLOAD PUSH12 0xFFFFFFFFFFFFFFFFFFFFFFFF NOT AND PUSH1 0x1 PUSH1 0x1 PUSH1 0x60 SHL SUB DUP3 AND OR PUSH16 0xFFFFFFFFFFFFFFFFFFFFFFFFFFFFFFFF PUSH1 0x60 SHL NOT AND PUSH1 0x1 PUSH1 0x60 SHL PUSH1 0x1 PUSH1 0x1 PUSH1 0x80 SHL SUB DUP7 AND MUL OR DUP3 SSTORE PUSH4 0xFFFFFFFF DUP8 LT PUSH2 0x1F60 JUMPI PUSH1 0x0 DUP1 REVERT JUMPDEST POP DUP1 SLOAD PUSH4 0xFFFFFFFF DUP8 AND PUSH1 0x1 PUSH1 0xE0 SHL MUL PUSH1 0x1 PUSH1 0x1 PUSH1 0xE0 SHL SUB SWAP1 SWAP2 AND OR SWAP1 SSTORE POP SWAP2 POP POP SWAP4 SWAP3 POP POP POP JUMP JUMPDEST PUSH1 0xE0 DUP5 ADD MLOAD PUSH1 0x0 SWAP1 ISZERO PUSH2 0x204A JUMPI PUSH20 0x0 PUSH4 0xE0C01A72 DUP6 PUSH2 0x1FBE DUP9 PUSH1 0x40 ADD MLOAD PUSH2 0xCA2 JUMP JUMPDEST DUP9 PUSH1 0xE0 ADD MLOAD DUP10 PUSH2 0x100 ADD MLOAD PUSH1 0x40 MLOAD DUP6 PUSH4 0xFFFFFFFF AND PUSH1 0xE0 SHL DUP2 MSTORE PUSH1 0x4 ADD PUSH2 0x1FE8 SWAP5 SWAP4 SWAP3 SWAP2 SWAP1 PUSH2 0x44CF JUMP JUMPDEST PUSH1 0x20 PUSH1 0x40 MLOAD DUP1 DUP4 SUB DUP2 DUP7 DUP1 EXTCODESIZE ISZERO DUP1 ISZERO PUSH2 0x2000 JUMPI PUSH1 0x0 DUP1 REVERT JUMPDEST POP GAS DELEGATECALL ISZERO DUP1 ISZERO PUSH2 0x2014 JUMPI RETURNDATASIZE PUSH1 0x0 DUP1 RETURNDATACOPY RETURNDATASIZE PUSH1 0x0 REVERT JUMPDEST POP POP POP POP PUSH1 0x40 MLOAD RETURNDATASIZE PUSH1 0x1F NOT PUSH1 0x1F DUP3 ADD AND DUP3 ADD DUP1 PUSH1 0x40 MSTORE POP DUP2 ADD SWAP1 PUSH2 0x2038 SWAP2 SWAP1 PUSH2 0x4385 JUMP JUMPDEST PUSH1 0x0 PUSH1 0xE0 DUP8 ADD DUP2 SWAP1 MSTORE PUSH2 0x100 DUP8 ADD MSTORE SWAP1 POP JUMPDEST PUSH2 0x208C PUSH2 0x2085 DUP7 PUSH2 0x100 ADD MLOAD PUSH2 0x207F PUSH8 0xDE0B6B3A7640000 PUSH2 0x2079 DUP9 PUSH2 0x2073 DUP13 PUSH1 0x40 ADD MLOAD PUSH2 0xCA2 JUMP JUMPDEST SWAP1 PUSH2 0x304C JUMP JUMPDEST SWAP1 PUSH2 0x30A5 JUMP JUMPDEST SWAP1 PUSH2 0x26CD JUMP JUMPDEST DUP3 SWAP1 PUSH2 0x310C JUMP JUMPDEST SWAP1 POP PUSH2 0x20A4 PUSH8 0xDE0B6B3A7640000 PUSH2 0x2079 DUP5 DUP7 PUSH2 0x304C JUMP JUMPDEST DUP6 PUSH2 0x100 ADD DUP2 DUP2 MSTORE POP POP SWAP5 SWAP4 POP POP POP POP JUMP JUMPDEST PUSH1 0x0 DUP1 PUSH2 0x20C1 PUSH2 0x2160 JUMP JUMPDEST PUSH1 0x1 PUSH1 0x1 PUSH1 0xA0 SHL SUB DUP5 AND PUSH1 0x0 SWAP1 DUP2 MSTORE PUSH1 0x20 DUP3 SWAP1 MSTORE PUSH1 0x40 SWAP1 KECCAK256 DUP1 SLOAD SWAP2 SWAP3 POP SWAP1 PUSH1 0x1 PUSH1 0xF8 SHL SWAP1 DIV PUSH1 0xFF AND ISZERO PUSH2 0x211D JUMPI PUSH2 0x20F6 PUSH2 0x3166 JUMP JUMPDEST PUSH1 0x1 PUSH1 0x1 PUSH1 0xA0 SHL SUB DUP1 DUP7 AND PUSH1 0x0 SWAP1 DUP2 MSTORE PUSH1 0x20 SWAP3 SWAP1 SWAP3 MSTORE PUSH1 0x40 SWAP1 SWAP2 KECCAK256 SLOAD AND SWAP3 POP PUSH2 0x799 SWAP2 POP POP JUMP JUMPDEST PUSH1 0x0 SWAP3 POP POP POP PUSH2 0x799 JUMP JUMPDEST PUSH2 0xD00 PUSH20 0xCFEAEAD4947F0705A14EC42AC3D44129E1EF3ED5 DUP4 DUP4 PUSH2 0x23D3 JUMP JUMPDEST PUSH1 0x0 PUSH3 0xF4240 DUP3 PUSH1 0x1A DUP2 GT ISZERO PUSH2 0x2159 JUMPI INVALID JUMPDEST ADD SWAP3 SWAP2 POP POP JUMP JUMPDEST PUSH1 0x0 DUP1 PUSH2 0x917 PUSH1 0x2 PUSH2 0x2147 JUMP JUMPDEST PUSH2 0x2175 PUSH2 0x3F71 JUMP JUMPDEST PUSH1 0x0 PUSH2 0x217F PUSH2 0x3173 JUMP JUMPDEST PUSH1 0x0 DUP6 DUP2 MSTORE PUSH1 0x20 DUP3 DUP2 MSTORE PUSH1 0x40 DUP1 DUP4 KECCAK256 DUP8 ISZERO ISZERO DUP5 MSTORE DUP3 MSTORE SWAP2 DUP3 SWAP1 KECCAK256 DUP3 MLOAD PUSH1 0xA0 DUP2 ADD DUP5 MSTORE DUP2 SLOAD PUSH1 0x1 PUSH1 0x1 PUSH1 0xA0 SHL SUB DUP2 AND DUP3 MSTORE PUSH1 0xFF PUSH1 0x1 PUSH1 0xA0 SHL DUP3 DIV DUP2 AND ISZERO ISZERO SWAP5 DUP4 ADD SWAP5 SWAP1 SWAP5 MSTORE PUSH1 0x1 PUSH1 0xB0 SHL DUP2 DIV DUP5 AND PUSH1 0xA EXP SWAP5 DUP3 ADD SWAP5 SWAP1 SWAP5 MSTORE SWAP4 SWAP5 POP SWAP3 SWAP2 PUSH1 0x60 DUP4 ADD SWAP2 PUSH1 0x1 PUSH1 0xA8 SHL SWAP1 SWAP2 DIV AND PUSH1 0x5 DUP2 GT ISZERO PUSH2 0x21F4 JUMPI INVALID JUMPDEST DUP2 MSTORE SWAP2 SLOAD PUSH1 0x1 PUSH1 0xB8 SHL SWAP1 DIV PUSH9 0xFFFFFFFFFFFFFFFFFF AND PUSH1 0x20 SWAP1 SWAP3 ADD SWAP2 SWAP1 SWAP2 MSTORE SWAP5 SWAP4 POP POP POP POP JUMP JUMPDEST PUSH1 0x0 DUP2 PUSH2 0x222A JUMPI POP PUSH1 0x0 PUSH2 0x917 JUMP JUMPDEST PUSH1 0x0 PUSH2 0x2235 DUP5 PUSH2 0x2CA5 JUMP JUMPDEST SWAP1 POP PUSH1 0x0 PUSH2 0x2242 DUP5 PUSH2 0x3180 JUMP JUMPDEST SWAP1 POP DUP2 PUSH12 0x19D971E4FE8401E74000001 PUSH1 0x1 PUSH1 0xFF SHL SUB DUP2 PUSH2 0x225F JUMPI INVALID JUMPDEST SDIV DUP2 SGT ISZERO PUSH2 0x226C JUMPI PUSH1 0x0 DUP1 REVERT JUMPDEST PUSH12 0x33B2E3C9FD0803CE8000000 PUSH12 0x19D971E4FE8401E74000000 DUP4 DUP4 MUL ADD SDIV PUSH1 0x0 DUP6 SGT PUSH2 0x22A1 JUMPI PUSH2 0x229C DUP2 PUSH2 0x909 JUMP JUMPDEST PUSH2 0x1E76 JUMP JUMPDEST SWAP6 SWAP5 POP POP POP POP POP JUMP JUMPDEST PUSH1 0x0 DUP1 DUP1 DUP1 PUSH1 0x5 DUP8 PUSH1 0x60 ADD MLOAD PUSH1 0x5 DUP2 GT ISZERO PUSH2 0x22C1 JUMPI INVALID JUMPDEST EQ PUSH2 0x22D3 JUMPI PUSH4 0x70A08231 PUSH1 0xE0 SHL PUSH2 0x22DC JUMP JUMPDEST PUSH4 0xED1279F PUSH1 0xE1 SHL JUMPDEST SWAP1 POP DUP7 PUSH1 0x20 ADD MLOAD ISZERO PUSH2 0x22F8 JUMPI DUP7 MLOAD PUSH2 0x22F5 SWAP1 ADDRESS DUP4 PUSH2 0x244A JUMP JUMPDEST SWAP3 POP JUMPDEST DUP7 MLOAD PUSH2 0x2305 SWAP1 DUP8 DUP8 PUSH2 0x31A1 JUMP JUMPDEST DUP7 PUSH1 0x20 ADD MLOAD DUP1 PUSH2 0x2319 JUMPI POP PUSH1 0x0 DUP8 PUSH1 0x80 ADD MLOAD GT JUMPDEST ISZERO PUSH2 0x232E JUMPI DUP7 MLOAD PUSH2 0x232B SWAP1 ADDRESS DUP4 PUSH2 0x244A JUMP JUMPDEST SWAP2 POP JUMPDEST PUSH1 0x80 DUP8 ADD MLOAD ISZERO PUSH2 0x2369 JUMPI PUSH1 0x0 PUSH2 0x234C DUP9 PUSH2 0x2347 DUP6 PUSH2 0xDA5 JUMP JUMPDEST PUSH2 0x1A05 JUMP JUMPDEST SWAP1 POP PUSH2 0x235B DUP9 PUSH1 0x80 ADD MLOAD PUSH2 0xDA5 JUMP JUMPDEST DUP2 SGT ISZERO PUSH2 0x2367 JUMPI PUSH1 0x0 DUP1 REVERT JUMPDEST POP JUMPDEST DUP7 PUSH1 0x20 ADD MLOAD ISZERO PUSH2 0x238A JUMPI PUSH2 0x2380 PUSH2 0x19F5 DUP4 DUP6 PUSH2 0x26CD JUMP JUMPDEST SWAP4 POP POP POP POP PUSH2 0xE9A JUMP JUMPDEST PUSH2 0x2380 DUP6 PUSH2 0xDA5 JUMP JUMPDEST POP POP POP SWAP4 SWAP3 POP POP POP JUMP JUMPDEST PUSH1 0x40 MLOAD PUSH1 0x1 PUSH1 0x1 PUSH1 0xA0 SHL SUB DUP4 AND SWAP1 DUP3 ISZERO PUSH2 0x8FC MUL SWAP1 DUP4 SWAP1 PUSH1 0x0 DUP2 DUP2 DUP2 DUP6 DUP9 DUP9 CALL SWAP4 POP POP POP POP ISZERO DUP1 ISZERO PUSH2 0x691 JUMPI RETURNDATASIZE PUSH1 0x0 DUP1 RETURNDATACOPY RETURNDATASIZE PUSH1 0x0 REVERT JUMPDEST DUP3 PUSH1 0x1 PUSH1 0x1 PUSH1 0xA0 SHL SUB AND PUSH4 0xA9059CBB DUP4 DUP4 PUSH1 0x40 MLOAD DUP4 PUSH4 0xFFFFFFFF AND PUSH1 0xE0 SHL DUP2 MSTORE PUSH1 0x4 ADD DUP1 DUP4 PUSH1 0x1 PUSH1 0x1 PUSH1 0xA0 SHL SUB AND DUP2 MSTORE PUSH1 0x20 ADD DUP3 DUP2 MSTORE PUSH1 0x20 ADD SWAP3 POP POP POP PUSH1 0x0 PUSH1 0x40 MLOAD DUP1 DUP4 SUB DUP2 PUSH1 0x0 DUP8 DUP1 EXTCODESIZE ISZERO DUP1 ISZERO PUSH2 0x242A JUMPI PUSH1 0x0 DUP1 REVERT JUMPDEST POP GAS CALL ISZERO DUP1 ISZERO PUSH2 0x243E JUMPI RETURNDATASIZE PUSH1 0x0 DUP1 RETURNDATACOPY RETURNDATASIZE PUSH1 0x0 REVERT JUMPDEST POP POP POP POP PUSH2 0x691 PUSH2 0x31F9 JUMP JUMPDEST PUSH1 0x40 DUP1 MLOAD PUSH1 0x1 PUSH1 0x1 PUSH1 0xA0 SHL SUB DUP5 DUP2 AND PUSH1 0x24 DUP1 DUP5 ADD SWAP2 SWAP1 SWAP2 MSTORE DUP4 MLOAD DUP1 DUP5 SUB SWAP1 SWAP2 ADD DUP2 MSTORE PUSH1 0x44 SWAP1 SWAP3 ADD DUP4 MSTORE PUSH1 0x20 DUP3 ADD DUP1 MLOAD PUSH1 0x1 PUSH1 0x1 PUSH1 0xE0 SHL SUB AND PUSH1 0x1 PUSH1 0x1 PUSH1 0xE0 SHL SUB NOT DUP7 AND OR DUP2 MSTORE SWAP3 MLOAD DUP3 MLOAD PUSH1 0x0 SWAP5 DUP6 SWAP5 DUP6 SWAP5 DUP11 AND SWAP4 SWAP1 SWAP3 SWAP1 SWAP2 DUP3 SWAP2 DUP1 DUP4 DUP4 JUMPDEST PUSH1 0x20 DUP4 LT PUSH2 0x24C7 JUMPI DUP1 MLOAD DUP3 MSTORE PUSH1 0x1F NOT SWAP1 SWAP3 ADD SWAP2 PUSH1 0x20 SWAP2 DUP3 ADD SWAP2 ADD PUSH2 0x24A8 JUMP JUMPDEST PUSH1 0x1 DUP4 PUSH1 0x20 SUB PUSH2 0x100 EXP SUB DUP1 NOT DUP3 MLOAD AND DUP2 DUP5 MLOAD AND DUP1 DUP3 OR DUP6 MSTORE POP POP POP POP POP POP SWAP1 POP ADD SWAP2 POP POP PUSH1 0x0 PUSH1 0x40 MLOAD DUP1 DUP4 SUB DUP2 DUP6 GAS STATICCALL SWAP2 POP POP RETURNDATASIZE DUP1 PUSH1 0x0 DUP2 EQ PUSH2 0x2527 JUMPI PUSH1 0x40 MLOAD SWAP2 POP PUSH1 0x1F NOT PUSH1 0x3F RETURNDATASIZE ADD AND DUP3 ADD PUSH1 0x40 MSTORE RETURNDATASIZE DUP3 MSTORE RETURNDATASIZE PUSH1 0x0 PUSH1 0x20 DUP5 ADD RETURNDATACOPY PUSH2 0x252C JUMP JUMPDEST PUSH1 0x60 SWAP2 POP JUMPDEST POP SWAP2 POP SWAP2 POP DUP2 PUSH2 0x253B JUMPI PUSH1 0x0 DUP1 REVERT JUMPDEST DUP1 DUP1 PUSH1 0x20 ADD SWAP1 MLOAD PUSH1 0x20 DUP2 LT ISZERO PUSH2 0x2550 JUMPI PUSH1 0x0 DUP1 REVERT JUMPDEST POP MLOAD SWAP7 SWAP6 POP POP POP POP POP POP JUMP JUMPDEST PUSH2 0x2564 PUSH2 0x3266 JUMP JUMPDEST SLOAD DUP3 MLOAD PUSH1 0x40 MLOAD PUSH4 0xE8EDA9DF PUSH1 0xE0 SHL DUP2 MSTORE PUSH1 0x1 PUSH1 0x1 PUSH1 0xA0 SHL SUB SWAP1 SWAP3 AND SWAP2 PUSH4 0xE8EDA9DF SWAP2 PUSH2 0x2599 SWAP2 DUP6 SWAP1 ADDRESS SWAP1 PUSH1 0x0 SWAP1 PUSH1 0x4 ADD PUSH2 0x44A2 JUMP JUMPDEST PUSH1 0x0 PUSH1 0x40 MLOAD DUP1 DUP4 SUB DUP2 PUSH1 0x0 DUP8 DUP1 EXTCODESIZE ISZERO DUP1 ISZERO PUSH2 0x25B3 JUMPI PUSH1 0x0 DUP1 REVERT JUMPDEST POP GAS CALL ISZERO DUP1 ISZERO PUSH2 0x25C7 JUMPI RETURNDATASIZE PUSH1 0x0 DUP1 RETURNDATACOPY RETURNDATASIZE PUSH1 0x0 REVERT JUMPDEST POP POP POP POP POP POP JUMP JUMPDEST DUP2 MLOAD PUSH1 0x40 MLOAD PUSH4 0x140E25AD PUSH1 0xE3 SHL DUP2 MSTORE PUSH1 0x0 SWAP2 PUSH1 0x1 PUSH1 0x1 PUSH1 0xA0 SHL SUB AND SWAP1 PUSH4 0xA0712D68 SWAP1 PUSH2 0x25FF SWAP1 DUP6 SWAP1 PUSH1 0x4 ADD PUSH2 0x4500 JUMP JUMPDEST PUSH1 0x20 PUSH1 0x40 MLOAD DUP1 DUP4 SUB DUP2 PUSH1 0x0 DUP8 DUP1 EXTCODESIZE ISZERO DUP1 ISZERO PUSH2 0x2619 JUMPI PUSH1 0x0 DUP1 REVERT JUMPDEST POP GAS CALL ISZERO DUP1 ISZERO PUSH2 0x262D JUMPI RETURNDATASIZE PUSH1 0x0 DUP1 RETURNDATACOPY RETURNDATASIZE PUSH1 0x0 REVERT JUMPDEST POP POP POP POP PUSH1 0x40 MLOAD RETURNDATASIZE PUSH1 0x1F NOT PUSH1 0x1F DUP3 ADD AND DUP3 ADD DUP1 PUSH1 0x40 MSTORE POP DUP2 ADD SWAP1 PUSH2 0x2651 SWAP2 SWAP1 PUSH2 0x4385 JUMP JUMPDEST SWAP1 POP DUP1 ISZERO PUSH2 0x691 JUMPI PUSH1 0x40 MLOAD PUSH3 0x461BCD PUSH1 0xE5 SHL DUP2 MSTORE PUSH1 0x4 ADD PUSH2 0x212 SWAP1 PUSH2 0x4519 JUMP JUMPDEST DUP2 PUSH1 0x0 ADD MLOAD PUSH1 0x1 PUSH1 0x1 PUSH1 0xA0 SHL SUB AND PUSH4 0x1249C58B DUP3 PUSH1 0x40 MLOAD DUP3 PUSH4 0xFFFFFFFF AND PUSH1 0xE0 SHL DUP2 MSTORE PUSH1 0x4 ADD PUSH1 0x0 PUSH1 0x40 MLOAD DUP1 DUP4 SUB DUP2 DUP6 DUP9 DUP1 EXTCODESIZE ISZERO DUP1 ISZERO PUSH2 0x26B0 JUMPI PUSH1 0x0 DUP1 REVERT JUMPDEST POP GAS CALL ISZERO DUP1 ISZERO PUSH2 0x26C4 JUMPI RETURNDATASIZE PUSH1 0x0 DUP1 RETURNDATACOPY RETURNDATASIZE PUSH1 0x0 REVERT JUMPDEST POP POP POP POP POP POP POP JUMP JUMPDEST PUSH1 0x0 DUP3 DUP3 GT ISZERO PUSH2 0x2724 JUMPI PUSH1 0x40 DUP1 MLOAD PUSH3 0x461BCD PUSH1 0xE5 SHL DUP2 MSTORE PUSH1 0x20 PUSH1 0x4 DUP3 ADD MSTORE PUSH1 0x1E PUSH1 0x24 DUP3 ADD MSTORE PUSH32 0x536166654D6174683A207375627472616374696F6E206F766572666C6F770000 PUSH1 0x44 DUP3 ADD MSTORE SWAP1 MLOAD SWAP1 DUP2 SWAP1 SUB PUSH1 0x64 ADD SWAP1 REVERT JUMPDEST POP SWAP1 SUB SWAP1 JUMP JUMPDEST PUSH1 0x0 DUP2 PUSH1 0x0 NOT EQ DUP1 ISZERO PUSH2 0x2740 JUMPI POP PUSH1 0x1 PUSH1 0xFF SHL DUP4 EQ JUMPDEST ISZERO PUSH2 0x274A JUMPI PUSH1 0x0 DUP1 REVERT JUMPDEST DUP2 DUP4 DUP2 PUSH2 0x2753 JUMPI INVALID JUMPDEST SDIV SWAP4 SWAP3 POP POP POP JUMP JUMPDEST PUSH1 0x0 DUP1 PUSH2 0x2768 DUP8 DUP8 PUSH2 0x3273 JUMP JUMPDEST SWAP1 POP PUSH1 0x0 PUSH2 0x2774 PUSH2 0x32A8 JUMP JUMPDEST PUSH1 0x1 PUSH1 0x1 PUSH1 0xA0 SHL SUB DUP10 AND PUSH1 0x0 SWAP1 DUP2 MSTORE PUSH1 0x20 DUP3 DUP2 MSTORE PUSH1 0x40 DUP1 DUP4 KECCAK256 DUP12 DUP5 MSTORE DUP3 MSTORE DUP1 DUP4 KECCAK256 DUP11 DUP5 MSTORE SWAP1 SWAP2 MSTORE DUP2 KECCAK256 SWAP2 SWAP3 POP DUP1 PUSH2 0x27AB DUP9 DUP11 PUSH2 0x32B5 JUMP JUMPDEST SWAP2 POP SWAP2 POP DUP1 PUSH2 0x27B9 JUMPI PUSH1 0x0 DUP1 REVERT JUMPDEST PUSH2 0x27C3 DUP6 DUP4 PUSH2 0x33C0 JUMP JUMPDEST ISZERO PUSH2 0x2852 JUMPI DUP3 SLOAD PUSH1 0x0 SWAP1 PUSH2 0x27DF SWAP1 DUP10 SWAP1 PUSH1 0xF SWAP1 DUP2 SIGNEXTEND SWAP1 SIGNEXTEND PUSH2 0x12CD JUMP JUMPDEST SWAP1 POP PUSH1 0x1 PUSH1 0x1 PUSH1 0x7F SHL SUB NOT DUP2 SLT DUP1 ISZERO SWAP1 PUSH2 0x2800 JUMPI POP PUSH1 0x1 PUSH1 0x1 PUSH1 0x7F SHL SUB DUP2 SGT ISZERO JUMPDEST PUSH2 0x2809 JUMPI PUSH1 0x0 DUP1 REVERT JUMPDEST DUP4 SLOAD PUSH1 0x1 PUSH1 0x1 PUSH1 0x80 SHL SUB NOT AND PUSH1 0x1 PUSH1 0x1 PUSH1 0x80 SHL SUB PUSH1 0xF DUP4 SWAP1 SIGNEXTEND AND OR DUP5 SSTORE DUP1 PUSH2 0x283A JUMPI PUSH2 0x2837 DUP7 DUP5 PUSH1 0x0 PUSH2 0x33F0 JUMP JUMPDEST SWAP6 POP JUMPDEST PUSH2 0x2845 DUP13 DUP13 DUP9 PUSH2 0x343B JUMP JUMPDEST SWAP6 POP PUSH2 0x22A1 SWAP5 POP POP POP POP POP JUMP JUMPDEST DUP7 ISZERO PUSH2 0x28B6 JUMPI PUSH1 0x1 PUSH1 0x1 PUSH1 0x7F SHL SUB NOT DUP8 SLT DUP1 ISZERO SWAP1 PUSH2 0x2877 JUMPI POP PUSH1 0x1 PUSH1 0x1 PUSH1 0x7F SHL SUB DUP8 SGT ISZERO JUMPDEST PUSH2 0x2880 JUMPI PUSH1 0x0 DUP1 REVERT JUMPDEST DUP3 SLOAD PUSH1 0x1 PUSH1 0x1 PUSH1 0x80 SHL SUB NOT AND PUSH1 0x1 PUSH1 0x1 PUSH1 0x80 SHL SUB PUSH1 0xF DUP10 SWAP1 SIGNEXTEND AND OR DUP4 SSTORE PUSH2 0x28A9 DUP6 DUP4 PUSH1 0x1 PUSH2 0x33F0 JUMP JUMPDEST SWAP5 POP PUSH2 0x28B6 DUP12 DUP12 DUP8 PUSH2 0x343B JUMP JUMPDEST POP SWAP5 SWAP10 SWAP9 POP POP POP POP POP POP POP POP POP JUMP JUMPDEST PUSH1 0x60 PUSH1 0x0 PUSH2 0x28D3 DUP5 DUP5 PUSH2 0x3495 JUMP JUMPDEST SWAP1 POP PUSH1 0x1 DUP2 MLOAD GT PUSH2 0x28E5 JUMPI SWAP1 POP PUSH2 0x917 JUMP JUMPDEST PUSH2 0xE9A DUP2 PUSH2 0x35B7 JUMP JUMPDEST DUP5 MLOAD PUSH2 0x28FD SWAP1 DUP6 DUP6 DUP6 DUP6 PUSH2 0x3770 JUMP JUMPDEST ISZERO PUSH2 0x2907 JUMPI PUSH2 0x1B09 JUMP JUMPDEST PUSH1 0x40 DUP6 ADD MLOAD ISZERO PUSH2 0x2934 JUMPI PUSH1 0x0 PUSH2 0x2924 DUP7 PUSH1 0x20 ADD MLOAD DUP7 DUP7 DUP7 DUP7 PUSH2 0x3770 JUMP JUMPDEST SWAP1 POP DUP1 ISZERO PUSH2 0x2932 JUMPI POP PUSH2 0x1B09 JUMP JUMPDEST POP JUMPDEST PUSH2 0x293D DUP3 PUSH2 0x3881 JUMP JUMPDEST ISZERO PUSH2 0x2950 JUMPI PUSH1 0x0 DUP2 SLT ISZERO PUSH2 0x2950 JUMPI PUSH1 0x0 DUP1 REVERT JUMPDEST PUSH1 0x1 PUSH1 0x1 PUSH1 0x57 SHL SUB NOT DUP2 SLT DUP1 ISZERO SWAP1 PUSH2 0x296F JUMPI POP PUSH1 0x1 PUSH1 0x1 PUSH1 0x57 SHL SUB DUP2 SGT ISZERO JUMPDEST PUSH2 0x2978 JUMPI PUSH1 0x0 DUP1 REVERT JUMPDEST DUP5 PUSH1 0x20 ADD MLOAD MLOAD DUP6 PUSH1 0x40 ADD MLOAD EQ ISZERO PUSH2 0x299C JUMPI PUSH2 0x2996 DUP6 PUSH1 0x20 ADD MLOAD PUSH2 0x3897 JUMP JUMPDEST PUSH1 0x20 DUP7 ADD MSTORE JUMPDEST PUSH1 0x0 DUP6 PUSH1 0x20 ADD MLOAD DUP7 PUSH1 0x40 ADD MLOAD DUP2 MLOAD DUP2 LT PUSH2 0x29B2 JUMPI INVALID JUMPDEST PUSH1 0x20 SWAP1 DUP2 MUL SWAP2 SWAP1 SWAP2 ADD DUP2 ADD MLOAD SWAP6 DUP7 MSTORE DUP6 ADD SWAP4 SWAP1 SWAP4 MSTORE PUSH1 0x40 DUP1 DUP6 ADD SWAP3 SWAP1 SWAP3 MSTORE PUSH1 0x60 DUP5 ADD MSTORE PUSH1 0x0 PUSH1 0xA0 SWAP1 SWAP4 ADD SWAP3 SWAP1 SWAP3 MSTORE POP ADD DUP1 MLOAD PUSH1 0x1 ADD SWAP1 MSTORE JUMP JUMPDEST PUSH1 0x0 DUP1 DUP1 DUP1 DUP1 DUP1 DUP1 DUP1 JUMPDEST DUP10 MLOAD MLOAD DUP2 LT ISZERO PUSH2 0x2A7C JUMPI PUSH1 0x0 DUP11 PUSH1 0x0 ADD MLOAD DUP3 DUP2 MLOAD DUP2 LT PUSH2 0x2A11 JUMPI INVALID JUMPDEST PUSH1 0x20 MUL PUSH1 0x20 ADD ADD MLOAD SWAP1 POP PUSH1 0x3 DUP1 DUP2 GT ISZERO PUSH2 0x2A27 JUMPI INVALID JUMPDEST DUP2 PUSH1 0xA0 ADD MLOAD PUSH1 0x3 DUP2 GT ISZERO PUSH2 0x2A37 JUMPI INVALID JUMPDEST EQ ISZERO PUSH2 0x2A42 JUMPI PUSH1 0x0 DUP1 REVERT JUMPDEST PUSH1 0x2 DUP2 PUSH1 0xA0 ADD MLOAD PUSH1 0x3 DUP2 GT ISZERO PUSH2 0x2A54 JUMPI INVALID JUMPDEST EQ ISZERO DUP1 ISZERO PUSH2 0x2A64 JUMPI POP PUSH1 0x60 DUP2 ADD MLOAD ISZERO JUMPDEST ISZERO PUSH2 0x2A73 JUMPI PUSH2 0x2A73 DUP12 DUP4 PUSH2 0x3948 JUMP JUMPDEST POP PUSH1 0x1 ADD PUSH2 0x29F5 JUMP JUMPDEST POP PUSH1 0x0 JUMPDEST DUP10 MLOAD MLOAD DUP2 LT ISZERO PUSH2 0x2B1F JUMPI PUSH1 0x0 DUP11 PUSH1 0x0 ADD MLOAD DUP3 DUP2 MLOAD DUP2 LT PUSH2 0x2A9C JUMPI INVALID JUMPDEST PUSH1 0x20 MUL PUSH1 0x20 ADD ADD MLOAD SWAP1 POP PUSH1 0x2 PUSH1 0x3 DUP2 GT ISZERO PUSH2 0x2AB3 JUMPI INVALID JUMPDEST DUP2 PUSH1 0xA0 ADD MLOAD PUSH1 0x3 DUP2 GT ISZERO PUSH2 0x2AC3 JUMPI INVALID JUMPDEST EQ ISZERO PUSH2 0x2AD7 JUMPI PUSH1 0x80 DUP2 ADD MLOAD PUSH1 0x0 SWAP1 SSTORE PUSH2 0x2B16 JUMP JUMPDEST PUSH1 0x1 DUP2 PUSH1 0xA0 ADD MLOAD PUSH1 0x3 DUP2 GT ISZERO PUSH2 0x2AE9 JUMPI INVALID JUMPDEST EQ ISZERO PUSH2 0x2B02 JUMPI PUSH1 0x80 DUP2 ADD MLOAD DUP1 PUSH2 0x2AFF DUP4 DUP3 PUSH2 0x3A97 JUMP JUMPDEST POP POP JUMPDEST PUSH2 0x2B0E DUP2 DUP7 DUP7 DUP7 PUSH2 0x3BBC JUMP JUMPDEST SWAP2 SWAP7 POP SWAP5 POP SWAP3 POP JUMPDEST POP PUSH1 0x1 ADD PUSH2 0x2A80 JUMP JUMPDEST POP PUSH1 0x60 DUP10 ADD MLOAD PUSH1 0x0 PUSH2 0x2B2F PUSH2 0x3C1F JUMP JUMPDEST PUSH1 0x1 PUSH1 0x1 PUSH1 0xA0 SHL SUB DUP12 AND PUSH1 0x0 SWAP1 DUP2 MSTORE PUSH1 0x20 DUP3 SWAP1 MSTORE PUSH1 0x40 DUP2 KECCAK256 SWAP2 SWAP3 POP JUMPDEST DUP13 PUSH1 0x20 ADD MLOAD MLOAD DUP2 LT ISZERO PUSH2 0x2BF9 JUMPI PUSH1 0x0 DUP14 PUSH1 0x20 ADD MLOAD DUP3 DUP2 MLOAD DUP2 LT PUSH2 0x2B6A JUMPI INVALID JUMPDEST PUSH1 0x20 MUL PUSH1 0x20 ADD ADD MLOAD SWAP1 POP DUP1 PUSH1 0x60 ADD MLOAD PUSH1 0x0 EQ ISZERO PUSH2 0x2B87 JUMPI POP PUSH2 0x2BF1 JUMP JUMPDEST PUSH1 0x2 DUP2 PUSH1 0xA0 ADD MLOAD PUSH1 0x3 DUP2 GT ISZERO PUSH2 0x2B99 JUMPI INVALID JUMPDEST EQ ISZERO DUP1 ISZERO PUSH2 0x2BB7 JUMPI POP PUSH1 0x3 DUP2 PUSH1 0xA0 ADD MLOAD PUSH1 0x3 DUP2 GT ISZERO PUSH2 0x2BB4 JUMPI INVALID JUMPDEST EQ ISZERO JUMPDEST PUSH2 0x2BC0 JUMPI PUSH1 0x0 DUP1 REVERT JUMPDEST PUSH2 0x2BCC DUP2 DUP10 DUP10 DUP10 PUSH2 0x3BBC JUMP JUMPDEST SWAP2 SWAP10 POP SWAP8 POP SWAP6 POP PUSH2 0x2BE9 DUP2 DUP5 DUP8 PUSH1 0x10 DUP2 LT PUSH2 0x2BE3 JUMPI INVALID JUMPDEST ADD PUSH2 0x3A97 JUMP JUMPDEST PUSH1 0x1 DUP6 ADD SWAP5 POP POP JUMPDEST PUSH1 0x1 ADD PUSH2 0x2B4B JUMP JUMPDEST POP PUSH1 0x10 DUP4 GT ISZERO DUP1 ISZERO PUSH2 0x2C10 JUMPI POP PUSH5 0xFFFFFFFFFF DUP5 GT ISZERO JUMPDEST PUSH2 0x2C19 JUMPI PUSH1 0x0 DUP1 REVERT JUMPDEST POP SWAP4 SWAP11 SWAP3 SWAP10 POP SWAP8 POP SWAP6 POP SWAP4 POP POP POP POP JUMP JUMPDEST PUSH1 0x0 DUP1 PUSH32 0x7FFF7FFF7FFF7FFF7FFF7FFF7FFF7FFF7FFF0000000000000000000000000000 DUP4 AND DUP2 JUMPDEST PUSH1 0x1 PUSH1 0x1 PUSH1 0x70 SHL SUB NOT DUP3 AND ISZERO PUSH2 0x2C9C JUMPI PUSH1 0x1 PUSH1 0xFE SHL DUP3 DUP2 AND EQ ISZERO PUSH2 0x2C86 JUMPI PUSH1 0x1 PUSH1 0x1 PUSH1 0xF0 SHL SUB NOT DUP3 AND DUP2 SHR SWAP3 SWAP1 SWAP3 OR SWAP2 PUSH1 0x10 ADD JUMPDEST PUSH1 0x10 DUP3 PUSH1 0x1 PUSH1 0x1 PUSH1 0x70 SHL SUB NOT AND SWAP1 SHL SWAP2 POP PUSH2 0x2C52 JUMP JUMPDEST POP SWAP1 SWAP4 SWAP3 POP POP POP JUMP JUMPDEST PUSH1 0x0 PUSH2 0x917 PUSH2 0x2CB2 PUSH2 0x3266 JUMP JUMPDEST SLOAD PUSH1 0x40 MLOAD PUSH4 0xD15E0053 PUSH1 0xE0 SHL DUP2 MSTORE PUSH1 0x1 PUSH1 0x1 PUSH1 0xA0 SHL SUB SWAP1 SWAP2 AND SWAP1 PUSH4 0xD15E0053 SWAP1 PUSH2 0x2CE0 SWAP1 DUP7 SWAP1 PUSH1 0x4 ADD PUSH2 0x439D JUMP JUMPDEST PUSH1 0x20 PUSH1 0x40 MLOAD DUP1 DUP4 SUB DUP2 DUP7 DUP1 EXTCODESIZE ISZERO DUP1 ISZERO PUSH2 0x2CF8 JUMPI PUSH1 0x0 DUP1 REVERT JUMPDEST POP GAS STATICCALL ISZERO DUP1 ISZERO PUSH2 0x2D0C JUMPI RETURNDATASIZE PUSH1 0x0 DUP1 RETURNDATACOPY RETURNDATASIZE PUSH1 0x0 REVERT JUMPDEST POP POP POP POP PUSH1 0x40 MLOAD RETURNDATASIZE PUSH1 0x1F NOT PUSH1 0x1F DUP3 ADD AND DUP3 ADD DUP1 PUSH1 0x40 MSTORE POP DUP2 ADD SWAP1 PUSH2 0x19F5 SWAP2 SWAP1 PUSH2 0x4385 JUMP JUMPDEST DUP3 MLOAD PUSH1 0x40 MLOAD PUSH4 0xDB006A75 PUSH1 0xE0 SHL DUP2 MSTORE PUSH1 0x0 SWAP2 SELFBALANCE SWAP2 DUP4 SWAP2 PUSH1 0x1 PUSH1 0x1 PUSH1 0xA0 SHL SUB AND SWAP1 PUSH4 0xDB006A75 SWAP1 PUSH2 0x2D64 SWAP1 DUP8 SWAP1 PUSH1 0x4 ADD PUSH2 0x4500 JUMP JUMPDEST PUSH1 0x20 PUSH1 0x40 MLOAD DUP1 DUP4 SUB DUP2 PUSH1 0x0 DUP8 DUP1 EXTCODESIZE ISZERO DUP1 ISZERO PUSH2 0x2D7E JUMPI PUSH1 0x0 DUP1 REVERT JUMPDEST POP GAS CALL ISZERO DUP1 ISZERO PUSH2 0x2D92 JUMPI RETURNDATASIZE PUSH1 0x0 DUP1 RETURNDATACOPY RETURNDATASIZE PUSH1 0x0 REVERT JUMPDEST POP POP POP POP PUSH1 0x40 MLOAD RETURNDATASIZE PUSH1 0x1F NOT PUSH1 0x1F DUP3 ADD AND DUP3 ADD DUP1 PUSH1 0x40 MSTORE POP DUP2 ADD SWAP1 PUSH2 0x2DB6 SWAP2 SWAP1 PUSH2 0x4385 JUMP JUMPDEST SWAP1 POP DUP1 ISZERO PUSH2 0x2DD6 JUMPI PUSH1 0x40 MLOAD PUSH3 0x461BCD PUSH1 0xE5 SHL DUP2 MSTORE PUSH1 0x4 ADD PUSH2 0x212 SWAP1 PUSH2 0x455C JUMP JUMPDEST SELFBALANCE PUSH2 0x2DE1 DUP2 DUP5 PUSH2 0x26CD JUMP JUMPDEST SWAP4 POP PUSH2 0x2393 DUP7 DUP6 PUSH2 0x239D JUMP JUMPDEST PUSH1 0x0 PUSH2 0x2E08 PUSH2 0x336 DUP6 PUSH1 0x0 ADD MLOAD PUSH2 0x2E03 DUP6 PUSH2 0xDA5 JUMP JUMPDEST PUSH2 0x221B JUMP JUMPDEST SWAP1 POP PUSH2 0x2E12 PUSH2 0x3266 JUMP JUMPDEST SLOAD DUP5 MLOAD PUSH1 0x40 MLOAD PUSH4 0x1A4CA37B PUSH1 0xE2 SHL DUP2 MSTORE PUSH1 0x1 PUSH1 0x1 PUSH1 0xA0 SHL SUB SWAP1 SWAP3 AND SWAP2 PUSH4 0x69328DEC SWAP2 PUSH2 0x2E44 SWAP2 DUP6 SWAP1 DUP9 SWAP1 PUSH1 0x4 ADD PUSH2 0x447F JUMP JUMPDEST PUSH1 0x20 PUSH1 0x40 MLOAD DUP1 DUP4 SUB DUP2 PUSH1 0x0 DUP8 DUP1 EXTCODESIZE ISZERO DUP1 ISZERO PUSH2 0x2E5E JUMPI PUSH1 0x0 DUP1 REVERT JUMPDEST POP GAS CALL ISZERO DUP1 ISZERO PUSH2 0x2E72 JUMPI RETURNDATASIZE PUSH1 0x0 DUP1 RETURNDATACOPY RETURNDATASIZE PUSH1 0x0 REVERT JUMPDEST POP POP POP POP PUSH1 0x40 MLOAD RETURNDATASIZE PUSH1 0x1F NOT PUSH1 0x1F DUP3 ADD AND DUP3 ADD DUP1 PUSH1 0x40 MSTORE POP DUP2 ADD SWAP1 PUSH2 0x2E96 SWAP2 SWAP1 PUSH2 0x4385 JUMP JUMPDEST POP SWAP4 SWAP3 POP POP POP JUMP JUMPDEST DUP3 MLOAD PUSH1 0x0 SWAP1 DUP2 SWAP1 PUSH2 0x2EB7 SWAP1 ADDRESS PUSH4 0x70A08231 PUSH1 0xE0 SHL PUSH2 0x244A JUMP JUMPDEST SWAP1 POP PUSH1 0x0 DUP7 PUSH1 0x0 ADD MLOAD PUSH1 0x1 PUSH1 0x1 PUSH1 0xA0 SHL SUB AND PUSH4 0xDB006A75 DUP6 PUSH1 0x40 MLOAD DUP3 PUSH4 0xFFFFFFFF AND PUSH1 0xE0 SHL DUP2 MSTORE PUSH1 0x4 ADD PUSH2 0x2EEB SWAP2 SWAP1 PUSH2 0x4500 JUMP JUMPDEST PUSH1 0x20 PUSH1 0x40 MLOAD DUP1 DUP4 SUB DUP2 PUSH1 0x0 DUP8 DUP1 EXTCODESIZE ISZERO DUP1 ISZERO PUSH2 0x2F05 JUMPI PUSH1 0x0 DUP1 REVERT JUMPDEST POP GAS CALL ISZERO DUP1 ISZERO PUSH2 0x2F19 JUMPI RETURNDATASIZE PUSH1 0x0 DUP1 RETURNDATACOPY RETURNDATASIZE PUSH1 0x0 REVERT JUMPDEST POP POP POP POP PUSH1 0x40 MLOAD RETURNDATASIZE PUSH1 0x1F NOT PUSH1 0x1F DUP3 ADD AND DUP3 ADD DUP1 PUSH1 0x40 MSTORE POP DUP2 ADD SWAP1 PUSH2 0x2F3D SWAP2 SWAP1 PUSH2 0x4385 JUMP JUMPDEST SWAP1 POP DUP1 ISZERO PUSH2 0x2F5D JUMPI PUSH1 0x40 MLOAD PUSH3 0x461BCD PUSH1 0xE5 SHL DUP2 MSTORE PUSH1 0x4 ADD PUSH2 0x212 SWAP1 PUSH2 0x455C JUMP JUMPDEST DUP6 MLOAD PUSH1 0x0 SWAP1 PUSH2 0x2F74 SWAP1 ADDRESS PUSH4 0x70A08231 PUSH1 0xE0 SHL PUSH2 0x244A JUMP JUMPDEST SWAP1 POP PUSH2 0x2F80 DUP2 DUP5 PUSH2 0x26CD JUMP JUMPDEST SWAP4 POP PUSH2 0x2F91 DUP8 PUSH1 0x0 ADD MLOAD DUP8 DUP7 PUSH2 0x23D3 JUMP JUMPDEST POP POP POP SWAP5 SWAP4 POP POP POP POP JUMP JUMPDEST PUSH1 0x0 DUP1 PUSH2 0x917 PUSH1 0x3 PUSH2 0x2147 JUMP JUMPDEST PUSH1 0x0 DUP1 PUSH1 0x0 PUSH2 0x2FB7 DUP6 PUSH2 0x3C2C JUMP JUMPDEST SWAP2 SWAP5 POP SWAP3 POP SWAP1 POP DUP1 DUP5 GT DUP1 ISZERO PUSH2 0x2FCD JUMPI POP PUSH1 0x0 DUP2 GT JUMPDEST DUP1 ISZERO PUSH2 0x2FD9 JUMPI POP PUSH1 0x0 DUP4 GT JUMPDEST ISZERO PUSH2 0x3038 JUMPI PUSH1 0x0 PUSH2 0x2FE9 DUP7 PUSH2 0x17D7 JUMP JUMPDEST POP POP POP SWAP2 POP POP PUSH1 0x0 PUSH2 0x3014 PUSH2 0x300B PUSH4 0x5F5E100 DUP5 PUSH2 0x304C SWAP1 SWAP2 SWAP1 PUSH4 0xFFFFFFFF AND JUMP JUMPDEST DUP5 DUP9 SUB DUP8 PUSH2 0x3C88 JUMP JUMPDEST SWAP1 POP PUSH2 0x3020 DUP5 DUP3 PUSH2 0x310C JUMP JUMPDEST SWAP4 POP PUSH1 0x1 PUSH1 0x1 PUSH1 0x80 SHL SUB DUP5 LT PUSH2 0x3035 JUMPI PUSH1 0x0 DUP1 REVERT JUMPDEST POP POP JUMPDEST SWAP3 POP SWAP3 POP SWAP3 JUMP JUMPDEST PUSH1 0x0 DUP1 PUSH2 0x917 PUSH1 0x11 PUSH2 0x2147 JUMP JUMPDEST PUSH1 0x0 DUP3 PUSH2 0x305B JUMPI POP PUSH1 0x0 PUSH2 0x917 JUMP JUMPDEST DUP3 DUP3 MUL DUP3 DUP5 DUP3 DUP2 PUSH2 0x3068 JUMPI INVALID JUMPDEST DIV EQ PUSH2 0xE9A JUMPI PUSH1 0x40 MLOAD PUSH3 0x461BCD PUSH1 0xE5 SHL DUP2 MSTORE PUSH1 0x4 ADD DUP1 DUP1 PUSH1 0x20 ADD DUP3 DUP2 SUB DUP3 MSTORE PUSH1 0x21 DUP2 MSTORE PUSH1 0x20 ADD DUP1 PUSH2 0x480B PUSH1 0x21 SWAP2 CODECOPY PUSH1 0x40 ADD SWAP2 POP POP PUSH1 0x40 MLOAD DUP1 SWAP2 SUB SWAP1 REVERT JUMPDEST PUSH1 0x0 DUP1 DUP3 GT PUSH2 0x30FB JUMPI PUSH1 0x40 DUP1 MLOAD PUSH3 0x461BCD PUSH1 0xE5 SHL DUP2 MSTORE PUSH1 0x20 PUSH1 0x4 DUP3 ADD MSTORE PUSH1 0x1A PUSH1 0x24 DUP3 ADD MSTORE PUSH32 0x536166654D6174683A206469766973696F6E206279207A65726F000000000000 PUSH1 0x44 DUP3 ADD MSTORE SWAP1 MLOAD SWAP1 DUP2 SWAP1 SUB PUSH1 0x64 ADD SWAP1 REVERT JUMPDEST DUP2 DUP4 DUP2 PUSH2 0x3104 JUMPI INVALID JUMPDEST DIV SWAP4 SWAP3 POP POP POP JUMP JUMPDEST PUSH1 0x0 DUP3 DUP3 ADD DUP4 DUP2 LT ISZERO PUSH2 0xE9A JUMPI PUSH1 0x40 DUP1 MLOAD PUSH3 0x461BCD PUSH1 0xE5 SHL DUP2 MSTORE PUSH1 0x20 PUSH1 0x4 DUP3 ADD MSTORE PUSH1 0x1B PUSH1 0x24 DUP3 ADD MSTORE PUSH32 0x536166654D6174683A206164646974696F6E206F766572666C6F770000000000 PUSH1 0x44 DUP3 ADD MSTORE SWAP1 MLOAD SWAP1 DUP2 SWAP1 SUB PUSH1 0x64 ADD SWAP1 REVERT JUMPDEST PUSH1 0x0 DUP1 PUSH2 0x917 PUSH1 0x12 PUSH2 0x2147 JUMP JUMPDEST PUSH1 0x0 DUP1 PUSH2 0x917 PUSH1 0x7 PUSH2 0x2147 JUMP JUMPDEST PUSH1 0x0 DUP1 DUP3 SLT ISZERO PUSH2 0x319A JUMPI PUSH2 0x3193 DUP3 PUSH2 0x909 JUMP JUMPDEST SWAP1 POP PUSH2 0x799 JUMP JUMPDEST POP DUP1 PUSH2 0x799 JUMP JUMPDEST PUSH1 0x40 DUP1 MLOAD PUSH4 0x23B872DD PUSH1 0xE0 SHL DUP2 MSTORE PUSH1 0x1 PUSH1 0x1 PUSH1 0xA0 SHL SUB DUP5 DUP2 AND PUSH1 0x4 DUP4 ADD MSTORE ADDRESS PUSH1 0x24 DUP4 ADD MSTORE PUSH1 0x44 DUP3 ADD DUP5 SWAP1 MSTORE SWAP2 MLOAD SWAP2 DUP6 AND SWAP2 PUSH4 0x23B872DD SWAP2 PUSH1 0x64 DUP1 DUP3 ADD SWAP3 PUSH1 0x0 SWAP3 SWAP1 SWAP2 SWAP1 DUP3 SWAP1 SUB ADD DUP2 DUP4 DUP8 DUP1 EXTCODESIZE ISZERO DUP1 ISZERO PUSH2 0x242A JUMPI PUSH1 0x0 DUP1 REVERT JUMPDEST PUSH1 0x0 PUSH2 0x3203 PUSH2 0x4008 JUMP JUMPDEST RETURNDATASIZE DUP1 ISZERO PUSH2 0x3217 JUMPI PUSH1 0x20 DUP2 EQ PUSH2 0x3220 JUMPI PUSH1 0x0 DUP1 REVERT JUMPDEST PUSH1 0x1 SWAP3 POP PUSH2 0x322B JUMP JUMPDEST PUSH1 0x20 PUSH1 0x0 DUP4 RETURNDATACOPY DUP2 MLOAD SWAP3 POP JUMPDEST POP DUP2 PUSH2 0xD00 JUMPI PUSH1 0x40 DUP1 MLOAD PUSH3 0x461BCD PUSH1 0xE5 SHL DUP2 MSTORE PUSH1 0x20 PUSH1 0x4 DUP3 ADD MSTORE PUSH1 0x5 PUSH1 0x24 DUP3 ADD MSTORE PUSH5 0x455243323 PUSH1 0xDC SHL PUSH1 0x44 DUP3 ADD MSTORE SWAP1 MLOAD SWAP1 DUP2 SWAP1 SUB PUSH1 0x64 ADD SWAP1 REVERT JUMPDEST PUSH1 0x0 DUP1 PUSH2 0x917 PUSH1 0x13 PUSH2 0x2147 JUMP JUMPDEST PUSH1 0x0 DUP1 PUSH2 0x327E PUSH2 0x3CAA JUMP JUMPDEST PUSH1 0x1 PUSH1 0x1 PUSH1 0xA0 SHL SUB DUP6 AND PUSH1 0x0 SWAP1 DUP2 MSTORE PUSH1 0x20 SWAP2 DUP3 MSTORE PUSH1 0x40 DUP1 DUP3 KECCAK256 DUP7 DUP4 MSTORE SWAP1 SWAP3 MSTORE KECCAK256 SLOAD SWAP2 POP POP SWAP3 SWAP2 POP POP JUMP JUMPDEST PUSH1 0x0 DUP1 PUSH2 0x917 PUSH1 0xC PUSH2 0x2147 JUMP JUMPDEST PUSH1 0x0 DUP1 PUSH1 0x0 PUSH2 0x32C3 DUP6 PUSH2 0x1CE3 JUMP JUMPDEST SWAP1 POP PUSH3 0x15180 DUP5 MOD ISZERO PUSH2 0x32DD JUMPI PUSH1 0x0 DUP1 SWAP3 POP SWAP3 POP POP PUSH2 0x33B9 JUMP JUMPDEST DUP4 DUP2 LT PUSH2 0x32F1 JUMPI PUSH1 0x0 DUP1 SWAP3 POP SWAP3 POP POP PUSH2 0x33B9 JUMP JUMPDEST PUSH3 0x15180 DUP2 DUP6 SUB DIV PUSH1 0x5A DUP2 GT PUSH2 0x330E JUMPI SWAP3 POP PUSH1 0x1 SWAP2 POP PUSH2 0x33B9 SWAP1 POP JUMP JUMPDEST PUSH2 0x168 DUP2 GT PUSH2 0x334D JUMPI PUSH1 0x0 PUSH3 0x15180 PUSH3 0x7E900 DUP5 MOD DIV DUP3 ADD PUSH1 0x59 NOT ADD SWAP1 POP PUSH1 0x6 DUP2 DIV PUSH1 0x5A ADD PUSH1 0x6 DUP3 DUP2 PUSH2 0x333D JUMPI INVALID JUMPDEST MOD PUSH1 0x0 EQ SWAP5 POP SWAP5 POP POP POP POP PUSH2 0x33B9 JUMP JUMPDEST PUSH2 0x870 DUP2 GT PUSH2 0x337D JUMPI PUSH1 0x0 PUSH3 0x15180 PUSH3 0x278D00 DUP5 MOD DIV DUP3 ADD PUSH2 0x167 NOT ADD SWAP1 POP PUSH1 0x1E DUP2 DIV PUSH1 0x87 ADD PUSH1 0x1E DUP3 DUP2 PUSH2 0x333D JUMPI INVALID JUMPDEST PUSH2 0x1DE2 DUP2 GT PUSH2 0x33AD JUMPI PUSH1 0x0 PUSH3 0x15180 PUSH3 0x76A700 DUP5 MOD DIV DUP3 ADD PUSH2 0x86F NOT ADD SWAP1 POP PUSH1 0x5A DUP2 DIV PUSH1 0xC3 ADD PUSH1 0x5A DUP3 DUP2 PUSH2 0x333D JUMPI INVALID JUMPDEST PUSH2 0x100 PUSH1 0x0 SWAP4 POP SWAP4 POP POP POP JUMPDEST SWAP3 POP SWAP3 SWAP1 POP JUMP JUMPDEST PUSH1 0x0 PUSH1 0x1 DUP3 LT ISZERO DUP1 ISZERO PUSH2 0x33D5 JUMPI POP PUSH2 0x100 DUP3 GT ISZERO JUMPDEST PUSH2 0x33DE JUMPI PUSH1 0x0 DUP1 REVERT JUMPDEST POP PUSH1 0x0 NOT ADD SHL PUSH1 0x1 PUSH1 0xFF SHL SWAP1 DUP2 AND EQ SWAP1 JUMP JUMPDEST PUSH1 0x0 PUSH1 0x1 DUP4 LT ISZERO DUP1 ISZERO PUSH2 0x3405 JUMPI POP PUSH2 0x100 DUP4 GT ISZERO JUMPDEST PUSH2 0x340E JUMPI PUSH1 0x0 DUP1 REVERT JUMPDEST DUP2 ISZERO PUSH2 0x3427 JUMPI POP PUSH1 0x1 PUSH1 0xFF SHL PUSH1 0x0 NOT DUP4 ADD SHR DUP4 OR PUSH2 0xE9A JUMP JUMPDEST POP PUSH1 0x1 PUSH1 0xFF SHL PUSH1 0x0 NOT DUP4 ADD SHR NOT DUP4 AND PUSH2 0xE9A JUMP JUMPDEST PUSH1 0x14 PUSH2 0x3446 DUP3 PUSH2 0x3CB7 JUMP JUMPDEST GT ISZERO PUSH2 0x3464 JUMPI PUSH1 0x40 MLOAD PUSH3 0x461BCD PUSH1 0xE5 SHL DUP2 MSTORE PUSH1 0x4 ADD PUSH2 0x212 SWAP1 PUSH2 0x462A JUMP JUMPDEST PUSH1 0x0 PUSH2 0x346E PUSH2 0x3CAA JUMP JUMPDEST PUSH1 0x1 PUSH1 0x1 PUSH1 0xA0 SHL SUB SWAP1 SWAP5 AND PUSH1 0x0 SWAP1 DUP2 MSTORE PUSH1 0x20 SWAP5 DUP6 MSTORE PUSH1 0x40 DUP1 DUP3 KECCAK256 SWAP5 DUP3 MSTORE SWAP4 SWAP1 SWAP5 MSTORE POP SWAP2 KECCAK256 SSTORE JUMP JUMPDEST PUSH1 0x60 PUSH1 0x10 DUP3 PUSH1 0xFF AND GT ISZERO PUSH2 0x34A8 JUMPI PUSH1 0x0 DUP1 REVERT JUMPDEST PUSH1 0x0 PUSH2 0x34B2 PUSH2 0x3C1F JUMP JUMPDEST PUSH1 0x1 PUSH1 0x1 PUSH1 0xA0 SHL SUB DUP6 AND PUSH1 0x0 SWAP1 DUP2 MSTORE PUSH1 0x20 DUP3 SWAP1 MSTORE PUSH1 0x40 DUP2 KECCAK256 SWAP2 SWAP3 POP PUSH1 0xFF DUP6 AND PUSH8 0xFFFFFFFFFFFFFFFF DUP2 GT DUP1 ISZERO PUSH2 0x34E7 JUMPI PUSH1 0x0 DUP1 REVERT JUMPDEST POP PUSH1 0x40 MLOAD SWAP1 DUP1 DUP3 MSTORE DUP1 PUSH1 0x20 MUL PUSH1 0x20 ADD DUP3 ADD PUSH1 0x40 MSTORE DUP1 ISZERO PUSH2 0x3521 JUMPI DUP2 PUSH1 0x20 ADD JUMPDEST PUSH2 0x350E PUSH2 0x3FC8 JUMP JUMPDEST DUP2 MSTORE PUSH1 0x20 ADD SWAP1 PUSH1 0x1 SWAP1 SUB SWAP1 DUP2 PUSH2 0x3506 JUMPI SWAP1 POP JUMPDEST POP SWAP1 POP PUSH1 0x0 JUMPDEST DUP6 PUSH1 0xFF AND DUP2 LT ISZERO PUSH2 0x35AD JUMPI PUSH1 0x0 DUP4 DUP3 PUSH1 0x10 DUP2 LT PUSH2 0x3540 JUMPI INVALID JUMPDEST ADD SWAP1 POP PUSH1 0x0 DUP4 DUP4 DUP2 MLOAD DUP2 LT PUSH2 0x3551 JUMPI INVALID JUMPDEST PUSH1 0x20 SWAP1 DUP2 MUL SWAP2 SWAP1 SWAP2 ADD DUP2 ADD MLOAD DUP4 SLOAD PUSH2 0xFFFF DUP2 AND DUP3 MSTORE PUSH5 0xFFFFFFFFFF PUSH3 0x10000 DUP3 DIV AND SWAP3 DUP3 ADD SWAP3 SWAP1 SWAP3 MSTORE PUSH1 0xFF PUSH1 0x1 PUSH1 0x38 SHL DUP4 DIV AND PUSH1 0x40 DUP3 ADD MSTORE PUSH1 0x1 PUSH1 0x40 SHL SWAP1 SWAP2 DIV PUSH1 0xA SWAP1 DUP2 SIGNEXTEND SWAP1 SIGNEXTEND PUSH1 0x60 DUP3 ADD MSTORE PUSH1 0x80 ADD SWAP2 SWAP1 SWAP2 MSTORE POP PUSH1 0x1 ADD PUSH2 0x3527 JUMP JUMPDEST POP SWAP6 SWAP5 POP POP POP POP POP JUMP JUMPDEST DUP1 MLOAD PUSH1 0x0 DUP2 PUSH8 0xFFFFFFFFFFFFFFFF DUP2 GT DUP1 ISZERO PUSH2 0x35D2 JUMPI PUSH1 0x0 DUP1 REVERT JUMPDEST POP PUSH1 0x40 MLOAD SWAP1 DUP1 DUP3 MSTORE DUP1 PUSH1 0x20 MUL PUSH1 0x20 ADD DUP3 ADD PUSH1 0x40 MSTORE DUP1 ISZERO PUSH2 0x35FC JUMPI DUP2 PUSH1 0x20 ADD PUSH1 0x20 DUP3 MUL DUP1 CALLDATASIZE DUP4 CALLDATACOPY ADD SWAP1 POP JUMPDEST POP SWAP1 POP PUSH1 0x0 JUMPDEST DUP3 DUP2 LT ISZERO PUSH2 0x3659 JUMPI PUSH1 0x0 DUP5 DUP3 DUP2 MLOAD DUP2 LT PUSH2 0x3618 JUMPI INVALID JUMPDEST PUSH1 0x20 MUL PUSH1 0x20 ADD ADD MLOAD SWAP1 POP PUSH2 0x3639 DUP2 PUSH1 0x0 ADD MLOAD DUP3 PUSH1 0x20 ADD MLOAD DUP4 PUSH1 0x40 ADD MLOAD PUSH2 0x3D87 JUMP JUMPDEST DUP4 DUP4 DUP2 MLOAD DUP2 LT PUSH2 0x3645 JUMPI INVALID JUMPDEST PUSH1 0x20 SWAP1 DUP2 MUL SWAP2 SWAP1 SWAP2 ADD ADD MSTORE POP PUSH1 0x1 ADD PUSH2 0x3602 JUMP JUMPDEST POP PUSH1 0x1 JUMPDEST DUP3 DUP2 LT ISZERO PUSH2 0x17C4 JUMPI DUP1 JUMPDEST PUSH1 0x0 DUP2 GT DUP1 ISZERO PUSH2 0x369F JUMPI POP DUP3 DUP2 DUP2 MLOAD DUP2 LT PUSH2 0x367E JUMPI INVALID JUMPDEST PUSH1 0x20 MUL PUSH1 0x20 ADD ADD MLOAD DUP4 PUSH1 0x1 DUP4 SUB DUP2 MLOAD DUP2 LT PUSH2 0x3695 JUMPI INVALID JUMPDEST PUSH1 0x20 MUL PUSH1 0x20 ADD ADD MLOAD GT JUMPDEST ISZERO PUSH2 0x3767 JUMPI DUP3 DUP2 DUP2 MLOAD DUP2 LT PUSH2 0x36B0 JUMPI INVALID JUMPDEST PUSH1 0x20 MUL PUSH1 0x20 ADD ADD MLOAD DUP4 PUSH1 0x1 DUP4 SUB DUP2 MLOAD DUP2 LT PUSH2 0x36C7 JUMPI INVALID JUMPDEST PUSH1 0x20 MUL PUSH1 0x20 ADD ADD MLOAD DUP5 PUSH1 0x1 DUP5 SUB DUP2 MLOAD DUP2 LT PUSH2 0x36DE JUMPI INVALID JUMPDEST PUSH1 0x20 MUL PUSH1 0x20 ADD ADD DUP6 DUP5 DUP2 MLOAD DUP2 LT PUSH2 0x36F1 JUMPI INVALID JUMPDEST PUSH1 0x20 MUL PUSH1 0x20 ADD ADD DUP3 DUP2 MSTORE POP DUP3 DUP2 MSTORE POP POP POP DUP5 DUP2 DUP2 MLOAD DUP2 LT PUSH2 0x370E JUMPI INVALID JUMPDEST PUSH1 0x20 MUL PUSH1 0x20 ADD ADD MLOAD DUP6 PUSH1 0x1 DUP4 SUB DUP2 MLOAD DUP2 LT PUSH2 0x3725 JUMPI INVALID JUMPDEST PUSH1 0x20 MUL PUSH1 0x20 ADD ADD MLOAD DUP7 PUSH1 0x1 DUP5 SUB DUP2 MLOAD DUP2 LT PUSH2 0x373C JUMPI INVALID JUMPDEST PUSH1 0x20 MUL PUSH1 0x20 ADD ADD DUP8 DUP5 DUP2 MLOAD DUP2 LT PUSH2 0x374F JUMPI INVALID JUMPDEST PUSH1 0x20 SWAP1 DUP2 MUL SWAP2 SWAP1 SWAP2 ADD ADD SWAP2 SWAP1 SWAP2 MSTORE MSTORE PUSH1 0x0 NOT ADD PUSH2 0x3667 JUMP JUMPDEST POP PUSH1 0x1 ADD PUSH2 0x365D JUMP JUMPDEST PUSH1 0x0 DUP1 JUMPDEST DUP7 MLOAD DUP2 LT ISZERO PUSH2 0x3874 JUMPI PUSH1 0x0 DUP8 DUP3 DUP2 MLOAD DUP2 LT PUSH2 0x378B JUMPI INVALID JUMPDEST PUSH1 0x20 MUL PUSH1 0x20 ADD ADD MLOAD SWAP1 POP DUP5 DUP2 PUSH1 0x40 ADD MLOAD EQ ISZERO DUP1 PUSH2 0x37A9 JUMPI POP DUP1 MLOAD DUP8 EQ ISZERO JUMPDEST DUP1 PUSH2 0x37B8 JUMPI POP DUP6 DUP2 PUSH1 0x20 ADD MLOAD EQ ISZERO JUMPDEST ISZERO PUSH2 0x37C3 JUMPI POP PUSH2 0x386C JUMP JUMPDEST PUSH1 0x2 DUP2 PUSH1 0xA0 ADD MLOAD PUSH1 0x3 DUP2 GT ISZERO PUSH2 0x37D5 JUMPI INVALID JUMPDEST EQ ISZERO DUP1 ISZERO PUSH2 0x37F3 JUMPI POP PUSH1 0x3 DUP2 PUSH1 0xA0 ADD MLOAD PUSH1 0x3 DUP2 GT ISZERO PUSH2 0x37F0 JUMPI INVALID JUMPDEST EQ ISZERO JUMPDEST PUSH2 0x37FC JUMPI PUSH1 0x0 DUP1 REVERT JUMPDEST PUSH1 0x60 DUP2 ADD MLOAD PUSH1 0x0 SWAP1 PUSH2 0x380E SWAP1 DUP7 PUSH2 0x12CD JUMP JUMPDEST SWAP1 POP PUSH2 0x3819 DUP7 PUSH2 0x3881 JUMP JUMPDEST ISZERO PUSH2 0x382C JUMPI PUSH1 0x0 DUP2 SLT ISZERO PUSH2 0x382C JUMPI PUSH1 0x0 DUP1 REVERT JUMPDEST PUSH1 0x1 PUSH1 0x1 PUSH1 0x57 SHL SUB NOT DUP2 SLT DUP1 ISZERO SWAP1 PUSH2 0x384B JUMPI POP PUSH1 0x1 PUSH1 0x1 PUSH1 0x57 SHL SUB DUP2 SGT ISZERO JUMPDEST PUSH2 0x3854 JUMPI PUSH1 0x0 DUP1 REVERT JUMPDEST PUSH1 0x60 DUP3 ADD MSTORE PUSH1 0x1 PUSH1 0xA0 SWAP1 SWAP2 ADD DUP2 SWAP1 MSTORE SWAP2 POP PUSH2 0x22A1 SWAP1 POP JUMP JUMPDEST PUSH1 0x1 ADD PUSH2 0x3774 JUMP JUMPDEST POP PUSH1 0x0 SWAP7 SWAP6 POP POP POP POP POP POP JUMP JUMPDEST PUSH1 0x0 PUSH1 0x2 DUP3 LT DUP1 ISZERO SWAP1 PUSH2 0x917 JUMPI POP POP PUSH1 0x8 LT ISZERO SWAP1 JUMP JUMPDEST PUSH1 0x60 PUSH1 0x0 DUP3 MLOAD PUSH1 0x0 EQ PUSH2 0x38AE JUMPI DUP3 MLOAD PUSH1 0x2 MUL PUSH2 0x38B1 JUMP JUMPDEST PUSH1 0x1 JUMPDEST SWAP1 POP PUSH1 0x0 DUP2 PUSH8 0xFFFFFFFFFFFFFFFF DUP2 GT DUP1 ISZERO PUSH2 0x38CC JUMPI PUSH1 0x0 DUP1 REVERT JUMPDEST POP PUSH1 0x40 MLOAD SWAP1 DUP1 DUP3 MSTORE DUP1 PUSH1 0x20 MUL PUSH1 0x20 ADD DUP3 ADD PUSH1 0x40 MSTORE DUP1 ISZERO PUSH2 0x3906 JUMPI DUP2 PUSH1 0x20 ADD JUMPDEST PUSH2 0x38F3 PUSH2 0x3FC8 JUMP JUMPDEST DUP2 MSTORE PUSH1 0x20 ADD SWAP1 PUSH1 0x1 SWAP1 SUB SWAP1 DUP2 PUSH2 0x38EB JUMPI SWAP1 POP JUMPDEST POP SWAP1 POP PUSH1 0x0 JUMPDEST DUP5 MLOAD DUP2 LT ISZERO PUSH2 0x2E96 JUMPI DUP5 DUP2 DUP2 MLOAD DUP2 LT PUSH2 0x3921 JUMPI INVALID JUMPDEST PUSH1 0x20 MUL PUSH1 0x20 ADD ADD MLOAD DUP3 DUP3 DUP2 MLOAD DUP2 LT PUSH2 0x3935 JUMPI INVALID JUMPDEST PUSH1 0x20 SWAP1 DUP2 MUL SWAP2 SWAP1 SWAP2 ADD ADD MSTORE PUSH1 0x1 ADD PUSH2 0x390C JUMP JUMPDEST DUP2 MLOAD MLOAD DUP2 LT PUSH2 0x3956 JUMPI PUSH1 0x0 DUP1 REVERT JUMPDEST PUSH1 0x0 DUP3 PUSH1 0x60 ADD MLOAD GT PUSH2 0x3967 JUMPI PUSH1 0x0 DUP1 REVERT JUMPDEST PUSH1 0x0 DUP3 PUSH1 0x0 ADD MLOAD DUP3 DUP2 MLOAD DUP2 LT PUSH2 0x3979 JUMPI INVALID JUMPDEST PUSH1 0x20 MUL PUSH1 0x20 ADD ADD MLOAD SWAP1 POP PUSH1 0x2 PUSH1 0x3 DUP2 GT ISZERO PUSH2 0x3990 JUMPI INVALID JUMPDEST DUP2 PUSH1 0xA0 ADD MLOAD PUSH1 0x3 DUP2 GT ISZERO PUSH2 0x39A0 JUMPI INVALID JUMPDEST EQ ISZERO DUP1 ISZERO PUSH2 0x39BE JUMPI POP PUSH1 0x3 DUP2 PUSH1 0xA0 ADD MLOAD PUSH1 0x3 DUP2 GT ISZERO PUSH2 0x39BB JUMPI INVALID JUMPDEST EQ ISZERO JUMPDEST PUSH2 0x39C7 JUMPI PUSH1 0x0 DUP1 REVERT JUMPDEST PUSH1 0x60 DUP4 ADD DUP1 MLOAD PUSH1 0x0 NOT ADD SWAP1 MSTORE PUSH1 0x0 DUP1 DUP1 JUMPDEST DUP6 MLOAD MLOAD DUP2 LT ISZERO PUSH2 0x3A3A JUMPI PUSH1 0x0 DUP7 PUSH1 0x0 ADD MLOAD DUP3 DUP2 MLOAD DUP2 LT PUSH2 0x39F4 JUMPI INVALID JUMPDEST PUSH1 0x20 MUL PUSH1 0x20 ADD ADD MLOAD SWAP1 POP DUP3 DUP2 PUSH1 0x80 ADD MLOAD GT DUP1 ISZERO PUSH2 0x3A21 JUMPI POP PUSH1 0x2 DUP2 PUSH1 0xA0 ADD MLOAD PUSH1 0x3 DUP2 GT ISZERO PUSH2 0x3A1E JUMPI INVALID JUMPDEST EQ ISZERO JUMPDEST ISZERO PUSH2 0x3A31 JUMPI DUP1 PUSH1 0x80 ADD MLOAD SWAP3 POP DUP2 SWAP4 POP JUMPDEST POP PUSH1 0x1 ADD PUSH2 0x39D8 JUMP JUMPDEST POP DUP2 DUP5 EQ ISZERO PUSH2 0x3A53 JUMPI POP POP PUSH1 0x2 PUSH1 0xA0 SWAP2 SWAP1 SWAP2 ADD MSTORE PUSH2 0xD00 JUMP JUMPDEST PUSH1 0x0 DUP6 PUSH1 0x0 ADD MLOAD DUP4 DUP2 MLOAD DUP2 LT PUSH2 0x3A65 JUMPI INVALID JUMPDEST PUSH1 0x20 SWAP1 DUP2 MUL SWAP2 SWAP1 SWAP2 ADD ADD MLOAD PUSH1 0x80 DUP6 DUP2 ADD DUP1 MLOAD SWAP2 DUP4 ADD DUP1 MLOAD SWAP1 SWAP2 MSTORE MSTORE PUSH1 0x1 PUSH1 0xA0 SWAP2 DUP3 ADD MSTORE PUSH1 0x2 SWAP5 ADD SWAP4 SWAP1 SWAP4 MSTORE POP POP POP POP POP JUMP JUMPDEST DUP2 MLOAD ISZERO DUP1 ISZERO SWAP1 PUSH2 0x3AAA JUMPI POP DUP2 MLOAD PUSH2 0x3FFF LT ISZERO JUMPDEST PUSH2 0x3AB3 JUMPI PUSH1 0x0 DUP1 REVERT JUMPDEST DUP2 PUSH1 0x20 ADD MLOAD PUSH1 0x0 LT DUP1 ISZERO PUSH2 0x3AD0 JUMPI POP PUSH1 0x20 DUP3 ADD MLOAD PUSH5 0xFFFFFFFFFF LT ISZERO JUMPDEST PUSH2 0x3AD9 JUMPI PUSH1 0x0 DUP1 REVERT JUMPDEST DUP2 PUSH1 0x40 ADD MLOAD PUSH1 0x0 LT DUP1 ISZERO PUSH2 0x3AF2 JUMPI POP PUSH1 0x40 DUP3 ADD MLOAD PUSH1 0x8 LT ISZERO JUMPDEST PUSH2 0x3AFB JUMPI PUSH1 0x0 DUP1 REVERT JUMPDEST PUSH1 0x60 DUP3 ADD MLOAD PUSH1 0x1 PUSH1 0x1 PUSH1 0x57 SHL SUB NOT SGT DUP1 ISZERO SWAP1 PUSH2 0x3B22 JUMPI POP PUSH1 0x60 DUP3 ADD MLOAD PUSH1 0x1 PUSH1 0x1 PUSH1 0x57 SHL SUB SLT ISZERO JUMPDEST PUSH2 0x3B2B JUMPI PUSH1 0x0 DUP1 REVERT JUMPDEST DUP2 MLOAD DUP2 SLOAD PUSH1 0x20 DUP5 ADD MLOAD PUSH1 0x40 DUP6 ADD MLOAD PUSH1 0x60 SWAP1 SWAP6 ADD MLOAD PUSH1 0xA SIGNEXTEND PUSH1 0x1 PUSH1 0x1 PUSH1 0x58 SHL SUB AND PUSH1 0x1 PUSH1 0x40 SHL MUL PUSH19 0xFFFFFFFFFFFFFFFFFFFFFF0000000000000000 NOT PUSH1 0xFF SWAP1 SWAP7 AND PUSH1 0x1 PUSH1 0x38 SHL MUL PUSH8 0xFF00000000000000 NOT PUSH5 0xFFFFFFFFFF SWAP1 SWAP4 AND PUSH3 0x10000 MUL PUSH7 0xFFFFFFFFFF0000 NOT PUSH2 0xFFFF SWAP1 SWAP7 AND PUSH2 0xFFFF NOT SWAP1 SWAP6 AND SWAP5 SWAP1 SWAP5 OR SWAP5 SWAP1 SWAP5 AND SWAP3 SWAP1 SWAP3 OR AND SWAP2 SWAP1 SWAP2 OR SWAP3 SWAP1 SWAP3 AND SWAP2 SWAP1 SWAP2 OR SWAP1 SSTORE JUMP JUMPDEST PUSH1 0x0 DUP1 PUSH1 0x0 DUP1 PUSH2 0x3BCB DUP9 PUSH2 0x3DE2 JUMP JUMPDEST SWAP1 POP DUP5 ISZERO DUP1 PUSH2 0x3BD9 JUMPI POP DUP1 DUP6 GT JUMPDEST ISZERO PUSH2 0x3BE2 JUMPI DUP1 SWAP5 POP JUMPDEST DUP7 DUP1 PUSH2 0x3BF2 JUMPI POP PUSH1 0x0 DUP9 PUSH1 0x60 ADD MLOAD SLT JUMPDEST SWAP7 POP PUSH2 0xFFFF DUP7 AND ISZERO PUSH2 0x3C03 JUMPI PUSH1 0x0 DUP1 REVERT JUMPDEST POP POP SWAP5 MLOAD SWAP4 SWAP6 PUSH1 0x10 SWAP4 SWAP1 SWAP4 SHR PUSH1 0xF0 SWAP5 SWAP1 SWAP5 SHL SWAP4 SWAP1 SWAP4 OR SWAP4 POP SWAP2 POP JUMP JUMPDEST PUSH1 0x0 DUP1 PUSH2 0x917 PUSH1 0xD PUSH2 0x2147 JUMP JUMPDEST PUSH1 0x0 DUP1 PUSH1 0x0 DUP1 PUSH2 0x3C3A PUSH2 0x303F JUMP JUMPDEST PUSH1 0x1 PUSH1 0x1 PUSH1 0xA0 SHL SUB SWAP6 SWAP1 SWAP6 AND PUSH1 0x0 SWAP1 DUP2 MSTORE PUSH1 0x20 SWAP6 SWAP1 SWAP6 MSTORE POP POP PUSH1 0x40 SWAP1 SWAP3 KECCAK256 SLOAD PUSH1 0x1 PUSH1 0x1 PUSH1 0x60 SHL SUB DUP2 AND SWAP4 PUSH1 0x1 PUSH1 0x60 SHL DUP3 DIV PUSH1 0x1 PUSH1 0x1 PUSH1 0x80 SHL SUB AND SWAP4 POP PUSH1 0x1 PUSH1 0xE0 SHL SWAP1 SWAP2 DIV PUSH4 0xFFFFFFFF AND SWAP2 POP JUMP JUMPDEST PUSH1 0x0 PUSH2 0x10ED DUP3 PUSH2 0x2079 PUSH4 0x1DA9C00 DUP2 DUP9 PUSH2 0x2073 DUP10 PUSH8 0xDE0B6B3A7640000 PUSH2 0x304C JUMP JUMPDEST PUSH1 0x0 DUP1 PUSH2 0x917 PUSH1 0xB PUSH2 0x2147 JUMP JUMPDEST PUSH1 0x1 DUP2 SWAP1 SHR PUSH32 0x5555555555555555555555555555555555555555555555555555555555555555 SWAP1 DUP2 AND SWAP2 AND ADD PUSH1 0x2 DUP2 SWAP1 SHR PUSH32 0x3333333333333333333333333333333333333333333333333333333333333333 SWAP1 DUP2 AND SWAP2 AND ADD PUSH1 0x4 DUP2 SWAP1 SHR PUSH32 0x707070707070707070707070707070707070707070707070707070707070707 SWAP2 SWAP1 SWAP2 AND ADD PUSH1 0x8 DUP2 SWAP1 SHR PUSH31 0xF000F000F000F000F000F000F000F000F000F000F000F000F000F000F000F SWAP1 DUP2 AND SWAP2 AND ADD PUSH1 0x10 DUP2 SWAP1 SHR ADD PUSH1 0x20 DUP2 SWAP1 SHR ADD PUSH1 0x40 DUP2 SWAP1 SHR ADD PUSH1 0x80 DUP2 SWAP1 SHR PUSH1 0xFF SWAP1 DUP2 AND SWAP2 AND ADD SWAP1 JUMP JUMPDEST PUSH1 0x0 PUSH2 0x3FFF DUP5 GT ISZERO PUSH2 0x3D98 JUMPI PUSH1 0x0 DUP1 REVERT JUMPDEST PUSH5 0xFFFFFFFFFF DUP4 GT ISZERO PUSH2 0x3DAA JUMPI PUSH1 0x0 DUP1 REVERT JUMPDEST PUSH1 0x8 DUP3 GT ISZERO PUSH2 0x3DB8 JUMPI PUSH1 0x0 DUP1 REVERT JUMPDEST POP PUSH8 0xFFFF000000000000 PUSH1 0x30 DUP5 SWAP1 SHL AND PUSH6 0xFFFFFFFFFF00 PUSH1 0x8 DUP5 SWAP1 SHL AND OR PUSH1 0xFF DUP3 AND OR SWAP4 SWAP3 POP POP POP JUMP JUMPDEST PUSH1 0x0 DUP1 DUP3 PUSH1 0x40 ADD MLOAD GT DUP1 ISZERO PUSH2 0x3DFC JUMPI POP PUSH1 0x40 DUP3 ADD MLOAD PUSH1 0x8 LT ISZERO JUMPDEST PUSH2 0x3E05 JUMPI PUSH1 0x0 DUP1 REVERT JUMPDEST PUSH1 0x40 DUP3 ADD MLOAD PUSH1 0x2 LT PUSH2 0x3E1C JUMPI POP PUSH1 0x20 DUP2 ADD MLOAD PUSH2 0x799 JUMP JUMPDEST PUSH1 0x0 PUSH2 0x3E2E PUSH1 0x1 DUP5 PUSH1 0x40 ADD MLOAD SUB PUSH2 0x3E4F JUMP JUMPDEST PUSH1 0x20 DUP5 ADD MLOAD SWAP1 SWAP2 POP PUSH2 0x795 SWAP1 PUSH3 0x76A700 SWAP1 PUSH2 0x3E49 SWAP1 DUP5 PUSH2 0x26CD JUMP JUMPDEST SWAP1 PUSH2 0x310C JUMP JUMPDEST PUSH1 0x0 DUP2 PUSH1 0x1 EQ ISZERO PUSH2 0x3E64 JUMPI POP PUSH3 0x76A700 PUSH2 0x799 JUMP JUMPDEST DUP2 PUSH1 0x2 EQ ISZERO PUSH2 0x3E77 JUMPI POP PUSH3 0xED4E00 PUSH2 0x799 JUMP JUMPDEST DUP2 PUSH1 0x3 EQ ISZERO PUSH2 0x3E8B JUMPI POP PUSH4 0x1DA9C00 PUSH2 0x799 JUMP JUMPDEST DUP2 PUSH1 0x4 EQ ISZERO PUSH2 0x3E9F JUMPI POP PUSH4 0x3B53800 PUSH2 0x799 JUMP JUMPDEST DUP2 PUSH1 0x5 EQ ISZERO PUSH2 0x3EB3 JUMPI POP PUSH4 0x9450C00 PUSH2 0x799 JUMP JUMPDEST DUP2 PUSH1 0x6 EQ ISZERO PUSH2 0x3EC7 JUMPI POP PUSH4 0x128A1800 PUSH2 0x799 JUMP JUMPDEST DUP2 PUSH1 0x7 EQ ISZERO PUSH2 0x3EDB JUMPI POP PUSH4 0x25143000 PUSH2 0x799 JUMP JUMPDEST PUSH1 0x40 MLOAD PUSH3 0x461BCD PUSH1 0xE5 SHL DUP2 MSTORE PUSH1 0x4 ADD PUSH2 0x212 SWAP1 PUSH2 0x457C JUMP JUMPDEST PUSH1 0x40 MLOAD DUP1 PUSH2 0x120 ADD PUSH1 0x40 MSTORE DUP1 PUSH1 0x0 PUSH2 0xFFFF AND DUP2 MSTORE PUSH1 0x20 ADD PUSH1 0x0 DUP2 MSTORE PUSH1 0x20 ADD PUSH1 0x0 DUP2 MSTORE PUSH1 0x20 ADD PUSH1 0x0 DUP2 MSTORE PUSH1 0x20 ADD PUSH1 0x0 DUP2 MSTORE PUSH1 0x20 ADD PUSH1 0x0 DUP2 MSTORE PUSH1 0x20 ADD PUSH1 0x0 DUP2 MSTORE PUSH1 0x20 ADD PUSH1 0x0 DUP2 MSTORE PUSH1 0x20 ADD PUSH1 0x0 DUP2 MSTORE POP SWAP1 JUMP JUMPDEST PUSH1 0x40 DUP1 MLOAD PUSH1 0xA0 DUP2 ADD DUP3 MSTORE PUSH1 0x0 DUP1 DUP3 MSTORE PUSH1 0x20 DUP3 ADD DUP2 SWAP1 MSTORE SWAP2 DUP2 ADD DUP3 SWAP1 MSTORE PUSH1 0x60 DUP2 ADD DUP3 SWAP1 MSTORE PUSH1 0x80 DUP2 ADD SWAP2 SWAP1 SWAP2 MSTORE SWAP1 JUMP JUMPDEST PUSH1 0x40 DUP1 MLOAD PUSH1 0xA0 DUP2 ADD DUP3 MSTORE PUSH1 0x0 DUP1 DUP3 MSTORE PUSH1 0x20 DUP3 ADD DUP2 SWAP1 MSTORE SWAP2 DUP2 ADD DUP3 SWAP1 MSTORE SWAP1 PUSH1 0x60 DUP3 ADD SWAP1 DUP2 MSTORE PUSH1 0x20 ADD PUSH1 0x0 DUP2 MSTORE POP SWAP1 JUMP JUMPDEST PUSH1 0x40 MLOAD DUP1 PUSH1 0x80 ADD PUSH1 0x40 MSTORE DUP1 PUSH1 0x60 DUP2 MSTORE PUSH1 0x20 ADD PUSH1 0x60 DUP2 MSTORE PUSH1 0x20 ADD PUSH1 0x0 DUP2 MSTORE PUSH1 0x20 ADD PUSH1 0x0 DUP2 MSTORE POP SWAP1 JUMP JUMPDEST PUSH1 0x40 MLOAD DUP1 PUSH1 0xC0 ADD PUSH1 0x40 MSTORE DUP1 PUSH1 0x0 DUP2 MSTORE PUSH1 0x20 ADD PUSH1 0x0 DUP2 MSTORE PUSH1 0x20 ADD PUSH1 0x0 DUP2 MSTORE PUSH1 0x20 ADD PUSH1 0x0 DUP2 MSTORE PUSH1 0x20 ADD PUSH1 0x0 DUP2 MSTORE PUSH1 0x20 ADD PUSH1 0x0 PUSH1 0x3 DUP2 GT ISZERO PUSH2 0x4003 JUMPI INVALID JUMPDEST SWAP1 MSTORE SWAP1 JUMP JUMPDEST PUSH1 0x40 MLOAD DUP1 PUSH1 0x20 ADD PUSH1 0x40 MSTORE DUP1 PUSH1 0x1 SWAP1 PUSH1 0x20 DUP3 MUL DUP1 CALLDATASIZE DUP4 CALLDATACOPY POP SWAP2 SWAP3 SWAP2 POP POP JUMP JUMPDEST DUP1 CALLDATALOAD PUSH1 0x1 PUSH1 0x1 PUSH1 0xA0 SHL SUB DUP2 AND DUP2 EQ PUSH2 0x799 JUMPI PUSH1 0x0 DUP1 REVERT JUMPDEST DUP1 MLOAD PUSH1 0x1 PUSH1 0x1 PUSH1 0x70 SHL SUB NOT DUP2 AND DUP2 EQ PUSH2 0x799 JUMPI PUSH1 0x0 DUP1 REVERT JUMPDEST DUP1 MLOAD PUSH1 0x4 DUP2 LT PUSH2 0x799 JUMPI PUSH1 0x0 DUP1 REVERT JUMPDEST DUP1 MLOAD PUSH2 0x799 DUP2 PUSH2 0x47FA JUMP JUMPDEST DUP1 MLOAD PUSH1 0xFF DUP2 AND DUP2 EQ PUSH2 0x799 JUMPI PUSH1 0x0 DUP1 REVERT JUMPDEST PUSH1 0x0 PUSH1 0x20 DUP3 DUP5 SUB SLT ISZERO PUSH2 0x4091 JUMPI DUP1 DUP2 REVERT JUMPDEST PUSH2 0xE9A DUP3 PUSH2 0x4026 JUMP JUMPDEST PUSH1 0x0 DUP1 PUSH1 0x0 PUSH1 0x60 DUP5 DUP7 SUB SLT ISZERO PUSH2 0x40AE JUMPI DUP2 DUP3 REVERT JUMPDEST PUSH2 0x40B7 DUP5 PUSH2 0x4026 JUMP JUMPDEST SWAP3 POP PUSH1 0x20 DUP5 ADD CALLDATALOAD PUSH2 0x40C7 DUP2 PUSH2 0x47FA JUMP JUMPDEST SWAP3 SWAP6 SWAP3 SWAP5 POP POP POP PUSH1 0x40 SWAP2 SWAP1 SWAP2 ADD CALLDATALOAD SWAP1 JUMP JUMPDEST PUSH1 0x0 DUP1 PUSH1 0x0 DUP1 PUSH1 0x0 PUSH1 0xA0 DUP7 DUP9 SUB SLT ISZERO PUSH2 0x40EF JUMPI DUP1 DUP2 REVERT JUMPDEST PUSH2 0x40F8 DUP7 PUSH2 0x4026 JUMP JUMPDEST SWAP5 POP PUSH1 0x20 DUP7 ADD CALLDATALOAD PUSH2 0x4108 DUP2 PUSH2 0x47FA JUMP JUMPDEST SWAP4 POP PUSH1 0x40 DUP7 ADD CALLDATALOAD PUSH1 0x1 PUSH1 0x1 PUSH1 0x60 SHL SUB DUP2 AND DUP2 EQ PUSH2 0x4123 JUMPI DUP2 DUP3 REVERT JUMPDEST SWAP3 POP PUSH1 0x60 DUP7 ADD CALLDATALOAD PUSH2 0x4133 DUP2 PUSH2 0x47E9 JUMP JUMPDEST SWAP2 POP PUSH1 0x80 DUP7 ADD CALLDATALOAD PUSH2 0x4143 DUP2 PUSH2 0x47E9 JUMP JUMPDEST DUP1 SWAP2 POP POP SWAP3 SWAP6 POP SWAP3 SWAP6 SWAP1 SWAP4 POP JUMP JUMPDEST PUSH1 0x0 DUP1 PUSH1 0x0 PUSH1 0x60 DUP5 DUP7 SUB SLT ISZERO PUSH2 0x4165 JUMPI DUP3 DUP4 REVERT JUMPDEST DUP4 MLOAD SWAP3 POP PUSH1 0x20 DUP1 DUP6 ADD MLOAD PUSH2 0x4178 DUP2 PUSH2 0x47E9 JUMP JUMPDEST DUP1 SWAP4 POP POP PUSH1 0x40 DUP1 DUP7 ADD MLOAD PUSH8 0xFFFFFFFFFFFFFFFF DUP1 DUP3 GT ISZERO PUSH2 0x4197 JUMPI DUP5 DUP6 REVERT JUMPDEST DUP2 DUP9 ADD SWAP2 POP DUP9 PUSH1 0x1F DUP4 ADD SLT PUSH2 0x41AA JUMPI DUP5 DUP6 REVERT JUMPDEST DUP2 MLOAD DUP2 DUP2 GT ISZERO PUSH2 0x41B6 JUMPI INVALID JUMPDEST PUSH2 0x41C3 DUP6 DUP7 DUP4 MUL ADD PUSH2 0x47C5 JUMP JUMPDEST DUP2 DUP2 MSTORE DUP6 DUP2 ADD SWAP1 DUP5 DUP8 ADD PUSH1 0xC0 DUP1 DUP6 MUL DUP8 ADD DUP10 ADD DUP15 LT ISZERO PUSH2 0x41E1 JUMPI DUP10 DUP11 REVERT JUMPDEST DUP10 SWAP7 POP JUMPDEST DUP5 DUP8 LT ISZERO PUSH2 0x4261 JUMPI DUP1 DUP3 DUP16 SUB SLT ISZERO PUSH2 0x41FB JUMPI DUP10 DUP11 REVERT JUMPDEST DUP8 MLOAD DUP2 DUP2 ADD DUP2 DUP2 LT DUP9 DUP3 GT OR ISZERO PUSH2 0x420E JUMPI INVALID JUMPDEST DUP1 DUP11 MSTORE POP DUP3 MLOAD DUP2 MSTORE DUP10 DUP4 ADD MLOAD DUP11 DUP3 ADD MSTORE DUP9 DUP4 ADD MLOAD DUP10 DUP3 ADD MSTORE PUSH1 0x60 DUP4 ADD MLOAD PUSH1 0x60 DUP3 ADD MSTORE PUSH1 0x80 DUP4 ADD MLOAD PUSH1 0x80 DUP3 ADD MSTORE PUSH2 0x4246 PUSH1 0xA0 DUP5 ADD PUSH2 0x4055 JUMP JUMPDEST PUSH1 0xA0 DUP3 ADD MSTORE DUP5 MSTORE PUSH1 0x1 SWAP7 SWAP1 SWAP7 ADD SWAP6 SWAP3 DUP9 ADD SWAP3 SWAP1 DUP2 ADD SWAP1 PUSH2 0x41E5 JUMP JUMPDEST POP POP DUP1 SWAP8 POP POP POP POP POP POP POP POP SWAP3 POP SWAP3 POP SWAP3 JUMP JUMPDEST PUSH1 0x0 PUSH1 0xA0 DUP3 DUP5 SUB SLT ISZERO PUSH2 0x4285 JUMPI DUP1 DUP2 REVERT JUMPDEST PUSH1 0x40 MLOAD PUSH1 0xA0 DUP2 ADD DUP2 DUP2 LT PUSH8 0xFFFFFFFFFFFFFFFF DUP3 GT OR ISZERO PUSH2 0x42A2 JUMPI INVALID JUMPDEST PUSH1 0x40 MSTORE DUP3 MLOAD PUSH5 0xFFFFFFFFFF DUP2 AND DUP2 EQ PUSH2 0x42B9 JUMPI DUP3 DUP4 REVERT JUMPDEST DUP2 MSTORE PUSH1 0x20 DUP4 ADD MLOAD PUSH1 0x1 PUSH1 0x1 PUSH1 0xF8 SHL SUB NOT DUP2 AND DUP2 EQ PUSH2 0x42D5 JUMPI DUP3 DUP4 REVERT JUMPDEST PUSH1 0x20 DUP3 ADD MSTORE PUSH2 0x42E6 PUSH1 0x40 DUP5 ADD PUSH2 0x406F JUMP JUMPDEST PUSH1 0x40 DUP3 ADD MSTORE PUSH2 0x42F7 PUSH1 0x60 DUP5 ADD PUSH2 0x4064 JUMP JUMPDEST PUSH1 0x60 DUP3 ADD MSTORE PUSH2 0x4308 PUSH1 0x80 DUP5 ADD PUSH2 0x403D JUMP JUMPDEST PUSH1 0x80 DUP3 ADD MSTORE SWAP4 SWAP3 POP POP POP JUMP JUMPDEST PUSH1 0x0 PUSH1 0x20 DUP3 DUP5 SUB SLT ISZERO PUSH2 0x4325 JUMPI DUP1 DUP2 REVERT JUMPDEST DUP2 CALLDATALOAD PUSH2 0xE9A DUP2 PUSH2 0x47FA JUMP JUMPDEST PUSH1 0x0 DUP1 PUSH1 0x0 PUSH1 0x60 DUP5 DUP7 SUB SLT ISZERO PUSH2 0x4344 JUMPI DUP1 DUP2 REVERT JUMPDEST DUP4 CALLDATALOAD PUSH2 0x434F DUP2 PUSH2 0x47FA JUMP JUMPDEST SWAP3 POP PUSH1 0x20 DUP5 ADD CALLDATALOAD PUSH1 0x1 PUSH1 0x1 PUSH1 0x58 SHL SUB DUP2 AND DUP2 EQ PUSH2 0x436A JUMPI DUP2 DUP3 REVERT JUMPDEST SWAP2 POP PUSH1 0x40 DUP5 ADD CALLDATALOAD PUSH2 0x437A DUP2 PUSH2 0x47E9 JUMP JUMPDEST DUP1 SWAP2 POP POP SWAP3 POP SWAP3 POP SWAP3 JUMP JUMPDEST PUSH1 0x0 PUSH1 0x20 DUP3 DUP5 SUB SLT ISZERO PUSH2 0x4396 JUMPI DUP1 DUP2 REVERT JUMPDEST POP MLOAD SWAP2 SWAP1 POP JUMP JUMPDEST PUSH1 0x1 PUSH1 0x1 PUSH1 0xA0 SHL SUB SWAP2 SWAP1 SWAP2 AND DUP2 MSTORE PUSH1 0x20 ADD SWAP1 JUMP JUMPDEST PUSH1 0x1 PUSH1 0x1 PUSH1 0xA0 SHL SUB SWAP5 DUP6 AND DUP2 MSTORE SWAP3 DUP5 AND PUSH1 0x20 DUP5 ADD MSTORE SWAP1 DUP4 AND PUSH1 0x40 DUP4 ADD MSTORE SWAP1 SWAP2 AND PUSH1 0x60 DUP3 ADD MSTORE PUSH1 0x80 ADD SWAP1 JUMP JUMPDEST PUSH1 0x1 PUSH1 0x1 PUSH1 0xA0 SHL SUB SWAP3 SWAP1 SWAP3 AND DUP3 MSTORE DUP1 MLOAD PUSH5 0xFFFFFFFFFF AND PUSH1 0x20 DUP1 DUP5 ADD SWAP2 SWAP1 SWAP2 MSTORE DUP2 ADD MLOAD PUSH1 0x1 PUSH1 0x1 PUSH1 0xF8 SHL SUB NOT AND PUSH1 0x40 DUP1 DUP5 ADD SWAP2 SWAP1 SWAP2 MSTORE DUP2 ADD MLOAD PUSH1 0xFF AND PUSH1 0x60 DUP1 DUP5 ADD SWAP2 SWAP1 SWAP2 MSTORE DUP2 ADD MLOAD PUSH2 0xFFFF AND PUSH1 0x80 DUP1 DUP5 ADD SWAP2 SWAP1 SWAP2 MSTORE ADD MLOAD PUSH1 0x1 PUSH1 0x1 PUSH1 0x70 SHL SUB NOT AND PUSH1 0xA0 DUP3 ADD MSTORE PUSH1 0xC0 ADD SWAP1 JUMP JUMPDEST PUSH1 0x1 PUSH1 0x1 PUSH1 0xA0 SHL SUB SWAP7 SWAP1 SWAP7 AND DUP7 MSTORE PUSH2 0xFFFF SWAP5 SWAP1 SWAP5 AND PUSH1 0x20 DUP7 ADD MSTORE PUSH1 0x40 DUP6 ADD SWAP3 SWAP1 SWAP3 MSTORE PUSH1 0x60 DUP5 ADD MSTORE PUSH1 0x80 DUP4 ADD MSTORE PUSH1 0xA0 DUP3 ADD MSTORE PUSH1 0xC0 ADD SWAP1 JUMP JUMPDEST PUSH1 0x1 PUSH1 0x1 PUSH1 0xA0 SHL SUB SWAP4 DUP5 AND DUP2 MSTORE PUSH1 0x20 DUP2 ADD SWAP3 SWAP1 SWAP3 MSTORE SWAP1 SWAP2 AND PUSH1 0x40 DUP3 ADD MSTORE PUSH1 0x60 ADD SWAP1 JUMP JUMPDEST PUSH1 0x1 PUSH1 0x1 PUSH1 0xA0 SHL SUB SWAP5 DUP6 AND DUP2 MSTORE PUSH1 0x20 DUP2 ADD SWAP4 SWAP1 SWAP4 MSTORE SWAP3 AND PUSH1 0x40 DUP3 ADD MSTORE PUSH2 0xFFFF SWAP1 SWAP2 AND PUSH1 0x60 DUP3 ADD MSTORE PUSH1 0x80 ADD SWAP1 JUMP JUMPDEST PUSH1 0x1 PUSH1 0x1 PUSH1 0xA0 SHL SUB SWAP5 SWAP1 SWAP5 AND DUP5 MSTORE PUSH1 0x20 DUP5 ADD SWAP3 SWAP1 SWAP3 MSTORE PUSH1 0x40 DUP4 ADD MSTORE PUSH1 0x60 DUP3 ADD MSTORE PUSH1 0x80 ADD SWAP1 JUMP JUMPDEST SWAP1 ISZERO ISZERO DUP2 MSTORE PUSH1 0x20 ADD SWAP1 JUMP JUMPDEST SWAP1 DUP2 MSTORE PUSH1 0x20 ADD SWAP1 JUMP JUMPDEST SWAP2 DUP3 MSTORE ISZERO ISZERO PUSH1 0x20 DUP3 ADD MSTORE PUSH1 0x40 ADD SWAP1 JUMP JUMPDEST PUSH1 0x20 DUP1 DUP3 MSTORE PUSH1 0x4 SWAP1 DUP3 ADD MSTORE PUSH4 0x135A5B9D PUSH1 0xE2 SHL PUSH1 0x40 DUP3 ADD MSTORE PUSH1 0x60 ADD SWAP1 JUMP JUMPDEST PUSH1 0x20 DUP1 DUP3 MSTORE PUSH1 0xB SWAP1 DUP3 ADD MSTORE PUSH11 0x4554482042616C616E6365 PUSH1 0xA8 SHL PUSH1 0x40 DUP3 ADD MSTORE PUSH1 0x60 ADD SWAP1 JUMP JUMPDEST PUSH1 0x20 DUP1 DUP3 MSTORE PUSH1 0x6 SWAP1 DUP3 ADD MSTORE PUSH6 0x52656465656D PUSH1 0xD0 SHL PUSH1 0x40 DUP3 ADD MSTORE PUSH1 0x60 ADD SWAP1 JUMP JUMPDEST PUSH1 0x20 DUP1 DUP3 MSTORE PUSH1 0xD SWAP1 DUP3 ADD MSTORE PUSH13 0x92DCECC2D8D2C840D2DCC8CAF PUSH1 0x9B SHL PUSH1 0x40 DUP3 ADD MSTORE PUSH1 0x60 ADD SWAP1 JUMP JUMPDEST PUSH1 0x20 DUP1 DUP3 MSTORE PUSH1 0x12 SWAP1 DUP3 ADD MSTORE PUSH18 0x43616E6E6F74206861766520617373657473 PUSH1 0x70 SHL PUSH1 0x40 DUP3 ADD MSTORE PUSH1 0x60 ADD SWAP1 JUMP JUMPDEST PUSH1 0x20 DUP1 DUP3 MSTORE PUSH1 0x14 SWAP1 DUP3 ADD MSTORE PUSH20 0x496E73756666696369656E742062616C616E6365 PUSH1 0x60 SHL PUSH1 0x40 DUP3 ADD MSTORE PUSH1 0x60 ADD SWAP1 JUMP JUMPDEST PUSH1 0x20 DUP1 DUP3 MSTORE PUSH1 0x13 SWAP1 DUP3 ADD MSTORE PUSH19 0x4163636F756E74206D75737420736574746C65 PUSH1 0x68 SHL PUSH1 0x40 DUP3 ADD MSTORE PUSH1 0x60 ADD SWAP1 JUMP JUMPDEST PUSH1 0x20 DUP1 DUP3 MSTORE PUSH1 0xF SWAP1 DUP3 ADD MSTORE PUSH15 0x4F766572206D617820617373657473 PUSH1 0x88 SHL PUSH1 0x40 DUP3 ADD MSTORE PUSH1 0x60 ADD SWAP1 JUMP JUMPDEST PUSH1 0x20 DUP1 DUP3 MSTORE PUSH1 0x13 SWAP1 DUP3 ADD MSTORE PUSH19 0x2AB730BABA3437B934BD32B21031B0B63632B9 PUSH1 0x69 SHL PUSH1 0x40 DUP3 ADD MSTORE PUSH1 0x60 ADD SWAP1 JUMP JUMPDEST PUSH1 0x20 DUP1 DUP3 MSTORE PUSH1 0xE SWAP1 DUP3 ADD MSTORE PUSH14 0x1499595B9D1C985B9D0818D85B1B PUSH1 0x92 SHL PUSH1 0x40 DUP3 ADD MSTORE PUSH1 0x60 ADD SWAP1 JUMP JUMPDEST PUSH1 0x20 DUP1 DUP3 MSTORE PUSH1 0x14 SWAP1 DUP3 ADD MSTORE PUSH20 0x43616E6E6F74206368616E6765206269746D617 PUSH1 0x64 SHL PUSH1 0x40 DUP3 ADD MSTORE PUSH1 0x60 ADD SWAP1 JUMP JUMPDEST PUSH1 0x20 DUP1 DUP3 MSTORE PUSH1 0x8 SWAP1 DUP3 ADD MSTORE PUSH8 0x9CCACE4086C2E6D PUSH1 0xC3 SHL PUSH1 0x40 DUP3 ADD MSTORE PUSH1 0x60 ADD SWAP1 JUMP JUMPDEST PUSH1 0x20 DUP1 DUP3 MSTORE PUSH1 0x10 SWAP1 DUP3 ADD MSTORE PUSH16 0x10D85B9B9BDD081A185D99481919589D PUSH1 0x82 SHL PUSH1 0x40 DUP3 ADD MSTORE PUSH1 0x60 ADD SWAP1 JUMP JUMPDEST PUSH1 0x20 DUP1 DUP3 MSTORE PUSH1 0xA SWAP1 DUP3 ADD MSTORE PUSH10 0x2732B390372A37B5B2B7 PUSH1 0xB1 SHL PUSH1 0x40 DUP3 ADD MSTORE PUSH1 0x60 ADD SWAP1 JUMP JUMPDEST PUSH1 0x20 DUP1 DUP3 MSTORE PUSH1 0x13 SWAP1 DUP3 ADD MSTORE PUSH19 0x125B9D985B1A590818DD5C9C995B98DE481A59 PUSH1 0x6A SHL PUSH1 0x40 DUP3 ADD MSTORE PUSH1 0x60 ADD SWAP1 JUMP JUMPDEST PUSH1 0x20 DUP1 DUP3 MSTORE PUSH1 0x13 SWAP1 DUP3 ADD MSTORE PUSH19 0x496E73756666696369656E7420746F6B656E73 PUSH1 0x68 SHL PUSH1 0x40 DUP3 ADD MSTORE PUSH1 0x60 ADD SWAP1 JUMP JUMPDEST PUSH2 0xFFFF SWAP5 SWAP1 SWAP5 AND DUP5 MSTORE PUSH1 0x20 DUP5 ADD SWAP3 SWAP1 SWAP3 MSTORE ISZERO ISZERO PUSH1 0x40 DUP4 ADD MSTORE ISZERO ISZERO PUSH1 0x60 DUP3 ADD MSTORE PUSH1 0x80 ADD SWAP1 JUMP JUMPDEST PUSH1 0x40 MLOAD DUP2 DUP2 ADD PUSH8 0xFFFFFFFFFFFFFFFF DUP2 GT DUP3 DUP3 LT OR ISZERO PUSH2 0x47E1 JUMPI INVALID JUMPDEST PUSH1 0x40 MSTORE SWAP2 SWAP1 POP JUMP JUMPDEST DUP1 ISZERO ISZERO DUP2 EQ PUSH2 0x47F7 JUMPI PUSH1 0x0 DUP1 REVERT JUMPDEST POP JUMP JUMPDEST PUSH2 0xFFFF DUP2 AND DUP2 EQ PUSH2 0x47F7 JUMPI PUSH1 0x0 DUP1 REVERT INVALID MSTORE8 PUSH2 0x6665 0x4D PUSH2 0x7468 GASPRICE KECCAK256 PUSH14 0x756C7469706C69636174696F6E20 PUSH16 0x766572666C6F77A26469706673582212 KECCAK256 0x27 GT SLOAD 0xB0 0xEA SWAP12 0x5D 0xA8 COINBASE 0x2E SHR 0xD7 SWAP16 SSTORE 0x5C STOP 0xCC 0x48 0xC9 0x5F PUSH24 0x44683297D01AE4E278AE0364736F6C634300070600330000 ","sha1":"581d3c9907fc0a42c5568718540dcebe4e5c74b7","source":"// SPDX-License-Identifier: GPL-3.0-only\npragma solidity =0.7.6;\npragma abicoder v2;\n\nimport \"./ActionGuards.sol\";\nimport \"./nTokenRedeemAction.sol\";\nimport \"../SettleAssetsExternal.sol\";\nimport \"../FreeCollateralExternal.sol\";\nimport \"../../math/SafeInt256.sol\";\nimport \"../../internal/balances/BalanceHandler.sol\";\nimport \"../../internal/AccountContextHandler.sol\";\n\ncontract AccountAction is ActionGuards {\n    using BalanceHandler for BalanceState;\n    using AccountContextHandler for AccountContext;\n    using SafeInt256 for int256;\n\n    event nTokenSupplyChange(address indexed account, uint16 indexed currencyId, int256 tokenSupplyChange);\n\n    /// @notice Enables a bitmap currency for msg.sender, account cannot have any assets when this call\n    /// occurs. Will revert if the account already has a bitmap currency set.\n    /// @param currencyId the currency to enable the bitmap for.\n    /// @dev emit:AccountSettled emit:AccountContextUpdate\n    /// @dev auth:msg.sender\n    function enableBitmapCurrency(uint16 currencyId) external {\n        require(msg.sender != address(this)); // dev: no internal call to enableBitmapCurrency\n        require(currencyId <= maxCurrencyId); // dev: invalid currency id\n        address account = msg.sender;\n        (AccountContext memory accountContext, /* didSettle */) = _settleAccountIfRequired(account);\n        accountContext.enableBitmapForAccount(currencyId, block.timestamp);\n        accountContext.setAccountContext(account);\n    }\n\n    /// @notice Method for manually settling an account, generally should not be called because other\n    /// methods will check if an account needs to be settled automatically. If a bitmap account has debt\n    /// and is settled via this method, the hasDebt flag will not be cleared until a free collateral check\n    /// is performed on the account.\n    /// @param account the account to settle\n    /// @dev emit:AccountSettled emit:AccountContextUpdate\n    /// @dev auth:none\n    /// @return returns true if account has been settled\n    function settleAccount(address account) external returns (bool) {\n        requireValidAccount(account);\n        (AccountContext memory accountContext, bool didSettle) = _settleAccountIfRequired(account);\n        if (didSettle) accountContext.setAccountContext(account);\n        return didSettle;\n    }\n\n    /// @notice Deposits and wraps the underlying token for a particular cToken. Does not settle assets or check free\n    /// collateral, idea is to be as gas efficient as possible during potential liquidation events.\n    /// @param account the account to deposit into\n    /// @param currencyId currency id of the asset token that wraps this underlying\n    /// @param amountExternalPrecision the amount of underlying tokens in its native decimal precision\n    /// (i.e. 18 decimals for DAI or 6 decimals for USDC). This will be converted to 8 decimals during transfer.\n    /// @return asset tokens minted and deposited to the account in internal decimals (8)\n    /// @dev emit:CashBalanceChange emit:AccountContextUpdate\n    /// @dev auth:none\n    function depositUnderlyingToken(\n        address account,\n        uint16 currencyId,\n        uint256 amountExternalPrecision\n    ) external payable nonReentrant returns (uint256) {\n        require(msg.sender != address(this)); // dev: no internal call to deposit underlying\n        requireValidAccount(account);\n\n        AccountContext memory accountContext = AccountContextHandler.getAccountContext(account);\n        BalanceState memory balanceState;\n        balanceState.loadBalanceState(account, currencyId, accountContext);\n\n        // NOTE: using msg.sender here allows for a different sender to deposit tokens into\n        // the specified account. This may be useful for on-demand collateral top ups from a\n        // third party. If called with currencyId == 1 then `depositAssetToken` will access\n        // msg.value to mint cETH from ETH.\n        int256 assetTokensReceivedInternal = balanceState.depositUnderlyingToken(\n            msg.sender,\n            SafeInt256.toInt(amountExternalPrecision)\n        );\n\n        require(assetTokensReceivedInternal > 0); // dev: asset tokens negative or zero\n\n        balanceState.finalize(account, accountContext, false);\n        accountContext.setAccountContext(account);\n\n        // NOTE: no free collateral checks required for depositing\n        return assetTokensReceivedInternal.toUint();\n    }\n\n    /// @notice Deposits asset tokens into an account. Does not settle or check free collateral, idea is to\n    /// make deposit as gas efficient as possible during potential liquidation events.\n    /// @param account the account to deposit into\n    /// @param currencyId currency id of the asset token\n    /// @param amountExternalPrecision the amount of asset tokens in its native decimal precision\n    /// (i.e. 8 decimals for cTokens).\n    /// @return asset tokens minted and deposited to the account in internal decimals (8)\n    /// @dev emit:CashBalanceChange emit:AccountContextUpdate\n    /// @dev auth:none\n    function depositAssetToken(\n        address account,\n        uint16 currencyId,\n        uint256 amountExternalPrecision\n    ) external nonReentrant returns (uint256) {\n        require(msg.sender != address(this)); // dev: no internal call to deposit asset\n        requireValidAccount(account);\n\n        AccountContext memory accountContext = AccountContextHandler.getAccountContext(account);\n        BalanceState memory balanceState;\n        balanceState.loadBalanceState(account, currencyId, accountContext);\n\n        // Int conversion overflow check done inside this method call. msg.sender\n        // is used as the account in deposit to allow for other accounts to deposit\n        // on behalf of the given account.\n        int256 assetTokensReceivedInternal = balanceState.depositAssetToken(\n            msg.sender,\n            SafeInt256.toInt(amountExternalPrecision),\n            true // force transfer to ensure that msg.sender does the transfer, not account\n        );\n\n        require(assetTokensReceivedInternal > 0); // dev: asset tokens negative or zero\n\n        balanceState.finalize(account, accountContext, false);\n        accountContext.setAccountContext(account);\n\n        // NOTE: no free collateral checks required for depositing\n        return assetTokensReceivedInternal.toUint();\n    }\n\n    /// @notice Withdraws balances from Notional, may also redeem to underlying tokens on user request. Will settle\n    /// and do free collateral checks if required. Can only be called by msg.sender, operators who want to withdraw for\n    /// an account must do an authenticated call via ERC1155Action `safeTransferFrom` or `safeBatchTransferFrom`\n    /// @param currencyId currency id of the asset token\n    /// @param amountInternalPrecision the amount of cash balance in internal 8 decimal precision to withdraw,\n    /// this is be denominated in asset cash.\n    /// @param redeemToUnderlying true if the tokens should be converted to underlying assets\n    /// @dev emit:CashBalanceChange emit:AccountContextUpdate\n    /// @dev auth:msg.sender\n    /// @return the amount of tokens received by the account denominated in the destination token precision (if\n    // redeeming to underlying the amount will be the underlying amount received in that token's native precision)\n    function withdraw(\n        uint16 currencyId,\n        uint88 amountInternalPrecision,\n        bool redeemToUnderlying\n    ) external nonReentrant returns (uint256) {\n        // This happens before reading the balance state to get the most up to date cash balance\n        (AccountContext memory accountContext, /* didSettle */) = _settleAccountIfRequired(msg.sender);\n\n        BalanceState memory balanceState;\n        balanceState.loadBalanceState(msg.sender, currencyId, accountContext);\n        require(balanceState.storedCashBalance >= amountInternalPrecision, \"Insufficient balance\");\n        // Overflow is not possible due to uint88\n        balanceState.netAssetTransferInternalPrecision = int256(amountInternalPrecision).neg();\n\n        int256 amountWithdrawnExternal = balanceState.finalize(msg.sender, accountContext, redeemToUnderlying);\n\n        accountContext.setAccountContext(msg.sender);\n\n        if (accountContext.hasDebt != 0x00) {\n            FreeCollateralExternal.checkFreeCollateralAndRevert(msg.sender);\n        }\n\n        require(amountWithdrawnExternal <= 0);\n        return amountWithdrawnExternal.neg().toUint();\n    }\n\n    /// @notice Allows accounts to redeem nTokens into constituent assets and then absorb the assets\n    /// into their portfolio. Due to the complexity here, it is not allowed to be called during a batch trading\n    /// operation and must be done separately.\n    /// @param redeemer the address that holds the nTokens to redeem\n    /// @param currencyId the currency associated the nToken\n    /// @param tokensToRedeem_ the amount of nTokens to convert to cash\n    /// @param sellTokenAssets attempt to sell residual fCash and convert to cash\n    /// @param acceptResidualAssets if true, will place any residual fCash that could not be sold (either due to slippage\n    /// or because it was idiosyncratic) into the account's portfolio\n    /// @dev auth:msg.sender auth:ERC1155\n    /// @return total amount of asset cash redeemed\n    /// @return true or false if there were residuals that were placed into the portfolio\n    function nTokenRedeem(\n        address redeemer,\n        uint16 currencyId,\n        uint96 tokensToRedeem_,\n        bool sellTokenAssets,\n        bool acceptResidualAssets\n    ) external nonReentrant returns (int256, bool) {\n        // ERC1155 can call this method during a post transfer event\n        require(msg.sender == redeemer || msg.sender == address(this), \"Unauthorized caller\");\n        int256 tokensToRedeem = int256(tokensToRedeem_);\n\n        (AccountContext memory context, /* didSettle */) = _settleAccountIfRequired(redeemer);\n\n        BalanceState memory balance;\n        balance.loadBalanceState(redeemer, currencyId, context);\n\n        require(balance.storedNTokenBalance >= tokensToRedeem, \"Insufficient tokens\");\n        balance.netNTokenSupplyChange = tokensToRedeem.neg();\n\n        (int256 totalAssetCash, /* bool hasResidual */, PortfolioAsset[] memory assets) =\n            nTokenRedeemAction.redeem(currencyId, tokensToRedeem, sellTokenAssets, acceptResidualAssets);\n\n        // Set balances before transferring assets\n        balance.netCashChange = totalAssetCash;\n        balance.finalize(redeemer, context, false);\n\n        // The hasResidual flag is only set to true if selling residuals has failed, checking\n        // if the length of assets is greater than zero will detect the presence of ifCash\n        // assets that have not been sold.\n        if (assets.length > 0) {\n            // This method will store assets and update the account context in memory\n            context = TransferAssets.placeAssetsInAccount(redeemer, context, assets);\n        }\n\n        context.setAccountContext(redeemer);\n        if (context.hasDebt != 0x00) {\n            FreeCollateralExternal.checkFreeCollateralAndRevert(redeemer);\n        }\n\n        return (totalAssetCash, assets.length > 0);\n    }\n\n    /// @notice Settle the account if required, returning a reference to the account context. Also\n    /// returns a boolean to indicate if it did settle.\n    function _settleAccountIfRequired(address account)\n        private\n        returns (AccountContext memory, bool)\n    {\n        AccountContext memory accountContext = AccountContextHandler.getAccountContext(account);\n        if (accountContext.mustSettleAssets()) {\n            return (SettleAssetsExternal.settleAccount(account, accountContext), true);\n        } else {\n            return (accountContext, false);\n        }\n    }\n\n    /// @notice Get a list of deployed library addresses (sorted by library name)\n    function getLibInfo() external pure returns (address, address, address, address) {\n        return (\n            address(FreeCollateralExternal),\n            address(MigrateIncentives), \n            address(SettleAssetsExternal), \n            address(nTokenRedeemAction)\n        );\n    }\n}\n","sourcePath":"contracts/external/actions/AccountAction.sol","type":"contract","deployment":{"address":"0xb13AC5454a69E07793beB0E1BaDa40082cB8C821","chainid":"1","blockHeight":18956158}}