{"abi":[{"inputs":[{"internalType":"uint16","name":"currencyId","type":"uint16"},{"internalType":"uint88","name":"amountToDepositExternalPrecision","type":"uint88"}],"name":"calculateNTokensToMint","outputs":[{"internalType":"uint256","name":"","type":"uint256"}],"stateMutability":"view","type":"function"},{"inputs":[{"internalType":"uint16","name":"currencyId","type":"uint16"},{"internalType":"int256","name":"cashBalanceInternal","type":"int256"},{"internalType":"bool","name":"convertToUnderlying","type":"bool"}],"name":"convertCashBalanceToExternal","outputs":[{"internalType":"int256","name":"","type":"int256"}],"stateMutability":"view","type":"function"},{"inputs":[{"internalType":"uint16","name":"currencyId","type":"uint16"},{"internalType":"int88","name":"fCashAmount","type":"int88"},{"internalType":"uint256","name":"marketIndex","type":"uint256"},{"internalType":"uint256","name":"blockTime","type":"uint256"}],"name":"getCashAmountGivenfCashAmount","outputs":[{"internalType":"int256","name":"","type":"int256"},{"internalType":"int256","name":"","type":"int256"}],"stateMutability":"view","type":"function"},{"inputs":[{"internalType":"uint16","name":"currencyId","type":"uint16"},{"internalType":"uint256","name":"fCashAmount","type":"uint256"},{"internalType":"uint256","name":"maturity","type":"uint256"},{"internalType":"uint32","name":"minLendRate","type":"uint32"},{"internalType":"uint256","name":"blockTime","type":"uint256"}],"name":"getDepositFromfCashLend","outputs":[{"internalType":"uint256","name":"depositAmountUnderlying","type":"uint256"},{"internalType":"uint256","name":"depositAmountAsset","type":"uint256"},{"internalType":"uint8","name":"marketIndex","type":"uint8"},{"internalType":"bytes32","name":"encodedTrade","type":"bytes32"}],"stateMutability":"view","type":"function"},{"inputs":[],"name":"getLibInfo","outputs":[{"internalType":"address","name":"","type":"address"}],"stateMutability":"pure","type":"function"},{"inputs":[{"internalType":"uint256","name":"maturity","type":"uint256"},{"internalType":"uint256","name":"blockTime","type":"uint256"}],"name":"getMarketIndex","outputs":[{"internalType":"uint8","name":"marketIndex","type":"uint8"}],"stateMutability":"pure","type":"function"},{"inputs":[{"internalType":"uint16","name":"currencyId","type":"uint16"},{"internalType":"uint256","name":"maturity","type":"uint256"},{"internalType":"int256","name":"notional","type":"int256"},{"internalType":"uint256","name":"blockTime","type":"uint256"},{"internalType":"bool","name":"riskAdjusted","type":"bool"}],"name":"getPresentfCashValue","outputs":[{"internalType":"int256","name":"presentValue","type":"int256"}],"stateMutability":"view","type":"function"},{"inputs":[{"internalType":"uint16","name":"currencyId","type":"uint16"},{"internalType":"uint256","name":"fCashBorrow","type":"uint256"},{"internalType":"uint256","name":"maturity","type":"uint256"},{"internalType":"uint32","name":"maxBorrowRate","type":"uint32"},{"internalType":"uint256","name":"blockTime","type":"uint256"}],"name":"getPrincipalFromfCashBorrow","outputs":[{"internalType":"uint256","name":"borrowAmountUnderlying","type":"uint256"},{"internalType":"uint256","name":"borrowAmountAsset","type":"uint256"},{"internalType":"uint8","name":"marketIndex","type":"uint8"},{"internalType":"bytes32","name":"encodedTrade","type":"bytes32"}],"stateMutability":"view","type":"function"},{"inputs":[{"internalType":"uint16","name":"currencyId","type":"uint16"},{"internalType":"int88","name":"netCashToAccount","type":"int88"},{"internalType":"uint256","name":"marketIndex","type":"uint256"},{"internalType":"uint256","name":"blockTime","type":"uint256"}],"name":"getfCashAmountGivenCashAmount","outputs":[{"internalType":"int256","name":"","type":"int256"}],"stateMutability":"view","type":"function"},{"inputs":[{"internalType":"uint16","name":"currencyId","type":"uint16"},{"internalType":"uint256","name":"borrowedAmountExternal","type":"uint256"},{"internalType":"uint256","name":"maturity","type":"uint256"},{"internalType":"uint32","name":"maxBorrowRate","type":"uint32"},{"internalType":"uint256","name":"blockTime","type":"uint256"},{"internalType":"bool","name":"useUnderlying","type":"bool"}],"name":"getfCashBorrowFromPrincipal","outputs":[{"internalType":"uint88","name":"fCashDebt","type":"uint88"},{"internalType":"uint8","name":"marketIndex","type":"uint8"},{"internalType":"bytes32","name":"encodedTrade","type":"bytes32"}],"stateMutability":"view","type":"function"},{"inputs":[{"internalType":"uint16","name":"currencyId","type":"uint16"},{"internalType":"uint256","name":"depositAmountExternal","type":"uint256"},{"internalType":"uint256","name":"maturity","type":"uint256"},{"internalType":"uint32","name":"minLendRate","type":"uint32"},{"internalType":"uint256","name":"blockTime","type":"uint256"},{"internalType":"bool","name":"useUnderlying","type":"bool"}],"name":"getfCashLendFromDeposit","outputs":[{"internalType":"uint88","name":"fCashAmount","type":"uint88"},{"internalType":"uint8","name":"marketIndex","type":"uint8"},{"internalType":"bytes32","name":"encodedTrade","type":"bytes32"}],"stateMutability":"view","type":"function"},{"inputs":[{"internalType":"address","name":"account","type":"address"},{"internalType":"uint256","name":"blockTime","type":"uint256"}],"name":"nTokenGetClaimableIncentives","outputs":[{"internalType":"uint256","name":"","type":"uint256"}],"stateMutability":"view","type":"function"},{"inputs":[],"name":"owner","outputs":[{"internalType":"address","name":"","type":"address"}],"stateMutability":"view","type":"function"},{"inputs":[],"name":"pauseGuardian","outputs":[{"internalType":"address","name":"","type":"address"}],"stateMutability":"view","type":"function"},{"inputs":[],"name":"pauseRouter","outputs":[{"internalType":"address","name":"","type":"address"}],"stateMutability":"view","type":"function"}],"bytecode":"608060405234801561001057600080fd5b50614bf4806100206000396000f3fe608060405234801561001057600080fd5b50600436106100f55760003560e01c80638355e89511610097578063bac9e8b111610066578063bac9e8b1146101f8578063c4c96dae1461021a578063c52c43e114610222578063f83a860814610235576100f5565b80638355e895146101b75780638da5cb5b146101ca57806397d6db2e146101d2578063aaae47b5146101e5576100f5565b80635953c77b116100d35780635953c77b1461015c5780636a09a2a31461017c5780636ebbf1741461019c57806382463367146101af576100f5565b8063094614df146100fa57806324a3d62214610124578063416a158714610139575b600080fd5b61010d610108366004614741565b610248565b60405161011b929190614928565b60405180910390f35b61012c610266565b60405161011b91906148e5565b61014c6101473660046147d8565b610275565b60405161011b9493929190614b4d565b61016f61016a3660046148c4565b610320565b60405161011b9190614b8f565b61018f61018a366004614883565b61034c565b60405161011b919061491f565b61018f6101aa366004614706565b6103b6565b61012c61041e565b61018f6101c5366004614741565b61042d565b61012c61045d565b61018f6101e03660046146b8565b610474565b61014c6101f33660046147d8565b6105ac565b61020b610206366004614825565b61063b565b60405161011b93929190614b6b565b61012c6106b6565b61018f610230366004614789565b6106ce565b61020b610243366004614825565b610721565b600080610259868686866000610786565b9150915094509492505050565b6002546001600160a01b031681565b6000806000806102858786610320565b915060008260ff161161029757600080fd5b6a7fffffffffffffffffffff88106102ae57600080fd5b60006102c16102bc8a610882565b6108a0565b90506000806102dc8c848760ff168b8d63ffffffff16610786565b915091506102ec8c8260016108ae565b96506102fa8c8360006108ae565b955061030c60018685600a0b8c610968565b508094505050505095509550955095915050565b6000806000610331600786866109c6565b91509150806103405781610343565b60005b95945050505050565b600061035783610a8e565b60006103668461ffff16610acb565b9050600061037d826001600160581b038616610ade565b9050610387614486565b6103918187610b14565b600061039e828442610b2d565b90506103a981610c2c565b9450505050505b92915050565b600081156103dd5760006103cd8561ffff16610c83565b90506103d98185610ccf565b9350505b60006103fa6103f5866103ef87610cfa565b866108ae565b610882565b90506000841261040a5780610413565b610413816108a0565b9150505b9392505050565b6001546001600160a01b031681565b600061043885610a8e565b600061044386610d1b565b905061045185858584610d3e565b9150505b949350505050565b60005464010000000090046001600160a01b031681565b60008061048084610dd3565b905061048a6144cf565b600061049583610e7a565b1561050b5760608301516104ad908390889086610e87565b60008260400151131561050b5760006104cd836000015161ffff16610f2d565b905060006104db8288610f53565b5091505060006104f98584846104f48960400151610fe9565b610ff8565b90506105058482611125565b93505050505b60808301515b6001600160701b03198116156105a25760f081901c613fff1661053684898388610e87565b60008460400151131561058f576000610556856000015161ffff16610f2d565b90506000610564828a610f53565b50915050600061057d8784846104f48b60400151610fe9565b90506105898682611125565b95505050505b5060101b6001600160801b031916610511565b5095945050505050565b6000806000806105bc8786610320565b915060008260ff16116105ce57600080fd5b6a7fffffffffffffffffffff88106105e557600080fd5b60006105f089610882565b905060008061060b8c848760ff168b8d63ffffffff16610786565b9150915061061b8c8260016108ae565b96506106298c8360006108ae565b955061030c60008685600a0b8c610968565b600080600061064a8786610320565b915060008260ff161161065c57600080fd5b60008061066a8b8b8861117f565b91509150600061068761067c8461121f565b8660ff168a85610d3e565b90506000811261069657600080fd5b6106a3600186838c610968565b9d959c509a509398505050505050505050565b73__MigrateIncentives_____________________90565b6000806106da87610d1b565b90508215610700576106f9818688876106f4848383611251565b611341565b91506105a2565b610716858786610711858383611251565b6113e1565b979650505050505050565b60008060006107308786610320565b915060008260ff161161074257600080fd5b6000806107508b8b8861117f565b91509150600061076a61067c610765856108a0565b61121f565b90508060001261077957600080fd5b6106a3600086838c610968565b60008061079287610a8e565b600061079d88610d1b565b90506107a761451f565b6107b582828960008a611427565b858160200151116107e15760405162461bcd60e51b81526004016107d890614a99565b60405180910390fd5b602081015186900360006107fc8385600a8d900b858d6114a2565b509050861561085e5760008a600a0b121561083a57868360a0015111156108355760405162461bcd60e51b81526004016107d890614a69565b61085e565b868360a00151101561085e5760405162461bcd60e51b81526004016107d890614a69565b6040840151819061086f9082610ccf565b95509550505050505b9550959350505050565b60006001600160ff1b0382111561089857600080fd5b50805b919050565b60006103b0600019836115a5565b6000806000836108ca576108c58661ffff16610acb565b6108d7565b6108d78661ffff166115f3565b90508380156108e65750600085125b15610905576108fe6108f7866108a0565b8290611606565b915061091a565b6109176109128287611643565b610cfa565b91505b60058160600151600581111561092c57fe5b14156109555760006109418761ffff166115f3565b905061095181600001518461167b565b9250505b61095e82610fe9565b9695505050505050565b600080600061097685610cfa565b90506001600160581b0381111561098c57600080fd5b60788463ffffffff16901b609882901b60f08860ff16901b60f88a60058111156109b257fe5b60ff16901b17171797909650945050505050565b600080600085116109e95760405162461bcd60e51b81526004016107d8906149bb565b6007851115610a0a5760405162461bcd60e51b81526004016107d890614a11565b6000610a1584611701565b905060015b868111610a6d576000610a36610a2f83611722565b8490611125565b905086811415610a4e5750925060009150610a869050565b86811115610a645750925060019150610a869050565b50600101610a1a565b5060405162461bcd60e51b81526004016107d890614af2565b935093915050565b8061ffff166000108015610aac575060005461ffff90811690821611155b610ac85760405162461bcd60e51b81526004016107d890614ac5565b50565b610ad3614567565b6103b08260006117c6565b60006305f5e10083604001511415610af75750806103b0565b604083015161041790610b0e846305f5e1006115a5565b90611874565b610b1e82826118a5565b610b2781610d1b565b90915250565b600080831215610b3c57600080fd5b82610b4957506000610417565b608084015115610b81576000610b5e85611948565b9050828111610b7f5760405162461bcd60e51b81526004016107d890614966565b505b6040840151610b91575081610417565b600080610b9e8685611979565b915091506000821215610bb057600080fd5b6000811215610bbe57600080fd5b60a086015160051a6000610be484610b0e6064610bde61091284896119e2565b906115a5565b905081811315610c065760405162461bcd60e51b81526004016107d890614b1f565b610c2183610b0e8a604001518a6115a590919063ffffffff16565b945050505050610417565b600080821215610898576040805162461bcd60e51b815260206004820181905260248201527f53616665436173743a2076616c7565206d75737420626520706f736974697665604482015290519081900360640190fd5b610c8b614596565b6000806000610c99856119f8565b604080516060810182526001600160a01b039093168352602083019390935260ff16600a0a918101919091529350505050919050565b6000806104558460400151610b0e6402540be400610b0e8789602001516115a590919063ffffffff16565b600080821215610d1457610d0d826108a0565b905061089b565b508061089b565b610d236145c0565b6000610d328361ffff16610c83565b90506104178382611ab9565b6000610d4861451f565b610d56838287600088611427565b83816020015111610d795760405162461bcd60e51b81526004016107d890614a99565b602081015184900360008080610d918588868c611afc565b9250925092506000610dab610da589611b9e565b86611bb3565b9050610dc486604001518c600a0b858786866000611c1e565b9b9a5050505050505050505050565b610ddb6145ec565b6000610de5611cce565b6001600160a01b039390931660009081526020938452604090819020815160a081018352905464ffffffffff8116825265010000000000810460f81b6001600160f81b03191695820195909552600160301b850460ff1691810191909152600160381b840461ffff166060820152690100000000000000000090930460701b6001600160701b03191660808401525090919050565b6060015161ffff16151590565b8161ffff166000108015610ea15750613fff61ffff831611155b610eaa57600080fd5b61ffff8216808552610ebd908290611cdb565b15610eea57610ed0838361ffff16611d65565b61010088015260e087015260408601526020850152610f08565b6000602085018190526040850181905260e085018190526101008501525b50506000606083018190526080830181905260a0830181905260c09092019190915250565b600080610f38611e11565b6000938452602052505060409020546001600160a01b031690565b6000806000610f6185611e1e565b919450925090508084118015610f775750600081115b8015610f835750600083115b15610fe2576000610f9386611e7f565b5050509150506000610fbe610fb56305f5e10084611ee890919063ffffffff16565b84880387611f41565b9050610fca8482611125565b93506001600160801b038410610fdf57600080fd5b50505b9250925092565b60008082121561089857600080fd5b60e0840151600090156110b95773__MigrateIncentives_____________________63e0c01a728561102d8860400151610fe9565b8860e001518961010001516040518563ffffffff1660e01b815260040161105794939291906148f9565b60206040518083038186803b15801561106f57600080fd5b505af4158015611083573d6000803e3d6000fd5b505050506040513d601f19601f820116820180604052508101906110a791906146ee565b600060e0870181905261010087015290505b6110fb6110f48661010001516110ee670de0b6b3a76400006110e8886110e28c60400151610fe9565b90611ee8565b90611f63565b90611fca565b8290611125565b9050611113670de0b6b3a76400006110e88486611ee8565b85610100018181525050949350505050565b600082820183811015610417576040805162461bcd60e51b815260206004820152601b60248201527f536166654d6174683a206164646974696f6e206f766572666c6f770000000000604482015290519081900360640190fd5b60006111896145c0565b600061119485610882565b905061119f86610d1b565b91506000846111ba576111b58761ffff16610acb565b6111c7565b6111c78761ffff166115f3565b90506005816060015160058111156111db57fe5b14156111f2576111ef8761ffff1683612027565b91505b6111fc8183610ade565b9350846112155760408301516112129085610ccf565b93505b5050935093915050565b60006a7fffffffffffffffffffff19821280159061124857506a7fffffffffffffffffffff8213155b61089857600080fd5b6000806000611265866020015186866109c6565b915091506000611274876120ae565b90508161129757865161128d9061ffff168783886120c2565b9350505050610417565b60006112a286611701565b905060006112b96112b286611722565b8390611125565b905060006112d18a6000015161ffff1683868b6120c2565b905060008087600114156112f6578991506112ef8c60400151612152565b9050611325565b61130c61130560018a03611722565b8690611125565b91506113228c6000015161ffff1683888d6120c2565b90505b611332828583868f6121e3565b98505050505050505050610417565b60008461135057506000610343565b600061135c8585611fca565b905060008087131561138b576113848261137f6113788b612241565b8790611125565b612256565b90506113ba565b6000611396896122be565b90508481106113aa57879350505050610343565b6113b683828703612256565b9150505b633b9aca008113156113cb57600080fd5b6113d587826122d3565b98975050505050505050565b6000846113f057506000610455565b60006113fc8585611fca565b9050600061140a8285612256565b9050633b9aca0081131561141d57600080fd5b61071687826122d3565b8260011115801561143c575084602001518311155b6114585760405162461bcd60e51b81526004016107d890614a41565b600061147561146685611722565b61146f84611701565b90611125565b905061149a866000015161ffff1682848661148f8b6120ae565b8a94939291906122ec565b505050505050565b600080848760400151136114bb57506000905080610878565b60008060006114cc8a8a8989611afc565b9250925092506000806114e68c604001518587868e612316565b90925090508061150157600080965096505050505050610878565b5060008060006115138d858e8e6123bc565b9250925092508260001415611535576000809850985050505050505050610878565b60408e0151611544908d6124a7565b60408f018190526115619061155988856124c3565b89888f6124d9565b60a08f0181905261157f576000809850985050505050505050610878565b6115908e8e60400151858585612596565b98509850505050505050509550959350505050565b8181026000198314156115d5578115806115c75750828282816115c457fe5b05145b6115d057600080fd5b6103b0565b8215806115ea5750818382816115e757fe5b05145b6103b057600080fd5b6115fb614567565b6103b08260016117c6565b60006305f5e100836040015112156116345761162d60016116278585611643565b906124c3565b90506103b0565b610417836116438460016124c3565b60006305f5e1008360400151141561165c5750806103b0565b6104176305f5e100610b0e8560400151856115a590919063ffffffff16565b60008161168a575060006103b0565b6000611695846125eb565b905060006116a284610cfa565b9050816b019d971e4fe8401e74000001600160ff1b03816116bf57fe5b058113156116cc57600080fd5b6b033b2e3c9fd0803ce80000006b019d971e4fe8401e74000000838302010560008513610343576116fc816108a0565b61095e565b60006276a70082101561171357600080fd5b6276a700825b06909103919050565b6000816001141561173757506276a70061089b565b816002141561174a575062ed4e0061089b565b816003141561175e57506301da9c0061089b565b816004141561177257506303b5380061089b565b816005141561178657506309450c0061089b565b816006141561179a575063128a180061089b565b81600714156117ae5750632514300061089b565b60405162461bcd60e51b81526004016107d8906149ea565b6117ce614567565b60006117d8612676565b6000858152602082815260408083208715158452825291829020825160a08101845281546001600160a01b038116825260ff600160a01b82048116151594830194909452600160b01b81048416600a0a9482019490945293945092916060830191600160a81b90910416600581111561184d57fe5b81529154600160b81b900468ffffffffffffffffff16602090920191909152949350505050565b60008160001914801561188a5750600160ff1b83145b1561189457600080fd5b81838161189d57fe5b059392505050565b6118b28161ffff16610f2d565b6001600160a01b031660c08301819052600090819081906118d290611e7f565b945094509450505060006118e98660c00151611e1e565b505060808701859052604087018190526001600160d01b0319831660a088015260c087015190915061191d90846000612683565b602087015260c08601516119359061ffff8716611d65565b5050506060909601959095525050505050565b600081608001516000141561195f5750600061089b565b60808201516276a7009061197290611701565b0192915050565b600080600061198a85856001612716565b509050600061199b86866000612716565b50905060006119aa8787612879565b60608801519091506119c09061162785846124c3565b60608801519095506119d69061162784846124c3565b93505050509250929050565b808203828113156000831215146103b057600080fd5b6000806000806000611a09866128fe565b909250905060006001600160a01b038316611a2e5750600090506402540be400611aae565b826001600160a01b031663b2fffb046040518163ffffffff1660e01b815260040160206040518083038186803b158015611a6757600080fd5b505afa158015611a7b573d6000803e3d6000fd5b505050506040513d601f19601f82011682018060405250810190611a9f91906146ee565b905060008113611aae57600080fd5b969195509350915050565b611ac16145c0565b6000611ad08461ffff16612935565b6040805160808101825261ffff96909616865260ff821660208701528501939093525050606082015290565b6000808080611b0c878688612952565b90506000611b2b89606001518960400151610ccf90919063ffffffff16565b9050886040015160001480611b3e575080155b15611b555760008060009450945094505050611b94565b600080611b6d8b604001518c60a0015185878d6129ba565b909250905080611b8b57600080600096509650965050505050611b94565b50919450925090505b9450945094915050565b60600151620186a060109190911c60ff160290565b600080611bd0611bcb6301da9c006110e88787611ee8565b612a4a565b90506000611be482621dcd6560491b612a68565b90506000611bf182612abb565b90506000611c0582621dcd6560491b612b10565b9050611c1081612b46565b60070b979650505050505050565b600080821215611c2d57600080fd5b6000611c3c6102bc89876122d3565b905060005b60fa8160ff161015611cb557600080611c5d8c8b8b8b88612316565b9150915080611c6b57600080fd5b6000611c7c8c8e8d8d89888e612b4f565b905086611c8882610cfa565b13611c9a578495505050505050610716565b611ca485826119e2565b94505060019092019150611c419050565b5060405162461bcd60e51b81526004016107d890614993565b6000806103b06001612c3e565b60008115801590611cee5750613fff8211155b611cf757600080fd5b6080830151606084015161ffff16831415611d165760019150506103b0565b6001600160701b0319811615611d5b5760f081901c613fff1683811415611d485750600160fe1b9081161490506103b0565b5060101b6001600160801b031916611d16565b5060009392505050565b6000806000806000611d75612c50565b6001600160a01b0388166000908152602082815260408083208a84529091529020805469ffffffffffffffffffff81169650600160501b900463ffffffff1694509091508315611de1578054611dda90600160701b900466ffffffffffffff16612c5d565b9250611df6565b8054600160701b900466ffffffffffffff1692505b54600160a81b9004600a90810b900b97939650919450925050565b6000806103b06003612c3e565b600080600080611e2c612c6b565b6001600160a01b0395909516600090815260209590955250506040909220546bffffffffffffffffffffffff811693600160601b82046001600160801b03169350600160e01b90910463ffffffff169150565b600080600080600080611e90612c78565b6001600160a01b039097166000908152602097909752505060409094205461ffff81169563ffffffff62010000830481169650600160301b830416945060ff600160501b8304169350600160581b90910460d01b9150565b600082611ef7575060006103b0565b82820282848281611f0457fe5b04146104175760405162461bcd60e51b8152600401808060200182810382526021815260200180614b9e6021913960400191505060405180910390fd5b6000610455826110e86301da9c0081886110e289670de0b6b3a7640000611ee8565b6000808211611fb9576040805162461bcd60e51b815260206004820152601a60248201527f536166654d6174683a206469766973696f6e206279207a65726f000000000000604482015290519081900360640190fd5b818381611fc257fe5b049392505050565b600082821115612021576040805162461bcd60e51b815260206004820152601e60248201527f536166654d6174683a207375627472616374696f6e206f766572666c6f770000604482015290519081900360640190fd5b50900390565b600081612036575060006103b0565b6000821361204357600080fd5b600061204e846115f3565b9050600061205f82600001516125eb565b9050600281056b033b2e3c9fd0803ce80000006001600160ff1b038290030585131561208a57600080fd5b81816b033b2e3c9fd0803ce8000000870201816120a357fe5b059695505050505050565b6060015161012c60089190911c60ff160290565b6000806120cd612c85565b905060006276a7006120de85611701565b6000898152602085815260408083208b84528252808320949093018083529390522080549192509063ffffffff600160a01b8204811691600160c01b8104821691600160e01b90910416816121455760405162461bcd60e51b81526004016107d890614936565b610dc48184848c8c612c92565b80516000906001600160a01b031661216c5750600061089b565b600082600001516001600160a01b031663dd30a6666040518163ffffffff1660e01b815260040160206040518083038186803b1580156121ab57600080fd5b505afa1580156121bf573d6000803e3d6000fd5b505050506040513d601f19601f8201168201806040525081019061041791906146ee565b60008186106121f157600080fd5b8482106121fd57600080fd5b8383106122235761221c8461146f8888036110e88388038b8803611ee8565b9050610343565b61221c61223a8787036110e88688038a8703611ee8565b8590611fca565b606001516207a12060289190911c60ff160290565b60008061226e611bcb6301da9c006110e88688611ee8565b905061228081621dcd6560491b612a68565b905061229361228e82612d25565b612abb565b90506122a581621dcd6560491b612b10565b905060006122b282612b46565b60070b95945050505050565b606001516207a12060209190911c60ff160290565b60006104176122e284846115a5565b633b9aca00611874565b60006276a7006122fb85611701565b01905061230d87878787878787612d47565b50505050505050565b6000808061232488856124a7565b9050600061233c6123358a8a6124c3565b8390612d7e565b9050633b02338081131561235857600080935093505050610878565b60008061236483612d97565b915091508061237d576000809550955050505050610878565b600061238d89611627858d612d7e565b9050633b9aca008112156123ac57600080965096505050505050610878565b9550600194506108789350505050565b60008080806123ce6102bc8789612d7e565b905060006123e46123de8a611b9e565b87611bb3565b9050600087131561243c5760006123fb8983612d7e565b9050633b9aca0081121561241c576000806000955095509550505050611b94565b61243461242d633b9aca00846119e2565b84906122d3565b91505061245e565b61245b6102bc82610b0e612454633b9aca00836119e2565b86906115a5565b90505b60006124786064610b0e6124718d612e39565b85906115a5565b905061248483836119e2565b6124956102bc8361162787876119e2565b909b909a509098509650505050505050565b60006124b383836119e2565b905060008112156103b057600080fd5b818101828112156000831215146103b057600080fd5b60008060006124ec888888886000612316565b915091508061250057600092505050610343565b600061250b83612e46565b9050600061251f82621dcd6560491b612a68565b9050600061252c82612e72565b9050600061254861254383621dcd6560491b612b10565b612eac565b67ffffffffffffffff1690506000612568896110e8846301da9c00611ee8565b905063ffffffff811115612586576000975050505050505050610343565b9c9b505050505050505050505050565b600080806125a48786612ec8565b60608901519091506125b690826124c3565b60608901524260e089015260006125cd8886612ec8565b905060006125db8989612ec8565b9a91995090975050505050505050565b60006103b06125f8612ef3565b5460405163d15e005360e01b81526001600160a01b039091169063d15e0053906126269086906004016148e5565b60206040518083038186803b15801561263e57600080fd5b505afa158015612652573d6000803e3d6000fd5b505050506040513d601f19601f820116820180604052508101906103f591906146ee565b6000806103b06007612c3e565b61268b61461a565b61269361461a565b60ff84166126a2579050610417565b6126ac8585612f00565b815260ff841660608201528267ffffffffffffffff811180156126ce57600080fd5b5060405190808252806020026020018201604052801561270857816020015b6126f5614642565b8152602001906001900390816126ed5790505b506020820152949350505050565b602083015151516000906060908067ffffffffffffffff8111801561273a57600080fd5b50604051908082528060200260200182016040528015612764578160200160208202803683370190505b50915061276f61451f565b60005b8281101561286e57875161278d90836001808501908b611427565b600088602001516000015182815181106127a357fe5b602002602001015190506000806127ba8386612f29565b915091506127e76127e08c60c001518d600001516000015161ffff168660200151612fa4565b82906124c3565b8785815181106127f357fe5b602002602001018181525050600061285061284961283d8a888151811061281657fe5b602002602001015187602001518f8f612833578b60a00151610711565b8b60c001516113e1565b8e516040015190612ec8565b84906124c3565b905061285c89826124c3565b98505060019093019250612772915050565b505050935093915050565b6000806128a58460c0015185600001516000015161ffff16866080015186886000015160200151612fe9565b905080156128f45760006128d78560c0015186600001516000015161ffff168760800151878960000151600088613095565b508551604001519091506128eb9082612ec8565b925050506103b0565b60009150506103b0565b600080600061290b613113565b600094855260205250506040909120546001600160a01b03811692600160a01b90910460ff169150565b600080612940613120565b60009384526020525050604090205490565b600082600111158015612969575083602001518311155b61297257600080fd5b606084015160806008600019860102019060ff90821c16633b9aca000260006129ab61299d86610882565b610b0e846301da9c006115a5565b90506000811361095e57600080fd5b60008060006129c98785611bb3565b9050633b9aca008112156129e4576000809250925050610878565b6000806129fb6129f48b8a6124c3565b8b90612d7e565b9050600080612a0983612d97565b9150915080612a2357600080965096505050505050610878565b612a37612a30838b612d7e565b86906119e2565b9c60019c509a5050505050505050505050565b6000677fffffffffffffff821115612a6157600080fd5b5060401b90565b600081600f0b60001415612a7b57600080fd5b600082600f0b604085600f0b901b81612a9057fe5b05905060016001607f1b03198112801590612ab2575060016001607f1b038113155b61041757600080fd5b6000600160461b82600f0b12612ad057600080fd5b683fffffffffffffffff1982600f0b1215612aed5750600061089b565b6103b0608083600f0b700171547652b82fe1777d0ffda0d23a7d1202901d61312d565b6000600f83810b9083900b0260401d60016001607f1b03198112801590612ab2575060016001607f1b0381131561041757600080fd5b600f0b60401d90565b60008080612b74612b6d612b638a896124c3565b610bde8c8a6119e2565b88906122d3565b90506000861315612bc157612b898585612d7e565b9450633b9aca00851215612b9c57600080fd5b612bba84612bb4612bad8c8c6124c3565b8d906115a5565b90612d7e565b9150612bf8565b612bcb85856122d3565b9450633b9aca00851215612bde57600080fd5b612bf5612bee6124548b8b6124c3565b8b906122d3565b91505b612c10612c058383611874565b6305f5e100906119e2565b91506000612c1e8b876122d3565b9050612c2a81886124c3565b9050610dc483610b0e836305f5e1006115a5565b6000620f424082601a81111561197257fe5b6000806103b06006612c3e565b600881901c60ff9091161b90565b6000806103b06011612c3e565b6000806103b06002612c3e565b6000806103b0600a612c3e565b6000808311612ca057600080fd5b81861115612caf575083610343565b6000612cbb8388611fca565b905083811115612cce5785915050610343565b6000612ce2856110e884633b9aca00611ee8565b90506000612cf4633b9aca0083611fca565b90506000612d17633b9aca006110e8612d0d8b86611ee8565b61146f8d88611ee8565b9a9950505050505050505050565b6000600f82900b60016001607f1b03191415612d4057600080fd5b5060000390565b612d548787878685613bdb565b612d6d8760e001518860a001518960c001518588612c92565b60c090970196909652505050505050565b6000610417612d9184633b9aca006115a5565b83611874565b600080633b9aca00831415612db157506000905080612e34565b6000612dcb612dc4633b9aca00866119e2565b8590612d7e565b90506000612dd882612e46565b9050600081600f0b13612df357600080935093505050612e34565b6000612e27612e22612e16612e0785612e72565b6814b927f32bffb83338613c9c565b621dcd6560491b612b10565b612b46565b60070b9450600193505050505b915091565b6060015160181c60ff1690565b6000677fffffffffffffff198212158015612e695750677fffffffffffffff8213155b612a6157600080fd5b60008082600f0b13612e8357600080fd5b6080612e8e83613ccf565b600f0b6fb17217f7d1cf79abc9e3b39803f2f6af02901c9050919050565b60008082600f0b1215612ebe57600080fd5b50600f0b60401d90565b6000806104558460200151610b0e8660400151610bde6402540be400886115a590919063ffffffff16565b6000806103b06013612c3e565b60606000612f0e8484613daa565b90506001815111612f205790506103b0565b61041781613ec2565b600080612f398460400151614081565b8015612f4a57506000846060015112155b612f5357600080fd5b612f768360800151610b0e866060015186606001516115a590919063ffffffff16565b9150612f9b8360800151610b0e866060015186604001516115a590919063ffffffff16565b90509250929050565b600080612faf614097565b6001600160a01b03861660009081526020918252604080822087835283528082208683529092522054600f90810b900b9150509392505050565b600060028211612ffb57506000610343565b600061300787876140a4565b905080613015579050610343565b600061302085611701565b90508581141561304a57507440008000000200200000000200000020000000002019169050610343565b60015b84811161308a57600061305f82611722565b83019050600061306f89836140d9565b50905061307e858260006141e4565b9450505060010161304d565b508192505050610343565b60008060006130a38461422f565b90505b80156131065760006130b88983614254565b905060006130ca8c8c848c8c8c614307565b90506130d685826124c3565b945060008112156130e657600193505b6130f2868460006141e4565b95506130fd8661422f565b925050506130a6565b5097509795505050505050565b6000806103b0600f612c3e565b6000806103b06009612c3e565b6000600160461b82600f0b1261314257600080fd5b683fffffffffffffffff1982600f0b121561315f5750600061089b565b6001607f1b60006001603f1b8416600f0b131561318d5770016a09e667f3bcc908b2fb1366ea957d3e0260801c5b60008367400000000000000016600f0b13156131ba577001306fe0a31b7152de8d5a46305c85edec0260801c5b60008367200000000000000016600f0b13156131e7577001172b83c7d517adcdf7c8c50eb14a791f0260801c5b60008367100000000000000016600f0b13156132145770010b5586cf9890f6298b92b71842a983630260801c5b60008367080000000000000016600f0b1315613241577001059b0d31585743ae7c548eb68ca417fd0260801c5b60008367040000000000000016600f0b131561326e57700102c9a3e778060ee6f7caca4f7a29bde80260801c5b60008367020000000000000016600f0b131561329b5770010163da9fb33356d84a66ae336dcdfa3f0260801c5b600083600160381b16600f0b13156132c457700100b1afa5abcbed6129ab13ec11dc95430260801c5b600083668000000000000016600f0b13156132f05770010058c86da1c09ea1ff19d294cf2f679b0260801c5b600083664000000000000016600f0b131561331c577001002c605e2e8cec506d21bfc89a23a00f0260801c5b600083662000000000000016600f0b131561334857700100162f3904051fa128bca9c55c31e5df0260801c5b600083661000000000000016600f0b1315613374577001000b175effdc76ba38e31671ca9397250260801c5b600083660800000000000016600f0b13156133a057700100058ba01fb9f96d6cacd4b180917c3d0260801c5b600083660400000000000016600f0b13156133cc5770010002c5cc37da9491d0985c348c68e7b30260801c5b600083660200000000000016600f0b13156133f8577001000162e525ee054754457d59952920260260801c5b600083600160301b16600f0b13156134215770010000b17255775c040618bf4a4ade83fc0260801c5b6000836580000000000016600f0b131561344c577001000058b91b5bc9ae2eed81e9b7d4cfab0260801c5b6000836540000000000016600f0b131561347757700100002c5c89d5ec6ca4d7c8acc017b7c90260801c5b6000836520000000000016600f0b13156134a25770010000162e43f4f831060e02d839a9d16d0260801c5b6000836510000000000016600f0b13156134cd57700100000b1721bcfc99d9f890ea069117630260801c5b6000836508000000000016600f0b13156134f85770010000058b90cf1e6d97f9ca14dbcc16280260801c5b6000836504000000000016600f0b1315613523577001000002c5c863b73f016468f6bac5ca2b0260801c5b6000836502000000000016600f0b131561354e57700100000162e430e5a18f6119e3c02282a50260801c5b6000836501000000000016600f0b1315613579577001000000b1721835514b86e6d96efd1bfe0260801c5b60008364800000000016600f0b13156135a357700100000058b90c0b48c6be5df846c5b2ef0260801c5b60008364400000000016600f0b13156135cd5770010000002c5c8601cc6b9e94213c72737a0260801c5b60008364200000000016600f0b13156135f7577001000000162e42fff037df38aa2b219f060260801c5b60008364100000000016600f0b13156136215770010000000b17217fba9c739aa5819f44f90260801c5b60008364080000000016600f0b131561364b577001000000058b90bfcdee5acd3c1cedc8230260801c5b60008364040000000016600f0b131561367557700100000002c5c85fe31f35a6a30da1be500260801c5b60008364020000000016600f0b131561369f5770010000000162e42ff0999ce3541b9fffcf0260801c5b60008364010000000016600f0b13156136c957700100000000b17217f80f4ef5aadda455540260801c5b600083638000000016600f0b13156136f25770010000000058b90bfbf8479bd5a81b51ad0260801c5b600083634000000016600f0b131561371b577001000000002c5c85fdf84bd62ae30a74cc0260801c5b600083632000000016600f0b131561374457700100000000162e42fefb2fed257559bdaa0260801c5b600083631000000016600f0b131561376d577001000000000b17217f7d5a7716bba4a9ae0260801c5b600083630800000016600f0b131561379657700100000000058b90bfbe9ddbac5e109cce0260801c5b600083630400000016600f0b13156137bf5770010000000002c5c85fdf4b15de6f17eb0d0260801c5b600083630200000016600f0b13156137e8577001000000000162e42fefa494f1478fde050260801c5b600083630100000016600f0b13156138115770010000000000b17217f7d20cf927c8e94c0260801c5b6000836280000016600f0b1315613839577001000000000058b90bfbe8f71cb4e4b33d0260801c5b6000836240000016600f0b131561386157700100000000002c5c85fdf477b662b269450260801c5b6000836220000016600f0b13156138895770010000000000162e42fefa3ae53369388c0260801c5b6000836210000016600f0b13156138b157700100000000000b17217f7d1d351a389d400260801c5b6000836208000016600f0b13156138d95770010000000000058b90bfbe8e8b2d3d4ede0260801c5b6000836204000016600f0b1315613901577001000000000002c5c85fdf4741bea6e77e0260801c5b6000836202000016600f0b131561392957700100000000000162e42fefa39fe95583c20260801c5b6000836201000016600f0b1315613951577001000000000000b17217f7d1cfb72b45e10260801c5b60008361800016600f0b131561397857700100000000000058b90bfbe8e7cc35c3f00260801c5b60008361400016600f0b131561399f5770010000000000002c5c85fdf473e242ea380260801c5b60008361200016600f0b13156139c6577001000000000000162e42fefa39f02b772c0260801c5b60008361100016600f0b13156139ed5770010000000000000b17217f7d1cf7d83c1a0260801c5b60008361080016600f0b1315613a14577001000000000000058b90bfbe8e7bdcbe2e0260801c5b60008361040016600f0b1315613a3b57700100000000000002c5c85fdf473dea871f0260801c5b60008361020016600f0b1315613a625770010000000000000162e42fefa39ef44d910260801c5b60008361010016600f0b1315613a8957700100000000000000b17217f7d1cf79e9490260801c5b600083608016600f0b1315613aaf5770010000000000000058b90bfbe8e7bce5440260801c5b600083604016600f0b1315613ad5577001000000000000002c5c85fdf473de6eca0260801c5b600083602016600f0b1315613afb57700100000000000000162e42fefa39ef366f0260801c5b600083601016600f0b1315613b21577001000000000000000b17217f7d1cf79afa0260801c5b600083600816600f0b1315613b4757700100000000000000058b90bfbe8e7bcd6d0260801c5b600083600416600f0b1315613b6d5770010000000000000002c5c85fdf473de6b20260801c5b600083600216600f0b1315613b93577001000000000000000162e42fefa39ef3580260801c5b600083600116600f0b1315613bb95770010000000000000000b17217f7d1cf79ab0260801c5b600f83810b60401d603f03900b1c60016001607f1b038111156103b057600080fd5b6000613be5612c85565b6000868152602082815260408083208884528252808320868452825291829020808a52908901879052805469ffffffffffffffffffff808216938b0193909352600160501b810490921660608a015263ffffffff600160a01b8304811660a08b0152600160c01b8304811660c08b0152600160e01b90920490911660e0890152909150808415613c8a57600182015469ffffffffffffffffffff166080890152613c92565b600060808901525b5050505050505050565b6000600f82810b9084900b0360016001607f1b03198112801590612ab2575060016001607f1b0381131561041757600080fd5b60008082600f0b13613ce057600080fd5b6000600f83900b600160401b8112613cfa576040918201911d5b6401000000008112613d0e576020918201911d5b620100008112613d20576010918201911d5b6101008112613d31576008918201911d5b60108112613d41576004918201911d5b60048112613d51576002918201911d5b60028112613d60576001820191505b603f19820160401b600f85900b607f8490031b6001603f1b5b6000811315613d9f5790800260ff81901c8281029390930192607f011c9060011d613d79565b509095945050505050565b606060108260ff161115613dbd57600080fd5b6000613dc761435c565b6001600160a01b038516600090815260208290526040812091925060ff851667ffffffffffffffff81118015613dfc57600080fd5b50604051908082528060200260200182016040528015613e3657816020015b613e23614642565b815260200190600190039081613e1b5790505b50905060005b8560ff168110156105a2576000838260108110613e5557fe5b0190506000838381518110613e6657fe5b602090810291909101810151835461ffff8116825264ffffffffff620100008204169282019290925260ff600160381b8304166040820152600160401b909104600a90810b900b60608201526080019190915250600101613e3c565b805160008167ffffffffffffffff81118015613edd57600080fd5b50604051908082528060200260200182016040528015613f07578160200160208202803683370190505b50905060005b82811015613f64576000848281518110613f2357fe5b60200260200101519050613f44816000015182602001518360400151614369565b838381518110613f5057fe5b602090810291909101015250600101613f0d565b5060015b8281101561407b57805b600081118015613faa5750828181518110613f8957fe5b6020026020010151836001830381518110613fa057fe5b6020026020010151115b1561407257828181518110613fbb57fe5b6020026020010151836001830381518110613fd257fe5b6020026020010151846001840381518110613fe957fe5b60200260200101858481518110613ffc57fe5b602002602001018281525082815250505084818151811061401957fe5b602002602001015185600183038151811061403057fe5b602002602001015186600184038151811061404757fe5b6020026020010187848151811061405a57fe5b60209081029190910101919091525260001901613f72565b50600101613f68565b50505050565b6000600282108015906103b05750506008101590565b6000806103b0600c612c3e565b6000806140af6143c4565b6001600160a01b038516600090815260209182526040808220868352909252205491505092915050565b60008060006140e7856143d1565b9050620151808406156141015760008092509250506141dd565b8381106141155760008092509250506141dd565b6201518081850304605a8111614132579250600191506141dd9050565b6101688111614171576000620151806207e900840604820160591901905060068104605a016006828161416157fe5b06600014945094505050506141dd565b61087081116141a15760006201518062278d00840604820161016719019050601e8104608701601e828161416157fe5b611de281116141d1576000620151806276a700840604820161086f19019050605a810460c301605a828161416157fe5b61010060009350935050505b9250929050565b6000600183101580156141f957506101008311155b61420257600080fd5b811561421b5750600160ff1b60001983011c8317610417565b50600160ff1b60001983011c198316610417565b60008161423e5750600061089b565b614247826143ed565b60ff036001019050919050565b60008161426057600080fd5b61010082111561426f57600080fd5b600061427a846143d1565b90506000605a841161429557506201518083020190506103b0565b608784116142bd575060591983016207e900908102908206909103016276a7000190506103b0565b60c384116142e65750608619830162278d00908102908206909103016301da9c000190506103b0565b5060c21983016276a70090810290820690910301630b1fa8000190506103b0565b600080614315888888612fa4565b905084861161432557905061095e565b6000614332858888611251565b90508315614350576143478583898985611341565b9250505061095e565b614347828888846113e1565b6000806103b0600d612c3e565b6000613fff84111561437a57600080fd5b64ffffffffff83111561438c57600080fd5b600882111561439a57600080fd5b5067ffff000000000000603084901b1665ffffffffff00600884901b161760ff8216179392505050565b6000806103b0600b612c3e565b6000620151808210156143e357600080fd5b6201518082611719565b6000816143f957600080fd5b600160801b821061440c57608091821c91015b600160401b821061441f57604091821c91015b640100000000821061443357602091821c91015b62010000821061444557601091821c91015b610100821061445657600891821c91015b6010821061446657600491821c91015b6004821061447657600291821c91015b6002821061089b57600101919050565b6040518060e001604052806144996145c0565b81526020016144a661461a565b815260006020820181905260408201819052606082018190526080820181905260a09091015290565b604051806101200160405280600061ffff16815260200160008152602001600081526020016000815260200160008152602001600081526020016000815260200160008152602001600081525090565b60405180610100016040528060008019168152602001600081526020016000815260200160008152602001600081526020016000815260200160008152602001600081525090565b6040805160a0810182526000808252602082018190529181018290529060608201908152602001600081525090565b604051806060016040528060006001600160a01b0316815260200160008152602001600081525090565b60408051608081018252600080825260208201529081016145df614596565b8152600060209091015290565b6040805160a08101825260008082526020820181905291810182905260608101829052608081019190915290565b6040518060800160405280606081526020016060815260200160008152602001600081525090565b6040518060c0016040528060008152602001600081526020016000815260200160008152602001600081526020016000600381111561467d57fe5b905290565b8035801515811461089b57600080fd5b803561ffff8116811461089b57600080fd5b803563ffffffff8116811461089b57600080fd5b600080604083850312156146ca578182fd5b82356001600160a01b03811681146146e0578283fd5b946020939093013593505050565b6000602082840312156146ff578081fd5b5051919050565b60008060006060848603121561471a578081fd5b61472384614692565b92506020840135915061473860408501614682565b90509250925092565b60008060008060808587031215614756578081fd5b61475f85614692565b9350602085013580600a0b8114614774578182fd5b93969395505050506040820135916060013590565b600080600080600060a086880312156147a0578081fd5b6147a986614692565b94506020860135935060408601359250606086013591506147cc60808701614682565b90509295509295909350565b600080600080600060a086880312156147ef578081fd5b6147f886614692565b94506020860135935060408601359250614814606087016146a4565b949793965091946080013592915050565b60008060008060008060c0878903121561483d578081fd5b61484687614692565b95506020870135945060408701359350614862606088016146a4565b92506080870135915061487760a08801614682565b90509295509295509295565b60008060408385031215614895578182fd5b61489e83614692565b915060208301356001600160581b03811681146148b9578182fd5b809150509250929050565b600080604083850312156148d6578182fd5b50508035926020909101359150565b6001600160a01b0391909116815260200190565b6001600160a01b0394909416845260208401929092526040830152606082015260800190565b90815260200190565b918252602082015260400190565b60208082526016908201527513585c9ad95d081b9bdd081a5b9a5d1a585b1a5e995960521b604082015260600190565b60208082526013908201527214995c5d5a5c995cc81cd95d1d1b195b595b9d606a1b604082015260600190565b6020808252600e908201526d4e6f20636f6e76657267656e636560901b604082015260600190565b60208082526015908201527410d1ce881b9bc81b585c9ad95d1cc81b1a5cdd1959605a1b604082015260600190565b6020808252600d908201526c092dcecc2d8d2c840d2dcc8caf609b1b604082015260600190565b60208082526016908201527510d1ce881b585c9ad95d081a5b99195e08189bdd5b9960521b604082015260600190565b6020808252600e908201526d125b9d985b1a59081b585c9ad95d60921b604082015260600190565b6020808252601690820152755472616465206661696c65642c20736c69707061676560501b604082015260600190565b602080825260129082015271496e76616c696420626c6f636b2074696d6560701b604082015260600190565b602080825260139082015272125b9d985b1a590818dd5c9c995b98de481a59606a1b604082015260600190565b60208082526013908201527210d1ce881b9bc81b585c9ad95d08199bdd5b99606a1b604082015260600190565b60208082526014908201527313dd995c8811195d9a585d1a5bdb88131a5b5a5d60621b604082015260600190565b938452602084019290925260ff166040830152606082015260800190565b6001600160581b0393909316835260ff919091166020830152604082015260600190565b60ff9190911681526020019056fe536166654d6174683a206d756c7469706c69636174696f6e206f766572666c6f77a2646970667358221220b1de2287b51d4907e9e17aa679bb26157033b72bf1dc8ad0201aea7de30df97564736f6c63430007060033","bytecodeSha1":"c6b43e4f73b3ae698e0beb676aa0aae0827c8c82","compiler":{"evm_version":"istanbul","optimizer":{"enabled":true,"runs":200},"version":"0.7.6+commit.7338295f"},"contractName":"CalculationViews","deployedBytecode":"608060405234801561001057600080fd5b50600436106100f55760003560e01c80638355e89511610097578063bac9e8b111610066578063bac9e8b1146101f8578063c4c96dae1461021a578063c52c43e114610222578063f83a860814610235576100f5565b80638355e895146101b75780638da5cb5b146101ca57806397d6db2e146101d2578063aaae47b5146101e5576100f5565b80635953c77b116100d35780635953c77b1461015c5780636a09a2a31461017c5780636ebbf1741461019c57806382463367146101af576100f5565b8063094614df146100fa57806324a3d62214610124578063416a158714610139575b600080fd5b61010d610108366004614741565b610248565b60405161011b929190614928565b60405180910390f35b61012c610266565b60405161011b91906148e5565b61014c6101473660046147d8565b610275565b60405161011b9493929190614b4d565b61016f61016a3660046148c4565b610320565b60405161011b9190614b8f565b61018f61018a366004614883565b61034c565b60405161011b919061491f565b61018f6101aa366004614706565b6103b6565b61012c61041e565b61018f6101c5366004614741565b61042d565b61012c61045d565b61018f6101e03660046146b8565b610474565b61014c6101f33660046147d8565b6105ac565b61020b610206366004614825565b61063b565b60405161011b93929190614b6b565b61012c6106b6565b61018f610230366004614789565b6106ce565b61020b610243366004614825565b610721565b600080610259868686866000610786565b9150915094509492505050565b6002546001600160a01b031681565b6000806000806102858786610320565b915060008260ff161161029757600080fd5b6a7fffffffffffffffffffff88106102ae57600080fd5b60006102c16102bc8a610882565b6108a0565b90506000806102dc8c848760ff168b8d63ffffffff16610786565b915091506102ec8c8260016108ae565b96506102fa8c8360006108ae565b955061030c60018685600a0b8c610968565b508094505050505095509550955095915050565b6000806000610331600786866109c6565b91509150806103405781610343565b60005b95945050505050565b600061035783610a8e565b60006103668461ffff16610acb565b9050600061037d826001600160581b038616610ade565b9050610387614486565b6103918187610b14565b600061039e828442610b2d565b90506103a981610c2c565b9450505050505b92915050565b600081156103dd5760006103cd8561ffff16610c83565b90506103d98185610ccf565b9350505b60006103fa6103f5866103ef87610cfa565b866108ae565b610882565b90506000841261040a5780610413565b610413816108a0565b9150505b9392505050565b6001546001600160a01b031681565b600061043885610a8e565b600061044386610d1b565b905061045185858584610d3e565b9150505b949350505050565b60005464010000000090046001600160a01b031681565b60008061048084610dd3565b905061048a6144cf565b600061049583610e7a565b1561050b5760608301516104ad908390889086610e87565b60008260400151131561050b5760006104cd836000015161ffff16610f2d565b905060006104db8288610f53565b5091505060006104f98584846104f48960400151610fe9565b610ff8565b90506105058482611125565b93505050505b60808301515b6001600160701b03198116156105a25760f081901c613fff1661053684898388610e87565b60008460400151131561058f576000610556856000015161ffff16610f2d565b90506000610564828a610f53565b50915050600061057d8784846104f48b60400151610fe9565b90506105898682611125565b95505050505b5060101b6001600160801b031916610511565b5095945050505050565b6000806000806105bc8786610320565b915060008260ff16116105ce57600080fd5b6a7fffffffffffffffffffff88106105e557600080fd5b60006105f089610882565b905060008061060b8c848760ff168b8d63ffffffff16610786565b9150915061061b8c8260016108ae565b96506106298c8360006108ae565b955061030c60008685600a0b8c610968565b600080600061064a8786610320565b915060008260ff161161065c57600080fd5b60008061066a8b8b8861117f565b91509150600061068761067c8461121f565b8660ff168a85610d3e565b90506000811261069657600080fd5b6106a3600186838c610968565b9d959c509a509398505050505050505050565b73__$b21a4dc043b77aa57922ad9143a3cb040e$__90565b6000806106da87610d1b565b90508215610700576106f9818688876106f4848383611251565b611341565b91506105a2565b610716858786610711858383611251565b6113e1565b979650505050505050565b60008060006107308786610320565b915060008260ff161161074257600080fd5b6000806107508b8b8861117f565b91509150600061076a61067c610765856108a0565b61121f565b90508060001261077957600080fd5b6106a3600086838c610968565b60008061079287610a8e565b600061079d88610d1b565b90506107a761451f565b6107b582828960008a611427565b858160200151116107e15760405162461bcd60e51b81526004016107d890614a99565b60405180910390fd5b602081015186900360006107fc8385600a8d900b858d6114a2565b509050861561085e5760008a600a0b121561083a57868360a0015111156108355760405162461bcd60e51b81526004016107d890614a69565b61085e565b868360a00151101561085e5760405162461bcd60e51b81526004016107d890614a69565b6040840151819061086f9082610ccf565b95509550505050505b9550959350505050565b60006001600160ff1b0382111561089857600080fd5b50805b919050565b60006103b0600019836115a5565b6000806000836108ca576108c58661ffff16610acb565b6108d7565b6108d78661ffff166115f3565b90508380156108e65750600085125b15610905576108fe6108f7866108a0565b8290611606565b915061091a565b6109176109128287611643565b610cfa565b91505b60058160600151600581111561092c57fe5b14156109555760006109418761ffff166115f3565b905061095181600001518461167b565b9250505b61095e82610fe9565b9695505050505050565b600080600061097685610cfa565b90506001600160581b0381111561098c57600080fd5b60788463ffffffff16901b609882901b60f08860ff16901b60f88a60058111156109b257fe5b60ff16901b17171797909650945050505050565b600080600085116109e95760405162461bcd60e51b81526004016107d8906149bb565b6007851115610a0a5760405162461bcd60e51b81526004016107d890614a11565b6000610a1584611701565b905060015b868111610a6d576000610a36610a2f83611722565b8490611125565b905086811415610a4e5750925060009150610a869050565b86811115610a645750925060019150610a869050565b50600101610a1a565b5060405162461bcd60e51b81526004016107d890614af2565b935093915050565b8061ffff166000108015610aac575060005461ffff90811690821611155b610ac85760405162461bcd60e51b81526004016107d890614ac5565b50565b610ad3614567565b6103b08260006117c6565b60006305f5e10083604001511415610af75750806103b0565b604083015161041790610b0e846305f5e1006115a5565b90611874565b610b1e82826118a5565b610b2781610d1b565b90915250565b600080831215610b3c57600080fd5b82610b4957506000610417565b608084015115610b81576000610b5e85611948565b9050828111610b7f5760405162461bcd60e51b81526004016107d890614966565b505b6040840151610b91575081610417565b600080610b9e8685611979565b915091506000821215610bb057600080fd5b6000811215610bbe57600080fd5b60a086015160051a6000610be484610b0e6064610bde61091284896119e2565b906115a5565b905081811315610c065760405162461bcd60e51b81526004016107d890614b1f565b610c2183610b0e8a604001518a6115a590919063ffffffff16565b945050505050610417565b600080821215610898576040805162461bcd60e51b815260206004820181905260248201527f53616665436173743a2076616c7565206d75737420626520706f736974697665604482015290519081900360640190fd5b610c8b614596565b6000806000610c99856119f8565b604080516060810182526001600160a01b039093168352602083019390935260ff16600a0a918101919091529350505050919050565b6000806104558460400151610b0e6402540be400610b0e8789602001516115a590919063ffffffff16565b600080821215610d1457610d0d826108a0565b905061089b565b508061089b565b610d236145c0565b6000610d328361ffff16610c83565b90506104178382611ab9565b6000610d4861451f565b610d56838287600088611427565b83816020015111610d795760405162461bcd60e51b81526004016107d890614a99565b602081015184900360008080610d918588868c611afc565b9250925092506000610dab610da589611b9e565b86611bb3565b9050610dc486604001518c600a0b858786866000611c1e565b9b9a5050505050505050505050565b610ddb6145ec565b6000610de5611cce565b6001600160a01b039390931660009081526020938452604090819020815160a081018352905464ffffffffff8116825265010000000000810460f81b6001600160f81b03191695820195909552600160301b850460ff1691810191909152600160381b840461ffff166060820152690100000000000000000090930460701b6001600160701b03191660808401525090919050565b6060015161ffff16151590565b8161ffff166000108015610ea15750613fff61ffff831611155b610eaa57600080fd5b61ffff8216808552610ebd908290611cdb565b15610eea57610ed0838361ffff16611d65565b61010088015260e087015260408601526020850152610f08565b6000602085018190526040850181905260e085018190526101008501525b50506000606083018190526080830181905260a0830181905260c09092019190915250565b600080610f38611e11565b6000938452602052505060409020546001600160a01b031690565b6000806000610f6185611e1e565b919450925090508084118015610f775750600081115b8015610f835750600083115b15610fe2576000610f9386611e7f565b5050509150506000610fbe610fb56305f5e10084611ee890919063ffffffff16565b84880387611f41565b9050610fca8482611125565b93506001600160801b038410610fdf57600080fd5b50505b9250925092565b60008082121561089857600080fd5b60e0840151600090156110b95773__$b21a4dc043b77aa57922ad9143a3cb040e$__63e0c01a728561102d8860400151610fe9565b8860e001518961010001516040518563ffffffff1660e01b815260040161105794939291906148f9565b60206040518083038186803b15801561106f57600080fd5b505af4158015611083573d6000803e3d6000fd5b505050506040513d601f19601f820116820180604052508101906110a791906146ee565b600060e0870181905261010087015290505b6110fb6110f48661010001516110ee670de0b6b3a76400006110e8886110e28c60400151610fe9565b90611ee8565b90611f63565b90611fca565b8290611125565b9050611113670de0b6b3a76400006110e88486611ee8565b85610100018181525050949350505050565b600082820183811015610417576040805162461bcd60e51b815260206004820152601b60248201527f536166654d6174683a206164646974696f6e206f766572666c6f770000000000604482015290519081900360640190fd5b60006111896145c0565b600061119485610882565b905061119f86610d1b565b91506000846111ba576111b58761ffff16610acb565b6111c7565b6111c78761ffff166115f3565b90506005816060015160058111156111db57fe5b14156111f2576111ef8761ffff1683612027565b91505b6111fc8183610ade565b9350846112155760408301516112129085610ccf565b93505b5050935093915050565b60006a7fffffffffffffffffffff19821280159061124857506a7fffffffffffffffffffff8213155b61089857600080fd5b6000806000611265866020015186866109c6565b915091506000611274876120ae565b90508161129757865161128d9061ffff168783886120c2565b9350505050610417565b60006112a286611701565b905060006112b96112b286611722565b8390611125565b905060006112d18a6000015161ffff1683868b6120c2565b905060008087600114156112f6578991506112ef8c60400151612152565b9050611325565b61130c61130560018a03611722565b8690611125565b91506113228c6000015161ffff1683888d6120c2565b90505b611332828583868f6121e3565b98505050505050505050610417565b60008461135057506000610343565b600061135c8585611fca565b905060008087131561138b576113848261137f6113788b612241565b8790611125565b612256565b90506113ba565b6000611396896122be565b90508481106113aa57879350505050610343565b6113b683828703612256565b9150505b633b9aca008113156113cb57600080fd5b6113d587826122d3565b98975050505050505050565b6000846113f057506000610455565b60006113fc8585611fca565b9050600061140a8285612256565b9050633b9aca0081131561141d57600080fd5b61071687826122d3565b8260011115801561143c575084602001518311155b6114585760405162461bcd60e51b81526004016107d890614a41565b600061147561146685611722565b61146f84611701565b90611125565b905061149a866000015161ffff1682848661148f8b6120ae565b8a94939291906122ec565b505050505050565b600080848760400151136114bb57506000905080610878565b60008060006114cc8a8a8989611afc565b9250925092506000806114e68c604001518587868e612316565b90925090508061150157600080965096505050505050610878565b5060008060006115138d858e8e6123bc565b9250925092508260001415611535576000809850985050505050505050610878565b60408e0151611544908d6124a7565b60408f018190526115619061155988856124c3565b89888f6124d9565b60a08f0181905261157f576000809850985050505050505050610878565b6115908e8e60400151858585612596565b98509850505050505050509550959350505050565b8181026000198314156115d5578115806115c75750828282816115c457fe5b05145b6115d057600080fd5b6103b0565b8215806115ea5750818382816115e757fe5b05145b6103b057600080fd5b6115fb614567565b6103b08260016117c6565b60006305f5e100836040015112156116345761162d60016116278585611643565b906124c3565b90506103b0565b610417836116438460016124c3565b60006305f5e1008360400151141561165c5750806103b0565b6104176305f5e100610b0e8560400151856115a590919063ffffffff16565b60008161168a575060006103b0565b6000611695846125eb565b905060006116a284610cfa565b9050816b019d971e4fe8401e74000001600160ff1b03816116bf57fe5b058113156116cc57600080fd5b6b033b2e3c9fd0803ce80000006b019d971e4fe8401e74000000838302010560008513610343576116fc816108a0565b61095e565b60006276a70082101561171357600080fd5b6276a700825b06909103919050565b6000816001141561173757506276a70061089b565b816002141561174a575062ed4e0061089b565b816003141561175e57506301da9c0061089b565b816004141561177257506303b5380061089b565b816005141561178657506309450c0061089b565b816006141561179a575063128a180061089b565b81600714156117ae5750632514300061089b565b60405162461bcd60e51b81526004016107d8906149ea565b6117ce614567565b60006117d8612676565b6000858152602082815260408083208715158452825291829020825160a08101845281546001600160a01b038116825260ff600160a01b82048116151594830194909452600160b01b81048416600a0a9482019490945293945092916060830191600160a81b90910416600581111561184d57fe5b81529154600160b81b900468ffffffffffffffffff16602090920191909152949350505050565b60008160001914801561188a5750600160ff1b83145b1561189457600080fd5b81838161189d57fe5b059392505050565b6118b28161ffff16610f2d565b6001600160a01b031660c08301819052600090819081906118d290611e7f565b945094509450505060006118e98660c00151611e1e565b505060808701859052604087018190526001600160d01b0319831660a088015260c087015190915061191d90846000612683565b602087015260c08601516119359061ffff8716611d65565b5050506060909601959095525050505050565b600081608001516000141561195f5750600061089b565b60808201516276a7009061197290611701565b0192915050565b600080600061198a85856001612716565b509050600061199b86866000612716565b50905060006119aa8787612879565b60608801519091506119c09061162785846124c3565b60608801519095506119d69061162784846124c3565b93505050509250929050565b808203828113156000831215146103b057600080fd5b6000806000806000611a09866128fe565b909250905060006001600160a01b038316611a2e5750600090506402540be400611aae565b826001600160a01b031663b2fffb046040518163ffffffff1660e01b815260040160206040518083038186803b158015611a6757600080fd5b505afa158015611a7b573d6000803e3d6000fd5b505050506040513d601f19601f82011682018060405250810190611a9f91906146ee565b905060008113611aae57600080fd5b969195509350915050565b611ac16145c0565b6000611ad08461ffff16612935565b6040805160808101825261ffff96909616865260ff821660208701528501939093525050606082015290565b6000808080611b0c878688612952565b90506000611b2b89606001518960400151610ccf90919063ffffffff16565b9050886040015160001480611b3e575080155b15611b555760008060009450945094505050611b94565b600080611b6d8b604001518c60a0015185878d6129ba565b909250905080611b8b57600080600096509650965050505050611b94565b50919450925090505b9450945094915050565b60600151620186a060109190911c60ff160290565b600080611bd0611bcb6301da9c006110e88787611ee8565b612a4a565b90506000611be482621dcd6560491b612a68565b90506000611bf182612abb565b90506000611c0582621dcd6560491b612b10565b9050611c1081612b46565b60070b979650505050505050565b600080821215611c2d57600080fd5b6000611c3c6102bc89876122d3565b905060005b60fa8160ff161015611cb557600080611c5d8c8b8b8b88612316565b9150915080611c6b57600080fd5b6000611c7c8c8e8d8d89888e612b4f565b905086611c8882610cfa565b13611c9a578495505050505050610716565b611ca485826119e2565b94505060019092019150611c419050565b5060405162461bcd60e51b81526004016107d890614993565b6000806103b06001612c3e565b60008115801590611cee5750613fff8211155b611cf757600080fd5b6080830151606084015161ffff16831415611d165760019150506103b0565b6001600160701b0319811615611d5b5760f081901c613fff1683811415611d485750600160fe1b9081161490506103b0565b5060101b6001600160801b031916611d16565b5060009392505050565b6000806000806000611d75612c50565b6001600160a01b0388166000908152602082815260408083208a84529091529020805469ffffffffffffffffffff81169650600160501b900463ffffffff1694509091508315611de1578054611dda90600160701b900466ffffffffffffff16612c5d565b9250611df6565b8054600160701b900466ffffffffffffff1692505b54600160a81b9004600a90810b900b97939650919450925050565b6000806103b06003612c3e565b600080600080611e2c612c6b565b6001600160a01b0395909516600090815260209590955250506040909220546bffffffffffffffffffffffff811693600160601b82046001600160801b03169350600160e01b90910463ffffffff169150565b600080600080600080611e90612c78565b6001600160a01b039097166000908152602097909752505060409094205461ffff81169563ffffffff62010000830481169650600160301b830416945060ff600160501b8304169350600160581b90910460d01b9150565b600082611ef7575060006103b0565b82820282848281611f0457fe5b04146104175760405162461bcd60e51b8152600401808060200182810382526021815260200180614b9e6021913960400191505060405180910390fd5b6000610455826110e86301da9c0081886110e289670de0b6b3a7640000611ee8565b6000808211611fb9576040805162461bcd60e51b815260206004820152601a60248201527f536166654d6174683a206469766973696f6e206279207a65726f000000000000604482015290519081900360640190fd5b818381611fc257fe5b049392505050565b600082821115612021576040805162461bcd60e51b815260206004820152601e60248201527f536166654d6174683a207375627472616374696f6e206f766572666c6f770000604482015290519081900360640190fd5b50900390565b600081612036575060006103b0565b6000821361204357600080fd5b600061204e846115f3565b9050600061205f82600001516125eb565b9050600281056b033b2e3c9fd0803ce80000006001600160ff1b038290030585131561208a57600080fd5b81816b033b2e3c9fd0803ce8000000870201816120a357fe5b059695505050505050565b6060015161012c60089190911c60ff160290565b6000806120cd612c85565b905060006276a7006120de85611701565b6000898152602085815260408083208b84528252808320949093018083529390522080549192509063ffffffff600160a01b8204811691600160c01b8104821691600160e01b90910416816121455760405162461bcd60e51b81526004016107d890614936565b610dc48184848c8c612c92565b80516000906001600160a01b031661216c5750600061089b565b600082600001516001600160a01b031663dd30a6666040518163ffffffff1660e01b815260040160206040518083038186803b1580156121ab57600080fd5b505afa1580156121bf573d6000803e3d6000fd5b505050506040513d601f19601f8201168201806040525081019061041791906146ee565b60008186106121f157600080fd5b8482106121fd57600080fd5b8383106122235761221c8461146f8888036110e88388038b8803611ee8565b9050610343565b61221c61223a8787036110e88688038a8703611ee8565b8590611fca565b606001516207a12060289190911c60ff160290565b60008061226e611bcb6301da9c006110e88688611ee8565b905061228081621dcd6560491b612a68565b905061229361228e82612d25565b612abb565b90506122a581621dcd6560491b612b10565b905060006122b282612b46565b60070b95945050505050565b606001516207a12060209190911c60ff160290565b60006104176122e284846115a5565b633b9aca00611874565b60006276a7006122fb85611701565b01905061230d87878787878787612d47565b50505050505050565b6000808061232488856124a7565b9050600061233c6123358a8a6124c3565b8390612d7e565b9050633b02338081131561235857600080935093505050610878565b60008061236483612d97565b915091508061237d576000809550955050505050610878565b600061238d89611627858d612d7e565b9050633b9aca008112156123ac57600080965096505050505050610878565b9550600194506108789350505050565b60008080806123ce6102bc8789612d7e565b905060006123e46123de8a611b9e565b87611bb3565b9050600087131561243c5760006123fb8983612d7e565b9050633b9aca0081121561241c576000806000955095509550505050611b94565b61243461242d633b9aca00846119e2565b84906122d3565b91505061245e565b61245b6102bc82610b0e612454633b9aca00836119e2565b86906115a5565b90505b60006124786064610b0e6124718d612e39565b85906115a5565b905061248483836119e2565b6124956102bc8361162787876119e2565b909b909a509098509650505050505050565b60006124b383836119e2565b905060008112156103b057600080fd5b818101828112156000831215146103b057600080fd5b60008060006124ec888888886000612316565b915091508061250057600092505050610343565b600061250b83612e46565b9050600061251f82621dcd6560491b612a68565b9050600061252c82612e72565b9050600061254861254383621dcd6560491b612b10565b612eac565b67ffffffffffffffff1690506000612568896110e8846301da9c00611ee8565b905063ffffffff811115612586576000975050505050505050610343565b9c9b505050505050505050505050565b600080806125a48786612ec8565b60608901519091506125b690826124c3565b60608901524260e089015260006125cd8886612ec8565b905060006125db8989612ec8565b9a91995090975050505050505050565b60006103b06125f8612ef3565b5460405163d15e005360e01b81526001600160a01b039091169063d15e0053906126269086906004016148e5565b60206040518083038186803b15801561263e57600080fd5b505afa158015612652573d6000803e3d6000fd5b505050506040513d601f19601f820116820180604052508101906103f591906146ee565b6000806103b06007612c3e565b61268b61461a565b61269361461a565b60ff84166126a2579050610417565b6126ac8585612f00565b815260ff841660608201528267ffffffffffffffff811180156126ce57600080fd5b5060405190808252806020026020018201604052801561270857816020015b6126f5614642565b8152602001906001900390816126ed5790505b506020820152949350505050565b602083015151516000906060908067ffffffffffffffff8111801561273a57600080fd5b50604051908082528060200260200182016040528015612764578160200160208202803683370190505b50915061276f61451f565b60005b8281101561286e57875161278d90836001808501908b611427565b600088602001516000015182815181106127a357fe5b602002602001015190506000806127ba8386612f29565b915091506127e76127e08c60c001518d600001516000015161ffff168660200151612fa4565b82906124c3565b8785815181106127f357fe5b602002602001018181525050600061285061284961283d8a888151811061281657fe5b602002602001015187602001518f8f612833578b60a00151610711565b8b60c001516113e1565b8e516040015190612ec8565b84906124c3565b905061285c89826124c3565b98505060019093019250612772915050565b505050935093915050565b6000806128a58460c0015185600001516000015161ffff16866080015186886000015160200151612fe9565b905080156128f45760006128d78560c0015186600001516000015161ffff168760800151878960000151600088613095565b508551604001519091506128eb9082612ec8565b925050506103b0565b60009150506103b0565b600080600061290b613113565b600094855260205250506040909120546001600160a01b03811692600160a01b90910460ff169150565b600080612940613120565b60009384526020525050604090205490565b600082600111158015612969575083602001518311155b61297257600080fd5b606084015160806008600019860102019060ff90821c16633b9aca000260006129ab61299d86610882565b610b0e846301da9c006115a5565b90506000811361095e57600080fd5b60008060006129c98785611bb3565b9050633b9aca008112156129e4576000809250925050610878565b6000806129fb6129f48b8a6124c3565b8b90612d7e565b9050600080612a0983612d97565b9150915080612a2357600080965096505050505050610878565b612a37612a30838b612d7e565b86906119e2565b9c60019c509a5050505050505050505050565b6000677fffffffffffffff821115612a6157600080fd5b5060401b90565b600081600f0b60001415612a7b57600080fd5b600082600f0b604085600f0b901b81612a9057fe5b05905060016001607f1b03198112801590612ab2575060016001607f1b038113155b61041757600080fd5b6000600160461b82600f0b12612ad057600080fd5b683fffffffffffffffff1982600f0b1215612aed5750600061089b565b6103b0608083600f0b700171547652b82fe1777d0ffda0d23a7d1202901d61312d565b6000600f83810b9083900b0260401d60016001607f1b03198112801590612ab2575060016001607f1b0381131561041757600080fd5b600f0b60401d90565b60008080612b74612b6d612b638a896124c3565b610bde8c8a6119e2565b88906122d3565b90506000861315612bc157612b898585612d7e565b9450633b9aca00851215612b9c57600080fd5b612bba84612bb4612bad8c8c6124c3565b8d906115a5565b90612d7e565b9150612bf8565b612bcb85856122d3565b9450633b9aca00851215612bde57600080fd5b612bf5612bee6124548b8b6124c3565b8b906122d3565b91505b612c10612c058383611874565b6305f5e100906119e2565b91506000612c1e8b876122d3565b9050612c2a81886124c3565b9050610dc483610b0e836305f5e1006115a5565b6000620f424082601a81111561197257fe5b6000806103b06006612c3e565b600881901c60ff9091161b90565b6000806103b06011612c3e565b6000806103b06002612c3e565b6000806103b0600a612c3e565b6000808311612ca057600080fd5b81861115612caf575083610343565b6000612cbb8388611fca565b905083811115612cce5785915050610343565b6000612ce2856110e884633b9aca00611ee8565b90506000612cf4633b9aca0083611fca565b90506000612d17633b9aca006110e8612d0d8b86611ee8565b61146f8d88611ee8565b9a9950505050505050505050565b6000600f82900b60016001607f1b03191415612d4057600080fd5b5060000390565b612d548787878685613bdb565b612d6d8760e001518860a001518960c001518588612c92565b60c090970196909652505050505050565b6000610417612d9184633b9aca006115a5565b83611874565b600080633b9aca00831415612db157506000905080612e34565b6000612dcb612dc4633b9aca00866119e2565b8590612d7e565b90506000612dd882612e46565b9050600081600f0b13612df357600080935093505050612e34565b6000612e27612e22612e16612e0785612e72565b6814b927f32bffb83338613c9c565b621dcd6560491b612b10565b612b46565b60070b9450600193505050505b915091565b6060015160181c60ff1690565b6000677fffffffffffffff198212158015612e695750677fffffffffffffff8213155b612a6157600080fd5b60008082600f0b13612e8357600080fd5b6080612e8e83613ccf565b600f0b6fb17217f7d1cf79abc9e3b39803f2f6af02901c9050919050565b60008082600f0b1215612ebe57600080fd5b50600f0b60401d90565b6000806104558460200151610b0e8660400151610bde6402540be400886115a590919063ffffffff16565b6000806103b06013612c3e565b60606000612f0e8484613daa565b90506001815111612f205790506103b0565b61041781613ec2565b600080612f398460400151614081565b8015612f4a57506000846060015112155b612f5357600080fd5b612f768360800151610b0e866060015186606001516115a590919063ffffffff16565b9150612f9b8360800151610b0e866060015186604001516115a590919063ffffffff16565b90509250929050565b600080612faf614097565b6001600160a01b03861660009081526020918252604080822087835283528082208683529092522054600f90810b900b9150509392505050565b600060028211612ffb57506000610343565b600061300787876140a4565b905080613015579050610343565b600061302085611701565b90508581141561304a57507440008000000200200000000200000020000000002019169050610343565b60015b84811161308a57600061305f82611722565b83019050600061306f89836140d9565b50905061307e858260006141e4565b9450505060010161304d565b508192505050610343565b60008060006130a38461422f565b90505b80156131065760006130b88983614254565b905060006130ca8c8c848c8c8c614307565b90506130d685826124c3565b945060008112156130e657600193505b6130f2868460006141e4565b95506130fd8661422f565b925050506130a6565b5097509795505050505050565b6000806103b0600f612c3e565b6000806103b06009612c3e565b6000600160461b82600f0b1261314257600080fd5b683fffffffffffffffff1982600f0b121561315f5750600061089b565b6001607f1b60006001603f1b8416600f0b131561318d5770016a09e667f3bcc908b2fb1366ea957d3e0260801c5b60008367400000000000000016600f0b13156131ba577001306fe0a31b7152de8d5a46305c85edec0260801c5b60008367200000000000000016600f0b13156131e7577001172b83c7d517adcdf7c8c50eb14a791f0260801c5b60008367100000000000000016600f0b13156132145770010b5586cf9890f6298b92b71842a983630260801c5b60008367080000000000000016600f0b1315613241577001059b0d31585743ae7c548eb68ca417fd0260801c5b60008367040000000000000016600f0b131561326e57700102c9a3e778060ee6f7caca4f7a29bde80260801c5b60008367020000000000000016600f0b131561329b5770010163da9fb33356d84a66ae336dcdfa3f0260801c5b600083600160381b16600f0b13156132c457700100b1afa5abcbed6129ab13ec11dc95430260801c5b600083668000000000000016600f0b13156132f05770010058c86da1c09ea1ff19d294cf2f679b0260801c5b600083664000000000000016600f0b131561331c577001002c605e2e8cec506d21bfc89a23a00f0260801c5b600083662000000000000016600f0b131561334857700100162f3904051fa128bca9c55c31e5df0260801c5b600083661000000000000016600f0b1315613374577001000b175effdc76ba38e31671ca9397250260801c5b600083660800000000000016600f0b13156133a057700100058ba01fb9f96d6cacd4b180917c3d0260801c5b600083660400000000000016600f0b13156133cc5770010002c5cc37da9491d0985c348c68e7b30260801c5b600083660200000000000016600f0b13156133f8577001000162e525ee054754457d59952920260260801c5b600083600160301b16600f0b13156134215770010000b17255775c040618bf4a4ade83fc0260801c5b6000836580000000000016600f0b131561344c577001000058b91b5bc9ae2eed81e9b7d4cfab0260801c5b6000836540000000000016600f0b131561347757700100002c5c89d5ec6ca4d7c8acc017b7c90260801c5b6000836520000000000016600f0b13156134a25770010000162e43f4f831060e02d839a9d16d0260801c5b6000836510000000000016600f0b13156134cd57700100000b1721bcfc99d9f890ea069117630260801c5b6000836508000000000016600f0b13156134f85770010000058b90cf1e6d97f9ca14dbcc16280260801c5b6000836504000000000016600f0b1315613523577001000002c5c863b73f016468f6bac5ca2b0260801c5b6000836502000000000016600f0b131561354e57700100000162e430e5a18f6119e3c02282a50260801c5b6000836501000000000016600f0b1315613579577001000000b1721835514b86e6d96efd1bfe0260801c5b60008364800000000016600f0b13156135a357700100000058b90c0b48c6be5df846c5b2ef0260801c5b60008364400000000016600f0b13156135cd5770010000002c5c8601cc6b9e94213c72737a0260801c5b60008364200000000016600f0b13156135f7577001000000162e42fff037df38aa2b219f060260801c5b60008364100000000016600f0b13156136215770010000000b17217fba9c739aa5819f44f90260801c5b60008364080000000016600f0b131561364b577001000000058b90bfcdee5acd3c1cedc8230260801c5b60008364040000000016600f0b131561367557700100000002c5c85fe31f35a6a30da1be500260801c5b60008364020000000016600f0b131561369f5770010000000162e42ff0999ce3541b9fffcf0260801c5b60008364010000000016600f0b13156136c957700100000000b17217f80f4ef5aadda455540260801c5b600083638000000016600f0b13156136f25770010000000058b90bfbf8479bd5a81b51ad0260801c5b600083634000000016600f0b131561371b577001000000002c5c85fdf84bd62ae30a74cc0260801c5b600083632000000016600f0b131561374457700100000000162e42fefb2fed257559bdaa0260801c5b600083631000000016600f0b131561376d577001000000000b17217f7d5a7716bba4a9ae0260801c5b600083630800000016600f0b131561379657700100000000058b90bfbe9ddbac5e109cce0260801c5b600083630400000016600f0b13156137bf5770010000000002c5c85fdf4b15de6f17eb0d0260801c5b600083630200000016600f0b13156137e8577001000000000162e42fefa494f1478fde050260801c5b600083630100000016600f0b13156138115770010000000000b17217f7d20cf927c8e94c0260801c5b6000836280000016600f0b1315613839577001000000000058b90bfbe8f71cb4e4b33d0260801c5b6000836240000016600f0b131561386157700100000000002c5c85fdf477b662b269450260801c5b6000836220000016600f0b13156138895770010000000000162e42fefa3ae53369388c0260801c5b6000836210000016600f0b13156138b157700100000000000b17217f7d1d351a389d400260801c5b6000836208000016600f0b13156138d95770010000000000058b90bfbe8e8b2d3d4ede0260801c5b6000836204000016600f0b1315613901577001000000000002c5c85fdf4741bea6e77e0260801c5b6000836202000016600f0b131561392957700100000000000162e42fefa39fe95583c20260801c5b6000836201000016600f0b1315613951577001000000000000b17217f7d1cfb72b45e10260801c5b60008361800016600f0b131561397857700100000000000058b90bfbe8e7cc35c3f00260801c5b60008361400016600f0b131561399f5770010000000000002c5c85fdf473e242ea380260801c5b60008361200016600f0b13156139c6577001000000000000162e42fefa39f02b772c0260801c5b60008361100016600f0b13156139ed5770010000000000000b17217f7d1cf7d83c1a0260801c5b60008361080016600f0b1315613a14577001000000000000058b90bfbe8e7bdcbe2e0260801c5b60008361040016600f0b1315613a3b57700100000000000002c5c85fdf473dea871f0260801c5b60008361020016600f0b1315613a625770010000000000000162e42fefa39ef44d910260801c5b60008361010016600f0b1315613a8957700100000000000000b17217f7d1cf79e9490260801c5b600083608016600f0b1315613aaf5770010000000000000058b90bfbe8e7bce5440260801c5b600083604016600f0b1315613ad5577001000000000000002c5c85fdf473de6eca0260801c5b600083602016600f0b1315613afb57700100000000000000162e42fefa39ef366f0260801c5b600083601016600f0b1315613b21577001000000000000000b17217f7d1cf79afa0260801c5b600083600816600f0b1315613b4757700100000000000000058b90bfbe8e7bcd6d0260801c5b600083600416600f0b1315613b6d5770010000000000000002c5c85fdf473de6b20260801c5b600083600216600f0b1315613b93577001000000000000000162e42fefa39ef3580260801c5b600083600116600f0b1315613bb95770010000000000000000b17217f7d1cf79ab0260801c5b600f83810b60401d603f03900b1c60016001607f1b038111156103b057600080fd5b6000613be5612c85565b6000868152602082815260408083208884528252808320868452825291829020808a52908901879052805469ffffffffffffffffffff808216938b0193909352600160501b810490921660608a015263ffffffff600160a01b8304811660a08b0152600160c01b8304811660c08b0152600160e01b90920490911660e0890152909150808415613c8a57600182015469ffffffffffffffffffff166080890152613c92565b600060808901525b5050505050505050565b6000600f82810b9084900b0360016001607f1b03198112801590612ab2575060016001607f1b0381131561041757600080fd5b60008082600f0b13613ce057600080fd5b6000600f83900b600160401b8112613cfa576040918201911d5b6401000000008112613d0e576020918201911d5b620100008112613d20576010918201911d5b6101008112613d31576008918201911d5b60108112613d41576004918201911d5b60048112613d51576002918201911d5b60028112613d60576001820191505b603f19820160401b600f85900b607f8490031b6001603f1b5b6000811315613d9f5790800260ff81901c8281029390930192607f011c9060011d613d79565b509095945050505050565b606060108260ff161115613dbd57600080fd5b6000613dc761435c565b6001600160a01b038516600090815260208290526040812091925060ff851667ffffffffffffffff81118015613dfc57600080fd5b50604051908082528060200260200182016040528015613e3657816020015b613e23614642565b815260200190600190039081613e1b5790505b50905060005b8560ff168110156105a2576000838260108110613e5557fe5b0190506000838381518110613e6657fe5b602090810291909101810151835461ffff8116825264ffffffffff620100008204169282019290925260ff600160381b8304166040820152600160401b909104600a90810b900b60608201526080019190915250600101613e3c565b805160008167ffffffffffffffff81118015613edd57600080fd5b50604051908082528060200260200182016040528015613f07578160200160208202803683370190505b50905060005b82811015613f64576000848281518110613f2357fe5b60200260200101519050613f44816000015182602001518360400151614369565b838381518110613f5057fe5b602090810291909101015250600101613f0d565b5060015b8281101561407b57805b600081118015613faa5750828181518110613f8957fe5b6020026020010151836001830381518110613fa057fe5b6020026020010151115b1561407257828181518110613fbb57fe5b6020026020010151836001830381518110613fd257fe5b6020026020010151846001840381518110613fe957fe5b60200260200101858481518110613ffc57fe5b602002602001018281525082815250505084818151811061401957fe5b602002602001015185600183038151811061403057fe5b602002602001015186600184038151811061404757fe5b6020026020010187848151811061405a57fe5b60209081029190910101919091525260001901613f72565b50600101613f68565b50505050565b6000600282108015906103b05750506008101590565b6000806103b0600c612c3e565b6000806140af6143c4565b6001600160a01b038516600090815260209182526040808220868352909252205491505092915050565b60008060006140e7856143d1565b9050620151808406156141015760008092509250506141dd565b8381106141155760008092509250506141dd565b6201518081850304605a8111614132579250600191506141dd9050565b6101688111614171576000620151806207e900840604820160591901905060068104605a016006828161416157fe5b06600014945094505050506141dd565b61087081116141a15760006201518062278d00840604820161016719019050601e8104608701601e828161416157fe5b611de281116141d1576000620151806276a700840604820161086f19019050605a810460c301605a828161416157fe5b61010060009350935050505b9250929050565b6000600183101580156141f957506101008311155b61420257600080fd5b811561421b5750600160ff1b60001983011c8317610417565b50600160ff1b60001983011c198316610417565b60008161423e5750600061089b565b614247826143ed565b60ff036001019050919050565b60008161426057600080fd5b61010082111561426f57600080fd5b600061427a846143d1565b90506000605a841161429557506201518083020190506103b0565b608784116142bd575060591983016207e900908102908206909103016276a7000190506103b0565b60c384116142e65750608619830162278d00908102908206909103016301da9c000190506103b0565b5060c21983016276a70090810290820690910301630b1fa8000190506103b0565b600080614315888888612fa4565b905084861161432557905061095e565b6000614332858888611251565b90508315614350576143478583898985611341565b9250505061095e565b614347828888846113e1565b6000806103b0600d612c3e565b6000613fff84111561437a57600080fd5b64ffffffffff83111561438c57600080fd5b600882111561439a57600080fd5b5067ffff000000000000603084901b1665ffffffffff00600884901b161760ff8216179392505050565b6000806103b0600b612c3e565b6000620151808210156143e357600080fd5b6201518082611719565b6000816143f957600080fd5b600160801b821061440c57608091821c91015b600160401b821061441f57604091821c91015b640100000000821061443357602091821c91015b62010000821061444557601091821c91015b610100821061445657600891821c91015b6010821061446657600491821c91015b6004821061447657600291821c91015b6002821061089b57600101919050565b6040518060e001604052806144996145c0565b81526020016144a661461a565b815260006020820181905260408201819052606082018190526080820181905260a09091015290565b604051806101200160405280600061ffff16815260200160008152602001600081526020016000815260200160008152602001600081526020016000815260200160008152602001600081525090565b60405180610100016040528060008019168152602001600081526020016000815260200160008152602001600081526020016000815260200160008152602001600081525090565b6040805160a0810182526000808252602082018190529181018290529060608201908152602001600081525090565b604051806060016040528060006001600160a01b0316815260200160008152602001600081525090565b60408051608081018252600080825260208201529081016145df614596565b8152600060209091015290565b6040805160a08101825260008082526020820181905291810182905260608101829052608081019190915290565b6040518060800160405280606081526020016060815260200160008152602001600081525090565b6040518060c0016040528060008152602001600081526020016000815260200160008152602001600081526020016000600381111561467d57fe5b905290565b8035801515811461089b57600080fd5b803561ffff8116811461089b57600080fd5b803563ffffffff8116811461089b57600080fd5b600080604083850312156146ca578182fd5b82356001600160a01b03811681146146e0578283fd5b946020939093013593505050565b6000602082840312156146ff578081fd5b5051919050565b60008060006060848603121561471a578081fd5b61472384614692565b92506020840135915061473860408501614682565b90509250925092565b60008060008060808587031215614756578081fd5b61475f85614692565b9350602085013580600a0b8114614774578182fd5b93969395505050506040820135916060013590565b600080600080600060a086880312156147a0578081fd5b6147a986614692565b94506020860135935060408601359250606086013591506147cc60808701614682565b90509295509295909350565b600080600080600060a086880312156147ef578081fd5b6147f886614692565b94506020860135935060408601359250614814606087016146a4565b949793965091946080013592915050565b60008060008060008060c0878903121561483d578081fd5b61484687614692565b95506020870135945060408701359350614862606088016146a4565b92506080870135915061487760a08801614682565b90509295509295509295565b60008060408385031215614895578182fd5b61489e83614692565b915060208301356001600160581b03811681146148b9578182fd5b809150509250929050565b600080604083850312156148d6578182fd5b50508035926020909101359150565b6001600160a01b0391909116815260200190565b6001600160a01b0394909416845260208401929092526040830152606082015260800190565b90815260200190565b918252602082015260400190565b60208082526016908201527513585c9ad95d081b9bdd081a5b9a5d1a585b1a5e995960521b604082015260600190565b60208082526013908201527214995c5d5a5c995cc81cd95d1d1b195b595b9d606a1b604082015260600190565b6020808252600e908201526d4e6f20636f6e76657267656e636560901b604082015260600190565b60208082526015908201527410d1ce881b9bc81b585c9ad95d1cc81b1a5cdd1959605a1b604082015260600190565b6020808252600d908201526c092dcecc2d8d2c840d2dcc8caf609b1b604082015260600190565b60208082526016908201527510d1ce881b585c9ad95d081a5b99195e08189bdd5b9960521b604082015260600190565b6020808252600e908201526d125b9d985b1a59081b585c9ad95d60921b604082015260600190565b6020808252601690820152755472616465206661696c65642c20736c69707061676560501b604082015260600190565b602080825260129082015271496e76616c696420626c6f636b2074696d6560701b604082015260600190565b602080825260139082015272125b9d985b1a590818dd5c9c995b98de481a59606a1b604082015260600190565b60208082526013908201527210d1ce881b9bc81b585c9ad95d08199bdd5b99606a1b604082015260600190565b60208082526014908201527313dd995c8811195d9a585d1a5bdb88131a5b5a5d60621b604082015260600190565b938452602084019290925260ff166040830152606082015260800190565b6001600160581b0393909316835260ff919091166020830152604082015260600190565b60ff9190911681526020019056fe536166654d6174683a206d756c7469706c69636174696f6e206f766572666c6f77a2646970667358221220b1de2287b51d4907e9e17aa679bb26157033b72bf1dc8ad0201aea7de30df97564736f6c63430007060033","language":"Solidity","natspec":{"kind":"dev","methods":{"calculateNTokensToMint(uint16,uint88)":{"notice":"Returns the nTokens that will be minted when some amount of asset tokens are deposited","params":{"amountToDepositExternalPrecision":"amount of asset tokens in native precision","currencyId":"id number of the currency"},"returns":{"_0":"the amount of nTokens that will be minted"}},"convertCashBalanceToExternal(uint16,int256,bool)":{"notice":"Converts an internal cash balance to an external token denomination","params":{"cashBalanceInternal":"the signed cash balance that is stored in Notional","convertToUnderlying":"true if the value should be converted to underlying","currencyId":"the currency id of the cash balance"},"returns":{"_0":"the cash balance converted to the external token denomination"}},"getCashAmountGivenfCashAmount(uint16,int88,uint256,uint256)":{"notice":"Returns the cash amount that will be traded given an fCash amount, be sure to buffer these amounts slightly because the liquidity curve is sensitive to changes in block time","params":{"blockTime":"the block time for when the trade will be calculated","currencyId":"id number of the currency","fCashAmount":"amount of fCash to trade, negative for borrowing, positive for lending","marketIndex":"market index of the fCash market"},"returns":{"_0":"net asset cash amount (positive for borrowing, negative for lending) in 8 decimal precision","_1":"underlying cash amount (positive for borrowing, negative for lending) in 8 decimal precision"}},"getDepositFromfCashLend(uint16,uint256,uint256,uint32,uint256)":{"notice":"Returns the amount of underlying cash and asset cash required to lend fCash. When specifying a trade, deposit either underlying or asset tokens (not both). Asset tokens tend to be more gas efficient.","params":{"blockTime":"the block time for when the trade will be calculated","currencyId":"id number of the currency","fCashAmount":"amount of fCash (in underlying) that will be received at maturity. Always 8 decimal precision.","maturity":"the maturity of the fCash to lend","minLendRate":"the minimum lending rate (slippage protection)"},"returns":{"depositAmountAsset":"the amount of asset tokens the lender must deposit","depositAmountUnderlying":"the amount of underlying tokens the lender must deposit","encodedTrade":"the encoded bytes32 object to pass to batch trade","marketIndex":"the corresponding market index for the lending"}},"getLibInfo()":{"notice":"Get a list of deployed library addresses (sorted by library name)"},"getMarketIndex(uint256,uint256)":{"notice":"Returns a market index value for a given maturity","params":{"blockTime":"the block time for when the trade will be calculated","maturity":"an fCash maturity"},"returns":{"marketIndex":"a value between 1 and 7 that represents the marketIndex (tenor) that corresponds to the maturity. Returns 0 if there is no corresponding marketIndex"}},"getPresentfCashValue(uint16,uint256,int256,uint256,bool)":{"notice":"Returns the present value of the given fCash amount using Notional internal oracle rates","params":{"blockTime":"the block time for when the trade will be calculated","currencyId":"id number of the currency","maturity":"timestamp of the fCash maturity","notional":"amount of fCash notional","riskAdjusted":"true if haircuts and buffers should be applied to the oracle rate"},"returns":{"presentValue":"of fCash in 8 decimal precision and underlying denomination"}},"getPrincipalFromfCashBorrow(uint16,uint256,uint256,uint32,uint256)":{"notice":"Returns the amount of underlying cash and asset cash required to borrow fCash. When specifying a trade, choose to receive either underlying or asset tokens (not both). Asset tokens tend to be more gas efficient.","params":{"blockTime":"the block time for when the trade will be calculated","currencyId":"id number of the currency","fCashBorrow":"amount of fCash (in underlying) that will be received at maturity. Always 8 decimal precision.","maturity":"the maturity of the fCash to lend","maxBorrowRate":"the maximum borrow rate (slippage protection)"},"returns":{"borrowAmountAsset":"the amount of asset tokens the borrower will receive","borrowAmountUnderlying":"the amount of underlying tokens the borrower will receive","encodedTrade":"the encoded bytes32 object to pass to batch trade","marketIndex":"the corresponding market index for the lending"}},"getfCashAmountGivenCashAmount(uint16,int88,uint256,uint256)":{"params":{"blockTime":"the block time for when the trade will be calculated","marketIndex":"market index of the fCash market"},"returns":{"_0":"the fCash amount from the trade, positive when lending, negative when borrowing. Always in 8 decimals."}},"getfCashBorrowFromPrincipal(uint16,uint256,uint256,uint32,uint256,bool)":{"notice":"Returns the amount of fCash that would received if lending deposit amount.","params":{"blockTime":"the block time for when the trade will be calculated","borrowedAmountExternal":"amount to borrow in the token's native precision. For aTokens use what is returned by the balanceOf selector (not scaledBalanceOf).","currencyId":"id number of the currency","maturity":"the maturity of the fCash to lend","maxBorrowRate":"the maximum borrow rate (slippage protection). If zero then no slippage will be applied","useUnderlying":"true if specifying the underlying token, false if specifying the asset token"},"returns":{"encodedTrade":"the encoded bytes32 object to pass to batch trade","fCashDebt":"the amount of fCash that the borrower will owe, this will be stored as a negative balance in Notional","marketIndex":"the corresponding market index for the lending"}},"getfCashLendFromDeposit(uint16,uint256,uint256,uint32,uint256,bool)":{"notice":"Returns the amount of fCash that would received if lending deposit amount.","params":{"blockTime":"the block time for when the trade will be calculated","currencyId":"id number of the currency","depositAmountExternal":"amount to deposit in the token's native precision. For aTokens use what is returned by the balanceOf selector (not scaledBalanceOf).","maturity":"the maturity of the fCash to lend","minLendRate":"the minimum lending rate (slippage protection)","useUnderlying":"true if specifying the underlying token, false if specifying the asset token"},"returns":{"encodedTrade":"the encoded bytes32 object to pass to batch trade","fCashAmount":"the amount of fCash that the lender will receive","marketIndex":"the corresponding market index for the lending"}},"nTokenGetClaimableIncentives(address,uint256)":{"notice":"Returns the claimable incentives for all nToken balances","params":{"account":"The address of the account which holds the tokens","blockTime":"The block time when incentives will be minted"},"returns":{"_0":"Incentives an account is eligible to claim"}}},"version":1},"opcodes":"PUSH1 0x80 PUSH1 0x40 MSTORE CALLVALUE DUP1 ISZERO PUSH2 0x10 JUMPI PUSH1 0x0 DUP1 REVERT JUMPDEST POP PUSH1 0x4 CALLDATASIZE LT PUSH2 0xF5 JUMPI PUSH1 0x0 CALLDATALOAD PUSH1 0xE0 SHR DUP1 PUSH4 0x8355E895 GT PUSH2 0x97 JUMPI DUP1 PUSH4 0xBAC9E8B1 GT PUSH2 0x66 JUMPI DUP1 PUSH4 0xBAC9E8B1 EQ PUSH2 0x1F8 JUMPI DUP1 PUSH4 0xC4C96DAE EQ PUSH2 0x21A JUMPI DUP1 PUSH4 0xC52C43E1 EQ PUSH2 0x222 JUMPI DUP1 PUSH4 0xF83A8608 EQ PUSH2 0x235 JUMPI PUSH2 0xF5 JUMP JUMPDEST DUP1 PUSH4 0x8355E895 EQ PUSH2 0x1B7 JUMPI DUP1 PUSH4 0x8DA5CB5B EQ PUSH2 0x1CA JUMPI DUP1 PUSH4 0x97D6DB2E EQ PUSH2 0x1D2 JUMPI DUP1 PUSH4 0xAAAE47B5 EQ PUSH2 0x1E5 JUMPI PUSH2 0xF5 JUMP JUMPDEST DUP1 PUSH4 0x5953C77B GT PUSH2 0xD3 JUMPI DUP1 PUSH4 0x5953C77B EQ PUSH2 0x15C JUMPI DUP1 PUSH4 0x6A09A2A3 EQ PUSH2 0x17C JUMPI DUP1 PUSH4 0x6EBBF174 EQ PUSH2 0x19C JUMPI DUP1 PUSH4 0x82463367 EQ PUSH2 0x1AF JUMPI PUSH2 0xF5 JUMP JUMPDEST DUP1 PUSH4 0x94614DF EQ PUSH2 0xFA JUMPI DUP1 PUSH4 0x24A3D622 EQ PUSH2 0x124 JUMPI DUP1 PUSH4 0x416A1587 EQ PUSH2 0x139 JUMPI JUMPDEST PUSH1 0x0 DUP1 REVERT JUMPDEST PUSH2 0x10D PUSH2 0x108 CALLDATASIZE PUSH1 0x4 PUSH2 0x4741 JUMP JUMPDEST PUSH2 0x248 JUMP JUMPDEST PUSH1 0x40 MLOAD PUSH2 0x11B SWAP3 SWAP2 SWAP1 PUSH2 0x4928 JUMP JUMPDEST PUSH1 0x40 MLOAD DUP1 SWAP2 SUB SWAP1 RETURN JUMPDEST PUSH2 0x12C PUSH2 0x266 JUMP JUMPDEST PUSH1 0x40 MLOAD PUSH2 0x11B SWAP2 SWAP1 PUSH2 0x48E5 JUMP JUMPDEST PUSH2 0x14C PUSH2 0x147 CALLDATASIZE PUSH1 0x4 PUSH2 0x47D8 JUMP JUMPDEST PUSH2 0x275 JUMP JUMPDEST PUSH1 0x40 MLOAD PUSH2 0x11B SWAP5 SWAP4 SWAP3 SWAP2 SWAP1 PUSH2 0x4B4D JUMP JUMPDEST PUSH2 0x16F PUSH2 0x16A CALLDATASIZE PUSH1 0x4 PUSH2 0x48C4 JUMP JUMPDEST PUSH2 0x320 JUMP JUMPDEST PUSH1 0x40 MLOAD PUSH2 0x11B SWAP2 SWAP1 PUSH2 0x4B8F JUMP JUMPDEST PUSH2 0x18F PUSH2 0x18A CALLDATASIZE PUSH1 0x4 PUSH2 0x4883 JUMP JUMPDEST PUSH2 0x34C JUMP JUMPDEST PUSH1 0x40 MLOAD PUSH2 0x11B SWAP2 SWAP1 PUSH2 0x491F JUMP JUMPDEST PUSH2 0x18F PUSH2 0x1AA CALLDATASIZE PUSH1 0x4 PUSH2 0x4706 JUMP JUMPDEST PUSH2 0x3B6 JUMP JUMPDEST PUSH2 0x12C PUSH2 0x41E JUMP JUMPDEST PUSH2 0x18F PUSH2 0x1C5 CALLDATASIZE PUSH1 0x4 PUSH2 0x4741 JUMP JUMPDEST PUSH2 0x42D JUMP JUMPDEST PUSH2 0x12C PUSH2 0x45D JUMP JUMPDEST PUSH2 0x18F PUSH2 0x1E0 CALLDATASIZE PUSH1 0x4 PUSH2 0x46B8 JUMP JUMPDEST PUSH2 0x474 JUMP JUMPDEST PUSH2 0x14C PUSH2 0x1F3 CALLDATASIZE PUSH1 0x4 PUSH2 0x47D8 JUMP JUMPDEST PUSH2 0x5AC JUMP JUMPDEST PUSH2 0x20B PUSH2 0x206 CALLDATASIZE PUSH1 0x4 PUSH2 0x4825 JUMP JUMPDEST PUSH2 0x63B JUMP JUMPDEST PUSH1 0x40 MLOAD PUSH2 0x11B SWAP4 SWAP3 SWAP2 SWAP1 PUSH2 0x4B6B JUMP JUMPDEST PUSH2 0x12C PUSH2 0x6B6 JUMP JUMPDEST PUSH2 0x18F PUSH2 0x230 CALLDATASIZE PUSH1 0x4 PUSH2 0x4789 JUMP JUMPDEST PUSH2 0x6CE JUMP JUMPDEST PUSH2 0x20B PUSH2 0x243 CALLDATASIZE PUSH1 0x4 PUSH2 0x4825 JUMP JUMPDEST PUSH2 0x721 JUMP JUMPDEST PUSH1 0x0 DUP1 PUSH2 0x259 DUP7 DUP7 DUP7 DUP7 PUSH1 0x0 PUSH2 0x786 JUMP JUMPDEST SWAP2 POP SWAP2 POP SWAP5 POP SWAP5 SWAP3 POP POP POP JUMP JUMPDEST PUSH1 0x2 SLOAD PUSH1 0x1 PUSH1 0x1 PUSH1 0xA0 SHL SUB AND DUP2 JUMP JUMPDEST PUSH1 0x0 DUP1 PUSH1 0x0 DUP1 PUSH2 0x285 DUP8 DUP7 PUSH2 0x320 JUMP JUMPDEST SWAP2 POP PUSH1 0x0 DUP3 PUSH1 0xFF AND GT PUSH2 0x297 JUMPI PUSH1 0x0 DUP1 REVERT JUMPDEST PUSH11 0x7FFFFFFFFFFFFFFFFFFFFF DUP9 LT PUSH2 0x2AE JUMPI PUSH1 0x0 DUP1 REVERT JUMPDEST PUSH1 0x0 PUSH2 0x2C1 PUSH2 0x2BC DUP11 PUSH2 0x882 JUMP JUMPDEST PUSH2 0x8A0 JUMP JUMPDEST SWAP1 POP PUSH1 0x0 DUP1 PUSH2 0x2DC DUP13 DUP5 DUP8 PUSH1 0xFF AND DUP12 DUP14 PUSH4 0xFFFFFFFF AND PUSH2 0x786 JUMP JUMPDEST SWAP2 POP SWAP2 POP PUSH2 0x2EC DUP13 DUP3 PUSH1 0x1 PUSH2 0x8AE JUMP JUMPDEST SWAP7 POP PUSH2 0x2FA DUP13 DUP4 PUSH1 0x0 PUSH2 0x8AE JUMP JUMPDEST SWAP6 POP PUSH2 0x30C PUSH1 0x1 DUP7 DUP6 PUSH1 0xA SIGNEXTEND DUP13 PUSH2 0x968 JUMP JUMPDEST POP DUP1 SWAP5 POP POP POP POP POP SWAP6 POP SWAP6 POP SWAP6 POP SWAP6 SWAP2 POP POP JUMP JUMPDEST PUSH1 0x0 DUP1 PUSH1 0x0 PUSH2 0x331 PUSH1 0x7 DUP7 DUP7 PUSH2 0x9C6 JUMP JUMPDEST SWAP2 POP SWAP2 POP DUP1 PUSH2 0x340 JUMPI DUP2 PUSH2 0x343 JUMP JUMPDEST PUSH1 0x0 JUMPDEST SWAP6 SWAP5 POP POP POP POP POP JUMP JUMPDEST PUSH1 0x0 PUSH2 0x357 DUP4 PUSH2 0xA8E JUMP JUMPDEST PUSH1 0x0 PUSH2 0x366 DUP5 PUSH2 0xFFFF AND PUSH2 0xACB JUMP JUMPDEST SWAP1 POP PUSH1 0x0 PUSH2 0x37D DUP3 PUSH1 0x1 PUSH1 0x1 PUSH1 0x58 SHL SUB DUP7 AND PUSH2 0xADE JUMP JUMPDEST SWAP1 POP PUSH2 0x387 PUSH2 0x4486 JUMP JUMPDEST PUSH2 0x391 DUP2 DUP8 PUSH2 0xB14 JUMP JUMPDEST PUSH1 0x0 PUSH2 0x39E DUP3 DUP5 TIMESTAMP PUSH2 0xB2D JUMP JUMPDEST SWAP1 POP PUSH2 0x3A9 DUP2 PUSH2 0xC2C JUMP JUMPDEST SWAP5 POP POP POP POP POP JUMPDEST SWAP3 SWAP2 POP POP JUMP JUMPDEST PUSH1 0x0 DUP2 ISZERO PUSH2 0x3DD JUMPI PUSH1 0x0 PUSH2 0x3CD DUP6 PUSH2 0xFFFF AND PUSH2 0xC83 JUMP JUMPDEST SWAP1 POP PUSH2 0x3D9 DUP2 DUP6 PUSH2 0xCCF JUMP JUMPDEST SWAP4 POP POP JUMPDEST PUSH1 0x0 PUSH2 0x3FA PUSH2 0x3F5 DUP7 PUSH2 0x3EF DUP8 PUSH2 0xCFA JUMP JUMPDEST DUP7 PUSH2 0x8AE JUMP JUMPDEST PUSH2 0x882 JUMP JUMPDEST SWAP1 POP PUSH1 0x0 DUP5 SLT PUSH2 0x40A JUMPI DUP1 PUSH2 0x413 JUMP JUMPDEST PUSH2 0x413 DUP2 PUSH2 0x8A0 JUMP JUMPDEST SWAP2 POP POP JUMPDEST SWAP4 SWAP3 POP POP POP JUMP JUMPDEST PUSH1 0x1 SLOAD PUSH1 0x1 PUSH1 0x1 PUSH1 0xA0 SHL SUB AND DUP2 JUMP JUMPDEST PUSH1 0x0 PUSH2 0x438 DUP6 PUSH2 0xA8E JUMP JUMPDEST PUSH1 0x0 PUSH2 0x443 DUP7 PUSH2 0xD1B JUMP JUMPDEST SWAP1 POP PUSH2 0x451 DUP6 DUP6 DUP6 DUP5 PUSH2 0xD3E JUMP JUMPDEST SWAP2 POP POP JUMPDEST SWAP5 SWAP4 POP POP POP POP JUMP JUMPDEST PUSH1 0x0 SLOAD PUSH5 0x100000000 SWAP1 DIV PUSH1 0x1 PUSH1 0x1 PUSH1 0xA0 SHL SUB AND DUP2 JUMP JUMPDEST PUSH1 0x0 DUP1 PUSH2 0x480 DUP5 PUSH2 0xDD3 JUMP JUMPDEST SWAP1 POP PUSH2 0x48A PUSH2 0x44CF JUMP JUMPDEST PUSH1 0x0 PUSH2 0x495 DUP4 PUSH2 0xE7A JUMP JUMPDEST ISZERO PUSH2 0x50B JUMPI PUSH1 0x60 DUP4 ADD MLOAD PUSH2 0x4AD SWAP1 DUP4 SWAP1 DUP9 SWAP1 DUP7 PUSH2 0xE87 JUMP JUMPDEST PUSH1 0x0 DUP3 PUSH1 0x40 ADD MLOAD SGT ISZERO PUSH2 0x50B JUMPI PUSH1 0x0 PUSH2 0x4CD DUP4 PUSH1 0x0 ADD MLOAD PUSH2 0xFFFF AND PUSH2 0xF2D JUMP JUMPDEST SWAP1 POP PUSH1 0x0 PUSH2 0x4DB DUP3 DUP9 PUSH2 0xF53 JUMP JUMPDEST POP SWAP2 POP POP PUSH1 0x0 PUSH2 0x4F9 DUP6 DUP5 DUP5 PUSH2 0x4F4 DUP10 PUSH1 0x40 ADD MLOAD PUSH2 0xFE9 JUMP JUMPDEST PUSH2 0xFF8 JUMP JUMPDEST SWAP1 POP PUSH2 0x505 DUP5 DUP3 PUSH2 0x1125 JUMP JUMPDEST SWAP4 POP POP POP POP JUMPDEST PUSH1 0x80 DUP4 ADD MLOAD JUMPDEST PUSH1 0x1 PUSH1 0x1 PUSH1 0x70 SHL SUB NOT DUP2 AND ISZERO PUSH2 0x5A2 JUMPI PUSH1 0xF0 DUP2 SWAP1 SHR PUSH2 0x3FFF AND PUSH2 0x536 DUP5 DUP10 DUP4 DUP9 PUSH2 0xE87 JUMP JUMPDEST PUSH1 0x0 DUP5 PUSH1 0x40 ADD MLOAD SGT ISZERO PUSH2 0x58F JUMPI PUSH1 0x0 PUSH2 0x556 DUP6 PUSH1 0x0 ADD MLOAD PUSH2 0xFFFF AND PUSH2 0xF2D JUMP JUMPDEST SWAP1 POP PUSH1 0x0 PUSH2 0x564 DUP3 DUP11 PUSH2 0xF53 JUMP JUMPDEST POP SWAP2 POP POP PUSH1 0x0 PUSH2 0x57D DUP8 DUP5 DUP5 PUSH2 0x4F4 DUP12 PUSH1 0x40 ADD MLOAD PUSH2 0xFE9 JUMP JUMPDEST SWAP1 POP PUSH2 0x589 DUP7 DUP3 PUSH2 0x1125 JUMP JUMPDEST SWAP6 POP POP POP POP JUMPDEST POP PUSH1 0x10 SHL PUSH1 0x1 PUSH1 0x1 PUSH1 0x80 SHL SUB NOT AND PUSH2 0x511 JUMP JUMPDEST POP SWAP6 SWAP5 POP POP POP POP POP JUMP JUMPDEST PUSH1 0x0 DUP1 PUSH1 0x0 DUP1 PUSH2 0x5BC DUP8 DUP7 PUSH2 0x320 JUMP JUMPDEST SWAP2 POP PUSH1 0x0 DUP3 PUSH1 0xFF AND GT PUSH2 0x5CE JUMPI PUSH1 0x0 DUP1 REVERT JUMPDEST PUSH11 0x7FFFFFFFFFFFFFFFFFFFFF DUP9 LT PUSH2 0x5E5 JUMPI PUSH1 0x0 DUP1 REVERT JUMPDEST PUSH1 0x0 PUSH2 0x5F0 DUP10 PUSH2 0x882 JUMP JUMPDEST SWAP1 POP PUSH1 0x0 DUP1 PUSH2 0x60B DUP13 DUP5 DUP8 PUSH1 0xFF AND DUP12 DUP14 PUSH4 0xFFFFFFFF AND PUSH2 0x786 JUMP JUMPDEST SWAP2 POP SWAP2 POP PUSH2 0x61B DUP13 DUP3 PUSH1 0x1 PUSH2 0x8AE JUMP JUMPDEST SWAP7 POP PUSH2 0x629 DUP13 DUP4 PUSH1 0x0 PUSH2 0x8AE JUMP JUMPDEST SWAP6 POP PUSH2 0x30C PUSH1 0x0 DUP7 DUP6 PUSH1 0xA SIGNEXTEND DUP13 PUSH2 0x968 JUMP JUMPDEST PUSH1 0x0 DUP1 PUSH1 0x0 PUSH2 0x64A DUP8 DUP7 PUSH2 0x320 JUMP JUMPDEST SWAP2 POP PUSH1 0x0 DUP3 PUSH1 0xFF AND GT PUSH2 0x65C JUMPI PUSH1 0x0 DUP1 REVERT JUMPDEST PUSH1 0x0 DUP1 PUSH2 0x66A DUP12 DUP12 DUP9 PUSH2 0x117F JUMP JUMPDEST SWAP2 POP SWAP2 POP PUSH1 0x0 PUSH2 0x687 PUSH2 0x67C DUP5 PUSH2 0x121F JUMP JUMPDEST DUP7 PUSH1 0xFF AND DUP11 DUP6 PUSH2 0xD3E JUMP JUMPDEST SWAP1 POP PUSH1 0x0 DUP2 SLT PUSH2 0x696 JUMPI PUSH1 0x0 DUP1 REVERT JUMPDEST PUSH2 0x6A3 PUSH1 0x1 DUP7 DUP4 DUP13 PUSH2 0x968 JUMP JUMPDEST SWAP14 SWAP6 SWAP13 POP SWAP11 POP SWAP4 SWAP9 POP POP POP POP POP POP POP POP POP JUMP JUMPDEST PUSH20 0x0 SWAP1 JUMP JUMPDEST PUSH1 0x0 DUP1 PUSH2 0x6DA DUP8 PUSH2 0xD1B JUMP JUMPDEST SWAP1 POP DUP3 ISZERO PUSH2 0x700 JUMPI PUSH2 0x6F9 DUP2 DUP7 DUP9 DUP8 PUSH2 0x6F4 DUP5 DUP4 DUP4 PUSH2 0x1251 JUMP JUMPDEST PUSH2 0x1341 JUMP JUMPDEST SWAP2 POP PUSH2 0x5A2 JUMP JUMPDEST PUSH2 0x716 DUP6 DUP8 DUP7 PUSH2 0x711 DUP6 DUP4 DUP4 PUSH2 0x1251 JUMP JUMPDEST PUSH2 0x13E1 JUMP JUMPDEST SWAP8 SWAP7 POP POP POP POP POP POP POP JUMP JUMPDEST PUSH1 0x0 DUP1 PUSH1 0x0 PUSH2 0x730 DUP8 DUP7 PUSH2 0x320 JUMP JUMPDEST SWAP2 POP PUSH1 0x0 DUP3 PUSH1 0xFF AND GT PUSH2 0x742 JUMPI PUSH1 0x0 DUP1 REVERT JUMPDEST PUSH1 0x0 DUP1 PUSH2 0x750 DUP12 DUP12 DUP9 PUSH2 0x117F JUMP JUMPDEST SWAP2 POP SWAP2 POP PUSH1 0x0 PUSH2 0x76A PUSH2 0x67C PUSH2 0x765 DUP6 PUSH2 0x8A0 JUMP JUMPDEST PUSH2 0x121F JUMP JUMPDEST SWAP1 POP DUP1 PUSH1 0x0 SLT PUSH2 0x779 JUMPI PUSH1 0x0 DUP1 REVERT JUMPDEST PUSH2 0x6A3 PUSH1 0x0 DUP7 DUP4 DUP13 PUSH2 0x968 JUMP JUMPDEST PUSH1 0x0 DUP1 PUSH2 0x792 DUP8 PUSH2 0xA8E JUMP JUMPDEST PUSH1 0x0 PUSH2 0x79D DUP9 PUSH2 0xD1B JUMP JUMPDEST SWAP1 POP PUSH2 0x7A7 PUSH2 0x451F JUMP JUMPDEST PUSH2 0x7B5 DUP3 DUP3 DUP10 PUSH1 0x0 DUP11 PUSH2 0x1427 JUMP JUMPDEST DUP6 DUP2 PUSH1 0x20 ADD MLOAD GT PUSH2 0x7E1 JUMPI PUSH1 0x40 MLOAD PUSH3 0x461BCD PUSH1 0xE5 SHL DUP2 MSTORE PUSH1 0x4 ADD PUSH2 0x7D8 SWAP1 PUSH2 0x4A99 JUMP JUMPDEST PUSH1 0x40 MLOAD DUP1 SWAP2 SUB SWAP1 REVERT JUMPDEST PUSH1 0x20 DUP2 ADD MLOAD DUP7 SWAP1 SUB PUSH1 0x0 PUSH2 0x7FC DUP4 DUP6 PUSH1 0xA DUP14 SWAP1 SIGNEXTEND DUP6 DUP14 PUSH2 0x14A2 JUMP JUMPDEST POP SWAP1 POP DUP7 ISZERO PUSH2 0x85E JUMPI PUSH1 0x0 DUP11 PUSH1 0xA SIGNEXTEND SLT ISZERO PUSH2 0x83A JUMPI DUP7 DUP4 PUSH1 0xA0 ADD MLOAD GT ISZERO PUSH2 0x835 JUMPI PUSH1 0x40 MLOAD PUSH3 0x461BCD PUSH1 0xE5 SHL DUP2 MSTORE PUSH1 0x4 ADD PUSH2 0x7D8 SWAP1 PUSH2 0x4A69 JUMP JUMPDEST PUSH2 0x85E JUMP JUMPDEST DUP7 DUP4 PUSH1 0xA0 ADD MLOAD LT ISZERO PUSH2 0x85E JUMPI PUSH1 0x40 MLOAD PUSH3 0x461BCD PUSH1 0xE5 SHL DUP2 MSTORE PUSH1 0x4 ADD PUSH2 0x7D8 SWAP1 PUSH2 0x4A69 JUMP JUMPDEST PUSH1 0x40 DUP5 ADD MLOAD DUP2 SWAP1 PUSH2 0x86F SWAP1 DUP3 PUSH2 0xCCF JUMP JUMPDEST SWAP6 POP SWAP6 POP POP POP POP POP JUMPDEST SWAP6 POP SWAP6 SWAP4 POP POP POP POP JUMP JUMPDEST PUSH1 0x0 PUSH1 0x1 PUSH1 0x1 PUSH1 0xFF SHL SUB DUP3 GT ISZERO PUSH2 0x898 JUMPI PUSH1 0x0 DUP1 REVERT JUMPDEST POP DUP1 JUMPDEST SWAP2 SWAP1 POP JUMP JUMPDEST PUSH1 0x0 PUSH2 0x3B0 PUSH1 0x0 NOT DUP4 PUSH2 0x15A5 JUMP JUMPDEST PUSH1 0x0 DUP1 PUSH1 0x0 DUP4 PUSH2 0x8CA JUMPI PUSH2 0x8C5 DUP7 PUSH2 0xFFFF AND PUSH2 0xACB JUMP JUMPDEST PUSH2 0x8D7 JUMP JUMPDEST PUSH2 0x8D7 DUP7 PUSH2 0xFFFF AND PUSH2 0x15F3 JUMP JUMPDEST SWAP1 POP DUP4 DUP1 ISZERO PUSH2 0x8E6 JUMPI POP PUSH1 0x0 DUP6 SLT JUMPDEST ISZERO PUSH2 0x905 JUMPI PUSH2 0x8FE PUSH2 0x8F7 DUP7 PUSH2 0x8A0 JUMP JUMPDEST DUP3 SWAP1 PUSH2 0x1606 JUMP JUMPDEST SWAP2 POP PUSH2 0x91A JUMP JUMPDEST PUSH2 0x917 PUSH2 0x912 DUP3 DUP8 PUSH2 0x1643 JUMP JUMPDEST PUSH2 0xCFA JUMP JUMPDEST SWAP2 POP JUMPDEST PUSH1 0x5 DUP2 PUSH1 0x60 ADD MLOAD PUSH1 0x5 DUP2 GT ISZERO PUSH2 0x92C JUMPI INVALID JUMPDEST EQ ISZERO PUSH2 0x955 JUMPI PUSH1 0x0 PUSH2 0x941 DUP8 PUSH2 0xFFFF AND PUSH2 0x15F3 JUMP JUMPDEST SWAP1 POP PUSH2 0x951 DUP2 PUSH1 0x0 ADD MLOAD DUP5 PUSH2 0x167B JUMP JUMPDEST SWAP3 POP POP JUMPDEST PUSH2 0x95E DUP3 PUSH2 0xFE9 JUMP JUMPDEST SWAP7 SWAP6 POP POP POP POP POP POP JUMP JUMPDEST PUSH1 0x0 DUP1 PUSH1 0x0 PUSH2 0x976 DUP6 PUSH2 0xCFA JUMP JUMPDEST SWAP1 POP PUSH1 0x1 PUSH1 0x1 PUSH1 0x58 SHL SUB DUP2 GT ISZERO PUSH2 0x98C JUMPI PUSH1 0x0 DUP1 REVERT JUMPDEST PUSH1 0x78 DUP5 PUSH4 0xFFFFFFFF AND SWAP1 SHL PUSH1 0x98 DUP3 SWAP1 SHL PUSH1 0xF0 DUP9 PUSH1 0xFF AND SWAP1 SHL PUSH1 0xF8 DUP11 PUSH1 0x5 DUP2 GT ISZERO PUSH2 0x9B2 JUMPI INVALID JUMPDEST PUSH1 0xFF AND SWAP1 SHL OR OR OR SWAP8 SWAP1 SWAP7 POP SWAP5 POP POP POP POP POP JUMP JUMPDEST PUSH1 0x0 DUP1 PUSH1 0x0 DUP6 GT PUSH2 0x9E9 JUMPI PUSH1 0x40 MLOAD PUSH3 0x461BCD PUSH1 0xE5 SHL DUP2 MSTORE PUSH1 0x4 ADD PUSH2 0x7D8 SWAP1 PUSH2 0x49BB JUMP JUMPDEST PUSH1 0x7 DUP6 GT ISZERO PUSH2 0xA0A JUMPI PUSH1 0x40 MLOAD PUSH3 0x461BCD PUSH1 0xE5 SHL DUP2 MSTORE PUSH1 0x4 ADD PUSH2 0x7D8 SWAP1 PUSH2 0x4A11 JUMP JUMPDEST PUSH1 0x0 PUSH2 0xA15 DUP5 PUSH2 0x1701 JUMP JUMPDEST SWAP1 POP PUSH1 0x1 JUMPDEST DUP7 DUP2 GT PUSH2 0xA6D JUMPI PUSH1 0x0 PUSH2 0xA36 PUSH2 0xA2F DUP4 PUSH2 0x1722 JUMP JUMPDEST DUP5 SWAP1 PUSH2 0x1125 JUMP JUMPDEST SWAP1 POP DUP7 DUP2 EQ ISZERO PUSH2 0xA4E JUMPI POP SWAP3 POP PUSH1 0x0 SWAP2 POP PUSH2 0xA86 SWAP1 POP JUMP JUMPDEST DUP7 DUP2 GT ISZERO PUSH2 0xA64 JUMPI POP SWAP3 POP PUSH1 0x1 SWAP2 POP PUSH2 0xA86 SWAP1 POP JUMP JUMPDEST POP PUSH1 0x1 ADD PUSH2 0xA1A JUMP JUMPDEST POP PUSH1 0x40 MLOAD PUSH3 0x461BCD PUSH1 0xE5 SHL DUP2 MSTORE PUSH1 0x4 ADD PUSH2 0x7D8 SWAP1 PUSH2 0x4AF2 JUMP JUMPDEST SWAP4 POP SWAP4 SWAP2 POP POP JUMP JUMPDEST DUP1 PUSH2 0xFFFF AND PUSH1 0x0 LT DUP1 ISZERO PUSH2 0xAAC JUMPI POP PUSH1 0x0 SLOAD PUSH2 0xFFFF SWAP1 DUP2 AND SWAP1 DUP3 AND GT ISZERO JUMPDEST PUSH2 0xAC8 JUMPI PUSH1 0x40 MLOAD PUSH3 0x461BCD PUSH1 0xE5 SHL DUP2 MSTORE PUSH1 0x4 ADD PUSH2 0x7D8 SWAP1 PUSH2 0x4AC5 JUMP JUMPDEST POP JUMP JUMPDEST PUSH2 0xAD3 PUSH2 0x4567 JUMP JUMPDEST PUSH2 0x3B0 DUP3 PUSH1 0x0 PUSH2 0x17C6 JUMP JUMPDEST PUSH1 0x0 PUSH4 0x5F5E100 DUP4 PUSH1 0x40 ADD MLOAD EQ ISZERO PUSH2 0xAF7 JUMPI POP DUP1 PUSH2 0x3B0 JUMP JUMPDEST PUSH1 0x40 DUP4 ADD MLOAD PUSH2 0x417 SWAP1 PUSH2 0xB0E DUP5 PUSH4 0x5F5E100 PUSH2 0x15A5 JUMP JUMPDEST SWAP1 PUSH2 0x1874 JUMP JUMPDEST PUSH2 0xB1E DUP3 DUP3 PUSH2 0x18A5 JUMP JUMPDEST PUSH2 0xB27 DUP2 PUSH2 0xD1B JUMP JUMPDEST SWAP1 SWAP2 MSTORE POP JUMP JUMPDEST PUSH1 0x0 DUP1 DUP4 SLT ISZERO PUSH2 0xB3C JUMPI PUSH1 0x0 DUP1 REVERT JUMPDEST DUP3 PUSH2 0xB49 JUMPI POP PUSH1 0x0 PUSH2 0x417 JUMP JUMPDEST PUSH1 0x80 DUP5 ADD MLOAD ISZERO PUSH2 0xB81 JUMPI PUSH1 0x0 PUSH2 0xB5E DUP6 PUSH2 0x1948 JUMP JUMPDEST SWAP1 POP DUP3 DUP2 GT PUSH2 0xB7F JUMPI PUSH1 0x40 MLOAD PUSH3 0x461BCD PUSH1 0xE5 SHL DUP2 MSTORE PUSH1 0x4 ADD PUSH2 0x7D8 SWAP1 PUSH2 0x4966 JUMP JUMPDEST POP JUMPDEST PUSH1 0x40 DUP5 ADD MLOAD PUSH2 0xB91 JUMPI POP DUP2 PUSH2 0x417 JUMP JUMPDEST PUSH1 0x0 DUP1 PUSH2 0xB9E DUP7 DUP6 PUSH2 0x1979 JUMP JUMPDEST SWAP2 POP SWAP2 POP PUSH1 0x0 DUP3 SLT ISZERO PUSH2 0xBB0 JUMPI PUSH1 0x0 DUP1 REVERT JUMPDEST PUSH1 0x0 DUP2 SLT ISZERO PUSH2 0xBBE JUMPI PUSH1 0x0 DUP1 REVERT JUMPDEST PUSH1 0xA0 DUP7 ADD MLOAD PUSH1 0x5 BYTE PUSH1 0x0 PUSH2 0xBE4 DUP5 PUSH2 0xB0E PUSH1 0x64 PUSH2 0xBDE PUSH2 0x912 DUP5 DUP10 PUSH2 0x19E2 JUMP JUMPDEST SWAP1 PUSH2 0x15A5 JUMP JUMPDEST SWAP1 POP DUP2 DUP2 SGT ISZERO PUSH2 0xC06 JUMPI PUSH1 0x40 MLOAD PUSH3 0x461BCD PUSH1 0xE5 SHL DUP2 MSTORE PUSH1 0x4 ADD PUSH2 0x7D8 SWAP1 PUSH2 0x4B1F JUMP JUMPDEST PUSH2 0xC21 DUP4 PUSH2 0xB0E DUP11 PUSH1 0x40 ADD MLOAD DUP11 PUSH2 0x15A5 SWAP1 SWAP2 SWAP1 PUSH4 0xFFFFFFFF AND JUMP JUMPDEST SWAP5 POP POP POP POP POP PUSH2 0x417 JUMP JUMPDEST PUSH1 0x0 DUP1 DUP3 SLT ISZERO PUSH2 0x898 JUMPI PUSH1 0x40 DUP1 MLOAD PUSH3 0x461BCD PUSH1 0xE5 SHL DUP2 MSTORE PUSH1 0x20 PUSH1 0x4 DUP3 ADD DUP2 SWAP1 MSTORE PUSH1 0x24 DUP3 ADD MSTORE PUSH32 0x53616665436173743A2076616C7565206D75737420626520706F736974697665 PUSH1 0x44 DUP3 ADD MSTORE SWAP1 MLOAD SWAP1 DUP2 SWAP1 SUB PUSH1 0x64 ADD SWAP1 REVERT JUMPDEST PUSH2 0xC8B PUSH2 0x4596 JUMP JUMPDEST PUSH1 0x0 DUP1 PUSH1 0x0 PUSH2 0xC99 DUP6 PUSH2 0x19F8 JUMP JUMPDEST PUSH1 0x40 DUP1 MLOAD PUSH1 0x60 DUP2 ADD DUP3 MSTORE PUSH1 0x1 PUSH1 0x1 PUSH1 0xA0 SHL SUB SWAP1 SWAP4 AND DUP4 MSTORE PUSH1 0x20 DUP4 ADD SWAP4 SWAP1 SWAP4 MSTORE PUSH1 0xFF AND PUSH1 0xA EXP SWAP2 DUP2 ADD SWAP2 SWAP1 SWAP2 MSTORE SWAP4 POP POP POP POP SWAP2 SWAP1 POP JUMP JUMPDEST PUSH1 0x0 DUP1 PUSH2 0x455 DUP5 PUSH1 0x40 ADD MLOAD PUSH2 0xB0E PUSH5 0x2540BE400 PUSH2 0xB0E DUP8 DUP10 PUSH1 0x20 ADD MLOAD PUSH2 0x15A5 SWAP1 SWAP2 SWAP1 PUSH4 0xFFFFFFFF AND JUMP JUMPDEST PUSH1 0x0 DUP1 DUP3 SLT ISZERO PUSH2 0xD14 JUMPI PUSH2 0xD0D DUP3 PUSH2 0x8A0 JUMP JUMPDEST SWAP1 POP PUSH2 0x89B JUMP JUMPDEST POP DUP1 PUSH2 0x89B JUMP JUMPDEST PUSH2 0xD23 PUSH2 0x45C0 JUMP JUMPDEST PUSH1 0x0 PUSH2 0xD32 DUP4 PUSH2 0xFFFF AND PUSH2 0xC83 JUMP JUMPDEST SWAP1 POP PUSH2 0x417 DUP4 DUP3 PUSH2 0x1AB9 JUMP JUMPDEST PUSH1 0x0 PUSH2 0xD48 PUSH2 0x451F JUMP JUMPDEST PUSH2 0xD56 DUP4 DUP3 DUP8 PUSH1 0x0 DUP9 PUSH2 0x1427 JUMP JUMPDEST DUP4 DUP2 PUSH1 0x20 ADD MLOAD GT PUSH2 0xD79 JUMPI PUSH1 0x40 MLOAD PUSH3 0x461BCD PUSH1 0xE5 SHL DUP2 MSTORE PUSH1 0x4 ADD PUSH2 0x7D8 SWAP1 PUSH2 0x4A99 JUMP JUMPDEST PUSH1 0x20 DUP2 ADD MLOAD DUP5 SWAP1 SUB PUSH1 0x0 DUP1 DUP1 PUSH2 0xD91 DUP6 DUP9 DUP7 DUP13 PUSH2 0x1AFC JUMP JUMPDEST SWAP3 POP SWAP3 POP SWAP3 POP PUSH1 0x0 PUSH2 0xDAB PUSH2 0xDA5 DUP10 PUSH2 0x1B9E JUMP JUMPDEST DUP7 PUSH2 0x1BB3 JUMP JUMPDEST SWAP1 POP PUSH2 0xDC4 DUP7 PUSH1 0x40 ADD MLOAD DUP13 PUSH1 0xA SIGNEXTEND DUP6 DUP8 DUP7 DUP7 PUSH1 0x0 PUSH2 0x1C1E JUMP JUMPDEST SWAP12 SWAP11 POP POP POP POP POP POP POP POP POP POP POP JUMP JUMPDEST PUSH2 0xDDB PUSH2 0x45EC JUMP JUMPDEST PUSH1 0x0 PUSH2 0xDE5 PUSH2 0x1CCE JUMP JUMPDEST PUSH1 0x1 PUSH1 0x1 PUSH1 0xA0 SHL SUB SWAP4 SWAP1 SWAP4 AND PUSH1 0x0 SWAP1 DUP2 MSTORE PUSH1 0x20 SWAP4 DUP5 MSTORE PUSH1 0x40 SWAP1 DUP2 SWAP1 KECCAK256 DUP2 MLOAD PUSH1 0xA0 DUP2 ADD DUP4 MSTORE SWAP1 SLOAD PUSH5 0xFFFFFFFFFF DUP2 AND DUP3 MSTORE PUSH6 0x10000000000 DUP2 DIV PUSH1 0xF8 SHL PUSH1 0x1 PUSH1 0x1 PUSH1 0xF8 SHL SUB NOT AND SWAP6 DUP3 ADD SWAP6 SWAP1 SWAP6 MSTORE PUSH1 0x1 PUSH1 0x30 SHL DUP6 DIV PUSH1 0xFF AND SWAP2 DUP2 ADD SWAP2 SWAP1 SWAP2 MSTORE PUSH1 0x1 PUSH1 0x38 SHL DUP5 DIV PUSH2 0xFFFF AND PUSH1 0x60 DUP3 ADD MSTORE PUSH10 0x1000000000000000000 SWAP1 SWAP4 DIV PUSH1 0x70 SHL PUSH1 0x1 PUSH1 0x1 PUSH1 0x70 SHL SUB NOT AND PUSH1 0x80 DUP5 ADD MSTORE POP SWAP1 SWAP2 SWAP1 POP JUMP JUMPDEST PUSH1 0x60 ADD MLOAD PUSH2 0xFFFF AND ISZERO ISZERO SWAP1 JUMP JUMPDEST DUP2 PUSH2 0xFFFF AND PUSH1 0x0 LT DUP1 ISZERO PUSH2 0xEA1 JUMPI POP PUSH2 0x3FFF PUSH2 0xFFFF DUP4 AND GT ISZERO JUMPDEST PUSH2 0xEAA JUMPI PUSH1 0x0 DUP1 REVERT JUMPDEST PUSH2 0xFFFF DUP3 AND DUP1 DUP6 MSTORE PUSH2 0xEBD SWAP1 DUP3 SWAP1 PUSH2 0x1CDB JUMP JUMPDEST ISZERO PUSH2 0xEEA JUMPI PUSH2 0xED0 DUP4 DUP4 PUSH2 0xFFFF AND PUSH2 0x1D65 JUMP JUMPDEST PUSH2 0x100 DUP9 ADD MSTORE PUSH1 0xE0 DUP8 ADD MSTORE PUSH1 0x40 DUP7 ADD MSTORE PUSH1 0x20 DUP6 ADD MSTORE PUSH2 0xF08 JUMP JUMPDEST PUSH1 0x0 PUSH1 0x20 DUP6 ADD DUP2 SWAP1 MSTORE PUSH1 0x40 DUP6 ADD DUP2 SWAP1 MSTORE PUSH1 0xE0 DUP6 ADD DUP2 SWAP1 MSTORE PUSH2 0x100 DUP6 ADD MSTORE JUMPDEST POP POP PUSH1 0x0 PUSH1 0x60 DUP4 ADD DUP2 SWAP1 MSTORE PUSH1 0x80 DUP4 ADD DUP2 SWAP1 MSTORE PUSH1 0xA0 DUP4 ADD DUP2 SWAP1 MSTORE PUSH1 0xC0 SWAP1 SWAP3 ADD SWAP2 SWAP1 SWAP2 MSTORE POP JUMP JUMPDEST PUSH1 0x0 DUP1 PUSH2 0xF38 PUSH2 0x1E11 JUMP JUMPDEST PUSH1 0x0 SWAP4 DUP5 MSTORE PUSH1 0x20 MSTORE POP POP PUSH1 0x40 SWAP1 KECCAK256 SLOAD PUSH1 0x1 PUSH1 0x1 PUSH1 0xA0 SHL SUB AND SWAP1 JUMP JUMPDEST PUSH1 0x0 DUP1 PUSH1 0x0 PUSH2 0xF61 DUP6 PUSH2 0x1E1E JUMP JUMPDEST SWAP2 SWAP5 POP SWAP3 POP SWAP1 POP DUP1 DUP5 GT DUP1 ISZERO PUSH2 0xF77 JUMPI POP PUSH1 0x0 DUP2 GT JUMPDEST DUP1 ISZERO PUSH2 0xF83 JUMPI POP PUSH1 0x0 DUP4 GT JUMPDEST ISZERO PUSH2 0xFE2 JUMPI PUSH1 0x0 PUSH2 0xF93 DUP7 PUSH2 0x1E7F JUMP JUMPDEST POP POP POP SWAP2 POP POP PUSH1 0x0 PUSH2 0xFBE PUSH2 0xFB5 PUSH4 0x5F5E100 DUP5 PUSH2 0x1EE8 SWAP1 SWAP2 SWAP1 PUSH4 0xFFFFFFFF AND JUMP JUMPDEST DUP5 DUP9 SUB DUP8 PUSH2 0x1F41 JUMP JUMPDEST SWAP1 POP PUSH2 0xFCA DUP5 DUP3 PUSH2 0x1125 JUMP JUMPDEST SWAP4 POP PUSH1 0x1 PUSH1 0x1 PUSH1 0x80 SHL SUB DUP5 LT PUSH2 0xFDF JUMPI PUSH1 0x0 DUP1 REVERT JUMPDEST POP POP JUMPDEST SWAP3 POP SWAP3 POP SWAP3 JUMP JUMPDEST PUSH1 0x0 DUP1 DUP3 SLT ISZERO PUSH2 0x898 JUMPI PUSH1 0x0 DUP1 REVERT JUMPDEST PUSH1 0xE0 DUP5 ADD MLOAD PUSH1 0x0 SWAP1 ISZERO PUSH2 0x10B9 JUMPI PUSH20 0x0 PUSH4 0xE0C01A72 DUP6 PUSH2 0x102D DUP9 PUSH1 0x40 ADD MLOAD PUSH2 0xFE9 JUMP JUMPDEST DUP9 PUSH1 0xE0 ADD MLOAD DUP10 PUSH2 0x100 ADD MLOAD PUSH1 0x40 MLOAD DUP6 PUSH4 0xFFFFFFFF AND PUSH1 0xE0 SHL DUP2 MSTORE PUSH1 0x4 ADD PUSH2 0x1057 SWAP5 SWAP4 SWAP3 SWAP2 SWAP1 PUSH2 0x48F9 JUMP JUMPDEST PUSH1 0x20 PUSH1 0x40 MLOAD DUP1 DUP4 SUB DUP2 DUP7 DUP1 EXTCODESIZE ISZERO DUP1 ISZERO PUSH2 0x106F JUMPI PUSH1 0x0 DUP1 REVERT JUMPDEST POP GAS DELEGATECALL ISZERO DUP1 ISZERO PUSH2 0x1083 JUMPI RETURNDATASIZE PUSH1 0x0 DUP1 RETURNDATACOPY RETURNDATASIZE PUSH1 0x0 REVERT JUMPDEST POP POP POP POP PUSH1 0x40 MLOAD RETURNDATASIZE PUSH1 0x1F NOT PUSH1 0x1F DUP3 ADD AND DUP3 ADD DUP1 PUSH1 0x40 MSTORE POP DUP2 ADD SWAP1 PUSH2 0x10A7 SWAP2 SWAP1 PUSH2 0x46EE JUMP JUMPDEST PUSH1 0x0 PUSH1 0xE0 DUP8 ADD DUP2 SWAP1 MSTORE PUSH2 0x100 DUP8 ADD MSTORE SWAP1 POP JUMPDEST PUSH2 0x10FB PUSH2 0x10F4 DUP7 PUSH2 0x100 ADD MLOAD PUSH2 0x10EE PUSH8 0xDE0B6B3A7640000 PUSH2 0x10E8 DUP9 PUSH2 0x10E2 DUP13 PUSH1 0x40 ADD MLOAD PUSH2 0xFE9 JUMP JUMPDEST SWAP1 PUSH2 0x1EE8 JUMP JUMPDEST SWAP1 PUSH2 0x1F63 JUMP JUMPDEST SWAP1 PUSH2 0x1FCA JUMP JUMPDEST DUP3 SWAP1 PUSH2 0x1125 JUMP JUMPDEST SWAP1 POP PUSH2 0x1113 PUSH8 0xDE0B6B3A7640000 PUSH2 0x10E8 DUP5 DUP7 PUSH2 0x1EE8 JUMP JUMPDEST DUP6 PUSH2 0x100 ADD DUP2 DUP2 MSTORE POP POP SWAP5 SWAP4 POP POP POP POP JUMP JUMPDEST PUSH1 0x0 DUP3 DUP3 ADD DUP4 DUP2 LT ISZERO PUSH2 0x417 JUMPI PUSH1 0x40 DUP1 MLOAD PUSH3 0x461BCD PUSH1 0xE5 SHL DUP2 MSTORE PUSH1 0x20 PUSH1 0x4 DUP3 ADD MSTORE PUSH1 0x1B PUSH1 0x24 DUP3 ADD MSTORE PUSH32 0x536166654D6174683A206164646974696F6E206F766572666C6F770000000000 PUSH1 0x44 DUP3 ADD MSTORE SWAP1 MLOAD SWAP1 DUP2 SWAP1 SUB PUSH1 0x64 ADD SWAP1 REVERT JUMPDEST PUSH1 0x0 PUSH2 0x1189 PUSH2 0x45C0 JUMP JUMPDEST PUSH1 0x0 PUSH2 0x1194 DUP6 PUSH2 0x882 JUMP JUMPDEST SWAP1 POP PUSH2 0x119F DUP7 PUSH2 0xD1B JUMP JUMPDEST SWAP2 POP PUSH1 0x0 DUP5 PUSH2 0x11BA JUMPI PUSH2 0x11B5 DUP8 PUSH2 0xFFFF AND PUSH2 0xACB JUMP JUMPDEST PUSH2 0x11C7 JUMP JUMPDEST PUSH2 0x11C7 DUP8 PUSH2 0xFFFF AND PUSH2 0x15F3 JUMP JUMPDEST SWAP1 POP PUSH1 0x5 DUP2 PUSH1 0x60 ADD MLOAD PUSH1 0x5 DUP2 GT ISZERO PUSH2 0x11DB JUMPI INVALID JUMPDEST EQ ISZERO PUSH2 0x11F2 JUMPI PUSH2 0x11EF DUP8 PUSH2 0xFFFF AND DUP4 PUSH2 0x2027 JUMP JUMPDEST SWAP2 POP JUMPDEST PUSH2 0x11FC DUP2 DUP4 PUSH2 0xADE JUMP JUMPDEST SWAP4 POP DUP5 PUSH2 0x1215 JUMPI PUSH1 0x40 DUP4 ADD MLOAD PUSH2 0x1212 SWAP1 DUP6 PUSH2 0xCCF JUMP JUMPDEST SWAP4 POP JUMPDEST POP POP SWAP4 POP SWAP4 SWAP2 POP POP JUMP JUMPDEST PUSH1 0x0 PUSH11 0x7FFFFFFFFFFFFFFFFFFFFF NOT DUP3 SLT DUP1 ISZERO SWAP1 PUSH2 0x1248 JUMPI POP PUSH11 0x7FFFFFFFFFFFFFFFFFFFFF DUP3 SGT ISZERO JUMPDEST PUSH2 0x898 JUMPI PUSH1 0x0 DUP1 REVERT JUMPDEST PUSH1 0x0 DUP1 PUSH1 0x0 PUSH2 0x1265 DUP7 PUSH1 0x20 ADD MLOAD DUP7 DUP7 PUSH2 0x9C6 JUMP JUMPDEST SWAP2 POP SWAP2 POP PUSH1 0x0 PUSH2 0x1274 DUP8 PUSH2 0x20AE JUMP JUMPDEST SWAP1 POP DUP2 PUSH2 0x1297 JUMPI DUP7 MLOAD PUSH2 0x128D SWAP1 PUSH2 0xFFFF AND DUP8 DUP4 DUP9 PUSH2 0x20C2 JUMP JUMPDEST SWAP4 POP POP POP POP PUSH2 0x417 JUMP JUMPDEST PUSH1 0x0 PUSH2 0x12A2 DUP7 PUSH2 0x1701 JUMP JUMPDEST SWAP1 POP PUSH1 0x0 PUSH2 0x12B9 PUSH2 0x12B2 DUP7 PUSH2 0x1722 JUMP JUMPDEST DUP4 SWAP1 PUSH2 0x1125 JUMP JUMPDEST SWAP1 POP PUSH1 0x0 PUSH2 0x12D1 DUP11 PUSH1 0x0 ADD MLOAD PUSH2 0xFFFF AND DUP4 DUP7 DUP12 PUSH2 0x20C2 JUMP JUMPDEST SWAP1 POP PUSH1 0x0 DUP1 DUP8 PUSH1 0x1 EQ ISZERO PUSH2 0x12F6 JUMPI DUP10 SWAP2 POP PUSH2 0x12EF DUP13 PUSH1 0x40 ADD MLOAD PUSH2 0x2152 JUMP JUMPDEST SWAP1 POP PUSH2 0x1325 JUMP JUMPDEST PUSH2 0x130C PUSH2 0x1305 PUSH1 0x1 DUP11 SUB PUSH2 0x1722 JUMP JUMPDEST DUP7 SWAP1 PUSH2 0x1125 JUMP JUMPDEST SWAP2 POP PUSH2 0x1322 DUP13 PUSH1 0x0 ADD MLOAD PUSH2 0xFFFF AND DUP4 DUP9 DUP14 PUSH2 0x20C2 JUMP JUMPDEST SWAP1 POP JUMPDEST PUSH2 0x1332 DUP3 DUP6 DUP4 DUP7 DUP16 PUSH2 0x21E3 JUMP JUMPDEST SWAP9 POP POP POP POP POP POP POP POP POP PUSH2 0x417 JUMP JUMPDEST PUSH1 0x0 DUP5 PUSH2 0x1350 JUMPI POP PUSH1 0x0 PUSH2 0x343 JUMP JUMPDEST PUSH1 0x0 PUSH2 0x135C DUP6 DUP6 PUSH2 0x1FCA JUMP JUMPDEST SWAP1 POP PUSH1 0x0 DUP1 DUP8 SGT ISZERO PUSH2 0x138B JUMPI PUSH2 0x1384 DUP3 PUSH2 0x137F PUSH2 0x1378 DUP12 PUSH2 0x2241 JUMP JUMPDEST DUP8 SWAP1 PUSH2 0x1125 JUMP JUMPDEST PUSH2 0x2256 JUMP JUMPDEST SWAP1 POP PUSH2 0x13BA JUMP JUMPDEST PUSH1 0x0 PUSH2 0x1396 DUP10 PUSH2 0x22BE JUMP JUMPDEST SWAP1 POP DUP5 DUP2 LT PUSH2 0x13AA JUMPI DUP8 SWAP4 POP POP POP POP PUSH2 0x343 JUMP JUMPDEST PUSH2 0x13B6 DUP4 DUP3 DUP8 SUB PUSH2 0x2256 JUMP JUMPDEST SWAP2 POP POP JUMPDEST PUSH4 0x3B9ACA00 DUP2 SGT ISZERO PUSH2 0x13CB JUMPI PUSH1 0x0 DUP1 REVERT JUMPDEST PUSH2 0x13D5 DUP8 DUP3 PUSH2 0x22D3 JUMP JUMPDEST SWAP9 SWAP8 POP POP POP POP POP POP POP POP JUMP JUMPDEST PUSH1 0x0 DUP5 PUSH2 0x13F0 JUMPI POP PUSH1 0x0 PUSH2 0x455 JUMP JUMPDEST PUSH1 0x0 PUSH2 0x13FC DUP6 DUP6 PUSH2 0x1FCA JUMP JUMPDEST SWAP1 POP PUSH1 0x0 PUSH2 0x140A DUP3 DUP6 PUSH2 0x2256 JUMP JUMPDEST SWAP1 POP PUSH4 0x3B9ACA00 DUP2 SGT ISZERO PUSH2 0x141D JUMPI PUSH1 0x0 DUP1 REVERT JUMPDEST PUSH2 0x716 DUP8 DUP3 PUSH2 0x22D3 JUMP JUMPDEST DUP3 PUSH1 0x1 GT ISZERO DUP1 ISZERO PUSH2 0x143C JUMPI POP DUP5 PUSH1 0x20 ADD MLOAD DUP4 GT ISZERO JUMPDEST PUSH2 0x1458 JUMPI PUSH1 0x40 MLOAD PUSH3 0x461BCD PUSH1 0xE5 SHL DUP2 MSTORE PUSH1 0x4 ADD PUSH2 0x7D8 SWAP1 PUSH2 0x4A41 JUMP JUMPDEST PUSH1 0x0 PUSH2 0x1475 PUSH2 0x1466 DUP6 PUSH2 0x1722 JUMP JUMPDEST PUSH2 0x146F DUP5 PUSH2 0x1701 JUMP JUMPDEST SWAP1 PUSH2 0x1125 JUMP JUMPDEST SWAP1 POP PUSH2 0x149A DUP7 PUSH1 0x0 ADD MLOAD PUSH2 0xFFFF AND DUP3 DUP5 DUP7 PUSH2 0x148F DUP12 PUSH2 0x20AE JUMP JUMPDEST DUP11 SWAP5 SWAP4 SWAP3 SWAP2 SWAP1 PUSH2 0x22EC JUMP JUMPDEST POP POP POP POP POP POP JUMP JUMPDEST PUSH1 0x0 DUP1 DUP5 DUP8 PUSH1 0x40 ADD MLOAD SGT PUSH2 0x14BB JUMPI POP PUSH1 0x0 SWAP1 POP DUP1 PUSH2 0x878 JUMP JUMPDEST PUSH1 0x0 DUP1 PUSH1 0x0 PUSH2 0x14CC DUP11 DUP11 DUP10 DUP10 PUSH2 0x1AFC JUMP JUMPDEST SWAP3 POP SWAP3 POP SWAP3 POP PUSH1 0x0 DUP1 PUSH2 0x14E6 DUP13 PUSH1 0x40 ADD MLOAD DUP6 DUP8 DUP7 DUP15 PUSH2 0x2316 JUMP JUMPDEST SWAP1 SWAP3 POP SWAP1 POP DUP1 PUSH2 0x1501 JUMPI PUSH1 0x0 DUP1 SWAP7 POP SWAP7 POP POP POP POP POP POP PUSH2 0x878 JUMP JUMPDEST POP PUSH1 0x0 DUP1 PUSH1 0x0 PUSH2 0x1513 DUP14 DUP6 DUP15 DUP15 PUSH2 0x23BC JUMP JUMPDEST SWAP3 POP SWAP3 POP SWAP3 POP DUP3 PUSH1 0x0 EQ ISZERO PUSH2 0x1535 JUMPI PUSH1 0x0 DUP1 SWAP9 POP SWAP9 POP POP POP POP POP POP POP POP PUSH2 0x878 JUMP JUMPDEST PUSH1 0x40 DUP15 ADD MLOAD PUSH2 0x1544 SWAP1 DUP14 PUSH2 0x24A7 JUMP JUMPDEST PUSH1 0x40 DUP16 ADD DUP2 SWAP1 MSTORE PUSH2 0x1561 SWAP1 PUSH2 0x1559 DUP9 DUP6 PUSH2 0x24C3 JUMP JUMPDEST DUP10 DUP9 DUP16 PUSH2 0x24D9 JUMP JUMPDEST PUSH1 0xA0 DUP16 ADD DUP2 SWAP1 MSTORE PUSH2 0x157F JUMPI PUSH1 0x0 DUP1 SWAP9 POP SWAP9 POP POP POP POP POP POP POP POP PUSH2 0x878 JUMP JUMPDEST PUSH2 0x1590 DUP15 DUP15 PUSH1 0x40 ADD MLOAD DUP6 DUP6 DUP6 PUSH2 0x2596 JUMP JUMPDEST SWAP9 POP SWAP9 POP POP POP POP POP POP POP POP SWAP6 POP SWAP6 SWAP4 POP POP POP POP JUMP JUMPDEST DUP2 DUP2 MUL PUSH1 0x0 NOT DUP4 EQ ISZERO PUSH2 0x15D5 JUMPI DUP2 ISZERO DUP1 PUSH2 0x15C7 JUMPI POP DUP3 DUP3 DUP3 DUP2 PUSH2 0x15C4 JUMPI INVALID JUMPDEST SDIV EQ JUMPDEST PUSH2 0x15D0 JUMPI PUSH1 0x0 DUP1 REVERT JUMPDEST PUSH2 0x3B0 JUMP JUMPDEST DUP3 ISZERO DUP1 PUSH2 0x15EA JUMPI POP DUP2 DUP4 DUP3 DUP2 PUSH2 0x15E7 JUMPI INVALID JUMPDEST SDIV EQ JUMPDEST PUSH2 0x3B0 JUMPI PUSH1 0x0 DUP1 REVERT JUMPDEST PUSH2 0x15FB PUSH2 0x4567 JUMP JUMPDEST PUSH2 0x3B0 DUP3 PUSH1 0x1 PUSH2 0x17C6 JUMP JUMPDEST PUSH1 0x0 PUSH4 0x5F5E100 DUP4 PUSH1 0x40 ADD MLOAD SLT ISZERO PUSH2 0x1634 JUMPI PUSH2 0x162D PUSH1 0x1 PUSH2 0x1627 DUP6 DUP6 PUSH2 0x1643 JUMP JUMPDEST SWAP1 PUSH2 0x24C3 JUMP JUMPDEST SWAP1 POP PUSH2 0x3B0 JUMP JUMPDEST PUSH2 0x417 DUP4 PUSH2 0x1643 DUP5 PUSH1 0x1 PUSH2 0x24C3 JUMP JUMPDEST PUSH1 0x0 PUSH4 0x5F5E100 DUP4 PUSH1 0x40 ADD MLOAD EQ ISZERO PUSH2 0x165C JUMPI POP DUP1 PUSH2 0x3B0 JUMP JUMPDEST PUSH2 0x417 PUSH4 0x5F5E100 PUSH2 0xB0E DUP6 PUSH1 0x40 ADD MLOAD DUP6 PUSH2 0x15A5 SWAP1 SWAP2 SWAP1 PUSH4 0xFFFFFFFF AND JUMP JUMPDEST PUSH1 0x0 DUP2 PUSH2 0x168A JUMPI POP PUSH1 0x0 PUSH2 0x3B0 JUMP JUMPDEST PUSH1 0x0 PUSH2 0x1695 DUP5 PUSH2 0x25EB JUMP JUMPDEST SWAP1 POP PUSH1 0x0 PUSH2 0x16A2 DUP5 PUSH2 0xCFA JUMP JUMPDEST SWAP1 POP DUP2 PUSH12 0x19D971E4FE8401E74000001 PUSH1 0x1 PUSH1 0xFF SHL SUB DUP2 PUSH2 0x16BF JUMPI INVALID JUMPDEST SDIV DUP2 SGT ISZERO PUSH2 0x16CC JUMPI PUSH1 0x0 DUP1 REVERT JUMPDEST PUSH12 0x33B2E3C9FD0803CE8000000 PUSH12 0x19D971E4FE8401E74000000 DUP4 DUP4 MUL ADD SDIV PUSH1 0x0 DUP6 SGT PUSH2 0x343 JUMPI PUSH2 0x16FC DUP2 PUSH2 0x8A0 JUMP JUMPDEST PUSH2 0x95E JUMP JUMPDEST PUSH1 0x0 PUSH3 0x76A700 DUP3 LT ISZERO PUSH2 0x1713 JUMPI PUSH1 0x0 DUP1 REVERT JUMPDEST PUSH3 0x76A700 DUP3 JUMPDEST MOD SWAP1 SWAP2 SUB SWAP2 SWAP1 POP JUMP JUMPDEST PUSH1 0x0 DUP2 PUSH1 0x1 EQ ISZERO PUSH2 0x1737 JUMPI POP PUSH3 0x76A700 PUSH2 0x89B JUMP JUMPDEST DUP2 PUSH1 0x2 EQ ISZERO PUSH2 0x174A JUMPI POP PUSH3 0xED4E00 PUSH2 0x89B JUMP JUMPDEST DUP2 PUSH1 0x3 EQ ISZERO PUSH2 0x175E JUMPI POP PUSH4 0x1DA9C00 PUSH2 0x89B JUMP JUMPDEST DUP2 PUSH1 0x4 EQ ISZERO PUSH2 0x1772 JUMPI POP PUSH4 0x3B53800 PUSH2 0x89B JUMP JUMPDEST DUP2 PUSH1 0x5 EQ ISZERO PUSH2 0x1786 JUMPI POP PUSH4 0x9450C00 PUSH2 0x89B JUMP JUMPDEST DUP2 PUSH1 0x6 EQ ISZERO PUSH2 0x179A JUMPI POP PUSH4 0x128A1800 PUSH2 0x89B JUMP JUMPDEST DUP2 PUSH1 0x7 EQ ISZERO PUSH2 0x17AE JUMPI POP PUSH4 0x25143000 PUSH2 0x89B JUMP JUMPDEST PUSH1 0x40 MLOAD PUSH3 0x461BCD PUSH1 0xE5 SHL DUP2 MSTORE PUSH1 0x4 ADD PUSH2 0x7D8 SWAP1 PUSH2 0x49EA JUMP JUMPDEST PUSH2 0x17CE PUSH2 0x4567 JUMP JUMPDEST PUSH1 0x0 PUSH2 0x17D8 PUSH2 0x2676 JUMP JUMPDEST PUSH1 0x0 DUP6 DUP2 MSTORE PUSH1 0x20 DUP3 DUP2 MSTORE PUSH1 0x40 DUP1 DUP4 KECCAK256 DUP8 ISZERO ISZERO DUP5 MSTORE DUP3 MSTORE SWAP2 DUP3 SWAP1 KECCAK256 DUP3 MLOAD PUSH1 0xA0 DUP2 ADD DUP5 MSTORE DUP2 SLOAD PUSH1 0x1 PUSH1 0x1 PUSH1 0xA0 SHL SUB DUP2 AND DUP3 MSTORE PUSH1 0xFF PUSH1 0x1 PUSH1 0xA0 SHL DUP3 DIV DUP2 AND ISZERO ISZERO SWAP5 DUP4 ADD SWAP5 SWAP1 SWAP5 MSTORE PUSH1 0x1 PUSH1 0xB0 SHL DUP2 DIV DUP5 AND PUSH1 0xA EXP SWAP5 DUP3 ADD SWAP5 SWAP1 SWAP5 MSTORE SWAP4 SWAP5 POP SWAP3 SWAP2 PUSH1 0x60 DUP4 ADD SWAP2 PUSH1 0x1 PUSH1 0xA8 SHL SWAP1 SWAP2 DIV AND PUSH1 0x5 DUP2 GT ISZERO PUSH2 0x184D JUMPI INVALID JUMPDEST DUP2 MSTORE SWAP2 SLOAD PUSH1 0x1 PUSH1 0xB8 SHL SWAP1 DIV PUSH9 0xFFFFFFFFFFFFFFFFFF AND PUSH1 0x20 SWAP1 SWAP3 ADD SWAP2 SWAP1 SWAP2 MSTORE SWAP5 SWAP4 POP POP POP POP JUMP JUMPDEST PUSH1 0x0 DUP2 PUSH1 0x0 NOT EQ DUP1 ISZERO PUSH2 0x188A JUMPI POP PUSH1 0x1 PUSH1 0xFF SHL DUP4 EQ JUMPDEST ISZERO PUSH2 0x1894 JUMPI PUSH1 0x0 DUP1 REVERT JUMPDEST DUP2 DUP4 DUP2 PUSH2 0x189D JUMPI INVALID JUMPDEST SDIV SWAP4 SWAP3 POP POP POP JUMP JUMPDEST PUSH2 0x18B2 DUP2 PUSH2 0xFFFF AND PUSH2 0xF2D JUMP JUMPDEST PUSH1 0x1 PUSH1 0x1 PUSH1 0xA0 SHL SUB AND PUSH1 0xC0 DUP4 ADD DUP2 SWAP1 MSTORE PUSH1 0x0 SWAP1 DUP2 SWAP1 DUP2 SWAP1 PUSH2 0x18D2 SWAP1 PUSH2 0x1E7F JUMP JUMPDEST SWAP5 POP SWAP5 POP SWAP5 POP POP POP PUSH1 0x0 PUSH2 0x18E9 DUP7 PUSH1 0xC0 ADD MLOAD PUSH2 0x1E1E JUMP JUMPDEST POP POP PUSH1 0x80 DUP8 ADD DUP6 SWAP1 MSTORE PUSH1 0x40 DUP8 ADD DUP2 SWAP1 MSTORE PUSH1 0x1 PUSH1 0x1 PUSH1 0xD0 SHL SUB NOT DUP4 AND PUSH1 0xA0 DUP9 ADD MSTORE PUSH1 0xC0 DUP8 ADD MLOAD SWAP1 SWAP2 POP PUSH2 0x191D SWAP1 DUP5 PUSH1 0x0 PUSH2 0x2683 JUMP JUMPDEST PUSH1 0x20 DUP8 ADD MSTORE PUSH1 0xC0 DUP7 ADD MLOAD PUSH2 0x1935 SWAP1 PUSH2 0xFFFF DUP8 AND PUSH2 0x1D65 JUMP JUMPDEST POP POP POP PUSH1 0x60 SWAP1 SWAP7 ADD SWAP6 SWAP1 SWAP6 MSTORE POP POP POP POP POP JUMP JUMPDEST PUSH1 0x0 DUP2 PUSH1 0x80 ADD MLOAD PUSH1 0x0 EQ ISZERO PUSH2 0x195F JUMPI POP PUSH1 0x0 PUSH2 0x89B JUMP JUMPDEST PUSH1 0x80 DUP3 ADD MLOAD PUSH3 0x76A700 SWAP1 PUSH2 0x1972 SWAP1 PUSH2 0x1701 JUMP JUMPDEST ADD SWAP3 SWAP2 POP POP JUMP JUMPDEST PUSH1 0x0 DUP1 PUSH1 0x0 PUSH2 0x198A DUP6 DUP6 PUSH1 0x1 PUSH2 0x2716 JUMP JUMPDEST POP SWAP1 POP PUSH1 0x0 PUSH2 0x199B DUP7 DUP7 PUSH1 0x0 PUSH2 0x2716 JUMP JUMPDEST POP SWAP1 POP PUSH1 0x0 PUSH2 0x19AA DUP8 DUP8 PUSH2 0x2879 JUMP JUMPDEST PUSH1 0x60 DUP9 ADD MLOAD SWAP1 SWAP2 POP PUSH2 0x19C0 SWAP1 PUSH2 0x1627 DUP6 DUP5 PUSH2 0x24C3 JUMP JUMPDEST PUSH1 0x60 DUP9 ADD MLOAD SWAP1 SWAP6 POP PUSH2 0x19D6 SWAP1 PUSH2 0x1627 DUP5 DUP5 PUSH2 0x24C3 JUMP JUMPDEST SWAP4 POP POP POP POP SWAP3 POP SWAP3 SWAP1 POP JUMP JUMPDEST DUP1 DUP3 SUB DUP3 DUP2 SGT ISZERO PUSH1 0x0 DUP4 SLT ISZERO EQ PUSH2 0x3B0 JUMPI PUSH1 0x0 DUP1 REVERT JUMPDEST PUSH1 0x0 DUP1 PUSH1 0x0 DUP1 PUSH1 0x0 PUSH2 0x1A09 DUP7 PUSH2 0x28FE JUMP JUMPDEST SWAP1 SWAP3 POP SWAP1 POP PUSH1 0x0 PUSH1 0x1 PUSH1 0x1 PUSH1 0xA0 SHL SUB DUP4 AND PUSH2 0x1A2E JUMPI POP PUSH1 0x0 SWAP1 POP PUSH5 0x2540BE400 PUSH2 0x1AAE JUMP JUMPDEST DUP3 PUSH1 0x1 PUSH1 0x1 PUSH1 0xA0 SHL SUB AND PUSH4 0xB2FFFB04 PUSH1 0x40 MLOAD DUP2 PUSH4 0xFFFFFFFF AND PUSH1 0xE0 SHL DUP2 MSTORE PUSH1 0x4 ADD PUSH1 0x20 PUSH1 0x40 MLOAD DUP1 DUP4 SUB DUP2 DUP7 DUP1 EXTCODESIZE ISZERO DUP1 ISZERO PUSH2 0x1A67 JUMPI PUSH1 0x0 DUP1 REVERT JUMPDEST POP GAS STATICCALL ISZERO DUP1 ISZERO PUSH2 0x1A7B JUMPI RETURNDATASIZE PUSH1 0x0 DUP1 RETURNDATACOPY RETURNDATASIZE PUSH1 0x0 REVERT JUMPDEST POP POP POP POP PUSH1 0x40 MLOAD RETURNDATASIZE PUSH1 0x1F NOT PUSH1 0x1F DUP3 ADD AND DUP3 ADD DUP1 PUSH1 0x40 MSTORE POP DUP2 ADD SWAP1 PUSH2 0x1A9F SWAP2 SWAP1 PUSH2 0x46EE JUMP JUMPDEST SWAP1 POP PUSH1 0x0 DUP2 SGT PUSH2 0x1AAE JUMPI PUSH1 0x0 DUP1 REVERT JUMPDEST SWAP7 SWAP2 SWAP6 POP SWAP4 POP SWAP2 POP POP JUMP JUMPDEST PUSH2 0x1AC1 PUSH2 0x45C0 JUMP JUMPDEST PUSH1 0x0 PUSH2 0x1AD0 DUP5 PUSH2 0xFFFF AND PUSH2 0x2935 JUMP JUMPDEST PUSH1 0x40 DUP1 MLOAD PUSH1 0x80 DUP2 ADD DUP3 MSTORE PUSH2 0xFFFF SWAP7 SWAP1 SWAP7 AND DUP7 MSTORE PUSH1 0xFF DUP3 AND PUSH1 0x20 DUP8 ADD MSTORE DUP6 ADD SWAP4 SWAP1 SWAP4 MSTORE POP POP PUSH1 0x60 DUP3 ADD MSTORE SWAP1 JUMP JUMPDEST PUSH1 0x0 DUP1 DUP1 DUP1 PUSH2 0x1B0C DUP8 DUP7 DUP9 PUSH2 0x2952 JUMP JUMPDEST SWAP1 POP PUSH1 0x0 PUSH2 0x1B2B DUP10 PUSH1 0x60 ADD MLOAD DUP10 PUSH1 0x40 ADD MLOAD PUSH2 0xCCF SWAP1 SWAP2 SWAP1 PUSH4 0xFFFFFFFF AND JUMP JUMPDEST SWAP1 POP DUP9 PUSH1 0x40 ADD MLOAD PUSH1 0x0 EQ DUP1 PUSH2 0x1B3E JUMPI POP DUP1 ISZERO JUMPDEST ISZERO PUSH2 0x1B55 JUMPI PUSH1 0x0 DUP1 PUSH1 0x0 SWAP5 POP SWAP5 POP SWAP5 POP POP POP PUSH2 0x1B94 JUMP JUMPDEST PUSH1 0x0 DUP1 PUSH2 0x1B6D DUP12 PUSH1 0x40 ADD MLOAD DUP13 PUSH1 0xA0 ADD MLOAD DUP6 DUP8 DUP14 PUSH2 0x29BA JUMP JUMPDEST SWAP1 SWAP3 POP SWAP1 POP DUP1 PUSH2 0x1B8B JUMPI PUSH1 0x0 DUP1 PUSH1 0x0 SWAP7 POP SWAP7 POP SWAP7 POP POP POP POP POP PUSH2 0x1B94 JUMP JUMPDEST POP SWAP2 SWAP5 POP SWAP3 POP SWAP1 POP JUMPDEST SWAP5 POP SWAP5 POP SWAP5 SWAP2 POP POP JUMP JUMPDEST PUSH1 0x60 ADD MLOAD PUSH3 0x186A0 PUSH1 0x10 SWAP2 SWAP1 SWAP2 SHR PUSH1 0xFF AND MUL SWAP1 JUMP JUMPDEST PUSH1 0x0 DUP1 PUSH2 0x1BD0 PUSH2 0x1BCB PUSH4 0x1DA9C00 PUSH2 0x10E8 DUP8 DUP8 PUSH2 0x1EE8 JUMP JUMPDEST PUSH2 0x2A4A JUMP JUMPDEST SWAP1 POP PUSH1 0x0 PUSH2 0x1BE4 DUP3 PUSH3 0x1DCD65 PUSH1 0x49 SHL PUSH2 0x2A68 JUMP JUMPDEST SWAP1 POP PUSH1 0x0 PUSH2 0x1BF1 DUP3 PUSH2 0x2ABB JUMP JUMPDEST SWAP1 POP PUSH1 0x0 PUSH2 0x1C05 DUP3 PUSH3 0x1DCD65 PUSH1 0x49 SHL PUSH2 0x2B10 JUMP JUMPDEST SWAP1 POP PUSH2 0x1C10 DUP2 PUSH2 0x2B46 JUMP JUMPDEST PUSH1 0x7 SIGNEXTEND SWAP8 SWAP7 POP POP POP POP POP POP POP JUMP JUMPDEST PUSH1 0x0 DUP1 DUP3 SLT ISZERO PUSH2 0x1C2D JUMPI PUSH1 0x0 DUP1 REVERT JUMPDEST PUSH1 0x0 PUSH2 0x1C3C PUSH2 0x2BC DUP10 DUP8 PUSH2 0x22D3 JUMP JUMPDEST SWAP1 POP PUSH1 0x0 JUMPDEST PUSH1 0xFA DUP2 PUSH1 0xFF AND LT ISZERO PUSH2 0x1CB5 JUMPI PUSH1 0x0 DUP1 PUSH2 0x1C5D DUP13 DUP12 DUP12 DUP12 DUP9 PUSH2 0x2316 JUMP JUMPDEST SWAP2 POP SWAP2 POP DUP1 PUSH2 0x1C6B JUMPI PUSH1 0x0 DUP1 REVERT JUMPDEST PUSH1 0x0 PUSH2 0x1C7C DUP13 DUP15 DUP14 DUP14 DUP10 DUP9 DUP15 PUSH2 0x2B4F JUMP JUMPDEST SWAP1 POP DUP7 PUSH2 0x1C88 DUP3 PUSH2 0xCFA JUMP JUMPDEST SGT PUSH2 0x1C9A JUMPI DUP5 SWAP6 POP POP POP POP POP POP PUSH2 0x716 JUMP JUMPDEST PUSH2 0x1CA4 DUP6 DUP3 PUSH2 0x19E2 JUMP JUMPDEST SWAP5 POP POP PUSH1 0x1 SWAP1 SWAP3 ADD SWAP2 POP PUSH2 0x1C41 SWAP1 POP JUMP JUMPDEST POP PUSH1 0x40 MLOAD PUSH3 0x461BCD PUSH1 0xE5 SHL DUP2 MSTORE PUSH1 0x4 ADD PUSH2 0x7D8 SWAP1 PUSH2 0x4993 JUMP JUMPDEST PUSH1 0x0 DUP1 PUSH2 0x3B0 PUSH1 0x1 PUSH2 0x2C3E JUMP JUMPDEST PUSH1 0x0 DUP2 ISZERO DUP1 ISZERO SWAP1 PUSH2 0x1CEE JUMPI POP PUSH2 0x3FFF DUP3 GT ISZERO JUMPDEST PUSH2 0x1CF7 JUMPI PUSH1 0x0 DUP1 REVERT JUMPDEST PUSH1 0x80 DUP4 ADD MLOAD PUSH1 0x60 DUP5 ADD MLOAD PUSH2 0xFFFF AND DUP4 EQ ISZERO PUSH2 0x1D16 JUMPI PUSH1 0x1 SWAP2 POP POP PUSH2 0x3B0 JUMP JUMPDEST PUSH1 0x1 PUSH1 0x1 PUSH1 0x70 SHL SUB NOT DUP2 AND ISZERO PUSH2 0x1D5B JUMPI PUSH1 0xF0 DUP2 SWAP1 SHR PUSH2 0x3FFF AND DUP4 DUP2 EQ ISZERO PUSH2 0x1D48 JUMPI POP PUSH1 0x1 PUSH1 0xFE SHL SWAP1 DUP2 AND EQ SWAP1 POP PUSH2 0x3B0 JUMP JUMPDEST POP PUSH1 0x10 SHL PUSH1 0x1 PUSH1 0x1 PUSH1 0x80 SHL SUB NOT AND PUSH2 0x1D16 JUMP JUMPDEST POP PUSH1 0x0 SWAP4 SWAP3 POP POP POP JUMP JUMPDEST PUSH1 0x0 DUP1 PUSH1 0x0 DUP1 PUSH1 0x0 PUSH2 0x1D75 PUSH2 0x2C50 JUMP JUMPDEST PUSH1 0x1 PUSH1 0x1 PUSH1 0xA0 SHL SUB DUP9 AND PUSH1 0x0 SWAP1 DUP2 MSTORE PUSH1 0x20 DUP3 DUP2 MSTORE PUSH1 0x40 DUP1 DUP4 KECCAK256 DUP11 DUP5 MSTORE SWAP1 SWAP2 MSTORE SWAP1 KECCAK256 DUP1 SLOAD PUSH10 0xFFFFFFFFFFFFFFFFFFFF DUP2 AND SWAP7 POP PUSH1 0x1 PUSH1 0x50 SHL SWAP1 DIV PUSH4 0xFFFFFFFF AND SWAP5 POP SWAP1 SWAP2 POP DUP4 ISZERO PUSH2 0x1DE1 JUMPI DUP1 SLOAD PUSH2 0x1DDA SWAP1 PUSH1 0x1 PUSH1 0x70 SHL SWAP1 DIV PUSH7 0xFFFFFFFFFFFFFF AND PUSH2 0x2C5D JUMP JUMPDEST SWAP3 POP PUSH2 0x1DF6 JUMP JUMPDEST DUP1 SLOAD PUSH1 0x1 PUSH1 0x70 SHL SWAP1 DIV PUSH7 0xFFFFFFFFFFFFFF AND SWAP3 POP JUMPDEST SLOAD PUSH1 0x1 PUSH1 0xA8 SHL SWAP1 DIV PUSH1 0xA SWAP1 DUP2 SIGNEXTEND SWAP1 SIGNEXTEND SWAP8 SWAP4 SWAP7 POP SWAP2 SWAP5 POP SWAP3 POP POP JUMP JUMPDEST PUSH1 0x0 DUP1 PUSH2 0x3B0 PUSH1 0x3 PUSH2 0x2C3E JUMP JUMPDEST PUSH1 0x0 DUP1 PUSH1 0x0 DUP1 PUSH2 0x1E2C PUSH2 0x2C6B JUMP JUMPDEST PUSH1 0x1 PUSH1 0x1 PUSH1 0xA0 SHL SUB SWAP6 SWAP1 SWAP6 AND PUSH1 0x0 SWAP1 DUP2 MSTORE PUSH1 0x20 SWAP6 SWAP1 SWAP6 MSTORE POP POP PUSH1 0x40 SWAP1 SWAP3 KECCAK256 SLOAD PUSH12 0xFFFFFFFFFFFFFFFFFFFFFFFF DUP2 AND SWAP4 PUSH1 0x1 PUSH1 0x60 SHL DUP3 DIV PUSH1 0x1 PUSH1 0x1 PUSH1 0x80 SHL SUB AND SWAP4 POP PUSH1 0x1 PUSH1 0xE0 SHL SWAP1 SWAP2 DIV PUSH4 0xFFFFFFFF AND SWAP2 POP JUMP JUMPDEST PUSH1 0x0 DUP1 PUSH1 0x0 DUP1 PUSH1 0x0 DUP1 PUSH2 0x1E90 PUSH2 0x2C78 JUMP JUMPDEST PUSH1 0x1 PUSH1 0x1 PUSH1 0xA0 SHL SUB SWAP1 SWAP8 AND PUSH1 0x0 SWAP1 DUP2 MSTORE PUSH1 0x20 SWAP8 SWAP1 SWAP8 MSTORE POP POP PUSH1 0x40 SWAP1 SWAP5 KECCAK256 SLOAD PUSH2 0xFFFF DUP2 AND SWAP6 PUSH4 0xFFFFFFFF PUSH3 0x10000 DUP4 DIV DUP2 AND SWAP7 POP PUSH1 0x1 PUSH1 0x30 SHL DUP4 DIV AND SWAP5 POP PUSH1 0xFF PUSH1 0x1 PUSH1 0x50 SHL DUP4 DIV AND SWAP4 POP PUSH1 0x1 PUSH1 0x58 SHL SWAP1 SWAP2 DIV PUSH1 0xD0 SHL SWAP2 POP JUMP JUMPDEST PUSH1 0x0 DUP3 PUSH2 0x1EF7 JUMPI POP PUSH1 0x0 PUSH2 0x3B0 JUMP JUMPDEST DUP3 DUP3 MUL DUP3 DUP5 DUP3 DUP2 PUSH2 0x1F04 JUMPI INVALID JUMPDEST DIV EQ PUSH2 0x417 JUMPI PUSH1 0x40 MLOAD PUSH3 0x461BCD PUSH1 0xE5 SHL DUP2 MSTORE PUSH1 0x4 ADD DUP1 DUP1 PUSH1 0x20 ADD DUP3 DUP2 SUB DUP3 MSTORE PUSH1 0x21 DUP2 MSTORE PUSH1 0x20 ADD DUP1 PUSH2 0x4B9E PUSH1 0x21 SWAP2 CODECOPY PUSH1 0x40 ADD SWAP2 POP POP PUSH1 0x40 MLOAD DUP1 SWAP2 SUB SWAP1 REVERT JUMPDEST PUSH1 0x0 PUSH2 0x455 DUP3 PUSH2 0x10E8 PUSH4 0x1DA9C00 DUP2 DUP9 PUSH2 0x10E2 DUP10 PUSH8 0xDE0B6B3A7640000 PUSH2 0x1EE8 JUMP JUMPDEST PUSH1 0x0 DUP1 DUP3 GT PUSH2 0x1FB9 JUMPI PUSH1 0x40 DUP1 MLOAD PUSH3 0x461BCD PUSH1 0xE5 SHL DUP2 MSTORE PUSH1 0x20 PUSH1 0x4 DUP3 ADD MSTORE PUSH1 0x1A PUSH1 0x24 DUP3 ADD MSTORE PUSH32 0x536166654D6174683A206469766973696F6E206279207A65726F000000000000 PUSH1 0x44 DUP3 ADD MSTORE SWAP1 MLOAD SWAP1 DUP2 SWAP1 SUB PUSH1 0x64 ADD SWAP1 REVERT JUMPDEST DUP2 DUP4 DUP2 PUSH2 0x1FC2 JUMPI INVALID JUMPDEST DIV SWAP4 SWAP3 POP POP POP JUMP JUMPDEST PUSH1 0x0 DUP3 DUP3 GT ISZERO PUSH2 0x2021 JUMPI PUSH1 0x40 DUP1 MLOAD PUSH3 0x461BCD PUSH1 0xE5 SHL DUP2 MSTORE PUSH1 0x20 PUSH1 0x4 DUP3 ADD MSTORE PUSH1 0x1E PUSH1 0x24 DUP3 ADD MSTORE PUSH32 0x536166654D6174683A207375627472616374696F6E206F766572666C6F770000 PUSH1 0x44 DUP3 ADD MSTORE SWAP1 MLOAD SWAP1 DUP2 SWAP1 SUB PUSH1 0x64 ADD SWAP1 REVERT JUMPDEST POP SWAP1 SUB SWAP1 JUMP JUMPDEST PUSH1 0x0 DUP2 PUSH2 0x2036 JUMPI POP PUSH1 0x0 PUSH2 0x3B0 JUMP JUMPDEST PUSH1 0x0 DUP3 SGT PUSH2 0x2043 JUMPI PUSH1 0x0 DUP1 REVERT JUMPDEST PUSH1 0x0 PUSH2 0x204E DUP5 PUSH2 0x15F3 JUMP JUMPDEST SWAP1 POP PUSH1 0x0 PUSH2 0x205F DUP3 PUSH1 0x0 ADD MLOAD PUSH2 0x25EB JUMP JUMPDEST SWAP1 POP PUSH1 0x2 DUP2 SDIV PUSH12 0x33B2E3C9FD0803CE8000000 PUSH1 0x1 PUSH1 0x1 PUSH1 0xFF SHL SUB DUP3 SWAP1 SUB SDIV DUP6 SGT ISZERO PUSH2 0x208A JUMPI PUSH1 0x0 DUP1 REVERT JUMPDEST DUP2 DUP2 PUSH12 0x33B2E3C9FD0803CE8000000 DUP8 MUL ADD DUP2 PUSH2 0x20A3 JUMPI INVALID JUMPDEST SDIV SWAP7 SWAP6 POP POP POP POP POP POP JUMP JUMPDEST PUSH1 0x60 ADD MLOAD PUSH2 0x12C PUSH1 0x8 SWAP2 SWAP1 SWAP2 SHR PUSH1 0xFF AND MUL SWAP1 JUMP JUMPDEST PUSH1 0x0 DUP1 PUSH2 0x20CD PUSH2 0x2C85 JUMP JUMPDEST SWAP1 POP PUSH1 0x0 PUSH3 0x76A700 PUSH2 0x20DE DUP6 PUSH2 0x1701 JUMP JUMPDEST PUSH1 0x0 DUP10 DUP2 MSTORE PUSH1 0x20 DUP6 DUP2 MSTORE PUSH1 0x40 DUP1 DUP4 KECCAK256 DUP12 DUP5 MSTORE DUP3 MSTORE DUP1 DUP4 KECCAK256 SWAP5 SWAP1 SWAP4 ADD DUP1 DUP4 MSTORE SWAP4 SWAP1 MSTORE KECCAK256 DUP1 SLOAD SWAP2 SWAP3 POP SWAP1 PUSH4 0xFFFFFFFF PUSH1 0x1 PUSH1 0xA0 SHL DUP3 DIV DUP2 AND SWAP2 PUSH1 0x1 PUSH1 0xC0 SHL DUP2 DIV DUP3 AND SWAP2 PUSH1 0x1 PUSH1 0xE0 SHL SWAP1 SWAP2 DIV AND DUP2 PUSH2 0x2145 JUMPI PUSH1 0x40 MLOAD PUSH3 0x461BCD PUSH1 0xE5 SHL DUP2 MSTORE PUSH1 0x4 ADD PUSH2 0x7D8 SWAP1 PUSH2 0x4936 JUMP JUMPDEST PUSH2 0xDC4 DUP2 DUP5 DUP5 DUP13 DUP13 PUSH2 0x2C92 JUMP JUMPDEST DUP1 MLOAD PUSH1 0x0 SWAP1 PUSH1 0x1 PUSH1 0x1 PUSH1 0xA0 SHL SUB AND PUSH2 0x216C JUMPI POP PUSH1 0x0 PUSH2 0x89B JUMP JUMPDEST PUSH1 0x0 DUP3 PUSH1 0x0 ADD MLOAD PUSH1 0x1 PUSH1 0x1 PUSH1 0xA0 SHL SUB AND PUSH4 0xDD30A666 PUSH1 0x40 MLOAD DUP2 PUSH4 0xFFFFFFFF AND PUSH1 0xE0 SHL DUP2 MSTORE PUSH1 0x4 ADD PUSH1 0x20 PUSH1 0x40 MLOAD DUP1 DUP4 SUB DUP2 DUP7 DUP1 EXTCODESIZE ISZERO DUP1 ISZERO PUSH2 0x21AB JUMPI PUSH1 0x0 DUP1 REVERT JUMPDEST POP GAS STATICCALL ISZERO DUP1 ISZERO PUSH2 0x21BF JUMPI RETURNDATASIZE PUSH1 0x0 DUP1 RETURNDATACOPY RETURNDATASIZE PUSH1 0x0 REVERT JUMPDEST POP POP POP POP PUSH1 0x40 MLOAD RETURNDATASIZE PUSH1 0x1F NOT PUSH1 0x1F DUP3 ADD AND DUP3 ADD DUP1 PUSH1 0x40 MSTORE POP DUP2 ADD SWAP1 PUSH2 0x417 SWAP2 SWAP1 PUSH2 0x46EE JUMP JUMPDEST PUSH1 0x0 DUP2 DUP7 LT PUSH2 0x21F1 JUMPI PUSH1 0x0 DUP1 REVERT JUMPDEST DUP5 DUP3 LT PUSH2 0x21FD JUMPI PUSH1 0x0 DUP1 REVERT JUMPDEST DUP4 DUP4 LT PUSH2 0x2223 JUMPI PUSH2 0x221C DUP5 PUSH2 0x146F DUP9 DUP9 SUB PUSH2 0x10E8 DUP4 DUP9 SUB DUP12 DUP9 SUB PUSH2 0x1EE8 JUMP JUMPDEST SWAP1 POP PUSH2 0x343 JUMP JUMPDEST PUSH2 0x221C PUSH2 0x223A DUP8 DUP8 SUB PUSH2 0x10E8 DUP7 DUP9 SUB DUP11 DUP8 SUB PUSH2 0x1EE8 JUMP JUMPDEST DUP6 SWAP1 PUSH2 0x1FCA JUMP JUMPDEST PUSH1 0x60 ADD MLOAD PUSH3 0x7A120 PUSH1 0x28 SWAP2 SWAP1 SWAP2 SHR PUSH1 0xFF AND MUL SWAP1 JUMP JUMPDEST PUSH1 0x0 DUP1 PUSH2 0x226E PUSH2 0x1BCB PUSH4 0x1DA9C00 PUSH2 0x10E8 DUP7 DUP9 PUSH2 0x1EE8 JUMP JUMPDEST SWAP1 POP PUSH2 0x2280 DUP2 PUSH3 0x1DCD65 PUSH1 0x49 SHL PUSH2 0x2A68 JUMP JUMPDEST SWAP1 POP PUSH2 0x2293 PUSH2 0x228E DUP3 PUSH2 0x2D25 JUMP JUMPDEST PUSH2 0x2ABB JUMP JUMPDEST SWAP1 POP PUSH2 0x22A5 DUP2 PUSH3 0x1DCD65 PUSH1 0x49 SHL PUSH2 0x2B10 JUMP JUMPDEST SWAP1 POP PUSH1 0x0 PUSH2 0x22B2 DUP3 PUSH2 0x2B46 JUMP JUMPDEST PUSH1 0x7 SIGNEXTEND SWAP6 SWAP5 POP POP POP POP POP JUMP JUMPDEST PUSH1 0x60 ADD MLOAD PUSH3 0x7A120 PUSH1 0x20 SWAP2 SWAP1 SWAP2 SHR PUSH1 0xFF AND MUL SWAP1 JUMP JUMPDEST PUSH1 0x0 PUSH2 0x417 PUSH2 0x22E2 DUP5 DUP5 PUSH2 0x15A5 JUMP JUMPDEST PUSH4 0x3B9ACA00 PUSH2 0x1874 JUMP JUMPDEST PUSH1 0x0 PUSH3 0x76A700 PUSH2 0x22FB DUP6 PUSH2 0x1701 JUMP JUMPDEST ADD SWAP1 POP PUSH2 0x230D DUP8 DUP8 DUP8 DUP8 DUP8 DUP8 DUP8 PUSH2 0x2D47 JUMP JUMPDEST POP POP POP POP POP POP POP JUMP JUMPDEST PUSH1 0x0 DUP1 DUP1 PUSH2 0x2324 DUP9 DUP6 PUSH2 0x24A7 JUMP JUMPDEST SWAP1 POP PUSH1 0x0 PUSH2 0x233C PUSH2 0x2335 DUP11 DUP11 PUSH2 0x24C3 JUMP JUMPDEST DUP4 SWAP1 PUSH2 0x2D7E JUMP JUMPDEST SWAP1 POP PUSH4 0x3B023380 DUP2 SGT ISZERO PUSH2 0x2358 JUMPI PUSH1 0x0 DUP1 SWAP4 POP SWAP4 POP POP POP PUSH2 0x878 JUMP JUMPDEST PUSH1 0x0 DUP1 PUSH2 0x2364 DUP4 PUSH2 0x2D97 JUMP JUMPDEST SWAP2 POP SWAP2 POP DUP1 PUSH2 0x237D JUMPI PUSH1 0x0 DUP1 SWAP6 POP SWAP6 POP POP POP POP POP PUSH2 0x878 JUMP JUMPDEST PUSH1 0x0 PUSH2 0x238D DUP10 PUSH2 0x1627 DUP6 DUP14 PUSH2 0x2D7E JUMP JUMPDEST SWAP1 POP PUSH4 0x3B9ACA00 DUP2 SLT ISZERO PUSH2 0x23AC JUMPI PUSH1 0x0 DUP1 SWAP7 POP SWAP7 POP POP POP POP POP POP PUSH2 0x878 JUMP JUMPDEST SWAP6 POP PUSH1 0x1 SWAP5 POP PUSH2 0x878 SWAP4 POP POP POP POP JUMP JUMPDEST PUSH1 0x0 DUP1 DUP1 DUP1 PUSH2 0x23CE PUSH2 0x2BC DUP8 DUP10 PUSH2 0x2D7E JUMP JUMPDEST SWAP1 POP PUSH1 0x0 PUSH2 0x23E4 PUSH2 0x23DE DUP11 PUSH2 0x1B9E JUMP JUMPDEST DUP8 PUSH2 0x1BB3 JUMP JUMPDEST SWAP1 POP PUSH1 0x0 DUP8 SGT ISZERO PUSH2 0x243C JUMPI PUSH1 0x0 PUSH2 0x23FB DUP10 DUP4 PUSH2 0x2D7E JUMP JUMPDEST SWAP1 POP PUSH4 0x3B9ACA00 DUP2 SLT ISZERO PUSH2 0x241C JUMPI PUSH1 0x0 DUP1 PUSH1 0x0 SWAP6 POP SWAP6 POP SWAP6 POP POP POP POP PUSH2 0x1B94 JUMP JUMPDEST PUSH2 0x2434 PUSH2 0x242D PUSH4 0x3B9ACA00 DUP5 PUSH2 0x19E2 JUMP JUMPDEST DUP5 SWAP1 PUSH2 0x22D3 JUMP JUMPDEST SWAP2 POP POP PUSH2 0x245E JUMP JUMPDEST PUSH2 0x245B PUSH2 0x2BC DUP3 PUSH2 0xB0E PUSH2 0x2454 PUSH4 0x3B9ACA00 DUP4 PUSH2 0x19E2 JUMP JUMPDEST DUP7 SWAP1 PUSH2 0x15A5 JUMP JUMPDEST SWAP1 POP JUMPDEST PUSH1 0x0 PUSH2 0x2478 PUSH1 0x64 PUSH2 0xB0E PUSH2 0x2471 DUP14 PUSH2 0x2E39 JUMP JUMPDEST DUP6 SWAP1 PUSH2 0x15A5 JUMP JUMPDEST SWAP1 POP PUSH2 0x2484 DUP4 DUP4 PUSH2 0x19E2 JUMP JUMPDEST PUSH2 0x2495 PUSH2 0x2BC DUP4 PUSH2 0x1627 DUP8 DUP8 PUSH2 0x19E2 JUMP JUMPDEST SWAP1 SWAP12 SWAP1 SWAP11 POP SWAP1 SWAP9 POP SWAP7 POP POP POP POP POP POP POP JUMP JUMPDEST PUSH1 0x0 PUSH2 0x24B3 DUP4 DUP4 PUSH2 0x19E2 JUMP JUMPDEST SWAP1 POP PUSH1 0x0 DUP2 SLT ISZERO PUSH2 0x3B0 JUMPI PUSH1 0x0 DUP1 REVERT JUMPDEST DUP2 DUP2 ADD DUP3 DUP2 SLT ISZERO PUSH1 0x0 DUP4 SLT ISZERO EQ PUSH2 0x3B0 JUMPI PUSH1 0x0 DUP1 REVERT JUMPDEST PUSH1 0x0 DUP1 PUSH1 0x0 PUSH2 0x24EC DUP9 DUP9 DUP9 DUP9 PUSH1 0x0 PUSH2 0x2316 JUMP JUMPDEST SWAP2 POP SWAP2 POP DUP1 PUSH2 0x2500 JUMPI PUSH1 0x0 SWAP3 POP POP POP PUSH2 0x343 JUMP JUMPDEST PUSH1 0x0 PUSH2 0x250B DUP4 PUSH2 0x2E46 JUMP JUMPDEST SWAP1 POP PUSH1 0x0 PUSH2 0x251F DUP3 PUSH3 0x1DCD65 PUSH1 0x49 SHL PUSH2 0x2A68 JUMP JUMPDEST SWAP1 POP PUSH1 0x0 PUSH2 0x252C DUP3 PUSH2 0x2E72 JUMP JUMPDEST SWAP1 POP PUSH1 0x0 PUSH2 0x2548 PUSH2 0x2543 DUP4 PUSH3 0x1DCD65 PUSH1 0x49 SHL PUSH2 0x2B10 JUMP JUMPDEST PUSH2 0x2EAC JUMP JUMPDEST PUSH8 0xFFFFFFFFFFFFFFFF AND SWAP1 POP PUSH1 0x0 PUSH2 0x2568 DUP10 PUSH2 0x10E8 DUP5 PUSH4 0x1DA9C00 PUSH2 0x1EE8 JUMP JUMPDEST SWAP1 POP PUSH4 0xFFFFFFFF DUP2 GT ISZERO PUSH2 0x2586 JUMPI PUSH1 0x0 SWAP8 POP POP POP POP POP POP POP POP PUSH2 0x343 JUMP JUMPDEST SWAP13 SWAP12 POP POP POP POP POP POP POP POP POP POP POP POP JUMP JUMPDEST PUSH1 0x0 DUP1 DUP1 PUSH2 0x25A4 DUP8 DUP7 PUSH2 0x2EC8 JUMP JUMPDEST PUSH1 0x60 DUP10 ADD MLOAD SWAP1 SWAP2 POP PUSH2 0x25B6 SWAP1 DUP3 PUSH2 0x24C3 JUMP JUMPDEST PUSH1 0x60 DUP10 ADD MSTORE TIMESTAMP PUSH1 0xE0 DUP10 ADD MSTORE PUSH1 0x0 PUSH2 0x25CD DUP9 DUP7 PUSH2 0x2EC8 JUMP JUMPDEST SWAP1 POP PUSH1 0x0 PUSH2 0x25DB DUP10 DUP10 PUSH2 0x2EC8 JUMP JUMPDEST SWAP11 SWAP2 SWAP10 POP SWAP1 SWAP8 POP POP POP POP POP POP POP POP JUMP JUMPDEST PUSH1 0x0 PUSH2 0x3B0 PUSH2 0x25F8 PUSH2 0x2EF3 JUMP JUMPDEST SLOAD PUSH1 0x40 MLOAD PUSH4 0xD15E0053 PUSH1 0xE0 SHL DUP2 MSTORE PUSH1 0x1 PUSH1 0x1 PUSH1 0xA0 SHL SUB SWAP1 SWAP2 AND SWAP1 PUSH4 0xD15E0053 SWAP1 PUSH2 0x2626 SWAP1 DUP7 SWAP1 PUSH1 0x4 ADD PUSH2 0x48E5 JUMP JUMPDEST PUSH1 0x20 PUSH1 0x40 MLOAD DUP1 DUP4 SUB DUP2 DUP7 DUP1 EXTCODESIZE ISZERO DUP1 ISZERO PUSH2 0x263E JUMPI PUSH1 0x0 DUP1 REVERT JUMPDEST POP GAS STATICCALL ISZERO DUP1 ISZERO PUSH2 0x2652 JUMPI RETURNDATASIZE PUSH1 0x0 DUP1 RETURNDATACOPY RETURNDATASIZE PUSH1 0x0 REVERT JUMPDEST POP POP POP POP PUSH1 0x40 MLOAD RETURNDATASIZE PUSH1 0x1F NOT PUSH1 0x1F DUP3 ADD AND DUP3 ADD DUP1 PUSH1 0x40 MSTORE POP DUP2 ADD SWAP1 PUSH2 0x3F5 SWAP2 SWAP1 PUSH2 0x46EE JUMP JUMPDEST PUSH1 0x0 DUP1 PUSH2 0x3B0 PUSH1 0x7 PUSH2 0x2C3E JUMP JUMPDEST PUSH2 0x268B PUSH2 0x461A JUMP JUMPDEST PUSH2 0x2693 PUSH2 0x461A JUMP JUMPDEST PUSH1 0xFF DUP5 AND PUSH2 0x26A2 JUMPI SWAP1 POP PUSH2 0x417 JUMP JUMPDEST PUSH2 0x26AC DUP6 DUP6 PUSH2 0x2F00 JUMP JUMPDEST DUP2 MSTORE PUSH1 0xFF DUP5 AND PUSH1 0x60 DUP3 ADD MSTORE DUP3 PUSH8 0xFFFFFFFFFFFFFFFF DUP2 GT DUP1 ISZERO PUSH2 0x26CE JUMPI PUSH1 0x0 DUP1 REVERT JUMPDEST POP PUSH1 0x40 MLOAD SWAP1 DUP1 DUP3 MSTORE DUP1 PUSH1 0x20 MUL PUSH1 0x20 ADD DUP3 ADD PUSH1 0x40 MSTORE DUP1 ISZERO PUSH2 0x2708 JUMPI DUP2 PUSH1 0x20 ADD JUMPDEST PUSH2 0x26F5 PUSH2 0x4642 JUMP JUMPDEST DUP2 MSTORE PUSH1 0x20 ADD SWAP1 PUSH1 0x1 SWAP1 SUB SWAP1 DUP2 PUSH2 0x26ED JUMPI SWAP1 POP JUMPDEST POP PUSH1 0x20 DUP3 ADD MSTORE SWAP5 SWAP4 POP POP POP POP JUMP JUMPDEST PUSH1 0x20 DUP4 ADD MLOAD MLOAD MLOAD PUSH1 0x0 SWAP1 PUSH1 0x60 SWAP1 DUP1 PUSH8 0xFFFFFFFFFFFFFFFF DUP2 GT DUP1 ISZERO PUSH2 0x273A JUMPI PUSH1 0x0 DUP1 REVERT JUMPDEST POP PUSH1 0x40 MLOAD SWAP1 DUP1 DUP3 MSTORE DUP1 PUSH1 0x20 MUL PUSH1 0x20 ADD DUP3 ADD PUSH1 0x40 MSTORE DUP1 ISZERO PUSH2 0x2764 JUMPI DUP2 PUSH1 0x20 ADD PUSH1 0x20 DUP3 MUL DUP1 CALLDATASIZE DUP4 CALLDATACOPY ADD SWAP1 POP JUMPDEST POP SWAP2 POP PUSH2 0x276F PUSH2 0x451F JUMP JUMPDEST PUSH1 0x0 JUMPDEST DUP3 DUP2 LT ISZERO PUSH2 0x286E JUMPI DUP8 MLOAD PUSH2 0x278D SWAP1 DUP4 PUSH1 0x1 DUP1 DUP6 ADD SWAP1 DUP12 PUSH2 0x1427 JUMP JUMPDEST PUSH1 0x0 DUP9 PUSH1 0x20 ADD MLOAD PUSH1 0x0 ADD MLOAD DUP3 DUP2 MLOAD DUP2 LT PUSH2 0x27A3 JUMPI INVALID JUMPDEST PUSH1 0x20 MUL PUSH1 0x20 ADD ADD MLOAD SWAP1 POP PUSH1 0x0 DUP1 PUSH2 0x27BA DUP4 DUP7 PUSH2 0x2F29 JUMP JUMPDEST SWAP2 POP SWAP2 POP PUSH2 0x27E7 PUSH2 0x27E0 DUP13 PUSH1 0xC0 ADD MLOAD DUP14 PUSH1 0x0 ADD MLOAD PUSH1 0x0 ADD MLOAD PUSH2 0xFFFF AND DUP7 PUSH1 0x20 ADD MLOAD PUSH2 0x2FA4 JUMP JUMPDEST DUP3 SWAP1 PUSH2 0x24C3 JUMP JUMPDEST DUP8 DUP6 DUP2 MLOAD DUP2 LT PUSH2 0x27F3 JUMPI INVALID JUMPDEST PUSH1 0x20 MUL PUSH1 0x20 ADD ADD DUP2 DUP2 MSTORE POP POP PUSH1 0x0 PUSH2 0x2850 PUSH2 0x2849 PUSH2 0x283D DUP11 DUP9 DUP2 MLOAD DUP2 LT PUSH2 0x2816 JUMPI INVALID JUMPDEST PUSH1 0x20 MUL PUSH1 0x20 ADD ADD MLOAD DUP8 PUSH1 0x20 ADD MLOAD DUP16 DUP16 PUSH2 0x2833 JUMPI DUP12 PUSH1 0xA0 ADD MLOAD PUSH2 0x711 JUMP JUMPDEST DUP12 PUSH1 0xC0 ADD MLOAD PUSH2 0x13E1 JUMP JUMPDEST DUP15 MLOAD PUSH1 0x40 ADD MLOAD SWAP1 PUSH2 0x2EC8 JUMP JUMPDEST DUP5 SWAP1 PUSH2 0x24C3 JUMP JUMPDEST SWAP1 POP PUSH2 0x285C DUP10 DUP3 PUSH2 0x24C3 JUMP JUMPDEST SWAP9 POP POP PUSH1 0x1 SWAP1 SWAP4 ADD SWAP3 POP PUSH2 0x2772 SWAP2 POP POP JUMP JUMPDEST POP POP POP SWAP4 POP SWAP4 SWAP2 POP POP JUMP JUMPDEST PUSH1 0x0 DUP1 PUSH2 0x28A5 DUP5 PUSH1 0xC0 ADD MLOAD DUP6 PUSH1 0x0 ADD MLOAD PUSH1 0x0 ADD MLOAD PUSH2 0xFFFF AND DUP7 PUSH1 0x80 ADD MLOAD DUP7 DUP9 PUSH1 0x0 ADD MLOAD PUSH1 0x20 ADD MLOAD PUSH2 0x2FE9 JUMP JUMPDEST SWAP1 POP DUP1 ISZERO PUSH2 0x28F4 JUMPI PUSH1 0x0 PUSH2 0x28D7 DUP6 PUSH1 0xC0 ADD MLOAD DUP7 PUSH1 0x0 ADD MLOAD PUSH1 0x0 ADD MLOAD PUSH2 0xFFFF AND DUP8 PUSH1 0x80 ADD MLOAD DUP8 DUP10 PUSH1 0x0 ADD MLOAD PUSH1 0x0 DUP9 PUSH2 0x3095 JUMP JUMPDEST POP DUP6 MLOAD PUSH1 0x40 ADD MLOAD SWAP1 SWAP2 POP PUSH2 0x28EB SWAP1 DUP3 PUSH2 0x2EC8 JUMP JUMPDEST SWAP3 POP POP POP PUSH2 0x3B0 JUMP JUMPDEST PUSH1 0x0 SWAP2 POP POP PUSH2 0x3B0 JUMP JUMPDEST PUSH1 0x0 DUP1 PUSH1 0x0 PUSH2 0x290B PUSH2 0x3113 JUMP JUMPDEST PUSH1 0x0 SWAP5 DUP6 MSTORE PUSH1 0x20 MSTORE POP POP PUSH1 0x40 SWAP1 SWAP2 KECCAK256 SLOAD PUSH1 0x1 PUSH1 0x1 PUSH1 0xA0 SHL SUB DUP2 AND SWAP3 PUSH1 0x1 PUSH1 0xA0 SHL SWAP1 SWAP2 DIV PUSH1 0xFF AND SWAP2 POP JUMP JUMPDEST PUSH1 0x0 DUP1 PUSH2 0x2940 PUSH2 0x3120 JUMP JUMPDEST PUSH1 0x0 SWAP4 DUP5 MSTORE PUSH1 0x20 MSTORE POP POP PUSH1 0x40 SWAP1 KECCAK256 SLOAD SWAP1 JUMP JUMPDEST PUSH1 0x0 DUP3 PUSH1 0x1 GT ISZERO DUP1 ISZERO PUSH2 0x2969 JUMPI POP DUP4 PUSH1 0x20 ADD MLOAD DUP4 GT ISZERO JUMPDEST PUSH2 0x2972 JUMPI PUSH1 0x0 DUP1 REVERT JUMPDEST PUSH1 0x60 DUP5 ADD MLOAD PUSH1 0x80 PUSH1 0x8 PUSH1 0x0 NOT DUP7 ADD MUL ADD SWAP1 PUSH1 0xFF SWAP1 DUP3 SHR AND PUSH4 0x3B9ACA00 MUL PUSH1 0x0 PUSH2 0x29AB PUSH2 0x299D DUP7 PUSH2 0x882 JUMP JUMPDEST PUSH2 0xB0E DUP5 PUSH4 0x1DA9C00 PUSH2 0x15A5 JUMP JUMPDEST SWAP1 POP PUSH1 0x0 DUP2 SGT PUSH2 0x95E JUMPI PUSH1 0x0 DUP1 REVERT JUMPDEST PUSH1 0x0 DUP1 PUSH1 0x0 PUSH2 0x29C9 DUP8 DUP6 PUSH2 0x1BB3 JUMP JUMPDEST SWAP1 POP PUSH4 0x3B9ACA00 DUP2 SLT ISZERO PUSH2 0x29E4 JUMPI PUSH1 0x0 DUP1 SWAP3 POP SWAP3 POP POP PUSH2 0x878 JUMP JUMPDEST PUSH1 0x0 DUP1 PUSH2 0x29FB PUSH2 0x29F4 DUP12 DUP11 PUSH2 0x24C3 JUMP JUMPDEST DUP12 SWAP1 PUSH2 0x2D7E JUMP JUMPDEST SWAP1 POP PUSH1 0x0 DUP1 PUSH2 0x2A09 DUP4 PUSH2 0x2D97 JUMP JUMPDEST SWAP2 POP SWAP2 POP DUP1 PUSH2 0x2A23 JUMPI PUSH1 0x0 DUP1 SWAP7 POP SWAP7 POP POP POP POP POP POP PUSH2 0x878 JUMP JUMPDEST PUSH2 0x2A37 PUSH2 0x2A30 DUP4 DUP12 PUSH2 0x2D7E JUMP JUMPDEST DUP7 SWAP1 PUSH2 0x19E2 JUMP JUMPDEST SWAP13 PUSH1 0x1 SWAP13 POP SWAP11 POP POP POP POP POP POP POP POP POP POP POP JUMP JUMPDEST PUSH1 0x0 PUSH8 0x7FFFFFFFFFFFFFFF DUP3 GT ISZERO PUSH2 0x2A61 JUMPI PUSH1 0x0 DUP1 REVERT JUMPDEST POP PUSH1 0x40 SHL SWAP1 JUMP JUMPDEST PUSH1 0x0 DUP2 PUSH1 0xF SIGNEXTEND PUSH1 0x0 EQ ISZERO PUSH2 0x2A7B JUMPI PUSH1 0x0 DUP1 REVERT JUMPDEST PUSH1 0x0 DUP3 PUSH1 0xF SIGNEXTEND PUSH1 0x40 DUP6 PUSH1 0xF SIGNEXTEND SWAP1 SHL DUP2 PUSH2 0x2A90 JUMPI INVALID JUMPDEST SDIV SWAP1 POP PUSH1 0x1 PUSH1 0x1 PUSH1 0x7F SHL SUB NOT DUP2 SLT DUP1 ISZERO SWAP1 PUSH2 0x2AB2 JUMPI POP PUSH1 0x1 PUSH1 0x1 PUSH1 0x7F SHL SUB DUP2 SGT ISZERO JUMPDEST PUSH2 0x417 JUMPI PUSH1 0x0 DUP1 REVERT JUMPDEST PUSH1 0x0 PUSH1 0x1 PUSH1 0x46 SHL DUP3 PUSH1 0xF SIGNEXTEND SLT PUSH2 0x2AD0 JUMPI PUSH1 0x0 DUP1 REVERT JUMPDEST PUSH9 0x3FFFFFFFFFFFFFFFFF NOT DUP3 PUSH1 0xF SIGNEXTEND SLT ISZERO PUSH2 0x2AED JUMPI POP PUSH1 0x0 PUSH2 0x89B JUMP JUMPDEST PUSH2 0x3B0 PUSH1 0x80 DUP4 PUSH1 0xF SIGNEXTEND PUSH17 0x171547652B82FE1777D0FFDA0D23A7D12 MUL SWAP1 SAR PUSH2 0x312D JUMP JUMPDEST PUSH1 0x0 PUSH1 0xF DUP4 DUP2 SIGNEXTEND SWAP1 DUP4 SWAP1 SIGNEXTEND MUL PUSH1 0x40 SAR PUSH1 0x1 PUSH1 0x1 PUSH1 0x7F SHL SUB NOT DUP2 SLT DUP1 ISZERO SWAP1 PUSH2 0x2AB2 JUMPI POP PUSH1 0x1 PUSH1 0x1 PUSH1 0x7F SHL SUB DUP2 SGT ISZERO PUSH2 0x417 JUMPI PUSH1 0x0 DUP1 REVERT JUMPDEST PUSH1 0xF SIGNEXTEND PUSH1 0x40 SAR SWAP1 JUMP JUMPDEST PUSH1 0x0 DUP1 DUP1 PUSH2 0x2B74 PUSH2 0x2B6D PUSH2 0x2B63 DUP11 DUP10 PUSH2 0x24C3 JUMP JUMPDEST PUSH2 0xBDE DUP13 DUP11 PUSH2 0x19E2 JUMP JUMPDEST DUP9 SWAP1 PUSH2 0x22D3 JUMP JUMPDEST SWAP1 POP PUSH1 0x0 DUP7 SGT ISZERO PUSH2 0x2BC1 JUMPI PUSH2 0x2B89 DUP6 DUP6 PUSH2 0x2D7E JUMP JUMPDEST SWAP5 POP PUSH4 0x3B9ACA00 DUP6 SLT ISZERO PUSH2 0x2B9C JUMPI PUSH1 0x0 DUP1 REVERT JUMPDEST PUSH2 0x2BBA DUP5 PUSH2 0x2BB4 PUSH2 0x2BAD DUP13 DUP13 PUSH2 0x24C3 JUMP JUMPDEST DUP14 SWAP1 PUSH2 0x15A5 JUMP JUMPDEST SWAP1 PUSH2 0x2D7E JUMP JUMPDEST SWAP2 POP PUSH2 0x2BF8 JUMP JUMPDEST PUSH2 0x2BCB DUP6 DUP6 PUSH2 0x22D3 JUMP JUMPDEST SWAP5 POP PUSH4 0x3B9ACA00 DUP6 SLT ISZERO PUSH2 0x2BDE JUMPI PUSH1 0x0 DUP1 REVERT JUMPDEST PUSH2 0x2BF5 PUSH2 0x2BEE PUSH2 0x2454 DUP12 DUP12 PUSH2 0x24C3 JUMP JUMPDEST DUP12 SWAP1 PUSH2 0x22D3 JUMP JUMPDEST SWAP2 POP JUMPDEST PUSH2 0x2C10 PUSH2 0x2C05 DUP4 DUP4 PUSH2 0x1874 JUMP JUMPDEST PUSH4 0x5F5E100 SWAP1 PUSH2 0x19E2 JUMP JUMPDEST SWAP2 POP PUSH1 0x0 PUSH2 0x2C1E DUP12 DUP8 PUSH2 0x22D3 JUMP JUMPDEST SWAP1 POP PUSH2 0x2C2A DUP2 DUP9 PUSH2 0x24C3 JUMP JUMPDEST SWAP1 POP PUSH2 0xDC4 DUP4 PUSH2 0xB0E DUP4 PUSH4 0x5F5E100 PUSH2 0x15A5 JUMP JUMPDEST PUSH1 0x0 PUSH3 0xF4240 DUP3 PUSH1 0x1A DUP2 GT ISZERO PUSH2 0x1972 JUMPI INVALID JUMPDEST PUSH1 0x0 DUP1 PUSH2 0x3B0 PUSH1 0x6 PUSH2 0x2C3E JUMP JUMPDEST PUSH1 0x8 DUP2 SWAP1 SHR PUSH1 0xFF SWAP1 SWAP2 AND SHL SWAP1 JUMP JUMPDEST PUSH1 0x0 DUP1 PUSH2 0x3B0 PUSH1 0x11 PUSH2 0x2C3E JUMP JUMPDEST PUSH1 0x0 DUP1 PUSH2 0x3B0 PUSH1 0x2 PUSH2 0x2C3E JUMP JUMPDEST PUSH1 0x0 DUP1 PUSH2 0x3B0 PUSH1 0xA PUSH2 0x2C3E JUMP JUMPDEST PUSH1 0x0 DUP1 DUP4 GT PUSH2 0x2CA0 JUMPI PUSH1 0x0 DUP1 REVERT JUMPDEST DUP2 DUP7 GT ISZERO PUSH2 0x2CAF JUMPI POP DUP4 PUSH2 0x343 JUMP JUMPDEST PUSH1 0x0 PUSH2 0x2CBB DUP4 DUP9 PUSH2 0x1FCA JUMP JUMPDEST SWAP1 POP DUP4 DUP2 GT ISZERO PUSH2 0x2CCE JUMPI DUP6 SWAP2 POP POP PUSH2 0x343 JUMP JUMPDEST PUSH1 0x0 PUSH2 0x2CE2 DUP6 PUSH2 0x10E8 DUP5 PUSH4 0x3B9ACA00 PUSH2 0x1EE8 JUMP JUMPDEST SWAP1 POP PUSH1 0x0 PUSH2 0x2CF4 PUSH4 0x3B9ACA00 DUP4 PUSH2 0x1FCA JUMP JUMPDEST SWAP1 POP PUSH1 0x0 PUSH2 0x2D17 PUSH4 0x3B9ACA00 PUSH2 0x10E8 PUSH2 0x2D0D DUP12 DUP7 PUSH2 0x1EE8 JUMP JUMPDEST PUSH2 0x146F DUP14 DUP9 PUSH2 0x1EE8 JUMP JUMPDEST SWAP11 SWAP10 POP POP POP POP POP POP POP POP POP POP JUMP JUMPDEST PUSH1 0x0 PUSH1 0xF DUP3 SWAP1 SIGNEXTEND PUSH1 0x1 PUSH1 0x1 PUSH1 0x7F SHL SUB NOT EQ ISZERO PUSH2 0x2D40 JUMPI PUSH1 0x0 DUP1 REVERT JUMPDEST POP PUSH1 0x0 SUB SWAP1 JUMP JUMPDEST PUSH2 0x2D54 DUP8 DUP8 DUP8 DUP7 DUP6 PUSH2 0x3BDB JUMP JUMPDEST PUSH2 0x2D6D DUP8 PUSH1 0xE0 ADD MLOAD DUP9 PUSH1 0xA0 ADD MLOAD DUP10 PUSH1 0xC0 ADD MLOAD DUP6 DUP9 PUSH2 0x2C92 JUMP JUMPDEST PUSH1 0xC0 SWAP1 SWAP8 ADD SWAP7 SWAP1 SWAP7 MSTORE POP POP POP POP POP POP JUMP JUMPDEST PUSH1 0x0 PUSH2 0x417 PUSH2 0x2D91 DUP5 PUSH4 0x3B9ACA00 PUSH2 0x15A5 JUMP JUMPDEST DUP4 PUSH2 0x1874 JUMP JUMPDEST PUSH1 0x0 DUP1 PUSH4 0x3B9ACA00 DUP4 EQ ISZERO PUSH2 0x2DB1 JUMPI POP PUSH1 0x0 SWAP1 POP DUP1 PUSH2 0x2E34 JUMP JUMPDEST PUSH1 0x0 PUSH2 0x2DCB PUSH2 0x2DC4 PUSH4 0x3B9ACA00 DUP7 PUSH2 0x19E2 JUMP JUMPDEST DUP6 SWAP1 PUSH2 0x2D7E JUMP JUMPDEST SWAP1 POP PUSH1 0x0 PUSH2 0x2DD8 DUP3 PUSH2 0x2E46 JUMP JUMPDEST SWAP1 POP PUSH1 0x0 DUP2 PUSH1 0xF SIGNEXTEND SGT PUSH2 0x2DF3 JUMPI PUSH1 0x0 DUP1 SWAP4 POP SWAP4 POP POP POP PUSH2 0x2E34 JUMP JUMPDEST PUSH1 0x0 PUSH2 0x2E27 PUSH2 0x2E22 PUSH2 0x2E16 PUSH2 0x2E07 DUP6 PUSH2 0x2E72 JUMP JUMPDEST PUSH9 0x14B927F32BFFB83338 PUSH2 0x3C9C JUMP JUMPDEST PUSH3 0x1DCD65 PUSH1 0x49 SHL PUSH2 0x2B10 JUMP JUMPDEST PUSH2 0x2B46 JUMP JUMPDEST PUSH1 0x7 SIGNEXTEND SWAP5 POP PUSH1 0x1 SWAP4 POP POP POP POP JUMPDEST SWAP2 POP SWAP2 JUMP JUMPDEST PUSH1 0x60 ADD MLOAD PUSH1 0x18 SHR PUSH1 0xFF AND SWAP1 JUMP JUMPDEST PUSH1 0x0 PUSH8 0x7FFFFFFFFFFFFFFF NOT DUP3 SLT ISZERO DUP1 ISZERO PUSH2 0x2E69 JUMPI POP PUSH8 0x7FFFFFFFFFFFFFFF DUP3 SGT ISZERO JUMPDEST PUSH2 0x2A61 JUMPI PUSH1 0x0 DUP1 REVERT JUMPDEST PUSH1 0x0 DUP1 DUP3 PUSH1 0xF SIGNEXTEND SGT PUSH2 0x2E83 JUMPI PUSH1 0x0 DUP1 REVERT JUMPDEST PUSH1 0x80 PUSH2 0x2E8E DUP4 PUSH2 0x3CCF JUMP JUMPDEST PUSH1 0xF SIGNEXTEND PUSH16 0xB17217F7D1CF79ABC9E3B39803F2F6AF MUL SWAP1 SHR SWAP1 POP SWAP2 SWAP1 POP JUMP JUMPDEST PUSH1 0x0 DUP1 DUP3 PUSH1 0xF SIGNEXTEND SLT ISZERO PUSH2 0x2EBE JUMPI PUSH1 0x0 DUP1 REVERT JUMPDEST POP PUSH1 0xF SIGNEXTEND PUSH1 0x40 SAR SWAP1 JUMP JUMPDEST PUSH1 0x0 DUP1 PUSH2 0x455 DUP5 PUSH1 0x20 ADD MLOAD PUSH2 0xB0E DUP7 PUSH1 0x40 ADD MLOAD PUSH2 0xBDE PUSH5 0x2540BE400 DUP9 PUSH2 0x15A5 SWAP1 SWAP2 SWAP1 PUSH4 0xFFFFFFFF AND JUMP JUMPDEST PUSH1 0x0 DUP1 PUSH2 0x3B0 PUSH1 0x13 PUSH2 0x2C3E JUMP JUMPDEST PUSH1 0x60 PUSH1 0x0 PUSH2 0x2F0E DUP5 DUP5 PUSH2 0x3DAA JUMP JUMPDEST SWAP1 POP PUSH1 0x1 DUP2 MLOAD GT PUSH2 0x2F20 JUMPI SWAP1 POP PUSH2 0x3B0 JUMP JUMPDEST PUSH2 0x417 DUP2 PUSH2 0x3EC2 JUMP JUMPDEST PUSH1 0x0 DUP1 PUSH2 0x2F39 DUP5 PUSH1 0x40 ADD MLOAD PUSH2 0x4081 JUMP JUMPDEST DUP1 ISZERO PUSH2 0x2F4A JUMPI POP PUSH1 0x0 DUP5 PUSH1 0x60 ADD MLOAD SLT ISZERO JUMPDEST PUSH2 0x2F53 JUMPI PUSH1 0x0 DUP1 REVERT JUMPDEST PUSH2 0x2F76 DUP4 PUSH1 0x80 ADD MLOAD PUSH2 0xB0E DUP7 PUSH1 0x60 ADD MLOAD DUP7 PUSH1 0x60 ADD MLOAD PUSH2 0x15A5 SWAP1 SWAP2 SWAP1 PUSH4 0xFFFFFFFF AND JUMP JUMPDEST SWAP2 POP PUSH2 0x2F9B DUP4 PUSH1 0x80 ADD MLOAD PUSH2 0xB0E DUP7 PUSH1 0x60 ADD MLOAD DUP7 PUSH1 0x40 ADD MLOAD PUSH2 0x15A5 SWAP1 SWAP2 SWAP1 PUSH4 0xFFFFFFFF AND JUMP JUMPDEST SWAP1 POP SWAP3 POP SWAP3 SWAP1 POP JUMP JUMPDEST PUSH1 0x0 DUP1 PUSH2 0x2FAF PUSH2 0x4097 JUMP JUMPDEST PUSH1 0x1 PUSH1 0x1 PUSH1 0xA0 SHL SUB DUP7 AND PUSH1 0x0 SWAP1 DUP2 MSTORE PUSH1 0x20 SWAP2 DUP3 MSTORE PUSH1 0x40 DUP1 DUP3 KECCAK256 DUP8 DUP4 MSTORE DUP4 MSTORE DUP1 DUP3 KECCAK256 DUP7 DUP4 MSTORE SWAP1 SWAP3 MSTORE KECCAK256 SLOAD PUSH1 0xF SWAP1 DUP2 SIGNEXTEND SWAP1 SIGNEXTEND SWAP2 POP POP SWAP4 SWAP3 POP POP POP JUMP JUMPDEST PUSH1 0x0 PUSH1 0x2 DUP3 GT PUSH2 0x2FFB JUMPI POP PUSH1 0x0 PUSH2 0x343 JUMP JUMPDEST PUSH1 0x0 PUSH2 0x3007 DUP8 DUP8 PUSH2 0x40A4 JUMP JUMPDEST SWAP1 POP DUP1 PUSH2 0x3015 JUMPI SWAP1 POP PUSH2 0x343 JUMP JUMPDEST PUSH1 0x0 PUSH2 0x3020 DUP6 PUSH2 0x1701 JUMP JUMPDEST SWAP1 POP DUP6 DUP2 EQ ISZERO PUSH2 0x304A JUMPI POP PUSH21 0x400080000002002000000002000000200000000020 NOT AND SWAP1 POP PUSH2 0x343 JUMP JUMPDEST PUSH1 0x1 JUMPDEST DUP5 DUP2 GT PUSH2 0x308A JUMPI PUSH1 0x0 PUSH2 0x305F DUP3 PUSH2 0x1722 JUMP JUMPDEST DUP4 ADD SWAP1 POP PUSH1 0x0 PUSH2 0x306F DUP10 DUP4 PUSH2 0x40D9 JUMP JUMPDEST POP SWAP1 POP PUSH2 0x307E DUP6 DUP3 PUSH1 0x0 PUSH2 0x41E4 JUMP JUMPDEST SWAP5 POP POP POP PUSH1 0x1 ADD PUSH2 0x304D JUMP JUMPDEST POP DUP2 SWAP3 POP POP POP PUSH2 0x343 JUMP JUMPDEST PUSH1 0x0 DUP1 PUSH1 0x0 PUSH2 0x30A3 DUP5 PUSH2 0x422F JUMP JUMPDEST SWAP1 POP JUMPDEST DUP1 ISZERO PUSH2 0x3106 JUMPI PUSH1 0x0 PUSH2 0x30B8 DUP10 DUP4 PUSH2 0x4254 JUMP JUMPDEST SWAP1 POP PUSH1 0x0 PUSH2 0x30CA DUP13 DUP13 DUP5 DUP13 DUP13 DUP13 PUSH2 0x4307 JUMP JUMPDEST SWAP1 POP PUSH2 0x30D6 DUP6 DUP3 PUSH2 0x24C3 JUMP JUMPDEST SWAP5 POP PUSH1 0x0 DUP2 SLT ISZERO PUSH2 0x30E6 JUMPI PUSH1 0x1 SWAP4 POP JUMPDEST PUSH2 0x30F2 DUP7 DUP5 PUSH1 0x0 PUSH2 0x41E4 JUMP JUMPDEST SWAP6 POP PUSH2 0x30FD DUP7 PUSH2 0x422F JUMP JUMPDEST SWAP3 POP POP POP PUSH2 0x30A6 JUMP JUMPDEST POP SWAP8 POP SWAP8 SWAP6 POP POP POP POP POP POP JUMP JUMPDEST PUSH1 0x0 DUP1 PUSH2 0x3B0 PUSH1 0xF PUSH2 0x2C3E JUMP JUMPDEST PUSH1 0x0 DUP1 PUSH2 0x3B0 PUSH1 0x9 PUSH2 0x2C3E JUMP JUMPDEST PUSH1 0x0 PUSH1 0x1 PUSH1 0x46 SHL DUP3 PUSH1 0xF SIGNEXTEND SLT PUSH2 0x3142 JUMPI PUSH1 0x0 DUP1 REVERT JUMPDEST PUSH9 0x3FFFFFFFFFFFFFFFFF NOT DUP3 PUSH1 0xF SIGNEXTEND SLT ISZERO PUSH2 0x315F JUMPI POP PUSH1 0x0 PUSH2 0x89B JUMP JUMPDEST PUSH1 0x1 PUSH1 0x7F SHL PUSH1 0x0 PUSH1 0x1 PUSH1 0x3F SHL DUP5 AND PUSH1 0xF SIGNEXTEND SGT ISZERO PUSH2 0x318D JUMPI PUSH17 0x16A09E667F3BCC908B2FB1366EA957D3E MUL PUSH1 0x80 SHR JUMPDEST PUSH1 0x0 DUP4 PUSH8 0x4000000000000000 AND PUSH1 0xF SIGNEXTEND SGT ISZERO PUSH2 0x31BA JUMPI PUSH17 0x1306FE0A31B7152DE8D5A46305C85EDEC MUL PUSH1 0x80 SHR JUMPDEST PUSH1 0x0 DUP4 PUSH8 0x2000000000000000 AND PUSH1 0xF SIGNEXTEND SGT ISZERO PUSH2 0x31E7 JUMPI PUSH17 0x1172B83C7D517ADCDF7C8C50EB14A791F MUL PUSH1 0x80 SHR JUMPDEST PUSH1 0x0 DUP4 PUSH8 0x1000000000000000 AND PUSH1 0xF SIGNEXTEND SGT ISZERO PUSH2 0x3214 JUMPI PUSH17 0x10B5586CF9890F6298B92B71842A98363 MUL PUSH1 0x80 SHR JUMPDEST PUSH1 0x0 DUP4 PUSH8 0x800000000000000 AND PUSH1 0xF SIGNEXTEND SGT ISZERO PUSH2 0x3241 JUMPI PUSH17 0x1059B0D31585743AE7C548EB68CA417FD MUL PUSH1 0x80 SHR JUMPDEST PUSH1 0x0 DUP4 PUSH8 0x400000000000000 AND PUSH1 0xF SIGNEXTEND SGT ISZERO PUSH2 0x326E JUMPI PUSH17 0x102C9A3E778060EE6F7CACA4F7A29BDE8 MUL PUSH1 0x80 SHR JUMPDEST PUSH1 0x0 DUP4 PUSH8 0x200000000000000 AND PUSH1 0xF SIGNEXTEND SGT ISZERO PUSH2 0x329B JUMPI PUSH17 0x10163DA9FB33356D84A66AE336DCDFA3F MUL PUSH1 0x80 SHR JUMPDEST PUSH1 0x0 DUP4 PUSH1 0x1 PUSH1 0x38 SHL AND PUSH1 0xF SIGNEXTEND SGT ISZERO PUSH2 0x32C4 JUMPI PUSH17 0x100B1AFA5ABCBED6129AB13EC11DC9543 MUL PUSH1 0x80 SHR JUMPDEST PUSH1 0x0 DUP4 PUSH7 0x80000000000000 AND PUSH1 0xF SIGNEXTEND SGT ISZERO PUSH2 0x32F0 JUMPI PUSH17 0x10058C86DA1C09EA1FF19D294CF2F679B MUL PUSH1 0x80 SHR JUMPDEST PUSH1 0x0 DUP4 PUSH7 0x40000000000000 AND PUSH1 0xF SIGNEXTEND SGT ISZERO PUSH2 0x331C JUMPI PUSH17 0x1002C605E2E8CEC506D21BFC89A23A00F MUL PUSH1 0x80 SHR JUMPDEST PUSH1 0x0 DUP4 PUSH7 0x20000000000000 AND PUSH1 0xF SIGNEXTEND SGT ISZERO PUSH2 0x3348 JUMPI PUSH17 0x100162F3904051FA128BCA9C55C31E5DF MUL PUSH1 0x80 SHR JUMPDEST PUSH1 0x0 DUP4 PUSH7 0x10000000000000 AND PUSH1 0xF SIGNEXTEND SGT ISZERO PUSH2 0x3374 JUMPI PUSH17 0x1000B175EFFDC76BA38E31671CA939725 MUL PUSH1 0x80 SHR JUMPDEST PUSH1 0x0 DUP4 PUSH7 0x8000000000000 AND PUSH1 0xF SIGNEXTEND SGT ISZERO PUSH2 0x33A0 JUMPI PUSH17 0x100058BA01FB9F96D6CACD4B180917C3D MUL PUSH1 0x80 SHR JUMPDEST PUSH1 0x0 DUP4 PUSH7 0x4000000000000 AND PUSH1 0xF SIGNEXTEND SGT ISZERO PUSH2 0x33CC JUMPI PUSH17 0x10002C5CC37DA9491D0985C348C68E7B3 MUL PUSH1 0x80 SHR JUMPDEST PUSH1 0x0 DUP4 PUSH7 0x2000000000000 AND PUSH1 0xF SIGNEXTEND SGT ISZERO PUSH2 0x33F8 JUMPI PUSH17 0x1000162E525EE054754457D5995292026 MUL PUSH1 0x80 SHR JUMPDEST PUSH1 0x0 DUP4 PUSH1 0x1 PUSH1 0x30 SHL AND PUSH1 0xF SIGNEXTEND SGT ISZERO PUSH2 0x3421 JUMPI PUSH17 0x10000B17255775C040618BF4A4ADE83FC MUL PUSH1 0x80 SHR JUMPDEST PUSH1 0x0 DUP4 PUSH6 0x800000000000 AND PUSH1 0xF SIGNEXTEND SGT ISZERO PUSH2 0x344C JUMPI PUSH17 0x1000058B91B5BC9AE2EED81E9B7D4CFAB MUL PUSH1 0x80 SHR JUMPDEST PUSH1 0x0 DUP4 PUSH6 0x400000000000 AND PUSH1 0xF SIGNEXTEND SGT ISZERO PUSH2 0x3477 JUMPI PUSH17 0x100002C5C89D5EC6CA4D7C8ACC017B7C9 MUL PUSH1 0x80 SHR JUMPDEST PUSH1 0x0 DUP4 PUSH6 0x200000000000 AND PUSH1 0xF SIGNEXTEND SGT ISZERO PUSH2 0x34A2 JUMPI PUSH17 0x10000162E43F4F831060E02D839A9D16D MUL PUSH1 0x80 SHR JUMPDEST PUSH1 0x0 DUP4 PUSH6 0x100000000000 AND PUSH1 0xF SIGNEXTEND SGT ISZERO PUSH2 0x34CD JUMPI PUSH17 0x100000B1721BCFC99D9F890EA06911763 MUL PUSH1 0x80 SHR JUMPDEST PUSH1 0x0 DUP4 PUSH6 0x80000000000 AND PUSH1 0xF SIGNEXTEND SGT ISZERO PUSH2 0x34F8 JUMPI PUSH17 0x10000058B90CF1E6D97F9CA14DBCC1628 MUL PUSH1 0x80 SHR JUMPDEST PUSH1 0x0 DUP4 PUSH6 0x40000000000 AND PUSH1 0xF SIGNEXTEND SGT ISZERO PUSH2 0x3523 JUMPI PUSH17 0x1000002C5C863B73F016468F6BAC5CA2B MUL PUSH1 0x80 SHR JUMPDEST PUSH1 0x0 DUP4 PUSH6 0x20000000000 AND PUSH1 0xF SIGNEXTEND SGT ISZERO PUSH2 0x354E JUMPI PUSH17 0x100000162E430E5A18F6119E3C02282A5 MUL PUSH1 0x80 SHR JUMPDEST PUSH1 0x0 DUP4 PUSH6 0x10000000000 AND PUSH1 0xF SIGNEXTEND SGT ISZERO PUSH2 0x3579 JUMPI PUSH17 0x1000000B1721835514B86E6D96EFD1BFE MUL PUSH1 0x80 SHR JUMPDEST PUSH1 0x0 DUP4 PUSH5 0x8000000000 AND PUSH1 0xF SIGNEXTEND SGT ISZERO PUSH2 0x35A3 JUMPI PUSH17 0x100000058B90C0B48C6BE5DF846C5B2EF MUL PUSH1 0x80 SHR JUMPDEST PUSH1 0x0 DUP4 PUSH5 0x4000000000 AND PUSH1 0xF SIGNEXTEND SGT ISZERO PUSH2 0x35CD JUMPI PUSH17 0x10000002C5C8601CC6B9E94213C72737A MUL PUSH1 0x80 SHR JUMPDEST PUSH1 0x0 DUP4 PUSH5 0x2000000000 AND PUSH1 0xF SIGNEXTEND SGT ISZERO PUSH2 0x35F7 JUMPI PUSH17 0x1000000162E42FFF037DF38AA2B219F06 MUL PUSH1 0x80 SHR JUMPDEST PUSH1 0x0 DUP4 PUSH5 0x1000000000 AND PUSH1 0xF SIGNEXTEND SGT ISZERO PUSH2 0x3621 JUMPI PUSH17 0x10000000B17217FBA9C739AA5819F44F9 MUL PUSH1 0x80 SHR JUMPDEST PUSH1 0x0 DUP4 PUSH5 0x800000000 AND PUSH1 0xF SIGNEXTEND SGT ISZERO PUSH2 0x364B JUMPI PUSH17 0x1000000058B90BFCDEE5ACD3C1CEDC823 MUL PUSH1 0x80 SHR JUMPDEST PUSH1 0x0 DUP4 PUSH5 0x400000000 AND PUSH1 0xF SIGNEXTEND SGT ISZERO PUSH2 0x3675 JUMPI PUSH17 0x100000002C5C85FE31F35A6A30DA1BE50 MUL PUSH1 0x80 SHR JUMPDEST PUSH1 0x0 DUP4 PUSH5 0x200000000 AND PUSH1 0xF SIGNEXTEND SGT ISZERO PUSH2 0x369F JUMPI PUSH17 0x10000000162E42FF0999CE3541B9FFFCF MUL PUSH1 0x80 SHR JUMPDEST PUSH1 0x0 DUP4 PUSH5 0x100000000 AND PUSH1 0xF SIGNEXTEND SGT ISZERO PUSH2 0x36C9 JUMPI PUSH17 0x100000000B17217F80F4EF5AADDA45554 MUL PUSH1 0x80 SHR JUMPDEST PUSH1 0x0 DUP4 PUSH4 0x80000000 AND PUSH1 0xF SIGNEXTEND SGT ISZERO PUSH2 0x36F2 JUMPI PUSH17 0x10000000058B90BFBF8479BD5A81B51AD MUL PUSH1 0x80 SHR JUMPDEST PUSH1 0x0 DUP4 PUSH4 0x40000000 AND PUSH1 0xF SIGNEXTEND SGT ISZERO PUSH2 0x371B JUMPI PUSH17 0x1000000002C5C85FDF84BD62AE30A74CC MUL PUSH1 0x80 SHR JUMPDEST PUSH1 0x0 DUP4 PUSH4 0x20000000 AND PUSH1 0xF SIGNEXTEND SGT ISZERO PUSH2 0x3744 JUMPI PUSH17 0x100000000162E42FEFB2FED257559BDAA MUL PUSH1 0x80 SHR JUMPDEST PUSH1 0x0 DUP4 PUSH4 0x10000000 AND PUSH1 0xF SIGNEXTEND SGT ISZERO PUSH2 0x376D JUMPI PUSH17 0x1000000000B17217F7D5A7716BBA4A9AE MUL PUSH1 0x80 SHR JUMPDEST PUSH1 0x0 DUP4 PUSH4 0x8000000 AND PUSH1 0xF SIGNEXTEND SGT ISZERO PUSH2 0x3796 JUMPI PUSH17 0x100000000058B90BFBE9DDBAC5E109CCE MUL PUSH1 0x80 SHR JUMPDEST PUSH1 0x0 DUP4 PUSH4 0x4000000 AND PUSH1 0xF SIGNEXTEND SGT ISZERO PUSH2 0x37BF JUMPI PUSH17 0x10000000002C5C85FDF4B15DE6F17EB0D MUL PUSH1 0x80 SHR JUMPDEST PUSH1 0x0 DUP4 PUSH4 0x2000000 AND PUSH1 0xF SIGNEXTEND SGT ISZERO PUSH2 0x37E8 JUMPI PUSH17 0x1000000000162E42FEFA494F1478FDE05 MUL PUSH1 0x80 SHR JUMPDEST PUSH1 0x0 DUP4 PUSH4 0x1000000 AND PUSH1 0xF SIGNEXTEND SGT ISZERO PUSH2 0x3811 JUMPI PUSH17 0x10000000000B17217F7D20CF927C8E94C MUL PUSH1 0x80 SHR JUMPDEST PUSH1 0x0 DUP4 PUSH3 0x800000 AND PUSH1 0xF SIGNEXTEND SGT ISZERO PUSH2 0x3839 JUMPI PUSH17 0x1000000000058B90BFBE8F71CB4E4B33D MUL PUSH1 0x80 SHR JUMPDEST PUSH1 0x0 DUP4 PUSH3 0x400000 AND PUSH1 0xF SIGNEXTEND SGT ISZERO PUSH2 0x3861 JUMPI PUSH17 0x100000000002C5C85FDF477B662B26945 MUL PUSH1 0x80 SHR JUMPDEST PUSH1 0x0 DUP4 PUSH3 0x200000 AND PUSH1 0xF SIGNEXTEND SGT ISZERO PUSH2 0x3889 JUMPI PUSH17 0x10000000000162E42FEFA3AE53369388C MUL PUSH1 0x80 SHR JUMPDEST PUSH1 0x0 DUP4 PUSH3 0x100000 AND PUSH1 0xF SIGNEXTEND SGT ISZERO PUSH2 0x38B1 JUMPI PUSH17 0x100000000000B17217F7D1D351A389D40 MUL PUSH1 0x80 SHR JUMPDEST PUSH1 0x0 DUP4 PUSH3 0x80000 AND PUSH1 0xF SIGNEXTEND SGT ISZERO PUSH2 0x38D9 JUMPI PUSH17 0x10000000000058B90BFBE8E8B2D3D4EDE MUL PUSH1 0x80 SHR JUMPDEST PUSH1 0x0 DUP4 PUSH3 0x40000 AND PUSH1 0xF SIGNEXTEND SGT ISZERO PUSH2 0x3901 JUMPI PUSH17 0x1000000000002C5C85FDF4741BEA6E77E MUL PUSH1 0x80 SHR JUMPDEST PUSH1 0x0 DUP4 PUSH3 0x20000 AND PUSH1 0xF SIGNEXTEND SGT ISZERO PUSH2 0x3929 JUMPI PUSH17 0x100000000000162E42FEFA39FE95583C2 MUL PUSH1 0x80 SHR JUMPDEST PUSH1 0x0 DUP4 PUSH3 0x10000 AND PUSH1 0xF SIGNEXTEND SGT ISZERO PUSH2 0x3951 JUMPI PUSH17 0x1000000000000B17217F7D1CFB72B45E1 MUL PUSH1 0x80 SHR JUMPDEST PUSH1 0x0 DUP4 PUSH2 0x8000 AND PUSH1 0xF SIGNEXTEND SGT ISZERO PUSH2 0x3978 JUMPI PUSH17 0x100000000000058B90BFBE8E7CC35C3F0 MUL PUSH1 0x80 SHR JUMPDEST PUSH1 0x0 DUP4 PUSH2 0x4000 AND PUSH1 0xF SIGNEXTEND SGT ISZERO PUSH2 0x399F JUMPI PUSH17 0x10000000000002C5C85FDF473E242EA38 MUL PUSH1 0x80 SHR JUMPDEST PUSH1 0x0 DUP4 PUSH2 0x2000 AND PUSH1 0xF SIGNEXTEND SGT ISZERO PUSH2 0x39C6 JUMPI PUSH17 0x1000000000000162E42FEFA39F02B772C MUL PUSH1 0x80 SHR JUMPDEST PUSH1 0x0 DUP4 PUSH2 0x1000 AND PUSH1 0xF SIGNEXTEND SGT ISZERO PUSH2 0x39ED JUMPI PUSH17 0x10000000000000B17217F7D1CF7D83C1A MUL PUSH1 0x80 SHR JUMPDEST PUSH1 0x0 DUP4 PUSH2 0x800 AND PUSH1 0xF SIGNEXTEND SGT ISZERO PUSH2 0x3A14 JUMPI PUSH17 0x1000000000000058B90BFBE8E7BDCBE2E MUL PUSH1 0x80 SHR JUMPDEST PUSH1 0x0 DUP4 PUSH2 0x400 AND PUSH1 0xF SIGNEXTEND SGT ISZERO PUSH2 0x3A3B JUMPI PUSH17 0x100000000000002C5C85FDF473DEA871F MUL PUSH1 0x80 SHR JUMPDEST PUSH1 0x0 DUP4 PUSH2 0x200 AND PUSH1 0xF SIGNEXTEND SGT ISZERO PUSH2 0x3A62 JUMPI PUSH17 0x10000000000000162E42FEFA39EF44D91 MUL PUSH1 0x80 SHR JUMPDEST PUSH1 0x0 DUP4 PUSH2 0x100 AND PUSH1 0xF SIGNEXTEND SGT ISZERO PUSH2 0x3A89 JUMPI PUSH17 0x100000000000000B17217F7D1CF79E949 MUL PUSH1 0x80 SHR JUMPDEST PUSH1 0x0 DUP4 PUSH1 0x80 AND PUSH1 0xF SIGNEXTEND SGT ISZERO PUSH2 0x3AAF JUMPI PUSH17 0x10000000000000058B90BFBE8E7BCE544 MUL PUSH1 0x80 SHR JUMPDEST PUSH1 0x0 DUP4 PUSH1 0x40 AND PUSH1 0xF SIGNEXTEND SGT ISZERO PUSH2 0x3AD5 JUMPI PUSH17 0x1000000000000002C5C85FDF473DE6ECA MUL PUSH1 0x80 SHR JUMPDEST PUSH1 0x0 DUP4 PUSH1 0x20 AND PUSH1 0xF SIGNEXTEND SGT ISZERO PUSH2 0x3AFB JUMPI PUSH17 0x100000000000000162E42FEFA39EF366F MUL PUSH1 0x80 SHR JUMPDEST PUSH1 0x0 DUP4 PUSH1 0x10 AND PUSH1 0xF SIGNEXTEND SGT ISZERO PUSH2 0x3B21 JUMPI PUSH17 0x1000000000000000B17217F7D1CF79AFA MUL PUSH1 0x80 SHR JUMPDEST PUSH1 0x0 DUP4 PUSH1 0x8 AND PUSH1 0xF SIGNEXTEND SGT ISZERO PUSH2 0x3B47 JUMPI PUSH17 0x100000000000000058B90BFBE8E7BCD6D MUL PUSH1 0x80 SHR JUMPDEST PUSH1 0x0 DUP4 PUSH1 0x4 AND PUSH1 0xF SIGNEXTEND SGT ISZERO PUSH2 0x3B6D JUMPI PUSH17 0x10000000000000002C5C85FDF473DE6B2 MUL PUSH1 0x80 SHR JUMPDEST PUSH1 0x0 DUP4 PUSH1 0x2 AND PUSH1 0xF SIGNEXTEND SGT ISZERO PUSH2 0x3B93 JUMPI PUSH17 0x1000000000000000162E42FEFA39EF358 MUL PUSH1 0x80 SHR JUMPDEST PUSH1 0x0 DUP4 PUSH1 0x1 AND PUSH1 0xF SIGNEXTEND SGT ISZERO PUSH2 0x3BB9 JUMPI PUSH17 0x10000000000000000B17217F7D1CF79AB MUL PUSH1 0x80 SHR JUMPDEST PUSH1 0xF DUP4 DUP2 SIGNEXTEND PUSH1 0x40 SAR PUSH1 0x3F SUB SWAP1 SIGNEXTEND SHR PUSH1 0x1 PUSH1 0x1 PUSH1 0x7F SHL SUB DUP2 GT ISZERO PUSH2 0x3B0 JUMPI PUSH1 0x0 DUP1 REVERT JUMPDEST PUSH1 0x0 PUSH2 0x3BE5 PUSH2 0x2C85 JUMP JUMPDEST PUSH1 0x0 DUP7 DUP2 MSTORE PUSH1 0x20 DUP3 DUP2 MSTORE PUSH1 0x40 DUP1 DUP4 KECCAK256 DUP9 DUP5 MSTORE DUP3 MSTORE DUP1 DUP4 KECCAK256 DUP7 DUP5 MSTORE DUP3 MSTORE SWAP2 DUP3 SWAP1 KECCAK256 DUP1 DUP11 MSTORE SWAP1 DUP10 ADD DUP8 SWAP1 MSTORE DUP1 SLOAD PUSH10 0xFFFFFFFFFFFFFFFFFFFF DUP1 DUP3 AND SWAP4 DUP12 ADD SWAP4 SWAP1 SWAP4 MSTORE PUSH1 0x1 PUSH1 0x50 SHL DUP2 DIV SWAP1 SWAP3 AND PUSH1 0x60 DUP11 ADD MSTORE PUSH4 0xFFFFFFFF PUSH1 0x1 PUSH1 0xA0 SHL DUP4 DIV DUP2 AND PUSH1 0xA0 DUP12 ADD MSTORE PUSH1 0x1 PUSH1 0xC0 SHL DUP4 DIV DUP2 AND PUSH1 0xC0 DUP12 ADD MSTORE PUSH1 0x1 PUSH1 0xE0 SHL SWAP1 SWAP3 DIV SWAP1 SWAP2 AND PUSH1 0xE0 DUP10 ADD MSTORE SWAP1 SWAP2 POP DUP1 DUP5 ISZERO PUSH2 0x3C8A JUMPI PUSH1 0x1 DUP3 ADD SLOAD PUSH10 0xFFFFFFFFFFFFFFFFFFFF AND PUSH1 0x80 DUP10 ADD MSTORE PUSH2 0x3C92 JUMP JUMPDEST PUSH1 0x0 PUSH1 0x80 DUP10 ADD MSTORE JUMPDEST POP POP POP POP POP POP POP POP JUMP JUMPDEST PUSH1 0x0 PUSH1 0xF DUP3 DUP2 SIGNEXTEND SWAP1 DUP5 SWAP1 SIGNEXTEND SUB PUSH1 0x1 PUSH1 0x1 PUSH1 0x7F SHL SUB NOT DUP2 SLT DUP1 ISZERO SWAP1 PUSH2 0x2AB2 JUMPI POP PUSH1 0x1 PUSH1 0x1 PUSH1 0x7F SHL SUB DUP2 SGT ISZERO PUSH2 0x417 JUMPI PUSH1 0x0 DUP1 REVERT JUMPDEST PUSH1 0x0 DUP1 DUP3 PUSH1 0xF SIGNEXTEND SGT PUSH2 0x3CE0 JUMPI PUSH1 0x0 DUP1 REVERT JUMPDEST PUSH1 0x0 PUSH1 0xF DUP4 SWAP1 SIGNEXTEND PUSH1 0x1 PUSH1 0x40 SHL DUP2 SLT PUSH2 0x3CFA JUMPI PUSH1 0x40 SWAP2 DUP3 ADD SWAP2 SAR JUMPDEST PUSH5 0x100000000 DUP2 SLT PUSH2 0x3D0E JUMPI PUSH1 0x20 SWAP2 DUP3 ADD SWAP2 SAR JUMPDEST PUSH3 0x10000 DUP2 SLT PUSH2 0x3D20 JUMPI PUSH1 0x10 SWAP2 DUP3 ADD SWAP2 SAR JUMPDEST PUSH2 0x100 DUP2 SLT PUSH2 0x3D31 JUMPI PUSH1 0x8 SWAP2 DUP3 ADD SWAP2 SAR JUMPDEST PUSH1 0x10 DUP2 SLT PUSH2 0x3D41 JUMPI PUSH1 0x4 SWAP2 DUP3 ADD SWAP2 SAR JUMPDEST PUSH1 0x4 DUP2 SLT PUSH2 0x3D51 JUMPI PUSH1 0x2 SWAP2 DUP3 ADD SWAP2 SAR JUMPDEST PUSH1 0x2 DUP2 SLT PUSH2 0x3D60 JUMPI PUSH1 0x1 DUP3 ADD SWAP2 POP JUMPDEST PUSH1 0x3F NOT DUP3 ADD PUSH1 0x40 SHL PUSH1 0xF DUP6 SWAP1 SIGNEXTEND PUSH1 0x7F DUP5 SWAP1 SUB SHL PUSH1 0x1 PUSH1 0x3F SHL JUMPDEST PUSH1 0x0 DUP2 SGT ISZERO PUSH2 0x3D9F JUMPI SWAP1 DUP1 MUL PUSH1 0xFF DUP2 SWAP1 SHR DUP3 DUP2 MUL SWAP4 SWAP1 SWAP4 ADD SWAP3 PUSH1 0x7F ADD SHR SWAP1 PUSH1 0x1 SAR PUSH2 0x3D79 JUMP JUMPDEST POP SWAP1 SWAP6 SWAP5 POP POP POP POP POP JUMP JUMPDEST PUSH1 0x60 PUSH1 0x10 DUP3 PUSH1 0xFF AND GT ISZERO PUSH2 0x3DBD JUMPI PUSH1 0x0 DUP1 REVERT JUMPDEST PUSH1 0x0 PUSH2 0x3DC7 PUSH2 0x435C JUMP JUMPDEST PUSH1 0x1 PUSH1 0x1 PUSH1 0xA0 SHL SUB DUP6 AND PUSH1 0x0 SWAP1 DUP2 MSTORE PUSH1 0x20 DUP3 SWAP1 MSTORE PUSH1 0x40 DUP2 KECCAK256 SWAP2 SWAP3 POP PUSH1 0xFF DUP6 AND PUSH8 0xFFFFFFFFFFFFFFFF DUP2 GT DUP1 ISZERO PUSH2 0x3DFC JUMPI PUSH1 0x0 DUP1 REVERT JUMPDEST POP PUSH1 0x40 MLOAD SWAP1 DUP1 DUP3 MSTORE DUP1 PUSH1 0x20 MUL PUSH1 0x20 ADD DUP3 ADD PUSH1 0x40 MSTORE DUP1 ISZERO PUSH2 0x3E36 JUMPI DUP2 PUSH1 0x20 ADD JUMPDEST PUSH2 0x3E23 PUSH2 0x4642 JUMP JUMPDEST DUP2 MSTORE PUSH1 0x20 ADD SWAP1 PUSH1 0x1 SWAP1 SUB SWAP1 DUP2 PUSH2 0x3E1B JUMPI SWAP1 POP JUMPDEST POP SWAP1 POP PUSH1 0x0 JUMPDEST DUP6 PUSH1 0xFF AND DUP2 LT ISZERO PUSH2 0x5A2 JUMPI PUSH1 0x0 DUP4 DUP3 PUSH1 0x10 DUP2 LT PUSH2 0x3E55 JUMPI INVALID JUMPDEST ADD SWAP1 POP PUSH1 0x0 DUP4 DUP4 DUP2 MLOAD DUP2 LT PUSH2 0x3E66 JUMPI INVALID JUMPDEST PUSH1 0x20 SWAP1 DUP2 MUL SWAP2 SWAP1 SWAP2 ADD DUP2 ADD MLOAD DUP4 SLOAD PUSH2 0xFFFF DUP2 AND DUP3 MSTORE PUSH5 0xFFFFFFFFFF PUSH3 0x10000 DUP3 DIV AND SWAP3 DUP3 ADD SWAP3 SWAP1 SWAP3 MSTORE PUSH1 0xFF PUSH1 0x1 PUSH1 0x38 SHL DUP4 DIV AND PUSH1 0x40 DUP3 ADD MSTORE PUSH1 0x1 PUSH1 0x40 SHL SWAP1 SWAP2 DIV PUSH1 0xA SWAP1 DUP2 SIGNEXTEND SWAP1 SIGNEXTEND PUSH1 0x60 DUP3 ADD MSTORE PUSH1 0x80 ADD SWAP2 SWAP1 SWAP2 MSTORE POP PUSH1 0x1 ADD PUSH2 0x3E3C JUMP JUMPDEST DUP1 MLOAD PUSH1 0x0 DUP2 PUSH8 0xFFFFFFFFFFFFFFFF DUP2 GT DUP1 ISZERO PUSH2 0x3EDD JUMPI PUSH1 0x0 DUP1 REVERT JUMPDEST POP PUSH1 0x40 MLOAD SWAP1 DUP1 DUP3 MSTORE DUP1 PUSH1 0x20 MUL PUSH1 0x20 ADD DUP3 ADD PUSH1 0x40 MSTORE DUP1 ISZERO PUSH2 0x3F07 JUMPI DUP2 PUSH1 0x20 ADD PUSH1 0x20 DUP3 MUL DUP1 CALLDATASIZE DUP4 CALLDATACOPY ADD SWAP1 POP JUMPDEST POP SWAP1 POP PUSH1 0x0 JUMPDEST DUP3 DUP2 LT ISZERO PUSH2 0x3F64 JUMPI PUSH1 0x0 DUP5 DUP3 DUP2 MLOAD DUP2 LT PUSH2 0x3F23 JUMPI INVALID JUMPDEST PUSH1 0x20 MUL PUSH1 0x20 ADD ADD MLOAD SWAP1 POP PUSH2 0x3F44 DUP2 PUSH1 0x0 ADD MLOAD DUP3 PUSH1 0x20 ADD MLOAD DUP4 PUSH1 0x40 ADD MLOAD PUSH2 0x4369 JUMP JUMPDEST DUP4 DUP4 DUP2 MLOAD DUP2 LT PUSH2 0x3F50 JUMPI INVALID JUMPDEST PUSH1 0x20 SWAP1 DUP2 MUL SWAP2 SWAP1 SWAP2 ADD ADD MSTORE POP PUSH1 0x1 ADD PUSH2 0x3F0D JUMP JUMPDEST POP PUSH1 0x1 JUMPDEST DUP3 DUP2 LT ISZERO PUSH2 0x407B JUMPI DUP1 JUMPDEST PUSH1 0x0 DUP2 GT DUP1 ISZERO PUSH2 0x3FAA JUMPI POP DUP3 DUP2 DUP2 MLOAD DUP2 LT PUSH2 0x3F89 JUMPI INVALID JUMPDEST PUSH1 0x20 MUL PUSH1 0x20 ADD ADD MLOAD DUP4 PUSH1 0x1 DUP4 SUB DUP2 MLOAD DUP2 LT PUSH2 0x3FA0 JUMPI INVALID JUMPDEST PUSH1 0x20 MUL PUSH1 0x20 ADD ADD MLOAD GT JUMPDEST ISZERO PUSH2 0x4072 JUMPI DUP3 DUP2 DUP2 MLOAD DUP2 LT PUSH2 0x3FBB JUMPI INVALID JUMPDEST PUSH1 0x20 MUL PUSH1 0x20 ADD ADD MLOAD DUP4 PUSH1 0x1 DUP4 SUB DUP2 MLOAD DUP2 LT PUSH2 0x3FD2 JUMPI INVALID JUMPDEST PUSH1 0x20 MUL PUSH1 0x20 ADD ADD MLOAD DUP5 PUSH1 0x1 DUP5 SUB DUP2 MLOAD DUP2 LT PUSH2 0x3FE9 JUMPI INVALID JUMPDEST PUSH1 0x20 MUL PUSH1 0x20 ADD ADD DUP6 DUP5 DUP2 MLOAD DUP2 LT PUSH2 0x3FFC JUMPI INVALID JUMPDEST PUSH1 0x20 MUL PUSH1 0x20 ADD ADD DUP3 DUP2 MSTORE POP DUP3 DUP2 MSTORE POP POP POP DUP5 DUP2 DUP2 MLOAD DUP2 LT PUSH2 0x4019 JUMPI INVALID JUMPDEST PUSH1 0x20 MUL PUSH1 0x20 ADD ADD MLOAD DUP6 PUSH1 0x1 DUP4 SUB DUP2 MLOAD DUP2 LT PUSH2 0x4030 JUMPI INVALID JUMPDEST PUSH1 0x20 MUL PUSH1 0x20 ADD ADD MLOAD DUP7 PUSH1 0x1 DUP5 SUB DUP2 MLOAD DUP2 LT PUSH2 0x4047 JUMPI INVALID JUMPDEST PUSH1 0x20 MUL PUSH1 0x20 ADD ADD DUP8 DUP5 DUP2 MLOAD DUP2 LT PUSH2 0x405A JUMPI INVALID JUMPDEST PUSH1 0x20 SWAP1 DUP2 MUL SWAP2 SWAP1 SWAP2 ADD ADD SWAP2 SWAP1 SWAP2 MSTORE MSTORE PUSH1 0x0 NOT ADD PUSH2 0x3F72 JUMP JUMPDEST POP PUSH1 0x1 ADD PUSH2 0x3F68 JUMP JUMPDEST POP POP POP POP JUMP JUMPDEST PUSH1 0x0 PUSH1 0x2 DUP3 LT DUP1 ISZERO SWAP1 PUSH2 0x3B0 JUMPI POP POP PUSH1 0x8 LT ISZERO SWAP1 JUMP JUMPDEST PUSH1 0x0 DUP1 PUSH2 0x3B0 PUSH1 0xC PUSH2 0x2C3E JUMP JUMPDEST PUSH1 0x0 DUP1 PUSH2 0x40AF PUSH2 0x43C4 JUMP JUMPDEST PUSH1 0x1 PUSH1 0x1 PUSH1 0xA0 SHL SUB DUP6 AND PUSH1 0x0 SWAP1 DUP2 MSTORE PUSH1 0x20 SWAP2 DUP3 MSTORE PUSH1 0x40 DUP1 DUP3 KECCAK256 DUP7 DUP4 MSTORE SWAP1 SWAP3 MSTORE KECCAK256 SLOAD SWAP2 POP POP SWAP3 SWAP2 POP POP JUMP JUMPDEST PUSH1 0x0 DUP1 PUSH1 0x0 PUSH2 0x40E7 DUP6 PUSH2 0x43D1 JUMP JUMPDEST SWAP1 POP PUSH3 0x15180 DUP5 MOD ISZERO PUSH2 0x4101 JUMPI PUSH1 0x0 DUP1 SWAP3 POP SWAP3 POP POP PUSH2 0x41DD JUMP JUMPDEST DUP4 DUP2 LT PUSH2 0x4115 JUMPI PUSH1 0x0 DUP1 SWAP3 POP SWAP3 POP POP PUSH2 0x41DD JUMP JUMPDEST PUSH3 0x15180 DUP2 DUP6 SUB DIV PUSH1 0x5A DUP2 GT PUSH2 0x4132 JUMPI SWAP3 POP PUSH1 0x1 SWAP2 POP PUSH2 0x41DD SWAP1 POP JUMP JUMPDEST PUSH2 0x168 DUP2 GT PUSH2 0x4171 JUMPI PUSH1 0x0 PUSH3 0x15180 PUSH3 0x7E900 DUP5 MOD DIV DUP3 ADD PUSH1 0x59 NOT ADD SWAP1 POP PUSH1 0x6 DUP2 DIV PUSH1 0x5A ADD PUSH1 0x6 DUP3 DUP2 PUSH2 0x4161 JUMPI INVALID JUMPDEST MOD PUSH1 0x0 EQ SWAP5 POP SWAP5 POP POP POP POP PUSH2 0x41DD JUMP JUMPDEST PUSH2 0x870 DUP2 GT PUSH2 0x41A1 JUMPI PUSH1 0x0 PUSH3 0x15180 PUSH3 0x278D00 DUP5 MOD DIV DUP3 ADD PUSH2 0x167 NOT ADD SWAP1 POP PUSH1 0x1E DUP2 DIV PUSH1 0x87 ADD PUSH1 0x1E DUP3 DUP2 PUSH2 0x4161 JUMPI INVALID JUMPDEST PUSH2 0x1DE2 DUP2 GT PUSH2 0x41D1 JUMPI PUSH1 0x0 PUSH3 0x15180 PUSH3 0x76A700 DUP5 MOD DIV DUP3 ADD PUSH2 0x86F NOT ADD SWAP1 POP PUSH1 0x5A DUP2 DIV PUSH1 0xC3 ADD PUSH1 0x5A DUP3 DUP2 PUSH2 0x4161 JUMPI INVALID JUMPDEST PUSH2 0x100 PUSH1 0x0 SWAP4 POP SWAP4 POP POP POP JUMPDEST SWAP3 POP SWAP3 SWAP1 POP JUMP JUMPDEST PUSH1 0x0 PUSH1 0x1 DUP4 LT ISZERO DUP1 ISZERO PUSH2 0x41F9 JUMPI POP PUSH2 0x100 DUP4 GT ISZERO JUMPDEST PUSH2 0x4202 JUMPI PUSH1 0x0 DUP1 REVERT JUMPDEST DUP2 ISZERO PUSH2 0x421B JUMPI POP PUSH1 0x1 PUSH1 0xFF SHL PUSH1 0x0 NOT DUP4 ADD SHR DUP4 OR PUSH2 0x417 JUMP JUMPDEST POP PUSH1 0x1 PUSH1 0xFF SHL PUSH1 0x0 NOT DUP4 ADD SHR NOT DUP4 AND PUSH2 0x417 JUMP JUMPDEST PUSH1 0x0 DUP2 PUSH2 0x423E JUMPI POP PUSH1 0x0 PUSH2 0x89B JUMP JUMPDEST PUSH2 0x4247 DUP3 PUSH2 0x43ED JUMP JUMPDEST PUSH1 0xFF SUB PUSH1 0x1 ADD SWAP1 POP SWAP2 SWAP1 POP JUMP JUMPDEST PUSH1 0x0 DUP2 PUSH2 0x4260 JUMPI PUSH1 0x0 DUP1 REVERT JUMPDEST PUSH2 0x100 DUP3 GT ISZERO PUSH2 0x426F JUMPI PUSH1 0x0 DUP1 REVERT JUMPDEST PUSH1 0x0 PUSH2 0x427A DUP5 PUSH2 0x43D1 JUMP JUMPDEST SWAP1 POP PUSH1 0x0 PUSH1 0x5A DUP5 GT PUSH2 0x4295 JUMPI POP PUSH3 0x15180 DUP4 MUL ADD SWAP1 POP PUSH2 0x3B0 JUMP JUMPDEST PUSH1 0x87 DUP5 GT PUSH2 0x42BD JUMPI POP PUSH1 0x59 NOT DUP4 ADD PUSH3 0x7E900 SWAP1 DUP2 MUL SWAP1 DUP3 MOD SWAP1 SWAP2 SUB ADD PUSH3 0x76A700 ADD SWAP1 POP PUSH2 0x3B0 JUMP JUMPDEST PUSH1 0xC3 DUP5 GT PUSH2 0x42E6 JUMPI POP PUSH1 0x86 NOT DUP4 ADD PUSH3 0x278D00 SWAP1 DUP2 MUL SWAP1 DUP3 MOD SWAP1 SWAP2 SUB ADD PUSH4 0x1DA9C00 ADD SWAP1 POP PUSH2 0x3B0 JUMP JUMPDEST POP PUSH1 0xC2 NOT DUP4 ADD PUSH3 0x76A700 SWAP1 DUP2 MUL SWAP1 DUP3 MOD SWAP1 SWAP2 SUB ADD PUSH4 0xB1FA800 ADD SWAP1 POP PUSH2 0x3B0 JUMP JUMPDEST PUSH1 0x0 DUP1 PUSH2 0x4315 DUP9 DUP9 DUP9 PUSH2 0x2FA4 JUMP JUMPDEST SWAP1 POP DUP5 DUP7 GT PUSH2 0x4325 JUMPI SWAP1 POP PUSH2 0x95E JUMP JUMPDEST PUSH1 0x0 PUSH2 0x4332 DUP6 DUP9 DUP9 PUSH2 0x1251 JUMP JUMPDEST SWAP1 POP DUP4 ISZERO PUSH2 0x4350 JUMPI PUSH2 0x4347 DUP6 DUP4 DUP10 DUP10 DUP6 PUSH2 0x1341 JUMP JUMPDEST SWAP3 POP POP POP PUSH2 0x95E JUMP JUMPDEST PUSH2 0x4347 DUP3 DUP9 DUP9 DUP5 PUSH2 0x13E1 JUMP JUMPDEST PUSH1 0x0 DUP1 PUSH2 0x3B0 PUSH1 0xD PUSH2 0x2C3E JUMP JUMPDEST PUSH1 0x0 PUSH2 0x3FFF DUP5 GT ISZERO PUSH2 0x437A JUMPI PUSH1 0x0 DUP1 REVERT JUMPDEST PUSH5 0xFFFFFFFFFF DUP4 GT ISZERO PUSH2 0x438C JUMPI PUSH1 0x0 DUP1 REVERT JUMPDEST PUSH1 0x8 DUP3 GT ISZERO PUSH2 0x439A JUMPI PUSH1 0x0 DUP1 REVERT JUMPDEST POP PUSH8 0xFFFF000000000000 PUSH1 0x30 DUP5 SWAP1 SHL AND PUSH6 0xFFFFFFFFFF00 PUSH1 0x8 DUP5 SWAP1 SHL AND OR PUSH1 0xFF DUP3 AND OR SWAP4 SWAP3 POP POP POP JUMP JUMPDEST PUSH1 0x0 DUP1 PUSH2 0x3B0 PUSH1 0xB PUSH2 0x2C3E JUMP JUMPDEST PUSH1 0x0 PUSH3 0x15180 DUP3 LT ISZERO PUSH2 0x43E3 JUMPI PUSH1 0x0 DUP1 REVERT JUMPDEST PUSH3 0x15180 DUP3 PUSH2 0x1719 JUMP JUMPDEST PUSH1 0x0 DUP2 PUSH2 0x43F9 JUMPI PUSH1 0x0 DUP1 REVERT JUMPDEST PUSH1 0x1 PUSH1 0x80 SHL DUP3 LT PUSH2 0x440C JUMPI PUSH1 0x80 SWAP2 DUP3 SHR SWAP2 ADD JUMPDEST PUSH1 0x1 PUSH1 0x40 SHL DUP3 LT PUSH2 0x441F JUMPI PUSH1 0x40 SWAP2 DUP3 SHR SWAP2 ADD JUMPDEST PUSH5 0x100000000 DUP3 LT PUSH2 0x4433 JUMPI PUSH1 0x20 SWAP2 DUP3 SHR SWAP2 ADD JUMPDEST PUSH3 0x10000 DUP3 LT PUSH2 0x4445 JUMPI PUSH1 0x10 SWAP2 DUP3 SHR SWAP2 ADD JUMPDEST PUSH2 0x100 DUP3 LT PUSH2 0x4456 JUMPI PUSH1 0x8 SWAP2 DUP3 SHR SWAP2 ADD JUMPDEST PUSH1 0x10 DUP3 LT PUSH2 0x4466 JUMPI PUSH1 0x4 SWAP2 DUP3 SHR SWAP2 ADD JUMPDEST PUSH1 0x4 DUP3 LT PUSH2 0x4476 JUMPI PUSH1 0x2 SWAP2 DUP3 SHR SWAP2 ADD JUMPDEST PUSH1 0x2 DUP3 LT PUSH2 0x89B JUMPI PUSH1 0x1 ADD SWAP2 SWAP1 POP JUMP JUMPDEST PUSH1 0x40 MLOAD DUP1 PUSH1 0xE0 ADD PUSH1 0x40 MSTORE DUP1 PUSH2 0x4499 PUSH2 0x45C0 JUMP JUMPDEST DUP2 MSTORE PUSH1 0x20 ADD PUSH2 0x44A6 PUSH2 0x461A JUMP JUMPDEST DUP2 MSTORE PUSH1 0x0 PUSH1 0x20 DUP3 ADD DUP2 SWAP1 MSTORE PUSH1 0x40 DUP3 ADD DUP2 SWAP1 MSTORE PUSH1 0x60 DUP3 ADD DUP2 SWAP1 MSTORE PUSH1 0x80 DUP3 ADD DUP2 SWAP1 MSTORE PUSH1 0xA0 SWAP1 SWAP2 ADD MSTORE SWAP1 JUMP JUMPDEST PUSH1 0x40 MLOAD DUP1 PUSH2 0x120 ADD PUSH1 0x40 MSTORE DUP1 PUSH1 0x0 PUSH2 0xFFFF AND DUP2 MSTORE PUSH1 0x20 ADD PUSH1 0x0 DUP2 MSTORE PUSH1 0x20 ADD PUSH1 0x0 DUP2 MSTORE PUSH1 0x20 ADD PUSH1 0x0 DUP2 MSTORE PUSH1 0x20 ADD PUSH1 0x0 DUP2 MSTORE PUSH1 0x20 ADD PUSH1 0x0 DUP2 MSTORE PUSH1 0x20 ADD PUSH1 0x0 DUP2 MSTORE PUSH1 0x20 ADD PUSH1 0x0 DUP2 MSTORE PUSH1 0x20 ADD PUSH1 0x0 DUP2 MSTORE POP SWAP1 JUMP JUMPDEST PUSH1 0x40 MLOAD DUP1 PUSH2 0x100 ADD PUSH1 0x40 MSTORE DUP1 PUSH1 0x0 DUP1 NOT AND DUP2 MSTORE PUSH1 0x20 ADD PUSH1 0x0 DUP2 MSTORE PUSH1 0x20 ADD PUSH1 0x0 DUP2 MSTORE PUSH1 0x20 ADD PUSH1 0x0 DUP2 MSTORE PUSH1 0x20 ADD PUSH1 0x0 DUP2 MSTORE PUSH1 0x20 ADD PUSH1 0x0 DUP2 MSTORE PUSH1 0x20 ADD PUSH1 0x0 DUP2 MSTORE PUSH1 0x20 ADD PUSH1 0x0 DUP2 MSTORE POP SWAP1 JUMP JUMPDEST PUSH1 0x40 DUP1 MLOAD PUSH1 0xA0 DUP2 ADD DUP3 MSTORE PUSH1 0x0 DUP1 DUP3 MSTORE PUSH1 0x20 DUP3 ADD DUP2 SWAP1 MSTORE SWAP2 DUP2 ADD DUP3 SWAP1 MSTORE SWAP1 PUSH1 0x60 DUP3 ADD SWAP1 DUP2 MSTORE PUSH1 0x20 ADD PUSH1 0x0 DUP2 MSTORE POP SWAP1 JUMP JUMPDEST PUSH1 0x40 MLOAD DUP1 PUSH1 0x60 ADD PUSH1 0x40 MSTORE DUP1 PUSH1 0x0 PUSH1 0x1 PUSH1 0x1 PUSH1 0xA0 SHL SUB AND DUP2 MSTORE PUSH1 0x20 ADD PUSH1 0x0 DUP2 MSTORE PUSH1 0x20 ADD PUSH1 0x0 DUP2 MSTORE POP SWAP1 JUMP JUMPDEST PUSH1 0x40 DUP1 MLOAD PUSH1 0x80 DUP2 ADD DUP3 MSTORE PUSH1 0x0 DUP1 DUP3 MSTORE PUSH1 0x20 DUP3 ADD MSTORE SWAP1 DUP2 ADD PUSH2 0x45DF PUSH2 0x4596 JUMP JUMPDEST DUP2 MSTORE PUSH1 0x0 PUSH1 0x20 SWAP1 SWAP2 ADD MSTORE SWAP1 JUMP JUMPDEST PUSH1 0x40 DUP1 MLOAD PUSH1 0xA0 DUP2 ADD DUP3 MSTORE PUSH1 0x0 DUP1 DUP3 MSTORE PUSH1 0x20 DUP3 ADD DUP2 SWAP1 MSTORE SWAP2 DUP2 ADD DUP3 SWAP1 MSTORE PUSH1 0x60 DUP2 ADD DUP3 SWAP1 MSTORE PUSH1 0x80 DUP2 ADD SWAP2 SWAP1 SWAP2 MSTORE SWAP1 JUMP JUMPDEST PUSH1 0x40 MLOAD DUP1 PUSH1 0x80 ADD PUSH1 0x40 MSTORE DUP1 PUSH1 0x60 DUP2 MSTORE PUSH1 0x20 ADD PUSH1 0x60 DUP2 MSTORE PUSH1 0x20 ADD PUSH1 0x0 DUP2 MSTORE PUSH1 0x20 ADD PUSH1 0x0 DUP2 MSTORE POP SWAP1 JUMP JUMPDEST PUSH1 0x40 MLOAD DUP1 PUSH1 0xC0 ADD PUSH1 0x40 MSTORE DUP1 PUSH1 0x0 DUP2 MSTORE PUSH1 0x20 ADD PUSH1 0x0 DUP2 MSTORE PUSH1 0x20 ADD PUSH1 0x0 DUP2 MSTORE PUSH1 0x20 ADD PUSH1 0x0 DUP2 MSTORE PUSH1 0x20 ADD PUSH1 0x0 DUP2 MSTORE PUSH1 0x20 ADD PUSH1 0x0 PUSH1 0x3 DUP2 GT ISZERO PUSH2 0x467D JUMPI INVALID JUMPDEST SWAP1 MSTORE SWAP1 JUMP JUMPDEST DUP1 CALLDATALOAD DUP1 ISZERO ISZERO DUP2 EQ PUSH2 0x89B JUMPI PUSH1 0x0 DUP1 REVERT JUMPDEST DUP1 CALLDATALOAD PUSH2 0xFFFF DUP2 AND DUP2 EQ PUSH2 0x89B JUMPI PUSH1 0x0 DUP1 REVERT JUMPDEST DUP1 CALLDATALOAD PUSH4 0xFFFFFFFF DUP2 AND DUP2 EQ PUSH2 0x89B JUMPI PUSH1 0x0 DUP1 REVERT JUMPDEST PUSH1 0x0 DUP1 PUSH1 0x40 DUP4 DUP6 SUB SLT ISZERO PUSH2 0x46CA JUMPI DUP2 DUP3 REVERT JUMPDEST DUP3 CALLDATALOAD PUSH1 0x1 PUSH1 0x1 PUSH1 0xA0 SHL SUB DUP2 AND DUP2 EQ PUSH2 0x46E0 JUMPI DUP3 DUP4 REVERT JUMPDEST SWAP5 PUSH1 0x20 SWAP4 SWAP1 SWAP4 ADD CALLDATALOAD SWAP4 POP POP POP JUMP JUMPDEST PUSH1 0x0 PUSH1 0x20 DUP3 DUP5 SUB SLT ISZERO PUSH2 0x46FF JUMPI DUP1 DUP2 REVERT JUMPDEST POP MLOAD SWAP2 SWAP1 POP JUMP JUMPDEST PUSH1 0x0 DUP1 PUSH1 0x0 PUSH1 0x60 DUP5 DUP7 SUB SLT ISZERO PUSH2 0x471A JUMPI DUP1 DUP2 REVERT JUMPDEST PUSH2 0x4723 DUP5 PUSH2 0x4692 JUMP JUMPDEST SWAP3 POP PUSH1 0x20 DUP5 ADD CALLDATALOAD SWAP2 POP PUSH2 0x4738 PUSH1 0x40 DUP6 ADD PUSH2 0x4682 JUMP JUMPDEST SWAP1 POP SWAP3 POP SWAP3 POP SWAP3 JUMP JUMPDEST PUSH1 0x0 DUP1 PUSH1 0x0 DUP1 PUSH1 0x80 DUP6 DUP8 SUB SLT ISZERO PUSH2 0x4756 JUMPI DUP1 DUP2 REVERT JUMPDEST PUSH2 0x475F DUP6 PUSH2 0x4692 JUMP JUMPDEST SWAP4 POP PUSH1 0x20 DUP6 ADD CALLDATALOAD DUP1 PUSH1 0xA SIGNEXTEND DUP2 EQ PUSH2 0x4774 JUMPI DUP2 DUP3 REVERT JUMPDEST SWAP4 SWAP7 SWAP4 SWAP6 POP POP POP POP PUSH1 0x40 DUP3 ADD CALLDATALOAD SWAP2 PUSH1 0x60 ADD CALLDATALOAD SWAP1 JUMP JUMPDEST PUSH1 0x0 DUP1 PUSH1 0x0 DUP1 PUSH1 0x0 PUSH1 0xA0 DUP7 DUP9 SUB SLT ISZERO PUSH2 0x47A0 JUMPI DUP1 DUP2 REVERT JUMPDEST PUSH2 0x47A9 DUP7 PUSH2 0x4692 JUMP JUMPDEST SWAP5 POP PUSH1 0x20 DUP7 ADD CALLDATALOAD SWAP4 POP PUSH1 0x40 DUP7 ADD CALLDATALOAD SWAP3 POP PUSH1 0x60 DUP7 ADD CALLDATALOAD SWAP2 POP PUSH2 0x47CC PUSH1 0x80 DUP8 ADD PUSH2 0x4682 JUMP JUMPDEST SWAP1 POP SWAP3 SWAP6 POP SWAP3 SWAP6 SWAP1 SWAP4 POP JUMP JUMPDEST PUSH1 0x0 DUP1 PUSH1 0x0 DUP1 PUSH1 0x0 PUSH1 0xA0 DUP7 DUP9 SUB SLT ISZERO PUSH2 0x47EF JUMPI DUP1 DUP2 REVERT JUMPDEST PUSH2 0x47F8 DUP7 PUSH2 0x4692 JUMP JUMPDEST SWAP5 POP PUSH1 0x20 DUP7 ADD CALLDATALOAD SWAP4 POP PUSH1 0x40 DUP7 ADD CALLDATALOAD SWAP3 POP PUSH2 0x4814 PUSH1 0x60 DUP8 ADD PUSH2 0x46A4 JUMP JUMPDEST SWAP5 SWAP8 SWAP4 SWAP7 POP SWAP2 SWAP5 PUSH1 0x80 ADD CALLDATALOAD SWAP3 SWAP2 POP POP JUMP JUMPDEST PUSH1 0x0 DUP1 PUSH1 0x0 DUP1 PUSH1 0x0 DUP1 PUSH1 0xC0 DUP8 DUP10 SUB SLT ISZERO PUSH2 0x483D JUMPI DUP1 DUP2 REVERT JUMPDEST PUSH2 0x4846 DUP8 PUSH2 0x4692 JUMP JUMPDEST SWAP6 POP PUSH1 0x20 DUP8 ADD CALLDATALOAD SWAP5 POP PUSH1 0x40 DUP8 ADD CALLDATALOAD SWAP4 POP PUSH2 0x4862 PUSH1 0x60 DUP9 ADD PUSH2 0x46A4 JUMP JUMPDEST SWAP3 POP PUSH1 0x80 DUP8 ADD CALLDATALOAD SWAP2 POP PUSH2 0x4877 PUSH1 0xA0 DUP9 ADD PUSH2 0x4682 JUMP JUMPDEST SWAP1 POP SWAP3 SWAP6 POP SWAP3 SWAP6 POP SWAP3 SWAP6 JUMP JUMPDEST PUSH1 0x0 DUP1 PUSH1 0x40 DUP4 DUP6 SUB SLT ISZERO PUSH2 0x4895 JUMPI DUP2 DUP3 REVERT JUMPDEST PUSH2 0x489E DUP4 PUSH2 0x4692 JUMP JUMPDEST SWAP2 POP PUSH1 0x20 DUP4 ADD CALLDATALOAD PUSH1 0x1 PUSH1 0x1 PUSH1 0x58 SHL SUB DUP2 AND DUP2 EQ PUSH2 0x48B9 JUMPI DUP2 DUP3 REVERT JUMPDEST DUP1 SWAP2 POP POP SWAP3 POP SWAP3 SWAP1 POP JUMP JUMPDEST PUSH1 0x0 DUP1 PUSH1 0x40 DUP4 DUP6 SUB SLT ISZERO PUSH2 0x48D6 JUMPI DUP2 DUP3 REVERT JUMPDEST POP POP DUP1 CALLDATALOAD SWAP3 PUSH1 0x20 SWAP1 SWAP2 ADD CALLDATALOAD SWAP2 POP JUMP JUMPDEST PUSH1 0x1 PUSH1 0x1 PUSH1 0xA0 SHL SUB SWAP2 SWAP1 SWAP2 AND DUP2 MSTORE PUSH1 0x20 ADD SWAP1 JUMP JUMPDEST PUSH1 0x1 PUSH1 0x1 PUSH1 0xA0 SHL SUB SWAP5 SWAP1 SWAP5 AND DUP5 MSTORE PUSH1 0x20 DUP5 ADD SWAP3 SWAP1 SWAP3 MSTORE PUSH1 0x40 DUP4 ADD MSTORE PUSH1 0x60 DUP3 ADD MSTORE PUSH1 0x80 ADD SWAP1 JUMP JUMPDEST SWAP1 DUP2 MSTORE PUSH1 0x20 ADD SWAP1 JUMP JUMPDEST SWAP2 DUP3 MSTORE PUSH1 0x20 DUP3 ADD MSTORE PUSH1 0x40 ADD SWAP1 JUMP JUMPDEST PUSH1 0x20 DUP1 DUP3 MSTORE PUSH1 0x16 SWAP1 DUP3 ADD MSTORE PUSH22 0x13585C9AD95D081B9BDD081A5B9A5D1A585B1A5E9959 PUSH1 0x52 SHL PUSH1 0x40 DUP3 ADD MSTORE PUSH1 0x60 ADD SWAP1 JUMP JUMPDEST PUSH1 0x20 DUP1 DUP3 MSTORE PUSH1 0x13 SWAP1 DUP3 ADD MSTORE PUSH19 0x14995C5D5A5C995CC81CD95D1D1B195B595B9D PUSH1 0x6A SHL PUSH1 0x40 DUP3 ADD MSTORE PUSH1 0x60 ADD SWAP1 JUMP JUMPDEST PUSH1 0x20 DUP1 DUP3 MSTORE PUSH1 0xE SWAP1 DUP3 ADD MSTORE PUSH14 0x4E6F20636F6E76657267656E6365 PUSH1 0x90 SHL PUSH1 0x40 DUP3 ADD MSTORE PUSH1 0x60 ADD SWAP1 JUMP JUMPDEST PUSH1 0x20 DUP1 DUP3 MSTORE PUSH1 0x15 SWAP1 DUP3 ADD MSTORE PUSH21 0x10D1CE881B9BC81B585C9AD95D1CC81B1A5CDD1959 PUSH1 0x5A SHL PUSH1 0x40 DUP3 ADD MSTORE PUSH1 0x60 ADD SWAP1 JUMP JUMPDEST PUSH1 0x20 DUP1 DUP3 MSTORE PUSH1 0xD SWAP1 DUP3 ADD MSTORE PUSH13 0x92DCECC2D8D2C840D2DCC8CAF PUSH1 0x9B SHL PUSH1 0x40 DUP3 ADD MSTORE PUSH1 0x60 ADD SWAP1 JUMP JUMPDEST PUSH1 0x20 DUP1 DUP3 MSTORE PUSH1 0x16 SWAP1 DUP3 ADD MSTORE PUSH22 0x10D1CE881B585C9AD95D081A5B99195E08189BDD5B99 PUSH1 0x52 SHL PUSH1 0x40 DUP3 ADD MSTORE PUSH1 0x60 ADD SWAP1 JUMP JUMPDEST PUSH1 0x20 DUP1 DUP3 MSTORE PUSH1 0xE SWAP1 DUP3 ADD MSTORE PUSH14 0x125B9D985B1A59081B585C9AD95D PUSH1 0x92 SHL PUSH1 0x40 DUP3 ADD MSTORE PUSH1 0x60 ADD SWAP1 JUMP JUMPDEST PUSH1 0x20 DUP1 DUP3 MSTORE PUSH1 0x16 SWAP1 DUP3 ADD MSTORE PUSH22 0x5472616465206661696C65642C20736C697070616765 PUSH1 0x50 SHL PUSH1 0x40 DUP3 ADD MSTORE PUSH1 0x60 ADD SWAP1 JUMP JUMPDEST PUSH1 0x20 DUP1 DUP3 MSTORE PUSH1 0x12 SWAP1 DUP3 ADD MSTORE PUSH18 0x496E76616C696420626C6F636B2074696D65 PUSH1 0x70 SHL PUSH1 0x40 DUP3 ADD MSTORE PUSH1 0x60 ADD SWAP1 JUMP JUMPDEST PUSH1 0x20 DUP1 DUP3 MSTORE PUSH1 0x13 SWAP1 DUP3 ADD MSTORE PUSH19 0x125B9D985B1A590818DD5C9C995B98DE481A59 PUSH1 0x6A SHL PUSH1 0x40 DUP3 ADD MSTORE PUSH1 0x60 ADD SWAP1 JUMP JUMPDEST PUSH1 0x20 DUP1 DUP3 MSTORE PUSH1 0x13 SWAP1 DUP3 ADD MSTORE PUSH19 0x10D1CE881B9BC81B585C9AD95D08199BDD5B99 PUSH1 0x6A SHL PUSH1 0x40 DUP3 ADD MSTORE PUSH1 0x60 ADD SWAP1 JUMP JUMPDEST PUSH1 0x20 DUP1 DUP3 MSTORE PUSH1 0x14 SWAP1 DUP3 ADD MSTORE PUSH20 0x13DD995C8811195D9A585D1A5BDB88131A5B5A5D PUSH1 0x62 SHL PUSH1 0x40 DUP3 ADD MSTORE PUSH1 0x60 ADD SWAP1 JUMP JUMPDEST SWAP4 DUP5 MSTORE PUSH1 0x20 DUP5 ADD SWAP3 SWAP1 SWAP3 MSTORE PUSH1 0xFF AND PUSH1 0x40 DUP4 ADD MSTORE PUSH1 0x60 DUP3 ADD MSTORE PUSH1 0x80 ADD SWAP1 JUMP JUMPDEST PUSH1 0x1 PUSH1 0x1 PUSH1 0x58 SHL SUB SWAP4 SWAP1 SWAP4 AND DUP4 MSTORE PUSH1 0xFF SWAP2 SWAP1 SWAP2 AND PUSH1 0x20 DUP4 ADD MSTORE PUSH1 0x40 DUP3 ADD MSTORE PUSH1 0x60 ADD SWAP1 JUMP JUMPDEST PUSH1 0xFF SWAP2 SWAP1 SWAP2 AND DUP2 MSTORE PUSH1 0x20 ADD SWAP1 JUMP INVALID MSTORE8 PUSH2 0x6665 0x4D PUSH2 0x7468 GASPRICE KECCAK256 PUSH14 0x756C7469706C69636174696F6E20 PUSH16 0x766572666C6F77A26469706673582212 KECCAK256 0xB1 0xDE 0x22 DUP8 0xB5 SAR 0x49 SMOD 0xE9 0xE1 PUSH27 0xA679BB26157033B72BF1DC8AD0201AEA7DE30DF97564736F6C6343 STOP SMOD MOD STOP CALLER ","sha1":"71d9cc68bd8f712a5eea1a5235ce967ef28b04fd","source":"// SPDX-License-Identifier: GPL-3.0-only\npragma solidity =0.7.6;\npragma abicoder v2;\n\nimport \"./actions/nTokenMintAction.sol\";\nimport \"../internal/balances/TokenHandler.sol\";\nimport \"../global/StorageLayoutV1.sol\";\nimport \"../internal/markets/CashGroup.sol\";\nimport \"../internal/markets/AssetRate.sol\";\nimport \"../internal/nToken/nTokenSupply.sol\";\nimport \"../internal/nToken/nTokenHandler.sol\";\nimport \"../math/SafeInt256.sol\";\nimport \"../../interfaces/notional/NotionalCalculations.sol\";\nimport \"@openzeppelin/contracts/utils/SafeCast.sol\";\nimport \"@openzeppelin/contracts/math/SafeMath.sol\";\n\ncontract CalculationViews is StorageLayoutV1, NotionalCalculations {\n    using TokenHandler for Token;\n    using Market for MarketParameters;\n    using AssetRate for AssetRateParameters;\n    using CashGroup for CashGroupParameters;\n    using nTokenHandler for nTokenPortfolio;\n    using AccountContextHandler for AccountContext;\n    using BalanceHandler for BalanceState;\n    using SafeInt256 for int256;\n    using SafeMath for uint256;\n\n    function _checkValidCurrency(uint16 currencyId) internal view {\n        require(0 < currencyId && currencyId <= maxCurrencyId, \"Invalid currency id\");\n    }\n\n    /** General Calculation View Methods **/\n\n    /// @notice Returns the nTokens that will be minted when some amount of asset tokens are deposited\n    /// @param currencyId id number of the currency\n    /// @param amountToDepositExternalPrecision amount of asset tokens in native precision\n    /// @return the amount of nTokens that will be minted\n    function calculateNTokensToMint(uint16 currencyId, uint88 amountToDepositExternalPrecision)\n        external\n        view\n        override\n        returns (uint256)\n    {\n        _checkValidCurrency(currencyId);\n        Token memory token = TokenHandler.getAssetToken(currencyId);\n        int256 amountToDepositInternal = token.convertToInternal(int256(amountToDepositExternalPrecision));\n        nTokenPortfolio memory nToken;\n        nToken.loadNTokenPortfolioView(currencyId);\n\n        int256 tokensToMint = nTokenCalculations.calculateTokensToMint(\n            nToken,\n            amountToDepositInternal,\n            block.timestamp\n        );\n\n        return SafeCast.toUint256(tokensToMint);\n    }\n\n\n    /// @notice Returns the fCash amount to send when given a cash amount, be sure to buffer these amounts\n    /// slightly because the liquidity curve is sensitive to changes in block time\n    /// @param currencyId id number of the currency\n    /// @param netCashToAccount denominated in underlying terms in 1e8 decimal precision,\n    //// positive for borrowing, negative for lending\n    /// @param marketIndex market index of the fCash market\n    /// @param blockTime the block time for when the trade will be calculated\n    /// @return the fCash amount from the trade, positive when lending, negative when borrowing. Always in 8 decimals.\n    function getfCashAmountGivenCashAmount(\n        uint16 currencyId,\n        int88 netCashToAccount,\n        uint256 marketIndex,\n        uint256 blockTime\n    ) external view override returns (int256) {\n        _checkValidCurrency(currencyId);\n        CashGroupParameters memory cashGroup = CashGroup.buildCashGroupView(currencyId);\n        return _getfCashAmountGivenCashAmount(netCashToAccount, marketIndex, blockTime, cashGroup);\n    }\n        \n    function _getfCashAmountGivenCashAmount(\n        int88 netCashToAccount,\n        uint256 marketIndex,\n        uint256 blockTime,\n        CashGroupParameters memory cashGroup\n    ) internal view returns (int256) {\n        MarketParameters memory market;\n        cashGroup.loadMarket(market, marketIndex, false, blockTime);\n\n        require(market.maturity > blockTime, \"Invalid block time\");\n        uint256 timeToMaturity = market.maturity - blockTime;\n        (int256 rateScalar, int256 totalCashUnderlying, int256 rateAnchor) =\n            Market.getExchangeRateFactors(market, cashGroup, timeToMaturity, marketIndex);\n        int256 fee = Market.getExchangeRateFromImpliedRate(cashGroup.getTotalFee(), timeToMaturity);\n\n        return\n            Market.getfCashGivenCashAmount(\n                market.totalfCash,\n                netCashToAccount,\n                totalCashUnderlying,\n                rateScalar,\n                rateAnchor,\n                fee,\n                0\n            );\n    }\n\n    /// @notice Returns the cash amount that will be traded given an fCash amount, be sure to buffer these amounts\n    /// slightly because the liquidity curve is sensitive to changes in block time\n    /// @param currencyId id number of the currency\n    /// @param fCashAmount amount of fCash to trade, negative for borrowing, positive for lending\n    /// @param marketIndex market index of the fCash market\n    /// @param blockTime the block time for when the trade will be calculated\n    /// @return net asset cash amount (positive for borrowing, negative for lending) in 8 decimal precision\n    /// @return underlying cash amount (positive for borrowing, negative for lending) in 8 decimal precision\n    function getCashAmountGivenfCashAmount(\n        uint16 currencyId,\n        int88 fCashAmount,\n        uint256 marketIndex,\n        uint256 blockTime\n    ) external view override returns (int256, int256) {\n        return _getCashAmountGivenfCashAmount(currencyId, fCashAmount, marketIndex, blockTime, 0);\n    }\n\n    function _getCashAmountGivenfCashAmount(\n        uint16 currencyId,\n        int88 fCashAmount,\n        uint256 marketIndex,\n        uint256 blockTime, \n        uint256 rateLimit\n    ) internal view returns (int256, int256) {\n        _checkValidCurrency(currencyId);\n        CashGroupParameters memory cashGroup = CashGroup.buildCashGroupView(currencyId);\n        MarketParameters memory market;\n        cashGroup.loadMarket(market, marketIndex, false, blockTime);\n\n        require(market.maturity > blockTime, \"Invalid block time\");\n        uint256 timeToMaturity = market.maturity - blockTime;\n\n        // prettier-ignore\n        (int256 assetCash, /* int fee */) =\n            market.calculateTrade(cashGroup, fCashAmount, timeToMaturity, marketIndex);\n\n        // Check the slippage here and revert\n        if (rateLimit != 0) {\n            if (fCashAmount < 0) {\n                // Do not allow borrows over the rate limit\n                require(market.lastImpliedRate <= rateLimit, \"Trade failed, slippage\");\n            } else {\n                // Do not allow lends under the rate limit\n                require(market.lastImpliedRate >= rateLimit, \"Trade failed, slippage\");\n            }\n        }\n\n        return (assetCash, cashGroup.assetRate.convertToUnderlying(assetCash));\n    }\n\n    /// @notice Returns the claimable incentives for all nToken balances\n    /// @param account The address of the account which holds the tokens\n    /// @param blockTime The block time when incentives will be minted\n    /// @return Incentives an account is eligible to claim\n    function nTokenGetClaimableIncentives(address account, uint256 blockTime)\n        external\n        view\n        override\n        returns (uint256)\n    {\n        AccountContext memory accountContext = AccountContextHandler.getAccountContext(account);\n        BalanceState memory balanceState;\n        uint256 totalIncentivesClaimable;\n\n        if (accountContext.isBitmapEnabled()) {\n            balanceState.loadBalanceState(account, accountContext.bitmapCurrencyId, accountContext);\n            if (balanceState.storedNTokenBalance > 0) {\n                address tokenAddress = nTokenHandler.nTokenAddress(balanceState.currencyId);\n                (\n                    /* uint256 totalSupply */,\n                    uint256 accumulatedNOTEPerNToken,\n                    /* uint256 lastAccumulatedTime */\n                ) = nTokenSupply.getUpdatedAccumulatedNOTEPerNToken(tokenAddress, blockTime);\n\n                uint256 incentivesToClaim = Incentives.calculateIncentivesToClaim(\n                    balanceState,\n                    tokenAddress,\n                    accumulatedNOTEPerNToken,\n                    balanceState.storedNTokenBalance.toUint()\n                );\n                totalIncentivesClaimable = totalIncentivesClaimable.add(incentivesToClaim);\n            }\n        }\n\n        bytes18 currencies = accountContext.activeCurrencies;\n        while (currencies != 0) {\n            uint16 currencyId = uint16(bytes2(currencies) & Constants.UNMASK_FLAGS);\n            balanceState.loadBalanceState(account, currencyId, accountContext);\n\n            if (balanceState.storedNTokenBalance > 0) {\n                address tokenAddress = nTokenHandler.nTokenAddress(balanceState.currencyId);\n                (\n                    /* uint256 totalSupply */,\n                    uint256 accumulatedNOTEPerNToken,\n                    /* uint256 lastAccumulatedTime */\n                ) = nTokenSupply.getUpdatedAccumulatedNOTEPerNToken(tokenAddress, blockTime);\n\n                uint256 incentivesToClaim = Incentives.calculateIncentivesToClaim(\n                    balanceState,\n                    tokenAddress,\n                    accumulatedNOTEPerNToken,\n                    balanceState.storedNTokenBalance.toUint()\n                );\n                totalIncentivesClaimable = totalIncentivesClaimable.add(incentivesToClaim);\n            }\n\n            currencies = currencies << 16;\n        }\n\n        return totalIncentivesClaimable;\n    }\n\n    /// @notice Returns the present value of the given fCash amount using Notional internal oracle rates\n    /// @param currencyId id number of the currency\n    /// @param maturity timestamp of the fCash maturity\n    /// @param notional amount of fCash notional\n    /// @param blockTime the block time for when the trade will be calculated\n    /// @param riskAdjusted true if haircuts and buffers should be applied to the oracle rate\n    /// @return presentValue of fCash in 8 decimal precision and underlying denomination\n    function getPresentfCashValue(\n        uint16 currencyId,\n        uint256 maturity,\n        int256 notional,\n        uint256 blockTime,\n        bool riskAdjusted\n    ) external view override returns (int256 presentValue) {\n        CashGroupParameters memory cg = CashGroup.buildCashGroupView(currencyId);\n        if (riskAdjusted) {\n            presentValue = AssetHandler.getRiskAdjustedPresentfCashValue(\n                cg,\n                notional,\n                maturity,\n                blockTime,\n                cg.calculateOracleRate(maturity, blockTime)\n            );\n        } else {\n            presentValue = AssetHandler.getPresentfCashValue(\n                notional,\n                maturity,\n                blockTime,\n                cg.calculateOracleRate(maturity, blockTime)\n            );\n        }\n    }\n\n    /// @notice Returns a market index value for a given maturity\n    /// @param maturity an fCash maturity\n    /// @param blockTime the block time for when the trade will be calculated\n    /// @return marketIndex a value between 1 and 7 that represents the marketIndex (tenor)\n    /// that corresponds to the maturity. Returns 0 if there is no corresponding marketIndex\n    function getMarketIndex(\n        uint256 maturity,\n        uint256 blockTime\n    ) public pure override returns (uint8 marketIndex) {\n        (\n            uint256 _marketIndex,\n            bool isIdiosyncratic\n        ) = DateTime.getMarketIndex(Constants.MAX_TRADED_MARKET_INDEX, maturity, blockTime);\n\n        // Market Index cannot be greater than 7 by construction\n        marketIndex = isIdiosyncratic ? 0 : uint8(_marketIndex);\n    }\n\n    /// @notice Returns the amount of fCash that would received if lending deposit amount.\n    /// @param currencyId id number of the currency\n    /// @param depositAmountExternal amount to deposit in the token's native precision. For aTokens use\n    /// what is returned by the balanceOf selector (not scaledBalanceOf).\n    /// @param maturity the maturity of the fCash to lend\n    /// @param minLendRate the minimum lending rate (slippage protection)\n    /// @param blockTime the block time for when the trade will be calculated\n    /// @param useUnderlying true if specifying the underlying token, false if specifying the asset token\n    /// @return fCashAmount the amount of fCash that the lender will receive\n    /// @return marketIndex the corresponding market index for the lending\n    /// @return encodedTrade the encoded bytes32 object to pass to batch trade\n    function getfCashLendFromDeposit(\n        uint16 currencyId,\n        uint256 depositAmountExternal,\n        uint256 maturity,\n        uint32 minLendRate,\n        uint256 blockTime,\n        bool useUnderlying\n    ) external view override returns (\n        uint88 fCashAmount,\n        uint8 marketIndex,\n        bytes32 encodedTrade\n    ) {\n        marketIndex = getMarketIndex(maturity, blockTime);\n        require(marketIndex > 0);\n\n        (\n            int256 underlyingInternal,\n            CashGroupParameters memory cashGroup\n        ) = _convertDepositAmountToUnderlyingInternal(currencyId, depositAmountExternal, useUnderlying);\n        int256 fCash = _getfCashAmountGivenCashAmount(_safeInt88(underlyingInternal.neg()), marketIndex, blockTime, cashGroup);\n        require(0 < fCash);\n\n        (\n            encodedTrade,\n            fCashAmount\n        ) = _encodeLendBorrowTrade(TradeActionType.Lend, marketIndex, fCash, minLendRate);\n    }\n\n    /// @notice Returns the amount of fCash that would received if lending deposit amount.\n    /// @param currencyId id number of the currency\n    /// @param borrowedAmountExternal amount to borrow in the token's native precision. For aTokens use\n    /// what is returned by the balanceOf selector (not scaledBalanceOf).\n    /// @param maturity the maturity of the fCash to lend\n    /// @param maxBorrowRate the maximum borrow rate (slippage protection). If zero then no slippage will be applied\n    /// @param blockTime the block time for when the trade will be calculated\n    /// @param useUnderlying true if specifying the underlying token, false if specifying the asset token\n    /// @return fCashDebt the amount of fCash that the borrower will owe, this will be stored as a negative\n    /// balance in Notional\n    /// @return marketIndex the corresponding market index for the lending\n    /// @return encodedTrade the encoded bytes32 object to pass to batch trade\n    function getfCashBorrowFromPrincipal(\n        uint16 currencyId,\n        uint256 borrowedAmountExternal,\n        uint256 maturity,\n        uint32 maxBorrowRate,\n        uint256 blockTime,\n        bool useUnderlying\n    ) external view override returns (\n        uint88 fCashDebt,\n        uint8 marketIndex,\n        bytes32 encodedTrade\n    ) {\n        marketIndex = getMarketIndex(maturity, blockTime);\n        require(marketIndex > 0);\n\n        (\n            int256 underlyingInternal,\n            CashGroupParameters memory cashGroup\n        ) = _convertDepositAmountToUnderlyingInternal(currencyId, borrowedAmountExternal, useUnderlying);\n        int256 fCash = _getfCashAmountGivenCashAmount(_safeInt88(underlyingInternal), marketIndex, blockTime, cashGroup);\n        require(fCash < 0);\n\n        (\n            encodedTrade,\n            fCashDebt\n        ) = _encodeLendBorrowTrade(TradeActionType.Borrow, marketIndex, fCash, maxBorrowRate);\n    }\n\n    /// @notice Returns the amount of underlying cash and asset cash required to lend fCash. When specifying a\n    /// trade, deposit either underlying or asset tokens (not both). Asset tokens tend to be more gas efficient.\n    /// @param currencyId id number of the currency\n    /// @param fCashAmount amount of fCash (in underlying) that will be received at maturity. Always 8 decimal precision.\n    /// @param maturity the maturity of the fCash to lend\n    /// @param minLendRate the minimum lending rate (slippage protection)\n    /// @param blockTime the block time for when the trade will be calculated\n    /// @return depositAmountUnderlying the amount of underlying tokens the lender must deposit\n    /// @return depositAmountAsset the amount of asset tokens the lender must deposit\n    /// @return marketIndex the corresponding market index for the lending\n    /// @return encodedTrade the encoded bytes32 object to pass to batch trade\n    function getDepositFromfCashLend(\n        uint16 currencyId,\n        uint256 fCashAmount,\n        uint256 maturity,\n        uint32 minLendRate,\n        uint256 blockTime\n    ) external view override returns (\n        uint256 depositAmountUnderlying,\n        uint256 depositAmountAsset,\n        uint8 marketIndex,\n        bytes32 encodedTrade\n    ) {\n        marketIndex = getMarketIndex(maturity, blockTime);\n        require(marketIndex > 0);\n        require(fCashAmount < uint256(int256(type(int88).max)));\n\n        int88 fCash = int88(SafeInt256.toInt(fCashAmount));\n        (\n            int256 assetCashInternal,\n            int256 underlyingCashInternal\n        ) = _getCashAmountGivenfCashAmount(currencyId, fCash, marketIndex, blockTime, minLendRate);\n\n        depositAmountUnderlying = _convertToAmountExternal(currencyId, underlyingCashInternal, true);\n        depositAmountAsset = _convertToAmountExternal(currencyId, assetCashInternal, false);\n        (encodedTrade, /* */) = _encodeLendBorrowTrade(TradeActionType.Lend, marketIndex, fCash, minLendRate);\n    }\n\n    /// @notice Returns the amount of underlying cash and asset cash required to borrow fCash. When specifying a\n    /// trade, choose to receive either underlying or asset tokens (not both). Asset tokens tend to be more gas efficient.\n    /// @param currencyId id number of the currency\n    /// @param fCashBorrow amount of fCash (in underlying) that will be received at maturity. Always 8 decimal precision.\n    /// @param maturity the maturity of the fCash to lend\n    /// @param maxBorrowRate the maximum borrow rate (slippage protection)\n    /// @param blockTime the block time for when the trade will be calculated\n    /// @return borrowAmountUnderlying the amount of underlying tokens the borrower will receive\n    /// @return borrowAmountAsset the amount of asset tokens the borrower will receive\n    /// @return marketIndex the corresponding market index for the lending\n    /// @return encodedTrade the encoded bytes32 object to pass to batch trade\n    function getPrincipalFromfCashBorrow(\n        uint16 currencyId,\n        uint256 fCashBorrow,\n        uint256 maturity,\n        uint32 maxBorrowRate,\n        uint256 blockTime\n    ) external view override returns (\n        uint256 borrowAmountUnderlying,\n        uint256 borrowAmountAsset,\n        uint8 marketIndex,\n        bytes32 encodedTrade\n    ) {\n        marketIndex = getMarketIndex(maturity, blockTime);\n        require(marketIndex > 0);\n        require(fCashBorrow < uint256(int256(type(int88).max)));\n\n        int88 fCash = int88(SafeInt256.toInt(fCashBorrow).neg());\n        (\n            int256 assetCashInternal,\n            int256 underlyingCashInternal\n        ) = _getCashAmountGivenfCashAmount(currencyId, fCash, marketIndex, blockTime, maxBorrowRate);\n\n        borrowAmountUnderlying = _convertToAmountExternal(currencyId, underlyingCashInternal, true);\n        borrowAmountAsset = _convertToAmountExternal(currencyId, assetCashInternal, false);\n        (encodedTrade, /* */) = _encodeLendBorrowTrade(TradeActionType.Borrow, marketIndex, fCash, maxBorrowRate);\n    }\n\n    /// @notice Converts an internal cash balance to an external token denomination\n    /// @param currencyId the currency id of the cash balance\n    /// @param cashBalanceInternal the signed cash balance that is stored in Notional\n    /// @param convertToUnderlying true if the value should be converted to underlying\n    /// @return the cash balance converted to the external token denomination\n    function convertCashBalanceToExternal(\n        uint16 currencyId,\n        int256 cashBalanceInternal,\n        bool convertToUnderlying\n    ) external view override returns (int256) {\n        if (convertToUnderlying) {\n            AssetRateParameters memory ar = AssetRate.buildAssetRateView(currencyId);\n            cashBalanceInternal = ar.convertToUnderlying(cashBalanceInternal);\n        }\n\n        int256 externalAmount = SafeInt256.toInt(_convertToAmountExternal(currencyId, cashBalanceInternal.abs(), convertToUnderlying));\n        return cashBalanceInternal < 0 ? externalAmount.neg() : externalAmount;\n    }\n\n    function _convertToAmountExternal(\n        uint16 currencyId,\n        int256 depositAmountInternal,\n        bool useUnderlying\n    ) private view returns (uint256) {\n        int256 amountExternal;\n        Token memory token = useUnderlying ?\n            TokenHandler.getUnderlyingToken(currencyId) :\n            TokenHandler.getAssetToken(currencyId);\n\n        if (useUnderlying && depositAmountInternal < 0) {\n            // We have to do a special rounding adjustment for underlying internal deposits from lending.\n            amountExternal = token.convertToUnderlyingExternalWithAdjustment(depositAmountInternal.neg());\n        } else {\n            amountExternal = token.convertToExternal(depositAmountInternal).abs();\n        }\n\n        if (token.tokenType == TokenType.aToken) {\n            // Special handling for aTokens, we use scaled balance internally\n            Token memory underlying = TokenHandler.getUnderlyingToken(currencyId);\n            amountExternal = AaveHandler.convertFromScaledBalanceExternal(underlying.tokenAddress, amountExternal);\n        }\n\n        return SafeInt256.toUint(amountExternal);\n    }\n\n    /// @notice Converts an external deposit amount to an internal deposit amount\n    function _convertDepositAmountToUnderlyingInternal(\n        uint16 currencyId,\n        uint256 depositAmountExternal,\n        bool useUnderlying\n    ) private view returns (int256 underlyingInternal, CashGroupParameters memory cashGroup) {\n        int256 depositAmount = SafeInt256.toInt(depositAmountExternal);\n        cashGroup = CashGroup.buildCashGroupView(currencyId);\n\n        Token memory token = useUnderlying ?\n            TokenHandler.getUnderlyingToken(currencyId) :\n            TokenHandler.getAssetToken(currencyId);\n\n        if (token.tokenType == TokenType.aToken) {\n            // Special handling for aTokens, we use scaled balance internally\n            depositAmount = AaveHandler.convertToScaledBalanceExternal(currencyId, depositAmount);\n        }\n\n        underlyingInternal = token.convertToInternal(depositAmount);\n        if (!useUnderlying) {\n            // Convert asset rates to underlying internal amounts\n            underlyingInternal = cashGroup.assetRate.convertToUnderlying(underlyingInternal);\n        }\n    }\n\n    function _safeInt88(int256 x) private pure returns (int88) {\n        require(type(int88).min <= x && x <= type(int88).max);\n        return int88(x);\n    }\n\n    function _encodeLendBorrowTrade(\n        TradeActionType actionType,\n        uint8 marketIndex,\n        int256 fCash,\n        uint32 slippage\n    ) private pure returns (bytes32 encodedTrade, uint88 fCashAmount) {\n        uint256 absfCash = uint256(fCash.abs());\n        require(absfCash <= uint256(type(uint88).max));\n\n        encodedTrade = bytes32(\n            (uint256(uint8(actionType)) << 248) |\n            (uint256(marketIndex) << 240) |\n            (uint256(absfCash) << 152) |\n            (uint256(slippage) << 120)\n        );\n\n        fCashAmount = uint88(absfCash);\n    }\n\n    /// @notice Get a list of deployed library addresses (sorted by library name)\n    function getLibInfo() external pure returns (address) {\n        return (address(MigrateIncentives));\n    }\n}","sourcePath":"contracts/external/CalculationViews.sol","type":"contract","deployment":{"address":"0xeb5A4C2964C17D6371578AA5Ea92b8695774eD68","chainid":"1","blockHeight":18934321}}