{"abi":[{"inputs":[{"internalType":"address","name":"account","type":"address"},{"internalType":"uint16","name":"currencyId","type":"uint16"},{"internalType":"uint256","name":"amountExternalPrecision","type":"uint256"}],"name":"depositAssetToken","outputs":[{"internalType":"uint256","name":"","type":"uint256"}],"stateMutability":"nonpayable","type":"function"},{"inputs":[{"internalType":"address","name":"account","type":"address"},{"internalType":"uint16","name":"currencyId","type":"uint16"},{"internalType":"uint256","name":"amountExternalPrecision","type":"uint256"}],"name":"depositUnderlyingToken","outputs":[{"internalType":"uint256","name":"","type":"uint256"}],"stateMutability":"payable","type":"function"},{"inputs":[{"internalType":"uint16","name":"currencyId","type":"uint16"}],"name":"enableBitmapCurrency","outputs":[],"stateMutability":"nonpayable","type":"function"},{"inputs":[],"name":"owner","outputs":[{"internalType":"address","name":"","type":"address"}],"stateMutability":"view","type":"function"},{"inputs":[],"name":"pauseGuardian","outputs":[{"internalType":"address","name":"","type":"address"}],"stateMutability":"view","type":"function"},{"inputs":[],"name":"pauseRouter","outputs":[{"internalType":"address","name":"","type":"address"}],"stateMutability":"view","type":"function"},{"inputs":[{"internalType":"address","name":"account","type":"address"}],"name":"settleAccount","outputs":[{"internalType":"bool","name":"","type":"bool"}],"stateMutability":"nonpayable","type":"function"},{"inputs":[{"internalType":"uint16","name":"currencyId","type":"uint16"},{"internalType":"uint88","name":"amountInternalPrecision","type":"uint88"},{"internalType":"bool","name":"redeemToUnderlying","type":"bool"}],"name":"withdraw","outputs":[{"internalType":"uint256","name":"","type":"uint256"}],"stateMutability":"nonpayable","type":"function"}],"bytecode":"608060405234801561001057600080fd5b50612619806100206000396000f3fe60806040526004361061007b5760003560e01c80638da5cb5b1161004e5780638da5cb5b146101005780639c97945014610115578063b8a6945514610137578063f667f897146101575761007b565b806302f332e81461008057806324a3d622146100b65780632890fb65146100d857806382463367146100eb575b600080fd5b34801561008c57600080fd5b506100a061009b36600461234f565b610184565b6040516100ad9190612488565b60405180910390f35b3480156100c257600080fd5b506100cb6102e2565b6040516100ad91906123c0565b6100a06100e6366004612255565b6102f1565b3480156100f757600080fd5b506100cb610399565b34801561010c57600080fd5b506100cb6103a8565b34801561012157600080fd5b50610135610130366004612333565b61007b565b005b34801561014357600080fd5b506100a0610152366004612255565b6103bf565b34801561016357600080fd5b5061017761017236600461223b565b610439565b6040516100ad919061247d565b60006002600a5414156101b25760405162461bcd60e51b81526004016101a990612541565b60405180910390fd5b6002600a5560006101c23361046d565b5090506101cd612125565b6101d981338885610532565b846001600160581b0316816020015112156102065760405162461bcd60e51b81526004016101a9906124f4565b610218856001600160581b03166105d8565b6080820152600061022b823385886105ec565b9050610237833361085d565b60208301516001600160f81b031916156102b357604051636ccc642f60e01b815273__FreeCollateralExternal________________90636ccc642f906102829033906004016123c0565b60006040518083038186803b15801561029a57600080fd5b505af41580156102ae573d6000803e3d6000fd5b505050505b60008113156102c157600080fd5b6102d26102cd826105d8565b610961565b6001600a55979650505050505050565b6002546001600160a01b031681565b60006002600a5414156103165760405162461bcd60e51b81526004016101a990612541565b6002600a553330141561032857600080fd5b61033184610974565b600061033c856109c3565b9050610346612125565b61035281878785610532565b60006103693361036187610a64565b849190610a7a565b90506000811361037857600080fd5b61038582888560006105ec565b50610390838861085d565b6102d281610961565b6001546001600160a01b031681565b60005464010000000090046001600160a01b031681565b60006002600a5414156103e45760405162461bcd60e51b81526004016101a990612541565b6002600a55333014156103f657600080fd5b6103ff84610974565b600061040a856109c3565b9050610414612125565b61042081878785610532565b60006103693361042f87610a64565b8491906001610b87565b600061044482610974565b6000806104508461046d565b91509150801561046457610464828561085d565b9150505b919050565b610475612175565b600080610481846109c3565b905061048c81610c37565b15610526576040516337b5fc2160e11b815273__SettleAssetsExternal__________________90636f6bf842906104ca90879085906004016123f8565b60a06040518083038186803b1580156104e257600080fd5b505af41580156104f6573d6000803e3d6000fd5b505050506040513d601f19601f8201168201806040525081019061051a9190612293565b6001925092505061052d565b9150600090505b915091565b8161ffff16600010801561054c5750613fff61ffff831611155b61055557600080fd5b61ffff8216808552610568908290610c8b565b156105955761057b838361ffff16610d15565b61010088015260e0870152604086015260208501526105b3565b6000602085018190526040850181905260e085018190526101008501525b50506000606083018190526080830181905260a0830181905260c09092019190915250565b60006105e660001983610da1565b92915050565b60008060008660a0015112156106455760006106278760a001516106218960c001518a60400151610def90919063ffffffff16565b90610def565b12156106455760405162461bcd60e51b81526004016101a99061258b565b600086608001511215610695576000610677876080015161062189606001518a60200151610def90919063ffffffff16565b12156106955760405162461bcd60e51b81526004016101a990612569565b6106a0868685610e05565b6080880181905260608801519193506000916106bb91610def565b905080156107285760208701516106d29082610def565b602088015286516040516001935061ffff909116906001600160a01b038816907f5441e4a5fac93a951d782e6f1cdb82e95c8fc58561a013953d17e395c5e69b4b9061071f908590612488565b60405180910390a35b60a087015115158061073d575060c087015115155b156107d35761074c8787610eda565b506107708760c001516106218960a001518a60400151610def90919063ffffffff16565b604088015260c0870151156107ce57866000015161ffff16866001600160a01b03167f412bc13d202a2ea5119e55fec9c5e420dddb18faf186373ad9795ad4f4545aa98960c001516040516107c59190612488565b60405180910390a35b600191505b81156108005761080086886000015161ffff1689602001518a604001518b60e001518c6101000151610f55565b8651602088015161082d9161ffff16901515806108205750604089015115155b879190600160fe1b611075565b60008760200151121561085357602085018051600160f91b176001600160f81b03191690525b5050949350505050565b600061086761127c565b6001600160a01b03831660008181526020838152604080832088518154938a0151838b015160608c015160808d015160701c600160481b027affffffffffffffffffffffffffffffffffff0000000000000000001961ffff909216600160381b0268ffff000000000000001960ff94909416600160301b0266ff0000000000001960f89690961c650100000000000265ff00000000001964ffffffffff90981664ffffffffff19909b169a909a1796909616989098179390931693909317169490941716929092179091555192935090917f6bd4b121bca854a191536a2ca891155c42ee2fb23f307fb34e8bc65cfcb5412e9190a2505050565b60008082121561097057600080fd5b5090565b6001600160a01b03811661098757600080fd5b6001600160a01b03811630141561099d57600080fd5b60006109a882611289565b5050505061ffff169050806000146109bf57600080fd5b5050565b6109cb612175565b60006109d561127c565b6001600160a01b039390931660009081526020938452604090819020815160a081018352905464ffffffffff8116825265010000000000810460f81b6001600160f81b03191695820195909552600160301b850460ff1691810191909152600160381b840461ffff166060820152600160481b90930460701b6001600160701b03191660808401525090919050565b60006001600160ff1b0382111561097057600080fd5b600081610a8957506000610b80565b60008213610a9657600080fd5b6000610aa9856000015161ffff166112f2565b9050600381606001516004811115610abd57fe5b1415610ae757348314610ae25760405162461bcd60e51b81526004016101a9906124af565b610af5565b610af2818585611305565b92505b6000610b08866000015161ffff166113a9565b9050600181606001516004811115610b1c57fe5b1480610b375750600281606001516004811115610b3557fe5b145b610b4057600080fd5b6000610b55610b4e86610961565b83906113bc565b90506000610b638383611606565b6060890151909150610b759082610def565b606089015293505050505b9392505050565b600082610b9657506000610c2f565b60008313610ba357600080fd5b6000610bb6866000015161ffff166113a9565b90506000610bc48286611606565b9050816020015180610bd35750835b15610c12576000610be5838888611305565b9050610bf18382611606565b6060890151909250610c039083610def565b6060890152509150610c2f9050565b6080870151610c219082610def565b60808801529150610c2f9050565b949350505050565b600042610c438361163c565b15610c6457610c5181611649565b835164ffffffffff161091506104689050565b825164ffffffffff1615801590610c835750825164ffffffffff168110155b915050610468565b60008115801590610c9e5750613fff8211155b610ca757600080fd5b6080830151606084015161ffff16831415610cc65760019150506105e6565b6001600160701b0319811615610d0b5760f081901c613fff1683811415610cf85750600160fe1b9081161490506105e6565b5060101b6001600160801b031916610cc6565b5060009392505050565b6000806000806000610d25611667565b6001600160a01b0388166000908152602082815260408083208a84529091529020805469ffffffffffffffffffff81169650600160501b810463ffffffff16955091925090610d8390600160701b900466ffffffffffffff16611674565b9054600160a81b9004600a90810b900b989497509295509193505050565b818102600019831415610dd157811580610dc3575082828281610dc057fe5b05145b610dcc57600080fd5b6105e6565b821580610de6575081838281610de357fe5b05145b6105e657600080fd5b818101828112156000831215146105e657600080fd5b6000806000610e1b866000015161ffff166113a9565b90506000610e3687608001518361168290919063ffffffff16565b905080610e4b57600080935093505050610ed2565b848015610e585750600081125b15610eb5576000610e70886000015161ffff166112f2565b90506000610e8982610e81856105d8565b8691906116ba565b9050610ea088610e98836105d8565b849190611305565b9550610eac8484611606565b94505050610ecf565b610ec0828783611305565b9350610ecc8285611606565b92505b50505b935093915050565b815160009042908290610ef09061ffff166118d3565b90506000610f03828760c00151856118f9565b90506000610f2a83610f188960400151610961565b8960e001518a610100015188876119d3565b60e08801859052610100880183905290508015610f4b57610f4b8682611a7a565b9695505050505050565b6000610f5f611667565b6001600160a01b0388166000908152602082815260408083208a845290915290209091506a7fffffffffffffffffffff198612801590610faa57506a7fffffffffffffffffffff8613155b610fb357600080fd5b60008512158015610fce575069ffffffffffffffffffff8513155b610fd757600080fd5b63ffffffff841115610fe857600080fd5b805469ffffffffffffffffffff191669ffffffffffffffffffff86161763ffffffff60501b1916600160501b63ffffffff861602176001600160a81b0316600160a81b6001600160581b03600a89900b160217815561104683611a99565b815466ffffffffffffff91909116600160701b0266ffffffffffffff60701b1990911617905550505050505050565b8260001080156110875750613fff8311155b61109057600080fd5b8180156110a4575082846060015161ffff16145b156110ae57611276565b6080840151600090815b6001600160701b03198216156112305760f082901c613fff1686811480156110dd5750855b1561111557506080870180516001600160f01b0319861660109093029290921c919091176001600160701b0319169052506112769050565b8681148015611122575085155b1561117e576001600160f01b03198516199290921691600360fe1b831661115c576010836dffffffffffffffffffffffffffff1916901b92505b506001600160701b031991821660109091021c91909117166080850152611276565b868111801561118a5750855b156111e4576080888101516001600160f01b031960f08a901b88178116601086021c9690961795911b16156111be57600080fd5b506001600160701b03199182166001919091016010021c91909117166080850152611276565b86811180156111f1575085155b156111ff5750505050611276565b506001600160f01b0319821660108281029190911c93909317929190911b6001600160801b031916906001016110b8565b8461123d57505050611276565b6009811061124a57600080fd5b6001600160f01b031960f087901b85171660109091021c919091176001600160701b0319166080860152505b50505050565b6000806105e66001611ac7565b60008060008060008061129a611ae0565b6001600160a01b039097166000908152602097909752505060409094205461ffff81169563ffffffff62010000830481169650600160301b830416945060ff600160501b8304169350600160581b90910460d81b9150565b6112fa6121a3565b6105e6826001611aed565b6000808213156113215761131a848484611b9b565b91506113a2565b60038460600151600481111561133357fe5b141561138d57600082131561134757600080fd5b826001600160a01b0381166108fc61135e856105d8565b6040518115909202916000818181858888f19350505050158015611386573d6000803e3d6000fd5b50506113a2565b83516113a2908461139d856105d8565b611d38565b5092915050565b6113b16121a3565b6105e6826000611aed565b60008083600001516001600160a01b03166370a08231306040518263ffffffff1660e01b81526004016113ef91906123c0565b60206040518083038186803b15801561140757600080fd5b505afa15801561141b573d6000803e3d6000fd5b505050506040513d601f19601f8201168201806040525081019061143f91906123a8565b9050600060018560600151600481111561145557fe5b14156114e357845160405163140e25ad60e31b81526001600160a01b039091169063a0712d689061148a908790600401612488565b602060405180830381600087803b1580156114a457600080fd5b505af11580156114b8573d6000803e3d6000fd5b505050506040513d601f19601f820116820180604052508101906114dc91906123a8565b9050611554565b6002856060015160048111156114f557fe5b141561007b5784600001516001600160a01b0316631249c58b346040518263ffffffff1660e01b81526004016000604051808303818588803b15801561153a57600080fd5b505af115801561154e573d6000803e3d6000fd5b50505050505b80156115725760405162461bcd60e51b81526004016101a990612491565b84516040516370a0823160e01b81526000916001600160a01b0316906370a08231906115a29030906004016123c0565b60206040518083038186803b1580156115ba57600080fd5b505afa1580156115ce573d6000803e3d6000fd5b505050506040513d601f19601f820116820180604052508101906115f291906123a8565b9050610f4b6116018285611da5565b610a64565b60006305f5e1008360400151141561161f5750806105e6565b6040830151610b8090611636846305f5e100610da1565b90611e02565b6060015161ffff16151590565b60006201518082101561165b57600080fd5b50620151808106900390565b6000806105e66006611ac7565b600881901c60ff9091161b90565b60006305f5e1008360400151141561169b5750806105e6565b610b806305f5e100611636856040015185610da190919063ffffffff16565b6000806002856060015160048111156116cf57fe5b14156116dc575047611776565b6001856060015160048111156116ee57fe5b141561007b5783516040516370a0823160e01b81526001600160a01b03909116906370a08231906117239030906004016123c0565b60206040518083038186803b15801561173b57600080fd5b505afa15801561174f573d6000803e3d6000fd5b505050506040513d601f19601f8201168201806040525081019061177391906123a8565b90505b845160405163db006a7560e01b81526000916001600160a01b03169063db006a75906117a6908790600401612488565b602060405180830381600087803b1580156117c057600080fd5b505af11580156117d4573d6000803e3d6000fd5b505050506040513d601f19601f820116820180604052508101906117f891906123a8565b905080156118185760405162461bcd60e51b81526004016101a9906124d4565b600060028760600151600481111561182c57fe5b14156118395750476118bb565b85516040516370a0823160e01b81526001600160a01b03909116906370a08231906118689030906004016123c0565b60206040518083038186803b15801561188057600080fd5b505afa158015611894573d6000803e3d6000fd5b505050506040513d601f19601f820116820180604052508101906118b891906123a8565b90505b6118c86116018285611da5565b979650505050505050565b6000806118de611e33565b6000938452602052505060409020546001600160a01b031690565b60008060006119088685611e40565b5091509150846000146119ca5760006119218387610def565b90506000811215801561193a57506001600160601b0381105b61194357600080fd5b600061194d611eac565b6001600160a01b03891660009081526020919091526040902080546bffffffffffffffffffffffff19166001600160601b0393909316929092176fffffffffffffffffffffffffffffffff60601b1916600160601b6001600160801b03851602176001600160e01b0316600160e01b63ffffffff88160217909155505b95945050505050565b60008415806119e25750828510155b156119ef57506000610f4b565b60006119fa88611289565b50919350505086850390506000611a1e82611a19856305f5e100611eb9565b611f12565b90506000611a3683611a30888b611da5565b90611f37565b905080611a4a576000945050505050610f4b565b6000611a5a82611a308d86611eb9565b9050611a6a816305f5e100611f37565b9c9b505050505050505050505050565b6109bf73cfeaead4947f0705a14ec42ac3d44129e1ef3ed58383611d38565b60008065ffffffffffff831115611ab957602f611ab584611f9e565b0390505b82811c60081b179050919050565b6000620f4240826010811115611ad957fe5b0192915050565b6000806105e66002611ac7565b611af56121a3565b6000611aff61203c565b6000858152602082815260408083208715158452825291829020825160a08101845281546001600160a01b038116825260ff600160a01b82048116151594830194909452600160b01b81048416600a0a9482019490945293945092916060830191600160a81b909104166004811115611b7457fe5b81529154600160b81b900468ffffffffffffffffff16602090920191909152949350505050565b6000806000856020015115611c2c5785516040516370a0823160e01b81526001600160a01b03909116906370a0823190611bd99030906004016123c0565b60206040518083038186803b158015611bf157600080fd5b505afa158015611c05573d6000803e3d6000fd5b505050506040513d601f19601f82011682018060405250810190611c2991906123a8565b91505b8551611c39908686612049565b856020015180611c4d575060008660800151115b15611cd45785516040516370a0823160e01b81526001600160a01b03909116906370a0823190611c819030906004016123c0565b60206040518083038186803b158015611c9957600080fd5b505afa158015611cad573d6000803e3d6000fd5b505050506040513d601f19601f82011682018060405250810190611cd191906123a8565b90505b608086015115611d0f576000611cf287611ced84610a64565b611606565b9050611d018760800151610a64565b811315611d0d57600080fd5b505b856020015115611d2f57611d266116018284611da5565b92505050610b80565b611d2684610a64565b60405163a9059cbb60e01b81526001600160a01b0384169063a9059cbb90611d669085908590600401612464565b600060405180830381600087803b158015611d8057600080fd5b505af1158015611d94573d6000803e3d6000fd5b50505050611da0612079565b505050565b600082821115611dfc576040805162461bcd60e51b815260206004820152601e60248201527f536166654d6174683a207375627472616374696f6e206f766572666c6f770000604482015290519081900360640190fd5b50900390565b600081600019148015611e185750600160ff1b83145b15611e2257600080fd5b818381611e2b57fe5b059392505050565b6000806105e66003611ac7565b6000806000611e4e856120c9565b9194509250905080611e5d5750825b80841015611e6a57600080fd5b611e80611e7984838703610da1565b8390610def565b91506001600160801b038210611e9557600080fd5b63ffffffff8410611ea557600080fd5b9250925092565b6000806105e6600e611ac7565b600082611ec8575060006105e6565b82820282848281611ed557fe5b0414610b805760405162461bcd60e51b81526004018080602001828103825260218152602001806125c36021913960400191505060405180910390fd5b600080611f2b6301da9c00611a30866305f5e100611eb9565b9050610c2f8184611eb9565b6000808211611f8d576040805162461bcd60e51b815260206004820152601a60248201527f536166654d6174683a206469766973696f6e206279207a65726f000000000000604482015290519081900360640190fd5b818381611f9657fe5b049392505050565b600081611faa57600080fd5b600160801b8210611fbd57608091821c91015b680100000000000000008210611fd557604091821c91015b6401000000008210611fe957602091821c91015b620100008210611ffb57601091821c91015b610100821061200c57600891821c91015b6010821061201c57600491821c91015b6004821061202c57600291821c91015b6002821061046857600101919050565b6000806105e66007611ac7565b6040516323b872dd60e01b81526001600160a01b038416906323b872dd90611d66908590309086906004016123d4565b60006120836121d2565b3d801561209757602081146120a057600080fd5b600192506120ab565b60206000833e815192505b50816109bf5760405162461bcd60e51b81526004016101a990612522565b6000806000806120d7611eac565b6001600160a01b0395909516600090815260209590955250506040909220546001600160601b03811693600160601b82046001600160801b03169350600160e01b90910463ffffffff169150565b604051806101200160405280600061ffff16815260200160008152602001600081526020016000815260200160008152602001600081526020016000815260200160008152602001600081525090565b6040805160a08101825260008082526020820181905291810182905260608101829052608081019190915290565b6040805160a0810182526000808252602082018190529181018290529060608201908152602001600081525090565b60405180602001604052806001906020820280368337509192915050565b80356001600160a01b038116811461046857600080fd5b80516001600160701b03198116811461046857600080fd5b8051610468816125af565b805160ff8116811461046857600080fd5b60006020828403121561224c578081fd5b610b80826121f0565b600080600060608486031215612269578182fd5b612272846121f0565b92506020840135612282816125af565b929592945050506040919091013590565b600060a082840312156122a4578081fd5b60405160a0810181811067ffffffffffffffff821117156122c157fe5b604052825164ffffffffff811681146122d8578283fd5b815260208301516001600160f81b0319811681146122f4578283fd5b60208201526123056040840161222a565b60408201526123166060840161221f565b606082015261232760808401612207565b60808201529392505050565b600060208284031215612344578081fd5b8135610b80816125af565b600080600060608486031215612363578283fd5b833561236e816125af565b925060208401356001600160581b0381168114612389578283fd5b91506040840135801515811461239d578182fd5b809150509250925092565b6000602082840312156123b9578081fd5b5051919050565b6001600160a01b0391909116815260200190565b6001600160a01b039384168152919092166020820152604081019190915260600190565b6001600160a01b03929092168252805164ffffffffff166020808401919091528101516001600160f81b03191660408084019190915281015160ff1660608084019190915281015161ffff1660808084019190915201516001600160701b03191660a082015260c00190565b6001600160a01b03929092168252602082015260400190565b901515815260200190565b90815260200190565b602080825260049082015263135a5b9d60e21b604082015260600190565b6020808252600b908201526a4554482042616c616e636560a81b604082015260600190565b60208082526006908201526552656465656d60d01b604082015260600190565b602080825260149082015273496e73756666696369656e742062616c616e636560601b604082015260600190565b602080825260059082015264045524332360dc1b604082015260600190565b6020808252600e908201526d1499595b9d1c985b9d0818d85b1b60921b604082015260600190565b60208082526008908201526709ccace4086c2e6d60c31b604082015260600190565b6020808252600a90820152692732b390372a37b5b2b760b11b604082015260600190565b61ffff811681146125bf57600080fd5b5056fe536166654d6174683a206d756c7469706c69636174696f6e206f766572666c6f77a26469706673582212206a0a23c866533f88f60a8606c84261aa3525f061ada8a703f967b1988042fc6064736f6c63430007060033","bytecodeSha1":"6e7fa01b41ab324ff8853ea4c0a194b1ce82a66f","compiler":{"evm_version":"istanbul","optimizer":{"enabled":true,"runs":200},"version":"0.7.6+commit.7338295f"},"contractName":"AccountAction","deployedBytecode":"60806040526004361061007b5760003560e01c80638da5cb5b1161004e5780638da5cb5b146101005780639c97945014610115578063b8a6945514610137578063f667f897146101575761007b565b806302f332e81461008057806324a3d622146100b65780632890fb65146100d857806382463367146100eb575b600080fd5b34801561008c57600080fd5b506100a061009b36600461234f565b610184565b6040516100ad9190612488565b60405180910390f35b3480156100c257600080fd5b506100cb6102e2565b6040516100ad91906123c0565b6100a06100e6366004612255565b6102f1565b3480156100f757600080fd5b506100cb610399565b34801561010c57600080fd5b506100cb6103a8565b34801561012157600080fd5b50610135610130366004612333565b61007b565b005b34801561014357600080fd5b506100a0610152366004612255565b6103bf565b34801561016357600080fd5b5061017761017236600461223b565b610439565b6040516100ad919061247d565b60006002600a5414156101b25760405162461bcd60e51b81526004016101a990612541565b60405180910390fd5b6002600a5560006101c23361046d565b5090506101cd612125565b6101d981338885610532565b846001600160581b0316816020015112156102065760405162461bcd60e51b81526004016101a9906124f4565b610218856001600160581b03166105d8565b6080820152600061022b823385886105ec565b9050610237833361085d565b60208301516001600160f81b031916156102b357604051636ccc642f60e01b815273__$841fddfe32830bb6dbc3a02d7f16c53722$__90636ccc642f906102829033906004016123c0565b60006040518083038186803b15801561029a57600080fd5b505af41580156102ae573d6000803e3d6000fd5b505050505b60008113156102c157600080fd5b6102d26102cd826105d8565b610961565b6001600a55979650505050505050565b6002546001600160a01b031681565b60006002600a5414156103165760405162461bcd60e51b81526004016101a990612541565b6002600a553330141561032857600080fd5b61033184610974565b600061033c856109c3565b9050610346612125565b61035281878785610532565b60006103693361036187610a64565b849190610a7a565b90506000811361037857600080fd5b61038582888560006105ec565b50610390838861085d565b6102d281610961565b6001546001600160a01b031681565b60005464010000000090046001600160a01b031681565b60006002600a5414156103e45760405162461bcd60e51b81526004016101a990612541565b6002600a55333014156103f657600080fd5b6103ff84610974565b600061040a856109c3565b9050610414612125565b61042081878785610532565b60006103693361042f87610a64565b8491906001610b87565b600061044482610974565b6000806104508461046d565b91509150801561046457610464828561085d565b9150505b919050565b610475612175565b600080610481846109c3565b905061048c81610c37565b15610526576040516337b5fc2160e11b815273__$f6541b0d362a0c7d99a2a29cd3d373d61b$__90636f6bf842906104ca90879085906004016123f8565b60a06040518083038186803b1580156104e257600080fd5b505af41580156104f6573d6000803e3d6000fd5b505050506040513d601f19601f8201168201806040525081019061051a9190612293565b6001925092505061052d565b9150600090505b915091565b8161ffff16600010801561054c5750613fff61ffff831611155b61055557600080fd5b61ffff8216808552610568908290610c8b565b156105955761057b838361ffff16610d15565b61010088015260e0870152604086015260208501526105b3565b6000602085018190526040850181905260e085018190526101008501525b50506000606083018190526080830181905260a0830181905260c09092019190915250565b60006105e660001983610da1565b92915050565b60008060008660a0015112156106455760006106278760a001516106218960c001518a60400151610def90919063ffffffff16565b90610def565b12156106455760405162461bcd60e51b81526004016101a99061258b565b600086608001511215610695576000610677876080015161062189606001518a60200151610def90919063ffffffff16565b12156106955760405162461bcd60e51b81526004016101a990612569565b6106a0868685610e05565b6080880181905260608801519193506000916106bb91610def565b905080156107285760208701516106d29082610def565b602088015286516040516001935061ffff909116906001600160a01b038816907f5441e4a5fac93a951d782e6f1cdb82e95c8fc58561a013953d17e395c5e69b4b9061071f908590612488565b60405180910390a35b60a087015115158061073d575060c087015115155b156107d35761074c8787610eda565b506107708760c001516106218960a001518a60400151610def90919063ffffffff16565b604088015260c0870151156107ce57866000015161ffff16866001600160a01b03167f412bc13d202a2ea5119e55fec9c5e420dddb18faf186373ad9795ad4f4545aa98960c001516040516107c59190612488565b60405180910390a35b600191505b81156108005761080086886000015161ffff1689602001518a604001518b60e001518c6101000151610f55565b8651602088015161082d9161ffff16901515806108205750604089015115155b879190600160fe1b611075565b60008760200151121561085357602085018051600160f91b176001600160f81b03191690525b5050949350505050565b600061086761127c565b6001600160a01b03831660008181526020838152604080832088518154938a0151838b015160608c015160808d015160701c600160481b027affffffffffffffffffffffffffffffffffff0000000000000000001961ffff909216600160381b0268ffff000000000000001960ff94909416600160301b0266ff0000000000001960f89690961c650100000000000265ff00000000001964ffffffffff90981664ffffffffff19909b169a909a1796909616989098179390931693909317169490941716929092179091555192935090917f6bd4b121bca854a191536a2ca891155c42ee2fb23f307fb34e8bc65cfcb5412e9190a2505050565b60008082121561097057600080fd5b5090565b6001600160a01b03811661098757600080fd5b6001600160a01b03811630141561099d57600080fd5b60006109a882611289565b5050505061ffff169050806000146109bf57600080fd5b5050565b6109cb612175565b60006109d561127c565b6001600160a01b039390931660009081526020938452604090819020815160a081018352905464ffffffffff8116825265010000000000810460f81b6001600160f81b03191695820195909552600160301b850460ff1691810191909152600160381b840461ffff166060820152600160481b90930460701b6001600160701b03191660808401525090919050565b60006001600160ff1b0382111561097057600080fd5b600081610a8957506000610b80565b60008213610a9657600080fd5b6000610aa9856000015161ffff166112f2565b9050600381606001516004811115610abd57fe5b1415610ae757348314610ae25760405162461bcd60e51b81526004016101a9906124af565b610af5565b610af2818585611305565b92505b6000610b08866000015161ffff166113a9565b9050600181606001516004811115610b1c57fe5b1480610b375750600281606001516004811115610b3557fe5b145b610b4057600080fd5b6000610b55610b4e86610961565b83906113bc565b90506000610b638383611606565b6060890151909150610b759082610def565b606089015293505050505b9392505050565b600082610b9657506000610c2f565b60008313610ba357600080fd5b6000610bb6866000015161ffff166113a9565b90506000610bc48286611606565b9050816020015180610bd35750835b15610c12576000610be5838888611305565b9050610bf18382611606565b6060890151909250610c039083610def565b6060890152509150610c2f9050565b6080870151610c219082610def565b60808801529150610c2f9050565b949350505050565b600042610c438361163c565b15610c6457610c5181611649565b835164ffffffffff161091506104689050565b825164ffffffffff1615801590610c835750825164ffffffffff168110155b915050610468565b60008115801590610c9e5750613fff8211155b610ca757600080fd5b6080830151606084015161ffff16831415610cc65760019150506105e6565b6001600160701b0319811615610d0b5760f081901c613fff1683811415610cf85750600160fe1b9081161490506105e6565b5060101b6001600160801b031916610cc6565b5060009392505050565b6000806000806000610d25611667565b6001600160a01b0388166000908152602082815260408083208a84529091529020805469ffffffffffffffffffff81169650600160501b810463ffffffff16955091925090610d8390600160701b900466ffffffffffffff16611674565b9054600160a81b9004600a90810b900b989497509295509193505050565b818102600019831415610dd157811580610dc3575082828281610dc057fe5b05145b610dcc57600080fd5b6105e6565b821580610de6575081838281610de357fe5b05145b6105e657600080fd5b818101828112156000831215146105e657600080fd5b6000806000610e1b866000015161ffff166113a9565b90506000610e3687608001518361168290919063ffffffff16565b905080610e4b57600080935093505050610ed2565b848015610e585750600081125b15610eb5576000610e70886000015161ffff166112f2565b90506000610e8982610e81856105d8565b8691906116ba565b9050610ea088610e98836105d8565b849190611305565b9550610eac8484611606565b94505050610ecf565b610ec0828783611305565b9350610ecc8285611606565b92505b50505b935093915050565b815160009042908290610ef09061ffff166118d3565b90506000610f03828760c00151856118f9565b90506000610f2a83610f188960400151610961565b8960e001518a610100015188876119d3565b60e08801859052610100880183905290508015610f4b57610f4b8682611a7a565b9695505050505050565b6000610f5f611667565b6001600160a01b0388166000908152602082815260408083208a845290915290209091506a7fffffffffffffffffffff198612801590610faa57506a7fffffffffffffffffffff8613155b610fb357600080fd5b60008512158015610fce575069ffffffffffffffffffff8513155b610fd757600080fd5b63ffffffff841115610fe857600080fd5b805469ffffffffffffffffffff191669ffffffffffffffffffff86161763ffffffff60501b1916600160501b63ffffffff861602176001600160a81b0316600160a81b6001600160581b03600a89900b160217815561104683611a99565b815466ffffffffffffff91909116600160701b0266ffffffffffffff60701b1990911617905550505050505050565b8260001080156110875750613fff8311155b61109057600080fd5b8180156110a4575082846060015161ffff16145b156110ae57611276565b6080840151600090815b6001600160701b03198216156112305760f082901c613fff1686811480156110dd5750855b1561111557506080870180516001600160f01b0319861660109093029290921c919091176001600160701b0319169052506112769050565b8681148015611122575085155b1561117e576001600160f01b03198516199290921691600360fe1b831661115c576010836dffffffffffffffffffffffffffff1916901b92505b506001600160701b031991821660109091021c91909117166080850152611276565b868111801561118a5750855b156111e4576080888101516001600160f01b031960f08a901b88178116601086021c9690961795911b16156111be57600080fd5b506001600160701b03199182166001919091016010021c91909117166080850152611276565b86811180156111f1575085155b156111ff5750505050611276565b506001600160f01b0319821660108281029190911c93909317929190911b6001600160801b031916906001016110b8565b8461123d57505050611276565b6009811061124a57600080fd5b6001600160f01b031960f087901b85171660109091021c919091176001600160701b0319166080860152505b50505050565b6000806105e66001611ac7565b60008060008060008061129a611ae0565b6001600160a01b039097166000908152602097909752505060409094205461ffff81169563ffffffff62010000830481169650600160301b830416945060ff600160501b8304169350600160581b90910460d81b9150565b6112fa6121a3565b6105e6826001611aed565b6000808213156113215761131a848484611b9b565b91506113a2565b60038460600151600481111561133357fe5b141561138d57600082131561134757600080fd5b826001600160a01b0381166108fc61135e856105d8565b6040518115909202916000818181858888f19350505050158015611386573d6000803e3d6000fd5b50506113a2565b83516113a2908461139d856105d8565b611d38565b5092915050565b6113b16121a3565b6105e6826000611aed565b60008083600001516001600160a01b03166370a08231306040518263ffffffff1660e01b81526004016113ef91906123c0565b60206040518083038186803b15801561140757600080fd5b505afa15801561141b573d6000803e3d6000fd5b505050506040513d601f19601f8201168201806040525081019061143f91906123a8565b9050600060018560600151600481111561145557fe5b14156114e357845160405163140e25ad60e31b81526001600160a01b039091169063a0712d689061148a908790600401612488565b602060405180830381600087803b1580156114a457600080fd5b505af11580156114b8573d6000803e3d6000fd5b505050506040513d601f19601f820116820180604052508101906114dc91906123a8565b9050611554565b6002856060015160048111156114f557fe5b141561007b5784600001516001600160a01b0316631249c58b346040518263ffffffff1660e01b81526004016000604051808303818588803b15801561153a57600080fd5b505af115801561154e573d6000803e3d6000fd5b50505050505b80156115725760405162461bcd60e51b81526004016101a990612491565b84516040516370a0823160e01b81526000916001600160a01b0316906370a08231906115a29030906004016123c0565b60206040518083038186803b1580156115ba57600080fd5b505afa1580156115ce573d6000803e3d6000fd5b505050506040513d601f19601f820116820180604052508101906115f291906123a8565b9050610f4b6116018285611da5565b610a64565b60006305f5e1008360400151141561161f5750806105e6565b6040830151610b8090611636846305f5e100610da1565b90611e02565b6060015161ffff16151590565b60006201518082101561165b57600080fd5b50620151808106900390565b6000806105e66006611ac7565b600881901c60ff9091161b90565b60006305f5e1008360400151141561169b5750806105e6565b610b806305f5e100611636856040015185610da190919063ffffffff16565b6000806002856060015160048111156116cf57fe5b14156116dc575047611776565b6001856060015160048111156116ee57fe5b141561007b5783516040516370a0823160e01b81526001600160a01b03909116906370a08231906117239030906004016123c0565b60206040518083038186803b15801561173b57600080fd5b505afa15801561174f573d6000803e3d6000fd5b505050506040513d601f19601f8201168201806040525081019061177391906123a8565b90505b845160405163db006a7560e01b81526000916001600160a01b03169063db006a75906117a6908790600401612488565b602060405180830381600087803b1580156117c057600080fd5b505af11580156117d4573d6000803e3d6000fd5b505050506040513d601f19601f820116820180604052508101906117f891906123a8565b905080156118185760405162461bcd60e51b81526004016101a9906124d4565b600060028760600151600481111561182c57fe5b14156118395750476118bb565b85516040516370a0823160e01b81526001600160a01b03909116906370a08231906118689030906004016123c0565b60206040518083038186803b15801561188057600080fd5b505afa158015611894573d6000803e3d6000fd5b505050506040513d601f19601f820116820180604052508101906118b891906123a8565b90505b6118c86116018285611da5565b979650505050505050565b6000806118de611e33565b6000938452602052505060409020546001600160a01b031690565b60008060006119088685611e40565b5091509150846000146119ca5760006119218387610def565b90506000811215801561193a57506001600160601b0381105b61194357600080fd5b600061194d611eac565b6001600160a01b03891660009081526020919091526040902080546bffffffffffffffffffffffff19166001600160601b0393909316929092176fffffffffffffffffffffffffffffffff60601b1916600160601b6001600160801b03851602176001600160e01b0316600160e01b63ffffffff88160217909155505b95945050505050565b60008415806119e25750828510155b156119ef57506000610f4b565b60006119fa88611289565b50919350505086850390506000611a1e82611a19856305f5e100611eb9565b611f12565b90506000611a3683611a30888b611da5565b90611f37565b905080611a4a576000945050505050610f4b565b6000611a5a82611a308d86611eb9565b9050611a6a816305f5e100611f37565b9c9b505050505050505050505050565b6109bf73cfeaead4947f0705a14ec42ac3d44129e1ef3ed58383611d38565b60008065ffffffffffff831115611ab957602f611ab584611f9e565b0390505b82811c60081b179050919050565b6000620f4240826010811115611ad957fe5b0192915050565b6000806105e66002611ac7565b611af56121a3565b6000611aff61203c565b6000858152602082815260408083208715158452825291829020825160a08101845281546001600160a01b038116825260ff600160a01b82048116151594830194909452600160b01b81048416600a0a9482019490945293945092916060830191600160a81b909104166004811115611b7457fe5b81529154600160b81b900468ffffffffffffffffff16602090920191909152949350505050565b6000806000856020015115611c2c5785516040516370a0823160e01b81526001600160a01b03909116906370a0823190611bd99030906004016123c0565b60206040518083038186803b158015611bf157600080fd5b505afa158015611c05573d6000803e3d6000fd5b505050506040513d601f19601f82011682018060405250810190611c2991906123a8565b91505b8551611c39908686612049565b856020015180611c4d575060008660800151115b15611cd45785516040516370a0823160e01b81526001600160a01b03909116906370a0823190611c819030906004016123c0565b60206040518083038186803b158015611c9957600080fd5b505afa158015611cad573d6000803e3d6000fd5b505050506040513d601f19601f82011682018060405250810190611cd191906123a8565b90505b608086015115611d0f576000611cf287611ced84610a64565b611606565b9050611d018760800151610a64565b811315611d0d57600080fd5b505b856020015115611d2f57611d266116018284611da5565b92505050610b80565b611d2684610a64565b60405163a9059cbb60e01b81526001600160a01b0384169063a9059cbb90611d669085908590600401612464565b600060405180830381600087803b158015611d8057600080fd5b505af1158015611d94573d6000803e3d6000fd5b50505050611da0612079565b505050565b600082821115611dfc576040805162461bcd60e51b815260206004820152601e60248201527f536166654d6174683a207375627472616374696f6e206f766572666c6f770000604482015290519081900360640190fd5b50900390565b600081600019148015611e185750600160ff1b83145b15611e2257600080fd5b818381611e2b57fe5b059392505050565b6000806105e66003611ac7565b6000806000611e4e856120c9565b9194509250905080611e5d5750825b80841015611e6a57600080fd5b611e80611e7984838703610da1565b8390610def565b91506001600160801b038210611e9557600080fd5b63ffffffff8410611ea557600080fd5b9250925092565b6000806105e6600e611ac7565b600082611ec8575060006105e6565b82820282848281611ed557fe5b0414610b805760405162461bcd60e51b81526004018080602001828103825260218152602001806125c36021913960400191505060405180910390fd5b600080611f2b6301da9c00611a30866305f5e100611eb9565b9050610c2f8184611eb9565b6000808211611f8d576040805162461bcd60e51b815260206004820152601a60248201527f536166654d6174683a206469766973696f6e206279207a65726f000000000000604482015290519081900360640190fd5b818381611f9657fe5b049392505050565b600081611faa57600080fd5b600160801b8210611fbd57608091821c91015b680100000000000000008210611fd557604091821c91015b6401000000008210611fe957602091821c91015b620100008210611ffb57601091821c91015b610100821061200c57600891821c91015b6010821061201c57600491821c91015b6004821061202c57600291821c91015b6002821061046857600101919050565b6000806105e66007611ac7565b6040516323b872dd60e01b81526001600160a01b038416906323b872dd90611d66908590309086906004016123d4565b60006120836121d2565b3d801561209757602081146120a057600080fd5b600192506120ab565b60206000833e815192505b50816109bf5760405162461bcd60e51b81526004016101a990612522565b6000806000806120d7611eac565b6001600160a01b0395909516600090815260209590955250506040909220546001600160601b03811693600160601b82046001600160801b03169350600160e01b90910463ffffffff169150565b604051806101200160405280600061ffff16815260200160008152602001600081526020016000815260200160008152602001600081526020016000815260200160008152602001600081525090565b6040805160a08101825260008082526020820181905291810182905260608101829052608081019190915290565b6040805160a0810182526000808252602082018190529181018290529060608201908152602001600081525090565b60405180602001604052806001906020820280368337509192915050565b80356001600160a01b038116811461046857600080fd5b80516001600160701b03198116811461046857600080fd5b8051610468816125af565b805160ff8116811461046857600080fd5b60006020828403121561224c578081fd5b610b80826121f0565b600080600060608486031215612269578182fd5b612272846121f0565b92506020840135612282816125af565b929592945050506040919091013590565b600060a082840312156122a4578081fd5b60405160a0810181811067ffffffffffffffff821117156122c157fe5b604052825164ffffffffff811681146122d8578283fd5b815260208301516001600160f81b0319811681146122f4578283fd5b60208201526123056040840161222a565b60408201526123166060840161221f565b606082015261232760808401612207565b60808201529392505050565b600060208284031215612344578081fd5b8135610b80816125af565b600080600060608486031215612363578283fd5b833561236e816125af565b925060208401356001600160581b0381168114612389578283fd5b91506040840135801515811461239d578182fd5b809150509250925092565b6000602082840312156123b9578081fd5b5051919050565b6001600160a01b0391909116815260200190565b6001600160a01b039384168152919092166020820152604081019190915260600190565b6001600160a01b03929092168252805164ffffffffff166020808401919091528101516001600160f81b03191660408084019190915281015160ff1660608084019190915281015161ffff1660808084019190915201516001600160701b03191660a082015260c00190565b6001600160a01b03929092168252602082015260400190565b901515815260200190565b90815260200190565b602080825260049082015263135a5b9d60e21b604082015260600190565b6020808252600b908201526a4554482042616c616e636560a81b604082015260600190565b60208082526006908201526552656465656d60d01b604082015260600190565b602080825260149082015273496e73756666696369656e742062616c616e636560601b604082015260600190565b602080825260059082015264045524332360dc1b604082015260600190565b6020808252600e908201526d1499595b9d1c985b9d0818d85b1b60921b604082015260600190565b60208082526008908201526709ccace4086c2e6d60c31b604082015260600190565b6020808252600a90820152692732b390372a37b5b2b760b11b604082015260600190565b61ffff811681146125bf57600080fd5b5056fe536166654d6174683a206d756c7469706c69636174696f6e206f766572666c6f77a26469706673582212206a0a23c866533f88f60a8606c84261aa3525f061ada8a703f967b1988042fc6064736f6c63430007060033","language":"Solidity","natspec":{"kind":"dev","methods":{"depositAssetToken(address,uint16,uint256)":{"details":"emit:CashBalanceChange emit:AccountContextUpdateauth:none","notice":"Deposits asset tokens into an account. Does not settle or check free collateral, idea is to make deposit as gas efficient as possible during potential liquidation events.","params":{"account":"the account to deposit into","amountExternalPrecision":"the amount of asset tokens in its native decimal precision (i.e. 8 decimals for cTokens).","currencyId":"currency id of the asset token"},"returns":{"_0":"asset tokens minted and deposited to the account in internal decimals (8)"}},"depositUnderlyingToken(address,uint16,uint256)":{"details":"emit:CashBalanceChange emit:AccountContextUpdateauth:none","notice":"Deposits and wraps the underlying token for a particular cToken. Does not settle assets or check free collateral, idea is to be as gas efficient as possible during potential liquidation events.","params":{"account":"the account to deposit into","amountExternalPrecision":"the amount of underlying tokens in its native decimal precision (i.e. 18 decimals for DAI or 6 decimals for USDC). This will be converted to 8 decimals during transfer.","currencyId":"currency id of the asset token that wraps this underlying"},"returns":{"_0":"asset tokens minted and deposited to the account in internal decimals (8)"}},"enableBitmapCurrency(uint16)":{"details":"emit:AccountSettled emit:AccountContextUpdateauth:msg.sender","notice":"Enables a bitmap currency for msg.sender, account cannot have any assets when this call occurs.","params":{"currencyId":"the currency to enable the bitmap for. If set to zero then will attempt to disable the bitmap portfolio for the account"}},"settleAccount(address)":{"details":"emit:AccountSettled emit:AccountContextUpdateauth:none","notice":"Method for manually settling an account, generally should not be called because other methods will check if an account needs to be settled automatically. If a bitmap account has debt and is settled via this method, the hasDebt flag will not be cleared until a free collateral check is performed on the account.","params":{"account":"the account to settle"},"returns":{"_0":"returns true if account has been settled"}},"withdraw(uint16,uint88,bool)":{"details":"emit:CashBalanceChange emit:AccountContextUpdateauth:msg.sender","notice":"Withdraws balances from Notional, may also redeem to underlying tokens on user request. Will settle and do free collateral checks if required. Can only be called by msg.sender, operators who want to withdraw for an account must do an authenticated call via ERC1155Action `safeTransferFrom` or `safeBatchTransferFrom`","params":{"amountInternalPrecision":"the amount of cash balance in internal 8 decimal precision to withdraw, this is be denominated in asset cash.","currencyId":"currency id of the asset token","redeemToUnderlying":"true if the tokens should be converted to underlying assets"},"returns":{"_0":"the amount of tokens received by the account denominated in the destination token precision (if"}}},"version":1},"opcodes":"PUSH1 0x80 PUSH1 0x40 MSTORE PUSH1 0x4 CALLDATASIZE LT PUSH2 0x7B JUMPI PUSH1 0x0 CALLDATALOAD PUSH1 0xE0 SHR DUP1 PUSH4 0x8DA5CB5B GT PUSH2 0x4E JUMPI DUP1 PUSH4 0x8DA5CB5B EQ PUSH2 0x100 JUMPI DUP1 PUSH4 0x9C979450 EQ PUSH2 0x115 JUMPI DUP1 PUSH4 0xB8A69455 EQ PUSH2 0x137 JUMPI DUP1 PUSH4 0xF667F897 EQ PUSH2 0x157 JUMPI PUSH2 0x7B JUMP JUMPDEST DUP1 PUSH4 0x2F332E8 EQ PUSH2 0x80 JUMPI DUP1 PUSH4 0x24A3D622 EQ PUSH2 0xB6 JUMPI DUP1 PUSH4 0x2890FB65 EQ PUSH2 0xD8 JUMPI DUP1 PUSH4 0x82463367 EQ PUSH2 0xEB JUMPI JUMPDEST PUSH1 0x0 DUP1 REVERT JUMPDEST CALLVALUE DUP1 ISZERO PUSH2 0x8C JUMPI PUSH1 0x0 DUP1 REVERT JUMPDEST POP PUSH2 0xA0 PUSH2 0x9B CALLDATASIZE PUSH1 0x4 PUSH2 0x234F JUMP JUMPDEST PUSH2 0x184 JUMP JUMPDEST PUSH1 0x40 MLOAD PUSH2 0xAD SWAP2 SWAP1 PUSH2 0x2488 JUMP JUMPDEST PUSH1 0x40 MLOAD DUP1 SWAP2 SUB SWAP1 RETURN JUMPDEST CALLVALUE DUP1 ISZERO PUSH2 0xC2 JUMPI PUSH1 0x0 DUP1 REVERT JUMPDEST POP PUSH2 0xCB PUSH2 0x2E2 JUMP JUMPDEST PUSH1 0x40 MLOAD PUSH2 0xAD SWAP2 SWAP1 PUSH2 0x23C0 JUMP JUMPDEST PUSH2 0xA0 PUSH2 0xE6 CALLDATASIZE PUSH1 0x4 PUSH2 0x2255 JUMP JUMPDEST PUSH2 0x2F1 JUMP JUMPDEST CALLVALUE DUP1 ISZERO PUSH2 0xF7 JUMPI PUSH1 0x0 DUP1 REVERT JUMPDEST POP PUSH2 0xCB PUSH2 0x399 JUMP JUMPDEST CALLVALUE DUP1 ISZERO PUSH2 0x10C JUMPI PUSH1 0x0 DUP1 REVERT JUMPDEST POP PUSH2 0xCB PUSH2 0x3A8 JUMP JUMPDEST CALLVALUE DUP1 ISZERO PUSH2 0x121 JUMPI PUSH1 0x0 DUP1 REVERT JUMPDEST POP PUSH2 0x135 PUSH2 0x130 CALLDATASIZE PUSH1 0x4 PUSH2 0x2333 JUMP JUMPDEST PUSH2 0x7B JUMP JUMPDEST STOP JUMPDEST CALLVALUE DUP1 ISZERO PUSH2 0x143 JUMPI PUSH1 0x0 DUP1 REVERT JUMPDEST POP PUSH2 0xA0 PUSH2 0x152 CALLDATASIZE PUSH1 0x4 PUSH2 0x2255 JUMP JUMPDEST PUSH2 0x3BF JUMP JUMPDEST CALLVALUE DUP1 ISZERO PUSH2 0x163 JUMPI PUSH1 0x0 DUP1 REVERT JUMPDEST POP PUSH2 0x177 PUSH2 0x172 CALLDATASIZE PUSH1 0x4 PUSH2 0x223B JUMP JUMPDEST PUSH2 0x439 JUMP JUMPDEST PUSH1 0x40 MLOAD PUSH2 0xAD SWAP2 SWAP1 PUSH2 0x247D JUMP JUMPDEST PUSH1 0x0 PUSH1 0x2 PUSH1 0xA SLOAD EQ ISZERO PUSH2 0x1B2 JUMPI PUSH1 0x40 MLOAD PUSH3 0x461BCD PUSH1 0xE5 SHL DUP2 MSTORE PUSH1 0x4 ADD PUSH2 0x1A9 SWAP1 PUSH2 0x2541 JUMP JUMPDEST PUSH1 0x40 MLOAD DUP1 SWAP2 SUB SWAP1 REVERT JUMPDEST PUSH1 0x2 PUSH1 0xA SSTORE PUSH1 0x0 PUSH2 0x1C2 CALLER PUSH2 0x46D JUMP JUMPDEST POP SWAP1 POP PUSH2 0x1CD PUSH2 0x2125 JUMP JUMPDEST PUSH2 0x1D9 DUP2 CALLER DUP9 DUP6 PUSH2 0x532 JUMP JUMPDEST DUP5 PUSH1 0x1 PUSH1 0x1 PUSH1 0x58 SHL SUB AND DUP2 PUSH1 0x20 ADD MLOAD SLT ISZERO PUSH2 0x206 JUMPI PUSH1 0x40 MLOAD PUSH3 0x461BCD PUSH1 0xE5 SHL DUP2 MSTORE PUSH1 0x4 ADD PUSH2 0x1A9 SWAP1 PUSH2 0x24F4 JUMP JUMPDEST PUSH2 0x218 DUP6 PUSH1 0x1 PUSH1 0x1 PUSH1 0x58 SHL SUB AND PUSH2 0x5D8 JUMP JUMPDEST PUSH1 0x80 DUP3 ADD MSTORE PUSH1 0x0 PUSH2 0x22B DUP3 CALLER DUP6 DUP9 PUSH2 0x5EC JUMP JUMPDEST SWAP1 POP PUSH2 0x237 DUP4 CALLER PUSH2 0x85D JUMP JUMPDEST PUSH1 0x20 DUP4 ADD MLOAD PUSH1 0x1 PUSH1 0x1 PUSH1 0xF8 SHL SUB NOT AND ISZERO PUSH2 0x2B3 JUMPI PUSH1 0x40 MLOAD PUSH4 0x6CCC642F PUSH1 0xE0 SHL DUP2 MSTORE PUSH20 0x0 SWAP1 PUSH4 0x6CCC642F SWAP1 PUSH2 0x282 SWAP1 CALLER SWAP1 PUSH1 0x4 ADD PUSH2 0x23C0 JUMP JUMPDEST PUSH1 0x0 PUSH1 0x40 MLOAD DUP1 DUP4 SUB DUP2 DUP7 DUP1 EXTCODESIZE ISZERO DUP1 ISZERO PUSH2 0x29A JUMPI PUSH1 0x0 DUP1 REVERT JUMPDEST POP GAS DELEGATECALL ISZERO DUP1 ISZERO PUSH2 0x2AE JUMPI RETURNDATASIZE PUSH1 0x0 DUP1 RETURNDATACOPY RETURNDATASIZE PUSH1 0x0 REVERT JUMPDEST POP POP POP POP JUMPDEST PUSH1 0x0 DUP2 SGT ISZERO PUSH2 0x2C1 JUMPI PUSH1 0x0 DUP1 REVERT JUMPDEST PUSH2 0x2D2 PUSH2 0x2CD DUP3 PUSH2 0x5D8 JUMP JUMPDEST PUSH2 0x961 JUMP JUMPDEST PUSH1 0x1 PUSH1 0xA SSTORE SWAP8 SWAP7 POP POP POP POP POP POP POP JUMP JUMPDEST PUSH1 0x2 SLOAD PUSH1 0x1 PUSH1 0x1 PUSH1 0xA0 SHL SUB AND DUP2 JUMP JUMPDEST PUSH1 0x0 PUSH1 0x2 PUSH1 0xA SLOAD EQ ISZERO PUSH2 0x316 JUMPI PUSH1 0x40 MLOAD PUSH3 0x461BCD PUSH1 0xE5 SHL DUP2 MSTORE PUSH1 0x4 ADD PUSH2 0x1A9 SWAP1 PUSH2 0x2541 JUMP JUMPDEST PUSH1 0x2 PUSH1 0xA SSTORE CALLER ADDRESS EQ ISZERO PUSH2 0x328 JUMPI PUSH1 0x0 DUP1 REVERT JUMPDEST PUSH2 0x331 DUP5 PUSH2 0x974 JUMP JUMPDEST PUSH1 0x0 PUSH2 0x33C DUP6 PUSH2 0x9C3 JUMP JUMPDEST SWAP1 POP PUSH2 0x346 PUSH2 0x2125 JUMP JUMPDEST PUSH2 0x352 DUP2 DUP8 DUP8 DUP6 PUSH2 0x532 JUMP JUMPDEST PUSH1 0x0 PUSH2 0x369 CALLER PUSH2 0x361 DUP8 PUSH2 0xA64 JUMP JUMPDEST DUP5 SWAP2 SWAP1 PUSH2 0xA7A JUMP JUMPDEST SWAP1 POP PUSH1 0x0 DUP2 SGT PUSH2 0x378 JUMPI PUSH1 0x0 DUP1 REVERT JUMPDEST PUSH2 0x385 DUP3 DUP9 DUP6 PUSH1 0x0 PUSH2 0x5EC JUMP JUMPDEST POP PUSH2 0x390 DUP4 DUP9 PUSH2 0x85D JUMP JUMPDEST PUSH2 0x2D2 DUP2 PUSH2 0x961 JUMP JUMPDEST PUSH1 0x1 SLOAD PUSH1 0x1 PUSH1 0x1 PUSH1 0xA0 SHL SUB AND DUP2 JUMP JUMPDEST PUSH1 0x0 SLOAD PUSH5 0x100000000 SWAP1 DIV PUSH1 0x1 PUSH1 0x1 PUSH1 0xA0 SHL SUB AND DUP2 JUMP JUMPDEST PUSH1 0x0 PUSH1 0x2 PUSH1 0xA SLOAD EQ ISZERO PUSH2 0x3E4 JUMPI PUSH1 0x40 MLOAD PUSH3 0x461BCD PUSH1 0xE5 SHL DUP2 MSTORE PUSH1 0x4 ADD PUSH2 0x1A9 SWAP1 PUSH2 0x2541 JUMP JUMPDEST PUSH1 0x2 PUSH1 0xA SSTORE CALLER ADDRESS EQ ISZERO PUSH2 0x3F6 JUMPI PUSH1 0x0 DUP1 REVERT JUMPDEST PUSH2 0x3FF DUP5 PUSH2 0x974 JUMP JUMPDEST PUSH1 0x0 PUSH2 0x40A DUP6 PUSH2 0x9C3 JUMP JUMPDEST SWAP1 POP PUSH2 0x414 PUSH2 0x2125 JUMP JUMPDEST PUSH2 0x420 DUP2 DUP8 DUP8 DUP6 PUSH2 0x532 JUMP JUMPDEST PUSH1 0x0 PUSH2 0x369 CALLER PUSH2 0x42F DUP8 PUSH2 0xA64 JUMP JUMPDEST DUP5 SWAP2 SWAP1 PUSH1 0x1 PUSH2 0xB87 JUMP JUMPDEST PUSH1 0x0 PUSH2 0x444 DUP3 PUSH2 0x974 JUMP JUMPDEST PUSH1 0x0 DUP1 PUSH2 0x450 DUP5 PUSH2 0x46D JUMP JUMPDEST SWAP2 POP SWAP2 POP DUP1 ISZERO PUSH2 0x464 JUMPI PUSH2 0x464 DUP3 DUP6 PUSH2 0x85D JUMP JUMPDEST SWAP2 POP POP JUMPDEST SWAP2 SWAP1 POP JUMP JUMPDEST PUSH2 0x475 PUSH2 0x2175 JUMP JUMPDEST PUSH1 0x0 DUP1 PUSH2 0x481 DUP5 PUSH2 0x9C3 JUMP JUMPDEST SWAP1 POP PUSH2 0x48C DUP2 PUSH2 0xC37 JUMP JUMPDEST ISZERO PUSH2 0x526 JUMPI PUSH1 0x40 MLOAD PUSH4 0x37B5FC21 PUSH1 0xE1 SHL DUP2 MSTORE PUSH20 0x0 SWAP1 PUSH4 0x6F6BF842 SWAP1 PUSH2 0x4CA SWAP1 DUP8 SWAP1 DUP6 SWAP1 PUSH1 0x4 ADD PUSH2 0x23F8 JUMP JUMPDEST PUSH1 0xA0 PUSH1 0x40 MLOAD DUP1 DUP4 SUB DUP2 DUP7 DUP1 EXTCODESIZE ISZERO DUP1 ISZERO PUSH2 0x4E2 JUMPI PUSH1 0x0 DUP1 REVERT JUMPDEST POP GAS DELEGATECALL ISZERO DUP1 ISZERO PUSH2 0x4F6 JUMPI RETURNDATASIZE PUSH1 0x0 DUP1 RETURNDATACOPY RETURNDATASIZE PUSH1 0x0 REVERT JUMPDEST POP POP POP POP PUSH1 0x40 MLOAD RETURNDATASIZE PUSH1 0x1F NOT PUSH1 0x1F DUP3 ADD AND DUP3 ADD DUP1 PUSH1 0x40 MSTORE POP DUP2 ADD SWAP1 PUSH2 0x51A SWAP2 SWAP1 PUSH2 0x2293 JUMP JUMPDEST PUSH1 0x1 SWAP3 POP SWAP3 POP POP PUSH2 0x52D JUMP JUMPDEST SWAP2 POP PUSH1 0x0 SWAP1 POP JUMPDEST SWAP2 POP SWAP2 JUMP JUMPDEST DUP2 PUSH2 0xFFFF AND PUSH1 0x0 LT DUP1 ISZERO PUSH2 0x54C JUMPI POP PUSH2 0x3FFF PUSH2 0xFFFF DUP4 AND GT ISZERO JUMPDEST PUSH2 0x555 JUMPI PUSH1 0x0 DUP1 REVERT JUMPDEST PUSH2 0xFFFF DUP3 AND DUP1 DUP6 MSTORE PUSH2 0x568 SWAP1 DUP3 SWAP1 PUSH2 0xC8B JUMP JUMPDEST ISZERO PUSH2 0x595 JUMPI PUSH2 0x57B DUP4 DUP4 PUSH2 0xFFFF AND PUSH2 0xD15 JUMP JUMPDEST PUSH2 0x100 DUP9 ADD MSTORE PUSH1 0xE0 DUP8 ADD MSTORE PUSH1 0x40 DUP7 ADD MSTORE PUSH1 0x20 DUP6 ADD MSTORE PUSH2 0x5B3 JUMP JUMPDEST PUSH1 0x0 PUSH1 0x20 DUP6 ADD DUP2 SWAP1 MSTORE PUSH1 0x40 DUP6 ADD DUP2 SWAP1 MSTORE PUSH1 0xE0 DUP6 ADD DUP2 SWAP1 MSTORE PUSH2 0x100 DUP6 ADD MSTORE JUMPDEST POP POP PUSH1 0x0 PUSH1 0x60 DUP4 ADD DUP2 SWAP1 MSTORE PUSH1 0x80 DUP4 ADD DUP2 SWAP1 MSTORE PUSH1 0xA0 DUP4 ADD DUP2 SWAP1 MSTORE PUSH1 0xC0 SWAP1 SWAP3 ADD SWAP2 SWAP1 SWAP2 MSTORE POP JUMP JUMPDEST PUSH1 0x0 PUSH2 0x5E6 PUSH1 0x0 NOT DUP4 PUSH2 0xDA1 JUMP JUMPDEST SWAP3 SWAP2 POP POP JUMP JUMPDEST PUSH1 0x0 DUP1 PUSH1 0x0 DUP7 PUSH1 0xA0 ADD MLOAD SLT ISZERO PUSH2 0x645 JUMPI PUSH1 0x0 PUSH2 0x627 DUP8 PUSH1 0xA0 ADD MLOAD PUSH2 0x621 DUP10 PUSH1 0xC0 ADD MLOAD DUP11 PUSH1 0x40 ADD MLOAD PUSH2 0xDEF SWAP1 SWAP2 SWAP1 PUSH4 0xFFFFFFFF AND JUMP JUMPDEST SWAP1 PUSH2 0xDEF JUMP JUMPDEST SLT ISZERO PUSH2 0x645 JUMPI PUSH1 0x40 MLOAD PUSH3 0x461BCD PUSH1 0xE5 SHL DUP2 MSTORE PUSH1 0x4 ADD PUSH2 0x1A9 SWAP1 PUSH2 0x258B JUMP JUMPDEST PUSH1 0x0 DUP7 PUSH1 0x80 ADD MLOAD SLT ISZERO PUSH2 0x695 JUMPI PUSH1 0x0 PUSH2 0x677 DUP8 PUSH1 0x80 ADD MLOAD PUSH2 0x621 DUP10 PUSH1 0x60 ADD MLOAD DUP11 PUSH1 0x20 ADD MLOAD PUSH2 0xDEF SWAP1 SWAP2 SWAP1 PUSH4 0xFFFFFFFF AND JUMP JUMPDEST SLT ISZERO PUSH2 0x695 JUMPI PUSH1 0x40 MLOAD PUSH3 0x461BCD PUSH1 0xE5 SHL DUP2 MSTORE PUSH1 0x4 ADD PUSH2 0x1A9 SWAP1 PUSH2 0x2569 JUMP JUMPDEST PUSH2 0x6A0 DUP7 DUP7 DUP6 PUSH2 0xE05 JUMP JUMPDEST PUSH1 0x80 DUP9 ADD DUP2 SWAP1 MSTORE PUSH1 0x60 DUP9 ADD MLOAD SWAP2 SWAP4 POP PUSH1 0x0 SWAP2 PUSH2 0x6BB SWAP2 PUSH2 0xDEF JUMP JUMPDEST SWAP1 POP DUP1 ISZERO PUSH2 0x728 JUMPI PUSH1 0x20 DUP8 ADD MLOAD PUSH2 0x6D2 SWAP1 DUP3 PUSH2 0xDEF JUMP JUMPDEST PUSH1 0x20 DUP9 ADD MSTORE DUP7 MLOAD PUSH1 0x40 MLOAD PUSH1 0x1 SWAP4 POP PUSH2 0xFFFF SWAP1 SWAP2 AND SWAP1 PUSH1 0x1 PUSH1 0x1 PUSH1 0xA0 SHL SUB DUP9 AND SWAP1 PUSH32 0x5441E4A5FAC93A951D782E6F1CDB82E95C8FC58561A013953D17E395C5E69B4B SWAP1 PUSH2 0x71F SWAP1 DUP6 SWAP1 PUSH2 0x2488 JUMP JUMPDEST PUSH1 0x40 MLOAD DUP1 SWAP2 SUB SWAP1 LOG3 JUMPDEST PUSH1 0xA0 DUP8 ADD MLOAD ISZERO ISZERO DUP1 PUSH2 0x73D JUMPI POP PUSH1 0xC0 DUP8 ADD MLOAD ISZERO ISZERO JUMPDEST ISZERO PUSH2 0x7D3 JUMPI PUSH2 0x74C DUP8 DUP8 PUSH2 0xEDA JUMP JUMPDEST POP PUSH2 0x770 DUP8 PUSH1 0xC0 ADD MLOAD PUSH2 0x621 DUP10 PUSH1 0xA0 ADD MLOAD DUP11 PUSH1 0x40 ADD MLOAD PUSH2 0xDEF SWAP1 SWAP2 SWAP1 PUSH4 0xFFFFFFFF AND JUMP JUMPDEST PUSH1 0x40 DUP9 ADD MSTORE PUSH1 0xC0 DUP8 ADD MLOAD ISZERO PUSH2 0x7CE JUMPI DUP7 PUSH1 0x0 ADD MLOAD PUSH2 0xFFFF AND DUP7 PUSH1 0x1 PUSH1 0x1 PUSH1 0xA0 SHL SUB AND PUSH32 0x412BC13D202A2EA5119E55FEC9C5E420DDDB18FAF186373AD9795AD4F4545AA9 DUP10 PUSH1 0xC0 ADD MLOAD PUSH1 0x40 MLOAD PUSH2 0x7C5 SWAP2 SWAP1 PUSH2 0x2488 JUMP JUMPDEST PUSH1 0x40 MLOAD DUP1 SWAP2 SUB SWAP1 LOG3 JUMPDEST PUSH1 0x1 SWAP2 POP JUMPDEST DUP2 ISZERO PUSH2 0x800 JUMPI PUSH2 0x800 DUP7 DUP9 PUSH1 0x0 ADD MLOAD PUSH2 0xFFFF AND DUP10 PUSH1 0x20 ADD MLOAD DUP11 PUSH1 0x40 ADD MLOAD DUP12 PUSH1 0xE0 ADD MLOAD DUP13 PUSH2 0x100 ADD MLOAD PUSH2 0xF55 JUMP JUMPDEST DUP7 MLOAD PUSH1 0x20 DUP9 ADD MLOAD PUSH2 0x82D SWAP2 PUSH2 0xFFFF AND SWAP1 ISZERO ISZERO DUP1 PUSH2 0x820 JUMPI POP PUSH1 0x40 DUP10 ADD MLOAD ISZERO ISZERO JUMPDEST DUP8 SWAP2 SWAP1 PUSH1 0x1 PUSH1 0xFE SHL PUSH2 0x1075 JUMP JUMPDEST PUSH1 0x0 DUP8 PUSH1 0x20 ADD MLOAD SLT ISZERO PUSH2 0x853 JUMPI PUSH1 0x20 DUP6 ADD DUP1 MLOAD PUSH1 0x1 PUSH1 0xF9 SHL OR PUSH1 0x1 PUSH1 0x1 PUSH1 0xF8 SHL SUB NOT AND SWAP1 MSTORE JUMPDEST POP POP SWAP5 SWAP4 POP POP POP POP JUMP JUMPDEST PUSH1 0x0 PUSH2 0x867 PUSH2 0x127C JUMP JUMPDEST PUSH1 0x1 PUSH1 0x1 PUSH1 0xA0 SHL SUB DUP4 AND PUSH1 0x0 DUP2 DUP2 MSTORE PUSH1 0x20 DUP4 DUP2 MSTORE PUSH1 0x40 DUP1 DUP4 KECCAK256 DUP9 MLOAD DUP2 SLOAD SWAP4 DUP11 ADD MLOAD DUP4 DUP12 ADD MLOAD PUSH1 0x60 DUP13 ADD MLOAD PUSH1 0x80 DUP14 ADD MLOAD PUSH1 0x70 SHR PUSH1 0x1 PUSH1 0x48 SHL MUL PUSH27 0xFFFFFFFFFFFFFFFFFFFFFFFFFFFFFFFFFFFF000000000000000000 NOT PUSH2 0xFFFF SWAP1 SWAP3 AND PUSH1 0x1 PUSH1 0x38 SHL MUL PUSH9 0xFFFF00000000000000 NOT PUSH1 0xFF SWAP5 SWAP1 SWAP5 AND PUSH1 0x1 PUSH1 0x30 SHL MUL PUSH7 0xFF000000000000 NOT PUSH1 0xF8 SWAP7 SWAP1 SWAP7 SHR PUSH6 0x10000000000 MUL PUSH6 0xFF0000000000 NOT PUSH5 0xFFFFFFFFFF SWAP1 SWAP9 AND PUSH5 0xFFFFFFFFFF NOT SWAP1 SWAP12 AND SWAP11 SWAP1 SWAP11 OR SWAP7 SWAP1 SWAP7 AND SWAP9 SWAP1 SWAP9 OR SWAP4 SWAP1 SWAP4 AND SWAP4 SWAP1 SWAP4 OR AND SWAP5 SWAP1 SWAP5 OR AND SWAP3 SWAP1 SWAP3 OR SWAP1 SWAP2 SSTORE MLOAD SWAP3 SWAP4 POP SWAP1 SWAP2 PUSH32 0x6BD4B121BCA854A191536A2CA891155C42EE2FB23F307FB34E8BC65CFCB5412E SWAP2 SWAP1 LOG2 POP POP POP JUMP JUMPDEST PUSH1 0x0 DUP1 DUP3 SLT ISZERO PUSH2 0x970 JUMPI PUSH1 0x0 DUP1 REVERT JUMPDEST POP SWAP1 JUMP JUMPDEST PUSH1 0x1 PUSH1 0x1 PUSH1 0xA0 SHL SUB DUP2 AND PUSH2 0x987 JUMPI PUSH1 0x0 DUP1 REVERT JUMPDEST PUSH1 0x1 PUSH1 0x1 PUSH1 0xA0 SHL SUB DUP2 AND ADDRESS EQ ISZERO PUSH2 0x99D JUMPI PUSH1 0x0 DUP1 REVERT JUMPDEST PUSH1 0x0 PUSH2 0x9A8 DUP3 PUSH2 0x1289 JUMP JUMPDEST POP POP POP POP PUSH2 0xFFFF AND SWAP1 POP DUP1 PUSH1 0x0 EQ PUSH2 0x9BF JUMPI PUSH1 0x0 DUP1 REVERT JUMPDEST POP POP JUMP JUMPDEST PUSH2 0x9CB PUSH2 0x2175 JUMP JUMPDEST PUSH1 0x0 PUSH2 0x9D5 PUSH2 0x127C JUMP JUMPDEST PUSH1 0x1 PUSH1 0x1 PUSH1 0xA0 SHL SUB SWAP4 SWAP1 SWAP4 AND PUSH1 0x0 SWAP1 DUP2 MSTORE PUSH1 0x20 SWAP4 DUP5 MSTORE PUSH1 0x40 SWAP1 DUP2 SWAP1 KECCAK256 DUP2 MLOAD PUSH1 0xA0 DUP2 ADD DUP4 MSTORE SWAP1 SLOAD PUSH5 0xFFFFFFFFFF DUP2 AND DUP3 MSTORE PUSH6 0x10000000000 DUP2 DIV PUSH1 0xF8 SHL PUSH1 0x1 PUSH1 0x1 PUSH1 0xF8 SHL SUB NOT AND SWAP6 DUP3 ADD SWAP6 SWAP1 SWAP6 MSTORE PUSH1 0x1 PUSH1 0x30 SHL DUP6 DIV PUSH1 0xFF AND SWAP2 DUP2 ADD SWAP2 SWAP1 SWAP2 MSTORE PUSH1 0x1 PUSH1 0x38 SHL DUP5 DIV PUSH2 0xFFFF AND PUSH1 0x60 DUP3 ADD MSTORE PUSH1 0x1 PUSH1 0x48 SHL SWAP1 SWAP4 DIV PUSH1 0x70 SHL PUSH1 0x1 PUSH1 0x1 PUSH1 0x70 SHL SUB NOT AND PUSH1 0x80 DUP5 ADD MSTORE POP SWAP1 SWAP2 SWAP1 POP JUMP JUMPDEST PUSH1 0x0 PUSH1 0x1 PUSH1 0x1 PUSH1 0xFF SHL SUB DUP3 GT ISZERO PUSH2 0x970 JUMPI PUSH1 0x0 DUP1 REVERT JUMPDEST PUSH1 0x0 DUP2 PUSH2 0xA89 JUMPI POP PUSH1 0x0 PUSH2 0xB80 JUMP JUMPDEST PUSH1 0x0 DUP3 SGT PUSH2 0xA96 JUMPI PUSH1 0x0 DUP1 REVERT JUMPDEST PUSH1 0x0 PUSH2 0xAA9 DUP6 PUSH1 0x0 ADD MLOAD PUSH2 0xFFFF AND PUSH2 0x12F2 JUMP JUMPDEST SWAP1 POP PUSH1 0x3 DUP2 PUSH1 0x60 ADD MLOAD PUSH1 0x4 DUP2 GT ISZERO PUSH2 0xABD JUMPI INVALID JUMPDEST EQ ISZERO PUSH2 0xAE7 JUMPI CALLVALUE DUP4 EQ PUSH2 0xAE2 JUMPI PUSH1 0x40 MLOAD PUSH3 0x461BCD PUSH1 0xE5 SHL DUP2 MSTORE PUSH1 0x4 ADD PUSH2 0x1A9 SWAP1 PUSH2 0x24AF JUMP JUMPDEST PUSH2 0xAF5 JUMP JUMPDEST PUSH2 0xAF2 DUP2 DUP6 DUP6 PUSH2 0x1305 JUMP JUMPDEST SWAP3 POP JUMPDEST PUSH1 0x0 PUSH2 0xB08 DUP7 PUSH1 0x0 ADD MLOAD PUSH2 0xFFFF AND PUSH2 0x13A9 JUMP JUMPDEST SWAP1 POP PUSH1 0x1 DUP2 PUSH1 0x60 ADD MLOAD PUSH1 0x4 DUP2 GT ISZERO PUSH2 0xB1C JUMPI INVALID JUMPDEST EQ DUP1 PUSH2 0xB37 JUMPI POP PUSH1 0x2 DUP2 PUSH1 0x60 ADD MLOAD PUSH1 0x4 DUP2 GT ISZERO PUSH2 0xB35 JUMPI INVALID JUMPDEST EQ JUMPDEST PUSH2 0xB40 JUMPI PUSH1 0x0 DUP1 REVERT JUMPDEST PUSH1 0x0 PUSH2 0xB55 PUSH2 0xB4E DUP7 PUSH2 0x961 JUMP JUMPDEST DUP4 SWAP1 PUSH2 0x13BC JUMP JUMPDEST SWAP1 POP PUSH1 0x0 PUSH2 0xB63 DUP4 DUP4 PUSH2 0x1606 JUMP JUMPDEST PUSH1 0x60 DUP10 ADD MLOAD SWAP1 SWAP2 POP PUSH2 0xB75 SWAP1 DUP3 PUSH2 0xDEF JUMP JUMPDEST PUSH1 0x60 DUP10 ADD MSTORE SWAP4 POP POP POP POP JUMPDEST SWAP4 SWAP3 POP POP POP JUMP JUMPDEST PUSH1 0x0 DUP3 PUSH2 0xB96 JUMPI POP PUSH1 0x0 PUSH2 0xC2F JUMP JUMPDEST PUSH1 0x0 DUP4 SGT PUSH2 0xBA3 JUMPI PUSH1 0x0 DUP1 REVERT JUMPDEST PUSH1 0x0 PUSH2 0xBB6 DUP7 PUSH1 0x0 ADD MLOAD PUSH2 0xFFFF AND PUSH2 0x13A9 JUMP JUMPDEST SWAP1 POP PUSH1 0x0 PUSH2 0xBC4 DUP3 DUP7 PUSH2 0x1606 JUMP JUMPDEST SWAP1 POP DUP2 PUSH1 0x20 ADD MLOAD DUP1 PUSH2 0xBD3 JUMPI POP DUP4 JUMPDEST ISZERO PUSH2 0xC12 JUMPI PUSH1 0x0 PUSH2 0xBE5 DUP4 DUP9 DUP9 PUSH2 0x1305 JUMP JUMPDEST SWAP1 POP PUSH2 0xBF1 DUP4 DUP3 PUSH2 0x1606 JUMP JUMPDEST PUSH1 0x60 DUP10 ADD MLOAD SWAP1 SWAP3 POP PUSH2 0xC03 SWAP1 DUP4 PUSH2 0xDEF JUMP JUMPDEST PUSH1 0x60 DUP10 ADD MSTORE POP SWAP2 POP PUSH2 0xC2F SWAP1 POP JUMP JUMPDEST PUSH1 0x80 DUP8 ADD MLOAD PUSH2 0xC21 SWAP1 DUP3 PUSH2 0xDEF JUMP JUMPDEST PUSH1 0x80 DUP9 ADD MSTORE SWAP2 POP PUSH2 0xC2F SWAP1 POP JUMP JUMPDEST SWAP5 SWAP4 POP POP POP POP JUMP JUMPDEST PUSH1 0x0 TIMESTAMP PUSH2 0xC43 DUP4 PUSH2 0x163C JUMP JUMPDEST ISZERO PUSH2 0xC64 JUMPI PUSH2 0xC51 DUP2 PUSH2 0x1649 JUMP JUMPDEST DUP4 MLOAD PUSH5 0xFFFFFFFFFF AND LT SWAP2 POP PUSH2 0x468 SWAP1 POP JUMP JUMPDEST DUP3 MLOAD PUSH5 0xFFFFFFFFFF AND ISZERO DUP1 ISZERO SWAP1 PUSH2 0xC83 JUMPI POP DUP3 MLOAD PUSH5 0xFFFFFFFFFF AND DUP2 LT ISZERO JUMPDEST SWAP2 POP POP PUSH2 0x468 JUMP JUMPDEST PUSH1 0x0 DUP2 ISZERO DUP1 ISZERO SWAP1 PUSH2 0xC9E JUMPI POP PUSH2 0x3FFF DUP3 GT ISZERO JUMPDEST PUSH2 0xCA7 JUMPI PUSH1 0x0 DUP1 REVERT JUMPDEST PUSH1 0x80 DUP4 ADD MLOAD PUSH1 0x60 DUP5 ADD MLOAD PUSH2 0xFFFF AND DUP4 EQ ISZERO PUSH2 0xCC6 JUMPI PUSH1 0x1 SWAP2 POP POP PUSH2 0x5E6 JUMP JUMPDEST PUSH1 0x1 PUSH1 0x1 PUSH1 0x70 SHL SUB NOT DUP2 AND ISZERO PUSH2 0xD0B JUMPI PUSH1 0xF0 DUP2 SWAP1 SHR PUSH2 0x3FFF AND DUP4 DUP2 EQ ISZERO PUSH2 0xCF8 JUMPI POP PUSH1 0x1 PUSH1 0xFE SHL SWAP1 DUP2 AND EQ SWAP1 POP PUSH2 0x5E6 JUMP JUMPDEST POP PUSH1 0x10 SHL PUSH1 0x1 PUSH1 0x1 PUSH1 0x80 SHL SUB NOT AND PUSH2 0xCC6 JUMP JUMPDEST POP PUSH1 0x0 SWAP4 SWAP3 POP POP POP JUMP JUMPDEST PUSH1 0x0 DUP1 PUSH1 0x0 DUP1 PUSH1 0x0 PUSH2 0xD25 PUSH2 0x1667 JUMP JUMPDEST PUSH1 0x1 PUSH1 0x1 PUSH1 0xA0 SHL SUB DUP9 AND PUSH1 0x0 SWAP1 DUP2 MSTORE PUSH1 0x20 DUP3 DUP2 MSTORE PUSH1 0x40 DUP1 DUP4 KECCAK256 DUP11 DUP5 MSTORE SWAP1 SWAP2 MSTORE SWAP1 KECCAK256 DUP1 SLOAD PUSH10 0xFFFFFFFFFFFFFFFFFFFF DUP2 AND SWAP7 POP PUSH1 0x1 PUSH1 0x50 SHL DUP2 DIV PUSH4 0xFFFFFFFF AND SWAP6 POP SWAP2 SWAP3 POP SWAP1 PUSH2 0xD83 SWAP1 PUSH1 0x1 PUSH1 0x70 SHL SWAP1 DIV PUSH7 0xFFFFFFFFFFFFFF AND PUSH2 0x1674 JUMP JUMPDEST SWAP1 SLOAD PUSH1 0x1 PUSH1 0xA8 SHL SWAP1 DIV PUSH1 0xA SWAP1 DUP2 SIGNEXTEND SWAP1 SIGNEXTEND SWAP9 SWAP5 SWAP8 POP SWAP3 SWAP6 POP SWAP2 SWAP4 POP POP POP JUMP JUMPDEST DUP2 DUP2 MUL PUSH1 0x0 NOT DUP4 EQ ISZERO PUSH2 0xDD1 JUMPI DUP2 ISZERO DUP1 PUSH2 0xDC3 JUMPI POP DUP3 DUP3 DUP3 DUP2 PUSH2 0xDC0 JUMPI INVALID JUMPDEST SDIV EQ JUMPDEST PUSH2 0xDCC JUMPI PUSH1 0x0 DUP1 REVERT JUMPDEST PUSH2 0x5E6 JUMP JUMPDEST DUP3 ISZERO DUP1 PUSH2 0xDE6 JUMPI POP DUP2 DUP4 DUP3 DUP2 PUSH2 0xDE3 JUMPI INVALID JUMPDEST SDIV EQ JUMPDEST PUSH2 0x5E6 JUMPI PUSH1 0x0 DUP1 REVERT JUMPDEST DUP2 DUP2 ADD DUP3 DUP2 SLT ISZERO PUSH1 0x0 DUP4 SLT ISZERO EQ PUSH2 0x5E6 JUMPI PUSH1 0x0 DUP1 REVERT JUMPDEST PUSH1 0x0 DUP1 PUSH1 0x0 PUSH2 0xE1B DUP7 PUSH1 0x0 ADD MLOAD PUSH2 0xFFFF AND PUSH2 0x13A9 JUMP JUMPDEST SWAP1 POP PUSH1 0x0 PUSH2 0xE36 DUP8 PUSH1 0x80 ADD MLOAD DUP4 PUSH2 0x1682 SWAP1 SWAP2 SWAP1 PUSH4 0xFFFFFFFF AND JUMP JUMPDEST SWAP1 POP DUP1 PUSH2 0xE4B JUMPI PUSH1 0x0 DUP1 SWAP4 POP SWAP4 POP POP POP PUSH2 0xED2 JUMP JUMPDEST DUP5 DUP1 ISZERO PUSH2 0xE58 JUMPI POP PUSH1 0x0 DUP2 SLT JUMPDEST ISZERO PUSH2 0xEB5 JUMPI PUSH1 0x0 PUSH2 0xE70 DUP9 PUSH1 0x0 ADD MLOAD PUSH2 0xFFFF AND PUSH2 0x12F2 JUMP JUMPDEST SWAP1 POP PUSH1 0x0 PUSH2 0xE89 DUP3 PUSH2 0xE81 DUP6 PUSH2 0x5D8 JUMP JUMPDEST DUP7 SWAP2 SWAP1 PUSH2 0x16BA JUMP JUMPDEST SWAP1 POP PUSH2 0xEA0 DUP9 PUSH2 0xE98 DUP4 PUSH2 0x5D8 JUMP JUMPDEST DUP5 SWAP2 SWAP1 PUSH2 0x1305 JUMP JUMPDEST SWAP6 POP PUSH2 0xEAC DUP5 DUP5 PUSH2 0x1606 JUMP JUMPDEST SWAP5 POP POP POP PUSH2 0xECF JUMP JUMPDEST PUSH2 0xEC0 DUP3 DUP8 DUP4 PUSH2 0x1305 JUMP JUMPDEST SWAP4 POP PUSH2 0xECC DUP3 DUP6 PUSH2 0x1606 JUMP JUMPDEST SWAP3 POP JUMPDEST POP POP JUMPDEST SWAP4 POP SWAP4 SWAP2 POP POP JUMP JUMPDEST DUP2 MLOAD PUSH1 0x0 SWAP1 TIMESTAMP SWAP1 DUP3 SWAP1 PUSH2 0xEF0 SWAP1 PUSH2 0xFFFF AND PUSH2 0x18D3 JUMP JUMPDEST SWAP1 POP PUSH1 0x0 PUSH2 0xF03 DUP3 DUP8 PUSH1 0xC0 ADD MLOAD DUP6 PUSH2 0x18F9 JUMP JUMPDEST SWAP1 POP PUSH1 0x0 PUSH2 0xF2A DUP4 PUSH2 0xF18 DUP10 PUSH1 0x40 ADD MLOAD PUSH2 0x961 JUMP JUMPDEST DUP10 PUSH1 0xE0 ADD MLOAD DUP11 PUSH2 0x100 ADD MLOAD DUP9 DUP8 PUSH2 0x19D3 JUMP JUMPDEST PUSH1 0xE0 DUP9 ADD DUP6 SWAP1 MSTORE PUSH2 0x100 DUP9 ADD DUP4 SWAP1 MSTORE SWAP1 POP DUP1 ISZERO PUSH2 0xF4B JUMPI PUSH2 0xF4B DUP7 DUP3 PUSH2 0x1A7A JUMP JUMPDEST SWAP7 SWAP6 POP POP POP POP POP POP JUMP JUMPDEST PUSH1 0x0 PUSH2 0xF5F PUSH2 0x1667 JUMP JUMPDEST PUSH1 0x1 PUSH1 0x1 PUSH1 0xA0 SHL SUB DUP9 AND PUSH1 0x0 SWAP1 DUP2 MSTORE PUSH1 0x20 DUP3 DUP2 MSTORE PUSH1 0x40 DUP1 DUP4 KECCAK256 DUP11 DUP5 MSTORE SWAP1 SWAP2 MSTORE SWAP1 KECCAK256 SWAP1 SWAP2 POP PUSH11 0x7FFFFFFFFFFFFFFFFFFFFF NOT DUP7 SLT DUP1 ISZERO SWAP1 PUSH2 0xFAA JUMPI POP PUSH11 0x7FFFFFFFFFFFFFFFFFFFFF DUP7 SGT ISZERO JUMPDEST PUSH2 0xFB3 JUMPI PUSH1 0x0 DUP1 REVERT JUMPDEST PUSH1 0x0 DUP6 SLT ISZERO DUP1 ISZERO PUSH2 0xFCE JUMPI POP PUSH10 0xFFFFFFFFFFFFFFFFFFFF DUP6 SGT ISZERO JUMPDEST PUSH2 0xFD7 JUMPI PUSH1 0x0 DUP1 REVERT JUMPDEST PUSH4 0xFFFFFFFF DUP5 GT ISZERO PUSH2 0xFE8 JUMPI PUSH1 0x0 DUP1 REVERT JUMPDEST DUP1 SLOAD PUSH10 0xFFFFFFFFFFFFFFFFFFFF NOT AND PUSH10 0xFFFFFFFFFFFFFFFFFFFF DUP7 AND OR PUSH4 0xFFFFFFFF PUSH1 0x50 SHL NOT AND PUSH1 0x1 PUSH1 0x50 SHL PUSH4 0xFFFFFFFF DUP7 AND MUL OR PUSH1 0x1 PUSH1 0x1 PUSH1 0xA8 SHL SUB AND PUSH1 0x1 PUSH1 0xA8 SHL PUSH1 0x1 PUSH1 0x1 PUSH1 0x58 SHL SUB PUSH1 0xA DUP10 SWAP1 SIGNEXTEND AND MUL OR DUP2 SSTORE PUSH2 0x1046 DUP4 PUSH2 0x1A99 JUMP JUMPDEST DUP2 SLOAD PUSH7 0xFFFFFFFFFFFFFF SWAP2 SWAP1 SWAP2 AND PUSH1 0x1 PUSH1 0x70 SHL MUL PUSH7 0xFFFFFFFFFFFFFF PUSH1 0x70 SHL NOT SWAP1 SWAP2 AND OR SWAP1 SSTORE POP POP POP POP POP POP POP JUMP JUMPDEST DUP3 PUSH1 0x0 LT DUP1 ISZERO PUSH2 0x1087 JUMPI POP PUSH2 0x3FFF DUP4 GT ISZERO JUMPDEST PUSH2 0x1090 JUMPI PUSH1 0x0 DUP1 REVERT JUMPDEST DUP2 DUP1 ISZERO PUSH2 0x10A4 JUMPI POP DUP3 DUP5 PUSH1 0x60 ADD MLOAD PUSH2 0xFFFF AND EQ JUMPDEST ISZERO PUSH2 0x10AE JUMPI PUSH2 0x1276 JUMP JUMPDEST PUSH1 0x80 DUP5 ADD MLOAD PUSH1 0x0 SWAP1 DUP2 JUMPDEST PUSH1 0x1 PUSH1 0x1 PUSH1 0x70 SHL SUB NOT DUP3 AND ISZERO PUSH2 0x1230 JUMPI PUSH1 0xF0 DUP3 SWAP1 SHR PUSH2 0x3FFF AND DUP7 DUP2 EQ DUP1 ISZERO PUSH2 0x10DD JUMPI POP DUP6 JUMPDEST ISZERO PUSH2 0x1115 JUMPI POP PUSH1 0x80 DUP8 ADD DUP1 MLOAD PUSH1 0x1 PUSH1 0x1 PUSH1 0xF0 SHL SUB NOT DUP7 AND PUSH1 0x10 SWAP1 SWAP4 MUL SWAP3 SWAP1 SWAP3 SHR SWAP2 SWAP1 SWAP2 OR PUSH1 0x1 PUSH1 0x1 PUSH1 0x70 SHL SUB NOT AND SWAP1 MSTORE POP PUSH2 0x1276 SWAP1 POP JUMP JUMPDEST DUP7 DUP2 EQ DUP1 ISZERO PUSH2 0x1122 JUMPI POP DUP6 ISZERO JUMPDEST ISZERO PUSH2 0x117E JUMPI PUSH1 0x1 PUSH1 0x1 PUSH1 0xF0 SHL SUB NOT DUP6 AND NOT SWAP3 SWAP1 SWAP3 AND SWAP2 PUSH1 0x3 PUSH1 0xFE SHL DUP4 AND PUSH2 0x115C JUMPI PUSH1 0x10 DUP4 PUSH14 0xFFFFFFFFFFFFFFFFFFFFFFFFFFFF NOT AND SWAP1 SHL SWAP3 POP JUMPDEST POP PUSH1 0x1 PUSH1 0x1 PUSH1 0x70 SHL SUB NOT SWAP2 DUP3 AND PUSH1 0x10 SWAP1 SWAP2 MUL SHR SWAP2 SWAP1 SWAP2 OR AND PUSH1 0x80 DUP6 ADD MSTORE PUSH2 0x1276 JUMP JUMPDEST DUP7 DUP2 GT DUP1 ISZERO PUSH2 0x118A JUMPI POP DUP6 JUMPDEST ISZERO PUSH2 0x11E4 JUMPI PUSH1 0x80 DUP9 DUP2 ADD MLOAD PUSH1 0x1 PUSH1 0x1 PUSH1 0xF0 SHL SUB NOT PUSH1 0xF0 DUP11 SWAP1 SHL DUP9 OR DUP2 AND PUSH1 0x10 DUP7 MUL SHR SWAP7 SWAP1 SWAP7 OR SWAP6 SWAP2 SHL AND ISZERO PUSH2 0x11BE JUMPI PUSH1 0x0 DUP1 REVERT JUMPDEST POP PUSH1 0x1 PUSH1 0x1 PUSH1 0x70 SHL SUB NOT SWAP2 DUP3 AND PUSH1 0x1 SWAP2 SWAP1 SWAP2 ADD PUSH1 0x10 MUL SHR SWAP2 SWAP1 SWAP2 OR AND PUSH1 0x80 DUP6 ADD MSTORE PUSH2 0x1276 JUMP JUMPDEST DUP7 DUP2 GT DUP1 ISZERO PUSH2 0x11F1 JUMPI POP DUP6 ISZERO JUMPDEST ISZERO PUSH2 0x11FF JUMPI POP POP POP POP PUSH2 0x1276 JUMP JUMPDEST POP PUSH1 0x1 PUSH1 0x1 PUSH1 0xF0 SHL SUB NOT DUP3 AND PUSH1 0x10 DUP3 DUP2 MUL SWAP2 SWAP1 SWAP2 SHR SWAP4 SWAP1 SWAP4 OR SWAP3 SWAP2 SWAP1 SWAP2 SHL PUSH1 0x1 PUSH1 0x1 PUSH1 0x80 SHL SUB NOT AND SWAP1 PUSH1 0x1 ADD PUSH2 0x10B8 JUMP JUMPDEST DUP5 PUSH2 0x123D JUMPI POP POP POP PUSH2 0x1276 JUMP JUMPDEST PUSH1 0x9 DUP2 LT PUSH2 0x124A JUMPI PUSH1 0x0 DUP1 REVERT JUMPDEST PUSH1 0x1 PUSH1 0x1 PUSH1 0xF0 SHL SUB NOT PUSH1 0xF0 DUP8 SWAP1 SHL DUP6 OR AND PUSH1 0x10 SWAP1 SWAP2 MUL SHR SWAP2 SWAP1 SWAP2 OR PUSH1 0x1 PUSH1 0x1 PUSH1 0x70 SHL SUB NOT AND PUSH1 0x80 DUP7 ADD MSTORE POP JUMPDEST POP POP POP POP JUMP JUMPDEST PUSH1 0x0 DUP1 PUSH2 0x5E6 PUSH1 0x1 PUSH2 0x1AC7 JUMP JUMPDEST PUSH1 0x0 DUP1 PUSH1 0x0 DUP1 PUSH1 0x0 DUP1 PUSH2 0x129A PUSH2 0x1AE0 JUMP JUMPDEST PUSH1 0x1 PUSH1 0x1 PUSH1 0xA0 SHL SUB SWAP1 SWAP8 AND PUSH1 0x0 SWAP1 DUP2 MSTORE PUSH1 0x20 SWAP8 SWAP1 SWAP8 MSTORE POP POP PUSH1 0x40 SWAP1 SWAP5 KECCAK256 SLOAD PUSH2 0xFFFF DUP2 AND SWAP6 PUSH4 0xFFFFFFFF PUSH3 0x10000 DUP4 DIV DUP2 AND SWAP7 POP PUSH1 0x1 PUSH1 0x30 SHL DUP4 DIV AND SWAP5 POP PUSH1 0xFF PUSH1 0x1 PUSH1 0x50 SHL DUP4 DIV AND SWAP4 POP PUSH1 0x1 PUSH1 0x58 SHL SWAP1 SWAP2 DIV PUSH1 0xD8 SHL SWAP2 POP JUMP JUMPDEST PUSH2 0x12FA PUSH2 0x21A3 JUMP JUMPDEST PUSH2 0x5E6 DUP3 PUSH1 0x1 PUSH2 0x1AED JUMP JUMPDEST PUSH1 0x0 DUP1 DUP3 SGT ISZERO PUSH2 0x1321 JUMPI PUSH2 0x131A DUP5 DUP5 DUP5 PUSH2 0x1B9B JUMP JUMPDEST SWAP2 POP PUSH2 0x13A2 JUMP JUMPDEST PUSH1 0x3 DUP5 PUSH1 0x60 ADD MLOAD PUSH1 0x4 DUP2 GT ISZERO PUSH2 0x1333 JUMPI INVALID JUMPDEST EQ ISZERO PUSH2 0x138D JUMPI PUSH1 0x0 DUP3 SGT ISZERO PUSH2 0x1347 JUMPI PUSH1 0x0 DUP1 REVERT JUMPDEST DUP3 PUSH1 0x1 PUSH1 0x1 PUSH1 0xA0 SHL SUB DUP2 AND PUSH2 0x8FC PUSH2 0x135E DUP6 PUSH2 0x5D8 JUMP JUMPDEST PUSH1 0x40 MLOAD DUP2 ISZERO SWAP1 SWAP3 MUL SWAP2 PUSH1 0x0 DUP2 DUP2 DUP2 DUP6 DUP9 DUP9 CALL SWAP4 POP POP POP POP ISZERO DUP1 ISZERO PUSH2 0x1386 JUMPI RETURNDATASIZE PUSH1 0x0 DUP1 RETURNDATACOPY RETURNDATASIZE PUSH1 0x0 REVERT JUMPDEST POP POP PUSH2 0x13A2 JUMP JUMPDEST DUP4 MLOAD PUSH2 0x13A2 SWAP1 DUP5 PUSH2 0x139D DUP6 PUSH2 0x5D8 JUMP JUMPDEST PUSH2 0x1D38 JUMP JUMPDEST POP SWAP3 SWAP2 POP POP JUMP JUMPDEST PUSH2 0x13B1 PUSH2 0x21A3 JUMP JUMPDEST PUSH2 0x5E6 DUP3 PUSH1 0x0 PUSH2 0x1AED JUMP JUMPDEST PUSH1 0x0 DUP1 DUP4 PUSH1 0x0 ADD MLOAD PUSH1 0x1 PUSH1 0x1 PUSH1 0xA0 SHL SUB AND PUSH4 0x70A08231 ADDRESS PUSH1 0x40 MLOAD DUP3 PUSH4 0xFFFFFFFF AND PUSH1 0xE0 SHL DUP2 MSTORE PUSH1 0x4 ADD PUSH2 0x13EF SWAP2 SWAP1 PUSH2 0x23C0 JUMP JUMPDEST PUSH1 0x20 PUSH1 0x40 MLOAD DUP1 DUP4 SUB DUP2 DUP7 DUP1 EXTCODESIZE ISZERO DUP1 ISZERO PUSH2 0x1407 JUMPI PUSH1 0x0 DUP1 REVERT JUMPDEST POP GAS STATICCALL ISZERO DUP1 ISZERO PUSH2 0x141B JUMPI RETURNDATASIZE PUSH1 0x0 DUP1 RETURNDATACOPY RETURNDATASIZE PUSH1 0x0 REVERT JUMPDEST POP POP POP POP PUSH1 0x40 MLOAD RETURNDATASIZE PUSH1 0x1F NOT PUSH1 0x1F DUP3 ADD AND DUP3 ADD DUP1 PUSH1 0x40 MSTORE POP DUP2 ADD SWAP1 PUSH2 0x143F SWAP2 SWAP1 PUSH2 0x23A8 JUMP JUMPDEST SWAP1 POP PUSH1 0x0 PUSH1 0x1 DUP6 PUSH1 0x60 ADD MLOAD PUSH1 0x4 DUP2 GT ISZERO PUSH2 0x1455 JUMPI INVALID JUMPDEST EQ ISZERO PUSH2 0x14E3 JUMPI DUP5 MLOAD PUSH1 0x40 MLOAD PUSH4 0x140E25AD PUSH1 0xE3 SHL DUP2 MSTORE PUSH1 0x1 PUSH1 0x1 PUSH1 0xA0 SHL SUB SWAP1 SWAP2 AND SWAP1 PUSH4 0xA0712D68 SWAP1 PUSH2 0x148A SWAP1 DUP8 SWAP1 PUSH1 0x4 ADD PUSH2 0x2488 JUMP JUMPDEST PUSH1 0x20 PUSH1 0x40 MLOAD DUP1 DUP4 SUB DUP2 PUSH1 0x0 DUP8 DUP1 EXTCODESIZE ISZERO DUP1 ISZERO PUSH2 0x14A4 JUMPI PUSH1 0x0 DUP1 REVERT JUMPDEST POP GAS CALL ISZERO DUP1 ISZERO PUSH2 0x14B8 JUMPI RETURNDATASIZE PUSH1 0x0 DUP1 RETURNDATACOPY RETURNDATASIZE PUSH1 0x0 REVERT JUMPDEST POP POP POP POP PUSH1 0x40 MLOAD RETURNDATASIZE PUSH1 0x1F NOT PUSH1 0x1F DUP3 ADD AND DUP3 ADD DUP1 PUSH1 0x40 MSTORE POP DUP2 ADD SWAP1 PUSH2 0x14DC SWAP2 SWAP1 PUSH2 0x23A8 JUMP JUMPDEST SWAP1 POP PUSH2 0x1554 JUMP JUMPDEST PUSH1 0x2 DUP6 PUSH1 0x60 ADD MLOAD PUSH1 0x4 DUP2 GT ISZERO PUSH2 0x14F5 JUMPI INVALID JUMPDEST EQ ISZERO PUSH2 0x7B JUMPI DUP5 PUSH1 0x0 ADD MLOAD PUSH1 0x1 PUSH1 0x1 PUSH1 0xA0 SHL SUB AND PUSH4 0x1249C58B CALLVALUE PUSH1 0x40 MLOAD DUP3 PUSH4 0xFFFFFFFF AND PUSH1 0xE0 SHL DUP2 MSTORE PUSH1 0x4 ADD PUSH1 0x0 PUSH1 0x40 MLOAD DUP1 DUP4 SUB DUP2 DUP6 DUP9 DUP1 EXTCODESIZE ISZERO DUP1 ISZERO PUSH2 0x153A JUMPI PUSH1 0x0 DUP1 REVERT JUMPDEST POP GAS CALL ISZERO DUP1 ISZERO PUSH2 0x154E JUMPI RETURNDATASIZE PUSH1 0x0 DUP1 RETURNDATACOPY RETURNDATASIZE PUSH1 0x0 REVERT JUMPDEST POP POP POP POP POP JUMPDEST DUP1 ISZERO PUSH2 0x1572 JUMPI PUSH1 0x40 MLOAD PUSH3 0x461BCD PUSH1 0xE5 SHL DUP2 MSTORE PUSH1 0x4 ADD PUSH2 0x1A9 SWAP1 PUSH2 0x2491 JUMP JUMPDEST DUP5 MLOAD PUSH1 0x40 MLOAD PUSH4 0x70A08231 PUSH1 0xE0 SHL DUP2 MSTORE PUSH1 0x0 SWAP2 PUSH1 0x1 PUSH1 0x1 PUSH1 0xA0 SHL SUB AND SWAP1 PUSH4 0x70A08231 SWAP1 PUSH2 0x15A2 SWAP1 ADDRESS SWAP1 PUSH1 0x4 ADD PUSH2 0x23C0 JUMP JUMPDEST PUSH1 0x20 PUSH1 0x40 MLOAD DUP1 DUP4 SUB DUP2 DUP7 DUP1 EXTCODESIZE ISZERO DUP1 ISZERO PUSH2 0x15BA JUMPI PUSH1 0x0 DUP1 REVERT JUMPDEST POP GAS STATICCALL ISZERO DUP1 ISZERO PUSH2 0x15CE JUMPI RETURNDATASIZE PUSH1 0x0 DUP1 RETURNDATACOPY RETURNDATASIZE PUSH1 0x0 REVERT JUMPDEST POP POP POP POP PUSH1 0x40 MLOAD RETURNDATASIZE PUSH1 0x1F NOT PUSH1 0x1F DUP3 ADD AND DUP3 ADD DUP1 PUSH1 0x40 MSTORE POP DUP2 ADD SWAP1 PUSH2 0x15F2 SWAP2 SWAP1 PUSH2 0x23A8 JUMP JUMPDEST SWAP1 POP PUSH2 0xF4B PUSH2 0x1601 DUP3 DUP6 PUSH2 0x1DA5 JUMP JUMPDEST PUSH2 0xA64 JUMP JUMPDEST PUSH1 0x0 PUSH4 0x5F5E100 DUP4 PUSH1 0x40 ADD MLOAD EQ ISZERO PUSH2 0x161F JUMPI POP DUP1 PUSH2 0x5E6 JUMP JUMPDEST PUSH1 0x40 DUP4 ADD MLOAD PUSH2 0xB80 SWAP1 PUSH2 0x1636 DUP5 PUSH4 0x5F5E100 PUSH2 0xDA1 JUMP JUMPDEST SWAP1 PUSH2 0x1E02 JUMP JUMPDEST PUSH1 0x60 ADD MLOAD PUSH2 0xFFFF AND ISZERO ISZERO SWAP1 JUMP JUMPDEST PUSH1 0x0 PUSH3 0x15180 DUP3 LT ISZERO PUSH2 0x165B JUMPI PUSH1 0x0 DUP1 REVERT JUMPDEST POP PUSH3 0x15180 DUP2 MOD SWAP1 SUB SWAP1 JUMP JUMPDEST PUSH1 0x0 DUP1 PUSH2 0x5E6 PUSH1 0x6 PUSH2 0x1AC7 JUMP JUMPDEST PUSH1 0x8 DUP2 SWAP1 SHR PUSH1 0xFF SWAP1 SWAP2 AND SHL SWAP1 JUMP JUMPDEST PUSH1 0x0 PUSH4 0x5F5E100 DUP4 PUSH1 0x40 ADD MLOAD EQ ISZERO PUSH2 0x169B JUMPI POP DUP1 PUSH2 0x5E6 JUMP JUMPDEST PUSH2 0xB80 PUSH4 0x5F5E100 PUSH2 0x1636 DUP6 PUSH1 0x40 ADD MLOAD DUP6 PUSH2 0xDA1 SWAP1 SWAP2 SWAP1 PUSH4 0xFFFFFFFF AND JUMP JUMPDEST PUSH1 0x0 DUP1 PUSH1 0x2 DUP6 PUSH1 0x60 ADD MLOAD PUSH1 0x4 DUP2 GT ISZERO PUSH2 0x16CF JUMPI INVALID JUMPDEST EQ ISZERO PUSH2 0x16DC JUMPI POP SELFBALANCE PUSH2 0x1776 JUMP JUMPDEST PUSH1 0x1 DUP6 PUSH1 0x60 ADD MLOAD PUSH1 0x4 DUP2 GT ISZERO PUSH2 0x16EE JUMPI INVALID JUMPDEST EQ ISZERO PUSH2 0x7B JUMPI DUP4 MLOAD PUSH1 0x40 MLOAD PUSH4 0x70A08231 PUSH1 0xE0 SHL DUP2 MSTORE PUSH1 0x1 PUSH1 0x1 PUSH1 0xA0 SHL SUB SWAP1 SWAP2 AND SWAP1 PUSH4 0x70A08231 SWAP1 PUSH2 0x1723 SWAP1 ADDRESS SWAP1 PUSH1 0x4 ADD PUSH2 0x23C0 JUMP JUMPDEST PUSH1 0x20 PUSH1 0x40 MLOAD DUP1 DUP4 SUB DUP2 DUP7 DUP1 EXTCODESIZE ISZERO DUP1 ISZERO PUSH2 0x173B JUMPI PUSH1 0x0 DUP1 REVERT JUMPDEST POP GAS STATICCALL ISZERO DUP1 ISZERO PUSH2 0x174F JUMPI RETURNDATASIZE PUSH1 0x0 DUP1 RETURNDATACOPY RETURNDATASIZE PUSH1 0x0 REVERT JUMPDEST POP POP POP POP PUSH1 0x40 MLOAD RETURNDATASIZE PUSH1 0x1F NOT PUSH1 0x1F DUP3 ADD AND DUP3 ADD DUP1 PUSH1 0x40 MSTORE POP DUP2 ADD SWAP1 PUSH2 0x1773 SWAP2 SWAP1 PUSH2 0x23A8 JUMP JUMPDEST SWAP1 POP JUMPDEST DUP5 MLOAD PUSH1 0x40 MLOAD PUSH4 0xDB006A75 PUSH1 0xE0 SHL DUP2 MSTORE PUSH1 0x0 SWAP2 PUSH1 0x1 PUSH1 0x1 PUSH1 0xA0 SHL SUB AND SWAP1 PUSH4 0xDB006A75 SWAP1 PUSH2 0x17A6 SWAP1 DUP8 SWAP1 PUSH1 0x4 ADD PUSH2 0x2488 JUMP JUMPDEST PUSH1 0x20 PUSH1 0x40 MLOAD DUP1 DUP4 SUB DUP2 PUSH1 0x0 DUP8 DUP1 EXTCODESIZE ISZERO DUP1 ISZERO PUSH2 0x17C0 JUMPI PUSH1 0x0 DUP1 REVERT JUMPDEST POP GAS CALL ISZERO DUP1 ISZERO PUSH2 0x17D4 JUMPI RETURNDATASIZE PUSH1 0x0 DUP1 RETURNDATACOPY RETURNDATASIZE PUSH1 0x0 REVERT JUMPDEST POP POP POP POP PUSH1 0x40 MLOAD RETURNDATASIZE PUSH1 0x1F NOT PUSH1 0x1F DUP3 ADD AND DUP3 ADD DUP1 PUSH1 0x40 MSTORE POP DUP2 ADD SWAP1 PUSH2 0x17F8 SWAP2 SWAP1 PUSH2 0x23A8 JUMP JUMPDEST SWAP1 POP DUP1 ISZERO PUSH2 0x1818 JUMPI PUSH1 0x40 MLOAD PUSH3 0x461BCD PUSH1 0xE5 SHL DUP2 MSTORE PUSH1 0x4 ADD PUSH2 0x1A9 SWAP1 PUSH2 0x24D4 JUMP JUMPDEST PUSH1 0x0 PUSH1 0x2 DUP8 PUSH1 0x60 ADD MLOAD PUSH1 0x4 DUP2 GT ISZERO PUSH2 0x182C JUMPI INVALID JUMPDEST EQ ISZERO PUSH2 0x1839 JUMPI POP SELFBALANCE PUSH2 0x18BB JUMP JUMPDEST DUP6 MLOAD PUSH1 0x40 MLOAD PUSH4 0x70A08231 PUSH1 0xE0 SHL DUP2 MSTORE PUSH1 0x1 PUSH1 0x1 PUSH1 0xA0 SHL SUB SWAP1 SWAP2 AND SWAP1 PUSH4 0x70A08231 SWAP1 PUSH2 0x1868 SWAP1 ADDRESS SWAP1 PUSH1 0x4 ADD PUSH2 0x23C0 JUMP JUMPDEST PUSH1 0x20 PUSH1 0x40 MLOAD DUP1 DUP4 SUB DUP2 DUP7 DUP1 EXTCODESIZE ISZERO DUP1 ISZERO PUSH2 0x1880 JUMPI PUSH1 0x0 DUP1 REVERT JUMPDEST POP GAS STATICCALL ISZERO DUP1 ISZERO PUSH2 0x1894 JUMPI RETURNDATASIZE PUSH1 0x0 DUP1 RETURNDATACOPY RETURNDATASIZE PUSH1 0x0 REVERT JUMPDEST POP POP POP POP PUSH1 0x40 MLOAD RETURNDATASIZE PUSH1 0x1F NOT PUSH1 0x1F DUP3 ADD AND DUP3 ADD DUP1 PUSH1 0x40 MSTORE POP DUP2 ADD SWAP1 PUSH2 0x18B8 SWAP2 SWAP1 PUSH2 0x23A8 JUMP JUMPDEST SWAP1 POP JUMPDEST PUSH2 0x18C8 PUSH2 0x1601 DUP3 DUP6 PUSH2 0x1DA5 JUMP JUMPDEST SWAP8 SWAP7 POP POP POP POP POP POP POP JUMP JUMPDEST PUSH1 0x0 DUP1 PUSH2 0x18DE PUSH2 0x1E33 JUMP JUMPDEST PUSH1 0x0 SWAP4 DUP5 MSTORE PUSH1 0x20 MSTORE POP POP PUSH1 0x40 SWAP1 KECCAK256 SLOAD PUSH1 0x1 PUSH1 0x1 PUSH1 0xA0 SHL SUB AND SWAP1 JUMP JUMPDEST PUSH1 0x0 DUP1 PUSH1 0x0 PUSH2 0x1908 DUP7 DUP6 PUSH2 0x1E40 JUMP JUMPDEST POP SWAP2 POP SWAP2 POP DUP5 PUSH1 0x0 EQ PUSH2 0x19CA JUMPI PUSH1 0x0 PUSH2 0x1921 DUP4 DUP8 PUSH2 0xDEF JUMP JUMPDEST SWAP1 POP PUSH1 0x0 DUP2 SLT ISZERO DUP1 ISZERO PUSH2 0x193A JUMPI POP PUSH1 0x1 PUSH1 0x1 PUSH1 0x60 SHL SUB DUP2 LT JUMPDEST PUSH2 0x1943 JUMPI PUSH1 0x0 DUP1 REVERT JUMPDEST PUSH1 0x0 PUSH2 0x194D PUSH2 0x1EAC JUMP JUMPDEST PUSH1 0x1 PUSH1 0x1 PUSH1 0xA0 SHL SUB DUP10 AND PUSH1 0x0 SWAP1 DUP2 MSTORE PUSH1 0x20 SWAP2 SWAP1 SWAP2 MSTORE PUSH1 0x40 SWAP1 KECCAK256 DUP1 SLOAD PUSH12 0xFFFFFFFFFFFFFFFFFFFFFFFF NOT AND PUSH1 0x1 PUSH1 0x1 PUSH1 0x60 SHL SUB SWAP4 SWAP1 SWAP4 AND SWAP3 SWAP1 SWAP3 OR PUSH16 0xFFFFFFFFFFFFFFFFFFFFFFFFFFFFFFFF PUSH1 0x60 SHL NOT AND PUSH1 0x1 PUSH1 0x60 SHL PUSH1 0x1 PUSH1 0x1 PUSH1 0x80 SHL SUB DUP6 AND MUL OR PUSH1 0x1 PUSH1 0x1 PUSH1 0xE0 SHL SUB AND PUSH1 0x1 PUSH1 0xE0 SHL PUSH4 0xFFFFFFFF DUP9 AND MUL OR SWAP1 SWAP2 SSTORE POP JUMPDEST SWAP6 SWAP5 POP POP POP POP POP JUMP JUMPDEST PUSH1 0x0 DUP5 ISZERO DUP1 PUSH2 0x19E2 JUMPI POP DUP3 DUP6 LT ISZERO JUMPDEST ISZERO PUSH2 0x19EF JUMPI POP PUSH1 0x0 PUSH2 0xF4B JUMP JUMPDEST PUSH1 0x0 PUSH2 0x19FA DUP9 PUSH2 0x1289 JUMP JUMPDEST POP SWAP2 SWAP4 POP POP POP DUP7 DUP6 SUB SWAP1 POP PUSH1 0x0 PUSH2 0x1A1E DUP3 PUSH2 0x1A19 DUP6 PUSH4 0x5F5E100 PUSH2 0x1EB9 JUMP JUMPDEST PUSH2 0x1F12 JUMP JUMPDEST SWAP1 POP PUSH1 0x0 PUSH2 0x1A36 DUP4 PUSH2 0x1A30 DUP9 DUP12 PUSH2 0x1DA5 JUMP JUMPDEST SWAP1 PUSH2 0x1F37 JUMP JUMPDEST SWAP1 POP DUP1 PUSH2 0x1A4A JUMPI PUSH1 0x0 SWAP5 POP POP POP POP POP PUSH2 0xF4B JUMP JUMPDEST PUSH1 0x0 PUSH2 0x1A5A DUP3 PUSH2 0x1A30 DUP14 DUP7 PUSH2 0x1EB9 JUMP JUMPDEST SWAP1 POP PUSH2 0x1A6A DUP2 PUSH4 0x5F5E100 PUSH2 0x1F37 JUMP JUMPDEST SWAP13 SWAP12 POP POP POP POP POP POP POP POP POP POP POP POP JUMP JUMPDEST PUSH2 0x9BF PUSH20 0xCFEAEAD4947F0705A14EC42AC3D44129E1EF3ED5 DUP4 DUP4 PUSH2 0x1D38 JUMP JUMPDEST PUSH1 0x0 DUP1 PUSH6 0xFFFFFFFFFFFF DUP4 GT ISZERO PUSH2 0x1AB9 JUMPI PUSH1 0x2F PUSH2 0x1AB5 DUP5 PUSH2 0x1F9E JUMP JUMPDEST SUB SWAP1 POP JUMPDEST DUP3 DUP2 SHR PUSH1 0x8 SHL OR SWAP1 POP SWAP2 SWAP1 POP JUMP JUMPDEST PUSH1 0x0 PUSH3 0xF4240 DUP3 PUSH1 0x10 DUP2 GT ISZERO PUSH2 0x1AD9 JUMPI INVALID JUMPDEST ADD SWAP3 SWAP2 POP POP JUMP JUMPDEST PUSH1 0x0 DUP1 PUSH2 0x5E6 PUSH1 0x2 PUSH2 0x1AC7 JUMP JUMPDEST PUSH2 0x1AF5 PUSH2 0x21A3 JUMP JUMPDEST PUSH1 0x0 PUSH2 0x1AFF PUSH2 0x203C JUMP JUMPDEST PUSH1 0x0 DUP6 DUP2 MSTORE PUSH1 0x20 DUP3 DUP2 MSTORE PUSH1 0x40 DUP1 DUP4 KECCAK256 DUP8 ISZERO ISZERO DUP5 MSTORE DUP3 MSTORE SWAP2 DUP3 SWAP1 KECCAK256 DUP3 MLOAD PUSH1 0xA0 DUP2 ADD DUP5 MSTORE DUP2 SLOAD PUSH1 0x1 PUSH1 0x1 PUSH1 0xA0 SHL SUB DUP2 AND DUP3 MSTORE PUSH1 0xFF PUSH1 0x1 PUSH1 0xA0 SHL DUP3 DIV DUP2 AND ISZERO ISZERO SWAP5 DUP4 ADD SWAP5 SWAP1 SWAP5 MSTORE PUSH1 0x1 PUSH1 0xB0 SHL DUP2 DIV DUP5 AND PUSH1 0xA EXP SWAP5 DUP3 ADD SWAP5 SWAP1 SWAP5 MSTORE SWAP4 SWAP5 POP SWAP3 SWAP2 PUSH1 0x60 DUP4 ADD SWAP2 PUSH1 0x1 PUSH1 0xA8 SHL SWAP1 SWAP2 DIV AND PUSH1 0x4 DUP2 GT ISZERO PUSH2 0x1B74 JUMPI INVALID JUMPDEST DUP2 MSTORE SWAP2 SLOAD PUSH1 0x1 PUSH1 0xB8 SHL SWAP1 DIV PUSH9 0xFFFFFFFFFFFFFFFFFF AND PUSH1 0x20 SWAP1 SWAP3 ADD SWAP2 SWAP1 SWAP2 MSTORE SWAP5 SWAP4 POP POP POP POP JUMP JUMPDEST PUSH1 0x0 DUP1 PUSH1 0x0 DUP6 PUSH1 0x20 ADD MLOAD ISZERO PUSH2 0x1C2C JUMPI DUP6 MLOAD PUSH1 0x40 MLOAD PUSH4 0x70A08231 PUSH1 0xE0 SHL DUP2 MSTORE PUSH1 0x1 PUSH1 0x1 PUSH1 0xA0 SHL SUB SWAP1 SWAP2 AND SWAP1 PUSH4 0x70A08231 SWAP1 PUSH2 0x1BD9 SWAP1 ADDRESS SWAP1 PUSH1 0x4 ADD PUSH2 0x23C0 JUMP JUMPDEST PUSH1 0x20 PUSH1 0x40 MLOAD DUP1 DUP4 SUB DUP2 DUP7 DUP1 EXTCODESIZE ISZERO DUP1 ISZERO PUSH2 0x1BF1 JUMPI PUSH1 0x0 DUP1 REVERT JUMPDEST POP GAS STATICCALL ISZERO DUP1 ISZERO PUSH2 0x1C05 JUMPI RETURNDATASIZE PUSH1 0x0 DUP1 RETURNDATACOPY RETURNDATASIZE PUSH1 0x0 REVERT JUMPDEST POP POP POP POP PUSH1 0x40 MLOAD RETURNDATASIZE PUSH1 0x1F NOT PUSH1 0x1F DUP3 ADD AND DUP3 ADD DUP1 PUSH1 0x40 MSTORE POP DUP2 ADD SWAP1 PUSH2 0x1C29 SWAP2 SWAP1 PUSH2 0x23A8 JUMP JUMPDEST SWAP2 POP JUMPDEST DUP6 MLOAD PUSH2 0x1C39 SWAP1 DUP7 DUP7 PUSH2 0x2049 JUMP JUMPDEST DUP6 PUSH1 0x20 ADD MLOAD DUP1 PUSH2 0x1C4D JUMPI POP PUSH1 0x0 DUP7 PUSH1 0x80 ADD MLOAD GT JUMPDEST ISZERO PUSH2 0x1CD4 JUMPI DUP6 MLOAD PUSH1 0x40 MLOAD PUSH4 0x70A08231 PUSH1 0xE0 SHL DUP2 MSTORE PUSH1 0x1 PUSH1 0x1 PUSH1 0xA0 SHL SUB SWAP1 SWAP2 AND SWAP1 PUSH4 0x70A08231 SWAP1 PUSH2 0x1C81 SWAP1 ADDRESS SWAP1 PUSH1 0x4 ADD PUSH2 0x23C0 JUMP JUMPDEST PUSH1 0x20 PUSH1 0x40 MLOAD DUP1 DUP4 SUB DUP2 DUP7 DUP1 EXTCODESIZE ISZERO DUP1 ISZERO PUSH2 0x1C99 JUMPI PUSH1 0x0 DUP1 REVERT JUMPDEST POP GAS STATICCALL ISZERO DUP1 ISZERO PUSH2 0x1CAD JUMPI RETURNDATASIZE PUSH1 0x0 DUP1 RETURNDATACOPY RETURNDATASIZE PUSH1 0x0 REVERT JUMPDEST POP POP POP POP PUSH1 0x40 MLOAD RETURNDATASIZE PUSH1 0x1F NOT PUSH1 0x1F DUP3 ADD AND DUP3 ADD DUP1 PUSH1 0x40 MSTORE POP DUP2 ADD SWAP1 PUSH2 0x1CD1 SWAP2 SWAP1 PUSH2 0x23A8 JUMP JUMPDEST SWAP1 POP JUMPDEST PUSH1 0x80 DUP7 ADD MLOAD ISZERO PUSH2 0x1D0F JUMPI PUSH1 0x0 PUSH2 0x1CF2 DUP8 PUSH2 0x1CED DUP5 PUSH2 0xA64 JUMP JUMPDEST PUSH2 0x1606 JUMP JUMPDEST SWAP1 POP PUSH2 0x1D01 DUP8 PUSH1 0x80 ADD MLOAD PUSH2 0xA64 JUMP JUMPDEST DUP2 SGT ISZERO PUSH2 0x1D0D JUMPI PUSH1 0x0 DUP1 REVERT JUMPDEST POP JUMPDEST DUP6 PUSH1 0x20 ADD MLOAD ISZERO PUSH2 0x1D2F JUMPI PUSH2 0x1D26 PUSH2 0x1601 DUP3 DUP5 PUSH2 0x1DA5 JUMP JUMPDEST SWAP3 POP POP POP PUSH2 0xB80 JUMP JUMPDEST PUSH2 0x1D26 DUP5 PUSH2 0xA64 JUMP JUMPDEST PUSH1 0x40 MLOAD PUSH4 0xA9059CBB PUSH1 0xE0 SHL DUP2 MSTORE PUSH1 0x1 PUSH1 0x1 PUSH1 0xA0 SHL SUB DUP5 AND SWAP1 PUSH4 0xA9059CBB SWAP1 PUSH2 0x1D66 SWAP1 DUP6 SWAP1 DUP6 SWAP1 PUSH1 0x4 ADD PUSH2 0x2464 JUMP JUMPDEST PUSH1 0x0 PUSH1 0x40 MLOAD DUP1 DUP4 SUB DUP2 PUSH1 0x0 DUP8 DUP1 EXTCODESIZE ISZERO DUP1 ISZERO PUSH2 0x1D80 JUMPI PUSH1 0x0 DUP1 REVERT JUMPDEST POP GAS CALL ISZERO DUP1 ISZERO PUSH2 0x1D94 JUMPI RETURNDATASIZE PUSH1 0x0 DUP1 RETURNDATACOPY RETURNDATASIZE PUSH1 0x0 REVERT JUMPDEST POP POP POP POP PUSH2 0x1DA0 PUSH2 0x2079 JUMP JUMPDEST POP POP POP JUMP JUMPDEST PUSH1 0x0 DUP3 DUP3 GT ISZERO PUSH2 0x1DFC JUMPI PUSH1 0x40 DUP1 MLOAD PUSH3 0x461BCD PUSH1 0xE5 SHL DUP2 MSTORE PUSH1 0x20 PUSH1 0x4 DUP3 ADD MSTORE PUSH1 0x1E PUSH1 0x24 DUP3 ADD MSTORE PUSH32 0x536166654D6174683A207375627472616374696F6E206F766572666C6F770000 PUSH1 0x44 DUP3 ADD MSTORE SWAP1 MLOAD SWAP1 DUP2 SWAP1 SUB PUSH1 0x64 ADD SWAP1 REVERT JUMPDEST POP SWAP1 SUB SWAP1 JUMP JUMPDEST PUSH1 0x0 DUP2 PUSH1 0x0 NOT EQ DUP1 ISZERO PUSH2 0x1E18 JUMPI POP PUSH1 0x1 PUSH1 0xFF SHL DUP4 EQ JUMPDEST ISZERO PUSH2 0x1E22 JUMPI PUSH1 0x0 DUP1 REVERT JUMPDEST DUP2 DUP4 DUP2 PUSH2 0x1E2B JUMPI INVALID JUMPDEST SDIV SWAP4 SWAP3 POP POP POP JUMP JUMPDEST PUSH1 0x0 DUP1 PUSH2 0x5E6 PUSH1 0x3 PUSH2 0x1AC7 JUMP JUMPDEST PUSH1 0x0 DUP1 PUSH1 0x0 PUSH2 0x1E4E DUP6 PUSH2 0x20C9 JUMP JUMPDEST SWAP2 SWAP5 POP SWAP3 POP SWAP1 POP DUP1 PUSH2 0x1E5D JUMPI POP DUP3 JUMPDEST DUP1 DUP5 LT ISZERO PUSH2 0x1E6A JUMPI PUSH1 0x0 DUP1 REVERT JUMPDEST PUSH2 0x1E80 PUSH2 0x1E79 DUP5 DUP4 DUP8 SUB PUSH2 0xDA1 JUMP JUMPDEST DUP4 SWAP1 PUSH2 0xDEF JUMP JUMPDEST SWAP2 POP PUSH1 0x1 PUSH1 0x1 PUSH1 0x80 SHL SUB DUP3 LT PUSH2 0x1E95 JUMPI PUSH1 0x0 DUP1 REVERT JUMPDEST PUSH4 0xFFFFFFFF DUP5 LT PUSH2 0x1EA5 JUMPI PUSH1 0x0 DUP1 REVERT JUMPDEST SWAP3 POP SWAP3 POP SWAP3 JUMP JUMPDEST PUSH1 0x0 DUP1 PUSH2 0x5E6 PUSH1 0xE PUSH2 0x1AC7 JUMP JUMPDEST PUSH1 0x0 DUP3 PUSH2 0x1EC8 JUMPI POP PUSH1 0x0 PUSH2 0x5E6 JUMP JUMPDEST DUP3 DUP3 MUL DUP3 DUP5 DUP3 DUP2 PUSH2 0x1ED5 JUMPI INVALID JUMPDEST DIV EQ PUSH2 0xB80 JUMPI PUSH1 0x40 MLOAD PUSH3 0x461BCD PUSH1 0xE5 SHL DUP2 MSTORE PUSH1 0x4 ADD DUP1 DUP1 PUSH1 0x20 ADD DUP3 DUP2 SUB DUP3 MSTORE PUSH1 0x21 DUP2 MSTORE PUSH1 0x20 ADD DUP1 PUSH2 0x25C3 PUSH1 0x21 SWAP2 CODECOPY PUSH1 0x40 ADD SWAP2 POP POP PUSH1 0x40 MLOAD DUP1 SWAP2 SUB SWAP1 REVERT JUMPDEST PUSH1 0x0 DUP1 PUSH2 0x1F2B PUSH4 0x1DA9C00 PUSH2 0x1A30 DUP7 PUSH4 0x5F5E100 PUSH2 0x1EB9 JUMP JUMPDEST SWAP1 POP PUSH2 0xC2F DUP2 DUP5 PUSH2 0x1EB9 JUMP JUMPDEST PUSH1 0x0 DUP1 DUP3 GT PUSH2 0x1F8D JUMPI PUSH1 0x40 DUP1 MLOAD PUSH3 0x461BCD PUSH1 0xE5 SHL DUP2 MSTORE PUSH1 0x20 PUSH1 0x4 DUP3 ADD MSTORE PUSH1 0x1A PUSH1 0x24 DUP3 ADD MSTORE PUSH32 0x536166654D6174683A206469766973696F6E206279207A65726F000000000000 PUSH1 0x44 DUP3 ADD MSTORE SWAP1 MLOAD SWAP1 DUP2 SWAP1 SUB PUSH1 0x64 ADD SWAP1 REVERT JUMPDEST DUP2 DUP4 DUP2 PUSH2 0x1F96 JUMPI INVALID JUMPDEST DIV SWAP4 SWAP3 POP POP POP JUMP JUMPDEST PUSH1 0x0 DUP2 PUSH2 0x1FAA JUMPI PUSH1 0x0 DUP1 REVERT JUMPDEST PUSH1 0x1 PUSH1 0x80 SHL DUP3 LT PUSH2 0x1FBD JUMPI PUSH1 0x80 SWAP2 DUP3 SHR SWAP2 ADD JUMPDEST PUSH9 0x10000000000000000 DUP3 LT PUSH2 0x1FD5 JUMPI PUSH1 0x40 SWAP2 DUP3 SHR SWAP2 ADD JUMPDEST PUSH5 0x100000000 DUP3 LT PUSH2 0x1FE9 JUMPI PUSH1 0x20 SWAP2 DUP3 SHR SWAP2 ADD JUMPDEST PUSH3 0x10000 DUP3 LT PUSH2 0x1FFB JUMPI PUSH1 0x10 SWAP2 DUP3 SHR SWAP2 ADD JUMPDEST PUSH2 0x100 DUP3 LT PUSH2 0x200C JUMPI PUSH1 0x8 SWAP2 DUP3 SHR SWAP2 ADD JUMPDEST PUSH1 0x10 DUP3 LT PUSH2 0x201C JUMPI PUSH1 0x4 SWAP2 DUP3 SHR SWAP2 ADD JUMPDEST PUSH1 0x4 DUP3 LT PUSH2 0x202C JUMPI PUSH1 0x2 SWAP2 DUP3 SHR SWAP2 ADD JUMPDEST PUSH1 0x2 DUP3 LT PUSH2 0x468 JUMPI PUSH1 0x1 ADD SWAP2 SWAP1 POP JUMP JUMPDEST PUSH1 0x0 DUP1 PUSH2 0x5E6 PUSH1 0x7 PUSH2 0x1AC7 JUMP JUMPDEST PUSH1 0x40 MLOAD PUSH4 0x23B872DD PUSH1 0xE0 SHL DUP2 MSTORE PUSH1 0x1 PUSH1 0x1 PUSH1 0xA0 SHL SUB DUP5 AND SWAP1 PUSH4 0x23B872DD SWAP1 PUSH2 0x1D66 SWAP1 DUP6 SWAP1 ADDRESS SWAP1 DUP7 SWAP1 PUSH1 0x4 ADD PUSH2 0x23D4 JUMP JUMPDEST PUSH1 0x0 PUSH2 0x2083 PUSH2 0x21D2 JUMP JUMPDEST RETURNDATASIZE DUP1 ISZERO PUSH2 0x2097 JUMPI PUSH1 0x20 DUP2 EQ PUSH2 0x20A0 JUMPI PUSH1 0x0 DUP1 REVERT JUMPDEST PUSH1 0x1 SWAP3 POP PUSH2 0x20AB JUMP JUMPDEST PUSH1 0x20 PUSH1 0x0 DUP4 RETURNDATACOPY DUP2 MLOAD SWAP3 POP JUMPDEST POP DUP2 PUSH2 0x9BF JUMPI PUSH1 0x40 MLOAD PUSH3 0x461BCD PUSH1 0xE5 SHL DUP2 MSTORE PUSH1 0x4 ADD PUSH2 0x1A9 SWAP1 PUSH2 0x2522 JUMP JUMPDEST PUSH1 0x0 DUP1 PUSH1 0x0 DUP1 PUSH2 0x20D7 PUSH2 0x1EAC JUMP JUMPDEST PUSH1 0x1 PUSH1 0x1 PUSH1 0xA0 SHL SUB SWAP6 SWAP1 SWAP6 AND PUSH1 0x0 SWAP1 DUP2 MSTORE PUSH1 0x20 SWAP6 SWAP1 SWAP6 MSTORE POP POP PUSH1 0x40 SWAP1 SWAP3 KECCAK256 SLOAD PUSH1 0x1 PUSH1 0x1 PUSH1 0x60 SHL SUB DUP2 AND SWAP4 PUSH1 0x1 PUSH1 0x60 SHL DUP3 DIV PUSH1 0x1 PUSH1 0x1 PUSH1 0x80 SHL SUB AND SWAP4 POP PUSH1 0x1 PUSH1 0xE0 SHL SWAP1 SWAP2 DIV PUSH4 0xFFFFFFFF AND SWAP2 POP JUMP JUMPDEST PUSH1 0x40 MLOAD DUP1 PUSH2 0x120 ADD PUSH1 0x40 MSTORE DUP1 PUSH1 0x0 PUSH2 0xFFFF AND DUP2 MSTORE PUSH1 0x20 ADD PUSH1 0x0 DUP2 MSTORE PUSH1 0x20 ADD PUSH1 0x0 DUP2 MSTORE PUSH1 0x20 ADD PUSH1 0x0 DUP2 MSTORE PUSH1 0x20 ADD PUSH1 0x0 DUP2 MSTORE PUSH1 0x20 ADD PUSH1 0x0 DUP2 MSTORE PUSH1 0x20 ADD PUSH1 0x0 DUP2 MSTORE PUSH1 0x20 ADD PUSH1 0x0 DUP2 MSTORE PUSH1 0x20 ADD PUSH1 0x0 DUP2 MSTORE POP SWAP1 JUMP JUMPDEST PUSH1 0x40 DUP1 MLOAD PUSH1 0xA0 DUP2 ADD DUP3 MSTORE PUSH1 0x0 DUP1 DUP3 MSTORE PUSH1 0x20 DUP3 ADD DUP2 SWAP1 MSTORE SWAP2 DUP2 ADD DUP3 SWAP1 MSTORE PUSH1 0x60 DUP2 ADD DUP3 SWAP1 MSTORE PUSH1 0x80 DUP2 ADD SWAP2 SWAP1 SWAP2 MSTORE SWAP1 JUMP JUMPDEST PUSH1 0x40 DUP1 MLOAD PUSH1 0xA0 DUP2 ADD DUP3 MSTORE PUSH1 0x0 DUP1 DUP3 MSTORE PUSH1 0x20 DUP3 ADD DUP2 SWAP1 MSTORE SWAP2 DUP2 ADD DUP3 SWAP1 MSTORE SWAP1 PUSH1 0x60 DUP3 ADD SWAP1 DUP2 MSTORE PUSH1 0x20 ADD PUSH1 0x0 DUP2 MSTORE POP SWAP1 JUMP JUMPDEST PUSH1 0x40 MLOAD DUP1 PUSH1 0x20 ADD PUSH1 0x40 MSTORE DUP1 PUSH1 0x1 SWAP1 PUSH1 0x20 DUP3 MUL DUP1 CALLDATASIZE DUP4 CALLDATACOPY POP SWAP2 SWAP3 SWAP2 POP POP JUMP JUMPDEST DUP1 CALLDATALOAD PUSH1 0x1 PUSH1 0x1 PUSH1 0xA0 SHL SUB DUP2 AND DUP2 EQ PUSH2 0x468 JUMPI PUSH1 0x0 DUP1 REVERT JUMPDEST DUP1 MLOAD PUSH1 0x1 PUSH1 0x1 PUSH1 0x70 SHL SUB NOT DUP2 AND DUP2 EQ PUSH2 0x468 JUMPI PUSH1 0x0 DUP1 REVERT JUMPDEST DUP1 MLOAD PUSH2 0x468 DUP2 PUSH2 0x25AF JUMP JUMPDEST DUP1 MLOAD PUSH1 0xFF DUP2 AND DUP2 EQ PUSH2 0x468 JUMPI PUSH1 0x0 DUP1 REVERT JUMPDEST PUSH1 0x0 PUSH1 0x20 DUP3 DUP5 SUB SLT ISZERO PUSH2 0x224C JUMPI DUP1 DUP2 REVERT JUMPDEST PUSH2 0xB80 DUP3 PUSH2 0x21F0 JUMP JUMPDEST PUSH1 0x0 DUP1 PUSH1 0x0 PUSH1 0x60 DUP5 DUP7 SUB SLT ISZERO PUSH2 0x2269 JUMPI DUP2 DUP3 REVERT JUMPDEST PUSH2 0x2272 DUP5 PUSH2 0x21F0 JUMP JUMPDEST SWAP3 POP PUSH1 0x20 DUP5 ADD CALLDATALOAD PUSH2 0x2282 DUP2 PUSH2 0x25AF JUMP JUMPDEST SWAP3 SWAP6 SWAP3 SWAP5 POP POP POP PUSH1 0x40 SWAP2 SWAP1 SWAP2 ADD CALLDATALOAD SWAP1 JUMP JUMPDEST PUSH1 0x0 PUSH1 0xA0 DUP3 DUP5 SUB SLT ISZERO PUSH2 0x22A4 JUMPI DUP1 DUP2 REVERT JUMPDEST PUSH1 0x40 MLOAD PUSH1 0xA0 DUP2 ADD DUP2 DUP2 LT PUSH8 0xFFFFFFFFFFFFFFFF DUP3 GT OR ISZERO PUSH2 0x22C1 JUMPI INVALID JUMPDEST PUSH1 0x40 MSTORE DUP3 MLOAD PUSH5 0xFFFFFFFFFF DUP2 AND DUP2 EQ PUSH2 0x22D8 JUMPI DUP3 DUP4 REVERT JUMPDEST DUP2 MSTORE PUSH1 0x20 DUP4 ADD MLOAD PUSH1 0x1 PUSH1 0x1 PUSH1 0xF8 SHL SUB NOT DUP2 AND DUP2 EQ PUSH2 0x22F4 JUMPI DUP3 DUP4 REVERT JUMPDEST PUSH1 0x20 DUP3 ADD MSTORE PUSH2 0x2305 PUSH1 0x40 DUP5 ADD PUSH2 0x222A JUMP JUMPDEST PUSH1 0x40 DUP3 ADD MSTORE PUSH2 0x2316 PUSH1 0x60 DUP5 ADD PUSH2 0x221F JUMP JUMPDEST PUSH1 0x60 DUP3 ADD MSTORE PUSH2 0x2327 PUSH1 0x80 DUP5 ADD PUSH2 0x2207 JUMP JUMPDEST PUSH1 0x80 DUP3 ADD MSTORE SWAP4 SWAP3 POP POP POP JUMP JUMPDEST PUSH1 0x0 PUSH1 0x20 DUP3 DUP5 SUB SLT ISZERO PUSH2 0x2344 JUMPI DUP1 DUP2 REVERT JUMPDEST DUP2 CALLDATALOAD PUSH2 0xB80 DUP2 PUSH2 0x25AF JUMP JUMPDEST PUSH1 0x0 DUP1 PUSH1 0x0 PUSH1 0x60 DUP5 DUP7 SUB SLT ISZERO PUSH2 0x2363 JUMPI DUP3 DUP4 REVERT JUMPDEST DUP4 CALLDATALOAD PUSH2 0x236E DUP2 PUSH2 0x25AF JUMP JUMPDEST SWAP3 POP PUSH1 0x20 DUP5 ADD CALLDATALOAD PUSH1 0x1 PUSH1 0x1 PUSH1 0x58 SHL SUB DUP2 AND DUP2 EQ PUSH2 0x2389 JUMPI DUP3 DUP4 REVERT JUMPDEST SWAP2 POP PUSH1 0x40 DUP5 ADD CALLDATALOAD DUP1 ISZERO ISZERO DUP2 EQ PUSH2 0x239D JUMPI DUP2 DUP3 REVERT JUMPDEST DUP1 SWAP2 POP POP SWAP3 POP SWAP3 POP SWAP3 JUMP JUMPDEST PUSH1 0x0 PUSH1 0x20 DUP3 DUP5 SUB SLT ISZERO PUSH2 0x23B9 JUMPI DUP1 DUP2 REVERT JUMPDEST POP MLOAD SWAP2 SWAP1 POP JUMP JUMPDEST PUSH1 0x1 PUSH1 0x1 PUSH1 0xA0 SHL SUB SWAP2 SWAP1 SWAP2 AND DUP2 MSTORE PUSH1 0x20 ADD SWAP1 JUMP JUMPDEST PUSH1 0x1 PUSH1 0x1 PUSH1 0xA0 SHL SUB SWAP4 DUP5 AND DUP2 MSTORE SWAP2 SWAP1 SWAP3 AND PUSH1 0x20 DUP3 ADD MSTORE PUSH1 0x40 DUP2 ADD SWAP2 SWAP1 SWAP2 MSTORE PUSH1 0x60 ADD SWAP1 JUMP JUMPDEST PUSH1 0x1 PUSH1 0x1 PUSH1 0xA0 SHL SUB SWAP3 SWAP1 SWAP3 AND DUP3 MSTORE DUP1 MLOAD PUSH5 0xFFFFFFFFFF AND PUSH1 0x20 DUP1 DUP5 ADD SWAP2 SWAP1 SWAP2 MSTORE DUP2 ADD MLOAD PUSH1 0x1 PUSH1 0x1 PUSH1 0xF8 SHL SUB NOT AND PUSH1 0x40 DUP1 DUP5 ADD SWAP2 SWAP1 SWAP2 MSTORE DUP2 ADD MLOAD PUSH1 0xFF AND PUSH1 0x60 DUP1 DUP5 ADD SWAP2 SWAP1 SWAP2 MSTORE DUP2 ADD MLOAD PUSH2 0xFFFF AND PUSH1 0x80 DUP1 DUP5 ADD SWAP2 SWAP1 SWAP2 MSTORE ADD MLOAD PUSH1 0x1 PUSH1 0x1 PUSH1 0x70 SHL SUB NOT AND PUSH1 0xA0 DUP3 ADD MSTORE PUSH1 0xC0 ADD SWAP1 JUMP JUMPDEST PUSH1 0x1 PUSH1 0x1 PUSH1 0xA0 SHL SUB SWAP3 SWAP1 SWAP3 AND DUP3 MSTORE PUSH1 0x20 DUP3 ADD MSTORE PUSH1 0x40 ADD SWAP1 JUMP JUMPDEST SWAP1 ISZERO ISZERO DUP2 MSTORE PUSH1 0x20 ADD SWAP1 JUMP JUMPDEST SWAP1 DUP2 MSTORE PUSH1 0x20 ADD SWAP1 JUMP JUMPDEST PUSH1 0x20 DUP1 DUP3 MSTORE PUSH1 0x4 SWAP1 DUP3 ADD MSTORE PUSH4 0x135A5B9D PUSH1 0xE2 SHL PUSH1 0x40 DUP3 ADD MSTORE PUSH1 0x60 ADD SWAP1 JUMP JUMPDEST PUSH1 0x20 DUP1 DUP3 MSTORE PUSH1 0xB SWAP1 DUP3 ADD MSTORE PUSH11 0x4554482042616C616E6365 PUSH1 0xA8 SHL PUSH1 0x40 DUP3 ADD MSTORE PUSH1 0x60 ADD SWAP1 JUMP JUMPDEST PUSH1 0x20 DUP1 DUP3 MSTORE PUSH1 0x6 SWAP1 DUP3 ADD MSTORE PUSH6 0x52656465656D PUSH1 0xD0 SHL PUSH1 0x40 DUP3 ADD MSTORE PUSH1 0x60 ADD SWAP1 JUMP JUMPDEST PUSH1 0x20 DUP1 DUP3 MSTORE PUSH1 0x14 SWAP1 DUP3 ADD MSTORE PUSH20 0x496E73756666696369656E742062616C616E6365 PUSH1 0x60 SHL PUSH1 0x40 DUP3 ADD MSTORE PUSH1 0x60 ADD SWAP1 JUMP JUMPDEST PUSH1 0x20 DUP1 DUP3 MSTORE PUSH1 0x5 SWAP1 DUP3 ADD MSTORE PUSH5 0x455243323 PUSH1 0xDC SHL PUSH1 0x40 DUP3 ADD MSTORE PUSH1 0x60 ADD SWAP1 JUMP JUMPDEST PUSH1 0x20 DUP1 DUP3 MSTORE PUSH1 0xE SWAP1 DUP3 ADD MSTORE PUSH14 0x1499595B9D1C985B9D0818D85B1B PUSH1 0x92 SHL PUSH1 0x40 DUP3 ADD MSTORE PUSH1 0x60 ADD SWAP1 JUMP JUMPDEST PUSH1 0x20 DUP1 DUP3 MSTORE PUSH1 0x8 SWAP1 DUP3 ADD MSTORE PUSH8 0x9CCACE4086C2E6D PUSH1 0xC3 SHL PUSH1 0x40 DUP3 ADD MSTORE PUSH1 0x60 ADD SWAP1 JUMP JUMPDEST PUSH1 0x20 DUP1 DUP3 MSTORE PUSH1 0xA SWAP1 DUP3 ADD MSTORE PUSH10 0x2732B390372A37B5B2B7 PUSH1 0xB1 SHL PUSH1 0x40 DUP3 ADD MSTORE PUSH1 0x60 ADD SWAP1 JUMP JUMPDEST PUSH2 0xFFFF DUP2 AND DUP2 EQ PUSH2 0x25BF JUMPI PUSH1 0x0 DUP1 REVERT JUMPDEST POP JUMP INVALID MSTORE8 PUSH2 0x6665 0x4D PUSH2 0x7468 GASPRICE KECCAK256 PUSH14 0x756C7469706C69636174696F6E20 PUSH16 0x766572666C6F77A26469706673582212 KECCAK256 PUSH11 0xA23C866533F88F60A8606 0xC8 TIMESTAMP PUSH2 0xAA35 0x25 CREATE PUSH2 0xADA8 0xA7 SUB 0xF9 PUSH8 0xB1988042FC606473 PUSH16 0x6C634300070600330000000000000000 ","sha1":"9893d51c6cf6b8c9f2434d6bc679c66dd7566688","source":"// SPDX-License-Identifier: GPL-3.0-only\npragma solidity ^0.7.0;\npragma abicoder v2;\n\nimport \"./ActionGuards.sol\";\nimport \"../SettleAssetsExternal.sol\";\nimport \"../FreeCollateralExternal.sol\";\nimport \"../../math/SafeInt256.sol\";\nimport \"../../internal/balances/BalanceHandler.sol\";\nimport \"../../internal/AccountContextHandler.sol\";\n\ncontract AccountAction is ActionGuards {\n    using BalanceHandler for BalanceState;\n    using AccountContextHandler for AccountContext;\n    using SafeInt256 for int256;\n\n    /// @notice Enables a bitmap currency for msg.sender, account cannot have any assets when this call\n    /// occurs.\n    /// @param currencyId the currency to enable the bitmap for. If set to zero then will attempt to disable\n    /// the bitmap portfolio for the account\n    /// @dev emit:AccountSettled emit:AccountContextUpdate\n    /// @dev auth:msg.sender\n    function enableBitmapCurrency(uint16 currencyId) external {\n        // require(msg.sender != address(this)); // dev: no internal call to enableBitmapCurrency\n        // require(currencyId <= maxCurrencyId); // dev: invalid currency id\n        // address account = msg.sender;\n        // (AccountContext memory accountContext, /* didSettle */) = _settleAccountIfRequired(account);\n        // accountContext.enableBitmapForAccount(account, currencyId, block.timestamp);\n        // accountContext.setAccountContext(account);\n        revert();\n    }\n\n    /// @notice Method for manually settling an account, generally should not be called because other\n    /// methods will check if an account needs to be settled automatically. If a bitmap account has debt\n    /// and is settled via this method, the hasDebt flag will not be cleared until a free collateral check\n    /// is performed on the account.\n    /// @param account the account to settle\n    /// @dev emit:AccountSettled emit:AccountContextUpdate\n    /// @dev auth:none\n    /// @return returns true if account has been settled\n    function settleAccount(address account) external returns (bool) {\n        requireValidAccount(account);\n        (AccountContext memory accountContext, bool didSettle) = _settleAccountIfRequired(account);\n        if (didSettle) accountContext.setAccountContext(account);\n        return didSettle;\n    }\n\n    /// @notice Deposits and wraps the underlying token for a particular cToken. Does not settle assets or check free\n    /// collateral, idea is to be as gas efficient as possible during potential liquidation events.\n    /// @param account the account to deposit into\n    /// @param currencyId currency id of the asset token that wraps this underlying\n    /// @param amountExternalPrecision the amount of underlying tokens in its native decimal precision\n    /// (i.e. 18 decimals for DAI or 6 decimals for USDC). This will be converted to 8 decimals during transfer.\n    /// @return asset tokens minted and deposited to the account in internal decimals (8)\n    /// @dev emit:CashBalanceChange emit:AccountContextUpdate\n    /// @dev auth:none\n    function depositUnderlyingToken(\n        address account,\n        uint16 currencyId,\n        uint256 amountExternalPrecision\n    ) external payable nonReentrant returns (uint256) {\n        require(msg.sender != address(this)); // dev: no internal call to deposit underlying\n        requireValidAccount(account);\n\n        AccountContext memory accountContext = AccountContextHandler.getAccountContext(account);\n        BalanceState memory balanceState;\n        balanceState.loadBalanceState(account, currencyId, accountContext);\n\n        // NOTE: using msg.sender here allows for a different sender to deposit tokens into\n        // the specified account. This may be useful for on-demand collateral top ups from a\n        // third party. If called with currencyId == 1 then `depositAssetToken` will access\n        // msg.value to mint cETH from ETH.\n        int256 assetTokensReceivedInternal = balanceState.depositUnderlyingToken(\n            msg.sender,\n            SafeInt256.toInt(amountExternalPrecision)\n        );\n\n        require(assetTokensReceivedInternal > 0); // dev: asset tokens negative or zero\n\n        balanceState.finalize(account, accountContext, false);\n        accountContext.setAccountContext(account);\n\n        // NOTE: no free collateral checks required for depositing\n        return assetTokensReceivedInternal.toUint();\n    }\n\n    /// @notice Deposits asset tokens into an account. Does not settle or check free collateral, idea is to\n    /// make deposit as gas efficient as possible during potential liquidation events.\n    /// @param account the account to deposit into\n    /// @param currencyId currency id of the asset token\n    /// @param amountExternalPrecision the amount of asset tokens in its native decimal precision\n    /// (i.e. 8 decimals for cTokens).\n    /// @return asset tokens minted and deposited to the account in internal decimals (8)\n    /// @dev emit:CashBalanceChange emit:AccountContextUpdate\n    /// @dev auth:none\n    function depositAssetToken(\n        address account,\n        uint16 currencyId,\n        uint256 amountExternalPrecision\n    ) external nonReentrant returns (uint256) {\n        require(msg.sender != address(this)); // dev: no internal call to deposit asset\n        requireValidAccount(account);\n\n        AccountContext memory accountContext = AccountContextHandler.getAccountContext(account);\n        BalanceState memory balanceState;\n        balanceState.loadBalanceState(account, currencyId, accountContext);\n\n        // Int conversion overflow check done inside this method call. msg.sender\n        // is used as the account in deposit to allow for other accounts to deposit\n        // on behalf of the given account.\n        int256 assetTokensReceivedInternal = balanceState.depositAssetToken(\n            msg.sender,\n            SafeInt256.toInt(amountExternalPrecision),\n            true // force transfer to ensure that msg.sender does the transfer, not account\n        );\n\n        require(assetTokensReceivedInternal > 0); // dev: asset tokens negative or zero\n\n        balanceState.finalize(account, accountContext, false);\n        accountContext.setAccountContext(account);\n\n        // NOTE: no free collateral checks required for depositing\n        return assetTokensReceivedInternal.toUint();\n    }\n\n    /// @notice Withdraws balances from Notional, may also redeem to underlying tokens on user request. Will settle\n    /// and do free collateral checks if required. Can only be called by msg.sender, operators who want to withdraw for\n    /// an account must do an authenticated call via ERC1155Action `safeTransferFrom` or `safeBatchTransferFrom`\n    /// @param currencyId currency id of the asset token\n    /// @param amountInternalPrecision the amount of cash balance in internal 8 decimal precision to withdraw,\n    /// this is be denominated in asset cash.\n    /// @param redeemToUnderlying true if the tokens should be converted to underlying assets\n    /// @dev emit:CashBalanceChange emit:AccountContextUpdate\n    /// @dev auth:msg.sender\n    /// @return the amount of tokens received by the account denominated in the destination token precision (if\n    // redeeming to underlying the amount will be the underlying amount received in that token's native precision)\n    function withdraw(\n        uint16 currencyId,\n        uint88 amountInternalPrecision,\n        bool redeemToUnderlying\n    ) external nonReentrant returns (uint256) {\n        // This happens before reading the balance state to get the most up to date cash balance\n        (AccountContext memory accountContext, /* didSettle */) = _settleAccountIfRequired(msg.sender);\n\n        BalanceState memory balanceState;\n        balanceState.loadBalanceState(msg.sender, currencyId, accountContext);\n        require(balanceState.storedCashBalance >= amountInternalPrecision, \"Insufficient balance\");\n        // Overflow is not possible due to uint88\n        balanceState.netAssetTransferInternalPrecision = int256(amountInternalPrecision).neg();\n\n        int256 amountWithdrawnExternal = balanceState.finalize(msg.sender, accountContext, redeemToUnderlying);\n\n        accountContext.setAccountContext(msg.sender);\n\n        if (accountContext.hasDebt != 0x00) {\n            FreeCollateralExternal.checkFreeCollateralAndRevert(msg.sender);\n        }\n\n        require(amountWithdrawnExternal <= 0);\n        return amountWithdrawnExternal.neg().toUint();\n    }\n\n    /// @notice Settle the account if required, returning a reference to the account context. Also\n    /// returns a boolean to indicate if it did settle.\n    function _settleAccountIfRequired(address account)\n        private\n        returns (AccountContext memory, bool)\n    {\n        AccountContext memory accountContext = AccountContextHandler.getAccountContext(account);\n        if (accountContext.mustSettleAssets()) {\n            return (SettleAssetsExternal.settleAccount(account, accountContext), true);\n        } else {\n            return (accountContext, false);\n        }\n    }\n}\n","sourcePath":"contracts/external/actions/AccountAction.sol","type":"contract","deployment":{"address":"0xf9FDb607d8b843cdF65898df4E08d1479b69002a","chainid":"1","blockHeight":13955175}}