{"bytecode":"60806040523480156200001157600080fd5b50600054610100900460ff16806200002e57506200002e620000c0565b806200003d575060005460ff16155b6200007a5760405162461bcd60e51b815260040180806020018281038252602e81526020018062002682602e913960400191505060405180910390fd5b600054610100900460ff16158015620000a6576000805460ff1961ff0019909116610100171660011790555b8015620000b9576000805461ff00191690555b50620000e4565b6000620000d830620000de60201b6200103c1760201c565b15905090565b3b151590565b61258e80620000f46000396000f3fe6080604052600436106101665760003560e01c80636fcfff45116100d1578063a9059cbb1161008a578063dd62ed3e11610064578063dd62ed3e14610417578063e7a324dc14610437578063f1127ed81461044c578063f2fde38b1461047a57610166565b8063a9059cbb146103b7578063b4b5ea57146103d7578063c3cda520146103f757610166565b80636fcfff45146102f357806370a0823114610320578063782d6fe1146103405780637ecebe001461036d5780638da5cb5b1461038d57806395d89b41146103a257610166565b8063313ce56711610123578063313ce5671461023c5780633659cfe61461025e5780634f1ef28614610280578063587cde1e146102935780635c19a95c146102b357806367f5f5a9146102d357610166565b806306fdde031461016b578063095ea7b3146101965780630bf6edc5146101c357806318160ddd146101e557806320606b701461020757806323b872dd1461021c575b600080fd5b34801561017757600080fd5b5061018061049a565b60405161018d9190611fdf565b60405180910390f35b3480156101a257600080fd5b506101b66101b1366004611dea565b6104be565b60405161018d9190611f83565b3480156101cf57600080fd5b506101d8610586565b60405161018d9190611f6f565b3480156101f157600080fd5b506101fa61059b565b60405161018d9190611f8e565b34801561021357600080fd5b506101fa6105a6565b34801561022857600080fd5b506101b6610237366004611d07565b6105ca565b34801561024857600080fd5b5061025161071a565b60405161018d9190612291565b34801561026a57600080fd5b5061027e610279366004611cbb565b61071f565b005b61027e61028e366004611d42565b610746565b34801561029f57600080fd5b506101d86102ae366004611cbb565b61075f565b3480156102bf57600080fd5b5061027e6102ce366004611cbb565b61077a565b3480156102df57600080fd5b5061027e6102ee366004611eaf565b610784565b3480156102ff57600080fd5b5061031361030e366004611cbb565b610a2e565b60405161018d9190612261565b34801561032c57600080fd5b506101fa61033b366004611cbb565b610a46565b34801561034c57600080fd5b5061036061035b366004611dea565b610a6e565b60405161018d919061229f565b34801561037957600080fd5b506101fa610388366004611cbb565b610c77565b34801561039957600080fd5b506101d8610c89565b3480156103ae57600080fd5b50610180610c98565b3480156103c357600080fd5b506101b66103d2366004611dea565b610cb8565b3480156103e357600080fd5b506103606103f2366004611cbb565b610cf4565b34801561040357600080fd5b5061027e610412366004611e13565b610d67565b34801561042357600080fd5b506101fa610432366004611cd5565b610f03565b34801561044357600080fd5b506101fa610f37565b34801561045857600080fd5b5061046c610467366004611e71565b610f5b565b60405161018d929190612272565b34801561048657600080fd5b5061027e610495366004611cbb565b610f90565b60405180604001604052806008815260200167139bdd1a5bdb985b60c21b81525081565b6000806001600160601b0383106104dd57506001600160601b03610502565b6104ff836040518060600160405280602581526020016123a960259139611042565b90505b3360008181526001602090815260408083206001600160a01b03891680855292529182902080546001600160601b0319166001600160601b03861617905590519091907f8c5be1e5ebec7d5bd14f71427d1e84f3dd0314c0f7b2291e5b200ac8c7c3b9259061057290859061229f565b60405180910390a360019150505b92915050565b6000546201000090046001600160a01b031681565b662386f26fc1000081565b7f8cad95687ba82c2ce50e74f7b754645e5117c3a5bec8151c0726d5857980a86681565b60008161062557826001600160a01b0316846001600160a01b03167fddf252ad1be2c89b69c2b068fc378daa952ba7f163c4a11628f55a4df523b3ef60006040516106159190611f8e565b60405180910390a3506001610713565b6001600160a01b03841660009081526001602090815260408083203380855290835281842054825160608101909352602580845291946001600160601b0390911693909261067b9288926123a990830139611042565b9050866001600160a01b0316836001600160a01b0316146107005760006106bb83836040518060600160405280603d81526020016122ce603d9139611075565b6001600160a01b03898116600090815260016020908152604080832093891683529290522080546001600160601b0319166001600160601b0392909216919091179055505b61070b8787836110b4565b600193505050505b9392505050565b600881565b6107288161125f565b61074381604051806020016040528060008152506000611289565b50565b61074f8261125f565b61075b82826001611289565b5050565b6003602052600090815260409020546001600160a01b031681565b61074333826113bc565b600054610100900460ff168061079d575061079d611446565b806107ab575060005460ff16155b6107e65760405162461bcd60e51b815260040180806020018281038252602e815260200180612432602e913960400191505060405180910390fd5b600054610100900460ff16158015610811576000805460ff1961ff0019909116610100171660011790555b82851461081d57600080fd5b6000805b848110156109db576108638287878481811061083957fe5b905060200201602081019061084e9190611f2d565b60405180602001604052806000815250611457565b91506002600089898481811061087557fe5b905060200201602081019061088a9190611cbb565b6001600160a01b031681526020810191909152604001600020546001600160601b0316156108d35760405162461bcd60e51b81526004016108ca906121f0565b60405180910390fd5b8585828181106108df57fe5b90506020020160208101906108f49190611f2d565b600260008a8a8581811061090457fe5b90506020020160208101906109199190611cbb565b6001600160a01b03168152602081019190915260400160002080546001600160601b0319166001600160601b039290921691909117905587878281811061095c57fe5b90506020020160208101906109719190611cbb565b6001600160a01b031660007fddf252ad1be2c89b69c2b068fc378daa952ba7f163c4a11628f55a4df523b3ef8888858181106109a957fe5b90506020020160208101906109be9190611f2d565b6040516109cb919061229f565b60405180910390a3600101610821565b50662386f26fc10000816001600160601b0316146109f857600080fd5b50600780546001600160a01b0319166001600160a01b0384161790558015610a26576000805461ff00191690555b505050505050565b60056020526000908152604090205463ffffffff1681565b6001600160a01b0381166000908152600260205260409020546001600160601b03165b919050565b6000438210610a8f5760405162461bcd60e51b81526004016108ca90612032565b6001600160a01b03831660009081526005602052604090205463ffffffff1680610abd576000915050610580565b6001600160a01b038416600090815260046020908152604080832063ffffffff600019860181168552925290912054168310610b39576001600160a01b03841660009081526004602090815260408083206000199490940163ffffffff1683529290522054600160201b90046001600160601b03169050610580565b6001600160a01b038416600090815260046020908152604080832083805290915290205463ffffffff16831015610b74576000915050610580565b600060001982015b8163ffffffff168163ffffffff161115610c32576000600263ffffffff848403166001600160a01b038916600090815260046020908152604080832094909304860363ffffffff818116845294825291839020835180850190945254938416808452600160201b9094046001600160601b031690830152925090871415610c0d576020015194506105809350505050565b805163ffffffff16871115610c2457819350610c2b565b6001820392505b5050610b7c565b506001600160a01b038516600090815260046020908152604080832063ffffffff909416835292905220546001600160601b03600160201b9091041691505092915050565b60066020526000908152604090205481565b6007546001600160a01b031681565b604051806040016040528060048152602001634e4f544560e01b81525081565b600080610cdd8360405180606001604052806026815260200161230b60269139611042565b9050610cea3385836110b4565b5060019392505050565b6001600160a01b03811660009081526005602052604081205463ffffffff168181610d20576000610d5f565b6001600160a01b0384166000908152600460209081526040808320600019860163ffffffff168452909152902054600160201b90046001600160601b03165b949350505050565b83421115610d875760405162461bcd60e51b81526004016108ca9061221b565b604080518082019091526008815267139bdd1a5bdb985b60c21b60209091015260007f8cad95687ba82c2ce50e74f7b754645e5117c3a5bec8151c0726d5857980a8667f20f87700a518c9822d66e3293ff0098bfccf560aeca4efb5ce1808fe1690c351610df3611493565b30604051602001610e079493929190611fbb565b60405160208183030381529060405280519060200120905060007fe48329057bfd03d55e49b547132e39cffd9c1820ad7b9d4c5307691425d15adf888888604051602001610e589493929190611f97565b60405160208183030381529060405280519060200120905060008282604051602001610e85929190611f54565b6040516020818303038152906040528051906020012090506000610eab82888888611497565b6001600160a01b03811660009081526006602052604090208054600181019091559091508914610eed5760405162461bcd60e51b81526004016108ca906121ae565b610ef7818b6113bc565b50505050505050505050565b6001600160a01b0391821660009081526001602090815260408083209390941682529190915220546001600160601b031690565b7fe48329057bfd03d55e49b547132e39cffd9c1820ad7b9d4c5307691425d15adf81565b600460209081526000928352604080842090915290825290205463ffffffff811690600160201b90046001600160601b031682565b6007546001600160a01b03163314610fba5760405162461bcd60e51b81526004016108ca90612179565b6001600160a01b038116610fe05760405162461bcd60e51b81526004016108ca90612079565b6007546040516001600160a01b038084169216907f8be0079c531659141344cd1fd0a4f28419497f9722a3daafe3b4186f6b6457e090600090a3600780546001600160a01b0319166001600160a01b0392909216919091179055565b3b151590565b6000816001600160601b0384111561106d5760405162461bcd60e51b81526004016108ca9190611fdf565b509192915050565b6000836001600160601b0316836001600160601b0316111582906110ac5760405162461bcd60e51b81526004016108ca9190611fdf565b505050900390565b6001600160a01b0383166110da5760405162461bcd60e51b81526004016108ca906120bf565b6001600160a01b0382166111005760405162461bcd60e51b81526004016108ca9061211c565b6001600160a01b03831660009081526002602090815260409182902054825160608101909352603680845261114b936001600160601b0390921692859291906124fd90830139611075565b6001600160a01b03848116600090815260026020908152604080832080546001600160601b0319166001600160601b039687161790559286168252908290205482516060810190935260308084526111b394919091169285929091906123ce90830139611457565b6001600160a01b038381166000818152600260205260409081902080546001600160601b0319166001600160601b0395909516949094179093559151908516907fddf252ad1be2c89b69c2b068fc378daa952ba7f163c4a11628f55a4df523b3ef9061122090859061229f565b60405180910390a36001600160a01b0380841660009081526003602052604080822054858416835291205461125a92918216911683611615565b505050565b6007546001600160a01b031633146107435760405162461bcd60e51b81526004016108ca90612179565b60006112936117a7565b905061129e846117e1565b6000835111806112ab5750815b156112bc576112ba8484611870565b505b60006112e77f4910fdfa16fed3260ed0e7147f7cc6da11a60208b5b9406d12a635614ffd9143611895565b805490915060ff166113b557805460ff19166001178155604080516001600160a01b0384166024808301919091528251808303909101815260449091019091526020810180516001600160e01b0316631b2ce7f360e11b17905261134c908690611870565b50805460ff1916815561135d6117a7565b6001600160a01b0316826001600160a01b0316146113ac5760405162461bcd60e51b815260040180806020018281038252602f815260200180612331602f913960400191505060405180910390fd5b6113b585611898565b5050505050565b6001600160a01b03808316600081815260036020818152604080842080546002845282862054949093528787166001600160a01b031984168117909155905191909516946001600160601b039092169391928592917f3134e8a2e6d97e929a7e54011ea5485d7d196dd5f0ba4d4ef95803e8e3fc257f9190a4611440828483611615565b50505050565b60006114513061103c565b15905090565b6000838301826001600160601b03808716908316101561148a5760405162461bcd60e51b81526004016108ca9190611fdf565b50949350505050565b4690565b60007f7fffffffffffffffffffffffffffffff5d576e7357a4501ddfe92f46681b20a08211156114f85760405162461bcd60e51b81526004018080602001828103825260228152602001806123876022913960400191505060405180910390fd5b8360ff16601b148061150d57508360ff16601c145b6115485760405162461bcd60e51b81526004018080602001828103825260228152602001806124606022913960400191505060405180910390fd5b600060018686868660405160008152602001604052604051808581526020018460ff1681526020018381526020018281526020019450505050506020604051602081039080840390855afa1580156115a4573d6000803e3d6000fd5b5050604051601f1901519150506001600160a01b03811661160c576040805162461bcd60e51b815260206004820152601860248201527f45434453413a20696e76616c6964207369676e61747572650000000000000000604482015290519081900360640190fd5b95945050505050565b816001600160a01b0316836001600160a01b03161415801561164057506000816001600160601b0316115b1561125a576001600160a01b038316156116f8576001600160a01b03831660009081526005602052604081205463ffffffff1690816116805760006116bf565b6001600160a01b0385166000908152600460209081526040808320600019860163ffffffff168452909152902054600160201b90046001600160601b03165b905060006116e6828560405180606001604052806027815260200161236060279139611075565b90506116f4868484846118d8565b5050505b6001600160a01b0382161561125a576001600160a01b03821660009081526005602052604081205463ffffffff169081611733576000611772565b6001600160a01b0384166000908152600460209081526040808320600019860163ffffffff168452909152902054600160201b90046001600160601b03165b90506000611799828560405180606001604052806027815260200161248260279139611457565b9050610a26858484846118d8565b60006117d27f360894a13ba1a3210667c828492db98dca3e2076cc3735a920a3ca505d382bbc611895565b546001600160a01b0316905090565b6117ea8161103c565b6118255760405162461bcd60e51b815260040180806020018281038252602d8152602001806124a9602d913960400191505060405180910390fd5b8061184f7f360894a13ba1a3210667c828492db98dca3e2076cc3735a920a3ca505d382bbc611895565b80546001600160a01b0319166001600160a01b039290921691909117905550565b606061071383836040518060600160405280602781526020016124d660279139611a8d565b90565b6118a1816117e1565b6040516001600160a01b038216907fbc7cd75a20ee27fd9adebab32041f755214dbc6bffa90cc0225b39da2e5c2d3b90600090a250565b60006118fc436040518060600160405280603481526020016123fe60349139611b8f565b905060008463ffffffff1611801561194557506001600160a01b038516600090815260046020908152604080832063ffffffff6000198901811685529252909120548282169116145b156119a4576001600160a01b0385166000908152600460209081526040808320600019880163ffffffff168452909152902080546fffffffffffffffffffffffff000000001916600160201b6001600160601b03851602179055611a43565b60408051808201825263ffffffff80841682526001600160601b0380861660208085019182526001600160a01b038b166000818152600483528781208c871682528352878120965187549451909516600160201b026fffffffffffffffffffffffff000000001995871663ffffffff19958616179590951694909417909555938252600590935292909220805460018801909316929091169190911790555b846001600160a01b03167fdec2bacdd2f05b59de34da9b523dff8be42e5e38e818c82fdb0bae774387a7248484604051611a7e9291906122b3565b60405180910390a25050505050565b6060611a988461103c565b611ad35760405162461bcd60e51b81526004018080602001828103825260268152602001806125336026913960400191505060405180910390fd5b600080856001600160a01b0316856040518082805190602001908083835b60208310611b105780518252601f199092019160209182019101611af1565b6001836020036101000a038019825116818451168082178552505050505050905001915050600060405180830381855af49150503d8060008114611b70576040519150601f19603f3d011682016040523d82523d6000602084013e611b75565b606091505b5091509150611b85828286611bb7565b9695505050505050565b60008163ffffffff84111561106d5760405162461bcd60e51b81526004016108ca9190611fdf565b60608315611bc6575081610713565b825115611bd65782518084602001fd5b8160405162461bcd60e51b81526004018080602001828103825283818151815260200191508051906020019080838360005b83811015611c20578181015183820152602001611c08565b50505050905090810190601f168015611c4d5780820380516001836020036101000a031916815260200191505b509250505060405180910390fd5b80356001600160a01b0381168114610a6957600080fd5b60008083601f840112611c83578081fd5b50813567ffffffffffffffff811115611c9a578182fd5b6020830191508360208083028501011115611cb457600080fd5b9250929050565b600060208284031215611ccc578081fd5b61071382611c5b565b60008060408385031215611ce7578081fd5b611cf083611c5b565b9150611cfe60208401611c5b565b90509250929050565b600080600060608486031215611d1b578081fd5b611d2484611c5b565b9250611d3260208501611c5b565b9150604084013590509250925092565b60008060408385031215611d54578182fd5b611d5d83611c5b565b915060208084013567ffffffffffffffff80821115611d7a578384fd5b818601915086601f830112611d8d578384fd5b813581811115611d9957fe5b604051601f8201601f1916810185018381118282101715611db657fe5b6040528181528382018501891015611dcc578586fd5b81858501868301378585838301015280955050505050509250929050565b60008060408385031215611dfc578182fd5b611e0583611c5b565b946020939093013593505050565b60008060008060008060c08789031215611e2b578182fd5b611e3487611c5b565b95506020870135945060408701359350606087013560ff81168114611e57578283fd5b9598949750929560808101359460a0909101359350915050565b60008060408385031215611e83578182fd5b611e8c83611c5b565b9150602083013563ffffffff81168114611ea4578182fd5b809150509250929050565b600080600080600060608688031215611ec6578081fd5b853567ffffffffffffffff80821115611edd578283fd5b611ee989838a01611c72565b90975095506020880135915080821115611f01578283fd5b50611f0e88828901611c72565b9094509250611f21905060408701611c5b565b90509295509295909350565b600060208284031215611f3e578081fd5b81356001600160601b0381168114610713578182fd5b61190160f01b81526002810192909252602282015260420190565b6001600160a01b0391909116815260200190565b901515815260200190565b90815260200190565b9384526001600160a01b039290921660208401526040830152606082015260800190565b938452602084019290925260408301526001600160a01b0316606082015260800190565b6000602080835283518082850152825b8181101561200b57858101830151858201604001528201611fef565b8181111561201c5783604083870101525b50601f01601f1916929092016040019392505050565b60208082526027908201527f4e6f74653a3a6765745072696f72566f7465733a206e6f742079657420646574604082015266195c9b5a5b995960ca1b606082015260800190565b60208082526026908201527f4f776e61626c653a206e6577206f776e657220697320746865207a65726f206160408201526564647265737360d01b606082015260800190565b6020808252603c908201527f4e6f74653a3a5f7472616e73666572546f6b656e733a2063616e6e6f7420747260408201527f616e736665722066726f6d20746865207a65726f206164647265737300000000606082015260800190565b6020808252603a908201527f4e6f74653a3a5f7472616e73666572546f6b656e733a2063616e6e6f7420747260408201527f616e7366657220746f20746865207a65726f2061646472657373000000000000606082015260800190565b6020808252818101527f4f776e61626c653a2063616c6c6572206973206e6f7420746865206f776e6572604082015260600190565b60208082526022908201527f4e6f74653a3a64656c656761746542795369673a20696e76616c6964206e6f6e604082015261636560f01b606082015260800190565b602080825260119082015270111d5c1b1a58d85d19481858d8dbdd5b9d607a1b604082015260600190565b60208082526026908201527f4e6f74653a3a64656c656761746542795369673a207369676e617475726520656040820152651e1c1a5c995960d21b606082015260800190565b63ffffffff91909116815260200190565b63ffffffff9290921682526001600160601b0316602082015260400190565b60ff91909116815260200190565b6001600160601b0391909116815260200190565b6001600160601b039283168152911660208201526040019056fe4e6f74653a3a7472616e7366657246726f6d3a207472616e7366657220616d6f756e742065786365656473207370656e64657220616c6c6f77616e63654e6f74653a3a7472616e736665723a20616d6f756e742065786365656473203936206269747345524331393637557067726164653a207570677261646520627265616b7320667572746865722075706772616465734e6f74653a3a5f6d6f7665566f7465733a20766f746520616d6f756e7420756e646572666c6f7745434453413a20696e76616c6964207369676e6174757265202773272076616c75654e6f74653a3a617070726f76653a20616d6f756e74206578636565647320393620626974734e6f74653a3a5f7472616e73666572546f6b656e733a207472616e7366657220616d6f756e74206f766572666c6f77734e6f74653a3a5f7772697465436865636b706f696e743a20626c6f636b206e756d62657220657863656564732033322062697473496e697469616c697a61626c653a20636f6e747261637420697320616c726561647920696e697469616c697a656445434453413a20696e76616c6964207369676e6174757265202776272076616c75654e6f74653a3a5f6d6f7665566f7465733a20766f746520616d6f756e74206f766572666c6f7773455243313936373a206e657720696d706c656d656e746174696f6e206973206e6f74206120636f6e7472616374416464726573733a206c6f772d6c6576656c2064656c65676174652063616c6c206661696c65644e6f74653a3a5f7472616e73666572546f6b656e733a207472616e7366657220616d6f756e7420657863656564732062616c616e6365416464726573733a2064656c65676174652063616c6c20746f206e6f6e2d636f6e7472616374a2646970667358221220facfaca02e514fb8e824e3ea44aa0b8f9435c315d1180e5c95be03e1f85e393c64736f6c63430007060033496e697469616c697a61626c653a20636f6e747261637420697320616c726561647920696e697469616c697a6564","bytecodeSha1":"da39a3ee5e6b4b0d3255bfef95601890afd80709","type":"contract","abi":[{"inputs":[],"stateMutability":"nonpayable","type":"constructor","name":"constructor"},{"anonymous":false,"inputs":[{"indexed":true,"internalType":"address","name":"owner","type":"address"},{"indexed":true,"internalType":"address","name":"spender","type":"address"},{"indexed":false,"internalType":"uint256","name":"amount","type":"uint256"}],"name":"Approval","type":"event"},{"anonymous":false,"inputs":[{"indexed":true,"internalType":"address","name":"delegator","type":"address"},{"indexed":true,"internalType":"address","name":"fromDelegate","type":"address"},{"indexed":true,"internalType":"address","name":"toDelegate","type":"address"}],"name":"DelegateChanged","type":"event"},{"anonymous":false,"inputs":[{"indexed":true,"internalType":"address","name":"delegate","type":"address"},{"indexed":false,"internalType":"uint256","name":"previousBalance","type":"uint256"},{"indexed":false,"internalType":"uint256","name":"newBalance","type":"uint256"}],"name":"DelegateVotesChanged","type":"event"},{"anonymous":false,"inputs":[{"indexed":true,"internalType":"address","name":"previousOwner","type":"address"},{"indexed":true,"internalType":"address","name":"newOwner","type":"address"}],"name":"OwnershipTransferred","type":"event"},{"anonymous":false,"inputs":[{"indexed":true,"internalType":"address","name":"from","type":"address"},{"indexed":true,"internalType":"address","name":"to","type":"address"},{"indexed":false,"internalType":"uint256","name":"amount","type":"uint256"}],"name":"Transfer","type":"event"},{"anonymous":false,"inputs":[{"indexed":true,"internalType":"address","name":"implementation","type":"address"}],"name":"Upgraded","type":"event"},{"inputs":[],"name":"DELEGATION_TYPEHASH","outputs":[{"internalType":"bytes32","name":"","type":"bytes32"}],"stateMutability":"view","type":"function"},{"inputs":[],"name":"DOMAIN_TYPEHASH","outputs":[{"internalType":"bytes32","name":"","type":"bytes32"}],"stateMutability":"view","type":"function"},{"inputs":[{"internalType":"address","name":"account","type":"address"},{"internalType":"address","name":"spender","type":"address"}],"name":"allowance","outputs":[{"internalType":"uint256","name":"","type":"uint256"}],"stateMutability":"view","type":"function"},{"inputs":[{"internalType":"address","name":"spender","type":"address"},{"internalType":"uint256","name":"rawAmount","type":"uint256"}],"name":"approve","outputs":[{"internalType":"bool","name":"","type":"bool"}],"stateMutability":"nonpayable","type":"function"},{"inputs":[{"internalType":"address","name":"account","type":"address"}],"name":"balanceOf","outputs":[{"internalType":"uint256","name":"","type":"uint256"}],"stateMutability":"view","type":"function"},{"inputs":[{"internalType":"address","name":"","type":"address"},{"internalType":"uint32","name":"","type":"uint32"}],"name":"checkpoints","outputs":[{"internalType":"uint32","name":"fromBlock","type":"uint32"},{"internalType":"uint96","name":"votes","type":"uint96"}],"stateMutability":"view","type":"function"},{"inputs":[],"name":"decimals","outputs":[{"internalType":"uint8","name":"","type":"uint8"}],"stateMutability":"view","type":"function"},{"inputs":[{"internalType":"address","name":"delegatee","type":"address"}],"name":"delegate","outputs":[],"stateMutability":"nonpayable","type":"function"},{"inputs":[{"internalType":"address","name":"delegatee","type":"address"},{"internalType":"uint256","name":"nonce","type":"uint256"},{"internalType":"uint256","name":"expiry","type":"uint256"},{"internalType":"uint8","name":"v","type":"uint8"},{"internalType":"bytes32","name":"r","type":"bytes32"},{"internalType":"bytes32","name":"s","type":"bytes32"}],"name":"delegateBySig","outputs":[],"stateMutability":"nonpayable","type":"function"},{"inputs":[{"internalType":"address","name":"","type":"address"}],"name":"delegates","outputs":[{"internalType":"address","name":"","type":"address"}],"stateMutability":"view","type":"function"},{"inputs":[{"internalType":"address","name":"account","type":"address"}],"name":"getCurrentVotes","outputs":[{"internalType":"uint96","name":"","type":"uint96"}],"stateMutability":"view","type":"function"},{"inputs":[{"internalType":"address","name":"account","type":"address"},{"internalType":"uint256","name":"blockNumber","type":"uint256"}],"name":"getPriorVotes","outputs":[{"internalType":"uint96","name":"","type":"uint96"}],"stateMutability":"view","type":"function"},{"inputs":[{"internalType":"address[]","name":"initialAccounts","type":"address[]"},{"internalType":"uint96[]","name":"initialGrantAmount","type":"uint96[]"},{"internalType":"address","name":"owner_","type":"address"}],"name":"initialize","outputs":[],"stateMutability":"nonpayable","type":"function"},{"inputs":[],"name":"name","outputs":[{"internalType":"string","name":"","type":"string"}],"stateMutability":"view","type":"function"},{"inputs":[{"internalType":"address","name":"","type":"address"}],"name":"nonces","outputs":[{"internalType":"uint256","name":"","type":"uint256"}],"stateMutability":"view","type":"function"},{"inputs":[],"name":"notionalProxy","outputs":[{"internalType":"contract NotionalProxy","name":"","type":"address"}],"stateMutability":"view","type":"function"},{"inputs":[{"internalType":"address","name":"","type":"address"}],"name":"numCheckpoints","outputs":[{"internalType":"uint32","name":"","type":"uint32"}],"stateMutability":"view","type":"function"},{"inputs":[],"name":"owner","outputs":[{"internalType":"address","name":"","type":"address"}],"stateMutability":"view","type":"function"},{"inputs":[],"name":"symbol","outputs":[{"internalType":"string","name":"","type":"string"}],"stateMutability":"view","type":"function"},{"inputs":[],"name":"totalSupply","outputs":[{"internalType":"uint256","name":"","type":"uint256"}],"stateMutability":"view","type":"function"},{"inputs":[{"internalType":"address","name":"dst","type":"address"},{"internalType":"uint256","name":"rawAmount","type":"uint256"}],"name":"transfer","outputs":[{"internalType":"bool","name":"","type":"bool"}],"stateMutability":"nonpayable","type":"function"},{"inputs":[{"internalType":"address","name":"src","type":"address"},{"internalType":"address","name":"dst","type":"address"},{"internalType":"uint256","name":"rawAmount","type":"uint256"}],"name":"transferFrom","outputs":[{"internalType":"bool","name":"","type":"bool"}],"stateMutability":"nonpayable","type":"function"},{"inputs":[{"internalType":"address","name":"newOwner","type":"address"}],"name":"transferOwnership","outputs":[],"stateMutability":"nonpayable","type":"function"},{"inputs":[{"internalType":"address","name":"newImplementation","type":"address"}],"name":"upgradeTo","outputs":[],"stateMutability":"nonpayable","type":"function"},{"inputs":[{"internalType":"address","name":"newImplementation","type":"address"},{"internalType":"bytes","name":"data","type":"bytes"}],"name":"upgradeToAndCall","outputs":[],"stateMutability":"payable","type":"function"}],"compiler":{"version":"0.7.6+commit.7338295f","evm_version":"istanbul","optimizer":{"enabled":true,"runs":200}},"contractName":"NoteERC20","language":"Solidity","natspec":{"methods":{"allowance(address,address)":{"notice":"Get the number of tokens `spender` is approved to spend on behalf of `account`","params":{"account":"The address of the account holding the funds","spender":"The address of the account spending the funds"},"returns":{"_0":"The number of tokens approved"}},"approve(address,uint256)":{"notice":"Approve `spender` to transfer up to `amount` from `src`","details":"This will overwrite the approval amount for `spender`  and is subject to issues noted [here](https://eips.ethereum.org/EIPS/eip-20#approve)  emit:Approval","params":{"rawAmount":"The number of tokens that are approved (2^256-1 means infinite)","spender":"The address of the account which may transfer tokens"},"returns":{"_0":"Whether or not the approval succeeded"}},"balanceOf(address)":{"notice":"Get the number of tokens held by the `account`","params":{"account":"The address of the account to get the balance of"},"returns":{"_0":"The number of tokens held"}},"delegate(address)":{"notice":"Delegate votes from `msg.sender` to `delegatee`","details":"emit:DelegatesChanged","params":{"delegatee":"The address to delegate votes to"}},"delegateBySig(address,uint256,uint256,uint8,bytes32,bytes32)":{"notice":"Delegates votes from signatory to `delegatee`","details":"emit:DelegatesChanged","params":{"delegatee":"The address to delegate votes to","expiry":"The time at which to expire the signature","nonce":"The contract state required to match the signature","r":"Half of the ECDSA signature pair","s":"Half of the ECDSA signature pair","v":"The recovery byte of the signature"}},"getCurrentVotes(address)":{"notice":"Gets the current votes balance for `account`","params":{"account":"The address to get votes balance"},"returns":{"_0":"The number of current votes for `account`"}},"getPriorVotes(address,uint256)":{"notice":"Determine the prior number of votes for an account as of a block number","details":"Block number must be a finalized block or else this function will revert to prevent misinformation.","params":{"account":"The address of the account to check","blockNumber":"The block number to get the vote balance at"},"returns":{"_0":"The number of votes the account had as of the given block"}},"initialize(address[],uint96[],address)":{"notice":"Initialize note token with initial grants","params":{"initialAccounts":"initial address to grant tokens to","initialGrantAmount":"amount to grant address initially"}},"transfer(address,uint256)":{"notice":"Transfer `amount` tokens from `msg.sender` to `dst`","details":"emit:Transfer","params":{"dst":"The address of the destination account","rawAmount":"The number of tokens to transfer"},"returns":{"_0":"Whether or not the transfer succeeded"}},"transferFrom(address,address,uint256)":{"notice":"Transfer `amount` tokens from `src` to `dst`","details":"emit:Transfer emit:Approval","params":{"dst":"The address of the destination account","rawAmount":"The number of tokens to transfer","src":"The address of the source account"},"returns":{"_0":"Whether or not the transfer succeeded"}},"transferOwnership(address)":{"details":"Transfers ownership of the contract to a new account (`newOwner`). Can only be called by the current owner."},"upgradeTo(address)":{"details":"Upgrade the implementation of the proxy to `newImplementation`. Calls {_authorizeUpgrade}. Emits an {Upgraded} event."},"upgradeToAndCall(address,bytes)":{"details":"Upgrade the implementation of the proxy to `newImplementation`, and subsequently execute the function call encoded in `data`. Calls {_authorizeUpgrade}. Emits an {Upgraded} event."},"totalSupply()":{"notice":"Total number of tokens in circulation (100 million NOTE)"},"owner()":{"notice":"Owner address which can upgrade the tokens implementation"},"numCheckpoints(address)":{"notice":"The number of checkpoints for each account"},"decimals()":{"notice":"EIP-20 token decimals for this token"},"name()":{"notice":"EIP-20 token name for this token"},"DOMAIN_TYPEHASH()":{"notice":"The EIP-712 typehash for the contract's domain"},"nonces(address)":{"notice":"A record of states for signing / validating signatures"},"checkpoints(address,uint32)":{"notice":"A record of votes checkpoints for each account, by index"},"symbol()":{"notice":"EIP-20 token symbol for this token"},"notionalProxy()":{"notice":"Notional router address, not currently used but cannot be removed or this will mess up storage."},"delegates(address)":{"notice":"A record of each accounts delegate"},"DELEGATION_TYPEHASH()":{"notice":"The EIP-712 typehash for the delegation struct used by the contract"}},"kind":"dev","version":1,"title":"Note ERC20 Token Fork of Compound Comp token at commit hash https://github.com/compound-finance/compound-protocol/commit/9bcff34a5c9c76d51e51bcb0ca1139588362ef96"},"opcodes":"PUSH1 0x80 PUSH1 0x40 MSTORE PUSH1 0x4 CALLDATASIZE LT PUSH2 0x166 JUMPI PUSH1 0x0 CALLDATALOAD PUSH1 0xE0 SHR DUP1 PUSH4 0x6FCFFF45 GT PUSH2 0xD1 JUMPI DUP1 PUSH4 0xA9059CBB GT PUSH2 0x8A JUMPI DUP1 PUSH4 0xDD62ED3E GT PUSH2 0x64 JUMPI DUP1 PUSH4 0xDD62ED3E EQ PUSH2 0x417 JUMPI DUP1 PUSH4 0xE7A324DC EQ PUSH2 0x437 JUMPI DUP1 PUSH4 0xF1127ED8 EQ PUSH2 0x44C JUMPI DUP1 PUSH4 0xF2FDE38B EQ PUSH2 0x47A JUMPI PUSH2 0x166 JUMP JUMPDEST DUP1 PUSH4 0xA9059CBB EQ PUSH2 0x3B7 JUMPI DUP1 PUSH4 0xB4B5EA57 EQ PUSH2 0x3D7 JUMPI DUP1 PUSH4 0xC3CDA520 EQ PUSH2 0x3F7 JUMPI PUSH2 0x166 JUMP JUMPDEST DUP1 PUSH4 0x6FCFFF45 EQ PUSH2 0x2F3 JUMPI DUP1 PUSH4 0x70A08231 EQ PUSH2 0x320 JUMPI DUP1 PUSH4 0x782D6FE1 EQ PUSH2 0x340 JUMPI DUP1 PUSH4 0x7ECEBE00 EQ PUSH2 0x36D JUMPI DUP1 PUSH4 0x8DA5CB5B EQ PUSH2 0x38D JUMPI DUP1 PUSH4 0x95D89B41 EQ PUSH2 0x3A2 JUMPI PUSH2 0x166 JUMP JUMPDEST DUP1 PUSH4 0x313CE567 GT PUSH2 0x123 JUMPI DUP1 PUSH4 0x313CE567 EQ PUSH2 0x23C JUMPI DUP1 PUSH4 0x3659CFE6 EQ PUSH2 0x25E JUMPI DUP1 PUSH4 0x4F1EF286 EQ PUSH2 0x280 JUMPI DUP1 PUSH4 0x587CDE1E EQ PUSH2 0x293 JUMPI DUP1 PUSH4 0x5C19A95C EQ PUSH2 0x2B3 JUMPI DUP1 PUSH4 0x67F5F5A9 EQ PUSH2 0x2D3 JUMPI PUSH2 0x166 JUMP JUMPDEST DUP1 PUSH4 0x6FDDE03 EQ PUSH2 0x16B JUMPI DUP1 PUSH4 0x95EA7B3 EQ PUSH2 0x196 JUMPI DUP1 PUSH4 0xBF6EDC5 EQ PUSH2 0x1C3 JUMPI DUP1 PUSH4 0x18160DDD EQ PUSH2 0x1E5 JUMPI DUP1 PUSH4 0x20606B70 EQ PUSH2 0x207 JUMPI DUP1 PUSH4 0x23B872DD EQ PUSH2 0x21C JUMPI JUMPDEST PUSH1 0x0 DUP1 REVERT JUMPDEST CALLVALUE DUP1 ISZERO PUSH2 0x177 JUMPI PUSH1 0x0 DUP1 REVERT JUMPDEST POP PUSH2 0x180 PUSH2 0x49A JUMP JUMPDEST PUSH1 0x40 MLOAD PUSH2 0x18D SWAP2 SWAP1 PUSH2 0x1FDF JUMP JUMPDEST PUSH1 0x40 MLOAD DUP1 SWAP2 SUB SWAP1 RETURN JUMPDEST CALLVALUE DUP1 ISZERO PUSH2 0x1A2 JUMPI PUSH1 0x0 DUP1 REVERT JUMPDEST POP PUSH2 0x1B6 PUSH2 0x1B1 CALLDATASIZE PUSH1 0x4 PUSH2 0x1DEA JUMP JUMPDEST PUSH2 0x4BE JUMP JUMPDEST PUSH1 0x40 MLOAD PUSH2 0x18D SWAP2 SWAP1 PUSH2 0x1F83 JUMP JUMPDEST CALLVALUE DUP1 ISZERO PUSH2 0x1CF JUMPI PUSH1 0x0 DUP1 REVERT JUMPDEST POP PUSH2 0x1D8 PUSH2 0x586 JUMP JUMPDEST PUSH1 0x40 MLOAD PUSH2 0x18D SWAP2 SWAP1 PUSH2 0x1F6F JUMP JUMPDEST CALLVALUE DUP1 ISZERO PUSH2 0x1F1 JUMPI PUSH1 0x0 DUP1 REVERT JUMPDEST POP PUSH2 0x1FA PUSH2 0x59B JUMP JUMPDEST PUSH1 0x40 MLOAD PUSH2 0x18D SWAP2 SWAP1 PUSH2 0x1F8E JUMP JUMPDEST CALLVALUE DUP1 ISZERO PUSH2 0x213 JUMPI PUSH1 0x0 DUP1 REVERT JUMPDEST POP PUSH2 0x1FA PUSH2 0x5A6 JUMP JUMPDEST CALLVALUE DUP1 ISZERO PUSH2 0x228 JUMPI PUSH1 0x0 DUP1 REVERT JUMPDEST POP PUSH2 0x1B6 PUSH2 0x237 CALLDATASIZE PUSH1 0x4 PUSH2 0x1D07 JUMP JUMPDEST PUSH2 0x5CA JUMP JUMPDEST CALLVALUE DUP1 ISZERO PUSH2 0x248 JUMPI PUSH1 0x0 DUP1 REVERT JUMPDEST POP PUSH2 0x251 PUSH2 0x71A JUMP JUMPDEST PUSH1 0x40 MLOAD PUSH2 0x18D SWAP2 SWAP1 PUSH2 0x2291 JUMP JUMPDEST CALLVALUE DUP1 ISZERO PUSH2 0x26A JUMPI PUSH1 0x0 DUP1 REVERT JUMPDEST POP PUSH2 0x27E PUSH2 0x279 CALLDATASIZE PUSH1 0x4 PUSH2 0x1CBB JUMP JUMPDEST PUSH2 0x71F JUMP JUMPDEST STOP JUMPDEST PUSH2 0x27E PUSH2 0x28E CALLDATASIZE PUSH1 0x4 PUSH2 0x1D42 JUMP JUMPDEST PUSH2 0x746 JUMP JUMPDEST CALLVALUE DUP1 ISZERO PUSH2 0x29F JUMPI PUSH1 0x0 DUP1 REVERT JUMPDEST POP PUSH2 0x1D8 PUSH2 0x2AE CALLDATASIZE PUSH1 0x4 PUSH2 0x1CBB JUMP JUMPDEST PUSH2 0x75F JUMP JUMPDEST CALLVALUE DUP1 ISZERO PUSH2 0x2BF JUMPI PUSH1 0x0 DUP1 REVERT JUMPDEST POP PUSH2 0x27E PUSH2 0x2CE CALLDATASIZE PUSH1 0x4 PUSH2 0x1CBB JUMP JUMPDEST PUSH2 0x77A JUMP JUMPDEST CALLVALUE DUP1 ISZERO PUSH2 0x2DF JUMPI PUSH1 0x0 DUP1 REVERT JUMPDEST POP PUSH2 0x27E PUSH2 0x2EE CALLDATASIZE PUSH1 0x4 PUSH2 0x1EAF JUMP JUMPDEST PUSH2 0x784 JUMP JUMPDEST CALLVALUE DUP1 ISZERO PUSH2 0x2FF JUMPI PUSH1 0x0 DUP1 REVERT JUMPDEST POP PUSH2 0x313 PUSH2 0x30E CALLDATASIZE PUSH1 0x4 PUSH2 0x1CBB JUMP JUMPDEST PUSH2 0xA2E JUMP JUMPDEST PUSH1 0x40 MLOAD PUSH2 0x18D SWAP2 SWAP1 PUSH2 0x2261 JUMP JUMPDEST CALLVALUE DUP1 ISZERO PUSH2 0x32C JUMPI PUSH1 0x0 DUP1 REVERT JUMPDEST POP PUSH2 0x1FA PUSH2 0x33B CALLDATASIZE PUSH1 0x4 PUSH2 0x1CBB JUMP JUMPDEST PUSH2 0xA46 JUMP JUMPDEST CALLVALUE DUP1 ISZERO PUSH2 0x34C JUMPI PUSH1 0x0 DUP1 REVERT JUMPDEST POP PUSH2 0x360 PUSH2 0x35B CALLDATASIZE PUSH1 0x4 PUSH2 0x1DEA JUMP JUMPDEST PUSH2 0xA6E JUMP JUMPDEST PUSH1 0x40 MLOAD PUSH2 0x18D SWAP2 SWAP1 PUSH2 0x229F JUMP JUMPDEST CALLVALUE DUP1 ISZERO PUSH2 0x379 JUMPI PUSH1 0x0 DUP1 REVERT JUMPDEST POP PUSH2 0x1FA PUSH2 0x388 CALLDATASIZE PUSH1 0x4 PUSH2 0x1CBB JUMP JUMPDEST PUSH2 0xC77 JUMP JUMPDEST CALLVALUE DUP1 ISZERO PUSH2 0x399 JUMPI PUSH1 0x0 DUP1 REVERT JUMPDEST POP PUSH2 0x1D8 PUSH2 0xC89 JUMP JUMPDEST CALLVALUE DUP1 ISZERO PUSH2 0x3AE JUMPI PUSH1 0x0 DUP1 REVERT JUMPDEST POP PUSH2 0x180 PUSH2 0xC98 JUMP JUMPDEST CALLVALUE DUP1 ISZERO PUSH2 0x3C3 JUMPI PUSH1 0x0 DUP1 REVERT JUMPDEST POP PUSH2 0x1B6 PUSH2 0x3D2 CALLDATASIZE PUSH1 0x4 PUSH2 0x1DEA JUMP JUMPDEST PUSH2 0xCB8 JUMP JUMPDEST CALLVALUE DUP1 ISZERO PUSH2 0x3E3 JUMPI PUSH1 0x0 DUP1 REVERT JUMPDEST POP PUSH2 0x360 PUSH2 0x3F2 CALLDATASIZE PUSH1 0x4 PUSH2 0x1CBB JUMP JUMPDEST PUSH2 0xCF4 JUMP JUMPDEST CALLVALUE DUP1 ISZERO PUSH2 0x403 JUMPI PUSH1 0x0 DUP1 REVERT JUMPDEST POP PUSH2 0x27E PUSH2 0x412 CALLDATASIZE PUSH1 0x4 PUSH2 0x1E13 JUMP JUMPDEST PUSH2 0xD67 JUMP JUMPDEST CALLVALUE DUP1 ISZERO PUSH2 0x423 JUMPI PUSH1 0x0 DUP1 REVERT JUMPDEST POP PUSH2 0x1FA PUSH2 0x432 CALLDATASIZE PUSH1 0x4 PUSH2 0x1CD5 JUMP JUMPDEST PUSH2 0xF03 JUMP JUMPDEST CALLVALUE DUP1 ISZERO PUSH2 0x443 JUMPI PUSH1 0x0 DUP1 REVERT JUMPDEST POP PUSH2 0x1FA PUSH2 0xF37 JUMP JUMPDEST CALLVALUE DUP1 ISZERO PUSH2 0x458 JUMPI PUSH1 0x0 DUP1 REVERT JUMPDEST POP PUSH2 0x46C PUSH2 0x467 CALLDATASIZE PUSH1 0x4 PUSH2 0x1E71 JUMP JUMPDEST PUSH2 0xF5B JUMP JUMPDEST PUSH1 0x40 MLOAD PUSH2 0x18D SWAP3 SWAP2 SWAP1 PUSH2 0x2272 JUMP JUMPDEST CALLVALUE DUP1 ISZERO PUSH2 0x486 JUMPI PUSH1 0x0 DUP1 REVERT JUMPDEST POP PUSH2 0x27E PUSH2 0x495 CALLDATASIZE PUSH1 0x4 PUSH2 0x1CBB JUMP JUMPDEST PUSH2 0xF90 JUMP JUMPDEST PUSH1 0x40 MLOAD DUP1 PUSH1 0x40 ADD PUSH1 0x40 MSTORE DUP1 PUSH1 0x8 DUP2 MSTORE PUSH1 0x20 ADD PUSH8 0x139BDD1A5BDB985B PUSH1 0xC2 SHL DUP2 MSTORE POP DUP2 JUMP JUMPDEST PUSH1 0x0 DUP1 PUSH1 0x1 PUSH1 0x1 PUSH1 0x60 SHL SUB DUP4 LT PUSH2 0x4DD JUMPI POP PUSH1 0x1 PUSH1 0x1 PUSH1 0x60 SHL SUB PUSH2 0x502 JUMP JUMPDEST PUSH2 0x4FF DUP4 PUSH1 0x40 MLOAD DUP1 PUSH1 0x60 ADD PUSH1 0x40 MSTORE DUP1 PUSH1 0x25 DUP2 MSTORE PUSH1 0x20 ADD PUSH2 0x23A9 PUSH1 0x25 SWAP2 CODECOPY PUSH2 0x1042 JUMP JUMPDEST SWAP1 POP JUMPDEST CALLER PUSH1 0x0 DUP2 DUP2 MSTORE PUSH1 0x1 PUSH1 0x20 SWAP1 DUP2 MSTORE PUSH1 0x40 DUP1 DUP4 KECCAK256 PUSH1 0x1 PUSH1 0x1 PUSH1 0xA0 SHL SUB DUP10 AND DUP1 DUP6 MSTORE SWAP3 MSTORE SWAP2 DUP3 SWAP1 KECCAK256 DUP1 SLOAD PUSH1 0x1 PUSH1 0x1 PUSH1 0x60 SHL SUB NOT AND PUSH1 0x1 PUSH1 0x1 PUSH1 0x60 SHL SUB DUP7 AND OR SWAP1 SSTORE SWAP1 MLOAD SWAP1 SWAP2 SWAP1 PUSH32 0x8C5BE1E5EBEC7D5BD14F71427D1E84F3DD0314C0F7B2291E5B200AC8C7C3B925 SWAP1 PUSH2 0x572 SWAP1 DUP6 SWAP1 PUSH2 0x229F JUMP JUMPDEST PUSH1 0x40 MLOAD DUP1 SWAP2 SUB SWAP1 LOG3 PUSH1 0x1 SWAP2 POP POP JUMPDEST SWAP3 SWAP2 POP POP JUMP JUMPDEST PUSH1 0x0 SLOAD PUSH3 0x10000 SWAP1 DIV PUSH1 0x1 PUSH1 0x1 PUSH1 0xA0 SHL SUB AND DUP2 JUMP JUMPDEST PUSH7 0x2386F26FC10000 DUP2 JUMP JUMPDEST PUSH32 0x8CAD95687BA82C2CE50E74F7B754645E5117C3A5BEC8151C0726D5857980A866 DUP2 JUMP JUMPDEST PUSH1 0x0 DUP2 PUSH2 0x625 JUMPI DUP3 PUSH1 0x1 PUSH1 0x1 PUSH1 0xA0 SHL SUB AND DUP5 PUSH1 0x1 PUSH1 0x1 PUSH1 0xA0 SHL SUB AND PUSH32 0xDDF252AD1BE2C89B69C2B068FC378DAA952BA7F163C4A11628F55A4DF523B3EF PUSH1 0x0 PUSH1 0x40 MLOAD PUSH2 0x615 SWAP2 SWAP1 PUSH2 0x1F8E JUMP JUMPDEST PUSH1 0x40 MLOAD DUP1 SWAP2 SUB SWAP1 LOG3 POP PUSH1 0x1 PUSH2 0x713 JUMP JUMPDEST PUSH1 0x1 PUSH1 0x1 PUSH1 0xA0 SHL SUB DUP5 AND PUSH1 0x0 SWAP1 DUP2 MSTORE PUSH1 0x1 PUSH1 0x20 SWAP1 DUP2 MSTORE PUSH1 0x40 DUP1 DUP4 KECCAK256 CALLER DUP1 DUP6 MSTORE SWAP1 DUP4 MSTORE DUP2 DUP5 KECCAK256 SLOAD DUP3 MLOAD PUSH1 0x60 DUP2 ADD SWAP1 SWAP4 MSTORE PUSH1 0x25 DUP1 DUP5 MSTORE SWAP2 SWAP5 PUSH1 0x1 PUSH1 0x1 PUSH1 0x60 SHL SUB SWAP1 SWAP2 AND SWAP4 SWAP1 SWAP3 PUSH2 0x67B SWAP3 DUP9 SWAP3 PUSH2 0x23A9 SWAP1 DUP4 ADD CODECOPY PUSH2 0x1042 JUMP JUMPDEST SWAP1 POP DUP7 PUSH1 0x1 PUSH1 0x1 PUSH1 0xA0 SHL SUB AND DUP4 PUSH1 0x1 PUSH1 0x1 PUSH1 0xA0 SHL SUB AND EQ PUSH2 0x700 JUMPI PUSH1 0x0 PUSH2 0x6BB DUP4 DUP4 PUSH1 0x40 MLOAD DUP1 PUSH1 0x60 ADD PUSH1 0x40 MSTORE DUP1 PUSH1 0x3D DUP2 MSTORE PUSH1 0x20 ADD PUSH2 0x22CE PUSH1 0x3D SWAP2 CODECOPY PUSH2 0x1075 JUMP JUMPDEST PUSH1 0x1 PUSH1 0x1 PUSH1 0xA0 SHL SUB DUP10 DUP2 AND PUSH1 0x0 SWAP1 DUP2 MSTORE PUSH1 0x1 PUSH1 0x20 SWAP1 DUP2 MSTORE PUSH1 0x40 DUP1 DUP4 KECCAK256 SWAP4 DUP10 AND DUP4 MSTORE SWAP3 SWAP1 MSTORE KECCAK256 DUP1 SLOAD PUSH1 0x1 PUSH1 0x1 PUSH1 0x60 SHL SUB NOT AND PUSH1 0x1 PUSH1 0x1 PUSH1 0x60 SHL SUB SWAP3 SWAP1 SWAP3 AND SWAP2 SWAP1 SWAP2 OR SWAP1 SSTORE POP JUMPDEST PUSH2 0x70B DUP8 DUP8 DUP4 PUSH2 0x10B4 JUMP JUMPDEST PUSH1 0x1 SWAP4 POP POP POP POP JUMPDEST SWAP4 SWAP3 POP POP POP JUMP JUMPDEST PUSH1 0x8 DUP2 JUMP JUMPDEST PUSH2 0x728 DUP2 PUSH2 0x125F JUMP JUMPDEST PUSH2 0x743 DUP2 PUSH1 0x40 MLOAD DUP1 PUSH1 0x20 ADD PUSH1 0x40 MSTORE DUP1 PUSH1 0x0 DUP2 MSTORE POP PUSH1 0x0 PUSH2 0x1289 JUMP JUMPDEST POP JUMP JUMPDEST PUSH2 0x74F DUP3 PUSH2 0x125F JUMP JUMPDEST PUSH2 0x75B DUP3 DUP3 PUSH1 0x1 PUSH2 0x1289 JUMP JUMPDEST POP POP JUMP JUMPDEST PUSH1 0x3 PUSH1 0x20 MSTORE PUSH1 0x0 SWAP1 DUP2 MSTORE PUSH1 0x40 SWAP1 KECCAK256 SLOAD PUSH1 0x1 PUSH1 0x1 PUSH1 0xA0 SHL SUB AND DUP2 JUMP JUMPDEST PUSH2 0x743 CALLER DUP3 PUSH2 0x13BC JUMP JUMPDEST PUSH1 0x0 SLOAD PUSH2 0x100 SWAP1 DIV PUSH1 0xFF AND DUP1 PUSH2 0x79D JUMPI POP PUSH2 0x79D PUSH2 0x1446 JUMP JUMPDEST DUP1 PUSH2 0x7AB JUMPI POP PUSH1 0x0 SLOAD PUSH1 0xFF AND ISZERO JUMPDEST PUSH2 0x7E6 JUMPI PUSH1 0x40 MLOAD PUSH3 0x461BCD PUSH1 0xE5 SHL DUP2 MSTORE PUSH1 0x4 ADD DUP1 DUP1 PUSH1 0x20 ADD DUP3 DUP2 SUB DUP3 MSTORE PUSH1 0x2E DUP2 MSTORE PUSH1 0x20 ADD DUP1 PUSH2 0x2432 PUSH1 0x2E SWAP2 CODECOPY PUSH1 0x40 ADD SWAP2 POP POP PUSH1 0x40 MLOAD DUP1 SWAP2 SUB SWAP1 REVERT JUMPDEST PUSH1 0x0 SLOAD PUSH2 0x100 SWAP1 DIV PUSH1 0xFF AND ISZERO DUP1 ISZERO PUSH2 0x811 JUMPI PUSH1 0x0 DUP1 SLOAD PUSH1 0xFF NOT PUSH2 0xFF00 NOT SWAP1 SWAP2 AND PUSH2 0x100 OR AND PUSH1 0x1 OR SWAP1 SSTORE JUMPDEST DUP3 DUP6 EQ PUSH2 0x81D JUMPI PUSH1 0x0 DUP1 REVERT JUMPDEST PUSH1 0x0 DUP1 JUMPDEST DUP5 DUP2 LT ISZERO PUSH2 0x9DB JUMPI PUSH2 0x863 DUP3 DUP8 DUP8 DUP5 DUP2 DUP2 LT PUSH2 0x839 JUMPI INVALID JUMPDEST SWAP1 POP PUSH1 0x20 MUL ADD PUSH1 0x20 DUP2 ADD SWAP1 PUSH2 0x84E SWAP2 SWAP1 PUSH2 0x1F2D JUMP JUMPDEST PUSH1 0x40 MLOAD DUP1 PUSH1 0x20 ADD PUSH1 0x40 MSTORE DUP1 PUSH1 0x0 DUP2 MSTORE POP PUSH2 0x1457 JUMP JUMPDEST SWAP2 POP PUSH1 0x2 PUSH1 0x0 DUP10 DUP10 DUP5 DUP2 DUP2 LT PUSH2 0x875 JUMPI INVALID JUMPDEST SWAP1 POP PUSH1 0x20 MUL ADD PUSH1 0x20 DUP2 ADD SWAP1 PUSH2 0x88A SWAP2 SWAP1 PUSH2 0x1CBB JUMP JUMPDEST PUSH1 0x1 PUSH1 0x1 PUSH1 0xA0 SHL SUB AND DUP2 MSTORE PUSH1 0x20 DUP2 ADD SWAP2 SWAP1 SWAP2 MSTORE PUSH1 0x40 ADD PUSH1 0x0 KECCAK256 SLOAD PUSH1 0x1 PUSH1 0x1 PUSH1 0x60 SHL SUB AND ISZERO PUSH2 0x8D3 JUMPI PUSH1 0x40 MLOAD PUSH3 0x461BCD PUSH1 0xE5 SHL DUP2 MSTORE PUSH1 0x4 ADD PUSH2 0x8CA SWAP1 PUSH2 0x21F0 JUMP JUMPDEST PUSH1 0x40 MLOAD DUP1 SWAP2 SUB SWAP1 REVERT JUMPDEST DUP6 DUP6 DUP3 DUP2 DUP2 LT PUSH2 0x8DF JUMPI INVALID JUMPDEST SWAP1 POP PUSH1 0x20 MUL ADD PUSH1 0x20 DUP2 ADD SWAP1 PUSH2 0x8F4 SWAP2 SWAP1 PUSH2 0x1F2D JUMP JUMPDEST PUSH1 0x2 PUSH1 0x0 DUP11 DUP11 DUP6 DUP2 DUP2 LT PUSH2 0x904 JUMPI INVALID JUMPDEST SWAP1 POP PUSH1 0x20 MUL ADD PUSH1 0x20 DUP2 ADD SWAP1 PUSH2 0x919 SWAP2 SWAP1 PUSH2 0x1CBB JUMP JUMPDEST PUSH1 0x1 PUSH1 0x1 PUSH1 0xA0 SHL SUB AND DUP2 MSTORE PUSH1 0x20 DUP2 ADD SWAP2 SWAP1 SWAP2 MSTORE PUSH1 0x40 ADD PUSH1 0x0 KECCAK256 DUP1 SLOAD PUSH1 0x1 PUSH1 0x1 PUSH1 0x60 SHL SUB NOT AND PUSH1 0x1 PUSH1 0x1 PUSH1 0x60 SHL SUB SWAP3 SWAP1 SWAP3 AND SWAP2 SWAP1 SWAP2 OR SWAP1 SSTORE DUP8 DUP8 DUP3 DUP2 DUP2 LT PUSH2 0x95C JUMPI INVALID JUMPDEST SWAP1 POP PUSH1 0x20 MUL ADD PUSH1 0x20 DUP2 ADD SWAP1 PUSH2 0x971 SWAP2 SWAP1 PUSH2 0x1CBB JUMP JUMPDEST PUSH1 0x1 PUSH1 0x1 PUSH1 0xA0 SHL SUB AND PUSH1 0x0 PUSH32 0xDDF252AD1BE2C89B69C2B068FC378DAA952BA7F163C4A11628F55A4DF523B3EF DUP9 DUP9 DUP6 DUP2 DUP2 LT PUSH2 0x9A9 JUMPI INVALID JUMPDEST SWAP1 POP PUSH1 0x20 MUL ADD PUSH1 0x20 DUP2 ADD SWAP1 PUSH2 0x9BE SWAP2 SWAP1 PUSH2 0x1F2D JUMP JUMPDEST PUSH1 0x40 MLOAD PUSH2 0x9CB SWAP2 SWAP1 PUSH2 0x229F JUMP JUMPDEST PUSH1 0x40 MLOAD DUP1 SWAP2 SUB SWAP1 LOG3 PUSH1 0x1 ADD PUSH2 0x821 JUMP JUMPDEST POP PUSH7 0x2386F26FC10000 DUP2 PUSH1 0x1 PUSH1 0x1 PUSH1 0x60 SHL SUB AND EQ PUSH2 0x9F8 JUMPI PUSH1 0x0 DUP1 REVERT JUMPDEST POP PUSH1 0x7 DUP1 SLOAD PUSH1 0x1 PUSH1 0x1 PUSH1 0xA0 SHL SUB NOT AND PUSH1 0x1 PUSH1 0x1 PUSH1 0xA0 SHL SUB DUP5 AND OR SWAP1 SSTORE DUP1 ISZERO PUSH2 0xA26 JUMPI PUSH1 0x0 DUP1 SLOAD PUSH2 0xFF00 NOT AND SWAP1 SSTORE JUMPDEST POP POP POP POP POP POP JUMP JUMPDEST PUSH1 0x5 PUSH1 0x20 MSTORE PUSH1 0x0 SWAP1 DUP2 MSTORE PUSH1 0x40 SWAP1 KECCAK256 SLOAD PUSH4 0xFFFFFFFF AND DUP2 JUMP JUMPDEST PUSH1 0x1 PUSH1 0x1 PUSH1 0xA0 SHL SUB DUP2 AND PUSH1 0x0 SWAP1 DUP2 MSTORE PUSH1 0x2 PUSH1 0x20 MSTORE PUSH1 0x40 SWAP1 KECCAK256 SLOAD PUSH1 0x1 PUSH1 0x1 PUSH1 0x60 SHL SUB AND JUMPDEST SWAP2 SWAP1 POP JUMP JUMPDEST PUSH1 0x0 NUMBER DUP3 LT PUSH2 0xA8F JUMPI PUSH1 0x40 MLOAD PUSH3 0x461BCD PUSH1 0xE5 SHL DUP2 MSTORE PUSH1 0x4 ADD PUSH2 0x8CA SWAP1 PUSH2 0x2032 JUMP JUMPDEST PUSH1 0x1 PUSH1 0x1 PUSH1 0xA0 SHL SUB DUP4 AND PUSH1 0x0 SWAP1 DUP2 MSTORE PUSH1 0x5 PUSH1 0x20 MSTORE PUSH1 0x40 SWAP1 KECCAK256 SLOAD PUSH4 0xFFFFFFFF AND DUP1 PUSH2 0xABD JUMPI PUSH1 0x0 SWAP2 POP POP PUSH2 0x580 JUMP JUMPDEST PUSH1 0x1 PUSH1 0x1 PUSH1 0xA0 SHL SUB DUP5 AND PUSH1 0x0 SWAP1 DUP2 MSTORE PUSH1 0x4 PUSH1 0x20 SWAP1 DUP2 MSTORE PUSH1 0x40 DUP1 DUP4 KECCAK256 PUSH4 0xFFFFFFFF PUSH1 0x0 NOT DUP7 ADD DUP2 AND DUP6 MSTORE SWAP3 MSTORE SWAP1 SWAP2 KECCAK256 SLOAD AND DUP4 LT PUSH2 0xB39 JUMPI PUSH1 0x1 PUSH1 0x1 PUSH1 0xA0 SHL SUB DUP5 AND PUSH1 0x0 SWAP1 DUP2 MSTORE PUSH1 0x4 PUSH1 0x20 SWAP1 DUP2 MSTORE PUSH1 0x40 DUP1 DUP4 KECCAK256 PUSH1 0x0 NOT SWAP5 SWAP1 SWAP5 ADD PUSH4 0xFFFFFFFF AND DUP4 MSTORE SWAP3 SWAP1 MSTORE KECCAK256 SLOAD PUSH1 0x1 PUSH1 0x20 SHL SWAP1 DIV PUSH1 0x1 PUSH1 0x1 PUSH1 0x60 SHL SUB AND SWAP1 POP PUSH2 0x580 JUMP JUMPDEST PUSH1 0x1 PUSH1 0x1 PUSH1 0xA0 SHL SUB DUP5 AND PUSH1 0x0 SWAP1 DUP2 MSTORE PUSH1 0x4 PUSH1 0x20 SWAP1 DUP2 MSTORE PUSH1 0x40 DUP1 DUP4 KECCAK256 DUP4 DUP1 MSTORE SWAP1 SWAP2 MSTORE SWAP1 KECCAK256 SLOAD PUSH4 0xFFFFFFFF AND DUP4 LT ISZERO PUSH2 0xB74 JUMPI PUSH1 0x0 SWAP2 POP POP PUSH2 0x580 JUMP JUMPDEST PUSH1 0x0 PUSH1 0x0 NOT DUP3 ADD JUMPDEST DUP2 PUSH4 0xFFFFFFFF AND DUP2 PUSH4 0xFFFFFFFF AND GT ISZERO PUSH2 0xC32 JUMPI PUSH1 0x0 PUSH1 0x2 PUSH4 0xFFFFFFFF DUP5 DUP5 SUB AND PUSH1 0x1 PUSH1 0x1 PUSH1 0xA0 SHL SUB DUP10 AND PUSH1 0x0 SWAP1 DUP2 MSTORE PUSH1 0x4 PUSH1 0x20 SWAP1 DUP2 MSTORE PUSH1 0x40 DUP1 DUP4 KECCAK256 SWAP5 SWAP1 SWAP4 DIV DUP7 SUB PUSH4 0xFFFFFFFF DUP2 DUP2 AND DUP5 MSTORE SWAP5 DUP3 MSTORE SWAP2 DUP4 SWAP1 KECCAK256 DUP4 MLOAD DUP1 DUP6 ADD SWAP1 SWAP5 MSTORE SLOAD SWAP4 DUP5 AND DUP1 DUP5 MSTORE PUSH1 0x1 PUSH1 0x20 SHL SWAP1 SWAP5 DIV PUSH1 0x1 PUSH1 0x1 PUSH1 0x60 SHL SUB AND SWAP1 DUP4 ADD MSTORE SWAP3 POP SWAP1 DUP8 EQ ISZERO PUSH2 0xC0D JUMPI PUSH1 0x20 ADD MLOAD SWAP5 POP PUSH2 0x580 SWAP4 POP POP POP POP JUMP JUMPDEST DUP1 MLOAD PUSH4 0xFFFFFFFF AND DUP8 GT ISZERO PUSH2 0xC24 JUMPI DUP2 SWAP4 POP PUSH2 0xC2B JUMP JUMPDEST PUSH1 0x1 DUP3 SUB SWAP3 POP JUMPDEST POP POP PUSH2 0xB7C JUMP JUMPDEST POP PUSH1 0x1 PUSH1 0x1 PUSH1 0xA0 SHL SUB DUP6 AND PUSH1 0x0 SWAP1 DUP2 MSTORE PUSH1 0x4 PUSH1 0x20 SWAP1 DUP2 MSTORE PUSH1 0x40 DUP1 DUP4 KECCAK256 PUSH4 0xFFFFFFFF SWAP1 SWAP5 AND DUP4 MSTORE SWAP3 SWAP1 MSTORE KECCAK256 SLOAD PUSH1 0x1 PUSH1 0x1 PUSH1 0x60 SHL SUB PUSH1 0x1 PUSH1 0x20 SHL SWAP1 SWAP2 DIV AND SWAP2 POP POP SWAP3 SWAP2 POP POP JUMP JUMPDEST PUSH1 0x6 PUSH1 0x20 MSTORE PUSH1 0x0 SWAP1 DUP2 MSTORE PUSH1 0x40 SWAP1 KECCAK256 SLOAD DUP2 JUMP JUMPDEST PUSH1 0x7 SLOAD PUSH1 0x1 PUSH1 0x1 PUSH1 0xA0 SHL SUB AND DUP2 JUMP JUMPDEST PUSH1 0x40 MLOAD DUP1 PUSH1 0x40 ADD PUSH1 0x40 MSTORE DUP1 PUSH1 0x4 DUP2 MSTORE PUSH1 0x20 ADD PUSH4 0x4E4F5445 PUSH1 0xE0 SHL DUP2 MSTORE POP DUP2 JUMP JUMPDEST PUSH1 0x0 DUP1 PUSH2 0xCDD DUP4 PUSH1 0x40 MLOAD DUP1 PUSH1 0x60 ADD PUSH1 0x40 MSTORE DUP1 PUSH1 0x26 DUP2 MSTORE PUSH1 0x20 ADD PUSH2 0x230B PUSH1 0x26 SWAP2 CODECOPY PUSH2 0x1042 JUMP JUMPDEST SWAP1 POP PUSH2 0xCEA CALLER DUP6 DUP4 PUSH2 0x10B4 JUMP JUMPDEST POP PUSH1 0x1 SWAP4 SWAP3 POP POP POP JUMP JUMPDEST PUSH1 0x1 PUSH1 0x1 PUSH1 0xA0 SHL SUB DUP2 AND PUSH1 0x0 SWAP1 DUP2 MSTORE PUSH1 0x5 PUSH1 0x20 MSTORE PUSH1 0x40 DUP2 KECCAK256 SLOAD PUSH4 0xFFFFFFFF AND DUP2 DUP2 PUSH2 0xD20 JUMPI PUSH1 0x0 PUSH2 0xD5F JUMP JUMPDEST PUSH1 0x1 PUSH1 0x1 PUSH1 0xA0 SHL SUB DUP5 AND PUSH1 0x0 SWAP1 DUP2 MSTORE PUSH1 0x4 PUSH1 0x20 SWAP1 DUP2 MSTORE PUSH1 0x40 DUP1 DUP4 KECCAK256 PUSH1 0x0 NOT DUP7 ADD PUSH4 0xFFFFFFFF AND DUP5 MSTORE SWAP1 SWAP2 MSTORE SWAP1 KECCAK256 SLOAD PUSH1 0x1 PUSH1 0x20 SHL SWAP1 DIV PUSH1 0x1 PUSH1 0x1 PUSH1 0x60 SHL SUB AND JUMPDEST SWAP5 SWAP4 POP POP POP POP JUMP JUMPDEST DUP4 TIMESTAMP GT ISZERO PUSH2 0xD87 JUMPI PUSH1 0x40 MLOAD PUSH3 0x461BCD PUSH1 0xE5 SHL DUP2 MSTORE PUSH1 0x4 ADD PUSH2 0x8CA SWAP1 PUSH2 0x221B JUMP JUMPDEST PUSH1 0x40 DUP1 MLOAD DUP1 DUP3 ADD SWAP1 SWAP2 MSTORE PUSH1 0x8 DUP2 MSTORE PUSH8 0x139BDD1A5BDB985B PUSH1 0xC2 SHL PUSH1 0x20 SWAP1 SWAP2 ADD MSTORE PUSH1 0x0 PUSH32 0x8CAD95687BA82C2CE50E74F7B754645E5117C3A5BEC8151C0726D5857980A866 PUSH32 0x20F87700A518C9822D66E3293FF0098BFCCF560AECA4EFB5CE1808FE1690C351 PUSH2 0xDF3 PUSH2 0x1493 JUMP JUMPDEST ADDRESS PUSH1 0x40 MLOAD PUSH1 0x20 ADD PUSH2 0xE07 SWAP5 SWAP4 SWAP3 SWAP2 SWAP1 PUSH2 0x1FBB JUMP JUMPDEST PUSH1 0x40 MLOAD PUSH1 0x20 DUP2 DUP4 SUB SUB DUP2 MSTORE SWAP1 PUSH1 0x40 MSTORE DUP1 MLOAD SWAP1 PUSH1 0x20 ADD KECCAK256 SWAP1 POP PUSH1 0x0 PUSH32 0xE48329057BFD03D55E49B547132E39CFFD9C1820AD7B9D4C5307691425D15ADF DUP9 DUP9 DUP9 PUSH1 0x40 MLOAD PUSH1 0x20 ADD PUSH2 0xE58 SWAP5 SWAP4 SWAP3 SWAP2 SWAP1 PUSH2 0x1F97 JUMP JUMPDEST PUSH1 0x40 MLOAD PUSH1 0x20 DUP2 DUP4 SUB SUB DUP2 MSTORE SWAP1 PUSH1 0x40 MSTORE DUP1 MLOAD SWAP1 PUSH1 0x20 ADD KECCAK256 SWAP1 POP PUSH1 0x0 DUP3 DUP3 PUSH1 0x40 MLOAD PUSH1 0x20 ADD PUSH2 0xE85 SWAP3 SWAP2 SWAP1 PUSH2 0x1F54 JUMP JUMPDEST PUSH1 0x40 MLOAD PUSH1 0x20 DUP2 DUP4 SUB SUB DUP2 MSTORE SWAP1 PUSH1 0x40 MSTORE DUP1 MLOAD SWAP1 PUSH1 0x20 ADD KECCAK256 SWAP1 POP PUSH1 0x0 PUSH2 0xEAB DUP3 DUP9 DUP9 DUP9 PUSH2 0x1497 JUMP JUMPDEST PUSH1 0x1 PUSH1 0x1 PUSH1 0xA0 SHL SUB DUP2 AND PUSH1 0x0 SWAP1 DUP2 MSTORE PUSH1 0x6 PUSH1 0x20 MSTORE PUSH1 0x40 SWAP1 KECCAK256 DUP1 SLOAD PUSH1 0x1 DUP2 ADD SWAP1 SWAP2 SSTORE SWAP1 SWAP2 POP DUP10 EQ PUSH2 0xEED JUMPI PUSH1 0x40 MLOAD PUSH3 0x461BCD PUSH1 0xE5 SHL DUP2 MSTORE PUSH1 0x4 ADD PUSH2 0x8CA SWAP1 PUSH2 0x21AE JUMP JUMPDEST PUSH2 0xEF7 DUP2 DUP12 PUSH2 0x13BC JUMP JUMPDEST POP POP POP POP POP POP POP POP POP POP JUMP JUMPDEST PUSH1 0x1 PUSH1 0x1 PUSH1 0xA0 SHL SUB SWAP2 DUP3 AND PUSH1 0x0 SWAP1 DUP2 MSTORE PUSH1 0x1 PUSH1 0x20 SWAP1 DUP2 MSTORE PUSH1 0x40 DUP1 DUP4 KECCAK256 SWAP4 SWAP1 SWAP5 AND DUP3 MSTORE SWAP2 SWAP1 SWAP2 MSTORE KECCAK256 SLOAD PUSH1 0x1 PUSH1 0x1 PUSH1 0x60 SHL SUB AND SWAP1 JUMP JUMPDEST PUSH32 0xE48329057BFD03D55E49B547132E39CFFD9C1820AD7B9D4C5307691425D15ADF DUP2 JUMP JUMPDEST PUSH1 0x4 PUSH1 0x20 SWAP1 DUP2 MSTORE PUSH1 0x0 SWAP3 DUP4 MSTORE PUSH1 0x40 DUP1 DUP5 KECCAK256 SWAP1 SWAP2 MSTORE SWAP1 DUP3 MSTORE SWAP1 KECCAK256 SLOAD PUSH4 0xFFFFFFFF DUP2 AND SWAP1 PUSH1 0x1 PUSH1 0x20 SHL SWAP1 DIV PUSH1 0x1 PUSH1 0x1 PUSH1 0x60 SHL SUB AND DUP3 JUMP JUMPDEST PUSH1 0x7 SLOAD PUSH1 0x1 PUSH1 0x1 PUSH1 0xA0 SHL SUB AND CALLER EQ PUSH2 0xFBA JUMPI PUSH1 0x40 MLOAD PUSH3 0x461BCD PUSH1 0xE5 SHL DUP2 MSTORE PUSH1 0x4 ADD PUSH2 0x8CA SWAP1 PUSH2 0x2179 JUMP JUMPDEST PUSH1 0x1 PUSH1 0x1 PUSH1 0xA0 SHL SUB DUP2 AND PUSH2 0xFE0 JUMPI PUSH1 0x40 MLOAD PUSH3 0x461BCD PUSH1 0xE5 SHL DUP2 MSTORE PUSH1 0x4 ADD PUSH2 0x8CA SWAP1 PUSH2 0x2079 JUMP JUMPDEST PUSH1 0x7 SLOAD PUSH1 0x40 MLOAD PUSH1 0x1 PUSH1 0x1 PUSH1 0xA0 SHL SUB DUP1 DUP5 AND SWAP3 AND SWAP1 PUSH32 0x8BE0079C531659141344CD1FD0A4F28419497F9722A3DAAFE3B4186F6B6457E0 SWAP1 PUSH1 0x0 SWAP1 LOG3 PUSH1 0x7 DUP1 SLOAD PUSH1 0x1 PUSH1 0x1 PUSH1 0xA0 SHL SUB NOT AND PUSH1 0x1 PUSH1 0x1 PUSH1 0xA0 SHL SUB SWAP3 SWAP1 SWAP3 AND SWAP2 SWAP1 SWAP2 OR SWAP1 SSTORE JUMP JUMPDEST EXTCODESIZE ISZERO ISZERO SWAP1 JUMP JUMPDEST PUSH1 0x0 DUP2 PUSH1 0x1 PUSH1 0x1 PUSH1 0x60 SHL SUB DUP5 GT ISZERO PUSH2 0x106D JUMPI PUSH1 0x40 MLOAD PUSH3 0x461BCD PUSH1 0xE5 SHL DUP2 MSTORE PUSH1 0x4 ADD PUSH2 0x8CA SWAP2 SWAP1 PUSH2 0x1FDF JUMP JUMPDEST POP SWAP2 SWAP3 SWAP2 POP POP JUMP JUMPDEST PUSH1 0x0 DUP4 PUSH1 0x1 PUSH1 0x1 PUSH1 0x60 SHL SUB AND DUP4 PUSH1 0x1 PUSH1 0x1 PUSH1 0x60 SHL SUB AND GT ISZERO DUP3 SWAP1 PUSH2 0x10AC JUMPI PUSH1 0x40 MLOAD PUSH3 0x461BCD PUSH1 0xE5 SHL DUP2 MSTORE PUSH1 0x4 ADD PUSH2 0x8CA SWAP2 SWAP1 PUSH2 0x1FDF JUMP JUMPDEST POP POP POP SWAP1 SUB SWAP1 JUMP JUMPDEST PUSH1 0x1 PUSH1 0x1 PUSH1 0xA0 SHL SUB DUP4 AND PUSH2 0x10DA JUMPI PUSH1 0x40 MLOAD PUSH3 0x461BCD PUSH1 0xE5 SHL DUP2 MSTORE PUSH1 0x4 ADD PUSH2 0x8CA SWAP1 PUSH2 0x20BF JUMP JUMPDEST PUSH1 0x1 PUSH1 0x1 PUSH1 0xA0 SHL SUB DUP3 AND PUSH2 0x1100 JUMPI PUSH1 0x40 MLOAD PUSH3 0x461BCD PUSH1 0xE5 SHL DUP2 MSTORE PUSH1 0x4 ADD PUSH2 0x8CA SWAP1 PUSH2 0x211C JUMP JUMPDEST PUSH1 0x1 PUSH1 0x1 PUSH1 0xA0 SHL SUB DUP4 AND PUSH1 0x0 SWAP1 DUP2 MSTORE PUSH1 0x2 PUSH1 0x20 SWAP1 DUP2 MSTORE PUSH1 0x40 SWAP2 DUP3 SWAP1 KECCAK256 SLOAD DUP3 MLOAD PUSH1 0x60 DUP2 ADD SWAP1 SWAP4 MSTORE PUSH1 0x36 DUP1 DUP5 MSTORE PUSH2 0x114B SWAP4 PUSH1 0x1 PUSH1 0x1 PUSH1 0x60 SHL SUB SWAP1 SWAP3 AND SWAP3 DUP6 SWAP3 SWAP2 SWAP1 PUSH2 0x24FD SWAP1 DUP4 ADD CODECOPY PUSH2 0x1075 JUMP JUMPDEST PUSH1 0x1 PUSH1 0x1 PUSH1 0xA0 SHL SUB DUP5 DUP2 AND PUSH1 0x0 SWAP1 DUP2 MSTORE PUSH1 0x2 PUSH1 0x20 SWAP1 DUP2 MSTORE PUSH1 0x40 DUP1 DUP4 KECCAK256 DUP1 SLOAD PUSH1 0x1 PUSH1 0x1 PUSH1 0x60 SHL SUB NOT AND PUSH1 0x1 PUSH1 0x1 PUSH1 0x60 SHL SUB SWAP7 DUP8 AND OR SWAP1 SSTORE SWAP3 DUP7 AND DUP3 MSTORE SWAP1 DUP3 SWAP1 KECCAK256 SLOAD DUP3 MLOAD PUSH1 0x60 DUP2 ADD SWAP1 SWAP4 MSTORE PUSH1 0x30 DUP1 DUP5 MSTORE PUSH2 0x11B3 SWAP5 SWAP2 SWAP1 SWAP2 AND SWAP3 DUP6 SWAP3 SWAP1 SWAP2 SWAP1 PUSH2 0x23CE SWAP1 DUP4 ADD CODECOPY PUSH2 0x1457 JUMP JUMPDEST PUSH1 0x1 PUSH1 0x1 PUSH1 0xA0 SHL SUB DUP4 DUP2 AND PUSH1 0x0 DUP2 DUP2 MSTORE PUSH1 0x2 PUSH1 0x20 MSTORE PUSH1 0x40 SWAP1 DUP2 SWAP1 KECCAK256 DUP1 SLOAD PUSH1 0x1 PUSH1 0x1 PUSH1 0x60 SHL SUB NOT AND PUSH1 0x1 PUSH1 0x1 PUSH1 0x60 SHL SUB SWAP6 SWAP1 SWAP6 AND SWAP5 SWAP1 SWAP5 OR SWAP1 SWAP4 SSTORE SWAP2 MLOAD SWAP1 DUP6 AND SWAP1 PUSH32 0xDDF252AD1BE2C89B69C2B068FC378DAA952BA7F163C4A11628F55A4DF523B3EF SWAP1 PUSH2 0x1220 SWAP1 DUP6 SWAP1 PUSH2 0x229F JUMP JUMPDEST PUSH1 0x40 MLOAD DUP1 SWAP2 SUB SWAP1 LOG3 PUSH1 0x1 PUSH1 0x1 PUSH1 0xA0 SHL SUB DUP1 DUP5 AND PUSH1 0x0 SWAP1 DUP2 MSTORE PUSH1 0x3 PUSH1 0x20 MSTORE PUSH1 0x40 DUP1 DUP3 KECCAK256 SLOAD DUP6 DUP5 AND DUP4 MSTORE SWAP2 KECCAK256 SLOAD PUSH2 0x125A SWAP3 SWAP2 DUP3 AND SWAP2 AND DUP4 PUSH2 0x1615 JUMP JUMPDEST POP POP POP JUMP JUMPDEST PUSH1 0x7 SLOAD PUSH1 0x1 PUSH1 0x1 PUSH1 0xA0 SHL SUB AND CALLER EQ PUSH2 0x743 JUMPI PUSH1 0x40 MLOAD PUSH3 0x461BCD PUSH1 0xE5 SHL DUP2 MSTORE PUSH1 0x4 ADD PUSH2 0x8CA SWAP1 PUSH2 0x2179 JUMP JUMPDEST PUSH1 0x0 PUSH2 0x1293 PUSH2 0x17A7 JUMP JUMPDEST SWAP1 POP PUSH2 0x129E DUP5 PUSH2 0x17E1 JUMP JUMPDEST PUSH1 0x0 DUP4 MLOAD GT DUP1 PUSH2 0x12AB JUMPI POP DUP2 JUMPDEST ISZERO PUSH2 0x12BC JUMPI PUSH2 0x12BA DUP5 DUP5 PUSH2 0x1870 JUMP JUMPDEST POP JUMPDEST PUSH1 0x0 PUSH2 0x12E7 PUSH32 0x4910FDFA16FED3260ED0E7147F7CC6DA11A60208B5B9406D12A635614FFD9143 PUSH2 0x1895 JUMP JUMPDEST DUP1 SLOAD SWAP1 SWAP2 POP PUSH1 0xFF AND PUSH2 0x13B5 JUMPI DUP1 SLOAD PUSH1 0xFF NOT AND PUSH1 0x1 OR DUP2 SSTORE PUSH1 0x40 DUP1 MLOAD PUSH1 0x1 PUSH1 0x1 PUSH1 0xA0 SHL SUB DUP5 AND PUSH1 0x24 DUP1 DUP4 ADD SWAP2 SWAP1 SWAP2 MSTORE DUP3 MLOAD DUP1 DUP4 SUB SWAP1 SWAP2 ADD DUP2 MSTORE PUSH1 0x44 SWAP1 SWAP2 ADD SWAP1 SWAP2 MSTORE PUSH1 0x20 DUP2 ADD DUP1 MLOAD PUSH1 0x1 PUSH1 0x1 PUSH1 0xE0 SHL SUB AND PUSH4 0x1B2CE7F3 PUSH1 0xE1 SHL OR SWAP1 MSTORE PUSH2 0x134C SWAP1 DUP7 SWAP1 PUSH2 0x1870 JUMP JUMPDEST POP DUP1 SLOAD PUSH1 0xFF NOT AND DUP2 SSTORE PUSH2 0x135D PUSH2 0x17A7 JUMP JUMPDEST PUSH1 0x1 PUSH1 0x1 PUSH1 0xA0 SHL SUB AND DUP3 PUSH1 0x1 PUSH1 0x1 PUSH1 0xA0 SHL SUB AND EQ PUSH2 0x13AC JUMPI PUSH1 0x40 MLOAD PUSH3 0x461BCD PUSH1 0xE5 SHL DUP2 MSTORE PUSH1 0x4 ADD DUP1 DUP1 PUSH1 0x20 ADD DUP3 DUP2 SUB DUP3 MSTORE PUSH1 0x2F DUP2 MSTORE PUSH1 0x20 ADD DUP1 PUSH2 0x2331 PUSH1 0x2F SWAP2 CODECOPY PUSH1 0x40 ADD SWAP2 POP POP PUSH1 0x40 MLOAD DUP1 SWAP2 SUB SWAP1 REVERT JUMPDEST PUSH2 0x13B5 DUP6 PUSH2 0x1898 JUMP JUMPDEST POP POP POP POP POP JUMP JUMPDEST PUSH1 0x1 PUSH1 0x1 PUSH1 0xA0 SHL SUB DUP1 DUP4 AND PUSH1 0x0 DUP2 DUP2 MSTORE PUSH1 0x3 PUSH1 0x20 DUP2 DUP2 MSTORE PUSH1 0x40 DUP1 DUP5 KECCAK256 DUP1 SLOAD PUSH1 0x2 DUP5 MSTORE DUP3 DUP7 KECCAK256 SLOAD SWAP5 SWAP1 SWAP4 MSTORE DUP8 DUP8 AND PUSH1 0x1 PUSH1 0x1 PUSH1 0xA0 SHL SUB NOT DUP5 AND DUP2 OR SWAP1 SWAP2 SSTORE SWAP1 MLOAD SWAP2 SWAP1 SWAP6 AND SWAP5 PUSH1 0x1 PUSH1 0x1 PUSH1 0x60 SHL SUB SWAP1 SWAP3 AND SWAP4 SWAP2 SWAP3 DUP6 SWAP3 SWAP2 PUSH32 0x3134E8A2E6D97E929A7E54011EA5485D7D196DD5F0BA4D4EF95803E8E3FC257F SWAP2 SWAP1 LOG4 PUSH2 0x1440 DUP3 DUP5 DUP4 PUSH2 0x1615 JUMP JUMPDEST POP POP POP POP JUMP JUMPDEST PUSH1 0x0 PUSH2 0x1451 ADDRESS PUSH2 0x103C JUMP JUMPDEST ISZERO SWAP1 POP SWAP1 JUMP JUMPDEST PUSH1 0x0 DUP4 DUP4 ADD DUP3 PUSH1 0x1 PUSH1 0x1 PUSH1 0x60 SHL SUB DUP1 DUP8 AND SWAP1 DUP4 AND LT ISZERO PUSH2 0x148A JUMPI PUSH1 0x40 MLOAD PUSH3 0x461BCD PUSH1 0xE5 SHL DUP2 MSTORE PUSH1 0x4 ADD PUSH2 0x8CA SWAP2 SWAP1 PUSH2 0x1FDF JUMP JUMPDEST POP SWAP5 SWAP4 POP POP POP POP JUMP JUMPDEST CHAINID SWAP1 JUMP JUMPDEST PUSH1 0x0 PUSH32 0x7FFFFFFFFFFFFFFFFFFFFFFFFFFFFFFF5D576E7357A4501DDFE92F46681B20A0 DUP3 GT ISZERO PUSH2 0x14F8 JUMPI PUSH1 0x40 MLOAD PUSH3 0x461BCD PUSH1 0xE5 SHL DUP2 MSTORE PUSH1 0x4 ADD DUP1 DUP1 PUSH1 0x20 ADD DUP3 DUP2 SUB DUP3 MSTORE PUSH1 0x22 DUP2 MSTORE PUSH1 0x20 ADD DUP1 PUSH2 0x2387 PUSH1 0x22 SWAP2 CODECOPY PUSH1 0x40 ADD SWAP2 POP POP PUSH1 0x40 MLOAD DUP1 SWAP2 SUB SWAP1 REVERT JUMPDEST DUP4 PUSH1 0xFF AND PUSH1 0x1B EQ DUP1 PUSH2 0x150D JUMPI POP DUP4 PUSH1 0xFF AND PUSH1 0x1C EQ JUMPDEST PUSH2 0x1548 JUMPI PUSH1 0x40 MLOAD PUSH3 0x461BCD PUSH1 0xE5 SHL DUP2 MSTORE PUSH1 0x4 ADD DUP1 DUP1 PUSH1 0x20 ADD DUP3 DUP2 SUB DUP3 MSTORE PUSH1 0x22 DUP2 MSTORE PUSH1 0x20 ADD DUP1 PUSH2 0x2460 PUSH1 0x22 SWAP2 CODECOPY PUSH1 0x40 ADD SWAP2 POP POP PUSH1 0x40 MLOAD DUP1 SWAP2 SUB SWAP1 REVERT JUMPDEST PUSH1 0x0 PUSH1 0x1 DUP7 DUP7 DUP7 DUP7 PUSH1 0x40 MLOAD PUSH1 0x0 DUP2 MSTORE PUSH1 0x20 ADD PUSH1 0x40 MSTORE PUSH1 0x40 MLOAD DUP1 DUP6 DUP2 MSTORE PUSH1 0x20 ADD DUP5 PUSH1 0xFF AND DUP2 MSTORE PUSH1 0x20 ADD DUP4 DUP2 MSTORE PUSH1 0x20 ADD DUP3 DUP2 MSTORE PUSH1 0x20 ADD SWAP5 POP POP POP POP POP PUSH1 0x20 PUSH1 0x40 MLOAD PUSH1 0x20 DUP2 SUB SWAP1 DUP1 DUP5 SUB SWAP1 DUP6 GAS STATICCALL ISZERO DUP1 ISZERO PUSH2 0x15A4 JUMPI RETURNDATASIZE PUSH1 0x0 DUP1 RETURNDATACOPY RETURNDATASIZE PUSH1 0x0 REVERT JUMPDEST POP POP PUSH1 0x40 MLOAD PUSH1 0x1F NOT ADD MLOAD SWAP2 POP POP PUSH1 0x1 PUSH1 0x1 PUSH1 0xA0 SHL SUB DUP2 AND PUSH2 0x160C JUMPI PUSH1 0x40 DUP1 MLOAD PUSH3 0x461BCD PUSH1 0xE5 SHL DUP2 MSTORE PUSH1 0x20 PUSH1 0x4 DUP3 ADD MSTORE PUSH1 0x18 PUSH1 0x24 DUP3 ADD MSTORE PUSH32 0x45434453413A20696E76616C6964207369676E61747572650000000000000000 PUSH1 0x44 DUP3 ADD MSTORE SWAP1 MLOAD SWAP1 DUP2 SWAP1 SUB PUSH1 0x64 ADD SWAP1 REVERT JUMPDEST SWAP6 SWAP5 POP POP POP POP POP JUMP JUMPDEST DUP2 PUSH1 0x1 PUSH1 0x1 PUSH1 0xA0 SHL SUB AND DUP4 PUSH1 0x1 PUSH1 0x1 PUSH1 0xA0 SHL SUB AND EQ ISZERO DUP1 ISZERO PUSH2 0x1640 JUMPI POP PUSH1 0x0 DUP2 PUSH1 0x1 PUSH1 0x1 PUSH1 0x60 SHL SUB AND GT JUMPDEST ISZERO PUSH2 0x125A JUMPI PUSH1 0x1 PUSH1 0x1 PUSH1 0xA0 SHL SUB DUP4 AND ISZERO PUSH2 0x16F8 JUMPI PUSH1 0x1 PUSH1 0x1 PUSH1 0xA0 SHL SUB DUP4 AND PUSH1 0x0 SWAP1 DUP2 MSTORE PUSH1 0x5 PUSH1 0x20 MSTORE PUSH1 0x40 DUP2 KECCAK256 SLOAD PUSH4 0xFFFFFFFF AND SWAP1 DUP2 PUSH2 0x1680 JUMPI PUSH1 0x0 PUSH2 0x16BF JUMP JUMPDEST PUSH1 0x1 PUSH1 0x1 PUSH1 0xA0 SHL SUB DUP6 AND PUSH1 0x0 SWAP1 DUP2 MSTORE PUSH1 0x4 PUSH1 0x20 SWAP1 DUP2 MSTORE PUSH1 0x40 DUP1 DUP4 KECCAK256 PUSH1 0x0 NOT DUP7 ADD PUSH4 0xFFFFFFFF AND DUP5 MSTORE SWAP1 SWAP2 MSTORE SWAP1 KECCAK256 SLOAD PUSH1 0x1 PUSH1 0x20 SHL SWAP1 DIV PUSH1 0x1 PUSH1 0x1 PUSH1 0x60 SHL SUB AND JUMPDEST SWAP1 POP PUSH1 0x0 PUSH2 0x16E6 DUP3 DUP6 PUSH1 0x40 MLOAD DUP1 PUSH1 0x60 ADD PUSH1 0x40 MSTORE DUP1 PUSH1 0x27 DUP2 MSTORE PUSH1 0x20 ADD PUSH2 0x2360 PUSH1 0x27 SWAP2 CODECOPY PUSH2 0x1075 JUMP JUMPDEST SWAP1 POP PUSH2 0x16F4 DUP7 DUP5 DUP5 DUP5 PUSH2 0x18D8 JUMP JUMPDEST POP POP POP JUMPDEST PUSH1 0x1 PUSH1 0x1 PUSH1 0xA0 SHL SUB DUP3 AND ISZERO PUSH2 0x125A JUMPI PUSH1 0x1 PUSH1 0x1 PUSH1 0xA0 SHL SUB DUP3 AND PUSH1 0x0 SWAP1 DUP2 MSTORE PUSH1 0x5 PUSH1 0x20 MSTORE PUSH1 0x40 DUP2 KECCAK256 SLOAD PUSH4 0xFFFFFFFF AND SWAP1 DUP2 PUSH2 0x1733 JUMPI PUSH1 0x0 PUSH2 0x1772 JUMP JUMPDEST PUSH1 0x1 PUSH1 0x1 PUSH1 0xA0 SHL SUB DUP5 AND PUSH1 0x0 SWAP1 DUP2 MSTORE PUSH1 0x4 PUSH1 0x20 SWAP1 DUP2 MSTORE PUSH1 0x40 DUP1 DUP4 KECCAK256 PUSH1 0x0 NOT DUP7 ADD PUSH4 0xFFFFFFFF AND DUP5 MSTORE SWAP1 SWAP2 MSTORE SWAP1 KECCAK256 SLOAD PUSH1 0x1 PUSH1 0x20 SHL SWAP1 DIV PUSH1 0x1 PUSH1 0x1 PUSH1 0x60 SHL SUB AND JUMPDEST SWAP1 POP PUSH1 0x0 PUSH2 0x1799 DUP3 DUP6 PUSH1 0x40 MLOAD DUP1 PUSH1 0x60 ADD PUSH1 0x40 MSTORE DUP1 PUSH1 0x27 DUP2 MSTORE PUSH1 0x20 ADD PUSH2 0x2482 PUSH1 0x27 SWAP2 CODECOPY PUSH2 0x1457 JUMP JUMPDEST SWAP1 POP PUSH2 0xA26 DUP6 DUP5 DUP5 DUP5 PUSH2 0x18D8 JUMP JUMPDEST PUSH1 0x0 PUSH2 0x17D2 PUSH32 0x360894A13BA1A3210667C828492DB98DCA3E2076CC3735A920A3CA505D382BBC PUSH2 0x1895 JUMP JUMPDEST SLOAD PUSH1 0x1 PUSH1 0x1 PUSH1 0xA0 SHL SUB AND SWAP1 POP SWAP1 JUMP JUMPDEST PUSH2 0x17EA DUP2 PUSH2 0x103C JUMP JUMPDEST PUSH2 0x1825 JUMPI PUSH1 0x40 MLOAD PUSH3 0x461BCD PUSH1 0xE5 SHL DUP2 MSTORE PUSH1 0x4 ADD DUP1 DUP1 PUSH1 0x20 ADD DUP3 DUP2 SUB DUP3 MSTORE PUSH1 0x2D DUP2 MSTORE PUSH1 0x20 ADD DUP1 PUSH2 0x24A9 PUSH1 0x2D SWAP2 CODECOPY PUSH1 0x40 ADD SWAP2 POP POP PUSH1 0x40 MLOAD DUP1 SWAP2 SUB SWAP1 REVERT JUMPDEST DUP1 PUSH2 0x184F PUSH32 0x360894A13BA1A3210667C828492DB98DCA3E2076CC3735A920A3CA505D382BBC PUSH2 0x1895 JUMP JUMPDEST DUP1 SLOAD PUSH1 0x1 PUSH1 0x1 PUSH1 0xA0 SHL SUB NOT AND PUSH1 0x1 PUSH1 0x1 PUSH1 0xA0 SHL SUB SWAP3 SWAP1 SWAP3 AND SWAP2 SWAP1 SWAP2 OR SWAP1 SSTORE POP JUMP JUMPDEST PUSH1 0x60 PUSH2 0x713 DUP4 DUP4 PUSH1 0x40 MLOAD DUP1 PUSH1 0x60 ADD PUSH1 0x40 MSTORE DUP1 PUSH1 0x27 DUP2 MSTORE PUSH1 0x20 ADD PUSH2 0x24D6 PUSH1 0x27 SWAP2 CODECOPY PUSH2 0x1A8D JUMP JUMPDEST SWAP1 JUMP JUMPDEST PUSH2 0x18A1 DUP2 PUSH2 0x17E1 JUMP JUMPDEST PUSH1 0x40 MLOAD PUSH1 0x1 PUSH1 0x1 PUSH1 0xA0 SHL SUB DUP3 AND SWAP1 PUSH32 0xBC7CD75A20EE27FD9ADEBAB32041F755214DBC6BFFA90CC0225B39DA2E5C2D3B SWAP1 PUSH1 0x0 SWAP1 LOG2 POP JUMP JUMPDEST PUSH1 0x0 PUSH2 0x18FC NUMBER PUSH1 0x40 MLOAD DUP1 PUSH1 0x60 ADD PUSH1 0x40 MSTORE DUP1 PUSH1 0x34 DUP2 MSTORE PUSH1 0x20 ADD PUSH2 0x23FE PUSH1 0x34 SWAP2 CODECOPY PUSH2 0x1B8F JUMP JUMPDEST SWAP1 POP PUSH1 0x0 DUP5 PUSH4 0xFFFFFFFF AND GT DUP1 ISZERO PUSH2 0x1945 JUMPI POP PUSH1 0x1 PUSH1 0x1 PUSH1 0xA0 SHL SUB DUP6 AND PUSH1 0x0 SWAP1 DUP2 MSTORE PUSH1 0x4 PUSH1 0x20 SWAP1 DUP2 MSTORE PUSH1 0x40 DUP1 DUP4 KECCAK256 PUSH4 0xFFFFFFFF PUSH1 0x0 NOT DUP10 ADD DUP2 AND DUP6 MSTORE SWAP3 MSTORE SWAP1 SWAP2 KECCAK256 SLOAD DUP3 DUP3 AND SWAP2 AND EQ JUMPDEST ISZERO PUSH2 0x19A4 JUMPI PUSH1 0x1 PUSH1 0x1 PUSH1 0xA0 SHL SUB DUP6 AND PUSH1 0x0 SWAP1 DUP2 MSTORE PUSH1 0x4 PUSH1 0x20 SWAP1 DUP2 MSTORE PUSH1 0x40 DUP1 DUP4 KECCAK256 PUSH1 0x0 NOT DUP9 ADD PUSH4 0xFFFFFFFF AND DUP5 MSTORE SWAP1 SWAP2 MSTORE SWAP1 KECCAK256 DUP1 SLOAD PUSH16 0xFFFFFFFFFFFFFFFFFFFFFFFF00000000 NOT AND PUSH1 0x1 PUSH1 0x20 SHL PUSH1 0x1 PUSH1 0x1 PUSH1 0x60 SHL SUB DUP6 AND MUL OR SWAP1 SSTORE PUSH2 0x1A43 JUMP JUMPDEST PUSH1 0x40 DUP1 MLOAD DUP1 DUP3 ADD DUP3 MSTORE PUSH4 0xFFFFFFFF DUP1 DUP5 AND DUP3 MSTORE PUSH1 0x1 PUSH1 0x1 PUSH1 0x60 SHL SUB DUP1 DUP7 AND PUSH1 0x20 DUP1 DUP6 ADD SWAP2 DUP3 MSTORE PUSH1 0x1 PUSH1 0x1 PUSH1 0xA0 SHL SUB DUP12 AND PUSH1 0x0 DUP2 DUP2 MSTORE PUSH1 0x4 DUP4 MSTORE DUP8 DUP2 KECCAK256 DUP13 DUP8 AND DUP3 MSTORE DUP4 MSTORE DUP8 DUP2 KECCAK256 SWAP7 MLOAD DUP8 SLOAD SWAP5 MLOAD SWAP1 SWAP6 AND PUSH1 0x1 PUSH1 0x20 SHL MUL PUSH16 0xFFFFFFFFFFFFFFFFFFFFFFFF00000000 NOT SWAP6 DUP8 AND PUSH4 0xFFFFFFFF NOT SWAP6 DUP7 AND OR SWAP6 SWAP1 SWAP6 AND SWAP5 SWAP1 SWAP5 OR SWAP1 SWAP6 SSTORE SWAP4 DUP3 MSTORE PUSH1 0x5 SWAP1 SWAP4 MSTORE SWAP3 SWAP1 SWAP3 KECCAK256 DUP1 SLOAD PUSH1 0x1 DUP9 ADD SWAP1 SWAP4 AND SWAP3 SWAP1 SWAP2 AND SWAP2 SWAP1 SWAP2 OR SWAP1 SSTORE JUMPDEST DUP5 PUSH1 0x1 PUSH1 0x1 PUSH1 0xA0 SHL SUB AND PUSH32 0xDEC2BACDD2F05B59DE34DA9B523DFF8BE42E5E38E818C82FDB0BAE774387A724 DUP5 DUP5 PUSH1 0x40 MLOAD PUSH2 0x1A7E SWAP3 SWAP2 SWAP1 PUSH2 0x22B3 JUMP JUMPDEST PUSH1 0x40 MLOAD DUP1 SWAP2 SUB SWAP1 LOG2 POP POP POP POP POP JUMP JUMPDEST PUSH1 0x60 PUSH2 0x1A98 DUP5 PUSH2 0x103C JUMP JUMPDEST PUSH2 0x1AD3 JUMPI PUSH1 0x40 MLOAD PUSH3 0x461BCD PUSH1 0xE5 SHL DUP2 MSTORE PUSH1 0x4 ADD DUP1 DUP1 PUSH1 0x20 ADD DUP3 DUP2 SUB DUP3 MSTORE PUSH1 0x26 DUP2 MSTORE PUSH1 0x20 ADD DUP1 PUSH2 0x2533 PUSH1 0x26 SWAP2 CODECOPY PUSH1 0x40 ADD SWAP2 POP POP PUSH1 0x40 MLOAD DUP1 SWAP2 SUB SWAP1 REVERT JUMPDEST PUSH1 0x0 DUP1 DUP6 PUSH1 0x1 PUSH1 0x1 PUSH1 0xA0 SHL SUB AND DUP6 PUSH1 0x40 MLOAD DUP1 DUP3 DUP1 MLOAD SWAP1 PUSH1 0x20 ADD SWAP1 DUP1 DUP4 DUP4 JUMPDEST PUSH1 0x20 DUP4 LT PUSH2 0x1B10 JUMPI DUP1 MLOAD DUP3 MSTORE PUSH1 0x1F NOT SWAP1 SWAP3 ADD SWAP2 PUSH1 0x20 SWAP2 DUP3 ADD SWAP2 ADD PUSH2 0x1AF1 JUMP JUMPDEST PUSH1 0x1 DUP4 PUSH1 0x20 SUB PUSH2 0x100 EXP SUB DUP1 NOT DUP3 MLOAD AND DUP2 DUP5 MLOAD AND DUP1 DUP3 OR DUP6 MSTORE POP POP POP POP POP POP SWAP1 POP ADD SWAP2 POP POP PUSH1 0x0 PUSH1 0x40 MLOAD DUP1 DUP4 SUB DUP2 DUP6 GAS DELEGATECALL SWAP2 POP POP RETURNDATASIZE DUP1 PUSH1 0x0 DUP2 EQ PUSH2 0x1B70 JUMPI PUSH1 0x40 MLOAD SWAP2 POP PUSH1 0x1F NOT PUSH1 0x3F RETURNDATASIZE ADD AND DUP3 ADD PUSH1 0x40 MSTORE RETURNDATASIZE DUP3 MSTORE RETURNDATASIZE PUSH1 0x0 PUSH1 0x20 DUP5 ADD RETURNDATACOPY PUSH2 0x1B75 JUMP JUMPDEST PUSH1 0x60 SWAP2 POP JUMPDEST POP SWAP2 POP SWAP2 POP PUSH2 0x1B85 DUP3 DUP3 DUP7 PUSH2 0x1BB7 JUMP JUMPDEST SWAP7 SWAP6 POP POP POP POP POP POP JUMP JUMPDEST PUSH1 0x0 DUP2 PUSH4 0xFFFFFFFF DUP5 GT ISZERO PUSH2 0x106D JUMPI PUSH1 0x40 MLOAD PUSH3 0x461BCD PUSH1 0xE5 SHL DUP2 MSTORE PUSH1 0x4 ADD PUSH2 0x8CA SWAP2 SWAP1 PUSH2 0x1FDF JUMP JUMPDEST PUSH1 0x60 DUP4 ISZERO PUSH2 0x1BC6 JUMPI POP DUP2 PUSH2 0x713 JUMP JUMPDEST DUP3 MLOAD ISZERO PUSH2 0x1BD6 JUMPI DUP3 MLOAD DUP1 DUP5 PUSH1 0x20 ADD REVERT JUMPDEST DUP2 PUSH1 0x40 MLOAD PUSH3 0x461BCD PUSH1 0xE5 SHL DUP2 MSTORE PUSH1 0x4 ADD DUP1 DUP1 PUSH1 0x20 ADD DUP3 DUP2 SUB DUP3 MSTORE DUP4 DUP2 DUP2 MLOAD DUP2 MSTORE PUSH1 0x20 ADD SWAP2 POP DUP1 MLOAD SWAP1 PUSH1 0x20 ADD SWAP1 DUP1 DUP4 DUP4 PUSH1 0x0 JUMPDEST DUP4 DUP2 LT ISZERO PUSH2 0x1C20 JUMPI DUP2 DUP2 ADD MLOAD DUP4 DUP3 ADD MSTORE PUSH1 0x20 ADD PUSH2 0x1C08 JUMP JUMPDEST POP POP POP POP SWAP1 POP SWAP1 DUP2 ADD SWAP1 PUSH1 0x1F AND DUP1 ISZERO PUSH2 0x1C4D JUMPI DUP1 DUP3 SUB DUP1 MLOAD PUSH1 0x1 DUP4 PUSH1 0x20 SUB PUSH2 0x100 EXP SUB NOT AND DUP2 MSTORE PUSH1 0x20 ADD SWAP2 POP JUMPDEST POP SWAP3 POP POP POP PUSH1 0x40 MLOAD DUP1 SWAP2 SUB SWAP1 REVERT JUMPDEST DUP1 CALLDATALOAD PUSH1 0x1 PUSH1 0x1 PUSH1 0xA0 SHL SUB DUP2 AND DUP2 EQ PUSH2 0xA69 JUMPI PUSH1 0x0 DUP1 REVERT JUMPDEST PUSH1 0x0 DUP1 DUP4 PUSH1 0x1F DUP5 ADD SLT PUSH2 0x1C83 JUMPI DUP1 DUP2 REVERT JUMPDEST POP DUP2 CALLDATALOAD PUSH8 0xFFFFFFFFFFFFFFFF DUP2 GT ISZERO PUSH2 0x1C9A JUMPI DUP2 DUP3 REVERT JUMPDEST PUSH1 0x20 DUP4 ADD SWAP2 POP DUP4 PUSH1 0x20 DUP1 DUP4 MUL DUP6 ADD ADD GT ISZERO PUSH2 0x1CB4 JUMPI PUSH1 0x0 DUP1 REVERT JUMPDEST SWAP3 POP SWAP3 SWAP1 POP JUMP JUMPDEST PUSH1 0x0 PUSH1 0x20 DUP3 DUP5 SUB SLT ISZERO PUSH2 0x1CCC JUMPI DUP1 DUP2 REVERT JUMPDEST PUSH2 0x713 DUP3 PUSH2 0x1C5B JUMP JUMPDEST PUSH1 0x0 DUP1 PUSH1 0x40 DUP4 DUP6 SUB SLT ISZERO PUSH2 0x1CE7 JUMPI DUP1 DUP2 REVERT JUMPDEST PUSH2 0x1CF0 DUP4 PUSH2 0x1C5B JUMP JUMPDEST SWAP2 POP PUSH2 0x1CFE PUSH1 0x20 DUP5 ADD PUSH2 0x1C5B JUMP JUMPDEST SWAP1 POP SWAP3 POP SWAP3 SWAP1 POP JUMP JUMPDEST PUSH1 0x0 DUP1 PUSH1 0x0 PUSH1 0x60 DUP5 DUP7 SUB SLT ISZERO PUSH2 0x1D1B JUMPI DUP1 DUP2 REVERT JUMPDEST PUSH2 0x1D24 DUP5 PUSH2 0x1C5B JUMP JUMPDEST SWAP3 POP PUSH2 0x1D32 PUSH1 0x20 DUP6 ADD PUSH2 0x1C5B JUMP JUMPDEST SWAP2 POP PUSH1 0x40 DUP5 ADD CALLDATALOAD SWAP1 POP SWAP3 POP SWAP3 POP SWAP3 JUMP JUMPDEST PUSH1 0x0 DUP1 PUSH1 0x40 DUP4 DUP6 SUB SLT ISZERO PUSH2 0x1D54 JUMPI DUP2 DUP3 REVERT JUMPDEST PUSH2 0x1D5D DUP4 PUSH2 0x1C5B JUMP JUMPDEST SWAP2 POP PUSH1 0x20 DUP1 DUP5 ADD CALLDATALOAD PUSH8 0xFFFFFFFFFFFFFFFF DUP1 DUP3 GT ISZERO PUSH2 0x1D7A JUMPI DUP4 DUP5 REVERT JUMPDEST DUP2 DUP7 ADD SWAP2 POP DUP7 PUSH1 0x1F DUP4 ADD SLT PUSH2 0x1D8D JUMPI DUP4 DUP5 REVERT JUMPDEST DUP2 CALLDATALOAD DUP2 DUP2 GT ISZERO PUSH2 0x1D99 JUMPI INVALID JUMPDEST PUSH1 0x40 MLOAD PUSH1 0x1F DUP3 ADD PUSH1 0x1F NOT AND DUP2 ADD DUP6 ADD DUP4 DUP2 GT DUP3 DUP3 LT OR ISZERO PUSH2 0x1DB6 JUMPI INVALID JUMPDEST PUSH1 0x40 MSTORE DUP2 DUP2 MSTORE DUP4 DUP3 ADD DUP6 ADD DUP10 LT ISZERO PUSH2 0x1DCC JUMPI DUP6 DUP7 REVERT JUMPDEST DUP2 DUP6 DUP6 ADD DUP7 DUP4 ADD CALLDATACOPY DUP6 DUP6 DUP4 DUP4 ADD ADD MSTORE DUP1 SWAP6 POP POP POP POP POP POP SWAP3 POP SWAP3 SWAP1 POP JUMP JUMPDEST PUSH1 0x0 DUP1 PUSH1 0x40 DUP4 DUP6 SUB SLT ISZERO PUSH2 0x1DFC JUMPI DUP2 DUP3 REVERT JUMPDEST PUSH2 0x1E05 DUP4 PUSH2 0x1C5B JUMP JUMPDEST SWAP5 PUSH1 0x20 SWAP4 SWAP1 SWAP4 ADD CALLDATALOAD SWAP4 POP POP POP JUMP JUMPDEST PUSH1 0x0 DUP1 PUSH1 0x0 DUP1 PUSH1 0x0 DUP1 PUSH1 0xC0 DUP8 DUP10 SUB SLT ISZERO PUSH2 0x1E2B JUMPI DUP2 DUP3 REVERT JUMPDEST PUSH2 0x1E34 DUP8 PUSH2 0x1C5B JUMP JUMPDEST SWAP6 POP PUSH1 0x20 DUP8 ADD CALLDATALOAD SWAP5 POP PUSH1 0x40 DUP8 ADD CALLDATALOAD SWAP4 POP PUSH1 0x60 DUP8 ADD CALLDATALOAD PUSH1 0xFF DUP2 AND DUP2 EQ PUSH2 0x1E57 JUMPI DUP3 DUP4 REVERT JUMPDEST SWAP6 SWAP9 SWAP5 SWAP8 POP SWAP3 SWAP6 PUSH1 0x80 DUP2 ADD CALLDATALOAD SWAP5 PUSH1 0xA0 SWAP1 SWAP2 ADD CALLDATALOAD SWAP4 POP SWAP2 POP POP JUMP JUMPDEST PUSH1 0x0 DUP1 PUSH1 0x40 DUP4 DUP6 SUB SLT ISZERO PUSH2 0x1E83 JUMPI DUP2 DUP3 REVERT JUMPDEST PUSH2 0x1E8C DUP4 PUSH2 0x1C5B JUMP JUMPDEST SWAP2 POP PUSH1 0x20 DUP4 ADD CALLDATALOAD PUSH4 0xFFFFFFFF DUP2 AND DUP2 EQ PUSH2 0x1EA4 JUMPI DUP2 DUP3 REVERT JUMPDEST DUP1 SWAP2 POP POP SWAP3 POP SWAP3 SWAP1 POP JUMP JUMPDEST PUSH1 0x0 DUP1 PUSH1 0x0 DUP1 PUSH1 0x0 PUSH1 0x60 DUP7 DUP9 SUB SLT ISZERO PUSH2 0x1EC6 JUMPI DUP1 DUP2 REVERT JUMPDEST DUP6 CALLDATALOAD PUSH8 0xFFFFFFFFFFFFFFFF DUP1 DUP3 GT ISZERO PUSH2 0x1EDD JUMPI DUP3 DUP4 REVERT JUMPDEST PUSH2 0x1EE9 DUP10 DUP4 DUP11 ADD PUSH2 0x1C72 JUMP JUMPDEST SWAP1 SWAP8 POP SWAP6 POP PUSH1 0x20 DUP9 ADD CALLDATALOAD SWAP2 POP DUP1 DUP3 GT ISZERO PUSH2 0x1F01 JUMPI DUP3 DUP4 REVERT JUMPDEST POP PUSH2 0x1F0E DUP9 DUP3 DUP10 ADD PUSH2 0x1C72 JUMP JUMPDEST SWAP1 SWAP5 POP SWAP3 POP PUSH2 0x1F21 SWAP1 POP PUSH1 0x40 DUP8 ADD PUSH2 0x1C5B JUMP JUMPDEST SWAP1 POP SWAP3 SWAP6 POP SWAP3 SWAP6 SWAP1 SWAP4 POP JUMP JUMPDEST PUSH1 0x0 PUSH1 0x20 DUP3 DUP5 SUB SLT ISZERO PUSH2 0x1F3E JUMPI DUP1 DUP2 REVERT JUMPDEST DUP2 CALLDATALOAD PUSH1 0x1 PUSH1 0x1 PUSH1 0x60 SHL SUB DUP2 AND DUP2 EQ PUSH2 0x713 JUMPI DUP2 DUP3 REVERT JUMPDEST PUSH2 0x1901 PUSH1 0xF0 SHL DUP2 MSTORE PUSH1 0x2 DUP2 ADD SWAP3 SWAP1 SWAP3 MSTORE PUSH1 0x22 DUP3 ADD MSTORE PUSH1 0x42 ADD SWAP1 JUMP JUMPDEST PUSH1 0x1 PUSH1 0x1 PUSH1 0xA0 SHL SUB SWAP2 SWAP1 SWAP2 AND DUP2 MSTORE PUSH1 0x20 ADD SWAP1 JUMP JUMPDEST SWAP1 ISZERO ISZERO DUP2 MSTORE PUSH1 0x20 ADD SWAP1 JUMP JUMPDEST SWAP1 DUP2 MSTORE PUSH1 0x20 ADD SWAP1 JUMP JUMPDEST SWAP4 DUP5 MSTORE PUSH1 0x1 PUSH1 0x1 PUSH1 0xA0 SHL SUB SWAP3 SWAP1 SWAP3 AND PUSH1 0x20 DUP5 ADD MSTORE PUSH1 0x40 DUP4 ADD MSTORE PUSH1 0x60 DUP3 ADD MSTORE PUSH1 0x80 ADD SWAP1 JUMP JUMPDEST SWAP4 DUP5 MSTORE PUSH1 0x20 DUP5 ADD SWAP3 SWAP1 SWAP3 MSTORE PUSH1 0x40 DUP4 ADD MSTORE PUSH1 0x1 PUSH1 0x1 PUSH1 0xA0 SHL SUB AND PUSH1 0x60 DUP3 ADD MSTORE PUSH1 0x80 ADD SWAP1 JUMP JUMPDEST PUSH1 0x0 PUSH1 0x20 DUP1 DUP4 MSTORE DUP4 MLOAD DUP1 DUP3 DUP6 ADD MSTORE DUP3 JUMPDEST DUP2 DUP2 LT ISZERO PUSH2 0x200B JUMPI DUP6 DUP2 ADD DUP4 ADD MLOAD DUP6 DUP3 ADD PUSH1 0x40 ADD MSTORE DUP3 ADD PUSH2 0x1FEF JUMP JUMPDEST DUP2 DUP2 GT ISZERO PUSH2 0x201C JUMPI DUP4 PUSH1 0x40 DUP4 DUP8 ADD ADD MSTORE JUMPDEST POP PUSH1 0x1F ADD PUSH1 0x1F NOT AND SWAP3 SWAP1 SWAP3 ADD PUSH1 0x40 ADD SWAP4 SWAP3 POP POP POP JUMP JUMPDEST PUSH1 0x20 DUP1 DUP3 MSTORE PUSH1 0x27 SWAP1 DUP3 ADD MSTORE PUSH32 0x4E6F74653A3A6765745072696F72566F7465733A206E6F742079657420646574 PUSH1 0x40 DUP3 ADD MSTORE PUSH7 0x195C9B5A5B9959 PUSH1 0xCA SHL PUSH1 0x60 DUP3 ADD MSTORE PUSH1 0x80 ADD SWAP1 JUMP JUMPDEST PUSH1 0x20 DUP1 DUP3 MSTORE PUSH1 0x26 SWAP1 DUP3 ADD MSTORE PUSH32 0x4F776E61626C653A206E6577206F776E657220697320746865207A65726F2061 PUSH1 0x40 DUP3 ADD MSTORE PUSH6 0x646472657373 PUSH1 0xD0 SHL PUSH1 0x60 DUP3 ADD MSTORE PUSH1 0x80 ADD SWAP1 JUMP JUMPDEST PUSH1 0x20 DUP1 DUP3 MSTORE PUSH1 0x3C SWAP1 DUP3 ADD MSTORE PUSH32 0x4E6F74653A3A5F7472616E73666572546F6B656E733A2063616E6E6F74207472 PUSH1 0x40 DUP3 ADD MSTORE PUSH32 0x616E736665722066726F6D20746865207A65726F206164647265737300000000 PUSH1 0x60 DUP3 ADD MSTORE PUSH1 0x80 ADD SWAP1 JUMP JUMPDEST PUSH1 0x20 DUP1 DUP3 MSTORE PUSH1 0x3A SWAP1 DUP3 ADD MSTORE PUSH32 0x4E6F74653A3A5F7472616E73666572546F6B656E733A2063616E6E6F74207472 PUSH1 0x40 DUP3 ADD MSTORE PUSH32 0x616E7366657220746F20746865207A65726F2061646472657373000000000000 PUSH1 0x60 DUP3 ADD MSTORE PUSH1 0x80 ADD SWAP1 JUMP JUMPDEST PUSH1 0x20 DUP1 DUP3 MSTORE DUP2 DUP2 ADD MSTORE PUSH32 0x4F776E61626C653A2063616C6C6572206973206E6F7420746865206F776E6572 PUSH1 0x40 DUP3 ADD MSTORE PUSH1 0x60 ADD SWAP1 JUMP JUMPDEST PUSH1 0x20 DUP1 DUP3 MSTORE PUSH1 0x22 SWAP1 DUP3 ADD MSTORE PUSH32 0x4E6F74653A3A64656C656761746542795369673A20696E76616C6964206E6F6E PUSH1 0x40 DUP3 ADD MSTORE PUSH2 0x6365 PUSH1 0xF0 SHL PUSH1 0x60 DUP3 ADD MSTORE PUSH1 0x80 ADD SWAP1 JUMP JUMPDEST PUSH1 0x20 DUP1 DUP3 MSTORE PUSH1 0x11 SWAP1 DUP3 ADD MSTORE PUSH17 0x111D5C1B1A58D85D19481858D8DBDD5B9D PUSH1 0x7A SHL PUSH1 0x40 DUP3 ADD MSTORE PUSH1 0x60 ADD SWAP1 JUMP JUMPDEST PUSH1 0x20 DUP1 DUP3 MSTORE PUSH1 0x26 SWAP1 DUP3 ADD MSTORE PUSH32 0x4E6F74653A3A64656C656761746542795369673A207369676E61747572652065 PUSH1 0x40 DUP3 ADD MSTORE PUSH6 0x1E1C1A5C9959 PUSH1 0xD2 SHL PUSH1 0x60 DUP3 ADD MSTORE PUSH1 0x80 ADD SWAP1 JUMP JUMPDEST PUSH4 0xFFFFFFFF SWAP2 SWAP1 SWAP2 AND DUP2 MSTORE PUSH1 0x20 ADD SWAP1 JUMP JUMPDEST PUSH4 0xFFFFFFFF SWAP3 SWAP1 SWAP3 AND DUP3 MSTORE PUSH1 0x1 PUSH1 0x1 PUSH1 0x60 SHL SUB AND PUSH1 0x20 DUP3 ADD MSTORE PUSH1 0x40 ADD SWAP1 JUMP JUMPDEST PUSH1 0xFF SWAP2 SWAP1 SWAP2 AND DUP2 MSTORE PUSH1 0x20 ADD SWAP1 JUMP JUMPDEST PUSH1 0x1 PUSH1 0x1 PUSH1 0x60 SHL SUB SWAP2 SWAP1 SWAP2 AND DUP2 MSTORE PUSH1 0x20 ADD SWAP1 JUMP JUMPDEST PUSH1 0x1 PUSH1 0x1 PUSH1 0x60 SHL SUB SWAP3 DUP4 AND DUP2 MSTORE SWAP2 AND PUSH1 0x20 DUP3 ADD MSTORE PUSH1 0x40 ADD SWAP1 JUMP INVALID 0x4E PUSH16 0x74653A3A7472616E7366657246726F6D GASPRICE KECCAK256 PUSH21 0x72616E7366657220616D6F756E7420657863656564 PUSH20 0x207370656E64657220616C6C6F77616E63654E6F PUSH21 0x653A3A7472616E736665723A20616D6F756E742065 PUSH25 0x63656564732039362062697473455243313936375570677261 PUSH5 0x653A207570 PUSH8 0x7261646520627265 PUSH2 0x6B73 KECCAK256 PUSH7 0x75727468657220 PUSH22 0x706772616465734E6F74653A3A5F6D6F7665566F7465 PUSH20 0x3A20766F746520616D6F756E7420756E64657266 PUSH13 0x6F7745434453413A20696E7661 PUSH13 0x6964207369676E617475726520 0x27 PUSH20 0x272076616C75654E6F74653A3A617070726F7665 GASPRICE KECCAK256 PUSH2 0x6D6F PUSH22 0x6E74206578636565647320393620626974734E6F7465 GASPRICE GASPRICE 0x5F PUSH21 0x72616E73666572546F6B656E733A207472616E7366 PUSH6 0x7220616D6F75 PUSH15 0x74206F766572666C6F77734E6F7465 GASPRICE GASPRICE 0x5F PUSH24 0x72697465436865636B706F696E743A20626C6F636B206E75 PUSH14 0x6265722065786365656473203332 KECCAK256 PUSH3 0x697473 0x49 PUSH15 0x697469616C697A61626C653A20636F PUSH15 0x747261637420697320616C72656164 PUSH26 0x20696E697469616C697A656445434453413A20696E76616C6964 KECCAK256 PUSH20 0x69676E6174757265202776272076616C75654E6F PUSH21 0x653A3A5F6D6F7665566F7465733A20766F74652061 PUSH14 0x6F756E74206F766572666C6F7773 GASLIMIT MSTORE NUMBER BALANCE CODECOPY CALLDATASIZE CALLDATACOPY GASPRICE KECCAK256 PUSH15 0x657720696D706C656D656E74617469 PUSH16 0x6E206973206E6F74206120636F6E7472 PUSH2 0x6374 COINBASE PUSH5 0x6472657373 GASPRICE KECCAK256 PUSH13 0x6F772D6C6576656C2064656C65 PUSH8 0x6174652063616C6C KECCAK256 PUSH7 0x61696C65644E6F PUSH21 0x653A3A5F7472616E73666572546F6B656E733A2074 PUSH19 0x616E7366657220616D6F756E74206578636565 PUSH5 0x732062616C PUSH2 0x6E63 PUSH6 0x416464726573 PUSH20 0x3A2064656C65676174652063616C6C20746F206E PUSH16 0x6E2D636F6E7472616374A26469706673 PC 0x22 SLT KECCAK256 STATICCALL 0xCF 0xAC LOG0 0x2E MLOAD 0x4F 0xB8 0xE8 0x24 0xE3 0xEA DIFFICULTY 0xAA SIGNEXTEND DUP16 SWAP5 CALLDATALOAD 0xC3 ISZERO 0xD1 XOR 0xE 0x5C SWAP6 0xBE SUB 0xE1 0xF8 0x5E CODECOPY EXTCODECOPY PUSH5 0x736F6C6343 STOP SMOD MOD STOP CALLER ","sha1":"aad82059952ed80686d437e66dedee73f8cba855","source":"// SPDX-License-Identifier: GPL-3.0-only\npragma solidity ^0.7.0;\npragma abicoder v2;\n\nimport \"interfaces/notional/NotionalProxy.sol\";\nimport \"@openzeppelin/contracts/proxy/Initializable.sol\";\nimport \"@openzeppelin/contracts/cryptography/ECDSA.sol\";\nimport \"../../proxy/utils/UUPSUpgradeable.sol\";\n\n/// @title Note ERC20 Token\n/// Fork of Compound Comp token at commit hash\n/// https://github.com/compound-finance/compound-protocol/commit/9bcff34a5c9c76d51e51bcb0ca1139588362ef96\ncontract NoteERC20 is Initializable, UUPSUpgradeable {\n    /// @notice EIP-20 token name for this token\n    string public constant name = \"Notional\";\n\n    /// @notice EIP-20 token symbol for this token\n    string public constant symbol = \"NOTE\";\n\n    /// @notice EIP-20 token decimals for this token\n    uint8 public constant decimals = 8;\n\n    /// @notice Total number of tokens in circulation (100 million NOTE)\n    uint256 public constant totalSupply = 100000000e8;\n\n    /// @notice Notional router address, not currently used but cannot be\n    /// removed or this will mess up storage.\n    NotionalProxy public notionalProxy;\n\n    // Allowance amounts on behalf of others\n    mapping(address => mapping(address => uint96)) internal allowances;\n\n    // Official record of token balances for each account\n    mapping(address => uint96) internal balances;\n\n    /// @notice A record of each accounts delegate\n    mapping(address => address) public delegates;\n\n    /// @notice A checkpoint for marking number of votes from a given block\n    struct Checkpoint {\n        uint32 fromBlock;\n        uint96 votes;\n    }\n\n    /// @notice A record of votes checkpoints for each account, by index\n    mapping(address => mapping(uint32 => Checkpoint)) public checkpoints;\n\n    /// @notice The number of checkpoints for each account\n    mapping(address => uint32) public numCheckpoints;\n\n    /// @notice The EIP-712 typehash for the contract's domain\n    bytes32 public constant DOMAIN_TYPEHASH =\n        keccak256(\"EIP712Domain(string name,uint256 chainId,address verifyingContract)\");\n\n    /// @notice The EIP-712 typehash for the delegation struct used by the contract\n    bytes32 public constant DELEGATION_TYPEHASH =\n        keccak256(\"Delegation(address delegatee,uint256 nonce,uint256 expiry)\");\n\n    /// @notice A record of states for signing / validating signatures\n    mapping(address => uint256) public nonces;\n\n    /// @notice Owner address which can upgrade the tokens implementation\n    address public owner;\n\n    /// @notice Emitted when the ownership of the contract is transferred\n    event OwnershipTransferred(address indexed previousOwner, address indexed newOwner);\n\n    /// @notice An event thats emitted when an account changes its delegate\n    event DelegateChanged(\n        address indexed delegator,\n        address indexed fromDelegate,\n        address indexed toDelegate\n    );\n\n    /// @notice An event thats emitted when a delegate account's vote balance changes\n    event DelegateVotesChanged(\n        address indexed delegate,\n        uint256 previousBalance,\n        uint256 newBalance\n    );\n\n    /// @notice The standard EIP-20 transfer event\n    event Transfer(address indexed from, address indexed to, uint256 amount);\n\n    /// @notice The standard EIP-20 approval event\n    event Approval(address indexed owner, address indexed spender, uint256 amount);\n\n    constructor() initializer {\n        // Making the constructor also an initializer will lock everyone\n        // from calling initialize on the implementation contract.\n    }\n\n    /// @notice Initialize note token with initial grants\n    /// @param initialAccounts initial address to grant tokens to\n    /// @param initialGrantAmount amount to grant address initially\n    function initialize(\n        address[] calldata initialAccounts,\n        uint96[] calldata initialGrantAmount,\n        address owner_\n    ) public initializer {\n        require(initialGrantAmount.length == initialAccounts.length);\n\n        uint96 totalGrants = 0;\n        for (uint256 i = 0; i < initialGrantAmount.length; i++) {\n            totalGrants = _add96(totalGrants, initialGrantAmount[i], \"\");\n            require(balances[initialAccounts[i]] == 0, \"Duplicate account\");\n            balances[initialAccounts[i]] = initialGrantAmount[i];\n\n            emit Transfer(address(0), initialAccounts[i], initialGrantAmount[i]);\n        }\n\n        require(totalGrants == totalSupply);\n        owner = owner_;\n    }\n\n    modifier onlyOwner() {\n        require(owner == msg.sender, \"Ownable: caller is not the owner\");\n        _;\n    }\n\n    /// @dev Transfers ownership of the contract to a new account (`newOwner`).\n    /// Can only be called by the current owner.\n    function transferOwnership(address newOwner) external onlyOwner {\n        require(newOwner != address(0), \"Ownable: new owner is the zero address\");\n        emit OwnershipTransferred(owner, newOwner);\n        owner = newOwner;\n    }\n\n    /// @dev Only the owner may upgrade the contract\n    function _authorizeUpgrade(address newImplementation) internal override onlyOwner { }\n\n    /// @notice Get the number of tokens `spender` is approved to spend on behalf of `account`\n    /// @param account The address of the account holding the funds\n    /// @param spender The address of the account spending the funds\n    /// @return The number of tokens approved\n    function allowance(address account, address spender) external view returns (uint256) {\n        return allowances[account][spender];\n    }\n\n    /// @notice Approve `spender` to transfer up to `amount` from `src`\n    /// @dev This will overwrite the approval amount for `spender`\n    ///  and is subject to issues noted [here](https://eips.ethereum.org/EIPS/eip-20#approve)\n    ///  emit:Approval\n    /// @param spender The address of the account which may transfer tokens\n    /// @param rawAmount The number of tokens that are approved (2^256-1 means infinite)\n    /// @return Whether or not the approval succeeded\n    function approve(address spender, uint256 rawAmount) external returns (bool) {\n        uint96 amount;\n        if (rawAmount >= type(uint96).max) {\n            amount = type(uint96).max;\n        } else {\n            amount = _safe96(rawAmount, \"Note::approve: amount exceeds 96 bits\");\n        }\n\n        allowances[msg.sender][spender] = amount;\n\n        emit Approval(msg.sender, spender, amount);\n        return true;\n    }\n\n    /// @notice Get the number of tokens held by the `account`\n    /// @param account The address of the account to get the balance of\n    /// @return The number of tokens held\n    function balanceOf(address account) external view returns (uint256) {\n        return balances[account];\n    }\n\n    /// @notice Transfer `amount` tokens from `msg.sender` to `dst`\n    /// @dev emit:Transfer\n    /// @param dst The address of the destination account\n    /// @param rawAmount The number of tokens to transfer\n    /// @return Whether or not the transfer succeeded\n    function transfer(address dst, uint256 rawAmount) external returns (bool) {\n        uint96 amount = _safe96(rawAmount, \"Note::transfer: amount exceeds 96 bits\");\n        _transferTokens(msg.sender, dst, amount);\n        return true;\n    }\n\n    /// @notice Transfer `amount` tokens from `src` to `dst`\n    /// @dev emit:Transfer emit:Approval\n    /// @param src The address of the source account\n    /// @param dst The address of the destination account\n    /// @param rawAmount The number of tokens to transfer\n    /// @return Whether or not the transfer succeeded\n    function transferFrom(\n        address src,\n        address dst,\n        uint256 rawAmount\n    ) external returns (bool) {\n        // Short circuit transfer execution and return true. It may be the case that external\n        // logic tries to execute a zero transfer but don't emit events here.\n        if (rawAmount == 0) {\n            // Emit a zero transfer event for ERC20 token compatibility\n            emit Transfer(src, dst, 0);\n            return true;\n        }\n\n        address spender = msg.sender;\n        uint96 spenderAllowance = allowances[src][spender];\n        uint96 amount = _safe96(rawAmount, \"Note::approve: amount exceeds 96 bits\");\n\n        if (spender != src) {\n            uint96 newAllowance =\n                _sub96(\n                    spenderAllowance,\n                    amount,\n                    \"Note::transferFrom: transfer amount exceeds spender allowance\"\n                );\n            allowances[src][spender] = newAllowance;\n        }\n\n        _transferTokens(src, dst, amount);\n        return true;\n    }\n\n    /// @notice Delegate votes from `msg.sender` to `delegatee`\n    /// @param delegatee The address to delegate votes to\n    /// @dev emit:DelegatesChanged\n    function delegate(address delegatee) public {\n        _delegate(msg.sender, delegatee);\n    }\n\n    /// @notice Delegates votes from signatory to `delegatee`\n    /// @dev emit:DelegatesChanged\n    /// @param delegatee The address to delegate votes to\n    /// @param nonce The contract state required to match the signature\n    /// @param expiry The time at which to expire the signature\n    /// @param v The recovery byte of the signature\n    /// @param r Half of the ECDSA signature pair\n    /// @param s Half of the ECDSA signature pair\n    function delegateBySig(\n        address delegatee,\n        uint256 nonce,\n        uint256 expiry,\n        uint8 v,\n        bytes32 r,\n        bytes32 s\n    ) public {\n        require(block.timestamp <= expiry, \"Note::delegateBySig: signature expired\");\n        bytes32 domainSeparator =\n            keccak256(\n                abi.encode(DOMAIN_TYPEHASH, keccak256(bytes(name)), _getChainId(), address(this))\n            );\n        bytes32 structHash = keccak256(abi.encode(DELEGATION_TYPEHASH, delegatee, nonce, expiry));\n        bytes32 digest = keccak256(abi.encodePacked(\"\\x19\\x01\", domainSeparator, structHash));\n        // ECDSA will check if address is zero inside\n        address signatory = ECDSA.recover(digest, v, r, s);\n        require(nonce == nonces[signatory]++, \"Note::delegateBySig: invalid nonce\");\n        _delegate(signatory, delegatee);\n    }\n\n    /// @notice Gets the current votes balance for `account`\n    /// @param account The address to get votes balance\n    /// @return The number of current votes for `account`\n    function getCurrentVotes(address account) external view returns (uint96) {\n        uint32 nCheckpoints = numCheckpoints[account];\n        uint96 currentVotes = nCheckpoints > 0 ? checkpoints[account][nCheckpoints - 1].votes : 0;\n        return currentVotes;\n    }\n\n    /// @notice Determine the prior number of votes for an account as of a block number\n    /// @dev Block number must be a finalized block or else this function will revert to prevent misinformation.\n    /// @param account The address of the account to check\n    /// @param blockNumber The block number to get the vote balance at\n    /// @return The number of votes the account had as of the given block\n    function getPriorVotes(address account, uint256 blockNumber) public view returns (uint96) {\n        require(blockNumber < block.number, \"Note::getPriorVotes: not yet determined\");\n\n        uint32 nCheckpoints = numCheckpoints[account];\n        if (nCheckpoints == 0) {\n            return 0;\n        }\n\n        // First check most recent balance\n        if (checkpoints[account][nCheckpoints - 1].fromBlock <= blockNumber) {\n            return checkpoints[account][nCheckpoints - 1].votes;\n        }\n\n        // Next check implicit zero balance\n        if (checkpoints[account][0].fromBlock > blockNumber) {\n            return 0;\n        }\n\n        uint32 lower = 0;\n        uint32 upper = nCheckpoints - 1;\n        while (upper > lower) {\n            uint32 center = upper - (upper - lower) / 2; // ceil, avoiding overflow\n            Checkpoint memory cp = checkpoints[account][center];\n            if (cp.fromBlock == blockNumber) {\n                return cp.votes;\n            } else if (cp.fromBlock < blockNumber) {\n                lower = center;\n            } else {\n                upper = center - 1;\n            }\n        }\n\n        return checkpoints[account][lower].votes;\n    }\n\n    /// @dev Changes delegates from one address to another\n    function _delegate(address delegator, address delegatee) internal {\n        address currentDelegate = delegates[delegator];\n        uint96 delegatorBalance = balances[delegator];\n        delegates[delegator] = delegatee;\n\n        emit DelegateChanged(delegator, currentDelegate, delegatee);\n\n        _moveDelegates(currentDelegate, delegatee, delegatorBalance);\n    }\n\n    /// @dev Transfers tokens and inherits the delegate from the destination address\n    function _transferTokens(\n        address src,\n        address dst,\n        uint96 amount\n    ) internal {\n        require(src != address(0), \"Note::_transferTokens: cannot transfer from the zero address\");\n        require(dst != address(0), \"Note::_transferTokens: cannot transfer to the zero address\");\n\n        balances[src] = _sub96(\n            balances[src],\n            amount,\n            \"Note::_transferTokens: transfer amount exceeds balance\"\n        );\n        balances[dst] = _add96(\n            balances[dst],\n            amount,\n            \"Note::_transferTokens: transfer amount overflows\"\n        );\n        emit Transfer(src, dst, amount);\n\n        _moveDelegates(delegates[src], delegates[dst], amount);\n    }\n\n    /// @dev Transfers delegates and writes a checkpoint for `getPriorVotes` to use\n    function _moveDelegates(\n        address srcRep,\n        address dstRep,\n        uint96 amount\n    ) internal {\n        if (srcRep != dstRep && amount > 0) {\n            if (srcRep != address(0)) {\n                uint32 srcRepNum = numCheckpoints[srcRep];\n                uint96 srcRepOld = srcRepNum > 0 ? checkpoints[srcRep][srcRepNum - 1].votes : 0;\n                uint96 srcRepNew =\n                    _sub96(srcRepOld, amount, \"Note::_moveVotes: vote amount underflow\");\n                _writeCheckpoint(srcRep, srcRepNum, srcRepOld, srcRepNew);\n            }\n\n            if (dstRep != address(0)) {\n                uint32 dstRepNum = numCheckpoints[dstRep];\n                uint96 dstRepOld = dstRepNum > 0 ? checkpoints[dstRep][dstRepNum - 1].votes : 0;\n                uint96 dstRepNew =\n                    _add96(dstRepOld, amount, \"Note::_moveVotes: vote amount overflows\");\n                _writeCheckpoint(dstRep, dstRepNum, dstRepOld, dstRepNew);\n            }\n        }\n    }\n\n    /// @dev Writes checkpoints for `getPriorVotes`, this is somewhat inefficient as it uses\n    /// 20000 gas per transfer of delegated tokens. The goal is prevent voters from borrowing\n    /// a large number of votes for a short period to vote for or against a proposal. It's unclear\n    /// if there is a better model than this one here. Using only a single checkpoint means that\n    /// a delegate could be the victim of a denial of service attack where an attacker continually\n    /// transfers tokens to them to prevent them from voting.\n    function _writeCheckpoint(\n        address delegatee,\n        uint32 nCheckpoints,\n        uint96 oldVotes,\n        uint96 newVotes\n    ) internal {\n        uint32 blockNumber =\n            _safe32(block.number, \"Note::_writeCheckpoint: block number exceeds 32 bits\");\n\n        if (nCheckpoints > 0 && checkpoints[delegatee][nCheckpoints - 1].fromBlock == blockNumber) {\n            checkpoints[delegatee][nCheckpoints - 1].votes = newVotes;\n        } else {\n            checkpoints[delegatee][nCheckpoints] = Checkpoint(blockNumber, newVotes);\n            numCheckpoints[delegatee] = nCheckpoints + 1;\n        }\n\n        emit DelegateVotesChanged(delegatee, oldVotes, newVotes);\n    }\n\n    function _safe32(uint256 n, string memory errorMessage) private pure returns (uint32) {\n        require(n <= type(uint32).max, errorMessage);\n        return uint32(n);\n    }\n\n    function _safe96(uint256 n, string memory errorMessage) private pure returns (uint96) {\n        require(n <= type(uint96).max, errorMessage);\n        return uint96(n);\n    }\n\n    function _add96(\n        uint96 a,\n        uint96 b,\n        string memory errorMessage\n    ) private pure returns (uint96) {\n        uint96 c = a + b;\n        require(c >= a, errorMessage);\n        return c;\n    }\n\n    function _sub96(\n        uint96 a,\n        uint96 b,\n        string memory errorMessage\n    ) private pure returns (uint96) {\n        require(b <= a, errorMessage);\n        return a - b;\n    }\n\n    function _getChainId() private pure returns (uint256) {\n        uint256 chainId;\n        assembly {\n            chainId := chainid()\n        }\n        return chainId;\n    }\n}\n","sourcePath":"contracts/external/governance/NoteERC20.sol","deployment":{"address":"0xa40aedAac28F9574124D7c8EFf59732cC77f1DD4","chainid":"4","blockHeight":9773509}}