{"bytecode":"608060405234801561001057600080fd5b50615335806100206000396000f3fe608060405260043610620001525760003560e01c80638da5cb5b11620000bb578063b242e5341162000079578063b242e534146200037f578063c572cae414620003a4578063cfaaf47414620003c9578063e31051a114620003ee578063f575e4e21462000413578063fa17b5f114620004475762000152565b80638da5cb5b14620002d357806398dcbc2314620002eb578063a11a42931462000310578063a508eca01462000335578063a9d7bc52146200035a5762000152565b80633659cfe611620001155780633659cfe6146200021d578063413f2c5f14620002425780634e71e0c814620002675780634f1ef286146200027f578063744ec0ef14620002965780638246336714620002bb5762000152565b8063038af5dc1462000157578063113aa8b1146200017e57806324a3d62214620001a35780633436a19c14620001d3578063353abc5d14620001f8575b600080fd5b3480156200016457600080fd5b506200017c62000176366004620036f9565b6200046c565b005b3480156200018b57600080fd5b506200017c6200019d36600462003335565b6200052c565b348015620001b057600080fd5b50620001bb62000605565b604051620001ca919062003954565b60405180910390f35b348015620001e057600080fd5b506200017c620001f236600462003887565b62000614565b3480156200020557600080fd5b506200017c62000217366004620033b0565b620006e1565b3480156200022a57600080fd5b506200017c6200023c36600462003335565b62000797565b3480156200024f57600080fd5b506200017c62000261366004620035e8565b620007c2565b3480156200027457600080fd5b506200017c62000854565b6200017c62000290366004620033e9565b620008ff565b348015620002a357600080fd5b506200017c620002b536600462003373565b6200091c565b348015620002c857600080fd5b50620001bb620009ae565b348015620002e057600080fd5b50620001bb620009bd565b348015620002f857600080fd5b506200017c6200030a36600462003859565b620009d3565b3480156200031d57600080fd5b506200017c6200032f366004620037d9565b62000a82565b3480156200034257600080fd5b506200017c62000354366004620036f9565b62000acd565b3480156200036757600080fd5b506200017c620003793660046200382b565b62000b18565b3480156200038c57600080fd5b506200017c6200039e366004620033b0565b62000c0c565b348015620003b157600080fd5b506200017c620003c33660046200366f565b62000d0c565b348015620003d657600080fd5b506200017c620003e8366004620035e8565b62000d63565b348015620003fb57600080fd5b506200017c6200040d36600462003717565b62000de6565b3480156200042057600080fd5b506200043862000432366004620034ab565b62000f1e565b604051620001ca9190620041c9565b3480156200045457600080fd5b506200017c62000466366004620033b0565b62001104565b600054600160201b90046001600160a01b03163314620004a95760405162461bcd60e51b8152600401620004a09062003ea3565b60405180910390fd5b620004b482620011ba565b620004bf81620011f8565b620004de5760405162461bcd60e51b8152600401620004a09062003bae565b620004ea828262001202565b8161ffff167f972af272071de4b82ff83458c3a6de8ba183a9c7dc724d4cf91d25f524a810e18260405162000520919062003954565b60405180910390a25050565b600054600160201b90046001600160a01b03163314620005605760405162461bcd60e51b8152600401620004a09062003ea3565b60006200056c620012ac565b90506001600160a01b038216158015906200058f575080546001600160a01b0316155b620005ae5760405162461bcd60e51b8152600401620004a09062003c0e565b80546001600160a01b0319166001600160a01b0383161781556040517f3dd7797c14274310ceabd9f064b457ccddb1ade285da94d9c5dbf15b6f0ebd7b90620005f990849062003954565b60405180910390a15050565b6002546001600160a01b031681565b600054600160201b90046001600160a01b03163314620006485760405162461bcd60e51b8152600401620004a09062003ea3565b6200065386620011ba565b6000620006648761ffff16620012c1565b90506001600160a01b0381166200068f5760405162461bcd60e51b8152600401620004a09062003b84565b6200069f818787878787620012e9565b7fe3bfb18d6259be9a43cd772d68c97fe6c61c35a17acb12e047ad8c9698e40aeb87604051620006d09190620041c9565b60405180910390a150505050505050565b600054600160201b90046001600160a01b03163314620007155760405162461bcd60e51b8152600401620004a09062003ea3565b6200072082620011f8565b6200073f5760405162461bcd60e51b8152600401620004a09062003dc3565b6001600160a01b03821660009081526006602052604090819020805460ff1916831515179055517fd950d85e12aefee0604a6db7758e7c22fdbc3bc402ca6f3c51e7ab11c23a4c6f90620005f9908490849062003968565b620007a281620013f7565b620007bf816040518060200160405280600081525060006200149e565b50565b600054600160201b90046001600160a01b03163314620007f65760405162461bcd60e51b8152600401620004a09062003ea3565b6200080185620011ba565b620008148561ffff1685858585620015e4565b7fff9528b00f1b4a49ad8a5d2c82e5602c172ee7e42bc1f5b7d505a7581b43823485604051620008459190620041c9565b60405180910390a15050505050565b600d546001600160a01b0316338114620008825760405162461bcd60e51b8152600401620004a09062003f74565b600080546040516001600160a01b0380851693600160201b90930416917f8be0079c531659141344cd1fd0a4f28419497f9722a3daafe3b4186f6b6457e091a3600080546001600160a01b03909216600160201b02640100000000600160c01b0319909216919091179055600d80546001600160a01b0319169055565b6200090a82620013f7565b62000918828260016200149e565b5050565b600054600160201b90046001600160a01b03163314620009505760405162461bcd60e51b8152600401620004a09062003ea3565b600180546001600160a01b03199081166001600160a01b03858116918217909355600280549092169284169283179091556040517f792a598a7f3fb01623bba2594035c736ba3d7ec06210f07d9d7ef036c4a22ac690600090a35050565b6001546001600160a01b031681565b600054600160201b90046001600160a01b031681565b600054600160201b90046001600160a01b0316331462000a075760405162461bcd60e51b8152600401620004a09062003ea3565b62000a1282620011ba565b6001600160481b0381161562000a3f5762000a318261ffff1662001746565b60ff161562000a3f57600080fd5b62000a4f8261ffff16826200175e565b7f8c7df90515138b34933e6c44ebe1e21c7f53fdf340c14c9f18b3016d2e71ca778282604051620005f99291906200420f565b600054600160201b90046001600160a01b0316331462000ab65760405162461bcd60e51b8152600401620004a09062003ea3565b62000ac182620011ba565b620009188282620017a9565b600054600160201b90046001600160a01b0316331462000b015760405162461bcd60e51b8152600401620004a09062003ea3565b62000b0c82620011ba565b620009188282620017ea565b600054600160201b90046001600160a01b0316331462000b4c5760405162461bcd60e51b8152600401620004a09062003ea3565b62000b5782620011ba565b600062000b688361ffff16620012c1565b90506001600160a01b03811662000b935760405162461bcd60e51b8152600401620004a09062003b84565b6305f5e1008263ffffffff161262000bbf5760405162461bcd60e51b8152600401620004a09062004010565b62000bcc81834262001b0d565b7f713f9554d16202d36a895476ec29ce9250f47d35422e2d9409e8f644d6aab689838360405162000bff929190620041f5565b60405180910390a1505050565b600054600160201b90046001600160a01b0316331462000c405760405162461bcd60e51b8152600401620004a09062003ea3565b801562000ceb576001600160a01b03821662000c705760405162461bcd60e51b8152600401620004a09062003c96565b600080546040516001600160a01b0380861693600160201b90930416917f8be0079c531659141344cd1fd0a4f28419497f9722a3daafe3b4186f6b6457e091a360008054640100000000600160c01b031916600160201b6001600160a01b03851602179055600d80546001600160a01b031916905562000918565b600d80546001600160a01b0384166001600160a01b03199091161790555050565b600054600160201b90046001600160a01b0316331462000d405760405162461bcd60e51b8152600401620004a09062003ea3565b62000d4b86620011ba565b62000d5b86868686868662001b67565b505050505050565b600054600160201b90046001600160a01b0316331462000d975760405162461bcd60e51b8152600401620004a09062003ea3565b62000da285620011ba565b62000db58561ffff168585858562001e18565b7f6e2f98678675da049b2cd990d6f467aac69d623ff4ecdd26a5d42f184a69d34285604051620008459190620041c9565b600054600160201b90046001600160a01b0316331462000e1a5760405162461bcd60e51b8152600401620004a09062003ea3565b62000e2587620011ba565b600062000e368861ffff1662001f84565b9050600062000e498961ffff1662001f9b565b90508160800151600014801562000e6257506080810151155b62000e6c57600080fd5b505062000e7a8786620017a9565b62000e868787620017ea565b600030888686868660405162000e9c90620031bf565b62000ead969594939291906200399c565b604051809103906000f08015801562000eca573d6000803e3d6000fd5b50905062000ed9888262001fb2565b7f6793810fdf58cb4c6e0ee40e4b03eb1075b7cbbb55c34379b918873241972aea888260405162000f0c929190620041d8565b60405180910390a15050505050505050565b60008054600160201b90046001600160a01b0316331462000f535760405162461bcd60e51b8152600401620004a09062003ea3565b6000805461ffff80821660010190811661ffff199092168217909255613fff101562000f935760405162461bcd60e51b8152600401620004a09062003a56565b6009600062000fa660208c018c62003335565b6001600160a01b0316815260208101919091526040016000205461ffff161562000fe45760405162461bcd60e51b8152600401620004a09062003d55565b806009600062000ff860208d018d62003335565b6001600160a01b031681526020808201929092526040016000908120805461ffff191661ffff949094169390931790925562001037908a018a62003335565b6001600160a01b03161415806200106b575060036200105d60608a0160408b016200348e565b60058111156200106957fe5b145b1562001093576200109361ffff821660016200108d368c90038c018c62003551565b6200208c565b620010af61ffff821660006200108d368d90038d018d62003551565b620010bf81888888888862001b67565b7f31404ff4a0f1116f17cfc89a376d7cb9cd8dbd8415e6aa24fdcb8e14e60d714281604051620010f09190620041c9565b60405180910390a198975050505050505050565b600054600160201b90046001600160a01b03163314620011385760405162461bcd60e51b8152600401620004a09062003ea3565b6200114382620011f8565b620011625760405162461bcd60e51b8152600401620004a09062003dc3565b6001600160a01b03821660009081526008602052604090819020805460ff1916831515179055517fccf663aae81733293dcfcf2a91da8c6f0e7ba8089b34eb4fd5760dd8fd605bd890620005f9908490849062003968565b8061ffff166000108015620011d9575060005461ffff90811690821611155b620007bf5760405162461bcd60e51b8152600401620004a09062004036565b803b15155b919050565b6000620012138361ffff16620012c1565b90506001600160a01b0381166200122957600080fd5b60006200123562002400565b6001600160a01b03838116600090815260208390526040902080546001600160f81b03169186161515600160f81b0291909117815590915083620012786200240f565b6001600160a01b0394851660009081526020919091526040902080546001600160a01b031916919094161790925550505050565b600080620012bb601362002419565b92915050565b600080620012ce62002433565b6000938452602052505060409020546001600160a01b031690565b6000620012f562002400565b6001600160a01b0388166000908152602082905260409020909150606460ff84161315620013375760405162461bcd60e51b8152600401620004a09062003be5565b8260ff168660ff16106200135f5760405162461bcd60e51b8152600401620004a0906200416d565b8360ff168760ff161115620013885760405162461bcd60e51b8152600401620004a09062003cfc565b805464ffffffffff60581b1916600160581b60f89490941b6001600160f81b03191660f09590951b60ff60f01b1660e89690961b60ff60e81b1660e09790971b60ff60e01b1660ff60d81b60d8998a1b161796909617949094179290921790941c939093029190911790555050565b600054600160201b90046001600160a01b03163314806200143b57506002546001600160a01b0316331480156200143b57506001546001600160a01b038281169116145b6200145a5760405162461bcd60e51b8152600401620004a09062003f0f565b6001546001600160a01b0382811691161415620007bf576200147b62002442565b600380546001600160a01b0319166001600160a01b039290921691909117905550565b6000620014aa62002442565b9050620014b7846200247e565b600083511180620014c55750815b15620014d957620014d7848462002513565b505b6000620015067f4910fdfa16fed3260ed0e7147f7cc6da11a60208b5b9406d12a635614ffd914362002542565b805490915060ff16620015dd57805460ff19166001178155604080516001600160a01b0384166024808301919091528251808303909101815260449091019091526020810180516001600160e01b0316631b2ce7f360e11b1790526200156e90869062002513565b50805460ff191681556200158162002442565b6001600160a01b0316826001600160a01b031614620015d25760405162461bcd60e51b815260040180806020018281038252602f81526020018062005236602f913960400191505060405180910390fd5b620015dd8562002545565b5050505050565b6007831115620016085760405162461bcd60e51b8152600401620004a09062003e31565b8083146200162a5760405162461bcd60e51b8152600401620004a09062003a26565b60005b81811015620017105760008585838181106200164557fe5b90506020020160208101906200165c9190620038cf565b63ffffffff1611620016825760405162461bcd60e51b8152600401620004a09062003c3c565b60008383838181106200169157fe5b9050602002016020810190620016a89190620038cf565b63ffffffff16118015620016e85750633b9aca00838383818110620016c957fe5b9050602002016020810190620016e09190620038cf565b63ffffffff16125b620017075760405162461bcd60e51b8152600401620004a09062004106565b6001016200162d565b5060006200171d62002587565b60008781526020829052604090209091506200173d818787878762002596565b50505050505050565b600080620017548362002675565b60ff169392505050565b60006200176a62002694565b60009384526020908152604080852085805290915290922080546001600160481b03909216600160b81b026001600160b81b0390921691909117905550565b620017b98261ffff1682620026a3565b7f8fd2367aaaca3606dee299bbef980da42d4e906e355f28c3dd3a2f4d81d6b46382604051620005f99190620041c9565b6000620017fb8361ffff1662001f84565b90506001600160a01b03821662001845576004816060015160058111156200181f57fe5b146200183f5760405162461bcd60e51b8152600401620004a09062003aba565b62001b08565b6000826001600160a01b031663fc0c546a6040518163ffffffff1660e01b815260040160206040518083038186803b1580156200188157600080fd5b505afa15801562001896573d6000803e3d6000fd5b505050506040513d601f19601f82011682018060405250810190620018bc919062003354565b9050806001600160a01b031682600001516001600160a01b031614620018f65760405162461bcd60e51b8152600401620004a09062004199565b600060018561ffff1614156200190f5750601262001a4d565b6000846001600160a01b0316636f307dc36040518163ffffffff1660e01b815260040160206040518083038186803b1580156200194b57600080fd5b505afa15801562001960573d6000803e3d6000fd5b505050506040513d601f19601f8201168201806040525081019062001986919062003354565b90506000620019998761ffff1662001f9b565b905080600001516001600160a01b0316826001600160a01b031614620019d35760405162461bcd60e51b8152600401620004a09062003c6a565b816001600160a01b031663313ce5676040518163ffffffff1660e01b815260040160206040518083038186803b15801562001a0d57600080fd5b505afa15801562001a22573d6000803e3d6000fd5b505050506040513d601f19601f8201168201806040525081019062001a4891906200390b565b925050505b60248160ff16111562001a5f57600080fd5b600062001a6b62002acb565b6040805180820182526001600160a01b03808916825260ff808716602080850191825261ffff8d16600090815290879052859020935184549151909216600160a01b0260ff60a01b19929093166001600160a01b03199091161716179055519091507f6cdee7159e82379f09a4a5d337e4681b6907c7851f6bba2b90e1ccc02aa7a3969062001afc908890620041c9565b60405180910390a15050505b505050565b62001b1b8360008362002ada565b50600062001b2862002400565b6001600160a01b03909416600090815260209490945250506040909120805463ffffffff909216620100000265ffffffff000019909216919091179055565b600060018761ffff16141562001b84575060009450601262001c25565b6001600160a01b03861662001bad5760405162461bcd60e51b8152600401620004a09062003fa9565b856001600160a01b031663313ce5676040518163ffffffff1660e01b815260040160206040518083038186803b15801562001be757600080fd5b505afa15801562001bfc573d6000803e3d6000fd5b505050506040513d601f19601f8201168201806040525081019062001c2291906200390b565b90505b60648460ff16121562001c4c5760405162461bcd60e51b8152600401620004a09062003dfa565b60648360ff16131562001c735760405162461bcd60e51b8152600401620004a09062003f3d565b60648260ff161362001c995760405162461bcd60e51b8152600401620004a09062003ed8565b60248160ff16111562001cab57600080fd5b600062001cb762002bc4565b90506040518060c00160405280886001600160a01b031681526020018360ff16815260200187151581526020018660ff1681526020018560ff1681526020018460ff168152508160008a61ffff16815260200190815260200160002060008201518160000160006101000a8154816001600160a01b0302191690836001600160a01b0316021790555060208201518160000160146101000a81548160ff021916908360ff16021790555060408201518160000160156101000a81548160ff02191690831515021790555060608201518160000160166101000a81548160ff021916908360ff16021790555060808201518160000160176101000a81548160ff021916908360ff16021790555060a08201518160000160186101000a81548160ff021916908360ff1602179055509050507f32df9e03d26f91a7fa4d4a9e48c2038679570cde31d5c7f979a04515e00a767d8860405162000f0c9190620041c9565b600783111562001e3c5760405162461bcd60e51b8152600401620004a09062004063565b82811462001e5e5760405162461bcd60e51b8152600401620004a090620039ef565b6000805b8481101562001f275785858281811062001e7857fe5b905060200201602081019062001e8f9190620038cf565b63ffffffff1682019150600084848381811062001ea857fe5b905060200201602081019062001ebf9190620038cf565b63ffffffff1611801562001eff5750633b9aca0084848381811062001ee057fe5b905060200201602081019062001ef79190620038cf565b63ffffffff16125b62001f1e5760405162461bcd60e51b8152600401620004a09062003e73565b60010162001e62565b506305f5e100811462001f4e5760405162461bcd60e51b8152600401620004a09062003fe0565b600062001f5a62002bd3565b600088815260208290526040902090915062001f7a818888888862002596565b5050505050505050565b62001f8e620031cd565b620012bb82600062002be2565b62001fa5620031cd565b620012bb82600162002be2565b600062001fbe62002433565b61ffff84166000908152602082905260409020549091506001600160a01b03161562001ffe5760405162461bcd60e51b8152600401620004a090620040cf565b60006200200a62002400565b6001600160a01b038416600090815260208290526040902080549192509061ffff16156200204c5760405162461bcd60e51b8152600401620004a09062003a8d565b805461ffff191661ffff959095169485179055506000928352602052604090912080546001600160a01b0319166001600160a01b03909216919091179055565b60006200209862002694565b9050600382604001516005811115620020ad57fe5b148015620020bb5750600184145b156200210857600084815260209182526040808220600183529092522080546001600160b01b031916600360a81b1760ff60b01b1916600960b11b176001600160b81b0316905562001b08565b81516001600160a01b0316620021325760405162461bcd60e51b8152600401620004a09062003ae9565b600062002140858562002be2565b835181519192506001600160a01b039182169116148062002169575080516001600160a01b0316155b620021885760405162461bcd60e51b8152600401620004a09062003d8c565b826060015160ff166000108015620021a857506024836060015160ff1611155b620021c75760405162461bcd60e51b8152600401620004a09062003d27565b600383604001516005811115620021da57fe5b1415620021e657600080fd5b83156200222a5760808301516001600160481b0316156200220657600080fd5b6000836040015160058111156200221957fe5b146200222457600080fd5b62002249565b6000836040015160058111156200223d57fe5b14156200224957600080fd5b6001836040015160058111156200225c57fe5b14806200227957506005836040015160058111156200227757fe5b145b156200233d5760006200228c8662001f9b565b90506000600185604001516005811115620022a357fe5b14620022c357620022b3620012ac565b546001600160a01b0316620022c6565b84515b825160405163095ea7b360e01b81529192506001600160a01b03169063095ea7b390620022fc9084906000199060040162003983565b600060405180830381600087803b1580156200231757600080fd5b505af11580156200232c573d6000803e3d6000fd5b505050506200233a62002c93565b50505b600085815260208381526040808320871515845282529182902085518154928701511515600160a01b0260ff60a01b196001600160a01b039092166001600160a01b0319909416939093171691909117808255918501518592829060ff60a81b1916600160a81b836005811115620023b157fe5b0217905550606082015181546080909301516001600160481b0316600160b81b026001600160b81b0360ff909216600160b01b0260ff60b01b1990941693909317169190911790555050505050565b600080620012bb600262002419565b600080620012bb60125b6000620f42408260138111156200242c57fe5b0192915050565b600080620012bb600362002419565b60006200246f7f360894a13ba1a3210667c828492db98dca3e2076cc3735a920a3ca505d382bbc62002542565b546001600160a01b0316905090565b6200248981620011f8565b620024c65760405162461bcd60e51b815260040180806020018281038252602d81526020018062005286602d913960400191505060405180910390fd5b80620024f27f360894a13ba1a3210667c828492db98dca3e2076cc3735a920a3ca505d382bbc62002542565b80546001600160a01b0319166001600160a01b039290921691909117905550565b60606200253b8383604051806060016040528060278152602001620052b36027913962002d06565b9392505050565b90565b62002550816200247e565b6040516001600160a01b038216907fbc7cd75a20ee27fd9adebab32041f755214dbc6bffa90cc0225b39da2e5c2d3b90600090a250565b600080620012bb600562002419565b6000805b848110156200173d57858582818110620025b057fe5b9050602002016020810190620025c79190620038cf565b8783600e8110620025d457fe5b600891828204019190066004026101000a81548163ffffffff021916908363ffffffff16021790555081806001019250508383828181106200261257fe5b9050602002016020810190620026299190620038cf565b8783600e81106200263657fe5b600891828204019190066004026101000a81548163ffffffff021916908363ffffffff160217905550818060010192505080806001019150506200259a565b6000806200268262002e12565b60009384526020525050604090205490565b600080620012bb600762002419565b620026b26020820182620038ec565b60ff16600211158015620026d857506007620026d26020830183620038ec565b60ff1611155b620026f75760405162461bcd60e51b8152600401620004a09062003b16565b60646200270b6080830160608401620038ec565b60ff1613156200272f5760405162461bcd60e51b8152600401620004a09062004136565b6200273e6020820182620038ec565b60ff16620027516101208301836200422c565b9050146200275e57600080fd5b6200276d6020820182620038ec565b60ff16620027806101408301836200422c565b9050146200278d57600080fd5b6200279f60c0820160a08301620038ec565b60ff16620027b5610100830160e08401620038ec565b60ff1610620027c357600080fd5b620027d560a0820160808301620038ec565b60ff16620027ec61012083016101008401620038ec565b60ff1610620027fa57600080fd5b6000620028078362001746565b9050620028186020830183620038ec565b60ff168160ff161115620028405760405162461bcd60e51b8152600401620004a0906200409a565b600060406200285861012085016101008601620038ec565b60ff16901b603862002872610100860160e08701620038ec565b60ff16901b60306200288b60e0870160c08801620038ec565b60ff16901b6028620028a460c0880160a08901620038ec565b60ff16901b6020620028bd60a0890160808a01620038ec565b60ff16901b6018620028d660808a0160608b01620038ec565b60ff16901b6010620028ef60608b0160408c01620038ec565b60ff16901b60086200290860408c0160208d01620038ec565b60ff16901b6200291c60208c018c620038ec565b60ff161717171717171717905060005b6200293c6101208501856200422c565b9050811015620029ea576064620029586101208601866200422c565b838181106200296357fe5b90506020020160208101906200297a9190620038ec565b60ff1613156200299e5760405162461bcd60e51b8152600401620004a09062003cc5565b60486008820201620029b56101208601866200422c565b83818110620029c057fe5b9050602002016020810190620029d79190620038ec565b60ff16901b91909117906001016200292c565b5060005b620029fe6101408501856200422c565b905081101562002aa85762002a186101408501856200422c565b8281811062002a2357fe5b905060200201602081019062002a3a9190620038ec565b60ff1662002a5c5760405162461bcd60e51b8152600401620004a09062003b4d565b6080600882020162002a736101408601866200422c565b8381811062002a7e57fe5b905060200201602081019062002a959190620038ec565b60ff16901b9190911790600101620029ee565b50600062002ab562002e12565b6000958652602052506040909320929092555050565b600080620012bb600f62002419565b600080600062002aeb868562002e21565b5091509150600062002afc62002ec5565b6001600160a01b038816600090815260208290526040812091925062002b23858962002ed4565b90508060001315801562002b3d57506001600160601b0381105b62002b4757600080fd5b81546bffffffffffffffffffffffff19166001600160601b038216176fffffffffffffffffffffffffffffffff60601b1916600160601b6001600160801b0386160217825563ffffffff871062002b9d57600080fd5b5080546001600160e01b0316600160e01b63ffffffff881602179055509150509392505050565b600080620012bb601062002419565b600080620012bb600462002419565b62002bec620031cd565b600062002bf862002694565b6000858152602082815260408083208715158452825291829020825160a08101845281546001600160a01b038116825260ff600160a01b82048116151594830194909452600160b01b81048416600a0a9482019490945293945092916060830191600160a81b90910416600581111562002c6e57fe5b81529154600160b81b90046001600160481b0316602090920191909152949350505050565b600062002c9f620031fc565b3d801562002cb5576020811462002cbf57600080fd5b6001925062002cca565b60206000833e815192505b508162000918576040805162461bcd60e51b8152602060048201526005602482015264045524332360dc1b604482015290519081900360640190fd5b606062002d1384620011f8565b62002d505760405162461bcd60e51b8152600401808060200182810382526026815260200180620052da6026913960400191505060405180910390fd5b600080856001600160a01b0316856040518082805190602001908083835b6020831062002d8f5780518252601f19909201916020918201910162002d6e565b6001836020036101000a038019825116818451168082178552505050505050905001915050600060405180830381855af49150503d806000811462002df1576040519150601f19603f3d011682016040523d82523d6000602084013e62002df6565b606091505b509150915062002e0882828662002eeb565b9695505050505050565b600080620012bb600962002419565b600080600062002e318562002f95565b91945092509050808411801562002e485750600081115b801562002e555750600083115b1562002ebe57600062002e688662002ff3565b505050915050600062002e9762002e8d6305f5e100846200306190919063ffffffff16565b84880387620030bf565b905062002ea58482620030fb565b93506001600160801b03841062002ebb57600080fd5b50505b9250925092565b600080620012bb601162002419565b81810182811215600083121514620012bb57600080fd5b6060831562002efc5750816200253b565b82511562002f0d5782518084602001fd5b8160405162461bcd60e51b81526004018080602001828103825283818151815260200191508051906020019080838360005b8381101562002f5957818101518382015260200162002f3f565b50505050905090810190601f16801562002f875780820380516001836020036101000a031916815260200191505b509250505060405180910390fd5b60008060008062002fa562002ec5565b6001600160a01b0395909516600090815260209590955250506040909220546001600160601b03811693600160601b82046001600160801b03169350600160e01b90910463ffffffff169150565b6000806000806000806200300662002400565b6001600160a01b039097166000908152602097909752505060409094205461ffff81169563ffffffff620100008304811696506601000000000000830416945060ff600160501b8304169350600160581b90910460d81b9150565b6000826200307257506000620012bb565b828202828482816200308057fe5b04146200253b5760405162461bcd60e51b8152600401808060200182810382526021815260200180620052656021913960400191505060405180910390fd5b6000620030f382620030ec6301da9c008188620030e589670de0b6b3a764000062003061565b9062003061565b9062003156565b949350505050565b6000828201838110156200253b576040805162461bcd60e51b815260206004820152601b60248201527f536166654d6174683a206164646974696f6e206f766572666c6f770000000000604482015290519081900360640190fd5b6000808211620031ad576040805162461bcd60e51b815260206004820152601a60248201527f536166654d6174683a206469766973696f6e206279207a65726f000000000000604482015290519081900360640190fd5b818381620031b757fe5b049392505050565b610f7480620042c283390190565b6040805160a0810182526000808252602082018190529181018290529060608201908152602001600081525090565b60405180602001604052806001906020820280368337509192915050565b60008083601f8401126200322c578081fd5b50813567ffffffffffffffff81111562003244578182fd5b60208301915083602080830285010111156200325f57600080fd5b9250929050565b80358015158114620011fd57600080fd5b803560068110620011fd57600080fd5b60008083601f84011262003299578182fd5b50813567ffffffffffffffff811115620032b1578182fd5b6020830191508360208285010111156200325f57600080fd5b60006101608284031215620032dd578081fd5b50919050565b600060a08284031215620032dd578081fd5b803561ffff81168114620011fd57600080fd5b803563ffffffff81168114620011fd57600080fd5b80356001600160481b0381168114620011fd57600080fd5b60006020828403121562003347578081fd5b81356200253b816200429b565b60006020828403121562003366578081fd5b81516200253b816200429b565b6000806040838503121562003386578081fd5b823562003393816200429b565b91506020830135620033a5816200429b565b809150509250929050565b60008060408385031215620033c3578182fd5b8235620033d0816200429b565b9150620033e06020840162003266565b90509250929050565b60008060408385031215620033fc578182fd5b823562003409816200429b565b915060208381013567ffffffffffffffff8082111562003427578384fd5b818601915086601f8301126200343b578384fd5b8135818111156200344857fe5b6200345c601f8201601f1916850162004276565b9150808252878482850101111562003472578485fd5b8084840185840137810190920192909252919491935090915050565b600060208284031215620034a0578081fd5b6200253b8262003277565b60008060008060008060006101e0888a031215620034c7578283fd5b620034d38989620032e3565b9650620034e48960a08a01620032e3565b9550610140880135620034f7816200429b565b945062003508610160890162003266565b93506101808801356200351b81620042b1565b92506101a08801356200352e81620042b1565b91506101c08801356200354181620042b1565b8091505092959891949750929550565b600060a0828403121562003563578081fd5b60405160a0810181811067ffffffffffffffff821117156200358157fe5b604052823562003591816200429b565b8152620035a16020840162003266565b6020820152620035b46040840162003277565b60408201526060830135620035c981620042b1565b6060820152620035dc608084016200331d565b60808201529392505050565b60008060008060006060868803121562003600578283fd5b6200360b86620032f5565b9450602086013567ffffffffffffffff8082111562003628578485fd5b6200363689838a016200321a565b909650945060408801359150808211156200364f578283fd5b506200365e888289016200321a565b969995985093965092949392505050565b60008060008060008060c0878903121562003688578384fd5b6200369387620032f5565b95506020870135620036a5816200429b565b9450620036b56040880162003266565b93506060870135620036c781620042b1565b92506080870135620036d981620042b1565b915060a0870135620036eb81620042b1565b809150509295509295509295565b600080604083850312156200370c578182fd5b6200339383620032f5565b600080600080600080600060a0888a03121562003732578081fd5b6200373d88620032f5565b965060208801356200374f816200429b565b9550604088013567ffffffffffffffff808211156200376c578283fd5b6200377a8b838c01620032ca565b965060608a013591508082111562003790578283fd5b6200379e8b838c0162003287565b909650945060808a0135915080821115620037b7578283fd5b50620037c68a828b0162003287565b989b979a50959850939692959293505050565b60008060408385031215620037ec578182fd5b620037f783620032f5565b9150602083013567ffffffffffffffff81111562003813578182fd5b6200382185828601620032ca565b9150509250929050565b600080604083850312156200383e578182fd5b6200384983620032f5565b9150620033e06020840162003308565b600080604083850312156200386c578182fd5b6200387783620032f5565b9150620033e0602084016200331d565b60008060008060008060c08789031215620038a0578384fd5b620038ab87620032f5565b95506020870135620038bd81620042b1565b94506040870135620036b581620042b1565b600060208284031215620038e1578081fd5b6200253b8262003308565b600060208284031215620038fe578081fd5b81356200253b81620042b1565b6000602082840312156200391d578081fd5b81516200253b81620042b1565b60008284528282602086013780602084860101526020601f19601f85011685010190509392505050565b6001600160a01b0391909116815260200190565b6001600160a01b039290921682521515602082015260400190565b6001600160a01b03929092168252602082015260400190565b6001600160a01b038716815261ffff86166020820152608060408201819052600090620039cd90830186886200392a565b8281036060840152620039e28185876200392a565b9998505050505050505050565b60208082526019908201527f50543a206c65766572616765207368617265206c656e67746800000000000000604082015260600190565b6020808252601690820152750a0a87440e0e4dee0dee4e8d2dedce640d8cadccee8d60531b604082015260600190565b60208082526018908201527f473a206d61782063757272656e6379206f766572666c6f770000000000000000604082015260600190565b60208082526013908201527250543a2063757272656e63792065786973747360681b604082015260600190565b602080825260159082015274473a20696e76616c6964206173736574207261746560581b604082015260600190565b60208082526013908201527254483a2061646472657373206973207a65726f60681b604082015260600190565b60208082526018908201527f43473a20696e76616c6964206d61726b657420696e6465780000000000000000604082015260600190565b60208082526017908201527f43473a20696e76616c69642072617465207363616c6172000000000000000000604082015260600190565b60208082526010908201526f496e76616c69642063757272656e637960801b604082015260600190565b6020808252601b908201527f5265776172646572206d757374206265206120636f6e74726163740000000000604082015260600190565b6020808252600f908201526e125b9d985b1a59081a185a5c98dd5d608a1b604082015260600190565b602080825260149082015273125b9d985b1a59081b195b991a5b99c81c1bdbdb60621b604082015260600190565b6020808252601490820152734e543a20616e63686f722072617465207a65726f60601b604082015260600190565b602080825260129082015271239d1034b73b30b634b21030b230b83a32b960711b604082015260600190565b6020808252601590820152744f776e61626c653a207a65726f206164647265737360581b604082015260600190565b60208082526019908201527f43473a20696e76616c696420746f6b656e206861697263757400000000000000604082015260600190565b602080825260119082015270496e76616c696420646973636f756e747360781b604082015260600190565b60208082526014908201527354483a20696e76616c696420646563696d616c7360601b604082015260600190565b6020808252601a908201527f473a206475706c696361746520746f6b656e206c697374696e67000000000000604082015260600190565b60208082526019908201527f54483a20746f6b656e2063616e6e6f7420626520726573657400000000000000604082015260600190565b6020808252601b908201527f4f70657261746f72206d757374206265206120636f6e74726163740000000000604082015260600190565b6020808252601e908201527f473a20627566666572206d7573742062652067746520646563696d616c730000604082015260600190565b60208082526022908201527f50543a20616e6e75616c697a656420616e63686f72207261746573206c656e676040820152610e8d60f31b606082015260800190565b60208082526016908201527514150e881b195d995c9859d9481d1a1c995cda1bdb1960521b604082015260600190565b6020808252818101527f4f776e61626c653a2063616c6c6572206973206e6f7420746865206f776e6572604082015260600190565b6020808252601f908201527f473a20646973636f756e74206d75737420626520677420646563696d616c7300604082015260600190565b602080825260149082015273556e617574686f72697a6564207570677261646560601b604082015260600190565b6020808252601e908201527f473a20627566666572206d757374206265206c746520646563696d616c730000604082015260600190565b6020808252818101527f4f776e61626c653a2063616c6c657220213d2070656e64696e67206f776e6572604082015260600190565b6020808252601b908201527f473a207a65726f2072617465206f7261636c6520616464726573730000000000604082015260600190565b60208082526016908201527550543a206465706f736974207368617265732073756d60501b604082015260600190565b6020808252600c908201526b496e76616c6964207261746560a01b604082015260600190565b602080825260139082015272125b9d985b1a590818dd5c9c995b98de481a59606a1b604082015260600190565b60208082526018908201527f50543a206465706f736974207368617265206c656e6774680000000000000000604082015260600190565b6020808252818101527f43473a206d61726b657420696e6465782063616e6e6f74206465637265617365604082015260600190565b60208082526018908201527f50543a20746f6b656e2061646472657373206578697374730000000000000000604082015260600190565b602080825260169082015275282a1d1034b73b30b634b210383937b837b93a34b7b760511b604082015260600190565b60208082526019908201527f43473a20696e76616c6964207265736572766520736861726500000000000000604082015260600190565b602080825260129082015271125b9d985b1a59081c1d881a185a5c98dd5d60721b604082015260600190565b602080825260169082015275473a20696e76616c69642072617465206f7261636c6560501b604082015260600190565b61ffff91909116815260200190565b61ffff9290921682526001600160a01b0316602082015260400190565b61ffff92909216825263ffffffff16602082015260400190565b61ffff9290921682526001600160481b0316602082015260400190565b6000808335601e1984360301811262004243578283fd5b83018035915067ffffffffffffffff8211156200425e578283fd5b60209081019250810236038213156200325f57600080fd5b60405181810167ffffffffffffffff811182821017156200429357fe5b604052919050565b6001600160a01b0381168114620007bf57600080fd5b60ff81168114620007bf57600080fdfe60c06040523480156200001157600080fd5b5060405162000f7438038062000f748339810160408190526200003491620001fb565b6001600160601b0319606085901b166080526001600160f01b031960f084901b1660a0526040516200006b908390602001620002c7565b6040516020818303038152906040526000908051906020019062000091929190620000d6565b5080604051602001620000a591906200029c565b60405160208183030381529060405260019080519060200190620000cb929190620000d6565b50505050506200032b565b828054600181600116156101000203166002900490600052602060002090601f0160209004810192826200010e576000855562000159565b82601f106200012957805160ff191683800117855562000159565b8280016001018555821562000159579182015b82811115620001595782518255916020019190600101906200013c565b50620001679291506200016b565b5090565b5b808211156200016757600081556001016200016c565b600082601f83011262000193578081fd5b81516001600160401b0380821115620001a857fe5b604051601f8301601f191681016020018281118282101715620001c757fe5b604052828152848301602001861015620001df578384fd5b620001f2836020830160208801620002f8565b95945050505050565b6000806000806080858703121562000211578384fd5b84516001600160a01b038116811462000228578485fd5b602086015190945061ffff8116811462000240578384fd5b60408601519093506001600160401b03808211156200025d578384fd5b6200026b8883890162000182565b9350606087015191508082111562000281578283fd5b50620002908782880162000182565b91505092959194509250565b6000603760f91b82528251620002ba816001850160208701620002f8565b9190910160010192915050565b6000660372a37b5b2b7160cd1b82528251620002eb816007850160208701620002f8565b9190910160070192915050565b60005b8381101562000315578181015183820152602001620002fb565b8381111562000325576000848401525b50505050565b60805160601c60a05160f01c610bd4620003a06000398061028c5280610420528061047652806105b3528061067c52806106eb52806107a152806108c652508061025d528061039452806104475280610586528061064f52806106be5280610772528061089952806109445250610bd46000f3fe608060405234801561001057600080fd5b50600436106100cf5760003560e01c806370a082311161008c57806395d89b411161006657806395d89b4114610187578063a9059cbb1461018f578063dd62ed3e146101a2578063ec556889146101b5576100cf565b806370a082311461016457806390ab60a71461017757806391cf16a81461017f576100cf565b806306fdde03146100d4578063095ea7b3146100f257806318160ddd146101125780631feeece21461012757806323b872dd1461013c578063313ce5671461014f575b600080fd5b6100dc6101ca565b6040516100e99190610a8d565b60405180910390f35b610105610100366004610a04565b610258565b6040516100e99190610a79565b61011a61037a565b6040516100e99190610a84565b61012f61041e565b6040516100e99190610ae0565b61010561014a3660046109c9565b610442565b610157610567565b6040516100e99190610b90565b61011a61017236600461097d565b61056c565b61011a610635565b61011a6106a4565b6100dc610713565b61010561019d366004610a04565b61076d565b61011a6101b0366004610997565b61087f565b6101bd610942565b6040516100e99190610a65565b6000805460408051602060026001851615610100026000190190941693909304601f810184900484028201840190925281815292918301828280156102505780601f1061022557610100808354040283529160200191610250565b820191906000526020600020905b81548152906001019060200180831161023357829003601f168201915b505050505081565b6000807f00000000000000000000000000000000000000000000000000000000000000006001600160a01b031663309c00a67f00000000000000000000000000000000000000000000000000000000000000003387876040518563ffffffff1660e01b81526004016102cd9493929190610b40565b602060405180830381600087803b1580156102e757600080fd5b505af11580156102fb573d6000803e3d6000fd5b505050506040513d601f19601f8201168201806040525081019061031f9190610a2d565b9050801561037357836001600160a01b0316336001600160a01b03167f8c5be1e5ebec7d5bd14f71427d1e84f3dd0314c0f7b2291e5b200ac8c7c3b9258560405161036a9190610a84565b60405180910390a35b9392505050565b604051636a96e86f60e01b81526000906001600160a01b037f00000000000000000000000000000000000000000000000000000000000000001690636a96e86f906103c9903090600401610a65565b60206040518083038186803b1580156103e157600080fd5b505afa1580156103f5573d6000803e3d6000fd5b505050506040513d601f19601f820116820180604052508101906104199190610a4d565b905090565b7f000000000000000000000000000000000000000000000000000000000000000081565b6000807f00000000000000000000000000000000000000000000000000000000000000006001600160a01b031663884a70927f0000000000000000000000000000000000000000000000000000000000000000338888886040518663ffffffff1660e01b81526004016104b9959493929190610b0c565b602060405180830381600087803b1580156104d357600080fd5b505af11580156104e7573d6000803e3d6000fd5b505050506040513d601f19601f8201168201806040525081019061050b9190610a2d565b9050801561055f57836001600160a01b0316856001600160a01b03167fddf252ad1be2c89b69c2b068fc378daa952ba7f163c4a11628f55a4df523b3ef856040516105569190610a84565b60405180910390a35b949350505050565b600881565b60405163a78dbfff60e01b81526000906001600160a01b037f0000000000000000000000000000000000000000000000000000000000000000169063a78dbfff906105dd907f0000000000000000000000000000000000000000000000000000000000000000908690600401610aef565b60206040518083038186803b1580156105f557600080fd5b505afa158015610609573d6000803e3d6000fd5b505050506040513d601f19601f8201168201806040525081019061062d9190610a4d565b90505b919050565b604051631a05bce160e01b81526000906001600160a01b037f00000000000000000000000000000000000000000000000000000000000000001690631a05bce1906103c9907f000000000000000000000000000000000000000000000000000000000000000090600401610ae0565b604051633b2987b360e01b81526000906001600160a01b037f00000000000000000000000000000000000000000000000000000000000000001690633b2987b3906103c9907f000000000000000000000000000000000000000000000000000000000000000090600401610ae0565b60018054604080516020600284861615610100026000190190941693909304601f810184900484028201840190925281815292918301828280156102505780601f1061022557610100808354040283529160200191610250565b6000807f00000000000000000000000000000000000000000000000000000000000000006001600160a01b03166318ae40d77f00000000000000000000000000000000000000000000000000000000000000003387876040518563ffffffff1660e01b81526004016107e29493929190610b40565b602060405180830381600087803b1580156107fc57600080fd5b505af1158015610810573d6000803e3d6000fd5b505050506040513d601f19601f820116820180604052508101906108349190610a2d565b9050801561037357836001600160a01b0316336001600160a01b03167fddf252ad1be2c89b69c2b068fc378daa952ba7f163c4a11628f55a4df523b3ef8560405161036a9190610a84565b604051637db31ab960e01b81526000906001600160a01b037f00000000000000000000000000000000000000000000000000000000000000001690637db31ab9906108f2907f00000000000000000000000000000000000000000000000000000000000000009087908790600401610b6b565b60206040518083038186803b15801561090a57600080fd5b505afa15801561091e573d6000803e3d6000fd5b505050506040513d601f19601f820116820180604052508101906103739190610a4d565b7f000000000000000000000000000000000000000000000000000000000000000081565b80356001600160a01b038116811461063057600080fd5b60006020828403121561098e578081fd5b61037382610966565b600080604083850312156109a9578081fd5b6109b283610966565b91506109c060208401610966565b90509250929050565b6000806000606084860312156109dd578081fd5b6109e684610966565b92506109f460208501610966565b9150604084013590509250925092565b60008060408385031215610a16578182fd5b610a1f83610966565b946020939093013593505050565b600060208284031215610a3e578081fd5b81518015158114610373578182fd5b600060208284031215610a5e578081fd5b5051919050565b6001600160a01b0391909116815260200190565b901515815260200190565b90815260200190565b6000602080835283518082850152825b81811015610ab957858101830151858201604001528201610a9d565b81811115610aca5783604083870101525b50601f01601f1916929092016040019392505050565b61ffff91909116815260200190565b61ffff9290921682526001600160a01b0316602082015260400190565b61ffff9590951685526001600160a01b03938416602086015291831660408501529091166060830152608082015260a00190565b61ffff9490941684526001600160a01b03928316602085015291166040830152606082015260800190565b61ffff9390931683526001600160a01b03918216602084015216604082015260600190565b60ff9190911681526020019056fea2646970667358221220452886d9411fd0bcde4615ceb4b6d0dee58dd9a7a7e24a6a5055a7e50cb44e8564736f6c6343000706003345524331393637557067726164653a207570677261646520627265616b732066757274686572207570677261646573536166654d6174683a206d756c7469706c69636174696f6e206f766572666c6f77455243313936373a206e657720696d706c656d656e746174696f6e206973206e6f74206120636f6e7472616374416464726573733a206c6f772d6c6576656c2064656c65676174652063616c6c206661696c6564416464726573733a2064656c65676174652063616c6c20746f206e6f6e2d636f6e7472616374a2646970667358221220ecc3691080984b589c97c6f58b2e4bc9c9636f383c1d4b528fe1aec7a954bdaf64736f6c63430007060033","bytecodeSha1":"3fc305e68b7e5b032491396d19df1beb2301011a","type":"contract","abi":[{"anonymous":false,"inputs":[{"indexed":false,"internalType":"address","name":"previousAdmin","type":"address"},{"indexed":false,"internalType":"address","name":"newAdmin","type":"address"}],"name":"AdminChanged","type":"event"},{"anonymous":false,"inputs":[{"indexed":true,"internalType":"address","name":"beacon","type":"address"}],"name":"BeaconUpgraded","type":"event"},{"anonymous":false,"inputs":[{"indexed":false,"internalType":"uint16","name":"currencyId","type":"uint16"},{"indexed":false,"internalType":"address","name":"nTokenAddress","type":"address"}],"name":"DeployNToken","type":"event"},{"anonymous":false,"inputs":[{"indexed":false,"internalType":"uint16","name":"newCurrencyId","type":"uint16"}],"name":"ListCurrency","type":"event"},{"anonymous":false,"inputs":[{"indexed":true,"internalType":"address","name":"previousOwner","type":"address"},{"indexed":true,"internalType":"address","name":"newOwner","type":"address"}],"name":"OwnershipTransferred","type":"event"},{"anonymous":false,"inputs":[{"indexed":true,"internalType":"address","name":"pauseRouter","type":"address"},{"indexed":true,"internalType":"address","name":"pauseGuardian","type":"address"}],"name":"PauseRouterAndGuardianUpdated","type":"event"},{"anonymous":false,"inputs":[{"indexed":false,"internalType":"uint16","name":"currencyId","type":"uint16"}],"name":"UpdateAssetRate","type":"event"},{"anonymous":false,"inputs":[{"indexed":false,"internalType":"address","name":"operator","type":"address"},{"indexed":false,"internalType":"bool","name":"approved","type":"bool"}],"name":"UpdateAuthorizedCallbackContract","type":"event"},{"anonymous":false,"inputs":[{"indexed":false,"internalType":"uint16","name":"currencyId","type":"uint16"}],"name":"UpdateCashGroup","type":"event"},{"anonymous":false,"inputs":[{"indexed":false,"internalType":"uint16","name":"currencyId","type":"uint16"}],"name":"UpdateDepositParameters","type":"event"},{"anonymous":false,"inputs":[{"indexed":false,"internalType":"uint16","name":"currencyId","type":"uint16"}],"name":"UpdateETHRate","type":"event"},{"anonymous":false,"inputs":[{"indexed":false,"internalType":"address","name":"operator","type":"address"},{"indexed":false,"internalType":"bool","name":"approved","type":"bool"}],"name":"UpdateGlobalTransferOperator","type":"event"},{"anonymous":false,"inputs":[{"indexed":false,"internalType":"uint16","name":"currencyId","type":"uint16"},{"indexed":false,"internalType":"uint32","name":"newEmissionRate","type":"uint32"}],"name":"UpdateIncentiveEmissionRate","type":"event"},{"anonymous":false,"inputs":[{"indexed":false,"internalType":"uint16","name":"currencyId","type":"uint16"}],"name":"UpdateInitializationParameters","type":"event"},{"anonymous":false,"inputs":[{"indexed":false,"internalType":"address","name":"pool","type":"address"}],"name":"UpdateLendingPool","type":"event"},{"anonymous":false,"inputs":[{"indexed":false,"internalType":"uint16","name":"currencyId","type":"uint16"},{"indexed":false,"internalType":"uint72","name":"maxCollateralBalance","type":"uint72"}],"name":"UpdateMaxCollateralBalance","type":"event"},{"anonymous":false,"inputs":[{"indexed":true,"internalType":"uint16","name":"currencyId","type":"uint16"},{"indexed":false,"internalType":"address","name":"rewarder","type":"address"}],"name":"UpdateSecondaryIncentiveRewarder","type":"event"},{"anonymous":false,"inputs":[{"indexed":false,"internalType":"uint16","name":"currencyId","type":"uint16"}],"name":"UpdateTokenCollateralParameters","type":"event"},{"anonymous":false,"inputs":[{"indexed":true,"internalType":"address","name":"implementation","type":"address"}],"name":"Upgraded","type":"event"},{"inputs":[],"name":"claimOwnership","outputs":[],"stateMutability":"nonpayable","type":"function"},{"inputs":[{"internalType":"uint16","name":"currencyId","type":"uint16"},{"internalType":"contract AssetRateAdapter","name":"assetRateOracle","type":"address"},{"components":[{"internalType":"uint8","name":"maxMarketIndex","type":"uint8"},{"internalType":"uint8","name":"rateOracleTimeWindow5Min","type":"uint8"},{"internalType":"uint8","name":"totalFeeBPS","type":"uint8"},{"internalType":"uint8","name":"reserveFeeShare","type":"uint8"},{"internalType":"uint8","name":"debtBuffer5BPS","type":"uint8"},{"internalType":"uint8","name":"fCashHaircut5BPS","type":"uint8"},{"internalType":"uint8","name":"settlementPenaltyRate5BPS","type":"uint8"},{"internalType":"uint8","name":"liquidationfCashHaircut5BPS","type":"uint8"},{"internalType":"uint8","name":"liquidationDebtBuffer5BPS","type":"uint8"},{"internalType":"uint8[]","name":"liquidityTokenHaircuts","type":"uint8[]"},{"internalType":"uint8[]","name":"rateScalars","type":"uint8[]"}],"internalType":"struct CashGroupSettings","name":"cashGroup","type":"tuple"},{"internalType":"string","name":"underlyingName","type":"string"},{"internalType":"string","name":"underlyingSymbol","type":"string"}],"name":"enableCashGroup","outputs":[],"stateMutability":"nonpayable","type":"function"},{"inputs":[{"components":[{"internalType":"address","name":"tokenAddress","type":"address"},{"internalType":"bool","name":"hasTransferFee","type":"bool"},{"internalType":"enum TokenType","name":"tokenType","type":"uint8"},{"internalType":"uint8","name":"decimalPlaces","type":"uint8"},{"internalType":"uint72","name":"maxCollateralBalance","type":"uint72"}],"internalType":"struct TokenStorage","name":"assetToken","type":"tuple"},{"components":[{"internalType":"address","name":"tokenAddress","type":"address"},{"internalType":"bool","name":"hasTransferFee","type":"bool"},{"internalType":"enum TokenType","name":"tokenType","type":"uint8"},{"internalType":"uint8","name":"decimalPlaces","type":"uint8"},{"internalType":"uint72","name":"maxCollateralBalance","type":"uint72"}],"internalType":"struct TokenStorage","name":"underlyingToken","type":"tuple"},{"internalType":"contract AggregatorV2V3Interface","name":"rateOracle","type":"address"},{"internalType":"bool","name":"mustInvert","type":"bool"},{"internalType":"uint8","name":"buffer","type":"uint8"},{"internalType":"uint8","name":"haircut","type":"uint8"},{"internalType":"uint8","name":"liquidationDiscount","type":"uint8"}],"name":"listCurrency","outputs":[{"internalType":"uint16","name":"","type":"uint16"}],"stateMutability":"nonpayable","type":"function"},{"inputs":[],"name":"owner","outputs":[{"internalType":"address","name":"","type":"address"}],"stateMutability":"view","type":"function"},{"inputs":[],"name":"pauseGuardian","outputs":[{"internalType":"address","name":"","type":"address"}],"stateMutability":"view","type":"function"},{"inputs":[],"name":"pauseRouter","outputs":[{"internalType":"address","name":"","type":"address"}],"stateMutability":"view","type":"function"},{"inputs":[{"internalType":"contract ILendingPool","name":"pool","type":"address"}],"name":"setLendingPool","outputs":[],"stateMutability":"nonpayable","type":"function"},{"inputs":[{"internalType":"address","name":"pauseRouter_","type":"address"},{"internalType":"address","name":"pauseGuardian_","type":"address"}],"name":"setPauseRouterAndGuardian","outputs":[],"stateMutability":"nonpayable","type":"function"},{"inputs":[{"internalType":"uint16","name":"currencyId","type":"uint16"},{"internalType":"contract IRewarder","name":"rewarder","type":"address"}],"name":"setSecondaryIncentiveRewarder","outputs":[],"stateMutability":"nonpayable","type":"function"},{"inputs":[{"internalType":"address","name":"newOwner","type":"address"},{"internalType":"bool","name":"direct","type":"bool"}],"name":"transferOwnership","outputs":[],"stateMutability":"nonpayable","type":"function"},{"inputs":[{"internalType":"uint16","name":"currencyId","type":"uint16"},{"internalType":"contract AssetRateAdapter","name":"rateOracle","type":"address"}],"name":"updateAssetRate","outputs":[],"stateMutability":"nonpayable","type":"function"},{"inputs":[{"internalType":"address","name":"operator","type":"address"},{"internalType":"bool","name":"approved","type":"bool"}],"name":"updateAuthorizedCallbackContract","outputs":[],"stateMutability":"nonpayable","type":"function"},{"inputs":[{"internalType":"uint16","name":"currencyId","type":"uint16"},{"components":[{"internalType":"uint8","name":"maxMarketIndex","type":"uint8"},{"internalType":"uint8","name":"rateOracleTimeWindow5Min","type":"uint8"},{"internalType":"uint8","name":"totalFeeBPS","type":"uint8"},{"internalType":"uint8","name":"reserveFeeShare","type":"uint8"},{"internalType":"uint8","name":"debtBuffer5BPS","type":"uint8"},{"internalType":"uint8","name":"fCashHaircut5BPS","type":"uint8"},{"internalType":"uint8","name":"settlementPenaltyRate5BPS","type":"uint8"},{"internalType":"uint8","name":"liquidationfCashHaircut5BPS","type":"uint8"},{"internalType":"uint8","name":"liquidationDebtBuffer5BPS","type":"uint8"},{"internalType":"uint8[]","name":"liquidityTokenHaircuts","type":"uint8[]"},{"internalType":"uint8[]","name":"rateScalars","type":"uint8[]"}],"internalType":"struct CashGroupSettings","name":"cashGroup","type":"tuple"}],"name":"updateCashGroup","outputs":[],"stateMutability":"nonpayable","type":"function"},{"inputs":[{"internalType":"uint16","name":"currencyId","type":"uint16"},{"internalType":"uint32[]","name":"depositShares","type":"uint32[]"},{"internalType":"uint32[]","name":"leverageThresholds","type":"uint32[]"}],"name":"updateDepositParameters","outputs":[],"stateMutability":"nonpayable","type":"function"},{"inputs":[{"internalType":"uint16","name":"currencyId","type":"uint16"},{"internalType":"contract AggregatorV2V3Interface","name":"rateOracle","type":"address"},{"internalType":"bool","name":"mustInvert","type":"bool"},{"internalType":"uint8","name":"buffer","type":"uint8"},{"internalType":"uint8","name":"haircut","type":"uint8"},{"internalType":"uint8","name":"liquidationDiscount","type":"uint8"}],"name":"updateETHRate","outputs":[],"stateMutability":"nonpayable","type":"function"},{"inputs":[{"internalType":"address","name":"operator","type":"address"},{"internalType":"bool","name":"approved","type":"bool"}],"name":"updateGlobalTransferOperator","outputs":[],"stateMutability":"nonpayable","type":"function"},{"inputs":[{"internalType":"uint16","name":"currencyId","type":"uint16"},{"internalType":"uint32","name":"newEmissionRate","type":"uint32"}],"name":"updateIncentiveEmissionRate","outputs":[],"stateMutability":"nonpayable","type":"function"},{"inputs":[{"internalType":"uint16","name":"currencyId","type":"uint16"},{"internalType":"uint32[]","name":"annualizedAnchorRates","type":"uint32[]"},{"internalType":"uint32[]","name":"proportions","type":"uint32[]"}],"name":"updateInitializationParameters","outputs":[],"stateMutability":"nonpayable","type":"function"},{"inputs":[{"internalType":"uint16","name":"currencyId","type":"uint16"},{"internalType":"uint72","name":"maxCollateralBalanceInternalPrecision","type":"uint72"}],"name":"updateMaxCollateralBalance","outputs":[],"stateMutability":"nonpayable","type":"function"},{"inputs":[{"internalType":"uint16","name":"currencyId","type":"uint16"},{"internalType":"uint8","name":"residualPurchaseIncentive10BPS","type":"uint8"},{"internalType":"uint8","name":"pvHaircutPercentage","type":"uint8"},{"internalType":"uint8","name":"residualPurchaseTimeBufferHours","type":"uint8"},{"internalType":"uint8","name":"cashWithholdingBuffer10BPS","type":"uint8"},{"internalType":"uint8","name":"liquidationHaircutPercentage","type":"uint8"}],"name":"updateTokenCollateralParameters","outputs":[],"stateMutability":"nonpayable","type":"function"},{"inputs":[{"internalType":"address","name":"newImplementation","type":"address"}],"name":"upgradeTo","outputs":[],"stateMutability":"nonpayable","type":"function"},{"inputs":[{"internalType":"address","name":"newImplementation","type":"address"},{"internalType":"bytes","name":"data","type":"bytes"}],"name":"upgradeToAndCall","outputs":[],"stateMutability":"payable","type":"function"}],"compiler":{"version":"0.7.6+commit.7338295f","evm_version":"istanbul","optimizer":{"enabled":true,"runs":200}},"contractName":"GovernanceAction","language":"Solidity","natspec":{"methods":{"enableCashGroup(uint16,address,(uint8,uint8,uint8,uint8,uint8,uint8,uint8,uint8,uint8,uint8[],uint8[]),string,string)":{"notice":"Enables a cash group on a given currency so that it can have lend and borrow markets. Will also deploy an nToken contract so that markets can be initialized.","details":"emit:UpdateCashGroup emit:UpdateAssetRate emit:DeployNToken","params":{"assetRateOracle":"address of the rate oracle for converting interest bearing assets to underlying values","cashGroup":"parameters for the cash group","currencyId":"id of the currency to enable","underlyingName":"underlying token name for seeding nToken name","underlyingSymbol":"underlying token symbol for seeding nToken symbol (i.e. nDAI)"}},"listCurrency((address,bool,uint8,uint8,uint72),(address,bool,uint8,uint8,uint72),address,bool,uint8,uint8,uint8)":{"notice":"Lists a new currency along with its exchange rate to ETH","details":"emit:ListCurrency emit:UpdateETHRate","params":{"assetToken":"the token parameters for the asset token","buffer":"multiplier (>= 100) for negative balances when calculating free collateral","haircut":"multiplier (<= 100) for positive balances when calculating free collateral","liquidationDiscount":"multiplier (>= 100) for exchange rate when liquidating","mustInvert":"if the rate from the oracle needs to be inverted","rateOracle":"ETH to underlying rate oracle","underlyingToken":"the underlying token (if asset token is an interest bearing wrapper)"},"returns":{"_0":"the new currency id"}},"setLendingPool(address)":{"notice":"Updates the lending pool address used by AaveHandler","details":"emit:UpdateLendingPool","params":{"pool":"lending pool address"}},"setSecondaryIncentiveRewarder(uint16,address)":{"notice":"Sets a secondary incentive rewarder for a currency. This contract will be called whenever an nToken balance changes and allows a secondary contract to mint incentives to the account. This will override any previous rewarder, if set. Will have no effect if there is no nToken corresponding to the currency id.","details":"emit:UpdateSecondaryIncentiveRewarder","params":{"currencyId":"currency id of the nToken","rewarder":"rewarder contract"}},"transferOwnership(address,bool)":{"notice":"Transfers ownership to `newOwner`. Either directly or claimable by the new pending owner. Can only be invoked by the current `owner`.","params":{"direct":"True if `newOwner` should be set immediately. False if `newOwner` needs to use `claimOwnership`.","newOwner":"Address of the new owner."}},"updateAssetRate(uint16,address)":{"notice":"Updates asset rate oracle","details":"emit:UpdateAssetRate","params":{"currencyId":"id of the currency","rateOracle":"new rate oracle for the asset"}},"updateAuthorizedCallbackContract(address,bool)":{"notice":"Approves contracts that can call `batchTradeActionWithCallback`. These contracts can \"flash loan\" from Notional V2 and receive a callback before the free collateral check. Flash loans via the Notional V2 liquidity pool are not very gas efficient so this is not generally available, it can be used for migrating borrows into Notional V2 from other platforms.","details":"emit:UpdateAuthorizedCallbackContract","params":{"approved":"true if the contract is authorized","operator":"address of the contract"}},"updateCashGroup(uint16,(uint8,uint8,uint8,uint8,uint8,uint8,uint8,uint8,uint8,uint8[],uint8[]))":{"notice":"Updates cash group parameters","details":"emit:UpdateCashGroup","params":{"cashGroup":"new parameters for the cash group","currencyId":"id of the currency to enable"}},"updateDepositParameters(uint16,uint32[],uint32[])":{"notice":"Updates the deposit parameters for an nToken","details":"emit:UpdateDepositParameters","params":{"currencyId":"the currency id that the nToken references","depositShares":"an array of values that represent the proportion of each deposit that will go to a respective market, must add up to DEPOSIT_PERCENT_BASIS. For example, 0.40e8, 0.40e8 and 0.20e8 will result in 40%, 40% and 20% deposited as liquidity into the 3 month, 6 month and 1 year markets.","leverageThresholds":"an array of values denominated in RATE_PRECISION that mark the highest proportion of fCash where the nToken will provide liquidity. Above this proportion, the nToken will lend to the market instead to reduce the leverage in the market."}},"updateETHRate(uint16,address,bool,uint8,uint8,uint8)":{"notice":"Updates ETH exchange rate or related parameters","details":"emit:UpdateETHRate","params":{"buffer":"multiplier (>= 100) for negative balances when calculating free collateral","currencyId":"id of the currency","haircut":"multiplier (<= 100) for positive balances when calculating free collateral","liquidationDiscount":"multiplier (>= 100) for exchange rate when liquidating","mustInvert":"if the rate from the oracle needs to be inverted","rateOracle":"ETH to underlying rate oracle"}},"updateGlobalTransferOperator(address,bool)":{"notice":"Sets a global transfer operator that can do authenticated ERC1155 transfers. This enables OTC trading or other use cases such as layer 2 authenticated transfers.","details":"emit:UpdateGlobalTransferOperator","params":{"approved":"true if the operator is allowed to transfer globally","operator":"address of the operator"}},"updateIncentiveEmissionRate(uint16,uint32)":{"notice":"Updates the emission rate of incentives for a given currency","details":"emit:UpdateIncentiveEmissionRate","params":{"currencyId":"the currency id that the nToken references","newEmissionRate":"Target total incentives to emit for an nToken over an entire year denominated in WHOLE TOKENS (i.e. setting this to 1 means 1e8 tokens). The rate will not be exact due to multiplier effects and fluctuating token supply."}},"updateInitializationParameters(uint16,uint32[],uint32[])":{"notice":"Updates the market initialization parameters for an nToken","details":"emit:UpdateInitializationParameters","params":{"annualizedAnchorRates":"is a target interest rate that will be used to calculate a  rate anchor during initialize markets. This rate anchor will set the offset from the x-axis where the liquidity curve will be initialized. This is used in combination with previous market rates to determine the initial proportion where markets will be initialized every quarter.","currencyId":"the currency id that the nToken references","proportions":"used to combination with annualizedAnchorRate set the initial proportion when a market is first initialized. This is required since there is no previous rate to reference."}},"updateMaxCollateralBalance(uint16,uint72)":{"notice":"Sets a maximum balance on a given currency. Max collateral balance cannot be set on a currency that is actively used in trading, this may cause issues with liquidation. Also, max collateral balance is only set on asset tokens (not underlying tokens) because underlying tokens are not held as contract balances.","details":"emit:UpdateMaxCollateralBalance","params":{"currencyId":"id of the currency to set the max collateral balance on","maxCollateralBalanceInternalPrecision":"amount of collateral balance that can be held in this currency denominated in internal token precision"}},"updateTokenCollateralParameters(uint16,uint8,uint8,uint8,uint8,uint8)":{"notice":"Updates collateralization parameters for an nToken","details":"emit:UpdateTokenCollateralParameters","params":{"cashWithholdingBuffer10BPS":"nToken residuals may be negative fCash (debt), in this case cash is withheld to transfer to accounts that take on the debt. This parameter denominates the discounted rate at which the cash will be withheld at for this purpose.","currencyId":"the currency id that the nToken references","liquidationHaircutPercentage":"a percentage of nToken present value (> pvHaircutPercentage and <= 100) at which liquidators will purchase nTokens during liquidation","pvHaircutPercentage":"a percentage (< 100) that the present value of the nToken's assets will be valued at for the purposes of free collateral, relevant when accounts hold nTokens as collateral against debts.","residualPurchaseIncentive10BPS":"nTokens will have residual amounts of fCash at the end of each quarter that are \"dead weight\" because they are at idiosyncratic maturities and do not contribute to actively providing liquidity. This parameter will incentivize market participants to purchase these residuals at a discount from the on chain oracle rate, denominated in 10 basis point increments. These residuals will be added back into nToken balances and will be used to provide liquidity upon the next market initialization.","residualPurchaseTimeBufferHours":"an arbitrage opportunity is available by pushing markets in one direction before quarterly settlement to generate large residual balances that can be purchased at a discount. The time buffer here ensures that anyone attempting such an act would have to wait some number of hours (likely a few days) before they could attempt to purchase residuals, ensuring that the market could realign to rates where the arbitrage is no longer possible."}},"upgradeTo(address)":{"details":"Upgrade the implementation of the proxy to `newImplementation`. Calls {_authorizeUpgrade}. Emits an {Upgraded} event."},"upgradeToAndCall(address,bytes)":{"details":"Upgrade the implementation of the proxy to `newImplementation`, and subsequently execute the function call encoded in `data`. Calls {_authorizeUpgrade}. Emits an {Upgraded} event."},"setPauseRouterAndGuardian(address,address)":{"notice":"Sets a new pause router and guardian address."},"claimOwnership()":{"notice":"Needs to be called by `pendingOwner` to claim ownership."}},"kind":"dev","notice":"Governance methods can only be called by the governance contract","version":1},"opcodes":"PUSH1 0x80 PUSH1 0x40 MSTORE PUSH1 0x4 CALLDATASIZE LT PUSH3 0x152 JUMPI PUSH1 0x0 CALLDATALOAD PUSH1 0xE0 SHR DUP1 PUSH4 0x8DA5CB5B GT PUSH3 0xBB JUMPI DUP1 PUSH4 0xB242E534 GT PUSH3 0x79 JUMPI DUP1 PUSH4 0xB242E534 EQ PUSH3 0x37F JUMPI DUP1 PUSH4 0xC572CAE4 EQ PUSH3 0x3A4 JUMPI DUP1 PUSH4 0xCFAAF474 EQ PUSH3 0x3C9 JUMPI DUP1 PUSH4 0xE31051A1 EQ PUSH3 0x3EE JUMPI DUP1 PUSH4 0xF575E4E2 EQ PUSH3 0x413 JUMPI DUP1 PUSH4 0xFA17B5F1 EQ PUSH3 0x447 JUMPI PUSH3 0x152 JUMP JUMPDEST DUP1 PUSH4 0x8DA5CB5B EQ PUSH3 0x2D3 JUMPI DUP1 PUSH4 0x98DCBC23 EQ PUSH3 0x2EB JUMPI DUP1 PUSH4 0xA11A4293 EQ PUSH3 0x310 JUMPI DUP1 PUSH4 0xA508ECA0 EQ PUSH3 0x335 JUMPI DUP1 PUSH4 0xA9D7BC52 EQ PUSH3 0x35A JUMPI PUSH3 0x152 JUMP JUMPDEST DUP1 PUSH4 0x3659CFE6 GT PUSH3 0x115 JUMPI DUP1 PUSH4 0x3659CFE6 EQ PUSH3 0x21D JUMPI DUP1 PUSH4 0x413F2C5F EQ PUSH3 0x242 JUMPI DUP1 PUSH4 0x4E71E0C8 EQ PUSH3 0x267 JUMPI DUP1 PUSH4 0x4F1EF286 EQ PUSH3 0x27F JUMPI DUP1 PUSH4 0x744EC0EF EQ PUSH3 0x296 JUMPI DUP1 PUSH4 0x82463367 EQ PUSH3 0x2BB JUMPI PUSH3 0x152 JUMP JUMPDEST DUP1 PUSH4 0x38AF5DC EQ PUSH3 0x157 JUMPI DUP1 PUSH4 0x113AA8B1 EQ PUSH3 0x17E JUMPI DUP1 PUSH4 0x24A3D622 EQ PUSH3 0x1A3 JUMPI DUP1 PUSH4 0x3436A19C EQ PUSH3 0x1D3 JUMPI DUP1 PUSH4 0x353ABC5D EQ PUSH3 0x1F8 JUMPI JUMPDEST PUSH1 0x0 DUP1 REVERT JUMPDEST CALLVALUE DUP1 ISZERO PUSH3 0x164 JUMPI PUSH1 0x0 DUP1 REVERT JUMPDEST POP PUSH3 0x17C PUSH3 0x176 CALLDATASIZE PUSH1 0x4 PUSH3 0x36F9 JUMP JUMPDEST PUSH3 0x46C JUMP JUMPDEST STOP JUMPDEST CALLVALUE DUP1 ISZERO PUSH3 0x18B JUMPI PUSH1 0x0 DUP1 REVERT JUMPDEST POP PUSH3 0x17C PUSH3 0x19D CALLDATASIZE PUSH1 0x4 PUSH3 0x3335 JUMP JUMPDEST PUSH3 0x52C JUMP JUMPDEST CALLVALUE DUP1 ISZERO PUSH3 0x1B0 JUMPI PUSH1 0x0 DUP1 REVERT JUMPDEST POP PUSH3 0x1BB PUSH3 0x605 JUMP JUMPDEST PUSH1 0x40 MLOAD PUSH3 0x1CA SWAP2 SWAP1 PUSH3 0x3954 JUMP JUMPDEST PUSH1 0x40 MLOAD DUP1 SWAP2 SUB SWAP1 RETURN JUMPDEST CALLVALUE DUP1 ISZERO PUSH3 0x1E0 JUMPI PUSH1 0x0 DUP1 REVERT JUMPDEST POP PUSH3 0x17C PUSH3 0x1F2 CALLDATASIZE PUSH1 0x4 PUSH3 0x3887 JUMP JUMPDEST PUSH3 0x614 JUMP JUMPDEST CALLVALUE DUP1 ISZERO PUSH3 0x205 JUMPI PUSH1 0x0 DUP1 REVERT JUMPDEST POP PUSH3 0x17C PUSH3 0x217 CALLDATASIZE PUSH1 0x4 PUSH3 0x33B0 JUMP JUMPDEST PUSH3 0x6E1 JUMP JUMPDEST CALLVALUE DUP1 ISZERO PUSH3 0x22A JUMPI PUSH1 0x0 DUP1 REVERT JUMPDEST POP PUSH3 0x17C PUSH3 0x23C CALLDATASIZE PUSH1 0x4 PUSH3 0x3335 JUMP JUMPDEST PUSH3 0x797 JUMP JUMPDEST CALLVALUE DUP1 ISZERO PUSH3 0x24F JUMPI PUSH1 0x0 DUP1 REVERT JUMPDEST POP PUSH3 0x17C PUSH3 0x261 CALLDATASIZE PUSH1 0x4 PUSH3 0x35E8 JUMP JUMPDEST PUSH3 0x7C2 JUMP JUMPDEST CALLVALUE DUP1 ISZERO PUSH3 0x274 JUMPI PUSH1 0x0 DUP1 REVERT JUMPDEST POP PUSH3 0x17C PUSH3 0x854 JUMP JUMPDEST PUSH3 0x17C PUSH3 0x290 CALLDATASIZE PUSH1 0x4 PUSH3 0x33E9 JUMP JUMPDEST PUSH3 0x8FF JUMP JUMPDEST CALLVALUE DUP1 ISZERO PUSH3 0x2A3 JUMPI PUSH1 0x0 DUP1 REVERT JUMPDEST POP PUSH3 0x17C PUSH3 0x2B5 CALLDATASIZE PUSH1 0x4 PUSH3 0x3373 JUMP JUMPDEST PUSH3 0x91C JUMP JUMPDEST CALLVALUE DUP1 ISZERO PUSH3 0x2C8 JUMPI PUSH1 0x0 DUP1 REVERT JUMPDEST POP PUSH3 0x1BB PUSH3 0x9AE JUMP JUMPDEST CALLVALUE DUP1 ISZERO PUSH3 0x2E0 JUMPI PUSH1 0x0 DUP1 REVERT JUMPDEST POP PUSH3 0x1BB PUSH3 0x9BD JUMP JUMPDEST CALLVALUE DUP1 ISZERO PUSH3 0x2F8 JUMPI PUSH1 0x0 DUP1 REVERT JUMPDEST POP PUSH3 0x17C PUSH3 0x30A CALLDATASIZE PUSH1 0x4 PUSH3 0x3859 JUMP JUMPDEST PUSH3 0x9D3 JUMP JUMPDEST CALLVALUE DUP1 ISZERO PUSH3 0x31D JUMPI PUSH1 0x0 DUP1 REVERT JUMPDEST POP PUSH3 0x17C PUSH3 0x32F CALLDATASIZE PUSH1 0x4 PUSH3 0x37D9 JUMP JUMPDEST PUSH3 0xA82 JUMP JUMPDEST CALLVALUE DUP1 ISZERO PUSH3 0x342 JUMPI PUSH1 0x0 DUP1 REVERT JUMPDEST POP PUSH3 0x17C PUSH3 0x354 CALLDATASIZE PUSH1 0x4 PUSH3 0x36F9 JUMP JUMPDEST PUSH3 0xACD JUMP JUMPDEST CALLVALUE DUP1 ISZERO PUSH3 0x367 JUMPI PUSH1 0x0 DUP1 REVERT JUMPDEST POP PUSH3 0x17C PUSH3 0x379 CALLDATASIZE PUSH1 0x4 PUSH3 0x382B JUMP JUMPDEST PUSH3 0xB18 JUMP JUMPDEST CALLVALUE DUP1 ISZERO PUSH3 0x38C JUMPI PUSH1 0x0 DUP1 REVERT JUMPDEST POP PUSH3 0x17C PUSH3 0x39E CALLDATASIZE PUSH1 0x4 PUSH3 0x33B0 JUMP JUMPDEST PUSH3 0xC0C JUMP JUMPDEST CALLVALUE DUP1 ISZERO PUSH3 0x3B1 JUMPI PUSH1 0x0 DUP1 REVERT JUMPDEST POP PUSH3 0x17C PUSH3 0x3C3 CALLDATASIZE PUSH1 0x4 PUSH3 0x366F JUMP JUMPDEST PUSH3 0xD0C JUMP JUMPDEST CALLVALUE DUP1 ISZERO PUSH3 0x3D6 JUMPI PUSH1 0x0 DUP1 REVERT JUMPDEST POP PUSH3 0x17C PUSH3 0x3E8 CALLDATASIZE PUSH1 0x4 PUSH3 0x35E8 JUMP JUMPDEST PUSH3 0xD63 JUMP JUMPDEST CALLVALUE DUP1 ISZERO PUSH3 0x3FB JUMPI PUSH1 0x0 DUP1 REVERT JUMPDEST POP PUSH3 0x17C PUSH3 0x40D CALLDATASIZE PUSH1 0x4 PUSH3 0x3717 JUMP JUMPDEST PUSH3 0xDE6 JUMP JUMPDEST CALLVALUE DUP1 ISZERO PUSH3 0x420 JUMPI PUSH1 0x0 DUP1 REVERT JUMPDEST POP PUSH3 0x438 PUSH3 0x432 CALLDATASIZE PUSH1 0x4 PUSH3 0x34AB JUMP JUMPDEST PUSH3 0xF1E JUMP JUMPDEST PUSH1 0x40 MLOAD PUSH3 0x1CA SWAP2 SWAP1 PUSH3 0x41C9 JUMP JUMPDEST CALLVALUE DUP1 ISZERO PUSH3 0x454 JUMPI PUSH1 0x0 DUP1 REVERT JUMPDEST POP PUSH3 0x17C PUSH3 0x466 CALLDATASIZE PUSH1 0x4 PUSH3 0x33B0 JUMP JUMPDEST PUSH3 0x1104 JUMP JUMPDEST PUSH1 0x0 SLOAD PUSH1 0x1 PUSH1 0x20 SHL SWAP1 DIV PUSH1 0x1 PUSH1 0x1 PUSH1 0xA0 SHL SUB AND CALLER EQ PUSH3 0x4A9 JUMPI PUSH1 0x40 MLOAD PUSH3 0x461BCD PUSH1 0xE5 SHL DUP2 MSTORE PUSH1 0x4 ADD PUSH3 0x4A0 SWAP1 PUSH3 0x3EA3 JUMP JUMPDEST PUSH1 0x40 MLOAD DUP1 SWAP2 SUB SWAP1 REVERT JUMPDEST PUSH3 0x4B4 DUP3 PUSH3 0x11BA JUMP JUMPDEST PUSH3 0x4BF DUP2 PUSH3 0x11F8 JUMP JUMPDEST PUSH3 0x4DE JUMPI PUSH1 0x40 MLOAD PUSH3 0x461BCD PUSH1 0xE5 SHL DUP2 MSTORE PUSH1 0x4 ADD PUSH3 0x4A0 SWAP1 PUSH3 0x3BAE JUMP JUMPDEST PUSH3 0x4EA DUP3 DUP3 PUSH3 0x1202 JUMP JUMPDEST DUP2 PUSH2 0xFFFF AND PUSH32 0x972AF272071DE4B82FF83458C3A6DE8BA183A9C7DC724D4CF91D25F524A810E1 DUP3 PUSH1 0x40 MLOAD PUSH3 0x520 SWAP2 SWAP1 PUSH3 0x3954 JUMP JUMPDEST PUSH1 0x40 MLOAD DUP1 SWAP2 SUB SWAP1 LOG2 POP POP JUMP JUMPDEST PUSH1 0x0 SLOAD PUSH1 0x1 PUSH1 0x20 SHL SWAP1 DIV PUSH1 0x1 PUSH1 0x1 PUSH1 0xA0 SHL SUB AND CALLER EQ PUSH3 0x560 JUMPI PUSH1 0x40 MLOAD PUSH3 0x461BCD PUSH1 0xE5 SHL DUP2 MSTORE PUSH1 0x4 ADD PUSH3 0x4A0 SWAP1 PUSH3 0x3EA3 JUMP JUMPDEST PUSH1 0x0 PUSH3 0x56C PUSH3 0x12AC JUMP JUMPDEST SWAP1 POP PUSH1 0x1 PUSH1 0x1 PUSH1 0xA0 SHL SUB DUP3 AND ISZERO DUP1 ISZERO SWAP1 PUSH3 0x58F JUMPI POP DUP1 SLOAD PUSH1 0x1 PUSH1 0x1 PUSH1 0xA0 SHL SUB AND ISZERO JUMPDEST PUSH3 0x5AE JUMPI PUSH1 0x40 MLOAD PUSH3 0x461BCD PUSH1 0xE5 SHL DUP2 MSTORE PUSH1 0x4 ADD PUSH3 0x4A0 SWAP1 PUSH3 0x3C0E JUMP JUMPDEST DUP1 SLOAD PUSH1 0x1 PUSH1 0x1 PUSH1 0xA0 SHL SUB NOT AND PUSH1 0x1 PUSH1 0x1 PUSH1 0xA0 SHL SUB DUP4 AND OR DUP2 SSTORE PUSH1 0x40 MLOAD PUSH32 0x3DD7797C14274310CEABD9F064B457CCDDB1ADE285DA94D9C5DBF15B6F0EBD7B SWAP1 PUSH3 0x5F9 SWAP1 DUP5 SWAP1 PUSH3 0x3954 JUMP JUMPDEST PUSH1 0x40 MLOAD DUP1 SWAP2 SUB SWAP1 LOG1 POP POP JUMP JUMPDEST PUSH1 0x2 SLOAD PUSH1 0x1 PUSH1 0x1 PUSH1 0xA0 SHL SUB AND DUP2 JUMP JUMPDEST PUSH1 0x0 SLOAD PUSH1 0x1 PUSH1 0x20 SHL SWAP1 DIV PUSH1 0x1 PUSH1 0x1 PUSH1 0xA0 SHL SUB AND CALLER EQ PUSH3 0x648 JUMPI PUSH1 0x40 MLOAD PUSH3 0x461BCD PUSH1 0xE5 SHL DUP2 MSTORE PUSH1 0x4 ADD PUSH3 0x4A0 SWAP1 PUSH3 0x3EA3 JUMP JUMPDEST PUSH3 0x653 DUP7 PUSH3 0x11BA JUMP JUMPDEST PUSH1 0x0 PUSH3 0x664 DUP8 PUSH2 0xFFFF AND PUSH3 0x12C1 JUMP JUMPDEST SWAP1 POP PUSH1 0x1 PUSH1 0x1 PUSH1 0xA0 SHL SUB DUP2 AND PUSH3 0x68F JUMPI PUSH1 0x40 MLOAD PUSH3 0x461BCD PUSH1 0xE5 SHL DUP2 MSTORE PUSH1 0x4 ADD PUSH3 0x4A0 SWAP1 PUSH3 0x3B84 JUMP JUMPDEST PUSH3 0x69F DUP2 DUP8 DUP8 DUP8 DUP8 DUP8 PUSH3 0x12E9 JUMP JUMPDEST PUSH32 0xE3BFB18D6259BE9A43CD772D68C97FE6C61C35A17ACB12E047AD8C9698E40AEB DUP8 PUSH1 0x40 MLOAD PUSH3 0x6D0 SWAP2 SWAP1 PUSH3 0x41C9 JUMP JUMPDEST PUSH1 0x40 MLOAD DUP1 SWAP2 SUB SWAP1 LOG1 POP POP POP POP POP POP POP JUMP JUMPDEST PUSH1 0x0 SLOAD PUSH1 0x1 PUSH1 0x20 SHL SWAP1 DIV PUSH1 0x1 PUSH1 0x1 PUSH1 0xA0 SHL SUB AND CALLER EQ PUSH3 0x715 JUMPI PUSH1 0x40 MLOAD PUSH3 0x461BCD PUSH1 0xE5 SHL DUP2 MSTORE PUSH1 0x4 ADD PUSH3 0x4A0 SWAP1 PUSH3 0x3EA3 JUMP JUMPDEST PUSH3 0x720 DUP3 PUSH3 0x11F8 JUMP JUMPDEST PUSH3 0x73F JUMPI PUSH1 0x40 MLOAD PUSH3 0x461BCD PUSH1 0xE5 SHL DUP2 MSTORE PUSH1 0x4 ADD PUSH3 0x4A0 SWAP1 PUSH3 0x3DC3 JUMP JUMPDEST PUSH1 0x1 PUSH1 0x1 PUSH1 0xA0 SHL SUB DUP3 AND PUSH1 0x0 SWAP1 DUP2 MSTORE PUSH1 0x6 PUSH1 0x20 MSTORE PUSH1 0x40 SWAP1 DUP2 SWAP1 KECCAK256 DUP1 SLOAD PUSH1 0xFF NOT AND DUP4 ISZERO ISZERO OR SWAP1 SSTORE MLOAD PUSH32 0xD950D85E12AEFEE0604A6DB7758E7C22FDBC3BC402CA6F3C51E7AB11C23A4C6F SWAP1 PUSH3 0x5F9 SWAP1 DUP5 SWAP1 DUP5 SWAP1 PUSH3 0x3968 JUMP JUMPDEST PUSH3 0x7A2 DUP2 PUSH3 0x13F7 JUMP JUMPDEST PUSH3 0x7BF DUP2 PUSH1 0x40 MLOAD DUP1 PUSH1 0x20 ADD PUSH1 0x40 MSTORE DUP1 PUSH1 0x0 DUP2 MSTORE POP PUSH1 0x0 PUSH3 0x149E JUMP JUMPDEST POP JUMP JUMPDEST PUSH1 0x0 SLOAD PUSH1 0x1 PUSH1 0x20 SHL SWAP1 DIV PUSH1 0x1 PUSH1 0x1 PUSH1 0xA0 SHL SUB AND CALLER EQ PUSH3 0x7F6 JUMPI PUSH1 0x40 MLOAD PUSH3 0x461BCD PUSH1 0xE5 SHL DUP2 MSTORE PUSH1 0x4 ADD PUSH3 0x4A0 SWAP1 PUSH3 0x3EA3 JUMP JUMPDEST PUSH3 0x801 DUP6 PUSH3 0x11BA JUMP JUMPDEST PUSH3 0x814 DUP6 PUSH2 0xFFFF AND DUP6 DUP6 DUP6 DUP6 PUSH3 0x15E4 JUMP JUMPDEST PUSH32 0xFF9528B00F1B4A49AD8A5D2C82E5602C172EE7E42BC1F5B7D505A7581B438234 DUP6 PUSH1 0x40 MLOAD PUSH3 0x845 SWAP2 SWAP1 PUSH3 0x41C9 JUMP JUMPDEST PUSH1 0x40 MLOAD DUP1 SWAP2 SUB SWAP1 LOG1 POP POP POP POP POP JUMP JUMPDEST PUSH1 0xD SLOAD PUSH1 0x1 PUSH1 0x1 PUSH1 0xA0 SHL SUB AND CALLER DUP2 EQ PUSH3 0x882 JUMPI PUSH1 0x40 MLOAD PUSH3 0x461BCD PUSH1 0xE5 SHL DUP2 MSTORE PUSH1 0x4 ADD PUSH3 0x4A0 SWAP1 PUSH3 0x3F74 JUMP JUMPDEST PUSH1 0x0 DUP1 SLOAD PUSH1 0x40 MLOAD PUSH1 0x1 PUSH1 0x1 PUSH1 0xA0 SHL SUB DUP1 DUP6 AND SWAP4 PUSH1 0x1 PUSH1 0x20 SHL SWAP1 SWAP4 DIV AND SWAP2 PUSH32 0x8BE0079C531659141344CD1FD0A4F28419497F9722A3DAAFE3B4186F6B6457E0 SWAP2 LOG3 PUSH1 0x0 DUP1 SLOAD PUSH1 0x1 PUSH1 0x1 PUSH1 0xA0 SHL SUB SWAP1 SWAP3 AND PUSH1 0x1 PUSH1 0x20 SHL MUL PUSH5 0x100000000 PUSH1 0x1 PUSH1 0xC0 SHL SUB NOT SWAP1 SWAP3 AND SWAP2 SWAP1 SWAP2 OR SWAP1 SSTORE PUSH1 0xD DUP1 SLOAD PUSH1 0x1 PUSH1 0x1 PUSH1 0xA0 SHL SUB NOT AND SWAP1 SSTORE JUMP JUMPDEST PUSH3 0x90A DUP3 PUSH3 0x13F7 JUMP JUMPDEST PUSH3 0x918 DUP3 DUP3 PUSH1 0x1 PUSH3 0x149E JUMP JUMPDEST POP POP JUMP JUMPDEST PUSH1 0x0 SLOAD PUSH1 0x1 PUSH1 0x20 SHL SWAP1 DIV PUSH1 0x1 PUSH1 0x1 PUSH1 0xA0 SHL SUB AND CALLER EQ PUSH3 0x950 JUMPI PUSH1 0x40 MLOAD PUSH3 0x461BCD PUSH1 0xE5 SHL DUP2 MSTORE PUSH1 0x4 ADD PUSH3 0x4A0 SWAP1 PUSH3 0x3EA3 JUMP JUMPDEST PUSH1 0x1 DUP1 SLOAD PUSH1 0x1 PUSH1 0x1 PUSH1 0xA0 SHL SUB NOT SWAP1 DUP2 AND PUSH1 0x1 PUSH1 0x1 PUSH1 0xA0 SHL SUB DUP6 DUP2 AND SWAP2 DUP3 OR SWAP1 SWAP4 SSTORE PUSH1 0x2 DUP1 SLOAD SWAP1 SWAP3 AND SWAP3 DUP5 AND SWAP3 DUP4 OR SWAP1 SWAP2 SSTORE PUSH1 0x40 MLOAD PUSH32 0x792A598A7F3FB01623BBA2594035C736BA3D7EC06210F07D9D7EF036C4A22AC6 SWAP1 PUSH1 0x0 SWAP1 LOG3 POP POP JUMP JUMPDEST PUSH1 0x1 SLOAD PUSH1 0x1 PUSH1 0x1 PUSH1 0xA0 SHL SUB AND DUP2 JUMP JUMPDEST PUSH1 0x0 SLOAD PUSH1 0x1 PUSH1 0x20 SHL SWAP1 DIV PUSH1 0x1 PUSH1 0x1 PUSH1 0xA0 SHL SUB AND DUP2 JUMP JUMPDEST PUSH1 0x0 SLOAD PUSH1 0x1 PUSH1 0x20 SHL SWAP1 DIV PUSH1 0x1 PUSH1 0x1 PUSH1 0xA0 SHL SUB AND CALLER EQ PUSH3 0xA07 JUMPI PUSH1 0x40 MLOAD PUSH3 0x461BCD PUSH1 0xE5 SHL DUP2 MSTORE PUSH1 0x4 ADD PUSH3 0x4A0 SWAP1 PUSH3 0x3EA3 JUMP JUMPDEST PUSH3 0xA12 DUP3 PUSH3 0x11BA JUMP JUMPDEST PUSH1 0x1 PUSH1 0x1 PUSH1 0x48 SHL SUB DUP2 AND ISZERO PUSH3 0xA3F JUMPI PUSH3 0xA31 DUP3 PUSH2 0xFFFF AND PUSH3 0x1746 JUMP JUMPDEST PUSH1 0xFF AND ISZERO PUSH3 0xA3F JUMPI PUSH1 0x0 DUP1 REVERT JUMPDEST PUSH3 0xA4F DUP3 PUSH2 0xFFFF AND DUP3 PUSH3 0x175E JUMP JUMPDEST PUSH32 0x8C7DF90515138B34933E6C44EBE1E21C7F53FDF340C14C9F18B3016D2E71CA77 DUP3 DUP3 PUSH1 0x40 MLOAD PUSH3 0x5F9 SWAP3 SWAP2 SWAP1 PUSH3 0x420F JUMP JUMPDEST PUSH1 0x0 SLOAD PUSH1 0x1 PUSH1 0x20 SHL SWAP1 DIV PUSH1 0x1 PUSH1 0x1 PUSH1 0xA0 SHL SUB AND CALLER EQ PUSH3 0xAB6 JUMPI PUSH1 0x40 MLOAD PUSH3 0x461BCD PUSH1 0xE5 SHL DUP2 MSTORE PUSH1 0x4 ADD PUSH3 0x4A0 SWAP1 PUSH3 0x3EA3 JUMP JUMPDEST PUSH3 0xAC1 DUP3 PUSH3 0x11BA JUMP JUMPDEST PUSH3 0x918 DUP3 DUP3 PUSH3 0x17A9 JUMP JUMPDEST PUSH1 0x0 SLOAD PUSH1 0x1 PUSH1 0x20 SHL SWAP1 DIV PUSH1 0x1 PUSH1 0x1 PUSH1 0xA0 SHL SUB AND CALLER EQ PUSH3 0xB01 JUMPI PUSH1 0x40 MLOAD PUSH3 0x461BCD PUSH1 0xE5 SHL DUP2 MSTORE PUSH1 0x4 ADD PUSH3 0x4A0 SWAP1 PUSH3 0x3EA3 JUMP JUMPDEST PUSH3 0xB0C DUP3 PUSH3 0x11BA JUMP JUMPDEST PUSH3 0x918 DUP3 DUP3 PUSH3 0x17EA JUMP JUMPDEST PUSH1 0x0 SLOAD PUSH1 0x1 PUSH1 0x20 SHL SWAP1 DIV PUSH1 0x1 PUSH1 0x1 PUSH1 0xA0 SHL SUB AND CALLER EQ PUSH3 0xB4C JUMPI PUSH1 0x40 MLOAD PUSH3 0x461BCD PUSH1 0xE5 SHL DUP2 MSTORE PUSH1 0x4 ADD PUSH3 0x4A0 SWAP1 PUSH3 0x3EA3 JUMP JUMPDEST PUSH3 0xB57 DUP3 PUSH3 0x11BA JUMP JUMPDEST PUSH1 0x0 PUSH3 0xB68 DUP4 PUSH2 0xFFFF AND PUSH3 0x12C1 JUMP JUMPDEST SWAP1 POP PUSH1 0x1 PUSH1 0x1 PUSH1 0xA0 SHL SUB DUP2 AND PUSH3 0xB93 JUMPI PUSH1 0x40 MLOAD PUSH3 0x461BCD PUSH1 0xE5 SHL DUP2 MSTORE PUSH1 0x4 ADD PUSH3 0x4A0 SWAP1 PUSH3 0x3B84 JUMP JUMPDEST PUSH4 0x5F5E100 DUP3 PUSH4 0xFFFFFFFF AND SLT PUSH3 0xBBF JUMPI PUSH1 0x40 MLOAD PUSH3 0x461BCD PUSH1 0xE5 SHL DUP2 MSTORE PUSH1 0x4 ADD PUSH3 0x4A0 SWAP1 PUSH3 0x4010 JUMP JUMPDEST PUSH3 0xBCC DUP2 DUP4 TIMESTAMP PUSH3 0x1B0D JUMP JUMPDEST PUSH32 0x713F9554D16202D36A895476EC29CE9250F47D35422E2D9409E8F644D6AAB689 DUP4 DUP4 PUSH1 0x40 MLOAD PUSH3 0xBFF SWAP3 SWAP2 SWAP1 PUSH3 0x41F5 JUMP JUMPDEST PUSH1 0x40 MLOAD DUP1 SWAP2 SUB SWAP1 LOG1 POP POP POP JUMP JUMPDEST PUSH1 0x0 SLOAD PUSH1 0x1 PUSH1 0x20 SHL SWAP1 DIV PUSH1 0x1 PUSH1 0x1 PUSH1 0xA0 SHL SUB AND CALLER EQ PUSH3 0xC40 JUMPI PUSH1 0x40 MLOAD PUSH3 0x461BCD PUSH1 0xE5 SHL DUP2 MSTORE PUSH1 0x4 ADD PUSH3 0x4A0 SWAP1 PUSH3 0x3EA3 JUMP JUMPDEST DUP1 ISZERO PUSH3 0xCEB JUMPI PUSH1 0x1 PUSH1 0x1 PUSH1 0xA0 SHL SUB DUP3 AND PUSH3 0xC70 JUMPI PUSH1 0x40 MLOAD PUSH3 0x461BCD PUSH1 0xE5 SHL DUP2 MSTORE PUSH1 0x4 ADD PUSH3 0x4A0 SWAP1 PUSH3 0x3C96 JUMP JUMPDEST PUSH1 0x0 DUP1 SLOAD PUSH1 0x40 MLOAD PUSH1 0x1 PUSH1 0x1 PUSH1 0xA0 SHL SUB DUP1 DUP7 AND SWAP4 PUSH1 0x1 PUSH1 0x20 SHL SWAP1 SWAP4 DIV AND SWAP2 PUSH32 0x8BE0079C531659141344CD1FD0A4F28419497F9722A3DAAFE3B4186F6B6457E0 SWAP2 LOG3 PUSH1 0x0 DUP1 SLOAD PUSH5 0x100000000 PUSH1 0x1 PUSH1 0xC0 SHL SUB NOT AND PUSH1 0x1 PUSH1 0x20 SHL PUSH1 0x1 PUSH1 0x1 PUSH1 0xA0 SHL SUB DUP6 AND MUL OR SWAP1 SSTORE PUSH1 0xD DUP1 SLOAD PUSH1 0x1 PUSH1 0x1 PUSH1 0xA0 SHL SUB NOT AND SWAP1 SSTORE PUSH3 0x918 JUMP JUMPDEST PUSH1 0xD DUP1 SLOAD PUSH1 0x1 PUSH1 0x1 PUSH1 0xA0 SHL SUB DUP5 AND PUSH1 0x1 PUSH1 0x1 PUSH1 0xA0 SHL SUB NOT SWAP1 SWAP2 AND OR SWAP1 SSTORE POP POP JUMP JUMPDEST PUSH1 0x0 SLOAD PUSH1 0x1 PUSH1 0x20 SHL SWAP1 DIV PUSH1 0x1 PUSH1 0x1 PUSH1 0xA0 SHL SUB AND CALLER EQ PUSH3 0xD40 JUMPI PUSH1 0x40 MLOAD PUSH3 0x461BCD PUSH1 0xE5 SHL DUP2 MSTORE PUSH1 0x4 ADD PUSH3 0x4A0 SWAP1 PUSH3 0x3EA3 JUMP JUMPDEST PUSH3 0xD4B DUP7 PUSH3 0x11BA JUMP JUMPDEST PUSH3 0xD5B DUP7 DUP7 DUP7 DUP7 DUP7 DUP7 PUSH3 0x1B67 JUMP JUMPDEST POP POP POP POP POP POP JUMP JUMPDEST PUSH1 0x0 SLOAD PUSH1 0x1 PUSH1 0x20 SHL SWAP1 DIV PUSH1 0x1 PUSH1 0x1 PUSH1 0xA0 SHL SUB AND CALLER EQ PUSH3 0xD97 JUMPI PUSH1 0x40 MLOAD PUSH3 0x461BCD PUSH1 0xE5 SHL DUP2 MSTORE PUSH1 0x4 ADD PUSH3 0x4A0 SWAP1 PUSH3 0x3EA3 JUMP JUMPDEST PUSH3 0xDA2 DUP6 PUSH3 0x11BA JUMP JUMPDEST PUSH3 0xDB5 DUP6 PUSH2 0xFFFF AND DUP6 DUP6 DUP6 DUP6 PUSH3 0x1E18 JUMP JUMPDEST PUSH32 0x6E2F98678675DA049B2CD990D6F467AAC69D623FF4ECDD26A5D42F184A69D342 DUP6 PUSH1 0x40 MLOAD PUSH3 0x845 SWAP2 SWAP1 PUSH3 0x41C9 JUMP JUMPDEST PUSH1 0x0 SLOAD PUSH1 0x1 PUSH1 0x20 SHL SWAP1 DIV PUSH1 0x1 PUSH1 0x1 PUSH1 0xA0 SHL SUB AND CALLER EQ PUSH3 0xE1A JUMPI PUSH1 0x40 MLOAD PUSH3 0x461BCD PUSH1 0xE5 SHL DUP2 MSTORE PUSH1 0x4 ADD PUSH3 0x4A0 SWAP1 PUSH3 0x3EA3 JUMP JUMPDEST PUSH3 0xE25 DUP8 PUSH3 0x11BA JUMP JUMPDEST PUSH1 0x0 PUSH3 0xE36 DUP9 PUSH2 0xFFFF AND PUSH3 0x1F84 JUMP JUMPDEST SWAP1 POP PUSH1 0x0 PUSH3 0xE49 DUP10 PUSH2 0xFFFF AND PUSH3 0x1F9B JUMP JUMPDEST SWAP1 POP DUP2 PUSH1 0x80 ADD MLOAD PUSH1 0x0 EQ DUP1 ISZERO PUSH3 0xE62 JUMPI POP PUSH1 0x80 DUP2 ADD MLOAD ISZERO JUMPDEST PUSH3 0xE6C JUMPI PUSH1 0x0 DUP1 REVERT JUMPDEST POP POP PUSH3 0xE7A DUP8 DUP7 PUSH3 0x17A9 JUMP JUMPDEST PUSH3 0xE86 DUP8 DUP8 PUSH3 0x17EA JUMP JUMPDEST PUSH1 0x0 ADDRESS DUP9 DUP7 DUP7 DUP7 DUP7 PUSH1 0x40 MLOAD PUSH3 0xE9C SWAP1 PUSH3 0x31BF JUMP JUMPDEST PUSH3 0xEAD SWAP7 SWAP6 SWAP5 SWAP4 SWAP3 SWAP2 SWAP1 PUSH3 0x399C JUMP JUMPDEST PUSH1 0x40 MLOAD DUP1 SWAP2 SUB SWAP1 PUSH1 0x0 CREATE DUP1 ISZERO DUP1 ISZERO PUSH3 0xECA JUMPI RETURNDATASIZE PUSH1 0x0 DUP1 RETURNDATACOPY RETURNDATASIZE PUSH1 0x0 REVERT JUMPDEST POP SWAP1 POP PUSH3 0xED9 DUP9 DUP3 PUSH3 0x1FB2 JUMP JUMPDEST PUSH32 0x6793810FDF58CB4C6E0EE40E4B03EB1075B7CBBB55C34379B918873241972AEA DUP9 DUP3 PUSH1 0x40 MLOAD PUSH3 0xF0C SWAP3 SWAP2 SWAP1 PUSH3 0x41D8 JUMP JUMPDEST PUSH1 0x40 MLOAD DUP1 SWAP2 SUB SWAP1 LOG1 POP POP POP POP POP POP POP POP JUMP JUMPDEST PUSH1 0x0 DUP1 SLOAD PUSH1 0x1 PUSH1 0x20 SHL SWAP1 DIV PUSH1 0x1 PUSH1 0x1 PUSH1 0xA0 SHL SUB AND CALLER EQ PUSH3 0xF53 JUMPI PUSH1 0x40 MLOAD PUSH3 0x461BCD PUSH1 0xE5 SHL DUP2 MSTORE PUSH1 0x4 ADD PUSH3 0x4A0 SWAP1 PUSH3 0x3EA3 JUMP JUMPDEST PUSH1 0x0 DUP1 SLOAD PUSH2 0xFFFF DUP1 DUP3 AND PUSH1 0x1 ADD SWAP1 DUP2 AND PUSH2 0xFFFF NOT SWAP1 SWAP3 AND DUP3 OR SWAP1 SWAP3 SSTORE PUSH2 0x3FFF LT ISZERO PUSH3 0xF93 JUMPI PUSH1 0x40 MLOAD PUSH3 0x461BCD PUSH1 0xE5 SHL DUP2 MSTORE PUSH1 0x4 ADD PUSH3 0x4A0 SWAP1 PUSH3 0x3A56 JUMP JUMPDEST PUSH1 0x9 PUSH1 0x0 PUSH3 0xFA6 PUSH1 0x20 DUP13 ADD DUP13 PUSH3 0x3335 JUMP JUMPDEST PUSH1 0x1 PUSH1 0x1 PUSH1 0xA0 SHL SUB AND DUP2 MSTORE PUSH1 0x20 DUP2 ADD SWAP2 SWAP1 SWAP2 MSTORE PUSH1 0x40 ADD PUSH1 0x0 KECCAK256 SLOAD PUSH2 0xFFFF AND ISZERO PUSH3 0xFE4 JUMPI PUSH1 0x40 MLOAD PUSH3 0x461BCD PUSH1 0xE5 SHL DUP2 MSTORE PUSH1 0x4 ADD PUSH3 0x4A0 SWAP1 PUSH3 0x3D55 JUMP JUMPDEST DUP1 PUSH1 0x9 PUSH1 0x0 PUSH3 0xFF8 PUSH1 0x20 DUP14 ADD DUP14 PUSH3 0x3335 JUMP JUMPDEST PUSH1 0x1 PUSH1 0x1 PUSH1 0xA0 SHL SUB AND DUP2 MSTORE PUSH1 0x20 DUP1 DUP3 ADD SWAP3 SWAP1 SWAP3 MSTORE PUSH1 0x40 ADD PUSH1 0x0 SWAP1 DUP2 KECCAK256 DUP1 SLOAD PUSH2 0xFFFF NOT AND PUSH2 0xFFFF SWAP5 SWAP1 SWAP5 AND SWAP4 SWAP1 SWAP4 OR SWAP1 SWAP3 SSTORE PUSH3 0x1037 SWAP1 DUP11 ADD DUP11 PUSH3 0x3335 JUMP JUMPDEST PUSH1 0x1 PUSH1 0x1 PUSH1 0xA0 SHL SUB AND EQ ISZERO DUP1 PUSH3 0x106B JUMPI POP PUSH1 0x3 PUSH3 0x105D PUSH1 0x60 DUP11 ADD PUSH1 0x40 DUP12 ADD PUSH3 0x348E JUMP JUMPDEST PUSH1 0x5 DUP2 GT ISZERO PUSH3 0x1069 JUMPI INVALID JUMPDEST EQ JUMPDEST ISZERO PUSH3 0x1093 JUMPI PUSH3 0x1093 PUSH2 0xFFFF DUP3 AND PUSH1 0x1 PUSH3 0x108D CALLDATASIZE DUP13 SWAP1 SUB DUP13 ADD DUP13 PUSH3 0x3551 JUMP JUMPDEST PUSH3 0x208C JUMP JUMPDEST PUSH3 0x10AF PUSH2 0xFFFF DUP3 AND PUSH1 0x0 PUSH3 0x108D CALLDATASIZE DUP14 SWAP1 SUB DUP14 ADD DUP14 PUSH3 0x3551 JUMP JUMPDEST PUSH3 0x10BF DUP2 DUP9 DUP9 DUP9 DUP9 DUP9 PUSH3 0x1B67 JUMP JUMPDEST PUSH32 0x31404FF4A0F1116F17CFC89A376D7CB9CD8DBD8415E6AA24FDCB8E14E60D7142 DUP2 PUSH1 0x40 MLOAD PUSH3 0x10F0 SWAP2 SWAP1 PUSH3 0x41C9 JUMP JUMPDEST PUSH1 0x40 MLOAD DUP1 SWAP2 SUB SWAP1 LOG1 SWAP9 SWAP8 POP POP POP POP POP POP POP POP JUMP JUMPDEST PUSH1 0x0 SLOAD PUSH1 0x1 PUSH1 0x20 SHL SWAP1 DIV PUSH1 0x1 PUSH1 0x1 PUSH1 0xA0 SHL SUB AND CALLER EQ PUSH3 0x1138 JUMPI PUSH1 0x40 MLOAD PUSH3 0x461BCD PUSH1 0xE5 SHL DUP2 MSTORE PUSH1 0x4 ADD PUSH3 0x4A0 SWAP1 PUSH3 0x3EA3 JUMP JUMPDEST PUSH3 0x1143 DUP3 PUSH3 0x11F8 JUMP JUMPDEST PUSH3 0x1162 JUMPI PUSH1 0x40 MLOAD PUSH3 0x461BCD PUSH1 0xE5 SHL DUP2 MSTORE PUSH1 0x4 ADD PUSH3 0x4A0 SWAP1 PUSH3 0x3DC3 JUMP JUMPDEST PUSH1 0x1 PUSH1 0x1 PUSH1 0xA0 SHL SUB DUP3 AND PUSH1 0x0 SWAP1 DUP2 MSTORE PUSH1 0x8 PUSH1 0x20 MSTORE PUSH1 0x40 SWAP1 DUP2 SWAP1 KECCAK256 DUP1 SLOAD PUSH1 0xFF NOT AND DUP4 ISZERO ISZERO OR SWAP1 SSTORE MLOAD PUSH32 0xCCF663AAE81733293DCFCF2A91DA8C6F0E7BA8089B34EB4FD5760DD8FD605BD8 SWAP1 PUSH3 0x5F9 SWAP1 DUP5 SWAP1 DUP5 SWAP1 PUSH3 0x3968 JUMP JUMPDEST DUP1 PUSH2 0xFFFF AND PUSH1 0x0 LT DUP1 ISZERO PUSH3 0x11D9 JUMPI POP PUSH1 0x0 SLOAD PUSH2 0xFFFF SWAP1 DUP2 AND SWAP1 DUP3 AND GT ISZERO JUMPDEST PUSH3 0x7BF JUMPI PUSH1 0x40 MLOAD PUSH3 0x461BCD PUSH1 0xE5 SHL DUP2 MSTORE PUSH1 0x4 ADD PUSH3 0x4A0 SWAP1 PUSH3 0x4036 JUMP JUMPDEST DUP1 EXTCODESIZE ISZERO ISZERO JUMPDEST SWAP2 SWAP1 POP JUMP JUMPDEST PUSH1 0x0 PUSH3 0x1213 DUP4 PUSH2 0xFFFF AND PUSH3 0x12C1 JUMP JUMPDEST SWAP1 POP PUSH1 0x1 PUSH1 0x1 PUSH1 0xA0 SHL SUB DUP2 AND PUSH3 0x1229 JUMPI PUSH1 0x0 DUP1 REVERT JUMPDEST PUSH1 0x0 PUSH3 0x1235 PUSH3 0x2400 JUMP JUMPDEST PUSH1 0x1 PUSH1 0x1 PUSH1 0xA0 SHL SUB DUP4 DUP2 AND PUSH1 0x0 SWAP1 DUP2 MSTORE PUSH1 0x20 DUP4 SWAP1 MSTORE PUSH1 0x40 SWAP1 KECCAK256 DUP1 SLOAD PUSH1 0x1 PUSH1 0x1 PUSH1 0xF8 SHL SUB AND SWAP2 DUP7 AND ISZERO ISZERO PUSH1 0x1 PUSH1 0xF8 SHL MUL SWAP2 SWAP1 SWAP2 OR DUP2 SSTORE SWAP1 SWAP2 POP DUP4 PUSH3 0x1278 PUSH3 0x240F JUMP JUMPDEST PUSH1 0x1 PUSH1 0x1 PUSH1 0xA0 SHL SUB SWAP5 DUP6 AND PUSH1 0x0 SWAP1 DUP2 MSTORE PUSH1 0x20 SWAP2 SWAP1 SWAP2 MSTORE PUSH1 0x40 SWAP1 KECCAK256 DUP1 SLOAD PUSH1 0x1 PUSH1 0x1 PUSH1 0xA0 SHL SUB NOT AND SWAP2 SWAP1 SWAP5 AND OR SWAP1 SWAP3 SSTORE POP POP POP POP JUMP JUMPDEST PUSH1 0x0 DUP1 PUSH3 0x12BB PUSH1 0x13 PUSH3 0x2419 JUMP JUMPDEST SWAP3 SWAP2 POP POP JUMP JUMPDEST PUSH1 0x0 DUP1 PUSH3 0x12CE PUSH3 0x2433 JUMP JUMPDEST PUSH1 0x0 SWAP4 DUP5 MSTORE PUSH1 0x20 MSTORE POP POP PUSH1 0x40 SWAP1 KECCAK256 SLOAD PUSH1 0x1 PUSH1 0x1 PUSH1 0xA0 SHL SUB AND SWAP1 JUMP JUMPDEST PUSH1 0x0 PUSH3 0x12F5 PUSH3 0x2400 JUMP JUMPDEST PUSH1 0x1 PUSH1 0x1 PUSH1 0xA0 SHL SUB DUP9 AND PUSH1 0x0 SWAP1 DUP2 MSTORE PUSH1 0x20 DUP3 SWAP1 MSTORE PUSH1 0x40 SWAP1 KECCAK256 SWAP1 SWAP2 POP PUSH1 0x64 PUSH1 0xFF DUP5 AND SGT ISZERO PUSH3 0x1337 JUMPI PUSH1 0x40 MLOAD PUSH3 0x461BCD PUSH1 0xE5 SHL DUP2 MSTORE PUSH1 0x4 ADD PUSH3 0x4A0 SWAP1 PUSH3 0x3BE5 JUMP JUMPDEST DUP3 PUSH1 0xFF AND DUP7 PUSH1 0xFF AND LT PUSH3 0x135F JUMPI PUSH1 0x40 MLOAD PUSH3 0x461BCD PUSH1 0xE5 SHL DUP2 MSTORE PUSH1 0x4 ADD PUSH3 0x4A0 SWAP1 PUSH3 0x416D JUMP JUMPDEST DUP4 PUSH1 0xFF AND DUP8 PUSH1 0xFF AND GT ISZERO PUSH3 0x1388 JUMPI PUSH1 0x40 MLOAD PUSH3 0x461BCD PUSH1 0xE5 SHL DUP2 MSTORE PUSH1 0x4 ADD PUSH3 0x4A0 SWAP1 PUSH3 0x3CFC JUMP JUMPDEST DUP1 SLOAD PUSH5 0xFFFFFFFFFF PUSH1 0x58 SHL NOT AND PUSH1 0x1 PUSH1 0x58 SHL PUSH1 0xF8 SWAP5 SWAP1 SWAP5 SHL PUSH1 0x1 PUSH1 0x1 PUSH1 0xF8 SHL SUB NOT AND PUSH1 0xF0 SWAP6 SWAP1 SWAP6 SHL PUSH1 0xFF PUSH1 0xF0 SHL AND PUSH1 0xE8 SWAP7 SWAP1 SWAP7 SHL PUSH1 0xFF PUSH1 0xE8 SHL AND PUSH1 0xE0 SWAP8 SWAP1 SWAP8 SHL PUSH1 0xFF PUSH1 0xE0 SHL AND PUSH1 0xFF PUSH1 0xD8 SHL PUSH1 0xD8 SWAP10 DUP11 SHL AND OR SWAP7 SWAP1 SWAP7 OR SWAP5 SWAP1 SWAP5 OR SWAP3 SWAP1 SWAP3 OR SWAP1 SWAP5 SHR SWAP4 SWAP1 SWAP4 MUL SWAP2 SWAP1 SWAP2 OR SWAP1 SSTORE POP POP JUMP JUMPDEST PUSH1 0x0 SLOAD PUSH1 0x1 PUSH1 0x20 SHL SWAP1 DIV PUSH1 0x1 PUSH1 0x1 PUSH1 0xA0 SHL SUB AND CALLER EQ DUP1 PUSH3 0x143B JUMPI POP PUSH1 0x2 SLOAD PUSH1 0x1 PUSH1 0x1 PUSH1 0xA0 SHL SUB AND CALLER EQ DUP1 ISZERO PUSH3 0x143B JUMPI POP PUSH1 0x1 SLOAD PUSH1 0x1 PUSH1 0x1 PUSH1 0xA0 SHL SUB DUP3 DUP2 AND SWAP2 AND EQ JUMPDEST PUSH3 0x145A JUMPI PUSH1 0x40 MLOAD PUSH3 0x461BCD PUSH1 0xE5 SHL DUP2 MSTORE PUSH1 0x4 ADD PUSH3 0x4A0 SWAP1 PUSH3 0x3F0F JUMP JUMPDEST PUSH1 0x1 SLOAD PUSH1 0x1 PUSH1 0x1 PUSH1 0xA0 SHL SUB DUP3 DUP2 AND SWAP2 AND EQ ISZERO PUSH3 0x7BF JUMPI PUSH3 0x147B PUSH3 0x2442 JUMP JUMPDEST PUSH1 0x3 DUP1 SLOAD PUSH1 0x1 PUSH1 0x1 PUSH1 0xA0 SHL SUB NOT AND PUSH1 0x1 PUSH1 0x1 PUSH1 0xA0 SHL SUB SWAP3 SWAP1 SWAP3 AND SWAP2 SWAP1 SWAP2 OR SWAP1 SSTORE POP JUMP JUMPDEST PUSH1 0x0 PUSH3 0x14AA PUSH3 0x2442 JUMP JUMPDEST SWAP1 POP PUSH3 0x14B7 DUP5 PUSH3 0x247E JUMP JUMPDEST PUSH1 0x0 DUP4 MLOAD GT DUP1 PUSH3 0x14C5 JUMPI POP DUP2 JUMPDEST ISZERO PUSH3 0x14D9 JUMPI PUSH3 0x14D7 DUP5 DUP5 PUSH3 0x2513 JUMP JUMPDEST POP JUMPDEST PUSH1 0x0 PUSH3 0x1506 PUSH32 0x4910FDFA16FED3260ED0E7147F7CC6DA11A60208B5B9406D12A635614FFD9143 PUSH3 0x2542 JUMP JUMPDEST DUP1 SLOAD SWAP1 SWAP2 POP PUSH1 0xFF AND PUSH3 0x15DD JUMPI DUP1 SLOAD PUSH1 0xFF NOT AND PUSH1 0x1 OR DUP2 SSTORE PUSH1 0x40 DUP1 MLOAD PUSH1 0x1 PUSH1 0x1 PUSH1 0xA0 SHL SUB DUP5 AND PUSH1 0x24 DUP1 DUP4 ADD SWAP2 SWAP1 SWAP2 MSTORE DUP3 MLOAD DUP1 DUP4 SUB SWAP1 SWAP2 ADD DUP2 MSTORE PUSH1 0x44 SWAP1 SWAP2 ADD SWAP1 SWAP2 MSTORE PUSH1 0x20 DUP2 ADD DUP1 MLOAD PUSH1 0x1 PUSH1 0x1 PUSH1 0xE0 SHL SUB AND PUSH4 0x1B2CE7F3 PUSH1 0xE1 SHL OR SWAP1 MSTORE PUSH3 0x156E SWAP1 DUP7 SWAP1 PUSH3 0x2513 JUMP JUMPDEST POP DUP1 SLOAD PUSH1 0xFF NOT AND DUP2 SSTORE PUSH3 0x1581 PUSH3 0x2442 JUMP JUMPDEST PUSH1 0x1 PUSH1 0x1 PUSH1 0xA0 SHL SUB AND DUP3 PUSH1 0x1 PUSH1 0x1 PUSH1 0xA0 SHL SUB AND EQ PUSH3 0x15D2 JUMPI PUSH1 0x40 MLOAD PUSH3 0x461BCD PUSH1 0xE5 SHL DUP2 MSTORE PUSH1 0x4 ADD DUP1 DUP1 PUSH1 0x20 ADD DUP3 DUP2 SUB DUP3 MSTORE PUSH1 0x2F DUP2 MSTORE PUSH1 0x20 ADD DUP1 PUSH3 0x5236 PUSH1 0x2F SWAP2 CODECOPY PUSH1 0x40 ADD SWAP2 POP POP PUSH1 0x40 MLOAD DUP1 SWAP2 SUB SWAP1 REVERT JUMPDEST PUSH3 0x15DD DUP6 PUSH3 0x2545 JUMP JUMPDEST POP POP POP POP POP JUMP JUMPDEST PUSH1 0x7 DUP4 GT ISZERO PUSH3 0x1608 JUMPI PUSH1 0x40 MLOAD PUSH3 0x461BCD PUSH1 0xE5 SHL DUP2 MSTORE PUSH1 0x4 ADD PUSH3 0x4A0 SWAP1 PUSH3 0x3E31 JUMP JUMPDEST DUP1 DUP4 EQ PUSH3 0x162A JUMPI PUSH1 0x40 MLOAD PUSH3 0x461BCD PUSH1 0xE5 SHL DUP2 MSTORE PUSH1 0x4 ADD PUSH3 0x4A0 SWAP1 PUSH3 0x3A26 JUMP JUMPDEST PUSH1 0x0 JUMPDEST DUP2 DUP2 LT ISZERO PUSH3 0x1710 JUMPI PUSH1 0x0 DUP6 DUP6 DUP4 DUP2 DUP2 LT PUSH3 0x1645 JUMPI INVALID JUMPDEST SWAP1 POP PUSH1 0x20 MUL ADD PUSH1 0x20 DUP2 ADD SWAP1 PUSH3 0x165C SWAP2 SWAP1 PUSH3 0x38CF JUMP JUMPDEST PUSH4 0xFFFFFFFF AND GT PUSH3 0x1682 JUMPI PUSH1 0x40 MLOAD PUSH3 0x461BCD PUSH1 0xE5 SHL DUP2 MSTORE PUSH1 0x4 ADD PUSH3 0x4A0 SWAP1 PUSH3 0x3C3C JUMP JUMPDEST PUSH1 0x0 DUP4 DUP4 DUP4 DUP2 DUP2 LT PUSH3 0x1691 JUMPI INVALID JUMPDEST SWAP1 POP PUSH1 0x20 MUL ADD PUSH1 0x20 DUP2 ADD SWAP1 PUSH3 0x16A8 SWAP2 SWAP1 PUSH3 0x38CF JUMP JUMPDEST PUSH4 0xFFFFFFFF AND GT DUP1 ISZERO PUSH3 0x16E8 JUMPI POP PUSH4 0x3B9ACA00 DUP4 DUP4 DUP4 DUP2 DUP2 LT PUSH3 0x16C9 JUMPI INVALID JUMPDEST SWAP1 POP PUSH1 0x20 MUL ADD PUSH1 0x20 DUP2 ADD SWAP1 PUSH3 0x16E0 SWAP2 SWAP1 PUSH3 0x38CF JUMP JUMPDEST PUSH4 0xFFFFFFFF AND SLT JUMPDEST PUSH3 0x1707 JUMPI PUSH1 0x40 MLOAD PUSH3 0x461BCD PUSH1 0xE5 SHL DUP2 MSTORE PUSH1 0x4 ADD PUSH3 0x4A0 SWAP1 PUSH3 0x4106 JUMP JUMPDEST PUSH1 0x1 ADD PUSH3 0x162D JUMP JUMPDEST POP PUSH1 0x0 PUSH3 0x171D PUSH3 0x2587 JUMP JUMPDEST PUSH1 0x0 DUP8 DUP2 MSTORE PUSH1 0x20 DUP3 SWAP1 MSTORE PUSH1 0x40 SWAP1 KECCAK256 SWAP1 SWAP2 POP PUSH3 0x173D DUP2 DUP8 DUP8 DUP8 DUP8 PUSH3 0x2596 JUMP JUMPDEST POP POP POP POP POP POP POP JUMP JUMPDEST PUSH1 0x0 DUP1 PUSH3 0x1754 DUP4 PUSH3 0x2675 JUMP JUMPDEST PUSH1 0xFF AND SWAP4 SWAP3 POP POP POP JUMP JUMPDEST PUSH1 0x0 PUSH3 0x176A PUSH3 0x2694 JUMP JUMPDEST PUSH1 0x0 SWAP4 DUP5 MSTORE PUSH1 0x20 SWAP1 DUP2 MSTORE PUSH1 0x40 DUP1 DUP6 KECCAK256 DUP6 DUP1 MSTORE SWAP1 SWAP2 MSTORE SWAP1 SWAP3 KECCAK256 DUP1 SLOAD PUSH1 0x1 PUSH1 0x1 PUSH1 0x48 SHL SUB SWAP1 SWAP3 AND PUSH1 0x1 PUSH1 0xB8 SHL MUL PUSH1 0x1 PUSH1 0x1 PUSH1 0xB8 SHL SUB SWAP1 SWAP3 AND SWAP2 SWAP1 SWAP2 OR SWAP1 SSTORE POP JUMP JUMPDEST PUSH3 0x17B9 DUP3 PUSH2 0xFFFF AND DUP3 PUSH3 0x26A3 JUMP JUMPDEST PUSH32 0x8FD2367AAACA3606DEE299BBEF980DA42D4E906E355F28C3DD3A2F4D81D6B463 DUP3 PUSH1 0x40 MLOAD PUSH3 0x5F9 SWAP2 SWAP1 PUSH3 0x41C9 JUMP JUMPDEST PUSH1 0x0 PUSH3 0x17FB DUP4 PUSH2 0xFFFF AND PUSH3 0x1F84 JUMP JUMPDEST SWAP1 POP PUSH1 0x1 PUSH1 0x1 PUSH1 0xA0 SHL SUB DUP3 AND PUSH3 0x1845 JUMPI PUSH1 0x4 DUP2 PUSH1 0x60 ADD MLOAD PUSH1 0x5 DUP2 GT ISZERO PUSH3 0x181F JUMPI INVALID JUMPDEST EQ PUSH3 0x183F JUMPI PUSH1 0x40 MLOAD PUSH3 0x461BCD PUSH1 0xE5 SHL DUP2 MSTORE PUSH1 0x4 ADD PUSH3 0x4A0 SWAP1 PUSH3 0x3ABA JUMP JUMPDEST PUSH3 0x1B08 JUMP JUMPDEST PUSH1 0x0 DUP3 PUSH1 0x1 PUSH1 0x1 PUSH1 0xA0 SHL SUB AND PUSH4 0xFC0C546A PUSH1 0x40 MLOAD DUP2 PUSH4 0xFFFFFFFF AND PUSH1 0xE0 SHL DUP2 MSTORE PUSH1 0x4 ADD PUSH1 0x20 PUSH1 0x40 MLOAD DUP1 DUP4 SUB DUP2 DUP7 DUP1 EXTCODESIZE ISZERO DUP1 ISZERO PUSH3 0x1881 JUMPI PUSH1 0x0 DUP1 REVERT JUMPDEST POP GAS STATICCALL ISZERO DUP1 ISZERO PUSH3 0x1896 JUMPI RETURNDATASIZE PUSH1 0x0 DUP1 RETURNDATACOPY RETURNDATASIZE PUSH1 0x0 REVERT JUMPDEST POP POP POP POP PUSH1 0x40 MLOAD RETURNDATASIZE PUSH1 0x1F NOT PUSH1 0x1F DUP3 ADD AND DUP3 ADD DUP1 PUSH1 0x40 MSTORE POP DUP2 ADD SWAP1 PUSH3 0x18BC SWAP2 SWAP1 PUSH3 0x3354 JUMP JUMPDEST SWAP1 POP DUP1 PUSH1 0x1 PUSH1 0x1 PUSH1 0xA0 SHL SUB AND DUP3 PUSH1 0x0 ADD MLOAD PUSH1 0x1 PUSH1 0x1 PUSH1 0xA0 SHL SUB AND EQ PUSH3 0x18F6 JUMPI PUSH1 0x40 MLOAD PUSH3 0x461BCD PUSH1 0xE5 SHL DUP2 MSTORE PUSH1 0x4 ADD PUSH3 0x4A0 SWAP1 PUSH3 0x4199 JUMP JUMPDEST PUSH1 0x0 PUSH1 0x1 DUP6 PUSH2 0xFFFF AND EQ ISZERO PUSH3 0x190F JUMPI POP PUSH1 0x12 PUSH3 0x1A4D JUMP JUMPDEST PUSH1 0x0 DUP5 PUSH1 0x1 PUSH1 0x1 PUSH1 0xA0 SHL SUB AND PUSH4 0x6F307DC3 PUSH1 0x40 MLOAD DUP2 PUSH4 0xFFFFFFFF AND PUSH1 0xE0 SHL DUP2 MSTORE PUSH1 0x4 ADD PUSH1 0x20 PUSH1 0x40 MLOAD DUP1 DUP4 SUB DUP2 DUP7 DUP1 EXTCODESIZE ISZERO DUP1 ISZERO PUSH3 0x194B JUMPI PUSH1 0x0 DUP1 REVERT JUMPDEST POP GAS STATICCALL ISZERO DUP1 ISZERO PUSH3 0x1960 JUMPI RETURNDATASIZE PUSH1 0x0 DUP1 RETURNDATACOPY RETURNDATASIZE PUSH1 0x0 REVERT JUMPDEST POP POP POP POP PUSH1 0x40 MLOAD RETURNDATASIZE PUSH1 0x1F NOT PUSH1 0x1F DUP3 ADD AND DUP3 ADD DUP1 PUSH1 0x40 MSTORE POP DUP2 ADD SWAP1 PUSH3 0x1986 SWAP2 SWAP1 PUSH3 0x3354 JUMP JUMPDEST SWAP1 POP PUSH1 0x0 PUSH3 0x1999 DUP8 PUSH2 0xFFFF AND PUSH3 0x1F9B JUMP JUMPDEST SWAP1 POP DUP1 PUSH1 0x0 ADD MLOAD PUSH1 0x1 PUSH1 0x1 PUSH1 0xA0 SHL SUB AND DUP3 PUSH1 0x1 PUSH1 0x1 PUSH1 0xA0 SHL SUB AND EQ PUSH3 0x19D3 JUMPI PUSH1 0x40 MLOAD PUSH3 0x461BCD PUSH1 0xE5 SHL DUP2 MSTORE PUSH1 0x4 ADD PUSH3 0x4A0 SWAP1 PUSH3 0x3C6A JUMP JUMPDEST DUP2 PUSH1 0x1 PUSH1 0x1 PUSH1 0xA0 SHL SUB AND PUSH4 0x313CE567 PUSH1 0x40 MLOAD DUP2 PUSH4 0xFFFFFFFF AND PUSH1 0xE0 SHL DUP2 MSTORE PUSH1 0x4 ADD PUSH1 0x20 PUSH1 0x40 MLOAD DUP1 DUP4 SUB DUP2 DUP7 DUP1 EXTCODESIZE ISZERO DUP1 ISZERO PUSH3 0x1A0D JUMPI PUSH1 0x0 DUP1 REVERT JUMPDEST POP GAS STATICCALL ISZERO DUP1 ISZERO PUSH3 0x1A22 JUMPI RETURNDATASIZE PUSH1 0x0 DUP1 RETURNDATACOPY RETURNDATASIZE PUSH1 0x0 REVERT JUMPDEST POP POP POP POP PUSH1 0x40 MLOAD RETURNDATASIZE PUSH1 0x1F NOT PUSH1 0x1F DUP3 ADD AND DUP3 ADD DUP1 PUSH1 0x40 MSTORE POP DUP2 ADD SWAP1 PUSH3 0x1A48 SWAP2 SWAP1 PUSH3 0x390B JUMP JUMPDEST SWAP3 POP POP POP JUMPDEST PUSH1 0x24 DUP2 PUSH1 0xFF AND GT ISZERO PUSH3 0x1A5F JUMPI PUSH1 0x0 DUP1 REVERT JUMPDEST PUSH1 0x0 PUSH3 0x1A6B PUSH3 0x2ACB JUMP JUMPDEST PUSH1 0x40 DUP1 MLOAD DUP1 DUP3 ADD DUP3 MSTORE PUSH1 0x1 PUSH1 0x1 PUSH1 0xA0 SHL SUB DUP1 DUP10 AND DUP3 MSTORE PUSH1 0xFF DUP1 DUP8 AND PUSH1 0x20 DUP1 DUP6 ADD SWAP2 DUP3 MSTORE PUSH2 0xFFFF DUP14 AND PUSH1 0x0 SWAP1 DUP2 MSTORE SWAP1 DUP8 SWAP1 MSTORE DUP6 SWAP1 KECCAK256 SWAP4 MLOAD DUP5 SLOAD SWAP2 MLOAD SWAP1 SWAP3 AND PUSH1 0x1 PUSH1 0xA0 SHL MUL PUSH1 0xFF PUSH1 0xA0 SHL NOT SWAP3 SWAP1 SWAP4 AND PUSH1 0x1 PUSH1 0x1 PUSH1 0xA0 SHL SUB NOT SWAP1 SWAP2 AND OR AND OR SWAP1 SSTORE MLOAD SWAP1 SWAP2 POP PUSH32 0x6CDEE7159E82379F09A4A5D337E4681B6907C7851F6BBA2B90E1CCC02AA7A396 SWAP1 PUSH3 0x1AFC SWAP1 DUP9 SWAP1 PUSH3 0x41C9 JUMP JUMPDEST PUSH1 0x40 MLOAD DUP1 SWAP2 SUB SWAP1 LOG1 POP POP POP JUMPDEST POP POP POP JUMP JUMPDEST PUSH3 0x1B1B DUP4 PUSH1 0x0 DUP4 PUSH3 0x2ADA JUMP JUMPDEST POP PUSH1 0x0 PUSH3 0x1B28 PUSH3 0x2400 JUMP JUMPDEST PUSH1 0x1 PUSH1 0x1 PUSH1 0xA0 SHL SUB SWAP1 SWAP5 AND PUSH1 0x0 SWAP1 DUP2 MSTORE PUSH1 0x20 SWAP5 SWAP1 SWAP5 MSTORE POP POP PUSH1 0x40 SWAP1 SWAP2 KECCAK256 DUP1 SLOAD PUSH4 0xFFFFFFFF SWAP1 SWAP3 AND PUSH3 0x10000 MUL PUSH6 0xFFFFFFFF0000 NOT SWAP1 SWAP3 AND SWAP2 SWAP1 SWAP2 OR SWAP1 SSTORE JUMP JUMPDEST PUSH1 0x0 PUSH1 0x1 DUP8 PUSH2 0xFFFF AND EQ ISZERO PUSH3 0x1B84 JUMPI POP PUSH1 0x0 SWAP5 POP PUSH1 0x12 PUSH3 0x1C25 JUMP JUMPDEST PUSH1 0x1 PUSH1 0x1 PUSH1 0xA0 SHL SUB DUP7 AND PUSH3 0x1BAD JUMPI PUSH1 0x40 MLOAD PUSH3 0x461BCD PUSH1 0xE5 SHL DUP2 MSTORE PUSH1 0x4 ADD PUSH3 0x4A0 SWAP1 PUSH3 0x3FA9 JUMP JUMPDEST DUP6 PUSH1 0x1 PUSH1 0x1 PUSH1 0xA0 SHL SUB AND PUSH4 0x313CE567 PUSH1 0x40 MLOAD DUP2 PUSH4 0xFFFFFFFF AND PUSH1 0xE0 SHL DUP2 MSTORE PUSH1 0x4 ADD PUSH1 0x20 PUSH1 0x40 MLOAD DUP1 DUP4 SUB DUP2 DUP7 DUP1 EXTCODESIZE ISZERO DUP1 ISZERO PUSH3 0x1BE7 JUMPI PUSH1 0x0 DUP1 REVERT JUMPDEST POP GAS STATICCALL ISZERO DUP1 ISZERO PUSH3 0x1BFC JUMPI RETURNDATASIZE PUSH1 0x0 DUP1 RETURNDATACOPY RETURNDATASIZE PUSH1 0x0 REVERT JUMPDEST POP POP POP POP PUSH1 0x40 MLOAD RETURNDATASIZE PUSH1 0x1F NOT PUSH1 0x1F DUP3 ADD AND DUP3 ADD DUP1 PUSH1 0x40 MSTORE POP DUP2 ADD SWAP1 PUSH3 0x1C22 SWAP2 SWAP1 PUSH3 0x390B JUMP JUMPDEST SWAP1 POP JUMPDEST PUSH1 0x64 DUP5 PUSH1 0xFF AND SLT ISZERO PUSH3 0x1C4C JUMPI PUSH1 0x40 MLOAD PUSH3 0x461BCD PUSH1 0xE5 SHL DUP2 MSTORE PUSH1 0x4 ADD PUSH3 0x4A0 SWAP1 PUSH3 0x3DFA JUMP JUMPDEST PUSH1 0x64 DUP4 PUSH1 0xFF AND SGT ISZERO PUSH3 0x1C73 JUMPI PUSH1 0x40 MLOAD PUSH3 0x461BCD PUSH1 0xE5 SHL DUP2 MSTORE PUSH1 0x4 ADD PUSH3 0x4A0 SWAP1 PUSH3 0x3F3D JUMP JUMPDEST PUSH1 0x64 DUP3 PUSH1 0xFF AND SGT PUSH3 0x1C99 JUMPI PUSH1 0x40 MLOAD PUSH3 0x461BCD PUSH1 0xE5 SHL DUP2 MSTORE PUSH1 0x4 ADD PUSH3 0x4A0 SWAP1 PUSH3 0x3ED8 JUMP JUMPDEST PUSH1 0x24 DUP2 PUSH1 0xFF AND GT ISZERO PUSH3 0x1CAB JUMPI PUSH1 0x0 DUP1 REVERT JUMPDEST PUSH1 0x0 PUSH3 0x1CB7 PUSH3 0x2BC4 JUMP JUMPDEST SWAP1 POP PUSH1 0x40 MLOAD DUP1 PUSH1 0xC0 ADD PUSH1 0x40 MSTORE DUP1 DUP9 PUSH1 0x1 PUSH1 0x1 PUSH1 0xA0 SHL SUB AND DUP2 MSTORE PUSH1 0x20 ADD DUP4 PUSH1 0xFF AND DUP2 MSTORE PUSH1 0x20 ADD DUP8 ISZERO ISZERO DUP2 MSTORE PUSH1 0x20 ADD DUP7 PUSH1 0xFF AND DUP2 MSTORE PUSH1 0x20 ADD DUP6 PUSH1 0xFF AND DUP2 MSTORE PUSH1 0x20 ADD DUP5 PUSH1 0xFF AND DUP2 MSTORE POP DUP2 PUSH1 0x0 DUP11 PUSH2 0xFFFF AND DUP2 MSTORE PUSH1 0x20 ADD SWAP1 DUP2 MSTORE PUSH1 0x20 ADD PUSH1 0x0 KECCAK256 PUSH1 0x0 DUP3 ADD MLOAD DUP2 PUSH1 0x0 ADD PUSH1 0x0 PUSH2 0x100 EXP DUP2 SLOAD DUP2 PUSH1 0x1 PUSH1 0x1 PUSH1 0xA0 SHL SUB MUL NOT AND SWAP1 DUP4 PUSH1 0x1 PUSH1 0x1 PUSH1 0xA0 SHL SUB AND MUL OR SWAP1 SSTORE POP PUSH1 0x20 DUP3 ADD MLOAD DUP2 PUSH1 0x0 ADD PUSH1 0x14 PUSH2 0x100 EXP DUP2 SLOAD DUP2 PUSH1 0xFF MUL NOT AND SWAP1 DUP4 PUSH1 0xFF AND MUL OR SWAP1 SSTORE POP PUSH1 0x40 DUP3 ADD MLOAD DUP2 PUSH1 0x0 ADD PUSH1 0x15 PUSH2 0x100 EXP DUP2 SLOAD DUP2 PUSH1 0xFF MUL NOT AND SWAP1 DUP4 ISZERO ISZERO MUL OR SWAP1 SSTORE POP PUSH1 0x60 DUP3 ADD MLOAD DUP2 PUSH1 0x0 ADD PUSH1 0x16 PUSH2 0x100 EXP DUP2 SLOAD DUP2 PUSH1 0xFF MUL NOT AND SWAP1 DUP4 PUSH1 0xFF AND MUL OR SWAP1 SSTORE POP PUSH1 0x80 DUP3 ADD MLOAD DUP2 PUSH1 0x0 ADD PUSH1 0x17 PUSH2 0x100 EXP DUP2 SLOAD DUP2 PUSH1 0xFF MUL NOT AND SWAP1 DUP4 PUSH1 0xFF AND MUL OR SWAP1 SSTORE POP PUSH1 0xA0 DUP3 ADD MLOAD DUP2 PUSH1 0x0 ADD PUSH1 0x18 PUSH2 0x100 EXP DUP2 SLOAD DUP2 PUSH1 0xFF MUL NOT AND SWAP1 DUP4 PUSH1 0xFF AND MUL OR SWAP1 SSTORE POP SWAP1 POP POP PUSH32 0x32DF9E03D26F91A7FA4D4A9E48C2038679570CDE31D5C7F979A04515E00A767D DUP9 PUSH1 0x40 MLOAD PUSH3 0xF0C SWAP2 SWAP1 PUSH3 0x41C9 JUMP JUMPDEST PUSH1 0x7 DUP4 GT ISZERO PUSH3 0x1E3C JUMPI PUSH1 0x40 MLOAD PUSH3 0x461BCD PUSH1 0xE5 SHL DUP2 MSTORE PUSH1 0x4 ADD PUSH3 0x4A0 SWAP1 PUSH3 0x4063 JUMP JUMPDEST DUP3 DUP2 EQ PUSH3 0x1E5E JUMPI PUSH1 0x40 MLOAD PUSH3 0x461BCD PUSH1 0xE5 SHL DUP2 MSTORE PUSH1 0x4 ADD PUSH3 0x4A0 SWAP1 PUSH3 0x39EF JUMP JUMPDEST PUSH1 0x0 DUP1 JUMPDEST DUP5 DUP2 LT ISZERO PUSH3 0x1F27 JUMPI DUP6 DUP6 DUP3 DUP2 DUP2 LT PUSH3 0x1E78 JUMPI INVALID JUMPDEST SWAP1 POP PUSH1 0x20 MUL ADD PUSH1 0x20 DUP2 ADD SWAP1 PUSH3 0x1E8F SWAP2 SWAP1 PUSH3 0x38CF JUMP JUMPDEST PUSH4 0xFFFFFFFF AND DUP3 ADD SWAP2 POP PUSH1 0x0 DUP5 DUP5 DUP4 DUP2 DUP2 LT PUSH3 0x1EA8 JUMPI INVALID JUMPDEST SWAP1 POP PUSH1 0x20 MUL ADD PUSH1 0x20 DUP2 ADD SWAP1 PUSH3 0x1EBF SWAP2 SWAP1 PUSH3 0x38CF JUMP JUMPDEST PUSH4 0xFFFFFFFF AND GT DUP1 ISZERO PUSH3 0x1EFF JUMPI POP PUSH4 0x3B9ACA00 DUP5 DUP5 DUP4 DUP2 DUP2 LT PUSH3 0x1EE0 JUMPI INVALID JUMPDEST SWAP1 POP PUSH1 0x20 MUL ADD PUSH1 0x20 DUP2 ADD SWAP1 PUSH3 0x1EF7 SWAP2 SWAP1 PUSH3 0x38CF JUMP JUMPDEST PUSH4 0xFFFFFFFF AND SLT JUMPDEST PUSH3 0x1F1E JUMPI PUSH1 0x40 MLOAD PUSH3 0x461BCD PUSH1 0xE5 SHL DUP2 MSTORE PUSH1 0x4 ADD PUSH3 0x4A0 SWAP1 PUSH3 0x3E73 JUMP JUMPDEST PUSH1 0x1 ADD PUSH3 0x1E62 JUMP JUMPDEST POP PUSH4 0x5F5E100 DUP2 EQ PUSH3 0x1F4E JUMPI PUSH1 0x40 MLOAD PUSH3 0x461BCD PUSH1 0xE5 SHL DUP2 MSTORE PUSH1 0x4 ADD PUSH3 0x4A0 SWAP1 PUSH3 0x3FE0 JUMP JUMPDEST PUSH1 0x0 PUSH3 0x1F5A PUSH3 0x2BD3 JUMP JUMPDEST PUSH1 0x0 DUP9 DUP2 MSTORE PUSH1 0x20 DUP3 SWAP1 MSTORE PUSH1 0x40 SWAP1 KECCAK256 SWAP1 SWAP2 POP PUSH3 0x1F7A DUP2 DUP9 DUP9 DUP9 DUP9 PUSH3 0x2596 JUMP JUMPDEST POP POP POP POP POP POP POP POP JUMP JUMPDEST PUSH3 0x1F8E PUSH3 0x31CD JUMP JUMPDEST PUSH3 0x12BB DUP3 PUSH1 0x0 PUSH3 0x2BE2 JUMP JUMPDEST PUSH3 0x1FA5 PUSH3 0x31CD JUMP JUMPDEST PUSH3 0x12BB DUP3 PUSH1 0x1 PUSH3 0x2BE2 JUMP JUMPDEST PUSH1 0x0 PUSH3 0x1FBE PUSH3 0x2433 JUMP JUMPDEST PUSH2 0xFFFF DUP5 AND PUSH1 0x0 SWAP1 DUP2 MSTORE PUSH1 0x20 DUP3 SWAP1 MSTORE PUSH1 0x40 SWAP1 KECCAK256 SLOAD SWAP1 SWAP2 POP PUSH1 0x1 PUSH1 0x1 PUSH1 0xA0 SHL SUB AND ISZERO PUSH3 0x1FFE JUMPI PUSH1 0x40 MLOAD PUSH3 0x461BCD PUSH1 0xE5 SHL DUP2 MSTORE PUSH1 0x4 ADD PUSH3 0x4A0 SWAP1 PUSH3 0x40CF JUMP JUMPDEST PUSH1 0x0 PUSH3 0x200A PUSH3 0x2400 JUMP JUMPDEST PUSH1 0x1 PUSH1 0x1 PUSH1 0xA0 SHL SUB DUP5 AND PUSH1 0x0 SWAP1 DUP2 MSTORE PUSH1 0x20 DUP3 SWAP1 MSTORE PUSH1 0x40 SWAP1 KECCAK256 DUP1 SLOAD SWAP2 SWAP3 POP SWAP1 PUSH2 0xFFFF AND ISZERO PUSH3 0x204C JUMPI PUSH1 0x40 MLOAD PUSH3 0x461BCD PUSH1 0xE5 SHL DUP2 MSTORE PUSH1 0x4 ADD PUSH3 0x4A0 SWAP1 PUSH3 0x3A8D JUMP JUMPDEST DUP1 SLOAD PUSH2 0xFFFF NOT AND PUSH2 0xFFFF SWAP6 SWAP1 SWAP6 AND SWAP5 DUP6 OR SWAP1 SSTORE POP PUSH1 0x0 SWAP3 DUP4 MSTORE PUSH1 0x20 MSTORE PUSH1 0x40 SWAP1 SWAP2 KECCAK256 DUP1 SLOAD PUSH1 0x1 PUSH1 0x1 PUSH1 0xA0 SHL SUB NOT AND PUSH1 0x1 PUSH1 0x1 PUSH1 0xA0 SHL SUB SWAP1 SWAP3 AND SWAP2 SWAP1 SWAP2 OR SWAP1 SSTORE JUMP JUMPDEST PUSH1 0x0 PUSH3 0x2098 PUSH3 0x2694 JUMP JUMPDEST SWAP1 POP PUSH1 0x3 DUP3 PUSH1 0x40 ADD MLOAD PUSH1 0x5 DUP2 GT ISZERO PUSH3 0x20AD JUMPI INVALID JUMPDEST EQ DUP1 ISZERO PUSH3 0x20BB JUMPI POP PUSH1 0x1 DUP5 EQ JUMPDEST ISZERO PUSH3 0x2108 JUMPI PUSH1 0x0 DUP5 DUP2 MSTORE PUSH1 0x20 SWAP2 DUP3 MSTORE PUSH1 0x40 DUP1 DUP3 KECCAK256 PUSH1 0x1 DUP4 MSTORE SWAP1 SWAP3 MSTORE KECCAK256 DUP1 SLOAD PUSH1 0x1 PUSH1 0x1 PUSH1 0xB0 SHL SUB NOT AND PUSH1 0x3 PUSH1 0xA8 SHL OR PUSH1 0xFF PUSH1 0xB0 SHL NOT AND PUSH1 0x9 PUSH1 0xB1 SHL OR PUSH1 0x1 PUSH1 0x1 PUSH1 0xB8 SHL SUB AND SWAP1 SSTORE PUSH3 0x1B08 JUMP JUMPDEST DUP2 MLOAD PUSH1 0x1 PUSH1 0x1 PUSH1 0xA0 SHL SUB AND PUSH3 0x2132 JUMPI PUSH1 0x40 MLOAD PUSH3 0x461BCD PUSH1 0xE5 SHL DUP2 MSTORE PUSH1 0x4 ADD PUSH3 0x4A0 SWAP1 PUSH3 0x3AE9 JUMP JUMPDEST PUSH1 0x0 PUSH3 0x2140 DUP6 DUP6 PUSH3 0x2BE2 JUMP JUMPDEST DUP4 MLOAD DUP2 MLOAD SWAP2 SWAP3 POP PUSH1 0x1 PUSH1 0x1 PUSH1 0xA0 SHL SUB SWAP2 DUP3 AND SWAP2 AND EQ DUP1 PUSH3 0x2169 JUMPI POP DUP1 MLOAD PUSH1 0x1 PUSH1 0x1 PUSH1 0xA0 SHL SUB AND ISZERO JUMPDEST PUSH3 0x2188 JUMPI PUSH1 0x40 MLOAD PUSH3 0x461BCD PUSH1 0xE5 SHL DUP2 MSTORE PUSH1 0x4 ADD PUSH3 0x4A0 SWAP1 PUSH3 0x3D8C JUMP JUMPDEST DUP3 PUSH1 0x60 ADD MLOAD PUSH1 0xFF AND PUSH1 0x0 LT DUP1 ISZERO PUSH3 0x21A8 JUMPI POP PUSH1 0x24 DUP4 PUSH1 0x60 ADD MLOAD PUSH1 0xFF AND GT ISZERO JUMPDEST PUSH3 0x21C7 JUMPI PUSH1 0x40 MLOAD PUSH3 0x461BCD PUSH1 0xE5 SHL DUP2 MSTORE PUSH1 0x4 ADD PUSH3 0x4A0 SWAP1 PUSH3 0x3D27 JUMP JUMPDEST PUSH1 0x3 DUP4 PUSH1 0x40 ADD MLOAD PUSH1 0x5 DUP2 GT ISZERO PUSH3 0x21DA JUMPI INVALID JUMPDEST EQ ISZERO PUSH3 0x21E6 JUMPI PUSH1 0x0 DUP1 REVERT JUMPDEST DUP4 ISZERO PUSH3 0x222A JUMPI PUSH1 0x80 DUP4 ADD MLOAD PUSH1 0x1 PUSH1 0x1 PUSH1 0x48 SHL SUB AND ISZERO PUSH3 0x2206 JUMPI PUSH1 0x0 DUP1 REVERT JUMPDEST PUSH1 0x0 DUP4 PUSH1 0x40 ADD MLOAD PUSH1 0x5 DUP2 GT ISZERO PUSH3 0x2219 JUMPI INVALID JUMPDEST EQ PUSH3 0x2224 JUMPI PUSH1 0x0 DUP1 REVERT JUMPDEST PUSH3 0x2249 JUMP JUMPDEST PUSH1 0x0 DUP4 PUSH1 0x40 ADD MLOAD PUSH1 0x5 DUP2 GT ISZERO PUSH3 0x223D JUMPI INVALID JUMPDEST EQ ISZERO PUSH3 0x2249 JUMPI PUSH1 0x0 DUP1 REVERT JUMPDEST PUSH1 0x1 DUP4 PUSH1 0x40 ADD MLOAD PUSH1 0x5 DUP2 GT ISZERO PUSH3 0x225C JUMPI INVALID JUMPDEST EQ DUP1 PUSH3 0x2279 JUMPI POP PUSH1 0x5 DUP4 PUSH1 0x40 ADD MLOAD PUSH1 0x5 DUP2 GT ISZERO PUSH3 0x2277 JUMPI INVALID JUMPDEST EQ JUMPDEST ISZERO PUSH3 0x233D JUMPI PUSH1 0x0 PUSH3 0x228C DUP7 PUSH3 0x1F9B JUMP JUMPDEST SWAP1 POP PUSH1 0x0 PUSH1 0x1 DUP6 PUSH1 0x40 ADD MLOAD PUSH1 0x5 DUP2 GT ISZERO PUSH3 0x22A3 JUMPI INVALID JUMPDEST EQ PUSH3 0x22C3 JUMPI PUSH3 0x22B3 PUSH3 0x12AC JUMP JUMPDEST SLOAD PUSH1 0x1 PUSH1 0x1 PUSH1 0xA0 SHL SUB AND PUSH3 0x22C6 JUMP JUMPDEST DUP5 MLOAD JUMPDEST DUP3 MLOAD PUSH1 0x40 MLOAD PUSH4 0x95EA7B3 PUSH1 0xE0 SHL DUP2 MSTORE SWAP2 SWAP3 POP PUSH1 0x1 PUSH1 0x1 PUSH1 0xA0 SHL SUB AND SWAP1 PUSH4 0x95EA7B3 SWAP1 PUSH3 0x22FC SWAP1 DUP5 SWAP1 PUSH1 0x0 NOT SWAP1 PUSH1 0x4 ADD PUSH3 0x3983 JUMP JUMPDEST PUSH1 0x0 PUSH1 0x40 MLOAD DUP1 DUP4 SUB DUP2 PUSH1 0x0 DUP8 DUP1 EXTCODESIZE ISZERO DUP1 ISZERO PUSH3 0x2317 JUMPI PUSH1 0x0 DUP1 REVERT JUMPDEST POP GAS CALL ISZERO DUP1 ISZERO PUSH3 0x232C JUMPI RETURNDATASIZE PUSH1 0x0 DUP1 RETURNDATACOPY RETURNDATASIZE PUSH1 0x0 REVERT JUMPDEST POP POP POP POP PUSH3 0x233A PUSH3 0x2C93 JUMP JUMPDEST POP POP JUMPDEST PUSH1 0x0 DUP6 DUP2 MSTORE PUSH1 0x20 DUP4 DUP2 MSTORE PUSH1 0x40 DUP1 DUP4 KECCAK256 DUP8 ISZERO ISZERO DUP5 MSTORE DUP3 MSTORE SWAP2 DUP3 SWAP1 KECCAK256 DUP6 MLOAD DUP2 SLOAD SWAP3 DUP8 ADD MLOAD ISZERO ISZERO PUSH1 0x1 PUSH1 0xA0 SHL MUL PUSH1 0xFF PUSH1 0xA0 SHL NOT PUSH1 0x1 PUSH1 0x1 PUSH1 0xA0 SHL SUB SWAP1 SWAP3 AND PUSH1 0x1 PUSH1 0x1 PUSH1 0xA0 SHL SUB NOT SWAP1 SWAP5 AND SWAP4 SWAP1 SWAP4 OR AND SWAP2 SWAP1 SWAP2 OR DUP1 DUP3 SSTORE SWAP2 DUP6 ADD MLOAD DUP6 SWAP3 DUP3 SWAP1 PUSH1 0xFF PUSH1 0xA8 SHL NOT AND PUSH1 0x1 PUSH1 0xA8 SHL DUP4 PUSH1 0x5 DUP2 GT ISZERO PUSH3 0x23B1 JUMPI INVALID JUMPDEST MUL OR SWAP1 SSTORE POP PUSH1 0x60 DUP3 ADD MLOAD DUP2 SLOAD PUSH1 0x80 SWAP1 SWAP4 ADD MLOAD PUSH1 0x1 PUSH1 0x1 PUSH1 0x48 SHL SUB AND PUSH1 0x1 PUSH1 0xB8 SHL MUL PUSH1 0x1 PUSH1 0x1 PUSH1 0xB8 SHL SUB PUSH1 0xFF SWAP1 SWAP3 AND PUSH1 0x1 PUSH1 0xB0 SHL MUL PUSH1 0xFF PUSH1 0xB0 SHL NOT SWAP1 SWAP5 AND SWAP4 SWAP1 SWAP4 OR AND SWAP2 SWAP1 SWAP2 OR SWAP1 SSTORE POP POP POP POP POP JUMP JUMPDEST PUSH1 0x0 DUP1 PUSH3 0x12BB PUSH1 0x2 PUSH3 0x2419 JUMP JUMPDEST PUSH1 0x0 DUP1 PUSH3 0x12BB PUSH1 0x12 JUMPDEST PUSH1 0x0 PUSH3 0xF4240 DUP3 PUSH1 0x13 DUP2 GT ISZERO PUSH3 0x242C JUMPI INVALID JUMPDEST ADD SWAP3 SWAP2 POP POP JUMP JUMPDEST PUSH1 0x0 DUP1 PUSH3 0x12BB PUSH1 0x3 PUSH3 0x2419 JUMP JUMPDEST PUSH1 0x0 PUSH3 0x246F PUSH32 0x360894A13BA1A3210667C828492DB98DCA3E2076CC3735A920A3CA505D382BBC PUSH3 0x2542 JUMP JUMPDEST SLOAD PUSH1 0x1 PUSH1 0x1 PUSH1 0xA0 SHL SUB AND SWAP1 POP SWAP1 JUMP JUMPDEST PUSH3 0x2489 DUP2 PUSH3 0x11F8 JUMP JUMPDEST PUSH3 0x24C6 JUMPI PUSH1 0x40 MLOAD PUSH3 0x461BCD PUSH1 0xE5 SHL DUP2 MSTORE PUSH1 0x4 ADD DUP1 DUP1 PUSH1 0x20 ADD DUP3 DUP2 SUB DUP3 MSTORE PUSH1 0x2D DUP2 MSTORE PUSH1 0x20 ADD DUP1 PUSH3 0x5286 PUSH1 0x2D SWAP2 CODECOPY PUSH1 0x40 ADD SWAP2 POP POP PUSH1 0x40 MLOAD DUP1 SWAP2 SUB SWAP1 REVERT JUMPDEST DUP1 PUSH3 0x24F2 PUSH32 0x360894A13BA1A3210667C828492DB98DCA3E2076CC3735A920A3CA505D382BBC PUSH3 0x2542 JUMP JUMPDEST DUP1 SLOAD PUSH1 0x1 PUSH1 0x1 PUSH1 0xA0 SHL SUB NOT AND PUSH1 0x1 PUSH1 0x1 PUSH1 0xA0 SHL SUB SWAP3 SWAP1 SWAP3 AND SWAP2 SWAP1 SWAP2 OR SWAP1 SSTORE POP JUMP JUMPDEST PUSH1 0x60 PUSH3 0x253B DUP4 DUP4 PUSH1 0x40 MLOAD DUP1 PUSH1 0x60 ADD PUSH1 0x40 MSTORE DUP1 PUSH1 0x27 DUP2 MSTORE PUSH1 0x20 ADD PUSH3 0x52B3 PUSH1 0x27 SWAP2 CODECOPY PUSH3 0x2D06 JUMP JUMPDEST SWAP4 SWAP3 POP POP POP JUMP JUMPDEST SWAP1 JUMP JUMPDEST PUSH3 0x2550 DUP2 PUSH3 0x247E JUMP JUMPDEST PUSH1 0x40 MLOAD PUSH1 0x1 PUSH1 0x1 PUSH1 0xA0 SHL SUB DUP3 AND SWAP1 PUSH32 0xBC7CD75A20EE27FD9ADEBAB32041F755214DBC6BFFA90CC0225B39DA2E5C2D3B SWAP1 PUSH1 0x0 SWAP1 LOG2 POP JUMP JUMPDEST PUSH1 0x0 DUP1 PUSH3 0x12BB PUSH1 0x5 PUSH3 0x2419 JUMP JUMPDEST PUSH1 0x0 DUP1 JUMPDEST DUP5 DUP2 LT ISZERO PUSH3 0x173D JUMPI DUP6 DUP6 DUP3 DUP2 DUP2 LT PUSH3 0x25B0 JUMPI INVALID JUMPDEST SWAP1 POP PUSH1 0x20 MUL ADD PUSH1 0x20 DUP2 ADD SWAP1 PUSH3 0x25C7 SWAP2 SWAP1 PUSH3 0x38CF JUMP JUMPDEST DUP8 DUP4 PUSH1 0xE DUP2 LT PUSH3 0x25D4 JUMPI INVALID JUMPDEST PUSH1 0x8 SWAP2 DUP3 DUP3 DIV ADD SWAP2 SWAP1 MOD PUSH1 0x4 MUL PUSH2 0x100 EXP DUP2 SLOAD DUP2 PUSH4 0xFFFFFFFF MUL NOT AND SWAP1 DUP4 PUSH4 0xFFFFFFFF AND MUL OR SWAP1 SSTORE POP DUP2 DUP1 PUSH1 0x1 ADD SWAP3 POP POP DUP4 DUP4 DUP3 DUP2 DUP2 LT PUSH3 0x2612 JUMPI INVALID JUMPDEST SWAP1 POP PUSH1 0x20 MUL ADD PUSH1 0x20 DUP2 ADD SWAP1 PUSH3 0x2629 SWAP2 SWAP1 PUSH3 0x38CF JUMP JUMPDEST DUP8 DUP4 PUSH1 0xE DUP2 LT PUSH3 0x2636 JUMPI INVALID JUMPDEST PUSH1 0x8 SWAP2 DUP3 DUP3 DIV ADD SWAP2 SWAP1 MOD PUSH1 0x4 MUL PUSH2 0x100 EXP DUP2 SLOAD DUP2 PUSH4 0xFFFFFFFF MUL NOT AND SWAP1 DUP4 PUSH4 0xFFFFFFFF AND MUL OR SWAP1 SSTORE POP DUP2 DUP1 PUSH1 0x1 ADD SWAP3 POP POP DUP1 DUP1 PUSH1 0x1 ADD SWAP2 POP POP PUSH3 0x259A JUMP JUMPDEST PUSH1 0x0 DUP1 PUSH3 0x2682 PUSH3 0x2E12 JUMP JUMPDEST PUSH1 0x0 SWAP4 DUP5 MSTORE PUSH1 0x20 MSTORE POP POP PUSH1 0x40 SWAP1 KECCAK256 SLOAD SWAP1 JUMP JUMPDEST PUSH1 0x0 DUP1 PUSH3 0x12BB PUSH1 0x7 PUSH3 0x2419 JUMP JUMPDEST PUSH3 0x26B2 PUSH1 0x20 DUP3 ADD DUP3 PUSH3 0x38EC JUMP JUMPDEST PUSH1 0xFF AND PUSH1 0x2 GT ISZERO DUP1 ISZERO PUSH3 0x26D8 JUMPI POP PUSH1 0x7 PUSH3 0x26D2 PUSH1 0x20 DUP4 ADD DUP4 PUSH3 0x38EC JUMP JUMPDEST PUSH1 0xFF AND GT ISZERO JUMPDEST PUSH3 0x26F7 JUMPI PUSH1 0x40 MLOAD PUSH3 0x461BCD PUSH1 0xE5 SHL DUP2 MSTORE PUSH1 0x4 ADD PUSH3 0x4A0 SWAP1 PUSH3 0x3B16 JUMP JUMPDEST PUSH1 0x64 PUSH3 0x270B PUSH1 0x80 DUP4 ADD PUSH1 0x60 DUP5 ADD PUSH3 0x38EC JUMP JUMPDEST PUSH1 0xFF AND SGT ISZERO PUSH3 0x272F JUMPI PUSH1 0x40 MLOAD PUSH3 0x461BCD PUSH1 0xE5 SHL DUP2 MSTORE PUSH1 0x4 ADD PUSH3 0x4A0 SWAP1 PUSH3 0x4136 JUMP JUMPDEST PUSH3 0x273E PUSH1 0x20 DUP3 ADD DUP3 PUSH3 0x38EC JUMP JUMPDEST PUSH1 0xFF AND PUSH3 0x2751 PUSH2 0x120 DUP4 ADD DUP4 PUSH3 0x422C JUMP JUMPDEST SWAP1 POP EQ PUSH3 0x275E JUMPI PUSH1 0x0 DUP1 REVERT JUMPDEST PUSH3 0x276D PUSH1 0x20 DUP3 ADD DUP3 PUSH3 0x38EC JUMP JUMPDEST PUSH1 0xFF AND PUSH3 0x2780 PUSH2 0x140 DUP4 ADD DUP4 PUSH3 0x422C JUMP JUMPDEST SWAP1 POP EQ PUSH3 0x278D JUMPI PUSH1 0x0 DUP1 REVERT JUMPDEST PUSH3 0x279F PUSH1 0xC0 DUP3 ADD PUSH1 0xA0 DUP4 ADD PUSH3 0x38EC JUMP JUMPDEST PUSH1 0xFF AND PUSH3 0x27B5 PUSH2 0x100 DUP4 ADD PUSH1 0xE0 DUP5 ADD PUSH3 0x38EC JUMP JUMPDEST PUSH1 0xFF AND LT PUSH3 0x27C3 JUMPI PUSH1 0x0 DUP1 REVERT JUMPDEST PUSH3 0x27D5 PUSH1 0xA0 DUP3 ADD PUSH1 0x80 DUP4 ADD PUSH3 0x38EC JUMP JUMPDEST PUSH1 0xFF AND PUSH3 0x27EC PUSH2 0x120 DUP4 ADD PUSH2 0x100 DUP5 ADD PUSH3 0x38EC JUMP JUMPDEST PUSH1 0xFF AND LT PUSH3 0x27FA JUMPI PUSH1 0x0 DUP1 REVERT JUMPDEST PUSH1 0x0 PUSH3 0x2807 DUP4 PUSH3 0x1746 JUMP JUMPDEST SWAP1 POP PUSH3 0x2818 PUSH1 0x20 DUP4 ADD DUP4 PUSH3 0x38EC JUMP JUMPDEST PUSH1 0xFF AND DUP2 PUSH1 0xFF AND GT ISZERO PUSH3 0x2840 JUMPI PUSH1 0x40 MLOAD PUSH3 0x461BCD PUSH1 0xE5 SHL DUP2 MSTORE PUSH1 0x4 ADD PUSH3 0x4A0 SWAP1 PUSH3 0x409A JUMP JUMPDEST PUSH1 0x0 PUSH1 0x40 PUSH3 0x2858 PUSH2 0x120 DUP6 ADD PUSH2 0x100 DUP7 ADD PUSH3 0x38EC JUMP JUMPDEST PUSH1 0xFF AND SWAP1 SHL PUSH1 0x38 PUSH3 0x2872 PUSH2 0x100 DUP7 ADD PUSH1 0xE0 DUP8 ADD PUSH3 0x38EC JUMP JUMPDEST PUSH1 0xFF AND SWAP1 SHL PUSH1 0x30 PUSH3 0x288B PUSH1 0xE0 DUP8 ADD PUSH1 0xC0 DUP9 ADD PUSH3 0x38EC JUMP JUMPDEST PUSH1 0xFF AND SWAP1 SHL PUSH1 0x28 PUSH3 0x28A4 PUSH1 0xC0 DUP9 ADD PUSH1 0xA0 DUP10 ADD PUSH3 0x38EC JUMP JUMPDEST PUSH1 0xFF AND SWAP1 SHL PUSH1 0x20 PUSH3 0x28BD PUSH1 0xA0 DUP10 ADD PUSH1 0x80 DUP11 ADD PUSH3 0x38EC JUMP JUMPDEST PUSH1 0xFF AND SWAP1 SHL PUSH1 0x18 PUSH3 0x28D6 PUSH1 0x80 DUP11 ADD PUSH1 0x60 DUP12 ADD PUSH3 0x38EC JUMP JUMPDEST PUSH1 0xFF AND SWAP1 SHL PUSH1 0x10 PUSH3 0x28EF PUSH1 0x60 DUP12 ADD PUSH1 0x40 DUP13 ADD PUSH3 0x38EC JUMP JUMPDEST PUSH1 0xFF AND SWAP1 SHL PUSH1 0x8 PUSH3 0x2908 PUSH1 0x40 DUP13 ADD PUSH1 0x20 DUP14 ADD PUSH3 0x38EC JUMP JUMPDEST PUSH1 0xFF AND SWAP1 SHL PUSH3 0x291C PUSH1 0x20 DUP13 ADD DUP13 PUSH3 0x38EC JUMP JUMPDEST PUSH1 0xFF AND OR OR OR OR OR OR OR OR SWAP1 POP PUSH1 0x0 JUMPDEST PUSH3 0x293C PUSH2 0x120 DUP6 ADD DUP6 PUSH3 0x422C JUMP JUMPDEST SWAP1 POP DUP2 LT ISZERO PUSH3 0x29EA JUMPI PUSH1 0x64 PUSH3 0x2958 PUSH2 0x120 DUP7 ADD DUP7 PUSH3 0x422C JUMP JUMPDEST DUP4 DUP2 DUP2 LT PUSH3 0x2963 JUMPI INVALID JUMPDEST SWAP1 POP PUSH1 0x20 MUL ADD PUSH1 0x20 DUP2 ADD SWAP1 PUSH3 0x297A SWAP2 SWAP1 PUSH3 0x38EC JUMP JUMPDEST PUSH1 0xFF AND SGT ISZERO PUSH3 0x299E JUMPI PUSH1 0x40 MLOAD PUSH3 0x461BCD PUSH1 0xE5 SHL DUP2 MSTORE PUSH1 0x4 ADD PUSH3 0x4A0 SWAP1 PUSH3 0x3CC5 JUMP JUMPDEST PUSH1 0x48 PUSH1 0x8 DUP3 MUL ADD PUSH3 0x29B5 PUSH2 0x120 DUP7 ADD DUP7 PUSH3 0x422C JUMP JUMPDEST DUP4 DUP2 DUP2 LT PUSH3 0x29C0 JUMPI INVALID JUMPDEST SWAP1 POP PUSH1 0x20 MUL ADD PUSH1 0x20 DUP2 ADD SWAP1 PUSH3 0x29D7 SWAP2 SWAP1 PUSH3 0x38EC JUMP JUMPDEST PUSH1 0xFF AND SWAP1 SHL SWAP2 SWAP1 SWAP2 OR SWAP1 PUSH1 0x1 ADD PUSH3 0x292C JUMP JUMPDEST POP PUSH1 0x0 JUMPDEST PUSH3 0x29FE PUSH2 0x140 DUP6 ADD DUP6 PUSH3 0x422C JUMP JUMPDEST SWAP1 POP DUP2 LT ISZERO PUSH3 0x2AA8 JUMPI PUSH3 0x2A18 PUSH2 0x140 DUP6 ADD DUP6 PUSH3 0x422C JUMP JUMPDEST DUP3 DUP2 DUP2 LT PUSH3 0x2A23 JUMPI INVALID JUMPDEST SWAP1 POP PUSH1 0x20 MUL ADD PUSH1 0x20 DUP2 ADD SWAP1 PUSH3 0x2A3A SWAP2 SWAP1 PUSH3 0x38EC JUMP JUMPDEST PUSH1 0xFF AND PUSH3 0x2A5C JUMPI PUSH1 0x40 MLOAD PUSH3 0x461BCD PUSH1 0xE5 SHL DUP2 MSTORE PUSH1 0x4 ADD PUSH3 0x4A0 SWAP1 PUSH3 0x3B4D JUMP JUMPDEST PUSH1 0x80 PUSH1 0x8 DUP3 MUL ADD PUSH3 0x2A73 PUSH2 0x140 DUP7 ADD DUP7 PUSH3 0x422C JUMP JUMPDEST DUP4 DUP2 DUP2 LT PUSH3 0x2A7E JUMPI INVALID JUMPDEST SWAP1 POP PUSH1 0x20 MUL ADD PUSH1 0x20 DUP2 ADD SWAP1 PUSH3 0x2A95 SWAP2 SWAP1 PUSH3 0x38EC JUMP JUMPDEST PUSH1 0xFF AND SWAP1 SHL SWAP2 SWAP1 SWAP2 OR SWAP1 PUSH1 0x1 ADD PUSH3 0x29EE JUMP JUMPDEST POP PUSH1 0x0 PUSH3 0x2AB5 PUSH3 0x2E12 JUMP JUMPDEST PUSH1 0x0 SWAP6 DUP7 MSTORE PUSH1 0x20 MSTORE POP PUSH1 0x40 SWAP1 SWAP4 KECCAK256 SWAP3 SWAP1 SWAP3 SSTORE POP POP JUMP JUMPDEST PUSH1 0x0 DUP1 PUSH3 0x12BB PUSH1 0xF PUSH3 0x2419 JUMP JUMPDEST PUSH1 0x0 DUP1 PUSH1 0x0 PUSH3 0x2AEB DUP7 DUP6 PUSH3 0x2E21 JUMP JUMPDEST POP SWAP2 POP SWAP2 POP PUSH1 0x0 PUSH3 0x2AFC PUSH3 0x2EC5 JUMP JUMPDEST PUSH1 0x1 PUSH1 0x1 PUSH1 0xA0 SHL SUB DUP9 AND PUSH1 0x0 SWAP1 DUP2 MSTORE PUSH1 0x20 DUP3 SWAP1 MSTORE PUSH1 0x40 DUP2 KECCAK256 SWAP2 SWAP3 POP PUSH3 0x2B23 DUP6 DUP10 PUSH3 0x2ED4 JUMP JUMPDEST SWAP1 POP DUP1 PUSH1 0x0 SGT ISZERO DUP1 ISZERO PUSH3 0x2B3D JUMPI POP PUSH1 0x1 PUSH1 0x1 PUSH1 0x60 SHL SUB DUP2 LT JUMPDEST PUSH3 0x2B47 JUMPI PUSH1 0x0 DUP1 REVERT JUMPDEST DUP2 SLOAD PUSH12 0xFFFFFFFFFFFFFFFFFFFFFFFF NOT AND PUSH1 0x1 PUSH1 0x1 PUSH1 0x60 SHL SUB DUP3 AND OR PUSH16 0xFFFFFFFFFFFFFFFFFFFFFFFFFFFFFFFF PUSH1 0x60 SHL NOT AND PUSH1 0x1 PUSH1 0x60 SHL PUSH1 0x1 PUSH1 0x1 PUSH1 0x80 SHL SUB DUP7 AND MUL OR DUP3 SSTORE PUSH4 0xFFFFFFFF DUP8 LT PUSH3 0x2B9D JUMPI PUSH1 0x0 DUP1 REVERT JUMPDEST POP DUP1 SLOAD PUSH1 0x1 PUSH1 0x1 PUSH1 0xE0 SHL SUB AND PUSH1 0x1 PUSH1 0xE0 SHL PUSH4 0xFFFFFFFF DUP9 AND MUL OR SWAP1 SSTORE POP SWAP2 POP POP SWAP4 SWAP3 POP POP POP JUMP JUMPDEST PUSH1 0x0 DUP1 PUSH3 0x12BB PUSH1 0x10 PUSH3 0x2419 JUMP JUMPDEST PUSH1 0x0 DUP1 PUSH3 0x12BB PUSH1 0x4 PUSH3 0x2419 JUMP JUMPDEST PUSH3 0x2BEC PUSH3 0x31CD JUMP JUMPDEST PUSH1 0x0 PUSH3 0x2BF8 PUSH3 0x2694 JUMP JUMPDEST PUSH1 0x0 DUP6 DUP2 MSTORE PUSH1 0x20 DUP3 DUP2 MSTORE PUSH1 0x40 DUP1 DUP4 KECCAK256 DUP8 ISZERO ISZERO DUP5 MSTORE DUP3 MSTORE SWAP2 DUP3 SWAP1 KECCAK256 DUP3 MLOAD PUSH1 0xA0 DUP2 ADD DUP5 MSTORE DUP2 SLOAD PUSH1 0x1 PUSH1 0x1 PUSH1 0xA0 SHL SUB DUP2 AND DUP3 MSTORE PUSH1 0xFF PUSH1 0x1 PUSH1 0xA0 SHL DUP3 DIV DUP2 AND ISZERO ISZERO SWAP5 DUP4 ADD SWAP5 SWAP1 SWAP5 MSTORE PUSH1 0x1 PUSH1 0xB0 SHL DUP2 DIV DUP5 AND PUSH1 0xA EXP SWAP5 DUP3 ADD SWAP5 SWAP1 SWAP5 MSTORE SWAP4 SWAP5 POP SWAP3 SWAP2 PUSH1 0x60 DUP4 ADD SWAP2 PUSH1 0x1 PUSH1 0xA8 SHL SWAP1 SWAP2 DIV AND PUSH1 0x5 DUP2 GT ISZERO PUSH3 0x2C6E JUMPI INVALID JUMPDEST DUP2 MSTORE SWAP2 SLOAD PUSH1 0x1 PUSH1 0xB8 SHL SWAP1 DIV PUSH1 0x1 PUSH1 0x1 PUSH1 0x48 SHL SUB AND PUSH1 0x20 SWAP1 SWAP3 ADD SWAP2 SWAP1 SWAP2 MSTORE SWAP5 SWAP4 POP POP POP POP JUMP JUMPDEST PUSH1 0x0 PUSH3 0x2C9F PUSH3 0x31FC JUMP JUMPDEST RETURNDATASIZE DUP1 ISZERO PUSH3 0x2CB5 JUMPI PUSH1 0x20 DUP2 EQ PUSH3 0x2CBF JUMPI PUSH1 0x0 DUP1 REVERT JUMPDEST PUSH1 0x1 SWAP3 POP PUSH3 0x2CCA JUMP JUMPDEST PUSH1 0x20 PUSH1 0x0 DUP4 RETURNDATACOPY DUP2 MLOAD SWAP3 POP JUMPDEST POP DUP2 PUSH3 0x918 JUMPI PUSH1 0x40 DUP1 MLOAD PUSH3 0x461BCD PUSH1 0xE5 SHL DUP2 MSTORE PUSH1 0x20 PUSH1 0x4 DUP3 ADD MSTORE PUSH1 0x5 PUSH1 0x24 DUP3 ADD MSTORE PUSH5 0x455243323 PUSH1 0xDC SHL PUSH1 0x44 DUP3 ADD MSTORE SWAP1 MLOAD SWAP1 DUP2 SWAP1 SUB PUSH1 0x64 ADD SWAP1 REVERT JUMPDEST PUSH1 0x60 PUSH3 0x2D13 DUP5 PUSH3 0x11F8 JUMP JUMPDEST PUSH3 0x2D50 JUMPI PUSH1 0x40 MLOAD PUSH3 0x461BCD PUSH1 0xE5 SHL DUP2 MSTORE PUSH1 0x4 ADD DUP1 DUP1 PUSH1 0x20 ADD DUP3 DUP2 SUB DUP3 MSTORE PUSH1 0x26 DUP2 MSTORE PUSH1 0x20 ADD DUP1 PUSH3 0x52DA PUSH1 0x26 SWAP2 CODECOPY PUSH1 0x40 ADD SWAP2 POP POP PUSH1 0x40 MLOAD DUP1 SWAP2 SUB SWAP1 REVERT JUMPDEST PUSH1 0x0 DUP1 DUP6 PUSH1 0x1 PUSH1 0x1 PUSH1 0xA0 SHL SUB AND DUP6 PUSH1 0x40 MLOAD DUP1 DUP3 DUP1 MLOAD SWAP1 PUSH1 0x20 ADD SWAP1 DUP1 DUP4 DUP4 JUMPDEST PUSH1 0x20 DUP4 LT PUSH3 0x2D8F JUMPI DUP1 MLOAD DUP3 MSTORE PUSH1 0x1F NOT SWAP1 SWAP3 ADD SWAP2 PUSH1 0x20 SWAP2 DUP3 ADD SWAP2 ADD PUSH3 0x2D6E JUMP JUMPDEST PUSH1 0x1 DUP4 PUSH1 0x20 SUB PUSH2 0x100 EXP SUB DUP1 NOT DUP3 MLOAD AND DUP2 DUP5 MLOAD AND DUP1 DUP3 OR DUP6 MSTORE POP POP POP POP POP POP SWAP1 POP ADD SWAP2 POP POP PUSH1 0x0 PUSH1 0x40 MLOAD DUP1 DUP4 SUB DUP2 DUP6 GAS DELEGATECALL SWAP2 POP POP RETURNDATASIZE DUP1 PUSH1 0x0 DUP2 EQ PUSH3 0x2DF1 JUMPI PUSH1 0x40 MLOAD SWAP2 POP PUSH1 0x1F NOT PUSH1 0x3F RETURNDATASIZE ADD AND DUP3 ADD PUSH1 0x40 MSTORE RETURNDATASIZE DUP3 MSTORE RETURNDATASIZE PUSH1 0x0 PUSH1 0x20 DUP5 ADD RETURNDATACOPY PUSH3 0x2DF6 JUMP JUMPDEST PUSH1 0x60 SWAP2 POP JUMPDEST POP SWAP2 POP SWAP2 POP PUSH3 0x2E08 DUP3 DUP3 DUP7 PUSH3 0x2EEB JUMP JUMPDEST SWAP7 SWAP6 POP POP POP POP POP POP JUMP JUMPDEST PUSH1 0x0 DUP1 PUSH3 0x12BB PUSH1 0x9 PUSH3 0x2419 JUMP JUMPDEST PUSH1 0x0 DUP1 PUSH1 0x0 PUSH3 0x2E31 DUP6 PUSH3 0x2F95 JUMP JUMPDEST SWAP2 SWAP5 POP SWAP3 POP SWAP1 POP DUP1 DUP5 GT DUP1 ISZERO PUSH3 0x2E48 JUMPI POP PUSH1 0x0 DUP2 GT JUMPDEST DUP1 ISZERO PUSH3 0x2E55 JUMPI POP PUSH1 0x0 DUP4 GT JUMPDEST ISZERO PUSH3 0x2EBE JUMPI PUSH1 0x0 PUSH3 0x2E68 DUP7 PUSH3 0x2FF3 JUMP JUMPDEST POP POP POP SWAP2 POP POP PUSH1 0x0 PUSH3 0x2E97 PUSH3 0x2E8D PUSH4 0x5F5E100 DUP5 PUSH3 0x3061 SWAP1 SWAP2 SWAP1 PUSH4 0xFFFFFFFF AND JUMP JUMPDEST DUP5 DUP9 SUB DUP8 PUSH3 0x30BF JUMP JUMPDEST SWAP1 POP PUSH3 0x2EA5 DUP5 DUP3 PUSH3 0x30FB JUMP JUMPDEST SWAP4 POP PUSH1 0x1 PUSH1 0x1 PUSH1 0x80 SHL SUB DUP5 LT PUSH3 0x2EBB JUMPI PUSH1 0x0 DUP1 REVERT JUMPDEST POP POP JUMPDEST SWAP3 POP SWAP3 POP SWAP3 JUMP JUMPDEST PUSH1 0x0 DUP1 PUSH3 0x12BB PUSH1 0x11 PUSH3 0x2419 JUMP JUMPDEST DUP2 DUP2 ADD DUP3 DUP2 SLT ISZERO PUSH1 0x0 DUP4 SLT ISZERO EQ PUSH3 0x12BB JUMPI PUSH1 0x0 DUP1 REVERT JUMPDEST PUSH1 0x60 DUP4 ISZERO PUSH3 0x2EFC JUMPI POP DUP2 PUSH3 0x253B JUMP JUMPDEST DUP3 MLOAD ISZERO PUSH3 0x2F0D JUMPI DUP3 MLOAD DUP1 DUP5 PUSH1 0x20 ADD REVERT JUMPDEST DUP2 PUSH1 0x40 MLOAD PUSH3 0x461BCD PUSH1 0xE5 SHL DUP2 MSTORE PUSH1 0x4 ADD DUP1 DUP1 PUSH1 0x20 ADD DUP3 DUP2 SUB DUP3 MSTORE DUP4 DUP2 DUP2 MLOAD DUP2 MSTORE PUSH1 0x20 ADD SWAP2 POP DUP1 MLOAD SWAP1 PUSH1 0x20 ADD SWAP1 DUP1 DUP4 DUP4 PUSH1 0x0 JUMPDEST DUP4 DUP2 LT ISZERO PUSH3 0x2F59 JUMPI DUP2 DUP2 ADD MLOAD DUP4 DUP3 ADD MSTORE PUSH1 0x20 ADD PUSH3 0x2F3F JUMP JUMPDEST POP POP POP POP SWAP1 POP SWAP1 DUP2 ADD SWAP1 PUSH1 0x1F AND DUP1 ISZERO PUSH3 0x2F87 JUMPI DUP1 DUP3 SUB DUP1 MLOAD PUSH1 0x1 DUP4 PUSH1 0x20 SUB PUSH2 0x100 EXP SUB NOT AND DUP2 MSTORE PUSH1 0x20 ADD SWAP2 POP JUMPDEST POP SWAP3 POP POP POP PUSH1 0x40 MLOAD DUP1 SWAP2 SUB SWAP1 REVERT JUMPDEST PUSH1 0x0 DUP1 PUSH1 0x0 DUP1 PUSH3 0x2FA5 PUSH3 0x2EC5 JUMP JUMPDEST PUSH1 0x1 PUSH1 0x1 PUSH1 0xA0 SHL SUB SWAP6 SWAP1 SWAP6 AND PUSH1 0x0 SWAP1 DUP2 MSTORE PUSH1 0x20 SWAP6 SWAP1 SWAP6 MSTORE POP POP PUSH1 0x40 SWAP1 SWAP3 KECCAK256 SLOAD PUSH1 0x1 PUSH1 0x1 PUSH1 0x60 SHL SUB DUP2 AND SWAP4 PUSH1 0x1 PUSH1 0x60 SHL DUP3 DIV PUSH1 0x1 PUSH1 0x1 PUSH1 0x80 SHL SUB AND SWAP4 POP PUSH1 0x1 PUSH1 0xE0 SHL SWAP1 SWAP2 DIV PUSH4 0xFFFFFFFF AND SWAP2 POP JUMP JUMPDEST PUSH1 0x0 DUP1 PUSH1 0x0 DUP1 PUSH1 0x0 DUP1 PUSH3 0x3006 PUSH3 0x2400 JUMP JUMPDEST PUSH1 0x1 PUSH1 0x1 PUSH1 0xA0 SHL SUB SWAP1 SWAP8 AND PUSH1 0x0 SWAP1 DUP2 MSTORE PUSH1 0x20 SWAP8 SWAP1 SWAP8 MSTORE POP POP PUSH1 0x40 SWAP1 SWAP5 KECCAK256 SLOAD PUSH2 0xFFFF DUP2 AND SWAP6 PUSH4 0xFFFFFFFF PUSH3 0x10000 DUP4 DIV DUP2 AND SWAP7 POP PUSH7 0x1000000000000 DUP4 DIV AND SWAP5 POP PUSH1 0xFF PUSH1 0x1 PUSH1 0x50 SHL DUP4 DIV AND SWAP4 POP PUSH1 0x1 PUSH1 0x58 SHL SWAP1 SWAP2 DIV PUSH1 0xD8 SHL SWAP2 POP JUMP JUMPDEST PUSH1 0x0 DUP3 PUSH3 0x3072 JUMPI POP PUSH1 0x0 PUSH3 0x12BB JUMP JUMPDEST DUP3 DUP3 MUL DUP3 DUP5 DUP3 DUP2 PUSH3 0x3080 JUMPI INVALID JUMPDEST DIV EQ PUSH3 0x253B JUMPI PUSH1 0x40 MLOAD PUSH3 0x461BCD PUSH1 0xE5 SHL DUP2 MSTORE PUSH1 0x4 ADD DUP1 DUP1 PUSH1 0x20 ADD DUP3 DUP2 SUB DUP3 MSTORE PUSH1 0x21 DUP2 MSTORE PUSH1 0x20 ADD DUP1 PUSH3 0x5265 PUSH1 0x21 SWAP2 CODECOPY PUSH1 0x40 ADD SWAP2 POP POP PUSH1 0x40 MLOAD DUP1 SWAP2 SUB SWAP1 REVERT JUMPDEST PUSH1 0x0 PUSH3 0x30F3 DUP3 PUSH3 0x30EC PUSH4 0x1DA9C00 DUP2 DUP9 PUSH3 0x30E5 DUP10 PUSH8 0xDE0B6B3A7640000 PUSH3 0x3061 JUMP JUMPDEST SWAP1 PUSH3 0x3061 JUMP JUMPDEST SWAP1 PUSH3 0x3156 JUMP JUMPDEST SWAP5 SWAP4 POP POP POP POP JUMP JUMPDEST PUSH1 0x0 DUP3 DUP3 ADD DUP4 DUP2 LT ISZERO PUSH3 0x253B JUMPI PUSH1 0x40 DUP1 MLOAD PUSH3 0x461BCD PUSH1 0xE5 SHL DUP2 MSTORE PUSH1 0x20 PUSH1 0x4 DUP3 ADD MSTORE PUSH1 0x1B PUSH1 0x24 DUP3 ADD MSTORE PUSH32 0x536166654D6174683A206164646974696F6E206F766572666C6F770000000000 PUSH1 0x44 DUP3 ADD MSTORE SWAP1 MLOAD SWAP1 DUP2 SWAP1 SUB PUSH1 0x64 ADD SWAP1 REVERT JUMPDEST PUSH1 0x0 DUP1 DUP3 GT PUSH3 0x31AD JUMPI PUSH1 0x40 DUP1 MLOAD PUSH3 0x461BCD PUSH1 0xE5 SHL DUP2 MSTORE PUSH1 0x20 PUSH1 0x4 DUP3 ADD MSTORE PUSH1 0x1A PUSH1 0x24 DUP3 ADD MSTORE PUSH32 0x536166654D6174683A206469766973696F6E206279207A65726F000000000000 PUSH1 0x44 DUP3 ADD MSTORE SWAP1 MLOAD SWAP1 DUP2 SWAP1 SUB PUSH1 0x64 ADD SWAP1 REVERT JUMPDEST DUP2 DUP4 DUP2 PUSH3 0x31B7 JUMPI INVALID JUMPDEST DIV SWAP4 SWAP3 POP POP POP JUMP JUMPDEST PUSH2 0xF74 DUP1 PUSH3 0x42C2 DUP4 CODECOPY ADD SWAP1 JUMP JUMPDEST PUSH1 0x40 DUP1 MLOAD PUSH1 0xA0 DUP2 ADD DUP3 MSTORE PUSH1 0x0 DUP1 DUP3 MSTORE PUSH1 0x20 DUP3 ADD DUP2 SWAP1 MSTORE SWAP2 DUP2 ADD DUP3 SWAP1 MSTORE SWAP1 PUSH1 0x60 DUP3 ADD SWAP1 DUP2 MSTORE PUSH1 0x20 ADD PUSH1 0x0 DUP2 MSTORE POP SWAP1 JUMP JUMPDEST PUSH1 0x40 MLOAD DUP1 PUSH1 0x20 ADD PUSH1 0x40 MSTORE DUP1 PUSH1 0x1 SWAP1 PUSH1 0x20 DUP3 MUL DUP1 CALLDATASIZE DUP4 CALLDATACOPY POP SWAP2 SWAP3 SWAP2 POP POP JUMP JUMPDEST PUSH1 0x0 DUP1 DUP4 PUSH1 0x1F DUP5 ADD SLT PUSH3 0x322C JUMPI DUP1 DUP2 REVERT JUMPDEST POP DUP2 CALLDATALOAD PUSH8 0xFFFFFFFFFFFFFFFF DUP2 GT ISZERO PUSH3 0x3244 JUMPI DUP2 DUP3 REVERT JUMPDEST PUSH1 0x20 DUP4 ADD SWAP2 POP DUP4 PUSH1 0x20 DUP1 DUP4 MUL DUP6 ADD ADD GT ISZERO PUSH3 0x325F JUMPI PUSH1 0x0 DUP1 REVERT JUMPDEST SWAP3 POP SWAP3 SWAP1 POP JUMP JUMPDEST DUP1 CALLDATALOAD DUP1 ISZERO ISZERO DUP2 EQ PUSH3 0x11FD JUMPI PUSH1 0x0 DUP1 REVERT JUMPDEST DUP1 CALLDATALOAD PUSH1 0x6 DUP2 LT PUSH3 0x11FD JUMPI PUSH1 0x0 DUP1 REVERT JUMPDEST PUSH1 0x0 DUP1 DUP4 PUSH1 0x1F DUP5 ADD SLT PUSH3 0x3299 JUMPI DUP2 DUP3 REVERT JUMPDEST POP DUP2 CALLDATALOAD PUSH8 0xFFFFFFFFFFFFFFFF DUP2 GT ISZERO PUSH3 0x32B1 JUMPI DUP2 DUP3 REVERT JUMPDEST PUSH1 0x20 DUP4 ADD SWAP2 POP DUP4 PUSH1 0x20 DUP3 DUP6 ADD ADD GT ISZERO PUSH3 0x325F JUMPI PUSH1 0x0 DUP1 REVERT JUMPDEST PUSH1 0x0 PUSH2 0x160 DUP3 DUP5 SUB SLT ISZERO PUSH3 0x32DD JUMPI DUP1 DUP2 REVERT JUMPDEST POP SWAP2 SWAP1 POP JUMP JUMPDEST PUSH1 0x0 PUSH1 0xA0 DUP3 DUP5 SUB SLT ISZERO PUSH3 0x32DD JUMPI DUP1 DUP2 REVERT JUMPDEST DUP1 CALLDATALOAD PUSH2 0xFFFF DUP2 AND DUP2 EQ PUSH3 0x11FD JUMPI PUSH1 0x0 DUP1 REVERT JUMPDEST DUP1 CALLDATALOAD PUSH4 0xFFFFFFFF DUP2 AND DUP2 EQ PUSH3 0x11FD JUMPI PUSH1 0x0 DUP1 REVERT JUMPDEST DUP1 CALLDATALOAD PUSH1 0x1 PUSH1 0x1 PUSH1 0x48 SHL SUB DUP2 AND DUP2 EQ PUSH3 0x11FD JUMPI PUSH1 0x0 DUP1 REVERT JUMPDEST PUSH1 0x0 PUSH1 0x20 DUP3 DUP5 SUB SLT ISZERO PUSH3 0x3347 JUMPI DUP1 DUP2 REVERT JUMPDEST DUP2 CALLDATALOAD PUSH3 0x253B DUP2 PUSH3 0x429B JUMP JUMPDEST PUSH1 0x0 PUSH1 0x20 DUP3 DUP5 SUB SLT ISZERO PUSH3 0x3366 JUMPI DUP1 DUP2 REVERT JUMPDEST DUP2 MLOAD PUSH3 0x253B DUP2 PUSH3 0x429B JUMP JUMPDEST PUSH1 0x0 DUP1 PUSH1 0x40 DUP4 DUP6 SUB SLT ISZERO PUSH3 0x3386 JUMPI DUP1 DUP2 REVERT JUMPDEST DUP3 CALLDATALOAD PUSH3 0x3393 DUP2 PUSH3 0x429B JUMP JUMPDEST SWAP2 POP PUSH1 0x20 DUP4 ADD CALLDATALOAD PUSH3 0x33A5 DUP2 PUSH3 0x429B JUMP JUMPDEST DUP1 SWAP2 POP POP SWAP3 POP SWAP3 SWAP1 POP JUMP JUMPDEST PUSH1 0x0 DUP1 PUSH1 0x40 DUP4 DUP6 SUB SLT ISZERO PUSH3 0x33C3 JUMPI DUP2 DUP3 REVERT JUMPDEST DUP3 CALLDATALOAD PUSH3 0x33D0 DUP2 PUSH3 0x429B JUMP JUMPDEST SWAP2 POP PUSH3 0x33E0 PUSH1 0x20 DUP5 ADD PUSH3 0x3266 JUMP JUMPDEST SWAP1 POP SWAP3 POP SWAP3 SWAP1 POP JUMP JUMPDEST PUSH1 0x0 DUP1 PUSH1 0x40 DUP4 DUP6 SUB SLT ISZERO PUSH3 0x33FC JUMPI DUP2 DUP3 REVERT JUMPDEST DUP3 CALLDATALOAD PUSH3 0x3409 DUP2 PUSH3 0x429B JUMP JUMPDEST SWAP2 POP PUSH1 0x20 DUP4 DUP2 ADD CALLDATALOAD PUSH8 0xFFFFFFFFFFFFFFFF DUP1 DUP3 GT ISZERO PUSH3 0x3427 JUMPI DUP4 DUP5 REVERT JUMPDEST DUP2 DUP7 ADD SWAP2 POP DUP7 PUSH1 0x1F DUP4 ADD SLT PUSH3 0x343B JUMPI DUP4 DUP5 REVERT JUMPDEST DUP2 CALLDATALOAD DUP2 DUP2 GT ISZERO PUSH3 0x3448 JUMPI INVALID JUMPDEST PUSH3 0x345C PUSH1 0x1F DUP3 ADD PUSH1 0x1F NOT AND DUP6 ADD PUSH3 0x4276 JUMP JUMPDEST SWAP2 POP DUP1 DUP3 MSTORE DUP8 DUP5 DUP3 DUP6 ADD ADD GT ISZERO PUSH3 0x3472 JUMPI DUP5 DUP6 REVERT JUMPDEST DUP1 DUP5 DUP5 ADD DUP6 DUP5 ADD CALLDATACOPY DUP2 ADD SWAP1 SWAP3 ADD SWAP3 SWAP1 SWAP3 MSTORE SWAP2 SWAP5 SWAP2 SWAP4 POP SWAP1 SWAP2 POP POP JUMP JUMPDEST PUSH1 0x0 PUSH1 0x20 DUP3 DUP5 SUB SLT ISZERO PUSH3 0x34A0 JUMPI DUP1 DUP2 REVERT JUMPDEST PUSH3 0x253B DUP3 PUSH3 0x3277 JUMP JUMPDEST PUSH1 0x0 DUP1 PUSH1 0x0 DUP1 PUSH1 0x0 DUP1 PUSH1 0x0 PUSH2 0x1E0 DUP9 DUP11 SUB SLT ISZERO PUSH3 0x34C7 JUMPI DUP3 DUP4 REVERT JUMPDEST PUSH3 0x34D3 DUP10 DUP10 PUSH3 0x32E3 JUMP JUMPDEST SWAP7 POP PUSH3 0x34E4 DUP10 PUSH1 0xA0 DUP11 ADD PUSH3 0x32E3 JUMP JUMPDEST SWAP6 POP PUSH2 0x140 DUP9 ADD CALLDATALOAD PUSH3 0x34F7 DUP2 PUSH3 0x429B JUMP JUMPDEST SWAP5 POP PUSH3 0x3508 PUSH2 0x160 DUP10 ADD PUSH3 0x3266 JUMP JUMPDEST SWAP4 POP PUSH2 0x180 DUP9 ADD CALLDATALOAD PUSH3 0x351B DUP2 PUSH3 0x42B1 JUMP JUMPDEST SWAP3 POP PUSH2 0x1A0 DUP9 ADD CALLDATALOAD PUSH3 0x352E DUP2 PUSH3 0x42B1 JUMP JUMPDEST SWAP2 POP PUSH2 0x1C0 DUP9 ADD CALLDATALOAD PUSH3 0x3541 DUP2 PUSH3 0x42B1 JUMP JUMPDEST DUP1 SWAP2 POP POP SWAP3 SWAP6 SWAP9 SWAP2 SWAP5 SWAP8 POP SWAP3 SWAP6 POP JUMP JUMPDEST PUSH1 0x0 PUSH1 0xA0 DUP3 DUP5 SUB SLT ISZERO PUSH3 0x3563 JUMPI DUP1 DUP2 REVERT JUMPDEST PUSH1 0x40 MLOAD PUSH1 0xA0 DUP2 ADD DUP2 DUP2 LT PUSH8 0xFFFFFFFFFFFFFFFF DUP3 GT OR ISZERO PUSH3 0x3581 JUMPI INVALID JUMPDEST PUSH1 0x40 MSTORE DUP3 CALLDATALOAD PUSH3 0x3591 DUP2 PUSH3 0x429B JUMP JUMPDEST DUP2 MSTORE PUSH3 0x35A1 PUSH1 0x20 DUP5 ADD PUSH3 0x3266 JUMP JUMPDEST PUSH1 0x20 DUP3 ADD MSTORE PUSH3 0x35B4 PUSH1 0x40 DUP5 ADD PUSH3 0x3277 JUMP JUMPDEST PUSH1 0x40 DUP3 ADD MSTORE PUSH1 0x60 DUP4 ADD CALLDATALOAD PUSH3 0x35C9 DUP2 PUSH3 0x42B1 JUMP JUMPDEST PUSH1 0x60 DUP3 ADD MSTORE PUSH3 0x35DC PUSH1 0x80 DUP5 ADD PUSH3 0x331D JUMP JUMPDEST PUSH1 0x80 DUP3 ADD MSTORE SWAP4 SWAP3 POP POP POP JUMP JUMPDEST PUSH1 0x0 DUP1 PUSH1 0x0 DUP1 PUSH1 0x0 PUSH1 0x60 DUP7 DUP9 SUB SLT ISZERO PUSH3 0x3600 JUMPI DUP3 DUP4 REVERT JUMPDEST PUSH3 0x360B DUP7 PUSH3 0x32F5 JUMP JUMPDEST SWAP5 POP PUSH1 0x20 DUP7 ADD CALLDATALOAD PUSH8 0xFFFFFFFFFFFFFFFF DUP1 DUP3 GT ISZERO PUSH3 0x3628 JUMPI DUP5 DUP6 REVERT JUMPDEST PUSH3 0x3636 DUP10 DUP4 DUP11 ADD PUSH3 0x321A JUMP JUMPDEST SWAP1 SWAP7 POP SWAP5 POP PUSH1 0x40 DUP9 ADD CALLDATALOAD SWAP2 POP DUP1 DUP3 GT ISZERO PUSH3 0x364F JUMPI DUP3 DUP4 REVERT JUMPDEST POP PUSH3 0x365E DUP9 DUP3 DUP10 ADD PUSH3 0x321A JUMP JUMPDEST SWAP7 SWAP10 SWAP6 SWAP9 POP SWAP4 SWAP7 POP SWAP3 SWAP5 SWAP4 SWAP3 POP POP POP JUMP JUMPDEST PUSH1 0x0 DUP1 PUSH1 0x0 DUP1 PUSH1 0x0 DUP1 PUSH1 0xC0 DUP8 DUP10 SUB SLT ISZERO PUSH3 0x3688 JUMPI DUP4 DUP5 REVERT JUMPDEST PUSH3 0x3693 DUP8 PUSH3 0x32F5 JUMP JUMPDEST SWAP6 POP PUSH1 0x20 DUP8 ADD CALLDATALOAD PUSH3 0x36A5 DUP2 PUSH3 0x429B JUMP JUMPDEST SWAP5 POP PUSH3 0x36B5 PUSH1 0x40 DUP9 ADD PUSH3 0x3266 JUMP JUMPDEST SWAP4 POP PUSH1 0x60 DUP8 ADD CALLDATALOAD PUSH3 0x36C7 DUP2 PUSH3 0x42B1 JUMP JUMPDEST SWAP3 POP PUSH1 0x80 DUP8 ADD CALLDATALOAD PUSH3 0x36D9 DUP2 PUSH3 0x42B1 JUMP JUMPDEST SWAP2 POP PUSH1 0xA0 DUP8 ADD CALLDATALOAD PUSH3 0x36EB DUP2 PUSH3 0x42B1 JUMP JUMPDEST DUP1 SWAP2 POP POP SWAP3 SWAP6 POP SWAP3 SWAP6 POP SWAP3 SWAP6 JUMP JUMPDEST PUSH1 0x0 DUP1 PUSH1 0x40 DUP4 DUP6 SUB SLT ISZERO PUSH3 0x370C JUMPI DUP2 DUP3 REVERT JUMPDEST PUSH3 0x3393 DUP4 PUSH3 0x32F5 JUMP JUMPDEST PUSH1 0x0 DUP1 PUSH1 0x0 DUP1 PUSH1 0x0 DUP1 PUSH1 0x0 PUSH1 0xA0 DUP9 DUP11 SUB SLT ISZERO PUSH3 0x3732 JUMPI DUP1 DUP2 REVERT JUMPDEST PUSH3 0x373D DUP9 PUSH3 0x32F5 JUMP JUMPDEST SWAP7 POP PUSH1 0x20 DUP9 ADD CALLDATALOAD PUSH3 0x374F DUP2 PUSH3 0x429B JUMP JUMPDEST SWAP6 POP PUSH1 0x40 DUP9 ADD CALLDATALOAD PUSH8 0xFFFFFFFFFFFFFFFF DUP1 DUP3 GT ISZERO PUSH3 0x376C JUMPI DUP3 DUP4 REVERT JUMPDEST PUSH3 0x377A DUP12 DUP4 DUP13 ADD PUSH3 0x32CA JUMP JUMPDEST SWAP7 POP PUSH1 0x60 DUP11 ADD CALLDATALOAD SWAP2 POP DUP1 DUP3 GT ISZERO PUSH3 0x3790 JUMPI DUP3 DUP4 REVERT JUMPDEST PUSH3 0x379E DUP12 DUP4 DUP13 ADD PUSH3 0x3287 JUMP JUMPDEST SWAP1 SWAP7 POP SWAP5 POP PUSH1 0x80 DUP11 ADD CALLDATALOAD SWAP2 POP DUP1 DUP3 GT ISZERO PUSH3 0x37B7 JUMPI DUP3 DUP4 REVERT JUMPDEST POP PUSH3 0x37C6 DUP11 DUP3 DUP12 ADD PUSH3 0x3287 JUMP JUMPDEST SWAP9 SWAP12 SWAP8 SWAP11 POP SWAP6 SWAP9 POP SWAP4 SWAP7 SWAP3 SWAP6 SWAP3 SWAP4 POP POP POP JUMP JUMPDEST PUSH1 0x0 DUP1 PUSH1 0x40 DUP4 DUP6 SUB SLT ISZERO PUSH3 0x37EC JUMPI DUP2 DUP3 REVERT JUMPDEST PUSH3 0x37F7 DUP4 PUSH3 0x32F5 JUMP JUMPDEST SWAP2 POP PUSH1 0x20 DUP4 ADD CALLDATALOAD PUSH8 0xFFFFFFFFFFFFFFFF DUP2 GT ISZERO PUSH3 0x3813 JUMPI DUP2 DUP3 REVERT JUMPDEST PUSH3 0x3821 DUP6 DUP3 DUP7 ADD PUSH3 0x32CA JUMP JUMPDEST SWAP2 POP POP SWAP3 POP SWAP3 SWAP1 POP JUMP JUMPDEST PUSH1 0x0 DUP1 PUSH1 0x40 DUP4 DUP6 SUB SLT ISZERO PUSH3 0x383E JUMPI DUP2 DUP3 REVERT JUMPDEST PUSH3 0x3849 DUP4 PUSH3 0x32F5 JUMP JUMPDEST SWAP2 POP PUSH3 0x33E0 PUSH1 0x20 DUP5 ADD PUSH3 0x3308 JUMP JUMPDEST PUSH1 0x0 DUP1 PUSH1 0x40 DUP4 DUP6 SUB SLT ISZERO PUSH3 0x386C JUMPI DUP2 DUP3 REVERT JUMPDEST PUSH3 0x3877 DUP4 PUSH3 0x32F5 JUMP JUMPDEST SWAP2 POP PUSH3 0x33E0 PUSH1 0x20 DUP5 ADD PUSH3 0x331D JUMP JUMPDEST PUSH1 0x0 DUP1 PUSH1 0x0 DUP1 PUSH1 0x0 DUP1 PUSH1 0xC0 DUP8 DUP10 SUB SLT ISZERO PUSH3 0x38A0 JUMPI DUP4 DUP5 REVERT JUMPDEST PUSH3 0x38AB DUP8 PUSH3 0x32F5 JUMP JUMPDEST SWAP6 POP PUSH1 0x20 DUP8 ADD CALLDATALOAD PUSH3 0x38BD DUP2 PUSH3 0x42B1 JUMP JUMPDEST SWAP5 POP PUSH1 0x40 DUP8 ADD CALLDATALOAD PUSH3 0x36B5 DUP2 PUSH3 0x42B1 JUMP JUMPDEST PUSH1 0x0 PUSH1 0x20 DUP3 DUP5 SUB SLT ISZERO PUSH3 0x38E1 JUMPI DUP1 DUP2 REVERT JUMPDEST PUSH3 0x253B DUP3 PUSH3 0x3308 JUMP JUMPDEST PUSH1 0x0 PUSH1 0x20 DUP3 DUP5 SUB SLT ISZERO PUSH3 0x38FE JUMPI DUP1 DUP2 REVERT JUMPDEST DUP2 CALLDATALOAD PUSH3 0x253B DUP2 PUSH3 0x42B1 JUMP JUMPDEST PUSH1 0x0 PUSH1 0x20 DUP3 DUP5 SUB SLT ISZERO PUSH3 0x391D JUMPI DUP1 DUP2 REVERT JUMPDEST DUP2 MLOAD PUSH3 0x253B DUP2 PUSH3 0x42B1 JUMP JUMPDEST PUSH1 0x0 DUP3 DUP5 MSTORE DUP3 DUP3 PUSH1 0x20 DUP7 ADD CALLDATACOPY DUP1 PUSH1 0x20 DUP5 DUP7 ADD ADD MSTORE PUSH1 0x20 PUSH1 0x1F NOT PUSH1 0x1F DUP6 ADD AND DUP6 ADD ADD SWAP1 POP SWAP4 SWAP3 POP POP POP JUMP JUMPDEST PUSH1 0x1 PUSH1 0x1 PUSH1 0xA0 SHL SUB SWAP2 SWAP1 SWAP2 AND DUP2 MSTORE PUSH1 0x20 ADD SWAP1 JUMP JUMPDEST PUSH1 0x1 PUSH1 0x1 PUSH1 0xA0 SHL SUB SWAP3 SWAP1 SWAP3 AND DUP3 MSTORE ISZERO ISZERO PUSH1 0x20 DUP3 ADD MSTORE PUSH1 0x40 ADD SWAP1 JUMP JUMPDEST PUSH1 0x1 PUSH1 0x1 PUSH1 0xA0 SHL SUB SWAP3 SWAP1 SWAP3 AND DUP3 MSTORE PUSH1 0x20 DUP3 ADD MSTORE PUSH1 0x40 ADD SWAP1 JUMP JUMPDEST PUSH1 0x1 PUSH1 0x1 PUSH1 0xA0 SHL SUB DUP8 AND DUP2 MSTORE PUSH2 0xFFFF DUP7 AND PUSH1 0x20 DUP3 ADD MSTORE PUSH1 0x80 PUSH1 0x40 DUP3 ADD DUP2 SWAP1 MSTORE PUSH1 0x0 SWAP1 PUSH3 0x39CD SWAP1 DUP4 ADD DUP7 DUP9 PUSH3 0x392A JUMP JUMPDEST DUP3 DUP2 SUB PUSH1 0x60 DUP5 ADD MSTORE PUSH3 0x39E2 DUP2 DUP6 DUP8 PUSH3 0x392A JUMP JUMPDEST SWAP10 SWAP9 POP POP POP POP POP POP POP POP POP JUMP JUMPDEST PUSH1 0x20 DUP1 DUP3 MSTORE PUSH1 0x19 SWAP1 DUP3 ADD MSTORE PUSH32 0x50543A206C65766572616765207368617265206C656E67746800000000000000 PUSH1 0x40 DUP3 ADD MSTORE PUSH1 0x60 ADD SWAP1 JUMP JUMPDEST PUSH1 0x20 DUP1 DUP3 MSTORE PUSH1 0x16 SWAP1 DUP3 ADD MSTORE PUSH22 0xA0A87440E0E4DEE0DEE4E8D2DEDCE640D8CADCCEE8D PUSH1 0x53 SHL PUSH1 0x40 DUP3 ADD MSTORE PUSH1 0x60 ADD SWAP1 JUMP JUMPDEST PUSH1 0x20 DUP1 DUP3 MSTORE PUSH1 0x18 SWAP1 DUP3 ADD MSTORE PUSH32 0x473A206D61782063757272656E6379206F766572666C6F770000000000000000 PUSH1 0x40 DUP3 ADD MSTORE PUSH1 0x60 ADD SWAP1 JUMP JUMPDEST PUSH1 0x20 DUP1 DUP3 MSTORE PUSH1 0x13 SWAP1 DUP3 ADD MSTORE PUSH19 0x50543A2063757272656E637920657869737473 PUSH1 0x68 SHL PUSH1 0x40 DUP3 ADD MSTORE PUSH1 0x60 ADD SWAP1 JUMP JUMPDEST PUSH1 0x20 DUP1 DUP3 MSTORE PUSH1 0x15 SWAP1 DUP3 ADD MSTORE PUSH21 0x473A20696E76616C69642061737365742072617465 PUSH1 0x58 SHL PUSH1 0x40 DUP3 ADD MSTORE PUSH1 0x60 ADD SWAP1 JUMP JUMPDEST PUSH1 0x20 DUP1 DUP3 MSTORE PUSH1 0x13 SWAP1 DUP3 ADD MSTORE PUSH19 0x54483A2061646472657373206973207A65726F PUSH1 0x68 SHL PUSH1 0x40 DUP3 ADD MSTORE PUSH1 0x60 ADD SWAP1 JUMP JUMPDEST PUSH1 0x20 DUP1 DUP3 MSTORE PUSH1 0x18 SWAP1 DUP3 ADD MSTORE PUSH32 0x43473A20696E76616C6964206D61726B657420696E6465780000000000000000 PUSH1 0x40 DUP3 ADD MSTORE PUSH1 0x60 ADD SWAP1 JUMP JUMPDEST PUSH1 0x20 DUP1 DUP3 MSTORE PUSH1 0x17 SWAP1 DUP3 ADD MSTORE PUSH32 0x43473A20696E76616C69642072617465207363616C6172000000000000000000 PUSH1 0x40 DUP3 ADD MSTORE PUSH1 0x60 ADD SWAP1 JUMP JUMPDEST PUSH1 0x20 DUP1 DUP3 MSTORE PUSH1 0x10 SWAP1 DUP3 ADD MSTORE PUSH16 0x496E76616C69642063757272656E6379 PUSH1 0x80 SHL PUSH1 0x40 DUP3 ADD MSTORE PUSH1 0x60 ADD SWAP1 JUMP JUMPDEST PUSH1 0x20 DUP1 DUP3 MSTORE PUSH1 0x1B SWAP1 DUP3 ADD MSTORE PUSH32 0x5265776172646572206D757374206265206120636F6E74726163740000000000 PUSH1 0x40 DUP3 ADD MSTORE PUSH1 0x60 ADD SWAP1 JUMP JUMPDEST PUSH1 0x20 DUP1 DUP3 MSTORE PUSH1 0xF SWAP1 DUP3 ADD MSTORE PUSH15 0x125B9D985B1A59081A185A5C98DD5D PUSH1 0x8A SHL PUSH1 0x40 DUP3 ADD MSTORE PUSH1 0x60 ADD SWAP1 JUMP JUMPDEST PUSH1 0x20 DUP1 DUP3 MSTORE PUSH1 0x14 SWAP1 DUP3 ADD MSTORE PUSH20 0x125B9D985B1A59081B195B991A5B99C81C1BDBDB PUSH1 0x62 SHL PUSH1 0x40 DUP3 ADD MSTORE PUSH1 0x60 ADD SWAP1 JUMP JUMPDEST PUSH1 0x20 DUP1 DUP3 MSTORE PUSH1 0x14 SWAP1 DUP3 ADD MSTORE PUSH20 0x4E543A20616E63686F722072617465207A65726F PUSH1 0x60 SHL PUSH1 0x40 DUP3 ADD MSTORE PUSH1 0x60 ADD SWAP1 JUMP JUMPDEST PUSH1 0x20 DUP1 DUP3 MSTORE PUSH1 0x12 SWAP1 DUP3 ADD MSTORE PUSH18 0x239D1034B73B30B634B21030B230B83A32B9 PUSH1 0x71 SHL PUSH1 0x40 DUP3 ADD MSTORE PUSH1 0x60 ADD SWAP1 JUMP JUMPDEST PUSH1 0x20 DUP1 DUP3 MSTORE PUSH1 0x15 SWAP1 DUP3 ADD MSTORE PUSH21 0x4F776E61626C653A207A65726F2061646472657373 PUSH1 0x58 SHL PUSH1 0x40 DUP3 ADD MSTORE PUSH1 0x60 ADD SWAP1 JUMP JUMPDEST PUSH1 0x20 DUP1 DUP3 MSTORE PUSH1 0x19 SWAP1 DUP3 ADD MSTORE PUSH32 0x43473A20696E76616C696420746F6B656E206861697263757400000000000000 PUSH1 0x40 DUP3 ADD MSTORE PUSH1 0x60 ADD SWAP1 JUMP JUMPDEST PUSH1 0x20 DUP1 DUP3 MSTORE PUSH1 0x11 SWAP1 DUP3 ADD MSTORE PUSH17 0x496E76616C696420646973636F756E7473 PUSH1 0x78 SHL PUSH1 0x40 DUP3 ADD MSTORE PUSH1 0x60 ADD SWAP1 JUMP JUMPDEST PUSH1 0x20 DUP1 DUP3 MSTORE PUSH1 0x14 SWAP1 DUP3 ADD MSTORE PUSH20 0x54483A20696E76616C696420646563696D616C73 PUSH1 0x60 SHL PUSH1 0x40 DUP3 ADD MSTORE PUSH1 0x60 ADD SWAP1 JUMP JUMPDEST PUSH1 0x20 DUP1 DUP3 MSTORE PUSH1 0x1A SWAP1 DUP3 ADD MSTORE PUSH32 0x473A206475706C696361746520746F6B656E206C697374696E67000000000000 PUSH1 0x40 DUP3 ADD MSTORE PUSH1 0x60 ADD SWAP1 JUMP JUMPDEST PUSH1 0x20 DUP1 DUP3 MSTORE PUSH1 0x19 SWAP1 DUP3 ADD MSTORE PUSH32 0x54483A20746F6B656E2063616E6E6F7420626520726573657400000000000000 PUSH1 0x40 DUP3 ADD MSTORE PUSH1 0x60 ADD SWAP1 JUMP JUMPDEST PUSH1 0x20 DUP1 DUP3 MSTORE PUSH1 0x1B SWAP1 DUP3 ADD MSTORE PUSH32 0x4F70657261746F72206D757374206265206120636F6E74726163740000000000 PUSH1 0x40 DUP3 ADD MSTORE PUSH1 0x60 ADD SWAP1 JUMP JUMPDEST PUSH1 0x20 DUP1 DUP3 MSTORE PUSH1 0x1E SWAP1 DUP3 ADD MSTORE PUSH32 0x473A20627566666572206D7573742062652067746520646563696D616C730000 PUSH1 0x40 DUP3 ADD MSTORE PUSH1 0x60 ADD SWAP1 JUMP JUMPDEST PUSH1 0x20 DUP1 DUP3 MSTORE PUSH1 0x22 SWAP1 DUP3 ADD MSTORE PUSH32 0x50543A20616E6E75616C697A656420616E63686F72207261746573206C656E67 PUSH1 0x40 DUP3 ADD MSTORE PUSH2 0xE8D PUSH1 0xF3 SHL PUSH1 0x60 DUP3 ADD MSTORE PUSH1 0x80 ADD SWAP1 JUMP JUMPDEST PUSH1 0x20 DUP1 DUP3 MSTORE PUSH1 0x16 SWAP1 DUP3 ADD MSTORE PUSH22 0x14150E881B195D995C9859D9481D1A1C995CDA1BDB19 PUSH1 0x52 SHL PUSH1 0x40 DUP3 ADD MSTORE PUSH1 0x60 ADD SWAP1 JUMP JUMPDEST PUSH1 0x20 DUP1 DUP3 MSTORE DUP2 DUP2 ADD MSTORE PUSH32 0x4F776E61626C653A2063616C6C6572206973206E6F7420746865206F776E6572 PUSH1 0x40 DUP3 ADD MSTORE PUSH1 0x60 ADD SWAP1 JUMP JUMPDEST PUSH1 0x20 DUP1 DUP3 MSTORE PUSH1 0x1F SWAP1 DUP3 ADD MSTORE PUSH32 0x473A20646973636F756E74206D75737420626520677420646563696D616C7300 PUSH1 0x40 DUP3 ADD MSTORE PUSH1 0x60 ADD SWAP1 JUMP JUMPDEST PUSH1 0x20 DUP1 DUP3 MSTORE PUSH1 0x14 SWAP1 DUP3 ADD MSTORE PUSH20 0x556E617574686F72697A65642075706772616465 PUSH1 0x60 SHL PUSH1 0x40 DUP3 ADD MSTORE PUSH1 0x60 ADD SWAP1 JUMP JUMPDEST PUSH1 0x20 DUP1 DUP3 MSTORE PUSH1 0x1E SWAP1 DUP3 ADD MSTORE PUSH32 0x473A20627566666572206D757374206265206C746520646563696D616C730000 PUSH1 0x40 DUP3 ADD MSTORE PUSH1 0x60 ADD SWAP1 JUMP JUMPDEST PUSH1 0x20 DUP1 DUP3 MSTORE DUP2 DUP2 ADD MSTORE PUSH32 0x4F776E61626C653A2063616C6C657220213D2070656E64696E67206F776E6572 PUSH1 0x40 DUP3 ADD MSTORE PUSH1 0x60 ADD SWAP1 JUMP JUMPDEST PUSH1 0x20 DUP1 DUP3 MSTORE PUSH1 0x1B SWAP1 DUP3 ADD MSTORE PUSH32 0x473A207A65726F2072617465206F7261636C6520616464726573730000000000 PUSH1 0x40 DUP3 ADD MSTORE PUSH1 0x60 ADD SWAP1 JUMP JUMPDEST PUSH1 0x20 DUP1 DUP3 MSTORE PUSH1 0x16 SWAP1 DUP3 ADD MSTORE PUSH22 0x50543A206465706F736974207368617265732073756D PUSH1 0x50 SHL PUSH1 0x40 DUP3 ADD MSTORE PUSH1 0x60 ADD SWAP1 JUMP JUMPDEST PUSH1 0x20 DUP1 DUP3 MSTORE PUSH1 0xC SWAP1 DUP3 ADD MSTORE PUSH12 0x496E76616C69642072617465 PUSH1 0xA0 SHL PUSH1 0x40 DUP3 ADD MSTORE PUSH1 0x60 ADD SWAP1 JUMP JUMPDEST PUSH1 0x20 DUP1 DUP3 MSTORE PUSH1 0x13 SWAP1 DUP3 ADD MSTORE PUSH19 0x125B9D985B1A590818DD5C9C995B98DE481A59 PUSH1 0x6A SHL PUSH1 0x40 DUP3 ADD MSTORE PUSH1 0x60 ADD SWAP1 JUMP JUMPDEST PUSH1 0x20 DUP1 DUP3 MSTORE PUSH1 0x18 SWAP1 DUP3 ADD MSTORE PUSH32 0x50543A206465706F736974207368617265206C656E6774680000000000000000 PUSH1 0x40 DUP3 ADD MSTORE PUSH1 0x60 ADD SWAP1 JUMP JUMPDEST PUSH1 0x20 DUP1 DUP3 MSTORE DUP2 DUP2 ADD MSTORE PUSH32 0x43473A206D61726B657420696E6465782063616E6E6F74206465637265617365 PUSH1 0x40 DUP3 ADD MSTORE PUSH1 0x60 ADD SWAP1 JUMP JUMPDEST PUSH1 0x20 DUP1 DUP3 MSTORE PUSH1 0x18 SWAP1 DUP3 ADD MSTORE PUSH32 0x50543A20746F6B656E2061646472657373206578697374730000000000000000 PUSH1 0x40 DUP3 ADD MSTORE PUSH1 0x60 ADD SWAP1 JUMP JUMPDEST PUSH1 0x20 DUP1 DUP3 MSTORE PUSH1 0x16 SWAP1 DUP3 ADD MSTORE PUSH22 0x282A1D1034B73B30B634B210383937B837B93A34B7B7 PUSH1 0x51 SHL PUSH1 0x40 DUP3 ADD MSTORE PUSH1 0x60 ADD SWAP1 JUMP JUMPDEST PUSH1 0x20 DUP1 DUP3 MSTORE PUSH1 0x19 SWAP1 DUP3 ADD MSTORE PUSH32 0x43473A20696E76616C6964207265736572766520736861726500000000000000 PUSH1 0x40 DUP3 ADD MSTORE PUSH1 0x60 ADD SWAP1 JUMP JUMPDEST PUSH1 0x20 DUP1 DUP3 MSTORE PUSH1 0x12 SWAP1 DUP3 ADD MSTORE PUSH18 0x125B9D985B1A59081C1D881A185A5C98DD5D PUSH1 0x72 SHL PUSH1 0x40 DUP3 ADD MSTORE PUSH1 0x60 ADD SWAP1 JUMP JUMPDEST PUSH1 0x20 DUP1 DUP3 MSTORE PUSH1 0x16 SWAP1 DUP3 ADD MSTORE PUSH22 0x473A20696E76616C69642072617465206F7261636C65 PUSH1 0x50 SHL PUSH1 0x40 DUP3 ADD MSTORE PUSH1 0x60 ADD SWAP1 JUMP JUMPDEST PUSH2 0xFFFF SWAP2 SWAP1 SWAP2 AND DUP2 MSTORE PUSH1 0x20 ADD SWAP1 JUMP JUMPDEST PUSH2 0xFFFF SWAP3 SWAP1 SWAP3 AND DUP3 MSTORE PUSH1 0x1 PUSH1 0x1 PUSH1 0xA0 SHL SUB AND PUSH1 0x20 DUP3 ADD MSTORE PUSH1 0x40 ADD SWAP1 JUMP JUMPDEST PUSH2 0xFFFF SWAP3 SWAP1 SWAP3 AND DUP3 MSTORE PUSH4 0xFFFFFFFF AND PUSH1 0x20 DUP3 ADD MSTORE PUSH1 0x40 ADD SWAP1 JUMP JUMPDEST PUSH2 0xFFFF SWAP3 SWAP1 SWAP3 AND DUP3 MSTORE PUSH1 0x1 PUSH1 0x1 PUSH1 0x48 SHL SUB AND PUSH1 0x20 DUP3 ADD MSTORE PUSH1 0x40 ADD SWAP1 JUMP JUMPDEST PUSH1 0x0 DUP1 DUP4 CALLDATALOAD PUSH1 0x1E NOT DUP5 CALLDATASIZE SUB ADD DUP2 SLT PUSH3 0x4243 JUMPI DUP3 DUP4 REVERT JUMPDEST DUP4 ADD DUP1 CALLDATALOAD SWAP2 POP PUSH8 0xFFFFFFFFFFFFFFFF DUP3 GT ISZERO PUSH3 0x425E JUMPI DUP3 DUP4 REVERT JUMPDEST PUSH1 0x20 SWAP1 DUP2 ADD SWAP3 POP DUP2 MUL CALLDATASIZE SUB DUP3 SGT ISZERO PUSH3 0x325F JUMPI PUSH1 0x0 DUP1 REVERT JUMPDEST PUSH1 0x40 MLOAD DUP2 DUP2 ADD PUSH8 0xFFFFFFFFFFFFFFFF DUP2 GT DUP3 DUP3 LT OR ISZERO PUSH3 0x4293 JUMPI INVALID JUMPDEST PUSH1 0x40 MSTORE SWAP2 SWAP1 POP JUMP JUMPDEST PUSH1 0x1 PUSH1 0x1 PUSH1 0xA0 SHL SUB DUP2 AND DUP2 EQ PUSH3 0x7BF JUMPI PUSH1 0x0 DUP1 REVERT JUMPDEST PUSH1 0xFF DUP2 AND DUP2 EQ PUSH3 0x7BF JUMPI PUSH1 0x0 DUP1 REVERT INVALID PUSH1 0xC0 PUSH1 0x40 MSTORE CALLVALUE DUP1 ISZERO PUSH3 0x11 JUMPI PUSH1 0x0 DUP1 REVERT JUMPDEST POP PUSH1 0x40 MLOAD PUSH3 0xF74 CODESIZE SUB DUP1 PUSH3 0xF74 DUP4 CODECOPY DUP2 ADD PUSH1 0x40 DUP2 SWAP1 MSTORE PUSH3 0x34 SWAP2 PUSH3 0x1FB JUMP JUMPDEST PUSH1 0x1 PUSH1 0x1 PUSH1 0x60 SHL SUB NOT PUSH1 0x60 DUP6 SWAP1 SHL AND PUSH1 0x80 MSTORE PUSH1 0x1 PUSH1 0x1 PUSH1 0xF0 SHL SUB NOT PUSH1 0xF0 DUP5 SWAP1 SHL AND PUSH1 0xA0 MSTORE PUSH1 0x40 MLOAD PUSH3 0x6B SWAP1 DUP4 SWAP1 PUSH1 0x20 ADD PUSH3 0x2C7 JUMP JUMPDEST PUSH1 0x40 MLOAD PUSH1 0x20 DUP2 DUP4 SUB SUB DUP2 MSTORE SWAP1 PUSH1 0x40 MSTORE PUSH1 0x0 SWAP1 DUP1 MLOAD SWAP1 PUSH1 0x20 ADD SWAP1 PUSH3 0x91 SWAP3 SWAP2 SWAP1 PUSH3 0xD6 JUMP JUMPDEST POP DUP1 PUSH1 0x40 MLOAD PUSH1 0x20 ADD PUSH3 0xA5 SWAP2 SWAP1 PUSH3 0x29C JUMP JUMPDEST PUSH1 0x40 MLOAD PUSH1 0x20 DUP2 DUP4 SUB SUB DUP2 MSTORE SWAP1 PUSH1 0x40 MSTORE PUSH1 0x1 SWAP1 DUP1 MLOAD SWAP1 PUSH1 0x20 ADD SWAP1 PUSH3 0xCB SWAP3 SWAP2 SWAP1 PUSH3 0xD6 JUMP JUMPDEST POP POP POP POP POP PUSH3 0x32B JUMP JUMPDEST DUP3 DUP1 SLOAD PUSH1 0x1 DUP2 PUSH1 0x1 AND ISZERO PUSH2 0x100 MUL SUB AND PUSH1 0x2 SWAP1 DIV SWAP1 PUSH1 0x0 MSTORE PUSH1 0x20 PUSH1 0x0 KECCAK256 SWAP1 PUSH1 0x1F ADD PUSH1 0x20 SWAP1 DIV DUP2 ADD SWAP3 DUP3 PUSH3 0x10E JUMPI PUSH1 0x0 DUP6 SSTORE PUSH3 0x159 JUMP JUMPDEST DUP3 PUSH1 0x1F LT PUSH3 0x129 JUMPI DUP1 MLOAD PUSH1 0xFF NOT AND DUP4 DUP1 ADD OR DUP6 SSTORE PUSH3 0x159 JUMP JUMPDEST DUP3 DUP1 ADD PUSH1 0x1 ADD DUP6 SSTORE DUP3 ISZERO PUSH3 0x159 JUMPI SWAP2 DUP3 ADD JUMPDEST DUP3 DUP2 GT ISZERO PUSH3 0x159 JUMPI DUP3 MLOAD DUP3 SSTORE SWAP2 PUSH1 0x20 ADD SWAP2 SWAP1 PUSH1 0x1 ADD SWAP1 PUSH3 0x13C JUMP JUMPDEST POP PUSH3 0x167 SWAP3 SWAP2 POP PUSH3 0x16B JUMP JUMPDEST POP SWAP1 JUMP JUMPDEST JUMPDEST DUP1 DUP3 GT ISZERO PUSH3 0x167 JUMPI PUSH1 0x0 DUP2 SSTORE PUSH1 0x1 ADD PUSH3 0x16C JUMP JUMPDEST PUSH1 0x0 DUP3 PUSH1 0x1F DUP4 ADD SLT PUSH3 0x193 JUMPI DUP1 DUP2 REVERT JUMPDEST DUP2 MLOAD PUSH1 0x1 PUSH1 0x1 PUSH1 0x40 SHL SUB DUP1 DUP3 GT ISZERO PUSH3 0x1A8 JUMPI INVALID JUMPDEST PUSH1 0x40 MLOAD PUSH1 0x1F DUP4 ADD PUSH1 0x1F NOT AND DUP2 ADD PUSH1 0x20 ADD DUP3 DUP2 GT DUP3 DUP3 LT OR ISZERO PUSH3 0x1C7 JUMPI INVALID JUMPDEST PUSH1 0x40 MSTORE DUP3 DUP2 MSTORE DUP5 DUP4 ADD PUSH1 0x20 ADD DUP7 LT ISZERO PUSH3 0x1DF JUMPI DUP4 DUP5 REVERT JUMPDEST PUSH3 0x1F2 DUP4 PUSH1 0x20 DUP4 ADD PUSH1 0x20 DUP9 ADD PUSH3 0x2F8 JUMP JUMPDEST SWAP6 SWAP5 POP POP POP POP POP JUMP JUMPDEST PUSH1 0x0 DUP1 PUSH1 0x0 DUP1 PUSH1 0x80 DUP6 DUP8 SUB SLT ISZERO PUSH3 0x211 JUMPI DUP4 DUP5 REVERT JUMPDEST DUP5 MLOAD PUSH1 0x1 PUSH1 0x1 PUSH1 0xA0 SHL SUB DUP2 AND DUP2 EQ PUSH3 0x228 JUMPI DUP5 DUP6 REVERT JUMPDEST PUSH1 0x20 DUP7 ADD MLOAD SWAP1 SWAP5 POP PUSH2 0xFFFF DUP2 AND DUP2 EQ PUSH3 0x240 JUMPI DUP4 DUP5 REVERT JUMPDEST PUSH1 0x40 DUP7 ADD MLOAD SWAP1 SWAP4 POP PUSH1 0x1 PUSH1 0x1 PUSH1 0x40 SHL SUB DUP1 DUP3 GT ISZERO PUSH3 0x25D JUMPI DUP4 DUP5 REVERT JUMPDEST PUSH3 0x26B DUP9 DUP4 DUP10 ADD PUSH3 0x182 JUMP JUMPDEST SWAP4 POP PUSH1 0x60 DUP8 ADD MLOAD SWAP2 POP DUP1 DUP3 GT ISZERO PUSH3 0x281 JUMPI DUP3 DUP4 REVERT JUMPDEST POP PUSH3 0x290 DUP8 DUP3 DUP9 ADD PUSH3 0x182 JUMP JUMPDEST SWAP2 POP POP SWAP3 SWAP6 SWAP2 SWAP5 POP SWAP3 POP JUMP JUMPDEST PUSH1 0x0 PUSH1 0x37 PUSH1 0xF9 SHL DUP3 MSTORE DUP3 MLOAD PUSH3 0x2BA DUP2 PUSH1 0x1 DUP6 ADD PUSH1 0x20 DUP8 ADD PUSH3 0x2F8 JUMP JUMPDEST SWAP2 SWAP1 SWAP2 ADD PUSH1 0x1 ADD SWAP3 SWAP2 POP POP JUMP JUMPDEST PUSH1 0x0 PUSH7 0x372A37B5B2B71 PUSH1 0xCD SHL DUP3 MSTORE DUP3 MLOAD PUSH3 0x2EB DUP2 PUSH1 0x7 DUP6 ADD PUSH1 0x20 DUP8 ADD PUSH3 0x2F8 JUMP JUMPDEST SWAP2 SWAP1 SWAP2 ADD PUSH1 0x7 ADD SWAP3 SWAP2 POP POP JUMP JUMPDEST PUSH1 0x0 JUMPDEST DUP4 DUP2 LT ISZERO PUSH3 0x315 JUMPI DUP2 DUP2 ADD MLOAD DUP4 DUP3 ADD MSTORE PUSH1 0x20 ADD PUSH3 0x2FB JUMP JUMPDEST DUP4 DUP2 GT ISZERO PUSH3 0x325 JUMPI PUSH1 0x0 DUP5 DUP5 ADD MSTORE JUMPDEST POP POP POP POP JUMP JUMPDEST PUSH1 0x80 MLOAD PUSH1 0x60 SHR PUSH1 0xA0 MLOAD PUSH1 0xF0 SHR PUSH2 0xBD4 PUSH3 0x3A0 PUSH1 0x0 CODECOPY DUP1 PUSH2 0x28C MSTORE DUP1 PUSH2 0x420 MSTORE DUP1 PUSH2 0x476 MSTORE DUP1 PUSH2 0x5B3 MSTORE DUP1 PUSH2 0x67C MSTORE DUP1 PUSH2 0x6EB MSTORE DUP1 PUSH2 0x7A1 MSTORE DUP1 PUSH2 0x8C6 MSTORE POP DUP1 PUSH2 0x25D MSTORE DUP1 PUSH2 0x394 MSTORE DUP1 PUSH2 0x447 MSTORE DUP1 PUSH2 0x586 MSTORE DUP1 PUSH2 0x64F MSTORE DUP1 PUSH2 0x6BE MSTORE DUP1 PUSH2 0x772 MSTORE DUP1 PUSH2 0x899 MSTORE DUP1 PUSH2 0x944 MSTORE POP PUSH2 0xBD4 PUSH1 0x0 RETURN INVALID PUSH1 0x80 PUSH1 0x40 MSTORE CALLVALUE DUP1 ISZERO PUSH2 0x10 JUMPI PUSH1 0x0 DUP1 REVERT JUMPDEST POP PUSH1 0x4 CALLDATASIZE LT PUSH2 0xCF JUMPI PUSH1 0x0 CALLDATALOAD PUSH1 0xE0 SHR DUP1 PUSH4 0x70A08231 GT PUSH2 0x8C JUMPI DUP1 PUSH4 0x95D89B41 GT PUSH2 0x66 JUMPI DUP1 PUSH4 0x95D89B41 EQ PUSH2 0x187 JUMPI DUP1 PUSH4 0xA9059CBB EQ PUSH2 0x18F JUMPI DUP1 PUSH4 0xDD62ED3E EQ PUSH2 0x1A2 JUMPI DUP1 PUSH4 0xEC556889 EQ PUSH2 0x1B5 JUMPI PUSH2 0xCF JUMP JUMPDEST DUP1 PUSH4 0x70A08231 EQ PUSH2 0x164 JUMPI DUP1 PUSH4 0x90AB60A7 EQ PUSH2 0x177 JUMPI DUP1 PUSH4 0x91CF16A8 EQ PUSH2 0x17F JUMPI PUSH2 0xCF JUMP JUMPDEST DUP1 PUSH4 0x6FDDE03 EQ PUSH2 0xD4 JUMPI DUP1 PUSH4 0x95EA7B3 EQ PUSH2 0xF2 JUMPI DUP1 PUSH4 0x18160DDD EQ PUSH2 0x112 JUMPI DUP1 PUSH4 0x1FEEECE2 EQ PUSH2 0x127 JUMPI DUP1 PUSH4 0x23B872DD EQ PUSH2 0x13C JUMPI DUP1 PUSH4 0x313CE567 EQ PUSH2 0x14F JUMPI JUMPDEST PUSH1 0x0 DUP1 REVERT JUMPDEST PUSH2 0xDC PUSH2 0x1CA JUMP JUMPDEST PUSH1 0x40 MLOAD PUSH2 0xE9 SWAP2 SWAP1 PUSH2 0xA8D JUMP JUMPDEST PUSH1 0x40 MLOAD DUP1 SWAP2 SUB SWAP1 RETURN JUMPDEST PUSH2 0x105 PUSH2 0x100 CALLDATASIZE PUSH1 0x4 PUSH2 0xA04 JUMP JUMPDEST PUSH2 0x258 JUMP JUMPDEST PUSH1 0x40 MLOAD PUSH2 0xE9 SWAP2 SWAP1 PUSH2 0xA79 JUMP JUMPDEST PUSH2 0x11A PUSH2 0x37A JUMP JUMPDEST PUSH1 0x40 MLOAD PUSH2 0xE9 SWAP2 SWAP1 PUSH2 0xA84 JUMP JUMPDEST PUSH2 0x12F PUSH2 0x41E JUMP JUMPDEST PUSH1 0x40 MLOAD PUSH2 0xE9 SWAP2 SWAP1 PUSH2 0xAE0 JUMP JUMPDEST PUSH2 0x105 PUSH2 0x14A CALLDATASIZE PUSH1 0x4 PUSH2 0x9C9 JUMP JUMPDEST PUSH2 0x442 JUMP JUMPDEST PUSH2 0x157 PUSH2 0x567 JUMP JUMPDEST PUSH1 0x40 MLOAD PUSH2 0xE9 SWAP2 SWAP1 PUSH2 0xB90 JUMP JUMPDEST PUSH2 0x11A PUSH2 0x172 CALLDATASIZE PUSH1 0x4 PUSH2 0x97D JUMP JUMPDEST PUSH2 0x56C JUMP JUMPDEST PUSH2 0x11A PUSH2 0x635 JUMP JUMPDEST PUSH2 0x11A PUSH2 0x6A4 JUMP JUMPDEST PUSH2 0xDC PUSH2 0x713 JUMP JUMPDEST PUSH2 0x105 PUSH2 0x19D CALLDATASIZE PUSH1 0x4 PUSH2 0xA04 JUMP JUMPDEST PUSH2 0x76D JUMP JUMPDEST PUSH2 0x11A PUSH2 0x1B0 CALLDATASIZE PUSH1 0x4 PUSH2 0x997 JUMP JUMPDEST PUSH2 0x87F JUMP JUMPDEST PUSH2 0x1BD PUSH2 0x942 JUMP JUMPDEST PUSH1 0x40 MLOAD PUSH2 0xE9 SWAP2 SWAP1 PUSH2 0xA65 JUMP JUMPDEST PUSH1 0x0 DUP1 SLOAD PUSH1 0x40 DUP1 MLOAD PUSH1 0x20 PUSH1 0x2 PUSH1 0x1 DUP6 AND ISZERO PUSH2 0x100 MUL PUSH1 0x0 NOT ADD SWAP1 SWAP5 AND SWAP4 SWAP1 SWAP4 DIV PUSH1 0x1F DUP2 ADD DUP5 SWAP1 DIV DUP5 MUL DUP3 ADD DUP5 ADD SWAP1 SWAP3 MSTORE DUP2 DUP2 MSTORE SWAP3 SWAP2 DUP4 ADD DUP3 DUP3 DUP1 ISZERO PUSH2 0x250 JUMPI DUP1 PUSH1 0x1F LT PUSH2 0x225 JUMPI PUSH2 0x100 DUP1 DUP4 SLOAD DIV MUL DUP4 MSTORE SWAP2 PUSH1 0x20 ADD SWAP2 PUSH2 0x250 JUMP JUMPDEST DUP3 ADD SWAP2 SWAP1 PUSH1 0x0 MSTORE PUSH1 0x20 PUSH1 0x0 KECCAK256 SWAP1 JUMPDEST DUP2 SLOAD DUP2 MSTORE SWAP1 PUSH1 0x1 ADD SWAP1 PUSH1 0x20 ADD DUP1 DUP4 GT PUSH2 0x233 JUMPI DUP3 SWAP1 SUB PUSH1 0x1F AND DUP3 ADD SWAP2 JUMPDEST POP POP POP POP POP DUP2 JUMP JUMPDEST PUSH1 0x0 DUP1 PUSH32 0x0 PUSH1 0x1 PUSH1 0x1 PUSH1 0xA0 SHL SUB AND PUSH4 0x309C00A6 PUSH32 0x0 CALLER DUP8 DUP8 PUSH1 0x40 MLOAD DUP6 PUSH4 0xFFFFFFFF AND PUSH1 0xE0 SHL DUP2 MSTORE PUSH1 0x4 ADD PUSH2 0x2CD SWAP5 SWAP4 SWAP3 SWAP2 SWAP1 PUSH2 0xB40 JUMP JUMPDEST PUSH1 0x20 PUSH1 0x40 MLOAD DUP1 DUP4 SUB DUP2 PUSH1 0x0 DUP8 DUP1 EXTCODESIZE ISZERO DUP1 ISZERO PUSH2 0x2E7 JUMPI PUSH1 0x0 DUP1 REVERT JUMPDEST POP GAS CALL ISZERO DUP1 ISZERO PUSH2 0x2FB JUMPI RETURNDATASIZE PUSH1 0x0 DUP1 RETURNDATACOPY RETURNDATASIZE PUSH1 0x0 REVERT JUMPDEST POP POP POP POP PUSH1 0x40 MLOAD RETURNDATASIZE PUSH1 0x1F NOT PUSH1 0x1F DUP3 ADD AND DUP3 ADD DUP1 PUSH1 0x40 MSTORE POP DUP2 ADD SWAP1 PUSH2 0x31F SWAP2 SWAP1 PUSH2 0xA2D JUMP JUMPDEST SWAP1 POP DUP1 ISZERO PUSH2 0x373 JUMPI DUP4 PUSH1 0x1 PUSH1 0x1 PUSH1 0xA0 SHL SUB AND CALLER PUSH1 0x1 PUSH1 0x1 PUSH1 0xA0 SHL SUB AND PUSH32 0x8C5BE1E5EBEC7D5BD14F71427D1E84F3DD0314C0F7B2291E5B200AC8C7C3B925 DUP6 PUSH1 0x40 MLOAD PUSH2 0x36A SWAP2 SWAP1 PUSH2 0xA84 JUMP JUMPDEST PUSH1 0x40 MLOAD DUP1 SWAP2 SUB SWAP1 LOG3 JUMPDEST SWAP4 SWAP3 POP POP POP JUMP JUMPDEST PUSH1 0x40 MLOAD PUSH4 0x6A96E86F PUSH1 0xE0 SHL DUP2 MSTORE PUSH1 0x0 SWAP1 PUSH1 0x1 PUSH1 0x1 PUSH1 0xA0 SHL SUB PUSH32 0x0 AND SWAP1 PUSH4 0x6A96E86F SWAP1 PUSH2 0x3C9 SWAP1 ADDRESS SWAP1 PUSH1 0x4 ADD PUSH2 0xA65 JUMP JUMPDEST PUSH1 0x20 PUSH1 0x40 MLOAD DUP1 DUP4 SUB DUP2 DUP7 DUP1 EXTCODESIZE ISZERO DUP1 ISZERO PUSH2 0x3E1 JUMPI PUSH1 0x0 DUP1 REVERT JUMPDEST POP GAS STATICCALL ISZERO DUP1 ISZERO PUSH2 0x3F5 JUMPI RETURNDATASIZE PUSH1 0x0 DUP1 RETURNDATACOPY RETURNDATASIZE PUSH1 0x0 REVERT JUMPDEST POP POP POP POP PUSH1 0x40 MLOAD RETURNDATASIZE PUSH1 0x1F NOT PUSH1 0x1F DUP3 ADD AND DUP3 ADD DUP1 PUSH1 0x40 MSTORE POP DUP2 ADD SWAP1 PUSH2 0x419 SWAP2 SWAP1 PUSH2 0xA4D JUMP JUMPDEST SWAP1 POP SWAP1 JUMP JUMPDEST PUSH32 0x0 DUP2 JUMP JUMPDEST PUSH1 0x0 DUP1 PUSH32 0x0 PUSH1 0x1 PUSH1 0x1 PUSH1 0xA0 SHL SUB AND PUSH4 0x884A7092 PUSH32 0x0 CALLER DUP9 DUP9 DUP9 PUSH1 0x40 MLOAD DUP7 PUSH4 0xFFFFFFFF AND PUSH1 0xE0 SHL DUP2 MSTORE PUSH1 0x4 ADD PUSH2 0x4B9 SWAP6 SWAP5 SWAP4 SWAP3 SWAP2 SWAP1 PUSH2 0xB0C JUMP JUMPDEST PUSH1 0x20 PUSH1 0x40 MLOAD DUP1 DUP4 SUB DUP2 PUSH1 0x0 DUP8 DUP1 EXTCODESIZE ISZERO DUP1 ISZERO PUSH2 0x4D3 JUMPI PUSH1 0x0 DUP1 REVERT JUMPDEST POP GAS CALL ISZERO DUP1 ISZERO PUSH2 0x4E7 JUMPI RETURNDATASIZE PUSH1 0x0 DUP1 RETURNDATACOPY RETURNDATASIZE PUSH1 0x0 REVERT JUMPDEST POP POP POP POP PUSH1 0x40 MLOAD RETURNDATASIZE PUSH1 0x1F NOT PUSH1 0x1F DUP3 ADD AND DUP3 ADD DUP1 PUSH1 0x40 MSTORE POP DUP2 ADD SWAP1 PUSH2 0x50B SWAP2 SWAP1 PUSH2 0xA2D JUMP JUMPDEST SWAP1 POP DUP1 ISZERO PUSH2 0x55F JUMPI DUP4 PUSH1 0x1 PUSH1 0x1 PUSH1 0xA0 SHL SUB AND DUP6 PUSH1 0x1 PUSH1 0x1 PUSH1 0xA0 SHL SUB AND PUSH32 0xDDF252AD1BE2C89B69C2B068FC378DAA952BA7F163C4A11628F55A4DF523B3EF DUP6 PUSH1 0x40 MLOAD PUSH2 0x556 SWAP2 SWAP1 PUSH2 0xA84 JUMP JUMPDEST PUSH1 0x40 MLOAD DUP1 SWAP2 SUB SWAP1 LOG3 JUMPDEST SWAP5 SWAP4 POP POP POP POP JUMP JUMPDEST PUSH1 0x8 DUP2 JUMP JUMPDEST PUSH1 0x40 MLOAD PUSH4 0xA78DBFFF PUSH1 0xE0 SHL DUP2 MSTORE PUSH1 0x0 SWAP1 PUSH1 0x1 PUSH1 0x1 PUSH1 0xA0 SHL SUB PUSH32 0x0 AND SWAP1 PUSH4 0xA78DBFFF SWAP1 PUSH2 0x5DD SWAP1 PUSH32 0x0 SWAP1 DUP7 SWAP1 PUSH1 0x4 ADD PUSH2 0xAEF JUMP JUMPDEST PUSH1 0x20 PUSH1 0x40 MLOAD DUP1 DUP4 SUB DUP2 DUP7 DUP1 EXTCODESIZE ISZERO DUP1 ISZERO PUSH2 0x5F5 JUMPI PUSH1 0x0 DUP1 REVERT JUMPDEST POP GAS STATICCALL ISZERO DUP1 ISZERO PUSH2 0x609 JUMPI RETURNDATASIZE PUSH1 0x0 DUP1 RETURNDATACOPY RETURNDATASIZE PUSH1 0x0 REVERT JUMPDEST POP POP POP POP PUSH1 0x40 MLOAD RETURNDATASIZE PUSH1 0x1F NOT PUSH1 0x1F DUP3 ADD AND DUP3 ADD DUP1 PUSH1 0x40 MSTORE POP DUP2 ADD SWAP1 PUSH2 0x62D SWAP2 SWAP1 PUSH2 0xA4D JUMP JUMPDEST SWAP1 POP JUMPDEST SWAP2 SWAP1 POP JUMP JUMPDEST PUSH1 0x40 MLOAD PUSH4 0x1A05BCE1 PUSH1 0xE0 SHL DUP2 MSTORE PUSH1 0x0 SWAP1 PUSH1 0x1 PUSH1 0x1 PUSH1 0xA0 SHL SUB PUSH32 0x0 AND SWAP1 PUSH4 0x1A05BCE1 SWAP1 PUSH2 0x3C9 SWAP1 PUSH32 0x0 SWAP1 PUSH1 0x4 ADD PUSH2 0xAE0 JUMP JUMPDEST PUSH1 0x40 MLOAD PUSH4 0x3B2987B3 PUSH1 0xE0 SHL DUP2 MSTORE PUSH1 0x0 SWAP1 PUSH1 0x1 PUSH1 0x1 PUSH1 0xA0 SHL SUB PUSH32 0x0 AND SWAP1 PUSH4 0x3B2987B3 SWAP1 PUSH2 0x3C9 SWAP1 PUSH32 0x0 SWAP1 PUSH1 0x4 ADD PUSH2 0xAE0 JUMP JUMPDEST PUSH1 0x1 DUP1 SLOAD PUSH1 0x40 DUP1 MLOAD PUSH1 0x20 PUSH1 0x2 DUP5 DUP7 AND ISZERO PUSH2 0x100 MUL PUSH1 0x0 NOT ADD SWAP1 SWAP5 AND SWAP4 SWAP1 SWAP4 DIV PUSH1 0x1F DUP2 ADD DUP5 SWAP1 DIV DUP5 MUL DUP3 ADD DUP5 ADD SWAP1 SWAP3 MSTORE DUP2 DUP2 MSTORE SWAP3 SWAP2 DUP4 ADD DUP3 DUP3 DUP1 ISZERO PUSH2 0x250 JUMPI DUP1 PUSH1 0x1F LT PUSH2 0x225 JUMPI PUSH2 0x100 DUP1 DUP4 SLOAD DIV MUL DUP4 MSTORE SWAP2 PUSH1 0x20 ADD SWAP2 PUSH2 0x250 JUMP JUMPDEST PUSH1 0x0 DUP1 PUSH32 0x0 PUSH1 0x1 PUSH1 0x1 PUSH1 0xA0 SHL SUB AND PUSH4 0x18AE40D7 PUSH32 0x0 CALLER DUP8 DUP8 PUSH1 0x40 MLOAD DUP6 PUSH4 0xFFFFFFFF AND PUSH1 0xE0 SHL DUP2 MSTORE PUSH1 0x4 ADD PUSH2 0x7E2 SWAP5 SWAP4 SWAP3 SWAP2 SWAP1 PUSH2 0xB40 JUMP JUMPDEST PUSH1 0x20 PUSH1 0x40 MLOAD DUP1 DUP4 SUB DUP2 PUSH1 0x0 DUP8 DUP1 EXTCODESIZE ISZERO DUP1 ISZERO PUSH2 0x7FC JUMPI PUSH1 0x0 DUP1 REVERT JUMPDEST POP GAS CALL ISZERO DUP1 ISZERO PUSH2 0x810 JUMPI RETURNDATASIZE PUSH1 0x0 DUP1 RETURNDATACOPY RETURNDATASIZE PUSH1 0x0 REVERT JUMPDEST POP POP POP POP PUSH1 0x40 MLOAD RETURNDATASIZE PUSH1 0x1F NOT PUSH1 0x1F DUP3 ADD AND DUP3 ADD DUP1 PUSH1 0x40 MSTORE POP DUP2 ADD SWAP1 PUSH2 0x834 SWAP2 SWAP1 PUSH2 0xA2D JUMP JUMPDEST SWAP1 POP DUP1 ISZERO PUSH2 0x373 JUMPI DUP4 PUSH1 0x1 PUSH1 0x1 PUSH1 0xA0 SHL SUB AND CALLER PUSH1 0x1 PUSH1 0x1 PUSH1 0xA0 SHL SUB AND PUSH32 0xDDF252AD1BE2C89B69C2B068FC378DAA952BA7F163C4A11628F55A4DF523B3EF DUP6 PUSH1 0x40 MLOAD PUSH2 0x36A SWAP2 SWAP1 PUSH2 0xA84 JUMP JUMPDEST PUSH1 0x40 MLOAD PUSH4 0x7DB31AB9 PUSH1 0xE0 SHL DUP2 MSTORE PUSH1 0x0 SWAP1 PUSH1 0x1 PUSH1 0x1 PUSH1 0xA0 SHL SUB PUSH32 0x0 AND SWAP1 PUSH4 0x7DB31AB9 SWAP1 PUSH2 0x8F2 SWAP1 PUSH32 0x0 SWAP1 DUP8 SWAP1 DUP8 SWAP1 PUSH1 0x4 ADD PUSH2 0xB6B JUMP JUMPDEST PUSH1 0x20 PUSH1 0x40 MLOAD DUP1 DUP4 SUB DUP2 DUP7 DUP1 EXTCODESIZE ISZERO DUP1 ISZERO PUSH2 0x90A JUMPI PUSH1 0x0 DUP1 REVERT JUMPDEST POP GAS STATICCALL ISZERO DUP1 ISZERO PUSH2 0x91E JUMPI RETURNDATASIZE PUSH1 0x0 DUP1 RETURNDATACOPY RETURNDATASIZE PUSH1 0x0 REVERT JUMPDEST POP POP POP POP PUSH1 0x40 MLOAD RETURNDATASIZE PUSH1 0x1F NOT PUSH1 0x1F DUP3 ADD AND DUP3 ADD DUP1 PUSH1 0x40 MSTORE POP DUP2 ADD SWAP1 PUSH2 0x373 SWAP2 SWAP1 PUSH2 0xA4D JUMP JUMPDEST PUSH32 0x0 DUP2 JUMP JUMPDEST DUP1 CALLDATALOAD PUSH1 0x1 PUSH1 0x1 PUSH1 0xA0 SHL SUB DUP2 AND DUP2 EQ PUSH2 0x630 JUMPI PUSH1 0x0 DUP1 REVERT JUMPDEST PUSH1 0x0 PUSH1 0x20 DUP3 DUP5 SUB SLT ISZERO PUSH2 0x98E JUMPI DUP1 DUP2 REVERT JUMPDEST PUSH2 0x373 DUP3 PUSH2 0x966 JUMP JUMPDEST PUSH1 0x0 DUP1 PUSH1 0x40 DUP4 DUP6 SUB SLT ISZERO PUSH2 0x9A9 JUMPI DUP1 DUP2 REVERT JUMPDEST PUSH2 0x9B2 DUP4 PUSH2 0x966 JUMP JUMPDEST SWAP2 POP PUSH2 0x9C0 PUSH1 0x20 DUP5 ADD PUSH2 0x966 JUMP JUMPDEST SWAP1 POP SWAP3 POP SWAP3 SWAP1 POP JUMP JUMPDEST PUSH1 0x0 DUP1 PUSH1 0x0 PUSH1 0x60 DUP5 DUP7 SUB SLT ISZERO PUSH2 0x9DD JUMPI DUP1 DUP2 REVERT JUMPDEST PUSH2 0x9E6 DUP5 PUSH2 0x966 JUMP JUMPDEST SWAP3 POP PUSH2 0x9F4 PUSH1 0x20 DUP6 ADD PUSH2 0x966 JUMP JUMPDEST SWAP2 POP PUSH1 0x40 DUP5 ADD CALLDATALOAD SWAP1 POP SWAP3 POP SWAP3 POP SWAP3 JUMP JUMPDEST PUSH1 0x0 DUP1 PUSH1 0x40 DUP4 DUP6 SUB SLT ISZERO PUSH2 0xA16 JUMPI DUP2 DUP3 REVERT JUMPDEST PUSH2 0xA1F DUP4 PUSH2 0x966 JUMP JUMPDEST SWAP5 PUSH1 0x20 SWAP4 SWAP1 SWAP4 ADD CALLDATALOAD SWAP4 POP POP POP JUMP JUMPDEST PUSH1 0x0 PUSH1 0x20 DUP3 DUP5 SUB SLT ISZERO PUSH2 0xA3E JUMPI DUP1 DUP2 REVERT JUMPDEST DUP2 MLOAD DUP1 ISZERO ISZERO DUP2 EQ PUSH2 0x373 JUMPI DUP2 DUP3 REVERT JUMPDEST PUSH1 0x0 PUSH1 0x20 DUP3 DUP5 SUB SLT ISZERO PUSH2 0xA5E JUMPI DUP1 DUP2 REVERT JUMPDEST POP MLOAD SWAP2 SWAP1 POP JUMP JUMPDEST PUSH1 0x1 PUSH1 0x1 PUSH1 0xA0 SHL SUB SWAP2 SWAP1 SWAP2 AND DUP2 MSTORE PUSH1 0x20 ADD SWAP1 JUMP JUMPDEST SWAP1 ISZERO ISZERO DUP2 MSTORE PUSH1 0x20 ADD SWAP1 JUMP JUMPDEST SWAP1 DUP2 MSTORE PUSH1 0x20 ADD SWAP1 JUMP JUMPDEST PUSH1 0x0 PUSH1 0x20 DUP1 DUP4 MSTORE DUP4 MLOAD DUP1 DUP3 DUP6 ADD MSTORE DUP3 JUMPDEST DUP2 DUP2 LT ISZERO PUSH2 0xAB9 JUMPI DUP6 DUP2 ADD DUP4 ADD MLOAD DUP6 DUP3 ADD PUSH1 0x40 ADD MSTORE DUP3 ADD PUSH2 0xA9D JUMP JUMPDEST DUP2 DUP2 GT ISZERO PUSH2 0xACA JUMPI DUP4 PUSH1 0x40 DUP4 DUP8 ADD ADD MSTORE JUMPDEST POP PUSH1 0x1F ADD PUSH1 0x1F NOT AND SWAP3 SWAP1 SWAP3 ADD PUSH1 0x40 ADD SWAP4 SWAP3 POP POP POP JUMP JUMPDEST PUSH2 0xFFFF SWAP2 SWAP1 SWAP2 AND DUP2 MSTORE PUSH1 0x20 ADD SWAP1 JUMP JUMPDEST PUSH2 0xFFFF SWAP3 SWAP1 SWAP3 AND DUP3 MSTORE PUSH1 0x1 PUSH1 0x1 PUSH1 0xA0 SHL SUB AND PUSH1 0x20 DUP3 ADD MSTORE PUSH1 0x40 ADD SWAP1 JUMP JUMPDEST PUSH2 0xFFFF SWAP6 SWAP1 SWAP6 AND DUP6 MSTORE PUSH1 0x1 PUSH1 0x1 PUSH1 0xA0 SHL SUB SWAP4 DUP5 AND PUSH1 0x20 DUP7 ADD MSTORE SWAP2 DUP4 AND PUSH1 0x40 DUP6 ADD MSTORE SWAP1 SWAP2 AND PUSH1 0x60 DUP4 ADD MSTORE PUSH1 0x80 DUP3 ADD MSTORE PUSH1 0xA0 ADD SWAP1 JUMP JUMPDEST PUSH2 0xFFFF SWAP5 SWAP1 SWAP5 AND DUP5 MSTORE PUSH1 0x1 PUSH1 0x1 PUSH1 0xA0 SHL SUB SWAP3 DUP4 AND PUSH1 0x20 DUP6 ADD MSTORE SWAP2 AND PUSH1 0x40 DUP4 ADD MSTORE PUSH1 0x60 DUP3 ADD MSTORE PUSH1 0x80 ADD SWAP1 JUMP JUMPDEST PUSH2 0xFFFF SWAP4 SWAP1 SWAP4 AND DUP4 MSTORE PUSH1 0x1 PUSH1 0x1 PUSH1 0xA0 SHL SUB SWAP2 DUP3 AND PUSH1 0x20 DUP5 ADD MSTORE AND PUSH1 0x40 DUP3 ADD MSTORE PUSH1 0x60 ADD SWAP1 JUMP JUMPDEST PUSH1 0xFF SWAP2 SWAP1 SWAP2 AND DUP2 MSTORE PUSH1 0x20 ADD SWAP1 JUMP INVALID LOG2 PUSH5 0x6970667358 0x22 SLT KECCAK256 GASLIMIT 0x28 DUP7 0xD9 COINBASE 0x1F 0xD0 0xBC 0xDE CHAINID ISZERO 0xCE 0xB4 0xB6 0xD0 0xDE 0xE5 DUP14 0xD9 0xA7 0xA7 0xE2 0x4A PUSH11 0x5055A7E50CB44E8564736F PUSH13 0x63430007060033455243313936 CALLDATACOPY SSTORE PUSH17 0x67726164653A2075706772616465206272 PUSH6 0x616B73206675 PUSH19 0x74686572207570677261646573536166654D61 PUSH21 0x683A206D756C7469706C69636174696F6E206F7665 PUSH19 0x666C6F77455243313936373A206E657720696D PUSH17 0x6C656D656E746174696F6E206973206E6F PUSH21 0x206120636F6E7472616374416464726573733A206C PUSH16 0x772D6C6576656C2064656C6567617465 KECCAK256 PUSH4 0x616C6C20 PUSH7 0x61696C65644164 PUSH5 0x726573733A KECCAK256 PUSH5 0x656C656761 PUSH21 0x652063616C6C20746F206E6F6E2D636F6E74726163 PUSH21 0xA2646970667358221220ECC3691080984B589C97C6 CREATE2 DUP12 0x2E 0x4B 0xC9 0xC9 PUSH4 0x6F383C1D 0x4B MSTORE DUP16 0xE1 0xAE 0xC7 0xA9 SLOAD 0xBD 0xAF PUSH5 0x736F6C6343 STOP SMOD MOD STOP CALLER ","sha1":"58139041a0d7e6cd3764eb3a41e0a1f9e0dbb701","source":"// SPDX-License-Identifier: GPL-3.0-only\npragma solidity ^0.7.0;\npragma abicoder v2;\n\nimport \"../../internal/valuation/ExchangeRate.sol\";\nimport \"../../internal/markets/CashGroup.sol\";\nimport \"../../internal/nToken/nTokenHandler.sol\";\nimport \"../../internal/nToken/nTokenSupply.sol\";\nimport \"../../internal/balances/TokenHandler.sol\";\nimport \"../../global/StorageLayoutV2.sol\";\nimport \"../../global/LibStorage.sol\";\nimport \"../../global/Types.sol\";\nimport \"../../proxy/utils/UUPSUpgradeable.sol\";\nimport \"../adapters/nTokenERC20Proxy.sol\";\nimport \"../../../interfaces/notional/IRewarder.sol\";\nimport \"../../../interfaces/notional/AssetRateAdapter.sol\";\nimport \"../../../interfaces/chainlink/AggregatorV2V3Interface.sol\";\nimport \"../../../interfaces/notional/NotionalGovernance.sol\";\nimport \"../../../interfaces/notional/nTokenERC20.sol\";\nimport \"@openzeppelin/contracts/utils/Address.sol\";\n\n/// @notice Governance methods can only be called by the governance contract\ncontract GovernanceAction is StorageLayoutV2, NotionalGovernance, UUPSUpgradeable {\n    /// @dev Throws if called by any account other than the owner.\n    modifier onlyOwner() {\n        require(owner == msg.sender, \"Ownable: caller is not the owner\");\n        _;\n    }\n\n    function _checkValidCurrency(uint16 currencyId) internal view {\n        require(0 < currencyId && currencyId <= maxCurrencyId, \"Invalid currency id\");\n    }\n\n    /// @notice Transfers ownership to `newOwner`. Either directly or claimable by the new pending owner.\n    /// Can only be invoked by the current `owner`.\n    /// @param newOwner Address of the new owner.\n    /// @param direct True if `newOwner` should be set immediately. False if `newOwner` needs to use `claimOwnership`.\n    function transferOwnership(\n        address newOwner,\n        bool direct\n    ) external override onlyOwner {\n        if (direct) {\n            // Checks\n            require(newOwner != address(0), \"Ownable: zero address\");\n\n            // Effects\n            emit OwnershipTransferred(owner, newOwner);\n            owner = newOwner;\n            pendingOwner = address(0);\n        } else {\n            // Effects\n            pendingOwner = newOwner;\n        }\n    }\n\n    /// @notice Needs to be called by `pendingOwner` to claim ownership.\n    function claimOwnership() external override {\n        address _pendingOwner = pendingOwner;\n\n        // Checks\n        require(msg.sender == _pendingOwner, \"Ownable: caller != pending owner\");\n\n        // Effects\n        emit OwnershipTransferred(owner, _pendingOwner);\n        owner = _pendingOwner;\n        pendingOwner = address(0);\n    }\n\n    /// @dev Only the owner may upgrade the contract, the pauseGuardian may downgrade the contract\n    /// to a predetermined router contract that provides read only access to the system.\n    function _authorizeUpgrade(address newImplementation) internal override {\n        require(\n            owner == msg.sender ||\n            (msg.sender == pauseGuardian && newImplementation == pauseRouter),\n            \"Unauthorized upgrade\"\n        );\n\n        // This is set temporarily during a downgrade to the pauseRouter so that the upgrade\n        // will pass _authorizeUpgrade on the pauseRouter during the UUPSUpgradeable rollback check\n        if (newImplementation == pauseRouter) rollbackRouterImplementation = _getImplementation();\n    }\n\n    /// @notice Sets a new pause router and guardian address.\n    function setPauseRouterAndGuardian(\n        address pauseRouter_,\n        address pauseGuardian_\n    ) external override onlyOwner {\n        pauseRouter = pauseRouter_;\n        pauseGuardian = pauseGuardian_;\n\n        emit PauseRouterAndGuardianUpdated(pauseRouter_, pauseGuardian_);\n    }\n\n    /// @notice Lists a new currency along with its exchange rate to ETH\n    /// @dev emit:ListCurrency emit:UpdateETHRate\n    /// @param assetToken the token parameters for the asset token\n    /// @param underlyingToken the underlying token (if asset token is an interest bearing wrapper)\n    /// @param rateOracle ETH to underlying rate oracle\n    /// @param mustInvert if the rate from the oracle needs to be inverted\n    /// @param buffer multiplier (>= 100) for negative balances when calculating free collateral\n    /// @param haircut multiplier (<= 100) for positive balances when calculating free collateral\n    /// @param liquidationDiscount multiplier (>= 100) for exchange rate when liquidating\n    /// @return the new currency id\n    function listCurrency(\n        TokenStorage calldata assetToken,\n        TokenStorage calldata underlyingToken,\n        AggregatorV2V3Interface rateOracle,\n        bool mustInvert,\n        uint8 buffer,\n        uint8 haircut,\n        uint8 liquidationDiscount\n    ) external override onlyOwner returns (uint16) {\n        uint16 currencyId = maxCurrencyId + 1;\n        // Set the new max currency id\n        maxCurrencyId = currencyId;\n        require(currencyId <= Constants.MAX_CURRENCIES, \"G: max currency overflow\");\n        // NOTE: this allows multiple asset tokens that have the same underlying. That is ok from a protocol\n        // perspective. For example, we may choose list cDAI, yDAI and aDAI as asset currencies and each can\n        // trade as different forms of fDAI.\n        require(\n            tokenAddressToCurrencyId[assetToken.tokenAddress] == 0,\n            \"G: duplicate token listing\"\n        );\n        tokenAddressToCurrencyId[assetToken.tokenAddress] = currencyId;\n\n        // Set the underlying first because the asset token may set an approval using the underlying\n        if (\n            underlyingToken.tokenAddress != address(0) ||\n            // Ether has a token address of zero\n            underlyingToken.tokenType == TokenType.Ether\n        ) {\n            // NOTE: set token will enforce the restriction that Ether can only be set once as the zero\n            // address. This sets the underlying token\n            TokenHandler.setToken(currencyId, true, underlyingToken);\n        }\n\n        // This sets the asset token\n        TokenHandler.setToken(currencyId, false, assetToken);\n\n        _updateETHRate(currencyId, rateOracle, mustInvert, buffer, haircut, liquidationDiscount);\n\n        emit ListCurrency(currencyId);\n\n        return currencyId;\n    }\n\n    /// @notice Sets a maximum balance on a given currency. Max collateral balance cannot be set on a\n    /// currency that is actively used in trading, this may cause issues with liquidation. Also, max\n    /// collateral balance is only set on asset tokens (not underlying tokens) because underlying tokens\n    /// are not held as contract balances.\n    /// @dev emit:UpdateMaxCollateralBalance\n    /// @param currencyId id of the currency to set the max collateral balance on\n    /// @param maxCollateralBalanceInternalPrecision amount of collateral balance that can be held\n    /// in this currency denominated in internal token precision\n    function updateMaxCollateralBalance(\n        uint16 currencyId,\n        uint72 maxCollateralBalanceInternalPrecision\n    ) external override onlyOwner {\n        _checkValidCurrency(currencyId);\n        // Cannot turn on max collateral balance for a currency that is trading\n        if (maxCollateralBalanceInternalPrecision > 0) require(CashGroup.getMaxMarketIndex(currencyId) == 0);\n        TokenHandler.setMaxCollateralBalance(currencyId, maxCollateralBalanceInternalPrecision);\n        emit UpdateMaxCollateralBalance(currencyId, maxCollateralBalanceInternalPrecision);\n    }\n\n    /// @notice Enables a cash group on a given currency so that it can have lend and borrow markets. Will\n    /// also deploy an nToken contract so that markets can be initialized.\n    /// @dev emit:UpdateCashGroup emit:UpdateAssetRate emit:DeployNToken\n    /// @param currencyId id of the currency to enable\n    /// @param assetRateOracle address of the rate oracle for converting interest bearing assets to\n    /// underlying values\n    /// @param cashGroup parameters for the cash group\n    /// @param underlyingName underlying token name for seeding nToken name\n    /// @param underlyingSymbol underlying token symbol for seeding nToken symbol (i.e. nDAI)\n    function enableCashGroup(\n        uint16 currencyId,\n        AssetRateAdapter assetRateOracle,\n        CashGroupSettings calldata cashGroup,\n        string calldata underlyingName,\n        string calldata underlyingSymbol\n    ) external override onlyOwner {\n        _checkValidCurrency(currencyId);\n        {\n            // Cannot enable fCash trading on a token with a max collateral balance\n            Token memory assetToken = TokenHandler.getAssetToken(currencyId);\n            Token memory underlyingToken = TokenHandler.getUnderlyingToken(currencyId);\n            require(\n                assetToken.maxCollateralBalance == 0 &&\n                underlyingToken.maxCollateralBalance == 0\n            ); // dev: cannot enable trading, collateral cap\n        }\n\n        _updateCashGroup(currencyId, cashGroup);\n        _updateAssetRate(currencyId, assetRateOracle);\n\n        // Creates the nToken erc20 proxy that routes back to the main contract\n        nTokenERC20Proxy proxy = new nTokenERC20Proxy(\n            nTokenERC20(address(this)),\n            currencyId,\n            underlyingName,\n            underlyingSymbol\n        );\n        nTokenHandler.setNTokenAddress(currencyId, address(proxy));\n        emit DeployNToken(currencyId, address(proxy));\n    }\n\n    /// @notice Updates the deposit parameters for an nToken\n    /// @dev emit:UpdateDepositParameters\n    /// @param currencyId the currency id that the nToken references\n    /// @param depositShares an array of values that represent the proportion of each deposit\n    /// that will go to a respective market, must add up to DEPOSIT_PERCENT_BASIS. For example,\n    /// 0.40e8, 0.40e8 and 0.20e8 will result in 40%, 40% and 20% deposited as liquidity into\n    /// the 3 month, 6 month and 1 year markets.\n    /// @param leverageThresholds an array of values denominated in RATE_PRECISION that mark the\n    /// highest proportion of fCash where the nToken will provide liquidity. Above this proportion,\n    /// the nToken will lend to the market instead to reduce the leverage in the market.\n    function updateDepositParameters(\n        uint16 currencyId,\n        uint32[] calldata depositShares,\n        uint32[] calldata leverageThresholds\n    ) external override onlyOwner {\n        _checkValidCurrency(currencyId);\n        nTokenHandler.setDepositParameters(currencyId, depositShares, leverageThresholds);\n        emit UpdateDepositParameters(currencyId);\n    }\n\n    /// @notice Updates the market initialization parameters for an nToken\n    /// @dev emit:UpdateInitializationParameters\n    /// @param currencyId the currency id that the nToken references\n    /// @param annualizedAnchorRates is a target interest rate that will be used to calculate a \n    /// rate anchor during initialize markets. This rate anchor will set the offset from the\n    /// x-axis where the liquidity curve will be initialized. This is used in combination with\n    /// previous market rates to determine the initial proportion where markets will be initialized\n    /// every quarter.\n    /// @param proportions used to combination with annualizedAnchorRate set the initial proportion when\n    /// a market is first initialized. This is required since there is no previous rate to reference.\n    function updateInitializationParameters(\n        uint16 currencyId,\n        uint32[] calldata annualizedAnchorRates,\n        uint32[] calldata proportions\n    ) external override onlyOwner {\n        _checkValidCurrency(currencyId);\n        nTokenHandler.setInitializationParameters(currencyId, annualizedAnchorRates, proportions);\n        emit UpdateInitializationParameters(currencyId);\n    }\n\n    /// @notice Updates the emission rate of incentives for a given currency\n    /// @dev emit:UpdateIncentiveEmissionRate\n    /// @param currencyId the currency id that the nToken references\n    /// @param newEmissionRate Target total incentives to emit for an nToken over an entire year\n    /// denominated in WHOLE TOKENS (i.e. setting this to 1 means 1e8 tokens). The rate will not be\n    /// exact due to multiplier effects and fluctuating token supply.\n    function updateIncentiveEmissionRate(uint16 currencyId, uint32 newEmissionRate)\n        external\n        override\n        onlyOwner\n    {\n        _checkValidCurrency(currencyId);\n        address nTokenAddress = nTokenHandler.nTokenAddress(currencyId);\n        require(nTokenAddress != address(0), \"Invalid currency\");\n        // Sanity check that emissions rate is not specified in 1e8 terms.\n        require(newEmissionRate < Constants.INTERNAL_TOKEN_PRECISION, \"Invalid rate\");\n\n        nTokenSupply.setIncentiveEmissionRate(nTokenAddress, newEmissionRate, block.timestamp);\n        emit UpdateIncentiveEmissionRate(currencyId, newEmissionRate);\n    }\n\n    /// @notice Updates collateralization parameters for an nToken\n    /// @dev emit:UpdateTokenCollateralParameters\n    /// @param currencyId the currency id that the nToken references\n    /// @param residualPurchaseIncentive10BPS nTokens will have residual amounts of fCash at the end of each\n    /// quarter that are \"dead weight\" because they are at idiosyncratic maturities and do not contribute to\n    /// actively providing liquidity. This parameter will incentivize market participants to purchase these residuals\n    /// at a discount from the on chain oracle rate, denominated in 10 basis point increments. These residuals will\n    /// be added back into nToken balances and will be used to provide liquidity upon the next market initialization.\n    /// @param pvHaircutPercentage a percentage (< 100) that the present value of the nToken's assets will be valued\n    /// at for the purposes of free collateral, relevant when accounts hold nTokens as collateral against debts.\n    /// @param residualPurchaseTimeBufferHours an arbitrage opportunity is available by pushing markets in one direction\n    /// before quarterly settlement to generate large residual balances that can be purchased at a discount. The time buffer\n    /// here ensures that anyone attempting such an act would have to wait some number of hours (likely a few days) before\n    /// they could attempt to purchase residuals, ensuring that the market could realign to rates where the arbitrage is\n    /// no longer possible.\n    /// @param cashWithholdingBuffer10BPS nToken residuals may be negative fCash (debt), in this case cash is withheld to\n    /// transfer to accounts that take on the debt. This parameter denominates the discounted rate at which the cash will\n    /// be withheld at for this purpose.\n    /// @param liquidationHaircutPercentage a percentage of nToken present value (> pvHaircutPercentage and <= 100) at which\n    /// liquidators will purchase nTokens during liquidation\n    function updateTokenCollateralParameters(\n        uint16 currencyId,\n        uint8 residualPurchaseIncentive10BPS,\n        uint8 pvHaircutPercentage,\n        uint8 residualPurchaseTimeBufferHours,\n        uint8 cashWithholdingBuffer10BPS,\n        uint8 liquidationHaircutPercentage\n    ) external override onlyOwner {\n        _checkValidCurrency(currencyId);\n        address nTokenAddress = nTokenHandler.nTokenAddress(currencyId);\n        require(nTokenAddress != address(0), \"Invalid currency\");\n\n        nTokenHandler.setNTokenCollateralParameters(\n            nTokenAddress,\n            residualPurchaseIncentive10BPS,\n            pvHaircutPercentage,\n            residualPurchaseTimeBufferHours,\n            cashWithholdingBuffer10BPS,\n            liquidationHaircutPercentage\n        );\n        emit UpdateTokenCollateralParameters(currencyId);\n    }\n\n    /// @notice Updates cash group parameters\n    /// @dev emit:UpdateCashGroup\n    /// @param currencyId id of the currency to enable\n    /// @param cashGroup new parameters for the cash group\n    function updateCashGroup(uint16 currencyId, CashGroupSettings calldata cashGroup)\n        external\n        override\n        onlyOwner\n    {\n        _checkValidCurrency(currencyId);\n        _updateCashGroup(currencyId, cashGroup);\n    }\n\n    /// @notice Updates asset rate oracle\n    /// @dev emit:UpdateAssetRate\n    /// @param currencyId id of the currency\n    /// @param rateOracle new rate oracle for the asset\n    function updateAssetRate(uint16 currencyId, AssetRateAdapter rateOracle) external override onlyOwner {\n        _checkValidCurrency(currencyId);\n        _updateAssetRate(currencyId, rateOracle);\n    }\n\n    /// @notice Updates ETH exchange rate or related parameters\n    /// @dev emit:UpdateETHRate\n    /// @param currencyId id of the currency\n    /// @param rateOracle new rate oracle for the asset\n    /// @param rateOracle ETH to underlying rate oracle\n    /// @param mustInvert if the rate from the oracle needs to be inverted\n    /// @param buffer multiplier (>= 100) for negative balances when calculating free collateral\n    /// @param haircut multiplier (<= 100) for positive balances when calculating free collateral\n    /// @param liquidationDiscount multiplier (>= 100) for exchange rate when liquidating\n    function updateETHRate(\n        uint16 currencyId,\n        AggregatorV2V3Interface rateOracle,\n        bool mustInvert,\n        uint8 buffer,\n        uint8 haircut,\n        uint8 liquidationDiscount\n    ) external override onlyOwner {\n        _checkValidCurrency(currencyId);\n        _updateETHRate(currencyId, rateOracle, mustInvert, buffer, haircut, liquidationDiscount);\n    }\n\n    /// @notice Sets a global transfer operator that can do authenticated ERC1155 transfers. This enables\n    /// OTC trading or other use cases such as layer 2 authenticated transfers.\n    /// @dev emit:UpdateGlobalTransferOperator\n    /// @param operator address of the operator\n    /// @param approved true if the operator is allowed to transfer globally\n    function updateGlobalTransferOperator(address operator, bool approved)\n        external\n        override\n        onlyOwner\n    {\n        // Sanity check to ensure that operator is a contract, not an EOA\n        require(Address.isContract(operator), \"Operator must be a contract\");\n\n        globalTransferOperator[operator] = approved;\n        emit UpdateGlobalTransferOperator(operator, approved);\n    }\n\n    /// @notice Approves contracts that can call `batchTradeActionWithCallback`. These contracts can\n    /// \"flash loan\" from Notional V2 and receive a callback before the free collateral check. Flash loans\n    /// via the Notional V2 liquidity pool are not very gas efficient so this is not generally available,\n    /// it can be used for migrating borrows into Notional V2 from other platforms.\n    /// @dev emit:UpdateAuthorizedCallbackContract\n    /// @param operator address of the contract\n    /// @param approved true if the contract is authorized\n    function updateAuthorizedCallbackContract(address operator, bool approved)\n        external\n        override\n        onlyOwner\n    {\n        // Sanity check to ensure that operator is a contract, not an EOA\n        require(Address.isContract(operator), \"Operator must be a contract\");\n        authorizedCallbackContract[operator] = approved;\n        emit UpdateAuthorizedCallbackContract(operator, approved);\n    }\n\n    /// @notice Sets a secondary incentive rewarder for a currency. This contract will\n    /// be called whenever an nToken balance changes and allows a secondary contract to\n    /// mint incentives to the account. This will override any previous rewarder, if set.\n    /// Will have no effect if there is no nToken corresponding to the currency id.\n    /// @dev emit:UpdateSecondaryIncentiveRewarder\n    /// @param currencyId currency id of the nToken\n    /// @param rewarder rewarder contract\n    function setSecondaryIncentiveRewarder(uint16 currencyId, IRewarder rewarder)\n        external\n        override\n        onlyOwner\n    {\n        _checkValidCurrency(currencyId);\n        require(Address.isContract(address(rewarder)), \"Rewarder must be a contract\");\n        nTokenHandler.setSecondaryRewarder(currencyId, rewarder);\n        emit UpdateSecondaryIncentiveRewarder(currencyId, address(rewarder));\n    }\n\n    /// @notice Updates the lending pool address used by AaveHandler\n    /// @dev emit:UpdateLendingPool\n    /// @param pool lending pool address\n    function setLendingPool(ILendingPool pool) external override onlyOwner {\n        LendingPoolStorage storage store = LibStorage.getLendingPool();\n        require(address(pool) != address(0) && address(store.lendingPool) == address(0), \"Invalid lending pool\");\n        store.lendingPool = pool;\n        emit UpdateLendingPool(address(pool));\n    }\n\n    function _updateCashGroup(uint16 currencyId, CashGroupSettings calldata cashGroup) internal {\n        CashGroup.setCashGroupStorage(currencyId, cashGroup);\n        emit UpdateCashGroup(currencyId);\n    }\n\n    function _updateAssetRate(uint16 currencyId, AssetRateAdapter rateOracle) internal {\n        // If rate oracle refers to address zero then do not apply any updates here, this means\n        // that a token is non mintable.\n        Token memory assetToken = TokenHandler.getAssetToken(currencyId);\n        if (address(rateOracle) == address(0)) {\n            // Sanity check that unset rate oracles are only for non mintable tokens\n            require(assetToken.tokenType == TokenType.NonMintable, \"G: invalid asset rate\");\n        } else {\n            // Sanity check that the rate oracle refers to the proper asset token\n            address token = AssetRateAdapter(rateOracle).token();\n            require(assetToken.tokenAddress == token, \"G: invalid rate oracle\");\n\n            uint8 underlyingDecimals;\n            if (currencyId == Constants.ETH_CURRENCY_ID) {\n                // If currencyId is one then this is referring to cETH and there is no underlying() to call\n                underlyingDecimals = Constants.ETH_DECIMAL_PLACES;\n            } else {\n                address underlyingTokenAddress = AssetRateAdapter(rateOracle).underlying();\n                Token memory underlyingToken = TokenHandler.getUnderlyingToken(currencyId);\n                // Sanity check to ensure that the asset rate adapter refers to the correct underlying\n                require(underlyingTokenAddress == underlyingToken.tokenAddress, \"G: invalid adapter\");\n                underlyingDecimals = ERC20(underlyingTokenAddress).decimals();\n            }\n\n            // Perform this check to ensure that decimal calculations don't overflow\n            require(underlyingDecimals <= Constants.MAX_DECIMAL_PLACES);\n            mapping(uint256 => AssetRateStorage) storage store = LibStorage.getAssetRateStorage();\n            store[currencyId] = AssetRateStorage({\n                rateOracle: rateOracle,\n                underlyingDecimalPlaces: underlyingDecimals\n            });\n\n            emit UpdateAssetRate(currencyId);\n        }\n    }\n\n    function _updateETHRate(\n        uint16 currencyId,\n        AggregatorV2V3Interface rateOracle,\n        bool mustInvert,\n        uint8 buffer,\n        uint8 haircut,\n        uint8 liquidationDiscount\n    ) internal {\n        uint8 rateDecimalPlaces;\n        if (currencyId == Constants.ETH_CURRENCY_ID) {\n            // ETH to ETH exchange rate is fixed at 1 and has no rate oracle\n            rateOracle = AggregatorV2V3Interface(address(0));\n            rateDecimalPlaces = Constants.ETH_DECIMAL_PLACES;\n        } else {\n            require(address(rateOracle) != address(0), \"G: zero rate oracle address\");\n            rateDecimalPlaces = rateOracle.decimals();\n        }\n        require(buffer >= Constants.PERCENTAGE_DECIMALS, \"G: buffer must be gte decimals\");\n        require(haircut <= Constants.PERCENTAGE_DECIMALS, \"G: buffer must be lte decimals\");\n        require(\n            liquidationDiscount > Constants.PERCENTAGE_DECIMALS,\n            \"G: discount must be gt decimals\"\n        );\n\n        // Perform this check to ensure that decimal calculations don't overflow\n        require(rateDecimalPlaces <= Constants.MAX_DECIMAL_PLACES);\n        mapping(uint256 => ETHRateStorage) storage store = LibStorage.getExchangeRateStorage();\n        store[currencyId] = ETHRateStorage({\n            rateOracle: rateOracle,\n            rateDecimalPlaces: rateDecimalPlaces,\n            mustInvert: mustInvert,\n            buffer: buffer,\n            haircut: haircut,\n            liquidationDiscount: liquidationDiscount\n        });\n\n        emit UpdateETHRate(currencyId);\n    }\n}\n","sourcePath":"contracts/external/actions/GovernanceAction.sol","deployment":{"address":"0x04BdEB742e2524cabCE4251F790D131ae1CaF341","chainid":"42","blockHeight":30483983}}