{"abi":[{"inputs":[{"internalType":"uint8","name":"_decimals","type":"uint8"}],"stateMutability":"nonpayable","type":"constructor","name":"constructor"},{"anonymous":false,"inputs":[{"indexed":true,"internalType":"int256","name":"current","type":"int256"},{"indexed":true,"internalType":"uint256","name":"roundId","type":"uint256"},{"indexed":false,"internalType":"uint256","name":"timestamp","type":"uint256"}],"name":"AnswerUpdated","type":"event"},{"inputs":[],"name":"answeredInRound","outputs":[{"internalType":"uint80","name":"","type":"uint80"}],"stateMutability":"view","type":"function"},{"inputs":[],"name":"decimals","outputs":[{"internalType":"uint8","name":"","type":"uint8"}],"stateMutability":"view","type":"function"},{"inputs":[],"name":"latestAnswer","outputs":[{"internalType":"int256","name":"","type":"int256"}],"stateMutability":"view","type":"function"},{"inputs":[],"name":"latestRoundData","outputs":[{"internalType":"uint80","name":"","type":"uint80"},{"internalType":"int256","name":"","type":"int256"},{"internalType":"uint256","name":"","type":"uint256"},{"internalType":"uint256","name":"","type":"uint256"},{"internalType":"uint80","name":"","type":"uint80"}],"stateMutability":"view","type":"function"},{"inputs":[],"name":"roundId","outputs":[{"internalType":"uint80","name":"","type":"uint80"}],"stateMutability":"view","type":"function"},{"inputs":[{"internalType":"int256","name":"a","type":"int256"}],"name":"setAnswer","outputs":[],"stateMutability":"nonpayable","type":"function"},{"inputs":[{"internalType":"uint80","name":"_roundId","type":"uint80"},{"internalType":"uint256","name":"_updatedAt","type":"uint256"},{"internalType":"uint80","name":"_answeredInRound","type":"uint80"}],"name":"setRoundData","outputs":[],"stateMutability":"nonpayable","type":"function"},{"inputs":[],"name":"updatedAt","outputs":[{"internalType":"uint256","name":"","type":"uint256"}],"stateMutability":"view","type":"function"}],"bytecode":"608060405234801561001057600080fd5b5060405161033d38038061033d8339818101604052602081101561003357600080fd5b50516003805460ff191660ff909216919091179055600180546a01000000000000000000006001600160501b03199091168217600160501b600160a01b0319161781556002556102b5806100886000396000f3fe608060405234801561001057600080fd5b50600436106100885760003560e01c806399213cd81161005b57806399213cd8146100f15780639a4c42c614610110578063c22c249914610146578063feaf968c1461014e57610088565b8063313ce5671461008d57806350d25bcd146100ab5780637519ab50146100c55780638cd221c9146100cd575b600080fd5b61009561019a565b6040805160ff9092168252519081900360200190f35b6100b36101a3565b60408051918252519081900360200190f35b6100b36101a9565b6100d56101af565b604080516001600160501b039092168252519081900360200190f35b61010e6004803603602081101561010757600080fd5b50356101be565b005b61010e6004803603606081101561012657600080fd5b506001600160501b038135811691602081013591604090910135166101fc565b6100d5610243565b610156610259565b60405180866001600160501b03168152602001858152602001848152602001838152602001826001600160501b031681526020019550505050505060405180910390f35b60035460ff1681565b60005490565b60025481565b6001546001600160501b031681565b600081815560408051428152905183917f0559884fd3a460db3073b7fc896cc77986f16e378210ded43186175bf646fc5f919081900360200190a350565b6001805460029390935569ffffffffffffffffffff199092166001600160501b039384161769ffffffffffffffffffff60501b1916600160501b9190931602919091179055565b600154600160501b90046001600160501b031681565b600154600080546002546001600160501b038085169592949192600160501b909204169056fea2646970667358221220d18f44ceb66116560690ddcf1c160626f625060cc6be63b654ff6dad9530347e64736f6c63430007060033","bytecodeSha1":"2e5277610fdacc98881f41ba5a8ed87fdcb74fcd","compiler":{"evm_version":"istanbul","optimizer":{"enabled":true,"runs":200},"version":"0.7.6+commit.7338295f"},"contractName":"MockAggregator","language":"Solidity","natspec":{"kind":"dev","methods":{},"version":1},"opcodes":"PUSH1 0x80 PUSH1 0x40 MSTORE CALLVALUE DUP1 ISZERO PUSH2 0x10 JUMPI PUSH1 0x0 DUP1 REVERT JUMPDEST POP PUSH1 0x4 CALLDATASIZE LT PUSH2 0x88 JUMPI PUSH1 0x0 CALLDATALOAD PUSH1 0xE0 SHR DUP1 PUSH4 0x99213CD8 GT PUSH2 0x5B JUMPI DUP1 PUSH4 0x99213CD8 EQ PUSH2 0xF1 JUMPI DUP1 PUSH4 0x9A4C42C6 EQ PUSH2 0x110 JUMPI DUP1 PUSH4 0xC22C2499 EQ PUSH2 0x146 JUMPI DUP1 PUSH4 0xFEAF968C EQ PUSH2 0x14E JUMPI PUSH2 0x88 JUMP JUMPDEST DUP1 PUSH4 0x313CE567 EQ PUSH2 0x8D JUMPI DUP1 PUSH4 0x50D25BCD EQ PUSH2 0xAB JUMPI DUP1 PUSH4 0x7519AB50 EQ PUSH2 0xC5 JUMPI DUP1 PUSH4 0x8CD221C9 EQ PUSH2 0xCD JUMPI JUMPDEST PUSH1 0x0 DUP1 REVERT JUMPDEST PUSH2 0x95 PUSH2 0x19A JUMP JUMPDEST PUSH1 0x40 DUP1 MLOAD PUSH1 0xFF SWAP1 SWAP3 AND DUP3 MSTORE MLOAD SWAP1 DUP2 SWAP1 SUB PUSH1 0x20 ADD SWAP1 RETURN JUMPDEST PUSH2 0xB3 PUSH2 0x1A3 JUMP JUMPDEST PUSH1 0x40 DUP1 MLOAD SWAP2 DUP3 MSTORE MLOAD SWAP1 DUP2 SWAP1 SUB PUSH1 0x20 ADD SWAP1 RETURN JUMPDEST PUSH2 0xB3 PUSH2 0x1A9 JUMP JUMPDEST PUSH2 0xD5 PUSH2 0x1AF JUMP JUMPDEST PUSH1 0x40 DUP1 MLOAD PUSH1 0x1 PUSH1 0x1 PUSH1 0x50 SHL SUB SWAP1 SWAP3 AND DUP3 MSTORE MLOAD SWAP1 DUP2 SWAP1 SUB PUSH1 0x20 ADD SWAP1 RETURN JUMPDEST PUSH2 0x10E PUSH1 0x4 DUP1 CALLDATASIZE SUB PUSH1 0x20 DUP2 LT ISZERO PUSH2 0x107 JUMPI PUSH1 0x0 DUP1 REVERT JUMPDEST POP CALLDATALOAD PUSH2 0x1BE JUMP JUMPDEST STOP JUMPDEST PUSH2 0x10E PUSH1 0x4 DUP1 CALLDATASIZE SUB PUSH1 0x60 DUP2 LT ISZERO PUSH2 0x126 JUMPI PUSH1 0x0 DUP1 REVERT JUMPDEST POP PUSH1 0x1 PUSH1 0x1 PUSH1 0x50 SHL SUB DUP2 CALLDATALOAD DUP2 AND SWAP2 PUSH1 0x20 DUP2 ADD CALLDATALOAD SWAP2 PUSH1 0x40 SWAP1 SWAP2 ADD CALLDATALOAD AND PUSH2 0x1FC JUMP JUMPDEST PUSH2 0xD5 PUSH2 0x243 JUMP JUMPDEST PUSH2 0x156 PUSH2 0x259 JUMP JUMPDEST PUSH1 0x40 MLOAD DUP1 DUP7 PUSH1 0x1 PUSH1 0x1 PUSH1 0x50 SHL SUB AND DUP2 MSTORE PUSH1 0x20 ADD DUP6 DUP2 MSTORE PUSH1 0x20 ADD DUP5 DUP2 MSTORE PUSH1 0x20 ADD DUP4 DUP2 MSTORE PUSH1 0x20 ADD DUP3 PUSH1 0x1 PUSH1 0x1 PUSH1 0x50 SHL SUB AND DUP2 MSTORE PUSH1 0x20 ADD SWAP6 POP POP POP POP POP POP PUSH1 0x40 MLOAD DUP1 SWAP2 SUB SWAP1 RETURN JUMPDEST PUSH1 0x3 SLOAD PUSH1 0xFF AND DUP2 JUMP JUMPDEST PUSH1 0x0 SLOAD SWAP1 JUMP JUMPDEST PUSH1 0x2 SLOAD DUP2 JUMP JUMPDEST PUSH1 0x1 SLOAD PUSH1 0x1 PUSH1 0x1 PUSH1 0x50 SHL SUB AND DUP2 JUMP JUMPDEST PUSH1 0x0 DUP2 DUP2 SSTORE PUSH1 0x40 DUP1 MLOAD TIMESTAMP DUP2 MSTORE SWAP1 MLOAD DUP4 SWAP2 PUSH32 0x559884FD3A460DB3073B7FC896CC77986F16E378210DED43186175BF646FC5F SWAP2 SWAP1 DUP2 SWAP1 SUB PUSH1 0x20 ADD SWAP1 LOG3 POP JUMP JUMPDEST PUSH1 0x1 DUP1 SLOAD PUSH1 0x2 SWAP4 SWAP1 SWAP4 SSTORE PUSH10 0xFFFFFFFFFFFFFFFFFFFF NOT SWAP1 SWAP3 AND PUSH1 0x1 PUSH1 0x1 PUSH1 0x50 SHL SUB SWAP4 DUP5 AND OR PUSH10 0xFFFFFFFFFFFFFFFFFFFF PUSH1 0x50 SHL NOT AND PUSH1 0x1 PUSH1 0x50 SHL SWAP2 SWAP1 SWAP4 AND MUL SWAP2 SWAP1 SWAP2 OR SWAP1 SSTORE JUMP JUMPDEST PUSH1 0x1 SLOAD PUSH1 0x1 PUSH1 0x50 SHL SWAP1 DIV PUSH1 0x1 PUSH1 0x1 PUSH1 0x50 SHL SUB AND DUP2 JUMP JUMPDEST PUSH1 0x1 SLOAD PUSH1 0x0 DUP1 SLOAD PUSH1 0x2 SLOAD PUSH1 0x1 PUSH1 0x1 PUSH1 0x50 SHL SUB DUP1 DUP6 AND SWAP6 SWAP3 SWAP5 SWAP2 SWAP3 PUSH1 0x1 PUSH1 0x50 SHL SWAP1 SWAP3 DIV AND SWAP1 JUMP INVALID LOG2 PUSH5 0x6970667358 0x22 SLT KECCAK256 0xD1 DUP16 DIFFICULTY 0xCE 0xB6 PUSH2 0x1656 MOD SWAP1 0xDD 0xCF SHR AND MOD 0x26 0xF6 0x25 MOD 0xC 0xC6 0xBE PUSH4 0xB654FF6D 0xAD SWAP6 ADDRESS CALLVALUE PUSH31 0x64736F6C634300070600330000000000000000000000000000000000000000 ","sha1":"bd66e2b8f4011a6f4a510e792efa2ee97b6bfb21","source":"// SPDX-License-Identifier: GPL-3.0-only\npragma solidity ^0.7.0;\n\ncontract MockAggregator {\n    int256 private _answer;\n    uint80 public roundId;\n    uint80 public answeredInRound;\n    uint256 public updatedAt;\n    uint8 public decimals;\n\n    // AggregatorV1 event\n    event AnswerUpdated(int256 indexed current, uint256 indexed roundId, uint256 timestamp);\n\n    constructor(uint8 _decimals) {\n        decimals = _decimals;\n        roundId = 1;\n        answeredInRound = 1;\n        updatedAt = 1;\n    }\n\n    function latestRoundData() external view\n        returns (\n            uint80,\n            int256,\n            uint256,\n            uint256,\n            uint80\n        ) {\n\n        return (roundId, _answer, 0, updatedAt, answeredInRound);\n    }\n\n    function latestAnswer() external view returns (int256) {\n        return _answer;\n    }\n\n    function setAnswer(int256 a) external {\n        _answer = a;\n        emit AnswerUpdated(a, 0, block.timestamp);\n    }\n\n    function setRoundData(uint80 _roundId, uint256 _updatedAt, uint80 _answeredInRound) external {\n        roundId = _roundId;\n        updatedAt = _updatedAt;\n        answeredInRound = _answeredInRound;\n    }\n}","sourcePath":"contracts/mocks/MockAggregator.sol","type":"contract","deployment":{"address":"0x0CB9a95789929dC75D1B77A916762Bc719305543","chainid":"42","blockHeight":31001601}}