{"bytecode":"608060405234801561001057600080fd5b50614059806100206000396000f3fe6080604052600436106100555760003560e01c80630276b64b1461005a57806324a3d6221461006f5780635950d8e91461009a5780636e6a32a6146100ad57806382463367146100c05780638da5cb5b146100d5575b600080fd5b61006d610068366004613754565b6100ea565b005b34801561007b57600080fd5b5061008461017a565b6040516100919190613b71565b60405180910390f35b61006d6100a83660046137a5565b610189565b61006d6100bb36600461384a565b6102b9565b3480156100cc57600080fd5b5061008461043f565b3480156100e157600080fd5b5061008461044e565b6002600a5414156101165760405162461bcd60e51b815260040161010d90613e73565b60405180910390fd5b6002600a556001600160a01b03831633148061013157503330145b61014d5760405162461bcd60e51b815260040161010d90613d43565b61015683610465565b60006101638484846104b4565b905061016f848261080c565b50506001600a555050565b6002546001600160a01b031681565b3360009081526008602052604090205460ff166101b85760405162461bcd60e51b815260040161010d90613d43565b6101c185610465565b60006101ce8686866104b4565b90506101da818761088d565b60405163550d065760e11b8152339063aa1a0cae906102039083908a9088908890600401613b85565b600060405180830381600087803b15801561021d57600080fd5b505af1158015610231573d6000803e3d6000fd5b5050505060208101516001600160f81b031916156102b157604051636ccc642f60e01b815273__FreeCollateralExternal________________90636ccc642f90610280908990600401613b71565b60006040518083038186803b15801561029857600080fd5b505af41580156102ac573d6000803e3d6000fd5b505050505b505050505050565b6002600a5414156102dc5760405162461bcd60e51b815260040161010d90613e73565b6002600a556001600160a01b0383163314806102f757503330145b6103135760405162461bcd60e51b815260040161010d90613d43565b61031c83610465565b600061032784610991565b905061033161349c565b60005b83811015610428573685858381811061034957fe5b905060c00201905060008211156103b65785856001840381811061036957fe5b905060c0020160200160208101906103819190613aa9565b61ffff166103956040830160208401613aa9565b61ffff16116103b65760405162461bcd60e51b815260040161010d90613df3565b6103d3876103ca6040840160208501613aa9565b85919087610a4d565b6103ef87846103e560208501856138e7565b8460400135610af3565b61041f878585606085013561040a60a08701608088016138cb565b61041a60c0880160a089016138cb565b610bc6565b50600101610334565b50610433858361080c565b50506001600a55505050565b6001546001600160a01b031681565b60005464010000000090046001600160a01b031681565b6001600160a01b03811661047857600080fd5b6001600160a01b03811630141561048e57600080fd5b600061049982610c49565b5050505061ffff169050806000146104b057600080fd5b5050565b6104bc6134ec565b60006104c785610991565b90506104d161349c565b60006104e38784604001516000610cb2565b905060005b858110156107e457368787838181106104fd57fe5b905060200281019061050f9190613f9e565b9050811561057e5787876001840381811061052657fe5b90506020028101906105389190613f9e565b610549906040810190602001613aa9565b61ffff1661055d6040830160208401613aa9565b61ffff161161057e5760405162461bcd60e51b815260040161010d90613df3565b61059b896105926040840160208501613aa9565b86919088610a4d565b6105ad89856103e560208501856138e7565b60006105bc60c0830183613f57565b905011156107c05760006105cf86610d45565b156106dc576105e46040830160208401613aa9565b61ffff16866060015161ffff161461060e5760405162461bcd60e51b815260040161010d90613ebd565b6060860151865160009173__TradingAction_________________________91633643f39b918e9161064360c0890189613f57565b6040518663ffffffff1660e01b8152600401610663959493929190613ce5565b604080518083038186803b15801561067a57600080fd5b505af415801561068e573d6000803e3d6000fd5b505050506040513d601f19601f820116820180604052508101906106b2919061391e565b909250905080156106d657602087018051600160f81b176001600160f81b03191690525b5061078f565b73__TradingAction_________________________63b58f83ed8b6107076040860160208701613aa9565b8761071560c0880188613f57565b6040518663ffffffff1660e01b8152600401610735959493929190613c5e565b60006040518083038186803b15801561074d57600080fd5b505af4158015610761573d6000803e3d6000fd5b505050506040513d6000823e601f3d908101601f1916820160405261078991908101906139ed565b90945090505b60008112156107aa576107aa856107a583610d52565b610d60565b60608501516107b99082610daf565b6060860152505b6107db898686606085013561040a60a08701608088016138cb565b506001016104e8565b506107ee83610d45565b6107ff576107ff8388836000610dcb565b50909150505b9392505050565b610816818361088d565b60208101516001600160f81b031916156104b057604051636ccc642f60e01b815273__FreeCollateralExternal________________90636ccc642f90610861908590600401613b71565b60006040518083038186803b15801561087957600080fd5b505af41580156102b1573d6000803e3d6000fd5b6000610897610ead565b6001600160a01b03831660008181526020838152604080832088518154938a0151838b015160608c015160808d015160701c600160481b027affffffffffffffffffffffffffffffffffff0000000000000000001961ffff909216600160381b0268ffff000000000000001960ff94909416600160301b0266ff0000000000001960f89690961c650100000000000265ff00000000001964ffffffffff90981664ffffffffff19909b169a909a1796909616989098179390931693909317169490941716929092179091555192935090917f6bd4b121bca854a191536a2ca891155c42ee2fb23f307fb34e8bc65cfcb5412e9190a2505050565b6109996134ec565b60006109a483610eba565b90506109af81610f5b565b15610a45576040516337b5fc2160e11b815273__SettleAssetsExternal__________________90636f6bf842906109ed9086908590600401613bf2565b60a06040518083038186803b158015610a0557600080fd5b505af4158015610a19573d6000803e3d6000fd5b505050506040513d601f19601f82011682018060405250810190610a3d919061394d565b915050610a48565b90505b919050565b8161ffff166000108015610a675750613fff61ffff831611155b610a7057600080fd5b61ffff8216808552610a83908290610fac565b15610ab057610a96838361ffff16611036565b61010088015260e087015260408601526020850152610ace565b6000602085018190526040850181905260e085018190526101008501525b50506000606083018190526080830181905260a0830181905260c09092019190915250565b6000610afe826110c2565b9050600080821215610b0f57600080fd5b6000846006811115610b1d57fe5b1415610b2a575050610bc0565b6001846006811115610b3857fe5b1480610b4f57506003846006811115610b4d57fe5b145b15610b6857610b6185878460006110dc565b9050610bb4565b6002846006811115610b7657fe5b1480610b8d57506004846006811115610b8b57fe5b145b15610b9d57610b6185878461118f565b6006846006811115610bab57fe5b1415610bb45750805b6102b18585848461129b565b50505050565b6000610bd1846110c2565b90506000811215610be157600080fd5b8215610c1f57610c108560800151610c0a87606001518860200151610daf90919063ffffffff16565b90610daf565b90506000811215610c1f575060005b6080850151610c2e90826114b6565b6080860152610c3f858888856114cc565b5050505050505050565b600080600080600080610c5a611737565b6001600160a01b039097166000908152602097909752505060409094205461ffff81169563ffffffff62010000830481169650600160301b830416945060ff600160501b8304169350600160581b90910460d81b9150565b610cba61351a565b610cc261351a565b60ff8416610cd1579050610805565b610cdb8585611744565b815260ff841660608201528267ffffffffffffffff81118015610cfd57600080fd5b50604051908082528060200260200182016040528015610d3757816020015b610d24613542565b815260200190600190039081610d1c5790505b506020820152949350505050565b6060015161ffff16151590565b6000610a456000198361176d565b60008112158015610d93575080610d908360800151610c0a85606001518660200151610daf90919063ffffffff16565b12155b6104b05760405162461bcd60e51b815260040161010d90613f18565b81810182811215600083121514610dc557600080fd5b92915050565b6000808080610dda86886117bb565b64ffffffffff81168c5292965090945092509050610df788610f5b565b15610e0157600080fd5b60ff8216604089015284610e2057600760ff83161115610e2057600080fd5b8315610e4357602088018051600160f81b176001600160f81b0319169052610e52565b602088018051607f60f91b1690525b610e5f88608001516119fa565b6001600160701b031916608089015260005b8315610ea25760f084901c818114610e9457610e948a826001600160ff1b611a75565b60109490941b939050610e71565b505050505050505050565b600080610dc56001611c74565b610ec26134ec565b6000610ecc610ead565b6001600160a01b039390931660009081526020938452604090819020815160a081018352905464ffffffffff8116825265010000000000810460f81b6001600160f81b03191695820195909552600160301b850460ff1691810191909152600160381b840461ffff166060820152600160481b90930460701b6001600160701b03191660808401525090919050565b600042610f6783610d45565b15610f8857610f7581611c8d565b835164ffffffffff16109150610a489050565b825164ffffffffff1615801590610a3d5750825164ffffffffff1611159050610a48565b60008115801590610fbf5750613fff8211155b610fc857600080fd5b6080830151606084015161ffff16831415610fe7576001915050610dc5565b6001600160701b031981161561102c5760f081901c613fff16838114156110195750600160fe1b908116149050610dc5565b5060101b6001600160801b031916610fe7565b5060009392505050565b6000806000806000611046611cab565b6001600160a01b0388166000908152602082815260408083208a84529091529020805469ffffffffffffffffffff81169650600160501b810463ffffffff169550919250906110a490600160701b900466ffffffffffffff16611cb8565b9054600160a81b9004600a90810b900b989497509295509193505050565b60006001600160ff1b038211156110d857600080fd5b5090565b6000826110eb57506000611187565b600083136110f857600080fd5b600061110b866000015161ffff16611cc6565b905060006111198286611cd9565b90508160200151806111285750835b1561116757600061113a838888611d0f565b90506111468382611cd9565b60608901519092506111589083610daf565b60608901525091506111879050565b60808701516111769082610daf565b608088015291506111879050565b50505b949350505050565b60008161119e57506000610805565b600082136111ab57600080fd5b60006111be856000015161ffff16611db3565b90506003816060015160048111156111d257fe5b14156111fc573483146111f75760405162461bcd60e51b815260040161010d90613d87565b61120a565b611207818585611d0f565b92505b600061121d866000015161ffff16611cc6565b905060018160600151600481111561123157fe5b148061124c575060028160600151600481111561124a57fe5b145b61125557600080fd5b600061126a61126386611dc6565b8390611dd5565b905060006112788383611cd9565b606089015190915061128a9082610daf565b606089015293505050509392505050565b60038360068111156112a957fe5b14806112c0575060048360068111156112be57fe5b145b806112d6575060068360068111156112d457fe5b145b156113a2576112e58482610d60565b60608401516112f490826114b6565b60608501528351604051632128561360e11b815260009173__nTokenMintAction______________________91634250ac2691611335918690600401613f43565b60206040518083038186803b15801561134d57600080fd5b505af4158015611361573d6000803e3d6000fd5b505050506040513d601f19601f820116820180604052508101906113859190613906565b60c08601519091506113979082610daf565b60c086015250610bc0565b60058360068111156113b057fe5b1415610bc057816113da8560c00151610c0a8760a001518860400151610daf90919063ffffffff16565b12156113f85760405162461bcd60e51b815260040161010d90613e3c565b60c084015161140790836114b6565b60c085015283516040516352e73f7760e01b815260009173__nTokenRedeemAction____________________916352e73f7791611448918790600401613f43565b60206040518083038186803b15801561146057600080fd5b505af4158015611474573d6000803e3d6000fd5b505050506040513d601f19601f820116820180604052508101906114989190613906565b60608601519091506114aa9082610daf565b60608601525050505050565b80820382811315600083121514610dc557600080fd5b60008060008660a00151121561151f5760006115018760a00151610c0a8960c001518a60400151610daf90919063ffffffff16565b121561151f5760405162461bcd60e51b815260040161010d90613ef4565b60008660800151121561156f5760006115518760800151610c0a89606001518a60200151610daf90919063ffffffff16565b121561156f5760405162461bcd60e51b815260040161010d90613e9b565b61157a868685612029565b60808801819052606088015191935060009161159591610daf565b905080156116025760208701516115ac9082610daf565b602088015286516040516001935061ffff909116906001600160a01b038816907f5441e4a5fac93a951d782e6f1cdb82e95c8fc58561a013953d17e395c5e69b4b906115f9908590613d3a565b60405180910390a35b60a0870151151580611617575060c087015115155b156116ad5761162687876120fe565b5061164a8760c00151610c0a8960a001518a60400151610daf90919063ffffffff16565b604088015260c0870151156116a857866000015161ffff16866001600160a01b03167f412bc13d202a2ea5119e55fec9c5e420dddb18faf186373ad9795ad4f4545aa98960c0015160405161169f9190613d3a565b60405180910390a35b600191505b81156116da576116da86886000015161ffff1689602001518a604001518b60e001518c610100015161216f565b865160208801516117079161ffff16901515806116fa5750604089015115155b879190600160fe1b611a75565b6000876020015112156111845750506020929092018051600160f91b176001600160f81b03191690525092915050565b600080610dc56002611c74565b606060006117528484612293565b90506001815111611764579050610dc5565b610805816123b5565b81810260001983141561179d5781158061178f57508282828161178c57fe5b05145b61179857600080fd5b610dc5565b8215806117b25750818382816117af57fe5b05145b610dc557600080fd5b6000808080808080805b89515181101561184c5760008a6000015182815181106117e157fe5b602002602001015190506003808111156117f757fe5b8160a00151600381111561180757fe5b141561181257600080fd5b60028160a00151600381111561182457fe5b1415801561183457506060810151155b15611843576118438b8361256e565b506001016117c5565b5060005b8951518110156118ef5760008a60000151828151811061186c57fe5b602002602001015190506002600381111561188357fe5b8160a00151600381111561189357fe5b14156118a7576080810151600090556118e6565b60018160a0015160038111156118b957fe5b14156118d2576080810151806118cf83826126bd565b50505b6118de818686866127ee565b919650945092505b50600101611850565b50606089015160006118ff612851565b6001600160a01b038b1660009081526020829052604081209192505b8c60200151518110156119c95760008d60200151828151811061193a57fe5b6020026020010151905080606001516000141561195757506119c1565b60028160a00151600381111561196957fe5b14158015611987575060038160a00151600381111561198457fe5b14155b61199057600080fd5b61199c818989896127ee565b919950975095506119b9818487601081106119b357fe5b016126bd565b600185019450505b60010161191b565b50601083111580156119e0575064ffffffffff8411155b6119e957600080fd5b50939a929950975095509350505050565b6000807f7fff7fff7fff7fff7fff7fff7fff7fff7fff00000000000000000000000000008316815b6001600160701b0319821615611a6c57600160fe1b8281161415611a56576001600160f01b03198216811c92909217916010015b6010826001600160701b031916901b9150611a22565b50909392505050565b826000108015611a875750613fff8311155b611a9057600080fd5b818015611aa4575082846060015161ffff16145b15611aae57610bc0565b6080840151600090815b6001600160701b0319821615611c295760f082901c613fff168681148015611add5750855b15611b1557506080870180516001600160f01b0319861660109093029290921c919091176001600160701b031916905250610bc09050565b8681148015611b22575085155b15611b77576001600160f01b03198516199290921691600360fe1b8316611b55576010836001600160701b031916901b92505b506001600160701b031991821660109091021c91909117166080850152610bc0565b8681118015611b835750855b15611bdd576080888101516001600160f01b031960f08a901b88178116601086021c9690961795911b1615611bb757600080fd5b506001600160701b03199182166001919091016010021c91909117166080850152610bc0565b8681118015611bea575085155b15611bf85750505050610bc0565b506001600160f01b0319821660108281029190911c93909317929190911b6001600160801b03191690600101611ab8565b84611c3657505050610bc0565b60098110611c4357600080fd5b6001600160f01b031960f087901b85171660109091021c919091176001600160701b03191660808601525050505050565b6000620f4240826010811115611c8657fe5b0192915050565b600062015180821015611c9f57600080fd5b50620151808106900390565b600080610dc56006611c74565b600881901c60ff9091161b90565b611cce613582565b610a4582600061285e565b60006305f5e10083604001511415611cf2575080610dc5565b604083015161080590611d09846305f5e10061176d565b9061290c565b600080821315611d2b57611d2484848461293d565b9150611dac565b600384606001516004811115611d3d57fe5b1415611d97576000821315611d5157600080fd5b826001600160a01b0381166108fc611d6885610d52565b6040518115909202916000818181858888f19350505050158015611d90573d6000803e3d6000fd5b5050611dac565b8351611dac9084611da785610d52565b612ada565b5092915050565b611dbb613582565b610a4582600161285e565b6000808212156110d857600080fd5b60008083600001516001600160a01b03166370a08231306040518263ffffffff1660e01b8152600401611e089190613b71565b60206040518083038186803b158015611e2057600080fd5b505afa158015611e34573d6000803e3d6000fd5b505050506040513d601f19601f82011682018060405250810190611e589190613906565b90506000600185606001516004811115611e6e57fe5b1415611efc57845160405163140e25ad60e31b81526001600160a01b039091169063a0712d6890611ea3908790600401613d3a565b602060405180830381600087803b158015611ebd57600080fd5b505af1158015611ed1573d6000803e3d6000fd5b505050506040513d601f19601f82011682018060405250810190611ef59190613906565b9050611f6d565b600285606001516004811115611f0e57fe5b14156100555784600001516001600160a01b0316631249c58b346040518263ffffffff1660e01b81526004016000604051808303818588803b158015611f5357600080fd5b505af1158015611f67573d6000803e3d6000fd5b50505050505b8015611f8b5760405162461bcd60e51b815260040161010d90613d69565b84516040516370a0823160e01b81526000916001600160a01b0316906370a0823190611fbb903090600401613b71565b60206040518083038186803b158015611fd357600080fd5b505afa158015611fe7573d6000803e3d6000fd5b505050506040513d601f19601f8201168201806040525081019061200b9190613906565b905061201f61201a8285612b47565b6110c2565b9695505050505050565b600080600061203f866000015161ffff16611cc6565b9050600061205a876080015183612ba490919063ffffffff16565b90508061206f576000809350935050506120f6565b84801561207c5750600081125b156120d9576000612094886000015161ffff16611db3565b905060006120ad826120a585610d52565b869190612bdc565b90506120c4886120bc83610d52565b849190611d0f565b95506120d08484611cd9565b945050506120f3565b6120e4828783611d0f565b93506120f08285611cd9565b92505b50505b935093915050565b8151600090429082906121149061ffff16612df5565b90506000612127828760c0015185612e1b565b9050600061214e8361213c8960400151611dc6565b8960e001518a61010001518887612ef5565b60e0880185905261010088018390529050801561201f5761201f8682612f9c565b6000612179611cab565b6001600160a01b0388166000908152602082815260408083208a845290915290209091506a7fffffffffffffffffffff1986128015906121c457506a7fffffffffffffffffffff8613155b6121cd57600080fd5b600085121580156121e8575069ffffffffffffffffffff8513155b6121f157600080fd5b63ffffffff84111561220257600080fd5b805469ffffffffffffffffffff191669ffffffffffffffffffff86161763ffffffff60501b1916600160501b63ffffffff861602176001600160a81b0316600160a81b6affffffffffffffffffffff600a89900b160217815561226483612fbb565b815466ffffffffffffff91909116600160701b0266ffffffffffffff60701b1990911617905550505050505050565b606060108260ff1611156122a657600080fd5b60006122b0612851565b6001600160a01b038516600090815260208290526040812091925060ff851667ffffffffffffffff811180156122e557600080fd5b5060405190808252806020026020018201604052801561231f57816020015b61230c613542565b8152602001906001900390816123045790505b50905060005b8560ff168110156123ab57600083826010811061233e57fe5b019050600083838151811061234f57fe5b602090810291909101810151835461ffff8116825264ffffffffff620100008204169282019290925260ff600160381b8304166040820152600160401b909104600a90810b900b60608201526080019190915250600101612325565b5095945050505050565b805160008167ffffffffffffffff811180156123d057600080fd5b506040519080825280602002602001820160405280156123fa578160200160208202803683370190505b50905060005b8281101561245757600084828151811061241657fe5b60200260200101519050612437816000015182602001518360400151612fe9565b83838151811061244357fe5b602090810291909101015250600101612400565b5060015b82811015610bc057805b60008111801561249d575082818151811061247c57fe5b602002602001015183600183038151811061249357fe5b6020026020010151115b15612565578281815181106124ae57fe5b60200260200101518360018303815181106124c557fe5b60200260200101518460018403815181106124dc57fe5b602002602001018584815181106124ef57fe5b602002602001018281525082815250505084818151811061250c57fe5b602002602001015185600183038151811061252357fe5b602002602001015186600184038151811061253a57fe5b6020026020010187848151811061254d57fe5b60209081029190910101919091525260001901612465565b5060010161245b565b815151811061257c57600080fd5b600082606001511161258d57600080fd5b60008260000151828151811061259f57fe5b60200260200101519050600260038111156125b657fe5b8160a0015160038111156125c657fe5b141580156125e4575060038160a0015160038111156125e157fe5b14155b6125ed57600080fd5b606083018051600019019052600080805b8551518110156126605760008660000151828151811061261a57fe5b60200260200101519050828160800151118015612647575060028160a00151600381111561264457fe5b14155b1561265757806080015192508193505b506001016125fe565b5081841415612679575050600260a091909101526104b0565b60008560000151838151811061268b57fe5b602090810291909101015160808581018051918301805190915252600160a09182015260029401939093525050505050565b8151158015906126d057508151613fff10155b6126d957600080fd5b816020015160001080156126f65750602082015164ffffffffff10155b6126ff57600080fd5b8160400151600010801561271857506040820151600810155b61272157600080fd5b60608201516a7fffffffffffffffffffff1913801590612750575060608201516a7fffffffffffffffffffff12155b61275957600080fd5b8151815460208401516040850151606090950151600a0b6affffffffffffffffffffff16600160401b0272ffffffffffffffffffffff00000000000000001960ff909616600160381b0267ff000000000000001964ffffffffff909316620100000266ffffffffff00001961ffff90961661ffff19909516949094179490941692909217169190911792909216919091179055565b6000806000806127fd88613044565b905084158061280b57508085115b15612814578094505b8680612824575060008860600151125b965061ffff86161561283557600080fd5b50509451939560109390931c60f09490941b9390931793509150565b600080610dc5600d611c74565b612866613582565b60006128706130b1565b6000858152602082815260408083208715158452825291829020825160a08101845281546001600160a01b038116825260ff600160a01b82048116151594830194909452600160b01b81048416600a0a9482019490945293945092916060830191600160a81b9091041660048111156128e557fe5b81529154600160b81b900468ffffffffffffffffff16602090920191909152949350505050565b6000816000191480156129225750600160ff1b83145b1561292c57600080fd5b81838161293557fe5b059392505050565b60008060008560200151156129ce5785516040516370a0823160e01b81526001600160a01b03909116906370a082319061297b903090600401613b71565b60206040518083038186803b15801561299357600080fd5b505afa1580156129a7573d6000803e3d6000fd5b505050506040513d601f19601f820116820180604052508101906129cb9190613906565b91505b85516129db9086866130be565b8560200151806129ef575060008660800151115b15612a765785516040516370a0823160e01b81526001600160a01b03909116906370a0823190612a23903090600401613b71565b60206040518083038186803b158015612a3b57600080fd5b505afa158015612a4f573d6000803e3d6000fd5b505050506040513d601f19601f82011682018060405250810190612a739190613906565b90505b608086015115612ab1576000612a9487612a8f846110c2565b611cd9565b9050612aa387608001516110c2565b811315612aaf57600080fd5b505b856020015115612ad157612ac861201a8284612b47565b92505050610805565b612ac8846110c2565b60405163a9059cbb60e01b81526001600160a01b0384169063a9059cbb90612b089085908590600401613d21565b600060405180830381600087803b158015612b2257600080fd5b505af1158015612b36573d6000803e3d6000fd5b50505050612b426130ee565b505050565b600082821115612b9e576040805162461bcd60e51b815260206004820152601e60248201527f536166654d6174683a207375627472616374696f6e206f766572666c6f770000604482015290519081900360640190fd5b50900390565b60006305f5e10083604001511415612bbd575080610dc5565b6108056305f5e100611d0985604001518561176d90919063ffffffff16565b600080600285606001516004811115612bf157fe5b1415612bfe575047612c98565b600185606001516004811115612c1057fe5b14156100555783516040516370a0823160e01b81526001600160a01b03909116906370a0823190612c45903090600401613b71565b60206040518083038186803b158015612c5d57600080fd5b505afa158015612c71573d6000803e3d6000fd5b505050506040513d601f19601f82011682018060405250810190612c959190613906565b90505b845160405163db006a7560e01b81526000916001600160a01b03169063db006a7590612cc8908790600401613d3a565b602060405180830381600087803b158015612ce257600080fd5b505af1158015612cf6573d6000803e3d6000fd5b505050506040513d601f19601f82011682018060405250810190612d1a9190613906565b90508015612d3a5760405162461bcd60e51b815260040161010d90613dac565b6000600287606001516004811115612d4e57fe5b1415612d5b575047612ddd565b85516040516370a0823160e01b81526001600160a01b03909116906370a0823190612d8a903090600401613b71565b60206040518083038186803b158015612da257600080fd5b505afa158015612db6573d6000803e3d6000fd5b505050506040513d601f19601f82011682018060405250810190612dda9190613906565b90505b612dea61201a8285612b47565b979650505050505050565b600080612e0061313e565b6000938452602052505060409020546001600160a01b031690565b6000806000612e2a868561314b565b509150915084600014612eec576000612e438387610daf565b905060008112158015612e5c57506001600160601b0381105b612e6557600080fd5b6000612e6f6131b7565b6001600160a01b03891660009081526020919091526040902080546bffffffffffffffffffffffff19166001600160601b0393909316929092176fffffffffffffffffffffffffffffffff60601b1916600160601b6001600160801b03851602176001600160e01b0316600160e01b63ffffffff88160217909155505b95945050505050565b6000841580612f045750828510155b15612f115750600061201f565b6000612f1c88610c49565b50919350505086850390506000612f4082612f3b856305f5e1006131c4565b61321d565b90506000612f5883612f52888b612b47565b90613242565b905080612f6c57600094505050505061201f565b6000612f7c82612f528d866131c4565b9050612f8c816305f5e100613242565b9c9b505050505050505050505050565b6104b073cfeaead4947f0705a14ec42ac3d44129e1ef3ed58383612ada565b60008065ffffffffffff831115612fdb57602f612fd7846132a9565b0390505b82811c60081b179050919050565b6000613fff841115612ffa57600080fd5b64ffffffffff83111561300c57600080fd5b600882111561301a57600080fd5b5067ffff000000000000603084901b1665ffffffffff00600884901b161760ff8216179392505050565b600080826040015111801561305e57506040820151600810155b61306757600080fd5b604082015160021061307e57506020810151610a48565b60006130906001846040015103613342565b6020840151909150610805906276a700906130ab9084612b47565b906133e6565b600080610dc56007611c74565b6040516323b872dd60e01b81526001600160a01b038416906323b872dd90612b0890859030908690600401613bce565b60006130f86135b1565b3d801561310c576020811461311557600080fd5b60019250613120565b60206000833e815192505b50816104b05760405162461bcd60e51b815260040161010d90613e1d565b600080610dc56003611c74565b600080600061315985613440565b91945092509050806131685750825b8084101561317557600080fd5b61318b6131848483870361176d565b8390610daf565b91506001600160801b0382106131a057600080fd5b63ffffffff84106131b057600080fd5b9250925092565b600080610dc5600e611c74565b6000826131d357506000610dc5565b828202828482816131e057fe5b04146108055760405162461bcd60e51b81526004018080602001828103825260218152602001806140036021913960400191505060405180910390fd5b6000806132366301da9c00612f52866305f5e1006131c4565b905061118781846131c4565b6000808211613298576040805162461bcd60e51b815260206004820152601a60248201527f536166654d6174683a206469766973696f6e206279207a65726f000000000000604482015290519081900360640190fd5b8183816132a157fe5b049392505050565b6000816132b557600080fd5b600160801b82106132c857608091821c91015b600160401b82106132db57604091821c91015b64010000000082106132ef57602091821c91015b62010000821061330157601091821c91015b610100821061331257600891821c91015b6010821061332257600491821c91015b6004821061333257600291821c91015b60028210610a4857600101919050565b6000816001141561335757506276a700610a48565b816002141561336a575062ed4e00610a48565b816003141561337e57506301da9c00610a48565b816004141561339257506303b53800610a48565b81600514156133a657506309450c00610a48565b81600614156133ba575063128a1800610a48565b81600714156133ce57506325143000610a48565b60405162461bcd60e51b815260040161010d90613dcc565b600082820183811015610805576040805162461bcd60e51b815260206004820152601b60248201527f536166654d6174683a206164646974696f6e206f766572666c6f770000000000604482015290519081900360640190fd5b60008060008061344e6131b7565b6001600160a01b0395909516600090815260209590955250506040909220546001600160601b03811693600160601b82046001600160801b03169350600160e01b90910463ffffffff169150565b604051806101200160405280600061ffff16815260200160008152602001600081526020016000815260200160008152602001600081526020016000815260200160008152602001600081525090565b6040805160a08101825260008082526020820181905291810182905260608101829052608081019190915290565b6040518060800160405280606081526020016060815260200160008152602001600081525090565b6040518060c0016040528060008152602001600081526020016000815260200160008152602001600081526020016000600381111561357d57fe5b905290565b6040805160a0810182526000808252602082018190529181018290529060608201908152602001600081525090565b60405180602001604052806001906020820280368337509192915050565b80356001600160a01b0381168114610a4857600080fd5b60008083601f8401126135f7578081fd5b50813567ffffffffffffffff81111561360e578182fd5b602083019150836020808302850101111561362857600080fd5b9250929050565b600082601f83011261363f578081fd5b8151602067ffffffffffffffff8083111561365657fe5b6136638283850201613fbd565b8381528281019086840160c0808702890186018a1015613681578788fd5b875b878110156137025781838c031215613699578889fd5b6040805183810181811089821117156136ae57fe5b82528451815288850151898201528482015191810191909152606080850151908201526080808501519082015260a0906136e9828601613729565b9181019190915285529386019391810191600101613683565b50919998505050505050505050565b80516001600160701b031981168114610a4857600080fd5b805160048110610a4857600080fd5b8051610a4881613ff2565b805160ff81168114610a4857600080fd5b600080600060408486031215613768578283fd5b613771846135cf565b9250602084013567ffffffffffffffff81111561378c578283fd5b613798868287016135e6565b9497909650939450505050565b6000806000806000606086880312156137bc578081fd5b6137c5866135cf565b9450602086013567ffffffffffffffff808211156137e1578283fd5b6137ed89838a016135e6565b90965094506040880135915080821115613805578283fd5b818801915088601f830112613818578283fd5b813581811115613826578384fd5b896020828501011115613837578384fd5b9699959850939650602001949392505050565b60008060006040848603121561385e578283fd5b613867846135cf565b9250602084013567ffffffffffffffff80821115613883578384fd5b818601915086601f830112613896578384fd5b8135818111156138a4578485fd5b87602060c0830285010111156138b8578485fd5b6020830194508093505050509250925092565b6000602082840312156138dc578081fd5b813561080581613fe1565b6000602082840312156138f8578081fd5b813560078110610805578182fd5b600060208284031215613917578081fd5b5051919050565b60008060408385031215613930578182fd5b82519150602083015161394281613fe1565b809150509250929050565b600060a0828403121561395e578081fd5b60405160a0810181811067ffffffffffffffff8211171561397b57fe5b604052825164ffffffffff81168114613992578283fd5b815260208301516001600160f81b0319811681146139ae578283fd5b60208201526139bf60408401613743565b60408201526139d060608401613738565b60608201526139e160808401613711565b60808201529392505050565b600080604083850312156139ff578182fd5b825167ffffffffffffffff80821115613a16578384fd5b9084019060808287031215613a29578384fd5b604051608081018181108382111715613a3e57fe5b604052825182811115613a4f578586fd5b613a5b8882860161362f565b825250602083015182811115613a6f578586fd5b613a7b8882860161362f565b6020830152506040830151604082015260608301516060820152809450505050602083015190509250929050565b600060208284031215613aba578081fd5b813561080581613ff2565b81835260006001600160fb1b03831115613add578081fd5b6020830280836020870137939093016020019283525090919050565b6000815180845260208085019450808401835b83811015613b6657815180518852838101518489015260408082015190890152606080820151908901526080808201519089015260a0908101519060048210613b5157fe5b88015260c09096019590820190600101613b0c565b509495945050505050565b6001600160a01b0391909116815260200190565b6001600160a01b038581168252841660208201526060604082018190528101829052600082846080840137818301608090810191909152601f909201601f191601019392505050565b6001600160a01b039384168152919092166020820152604081019190915260600190565b6001600160a01b03929092168252805164ffffffffff166020808401919091528101516001600160f81b03191660408084019190915281015160ff1660608084019190915281015161ffff1660808084019190915201516001600160701b03191660a082015260c00190565b600060018060a01b038716825261ffff86166020830152608060408301528451608080840152613c92610100840182613af9565b90506020860151607f198483030160a0850152613caf8282613af9565b915050604086015160c0840152606086015160e08401528281036060840152613cd9818587613ac5565b98975050505050505050565b6001600160a01b038616815261ffff8516602082015264ffffffffff84166040820152608060608201819052600090612dea9083018486613ac5565b6001600160a01b03929092168252602082015260400190565b90815260200190565b6020808252600c908201526b155b985d5d1a1bdc9a5e995960a21b604082015260600190565b602080825260049082015263135a5b9d60e21b604082015260600190565b6020808252600b908201526a4554482042616c616e636560a81b604082015260600190565b60208082526006908201526552656465656d60d01b604082015260600190565b6020808252600d908201526c092dcecc2d8d2c840d2dcc8caf609b1b604082015260600190565b60208082526010908201526f556e736f7274656420616374696f6e7360801b604082015260600190565b602080825260059082015264045524332360dc1b604082015260600190565b6020808252601a908201527f496e73756666696369656e7420746f6b656e2062616c616e6365000000000000604082015260600190565b6020808252600e908201526d1499595b9d1c985b9d0818d85b1b60921b604082015260600190565b60208082526008908201526709ccace4086c2e6d60c31b604082015260600190565b6020808252601a908201527f496e76616c69642074726164657320666f72206163636f756e74000000000000604082015260600190565b6020808252600a90820152692732b390372a37b5b2b760b11b604082015260600190565b602080825260119082015270092dce6eaccccd2c6d2cadce840c6c2e6d607b1b604082015260600190565b61ffff929092168252602082015260400190565b6000808335601e19843603018112613f6d578283fd5b83018035915067ffffffffffffffff821115613f87578283fd5b602090810192508102360382131561362857600080fd5b6000823560de19833603018112613fb3578182fd5b9190910192915050565b60405181810167ffffffffffffffff81118282101715613fd957fe5b604052919050565b8015158114613fef57600080fd5b50565b61ffff81168114613fef57600080fdfe536166654d6174683a206d756c7469706c69636174696f6e206f766572666c6f77a26469706673582212201a50adc8a493eab03cff00a56b82395bd1838433ac78dd8075bb25fb93b795df64736f6c63430007060033","bytecodeSha1":"6939cbb1900874446d0e36f123bf6508772c4466","type":"contract","abi":[{"inputs":[{"internalType":"address","name":"account","type":"address"},{"components":[{"internalType":"enum DepositActionType","name":"actionType","type":"uint8"},{"internalType":"uint16","name":"currencyId","type":"uint16"},{"internalType":"uint256","name":"depositActionAmount","type":"uint256"},{"internalType":"uint256","name":"withdrawAmountInternalPrecision","type":"uint256"},{"internalType":"bool","name":"withdrawEntireCashBalance","type":"bool"},{"internalType":"bool","name":"redeemToUnderlying","type":"bool"}],"internalType":"struct BalanceAction[]","name":"actions","type":"tuple[]"}],"name":"batchBalanceAction","outputs":[],"stateMutability":"payable","type":"function"},{"inputs":[{"internalType":"address","name":"account","type":"address"},{"components":[{"internalType":"enum DepositActionType","name":"actionType","type":"uint8"},{"internalType":"uint16","name":"currencyId","type":"uint16"},{"internalType":"uint256","name":"depositActionAmount","type":"uint256"},{"internalType":"uint256","name":"withdrawAmountInternalPrecision","type":"uint256"},{"internalType":"bool","name":"withdrawEntireCashBalance","type":"bool"},{"internalType":"bool","name":"redeemToUnderlying","type":"bool"},{"internalType":"bytes32[]","name":"trades","type":"bytes32[]"}],"internalType":"struct BalanceActionWithTrades[]","name":"actions","type":"tuple[]"}],"name":"batchBalanceAndTradeAction","outputs":[],"stateMutability":"payable","type":"function"},{"inputs":[{"internalType":"address","name":"account","type":"address"},{"components":[{"internalType":"enum DepositActionType","name":"actionType","type":"uint8"},{"internalType":"uint16","name":"currencyId","type":"uint16"},{"internalType":"uint256","name":"depositActionAmount","type":"uint256"},{"internalType":"uint256","name":"withdrawAmountInternalPrecision","type":"uint256"},{"internalType":"bool","name":"withdrawEntireCashBalance","type":"bool"},{"internalType":"bool","name":"redeemToUnderlying","type":"bool"},{"internalType":"bytes32[]","name":"trades","type":"bytes32[]"}],"internalType":"struct BalanceActionWithTrades[]","name":"actions","type":"tuple[]"},{"internalType":"bytes","name":"callbackData","type":"bytes"}],"name":"batchBalanceAndTradeActionWithCallback","outputs":[],"stateMutability":"payable","type":"function"},{"inputs":[],"name":"owner","outputs":[{"internalType":"address","name":"","type":"address"}],"stateMutability":"view","type":"function"},{"inputs":[],"name":"pauseGuardian","outputs":[{"internalType":"address","name":"","type":"address"}],"stateMutability":"view","type":"function"},{"inputs":[],"name":"pauseRouter","outputs":[{"internalType":"address","name":"","type":"address"}],"stateMutability":"view","type":"function"}],"compiler":{"version":"0.7.6+commit.7338295f","evm_version":"istanbul","optimizer":{"enabled":true,"runs":200}},"contractName":"BatchAction","deployedBytecode":"6080604052600436106100555760003560e01c80630276b64b1461005a57806324a3d6221461006f5780635950d8e91461009a5780636e6a32a6146100ad57806382463367146100c05780638da5cb5b146100d5575b600080fd5b61006d610068366004613754565b6100ea565b005b34801561007b57600080fd5b5061008461017a565b6040516100919190613b71565b60405180910390f35b61006d6100a83660046137a5565b610189565b61006d6100bb36600461384a565b6102b9565b3480156100cc57600080fd5b5061008461043f565b3480156100e157600080fd5b5061008461044e565b6002600a5414156101165760405162461bcd60e51b815260040161010d90613e73565b60405180910390fd5b6002600a556001600160a01b03831633148061013157503330145b61014d5760405162461bcd60e51b815260040161010d90613d43565b61015683610465565b60006101638484846104b4565b905061016f848261080c565b50506001600a555050565b6002546001600160a01b031681565b3360009081526008602052604090205460ff166101b85760405162461bcd60e51b815260040161010d90613d43565b6101c185610465565b60006101ce8686866104b4565b90506101da818761088d565b60405163550d065760e11b8152339063aa1a0cae906102039083908a9088908890600401613b85565b600060405180830381600087803b15801561021d57600080fd5b505af1158015610231573d6000803e3d6000fd5b5050505060208101516001600160f81b031916156102b157604051636ccc642f60e01b815273__$841fddfe32830bb6dbc3a02d7f16c53722$__90636ccc642f90610280908990600401613b71565b60006040518083038186803b15801561029857600080fd5b505af41580156102ac573d6000803e3d6000fd5b505050505b505050505050565b6002600a5414156102dc5760405162461bcd60e51b815260040161010d90613e73565b6002600a556001600160a01b0383163314806102f757503330145b6103135760405162461bcd60e51b815260040161010d90613d43565b61031c83610465565b600061032784610991565b905061033161349c565b60005b83811015610428573685858381811061034957fe5b905060c00201905060008211156103b65785856001840381811061036957fe5b905060c0020160200160208101906103819190613aa9565b61ffff166103956040830160208401613aa9565b61ffff16116103b65760405162461bcd60e51b815260040161010d90613df3565b6103d3876103ca6040840160208501613aa9565b85919087610a4d565b6103ef87846103e560208501856138e7565b8460400135610af3565b61041f878585606085013561040a60a08701608088016138cb565b61041a60c0880160a089016138cb565b610bc6565b50600101610334565b50610433858361080c565b50506001600a55505050565b6001546001600160a01b031681565b60005464010000000090046001600160a01b031681565b6001600160a01b03811661047857600080fd5b6001600160a01b03811630141561048e57600080fd5b600061049982610c49565b5050505061ffff169050806000146104b057600080fd5b5050565b6104bc6134ec565b60006104c785610991565b90506104d161349c565b60006104e38784604001516000610cb2565b905060005b858110156107e457368787838181106104fd57fe5b905060200281019061050f9190613f9e565b9050811561057e5787876001840381811061052657fe5b90506020028101906105389190613f9e565b610549906040810190602001613aa9565b61ffff1661055d6040830160208401613aa9565b61ffff161161057e5760405162461bcd60e51b815260040161010d90613df3565b61059b896105926040840160208501613aa9565b86919088610a4d565b6105ad89856103e560208501856138e7565b60006105bc60c0830183613f57565b905011156107c05760006105cf86610d45565b156106dc576105e46040830160208401613aa9565b61ffff16866060015161ffff161461060e5760405162461bcd60e51b815260040161010d90613ebd565b6060860151865160009173__$7ac922d04bd7a1b42c7f6e5f1dd89a70af$__91633643f39b918e9161064360c0890189613f57565b6040518663ffffffff1660e01b8152600401610663959493929190613ce5565b604080518083038186803b15801561067a57600080fd5b505af415801561068e573d6000803e3d6000fd5b505050506040513d601f19601f820116820180604052508101906106b2919061391e565b909250905080156106d657602087018051600160f81b176001600160f81b03191690525b5061078f565b73__$7ac922d04bd7a1b42c7f6e5f1dd89a70af$__63b58f83ed8b6107076040860160208701613aa9565b8761071560c0880188613f57565b6040518663ffffffff1660e01b8152600401610735959493929190613c5e565b60006040518083038186803b15801561074d57600080fd5b505af4158015610761573d6000803e3d6000fd5b505050506040513d6000823e601f3d908101601f1916820160405261078991908101906139ed565b90945090505b60008112156107aa576107aa856107a583610d52565b610d60565b60608501516107b99082610daf565b6060860152505b6107db898686606085013561040a60a08701608088016138cb565b506001016104e8565b506107ee83610d45565b6107ff576107ff8388836000610dcb565b50909150505b9392505050565b610816818361088d565b60208101516001600160f81b031916156104b057604051636ccc642f60e01b815273__$841fddfe32830bb6dbc3a02d7f16c53722$__90636ccc642f90610861908590600401613b71565b60006040518083038186803b15801561087957600080fd5b505af41580156102b1573d6000803e3d6000fd5b6000610897610ead565b6001600160a01b03831660008181526020838152604080832088518154938a0151838b015160608c015160808d015160701c600160481b027affffffffffffffffffffffffffffffffffff0000000000000000001961ffff909216600160381b0268ffff000000000000001960ff94909416600160301b0266ff0000000000001960f89690961c650100000000000265ff00000000001964ffffffffff90981664ffffffffff19909b169a909a1796909616989098179390931693909317169490941716929092179091555192935090917f6bd4b121bca854a191536a2ca891155c42ee2fb23f307fb34e8bc65cfcb5412e9190a2505050565b6109996134ec565b60006109a483610eba565b90506109af81610f5b565b15610a45576040516337b5fc2160e11b815273__$f6541b0d362a0c7d99a2a29cd3d373d61b$__90636f6bf842906109ed9086908590600401613bf2565b60a06040518083038186803b158015610a0557600080fd5b505af4158015610a19573d6000803e3d6000fd5b505050506040513d601f19601f82011682018060405250810190610a3d919061394d565b915050610a48565b90505b919050565b8161ffff166000108015610a675750613fff61ffff831611155b610a7057600080fd5b61ffff8216808552610a83908290610fac565b15610ab057610a96838361ffff16611036565b61010088015260e087015260408601526020850152610ace565b6000602085018190526040850181905260e085018190526101008501525b50506000606083018190526080830181905260a0830181905260c09092019190915250565b6000610afe826110c2565b9050600080821215610b0f57600080fd5b6000846006811115610b1d57fe5b1415610b2a575050610bc0565b6001846006811115610b3857fe5b1480610b4f57506003846006811115610b4d57fe5b145b15610b6857610b6185878460006110dc565b9050610bb4565b6002846006811115610b7657fe5b1480610b8d57506004846006811115610b8b57fe5b145b15610b9d57610b6185878461118f565b6006846006811115610bab57fe5b1415610bb45750805b6102b18585848461129b565b50505050565b6000610bd1846110c2565b90506000811215610be157600080fd5b8215610c1f57610c108560800151610c0a87606001518860200151610daf90919063ffffffff16565b90610daf565b90506000811215610c1f575060005b6080850151610c2e90826114b6565b6080860152610c3f858888856114cc565b5050505050505050565b600080600080600080610c5a611737565b6001600160a01b039097166000908152602097909752505060409094205461ffff81169563ffffffff62010000830481169650600160301b830416945060ff600160501b8304169350600160581b90910460d81b9150565b610cba61351a565b610cc261351a565b60ff8416610cd1579050610805565b610cdb8585611744565b815260ff841660608201528267ffffffffffffffff81118015610cfd57600080fd5b50604051908082528060200260200182016040528015610d3757816020015b610d24613542565b815260200190600190039081610d1c5790505b506020820152949350505050565b6060015161ffff16151590565b6000610a456000198361176d565b60008112158015610d93575080610d908360800151610c0a85606001518660200151610daf90919063ffffffff16565b12155b6104b05760405162461bcd60e51b815260040161010d90613f18565b81810182811215600083121514610dc557600080fd5b92915050565b6000808080610dda86886117bb565b64ffffffffff81168c5292965090945092509050610df788610f5b565b15610e0157600080fd5b60ff8216604089015284610e2057600760ff83161115610e2057600080fd5b8315610e4357602088018051600160f81b176001600160f81b0319169052610e52565b602088018051607f60f91b1690525b610e5f88608001516119fa565b6001600160701b031916608089015260005b8315610ea25760f084901c818114610e9457610e948a826001600160ff1b611a75565b60109490941b939050610e71565b505050505050505050565b600080610dc56001611c74565b610ec26134ec565b6000610ecc610ead565b6001600160a01b039390931660009081526020938452604090819020815160a081018352905464ffffffffff8116825265010000000000810460f81b6001600160f81b03191695820195909552600160301b850460ff1691810191909152600160381b840461ffff166060820152600160481b90930460701b6001600160701b03191660808401525090919050565b600042610f6783610d45565b15610f8857610f7581611c8d565b835164ffffffffff16109150610a489050565b825164ffffffffff1615801590610a3d5750825164ffffffffff1611159050610a48565b60008115801590610fbf5750613fff8211155b610fc857600080fd5b6080830151606084015161ffff16831415610fe7576001915050610dc5565b6001600160701b031981161561102c5760f081901c613fff16838114156110195750600160fe1b908116149050610dc5565b5060101b6001600160801b031916610fe7565b5060009392505050565b6000806000806000611046611cab565b6001600160a01b0388166000908152602082815260408083208a84529091529020805469ffffffffffffffffffff81169650600160501b810463ffffffff169550919250906110a490600160701b900466ffffffffffffff16611cb8565b9054600160a81b9004600a90810b900b989497509295509193505050565b60006001600160ff1b038211156110d857600080fd5b5090565b6000826110eb57506000611187565b600083136110f857600080fd5b600061110b866000015161ffff16611cc6565b905060006111198286611cd9565b90508160200151806111285750835b1561116757600061113a838888611d0f565b90506111468382611cd9565b60608901519092506111589083610daf565b60608901525091506111879050565b60808701516111769082610daf565b608088015291506111879050565b50505b949350505050565b60008161119e57506000610805565b600082136111ab57600080fd5b60006111be856000015161ffff16611db3565b90506003816060015160048111156111d257fe5b14156111fc573483146111f75760405162461bcd60e51b815260040161010d90613d87565b61120a565b611207818585611d0f565b92505b600061121d866000015161ffff16611cc6565b905060018160600151600481111561123157fe5b148061124c575060028160600151600481111561124a57fe5b145b61125557600080fd5b600061126a61126386611dc6565b8390611dd5565b905060006112788383611cd9565b606089015190915061128a9082610daf565b606089015293505050509392505050565b60038360068111156112a957fe5b14806112c0575060048360068111156112be57fe5b145b806112d6575060068360068111156112d457fe5b145b156113a2576112e58482610d60565b60608401516112f490826114b6565b60608501528351604051632128561360e11b815260009173__$892f367d396be2b92d3b049e6e62920984$__91634250ac2691611335918690600401613f43565b60206040518083038186803b15801561134d57600080fd5b505af4158015611361573d6000803e3d6000fd5b505050506040513d601f19601f820116820180604052508101906113859190613906565b60c08601519091506113979082610daf565b60c086015250610bc0565b60058360068111156113b057fe5b1415610bc057816113da8560c00151610c0a8760a001518860400151610daf90919063ffffffff16565b12156113f85760405162461bcd60e51b815260040161010d90613e3c565b60c084015161140790836114b6565b60c085015283516040516352e73f7760e01b815260009173__$43fd92ea4ea9b72ca0014644dbfd757564$__916352e73f7791611448918790600401613f43565b60206040518083038186803b15801561146057600080fd5b505af4158015611474573d6000803e3d6000fd5b505050506040513d601f19601f820116820180604052508101906114989190613906565b60608601519091506114aa9082610daf565b60608601525050505050565b80820382811315600083121514610dc557600080fd5b60008060008660a00151121561151f5760006115018760a00151610c0a8960c001518a60400151610daf90919063ffffffff16565b121561151f5760405162461bcd60e51b815260040161010d90613ef4565b60008660800151121561156f5760006115518760800151610c0a89606001518a60200151610daf90919063ffffffff16565b121561156f5760405162461bcd60e51b815260040161010d90613e9b565b61157a868685612029565b60808801819052606088015191935060009161159591610daf565b905080156116025760208701516115ac9082610daf565b602088015286516040516001935061ffff909116906001600160a01b038816907f5441e4a5fac93a951d782e6f1cdb82e95c8fc58561a013953d17e395c5e69b4b906115f9908590613d3a565b60405180910390a35b60a0870151151580611617575060c087015115155b156116ad5761162687876120fe565b5061164a8760c00151610c0a8960a001518a60400151610daf90919063ffffffff16565b604088015260c0870151156116a857866000015161ffff16866001600160a01b03167f412bc13d202a2ea5119e55fec9c5e420dddb18faf186373ad9795ad4f4545aa98960c0015160405161169f9190613d3a565b60405180910390a35b600191505b81156116da576116da86886000015161ffff1689602001518a604001518b60e001518c610100015161216f565b865160208801516117079161ffff16901515806116fa5750604089015115155b879190600160fe1b611a75565b6000876020015112156111845750506020929092018051600160f91b176001600160f81b03191690525092915050565b600080610dc56002611c74565b606060006117528484612293565b90506001815111611764579050610dc5565b610805816123b5565b81810260001983141561179d5781158061178f57508282828161178c57fe5b05145b61179857600080fd5b610dc5565b8215806117b25750818382816117af57fe5b05145b610dc557600080fd5b6000808080808080805b89515181101561184c5760008a6000015182815181106117e157fe5b602002602001015190506003808111156117f757fe5b8160a00151600381111561180757fe5b141561181257600080fd5b60028160a00151600381111561182457fe5b1415801561183457506060810151155b15611843576118438b8361256e565b506001016117c5565b5060005b8951518110156118ef5760008a60000151828151811061186c57fe5b602002602001015190506002600381111561188357fe5b8160a00151600381111561189357fe5b14156118a7576080810151600090556118e6565b60018160a0015160038111156118b957fe5b14156118d2576080810151806118cf83826126bd565b50505b6118de818686866127ee565b919650945092505b50600101611850565b50606089015160006118ff612851565b6001600160a01b038b1660009081526020829052604081209192505b8c60200151518110156119c95760008d60200151828151811061193a57fe5b6020026020010151905080606001516000141561195757506119c1565b60028160a00151600381111561196957fe5b14158015611987575060038160a00151600381111561198457fe5b14155b61199057600080fd5b61199c818989896127ee565b919950975095506119b9818487601081106119b357fe5b016126bd565b600185019450505b60010161191b565b50601083111580156119e0575064ffffffffff8411155b6119e957600080fd5b50939a929950975095509350505050565b6000807f7fff7fff7fff7fff7fff7fff7fff7fff7fff00000000000000000000000000008316815b6001600160701b0319821615611a6c57600160fe1b8281161415611a56576001600160f01b03198216811c92909217916010015b6010826001600160701b031916901b9150611a22565b50909392505050565b826000108015611a875750613fff8311155b611a9057600080fd5b818015611aa4575082846060015161ffff16145b15611aae57610bc0565b6080840151600090815b6001600160701b0319821615611c295760f082901c613fff168681148015611add5750855b15611b1557506080870180516001600160f01b0319861660109093029290921c919091176001600160701b031916905250610bc09050565b8681148015611b22575085155b15611b77576001600160f01b03198516199290921691600360fe1b8316611b55576010836001600160701b031916901b92505b506001600160701b031991821660109091021c91909117166080850152610bc0565b8681118015611b835750855b15611bdd576080888101516001600160f01b031960f08a901b88178116601086021c9690961795911b1615611bb757600080fd5b506001600160701b03199182166001919091016010021c91909117166080850152610bc0565b8681118015611bea575085155b15611bf85750505050610bc0565b506001600160f01b0319821660108281029190911c93909317929190911b6001600160801b03191690600101611ab8565b84611c3657505050610bc0565b60098110611c4357600080fd5b6001600160f01b031960f087901b85171660109091021c919091176001600160701b03191660808601525050505050565b6000620f4240826010811115611c8657fe5b0192915050565b600062015180821015611c9f57600080fd5b50620151808106900390565b600080610dc56006611c74565b600881901c60ff9091161b90565b611cce613582565b610a4582600061285e565b60006305f5e10083604001511415611cf2575080610dc5565b604083015161080590611d09846305f5e10061176d565b9061290c565b600080821315611d2b57611d2484848461293d565b9150611dac565b600384606001516004811115611d3d57fe5b1415611d97576000821315611d5157600080fd5b826001600160a01b0381166108fc611d6885610d52565b6040518115909202916000818181858888f19350505050158015611d90573d6000803e3d6000fd5b5050611dac565b8351611dac9084611da785610d52565b612ada565b5092915050565b611dbb613582565b610a4582600161285e565b6000808212156110d857600080fd5b60008083600001516001600160a01b03166370a08231306040518263ffffffff1660e01b8152600401611e089190613b71565b60206040518083038186803b158015611e2057600080fd5b505afa158015611e34573d6000803e3d6000fd5b505050506040513d601f19601f82011682018060405250810190611e589190613906565b90506000600185606001516004811115611e6e57fe5b1415611efc57845160405163140e25ad60e31b81526001600160a01b039091169063a0712d6890611ea3908790600401613d3a565b602060405180830381600087803b158015611ebd57600080fd5b505af1158015611ed1573d6000803e3d6000fd5b505050506040513d601f19601f82011682018060405250810190611ef59190613906565b9050611f6d565b600285606001516004811115611f0e57fe5b14156100555784600001516001600160a01b0316631249c58b346040518263ffffffff1660e01b81526004016000604051808303818588803b158015611f5357600080fd5b505af1158015611f67573d6000803e3d6000fd5b50505050505b8015611f8b5760405162461bcd60e51b815260040161010d90613d69565b84516040516370a0823160e01b81526000916001600160a01b0316906370a0823190611fbb903090600401613b71565b60206040518083038186803b158015611fd357600080fd5b505afa158015611fe7573d6000803e3d6000fd5b505050506040513d601f19601f8201168201806040525081019061200b9190613906565b905061201f61201a8285612b47565b6110c2565b9695505050505050565b600080600061203f866000015161ffff16611cc6565b9050600061205a876080015183612ba490919063ffffffff16565b90508061206f576000809350935050506120f6565b84801561207c5750600081125b156120d9576000612094886000015161ffff16611db3565b905060006120ad826120a585610d52565b869190612bdc565b90506120c4886120bc83610d52565b849190611d0f565b95506120d08484611cd9565b945050506120f3565b6120e4828783611d0f565b93506120f08285611cd9565b92505b50505b935093915050565b8151600090429082906121149061ffff16612df5565b90506000612127828760c0015185612e1b565b9050600061214e8361213c8960400151611dc6565b8960e001518a61010001518887612ef5565b60e0880185905261010088018390529050801561201f5761201f8682612f9c565b6000612179611cab565b6001600160a01b0388166000908152602082815260408083208a845290915290209091506a7fffffffffffffffffffff1986128015906121c457506a7fffffffffffffffffffff8613155b6121cd57600080fd5b600085121580156121e8575069ffffffffffffffffffff8513155b6121f157600080fd5b63ffffffff84111561220257600080fd5b805469ffffffffffffffffffff191669ffffffffffffffffffff86161763ffffffff60501b1916600160501b63ffffffff861602176001600160a81b0316600160a81b6affffffffffffffffffffff600a89900b160217815561226483612fbb565b815466ffffffffffffff91909116600160701b0266ffffffffffffff60701b1990911617905550505050505050565b606060108260ff1611156122a657600080fd5b60006122b0612851565b6001600160a01b038516600090815260208290526040812091925060ff851667ffffffffffffffff811180156122e557600080fd5b5060405190808252806020026020018201604052801561231f57816020015b61230c613542565b8152602001906001900390816123045790505b50905060005b8560ff168110156123ab57600083826010811061233e57fe5b019050600083838151811061234f57fe5b602090810291909101810151835461ffff8116825264ffffffffff620100008204169282019290925260ff600160381b8304166040820152600160401b909104600a90810b900b60608201526080019190915250600101612325565b5095945050505050565b805160008167ffffffffffffffff811180156123d057600080fd5b506040519080825280602002602001820160405280156123fa578160200160208202803683370190505b50905060005b8281101561245757600084828151811061241657fe5b60200260200101519050612437816000015182602001518360400151612fe9565b83838151811061244357fe5b602090810291909101015250600101612400565b5060015b82811015610bc057805b60008111801561249d575082818151811061247c57fe5b602002602001015183600183038151811061249357fe5b6020026020010151115b15612565578281815181106124ae57fe5b60200260200101518360018303815181106124c557fe5b60200260200101518460018403815181106124dc57fe5b602002602001018584815181106124ef57fe5b602002602001018281525082815250505084818151811061250c57fe5b602002602001015185600183038151811061252357fe5b602002602001015186600184038151811061253a57fe5b6020026020010187848151811061254d57fe5b60209081029190910101919091525260001901612465565b5060010161245b565b815151811061257c57600080fd5b600082606001511161258d57600080fd5b60008260000151828151811061259f57fe5b60200260200101519050600260038111156125b657fe5b8160a0015160038111156125c657fe5b141580156125e4575060038160a0015160038111156125e157fe5b14155b6125ed57600080fd5b606083018051600019019052600080805b8551518110156126605760008660000151828151811061261a57fe5b60200260200101519050828160800151118015612647575060028160a00151600381111561264457fe5b14155b1561265757806080015192508193505b506001016125fe565b5081841415612679575050600260a091909101526104b0565b60008560000151838151811061268b57fe5b602090810291909101015160808581018051918301805190915252600160a09182015260029401939093525050505050565b8151158015906126d057508151613fff10155b6126d957600080fd5b816020015160001080156126f65750602082015164ffffffffff10155b6126ff57600080fd5b8160400151600010801561271857506040820151600810155b61272157600080fd5b60608201516a7fffffffffffffffffffff1913801590612750575060608201516a7fffffffffffffffffffff12155b61275957600080fd5b8151815460208401516040850151606090950151600a0b6affffffffffffffffffffff16600160401b0272ffffffffffffffffffffff00000000000000001960ff909616600160381b0267ff000000000000001964ffffffffff909316620100000266ffffffffff00001961ffff90961661ffff19909516949094179490941692909217169190911792909216919091179055565b6000806000806127fd88613044565b905084158061280b57508085115b15612814578094505b8680612824575060008860600151125b965061ffff86161561283557600080fd5b50509451939560109390931c60f09490941b9390931793509150565b600080610dc5600d611c74565b612866613582565b60006128706130b1565b6000858152602082815260408083208715158452825291829020825160a08101845281546001600160a01b038116825260ff600160a01b82048116151594830194909452600160b01b81048416600a0a9482019490945293945092916060830191600160a81b9091041660048111156128e557fe5b81529154600160b81b900468ffffffffffffffffff16602090920191909152949350505050565b6000816000191480156129225750600160ff1b83145b1561292c57600080fd5b81838161293557fe5b059392505050565b60008060008560200151156129ce5785516040516370a0823160e01b81526001600160a01b03909116906370a082319061297b903090600401613b71565b60206040518083038186803b15801561299357600080fd5b505afa1580156129a7573d6000803e3d6000fd5b505050506040513d601f19601f820116820180604052508101906129cb9190613906565b91505b85516129db9086866130be565b8560200151806129ef575060008660800151115b15612a765785516040516370a0823160e01b81526001600160a01b03909116906370a0823190612a23903090600401613b71565b60206040518083038186803b158015612a3b57600080fd5b505afa158015612a4f573d6000803e3d6000fd5b505050506040513d601f19601f82011682018060405250810190612a739190613906565b90505b608086015115612ab1576000612a9487612a8f846110c2565b611cd9565b9050612aa387608001516110c2565b811315612aaf57600080fd5b505b856020015115612ad157612ac861201a8284612b47565b92505050610805565b612ac8846110c2565b60405163a9059cbb60e01b81526001600160a01b0384169063a9059cbb90612b089085908590600401613d21565b600060405180830381600087803b158015612b2257600080fd5b505af1158015612b36573d6000803e3d6000fd5b50505050612b426130ee565b505050565b600082821115612b9e576040805162461bcd60e51b815260206004820152601e60248201527f536166654d6174683a207375627472616374696f6e206f766572666c6f770000604482015290519081900360640190fd5b50900390565b60006305f5e10083604001511415612bbd575080610dc5565b6108056305f5e100611d0985604001518561176d90919063ffffffff16565b600080600285606001516004811115612bf157fe5b1415612bfe575047612c98565b600185606001516004811115612c1057fe5b14156100555783516040516370a0823160e01b81526001600160a01b03909116906370a0823190612c45903090600401613b71565b60206040518083038186803b158015612c5d57600080fd5b505afa158015612c71573d6000803e3d6000fd5b505050506040513d601f19601f82011682018060405250810190612c959190613906565b90505b845160405163db006a7560e01b81526000916001600160a01b03169063db006a7590612cc8908790600401613d3a565b602060405180830381600087803b158015612ce257600080fd5b505af1158015612cf6573d6000803e3d6000fd5b505050506040513d601f19601f82011682018060405250810190612d1a9190613906565b90508015612d3a5760405162461bcd60e51b815260040161010d90613dac565b6000600287606001516004811115612d4e57fe5b1415612d5b575047612ddd565b85516040516370a0823160e01b81526001600160a01b03909116906370a0823190612d8a903090600401613b71565b60206040518083038186803b158015612da257600080fd5b505afa158015612db6573d6000803e3d6000fd5b505050506040513d601f19601f82011682018060405250810190612dda9190613906565b90505b612dea61201a8285612b47565b979650505050505050565b600080612e0061313e565b6000938452602052505060409020546001600160a01b031690565b6000806000612e2a868561314b565b509150915084600014612eec576000612e438387610daf565b905060008112158015612e5c57506001600160601b0381105b612e6557600080fd5b6000612e6f6131b7565b6001600160a01b03891660009081526020919091526040902080546bffffffffffffffffffffffff19166001600160601b0393909316929092176fffffffffffffffffffffffffffffffff60601b1916600160601b6001600160801b03851602176001600160e01b0316600160e01b63ffffffff88160217909155505b95945050505050565b6000841580612f045750828510155b15612f115750600061201f565b6000612f1c88610c49565b50919350505086850390506000612f4082612f3b856305f5e1006131c4565b61321d565b90506000612f5883612f52888b612b47565b90613242565b905080612f6c57600094505050505061201f565b6000612f7c82612f528d866131c4565b9050612f8c816305f5e100613242565b9c9b505050505050505050505050565b6104b073cfeaead4947f0705a14ec42ac3d44129e1ef3ed58383612ada565b60008065ffffffffffff831115612fdb57602f612fd7846132a9565b0390505b82811c60081b179050919050565b6000613fff841115612ffa57600080fd5b64ffffffffff83111561300c57600080fd5b600882111561301a57600080fd5b5067ffff000000000000603084901b1665ffffffffff00600884901b161760ff8216179392505050565b600080826040015111801561305e57506040820151600810155b61306757600080fd5b604082015160021061307e57506020810151610a48565b60006130906001846040015103613342565b6020840151909150610805906276a700906130ab9084612b47565b906133e6565b600080610dc56007611c74565b6040516323b872dd60e01b81526001600160a01b038416906323b872dd90612b0890859030908690600401613bce565b60006130f86135b1565b3d801561310c576020811461311557600080fd5b60019250613120565b60206000833e815192505b50816104b05760405162461bcd60e51b815260040161010d90613e1d565b600080610dc56003611c74565b600080600061315985613440565b91945092509050806131685750825b8084101561317557600080fd5b61318b6131848483870361176d565b8390610daf565b91506001600160801b0382106131a057600080fd5b63ffffffff84106131b057600080fd5b9250925092565b600080610dc5600e611c74565b6000826131d357506000610dc5565b828202828482816131e057fe5b04146108055760405162461bcd60e51b81526004018080602001828103825260218152602001806140036021913960400191505060405180910390fd5b6000806132366301da9c00612f52866305f5e1006131c4565b905061118781846131c4565b6000808211613298576040805162461bcd60e51b815260206004820152601a60248201527f536166654d6174683a206469766973696f6e206279207a65726f000000000000604482015290519081900360640190fd5b8183816132a157fe5b049392505050565b6000816132b557600080fd5b600160801b82106132c857608091821c91015b600160401b82106132db57604091821c91015b64010000000082106132ef57602091821c91015b62010000821061330157601091821c91015b610100821061331257600891821c91015b6010821061332257600491821c91015b6004821061333257600291821c91015b60028210610a4857600101919050565b6000816001141561335757506276a700610a48565b816002141561336a575062ed4e00610a48565b816003141561337e57506301da9c00610a48565b816004141561339257506303b53800610a48565b81600514156133a657506309450c00610a48565b81600614156133ba575063128a1800610a48565b81600714156133ce57506325143000610a48565b60405162461bcd60e51b815260040161010d90613dcc565b600082820183811015610805576040805162461bcd60e51b815260206004820152601b60248201527f536166654d6174683a206164646974696f6e206f766572666c6f770000000000604482015290519081900360640190fd5b60008060008061344e6131b7565b6001600160a01b0395909516600090815260209590955250506040909220546001600160601b03811693600160601b82046001600160801b03169350600160e01b90910463ffffffff169150565b604051806101200160405280600061ffff16815260200160008152602001600081526020016000815260200160008152602001600081526020016000815260200160008152602001600081525090565b6040805160a08101825260008082526020820181905291810182905260608101829052608081019190915290565b6040518060800160405280606081526020016060815260200160008152602001600081525090565b6040518060c0016040528060008152602001600081526020016000815260200160008152602001600081526020016000600381111561357d57fe5b905290565b6040805160a0810182526000808252602082018190529181018290529060608201908152602001600081525090565b60405180602001604052806001906020820280368337509192915050565b80356001600160a01b0381168114610a4857600080fd5b60008083601f8401126135f7578081fd5b50813567ffffffffffffffff81111561360e578182fd5b602083019150836020808302850101111561362857600080fd5b9250929050565b600082601f83011261363f578081fd5b8151602067ffffffffffffffff8083111561365657fe5b6136638283850201613fbd565b8381528281019086840160c0808702890186018a1015613681578788fd5b875b878110156137025781838c031215613699578889fd5b6040805183810181811089821117156136ae57fe5b82528451815288850151898201528482015191810191909152606080850151908201526080808501519082015260a0906136e9828601613729565b9181019190915285529386019391810191600101613683565b50919998505050505050505050565b80516001600160701b031981168114610a4857600080fd5b805160048110610a4857600080fd5b8051610a4881613ff2565b805160ff81168114610a4857600080fd5b600080600060408486031215613768578283fd5b613771846135cf565b9250602084013567ffffffffffffffff81111561378c578283fd5b613798868287016135e6565b9497909650939450505050565b6000806000806000606086880312156137bc578081fd5b6137c5866135cf565b9450602086013567ffffffffffffffff808211156137e1578283fd5b6137ed89838a016135e6565b90965094506040880135915080821115613805578283fd5b818801915088601f830112613818578283fd5b813581811115613826578384fd5b896020828501011115613837578384fd5b9699959850939650602001949392505050565b60008060006040848603121561385e578283fd5b613867846135cf565b9250602084013567ffffffffffffffff80821115613883578384fd5b818601915086601f830112613896578384fd5b8135818111156138a4578485fd5b87602060c0830285010111156138b8578485fd5b6020830194508093505050509250925092565b6000602082840312156138dc578081fd5b813561080581613fe1565b6000602082840312156138f8578081fd5b813560078110610805578182fd5b600060208284031215613917578081fd5b5051919050565b60008060408385031215613930578182fd5b82519150602083015161394281613fe1565b809150509250929050565b600060a0828403121561395e578081fd5b60405160a0810181811067ffffffffffffffff8211171561397b57fe5b604052825164ffffffffff81168114613992578283fd5b815260208301516001600160f81b0319811681146139ae578283fd5b60208201526139bf60408401613743565b60408201526139d060608401613738565b60608201526139e160808401613711565b60808201529392505050565b600080604083850312156139ff578182fd5b825167ffffffffffffffff80821115613a16578384fd5b9084019060808287031215613a29578384fd5b604051608081018181108382111715613a3e57fe5b604052825182811115613a4f578586fd5b613a5b8882860161362f565b825250602083015182811115613a6f578586fd5b613a7b8882860161362f565b6020830152506040830151604082015260608301516060820152809450505050602083015190509250929050565b600060208284031215613aba578081fd5b813561080581613ff2565b81835260006001600160fb1b03831115613add578081fd5b6020830280836020870137939093016020019283525090919050565b6000815180845260208085019450808401835b83811015613b6657815180518852838101518489015260408082015190890152606080820151908901526080808201519089015260a0908101519060048210613b5157fe5b88015260c09096019590820190600101613b0c565b509495945050505050565b6001600160a01b0391909116815260200190565b6001600160a01b038581168252841660208201526060604082018190528101829052600082846080840137818301608090810191909152601f909201601f191601019392505050565b6001600160a01b039384168152919092166020820152604081019190915260600190565b6001600160a01b03929092168252805164ffffffffff166020808401919091528101516001600160f81b03191660408084019190915281015160ff1660608084019190915281015161ffff1660808084019190915201516001600160701b03191660a082015260c00190565b600060018060a01b038716825261ffff86166020830152608060408301528451608080840152613c92610100840182613af9565b90506020860151607f198483030160a0850152613caf8282613af9565b915050604086015160c0840152606086015160e08401528281036060840152613cd9818587613ac5565b98975050505050505050565b6001600160a01b038616815261ffff8516602082015264ffffffffff84166040820152608060608201819052600090612dea9083018486613ac5565b6001600160a01b03929092168252602082015260400190565b90815260200190565b6020808252600c908201526b155b985d5d1a1bdc9a5e995960a21b604082015260600190565b602080825260049082015263135a5b9d60e21b604082015260600190565b6020808252600b908201526a4554482042616c616e636560a81b604082015260600190565b60208082526006908201526552656465656d60d01b604082015260600190565b6020808252600d908201526c092dcecc2d8d2c840d2dcc8caf609b1b604082015260600190565b60208082526010908201526f556e736f7274656420616374696f6e7360801b604082015260600190565b602080825260059082015264045524332360dc1b604082015260600190565b6020808252601a908201527f496e73756666696369656e7420746f6b656e2062616c616e6365000000000000604082015260600190565b6020808252600e908201526d1499595b9d1c985b9d0818d85b1b60921b604082015260600190565b60208082526008908201526709ccace4086c2e6d60c31b604082015260600190565b6020808252601a908201527f496e76616c69642074726164657320666f72206163636f756e74000000000000604082015260600190565b6020808252600a90820152692732b390372a37b5b2b760b11b604082015260600190565b602080825260119082015270092dce6eaccccd2c6d2cadce840c6c2e6d607b1b604082015260600190565b61ffff929092168252602082015260400190565b6000808335601e19843603018112613f6d578283fd5b83018035915067ffffffffffffffff821115613f87578283fd5b602090810192508102360382131561362857600080fd5b6000823560de19833603018112613fb3578182fd5b9190910192915050565b60405181810167ffffffffffffffff81118282101715613fd957fe5b604052919050565b8015158114613fef57600080fd5b50565b61ffff81168114613fef57600080fdfe536166654d6174683a206d756c7469706c69636174696f6e206f766572666c6f77a26469706673582212201a50adc8a493eab03cff00a56b82395bd1838433ac78dd8075bb25fb93b795df64736f6c63430007060033","language":"Solidity","natspec":{"methods":{"batchBalanceAction(address,(uint8,uint16,uint256,uint256,bool,bool)[])":{"notice":"Executes a batch of balance transfers including minting and redeeming nTokens.","details":"emit:CashBalanceChange, emit:nTokenSupplyChangeauth:msg.sender auth:ERC1155","params":{"account":"the account for the action","actions":"array of balance actions to take, must be sorted by currency id"}},"batchBalanceAndTradeAction(address,(uint8,uint16,uint256,uint256,bool,bool,bytes32[])[])":{"notice":"Executes a batch of balance transfers and trading actions","details":"emit:CashBalanceChange, emit:nTokenSupplyChange, emit:LendBorrowTrade, emit:AddRemoveLiquidity,emit:SettledCashDebt, emit:nTokenResidualPurchase, emit:ReserveFeeAccruedauth:msg.sender auth:ERC1155","params":{"account":"the account for the action","actions":"array of balance actions with trades to take, must be sorted by currency id"}},"batchBalanceAndTradeActionWithCallback(address,(uint8,uint16,uint256,uint256,bool,bool,bytes32[])[],bytes)":{"notice":"Executes a batch of balance transfers and trading actions via an authorized callback contract. This can be used as a \"flash loan\" facility for special contracts that migrate assets between protocols or perform other actions on behalf of the user. Contracts can borrow from Notional and receive a callback prior to an FC check, this can be useful if the contract needs to perform a trade or repay a debt on a different protocol before depositing collateral. Since Notional's AMM will never be as capital efficient or gas efficient as other flash loan facilities, this method requires whitelisting and will mainly be used for contracts that make migrating assets a better user experience.","details":"emit:CashBalanceChange, emit:nTokenSupplyChange, emit:LendBorrowTrade, emit:AddRemoveLiquidity,emit:SettledCashDebt, emit:nTokenResidualPurchase, emit:ReserveFeeAccruedauth:authorizedCallbackContract","params":{"account":"the account that will take all the actions","actions":"array of balance actions with trades to take, must be sorted by currency id","callbackData":"arbitrary bytes to be passed backed to the caller in the callback"}}},"kind":"dev","version":1},"opcodes":"PUSH1 0x80 PUSH1 0x40 MSTORE PUSH1 0x4 CALLDATASIZE LT PUSH2 0x55 JUMPI PUSH1 0x0 CALLDATALOAD PUSH1 0xE0 SHR DUP1 PUSH4 0x276B64B EQ PUSH2 0x5A JUMPI DUP1 PUSH4 0x24A3D622 EQ PUSH2 0x6F JUMPI DUP1 PUSH4 0x5950D8E9 EQ PUSH2 0x9A JUMPI DUP1 PUSH4 0x6E6A32A6 EQ PUSH2 0xAD JUMPI DUP1 PUSH4 0x82463367 EQ PUSH2 0xC0 JUMPI DUP1 PUSH4 0x8DA5CB5B EQ PUSH2 0xD5 JUMPI JUMPDEST PUSH1 0x0 DUP1 REVERT JUMPDEST PUSH2 0x6D PUSH2 0x68 CALLDATASIZE PUSH1 0x4 PUSH2 0x3754 JUMP JUMPDEST PUSH2 0xEA JUMP JUMPDEST STOP JUMPDEST CALLVALUE DUP1 ISZERO PUSH2 0x7B JUMPI PUSH1 0x0 DUP1 REVERT JUMPDEST POP PUSH2 0x84 PUSH2 0x17A JUMP JUMPDEST PUSH1 0x40 MLOAD PUSH2 0x91 SWAP2 SWAP1 PUSH2 0x3B71 JUMP JUMPDEST PUSH1 0x40 MLOAD DUP1 SWAP2 SUB SWAP1 RETURN JUMPDEST PUSH2 0x6D PUSH2 0xA8 CALLDATASIZE PUSH1 0x4 PUSH2 0x37A5 JUMP JUMPDEST PUSH2 0x189 JUMP JUMPDEST PUSH2 0x6D PUSH2 0xBB CALLDATASIZE PUSH1 0x4 PUSH2 0x384A JUMP JUMPDEST PUSH2 0x2B9 JUMP JUMPDEST CALLVALUE DUP1 ISZERO PUSH2 0xCC JUMPI PUSH1 0x0 DUP1 REVERT JUMPDEST POP PUSH2 0x84 PUSH2 0x43F JUMP JUMPDEST CALLVALUE DUP1 ISZERO PUSH2 0xE1 JUMPI PUSH1 0x0 DUP1 REVERT JUMPDEST POP PUSH2 0x84 PUSH2 0x44E JUMP JUMPDEST PUSH1 0x2 PUSH1 0xA SLOAD EQ ISZERO PUSH2 0x116 JUMPI PUSH1 0x40 MLOAD PUSH3 0x461BCD PUSH1 0xE5 SHL DUP2 MSTORE PUSH1 0x4 ADD PUSH2 0x10D SWAP1 PUSH2 0x3E73 JUMP JUMPDEST PUSH1 0x40 MLOAD DUP1 SWAP2 SUB SWAP1 REVERT JUMPDEST PUSH1 0x2 PUSH1 0xA SSTORE PUSH1 0x1 PUSH1 0x1 PUSH1 0xA0 SHL SUB DUP4 AND CALLER EQ DUP1 PUSH2 0x131 JUMPI POP CALLER ADDRESS EQ JUMPDEST PUSH2 0x14D JUMPI PUSH1 0x40 MLOAD PUSH3 0x461BCD PUSH1 0xE5 SHL DUP2 MSTORE PUSH1 0x4 ADD PUSH2 0x10D SWAP1 PUSH2 0x3D43 JUMP JUMPDEST PUSH2 0x156 DUP4 PUSH2 0x465 JUMP JUMPDEST PUSH1 0x0 PUSH2 0x163 DUP5 DUP5 DUP5 PUSH2 0x4B4 JUMP JUMPDEST SWAP1 POP PUSH2 0x16F DUP5 DUP3 PUSH2 0x80C JUMP JUMPDEST POP POP PUSH1 0x1 PUSH1 0xA SSTORE POP POP JUMP JUMPDEST PUSH1 0x2 SLOAD PUSH1 0x1 PUSH1 0x1 PUSH1 0xA0 SHL SUB AND DUP2 JUMP JUMPDEST CALLER PUSH1 0x0 SWAP1 DUP2 MSTORE PUSH1 0x8 PUSH1 0x20 MSTORE PUSH1 0x40 SWAP1 KECCAK256 SLOAD PUSH1 0xFF AND PUSH2 0x1B8 JUMPI PUSH1 0x40 MLOAD PUSH3 0x461BCD PUSH1 0xE5 SHL DUP2 MSTORE PUSH1 0x4 ADD PUSH2 0x10D SWAP1 PUSH2 0x3D43 JUMP JUMPDEST PUSH2 0x1C1 DUP6 PUSH2 0x465 JUMP JUMPDEST PUSH1 0x0 PUSH2 0x1CE DUP7 DUP7 DUP7 PUSH2 0x4B4 JUMP JUMPDEST SWAP1 POP PUSH2 0x1DA DUP2 DUP8 PUSH2 0x88D JUMP JUMPDEST PUSH1 0x40 MLOAD PUSH4 0x550D0657 PUSH1 0xE1 SHL DUP2 MSTORE CALLER SWAP1 PUSH4 0xAA1A0CAE SWAP1 PUSH2 0x203 SWAP1 DUP4 SWAP1 DUP11 SWAP1 DUP9 SWAP1 DUP9 SWAP1 PUSH1 0x4 ADD PUSH2 0x3B85 JUMP JUMPDEST PUSH1 0x0 PUSH1 0x40 MLOAD DUP1 DUP4 SUB DUP2 PUSH1 0x0 DUP8 DUP1 EXTCODESIZE ISZERO DUP1 ISZERO PUSH2 0x21D JUMPI PUSH1 0x0 DUP1 REVERT JUMPDEST POP GAS CALL ISZERO DUP1 ISZERO PUSH2 0x231 JUMPI RETURNDATASIZE PUSH1 0x0 DUP1 RETURNDATACOPY RETURNDATASIZE PUSH1 0x0 REVERT JUMPDEST POP POP POP POP PUSH1 0x20 DUP2 ADD MLOAD PUSH1 0x1 PUSH1 0x1 PUSH1 0xF8 SHL SUB NOT AND ISZERO PUSH2 0x2B1 JUMPI PUSH1 0x40 MLOAD PUSH4 0x6CCC642F PUSH1 0xE0 SHL DUP2 MSTORE PUSH20 0x0 SWAP1 PUSH4 0x6CCC642F SWAP1 PUSH2 0x280 SWAP1 DUP10 SWAP1 PUSH1 0x4 ADD PUSH2 0x3B71 JUMP JUMPDEST PUSH1 0x0 PUSH1 0x40 MLOAD DUP1 DUP4 SUB DUP2 DUP7 DUP1 EXTCODESIZE ISZERO DUP1 ISZERO PUSH2 0x298 JUMPI PUSH1 0x0 DUP1 REVERT JUMPDEST POP GAS DELEGATECALL ISZERO DUP1 ISZERO PUSH2 0x2AC JUMPI RETURNDATASIZE PUSH1 0x0 DUP1 RETURNDATACOPY RETURNDATASIZE PUSH1 0x0 REVERT JUMPDEST POP POP POP POP JUMPDEST POP POP POP POP POP POP JUMP JUMPDEST PUSH1 0x2 PUSH1 0xA SLOAD EQ ISZERO PUSH2 0x2DC JUMPI PUSH1 0x40 MLOAD PUSH3 0x461BCD PUSH1 0xE5 SHL DUP2 MSTORE PUSH1 0x4 ADD PUSH2 0x10D SWAP1 PUSH2 0x3E73 JUMP JUMPDEST PUSH1 0x2 PUSH1 0xA SSTORE PUSH1 0x1 PUSH1 0x1 PUSH1 0xA0 SHL SUB DUP4 AND CALLER EQ DUP1 PUSH2 0x2F7 JUMPI POP CALLER ADDRESS EQ JUMPDEST PUSH2 0x313 JUMPI PUSH1 0x40 MLOAD PUSH3 0x461BCD PUSH1 0xE5 SHL DUP2 MSTORE PUSH1 0x4 ADD PUSH2 0x10D SWAP1 PUSH2 0x3D43 JUMP JUMPDEST PUSH2 0x31C DUP4 PUSH2 0x465 JUMP JUMPDEST PUSH1 0x0 PUSH2 0x327 DUP5 PUSH2 0x991 JUMP JUMPDEST SWAP1 POP PUSH2 0x331 PUSH2 0x349C JUMP JUMPDEST PUSH1 0x0 JUMPDEST DUP4 DUP2 LT ISZERO PUSH2 0x428 JUMPI CALLDATASIZE DUP6 DUP6 DUP4 DUP2 DUP2 LT PUSH2 0x349 JUMPI INVALID JUMPDEST SWAP1 POP PUSH1 0xC0 MUL ADD SWAP1 POP PUSH1 0x0 DUP3 GT ISZERO PUSH2 0x3B6 JUMPI DUP6 DUP6 PUSH1 0x1 DUP5 SUB DUP2 DUP2 LT PUSH2 0x369 JUMPI INVALID JUMPDEST SWAP1 POP PUSH1 0xC0 MUL ADD PUSH1 0x20 ADD PUSH1 0x20 DUP2 ADD SWAP1 PUSH2 0x381 SWAP2 SWAP1 PUSH2 0x3AA9 JUMP JUMPDEST PUSH2 0xFFFF AND PUSH2 0x395 PUSH1 0x40 DUP4 ADD PUSH1 0x20 DUP5 ADD PUSH2 0x3AA9 JUMP JUMPDEST PUSH2 0xFFFF AND GT PUSH2 0x3B6 JUMPI PUSH1 0x40 MLOAD PUSH3 0x461BCD PUSH1 0xE5 SHL DUP2 MSTORE PUSH1 0x4 ADD PUSH2 0x10D SWAP1 PUSH2 0x3DF3 JUMP JUMPDEST PUSH2 0x3D3 DUP8 PUSH2 0x3CA PUSH1 0x40 DUP5 ADD PUSH1 0x20 DUP6 ADD PUSH2 0x3AA9 JUMP JUMPDEST DUP6 SWAP2 SWAP1 DUP8 PUSH2 0xA4D JUMP JUMPDEST PUSH2 0x3EF DUP8 DUP5 PUSH2 0x3E5 PUSH1 0x20 DUP6 ADD DUP6 PUSH2 0x38E7 JUMP JUMPDEST DUP5 PUSH1 0x40 ADD CALLDATALOAD PUSH2 0xAF3 JUMP JUMPDEST PUSH2 0x41F DUP8 DUP6 DUP6 PUSH1 0x60 DUP6 ADD CALLDATALOAD PUSH2 0x40A PUSH1 0xA0 DUP8 ADD PUSH1 0x80 DUP9 ADD PUSH2 0x38CB JUMP JUMPDEST PUSH2 0x41A PUSH1 0xC0 DUP9 ADD PUSH1 0xA0 DUP10 ADD PUSH2 0x38CB JUMP JUMPDEST PUSH2 0xBC6 JUMP JUMPDEST POP PUSH1 0x1 ADD PUSH2 0x334 JUMP JUMPDEST POP PUSH2 0x433 DUP6 DUP4 PUSH2 0x80C JUMP JUMPDEST POP POP PUSH1 0x1 PUSH1 0xA SSTORE POP POP POP JUMP JUMPDEST PUSH1 0x1 SLOAD PUSH1 0x1 PUSH1 0x1 PUSH1 0xA0 SHL SUB AND DUP2 JUMP JUMPDEST PUSH1 0x0 SLOAD PUSH5 0x100000000 SWAP1 DIV PUSH1 0x1 PUSH1 0x1 PUSH1 0xA0 SHL SUB AND DUP2 JUMP JUMPDEST PUSH1 0x1 PUSH1 0x1 PUSH1 0xA0 SHL SUB DUP2 AND PUSH2 0x478 JUMPI PUSH1 0x0 DUP1 REVERT JUMPDEST PUSH1 0x1 PUSH1 0x1 PUSH1 0xA0 SHL SUB DUP2 AND ADDRESS EQ ISZERO PUSH2 0x48E JUMPI PUSH1 0x0 DUP1 REVERT JUMPDEST PUSH1 0x0 PUSH2 0x499 DUP3 PUSH2 0xC49 JUMP JUMPDEST POP POP POP POP PUSH2 0xFFFF AND SWAP1 POP DUP1 PUSH1 0x0 EQ PUSH2 0x4B0 JUMPI PUSH1 0x0 DUP1 REVERT JUMPDEST POP POP JUMP JUMPDEST PUSH2 0x4BC PUSH2 0x34EC JUMP JUMPDEST PUSH1 0x0 PUSH2 0x4C7 DUP6 PUSH2 0x991 JUMP JUMPDEST SWAP1 POP PUSH2 0x4D1 PUSH2 0x349C JUMP JUMPDEST PUSH1 0x0 PUSH2 0x4E3 DUP8 DUP5 PUSH1 0x40 ADD MLOAD PUSH1 0x0 PUSH2 0xCB2 JUMP JUMPDEST SWAP1 POP PUSH1 0x0 JUMPDEST DUP6 DUP2 LT ISZERO PUSH2 0x7E4 JUMPI CALLDATASIZE DUP8 DUP8 DUP4 DUP2 DUP2 LT PUSH2 0x4FD JUMPI INVALID JUMPDEST SWAP1 POP PUSH1 0x20 MUL DUP2 ADD SWAP1 PUSH2 0x50F SWAP2 SWAP1 PUSH2 0x3F9E JUMP JUMPDEST SWAP1 POP DUP2 ISZERO PUSH2 0x57E JUMPI DUP8 DUP8 PUSH1 0x1 DUP5 SUB DUP2 DUP2 LT PUSH2 0x526 JUMPI INVALID JUMPDEST SWAP1 POP PUSH1 0x20 MUL DUP2 ADD SWAP1 PUSH2 0x538 SWAP2 SWAP1 PUSH2 0x3F9E JUMP JUMPDEST PUSH2 0x549 SWAP1 PUSH1 0x40 DUP2 ADD SWAP1 PUSH1 0x20 ADD PUSH2 0x3AA9 JUMP JUMPDEST PUSH2 0xFFFF AND PUSH2 0x55D PUSH1 0x40 DUP4 ADD PUSH1 0x20 DUP5 ADD PUSH2 0x3AA9 JUMP JUMPDEST PUSH2 0xFFFF AND GT PUSH2 0x57E JUMPI PUSH1 0x40 MLOAD PUSH3 0x461BCD PUSH1 0xE5 SHL DUP2 MSTORE PUSH1 0x4 ADD PUSH2 0x10D SWAP1 PUSH2 0x3DF3 JUMP JUMPDEST PUSH2 0x59B DUP10 PUSH2 0x592 PUSH1 0x40 DUP5 ADD PUSH1 0x20 DUP6 ADD PUSH2 0x3AA9 JUMP JUMPDEST DUP7 SWAP2 SWAP1 DUP9 PUSH2 0xA4D JUMP JUMPDEST PUSH2 0x5AD DUP10 DUP6 PUSH2 0x3E5 PUSH1 0x20 DUP6 ADD DUP6 PUSH2 0x38E7 JUMP JUMPDEST PUSH1 0x0 PUSH2 0x5BC PUSH1 0xC0 DUP4 ADD DUP4 PUSH2 0x3F57 JUMP JUMPDEST SWAP1 POP GT ISZERO PUSH2 0x7C0 JUMPI PUSH1 0x0 PUSH2 0x5CF DUP7 PUSH2 0xD45 JUMP JUMPDEST ISZERO PUSH2 0x6DC JUMPI PUSH2 0x5E4 PUSH1 0x40 DUP4 ADD PUSH1 0x20 DUP5 ADD PUSH2 0x3AA9 JUMP JUMPDEST PUSH2 0xFFFF AND DUP7 PUSH1 0x60 ADD MLOAD PUSH2 0xFFFF AND EQ PUSH2 0x60E JUMPI PUSH1 0x40 MLOAD PUSH3 0x461BCD PUSH1 0xE5 SHL DUP2 MSTORE PUSH1 0x4 ADD PUSH2 0x10D SWAP1 PUSH2 0x3EBD JUMP JUMPDEST PUSH1 0x60 DUP7 ADD MLOAD DUP7 MLOAD PUSH1 0x0 SWAP2 PUSH20 0x0 SWAP2 PUSH4 0x3643F39B SWAP2 DUP15 SWAP2 PUSH2 0x643 PUSH1 0xC0 DUP10 ADD DUP10 PUSH2 0x3F57 JUMP JUMPDEST PUSH1 0x40 MLOAD DUP7 PUSH4 0xFFFFFFFF AND PUSH1 0xE0 SHL DUP2 MSTORE PUSH1 0x4 ADD PUSH2 0x663 SWAP6 SWAP5 SWAP4 SWAP3 SWAP2 SWAP1 PUSH2 0x3CE5 JUMP JUMPDEST PUSH1 0x40 DUP1 MLOAD DUP1 DUP4 SUB DUP2 DUP7 DUP1 EXTCODESIZE ISZERO DUP1 ISZERO PUSH2 0x67A JUMPI PUSH1 0x0 DUP1 REVERT JUMPDEST POP GAS DELEGATECALL ISZERO DUP1 ISZERO PUSH2 0x68E JUMPI RETURNDATASIZE PUSH1 0x0 DUP1 RETURNDATACOPY RETURNDATASIZE PUSH1 0x0 REVERT JUMPDEST POP POP POP POP PUSH1 0x40 MLOAD RETURNDATASIZE PUSH1 0x1F NOT PUSH1 0x1F DUP3 ADD AND DUP3 ADD DUP1 PUSH1 0x40 MSTORE POP DUP2 ADD SWAP1 PUSH2 0x6B2 SWAP2 SWAP1 PUSH2 0x391E JUMP JUMPDEST SWAP1 SWAP3 POP SWAP1 POP DUP1 ISZERO PUSH2 0x6D6 JUMPI PUSH1 0x20 DUP8 ADD DUP1 MLOAD PUSH1 0x1 PUSH1 0xF8 SHL OR PUSH1 0x1 PUSH1 0x1 PUSH1 0xF8 SHL SUB NOT AND SWAP1 MSTORE JUMPDEST POP PUSH2 0x78F JUMP JUMPDEST PUSH20 0x0 PUSH4 0xB58F83ED DUP12 PUSH2 0x707 PUSH1 0x40 DUP7 ADD PUSH1 0x20 DUP8 ADD PUSH2 0x3AA9 JUMP JUMPDEST DUP8 PUSH2 0x715 PUSH1 0xC0 DUP9 ADD DUP9 PUSH2 0x3F57 JUMP JUMPDEST PUSH1 0x40 MLOAD DUP7 PUSH4 0xFFFFFFFF AND PUSH1 0xE0 SHL DUP2 MSTORE PUSH1 0x4 ADD PUSH2 0x735 SWAP6 SWAP5 SWAP4 SWAP3 SWAP2 SWAP1 PUSH2 0x3C5E JUMP JUMPDEST PUSH1 0x0 PUSH1 0x40 MLOAD DUP1 DUP4 SUB DUP2 DUP7 DUP1 EXTCODESIZE ISZERO DUP1 ISZERO PUSH2 0x74D JUMPI PUSH1 0x0 DUP1 REVERT JUMPDEST POP GAS DELEGATECALL ISZERO DUP1 ISZERO PUSH2 0x761 JUMPI RETURNDATASIZE PUSH1 0x0 DUP1 RETURNDATACOPY RETURNDATASIZE PUSH1 0x0 REVERT JUMPDEST POP POP POP POP PUSH1 0x40 MLOAD RETURNDATASIZE PUSH1 0x0 DUP3 RETURNDATACOPY PUSH1 0x1F RETURNDATASIZE SWAP1 DUP2 ADD PUSH1 0x1F NOT AND DUP3 ADD PUSH1 0x40 MSTORE PUSH2 0x789 SWAP2 SWAP1 DUP2 ADD SWAP1 PUSH2 0x39ED JUMP JUMPDEST SWAP1 SWAP5 POP SWAP1 POP JUMPDEST PUSH1 0x0 DUP2 SLT ISZERO PUSH2 0x7AA JUMPI PUSH2 0x7AA DUP6 PUSH2 0x7A5 DUP4 PUSH2 0xD52 JUMP JUMPDEST PUSH2 0xD60 JUMP JUMPDEST PUSH1 0x60 DUP6 ADD MLOAD PUSH2 0x7B9 SWAP1 DUP3 PUSH2 0xDAF JUMP JUMPDEST PUSH1 0x60 DUP7 ADD MSTORE POP JUMPDEST PUSH2 0x7DB DUP10 DUP7 DUP7 PUSH1 0x60 DUP6 ADD CALLDATALOAD PUSH2 0x40A PUSH1 0xA0 DUP8 ADD PUSH1 0x80 DUP9 ADD PUSH2 0x38CB JUMP JUMPDEST POP PUSH1 0x1 ADD PUSH2 0x4E8 JUMP JUMPDEST POP PUSH2 0x7EE DUP4 PUSH2 0xD45 JUMP JUMPDEST PUSH2 0x7FF JUMPI PUSH2 0x7FF DUP4 DUP9 DUP4 PUSH1 0x0 PUSH2 0xDCB JUMP JUMPDEST POP SWAP1 SWAP2 POP POP JUMPDEST SWAP4 SWAP3 POP POP POP JUMP JUMPDEST PUSH2 0x816 DUP2 DUP4 PUSH2 0x88D JUMP JUMPDEST PUSH1 0x20 DUP2 ADD MLOAD PUSH1 0x1 PUSH1 0x1 PUSH1 0xF8 SHL SUB NOT AND ISZERO PUSH2 0x4B0 JUMPI PUSH1 0x40 MLOAD PUSH4 0x6CCC642F PUSH1 0xE0 SHL DUP2 MSTORE PUSH20 0x0 SWAP1 PUSH4 0x6CCC642F SWAP1 PUSH2 0x861 SWAP1 DUP6 SWAP1 PUSH1 0x4 ADD PUSH2 0x3B71 JUMP JUMPDEST PUSH1 0x0 PUSH1 0x40 MLOAD DUP1 DUP4 SUB DUP2 DUP7 DUP1 EXTCODESIZE ISZERO DUP1 ISZERO PUSH2 0x879 JUMPI PUSH1 0x0 DUP1 REVERT JUMPDEST POP GAS DELEGATECALL ISZERO DUP1 ISZERO PUSH2 0x2B1 JUMPI RETURNDATASIZE PUSH1 0x0 DUP1 RETURNDATACOPY RETURNDATASIZE PUSH1 0x0 REVERT JUMPDEST PUSH1 0x0 PUSH2 0x897 PUSH2 0xEAD JUMP JUMPDEST PUSH1 0x1 PUSH1 0x1 PUSH1 0xA0 SHL SUB DUP4 AND PUSH1 0x0 DUP2 DUP2 MSTORE PUSH1 0x20 DUP4 DUP2 MSTORE PUSH1 0x40 DUP1 DUP4 KECCAK256 DUP9 MLOAD DUP2 SLOAD SWAP4 DUP11 ADD MLOAD DUP4 DUP12 ADD MLOAD PUSH1 0x60 DUP13 ADD MLOAD PUSH1 0x80 DUP14 ADD MLOAD PUSH1 0x70 SHR PUSH1 0x1 PUSH1 0x48 SHL MUL PUSH27 0xFFFFFFFFFFFFFFFFFFFFFFFFFFFFFFFFFFFF000000000000000000 NOT PUSH2 0xFFFF SWAP1 SWAP3 AND PUSH1 0x1 PUSH1 0x38 SHL MUL PUSH9 0xFFFF00000000000000 NOT PUSH1 0xFF SWAP5 SWAP1 SWAP5 AND PUSH1 0x1 PUSH1 0x30 SHL MUL PUSH7 0xFF000000000000 NOT PUSH1 0xF8 SWAP7 SWAP1 SWAP7 SHR PUSH6 0x10000000000 MUL PUSH6 0xFF0000000000 NOT PUSH5 0xFFFFFFFFFF SWAP1 SWAP9 AND PUSH5 0xFFFFFFFFFF NOT SWAP1 SWAP12 AND SWAP11 SWAP1 SWAP11 OR SWAP7 SWAP1 SWAP7 AND SWAP9 SWAP1 SWAP9 OR SWAP4 SWAP1 SWAP4 AND SWAP4 SWAP1 SWAP4 OR AND SWAP5 SWAP1 SWAP5 OR AND SWAP3 SWAP1 SWAP3 OR SWAP1 SWAP2 SSTORE MLOAD SWAP3 SWAP4 POP SWAP1 SWAP2 PUSH32 0x6BD4B121BCA854A191536A2CA891155C42EE2FB23F307FB34E8BC65CFCB5412E SWAP2 SWAP1 LOG2 POP POP POP JUMP JUMPDEST PUSH2 0x999 PUSH2 0x34EC JUMP JUMPDEST PUSH1 0x0 PUSH2 0x9A4 DUP4 PUSH2 0xEBA JUMP JUMPDEST SWAP1 POP PUSH2 0x9AF DUP2 PUSH2 0xF5B JUMP JUMPDEST ISZERO PUSH2 0xA45 JUMPI PUSH1 0x40 MLOAD PUSH4 0x37B5FC21 PUSH1 0xE1 SHL DUP2 MSTORE PUSH20 0x0 SWAP1 PUSH4 0x6F6BF842 SWAP1 PUSH2 0x9ED SWAP1 DUP7 SWAP1 DUP6 SWAP1 PUSH1 0x4 ADD PUSH2 0x3BF2 JUMP JUMPDEST PUSH1 0xA0 PUSH1 0x40 MLOAD DUP1 DUP4 SUB DUP2 DUP7 DUP1 EXTCODESIZE ISZERO DUP1 ISZERO PUSH2 0xA05 JUMPI PUSH1 0x0 DUP1 REVERT JUMPDEST POP GAS DELEGATECALL ISZERO DUP1 ISZERO PUSH2 0xA19 JUMPI RETURNDATASIZE PUSH1 0x0 DUP1 RETURNDATACOPY RETURNDATASIZE PUSH1 0x0 REVERT JUMPDEST POP POP POP POP PUSH1 0x40 MLOAD RETURNDATASIZE PUSH1 0x1F NOT PUSH1 0x1F DUP3 ADD AND DUP3 ADD DUP1 PUSH1 0x40 MSTORE POP DUP2 ADD SWAP1 PUSH2 0xA3D SWAP2 SWAP1 PUSH2 0x394D JUMP JUMPDEST SWAP2 POP POP PUSH2 0xA48 JUMP JUMPDEST SWAP1 POP JUMPDEST SWAP2 SWAP1 POP JUMP JUMPDEST DUP2 PUSH2 0xFFFF AND PUSH1 0x0 LT DUP1 ISZERO PUSH2 0xA67 JUMPI POP PUSH2 0x3FFF PUSH2 0xFFFF DUP4 AND GT ISZERO JUMPDEST PUSH2 0xA70 JUMPI PUSH1 0x0 DUP1 REVERT JUMPDEST PUSH2 0xFFFF DUP3 AND DUP1 DUP6 MSTORE PUSH2 0xA83 SWAP1 DUP3 SWAP1 PUSH2 0xFAC JUMP JUMPDEST ISZERO PUSH2 0xAB0 JUMPI PUSH2 0xA96 DUP4 DUP4 PUSH2 0xFFFF AND PUSH2 0x1036 JUMP JUMPDEST PUSH2 0x100 DUP9 ADD MSTORE PUSH1 0xE0 DUP8 ADD MSTORE PUSH1 0x40 DUP7 ADD MSTORE PUSH1 0x20 DUP6 ADD MSTORE PUSH2 0xACE JUMP JUMPDEST PUSH1 0x0 PUSH1 0x20 DUP6 ADD DUP2 SWAP1 MSTORE PUSH1 0x40 DUP6 ADD DUP2 SWAP1 MSTORE PUSH1 0xE0 DUP6 ADD DUP2 SWAP1 MSTORE PUSH2 0x100 DUP6 ADD MSTORE JUMPDEST POP POP PUSH1 0x0 PUSH1 0x60 DUP4 ADD DUP2 SWAP1 MSTORE PUSH1 0x80 DUP4 ADD DUP2 SWAP1 MSTORE PUSH1 0xA0 DUP4 ADD DUP2 SWAP1 MSTORE PUSH1 0xC0 SWAP1 SWAP3 ADD SWAP2 SWAP1 SWAP2 MSTORE POP JUMP JUMPDEST PUSH1 0x0 PUSH2 0xAFE DUP3 PUSH2 0x10C2 JUMP JUMPDEST SWAP1 POP PUSH1 0x0 DUP1 DUP3 SLT ISZERO PUSH2 0xB0F JUMPI PUSH1 0x0 DUP1 REVERT JUMPDEST PUSH1 0x0 DUP5 PUSH1 0x6 DUP2 GT ISZERO PUSH2 0xB1D JUMPI INVALID JUMPDEST EQ ISZERO PUSH2 0xB2A JUMPI POP POP PUSH2 0xBC0 JUMP JUMPDEST PUSH1 0x1 DUP5 PUSH1 0x6 DUP2 GT ISZERO PUSH2 0xB38 JUMPI INVALID JUMPDEST EQ DUP1 PUSH2 0xB4F JUMPI POP PUSH1 0x3 DUP5 PUSH1 0x6 DUP2 GT ISZERO PUSH2 0xB4D JUMPI INVALID JUMPDEST EQ JUMPDEST ISZERO PUSH2 0xB68 JUMPI PUSH2 0xB61 DUP6 DUP8 DUP5 PUSH1 0x0 PUSH2 0x10DC JUMP JUMPDEST SWAP1 POP PUSH2 0xBB4 JUMP JUMPDEST PUSH1 0x2 DUP5 PUSH1 0x6 DUP2 GT ISZERO PUSH2 0xB76 JUMPI INVALID JUMPDEST EQ DUP1 PUSH2 0xB8D JUMPI POP PUSH1 0x4 DUP5 PUSH1 0x6 DUP2 GT ISZERO PUSH2 0xB8B JUMPI INVALID JUMPDEST EQ JUMPDEST ISZERO PUSH2 0xB9D JUMPI PUSH2 0xB61 DUP6 DUP8 DUP5 PUSH2 0x118F JUMP JUMPDEST PUSH1 0x6 DUP5 PUSH1 0x6 DUP2 GT ISZERO PUSH2 0xBAB JUMPI INVALID JUMPDEST EQ ISZERO PUSH2 0xBB4 JUMPI POP DUP1 JUMPDEST PUSH2 0x2B1 DUP6 DUP6 DUP5 DUP5 PUSH2 0x129B JUMP JUMPDEST POP POP POP POP JUMP JUMPDEST PUSH1 0x0 PUSH2 0xBD1 DUP5 PUSH2 0x10C2 JUMP JUMPDEST SWAP1 POP PUSH1 0x0 DUP2 SLT ISZERO PUSH2 0xBE1 JUMPI PUSH1 0x0 DUP1 REVERT JUMPDEST DUP3 ISZERO PUSH2 0xC1F JUMPI PUSH2 0xC10 DUP6 PUSH1 0x80 ADD MLOAD PUSH2 0xC0A DUP8 PUSH1 0x60 ADD MLOAD DUP9 PUSH1 0x20 ADD MLOAD PUSH2 0xDAF SWAP1 SWAP2 SWAP1 PUSH4 0xFFFFFFFF AND JUMP JUMPDEST SWAP1 PUSH2 0xDAF JUMP JUMPDEST SWAP1 POP PUSH1 0x0 DUP2 SLT ISZERO PUSH2 0xC1F JUMPI POP PUSH1 0x0 JUMPDEST PUSH1 0x80 DUP6 ADD MLOAD PUSH2 0xC2E SWAP1 DUP3 PUSH2 0x14B6 JUMP JUMPDEST PUSH1 0x80 DUP7 ADD MSTORE PUSH2 0xC3F DUP6 DUP9 DUP9 DUP6 PUSH2 0x14CC JUMP JUMPDEST POP POP POP POP POP POP POP POP JUMP JUMPDEST PUSH1 0x0 DUP1 PUSH1 0x0 DUP1 PUSH1 0x0 DUP1 PUSH2 0xC5A PUSH2 0x1737 JUMP JUMPDEST PUSH1 0x1 PUSH1 0x1 PUSH1 0xA0 SHL SUB SWAP1 SWAP8 AND PUSH1 0x0 SWAP1 DUP2 MSTORE PUSH1 0x20 SWAP8 SWAP1 SWAP8 MSTORE POP POP PUSH1 0x40 SWAP1 SWAP5 KECCAK256 SLOAD PUSH2 0xFFFF DUP2 AND SWAP6 PUSH4 0xFFFFFFFF PUSH3 0x10000 DUP4 DIV DUP2 AND SWAP7 POP PUSH1 0x1 PUSH1 0x30 SHL DUP4 DIV AND SWAP5 POP PUSH1 0xFF PUSH1 0x1 PUSH1 0x50 SHL DUP4 DIV AND SWAP4 POP PUSH1 0x1 PUSH1 0x58 SHL SWAP1 SWAP2 DIV PUSH1 0xD8 SHL SWAP2 POP JUMP JUMPDEST PUSH2 0xCBA PUSH2 0x351A JUMP JUMPDEST PUSH2 0xCC2 PUSH2 0x351A JUMP JUMPDEST PUSH1 0xFF DUP5 AND PUSH2 0xCD1 JUMPI SWAP1 POP PUSH2 0x805 JUMP JUMPDEST PUSH2 0xCDB DUP6 DUP6 PUSH2 0x1744 JUMP JUMPDEST DUP2 MSTORE PUSH1 0xFF DUP5 AND PUSH1 0x60 DUP3 ADD MSTORE DUP3 PUSH8 0xFFFFFFFFFFFFFFFF DUP2 GT DUP1 ISZERO PUSH2 0xCFD JUMPI PUSH1 0x0 DUP1 REVERT JUMPDEST POP PUSH1 0x40 MLOAD SWAP1 DUP1 DUP3 MSTORE DUP1 PUSH1 0x20 MUL PUSH1 0x20 ADD DUP3 ADD PUSH1 0x40 MSTORE DUP1 ISZERO PUSH2 0xD37 JUMPI DUP2 PUSH1 0x20 ADD JUMPDEST PUSH2 0xD24 PUSH2 0x3542 JUMP JUMPDEST DUP2 MSTORE PUSH1 0x20 ADD SWAP1 PUSH1 0x1 SWAP1 SUB SWAP1 DUP2 PUSH2 0xD1C JUMPI SWAP1 POP JUMPDEST POP PUSH1 0x20 DUP3 ADD MSTORE SWAP5 SWAP4 POP POP POP POP JUMP JUMPDEST PUSH1 0x60 ADD MLOAD PUSH2 0xFFFF AND ISZERO ISZERO SWAP1 JUMP JUMPDEST PUSH1 0x0 PUSH2 0xA45 PUSH1 0x0 NOT DUP4 PUSH2 0x176D JUMP JUMPDEST PUSH1 0x0 DUP2 SLT ISZERO DUP1 ISZERO PUSH2 0xD93 JUMPI POP DUP1 PUSH2 0xD90 DUP4 PUSH1 0x80 ADD MLOAD PUSH2 0xC0A DUP6 PUSH1 0x60 ADD MLOAD DUP7 PUSH1 0x20 ADD MLOAD PUSH2 0xDAF SWAP1 SWAP2 SWAP1 PUSH4 0xFFFFFFFF AND JUMP JUMPDEST SLT ISZERO JUMPDEST PUSH2 0x4B0 JUMPI PUSH1 0x40 MLOAD PUSH3 0x461BCD PUSH1 0xE5 SHL DUP2 MSTORE PUSH1 0x4 ADD PUSH2 0x10D SWAP1 PUSH2 0x3F18 JUMP JUMPDEST DUP2 DUP2 ADD DUP3 DUP2 SLT ISZERO PUSH1 0x0 DUP4 SLT ISZERO EQ PUSH2 0xDC5 JUMPI PUSH1 0x0 DUP1 REVERT JUMPDEST SWAP3 SWAP2 POP POP JUMP JUMPDEST PUSH1 0x0 DUP1 DUP1 DUP1 PUSH2 0xDDA DUP7 DUP9 PUSH2 0x17BB JUMP JUMPDEST PUSH5 0xFFFFFFFFFF DUP2 AND DUP13 MSTORE SWAP3 SWAP7 POP SWAP1 SWAP5 POP SWAP3 POP SWAP1 POP PUSH2 0xDF7 DUP9 PUSH2 0xF5B JUMP JUMPDEST ISZERO PUSH2 0xE01 JUMPI PUSH1 0x0 DUP1 REVERT JUMPDEST PUSH1 0xFF DUP3 AND PUSH1 0x40 DUP10 ADD MSTORE DUP5 PUSH2 0xE20 JUMPI PUSH1 0x7 PUSH1 0xFF DUP4 AND GT ISZERO PUSH2 0xE20 JUMPI PUSH1 0x0 DUP1 REVERT JUMPDEST DUP4 ISZERO PUSH2 0xE43 JUMPI PUSH1 0x20 DUP9 ADD DUP1 MLOAD PUSH1 0x1 PUSH1 0xF8 SHL OR PUSH1 0x1 PUSH1 0x1 PUSH1 0xF8 SHL SUB NOT AND SWAP1 MSTORE PUSH2 0xE52 JUMP JUMPDEST PUSH1 0x20 DUP9 ADD DUP1 MLOAD PUSH1 0x7F PUSH1 0xF9 SHL AND SWAP1 MSTORE JUMPDEST PUSH2 0xE5F DUP9 PUSH1 0x80 ADD MLOAD PUSH2 0x19FA JUMP JUMPDEST PUSH1 0x1 PUSH1 0x1 PUSH1 0x70 SHL SUB NOT AND PUSH1 0x80 DUP10 ADD MSTORE PUSH1 0x0 JUMPDEST DUP4 ISZERO PUSH2 0xEA2 JUMPI PUSH1 0xF0 DUP5 SWAP1 SHR DUP2 DUP2 EQ PUSH2 0xE94 JUMPI PUSH2 0xE94 DUP11 DUP3 PUSH1 0x1 PUSH1 0x1 PUSH1 0xFF SHL PUSH2 0x1A75 JUMP JUMPDEST PUSH1 0x10 SWAP5 SWAP1 SWAP5 SHL SWAP4 SWAP1 POP PUSH2 0xE71 JUMP JUMPDEST POP POP POP POP POP POP POP POP POP JUMP JUMPDEST PUSH1 0x0 DUP1 PUSH2 0xDC5 PUSH1 0x1 PUSH2 0x1C74 JUMP JUMPDEST PUSH2 0xEC2 PUSH2 0x34EC JUMP JUMPDEST PUSH1 0x0 PUSH2 0xECC PUSH2 0xEAD JUMP JUMPDEST PUSH1 0x1 PUSH1 0x1 PUSH1 0xA0 SHL SUB SWAP4 SWAP1 SWAP4 AND PUSH1 0x0 SWAP1 DUP2 MSTORE PUSH1 0x20 SWAP4 DUP5 MSTORE PUSH1 0x40 SWAP1 DUP2 SWAP1 KECCAK256 DUP2 MLOAD PUSH1 0xA0 DUP2 ADD DUP4 MSTORE SWAP1 SLOAD PUSH5 0xFFFFFFFFFF DUP2 AND DUP3 MSTORE PUSH6 0x10000000000 DUP2 DIV PUSH1 0xF8 SHL PUSH1 0x1 PUSH1 0x1 PUSH1 0xF8 SHL SUB NOT AND SWAP6 DUP3 ADD SWAP6 SWAP1 SWAP6 MSTORE PUSH1 0x1 PUSH1 0x30 SHL DUP6 DIV PUSH1 0xFF AND SWAP2 DUP2 ADD SWAP2 SWAP1 SWAP2 MSTORE PUSH1 0x1 PUSH1 0x38 SHL DUP5 DIV PUSH2 0xFFFF AND PUSH1 0x60 DUP3 ADD MSTORE PUSH1 0x1 PUSH1 0x48 SHL SWAP1 SWAP4 DIV PUSH1 0x70 SHL PUSH1 0x1 PUSH1 0x1 PUSH1 0x70 SHL SUB NOT AND PUSH1 0x80 DUP5 ADD MSTORE POP SWAP1 SWAP2 SWAP1 POP JUMP JUMPDEST PUSH1 0x0 TIMESTAMP PUSH2 0xF67 DUP4 PUSH2 0xD45 JUMP JUMPDEST ISZERO PUSH2 0xF88 JUMPI PUSH2 0xF75 DUP2 PUSH2 0x1C8D JUMP JUMPDEST DUP4 MLOAD PUSH5 0xFFFFFFFFFF AND LT SWAP2 POP PUSH2 0xA48 SWAP1 POP JUMP JUMPDEST DUP3 MLOAD PUSH5 0xFFFFFFFFFF AND ISZERO DUP1 ISZERO SWAP1 PUSH2 0xA3D JUMPI POP DUP3 MLOAD PUSH5 0xFFFFFFFFFF AND GT ISZERO SWAP1 POP PUSH2 0xA48 JUMP JUMPDEST PUSH1 0x0 DUP2 ISZERO DUP1 ISZERO SWAP1 PUSH2 0xFBF JUMPI POP PUSH2 0x3FFF DUP3 GT ISZERO JUMPDEST PUSH2 0xFC8 JUMPI PUSH1 0x0 DUP1 REVERT JUMPDEST PUSH1 0x80 DUP4 ADD MLOAD PUSH1 0x60 DUP5 ADD MLOAD PUSH2 0xFFFF AND DUP4 EQ ISZERO PUSH2 0xFE7 JUMPI PUSH1 0x1 SWAP2 POP POP PUSH2 0xDC5 JUMP JUMPDEST PUSH1 0x1 PUSH1 0x1 PUSH1 0x70 SHL SUB NOT DUP2 AND ISZERO PUSH2 0x102C JUMPI PUSH1 0xF0 DUP2 SWAP1 SHR PUSH2 0x3FFF AND DUP4 DUP2 EQ ISZERO PUSH2 0x1019 JUMPI POP PUSH1 0x1 PUSH1 0xFE SHL SWAP1 DUP2 AND EQ SWAP1 POP PUSH2 0xDC5 JUMP JUMPDEST POP PUSH1 0x10 SHL PUSH1 0x1 PUSH1 0x1 PUSH1 0x80 SHL SUB NOT AND PUSH2 0xFE7 JUMP JUMPDEST POP PUSH1 0x0 SWAP4 SWAP3 POP POP POP JUMP JUMPDEST PUSH1 0x0 DUP1 PUSH1 0x0 DUP1 PUSH1 0x0 PUSH2 0x1046 PUSH2 0x1CAB JUMP JUMPDEST PUSH1 0x1 PUSH1 0x1 PUSH1 0xA0 SHL SUB DUP9 AND PUSH1 0x0 SWAP1 DUP2 MSTORE PUSH1 0x20 DUP3 DUP2 MSTORE PUSH1 0x40 DUP1 DUP4 KECCAK256 DUP11 DUP5 MSTORE SWAP1 SWAP2 MSTORE SWAP1 KECCAK256 DUP1 SLOAD PUSH10 0xFFFFFFFFFFFFFFFFFFFF DUP2 AND SWAP7 POP PUSH1 0x1 PUSH1 0x50 SHL DUP2 DIV PUSH4 0xFFFFFFFF AND SWAP6 POP SWAP2 SWAP3 POP SWAP1 PUSH2 0x10A4 SWAP1 PUSH1 0x1 PUSH1 0x70 SHL SWAP1 DIV PUSH7 0xFFFFFFFFFFFFFF AND PUSH2 0x1CB8 JUMP JUMPDEST SWAP1 SLOAD PUSH1 0x1 PUSH1 0xA8 SHL SWAP1 DIV PUSH1 0xA SWAP1 DUP2 SIGNEXTEND SWAP1 SIGNEXTEND SWAP9 SWAP5 SWAP8 POP SWAP3 SWAP6 POP SWAP2 SWAP4 POP POP POP JUMP JUMPDEST PUSH1 0x0 PUSH1 0x1 PUSH1 0x1 PUSH1 0xFF SHL SUB DUP3 GT ISZERO PUSH2 0x10D8 JUMPI PUSH1 0x0 DUP1 REVERT JUMPDEST POP SWAP1 JUMP JUMPDEST PUSH1 0x0 DUP3 PUSH2 0x10EB JUMPI POP PUSH1 0x0 PUSH2 0x1187 JUMP JUMPDEST PUSH1 0x0 DUP4 SGT PUSH2 0x10F8 JUMPI PUSH1 0x0 DUP1 REVERT JUMPDEST PUSH1 0x0 PUSH2 0x110B DUP7 PUSH1 0x0 ADD MLOAD PUSH2 0xFFFF AND PUSH2 0x1CC6 JUMP JUMPDEST SWAP1 POP PUSH1 0x0 PUSH2 0x1119 DUP3 DUP7 PUSH2 0x1CD9 JUMP JUMPDEST SWAP1 POP DUP2 PUSH1 0x20 ADD MLOAD DUP1 PUSH2 0x1128 JUMPI POP DUP4 JUMPDEST ISZERO PUSH2 0x1167 JUMPI PUSH1 0x0 PUSH2 0x113A DUP4 DUP9 DUP9 PUSH2 0x1D0F JUMP JUMPDEST SWAP1 POP PUSH2 0x1146 DUP4 DUP3 PUSH2 0x1CD9 JUMP JUMPDEST PUSH1 0x60 DUP10 ADD MLOAD SWAP1 SWAP3 POP PUSH2 0x1158 SWAP1 DUP4 PUSH2 0xDAF JUMP JUMPDEST PUSH1 0x60 DUP10 ADD MSTORE POP SWAP2 POP PUSH2 0x1187 SWAP1 POP JUMP JUMPDEST PUSH1 0x80 DUP8 ADD MLOAD PUSH2 0x1176 SWAP1 DUP3 PUSH2 0xDAF JUMP JUMPDEST PUSH1 0x80 DUP9 ADD MSTORE SWAP2 POP PUSH2 0x1187 SWAP1 POP JUMP JUMPDEST POP POP JUMPDEST SWAP5 SWAP4 POP POP POP POP JUMP JUMPDEST PUSH1 0x0 DUP2 PUSH2 0x119E JUMPI POP PUSH1 0x0 PUSH2 0x805 JUMP JUMPDEST PUSH1 0x0 DUP3 SGT PUSH2 0x11AB JUMPI PUSH1 0x0 DUP1 REVERT JUMPDEST PUSH1 0x0 PUSH2 0x11BE DUP6 PUSH1 0x0 ADD MLOAD PUSH2 0xFFFF AND PUSH2 0x1DB3 JUMP JUMPDEST SWAP1 POP PUSH1 0x3 DUP2 PUSH1 0x60 ADD MLOAD PUSH1 0x4 DUP2 GT ISZERO PUSH2 0x11D2 JUMPI INVALID JUMPDEST EQ ISZERO PUSH2 0x11FC JUMPI CALLVALUE DUP4 EQ PUSH2 0x11F7 JUMPI PUSH1 0x40 MLOAD PUSH3 0x461BCD PUSH1 0xE5 SHL DUP2 MSTORE PUSH1 0x4 ADD PUSH2 0x10D SWAP1 PUSH2 0x3D87 JUMP JUMPDEST PUSH2 0x120A JUMP JUMPDEST PUSH2 0x1207 DUP2 DUP6 DUP6 PUSH2 0x1D0F JUMP JUMPDEST SWAP3 POP JUMPDEST PUSH1 0x0 PUSH2 0x121D DUP7 PUSH1 0x0 ADD MLOAD PUSH2 0xFFFF AND PUSH2 0x1CC6 JUMP JUMPDEST SWAP1 POP PUSH1 0x1 DUP2 PUSH1 0x60 ADD MLOAD PUSH1 0x4 DUP2 GT ISZERO PUSH2 0x1231 JUMPI INVALID JUMPDEST EQ DUP1 PUSH2 0x124C JUMPI POP PUSH1 0x2 DUP2 PUSH1 0x60 ADD MLOAD PUSH1 0x4 DUP2 GT ISZERO PUSH2 0x124A JUMPI INVALID JUMPDEST EQ JUMPDEST PUSH2 0x1255 JUMPI PUSH1 0x0 DUP1 REVERT JUMPDEST PUSH1 0x0 PUSH2 0x126A PUSH2 0x1263 DUP7 PUSH2 0x1DC6 JUMP JUMPDEST DUP4 SWAP1 PUSH2 0x1DD5 JUMP JUMPDEST SWAP1 POP PUSH1 0x0 PUSH2 0x1278 DUP4 DUP4 PUSH2 0x1CD9 JUMP JUMPDEST PUSH1 0x60 DUP10 ADD MLOAD SWAP1 SWAP2 POP PUSH2 0x128A SWAP1 DUP3 PUSH2 0xDAF JUMP JUMPDEST PUSH1 0x60 DUP10 ADD MSTORE SWAP4 POP POP POP POP SWAP4 SWAP3 POP POP POP JUMP JUMPDEST PUSH1 0x3 DUP4 PUSH1 0x6 DUP2 GT ISZERO PUSH2 0x12A9 JUMPI INVALID JUMPDEST EQ DUP1 PUSH2 0x12C0 JUMPI POP PUSH1 0x4 DUP4 PUSH1 0x6 DUP2 GT ISZERO PUSH2 0x12BE JUMPI INVALID JUMPDEST EQ JUMPDEST DUP1 PUSH2 0x12D6 JUMPI POP PUSH1 0x6 DUP4 PUSH1 0x6 DUP2 GT ISZERO PUSH2 0x12D4 JUMPI INVALID JUMPDEST EQ JUMPDEST ISZERO PUSH2 0x13A2 JUMPI PUSH2 0x12E5 DUP5 DUP3 PUSH2 0xD60 JUMP JUMPDEST PUSH1 0x60 DUP5 ADD MLOAD PUSH2 0x12F4 SWAP1 DUP3 PUSH2 0x14B6 JUMP JUMPDEST PUSH1 0x60 DUP6 ADD MSTORE DUP4 MLOAD PUSH1 0x40 MLOAD PUSH4 0x21285613 PUSH1 0xE1 SHL DUP2 MSTORE PUSH1 0x0 SWAP2 PUSH20 0x0 SWAP2 PUSH4 0x4250AC26 SWAP2 PUSH2 0x1335 SWAP2 DUP7 SWAP1 PUSH1 0x4 ADD PUSH2 0x3F43 JUMP JUMPDEST PUSH1 0x20 PUSH1 0x40 MLOAD DUP1 DUP4 SUB DUP2 DUP7 DUP1 EXTCODESIZE ISZERO DUP1 ISZERO PUSH2 0x134D JUMPI PUSH1 0x0 DUP1 REVERT JUMPDEST POP GAS DELEGATECALL ISZERO DUP1 ISZERO PUSH2 0x1361 JUMPI RETURNDATASIZE PUSH1 0x0 DUP1 RETURNDATACOPY RETURNDATASIZE PUSH1 0x0 REVERT JUMPDEST POP POP POP POP PUSH1 0x40 MLOAD RETURNDATASIZE PUSH1 0x1F NOT PUSH1 0x1F DUP3 ADD AND DUP3 ADD DUP1 PUSH1 0x40 MSTORE POP DUP2 ADD SWAP1 PUSH2 0x1385 SWAP2 SWAP1 PUSH2 0x3906 JUMP JUMPDEST PUSH1 0xC0 DUP7 ADD MLOAD SWAP1 SWAP2 POP PUSH2 0x1397 SWAP1 DUP3 PUSH2 0xDAF JUMP JUMPDEST PUSH1 0xC0 DUP7 ADD MSTORE POP PUSH2 0xBC0 JUMP JUMPDEST PUSH1 0x5 DUP4 PUSH1 0x6 DUP2 GT ISZERO PUSH2 0x13B0 JUMPI INVALID JUMPDEST EQ ISZERO PUSH2 0xBC0 JUMPI DUP2 PUSH2 0x13DA DUP6 PUSH1 0xC0 ADD MLOAD PUSH2 0xC0A DUP8 PUSH1 0xA0 ADD MLOAD DUP9 PUSH1 0x40 ADD MLOAD PUSH2 0xDAF SWAP1 SWAP2 SWAP1 PUSH4 0xFFFFFFFF AND JUMP JUMPDEST SLT ISZERO PUSH2 0x13F8 JUMPI PUSH1 0x40 MLOAD PUSH3 0x461BCD PUSH1 0xE5 SHL DUP2 MSTORE PUSH1 0x4 ADD PUSH2 0x10D SWAP1 PUSH2 0x3E3C JUMP JUMPDEST PUSH1 0xC0 DUP5 ADD MLOAD PUSH2 0x1407 SWAP1 DUP4 PUSH2 0x14B6 JUMP JUMPDEST PUSH1 0xC0 DUP6 ADD MSTORE DUP4 MLOAD PUSH1 0x40 MLOAD PUSH4 0x52E73F77 PUSH1 0xE0 SHL DUP2 MSTORE PUSH1 0x0 SWAP2 PUSH20 0x0 SWAP2 PUSH4 0x52E73F77 SWAP2 PUSH2 0x1448 SWAP2 DUP8 SWAP1 PUSH1 0x4 ADD PUSH2 0x3F43 JUMP JUMPDEST PUSH1 0x20 PUSH1 0x40 MLOAD DUP1 DUP4 SUB DUP2 DUP7 DUP1 EXTCODESIZE ISZERO DUP1 ISZERO PUSH2 0x1460 JUMPI PUSH1 0x0 DUP1 REVERT JUMPDEST POP GAS DELEGATECALL ISZERO DUP1 ISZERO PUSH2 0x1474 JUMPI RETURNDATASIZE PUSH1 0x0 DUP1 RETURNDATACOPY RETURNDATASIZE PUSH1 0x0 REVERT JUMPDEST POP POP POP POP PUSH1 0x40 MLOAD RETURNDATASIZE PUSH1 0x1F NOT PUSH1 0x1F DUP3 ADD AND DUP3 ADD DUP1 PUSH1 0x40 MSTORE POP DUP2 ADD SWAP1 PUSH2 0x1498 SWAP2 SWAP1 PUSH2 0x3906 JUMP JUMPDEST PUSH1 0x60 DUP7 ADD MLOAD SWAP1 SWAP2 POP PUSH2 0x14AA SWAP1 DUP3 PUSH2 0xDAF JUMP JUMPDEST PUSH1 0x60 DUP7 ADD MSTORE POP POP POP POP POP JUMP JUMPDEST DUP1 DUP3 SUB DUP3 DUP2 SGT ISZERO PUSH1 0x0 DUP4 SLT ISZERO EQ PUSH2 0xDC5 JUMPI PUSH1 0x0 DUP1 REVERT JUMPDEST PUSH1 0x0 DUP1 PUSH1 0x0 DUP7 PUSH1 0xA0 ADD MLOAD SLT ISZERO PUSH2 0x151F JUMPI PUSH1 0x0 PUSH2 0x1501 DUP8 PUSH1 0xA0 ADD MLOAD PUSH2 0xC0A DUP10 PUSH1 0xC0 ADD MLOAD DUP11 PUSH1 0x40 ADD MLOAD PUSH2 0xDAF SWAP1 SWAP2 SWAP1 PUSH4 0xFFFFFFFF AND JUMP JUMPDEST SLT ISZERO PUSH2 0x151F JUMPI PUSH1 0x40 MLOAD PUSH3 0x461BCD PUSH1 0xE5 SHL DUP2 MSTORE PUSH1 0x4 ADD PUSH2 0x10D SWAP1 PUSH2 0x3EF4 JUMP JUMPDEST PUSH1 0x0 DUP7 PUSH1 0x80 ADD MLOAD SLT ISZERO PUSH2 0x156F JUMPI PUSH1 0x0 PUSH2 0x1551 DUP8 PUSH1 0x80 ADD MLOAD PUSH2 0xC0A DUP10 PUSH1 0x60 ADD MLOAD DUP11 PUSH1 0x20 ADD MLOAD PUSH2 0xDAF SWAP1 SWAP2 SWAP1 PUSH4 0xFFFFFFFF AND JUMP JUMPDEST SLT ISZERO PUSH2 0x156F JUMPI PUSH1 0x40 MLOAD PUSH3 0x461BCD PUSH1 0xE5 SHL DUP2 MSTORE PUSH1 0x4 ADD PUSH2 0x10D SWAP1 PUSH2 0x3E9B JUMP JUMPDEST PUSH2 0x157A DUP7 DUP7 DUP6 PUSH2 0x2029 JUMP JUMPDEST PUSH1 0x80 DUP9 ADD DUP2 SWAP1 MSTORE PUSH1 0x60 DUP9 ADD MLOAD SWAP2 SWAP4 POP PUSH1 0x0 SWAP2 PUSH2 0x1595 SWAP2 PUSH2 0xDAF JUMP JUMPDEST SWAP1 POP DUP1 ISZERO PUSH2 0x1602 JUMPI PUSH1 0x20 DUP8 ADD MLOAD PUSH2 0x15AC SWAP1 DUP3 PUSH2 0xDAF JUMP JUMPDEST PUSH1 0x20 DUP9 ADD MSTORE DUP7 MLOAD PUSH1 0x40 MLOAD PUSH1 0x1 SWAP4 POP PUSH2 0xFFFF SWAP1 SWAP2 AND SWAP1 PUSH1 0x1 PUSH1 0x1 PUSH1 0xA0 SHL SUB DUP9 AND SWAP1 PUSH32 0x5441E4A5FAC93A951D782E6F1CDB82E95C8FC58561A013953D17E395C5E69B4B SWAP1 PUSH2 0x15F9 SWAP1 DUP6 SWAP1 PUSH2 0x3D3A JUMP JUMPDEST PUSH1 0x40 MLOAD DUP1 SWAP2 SUB SWAP1 LOG3 JUMPDEST PUSH1 0xA0 DUP8 ADD MLOAD ISZERO ISZERO DUP1 PUSH2 0x1617 JUMPI POP PUSH1 0xC0 DUP8 ADD MLOAD ISZERO ISZERO JUMPDEST ISZERO PUSH2 0x16AD JUMPI PUSH2 0x1626 DUP8 DUP8 PUSH2 0x20FE JUMP JUMPDEST POP PUSH2 0x164A DUP8 PUSH1 0xC0 ADD MLOAD PUSH2 0xC0A DUP10 PUSH1 0xA0 ADD MLOAD DUP11 PUSH1 0x40 ADD MLOAD PUSH2 0xDAF SWAP1 SWAP2 SWAP1 PUSH4 0xFFFFFFFF AND JUMP JUMPDEST PUSH1 0x40 DUP9 ADD MSTORE PUSH1 0xC0 DUP8 ADD MLOAD ISZERO PUSH2 0x16A8 JUMPI DUP7 PUSH1 0x0 ADD MLOAD PUSH2 0xFFFF AND DUP7 PUSH1 0x1 PUSH1 0x1 PUSH1 0xA0 SHL SUB AND PUSH32 0x412BC13D202A2EA5119E55FEC9C5E420DDDB18FAF186373AD9795AD4F4545AA9 DUP10 PUSH1 0xC0 ADD MLOAD PUSH1 0x40 MLOAD PUSH2 0x169F SWAP2 SWAP1 PUSH2 0x3D3A JUMP JUMPDEST PUSH1 0x40 MLOAD DUP1 SWAP2 SUB SWAP1 LOG3 JUMPDEST PUSH1 0x1 SWAP2 POP JUMPDEST DUP2 ISZERO PUSH2 0x16DA JUMPI PUSH2 0x16DA DUP7 DUP9 PUSH1 0x0 ADD MLOAD PUSH2 0xFFFF AND DUP10 PUSH1 0x20 ADD MLOAD DUP11 PUSH1 0x40 ADD MLOAD DUP12 PUSH1 0xE0 ADD MLOAD DUP13 PUSH2 0x100 ADD MLOAD PUSH2 0x216F JUMP JUMPDEST DUP7 MLOAD PUSH1 0x20 DUP9 ADD MLOAD PUSH2 0x1707 SWAP2 PUSH2 0xFFFF AND SWAP1 ISZERO ISZERO DUP1 PUSH2 0x16FA JUMPI POP PUSH1 0x40 DUP10 ADD MLOAD ISZERO ISZERO JUMPDEST DUP8 SWAP2 SWAP1 PUSH1 0x1 PUSH1 0xFE SHL PUSH2 0x1A75 JUMP JUMPDEST PUSH1 0x0 DUP8 PUSH1 0x20 ADD MLOAD SLT ISZERO PUSH2 0x1184 JUMPI POP POP PUSH1 0x20 SWAP3 SWAP1 SWAP3 ADD DUP1 MLOAD PUSH1 0x1 PUSH1 0xF9 SHL OR PUSH1 0x1 PUSH1 0x1 PUSH1 0xF8 SHL SUB NOT AND SWAP1 MSTORE POP SWAP3 SWAP2 POP POP JUMP JUMPDEST PUSH1 0x0 DUP1 PUSH2 0xDC5 PUSH1 0x2 PUSH2 0x1C74 JUMP JUMPDEST PUSH1 0x60 PUSH1 0x0 PUSH2 0x1752 DUP5 DUP5 PUSH2 0x2293 JUMP JUMPDEST SWAP1 POP PUSH1 0x1 DUP2 MLOAD GT PUSH2 0x1764 JUMPI SWAP1 POP PUSH2 0xDC5 JUMP JUMPDEST PUSH2 0x805 DUP2 PUSH2 0x23B5 JUMP JUMPDEST DUP2 DUP2 MUL PUSH1 0x0 NOT DUP4 EQ ISZERO PUSH2 0x179D JUMPI DUP2 ISZERO DUP1 PUSH2 0x178F JUMPI POP DUP3 DUP3 DUP3 DUP2 PUSH2 0x178C JUMPI INVALID JUMPDEST SDIV EQ JUMPDEST PUSH2 0x1798 JUMPI PUSH1 0x0 DUP1 REVERT JUMPDEST PUSH2 0xDC5 JUMP JUMPDEST DUP3 ISZERO DUP1 PUSH2 0x17B2 JUMPI POP DUP2 DUP4 DUP3 DUP2 PUSH2 0x17AF JUMPI INVALID JUMPDEST SDIV EQ JUMPDEST PUSH2 0xDC5 JUMPI PUSH1 0x0 DUP1 REVERT JUMPDEST PUSH1 0x0 DUP1 DUP1 DUP1 DUP1 DUP1 DUP1 DUP1 JUMPDEST DUP10 MLOAD MLOAD DUP2 LT ISZERO PUSH2 0x184C JUMPI PUSH1 0x0 DUP11 PUSH1 0x0 ADD MLOAD DUP3 DUP2 MLOAD DUP2 LT PUSH2 0x17E1 JUMPI INVALID JUMPDEST PUSH1 0x20 MUL PUSH1 0x20 ADD ADD MLOAD SWAP1 POP PUSH1 0x3 DUP1 DUP2 GT ISZERO PUSH2 0x17F7 JUMPI INVALID JUMPDEST DUP2 PUSH1 0xA0 ADD MLOAD PUSH1 0x3 DUP2 GT ISZERO PUSH2 0x1807 JUMPI INVALID JUMPDEST EQ ISZERO PUSH2 0x1812 JUMPI PUSH1 0x0 DUP1 REVERT JUMPDEST PUSH1 0x2 DUP2 PUSH1 0xA0 ADD MLOAD PUSH1 0x3 DUP2 GT ISZERO PUSH2 0x1824 JUMPI INVALID JUMPDEST EQ ISZERO DUP1 ISZERO PUSH2 0x1834 JUMPI POP PUSH1 0x60 DUP2 ADD MLOAD ISZERO JUMPDEST ISZERO PUSH2 0x1843 JUMPI PUSH2 0x1843 DUP12 DUP4 PUSH2 0x256E JUMP JUMPDEST POP PUSH1 0x1 ADD PUSH2 0x17C5 JUMP JUMPDEST POP PUSH1 0x0 JUMPDEST DUP10 MLOAD MLOAD DUP2 LT ISZERO PUSH2 0x18EF JUMPI PUSH1 0x0 DUP11 PUSH1 0x0 ADD MLOAD DUP3 DUP2 MLOAD DUP2 LT PUSH2 0x186C JUMPI INVALID JUMPDEST PUSH1 0x20 MUL PUSH1 0x20 ADD ADD MLOAD SWAP1 POP PUSH1 0x2 PUSH1 0x3 DUP2 GT ISZERO PUSH2 0x1883 JUMPI INVALID JUMPDEST DUP2 PUSH1 0xA0 ADD MLOAD PUSH1 0x3 DUP2 GT ISZERO PUSH2 0x1893 JUMPI INVALID JUMPDEST EQ ISZERO PUSH2 0x18A7 JUMPI PUSH1 0x80 DUP2 ADD MLOAD PUSH1 0x0 SWAP1 SSTORE PUSH2 0x18E6 JUMP JUMPDEST PUSH1 0x1 DUP2 PUSH1 0xA0 ADD MLOAD PUSH1 0x3 DUP2 GT ISZERO PUSH2 0x18B9 JUMPI INVALID JUMPDEST EQ ISZERO PUSH2 0x18D2 JUMPI PUSH1 0x80 DUP2 ADD MLOAD DUP1 PUSH2 0x18CF DUP4 DUP3 PUSH2 0x26BD JUMP JUMPDEST POP POP JUMPDEST PUSH2 0x18DE DUP2 DUP7 DUP7 DUP7 PUSH2 0x27EE JUMP JUMPDEST SWAP2 SWAP7 POP SWAP5 POP SWAP3 POP JUMPDEST POP PUSH1 0x1 ADD PUSH2 0x1850 JUMP JUMPDEST POP PUSH1 0x60 DUP10 ADD MLOAD PUSH1 0x0 PUSH2 0x18FF PUSH2 0x2851 JUMP JUMPDEST PUSH1 0x1 PUSH1 0x1 PUSH1 0xA0 SHL SUB DUP12 AND PUSH1 0x0 SWAP1 DUP2 MSTORE PUSH1 0x20 DUP3 SWAP1 MSTORE PUSH1 0x40 DUP2 KECCAK256 SWAP2 SWAP3 POP JUMPDEST DUP13 PUSH1 0x20 ADD MLOAD MLOAD DUP2 LT ISZERO PUSH2 0x19C9 JUMPI PUSH1 0x0 DUP14 PUSH1 0x20 ADD MLOAD DUP3 DUP2 MLOAD DUP2 LT PUSH2 0x193A JUMPI INVALID JUMPDEST PUSH1 0x20 MUL PUSH1 0x20 ADD ADD MLOAD SWAP1 POP DUP1 PUSH1 0x60 ADD MLOAD PUSH1 0x0 EQ ISZERO PUSH2 0x1957 JUMPI POP PUSH2 0x19C1 JUMP JUMPDEST PUSH1 0x2 DUP2 PUSH1 0xA0 ADD MLOAD PUSH1 0x3 DUP2 GT ISZERO PUSH2 0x1969 JUMPI INVALID JUMPDEST EQ ISZERO DUP1 ISZERO PUSH2 0x1987 JUMPI POP PUSH1 0x3 DUP2 PUSH1 0xA0 ADD MLOAD PUSH1 0x3 DUP2 GT ISZERO PUSH2 0x1984 JUMPI INVALID JUMPDEST EQ ISZERO JUMPDEST PUSH2 0x1990 JUMPI PUSH1 0x0 DUP1 REVERT JUMPDEST PUSH2 0x199C DUP2 DUP10 DUP10 DUP10 PUSH2 0x27EE JUMP JUMPDEST SWAP2 SWAP10 POP SWAP8 POP SWAP6 POP PUSH2 0x19B9 DUP2 DUP5 DUP8 PUSH1 0x10 DUP2 LT PUSH2 0x19B3 JUMPI INVALID JUMPDEST ADD PUSH2 0x26BD JUMP JUMPDEST PUSH1 0x1 DUP6 ADD SWAP5 POP POP JUMPDEST PUSH1 0x1 ADD PUSH2 0x191B JUMP JUMPDEST POP PUSH1 0x10 DUP4 GT ISZERO DUP1 ISZERO PUSH2 0x19E0 JUMPI POP PUSH5 0xFFFFFFFFFF DUP5 GT ISZERO JUMPDEST PUSH2 0x19E9 JUMPI PUSH1 0x0 DUP1 REVERT JUMPDEST POP SWAP4 SWAP11 SWAP3 SWAP10 POP SWAP8 POP SWAP6 POP SWAP4 POP POP POP POP JUMP JUMPDEST PUSH1 0x0 DUP1 PUSH32 0x7FFF7FFF7FFF7FFF7FFF7FFF7FFF7FFF7FFF0000000000000000000000000000 DUP4 AND DUP2 JUMPDEST PUSH1 0x1 PUSH1 0x1 PUSH1 0x70 SHL SUB NOT DUP3 AND ISZERO PUSH2 0x1A6C JUMPI PUSH1 0x1 PUSH1 0xFE SHL DUP3 DUP2 AND EQ ISZERO PUSH2 0x1A56 JUMPI PUSH1 0x1 PUSH1 0x1 PUSH1 0xF0 SHL SUB NOT DUP3 AND DUP2 SHR SWAP3 SWAP1 SWAP3 OR SWAP2 PUSH1 0x10 ADD JUMPDEST PUSH1 0x10 DUP3 PUSH1 0x1 PUSH1 0x1 PUSH1 0x70 SHL SUB NOT AND SWAP1 SHL SWAP2 POP PUSH2 0x1A22 JUMP JUMPDEST POP SWAP1 SWAP4 SWAP3 POP POP POP JUMP JUMPDEST DUP3 PUSH1 0x0 LT DUP1 ISZERO PUSH2 0x1A87 JUMPI POP PUSH2 0x3FFF DUP4 GT ISZERO JUMPDEST PUSH2 0x1A90 JUMPI PUSH1 0x0 DUP1 REVERT JUMPDEST DUP2 DUP1 ISZERO PUSH2 0x1AA4 JUMPI POP DUP3 DUP5 PUSH1 0x60 ADD MLOAD PUSH2 0xFFFF AND EQ JUMPDEST ISZERO PUSH2 0x1AAE JUMPI PUSH2 0xBC0 JUMP JUMPDEST PUSH1 0x80 DUP5 ADD MLOAD PUSH1 0x0 SWAP1 DUP2 JUMPDEST PUSH1 0x1 PUSH1 0x1 PUSH1 0x70 SHL SUB NOT DUP3 AND ISZERO PUSH2 0x1C29 JUMPI PUSH1 0xF0 DUP3 SWAP1 SHR PUSH2 0x3FFF AND DUP7 DUP2 EQ DUP1 ISZERO PUSH2 0x1ADD JUMPI POP DUP6 JUMPDEST ISZERO PUSH2 0x1B15 JUMPI POP PUSH1 0x80 DUP8 ADD DUP1 MLOAD PUSH1 0x1 PUSH1 0x1 PUSH1 0xF0 SHL SUB NOT DUP7 AND PUSH1 0x10 SWAP1 SWAP4 MUL SWAP3 SWAP1 SWAP3 SHR SWAP2 SWAP1 SWAP2 OR PUSH1 0x1 PUSH1 0x1 PUSH1 0x70 SHL SUB NOT AND SWAP1 MSTORE POP PUSH2 0xBC0 SWAP1 POP JUMP JUMPDEST DUP7 DUP2 EQ DUP1 ISZERO PUSH2 0x1B22 JUMPI POP DUP6 ISZERO JUMPDEST ISZERO PUSH2 0x1B77 JUMPI PUSH1 0x1 PUSH1 0x1 PUSH1 0xF0 SHL SUB NOT DUP6 AND NOT SWAP3 SWAP1 SWAP3 AND SWAP2 PUSH1 0x3 PUSH1 0xFE SHL DUP4 AND PUSH2 0x1B55 JUMPI PUSH1 0x10 DUP4 PUSH1 0x1 PUSH1 0x1 PUSH1 0x70 SHL SUB NOT AND SWAP1 SHL SWAP3 POP JUMPDEST POP PUSH1 0x1 PUSH1 0x1 PUSH1 0x70 SHL SUB NOT SWAP2 DUP3 AND PUSH1 0x10 SWAP1 SWAP2 MUL SHR SWAP2 SWAP1 SWAP2 OR AND PUSH1 0x80 DUP6 ADD MSTORE PUSH2 0xBC0 JUMP JUMPDEST DUP7 DUP2 GT DUP1 ISZERO PUSH2 0x1B83 JUMPI POP DUP6 JUMPDEST ISZERO PUSH2 0x1BDD JUMPI PUSH1 0x80 DUP9 DUP2 ADD MLOAD PUSH1 0x1 PUSH1 0x1 PUSH1 0xF0 SHL SUB NOT PUSH1 0xF0 DUP11 SWAP1 SHL DUP9 OR DUP2 AND PUSH1 0x10 DUP7 MUL SHR SWAP7 SWAP1 SWAP7 OR SWAP6 SWAP2 SHL AND ISZERO PUSH2 0x1BB7 JUMPI PUSH1 0x0 DUP1 REVERT JUMPDEST POP PUSH1 0x1 PUSH1 0x1 PUSH1 0x70 SHL SUB NOT SWAP2 DUP3 AND PUSH1 0x1 SWAP2 SWAP1 SWAP2 ADD PUSH1 0x10 MUL SHR SWAP2 SWAP1 SWAP2 OR AND PUSH1 0x80 DUP6 ADD MSTORE PUSH2 0xBC0 JUMP JUMPDEST DUP7 DUP2 GT DUP1 ISZERO PUSH2 0x1BEA JUMPI POP DUP6 ISZERO JUMPDEST ISZERO PUSH2 0x1BF8 JUMPI POP POP POP POP PUSH2 0xBC0 JUMP JUMPDEST POP PUSH1 0x1 PUSH1 0x1 PUSH1 0xF0 SHL SUB NOT DUP3 AND PUSH1 0x10 DUP3 DUP2 MUL SWAP2 SWAP1 SWAP2 SHR SWAP4 SWAP1 SWAP4 OR SWAP3 SWAP2 SWAP1 SWAP2 SHL PUSH1 0x1 PUSH1 0x1 PUSH1 0x80 SHL SUB NOT AND SWAP1 PUSH1 0x1 ADD PUSH2 0x1AB8 JUMP JUMPDEST DUP5 PUSH2 0x1C36 JUMPI POP POP POP PUSH2 0xBC0 JUMP JUMPDEST PUSH1 0x9 DUP2 LT PUSH2 0x1C43 JUMPI PUSH1 0x0 DUP1 REVERT JUMPDEST PUSH1 0x1 PUSH1 0x1 PUSH1 0xF0 SHL SUB NOT PUSH1 0xF0 DUP8 SWAP1 SHL DUP6 OR AND PUSH1 0x10 SWAP1 SWAP2 MUL SHR SWAP2 SWAP1 SWAP2 OR PUSH1 0x1 PUSH1 0x1 PUSH1 0x70 SHL SUB NOT AND PUSH1 0x80 DUP7 ADD MSTORE POP POP POP POP POP JUMP JUMPDEST PUSH1 0x0 PUSH3 0xF4240 DUP3 PUSH1 0x10 DUP2 GT ISZERO PUSH2 0x1C86 JUMPI INVALID JUMPDEST ADD SWAP3 SWAP2 POP POP JUMP JUMPDEST PUSH1 0x0 PUSH3 0x15180 DUP3 LT ISZERO PUSH2 0x1C9F JUMPI PUSH1 0x0 DUP1 REVERT JUMPDEST POP PUSH3 0x15180 DUP2 MOD SWAP1 SUB SWAP1 JUMP JUMPDEST PUSH1 0x0 DUP1 PUSH2 0xDC5 PUSH1 0x6 PUSH2 0x1C74 JUMP JUMPDEST PUSH1 0x8 DUP2 SWAP1 SHR PUSH1 0xFF SWAP1 SWAP2 AND SHL SWAP1 JUMP JUMPDEST PUSH2 0x1CCE PUSH2 0x3582 JUMP JUMPDEST PUSH2 0xA45 DUP3 PUSH1 0x0 PUSH2 0x285E JUMP JUMPDEST PUSH1 0x0 PUSH4 0x5F5E100 DUP4 PUSH1 0x40 ADD MLOAD EQ ISZERO PUSH2 0x1CF2 JUMPI POP DUP1 PUSH2 0xDC5 JUMP JUMPDEST PUSH1 0x40 DUP4 ADD MLOAD PUSH2 0x805 SWAP1 PUSH2 0x1D09 DUP5 PUSH4 0x5F5E100 PUSH2 0x176D JUMP JUMPDEST SWAP1 PUSH2 0x290C JUMP JUMPDEST PUSH1 0x0 DUP1 DUP3 SGT ISZERO PUSH2 0x1D2B JUMPI PUSH2 0x1D24 DUP5 DUP5 DUP5 PUSH2 0x293D JUMP JUMPDEST SWAP2 POP PUSH2 0x1DAC JUMP JUMPDEST PUSH1 0x3 DUP5 PUSH1 0x60 ADD MLOAD PUSH1 0x4 DUP2 GT ISZERO PUSH2 0x1D3D JUMPI INVALID JUMPDEST EQ ISZERO PUSH2 0x1D97 JUMPI PUSH1 0x0 DUP3 SGT ISZERO PUSH2 0x1D51 JUMPI PUSH1 0x0 DUP1 REVERT JUMPDEST DUP3 PUSH1 0x1 PUSH1 0x1 PUSH1 0xA0 SHL SUB DUP2 AND PUSH2 0x8FC PUSH2 0x1D68 DUP6 PUSH2 0xD52 JUMP JUMPDEST PUSH1 0x40 MLOAD DUP2 ISZERO SWAP1 SWAP3 MUL SWAP2 PUSH1 0x0 DUP2 DUP2 DUP2 DUP6 DUP9 DUP9 CALL SWAP4 POP POP POP POP ISZERO DUP1 ISZERO PUSH2 0x1D90 JUMPI RETURNDATASIZE PUSH1 0x0 DUP1 RETURNDATACOPY RETURNDATASIZE PUSH1 0x0 REVERT JUMPDEST POP POP PUSH2 0x1DAC JUMP JUMPDEST DUP4 MLOAD PUSH2 0x1DAC SWAP1 DUP5 PUSH2 0x1DA7 DUP6 PUSH2 0xD52 JUMP JUMPDEST PUSH2 0x2ADA JUMP JUMPDEST POP SWAP3 SWAP2 POP POP JUMP JUMPDEST PUSH2 0x1DBB PUSH2 0x3582 JUMP JUMPDEST PUSH2 0xA45 DUP3 PUSH1 0x1 PUSH2 0x285E JUMP JUMPDEST PUSH1 0x0 DUP1 DUP3 SLT ISZERO PUSH2 0x10D8 JUMPI PUSH1 0x0 DUP1 REVERT JUMPDEST PUSH1 0x0 DUP1 DUP4 PUSH1 0x0 ADD MLOAD PUSH1 0x1 PUSH1 0x1 PUSH1 0xA0 SHL SUB AND PUSH4 0x70A08231 ADDRESS PUSH1 0x40 MLOAD DUP3 PUSH4 0xFFFFFFFF AND PUSH1 0xE0 SHL DUP2 MSTORE PUSH1 0x4 ADD PUSH2 0x1E08 SWAP2 SWAP1 PUSH2 0x3B71 JUMP JUMPDEST PUSH1 0x20 PUSH1 0x40 MLOAD DUP1 DUP4 SUB DUP2 DUP7 DUP1 EXTCODESIZE ISZERO DUP1 ISZERO PUSH2 0x1E20 JUMPI PUSH1 0x0 DUP1 REVERT JUMPDEST POP GAS STATICCALL ISZERO DUP1 ISZERO PUSH2 0x1E34 JUMPI RETURNDATASIZE PUSH1 0x0 DUP1 RETURNDATACOPY RETURNDATASIZE PUSH1 0x0 REVERT JUMPDEST POP POP POP POP PUSH1 0x40 MLOAD RETURNDATASIZE PUSH1 0x1F NOT PUSH1 0x1F DUP3 ADD AND DUP3 ADD DUP1 PUSH1 0x40 MSTORE POP DUP2 ADD SWAP1 PUSH2 0x1E58 SWAP2 SWAP1 PUSH2 0x3906 JUMP JUMPDEST SWAP1 POP PUSH1 0x0 PUSH1 0x1 DUP6 PUSH1 0x60 ADD MLOAD PUSH1 0x4 DUP2 GT ISZERO PUSH2 0x1E6E JUMPI INVALID JUMPDEST EQ ISZERO PUSH2 0x1EFC JUMPI DUP5 MLOAD PUSH1 0x40 MLOAD PUSH4 0x140E25AD PUSH1 0xE3 SHL DUP2 MSTORE PUSH1 0x1 PUSH1 0x1 PUSH1 0xA0 SHL SUB SWAP1 SWAP2 AND SWAP1 PUSH4 0xA0712D68 SWAP1 PUSH2 0x1EA3 SWAP1 DUP8 SWAP1 PUSH1 0x4 ADD PUSH2 0x3D3A JUMP JUMPDEST PUSH1 0x20 PUSH1 0x40 MLOAD DUP1 DUP4 SUB DUP2 PUSH1 0x0 DUP8 DUP1 EXTCODESIZE ISZERO DUP1 ISZERO PUSH2 0x1EBD JUMPI PUSH1 0x0 DUP1 REVERT JUMPDEST POP GAS CALL ISZERO DUP1 ISZERO PUSH2 0x1ED1 JUMPI RETURNDATASIZE PUSH1 0x0 DUP1 RETURNDATACOPY RETURNDATASIZE PUSH1 0x0 REVERT JUMPDEST POP POP POP POP PUSH1 0x40 MLOAD RETURNDATASIZE PUSH1 0x1F NOT PUSH1 0x1F DUP3 ADD AND DUP3 ADD DUP1 PUSH1 0x40 MSTORE POP DUP2 ADD SWAP1 PUSH2 0x1EF5 SWAP2 SWAP1 PUSH2 0x3906 JUMP JUMPDEST SWAP1 POP PUSH2 0x1F6D JUMP JUMPDEST PUSH1 0x2 DUP6 PUSH1 0x60 ADD MLOAD PUSH1 0x4 DUP2 GT ISZERO PUSH2 0x1F0E JUMPI INVALID JUMPDEST EQ ISZERO PUSH2 0x55 JUMPI DUP5 PUSH1 0x0 ADD MLOAD PUSH1 0x1 PUSH1 0x1 PUSH1 0xA0 SHL SUB AND PUSH4 0x1249C58B CALLVALUE PUSH1 0x40 MLOAD DUP3 PUSH4 0xFFFFFFFF AND PUSH1 0xE0 SHL DUP2 MSTORE PUSH1 0x4 ADD PUSH1 0x0 PUSH1 0x40 MLOAD DUP1 DUP4 SUB DUP2 DUP6 DUP9 DUP1 EXTCODESIZE ISZERO DUP1 ISZERO PUSH2 0x1F53 JUMPI PUSH1 0x0 DUP1 REVERT JUMPDEST POP GAS CALL ISZERO DUP1 ISZERO PUSH2 0x1F67 JUMPI RETURNDATASIZE PUSH1 0x0 DUP1 RETURNDATACOPY RETURNDATASIZE PUSH1 0x0 REVERT JUMPDEST POP POP POP POP POP JUMPDEST DUP1 ISZERO PUSH2 0x1F8B JUMPI PUSH1 0x40 MLOAD PUSH3 0x461BCD PUSH1 0xE5 SHL DUP2 MSTORE PUSH1 0x4 ADD PUSH2 0x10D SWAP1 PUSH2 0x3D69 JUMP JUMPDEST DUP5 MLOAD PUSH1 0x40 MLOAD PUSH4 0x70A08231 PUSH1 0xE0 SHL DUP2 MSTORE PUSH1 0x0 SWAP2 PUSH1 0x1 PUSH1 0x1 PUSH1 0xA0 SHL SUB AND SWAP1 PUSH4 0x70A08231 SWAP1 PUSH2 0x1FBB SWAP1 ADDRESS SWAP1 PUSH1 0x4 ADD PUSH2 0x3B71 JUMP JUMPDEST PUSH1 0x20 PUSH1 0x40 MLOAD DUP1 DUP4 SUB DUP2 DUP7 DUP1 EXTCODESIZE ISZERO DUP1 ISZERO PUSH2 0x1FD3 JUMPI PUSH1 0x0 DUP1 REVERT JUMPDEST POP GAS STATICCALL ISZERO DUP1 ISZERO PUSH2 0x1FE7 JUMPI RETURNDATASIZE PUSH1 0x0 DUP1 RETURNDATACOPY RETURNDATASIZE PUSH1 0x0 REVERT JUMPDEST POP POP POP POP PUSH1 0x40 MLOAD RETURNDATASIZE PUSH1 0x1F NOT PUSH1 0x1F DUP3 ADD AND DUP3 ADD DUP1 PUSH1 0x40 MSTORE POP DUP2 ADD SWAP1 PUSH2 0x200B SWAP2 SWAP1 PUSH2 0x3906 JUMP JUMPDEST SWAP1 POP PUSH2 0x201F PUSH2 0x201A DUP3 DUP6 PUSH2 0x2B47 JUMP JUMPDEST PUSH2 0x10C2 JUMP JUMPDEST SWAP7 SWAP6 POP POP POP POP POP POP JUMP JUMPDEST PUSH1 0x0 DUP1 PUSH1 0x0 PUSH2 0x203F DUP7 PUSH1 0x0 ADD MLOAD PUSH2 0xFFFF AND PUSH2 0x1CC6 JUMP JUMPDEST SWAP1 POP PUSH1 0x0 PUSH2 0x205A DUP8 PUSH1 0x80 ADD MLOAD DUP4 PUSH2 0x2BA4 SWAP1 SWAP2 SWAP1 PUSH4 0xFFFFFFFF AND JUMP JUMPDEST SWAP1 POP DUP1 PUSH2 0x206F JUMPI PUSH1 0x0 DUP1 SWAP4 POP SWAP4 POP POP POP PUSH2 0x20F6 JUMP JUMPDEST DUP5 DUP1 ISZERO PUSH2 0x207C JUMPI POP PUSH1 0x0 DUP2 SLT JUMPDEST ISZERO PUSH2 0x20D9 JUMPI PUSH1 0x0 PUSH2 0x2094 DUP9 PUSH1 0x0 ADD MLOAD PUSH2 0xFFFF AND PUSH2 0x1DB3 JUMP JUMPDEST SWAP1 POP PUSH1 0x0 PUSH2 0x20AD DUP3 PUSH2 0x20A5 DUP6 PUSH2 0xD52 JUMP JUMPDEST DUP7 SWAP2 SWAP1 PUSH2 0x2BDC JUMP JUMPDEST SWAP1 POP PUSH2 0x20C4 DUP9 PUSH2 0x20BC DUP4 PUSH2 0xD52 JUMP JUMPDEST DUP5 SWAP2 SWAP1 PUSH2 0x1D0F JUMP JUMPDEST SWAP6 POP PUSH2 0x20D0 DUP5 DUP5 PUSH2 0x1CD9 JUMP JUMPDEST SWAP5 POP POP POP PUSH2 0x20F3 JUMP JUMPDEST PUSH2 0x20E4 DUP3 DUP8 DUP4 PUSH2 0x1D0F JUMP JUMPDEST SWAP4 POP PUSH2 0x20F0 DUP3 DUP6 PUSH2 0x1CD9 JUMP JUMPDEST SWAP3 POP JUMPDEST POP POP JUMPDEST SWAP4 POP SWAP4 SWAP2 POP POP JUMP JUMPDEST DUP2 MLOAD PUSH1 0x0 SWAP1 TIMESTAMP SWAP1 DUP3 SWAP1 PUSH2 0x2114 SWAP1 PUSH2 0xFFFF AND PUSH2 0x2DF5 JUMP JUMPDEST SWAP1 POP PUSH1 0x0 PUSH2 0x2127 DUP3 DUP8 PUSH1 0xC0 ADD MLOAD DUP6 PUSH2 0x2E1B JUMP JUMPDEST SWAP1 POP PUSH1 0x0 PUSH2 0x214E DUP4 PUSH2 0x213C DUP10 PUSH1 0x40 ADD MLOAD PUSH2 0x1DC6 JUMP JUMPDEST DUP10 PUSH1 0xE0 ADD MLOAD DUP11 PUSH2 0x100 ADD MLOAD DUP9 DUP8 PUSH2 0x2EF5 JUMP JUMPDEST PUSH1 0xE0 DUP9 ADD DUP6 SWAP1 MSTORE PUSH2 0x100 DUP9 ADD DUP4 SWAP1 MSTORE SWAP1 POP DUP1 ISZERO PUSH2 0x201F JUMPI PUSH2 0x201F DUP7 DUP3 PUSH2 0x2F9C JUMP JUMPDEST PUSH1 0x0 PUSH2 0x2179 PUSH2 0x1CAB JUMP JUMPDEST PUSH1 0x1 PUSH1 0x1 PUSH1 0xA0 SHL SUB DUP9 AND PUSH1 0x0 SWAP1 DUP2 MSTORE PUSH1 0x20 DUP3 DUP2 MSTORE PUSH1 0x40 DUP1 DUP4 KECCAK256 DUP11 DUP5 MSTORE SWAP1 SWAP2 MSTORE SWAP1 KECCAK256 SWAP1 SWAP2 POP PUSH11 0x7FFFFFFFFFFFFFFFFFFFFF NOT DUP7 SLT DUP1 ISZERO SWAP1 PUSH2 0x21C4 JUMPI POP PUSH11 0x7FFFFFFFFFFFFFFFFFFFFF DUP7 SGT ISZERO JUMPDEST PUSH2 0x21CD JUMPI PUSH1 0x0 DUP1 REVERT JUMPDEST PUSH1 0x0 DUP6 SLT ISZERO DUP1 ISZERO PUSH2 0x21E8 JUMPI POP PUSH10 0xFFFFFFFFFFFFFFFFFFFF DUP6 SGT ISZERO JUMPDEST PUSH2 0x21F1 JUMPI PUSH1 0x0 DUP1 REVERT JUMPDEST PUSH4 0xFFFFFFFF DUP5 GT ISZERO PUSH2 0x2202 JUMPI PUSH1 0x0 DUP1 REVERT JUMPDEST DUP1 SLOAD PUSH10 0xFFFFFFFFFFFFFFFFFFFF NOT AND PUSH10 0xFFFFFFFFFFFFFFFFFFFF DUP7 AND OR PUSH4 0xFFFFFFFF PUSH1 0x50 SHL NOT AND PUSH1 0x1 PUSH1 0x50 SHL PUSH4 0xFFFFFFFF DUP7 AND MUL OR PUSH1 0x1 PUSH1 0x1 PUSH1 0xA8 SHL SUB AND PUSH1 0x1 PUSH1 0xA8 SHL PUSH11 0xFFFFFFFFFFFFFFFFFFFFFF PUSH1 0xA DUP10 SWAP1 SIGNEXTEND AND MUL OR DUP2 SSTORE PUSH2 0x2264 DUP4 PUSH2 0x2FBB JUMP JUMPDEST DUP2 SLOAD PUSH7 0xFFFFFFFFFFFFFF SWAP2 SWAP1 SWAP2 AND PUSH1 0x1 PUSH1 0x70 SHL MUL PUSH7 0xFFFFFFFFFFFFFF PUSH1 0x70 SHL NOT SWAP1 SWAP2 AND OR SWAP1 SSTORE POP POP POP POP POP POP POP JUMP JUMPDEST PUSH1 0x60 PUSH1 0x10 DUP3 PUSH1 0xFF AND GT ISZERO PUSH2 0x22A6 JUMPI PUSH1 0x0 DUP1 REVERT JUMPDEST PUSH1 0x0 PUSH2 0x22B0 PUSH2 0x2851 JUMP JUMPDEST PUSH1 0x1 PUSH1 0x1 PUSH1 0xA0 SHL SUB DUP6 AND PUSH1 0x0 SWAP1 DUP2 MSTORE PUSH1 0x20 DUP3 SWAP1 MSTORE PUSH1 0x40 DUP2 KECCAK256 SWAP2 SWAP3 POP PUSH1 0xFF DUP6 AND PUSH8 0xFFFFFFFFFFFFFFFF DUP2 GT DUP1 ISZERO PUSH2 0x22E5 JUMPI PUSH1 0x0 DUP1 REVERT JUMPDEST POP PUSH1 0x40 MLOAD SWAP1 DUP1 DUP3 MSTORE DUP1 PUSH1 0x20 MUL PUSH1 0x20 ADD DUP3 ADD PUSH1 0x40 MSTORE DUP1 ISZERO PUSH2 0x231F JUMPI DUP2 PUSH1 0x20 ADD JUMPDEST PUSH2 0x230C PUSH2 0x3542 JUMP JUMPDEST DUP2 MSTORE PUSH1 0x20 ADD SWAP1 PUSH1 0x1 SWAP1 SUB SWAP1 DUP2 PUSH2 0x2304 JUMPI SWAP1 POP JUMPDEST POP SWAP1 POP PUSH1 0x0 JUMPDEST DUP6 PUSH1 0xFF AND DUP2 LT ISZERO PUSH2 0x23AB JUMPI PUSH1 0x0 DUP4 DUP3 PUSH1 0x10 DUP2 LT PUSH2 0x233E JUMPI INVALID JUMPDEST ADD SWAP1 POP PUSH1 0x0 DUP4 DUP4 DUP2 MLOAD DUP2 LT PUSH2 0x234F JUMPI INVALID JUMPDEST PUSH1 0x20 SWAP1 DUP2 MUL SWAP2 SWAP1 SWAP2 ADD DUP2 ADD MLOAD DUP4 SLOAD PUSH2 0xFFFF DUP2 AND DUP3 MSTORE PUSH5 0xFFFFFFFFFF PUSH3 0x10000 DUP3 DIV AND SWAP3 DUP3 ADD SWAP3 SWAP1 SWAP3 MSTORE PUSH1 0xFF PUSH1 0x1 PUSH1 0x38 SHL DUP4 DIV AND PUSH1 0x40 DUP3 ADD MSTORE PUSH1 0x1 PUSH1 0x40 SHL SWAP1 SWAP2 DIV PUSH1 0xA SWAP1 DUP2 SIGNEXTEND SWAP1 SIGNEXTEND PUSH1 0x60 DUP3 ADD MSTORE PUSH1 0x80 ADD SWAP2 SWAP1 SWAP2 MSTORE POP PUSH1 0x1 ADD PUSH2 0x2325 JUMP JUMPDEST POP SWAP6 SWAP5 POP POP POP POP POP JUMP JUMPDEST DUP1 MLOAD PUSH1 0x0 DUP2 PUSH8 0xFFFFFFFFFFFFFFFF DUP2 GT DUP1 ISZERO PUSH2 0x23D0 JUMPI PUSH1 0x0 DUP1 REVERT JUMPDEST POP PUSH1 0x40 MLOAD SWAP1 DUP1 DUP3 MSTORE DUP1 PUSH1 0x20 MUL PUSH1 0x20 ADD DUP3 ADD PUSH1 0x40 MSTORE DUP1 ISZERO PUSH2 0x23FA JUMPI DUP2 PUSH1 0x20 ADD PUSH1 0x20 DUP3 MUL DUP1 CALLDATASIZE DUP4 CALLDATACOPY ADD SWAP1 POP JUMPDEST POP SWAP1 POP PUSH1 0x0 JUMPDEST DUP3 DUP2 LT ISZERO PUSH2 0x2457 JUMPI PUSH1 0x0 DUP5 DUP3 DUP2 MLOAD DUP2 LT PUSH2 0x2416 JUMPI INVALID JUMPDEST PUSH1 0x20 MUL PUSH1 0x20 ADD ADD MLOAD SWAP1 POP PUSH2 0x2437 DUP2 PUSH1 0x0 ADD MLOAD DUP3 PUSH1 0x20 ADD MLOAD DUP4 PUSH1 0x40 ADD MLOAD PUSH2 0x2FE9 JUMP JUMPDEST DUP4 DUP4 DUP2 MLOAD DUP2 LT PUSH2 0x2443 JUMPI INVALID JUMPDEST PUSH1 0x20 SWAP1 DUP2 MUL SWAP2 SWAP1 SWAP2 ADD ADD MSTORE POP PUSH1 0x1 ADD PUSH2 0x2400 JUMP JUMPDEST POP PUSH1 0x1 JUMPDEST DUP3 DUP2 LT ISZERO PUSH2 0xBC0 JUMPI DUP1 JUMPDEST PUSH1 0x0 DUP2 GT DUP1 ISZERO PUSH2 0x249D JUMPI POP DUP3 DUP2 DUP2 MLOAD DUP2 LT PUSH2 0x247C JUMPI INVALID JUMPDEST PUSH1 0x20 MUL PUSH1 0x20 ADD ADD MLOAD DUP4 PUSH1 0x1 DUP4 SUB DUP2 MLOAD DUP2 LT PUSH2 0x2493 JUMPI INVALID JUMPDEST PUSH1 0x20 MUL PUSH1 0x20 ADD ADD MLOAD GT JUMPDEST ISZERO PUSH2 0x2565 JUMPI DUP3 DUP2 DUP2 MLOAD DUP2 LT PUSH2 0x24AE JUMPI INVALID JUMPDEST PUSH1 0x20 MUL PUSH1 0x20 ADD ADD MLOAD DUP4 PUSH1 0x1 DUP4 SUB DUP2 MLOAD DUP2 LT PUSH2 0x24C5 JUMPI INVALID JUMPDEST PUSH1 0x20 MUL PUSH1 0x20 ADD ADD MLOAD DUP5 PUSH1 0x1 DUP5 SUB DUP2 MLOAD DUP2 LT PUSH2 0x24DC JUMPI INVALID JUMPDEST PUSH1 0x20 MUL PUSH1 0x20 ADD ADD DUP6 DUP5 DUP2 MLOAD DUP2 LT PUSH2 0x24EF JUMPI INVALID JUMPDEST PUSH1 0x20 MUL PUSH1 0x20 ADD ADD DUP3 DUP2 MSTORE POP DUP3 DUP2 MSTORE POP POP POP DUP5 DUP2 DUP2 MLOAD DUP2 LT PUSH2 0x250C JUMPI INVALID JUMPDEST PUSH1 0x20 MUL PUSH1 0x20 ADD ADD MLOAD DUP6 PUSH1 0x1 DUP4 SUB DUP2 MLOAD DUP2 LT PUSH2 0x2523 JUMPI INVALID JUMPDEST PUSH1 0x20 MUL PUSH1 0x20 ADD ADD MLOAD DUP7 PUSH1 0x1 DUP5 SUB DUP2 MLOAD DUP2 LT PUSH2 0x253A JUMPI INVALID JUMPDEST PUSH1 0x20 MUL PUSH1 0x20 ADD ADD DUP8 DUP5 DUP2 MLOAD DUP2 LT PUSH2 0x254D JUMPI INVALID JUMPDEST PUSH1 0x20 SWAP1 DUP2 MUL SWAP2 SWAP1 SWAP2 ADD ADD SWAP2 SWAP1 SWAP2 MSTORE MSTORE PUSH1 0x0 NOT ADD PUSH2 0x2465 JUMP JUMPDEST POP PUSH1 0x1 ADD PUSH2 0x245B JUMP JUMPDEST DUP2 MLOAD MLOAD DUP2 LT PUSH2 0x257C JUMPI PUSH1 0x0 DUP1 REVERT JUMPDEST PUSH1 0x0 DUP3 PUSH1 0x60 ADD MLOAD GT PUSH2 0x258D JUMPI PUSH1 0x0 DUP1 REVERT JUMPDEST PUSH1 0x0 DUP3 PUSH1 0x0 ADD MLOAD DUP3 DUP2 MLOAD DUP2 LT PUSH2 0x259F JUMPI INVALID JUMPDEST PUSH1 0x20 MUL PUSH1 0x20 ADD ADD MLOAD SWAP1 POP PUSH1 0x2 PUSH1 0x3 DUP2 GT ISZERO PUSH2 0x25B6 JUMPI INVALID JUMPDEST DUP2 PUSH1 0xA0 ADD MLOAD PUSH1 0x3 DUP2 GT ISZERO PUSH2 0x25C6 JUMPI INVALID JUMPDEST EQ ISZERO DUP1 ISZERO PUSH2 0x25E4 JUMPI POP PUSH1 0x3 DUP2 PUSH1 0xA0 ADD MLOAD PUSH1 0x3 DUP2 GT ISZERO PUSH2 0x25E1 JUMPI INVALID JUMPDEST EQ ISZERO JUMPDEST PUSH2 0x25ED JUMPI PUSH1 0x0 DUP1 REVERT JUMPDEST PUSH1 0x60 DUP4 ADD DUP1 MLOAD PUSH1 0x0 NOT ADD SWAP1 MSTORE PUSH1 0x0 DUP1 DUP1 JUMPDEST DUP6 MLOAD MLOAD DUP2 LT ISZERO PUSH2 0x2660 JUMPI PUSH1 0x0 DUP7 PUSH1 0x0 ADD MLOAD DUP3 DUP2 MLOAD DUP2 LT PUSH2 0x261A JUMPI INVALID JUMPDEST PUSH1 0x20 MUL PUSH1 0x20 ADD ADD MLOAD SWAP1 POP DUP3 DUP2 PUSH1 0x80 ADD MLOAD GT DUP1 ISZERO PUSH2 0x2647 JUMPI POP PUSH1 0x2 DUP2 PUSH1 0xA0 ADD MLOAD PUSH1 0x3 DUP2 GT ISZERO PUSH2 0x2644 JUMPI INVALID JUMPDEST EQ ISZERO JUMPDEST ISZERO PUSH2 0x2657 JUMPI DUP1 PUSH1 0x80 ADD MLOAD SWAP3 POP DUP2 SWAP4 POP JUMPDEST POP PUSH1 0x1 ADD PUSH2 0x25FE JUMP JUMPDEST POP DUP2 DUP5 EQ ISZERO PUSH2 0x2679 JUMPI POP POP PUSH1 0x2 PUSH1 0xA0 SWAP2 SWAP1 SWAP2 ADD MSTORE PUSH2 0x4B0 JUMP JUMPDEST PUSH1 0x0 DUP6 PUSH1 0x0 ADD MLOAD DUP4 DUP2 MLOAD DUP2 LT PUSH2 0x268B JUMPI INVALID JUMPDEST PUSH1 0x20 SWAP1 DUP2 MUL SWAP2 SWAP1 SWAP2 ADD ADD MLOAD PUSH1 0x80 DUP6 DUP2 ADD DUP1 MLOAD SWAP2 DUP4 ADD DUP1 MLOAD SWAP1 SWAP2 MSTORE MSTORE PUSH1 0x1 PUSH1 0xA0 SWAP2 DUP3 ADD MSTORE PUSH1 0x2 SWAP5 ADD SWAP4 SWAP1 SWAP4 MSTORE POP POP POP POP POP JUMP JUMPDEST DUP2 MLOAD ISZERO DUP1 ISZERO SWAP1 PUSH2 0x26D0 JUMPI POP DUP2 MLOAD PUSH2 0x3FFF LT ISZERO JUMPDEST PUSH2 0x26D9 JUMPI PUSH1 0x0 DUP1 REVERT JUMPDEST DUP2 PUSH1 0x20 ADD MLOAD PUSH1 0x0 LT DUP1 ISZERO PUSH2 0x26F6 JUMPI POP PUSH1 0x20 DUP3 ADD MLOAD PUSH5 0xFFFFFFFFFF LT ISZERO JUMPDEST PUSH2 0x26FF JUMPI PUSH1 0x0 DUP1 REVERT JUMPDEST DUP2 PUSH1 0x40 ADD MLOAD PUSH1 0x0 LT DUP1 ISZERO PUSH2 0x2718 JUMPI POP PUSH1 0x40 DUP3 ADD MLOAD PUSH1 0x8 LT ISZERO JUMPDEST PUSH2 0x2721 JUMPI PUSH1 0x0 DUP1 REVERT JUMPDEST PUSH1 0x60 DUP3 ADD MLOAD PUSH11 0x7FFFFFFFFFFFFFFFFFFFFF NOT SGT DUP1 ISZERO SWAP1 PUSH2 0x2750 JUMPI POP PUSH1 0x60 DUP3 ADD MLOAD PUSH11 0x7FFFFFFFFFFFFFFFFFFFFF SLT ISZERO JUMPDEST PUSH2 0x2759 JUMPI PUSH1 0x0 DUP1 REVERT JUMPDEST DUP2 MLOAD DUP2 SLOAD PUSH1 0x20 DUP5 ADD MLOAD PUSH1 0x40 DUP6 ADD MLOAD PUSH1 0x60 SWAP1 SWAP6 ADD MLOAD PUSH1 0xA SIGNEXTEND PUSH11 0xFFFFFFFFFFFFFFFFFFFFFF AND PUSH1 0x1 PUSH1 0x40 SHL MUL PUSH19 0xFFFFFFFFFFFFFFFFFFFFFF0000000000000000 NOT PUSH1 0xFF SWAP1 SWAP7 AND PUSH1 0x1 PUSH1 0x38 SHL MUL PUSH8 0xFF00000000000000 NOT PUSH5 0xFFFFFFFFFF SWAP1 SWAP4 AND PUSH3 0x10000 MUL PUSH7 0xFFFFFFFFFF0000 NOT PUSH2 0xFFFF SWAP1 SWAP7 AND PUSH2 0xFFFF NOT SWAP1 SWAP6 AND SWAP5 SWAP1 SWAP5 OR SWAP5 SWAP1 SWAP5 AND SWAP3 SWAP1 SWAP3 OR AND SWAP2 SWAP1 SWAP2 OR SWAP3 SWAP1 SWAP3 AND SWAP2 SWAP1 SWAP2 OR SWAP1 SSTORE JUMP JUMPDEST PUSH1 0x0 DUP1 PUSH1 0x0 DUP1 PUSH2 0x27FD DUP9 PUSH2 0x3044 JUMP JUMPDEST SWAP1 POP DUP5 ISZERO DUP1 PUSH2 0x280B JUMPI POP DUP1 DUP6 GT JUMPDEST ISZERO PUSH2 0x2814 JUMPI DUP1 SWAP5 POP JUMPDEST DUP7 DUP1 PUSH2 0x2824 JUMPI POP PUSH1 0x0 DUP9 PUSH1 0x60 ADD MLOAD SLT JUMPDEST SWAP7 POP PUSH2 0xFFFF DUP7 AND ISZERO PUSH2 0x2835 JUMPI PUSH1 0x0 DUP1 REVERT JUMPDEST POP POP SWAP5 MLOAD SWAP4 SWAP6 PUSH1 0x10 SWAP4 SWAP1 SWAP4 SHR PUSH1 0xF0 SWAP5 SWAP1 SWAP5 SHL SWAP4 SWAP1 SWAP4 OR SWAP4 POP SWAP2 POP JUMP JUMPDEST PUSH1 0x0 DUP1 PUSH2 0xDC5 PUSH1 0xD PUSH2 0x1C74 JUMP JUMPDEST PUSH2 0x2866 PUSH2 0x3582 JUMP JUMPDEST PUSH1 0x0 PUSH2 0x2870 PUSH2 0x30B1 JUMP JUMPDEST PUSH1 0x0 DUP6 DUP2 MSTORE PUSH1 0x20 DUP3 DUP2 MSTORE PUSH1 0x40 DUP1 DUP4 KECCAK256 DUP8 ISZERO ISZERO DUP5 MSTORE DUP3 MSTORE SWAP2 DUP3 SWAP1 KECCAK256 DUP3 MLOAD PUSH1 0xA0 DUP2 ADD DUP5 MSTORE DUP2 SLOAD PUSH1 0x1 PUSH1 0x1 PUSH1 0xA0 SHL SUB DUP2 AND DUP3 MSTORE PUSH1 0xFF PUSH1 0x1 PUSH1 0xA0 SHL DUP3 DIV DUP2 AND ISZERO ISZERO SWAP5 DUP4 ADD SWAP5 SWAP1 SWAP5 MSTORE PUSH1 0x1 PUSH1 0xB0 SHL DUP2 DIV DUP5 AND PUSH1 0xA EXP SWAP5 DUP3 ADD SWAP5 SWAP1 SWAP5 MSTORE SWAP4 SWAP5 POP SWAP3 SWAP2 PUSH1 0x60 DUP4 ADD SWAP2 PUSH1 0x1 PUSH1 0xA8 SHL SWAP1 SWAP2 DIV AND PUSH1 0x4 DUP2 GT ISZERO PUSH2 0x28E5 JUMPI INVALID JUMPDEST DUP2 MSTORE SWAP2 SLOAD PUSH1 0x1 PUSH1 0xB8 SHL SWAP1 DIV PUSH9 0xFFFFFFFFFFFFFFFFFF AND PUSH1 0x20 SWAP1 SWAP3 ADD SWAP2 SWAP1 SWAP2 MSTORE SWAP5 SWAP4 POP POP POP POP JUMP JUMPDEST PUSH1 0x0 DUP2 PUSH1 0x0 NOT EQ DUP1 ISZERO PUSH2 0x2922 JUMPI POP PUSH1 0x1 PUSH1 0xFF SHL DUP4 EQ JUMPDEST ISZERO PUSH2 0x292C JUMPI PUSH1 0x0 DUP1 REVERT JUMPDEST DUP2 DUP4 DUP2 PUSH2 0x2935 JUMPI INVALID JUMPDEST SDIV SWAP4 SWAP3 POP POP POP JUMP JUMPDEST PUSH1 0x0 DUP1 PUSH1 0x0 DUP6 PUSH1 0x20 ADD MLOAD ISZERO PUSH2 0x29CE JUMPI DUP6 MLOAD PUSH1 0x40 MLOAD PUSH4 0x70A08231 PUSH1 0xE0 SHL DUP2 MSTORE PUSH1 0x1 PUSH1 0x1 PUSH1 0xA0 SHL SUB SWAP1 SWAP2 AND SWAP1 PUSH4 0x70A08231 SWAP1 PUSH2 0x297B SWAP1 ADDRESS SWAP1 PUSH1 0x4 ADD PUSH2 0x3B71 JUMP JUMPDEST PUSH1 0x20 PUSH1 0x40 MLOAD DUP1 DUP4 SUB DUP2 DUP7 DUP1 EXTCODESIZE ISZERO DUP1 ISZERO PUSH2 0x2993 JUMPI PUSH1 0x0 DUP1 REVERT JUMPDEST POP GAS STATICCALL ISZERO DUP1 ISZERO PUSH2 0x29A7 JUMPI RETURNDATASIZE PUSH1 0x0 DUP1 RETURNDATACOPY RETURNDATASIZE PUSH1 0x0 REVERT JUMPDEST POP POP POP POP PUSH1 0x40 MLOAD RETURNDATASIZE PUSH1 0x1F NOT PUSH1 0x1F DUP3 ADD AND DUP3 ADD DUP1 PUSH1 0x40 MSTORE POP DUP2 ADD SWAP1 PUSH2 0x29CB SWAP2 SWAP1 PUSH2 0x3906 JUMP JUMPDEST SWAP2 POP JUMPDEST DUP6 MLOAD PUSH2 0x29DB SWAP1 DUP7 DUP7 PUSH2 0x30BE JUMP JUMPDEST DUP6 PUSH1 0x20 ADD MLOAD DUP1 PUSH2 0x29EF JUMPI POP PUSH1 0x0 DUP7 PUSH1 0x80 ADD MLOAD GT JUMPDEST ISZERO PUSH2 0x2A76 JUMPI DUP6 MLOAD PUSH1 0x40 MLOAD PUSH4 0x70A08231 PUSH1 0xE0 SHL DUP2 MSTORE PUSH1 0x1 PUSH1 0x1 PUSH1 0xA0 SHL SUB SWAP1 SWAP2 AND SWAP1 PUSH4 0x70A08231 SWAP1 PUSH2 0x2A23 SWAP1 ADDRESS SWAP1 PUSH1 0x4 ADD PUSH2 0x3B71 JUMP JUMPDEST PUSH1 0x20 PUSH1 0x40 MLOAD DUP1 DUP4 SUB DUP2 DUP7 DUP1 EXTCODESIZE ISZERO DUP1 ISZERO PUSH2 0x2A3B JUMPI PUSH1 0x0 DUP1 REVERT JUMPDEST POP GAS STATICCALL ISZERO DUP1 ISZERO PUSH2 0x2A4F JUMPI RETURNDATASIZE PUSH1 0x0 DUP1 RETURNDATACOPY RETURNDATASIZE PUSH1 0x0 REVERT JUMPDEST POP POP POP POP PUSH1 0x40 MLOAD RETURNDATASIZE PUSH1 0x1F NOT PUSH1 0x1F DUP3 ADD AND DUP3 ADD DUP1 PUSH1 0x40 MSTORE POP DUP2 ADD SWAP1 PUSH2 0x2A73 SWAP2 SWAP1 PUSH2 0x3906 JUMP JUMPDEST SWAP1 POP JUMPDEST PUSH1 0x80 DUP7 ADD MLOAD ISZERO PUSH2 0x2AB1 JUMPI PUSH1 0x0 PUSH2 0x2A94 DUP8 PUSH2 0x2A8F DUP5 PUSH2 0x10C2 JUMP JUMPDEST PUSH2 0x1CD9 JUMP JUMPDEST SWAP1 POP PUSH2 0x2AA3 DUP8 PUSH1 0x80 ADD MLOAD PUSH2 0x10C2 JUMP JUMPDEST DUP2 SGT ISZERO PUSH2 0x2AAF JUMPI PUSH1 0x0 DUP1 REVERT JUMPDEST POP JUMPDEST DUP6 PUSH1 0x20 ADD MLOAD ISZERO PUSH2 0x2AD1 JUMPI PUSH2 0x2AC8 PUSH2 0x201A DUP3 DUP5 PUSH2 0x2B47 JUMP JUMPDEST SWAP3 POP POP POP PUSH2 0x805 JUMP JUMPDEST PUSH2 0x2AC8 DUP5 PUSH2 0x10C2 JUMP JUMPDEST PUSH1 0x40 MLOAD PUSH4 0xA9059CBB PUSH1 0xE0 SHL DUP2 MSTORE PUSH1 0x1 PUSH1 0x1 PUSH1 0xA0 SHL SUB DUP5 AND SWAP1 PUSH4 0xA9059CBB SWAP1 PUSH2 0x2B08 SWAP1 DUP6 SWAP1 DUP6 SWAP1 PUSH1 0x4 ADD PUSH2 0x3D21 JUMP JUMPDEST PUSH1 0x0 PUSH1 0x40 MLOAD DUP1 DUP4 SUB DUP2 PUSH1 0x0 DUP8 DUP1 EXTCODESIZE ISZERO DUP1 ISZERO PUSH2 0x2B22 JUMPI PUSH1 0x0 DUP1 REVERT JUMPDEST POP GAS CALL ISZERO DUP1 ISZERO PUSH2 0x2B36 JUMPI RETURNDATASIZE PUSH1 0x0 DUP1 RETURNDATACOPY RETURNDATASIZE PUSH1 0x0 REVERT JUMPDEST POP POP POP POP PUSH2 0x2B42 PUSH2 0x30EE JUMP JUMPDEST POP POP POP JUMP JUMPDEST PUSH1 0x0 DUP3 DUP3 GT ISZERO PUSH2 0x2B9E JUMPI PUSH1 0x40 DUP1 MLOAD PUSH3 0x461BCD PUSH1 0xE5 SHL DUP2 MSTORE PUSH1 0x20 PUSH1 0x4 DUP3 ADD MSTORE PUSH1 0x1E PUSH1 0x24 DUP3 ADD MSTORE PUSH32 0x536166654D6174683A207375627472616374696F6E206F766572666C6F770000 PUSH1 0x44 DUP3 ADD MSTORE SWAP1 MLOAD SWAP1 DUP2 SWAP1 SUB PUSH1 0x64 ADD SWAP1 REVERT JUMPDEST POP SWAP1 SUB SWAP1 JUMP JUMPDEST PUSH1 0x0 PUSH4 0x5F5E100 DUP4 PUSH1 0x40 ADD MLOAD EQ ISZERO PUSH2 0x2BBD JUMPI POP DUP1 PUSH2 0xDC5 JUMP JUMPDEST PUSH2 0x805 PUSH4 0x5F5E100 PUSH2 0x1D09 DUP6 PUSH1 0x40 ADD MLOAD DUP6 PUSH2 0x176D SWAP1 SWAP2 SWAP1 PUSH4 0xFFFFFFFF AND JUMP JUMPDEST PUSH1 0x0 DUP1 PUSH1 0x2 DUP6 PUSH1 0x60 ADD MLOAD PUSH1 0x4 DUP2 GT ISZERO PUSH2 0x2BF1 JUMPI INVALID JUMPDEST EQ ISZERO PUSH2 0x2BFE JUMPI POP SELFBALANCE PUSH2 0x2C98 JUMP JUMPDEST PUSH1 0x1 DUP6 PUSH1 0x60 ADD MLOAD PUSH1 0x4 DUP2 GT ISZERO PUSH2 0x2C10 JUMPI INVALID JUMPDEST EQ ISZERO PUSH2 0x55 JUMPI DUP4 MLOAD PUSH1 0x40 MLOAD PUSH4 0x70A08231 PUSH1 0xE0 SHL DUP2 MSTORE PUSH1 0x1 PUSH1 0x1 PUSH1 0xA0 SHL SUB SWAP1 SWAP2 AND SWAP1 PUSH4 0x70A08231 SWAP1 PUSH2 0x2C45 SWAP1 ADDRESS SWAP1 PUSH1 0x4 ADD PUSH2 0x3B71 JUMP JUMPDEST PUSH1 0x20 PUSH1 0x40 MLOAD DUP1 DUP4 SUB DUP2 DUP7 DUP1 EXTCODESIZE ISZERO DUP1 ISZERO PUSH2 0x2C5D JUMPI PUSH1 0x0 DUP1 REVERT JUMPDEST POP GAS STATICCALL ISZERO DUP1 ISZERO PUSH2 0x2C71 JUMPI RETURNDATASIZE PUSH1 0x0 DUP1 RETURNDATACOPY RETURNDATASIZE PUSH1 0x0 REVERT JUMPDEST POP POP POP POP PUSH1 0x40 MLOAD RETURNDATASIZE PUSH1 0x1F NOT PUSH1 0x1F DUP3 ADD AND DUP3 ADD DUP1 PUSH1 0x40 MSTORE POP DUP2 ADD SWAP1 PUSH2 0x2C95 SWAP2 SWAP1 PUSH2 0x3906 JUMP JUMPDEST SWAP1 POP JUMPDEST DUP5 MLOAD PUSH1 0x40 MLOAD PUSH4 0xDB006A75 PUSH1 0xE0 SHL DUP2 MSTORE PUSH1 0x0 SWAP2 PUSH1 0x1 PUSH1 0x1 PUSH1 0xA0 SHL SUB AND SWAP1 PUSH4 0xDB006A75 SWAP1 PUSH2 0x2CC8 SWAP1 DUP8 SWAP1 PUSH1 0x4 ADD PUSH2 0x3D3A JUMP JUMPDEST PUSH1 0x20 PUSH1 0x40 MLOAD DUP1 DUP4 SUB DUP2 PUSH1 0x0 DUP8 DUP1 EXTCODESIZE ISZERO DUP1 ISZERO PUSH2 0x2CE2 JUMPI PUSH1 0x0 DUP1 REVERT JUMPDEST POP GAS CALL ISZERO DUP1 ISZERO PUSH2 0x2CF6 JUMPI RETURNDATASIZE PUSH1 0x0 DUP1 RETURNDATACOPY RETURNDATASIZE PUSH1 0x0 REVERT JUMPDEST POP POP POP POP PUSH1 0x40 MLOAD RETURNDATASIZE PUSH1 0x1F NOT PUSH1 0x1F DUP3 ADD AND DUP3 ADD DUP1 PUSH1 0x40 MSTORE POP DUP2 ADD SWAP1 PUSH2 0x2D1A SWAP2 SWAP1 PUSH2 0x3906 JUMP JUMPDEST SWAP1 POP DUP1 ISZERO PUSH2 0x2D3A JUMPI PUSH1 0x40 MLOAD PUSH3 0x461BCD PUSH1 0xE5 SHL DUP2 MSTORE PUSH1 0x4 ADD PUSH2 0x10D SWAP1 PUSH2 0x3DAC JUMP JUMPDEST PUSH1 0x0 PUSH1 0x2 DUP8 PUSH1 0x60 ADD MLOAD PUSH1 0x4 DUP2 GT ISZERO PUSH2 0x2D4E JUMPI INVALID JUMPDEST EQ ISZERO PUSH2 0x2D5B JUMPI POP SELFBALANCE PUSH2 0x2DDD JUMP JUMPDEST DUP6 MLOAD PUSH1 0x40 MLOAD PUSH4 0x70A08231 PUSH1 0xE0 SHL DUP2 MSTORE PUSH1 0x1 PUSH1 0x1 PUSH1 0xA0 SHL SUB SWAP1 SWAP2 AND SWAP1 PUSH4 0x70A08231 SWAP1 PUSH2 0x2D8A SWAP1 ADDRESS SWAP1 PUSH1 0x4 ADD PUSH2 0x3B71 JUMP JUMPDEST PUSH1 0x20 PUSH1 0x40 MLOAD DUP1 DUP4 SUB DUP2 DUP7 DUP1 EXTCODESIZE ISZERO DUP1 ISZERO PUSH2 0x2DA2 JUMPI PUSH1 0x0 DUP1 REVERT JUMPDEST POP GAS STATICCALL ISZERO DUP1 ISZERO PUSH2 0x2DB6 JUMPI RETURNDATASIZE PUSH1 0x0 DUP1 RETURNDATACOPY RETURNDATASIZE PUSH1 0x0 REVERT JUMPDEST POP POP POP POP PUSH1 0x40 MLOAD RETURNDATASIZE PUSH1 0x1F NOT PUSH1 0x1F DUP3 ADD AND DUP3 ADD DUP1 PUSH1 0x40 MSTORE POP DUP2 ADD SWAP1 PUSH2 0x2DDA SWAP2 SWAP1 PUSH2 0x3906 JUMP JUMPDEST SWAP1 POP JUMPDEST PUSH2 0x2DEA PUSH2 0x201A DUP3 DUP6 PUSH2 0x2B47 JUMP JUMPDEST SWAP8 SWAP7 POP POP POP POP POP POP POP JUMP JUMPDEST PUSH1 0x0 DUP1 PUSH2 0x2E00 PUSH2 0x313E JUMP JUMPDEST PUSH1 0x0 SWAP4 DUP5 MSTORE PUSH1 0x20 MSTORE POP POP PUSH1 0x40 SWAP1 KECCAK256 SLOAD PUSH1 0x1 PUSH1 0x1 PUSH1 0xA0 SHL SUB AND SWAP1 JUMP JUMPDEST PUSH1 0x0 DUP1 PUSH1 0x0 PUSH2 0x2E2A DUP7 DUP6 PUSH2 0x314B JUMP JUMPDEST POP SWAP2 POP SWAP2 POP DUP5 PUSH1 0x0 EQ PUSH2 0x2EEC JUMPI PUSH1 0x0 PUSH2 0x2E43 DUP4 DUP8 PUSH2 0xDAF JUMP JUMPDEST SWAP1 POP PUSH1 0x0 DUP2 SLT ISZERO DUP1 ISZERO PUSH2 0x2E5C JUMPI POP PUSH1 0x1 PUSH1 0x1 PUSH1 0x60 SHL SUB DUP2 LT JUMPDEST PUSH2 0x2E65 JUMPI PUSH1 0x0 DUP1 REVERT JUMPDEST PUSH1 0x0 PUSH2 0x2E6F PUSH2 0x31B7 JUMP JUMPDEST PUSH1 0x1 PUSH1 0x1 PUSH1 0xA0 SHL SUB DUP10 AND PUSH1 0x0 SWAP1 DUP2 MSTORE PUSH1 0x20 SWAP2 SWAP1 SWAP2 MSTORE PUSH1 0x40 SWAP1 KECCAK256 DUP1 SLOAD PUSH12 0xFFFFFFFFFFFFFFFFFFFFFFFF NOT AND PUSH1 0x1 PUSH1 0x1 PUSH1 0x60 SHL SUB SWAP4 SWAP1 SWAP4 AND SWAP3 SWAP1 SWAP3 OR PUSH16 0xFFFFFFFFFFFFFFFFFFFFFFFFFFFFFFFF PUSH1 0x60 SHL NOT AND PUSH1 0x1 PUSH1 0x60 SHL PUSH1 0x1 PUSH1 0x1 PUSH1 0x80 SHL SUB DUP6 AND MUL OR PUSH1 0x1 PUSH1 0x1 PUSH1 0xE0 SHL SUB AND PUSH1 0x1 PUSH1 0xE0 SHL PUSH4 0xFFFFFFFF DUP9 AND MUL OR SWAP1 SWAP2 SSTORE POP JUMPDEST SWAP6 SWAP5 POP POP POP POP POP JUMP JUMPDEST PUSH1 0x0 DUP5 ISZERO DUP1 PUSH2 0x2F04 JUMPI POP DUP3 DUP6 LT ISZERO JUMPDEST ISZERO PUSH2 0x2F11 JUMPI POP PUSH1 0x0 PUSH2 0x201F JUMP JUMPDEST PUSH1 0x0 PUSH2 0x2F1C DUP9 PUSH2 0xC49 JUMP JUMPDEST POP SWAP2 SWAP4 POP POP POP DUP7 DUP6 SUB SWAP1 POP PUSH1 0x0 PUSH2 0x2F40 DUP3 PUSH2 0x2F3B DUP6 PUSH4 0x5F5E100 PUSH2 0x31C4 JUMP JUMPDEST PUSH2 0x321D JUMP JUMPDEST SWAP1 POP PUSH1 0x0 PUSH2 0x2F58 DUP4 PUSH2 0x2F52 DUP9 DUP12 PUSH2 0x2B47 JUMP JUMPDEST SWAP1 PUSH2 0x3242 JUMP JUMPDEST SWAP1 POP DUP1 PUSH2 0x2F6C JUMPI PUSH1 0x0 SWAP5 POP POP POP POP POP PUSH2 0x201F JUMP JUMPDEST PUSH1 0x0 PUSH2 0x2F7C DUP3 PUSH2 0x2F52 DUP14 DUP7 PUSH2 0x31C4 JUMP JUMPDEST SWAP1 POP PUSH2 0x2F8C DUP2 PUSH4 0x5F5E100 PUSH2 0x3242 JUMP JUMPDEST SWAP13 SWAP12 POP POP POP POP POP POP POP POP POP POP POP POP JUMP JUMPDEST PUSH2 0x4B0 PUSH20 0xCFEAEAD4947F0705A14EC42AC3D44129E1EF3ED5 DUP4 DUP4 PUSH2 0x2ADA JUMP JUMPDEST PUSH1 0x0 DUP1 PUSH6 0xFFFFFFFFFFFF DUP4 GT ISZERO PUSH2 0x2FDB JUMPI PUSH1 0x2F PUSH2 0x2FD7 DUP5 PUSH2 0x32A9 JUMP JUMPDEST SUB SWAP1 POP JUMPDEST DUP3 DUP2 SHR PUSH1 0x8 SHL OR SWAP1 POP SWAP2 SWAP1 POP JUMP JUMPDEST PUSH1 0x0 PUSH2 0x3FFF DUP5 GT ISZERO PUSH2 0x2FFA JUMPI PUSH1 0x0 DUP1 REVERT JUMPDEST PUSH5 0xFFFFFFFFFF DUP4 GT ISZERO PUSH2 0x300C JUMPI PUSH1 0x0 DUP1 REVERT JUMPDEST PUSH1 0x8 DUP3 GT ISZERO PUSH2 0x301A JUMPI PUSH1 0x0 DUP1 REVERT JUMPDEST POP PUSH8 0xFFFF000000000000 PUSH1 0x30 DUP5 SWAP1 SHL AND PUSH6 0xFFFFFFFFFF00 PUSH1 0x8 DUP5 SWAP1 SHL AND OR PUSH1 0xFF DUP3 AND OR SWAP4 SWAP3 POP POP POP JUMP JUMPDEST PUSH1 0x0 DUP1 DUP3 PUSH1 0x40 ADD MLOAD GT DUP1 ISZERO PUSH2 0x305E JUMPI POP PUSH1 0x40 DUP3 ADD MLOAD PUSH1 0x8 LT ISZERO JUMPDEST PUSH2 0x3067 JUMPI PUSH1 0x0 DUP1 REVERT JUMPDEST PUSH1 0x40 DUP3 ADD MLOAD PUSH1 0x2 LT PUSH2 0x307E JUMPI POP PUSH1 0x20 DUP2 ADD MLOAD PUSH2 0xA48 JUMP JUMPDEST PUSH1 0x0 PUSH2 0x3090 PUSH1 0x1 DUP5 PUSH1 0x40 ADD MLOAD SUB PUSH2 0x3342 JUMP JUMPDEST PUSH1 0x20 DUP5 ADD MLOAD SWAP1 SWAP2 POP PUSH2 0x805 SWAP1 PUSH3 0x76A700 SWAP1 PUSH2 0x30AB SWAP1 DUP5 PUSH2 0x2B47 JUMP JUMPDEST SWAP1 PUSH2 0x33E6 JUMP JUMPDEST PUSH1 0x0 DUP1 PUSH2 0xDC5 PUSH1 0x7 PUSH2 0x1C74 JUMP JUMPDEST PUSH1 0x40 MLOAD PUSH4 0x23B872DD PUSH1 0xE0 SHL DUP2 MSTORE PUSH1 0x1 PUSH1 0x1 PUSH1 0xA0 SHL SUB DUP5 AND SWAP1 PUSH4 0x23B872DD SWAP1 PUSH2 0x2B08 SWAP1 DUP6 SWAP1 ADDRESS SWAP1 DUP7 SWAP1 PUSH1 0x4 ADD PUSH2 0x3BCE JUMP JUMPDEST PUSH1 0x0 PUSH2 0x30F8 PUSH2 0x35B1 JUMP JUMPDEST RETURNDATASIZE DUP1 ISZERO PUSH2 0x310C JUMPI PUSH1 0x20 DUP2 EQ PUSH2 0x3115 JUMPI PUSH1 0x0 DUP1 REVERT JUMPDEST PUSH1 0x1 SWAP3 POP PUSH2 0x3120 JUMP JUMPDEST PUSH1 0x20 PUSH1 0x0 DUP4 RETURNDATACOPY DUP2 MLOAD SWAP3 POP JUMPDEST POP DUP2 PUSH2 0x4B0 JUMPI PUSH1 0x40 MLOAD PUSH3 0x461BCD PUSH1 0xE5 SHL DUP2 MSTORE PUSH1 0x4 ADD PUSH2 0x10D SWAP1 PUSH2 0x3E1D JUMP JUMPDEST PUSH1 0x0 DUP1 PUSH2 0xDC5 PUSH1 0x3 PUSH2 0x1C74 JUMP JUMPDEST PUSH1 0x0 DUP1 PUSH1 0x0 PUSH2 0x3159 DUP6 PUSH2 0x3440 JUMP JUMPDEST SWAP2 SWAP5 POP SWAP3 POP SWAP1 POP DUP1 PUSH2 0x3168 JUMPI POP DUP3 JUMPDEST DUP1 DUP5 LT ISZERO PUSH2 0x3175 JUMPI PUSH1 0x0 DUP1 REVERT JUMPDEST PUSH2 0x318B PUSH2 0x3184 DUP5 DUP4 DUP8 SUB PUSH2 0x176D JUMP JUMPDEST DUP4 SWAP1 PUSH2 0xDAF JUMP JUMPDEST SWAP2 POP PUSH1 0x1 PUSH1 0x1 PUSH1 0x80 SHL SUB DUP3 LT PUSH2 0x31A0 JUMPI PUSH1 0x0 DUP1 REVERT JUMPDEST PUSH4 0xFFFFFFFF DUP5 LT PUSH2 0x31B0 JUMPI PUSH1 0x0 DUP1 REVERT JUMPDEST SWAP3 POP SWAP3 POP SWAP3 JUMP JUMPDEST PUSH1 0x0 DUP1 PUSH2 0xDC5 PUSH1 0xE PUSH2 0x1C74 JUMP JUMPDEST PUSH1 0x0 DUP3 PUSH2 0x31D3 JUMPI POP PUSH1 0x0 PUSH2 0xDC5 JUMP JUMPDEST DUP3 DUP3 MUL DUP3 DUP5 DUP3 DUP2 PUSH2 0x31E0 JUMPI INVALID JUMPDEST DIV EQ PUSH2 0x805 JUMPI PUSH1 0x40 MLOAD PUSH3 0x461BCD PUSH1 0xE5 SHL DUP2 MSTORE PUSH1 0x4 ADD DUP1 DUP1 PUSH1 0x20 ADD DUP3 DUP2 SUB DUP3 MSTORE PUSH1 0x21 DUP2 MSTORE PUSH1 0x20 ADD DUP1 PUSH2 0x4003 PUSH1 0x21 SWAP2 CODECOPY PUSH1 0x40 ADD SWAP2 POP POP PUSH1 0x40 MLOAD DUP1 SWAP2 SUB SWAP1 REVERT JUMPDEST PUSH1 0x0 DUP1 PUSH2 0x3236 PUSH4 0x1DA9C00 PUSH2 0x2F52 DUP7 PUSH4 0x5F5E100 PUSH2 0x31C4 JUMP JUMPDEST SWAP1 POP PUSH2 0x1187 DUP2 DUP5 PUSH2 0x31C4 JUMP JUMPDEST PUSH1 0x0 DUP1 DUP3 GT PUSH2 0x3298 JUMPI PUSH1 0x40 DUP1 MLOAD PUSH3 0x461BCD PUSH1 0xE5 SHL DUP2 MSTORE PUSH1 0x20 PUSH1 0x4 DUP3 ADD MSTORE PUSH1 0x1A PUSH1 0x24 DUP3 ADD MSTORE PUSH32 0x536166654D6174683A206469766973696F6E206279207A65726F000000000000 PUSH1 0x44 DUP3 ADD MSTORE SWAP1 MLOAD SWAP1 DUP2 SWAP1 SUB PUSH1 0x64 ADD SWAP1 REVERT JUMPDEST DUP2 DUP4 DUP2 PUSH2 0x32A1 JUMPI INVALID JUMPDEST DIV SWAP4 SWAP3 POP POP POP JUMP JUMPDEST PUSH1 0x0 DUP2 PUSH2 0x32B5 JUMPI PUSH1 0x0 DUP1 REVERT JUMPDEST PUSH1 0x1 PUSH1 0x80 SHL DUP3 LT PUSH2 0x32C8 JUMPI PUSH1 0x80 SWAP2 DUP3 SHR SWAP2 ADD JUMPDEST PUSH1 0x1 PUSH1 0x40 SHL DUP3 LT PUSH2 0x32DB JUMPI PUSH1 0x40 SWAP2 DUP3 SHR SWAP2 ADD JUMPDEST PUSH5 0x100000000 DUP3 LT PUSH2 0x32EF JUMPI PUSH1 0x20 SWAP2 DUP3 SHR SWAP2 ADD JUMPDEST PUSH3 0x10000 DUP3 LT PUSH2 0x3301 JUMPI PUSH1 0x10 SWAP2 DUP3 SHR SWAP2 ADD JUMPDEST PUSH2 0x100 DUP3 LT PUSH2 0x3312 JUMPI PUSH1 0x8 SWAP2 DUP3 SHR SWAP2 ADD JUMPDEST PUSH1 0x10 DUP3 LT PUSH2 0x3322 JUMPI PUSH1 0x4 SWAP2 DUP3 SHR SWAP2 ADD JUMPDEST PUSH1 0x4 DUP3 LT PUSH2 0x3332 JUMPI PUSH1 0x2 SWAP2 DUP3 SHR SWAP2 ADD JUMPDEST PUSH1 0x2 DUP3 LT PUSH2 0xA48 JUMPI PUSH1 0x1 ADD SWAP2 SWAP1 POP JUMP JUMPDEST PUSH1 0x0 DUP2 PUSH1 0x1 EQ ISZERO PUSH2 0x3357 JUMPI POP PUSH3 0x76A700 PUSH2 0xA48 JUMP JUMPDEST DUP2 PUSH1 0x2 EQ ISZERO PUSH2 0x336A JUMPI POP PUSH3 0xED4E00 PUSH2 0xA48 JUMP JUMPDEST DUP2 PUSH1 0x3 EQ ISZERO PUSH2 0x337E JUMPI POP PUSH4 0x1DA9C00 PUSH2 0xA48 JUMP JUMPDEST DUP2 PUSH1 0x4 EQ ISZERO PUSH2 0x3392 JUMPI POP PUSH4 0x3B53800 PUSH2 0xA48 JUMP JUMPDEST DUP2 PUSH1 0x5 EQ ISZERO PUSH2 0x33A6 JUMPI POP PUSH4 0x9450C00 PUSH2 0xA48 JUMP JUMPDEST DUP2 PUSH1 0x6 EQ ISZERO PUSH2 0x33BA JUMPI POP PUSH4 0x128A1800 PUSH2 0xA48 JUMP JUMPDEST DUP2 PUSH1 0x7 EQ ISZERO PUSH2 0x33CE JUMPI POP PUSH4 0x25143000 PUSH2 0xA48 JUMP JUMPDEST PUSH1 0x40 MLOAD PUSH3 0x461BCD PUSH1 0xE5 SHL DUP2 MSTORE PUSH1 0x4 ADD PUSH2 0x10D SWAP1 PUSH2 0x3DCC JUMP JUMPDEST PUSH1 0x0 DUP3 DUP3 ADD DUP4 DUP2 LT ISZERO PUSH2 0x805 JUMPI PUSH1 0x40 DUP1 MLOAD PUSH3 0x461BCD PUSH1 0xE5 SHL DUP2 MSTORE PUSH1 0x20 PUSH1 0x4 DUP3 ADD MSTORE PUSH1 0x1B PUSH1 0x24 DUP3 ADD MSTORE PUSH32 0x536166654D6174683A206164646974696F6E206F766572666C6F770000000000 PUSH1 0x44 DUP3 ADD MSTORE SWAP1 MLOAD SWAP1 DUP2 SWAP1 SUB PUSH1 0x64 ADD SWAP1 REVERT JUMPDEST PUSH1 0x0 DUP1 PUSH1 0x0 DUP1 PUSH2 0x344E PUSH2 0x31B7 JUMP JUMPDEST PUSH1 0x1 PUSH1 0x1 PUSH1 0xA0 SHL SUB SWAP6 SWAP1 SWAP6 AND PUSH1 0x0 SWAP1 DUP2 MSTORE PUSH1 0x20 SWAP6 SWAP1 SWAP6 MSTORE POP POP PUSH1 0x40 SWAP1 SWAP3 KECCAK256 SLOAD PUSH1 0x1 PUSH1 0x1 PUSH1 0x60 SHL SUB DUP2 AND SWAP4 PUSH1 0x1 PUSH1 0x60 SHL DUP3 DIV PUSH1 0x1 PUSH1 0x1 PUSH1 0x80 SHL SUB AND SWAP4 POP PUSH1 0x1 PUSH1 0xE0 SHL SWAP1 SWAP2 DIV PUSH4 0xFFFFFFFF AND SWAP2 POP JUMP JUMPDEST PUSH1 0x40 MLOAD DUP1 PUSH2 0x120 ADD PUSH1 0x40 MSTORE DUP1 PUSH1 0x0 PUSH2 0xFFFF AND DUP2 MSTORE PUSH1 0x20 ADD PUSH1 0x0 DUP2 MSTORE PUSH1 0x20 ADD PUSH1 0x0 DUP2 MSTORE PUSH1 0x20 ADD PUSH1 0x0 DUP2 MSTORE PUSH1 0x20 ADD PUSH1 0x0 DUP2 MSTORE PUSH1 0x20 ADD PUSH1 0x0 DUP2 MSTORE PUSH1 0x20 ADD PUSH1 0x0 DUP2 MSTORE PUSH1 0x20 ADD PUSH1 0x0 DUP2 MSTORE PUSH1 0x20 ADD PUSH1 0x0 DUP2 MSTORE POP SWAP1 JUMP JUMPDEST PUSH1 0x40 DUP1 MLOAD PUSH1 0xA0 DUP2 ADD DUP3 MSTORE PUSH1 0x0 DUP1 DUP3 MSTORE PUSH1 0x20 DUP3 ADD DUP2 SWAP1 MSTORE SWAP2 DUP2 ADD DUP3 SWAP1 MSTORE PUSH1 0x60 DUP2 ADD DUP3 SWAP1 MSTORE PUSH1 0x80 DUP2 ADD SWAP2 SWAP1 SWAP2 MSTORE SWAP1 JUMP JUMPDEST PUSH1 0x40 MLOAD DUP1 PUSH1 0x80 ADD PUSH1 0x40 MSTORE DUP1 PUSH1 0x60 DUP2 MSTORE PUSH1 0x20 ADD PUSH1 0x60 DUP2 MSTORE PUSH1 0x20 ADD PUSH1 0x0 DUP2 MSTORE PUSH1 0x20 ADD PUSH1 0x0 DUP2 MSTORE POP SWAP1 JUMP JUMPDEST PUSH1 0x40 MLOAD DUP1 PUSH1 0xC0 ADD PUSH1 0x40 MSTORE DUP1 PUSH1 0x0 DUP2 MSTORE PUSH1 0x20 ADD PUSH1 0x0 DUP2 MSTORE PUSH1 0x20 ADD PUSH1 0x0 DUP2 MSTORE PUSH1 0x20 ADD PUSH1 0x0 DUP2 MSTORE PUSH1 0x20 ADD PUSH1 0x0 DUP2 MSTORE PUSH1 0x20 ADD PUSH1 0x0 PUSH1 0x3 DUP2 GT ISZERO PUSH2 0x357D JUMPI INVALID JUMPDEST SWAP1 MSTORE SWAP1 JUMP JUMPDEST PUSH1 0x40 DUP1 MLOAD PUSH1 0xA0 DUP2 ADD DUP3 MSTORE PUSH1 0x0 DUP1 DUP3 MSTORE PUSH1 0x20 DUP3 ADD DUP2 SWAP1 MSTORE SWAP2 DUP2 ADD DUP3 SWAP1 MSTORE SWAP1 PUSH1 0x60 DUP3 ADD SWAP1 DUP2 MSTORE PUSH1 0x20 ADD PUSH1 0x0 DUP2 MSTORE POP SWAP1 JUMP JUMPDEST PUSH1 0x40 MLOAD DUP1 PUSH1 0x20 ADD PUSH1 0x40 MSTORE DUP1 PUSH1 0x1 SWAP1 PUSH1 0x20 DUP3 MUL DUP1 CALLDATASIZE DUP4 CALLDATACOPY POP SWAP2 SWAP3 SWAP2 POP POP JUMP JUMPDEST DUP1 CALLDATALOAD PUSH1 0x1 PUSH1 0x1 PUSH1 0xA0 SHL SUB DUP2 AND DUP2 EQ PUSH2 0xA48 JUMPI PUSH1 0x0 DUP1 REVERT JUMPDEST PUSH1 0x0 DUP1 DUP4 PUSH1 0x1F DUP5 ADD SLT PUSH2 0x35F7 JUMPI DUP1 DUP2 REVERT JUMPDEST POP DUP2 CALLDATALOAD PUSH8 0xFFFFFFFFFFFFFFFF DUP2 GT ISZERO PUSH2 0x360E JUMPI DUP2 DUP3 REVERT JUMPDEST PUSH1 0x20 DUP4 ADD SWAP2 POP DUP4 PUSH1 0x20 DUP1 DUP4 MUL DUP6 ADD ADD GT ISZERO PUSH2 0x3628 JUMPI PUSH1 0x0 DUP1 REVERT JUMPDEST SWAP3 POP SWAP3 SWAP1 POP JUMP JUMPDEST PUSH1 0x0 DUP3 PUSH1 0x1F DUP4 ADD SLT PUSH2 0x363F JUMPI DUP1 DUP2 REVERT JUMPDEST DUP2 MLOAD PUSH1 0x20 PUSH8 0xFFFFFFFFFFFFFFFF DUP1 DUP4 GT ISZERO PUSH2 0x3656 JUMPI INVALID JUMPDEST PUSH2 0x3663 DUP3 DUP4 DUP6 MUL ADD PUSH2 0x3FBD JUMP JUMPDEST DUP4 DUP2 MSTORE DUP3 DUP2 ADD SWAP1 DUP7 DUP5 ADD PUSH1 0xC0 DUP1 DUP8 MUL DUP10 ADD DUP7 ADD DUP11 LT ISZERO PUSH2 0x3681 JUMPI DUP8 DUP9 REVERT JUMPDEST DUP8 JUMPDEST DUP8 DUP2 LT ISZERO PUSH2 0x3702 JUMPI DUP2 DUP4 DUP13 SUB SLT ISZERO PUSH2 0x3699 JUMPI DUP9 DUP10 REVERT JUMPDEST PUSH1 0x40 DUP1 MLOAD DUP4 DUP2 ADD DUP2 DUP2 LT DUP10 DUP3 GT OR ISZERO PUSH2 0x36AE JUMPI INVALID JUMPDEST DUP3 MSTORE DUP5 MLOAD DUP2 MSTORE DUP9 DUP6 ADD MLOAD DUP10 DUP3 ADD MSTORE DUP5 DUP3 ADD MLOAD SWAP2 DUP2 ADD SWAP2 SWAP1 SWAP2 MSTORE PUSH1 0x60 DUP1 DUP6 ADD MLOAD SWAP1 DUP3 ADD MSTORE PUSH1 0x80 DUP1 DUP6 ADD MLOAD SWAP1 DUP3 ADD MSTORE PUSH1 0xA0 SWAP1 PUSH2 0x36E9 DUP3 DUP7 ADD PUSH2 0x3729 JUMP JUMPDEST SWAP2 DUP2 ADD SWAP2 SWAP1 SWAP2 MSTORE DUP6 MSTORE SWAP4 DUP7 ADD SWAP4 SWAP2 DUP2 ADD SWAP2 PUSH1 0x1 ADD PUSH2 0x3683 JUMP JUMPDEST POP SWAP2 SWAP10 SWAP9 POP POP POP POP POP POP POP POP POP JUMP JUMPDEST DUP1 MLOAD PUSH1 0x1 PUSH1 0x1 PUSH1 0x70 SHL SUB NOT DUP2 AND DUP2 EQ PUSH2 0xA48 JUMPI PUSH1 0x0 DUP1 REVERT JUMPDEST DUP1 MLOAD PUSH1 0x4 DUP2 LT PUSH2 0xA48 JUMPI PUSH1 0x0 DUP1 REVERT JUMPDEST DUP1 MLOAD PUSH2 0xA48 DUP2 PUSH2 0x3FF2 JUMP JUMPDEST DUP1 MLOAD PUSH1 0xFF DUP2 AND DUP2 EQ PUSH2 0xA48 JUMPI PUSH1 0x0 DUP1 REVERT JUMPDEST PUSH1 0x0 DUP1 PUSH1 0x0 PUSH1 0x40 DUP5 DUP7 SUB SLT ISZERO PUSH2 0x3768 JUMPI DUP3 DUP4 REVERT JUMPDEST PUSH2 0x3771 DUP5 PUSH2 0x35CF JUMP JUMPDEST SWAP3 POP PUSH1 0x20 DUP5 ADD CALLDATALOAD PUSH8 0xFFFFFFFFFFFFFFFF DUP2 GT ISZERO PUSH2 0x378C JUMPI DUP3 DUP4 REVERT JUMPDEST PUSH2 0x3798 DUP7 DUP3 DUP8 ADD PUSH2 0x35E6 JUMP JUMPDEST SWAP5 SWAP8 SWAP1 SWAP7 POP SWAP4 SWAP5 POP POP POP POP JUMP JUMPDEST PUSH1 0x0 DUP1 PUSH1 0x0 DUP1 PUSH1 0x0 PUSH1 0x60 DUP7 DUP9 SUB SLT ISZERO PUSH2 0x37BC JUMPI DUP1 DUP2 REVERT JUMPDEST PUSH2 0x37C5 DUP7 PUSH2 0x35CF JUMP JUMPDEST SWAP5 POP PUSH1 0x20 DUP7 ADD CALLDATALOAD PUSH8 0xFFFFFFFFFFFFFFFF DUP1 DUP3 GT ISZERO PUSH2 0x37E1 JUMPI DUP3 DUP4 REVERT JUMPDEST PUSH2 0x37ED DUP10 DUP4 DUP11 ADD PUSH2 0x35E6 JUMP JUMPDEST SWAP1 SWAP7 POP SWAP5 POP PUSH1 0x40 DUP9 ADD CALLDATALOAD SWAP2 POP DUP1 DUP3 GT ISZERO PUSH2 0x3805 JUMPI DUP3 DUP4 REVERT JUMPDEST DUP2 DUP9 ADD SWAP2 POP DUP9 PUSH1 0x1F DUP4 ADD SLT PUSH2 0x3818 JUMPI DUP3 DUP4 REVERT JUMPDEST DUP2 CALLDATALOAD DUP2 DUP2 GT ISZERO PUSH2 0x3826 JUMPI DUP4 DUP5 REVERT JUMPDEST DUP10 PUSH1 0x20 DUP3 DUP6 ADD ADD GT ISZERO PUSH2 0x3837 JUMPI DUP4 DUP5 REVERT JUMPDEST SWAP7 SWAP10 SWAP6 SWAP9 POP SWAP4 SWAP7 POP PUSH1 0x20 ADD SWAP5 SWAP4 SWAP3 POP POP POP JUMP JUMPDEST PUSH1 0x0 DUP1 PUSH1 0x0 PUSH1 0x40 DUP5 DUP7 SUB SLT ISZERO PUSH2 0x385E JUMPI DUP3 DUP4 REVERT JUMPDEST PUSH2 0x3867 DUP5 PUSH2 0x35CF JUMP JUMPDEST SWAP3 POP PUSH1 0x20 DUP5 ADD CALLDATALOAD PUSH8 0xFFFFFFFFFFFFFFFF DUP1 DUP3 GT ISZERO PUSH2 0x3883 JUMPI DUP4 DUP5 REVERT JUMPDEST DUP2 DUP7 ADD SWAP2 POP DUP7 PUSH1 0x1F DUP4 ADD SLT PUSH2 0x3896 JUMPI DUP4 DUP5 REVERT JUMPDEST DUP2 CALLDATALOAD DUP2 DUP2 GT ISZERO PUSH2 0x38A4 JUMPI DUP5 DUP6 REVERT JUMPDEST DUP8 PUSH1 0x20 PUSH1 0xC0 DUP4 MUL DUP6 ADD ADD GT ISZERO PUSH2 0x38B8 JUMPI DUP5 DUP6 REVERT JUMPDEST PUSH1 0x20 DUP4 ADD SWAP5 POP DUP1 SWAP4 POP POP POP POP SWAP3 POP SWAP3 POP SWAP3 JUMP JUMPDEST PUSH1 0x0 PUSH1 0x20 DUP3 DUP5 SUB SLT ISZERO PUSH2 0x38DC JUMPI DUP1 DUP2 REVERT JUMPDEST DUP2 CALLDATALOAD PUSH2 0x805 DUP2 PUSH2 0x3FE1 JUMP JUMPDEST PUSH1 0x0 PUSH1 0x20 DUP3 DUP5 SUB SLT ISZERO PUSH2 0x38F8 JUMPI DUP1 DUP2 REVERT JUMPDEST DUP2 CALLDATALOAD PUSH1 0x7 DUP2 LT PUSH2 0x805 JUMPI DUP2 DUP3 REVERT JUMPDEST PUSH1 0x0 PUSH1 0x20 DUP3 DUP5 SUB SLT ISZERO PUSH2 0x3917 JUMPI DUP1 DUP2 REVERT JUMPDEST POP MLOAD SWAP2 SWAP1 POP JUMP JUMPDEST PUSH1 0x0 DUP1 PUSH1 0x40 DUP4 DUP6 SUB SLT ISZERO PUSH2 0x3930 JUMPI DUP2 DUP3 REVERT JUMPDEST DUP3 MLOAD SWAP2 POP PUSH1 0x20 DUP4 ADD MLOAD PUSH2 0x3942 DUP2 PUSH2 0x3FE1 JUMP JUMPDEST DUP1 SWAP2 POP POP SWAP3 POP SWAP3 SWAP1 POP JUMP JUMPDEST PUSH1 0x0 PUSH1 0xA0 DUP3 DUP5 SUB SLT ISZERO PUSH2 0x395E JUMPI DUP1 DUP2 REVERT JUMPDEST PUSH1 0x40 MLOAD PUSH1 0xA0 DUP2 ADD DUP2 DUP2 LT PUSH8 0xFFFFFFFFFFFFFFFF DUP3 GT OR ISZERO PUSH2 0x397B JUMPI INVALID JUMPDEST PUSH1 0x40 MSTORE DUP3 MLOAD PUSH5 0xFFFFFFFFFF DUP2 AND DUP2 EQ PUSH2 0x3992 JUMPI DUP3 DUP4 REVERT JUMPDEST DUP2 MSTORE PUSH1 0x20 DUP4 ADD MLOAD PUSH1 0x1 PUSH1 0x1 PUSH1 0xF8 SHL SUB NOT DUP2 AND DUP2 EQ PUSH2 0x39AE JUMPI DUP3 DUP4 REVERT JUMPDEST PUSH1 0x20 DUP3 ADD MSTORE PUSH2 0x39BF PUSH1 0x40 DUP5 ADD PUSH2 0x3743 JUMP JUMPDEST PUSH1 0x40 DUP3 ADD MSTORE PUSH2 0x39D0 PUSH1 0x60 DUP5 ADD PUSH2 0x3738 JUMP JUMPDEST PUSH1 0x60 DUP3 ADD MSTORE PUSH2 0x39E1 PUSH1 0x80 DUP5 ADD PUSH2 0x3711 JUMP JUMPDEST PUSH1 0x80 DUP3 ADD MSTORE SWAP4 SWAP3 POP POP POP JUMP JUMPDEST PUSH1 0x0 DUP1 PUSH1 0x40 DUP4 DUP6 SUB SLT ISZERO PUSH2 0x39FF JUMPI DUP2 DUP3 REVERT JUMPDEST DUP3 MLOAD PUSH8 0xFFFFFFFFFFFFFFFF DUP1 DUP3 GT ISZERO PUSH2 0x3A16 JUMPI DUP4 DUP5 REVERT JUMPDEST SWAP1 DUP5 ADD SWAP1 PUSH1 0x80 DUP3 DUP8 SUB SLT ISZERO PUSH2 0x3A29 JUMPI DUP4 DUP5 REVERT JUMPDEST PUSH1 0x40 MLOAD PUSH1 0x80 DUP2 ADD DUP2 DUP2 LT DUP4 DUP3 GT OR ISZERO PUSH2 0x3A3E JUMPI INVALID JUMPDEST PUSH1 0x40 MSTORE DUP3 MLOAD DUP3 DUP2 GT ISZERO PUSH2 0x3A4F JUMPI DUP6 DUP7 REVERT JUMPDEST PUSH2 0x3A5B DUP9 DUP3 DUP7 ADD PUSH2 0x362F JUMP JUMPDEST DUP3 MSTORE POP PUSH1 0x20 DUP4 ADD MLOAD DUP3 DUP2 GT ISZERO PUSH2 0x3A6F JUMPI DUP6 DUP7 REVERT JUMPDEST PUSH2 0x3A7B DUP9 DUP3 DUP7 ADD PUSH2 0x362F JUMP JUMPDEST PUSH1 0x20 DUP4 ADD MSTORE POP PUSH1 0x40 DUP4 ADD MLOAD PUSH1 0x40 DUP3 ADD MSTORE PUSH1 0x60 DUP4 ADD MLOAD PUSH1 0x60 DUP3 ADD MSTORE DUP1 SWAP5 POP POP POP POP PUSH1 0x20 DUP4 ADD MLOAD SWAP1 POP SWAP3 POP SWAP3 SWAP1 POP JUMP JUMPDEST PUSH1 0x0 PUSH1 0x20 DUP3 DUP5 SUB SLT ISZERO PUSH2 0x3ABA JUMPI DUP1 DUP2 REVERT JUMPDEST DUP2 CALLDATALOAD PUSH2 0x805 DUP2 PUSH2 0x3FF2 JUMP JUMPDEST DUP2 DUP4 MSTORE PUSH1 0x0 PUSH1 0x1 PUSH1 0x1 PUSH1 0xFB SHL SUB DUP4 GT ISZERO PUSH2 0x3ADD JUMPI DUP1 DUP2 REVERT JUMPDEST PUSH1 0x20 DUP4 MUL DUP1 DUP4 PUSH1 0x20 DUP8 ADD CALLDATACOPY SWAP4 SWAP1 SWAP4 ADD PUSH1 0x20 ADD SWAP3 DUP4 MSTORE POP SWAP1 SWAP2 SWAP1 POP JUMP JUMPDEST PUSH1 0x0 DUP2 MLOAD DUP1 DUP5 MSTORE PUSH1 0x20 DUP1 DUP6 ADD SWAP5 POP DUP1 DUP5 ADD DUP4 JUMPDEST DUP4 DUP2 LT ISZERO PUSH2 0x3B66 JUMPI DUP2 MLOAD DUP1 MLOAD DUP9 MSTORE DUP4 DUP2 ADD MLOAD DUP5 DUP10 ADD MSTORE PUSH1 0x40 DUP1 DUP3 ADD MLOAD SWAP1 DUP10 ADD MSTORE PUSH1 0x60 DUP1 DUP3 ADD MLOAD SWAP1 DUP10 ADD MSTORE PUSH1 0x80 DUP1 DUP3 ADD MLOAD SWAP1 DUP10 ADD MSTORE PUSH1 0xA0 SWAP1 DUP2 ADD MLOAD SWAP1 PUSH1 0x4 DUP3 LT PUSH2 0x3B51 JUMPI INVALID JUMPDEST DUP9 ADD MSTORE PUSH1 0xC0 SWAP1 SWAP7 ADD SWAP6 SWAP1 DUP3 ADD SWAP1 PUSH1 0x1 ADD PUSH2 0x3B0C JUMP JUMPDEST POP SWAP5 SWAP6 SWAP5 POP POP POP POP POP JUMP JUMPDEST PUSH1 0x1 PUSH1 0x1 PUSH1 0xA0 SHL SUB SWAP2 SWAP1 SWAP2 AND DUP2 MSTORE PUSH1 0x20 ADD SWAP1 JUMP JUMPDEST PUSH1 0x1 PUSH1 0x1 PUSH1 0xA0 SHL SUB DUP6 DUP2 AND DUP3 MSTORE DUP5 AND PUSH1 0x20 DUP3 ADD MSTORE PUSH1 0x60 PUSH1 0x40 DUP3 ADD DUP2 SWAP1 MSTORE DUP2 ADD DUP3 SWAP1 MSTORE PUSH1 0x0 DUP3 DUP5 PUSH1 0x80 DUP5 ADD CALLDATACOPY DUP2 DUP4 ADD PUSH1 0x80 SWAP1 DUP2 ADD SWAP2 SWAP1 SWAP2 MSTORE PUSH1 0x1F SWAP1 SWAP3 ADD PUSH1 0x1F NOT AND ADD ADD SWAP4 SWAP3 POP POP POP JUMP JUMPDEST PUSH1 0x1 PUSH1 0x1 PUSH1 0xA0 SHL SUB SWAP4 DUP5 AND DUP2 MSTORE SWAP2 SWAP1 SWAP3 AND PUSH1 0x20 DUP3 ADD MSTORE PUSH1 0x40 DUP2 ADD SWAP2 SWAP1 SWAP2 MSTORE PUSH1 0x60 ADD SWAP1 JUMP JUMPDEST PUSH1 0x1 PUSH1 0x1 PUSH1 0xA0 SHL SUB SWAP3 SWAP1 SWAP3 AND DUP3 MSTORE DUP1 MLOAD PUSH5 0xFFFFFFFFFF AND PUSH1 0x20 DUP1 DUP5 ADD SWAP2 SWAP1 SWAP2 MSTORE DUP2 ADD MLOAD PUSH1 0x1 PUSH1 0x1 PUSH1 0xF8 SHL SUB NOT AND PUSH1 0x40 DUP1 DUP5 ADD SWAP2 SWAP1 SWAP2 MSTORE DUP2 ADD MLOAD PUSH1 0xFF AND PUSH1 0x60 DUP1 DUP5 ADD SWAP2 SWAP1 SWAP2 MSTORE DUP2 ADD MLOAD PUSH2 0xFFFF AND PUSH1 0x80 DUP1 DUP5 ADD SWAP2 SWAP1 SWAP2 MSTORE ADD MLOAD PUSH1 0x1 PUSH1 0x1 PUSH1 0x70 SHL SUB NOT AND PUSH1 0xA0 DUP3 ADD MSTORE PUSH1 0xC0 ADD SWAP1 JUMP JUMPDEST PUSH1 0x0 PUSH1 0x1 DUP1 PUSH1 0xA0 SHL SUB DUP8 AND DUP3 MSTORE PUSH2 0xFFFF DUP7 AND PUSH1 0x20 DUP4 ADD MSTORE PUSH1 0x80 PUSH1 0x40 DUP4 ADD MSTORE DUP5 MLOAD PUSH1 0x80 DUP1 DUP5 ADD MSTORE PUSH2 0x3C92 PUSH2 0x100 DUP5 ADD DUP3 PUSH2 0x3AF9 JUMP JUMPDEST SWAP1 POP PUSH1 0x20 DUP7 ADD MLOAD PUSH1 0x7F NOT DUP5 DUP4 SUB ADD PUSH1 0xA0 DUP6 ADD MSTORE PUSH2 0x3CAF DUP3 DUP3 PUSH2 0x3AF9 JUMP JUMPDEST SWAP2 POP POP PUSH1 0x40 DUP7 ADD MLOAD PUSH1 0xC0 DUP5 ADD MSTORE PUSH1 0x60 DUP7 ADD MLOAD PUSH1 0xE0 DUP5 ADD MSTORE DUP3 DUP2 SUB PUSH1 0x60 DUP5 ADD MSTORE PUSH2 0x3CD9 DUP2 DUP6 DUP8 PUSH2 0x3AC5 JUMP JUMPDEST SWAP9 SWAP8 POP POP POP POP POP POP POP POP JUMP JUMPDEST PUSH1 0x1 PUSH1 0x1 PUSH1 0xA0 SHL SUB DUP7 AND DUP2 MSTORE PUSH2 0xFFFF DUP6 AND PUSH1 0x20 DUP3 ADD MSTORE PUSH5 0xFFFFFFFFFF DUP5 AND PUSH1 0x40 DUP3 ADD MSTORE PUSH1 0x80 PUSH1 0x60 DUP3 ADD DUP2 SWAP1 MSTORE PUSH1 0x0 SWAP1 PUSH2 0x2DEA SWAP1 DUP4 ADD DUP5 DUP7 PUSH2 0x3AC5 JUMP JUMPDEST PUSH1 0x1 PUSH1 0x1 PUSH1 0xA0 SHL SUB SWAP3 SWAP1 SWAP3 AND DUP3 MSTORE PUSH1 0x20 DUP3 ADD MSTORE PUSH1 0x40 ADD SWAP1 JUMP JUMPDEST SWAP1 DUP2 MSTORE PUSH1 0x20 ADD SWAP1 JUMP JUMPDEST PUSH1 0x20 DUP1 DUP3 MSTORE PUSH1 0xC SWAP1 DUP3 ADD MSTORE PUSH12 0x155B985D5D1A1BDC9A5E9959 PUSH1 0xA2 SHL PUSH1 0x40 DUP3 ADD MSTORE PUSH1 0x60 ADD SWAP1 JUMP JUMPDEST PUSH1 0x20 DUP1 DUP3 MSTORE PUSH1 0x4 SWAP1 DUP3 ADD MSTORE PUSH4 0x135A5B9D PUSH1 0xE2 SHL PUSH1 0x40 DUP3 ADD MSTORE PUSH1 0x60 ADD SWAP1 JUMP JUMPDEST PUSH1 0x20 DUP1 DUP3 MSTORE PUSH1 0xB SWAP1 DUP3 ADD MSTORE PUSH11 0x4554482042616C616E6365 PUSH1 0xA8 SHL PUSH1 0x40 DUP3 ADD MSTORE PUSH1 0x60 ADD SWAP1 JUMP JUMPDEST PUSH1 0x20 DUP1 DUP3 MSTORE PUSH1 0x6 SWAP1 DUP3 ADD MSTORE PUSH6 0x52656465656D PUSH1 0xD0 SHL PUSH1 0x40 DUP3 ADD MSTORE PUSH1 0x60 ADD SWAP1 JUMP JUMPDEST PUSH1 0x20 DUP1 DUP3 MSTORE PUSH1 0xD SWAP1 DUP3 ADD MSTORE PUSH13 0x92DCECC2D8D2C840D2DCC8CAF PUSH1 0x9B SHL PUSH1 0x40 DUP3 ADD MSTORE PUSH1 0x60 ADD SWAP1 JUMP JUMPDEST PUSH1 0x20 DUP1 DUP3 MSTORE PUSH1 0x10 SWAP1 DUP3 ADD MSTORE PUSH16 0x556E736F7274656420616374696F6E73 PUSH1 0x80 SHL PUSH1 0x40 DUP3 ADD MSTORE PUSH1 0x60 ADD SWAP1 JUMP JUMPDEST PUSH1 0x20 DUP1 DUP3 MSTORE PUSH1 0x5 SWAP1 DUP3 ADD MSTORE PUSH5 0x455243323 PUSH1 0xDC SHL PUSH1 0x40 DUP3 ADD MSTORE PUSH1 0x60 ADD SWAP1 JUMP JUMPDEST PUSH1 0x20 DUP1 DUP3 MSTORE PUSH1 0x1A SWAP1 DUP3 ADD MSTORE PUSH32 0x496E73756666696369656E7420746F6B656E2062616C616E6365000000000000 PUSH1 0x40 DUP3 ADD MSTORE PUSH1 0x60 ADD SWAP1 JUMP JUMPDEST PUSH1 0x20 DUP1 DUP3 MSTORE PUSH1 0xE SWAP1 DUP3 ADD MSTORE PUSH14 0x1499595B9D1C985B9D0818D85B1B PUSH1 0x92 SHL PUSH1 0x40 DUP3 ADD MSTORE PUSH1 0x60 ADD SWAP1 JUMP JUMPDEST PUSH1 0x20 DUP1 DUP3 MSTORE PUSH1 0x8 SWAP1 DUP3 ADD MSTORE PUSH8 0x9CCACE4086C2E6D PUSH1 0xC3 SHL PUSH1 0x40 DUP3 ADD MSTORE PUSH1 0x60 ADD SWAP1 JUMP JUMPDEST PUSH1 0x20 DUP1 DUP3 MSTORE PUSH1 0x1A SWAP1 DUP3 ADD MSTORE PUSH32 0x496E76616C69642074726164657320666F72206163636F756E74000000000000 PUSH1 0x40 DUP3 ADD MSTORE PUSH1 0x60 ADD SWAP1 JUMP JUMPDEST PUSH1 0x20 DUP1 DUP3 MSTORE PUSH1 0xA SWAP1 DUP3 ADD MSTORE PUSH10 0x2732B390372A37B5B2B7 PUSH1 0xB1 SHL PUSH1 0x40 DUP3 ADD MSTORE PUSH1 0x60 ADD SWAP1 JUMP JUMPDEST PUSH1 0x20 DUP1 DUP3 MSTORE PUSH1 0x11 SWAP1 DUP3 ADD MSTORE PUSH17 0x92DCE6EACCCCD2C6D2CADCE840C6C2E6D PUSH1 0x7B SHL PUSH1 0x40 DUP3 ADD MSTORE PUSH1 0x60 ADD SWAP1 JUMP JUMPDEST PUSH2 0xFFFF SWAP3 SWAP1 SWAP3 AND DUP3 MSTORE PUSH1 0x20 DUP3 ADD MSTORE PUSH1 0x40 ADD SWAP1 JUMP JUMPDEST PUSH1 0x0 DUP1 DUP4 CALLDATALOAD PUSH1 0x1E NOT DUP5 CALLDATASIZE SUB ADD DUP2 SLT PUSH2 0x3F6D JUMPI DUP3 DUP4 REVERT JUMPDEST DUP4 ADD DUP1 CALLDATALOAD SWAP2 POP PUSH8 0xFFFFFFFFFFFFFFFF DUP3 GT ISZERO PUSH2 0x3F87 JUMPI DUP3 DUP4 REVERT JUMPDEST PUSH1 0x20 SWAP1 DUP2 ADD SWAP3 POP DUP2 MUL CALLDATASIZE SUB DUP3 SGT ISZERO PUSH2 0x3628 JUMPI PUSH1 0x0 DUP1 REVERT JUMPDEST PUSH1 0x0 DUP3 CALLDATALOAD PUSH1 0xDE NOT DUP4 CALLDATASIZE SUB ADD DUP2 SLT PUSH2 0x3FB3 JUMPI DUP2 DUP3 REVERT JUMPDEST SWAP2 SWAP1 SWAP2 ADD SWAP3 SWAP2 POP POP JUMP JUMPDEST PUSH1 0x40 MLOAD DUP2 DUP2 ADD PUSH8 0xFFFFFFFFFFFFFFFF DUP2 GT DUP3 DUP3 LT OR ISZERO PUSH2 0x3FD9 JUMPI INVALID JUMPDEST PUSH1 0x40 MSTORE SWAP2 SWAP1 POP JUMP JUMPDEST DUP1 ISZERO ISZERO DUP2 EQ PUSH2 0x3FEF JUMPI PUSH1 0x0 DUP1 REVERT JUMPDEST POP JUMP JUMPDEST PUSH2 0xFFFF DUP2 AND DUP2 EQ PUSH2 0x3FEF JUMPI PUSH1 0x0 DUP1 REVERT INVALID MSTORE8 PUSH2 0x6665 0x4D PUSH2 0x7468 GASPRICE KECCAK256 PUSH14 0x756C7469706C69636174696F6E20 PUSH16 0x766572666C6F77A26469706673582212 KECCAK256 BYTE POP 0xAD 0xC8 LOG4 SWAP4 0xEA 0xB0 EXTCODECOPY SELFDESTRUCT STOP 0xA5 PUSH12 0x82395BD1838433AC78DD8075 0xBB 0x25 0xFB SWAP4 0xB7 SWAP6 0xDF PUSH5 0x736F6C6343 STOP SMOD MOD STOP CALLER ","sha1":"04e361760fb35a0a99f8db83ad83fa11c373f445","source":"// SPDX-License-Identifier: GPL-3.0-only\npragma solidity ^0.7.0;\npragma abicoder v2;\n\nimport \"./TradingAction.sol\";\nimport \"./ActionGuards.sol\";\nimport \"./nTokenMintAction.sol\";\nimport \"./nTokenRedeemAction.sol\";\nimport \"../SettleAssetsExternal.sol\";\nimport \"../FreeCollateralExternal.sol\";\nimport \"../../math/SafeInt256.sol\";\nimport \"../../global/StorageLayoutV1.sol\";\nimport \"../../internal/balances/BalanceHandler.sol\";\nimport \"../../internal/portfolio/PortfolioHandler.sol\";\nimport \"../../internal/AccountContextHandler.sol\";\nimport \"interfaces/notional/NotionalCallback.sol\";\n\ncontract BatchAction is StorageLayoutV1, ActionGuards {\n    using BalanceHandler for BalanceState;\n    using PortfolioHandler for PortfolioState;\n    using AccountContextHandler for AccountContext;\n    using SafeInt256 for int256;\n\n    /// @notice Executes a batch of balance transfers including minting and redeeming nTokens.\n    /// @param account the account for the action\n    /// @param actions array of balance actions to take, must be sorted by currency id\n    /// @dev emit:CashBalanceChange, emit:nTokenSupplyChange\n    /// @dev auth:msg.sender auth:ERC1155\n    function batchBalanceAction(address account, BalanceAction[] calldata actions)\n        external\n        payable\n        nonReentrant\n    {\n        require(account == msg.sender || msg.sender == address(this), \"Unauthorized\");\n        requireValidAccount(account);\n\n        // Return any settle amounts here to reduce the number of storage writes to balances\n        AccountContext memory accountContext = _settleAccountIfRequired(account);\n        BalanceState memory balanceState;\n\n        for (uint256 i = 0; i < actions.length; i++) {\n            BalanceAction calldata action = actions[i];\n            // msg.value will only be used when currency id == 1, referencing ETH. The requirement\n            // to sort actions by increasing id enforces that msg.value will only be used once.\n            if (i > 0) {\n                require(action.currencyId > actions[i - 1].currencyId, \"Unsorted actions\");\n            }\n            // Loads the currencyId into balance state\n            balanceState.loadBalanceState(account, action.currencyId, accountContext);\n\n            _executeDepositAction(\n                account,\n                balanceState,\n                action.actionType,\n                action.depositActionAmount\n            );\n\n            _calculateWithdrawActionAndFinalize(\n                account,\n                accountContext,\n                balanceState,\n                action.withdrawAmountInternalPrecision,\n                action.withdrawEntireCashBalance,\n                action.redeemToUnderlying\n            );\n        }\n\n        _finalizeAccountContext(account, accountContext);\n    }\n\n    /// @notice Executes a batch of balance transfers and trading actions\n    /// @param account the account for the action\n    /// @param actions array of balance actions with trades to take, must be sorted by currency id\n    /// @dev emit:CashBalanceChange, emit:nTokenSupplyChange, emit:LendBorrowTrade, emit:AddRemoveLiquidity,\n    /// @dev emit:SettledCashDebt, emit:nTokenResidualPurchase, emit:ReserveFeeAccrued\n    /// @dev auth:msg.sender auth:ERC1155\n    function batchBalanceAndTradeAction(address account, BalanceActionWithTrades[] calldata actions)\n        external\n        payable\n        nonReentrant\n    {\n        require(account == msg.sender || msg.sender == address(this), \"Unauthorized\");\n        requireValidAccount(account);\n        AccountContext memory accountContext = _batchBalanceAndTradeAction(account, actions);\n        _finalizeAccountContext(account, accountContext);\n    }\n\n    /// @notice Executes a batch of balance transfers and trading actions via an authorized callback contract. This\n    /// can be used as a \"flash loan\" facility for special contracts that migrate assets between protocols or perform\n    /// other actions on behalf of the user.\n    /// Contracts can borrow from Notional and receive a callback prior to an FC check, this can be useful if the contract\n    /// needs to perform a trade or repay a debt on a different protocol before depositing collateral. Since Notional's AMM\n    /// will never be as capital efficient or gas efficient as other flash loan facilities, this method requires whitelisting\n    /// and will mainly be used for contracts that make migrating assets a better user experience.\n    /// @param account the account that will take all the actions\n    /// @param actions array of balance actions with trades to take, must be sorted by currency id\n    /// @param callbackData arbitrary bytes to be passed backed to the caller in the callback\n    /// @dev emit:CashBalanceChange, emit:nTokenSupplyChange, emit:LendBorrowTrade, emit:AddRemoveLiquidity,\n    /// @dev emit:SettledCashDebt, emit:nTokenResidualPurchase, emit:ReserveFeeAccrued\n    /// @dev auth:authorizedCallbackContract\n    function batchBalanceAndTradeActionWithCallback(\n        address account,\n        BalanceActionWithTrades[] calldata actions,\n        bytes calldata callbackData\n    ) external payable {\n        // NOTE: Re-entrancy is allowed for authorized callback functions.\n        require(authorizedCallbackContract[msg.sender], \"Unauthorized\");\n        requireValidAccount(account);\n\n        AccountContext memory accountContext = _batchBalanceAndTradeAction(account, actions);\n        accountContext.setAccountContext(account);\n\n        // Be sure to set the account context before initiating the callback, all stateful updates\n        // have been finalized at this point so we are safe to issue a callback. This callback may\n        // re-enter Notional safely to deposit or take other actions.\n        NotionalCallback(msg.sender).notionalCallback(msg.sender, account, callbackData);\n\n        if (accountContext.hasDebt != 0x00) {\n            // NOTE: this method may update the account context to turn off the hasDebt flag, this\n            // is ok because the worst case would be causing an extra free collateral check when it\n            // is not required. This check will be entered if the account hasDebt prior to the callback\n            // being triggered above, so it will happen regardless of what the callback function does.\n            FreeCollateralExternal.checkFreeCollateralAndRevert(account);\n        }\n    }\n\n    function _batchBalanceAndTradeAction(\n        address account,\n        BalanceActionWithTrades[] calldata actions\n    ) internal returns (AccountContext memory) {\n        AccountContext memory accountContext = _settleAccountIfRequired(account);\n        BalanceState memory balanceState;\n        // NOTE: loading the portfolio state must happen after settle account to get the\n        // correct portfolio, it will have changed if the account is settled.\n        PortfolioState memory portfolioState = PortfolioHandler.buildPortfolioState(\n            account,\n            accountContext.assetArrayLength,\n            0\n        );\n\n        for (uint256 i = 0; i < actions.length; i++) {\n            BalanceActionWithTrades calldata action = actions[i];\n            // msg.value will only be used when currency id == 1, referencing ETH. The requirement\n            // to sort actions by increasing id enforces that msg.value will only be used once.\n            if (i > 0) {\n                require(action.currencyId > actions[i - 1].currencyId, \"Unsorted actions\");\n            }\n            // Loads the currencyId into balance state\n            balanceState.loadBalanceState(account, action.currencyId, accountContext);\n\n            // Does not revert on invalid action types here, they also have no effect.\n            _executeDepositAction(\n                account,\n                balanceState,\n                action.actionType,\n                action.depositActionAmount\n            );\n\n            if (action.trades.length > 0) {\n                int256 netCash;\n                if (accountContext.isBitmapEnabled()) {\n                    require(\n                        accountContext.bitmapCurrencyId == action.currencyId,\n                        \"Invalid trades for account\"\n                    );\n                    bool didIncurDebt;\n                    (netCash, didIncurDebt) = TradingAction.executeTradesBitmapBatch(\n                        account,\n                        accountContext.bitmapCurrencyId,\n                        accountContext.nextSettleTime,\n                        action.trades\n                    );\n                    if (didIncurDebt) {\n                        accountContext.hasDebt = Constants.HAS_ASSET_DEBT | accountContext.hasDebt;\n                    }\n                } else {\n                    // NOTE: we return portfolio state here instead of setting it inside executeTradesArrayBatch\n                    // because we want to only write to storage once after all trades are completed\n                    (portfolioState, netCash) = TradingAction.executeTradesArrayBatch(\n                        account,\n                        action.currencyId,\n                        portfolioState,\n                        action.trades\n                    );\n                }\n\n                // If the account owes cash after trading, ensure that it has enough\n                if (netCash < 0) _checkSufficientCash(balanceState, netCash.neg());\n                balanceState.netCashChange = balanceState.netCashChange.add(netCash);\n            }\n\n            _calculateWithdrawActionAndFinalize(\n                account,\n                accountContext,\n                balanceState,\n                action.withdrawAmountInternalPrecision,\n                action.withdrawEntireCashBalance,\n                action.redeemToUnderlying\n            );\n        }\n\n        // Update the portfolio state if bitmap is not enabled. If bitmap is already enabled\n        // then all the assets have already been updated in in storage.\n        if (!accountContext.isBitmapEnabled()) {\n            // NOTE: account context is updated in memory inside this method call.\n            accountContext.storeAssetsAndUpdateContext(account, portfolioState, false);\n        }\n\n        // NOTE: free collateral and account context will be set outside of this method call.\n        return accountContext;\n    }\n\n    /// @dev Executes deposits\n    function _executeDepositAction(\n        address account,\n        BalanceState memory balanceState,\n        DepositActionType depositType,\n        uint256 depositActionAmount_\n    ) private {\n        int256 depositActionAmount = SafeInt256.toInt(depositActionAmount_);\n        int256 assetInternalAmount;\n        require(depositActionAmount >= 0);\n\n        if (depositType == DepositActionType.None) {\n            return;\n        } else if (\n            depositType == DepositActionType.DepositAsset ||\n            depositType == DepositActionType.DepositAssetAndMintNToken\n        ) {\n            // NOTE: this deposit will NOT revert on a failed transfer unless there is a\n            // transfer fee. The actual transfer will take effect later in balanceState.finalize\n            assetInternalAmount = balanceState.depositAssetToken(\n                account,\n                depositActionAmount,\n                false // no force transfer\n            );\n        } else if (\n            depositType == DepositActionType.DepositUnderlying ||\n            depositType == DepositActionType.DepositUnderlyingAndMintNToken\n        ) {\n            // NOTE: this deposit will revert on a failed transfer immediately\n            assetInternalAmount = balanceState.depositUnderlyingToken(account, depositActionAmount);\n        } else if (depositType == DepositActionType.ConvertCashToNToken) {\n            // _executeNTokenAction will check if the account has sufficient cash\n            assetInternalAmount = depositActionAmount;\n        }\n\n        _executeNTokenAction(\n            balanceState,\n            depositType,\n            depositActionAmount,\n            assetInternalAmount\n        );\n    }\n\n    /// @dev Executes nToken actions\n    function _executeNTokenAction(\n        BalanceState memory balanceState,\n        DepositActionType depositType,\n        int256 depositActionAmount,\n        int256 assetInternalAmount\n    ) private {\n        // After deposits have occurred, check if we are minting nTokens\n        if (\n            depositType == DepositActionType.DepositAssetAndMintNToken ||\n            depositType == DepositActionType.DepositUnderlyingAndMintNToken ||\n            depositType == DepositActionType.ConvertCashToNToken\n        ) {\n            // Will revert if trying to mint ntokens and results in a negative cash balance\n            _checkSufficientCash(balanceState, assetInternalAmount);\n            balanceState.netCashChange = balanceState.netCashChange.sub(assetInternalAmount);\n\n            // Converts a given amount of cash (denominated in internal precision) into nTokens\n            int256 tokensMinted = nTokenMintAction.nTokenMint(\n                balanceState.currencyId,\n                assetInternalAmount\n            );\n\n            balanceState.netNTokenSupplyChange = balanceState.netNTokenSupplyChange.add(\n                tokensMinted\n            );\n        } else if (depositType == DepositActionType.RedeemNToken) {\n            require(\n                // prettier-ignore\n                balanceState\n                    .storedNTokenBalance\n                    .add(balanceState.netNTokenTransfer) // transfers would not occur at this point\n                    .add(balanceState.netNTokenSupplyChange) >= depositActionAmount,\n                \"Insufficient token balance\"\n            );\n\n            balanceState.netNTokenSupplyChange = balanceState.netNTokenSupplyChange.sub(\n                depositActionAmount\n            );\n\n            int256 assetCash = nTokenRedeemAction.nTokenRedeemViaBatch(\n                balanceState.currencyId,\n                depositActionAmount\n            );\n\n            balanceState.netCashChange = balanceState.netCashChange.add(assetCash);\n        }\n    }\n\n    /// @dev Calculations any withdraws and finalizes balances\n    function _calculateWithdrawActionAndFinalize(\n        address account,\n        AccountContext memory accountContext,\n        BalanceState memory balanceState,\n        uint256 withdrawAmountInternalPrecision,\n        bool withdrawEntireCashBalance,\n        bool redeemToUnderlying\n    ) private {\n        int256 withdrawAmount = SafeInt256.toInt(withdrawAmountInternalPrecision);\n        require(withdrawAmount >= 0); // dev: withdraw action overflow\n\n        // NOTE: if withdrawEntireCashBalance is set it will override the withdrawAmountInternalPrecision input\n        if (withdrawEntireCashBalance) {\n            // This option is here so that accounts do not end up with dust after lending since we generally\n            // cannot calculate exact cash amounts from the liquidity curve.\n            withdrawAmount = balanceState.storedCashBalance\n                .add(balanceState.netCashChange)\n                .add(balanceState.netAssetTransferInternalPrecision);\n\n            // If the account has a negative cash balance then cannot withdraw\n            if (withdrawAmount < 0) withdrawAmount = 0;\n        }\n\n        // prettier-ignore\n        balanceState.netAssetTransferInternalPrecision = balanceState\n            .netAssetTransferInternalPrecision\n            .sub(withdrawAmount);\n\n        balanceState.finalize(account, accountContext, redeemToUnderlying);\n    }\n\n    function _finalizeAccountContext(address account, AccountContext memory accountContext)\n        private\n    {\n        // At this point all balances, market states and portfolio states should be finalized. Just need to check free\n        // collateral if required.\n        accountContext.setAccountContext(account);\n        if (accountContext.hasDebt != 0x00) {\n            FreeCollateralExternal.checkFreeCollateralAndRevert(account);\n        }\n    }\n\n    /// @notice When lending, adding liquidity or minting nTokens the account must have a sufficient cash balance\n    /// to do so.\n    function _checkSufficientCash(BalanceState memory balanceState, int256 amountInternalPrecision)\n        private\n        pure\n    {\n        // The total cash position at this point is: storedCashBalance + netCashChange + netAssetTransferInternalPrecision\n        require(\n            amountInternalPrecision >= 0 &&\n                balanceState.storedCashBalance\n                .add(balanceState.netCashChange)\n                .add(balanceState.netAssetTransferInternalPrecision) >= amountInternalPrecision,\n            \"Insufficient cash\"\n        );\n    }\n\n    function _settleAccountIfRequired(address account)\n        private\n        returns (AccountContext memory)\n    {\n        AccountContext memory accountContext = AccountContextHandler.getAccountContext(account);\n        if (accountContext.mustSettleAssets()) {\n            // Returns a new memory reference to account context\n            return SettleAssetsExternal.settleAccount(account, accountContext);\n        } else {\n            return accountContext;\n        }\n    }\n}\n","sourcePath":"contracts/external/actions/BatchAction.sol","deployment":{"address":"0x25bBD37E79Fe182fcbdc0F98521cCA0649a24067","chainid":"42","blockHeight":28786414}}