{"bytecode":"608060405234801561001057600080fd5b5061349a806100206000396000f3fe608060405234801561001057600080fd5b506004361061021c5760003560e01c806394f1d1e411610125578063c4c96dae116100ad578063e7ceffb81161007c578063e7ceffb814610543578063ec3c050114610556578063ec41a25714610569578063fbcbc0f114610571578063fc1b1345146105935761021c565b8063c4c96dae146104e7578063ca0ee700146104ef578063d4ccb0ed14610502578063e74b6e4e146105225761021c565b8063aa94baa7116100f4578063aa94baa714610445578063b0de221714610466578063b536ffb614610486578063b62d268a146104a6578063c3999444146104c65761021c565b806394f1d1e414610404578063974b10541461041757806397f503f51461042a5780639c4e89f41461043d5761021c565b80636987a203116101a8578063824633671161017757806382463367146103ab57806388a73eb7146103b35780638da5cb5b146103d65780638ecd0660146103de578063911a56b0146103f15761021c565b80636987a203146103375780636e4682f714610358578063709d6c7b14610378578063722abb86146103985761021c565b80632d353221116101ef5780632d3532211461028e578063497cf7e3146102b55780634ebad18e146102d557806365663b59146102f657806367c22ce5146103175761021c565b80630261bf8b1461023d57806304ccb84e1461025b578063197a6dc01461027057806324a3d62214610286575b60405162461bcd60e51b81526004016102349061315b565b60405180910390fd5b6102456105b5565b6040516102529190612f99565b60405180910390f35b6102636105ce565b60405161025291906133ee565b6102786105d8565b604051610252929190612fad565b6102456105de565b6102a161029c366004612a41565b6105ed565b6040516102529897969594939291906133fd565b6102c86102c3366004612b9a565b610642565b6040516102529190612fec565b6102e86102e3366004612b9a565b61065f565b604051610252929190613374565b610309610304366004612b9a565b61069b565b604051610252929190612fc7565b61032a610325366004612b9a565b6106d4565b604051610252919061307e565b61034a610345366004612b9a565b6106ea565b6040516102529291906132cf565b61036b610366366004612a41565b61071f565b6040516102529190613073565b61038b610386366004612bdd565b61073d565b6040516102529190613365565b61036b6103a6366004612a41565b61078f565b6102456107ad565b6103c66103c1366004612b9a565b6107bc565b6040516102529493929190613390565b610245610828565b61032a6103ec366004612a5b565b61083f565b61032a6103ff366004612a8d565b610861565b610263610412366004612a41565b610883565b610245610425366004612b9a565b6108bd565b610309610438366004612b9a565b6108ff565b61024561092d565b610458610453366004612a41565b61093c565b60405161025292919061304e565b610479610474366004612a41565b61097d565b6040516102529190613209565b610499610494366004612a41565b61098e565b604051610252919061303b565b6104b96104b4366004612c4d565b6109df565b60405161025291906132ae565b6104d96104d4366004612a41565b610a05565b604051610252929190613087565b610278610a9d565b61032a6104fd366004612b9a565b610acb565b610515610510366004612b9a565b610aef565b60405161025291906132bc565b610535610530366004612b9a565b610b0d565b6040516102529291906132f1565b610245610551366004612b9a565b610bdf565b6102c8610564366004612c0f565b610bfa565b610245610c15565b61058461057f366004612a41565b610c2d565b60405161025293929190613217565b6105a66105a1366004612bb4565b610db7565b604051610252939291906130a0565b60006105bf610de2565b546001600160a01b0316905090565b60005461ffff1690565b60008091565b6002546001600160a01b031681565b60008060008060008060008061060289610def565b939b509198509650909450610618905089610e5b565b9198509250905061062d8961ffff8a16610ebc565b90915090505080935050919395975091939597565b606061064d82610f68565b6106578242610fa5565b90505b919050565b6106676127b7565b61066f6127b7565b61067883610f68565b6106858361ffff1661105e565b91506106948361ffff16611071565b9050915091565b6060806106a783610f68565b60006106b68461ffff16611084565b60ff1690506106c98461ffff168261109a565b909590945092505050565b61ffff166000908152600c602052604090205490565b6106f26127e6565b6106fa612844565b61070383610f68565b6107108361ffff166110d1565b91506106948361ffff1661127a565b6001600160a01b031660009081526008602052604090205460ff1690565b61074561286e565b61074e84610f68565b6000610759856112c6565b905061076361286e565b6107848661ffff1686426001610778876112e9565b8694939291908a6112fd565b9150505b9392505050565b6001600160a01b031660009081526006602052604090205460ff1690565b6001546001600160a01b031681565b6107c46127b7565b6107cc6127b7565b6107d46128b6565b6107dc612844565b6107e585610f68565b6107f28561ffff1661105e565b93506108018561ffff16611071565b92506108108561ffff16611334565b915061081f8561ffff1661127a565b90509193509193565b60005464010000000090046001600160a01b031681565b600061084a82610f68565b610858838361ffff1661149d565b90505b92915050565b600061086c83610f68565b61087b848461ffff16846114d2565b949350505050565b6001600160a01b03811660009081526009602052604090205461ffff168061065a5760405162461bcd60e51b8152600401610234906131df565b60006108c882610f68565b60006108d78361ffff16611517565b90506001600160a01b0381166106575760405162461bcd60e51b8152600401610234906130b6565b60608061090b83610f68565b600061091a8461ffff16611084565b60ff1690506106c98461ffff168261153d565b600b546001600160a01b031690565b60608060008060008061094e87610def565b9450945094505093506109618783611568565b9550610972878561ffff1685611591565b945050505050915091565b6109856128e5565b6106578261169f565b6060600061099b8361169f565b90506109a681611749565b156109d1576109c983826060015161ffff16836000015164ffffffffff16611591565b91505061065a565b6109c9838260400151611568565b6109e7612844565b6109f083610f68565b6108588361ffff168364ffffffffff16611756565b6000606073__FreeCollateralExternal________________636cb65eaf846040518263ffffffff1660e01b8152600401610a409190612f99565b60006040518083038186803b158015610a5857600080fd5b505af4158015610a6c573d6000803e3d6000fd5b505050506040513d6000823e601f3d908101601f19168201604052610a949190810190612ae0565b91509150915091565b73__FreeCollateralExternal________________73__MigrateIncentives_____________________9091565b6000610ad682610f68565b610ae560008361ffff16610ebc565b5091949350505050565b610af76127e6565b610b0082610f68565b6106578261ffff166110d1565b610b15612913565b610b1d612948565b610b2683610f68565b6000610b306117b3565b90506000610b3c6117c0565b61ffff909516600081815260209384526040808220815160c08101835290546001600160a01b03808216835260ff600160a01b8084048216858b0152600160a81b84048216151585870152600160b01b840482166060860152600160b81b840482166080860152600160c01b909304811660a085015295855299875292829020825180840190935254988916825291909704909116928601929092525093915050565b600080610bef8361ffff16611517565b9050610788816117cd565b6060610c0583610f68565b610858838363ffffffff16610fa5565b73cfeaead4947f0705a14ec42ac3d44129e1ef3ed590565b610c356128e5565b606080610c418461169f565b60408051600a8082526101608201909252919450816020015b610c6261295f565b815260200190600190039081610c5a5790505091506000610c8284611749565b15610cd957600083600081518110610c9657fe5b602090810291909101015160608601805161ffff90811683529051919250610cc091889116610ebc565b6080850152606084015260408301526020909101526001015b60808401515b6001600160701b0319811615610d6a576000848381518110610cfd57fe5b602090810291909101015160f083901c613fff16808252909150610d215750610d6a565b610d3387826000015161ffff16610ebc565b6080850152606084015260408301526020909101526001919091019060101b6fffffffffffffffffffffffffffffffff1916610cdf565b610d7385611749565b15610d9d57610d9686866060015161ffff16876000015164ffffffffff16611591565b9250610dae565b610dab868660400151611568565b92505b50509193909250565b6000806000610dc585610f68565b610dd3848661ffff16610ebc565b50919790965090945092505050565b60008061085b601361183f565b600080600080600080610e00611858565b6001600160a01b039097166000908152602097909752505060409094205461ffff81169563ffffffff620100008304811696506601000000000000830416945060ff600160501b8304169350600160581b90910460d81b9150565b600080600080610e69611865565b6001600160a01b0395909516600090815260209590955250506040909220546bffffffffffffffffffffffff811693600160601b82046001600160801b03169350600160e01b90910463ffffffff169150565b6000806000806000610ecc611872565b6001600160a01b0388166000908152602082815260408083208a84529091529020805469ffffffffffffffffffff81169650600160501b900463ffffffff1694509091508315610f38578054610f3190600160701b900466ffffffffffffff1661187f565b9250610f4d565b8054600160701b900466ffffffffffffff1692505b54600160a81b9004600a90810b900b97939650919450925050565b8061ffff166000108015610f86575060005461ffff90811690821611155b610fa25760405162461bcd60e51b815260040161023490613185565b50565b60606000610fb2846112c6565b90506000816020015167ffffffffffffffff81118015610fd157600080fd5b5060405190808252806020026020018201604052801561100b57816020015b610ff861286e565b815260200190600190039081610ff05790505b50905060005b82602001518110156110555761104d82828151811061102c57fe5b6020026020010151826001016001888761188d90949392919063ffffffff16565b600101611011565b50949350505050565b6110666127b7565b610657826000611908565b6110796127b7565b610657826001611908565b600080611090836119b6565b60ff169392505050565b60608060006110a76119d3565b60008681526020829052604090209091506110c4818660016119e0565b9097909650945050505050565b6110d96127e6565b60006110e4836119b6565b905060ff811660008167ffffffffffffffff8111801561110357600080fd5b5060405190808252806020026020018201604052801561112d578160200160208202803683370190505b50905060008260ff1667ffffffffffffffff8111801561114c57600080fd5b50604051908082528060200260200182016040528015611176578160200160208202803683370190505b50905060005b8360ff168160ff16101561120857848160ff166016036020811061119c57fe5b1a60f81b60f81c838260ff16815181106111b257fe5b602002602001019060ff16908160ff1681525050848160ff16600f03602081106111d857fe5b1a60f81b60f81c828260ff16815181106111ee57fe5b60ff9092166020928302919091019091015260010161117c565b5060408051610160810190915260ff841681526020810185601e1a815260200185601d1a815260200185601c1a815260200185601b1a815260200185601a1a81526020018560191a81526020018560181a81526020018560171a81526020810193909352604090920152949350505050565b611282612844565b600080600061129085611b7f565b604080516060810182526001600160a01b039093168352602083019390935260ff16600a0a918101919091529350505050919050565b6112ce612992565b60006112dd8361ffff1661127a565b90506107888382611c40565b6060015161012c60089190911c60ff160290565b61130a8787878685611c83565b6113238760e001518860a001518960c001518588611d44565b60c090970196909652505050505050565b61133c6128b6565b60006113466117b3565b60008481526020829052604081209192508060018614156113735750670de0b6b3a764000090508061144f565b825460408051633fabe5a360e21b815290516001600160a01b039092169163feaf968c9160048082019260a092909190829003018186803b1580156113b757600080fd5b505afa1580156113cb573d6000803e3d6000fd5b505050506040513d601f19601f820116820180604052508101906113ef9190612c81565b509193505060008313915061141890505760405162461bcd60e51b815260040161023490613135565b825460ff600160a01b82048116600a0a9350600160a81b909104161561144f5761144c816114468480611ddf565b90611e2d565b90505b6040805160a0810182529283526020830191909152915460ff600160b01b8204811693830193909352600160b81b810483166060830152600160c01b90049091166080820152915050919050565b6000806114a8611e5e565b6001600160a01b038516600090815260209182526040808220868352909252205491505092915050565b6000806114dd611e6b565b6001600160a01b03861660009081526020918252604080822087835283528082208683529092522054600f90810b900b9150509392505050565b600080611522611e78565b6000938452602052505060409020546001600160a01b031690565b606080600061154a611e85565b60008681526020829052604081209192506110c490829087906119e0565b606060006115768484611e92565b9050600181511161158857905061085b565b61085881611fb4565b6060600061159f858561149d565b905060006115ac82612173565b905060008167ffffffffffffffff811180156115c757600080fd5b5060405190808252806020026020018201604052801561160157816020015b6115ee6129be565b8152602001906001900390816115e65790505b50905060009150600061161384612243565b90505b80156116945760006116288783612268565b905060006116378a8a846114d2565b9050600084868151811061164757fe5b6020908102919091018101518b8152908101849052600160408201819052606082018490529690960195905061167f8785600061231b565b965061168a87612243565b9350505050611616565b509695505050505050565b6116a76128e5565b60006116b1612366565b6001600160a01b039390931660009081526020938452604090819020815160a081018352905464ffffffffff8116825265010000000000810460f81b6001600160f81b031916958201959095526601000000000000850460ff1691810191909152600160381b840461ffff166060820152690100000000000000000090930460701b6001600160701b03191660808401525090919050565b6060015161ffff16151590565b61175e612844565b60008061176b8585612373565b9150915081600014156117895761178185611b7f565b919350909150505b6040805160608101825260008152602081019390935260ff909116600a0a90820152905092915050565b60008061085b601061183f565b60008061085b600f61183f565b6000806117d8611858565b6001600160a01b0384166000908152602082905260409020805491925090600160f81b900460ff16156118345761180d6123bc565b6001600160a01b03808616600090815260209290925260409091205416925061065a915050565b60009250505061065a565b6000620f424082601381111561185157fe5b0192915050565b60008061085b600261183f565b60008061085b601161183f565b60008061085b600661183f565b600881901c60ff9091161b90565b826001111580156118a2575084602001518311155b6118be5760405162461bcd60e51b81526004016102349061310d565b60006118db6118cc856123c9565b6118d58461246d565b9061248e565b9050611900866000015161ffff168284866118f58b6112e9565b8a94939291906124e8565b505050505050565b6119106127b7565b600061191a612512565b6000858152602082815260408083208715158452825291829020825160a08101845281546001600160a01b038116825260ff600160a01b82048116151594830194909452600160b01b81048416600a0a9482019490945293945092916060830191600160a81b90910416600581111561198f57fe5b81529154600160b81b900468ffffffffffffffffff16602090920191909152949350505050565b6000806119c161251f565b60009384526020525050604090205490565b60008061085b600561183f565b6060806000808567ffffffffffffffff811180156119fd57600080fd5b50604051908082528060200260200182016040528015611a27578160200160208202803683370190505b50905060008667ffffffffffffffff81118015611a4357600080fd5b50604051908082528060200260200182016040528015611a6d578160200160208202803683370190505b50905060005b87811015611b71578884600e8110611a8757fe5b600891828204019190066004029054906101000a900463ffffffff1663ffffffff16838281518110611ab557fe5b60209081029190910101526001909301928884600e8110611ad257fe5b600891828204019190066004029054906101000a900463ffffffff1663ffffffff16828281518110611b0057fe5b60209081029190910101526001909301928615611b69576000838281518110611b2557fe5b6020026020010151138015611b4d57506000828281518110611b4357fe5b6020026020010151135b611b695760405162461bcd60e51b8152600401610234906131b2565b600101611a73565b509097909650945050505050565b6000806000806000611b908661252c565b909250905060006001600160a01b038316611bb55750600090506402540be400611c35565b826001600160a01b031663b2fffb046040518163ffffffff1660e01b815260040160206040518083038186803b158015611bee57600080fd5b505afa158015611c02573d6000803e3d6000fd5b505050506040513d601f19601f82011682018060405250810190611c269190612ac8565b905060008113611c3557600080fd5b969195509350915050565b611c48612992565b6000611c578461ffff166119b6565b6040805160808101825261ffff96909616865260ff821660208701528501939093525050606082015290565b6000611c8d612563565b6000868152602082815260408083208884528252808320868452825291829020808a52908901879052805469ffffffffffffffffffff808216938b0193909352600160501b810490921660608a015263ffffffff600160a01b8304811660a08b0152600160c01b8304811660c08b0152600160e01b90920490911660e0890152909150808415611d3257600182015469ffffffffffffffffffff166080890152611d3a565b600060808901525b5050505050505050565b6000808311611d5257600080fd5b81861115611d61575083611dd6565b6000611d6d8388612570565b905083811115611d805785915050611dd6565b6000611d9a85611d9484633b9aca006125cd565b90612626565b90506000611dac633b9aca0083612570565b90506000611dcf633b9aca00611d94611dc58b866125cd565b6118d58d886125cd565b9450505050505b95945050505050565b818102600019831415611e0f57811580611e01575082828281611dfe57fe5b05145b611e0a57600080fd5b61085b565b821580611e24575081838281611e2157fe5b05145b61085b57600080fd5b600081600019148015611e435750600160ff1b83145b15611e4d57600080fd5b818381611e5657fe5b059392505050565b60008061085b600b61183f565b60008061085b600c61183f565b60008061085b600361183f565b60008061085b600461183f565b606060108260ff161115611ea557600080fd5b6000611eaf61268d565b6001600160a01b038516600090815260208290526040812091925060ff851667ffffffffffffffff81118015611ee457600080fd5b50604051908082528060200260200182016040528015611f1e57816020015b611f0b6129be565b815260200190600190039081611f035790505b50905060005b8560ff16811015611faa576000838260108110611f3d57fe5b0190506000838381518110611f4e57fe5b602090810291909101810151835461ffff8116825264ffffffffff620100008204169282019290925260ff600160381b8304166040820152600160401b909104600a90810b900b60608201526080019190915250600101611f24565b5095945050505050565b805160008167ffffffffffffffff81118015611fcf57600080fd5b50604051908082528060200260200182016040528015611ff9578160200160208202803683370190505b50905060005b8281101561205657600084828151811061201557fe5b6020026020010151905061203681600001518260200151836040015161269a565b83838151811061204257fe5b602090810291909101015250600101611fff565b5060015b8281101561216d57805b60008111801561209c575082818151811061207b57fe5b602002602001015183600183038151811061209257fe5b6020026020010151115b15612164578281815181106120ad57fe5b60200260200101518360018303815181106120c457fe5b60200260200101518460018403815181106120db57fe5b602002602001018584815181106120ee57fe5b602002602001018281525082815250505084818151811061210b57fe5b602002602001015185600183038151811061212257fe5b602002602001015186600184038151811061213957fe5b6020026020010187848151811061214c57fe5b60209081029190910101919091525260001901612064565b5060010161205a565b50505050565b600181901c7f5555555555555555555555555555555555555555555555555555555555555555908116911601600281901c7f3333333333333333333333333333333333333333333333333333333333333333908116911601600481901c7f07070707070707070707070707070707070707070707070707070707070707079190911601600881901c7e0f000f000f000f000f000f000f000f000f000f000f000f000f000f000f000f908116911601601081901c01602081901c01604081901c01608081901c60ff90811691160190565b6000816122525750600061065a565b61225b826126f5565b60ff036001019050919050565b60008161227457600080fd5b61010082111561228357600080fd5b600061228e8461278e565b90506000605a84116122a9575062015180830201905061085b565b608784116122d1575060591983016207e900908102908206909103016276a70001905061085b565b60c384116122fa5750608619830162278d00908102908206909103016301da9c0001905061085b565b5060c21983016276a70090810290820690910301630b1fa80001905061085b565b60006001831015801561233057506101008311155b61233957600080fd5b81156123525750600160ff1b60001983011c8317610788565b50600160ff1b60001983011c198316610788565b60008061085b600161183f565b60008060006123806127aa565b6000958652602090815260408087209587529490525050509020546501000000000081046001600160801b031691600160a81b90910460ff1690565b60008061085b601261183f565b600081600114156123de57506276a70061065a565b81600214156123f1575062ed4e0061065a565b816003141561240557506301da9c0061065a565b816004141561241957506303b5380061065a565b816005141561242d57506309450c0061065a565b8160061415612441575063128a180061065a565b81600714156124555750632514300061065a565b60405162461bcd60e51b8152600401610234906130e6565b60006276a70082101561247f57600080fd5b6276a700825b06909103919050565b600082820183811015610858576040805162461bcd60e51b815260206004820152601b60248201527f536166654d6174683a206164646974696f6e206f766572666c6f770000000000604482015290519081900360640190fd5b60006276a7006124f78561246d565b019050612509878787878787876112fd565b50505050505050565b60008061085b600761183f565b60008061085b600961183f565b60008060006125396117c0565b600094855260205250506040909120546001600160a01b03811692600160a01b90910460ff169150565b60008061085b600a61183f565b6000828211156125c7576040805162461bcd60e51b815260206004820152601e60248201527f536166654d6174683a207375627472616374696f6e206f766572666c6f770000604482015290519081900360640190fd5b50900390565b6000826125dc5750600061085b565b828202828482816125e957fe5b04146108585760405162461bcd60e51b81526004018080602001828103825260218152602001806134446021913960400191505060405180910390fd5b600080821161267c576040805162461bcd60e51b815260206004820152601a60248201527f536166654d6174683a206469766973696f6e206279207a65726f000000000000604482015290519081900360640190fd5b81838161268557fe5b049392505050565b60008061085b600d61183f565b6000613fff8411156126ab57600080fd5b64ffffffffff8311156126bd57600080fd5b60088211156126cb57600080fd5b5067ffff000000000000603084901b1665ffffffffff00600884901b161760ff8216179392505050565b60008161270157600080fd5b600160801b821061271457608091821c91015b600160401b821061272757604091821c91015b640100000000821061273b57602091821c91015b62010000821061274d57601091821c91015b610100821061275e57600891821c91015b6010821061276e57600491821c91015b6004821061277e57600291821c91015b6002821061065a57600101919050565b6000620151808210156127a057600080fd5b6201518082612485565b60008061085b600861183f565b6040805160a0810182526000808252602082018190529181018290529060608201908152602001600081525090565b604080516101608101825260008082526020820181905291810182905260608082018390526080820183905260a0820183905260c0820183905260e08201839052610100820192909252610120810182905261014081019190915290565b604051806060016040528060006001600160a01b0316815260200160008152602001600081525090565b60405180610100016040528060008019168152602001600081526020016000815260200160008152602001600081526020016000815260200160008152602001600081525090565b6040518060a0016040528060008152602001600081526020016000815260200160008152602001600081525090565b6040805160a08101825260008082526020820181905291810182905260608101829052608081019190915290565b6040805160c081018252600080825260208201819052918101829052606081018290526080810182905260a081019190915290565b604080518082019091526000808252602082015290565b6040518060a00160405280600061ffff168152602001600081526020016000815260200160008152602001600081525090565b60408051608081018252600080825260208201529081016129b1612844565b8152600060209091015290565b6040518060c001604052806000815260200160008152602001600081526020016000815260200160008152602001600060038111156129f957fe5b905290565b80356001600160a01b038116811461065a57600080fd5b803561ffff8116811461065a57600080fd5b805169ffffffffffffffffffff8116811461065a57600080fd5b600060208284031215612a52578081fd5b610858826129fe565b60008060408385031215612a6d578081fd5b612a76836129fe565b9150612a8460208401612a15565b90509250929050565b600080600060608486031215612aa1578081fd5b612aaa846129fe565b9250612ab860208501612a15565b9150604084013590509250925092565b600060208284031215612ad9578081fd5b5051919050565b60008060408385031215612af2578182fd5b8251915060208084015167ffffffffffffffff80821115612b11578384fd5b818601915086601f830112612b24578384fd5b815181811115612b3057fe5b83810260405185828201018181108582111715612b4957fe5b604052828152858101935084860182860187018b1015612b67578788fd5b8795505b83861015612b89578051855260019590950194938601938601612b6b565b508096505050505050509250929050565b600060208284031215612bab578081fd5b61085882612a15565b60008060408385031215612bc6578182fd5b612bcf83612a15565b9150612a84602084016129fe565b600080600060608486031215612bf1578283fd5b612bfa84612a15565b95602085013595506040909401359392505050565b60008060408385031215612c21578182fd5b612c2a83612a15565b9150602083013563ffffffff81168114612c42578182fd5b809150509250929050565b60008060408385031215612c5f578182fd5b612c6883612a15565b9150602083013564ffffffffff81168114612c42578182fd5b600080600080600060a08688031215612c98578081fd5b612ca186612a27565b9450602086015193506040860151925060608601519150612cc460808701612a27565b90509295509295909350565b6000815180845260208085019450808401835b83811015612cff57815187529582019590820190600101612ce3565b509495945050505050565b6000815180845260208085019450808401835b83811015612cff57815180518852838101518489015260408082015190890152606080820151908901526080808201519089015260a0908101519060048210612d6257fe5b88015260c09096019590820190600101612d1d565b6000815180845260208085019450808401835b83811015612cff57815160ff1687529582019590820190600101612d8a565b805164ffffffffff1682526020808201516001600160f81b0319169083015260408082015160ff169083015260608082015161ffff16908301526080908101516001600160701b031916910152565b80516001600160a01b0316825260208082015190830152604090810151910152565b6000610160612e2a848451612f92565b6020830151612e3c6020860182612f92565b506040830151612e4f6040860182612f92565b506060830151612e626060860182612f92565b506080830151612e756080860182612f92565b5060a0830151612e8860a0860182612f92565b5060c0830151612e9b60c0860182612f92565b5060e0830151612eae60e0860182612f92565b5061010080840151612ec282870182612f92565b5050610120808401518282870152612edc83870182612d77565b925050506101408084015185830382870152612ef88382612d77565b9695505050505050565b805182526020810151602083015260408101516040830152606081015160608301526080810151608083015260a081015160a083015260c081015160c083015260e081015160e08301525050565b80516001600160a01b0316825260208082015115159083015260408082015190830152606081015160068110612f8257fe5b6060830152608090810151910152565b60ff169052565b6001600160a01b0391909116815260200190565b6001600160a01b0392831681529116602082015260400190565b600060408252612fda6040830185612cd0565b8281036020840152611dd68185612cd0565b6020808252825182820181905260009190848201906040850190845b8181101561302f5761301b838551612f02565b928401926101009290920191600101613008565b50909695505050505050565b6000602082526108586020830184612d0a565b6000604082526130616040830185612d0a565b8281036020840152611dd68185612d0a565b901515815260200190565b90815260200190565b60008382526040602083015261087b6040830184612cd0565b9283526020830191909152604082015260600190565b6020808252601690820152754e6f206e546f6b656e20666f722063757272656e637960501b604082015260600190565b6020808252600d908201526c092dcecc2d8d2c840d2dcc8caf609b1b604082015260600190565b6020808252600e908201526d125b9d985b1a59081b585c9ad95d60921b604082015260600190565b6020808252600c908201526b496e76616c6964207261746560a01b604082015260600190565b60208082526010908201526f13595d1a1bd9081b9bdd08199bdd5b9960821b604082015260600190565b602080825260139082015272125b9d985b1a590818dd5c9c995b98de481a59606a1b604082015260600190565b60208082526013908201527250543a20696e69742076616c7565207a65726f60681b604082015260600190565b60208082526010908201526f151bdad95b881b9bdd081b1a5cdd195960821b604082015260600190565b60a0810161085b8284612da9565b600060e082016132278387612da9565b60a060e0818501528186518084526101008601915060209350838801855b8281101561328d578151805161ffff16855286810151878601526040808201519086015260608082015190860152608090810151908501529284019290850190600101613245565b50505084810360c08601526132a28187612d0a565b98975050505050505050565b6060810161085b8284612df8565b6000602082526108586020830184612e1a565b6000608082526132e26080830185612e1a565b90506107886020830184612df8565b60006101008201905060018060a01b0380855116835260ff602086015116602084015260408501511515604084015260ff606086015116606084015260ff608086015116608084015260ff60a08601511660a08401528084511660c08401525060ff60208401511660e08301529392505050565b610100810161085b8284612f02565b61014081016133838285612f50565b61078860a0830184612f50565b610240810161339f8287612f50565b6133ac60a0830186612f50565b83516101408301526020840151610160830152604084015161018083015260608401516101a083015260808401516101c0830152611dd66101e0830184612df8565b61ffff91909116815260200190565b61ffff9890981688526020880196909652604087019490945260608601929092526001600160d81b031916608085015260a084015260c083015260e0820152610100019056fe536166654d6174683a206d756c7469706c69636174696f6e206f766572666c6f77a2646970667358221220d304e14a2fe3d3f85e3720ae1661bc818c986ec5e1332a6dc0de8b2d50da3f3464736f6c63430007060033","bytecodeSha1":"bceee8016872594dcb685a74e62960de57e3566a","type":"contract","abi":[{"stateMutability":"nonpayable","type":"fallback"},{"inputs":[{"internalType":"address","name":"account","type":"address"}],"name":"getAccount","outputs":[{"components":[{"internalType":"uint40","name":"nextSettleTime","type":"uint40"},{"internalType":"bytes1","name":"hasDebt","type":"bytes1"},{"internalType":"uint8","name":"assetArrayLength","type":"uint8"},{"internalType":"uint16","name":"bitmapCurrencyId","type":"uint16"},{"internalType":"bytes18","name":"activeCurrencies","type":"bytes18"}],"internalType":"struct AccountContext","name":"accountContext","type":"tuple"},{"components":[{"internalType":"uint16","name":"currencyId","type":"uint16"},{"internalType":"int256","name":"cashBalance","type":"int256"},{"internalType":"int256","name":"nTokenBalance","type":"int256"},{"internalType":"uint256","name":"lastClaimTime","type":"uint256"},{"internalType":"uint256","name":"accountIncentiveDebt","type":"uint256"}],"internalType":"struct AccountBalance[]","name":"accountBalances","type":"tuple[]"},{"components":[{"internalType":"uint256","name":"currencyId","type":"uint256"},{"internalType":"uint256","name":"maturity","type":"uint256"},{"internalType":"uint256","name":"assetType","type":"uint256"},{"internalType":"int256","name":"notional","type":"int256"},{"internalType":"uint256","name":"storageSlot","type":"uint256"},{"internalType":"enum AssetStorageState","name":"storageState","type":"uint8"}],"internalType":"struct PortfolioAsset[]","name":"portfolio","type":"tuple[]"}],"stateMutability":"view","type":"function"},{"inputs":[{"internalType":"uint16","name":"currencyId","type":"uint16"},{"internalType":"address","name":"account","type":"address"}],"name":"getAccountBalance","outputs":[{"internalType":"int256","name":"cashBalance","type":"int256"},{"internalType":"int256","name":"nTokenBalance","type":"int256"},{"internalType":"uint256","name":"lastClaimTime","type":"uint256"}],"stateMutability":"view","type":"function"},{"inputs":[{"internalType":"address","name":"account","type":"address"}],"name":"getAccountContext","outputs":[{"components":[{"internalType":"uint40","name":"nextSettleTime","type":"uint40"},{"internalType":"bytes1","name":"hasDebt","type":"bytes1"},{"internalType":"uint8","name":"assetArrayLength","type":"uint8"},{"internalType":"uint16","name":"bitmapCurrencyId","type":"uint16"},{"internalType":"bytes18","name":"activeCurrencies","type":"bytes18"}],"internalType":"struct AccountContext","name":"","type":"tuple"}],"stateMutability":"view","type":"function"},{"inputs":[{"internalType":"address","name":"account","type":"address"}],"name":"getAccountPortfolio","outputs":[{"components":[{"internalType":"uint256","name":"currencyId","type":"uint256"},{"internalType":"uint256","name":"maturity","type":"uint256"},{"internalType":"uint256","name":"assetType","type":"uint256"},{"internalType":"int256","name":"notional","type":"int256"},{"internalType":"uint256","name":"storageSlot","type":"uint256"},{"internalType":"enum AssetStorageState","name":"storageState","type":"uint8"}],"internalType":"struct PortfolioAsset[]","name":"","type":"tuple[]"}],"stateMutability":"view","type":"function"},{"inputs":[{"internalType":"uint16","name":"currencyId","type":"uint16"}],"name":"getActiveMarkets","outputs":[{"components":[{"internalType":"bytes32","name":"storageSlot","type":"bytes32"},{"internalType":"uint256","name":"maturity","type":"uint256"},{"internalType":"int256","name":"totalfCash","type":"int256"},{"internalType":"int256","name":"totalAssetCash","type":"int256"},{"internalType":"int256","name":"totalLiquidity","type":"int256"},{"internalType":"uint256","name":"lastImpliedRate","type":"uint256"},{"internalType":"uint256","name":"oracleRate","type":"uint256"},{"internalType":"uint256","name":"previousTradeTime","type":"uint256"}],"internalType":"struct MarketParameters[]","name":"","type":"tuple[]"}],"stateMutability":"view","type":"function"},{"inputs":[{"internalType":"uint16","name":"currencyId","type":"uint16"},{"internalType":"uint32","name":"blockTime","type":"uint32"}],"name":"getActiveMarketsAtBlockTime","outputs":[{"components":[{"internalType":"bytes32","name":"storageSlot","type":"bytes32"},{"internalType":"uint256","name":"maturity","type":"uint256"},{"internalType":"int256","name":"totalfCash","type":"int256"},{"internalType":"int256","name":"totalAssetCash","type":"int256"},{"internalType":"int256","name":"totalLiquidity","type":"int256"},{"internalType":"uint256","name":"lastImpliedRate","type":"uint256"},{"internalType":"uint256","name":"oracleRate","type":"uint256"},{"internalType":"uint256","name":"previousTradeTime","type":"uint256"}],"internalType":"struct MarketParameters[]","name":"","type":"tuple[]"}],"stateMutability":"view","type":"function"},{"inputs":[{"internalType":"address","name":"account","type":"address"},{"internalType":"uint16","name":"currencyId","type":"uint16"}],"name":"getAssetsBitmap","outputs":[{"internalType":"bytes32","name":"","type":"bytes32"}],"stateMutability":"view","type":"function"},{"inputs":[{"internalType":"address","name":"callback","type":"address"}],"name":"getAuthorizedCallbackContractStatus","outputs":[{"internalType":"bool","name":"isAuthorized","type":"bool"}],"stateMutability":"view","type":"function"},{"inputs":[{"internalType":"uint16","name":"currencyId","type":"uint16"}],"name":"getCashGroup","outputs":[{"components":[{"internalType":"uint8","name":"maxMarketIndex","type":"uint8"},{"internalType":"uint8","name":"rateOracleTimeWindow5Min","type":"uint8"},{"internalType":"uint8","name":"totalFeeBPS","type":"uint8"},{"internalType":"uint8","name":"reserveFeeShare","type":"uint8"},{"internalType":"uint8","name":"debtBuffer5BPS","type":"uint8"},{"internalType":"uint8","name":"fCashHaircut5BPS","type":"uint8"},{"internalType":"uint8","name":"settlementPenaltyRate5BPS","type":"uint8"},{"internalType":"uint8","name":"liquidationfCashHaircut5BPS","type":"uint8"},{"internalType":"uint8","name":"liquidationDebtBuffer5BPS","type":"uint8"},{"internalType":"uint8[]","name":"liquidityTokenHaircuts","type":"uint8[]"},{"internalType":"uint8[]","name":"rateScalars","type":"uint8[]"}],"internalType":"struct CashGroupSettings","name":"","type":"tuple"}],"stateMutability":"view","type":"function"},{"inputs":[{"internalType":"uint16","name":"currencyId","type":"uint16"}],"name":"getCashGroupAndAssetRate","outputs":[{"components":[{"internalType":"uint8","name":"maxMarketIndex","type":"uint8"},{"internalType":"uint8","name":"rateOracleTimeWindow5Min","type":"uint8"},{"internalType":"uint8","name":"totalFeeBPS","type":"uint8"},{"internalType":"uint8","name":"reserveFeeShare","type":"uint8"},{"internalType":"uint8","name":"debtBuffer5BPS","type":"uint8"},{"internalType":"uint8","name":"fCashHaircut5BPS","type":"uint8"},{"internalType":"uint8","name":"settlementPenaltyRate5BPS","type":"uint8"},{"internalType":"uint8","name":"liquidationfCashHaircut5BPS","type":"uint8"},{"internalType":"uint8","name":"liquidationDebtBuffer5BPS","type":"uint8"},{"internalType":"uint8[]","name":"liquidityTokenHaircuts","type":"uint8[]"},{"internalType":"uint8[]","name":"rateScalars","type":"uint8[]"}],"internalType":"struct CashGroupSettings","name":"cashGroup","type":"tuple"},{"components":[{"internalType":"contract AssetRateAdapter","name":"rateOracle","type":"address"},{"internalType":"int256","name":"rate","type":"int256"},{"internalType":"int256","name":"underlyingDecimals","type":"int256"}],"internalType":"struct AssetRateParameters","name":"assetRate","type":"tuple"}],"stateMutability":"view","type":"function"},{"inputs":[{"internalType":"uint16","name":"currencyId","type":"uint16"}],"name":"getCurrency","outputs":[{"components":[{"internalType":"address","name":"tokenAddress","type":"address"},{"internalType":"bool","name":"hasTransferFee","type":"bool"},{"internalType":"int256","name":"decimals","type":"int256"},{"internalType":"enum TokenType","name":"tokenType","type":"uint8"},{"internalType":"uint256","name":"maxCollateralBalance","type":"uint256"}],"internalType":"struct Token","name":"assetToken","type":"tuple"},{"components":[{"internalType":"address","name":"tokenAddress","type":"address"},{"internalType":"bool","name":"hasTransferFee","type":"bool"},{"internalType":"int256","name":"decimals","type":"int256"},{"internalType":"enum TokenType","name":"tokenType","type":"uint8"},{"internalType":"uint256","name":"maxCollateralBalance","type":"uint256"}],"internalType":"struct Token","name":"underlyingToken","type":"tuple"}],"stateMutability":"view","type":"function"},{"inputs":[{"internalType":"uint16","name":"currencyId","type":"uint16"}],"name":"getCurrencyAndRates","outputs":[{"components":[{"internalType":"address","name":"tokenAddress","type":"address"},{"internalType":"bool","name":"hasTransferFee","type":"bool"},{"internalType":"int256","name":"decimals","type":"int256"},{"internalType":"enum TokenType","name":"tokenType","type":"uint8"},{"internalType":"uint256","name":"maxCollateralBalance","type":"uint256"}],"internalType":"struct Token","name":"assetToken","type":"tuple"},{"components":[{"internalType":"address","name":"tokenAddress","type":"address"},{"internalType":"bool","name":"hasTransferFee","type":"bool"},{"internalType":"int256","name":"decimals","type":"int256"},{"internalType":"enum TokenType","name":"tokenType","type":"uint8"},{"internalType":"uint256","name":"maxCollateralBalance","type":"uint256"}],"internalType":"struct Token","name":"underlyingToken","type":"tuple"},{"components":[{"internalType":"int256","name":"rateDecimals","type":"int256"},{"internalType":"int256","name":"rate","type":"int256"},{"internalType":"int256","name":"buffer","type":"int256"},{"internalType":"int256","name":"haircut","type":"int256"},{"internalType":"int256","name":"liquidationDiscount","type":"int256"}],"internalType":"struct ETHRate","name":"ethRate","type":"tuple"},{"components":[{"internalType":"contract AssetRateAdapter","name":"rateOracle","type":"address"},{"internalType":"int256","name":"rate","type":"int256"},{"internalType":"int256","name":"underlyingDecimals","type":"int256"}],"internalType":"struct AssetRateParameters","name":"assetRate","type":"tuple"}],"stateMutability":"view","type":"function"},{"inputs":[{"internalType":"address","name":"tokenAddress","type":"address"}],"name":"getCurrencyId","outputs":[{"internalType":"uint16","name":"currencyId","type":"uint16"}],"stateMutability":"view","type":"function"},{"inputs":[{"internalType":"uint16","name":"currencyId","type":"uint16"}],"name":"getDepositParameters","outputs":[{"internalType":"int256[]","name":"depositShares","type":"int256[]"},{"internalType":"int256[]","name":"leverageThresholds","type":"int256[]"}],"stateMutability":"view","type":"function"},{"inputs":[{"internalType":"address","name":"account","type":"address"}],"name":"getFreeCollateral","outputs":[{"internalType":"int256","name":"","type":"int256"},{"internalType":"int256[]","name":"","type":"int256[]"}],"stateMutability":"view","type":"function"},{"inputs":[{"internalType":"address","name":"operator","type":"address"}],"name":"getGlobalTransferOperatorStatus","outputs":[{"internalType":"bool","name":"isAuthorized","type":"bool"}],"stateMutability":"view","type":"function"},{"inputs":[{"internalType":"uint16","name":"currencyId","type":"uint16"}],"name":"getInitializationParameters","outputs":[{"internalType":"int256[]","name":"annualizedAnchorRates","type":"int256[]"},{"internalType":"int256[]","name":"proportions","type":"int256[]"}],"stateMutability":"view","type":"function"},{"inputs":[],"name":"getLendingPool","outputs":[{"internalType":"address","name":"","type":"address"}],"stateMutability":"view","type":"function"},{"inputs":[],"name":"getLibInfo","outputs":[{"internalType":"address","name":"","type":"address"},{"internalType":"address","name":"","type":"address"}],"stateMutability":"view","type":"function"},{"inputs":[{"internalType":"uint16","name":"currencyId","type":"uint16"},{"internalType":"uint256","name":"maturity","type":"uint256"},{"internalType":"uint256","name":"settlementDate","type":"uint256"}],"name":"getMarket","outputs":[{"components":[{"internalType":"bytes32","name":"storageSlot","type":"bytes32"},{"internalType":"uint256","name":"maturity","type":"uint256"},{"internalType":"int256","name":"totalfCash","type":"int256"},{"internalType":"int256","name":"totalAssetCash","type":"int256"},{"internalType":"int256","name":"totalLiquidity","type":"int256"},{"internalType":"uint256","name":"lastImpliedRate","type":"uint256"},{"internalType":"uint256","name":"oracleRate","type":"uint256"},{"internalType":"uint256","name":"previousTradeTime","type":"uint256"}],"internalType":"struct MarketParameters","name":"","type":"tuple"}],"stateMutability":"view","type":"function"},{"inputs":[],"name":"getMaxCurrencyId","outputs":[{"internalType":"uint16","name":"","type":"uint16"}],"stateMutability":"view","type":"function"},{"inputs":[{"internalType":"address","name":"tokenAddress","type":"address"}],"name":"getNTokenAccount","outputs":[{"internalType":"uint16","name":"currencyId","type":"uint16"},{"internalType":"uint256","name":"totalSupply","type":"uint256"},{"internalType":"uint256","name":"incentiveAnnualEmissionRate","type":"uint256"},{"internalType":"uint256","name":"lastInitializedTime","type":"uint256"},{"internalType":"bytes5","name":"nTokenParameters","type":"bytes5"},{"internalType":"int256","name":"cashBalance","type":"int256"},{"internalType":"uint256","name":"accumulatedNOTEPerNToken","type":"uint256"},{"internalType":"uint256","name":"lastAccumulatedTime","type":"uint256"}],"stateMutability":"view","type":"function"},{"inputs":[{"internalType":"address","name":"tokenAddress","type":"address"}],"name":"getNTokenPortfolio","outputs":[{"components":[{"internalType":"uint256","name":"currencyId","type":"uint256"},{"internalType":"uint256","name":"maturity","type":"uint256"},{"internalType":"uint256","name":"assetType","type":"uint256"},{"internalType":"int256","name":"notional","type":"int256"},{"internalType":"uint256","name":"storageSlot","type":"uint256"},{"internalType":"enum AssetStorageState","name":"storageState","type":"uint8"}],"internalType":"struct PortfolioAsset[]","name":"liquidityTokens","type":"tuple[]"},{"components":[{"internalType":"uint256","name":"currencyId","type":"uint256"},{"internalType":"uint256","name":"maturity","type":"uint256"},{"internalType":"uint256","name":"assetType","type":"uint256"},{"internalType":"int256","name":"notional","type":"int256"},{"internalType":"uint256","name":"storageSlot","type":"uint256"},{"internalType":"enum AssetStorageState","name":"storageState","type":"uint8"}],"internalType":"struct PortfolioAsset[]","name":"netfCashAssets","type":"tuple[]"}],"stateMutability":"view","type":"function"},{"inputs":[],"name":"getNoteToken","outputs":[{"internalType":"address","name":"","type":"address"}],"stateMutability":"pure","type":"function"},{"inputs":[],"name":"getOwnershipStatus","outputs":[{"internalType":"address","name":"owner","type":"address"},{"internalType":"address","name":"pendingOwner","type":"address"}],"stateMutability":"view","type":"function"},{"inputs":[{"internalType":"uint16","name":"currencyId","type":"uint16"}],"name":"getRateStorage","outputs":[{"components":[{"internalType":"contract AggregatorV2V3Interface","name":"rateOracle","type":"address"},{"internalType":"uint8","name":"rateDecimalPlaces","type":"uint8"},{"internalType":"bool","name":"mustInvert","type":"bool"},{"internalType":"uint8","name":"buffer","type":"uint8"},{"internalType":"uint8","name":"haircut","type":"uint8"},{"internalType":"uint8","name":"liquidationDiscount","type":"uint8"}],"internalType":"struct ETHRateStorage","name":"ethRate","type":"tuple"},{"components":[{"internalType":"contract AssetRateAdapter","name":"rateOracle","type":"address"},{"internalType":"uint8","name":"underlyingDecimalPlaces","type":"uint8"}],"internalType":"struct AssetRateStorage","name":"assetRate","type":"tuple"}],"stateMutability":"view","type":"function"},{"inputs":[{"internalType":"uint16","name":"currencyId","type":"uint16"}],"name":"getReserveBalance","outputs":[{"internalType":"int256","name":"reserveBalance","type":"int256"}],"stateMutability":"view","type":"function"},{"inputs":[{"internalType":"uint16","name":"currencyId","type":"uint16"}],"name":"getReserveBuffer","outputs":[{"internalType":"uint256","name":"","type":"uint256"}],"stateMutability":"view","type":"function"},{"inputs":[{"internalType":"uint16","name":"currencyId","type":"uint16"}],"name":"getSecondaryIncentiveRewarder","outputs":[{"internalType":"address","name":"rewarder","type":"address"}],"stateMutability":"view","type":"function"},{"inputs":[{"internalType":"uint16","name":"currencyId","type":"uint16"},{"internalType":"uint40","name":"maturity","type":"uint40"}],"name":"getSettlementRate","outputs":[{"components":[{"internalType":"contract AssetRateAdapter","name":"rateOracle","type":"address"},{"internalType":"int256","name":"rate","type":"int256"},{"internalType":"int256","name":"underlyingDecimals","type":"int256"}],"internalType":"struct AssetRateParameters","name":"","type":"tuple"}],"stateMutability":"view","type":"function"},{"inputs":[],"name":"getTreasuryManager","outputs":[{"internalType":"address","name":"","type":"address"}],"stateMutability":"view","type":"function"},{"inputs":[{"internalType":"address","name":"account","type":"address"},{"internalType":"uint16","name":"currencyId","type":"uint16"},{"internalType":"uint256","name":"maturity","type":"uint256"}],"name":"getfCashNotional","outputs":[{"internalType":"int256","name":"","type":"int256"}],"stateMutability":"view","type":"function"},{"inputs":[{"internalType":"uint16","name":"currencyId","type":"uint16"}],"name":"nTokenAddress","outputs":[{"internalType":"address","name":"","type":"address"}],"stateMutability":"view","type":"function"},{"inputs":[],"name":"owner","outputs":[{"internalType":"address","name":"","type":"address"}],"stateMutability":"view","type":"function"},{"inputs":[],"name":"pauseGuardian","outputs":[{"internalType":"address","name":"","type":"address"}],"stateMutability":"view","type":"function"},{"inputs":[],"name":"pauseRouter","outputs":[{"internalType":"address","name":"","type":"address"}],"stateMutability":"view","type":"function"}],"compiler":{"version":"0.7.6+commit.7338295f","evm_version":"istanbul","optimizer":{"enabled":true,"runs":200}},"contractName":"Views","deployedBytecode":"608060405234801561001057600080fd5b506004361061021c5760003560e01c806394f1d1e411610125578063c4c96dae116100ad578063e7ceffb81161007c578063e7ceffb814610543578063ec3c050114610556578063ec41a25714610569578063fbcbc0f114610571578063fc1b1345146105935761021c565b8063c4c96dae146104e7578063ca0ee700146104ef578063d4ccb0ed14610502578063e74b6e4e146105225761021c565b8063aa94baa7116100f4578063aa94baa714610445578063b0de221714610466578063b536ffb614610486578063b62d268a146104a6578063c3999444146104c65761021c565b806394f1d1e414610404578063974b10541461041757806397f503f51461042a5780639c4e89f41461043d5761021c565b80636987a203116101a8578063824633671161017757806382463367146103ab57806388a73eb7146103b35780638da5cb5b146103d65780638ecd0660146103de578063911a56b0146103f15761021c565b80636987a203146103375780636e4682f714610358578063709d6c7b14610378578063722abb86146103985761021c565b80632d353221116101ef5780632d3532211461028e578063497cf7e3146102b55780634ebad18e146102d557806365663b59146102f657806367c22ce5146103175761021c565b80630261bf8b1461023d57806304ccb84e1461025b578063197a6dc01461027057806324a3d62214610286575b60405162461bcd60e51b81526004016102349061315b565b60405180910390fd5b6102456105b5565b6040516102529190612f99565b60405180910390f35b6102636105ce565b60405161025291906133ee565b6102786105d8565b604051610252929190612fad565b6102456105de565b6102a161029c366004612a41565b6105ed565b6040516102529897969594939291906133fd565b6102c86102c3366004612b9a565b610642565b6040516102529190612fec565b6102e86102e3366004612b9a565b61065f565b604051610252929190613374565b610309610304366004612b9a565b61069b565b604051610252929190612fc7565b61032a610325366004612b9a565b6106d4565b604051610252919061307e565b61034a610345366004612b9a565b6106ea565b6040516102529291906132cf565b61036b610366366004612a41565b61071f565b6040516102529190613073565b61038b610386366004612bdd565b61073d565b6040516102529190613365565b61036b6103a6366004612a41565b61078f565b6102456107ad565b6103c66103c1366004612b9a565b6107bc565b6040516102529493929190613390565b610245610828565b61032a6103ec366004612a5b565b61083f565b61032a6103ff366004612a8d565b610861565b610263610412366004612a41565b610883565b610245610425366004612b9a565b6108bd565b610309610438366004612b9a565b6108ff565b61024561092d565b610458610453366004612a41565b61093c565b60405161025292919061304e565b610479610474366004612a41565b61097d565b6040516102529190613209565b610499610494366004612a41565b61098e565b604051610252919061303b565b6104b96104b4366004612c4d565b6109df565b60405161025291906132ae565b6104d96104d4366004612a41565b610a05565b604051610252929190613087565b610278610a9d565b61032a6104fd366004612b9a565b610acb565b610515610510366004612b9a565b610aef565b60405161025291906132bc565b610535610530366004612b9a565b610b0d565b6040516102529291906132f1565b610245610551366004612b9a565b610bdf565b6102c8610564366004612c0f565b610bfa565b610245610c15565b61058461057f366004612a41565b610c2d565b60405161025293929190613217565b6105a66105a1366004612bb4565b610db7565b604051610252939291906130a0565b60006105bf610de2565b546001600160a01b0316905090565b60005461ffff1690565b60008091565b6002546001600160a01b031681565b60008060008060008060008061060289610def565b939b509198509650909450610618905089610e5b565b9198509250905061062d8961ffff8a16610ebc565b90915090505080935050919395975091939597565b606061064d82610f68565b6106578242610fa5565b90505b919050565b6106676127b7565b61066f6127b7565b61067883610f68565b6106858361ffff1661105e565b91506106948361ffff16611071565b9050915091565b6060806106a783610f68565b60006106b68461ffff16611084565b60ff1690506106c98461ffff168261109a565b909590945092505050565b61ffff166000908152600c602052604090205490565b6106f26127e6565b6106fa612844565b61070383610f68565b6107108361ffff166110d1565b91506106948361ffff1661127a565b6001600160a01b031660009081526008602052604090205460ff1690565b61074561286e565b61074e84610f68565b6000610759856112c6565b905061076361286e565b6107848661ffff1686426001610778876112e9565b8694939291908a6112fd565b9150505b9392505050565b6001600160a01b031660009081526006602052604090205460ff1690565b6001546001600160a01b031681565b6107c46127b7565b6107cc6127b7565b6107d46128b6565b6107dc612844565b6107e585610f68565b6107f28561ffff1661105e565b93506108018561ffff16611071565b92506108108561ffff16611334565b915061081f8561ffff1661127a565b90509193509193565b60005464010000000090046001600160a01b031681565b600061084a82610f68565b610858838361ffff1661149d565b90505b92915050565b600061086c83610f68565b61087b848461ffff16846114d2565b949350505050565b6001600160a01b03811660009081526009602052604090205461ffff168061065a5760405162461bcd60e51b8152600401610234906131df565b60006108c882610f68565b60006108d78361ffff16611517565b90506001600160a01b0381166106575760405162461bcd60e51b8152600401610234906130b6565b60608061090b83610f68565b600061091a8461ffff16611084565b60ff1690506106c98461ffff168261153d565b600b546001600160a01b031690565b60608060008060008061094e87610def565b9450945094505093506109618783611568565b9550610972878561ffff1685611591565b945050505050915091565b6109856128e5565b6106578261169f565b6060600061099b8361169f565b90506109a681611749565b156109d1576109c983826060015161ffff16836000015164ffffffffff16611591565b91505061065a565b6109c9838260400151611568565b6109e7612844565b6109f083610f68565b6108588361ffff168364ffffffffff16611756565b6000606073__$841fddfe32830bb6dbc3a02d7f16c53722$__636cb65eaf846040518263ffffffff1660e01b8152600401610a409190612f99565b60006040518083038186803b158015610a5857600080fd5b505af4158015610a6c573d6000803e3d6000fd5b505050506040513d6000823e601f3d908101601f19168201604052610a949190810190612ae0565b91509150915091565b73__$841fddfe32830bb6dbc3a02d7f16c53722$__73__$b21a4dc043b77aa57922ad9143a3cb040e$__9091565b6000610ad682610f68565b610ae560008361ffff16610ebc565b5091949350505050565b610af76127e6565b610b0082610f68565b6106578261ffff166110d1565b610b15612913565b610b1d612948565b610b2683610f68565b6000610b306117b3565b90506000610b3c6117c0565b61ffff909516600081815260209384526040808220815160c08101835290546001600160a01b03808216835260ff600160a01b8084048216858b0152600160a81b84048216151585870152600160b01b840482166060860152600160b81b840482166080860152600160c01b909304811660a085015295855299875292829020825180840190935254988916825291909704909116928601929092525093915050565b600080610bef8361ffff16611517565b9050610788816117cd565b6060610c0583610f68565b610858838363ffffffff16610fa5565b73cfeaead4947f0705a14ec42ac3d44129e1ef3ed590565b610c356128e5565b606080610c418461169f565b60408051600a8082526101608201909252919450816020015b610c6261295f565b815260200190600190039081610c5a5790505091506000610c8284611749565b15610cd957600083600081518110610c9657fe5b602090810291909101015160608601805161ffff90811683529051919250610cc091889116610ebc565b6080850152606084015260408301526020909101526001015b60808401515b6001600160701b0319811615610d6a576000848381518110610cfd57fe5b602090810291909101015160f083901c613fff16808252909150610d215750610d6a565b610d3387826000015161ffff16610ebc565b6080850152606084015260408301526020909101526001919091019060101b6fffffffffffffffffffffffffffffffff1916610cdf565b610d7385611749565b15610d9d57610d9686866060015161ffff16876000015164ffffffffff16611591565b9250610dae565b610dab868660400151611568565b92505b50509193909250565b6000806000610dc585610f68565b610dd3848661ffff16610ebc565b50919790965090945092505050565b60008061085b601361183f565b600080600080600080610e00611858565b6001600160a01b039097166000908152602097909752505060409094205461ffff81169563ffffffff620100008304811696506601000000000000830416945060ff600160501b8304169350600160581b90910460d81b9150565b600080600080610e69611865565b6001600160a01b0395909516600090815260209590955250506040909220546bffffffffffffffffffffffff811693600160601b82046001600160801b03169350600160e01b90910463ffffffff169150565b6000806000806000610ecc611872565b6001600160a01b0388166000908152602082815260408083208a84529091529020805469ffffffffffffffffffff81169650600160501b900463ffffffff1694509091508315610f38578054610f3190600160701b900466ffffffffffffff1661187f565b9250610f4d565b8054600160701b900466ffffffffffffff1692505b54600160a81b9004600a90810b900b97939650919450925050565b8061ffff166000108015610f86575060005461ffff90811690821611155b610fa25760405162461bcd60e51b815260040161023490613185565b50565b60606000610fb2846112c6565b90506000816020015167ffffffffffffffff81118015610fd157600080fd5b5060405190808252806020026020018201604052801561100b57816020015b610ff861286e565b815260200190600190039081610ff05790505b50905060005b82602001518110156110555761104d82828151811061102c57fe5b6020026020010151826001016001888761188d90949392919063ffffffff16565b600101611011565b50949350505050565b6110666127b7565b610657826000611908565b6110796127b7565b610657826001611908565b600080611090836119b6565b60ff169392505050565b60608060006110a76119d3565b60008681526020829052604090209091506110c4818660016119e0565b9097909650945050505050565b6110d96127e6565b60006110e4836119b6565b905060ff811660008167ffffffffffffffff8111801561110357600080fd5b5060405190808252806020026020018201604052801561112d578160200160208202803683370190505b50905060008260ff1667ffffffffffffffff8111801561114c57600080fd5b50604051908082528060200260200182016040528015611176578160200160208202803683370190505b50905060005b8360ff168160ff16101561120857848160ff166016036020811061119c57fe5b1a60f81b60f81c838260ff16815181106111b257fe5b602002602001019060ff16908160ff1681525050848160ff16600f03602081106111d857fe5b1a60f81b60f81c828260ff16815181106111ee57fe5b60ff9092166020928302919091019091015260010161117c565b5060408051610160810190915260ff841681526020810185601e1a815260200185601d1a815260200185601c1a815260200185601b1a815260200185601a1a81526020018560191a81526020018560181a81526020018560171a81526020810193909352604090920152949350505050565b611282612844565b600080600061129085611b7f565b604080516060810182526001600160a01b039093168352602083019390935260ff16600a0a918101919091529350505050919050565b6112ce612992565b60006112dd8361ffff1661127a565b90506107888382611c40565b6060015161012c60089190911c60ff160290565b61130a8787878685611c83565b6113238760e001518860a001518960c001518588611d44565b60c090970196909652505050505050565b61133c6128b6565b60006113466117b3565b60008481526020829052604081209192508060018614156113735750670de0b6b3a764000090508061144f565b825460408051633fabe5a360e21b815290516001600160a01b039092169163feaf968c9160048082019260a092909190829003018186803b1580156113b757600080fd5b505afa1580156113cb573d6000803e3d6000fd5b505050506040513d601f19601f820116820180604052508101906113ef9190612c81565b509193505060008313915061141890505760405162461bcd60e51b815260040161023490613135565b825460ff600160a01b82048116600a0a9350600160a81b909104161561144f5761144c816114468480611ddf565b90611e2d565b90505b6040805160a0810182529283526020830191909152915460ff600160b01b8204811693830193909352600160b81b810483166060830152600160c01b90049091166080820152915050919050565b6000806114a8611e5e565b6001600160a01b038516600090815260209182526040808220868352909252205491505092915050565b6000806114dd611e6b565b6001600160a01b03861660009081526020918252604080822087835283528082208683529092522054600f90810b900b9150509392505050565b600080611522611e78565b6000938452602052505060409020546001600160a01b031690565b606080600061154a611e85565b60008681526020829052604081209192506110c490829087906119e0565b606060006115768484611e92565b9050600181511161158857905061085b565b61085881611fb4565b6060600061159f858561149d565b905060006115ac82612173565b905060008167ffffffffffffffff811180156115c757600080fd5b5060405190808252806020026020018201604052801561160157816020015b6115ee6129be565b8152602001906001900390816115e65790505b50905060009150600061161384612243565b90505b80156116945760006116288783612268565b905060006116378a8a846114d2565b9050600084868151811061164757fe5b6020908102919091018101518b8152908101849052600160408201819052606082018490529690960195905061167f8785600061231b565b965061168a87612243565b9350505050611616565b509695505050505050565b6116a76128e5565b60006116b1612366565b6001600160a01b039390931660009081526020938452604090819020815160a081018352905464ffffffffff8116825265010000000000810460f81b6001600160f81b031916958201959095526601000000000000850460ff1691810191909152600160381b840461ffff166060820152690100000000000000000090930460701b6001600160701b03191660808401525090919050565b6060015161ffff16151590565b61175e612844565b60008061176b8585612373565b9150915081600014156117895761178185611b7f565b919350909150505b6040805160608101825260008152602081019390935260ff909116600a0a90820152905092915050565b60008061085b601061183f565b60008061085b600f61183f565b6000806117d8611858565b6001600160a01b0384166000908152602082905260409020805491925090600160f81b900460ff16156118345761180d6123bc565b6001600160a01b03808616600090815260209290925260409091205416925061065a915050565b60009250505061065a565b6000620f424082601381111561185157fe5b0192915050565b60008061085b600261183f565b60008061085b601161183f565b60008061085b600661183f565b600881901c60ff9091161b90565b826001111580156118a2575084602001518311155b6118be5760405162461bcd60e51b81526004016102349061310d565b60006118db6118cc856123c9565b6118d58461246d565b9061248e565b9050611900866000015161ffff168284866118f58b6112e9565b8a94939291906124e8565b505050505050565b6119106127b7565b600061191a612512565b6000858152602082815260408083208715158452825291829020825160a08101845281546001600160a01b038116825260ff600160a01b82048116151594830194909452600160b01b81048416600a0a9482019490945293945092916060830191600160a81b90910416600581111561198f57fe5b81529154600160b81b900468ffffffffffffffffff16602090920191909152949350505050565b6000806119c161251f565b60009384526020525050604090205490565b60008061085b600561183f565b6060806000808567ffffffffffffffff811180156119fd57600080fd5b50604051908082528060200260200182016040528015611a27578160200160208202803683370190505b50905060008667ffffffffffffffff81118015611a4357600080fd5b50604051908082528060200260200182016040528015611a6d578160200160208202803683370190505b50905060005b87811015611b71578884600e8110611a8757fe5b600891828204019190066004029054906101000a900463ffffffff1663ffffffff16838281518110611ab557fe5b60209081029190910101526001909301928884600e8110611ad257fe5b600891828204019190066004029054906101000a900463ffffffff1663ffffffff16828281518110611b0057fe5b60209081029190910101526001909301928615611b69576000838281518110611b2557fe5b6020026020010151138015611b4d57506000828281518110611b4357fe5b6020026020010151135b611b695760405162461bcd60e51b8152600401610234906131b2565b600101611a73565b509097909650945050505050565b6000806000806000611b908661252c565b909250905060006001600160a01b038316611bb55750600090506402540be400611c35565b826001600160a01b031663b2fffb046040518163ffffffff1660e01b815260040160206040518083038186803b158015611bee57600080fd5b505afa158015611c02573d6000803e3d6000fd5b505050506040513d601f19601f82011682018060405250810190611c269190612ac8565b905060008113611c3557600080fd5b969195509350915050565b611c48612992565b6000611c578461ffff166119b6565b6040805160808101825261ffff96909616865260ff821660208701528501939093525050606082015290565b6000611c8d612563565b6000868152602082815260408083208884528252808320868452825291829020808a52908901879052805469ffffffffffffffffffff808216938b0193909352600160501b810490921660608a015263ffffffff600160a01b8304811660a08b0152600160c01b8304811660c08b0152600160e01b90920490911660e0890152909150808415611d3257600182015469ffffffffffffffffffff166080890152611d3a565b600060808901525b5050505050505050565b6000808311611d5257600080fd5b81861115611d61575083611dd6565b6000611d6d8388612570565b905083811115611d805785915050611dd6565b6000611d9a85611d9484633b9aca006125cd565b90612626565b90506000611dac633b9aca0083612570565b90506000611dcf633b9aca00611d94611dc58b866125cd565b6118d58d886125cd565b9450505050505b95945050505050565b818102600019831415611e0f57811580611e01575082828281611dfe57fe5b05145b611e0a57600080fd5b61085b565b821580611e24575081838281611e2157fe5b05145b61085b57600080fd5b600081600019148015611e435750600160ff1b83145b15611e4d57600080fd5b818381611e5657fe5b059392505050565b60008061085b600b61183f565b60008061085b600c61183f565b60008061085b600361183f565b60008061085b600461183f565b606060108260ff161115611ea557600080fd5b6000611eaf61268d565b6001600160a01b038516600090815260208290526040812091925060ff851667ffffffffffffffff81118015611ee457600080fd5b50604051908082528060200260200182016040528015611f1e57816020015b611f0b6129be565b815260200190600190039081611f035790505b50905060005b8560ff16811015611faa576000838260108110611f3d57fe5b0190506000838381518110611f4e57fe5b602090810291909101810151835461ffff8116825264ffffffffff620100008204169282019290925260ff600160381b8304166040820152600160401b909104600a90810b900b60608201526080019190915250600101611f24565b5095945050505050565b805160008167ffffffffffffffff81118015611fcf57600080fd5b50604051908082528060200260200182016040528015611ff9578160200160208202803683370190505b50905060005b8281101561205657600084828151811061201557fe5b6020026020010151905061203681600001518260200151836040015161269a565b83838151811061204257fe5b602090810291909101015250600101611fff565b5060015b8281101561216d57805b60008111801561209c575082818151811061207b57fe5b602002602001015183600183038151811061209257fe5b6020026020010151115b15612164578281815181106120ad57fe5b60200260200101518360018303815181106120c457fe5b60200260200101518460018403815181106120db57fe5b602002602001018584815181106120ee57fe5b602002602001018281525082815250505084818151811061210b57fe5b602002602001015185600183038151811061212257fe5b602002602001015186600184038151811061213957fe5b6020026020010187848151811061214c57fe5b60209081029190910101919091525260001901612064565b5060010161205a565b50505050565b600181901c7f5555555555555555555555555555555555555555555555555555555555555555908116911601600281901c7f3333333333333333333333333333333333333333333333333333333333333333908116911601600481901c7f07070707070707070707070707070707070707070707070707070707070707079190911601600881901c7e0f000f000f000f000f000f000f000f000f000f000f000f000f000f000f000f908116911601601081901c01602081901c01604081901c01608081901c60ff90811691160190565b6000816122525750600061065a565b61225b826126f5565b60ff036001019050919050565b60008161227457600080fd5b61010082111561228357600080fd5b600061228e8461278e565b90506000605a84116122a9575062015180830201905061085b565b608784116122d1575060591983016207e900908102908206909103016276a70001905061085b565b60c384116122fa5750608619830162278d00908102908206909103016301da9c0001905061085b565b5060c21983016276a70090810290820690910301630b1fa80001905061085b565b60006001831015801561233057506101008311155b61233957600080fd5b81156123525750600160ff1b60001983011c8317610788565b50600160ff1b60001983011c198316610788565b60008061085b600161183f565b60008060006123806127aa565b6000958652602090815260408087209587529490525050509020546501000000000081046001600160801b031691600160a81b90910460ff1690565b60008061085b601261183f565b600081600114156123de57506276a70061065a565b81600214156123f1575062ed4e0061065a565b816003141561240557506301da9c0061065a565b816004141561241957506303b5380061065a565b816005141561242d57506309450c0061065a565b8160061415612441575063128a180061065a565b81600714156124555750632514300061065a565b60405162461bcd60e51b8152600401610234906130e6565b60006276a70082101561247f57600080fd5b6276a700825b06909103919050565b600082820183811015610858576040805162461bcd60e51b815260206004820152601b60248201527f536166654d6174683a206164646974696f6e206f766572666c6f770000000000604482015290519081900360640190fd5b60006276a7006124f78561246d565b019050612509878787878787876112fd565b50505050505050565b60008061085b600761183f565b60008061085b600961183f565b60008060006125396117c0565b600094855260205250506040909120546001600160a01b03811692600160a01b90910460ff169150565b60008061085b600a61183f565b6000828211156125c7576040805162461bcd60e51b815260206004820152601e60248201527f536166654d6174683a207375627472616374696f6e206f766572666c6f770000604482015290519081900360640190fd5b50900390565b6000826125dc5750600061085b565b828202828482816125e957fe5b04146108585760405162461bcd60e51b81526004018080602001828103825260218152602001806134446021913960400191505060405180910390fd5b600080821161267c576040805162461bcd60e51b815260206004820152601a60248201527f536166654d6174683a206469766973696f6e206279207a65726f000000000000604482015290519081900360640190fd5b81838161268557fe5b049392505050565b60008061085b600d61183f565b6000613fff8411156126ab57600080fd5b64ffffffffff8311156126bd57600080fd5b60088211156126cb57600080fd5b5067ffff000000000000603084901b1665ffffffffff00600884901b161760ff8216179392505050565b60008161270157600080fd5b600160801b821061271457608091821c91015b600160401b821061272757604091821c91015b640100000000821061273b57602091821c91015b62010000821061274d57601091821c91015b610100821061275e57600891821c91015b6010821061276e57600491821c91015b6004821061277e57600291821c91015b6002821061065a57600101919050565b6000620151808210156127a057600080fd5b6201518082612485565b60008061085b600861183f565b6040805160a0810182526000808252602082018190529181018290529060608201908152602001600081525090565b604080516101608101825260008082526020820181905291810182905260608082018390526080820183905260a0820183905260c0820183905260e08201839052610100820192909252610120810182905261014081019190915290565b604051806060016040528060006001600160a01b0316815260200160008152602001600081525090565b60405180610100016040528060008019168152602001600081526020016000815260200160008152602001600081526020016000815260200160008152602001600081525090565b6040518060a0016040528060008152602001600081526020016000815260200160008152602001600081525090565b6040805160a08101825260008082526020820181905291810182905260608101829052608081019190915290565b6040805160c081018252600080825260208201819052918101829052606081018290526080810182905260a081019190915290565b604080518082019091526000808252602082015290565b6040518060a00160405280600061ffff168152602001600081526020016000815260200160008152602001600081525090565b60408051608081018252600080825260208201529081016129b1612844565b8152600060209091015290565b6040518060c001604052806000815260200160008152602001600081526020016000815260200160008152602001600060038111156129f957fe5b905290565b80356001600160a01b038116811461065a57600080fd5b803561ffff8116811461065a57600080fd5b805169ffffffffffffffffffff8116811461065a57600080fd5b600060208284031215612a52578081fd5b610858826129fe565b60008060408385031215612a6d578081fd5b612a76836129fe565b9150612a8460208401612a15565b90509250929050565b600080600060608486031215612aa1578081fd5b612aaa846129fe565b9250612ab860208501612a15565b9150604084013590509250925092565b600060208284031215612ad9578081fd5b5051919050565b60008060408385031215612af2578182fd5b8251915060208084015167ffffffffffffffff80821115612b11578384fd5b818601915086601f830112612b24578384fd5b815181811115612b3057fe5b83810260405185828201018181108582111715612b4957fe5b604052828152858101935084860182860187018b1015612b67578788fd5b8795505b83861015612b89578051855260019590950194938601938601612b6b565b508096505050505050509250929050565b600060208284031215612bab578081fd5b61085882612a15565b60008060408385031215612bc6578182fd5b612bcf83612a15565b9150612a84602084016129fe565b600080600060608486031215612bf1578283fd5b612bfa84612a15565b95602085013595506040909401359392505050565b60008060408385031215612c21578182fd5b612c2a83612a15565b9150602083013563ffffffff81168114612c42578182fd5b809150509250929050565b60008060408385031215612c5f578182fd5b612c6883612a15565b9150602083013564ffffffffff81168114612c42578182fd5b600080600080600060a08688031215612c98578081fd5b612ca186612a27565b9450602086015193506040860151925060608601519150612cc460808701612a27565b90509295509295909350565b6000815180845260208085019450808401835b83811015612cff57815187529582019590820190600101612ce3565b509495945050505050565b6000815180845260208085019450808401835b83811015612cff57815180518852838101518489015260408082015190890152606080820151908901526080808201519089015260a0908101519060048210612d6257fe5b88015260c09096019590820190600101612d1d565b6000815180845260208085019450808401835b83811015612cff57815160ff1687529582019590820190600101612d8a565b805164ffffffffff1682526020808201516001600160f81b0319169083015260408082015160ff169083015260608082015161ffff16908301526080908101516001600160701b031916910152565b80516001600160a01b0316825260208082015190830152604090810151910152565b6000610160612e2a848451612f92565b6020830151612e3c6020860182612f92565b506040830151612e4f6040860182612f92565b506060830151612e626060860182612f92565b506080830151612e756080860182612f92565b5060a0830151612e8860a0860182612f92565b5060c0830151612e9b60c0860182612f92565b5060e0830151612eae60e0860182612f92565b5061010080840151612ec282870182612f92565b5050610120808401518282870152612edc83870182612d77565b925050506101408084015185830382870152612ef88382612d77565b9695505050505050565b805182526020810151602083015260408101516040830152606081015160608301526080810151608083015260a081015160a083015260c081015160c083015260e081015160e08301525050565b80516001600160a01b0316825260208082015115159083015260408082015190830152606081015160068110612f8257fe5b6060830152608090810151910152565b60ff169052565b6001600160a01b0391909116815260200190565b6001600160a01b0392831681529116602082015260400190565b600060408252612fda6040830185612cd0565b8281036020840152611dd68185612cd0565b6020808252825182820181905260009190848201906040850190845b8181101561302f5761301b838551612f02565b928401926101009290920191600101613008565b50909695505050505050565b6000602082526108586020830184612d0a565b6000604082526130616040830185612d0a565b8281036020840152611dd68185612d0a565b901515815260200190565b90815260200190565b60008382526040602083015261087b6040830184612cd0565b9283526020830191909152604082015260600190565b6020808252601690820152754e6f206e546f6b656e20666f722063757272656e637960501b604082015260600190565b6020808252600d908201526c092dcecc2d8d2c840d2dcc8caf609b1b604082015260600190565b6020808252600e908201526d125b9d985b1a59081b585c9ad95d60921b604082015260600190565b6020808252600c908201526b496e76616c6964207261746560a01b604082015260600190565b60208082526010908201526f13595d1a1bd9081b9bdd08199bdd5b9960821b604082015260600190565b602080825260139082015272125b9d985b1a590818dd5c9c995b98de481a59606a1b604082015260600190565b60208082526013908201527250543a20696e69742076616c7565207a65726f60681b604082015260600190565b60208082526010908201526f151bdad95b881b9bdd081b1a5cdd195960821b604082015260600190565b60a0810161085b8284612da9565b600060e082016132278387612da9565b60a060e0818501528186518084526101008601915060209350838801855b8281101561328d578151805161ffff16855286810151878601526040808201519086015260608082015190860152608090810151908501529284019290850190600101613245565b50505084810360c08601526132a28187612d0a565b98975050505050505050565b6060810161085b8284612df8565b6000602082526108586020830184612e1a565b6000608082526132e26080830185612e1a565b90506107886020830184612df8565b60006101008201905060018060a01b0380855116835260ff602086015116602084015260408501511515604084015260ff606086015116606084015260ff608086015116608084015260ff60a08601511660a08401528084511660c08401525060ff60208401511660e08301529392505050565b610100810161085b8284612f02565b61014081016133838285612f50565b61078860a0830184612f50565b610240810161339f8287612f50565b6133ac60a0830186612f50565b83516101408301526020840151610160830152604084015161018083015260608401516101a083015260808401516101c0830152611dd66101e0830184612df8565b61ffff91909116815260200190565b61ffff9890981688526020880196909652604087019490945260608601929092526001600160d81b031916608085015260a084015260c083015260e0820152610100019056fe536166654d6174683a206d756c7469706c69636174696f6e206f766572666c6f77a2646970667358221220d304e14a2fe3d3f85e3720ae1661bc818c986ec5e1332a6dc0de8b2d50da3f3464736f6c63430007060033","language":"Solidity","natspec":{"methods":{"getOwnershipStatus()":{"notice":"Returns current ownership status of the contract","returns":{"owner":"is the current owner of the Notional system","pendingOwner":"can claim ownership from the owner"}},"getReserveBuffer(uint16)":{"notice":"Returns the current reserve buffer for a currency","params":{"currencyId":"refers to the currency of the reserve"}},"nTokenAddress(uint16)":{"notice":"Returns nToken address for a given currency"},"getAccount(address)":{"notice":"Returns all account details in a single view"},"getAssetsBitmap(address,uint16)":{"notice":"Returns the assets bitmap for an account"},"getAccountPortfolio(address)":{"notice":"Returns account portfolio of assets"},"getCurrencyId(address)":{"notice":"Returns a currency id, a zero means that it is not listed."},"getCurrency(uint16)":{"notice":"Returns the asset token and underlying token related to a given currency id. If underlying token is not set then will return the zero address"},"getRateStorage(uint16)":{"notice":"Returns the ETH and Asset rates for a currency as stored, useful for viewing how they are configured"},"getCashGroupAndAssetRate(uint16)":{"notice":"Returns the cash group along with the asset rate for convenience."},"getActiveMarketsAtBlockTime(uint16,uint32)":{"notice":"Returns all active markets for a currency at the specified block time, useful for looking at historical markets"},"getMarket(uint16,uint256,uint256)":{"notice":"Returns a single market"},"getReserveBalance(uint16)":{"notice":"Returns the current reserve balance for a currency"},"getActiveMarkets(uint16)":{"notice":"Returns all currently active markets for a currency"},"getCurrencyAndRates(uint16)":{"notice":"Returns a currency and its corresponding asset rate and ETH exchange rates. Note that this does not recalculate cToken interest rates, it only retrieves the latest stored rate."},"getNoteToken()":{"notice":"Returns address of the NOTE token"},"getFreeCollateral(address)":{"notice":"Returns free collateral of an account along with an array of the individual net available asset cash amounts"},"getMaxCurrencyId()":{"notice":"Returns the current maximum currency id"},"getAccountContext(address)":{"notice":"Returns account context"},"getDepositParameters(uint16)":{"notice":"Returns nToken deposit parameters for a given currency"},"getSettlementRate(uint16,uint40)":{"notice":"Returns the asset settlement rate for a given maturity"},"getInitializationParameters(uint16)":{"notice":"Returns market initialization parameters for a given currency"},"getAccountBalance(uint16,address)":{"notice":"Returns account balances for a given currency"},"getCashGroup(uint16)":{"notice":"Returns cash group settings for a currency"},"getLendingPool()":{"notice":"Returns the lending pool address"},"getfCashNotional(address,uint16,uint256)":{"notice":"Returns the fCash amount at the specified maturity for a bitmapped portfolio"},"getLibInfo()":{"notice":"Get a list of deployed library addresses (sorted by library name)"},"getTreasuryManager()":{"notice":"Returns the current treasury manager contract"}},"kind":"dev","version":1},"opcodes":"PUSH1 0x80 PUSH1 0x40 MSTORE CALLVALUE DUP1 ISZERO PUSH2 0x10 JUMPI PUSH1 0x0 DUP1 REVERT JUMPDEST POP PUSH1 0x4 CALLDATASIZE LT PUSH2 0x21C JUMPI PUSH1 0x0 CALLDATALOAD PUSH1 0xE0 SHR DUP1 PUSH4 0x94F1D1E4 GT PUSH2 0x125 JUMPI DUP1 PUSH4 0xC4C96DAE GT PUSH2 0xAD JUMPI DUP1 PUSH4 0xE7CEFFB8 GT PUSH2 0x7C JUMPI DUP1 PUSH4 0xE7CEFFB8 EQ PUSH2 0x543 JUMPI DUP1 PUSH4 0xEC3C0501 EQ PUSH2 0x556 JUMPI DUP1 PUSH4 0xEC41A257 EQ PUSH2 0x569 JUMPI DUP1 PUSH4 0xFBCBC0F1 EQ PUSH2 0x571 JUMPI DUP1 PUSH4 0xFC1B1345 EQ PUSH2 0x593 JUMPI PUSH2 0x21C JUMP JUMPDEST DUP1 PUSH4 0xC4C96DAE EQ PUSH2 0x4E7 JUMPI DUP1 PUSH4 0xCA0EE700 EQ PUSH2 0x4EF JUMPI DUP1 PUSH4 0xD4CCB0ED EQ PUSH2 0x502 JUMPI DUP1 PUSH4 0xE74B6E4E EQ PUSH2 0x522 JUMPI PUSH2 0x21C JUMP JUMPDEST DUP1 PUSH4 0xAA94BAA7 GT PUSH2 0xF4 JUMPI DUP1 PUSH4 0xAA94BAA7 EQ PUSH2 0x445 JUMPI DUP1 PUSH4 0xB0DE2217 EQ PUSH2 0x466 JUMPI DUP1 PUSH4 0xB536FFB6 EQ PUSH2 0x486 JUMPI DUP1 PUSH4 0xB62D268A EQ PUSH2 0x4A6 JUMPI DUP1 PUSH4 0xC3999444 EQ PUSH2 0x4C6 JUMPI PUSH2 0x21C JUMP JUMPDEST DUP1 PUSH4 0x94F1D1E4 EQ PUSH2 0x404 JUMPI DUP1 PUSH4 0x974B1054 EQ PUSH2 0x417 JUMPI DUP1 PUSH4 0x97F503F5 EQ PUSH2 0x42A JUMPI DUP1 PUSH4 0x9C4E89F4 EQ PUSH2 0x43D JUMPI PUSH2 0x21C JUMP JUMPDEST DUP1 PUSH4 0x6987A203 GT PUSH2 0x1A8 JUMPI DUP1 PUSH4 0x82463367 GT PUSH2 0x177 JUMPI DUP1 PUSH4 0x82463367 EQ PUSH2 0x3AB JUMPI DUP1 PUSH4 0x88A73EB7 EQ PUSH2 0x3B3 JUMPI DUP1 PUSH4 0x8DA5CB5B EQ PUSH2 0x3D6 JUMPI DUP1 PUSH4 0x8ECD0660 EQ PUSH2 0x3DE JUMPI DUP1 PUSH4 0x911A56B0 EQ PUSH2 0x3F1 JUMPI PUSH2 0x21C JUMP JUMPDEST DUP1 PUSH4 0x6987A203 EQ PUSH2 0x337 JUMPI DUP1 PUSH4 0x6E4682F7 EQ PUSH2 0x358 JUMPI DUP1 PUSH4 0x709D6C7B EQ PUSH2 0x378 JUMPI DUP1 PUSH4 0x722ABB86 EQ PUSH2 0x398 JUMPI PUSH2 0x21C JUMP JUMPDEST DUP1 PUSH4 0x2D353221 GT PUSH2 0x1EF JUMPI DUP1 PUSH4 0x2D353221 EQ PUSH2 0x28E JUMPI DUP1 PUSH4 0x497CF7E3 EQ PUSH2 0x2B5 JUMPI DUP1 PUSH4 0x4EBAD18E EQ PUSH2 0x2D5 JUMPI DUP1 PUSH4 0x65663B59 EQ PUSH2 0x2F6 JUMPI DUP1 PUSH4 0x67C22CE5 EQ PUSH2 0x317 JUMPI PUSH2 0x21C JUMP JUMPDEST DUP1 PUSH4 0x261BF8B EQ PUSH2 0x23D JUMPI DUP1 PUSH4 0x4CCB84E EQ PUSH2 0x25B JUMPI DUP1 PUSH4 0x197A6DC0 EQ PUSH2 0x270 JUMPI DUP1 PUSH4 0x24A3D622 EQ PUSH2 0x286 JUMPI JUMPDEST PUSH1 0x40 MLOAD PUSH3 0x461BCD PUSH1 0xE5 SHL DUP2 MSTORE PUSH1 0x4 ADD PUSH2 0x234 SWAP1 PUSH2 0x315B JUMP JUMPDEST PUSH1 0x40 MLOAD DUP1 SWAP2 SUB SWAP1 REVERT JUMPDEST PUSH2 0x245 PUSH2 0x5B5 JUMP JUMPDEST PUSH1 0x40 MLOAD PUSH2 0x252 SWAP2 SWAP1 PUSH2 0x2F99 JUMP JUMPDEST PUSH1 0x40 MLOAD DUP1 SWAP2 SUB SWAP1 RETURN JUMPDEST PUSH2 0x263 PUSH2 0x5CE JUMP JUMPDEST PUSH1 0x40 MLOAD PUSH2 0x252 SWAP2 SWAP1 PUSH2 0x33EE JUMP JUMPDEST PUSH2 0x278 PUSH2 0x5D8 JUMP JUMPDEST PUSH1 0x40 MLOAD PUSH2 0x252 SWAP3 SWAP2 SWAP1 PUSH2 0x2FAD JUMP JUMPDEST PUSH2 0x245 PUSH2 0x5DE JUMP JUMPDEST PUSH2 0x2A1 PUSH2 0x29C CALLDATASIZE PUSH1 0x4 PUSH2 0x2A41 JUMP JUMPDEST PUSH2 0x5ED JUMP JUMPDEST PUSH1 0x40 MLOAD PUSH2 0x252 SWAP9 SWAP8 SWAP7 SWAP6 SWAP5 SWAP4 SWAP3 SWAP2 SWAP1 PUSH2 0x33FD JUMP JUMPDEST PUSH2 0x2C8 PUSH2 0x2C3 CALLDATASIZE PUSH1 0x4 PUSH2 0x2B9A JUMP JUMPDEST PUSH2 0x642 JUMP JUMPDEST PUSH1 0x40 MLOAD PUSH2 0x252 SWAP2 SWAP1 PUSH2 0x2FEC JUMP JUMPDEST PUSH2 0x2E8 PUSH2 0x2E3 CALLDATASIZE PUSH1 0x4 PUSH2 0x2B9A JUMP JUMPDEST PUSH2 0x65F JUMP JUMPDEST PUSH1 0x40 MLOAD PUSH2 0x252 SWAP3 SWAP2 SWAP1 PUSH2 0x3374 JUMP JUMPDEST PUSH2 0x309 PUSH2 0x304 CALLDATASIZE PUSH1 0x4 PUSH2 0x2B9A JUMP JUMPDEST PUSH2 0x69B JUMP JUMPDEST PUSH1 0x40 MLOAD PUSH2 0x252 SWAP3 SWAP2 SWAP1 PUSH2 0x2FC7 JUMP JUMPDEST PUSH2 0x32A PUSH2 0x325 CALLDATASIZE PUSH1 0x4 PUSH2 0x2B9A JUMP JUMPDEST PUSH2 0x6D4 JUMP JUMPDEST PUSH1 0x40 MLOAD PUSH2 0x252 SWAP2 SWAP1 PUSH2 0x307E JUMP JUMPDEST PUSH2 0x34A PUSH2 0x345 CALLDATASIZE PUSH1 0x4 PUSH2 0x2B9A JUMP JUMPDEST PUSH2 0x6EA JUMP JUMPDEST PUSH1 0x40 MLOAD PUSH2 0x252 SWAP3 SWAP2 SWAP1 PUSH2 0x32CF JUMP JUMPDEST PUSH2 0x36B PUSH2 0x366 CALLDATASIZE PUSH1 0x4 PUSH2 0x2A41 JUMP JUMPDEST PUSH2 0x71F JUMP JUMPDEST PUSH1 0x40 MLOAD PUSH2 0x252 SWAP2 SWAP1 PUSH2 0x3073 JUMP JUMPDEST PUSH2 0x38B PUSH2 0x386 CALLDATASIZE PUSH1 0x4 PUSH2 0x2BDD JUMP JUMPDEST PUSH2 0x73D JUMP JUMPDEST PUSH1 0x40 MLOAD PUSH2 0x252 SWAP2 SWAP1 PUSH2 0x3365 JUMP JUMPDEST PUSH2 0x36B PUSH2 0x3A6 CALLDATASIZE PUSH1 0x4 PUSH2 0x2A41 JUMP JUMPDEST PUSH2 0x78F JUMP JUMPDEST PUSH2 0x245 PUSH2 0x7AD JUMP JUMPDEST PUSH2 0x3C6 PUSH2 0x3C1 CALLDATASIZE PUSH1 0x4 PUSH2 0x2B9A JUMP JUMPDEST PUSH2 0x7BC JUMP JUMPDEST PUSH1 0x40 MLOAD PUSH2 0x252 SWAP5 SWAP4 SWAP3 SWAP2 SWAP1 PUSH2 0x3390 JUMP JUMPDEST PUSH2 0x245 PUSH2 0x828 JUMP JUMPDEST PUSH2 0x32A PUSH2 0x3EC CALLDATASIZE PUSH1 0x4 PUSH2 0x2A5B JUMP JUMPDEST PUSH2 0x83F JUMP JUMPDEST PUSH2 0x32A PUSH2 0x3FF CALLDATASIZE PUSH1 0x4 PUSH2 0x2A8D JUMP JUMPDEST PUSH2 0x861 JUMP JUMPDEST PUSH2 0x263 PUSH2 0x412 CALLDATASIZE PUSH1 0x4 PUSH2 0x2A41 JUMP JUMPDEST PUSH2 0x883 JUMP JUMPDEST PUSH2 0x245 PUSH2 0x425 CALLDATASIZE PUSH1 0x4 PUSH2 0x2B9A JUMP JUMPDEST PUSH2 0x8BD JUMP JUMPDEST PUSH2 0x309 PUSH2 0x438 CALLDATASIZE PUSH1 0x4 PUSH2 0x2B9A JUMP JUMPDEST PUSH2 0x8FF JUMP JUMPDEST PUSH2 0x245 PUSH2 0x92D JUMP JUMPDEST PUSH2 0x458 PUSH2 0x453 CALLDATASIZE PUSH1 0x4 PUSH2 0x2A41 JUMP JUMPDEST PUSH2 0x93C JUMP JUMPDEST PUSH1 0x40 MLOAD PUSH2 0x252 SWAP3 SWAP2 SWAP1 PUSH2 0x304E JUMP JUMPDEST PUSH2 0x479 PUSH2 0x474 CALLDATASIZE PUSH1 0x4 PUSH2 0x2A41 JUMP JUMPDEST PUSH2 0x97D JUMP JUMPDEST PUSH1 0x40 MLOAD PUSH2 0x252 SWAP2 SWAP1 PUSH2 0x3209 JUMP JUMPDEST PUSH2 0x499 PUSH2 0x494 CALLDATASIZE PUSH1 0x4 PUSH2 0x2A41 JUMP JUMPDEST PUSH2 0x98E JUMP JUMPDEST PUSH1 0x40 MLOAD PUSH2 0x252 SWAP2 SWAP1 PUSH2 0x303B JUMP JUMPDEST PUSH2 0x4B9 PUSH2 0x4B4 CALLDATASIZE PUSH1 0x4 PUSH2 0x2C4D JUMP JUMPDEST PUSH2 0x9DF JUMP JUMPDEST PUSH1 0x40 MLOAD PUSH2 0x252 SWAP2 SWAP1 PUSH2 0x32AE JUMP JUMPDEST PUSH2 0x4D9 PUSH2 0x4D4 CALLDATASIZE PUSH1 0x4 PUSH2 0x2A41 JUMP JUMPDEST PUSH2 0xA05 JUMP JUMPDEST PUSH1 0x40 MLOAD PUSH2 0x252 SWAP3 SWAP2 SWAP1 PUSH2 0x3087 JUMP JUMPDEST PUSH2 0x278 PUSH2 0xA9D JUMP JUMPDEST PUSH2 0x32A PUSH2 0x4FD CALLDATASIZE PUSH1 0x4 PUSH2 0x2B9A JUMP JUMPDEST PUSH2 0xACB JUMP JUMPDEST PUSH2 0x515 PUSH2 0x510 CALLDATASIZE PUSH1 0x4 PUSH2 0x2B9A JUMP JUMPDEST PUSH2 0xAEF JUMP JUMPDEST PUSH1 0x40 MLOAD PUSH2 0x252 SWAP2 SWAP1 PUSH2 0x32BC JUMP JUMPDEST PUSH2 0x535 PUSH2 0x530 CALLDATASIZE PUSH1 0x4 PUSH2 0x2B9A JUMP JUMPDEST PUSH2 0xB0D JUMP JUMPDEST PUSH1 0x40 MLOAD PUSH2 0x252 SWAP3 SWAP2 SWAP1 PUSH2 0x32F1 JUMP JUMPDEST PUSH2 0x245 PUSH2 0x551 CALLDATASIZE PUSH1 0x4 PUSH2 0x2B9A JUMP JUMPDEST PUSH2 0xBDF JUMP JUMPDEST PUSH2 0x2C8 PUSH2 0x564 CALLDATASIZE PUSH1 0x4 PUSH2 0x2C0F JUMP JUMPDEST PUSH2 0xBFA JUMP JUMPDEST PUSH2 0x245 PUSH2 0xC15 JUMP JUMPDEST PUSH2 0x584 PUSH2 0x57F CALLDATASIZE PUSH1 0x4 PUSH2 0x2A41 JUMP JUMPDEST PUSH2 0xC2D JUMP JUMPDEST PUSH1 0x40 MLOAD PUSH2 0x252 SWAP4 SWAP3 SWAP2 SWAP1 PUSH2 0x3217 JUMP JUMPDEST PUSH2 0x5A6 PUSH2 0x5A1 CALLDATASIZE PUSH1 0x4 PUSH2 0x2BB4 JUMP JUMPDEST PUSH2 0xDB7 JUMP JUMPDEST PUSH1 0x40 MLOAD PUSH2 0x252 SWAP4 SWAP3 SWAP2 SWAP1 PUSH2 0x30A0 JUMP JUMPDEST PUSH1 0x0 PUSH2 0x5BF PUSH2 0xDE2 JUMP JUMPDEST SLOAD PUSH1 0x1 PUSH1 0x1 PUSH1 0xA0 SHL SUB AND SWAP1 POP SWAP1 JUMP JUMPDEST PUSH1 0x0 SLOAD PUSH2 0xFFFF AND SWAP1 JUMP JUMPDEST PUSH1 0x0 DUP1 SWAP2 JUMP JUMPDEST PUSH1 0x2 SLOAD PUSH1 0x1 PUSH1 0x1 PUSH1 0xA0 SHL SUB AND DUP2 JUMP JUMPDEST PUSH1 0x0 DUP1 PUSH1 0x0 DUP1 PUSH1 0x0 DUP1 PUSH1 0x0 DUP1 PUSH2 0x602 DUP10 PUSH2 0xDEF JUMP JUMPDEST SWAP4 SWAP12 POP SWAP2 SWAP9 POP SWAP7 POP SWAP1 SWAP5 POP PUSH2 0x618 SWAP1 POP DUP10 PUSH2 0xE5B JUMP JUMPDEST SWAP2 SWAP9 POP SWAP3 POP SWAP1 POP PUSH2 0x62D DUP10 PUSH2 0xFFFF DUP11 AND PUSH2 0xEBC JUMP JUMPDEST SWAP1 SWAP2 POP SWAP1 POP POP DUP1 SWAP4 POP POP SWAP2 SWAP4 SWAP6 SWAP8 POP SWAP2 SWAP4 SWAP6 SWAP8 JUMP JUMPDEST PUSH1 0x60 PUSH2 0x64D DUP3 PUSH2 0xF68 JUMP JUMPDEST PUSH2 0x657 DUP3 TIMESTAMP PUSH2 0xFA5 JUMP JUMPDEST SWAP1 POP JUMPDEST SWAP2 SWAP1 POP JUMP JUMPDEST PUSH2 0x667 PUSH2 0x27B7 JUMP JUMPDEST PUSH2 0x66F PUSH2 0x27B7 JUMP JUMPDEST PUSH2 0x678 DUP4 PUSH2 0xF68 JUMP JUMPDEST PUSH2 0x685 DUP4 PUSH2 0xFFFF AND PUSH2 0x105E JUMP JUMPDEST SWAP2 POP PUSH2 0x694 DUP4 PUSH2 0xFFFF AND PUSH2 0x1071 JUMP JUMPDEST SWAP1 POP SWAP2 POP SWAP2 JUMP JUMPDEST PUSH1 0x60 DUP1 PUSH2 0x6A7 DUP4 PUSH2 0xF68 JUMP JUMPDEST PUSH1 0x0 PUSH2 0x6B6 DUP5 PUSH2 0xFFFF AND PUSH2 0x1084 JUMP JUMPDEST PUSH1 0xFF AND SWAP1 POP PUSH2 0x6C9 DUP5 PUSH2 0xFFFF AND DUP3 PUSH2 0x109A JUMP JUMPDEST SWAP1 SWAP6 SWAP1 SWAP5 POP SWAP3 POP POP POP JUMP JUMPDEST PUSH2 0xFFFF AND PUSH1 0x0 SWAP1 DUP2 MSTORE PUSH1 0xC PUSH1 0x20 MSTORE PUSH1 0x40 SWAP1 KECCAK256 SLOAD SWAP1 JUMP JUMPDEST PUSH2 0x6F2 PUSH2 0x27E6 JUMP JUMPDEST PUSH2 0x6FA PUSH2 0x2844 JUMP JUMPDEST PUSH2 0x703 DUP4 PUSH2 0xF68 JUMP JUMPDEST PUSH2 0x710 DUP4 PUSH2 0xFFFF AND PUSH2 0x10D1 JUMP JUMPDEST SWAP2 POP PUSH2 0x694 DUP4 PUSH2 0xFFFF AND PUSH2 0x127A JUMP JUMPDEST PUSH1 0x1 PUSH1 0x1 PUSH1 0xA0 SHL SUB AND PUSH1 0x0 SWAP1 DUP2 MSTORE PUSH1 0x8 PUSH1 0x20 MSTORE PUSH1 0x40 SWAP1 KECCAK256 SLOAD PUSH1 0xFF AND SWAP1 JUMP JUMPDEST PUSH2 0x745 PUSH2 0x286E JUMP JUMPDEST PUSH2 0x74E DUP5 PUSH2 0xF68 JUMP JUMPDEST PUSH1 0x0 PUSH2 0x759 DUP6 PUSH2 0x12C6 JUMP JUMPDEST SWAP1 POP PUSH2 0x763 PUSH2 0x286E JUMP JUMPDEST PUSH2 0x784 DUP7 PUSH2 0xFFFF AND DUP7 TIMESTAMP PUSH1 0x1 PUSH2 0x778 DUP8 PUSH2 0x12E9 JUMP JUMPDEST DUP7 SWAP5 SWAP4 SWAP3 SWAP2 SWAP1 DUP11 PUSH2 0x12FD JUMP JUMPDEST SWAP2 POP POP JUMPDEST SWAP4 SWAP3 POP POP POP JUMP JUMPDEST PUSH1 0x1 PUSH1 0x1 PUSH1 0xA0 SHL SUB AND PUSH1 0x0 SWAP1 DUP2 MSTORE PUSH1 0x6 PUSH1 0x20 MSTORE PUSH1 0x40 SWAP1 KECCAK256 SLOAD PUSH1 0xFF AND SWAP1 JUMP JUMPDEST PUSH1 0x1 SLOAD PUSH1 0x1 PUSH1 0x1 PUSH1 0xA0 SHL SUB AND DUP2 JUMP JUMPDEST PUSH2 0x7C4 PUSH2 0x27B7 JUMP JUMPDEST PUSH2 0x7CC PUSH2 0x27B7 JUMP JUMPDEST PUSH2 0x7D4 PUSH2 0x28B6 JUMP JUMPDEST PUSH2 0x7DC PUSH2 0x2844 JUMP JUMPDEST PUSH2 0x7E5 DUP6 PUSH2 0xF68 JUMP JUMPDEST PUSH2 0x7F2 DUP6 PUSH2 0xFFFF AND PUSH2 0x105E JUMP JUMPDEST SWAP4 POP PUSH2 0x801 DUP6 PUSH2 0xFFFF AND PUSH2 0x1071 JUMP JUMPDEST SWAP3 POP PUSH2 0x810 DUP6 PUSH2 0xFFFF AND PUSH2 0x1334 JUMP JUMPDEST SWAP2 POP PUSH2 0x81F DUP6 PUSH2 0xFFFF AND PUSH2 0x127A JUMP JUMPDEST SWAP1 POP SWAP2 SWAP4 POP SWAP2 SWAP4 JUMP JUMPDEST PUSH1 0x0 SLOAD PUSH5 0x100000000 SWAP1 DIV PUSH1 0x1 PUSH1 0x1 PUSH1 0xA0 SHL SUB AND DUP2 JUMP JUMPDEST PUSH1 0x0 PUSH2 0x84A DUP3 PUSH2 0xF68 JUMP JUMPDEST PUSH2 0x858 DUP4 DUP4 PUSH2 0xFFFF AND PUSH2 0x149D JUMP JUMPDEST SWAP1 POP JUMPDEST SWAP3 SWAP2 POP POP JUMP JUMPDEST PUSH1 0x0 PUSH2 0x86C DUP4 PUSH2 0xF68 JUMP JUMPDEST PUSH2 0x87B DUP5 DUP5 PUSH2 0xFFFF AND DUP5 PUSH2 0x14D2 JUMP JUMPDEST SWAP5 SWAP4 POP POP POP POP JUMP JUMPDEST PUSH1 0x1 PUSH1 0x1 PUSH1 0xA0 SHL SUB DUP2 AND PUSH1 0x0 SWAP1 DUP2 MSTORE PUSH1 0x9 PUSH1 0x20 MSTORE PUSH1 0x40 SWAP1 KECCAK256 SLOAD PUSH2 0xFFFF AND DUP1 PUSH2 0x65A JUMPI PUSH1 0x40 MLOAD PUSH3 0x461BCD PUSH1 0xE5 SHL DUP2 MSTORE PUSH1 0x4 ADD PUSH2 0x234 SWAP1 PUSH2 0x31DF JUMP JUMPDEST PUSH1 0x0 PUSH2 0x8C8 DUP3 PUSH2 0xF68 JUMP JUMPDEST PUSH1 0x0 PUSH2 0x8D7 DUP4 PUSH2 0xFFFF AND PUSH2 0x1517 JUMP JUMPDEST SWAP1 POP PUSH1 0x1 PUSH1 0x1 PUSH1 0xA0 SHL SUB DUP2 AND PUSH2 0x657 JUMPI PUSH1 0x40 MLOAD PUSH3 0x461BCD PUSH1 0xE5 SHL DUP2 MSTORE PUSH1 0x4 ADD PUSH2 0x234 SWAP1 PUSH2 0x30B6 JUMP JUMPDEST PUSH1 0x60 DUP1 PUSH2 0x90B DUP4 PUSH2 0xF68 JUMP JUMPDEST PUSH1 0x0 PUSH2 0x91A DUP5 PUSH2 0xFFFF AND PUSH2 0x1084 JUMP JUMPDEST PUSH1 0xFF AND SWAP1 POP PUSH2 0x6C9 DUP5 PUSH2 0xFFFF AND DUP3 PUSH2 0x153D JUMP JUMPDEST PUSH1 0xB SLOAD PUSH1 0x1 PUSH1 0x1 PUSH1 0xA0 SHL SUB AND SWAP1 JUMP JUMPDEST PUSH1 0x60 DUP1 PUSH1 0x0 DUP1 PUSH1 0x0 DUP1 PUSH2 0x94E DUP8 PUSH2 0xDEF JUMP JUMPDEST SWAP5 POP SWAP5 POP SWAP5 POP POP SWAP4 POP PUSH2 0x961 DUP8 DUP4 PUSH2 0x1568 JUMP JUMPDEST SWAP6 POP PUSH2 0x972 DUP8 DUP6 PUSH2 0xFFFF AND DUP6 PUSH2 0x1591 JUMP JUMPDEST SWAP5 POP POP POP POP POP SWAP2 POP SWAP2 JUMP JUMPDEST PUSH2 0x985 PUSH2 0x28E5 JUMP JUMPDEST PUSH2 0x657 DUP3 PUSH2 0x169F JUMP JUMPDEST PUSH1 0x60 PUSH1 0x0 PUSH2 0x99B DUP4 PUSH2 0x169F JUMP JUMPDEST SWAP1 POP PUSH2 0x9A6 DUP2 PUSH2 0x1749 JUMP JUMPDEST ISZERO PUSH2 0x9D1 JUMPI PUSH2 0x9C9 DUP4 DUP3 PUSH1 0x60 ADD MLOAD PUSH2 0xFFFF AND DUP4 PUSH1 0x0 ADD MLOAD PUSH5 0xFFFFFFFFFF AND PUSH2 0x1591 JUMP JUMPDEST SWAP2 POP POP PUSH2 0x65A JUMP JUMPDEST PUSH2 0x9C9 DUP4 DUP3 PUSH1 0x40 ADD MLOAD PUSH2 0x1568 JUMP JUMPDEST PUSH2 0x9E7 PUSH2 0x2844 JUMP JUMPDEST PUSH2 0x9F0 DUP4 PUSH2 0xF68 JUMP JUMPDEST PUSH2 0x858 DUP4 PUSH2 0xFFFF AND DUP4 PUSH5 0xFFFFFFFFFF AND PUSH2 0x1756 JUMP JUMPDEST PUSH1 0x0 PUSH1 0x60 PUSH20 0x0 PUSH4 0x6CB65EAF DUP5 PUSH1 0x40 MLOAD DUP3 PUSH4 0xFFFFFFFF AND PUSH1 0xE0 SHL DUP2 MSTORE PUSH1 0x4 ADD PUSH2 0xA40 SWAP2 SWAP1 PUSH2 0x2F99 JUMP JUMPDEST PUSH1 0x0 PUSH1 0x40 MLOAD DUP1 DUP4 SUB DUP2 DUP7 DUP1 EXTCODESIZE ISZERO DUP1 ISZERO PUSH2 0xA58 JUMPI PUSH1 0x0 DUP1 REVERT JUMPDEST POP GAS DELEGATECALL ISZERO DUP1 ISZERO PUSH2 0xA6C JUMPI RETURNDATASIZE PUSH1 0x0 DUP1 RETURNDATACOPY RETURNDATASIZE PUSH1 0x0 REVERT JUMPDEST POP POP POP POP PUSH1 0x40 MLOAD RETURNDATASIZE PUSH1 0x0 DUP3 RETURNDATACOPY PUSH1 0x1F RETURNDATASIZE SWAP1 DUP2 ADD PUSH1 0x1F NOT AND DUP3 ADD PUSH1 0x40 MSTORE PUSH2 0xA94 SWAP2 SWAP1 DUP2 ADD SWAP1 PUSH2 0x2AE0 JUMP JUMPDEST SWAP2 POP SWAP2 POP SWAP2 POP SWAP2 JUMP JUMPDEST PUSH20 0x0 PUSH20 0x0 SWAP1 SWAP2 JUMP JUMPDEST PUSH1 0x0 PUSH2 0xAD6 DUP3 PUSH2 0xF68 JUMP JUMPDEST PUSH2 0xAE5 PUSH1 0x0 DUP4 PUSH2 0xFFFF AND PUSH2 0xEBC JUMP JUMPDEST POP SWAP2 SWAP5 SWAP4 POP POP POP POP JUMP JUMPDEST PUSH2 0xAF7 PUSH2 0x27E6 JUMP JUMPDEST PUSH2 0xB00 DUP3 PUSH2 0xF68 JUMP JUMPDEST PUSH2 0x657 DUP3 PUSH2 0xFFFF AND PUSH2 0x10D1 JUMP JUMPDEST PUSH2 0xB15 PUSH2 0x2913 JUMP JUMPDEST PUSH2 0xB1D PUSH2 0x2948 JUMP JUMPDEST PUSH2 0xB26 DUP4 PUSH2 0xF68 JUMP JUMPDEST PUSH1 0x0 PUSH2 0xB30 PUSH2 0x17B3 JUMP JUMPDEST SWAP1 POP PUSH1 0x0 PUSH2 0xB3C PUSH2 0x17C0 JUMP JUMPDEST PUSH2 0xFFFF SWAP1 SWAP6 AND PUSH1 0x0 DUP2 DUP2 MSTORE PUSH1 0x20 SWAP4 DUP5 MSTORE PUSH1 0x40 DUP1 DUP3 KECCAK256 DUP2 MLOAD PUSH1 0xC0 DUP2 ADD DUP4 MSTORE SWAP1 SLOAD PUSH1 0x1 PUSH1 0x1 PUSH1 0xA0 SHL SUB DUP1 DUP3 AND DUP4 MSTORE PUSH1 0xFF PUSH1 0x1 PUSH1 0xA0 SHL DUP1 DUP5 DIV DUP3 AND DUP6 DUP12 ADD MSTORE PUSH1 0x1 PUSH1 0xA8 SHL DUP5 DIV DUP3 AND ISZERO ISZERO DUP6 DUP8 ADD MSTORE PUSH1 0x1 PUSH1 0xB0 SHL DUP5 DIV DUP3 AND PUSH1 0x60 DUP7 ADD MSTORE PUSH1 0x1 PUSH1 0xB8 SHL DUP5 DIV DUP3 AND PUSH1 0x80 DUP7 ADD MSTORE PUSH1 0x1 PUSH1 0xC0 SHL SWAP1 SWAP4 DIV DUP2 AND PUSH1 0xA0 DUP6 ADD MSTORE SWAP6 DUP6 MSTORE SWAP10 DUP8 MSTORE SWAP3 DUP3 SWAP1 KECCAK256 DUP3 MLOAD DUP1 DUP5 ADD SWAP1 SWAP4 MSTORE SLOAD SWAP9 DUP10 AND DUP3 MSTORE SWAP2 SWAP1 SWAP8 DIV SWAP1 SWAP2 AND SWAP3 DUP7 ADD SWAP3 SWAP1 SWAP3 MSTORE POP SWAP4 SWAP2 POP POP JUMP JUMPDEST PUSH1 0x0 DUP1 PUSH2 0xBEF DUP4 PUSH2 0xFFFF AND PUSH2 0x1517 JUMP JUMPDEST SWAP1 POP PUSH2 0x788 DUP2 PUSH2 0x17CD JUMP JUMPDEST PUSH1 0x60 PUSH2 0xC05 DUP4 PUSH2 0xF68 JUMP JUMPDEST PUSH2 0x858 DUP4 DUP4 PUSH4 0xFFFFFFFF AND PUSH2 0xFA5 JUMP JUMPDEST PUSH20 0xCFEAEAD4947F0705A14EC42AC3D44129E1EF3ED5 SWAP1 JUMP JUMPDEST PUSH2 0xC35 PUSH2 0x28E5 JUMP JUMPDEST PUSH1 0x60 DUP1 PUSH2 0xC41 DUP5 PUSH2 0x169F JUMP JUMPDEST PUSH1 0x40 DUP1 MLOAD PUSH1 0xA DUP1 DUP3 MSTORE PUSH2 0x160 DUP3 ADD SWAP1 SWAP3 MSTORE SWAP2 SWAP5 POP DUP2 PUSH1 0x20 ADD JUMPDEST PUSH2 0xC62 PUSH2 0x295F JUMP JUMPDEST DUP2 MSTORE PUSH1 0x20 ADD SWAP1 PUSH1 0x1 SWAP1 SUB SWAP1 DUP2 PUSH2 0xC5A JUMPI SWAP1 POP POP SWAP2 POP PUSH1 0x0 PUSH2 0xC82 DUP5 PUSH2 0x1749 JUMP JUMPDEST ISZERO PUSH2 0xCD9 JUMPI PUSH1 0x0 DUP4 PUSH1 0x0 DUP2 MLOAD DUP2 LT PUSH2 0xC96 JUMPI INVALID JUMPDEST PUSH1 0x20 SWAP1 DUP2 MUL SWAP2 SWAP1 SWAP2 ADD ADD MLOAD PUSH1 0x60 DUP7 ADD DUP1 MLOAD PUSH2 0xFFFF SWAP1 DUP2 AND DUP4 MSTORE SWAP1 MLOAD SWAP2 SWAP3 POP PUSH2 0xCC0 SWAP2 DUP9 SWAP2 AND PUSH2 0xEBC JUMP JUMPDEST PUSH1 0x80 DUP6 ADD MSTORE PUSH1 0x60 DUP5 ADD MSTORE PUSH1 0x40 DUP4 ADD MSTORE PUSH1 0x20 SWAP1 SWAP2 ADD MSTORE PUSH1 0x1 ADD JUMPDEST PUSH1 0x80 DUP5 ADD MLOAD JUMPDEST PUSH1 0x1 PUSH1 0x1 PUSH1 0x70 SHL SUB NOT DUP2 AND ISZERO PUSH2 0xD6A JUMPI PUSH1 0x0 DUP5 DUP4 DUP2 MLOAD DUP2 LT PUSH2 0xCFD JUMPI INVALID JUMPDEST PUSH1 0x20 SWAP1 DUP2 MUL SWAP2 SWAP1 SWAP2 ADD ADD MLOAD PUSH1 0xF0 DUP4 SWAP1 SHR PUSH2 0x3FFF AND DUP1 DUP3 MSTORE SWAP1 SWAP2 POP PUSH2 0xD21 JUMPI POP PUSH2 0xD6A JUMP JUMPDEST PUSH2 0xD33 DUP8 DUP3 PUSH1 0x0 ADD MLOAD PUSH2 0xFFFF AND PUSH2 0xEBC JUMP JUMPDEST PUSH1 0x80 DUP6 ADD MSTORE PUSH1 0x60 DUP5 ADD MSTORE PUSH1 0x40 DUP4 ADD MSTORE PUSH1 0x20 SWAP1 SWAP2 ADD MSTORE PUSH1 0x1 SWAP2 SWAP1 SWAP2 ADD SWAP1 PUSH1 0x10 SHL PUSH16 0xFFFFFFFFFFFFFFFFFFFFFFFFFFFFFFFF NOT AND PUSH2 0xCDF JUMP JUMPDEST PUSH2 0xD73 DUP6 PUSH2 0x1749 JUMP JUMPDEST ISZERO PUSH2 0xD9D JUMPI PUSH2 0xD96 DUP7 DUP7 PUSH1 0x60 ADD MLOAD PUSH2 0xFFFF AND DUP8 PUSH1 0x0 ADD MLOAD PUSH5 0xFFFFFFFFFF AND PUSH2 0x1591 JUMP JUMPDEST SWAP3 POP PUSH2 0xDAE JUMP JUMPDEST PUSH2 0xDAB DUP7 DUP7 PUSH1 0x40 ADD MLOAD PUSH2 0x1568 JUMP JUMPDEST SWAP3 POP JUMPDEST POP POP SWAP2 SWAP4 SWAP1 SWAP3 POP JUMP JUMPDEST PUSH1 0x0 DUP1 PUSH1 0x0 PUSH2 0xDC5 DUP6 PUSH2 0xF68 JUMP JUMPDEST PUSH2 0xDD3 DUP5 DUP7 PUSH2 0xFFFF AND PUSH2 0xEBC JUMP JUMPDEST POP SWAP2 SWAP8 SWAP1 SWAP7 POP SWAP1 SWAP5 POP SWAP3 POP POP POP JUMP JUMPDEST PUSH1 0x0 DUP1 PUSH2 0x85B PUSH1 0x13 PUSH2 0x183F JUMP JUMPDEST PUSH1 0x0 DUP1 PUSH1 0x0 DUP1 PUSH1 0x0 DUP1 PUSH2 0xE00 PUSH2 0x1858 JUMP JUMPDEST PUSH1 0x1 PUSH1 0x1 PUSH1 0xA0 SHL SUB SWAP1 SWAP8 AND PUSH1 0x0 SWAP1 DUP2 MSTORE PUSH1 0x20 SWAP8 SWAP1 SWAP8 MSTORE POP POP PUSH1 0x40 SWAP1 SWAP5 KECCAK256 SLOAD PUSH2 0xFFFF DUP2 AND SWAP6 PUSH4 0xFFFFFFFF PUSH3 0x10000 DUP4 DIV DUP2 AND SWAP7 POP PUSH7 0x1000000000000 DUP4 DIV AND SWAP5 POP PUSH1 0xFF PUSH1 0x1 PUSH1 0x50 SHL DUP4 DIV AND SWAP4 POP PUSH1 0x1 PUSH1 0x58 SHL SWAP1 SWAP2 DIV PUSH1 0xD8 SHL SWAP2 POP JUMP JUMPDEST PUSH1 0x0 DUP1 PUSH1 0x0 DUP1 PUSH2 0xE69 PUSH2 0x1865 JUMP JUMPDEST PUSH1 0x1 PUSH1 0x1 PUSH1 0xA0 SHL SUB SWAP6 SWAP1 SWAP6 AND PUSH1 0x0 SWAP1 DUP2 MSTORE PUSH1 0x20 SWAP6 SWAP1 SWAP6 MSTORE POP POP PUSH1 0x40 SWAP1 SWAP3 KECCAK256 SLOAD PUSH12 0xFFFFFFFFFFFFFFFFFFFFFFFF DUP2 AND SWAP4 PUSH1 0x1 PUSH1 0x60 SHL DUP3 DIV PUSH1 0x1 PUSH1 0x1 PUSH1 0x80 SHL SUB AND SWAP4 POP PUSH1 0x1 PUSH1 0xE0 SHL SWAP1 SWAP2 DIV PUSH4 0xFFFFFFFF AND SWAP2 POP JUMP JUMPDEST PUSH1 0x0 DUP1 PUSH1 0x0 DUP1 PUSH1 0x0 PUSH2 0xECC PUSH2 0x1872 JUMP JUMPDEST PUSH1 0x1 PUSH1 0x1 PUSH1 0xA0 SHL SUB DUP9 AND PUSH1 0x0 SWAP1 DUP2 MSTORE PUSH1 0x20 DUP3 DUP2 MSTORE PUSH1 0x40 DUP1 DUP4 KECCAK256 DUP11 DUP5 MSTORE SWAP1 SWAP2 MSTORE SWAP1 KECCAK256 DUP1 SLOAD PUSH10 0xFFFFFFFFFFFFFFFFFFFF DUP2 AND SWAP7 POP PUSH1 0x1 PUSH1 0x50 SHL SWAP1 DIV PUSH4 0xFFFFFFFF AND SWAP5 POP SWAP1 SWAP2 POP DUP4 ISZERO PUSH2 0xF38 JUMPI DUP1 SLOAD PUSH2 0xF31 SWAP1 PUSH1 0x1 PUSH1 0x70 SHL SWAP1 DIV PUSH7 0xFFFFFFFFFFFFFF AND PUSH2 0x187F JUMP JUMPDEST SWAP3 POP PUSH2 0xF4D JUMP JUMPDEST DUP1 SLOAD PUSH1 0x1 PUSH1 0x70 SHL SWAP1 DIV PUSH7 0xFFFFFFFFFFFFFF AND SWAP3 POP JUMPDEST SLOAD PUSH1 0x1 PUSH1 0xA8 SHL SWAP1 DIV PUSH1 0xA SWAP1 DUP2 SIGNEXTEND SWAP1 SIGNEXTEND SWAP8 SWAP4 SWAP7 POP SWAP2 SWAP5 POP SWAP3 POP POP JUMP JUMPDEST DUP1 PUSH2 0xFFFF AND PUSH1 0x0 LT DUP1 ISZERO PUSH2 0xF86 JUMPI POP PUSH1 0x0 SLOAD PUSH2 0xFFFF SWAP1 DUP2 AND SWAP1 DUP3 AND GT ISZERO JUMPDEST PUSH2 0xFA2 JUMPI PUSH1 0x40 MLOAD PUSH3 0x461BCD PUSH1 0xE5 SHL DUP2 MSTORE PUSH1 0x4 ADD PUSH2 0x234 SWAP1 PUSH2 0x3185 JUMP JUMPDEST POP JUMP JUMPDEST PUSH1 0x60 PUSH1 0x0 PUSH2 0xFB2 DUP5 PUSH2 0x12C6 JUMP JUMPDEST SWAP1 POP PUSH1 0x0 DUP2 PUSH1 0x20 ADD MLOAD PUSH8 0xFFFFFFFFFFFFFFFF DUP2 GT DUP1 ISZERO PUSH2 0xFD1 JUMPI PUSH1 0x0 DUP1 REVERT JUMPDEST POP PUSH1 0x40 MLOAD SWAP1 DUP1 DUP3 MSTORE DUP1 PUSH1 0x20 MUL PUSH1 0x20 ADD DUP3 ADD PUSH1 0x40 MSTORE DUP1 ISZERO PUSH2 0x100B JUMPI DUP2 PUSH1 0x20 ADD JUMPDEST PUSH2 0xFF8 PUSH2 0x286E JUMP JUMPDEST DUP2 MSTORE PUSH1 0x20 ADD SWAP1 PUSH1 0x1 SWAP1 SUB SWAP1 DUP2 PUSH2 0xFF0 JUMPI SWAP1 POP JUMPDEST POP SWAP1 POP PUSH1 0x0 JUMPDEST DUP3 PUSH1 0x20 ADD MLOAD DUP2 LT ISZERO PUSH2 0x1055 JUMPI PUSH2 0x104D DUP3 DUP3 DUP2 MLOAD DUP2 LT PUSH2 0x102C JUMPI INVALID JUMPDEST PUSH1 0x20 MUL PUSH1 0x20 ADD ADD MLOAD DUP3 PUSH1 0x1 ADD PUSH1 0x1 DUP9 DUP8 PUSH2 0x188D SWAP1 SWAP5 SWAP4 SWAP3 SWAP2 SWAP1 PUSH4 0xFFFFFFFF AND JUMP JUMPDEST PUSH1 0x1 ADD PUSH2 0x1011 JUMP JUMPDEST POP SWAP5 SWAP4 POP POP POP POP JUMP JUMPDEST PUSH2 0x1066 PUSH2 0x27B7 JUMP JUMPDEST PUSH2 0x657 DUP3 PUSH1 0x0 PUSH2 0x1908 JUMP JUMPDEST PUSH2 0x1079 PUSH2 0x27B7 JUMP JUMPDEST PUSH2 0x657 DUP3 PUSH1 0x1 PUSH2 0x1908 JUMP JUMPDEST PUSH1 0x0 DUP1 PUSH2 0x1090 DUP4 PUSH2 0x19B6 JUMP JUMPDEST PUSH1 0xFF AND SWAP4 SWAP3 POP POP POP JUMP JUMPDEST PUSH1 0x60 DUP1 PUSH1 0x0 PUSH2 0x10A7 PUSH2 0x19D3 JUMP JUMPDEST PUSH1 0x0 DUP7 DUP2 MSTORE PUSH1 0x20 DUP3 SWAP1 MSTORE PUSH1 0x40 SWAP1 KECCAK256 SWAP1 SWAP2 POP PUSH2 0x10C4 DUP2 DUP7 PUSH1 0x1 PUSH2 0x19E0 JUMP JUMPDEST SWAP1 SWAP8 SWAP1 SWAP7 POP SWAP5 POP POP POP POP POP JUMP JUMPDEST PUSH2 0x10D9 PUSH2 0x27E6 JUMP JUMPDEST PUSH1 0x0 PUSH2 0x10E4 DUP4 PUSH2 0x19B6 JUMP JUMPDEST SWAP1 POP PUSH1 0xFF DUP2 AND PUSH1 0x0 DUP2 PUSH8 0xFFFFFFFFFFFFFFFF DUP2 GT DUP1 ISZERO PUSH2 0x1103 JUMPI PUSH1 0x0 DUP1 REVERT JUMPDEST POP PUSH1 0x40 MLOAD SWAP1 DUP1 DUP3 MSTORE DUP1 PUSH1 0x20 MUL PUSH1 0x20 ADD DUP3 ADD PUSH1 0x40 MSTORE DUP1 ISZERO PUSH2 0x112D JUMPI DUP2 PUSH1 0x20 ADD PUSH1 0x20 DUP3 MUL DUP1 CALLDATASIZE DUP4 CALLDATACOPY ADD SWAP1 POP JUMPDEST POP SWAP1 POP PUSH1 0x0 DUP3 PUSH1 0xFF AND PUSH8 0xFFFFFFFFFFFFFFFF DUP2 GT DUP1 ISZERO PUSH2 0x114C JUMPI PUSH1 0x0 DUP1 REVERT JUMPDEST POP PUSH1 0x40 MLOAD SWAP1 DUP1 DUP3 MSTORE DUP1 PUSH1 0x20 MUL PUSH1 0x20 ADD DUP3 ADD PUSH1 0x40 MSTORE DUP1 ISZERO PUSH2 0x1176 JUMPI DUP2 PUSH1 0x20 ADD PUSH1 0x20 DUP3 MUL DUP1 CALLDATASIZE DUP4 CALLDATACOPY ADD SWAP1 POP JUMPDEST POP SWAP1 POP PUSH1 0x0 JUMPDEST DUP4 PUSH1 0xFF AND DUP2 PUSH1 0xFF AND LT ISZERO PUSH2 0x1208 JUMPI DUP5 DUP2 PUSH1 0xFF AND PUSH1 0x16 SUB PUSH1 0x20 DUP2 LT PUSH2 0x119C JUMPI INVALID JUMPDEST BYTE PUSH1 0xF8 SHL PUSH1 0xF8 SHR DUP4 DUP3 PUSH1 0xFF AND DUP2 MLOAD DUP2 LT PUSH2 0x11B2 JUMPI INVALID JUMPDEST PUSH1 0x20 MUL PUSH1 0x20 ADD ADD SWAP1 PUSH1 0xFF AND SWAP1 DUP2 PUSH1 0xFF AND DUP2 MSTORE POP POP DUP5 DUP2 PUSH1 0xFF AND PUSH1 0xF SUB PUSH1 0x20 DUP2 LT PUSH2 0x11D8 JUMPI INVALID JUMPDEST BYTE PUSH1 0xF8 SHL PUSH1 0xF8 SHR DUP3 DUP3 PUSH1 0xFF AND DUP2 MLOAD DUP2 LT PUSH2 0x11EE JUMPI INVALID JUMPDEST PUSH1 0xFF SWAP1 SWAP3 AND PUSH1 0x20 SWAP3 DUP4 MUL SWAP2 SWAP1 SWAP2 ADD SWAP1 SWAP2 ADD MSTORE PUSH1 0x1 ADD PUSH2 0x117C JUMP JUMPDEST POP PUSH1 0x40 DUP1 MLOAD PUSH2 0x160 DUP2 ADD SWAP1 SWAP2 MSTORE PUSH1 0xFF DUP5 AND DUP2 MSTORE PUSH1 0x20 DUP2 ADD DUP6 PUSH1 0x1E BYTE DUP2 MSTORE PUSH1 0x20 ADD DUP6 PUSH1 0x1D BYTE DUP2 MSTORE PUSH1 0x20 ADD DUP6 PUSH1 0x1C BYTE DUP2 MSTORE PUSH1 0x20 ADD DUP6 PUSH1 0x1B BYTE DUP2 MSTORE PUSH1 0x20 ADD DUP6 PUSH1 0x1A BYTE DUP2 MSTORE PUSH1 0x20 ADD DUP6 PUSH1 0x19 BYTE DUP2 MSTORE PUSH1 0x20 ADD DUP6 PUSH1 0x18 BYTE DUP2 MSTORE PUSH1 0x20 ADD DUP6 PUSH1 0x17 BYTE DUP2 MSTORE PUSH1 0x20 DUP2 ADD SWAP4 SWAP1 SWAP4 MSTORE PUSH1 0x40 SWAP1 SWAP3 ADD MSTORE SWAP5 SWAP4 POP POP POP POP JUMP JUMPDEST PUSH2 0x1282 PUSH2 0x2844 JUMP JUMPDEST PUSH1 0x0 DUP1 PUSH1 0x0 PUSH2 0x1290 DUP6 PUSH2 0x1B7F JUMP JUMPDEST PUSH1 0x40 DUP1 MLOAD PUSH1 0x60 DUP2 ADD DUP3 MSTORE PUSH1 0x1 PUSH1 0x1 PUSH1 0xA0 SHL SUB SWAP1 SWAP4 AND DUP4 MSTORE PUSH1 0x20 DUP4 ADD SWAP4 SWAP1 SWAP4 MSTORE PUSH1 0xFF AND PUSH1 0xA EXP SWAP2 DUP2 ADD SWAP2 SWAP1 SWAP2 MSTORE SWAP4 POP POP POP POP SWAP2 SWAP1 POP JUMP JUMPDEST PUSH2 0x12CE PUSH2 0x2992 JUMP JUMPDEST PUSH1 0x0 PUSH2 0x12DD DUP4 PUSH2 0xFFFF AND PUSH2 0x127A JUMP JUMPDEST SWAP1 POP PUSH2 0x788 DUP4 DUP3 PUSH2 0x1C40 JUMP JUMPDEST PUSH1 0x60 ADD MLOAD PUSH2 0x12C PUSH1 0x8 SWAP2 SWAP1 SWAP2 SHR PUSH1 0xFF AND MUL SWAP1 JUMP JUMPDEST PUSH2 0x130A DUP8 DUP8 DUP8 DUP7 DUP6 PUSH2 0x1C83 JUMP JUMPDEST PUSH2 0x1323 DUP8 PUSH1 0xE0 ADD MLOAD DUP9 PUSH1 0xA0 ADD MLOAD DUP10 PUSH1 0xC0 ADD MLOAD DUP6 DUP9 PUSH2 0x1D44 JUMP JUMPDEST PUSH1 0xC0 SWAP1 SWAP8 ADD SWAP7 SWAP1 SWAP7 MSTORE POP POP POP POP POP POP JUMP JUMPDEST PUSH2 0x133C PUSH2 0x28B6 JUMP JUMPDEST PUSH1 0x0 PUSH2 0x1346 PUSH2 0x17B3 JUMP JUMPDEST PUSH1 0x0 DUP5 DUP2 MSTORE PUSH1 0x20 DUP3 SWAP1 MSTORE PUSH1 0x40 DUP2 KECCAK256 SWAP2 SWAP3 POP DUP1 PUSH1 0x1 DUP7 EQ ISZERO PUSH2 0x1373 JUMPI POP PUSH8 0xDE0B6B3A7640000 SWAP1 POP DUP1 PUSH2 0x144F JUMP JUMPDEST DUP3 SLOAD PUSH1 0x40 DUP1 MLOAD PUSH4 0x3FABE5A3 PUSH1 0xE2 SHL DUP2 MSTORE SWAP1 MLOAD PUSH1 0x1 PUSH1 0x1 PUSH1 0xA0 SHL SUB SWAP1 SWAP3 AND SWAP2 PUSH4 0xFEAF968C SWAP2 PUSH1 0x4 DUP1 DUP3 ADD SWAP3 PUSH1 0xA0 SWAP3 SWAP1 SWAP2 SWAP1 DUP3 SWAP1 SUB ADD DUP2 DUP7 DUP1 EXTCODESIZE ISZERO DUP1 ISZERO PUSH2 0x13B7 JUMPI PUSH1 0x0 DUP1 REVERT JUMPDEST POP GAS STATICCALL ISZERO DUP1 ISZERO PUSH2 0x13CB JUMPI RETURNDATASIZE PUSH1 0x0 DUP1 RETURNDATACOPY RETURNDATASIZE PUSH1 0x0 REVERT JUMPDEST POP POP POP POP PUSH1 0x40 MLOAD RETURNDATASIZE PUSH1 0x1F NOT PUSH1 0x1F DUP3 ADD AND DUP3 ADD DUP1 PUSH1 0x40 MSTORE POP DUP2 ADD SWAP1 PUSH2 0x13EF SWAP2 SWAP1 PUSH2 0x2C81 JUMP JUMPDEST POP SWAP2 SWAP4 POP POP PUSH1 0x0 DUP4 SGT SWAP2 POP PUSH2 0x1418 SWAP1 POP JUMPI PUSH1 0x40 MLOAD PUSH3 0x461BCD PUSH1 0xE5 SHL DUP2 MSTORE PUSH1 0x4 ADD PUSH2 0x234 SWAP1 PUSH2 0x3135 JUMP JUMPDEST DUP3 SLOAD PUSH1 0xFF PUSH1 0x1 PUSH1 0xA0 SHL DUP3 DIV DUP2 AND PUSH1 0xA EXP SWAP4 POP PUSH1 0x1 PUSH1 0xA8 SHL SWAP1 SWAP2 DIV AND ISZERO PUSH2 0x144F JUMPI PUSH2 0x144C DUP2 PUSH2 0x1446 DUP5 DUP1 PUSH2 0x1DDF JUMP JUMPDEST SWAP1 PUSH2 0x1E2D JUMP JUMPDEST SWAP1 POP JUMPDEST PUSH1 0x40 DUP1 MLOAD PUSH1 0xA0 DUP2 ADD DUP3 MSTORE SWAP3 DUP4 MSTORE PUSH1 0x20 DUP4 ADD SWAP2 SWAP1 SWAP2 MSTORE SWAP2 SLOAD PUSH1 0xFF PUSH1 0x1 PUSH1 0xB0 SHL DUP3 DIV DUP2 AND SWAP4 DUP4 ADD SWAP4 SWAP1 SWAP4 MSTORE PUSH1 0x1 PUSH1 0xB8 SHL DUP2 DIV DUP4 AND PUSH1 0x60 DUP4 ADD MSTORE PUSH1 0x1 PUSH1 0xC0 SHL SWAP1 DIV SWAP1 SWAP2 AND PUSH1 0x80 DUP3 ADD MSTORE SWAP2 POP POP SWAP2 SWAP1 POP JUMP JUMPDEST PUSH1 0x0 DUP1 PUSH2 0x14A8 PUSH2 0x1E5E JUMP JUMPDEST PUSH1 0x1 PUSH1 0x1 PUSH1 0xA0 SHL SUB DUP6 AND PUSH1 0x0 SWAP1 DUP2 MSTORE PUSH1 0x20 SWAP2 DUP3 MSTORE PUSH1 0x40 DUP1 DUP3 KECCAK256 DUP7 DUP4 MSTORE SWAP1 SWAP3 MSTORE KECCAK256 SLOAD SWAP2 POP POP SWAP3 SWAP2 POP POP JUMP JUMPDEST PUSH1 0x0 DUP1 PUSH2 0x14DD PUSH2 0x1E6B JUMP JUMPDEST PUSH1 0x1 PUSH1 0x1 PUSH1 0xA0 SHL SUB DUP7 AND PUSH1 0x0 SWAP1 DUP2 MSTORE PUSH1 0x20 SWAP2 DUP3 MSTORE PUSH1 0x40 DUP1 DUP3 KECCAK256 DUP8 DUP4 MSTORE DUP4 MSTORE DUP1 DUP3 KECCAK256 DUP7 DUP4 MSTORE SWAP1 SWAP3 MSTORE KECCAK256 SLOAD PUSH1 0xF SWAP1 DUP2 SIGNEXTEND SWAP1 SIGNEXTEND SWAP2 POP POP SWAP4 SWAP3 POP POP POP JUMP JUMPDEST PUSH1 0x0 DUP1 PUSH2 0x1522 PUSH2 0x1E78 JUMP JUMPDEST PUSH1 0x0 SWAP4 DUP5 MSTORE PUSH1 0x20 MSTORE POP POP PUSH1 0x40 SWAP1 KECCAK256 SLOAD PUSH1 0x1 PUSH1 0x1 PUSH1 0xA0 SHL SUB AND SWAP1 JUMP JUMPDEST PUSH1 0x60 DUP1 PUSH1 0x0 PUSH2 0x154A PUSH2 0x1E85 JUMP JUMPDEST PUSH1 0x0 DUP7 DUP2 MSTORE PUSH1 0x20 DUP3 SWAP1 MSTORE PUSH1 0x40 DUP2 KECCAK256 SWAP2 SWAP3 POP PUSH2 0x10C4 SWAP1 DUP3 SWAP1 DUP8 SWAP1 PUSH2 0x19E0 JUMP JUMPDEST PUSH1 0x60 PUSH1 0x0 PUSH2 0x1576 DUP5 DUP5 PUSH2 0x1E92 JUMP JUMPDEST SWAP1 POP PUSH1 0x1 DUP2 MLOAD GT PUSH2 0x1588 JUMPI SWAP1 POP PUSH2 0x85B JUMP JUMPDEST PUSH2 0x858 DUP2 PUSH2 0x1FB4 JUMP JUMPDEST PUSH1 0x60 PUSH1 0x0 PUSH2 0x159F DUP6 DUP6 PUSH2 0x149D JUMP JUMPDEST SWAP1 POP PUSH1 0x0 PUSH2 0x15AC DUP3 PUSH2 0x2173 JUMP JUMPDEST SWAP1 POP PUSH1 0x0 DUP2 PUSH8 0xFFFFFFFFFFFFFFFF DUP2 GT DUP1 ISZERO PUSH2 0x15C7 JUMPI PUSH1 0x0 DUP1 REVERT JUMPDEST POP PUSH1 0x40 MLOAD SWAP1 DUP1 DUP3 MSTORE DUP1 PUSH1 0x20 MUL PUSH1 0x20 ADD DUP3 ADD PUSH1 0x40 MSTORE DUP1 ISZERO PUSH2 0x1601 JUMPI DUP2 PUSH1 0x20 ADD JUMPDEST PUSH2 0x15EE PUSH2 0x29BE JUMP JUMPDEST DUP2 MSTORE PUSH1 0x20 ADD SWAP1 PUSH1 0x1 SWAP1 SUB SWAP1 DUP2 PUSH2 0x15E6 JUMPI SWAP1 POP JUMPDEST POP SWAP1 POP PUSH1 0x0 SWAP2 POP PUSH1 0x0 PUSH2 0x1613 DUP5 PUSH2 0x2243 JUMP JUMPDEST SWAP1 POP JUMPDEST DUP1 ISZERO PUSH2 0x1694 JUMPI PUSH1 0x0 PUSH2 0x1628 DUP8 DUP4 PUSH2 0x2268 JUMP JUMPDEST SWAP1 POP PUSH1 0x0 PUSH2 0x1637 DUP11 DUP11 DUP5 PUSH2 0x14D2 JUMP JUMPDEST SWAP1 POP PUSH1 0x0 DUP5 DUP7 DUP2 MLOAD DUP2 LT PUSH2 0x1647 JUMPI INVALID JUMPDEST PUSH1 0x20 SWAP1 DUP2 MUL SWAP2 SWAP1 SWAP2 ADD DUP2 ADD MLOAD DUP12 DUP2 MSTORE SWAP1 DUP2 ADD DUP5 SWAP1 MSTORE PUSH1 0x1 PUSH1 0x40 DUP3 ADD DUP2 SWAP1 MSTORE PUSH1 0x60 DUP3 ADD DUP5 SWAP1 MSTORE SWAP7 SWAP1 SWAP7 ADD SWAP6 SWAP1 POP PUSH2 0x167F DUP8 DUP6 PUSH1 0x0 PUSH2 0x231B JUMP JUMPDEST SWAP7 POP PUSH2 0x168A DUP8 PUSH2 0x2243 JUMP JUMPDEST SWAP4 POP POP POP POP PUSH2 0x1616 JUMP JUMPDEST POP SWAP7 SWAP6 POP POP POP POP POP POP JUMP JUMPDEST PUSH2 0x16A7 PUSH2 0x28E5 JUMP JUMPDEST PUSH1 0x0 PUSH2 0x16B1 PUSH2 0x2366 JUMP JUMPDEST PUSH1 0x1 PUSH1 0x1 PUSH1 0xA0 SHL SUB SWAP4 SWAP1 SWAP4 AND PUSH1 0x0 SWAP1 DUP2 MSTORE PUSH1 0x20 SWAP4 DUP5 MSTORE PUSH1 0x40 SWAP1 DUP2 SWAP1 KECCAK256 DUP2 MLOAD PUSH1 0xA0 DUP2 ADD DUP4 MSTORE SWAP1 SLOAD PUSH5 0xFFFFFFFFFF DUP2 AND DUP3 MSTORE PUSH6 0x10000000000 DUP2 DIV PUSH1 0xF8 SHL PUSH1 0x1 PUSH1 0x1 PUSH1 0xF8 SHL SUB NOT AND SWAP6 DUP3 ADD SWAP6 SWAP1 SWAP6 MSTORE PUSH7 0x1000000000000 DUP6 DIV PUSH1 0xFF AND SWAP2 DUP2 ADD SWAP2 SWAP1 SWAP2 MSTORE PUSH1 0x1 PUSH1 0x38 SHL DUP5 DIV PUSH2 0xFFFF AND PUSH1 0x60 DUP3 ADD MSTORE PUSH10 0x1000000000000000000 SWAP1 SWAP4 DIV PUSH1 0x70 SHL PUSH1 0x1 PUSH1 0x1 PUSH1 0x70 SHL SUB NOT AND PUSH1 0x80 DUP5 ADD MSTORE POP SWAP1 SWAP2 SWAP1 POP JUMP JUMPDEST PUSH1 0x60 ADD MLOAD PUSH2 0xFFFF AND ISZERO ISZERO SWAP1 JUMP JUMPDEST PUSH2 0x175E PUSH2 0x2844 JUMP JUMPDEST PUSH1 0x0 DUP1 PUSH2 0x176B DUP6 DUP6 PUSH2 0x2373 JUMP JUMPDEST SWAP2 POP SWAP2 POP DUP2 PUSH1 0x0 EQ ISZERO PUSH2 0x1789 JUMPI PUSH2 0x1781 DUP6 PUSH2 0x1B7F JUMP JUMPDEST SWAP2 SWAP4 POP SWAP1 SWAP2 POP POP JUMPDEST PUSH1 0x40 DUP1 MLOAD PUSH1 0x60 DUP2 ADD DUP3 MSTORE PUSH1 0x0 DUP2 MSTORE PUSH1 0x20 DUP2 ADD SWAP4 SWAP1 SWAP4 MSTORE PUSH1 0xFF SWAP1 SWAP2 AND PUSH1 0xA EXP SWAP1 DUP3 ADD MSTORE SWAP1 POP SWAP3 SWAP2 POP POP JUMP JUMPDEST PUSH1 0x0 DUP1 PUSH2 0x85B PUSH1 0x10 PUSH2 0x183F JUMP JUMPDEST PUSH1 0x0 DUP1 PUSH2 0x85B PUSH1 0xF PUSH2 0x183F JUMP JUMPDEST PUSH1 0x0 DUP1 PUSH2 0x17D8 PUSH2 0x1858 JUMP JUMPDEST PUSH1 0x1 PUSH1 0x1 PUSH1 0xA0 SHL SUB DUP5 AND PUSH1 0x0 SWAP1 DUP2 MSTORE PUSH1 0x20 DUP3 SWAP1 MSTORE PUSH1 0x40 SWAP1 KECCAK256 DUP1 SLOAD SWAP2 SWAP3 POP SWAP1 PUSH1 0x1 PUSH1 0xF8 SHL SWAP1 DIV PUSH1 0xFF AND ISZERO PUSH2 0x1834 JUMPI PUSH2 0x180D PUSH2 0x23BC JUMP JUMPDEST PUSH1 0x1 PUSH1 0x1 PUSH1 0xA0 SHL SUB DUP1 DUP7 AND PUSH1 0x0 SWAP1 DUP2 MSTORE PUSH1 0x20 SWAP3 SWAP1 SWAP3 MSTORE PUSH1 0x40 SWAP1 SWAP2 KECCAK256 SLOAD AND SWAP3 POP PUSH2 0x65A SWAP2 POP POP JUMP JUMPDEST PUSH1 0x0 SWAP3 POP POP POP PUSH2 0x65A JUMP JUMPDEST PUSH1 0x0 PUSH3 0xF4240 DUP3 PUSH1 0x13 DUP2 GT ISZERO PUSH2 0x1851 JUMPI INVALID JUMPDEST ADD SWAP3 SWAP2 POP POP JUMP JUMPDEST PUSH1 0x0 DUP1 PUSH2 0x85B PUSH1 0x2 PUSH2 0x183F JUMP JUMPDEST PUSH1 0x0 DUP1 PUSH2 0x85B PUSH1 0x11 PUSH2 0x183F JUMP JUMPDEST PUSH1 0x0 DUP1 PUSH2 0x85B PUSH1 0x6 PUSH2 0x183F JUMP JUMPDEST PUSH1 0x8 DUP2 SWAP1 SHR PUSH1 0xFF SWAP1 SWAP2 AND SHL SWAP1 JUMP JUMPDEST DUP3 PUSH1 0x1 GT ISZERO DUP1 ISZERO PUSH2 0x18A2 JUMPI POP DUP5 PUSH1 0x20 ADD MLOAD DUP4 GT ISZERO JUMPDEST PUSH2 0x18BE JUMPI PUSH1 0x40 MLOAD PUSH3 0x461BCD PUSH1 0xE5 SHL DUP2 MSTORE PUSH1 0x4 ADD PUSH2 0x234 SWAP1 PUSH2 0x310D JUMP JUMPDEST PUSH1 0x0 PUSH2 0x18DB PUSH2 0x18CC DUP6 PUSH2 0x23C9 JUMP JUMPDEST PUSH2 0x18D5 DUP5 PUSH2 0x246D JUMP JUMPDEST SWAP1 PUSH2 0x248E JUMP JUMPDEST SWAP1 POP PUSH2 0x1900 DUP7 PUSH1 0x0 ADD MLOAD PUSH2 0xFFFF AND DUP3 DUP5 DUP7 PUSH2 0x18F5 DUP12 PUSH2 0x12E9 JUMP JUMPDEST DUP11 SWAP5 SWAP4 SWAP3 SWAP2 SWAP1 PUSH2 0x24E8 JUMP JUMPDEST POP POP POP POP POP POP JUMP JUMPDEST PUSH2 0x1910 PUSH2 0x27B7 JUMP JUMPDEST PUSH1 0x0 PUSH2 0x191A PUSH2 0x2512 JUMP JUMPDEST PUSH1 0x0 DUP6 DUP2 MSTORE PUSH1 0x20 DUP3 DUP2 MSTORE PUSH1 0x40 DUP1 DUP4 KECCAK256 DUP8 ISZERO ISZERO DUP5 MSTORE DUP3 MSTORE SWAP2 DUP3 SWAP1 KECCAK256 DUP3 MLOAD PUSH1 0xA0 DUP2 ADD DUP5 MSTORE DUP2 SLOAD PUSH1 0x1 PUSH1 0x1 PUSH1 0xA0 SHL SUB DUP2 AND DUP3 MSTORE PUSH1 0xFF PUSH1 0x1 PUSH1 0xA0 SHL DUP3 DIV DUP2 AND ISZERO ISZERO SWAP5 DUP4 ADD SWAP5 SWAP1 SWAP5 MSTORE PUSH1 0x1 PUSH1 0xB0 SHL DUP2 DIV DUP5 AND PUSH1 0xA EXP SWAP5 DUP3 ADD SWAP5 SWAP1 SWAP5 MSTORE SWAP4 SWAP5 POP SWAP3 SWAP2 PUSH1 0x60 DUP4 ADD SWAP2 PUSH1 0x1 PUSH1 0xA8 SHL SWAP1 SWAP2 DIV AND PUSH1 0x5 DUP2 GT ISZERO PUSH2 0x198F JUMPI INVALID JUMPDEST DUP2 MSTORE SWAP2 SLOAD PUSH1 0x1 PUSH1 0xB8 SHL SWAP1 DIV PUSH9 0xFFFFFFFFFFFFFFFFFF AND PUSH1 0x20 SWAP1 SWAP3 ADD SWAP2 SWAP1 SWAP2 MSTORE SWAP5 SWAP4 POP POP POP POP JUMP JUMPDEST PUSH1 0x0 DUP1 PUSH2 0x19C1 PUSH2 0x251F JUMP JUMPDEST PUSH1 0x0 SWAP4 DUP5 MSTORE PUSH1 0x20 MSTORE POP POP PUSH1 0x40 SWAP1 KECCAK256 SLOAD SWAP1 JUMP JUMPDEST PUSH1 0x0 DUP1 PUSH2 0x85B PUSH1 0x5 PUSH2 0x183F JUMP JUMPDEST PUSH1 0x60 DUP1 PUSH1 0x0 DUP1 DUP6 PUSH8 0xFFFFFFFFFFFFFFFF DUP2 GT DUP1 ISZERO PUSH2 0x19FD JUMPI PUSH1 0x0 DUP1 REVERT JUMPDEST POP PUSH1 0x40 MLOAD SWAP1 DUP1 DUP3 MSTORE DUP1 PUSH1 0x20 MUL PUSH1 0x20 ADD DUP3 ADD PUSH1 0x40 MSTORE DUP1 ISZERO PUSH2 0x1A27 JUMPI DUP2 PUSH1 0x20 ADD PUSH1 0x20 DUP3 MUL DUP1 CALLDATASIZE DUP4 CALLDATACOPY ADD SWAP1 POP JUMPDEST POP SWAP1 POP PUSH1 0x0 DUP7 PUSH8 0xFFFFFFFFFFFFFFFF DUP2 GT DUP1 ISZERO PUSH2 0x1A43 JUMPI PUSH1 0x0 DUP1 REVERT JUMPDEST POP PUSH1 0x40 MLOAD SWAP1 DUP1 DUP3 MSTORE DUP1 PUSH1 0x20 MUL PUSH1 0x20 ADD DUP3 ADD PUSH1 0x40 MSTORE DUP1 ISZERO PUSH2 0x1A6D JUMPI DUP2 PUSH1 0x20 ADD PUSH1 0x20 DUP3 MUL DUP1 CALLDATASIZE DUP4 CALLDATACOPY ADD SWAP1 POP JUMPDEST POP SWAP1 POP PUSH1 0x0 JUMPDEST DUP8 DUP2 LT ISZERO PUSH2 0x1B71 JUMPI DUP9 DUP5 PUSH1 0xE DUP2 LT PUSH2 0x1A87 JUMPI INVALID JUMPDEST PUSH1 0x8 SWAP2 DUP3 DUP3 DIV ADD SWAP2 SWAP1 MOD PUSH1 0x4 MUL SWAP1 SLOAD SWAP1 PUSH2 0x100 EXP SWAP1 DIV PUSH4 0xFFFFFFFF AND PUSH4 0xFFFFFFFF AND DUP4 DUP3 DUP2 MLOAD DUP2 LT PUSH2 0x1AB5 JUMPI INVALID JUMPDEST PUSH1 0x20 SWAP1 DUP2 MUL SWAP2 SWAP1 SWAP2 ADD ADD MSTORE PUSH1 0x1 SWAP1 SWAP4 ADD SWAP3 DUP9 DUP5 PUSH1 0xE DUP2 LT PUSH2 0x1AD2 JUMPI INVALID JUMPDEST PUSH1 0x8 SWAP2 DUP3 DUP3 DIV ADD SWAP2 SWAP1 MOD PUSH1 0x4 MUL SWAP1 SLOAD SWAP1 PUSH2 0x100 EXP SWAP1 DIV PUSH4 0xFFFFFFFF AND PUSH4 0xFFFFFFFF AND DUP3 DUP3 DUP2 MLOAD DUP2 LT PUSH2 0x1B00 JUMPI INVALID JUMPDEST PUSH1 0x20 SWAP1 DUP2 MUL SWAP2 SWAP1 SWAP2 ADD ADD MSTORE PUSH1 0x1 SWAP1 SWAP4 ADD SWAP3 DUP7 ISZERO PUSH2 0x1B69 JUMPI PUSH1 0x0 DUP4 DUP3 DUP2 MLOAD DUP2 LT PUSH2 0x1B25 JUMPI INVALID JUMPDEST PUSH1 0x20 MUL PUSH1 0x20 ADD ADD MLOAD SGT DUP1 ISZERO PUSH2 0x1B4D JUMPI POP PUSH1 0x0 DUP3 DUP3 DUP2 MLOAD DUP2 LT PUSH2 0x1B43 JUMPI INVALID JUMPDEST PUSH1 0x20 MUL PUSH1 0x20 ADD ADD MLOAD SGT JUMPDEST PUSH2 0x1B69 JUMPI PUSH1 0x40 MLOAD PUSH3 0x461BCD PUSH1 0xE5 SHL DUP2 MSTORE PUSH1 0x4 ADD PUSH2 0x234 SWAP1 PUSH2 0x31B2 JUMP JUMPDEST PUSH1 0x1 ADD PUSH2 0x1A73 JUMP JUMPDEST POP SWAP1 SWAP8 SWAP1 SWAP7 POP SWAP5 POP POP POP POP POP JUMP JUMPDEST PUSH1 0x0 DUP1 PUSH1 0x0 DUP1 PUSH1 0x0 PUSH2 0x1B90 DUP7 PUSH2 0x252C JUMP JUMPDEST SWAP1 SWAP3 POP SWAP1 POP PUSH1 0x0 PUSH1 0x1 PUSH1 0x1 PUSH1 0xA0 SHL SUB DUP4 AND PUSH2 0x1BB5 JUMPI POP PUSH1 0x0 SWAP1 POP PUSH5 0x2540BE400 PUSH2 0x1C35 JUMP JUMPDEST DUP3 PUSH1 0x1 PUSH1 0x1 PUSH1 0xA0 SHL SUB AND PUSH4 0xB2FFFB04 PUSH1 0x40 MLOAD DUP2 PUSH4 0xFFFFFFFF AND PUSH1 0xE0 SHL DUP2 MSTORE PUSH1 0x4 ADD PUSH1 0x20 PUSH1 0x40 MLOAD DUP1 DUP4 SUB DUP2 DUP7 DUP1 EXTCODESIZE ISZERO DUP1 ISZERO PUSH2 0x1BEE JUMPI PUSH1 0x0 DUP1 REVERT JUMPDEST POP GAS STATICCALL ISZERO DUP1 ISZERO PUSH2 0x1C02 JUMPI RETURNDATASIZE PUSH1 0x0 DUP1 RETURNDATACOPY RETURNDATASIZE PUSH1 0x0 REVERT JUMPDEST POP POP POP POP PUSH1 0x40 MLOAD RETURNDATASIZE PUSH1 0x1F NOT PUSH1 0x1F DUP3 ADD AND DUP3 ADD DUP1 PUSH1 0x40 MSTORE POP DUP2 ADD SWAP1 PUSH2 0x1C26 SWAP2 SWAP1 PUSH2 0x2AC8 JUMP JUMPDEST SWAP1 POP PUSH1 0x0 DUP2 SGT PUSH2 0x1C35 JUMPI PUSH1 0x0 DUP1 REVERT JUMPDEST SWAP7 SWAP2 SWAP6 POP SWAP4 POP SWAP2 POP POP JUMP JUMPDEST PUSH2 0x1C48 PUSH2 0x2992 JUMP JUMPDEST PUSH1 0x0 PUSH2 0x1C57 DUP5 PUSH2 0xFFFF AND PUSH2 0x19B6 JUMP JUMPDEST PUSH1 0x40 DUP1 MLOAD PUSH1 0x80 DUP2 ADD DUP3 MSTORE PUSH2 0xFFFF SWAP7 SWAP1 SWAP7 AND DUP7 MSTORE PUSH1 0xFF DUP3 AND PUSH1 0x20 DUP8 ADD MSTORE DUP6 ADD SWAP4 SWAP1 SWAP4 MSTORE POP POP PUSH1 0x60 DUP3 ADD MSTORE SWAP1 JUMP JUMPDEST PUSH1 0x0 PUSH2 0x1C8D PUSH2 0x2563 JUMP JUMPDEST PUSH1 0x0 DUP7 DUP2 MSTORE PUSH1 0x20 DUP3 DUP2 MSTORE PUSH1 0x40 DUP1 DUP4 KECCAK256 DUP9 DUP5 MSTORE DUP3 MSTORE DUP1 DUP4 KECCAK256 DUP7 DUP5 MSTORE DUP3 MSTORE SWAP2 DUP3 SWAP1 KECCAK256 DUP1 DUP11 MSTORE SWAP1 DUP10 ADD DUP8 SWAP1 MSTORE DUP1 SLOAD PUSH10 0xFFFFFFFFFFFFFFFFFFFF DUP1 DUP3 AND SWAP4 DUP12 ADD SWAP4 SWAP1 SWAP4 MSTORE PUSH1 0x1 PUSH1 0x50 SHL DUP2 DIV SWAP1 SWAP3 AND PUSH1 0x60 DUP11 ADD MSTORE PUSH4 0xFFFFFFFF PUSH1 0x1 PUSH1 0xA0 SHL DUP4 DIV DUP2 AND PUSH1 0xA0 DUP12 ADD MSTORE PUSH1 0x1 PUSH1 0xC0 SHL DUP4 DIV DUP2 AND PUSH1 0xC0 DUP12 ADD MSTORE PUSH1 0x1 PUSH1 0xE0 SHL SWAP1 SWAP3 DIV SWAP1 SWAP2 AND PUSH1 0xE0 DUP10 ADD MSTORE SWAP1 SWAP2 POP DUP1 DUP5 ISZERO PUSH2 0x1D32 JUMPI PUSH1 0x1 DUP3 ADD SLOAD PUSH10 0xFFFFFFFFFFFFFFFFFFFF AND PUSH1 0x80 DUP10 ADD MSTORE PUSH2 0x1D3A JUMP JUMPDEST PUSH1 0x0 PUSH1 0x80 DUP10 ADD MSTORE JUMPDEST POP POP POP POP POP POP POP POP JUMP JUMPDEST PUSH1 0x0 DUP1 DUP4 GT PUSH2 0x1D52 JUMPI PUSH1 0x0 DUP1 REVERT JUMPDEST DUP2 DUP7 GT ISZERO PUSH2 0x1D61 JUMPI POP DUP4 PUSH2 0x1DD6 JUMP JUMPDEST PUSH1 0x0 PUSH2 0x1D6D DUP4 DUP9 PUSH2 0x2570 JUMP JUMPDEST SWAP1 POP DUP4 DUP2 GT ISZERO PUSH2 0x1D80 JUMPI DUP6 SWAP2 POP POP PUSH2 0x1DD6 JUMP JUMPDEST PUSH1 0x0 PUSH2 0x1D9A DUP6 PUSH2 0x1D94 DUP5 PUSH4 0x3B9ACA00 PUSH2 0x25CD JUMP JUMPDEST SWAP1 PUSH2 0x2626 JUMP JUMPDEST SWAP1 POP PUSH1 0x0 PUSH2 0x1DAC PUSH4 0x3B9ACA00 DUP4 PUSH2 0x2570 JUMP JUMPDEST SWAP1 POP PUSH1 0x0 PUSH2 0x1DCF PUSH4 0x3B9ACA00 PUSH2 0x1D94 PUSH2 0x1DC5 DUP12 DUP7 PUSH2 0x25CD JUMP JUMPDEST PUSH2 0x18D5 DUP14 DUP9 PUSH2 0x25CD JUMP JUMPDEST SWAP5 POP POP POP POP POP JUMPDEST SWAP6 SWAP5 POP POP POP POP POP JUMP JUMPDEST DUP2 DUP2 MUL PUSH1 0x0 NOT DUP4 EQ ISZERO PUSH2 0x1E0F JUMPI DUP2 ISZERO DUP1 PUSH2 0x1E01 JUMPI POP DUP3 DUP3 DUP3 DUP2 PUSH2 0x1DFE JUMPI INVALID JUMPDEST SDIV EQ JUMPDEST PUSH2 0x1E0A JUMPI PUSH1 0x0 DUP1 REVERT JUMPDEST PUSH2 0x85B JUMP JUMPDEST DUP3 ISZERO DUP1 PUSH2 0x1E24 JUMPI POP DUP2 DUP4 DUP3 DUP2 PUSH2 0x1E21 JUMPI INVALID JUMPDEST SDIV EQ JUMPDEST PUSH2 0x85B JUMPI PUSH1 0x0 DUP1 REVERT JUMPDEST PUSH1 0x0 DUP2 PUSH1 0x0 NOT EQ DUP1 ISZERO PUSH2 0x1E43 JUMPI POP PUSH1 0x1 PUSH1 0xFF SHL DUP4 EQ JUMPDEST ISZERO PUSH2 0x1E4D JUMPI PUSH1 0x0 DUP1 REVERT JUMPDEST DUP2 DUP4 DUP2 PUSH2 0x1E56 JUMPI INVALID JUMPDEST SDIV SWAP4 SWAP3 POP POP POP JUMP JUMPDEST PUSH1 0x0 DUP1 PUSH2 0x85B PUSH1 0xB PUSH2 0x183F JUMP JUMPDEST PUSH1 0x0 DUP1 PUSH2 0x85B PUSH1 0xC PUSH2 0x183F JUMP JUMPDEST PUSH1 0x0 DUP1 PUSH2 0x85B PUSH1 0x3 PUSH2 0x183F JUMP JUMPDEST PUSH1 0x0 DUP1 PUSH2 0x85B PUSH1 0x4 PUSH2 0x183F JUMP JUMPDEST PUSH1 0x60 PUSH1 0x10 DUP3 PUSH1 0xFF AND GT ISZERO PUSH2 0x1EA5 JUMPI PUSH1 0x0 DUP1 REVERT JUMPDEST PUSH1 0x0 PUSH2 0x1EAF PUSH2 0x268D JUMP JUMPDEST PUSH1 0x1 PUSH1 0x1 PUSH1 0xA0 SHL SUB DUP6 AND PUSH1 0x0 SWAP1 DUP2 MSTORE PUSH1 0x20 DUP3 SWAP1 MSTORE PUSH1 0x40 DUP2 KECCAK256 SWAP2 SWAP3 POP PUSH1 0xFF DUP6 AND PUSH8 0xFFFFFFFFFFFFFFFF DUP2 GT DUP1 ISZERO PUSH2 0x1EE4 JUMPI PUSH1 0x0 DUP1 REVERT JUMPDEST POP PUSH1 0x40 MLOAD SWAP1 DUP1 DUP3 MSTORE DUP1 PUSH1 0x20 MUL PUSH1 0x20 ADD DUP3 ADD PUSH1 0x40 MSTORE DUP1 ISZERO PUSH2 0x1F1E JUMPI DUP2 PUSH1 0x20 ADD JUMPDEST PUSH2 0x1F0B PUSH2 0x29BE JUMP JUMPDEST DUP2 MSTORE PUSH1 0x20 ADD SWAP1 PUSH1 0x1 SWAP1 SUB SWAP1 DUP2 PUSH2 0x1F03 JUMPI SWAP1 POP JUMPDEST POP SWAP1 POP PUSH1 0x0 JUMPDEST DUP6 PUSH1 0xFF AND DUP2 LT ISZERO PUSH2 0x1FAA JUMPI PUSH1 0x0 DUP4 DUP3 PUSH1 0x10 DUP2 LT PUSH2 0x1F3D JUMPI INVALID JUMPDEST ADD SWAP1 POP PUSH1 0x0 DUP4 DUP4 DUP2 MLOAD DUP2 LT PUSH2 0x1F4E JUMPI INVALID JUMPDEST PUSH1 0x20 SWAP1 DUP2 MUL SWAP2 SWAP1 SWAP2 ADD DUP2 ADD MLOAD DUP4 SLOAD PUSH2 0xFFFF DUP2 AND DUP3 MSTORE PUSH5 0xFFFFFFFFFF PUSH3 0x10000 DUP3 DIV AND SWAP3 DUP3 ADD SWAP3 SWAP1 SWAP3 MSTORE PUSH1 0xFF PUSH1 0x1 PUSH1 0x38 SHL DUP4 DIV AND PUSH1 0x40 DUP3 ADD MSTORE PUSH1 0x1 PUSH1 0x40 SHL SWAP1 SWAP2 DIV PUSH1 0xA SWAP1 DUP2 SIGNEXTEND SWAP1 SIGNEXTEND PUSH1 0x60 DUP3 ADD MSTORE PUSH1 0x80 ADD SWAP2 SWAP1 SWAP2 MSTORE POP PUSH1 0x1 ADD PUSH2 0x1F24 JUMP JUMPDEST POP SWAP6 SWAP5 POP POP POP POP POP JUMP JUMPDEST DUP1 MLOAD PUSH1 0x0 DUP2 PUSH8 0xFFFFFFFFFFFFFFFF DUP2 GT DUP1 ISZERO PUSH2 0x1FCF JUMPI PUSH1 0x0 DUP1 REVERT JUMPDEST POP PUSH1 0x40 MLOAD SWAP1 DUP1 DUP3 MSTORE DUP1 PUSH1 0x20 MUL PUSH1 0x20 ADD DUP3 ADD PUSH1 0x40 MSTORE DUP1 ISZERO PUSH2 0x1FF9 JUMPI DUP2 PUSH1 0x20 ADD PUSH1 0x20 DUP3 MUL DUP1 CALLDATASIZE DUP4 CALLDATACOPY ADD SWAP1 POP JUMPDEST POP SWAP1 POP PUSH1 0x0 JUMPDEST DUP3 DUP2 LT ISZERO PUSH2 0x2056 JUMPI PUSH1 0x0 DUP5 DUP3 DUP2 MLOAD DUP2 LT PUSH2 0x2015 JUMPI INVALID JUMPDEST PUSH1 0x20 MUL PUSH1 0x20 ADD ADD MLOAD SWAP1 POP PUSH2 0x2036 DUP2 PUSH1 0x0 ADD MLOAD DUP3 PUSH1 0x20 ADD MLOAD DUP4 PUSH1 0x40 ADD MLOAD PUSH2 0x269A JUMP JUMPDEST DUP4 DUP4 DUP2 MLOAD DUP2 LT PUSH2 0x2042 JUMPI INVALID JUMPDEST PUSH1 0x20 SWAP1 DUP2 MUL SWAP2 SWAP1 SWAP2 ADD ADD MSTORE POP PUSH1 0x1 ADD PUSH2 0x1FFF JUMP JUMPDEST POP PUSH1 0x1 JUMPDEST DUP3 DUP2 LT ISZERO PUSH2 0x216D JUMPI DUP1 JUMPDEST PUSH1 0x0 DUP2 GT DUP1 ISZERO PUSH2 0x209C JUMPI POP DUP3 DUP2 DUP2 MLOAD DUP2 LT PUSH2 0x207B JUMPI INVALID JUMPDEST PUSH1 0x20 MUL PUSH1 0x20 ADD ADD MLOAD DUP4 PUSH1 0x1 DUP4 SUB DUP2 MLOAD DUP2 LT PUSH2 0x2092 JUMPI INVALID JUMPDEST PUSH1 0x20 MUL PUSH1 0x20 ADD ADD MLOAD GT JUMPDEST ISZERO PUSH2 0x2164 JUMPI DUP3 DUP2 DUP2 MLOAD DUP2 LT PUSH2 0x20AD JUMPI INVALID JUMPDEST PUSH1 0x20 MUL PUSH1 0x20 ADD ADD MLOAD DUP4 PUSH1 0x1 DUP4 SUB DUP2 MLOAD DUP2 LT PUSH2 0x20C4 JUMPI INVALID JUMPDEST PUSH1 0x20 MUL PUSH1 0x20 ADD ADD MLOAD DUP5 PUSH1 0x1 DUP5 SUB DUP2 MLOAD DUP2 LT PUSH2 0x20DB JUMPI INVALID JUMPDEST PUSH1 0x20 MUL PUSH1 0x20 ADD ADD DUP6 DUP5 DUP2 MLOAD DUP2 LT PUSH2 0x20EE JUMPI INVALID JUMPDEST PUSH1 0x20 MUL PUSH1 0x20 ADD ADD DUP3 DUP2 MSTORE POP DUP3 DUP2 MSTORE POP POP POP DUP5 DUP2 DUP2 MLOAD DUP2 LT PUSH2 0x210B JUMPI INVALID JUMPDEST PUSH1 0x20 MUL PUSH1 0x20 ADD ADD MLOAD DUP6 PUSH1 0x1 DUP4 SUB DUP2 MLOAD DUP2 LT PUSH2 0x2122 JUMPI INVALID JUMPDEST PUSH1 0x20 MUL PUSH1 0x20 ADD ADD MLOAD DUP7 PUSH1 0x1 DUP5 SUB DUP2 MLOAD DUP2 LT PUSH2 0x2139 JUMPI INVALID JUMPDEST PUSH1 0x20 MUL PUSH1 0x20 ADD ADD DUP8 DUP5 DUP2 MLOAD DUP2 LT PUSH2 0x214C JUMPI INVALID JUMPDEST PUSH1 0x20 SWAP1 DUP2 MUL SWAP2 SWAP1 SWAP2 ADD ADD SWAP2 SWAP1 SWAP2 MSTORE MSTORE PUSH1 0x0 NOT ADD PUSH2 0x2064 JUMP JUMPDEST POP PUSH1 0x1 ADD PUSH2 0x205A JUMP JUMPDEST POP POP POP POP JUMP JUMPDEST PUSH1 0x1 DUP2 SWAP1 SHR PUSH32 0x5555555555555555555555555555555555555555555555555555555555555555 SWAP1 DUP2 AND SWAP2 AND ADD PUSH1 0x2 DUP2 SWAP1 SHR PUSH32 0x3333333333333333333333333333333333333333333333333333333333333333 SWAP1 DUP2 AND SWAP2 AND ADD PUSH1 0x4 DUP2 SWAP1 SHR PUSH32 0x707070707070707070707070707070707070707070707070707070707070707 SWAP2 SWAP1 SWAP2 AND ADD PUSH1 0x8 DUP2 SWAP1 SHR PUSH31 0xF000F000F000F000F000F000F000F000F000F000F000F000F000F000F000F SWAP1 DUP2 AND SWAP2 AND ADD PUSH1 0x10 DUP2 SWAP1 SHR ADD PUSH1 0x20 DUP2 SWAP1 SHR ADD PUSH1 0x40 DUP2 SWAP1 SHR ADD PUSH1 0x80 DUP2 SWAP1 SHR PUSH1 0xFF SWAP1 DUP2 AND SWAP2 AND ADD SWAP1 JUMP JUMPDEST PUSH1 0x0 DUP2 PUSH2 0x2252 JUMPI POP PUSH1 0x0 PUSH2 0x65A JUMP JUMPDEST PUSH2 0x225B DUP3 PUSH2 0x26F5 JUMP JUMPDEST PUSH1 0xFF SUB PUSH1 0x1 ADD SWAP1 POP SWAP2 SWAP1 POP JUMP JUMPDEST PUSH1 0x0 DUP2 PUSH2 0x2274 JUMPI PUSH1 0x0 DUP1 REVERT JUMPDEST PUSH2 0x100 DUP3 GT ISZERO PUSH2 0x2283 JUMPI PUSH1 0x0 DUP1 REVERT JUMPDEST PUSH1 0x0 PUSH2 0x228E DUP5 PUSH2 0x278E JUMP JUMPDEST SWAP1 POP PUSH1 0x0 PUSH1 0x5A DUP5 GT PUSH2 0x22A9 JUMPI POP PUSH3 0x15180 DUP4 MUL ADD SWAP1 POP PUSH2 0x85B JUMP JUMPDEST PUSH1 0x87 DUP5 GT PUSH2 0x22D1 JUMPI POP PUSH1 0x59 NOT DUP4 ADD PUSH3 0x7E900 SWAP1 DUP2 MUL SWAP1 DUP3 MOD SWAP1 SWAP2 SUB ADD PUSH3 0x76A700 ADD SWAP1 POP PUSH2 0x85B JUMP JUMPDEST PUSH1 0xC3 DUP5 GT PUSH2 0x22FA JUMPI POP PUSH1 0x86 NOT DUP4 ADD PUSH3 0x278D00 SWAP1 DUP2 MUL SWAP1 DUP3 MOD SWAP1 SWAP2 SUB ADD PUSH4 0x1DA9C00 ADD SWAP1 POP PUSH2 0x85B JUMP JUMPDEST POP PUSH1 0xC2 NOT DUP4 ADD PUSH3 0x76A700 SWAP1 DUP2 MUL SWAP1 DUP3 MOD SWAP1 SWAP2 SUB ADD PUSH4 0xB1FA800 ADD SWAP1 POP PUSH2 0x85B JUMP JUMPDEST PUSH1 0x0 PUSH1 0x1 DUP4 LT ISZERO DUP1 ISZERO PUSH2 0x2330 JUMPI POP PUSH2 0x100 DUP4 GT ISZERO JUMPDEST PUSH2 0x2339 JUMPI PUSH1 0x0 DUP1 REVERT JUMPDEST DUP2 ISZERO PUSH2 0x2352 JUMPI POP PUSH1 0x1 PUSH1 0xFF SHL PUSH1 0x0 NOT DUP4 ADD SHR DUP4 OR PUSH2 0x788 JUMP JUMPDEST POP PUSH1 0x1 PUSH1 0xFF SHL PUSH1 0x0 NOT DUP4 ADD SHR NOT DUP4 AND PUSH2 0x788 JUMP JUMPDEST PUSH1 0x0 DUP1 PUSH2 0x85B PUSH1 0x1 PUSH2 0x183F JUMP JUMPDEST PUSH1 0x0 DUP1 PUSH1 0x0 PUSH2 0x2380 PUSH2 0x27AA JUMP JUMPDEST PUSH1 0x0 SWAP6 DUP7 MSTORE PUSH1 0x20 SWAP1 DUP2 MSTORE PUSH1 0x40 DUP1 DUP8 KECCAK256 SWAP6 DUP8 MSTORE SWAP5 SWAP1 MSTORE POP POP POP SWAP1 KECCAK256 SLOAD PUSH6 0x10000000000 DUP2 DIV PUSH1 0x1 PUSH1 0x1 PUSH1 0x80 SHL SUB AND SWAP2 PUSH1 0x1 PUSH1 0xA8 SHL SWAP1 SWAP2 DIV PUSH1 0xFF AND SWAP1 JUMP JUMPDEST PUSH1 0x0 DUP1 PUSH2 0x85B PUSH1 0x12 PUSH2 0x183F JUMP JUMPDEST PUSH1 0x0 DUP2 PUSH1 0x1 EQ ISZERO PUSH2 0x23DE JUMPI POP PUSH3 0x76A700 PUSH2 0x65A JUMP JUMPDEST DUP2 PUSH1 0x2 EQ ISZERO PUSH2 0x23F1 JUMPI POP PUSH3 0xED4E00 PUSH2 0x65A JUMP JUMPDEST DUP2 PUSH1 0x3 EQ ISZERO PUSH2 0x2405 JUMPI POP PUSH4 0x1DA9C00 PUSH2 0x65A JUMP JUMPDEST DUP2 PUSH1 0x4 EQ ISZERO PUSH2 0x2419 JUMPI POP PUSH4 0x3B53800 PUSH2 0x65A JUMP JUMPDEST DUP2 PUSH1 0x5 EQ ISZERO PUSH2 0x242D JUMPI POP PUSH4 0x9450C00 PUSH2 0x65A JUMP JUMPDEST DUP2 PUSH1 0x6 EQ ISZERO PUSH2 0x2441 JUMPI POP PUSH4 0x128A1800 PUSH2 0x65A JUMP JUMPDEST DUP2 PUSH1 0x7 EQ ISZERO PUSH2 0x2455 JUMPI POP PUSH4 0x25143000 PUSH2 0x65A JUMP JUMPDEST PUSH1 0x40 MLOAD PUSH3 0x461BCD PUSH1 0xE5 SHL DUP2 MSTORE PUSH1 0x4 ADD PUSH2 0x234 SWAP1 PUSH2 0x30E6 JUMP JUMPDEST PUSH1 0x0 PUSH3 0x76A700 DUP3 LT ISZERO PUSH2 0x247F JUMPI PUSH1 0x0 DUP1 REVERT JUMPDEST PUSH3 0x76A700 DUP3 JUMPDEST MOD SWAP1 SWAP2 SUB SWAP2 SWAP1 POP JUMP JUMPDEST PUSH1 0x0 DUP3 DUP3 ADD DUP4 DUP2 LT ISZERO PUSH2 0x858 JUMPI PUSH1 0x40 DUP1 MLOAD PUSH3 0x461BCD PUSH1 0xE5 SHL DUP2 MSTORE PUSH1 0x20 PUSH1 0x4 DUP3 ADD MSTORE PUSH1 0x1B PUSH1 0x24 DUP3 ADD MSTORE PUSH32 0x536166654D6174683A206164646974696F6E206F766572666C6F770000000000 PUSH1 0x44 DUP3 ADD MSTORE SWAP1 MLOAD SWAP1 DUP2 SWAP1 SUB PUSH1 0x64 ADD SWAP1 REVERT JUMPDEST PUSH1 0x0 PUSH3 0x76A700 PUSH2 0x24F7 DUP6 PUSH2 0x246D JUMP JUMPDEST ADD SWAP1 POP PUSH2 0x2509 DUP8 DUP8 DUP8 DUP8 DUP8 DUP8 DUP8 PUSH2 0x12FD JUMP JUMPDEST POP POP POP POP POP POP POP JUMP JUMPDEST PUSH1 0x0 DUP1 PUSH2 0x85B PUSH1 0x7 PUSH2 0x183F JUMP JUMPDEST PUSH1 0x0 DUP1 PUSH2 0x85B PUSH1 0x9 PUSH2 0x183F JUMP JUMPDEST PUSH1 0x0 DUP1 PUSH1 0x0 PUSH2 0x2539 PUSH2 0x17C0 JUMP JUMPDEST PUSH1 0x0 SWAP5 DUP6 MSTORE PUSH1 0x20 MSTORE POP POP PUSH1 0x40 SWAP1 SWAP2 KECCAK256 SLOAD PUSH1 0x1 PUSH1 0x1 PUSH1 0xA0 SHL SUB DUP2 AND SWAP3 PUSH1 0x1 PUSH1 0xA0 SHL SWAP1 SWAP2 DIV PUSH1 0xFF AND SWAP2 POP JUMP JUMPDEST PUSH1 0x0 DUP1 PUSH2 0x85B PUSH1 0xA PUSH2 0x183F JUMP JUMPDEST PUSH1 0x0 DUP3 DUP3 GT ISZERO PUSH2 0x25C7 JUMPI PUSH1 0x40 DUP1 MLOAD PUSH3 0x461BCD PUSH1 0xE5 SHL DUP2 MSTORE PUSH1 0x20 PUSH1 0x4 DUP3 ADD MSTORE PUSH1 0x1E PUSH1 0x24 DUP3 ADD MSTORE PUSH32 0x536166654D6174683A207375627472616374696F6E206F766572666C6F770000 PUSH1 0x44 DUP3 ADD MSTORE SWAP1 MLOAD SWAP1 DUP2 SWAP1 SUB PUSH1 0x64 ADD SWAP1 REVERT JUMPDEST POP SWAP1 SUB SWAP1 JUMP JUMPDEST PUSH1 0x0 DUP3 PUSH2 0x25DC JUMPI POP PUSH1 0x0 PUSH2 0x85B JUMP JUMPDEST DUP3 DUP3 MUL DUP3 DUP5 DUP3 DUP2 PUSH2 0x25E9 JUMPI INVALID JUMPDEST DIV EQ PUSH2 0x858 JUMPI PUSH1 0x40 MLOAD PUSH3 0x461BCD PUSH1 0xE5 SHL DUP2 MSTORE PUSH1 0x4 ADD DUP1 DUP1 PUSH1 0x20 ADD DUP3 DUP2 SUB DUP3 MSTORE PUSH1 0x21 DUP2 MSTORE PUSH1 0x20 ADD DUP1 PUSH2 0x3444 PUSH1 0x21 SWAP2 CODECOPY PUSH1 0x40 ADD SWAP2 POP POP PUSH1 0x40 MLOAD DUP1 SWAP2 SUB SWAP1 REVERT JUMPDEST PUSH1 0x0 DUP1 DUP3 GT PUSH2 0x267C JUMPI PUSH1 0x40 DUP1 MLOAD PUSH3 0x461BCD PUSH1 0xE5 SHL DUP2 MSTORE PUSH1 0x20 PUSH1 0x4 DUP3 ADD MSTORE PUSH1 0x1A PUSH1 0x24 DUP3 ADD MSTORE PUSH32 0x536166654D6174683A206469766973696F6E206279207A65726F000000000000 PUSH1 0x44 DUP3 ADD MSTORE SWAP1 MLOAD SWAP1 DUP2 SWAP1 SUB PUSH1 0x64 ADD SWAP1 REVERT JUMPDEST DUP2 DUP4 DUP2 PUSH2 0x2685 JUMPI INVALID JUMPDEST DIV SWAP4 SWAP3 POP POP POP JUMP JUMPDEST PUSH1 0x0 DUP1 PUSH2 0x85B PUSH1 0xD PUSH2 0x183F JUMP JUMPDEST PUSH1 0x0 PUSH2 0x3FFF DUP5 GT ISZERO PUSH2 0x26AB JUMPI PUSH1 0x0 DUP1 REVERT JUMPDEST PUSH5 0xFFFFFFFFFF DUP4 GT ISZERO PUSH2 0x26BD JUMPI PUSH1 0x0 DUP1 REVERT JUMPDEST PUSH1 0x8 DUP3 GT ISZERO PUSH2 0x26CB JUMPI PUSH1 0x0 DUP1 REVERT JUMPDEST POP PUSH8 0xFFFF000000000000 PUSH1 0x30 DUP5 SWAP1 SHL AND PUSH6 0xFFFFFFFFFF00 PUSH1 0x8 DUP5 SWAP1 SHL AND OR PUSH1 0xFF DUP3 AND OR SWAP4 SWAP3 POP POP POP JUMP JUMPDEST PUSH1 0x0 DUP2 PUSH2 0x2701 JUMPI PUSH1 0x0 DUP1 REVERT JUMPDEST PUSH1 0x1 PUSH1 0x80 SHL DUP3 LT PUSH2 0x2714 JUMPI PUSH1 0x80 SWAP2 DUP3 SHR SWAP2 ADD JUMPDEST PUSH1 0x1 PUSH1 0x40 SHL DUP3 LT PUSH2 0x2727 JUMPI PUSH1 0x40 SWAP2 DUP3 SHR SWAP2 ADD JUMPDEST PUSH5 0x100000000 DUP3 LT PUSH2 0x273B JUMPI PUSH1 0x20 SWAP2 DUP3 SHR SWAP2 ADD JUMPDEST PUSH3 0x10000 DUP3 LT PUSH2 0x274D JUMPI PUSH1 0x10 SWAP2 DUP3 SHR SWAP2 ADD JUMPDEST PUSH2 0x100 DUP3 LT PUSH2 0x275E JUMPI PUSH1 0x8 SWAP2 DUP3 SHR SWAP2 ADD JUMPDEST PUSH1 0x10 DUP3 LT PUSH2 0x276E JUMPI PUSH1 0x4 SWAP2 DUP3 SHR SWAP2 ADD JUMPDEST PUSH1 0x4 DUP3 LT PUSH2 0x277E JUMPI PUSH1 0x2 SWAP2 DUP3 SHR SWAP2 ADD JUMPDEST PUSH1 0x2 DUP3 LT PUSH2 0x65A JUMPI PUSH1 0x1 ADD SWAP2 SWAP1 POP JUMP JUMPDEST PUSH1 0x0 PUSH3 0x15180 DUP3 LT ISZERO PUSH2 0x27A0 JUMPI PUSH1 0x0 DUP1 REVERT JUMPDEST PUSH3 0x15180 DUP3 PUSH2 0x2485 JUMP JUMPDEST PUSH1 0x0 DUP1 PUSH2 0x85B PUSH1 0x8 PUSH2 0x183F JUMP JUMPDEST PUSH1 0x40 DUP1 MLOAD PUSH1 0xA0 DUP2 ADD DUP3 MSTORE PUSH1 0x0 DUP1 DUP3 MSTORE PUSH1 0x20 DUP3 ADD DUP2 SWAP1 MSTORE SWAP2 DUP2 ADD DUP3 SWAP1 MSTORE SWAP1 PUSH1 0x60 DUP3 ADD SWAP1 DUP2 MSTORE PUSH1 0x20 ADD PUSH1 0x0 DUP2 MSTORE POP SWAP1 JUMP JUMPDEST PUSH1 0x40 DUP1 MLOAD PUSH2 0x160 DUP2 ADD DUP3 MSTORE PUSH1 0x0 DUP1 DUP3 MSTORE PUSH1 0x20 DUP3 ADD DUP2 SWAP1 MSTORE SWAP2 DUP2 ADD DUP3 SWAP1 MSTORE PUSH1 0x60 DUP1 DUP3 ADD DUP4 SWAP1 MSTORE PUSH1 0x80 DUP3 ADD DUP4 SWAP1 MSTORE PUSH1 0xA0 DUP3 ADD DUP4 SWAP1 MSTORE PUSH1 0xC0 DUP3 ADD DUP4 SWAP1 MSTORE PUSH1 0xE0 DUP3 ADD DUP4 SWAP1 MSTORE PUSH2 0x100 DUP3 ADD SWAP3 SWAP1 SWAP3 MSTORE PUSH2 0x120 DUP2 ADD DUP3 SWAP1 MSTORE PUSH2 0x140 DUP2 ADD SWAP2 SWAP1 SWAP2 MSTORE SWAP1 JUMP JUMPDEST PUSH1 0x40 MLOAD DUP1 PUSH1 0x60 ADD PUSH1 0x40 MSTORE DUP1 PUSH1 0x0 PUSH1 0x1 PUSH1 0x1 PUSH1 0xA0 SHL SUB AND DUP2 MSTORE PUSH1 0x20 ADD PUSH1 0x0 DUP2 MSTORE PUSH1 0x20 ADD PUSH1 0x0 DUP2 MSTORE POP SWAP1 JUMP JUMPDEST PUSH1 0x40 MLOAD DUP1 PUSH2 0x100 ADD PUSH1 0x40 MSTORE DUP1 PUSH1 0x0 DUP1 NOT AND DUP2 MSTORE PUSH1 0x20 ADD PUSH1 0x0 DUP2 MSTORE PUSH1 0x20 ADD PUSH1 0x0 DUP2 MSTORE PUSH1 0x20 ADD PUSH1 0x0 DUP2 MSTORE PUSH1 0x20 ADD PUSH1 0x0 DUP2 MSTORE PUSH1 0x20 ADD PUSH1 0x0 DUP2 MSTORE PUSH1 0x20 ADD PUSH1 0x0 DUP2 MSTORE PUSH1 0x20 ADD PUSH1 0x0 DUP2 MSTORE POP SWAP1 JUMP JUMPDEST PUSH1 0x40 MLOAD DUP1 PUSH1 0xA0 ADD PUSH1 0x40 MSTORE DUP1 PUSH1 0x0 DUP2 MSTORE PUSH1 0x20 ADD PUSH1 0x0 DUP2 MSTORE PUSH1 0x20 ADD PUSH1 0x0 DUP2 MSTORE PUSH1 0x20 ADD PUSH1 0x0 DUP2 MSTORE PUSH1 0x20 ADD PUSH1 0x0 DUP2 MSTORE POP SWAP1 JUMP JUMPDEST PUSH1 0x40 DUP1 MLOAD PUSH1 0xA0 DUP2 ADD DUP3 MSTORE PUSH1 0x0 DUP1 DUP3 MSTORE PUSH1 0x20 DUP3 ADD DUP2 SWAP1 MSTORE SWAP2 DUP2 ADD DUP3 SWAP1 MSTORE PUSH1 0x60 DUP2 ADD DUP3 SWAP1 MSTORE PUSH1 0x80 DUP2 ADD SWAP2 SWAP1 SWAP2 MSTORE SWAP1 JUMP JUMPDEST PUSH1 0x40 DUP1 MLOAD PUSH1 0xC0 DUP2 ADD DUP3 MSTORE PUSH1 0x0 DUP1 DUP3 MSTORE PUSH1 0x20 DUP3 ADD DUP2 SWAP1 MSTORE SWAP2 DUP2 ADD DUP3 SWAP1 MSTORE PUSH1 0x60 DUP2 ADD DUP3 SWAP1 MSTORE PUSH1 0x80 DUP2 ADD DUP3 SWAP1 MSTORE PUSH1 0xA0 DUP2 ADD SWAP2 SWAP1 SWAP2 MSTORE SWAP1 JUMP JUMPDEST PUSH1 0x40 DUP1 MLOAD DUP1 DUP3 ADD SWAP1 SWAP2 MSTORE PUSH1 0x0 DUP1 DUP3 MSTORE PUSH1 0x20 DUP3 ADD MSTORE SWAP1 JUMP JUMPDEST PUSH1 0x40 MLOAD DUP1 PUSH1 0xA0 ADD PUSH1 0x40 MSTORE DUP1 PUSH1 0x0 PUSH2 0xFFFF AND DUP2 MSTORE PUSH1 0x20 ADD PUSH1 0x0 DUP2 MSTORE PUSH1 0x20 ADD PUSH1 0x0 DUP2 MSTORE PUSH1 0x20 ADD PUSH1 0x0 DUP2 MSTORE PUSH1 0x20 ADD PUSH1 0x0 DUP2 MSTORE POP SWAP1 JUMP JUMPDEST PUSH1 0x40 DUP1 MLOAD PUSH1 0x80 DUP2 ADD DUP3 MSTORE PUSH1 0x0 DUP1 DUP3 MSTORE PUSH1 0x20 DUP3 ADD MSTORE SWAP1 DUP2 ADD PUSH2 0x29B1 PUSH2 0x2844 JUMP JUMPDEST DUP2 MSTORE PUSH1 0x0 PUSH1 0x20 SWAP1 SWAP2 ADD MSTORE SWAP1 JUMP JUMPDEST PUSH1 0x40 MLOAD DUP1 PUSH1 0xC0 ADD PUSH1 0x40 MSTORE DUP1 PUSH1 0x0 DUP2 MSTORE PUSH1 0x20 ADD PUSH1 0x0 DUP2 MSTORE PUSH1 0x20 ADD PUSH1 0x0 DUP2 MSTORE PUSH1 0x20 ADD PUSH1 0x0 DUP2 MSTORE PUSH1 0x20 ADD PUSH1 0x0 DUP2 MSTORE PUSH1 0x20 ADD PUSH1 0x0 PUSH1 0x3 DUP2 GT ISZERO PUSH2 0x29F9 JUMPI INVALID JUMPDEST SWAP1 MSTORE SWAP1 JUMP JUMPDEST DUP1 CALLDATALOAD PUSH1 0x1 PUSH1 0x1 PUSH1 0xA0 SHL SUB DUP2 AND DUP2 EQ PUSH2 0x65A JUMPI PUSH1 0x0 DUP1 REVERT JUMPDEST DUP1 CALLDATALOAD PUSH2 0xFFFF DUP2 AND DUP2 EQ PUSH2 0x65A JUMPI PUSH1 0x0 DUP1 REVERT JUMPDEST DUP1 MLOAD PUSH10 0xFFFFFFFFFFFFFFFFFFFF DUP2 AND DUP2 EQ PUSH2 0x65A JUMPI PUSH1 0x0 DUP1 REVERT JUMPDEST PUSH1 0x0 PUSH1 0x20 DUP3 DUP5 SUB SLT ISZERO PUSH2 0x2A52 JUMPI DUP1 DUP2 REVERT JUMPDEST PUSH2 0x858 DUP3 PUSH2 0x29FE JUMP JUMPDEST PUSH1 0x0 DUP1 PUSH1 0x40 DUP4 DUP6 SUB SLT ISZERO PUSH2 0x2A6D JUMPI DUP1 DUP2 REVERT JUMPDEST PUSH2 0x2A76 DUP4 PUSH2 0x29FE JUMP JUMPDEST SWAP2 POP PUSH2 0x2A84 PUSH1 0x20 DUP5 ADD PUSH2 0x2A15 JUMP JUMPDEST SWAP1 POP SWAP3 POP SWAP3 SWAP1 POP JUMP JUMPDEST PUSH1 0x0 DUP1 PUSH1 0x0 PUSH1 0x60 DUP5 DUP7 SUB SLT ISZERO PUSH2 0x2AA1 JUMPI DUP1 DUP2 REVERT JUMPDEST PUSH2 0x2AAA DUP5 PUSH2 0x29FE JUMP JUMPDEST SWAP3 POP PUSH2 0x2AB8 PUSH1 0x20 DUP6 ADD PUSH2 0x2A15 JUMP JUMPDEST SWAP2 POP PUSH1 0x40 DUP5 ADD CALLDATALOAD SWAP1 POP SWAP3 POP SWAP3 POP SWAP3 JUMP JUMPDEST PUSH1 0x0 PUSH1 0x20 DUP3 DUP5 SUB SLT ISZERO PUSH2 0x2AD9 JUMPI DUP1 DUP2 REVERT JUMPDEST POP MLOAD SWAP2 SWAP1 POP JUMP JUMPDEST PUSH1 0x0 DUP1 PUSH1 0x40 DUP4 DUP6 SUB SLT ISZERO PUSH2 0x2AF2 JUMPI DUP2 DUP3 REVERT JUMPDEST DUP3 MLOAD SWAP2 POP PUSH1 0x20 DUP1 DUP5 ADD MLOAD PUSH8 0xFFFFFFFFFFFFFFFF DUP1 DUP3 GT ISZERO PUSH2 0x2B11 JUMPI DUP4 DUP5 REVERT JUMPDEST DUP2 DUP7 ADD SWAP2 POP DUP7 PUSH1 0x1F DUP4 ADD SLT PUSH2 0x2B24 JUMPI DUP4 DUP5 REVERT JUMPDEST DUP2 MLOAD DUP2 DUP2 GT ISZERO PUSH2 0x2B30 JUMPI INVALID JUMPDEST DUP4 DUP2 MUL PUSH1 0x40 MLOAD DUP6 DUP3 DUP3 ADD ADD DUP2 DUP2 LT DUP6 DUP3 GT OR ISZERO PUSH2 0x2B49 JUMPI INVALID JUMPDEST PUSH1 0x40 MSTORE DUP3 DUP2 MSTORE DUP6 DUP2 ADD SWAP4 POP DUP5 DUP7 ADD DUP3 DUP7 ADD DUP8 ADD DUP12 LT ISZERO PUSH2 0x2B67 JUMPI DUP8 DUP9 REVERT JUMPDEST DUP8 SWAP6 POP JUMPDEST DUP4 DUP7 LT ISZERO PUSH2 0x2B89 JUMPI DUP1 MLOAD DUP6 MSTORE PUSH1 0x1 SWAP6 SWAP1 SWAP6 ADD SWAP5 SWAP4 DUP7 ADD SWAP4 DUP7 ADD PUSH2 0x2B6B JUMP JUMPDEST POP DUP1 SWAP7 POP POP POP POP POP POP POP SWAP3 POP SWAP3 SWAP1 POP JUMP JUMPDEST PUSH1 0x0 PUSH1 0x20 DUP3 DUP5 SUB SLT ISZERO PUSH2 0x2BAB JUMPI DUP1 DUP2 REVERT JUMPDEST PUSH2 0x858 DUP3 PUSH2 0x2A15 JUMP JUMPDEST PUSH1 0x0 DUP1 PUSH1 0x40 DUP4 DUP6 SUB SLT ISZERO PUSH2 0x2BC6 JUMPI DUP2 DUP3 REVERT JUMPDEST PUSH2 0x2BCF DUP4 PUSH2 0x2A15 JUMP JUMPDEST SWAP2 POP PUSH2 0x2A84 PUSH1 0x20 DUP5 ADD PUSH2 0x29FE JUMP JUMPDEST PUSH1 0x0 DUP1 PUSH1 0x0 PUSH1 0x60 DUP5 DUP7 SUB SLT ISZERO PUSH2 0x2BF1 JUMPI DUP3 DUP4 REVERT JUMPDEST PUSH2 0x2BFA DUP5 PUSH2 0x2A15 JUMP JUMPDEST SWAP6 PUSH1 0x20 DUP6 ADD CALLDATALOAD SWAP6 POP PUSH1 0x40 SWAP1 SWAP5 ADD CALLDATALOAD SWAP4 SWAP3 POP POP POP JUMP JUMPDEST PUSH1 0x0 DUP1 PUSH1 0x40 DUP4 DUP6 SUB SLT ISZERO PUSH2 0x2C21 JUMPI DUP2 DUP3 REVERT JUMPDEST PUSH2 0x2C2A DUP4 PUSH2 0x2A15 JUMP JUMPDEST SWAP2 POP PUSH1 0x20 DUP4 ADD CALLDATALOAD PUSH4 0xFFFFFFFF DUP2 AND DUP2 EQ PUSH2 0x2C42 JUMPI DUP2 DUP3 REVERT JUMPDEST DUP1 SWAP2 POP POP SWAP3 POP SWAP3 SWAP1 POP JUMP JUMPDEST PUSH1 0x0 DUP1 PUSH1 0x40 DUP4 DUP6 SUB SLT ISZERO PUSH2 0x2C5F JUMPI DUP2 DUP3 REVERT JUMPDEST PUSH2 0x2C68 DUP4 PUSH2 0x2A15 JUMP JUMPDEST SWAP2 POP PUSH1 0x20 DUP4 ADD CALLDATALOAD PUSH5 0xFFFFFFFFFF DUP2 AND DUP2 EQ PUSH2 0x2C42 JUMPI DUP2 DUP3 REVERT JUMPDEST PUSH1 0x0 DUP1 PUSH1 0x0 DUP1 PUSH1 0x0 PUSH1 0xA0 DUP7 DUP9 SUB SLT ISZERO PUSH2 0x2C98 JUMPI DUP1 DUP2 REVERT JUMPDEST PUSH2 0x2CA1 DUP7 PUSH2 0x2A27 JUMP JUMPDEST SWAP5 POP PUSH1 0x20 DUP7 ADD MLOAD SWAP4 POP PUSH1 0x40 DUP7 ADD MLOAD SWAP3 POP PUSH1 0x60 DUP7 ADD MLOAD SWAP2 POP PUSH2 0x2CC4 PUSH1 0x80 DUP8 ADD PUSH2 0x2A27 JUMP JUMPDEST SWAP1 POP SWAP3 SWAP6 POP SWAP3 SWAP6 SWAP1 SWAP4 POP JUMP JUMPDEST PUSH1 0x0 DUP2 MLOAD DUP1 DUP5 MSTORE PUSH1 0x20 DUP1 DUP6 ADD SWAP5 POP DUP1 DUP5 ADD DUP4 JUMPDEST DUP4 DUP2 LT ISZERO PUSH2 0x2CFF JUMPI DUP2 MLOAD DUP8 MSTORE SWAP6 DUP3 ADD SWAP6 SWAP1 DUP3 ADD SWAP1 PUSH1 0x1 ADD PUSH2 0x2CE3 JUMP JUMPDEST POP SWAP5 SWAP6 SWAP5 POP POP POP POP POP JUMP JUMPDEST PUSH1 0x0 DUP2 MLOAD DUP1 DUP5 MSTORE PUSH1 0x20 DUP1 DUP6 ADD SWAP5 POP DUP1 DUP5 ADD DUP4 JUMPDEST DUP4 DUP2 LT ISZERO PUSH2 0x2CFF JUMPI DUP2 MLOAD DUP1 MLOAD DUP9 MSTORE DUP4 DUP2 ADD MLOAD DUP5 DUP10 ADD MSTORE PUSH1 0x40 DUP1 DUP3 ADD MLOAD SWAP1 DUP10 ADD MSTORE PUSH1 0x60 DUP1 DUP3 ADD MLOAD SWAP1 DUP10 ADD MSTORE PUSH1 0x80 DUP1 DUP3 ADD MLOAD SWAP1 DUP10 ADD MSTORE PUSH1 0xA0 SWAP1 DUP2 ADD MLOAD SWAP1 PUSH1 0x4 DUP3 LT PUSH2 0x2D62 JUMPI INVALID JUMPDEST DUP9 ADD MSTORE PUSH1 0xC0 SWAP1 SWAP7 ADD SWAP6 SWAP1 DUP3 ADD SWAP1 PUSH1 0x1 ADD PUSH2 0x2D1D JUMP JUMPDEST PUSH1 0x0 DUP2 MLOAD DUP1 DUP5 MSTORE PUSH1 0x20 DUP1 DUP6 ADD SWAP5 POP DUP1 DUP5 ADD DUP4 JUMPDEST DUP4 DUP2 LT ISZERO PUSH2 0x2CFF JUMPI DUP2 MLOAD PUSH1 0xFF AND DUP8 MSTORE SWAP6 DUP3 ADD SWAP6 SWAP1 DUP3 ADD SWAP1 PUSH1 0x1 ADD PUSH2 0x2D8A JUMP JUMPDEST DUP1 MLOAD PUSH5 0xFFFFFFFFFF AND DUP3 MSTORE PUSH1 0x20 DUP1 DUP3 ADD MLOAD PUSH1 0x1 PUSH1 0x1 PUSH1 0xF8 SHL SUB NOT AND SWAP1 DUP4 ADD MSTORE PUSH1 0x40 DUP1 DUP3 ADD MLOAD PUSH1 0xFF AND SWAP1 DUP4 ADD MSTORE PUSH1 0x60 DUP1 DUP3 ADD MLOAD PUSH2 0xFFFF AND SWAP1 DUP4 ADD MSTORE PUSH1 0x80 SWAP1 DUP2 ADD MLOAD PUSH1 0x1 PUSH1 0x1 PUSH1 0x70 SHL SUB NOT AND SWAP2 ADD MSTORE JUMP JUMPDEST DUP1 MLOAD PUSH1 0x1 PUSH1 0x1 PUSH1 0xA0 SHL SUB AND DUP3 MSTORE PUSH1 0x20 DUP1 DUP3 ADD MLOAD SWAP1 DUP4 ADD MSTORE PUSH1 0x40 SWAP1 DUP2 ADD MLOAD SWAP2 ADD MSTORE JUMP JUMPDEST PUSH1 0x0 PUSH2 0x160 PUSH2 0x2E2A DUP5 DUP5 MLOAD PUSH2 0x2F92 JUMP JUMPDEST PUSH1 0x20 DUP4 ADD MLOAD PUSH2 0x2E3C PUSH1 0x20 DUP7 ADD DUP3 PUSH2 0x2F92 JUMP JUMPDEST POP PUSH1 0x40 DUP4 ADD MLOAD PUSH2 0x2E4F PUSH1 0x40 DUP7 ADD DUP3 PUSH2 0x2F92 JUMP JUMPDEST POP PUSH1 0x60 DUP4 ADD MLOAD PUSH2 0x2E62 PUSH1 0x60 DUP7 ADD DUP3 PUSH2 0x2F92 JUMP JUMPDEST POP PUSH1 0x80 DUP4 ADD MLOAD PUSH2 0x2E75 PUSH1 0x80 DUP7 ADD DUP3 PUSH2 0x2F92 JUMP JUMPDEST POP PUSH1 0xA0 DUP4 ADD MLOAD PUSH2 0x2E88 PUSH1 0xA0 DUP7 ADD DUP3 PUSH2 0x2F92 JUMP JUMPDEST POP PUSH1 0xC0 DUP4 ADD MLOAD PUSH2 0x2E9B PUSH1 0xC0 DUP7 ADD DUP3 PUSH2 0x2F92 JUMP JUMPDEST POP PUSH1 0xE0 DUP4 ADD MLOAD PUSH2 0x2EAE PUSH1 0xE0 DUP7 ADD DUP3 PUSH2 0x2F92 JUMP JUMPDEST POP PUSH2 0x100 DUP1 DUP5 ADD MLOAD PUSH2 0x2EC2 DUP3 DUP8 ADD DUP3 PUSH2 0x2F92 JUMP JUMPDEST POP POP PUSH2 0x120 DUP1 DUP5 ADD MLOAD DUP3 DUP3 DUP8 ADD MSTORE PUSH2 0x2EDC DUP4 DUP8 ADD DUP3 PUSH2 0x2D77 JUMP JUMPDEST SWAP3 POP POP POP PUSH2 0x140 DUP1 DUP5 ADD MLOAD DUP6 DUP4 SUB DUP3 DUP8 ADD MSTORE PUSH2 0x2EF8 DUP4 DUP3 PUSH2 0x2D77 JUMP JUMPDEST SWAP7 SWAP6 POP POP POP POP POP POP JUMP JUMPDEST DUP1 MLOAD DUP3 MSTORE PUSH1 0x20 DUP2 ADD MLOAD PUSH1 0x20 DUP4 ADD MSTORE PUSH1 0x40 DUP2 ADD MLOAD PUSH1 0x40 DUP4 ADD MSTORE PUSH1 0x60 DUP2 ADD MLOAD PUSH1 0x60 DUP4 ADD MSTORE PUSH1 0x80 DUP2 ADD MLOAD PUSH1 0x80 DUP4 ADD MSTORE PUSH1 0xA0 DUP2 ADD MLOAD PUSH1 0xA0 DUP4 ADD MSTORE PUSH1 0xC0 DUP2 ADD MLOAD PUSH1 0xC0 DUP4 ADD MSTORE PUSH1 0xE0 DUP2 ADD MLOAD PUSH1 0xE0 DUP4 ADD MSTORE POP POP JUMP JUMPDEST DUP1 MLOAD PUSH1 0x1 PUSH1 0x1 PUSH1 0xA0 SHL SUB AND DUP3 MSTORE PUSH1 0x20 DUP1 DUP3 ADD MLOAD ISZERO ISZERO SWAP1 DUP4 ADD MSTORE PUSH1 0x40 DUP1 DUP3 ADD MLOAD SWAP1 DUP4 ADD MSTORE PUSH1 0x60 DUP2 ADD MLOAD PUSH1 0x6 DUP2 LT PUSH2 0x2F82 JUMPI INVALID JUMPDEST PUSH1 0x60 DUP4 ADD MSTORE PUSH1 0x80 SWAP1 DUP2 ADD MLOAD SWAP2 ADD MSTORE JUMP JUMPDEST PUSH1 0xFF AND SWAP1 MSTORE JUMP JUMPDEST PUSH1 0x1 PUSH1 0x1 PUSH1 0xA0 SHL SUB SWAP2 SWAP1 SWAP2 AND DUP2 MSTORE PUSH1 0x20 ADD SWAP1 JUMP JUMPDEST PUSH1 0x1 PUSH1 0x1 PUSH1 0xA0 SHL SUB SWAP3 DUP4 AND DUP2 MSTORE SWAP2 AND PUSH1 0x20 DUP3 ADD MSTORE PUSH1 0x40 ADD SWAP1 JUMP JUMPDEST PUSH1 0x0 PUSH1 0x40 DUP3 MSTORE PUSH2 0x2FDA PUSH1 0x40 DUP4 ADD DUP6 PUSH2 0x2CD0 JUMP JUMPDEST DUP3 DUP2 SUB PUSH1 0x20 DUP5 ADD MSTORE PUSH2 0x1DD6 DUP2 DUP6 PUSH2 0x2CD0 JUMP JUMPDEST PUSH1 0x20 DUP1 DUP3 MSTORE DUP3 MLOAD DUP3 DUP3 ADD DUP2 SWAP1 MSTORE PUSH1 0x0 SWAP2 SWAP1 DUP5 DUP3 ADD SWAP1 PUSH1 0x40 DUP6 ADD SWAP1 DUP5 JUMPDEST DUP2 DUP2 LT ISZERO PUSH2 0x302F JUMPI PUSH2 0x301B DUP4 DUP6 MLOAD PUSH2 0x2F02 JUMP JUMPDEST SWAP3 DUP5 ADD SWAP3 PUSH2 0x100 SWAP3 SWAP1 SWAP3 ADD SWAP2 PUSH1 0x1 ADD PUSH2 0x3008 JUMP JUMPDEST POP SWAP1 SWAP7 SWAP6 POP POP POP POP POP POP JUMP JUMPDEST PUSH1 0x0 PUSH1 0x20 DUP3 MSTORE PUSH2 0x858 PUSH1 0x20 DUP4 ADD DUP5 PUSH2 0x2D0A JUMP JUMPDEST PUSH1 0x0 PUSH1 0x40 DUP3 MSTORE PUSH2 0x3061 PUSH1 0x40 DUP4 ADD DUP6 PUSH2 0x2D0A JUMP JUMPDEST DUP3 DUP2 SUB PUSH1 0x20 DUP5 ADD MSTORE PUSH2 0x1DD6 DUP2 DUP6 PUSH2 0x2D0A JUMP JUMPDEST SWAP1 ISZERO ISZERO DUP2 MSTORE PUSH1 0x20 ADD SWAP1 JUMP JUMPDEST SWAP1 DUP2 MSTORE PUSH1 0x20 ADD SWAP1 JUMP JUMPDEST PUSH1 0x0 DUP4 DUP3 MSTORE PUSH1 0x40 PUSH1 0x20 DUP4 ADD MSTORE PUSH2 0x87B PUSH1 0x40 DUP4 ADD DUP5 PUSH2 0x2CD0 JUMP JUMPDEST SWAP3 DUP4 MSTORE PUSH1 0x20 DUP4 ADD SWAP2 SWAP1 SWAP2 MSTORE PUSH1 0x40 DUP3 ADD MSTORE PUSH1 0x60 ADD SWAP1 JUMP JUMPDEST PUSH1 0x20 DUP1 DUP3 MSTORE PUSH1 0x16 SWAP1 DUP3 ADD MSTORE PUSH22 0x4E6F206E546F6B656E20666F722063757272656E6379 PUSH1 0x50 SHL PUSH1 0x40 DUP3 ADD MSTORE PUSH1 0x60 ADD SWAP1 JUMP JUMPDEST PUSH1 0x20 DUP1 DUP3 MSTORE PUSH1 0xD SWAP1 DUP3 ADD MSTORE PUSH13 0x92DCECC2D8D2C840D2DCC8CAF PUSH1 0x9B SHL PUSH1 0x40 DUP3 ADD MSTORE PUSH1 0x60 ADD SWAP1 JUMP JUMPDEST PUSH1 0x20 DUP1 DUP3 MSTORE PUSH1 0xE SWAP1 DUP3 ADD MSTORE PUSH14 0x125B9D985B1A59081B585C9AD95D PUSH1 0x92 SHL PUSH1 0x40 DUP3 ADD MSTORE PUSH1 0x60 ADD SWAP1 JUMP JUMPDEST PUSH1 0x20 DUP1 DUP3 MSTORE PUSH1 0xC SWAP1 DUP3 ADD MSTORE PUSH12 0x496E76616C69642072617465 PUSH1 0xA0 SHL PUSH1 0x40 DUP3 ADD MSTORE PUSH1 0x60 ADD SWAP1 JUMP JUMPDEST PUSH1 0x20 DUP1 DUP3 MSTORE PUSH1 0x10 SWAP1 DUP3 ADD MSTORE PUSH16 0x13595D1A1BD9081B9BDD08199BDD5B99 PUSH1 0x82 SHL PUSH1 0x40 DUP3 ADD MSTORE PUSH1 0x60 ADD SWAP1 JUMP JUMPDEST PUSH1 0x20 DUP1 DUP3 MSTORE PUSH1 0x13 SWAP1 DUP3 ADD MSTORE PUSH19 0x125B9D985B1A590818DD5C9C995B98DE481A59 PUSH1 0x6A SHL PUSH1 0x40 DUP3 ADD MSTORE PUSH1 0x60 ADD SWAP1 JUMP JUMPDEST PUSH1 0x20 DUP1 DUP3 MSTORE PUSH1 0x13 SWAP1 DUP3 ADD MSTORE PUSH19 0x50543A20696E69742076616C7565207A65726F PUSH1 0x68 SHL PUSH1 0x40 DUP3 ADD MSTORE PUSH1 0x60 ADD SWAP1 JUMP JUMPDEST PUSH1 0x20 DUP1 DUP3 MSTORE PUSH1 0x10 SWAP1 DUP3 ADD MSTORE PUSH16 0x151BDAD95B881B9BDD081B1A5CDD1959 PUSH1 0x82 SHL PUSH1 0x40 DUP3 ADD MSTORE PUSH1 0x60 ADD SWAP1 JUMP JUMPDEST PUSH1 0xA0 DUP2 ADD PUSH2 0x85B DUP3 DUP5 PUSH2 0x2DA9 JUMP JUMPDEST PUSH1 0x0 PUSH1 0xE0 DUP3 ADD PUSH2 0x3227 DUP4 DUP8 PUSH2 0x2DA9 JUMP JUMPDEST PUSH1 0xA0 PUSH1 0xE0 DUP2 DUP6 ADD MSTORE DUP2 DUP7 MLOAD DUP1 DUP5 MSTORE PUSH2 0x100 DUP7 ADD SWAP2 POP PUSH1 0x20 SWAP4 POP DUP4 DUP9 ADD DUP6 JUMPDEST DUP3 DUP2 LT ISZERO PUSH2 0x328D JUMPI DUP2 MLOAD DUP1 MLOAD PUSH2 0xFFFF AND DUP6 MSTORE DUP7 DUP2 ADD MLOAD DUP8 DUP7 ADD MSTORE PUSH1 0x40 DUP1 DUP3 ADD MLOAD SWAP1 DUP7 ADD MSTORE PUSH1 0x60 DUP1 DUP3 ADD MLOAD SWAP1 DUP7 ADD MSTORE PUSH1 0x80 SWAP1 DUP2 ADD MLOAD SWAP1 DUP6 ADD MSTORE SWAP3 DUP5 ADD SWAP3 SWAP1 DUP6 ADD SWAP1 PUSH1 0x1 ADD PUSH2 0x3245 JUMP JUMPDEST POP POP POP DUP5 DUP2 SUB PUSH1 0xC0 DUP7 ADD MSTORE PUSH2 0x32A2 DUP2 DUP8 PUSH2 0x2D0A JUMP JUMPDEST SWAP9 SWAP8 POP POP POP POP POP POP POP POP JUMP JUMPDEST PUSH1 0x60 DUP2 ADD PUSH2 0x85B DUP3 DUP5 PUSH2 0x2DF8 JUMP JUMPDEST PUSH1 0x0 PUSH1 0x20 DUP3 MSTORE PUSH2 0x858 PUSH1 0x20 DUP4 ADD DUP5 PUSH2 0x2E1A JUMP JUMPDEST PUSH1 0x0 PUSH1 0x80 DUP3 MSTORE PUSH2 0x32E2 PUSH1 0x80 DUP4 ADD DUP6 PUSH2 0x2E1A JUMP JUMPDEST SWAP1 POP PUSH2 0x788 PUSH1 0x20 DUP4 ADD DUP5 PUSH2 0x2DF8 JUMP JUMPDEST PUSH1 0x0 PUSH2 0x100 DUP3 ADD SWAP1 POP PUSH1 0x1 DUP1 PUSH1 0xA0 SHL SUB DUP1 DUP6 MLOAD AND DUP4 MSTORE PUSH1 0xFF PUSH1 0x20 DUP7 ADD MLOAD AND PUSH1 0x20 DUP5 ADD MSTORE PUSH1 0x40 DUP6 ADD MLOAD ISZERO ISZERO PUSH1 0x40 DUP5 ADD MSTORE PUSH1 0xFF PUSH1 0x60 DUP7 ADD MLOAD AND PUSH1 0x60 DUP5 ADD MSTORE PUSH1 0xFF PUSH1 0x80 DUP7 ADD MLOAD AND PUSH1 0x80 DUP5 ADD MSTORE PUSH1 0xFF PUSH1 0xA0 DUP7 ADD MLOAD AND PUSH1 0xA0 DUP5 ADD MSTORE DUP1 DUP5 MLOAD AND PUSH1 0xC0 DUP5 ADD MSTORE POP PUSH1 0xFF PUSH1 0x20 DUP5 ADD MLOAD AND PUSH1 0xE0 DUP4 ADD MSTORE SWAP4 SWAP3 POP POP POP JUMP JUMPDEST PUSH2 0x100 DUP2 ADD PUSH2 0x85B DUP3 DUP5 PUSH2 0x2F02 JUMP JUMPDEST PUSH2 0x140 DUP2 ADD PUSH2 0x3383 DUP3 DUP6 PUSH2 0x2F50 JUMP JUMPDEST PUSH2 0x788 PUSH1 0xA0 DUP4 ADD DUP5 PUSH2 0x2F50 JUMP JUMPDEST PUSH2 0x240 DUP2 ADD PUSH2 0x339F DUP3 DUP8 PUSH2 0x2F50 JUMP JUMPDEST PUSH2 0x33AC PUSH1 0xA0 DUP4 ADD DUP7 PUSH2 0x2F50 JUMP JUMPDEST DUP4 MLOAD PUSH2 0x140 DUP4 ADD MSTORE PUSH1 0x20 DUP5 ADD MLOAD PUSH2 0x160 DUP4 ADD MSTORE PUSH1 0x40 DUP5 ADD MLOAD PUSH2 0x180 DUP4 ADD MSTORE PUSH1 0x60 DUP5 ADD MLOAD PUSH2 0x1A0 DUP4 ADD MSTORE PUSH1 0x80 DUP5 ADD MLOAD PUSH2 0x1C0 DUP4 ADD MSTORE PUSH2 0x1DD6 PUSH2 0x1E0 DUP4 ADD DUP5 PUSH2 0x2DF8 JUMP JUMPDEST PUSH2 0xFFFF SWAP2 SWAP1 SWAP2 AND DUP2 MSTORE PUSH1 0x20 ADD SWAP1 JUMP JUMPDEST PUSH2 0xFFFF SWAP9 SWAP1 SWAP9 AND DUP9 MSTORE PUSH1 0x20 DUP9 ADD SWAP7 SWAP1 SWAP7 MSTORE PUSH1 0x40 DUP8 ADD SWAP5 SWAP1 SWAP5 MSTORE PUSH1 0x60 DUP7 ADD SWAP3 SWAP1 SWAP3 MSTORE PUSH1 0x1 PUSH1 0x1 PUSH1 0xD8 SHL SUB NOT AND PUSH1 0x80 DUP6 ADD MSTORE PUSH1 0xA0 DUP5 ADD MSTORE PUSH1 0xC0 DUP4 ADD MSTORE PUSH1 0xE0 DUP3 ADD MSTORE PUSH2 0x100 ADD SWAP1 JUMP INVALID MSTORE8 PUSH2 0x6665 0x4D PUSH2 0x7468 GASPRICE KECCAK256 PUSH14 0x756C7469706C69636174696F6E20 PUSH16 0x766572666C6F77A26469706673582212 KECCAK256 0xD3 DIV 0xE1 0x4A 0x2F 0xE3 0xD3 0xF8 0x5E CALLDATACOPY KECCAK256 0xAE AND PUSH2 0xBC81 DUP13 SWAP9 PUSH15 0xC5E1332A6DC0DE8B2D50DA3F346473 PUSH16 0x6C634300070600330000000000000000 ","sha1":"98de7e7aec2aaf5ad99bb8cc01fb68b41e24d109","source":"// SPDX-License-Identifier: GPL-3.0-only\npragma solidity ^0.7.0;\npragma abicoder v2;\n\nimport \"../external/FreeCollateralExternal.sol\";\nimport \"../internal/valuation/ExchangeRate.sol\";\nimport \"../internal/markets/CashGroup.sol\";\nimport \"../internal/markets/AssetRate.sol\";\nimport \"../internal/nToken/nTokenHandler.sol\";\nimport \"../internal/nToken/nTokenSupply.sol\";\nimport \"../internal/balances/TokenHandler.sol\";\nimport \"../global/LibStorage.sol\";\nimport \"../global/StorageLayoutV2.sol\";\nimport \"../global/Deployments.sol\";\nimport \"../math/SafeInt256.sol\";\nimport \"../../interfaces/notional/NotionalViews.sol\";\nimport \"@openzeppelin/contracts/math/SafeMath.sol\";\n\ncontract Views is StorageLayoutV2, NotionalViews {\n    using CashGroup for CashGroupParameters;\n    using TokenHandler for Token;\n    using Market for MarketParameters;\n    using AssetRate for AssetRateParameters;\n    using SafeInt256 for int256;\n    using SafeMath for uint256;\n    using BalanceHandler for BalanceState;\n    using nTokenHandler for nTokenPortfolio;\n    using AccountContextHandler for AccountContext;\n\n    function _checkValidCurrency(uint16 currencyId) internal view {\n        require(0 < currencyId && currencyId <= maxCurrencyId, \"Invalid currency id\");\n    }\n\n    /** Governance Parameter Getters **/\n\n    /// @notice Returns the current maximum currency id\n    function getMaxCurrencyId() external view override returns (uint16) {\n        return maxCurrencyId;\n    }\n\n    /// @notice Returns a currency id, a zero means that it is not listed.\n    function getCurrencyId(address tokenAddress)\n        external\n        view\n        override\n        returns (uint16 currencyId)\n    {\n        currencyId = tokenAddressToCurrencyId[tokenAddress];\n        require(currencyId != 0, \"Token not listed\");\n    }\n\n    /// @notice Returns the asset token and underlying token related to a given currency id. If underlying\n    /// token is not set then will return the zero address\n    function getCurrency(uint16 currencyId)\n        external\n        view\n        override\n        returns (Token memory assetToken, Token memory underlyingToken)\n    {\n        _checkValidCurrency(currencyId);\n        assetToken = TokenHandler.getAssetToken(currencyId);\n        underlyingToken = TokenHandler.getUnderlyingToken(currencyId);\n    }\n\n    /// @notice Returns the ETH and Asset rates for a currency as stored, useful for viewing how they are configured\n    function getRateStorage(uint16 currencyId)\n        external\n        view\n        override\n        returns (ETHRateStorage memory ethRate, AssetRateStorage memory assetRate)\n    {\n        _checkValidCurrency(currencyId);\n        mapping(uint256 => ETHRateStorage) storage ethStore = LibStorage.getExchangeRateStorage();\n        mapping(uint256 => AssetRateStorage) storage assetStore = LibStorage.getAssetRateStorage();\n        ethRate = ethStore[currencyId];\n        assetRate = assetStore[currencyId];\n    }\n\n    /// @notice Returns a currency and its corresponding asset rate and ETH exchange rates. Note that this does not recalculate\n    /// cToken interest rates, it only retrieves the latest stored rate.\n    function getCurrencyAndRates(uint16 currencyId)\n        external\n        view\n        override\n        returns (\n            Token memory assetToken,\n            Token memory underlyingToken,\n            ETHRate memory ethRate,\n            AssetRateParameters memory assetRate\n        )\n    {\n        _checkValidCurrency(currencyId);\n        assetToken = TokenHandler.getAssetToken(currencyId);\n        underlyingToken = TokenHandler.getUnderlyingToken(currencyId);\n        ethRate = ExchangeRate.buildExchangeRate(currencyId);\n        assetRate = AssetRate.buildAssetRateView(currencyId);\n    }\n\n    /// @notice Returns cash group settings for a currency\n    function getCashGroup(uint16 currencyId)\n        external\n        view\n        override\n        returns (CashGroupSettings memory)\n    {\n        _checkValidCurrency(currencyId);\n        return CashGroup.deserializeCashGroupStorage(currencyId);\n    }\n\n    /// @notice Returns the cash group along with the asset rate for convenience.\n    function getCashGroupAndAssetRate(uint16 currencyId)\n        external\n        view\n        override\n        returns (CashGroupSettings memory cashGroup, AssetRateParameters memory assetRate)\n    {\n        _checkValidCurrency(currencyId);\n        cashGroup = CashGroup.deserializeCashGroupStorage(currencyId);\n        assetRate = AssetRate.buildAssetRateView(currencyId);\n    }\n\n    /// @notice Returns market initialization parameters for a given currency\n    function getInitializationParameters(uint16 currencyId)\n        external\n        view\n        override\n        returns (int256[] memory annualizedAnchorRates, int256[] memory proportions)\n    {\n        _checkValidCurrency(currencyId);\n        uint256 maxMarketIndex = CashGroup.getMaxMarketIndex(currencyId);\n        (annualizedAnchorRates, proportions) = nTokenHandler.getInitializationParameters(\n            currencyId,\n            maxMarketIndex\n        );\n    }\n\n    /// @notice Returns nToken deposit parameters for a given currency\n    function getDepositParameters(uint16 currencyId)\n        external\n        view\n        override\n        returns (int256[] memory depositShares, int256[] memory leverageThresholds)\n    {\n        _checkValidCurrency(currencyId);\n        uint256 maxMarketIndex = CashGroup.getMaxMarketIndex(currencyId);\n        (depositShares, leverageThresholds) = nTokenHandler.getDepositParameters(\n            currencyId,\n            maxMarketIndex\n        );\n    }\n\n    /// @notice Returns nToken address for a given currency\n    function nTokenAddress(uint16 currencyId) external view override returns (address) {\n        _checkValidCurrency(currencyId);\n        address nToken = nTokenHandler.nTokenAddress(currencyId);\n        require(nToken != address(0), \"No nToken for currency\");\n        return nToken;\n    }\n\n    /// @notice Returns address of the NOTE token\n    function getNoteToken() external pure override returns (address) {\n        return Deployments.NOTE_TOKEN_ADDRESS;\n    }\n\n    /// @notice Returns current ownership status of the contract\n    /// @return owner is the current owner of the Notional system\n    /// @return pendingOwner can claim ownership from the owner\n    function getOwnershipStatus() external view override returns (address owner, address pendingOwner) {\n        return (owner, pendingOwner);\n    }\n\n    function getGlobalTransferOperatorStatus(address operator) external view override returns (bool isAuthorized) {\n        return globalTransferOperator[operator];\n    }\n\n    function getAuthorizedCallbackContractStatus(address callback) external view override returns (bool isAuthorized) {\n        return authorizedCallbackContract[callback];\n    }\n\n    function getSecondaryIncentiveRewarder(uint16 currencyId) external view override returns (address rewarder) {\n        address tokenAddress = nTokenHandler.nTokenAddress(currencyId);\n        return address(nTokenHandler.getSecondaryRewarder(tokenAddress));\n    }\n\n    /** Global System State View Methods **/\n\n    /// @notice Returns the asset settlement rate for a given maturity\n    function getSettlementRate(uint16 currencyId, uint40 maturity)\n        external\n        view\n        override\n        returns (AssetRateParameters memory)\n    {\n        _checkValidCurrency(currencyId);\n        return AssetRate.buildSettlementRateView(currencyId, maturity);\n    }\n\n    /// @notice Returns a single market\n    function getMarket(\n        uint16 currencyId,\n        uint256 maturity,\n        uint256 settlementDate\n    )\n        external\n        view\n        override\n        returns (MarketParameters memory)\n    {\n        _checkValidCurrency(currencyId);\n        CashGroupParameters memory cashGroup = CashGroup.buildCashGroupView(currencyId);\n        MarketParameters memory market;\n        market.loadMarketWithSettlementDate(\n            currencyId,\n            maturity,\n            block.timestamp,\n            true,\n            cashGroup.getRateOracleTimeWindow(),\n            settlementDate\n        );\n\n        return market;\n    }\n\n    /// @notice Returns all currently active markets for a currency\n    function getActiveMarkets(uint16 currencyId)\n        external\n        view\n        override\n        returns (MarketParameters[] memory)\n    {\n        _checkValidCurrency(currencyId);\n        return _getActiveMarketsAtBlockTime(currencyId, block.timestamp);\n    }\n\n    /// @notice Returns all active markets for a currency at the specified block time, useful for looking\n    /// at historical markets\n    function getActiveMarketsAtBlockTime(uint16 currencyId, uint32 blockTime)\n        external\n        view\n        override\n        returns (MarketParameters[] memory)\n    {\n        _checkValidCurrency(currencyId);\n        return _getActiveMarketsAtBlockTime(currencyId, blockTime);\n    }\n\n    function _getActiveMarketsAtBlockTime(uint16 currencyId, uint256 blockTime)\n        internal\n        view\n        returns (MarketParameters[] memory)\n    {\n        CashGroupParameters memory cashGroup = CashGroup.buildCashGroupView(currencyId);\n        MarketParameters[] memory markets = new MarketParameters[](cashGroup.maxMarketIndex);\n\n        for (uint256 i = 0; i < cashGroup.maxMarketIndex; i++) {\n            cashGroup.loadMarket(markets[i], i + 1, true, blockTime);\n        }\n\n        return markets;\n    }\n\n    /// @notice Returns the current reserve balance for a currency\n    function getReserveBalance(uint16 currencyId)\n        external\n        view\n        override\n        returns (int256 reserveBalance)\n    {\n        _checkValidCurrency(currencyId);\n        // prettier-ignore\n        (\n            reserveBalance,\n            /* */,\n            /* */,\n            /* */\n        ) = BalanceHandler.getBalanceStorage(Constants.RESERVE, currencyId);\n    }\n\n    function getNTokenPortfolio(address tokenAddress)\n        external\n        view\n        override\n        returns (PortfolioAsset[] memory liquidityTokens, PortfolioAsset[] memory netfCashAssets)\n    {\n        // prettier-ignore\n        (\n            uint16 currencyId,\n            /* incentiveRate */,\n            uint256 lastInitializedTime,\n            uint8 assetArrayLength,\n            bytes5 parameters\n        ) = nTokenHandler.getNTokenContext(tokenAddress);\n\n        liquidityTokens = PortfolioHandler.getSortedPortfolio(tokenAddress, assetArrayLength);\n\n        netfCashAssets = BitmapAssetsHandler.getifCashArray(\n            tokenAddress,\n            currencyId,\n            lastInitializedTime\n        );\n    }\n\n    function getNTokenAccount(address tokenAddress)\n        external\n        view\n        override\n        returns (\n            uint16 currencyId,\n            uint256 totalSupply,\n            uint256 incentiveAnnualEmissionRate,\n            uint256 lastInitializedTime,\n            bytes5 nTokenParameters,\n            int256 cashBalance,\n            uint256 accumulatedNOTEPerNToken,\n            uint256 lastAccumulatedTime\n        )\n    {\n        (\n            currencyId,\n            incentiveAnnualEmissionRate,\n            lastInitializedTime,\n            /* assetArrayLength */,\n            nTokenParameters\n        ) = nTokenHandler.getNTokenContext(tokenAddress);\n\n        // prettier-ignore\n        (\n            totalSupply,\n            accumulatedNOTEPerNToken,\n            lastAccumulatedTime\n        ) = nTokenSupply.getStoredNTokenSupplyFactors(tokenAddress);\n\n        // prettier-ignore\n        (\n            cashBalance,\n            /* */,\n            /* */,\n            /* */\n        ) = BalanceHandler.getBalanceStorage(tokenAddress, currencyId);\n    }\n\n    /** Account Specific View Methods **/\n\n    /// @notice Returns all account details in a single view\n    function getAccount(address account)\n        external\n        view\n        override\n        returns (\n            AccountContext memory accountContext,\n            AccountBalance[] memory accountBalances,\n            PortfolioAsset[] memory portfolio\n        )\n    {\n        accountContext = AccountContextHandler.getAccountContext(account);\n        accountBalances = new AccountBalance[](10);\n\n        uint256 i = 0;\n        if (accountContext.isBitmapEnabled()) {\n            AccountBalance memory b = accountBalances[0];\n            b.currencyId = accountContext.bitmapCurrencyId;\n            (\n                b.cashBalance,\n                b.nTokenBalance,\n                b.lastClaimTime,\n                b.accountIncentiveDebt\n            ) = BalanceHandler.getBalanceStorage(account, accountContext.bitmapCurrencyId);\n            i += 1;\n        }\n\n        bytes18 currencies = accountContext.activeCurrencies;\n        while (currencies != 0) {\n            AccountBalance memory b = accountBalances[i];\n            b.currencyId = uint16(bytes2(currencies) & Constants.UNMASK_FLAGS);\n            if (b.currencyId == 0) break;\n\n            (\n                b.cashBalance,\n                b.nTokenBalance,\n                b.lastClaimTime,\n                b.accountIncentiveDebt\n            ) = BalanceHandler.getBalanceStorage(account, b.currencyId);\n            i += 1;\n            currencies = currencies << 16;\n        }\n\n        if (accountContext.isBitmapEnabled()) {\n            portfolio = BitmapAssetsHandler.getifCashArray(\n                account,\n                accountContext.bitmapCurrencyId,\n                accountContext.nextSettleTime\n            );\n        } else {\n            portfolio = PortfolioHandler.getSortedPortfolio(\n                account,\n                accountContext.assetArrayLength\n            );\n        }\n    }\n\n    /// @notice Returns account context\n    function getAccountContext(address account)\n        external\n        view\n        override\n        returns (AccountContext memory)\n    {\n        return AccountContextHandler.getAccountContext(account);\n    }\n\n    /// @notice Returns account balances for a given currency\n    function getAccountBalance(uint16 currencyId, address account)\n        external\n        view\n        override\n        returns (\n            int256 cashBalance,\n            int256 nTokenBalance,\n            uint256 lastClaimTime\n        )\n    {\n        _checkValidCurrency(currencyId);\n        // prettier-ignore\n        (\n            cashBalance,\n            nTokenBalance,\n            lastClaimTime,\n            /* */\n        ) = BalanceHandler.getBalanceStorage(account, currencyId);\n    }\n\n    /// @notice Returns account portfolio of assets\n    function getAccountPortfolio(address account)\n        external\n        view\n        override\n        returns (PortfolioAsset[] memory)\n    {\n        AccountContext memory accountContext = AccountContextHandler.getAccountContext(account);\n        if (accountContext.isBitmapEnabled()) {\n            return\n                BitmapAssetsHandler.getifCashArray(\n                    account,\n                    accountContext.bitmapCurrencyId,\n                    accountContext.nextSettleTime\n                );\n        } else {\n            return PortfolioHandler.getSortedPortfolio(account, accountContext.assetArrayLength);\n        }\n    }\n\n    /// @notice Returns the fCash amount at the specified maturity for a bitmapped portfolio\n    function getfCashNotional(\n        address account,\n        uint16 currencyId,\n        uint256 maturity\n    ) external view override returns (int256) {\n        _checkValidCurrency(currencyId);\n        return BitmapAssetsHandler.getifCashNotional(account, currencyId, maturity);\n    }\n\n    /// @notice Returns the assets bitmap for an account\n    function getAssetsBitmap(address account, uint16 currencyId)\n        external\n        view\n        override\n        returns (bytes32)\n    {\n        _checkValidCurrency(currencyId);\n        return BitmapAssetsHandler.getAssetsBitmap(account, currencyId);\n    }\n\n    /// @notice Returns free collateral of an account along with an array of the individual net available\n    /// asset cash amounts\n    function getFreeCollateral(address account)\n        external\n        view\n        override\n        returns (int256, int256[] memory)\n    {\n        return FreeCollateralExternal.getFreeCollateralView(account);\n    }\n\n    /// @notice Returns the current treasury manager contract\n    function getTreasuryManager() external view override returns (address) {\n        return treasuryManagerContract;\n    }\n\n    /// @notice Returns the current reserve buffer for a currency\n    /// @param currencyId refers to the currency of the reserve\n    function getReserveBuffer(uint16 currencyId) external view override returns (uint256) {\n        return reserveBuffer[currencyId];\n    }\n\n    /// @notice Get a list of deployed library addresses (sorted by library name)\n    function getLibInfo() external view returns (address, address) {\n        return (address(FreeCollateralExternal), address(MigrateIncentives));\n    }\n\n    /// @notice Returns the lending pool address\n    function getLendingPool() external view override returns (address) {\n        return address(LibStorage.getLendingPool().lendingPool);\n    }\n\n    fallback() external {\n        revert(\"Method not found\");\n    }\n}\n","sourcePath":"contracts/external/Views.sol","deployment":{"address":"0x54349162d12c5a244221dA0EeD88B023024a5742","chainid":"42","blockHeight":30483985}}