{"abi":[{"inputs":[{"internalType":"uint16","name":"currencyId","type":"uint16"},{"internalType":"uint88","name":"amountToDepositExternalPrecision","type":"uint88"}],"name":"calculateNTokensToMint","outputs":[{"internalType":"uint256","name":"","type":"uint256"}],"stateMutability":"view","type":"function"},{"inputs":[{"internalType":"uint16","name":"currencyId","type":"uint16"},{"internalType":"int256","name":"cashBalanceInternal","type":"int256"},{"internalType":"bool","name":"convertToUnderlying","type":"bool"}],"name":"convertCashBalanceToExternal","outputs":[{"internalType":"int256","name":"","type":"int256"}],"stateMutability":"view","type":"function"},{"inputs":[{"internalType":"uint16","name":"currencyId","type":"uint16"},{"internalType":"int88","name":"fCashAmount","type":"int88"},{"internalType":"uint256","name":"marketIndex","type":"uint256"},{"internalType":"uint256","name":"blockTime","type":"uint256"}],"name":"getCashAmountGivenfCashAmount","outputs":[{"internalType":"int256","name":"","type":"int256"},{"internalType":"int256","name":"","type":"int256"}],"stateMutability":"view","type":"function"},{"inputs":[{"internalType":"uint16","name":"currencyId","type":"uint16"},{"internalType":"uint256","name":"fCashAmount","type":"uint256"},{"internalType":"uint256","name":"maturity","type":"uint256"},{"internalType":"uint32","name":"minLendRate","type":"uint32"},{"internalType":"uint256","name":"blockTime","type":"uint256"}],"name":"getDepositFromfCashLend","outputs":[{"internalType":"uint256","name":"depositAmountUnderlying","type":"uint256"},{"internalType":"uint256","name":"depositAmountAsset","type":"uint256"},{"internalType":"uint8","name":"marketIndex","type":"uint8"},{"internalType":"bytes32","name":"encodedTrade","type":"bytes32"}],"stateMutability":"view","type":"function"},{"inputs":[],"name":"getLibInfo","outputs":[{"internalType":"address","name":"","type":"address"}],"stateMutability":"view","type":"function"},{"inputs":[{"internalType":"uint256","name":"maturity","type":"uint256"},{"internalType":"uint256","name":"blockTime","type":"uint256"}],"name":"getMarketIndex","outputs":[{"internalType":"uint8","name":"marketIndex","type":"uint8"}],"stateMutability":"pure","type":"function"},{"inputs":[{"internalType":"uint16","name":"currencyId","type":"uint16"},{"internalType":"uint256","name":"maturity","type":"uint256"},{"internalType":"int256","name":"notional","type":"int256"},{"internalType":"uint256","name":"blockTime","type":"uint256"},{"internalType":"bool","name":"riskAdjusted","type":"bool"}],"name":"getPresentfCashValue","outputs":[{"internalType":"int256","name":"presentValue","type":"int256"}],"stateMutability":"view","type":"function"},{"inputs":[{"internalType":"uint16","name":"currencyId","type":"uint16"},{"internalType":"uint256","name":"fCashBorrow","type":"uint256"},{"internalType":"uint256","name":"maturity","type":"uint256"},{"internalType":"uint32","name":"maxBorrowRate","type":"uint32"},{"internalType":"uint256","name":"blockTime","type":"uint256"}],"name":"getPrincipalFromfCashBorrow","outputs":[{"internalType":"uint256","name":"borrowAmountUnderlying","type":"uint256"},{"internalType":"uint256","name":"borrowAmountAsset","type":"uint256"},{"internalType":"uint8","name":"marketIndex","type":"uint8"},{"internalType":"bytes32","name":"encodedTrade","type":"bytes32"}],"stateMutability":"view","type":"function"},{"inputs":[{"internalType":"uint16","name":"currencyId","type":"uint16"},{"internalType":"int88","name":"netCashToAccount","type":"int88"},{"internalType":"uint256","name":"marketIndex","type":"uint256"},{"internalType":"uint256","name":"blockTime","type":"uint256"}],"name":"getfCashAmountGivenCashAmount","outputs":[{"internalType":"int256","name":"","type":"int256"}],"stateMutability":"view","type":"function"},{"inputs":[{"internalType":"uint16","name":"currencyId","type":"uint16"},{"internalType":"uint256","name":"borrowedAmountExternal","type":"uint256"},{"internalType":"uint256","name":"maturity","type":"uint256"},{"internalType":"uint32","name":"maxBorrowRate","type":"uint32"},{"internalType":"uint256","name":"blockTime","type":"uint256"},{"internalType":"bool","name":"useUnderlying","type":"bool"}],"name":"getfCashBorrowFromPrincipal","outputs":[{"internalType":"uint88","name":"fCashDebt","type":"uint88"},{"internalType":"uint8","name":"marketIndex","type":"uint8"},{"internalType":"bytes32","name":"encodedTrade","type":"bytes32"}],"stateMutability":"view","type":"function"},{"inputs":[{"internalType":"uint16","name":"currencyId","type":"uint16"},{"internalType":"uint256","name":"depositAmountExternal","type":"uint256"},{"internalType":"uint256","name":"maturity","type":"uint256"},{"internalType":"uint32","name":"minLendRate","type":"uint32"},{"internalType":"uint256","name":"blockTime","type":"uint256"},{"internalType":"bool","name":"useUnderlying","type":"bool"}],"name":"getfCashLendFromDeposit","outputs":[{"internalType":"uint88","name":"fCashAmount","type":"uint88"},{"internalType":"uint8","name":"marketIndex","type":"uint8"},{"internalType":"bytes32","name":"encodedTrade","type":"bytes32"}],"stateMutability":"view","type":"function"},{"inputs":[{"internalType":"address","name":"account","type":"address"},{"internalType":"uint256","name":"blockTime","type":"uint256"}],"name":"nTokenGetClaimableIncentives","outputs":[{"internalType":"uint256","name":"","type":"uint256"}],"stateMutability":"view","type":"function"},{"inputs":[],"name":"owner","outputs":[{"internalType":"address","name":"","type":"address"}],"stateMutability":"view","type":"function"},{"inputs":[],"name":"pauseGuardian","outputs":[{"internalType":"address","name":"","type":"address"}],"stateMutability":"view","type":"function"},{"inputs":[],"name":"pauseRouter","outputs":[{"internalType":"address","name":"","type":"address"}],"stateMutability":"view","type":"function"}],"bytecode":"608060405234801561001057600080fd5b50614b2a806100206000396000f3fe608060405234801561001057600080fd5b50600436106100f55760003560e01c80638355e89511610097578063bac9e8b111610066578063bac9e8b1146101f8578063c4c96dae1461021a578063c52c43e114610222578063f83a860814610235576100f5565b80638355e895146101b75780638da5cb5b146101ca57806397d6db2e146101d2578063aaae47b5146101e5576100f5565b80635953c77b116100d35780635953c77b1461015c5780636a09a2a31461017c5780636ebbf1741461019c57806382463367146101af576100f5565b8063094614df146100fa57806324a3d62214610124578063416a158714610139575b600080fd5b61010d6101083660046146a5565b610248565b60405161011b92919061488c565b60405180910390f35b61012c610266565b60405161011b9190614849565b61014c61014736600461473c565b610275565b60405161011b9493929190614a83565b61016f61016a366004614828565b610320565b60405161011b9190614ac5565b61018f61018a3660046147e7565b61034c565b60405161011b9190614883565b61018f6101aa36600461466a565b6103b6565b61012c61041e565b61018f6101c53660046146a5565b61042d565b61012c61045e565b61018f6101e036600461461c565b610475565b61014c6101f336600461473c565b6105ad565b61020b610206366004614789565b61063c565b60405161011b93929190614aa1565b61012c6106b8565b61018f6102303660046146ed565b6106d0565b61020b610243366004614789565b610723565b600080610259868686866000610789565b9150915094509492505050565b6002546001600160a01b031681565b6000806000806102858786610320565b915060008260ff161161029757600080fd5b6a7fffffffffffffffffffff88106102ae57600080fd5b60006102c16102bc8a610885565b6108a3565b90506000806102dc8c848760ff168b8d63ffffffff16610789565b915091506102ec8c8260016108b1565b96506102fa8c8360006108b1565b955061030c60018685600a0b8c61096b565b508094505050505095509550955095915050565b6000806000610331600786866109c9565b91509150806103405781610343565b60005b95945050505050565b600061035783610a91565b60006103668461ffff16610ace565b9050600061037d826001600160581b038616610ae1565b90506103876143ea565b6103918187610b17565b600061039e828442610b30565b90506103a981610bd5565b9450505050505b92915050565b600081156103dd5760006103cd8561ffff16610c2c565b90506103d98185610c78565b9350505b60006103fa6103f5866103ef87610ca3565b866108b1565b610885565b90506000841261040a5780610413565b610413816108a3565b9150505b9392505050565b6001546001600160a01b031681565b600061043885610a91565b600061044386610cc4565b90506104528686868685610ce7565b9150505b949350505050565b60005464010000000090046001600160a01b031681565b60008061048184610d7d565b905061048b614433565b600061049683610e24565b1561050c5760608301516104ae908390889086610e31565b60008260400151131561050c5760006104ce836000015161ffff16610ed7565b905060006104dc8288610efd565b5091505060006104fa8584846104f58960400151610f93565b610fa2565b905061050684826110cf565b93505050505b60808301515b6001600160701b03198116156105a35760f081901c613fff1661053784898388610e31565b600084604001511315610590576000610557856000015161ffff16610ed7565b90506000610565828a610efd565b50915050600061057e8784846104f58b60400151610f93565b905061058a86826110cf565b95505050505b5060101b6001600160801b031916610512565b5095945050505050565b6000806000806105bd8786610320565b915060008260ff16116105cf57600080fd5b6a7fffffffffffffffffffff88106105e657600080fd5b60006105f189610885565b905060008061060c8c848760ff168b8d63ffffffff16610789565b9150915061061c8c8260016108b1565b965061062a8c8360006108b1565b955061030c60008685600a0b8c61096b565b600080600061064b8786610320565b915060008260ff161161065d57600080fd5b60008061066b8b8b88611129565b9150915060006106898c61067e856111c9565b8760ff168b86610ce7565b90506000811261069857600080fd5b6106a5600186838c61096b565b9d959c509a509398505050505050505050565b73__MigrateIncentives_____________________90565b6000806106dc87610cc4565b90508215610702576106fb818688876106f68483836111fb565b6112eb565b91506105a3565b6107188587866107138583836111fb565b61138b565b979650505050505050565b60008060006107328786610320565b915060008260ff161161074457600080fd5b6000806107528b8b88611129565b91509150600061076d8c61067e610768866108a3565b6111c9565b90508060001261077c57600080fd5b6106a5600086838c61096b565b60008061079587610a91565b60006107a088610cc4565b90506107aa614483565b6107b882828960008a6113d1565b858160200151116107e45760405162461bcd60e51b81526004016107db906149fd565b60405180910390fd5b602081015186900360006107ff8385600a8d900b858d61144c565b50905086156108615760008a600a0b121561083d57868360a0015111156108385760405162461bcd60e51b81526004016107db906149cd565b610861565b868360a0015110156108615760405162461bcd60e51b81526004016107db906149cd565b604084015181906108729082610c78565b95509550505050505b9550959350505050565b60006001600160ff1b0382111561089b57600080fd5b50805b919050565b60006103b06000198361154f565b6000806000836108cd576108c88661ffff16610ace565b6108da565b6108da8661ffff1661159d565b90508380156108e95750600085125b15610908576109016108fa866108a3565b82906115b0565b915061091d565b61091a61091582876115ed565b610ca3565b91505b60058160600151600581111561092f57fe5b14156109585760006109448761ffff1661159d565b9050610954816000015184611625565b9250505b61096182610f93565b9695505050505050565b600080600061097985610ca3565b90506001600160581b0381111561098f57600080fd5b60788463ffffffff16901b609882901b60f08860ff16901b60f88a60058111156109b557fe5b60ff16901b17171797909650945050505050565b600080600085116109ec5760405162461bcd60e51b81526004016107db9061491f565b6007851115610a0d5760405162461bcd60e51b81526004016107db90614975565b6000610a18846116ab565b905060015b868111610a70576000610a39610a32836116cc565b84906110cf565b905086811415610a515750925060009150610a899050565b86811115610a675750925060019150610a899050565b50600101610a1d565b5060405162461bcd60e51b81526004016107db90614a56565b935093915050565b8061ffff166000108015610aaf575060005461ffff90811690821611155b610acb5760405162461bcd60e51b81526004016107db90614a29565b50565b610ad66144cb565b6103b0826000611770565b60006305f5e10083604001511415610afa5750806103b0565b604083015161041790610b11846305f5e10061154f565b9061181e565b610b21828261184f565b610b2a81610cc4565b90915250565b600080831215610b3f57600080fd5b82610b4c57506000610417565b608084015115610b84576000610b61856118f2565b9050828111610b825760405162461bcd60e51b81526004016107db906148ca565b505b6000610b908584611923565b90506000811215610ba057600080fd5b6040850151610bb25783915050610417565b610bcd81610b1187604001518761154f90919063ffffffff16565b915050610417565b60008082121561089b576040805162461bcd60e51b815260206004820181905260248201527f53616665436173743a2076616c7565206d75737420626520706f736974697665604482015290519081900360640190fd5b610c346144fa565b6000806000610c42856119d4565b604080516060810182526001600160a01b039093168352602083019390935260ff16600a0a918101919091529350505050919050565b6000806104568460400151610b116402540be400610b1187896020015161154f90919063ffffffff16565b600080821215610cbd57610cb6826108a3565b905061089e565b508061089e565b610ccc614524565b6000610cdb8361ffff16610c2c565b90506104178382611a95565b6000610cf1614483565b610cff8382876000886113d1565b83816020015111610d225760405162461bcd60e51b81526004016107db906149fd565b602081015184900360008080610d3a8588868c611ad8565b9250925092506000610d54610d4e89611b7a565b86611b8f565b9050610d6d86604001518c600a0b858786866000611bfa565b9c9b505050505050505050505050565b610d85614550565b6000610d8f611caa565b6001600160a01b039390931660009081526020938452604090819020815160a081018352905464ffffffffff8116825265010000000000810460f81b6001600160f81b03191695820195909552600160301b850460ff1691810191909152600160381b840461ffff166060820152690100000000000000000090930460701b6001600160701b03191660808401525090919050565b6060015161ffff16151590565b8161ffff166000108015610e4b5750613fff61ffff831611155b610e5457600080fd5b61ffff8216808552610e67908290611cb7565b15610e9457610e7a838361ffff16611d41565b61010088015260e087015260408601526020850152610eb2565b6000602085018190526040850181905260e085018190526101008501525b50506000606083018190526080830181905260a0830181905260c09092019190915250565b600080610ee2611ded565b6000938452602052505060409020546001600160a01b031690565b6000806000610f0b85611dfa565b919450925090508084118015610f215750600081115b8015610f2d5750600083115b15610f8c576000610f3d86611e5b565b5050509150506000610f68610f5f6305f5e10084611ec490919063ffffffff16565b84880387611f1d565b9050610f7484826110cf565b93506001600160801b038410610f8957600080fd5b50505b9250925092565b60008082121561089b57600080fd5b60e0840151600090156110635773__MigrateIncentives_____________________63e0c01a7285610fd78860400151610f93565b8860e001518961010001516040518563ffffffff1660e01b8152600401611001949392919061485d565b60206040518083038186803b15801561101957600080fd5b505af415801561102d573d6000803e3d6000fd5b505050506040513d601f19601f820116820180604052508101906110519190614652565b600060e0870181905261010087015290505b6110a561109e866101000151611098670de0b6b3a76400006110928861108c8c60400151610f93565b90611ec4565b90611f3f565b90611fa6565b82906110cf565b90506110bd670de0b6b3a76400006110928486611ec4565b85610100018181525050949350505050565b600082820183811015610417576040805162461bcd60e51b815260206004820152601b60248201527f536166654d6174683a206164646974696f6e206f766572666c6f770000000000604482015290519081900360640190fd5b6000611133614524565b600061113e85610885565b905061114986610cc4565b91506000846111645761115f8761ffff16610ace565b611171565b6111718761ffff1661159d565b905060058160600151600581111561118557fe5b141561119c576111998761ffff1683612003565b91505b6111a68183610ae1565b9350846111bf5760408301516111bc9085610c78565b93505b5050935093915050565b60006a7fffffffffffffffffffff1982128015906111f257506a7fffffffffffffffffffff8213155b61089b57600080fd5b600080600061120f866020015186866109c9565b91509150600061121e8761208a565b9050816112415786516112379061ffff1687838861209e565b9350505050610417565b600061124c866116ab565b9050600061126361125c866116cc565b83906110cf565b9050600061127b8a6000015161ffff1683868b61209e565b905060008087600114156112a0578991506112998c6040015161213d565b90506112cf565b6112b66112af60018a036116cc565b86906110cf565b91506112cc8c6000015161ffff1683888d61209e565b90505b6112dc828583868f6121ce565b98505050505050505050610417565b6000846112fa57506000610343565b60006113068585611fa6565b90506000808713156113355761132e826113296113228b61222c565b87906110cf565b612241565b9050611364565b6000611340896122a9565b905084811061135457879350505050610343565b61136083828703612241565b9150505b633b9aca0081131561137557600080fd5b61137f87826122be565b98975050505050505050565b60008461139a57506000610456565b60006113a68585611fa6565b905060006113b48285612241565b9050633b9aca008113156113c757600080fd5b61071887826122be565b826001111580156113e6575084602001518311155b6114025760405162461bcd60e51b81526004016107db906149a5565b600061141f611410856116cc565b611419846116ab565b906110cf565b9050611444866000015161ffff168284866114398b61208a565b8a94939291906122d7565b505050505050565b600080848760400151136114655750600090508061087b565b60008060006114768a8a8989611ad8565b9250925092506000806114908c604001518587868e612301565b9092509050806114ab5760008096509650505050505061087b565b5060008060006114bd8d858e8e6123a7565b92509250925082600014156114df57600080985098505050505050505061087b565b60408e01516114ee908d612492565b60408f0181905261150b9061150388856124ae565b89888f6124c4565b60a08f0181905261152957600080985098505050505050505061087b565b61153a8e8e60400151858585612571565b98509850505050505050509550959350505050565b81810260001983141561157f5781158061157157508282828161156e57fe5b05145b61157a57600080fd5b6103b0565b82158061159457508183828161159157fe5b05145b6103b057600080fd5b6115a56144cb565b6103b0826001611770565b60006305f5e100836040015112156115de576115d760016115d185856115ed565b906124ae565b90506103b0565b610417836115ed8460016124ae565b60006305f5e100836040015114156116065750806103b0565b6104176305f5e100610b1185604001518561154f90919063ffffffff16565b600081611634575060006103b0565b600061163f846125c6565b9050600061164c84610ca3565b9050816b019d971e4fe8401e74000001600160ff1b038161166957fe5b0581131561167657600080fd5b6b033b2e3c9fd0803ce80000006b019d971e4fe8401e74000000838302010560008513610343576116a6816108a3565b610961565b60006276a7008210156116bd57600080fd5b6276a700825b06909103919050565b600081600114156116e157506276a70061089e565b81600214156116f4575062ed4e0061089e565b816003141561170857506301da9c0061089e565b816004141561171c57506303b5380061089e565b816005141561173057506309450c0061089e565b8160061415611744575063128a180061089e565b81600714156117585750632514300061089e565b60405162461bcd60e51b81526004016107db9061494e565b6117786144cb565b6000611782612651565b6000858152602082815260408083208715158452825291829020825160a08101845281546001600160a01b038116825260ff600160a01b82048116151594830194909452600160b01b81048416600a0a9482019490945293945092916060830191600160a81b9091041660058111156117f757fe5b81529154600160b81b900468ffffffffffffffffff16602090920191909152949350505050565b6000816000191480156118345750600160ff1b83145b1561183e57600080fd5b81838161184757fe5b059392505050565b61185c8161ffff16610ed7565b6001600160a01b031660c083018190526000908190819061187c90611e5b565b945094509450505060006118938660c00151611dfa565b505060808701859052604087018190526001600160d81b0319831660a088015260c08701519091506118c79084600061265e565b602087015260c08601516118df9061ffff8716611d41565b5050506060909601959095525050505050565b60008160800151600014156119095750600061089e565b60808201516276a7009061191c906116ab565b0192915050565b600080600080611932866118f2565b9050848111611942576001810394505b50600061194f86866126f1565b509050600061197d8760c0015188600001516000015161ffff168960800151898b6000015160200151612846565b9050600081156119af5760c08801518851805160808b01516119ab939261ffff909216918b906000886128f2565b5090505b606088015188516040015161137f91906115d1906119cd9085612970565b86906124ae565b60008060008060006119e5866129a1565b909250905060006001600160a01b038316611a0a5750600090506402540be400611a8a565b826001600160a01b031663b2fffb046040518163ffffffff1660e01b815260040160206040518083038186803b158015611a4357600080fd5b505afa158015611a57573d6000803e3d6000fd5b505050506040513d601f19601f82011682018060405250810190611a7b9190614652565b905060008113611a8a57600080fd5b969195509350915050565b611a9d614524565b6000611aac8461ffff166129d8565b6040805160808101825261ffff96909616865260ff821660208701528501939093525050606082015290565b6000808080611ae88786886129f5565b90506000611b0789606001518960400151610c7890919063ffffffff16565b9050886040015160001480611b1a575080155b15611b315760008060009450945094505050611b70565b600080611b498b604001518c60a0015185878d612a5d565b909250905080611b6757600080600096509650965050505050611b70565b50919450925090505b9450945094915050565b60600151620186a060109190911c60ff160290565b600080611bac611ba76301da9c006110928787611ec4565b612aed565b90506000611bc082621dcd6560491b612b0b565b90506000611bcd82612b5e565b90506000611be182621dcd6560491b612bb3565b9050611bec81612be9565b60070b979650505050505050565b600080821215611c0957600080fd5b6000611c186102bc89876122be565b905060005b60fa8160ff161015611c9157600080611c398c8b8b8b88612301565b9150915080611c4757600080fd5b6000611c588c8e8d8d89888e612bf2565b905086611c6482610ca3565b13611c76578495505050505050610718565b611c808582612ce1565b94505060019092019150611c1d9050565b5060405162461bcd60e51b81526004016107db906148f7565b6000806103b06001612cf7565b60008115801590611cca5750613fff8211155b611cd357600080fd5b6080830151606084015161ffff16831415611cf25760019150506103b0565b6001600160701b0319811615611d375760f081901c613fff1683811415611d245750600160fe1b9081161490506103b0565b5060101b6001600160801b031916611cf2565b5060009392505050565b6000806000806000611d51612d09565b6001600160a01b0388166000908152602082815260408083208a84529091529020805469ffffffffffffffffffff81169650600160501b900463ffffffff1694509091508315611dbd578054611db690600160701b900466ffffffffffffff16612d16565b9250611dd2565b8054600160701b900466ffffffffffffff1692505b54600160a81b9004600a90810b900b97939650919450925050565b6000806103b06003612cf7565b600080600080611e08612d24565b6001600160a01b0395909516600090815260209590955250506040909220546bffffffffffffffffffffffff811693600160601b82046001600160801b03169350600160e01b90910463ffffffff169150565b600080600080600080611e6c612d31565b6001600160a01b039097166000908152602097909752505060409094205461ffff81169563ffffffff62010000830481169650600160301b830416945060ff600160501b8304169350600160581b90910460d81b9150565b600082611ed3575060006103b0565b82820282848281611ee057fe5b04146104175760405162461bcd60e51b8152600401808060200182810382526021815260200180614ad46021913960400191505060405180910390fd5b6000610456826110926301da9c00818861108c89670de0b6b3a7640000611ec4565b6000808211611f95576040805162461bcd60e51b815260206004820152601a60248201527f536166654d6174683a206469766973696f6e206279207a65726f000000000000604482015290519081900360640190fd5b818381611f9e57fe5b049392505050565b600082821115611ffd576040805162461bcd60e51b815260206004820152601e60248201527f536166654d6174683a207375627472616374696f6e206f766572666c6f770000604482015290519081900360640190fd5b50900390565b600081612012575060006103b0565b6000821361201f57600080fd5b600061202a8461159d565b9050600061203b82600001516125c6565b9050600281056b033b2e3c9fd0803ce80000006001600160ff1b038290030585131561206657600080fd5b81816b033b2e3c9fd0803ce80000008702018161207f57fe5b059695505050505050565b6060015161012c60089190911c60ff160290565b6000806120a9612d3e565b905060006276a7006120ba856116ab565b6000898152602085815260408083208b84528252808320949093018083529390522080549192509063ffffffff600160a01b8204811691600160c01b8104821691600160e01b90910416816121215760405162461bcd60e51b81526004016107db9061489a565b61212e8184848c8c612d4b565b9b9a5050505050505050505050565b80516000906001600160a01b03166121575750600061089e565b600082600001516001600160a01b031663dd30a6666040518163ffffffff1660e01b815260040160206040518083038186803b15801561219657600080fd5b505afa1580156121aa573d6000803e3d6000fd5b505050506040513d601f19601f820116820180604052508101906104179190614652565b60008186106121dc57600080fd5b8482106121e857600080fd5b83831061220e57612207846114198888036110928388038b8803611ec4565b9050610343565b6122076122258787036110928688038a8703611ec4565b8590611fa6565b606001516207a12060289190911c60ff160290565b600080612259611ba76301da9c006110928688611ec4565b905061226b81621dcd6560491b612b0b565b905061227e61227982612dde565b612b5e565b905061229081621dcd6560491b612bb3565b9050600061229d82612be9565b60070b95945050505050565b606001516207a12060209190911c60ff160290565b60006104176122cd848461154f565b633b9aca0061181e565b60006276a7006122e6856116ab565b0190506122f887878787878787612e00565b50505050505050565b6000808061230f8885612492565b905060006123276123208a8a6124ae565b8390612e37565b9050633b0233808113156123435760008093509350505061087b565b60008061234f83612e50565b915091508061236857600080955095505050505061087b565b6000612378896115d1858d612e37565b9050633b9aca008112156123975760008096509650505050505061087b565b95506001945061087b9350505050565b60008080806123b96102bc8789612e37565b905060006123cf6123c98a611b7a565b87611b8f565b905060008713156124275760006123e68983612e37565b9050633b9aca00811215612407576000806000955095509550505050611b70565b61241f612418633b9aca0084612ce1565b84906122be565b915050612449565b6124466102bc82610b1161243f633b9aca0083612ce1565b869061154f565b90505b60006124636064610b1161245c8d612ef2565b859061154f565b905061246f8383612ce1565b6124806102bc836115d18787612ce1565b909b909a509098509650505050505050565b600061249e8383612ce1565b905060008112156103b057600080fd5b818101828112156000831215146103b057600080fd5b60008060006124d7888888886000612301565b91509150806124eb57600092505050610343565b60006124f683612eff565b9050600061250a82621dcd6560491b612b0b565b9050600061251782612f2b565b9050600061253361252e83621dcd6560491b612bb3565b612f65565b67ffffffffffffffff169050600061255389611092846301da9c00611ec4565b905063ffffffff811115610d6d576000975050505050505050610343565b6000808061257f8786612970565b606089015190915061259190826124ae565b60608901524260e089015260006125a88886612970565b905060006125b68989612970565b9a91995090975050505050505050565b60006103b06125d3612f81565b5460405163d15e005360e01b81526001600160a01b039091169063d15e005390612601908690600401614849565b60206040518083038186803b15801561261957600080fd5b505afa15801561262d573d6000803e3d6000fd5b505050506040513d601f19601f820116820180604052508101906103f59190614652565b6000806103b06007612cf7565b61266661457e565b61266e61457e565b60ff841661267d579050610417565b6126878585612f8e565b815260ff841660608201528267ffffffffffffffff811180156126a957600080fd5b506040519080825280602002602001820160405280156126e357816020015b6126d06145a6565b8152602001906001900390816126c85790505b506020820152949350505050565b602082015151516000906060908067ffffffffffffffff8111801561271557600080fd5b5060405190808252806020026020018201604052801561273f578160200160208202803683370190505b50915061274a614483565b60005b8281101561283c57865161276890836001808501908a6113d1565b6000876020015160000151828151811061277e57fe5b6020026020010151905060008160200151905060008061279e8487612fb7565b915091506127c76127c08c60c001518d600001516000015161ffff1686613032565b82906124ae565b8886815181106127d357fe5b602002602001018181525050600061281d61281661280a8b89815181106127f657fe5b6020026020010151878f8c60c0015161138b565b8e516040015190612970565b84906124ae565b90506128298a826124ae565b9950506001909401935061274d92505050565b5050509250929050565b60006002821161285857506000610343565b60006128648787613077565b905080612872579050610343565b600061287d856116ab565b9050858114156128a757507440008000000200200000000200000020000000002019169050610343565b60015b8481116128e75760006128bc826116cc565b8301905060006128cc89836130ac565b5090506128db858260006131b7565b945050506001016128aa565b508192505050610343565b600080600061290084613202565b90505b80156129635760006129158983613227565b905060006129278c8c848c8c8c6132da565b905061293385826124ae565b9450600081121561294357600193505b61294f868460006131b7565b955061295a86613202565b92505050612903565b5097509795505050505050565b6000806104568460200151610b11866040015161299b6402540be4008861154f90919063ffffffff16565b9061154f565b60008060006129ae61332f565b600094855260205250506040909120546001600160a01b03811692600160a01b90910460ff169150565b6000806129e361333c565b60009384526020525050604090205490565b600082600111158015612a0c575083602001518311155b612a1557600080fd5b606084015160806008600019860102019060ff90821c16633b9aca00026000612a4e612a4086610885565b610b11846301da9c0061154f565b90506000811361096157600080fd5b6000806000612a6c8785611b8f565b9050633b9aca00811215612a8757600080925092505061087b565b600080612a9e612a978b8a6124ae565b8b90612e37565b9050600080612aac83612e50565b9150915080612ac65760008096509650505050505061087b565b612ada612ad3838b612e37565b8690612ce1565b9c60019c509a5050505050505050505050565b6000677fffffffffffffff821115612b0457600080fd5b5060401b90565b600081600f0b60001415612b1e57600080fd5b600082600f0b604085600f0b901b81612b3357fe5b05905060016001607f1b03198112801590612b55575060016001607f1b038113155b61041757600080fd5b6000600160461b82600f0b12612b7357600080fd5b683fffffffffffffffff1982600f0b1215612b905750600061089e565b6103b0608083600f0b700171547652b82fe1777d0ffda0d23a7d1202901d613349565b6000600f83810b9083900b0260401d60016001607f1b03198112801590612b55575060016001607f1b0381131561041757600080fd5b600f0b60401d90565b60008080612c17612c10612c068a896124ae565b61299b8c8a612ce1565b88906122be565b90506000861315612c6457612c2c8585612e37565b9450633b9aca00851215612c3f57600080fd5b612c5d84612c57612c508c8c6124ae565b8d9061154f565b90612e37565b9150612c9b565b612c6e85856122be565b9450633b9aca00851215612c8157600080fd5b612c98612c9161243f8b8b6124ae565b8b906122be565b91505b612cb3612ca8838361181e565b6305f5e10090612ce1565b91506000612cc18b876122be565b9050612ccd81886124ae565b905061212e83610b11836305f5e10061154f565b808203828113156000831215146103b057600080fd5b6000620f424082601381111561191c57fe5b6000806103b06006612cf7565b600881901c60ff9091161b90565b6000806103b06011612cf7565b6000806103b06002612cf7565b6000806103b0600a612cf7565b6000808311612d5957600080fd5b81861115612d68575083610343565b6000612d748388611fa6565b905083811115612d875785915050610343565b6000612d9b8561109284633b9aca00611ec4565b90506000612dad633b9aca0083611fa6565b90506000612dd0633b9aca00611092612dc68b86611ec4565b6114198d88611ec4565b9a9950505050505050505050565b6000600f82900b60016001607f1b03191415612df957600080fd5b5060000390565b612e0d8787878685613df7565b612e268760e001518860a001518960c001518588612d4b565b60c090970196909652505050505050565b6000610417612e4a84633b9aca0061154f565b8361181e565b600080633b9aca00831415612e6a57506000905080612eed565b6000612e84612e7d633b9aca0086612ce1565b8590612e37565b90506000612e9182612eff565b9050600081600f0b13612eac57600080935093505050612eed565b6000612ee0612edb612ecf612ec085612f2b565b6814b927f32bffb83338613eb8565b621dcd6560491b612bb3565b612be9565b60070b9450600193505050505b915091565b6060015160181c60ff1690565b6000677fffffffffffffff198212158015612f225750677fffffffffffffff8213155b612b0457600080fd5b60008082600f0b13612f3c57600080fd5b6080612f4783613eeb565b600f0b6fb17217f7d1cf79abc9e3b39803f2f6af02901c9050919050565b60008082600f0b1215612f7757600080fd5b50600f0b60401d90565b6000806103b06013612cf7565b60606000612f9c8484613fc6565b90506001815111612fae5790506103b0565b610417816140de565b600080612fc7846040015161429d565b8015612fd857506000846060015112155b612fe157600080fd5b6130048360800151610b118660600151866060015161154f90919063ffffffff16565b91506130298360800151610b118660600151866040015161154f90919063ffffffff16565b90509250929050565b60008061303d6142b3565b6001600160a01b03861660009081526020918252604080822087835283528082208683529092522054600f90810b900b9150509392505050565b6000806130826142c0565b6001600160a01b038516600090815260209182526040808220868352909252205491505092915050565b60008060006130ba856142cd565b9050620151808406156130d45760008092509250506131b0565b8381106130e85760008092509250506131b0565b6201518081850304605a8111613105579250600191506131b09050565b6101688111613144576000620151806207e900840604820160591901905060068104605a016006828161313457fe5b06600014945094505050506131b0565b61087081116131745760006201518062278d00840604820161016719019050601e8104608701601e828161313457fe5b611de281116131a4576000620151806276a700840604820161086f19019050605a810460c301605a828161313457fe5b61010060009350935050505b9250929050565b6000600183101580156131cc57506101008311155b6131d557600080fd5b81156131ee5750600160ff1b60001983011c8317610417565b50600160ff1b60001983011c198316610417565b6000816132115750600061089e565b61321a826142e9565b60ff036001019050919050565b60008161323357600080fd5b61010082111561324257600080fd5b600061324d846142cd565b90506000605a841161326857506201518083020190506103b0565b60878411613290575060591983016207e900908102908206909103016276a7000190506103b0565b60c384116132b95750608619830162278d00908102908206909103016301da9c000190506103b0565b5060c21983016276a70090810290820690910301630b1fa8000190506103b0565b6000806132e8888888613032565b90508486116132f8579050610961565b60006133058588886111fb565b905083156133235761331a85838989856112eb565b92505050610961565b61331a8288888461138b565b6000806103b0600f612cf7565b6000806103b06009612cf7565b6000600160461b82600f0b1261335e57600080fd5b683fffffffffffffffff1982600f0b121561337b5750600061089e565b6001607f1b60006001603f1b8416600f0b13156133a95770016a09e667f3bcc908b2fb1366ea957d3e0260801c5b60008367400000000000000016600f0b13156133d6577001306fe0a31b7152de8d5a46305c85edec0260801c5b60008367200000000000000016600f0b1315613403577001172b83c7d517adcdf7c8c50eb14a791f0260801c5b60008367100000000000000016600f0b13156134305770010b5586cf9890f6298b92b71842a983630260801c5b60008367080000000000000016600f0b131561345d577001059b0d31585743ae7c548eb68ca417fd0260801c5b60008367040000000000000016600f0b131561348a57700102c9a3e778060ee6f7caca4f7a29bde80260801c5b60008367020000000000000016600f0b13156134b75770010163da9fb33356d84a66ae336dcdfa3f0260801c5b600083600160381b16600f0b13156134e057700100b1afa5abcbed6129ab13ec11dc95430260801c5b600083668000000000000016600f0b131561350c5770010058c86da1c09ea1ff19d294cf2f679b0260801c5b600083664000000000000016600f0b1315613538577001002c605e2e8cec506d21bfc89a23a00f0260801c5b600083662000000000000016600f0b131561356457700100162f3904051fa128bca9c55c31e5df0260801c5b600083661000000000000016600f0b1315613590577001000b175effdc76ba38e31671ca9397250260801c5b600083660800000000000016600f0b13156135bc57700100058ba01fb9f96d6cacd4b180917c3d0260801c5b600083660400000000000016600f0b13156135e85770010002c5cc37da9491d0985c348c68e7b30260801c5b600083660200000000000016600f0b1315613614577001000162e525ee054754457d59952920260260801c5b600083600160301b16600f0b131561363d5770010000b17255775c040618bf4a4ade83fc0260801c5b6000836580000000000016600f0b1315613668577001000058b91b5bc9ae2eed81e9b7d4cfab0260801c5b6000836540000000000016600f0b131561369357700100002c5c89d5ec6ca4d7c8acc017b7c90260801c5b6000836520000000000016600f0b13156136be5770010000162e43f4f831060e02d839a9d16d0260801c5b6000836510000000000016600f0b13156136e957700100000b1721bcfc99d9f890ea069117630260801c5b6000836508000000000016600f0b13156137145770010000058b90cf1e6d97f9ca14dbcc16280260801c5b6000836504000000000016600f0b131561373f577001000002c5c863b73f016468f6bac5ca2b0260801c5b6000836502000000000016600f0b131561376a57700100000162e430e5a18f6119e3c02282a50260801c5b6000836501000000000016600f0b1315613795577001000000b1721835514b86e6d96efd1bfe0260801c5b60008364800000000016600f0b13156137bf57700100000058b90c0b48c6be5df846c5b2ef0260801c5b60008364400000000016600f0b13156137e95770010000002c5c8601cc6b9e94213c72737a0260801c5b60008364200000000016600f0b1315613813577001000000162e42fff037df38aa2b219f060260801c5b60008364100000000016600f0b131561383d5770010000000b17217fba9c739aa5819f44f90260801c5b60008364080000000016600f0b1315613867577001000000058b90bfcdee5acd3c1cedc8230260801c5b60008364040000000016600f0b131561389157700100000002c5c85fe31f35a6a30da1be500260801c5b60008364020000000016600f0b13156138bb5770010000000162e42ff0999ce3541b9fffcf0260801c5b60008364010000000016600f0b13156138e557700100000000b17217f80f4ef5aadda455540260801c5b600083638000000016600f0b131561390e5770010000000058b90bfbf8479bd5a81b51ad0260801c5b600083634000000016600f0b1315613937577001000000002c5c85fdf84bd62ae30a74cc0260801c5b600083632000000016600f0b131561396057700100000000162e42fefb2fed257559bdaa0260801c5b600083631000000016600f0b1315613989577001000000000b17217f7d5a7716bba4a9ae0260801c5b600083630800000016600f0b13156139b257700100000000058b90bfbe9ddbac5e109cce0260801c5b600083630400000016600f0b13156139db5770010000000002c5c85fdf4b15de6f17eb0d0260801c5b600083630200000016600f0b1315613a04577001000000000162e42fefa494f1478fde050260801c5b600083630100000016600f0b1315613a2d5770010000000000b17217f7d20cf927c8e94c0260801c5b6000836280000016600f0b1315613a55577001000000000058b90bfbe8f71cb4e4b33d0260801c5b6000836240000016600f0b1315613a7d57700100000000002c5c85fdf477b662b269450260801c5b6000836220000016600f0b1315613aa55770010000000000162e42fefa3ae53369388c0260801c5b6000836210000016600f0b1315613acd57700100000000000b17217f7d1d351a389d400260801c5b6000836208000016600f0b1315613af55770010000000000058b90bfbe8e8b2d3d4ede0260801c5b6000836204000016600f0b1315613b1d577001000000000002c5c85fdf4741bea6e77e0260801c5b6000836202000016600f0b1315613b4557700100000000000162e42fefa39fe95583c20260801c5b6000836201000016600f0b1315613b6d577001000000000000b17217f7d1cfb72b45e10260801c5b60008361800016600f0b1315613b9457700100000000000058b90bfbe8e7cc35c3f00260801c5b60008361400016600f0b1315613bbb5770010000000000002c5c85fdf473e242ea380260801c5b60008361200016600f0b1315613be2577001000000000000162e42fefa39f02b772c0260801c5b60008361100016600f0b1315613c095770010000000000000b17217f7d1cf7d83c1a0260801c5b60008361080016600f0b1315613c30577001000000000000058b90bfbe8e7bdcbe2e0260801c5b60008361040016600f0b1315613c5757700100000000000002c5c85fdf473dea871f0260801c5b60008361020016600f0b1315613c7e5770010000000000000162e42fefa39ef44d910260801c5b60008361010016600f0b1315613ca557700100000000000000b17217f7d1cf79e9490260801c5b600083608016600f0b1315613ccb5770010000000000000058b90bfbe8e7bce5440260801c5b600083604016600f0b1315613cf1577001000000000000002c5c85fdf473de6eca0260801c5b600083602016600f0b1315613d1757700100000000000000162e42fefa39ef366f0260801c5b600083601016600f0b1315613d3d577001000000000000000b17217f7d1cf79afa0260801c5b600083600816600f0b1315613d6357700100000000000000058b90bfbe8e7bcd6d0260801c5b600083600416600f0b1315613d895770010000000000000002c5c85fdf473de6b20260801c5b600083600216600f0b1315613daf577001000000000000000162e42fefa39ef3580260801c5b600083600116600f0b1315613dd55770010000000000000000b17217f7d1cf79ab0260801c5b600f83810b60401d603f03900b1c60016001607f1b038111156103b057600080fd5b6000613e01612d3e565b6000868152602082815260408083208884528252808320868452825291829020808a52908901879052805469ffffffffffffffffffff808216938b0193909352600160501b810490921660608a015263ffffffff600160a01b8304811660a08b0152600160c01b8304811660c08b0152600160e01b90920490911660e0890152909150808415613ea657600182015469ffffffffffffffffffff166080890152613eae565b600060808901525b5050505050505050565b6000600f82810b9084900b0360016001607f1b03198112801590612b55575060016001607f1b0381131561041757600080fd5b60008082600f0b13613efc57600080fd5b6000600f83900b600160401b8112613f16576040918201911d5b6401000000008112613f2a576020918201911d5b620100008112613f3c576010918201911d5b6101008112613f4d576008918201911d5b60108112613f5d576004918201911d5b60048112613f6d576002918201911d5b60028112613f7c576001820191505b603f19820160401b600f85900b607f8490031b6001603f1b5b6000811315613fbb5790800260ff81901c8281029390930192607f011c9060011d613f95565b509095945050505050565b606060108260ff161115613fd957600080fd5b6000613fe3614382565b6001600160a01b038516600090815260208290526040812091925060ff851667ffffffffffffffff8111801561401857600080fd5b5060405190808252806020026020018201604052801561405257816020015b61403f6145a6565b8152602001906001900390816140375790505b50905060005b8560ff168110156105a357600083826010811061407157fe5b019050600083838151811061408257fe5b602090810291909101810151835461ffff8116825264ffffffffff620100008204169282019290925260ff600160381b8304166040820152600160401b909104600a90810b900b60608201526080019190915250600101614058565b805160008167ffffffffffffffff811180156140f957600080fd5b50604051908082528060200260200182016040528015614123578160200160208202803683370190505b50905060005b8281101561418057600084828151811061413f57fe5b6020026020010151905061416081600001518260200151836040015161438f565b83838151811061416c57fe5b602090810291909101015250600101614129565b5060015b8281101561429757805b6000811180156141c657508281815181106141a557fe5b60200260200101518360018303815181106141bc57fe5b6020026020010151115b1561428e578281815181106141d757fe5b60200260200101518360018303815181106141ee57fe5b602002602001015184600184038151811061420557fe5b6020026020010185848151811061421857fe5b602002602001018281525082815250505084818151811061423557fe5b602002602001015185600183038151811061424c57fe5b602002602001015186600184038151811061426357fe5b6020026020010187848151811061427657fe5b6020908102919091010191909152526000190161418e565b50600101614184565b50505050565b6000600282108015906103b05750506008101590565b6000806103b0600c612cf7565b6000806103b0600b612cf7565b6000620151808210156142df57600080fd5b62015180826116c3565b6000816142f557600080fd5b600160801b821061430857608091821c91015b600160401b821061431b57604091821c91015b640100000000821061432f57602091821c91015b62010000821061434157601091821c91015b610100821061435257600891821c91015b6010821061436257600491821c91015b6004821061437257600291821c91015b6002821061089e57600101919050565b6000806103b0600d612cf7565b6000613fff8411156143a057600080fd5b64ffffffffff8311156143b257600080fd5b60088211156143c057600080fd5b5067ffff000000000000603084901b1665ffffffffff00600884901b161760ff8216179392505050565b6040518060e001604052806143fd614524565b815260200161440a61457e565b815260006020820181905260408201819052606082018190526080820181905260a09091015290565b604051806101200160405280600061ffff16815260200160008152602001600081526020016000815260200160008152602001600081526020016000815260200160008152602001600081525090565b60405180610100016040528060008019168152602001600081526020016000815260200160008152602001600081526020016000815260200160008152602001600081525090565b6040805160a0810182526000808252602082018190529181018290529060608201908152602001600081525090565b604051806060016040528060006001600160a01b0316815260200160008152602001600081525090565b60408051608081018252600080825260208201529081016145436144fa565b8152600060209091015290565b6040805160a08101825260008082526020820181905291810182905260608101829052608081019190915290565b6040518060800160405280606081526020016060815260200160008152602001600081525090565b6040518060c001604052806000815260200160008152602001600081526020016000815260200160008152602001600060038111156145e157fe5b905290565b8035801515811461089e57600080fd5b803561ffff8116811461089e57600080fd5b803563ffffffff8116811461089e57600080fd5b6000806040838503121561462e578182fd5b82356001600160a01b0381168114614644578283fd5b946020939093013593505050565b600060208284031215614663578081fd5b5051919050565b60008060006060848603121561467e578081fd5b614687846145f6565b92506020840135915061469c604085016145e6565b90509250925092565b600080600080608085870312156146ba578081fd5b6146c3856145f6565b9350602085013580600a0b81146146d8578182fd5b93969395505050506040820135916060013590565b600080600080600060a08688031215614704578081fd5b61470d866145f6565b9450602086013593506040860135925060608601359150614730608087016145e6565b90509295509295909350565b600080600080600060a08688031215614753578081fd5b61475c866145f6565b9450602086013593506040860135925061477860608701614608565b949793965091946080013592915050565b60008060008060008060c087890312156147a1578081fd5b6147aa876145f6565b955060208701359450604087013593506147c660608801614608565b9250608087013591506147db60a088016145e6565b90509295509295509295565b600080604083850312156147f9578182fd5b614802836145f6565b915060208301356001600160581b038116811461481d578182fd5b809150509250929050565b6000806040838503121561483a578182fd5b50508035926020909101359150565b6001600160a01b0391909116815260200190565b6001600160a01b0394909416845260208401929092526040830152606082015260800190565b90815260200190565b918252602082015260400190565b60208082526016908201527513585c9ad95d081b9bdd081a5b9a5d1a585b1a5e995960521b604082015260600190565b60208082526013908201527214995c5d5a5c995cc81cd95d1d1b195b595b9d606a1b604082015260600190565b6020808252600e908201526d4e6f20636f6e76657267656e636560901b604082015260600190565b60208082526015908201527410d1ce881b9bc81b585c9ad95d1cc81b1a5cdd1959605a1b604082015260600190565b6020808252600d908201526c092dcecc2d8d2c840d2dcc8caf609b1b604082015260600190565b60208082526016908201527510d1ce881b585c9ad95d081a5b99195e08189bdd5b9960521b604082015260600190565b6020808252600e908201526d125b9d985b1a59081b585c9ad95d60921b604082015260600190565b6020808252601690820152755472616465206661696c65642c20736c69707061676560501b604082015260600190565b602080825260129082015271496e76616c696420626c6f636b2074696d6560701b604082015260600190565b602080825260139082015272125b9d985b1a590818dd5c9c995b98de481a59606a1b604082015260600190565b60208082526013908201527210d1ce881b9bc81b585c9ad95d08199bdd5b99606a1b604082015260600190565b938452602084019290925260ff166040830152606082015260800190565b6001600160581b0393909316835260ff919091166020830152604082015260600190565b60ff9190911681526020019056fe536166654d6174683a206d756c7469706c69636174696f6e206f766572666c6f77a264697066735822122050ce17b44ed5206436eefa2985926a2ca4ad980208b678145ddcf37c9072ef3a64736f6c63430007060033","bytecodeSha1":"8148dadd925417feec9a787ae9076142d7fd2897","compiler":{"evm_version":"istanbul","optimizer":{"enabled":true,"runs":200},"version":"0.7.6+commit.7338295f"},"contractName":"CalculationViews","deployedBytecode":"608060405234801561001057600080fd5b50600436106100f55760003560e01c80638355e89511610097578063bac9e8b111610066578063bac9e8b1146101f8578063c4c96dae1461021a578063c52c43e114610222578063f83a860814610235576100f5565b80638355e895146101b75780638da5cb5b146101ca57806397d6db2e146101d2578063aaae47b5146101e5576100f5565b80635953c77b116100d35780635953c77b1461015c5780636a09a2a31461017c5780636ebbf1741461019c57806382463367146101af576100f5565b8063094614df146100fa57806324a3d62214610124578063416a158714610139575b600080fd5b61010d6101083660046146a5565b610248565b60405161011b92919061488c565b60405180910390f35b61012c610266565b60405161011b9190614849565b61014c61014736600461473c565b610275565b60405161011b9493929190614a83565b61016f61016a366004614828565b610320565b60405161011b9190614ac5565b61018f61018a3660046147e7565b61034c565b60405161011b9190614883565b61018f6101aa36600461466a565b6103b6565b61012c61041e565b61018f6101c53660046146a5565b61042d565b61012c61045e565b61018f6101e036600461461c565b610475565b61014c6101f336600461473c565b6105ad565b61020b610206366004614789565b61063c565b60405161011b93929190614aa1565b61012c6106b8565b61018f6102303660046146ed565b6106d0565b61020b610243366004614789565b610723565b600080610259868686866000610789565b9150915094509492505050565b6002546001600160a01b031681565b6000806000806102858786610320565b915060008260ff161161029757600080fd5b6a7fffffffffffffffffffff88106102ae57600080fd5b60006102c16102bc8a610885565b6108a3565b90506000806102dc8c848760ff168b8d63ffffffff16610789565b915091506102ec8c8260016108b1565b96506102fa8c8360006108b1565b955061030c60018685600a0b8c61096b565b508094505050505095509550955095915050565b6000806000610331600786866109c9565b91509150806103405781610343565b60005b95945050505050565b600061035783610a91565b60006103668461ffff16610ace565b9050600061037d826001600160581b038616610ae1565b90506103876143ea565b6103918187610b17565b600061039e828442610b30565b90506103a981610bd5565b9450505050505b92915050565b600081156103dd5760006103cd8561ffff16610c2c565b90506103d98185610c78565b9350505b60006103fa6103f5866103ef87610ca3565b866108b1565b610885565b90506000841261040a5780610413565b610413816108a3565b9150505b9392505050565b6001546001600160a01b031681565b600061043885610a91565b600061044386610cc4565b90506104528686868685610ce7565b9150505b949350505050565b60005464010000000090046001600160a01b031681565b60008061048184610d7d565b905061048b614433565b600061049683610e24565b1561050c5760608301516104ae908390889086610e31565b60008260400151131561050c5760006104ce836000015161ffff16610ed7565b905060006104dc8288610efd565b5091505060006104fa8584846104f58960400151610f93565b610fa2565b905061050684826110cf565b93505050505b60808301515b6001600160701b03198116156105a35760f081901c613fff1661053784898388610e31565b600084604001511315610590576000610557856000015161ffff16610ed7565b90506000610565828a610efd565b50915050600061057e8784846104f58b60400151610f93565b905061058a86826110cf565b95505050505b5060101b6001600160801b031916610512565b5095945050505050565b6000806000806105bd8786610320565b915060008260ff16116105cf57600080fd5b6a7fffffffffffffffffffff88106105e657600080fd5b60006105f189610885565b905060008061060c8c848760ff168b8d63ffffffff16610789565b9150915061061c8c8260016108b1565b965061062a8c8360006108b1565b955061030c60008685600a0b8c61096b565b600080600061064b8786610320565b915060008260ff161161065d57600080fd5b60008061066b8b8b88611129565b9150915060006106898c61067e856111c9565b8760ff168b86610ce7565b90506000811261069857600080fd5b6106a5600186838c61096b565b9d959c509a509398505050505050505050565b73__$b21a4dc043b77aa57922ad9143a3cb040e$__90565b6000806106dc87610cc4565b90508215610702576106fb818688876106f68483836111fb565b6112eb565b91506105a3565b6107188587866107138583836111fb565b61138b565b979650505050505050565b60008060006107328786610320565b915060008260ff161161074457600080fd5b6000806107528b8b88611129565b91509150600061076d8c61067e610768866108a3565b6111c9565b90508060001261077c57600080fd5b6106a5600086838c61096b565b60008061079587610a91565b60006107a088610cc4565b90506107aa614483565b6107b882828960008a6113d1565b858160200151116107e45760405162461bcd60e51b81526004016107db906149fd565b60405180910390fd5b602081015186900360006107ff8385600a8d900b858d61144c565b50905086156108615760008a600a0b121561083d57868360a0015111156108385760405162461bcd60e51b81526004016107db906149cd565b610861565b868360a0015110156108615760405162461bcd60e51b81526004016107db906149cd565b604084015181906108729082610c78565b95509550505050505b9550959350505050565b60006001600160ff1b0382111561089b57600080fd5b50805b919050565b60006103b06000198361154f565b6000806000836108cd576108c88661ffff16610ace565b6108da565b6108da8661ffff1661159d565b90508380156108e95750600085125b15610908576109016108fa866108a3565b82906115b0565b915061091d565b61091a61091582876115ed565b610ca3565b91505b60058160600151600581111561092f57fe5b14156109585760006109448761ffff1661159d565b9050610954816000015184611625565b9250505b61096182610f93565b9695505050505050565b600080600061097985610ca3565b90506001600160581b0381111561098f57600080fd5b60788463ffffffff16901b609882901b60f08860ff16901b60f88a60058111156109b557fe5b60ff16901b17171797909650945050505050565b600080600085116109ec5760405162461bcd60e51b81526004016107db9061491f565b6007851115610a0d5760405162461bcd60e51b81526004016107db90614975565b6000610a18846116ab565b905060015b868111610a70576000610a39610a32836116cc565b84906110cf565b905086811415610a515750925060009150610a899050565b86811115610a675750925060019150610a899050565b50600101610a1d565b5060405162461bcd60e51b81526004016107db90614a56565b935093915050565b8061ffff166000108015610aaf575060005461ffff90811690821611155b610acb5760405162461bcd60e51b81526004016107db90614a29565b50565b610ad66144cb565b6103b0826000611770565b60006305f5e10083604001511415610afa5750806103b0565b604083015161041790610b11846305f5e10061154f565b9061181e565b610b21828261184f565b610b2a81610cc4565b90915250565b600080831215610b3f57600080fd5b82610b4c57506000610417565b608084015115610b84576000610b61856118f2565b9050828111610b825760405162461bcd60e51b81526004016107db906148ca565b505b6000610b908584611923565b90506000811215610ba057600080fd5b6040850151610bb25783915050610417565b610bcd81610b1187604001518761154f90919063ffffffff16565b915050610417565b60008082121561089b576040805162461bcd60e51b815260206004820181905260248201527f53616665436173743a2076616c7565206d75737420626520706f736974697665604482015290519081900360640190fd5b610c346144fa565b6000806000610c42856119d4565b604080516060810182526001600160a01b039093168352602083019390935260ff16600a0a918101919091529350505050919050565b6000806104568460400151610b116402540be400610b1187896020015161154f90919063ffffffff16565b600080821215610cbd57610cb6826108a3565b905061089e565b508061089e565b610ccc614524565b6000610cdb8361ffff16610c2c565b90506104178382611a95565b6000610cf1614483565b610cff8382876000886113d1565b83816020015111610d225760405162461bcd60e51b81526004016107db906149fd565b602081015184900360008080610d3a8588868c611ad8565b9250925092506000610d54610d4e89611b7a565b86611b8f565b9050610d6d86604001518c600a0b858786866000611bfa565b9c9b505050505050505050505050565b610d85614550565b6000610d8f611caa565b6001600160a01b039390931660009081526020938452604090819020815160a081018352905464ffffffffff8116825265010000000000810460f81b6001600160f81b03191695820195909552600160301b850460ff1691810191909152600160381b840461ffff166060820152690100000000000000000090930460701b6001600160701b03191660808401525090919050565b6060015161ffff16151590565b8161ffff166000108015610e4b5750613fff61ffff831611155b610e5457600080fd5b61ffff8216808552610e67908290611cb7565b15610e9457610e7a838361ffff16611d41565b61010088015260e087015260408601526020850152610eb2565b6000602085018190526040850181905260e085018190526101008501525b50506000606083018190526080830181905260a0830181905260c09092019190915250565b600080610ee2611ded565b6000938452602052505060409020546001600160a01b031690565b6000806000610f0b85611dfa565b919450925090508084118015610f215750600081115b8015610f2d5750600083115b15610f8c576000610f3d86611e5b565b5050509150506000610f68610f5f6305f5e10084611ec490919063ffffffff16565b84880387611f1d565b9050610f7484826110cf565b93506001600160801b038410610f8957600080fd5b50505b9250925092565b60008082121561089b57600080fd5b60e0840151600090156110635773__$b21a4dc043b77aa57922ad9143a3cb040e$__63e0c01a7285610fd78860400151610f93565b8860e001518961010001516040518563ffffffff1660e01b8152600401611001949392919061485d565b60206040518083038186803b15801561101957600080fd5b505af415801561102d573d6000803e3d6000fd5b505050506040513d601f19601f820116820180604052508101906110519190614652565b600060e0870181905261010087015290505b6110a561109e866101000151611098670de0b6b3a76400006110928861108c8c60400151610f93565b90611ec4565b90611f3f565b90611fa6565b82906110cf565b90506110bd670de0b6b3a76400006110928486611ec4565b85610100018181525050949350505050565b600082820183811015610417576040805162461bcd60e51b815260206004820152601b60248201527f536166654d6174683a206164646974696f6e206f766572666c6f770000000000604482015290519081900360640190fd5b6000611133614524565b600061113e85610885565b905061114986610cc4565b91506000846111645761115f8761ffff16610ace565b611171565b6111718761ffff1661159d565b905060058160600151600581111561118557fe5b141561119c576111998761ffff1683612003565b91505b6111a68183610ae1565b9350846111bf5760408301516111bc9085610c78565b93505b5050935093915050565b60006a7fffffffffffffffffffff1982128015906111f257506a7fffffffffffffffffffff8213155b61089b57600080fd5b600080600061120f866020015186866109c9565b91509150600061121e8761208a565b9050816112415786516112379061ffff1687838861209e565b9350505050610417565b600061124c866116ab565b9050600061126361125c866116cc565b83906110cf565b9050600061127b8a6000015161ffff1683868b61209e565b905060008087600114156112a0578991506112998c6040015161213d565b90506112cf565b6112b66112af60018a036116cc565b86906110cf565b91506112cc8c6000015161ffff1683888d61209e565b90505b6112dc828583868f6121ce565b98505050505050505050610417565b6000846112fa57506000610343565b60006113068585611fa6565b90506000808713156113355761132e826113296113228b61222c565b87906110cf565b612241565b9050611364565b6000611340896122a9565b905084811061135457879350505050610343565b61136083828703612241565b9150505b633b9aca0081131561137557600080fd5b61137f87826122be565b98975050505050505050565b60008461139a57506000610456565b60006113a68585611fa6565b905060006113b48285612241565b9050633b9aca008113156113c757600080fd5b61071887826122be565b826001111580156113e6575084602001518311155b6114025760405162461bcd60e51b81526004016107db906149a5565b600061141f611410856116cc565b611419846116ab565b906110cf565b9050611444866000015161ffff168284866114398b61208a565b8a94939291906122d7565b505050505050565b600080848760400151136114655750600090508061087b565b60008060006114768a8a8989611ad8565b9250925092506000806114908c604001518587868e612301565b9092509050806114ab5760008096509650505050505061087b565b5060008060006114bd8d858e8e6123a7565b92509250925082600014156114df57600080985098505050505050505061087b565b60408e01516114ee908d612492565b60408f0181905261150b9061150388856124ae565b89888f6124c4565b60a08f0181905261152957600080985098505050505050505061087b565b61153a8e8e60400151858585612571565b98509850505050505050509550959350505050565b81810260001983141561157f5781158061157157508282828161156e57fe5b05145b61157a57600080fd5b6103b0565b82158061159457508183828161159157fe5b05145b6103b057600080fd5b6115a56144cb565b6103b0826001611770565b60006305f5e100836040015112156115de576115d760016115d185856115ed565b906124ae565b90506103b0565b610417836115ed8460016124ae565b60006305f5e100836040015114156116065750806103b0565b6104176305f5e100610b1185604001518561154f90919063ffffffff16565b600081611634575060006103b0565b600061163f846125c6565b9050600061164c84610ca3565b9050816b019d971e4fe8401e74000001600160ff1b038161166957fe5b0581131561167657600080fd5b6b033b2e3c9fd0803ce80000006b019d971e4fe8401e74000000838302010560008513610343576116a6816108a3565b610961565b60006276a7008210156116bd57600080fd5b6276a700825b06909103919050565b600081600114156116e157506276a70061089e565b81600214156116f4575062ed4e0061089e565b816003141561170857506301da9c0061089e565b816004141561171c57506303b5380061089e565b816005141561173057506309450c0061089e565b8160061415611744575063128a180061089e565b81600714156117585750632514300061089e565b60405162461bcd60e51b81526004016107db9061494e565b6117786144cb565b6000611782612651565b6000858152602082815260408083208715158452825291829020825160a08101845281546001600160a01b038116825260ff600160a01b82048116151594830194909452600160b01b81048416600a0a9482019490945293945092916060830191600160a81b9091041660058111156117f757fe5b81529154600160b81b900468ffffffffffffffffff16602090920191909152949350505050565b6000816000191480156118345750600160ff1b83145b1561183e57600080fd5b81838161184757fe5b059392505050565b61185c8161ffff16610ed7565b6001600160a01b031660c083018190526000908190819061187c90611e5b565b945094509450505060006118938660c00151611dfa565b505060808701859052604087018190526001600160d81b0319831660a088015260c08701519091506118c79084600061265e565b602087015260c08601516118df9061ffff8716611d41565b5050506060909601959095525050505050565b60008160800151600014156119095750600061089e565b60808201516276a7009061191c906116ab565b0192915050565b600080600080611932866118f2565b9050848111611942576001810394505b50600061194f86866126f1565b509050600061197d8760c0015188600001516000015161ffff168960800151898b6000015160200151612846565b9050600081156119af5760c08801518851805160808b01516119ab939261ffff909216918b906000886128f2565b5090505b606088015188516040015161137f91906115d1906119cd9085612970565b86906124ae565b60008060008060006119e5866129a1565b909250905060006001600160a01b038316611a0a5750600090506402540be400611a8a565b826001600160a01b031663b2fffb046040518163ffffffff1660e01b815260040160206040518083038186803b158015611a4357600080fd5b505afa158015611a57573d6000803e3d6000fd5b505050506040513d601f19601f82011682018060405250810190611a7b9190614652565b905060008113611a8a57600080fd5b969195509350915050565b611a9d614524565b6000611aac8461ffff166129d8565b6040805160808101825261ffff96909616865260ff821660208701528501939093525050606082015290565b6000808080611ae88786886129f5565b90506000611b0789606001518960400151610c7890919063ffffffff16565b9050886040015160001480611b1a575080155b15611b315760008060009450945094505050611b70565b600080611b498b604001518c60a0015185878d612a5d565b909250905080611b6757600080600096509650965050505050611b70565b50919450925090505b9450945094915050565b60600151620186a060109190911c60ff160290565b600080611bac611ba76301da9c006110928787611ec4565b612aed565b90506000611bc082621dcd6560491b612b0b565b90506000611bcd82612b5e565b90506000611be182621dcd6560491b612bb3565b9050611bec81612be9565b60070b979650505050505050565b600080821215611c0957600080fd5b6000611c186102bc89876122be565b905060005b60fa8160ff161015611c9157600080611c398c8b8b8b88612301565b9150915080611c4757600080fd5b6000611c588c8e8d8d89888e612bf2565b905086611c6482610ca3565b13611c76578495505050505050610718565b611c808582612ce1565b94505060019092019150611c1d9050565b5060405162461bcd60e51b81526004016107db906148f7565b6000806103b06001612cf7565b60008115801590611cca5750613fff8211155b611cd357600080fd5b6080830151606084015161ffff16831415611cf25760019150506103b0565b6001600160701b0319811615611d375760f081901c613fff1683811415611d245750600160fe1b9081161490506103b0565b5060101b6001600160801b031916611cf2565b5060009392505050565b6000806000806000611d51612d09565b6001600160a01b0388166000908152602082815260408083208a84529091529020805469ffffffffffffffffffff81169650600160501b900463ffffffff1694509091508315611dbd578054611db690600160701b900466ffffffffffffff16612d16565b9250611dd2565b8054600160701b900466ffffffffffffff1692505b54600160a81b9004600a90810b900b97939650919450925050565b6000806103b06003612cf7565b600080600080611e08612d24565b6001600160a01b0395909516600090815260209590955250506040909220546bffffffffffffffffffffffff811693600160601b82046001600160801b03169350600160e01b90910463ffffffff169150565b600080600080600080611e6c612d31565b6001600160a01b039097166000908152602097909752505060409094205461ffff81169563ffffffff62010000830481169650600160301b830416945060ff600160501b8304169350600160581b90910460d81b9150565b600082611ed3575060006103b0565b82820282848281611ee057fe5b04146104175760405162461bcd60e51b8152600401808060200182810382526021815260200180614ad46021913960400191505060405180910390fd5b6000610456826110926301da9c00818861108c89670de0b6b3a7640000611ec4565b6000808211611f95576040805162461bcd60e51b815260206004820152601a60248201527f536166654d6174683a206469766973696f6e206279207a65726f000000000000604482015290519081900360640190fd5b818381611f9e57fe5b049392505050565b600082821115611ffd576040805162461bcd60e51b815260206004820152601e60248201527f536166654d6174683a207375627472616374696f6e206f766572666c6f770000604482015290519081900360640190fd5b50900390565b600081612012575060006103b0565b6000821361201f57600080fd5b600061202a8461159d565b9050600061203b82600001516125c6565b9050600281056b033b2e3c9fd0803ce80000006001600160ff1b038290030585131561206657600080fd5b81816b033b2e3c9fd0803ce80000008702018161207f57fe5b059695505050505050565b6060015161012c60089190911c60ff160290565b6000806120a9612d3e565b905060006276a7006120ba856116ab565b6000898152602085815260408083208b84528252808320949093018083529390522080549192509063ffffffff600160a01b8204811691600160c01b8104821691600160e01b90910416816121215760405162461bcd60e51b81526004016107db9061489a565b61212e8184848c8c612d4b565b9b9a5050505050505050505050565b80516000906001600160a01b03166121575750600061089e565b600082600001516001600160a01b031663dd30a6666040518163ffffffff1660e01b815260040160206040518083038186803b15801561219657600080fd5b505afa1580156121aa573d6000803e3d6000fd5b505050506040513d601f19601f820116820180604052508101906104179190614652565b60008186106121dc57600080fd5b8482106121e857600080fd5b83831061220e57612207846114198888036110928388038b8803611ec4565b9050610343565b6122076122258787036110928688038a8703611ec4565b8590611fa6565b606001516207a12060289190911c60ff160290565b600080612259611ba76301da9c006110928688611ec4565b905061226b81621dcd6560491b612b0b565b905061227e61227982612dde565b612b5e565b905061229081621dcd6560491b612bb3565b9050600061229d82612be9565b60070b95945050505050565b606001516207a12060209190911c60ff160290565b60006104176122cd848461154f565b633b9aca0061181e565b60006276a7006122e6856116ab565b0190506122f887878787878787612e00565b50505050505050565b6000808061230f8885612492565b905060006123276123208a8a6124ae565b8390612e37565b9050633b0233808113156123435760008093509350505061087b565b60008061234f83612e50565b915091508061236857600080955095505050505061087b565b6000612378896115d1858d612e37565b9050633b9aca008112156123975760008096509650505050505061087b565b95506001945061087b9350505050565b60008080806123b96102bc8789612e37565b905060006123cf6123c98a611b7a565b87611b8f565b905060008713156124275760006123e68983612e37565b9050633b9aca00811215612407576000806000955095509550505050611b70565b61241f612418633b9aca0084612ce1565b84906122be565b915050612449565b6124466102bc82610b1161243f633b9aca0083612ce1565b869061154f565b90505b60006124636064610b1161245c8d612ef2565b859061154f565b905061246f8383612ce1565b6124806102bc836115d18787612ce1565b909b909a509098509650505050505050565b600061249e8383612ce1565b905060008112156103b057600080fd5b818101828112156000831215146103b057600080fd5b60008060006124d7888888886000612301565b91509150806124eb57600092505050610343565b60006124f683612eff565b9050600061250a82621dcd6560491b612b0b565b9050600061251782612f2b565b9050600061253361252e83621dcd6560491b612bb3565b612f65565b67ffffffffffffffff169050600061255389611092846301da9c00611ec4565b905063ffffffff811115610d6d576000975050505050505050610343565b6000808061257f8786612970565b606089015190915061259190826124ae565b60608901524260e089015260006125a88886612970565b905060006125b68989612970565b9a91995090975050505050505050565b60006103b06125d3612f81565b5460405163d15e005360e01b81526001600160a01b039091169063d15e005390612601908690600401614849565b60206040518083038186803b15801561261957600080fd5b505afa15801561262d573d6000803e3d6000fd5b505050506040513d601f19601f820116820180604052508101906103f59190614652565b6000806103b06007612cf7565b61266661457e565b61266e61457e565b60ff841661267d579050610417565b6126878585612f8e565b815260ff841660608201528267ffffffffffffffff811180156126a957600080fd5b506040519080825280602002602001820160405280156126e357816020015b6126d06145a6565b8152602001906001900390816126c85790505b506020820152949350505050565b602082015151516000906060908067ffffffffffffffff8111801561271557600080fd5b5060405190808252806020026020018201604052801561273f578160200160208202803683370190505b50915061274a614483565b60005b8281101561283c57865161276890836001808501908a6113d1565b6000876020015160000151828151811061277e57fe5b6020026020010151905060008160200151905060008061279e8487612fb7565b915091506127c76127c08c60c001518d600001516000015161ffff1686613032565b82906124ae565b8886815181106127d357fe5b602002602001018181525050600061281d61281661280a8b89815181106127f657fe5b6020026020010151878f8c60c0015161138b565b8e516040015190612970565b84906124ae565b90506128298a826124ae565b9950506001909401935061274d92505050565b5050509250929050565b60006002821161285857506000610343565b60006128648787613077565b905080612872579050610343565b600061287d856116ab565b9050858114156128a757507440008000000200200000000200000020000000002019169050610343565b60015b8481116128e75760006128bc826116cc565b8301905060006128cc89836130ac565b5090506128db858260006131b7565b945050506001016128aa565b508192505050610343565b600080600061290084613202565b90505b80156129635760006129158983613227565b905060006129278c8c848c8c8c6132da565b905061293385826124ae565b9450600081121561294357600193505b61294f868460006131b7565b955061295a86613202565b92505050612903565b5097509795505050505050565b6000806104568460200151610b11866040015161299b6402540be4008861154f90919063ffffffff16565b9061154f565b60008060006129ae61332f565b600094855260205250506040909120546001600160a01b03811692600160a01b90910460ff169150565b6000806129e361333c565b60009384526020525050604090205490565b600082600111158015612a0c575083602001518311155b612a1557600080fd5b606084015160806008600019860102019060ff90821c16633b9aca00026000612a4e612a4086610885565b610b11846301da9c0061154f565b90506000811361096157600080fd5b6000806000612a6c8785611b8f565b9050633b9aca00811215612a8757600080925092505061087b565b600080612a9e612a978b8a6124ae565b8b90612e37565b9050600080612aac83612e50565b9150915080612ac65760008096509650505050505061087b565b612ada612ad3838b612e37565b8690612ce1565b9c60019c509a5050505050505050505050565b6000677fffffffffffffff821115612b0457600080fd5b5060401b90565b600081600f0b60001415612b1e57600080fd5b600082600f0b604085600f0b901b81612b3357fe5b05905060016001607f1b03198112801590612b55575060016001607f1b038113155b61041757600080fd5b6000600160461b82600f0b12612b7357600080fd5b683fffffffffffffffff1982600f0b1215612b905750600061089e565b6103b0608083600f0b700171547652b82fe1777d0ffda0d23a7d1202901d613349565b6000600f83810b9083900b0260401d60016001607f1b03198112801590612b55575060016001607f1b0381131561041757600080fd5b600f0b60401d90565b60008080612c17612c10612c068a896124ae565b61299b8c8a612ce1565b88906122be565b90506000861315612c6457612c2c8585612e37565b9450633b9aca00851215612c3f57600080fd5b612c5d84612c57612c508c8c6124ae565b8d9061154f565b90612e37565b9150612c9b565b612c6e85856122be565b9450633b9aca00851215612c8157600080fd5b612c98612c9161243f8b8b6124ae565b8b906122be565b91505b612cb3612ca8838361181e565b6305f5e10090612ce1565b91506000612cc18b876122be565b9050612ccd81886124ae565b905061212e83610b11836305f5e10061154f565b808203828113156000831215146103b057600080fd5b6000620f424082601381111561191c57fe5b6000806103b06006612cf7565b600881901c60ff9091161b90565b6000806103b06011612cf7565b6000806103b06002612cf7565b6000806103b0600a612cf7565b6000808311612d5957600080fd5b81861115612d68575083610343565b6000612d748388611fa6565b905083811115612d875785915050610343565b6000612d9b8561109284633b9aca00611ec4565b90506000612dad633b9aca0083611fa6565b90506000612dd0633b9aca00611092612dc68b86611ec4565b6114198d88611ec4565b9a9950505050505050505050565b6000600f82900b60016001607f1b03191415612df957600080fd5b5060000390565b612e0d8787878685613df7565b612e268760e001518860a001518960c001518588612d4b565b60c090970196909652505050505050565b6000610417612e4a84633b9aca0061154f565b8361181e565b600080633b9aca00831415612e6a57506000905080612eed565b6000612e84612e7d633b9aca0086612ce1565b8590612e37565b90506000612e9182612eff565b9050600081600f0b13612eac57600080935093505050612eed565b6000612ee0612edb612ecf612ec085612f2b565b6814b927f32bffb83338613eb8565b621dcd6560491b612bb3565b612be9565b60070b9450600193505050505b915091565b6060015160181c60ff1690565b6000677fffffffffffffff198212158015612f225750677fffffffffffffff8213155b612b0457600080fd5b60008082600f0b13612f3c57600080fd5b6080612f4783613eeb565b600f0b6fb17217f7d1cf79abc9e3b39803f2f6af02901c9050919050565b60008082600f0b1215612f7757600080fd5b50600f0b60401d90565b6000806103b06013612cf7565b60606000612f9c8484613fc6565b90506001815111612fae5790506103b0565b610417816140de565b600080612fc7846040015161429d565b8015612fd857506000846060015112155b612fe157600080fd5b6130048360800151610b118660600151866060015161154f90919063ffffffff16565b91506130298360800151610b118660600151866040015161154f90919063ffffffff16565b90509250929050565b60008061303d6142b3565b6001600160a01b03861660009081526020918252604080822087835283528082208683529092522054600f90810b900b9150509392505050565b6000806130826142c0565b6001600160a01b038516600090815260209182526040808220868352909252205491505092915050565b60008060006130ba856142cd565b9050620151808406156130d45760008092509250506131b0565b8381106130e85760008092509250506131b0565b6201518081850304605a8111613105579250600191506131b09050565b6101688111613144576000620151806207e900840604820160591901905060068104605a016006828161313457fe5b06600014945094505050506131b0565b61087081116131745760006201518062278d00840604820161016719019050601e8104608701601e828161313457fe5b611de281116131a4576000620151806276a700840604820161086f19019050605a810460c301605a828161313457fe5b61010060009350935050505b9250929050565b6000600183101580156131cc57506101008311155b6131d557600080fd5b81156131ee5750600160ff1b60001983011c8317610417565b50600160ff1b60001983011c198316610417565b6000816132115750600061089e565b61321a826142e9565b60ff036001019050919050565b60008161323357600080fd5b61010082111561324257600080fd5b600061324d846142cd565b90506000605a841161326857506201518083020190506103b0565b60878411613290575060591983016207e900908102908206909103016276a7000190506103b0565b60c384116132b95750608619830162278d00908102908206909103016301da9c000190506103b0565b5060c21983016276a70090810290820690910301630b1fa8000190506103b0565b6000806132e8888888613032565b90508486116132f8579050610961565b60006133058588886111fb565b905083156133235761331a85838989856112eb565b92505050610961565b61331a8288888461138b565b6000806103b0600f612cf7565b6000806103b06009612cf7565b6000600160461b82600f0b1261335e57600080fd5b683fffffffffffffffff1982600f0b121561337b5750600061089e565b6001607f1b60006001603f1b8416600f0b13156133a95770016a09e667f3bcc908b2fb1366ea957d3e0260801c5b60008367400000000000000016600f0b13156133d6577001306fe0a31b7152de8d5a46305c85edec0260801c5b60008367200000000000000016600f0b1315613403577001172b83c7d517adcdf7c8c50eb14a791f0260801c5b60008367100000000000000016600f0b13156134305770010b5586cf9890f6298b92b71842a983630260801c5b60008367080000000000000016600f0b131561345d577001059b0d31585743ae7c548eb68ca417fd0260801c5b60008367040000000000000016600f0b131561348a57700102c9a3e778060ee6f7caca4f7a29bde80260801c5b60008367020000000000000016600f0b13156134b75770010163da9fb33356d84a66ae336dcdfa3f0260801c5b600083600160381b16600f0b13156134e057700100b1afa5abcbed6129ab13ec11dc95430260801c5b600083668000000000000016600f0b131561350c5770010058c86da1c09ea1ff19d294cf2f679b0260801c5b600083664000000000000016600f0b1315613538577001002c605e2e8cec506d21bfc89a23a00f0260801c5b600083662000000000000016600f0b131561356457700100162f3904051fa128bca9c55c31e5df0260801c5b600083661000000000000016600f0b1315613590577001000b175effdc76ba38e31671ca9397250260801c5b600083660800000000000016600f0b13156135bc57700100058ba01fb9f96d6cacd4b180917c3d0260801c5b600083660400000000000016600f0b13156135e85770010002c5cc37da9491d0985c348c68e7b30260801c5b600083660200000000000016600f0b1315613614577001000162e525ee054754457d59952920260260801c5b600083600160301b16600f0b131561363d5770010000b17255775c040618bf4a4ade83fc0260801c5b6000836580000000000016600f0b1315613668577001000058b91b5bc9ae2eed81e9b7d4cfab0260801c5b6000836540000000000016600f0b131561369357700100002c5c89d5ec6ca4d7c8acc017b7c90260801c5b6000836520000000000016600f0b13156136be5770010000162e43f4f831060e02d839a9d16d0260801c5b6000836510000000000016600f0b13156136e957700100000b1721bcfc99d9f890ea069117630260801c5b6000836508000000000016600f0b13156137145770010000058b90cf1e6d97f9ca14dbcc16280260801c5b6000836504000000000016600f0b131561373f577001000002c5c863b73f016468f6bac5ca2b0260801c5b6000836502000000000016600f0b131561376a57700100000162e430e5a18f6119e3c02282a50260801c5b6000836501000000000016600f0b1315613795577001000000b1721835514b86e6d96efd1bfe0260801c5b60008364800000000016600f0b13156137bf57700100000058b90c0b48c6be5df846c5b2ef0260801c5b60008364400000000016600f0b13156137e95770010000002c5c8601cc6b9e94213c72737a0260801c5b60008364200000000016600f0b1315613813577001000000162e42fff037df38aa2b219f060260801c5b60008364100000000016600f0b131561383d5770010000000b17217fba9c739aa5819f44f90260801c5b60008364080000000016600f0b1315613867577001000000058b90bfcdee5acd3c1cedc8230260801c5b60008364040000000016600f0b131561389157700100000002c5c85fe31f35a6a30da1be500260801c5b60008364020000000016600f0b13156138bb5770010000000162e42ff0999ce3541b9fffcf0260801c5b60008364010000000016600f0b13156138e557700100000000b17217f80f4ef5aadda455540260801c5b600083638000000016600f0b131561390e5770010000000058b90bfbf8479bd5a81b51ad0260801c5b600083634000000016600f0b1315613937577001000000002c5c85fdf84bd62ae30a74cc0260801c5b600083632000000016600f0b131561396057700100000000162e42fefb2fed257559bdaa0260801c5b600083631000000016600f0b1315613989577001000000000b17217f7d5a7716bba4a9ae0260801c5b600083630800000016600f0b13156139b257700100000000058b90bfbe9ddbac5e109cce0260801c5b600083630400000016600f0b13156139db5770010000000002c5c85fdf4b15de6f17eb0d0260801c5b600083630200000016600f0b1315613a04577001000000000162e42fefa494f1478fde050260801c5b600083630100000016600f0b1315613a2d5770010000000000b17217f7d20cf927c8e94c0260801c5b6000836280000016600f0b1315613a55577001000000000058b90bfbe8f71cb4e4b33d0260801c5b6000836240000016600f0b1315613a7d57700100000000002c5c85fdf477b662b269450260801c5b6000836220000016600f0b1315613aa55770010000000000162e42fefa3ae53369388c0260801c5b6000836210000016600f0b1315613acd57700100000000000b17217f7d1d351a389d400260801c5b6000836208000016600f0b1315613af55770010000000000058b90bfbe8e8b2d3d4ede0260801c5b6000836204000016600f0b1315613b1d577001000000000002c5c85fdf4741bea6e77e0260801c5b6000836202000016600f0b1315613b4557700100000000000162e42fefa39fe95583c20260801c5b6000836201000016600f0b1315613b6d577001000000000000b17217f7d1cfb72b45e10260801c5b60008361800016600f0b1315613b9457700100000000000058b90bfbe8e7cc35c3f00260801c5b60008361400016600f0b1315613bbb5770010000000000002c5c85fdf473e242ea380260801c5b60008361200016600f0b1315613be2577001000000000000162e42fefa39f02b772c0260801c5b60008361100016600f0b1315613c095770010000000000000b17217f7d1cf7d83c1a0260801c5b60008361080016600f0b1315613c30577001000000000000058b90bfbe8e7bdcbe2e0260801c5b60008361040016600f0b1315613c5757700100000000000002c5c85fdf473dea871f0260801c5b60008361020016600f0b1315613c7e5770010000000000000162e42fefa39ef44d910260801c5b60008361010016600f0b1315613ca557700100000000000000b17217f7d1cf79e9490260801c5b600083608016600f0b1315613ccb5770010000000000000058b90bfbe8e7bce5440260801c5b600083604016600f0b1315613cf1577001000000000000002c5c85fdf473de6eca0260801c5b600083602016600f0b1315613d1757700100000000000000162e42fefa39ef366f0260801c5b600083601016600f0b1315613d3d577001000000000000000b17217f7d1cf79afa0260801c5b600083600816600f0b1315613d6357700100000000000000058b90bfbe8e7bcd6d0260801c5b600083600416600f0b1315613d895770010000000000000002c5c85fdf473de6b20260801c5b600083600216600f0b1315613daf577001000000000000000162e42fefa39ef3580260801c5b600083600116600f0b1315613dd55770010000000000000000b17217f7d1cf79ab0260801c5b600f83810b60401d603f03900b1c60016001607f1b038111156103b057600080fd5b6000613e01612d3e565b6000868152602082815260408083208884528252808320868452825291829020808a52908901879052805469ffffffffffffffffffff808216938b0193909352600160501b810490921660608a015263ffffffff600160a01b8304811660a08b0152600160c01b8304811660c08b0152600160e01b90920490911660e0890152909150808415613ea657600182015469ffffffffffffffffffff166080890152613eae565b600060808901525b5050505050505050565b6000600f82810b9084900b0360016001607f1b03198112801590612b55575060016001607f1b0381131561041757600080fd5b60008082600f0b13613efc57600080fd5b6000600f83900b600160401b8112613f16576040918201911d5b6401000000008112613f2a576020918201911d5b620100008112613f3c576010918201911d5b6101008112613f4d576008918201911d5b60108112613f5d576004918201911d5b60048112613f6d576002918201911d5b60028112613f7c576001820191505b603f19820160401b600f85900b607f8490031b6001603f1b5b6000811315613fbb5790800260ff81901c8281029390930192607f011c9060011d613f95565b509095945050505050565b606060108260ff161115613fd957600080fd5b6000613fe3614382565b6001600160a01b038516600090815260208290526040812091925060ff851667ffffffffffffffff8111801561401857600080fd5b5060405190808252806020026020018201604052801561405257816020015b61403f6145a6565b8152602001906001900390816140375790505b50905060005b8560ff168110156105a357600083826010811061407157fe5b019050600083838151811061408257fe5b602090810291909101810151835461ffff8116825264ffffffffff620100008204169282019290925260ff600160381b8304166040820152600160401b909104600a90810b900b60608201526080019190915250600101614058565b805160008167ffffffffffffffff811180156140f957600080fd5b50604051908082528060200260200182016040528015614123578160200160208202803683370190505b50905060005b8281101561418057600084828151811061413f57fe5b6020026020010151905061416081600001518260200151836040015161438f565b83838151811061416c57fe5b602090810291909101015250600101614129565b5060015b8281101561429757805b6000811180156141c657508281815181106141a557fe5b60200260200101518360018303815181106141bc57fe5b6020026020010151115b1561428e578281815181106141d757fe5b60200260200101518360018303815181106141ee57fe5b602002602001015184600184038151811061420557fe5b6020026020010185848151811061421857fe5b602002602001018281525082815250505084818151811061423557fe5b602002602001015185600183038151811061424c57fe5b602002602001015186600184038151811061426357fe5b6020026020010187848151811061427657fe5b6020908102919091010191909152526000190161418e565b50600101614184565b50505050565b6000600282108015906103b05750506008101590565b6000806103b0600c612cf7565b6000806103b0600b612cf7565b6000620151808210156142df57600080fd5b62015180826116c3565b6000816142f557600080fd5b600160801b821061430857608091821c91015b600160401b821061431b57604091821c91015b640100000000821061432f57602091821c91015b62010000821061434157601091821c91015b610100821061435257600891821c91015b6010821061436257600491821c91015b6004821061437257600291821c91015b6002821061089e57600101919050565b6000806103b0600d612cf7565b6000613fff8411156143a057600080fd5b64ffffffffff8311156143b257600080fd5b60088211156143c057600080fd5b5067ffff000000000000603084901b1665ffffffffff00600884901b161760ff8216179392505050565b6040518060e001604052806143fd614524565b815260200161440a61457e565b815260006020820181905260408201819052606082018190526080820181905260a09091015290565b604051806101200160405280600061ffff16815260200160008152602001600081526020016000815260200160008152602001600081526020016000815260200160008152602001600081525090565b60405180610100016040528060008019168152602001600081526020016000815260200160008152602001600081526020016000815260200160008152602001600081525090565b6040805160a0810182526000808252602082018190529181018290529060608201908152602001600081525090565b604051806060016040528060006001600160a01b0316815260200160008152602001600081525090565b60408051608081018252600080825260208201529081016145436144fa565b8152600060209091015290565b6040805160a08101825260008082526020820181905291810182905260608101829052608081019190915290565b6040518060800160405280606081526020016060815260200160008152602001600081525090565b6040518060c001604052806000815260200160008152602001600081526020016000815260200160008152602001600060038111156145e157fe5b905290565b8035801515811461089e57600080fd5b803561ffff8116811461089e57600080fd5b803563ffffffff8116811461089e57600080fd5b6000806040838503121561462e578182fd5b82356001600160a01b0381168114614644578283fd5b946020939093013593505050565b600060208284031215614663578081fd5b5051919050565b60008060006060848603121561467e578081fd5b614687846145f6565b92506020840135915061469c604085016145e6565b90509250925092565b600080600080608085870312156146ba578081fd5b6146c3856145f6565b9350602085013580600a0b81146146d8578182fd5b93969395505050506040820135916060013590565b600080600080600060a08688031215614704578081fd5b61470d866145f6565b9450602086013593506040860135925060608601359150614730608087016145e6565b90509295509295909350565b600080600080600060a08688031215614753578081fd5b61475c866145f6565b9450602086013593506040860135925061477860608701614608565b949793965091946080013592915050565b60008060008060008060c087890312156147a1578081fd5b6147aa876145f6565b955060208701359450604087013593506147c660608801614608565b9250608087013591506147db60a088016145e6565b90509295509295509295565b600080604083850312156147f9578182fd5b614802836145f6565b915060208301356001600160581b038116811461481d578182fd5b809150509250929050565b6000806040838503121561483a578182fd5b50508035926020909101359150565b6001600160a01b0391909116815260200190565b6001600160a01b0394909416845260208401929092526040830152606082015260800190565b90815260200190565b918252602082015260400190565b60208082526016908201527513585c9ad95d081b9bdd081a5b9a5d1a585b1a5e995960521b604082015260600190565b60208082526013908201527214995c5d5a5c995cc81cd95d1d1b195b595b9d606a1b604082015260600190565b6020808252600e908201526d4e6f20636f6e76657267656e636560901b604082015260600190565b60208082526015908201527410d1ce881b9bc81b585c9ad95d1cc81b1a5cdd1959605a1b604082015260600190565b6020808252600d908201526c092dcecc2d8d2c840d2dcc8caf609b1b604082015260600190565b60208082526016908201527510d1ce881b585c9ad95d081a5b99195e08189bdd5b9960521b604082015260600190565b6020808252600e908201526d125b9d985b1a59081b585c9ad95d60921b604082015260600190565b6020808252601690820152755472616465206661696c65642c20736c69707061676560501b604082015260600190565b602080825260129082015271496e76616c696420626c6f636b2074696d6560701b604082015260600190565b602080825260139082015272125b9d985b1a590818dd5c9c995b98de481a59606a1b604082015260600190565b60208082526013908201527210d1ce881b9bc81b585c9ad95d08199bdd5b99606a1b604082015260600190565b938452602084019290925260ff166040830152606082015260800190565b6001600160581b0393909316835260ff919091166020830152604082015260600190565b60ff9190911681526020019056fe536166654d6174683a206d756c7469706c69636174696f6e206f766572666c6f77a264697066735822122050ce17b44ed5206436eefa2985926a2ca4ad980208b678145ddcf37c9072ef3a64736f6c63430007060033","language":"Solidity","natspec":{"kind":"dev","methods":{"calculateNTokensToMint(uint16,uint88)":{"notice":"Returns the nTokens that will be minted when some amount of asset tokens are deposited","params":{"amountToDepositExternalPrecision":"amount of asset tokens in native precision","currencyId":"id number of the currency"},"returns":{"_0":"the amount of nTokens that will be minted"}},"convertCashBalanceToExternal(uint16,int256,bool)":{"notice":"Converts an internal cash balance to an external token denomination","params":{"cashBalanceInternal":"the signed cash balance that is stored in Notional","convertToUnderlying":"true if the value should be converted to underlying","currencyId":"the currency id of the cash balance"},"returns":{"_0":"the cash balance converted to the external token denomination"}},"getCashAmountGivenfCashAmount(uint16,int88,uint256,uint256)":{"notice":"Returns the cash amount that will be traded given an fCash amount, be sure to buffer these amounts slightly because the liquidity curve is sensitive to changes in block time","params":{"blockTime":"the block time for when the trade will be calculated","currencyId":"id number of the currency","fCashAmount":"amount of fCash to trade, negative for borrowing, positive for lending","marketIndex":"market index of the fCash market"},"returns":{"_0":"net asset cash amount (positive for borrowing, negative for lending) in 8 decimal precision","_1":"underlying cash amount (positive for borrowing, negative for lending) in 8 decimal precision"}},"getDepositFromfCashLend(uint16,uint256,uint256,uint32,uint256)":{"notice":"Returns the amount of underlying cash and asset cash required to lend fCash. When specifying a trade, deposit either underlying or asset tokens (not both). Asset tokens tend to be more gas efficient.","params":{"blockTime":"the block time for when the trade will be calculated","currencyId":"id number of the currency","fCashAmount":"amount of fCash (in underlying) that will be received at maturity. Always 8 decimal precision.","maturity":"the maturity of the fCash to lend","minLendRate":"the minimum lending rate (slippage protection)"},"returns":{"depositAmountAsset":"the amount of asset tokens the lender must deposit","depositAmountUnderlying":"the amount of underlying tokens the lender must deposit","encodedTrade":"the encoded bytes32 object to pass to batch trade","marketIndex":"the corresponding market index for the lending"}},"getLibInfo()":{"notice":"Get a list of deployed library addresses (sorted by library name)"},"getMarketIndex(uint256,uint256)":{"notice":"Returns a market index value for a given maturity","params":{"blockTime":"the block time for when the trade will be calculated","maturity":"an fCash maturity"},"returns":{"marketIndex":"a value between 1 and 7 that represents the marketIndex (tenor) that corresponds to the maturity. Returns 0 if there is no corresponding marketIndex"}},"getPresentfCashValue(uint16,uint256,int256,uint256,bool)":{"notice":"Returns the present value of the given fCash amount using Notional internal oracle rates","params":{"blockTime":"the block time for when the trade will be calculated","currencyId":"id number of the currency","maturity":"timestamp of the fCash maturity","notional":"amount of fCash notional","riskAdjusted":"true if haircuts and buffers should be applied to the oracle rate"},"returns":{"presentValue":"of fCash in 8 decimal precision and underlying denomination"}},"getPrincipalFromfCashBorrow(uint16,uint256,uint256,uint32,uint256)":{"notice":"Returns the amount of underlying cash and asset cash required to borrow fCash. When specifying a trade, choose to receive either underlying or asset tokens (not both). Asset tokens tend to be more gas efficient.","params":{"blockTime":"the block time for when the trade will be calculated","currencyId":"id number of the currency","fCashBorrow":"amount of fCash (in underlying) that will be received at maturity. Always 8 decimal precision.","maturity":"the maturity of the fCash to lend","maxBorrowRate":"the maximum borrow rate (slippage protection)"},"returns":{"borrowAmountAsset":"the amount of asset tokens the borrower will receive","borrowAmountUnderlying":"the amount of underlying tokens the borrower will receive","encodedTrade":"the encoded bytes32 object to pass to batch trade","marketIndex":"the corresponding market index for the lending"}},"getfCashAmountGivenCashAmount(uint16,int88,uint256,uint256)":{"params":{"blockTime":"the block time for when the trade will be calculated","marketIndex":"market index of the fCash market"},"returns":{"_0":"the fCash amount from the trade, positive when lending, negative when borrowing. Always in 8 decimals."}},"getfCashBorrowFromPrincipal(uint16,uint256,uint256,uint32,uint256,bool)":{"notice":"Returns the amount of fCash that would received if lending deposit amount.","params":{"blockTime":"the block time for when the trade will be calculated","borrowedAmountExternal":"amount to borrow in the token's native precision. For aTokens use what is returned by the balanceOf selector (not scaledBalanceOf).","currencyId":"id number of the currency","maturity":"the maturity of the fCash to lend","maxBorrowRate":"the maximum borrow rate (slippage protection). If zero then no slippage will be applied","useUnderlying":"true if specifying the underlying token, false if specifying the asset token"},"returns":{"encodedTrade":"the encoded bytes32 object to pass to batch trade","fCashDebt":"the amount of fCash that the borrower will owe, this will be stored as a negative balance in Notional","marketIndex":"the corresponding market index for the lending"}},"getfCashLendFromDeposit(uint16,uint256,uint256,uint32,uint256,bool)":{"notice":"Returns the amount of fCash that would received if lending deposit amount.","params":{"blockTime":"the block time for when the trade will be calculated","currencyId":"id number of the currency","depositAmountExternal":"amount to deposit in the token's native precision. For aTokens use what is returned by the balanceOf selector (not scaledBalanceOf).","maturity":"the maturity of the fCash to lend","minLendRate":"the minimum lending rate (slippage protection)","useUnderlying":"true if specifying the underlying token, false if specifying the asset token"},"returns":{"encodedTrade":"the encoded bytes32 object to pass to batch trade","fCashAmount":"the amount of fCash that the lender will receive","marketIndex":"the corresponding market index for the lending"}},"nTokenGetClaimableIncentives(address,uint256)":{"notice":"Returns the claimable incentives for all nToken balances","params":{"account":"The address of the account which holds the tokens","blockTime":"The block time when incentives will be minted"},"returns":{"_0":"Incentives an account is eligible to claim"}}},"version":1},"opcodes":"PUSH1 0x80 PUSH1 0x40 MSTORE CALLVALUE DUP1 ISZERO PUSH2 0x10 JUMPI PUSH1 0x0 DUP1 REVERT JUMPDEST POP PUSH1 0x4 CALLDATASIZE LT PUSH2 0xF5 JUMPI PUSH1 0x0 CALLDATALOAD PUSH1 0xE0 SHR DUP1 PUSH4 0x8355E895 GT PUSH2 0x97 JUMPI DUP1 PUSH4 0xBAC9E8B1 GT PUSH2 0x66 JUMPI DUP1 PUSH4 0xBAC9E8B1 EQ PUSH2 0x1F8 JUMPI DUP1 PUSH4 0xC4C96DAE EQ PUSH2 0x21A JUMPI DUP1 PUSH4 0xC52C43E1 EQ PUSH2 0x222 JUMPI DUP1 PUSH4 0xF83A8608 EQ PUSH2 0x235 JUMPI PUSH2 0xF5 JUMP JUMPDEST DUP1 PUSH4 0x8355E895 EQ PUSH2 0x1B7 JUMPI DUP1 PUSH4 0x8DA5CB5B EQ PUSH2 0x1CA JUMPI DUP1 PUSH4 0x97D6DB2E EQ PUSH2 0x1D2 JUMPI DUP1 PUSH4 0xAAAE47B5 EQ PUSH2 0x1E5 JUMPI PUSH2 0xF5 JUMP JUMPDEST DUP1 PUSH4 0x5953C77B GT PUSH2 0xD3 JUMPI DUP1 PUSH4 0x5953C77B EQ PUSH2 0x15C JUMPI DUP1 PUSH4 0x6A09A2A3 EQ PUSH2 0x17C JUMPI DUP1 PUSH4 0x6EBBF174 EQ PUSH2 0x19C JUMPI DUP1 PUSH4 0x82463367 EQ PUSH2 0x1AF JUMPI PUSH2 0xF5 JUMP JUMPDEST DUP1 PUSH4 0x94614DF EQ PUSH2 0xFA JUMPI DUP1 PUSH4 0x24A3D622 EQ PUSH2 0x124 JUMPI DUP1 PUSH4 0x416A1587 EQ PUSH2 0x139 JUMPI JUMPDEST PUSH1 0x0 DUP1 REVERT JUMPDEST PUSH2 0x10D PUSH2 0x108 CALLDATASIZE PUSH1 0x4 PUSH2 0x46A5 JUMP JUMPDEST PUSH2 0x248 JUMP JUMPDEST PUSH1 0x40 MLOAD PUSH2 0x11B SWAP3 SWAP2 SWAP1 PUSH2 0x488C JUMP JUMPDEST PUSH1 0x40 MLOAD DUP1 SWAP2 SUB SWAP1 RETURN JUMPDEST PUSH2 0x12C PUSH2 0x266 JUMP JUMPDEST PUSH1 0x40 MLOAD PUSH2 0x11B SWAP2 SWAP1 PUSH2 0x4849 JUMP JUMPDEST PUSH2 0x14C PUSH2 0x147 CALLDATASIZE PUSH1 0x4 PUSH2 0x473C JUMP JUMPDEST PUSH2 0x275 JUMP JUMPDEST PUSH1 0x40 MLOAD PUSH2 0x11B SWAP5 SWAP4 SWAP3 SWAP2 SWAP1 PUSH2 0x4A83 JUMP JUMPDEST PUSH2 0x16F PUSH2 0x16A CALLDATASIZE PUSH1 0x4 PUSH2 0x4828 JUMP JUMPDEST PUSH2 0x320 JUMP JUMPDEST PUSH1 0x40 MLOAD PUSH2 0x11B SWAP2 SWAP1 PUSH2 0x4AC5 JUMP JUMPDEST PUSH2 0x18F PUSH2 0x18A CALLDATASIZE PUSH1 0x4 PUSH2 0x47E7 JUMP JUMPDEST PUSH2 0x34C JUMP JUMPDEST PUSH1 0x40 MLOAD PUSH2 0x11B SWAP2 SWAP1 PUSH2 0x4883 JUMP JUMPDEST PUSH2 0x18F PUSH2 0x1AA CALLDATASIZE PUSH1 0x4 PUSH2 0x466A JUMP JUMPDEST PUSH2 0x3B6 JUMP JUMPDEST PUSH2 0x12C PUSH2 0x41E JUMP JUMPDEST PUSH2 0x18F PUSH2 0x1C5 CALLDATASIZE PUSH1 0x4 PUSH2 0x46A5 JUMP JUMPDEST PUSH2 0x42D JUMP JUMPDEST PUSH2 0x12C PUSH2 0x45E JUMP JUMPDEST PUSH2 0x18F PUSH2 0x1E0 CALLDATASIZE PUSH1 0x4 PUSH2 0x461C JUMP JUMPDEST PUSH2 0x475 JUMP JUMPDEST PUSH2 0x14C PUSH2 0x1F3 CALLDATASIZE PUSH1 0x4 PUSH2 0x473C JUMP JUMPDEST PUSH2 0x5AD JUMP JUMPDEST PUSH2 0x20B PUSH2 0x206 CALLDATASIZE PUSH1 0x4 PUSH2 0x4789 JUMP JUMPDEST PUSH2 0x63C JUMP JUMPDEST PUSH1 0x40 MLOAD PUSH2 0x11B SWAP4 SWAP3 SWAP2 SWAP1 PUSH2 0x4AA1 JUMP JUMPDEST PUSH2 0x12C PUSH2 0x6B8 JUMP JUMPDEST PUSH2 0x18F PUSH2 0x230 CALLDATASIZE PUSH1 0x4 PUSH2 0x46ED JUMP JUMPDEST PUSH2 0x6D0 JUMP JUMPDEST PUSH2 0x20B PUSH2 0x243 CALLDATASIZE PUSH1 0x4 PUSH2 0x4789 JUMP JUMPDEST PUSH2 0x723 JUMP JUMPDEST PUSH1 0x0 DUP1 PUSH2 0x259 DUP7 DUP7 DUP7 DUP7 PUSH1 0x0 PUSH2 0x789 JUMP JUMPDEST SWAP2 POP SWAP2 POP SWAP5 POP SWAP5 SWAP3 POP POP POP JUMP JUMPDEST PUSH1 0x2 SLOAD PUSH1 0x1 PUSH1 0x1 PUSH1 0xA0 SHL SUB AND DUP2 JUMP JUMPDEST PUSH1 0x0 DUP1 PUSH1 0x0 DUP1 PUSH2 0x285 DUP8 DUP7 PUSH2 0x320 JUMP JUMPDEST SWAP2 POP PUSH1 0x0 DUP3 PUSH1 0xFF AND GT PUSH2 0x297 JUMPI PUSH1 0x0 DUP1 REVERT JUMPDEST PUSH11 0x7FFFFFFFFFFFFFFFFFFFFF DUP9 LT PUSH2 0x2AE JUMPI PUSH1 0x0 DUP1 REVERT JUMPDEST PUSH1 0x0 PUSH2 0x2C1 PUSH2 0x2BC DUP11 PUSH2 0x885 JUMP JUMPDEST PUSH2 0x8A3 JUMP JUMPDEST SWAP1 POP PUSH1 0x0 DUP1 PUSH2 0x2DC DUP13 DUP5 DUP8 PUSH1 0xFF AND DUP12 DUP14 PUSH4 0xFFFFFFFF AND PUSH2 0x789 JUMP JUMPDEST SWAP2 POP SWAP2 POP PUSH2 0x2EC DUP13 DUP3 PUSH1 0x1 PUSH2 0x8B1 JUMP JUMPDEST SWAP7 POP PUSH2 0x2FA DUP13 DUP4 PUSH1 0x0 PUSH2 0x8B1 JUMP JUMPDEST SWAP6 POP PUSH2 0x30C PUSH1 0x1 DUP7 DUP6 PUSH1 0xA SIGNEXTEND DUP13 PUSH2 0x96B JUMP JUMPDEST POP DUP1 SWAP5 POP POP POP POP POP SWAP6 POP SWAP6 POP SWAP6 POP SWAP6 SWAP2 POP POP JUMP JUMPDEST PUSH1 0x0 DUP1 PUSH1 0x0 PUSH2 0x331 PUSH1 0x7 DUP7 DUP7 PUSH2 0x9C9 JUMP JUMPDEST SWAP2 POP SWAP2 POP DUP1 PUSH2 0x340 JUMPI DUP2 PUSH2 0x343 JUMP JUMPDEST PUSH1 0x0 JUMPDEST SWAP6 SWAP5 POP POP POP POP POP JUMP JUMPDEST PUSH1 0x0 PUSH2 0x357 DUP4 PUSH2 0xA91 JUMP JUMPDEST PUSH1 0x0 PUSH2 0x366 DUP5 PUSH2 0xFFFF AND PUSH2 0xACE JUMP JUMPDEST SWAP1 POP PUSH1 0x0 PUSH2 0x37D DUP3 PUSH1 0x1 PUSH1 0x1 PUSH1 0x58 SHL SUB DUP7 AND PUSH2 0xAE1 JUMP JUMPDEST SWAP1 POP PUSH2 0x387 PUSH2 0x43EA JUMP JUMPDEST PUSH2 0x391 DUP2 DUP8 PUSH2 0xB17 JUMP JUMPDEST PUSH1 0x0 PUSH2 0x39E DUP3 DUP5 TIMESTAMP PUSH2 0xB30 JUMP JUMPDEST SWAP1 POP PUSH2 0x3A9 DUP2 PUSH2 0xBD5 JUMP JUMPDEST SWAP5 POP POP POP POP POP JUMPDEST SWAP3 SWAP2 POP POP JUMP JUMPDEST PUSH1 0x0 DUP2 ISZERO PUSH2 0x3DD JUMPI PUSH1 0x0 PUSH2 0x3CD DUP6 PUSH2 0xFFFF AND PUSH2 0xC2C JUMP JUMPDEST SWAP1 POP PUSH2 0x3D9 DUP2 DUP6 PUSH2 0xC78 JUMP JUMPDEST SWAP4 POP POP JUMPDEST PUSH1 0x0 PUSH2 0x3FA PUSH2 0x3F5 DUP7 PUSH2 0x3EF DUP8 PUSH2 0xCA3 JUMP JUMPDEST DUP7 PUSH2 0x8B1 JUMP JUMPDEST PUSH2 0x885 JUMP JUMPDEST SWAP1 POP PUSH1 0x0 DUP5 SLT PUSH2 0x40A JUMPI DUP1 PUSH2 0x413 JUMP JUMPDEST PUSH2 0x413 DUP2 PUSH2 0x8A3 JUMP JUMPDEST SWAP2 POP POP JUMPDEST SWAP4 SWAP3 POP POP POP JUMP JUMPDEST PUSH1 0x1 SLOAD PUSH1 0x1 PUSH1 0x1 PUSH1 0xA0 SHL SUB AND DUP2 JUMP JUMPDEST PUSH1 0x0 PUSH2 0x438 DUP6 PUSH2 0xA91 JUMP JUMPDEST PUSH1 0x0 PUSH2 0x443 DUP7 PUSH2 0xCC4 JUMP JUMPDEST SWAP1 POP PUSH2 0x452 DUP7 DUP7 DUP7 DUP7 DUP6 PUSH2 0xCE7 JUMP JUMPDEST SWAP2 POP POP JUMPDEST SWAP5 SWAP4 POP POP POP POP JUMP JUMPDEST PUSH1 0x0 SLOAD PUSH5 0x100000000 SWAP1 DIV PUSH1 0x1 PUSH1 0x1 PUSH1 0xA0 SHL SUB AND DUP2 JUMP JUMPDEST PUSH1 0x0 DUP1 PUSH2 0x481 DUP5 PUSH2 0xD7D JUMP JUMPDEST SWAP1 POP PUSH2 0x48B PUSH2 0x4433 JUMP JUMPDEST PUSH1 0x0 PUSH2 0x496 DUP4 PUSH2 0xE24 JUMP JUMPDEST ISZERO PUSH2 0x50C JUMPI PUSH1 0x60 DUP4 ADD MLOAD PUSH2 0x4AE SWAP1 DUP4 SWAP1 DUP9 SWAP1 DUP7 PUSH2 0xE31 JUMP JUMPDEST PUSH1 0x0 DUP3 PUSH1 0x40 ADD MLOAD SGT ISZERO PUSH2 0x50C JUMPI PUSH1 0x0 PUSH2 0x4CE DUP4 PUSH1 0x0 ADD MLOAD PUSH2 0xFFFF AND PUSH2 0xED7 JUMP JUMPDEST SWAP1 POP PUSH1 0x0 PUSH2 0x4DC DUP3 DUP9 PUSH2 0xEFD JUMP JUMPDEST POP SWAP2 POP POP PUSH1 0x0 PUSH2 0x4FA DUP6 DUP5 DUP5 PUSH2 0x4F5 DUP10 PUSH1 0x40 ADD MLOAD PUSH2 0xF93 JUMP JUMPDEST PUSH2 0xFA2 JUMP JUMPDEST SWAP1 POP PUSH2 0x506 DUP5 DUP3 PUSH2 0x10CF JUMP JUMPDEST SWAP4 POP POP POP POP JUMPDEST PUSH1 0x80 DUP4 ADD MLOAD JUMPDEST PUSH1 0x1 PUSH1 0x1 PUSH1 0x70 SHL SUB NOT DUP2 AND ISZERO PUSH2 0x5A3 JUMPI PUSH1 0xF0 DUP2 SWAP1 SHR PUSH2 0x3FFF AND PUSH2 0x537 DUP5 DUP10 DUP4 DUP9 PUSH2 0xE31 JUMP JUMPDEST PUSH1 0x0 DUP5 PUSH1 0x40 ADD MLOAD SGT ISZERO PUSH2 0x590 JUMPI PUSH1 0x0 PUSH2 0x557 DUP6 PUSH1 0x0 ADD MLOAD PUSH2 0xFFFF AND PUSH2 0xED7 JUMP JUMPDEST SWAP1 POP PUSH1 0x0 PUSH2 0x565 DUP3 DUP11 PUSH2 0xEFD JUMP JUMPDEST POP SWAP2 POP POP PUSH1 0x0 PUSH2 0x57E DUP8 DUP5 DUP5 PUSH2 0x4F5 DUP12 PUSH1 0x40 ADD MLOAD PUSH2 0xF93 JUMP JUMPDEST SWAP1 POP PUSH2 0x58A DUP7 DUP3 PUSH2 0x10CF JUMP JUMPDEST SWAP6 POP POP POP POP JUMPDEST POP PUSH1 0x10 SHL PUSH1 0x1 PUSH1 0x1 PUSH1 0x80 SHL SUB NOT AND PUSH2 0x512 JUMP JUMPDEST POP SWAP6 SWAP5 POP POP POP POP POP JUMP JUMPDEST PUSH1 0x0 DUP1 PUSH1 0x0 DUP1 PUSH2 0x5BD DUP8 DUP7 PUSH2 0x320 JUMP JUMPDEST SWAP2 POP PUSH1 0x0 DUP3 PUSH1 0xFF AND GT PUSH2 0x5CF JUMPI PUSH1 0x0 DUP1 REVERT JUMPDEST PUSH11 0x7FFFFFFFFFFFFFFFFFFFFF DUP9 LT PUSH2 0x5E6 JUMPI PUSH1 0x0 DUP1 REVERT JUMPDEST PUSH1 0x0 PUSH2 0x5F1 DUP10 PUSH2 0x885 JUMP JUMPDEST SWAP1 POP PUSH1 0x0 DUP1 PUSH2 0x60C DUP13 DUP5 DUP8 PUSH1 0xFF AND DUP12 DUP14 PUSH4 0xFFFFFFFF AND PUSH2 0x789 JUMP JUMPDEST SWAP2 POP SWAP2 POP PUSH2 0x61C DUP13 DUP3 PUSH1 0x1 PUSH2 0x8B1 JUMP JUMPDEST SWAP7 POP PUSH2 0x62A DUP13 DUP4 PUSH1 0x0 PUSH2 0x8B1 JUMP JUMPDEST SWAP6 POP PUSH2 0x30C PUSH1 0x0 DUP7 DUP6 PUSH1 0xA SIGNEXTEND DUP13 PUSH2 0x96B JUMP JUMPDEST PUSH1 0x0 DUP1 PUSH1 0x0 PUSH2 0x64B DUP8 DUP7 PUSH2 0x320 JUMP JUMPDEST SWAP2 POP PUSH1 0x0 DUP3 PUSH1 0xFF AND GT PUSH2 0x65D JUMPI PUSH1 0x0 DUP1 REVERT JUMPDEST PUSH1 0x0 DUP1 PUSH2 0x66B DUP12 DUP12 DUP9 PUSH2 0x1129 JUMP JUMPDEST SWAP2 POP SWAP2 POP PUSH1 0x0 PUSH2 0x689 DUP13 PUSH2 0x67E DUP6 PUSH2 0x11C9 JUMP JUMPDEST DUP8 PUSH1 0xFF AND DUP12 DUP7 PUSH2 0xCE7 JUMP JUMPDEST SWAP1 POP PUSH1 0x0 DUP2 SLT PUSH2 0x698 JUMPI PUSH1 0x0 DUP1 REVERT JUMPDEST PUSH2 0x6A5 PUSH1 0x1 DUP7 DUP4 DUP13 PUSH2 0x96B JUMP JUMPDEST SWAP14 SWAP6 SWAP13 POP SWAP11 POP SWAP4 SWAP9 POP POP POP POP POP POP POP POP POP JUMP JUMPDEST PUSH20 0x0 SWAP1 JUMP JUMPDEST PUSH1 0x0 DUP1 PUSH2 0x6DC DUP8 PUSH2 0xCC4 JUMP JUMPDEST SWAP1 POP DUP3 ISZERO PUSH2 0x702 JUMPI PUSH2 0x6FB DUP2 DUP7 DUP9 DUP8 PUSH2 0x6F6 DUP5 DUP4 DUP4 PUSH2 0x11FB JUMP JUMPDEST PUSH2 0x12EB JUMP JUMPDEST SWAP2 POP PUSH2 0x5A3 JUMP JUMPDEST PUSH2 0x718 DUP6 DUP8 DUP7 PUSH2 0x713 DUP6 DUP4 DUP4 PUSH2 0x11FB JUMP JUMPDEST PUSH2 0x138B JUMP JUMPDEST SWAP8 SWAP7 POP POP POP POP POP POP POP JUMP JUMPDEST PUSH1 0x0 DUP1 PUSH1 0x0 PUSH2 0x732 DUP8 DUP7 PUSH2 0x320 JUMP JUMPDEST SWAP2 POP PUSH1 0x0 DUP3 PUSH1 0xFF AND GT PUSH2 0x744 JUMPI PUSH1 0x0 DUP1 REVERT JUMPDEST PUSH1 0x0 DUP1 PUSH2 0x752 DUP12 DUP12 DUP9 PUSH2 0x1129 JUMP JUMPDEST SWAP2 POP SWAP2 POP PUSH1 0x0 PUSH2 0x76D DUP13 PUSH2 0x67E PUSH2 0x768 DUP7 PUSH2 0x8A3 JUMP JUMPDEST PUSH2 0x11C9 JUMP JUMPDEST SWAP1 POP DUP1 PUSH1 0x0 SLT PUSH2 0x77C JUMPI PUSH1 0x0 DUP1 REVERT JUMPDEST PUSH2 0x6A5 PUSH1 0x0 DUP7 DUP4 DUP13 PUSH2 0x96B JUMP JUMPDEST PUSH1 0x0 DUP1 PUSH2 0x795 DUP8 PUSH2 0xA91 JUMP JUMPDEST PUSH1 0x0 PUSH2 0x7A0 DUP9 PUSH2 0xCC4 JUMP JUMPDEST SWAP1 POP PUSH2 0x7AA PUSH2 0x4483 JUMP JUMPDEST PUSH2 0x7B8 DUP3 DUP3 DUP10 PUSH1 0x0 DUP11 PUSH2 0x13D1 JUMP JUMPDEST DUP6 DUP2 PUSH1 0x20 ADD MLOAD GT PUSH2 0x7E4 JUMPI PUSH1 0x40 MLOAD PUSH3 0x461BCD PUSH1 0xE5 SHL DUP2 MSTORE PUSH1 0x4 ADD PUSH2 0x7DB SWAP1 PUSH2 0x49FD JUMP JUMPDEST PUSH1 0x40 MLOAD DUP1 SWAP2 SUB SWAP1 REVERT JUMPDEST PUSH1 0x20 DUP2 ADD MLOAD DUP7 SWAP1 SUB PUSH1 0x0 PUSH2 0x7FF DUP4 DUP6 PUSH1 0xA DUP14 SWAP1 SIGNEXTEND DUP6 DUP14 PUSH2 0x144C JUMP JUMPDEST POP SWAP1 POP DUP7 ISZERO PUSH2 0x861 JUMPI PUSH1 0x0 DUP11 PUSH1 0xA SIGNEXTEND SLT ISZERO PUSH2 0x83D JUMPI DUP7 DUP4 PUSH1 0xA0 ADD MLOAD GT ISZERO PUSH2 0x838 JUMPI PUSH1 0x40 MLOAD PUSH3 0x461BCD PUSH1 0xE5 SHL DUP2 MSTORE PUSH1 0x4 ADD PUSH2 0x7DB SWAP1 PUSH2 0x49CD JUMP JUMPDEST PUSH2 0x861 JUMP JUMPDEST DUP7 DUP4 PUSH1 0xA0 ADD MLOAD LT ISZERO PUSH2 0x861 JUMPI PUSH1 0x40 MLOAD PUSH3 0x461BCD PUSH1 0xE5 SHL DUP2 MSTORE PUSH1 0x4 ADD PUSH2 0x7DB SWAP1 PUSH2 0x49CD JUMP JUMPDEST PUSH1 0x40 DUP5 ADD MLOAD DUP2 SWAP1 PUSH2 0x872 SWAP1 DUP3 PUSH2 0xC78 JUMP JUMPDEST SWAP6 POP SWAP6 POP POP POP POP POP JUMPDEST SWAP6 POP SWAP6 SWAP4 POP POP POP POP JUMP JUMPDEST PUSH1 0x0 PUSH1 0x1 PUSH1 0x1 PUSH1 0xFF SHL SUB DUP3 GT ISZERO PUSH2 0x89B JUMPI PUSH1 0x0 DUP1 REVERT JUMPDEST POP DUP1 JUMPDEST SWAP2 SWAP1 POP JUMP JUMPDEST PUSH1 0x0 PUSH2 0x3B0 PUSH1 0x0 NOT DUP4 PUSH2 0x154F JUMP JUMPDEST PUSH1 0x0 DUP1 PUSH1 0x0 DUP4 PUSH2 0x8CD JUMPI PUSH2 0x8C8 DUP7 PUSH2 0xFFFF AND PUSH2 0xACE JUMP JUMPDEST PUSH2 0x8DA JUMP JUMPDEST PUSH2 0x8DA DUP7 PUSH2 0xFFFF AND PUSH2 0x159D JUMP JUMPDEST SWAP1 POP DUP4 DUP1 ISZERO PUSH2 0x8E9 JUMPI POP PUSH1 0x0 DUP6 SLT JUMPDEST ISZERO PUSH2 0x908 JUMPI PUSH2 0x901 PUSH2 0x8FA DUP7 PUSH2 0x8A3 JUMP JUMPDEST DUP3 SWAP1 PUSH2 0x15B0 JUMP JUMPDEST SWAP2 POP PUSH2 0x91D JUMP JUMPDEST PUSH2 0x91A PUSH2 0x915 DUP3 DUP8 PUSH2 0x15ED JUMP JUMPDEST PUSH2 0xCA3 JUMP JUMPDEST SWAP2 POP JUMPDEST PUSH1 0x5 DUP2 PUSH1 0x60 ADD MLOAD PUSH1 0x5 DUP2 GT ISZERO PUSH2 0x92F JUMPI INVALID JUMPDEST EQ ISZERO PUSH2 0x958 JUMPI PUSH1 0x0 PUSH2 0x944 DUP8 PUSH2 0xFFFF AND PUSH2 0x159D JUMP JUMPDEST SWAP1 POP PUSH2 0x954 DUP2 PUSH1 0x0 ADD MLOAD DUP5 PUSH2 0x1625 JUMP JUMPDEST SWAP3 POP POP JUMPDEST PUSH2 0x961 DUP3 PUSH2 0xF93 JUMP JUMPDEST SWAP7 SWAP6 POP POP POP POP POP POP JUMP JUMPDEST PUSH1 0x0 DUP1 PUSH1 0x0 PUSH2 0x979 DUP6 PUSH2 0xCA3 JUMP JUMPDEST SWAP1 POP PUSH1 0x1 PUSH1 0x1 PUSH1 0x58 SHL SUB DUP2 GT ISZERO PUSH2 0x98F JUMPI PUSH1 0x0 DUP1 REVERT JUMPDEST PUSH1 0x78 DUP5 PUSH4 0xFFFFFFFF AND SWAP1 SHL PUSH1 0x98 DUP3 SWAP1 SHL PUSH1 0xF0 DUP9 PUSH1 0xFF AND SWAP1 SHL PUSH1 0xF8 DUP11 PUSH1 0x5 DUP2 GT ISZERO PUSH2 0x9B5 JUMPI INVALID JUMPDEST PUSH1 0xFF AND SWAP1 SHL OR OR OR SWAP8 SWAP1 SWAP7 POP SWAP5 POP POP POP POP POP JUMP JUMPDEST PUSH1 0x0 DUP1 PUSH1 0x0 DUP6 GT PUSH2 0x9EC JUMPI PUSH1 0x40 MLOAD PUSH3 0x461BCD PUSH1 0xE5 SHL DUP2 MSTORE PUSH1 0x4 ADD PUSH2 0x7DB SWAP1 PUSH2 0x491F JUMP JUMPDEST PUSH1 0x7 DUP6 GT ISZERO PUSH2 0xA0D JUMPI PUSH1 0x40 MLOAD PUSH3 0x461BCD PUSH1 0xE5 SHL DUP2 MSTORE PUSH1 0x4 ADD PUSH2 0x7DB SWAP1 PUSH2 0x4975 JUMP JUMPDEST PUSH1 0x0 PUSH2 0xA18 DUP5 PUSH2 0x16AB JUMP JUMPDEST SWAP1 POP PUSH1 0x1 JUMPDEST DUP7 DUP2 GT PUSH2 0xA70 JUMPI PUSH1 0x0 PUSH2 0xA39 PUSH2 0xA32 DUP4 PUSH2 0x16CC JUMP JUMPDEST DUP5 SWAP1 PUSH2 0x10CF JUMP JUMPDEST SWAP1 POP DUP7 DUP2 EQ ISZERO PUSH2 0xA51 JUMPI POP SWAP3 POP PUSH1 0x0 SWAP2 POP PUSH2 0xA89 SWAP1 POP JUMP JUMPDEST DUP7 DUP2 GT ISZERO PUSH2 0xA67 JUMPI POP SWAP3 POP PUSH1 0x1 SWAP2 POP PUSH2 0xA89 SWAP1 POP JUMP JUMPDEST POP PUSH1 0x1 ADD PUSH2 0xA1D JUMP JUMPDEST POP PUSH1 0x40 MLOAD PUSH3 0x461BCD PUSH1 0xE5 SHL DUP2 MSTORE PUSH1 0x4 ADD PUSH2 0x7DB SWAP1 PUSH2 0x4A56 JUMP JUMPDEST SWAP4 POP SWAP4 SWAP2 POP POP JUMP JUMPDEST DUP1 PUSH2 0xFFFF AND PUSH1 0x0 LT DUP1 ISZERO PUSH2 0xAAF JUMPI POP PUSH1 0x0 SLOAD PUSH2 0xFFFF SWAP1 DUP2 AND SWAP1 DUP3 AND GT ISZERO JUMPDEST PUSH2 0xACB JUMPI PUSH1 0x40 MLOAD PUSH3 0x461BCD PUSH1 0xE5 SHL DUP2 MSTORE PUSH1 0x4 ADD PUSH2 0x7DB SWAP1 PUSH2 0x4A29 JUMP JUMPDEST POP JUMP JUMPDEST PUSH2 0xAD6 PUSH2 0x44CB JUMP JUMPDEST PUSH2 0x3B0 DUP3 PUSH1 0x0 PUSH2 0x1770 JUMP JUMPDEST PUSH1 0x0 PUSH4 0x5F5E100 DUP4 PUSH1 0x40 ADD MLOAD EQ ISZERO PUSH2 0xAFA JUMPI POP DUP1 PUSH2 0x3B0 JUMP JUMPDEST PUSH1 0x40 DUP4 ADD MLOAD PUSH2 0x417 SWAP1 PUSH2 0xB11 DUP5 PUSH4 0x5F5E100 PUSH2 0x154F JUMP JUMPDEST SWAP1 PUSH2 0x181E JUMP JUMPDEST PUSH2 0xB21 DUP3 DUP3 PUSH2 0x184F JUMP JUMPDEST PUSH2 0xB2A DUP2 PUSH2 0xCC4 JUMP JUMPDEST SWAP1 SWAP2 MSTORE POP JUMP JUMPDEST PUSH1 0x0 DUP1 DUP4 SLT ISZERO PUSH2 0xB3F JUMPI PUSH1 0x0 DUP1 REVERT JUMPDEST DUP3 PUSH2 0xB4C JUMPI POP PUSH1 0x0 PUSH2 0x417 JUMP JUMPDEST PUSH1 0x80 DUP5 ADD MLOAD ISZERO PUSH2 0xB84 JUMPI PUSH1 0x0 PUSH2 0xB61 DUP6 PUSH2 0x18F2 JUMP JUMPDEST SWAP1 POP DUP3 DUP2 GT PUSH2 0xB82 JUMPI PUSH1 0x40 MLOAD PUSH3 0x461BCD PUSH1 0xE5 SHL DUP2 MSTORE PUSH1 0x4 ADD PUSH2 0x7DB SWAP1 PUSH2 0x48CA JUMP JUMPDEST POP JUMPDEST PUSH1 0x0 PUSH2 0xB90 DUP6 DUP5 PUSH2 0x1923 JUMP JUMPDEST SWAP1 POP PUSH1 0x0 DUP2 SLT ISZERO PUSH2 0xBA0 JUMPI PUSH1 0x0 DUP1 REVERT JUMPDEST PUSH1 0x40 DUP6 ADD MLOAD PUSH2 0xBB2 JUMPI DUP4 SWAP2 POP POP PUSH2 0x417 JUMP JUMPDEST PUSH2 0xBCD DUP2 PUSH2 0xB11 DUP8 PUSH1 0x40 ADD MLOAD DUP8 PUSH2 0x154F SWAP1 SWAP2 SWAP1 PUSH4 0xFFFFFFFF AND JUMP JUMPDEST SWAP2 POP POP PUSH2 0x417 JUMP JUMPDEST PUSH1 0x0 DUP1 DUP3 SLT ISZERO PUSH2 0x89B JUMPI PUSH1 0x40 DUP1 MLOAD PUSH3 0x461BCD PUSH1 0xE5 SHL DUP2 MSTORE PUSH1 0x20 PUSH1 0x4 DUP3 ADD DUP2 SWAP1 MSTORE PUSH1 0x24 DUP3 ADD MSTORE PUSH32 0x53616665436173743A2076616C7565206D75737420626520706F736974697665 PUSH1 0x44 DUP3 ADD MSTORE SWAP1 MLOAD SWAP1 DUP2 SWAP1 SUB PUSH1 0x64 ADD SWAP1 REVERT JUMPDEST PUSH2 0xC34 PUSH2 0x44FA JUMP JUMPDEST PUSH1 0x0 DUP1 PUSH1 0x0 PUSH2 0xC42 DUP6 PUSH2 0x19D4 JUMP JUMPDEST PUSH1 0x40 DUP1 MLOAD PUSH1 0x60 DUP2 ADD DUP3 MSTORE PUSH1 0x1 PUSH1 0x1 PUSH1 0xA0 SHL SUB SWAP1 SWAP4 AND DUP4 MSTORE PUSH1 0x20 DUP4 ADD SWAP4 SWAP1 SWAP4 MSTORE PUSH1 0xFF AND PUSH1 0xA EXP SWAP2 DUP2 ADD SWAP2 SWAP1 SWAP2 MSTORE SWAP4 POP POP POP POP SWAP2 SWAP1 POP JUMP JUMPDEST PUSH1 0x0 DUP1 PUSH2 0x456 DUP5 PUSH1 0x40 ADD MLOAD PUSH2 0xB11 PUSH5 0x2540BE400 PUSH2 0xB11 DUP8 DUP10 PUSH1 0x20 ADD MLOAD PUSH2 0x154F SWAP1 SWAP2 SWAP1 PUSH4 0xFFFFFFFF AND JUMP JUMPDEST PUSH1 0x0 DUP1 DUP3 SLT ISZERO PUSH2 0xCBD JUMPI PUSH2 0xCB6 DUP3 PUSH2 0x8A3 JUMP JUMPDEST SWAP1 POP PUSH2 0x89E JUMP JUMPDEST POP DUP1 PUSH2 0x89E JUMP JUMPDEST PUSH2 0xCCC PUSH2 0x4524 JUMP JUMPDEST PUSH1 0x0 PUSH2 0xCDB DUP4 PUSH2 0xFFFF AND PUSH2 0xC2C JUMP JUMPDEST SWAP1 POP PUSH2 0x417 DUP4 DUP3 PUSH2 0x1A95 JUMP JUMPDEST PUSH1 0x0 PUSH2 0xCF1 PUSH2 0x4483 JUMP JUMPDEST PUSH2 0xCFF DUP4 DUP3 DUP8 PUSH1 0x0 DUP9 PUSH2 0x13D1 JUMP JUMPDEST DUP4 DUP2 PUSH1 0x20 ADD MLOAD GT PUSH2 0xD22 JUMPI PUSH1 0x40 MLOAD PUSH3 0x461BCD PUSH1 0xE5 SHL DUP2 MSTORE PUSH1 0x4 ADD PUSH2 0x7DB SWAP1 PUSH2 0x49FD JUMP JUMPDEST PUSH1 0x20 DUP2 ADD MLOAD DUP5 SWAP1 SUB PUSH1 0x0 DUP1 DUP1 PUSH2 0xD3A DUP6 DUP9 DUP7 DUP13 PUSH2 0x1AD8 JUMP JUMPDEST SWAP3 POP SWAP3 POP SWAP3 POP PUSH1 0x0 PUSH2 0xD54 PUSH2 0xD4E DUP10 PUSH2 0x1B7A JUMP JUMPDEST DUP7 PUSH2 0x1B8F JUMP JUMPDEST SWAP1 POP PUSH2 0xD6D DUP7 PUSH1 0x40 ADD MLOAD DUP13 PUSH1 0xA SIGNEXTEND DUP6 DUP8 DUP7 DUP7 PUSH1 0x0 PUSH2 0x1BFA JUMP JUMPDEST SWAP13 SWAP12 POP POP POP POP POP POP POP POP POP POP POP POP JUMP JUMPDEST PUSH2 0xD85 PUSH2 0x4550 JUMP JUMPDEST PUSH1 0x0 PUSH2 0xD8F PUSH2 0x1CAA JUMP JUMPDEST PUSH1 0x1 PUSH1 0x1 PUSH1 0xA0 SHL SUB SWAP4 SWAP1 SWAP4 AND PUSH1 0x0 SWAP1 DUP2 MSTORE PUSH1 0x20 SWAP4 DUP5 MSTORE PUSH1 0x40 SWAP1 DUP2 SWAP1 KECCAK256 DUP2 MLOAD PUSH1 0xA0 DUP2 ADD DUP4 MSTORE SWAP1 SLOAD PUSH5 0xFFFFFFFFFF DUP2 AND DUP3 MSTORE PUSH6 0x10000000000 DUP2 DIV PUSH1 0xF8 SHL PUSH1 0x1 PUSH1 0x1 PUSH1 0xF8 SHL SUB NOT AND SWAP6 DUP3 ADD SWAP6 SWAP1 SWAP6 MSTORE PUSH1 0x1 PUSH1 0x30 SHL DUP6 DIV PUSH1 0xFF AND SWAP2 DUP2 ADD SWAP2 SWAP1 SWAP2 MSTORE PUSH1 0x1 PUSH1 0x38 SHL DUP5 DIV PUSH2 0xFFFF AND PUSH1 0x60 DUP3 ADD MSTORE PUSH10 0x1000000000000000000 SWAP1 SWAP4 DIV PUSH1 0x70 SHL PUSH1 0x1 PUSH1 0x1 PUSH1 0x70 SHL SUB NOT AND PUSH1 0x80 DUP5 ADD MSTORE POP SWAP1 SWAP2 SWAP1 POP JUMP JUMPDEST PUSH1 0x60 ADD MLOAD PUSH2 0xFFFF AND ISZERO ISZERO SWAP1 JUMP JUMPDEST DUP2 PUSH2 0xFFFF AND PUSH1 0x0 LT DUP1 ISZERO PUSH2 0xE4B JUMPI POP PUSH2 0x3FFF PUSH2 0xFFFF DUP4 AND GT ISZERO JUMPDEST PUSH2 0xE54 JUMPI PUSH1 0x0 DUP1 REVERT JUMPDEST PUSH2 0xFFFF DUP3 AND DUP1 DUP6 MSTORE PUSH2 0xE67 SWAP1 DUP3 SWAP1 PUSH2 0x1CB7 JUMP JUMPDEST ISZERO PUSH2 0xE94 JUMPI PUSH2 0xE7A DUP4 DUP4 PUSH2 0xFFFF AND PUSH2 0x1D41 JUMP JUMPDEST PUSH2 0x100 DUP9 ADD MSTORE PUSH1 0xE0 DUP8 ADD MSTORE PUSH1 0x40 DUP7 ADD MSTORE PUSH1 0x20 DUP6 ADD MSTORE PUSH2 0xEB2 JUMP JUMPDEST PUSH1 0x0 PUSH1 0x20 DUP6 ADD DUP2 SWAP1 MSTORE PUSH1 0x40 DUP6 ADD DUP2 SWAP1 MSTORE PUSH1 0xE0 DUP6 ADD DUP2 SWAP1 MSTORE PUSH2 0x100 DUP6 ADD MSTORE JUMPDEST POP POP PUSH1 0x0 PUSH1 0x60 DUP4 ADD DUP2 SWAP1 MSTORE PUSH1 0x80 DUP4 ADD DUP2 SWAP1 MSTORE PUSH1 0xA0 DUP4 ADD DUP2 SWAP1 MSTORE PUSH1 0xC0 SWAP1 SWAP3 ADD SWAP2 SWAP1 SWAP2 MSTORE POP JUMP JUMPDEST PUSH1 0x0 DUP1 PUSH2 0xEE2 PUSH2 0x1DED JUMP JUMPDEST PUSH1 0x0 SWAP4 DUP5 MSTORE PUSH1 0x20 MSTORE POP POP PUSH1 0x40 SWAP1 KECCAK256 SLOAD PUSH1 0x1 PUSH1 0x1 PUSH1 0xA0 SHL SUB AND SWAP1 JUMP JUMPDEST PUSH1 0x0 DUP1 PUSH1 0x0 PUSH2 0xF0B DUP6 PUSH2 0x1DFA JUMP JUMPDEST SWAP2 SWAP5 POP SWAP3 POP SWAP1 POP DUP1 DUP5 GT DUP1 ISZERO PUSH2 0xF21 JUMPI POP PUSH1 0x0 DUP2 GT JUMPDEST DUP1 ISZERO PUSH2 0xF2D JUMPI POP PUSH1 0x0 DUP4 GT JUMPDEST ISZERO PUSH2 0xF8C JUMPI PUSH1 0x0 PUSH2 0xF3D DUP7 PUSH2 0x1E5B JUMP JUMPDEST POP POP POP SWAP2 POP POP PUSH1 0x0 PUSH2 0xF68 PUSH2 0xF5F PUSH4 0x5F5E100 DUP5 PUSH2 0x1EC4 SWAP1 SWAP2 SWAP1 PUSH4 0xFFFFFFFF AND JUMP JUMPDEST DUP5 DUP9 SUB DUP8 PUSH2 0x1F1D JUMP JUMPDEST SWAP1 POP PUSH2 0xF74 DUP5 DUP3 PUSH2 0x10CF JUMP JUMPDEST SWAP4 POP PUSH1 0x1 PUSH1 0x1 PUSH1 0x80 SHL SUB DUP5 LT PUSH2 0xF89 JUMPI PUSH1 0x0 DUP1 REVERT JUMPDEST POP POP JUMPDEST SWAP3 POP SWAP3 POP SWAP3 JUMP JUMPDEST PUSH1 0x0 DUP1 DUP3 SLT ISZERO PUSH2 0x89B JUMPI PUSH1 0x0 DUP1 REVERT JUMPDEST PUSH1 0xE0 DUP5 ADD MLOAD PUSH1 0x0 SWAP1 ISZERO PUSH2 0x1063 JUMPI PUSH20 0x0 PUSH4 0xE0C01A72 DUP6 PUSH2 0xFD7 DUP9 PUSH1 0x40 ADD MLOAD PUSH2 0xF93 JUMP JUMPDEST DUP9 PUSH1 0xE0 ADD MLOAD DUP10 PUSH2 0x100 ADD MLOAD PUSH1 0x40 MLOAD DUP6 PUSH4 0xFFFFFFFF AND PUSH1 0xE0 SHL DUP2 MSTORE PUSH1 0x4 ADD PUSH2 0x1001 SWAP5 SWAP4 SWAP3 SWAP2 SWAP1 PUSH2 0x485D JUMP JUMPDEST PUSH1 0x20 PUSH1 0x40 MLOAD DUP1 DUP4 SUB DUP2 DUP7 DUP1 EXTCODESIZE ISZERO DUP1 ISZERO PUSH2 0x1019 JUMPI PUSH1 0x0 DUP1 REVERT JUMPDEST POP GAS DELEGATECALL ISZERO DUP1 ISZERO PUSH2 0x102D JUMPI RETURNDATASIZE PUSH1 0x0 DUP1 RETURNDATACOPY RETURNDATASIZE PUSH1 0x0 REVERT JUMPDEST POP POP POP POP PUSH1 0x40 MLOAD RETURNDATASIZE PUSH1 0x1F NOT PUSH1 0x1F DUP3 ADD AND DUP3 ADD DUP1 PUSH1 0x40 MSTORE POP DUP2 ADD SWAP1 PUSH2 0x1051 SWAP2 SWAP1 PUSH2 0x4652 JUMP JUMPDEST PUSH1 0x0 PUSH1 0xE0 DUP8 ADD DUP2 SWAP1 MSTORE PUSH2 0x100 DUP8 ADD MSTORE SWAP1 POP JUMPDEST PUSH2 0x10A5 PUSH2 0x109E DUP7 PUSH2 0x100 ADD MLOAD PUSH2 0x1098 PUSH8 0xDE0B6B3A7640000 PUSH2 0x1092 DUP9 PUSH2 0x108C DUP13 PUSH1 0x40 ADD MLOAD PUSH2 0xF93 JUMP JUMPDEST SWAP1 PUSH2 0x1EC4 JUMP JUMPDEST SWAP1 PUSH2 0x1F3F JUMP JUMPDEST SWAP1 PUSH2 0x1FA6 JUMP JUMPDEST DUP3 SWAP1 PUSH2 0x10CF JUMP JUMPDEST SWAP1 POP PUSH2 0x10BD PUSH8 0xDE0B6B3A7640000 PUSH2 0x1092 DUP5 DUP7 PUSH2 0x1EC4 JUMP JUMPDEST DUP6 PUSH2 0x100 ADD DUP2 DUP2 MSTORE POP POP SWAP5 SWAP4 POP POP POP POP JUMP JUMPDEST PUSH1 0x0 DUP3 DUP3 ADD DUP4 DUP2 LT ISZERO PUSH2 0x417 JUMPI PUSH1 0x40 DUP1 MLOAD PUSH3 0x461BCD PUSH1 0xE5 SHL DUP2 MSTORE PUSH1 0x20 PUSH1 0x4 DUP3 ADD MSTORE PUSH1 0x1B PUSH1 0x24 DUP3 ADD MSTORE PUSH32 0x536166654D6174683A206164646974696F6E206F766572666C6F770000000000 PUSH1 0x44 DUP3 ADD MSTORE SWAP1 MLOAD SWAP1 DUP2 SWAP1 SUB PUSH1 0x64 ADD SWAP1 REVERT JUMPDEST PUSH1 0x0 PUSH2 0x1133 PUSH2 0x4524 JUMP JUMPDEST PUSH1 0x0 PUSH2 0x113E DUP6 PUSH2 0x885 JUMP JUMPDEST SWAP1 POP PUSH2 0x1149 DUP7 PUSH2 0xCC4 JUMP JUMPDEST SWAP2 POP PUSH1 0x0 DUP5 PUSH2 0x1164 JUMPI PUSH2 0x115F DUP8 PUSH2 0xFFFF AND PUSH2 0xACE JUMP JUMPDEST PUSH2 0x1171 JUMP JUMPDEST PUSH2 0x1171 DUP8 PUSH2 0xFFFF AND PUSH2 0x159D JUMP JUMPDEST SWAP1 POP PUSH1 0x5 DUP2 PUSH1 0x60 ADD MLOAD PUSH1 0x5 DUP2 GT ISZERO PUSH2 0x1185 JUMPI INVALID JUMPDEST EQ ISZERO PUSH2 0x119C JUMPI PUSH2 0x1199 DUP8 PUSH2 0xFFFF AND DUP4 PUSH2 0x2003 JUMP JUMPDEST SWAP2 POP JUMPDEST PUSH2 0x11A6 DUP2 DUP4 PUSH2 0xAE1 JUMP JUMPDEST SWAP4 POP DUP5 PUSH2 0x11BF JUMPI PUSH1 0x40 DUP4 ADD MLOAD PUSH2 0x11BC SWAP1 DUP6 PUSH2 0xC78 JUMP JUMPDEST SWAP4 POP JUMPDEST POP POP SWAP4 POP SWAP4 SWAP2 POP POP JUMP JUMPDEST PUSH1 0x0 PUSH11 0x7FFFFFFFFFFFFFFFFFFFFF NOT DUP3 SLT DUP1 ISZERO SWAP1 PUSH2 0x11F2 JUMPI POP PUSH11 0x7FFFFFFFFFFFFFFFFFFFFF DUP3 SGT ISZERO JUMPDEST PUSH2 0x89B JUMPI PUSH1 0x0 DUP1 REVERT JUMPDEST PUSH1 0x0 DUP1 PUSH1 0x0 PUSH2 0x120F DUP7 PUSH1 0x20 ADD MLOAD DUP7 DUP7 PUSH2 0x9C9 JUMP JUMPDEST SWAP2 POP SWAP2 POP PUSH1 0x0 PUSH2 0x121E DUP8 PUSH2 0x208A JUMP JUMPDEST SWAP1 POP DUP2 PUSH2 0x1241 JUMPI DUP7 MLOAD PUSH2 0x1237 SWAP1 PUSH2 0xFFFF AND DUP8 DUP4 DUP9 PUSH2 0x209E JUMP JUMPDEST SWAP4 POP POP POP POP PUSH2 0x417 JUMP JUMPDEST PUSH1 0x0 PUSH2 0x124C DUP7 PUSH2 0x16AB JUMP JUMPDEST SWAP1 POP PUSH1 0x0 PUSH2 0x1263 PUSH2 0x125C DUP7 PUSH2 0x16CC JUMP JUMPDEST DUP4 SWAP1 PUSH2 0x10CF JUMP JUMPDEST SWAP1 POP PUSH1 0x0 PUSH2 0x127B DUP11 PUSH1 0x0 ADD MLOAD PUSH2 0xFFFF AND DUP4 DUP7 DUP12 PUSH2 0x209E JUMP JUMPDEST SWAP1 POP PUSH1 0x0 DUP1 DUP8 PUSH1 0x1 EQ ISZERO PUSH2 0x12A0 JUMPI DUP10 SWAP2 POP PUSH2 0x1299 DUP13 PUSH1 0x40 ADD MLOAD PUSH2 0x213D JUMP JUMPDEST SWAP1 POP PUSH2 0x12CF JUMP JUMPDEST PUSH2 0x12B6 PUSH2 0x12AF PUSH1 0x1 DUP11 SUB PUSH2 0x16CC JUMP JUMPDEST DUP7 SWAP1 PUSH2 0x10CF JUMP JUMPDEST SWAP2 POP PUSH2 0x12CC DUP13 PUSH1 0x0 ADD MLOAD PUSH2 0xFFFF AND DUP4 DUP9 DUP14 PUSH2 0x209E JUMP JUMPDEST SWAP1 POP JUMPDEST PUSH2 0x12DC DUP3 DUP6 DUP4 DUP7 DUP16 PUSH2 0x21CE JUMP JUMPDEST SWAP9 POP POP POP POP POP POP POP POP POP PUSH2 0x417 JUMP JUMPDEST PUSH1 0x0 DUP5 PUSH2 0x12FA JUMPI POP PUSH1 0x0 PUSH2 0x343 JUMP JUMPDEST PUSH1 0x0 PUSH2 0x1306 DUP6 DUP6 PUSH2 0x1FA6 JUMP JUMPDEST SWAP1 POP PUSH1 0x0 DUP1 DUP8 SGT ISZERO PUSH2 0x1335 JUMPI PUSH2 0x132E DUP3 PUSH2 0x1329 PUSH2 0x1322 DUP12 PUSH2 0x222C JUMP JUMPDEST DUP8 SWAP1 PUSH2 0x10CF JUMP JUMPDEST PUSH2 0x2241 JUMP JUMPDEST SWAP1 POP PUSH2 0x1364 JUMP JUMPDEST PUSH1 0x0 PUSH2 0x1340 DUP10 PUSH2 0x22A9 JUMP JUMPDEST SWAP1 POP DUP5 DUP2 LT PUSH2 0x1354 JUMPI DUP8 SWAP4 POP POP POP POP PUSH2 0x343 JUMP JUMPDEST PUSH2 0x1360 DUP4 DUP3 DUP8 SUB PUSH2 0x2241 JUMP JUMPDEST SWAP2 POP POP JUMPDEST PUSH4 0x3B9ACA00 DUP2 SGT ISZERO PUSH2 0x1375 JUMPI PUSH1 0x0 DUP1 REVERT JUMPDEST PUSH2 0x137F DUP8 DUP3 PUSH2 0x22BE JUMP JUMPDEST SWAP9 SWAP8 POP POP POP POP POP POP POP POP JUMP JUMPDEST PUSH1 0x0 DUP5 PUSH2 0x139A JUMPI POP PUSH1 0x0 PUSH2 0x456 JUMP JUMPDEST PUSH1 0x0 PUSH2 0x13A6 DUP6 DUP6 PUSH2 0x1FA6 JUMP JUMPDEST SWAP1 POP PUSH1 0x0 PUSH2 0x13B4 DUP3 DUP6 PUSH2 0x2241 JUMP JUMPDEST SWAP1 POP PUSH4 0x3B9ACA00 DUP2 SGT ISZERO PUSH2 0x13C7 JUMPI PUSH1 0x0 DUP1 REVERT JUMPDEST PUSH2 0x718 DUP8 DUP3 PUSH2 0x22BE JUMP JUMPDEST DUP3 PUSH1 0x1 GT ISZERO DUP1 ISZERO PUSH2 0x13E6 JUMPI POP DUP5 PUSH1 0x20 ADD MLOAD DUP4 GT ISZERO JUMPDEST PUSH2 0x1402 JUMPI PUSH1 0x40 MLOAD PUSH3 0x461BCD PUSH1 0xE5 SHL DUP2 MSTORE PUSH1 0x4 ADD PUSH2 0x7DB SWAP1 PUSH2 0x49A5 JUMP JUMPDEST PUSH1 0x0 PUSH2 0x141F PUSH2 0x1410 DUP6 PUSH2 0x16CC JUMP JUMPDEST PUSH2 0x1419 DUP5 PUSH2 0x16AB JUMP JUMPDEST SWAP1 PUSH2 0x10CF JUMP JUMPDEST SWAP1 POP PUSH2 0x1444 DUP7 PUSH1 0x0 ADD MLOAD PUSH2 0xFFFF AND DUP3 DUP5 DUP7 PUSH2 0x1439 DUP12 PUSH2 0x208A JUMP JUMPDEST DUP11 SWAP5 SWAP4 SWAP3 SWAP2 SWAP1 PUSH2 0x22D7 JUMP JUMPDEST POP POP POP POP POP POP JUMP JUMPDEST PUSH1 0x0 DUP1 DUP5 DUP8 PUSH1 0x40 ADD MLOAD SGT PUSH2 0x1465 JUMPI POP PUSH1 0x0 SWAP1 POP DUP1 PUSH2 0x87B JUMP JUMPDEST PUSH1 0x0 DUP1 PUSH1 0x0 PUSH2 0x1476 DUP11 DUP11 DUP10 DUP10 PUSH2 0x1AD8 JUMP JUMPDEST SWAP3 POP SWAP3 POP SWAP3 POP PUSH1 0x0 DUP1 PUSH2 0x1490 DUP13 PUSH1 0x40 ADD MLOAD DUP6 DUP8 DUP7 DUP15 PUSH2 0x2301 JUMP JUMPDEST SWAP1 SWAP3 POP SWAP1 POP DUP1 PUSH2 0x14AB JUMPI PUSH1 0x0 DUP1 SWAP7 POP SWAP7 POP POP POP POP POP POP PUSH2 0x87B JUMP JUMPDEST POP PUSH1 0x0 DUP1 PUSH1 0x0 PUSH2 0x14BD DUP14 DUP6 DUP15 DUP15 PUSH2 0x23A7 JUMP JUMPDEST SWAP3 POP SWAP3 POP SWAP3 POP DUP3 PUSH1 0x0 EQ ISZERO PUSH2 0x14DF JUMPI PUSH1 0x0 DUP1 SWAP9 POP SWAP9 POP POP POP POP POP POP POP POP PUSH2 0x87B JUMP JUMPDEST PUSH1 0x40 DUP15 ADD MLOAD PUSH2 0x14EE SWAP1 DUP14 PUSH2 0x2492 JUMP JUMPDEST PUSH1 0x40 DUP16 ADD DUP2 SWAP1 MSTORE PUSH2 0x150B SWAP1 PUSH2 0x1503 DUP9 DUP6 PUSH2 0x24AE JUMP JUMPDEST DUP10 DUP9 DUP16 PUSH2 0x24C4 JUMP JUMPDEST PUSH1 0xA0 DUP16 ADD DUP2 SWAP1 MSTORE PUSH2 0x1529 JUMPI PUSH1 0x0 DUP1 SWAP9 POP SWAP9 POP POP POP POP POP POP POP POP PUSH2 0x87B JUMP JUMPDEST PUSH2 0x153A DUP15 DUP15 PUSH1 0x40 ADD MLOAD DUP6 DUP6 DUP6 PUSH2 0x2571 JUMP JUMPDEST SWAP9 POP SWAP9 POP POP POP POP POP POP POP POP SWAP6 POP SWAP6 SWAP4 POP POP POP POP JUMP JUMPDEST DUP2 DUP2 MUL PUSH1 0x0 NOT DUP4 EQ ISZERO PUSH2 0x157F JUMPI DUP2 ISZERO DUP1 PUSH2 0x1571 JUMPI POP DUP3 DUP3 DUP3 DUP2 PUSH2 0x156E JUMPI INVALID JUMPDEST SDIV EQ JUMPDEST PUSH2 0x157A JUMPI PUSH1 0x0 DUP1 REVERT JUMPDEST PUSH2 0x3B0 JUMP JUMPDEST DUP3 ISZERO DUP1 PUSH2 0x1594 JUMPI POP DUP2 DUP4 DUP3 DUP2 PUSH2 0x1591 JUMPI INVALID JUMPDEST SDIV EQ JUMPDEST PUSH2 0x3B0 JUMPI PUSH1 0x0 DUP1 REVERT JUMPDEST PUSH2 0x15A5 PUSH2 0x44CB JUMP JUMPDEST PUSH2 0x3B0 DUP3 PUSH1 0x1 PUSH2 0x1770 JUMP JUMPDEST PUSH1 0x0 PUSH4 0x5F5E100 DUP4 PUSH1 0x40 ADD MLOAD SLT ISZERO PUSH2 0x15DE JUMPI PUSH2 0x15D7 PUSH1 0x1 PUSH2 0x15D1 DUP6 DUP6 PUSH2 0x15ED JUMP JUMPDEST SWAP1 PUSH2 0x24AE JUMP JUMPDEST SWAP1 POP PUSH2 0x3B0 JUMP JUMPDEST PUSH2 0x417 DUP4 PUSH2 0x15ED DUP5 PUSH1 0x1 PUSH2 0x24AE JUMP JUMPDEST PUSH1 0x0 PUSH4 0x5F5E100 DUP4 PUSH1 0x40 ADD MLOAD EQ ISZERO PUSH2 0x1606 JUMPI POP DUP1 PUSH2 0x3B0 JUMP JUMPDEST PUSH2 0x417 PUSH4 0x5F5E100 PUSH2 0xB11 DUP6 PUSH1 0x40 ADD MLOAD DUP6 PUSH2 0x154F SWAP1 SWAP2 SWAP1 PUSH4 0xFFFFFFFF AND JUMP JUMPDEST PUSH1 0x0 DUP2 PUSH2 0x1634 JUMPI POP PUSH1 0x0 PUSH2 0x3B0 JUMP JUMPDEST PUSH1 0x0 PUSH2 0x163F DUP5 PUSH2 0x25C6 JUMP JUMPDEST SWAP1 POP PUSH1 0x0 PUSH2 0x164C DUP5 PUSH2 0xCA3 JUMP JUMPDEST SWAP1 POP DUP2 PUSH12 0x19D971E4FE8401E74000001 PUSH1 0x1 PUSH1 0xFF SHL SUB DUP2 PUSH2 0x1669 JUMPI INVALID JUMPDEST SDIV DUP2 SGT ISZERO PUSH2 0x1676 JUMPI PUSH1 0x0 DUP1 REVERT JUMPDEST PUSH12 0x33B2E3C9FD0803CE8000000 PUSH12 0x19D971E4FE8401E74000000 DUP4 DUP4 MUL ADD SDIV PUSH1 0x0 DUP6 SGT PUSH2 0x343 JUMPI PUSH2 0x16A6 DUP2 PUSH2 0x8A3 JUMP JUMPDEST PUSH2 0x961 JUMP JUMPDEST PUSH1 0x0 PUSH3 0x76A700 DUP3 LT ISZERO PUSH2 0x16BD JUMPI PUSH1 0x0 DUP1 REVERT JUMPDEST PUSH3 0x76A700 DUP3 JUMPDEST MOD SWAP1 SWAP2 SUB SWAP2 SWAP1 POP JUMP JUMPDEST PUSH1 0x0 DUP2 PUSH1 0x1 EQ ISZERO PUSH2 0x16E1 JUMPI POP PUSH3 0x76A700 PUSH2 0x89E JUMP JUMPDEST DUP2 PUSH1 0x2 EQ ISZERO PUSH2 0x16F4 JUMPI POP PUSH3 0xED4E00 PUSH2 0x89E JUMP JUMPDEST DUP2 PUSH1 0x3 EQ ISZERO PUSH2 0x1708 JUMPI POP PUSH4 0x1DA9C00 PUSH2 0x89E JUMP JUMPDEST DUP2 PUSH1 0x4 EQ ISZERO PUSH2 0x171C JUMPI POP PUSH4 0x3B53800 PUSH2 0x89E JUMP JUMPDEST DUP2 PUSH1 0x5 EQ ISZERO PUSH2 0x1730 JUMPI POP PUSH4 0x9450C00 PUSH2 0x89E JUMP JUMPDEST DUP2 PUSH1 0x6 EQ ISZERO PUSH2 0x1744 JUMPI POP PUSH4 0x128A1800 PUSH2 0x89E JUMP JUMPDEST DUP2 PUSH1 0x7 EQ ISZERO PUSH2 0x1758 JUMPI POP PUSH4 0x25143000 PUSH2 0x89E JUMP JUMPDEST PUSH1 0x40 MLOAD PUSH3 0x461BCD PUSH1 0xE5 SHL DUP2 MSTORE PUSH1 0x4 ADD PUSH2 0x7DB SWAP1 PUSH2 0x494E JUMP JUMPDEST PUSH2 0x1778 PUSH2 0x44CB JUMP JUMPDEST PUSH1 0x0 PUSH2 0x1782 PUSH2 0x2651 JUMP JUMPDEST PUSH1 0x0 DUP6 DUP2 MSTORE PUSH1 0x20 DUP3 DUP2 MSTORE PUSH1 0x40 DUP1 DUP4 KECCAK256 DUP8 ISZERO ISZERO DUP5 MSTORE DUP3 MSTORE SWAP2 DUP3 SWAP1 KECCAK256 DUP3 MLOAD PUSH1 0xA0 DUP2 ADD DUP5 MSTORE DUP2 SLOAD PUSH1 0x1 PUSH1 0x1 PUSH1 0xA0 SHL SUB DUP2 AND DUP3 MSTORE PUSH1 0xFF PUSH1 0x1 PUSH1 0xA0 SHL DUP3 DIV DUP2 AND ISZERO ISZERO SWAP5 DUP4 ADD SWAP5 SWAP1 SWAP5 MSTORE PUSH1 0x1 PUSH1 0xB0 SHL DUP2 DIV DUP5 AND PUSH1 0xA EXP SWAP5 DUP3 ADD SWAP5 SWAP1 SWAP5 MSTORE SWAP4 SWAP5 POP SWAP3 SWAP2 PUSH1 0x60 DUP4 ADD SWAP2 PUSH1 0x1 PUSH1 0xA8 SHL SWAP1 SWAP2 DIV AND PUSH1 0x5 DUP2 GT ISZERO PUSH2 0x17F7 JUMPI INVALID JUMPDEST DUP2 MSTORE SWAP2 SLOAD PUSH1 0x1 PUSH1 0xB8 SHL SWAP1 DIV PUSH9 0xFFFFFFFFFFFFFFFFFF AND PUSH1 0x20 SWAP1 SWAP3 ADD SWAP2 SWAP1 SWAP2 MSTORE SWAP5 SWAP4 POP POP POP POP JUMP JUMPDEST PUSH1 0x0 DUP2 PUSH1 0x0 NOT EQ DUP1 ISZERO PUSH2 0x1834 JUMPI POP PUSH1 0x1 PUSH1 0xFF SHL DUP4 EQ JUMPDEST ISZERO PUSH2 0x183E JUMPI PUSH1 0x0 DUP1 REVERT JUMPDEST DUP2 DUP4 DUP2 PUSH2 0x1847 JUMPI INVALID JUMPDEST SDIV SWAP4 SWAP3 POP POP POP JUMP JUMPDEST PUSH2 0x185C DUP2 PUSH2 0xFFFF AND PUSH2 0xED7 JUMP JUMPDEST PUSH1 0x1 PUSH1 0x1 PUSH1 0xA0 SHL SUB AND PUSH1 0xC0 DUP4 ADD DUP2 SWAP1 MSTORE PUSH1 0x0 SWAP1 DUP2 SWAP1 DUP2 SWAP1 PUSH2 0x187C SWAP1 PUSH2 0x1E5B JUMP JUMPDEST SWAP5 POP SWAP5 POP SWAP5 POP POP POP PUSH1 0x0 PUSH2 0x1893 DUP7 PUSH1 0xC0 ADD MLOAD PUSH2 0x1DFA JUMP JUMPDEST POP POP PUSH1 0x80 DUP8 ADD DUP6 SWAP1 MSTORE PUSH1 0x40 DUP8 ADD DUP2 SWAP1 MSTORE PUSH1 0x1 PUSH1 0x1 PUSH1 0xD8 SHL SUB NOT DUP4 AND PUSH1 0xA0 DUP9 ADD MSTORE PUSH1 0xC0 DUP8 ADD MLOAD SWAP1 SWAP2 POP PUSH2 0x18C7 SWAP1 DUP5 PUSH1 0x0 PUSH2 0x265E JUMP JUMPDEST PUSH1 0x20 DUP8 ADD MSTORE PUSH1 0xC0 DUP7 ADD MLOAD PUSH2 0x18DF SWAP1 PUSH2 0xFFFF DUP8 AND PUSH2 0x1D41 JUMP JUMPDEST POP POP POP PUSH1 0x60 SWAP1 SWAP7 ADD SWAP6 SWAP1 SWAP6 MSTORE POP POP POP POP POP JUMP JUMPDEST PUSH1 0x0 DUP2 PUSH1 0x80 ADD MLOAD PUSH1 0x0 EQ ISZERO PUSH2 0x1909 JUMPI POP PUSH1 0x0 PUSH2 0x89E JUMP JUMPDEST PUSH1 0x80 DUP3 ADD MLOAD PUSH3 0x76A700 SWAP1 PUSH2 0x191C SWAP1 PUSH2 0x16AB JUMP JUMPDEST ADD SWAP3 SWAP2 POP POP JUMP JUMPDEST PUSH1 0x0 DUP1 PUSH1 0x0 DUP1 PUSH2 0x1932 DUP7 PUSH2 0x18F2 JUMP JUMPDEST SWAP1 POP DUP5 DUP2 GT PUSH2 0x1942 JUMPI PUSH1 0x1 DUP2 SUB SWAP5 POP JUMPDEST POP PUSH1 0x0 PUSH2 0x194F DUP7 DUP7 PUSH2 0x26F1 JUMP JUMPDEST POP SWAP1 POP PUSH1 0x0 PUSH2 0x197D DUP8 PUSH1 0xC0 ADD MLOAD DUP9 PUSH1 0x0 ADD MLOAD PUSH1 0x0 ADD MLOAD PUSH2 0xFFFF AND DUP10 PUSH1 0x80 ADD MLOAD DUP10 DUP12 PUSH1 0x0 ADD MLOAD PUSH1 0x20 ADD MLOAD PUSH2 0x2846 JUMP JUMPDEST SWAP1 POP PUSH1 0x0 DUP2 ISZERO PUSH2 0x19AF JUMPI PUSH1 0xC0 DUP9 ADD MLOAD DUP9 MLOAD DUP1 MLOAD PUSH1 0x80 DUP12 ADD MLOAD PUSH2 0x19AB SWAP4 SWAP3 PUSH2 0xFFFF SWAP1 SWAP3 AND SWAP2 DUP12 SWAP1 PUSH1 0x0 DUP9 PUSH2 0x28F2 JUMP JUMPDEST POP SWAP1 POP JUMPDEST PUSH1 0x60 DUP9 ADD MLOAD DUP9 MLOAD PUSH1 0x40 ADD MLOAD PUSH2 0x137F SWAP2 SWAP1 PUSH2 0x15D1 SWAP1 PUSH2 0x19CD SWAP1 DUP6 PUSH2 0x2970 JUMP JUMPDEST DUP7 SWAP1 PUSH2 0x24AE JUMP JUMPDEST PUSH1 0x0 DUP1 PUSH1 0x0 DUP1 PUSH1 0x0 PUSH2 0x19E5 DUP7 PUSH2 0x29A1 JUMP JUMPDEST SWAP1 SWAP3 POP SWAP1 POP PUSH1 0x0 PUSH1 0x1 PUSH1 0x1 PUSH1 0xA0 SHL SUB DUP4 AND PUSH2 0x1A0A JUMPI POP PUSH1 0x0 SWAP1 POP PUSH5 0x2540BE400 PUSH2 0x1A8A JUMP JUMPDEST DUP3 PUSH1 0x1 PUSH1 0x1 PUSH1 0xA0 SHL SUB AND PUSH4 0xB2FFFB04 PUSH1 0x40 MLOAD DUP2 PUSH4 0xFFFFFFFF AND PUSH1 0xE0 SHL DUP2 MSTORE PUSH1 0x4 ADD PUSH1 0x20 PUSH1 0x40 MLOAD DUP1 DUP4 SUB DUP2 DUP7 DUP1 EXTCODESIZE ISZERO DUP1 ISZERO PUSH2 0x1A43 JUMPI PUSH1 0x0 DUP1 REVERT JUMPDEST POP GAS STATICCALL ISZERO DUP1 ISZERO PUSH2 0x1A57 JUMPI RETURNDATASIZE PUSH1 0x0 DUP1 RETURNDATACOPY RETURNDATASIZE PUSH1 0x0 REVERT JUMPDEST POP POP POP POP PUSH1 0x40 MLOAD RETURNDATASIZE PUSH1 0x1F NOT PUSH1 0x1F DUP3 ADD AND DUP3 ADD DUP1 PUSH1 0x40 MSTORE POP DUP2 ADD SWAP1 PUSH2 0x1A7B SWAP2 SWAP1 PUSH2 0x4652 JUMP JUMPDEST SWAP1 POP PUSH1 0x0 DUP2 SGT PUSH2 0x1A8A JUMPI PUSH1 0x0 DUP1 REVERT JUMPDEST SWAP7 SWAP2 SWAP6 POP SWAP4 POP SWAP2 POP POP JUMP JUMPDEST PUSH2 0x1A9D PUSH2 0x4524 JUMP JUMPDEST PUSH1 0x0 PUSH2 0x1AAC DUP5 PUSH2 0xFFFF AND PUSH2 0x29D8 JUMP JUMPDEST PUSH1 0x40 DUP1 MLOAD PUSH1 0x80 DUP2 ADD DUP3 MSTORE PUSH2 0xFFFF SWAP7 SWAP1 SWAP7 AND DUP7 MSTORE PUSH1 0xFF DUP3 AND PUSH1 0x20 DUP8 ADD MSTORE DUP6 ADD SWAP4 SWAP1 SWAP4 MSTORE POP POP PUSH1 0x60 DUP3 ADD MSTORE SWAP1 JUMP JUMPDEST PUSH1 0x0 DUP1 DUP1 DUP1 PUSH2 0x1AE8 DUP8 DUP7 DUP9 PUSH2 0x29F5 JUMP JUMPDEST SWAP1 POP PUSH1 0x0 PUSH2 0x1B07 DUP10 PUSH1 0x60 ADD MLOAD DUP10 PUSH1 0x40 ADD MLOAD PUSH2 0xC78 SWAP1 SWAP2 SWAP1 PUSH4 0xFFFFFFFF AND JUMP JUMPDEST SWAP1 POP DUP9 PUSH1 0x40 ADD MLOAD PUSH1 0x0 EQ DUP1 PUSH2 0x1B1A JUMPI POP DUP1 ISZERO JUMPDEST ISZERO PUSH2 0x1B31 JUMPI PUSH1 0x0 DUP1 PUSH1 0x0 SWAP5 POP SWAP5 POP SWAP5 POP POP POP PUSH2 0x1B70 JUMP JUMPDEST PUSH1 0x0 DUP1 PUSH2 0x1B49 DUP12 PUSH1 0x40 ADD MLOAD DUP13 PUSH1 0xA0 ADD MLOAD DUP6 DUP8 DUP14 PUSH2 0x2A5D JUMP JUMPDEST SWAP1 SWAP3 POP SWAP1 POP DUP1 PUSH2 0x1B67 JUMPI PUSH1 0x0 DUP1 PUSH1 0x0 SWAP7 POP SWAP7 POP SWAP7 POP POP POP POP POP PUSH2 0x1B70 JUMP JUMPDEST POP SWAP2 SWAP5 POP SWAP3 POP SWAP1 POP JUMPDEST SWAP5 POP SWAP5 POP SWAP5 SWAP2 POP POP JUMP JUMPDEST PUSH1 0x60 ADD MLOAD PUSH3 0x186A0 PUSH1 0x10 SWAP2 SWAP1 SWAP2 SHR PUSH1 0xFF AND MUL SWAP1 JUMP JUMPDEST PUSH1 0x0 DUP1 PUSH2 0x1BAC PUSH2 0x1BA7 PUSH4 0x1DA9C00 PUSH2 0x1092 DUP8 DUP8 PUSH2 0x1EC4 JUMP JUMPDEST PUSH2 0x2AED JUMP JUMPDEST SWAP1 POP PUSH1 0x0 PUSH2 0x1BC0 DUP3 PUSH3 0x1DCD65 PUSH1 0x49 SHL PUSH2 0x2B0B JUMP JUMPDEST SWAP1 POP PUSH1 0x0 PUSH2 0x1BCD DUP3 PUSH2 0x2B5E JUMP JUMPDEST SWAP1 POP PUSH1 0x0 PUSH2 0x1BE1 DUP3 PUSH3 0x1DCD65 PUSH1 0x49 SHL PUSH2 0x2BB3 JUMP JUMPDEST SWAP1 POP PUSH2 0x1BEC DUP2 PUSH2 0x2BE9 JUMP JUMPDEST PUSH1 0x7 SIGNEXTEND SWAP8 SWAP7 POP POP POP POP POP POP POP JUMP JUMPDEST PUSH1 0x0 DUP1 DUP3 SLT ISZERO PUSH2 0x1C09 JUMPI PUSH1 0x0 DUP1 REVERT JUMPDEST PUSH1 0x0 PUSH2 0x1C18 PUSH2 0x2BC DUP10 DUP8 PUSH2 0x22BE JUMP JUMPDEST SWAP1 POP PUSH1 0x0 JUMPDEST PUSH1 0xFA DUP2 PUSH1 0xFF AND LT ISZERO PUSH2 0x1C91 JUMPI PUSH1 0x0 DUP1 PUSH2 0x1C39 DUP13 DUP12 DUP12 DUP12 DUP9 PUSH2 0x2301 JUMP JUMPDEST SWAP2 POP SWAP2 POP DUP1 PUSH2 0x1C47 JUMPI PUSH1 0x0 DUP1 REVERT JUMPDEST PUSH1 0x0 PUSH2 0x1C58 DUP13 DUP15 DUP14 DUP14 DUP10 DUP9 DUP15 PUSH2 0x2BF2 JUMP JUMPDEST SWAP1 POP DUP7 PUSH2 0x1C64 DUP3 PUSH2 0xCA3 JUMP JUMPDEST SGT PUSH2 0x1C76 JUMPI DUP5 SWAP6 POP POP POP POP POP POP PUSH2 0x718 JUMP JUMPDEST PUSH2 0x1C80 DUP6 DUP3 PUSH2 0x2CE1 JUMP JUMPDEST SWAP5 POP POP PUSH1 0x1 SWAP1 SWAP3 ADD SWAP2 POP PUSH2 0x1C1D SWAP1 POP JUMP JUMPDEST POP PUSH1 0x40 MLOAD PUSH3 0x461BCD PUSH1 0xE5 SHL DUP2 MSTORE PUSH1 0x4 ADD PUSH2 0x7DB SWAP1 PUSH2 0x48F7 JUMP JUMPDEST PUSH1 0x0 DUP1 PUSH2 0x3B0 PUSH1 0x1 PUSH2 0x2CF7 JUMP JUMPDEST PUSH1 0x0 DUP2 ISZERO DUP1 ISZERO SWAP1 PUSH2 0x1CCA JUMPI POP PUSH2 0x3FFF DUP3 GT ISZERO JUMPDEST PUSH2 0x1CD3 JUMPI PUSH1 0x0 DUP1 REVERT JUMPDEST PUSH1 0x80 DUP4 ADD MLOAD PUSH1 0x60 DUP5 ADD MLOAD PUSH2 0xFFFF AND DUP4 EQ ISZERO PUSH2 0x1CF2 JUMPI PUSH1 0x1 SWAP2 POP POP PUSH2 0x3B0 JUMP JUMPDEST PUSH1 0x1 PUSH1 0x1 PUSH1 0x70 SHL SUB NOT DUP2 AND ISZERO PUSH2 0x1D37 JUMPI PUSH1 0xF0 DUP2 SWAP1 SHR PUSH2 0x3FFF AND DUP4 DUP2 EQ ISZERO PUSH2 0x1D24 JUMPI POP PUSH1 0x1 PUSH1 0xFE SHL SWAP1 DUP2 AND EQ SWAP1 POP PUSH2 0x3B0 JUMP JUMPDEST POP PUSH1 0x10 SHL PUSH1 0x1 PUSH1 0x1 PUSH1 0x80 SHL SUB NOT AND PUSH2 0x1CF2 JUMP JUMPDEST POP PUSH1 0x0 SWAP4 SWAP3 POP POP POP JUMP JUMPDEST PUSH1 0x0 DUP1 PUSH1 0x0 DUP1 PUSH1 0x0 PUSH2 0x1D51 PUSH2 0x2D09 JUMP JUMPDEST PUSH1 0x1 PUSH1 0x1 PUSH1 0xA0 SHL SUB DUP9 AND PUSH1 0x0 SWAP1 DUP2 MSTORE PUSH1 0x20 DUP3 DUP2 MSTORE PUSH1 0x40 DUP1 DUP4 KECCAK256 DUP11 DUP5 MSTORE SWAP1 SWAP2 MSTORE SWAP1 KECCAK256 DUP1 SLOAD PUSH10 0xFFFFFFFFFFFFFFFFFFFF DUP2 AND SWAP7 POP PUSH1 0x1 PUSH1 0x50 SHL SWAP1 DIV PUSH4 0xFFFFFFFF AND SWAP5 POP SWAP1 SWAP2 POP DUP4 ISZERO PUSH2 0x1DBD JUMPI DUP1 SLOAD PUSH2 0x1DB6 SWAP1 PUSH1 0x1 PUSH1 0x70 SHL SWAP1 DIV PUSH7 0xFFFFFFFFFFFFFF AND PUSH2 0x2D16 JUMP JUMPDEST SWAP3 POP PUSH2 0x1DD2 JUMP JUMPDEST DUP1 SLOAD PUSH1 0x1 PUSH1 0x70 SHL SWAP1 DIV PUSH7 0xFFFFFFFFFFFFFF AND SWAP3 POP JUMPDEST SLOAD PUSH1 0x1 PUSH1 0xA8 SHL SWAP1 DIV PUSH1 0xA SWAP1 DUP2 SIGNEXTEND SWAP1 SIGNEXTEND SWAP8 SWAP4 SWAP7 POP SWAP2 SWAP5 POP SWAP3 POP POP JUMP JUMPDEST PUSH1 0x0 DUP1 PUSH2 0x3B0 PUSH1 0x3 PUSH2 0x2CF7 JUMP JUMPDEST PUSH1 0x0 DUP1 PUSH1 0x0 DUP1 PUSH2 0x1E08 PUSH2 0x2D24 JUMP JUMPDEST PUSH1 0x1 PUSH1 0x1 PUSH1 0xA0 SHL SUB SWAP6 SWAP1 SWAP6 AND PUSH1 0x0 SWAP1 DUP2 MSTORE PUSH1 0x20 SWAP6 SWAP1 SWAP6 MSTORE POP POP PUSH1 0x40 SWAP1 SWAP3 KECCAK256 SLOAD PUSH12 0xFFFFFFFFFFFFFFFFFFFFFFFF DUP2 AND SWAP4 PUSH1 0x1 PUSH1 0x60 SHL DUP3 DIV PUSH1 0x1 PUSH1 0x1 PUSH1 0x80 SHL SUB AND SWAP4 POP PUSH1 0x1 PUSH1 0xE0 SHL SWAP1 SWAP2 DIV PUSH4 0xFFFFFFFF AND SWAP2 POP JUMP JUMPDEST PUSH1 0x0 DUP1 PUSH1 0x0 DUP1 PUSH1 0x0 DUP1 PUSH2 0x1E6C PUSH2 0x2D31 JUMP JUMPDEST PUSH1 0x1 PUSH1 0x1 PUSH1 0xA0 SHL SUB SWAP1 SWAP8 AND PUSH1 0x0 SWAP1 DUP2 MSTORE PUSH1 0x20 SWAP8 SWAP1 SWAP8 MSTORE POP POP PUSH1 0x40 SWAP1 SWAP5 KECCAK256 SLOAD PUSH2 0xFFFF DUP2 AND SWAP6 PUSH4 0xFFFFFFFF PUSH3 0x10000 DUP4 DIV DUP2 AND SWAP7 POP PUSH1 0x1 PUSH1 0x30 SHL DUP4 DIV AND SWAP5 POP PUSH1 0xFF PUSH1 0x1 PUSH1 0x50 SHL DUP4 DIV AND SWAP4 POP PUSH1 0x1 PUSH1 0x58 SHL SWAP1 SWAP2 DIV PUSH1 0xD8 SHL SWAP2 POP JUMP JUMPDEST PUSH1 0x0 DUP3 PUSH2 0x1ED3 JUMPI POP PUSH1 0x0 PUSH2 0x3B0 JUMP JUMPDEST DUP3 DUP3 MUL DUP3 DUP5 DUP3 DUP2 PUSH2 0x1EE0 JUMPI INVALID JUMPDEST DIV EQ PUSH2 0x417 JUMPI PUSH1 0x40 MLOAD PUSH3 0x461BCD PUSH1 0xE5 SHL DUP2 MSTORE PUSH1 0x4 ADD DUP1 DUP1 PUSH1 0x20 ADD DUP3 DUP2 SUB DUP3 MSTORE PUSH1 0x21 DUP2 MSTORE PUSH1 0x20 ADD DUP1 PUSH2 0x4AD4 PUSH1 0x21 SWAP2 CODECOPY PUSH1 0x40 ADD SWAP2 POP POP PUSH1 0x40 MLOAD DUP1 SWAP2 SUB SWAP1 REVERT JUMPDEST PUSH1 0x0 PUSH2 0x456 DUP3 PUSH2 0x1092 PUSH4 0x1DA9C00 DUP2 DUP9 PUSH2 0x108C DUP10 PUSH8 0xDE0B6B3A7640000 PUSH2 0x1EC4 JUMP JUMPDEST PUSH1 0x0 DUP1 DUP3 GT PUSH2 0x1F95 JUMPI PUSH1 0x40 DUP1 MLOAD PUSH3 0x461BCD PUSH1 0xE5 SHL DUP2 MSTORE PUSH1 0x20 PUSH1 0x4 DUP3 ADD MSTORE PUSH1 0x1A PUSH1 0x24 DUP3 ADD MSTORE PUSH32 0x536166654D6174683A206469766973696F6E206279207A65726F000000000000 PUSH1 0x44 DUP3 ADD MSTORE SWAP1 MLOAD SWAP1 DUP2 SWAP1 SUB PUSH1 0x64 ADD SWAP1 REVERT JUMPDEST DUP2 DUP4 DUP2 PUSH2 0x1F9E JUMPI INVALID JUMPDEST DIV SWAP4 SWAP3 POP POP POP JUMP JUMPDEST PUSH1 0x0 DUP3 DUP3 GT ISZERO PUSH2 0x1FFD JUMPI PUSH1 0x40 DUP1 MLOAD PUSH3 0x461BCD PUSH1 0xE5 SHL DUP2 MSTORE PUSH1 0x20 PUSH1 0x4 DUP3 ADD MSTORE PUSH1 0x1E PUSH1 0x24 DUP3 ADD MSTORE PUSH32 0x536166654D6174683A207375627472616374696F6E206F766572666C6F770000 PUSH1 0x44 DUP3 ADD MSTORE SWAP1 MLOAD SWAP1 DUP2 SWAP1 SUB PUSH1 0x64 ADD SWAP1 REVERT JUMPDEST POP SWAP1 SUB SWAP1 JUMP JUMPDEST PUSH1 0x0 DUP2 PUSH2 0x2012 JUMPI POP PUSH1 0x0 PUSH2 0x3B0 JUMP JUMPDEST PUSH1 0x0 DUP3 SGT PUSH2 0x201F JUMPI PUSH1 0x0 DUP1 REVERT JUMPDEST PUSH1 0x0 PUSH2 0x202A DUP5 PUSH2 0x159D JUMP JUMPDEST SWAP1 POP PUSH1 0x0 PUSH2 0x203B DUP3 PUSH1 0x0 ADD MLOAD PUSH2 0x25C6 JUMP JUMPDEST SWAP1 POP PUSH1 0x2 DUP2 SDIV PUSH12 0x33B2E3C9FD0803CE8000000 PUSH1 0x1 PUSH1 0x1 PUSH1 0xFF SHL SUB DUP3 SWAP1 SUB SDIV DUP6 SGT ISZERO PUSH2 0x2066 JUMPI PUSH1 0x0 DUP1 REVERT JUMPDEST DUP2 DUP2 PUSH12 0x33B2E3C9FD0803CE8000000 DUP8 MUL ADD DUP2 PUSH2 0x207F JUMPI INVALID JUMPDEST SDIV SWAP7 SWAP6 POP POP POP POP POP POP JUMP JUMPDEST PUSH1 0x60 ADD MLOAD PUSH2 0x12C PUSH1 0x8 SWAP2 SWAP1 SWAP2 SHR PUSH1 0xFF AND MUL SWAP1 JUMP JUMPDEST PUSH1 0x0 DUP1 PUSH2 0x20A9 PUSH2 0x2D3E JUMP JUMPDEST SWAP1 POP PUSH1 0x0 PUSH3 0x76A700 PUSH2 0x20BA DUP6 PUSH2 0x16AB JUMP JUMPDEST PUSH1 0x0 DUP10 DUP2 MSTORE PUSH1 0x20 DUP6 DUP2 MSTORE PUSH1 0x40 DUP1 DUP4 KECCAK256 DUP12 DUP5 MSTORE DUP3 MSTORE DUP1 DUP4 KECCAK256 SWAP5 SWAP1 SWAP4 ADD DUP1 DUP4 MSTORE SWAP4 SWAP1 MSTORE KECCAK256 DUP1 SLOAD SWAP2 SWAP3 POP SWAP1 PUSH4 0xFFFFFFFF PUSH1 0x1 PUSH1 0xA0 SHL DUP3 DIV DUP2 AND SWAP2 PUSH1 0x1 PUSH1 0xC0 SHL DUP2 DIV DUP3 AND SWAP2 PUSH1 0x1 PUSH1 0xE0 SHL SWAP1 SWAP2 DIV AND DUP2 PUSH2 0x2121 JUMPI PUSH1 0x40 MLOAD PUSH3 0x461BCD PUSH1 0xE5 SHL DUP2 MSTORE PUSH1 0x4 ADD PUSH2 0x7DB SWAP1 PUSH2 0x489A JUMP JUMPDEST PUSH2 0x212E DUP2 DUP5 DUP5 DUP13 DUP13 PUSH2 0x2D4B JUMP JUMPDEST SWAP12 SWAP11 POP POP POP POP POP POP POP POP POP POP POP JUMP JUMPDEST DUP1 MLOAD PUSH1 0x0 SWAP1 PUSH1 0x1 PUSH1 0x1 PUSH1 0xA0 SHL SUB AND PUSH2 0x2157 JUMPI POP PUSH1 0x0 PUSH2 0x89E JUMP JUMPDEST PUSH1 0x0 DUP3 PUSH1 0x0 ADD MLOAD PUSH1 0x1 PUSH1 0x1 PUSH1 0xA0 SHL SUB AND PUSH4 0xDD30A666 PUSH1 0x40 MLOAD DUP2 PUSH4 0xFFFFFFFF AND PUSH1 0xE0 SHL DUP2 MSTORE PUSH1 0x4 ADD PUSH1 0x20 PUSH1 0x40 MLOAD DUP1 DUP4 SUB DUP2 DUP7 DUP1 EXTCODESIZE ISZERO DUP1 ISZERO PUSH2 0x2196 JUMPI PUSH1 0x0 DUP1 REVERT JUMPDEST POP GAS STATICCALL ISZERO DUP1 ISZERO PUSH2 0x21AA JUMPI RETURNDATASIZE PUSH1 0x0 DUP1 RETURNDATACOPY RETURNDATASIZE PUSH1 0x0 REVERT JUMPDEST POP POP POP POP PUSH1 0x40 MLOAD RETURNDATASIZE PUSH1 0x1F NOT PUSH1 0x1F DUP3 ADD AND DUP3 ADD DUP1 PUSH1 0x40 MSTORE POP DUP2 ADD SWAP1 PUSH2 0x417 SWAP2 SWAP1 PUSH2 0x4652 JUMP JUMPDEST PUSH1 0x0 DUP2 DUP7 LT PUSH2 0x21DC JUMPI PUSH1 0x0 DUP1 REVERT JUMPDEST DUP5 DUP3 LT PUSH2 0x21E8 JUMPI PUSH1 0x0 DUP1 REVERT JUMPDEST DUP4 DUP4 LT PUSH2 0x220E JUMPI PUSH2 0x2207 DUP5 PUSH2 0x1419 DUP9 DUP9 SUB PUSH2 0x1092 DUP4 DUP9 SUB DUP12 DUP9 SUB PUSH2 0x1EC4 JUMP JUMPDEST SWAP1 POP PUSH2 0x343 JUMP JUMPDEST PUSH2 0x2207 PUSH2 0x2225 DUP8 DUP8 SUB PUSH2 0x1092 DUP7 DUP9 SUB DUP11 DUP8 SUB PUSH2 0x1EC4 JUMP JUMPDEST DUP6 SWAP1 PUSH2 0x1FA6 JUMP JUMPDEST PUSH1 0x60 ADD MLOAD PUSH3 0x7A120 PUSH1 0x28 SWAP2 SWAP1 SWAP2 SHR PUSH1 0xFF AND MUL SWAP1 JUMP JUMPDEST PUSH1 0x0 DUP1 PUSH2 0x2259 PUSH2 0x1BA7 PUSH4 0x1DA9C00 PUSH2 0x1092 DUP7 DUP9 PUSH2 0x1EC4 JUMP JUMPDEST SWAP1 POP PUSH2 0x226B DUP2 PUSH3 0x1DCD65 PUSH1 0x49 SHL PUSH2 0x2B0B JUMP JUMPDEST SWAP1 POP PUSH2 0x227E PUSH2 0x2279 DUP3 PUSH2 0x2DDE JUMP JUMPDEST PUSH2 0x2B5E JUMP JUMPDEST SWAP1 POP PUSH2 0x2290 DUP2 PUSH3 0x1DCD65 PUSH1 0x49 SHL PUSH2 0x2BB3 JUMP JUMPDEST SWAP1 POP PUSH1 0x0 PUSH2 0x229D DUP3 PUSH2 0x2BE9 JUMP JUMPDEST PUSH1 0x7 SIGNEXTEND SWAP6 SWAP5 POP POP POP POP POP JUMP JUMPDEST PUSH1 0x60 ADD MLOAD PUSH3 0x7A120 PUSH1 0x20 SWAP2 SWAP1 SWAP2 SHR PUSH1 0xFF AND MUL SWAP1 JUMP JUMPDEST PUSH1 0x0 PUSH2 0x417 PUSH2 0x22CD DUP5 DUP5 PUSH2 0x154F JUMP JUMPDEST PUSH4 0x3B9ACA00 PUSH2 0x181E JUMP JUMPDEST PUSH1 0x0 PUSH3 0x76A700 PUSH2 0x22E6 DUP6 PUSH2 0x16AB JUMP JUMPDEST ADD SWAP1 POP PUSH2 0x22F8 DUP8 DUP8 DUP8 DUP8 DUP8 DUP8 DUP8 PUSH2 0x2E00 JUMP JUMPDEST POP POP POP POP POP POP POP JUMP JUMPDEST PUSH1 0x0 DUP1 DUP1 PUSH2 0x230F DUP9 DUP6 PUSH2 0x2492 JUMP JUMPDEST SWAP1 POP PUSH1 0x0 PUSH2 0x2327 PUSH2 0x2320 DUP11 DUP11 PUSH2 0x24AE JUMP JUMPDEST DUP4 SWAP1 PUSH2 0x2E37 JUMP JUMPDEST SWAP1 POP PUSH4 0x3B023380 DUP2 SGT ISZERO PUSH2 0x2343 JUMPI PUSH1 0x0 DUP1 SWAP4 POP SWAP4 POP POP POP PUSH2 0x87B JUMP JUMPDEST PUSH1 0x0 DUP1 PUSH2 0x234F DUP4 PUSH2 0x2E50 JUMP JUMPDEST SWAP2 POP SWAP2 POP DUP1 PUSH2 0x2368 JUMPI PUSH1 0x0 DUP1 SWAP6 POP SWAP6 POP POP POP POP POP PUSH2 0x87B JUMP JUMPDEST PUSH1 0x0 PUSH2 0x2378 DUP10 PUSH2 0x15D1 DUP6 DUP14 PUSH2 0x2E37 JUMP JUMPDEST SWAP1 POP PUSH4 0x3B9ACA00 DUP2 SLT ISZERO PUSH2 0x2397 JUMPI PUSH1 0x0 DUP1 SWAP7 POP SWAP7 POP POP POP POP POP POP PUSH2 0x87B JUMP JUMPDEST SWAP6 POP PUSH1 0x1 SWAP5 POP PUSH2 0x87B SWAP4 POP POP POP POP JUMP JUMPDEST PUSH1 0x0 DUP1 DUP1 DUP1 PUSH2 0x23B9 PUSH2 0x2BC DUP8 DUP10 PUSH2 0x2E37 JUMP JUMPDEST SWAP1 POP PUSH1 0x0 PUSH2 0x23CF PUSH2 0x23C9 DUP11 PUSH2 0x1B7A JUMP JUMPDEST DUP8 PUSH2 0x1B8F JUMP JUMPDEST SWAP1 POP PUSH1 0x0 DUP8 SGT ISZERO PUSH2 0x2427 JUMPI PUSH1 0x0 PUSH2 0x23E6 DUP10 DUP4 PUSH2 0x2E37 JUMP JUMPDEST SWAP1 POP PUSH4 0x3B9ACA00 DUP2 SLT ISZERO PUSH2 0x2407 JUMPI PUSH1 0x0 DUP1 PUSH1 0x0 SWAP6 POP SWAP6 POP SWAP6 POP POP POP POP PUSH2 0x1B70 JUMP JUMPDEST PUSH2 0x241F PUSH2 0x2418 PUSH4 0x3B9ACA00 DUP5 PUSH2 0x2CE1 JUMP JUMPDEST DUP5 SWAP1 PUSH2 0x22BE JUMP JUMPDEST SWAP2 POP POP PUSH2 0x2449 JUMP JUMPDEST PUSH2 0x2446 PUSH2 0x2BC DUP3 PUSH2 0xB11 PUSH2 0x243F PUSH4 0x3B9ACA00 DUP4 PUSH2 0x2CE1 JUMP JUMPDEST DUP7 SWAP1 PUSH2 0x154F JUMP JUMPDEST SWAP1 POP JUMPDEST PUSH1 0x0 PUSH2 0x2463 PUSH1 0x64 PUSH2 0xB11 PUSH2 0x245C DUP14 PUSH2 0x2EF2 JUMP JUMPDEST DUP6 SWAP1 PUSH2 0x154F JUMP JUMPDEST SWAP1 POP PUSH2 0x246F DUP4 DUP4 PUSH2 0x2CE1 JUMP JUMPDEST PUSH2 0x2480 PUSH2 0x2BC DUP4 PUSH2 0x15D1 DUP8 DUP8 PUSH2 0x2CE1 JUMP JUMPDEST SWAP1 SWAP12 SWAP1 SWAP11 POP SWAP1 SWAP9 POP SWAP7 POP POP POP POP POP POP POP JUMP JUMPDEST PUSH1 0x0 PUSH2 0x249E DUP4 DUP4 PUSH2 0x2CE1 JUMP JUMPDEST SWAP1 POP PUSH1 0x0 DUP2 SLT ISZERO PUSH2 0x3B0 JUMPI PUSH1 0x0 DUP1 REVERT JUMPDEST DUP2 DUP2 ADD DUP3 DUP2 SLT ISZERO PUSH1 0x0 DUP4 SLT ISZERO EQ PUSH2 0x3B0 JUMPI PUSH1 0x0 DUP1 REVERT JUMPDEST PUSH1 0x0 DUP1 PUSH1 0x0 PUSH2 0x24D7 DUP9 DUP9 DUP9 DUP9 PUSH1 0x0 PUSH2 0x2301 JUMP JUMPDEST SWAP2 POP SWAP2 POP DUP1 PUSH2 0x24EB JUMPI PUSH1 0x0 SWAP3 POP POP POP PUSH2 0x343 JUMP JUMPDEST PUSH1 0x0 PUSH2 0x24F6 DUP4 PUSH2 0x2EFF JUMP JUMPDEST SWAP1 POP PUSH1 0x0 PUSH2 0x250A DUP3 PUSH3 0x1DCD65 PUSH1 0x49 SHL PUSH2 0x2B0B JUMP JUMPDEST SWAP1 POP PUSH1 0x0 PUSH2 0x2517 DUP3 PUSH2 0x2F2B JUMP JUMPDEST SWAP1 POP PUSH1 0x0 PUSH2 0x2533 PUSH2 0x252E DUP4 PUSH3 0x1DCD65 PUSH1 0x49 SHL PUSH2 0x2BB3 JUMP JUMPDEST PUSH2 0x2F65 JUMP JUMPDEST PUSH8 0xFFFFFFFFFFFFFFFF AND SWAP1 POP PUSH1 0x0 PUSH2 0x2553 DUP10 PUSH2 0x1092 DUP5 PUSH4 0x1DA9C00 PUSH2 0x1EC4 JUMP JUMPDEST SWAP1 POP PUSH4 0xFFFFFFFF DUP2 GT ISZERO PUSH2 0xD6D JUMPI PUSH1 0x0 SWAP8 POP POP POP POP POP POP POP POP PUSH2 0x343 JUMP JUMPDEST PUSH1 0x0 DUP1 DUP1 PUSH2 0x257F DUP8 DUP7 PUSH2 0x2970 JUMP JUMPDEST PUSH1 0x60 DUP10 ADD MLOAD SWAP1 SWAP2 POP PUSH2 0x2591 SWAP1 DUP3 PUSH2 0x24AE JUMP JUMPDEST PUSH1 0x60 DUP10 ADD MSTORE TIMESTAMP PUSH1 0xE0 DUP10 ADD MSTORE PUSH1 0x0 PUSH2 0x25A8 DUP9 DUP7 PUSH2 0x2970 JUMP JUMPDEST SWAP1 POP PUSH1 0x0 PUSH2 0x25B6 DUP10 DUP10 PUSH2 0x2970 JUMP JUMPDEST SWAP11 SWAP2 SWAP10 POP SWAP1 SWAP8 POP POP POP POP POP POP POP POP JUMP JUMPDEST PUSH1 0x0 PUSH2 0x3B0 PUSH2 0x25D3 PUSH2 0x2F81 JUMP JUMPDEST SLOAD PUSH1 0x40 MLOAD PUSH4 0xD15E0053 PUSH1 0xE0 SHL DUP2 MSTORE PUSH1 0x1 PUSH1 0x1 PUSH1 0xA0 SHL SUB SWAP1 SWAP2 AND SWAP1 PUSH4 0xD15E0053 SWAP1 PUSH2 0x2601 SWAP1 DUP7 SWAP1 PUSH1 0x4 ADD PUSH2 0x4849 JUMP JUMPDEST PUSH1 0x20 PUSH1 0x40 MLOAD DUP1 DUP4 SUB DUP2 DUP7 DUP1 EXTCODESIZE ISZERO DUP1 ISZERO PUSH2 0x2619 JUMPI PUSH1 0x0 DUP1 REVERT JUMPDEST POP GAS STATICCALL ISZERO DUP1 ISZERO PUSH2 0x262D JUMPI RETURNDATASIZE PUSH1 0x0 DUP1 RETURNDATACOPY RETURNDATASIZE PUSH1 0x0 REVERT JUMPDEST POP POP POP POP PUSH1 0x40 MLOAD RETURNDATASIZE PUSH1 0x1F NOT PUSH1 0x1F DUP3 ADD AND DUP3 ADD DUP1 PUSH1 0x40 MSTORE POP DUP2 ADD SWAP1 PUSH2 0x3F5 SWAP2 SWAP1 PUSH2 0x4652 JUMP JUMPDEST PUSH1 0x0 DUP1 PUSH2 0x3B0 PUSH1 0x7 PUSH2 0x2CF7 JUMP JUMPDEST PUSH2 0x2666 PUSH2 0x457E JUMP JUMPDEST PUSH2 0x266E PUSH2 0x457E JUMP JUMPDEST PUSH1 0xFF DUP5 AND PUSH2 0x267D JUMPI SWAP1 POP PUSH2 0x417 JUMP JUMPDEST PUSH2 0x2687 DUP6 DUP6 PUSH2 0x2F8E JUMP JUMPDEST DUP2 MSTORE PUSH1 0xFF DUP5 AND PUSH1 0x60 DUP3 ADD MSTORE DUP3 PUSH8 0xFFFFFFFFFFFFFFFF DUP2 GT DUP1 ISZERO PUSH2 0x26A9 JUMPI PUSH1 0x0 DUP1 REVERT JUMPDEST POP PUSH1 0x40 MLOAD SWAP1 DUP1 DUP3 MSTORE DUP1 PUSH1 0x20 MUL PUSH1 0x20 ADD DUP3 ADD PUSH1 0x40 MSTORE DUP1 ISZERO PUSH2 0x26E3 JUMPI DUP2 PUSH1 0x20 ADD JUMPDEST PUSH2 0x26D0 PUSH2 0x45A6 JUMP JUMPDEST DUP2 MSTORE PUSH1 0x20 ADD SWAP1 PUSH1 0x1 SWAP1 SUB SWAP1 DUP2 PUSH2 0x26C8 JUMPI SWAP1 POP JUMPDEST POP PUSH1 0x20 DUP3 ADD MSTORE SWAP5 SWAP4 POP POP POP POP JUMP JUMPDEST PUSH1 0x20 DUP3 ADD MLOAD MLOAD MLOAD PUSH1 0x0 SWAP1 PUSH1 0x60 SWAP1 DUP1 PUSH8 0xFFFFFFFFFFFFFFFF DUP2 GT DUP1 ISZERO PUSH2 0x2715 JUMPI PUSH1 0x0 DUP1 REVERT JUMPDEST POP PUSH1 0x40 MLOAD SWAP1 DUP1 DUP3 MSTORE DUP1 PUSH1 0x20 MUL PUSH1 0x20 ADD DUP3 ADD PUSH1 0x40 MSTORE DUP1 ISZERO PUSH2 0x273F JUMPI DUP2 PUSH1 0x20 ADD PUSH1 0x20 DUP3 MUL DUP1 CALLDATASIZE DUP4 CALLDATACOPY ADD SWAP1 POP JUMPDEST POP SWAP2 POP PUSH2 0x274A PUSH2 0x4483 JUMP JUMPDEST PUSH1 0x0 JUMPDEST DUP3 DUP2 LT ISZERO PUSH2 0x283C JUMPI DUP7 MLOAD PUSH2 0x2768 SWAP1 DUP4 PUSH1 0x1 DUP1 DUP6 ADD SWAP1 DUP11 PUSH2 0x13D1 JUMP JUMPDEST PUSH1 0x0 DUP8 PUSH1 0x20 ADD MLOAD PUSH1 0x0 ADD MLOAD DUP3 DUP2 MLOAD DUP2 LT PUSH2 0x277E JUMPI INVALID JUMPDEST PUSH1 0x20 MUL PUSH1 0x20 ADD ADD MLOAD SWAP1 POP PUSH1 0x0 DUP2 PUSH1 0x20 ADD MLOAD SWAP1 POP PUSH1 0x0 DUP1 PUSH2 0x279E DUP5 DUP8 PUSH2 0x2FB7 JUMP JUMPDEST SWAP2 POP SWAP2 POP PUSH2 0x27C7 PUSH2 0x27C0 DUP13 PUSH1 0xC0 ADD MLOAD DUP14 PUSH1 0x0 ADD MLOAD PUSH1 0x0 ADD MLOAD PUSH2 0xFFFF AND DUP7 PUSH2 0x3032 JUMP JUMPDEST DUP3 SWAP1 PUSH2 0x24AE JUMP JUMPDEST DUP9 DUP7 DUP2 MLOAD DUP2 LT PUSH2 0x27D3 JUMPI INVALID JUMPDEST PUSH1 0x20 MUL PUSH1 0x20 ADD ADD DUP2 DUP2 MSTORE POP POP PUSH1 0x0 PUSH2 0x281D PUSH2 0x2816 PUSH2 0x280A DUP12 DUP10 DUP2 MLOAD DUP2 LT PUSH2 0x27F6 JUMPI INVALID JUMPDEST PUSH1 0x20 MUL PUSH1 0x20 ADD ADD MLOAD DUP8 DUP16 DUP13 PUSH1 0xC0 ADD MLOAD PUSH2 0x138B JUMP JUMPDEST DUP15 MLOAD PUSH1 0x40 ADD MLOAD SWAP1 PUSH2 0x2970 JUMP JUMPDEST DUP5 SWAP1 PUSH2 0x24AE JUMP JUMPDEST SWAP1 POP PUSH2 0x2829 DUP11 DUP3 PUSH2 0x24AE JUMP JUMPDEST SWAP10 POP POP PUSH1 0x1 SWAP1 SWAP5 ADD SWAP4 POP PUSH2 0x274D SWAP3 POP POP POP JUMP JUMPDEST POP POP POP SWAP3 POP SWAP3 SWAP1 POP JUMP JUMPDEST PUSH1 0x0 PUSH1 0x2 DUP3 GT PUSH2 0x2858 JUMPI POP PUSH1 0x0 PUSH2 0x343 JUMP JUMPDEST PUSH1 0x0 PUSH2 0x2864 DUP8 DUP8 PUSH2 0x3077 JUMP JUMPDEST SWAP1 POP DUP1 PUSH2 0x2872 JUMPI SWAP1 POP PUSH2 0x343 JUMP JUMPDEST PUSH1 0x0 PUSH2 0x287D DUP6 PUSH2 0x16AB JUMP JUMPDEST SWAP1 POP DUP6 DUP2 EQ ISZERO PUSH2 0x28A7 JUMPI POP PUSH21 0x400080000002002000000002000000200000000020 NOT AND SWAP1 POP PUSH2 0x343 JUMP JUMPDEST PUSH1 0x1 JUMPDEST DUP5 DUP2 GT PUSH2 0x28E7 JUMPI PUSH1 0x0 PUSH2 0x28BC DUP3 PUSH2 0x16CC JUMP JUMPDEST DUP4 ADD SWAP1 POP PUSH1 0x0 PUSH2 0x28CC DUP10 DUP4 PUSH2 0x30AC JUMP JUMPDEST POP SWAP1 POP PUSH2 0x28DB DUP6 DUP3 PUSH1 0x0 PUSH2 0x31B7 JUMP JUMPDEST SWAP5 POP POP POP PUSH1 0x1 ADD PUSH2 0x28AA JUMP JUMPDEST POP DUP2 SWAP3 POP POP POP PUSH2 0x343 JUMP JUMPDEST PUSH1 0x0 DUP1 PUSH1 0x0 PUSH2 0x2900 DUP5 PUSH2 0x3202 JUMP JUMPDEST SWAP1 POP JUMPDEST DUP1 ISZERO PUSH2 0x2963 JUMPI PUSH1 0x0 PUSH2 0x2915 DUP10 DUP4 PUSH2 0x3227 JUMP JUMPDEST SWAP1 POP PUSH1 0x0 PUSH2 0x2927 DUP13 DUP13 DUP5 DUP13 DUP13 DUP13 PUSH2 0x32DA JUMP JUMPDEST SWAP1 POP PUSH2 0x2933 DUP6 DUP3 PUSH2 0x24AE JUMP JUMPDEST SWAP5 POP PUSH1 0x0 DUP2 SLT ISZERO PUSH2 0x2943 JUMPI PUSH1 0x1 SWAP4 POP JUMPDEST PUSH2 0x294F DUP7 DUP5 PUSH1 0x0 PUSH2 0x31B7 JUMP JUMPDEST SWAP6 POP PUSH2 0x295A DUP7 PUSH2 0x3202 JUMP JUMPDEST SWAP3 POP POP POP PUSH2 0x2903 JUMP JUMPDEST POP SWAP8 POP SWAP8 SWAP6 POP POP POP POP POP POP JUMP JUMPDEST PUSH1 0x0 DUP1 PUSH2 0x456 DUP5 PUSH1 0x20 ADD MLOAD PUSH2 0xB11 DUP7 PUSH1 0x40 ADD MLOAD PUSH2 0x299B PUSH5 0x2540BE400 DUP9 PUSH2 0x154F SWAP1 SWAP2 SWAP1 PUSH4 0xFFFFFFFF AND JUMP JUMPDEST SWAP1 PUSH2 0x154F JUMP JUMPDEST PUSH1 0x0 DUP1 PUSH1 0x0 PUSH2 0x29AE PUSH2 0x332F JUMP JUMPDEST PUSH1 0x0 SWAP5 DUP6 MSTORE PUSH1 0x20 MSTORE POP POP PUSH1 0x40 SWAP1 SWAP2 KECCAK256 SLOAD PUSH1 0x1 PUSH1 0x1 PUSH1 0xA0 SHL SUB DUP2 AND SWAP3 PUSH1 0x1 PUSH1 0xA0 SHL SWAP1 SWAP2 DIV PUSH1 0xFF AND SWAP2 POP JUMP JUMPDEST PUSH1 0x0 DUP1 PUSH2 0x29E3 PUSH2 0x333C JUMP JUMPDEST PUSH1 0x0 SWAP4 DUP5 MSTORE PUSH1 0x20 MSTORE POP POP PUSH1 0x40 SWAP1 KECCAK256 SLOAD SWAP1 JUMP JUMPDEST PUSH1 0x0 DUP3 PUSH1 0x1 GT ISZERO DUP1 ISZERO PUSH2 0x2A0C JUMPI POP DUP4 PUSH1 0x20 ADD MLOAD DUP4 GT ISZERO JUMPDEST PUSH2 0x2A15 JUMPI PUSH1 0x0 DUP1 REVERT JUMPDEST PUSH1 0x60 DUP5 ADD MLOAD PUSH1 0x80 PUSH1 0x8 PUSH1 0x0 NOT DUP7 ADD MUL ADD SWAP1 PUSH1 0xFF SWAP1 DUP3 SHR AND PUSH4 0x3B9ACA00 MUL PUSH1 0x0 PUSH2 0x2A4E PUSH2 0x2A40 DUP7 PUSH2 0x885 JUMP JUMPDEST PUSH2 0xB11 DUP5 PUSH4 0x1DA9C00 PUSH2 0x154F JUMP JUMPDEST SWAP1 POP PUSH1 0x0 DUP2 SGT PUSH2 0x961 JUMPI PUSH1 0x0 DUP1 REVERT JUMPDEST PUSH1 0x0 DUP1 PUSH1 0x0 PUSH2 0x2A6C DUP8 DUP6 PUSH2 0x1B8F JUMP JUMPDEST SWAP1 POP PUSH4 0x3B9ACA00 DUP2 SLT ISZERO PUSH2 0x2A87 JUMPI PUSH1 0x0 DUP1 SWAP3 POP SWAP3 POP POP PUSH2 0x87B JUMP JUMPDEST PUSH1 0x0 DUP1 PUSH2 0x2A9E PUSH2 0x2A97 DUP12 DUP11 PUSH2 0x24AE JUMP JUMPDEST DUP12 SWAP1 PUSH2 0x2E37 JUMP JUMPDEST SWAP1 POP PUSH1 0x0 DUP1 PUSH2 0x2AAC DUP4 PUSH2 0x2E50 JUMP JUMPDEST SWAP2 POP SWAP2 POP DUP1 PUSH2 0x2AC6 JUMPI PUSH1 0x0 DUP1 SWAP7 POP SWAP7 POP POP POP POP POP POP PUSH2 0x87B JUMP JUMPDEST PUSH2 0x2ADA PUSH2 0x2AD3 DUP4 DUP12 PUSH2 0x2E37 JUMP JUMPDEST DUP7 SWAP1 PUSH2 0x2CE1 JUMP JUMPDEST SWAP13 PUSH1 0x1 SWAP13 POP SWAP11 POP POP POP POP POP POP POP POP POP POP POP JUMP JUMPDEST PUSH1 0x0 PUSH8 0x7FFFFFFFFFFFFFFF DUP3 GT ISZERO PUSH2 0x2B04 JUMPI PUSH1 0x0 DUP1 REVERT JUMPDEST POP PUSH1 0x40 SHL SWAP1 JUMP JUMPDEST PUSH1 0x0 DUP2 PUSH1 0xF SIGNEXTEND PUSH1 0x0 EQ ISZERO PUSH2 0x2B1E JUMPI PUSH1 0x0 DUP1 REVERT JUMPDEST PUSH1 0x0 DUP3 PUSH1 0xF SIGNEXTEND PUSH1 0x40 DUP6 PUSH1 0xF SIGNEXTEND SWAP1 SHL DUP2 PUSH2 0x2B33 JUMPI INVALID JUMPDEST SDIV SWAP1 POP PUSH1 0x1 PUSH1 0x1 PUSH1 0x7F SHL SUB NOT DUP2 SLT DUP1 ISZERO SWAP1 PUSH2 0x2B55 JUMPI POP PUSH1 0x1 PUSH1 0x1 PUSH1 0x7F SHL SUB DUP2 SGT ISZERO JUMPDEST PUSH2 0x417 JUMPI PUSH1 0x0 DUP1 REVERT JUMPDEST PUSH1 0x0 PUSH1 0x1 PUSH1 0x46 SHL DUP3 PUSH1 0xF SIGNEXTEND SLT PUSH2 0x2B73 JUMPI PUSH1 0x0 DUP1 REVERT JUMPDEST PUSH9 0x3FFFFFFFFFFFFFFFFF NOT DUP3 PUSH1 0xF SIGNEXTEND SLT ISZERO PUSH2 0x2B90 JUMPI POP PUSH1 0x0 PUSH2 0x89E JUMP JUMPDEST PUSH2 0x3B0 PUSH1 0x80 DUP4 PUSH1 0xF SIGNEXTEND PUSH17 0x171547652B82FE1777D0FFDA0D23A7D12 MUL SWAP1 SAR PUSH2 0x3349 JUMP JUMPDEST PUSH1 0x0 PUSH1 0xF DUP4 DUP2 SIGNEXTEND SWAP1 DUP4 SWAP1 SIGNEXTEND MUL PUSH1 0x40 SAR PUSH1 0x1 PUSH1 0x1 PUSH1 0x7F SHL SUB NOT DUP2 SLT DUP1 ISZERO SWAP1 PUSH2 0x2B55 JUMPI POP PUSH1 0x1 PUSH1 0x1 PUSH1 0x7F SHL SUB DUP2 SGT ISZERO PUSH2 0x417 JUMPI PUSH1 0x0 DUP1 REVERT JUMPDEST PUSH1 0xF SIGNEXTEND PUSH1 0x40 SAR SWAP1 JUMP JUMPDEST PUSH1 0x0 DUP1 DUP1 PUSH2 0x2C17 PUSH2 0x2C10 PUSH2 0x2C06 DUP11 DUP10 PUSH2 0x24AE JUMP JUMPDEST PUSH2 0x299B DUP13 DUP11 PUSH2 0x2CE1 JUMP JUMPDEST DUP9 SWAP1 PUSH2 0x22BE JUMP JUMPDEST SWAP1 POP PUSH1 0x0 DUP7 SGT ISZERO PUSH2 0x2C64 JUMPI PUSH2 0x2C2C DUP6 DUP6 PUSH2 0x2E37 JUMP JUMPDEST SWAP5 POP PUSH4 0x3B9ACA00 DUP6 SLT ISZERO PUSH2 0x2C3F JUMPI PUSH1 0x0 DUP1 REVERT JUMPDEST PUSH2 0x2C5D DUP5 PUSH2 0x2C57 PUSH2 0x2C50 DUP13 DUP13 PUSH2 0x24AE JUMP JUMPDEST DUP14 SWAP1 PUSH2 0x154F JUMP JUMPDEST SWAP1 PUSH2 0x2E37 JUMP JUMPDEST SWAP2 POP PUSH2 0x2C9B JUMP JUMPDEST PUSH2 0x2C6E DUP6 DUP6 PUSH2 0x22BE JUMP JUMPDEST SWAP5 POP PUSH4 0x3B9ACA00 DUP6 SLT ISZERO PUSH2 0x2C81 JUMPI PUSH1 0x0 DUP1 REVERT JUMPDEST PUSH2 0x2C98 PUSH2 0x2C91 PUSH2 0x243F DUP12 DUP12 PUSH2 0x24AE JUMP JUMPDEST DUP12 SWAP1 PUSH2 0x22BE JUMP JUMPDEST SWAP2 POP JUMPDEST PUSH2 0x2CB3 PUSH2 0x2CA8 DUP4 DUP4 PUSH2 0x181E JUMP JUMPDEST PUSH4 0x5F5E100 SWAP1 PUSH2 0x2CE1 JUMP JUMPDEST SWAP2 POP PUSH1 0x0 PUSH2 0x2CC1 DUP12 DUP8 PUSH2 0x22BE JUMP JUMPDEST SWAP1 POP PUSH2 0x2CCD DUP2 DUP9 PUSH2 0x24AE JUMP JUMPDEST SWAP1 POP PUSH2 0x212E DUP4 PUSH2 0xB11 DUP4 PUSH4 0x5F5E100 PUSH2 0x154F JUMP JUMPDEST DUP1 DUP3 SUB DUP3 DUP2 SGT ISZERO PUSH1 0x0 DUP4 SLT ISZERO EQ PUSH2 0x3B0 JUMPI PUSH1 0x0 DUP1 REVERT JUMPDEST PUSH1 0x0 PUSH3 0xF4240 DUP3 PUSH1 0x13 DUP2 GT ISZERO PUSH2 0x191C JUMPI INVALID JUMPDEST PUSH1 0x0 DUP1 PUSH2 0x3B0 PUSH1 0x6 PUSH2 0x2CF7 JUMP JUMPDEST PUSH1 0x8 DUP2 SWAP1 SHR PUSH1 0xFF SWAP1 SWAP2 AND SHL SWAP1 JUMP JUMPDEST PUSH1 0x0 DUP1 PUSH2 0x3B0 PUSH1 0x11 PUSH2 0x2CF7 JUMP JUMPDEST PUSH1 0x0 DUP1 PUSH2 0x3B0 PUSH1 0x2 PUSH2 0x2CF7 JUMP JUMPDEST PUSH1 0x0 DUP1 PUSH2 0x3B0 PUSH1 0xA PUSH2 0x2CF7 JUMP JUMPDEST PUSH1 0x0 DUP1 DUP4 GT PUSH2 0x2D59 JUMPI PUSH1 0x0 DUP1 REVERT JUMPDEST DUP2 DUP7 GT ISZERO PUSH2 0x2D68 JUMPI POP DUP4 PUSH2 0x343 JUMP JUMPDEST PUSH1 0x0 PUSH2 0x2D74 DUP4 DUP9 PUSH2 0x1FA6 JUMP JUMPDEST SWAP1 POP DUP4 DUP2 GT ISZERO PUSH2 0x2D87 JUMPI DUP6 SWAP2 POP POP PUSH2 0x343 JUMP JUMPDEST PUSH1 0x0 PUSH2 0x2D9B DUP6 PUSH2 0x1092 DUP5 PUSH4 0x3B9ACA00 PUSH2 0x1EC4 JUMP JUMPDEST SWAP1 POP PUSH1 0x0 PUSH2 0x2DAD PUSH4 0x3B9ACA00 DUP4 PUSH2 0x1FA6 JUMP JUMPDEST SWAP1 POP PUSH1 0x0 PUSH2 0x2DD0 PUSH4 0x3B9ACA00 PUSH2 0x1092 PUSH2 0x2DC6 DUP12 DUP7 PUSH2 0x1EC4 JUMP JUMPDEST PUSH2 0x1419 DUP14 DUP9 PUSH2 0x1EC4 JUMP JUMPDEST SWAP11 SWAP10 POP POP POP POP POP POP POP POP POP POP JUMP JUMPDEST PUSH1 0x0 PUSH1 0xF DUP3 SWAP1 SIGNEXTEND PUSH1 0x1 PUSH1 0x1 PUSH1 0x7F SHL SUB NOT EQ ISZERO PUSH2 0x2DF9 JUMPI PUSH1 0x0 DUP1 REVERT JUMPDEST POP PUSH1 0x0 SUB SWAP1 JUMP JUMPDEST PUSH2 0x2E0D DUP8 DUP8 DUP8 DUP7 DUP6 PUSH2 0x3DF7 JUMP JUMPDEST PUSH2 0x2E26 DUP8 PUSH1 0xE0 ADD MLOAD DUP9 PUSH1 0xA0 ADD MLOAD DUP10 PUSH1 0xC0 ADD MLOAD DUP6 DUP9 PUSH2 0x2D4B JUMP JUMPDEST PUSH1 0xC0 SWAP1 SWAP8 ADD SWAP7 SWAP1 SWAP7 MSTORE POP POP POP POP POP POP JUMP JUMPDEST PUSH1 0x0 PUSH2 0x417 PUSH2 0x2E4A DUP5 PUSH4 0x3B9ACA00 PUSH2 0x154F JUMP JUMPDEST DUP4 PUSH2 0x181E JUMP JUMPDEST PUSH1 0x0 DUP1 PUSH4 0x3B9ACA00 DUP4 EQ ISZERO PUSH2 0x2E6A JUMPI POP PUSH1 0x0 SWAP1 POP DUP1 PUSH2 0x2EED JUMP JUMPDEST PUSH1 0x0 PUSH2 0x2E84 PUSH2 0x2E7D PUSH4 0x3B9ACA00 DUP7 PUSH2 0x2CE1 JUMP JUMPDEST DUP6 SWAP1 PUSH2 0x2E37 JUMP JUMPDEST SWAP1 POP PUSH1 0x0 PUSH2 0x2E91 DUP3 PUSH2 0x2EFF JUMP JUMPDEST SWAP1 POP PUSH1 0x0 DUP2 PUSH1 0xF SIGNEXTEND SGT PUSH2 0x2EAC JUMPI PUSH1 0x0 DUP1 SWAP4 POP SWAP4 POP POP POP PUSH2 0x2EED JUMP JUMPDEST PUSH1 0x0 PUSH2 0x2EE0 PUSH2 0x2EDB PUSH2 0x2ECF PUSH2 0x2EC0 DUP6 PUSH2 0x2F2B JUMP JUMPDEST PUSH9 0x14B927F32BFFB83338 PUSH2 0x3EB8 JUMP JUMPDEST PUSH3 0x1DCD65 PUSH1 0x49 SHL PUSH2 0x2BB3 JUMP JUMPDEST PUSH2 0x2BE9 JUMP JUMPDEST PUSH1 0x7 SIGNEXTEND SWAP5 POP PUSH1 0x1 SWAP4 POP POP POP POP JUMPDEST SWAP2 POP SWAP2 JUMP JUMPDEST PUSH1 0x60 ADD MLOAD PUSH1 0x18 SHR PUSH1 0xFF AND SWAP1 JUMP JUMPDEST PUSH1 0x0 PUSH8 0x7FFFFFFFFFFFFFFF NOT DUP3 SLT ISZERO DUP1 ISZERO PUSH2 0x2F22 JUMPI POP PUSH8 0x7FFFFFFFFFFFFFFF DUP3 SGT ISZERO JUMPDEST PUSH2 0x2B04 JUMPI PUSH1 0x0 DUP1 REVERT JUMPDEST PUSH1 0x0 DUP1 DUP3 PUSH1 0xF SIGNEXTEND SGT PUSH2 0x2F3C JUMPI PUSH1 0x0 DUP1 REVERT JUMPDEST PUSH1 0x80 PUSH2 0x2F47 DUP4 PUSH2 0x3EEB JUMP JUMPDEST PUSH1 0xF SIGNEXTEND PUSH16 0xB17217F7D1CF79ABC9E3B39803F2F6AF MUL SWAP1 SHR SWAP1 POP SWAP2 SWAP1 POP JUMP JUMPDEST PUSH1 0x0 DUP1 DUP3 PUSH1 0xF SIGNEXTEND SLT ISZERO PUSH2 0x2F77 JUMPI PUSH1 0x0 DUP1 REVERT JUMPDEST POP PUSH1 0xF SIGNEXTEND PUSH1 0x40 SAR SWAP1 JUMP JUMPDEST PUSH1 0x0 DUP1 PUSH2 0x3B0 PUSH1 0x13 PUSH2 0x2CF7 JUMP JUMPDEST PUSH1 0x60 PUSH1 0x0 PUSH2 0x2F9C DUP5 DUP5 PUSH2 0x3FC6 JUMP JUMPDEST SWAP1 POP PUSH1 0x1 DUP2 MLOAD GT PUSH2 0x2FAE JUMPI SWAP1 POP PUSH2 0x3B0 JUMP JUMPDEST PUSH2 0x417 DUP2 PUSH2 0x40DE JUMP JUMPDEST PUSH1 0x0 DUP1 PUSH2 0x2FC7 DUP5 PUSH1 0x40 ADD MLOAD PUSH2 0x429D JUMP JUMPDEST DUP1 ISZERO PUSH2 0x2FD8 JUMPI POP PUSH1 0x0 DUP5 PUSH1 0x60 ADD MLOAD SLT ISZERO JUMPDEST PUSH2 0x2FE1 JUMPI PUSH1 0x0 DUP1 REVERT JUMPDEST PUSH2 0x3004 DUP4 PUSH1 0x80 ADD MLOAD PUSH2 0xB11 DUP7 PUSH1 0x60 ADD MLOAD DUP7 PUSH1 0x60 ADD MLOAD PUSH2 0x154F SWAP1 SWAP2 SWAP1 PUSH4 0xFFFFFFFF AND JUMP JUMPDEST SWAP2 POP PUSH2 0x3029 DUP4 PUSH1 0x80 ADD MLOAD PUSH2 0xB11 DUP7 PUSH1 0x60 ADD MLOAD DUP7 PUSH1 0x40 ADD MLOAD PUSH2 0x154F SWAP1 SWAP2 SWAP1 PUSH4 0xFFFFFFFF AND JUMP JUMPDEST SWAP1 POP SWAP3 POP SWAP3 SWAP1 POP JUMP JUMPDEST PUSH1 0x0 DUP1 PUSH2 0x303D PUSH2 0x42B3 JUMP JUMPDEST PUSH1 0x1 PUSH1 0x1 PUSH1 0xA0 SHL SUB DUP7 AND PUSH1 0x0 SWAP1 DUP2 MSTORE PUSH1 0x20 SWAP2 DUP3 MSTORE PUSH1 0x40 DUP1 DUP3 KECCAK256 DUP8 DUP4 MSTORE DUP4 MSTORE DUP1 DUP3 KECCAK256 DUP7 DUP4 MSTORE SWAP1 SWAP3 MSTORE KECCAK256 SLOAD PUSH1 0xF SWAP1 DUP2 SIGNEXTEND SWAP1 SIGNEXTEND SWAP2 POP POP SWAP4 SWAP3 POP POP POP JUMP JUMPDEST PUSH1 0x0 DUP1 PUSH2 0x3082 PUSH2 0x42C0 JUMP JUMPDEST PUSH1 0x1 PUSH1 0x1 PUSH1 0xA0 SHL SUB DUP6 AND PUSH1 0x0 SWAP1 DUP2 MSTORE PUSH1 0x20 SWAP2 DUP3 MSTORE PUSH1 0x40 DUP1 DUP3 KECCAK256 DUP7 DUP4 MSTORE SWAP1 SWAP3 MSTORE KECCAK256 SLOAD SWAP2 POP POP SWAP3 SWAP2 POP POP JUMP JUMPDEST PUSH1 0x0 DUP1 PUSH1 0x0 PUSH2 0x30BA DUP6 PUSH2 0x42CD JUMP JUMPDEST SWAP1 POP PUSH3 0x15180 DUP5 MOD ISZERO PUSH2 0x30D4 JUMPI PUSH1 0x0 DUP1 SWAP3 POP SWAP3 POP POP PUSH2 0x31B0 JUMP JUMPDEST DUP4 DUP2 LT PUSH2 0x30E8 JUMPI PUSH1 0x0 DUP1 SWAP3 POP SWAP3 POP POP PUSH2 0x31B0 JUMP JUMPDEST PUSH3 0x15180 DUP2 DUP6 SUB DIV PUSH1 0x5A DUP2 GT PUSH2 0x3105 JUMPI SWAP3 POP PUSH1 0x1 SWAP2 POP PUSH2 0x31B0 SWAP1 POP JUMP JUMPDEST PUSH2 0x168 DUP2 GT PUSH2 0x3144 JUMPI PUSH1 0x0 PUSH3 0x15180 PUSH3 0x7E900 DUP5 MOD DIV DUP3 ADD PUSH1 0x59 NOT ADD SWAP1 POP PUSH1 0x6 DUP2 DIV PUSH1 0x5A ADD PUSH1 0x6 DUP3 DUP2 PUSH2 0x3134 JUMPI INVALID JUMPDEST MOD PUSH1 0x0 EQ SWAP5 POP SWAP5 POP POP POP POP PUSH2 0x31B0 JUMP JUMPDEST PUSH2 0x870 DUP2 GT PUSH2 0x3174 JUMPI PUSH1 0x0 PUSH3 0x15180 PUSH3 0x278D00 DUP5 MOD DIV DUP3 ADD PUSH2 0x167 NOT ADD SWAP1 POP PUSH1 0x1E DUP2 DIV PUSH1 0x87 ADD PUSH1 0x1E DUP3 DUP2 PUSH2 0x3134 JUMPI INVALID JUMPDEST PUSH2 0x1DE2 DUP2 GT PUSH2 0x31A4 JUMPI PUSH1 0x0 PUSH3 0x15180 PUSH3 0x76A700 DUP5 MOD DIV DUP3 ADD PUSH2 0x86F NOT ADD SWAP1 POP PUSH1 0x5A DUP2 DIV PUSH1 0xC3 ADD PUSH1 0x5A DUP3 DUP2 PUSH2 0x3134 JUMPI INVALID JUMPDEST PUSH2 0x100 PUSH1 0x0 SWAP4 POP SWAP4 POP POP POP JUMPDEST SWAP3 POP SWAP3 SWAP1 POP JUMP JUMPDEST PUSH1 0x0 PUSH1 0x1 DUP4 LT ISZERO DUP1 ISZERO PUSH2 0x31CC JUMPI POP PUSH2 0x100 DUP4 GT ISZERO JUMPDEST PUSH2 0x31D5 JUMPI PUSH1 0x0 DUP1 REVERT JUMPDEST DUP2 ISZERO PUSH2 0x31EE JUMPI POP PUSH1 0x1 PUSH1 0xFF SHL PUSH1 0x0 NOT DUP4 ADD SHR DUP4 OR PUSH2 0x417 JUMP JUMPDEST POP PUSH1 0x1 PUSH1 0xFF SHL PUSH1 0x0 NOT DUP4 ADD SHR NOT DUP4 AND PUSH2 0x417 JUMP JUMPDEST PUSH1 0x0 DUP2 PUSH2 0x3211 JUMPI POP PUSH1 0x0 PUSH2 0x89E JUMP JUMPDEST PUSH2 0x321A DUP3 PUSH2 0x42E9 JUMP JUMPDEST PUSH1 0xFF SUB PUSH1 0x1 ADD SWAP1 POP SWAP2 SWAP1 POP JUMP JUMPDEST PUSH1 0x0 DUP2 PUSH2 0x3233 JUMPI PUSH1 0x0 DUP1 REVERT JUMPDEST PUSH2 0x100 DUP3 GT ISZERO PUSH2 0x3242 JUMPI PUSH1 0x0 DUP1 REVERT JUMPDEST PUSH1 0x0 PUSH2 0x324D DUP5 PUSH2 0x42CD JUMP JUMPDEST SWAP1 POP PUSH1 0x0 PUSH1 0x5A DUP5 GT PUSH2 0x3268 JUMPI POP PUSH3 0x15180 DUP4 MUL ADD SWAP1 POP PUSH2 0x3B0 JUMP JUMPDEST PUSH1 0x87 DUP5 GT PUSH2 0x3290 JUMPI POP PUSH1 0x59 NOT DUP4 ADD PUSH3 0x7E900 SWAP1 DUP2 MUL SWAP1 DUP3 MOD SWAP1 SWAP2 SUB ADD PUSH3 0x76A700 ADD SWAP1 POP PUSH2 0x3B0 JUMP JUMPDEST PUSH1 0xC3 DUP5 GT PUSH2 0x32B9 JUMPI POP PUSH1 0x86 NOT DUP4 ADD PUSH3 0x278D00 SWAP1 DUP2 MUL SWAP1 DUP3 MOD SWAP1 SWAP2 SUB ADD PUSH4 0x1DA9C00 ADD SWAP1 POP PUSH2 0x3B0 JUMP JUMPDEST POP PUSH1 0xC2 NOT DUP4 ADD PUSH3 0x76A700 SWAP1 DUP2 MUL SWAP1 DUP3 MOD SWAP1 SWAP2 SUB ADD PUSH4 0xB1FA800 ADD SWAP1 POP PUSH2 0x3B0 JUMP JUMPDEST PUSH1 0x0 DUP1 PUSH2 0x32E8 DUP9 DUP9 DUP9 PUSH2 0x3032 JUMP JUMPDEST SWAP1 POP DUP5 DUP7 GT PUSH2 0x32F8 JUMPI SWAP1 POP PUSH2 0x961 JUMP JUMPDEST PUSH1 0x0 PUSH2 0x3305 DUP6 DUP9 DUP9 PUSH2 0x11FB JUMP JUMPDEST SWAP1 POP DUP4 ISZERO PUSH2 0x3323 JUMPI PUSH2 0x331A DUP6 DUP4 DUP10 DUP10 DUP6 PUSH2 0x12EB JUMP JUMPDEST SWAP3 POP POP POP PUSH2 0x961 JUMP JUMPDEST PUSH2 0x331A DUP3 DUP9 DUP9 DUP5 PUSH2 0x138B JUMP JUMPDEST PUSH1 0x0 DUP1 PUSH2 0x3B0 PUSH1 0xF PUSH2 0x2CF7 JUMP JUMPDEST PUSH1 0x0 DUP1 PUSH2 0x3B0 PUSH1 0x9 PUSH2 0x2CF7 JUMP JUMPDEST PUSH1 0x0 PUSH1 0x1 PUSH1 0x46 SHL DUP3 PUSH1 0xF SIGNEXTEND SLT PUSH2 0x335E JUMPI PUSH1 0x0 DUP1 REVERT JUMPDEST PUSH9 0x3FFFFFFFFFFFFFFFFF NOT DUP3 PUSH1 0xF SIGNEXTEND SLT ISZERO PUSH2 0x337B JUMPI POP PUSH1 0x0 PUSH2 0x89E JUMP JUMPDEST PUSH1 0x1 PUSH1 0x7F SHL PUSH1 0x0 PUSH1 0x1 PUSH1 0x3F SHL DUP5 AND PUSH1 0xF SIGNEXTEND SGT ISZERO PUSH2 0x33A9 JUMPI PUSH17 0x16A09E667F3BCC908B2FB1366EA957D3E MUL PUSH1 0x80 SHR JUMPDEST PUSH1 0x0 DUP4 PUSH8 0x4000000000000000 AND PUSH1 0xF SIGNEXTEND SGT ISZERO PUSH2 0x33D6 JUMPI PUSH17 0x1306FE0A31B7152DE8D5A46305C85EDEC MUL PUSH1 0x80 SHR JUMPDEST PUSH1 0x0 DUP4 PUSH8 0x2000000000000000 AND PUSH1 0xF SIGNEXTEND SGT ISZERO PUSH2 0x3403 JUMPI PUSH17 0x1172B83C7D517ADCDF7C8C50EB14A791F MUL PUSH1 0x80 SHR JUMPDEST PUSH1 0x0 DUP4 PUSH8 0x1000000000000000 AND PUSH1 0xF SIGNEXTEND SGT ISZERO PUSH2 0x3430 JUMPI PUSH17 0x10B5586CF9890F6298B92B71842A98363 MUL PUSH1 0x80 SHR JUMPDEST PUSH1 0x0 DUP4 PUSH8 0x800000000000000 AND PUSH1 0xF SIGNEXTEND SGT ISZERO PUSH2 0x345D JUMPI PUSH17 0x1059B0D31585743AE7C548EB68CA417FD MUL PUSH1 0x80 SHR JUMPDEST PUSH1 0x0 DUP4 PUSH8 0x400000000000000 AND PUSH1 0xF SIGNEXTEND SGT ISZERO PUSH2 0x348A JUMPI PUSH17 0x102C9A3E778060EE6F7CACA4F7A29BDE8 MUL PUSH1 0x80 SHR JUMPDEST PUSH1 0x0 DUP4 PUSH8 0x200000000000000 AND PUSH1 0xF SIGNEXTEND SGT ISZERO PUSH2 0x34B7 JUMPI PUSH17 0x10163DA9FB33356D84A66AE336DCDFA3F MUL PUSH1 0x80 SHR JUMPDEST PUSH1 0x0 DUP4 PUSH1 0x1 PUSH1 0x38 SHL AND PUSH1 0xF SIGNEXTEND SGT ISZERO PUSH2 0x34E0 JUMPI PUSH17 0x100B1AFA5ABCBED6129AB13EC11DC9543 MUL PUSH1 0x80 SHR JUMPDEST PUSH1 0x0 DUP4 PUSH7 0x80000000000000 AND PUSH1 0xF SIGNEXTEND SGT ISZERO PUSH2 0x350C JUMPI PUSH17 0x10058C86DA1C09EA1FF19D294CF2F679B MUL PUSH1 0x80 SHR JUMPDEST PUSH1 0x0 DUP4 PUSH7 0x40000000000000 AND PUSH1 0xF SIGNEXTEND SGT ISZERO PUSH2 0x3538 JUMPI PUSH17 0x1002C605E2E8CEC506D21BFC89A23A00F MUL PUSH1 0x80 SHR JUMPDEST PUSH1 0x0 DUP4 PUSH7 0x20000000000000 AND PUSH1 0xF SIGNEXTEND SGT ISZERO PUSH2 0x3564 JUMPI PUSH17 0x100162F3904051FA128BCA9C55C31E5DF MUL PUSH1 0x80 SHR JUMPDEST PUSH1 0x0 DUP4 PUSH7 0x10000000000000 AND PUSH1 0xF SIGNEXTEND SGT ISZERO PUSH2 0x3590 JUMPI PUSH17 0x1000B175EFFDC76BA38E31671CA939725 MUL PUSH1 0x80 SHR JUMPDEST PUSH1 0x0 DUP4 PUSH7 0x8000000000000 AND PUSH1 0xF SIGNEXTEND SGT ISZERO PUSH2 0x35BC JUMPI PUSH17 0x100058BA01FB9F96D6CACD4B180917C3D MUL PUSH1 0x80 SHR JUMPDEST PUSH1 0x0 DUP4 PUSH7 0x4000000000000 AND PUSH1 0xF SIGNEXTEND SGT ISZERO PUSH2 0x35E8 JUMPI PUSH17 0x10002C5CC37DA9491D0985C348C68E7B3 MUL PUSH1 0x80 SHR JUMPDEST PUSH1 0x0 DUP4 PUSH7 0x2000000000000 AND PUSH1 0xF SIGNEXTEND SGT ISZERO PUSH2 0x3614 JUMPI PUSH17 0x1000162E525EE054754457D5995292026 MUL PUSH1 0x80 SHR JUMPDEST PUSH1 0x0 DUP4 PUSH1 0x1 PUSH1 0x30 SHL AND PUSH1 0xF SIGNEXTEND SGT ISZERO PUSH2 0x363D JUMPI PUSH17 0x10000B17255775C040618BF4A4ADE83FC MUL PUSH1 0x80 SHR JUMPDEST PUSH1 0x0 DUP4 PUSH6 0x800000000000 AND PUSH1 0xF SIGNEXTEND SGT ISZERO PUSH2 0x3668 JUMPI PUSH17 0x1000058B91B5BC9AE2EED81E9B7D4CFAB MUL PUSH1 0x80 SHR JUMPDEST PUSH1 0x0 DUP4 PUSH6 0x400000000000 AND PUSH1 0xF SIGNEXTEND SGT ISZERO PUSH2 0x3693 JUMPI PUSH17 0x100002C5C89D5EC6CA4D7C8ACC017B7C9 MUL PUSH1 0x80 SHR JUMPDEST PUSH1 0x0 DUP4 PUSH6 0x200000000000 AND PUSH1 0xF SIGNEXTEND SGT ISZERO PUSH2 0x36BE JUMPI PUSH17 0x10000162E43F4F831060E02D839A9D16D MUL PUSH1 0x80 SHR JUMPDEST PUSH1 0x0 DUP4 PUSH6 0x100000000000 AND PUSH1 0xF SIGNEXTEND SGT ISZERO PUSH2 0x36E9 JUMPI PUSH17 0x100000B1721BCFC99D9F890EA06911763 MUL PUSH1 0x80 SHR JUMPDEST PUSH1 0x0 DUP4 PUSH6 0x80000000000 AND PUSH1 0xF SIGNEXTEND SGT ISZERO PUSH2 0x3714 JUMPI PUSH17 0x10000058B90CF1E6D97F9CA14DBCC1628 MUL PUSH1 0x80 SHR JUMPDEST PUSH1 0x0 DUP4 PUSH6 0x40000000000 AND PUSH1 0xF SIGNEXTEND SGT ISZERO PUSH2 0x373F JUMPI PUSH17 0x1000002C5C863B73F016468F6BAC5CA2B MUL PUSH1 0x80 SHR JUMPDEST PUSH1 0x0 DUP4 PUSH6 0x20000000000 AND PUSH1 0xF SIGNEXTEND SGT ISZERO PUSH2 0x376A JUMPI PUSH17 0x100000162E430E5A18F6119E3C02282A5 MUL PUSH1 0x80 SHR JUMPDEST PUSH1 0x0 DUP4 PUSH6 0x10000000000 AND PUSH1 0xF SIGNEXTEND SGT ISZERO PUSH2 0x3795 JUMPI PUSH17 0x1000000B1721835514B86E6D96EFD1BFE MUL PUSH1 0x80 SHR JUMPDEST PUSH1 0x0 DUP4 PUSH5 0x8000000000 AND PUSH1 0xF SIGNEXTEND SGT ISZERO PUSH2 0x37BF JUMPI PUSH17 0x100000058B90C0B48C6BE5DF846C5B2EF MUL PUSH1 0x80 SHR JUMPDEST PUSH1 0x0 DUP4 PUSH5 0x4000000000 AND PUSH1 0xF SIGNEXTEND SGT ISZERO PUSH2 0x37E9 JUMPI PUSH17 0x10000002C5C8601CC6B9E94213C72737A MUL PUSH1 0x80 SHR JUMPDEST PUSH1 0x0 DUP4 PUSH5 0x2000000000 AND PUSH1 0xF SIGNEXTEND SGT ISZERO PUSH2 0x3813 JUMPI PUSH17 0x1000000162E42FFF037DF38AA2B219F06 MUL PUSH1 0x80 SHR JUMPDEST PUSH1 0x0 DUP4 PUSH5 0x1000000000 AND PUSH1 0xF SIGNEXTEND SGT ISZERO PUSH2 0x383D JUMPI PUSH17 0x10000000B17217FBA9C739AA5819F44F9 MUL PUSH1 0x80 SHR JUMPDEST PUSH1 0x0 DUP4 PUSH5 0x800000000 AND PUSH1 0xF SIGNEXTEND SGT ISZERO PUSH2 0x3867 JUMPI PUSH17 0x1000000058B90BFCDEE5ACD3C1CEDC823 MUL PUSH1 0x80 SHR JUMPDEST PUSH1 0x0 DUP4 PUSH5 0x400000000 AND PUSH1 0xF SIGNEXTEND SGT ISZERO PUSH2 0x3891 JUMPI PUSH17 0x100000002C5C85FE31F35A6A30DA1BE50 MUL PUSH1 0x80 SHR JUMPDEST PUSH1 0x0 DUP4 PUSH5 0x200000000 AND PUSH1 0xF SIGNEXTEND SGT ISZERO PUSH2 0x38BB JUMPI PUSH17 0x10000000162E42FF0999CE3541B9FFFCF MUL PUSH1 0x80 SHR JUMPDEST PUSH1 0x0 DUP4 PUSH5 0x100000000 AND PUSH1 0xF SIGNEXTEND SGT ISZERO PUSH2 0x38E5 JUMPI PUSH17 0x100000000B17217F80F4EF5AADDA45554 MUL PUSH1 0x80 SHR JUMPDEST PUSH1 0x0 DUP4 PUSH4 0x80000000 AND PUSH1 0xF SIGNEXTEND SGT ISZERO PUSH2 0x390E JUMPI PUSH17 0x10000000058B90BFBF8479BD5A81B51AD MUL PUSH1 0x80 SHR JUMPDEST PUSH1 0x0 DUP4 PUSH4 0x40000000 AND PUSH1 0xF SIGNEXTEND SGT ISZERO PUSH2 0x3937 JUMPI PUSH17 0x1000000002C5C85FDF84BD62AE30A74CC MUL PUSH1 0x80 SHR JUMPDEST PUSH1 0x0 DUP4 PUSH4 0x20000000 AND PUSH1 0xF SIGNEXTEND SGT ISZERO PUSH2 0x3960 JUMPI PUSH17 0x100000000162E42FEFB2FED257559BDAA MUL PUSH1 0x80 SHR JUMPDEST PUSH1 0x0 DUP4 PUSH4 0x10000000 AND PUSH1 0xF SIGNEXTEND SGT ISZERO PUSH2 0x3989 JUMPI PUSH17 0x1000000000B17217F7D5A7716BBA4A9AE MUL PUSH1 0x80 SHR JUMPDEST PUSH1 0x0 DUP4 PUSH4 0x8000000 AND PUSH1 0xF SIGNEXTEND SGT ISZERO PUSH2 0x39B2 JUMPI PUSH17 0x100000000058B90BFBE9DDBAC5E109CCE MUL PUSH1 0x80 SHR JUMPDEST PUSH1 0x0 DUP4 PUSH4 0x4000000 AND PUSH1 0xF SIGNEXTEND SGT ISZERO PUSH2 0x39DB JUMPI PUSH17 0x10000000002C5C85FDF4B15DE6F17EB0D MUL PUSH1 0x80 SHR JUMPDEST PUSH1 0x0 DUP4 PUSH4 0x2000000 AND PUSH1 0xF SIGNEXTEND SGT ISZERO PUSH2 0x3A04 JUMPI PUSH17 0x1000000000162E42FEFA494F1478FDE05 MUL PUSH1 0x80 SHR JUMPDEST PUSH1 0x0 DUP4 PUSH4 0x1000000 AND PUSH1 0xF SIGNEXTEND SGT ISZERO PUSH2 0x3A2D JUMPI PUSH17 0x10000000000B17217F7D20CF927C8E94C MUL PUSH1 0x80 SHR JUMPDEST PUSH1 0x0 DUP4 PUSH3 0x800000 AND PUSH1 0xF SIGNEXTEND SGT ISZERO PUSH2 0x3A55 JUMPI PUSH17 0x1000000000058B90BFBE8F71CB4E4B33D MUL PUSH1 0x80 SHR JUMPDEST PUSH1 0x0 DUP4 PUSH3 0x400000 AND PUSH1 0xF SIGNEXTEND SGT ISZERO PUSH2 0x3A7D JUMPI PUSH17 0x100000000002C5C85FDF477B662B26945 MUL PUSH1 0x80 SHR JUMPDEST PUSH1 0x0 DUP4 PUSH3 0x200000 AND PUSH1 0xF SIGNEXTEND SGT ISZERO PUSH2 0x3AA5 JUMPI PUSH17 0x10000000000162E42FEFA3AE53369388C MUL PUSH1 0x80 SHR JUMPDEST PUSH1 0x0 DUP4 PUSH3 0x100000 AND PUSH1 0xF SIGNEXTEND SGT ISZERO PUSH2 0x3ACD JUMPI PUSH17 0x100000000000B17217F7D1D351A389D40 MUL PUSH1 0x80 SHR JUMPDEST PUSH1 0x0 DUP4 PUSH3 0x80000 AND PUSH1 0xF SIGNEXTEND SGT ISZERO PUSH2 0x3AF5 JUMPI PUSH17 0x10000000000058B90BFBE8E8B2D3D4EDE MUL PUSH1 0x80 SHR JUMPDEST PUSH1 0x0 DUP4 PUSH3 0x40000 AND PUSH1 0xF SIGNEXTEND SGT ISZERO PUSH2 0x3B1D JUMPI PUSH17 0x1000000000002C5C85FDF4741BEA6E77E MUL PUSH1 0x80 SHR JUMPDEST PUSH1 0x0 DUP4 PUSH3 0x20000 AND PUSH1 0xF SIGNEXTEND SGT ISZERO PUSH2 0x3B45 JUMPI PUSH17 0x100000000000162E42FEFA39FE95583C2 MUL PUSH1 0x80 SHR JUMPDEST PUSH1 0x0 DUP4 PUSH3 0x10000 AND PUSH1 0xF SIGNEXTEND SGT ISZERO PUSH2 0x3B6D JUMPI PUSH17 0x1000000000000B17217F7D1CFB72B45E1 MUL PUSH1 0x80 SHR JUMPDEST PUSH1 0x0 DUP4 PUSH2 0x8000 AND PUSH1 0xF SIGNEXTEND SGT ISZERO PUSH2 0x3B94 JUMPI PUSH17 0x100000000000058B90BFBE8E7CC35C3F0 MUL PUSH1 0x80 SHR JUMPDEST PUSH1 0x0 DUP4 PUSH2 0x4000 AND PUSH1 0xF SIGNEXTEND SGT ISZERO PUSH2 0x3BBB JUMPI PUSH17 0x10000000000002C5C85FDF473E242EA38 MUL PUSH1 0x80 SHR JUMPDEST PUSH1 0x0 DUP4 PUSH2 0x2000 AND PUSH1 0xF SIGNEXTEND SGT ISZERO PUSH2 0x3BE2 JUMPI PUSH17 0x1000000000000162E42FEFA39F02B772C MUL PUSH1 0x80 SHR JUMPDEST PUSH1 0x0 DUP4 PUSH2 0x1000 AND PUSH1 0xF SIGNEXTEND SGT ISZERO PUSH2 0x3C09 JUMPI PUSH17 0x10000000000000B17217F7D1CF7D83C1A MUL PUSH1 0x80 SHR JUMPDEST PUSH1 0x0 DUP4 PUSH2 0x800 AND PUSH1 0xF SIGNEXTEND SGT ISZERO PUSH2 0x3C30 JUMPI PUSH17 0x1000000000000058B90BFBE8E7BDCBE2E MUL PUSH1 0x80 SHR JUMPDEST PUSH1 0x0 DUP4 PUSH2 0x400 AND PUSH1 0xF SIGNEXTEND SGT ISZERO PUSH2 0x3C57 JUMPI PUSH17 0x100000000000002C5C85FDF473DEA871F MUL PUSH1 0x80 SHR JUMPDEST PUSH1 0x0 DUP4 PUSH2 0x200 AND PUSH1 0xF SIGNEXTEND SGT ISZERO PUSH2 0x3C7E JUMPI PUSH17 0x10000000000000162E42FEFA39EF44D91 MUL PUSH1 0x80 SHR JUMPDEST PUSH1 0x0 DUP4 PUSH2 0x100 AND PUSH1 0xF SIGNEXTEND SGT ISZERO PUSH2 0x3CA5 JUMPI PUSH17 0x100000000000000B17217F7D1CF79E949 MUL PUSH1 0x80 SHR JUMPDEST PUSH1 0x0 DUP4 PUSH1 0x80 AND PUSH1 0xF SIGNEXTEND SGT ISZERO PUSH2 0x3CCB JUMPI PUSH17 0x10000000000000058B90BFBE8E7BCE544 MUL PUSH1 0x80 SHR JUMPDEST PUSH1 0x0 DUP4 PUSH1 0x40 AND PUSH1 0xF SIGNEXTEND SGT ISZERO PUSH2 0x3CF1 JUMPI PUSH17 0x1000000000000002C5C85FDF473DE6ECA MUL PUSH1 0x80 SHR JUMPDEST PUSH1 0x0 DUP4 PUSH1 0x20 AND PUSH1 0xF SIGNEXTEND SGT ISZERO PUSH2 0x3D17 JUMPI PUSH17 0x100000000000000162E42FEFA39EF366F MUL PUSH1 0x80 SHR JUMPDEST PUSH1 0x0 DUP4 PUSH1 0x10 AND PUSH1 0xF SIGNEXTEND SGT ISZERO PUSH2 0x3D3D JUMPI PUSH17 0x1000000000000000B17217F7D1CF79AFA MUL PUSH1 0x80 SHR JUMPDEST PUSH1 0x0 DUP4 PUSH1 0x8 AND PUSH1 0xF SIGNEXTEND SGT ISZERO PUSH2 0x3D63 JUMPI PUSH17 0x100000000000000058B90BFBE8E7BCD6D MUL PUSH1 0x80 SHR JUMPDEST PUSH1 0x0 DUP4 PUSH1 0x4 AND PUSH1 0xF SIGNEXTEND SGT ISZERO PUSH2 0x3D89 JUMPI PUSH17 0x10000000000000002C5C85FDF473DE6B2 MUL PUSH1 0x80 SHR JUMPDEST PUSH1 0x0 DUP4 PUSH1 0x2 AND PUSH1 0xF SIGNEXTEND SGT ISZERO PUSH2 0x3DAF JUMPI PUSH17 0x1000000000000000162E42FEFA39EF358 MUL PUSH1 0x80 SHR JUMPDEST PUSH1 0x0 DUP4 PUSH1 0x1 AND PUSH1 0xF SIGNEXTEND SGT ISZERO PUSH2 0x3DD5 JUMPI PUSH17 0x10000000000000000B17217F7D1CF79AB MUL PUSH1 0x80 SHR JUMPDEST PUSH1 0xF DUP4 DUP2 SIGNEXTEND PUSH1 0x40 SAR PUSH1 0x3F SUB SWAP1 SIGNEXTEND SHR PUSH1 0x1 PUSH1 0x1 PUSH1 0x7F SHL SUB DUP2 GT ISZERO PUSH2 0x3B0 JUMPI PUSH1 0x0 DUP1 REVERT JUMPDEST PUSH1 0x0 PUSH2 0x3E01 PUSH2 0x2D3E JUMP JUMPDEST PUSH1 0x0 DUP7 DUP2 MSTORE PUSH1 0x20 DUP3 DUP2 MSTORE PUSH1 0x40 DUP1 DUP4 KECCAK256 DUP9 DUP5 MSTORE DUP3 MSTORE DUP1 DUP4 KECCAK256 DUP7 DUP5 MSTORE DUP3 MSTORE SWAP2 DUP3 SWAP1 KECCAK256 DUP1 DUP11 MSTORE SWAP1 DUP10 ADD DUP8 SWAP1 MSTORE DUP1 SLOAD PUSH10 0xFFFFFFFFFFFFFFFFFFFF DUP1 DUP3 AND SWAP4 DUP12 ADD SWAP4 SWAP1 SWAP4 MSTORE PUSH1 0x1 PUSH1 0x50 SHL DUP2 DIV SWAP1 SWAP3 AND PUSH1 0x60 DUP11 ADD MSTORE PUSH4 0xFFFFFFFF PUSH1 0x1 PUSH1 0xA0 SHL DUP4 DIV DUP2 AND PUSH1 0xA0 DUP12 ADD MSTORE PUSH1 0x1 PUSH1 0xC0 SHL DUP4 DIV DUP2 AND PUSH1 0xC0 DUP12 ADD MSTORE PUSH1 0x1 PUSH1 0xE0 SHL SWAP1 SWAP3 DIV SWAP1 SWAP2 AND PUSH1 0xE0 DUP10 ADD MSTORE SWAP1 SWAP2 POP DUP1 DUP5 ISZERO PUSH2 0x3EA6 JUMPI PUSH1 0x1 DUP3 ADD SLOAD PUSH10 0xFFFFFFFFFFFFFFFFFFFF AND PUSH1 0x80 DUP10 ADD MSTORE PUSH2 0x3EAE JUMP JUMPDEST PUSH1 0x0 PUSH1 0x80 DUP10 ADD MSTORE JUMPDEST POP POP POP POP POP POP POP POP JUMP JUMPDEST PUSH1 0x0 PUSH1 0xF DUP3 DUP2 SIGNEXTEND SWAP1 DUP5 SWAP1 SIGNEXTEND SUB PUSH1 0x1 PUSH1 0x1 PUSH1 0x7F SHL SUB NOT DUP2 SLT DUP1 ISZERO SWAP1 PUSH2 0x2B55 JUMPI POP PUSH1 0x1 PUSH1 0x1 PUSH1 0x7F SHL SUB DUP2 SGT ISZERO PUSH2 0x417 JUMPI PUSH1 0x0 DUP1 REVERT JUMPDEST PUSH1 0x0 DUP1 DUP3 PUSH1 0xF SIGNEXTEND SGT PUSH2 0x3EFC JUMPI PUSH1 0x0 DUP1 REVERT JUMPDEST PUSH1 0x0 PUSH1 0xF DUP4 SWAP1 SIGNEXTEND PUSH1 0x1 PUSH1 0x40 SHL DUP2 SLT PUSH2 0x3F16 JUMPI PUSH1 0x40 SWAP2 DUP3 ADD SWAP2 SAR JUMPDEST PUSH5 0x100000000 DUP2 SLT PUSH2 0x3F2A JUMPI PUSH1 0x20 SWAP2 DUP3 ADD SWAP2 SAR JUMPDEST PUSH3 0x10000 DUP2 SLT PUSH2 0x3F3C JUMPI PUSH1 0x10 SWAP2 DUP3 ADD SWAP2 SAR JUMPDEST PUSH2 0x100 DUP2 SLT PUSH2 0x3F4D JUMPI PUSH1 0x8 SWAP2 DUP3 ADD SWAP2 SAR JUMPDEST PUSH1 0x10 DUP2 SLT PUSH2 0x3F5D JUMPI PUSH1 0x4 SWAP2 DUP3 ADD SWAP2 SAR JUMPDEST PUSH1 0x4 DUP2 SLT PUSH2 0x3F6D JUMPI PUSH1 0x2 SWAP2 DUP3 ADD SWAP2 SAR JUMPDEST PUSH1 0x2 DUP2 SLT PUSH2 0x3F7C JUMPI PUSH1 0x1 DUP3 ADD SWAP2 POP JUMPDEST PUSH1 0x3F NOT DUP3 ADD PUSH1 0x40 SHL PUSH1 0xF DUP6 SWAP1 SIGNEXTEND PUSH1 0x7F DUP5 SWAP1 SUB SHL PUSH1 0x1 PUSH1 0x3F SHL JUMPDEST PUSH1 0x0 DUP2 SGT ISZERO PUSH2 0x3FBB JUMPI SWAP1 DUP1 MUL PUSH1 0xFF DUP2 SWAP1 SHR DUP3 DUP2 MUL SWAP4 SWAP1 SWAP4 ADD SWAP3 PUSH1 0x7F ADD SHR SWAP1 PUSH1 0x1 SAR PUSH2 0x3F95 JUMP JUMPDEST POP SWAP1 SWAP6 SWAP5 POP POP POP POP POP JUMP JUMPDEST PUSH1 0x60 PUSH1 0x10 DUP3 PUSH1 0xFF AND GT ISZERO PUSH2 0x3FD9 JUMPI PUSH1 0x0 DUP1 REVERT JUMPDEST PUSH1 0x0 PUSH2 0x3FE3 PUSH2 0x4382 JUMP JUMPDEST PUSH1 0x1 PUSH1 0x1 PUSH1 0xA0 SHL SUB DUP6 AND PUSH1 0x0 SWAP1 DUP2 MSTORE PUSH1 0x20 DUP3 SWAP1 MSTORE PUSH1 0x40 DUP2 KECCAK256 SWAP2 SWAP3 POP PUSH1 0xFF DUP6 AND PUSH8 0xFFFFFFFFFFFFFFFF DUP2 GT DUP1 ISZERO PUSH2 0x4018 JUMPI PUSH1 0x0 DUP1 REVERT JUMPDEST POP PUSH1 0x40 MLOAD SWAP1 DUP1 DUP3 MSTORE DUP1 PUSH1 0x20 MUL PUSH1 0x20 ADD DUP3 ADD PUSH1 0x40 MSTORE DUP1 ISZERO PUSH2 0x4052 JUMPI DUP2 PUSH1 0x20 ADD JUMPDEST PUSH2 0x403F PUSH2 0x45A6 JUMP JUMPDEST DUP2 MSTORE PUSH1 0x20 ADD SWAP1 PUSH1 0x1 SWAP1 SUB SWAP1 DUP2 PUSH2 0x4037 JUMPI SWAP1 POP JUMPDEST POP SWAP1 POP PUSH1 0x0 JUMPDEST DUP6 PUSH1 0xFF AND DUP2 LT ISZERO PUSH2 0x5A3 JUMPI PUSH1 0x0 DUP4 DUP3 PUSH1 0x10 DUP2 LT PUSH2 0x4071 JUMPI INVALID JUMPDEST ADD SWAP1 POP PUSH1 0x0 DUP4 DUP4 DUP2 MLOAD DUP2 LT PUSH2 0x4082 JUMPI INVALID JUMPDEST PUSH1 0x20 SWAP1 DUP2 MUL SWAP2 SWAP1 SWAP2 ADD DUP2 ADD MLOAD DUP4 SLOAD PUSH2 0xFFFF DUP2 AND DUP3 MSTORE PUSH5 0xFFFFFFFFFF PUSH3 0x10000 DUP3 DIV AND SWAP3 DUP3 ADD SWAP3 SWAP1 SWAP3 MSTORE PUSH1 0xFF PUSH1 0x1 PUSH1 0x38 SHL DUP4 DIV AND PUSH1 0x40 DUP3 ADD MSTORE PUSH1 0x1 PUSH1 0x40 SHL SWAP1 SWAP2 DIV PUSH1 0xA SWAP1 DUP2 SIGNEXTEND SWAP1 SIGNEXTEND PUSH1 0x60 DUP3 ADD MSTORE PUSH1 0x80 ADD SWAP2 SWAP1 SWAP2 MSTORE POP PUSH1 0x1 ADD PUSH2 0x4058 JUMP JUMPDEST DUP1 MLOAD PUSH1 0x0 DUP2 PUSH8 0xFFFFFFFFFFFFFFFF DUP2 GT DUP1 ISZERO PUSH2 0x40F9 JUMPI PUSH1 0x0 DUP1 REVERT JUMPDEST POP PUSH1 0x40 MLOAD SWAP1 DUP1 DUP3 MSTORE DUP1 PUSH1 0x20 MUL PUSH1 0x20 ADD DUP3 ADD PUSH1 0x40 MSTORE DUP1 ISZERO PUSH2 0x4123 JUMPI DUP2 PUSH1 0x20 ADD PUSH1 0x20 DUP3 MUL DUP1 CALLDATASIZE DUP4 CALLDATACOPY ADD SWAP1 POP JUMPDEST POP SWAP1 POP PUSH1 0x0 JUMPDEST DUP3 DUP2 LT ISZERO PUSH2 0x4180 JUMPI PUSH1 0x0 DUP5 DUP3 DUP2 MLOAD DUP2 LT PUSH2 0x413F JUMPI INVALID JUMPDEST PUSH1 0x20 MUL PUSH1 0x20 ADD ADD MLOAD SWAP1 POP PUSH2 0x4160 DUP2 PUSH1 0x0 ADD MLOAD DUP3 PUSH1 0x20 ADD MLOAD DUP4 PUSH1 0x40 ADD MLOAD PUSH2 0x438F JUMP JUMPDEST DUP4 DUP4 DUP2 MLOAD DUP2 LT PUSH2 0x416C JUMPI INVALID JUMPDEST PUSH1 0x20 SWAP1 DUP2 MUL SWAP2 SWAP1 SWAP2 ADD ADD MSTORE POP PUSH1 0x1 ADD PUSH2 0x4129 JUMP JUMPDEST POP PUSH1 0x1 JUMPDEST DUP3 DUP2 LT ISZERO PUSH2 0x4297 JUMPI DUP1 JUMPDEST PUSH1 0x0 DUP2 GT DUP1 ISZERO PUSH2 0x41C6 JUMPI POP DUP3 DUP2 DUP2 MLOAD DUP2 LT PUSH2 0x41A5 JUMPI INVALID JUMPDEST PUSH1 0x20 MUL PUSH1 0x20 ADD ADD MLOAD DUP4 PUSH1 0x1 DUP4 SUB DUP2 MLOAD DUP2 LT PUSH2 0x41BC JUMPI INVALID JUMPDEST PUSH1 0x20 MUL PUSH1 0x20 ADD ADD MLOAD GT JUMPDEST ISZERO PUSH2 0x428E JUMPI DUP3 DUP2 DUP2 MLOAD DUP2 LT PUSH2 0x41D7 JUMPI INVALID JUMPDEST PUSH1 0x20 MUL PUSH1 0x20 ADD ADD MLOAD DUP4 PUSH1 0x1 DUP4 SUB DUP2 MLOAD DUP2 LT PUSH2 0x41EE JUMPI INVALID JUMPDEST PUSH1 0x20 MUL PUSH1 0x20 ADD ADD MLOAD DUP5 PUSH1 0x1 DUP5 SUB DUP2 MLOAD DUP2 LT PUSH2 0x4205 JUMPI INVALID JUMPDEST PUSH1 0x20 MUL PUSH1 0x20 ADD ADD DUP6 DUP5 DUP2 MLOAD DUP2 LT PUSH2 0x4218 JUMPI INVALID JUMPDEST PUSH1 0x20 MUL PUSH1 0x20 ADD ADD DUP3 DUP2 MSTORE POP DUP3 DUP2 MSTORE POP POP POP DUP5 DUP2 DUP2 MLOAD DUP2 LT PUSH2 0x4235 JUMPI INVALID JUMPDEST PUSH1 0x20 MUL PUSH1 0x20 ADD ADD MLOAD DUP6 PUSH1 0x1 DUP4 SUB DUP2 MLOAD DUP2 LT PUSH2 0x424C JUMPI INVALID JUMPDEST PUSH1 0x20 MUL PUSH1 0x20 ADD ADD MLOAD DUP7 PUSH1 0x1 DUP5 SUB DUP2 MLOAD DUP2 LT PUSH2 0x4263 JUMPI INVALID JUMPDEST PUSH1 0x20 MUL PUSH1 0x20 ADD ADD DUP8 DUP5 DUP2 MLOAD DUP2 LT PUSH2 0x4276 JUMPI INVALID JUMPDEST PUSH1 0x20 SWAP1 DUP2 MUL SWAP2 SWAP1 SWAP2 ADD ADD SWAP2 SWAP1 SWAP2 MSTORE MSTORE PUSH1 0x0 NOT ADD PUSH2 0x418E JUMP JUMPDEST POP PUSH1 0x1 ADD PUSH2 0x4184 JUMP JUMPDEST POP POP POP POP JUMP JUMPDEST PUSH1 0x0 PUSH1 0x2 DUP3 LT DUP1 ISZERO SWAP1 PUSH2 0x3B0 JUMPI POP POP PUSH1 0x8 LT ISZERO SWAP1 JUMP JUMPDEST PUSH1 0x0 DUP1 PUSH2 0x3B0 PUSH1 0xC PUSH2 0x2CF7 JUMP JUMPDEST PUSH1 0x0 DUP1 PUSH2 0x3B0 PUSH1 0xB PUSH2 0x2CF7 JUMP JUMPDEST PUSH1 0x0 PUSH3 0x15180 DUP3 LT ISZERO PUSH2 0x42DF JUMPI PUSH1 0x0 DUP1 REVERT JUMPDEST PUSH3 0x15180 DUP3 PUSH2 0x16C3 JUMP JUMPDEST PUSH1 0x0 DUP2 PUSH2 0x42F5 JUMPI PUSH1 0x0 DUP1 REVERT JUMPDEST PUSH1 0x1 PUSH1 0x80 SHL DUP3 LT PUSH2 0x4308 JUMPI PUSH1 0x80 SWAP2 DUP3 SHR SWAP2 ADD JUMPDEST PUSH1 0x1 PUSH1 0x40 SHL DUP3 LT PUSH2 0x431B JUMPI PUSH1 0x40 SWAP2 DUP3 SHR SWAP2 ADD JUMPDEST PUSH5 0x100000000 DUP3 LT PUSH2 0x432F JUMPI PUSH1 0x20 SWAP2 DUP3 SHR SWAP2 ADD JUMPDEST PUSH3 0x10000 DUP3 LT PUSH2 0x4341 JUMPI PUSH1 0x10 SWAP2 DUP3 SHR SWAP2 ADD JUMPDEST PUSH2 0x100 DUP3 LT PUSH2 0x4352 JUMPI PUSH1 0x8 SWAP2 DUP3 SHR SWAP2 ADD JUMPDEST PUSH1 0x10 DUP3 LT PUSH2 0x4362 JUMPI PUSH1 0x4 SWAP2 DUP3 SHR SWAP2 ADD JUMPDEST PUSH1 0x4 DUP3 LT PUSH2 0x4372 JUMPI PUSH1 0x2 SWAP2 DUP3 SHR SWAP2 ADD JUMPDEST PUSH1 0x2 DUP3 LT PUSH2 0x89E JUMPI PUSH1 0x1 ADD SWAP2 SWAP1 POP JUMP JUMPDEST PUSH1 0x0 DUP1 PUSH2 0x3B0 PUSH1 0xD PUSH2 0x2CF7 JUMP JUMPDEST PUSH1 0x0 PUSH2 0x3FFF DUP5 GT ISZERO PUSH2 0x43A0 JUMPI PUSH1 0x0 DUP1 REVERT JUMPDEST PUSH5 0xFFFFFFFFFF DUP4 GT ISZERO PUSH2 0x43B2 JUMPI PUSH1 0x0 DUP1 REVERT JUMPDEST PUSH1 0x8 DUP3 GT ISZERO PUSH2 0x43C0 JUMPI PUSH1 0x0 DUP1 REVERT JUMPDEST POP PUSH8 0xFFFF000000000000 PUSH1 0x30 DUP5 SWAP1 SHL AND PUSH6 0xFFFFFFFFFF00 PUSH1 0x8 DUP5 SWAP1 SHL AND OR PUSH1 0xFF DUP3 AND OR SWAP4 SWAP3 POP POP POP JUMP JUMPDEST PUSH1 0x40 MLOAD DUP1 PUSH1 0xE0 ADD PUSH1 0x40 MSTORE DUP1 PUSH2 0x43FD PUSH2 0x4524 JUMP JUMPDEST DUP2 MSTORE PUSH1 0x20 ADD PUSH2 0x440A PUSH2 0x457E JUMP JUMPDEST DUP2 MSTORE PUSH1 0x0 PUSH1 0x20 DUP3 ADD DUP2 SWAP1 MSTORE PUSH1 0x40 DUP3 ADD DUP2 SWAP1 MSTORE PUSH1 0x60 DUP3 ADD DUP2 SWAP1 MSTORE PUSH1 0x80 DUP3 ADD DUP2 SWAP1 MSTORE PUSH1 0xA0 SWAP1 SWAP2 ADD MSTORE SWAP1 JUMP JUMPDEST PUSH1 0x40 MLOAD DUP1 PUSH2 0x120 ADD PUSH1 0x40 MSTORE DUP1 PUSH1 0x0 PUSH2 0xFFFF AND DUP2 MSTORE PUSH1 0x20 ADD PUSH1 0x0 DUP2 MSTORE PUSH1 0x20 ADD PUSH1 0x0 DUP2 MSTORE PUSH1 0x20 ADD PUSH1 0x0 DUP2 MSTORE PUSH1 0x20 ADD PUSH1 0x0 DUP2 MSTORE PUSH1 0x20 ADD PUSH1 0x0 DUP2 MSTORE PUSH1 0x20 ADD PUSH1 0x0 DUP2 MSTORE PUSH1 0x20 ADD PUSH1 0x0 DUP2 MSTORE PUSH1 0x20 ADD PUSH1 0x0 DUP2 MSTORE POP SWAP1 JUMP JUMPDEST PUSH1 0x40 MLOAD DUP1 PUSH2 0x100 ADD PUSH1 0x40 MSTORE DUP1 PUSH1 0x0 DUP1 NOT AND DUP2 MSTORE PUSH1 0x20 ADD PUSH1 0x0 DUP2 MSTORE PUSH1 0x20 ADD PUSH1 0x0 DUP2 MSTORE PUSH1 0x20 ADD PUSH1 0x0 DUP2 MSTORE PUSH1 0x20 ADD PUSH1 0x0 DUP2 MSTORE PUSH1 0x20 ADD PUSH1 0x0 DUP2 MSTORE PUSH1 0x20 ADD PUSH1 0x0 DUP2 MSTORE PUSH1 0x20 ADD PUSH1 0x0 DUP2 MSTORE POP SWAP1 JUMP JUMPDEST PUSH1 0x40 DUP1 MLOAD PUSH1 0xA0 DUP2 ADD DUP3 MSTORE PUSH1 0x0 DUP1 DUP3 MSTORE PUSH1 0x20 DUP3 ADD DUP2 SWAP1 MSTORE SWAP2 DUP2 ADD DUP3 SWAP1 MSTORE SWAP1 PUSH1 0x60 DUP3 ADD SWAP1 DUP2 MSTORE PUSH1 0x20 ADD PUSH1 0x0 DUP2 MSTORE POP SWAP1 JUMP JUMPDEST PUSH1 0x40 MLOAD DUP1 PUSH1 0x60 ADD PUSH1 0x40 MSTORE DUP1 PUSH1 0x0 PUSH1 0x1 PUSH1 0x1 PUSH1 0xA0 SHL SUB AND DUP2 MSTORE PUSH1 0x20 ADD PUSH1 0x0 DUP2 MSTORE PUSH1 0x20 ADD PUSH1 0x0 DUP2 MSTORE POP SWAP1 JUMP JUMPDEST PUSH1 0x40 DUP1 MLOAD PUSH1 0x80 DUP2 ADD DUP3 MSTORE PUSH1 0x0 DUP1 DUP3 MSTORE PUSH1 0x20 DUP3 ADD MSTORE SWAP1 DUP2 ADD PUSH2 0x4543 PUSH2 0x44FA JUMP JUMPDEST DUP2 MSTORE PUSH1 0x0 PUSH1 0x20 SWAP1 SWAP2 ADD MSTORE SWAP1 JUMP JUMPDEST PUSH1 0x40 DUP1 MLOAD PUSH1 0xA0 DUP2 ADD DUP3 MSTORE PUSH1 0x0 DUP1 DUP3 MSTORE PUSH1 0x20 DUP3 ADD DUP2 SWAP1 MSTORE SWAP2 DUP2 ADD DUP3 SWAP1 MSTORE PUSH1 0x60 DUP2 ADD DUP3 SWAP1 MSTORE PUSH1 0x80 DUP2 ADD SWAP2 SWAP1 SWAP2 MSTORE SWAP1 JUMP JUMPDEST PUSH1 0x40 MLOAD DUP1 PUSH1 0x80 ADD PUSH1 0x40 MSTORE DUP1 PUSH1 0x60 DUP2 MSTORE PUSH1 0x20 ADD PUSH1 0x60 DUP2 MSTORE PUSH1 0x20 ADD PUSH1 0x0 DUP2 MSTORE PUSH1 0x20 ADD PUSH1 0x0 DUP2 MSTORE POP SWAP1 JUMP JUMPDEST PUSH1 0x40 MLOAD DUP1 PUSH1 0xC0 ADD PUSH1 0x40 MSTORE DUP1 PUSH1 0x0 DUP2 MSTORE PUSH1 0x20 ADD PUSH1 0x0 DUP2 MSTORE PUSH1 0x20 ADD PUSH1 0x0 DUP2 MSTORE PUSH1 0x20 ADD PUSH1 0x0 DUP2 MSTORE PUSH1 0x20 ADD PUSH1 0x0 DUP2 MSTORE PUSH1 0x20 ADD PUSH1 0x0 PUSH1 0x3 DUP2 GT ISZERO PUSH2 0x45E1 JUMPI INVALID JUMPDEST SWAP1 MSTORE SWAP1 JUMP JUMPDEST DUP1 CALLDATALOAD DUP1 ISZERO ISZERO DUP2 EQ PUSH2 0x89E JUMPI PUSH1 0x0 DUP1 REVERT JUMPDEST DUP1 CALLDATALOAD PUSH2 0xFFFF DUP2 AND DUP2 EQ PUSH2 0x89E JUMPI PUSH1 0x0 DUP1 REVERT JUMPDEST DUP1 CALLDATALOAD PUSH4 0xFFFFFFFF DUP2 AND DUP2 EQ PUSH2 0x89E JUMPI PUSH1 0x0 DUP1 REVERT JUMPDEST PUSH1 0x0 DUP1 PUSH1 0x40 DUP4 DUP6 SUB SLT ISZERO PUSH2 0x462E JUMPI DUP2 DUP3 REVERT JUMPDEST DUP3 CALLDATALOAD PUSH1 0x1 PUSH1 0x1 PUSH1 0xA0 SHL SUB DUP2 AND DUP2 EQ PUSH2 0x4644 JUMPI DUP3 DUP4 REVERT JUMPDEST SWAP5 PUSH1 0x20 SWAP4 SWAP1 SWAP4 ADD CALLDATALOAD SWAP4 POP POP POP JUMP JUMPDEST PUSH1 0x0 PUSH1 0x20 DUP3 DUP5 SUB SLT ISZERO PUSH2 0x4663 JUMPI DUP1 DUP2 REVERT JUMPDEST POP MLOAD SWAP2 SWAP1 POP JUMP JUMPDEST PUSH1 0x0 DUP1 PUSH1 0x0 PUSH1 0x60 DUP5 DUP7 SUB SLT ISZERO PUSH2 0x467E JUMPI DUP1 DUP2 REVERT JUMPDEST PUSH2 0x4687 DUP5 PUSH2 0x45F6 JUMP JUMPDEST SWAP3 POP PUSH1 0x20 DUP5 ADD CALLDATALOAD SWAP2 POP PUSH2 0x469C PUSH1 0x40 DUP6 ADD PUSH2 0x45E6 JUMP JUMPDEST SWAP1 POP SWAP3 POP SWAP3 POP SWAP3 JUMP JUMPDEST PUSH1 0x0 DUP1 PUSH1 0x0 DUP1 PUSH1 0x80 DUP6 DUP8 SUB SLT ISZERO PUSH2 0x46BA JUMPI DUP1 DUP2 REVERT JUMPDEST PUSH2 0x46C3 DUP6 PUSH2 0x45F6 JUMP JUMPDEST SWAP4 POP PUSH1 0x20 DUP6 ADD CALLDATALOAD DUP1 PUSH1 0xA SIGNEXTEND DUP2 EQ PUSH2 0x46D8 JUMPI DUP2 DUP3 REVERT JUMPDEST SWAP4 SWAP7 SWAP4 SWAP6 POP POP POP POP PUSH1 0x40 DUP3 ADD CALLDATALOAD SWAP2 PUSH1 0x60 ADD CALLDATALOAD SWAP1 JUMP JUMPDEST PUSH1 0x0 DUP1 PUSH1 0x0 DUP1 PUSH1 0x0 PUSH1 0xA0 DUP7 DUP9 SUB SLT ISZERO PUSH2 0x4704 JUMPI DUP1 DUP2 REVERT JUMPDEST PUSH2 0x470D DUP7 PUSH2 0x45F6 JUMP JUMPDEST SWAP5 POP PUSH1 0x20 DUP7 ADD CALLDATALOAD SWAP4 POP PUSH1 0x40 DUP7 ADD CALLDATALOAD SWAP3 POP PUSH1 0x60 DUP7 ADD CALLDATALOAD SWAP2 POP PUSH2 0x4730 PUSH1 0x80 DUP8 ADD PUSH2 0x45E6 JUMP JUMPDEST SWAP1 POP SWAP3 SWAP6 POP SWAP3 SWAP6 SWAP1 SWAP4 POP JUMP JUMPDEST PUSH1 0x0 DUP1 PUSH1 0x0 DUP1 PUSH1 0x0 PUSH1 0xA0 DUP7 DUP9 SUB SLT ISZERO PUSH2 0x4753 JUMPI DUP1 DUP2 REVERT JUMPDEST PUSH2 0x475C DUP7 PUSH2 0x45F6 JUMP JUMPDEST SWAP5 POP PUSH1 0x20 DUP7 ADD CALLDATALOAD SWAP4 POP PUSH1 0x40 DUP7 ADD CALLDATALOAD SWAP3 POP PUSH2 0x4778 PUSH1 0x60 DUP8 ADD PUSH2 0x4608 JUMP JUMPDEST SWAP5 SWAP8 SWAP4 SWAP7 POP SWAP2 SWAP5 PUSH1 0x80 ADD CALLDATALOAD SWAP3 SWAP2 POP POP JUMP JUMPDEST PUSH1 0x0 DUP1 PUSH1 0x0 DUP1 PUSH1 0x0 DUP1 PUSH1 0xC0 DUP8 DUP10 SUB SLT ISZERO PUSH2 0x47A1 JUMPI DUP1 DUP2 REVERT JUMPDEST PUSH2 0x47AA DUP8 PUSH2 0x45F6 JUMP JUMPDEST SWAP6 POP PUSH1 0x20 DUP8 ADD CALLDATALOAD SWAP5 POP PUSH1 0x40 DUP8 ADD CALLDATALOAD SWAP4 POP PUSH2 0x47C6 PUSH1 0x60 DUP9 ADD PUSH2 0x4608 JUMP JUMPDEST SWAP3 POP PUSH1 0x80 DUP8 ADD CALLDATALOAD SWAP2 POP PUSH2 0x47DB PUSH1 0xA0 DUP9 ADD PUSH2 0x45E6 JUMP JUMPDEST SWAP1 POP SWAP3 SWAP6 POP SWAP3 SWAP6 POP SWAP3 SWAP6 JUMP JUMPDEST PUSH1 0x0 DUP1 PUSH1 0x40 DUP4 DUP6 SUB SLT ISZERO PUSH2 0x47F9 JUMPI DUP2 DUP3 REVERT JUMPDEST PUSH2 0x4802 DUP4 PUSH2 0x45F6 JUMP JUMPDEST SWAP2 POP PUSH1 0x20 DUP4 ADD CALLDATALOAD PUSH1 0x1 PUSH1 0x1 PUSH1 0x58 SHL SUB DUP2 AND DUP2 EQ PUSH2 0x481D JUMPI DUP2 DUP3 REVERT JUMPDEST DUP1 SWAP2 POP POP SWAP3 POP SWAP3 SWAP1 POP JUMP JUMPDEST PUSH1 0x0 DUP1 PUSH1 0x40 DUP4 DUP6 SUB SLT ISZERO PUSH2 0x483A JUMPI DUP2 DUP3 REVERT JUMPDEST POP POP DUP1 CALLDATALOAD SWAP3 PUSH1 0x20 SWAP1 SWAP2 ADD CALLDATALOAD SWAP2 POP JUMP JUMPDEST PUSH1 0x1 PUSH1 0x1 PUSH1 0xA0 SHL SUB SWAP2 SWAP1 SWAP2 AND DUP2 MSTORE PUSH1 0x20 ADD SWAP1 JUMP JUMPDEST PUSH1 0x1 PUSH1 0x1 PUSH1 0xA0 SHL SUB SWAP5 SWAP1 SWAP5 AND DUP5 MSTORE PUSH1 0x20 DUP5 ADD SWAP3 SWAP1 SWAP3 MSTORE PUSH1 0x40 DUP4 ADD MSTORE PUSH1 0x60 DUP3 ADD MSTORE PUSH1 0x80 ADD SWAP1 JUMP JUMPDEST SWAP1 DUP2 MSTORE PUSH1 0x20 ADD SWAP1 JUMP JUMPDEST SWAP2 DUP3 MSTORE PUSH1 0x20 DUP3 ADD MSTORE PUSH1 0x40 ADD SWAP1 JUMP JUMPDEST PUSH1 0x20 DUP1 DUP3 MSTORE PUSH1 0x16 SWAP1 DUP3 ADD MSTORE PUSH22 0x13585C9AD95D081B9BDD081A5B9A5D1A585B1A5E9959 PUSH1 0x52 SHL PUSH1 0x40 DUP3 ADD MSTORE PUSH1 0x60 ADD SWAP1 JUMP JUMPDEST PUSH1 0x20 DUP1 DUP3 MSTORE PUSH1 0x13 SWAP1 DUP3 ADD MSTORE PUSH19 0x14995C5D5A5C995CC81CD95D1D1B195B595B9D PUSH1 0x6A SHL PUSH1 0x40 DUP3 ADD MSTORE PUSH1 0x60 ADD SWAP1 JUMP JUMPDEST PUSH1 0x20 DUP1 DUP3 MSTORE PUSH1 0xE SWAP1 DUP3 ADD MSTORE PUSH14 0x4E6F20636F6E76657267656E6365 PUSH1 0x90 SHL PUSH1 0x40 DUP3 ADD MSTORE PUSH1 0x60 ADD SWAP1 JUMP JUMPDEST PUSH1 0x20 DUP1 DUP3 MSTORE PUSH1 0x15 SWAP1 DUP3 ADD MSTORE PUSH21 0x10D1CE881B9BC81B585C9AD95D1CC81B1A5CDD1959 PUSH1 0x5A SHL PUSH1 0x40 DUP3 ADD MSTORE PUSH1 0x60 ADD SWAP1 JUMP JUMPDEST PUSH1 0x20 DUP1 DUP3 MSTORE PUSH1 0xD SWAP1 DUP3 ADD MSTORE PUSH13 0x92DCECC2D8D2C840D2DCC8CAF PUSH1 0x9B SHL PUSH1 0x40 DUP3 ADD MSTORE PUSH1 0x60 ADD SWAP1 JUMP JUMPDEST PUSH1 0x20 DUP1 DUP3 MSTORE PUSH1 0x16 SWAP1 DUP3 ADD MSTORE PUSH22 0x10D1CE881B585C9AD95D081A5B99195E08189BDD5B99 PUSH1 0x52 SHL PUSH1 0x40 DUP3 ADD MSTORE PUSH1 0x60 ADD SWAP1 JUMP JUMPDEST PUSH1 0x20 DUP1 DUP3 MSTORE PUSH1 0xE SWAP1 DUP3 ADD MSTORE PUSH14 0x125B9D985B1A59081B585C9AD95D PUSH1 0x92 SHL PUSH1 0x40 DUP3 ADD MSTORE PUSH1 0x60 ADD SWAP1 JUMP JUMPDEST PUSH1 0x20 DUP1 DUP3 MSTORE PUSH1 0x16 SWAP1 DUP3 ADD MSTORE PUSH22 0x5472616465206661696C65642C20736C697070616765 PUSH1 0x50 SHL PUSH1 0x40 DUP3 ADD MSTORE PUSH1 0x60 ADD SWAP1 JUMP JUMPDEST PUSH1 0x20 DUP1 DUP3 MSTORE PUSH1 0x12 SWAP1 DUP3 ADD MSTORE PUSH18 0x496E76616C696420626C6F636B2074696D65 PUSH1 0x70 SHL PUSH1 0x40 DUP3 ADD MSTORE PUSH1 0x60 ADD SWAP1 JUMP JUMPDEST PUSH1 0x20 DUP1 DUP3 MSTORE PUSH1 0x13 SWAP1 DUP3 ADD MSTORE PUSH19 0x125B9D985B1A590818DD5C9C995B98DE481A59 PUSH1 0x6A SHL PUSH1 0x40 DUP3 ADD MSTORE PUSH1 0x60 ADD SWAP1 JUMP JUMPDEST PUSH1 0x20 DUP1 DUP3 MSTORE PUSH1 0x13 SWAP1 DUP3 ADD MSTORE PUSH19 0x10D1CE881B9BC81B585C9AD95D08199BDD5B99 PUSH1 0x6A SHL PUSH1 0x40 DUP3 ADD MSTORE PUSH1 0x60 ADD SWAP1 JUMP JUMPDEST SWAP4 DUP5 MSTORE PUSH1 0x20 DUP5 ADD SWAP3 SWAP1 SWAP3 MSTORE PUSH1 0xFF AND PUSH1 0x40 DUP4 ADD MSTORE PUSH1 0x60 DUP3 ADD MSTORE PUSH1 0x80 ADD SWAP1 JUMP JUMPDEST PUSH1 0x1 PUSH1 0x1 PUSH1 0x58 SHL SUB SWAP4 SWAP1 SWAP4 AND DUP4 MSTORE PUSH1 0xFF SWAP2 SWAP1 SWAP2 AND PUSH1 0x20 DUP4 ADD MSTORE PUSH1 0x40 DUP3 ADD MSTORE PUSH1 0x60 ADD SWAP1 JUMP JUMPDEST PUSH1 0xFF SWAP2 SWAP1 SWAP2 AND DUP2 MSTORE PUSH1 0x20 ADD SWAP1 JUMP INVALID MSTORE8 PUSH2 0x6665 0x4D PUSH2 0x7468 GASPRICE KECCAK256 PUSH14 0x756C7469706C69636174696F6E20 PUSH16 0x766572666C6F77A26469706673582212 KECCAK256 POP 0xCE OR 0xB4 0x4E 0xD5 KECCAK256 PUSH5 0x36EEFA2985 SWAP3 PUSH11 0x2CA4AD980208B678145DDC RETURN PUSH29 0x9072EF3A64736F6C634300070600330000000000000000000000000000 ","sha1":"d4355eb63e465f496ac568dedc4ce6a277b3d6fa","source":"// SPDX-License-Identifier: GPL-3.0-only\npragma solidity ^0.7.0;\npragma abicoder v2;\n\nimport \"./actions/nTokenMintAction.sol\";\nimport \"../internal/balances/TokenHandler.sol\";\nimport \"../global/StorageLayoutV1.sol\";\nimport \"../internal/markets/CashGroup.sol\";\nimport \"../internal/markets/AssetRate.sol\";\nimport \"../internal/nToken/nTokenSupply.sol\";\nimport \"../internal/nToken/nTokenHandler.sol\";\nimport \"../math/SafeInt256.sol\";\nimport \"../../interfaces/notional/NotionalCalculations.sol\";\nimport \"@openzeppelin/contracts/utils/SafeCast.sol\";\nimport \"@openzeppelin/contracts/math/SafeMath.sol\";\n\ncontract CalculationViews is StorageLayoutV1, NotionalCalculations {\n    using TokenHandler for Token;\n    using Market for MarketParameters;\n    using AssetRate for AssetRateParameters;\n    using CashGroup for CashGroupParameters;\n    using nTokenHandler for nTokenPortfolio;\n    using AccountContextHandler for AccountContext;\n    using BalanceHandler for BalanceState;\n    using SafeInt256 for int256;\n    using SafeMath for uint256;\n\n    function _checkValidCurrency(uint16 currencyId) internal view {\n        require(0 < currencyId && currencyId <= maxCurrencyId, \"Invalid currency id\");\n    }\n\n    /** General Calculation View Methods **/\n\n    /// @notice Returns the nTokens that will be minted when some amount of asset tokens are deposited\n    /// @param currencyId id number of the currency\n    /// @param amountToDepositExternalPrecision amount of asset tokens in native precision\n    /// @return the amount of nTokens that will be minted\n    function calculateNTokensToMint(uint16 currencyId, uint88 amountToDepositExternalPrecision)\n        external\n        view\n        override\n        returns (uint256)\n    {\n        _checkValidCurrency(currencyId);\n        Token memory token = TokenHandler.getAssetToken(currencyId);\n        int256 amountToDepositInternal =\n            token.convertToInternal(int256(amountToDepositExternalPrecision));\n        nTokenPortfolio memory nToken;\n        nToken.loadNTokenPortfolioView(currencyId);\n\n        int256 tokensToMint = nTokenMintAction.calculateTokensToMint(\n            nToken,\n            amountToDepositInternal,\n            block.timestamp\n        );\n\n        return SafeCast.toUint256(tokensToMint);\n    }\n\n\n    /// @notice Returns the fCash amount to send when given a cash amount, be sure to buffer these amounts\n    /// slightly because the liquidity curve is sensitive to changes in block time\n    /// @param currencyId id number of the currency\n    /// @param netCashToAccount denominated in underlying terms in 1e8 decimal precision,\n    //// positive for borrowing, negative for lending\n    /// @param marketIndex market index of the fCash market\n    /// @param blockTime the block time for when the trade will be calculated\n    /// @return the fCash amount from the trade, positive when lending, negative when borrowing. Always in 8 decimals.\n    function getfCashAmountGivenCashAmount(\n        uint16 currencyId,\n        int88 netCashToAccount,\n        uint256 marketIndex,\n        uint256 blockTime\n    ) external view override returns (int256) {\n        _checkValidCurrency(currencyId);\n        CashGroupParameters memory cashGroup = CashGroup.buildCashGroupView(currencyId);\n        return _getfCashAmountGivenCashAmount(currencyId, netCashToAccount, marketIndex, blockTime, cashGroup);\n    }\n        \n    function _getfCashAmountGivenCashAmount(\n        uint16 currencyId,\n        int88 netCashToAccount,\n        uint256 marketIndex,\n        uint256 blockTime,\n        CashGroupParameters memory cashGroup\n    ) internal view returns (int256) {\n        MarketParameters memory market;\n        cashGroup.loadMarket(market, marketIndex, false, blockTime);\n\n        require(market.maturity > blockTime, \"Invalid block time\");\n        uint256 timeToMaturity = market.maturity - blockTime;\n        (int256 rateScalar, int256 totalCashUnderlying, int256 rateAnchor) =\n            Market.getExchangeRateFactors(market, cashGroup, timeToMaturity, marketIndex);\n        int256 fee = Market.getExchangeRateFromImpliedRate(cashGroup.getTotalFee(), timeToMaturity);\n\n        return\n            Market.getfCashGivenCashAmount(\n                market.totalfCash,\n                netCashToAccount,\n                totalCashUnderlying,\n                rateScalar,\n                rateAnchor,\n                fee,\n                0\n            );\n    }\n\n    /// @notice Returns the cash amount that will be traded given an fCash amount, be sure to buffer these amounts\n    /// slightly because the liquidity curve is sensitive to changes in block time\n    /// @param currencyId id number of the currency\n    /// @param fCashAmount amount of fCash to trade, negative for borrowing, positive for lending\n    /// @param marketIndex market index of the fCash market\n    /// @param blockTime the block time for when the trade will be calculated\n    /// @return net asset cash amount (positive for borrowing, negative for lending) in 8 decimal precision\n    /// @return underlying cash amount (positive for borrowing, negative for lending) in 8 decimal precision\n    function getCashAmountGivenfCashAmount(\n        uint16 currencyId,\n        int88 fCashAmount,\n        uint256 marketIndex,\n        uint256 blockTime\n    ) external view override returns (int256, int256) {\n        return _getCashAmountGivenfCashAmount(currencyId, fCashAmount, marketIndex, blockTime, 0);\n    }\n\n    function _getCashAmountGivenfCashAmount(\n        uint16 currencyId,\n        int88 fCashAmount,\n        uint256 marketIndex,\n        uint256 blockTime, \n        uint256 rateLimit\n    ) internal view returns (int256, int256) {\n        _checkValidCurrency(currencyId);\n        CashGroupParameters memory cashGroup = CashGroup.buildCashGroupView(currencyId);\n        MarketParameters memory market;\n        cashGroup.loadMarket(market, marketIndex, false, blockTime);\n\n        require(market.maturity > blockTime, \"Invalid block time\");\n        uint256 timeToMaturity = market.maturity - blockTime;\n\n        // prettier-ignore\n        (int256 assetCash, /* int fee */) =\n            market.calculateTrade(cashGroup, fCashAmount, timeToMaturity, marketIndex);\n\n        // Check the slippage here and revert\n        if (rateLimit != 0) {\n            if (fCashAmount < 0) {\n                // Do not allow borrows over the rate limit\n                require(market.lastImpliedRate <= rateLimit, \"Trade failed, slippage\");\n            } else {\n                // Do not allow lends under the rate limit\n                require(market.lastImpliedRate >= rateLimit, \"Trade failed, slippage\");\n            }\n        }\n\n        return (assetCash, cashGroup.assetRate.convertToUnderlying(assetCash));\n    }\n\n    /// @notice Returns the claimable incentives for all nToken balances\n    /// @param account The address of the account which holds the tokens\n    /// @param blockTime The block time when incentives will be minted\n    /// @return Incentives an account is eligible to claim\n    function nTokenGetClaimableIncentives(address account, uint256 blockTime)\n        external\n        view\n        override\n        returns (uint256)\n    {\n        AccountContext memory accountContext = AccountContextHandler.getAccountContext(account);\n        BalanceState memory balanceState;\n        uint256 totalIncentivesClaimable;\n\n        if (accountContext.isBitmapEnabled()) {\n            balanceState.loadBalanceState(account, accountContext.bitmapCurrencyId, accountContext);\n            if (balanceState.storedNTokenBalance > 0) {\n                address tokenAddress = nTokenHandler.nTokenAddress(balanceState.currencyId);\n                (\n                    /* uint256 totalSupply */,\n                    uint256 accumulatedNOTEPerNToken,\n                    /* uint256 lastAccumulatedTime */\n                ) = nTokenSupply.getUpdatedAccumulatedNOTEPerNToken(tokenAddress, blockTime);\n\n                uint256 incentivesToClaim = Incentives.calculateIncentivesToClaim(\n                    balanceState,\n                    tokenAddress,\n                    accumulatedNOTEPerNToken,\n                    balanceState.storedNTokenBalance.toUint()\n                );\n                totalIncentivesClaimable = totalIncentivesClaimable.add(incentivesToClaim);\n            }\n        }\n\n        bytes18 currencies = accountContext.activeCurrencies;\n        while (currencies != 0) {\n            uint16 currencyId = uint16(bytes2(currencies) & Constants.UNMASK_FLAGS);\n            balanceState.loadBalanceState(account, currencyId, accountContext);\n\n            if (balanceState.storedNTokenBalance > 0) {\n                address tokenAddress = nTokenHandler.nTokenAddress(balanceState.currencyId);\n                (\n                    /* uint256 totalSupply */,\n                    uint256 accumulatedNOTEPerNToken,\n                    /* uint256 lastAccumulatedTime */\n                ) = nTokenSupply.getUpdatedAccumulatedNOTEPerNToken(tokenAddress, blockTime);\n\n                uint256 incentivesToClaim = Incentives.calculateIncentivesToClaim(\n                    balanceState,\n                    tokenAddress,\n                    accumulatedNOTEPerNToken,\n                    balanceState.storedNTokenBalance.toUint()\n                );\n                totalIncentivesClaimable = totalIncentivesClaimable.add(incentivesToClaim);\n            }\n\n            currencies = currencies << 16;\n        }\n\n        return totalIncentivesClaimable;\n    }\n\n    /// @notice Returns the present value of the given fCash amount using Notional internal oracle rates\n    /// @param currencyId id number of the currency\n    /// @param maturity timestamp of the fCash maturity\n    /// @param notional amount of fCash notional\n    /// @param blockTime the block time for when the trade will be calculated\n    /// @param riskAdjusted true if haircuts and buffers should be applied to the oracle rate\n    /// @return presentValue of fCash in 8 decimal precision and underlying denomination\n    function getPresentfCashValue(\n        uint16 currencyId,\n        uint256 maturity,\n        int256 notional,\n        uint256 blockTime,\n        bool riskAdjusted\n    ) external view override returns (int256 presentValue) {\n        CashGroupParameters memory cg = CashGroup.buildCashGroupView(currencyId);\n        if (riskAdjusted) {\n            presentValue = AssetHandler.getRiskAdjustedPresentfCashValue(\n                cg,\n                notional,\n                maturity,\n                blockTime,\n                cg.calculateOracleRate(maturity, blockTime)\n            );\n        } else {\n            presentValue = AssetHandler.getPresentfCashValue(\n                notional,\n                maturity,\n                blockTime,\n                cg.calculateOracleRate(maturity, blockTime)\n            );\n        }\n    }\n\n    /// @notice Returns a market index value for a given maturity\n    /// @param maturity an fCash maturity\n    /// @param blockTime the block time for when the trade will be calculated\n    /// @return marketIndex a value between 1 and 7 that represents the marketIndex (tenor)\n    /// that corresponds to the maturity. Returns 0 if there is no corresponding marketIndex\n    function getMarketIndex(\n        uint256 maturity,\n        uint256 blockTime\n    ) public pure override returns (uint8 marketIndex) {\n        (\n            uint256 _marketIndex,\n            bool isIdiosyncratic\n        ) = DateTime.getMarketIndex(Constants.MAX_TRADED_MARKET_INDEX, maturity, blockTime);\n\n        // Market Index cannot be greater than 7 by construction\n        marketIndex = isIdiosyncratic ? 0 : uint8(_marketIndex);\n    }\n\n    /// @notice Returns the amount of fCash that would received if lending deposit amount.\n    /// @param currencyId id number of the currency\n    /// @param depositAmountExternal amount to deposit in the token's native precision. For aTokens use\n    /// what is returned by the balanceOf selector (not scaledBalanceOf).\n    /// @param maturity the maturity of the fCash to lend\n    /// @param minLendRate the minimum lending rate (slippage protection)\n    /// @param blockTime the block time for when the trade will be calculated\n    /// @param useUnderlying true if specifying the underlying token, false if specifying the asset token\n    /// @return fCashAmount the amount of fCash that the lender will receive\n    /// @return marketIndex the corresponding market index for the lending\n    /// @return encodedTrade the encoded bytes32 object to pass to batch trade\n    function getfCashLendFromDeposit(\n        uint16 currencyId,\n        uint256 depositAmountExternal,\n        uint256 maturity,\n        uint32 minLendRate,\n        uint256 blockTime,\n        bool useUnderlying\n    ) external view override returns (\n        uint88 fCashAmount,\n        uint8 marketIndex,\n        bytes32 encodedTrade\n    ) {\n        marketIndex = getMarketIndex(maturity, blockTime);\n        require(marketIndex > 0);\n\n        (\n            int256 underlyingInternal,\n            CashGroupParameters memory cashGroup\n        ) = _convertDepositAmountToUnderlyingInternal(currencyId, depositAmountExternal, useUnderlying);\n        int256 fCash = _getfCashAmountGivenCashAmount(\n            currencyId,\n            _safeInt88(underlyingInternal.neg()),\n            marketIndex,\n            blockTime,\n            cashGroup\n        );\n        require(0 < fCash);\n\n        (\n            encodedTrade,\n            fCashAmount\n        ) = _encodeLendBorrowTrade(TradeActionType.Lend, marketIndex, fCash, minLendRate);\n    }\n\n    /// @notice Returns the amount of fCash that would received if lending deposit amount.\n    /// @param currencyId id number of the currency\n    /// @param borrowedAmountExternal amount to borrow in the token's native precision. For aTokens use\n    /// what is returned by the balanceOf selector (not scaledBalanceOf).\n    /// @param maturity the maturity of the fCash to lend\n    /// @param maxBorrowRate the maximum borrow rate (slippage protection). If zero then no slippage will be applied\n    /// @param blockTime the block time for when the trade will be calculated\n    /// @param useUnderlying true if specifying the underlying token, false if specifying the asset token\n    /// @return fCashDebt the amount of fCash that the borrower will owe, this will be stored as a negative\n    /// balance in Notional\n    /// @return marketIndex the corresponding market index for the lending\n    /// @return encodedTrade the encoded bytes32 object to pass to batch trade\n    function getfCashBorrowFromPrincipal(\n        uint16 currencyId,\n        uint256 borrowedAmountExternal,\n        uint256 maturity,\n        uint32 maxBorrowRate,\n        uint256 blockTime,\n        bool useUnderlying\n    ) external view override returns (\n        uint88 fCashDebt,\n        uint8 marketIndex,\n        bytes32 encodedTrade\n    ) {\n        marketIndex = getMarketIndex(maturity, blockTime);\n        require(marketIndex > 0);\n\n        (\n            int256 underlyingInternal,\n            CashGroupParameters memory cashGroup\n        ) = _convertDepositAmountToUnderlyingInternal(currencyId, borrowedAmountExternal, useUnderlying);\n        int256 fCash = _getfCashAmountGivenCashAmount(\n            currencyId,\n            _safeInt88(underlyingInternal),\n            marketIndex,\n            blockTime,\n            cashGroup\n        );\n        require(fCash < 0);\n\n        (\n            encodedTrade,\n            fCashDebt\n        ) = _encodeLendBorrowTrade(TradeActionType.Borrow, marketIndex, fCash, maxBorrowRate);\n    }\n\n    /// @notice Returns the amount of underlying cash and asset cash required to lend fCash. When specifying a\n    /// trade, deposit either underlying or asset tokens (not both). Asset tokens tend to be more gas efficient.\n    /// @param currencyId id number of the currency\n    /// @param fCashAmount amount of fCash (in underlying) that will be received at maturity. Always 8 decimal precision.\n    /// @param maturity the maturity of the fCash to lend\n    /// @param minLendRate the minimum lending rate (slippage protection)\n    /// @param blockTime the block time for when the trade will be calculated\n    /// @return depositAmountUnderlying the amount of underlying tokens the lender must deposit\n    /// @return depositAmountAsset the amount of asset tokens the lender must deposit\n    /// @return marketIndex the corresponding market index for the lending\n    /// @return encodedTrade the encoded bytes32 object to pass to batch trade\n    function getDepositFromfCashLend(\n        uint16 currencyId,\n        uint256 fCashAmount,\n        uint256 maturity,\n        uint32 minLendRate,\n        uint256 blockTime\n    ) external view override returns (\n        uint256 depositAmountUnderlying,\n        uint256 depositAmountAsset,\n        uint8 marketIndex,\n        bytes32 encodedTrade\n    ) {\n        marketIndex = getMarketIndex(maturity, blockTime);\n        require(marketIndex > 0);\n        require(fCashAmount < uint256(int256(type(int88).max)));\n\n        int88 fCash = int88(SafeInt256.toInt(fCashAmount));\n        (\n            int256 assetCashInternal,\n            int256 underlyingCashInternal\n        ) = _getCashAmountGivenfCashAmount(currencyId, fCash, marketIndex, blockTime, minLendRate);\n\n        depositAmountUnderlying = _convertToAmountExternal(currencyId, underlyingCashInternal, true);\n        depositAmountAsset = _convertToAmountExternal(currencyId, assetCashInternal, false);\n        (encodedTrade, /* */) = _encodeLendBorrowTrade(TradeActionType.Lend, marketIndex, fCash, minLendRate);\n    }\n\n    /// @notice Returns the amount of underlying cash and asset cash required to borrow fCash. When specifying a\n    /// trade, choose to receive either underlying or asset tokens (not both). Asset tokens tend to be more gas efficient.\n    /// @param currencyId id number of the currency\n    /// @param fCashBorrow amount of fCash (in underlying) that will be received at maturity. Always 8 decimal precision.\n    /// @param maturity the maturity of the fCash to lend\n    /// @param maxBorrowRate the maximum borrow rate (slippage protection)\n    /// @param blockTime the block time for when the trade will be calculated\n    /// @return borrowAmountUnderlying the amount of underlying tokens the borrower will receive\n    /// @return borrowAmountAsset the amount of asset tokens the borrower will receive\n    /// @return marketIndex the corresponding market index for the lending\n    /// @return encodedTrade the encoded bytes32 object to pass to batch trade\n    function getPrincipalFromfCashBorrow(\n        uint16 currencyId,\n        uint256 fCashBorrow,\n        uint256 maturity,\n        uint32 maxBorrowRate,\n        uint256 blockTime\n    ) external view override returns (\n        uint256 borrowAmountUnderlying,\n        uint256 borrowAmountAsset,\n        uint8 marketIndex,\n        bytes32 encodedTrade\n    ) {\n        marketIndex = getMarketIndex(maturity, blockTime);\n        require(marketIndex > 0);\n        require(fCashBorrow < uint256(int256(type(int88).max)));\n\n        int88 fCash = int88(SafeInt256.toInt(fCashBorrow).neg());\n        (\n            int256 assetCashInternal,\n            int256 underlyingCashInternal\n        ) = _getCashAmountGivenfCashAmount(currencyId, fCash, marketIndex, blockTime, maxBorrowRate);\n\n        borrowAmountUnderlying = _convertToAmountExternal(currencyId, underlyingCashInternal, true);\n        borrowAmountAsset = _convertToAmountExternal(currencyId, assetCashInternal, false);\n        (encodedTrade, /* */) = _encodeLendBorrowTrade(TradeActionType.Borrow, marketIndex, fCash, maxBorrowRate);\n    }\n\n    /// @notice Converts an internal cash balance to an external token denomination\n    /// @param currencyId the currency id of the cash balance\n    /// @param cashBalanceInternal the signed cash balance that is stored in Notional\n    /// @param convertToUnderlying true if the value should be converted to underlying\n    /// @return the cash balance converted to the external token denomination\n    function convertCashBalanceToExternal(\n        uint16 currencyId,\n        int256 cashBalanceInternal,\n        bool convertToUnderlying\n    ) external view override returns (int256) {\n        if (convertToUnderlying) {\n            AssetRateParameters memory ar = AssetRate.buildAssetRateView(currencyId);\n            cashBalanceInternal = ar.convertToUnderlying(cashBalanceInternal);\n        }\n\n        int256 externalAmount = SafeInt256.toInt(_convertToAmountExternal(currencyId, cashBalanceInternal.abs(), convertToUnderlying));\n        return cashBalanceInternal < 0 ? externalAmount.neg() : externalAmount;\n    }\n\n    function _convertToAmountExternal(\n        uint16 currencyId,\n        int256 depositAmountInternal,\n        bool useUnderlying\n    ) private view returns (uint256) {\n        int256 amountExternal;\n        Token memory token = useUnderlying ?\n            TokenHandler.getUnderlyingToken(currencyId) :\n            TokenHandler.getAssetToken(currencyId);\n\n        if (useUnderlying && depositAmountInternal < 0) {\n            // We have to do a special rounding adjustment for underlying internal deposits from lending.\n            amountExternal = token.convertToUnderlyingExternalWithAdjustment(depositAmountInternal.neg());\n        } else {\n            amountExternal = token.convertToExternal(depositAmountInternal).abs();\n        }\n\n        if (token.tokenType == TokenType.aToken) {\n            // Special handling for aTokens, we use scaled balance internally\n            Token memory underlying = TokenHandler.getUnderlyingToken(currencyId);\n            amountExternal = AaveHandler.convertFromScaledBalanceExternal(underlying.tokenAddress, amountExternal);\n        }\n\n        return SafeInt256.toUint(amountExternal);\n    }\n\n    /// @notice Converts an external deposit amount to an internal deposit amount\n    function _convertDepositAmountToUnderlyingInternal(\n        uint16 currencyId,\n        uint256 depositAmountExternal,\n        bool useUnderlying\n    ) private view returns (int256 underlyingInternal, CashGroupParameters memory cashGroup) {\n        int256 depositAmount = SafeInt256.toInt(depositAmountExternal);\n        cashGroup = CashGroup.buildCashGroupView(currencyId);\n\n        Token memory token = useUnderlying ?\n            TokenHandler.getUnderlyingToken(currencyId) :\n            TokenHandler.getAssetToken(currencyId);\n\n        if (token.tokenType == TokenType.aToken) {\n            // Special handling for aTokens, we use scaled balance internally\n            depositAmount = AaveHandler.convertToScaledBalanceExternal(currencyId, depositAmount);\n        }\n\n        underlyingInternal = token.convertToInternal(depositAmount);\n        if (!useUnderlying) {\n            // Convert asset rates to underlying internal amounts\n            underlyingInternal = cashGroup.assetRate.convertToUnderlying(underlyingInternal);\n        }\n    }\n\n    function _safeInt88(int256 x) private pure returns (int88) {\n        require(type(int88).min <= x && x <= type(int88).max);\n        return int88(x);\n    }\n\n    function _encodeLendBorrowTrade(\n        TradeActionType actionType,\n        uint8 marketIndex,\n        int256 fCash,\n        uint32 slippage\n    ) private pure returns (bytes32 encodedTrade, uint88 fCashAmount) {\n        uint256 absfCash = uint256(fCash.abs());\n        require(absfCash <= uint256(type(uint88).max));\n\n        encodedTrade = bytes32(\n            (uint256(uint8(actionType)) << 248) |\n            (uint256(marketIndex) << 240) |\n            (uint256(absfCash) << 152) |\n            (uint256(slippage) << 120)\n        );\n\n        fCashAmount = uint88(absfCash);\n    }\n\n    /// @notice Get a list of deployed library addresses (sorted by library name)\n    function getLibInfo() external view returns (address) {\n        return (address(MigrateIncentives));\n    }\n}","sourcePath":"contracts/external/CalculationViews.sol","type":"contract","deployment":{"address":"0x6594c50A3f5FBA3785bfbD5a5E2b25CD2977f197","chainid":"42","blockHeight":31386448}}