{"bytecode":"608060405234801561001057600080fd5b506142a7806100206000396000f3fe6080604052600436106100865760003560e01c8063824633671161005957806382463367146101245780638da5cb5b146101395780639c9794501461014e578063b8a6945514610170578063f667f8971461019057610086565b806302f332e81461008b57806324a3d622146100c15780632890fb65146100e357806366890643146100f6575b600080fd5b34801561009757600080fd5b506100ab6100a6366004613e0e565b6101bd565b6040516100b89190613f43565b60405180910390f35b3480156100cd57600080fd5b506100d661031b565b6040516100b89190613e7b565b6100ab6100f1366004613b78565b61032a565b34801561010257600080fd5b50610116610111366004613bb6565b6103d2565b6040516100b8929190613f4c565b34801561013057600080fd5b506100d661063b565b34801561014557600080fd5b506100d661064a565b34801561015a57600080fd5b5061016e610169366004613df2565b610661565b005b34801561017c57600080fd5b506100ab61018b366004613b78565b6106af565b34801561019c57600080fd5b506101b06101ab366004613b5e565b610729565b6040516100b89190613f38565b60006002600a5414156101eb5760405162461bcd60e51b81526004016101e29061414b565b60405180910390fd5b6002600a5560006101fb3361075d565b5090506102066139d1565b61021281338885610822565b846001600160581b03168160200151121561023f5760405162461bcd60e51b81526004016101e290613fe6565b610251856001600160581b03166108c8565b60808201526000610264823385886108dc565b90506102708333610b4d565b60208301516001600160f81b031916156102ec57604051636ccc642f60e01b815273__FreeCollateralExternal________________90636ccc642f906102bb903390600401613e7b565b60006040518083038186803b1580156102d357600080fd5b505af41580156102e7573d6000803e3d6000fd5b505050505b60008113156102fa57600080fd5b61030b610306826108c8565b610c51565b6001600a55979650505050505050565b6002546001600160a01b031681565b60006002600a54141561034f5760405162461bcd60e51b81526004016101e29061414b565b6002600a553330141561036157600080fd5b61036a84610c64565b600061037585610cb3565b905061037f6139d1565b61038b81878785610822565b60006103a23361039a87610d54565b849190610d6a565b9050600081136103b157600080fd5b6103be82888560006108dc565b506103c98388610b4d565b61030b81610c51565b6000806002600a5414156103f85760405162461bcd60e51b81526004016101e29061414b565b6002600a55336001600160a01b038816148061041357503330145b61042f5760405162461bcd60e51b81526004016101e290614098565b6001600160601b03851660006104448961075d565b50905061044f6139d1565b61045b818b8b85610822565b828160400151121561047f5760405162461bcd60e51b81526004016101e2906141b9565b610488836108c8565b60c082015260405162d57c9960e51b81526000908190819073__nTokenRedeemAction____________________90631aaf9320906104d0908f908a908f908f906004016141e6565b60006040518083038186803b1580156104e857600080fd5b505af41580156104fc573d6000803e3d6000fd5b505050506040513d6000823e601f3d908101601f191682016040526105249190810190613c2f565b606087018390529194509250905061053f848e8760006108dc565b508115610554576105518d8683610e77565b94505b61055e858e610b4d565b60208501516001600160f81b031916156105da5773__FreeCollateralExternal________________636ccc642f8e6040518263ffffffff1660e01b81526004016105a99190613e7b565b60006040518083038186803b1580156105c157600080fd5b505af41580156105d5573d6000803e3d6000fd5b505050505b8b61ffff168d6001600160a01b03167f412bc13d202a2ea5119e55fec9c5e420dddb18faf186373ad9795ad4f4545aa98660c0015160405161061c9190613f43565b60405180910390a3506001600a55909b909a5098505050505050505050565b6001546001600160a01b031681565b60005464010000000090046001600160a01b031681565b3330141561066e57600080fd5b60005461ffff908116908216111561068557600080fd5b3360006106918261075d565b5090506106a081838542610ef8565b6106aa8183610b4d565b505050565b60006002600a5414156106d45760405162461bcd60e51b81526004016101e29061414b565b6002600a55333014156106e657600080fd5b6106ef84610c64565b60006106fa85610cb3565b90506107046139d1565b61071081878785610822565b60006103a23361071f87610d54565b8491906001611003565b600061073482610c64565b6000806107408461075d565b915091508015610754576107548285610b4d565b9150505b919050565b610765613a21565b60008061077184610cb3565b905061077c816110b3565b15610816576040516337b5fc2160e11b815273__SettleAssetsExternal__________________90636f6bf842906107ba9087908590600401613eb3565b60a06040518083038186803b1580156107d257600080fd5b505af41580156107e6573d6000803e3d6000fd5b505050506040513d601f19601f8201168201806040525081019061080a9190613d52565b6001925092505061081d565b9150600090505b915091565b8161ffff16600010801561083c5750613fff61ffff831611155b61084557600080fd5b61ffff8216808552610858908290611107565b156108855761086b838361ffff16611191565b61010088015260e0870152604086015260208501526108a3565b6000602085018190526040850181905260e085018190526101008501525b50506000606083018190526080830181905260a0830181905260c09092019190915250565b60006108d66000198361121d565b92915050565b60008060008660a0015112156109355760006109178760a001516109118960c001518a6040015161126b90919063ffffffff16565b9061126b565b12156109355760405162461bcd60e51b81526004016101e290614195565b600086608001511215610985576000610967876080015161091189606001518a6020015161126b90919063ffffffff16565b12156109855760405162461bcd60e51b81526004016101e290614173565b610990868685611281565b6080880181905260608801519193506000916109ab9161126b565b90508015610a185760208701516109c2908261126b565b602088015286516040516001935061ffff909116906001600160a01b038816907f5441e4a5fac93a951d782e6f1cdb82e95c8fc58561a013953d17e395c5e69b4b90610a0f908590613f43565b60405180910390a35b60a0870151151580610a2d575060c087015115155b15610ac357610a3c8787611356565b50610a608760c001516109118960a001518a6040015161126b90919063ffffffff16565b604088015260c087015115610abe57866000015161ffff16866001600160a01b03167f412bc13d202a2ea5119e55fec9c5e420dddb18faf186373ad9795ad4f4545aa98960c00151604051610ab59190613f43565b60405180910390a35b600191505b8115610af057610af086886000015161ffff1689602001518a604001518b60e001518c61010001516113d1565b86516020880151610b1d9161ffff1690151580610b105750604089015115155b879190600160fe1b6114e9565b600087602001511215610b4357602085018051600160f91b176001600160f81b03191690525b5050949350505050565b6000610b576116e9565b6001600160a01b03831660008181526020838152604080832088518154938a0151838b015160608c015160808d015160701c600160481b027affffffffffffffffffffffffffffffffffff0000000000000000001961ffff909216600160381b0268ffff000000000000001960ff94909416600160301b0266ff0000000000001960f89690961c650100000000000265ff00000000001964ffffffffff90981664ffffffffff19909b169a909a1796909616989098179390931693909317169490941716929092179091555192935090917f6bd4b121bca854a191536a2ca891155c42ee2fb23f307fb34e8bc65cfcb5412e9190a2505050565b600080821215610c6057600080fd5b5090565b6001600160a01b038116610c7757600080fd5b6001600160a01b038116301415610c8d57600080fd5b6000610c98826116f6565b5050505061ffff16905080600014610caf57600080fd5b5050565b610cbb613a21565b6000610cc56116e9565b6001600160a01b039390931660009081526020938452604090819020815160a081018352905464ffffffffff8116825265010000000000810460f81b6001600160f81b03191695820195909552600160301b850460ff1691810191909152600160381b840461ffff166060820152600160481b90930460701b6001600160701b03191660808401525090919050565b60006001600160ff1b03821115610c6057600080fd5b600081610d7957506000610e70565b60008213610d8657600080fd5b6000610d99856000015161ffff1661175f565b9050600381606001516004811115610dad57fe5b1415610dd757348314610dd25760405162461bcd60e51b81526004016101e290613f7a565b610de5565b610de2818585611772565b92505b6000610df8866000015161ffff16611816565b9050600181606001516004811115610e0c57fe5b1480610e275750600281606001516004811115610e2557fe5b145b610e3057600080fd5b6000610e45610e3e86610c51565b8390611829565b90506000610e538383611a73565b6060890151909150610e65908261126b565b606089015293505050505b9392505050565b610e7f613a21565b610e88836110b3565b15610ea55760405162461bcd60e51b81526004016101e290614014565b610eae83611aa9565b15610ec357610ebe848484611ab6565b610ef0565b6000610ed58585604001518551611b7e565b9050610ee18184611c11565b610eee8486836000611c6f565b505b509092915050565b613fff61ffff83161115610f1e5760405162461bcd60e51b81526004016101e2906140c5565b610f2784611aa9565b15610f66576000610f4084866060015161ffff16611d51565b90508015610f605760405162461bcd60e51b81526004016101e29061411b565b50610fcc565b604084015160ff1615610f8b5760405162461bcd60e51b81526004016101e29061411b565b60208401516001600160f81b03191615610fb75760405162461bcd60e51b81526004016101e290614041565b610fcc8461ffff84166000600160fe1b6114e9565b61ffff821660608501526000610fe182611d86565b905064ffffffffff8110610ff457600080fd5b64ffffffffff16909352505050565b600082611012575060006110ab565b6000831361101f57600080fd5b6000611032866000015161ffff16611816565b905060006110408286611a73565b905081602001518061104f5750835b1561108e576000611061838888611772565b905061106d8382611a73565b606089015190925061107f908361126b565b60608901525091506110ab9050565b608087015161109d908261126b565b608088015291506110ab9050565b949350505050565b6000426110bf83611aa9565b156110e0576110cd81611d86565b835164ffffffffff161091506107589050565b825164ffffffffff16158015906110ff5750825164ffffffffff168110155b915050610758565b6000811580159061111a5750613fff8211155b61112357600080fd5b6080830151606084015161ffff168314156111425760019150506108d6565b6001600160701b03198116156111875760f081901c613fff16838114156111745750600160fe1b9081161490506108d6565b5060101b6001600160801b031916611142565b5060009392505050565b60008060008060006111a1611da4565b6001600160a01b0388166000908152602082815260408083208a84529091529020805469ffffffffffffffffffff81169650600160501b810463ffffffff169550919250906111ff90600160701b900466ffffffffffffff16611db1565b9054600160a81b9004600a90810b900b989497509295509193505050565b81810260001983141561124d5781158061123f57508282828161123c57fe5b05145b61124857600080fd5b6108d6565b82158061126257508183828161125f57fe5b05145b6108d657600080fd5b818101828112156000831215146108d657600080fd5b6000806000611297866000015161ffff16611816565b905060006112b2876080015183611dbf90919063ffffffff16565b9050806112c75760008093509350505061134e565b8480156112d45750600081125b156113315760006112ec886000015161ffff1661175f565b90506000611305826112fd856108c8565b869190611df7565b905061131c88611314836108c8565b849190611772565b95506113288484611a73565b9450505061134b565b61133c828783611772565b93506113488285611a73565b92505b50505b935093915050565b81516000904290829061136c9061ffff16612010565b9050600061137f828760c0015185612036565b905060006113a6836113948960400151610c51565b8960e001518a61010001518887612110565b60e088018590526101008801839052905080156113c7576113c786826121b7565b9695505050505050565b60006113db611da4565b6001600160a01b0388166000908152602082815260408083208a845290915290209091506001600160571b0319861280159061141e57506001600160571b038613155b61142757600080fd5b60008512158015611442575069ffffffffffffffffffff8513155b61144b57600080fd5b63ffffffff84111561145c57600080fd5b805469ffffffffffffffffffff191669ffffffffffffffffffff86161763ffffffff60501b1916600160501b63ffffffff861602176001600160a81b0316600160a81b6001600160581b03600a89900b16021781556114ba836121d6565b815466ffffffffffffff91909116600160701b0266ffffffffffffff60701b1990911617905550505050505050565b8260001080156114fb5750613fff8311155b61150457600080fd5b818015611518575082846060015161ffff16145b15611522576116e3565b6080840151600090815b6001600160701b031982161561169d5760f082901c613fff1686811480156115515750855b1561158957506080870180516001600160f01b0319861660109093029290921c919091176001600160701b0319169052506116e39050565b8681148015611596575085155b156115eb576001600160f01b03198516199290921691600360fe1b83166115c9576010836001600160701b031916901b92505b506001600160701b031991821660109091021c919091171660808501526116e3565b86811180156115f75750855b15611651576080888101516001600160f01b031960f08a901b88178116601086021c9690961795911b161561162b57600080fd5b506001600160701b03199182166001919091016010021c919091171660808501526116e3565b868111801561165e575085155b1561166c57505050506116e3565b506001600160f01b0319821660108281029190911c93909317929190911b6001600160801b0319169060010161152c565b846116aa575050506116e3565b600981106116b757600080fd5b6001600160f01b031960f087901b85171660109091021c919091176001600160701b0319166080860152505b50505050565b6000806108d66001612204565b60008060008060008061170761221d565b6001600160a01b039097166000908152602097909752505060409094205461ffff81169563ffffffff62010000830481169650600160301b830416945060ff600160501b8304169350600160581b90910460d81b9150565b611767613a4f565b6108d682600161222a565b60008082131561178e576117878484846122d8565b915061180f565b6003846060015160048111156117a057fe5b14156117fa5760008213156117b457600080fd5b826001600160a01b0381166108fc6117cb856108c8565b6040518115909202916000818181858888f193505050501580156117f3573d6000803e3d6000fd5b505061180f565b835161180f908461180a856108c8565b612475565b5092915050565b61181e613a4f565b6108d682600061222a565b60008083600001516001600160a01b03166370a08231306040518263ffffffff1660e01b815260040161185c9190613e7b565b60206040518083038186803b15801561187457600080fd5b505afa158015611888573d6000803e3d6000fd5b505050506040513d601f19601f820116820180604052508101906118ac9190613e63565b905060006001856060015160048111156118c257fe5b141561195057845160405163140e25ad60e31b81526001600160a01b039091169063a0712d68906118f7908790600401613f43565b602060405180830381600087803b15801561191157600080fd5b505af1158015611925573d6000803e3d6000fd5b505050506040513d601f19601f820116820180604052508101906119499190613e63565b90506119c1565b60028560600151600481111561196257fe5b14156100865784600001516001600160a01b0316631249c58b346040518263ffffffff1660e01b81526004016000604051808303818588803b1580156119a757600080fd5b505af11580156119bb573d6000803e3d6000fd5b50505050505b80156119df5760405162461bcd60e51b81526004016101e290613f5c565b84516040516370a0823160e01b81526000916001600160a01b0316906370a0823190611a0f903090600401613e7b565b60206040518083038186803b158015611a2757600080fd5b505afa158015611a3b573d6000803e3d6000fd5b505050506040513d601f19601f82011682018060405250810190611a5f9190613e63565b90506113c7611a6e82856124dd565b610d54565b60006305f5e10083604001511415611a8c5750806108d6565b6040830151610e7090611aa3846305f5e10061121d565b9061253a565b6060015161ffff16151590565b611abf82611aa9565b611ac857600080fd5b606082015161ffff1660005b8251811015611b77576000838281518110611aeb57fe5b60200260200101519050806060015160001415611b085750611b6f565b80518314611b1557600080fd5b6040810151600114611b2657600080fd5b6000611b4887858460200151896000015164ffffffffff16866060015161256b565b90506000811215611b6c57602086018051600160f81b176001600160f81b03191690525b50505b600101611ad4565b5050505050565b611b86613a7e565b611b8e613a7e565b60ff8416611b9d579050610e70565b611ba785856126d5565b815260ff841660608201528267ffffffffffffffff81118015611bc957600080fd5b50604051908082528060200260200182016040528015611c0357816020015b611bf0613aa6565b815260200190600190039081611be85790505b506020820152949350505050565b60005b81518110156106aa576000828281518110611c2b57fe5b60200260200101519050806060015160001415611c485750611c67565b611c658482600001518360200151846040015185606001516126fe565b505b600101611c14565b6000808080611c7e86886127fb565b64ffffffffff81168c5292965090945092509050611c9b886110b3565b15611ca557600080fd5b60ff8216604089015284611cc457600760ff83161115611cc457600080fd5b8315611ce757602088018051600160f81b176001600160f81b0319169052611cf6565b602088018051607f60f91b1690525b611d038860800151612a3a565b6001600160701b031916608089015260005b8315611d465760f084901c818114611d3857611d388a826001600160ff1b6114e9565b60109490941b939050611d15565b505050505050505050565b600080611d5c612ab5565b6001600160a01b038516600090815260209182526040808220868352909252205491505092915050565b600062015180821015611d9857600080fd5b50620151808106900390565b6000806108d66006612204565b600881901c60ff9091161b90565b60006305f5e10083604001511415611dd85750806108d6565b610e706305f5e100611aa385604001518561121d90919063ffffffff16565b600080600285606001516004811115611e0c57fe5b1415611e19575047611eb3565b600185606001516004811115611e2b57fe5b14156100865783516040516370a0823160e01b81526001600160a01b03909116906370a0823190611e60903090600401613e7b565b60206040518083038186803b158015611e7857600080fd5b505afa158015611e8c573d6000803e3d6000fd5b505050506040513d601f19601f82011682018060405250810190611eb09190613e63565b90505b845160405163db006a7560e01b81526000916001600160a01b03169063db006a7590611ee3908790600401613f43565b602060405180830381600087803b158015611efd57600080fd5b505af1158015611f11573d6000803e3d6000fd5b505050506040513d601f19601f82011682018060405250810190611f359190613e63565b90508015611f555760405162461bcd60e51b81526004016101e290613f9f565b6000600287606001516004811115611f6957fe5b1415611f76575047611ff8565b85516040516370a0823160e01b81526001600160a01b03909116906370a0823190611fa5903090600401613e7b565b60206040518083038186803b158015611fbd57600080fd5b505afa158015611fd1573d6000803e3d6000fd5b505050506040513d601f19601f82011682018060405250810190611ff59190613e63565b90505b612005611a6e82856124dd565b979650505050505050565b60008061201b612ac2565b6000938452602052505060409020546001600160a01b031690565b60008060006120458685612acf565b50915091508460001461210757600061205e838761126b565b90506000811215801561207757506001600160601b0381105b61208057600080fd5b600061208a612b3b565b6001600160a01b03891660009081526020919091526040902080546bffffffffffffffffffffffff19166001600160601b0393909316929092176fffffffffffffffffffffffffffffffff60601b1916600160601b6001600160801b03851602176001600160e01b0316600160e01b63ffffffff88160217909155505b95945050505050565b600084158061211f5750828510155b1561212c575060006113c7565b6000612137886116f6565b5091935050508685039050600061215b82612156856305f5e100612b48565b612ba1565b905060006121738361216d888b6124dd565b90612bc6565b9050806121875760009450505050506113c7565b60006121978261216d8d86612b48565b90506121a7816305f5e100612bc6565b9c9b505050505050505050505050565b610caf73cfeaead4947f0705a14ec42ac3d44129e1ef3ed58383612475565b60008065ffffffffffff8311156121f657602f6121f284612c2d565b0390505b82811c60081b179050919050565b6000620f424082601081111561221657fe5b0192915050565b6000806108d66002612204565b612232613a4f565b600061223c612cc6565b6000858152602082815260408083208715158452825291829020825160a08101845281546001600160a01b038116825260ff600160a01b82048116151594830194909452600160b01b81048416600a0a9482019490945293945092916060830191600160a81b9091041660048111156122b157fe5b81529154600160b81b900468ffffffffffffffffff16602090920191909152949350505050565b60008060008560200151156123695785516040516370a0823160e01b81526001600160a01b03909116906370a0823190612316903090600401613e7b565b60206040518083038186803b15801561232e57600080fd5b505afa158015612342573d6000803e3d6000fd5b505050506040513d601f19601f820116820180604052508101906123669190613e63565b91505b8551612376908686612cd3565b85602001518061238a575060008660800151115b156124115785516040516370a0823160e01b81526001600160a01b03909116906370a08231906123be903090600401613e7b565b60206040518083038186803b1580156123d657600080fd5b505afa1580156123ea573d6000803e3d6000fd5b505050506040513d601f19601f8201168201806040525081019061240e9190613e63565b90505b60808601511561244c57600061242f8761242a84610d54565b611a73565b905061243e8760800151610d54565b81131561244a57600080fd5b505b85602001511561246c57612463611a6e82846124dd565b92505050610e70565b61246384610d54565b60405163a9059cbb60e01b81526001600160a01b0384169063a9059cbb906124a39085908590600401613f1f565b600060405180830381600087803b1580156124bd57600080fd5b505af11580156124d1573d6000803e3d6000fd5b505050506106aa612d03565b600082821115612534576040805162461bcd60e51b815260206004820152601e60248201527f536166654d6174683a207375627472616374696f6e206f766572666c6f770000604482015290519081900360640190fd5b50900390565b6000816000191480156125505750600160ff1b83145b1561255a57600080fd5b81838161256357fe5b059392505050565b6000806125788787611d51565b90506000612584612d53565b6001600160a01b0389166000908152602082815260408083208b845282528083208a84529091528120919250806125bb888a612d60565b91509150806125c957600080fd5b6125d38583612e6b565b156126625782546000906125ef908990600f90810b900b61126b565b905060016001607f1b03198112801590612610575060016001607f1b038113155b61261957600080fd5b83546001600160801b0319166001600160801b03600f83900b161784558061264a5761264786846000612e9b565b95505b6126558c8c88612ee6565b9550612107945050505050565b86156126c65760016001607f1b03198712801590612687575060016001607f1b038713155b61269057600080fd5b82546001600160801b0319166001600160801b03600f89900b161783556126b985836001612e9b565b94506126c68b8b87612ee6565b50949998505050505050505050565b606060006126e38484612f40565b905060018151116126f55790506108d6565b610e7081613062565b845161270d908585858561321b565b1561271757611b77565b60408501511561274457600061273486602001518686868661321b565b905080156127425750611b77565b505b61274d8261332c565b1561276057600081121561276057600080fd5b6001600160571b0319811280159061277f57506001600160571b038113155b61278857600080fd5b846020015151856040015114156127ac576127a68560200151613342565b60208601525b600085602001518660400151815181106127c257fe5b6020908102919091018101519586528501939093526040808501929092526060840152600060a090930192909252500180516001019052565b6000808080808080805b89515181101561288c5760008a60000151828151811061282157fe5b6020026020010151905060038081111561283757fe5b8160a00151600381111561284757fe5b141561285257600080fd5b60028160a00151600381111561286457fe5b1415801561287457506060810151155b15612883576128838b836133fb565b50600101612805565b5060005b89515181101561292f5760008a6000015182815181106128ac57fe5b60200260200101519050600260038111156128c357fe5b8160a0015160038111156128d357fe5b14156128e757608081015160009055612926565b60018160a0015160038111156128f957fe5b14156129125760808101518061290f838261354a565b50505b61291e8186868661366f565b919650945092505b50600101612890565b506060890151600061293f6136d2565b6001600160a01b038b1660009081526020829052604081209192505b8c6020015151811015612a095760008d60200151828151811061297a57fe5b602002602001015190508060600151600014156129975750612a01565b60028160a0015160038111156129a957fe5b141580156129c7575060038160a0015160038111156129c457fe5b14155b6129d057600080fd5b6129dc8189898961366f565b919950975095506129f9818487601081106129f357fe5b0161354a565b600185019450505b60010161295b565b5060108311158015612a20575064ffffffffff8411155b612a2957600080fd5b50939a929950975095509350505050565b6000807f7fff7fff7fff7fff7fff7fff7fff7fff7fff00000000000000000000000000008316815b6001600160701b0319821615612aac57600160fe1b8281161415612a96576001600160f01b03198216811c92909217916010015b6010826001600160701b031916901b9150612a62565b50909392505050565b6000806108d6600b612204565b6000806108d66003612204565b6000806000612add856136df565b9194509250905080612aec5750825b80841015612af957600080fd5b612b0f612b088483870361121d565b839061126b565b91506001600160801b038210612b2457600080fd5b63ffffffff8410612b3457600080fd5b9250925092565b6000806108d6600e612204565b600082612b57575060006108d6565b82820282848281612b6457fe5b0414610e705760405162461bcd60e51b81526004018080602001828103825260218152602001806142516021913960400191505060405180910390fd5b600080612bba6301da9c0061216d866305f5e100612b48565b90506110ab8184612b48565b6000808211612c1c576040805162461bcd60e51b815260206004820152601a60248201527f536166654d6174683a206469766973696f6e206279207a65726f000000000000604482015290519081900360640190fd5b818381612c2557fe5b049392505050565b600081612c3957600080fd5b600160801b8210612c4c57608091821c91015b600160401b8210612c5f57604091821c91015b6401000000008210612c7357602091821c91015b620100008210612c8557601091821c91015b6101008210612c9657600891821c91015b60108210612ca657600491821c91015b60048210612cb657600291821c91015b6002821061075857600101919050565b6000806108d66007612204565b6040516323b872dd60e01b81526001600160a01b038416906323b872dd906124a390859030908690600401613e8f565b6000612d0d613ae6565b3d8015612d215760208114612d2a57600080fd5b60019250612d35565b60206000833e815192505b5081610caf5760405162461bcd60e51b81526004016101e2906140fc565b6000806108d6600c612204565b6000806000612d6e85611d86565b905062015180840615612d88576000809250925050612e64565b838110612d9c576000809250925050612e64565b6201518081850304605a8111612db957925060019150612e649050565b6101688111612df8576000620151806207e900840604820160591901905060068104605a0160068281612de857fe5b0660001494509450505050612e64565b6108708111612e285760006201518062278d00840604820161016719019050601e8104608701601e8281612de857fe5b611de28111612e58576000620151806276a700840604820161086f19019050605a810460c301605a8281612de857fe5b61010060009350935050505b9250929050565b600060018210158015612e8057506101008211155b612e8957600080fd5b50600019011b600160ff1b9081161490565b600060018310158015612eb057506101008311155b612eb957600080fd5b8115612ed25750600160ff1b60001983011c8317610e70565b50600160ff1b60001983011c198316610e70565b6014612ef18261373b565b1115612f0f5760405162461bcd60e51b81526004016101e29061406f565b6000612f19612ab5565b6001600160a01b039094166000908152602094855260408082209482529390945250912055565b606060108260ff161115612f5357600080fd5b6000612f5d6136d2565b6001600160a01b038516600090815260208290526040812091925060ff851667ffffffffffffffff81118015612f9257600080fd5b50604051908082528060200260200182016040528015612fcc57816020015b612fb9613aa6565b815260200190600190039081612fb15790505b50905060005b8560ff16811015613058576000838260108110612feb57fe5b0190506000838381518110612ffc57fe5b602090810291909101810151835461ffff8116825264ffffffffff620100008204169282019290925260ff600160381b8304166040820152600160401b909104600a90810b900b60608201526080019190915250600101612fd2565b5095945050505050565b805160008167ffffffffffffffff8111801561307d57600080fd5b506040519080825280602002602001820160405280156130a7578160200160208202803683370190505b50905060005b828110156131045760008482815181106130c357fe5b602002602001015190506130e481600001518260200151836040015161380b565b8383815181106130f057fe5b6020908102919091010152506001016130ad565b5060015b828110156116e357805b60008111801561314a575082818151811061312957fe5b602002602001015183600183038151811061314057fe5b6020026020010151115b156132125782818151811061315b57fe5b602002602001015183600183038151811061317257fe5b602002602001015184600184038151811061318957fe5b6020026020010185848151811061319c57fe5b60200260200101828152508281525050508481815181106131b957fe5b60200260200101518560018303815181106131d057fe5b60200260200101518660018403815181106131e757fe5b602002602001018784815181106131fa57fe5b60209081029190910101919091525260001901613112565b50600101613108565b6000805b865181101561331f57600087828151811061323657fe5b60200260200101519050848160400151141580613254575080518714155b80613263575085816020015114155b1561326e5750613317565b60028160a00151600381111561328057fe5b1415801561329e575060038160a00151600381111561329b57fe5b14155b6132a757600080fd5b60608101516000906132b9908661126b565b90506132c48661332c565b156132d75760008112156132d757600080fd5b6001600160571b031981128015906132f657506001600160571b038113155b6132ff57600080fd5b6060820152600160a090910181905291506121079050565b60010161321f565b5060009695505050505050565b6000600282108015906108d65750506008101590565b60606000825160001461335957825160020261335c565b60015b905060008167ffffffffffffffff8111801561337757600080fd5b506040519080825280602002602001820160405280156133b157816020015b61339e613aa6565b8152602001906001900390816133965790505b50905060005b84518110156133f3578481815181106133cc57fe5b60200260200101518282815181106133e057fe5b60209081029190910101526001016133b7565b509392505050565b815151811061340957600080fd5b600082606001511161341a57600080fd5b60008260000151828151811061342c57fe5b602002602001015190506002600381111561344357fe5b8160a00151600381111561345357fe5b14158015613471575060038160a00151600381111561346e57fe5b14155b61347a57600080fd5b606083018051600019019052600080805b8551518110156134ed576000866000015182815181106134a757fe5b602002602001015190508281608001511180156134d4575060028160a0015160038111156134d157fe5b14155b156134e457806080015192508193505b5060010161348b565b5081841415613506575050600260a09190910152610caf565b60008560000151838151811061351857fe5b602090810291909101015160808581018051918301805190915252600160a09182015260029401939093525050505050565b81511580159061355d57508151613fff10155b61356657600080fd5b816020015160001080156135835750602082015164ffffffffff10155b61358c57600080fd5b816040015160001080156135a557506040820151600810155b6135ae57600080fd5b60608201516001600160571b0319138015906135d5575060608201516001600160571b0312155b6135de57600080fd5b8151815460208401516040850151606090950151600a0b6001600160581b0316600160401b0272ffffffffffffffffffffff00000000000000001960ff909616600160381b0267ff000000000000001964ffffffffff909316620100000266ffffffffff00001961ffff90961661ffff19909516949094179490941692909217169190911792909216919091179055565b60008060008061367e88613866565b905084158061368c57508085115b15613695578094505b86806136a5575060008860600151125b965061ffff8616156136b657600080fd5b50509451939560109390931c60f09490941b9390931793509150565b6000806108d6600d612204565b6000806000806136ed612b3b565b6001600160a01b0395909516600090815260209590955250506040909220546001600160601b03811693600160601b82046001600160801b03169350600160e01b90910463ffffffff169150565b600181901c7f5555555555555555555555555555555555555555555555555555555555555555908116911601600281901c7f3333333333333333333333333333333333333333333333333333333333333333908116911601600481901c7f07070707070707070707070707070707070707070707070707070707070707079190911601600881901c7e0f000f000f000f000f000f000f000f000f000f000f000f000f000f000f000f908116911601601081901c01602081901c01604081901c01608081901c60ff90811691160190565b6000613fff84111561381c57600080fd5b64ffffffffff83111561382e57600080fd5b600882111561383c57600080fd5b5067ffff000000000000603084901b1665ffffffffff00600884901b161760ff8216179392505050565b600080826040015111801561388057506040820151600810155b61388957600080fd5b60408201516002106138a057506020810151610758565b60006138b260018460400151036138d3565b6020840151909150610754906276a700906138cd90846124dd565b90613977565b600081600114156138e857506276a700610758565b81600214156138fb575062ed4e00610758565b816003141561390f57506301da9c00610758565b816004141561392357506303b53800610758565b816005141561393757506309450c00610758565b816006141561394b575063128a1800610758565b816007141561395f57506325143000610758565b60405162461bcd60e51b81526004016101e290613fbf565b600082820183811015610e70576040805162461bcd60e51b815260206004820152601b60248201527f536166654d6174683a206164646974696f6e206f766572666c6f770000000000604482015290519081900360640190fd5b604051806101200160405280600061ffff16815260200160008152602001600081526020016000815260200160008152602001600081526020016000815260200160008152602001600081525090565b6040805160a08101825260008082526020820181905291810182905260608101829052608081019190915290565b6040805160a0810182526000808252602082018190529181018290529060608201908152602001600081525090565b6040518060800160405280606081526020016060815260200160008152602001600081525090565b6040518060c00160405280600081526020016000815260200160008152602001600081526020016000815260200160006003811115613ae157fe5b905290565b60405180602001604052806001906020820280368337509192915050565b80356001600160a01b038116811461075857600080fd5b80516001600160701b03198116811461075857600080fd5b80516004811061075857600080fd5b805161075881614240565b805160ff8116811461075857600080fd5b600060208284031215613b6f578081fd5b610e7082613b04565b600080600060608486031215613b8c578182fd5b613b9584613b04565b92506020840135613ba581614240565b929592945050506040919091013590565b600080600080600060a08688031215613bcd578081fd5b613bd686613b04565b94506020860135613be681614240565b935060408601356001600160601b0381168114613c01578182fd5b92506060860135613c118161422f565b91506080860135613c218161422f565b809150509295509295909350565b600080600060608486031215613c43578283fd5b83519250602080850151613c568161422f565b8093505060408086015167ffffffffffffffff80821115613c75578485fd5b818801915088601f830112613c88578485fd5b815181811115613c9457fe5b613ca1858683020161420b565b8181528581019084870160c0808502870189018e1015613cbf57898afd5b8996505b84871015613d3f5780828f031215613cd957898afd5b87518181018181108882111715613cec57fe5b808a525082518152898301518a82015288830151898201526060830151606082015260808301516080820152613d2460a08401613b33565b60a08201528452600196909601959288019290810190613cc3565b5050809750505050505050509250925092565b600060a08284031215613d63578081fd5b60405160a0810181811067ffffffffffffffff82111715613d8057fe5b604052825164ffffffffff81168114613d97578283fd5b815260208301516001600160f81b031981168114613db3578283fd5b6020820152613dc460408401613b4d565b6040820152613dd560608401613b42565b6060820152613de660808401613b1b565b60808201529392505050565b600060208284031215613e03578081fd5b8135610e7081614240565b600080600060608486031215613e22578081fd5b8335613e2d81614240565b925060208401356001600160581b0381168114613e48578182fd5b91506040840135613e588161422f565b809150509250925092565b600060208284031215613e74578081fd5b5051919050565b6001600160a01b0391909116815260200190565b6001600160a01b039384168152919092166020820152604081019190915260600190565b6001600160a01b03929092168252805164ffffffffff166020808401919091528101516001600160f81b03191660408084019190915281015160ff1660608084019190915281015161ffff1660808084019190915201516001600160701b03191660a082015260c00190565b6001600160a01b03929092168252602082015260400190565b901515815260200190565b90815260200190565b9182521515602082015260400190565b602080825260049082015263135a5b9d60e21b604082015260600190565b6020808252600b908201526a4554482042616c616e636560a81b604082015260600190565b60208082526006908201526552656465656d60d01b604082015260600190565b6020808252600d908201526c092dcecc2d8d2c840d2dcc8caf609b1b604082015260600190565b602080825260149082015273496e73756666696369656e742062616c616e636560601b604082015260600190565b6020808252601390820152724163636f756e74206d75737420736574746c6560681b604082015260600190565b6020808252601490820152731050ce8818d85b9b9bdd081a185d99481919589d60621b604082015260600190565b6020808252600f908201526e4f766572206d61782061737365747360881b604082015260600190565b6020808252601390820152722ab730baba3437b934bd32b21031b0b63632b960691b604082015260600190565b60208082526017908201527f41433a20696e76616c69642063757272656e6379206964000000000000000000604082015260600190565b602080825260059082015264045524332360dc1b604082015260600190565b60208082526016908201527541433a2063616e6e6f7420686176652061737365747360501b604082015260600190565b6020808252600e908201526d1499595b9d1c985b9d0818d85b1b60921b604082015260600190565b60208082526008908201526709ccace4086c2e6d60c31b604082015260600190565b6020808252600a90820152692732b390372a37b5b2b760b11b604082015260600190565b602080825260139082015272496e73756666696369656e7420746f6b656e7360681b604082015260600190565b61ffff9490941684526020840192909252151560408301521515606082015260800190565b60405181810167ffffffffffffffff8111828210171561422757fe5b604052919050565b801515811461423d57600080fd5b50565b61ffff8116811461423d57600080fdfe536166654d6174683a206d756c7469706c69636174696f6e206f766572666c6f77a2646970667358221220caacf6aed81df39a229abe8bca38fd311667261361e582c65b4ef79590df6f5064736f6c63430007060033","bytecodeSha1":"c181ea17d87652d2b7bd05e69594b56364debf03","type":"contract","abi":[{"anonymous":false,"inputs":[{"indexed":true,"internalType":"address","name":"account","type":"address"},{"indexed":true,"internalType":"uint16","name":"currencyId","type":"uint16"},{"indexed":false,"internalType":"int256","name":"tokenSupplyChange","type":"int256"}],"name":"nTokenSupplyChange","type":"event"},{"inputs":[{"internalType":"address","name":"account","type":"address"},{"internalType":"uint16","name":"currencyId","type":"uint16"},{"internalType":"uint256","name":"amountExternalPrecision","type":"uint256"}],"name":"depositAssetToken","outputs":[{"internalType":"uint256","name":"","type":"uint256"}],"stateMutability":"nonpayable","type":"function"},{"inputs":[{"internalType":"address","name":"account","type":"address"},{"internalType":"uint16","name":"currencyId","type":"uint16"},{"internalType":"uint256","name":"amountExternalPrecision","type":"uint256"}],"name":"depositUnderlyingToken","outputs":[{"internalType":"uint256","name":"","type":"uint256"}],"stateMutability":"payable","type":"function"},{"inputs":[{"internalType":"uint16","name":"currencyId","type":"uint16"}],"name":"enableBitmapCurrency","outputs":[],"stateMutability":"nonpayable","type":"function"},{"inputs":[{"internalType":"address","name":"redeemer","type":"address"},{"internalType":"uint16","name":"currencyId","type":"uint16"},{"internalType":"uint96","name":"tokensToRedeem_","type":"uint96"},{"internalType":"bool","name":"sellTokenAssets","type":"bool"},{"internalType":"bool","name":"acceptResidualAssets","type":"bool"}],"name":"nTokenRedeem","outputs":[{"internalType":"int256","name":"","type":"int256"},{"internalType":"bool","name":"","type":"bool"}],"stateMutability":"nonpayable","type":"function"},{"inputs":[],"name":"owner","outputs":[{"internalType":"address","name":"","type":"address"}],"stateMutability":"view","type":"function"},{"inputs":[],"name":"pauseGuardian","outputs":[{"internalType":"address","name":"","type":"address"}],"stateMutability":"view","type":"function"},{"inputs":[],"name":"pauseRouter","outputs":[{"internalType":"address","name":"","type":"address"}],"stateMutability":"view","type":"function"},{"inputs":[{"internalType":"address","name":"account","type":"address"}],"name":"settleAccount","outputs":[{"internalType":"bool","name":"","type":"bool"}],"stateMutability":"nonpayable","type":"function"},{"inputs":[{"internalType":"uint16","name":"currencyId","type":"uint16"},{"internalType":"uint88","name":"amountInternalPrecision","type":"uint88"},{"internalType":"bool","name":"redeemToUnderlying","type":"bool"}],"name":"withdraw","outputs":[{"internalType":"uint256","name":"","type":"uint256"}],"stateMutability":"nonpayable","type":"function"}],"compiler":{"version":"0.7.6+commit.7338295f","evm_version":"istanbul","optimizer":{"enabled":true,"runs":200}},"contractName":"AccountAction","deployedBytecode":"6080604052600436106100865760003560e01c8063824633671161005957806382463367146101245780638da5cb5b146101395780639c9794501461014e578063b8a6945514610170578063f667f8971461019057610086565b806302f332e81461008b57806324a3d622146100c15780632890fb65146100e357806366890643146100f6575b600080fd5b34801561009757600080fd5b506100ab6100a6366004613e0e565b6101bd565b6040516100b89190613f43565b60405180910390f35b3480156100cd57600080fd5b506100d661031b565b6040516100b89190613e7b565b6100ab6100f1366004613b78565b61032a565b34801561010257600080fd5b50610116610111366004613bb6565b6103d2565b6040516100b8929190613f4c565b34801561013057600080fd5b506100d661063b565b34801561014557600080fd5b506100d661064a565b34801561015a57600080fd5b5061016e610169366004613df2565b610661565b005b34801561017c57600080fd5b506100ab61018b366004613b78565b6106af565b34801561019c57600080fd5b506101b06101ab366004613b5e565b610729565b6040516100b89190613f38565b60006002600a5414156101eb5760405162461bcd60e51b81526004016101e29061414b565b60405180910390fd5b6002600a5560006101fb3361075d565b5090506102066139d1565b61021281338885610822565b846001600160581b03168160200151121561023f5760405162461bcd60e51b81526004016101e290613fe6565b610251856001600160581b03166108c8565b60808201526000610264823385886108dc565b90506102708333610b4d565b60208301516001600160f81b031916156102ec57604051636ccc642f60e01b815273__$841fddfe32830bb6dbc3a02d7f16c53722$__90636ccc642f906102bb903390600401613e7b565b60006040518083038186803b1580156102d357600080fd5b505af41580156102e7573d6000803e3d6000fd5b505050505b60008113156102fa57600080fd5b61030b610306826108c8565b610c51565b6001600a55979650505050505050565b6002546001600160a01b031681565b60006002600a54141561034f5760405162461bcd60e51b81526004016101e29061414b565b6002600a553330141561036157600080fd5b61036a84610c64565b600061037585610cb3565b905061037f6139d1565b61038b81878785610822565b60006103a23361039a87610d54565b849190610d6a565b9050600081136103b157600080fd5b6103be82888560006108dc565b506103c98388610b4d565b61030b81610c51565b6000806002600a5414156103f85760405162461bcd60e51b81526004016101e29061414b565b6002600a55336001600160a01b038816148061041357503330145b61042f5760405162461bcd60e51b81526004016101e290614098565b6001600160601b03851660006104448961075d565b50905061044f6139d1565b61045b818b8b85610822565b828160400151121561047f5760405162461bcd60e51b81526004016101e2906141b9565b610488836108c8565b60c082015260405162d57c9960e51b81526000908190819073__$43fd92ea4ea9b72ca0014644dbfd757564$__90631aaf9320906104d0908f908a908f908f906004016141e6565b60006040518083038186803b1580156104e857600080fd5b505af41580156104fc573d6000803e3d6000fd5b505050506040513d6000823e601f3d908101601f191682016040526105249190810190613c2f565b606087018390529194509250905061053f848e8760006108dc565b508115610554576105518d8683610e77565b94505b61055e858e610b4d565b60208501516001600160f81b031916156105da5773__$841fddfe32830bb6dbc3a02d7f16c53722$__636ccc642f8e6040518263ffffffff1660e01b81526004016105a99190613e7b565b60006040518083038186803b1580156105c157600080fd5b505af41580156105d5573d6000803e3d6000fd5b505050505b8b61ffff168d6001600160a01b03167f412bc13d202a2ea5119e55fec9c5e420dddb18faf186373ad9795ad4f4545aa98660c0015160405161061c9190613f43565b60405180910390a3506001600a55909b909a5098505050505050505050565b6001546001600160a01b031681565b60005464010000000090046001600160a01b031681565b3330141561066e57600080fd5b60005461ffff908116908216111561068557600080fd5b3360006106918261075d565b5090506106a081838542610ef8565b6106aa8183610b4d565b505050565b60006002600a5414156106d45760405162461bcd60e51b81526004016101e29061414b565b6002600a55333014156106e657600080fd5b6106ef84610c64565b60006106fa85610cb3565b90506107046139d1565b61071081878785610822565b60006103a23361071f87610d54565b8491906001611003565b600061073482610c64565b6000806107408461075d565b915091508015610754576107548285610b4d565b9150505b919050565b610765613a21565b60008061077184610cb3565b905061077c816110b3565b15610816576040516337b5fc2160e11b815273__$f6541b0d362a0c7d99a2a29cd3d373d61b$__90636f6bf842906107ba9087908590600401613eb3565b60a06040518083038186803b1580156107d257600080fd5b505af41580156107e6573d6000803e3d6000fd5b505050506040513d601f19601f8201168201806040525081019061080a9190613d52565b6001925092505061081d565b9150600090505b915091565b8161ffff16600010801561083c5750613fff61ffff831611155b61084557600080fd5b61ffff8216808552610858908290611107565b156108855761086b838361ffff16611191565b61010088015260e0870152604086015260208501526108a3565b6000602085018190526040850181905260e085018190526101008501525b50506000606083018190526080830181905260a0830181905260c09092019190915250565b60006108d66000198361121d565b92915050565b60008060008660a0015112156109355760006109178760a001516109118960c001518a6040015161126b90919063ffffffff16565b9061126b565b12156109355760405162461bcd60e51b81526004016101e290614195565b600086608001511215610985576000610967876080015161091189606001518a6020015161126b90919063ffffffff16565b12156109855760405162461bcd60e51b81526004016101e290614173565b610990868685611281565b6080880181905260608801519193506000916109ab9161126b565b90508015610a185760208701516109c2908261126b565b602088015286516040516001935061ffff909116906001600160a01b038816907f5441e4a5fac93a951d782e6f1cdb82e95c8fc58561a013953d17e395c5e69b4b90610a0f908590613f43565b60405180910390a35b60a0870151151580610a2d575060c087015115155b15610ac357610a3c8787611356565b50610a608760c001516109118960a001518a6040015161126b90919063ffffffff16565b604088015260c087015115610abe57866000015161ffff16866001600160a01b03167f412bc13d202a2ea5119e55fec9c5e420dddb18faf186373ad9795ad4f4545aa98960c00151604051610ab59190613f43565b60405180910390a35b600191505b8115610af057610af086886000015161ffff1689602001518a604001518b60e001518c61010001516113d1565b86516020880151610b1d9161ffff1690151580610b105750604089015115155b879190600160fe1b6114e9565b600087602001511215610b4357602085018051600160f91b176001600160f81b03191690525b5050949350505050565b6000610b576116e9565b6001600160a01b03831660008181526020838152604080832088518154938a0151838b015160608c015160808d015160701c600160481b027affffffffffffffffffffffffffffffffffff0000000000000000001961ffff909216600160381b0268ffff000000000000001960ff94909416600160301b0266ff0000000000001960f89690961c650100000000000265ff00000000001964ffffffffff90981664ffffffffff19909b169a909a1796909616989098179390931693909317169490941716929092179091555192935090917f6bd4b121bca854a191536a2ca891155c42ee2fb23f307fb34e8bc65cfcb5412e9190a2505050565b600080821215610c6057600080fd5b5090565b6001600160a01b038116610c7757600080fd5b6001600160a01b038116301415610c8d57600080fd5b6000610c98826116f6565b5050505061ffff16905080600014610caf57600080fd5b5050565b610cbb613a21565b6000610cc56116e9565b6001600160a01b039390931660009081526020938452604090819020815160a081018352905464ffffffffff8116825265010000000000810460f81b6001600160f81b03191695820195909552600160301b850460ff1691810191909152600160381b840461ffff166060820152600160481b90930460701b6001600160701b03191660808401525090919050565b60006001600160ff1b03821115610c6057600080fd5b600081610d7957506000610e70565b60008213610d8657600080fd5b6000610d99856000015161ffff1661175f565b9050600381606001516004811115610dad57fe5b1415610dd757348314610dd25760405162461bcd60e51b81526004016101e290613f7a565b610de5565b610de2818585611772565b92505b6000610df8866000015161ffff16611816565b9050600181606001516004811115610e0c57fe5b1480610e275750600281606001516004811115610e2557fe5b145b610e3057600080fd5b6000610e45610e3e86610c51565b8390611829565b90506000610e538383611a73565b6060890151909150610e65908261126b565b606089015293505050505b9392505050565b610e7f613a21565b610e88836110b3565b15610ea55760405162461bcd60e51b81526004016101e290614014565b610eae83611aa9565b15610ec357610ebe848484611ab6565b610ef0565b6000610ed58585604001518551611b7e565b9050610ee18184611c11565b610eee8486836000611c6f565b505b509092915050565b613fff61ffff83161115610f1e5760405162461bcd60e51b81526004016101e2906140c5565b610f2784611aa9565b15610f66576000610f4084866060015161ffff16611d51565b90508015610f605760405162461bcd60e51b81526004016101e29061411b565b50610fcc565b604084015160ff1615610f8b5760405162461bcd60e51b81526004016101e29061411b565b60208401516001600160f81b03191615610fb75760405162461bcd60e51b81526004016101e290614041565b610fcc8461ffff84166000600160fe1b6114e9565b61ffff821660608501526000610fe182611d86565b905064ffffffffff8110610ff457600080fd5b64ffffffffff16909352505050565b600082611012575060006110ab565b6000831361101f57600080fd5b6000611032866000015161ffff16611816565b905060006110408286611a73565b905081602001518061104f5750835b1561108e576000611061838888611772565b905061106d8382611a73565b606089015190925061107f908361126b565b60608901525091506110ab9050565b608087015161109d908261126b565b608088015291506110ab9050565b949350505050565b6000426110bf83611aa9565b156110e0576110cd81611d86565b835164ffffffffff161091506107589050565b825164ffffffffff16158015906110ff5750825164ffffffffff168110155b915050610758565b6000811580159061111a5750613fff8211155b61112357600080fd5b6080830151606084015161ffff168314156111425760019150506108d6565b6001600160701b03198116156111875760f081901c613fff16838114156111745750600160fe1b9081161490506108d6565b5060101b6001600160801b031916611142565b5060009392505050565b60008060008060006111a1611da4565b6001600160a01b0388166000908152602082815260408083208a84529091529020805469ffffffffffffffffffff81169650600160501b810463ffffffff169550919250906111ff90600160701b900466ffffffffffffff16611db1565b9054600160a81b9004600a90810b900b989497509295509193505050565b81810260001983141561124d5781158061123f57508282828161123c57fe5b05145b61124857600080fd5b6108d6565b82158061126257508183828161125f57fe5b05145b6108d657600080fd5b818101828112156000831215146108d657600080fd5b6000806000611297866000015161ffff16611816565b905060006112b2876080015183611dbf90919063ffffffff16565b9050806112c75760008093509350505061134e565b8480156112d45750600081125b156113315760006112ec886000015161ffff1661175f565b90506000611305826112fd856108c8565b869190611df7565b905061131c88611314836108c8565b849190611772565b95506113288484611a73565b9450505061134b565b61133c828783611772565b93506113488285611a73565b92505b50505b935093915050565b81516000904290829061136c9061ffff16612010565b9050600061137f828760c0015185612036565b905060006113a6836113948960400151610c51565b8960e001518a61010001518887612110565b60e088018590526101008801839052905080156113c7576113c786826121b7565b9695505050505050565b60006113db611da4565b6001600160a01b0388166000908152602082815260408083208a845290915290209091506001600160571b0319861280159061141e57506001600160571b038613155b61142757600080fd5b60008512158015611442575069ffffffffffffffffffff8513155b61144b57600080fd5b63ffffffff84111561145c57600080fd5b805469ffffffffffffffffffff191669ffffffffffffffffffff86161763ffffffff60501b1916600160501b63ffffffff861602176001600160a81b0316600160a81b6001600160581b03600a89900b16021781556114ba836121d6565b815466ffffffffffffff91909116600160701b0266ffffffffffffff60701b1990911617905550505050505050565b8260001080156114fb5750613fff8311155b61150457600080fd5b818015611518575082846060015161ffff16145b15611522576116e3565b6080840151600090815b6001600160701b031982161561169d5760f082901c613fff1686811480156115515750855b1561158957506080870180516001600160f01b0319861660109093029290921c919091176001600160701b0319169052506116e39050565b8681148015611596575085155b156115eb576001600160f01b03198516199290921691600360fe1b83166115c9576010836001600160701b031916901b92505b506001600160701b031991821660109091021c919091171660808501526116e3565b86811180156115f75750855b15611651576080888101516001600160f01b031960f08a901b88178116601086021c9690961795911b161561162b57600080fd5b506001600160701b03199182166001919091016010021c919091171660808501526116e3565b868111801561165e575085155b1561166c57505050506116e3565b506001600160f01b0319821660108281029190911c93909317929190911b6001600160801b0319169060010161152c565b846116aa575050506116e3565b600981106116b757600080fd5b6001600160f01b031960f087901b85171660109091021c919091176001600160701b0319166080860152505b50505050565b6000806108d66001612204565b60008060008060008061170761221d565b6001600160a01b039097166000908152602097909752505060409094205461ffff81169563ffffffff62010000830481169650600160301b830416945060ff600160501b8304169350600160581b90910460d81b9150565b611767613a4f565b6108d682600161222a565b60008082131561178e576117878484846122d8565b915061180f565b6003846060015160048111156117a057fe5b14156117fa5760008213156117b457600080fd5b826001600160a01b0381166108fc6117cb856108c8565b6040518115909202916000818181858888f193505050501580156117f3573d6000803e3d6000fd5b505061180f565b835161180f908461180a856108c8565b612475565b5092915050565b61181e613a4f565b6108d682600061222a565b60008083600001516001600160a01b03166370a08231306040518263ffffffff1660e01b815260040161185c9190613e7b565b60206040518083038186803b15801561187457600080fd5b505afa158015611888573d6000803e3d6000fd5b505050506040513d601f19601f820116820180604052508101906118ac9190613e63565b905060006001856060015160048111156118c257fe5b141561195057845160405163140e25ad60e31b81526001600160a01b039091169063a0712d68906118f7908790600401613f43565b602060405180830381600087803b15801561191157600080fd5b505af1158015611925573d6000803e3d6000fd5b505050506040513d601f19601f820116820180604052508101906119499190613e63565b90506119c1565b60028560600151600481111561196257fe5b14156100865784600001516001600160a01b0316631249c58b346040518263ffffffff1660e01b81526004016000604051808303818588803b1580156119a757600080fd5b505af11580156119bb573d6000803e3d6000fd5b50505050505b80156119df5760405162461bcd60e51b81526004016101e290613f5c565b84516040516370a0823160e01b81526000916001600160a01b0316906370a0823190611a0f903090600401613e7b565b60206040518083038186803b158015611a2757600080fd5b505afa158015611a3b573d6000803e3d6000fd5b505050506040513d601f19601f82011682018060405250810190611a5f9190613e63565b90506113c7611a6e82856124dd565b610d54565b60006305f5e10083604001511415611a8c5750806108d6565b6040830151610e7090611aa3846305f5e10061121d565b9061253a565b6060015161ffff16151590565b611abf82611aa9565b611ac857600080fd5b606082015161ffff1660005b8251811015611b77576000838281518110611aeb57fe5b60200260200101519050806060015160001415611b085750611b6f565b80518314611b1557600080fd5b6040810151600114611b2657600080fd5b6000611b4887858460200151896000015164ffffffffff16866060015161256b565b90506000811215611b6c57602086018051600160f81b176001600160f81b03191690525b50505b600101611ad4565b5050505050565b611b86613a7e565b611b8e613a7e565b60ff8416611b9d579050610e70565b611ba785856126d5565b815260ff841660608201528267ffffffffffffffff81118015611bc957600080fd5b50604051908082528060200260200182016040528015611c0357816020015b611bf0613aa6565b815260200190600190039081611be85790505b506020820152949350505050565b60005b81518110156106aa576000828281518110611c2b57fe5b60200260200101519050806060015160001415611c485750611c67565b611c658482600001518360200151846040015185606001516126fe565b505b600101611c14565b6000808080611c7e86886127fb565b64ffffffffff81168c5292965090945092509050611c9b886110b3565b15611ca557600080fd5b60ff8216604089015284611cc457600760ff83161115611cc457600080fd5b8315611ce757602088018051600160f81b176001600160f81b0319169052611cf6565b602088018051607f60f91b1690525b611d038860800151612a3a565b6001600160701b031916608089015260005b8315611d465760f084901c818114611d3857611d388a826001600160ff1b6114e9565b60109490941b939050611d15565b505050505050505050565b600080611d5c612ab5565b6001600160a01b038516600090815260209182526040808220868352909252205491505092915050565b600062015180821015611d9857600080fd5b50620151808106900390565b6000806108d66006612204565b600881901c60ff9091161b90565b60006305f5e10083604001511415611dd85750806108d6565b610e706305f5e100611aa385604001518561121d90919063ffffffff16565b600080600285606001516004811115611e0c57fe5b1415611e19575047611eb3565b600185606001516004811115611e2b57fe5b14156100865783516040516370a0823160e01b81526001600160a01b03909116906370a0823190611e60903090600401613e7b565b60206040518083038186803b158015611e7857600080fd5b505afa158015611e8c573d6000803e3d6000fd5b505050506040513d601f19601f82011682018060405250810190611eb09190613e63565b90505b845160405163db006a7560e01b81526000916001600160a01b03169063db006a7590611ee3908790600401613f43565b602060405180830381600087803b158015611efd57600080fd5b505af1158015611f11573d6000803e3d6000fd5b505050506040513d601f19601f82011682018060405250810190611f359190613e63565b90508015611f555760405162461bcd60e51b81526004016101e290613f9f565b6000600287606001516004811115611f6957fe5b1415611f76575047611ff8565b85516040516370a0823160e01b81526001600160a01b03909116906370a0823190611fa5903090600401613e7b565b60206040518083038186803b158015611fbd57600080fd5b505afa158015611fd1573d6000803e3d6000fd5b505050506040513d601f19601f82011682018060405250810190611ff59190613e63565b90505b612005611a6e82856124dd565b979650505050505050565b60008061201b612ac2565b6000938452602052505060409020546001600160a01b031690565b60008060006120458685612acf565b50915091508460001461210757600061205e838761126b565b90506000811215801561207757506001600160601b0381105b61208057600080fd5b600061208a612b3b565b6001600160a01b03891660009081526020919091526040902080546bffffffffffffffffffffffff19166001600160601b0393909316929092176fffffffffffffffffffffffffffffffff60601b1916600160601b6001600160801b03851602176001600160e01b0316600160e01b63ffffffff88160217909155505b95945050505050565b600084158061211f5750828510155b1561212c575060006113c7565b6000612137886116f6565b5091935050508685039050600061215b82612156856305f5e100612b48565b612ba1565b905060006121738361216d888b6124dd565b90612bc6565b9050806121875760009450505050506113c7565b60006121978261216d8d86612b48565b90506121a7816305f5e100612bc6565b9c9b505050505050505050505050565b610caf73cfeaead4947f0705a14ec42ac3d44129e1ef3ed58383612475565b60008065ffffffffffff8311156121f657602f6121f284612c2d565b0390505b82811c60081b179050919050565b6000620f424082601081111561221657fe5b0192915050565b6000806108d66002612204565b612232613a4f565b600061223c612cc6565b6000858152602082815260408083208715158452825291829020825160a08101845281546001600160a01b038116825260ff600160a01b82048116151594830194909452600160b01b81048416600a0a9482019490945293945092916060830191600160a81b9091041660048111156122b157fe5b81529154600160b81b900468ffffffffffffffffff16602090920191909152949350505050565b60008060008560200151156123695785516040516370a0823160e01b81526001600160a01b03909116906370a0823190612316903090600401613e7b565b60206040518083038186803b15801561232e57600080fd5b505afa158015612342573d6000803e3d6000fd5b505050506040513d601f19601f820116820180604052508101906123669190613e63565b91505b8551612376908686612cd3565b85602001518061238a575060008660800151115b156124115785516040516370a0823160e01b81526001600160a01b03909116906370a08231906123be903090600401613e7b565b60206040518083038186803b1580156123d657600080fd5b505afa1580156123ea573d6000803e3d6000fd5b505050506040513d601f19601f8201168201806040525081019061240e9190613e63565b90505b60808601511561244c57600061242f8761242a84610d54565b611a73565b905061243e8760800151610d54565b81131561244a57600080fd5b505b85602001511561246c57612463611a6e82846124dd565b92505050610e70565b61246384610d54565b60405163a9059cbb60e01b81526001600160a01b0384169063a9059cbb906124a39085908590600401613f1f565b600060405180830381600087803b1580156124bd57600080fd5b505af11580156124d1573d6000803e3d6000fd5b505050506106aa612d03565b600082821115612534576040805162461bcd60e51b815260206004820152601e60248201527f536166654d6174683a207375627472616374696f6e206f766572666c6f770000604482015290519081900360640190fd5b50900390565b6000816000191480156125505750600160ff1b83145b1561255a57600080fd5b81838161256357fe5b059392505050565b6000806125788787611d51565b90506000612584612d53565b6001600160a01b0389166000908152602082815260408083208b845282528083208a84529091528120919250806125bb888a612d60565b91509150806125c957600080fd5b6125d38583612e6b565b156126625782546000906125ef908990600f90810b900b61126b565b905060016001607f1b03198112801590612610575060016001607f1b038113155b61261957600080fd5b83546001600160801b0319166001600160801b03600f83900b161784558061264a5761264786846000612e9b565b95505b6126558c8c88612ee6565b9550612107945050505050565b86156126c65760016001607f1b03198712801590612687575060016001607f1b038713155b61269057600080fd5b82546001600160801b0319166001600160801b03600f89900b161783556126b985836001612e9b565b94506126c68b8b87612ee6565b50949998505050505050505050565b606060006126e38484612f40565b905060018151116126f55790506108d6565b610e7081613062565b845161270d908585858561321b565b1561271757611b77565b60408501511561274457600061273486602001518686868661321b565b905080156127425750611b77565b505b61274d8261332c565b1561276057600081121561276057600080fd5b6001600160571b0319811280159061277f57506001600160571b038113155b61278857600080fd5b846020015151856040015114156127ac576127a68560200151613342565b60208601525b600085602001518660400151815181106127c257fe5b6020908102919091018101519586528501939093526040808501929092526060840152600060a090930192909252500180516001019052565b6000808080808080805b89515181101561288c5760008a60000151828151811061282157fe5b6020026020010151905060038081111561283757fe5b8160a00151600381111561284757fe5b141561285257600080fd5b60028160a00151600381111561286457fe5b1415801561287457506060810151155b15612883576128838b836133fb565b50600101612805565b5060005b89515181101561292f5760008a6000015182815181106128ac57fe5b60200260200101519050600260038111156128c357fe5b8160a0015160038111156128d357fe5b14156128e757608081015160009055612926565b60018160a0015160038111156128f957fe5b14156129125760808101518061290f838261354a565b50505b61291e8186868661366f565b919650945092505b50600101612890565b506060890151600061293f6136d2565b6001600160a01b038b1660009081526020829052604081209192505b8c6020015151811015612a095760008d60200151828151811061297a57fe5b602002602001015190508060600151600014156129975750612a01565b60028160a0015160038111156129a957fe5b141580156129c7575060038160a0015160038111156129c457fe5b14155b6129d057600080fd5b6129dc8189898961366f565b919950975095506129f9818487601081106129f357fe5b0161354a565b600185019450505b60010161295b565b5060108311158015612a20575064ffffffffff8411155b612a2957600080fd5b50939a929950975095509350505050565b6000807f7fff7fff7fff7fff7fff7fff7fff7fff7fff00000000000000000000000000008316815b6001600160701b0319821615612aac57600160fe1b8281161415612a96576001600160f01b03198216811c92909217916010015b6010826001600160701b031916901b9150612a62565b50909392505050565b6000806108d6600b612204565b6000806108d66003612204565b6000806000612add856136df565b9194509250905080612aec5750825b80841015612af957600080fd5b612b0f612b088483870361121d565b839061126b565b91506001600160801b038210612b2457600080fd5b63ffffffff8410612b3457600080fd5b9250925092565b6000806108d6600e612204565b600082612b57575060006108d6565b82820282848281612b6457fe5b0414610e705760405162461bcd60e51b81526004018080602001828103825260218152602001806142516021913960400191505060405180910390fd5b600080612bba6301da9c0061216d866305f5e100612b48565b90506110ab8184612b48565b6000808211612c1c576040805162461bcd60e51b815260206004820152601a60248201527f536166654d6174683a206469766973696f6e206279207a65726f000000000000604482015290519081900360640190fd5b818381612c2557fe5b049392505050565b600081612c3957600080fd5b600160801b8210612c4c57608091821c91015b600160401b8210612c5f57604091821c91015b6401000000008210612c7357602091821c91015b620100008210612c8557601091821c91015b6101008210612c9657600891821c91015b60108210612ca657600491821c91015b60048210612cb657600291821c91015b6002821061075857600101919050565b6000806108d66007612204565b6040516323b872dd60e01b81526001600160a01b038416906323b872dd906124a390859030908690600401613e8f565b6000612d0d613ae6565b3d8015612d215760208114612d2a57600080fd5b60019250612d35565b60206000833e815192505b5081610caf5760405162461bcd60e51b81526004016101e2906140fc565b6000806108d6600c612204565b6000806000612d6e85611d86565b905062015180840615612d88576000809250925050612e64565b838110612d9c576000809250925050612e64565b6201518081850304605a8111612db957925060019150612e649050565b6101688111612df8576000620151806207e900840604820160591901905060068104605a0160068281612de857fe5b0660001494509450505050612e64565b6108708111612e285760006201518062278d00840604820161016719019050601e8104608701601e8281612de857fe5b611de28111612e58576000620151806276a700840604820161086f19019050605a810460c301605a8281612de857fe5b61010060009350935050505b9250929050565b600060018210158015612e8057506101008211155b612e8957600080fd5b50600019011b600160ff1b9081161490565b600060018310158015612eb057506101008311155b612eb957600080fd5b8115612ed25750600160ff1b60001983011c8317610e70565b50600160ff1b60001983011c198316610e70565b6014612ef18261373b565b1115612f0f5760405162461bcd60e51b81526004016101e29061406f565b6000612f19612ab5565b6001600160a01b039094166000908152602094855260408082209482529390945250912055565b606060108260ff161115612f5357600080fd5b6000612f5d6136d2565b6001600160a01b038516600090815260208290526040812091925060ff851667ffffffffffffffff81118015612f9257600080fd5b50604051908082528060200260200182016040528015612fcc57816020015b612fb9613aa6565b815260200190600190039081612fb15790505b50905060005b8560ff16811015613058576000838260108110612feb57fe5b0190506000838381518110612ffc57fe5b602090810291909101810151835461ffff8116825264ffffffffff620100008204169282019290925260ff600160381b8304166040820152600160401b909104600a90810b900b60608201526080019190915250600101612fd2565b5095945050505050565b805160008167ffffffffffffffff8111801561307d57600080fd5b506040519080825280602002602001820160405280156130a7578160200160208202803683370190505b50905060005b828110156131045760008482815181106130c357fe5b602002602001015190506130e481600001518260200151836040015161380b565b8383815181106130f057fe5b6020908102919091010152506001016130ad565b5060015b828110156116e357805b60008111801561314a575082818151811061312957fe5b602002602001015183600183038151811061314057fe5b6020026020010151115b156132125782818151811061315b57fe5b602002602001015183600183038151811061317257fe5b602002602001015184600184038151811061318957fe5b6020026020010185848151811061319c57fe5b60200260200101828152508281525050508481815181106131b957fe5b60200260200101518560018303815181106131d057fe5b60200260200101518660018403815181106131e757fe5b602002602001018784815181106131fa57fe5b60209081029190910101919091525260001901613112565b50600101613108565b6000805b865181101561331f57600087828151811061323657fe5b60200260200101519050848160400151141580613254575080518714155b80613263575085816020015114155b1561326e5750613317565b60028160a00151600381111561328057fe5b1415801561329e575060038160a00151600381111561329b57fe5b14155b6132a757600080fd5b60608101516000906132b9908661126b565b90506132c48661332c565b156132d75760008112156132d757600080fd5b6001600160571b031981128015906132f657506001600160571b038113155b6132ff57600080fd5b6060820152600160a090910181905291506121079050565b60010161321f565b5060009695505050505050565b6000600282108015906108d65750506008101590565b60606000825160001461335957825160020261335c565b60015b905060008167ffffffffffffffff8111801561337757600080fd5b506040519080825280602002602001820160405280156133b157816020015b61339e613aa6565b8152602001906001900390816133965790505b50905060005b84518110156133f3578481815181106133cc57fe5b60200260200101518282815181106133e057fe5b60209081029190910101526001016133b7565b509392505050565b815151811061340957600080fd5b600082606001511161341a57600080fd5b60008260000151828151811061342c57fe5b602002602001015190506002600381111561344357fe5b8160a00151600381111561345357fe5b14158015613471575060038160a00151600381111561346e57fe5b14155b61347a57600080fd5b606083018051600019019052600080805b8551518110156134ed576000866000015182815181106134a757fe5b602002602001015190508281608001511180156134d4575060028160a0015160038111156134d157fe5b14155b156134e457806080015192508193505b5060010161348b565b5081841415613506575050600260a09190910152610caf565b60008560000151838151811061351857fe5b602090810291909101015160808581018051918301805190915252600160a09182015260029401939093525050505050565b81511580159061355d57508151613fff10155b61356657600080fd5b816020015160001080156135835750602082015164ffffffffff10155b61358c57600080fd5b816040015160001080156135a557506040820151600810155b6135ae57600080fd5b60608201516001600160571b0319138015906135d5575060608201516001600160571b0312155b6135de57600080fd5b8151815460208401516040850151606090950151600a0b6001600160581b0316600160401b0272ffffffffffffffffffffff00000000000000001960ff909616600160381b0267ff000000000000001964ffffffffff909316620100000266ffffffffff00001961ffff90961661ffff19909516949094179490941692909217169190911792909216919091179055565b60008060008061367e88613866565b905084158061368c57508085115b15613695578094505b86806136a5575060008860600151125b965061ffff8616156136b657600080fd5b50509451939560109390931c60f09490941b9390931793509150565b6000806108d6600d612204565b6000806000806136ed612b3b565b6001600160a01b0395909516600090815260209590955250506040909220546001600160601b03811693600160601b82046001600160801b03169350600160e01b90910463ffffffff169150565b600181901c7f5555555555555555555555555555555555555555555555555555555555555555908116911601600281901c7f3333333333333333333333333333333333333333333333333333333333333333908116911601600481901c7f07070707070707070707070707070707070707070707070707070707070707079190911601600881901c7e0f000f000f000f000f000f000f000f000f000f000f000f000f000f000f000f908116911601601081901c01602081901c01604081901c01608081901c60ff90811691160190565b6000613fff84111561381c57600080fd5b64ffffffffff83111561382e57600080fd5b600882111561383c57600080fd5b5067ffff000000000000603084901b1665ffffffffff00600884901b161760ff8216179392505050565b600080826040015111801561388057506040820151600810155b61388957600080fd5b60408201516002106138a057506020810151610758565b60006138b260018460400151036138d3565b6020840151909150610754906276a700906138cd90846124dd565b90613977565b600081600114156138e857506276a700610758565b81600214156138fb575062ed4e00610758565b816003141561390f57506301da9c00610758565b816004141561392357506303b53800610758565b816005141561393757506309450c00610758565b816006141561394b575063128a1800610758565b816007141561395f57506325143000610758565b60405162461bcd60e51b81526004016101e290613fbf565b600082820183811015610e70576040805162461bcd60e51b815260206004820152601b60248201527f536166654d6174683a206164646974696f6e206f766572666c6f770000000000604482015290519081900360640190fd5b604051806101200160405280600061ffff16815260200160008152602001600081526020016000815260200160008152602001600081526020016000815260200160008152602001600081525090565b6040805160a08101825260008082526020820181905291810182905260608101829052608081019190915290565b6040805160a0810182526000808252602082018190529181018290529060608201908152602001600081525090565b6040518060800160405280606081526020016060815260200160008152602001600081525090565b6040518060c00160405280600081526020016000815260200160008152602001600081526020016000815260200160006003811115613ae157fe5b905290565b60405180602001604052806001906020820280368337509192915050565b80356001600160a01b038116811461075857600080fd5b80516001600160701b03198116811461075857600080fd5b80516004811061075857600080fd5b805161075881614240565b805160ff8116811461075857600080fd5b600060208284031215613b6f578081fd5b610e7082613b04565b600080600060608486031215613b8c578182fd5b613b9584613b04565b92506020840135613ba581614240565b929592945050506040919091013590565b600080600080600060a08688031215613bcd578081fd5b613bd686613b04565b94506020860135613be681614240565b935060408601356001600160601b0381168114613c01578182fd5b92506060860135613c118161422f565b91506080860135613c218161422f565b809150509295509295909350565b600080600060608486031215613c43578283fd5b83519250602080850151613c568161422f565b8093505060408086015167ffffffffffffffff80821115613c75578485fd5b818801915088601f830112613c88578485fd5b815181811115613c9457fe5b613ca1858683020161420b565b8181528581019084870160c0808502870189018e1015613cbf57898afd5b8996505b84871015613d3f5780828f031215613cd957898afd5b87518181018181108882111715613cec57fe5b808a525082518152898301518a82015288830151898201526060830151606082015260808301516080820152613d2460a08401613b33565b60a08201528452600196909601959288019290810190613cc3565b5050809750505050505050509250925092565b600060a08284031215613d63578081fd5b60405160a0810181811067ffffffffffffffff82111715613d8057fe5b604052825164ffffffffff81168114613d97578283fd5b815260208301516001600160f81b031981168114613db3578283fd5b6020820152613dc460408401613b4d565b6040820152613dd560608401613b42565b6060820152613de660808401613b1b565b60808201529392505050565b600060208284031215613e03578081fd5b8135610e7081614240565b600080600060608486031215613e22578081fd5b8335613e2d81614240565b925060208401356001600160581b0381168114613e48578182fd5b91506040840135613e588161422f565b809150509250925092565b600060208284031215613e74578081fd5b5051919050565b6001600160a01b0391909116815260200190565b6001600160a01b039384168152919092166020820152604081019190915260600190565b6001600160a01b03929092168252805164ffffffffff166020808401919091528101516001600160f81b03191660408084019190915281015160ff1660608084019190915281015161ffff1660808084019190915201516001600160701b03191660a082015260c00190565b6001600160a01b03929092168252602082015260400190565b901515815260200190565b90815260200190565b9182521515602082015260400190565b602080825260049082015263135a5b9d60e21b604082015260600190565b6020808252600b908201526a4554482042616c616e636560a81b604082015260600190565b60208082526006908201526552656465656d60d01b604082015260600190565b6020808252600d908201526c092dcecc2d8d2c840d2dcc8caf609b1b604082015260600190565b602080825260149082015273496e73756666696369656e742062616c616e636560601b604082015260600190565b6020808252601390820152724163636f756e74206d75737420736574746c6560681b604082015260600190565b6020808252601490820152731050ce8818d85b9b9bdd081a185d99481919589d60621b604082015260600190565b6020808252600f908201526e4f766572206d61782061737365747360881b604082015260600190565b6020808252601390820152722ab730baba3437b934bd32b21031b0b63632b960691b604082015260600190565b60208082526017908201527f41433a20696e76616c69642063757272656e6379206964000000000000000000604082015260600190565b602080825260059082015264045524332360dc1b604082015260600190565b60208082526016908201527541433a2063616e6e6f7420686176652061737365747360501b604082015260600190565b6020808252600e908201526d1499595b9d1c985b9d0818d85b1b60921b604082015260600190565b60208082526008908201526709ccace4086c2e6d60c31b604082015260600190565b6020808252600a90820152692732b390372a37b5b2b760b11b604082015260600190565b602080825260139082015272496e73756666696369656e7420746f6b656e7360681b604082015260600190565b61ffff9490941684526020840192909252151560408301521515606082015260800190565b60405181810167ffffffffffffffff8111828210171561422757fe5b604052919050565b801515811461423d57600080fd5b50565b61ffff8116811461423d57600080fdfe536166654d6174683a206d756c7469706c69636174696f6e206f766572666c6f77a2646970667358221220caacf6aed81df39a229abe8bca38fd311667261361e582c65b4ef79590df6f5064736f6c63430007060033","language":"Solidity","natspec":{"methods":{"depositAssetToken(address,uint16,uint256)":{"notice":"Deposits asset tokens into an account. Does not settle or check free collateral, idea is to make deposit as gas efficient as possible during potential liquidation events.","details":"emit:CashBalanceChange emit:AccountContextUpdateauth:none","params":{"account":"the account to deposit into","amountExternalPrecision":"the amount of asset tokens in its native decimal precision (i.e. 8 decimals for cTokens).","currencyId":"currency id of the asset token"},"returns":{"_0":"asset tokens minted and deposited to the account in internal decimals (8)"}},"depositUnderlyingToken(address,uint16,uint256)":{"notice":"Deposits and wraps the underlying token for a particular cToken. Does not settle assets or check free collateral, idea is to be as gas efficient as possible during potential liquidation events.","details":"emit:CashBalanceChange emit:AccountContextUpdateauth:none","params":{"account":"the account to deposit into","amountExternalPrecision":"the amount of underlying tokens in its native decimal precision (i.e. 18 decimals for DAI or 6 decimals for USDC). This will be converted to 8 decimals during transfer.","currencyId":"currency id of the asset token that wraps this underlying"},"returns":{"_0":"asset tokens minted and deposited to the account in internal decimals (8)"}},"enableBitmapCurrency(uint16)":{"notice":"Enables a bitmap currency for msg.sender, account cannot have any assets when this call occurs.","details":"emit:AccountSettled emit:AccountContextUpdateauth:msg.sender","params":{"currencyId":"the currency to enable the bitmap for. If set to zero then will attempt to disable the bitmap portfolio for the account"}},"nTokenRedeem(address,uint16,uint96,bool,bool)":{"notice":"Allows accounts to redeem nTokens into constituent assets and then absorb the assets into their portfolio. Due to the complexity here, it is not allowed to be called during a batch trading operation and must be done separately.","details":"auth:msg.sender auth:ERC1155","params":{"acceptResidualAssets":"if true, will place any residual fCash that could not be sold (either due to slippage or because it was idiosyncratic) into the account's portfolio","currencyId":"the currency associated the nToken","redeemer":"the address that holds the nTokens to redeem","sellTokenAssets":"attempt to sell residual fCash and convert to cash","tokensToRedeem_":"the amount of nTokens to convert to cash"},"returns":{"_0":"total amount of asset cash redeemed","_1":"true or false if there were residuals that were placed into the portfolio"}},"settleAccount(address)":{"notice":"Method for manually settling an account, generally should not be called because other methods will check if an account needs to be settled automatically. If a bitmap account has debt and is settled via this method, the hasDebt flag will not be cleared until a free collateral check is performed on the account.","details":"emit:AccountSettled emit:AccountContextUpdateauth:none","params":{"account":"the account to settle"},"returns":{"_0":"returns true if account has been settled"}},"withdraw(uint16,uint88,bool)":{"notice":"Withdraws balances from Notional, may also redeem to underlying tokens on user request. Will settle and do free collateral checks if required. Can only be called by msg.sender, operators who want to withdraw for an account must do an authenticated call via ERC1155Action `safeTransferFrom` or `safeBatchTransferFrom`","details":"emit:CashBalanceChange emit:AccountContextUpdateauth:msg.sender","params":{"amountInternalPrecision":"the amount of cash balance in internal 8 decimal precision to withdraw, this is be denominated in asset cash.","currencyId":"currency id of the asset token","redeemToUnderlying":"true if the tokens should be converted to underlying assets"},"returns":{"_0":"the amount of tokens received by the account denominated in the destination token precision (if"}}},"kind":"dev","version":1},"opcodes":"PUSH1 0x80 PUSH1 0x40 MSTORE PUSH1 0x4 CALLDATASIZE LT PUSH2 0x86 JUMPI PUSH1 0x0 CALLDATALOAD PUSH1 0xE0 SHR DUP1 PUSH4 0x82463367 GT PUSH2 0x59 JUMPI DUP1 PUSH4 0x82463367 EQ PUSH2 0x124 JUMPI DUP1 PUSH4 0x8DA5CB5B EQ PUSH2 0x139 JUMPI DUP1 PUSH4 0x9C979450 EQ PUSH2 0x14E JUMPI DUP1 PUSH4 0xB8A69455 EQ PUSH2 0x170 JUMPI DUP1 PUSH4 0xF667F897 EQ PUSH2 0x190 JUMPI PUSH2 0x86 JUMP JUMPDEST DUP1 PUSH4 0x2F332E8 EQ PUSH2 0x8B JUMPI DUP1 PUSH4 0x24A3D622 EQ PUSH2 0xC1 JUMPI DUP1 PUSH4 0x2890FB65 EQ PUSH2 0xE3 JUMPI DUP1 PUSH4 0x66890643 EQ PUSH2 0xF6 JUMPI JUMPDEST PUSH1 0x0 DUP1 REVERT JUMPDEST CALLVALUE DUP1 ISZERO PUSH2 0x97 JUMPI PUSH1 0x0 DUP1 REVERT JUMPDEST POP PUSH2 0xAB PUSH2 0xA6 CALLDATASIZE PUSH1 0x4 PUSH2 0x3E0E JUMP JUMPDEST PUSH2 0x1BD JUMP JUMPDEST PUSH1 0x40 MLOAD PUSH2 0xB8 SWAP2 SWAP1 PUSH2 0x3F43 JUMP JUMPDEST PUSH1 0x40 MLOAD DUP1 SWAP2 SUB SWAP1 RETURN JUMPDEST CALLVALUE DUP1 ISZERO PUSH2 0xCD JUMPI PUSH1 0x0 DUP1 REVERT JUMPDEST POP PUSH2 0xD6 PUSH2 0x31B JUMP JUMPDEST PUSH1 0x40 MLOAD PUSH2 0xB8 SWAP2 SWAP1 PUSH2 0x3E7B JUMP JUMPDEST PUSH2 0xAB PUSH2 0xF1 CALLDATASIZE PUSH1 0x4 PUSH2 0x3B78 JUMP JUMPDEST PUSH2 0x32A JUMP JUMPDEST CALLVALUE DUP1 ISZERO PUSH2 0x102 JUMPI PUSH1 0x0 DUP1 REVERT JUMPDEST POP PUSH2 0x116 PUSH2 0x111 CALLDATASIZE PUSH1 0x4 PUSH2 0x3BB6 JUMP JUMPDEST PUSH2 0x3D2 JUMP JUMPDEST PUSH1 0x40 MLOAD PUSH2 0xB8 SWAP3 SWAP2 SWAP1 PUSH2 0x3F4C JUMP JUMPDEST CALLVALUE DUP1 ISZERO PUSH2 0x130 JUMPI PUSH1 0x0 DUP1 REVERT JUMPDEST POP PUSH2 0xD6 PUSH2 0x63B JUMP JUMPDEST CALLVALUE DUP1 ISZERO PUSH2 0x145 JUMPI PUSH1 0x0 DUP1 REVERT JUMPDEST POP PUSH2 0xD6 PUSH2 0x64A JUMP JUMPDEST CALLVALUE DUP1 ISZERO PUSH2 0x15A JUMPI PUSH1 0x0 DUP1 REVERT JUMPDEST POP PUSH2 0x16E PUSH2 0x169 CALLDATASIZE PUSH1 0x4 PUSH2 0x3DF2 JUMP JUMPDEST PUSH2 0x661 JUMP JUMPDEST STOP JUMPDEST CALLVALUE DUP1 ISZERO PUSH2 0x17C JUMPI PUSH1 0x0 DUP1 REVERT JUMPDEST POP PUSH2 0xAB PUSH2 0x18B CALLDATASIZE PUSH1 0x4 PUSH2 0x3B78 JUMP JUMPDEST PUSH2 0x6AF JUMP JUMPDEST CALLVALUE DUP1 ISZERO PUSH2 0x19C JUMPI PUSH1 0x0 DUP1 REVERT JUMPDEST POP PUSH2 0x1B0 PUSH2 0x1AB CALLDATASIZE PUSH1 0x4 PUSH2 0x3B5E JUMP JUMPDEST PUSH2 0x729 JUMP JUMPDEST PUSH1 0x40 MLOAD PUSH2 0xB8 SWAP2 SWAP1 PUSH2 0x3F38 JUMP JUMPDEST PUSH1 0x0 PUSH1 0x2 PUSH1 0xA SLOAD EQ ISZERO PUSH2 0x1EB JUMPI PUSH1 0x40 MLOAD PUSH3 0x461BCD PUSH1 0xE5 SHL DUP2 MSTORE PUSH1 0x4 ADD PUSH2 0x1E2 SWAP1 PUSH2 0x414B JUMP JUMPDEST PUSH1 0x40 MLOAD DUP1 SWAP2 SUB SWAP1 REVERT JUMPDEST PUSH1 0x2 PUSH1 0xA SSTORE PUSH1 0x0 PUSH2 0x1FB CALLER PUSH2 0x75D JUMP JUMPDEST POP SWAP1 POP PUSH2 0x206 PUSH2 0x39D1 JUMP JUMPDEST PUSH2 0x212 DUP2 CALLER DUP9 DUP6 PUSH2 0x822 JUMP JUMPDEST DUP5 PUSH1 0x1 PUSH1 0x1 PUSH1 0x58 SHL SUB AND DUP2 PUSH1 0x20 ADD MLOAD SLT ISZERO PUSH2 0x23F JUMPI PUSH1 0x40 MLOAD PUSH3 0x461BCD PUSH1 0xE5 SHL DUP2 MSTORE PUSH1 0x4 ADD PUSH2 0x1E2 SWAP1 PUSH2 0x3FE6 JUMP JUMPDEST PUSH2 0x251 DUP6 PUSH1 0x1 PUSH1 0x1 PUSH1 0x58 SHL SUB AND PUSH2 0x8C8 JUMP JUMPDEST PUSH1 0x80 DUP3 ADD MSTORE PUSH1 0x0 PUSH2 0x264 DUP3 CALLER DUP6 DUP9 PUSH2 0x8DC JUMP JUMPDEST SWAP1 POP PUSH2 0x270 DUP4 CALLER PUSH2 0xB4D JUMP JUMPDEST PUSH1 0x20 DUP4 ADD MLOAD PUSH1 0x1 PUSH1 0x1 PUSH1 0xF8 SHL SUB NOT AND ISZERO PUSH2 0x2EC JUMPI PUSH1 0x40 MLOAD PUSH4 0x6CCC642F PUSH1 0xE0 SHL DUP2 MSTORE PUSH20 0x0 SWAP1 PUSH4 0x6CCC642F SWAP1 PUSH2 0x2BB SWAP1 CALLER SWAP1 PUSH1 0x4 ADD PUSH2 0x3E7B JUMP JUMPDEST PUSH1 0x0 PUSH1 0x40 MLOAD DUP1 DUP4 SUB DUP2 DUP7 DUP1 EXTCODESIZE ISZERO DUP1 ISZERO PUSH2 0x2D3 JUMPI PUSH1 0x0 DUP1 REVERT JUMPDEST POP GAS DELEGATECALL ISZERO DUP1 ISZERO PUSH2 0x2E7 JUMPI RETURNDATASIZE PUSH1 0x0 DUP1 RETURNDATACOPY RETURNDATASIZE PUSH1 0x0 REVERT JUMPDEST POP POP POP POP JUMPDEST PUSH1 0x0 DUP2 SGT ISZERO PUSH2 0x2FA JUMPI PUSH1 0x0 DUP1 REVERT JUMPDEST PUSH2 0x30B PUSH2 0x306 DUP3 PUSH2 0x8C8 JUMP JUMPDEST PUSH2 0xC51 JUMP JUMPDEST PUSH1 0x1 PUSH1 0xA SSTORE SWAP8 SWAP7 POP POP POP POP POP POP POP JUMP JUMPDEST PUSH1 0x2 SLOAD PUSH1 0x1 PUSH1 0x1 PUSH1 0xA0 SHL SUB AND DUP2 JUMP JUMPDEST PUSH1 0x0 PUSH1 0x2 PUSH1 0xA SLOAD EQ ISZERO PUSH2 0x34F JUMPI PUSH1 0x40 MLOAD PUSH3 0x461BCD PUSH1 0xE5 SHL DUP2 MSTORE PUSH1 0x4 ADD PUSH2 0x1E2 SWAP1 PUSH2 0x414B JUMP JUMPDEST PUSH1 0x2 PUSH1 0xA SSTORE CALLER ADDRESS EQ ISZERO PUSH2 0x361 JUMPI PUSH1 0x0 DUP1 REVERT JUMPDEST PUSH2 0x36A DUP5 PUSH2 0xC64 JUMP JUMPDEST PUSH1 0x0 PUSH2 0x375 DUP6 PUSH2 0xCB3 JUMP JUMPDEST SWAP1 POP PUSH2 0x37F PUSH2 0x39D1 JUMP JUMPDEST PUSH2 0x38B DUP2 DUP8 DUP8 DUP6 PUSH2 0x822 JUMP JUMPDEST PUSH1 0x0 PUSH2 0x3A2 CALLER PUSH2 0x39A DUP8 PUSH2 0xD54 JUMP JUMPDEST DUP5 SWAP2 SWAP1 PUSH2 0xD6A JUMP JUMPDEST SWAP1 POP PUSH1 0x0 DUP2 SGT PUSH2 0x3B1 JUMPI PUSH1 0x0 DUP1 REVERT JUMPDEST PUSH2 0x3BE DUP3 DUP9 DUP6 PUSH1 0x0 PUSH2 0x8DC JUMP JUMPDEST POP PUSH2 0x3C9 DUP4 DUP9 PUSH2 0xB4D JUMP JUMPDEST PUSH2 0x30B DUP2 PUSH2 0xC51 JUMP JUMPDEST PUSH1 0x0 DUP1 PUSH1 0x2 PUSH1 0xA SLOAD EQ ISZERO PUSH2 0x3F8 JUMPI PUSH1 0x40 MLOAD PUSH3 0x461BCD PUSH1 0xE5 SHL DUP2 MSTORE PUSH1 0x4 ADD PUSH2 0x1E2 SWAP1 PUSH2 0x414B JUMP JUMPDEST PUSH1 0x2 PUSH1 0xA SSTORE CALLER PUSH1 0x1 PUSH1 0x1 PUSH1 0xA0 SHL SUB DUP9 AND EQ DUP1 PUSH2 0x413 JUMPI POP CALLER ADDRESS EQ JUMPDEST PUSH2 0x42F JUMPI PUSH1 0x40 MLOAD PUSH3 0x461BCD PUSH1 0xE5 SHL DUP2 MSTORE PUSH1 0x4 ADD PUSH2 0x1E2 SWAP1 PUSH2 0x4098 JUMP JUMPDEST PUSH1 0x1 PUSH1 0x1 PUSH1 0x60 SHL SUB DUP6 AND PUSH1 0x0 PUSH2 0x444 DUP10 PUSH2 0x75D JUMP JUMPDEST POP SWAP1 POP PUSH2 0x44F PUSH2 0x39D1 JUMP JUMPDEST PUSH2 0x45B DUP2 DUP12 DUP12 DUP6 PUSH2 0x822 JUMP JUMPDEST DUP3 DUP2 PUSH1 0x40 ADD MLOAD SLT ISZERO PUSH2 0x47F JUMPI PUSH1 0x40 MLOAD PUSH3 0x461BCD PUSH1 0xE5 SHL DUP2 MSTORE PUSH1 0x4 ADD PUSH2 0x1E2 SWAP1 PUSH2 0x41B9 JUMP JUMPDEST PUSH2 0x488 DUP4 PUSH2 0x8C8 JUMP JUMPDEST PUSH1 0xC0 DUP3 ADD MSTORE PUSH1 0x40 MLOAD PUSH3 0xD57C99 PUSH1 0xE5 SHL DUP2 MSTORE PUSH1 0x0 SWAP1 DUP2 SWAP1 DUP2 SWAP1 PUSH20 0x0 SWAP1 PUSH4 0x1AAF9320 SWAP1 PUSH2 0x4D0 SWAP1 DUP16 SWAP1 DUP11 SWAP1 DUP16 SWAP1 DUP16 SWAP1 PUSH1 0x4 ADD PUSH2 0x41E6 JUMP JUMPDEST PUSH1 0x0 PUSH1 0x40 MLOAD DUP1 DUP4 SUB DUP2 DUP7 DUP1 EXTCODESIZE ISZERO DUP1 ISZERO PUSH2 0x4E8 JUMPI PUSH1 0x0 DUP1 REVERT JUMPDEST POP GAS DELEGATECALL ISZERO DUP1 ISZERO PUSH2 0x4FC JUMPI RETURNDATASIZE PUSH1 0x0 DUP1 RETURNDATACOPY RETURNDATASIZE PUSH1 0x0 REVERT JUMPDEST POP POP POP POP PUSH1 0x40 MLOAD RETURNDATASIZE PUSH1 0x0 DUP3 RETURNDATACOPY PUSH1 0x1F RETURNDATASIZE SWAP1 DUP2 ADD PUSH1 0x1F NOT AND DUP3 ADD PUSH1 0x40 MSTORE PUSH2 0x524 SWAP2 SWAP1 DUP2 ADD SWAP1 PUSH2 0x3C2F JUMP JUMPDEST PUSH1 0x60 DUP8 ADD DUP4 SWAP1 MSTORE SWAP2 SWAP5 POP SWAP3 POP SWAP1 POP PUSH2 0x53F DUP5 DUP15 DUP8 PUSH1 0x0 PUSH2 0x8DC JUMP JUMPDEST POP DUP2 ISZERO PUSH2 0x554 JUMPI PUSH2 0x551 DUP14 DUP7 DUP4 PUSH2 0xE77 JUMP JUMPDEST SWAP5 POP JUMPDEST PUSH2 0x55E DUP6 DUP15 PUSH2 0xB4D JUMP JUMPDEST PUSH1 0x20 DUP6 ADD MLOAD PUSH1 0x1 PUSH1 0x1 PUSH1 0xF8 SHL SUB NOT AND ISZERO PUSH2 0x5DA JUMPI PUSH20 0x0 PUSH4 0x6CCC642F DUP15 PUSH1 0x40 MLOAD DUP3 PUSH4 0xFFFFFFFF AND PUSH1 0xE0 SHL DUP2 MSTORE PUSH1 0x4 ADD PUSH2 0x5A9 SWAP2 SWAP1 PUSH2 0x3E7B JUMP JUMPDEST PUSH1 0x0 PUSH1 0x40 MLOAD DUP1 DUP4 SUB DUP2 DUP7 DUP1 EXTCODESIZE ISZERO DUP1 ISZERO PUSH2 0x5C1 JUMPI PUSH1 0x0 DUP1 REVERT JUMPDEST POP GAS DELEGATECALL ISZERO DUP1 ISZERO PUSH2 0x5D5 JUMPI RETURNDATASIZE PUSH1 0x0 DUP1 RETURNDATACOPY RETURNDATASIZE PUSH1 0x0 REVERT JUMPDEST POP POP POP POP JUMPDEST DUP12 PUSH2 0xFFFF AND DUP14 PUSH1 0x1 PUSH1 0x1 PUSH1 0xA0 SHL SUB AND PUSH32 0x412BC13D202A2EA5119E55FEC9C5E420DDDB18FAF186373AD9795AD4F4545AA9 DUP7 PUSH1 0xC0 ADD MLOAD PUSH1 0x40 MLOAD PUSH2 0x61C SWAP2 SWAP1 PUSH2 0x3F43 JUMP JUMPDEST PUSH1 0x40 MLOAD DUP1 SWAP2 SUB SWAP1 LOG3 POP PUSH1 0x1 PUSH1 0xA SSTORE SWAP1 SWAP12 SWAP1 SWAP11 POP SWAP9 POP POP POP POP POP POP POP POP POP JUMP JUMPDEST PUSH1 0x1 SLOAD PUSH1 0x1 PUSH1 0x1 PUSH1 0xA0 SHL SUB AND DUP2 JUMP JUMPDEST PUSH1 0x0 SLOAD PUSH5 0x100000000 SWAP1 DIV PUSH1 0x1 PUSH1 0x1 PUSH1 0xA0 SHL SUB AND DUP2 JUMP JUMPDEST CALLER ADDRESS EQ ISZERO PUSH2 0x66E JUMPI PUSH1 0x0 DUP1 REVERT JUMPDEST PUSH1 0x0 SLOAD PUSH2 0xFFFF SWAP1 DUP2 AND SWAP1 DUP3 AND GT ISZERO PUSH2 0x685 JUMPI PUSH1 0x0 DUP1 REVERT JUMPDEST CALLER PUSH1 0x0 PUSH2 0x691 DUP3 PUSH2 0x75D JUMP JUMPDEST POP SWAP1 POP PUSH2 0x6A0 DUP2 DUP4 DUP6 TIMESTAMP PUSH2 0xEF8 JUMP JUMPDEST PUSH2 0x6AA DUP2 DUP4 PUSH2 0xB4D JUMP JUMPDEST POP POP POP JUMP JUMPDEST PUSH1 0x0 PUSH1 0x2 PUSH1 0xA SLOAD EQ ISZERO PUSH2 0x6D4 JUMPI PUSH1 0x40 MLOAD PUSH3 0x461BCD PUSH1 0xE5 SHL DUP2 MSTORE PUSH1 0x4 ADD PUSH2 0x1E2 SWAP1 PUSH2 0x414B JUMP JUMPDEST PUSH1 0x2 PUSH1 0xA SSTORE CALLER ADDRESS EQ ISZERO PUSH2 0x6E6 JUMPI PUSH1 0x0 DUP1 REVERT JUMPDEST PUSH2 0x6EF DUP5 PUSH2 0xC64 JUMP JUMPDEST PUSH1 0x0 PUSH2 0x6FA DUP6 PUSH2 0xCB3 JUMP JUMPDEST SWAP1 POP PUSH2 0x704 PUSH2 0x39D1 JUMP JUMPDEST PUSH2 0x710 DUP2 DUP8 DUP8 DUP6 PUSH2 0x822 JUMP JUMPDEST PUSH1 0x0 PUSH2 0x3A2 CALLER PUSH2 0x71F DUP8 PUSH2 0xD54 JUMP JUMPDEST DUP5 SWAP2 SWAP1 PUSH1 0x1 PUSH2 0x1003 JUMP JUMPDEST PUSH1 0x0 PUSH2 0x734 DUP3 PUSH2 0xC64 JUMP JUMPDEST PUSH1 0x0 DUP1 PUSH2 0x740 DUP5 PUSH2 0x75D JUMP JUMPDEST SWAP2 POP SWAP2 POP DUP1 ISZERO PUSH2 0x754 JUMPI PUSH2 0x754 DUP3 DUP6 PUSH2 0xB4D JUMP JUMPDEST SWAP2 POP POP JUMPDEST SWAP2 SWAP1 POP JUMP JUMPDEST PUSH2 0x765 PUSH2 0x3A21 JUMP JUMPDEST PUSH1 0x0 DUP1 PUSH2 0x771 DUP5 PUSH2 0xCB3 JUMP JUMPDEST SWAP1 POP PUSH2 0x77C DUP2 PUSH2 0x10B3 JUMP JUMPDEST ISZERO PUSH2 0x816 JUMPI PUSH1 0x40 MLOAD PUSH4 0x37B5FC21 PUSH1 0xE1 SHL DUP2 MSTORE PUSH20 0x0 SWAP1 PUSH4 0x6F6BF842 SWAP1 PUSH2 0x7BA SWAP1 DUP8 SWAP1 DUP6 SWAP1 PUSH1 0x4 ADD PUSH2 0x3EB3 JUMP JUMPDEST PUSH1 0xA0 PUSH1 0x40 MLOAD DUP1 DUP4 SUB DUP2 DUP7 DUP1 EXTCODESIZE ISZERO DUP1 ISZERO PUSH2 0x7D2 JUMPI PUSH1 0x0 DUP1 REVERT JUMPDEST POP GAS DELEGATECALL ISZERO DUP1 ISZERO PUSH2 0x7E6 JUMPI RETURNDATASIZE PUSH1 0x0 DUP1 RETURNDATACOPY RETURNDATASIZE PUSH1 0x0 REVERT JUMPDEST POP POP POP POP PUSH1 0x40 MLOAD RETURNDATASIZE PUSH1 0x1F NOT PUSH1 0x1F DUP3 ADD AND DUP3 ADD DUP1 PUSH1 0x40 MSTORE POP DUP2 ADD SWAP1 PUSH2 0x80A SWAP2 SWAP1 PUSH2 0x3D52 JUMP JUMPDEST PUSH1 0x1 SWAP3 POP SWAP3 POP POP PUSH2 0x81D JUMP JUMPDEST SWAP2 POP PUSH1 0x0 SWAP1 POP JUMPDEST SWAP2 POP SWAP2 JUMP JUMPDEST DUP2 PUSH2 0xFFFF AND PUSH1 0x0 LT DUP1 ISZERO PUSH2 0x83C JUMPI POP PUSH2 0x3FFF PUSH2 0xFFFF DUP4 AND GT ISZERO JUMPDEST PUSH2 0x845 JUMPI PUSH1 0x0 DUP1 REVERT JUMPDEST PUSH2 0xFFFF DUP3 AND DUP1 DUP6 MSTORE PUSH2 0x858 SWAP1 DUP3 SWAP1 PUSH2 0x1107 JUMP JUMPDEST ISZERO PUSH2 0x885 JUMPI PUSH2 0x86B DUP4 DUP4 PUSH2 0xFFFF AND PUSH2 0x1191 JUMP JUMPDEST PUSH2 0x100 DUP9 ADD MSTORE PUSH1 0xE0 DUP8 ADD MSTORE PUSH1 0x40 DUP7 ADD MSTORE PUSH1 0x20 DUP6 ADD MSTORE PUSH2 0x8A3 JUMP JUMPDEST PUSH1 0x0 PUSH1 0x20 DUP6 ADD DUP2 SWAP1 MSTORE PUSH1 0x40 DUP6 ADD DUP2 SWAP1 MSTORE PUSH1 0xE0 DUP6 ADD DUP2 SWAP1 MSTORE PUSH2 0x100 DUP6 ADD MSTORE JUMPDEST POP POP PUSH1 0x0 PUSH1 0x60 DUP4 ADD DUP2 SWAP1 MSTORE PUSH1 0x80 DUP4 ADD DUP2 SWAP1 MSTORE PUSH1 0xA0 DUP4 ADD DUP2 SWAP1 MSTORE PUSH1 0xC0 SWAP1 SWAP3 ADD SWAP2 SWAP1 SWAP2 MSTORE POP JUMP JUMPDEST PUSH1 0x0 PUSH2 0x8D6 PUSH1 0x0 NOT DUP4 PUSH2 0x121D JUMP JUMPDEST SWAP3 SWAP2 POP POP JUMP JUMPDEST PUSH1 0x0 DUP1 PUSH1 0x0 DUP7 PUSH1 0xA0 ADD MLOAD SLT ISZERO PUSH2 0x935 JUMPI PUSH1 0x0 PUSH2 0x917 DUP8 PUSH1 0xA0 ADD MLOAD PUSH2 0x911 DUP10 PUSH1 0xC0 ADD MLOAD DUP11 PUSH1 0x40 ADD MLOAD PUSH2 0x126B SWAP1 SWAP2 SWAP1 PUSH4 0xFFFFFFFF AND JUMP JUMPDEST SWAP1 PUSH2 0x126B JUMP JUMPDEST SLT ISZERO PUSH2 0x935 JUMPI PUSH1 0x40 MLOAD PUSH3 0x461BCD PUSH1 0xE5 SHL DUP2 MSTORE PUSH1 0x4 ADD PUSH2 0x1E2 SWAP1 PUSH2 0x4195 JUMP JUMPDEST PUSH1 0x0 DUP7 PUSH1 0x80 ADD MLOAD SLT ISZERO PUSH2 0x985 JUMPI PUSH1 0x0 PUSH2 0x967 DUP8 PUSH1 0x80 ADD MLOAD PUSH2 0x911 DUP10 PUSH1 0x60 ADD MLOAD DUP11 PUSH1 0x20 ADD MLOAD PUSH2 0x126B SWAP1 SWAP2 SWAP1 PUSH4 0xFFFFFFFF AND JUMP JUMPDEST SLT ISZERO PUSH2 0x985 JUMPI PUSH1 0x40 MLOAD PUSH3 0x461BCD PUSH1 0xE5 SHL DUP2 MSTORE PUSH1 0x4 ADD PUSH2 0x1E2 SWAP1 PUSH2 0x4173 JUMP JUMPDEST PUSH2 0x990 DUP7 DUP7 DUP6 PUSH2 0x1281 JUMP JUMPDEST PUSH1 0x80 DUP9 ADD DUP2 SWAP1 MSTORE PUSH1 0x60 DUP9 ADD MLOAD SWAP2 SWAP4 POP PUSH1 0x0 SWAP2 PUSH2 0x9AB SWAP2 PUSH2 0x126B JUMP JUMPDEST SWAP1 POP DUP1 ISZERO PUSH2 0xA18 JUMPI PUSH1 0x20 DUP8 ADD MLOAD PUSH2 0x9C2 SWAP1 DUP3 PUSH2 0x126B JUMP JUMPDEST PUSH1 0x20 DUP9 ADD MSTORE DUP7 MLOAD PUSH1 0x40 MLOAD PUSH1 0x1 SWAP4 POP PUSH2 0xFFFF SWAP1 SWAP2 AND SWAP1 PUSH1 0x1 PUSH1 0x1 PUSH1 0xA0 SHL SUB DUP9 AND SWAP1 PUSH32 0x5441E4A5FAC93A951D782E6F1CDB82E95C8FC58561A013953D17E395C5E69B4B SWAP1 PUSH2 0xA0F SWAP1 DUP6 SWAP1 PUSH2 0x3F43 JUMP JUMPDEST PUSH1 0x40 MLOAD DUP1 SWAP2 SUB SWAP1 LOG3 JUMPDEST PUSH1 0xA0 DUP8 ADD MLOAD ISZERO ISZERO DUP1 PUSH2 0xA2D JUMPI POP PUSH1 0xC0 DUP8 ADD MLOAD ISZERO ISZERO JUMPDEST ISZERO PUSH2 0xAC3 JUMPI PUSH2 0xA3C DUP8 DUP8 PUSH2 0x1356 JUMP JUMPDEST POP PUSH2 0xA60 DUP8 PUSH1 0xC0 ADD MLOAD PUSH2 0x911 DUP10 PUSH1 0xA0 ADD MLOAD DUP11 PUSH1 0x40 ADD MLOAD PUSH2 0x126B SWAP1 SWAP2 SWAP1 PUSH4 0xFFFFFFFF AND JUMP JUMPDEST PUSH1 0x40 DUP9 ADD MSTORE PUSH1 0xC0 DUP8 ADD MLOAD ISZERO PUSH2 0xABE JUMPI DUP7 PUSH1 0x0 ADD MLOAD PUSH2 0xFFFF AND DUP7 PUSH1 0x1 PUSH1 0x1 PUSH1 0xA0 SHL SUB AND PUSH32 0x412BC13D202A2EA5119E55FEC9C5E420DDDB18FAF186373AD9795AD4F4545AA9 DUP10 PUSH1 0xC0 ADD MLOAD PUSH1 0x40 MLOAD PUSH2 0xAB5 SWAP2 SWAP1 PUSH2 0x3F43 JUMP JUMPDEST PUSH1 0x40 MLOAD DUP1 SWAP2 SUB SWAP1 LOG3 JUMPDEST PUSH1 0x1 SWAP2 POP JUMPDEST DUP2 ISZERO PUSH2 0xAF0 JUMPI PUSH2 0xAF0 DUP7 DUP9 PUSH1 0x0 ADD MLOAD PUSH2 0xFFFF AND DUP10 PUSH1 0x20 ADD MLOAD DUP11 PUSH1 0x40 ADD MLOAD DUP12 PUSH1 0xE0 ADD MLOAD DUP13 PUSH2 0x100 ADD MLOAD PUSH2 0x13D1 JUMP JUMPDEST DUP7 MLOAD PUSH1 0x20 DUP9 ADD MLOAD PUSH2 0xB1D SWAP2 PUSH2 0xFFFF AND SWAP1 ISZERO ISZERO DUP1 PUSH2 0xB10 JUMPI POP PUSH1 0x40 DUP10 ADD MLOAD ISZERO ISZERO JUMPDEST DUP8 SWAP2 SWAP1 PUSH1 0x1 PUSH1 0xFE SHL PUSH2 0x14E9 JUMP JUMPDEST PUSH1 0x0 DUP8 PUSH1 0x20 ADD MLOAD SLT ISZERO PUSH2 0xB43 JUMPI PUSH1 0x20 DUP6 ADD DUP1 MLOAD PUSH1 0x1 PUSH1 0xF9 SHL OR PUSH1 0x1 PUSH1 0x1 PUSH1 0xF8 SHL SUB NOT AND SWAP1 MSTORE JUMPDEST POP POP SWAP5 SWAP4 POP POP POP POP JUMP JUMPDEST PUSH1 0x0 PUSH2 0xB57 PUSH2 0x16E9 JUMP JUMPDEST PUSH1 0x1 PUSH1 0x1 PUSH1 0xA0 SHL SUB DUP4 AND PUSH1 0x0 DUP2 DUP2 MSTORE PUSH1 0x20 DUP4 DUP2 MSTORE PUSH1 0x40 DUP1 DUP4 KECCAK256 DUP9 MLOAD DUP2 SLOAD SWAP4 DUP11 ADD MLOAD DUP4 DUP12 ADD MLOAD PUSH1 0x60 DUP13 ADD MLOAD PUSH1 0x80 DUP14 ADD MLOAD PUSH1 0x70 SHR PUSH1 0x1 PUSH1 0x48 SHL MUL PUSH27 0xFFFFFFFFFFFFFFFFFFFFFFFFFFFFFFFFFFFF000000000000000000 NOT PUSH2 0xFFFF SWAP1 SWAP3 AND PUSH1 0x1 PUSH1 0x38 SHL MUL PUSH9 0xFFFF00000000000000 NOT PUSH1 0xFF SWAP5 SWAP1 SWAP5 AND PUSH1 0x1 PUSH1 0x30 SHL MUL PUSH7 0xFF000000000000 NOT PUSH1 0xF8 SWAP7 SWAP1 SWAP7 SHR PUSH6 0x10000000000 MUL PUSH6 0xFF0000000000 NOT PUSH5 0xFFFFFFFFFF SWAP1 SWAP9 AND PUSH5 0xFFFFFFFFFF NOT SWAP1 SWAP12 AND SWAP11 SWAP1 SWAP11 OR SWAP7 SWAP1 SWAP7 AND SWAP9 SWAP1 SWAP9 OR SWAP4 SWAP1 SWAP4 AND SWAP4 SWAP1 SWAP4 OR AND SWAP5 SWAP1 SWAP5 OR AND SWAP3 SWAP1 SWAP3 OR SWAP1 SWAP2 SSTORE MLOAD SWAP3 SWAP4 POP SWAP1 SWAP2 PUSH32 0x6BD4B121BCA854A191536A2CA891155C42EE2FB23F307FB34E8BC65CFCB5412E SWAP2 SWAP1 LOG2 POP POP POP JUMP JUMPDEST PUSH1 0x0 DUP1 DUP3 SLT ISZERO PUSH2 0xC60 JUMPI PUSH1 0x0 DUP1 REVERT JUMPDEST POP SWAP1 JUMP JUMPDEST PUSH1 0x1 PUSH1 0x1 PUSH1 0xA0 SHL SUB DUP2 AND PUSH2 0xC77 JUMPI PUSH1 0x0 DUP1 REVERT JUMPDEST PUSH1 0x1 PUSH1 0x1 PUSH1 0xA0 SHL SUB DUP2 AND ADDRESS EQ ISZERO PUSH2 0xC8D JUMPI PUSH1 0x0 DUP1 REVERT JUMPDEST PUSH1 0x0 PUSH2 0xC98 DUP3 PUSH2 0x16F6 JUMP JUMPDEST POP POP POP POP PUSH2 0xFFFF AND SWAP1 POP DUP1 PUSH1 0x0 EQ PUSH2 0xCAF JUMPI PUSH1 0x0 DUP1 REVERT JUMPDEST POP POP JUMP JUMPDEST PUSH2 0xCBB PUSH2 0x3A21 JUMP JUMPDEST PUSH1 0x0 PUSH2 0xCC5 PUSH2 0x16E9 JUMP JUMPDEST PUSH1 0x1 PUSH1 0x1 PUSH1 0xA0 SHL SUB SWAP4 SWAP1 SWAP4 AND PUSH1 0x0 SWAP1 DUP2 MSTORE PUSH1 0x20 SWAP4 DUP5 MSTORE PUSH1 0x40 SWAP1 DUP2 SWAP1 KECCAK256 DUP2 MLOAD PUSH1 0xA0 DUP2 ADD DUP4 MSTORE SWAP1 SLOAD PUSH5 0xFFFFFFFFFF DUP2 AND DUP3 MSTORE PUSH6 0x10000000000 DUP2 DIV PUSH1 0xF8 SHL PUSH1 0x1 PUSH1 0x1 PUSH1 0xF8 SHL SUB NOT AND SWAP6 DUP3 ADD SWAP6 SWAP1 SWAP6 MSTORE PUSH1 0x1 PUSH1 0x30 SHL DUP6 DIV PUSH1 0xFF AND SWAP2 DUP2 ADD SWAP2 SWAP1 SWAP2 MSTORE PUSH1 0x1 PUSH1 0x38 SHL DUP5 DIV PUSH2 0xFFFF AND PUSH1 0x60 DUP3 ADD MSTORE PUSH1 0x1 PUSH1 0x48 SHL SWAP1 SWAP4 DIV PUSH1 0x70 SHL PUSH1 0x1 PUSH1 0x1 PUSH1 0x70 SHL SUB NOT AND PUSH1 0x80 DUP5 ADD MSTORE POP SWAP1 SWAP2 SWAP1 POP JUMP JUMPDEST PUSH1 0x0 PUSH1 0x1 PUSH1 0x1 PUSH1 0xFF SHL SUB DUP3 GT ISZERO PUSH2 0xC60 JUMPI PUSH1 0x0 DUP1 REVERT JUMPDEST PUSH1 0x0 DUP2 PUSH2 0xD79 JUMPI POP PUSH1 0x0 PUSH2 0xE70 JUMP JUMPDEST PUSH1 0x0 DUP3 SGT PUSH2 0xD86 JUMPI PUSH1 0x0 DUP1 REVERT JUMPDEST PUSH1 0x0 PUSH2 0xD99 DUP6 PUSH1 0x0 ADD MLOAD PUSH2 0xFFFF AND PUSH2 0x175F JUMP JUMPDEST SWAP1 POP PUSH1 0x3 DUP2 PUSH1 0x60 ADD MLOAD PUSH1 0x4 DUP2 GT ISZERO PUSH2 0xDAD JUMPI INVALID JUMPDEST EQ ISZERO PUSH2 0xDD7 JUMPI CALLVALUE DUP4 EQ PUSH2 0xDD2 JUMPI PUSH1 0x40 MLOAD PUSH3 0x461BCD PUSH1 0xE5 SHL DUP2 MSTORE PUSH1 0x4 ADD PUSH2 0x1E2 SWAP1 PUSH2 0x3F7A JUMP JUMPDEST PUSH2 0xDE5 JUMP JUMPDEST PUSH2 0xDE2 DUP2 DUP6 DUP6 PUSH2 0x1772 JUMP JUMPDEST SWAP3 POP JUMPDEST PUSH1 0x0 PUSH2 0xDF8 DUP7 PUSH1 0x0 ADD MLOAD PUSH2 0xFFFF AND PUSH2 0x1816 JUMP JUMPDEST SWAP1 POP PUSH1 0x1 DUP2 PUSH1 0x60 ADD MLOAD PUSH1 0x4 DUP2 GT ISZERO PUSH2 0xE0C JUMPI INVALID JUMPDEST EQ DUP1 PUSH2 0xE27 JUMPI POP PUSH1 0x2 DUP2 PUSH1 0x60 ADD MLOAD PUSH1 0x4 DUP2 GT ISZERO PUSH2 0xE25 JUMPI INVALID JUMPDEST EQ JUMPDEST PUSH2 0xE30 JUMPI PUSH1 0x0 DUP1 REVERT JUMPDEST PUSH1 0x0 PUSH2 0xE45 PUSH2 0xE3E DUP7 PUSH2 0xC51 JUMP JUMPDEST DUP4 SWAP1 PUSH2 0x1829 JUMP JUMPDEST SWAP1 POP PUSH1 0x0 PUSH2 0xE53 DUP4 DUP4 PUSH2 0x1A73 JUMP JUMPDEST PUSH1 0x60 DUP10 ADD MLOAD SWAP1 SWAP2 POP PUSH2 0xE65 SWAP1 DUP3 PUSH2 0x126B JUMP JUMPDEST PUSH1 0x60 DUP10 ADD MSTORE SWAP4 POP POP POP POP JUMPDEST SWAP4 SWAP3 POP POP POP JUMP JUMPDEST PUSH2 0xE7F PUSH2 0x3A21 JUMP JUMPDEST PUSH2 0xE88 DUP4 PUSH2 0x10B3 JUMP JUMPDEST ISZERO PUSH2 0xEA5 JUMPI PUSH1 0x40 MLOAD PUSH3 0x461BCD PUSH1 0xE5 SHL DUP2 MSTORE PUSH1 0x4 ADD PUSH2 0x1E2 SWAP1 PUSH2 0x4014 JUMP JUMPDEST PUSH2 0xEAE DUP4 PUSH2 0x1AA9 JUMP JUMPDEST ISZERO PUSH2 0xEC3 JUMPI PUSH2 0xEBE DUP5 DUP5 DUP5 PUSH2 0x1AB6 JUMP JUMPDEST PUSH2 0xEF0 JUMP JUMPDEST PUSH1 0x0 PUSH2 0xED5 DUP6 DUP6 PUSH1 0x40 ADD MLOAD DUP6 MLOAD PUSH2 0x1B7E JUMP JUMPDEST SWAP1 POP PUSH2 0xEE1 DUP2 DUP5 PUSH2 0x1C11 JUMP JUMPDEST PUSH2 0xEEE DUP5 DUP7 DUP4 PUSH1 0x0 PUSH2 0x1C6F JUMP JUMPDEST POP JUMPDEST POP SWAP1 SWAP3 SWAP2 POP POP JUMP JUMPDEST PUSH2 0x3FFF PUSH2 0xFFFF DUP4 AND GT ISZERO PUSH2 0xF1E JUMPI PUSH1 0x40 MLOAD PUSH3 0x461BCD PUSH1 0xE5 SHL DUP2 MSTORE PUSH1 0x4 ADD PUSH2 0x1E2 SWAP1 PUSH2 0x40C5 JUMP JUMPDEST PUSH2 0xF27 DUP5 PUSH2 0x1AA9 JUMP JUMPDEST ISZERO PUSH2 0xF66 JUMPI PUSH1 0x0 PUSH2 0xF40 DUP5 DUP7 PUSH1 0x60 ADD MLOAD PUSH2 0xFFFF AND PUSH2 0x1D51 JUMP JUMPDEST SWAP1 POP DUP1 ISZERO PUSH2 0xF60 JUMPI PUSH1 0x40 MLOAD PUSH3 0x461BCD PUSH1 0xE5 SHL DUP2 MSTORE PUSH1 0x4 ADD PUSH2 0x1E2 SWAP1 PUSH2 0x411B JUMP JUMPDEST POP PUSH2 0xFCC JUMP JUMPDEST PUSH1 0x40 DUP5 ADD MLOAD PUSH1 0xFF AND ISZERO PUSH2 0xF8B JUMPI PUSH1 0x40 MLOAD PUSH3 0x461BCD PUSH1 0xE5 SHL DUP2 MSTORE PUSH1 0x4 ADD PUSH2 0x1E2 SWAP1 PUSH2 0x411B JUMP JUMPDEST PUSH1 0x20 DUP5 ADD MLOAD PUSH1 0x1 PUSH1 0x1 PUSH1 0xF8 SHL SUB NOT AND ISZERO PUSH2 0xFB7 JUMPI PUSH1 0x40 MLOAD PUSH3 0x461BCD PUSH1 0xE5 SHL DUP2 MSTORE PUSH1 0x4 ADD PUSH2 0x1E2 SWAP1 PUSH2 0x4041 JUMP JUMPDEST PUSH2 0xFCC DUP5 PUSH2 0xFFFF DUP5 AND PUSH1 0x0 PUSH1 0x1 PUSH1 0xFE SHL PUSH2 0x14E9 JUMP JUMPDEST PUSH2 0xFFFF DUP3 AND PUSH1 0x60 DUP6 ADD MSTORE PUSH1 0x0 PUSH2 0xFE1 DUP3 PUSH2 0x1D86 JUMP JUMPDEST SWAP1 POP PUSH5 0xFFFFFFFFFF DUP2 LT PUSH2 0xFF4 JUMPI PUSH1 0x0 DUP1 REVERT JUMPDEST PUSH5 0xFFFFFFFFFF AND SWAP1 SWAP4 MSTORE POP POP POP JUMP JUMPDEST PUSH1 0x0 DUP3 PUSH2 0x1012 JUMPI POP PUSH1 0x0 PUSH2 0x10AB JUMP JUMPDEST PUSH1 0x0 DUP4 SGT PUSH2 0x101F JUMPI PUSH1 0x0 DUP1 REVERT JUMPDEST PUSH1 0x0 PUSH2 0x1032 DUP7 PUSH1 0x0 ADD MLOAD PUSH2 0xFFFF AND PUSH2 0x1816 JUMP JUMPDEST SWAP1 POP PUSH1 0x0 PUSH2 0x1040 DUP3 DUP7 PUSH2 0x1A73 JUMP JUMPDEST SWAP1 POP DUP2 PUSH1 0x20 ADD MLOAD DUP1 PUSH2 0x104F JUMPI POP DUP4 JUMPDEST ISZERO PUSH2 0x108E JUMPI PUSH1 0x0 PUSH2 0x1061 DUP4 DUP9 DUP9 PUSH2 0x1772 JUMP JUMPDEST SWAP1 POP PUSH2 0x106D DUP4 DUP3 PUSH2 0x1A73 JUMP JUMPDEST PUSH1 0x60 DUP10 ADD MLOAD SWAP1 SWAP3 POP PUSH2 0x107F SWAP1 DUP4 PUSH2 0x126B JUMP JUMPDEST PUSH1 0x60 DUP10 ADD MSTORE POP SWAP2 POP PUSH2 0x10AB SWAP1 POP JUMP JUMPDEST PUSH1 0x80 DUP8 ADD MLOAD PUSH2 0x109D SWAP1 DUP3 PUSH2 0x126B JUMP JUMPDEST PUSH1 0x80 DUP9 ADD MSTORE SWAP2 POP PUSH2 0x10AB SWAP1 POP JUMP JUMPDEST SWAP5 SWAP4 POP POP POP POP JUMP JUMPDEST PUSH1 0x0 TIMESTAMP PUSH2 0x10BF DUP4 PUSH2 0x1AA9 JUMP JUMPDEST ISZERO PUSH2 0x10E0 JUMPI PUSH2 0x10CD DUP2 PUSH2 0x1D86 JUMP JUMPDEST DUP4 MLOAD PUSH5 0xFFFFFFFFFF AND LT SWAP2 POP PUSH2 0x758 SWAP1 POP JUMP JUMPDEST DUP3 MLOAD PUSH5 0xFFFFFFFFFF AND ISZERO DUP1 ISZERO SWAP1 PUSH2 0x10FF JUMPI POP DUP3 MLOAD PUSH5 0xFFFFFFFFFF AND DUP2 LT ISZERO JUMPDEST SWAP2 POP POP PUSH2 0x758 JUMP JUMPDEST PUSH1 0x0 DUP2 ISZERO DUP1 ISZERO SWAP1 PUSH2 0x111A JUMPI POP PUSH2 0x3FFF DUP3 GT ISZERO JUMPDEST PUSH2 0x1123 JUMPI PUSH1 0x0 DUP1 REVERT JUMPDEST PUSH1 0x80 DUP4 ADD MLOAD PUSH1 0x60 DUP5 ADD MLOAD PUSH2 0xFFFF AND DUP4 EQ ISZERO PUSH2 0x1142 JUMPI PUSH1 0x1 SWAP2 POP POP PUSH2 0x8D6 JUMP JUMPDEST PUSH1 0x1 PUSH1 0x1 PUSH1 0x70 SHL SUB NOT DUP2 AND ISZERO PUSH2 0x1187 JUMPI PUSH1 0xF0 DUP2 SWAP1 SHR PUSH2 0x3FFF AND DUP4 DUP2 EQ ISZERO PUSH2 0x1174 JUMPI POP PUSH1 0x1 PUSH1 0xFE SHL SWAP1 DUP2 AND EQ SWAP1 POP PUSH2 0x8D6 JUMP JUMPDEST POP PUSH1 0x10 SHL PUSH1 0x1 PUSH1 0x1 PUSH1 0x80 SHL SUB NOT AND PUSH2 0x1142 JUMP JUMPDEST POP PUSH1 0x0 SWAP4 SWAP3 POP POP POP JUMP JUMPDEST PUSH1 0x0 DUP1 PUSH1 0x0 DUP1 PUSH1 0x0 PUSH2 0x11A1 PUSH2 0x1DA4 JUMP JUMPDEST PUSH1 0x1 PUSH1 0x1 PUSH1 0xA0 SHL SUB DUP9 AND PUSH1 0x0 SWAP1 DUP2 MSTORE PUSH1 0x20 DUP3 DUP2 MSTORE PUSH1 0x40 DUP1 DUP4 KECCAK256 DUP11 DUP5 MSTORE SWAP1 SWAP2 MSTORE SWAP1 KECCAK256 DUP1 SLOAD PUSH10 0xFFFFFFFFFFFFFFFFFFFF DUP2 AND SWAP7 POP PUSH1 0x1 PUSH1 0x50 SHL DUP2 DIV PUSH4 0xFFFFFFFF AND SWAP6 POP SWAP2 SWAP3 POP SWAP1 PUSH2 0x11FF SWAP1 PUSH1 0x1 PUSH1 0x70 SHL SWAP1 DIV PUSH7 0xFFFFFFFFFFFFFF AND PUSH2 0x1DB1 JUMP JUMPDEST SWAP1 SLOAD PUSH1 0x1 PUSH1 0xA8 SHL SWAP1 DIV PUSH1 0xA SWAP1 DUP2 SIGNEXTEND SWAP1 SIGNEXTEND SWAP9 SWAP5 SWAP8 POP SWAP3 SWAP6 POP SWAP2 SWAP4 POP POP POP JUMP JUMPDEST DUP2 DUP2 MUL PUSH1 0x0 NOT DUP4 EQ ISZERO PUSH2 0x124D JUMPI DUP2 ISZERO DUP1 PUSH2 0x123F JUMPI POP DUP3 DUP3 DUP3 DUP2 PUSH2 0x123C JUMPI INVALID JUMPDEST SDIV EQ JUMPDEST PUSH2 0x1248 JUMPI PUSH1 0x0 DUP1 REVERT JUMPDEST PUSH2 0x8D6 JUMP JUMPDEST DUP3 ISZERO DUP1 PUSH2 0x1262 JUMPI POP DUP2 DUP4 DUP3 DUP2 PUSH2 0x125F JUMPI INVALID JUMPDEST SDIV EQ JUMPDEST PUSH2 0x8D6 JUMPI PUSH1 0x0 DUP1 REVERT JUMPDEST DUP2 DUP2 ADD DUP3 DUP2 SLT ISZERO PUSH1 0x0 DUP4 SLT ISZERO EQ PUSH2 0x8D6 JUMPI PUSH1 0x0 DUP1 REVERT JUMPDEST PUSH1 0x0 DUP1 PUSH1 0x0 PUSH2 0x1297 DUP7 PUSH1 0x0 ADD MLOAD PUSH2 0xFFFF AND PUSH2 0x1816 JUMP JUMPDEST SWAP1 POP PUSH1 0x0 PUSH2 0x12B2 DUP8 PUSH1 0x80 ADD MLOAD DUP4 PUSH2 0x1DBF SWAP1 SWAP2 SWAP1 PUSH4 0xFFFFFFFF AND JUMP JUMPDEST SWAP1 POP DUP1 PUSH2 0x12C7 JUMPI PUSH1 0x0 DUP1 SWAP4 POP SWAP4 POP POP POP PUSH2 0x134E JUMP JUMPDEST DUP5 DUP1 ISZERO PUSH2 0x12D4 JUMPI POP PUSH1 0x0 DUP2 SLT JUMPDEST ISZERO PUSH2 0x1331 JUMPI PUSH1 0x0 PUSH2 0x12EC DUP9 PUSH1 0x0 ADD MLOAD PUSH2 0xFFFF AND PUSH2 0x175F JUMP JUMPDEST SWAP1 POP PUSH1 0x0 PUSH2 0x1305 DUP3 PUSH2 0x12FD DUP6 PUSH2 0x8C8 JUMP JUMPDEST DUP7 SWAP2 SWAP1 PUSH2 0x1DF7 JUMP JUMPDEST SWAP1 POP PUSH2 0x131C DUP9 PUSH2 0x1314 DUP4 PUSH2 0x8C8 JUMP JUMPDEST DUP5 SWAP2 SWAP1 PUSH2 0x1772 JUMP JUMPDEST SWAP6 POP PUSH2 0x1328 DUP5 DUP5 PUSH2 0x1A73 JUMP JUMPDEST SWAP5 POP POP POP PUSH2 0x134B JUMP JUMPDEST PUSH2 0x133C DUP3 DUP8 DUP4 PUSH2 0x1772 JUMP JUMPDEST SWAP4 POP PUSH2 0x1348 DUP3 DUP6 PUSH2 0x1A73 JUMP JUMPDEST SWAP3 POP JUMPDEST POP POP JUMPDEST SWAP4 POP SWAP4 SWAP2 POP POP JUMP JUMPDEST DUP2 MLOAD PUSH1 0x0 SWAP1 TIMESTAMP SWAP1 DUP3 SWAP1 PUSH2 0x136C SWAP1 PUSH2 0xFFFF AND PUSH2 0x2010 JUMP JUMPDEST SWAP1 POP PUSH1 0x0 PUSH2 0x137F DUP3 DUP8 PUSH1 0xC0 ADD MLOAD DUP6 PUSH2 0x2036 JUMP JUMPDEST SWAP1 POP PUSH1 0x0 PUSH2 0x13A6 DUP4 PUSH2 0x1394 DUP10 PUSH1 0x40 ADD MLOAD PUSH2 0xC51 JUMP JUMPDEST DUP10 PUSH1 0xE0 ADD MLOAD DUP11 PUSH2 0x100 ADD MLOAD DUP9 DUP8 PUSH2 0x2110 JUMP JUMPDEST PUSH1 0xE0 DUP9 ADD DUP6 SWAP1 MSTORE PUSH2 0x100 DUP9 ADD DUP4 SWAP1 MSTORE SWAP1 POP DUP1 ISZERO PUSH2 0x13C7 JUMPI PUSH2 0x13C7 DUP7 DUP3 PUSH2 0x21B7 JUMP JUMPDEST SWAP7 SWAP6 POP POP POP POP POP POP JUMP JUMPDEST PUSH1 0x0 PUSH2 0x13DB PUSH2 0x1DA4 JUMP JUMPDEST PUSH1 0x1 PUSH1 0x1 PUSH1 0xA0 SHL SUB DUP9 AND PUSH1 0x0 SWAP1 DUP2 MSTORE PUSH1 0x20 DUP3 DUP2 MSTORE PUSH1 0x40 DUP1 DUP4 KECCAK256 DUP11 DUP5 MSTORE SWAP1 SWAP2 MSTORE SWAP1 KECCAK256 SWAP1 SWAP2 POP PUSH1 0x1 PUSH1 0x1 PUSH1 0x57 SHL SUB NOT DUP7 SLT DUP1 ISZERO SWAP1 PUSH2 0x141E JUMPI POP PUSH1 0x1 PUSH1 0x1 PUSH1 0x57 SHL SUB DUP7 SGT ISZERO JUMPDEST PUSH2 0x1427 JUMPI PUSH1 0x0 DUP1 REVERT JUMPDEST PUSH1 0x0 DUP6 SLT ISZERO DUP1 ISZERO PUSH2 0x1442 JUMPI POP PUSH10 0xFFFFFFFFFFFFFFFFFFFF DUP6 SGT ISZERO JUMPDEST PUSH2 0x144B JUMPI PUSH1 0x0 DUP1 REVERT JUMPDEST PUSH4 0xFFFFFFFF DUP5 GT ISZERO PUSH2 0x145C JUMPI PUSH1 0x0 DUP1 REVERT JUMPDEST DUP1 SLOAD PUSH10 0xFFFFFFFFFFFFFFFFFFFF NOT AND PUSH10 0xFFFFFFFFFFFFFFFFFFFF DUP7 AND OR PUSH4 0xFFFFFFFF PUSH1 0x50 SHL NOT AND PUSH1 0x1 PUSH1 0x50 SHL PUSH4 0xFFFFFFFF DUP7 AND MUL OR PUSH1 0x1 PUSH1 0x1 PUSH1 0xA8 SHL SUB AND PUSH1 0x1 PUSH1 0xA8 SHL PUSH1 0x1 PUSH1 0x1 PUSH1 0x58 SHL SUB PUSH1 0xA DUP10 SWAP1 SIGNEXTEND AND MUL OR DUP2 SSTORE PUSH2 0x14BA DUP4 PUSH2 0x21D6 JUMP JUMPDEST DUP2 SLOAD PUSH7 0xFFFFFFFFFFFFFF SWAP2 SWAP1 SWAP2 AND PUSH1 0x1 PUSH1 0x70 SHL MUL PUSH7 0xFFFFFFFFFFFFFF PUSH1 0x70 SHL NOT SWAP1 SWAP2 AND OR SWAP1 SSTORE POP POP POP POP POP POP POP JUMP JUMPDEST DUP3 PUSH1 0x0 LT DUP1 ISZERO PUSH2 0x14FB JUMPI POP PUSH2 0x3FFF DUP4 GT ISZERO JUMPDEST PUSH2 0x1504 JUMPI PUSH1 0x0 DUP1 REVERT JUMPDEST DUP2 DUP1 ISZERO PUSH2 0x1518 JUMPI POP DUP3 DUP5 PUSH1 0x60 ADD MLOAD PUSH2 0xFFFF AND EQ JUMPDEST ISZERO PUSH2 0x1522 JUMPI PUSH2 0x16E3 JUMP JUMPDEST PUSH1 0x80 DUP5 ADD MLOAD PUSH1 0x0 SWAP1 DUP2 JUMPDEST PUSH1 0x1 PUSH1 0x1 PUSH1 0x70 SHL SUB NOT DUP3 AND ISZERO PUSH2 0x169D JUMPI PUSH1 0xF0 DUP3 SWAP1 SHR PUSH2 0x3FFF AND DUP7 DUP2 EQ DUP1 ISZERO PUSH2 0x1551 JUMPI POP DUP6 JUMPDEST ISZERO PUSH2 0x1589 JUMPI POP PUSH1 0x80 DUP8 ADD DUP1 MLOAD PUSH1 0x1 PUSH1 0x1 PUSH1 0xF0 SHL SUB NOT DUP7 AND PUSH1 0x10 SWAP1 SWAP4 MUL SWAP3 SWAP1 SWAP3 SHR SWAP2 SWAP1 SWAP2 OR PUSH1 0x1 PUSH1 0x1 PUSH1 0x70 SHL SUB NOT AND SWAP1 MSTORE POP PUSH2 0x16E3 SWAP1 POP JUMP JUMPDEST DUP7 DUP2 EQ DUP1 ISZERO PUSH2 0x1596 JUMPI POP DUP6 ISZERO JUMPDEST ISZERO PUSH2 0x15EB JUMPI PUSH1 0x1 PUSH1 0x1 PUSH1 0xF0 SHL SUB NOT DUP6 AND NOT SWAP3 SWAP1 SWAP3 AND SWAP2 PUSH1 0x3 PUSH1 0xFE SHL DUP4 AND PUSH2 0x15C9 JUMPI PUSH1 0x10 DUP4 PUSH1 0x1 PUSH1 0x1 PUSH1 0x70 SHL SUB NOT AND SWAP1 SHL SWAP3 POP JUMPDEST POP PUSH1 0x1 PUSH1 0x1 PUSH1 0x70 SHL SUB NOT SWAP2 DUP3 AND PUSH1 0x10 SWAP1 SWAP2 MUL SHR SWAP2 SWAP1 SWAP2 OR AND PUSH1 0x80 DUP6 ADD MSTORE PUSH2 0x16E3 JUMP JUMPDEST DUP7 DUP2 GT DUP1 ISZERO PUSH2 0x15F7 JUMPI POP DUP6 JUMPDEST ISZERO PUSH2 0x1651 JUMPI PUSH1 0x80 DUP9 DUP2 ADD MLOAD PUSH1 0x1 PUSH1 0x1 PUSH1 0xF0 SHL SUB NOT PUSH1 0xF0 DUP11 SWAP1 SHL DUP9 OR DUP2 AND PUSH1 0x10 DUP7 MUL SHR SWAP7 SWAP1 SWAP7 OR SWAP6 SWAP2 SHL AND ISZERO PUSH2 0x162B JUMPI PUSH1 0x0 DUP1 REVERT JUMPDEST POP PUSH1 0x1 PUSH1 0x1 PUSH1 0x70 SHL SUB NOT SWAP2 DUP3 AND PUSH1 0x1 SWAP2 SWAP1 SWAP2 ADD PUSH1 0x10 MUL SHR SWAP2 SWAP1 SWAP2 OR AND PUSH1 0x80 DUP6 ADD MSTORE PUSH2 0x16E3 JUMP JUMPDEST DUP7 DUP2 GT DUP1 ISZERO PUSH2 0x165E JUMPI POP DUP6 ISZERO JUMPDEST ISZERO PUSH2 0x166C JUMPI POP POP POP POP PUSH2 0x16E3 JUMP JUMPDEST POP PUSH1 0x1 PUSH1 0x1 PUSH1 0xF0 SHL SUB NOT DUP3 AND PUSH1 0x10 DUP3 DUP2 MUL SWAP2 SWAP1 SWAP2 SHR SWAP4 SWAP1 SWAP4 OR SWAP3 SWAP2 SWAP1 SWAP2 SHL PUSH1 0x1 PUSH1 0x1 PUSH1 0x80 SHL SUB NOT AND SWAP1 PUSH1 0x1 ADD PUSH2 0x152C JUMP JUMPDEST DUP5 PUSH2 0x16AA JUMPI POP POP POP PUSH2 0x16E3 JUMP JUMPDEST PUSH1 0x9 DUP2 LT PUSH2 0x16B7 JUMPI PUSH1 0x0 DUP1 REVERT JUMPDEST PUSH1 0x1 PUSH1 0x1 PUSH1 0xF0 SHL SUB NOT PUSH1 0xF0 DUP8 SWAP1 SHL DUP6 OR AND PUSH1 0x10 SWAP1 SWAP2 MUL SHR SWAP2 SWAP1 SWAP2 OR PUSH1 0x1 PUSH1 0x1 PUSH1 0x70 SHL SUB NOT AND PUSH1 0x80 DUP7 ADD MSTORE POP JUMPDEST POP POP POP POP JUMP JUMPDEST PUSH1 0x0 DUP1 PUSH2 0x8D6 PUSH1 0x1 PUSH2 0x2204 JUMP JUMPDEST PUSH1 0x0 DUP1 PUSH1 0x0 DUP1 PUSH1 0x0 DUP1 PUSH2 0x1707 PUSH2 0x221D JUMP JUMPDEST PUSH1 0x1 PUSH1 0x1 PUSH1 0xA0 SHL SUB SWAP1 SWAP8 AND PUSH1 0x0 SWAP1 DUP2 MSTORE PUSH1 0x20 SWAP8 SWAP1 SWAP8 MSTORE POP POP PUSH1 0x40 SWAP1 SWAP5 KECCAK256 SLOAD PUSH2 0xFFFF DUP2 AND SWAP6 PUSH4 0xFFFFFFFF PUSH3 0x10000 DUP4 DIV DUP2 AND SWAP7 POP PUSH1 0x1 PUSH1 0x30 SHL DUP4 DIV AND SWAP5 POP PUSH1 0xFF PUSH1 0x1 PUSH1 0x50 SHL DUP4 DIV AND SWAP4 POP PUSH1 0x1 PUSH1 0x58 SHL SWAP1 SWAP2 DIV PUSH1 0xD8 SHL SWAP2 POP JUMP JUMPDEST PUSH2 0x1767 PUSH2 0x3A4F JUMP JUMPDEST PUSH2 0x8D6 DUP3 PUSH1 0x1 PUSH2 0x222A JUMP JUMPDEST PUSH1 0x0 DUP1 DUP3 SGT ISZERO PUSH2 0x178E JUMPI PUSH2 0x1787 DUP5 DUP5 DUP5 PUSH2 0x22D8 JUMP JUMPDEST SWAP2 POP PUSH2 0x180F JUMP JUMPDEST PUSH1 0x3 DUP5 PUSH1 0x60 ADD MLOAD PUSH1 0x4 DUP2 GT ISZERO PUSH2 0x17A0 JUMPI INVALID JUMPDEST EQ ISZERO PUSH2 0x17FA JUMPI PUSH1 0x0 DUP3 SGT ISZERO PUSH2 0x17B4 JUMPI PUSH1 0x0 DUP1 REVERT JUMPDEST DUP3 PUSH1 0x1 PUSH1 0x1 PUSH1 0xA0 SHL SUB DUP2 AND PUSH2 0x8FC PUSH2 0x17CB DUP6 PUSH2 0x8C8 JUMP JUMPDEST PUSH1 0x40 MLOAD DUP2 ISZERO SWAP1 SWAP3 MUL SWAP2 PUSH1 0x0 DUP2 DUP2 DUP2 DUP6 DUP9 DUP9 CALL SWAP4 POP POP POP POP ISZERO DUP1 ISZERO PUSH2 0x17F3 JUMPI RETURNDATASIZE PUSH1 0x0 DUP1 RETURNDATACOPY RETURNDATASIZE PUSH1 0x0 REVERT JUMPDEST POP POP PUSH2 0x180F JUMP JUMPDEST DUP4 MLOAD PUSH2 0x180F SWAP1 DUP5 PUSH2 0x180A DUP6 PUSH2 0x8C8 JUMP JUMPDEST PUSH2 0x2475 JUMP JUMPDEST POP SWAP3 SWAP2 POP POP JUMP JUMPDEST PUSH2 0x181E PUSH2 0x3A4F JUMP JUMPDEST PUSH2 0x8D6 DUP3 PUSH1 0x0 PUSH2 0x222A JUMP JUMPDEST PUSH1 0x0 DUP1 DUP4 PUSH1 0x0 ADD MLOAD PUSH1 0x1 PUSH1 0x1 PUSH1 0xA0 SHL SUB AND PUSH4 0x70A08231 ADDRESS PUSH1 0x40 MLOAD DUP3 PUSH4 0xFFFFFFFF AND PUSH1 0xE0 SHL DUP2 MSTORE PUSH1 0x4 ADD PUSH2 0x185C SWAP2 SWAP1 PUSH2 0x3E7B JUMP JUMPDEST PUSH1 0x20 PUSH1 0x40 MLOAD DUP1 DUP4 SUB DUP2 DUP7 DUP1 EXTCODESIZE ISZERO DUP1 ISZERO PUSH2 0x1874 JUMPI PUSH1 0x0 DUP1 REVERT JUMPDEST POP GAS STATICCALL ISZERO DUP1 ISZERO PUSH2 0x1888 JUMPI RETURNDATASIZE PUSH1 0x0 DUP1 RETURNDATACOPY RETURNDATASIZE PUSH1 0x0 REVERT JUMPDEST POP POP POP POP PUSH1 0x40 MLOAD RETURNDATASIZE PUSH1 0x1F NOT PUSH1 0x1F DUP3 ADD AND DUP3 ADD DUP1 PUSH1 0x40 MSTORE POP DUP2 ADD SWAP1 PUSH2 0x18AC SWAP2 SWAP1 PUSH2 0x3E63 JUMP JUMPDEST SWAP1 POP PUSH1 0x0 PUSH1 0x1 DUP6 PUSH1 0x60 ADD MLOAD PUSH1 0x4 DUP2 GT ISZERO PUSH2 0x18C2 JUMPI INVALID JUMPDEST EQ ISZERO PUSH2 0x1950 JUMPI DUP5 MLOAD PUSH1 0x40 MLOAD PUSH4 0x140E25AD PUSH1 0xE3 SHL DUP2 MSTORE PUSH1 0x1 PUSH1 0x1 PUSH1 0xA0 SHL SUB SWAP1 SWAP2 AND SWAP1 PUSH4 0xA0712D68 SWAP1 PUSH2 0x18F7 SWAP1 DUP8 SWAP1 PUSH1 0x4 ADD PUSH2 0x3F43 JUMP JUMPDEST PUSH1 0x20 PUSH1 0x40 MLOAD DUP1 DUP4 SUB DUP2 PUSH1 0x0 DUP8 DUP1 EXTCODESIZE ISZERO DUP1 ISZERO PUSH2 0x1911 JUMPI PUSH1 0x0 DUP1 REVERT JUMPDEST POP GAS CALL ISZERO DUP1 ISZERO PUSH2 0x1925 JUMPI RETURNDATASIZE PUSH1 0x0 DUP1 RETURNDATACOPY RETURNDATASIZE PUSH1 0x0 REVERT JUMPDEST POP POP POP POP PUSH1 0x40 MLOAD RETURNDATASIZE PUSH1 0x1F NOT PUSH1 0x1F DUP3 ADD AND DUP3 ADD DUP1 PUSH1 0x40 MSTORE POP DUP2 ADD SWAP1 PUSH2 0x1949 SWAP2 SWAP1 PUSH2 0x3E63 JUMP JUMPDEST SWAP1 POP PUSH2 0x19C1 JUMP JUMPDEST PUSH1 0x2 DUP6 PUSH1 0x60 ADD MLOAD PUSH1 0x4 DUP2 GT ISZERO PUSH2 0x1962 JUMPI INVALID JUMPDEST EQ ISZERO PUSH2 0x86 JUMPI DUP5 PUSH1 0x0 ADD MLOAD PUSH1 0x1 PUSH1 0x1 PUSH1 0xA0 SHL SUB AND PUSH4 0x1249C58B CALLVALUE PUSH1 0x40 MLOAD DUP3 PUSH4 0xFFFFFFFF AND PUSH1 0xE0 SHL DUP2 MSTORE PUSH1 0x4 ADD PUSH1 0x0 PUSH1 0x40 MLOAD DUP1 DUP4 SUB DUP2 DUP6 DUP9 DUP1 EXTCODESIZE ISZERO DUP1 ISZERO PUSH2 0x19A7 JUMPI PUSH1 0x0 DUP1 REVERT JUMPDEST POP GAS CALL ISZERO DUP1 ISZERO PUSH2 0x19BB JUMPI RETURNDATASIZE PUSH1 0x0 DUP1 RETURNDATACOPY RETURNDATASIZE PUSH1 0x0 REVERT JUMPDEST POP POP POP POP POP JUMPDEST DUP1 ISZERO PUSH2 0x19DF JUMPI PUSH1 0x40 MLOAD PUSH3 0x461BCD PUSH1 0xE5 SHL DUP2 MSTORE PUSH1 0x4 ADD PUSH2 0x1E2 SWAP1 PUSH2 0x3F5C JUMP JUMPDEST DUP5 MLOAD PUSH1 0x40 MLOAD PUSH4 0x70A08231 PUSH1 0xE0 SHL DUP2 MSTORE PUSH1 0x0 SWAP2 PUSH1 0x1 PUSH1 0x1 PUSH1 0xA0 SHL SUB AND SWAP1 PUSH4 0x70A08231 SWAP1 PUSH2 0x1A0F SWAP1 ADDRESS SWAP1 PUSH1 0x4 ADD PUSH2 0x3E7B JUMP JUMPDEST PUSH1 0x20 PUSH1 0x40 MLOAD DUP1 DUP4 SUB DUP2 DUP7 DUP1 EXTCODESIZE ISZERO DUP1 ISZERO PUSH2 0x1A27 JUMPI PUSH1 0x0 DUP1 REVERT JUMPDEST POP GAS STATICCALL ISZERO DUP1 ISZERO PUSH2 0x1A3B JUMPI RETURNDATASIZE PUSH1 0x0 DUP1 RETURNDATACOPY RETURNDATASIZE PUSH1 0x0 REVERT JUMPDEST POP POP POP POP PUSH1 0x40 MLOAD RETURNDATASIZE PUSH1 0x1F NOT PUSH1 0x1F DUP3 ADD AND DUP3 ADD DUP1 PUSH1 0x40 MSTORE POP DUP2 ADD SWAP1 PUSH2 0x1A5F SWAP2 SWAP1 PUSH2 0x3E63 JUMP JUMPDEST SWAP1 POP PUSH2 0x13C7 PUSH2 0x1A6E DUP3 DUP6 PUSH2 0x24DD JUMP JUMPDEST PUSH2 0xD54 JUMP JUMPDEST PUSH1 0x0 PUSH4 0x5F5E100 DUP4 PUSH1 0x40 ADD MLOAD EQ ISZERO PUSH2 0x1A8C JUMPI POP DUP1 PUSH2 0x8D6 JUMP JUMPDEST PUSH1 0x40 DUP4 ADD MLOAD PUSH2 0xE70 SWAP1 PUSH2 0x1AA3 DUP5 PUSH4 0x5F5E100 PUSH2 0x121D JUMP JUMPDEST SWAP1 PUSH2 0x253A JUMP JUMPDEST PUSH1 0x60 ADD MLOAD PUSH2 0xFFFF AND ISZERO ISZERO SWAP1 JUMP JUMPDEST PUSH2 0x1ABF DUP3 PUSH2 0x1AA9 JUMP JUMPDEST PUSH2 0x1AC8 JUMPI PUSH1 0x0 DUP1 REVERT JUMPDEST PUSH1 0x60 DUP3 ADD MLOAD PUSH2 0xFFFF AND PUSH1 0x0 JUMPDEST DUP3 MLOAD DUP2 LT ISZERO PUSH2 0x1B77 JUMPI PUSH1 0x0 DUP4 DUP3 DUP2 MLOAD DUP2 LT PUSH2 0x1AEB JUMPI INVALID JUMPDEST PUSH1 0x20 MUL PUSH1 0x20 ADD ADD MLOAD SWAP1 POP DUP1 PUSH1 0x60 ADD MLOAD PUSH1 0x0 EQ ISZERO PUSH2 0x1B08 JUMPI POP PUSH2 0x1B6F JUMP JUMPDEST DUP1 MLOAD DUP4 EQ PUSH2 0x1B15 JUMPI PUSH1 0x0 DUP1 REVERT JUMPDEST PUSH1 0x40 DUP2 ADD MLOAD PUSH1 0x1 EQ PUSH2 0x1B26 JUMPI PUSH1 0x0 DUP1 REVERT JUMPDEST PUSH1 0x0 PUSH2 0x1B48 DUP8 DUP6 DUP5 PUSH1 0x20 ADD MLOAD DUP10 PUSH1 0x0 ADD MLOAD PUSH5 0xFFFFFFFFFF AND DUP7 PUSH1 0x60 ADD MLOAD PUSH2 0x256B JUMP JUMPDEST SWAP1 POP PUSH1 0x0 DUP2 SLT ISZERO PUSH2 0x1B6C JUMPI PUSH1 0x20 DUP7 ADD DUP1 MLOAD PUSH1 0x1 PUSH1 0xF8 SHL OR PUSH1 0x1 PUSH1 0x1 PUSH1 0xF8 SHL SUB NOT AND SWAP1 MSTORE JUMPDEST POP POP JUMPDEST PUSH1 0x1 ADD PUSH2 0x1AD4 JUMP JUMPDEST POP POP POP POP POP JUMP JUMPDEST PUSH2 0x1B86 PUSH2 0x3A7E JUMP JUMPDEST PUSH2 0x1B8E PUSH2 0x3A7E JUMP JUMPDEST PUSH1 0xFF DUP5 AND PUSH2 0x1B9D JUMPI SWAP1 POP PUSH2 0xE70 JUMP JUMPDEST PUSH2 0x1BA7 DUP6 DUP6 PUSH2 0x26D5 JUMP JUMPDEST DUP2 MSTORE PUSH1 0xFF DUP5 AND PUSH1 0x60 DUP3 ADD MSTORE DUP3 PUSH8 0xFFFFFFFFFFFFFFFF DUP2 GT DUP1 ISZERO PUSH2 0x1BC9 JUMPI PUSH1 0x0 DUP1 REVERT JUMPDEST POP PUSH1 0x40 MLOAD SWAP1 DUP1 DUP3 MSTORE DUP1 PUSH1 0x20 MUL PUSH1 0x20 ADD DUP3 ADD PUSH1 0x40 MSTORE DUP1 ISZERO PUSH2 0x1C03 JUMPI DUP2 PUSH1 0x20 ADD JUMPDEST PUSH2 0x1BF0 PUSH2 0x3AA6 JUMP JUMPDEST DUP2 MSTORE PUSH1 0x20 ADD SWAP1 PUSH1 0x1 SWAP1 SUB SWAP1 DUP2 PUSH2 0x1BE8 JUMPI SWAP1 POP JUMPDEST POP PUSH1 0x20 DUP3 ADD MSTORE SWAP5 SWAP4 POP POP POP POP JUMP JUMPDEST PUSH1 0x0 JUMPDEST DUP2 MLOAD DUP2 LT ISZERO PUSH2 0x6AA JUMPI PUSH1 0x0 DUP3 DUP3 DUP2 MLOAD DUP2 LT PUSH2 0x1C2B JUMPI INVALID JUMPDEST PUSH1 0x20 MUL PUSH1 0x20 ADD ADD MLOAD SWAP1 POP DUP1 PUSH1 0x60 ADD MLOAD PUSH1 0x0 EQ ISZERO PUSH2 0x1C48 JUMPI POP PUSH2 0x1C67 JUMP JUMPDEST PUSH2 0x1C65 DUP5 DUP3 PUSH1 0x0 ADD MLOAD DUP4 PUSH1 0x20 ADD MLOAD DUP5 PUSH1 0x40 ADD MLOAD DUP6 PUSH1 0x60 ADD MLOAD PUSH2 0x26FE JUMP JUMPDEST POP JUMPDEST PUSH1 0x1 ADD PUSH2 0x1C14 JUMP JUMPDEST PUSH1 0x0 DUP1 DUP1 DUP1 PUSH2 0x1C7E DUP7 DUP9 PUSH2 0x27FB JUMP JUMPDEST PUSH5 0xFFFFFFFFFF DUP2 AND DUP13 MSTORE SWAP3 SWAP7 POP SWAP1 SWAP5 POP SWAP3 POP SWAP1 POP PUSH2 0x1C9B DUP9 PUSH2 0x10B3 JUMP JUMPDEST ISZERO PUSH2 0x1CA5 JUMPI PUSH1 0x0 DUP1 REVERT JUMPDEST PUSH1 0xFF DUP3 AND PUSH1 0x40 DUP10 ADD MSTORE DUP5 PUSH2 0x1CC4 JUMPI PUSH1 0x7 PUSH1 0xFF DUP4 AND GT ISZERO PUSH2 0x1CC4 JUMPI PUSH1 0x0 DUP1 REVERT JUMPDEST DUP4 ISZERO PUSH2 0x1CE7 JUMPI PUSH1 0x20 DUP9 ADD DUP1 MLOAD PUSH1 0x1 PUSH1 0xF8 SHL OR PUSH1 0x1 PUSH1 0x1 PUSH1 0xF8 SHL SUB NOT AND SWAP1 MSTORE PUSH2 0x1CF6 JUMP JUMPDEST PUSH1 0x20 DUP9 ADD DUP1 MLOAD PUSH1 0x7F PUSH1 0xF9 SHL AND SWAP1 MSTORE JUMPDEST PUSH2 0x1D03 DUP9 PUSH1 0x80 ADD MLOAD PUSH2 0x2A3A JUMP JUMPDEST PUSH1 0x1 PUSH1 0x1 PUSH1 0x70 SHL SUB NOT AND PUSH1 0x80 DUP10 ADD MSTORE PUSH1 0x0 JUMPDEST DUP4 ISZERO PUSH2 0x1D46 JUMPI PUSH1 0xF0 DUP5 SWAP1 SHR DUP2 DUP2 EQ PUSH2 0x1D38 JUMPI PUSH2 0x1D38 DUP11 DUP3 PUSH1 0x1 PUSH1 0x1 PUSH1 0xFF SHL PUSH2 0x14E9 JUMP JUMPDEST PUSH1 0x10 SWAP5 SWAP1 SWAP5 SHL SWAP4 SWAP1 POP PUSH2 0x1D15 JUMP JUMPDEST POP POP POP POP POP POP POP POP POP JUMP JUMPDEST PUSH1 0x0 DUP1 PUSH2 0x1D5C PUSH2 0x2AB5 JUMP JUMPDEST PUSH1 0x1 PUSH1 0x1 PUSH1 0xA0 SHL SUB DUP6 AND PUSH1 0x0 SWAP1 DUP2 MSTORE PUSH1 0x20 SWAP2 DUP3 MSTORE PUSH1 0x40 DUP1 DUP3 KECCAK256 DUP7 DUP4 MSTORE SWAP1 SWAP3 MSTORE KECCAK256 SLOAD SWAP2 POP POP SWAP3 SWAP2 POP POP JUMP JUMPDEST PUSH1 0x0 PUSH3 0x15180 DUP3 LT ISZERO PUSH2 0x1D98 JUMPI PUSH1 0x0 DUP1 REVERT JUMPDEST POP PUSH3 0x15180 DUP2 MOD SWAP1 SUB SWAP1 JUMP JUMPDEST PUSH1 0x0 DUP1 PUSH2 0x8D6 PUSH1 0x6 PUSH2 0x2204 JUMP JUMPDEST PUSH1 0x8 DUP2 SWAP1 SHR PUSH1 0xFF SWAP1 SWAP2 AND SHL SWAP1 JUMP JUMPDEST PUSH1 0x0 PUSH4 0x5F5E100 DUP4 PUSH1 0x40 ADD MLOAD EQ ISZERO PUSH2 0x1DD8 JUMPI POP DUP1 PUSH2 0x8D6 JUMP JUMPDEST PUSH2 0xE70 PUSH4 0x5F5E100 PUSH2 0x1AA3 DUP6 PUSH1 0x40 ADD MLOAD DUP6 PUSH2 0x121D SWAP1 SWAP2 SWAP1 PUSH4 0xFFFFFFFF AND JUMP JUMPDEST PUSH1 0x0 DUP1 PUSH1 0x2 DUP6 PUSH1 0x60 ADD MLOAD PUSH1 0x4 DUP2 GT ISZERO PUSH2 0x1E0C JUMPI INVALID JUMPDEST EQ ISZERO PUSH2 0x1E19 JUMPI POP SELFBALANCE PUSH2 0x1EB3 JUMP JUMPDEST PUSH1 0x1 DUP6 PUSH1 0x60 ADD MLOAD PUSH1 0x4 DUP2 GT ISZERO PUSH2 0x1E2B JUMPI INVALID JUMPDEST EQ ISZERO PUSH2 0x86 JUMPI DUP4 MLOAD PUSH1 0x40 MLOAD PUSH4 0x70A08231 PUSH1 0xE0 SHL DUP2 MSTORE PUSH1 0x1 PUSH1 0x1 PUSH1 0xA0 SHL SUB SWAP1 SWAP2 AND SWAP1 PUSH4 0x70A08231 SWAP1 PUSH2 0x1E60 SWAP1 ADDRESS SWAP1 PUSH1 0x4 ADD PUSH2 0x3E7B JUMP JUMPDEST PUSH1 0x20 PUSH1 0x40 MLOAD DUP1 DUP4 SUB DUP2 DUP7 DUP1 EXTCODESIZE ISZERO DUP1 ISZERO PUSH2 0x1E78 JUMPI PUSH1 0x0 DUP1 REVERT JUMPDEST POP GAS STATICCALL ISZERO DUP1 ISZERO PUSH2 0x1E8C JUMPI RETURNDATASIZE PUSH1 0x0 DUP1 RETURNDATACOPY RETURNDATASIZE PUSH1 0x0 REVERT JUMPDEST POP POP POP POP PUSH1 0x40 MLOAD RETURNDATASIZE PUSH1 0x1F NOT PUSH1 0x1F DUP3 ADD AND DUP3 ADD DUP1 PUSH1 0x40 MSTORE POP DUP2 ADD SWAP1 PUSH2 0x1EB0 SWAP2 SWAP1 PUSH2 0x3E63 JUMP JUMPDEST SWAP1 POP JUMPDEST DUP5 MLOAD PUSH1 0x40 MLOAD PUSH4 0xDB006A75 PUSH1 0xE0 SHL DUP2 MSTORE PUSH1 0x0 SWAP2 PUSH1 0x1 PUSH1 0x1 PUSH1 0xA0 SHL SUB AND SWAP1 PUSH4 0xDB006A75 SWAP1 PUSH2 0x1EE3 SWAP1 DUP8 SWAP1 PUSH1 0x4 ADD PUSH2 0x3F43 JUMP JUMPDEST PUSH1 0x20 PUSH1 0x40 MLOAD DUP1 DUP4 SUB DUP2 PUSH1 0x0 DUP8 DUP1 EXTCODESIZE ISZERO DUP1 ISZERO PUSH2 0x1EFD JUMPI PUSH1 0x0 DUP1 REVERT JUMPDEST POP GAS CALL ISZERO DUP1 ISZERO PUSH2 0x1F11 JUMPI RETURNDATASIZE PUSH1 0x0 DUP1 RETURNDATACOPY RETURNDATASIZE PUSH1 0x0 REVERT JUMPDEST POP POP POP POP PUSH1 0x40 MLOAD RETURNDATASIZE PUSH1 0x1F NOT PUSH1 0x1F DUP3 ADD AND DUP3 ADD DUP1 PUSH1 0x40 MSTORE POP DUP2 ADD SWAP1 PUSH2 0x1F35 SWAP2 SWAP1 PUSH2 0x3E63 JUMP JUMPDEST SWAP1 POP DUP1 ISZERO PUSH2 0x1F55 JUMPI PUSH1 0x40 MLOAD PUSH3 0x461BCD PUSH1 0xE5 SHL DUP2 MSTORE PUSH1 0x4 ADD PUSH2 0x1E2 SWAP1 PUSH2 0x3F9F JUMP JUMPDEST PUSH1 0x0 PUSH1 0x2 DUP8 PUSH1 0x60 ADD MLOAD PUSH1 0x4 DUP2 GT ISZERO PUSH2 0x1F69 JUMPI INVALID JUMPDEST EQ ISZERO PUSH2 0x1F76 JUMPI POP SELFBALANCE PUSH2 0x1FF8 JUMP JUMPDEST DUP6 MLOAD PUSH1 0x40 MLOAD PUSH4 0x70A08231 PUSH1 0xE0 SHL DUP2 MSTORE PUSH1 0x1 PUSH1 0x1 PUSH1 0xA0 SHL SUB SWAP1 SWAP2 AND SWAP1 PUSH4 0x70A08231 SWAP1 PUSH2 0x1FA5 SWAP1 ADDRESS SWAP1 PUSH1 0x4 ADD PUSH2 0x3E7B JUMP JUMPDEST PUSH1 0x20 PUSH1 0x40 MLOAD DUP1 DUP4 SUB DUP2 DUP7 DUP1 EXTCODESIZE ISZERO DUP1 ISZERO PUSH2 0x1FBD JUMPI PUSH1 0x0 DUP1 REVERT JUMPDEST POP GAS STATICCALL ISZERO DUP1 ISZERO PUSH2 0x1FD1 JUMPI RETURNDATASIZE PUSH1 0x0 DUP1 RETURNDATACOPY RETURNDATASIZE PUSH1 0x0 REVERT JUMPDEST POP POP POP POP PUSH1 0x40 MLOAD RETURNDATASIZE PUSH1 0x1F NOT PUSH1 0x1F DUP3 ADD AND DUP3 ADD DUP1 PUSH1 0x40 MSTORE POP DUP2 ADD SWAP1 PUSH2 0x1FF5 SWAP2 SWAP1 PUSH2 0x3E63 JUMP JUMPDEST SWAP1 POP JUMPDEST PUSH2 0x2005 PUSH2 0x1A6E DUP3 DUP6 PUSH2 0x24DD JUMP JUMPDEST SWAP8 SWAP7 POP POP POP POP POP POP POP JUMP JUMPDEST PUSH1 0x0 DUP1 PUSH2 0x201B PUSH2 0x2AC2 JUMP JUMPDEST PUSH1 0x0 SWAP4 DUP5 MSTORE PUSH1 0x20 MSTORE POP POP PUSH1 0x40 SWAP1 KECCAK256 SLOAD PUSH1 0x1 PUSH1 0x1 PUSH1 0xA0 SHL SUB AND SWAP1 JUMP JUMPDEST PUSH1 0x0 DUP1 PUSH1 0x0 PUSH2 0x2045 DUP7 DUP6 PUSH2 0x2ACF JUMP JUMPDEST POP SWAP2 POP SWAP2 POP DUP5 PUSH1 0x0 EQ PUSH2 0x2107 JUMPI PUSH1 0x0 PUSH2 0x205E DUP4 DUP8 PUSH2 0x126B JUMP JUMPDEST SWAP1 POP PUSH1 0x0 DUP2 SLT ISZERO DUP1 ISZERO PUSH2 0x2077 JUMPI POP PUSH1 0x1 PUSH1 0x1 PUSH1 0x60 SHL SUB DUP2 LT JUMPDEST PUSH2 0x2080 JUMPI PUSH1 0x0 DUP1 REVERT JUMPDEST PUSH1 0x0 PUSH2 0x208A PUSH2 0x2B3B JUMP JUMPDEST PUSH1 0x1 PUSH1 0x1 PUSH1 0xA0 SHL SUB DUP10 AND PUSH1 0x0 SWAP1 DUP2 MSTORE PUSH1 0x20 SWAP2 SWAP1 SWAP2 MSTORE PUSH1 0x40 SWAP1 KECCAK256 DUP1 SLOAD PUSH12 0xFFFFFFFFFFFFFFFFFFFFFFFF NOT AND PUSH1 0x1 PUSH1 0x1 PUSH1 0x60 SHL SUB SWAP4 SWAP1 SWAP4 AND SWAP3 SWAP1 SWAP3 OR PUSH16 0xFFFFFFFFFFFFFFFFFFFFFFFFFFFFFFFF PUSH1 0x60 SHL NOT AND PUSH1 0x1 PUSH1 0x60 SHL PUSH1 0x1 PUSH1 0x1 PUSH1 0x80 SHL SUB DUP6 AND MUL OR PUSH1 0x1 PUSH1 0x1 PUSH1 0xE0 SHL SUB AND PUSH1 0x1 PUSH1 0xE0 SHL PUSH4 0xFFFFFFFF DUP9 AND MUL OR SWAP1 SWAP2 SSTORE POP JUMPDEST SWAP6 SWAP5 POP POP POP POP POP JUMP JUMPDEST PUSH1 0x0 DUP5 ISZERO DUP1 PUSH2 0x211F JUMPI POP DUP3 DUP6 LT ISZERO JUMPDEST ISZERO PUSH2 0x212C JUMPI POP PUSH1 0x0 PUSH2 0x13C7 JUMP JUMPDEST PUSH1 0x0 PUSH2 0x2137 DUP9 PUSH2 0x16F6 JUMP JUMPDEST POP SWAP2 SWAP4 POP POP POP DUP7 DUP6 SUB SWAP1 POP PUSH1 0x0 PUSH2 0x215B DUP3 PUSH2 0x2156 DUP6 PUSH4 0x5F5E100 PUSH2 0x2B48 JUMP JUMPDEST PUSH2 0x2BA1 JUMP JUMPDEST SWAP1 POP PUSH1 0x0 PUSH2 0x2173 DUP4 PUSH2 0x216D DUP9 DUP12 PUSH2 0x24DD JUMP JUMPDEST SWAP1 PUSH2 0x2BC6 JUMP JUMPDEST SWAP1 POP DUP1 PUSH2 0x2187 JUMPI PUSH1 0x0 SWAP5 POP POP POP POP POP PUSH2 0x13C7 JUMP JUMPDEST PUSH1 0x0 PUSH2 0x2197 DUP3 PUSH2 0x216D DUP14 DUP7 PUSH2 0x2B48 JUMP JUMPDEST SWAP1 POP PUSH2 0x21A7 DUP2 PUSH4 0x5F5E100 PUSH2 0x2BC6 JUMP JUMPDEST SWAP13 SWAP12 POP POP POP POP POP POP POP POP POP POP POP POP JUMP JUMPDEST PUSH2 0xCAF PUSH20 0xCFEAEAD4947F0705A14EC42AC3D44129E1EF3ED5 DUP4 DUP4 PUSH2 0x2475 JUMP JUMPDEST PUSH1 0x0 DUP1 PUSH6 0xFFFFFFFFFFFF DUP4 GT ISZERO PUSH2 0x21F6 JUMPI PUSH1 0x2F PUSH2 0x21F2 DUP5 PUSH2 0x2C2D JUMP JUMPDEST SUB SWAP1 POP JUMPDEST DUP3 DUP2 SHR PUSH1 0x8 SHL OR SWAP1 POP SWAP2 SWAP1 POP JUMP JUMPDEST PUSH1 0x0 PUSH3 0xF4240 DUP3 PUSH1 0x10 DUP2 GT ISZERO PUSH2 0x2216 JUMPI INVALID JUMPDEST ADD SWAP3 SWAP2 POP POP JUMP JUMPDEST PUSH1 0x0 DUP1 PUSH2 0x8D6 PUSH1 0x2 PUSH2 0x2204 JUMP JUMPDEST PUSH2 0x2232 PUSH2 0x3A4F JUMP JUMPDEST PUSH1 0x0 PUSH2 0x223C PUSH2 0x2CC6 JUMP JUMPDEST PUSH1 0x0 DUP6 DUP2 MSTORE PUSH1 0x20 DUP3 DUP2 MSTORE PUSH1 0x40 DUP1 DUP4 KECCAK256 DUP8 ISZERO ISZERO DUP5 MSTORE DUP3 MSTORE SWAP2 DUP3 SWAP1 KECCAK256 DUP3 MLOAD PUSH1 0xA0 DUP2 ADD DUP5 MSTORE DUP2 SLOAD PUSH1 0x1 PUSH1 0x1 PUSH1 0xA0 SHL SUB DUP2 AND DUP3 MSTORE PUSH1 0xFF PUSH1 0x1 PUSH1 0xA0 SHL DUP3 DIV DUP2 AND ISZERO ISZERO SWAP5 DUP4 ADD SWAP5 SWAP1 SWAP5 MSTORE PUSH1 0x1 PUSH1 0xB0 SHL DUP2 DIV DUP5 AND PUSH1 0xA EXP SWAP5 DUP3 ADD SWAP5 SWAP1 SWAP5 MSTORE SWAP4 SWAP5 POP SWAP3 SWAP2 PUSH1 0x60 DUP4 ADD SWAP2 PUSH1 0x1 PUSH1 0xA8 SHL SWAP1 SWAP2 DIV AND PUSH1 0x4 DUP2 GT ISZERO PUSH2 0x22B1 JUMPI INVALID JUMPDEST DUP2 MSTORE SWAP2 SLOAD PUSH1 0x1 PUSH1 0xB8 SHL SWAP1 DIV PUSH9 0xFFFFFFFFFFFFFFFFFF AND PUSH1 0x20 SWAP1 SWAP3 ADD SWAP2 SWAP1 SWAP2 MSTORE SWAP5 SWAP4 POP POP POP POP JUMP JUMPDEST PUSH1 0x0 DUP1 PUSH1 0x0 DUP6 PUSH1 0x20 ADD MLOAD ISZERO PUSH2 0x2369 JUMPI DUP6 MLOAD PUSH1 0x40 MLOAD PUSH4 0x70A08231 PUSH1 0xE0 SHL DUP2 MSTORE PUSH1 0x1 PUSH1 0x1 PUSH1 0xA0 SHL SUB SWAP1 SWAP2 AND SWAP1 PUSH4 0x70A08231 SWAP1 PUSH2 0x2316 SWAP1 ADDRESS SWAP1 PUSH1 0x4 ADD PUSH2 0x3E7B JUMP JUMPDEST PUSH1 0x20 PUSH1 0x40 MLOAD DUP1 DUP4 SUB DUP2 DUP7 DUP1 EXTCODESIZE ISZERO DUP1 ISZERO PUSH2 0x232E JUMPI PUSH1 0x0 DUP1 REVERT JUMPDEST POP GAS STATICCALL ISZERO DUP1 ISZERO PUSH2 0x2342 JUMPI RETURNDATASIZE PUSH1 0x0 DUP1 RETURNDATACOPY RETURNDATASIZE PUSH1 0x0 REVERT JUMPDEST POP POP POP POP PUSH1 0x40 MLOAD RETURNDATASIZE PUSH1 0x1F NOT PUSH1 0x1F DUP3 ADD AND DUP3 ADD DUP1 PUSH1 0x40 MSTORE POP DUP2 ADD SWAP1 PUSH2 0x2366 SWAP2 SWAP1 PUSH2 0x3E63 JUMP JUMPDEST SWAP2 POP JUMPDEST DUP6 MLOAD PUSH2 0x2376 SWAP1 DUP7 DUP7 PUSH2 0x2CD3 JUMP JUMPDEST DUP6 PUSH1 0x20 ADD MLOAD DUP1 PUSH2 0x238A JUMPI POP PUSH1 0x0 DUP7 PUSH1 0x80 ADD MLOAD GT JUMPDEST ISZERO PUSH2 0x2411 JUMPI DUP6 MLOAD PUSH1 0x40 MLOAD PUSH4 0x70A08231 PUSH1 0xE0 SHL DUP2 MSTORE PUSH1 0x1 PUSH1 0x1 PUSH1 0xA0 SHL SUB SWAP1 SWAP2 AND SWAP1 PUSH4 0x70A08231 SWAP1 PUSH2 0x23BE SWAP1 ADDRESS SWAP1 PUSH1 0x4 ADD PUSH2 0x3E7B JUMP JUMPDEST PUSH1 0x20 PUSH1 0x40 MLOAD DUP1 DUP4 SUB DUP2 DUP7 DUP1 EXTCODESIZE ISZERO DUP1 ISZERO PUSH2 0x23D6 JUMPI PUSH1 0x0 DUP1 REVERT JUMPDEST POP GAS STATICCALL ISZERO DUP1 ISZERO PUSH2 0x23EA JUMPI RETURNDATASIZE PUSH1 0x0 DUP1 RETURNDATACOPY RETURNDATASIZE PUSH1 0x0 REVERT JUMPDEST POP POP POP POP PUSH1 0x40 MLOAD RETURNDATASIZE PUSH1 0x1F NOT PUSH1 0x1F DUP3 ADD AND DUP3 ADD DUP1 PUSH1 0x40 MSTORE POP DUP2 ADD SWAP1 PUSH2 0x240E SWAP2 SWAP1 PUSH2 0x3E63 JUMP JUMPDEST SWAP1 POP JUMPDEST PUSH1 0x80 DUP7 ADD MLOAD ISZERO PUSH2 0x244C JUMPI PUSH1 0x0 PUSH2 0x242F DUP8 PUSH2 0x242A DUP5 PUSH2 0xD54 JUMP JUMPDEST PUSH2 0x1A73 JUMP JUMPDEST SWAP1 POP PUSH2 0x243E DUP8 PUSH1 0x80 ADD MLOAD PUSH2 0xD54 JUMP JUMPDEST DUP2 SGT ISZERO PUSH2 0x244A JUMPI PUSH1 0x0 DUP1 REVERT JUMPDEST POP JUMPDEST DUP6 PUSH1 0x20 ADD MLOAD ISZERO PUSH2 0x246C JUMPI PUSH2 0x2463 PUSH2 0x1A6E DUP3 DUP5 PUSH2 0x24DD JUMP JUMPDEST SWAP3 POP POP POP PUSH2 0xE70 JUMP JUMPDEST PUSH2 0x2463 DUP5 PUSH2 0xD54 JUMP JUMPDEST PUSH1 0x40 MLOAD PUSH4 0xA9059CBB PUSH1 0xE0 SHL DUP2 MSTORE PUSH1 0x1 PUSH1 0x1 PUSH1 0xA0 SHL SUB DUP5 AND SWAP1 PUSH4 0xA9059CBB SWAP1 PUSH2 0x24A3 SWAP1 DUP6 SWAP1 DUP6 SWAP1 PUSH1 0x4 ADD PUSH2 0x3F1F JUMP JUMPDEST PUSH1 0x0 PUSH1 0x40 MLOAD DUP1 DUP4 SUB DUP2 PUSH1 0x0 DUP8 DUP1 EXTCODESIZE ISZERO DUP1 ISZERO PUSH2 0x24BD JUMPI PUSH1 0x0 DUP1 REVERT JUMPDEST POP GAS CALL ISZERO DUP1 ISZERO PUSH2 0x24D1 JUMPI RETURNDATASIZE PUSH1 0x0 DUP1 RETURNDATACOPY RETURNDATASIZE PUSH1 0x0 REVERT JUMPDEST POP POP POP POP PUSH2 0x6AA PUSH2 0x2D03 JUMP JUMPDEST PUSH1 0x0 DUP3 DUP3 GT ISZERO PUSH2 0x2534 JUMPI PUSH1 0x40 DUP1 MLOAD PUSH3 0x461BCD PUSH1 0xE5 SHL DUP2 MSTORE PUSH1 0x20 PUSH1 0x4 DUP3 ADD MSTORE PUSH1 0x1E PUSH1 0x24 DUP3 ADD MSTORE PUSH32 0x536166654D6174683A207375627472616374696F6E206F766572666C6F770000 PUSH1 0x44 DUP3 ADD MSTORE SWAP1 MLOAD SWAP1 DUP2 SWAP1 SUB PUSH1 0x64 ADD SWAP1 REVERT JUMPDEST POP SWAP1 SUB SWAP1 JUMP JUMPDEST PUSH1 0x0 DUP2 PUSH1 0x0 NOT EQ DUP1 ISZERO PUSH2 0x2550 JUMPI POP PUSH1 0x1 PUSH1 0xFF SHL DUP4 EQ JUMPDEST ISZERO PUSH2 0x255A JUMPI PUSH1 0x0 DUP1 REVERT JUMPDEST DUP2 DUP4 DUP2 PUSH2 0x2563 JUMPI INVALID JUMPDEST SDIV SWAP4 SWAP3 POP POP POP JUMP JUMPDEST PUSH1 0x0 DUP1 PUSH2 0x2578 DUP8 DUP8 PUSH2 0x1D51 JUMP JUMPDEST SWAP1 POP PUSH1 0x0 PUSH2 0x2584 PUSH2 0x2D53 JUMP JUMPDEST PUSH1 0x1 PUSH1 0x1 PUSH1 0xA0 SHL SUB DUP10 AND PUSH1 0x0 SWAP1 DUP2 MSTORE PUSH1 0x20 DUP3 DUP2 MSTORE PUSH1 0x40 DUP1 DUP4 KECCAK256 DUP12 DUP5 MSTORE DUP3 MSTORE DUP1 DUP4 KECCAK256 DUP11 DUP5 MSTORE SWAP1 SWAP2 MSTORE DUP2 KECCAK256 SWAP2 SWAP3 POP DUP1 PUSH2 0x25BB DUP9 DUP11 PUSH2 0x2D60 JUMP JUMPDEST SWAP2 POP SWAP2 POP DUP1 PUSH2 0x25C9 JUMPI PUSH1 0x0 DUP1 REVERT JUMPDEST PUSH2 0x25D3 DUP6 DUP4 PUSH2 0x2E6B JUMP JUMPDEST ISZERO PUSH2 0x2662 JUMPI DUP3 SLOAD PUSH1 0x0 SWAP1 PUSH2 0x25EF SWAP1 DUP10 SWAP1 PUSH1 0xF SWAP1 DUP2 SIGNEXTEND SWAP1 SIGNEXTEND PUSH2 0x126B JUMP JUMPDEST SWAP1 POP PUSH1 0x1 PUSH1 0x1 PUSH1 0x7F SHL SUB NOT DUP2 SLT DUP1 ISZERO SWAP1 PUSH2 0x2610 JUMPI POP PUSH1 0x1 PUSH1 0x1 PUSH1 0x7F SHL SUB DUP2 SGT ISZERO JUMPDEST PUSH2 0x2619 JUMPI PUSH1 0x0 DUP1 REVERT JUMPDEST DUP4 SLOAD PUSH1 0x1 PUSH1 0x1 PUSH1 0x80 SHL SUB NOT AND PUSH1 0x1 PUSH1 0x1 PUSH1 0x80 SHL SUB PUSH1 0xF DUP4 SWAP1 SIGNEXTEND AND OR DUP5 SSTORE DUP1 PUSH2 0x264A JUMPI PUSH2 0x2647 DUP7 DUP5 PUSH1 0x0 PUSH2 0x2E9B JUMP JUMPDEST SWAP6 POP JUMPDEST PUSH2 0x2655 DUP13 DUP13 DUP9 PUSH2 0x2EE6 JUMP JUMPDEST SWAP6 POP PUSH2 0x2107 SWAP5 POP POP POP POP POP JUMP JUMPDEST DUP7 ISZERO PUSH2 0x26C6 JUMPI PUSH1 0x1 PUSH1 0x1 PUSH1 0x7F SHL SUB NOT DUP8 SLT DUP1 ISZERO SWAP1 PUSH2 0x2687 JUMPI POP PUSH1 0x1 PUSH1 0x1 PUSH1 0x7F SHL SUB DUP8 SGT ISZERO JUMPDEST PUSH2 0x2690 JUMPI PUSH1 0x0 DUP1 REVERT JUMPDEST DUP3 SLOAD PUSH1 0x1 PUSH1 0x1 PUSH1 0x80 SHL SUB NOT AND PUSH1 0x1 PUSH1 0x1 PUSH1 0x80 SHL SUB PUSH1 0xF DUP10 SWAP1 SIGNEXTEND AND OR DUP4 SSTORE PUSH2 0x26B9 DUP6 DUP4 PUSH1 0x1 PUSH2 0x2E9B JUMP JUMPDEST SWAP5 POP PUSH2 0x26C6 DUP12 DUP12 DUP8 PUSH2 0x2EE6 JUMP JUMPDEST POP SWAP5 SWAP10 SWAP9 POP POP POP POP POP POP POP POP POP JUMP JUMPDEST PUSH1 0x60 PUSH1 0x0 PUSH2 0x26E3 DUP5 DUP5 PUSH2 0x2F40 JUMP JUMPDEST SWAP1 POP PUSH1 0x1 DUP2 MLOAD GT PUSH2 0x26F5 JUMPI SWAP1 POP PUSH2 0x8D6 JUMP JUMPDEST PUSH2 0xE70 DUP2 PUSH2 0x3062 JUMP JUMPDEST DUP5 MLOAD PUSH2 0x270D SWAP1 DUP6 DUP6 DUP6 DUP6 PUSH2 0x321B JUMP JUMPDEST ISZERO PUSH2 0x2717 JUMPI PUSH2 0x1B77 JUMP JUMPDEST PUSH1 0x40 DUP6 ADD MLOAD ISZERO PUSH2 0x2744 JUMPI PUSH1 0x0 PUSH2 0x2734 DUP7 PUSH1 0x20 ADD MLOAD DUP7 DUP7 DUP7 DUP7 PUSH2 0x321B JUMP JUMPDEST SWAP1 POP DUP1 ISZERO PUSH2 0x2742 JUMPI POP PUSH2 0x1B77 JUMP JUMPDEST POP JUMPDEST PUSH2 0x274D DUP3 PUSH2 0x332C JUMP JUMPDEST ISZERO PUSH2 0x2760 JUMPI PUSH1 0x0 DUP2 SLT ISZERO PUSH2 0x2760 JUMPI PUSH1 0x0 DUP1 REVERT JUMPDEST PUSH1 0x1 PUSH1 0x1 PUSH1 0x57 SHL SUB NOT DUP2 SLT DUP1 ISZERO SWAP1 PUSH2 0x277F JUMPI POP PUSH1 0x1 PUSH1 0x1 PUSH1 0x57 SHL SUB DUP2 SGT ISZERO JUMPDEST PUSH2 0x2788 JUMPI PUSH1 0x0 DUP1 REVERT JUMPDEST DUP5 PUSH1 0x20 ADD MLOAD MLOAD DUP6 PUSH1 0x40 ADD MLOAD EQ ISZERO PUSH2 0x27AC JUMPI PUSH2 0x27A6 DUP6 PUSH1 0x20 ADD MLOAD PUSH2 0x3342 JUMP JUMPDEST PUSH1 0x20 DUP7 ADD MSTORE JUMPDEST PUSH1 0x0 DUP6 PUSH1 0x20 ADD MLOAD DUP7 PUSH1 0x40 ADD MLOAD DUP2 MLOAD DUP2 LT PUSH2 0x27C2 JUMPI INVALID JUMPDEST PUSH1 0x20 SWAP1 DUP2 MUL SWAP2 SWAP1 SWAP2 ADD DUP2 ADD MLOAD SWAP6 DUP7 MSTORE DUP6 ADD SWAP4 SWAP1 SWAP4 MSTORE PUSH1 0x40 DUP1 DUP6 ADD SWAP3 SWAP1 SWAP3 MSTORE PUSH1 0x60 DUP5 ADD MSTORE PUSH1 0x0 PUSH1 0xA0 SWAP1 SWAP4 ADD SWAP3 SWAP1 SWAP3 MSTORE POP ADD DUP1 MLOAD PUSH1 0x1 ADD SWAP1 MSTORE JUMP JUMPDEST PUSH1 0x0 DUP1 DUP1 DUP1 DUP1 DUP1 DUP1 DUP1 JUMPDEST DUP10 MLOAD MLOAD DUP2 LT ISZERO PUSH2 0x288C JUMPI PUSH1 0x0 DUP11 PUSH1 0x0 ADD MLOAD DUP3 DUP2 MLOAD DUP2 LT PUSH2 0x2821 JUMPI INVALID JUMPDEST PUSH1 0x20 MUL PUSH1 0x20 ADD ADD MLOAD SWAP1 POP PUSH1 0x3 DUP1 DUP2 GT ISZERO PUSH2 0x2837 JUMPI INVALID JUMPDEST DUP2 PUSH1 0xA0 ADD MLOAD PUSH1 0x3 DUP2 GT ISZERO PUSH2 0x2847 JUMPI INVALID JUMPDEST EQ ISZERO PUSH2 0x2852 JUMPI PUSH1 0x0 DUP1 REVERT JUMPDEST PUSH1 0x2 DUP2 PUSH1 0xA0 ADD MLOAD PUSH1 0x3 DUP2 GT ISZERO PUSH2 0x2864 JUMPI INVALID JUMPDEST EQ ISZERO DUP1 ISZERO PUSH2 0x2874 JUMPI POP PUSH1 0x60 DUP2 ADD MLOAD ISZERO JUMPDEST ISZERO PUSH2 0x2883 JUMPI PUSH2 0x2883 DUP12 DUP4 PUSH2 0x33FB JUMP JUMPDEST POP PUSH1 0x1 ADD PUSH2 0x2805 JUMP JUMPDEST POP PUSH1 0x0 JUMPDEST DUP10 MLOAD MLOAD DUP2 LT ISZERO PUSH2 0x292F JUMPI PUSH1 0x0 DUP11 PUSH1 0x0 ADD MLOAD DUP3 DUP2 MLOAD DUP2 LT PUSH2 0x28AC JUMPI INVALID JUMPDEST PUSH1 0x20 MUL PUSH1 0x20 ADD ADD MLOAD SWAP1 POP PUSH1 0x2 PUSH1 0x3 DUP2 GT ISZERO PUSH2 0x28C3 JUMPI INVALID JUMPDEST DUP2 PUSH1 0xA0 ADD MLOAD PUSH1 0x3 DUP2 GT ISZERO PUSH2 0x28D3 JUMPI INVALID JUMPDEST EQ ISZERO PUSH2 0x28E7 JUMPI PUSH1 0x80 DUP2 ADD MLOAD PUSH1 0x0 SWAP1 SSTORE PUSH2 0x2926 JUMP JUMPDEST PUSH1 0x1 DUP2 PUSH1 0xA0 ADD MLOAD PUSH1 0x3 DUP2 GT ISZERO PUSH2 0x28F9 JUMPI INVALID JUMPDEST EQ ISZERO PUSH2 0x2912 JUMPI PUSH1 0x80 DUP2 ADD MLOAD DUP1 PUSH2 0x290F DUP4 DUP3 PUSH2 0x354A JUMP JUMPDEST POP POP JUMPDEST PUSH2 0x291E DUP2 DUP7 DUP7 DUP7 PUSH2 0x366F JUMP JUMPDEST SWAP2 SWAP7 POP SWAP5 POP SWAP3 POP JUMPDEST POP PUSH1 0x1 ADD PUSH2 0x2890 JUMP JUMPDEST POP PUSH1 0x60 DUP10 ADD MLOAD PUSH1 0x0 PUSH2 0x293F PUSH2 0x36D2 JUMP JUMPDEST PUSH1 0x1 PUSH1 0x1 PUSH1 0xA0 SHL SUB DUP12 AND PUSH1 0x0 SWAP1 DUP2 MSTORE PUSH1 0x20 DUP3 SWAP1 MSTORE PUSH1 0x40 DUP2 KECCAK256 SWAP2 SWAP3 POP JUMPDEST DUP13 PUSH1 0x20 ADD MLOAD MLOAD DUP2 LT ISZERO PUSH2 0x2A09 JUMPI PUSH1 0x0 DUP14 PUSH1 0x20 ADD MLOAD DUP3 DUP2 MLOAD DUP2 LT PUSH2 0x297A JUMPI INVALID JUMPDEST PUSH1 0x20 MUL PUSH1 0x20 ADD ADD MLOAD SWAP1 POP DUP1 PUSH1 0x60 ADD MLOAD PUSH1 0x0 EQ ISZERO PUSH2 0x2997 JUMPI POP PUSH2 0x2A01 JUMP JUMPDEST PUSH1 0x2 DUP2 PUSH1 0xA0 ADD MLOAD PUSH1 0x3 DUP2 GT ISZERO PUSH2 0x29A9 JUMPI INVALID JUMPDEST EQ ISZERO DUP1 ISZERO PUSH2 0x29C7 JUMPI POP PUSH1 0x3 DUP2 PUSH1 0xA0 ADD MLOAD PUSH1 0x3 DUP2 GT ISZERO PUSH2 0x29C4 JUMPI INVALID JUMPDEST EQ ISZERO JUMPDEST PUSH2 0x29D0 JUMPI PUSH1 0x0 DUP1 REVERT JUMPDEST PUSH2 0x29DC DUP2 DUP10 DUP10 DUP10 PUSH2 0x366F JUMP JUMPDEST SWAP2 SWAP10 POP SWAP8 POP SWAP6 POP PUSH2 0x29F9 DUP2 DUP5 DUP8 PUSH1 0x10 DUP2 LT PUSH2 0x29F3 JUMPI INVALID JUMPDEST ADD PUSH2 0x354A JUMP JUMPDEST PUSH1 0x1 DUP6 ADD SWAP5 POP POP JUMPDEST PUSH1 0x1 ADD PUSH2 0x295B JUMP JUMPDEST POP PUSH1 0x10 DUP4 GT ISZERO DUP1 ISZERO PUSH2 0x2A20 JUMPI POP PUSH5 0xFFFFFFFFFF DUP5 GT ISZERO JUMPDEST PUSH2 0x2A29 JUMPI PUSH1 0x0 DUP1 REVERT JUMPDEST POP SWAP4 SWAP11 SWAP3 SWAP10 POP SWAP8 POP SWAP6 POP SWAP4 POP POP POP POP JUMP JUMPDEST PUSH1 0x0 DUP1 PUSH32 0x7FFF7FFF7FFF7FFF7FFF7FFF7FFF7FFF7FFF0000000000000000000000000000 DUP4 AND DUP2 JUMPDEST PUSH1 0x1 PUSH1 0x1 PUSH1 0x70 SHL SUB NOT DUP3 AND ISZERO PUSH2 0x2AAC JUMPI PUSH1 0x1 PUSH1 0xFE SHL DUP3 DUP2 AND EQ ISZERO PUSH2 0x2A96 JUMPI PUSH1 0x1 PUSH1 0x1 PUSH1 0xF0 SHL SUB NOT DUP3 AND DUP2 SHR SWAP3 SWAP1 SWAP3 OR SWAP2 PUSH1 0x10 ADD JUMPDEST PUSH1 0x10 DUP3 PUSH1 0x1 PUSH1 0x1 PUSH1 0x70 SHL SUB NOT AND SWAP1 SHL SWAP2 POP PUSH2 0x2A62 JUMP JUMPDEST POP SWAP1 SWAP4 SWAP3 POP POP POP JUMP JUMPDEST PUSH1 0x0 DUP1 PUSH2 0x8D6 PUSH1 0xB PUSH2 0x2204 JUMP JUMPDEST PUSH1 0x0 DUP1 PUSH2 0x8D6 PUSH1 0x3 PUSH2 0x2204 JUMP JUMPDEST PUSH1 0x0 DUP1 PUSH1 0x0 PUSH2 0x2ADD DUP6 PUSH2 0x36DF JUMP JUMPDEST SWAP2 SWAP5 POP SWAP3 POP SWAP1 POP DUP1 PUSH2 0x2AEC JUMPI POP DUP3 JUMPDEST DUP1 DUP5 LT ISZERO PUSH2 0x2AF9 JUMPI PUSH1 0x0 DUP1 REVERT JUMPDEST PUSH2 0x2B0F PUSH2 0x2B08 DUP5 DUP4 DUP8 SUB PUSH2 0x121D JUMP JUMPDEST DUP4 SWAP1 PUSH2 0x126B JUMP JUMPDEST SWAP2 POP PUSH1 0x1 PUSH1 0x1 PUSH1 0x80 SHL SUB DUP3 LT PUSH2 0x2B24 JUMPI PUSH1 0x0 DUP1 REVERT JUMPDEST PUSH4 0xFFFFFFFF DUP5 LT PUSH2 0x2B34 JUMPI PUSH1 0x0 DUP1 REVERT JUMPDEST SWAP3 POP SWAP3 POP SWAP3 JUMP JUMPDEST PUSH1 0x0 DUP1 PUSH2 0x8D6 PUSH1 0xE PUSH2 0x2204 JUMP JUMPDEST PUSH1 0x0 DUP3 PUSH2 0x2B57 JUMPI POP PUSH1 0x0 PUSH2 0x8D6 JUMP JUMPDEST DUP3 DUP3 MUL DUP3 DUP5 DUP3 DUP2 PUSH2 0x2B64 JUMPI INVALID JUMPDEST DIV EQ PUSH2 0xE70 JUMPI PUSH1 0x40 MLOAD PUSH3 0x461BCD PUSH1 0xE5 SHL DUP2 MSTORE PUSH1 0x4 ADD DUP1 DUP1 PUSH1 0x20 ADD DUP3 DUP2 SUB DUP3 MSTORE PUSH1 0x21 DUP2 MSTORE PUSH1 0x20 ADD DUP1 PUSH2 0x4251 PUSH1 0x21 SWAP2 CODECOPY PUSH1 0x40 ADD SWAP2 POP POP PUSH1 0x40 MLOAD DUP1 SWAP2 SUB SWAP1 REVERT JUMPDEST PUSH1 0x0 DUP1 PUSH2 0x2BBA PUSH4 0x1DA9C00 PUSH2 0x216D DUP7 PUSH4 0x5F5E100 PUSH2 0x2B48 JUMP JUMPDEST SWAP1 POP PUSH2 0x10AB DUP2 DUP5 PUSH2 0x2B48 JUMP JUMPDEST PUSH1 0x0 DUP1 DUP3 GT PUSH2 0x2C1C JUMPI PUSH1 0x40 DUP1 MLOAD PUSH3 0x461BCD PUSH1 0xE5 SHL DUP2 MSTORE PUSH1 0x20 PUSH1 0x4 DUP3 ADD MSTORE PUSH1 0x1A PUSH1 0x24 DUP3 ADD MSTORE PUSH32 0x536166654D6174683A206469766973696F6E206279207A65726F000000000000 PUSH1 0x44 DUP3 ADD MSTORE SWAP1 MLOAD SWAP1 DUP2 SWAP1 SUB PUSH1 0x64 ADD SWAP1 REVERT JUMPDEST DUP2 DUP4 DUP2 PUSH2 0x2C25 JUMPI INVALID JUMPDEST DIV SWAP4 SWAP3 POP POP POP JUMP JUMPDEST PUSH1 0x0 DUP2 PUSH2 0x2C39 JUMPI PUSH1 0x0 DUP1 REVERT JUMPDEST PUSH1 0x1 PUSH1 0x80 SHL DUP3 LT PUSH2 0x2C4C JUMPI PUSH1 0x80 SWAP2 DUP3 SHR SWAP2 ADD JUMPDEST PUSH1 0x1 PUSH1 0x40 SHL DUP3 LT PUSH2 0x2C5F JUMPI PUSH1 0x40 SWAP2 DUP3 SHR SWAP2 ADD JUMPDEST PUSH5 0x100000000 DUP3 LT PUSH2 0x2C73 JUMPI PUSH1 0x20 SWAP2 DUP3 SHR SWAP2 ADD JUMPDEST PUSH3 0x10000 DUP3 LT PUSH2 0x2C85 JUMPI PUSH1 0x10 SWAP2 DUP3 SHR SWAP2 ADD JUMPDEST PUSH2 0x100 DUP3 LT PUSH2 0x2C96 JUMPI PUSH1 0x8 SWAP2 DUP3 SHR SWAP2 ADD JUMPDEST PUSH1 0x10 DUP3 LT PUSH2 0x2CA6 JUMPI PUSH1 0x4 SWAP2 DUP3 SHR SWAP2 ADD JUMPDEST PUSH1 0x4 DUP3 LT PUSH2 0x2CB6 JUMPI PUSH1 0x2 SWAP2 DUP3 SHR SWAP2 ADD JUMPDEST PUSH1 0x2 DUP3 LT PUSH2 0x758 JUMPI PUSH1 0x1 ADD SWAP2 SWAP1 POP JUMP JUMPDEST PUSH1 0x0 DUP1 PUSH2 0x8D6 PUSH1 0x7 PUSH2 0x2204 JUMP JUMPDEST PUSH1 0x40 MLOAD PUSH4 0x23B872DD PUSH1 0xE0 SHL DUP2 MSTORE PUSH1 0x1 PUSH1 0x1 PUSH1 0xA0 SHL SUB DUP5 AND SWAP1 PUSH4 0x23B872DD SWAP1 PUSH2 0x24A3 SWAP1 DUP6 SWAP1 ADDRESS SWAP1 DUP7 SWAP1 PUSH1 0x4 ADD PUSH2 0x3E8F JUMP JUMPDEST PUSH1 0x0 PUSH2 0x2D0D PUSH2 0x3AE6 JUMP JUMPDEST RETURNDATASIZE DUP1 ISZERO PUSH2 0x2D21 JUMPI PUSH1 0x20 DUP2 EQ PUSH2 0x2D2A JUMPI PUSH1 0x0 DUP1 REVERT JUMPDEST PUSH1 0x1 SWAP3 POP PUSH2 0x2D35 JUMP JUMPDEST PUSH1 0x20 PUSH1 0x0 DUP4 RETURNDATACOPY DUP2 MLOAD SWAP3 POP JUMPDEST POP DUP2 PUSH2 0xCAF JUMPI PUSH1 0x40 MLOAD PUSH3 0x461BCD PUSH1 0xE5 SHL DUP2 MSTORE PUSH1 0x4 ADD PUSH2 0x1E2 SWAP1 PUSH2 0x40FC JUMP JUMPDEST PUSH1 0x0 DUP1 PUSH2 0x8D6 PUSH1 0xC PUSH2 0x2204 JUMP JUMPDEST PUSH1 0x0 DUP1 PUSH1 0x0 PUSH2 0x2D6E DUP6 PUSH2 0x1D86 JUMP JUMPDEST SWAP1 POP PUSH3 0x15180 DUP5 MOD ISZERO PUSH2 0x2D88 JUMPI PUSH1 0x0 DUP1 SWAP3 POP SWAP3 POP POP PUSH2 0x2E64 JUMP JUMPDEST DUP4 DUP2 LT PUSH2 0x2D9C JUMPI PUSH1 0x0 DUP1 SWAP3 POP SWAP3 POP POP PUSH2 0x2E64 JUMP JUMPDEST PUSH3 0x15180 DUP2 DUP6 SUB DIV PUSH1 0x5A DUP2 GT PUSH2 0x2DB9 JUMPI SWAP3 POP PUSH1 0x1 SWAP2 POP PUSH2 0x2E64 SWAP1 POP JUMP JUMPDEST PUSH2 0x168 DUP2 GT PUSH2 0x2DF8 JUMPI PUSH1 0x0 PUSH3 0x15180 PUSH3 0x7E900 DUP5 MOD DIV DUP3 ADD PUSH1 0x59 NOT ADD SWAP1 POP PUSH1 0x6 DUP2 DIV PUSH1 0x5A ADD PUSH1 0x6 DUP3 DUP2 PUSH2 0x2DE8 JUMPI INVALID JUMPDEST MOD PUSH1 0x0 EQ SWAP5 POP SWAP5 POP POP POP POP PUSH2 0x2E64 JUMP JUMPDEST PUSH2 0x870 DUP2 GT PUSH2 0x2E28 JUMPI PUSH1 0x0 PUSH3 0x15180 PUSH3 0x278D00 DUP5 MOD DIV DUP3 ADD PUSH2 0x167 NOT ADD SWAP1 POP PUSH1 0x1E DUP2 DIV PUSH1 0x87 ADD PUSH1 0x1E DUP3 DUP2 PUSH2 0x2DE8 JUMPI INVALID JUMPDEST PUSH2 0x1DE2 DUP2 GT PUSH2 0x2E58 JUMPI PUSH1 0x0 PUSH3 0x15180 PUSH3 0x76A700 DUP5 MOD DIV DUP3 ADD PUSH2 0x86F NOT ADD SWAP1 POP PUSH1 0x5A DUP2 DIV PUSH1 0xC3 ADD PUSH1 0x5A DUP3 DUP2 PUSH2 0x2DE8 JUMPI INVALID JUMPDEST PUSH2 0x100 PUSH1 0x0 SWAP4 POP SWAP4 POP POP POP JUMPDEST SWAP3 POP SWAP3 SWAP1 POP JUMP JUMPDEST PUSH1 0x0 PUSH1 0x1 DUP3 LT ISZERO DUP1 ISZERO PUSH2 0x2E80 JUMPI POP PUSH2 0x100 DUP3 GT ISZERO JUMPDEST PUSH2 0x2E89 JUMPI PUSH1 0x0 DUP1 REVERT JUMPDEST POP PUSH1 0x0 NOT ADD SHL PUSH1 0x1 PUSH1 0xFF SHL SWAP1 DUP2 AND EQ SWAP1 JUMP JUMPDEST PUSH1 0x0 PUSH1 0x1 DUP4 LT ISZERO DUP1 ISZERO PUSH2 0x2EB0 JUMPI POP PUSH2 0x100 DUP4 GT ISZERO JUMPDEST PUSH2 0x2EB9 JUMPI PUSH1 0x0 DUP1 REVERT JUMPDEST DUP2 ISZERO PUSH2 0x2ED2 JUMPI POP PUSH1 0x1 PUSH1 0xFF SHL PUSH1 0x0 NOT DUP4 ADD SHR DUP4 OR PUSH2 0xE70 JUMP JUMPDEST POP PUSH1 0x1 PUSH1 0xFF SHL PUSH1 0x0 NOT DUP4 ADD SHR NOT DUP4 AND PUSH2 0xE70 JUMP JUMPDEST PUSH1 0x14 PUSH2 0x2EF1 DUP3 PUSH2 0x373B JUMP JUMPDEST GT ISZERO PUSH2 0x2F0F JUMPI PUSH1 0x40 MLOAD PUSH3 0x461BCD PUSH1 0xE5 SHL DUP2 MSTORE PUSH1 0x4 ADD PUSH2 0x1E2 SWAP1 PUSH2 0x406F JUMP JUMPDEST PUSH1 0x0 PUSH2 0x2F19 PUSH2 0x2AB5 JUMP JUMPDEST PUSH1 0x1 PUSH1 0x1 PUSH1 0xA0 SHL SUB SWAP1 SWAP5 AND PUSH1 0x0 SWAP1 DUP2 MSTORE PUSH1 0x20 SWAP5 DUP6 MSTORE PUSH1 0x40 DUP1 DUP3 KECCAK256 SWAP5 DUP3 MSTORE SWAP4 SWAP1 SWAP5 MSTORE POP SWAP2 KECCAK256 SSTORE JUMP JUMPDEST PUSH1 0x60 PUSH1 0x10 DUP3 PUSH1 0xFF AND GT ISZERO PUSH2 0x2F53 JUMPI PUSH1 0x0 DUP1 REVERT JUMPDEST PUSH1 0x0 PUSH2 0x2F5D PUSH2 0x36D2 JUMP JUMPDEST PUSH1 0x1 PUSH1 0x1 PUSH1 0xA0 SHL SUB DUP6 AND PUSH1 0x0 SWAP1 DUP2 MSTORE PUSH1 0x20 DUP3 SWAP1 MSTORE PUSH1 0x40 DUP2 KECCAK256 SWAP2 SWAP3 POP PUSH1 0xFF DUP6 AND PUSH8 0xFFFFFFFFFFFFFFFF DUP2 GT DUP1 ISZERO PUSH2 0x2F92 JUMPI PUSH1 0x0 DUP1 REVERT JUMPDEST POP PUSH1 0x40 MLOAD SWAP1 DUP1 DUP3 MSTORE DUP1 PUSH1 0x20 MUL PUSH1 0x20 ADD DUP3 ADD PUSH1 0x40 MSTORE DUP1 ISZERO PUSH2 0x2FCC JUMPI DUP2 PUSH1 0x20 ADD JUMPDEST PUSH2 0x2FB9 PUSH2 0x3AA6 JUMP JUMPDEST DUP2 MSTORE PUSH1 0x20 ADD SWAP1 PUSH1 0x1 SWAP1 SUB SWAP1 DUP2 PUSH2 0x2FB1 JUMPI SWAP1 POP JUMPDEST POP SWAP1 POP PUSH1 0x0 JUMPDEST DUP6 PUSH1 0xFF AND DUP2 LT ISZERO PUSH2 0x3058 JUMPI PUSH1 0x0 DUP4 DUP3 PUSH1 0x10 DUP2 LT PUSH2 0x2FEB JUMPI INVALID JUMPDEST ADD SWAP1 POP PUSH1 0x0 DUP4 DUP4 DUP2 MLOAD DUP2 LT PUSH2 0x2FFC JUMPI INVALID JUMPDEST PUSH1 0x20 SWAP1 DUP2 MUL SWAP2 SWAP1 SWAP2 ADD DUP2 ADD MLOAD DUP4 SLOAD PUSH2 0xFFFF DUP2 AND DUP3 MSTORE PUSH5 0xFFFFFFFFFF PUSH3 0x10000 DUP3 DIV AND SWAP3 DUP3 ADD SWAP3 SWAP1 SWAP3 MSTORE PUSH1 0xFF PUSH1 0x1 PUSH1 0x38 SHL DUP4 DIV AND PUSH1 0x40 DUP3 ADD MSTORE PUSH1 0x1 PUSH1 0x40 SHL SWAP1 SWAP2 DIV PUSH1 0xA SWAP1 DUP2 SIGNEXTEND SWAP1 SIGNEXTEND PUSH1 0x60 DUP3 ADD MSTORE PUSH1 0x80 ADD SWAP2 SWAP1 SWAP2 MSTORE POP PUSH1 0x1 ADD PUSH2 0x2FD2 JUMP JUMPDEST POP SWAP6 SWAP5 POP POP POP POP POP JUMP JUMPDEST DUP1 MLOAD PUSH1 0x0 DUP2 PUSH8 0xFFFFFFFFFFFFFFFF DUP2 GT DUP1 ISZERO PUSH2 0x307D JUMPI PUSH1 0x0 DUP1 REVERT JUMPDEST POP PUSH1 0x40 MLOAD SWAP1 DUP1 DUP3 MSTORE DUP1 PUSH1 0x20 MUL PUSH1 0x20 ADD DUP3 ADD PUSH1 0x40 MSTORE DUP1 ISZERO PUSH2 0x30A7 JUMPI DUP2 PUSH1 0x20 ADD PUSH1 0x20 DUP3 MUL DUP1 CALLDATASIZE DUP4 CALLDATACOPY ADD SWAP1 POP JUMPDEST POP SWAP1 POP PUSH1 0x0 JUMPDEST DUP3 DUP2 LT ISZERO PUSH2 0x3104 JUMPI PUSH1 0x0 DUP5 DUP3 DUP2 MLOAD DUP2 LT PUSH2 0x30C3 JUMPI INVALID JUMPDEST PUSH1 0x20 MUL PUSH1 0x20 ADD ADD MLOAD SWAP1 POP PUSH2 0x30E4 DUP2 PUSH1 0x0 ADD MLOAD DUP3 PUSH1 0x20 ADD MLOAD DUP4 PUSH1 0x40 ADD MLOAD PUSH2 0x380B JUMP JUMPDEST DUP4 DUP4 DUP2 MLOAD DUP2 LT PUSH2 0x30F0 JUMPI INVALID JUMPDEST PUSH1 0x20 SWAP1 DUP2 MUL SWAP2 SWAP1 SWAP2 ADD ADD MSTORE POP PUSH1 0x1 ADD PUSH2 0x30AD JUMP JUMPDEST POP PUSH1 0x1 JUMPDEST DUP3 DUP2 LT ISZERO PUSH2 0x16E3 JUMPI DUP1 JUMPDEST PUSH1 0x0 DUP2 GT DUP1 ISZERO PUSH2 0x314A JUMPI POP DUP3 DUP2 DUP2 MLOAD DUP2 LT PUSH2 0x3129 JUMPI INVALID JUMPDEST PUSH1 0x20 MUL PUSH1 0x20 ADD ADD MLOAD DUP4 PUSH1 0x1 DUP4 SUB DUP2 MLOAD DUP2 LT PUSH2 0x3140 JUMPI INVALID JUMPDEST PUSH1 0x20 MUL PUSH1 0x20 ADD ADD MLOAD GT JUMPDEST ISZERO PUSH2 0x3212 JUMPI DUP3 DUP2 DUP2 MLOAD DUP2 LT PUSH2 0x315B JUMPI INVALID JUMPDEST PUSH1 0x20 MUL PUSH1 0x20 ADD ADD MLOAD DUP4 PUSH1 0x1 DUP4 SUB DUP2 MLOAD DUP2 LT PUSH2 0x3172 JUMPI INVALID JUMPDEST PUSH1 0x20 MUL PUSH1 0x20 ADD ADD MLOAD DUP5 PUSH1 0x1 DUP5 SUB DUP2 MLOAD DUP2 LT PUSH2 0x3189 JUMPI INVALID JUMPDEST PUSH1 0x20 MUL PUSH1 0x20 ADD ADD DUP6 DUP5 DUP2 MLOAD DUP2 LT PUSH2 0x319C JUMPI INVALID JUMPDEST PUSH1 0x20 MUL PUSH1 0x20 ADD ADD DUP3 DUP2 MSTORE POP DUP3 DUP2 MSTORE POP POP POP DUP5 DUP2 DUP2 MLOAD DUP2 LT PUSH2 0x31B9 JUMPI INVALID JUMPDEST PUSH1 0x20 MUL PUSH1 0x20 ADD ADD MLOAD DUP6 PUSH1 0x1 DUP4 SUB DUP2 MLOAD DUP2 LT PUSH2 0x31D0 JUMPI INVALID JUMPDEST PUSH1 0x20 MUL PUSH1 0x20 ADD ADD MLOAD DUP7 PUSH1 0x1 DUP5 SUB DUP2 MLOAD DUP2 LT PUSH2 0x31E7 JUMPI INVALID JUMPDEST PUSH1 0x20 MUL PUSH1 0x20 ADD ADD DUP8 DUP5 DUP2 MLOAD DUP2 LT PUSH2 0x31FA JUMPI INVALID JUMPDEST PUSH1 0x20 SWAP1 DUP2 MUL SWAP2 SWAP1 SWAP2 ADD ADD SWAP2 SWAP1 SWAP2 MSTORE MSTORE PUSH1 0x0 NOT ADD PUSH2 0x3112 JUMP JUMPDEST POP PUSH1 0x1 ADD PUSH2 0x3108 JUMP JUMPDEST PUSH1 0x0 DUP1 JUMPDEST DUP7 MLOAD DUP2 LT ISZERO PUSH2 0x331F JUMPI PUSH1 0x0 DUP8 DUP3 DUP2 MLOAD DUP2 LT PUSH2 0x3236 JUMPI INVALID JUMPDEST PUSH1 0x20 MUL PUSH1 0x20 ADD ADD MLOAD SWAP1 POP DUP5 DUP2 PUSH1 0x40 ADD MLOAD EQ ISZERO DUP1 PUSH2 0x3254 JUMPI POP DUP1 MLOAD DUP8 EQ ISZERO JUMPDEST DUP1 PUSH2 0x3263 JUMPI POP DUP6 DUP2 PUSH1 0x20 ADD MLOAD EQ ISZERO JUMPDEST ISZERO PUSH2 0x326E JUMPI POP PUSH2 0x3317 JUMP JUMPDEST PUSH1 0x2 DUP2 PUSH1 0xA0 ADD MLOAD PUSH1 0x3 DUP2 GT ISZERO PUSH2 0x3280 JUMPI INVALID JUMPDEST EQ ISZERO DUP1 ISZERO PUSH2 0x329E JUMPI POP PUSH1 0x3 DUP2 PUSH1 0xA0 ADD MLOAD PUSH1 0x3 DUP2 GT ISZERO PUSH2 0x329B JUMPI INVALID JUMPDEST EQ ISZERO JUMPDEST PUSH2 0x32A7 JUMPI PUSH1 0x0 DUP1 REVERT JUMPDEST PUSH1 0x60 DUP2 ADD MLOAD PUSH1 0x0 SWAP1 PUSH2 0x32B9 SWAP1 DUP7 PUSH2 0x126B JUMP JUMPDEST SWAP1 POP PUSH2 0x32C4 DUP7 PUSH2 0x332C JUMP JUMPDEST ISZERO PUSH2 0x32D7 JUMPI PUSH1 0x0 DUP2 SLT ISZERO PUSH2 0x32D7 JUMPI PUSH1 0x0 DUP1 REVERT JUMPDEST PUSH1 0x1 PUSH1 0x1 PUSH1 0x57 SHL SUB NOT DUP2 SLT DUP1 ISZERO SWAP1 PUSH2 0x32F6 JUMPI POP PUSH1 0x1 PUSH1 0x1 PUSH1 0x57 SHL SUB DUP2 SGT ISZERO JUMPDEST PUSH2 0x32FF JUMPI PUSH1 0x0 DUP1 REVERT JUMPDEST PUSH1 0x60 DUP3 ADD MSTORE PUSH1 0x1 PUSH1 0xA0 SWAP1 SWAP2 ADD DUP2 SWAP1 MSTORE SWAP2 POP PUSH2 0x2107 SWAP1 POP JUMP JUMPDEST PUSH1 0x1 ADD PUSH2 0x321F JUMP JUMPDEST POP PUSH1 0x0 SWAP7 SWAP6 POP POP POP POP POP POP JUMP JUMPDEST PUSH1 0x0 PUSH1 0x2 DUP3 LT DUP1 ISZERO SWAP1 PUSH2 0x8D6 JUMPI POP POP PUSH1 0x8 LT ISZERO SWAP1 JUMP JUMPDEST PUSH1 0x60 PUSH1 0x0 DUP3 MLOAD PUSH1 0x0 EQ PUSH2 0x3359 JUMPI DUP3 MLOAD PUSH1 0x2 MUL PUSH2 0x335C JUMP JUMPDEST PUSH1 0x1 JUMPDEST SWAP1 POP PUSH1 0x0 DUP2 PUSH8 0xFFFFFFFFFFFFFFFF DUP2 GT DUP1 ISZERO PUSH2 0x3377 JUMPI PUSH1 0x0 DUP1 REVERT JUMPDEST POP PUSH1 0x40 MLOAD SWAP1 DUP1 DUP3 MSTORE DUP1 PUSH1 0x20 MUL PUSH1 0x20 ADD DUP3 ADD PUSH1 0x40 MSTORE DUP1 ISZERO PUSH2 0x33B1 JUMPI DUP2 PUSH1 0x20 ADD JUMPDEST PUSH2 0x339E PUSH2 0x3AA6 JUMP JUMPDEST DUP2 MSTORE PUSH1 0x20 ADD SWAP1 PUSH1 0x1 SWAP1 SUB SWAP1 DUP2 PUSH2 0x3396 JUMPI SWAP1 POP JUMPDEST POP SWAP1 POP PUSH1 0x0 JUMPDEST DUP5 MLOAD DUP2 LT ISZERO PUSH2 0x33F3 JUMPI DUP5 DUP2 DUP2 MLOAD DUP2 LT PUSH2 0x33CC JUMPI INVALID JUMPDEST PUSH1 0x20 MUL PUSH1 0x20 ADD ADD MLOAD DUP3 DUP3 DUP2 MLOAD DUP2 LT PUSH2 0x33E0 JUMPI INVALID JUMPDEST PUSH1 0x20 SWAP1 DUP2 MUL SWAP2 SWAP1 SWAP2 ADD ADD MSTORE PUSH1 0x1 ADD PUSH2 0x33B7 JUMP JUMPDEST POP SWAP4 SWAP3 POP POP POP JUMP JUMPDEST DUP2 MLOAD MLOAD DUP2 LT PUSH2 0x3409 JUMPI PUSH1 0x0 DUP1 REVERT JUMPDEST PUSH1 0x0 DUP3 PUSH1 0x60 ADD MLOAD GT PUSH2 0x341A JUMPI PUSH1 0x0 DUP1 REVERT JUMPDEST PUSH1 0x0 DUP3 PUSH1 0x0 ADD MLOAD DUP3 DUP2 MLOAD DUP2 LT PUSH2 0x342C JUMPI INVALID JUMPDEST PUSH1 0x20 MUL PUSH1 0x20 ADD ADD MLOAD SWAP1 POP PUSH1 0x2 PUSH1 0x3 DUP2 GT ISZERO PUSH2 0x3443 JUMPI INVALID JUMPDEST DUP2 PUSH1 0xA0 ADD MLOAD PUSH1 0x3 DUP2 GT ISZERO PUSH2 0x3453 JUMPI INVALID JUMPDEST EQ ISZERO DUP1 ISZERO PUSH2 0x3471 JUMPI POP PUSH1 0x3 DUP2 PUSH1 0xA0 ADD MLOAD PUSH1 0x3 DUP2 GT ISZERO PUSH2 0x346E JUMPI INVALID JUMPDEST EQ ISZERO JUMPDEST PUSH2 0x347A JUMPI PUSH1 0x0 DUP1 REVERT JUMPDEST PUSH1 0x60 DUP4 ADD DUP1 MLOAD PUSH1 0x0 NOT ADD SWAP1 MSTORE PUSH1 0x0 DUP1 DUP1 JUMPDEST DUP6 MLOAD MLOAD DUP2 LT ISZERO PUSH2 0x34ED JUMPI PUSH1 0x0 DUP7 PUSH1 0x0 ADD MLOAD DUP3 DUP2 MLOAD DUP2 LT PUSH2 0x34A7 JUMPI INVALID JUMPDEST PUSH1 0x20 MUL PUSH1 0x20 ADD ADD MLOAD SWAP1 POP DUP3 DUP2 PUSH1 0x80 ADD MLOAD GT DUP1 ISZERO PUSH2 0x34D4 JUMPI POP PUSH1 0x2 DUP2 PUSH1 0xA0 ADD MLOAD PUSH1 0x3 DUP2 GT ISZERO PUSH2 0x34D1 JUMPI INVALID JUMPDEST EQ ISZERO JUMPDEST ISZERO PUSH2 0x34E4 JUMPI DUP1 PUSH1 0x80 ADD MLOAD SWAP3 POP DUP2 SWAP4 POP JUMPDEST POP PUSH1 0x1 ADD PUSH2 0x348B JUMP JUMPDEST POP DUP2 DUP5 EQ ISZERO PUSH2 0x3506 JUMPI POP POP PUSH1 0x2 PUSH1 0xA0 SWAP2 SWAP1 SWAP2 ADD MSTORE PUSH2 0xCAF JUMP JUMPDEST PUSH1 0x0 DUP6 PUSH1 0x0 ADD MLOAD DUP4 DUP2 MLOAD DUP2 LT PUSH2 0x3518 JUMPI INVALID JUMPDEST PUSH1 0x20 SWAP1 DUP2 MUL SWAP2 SWAP1 SWAP2 ADD ADD MLOAD PUSH1 0x80 DUP6 DUP2 ADD DUP1 MLOAD SWAP2 DUP4 ADD DUP1 MLOAD SWAP1 SWAP2 MSTORE MSTORE PUSH1 0x1 PUSH1 0xA0 SWAP2 DUP3 ADD MSTORE PUSH1 0x2 SWAP5 ADD SWAP4 SWAP1 SWAP4 MSTORE POP POP POP POP POP JUMP JUMPDEST DUP2 MLOAD ISZERO DUP1 ISZERO SWAP1 PUSH2 0x355D JUMPI POP DUP2 MLOAD PUSH2 0x3FFF LT ISZERO JUMPDEST PUSH2 0x3566 JUMPI PUSH1 0x0 DUP1 REVERT JUMPDEST DUP2 PUSH1 0x20 ADD MLOAD PUSH1 0x0 LT DUP1 ISZERO PUSH2 0x3583 JUMPI POP PUSH1 0x20 DUP3 ADD MLOAD PUSH5 0xFFFFFFFFFF LT ISZERO JUMPDEST PUSH2 0x358C JUMPI PUSH1 0x0 DUP1 REVERT JUMPDEST DUP2 PUSH1 0x40 ADD MLOAD PUSH1 0x0 LT DUP1 ISZERO PUSH2 0x35A5 JUMPI POP PUSH1 0x40 DUP3 ADD MLOAD PUSH1 0x8 LT ISZERO JUMPDEST PUSH2 0x35AE JUMPI PUSH1 0x0 DUP1 REVERT JUMPDEST PUSH1 0x60 DUP3 ADD MLOAD PUSH1 0x1 PUSH1 0x1 PUSH1 0x57 SHL SUB NOT SGT DUP1 ISZERO SWAP1 PUSH2 0x35D5 JUMPI POP PUSH1 0x60 DUP3 ADD MLOAD PUSH1 0x1 PUSH1 0x1 PUSH1 0x57 SHL SUB SLT ISZERO JUMPDEST PUSH2 0x35DE JUMPI PUSH1 0x0 DUP1 REVERT JUMPDEST DUP2 MLOAD DUP2 SLOAD PUSH1 0x20 DUP5 ADD MLOAD PUSH1 0x40 DUP6 ADD MLOAD PUSH1 0x60 SWAP1 SWAP6 ADD MLOAD PUSH1 0xA SIGNEXTEND PUSH1 0x1 PUSH1 0x1 PUSH1 0x58 SHL SUB AND PUSH1 0x1 PUSH1 0x40 SHL MUL PUSH19 0xFFFFFFFFFFFFFFFFFFFFFF0000000000000000 NOT PUSH1 0xFF SWAP1 SWAP7 AND PUSH1 0x1 PUSH1 0x38 SHL MUL PUSH8 0xFF00000000000000 NOT PUSH5 0xFFFFFFFFFF SWAP1 SWAP4 AND PUSH3 0x10000 MUL PUSH7 0xFFFFFFFFFF0000 NOT PUSH2 0xFFFF SWAP1 SWAP7 AND PUSH2 0xFFFF NOT SWAP1 SWAP6 AND SWAP5 SWAP1 SWAP5 OR SWAP5 SWAP1 SWAP5 AND SWAP3 SWAP1 SWAP3 OR AND SWAP2 SWAP1 SWAP2 OR SWAP3 SWAP1 SWAP3 AND SWAP2 SWAP1 SWAP2 OR SWAP1 SSTORE JUMP JUMPDEST PUSH1 0x0 DUP1 PUSH1 0x0 DUP1 PUSH2 0x367E DUP9 PUSH2 0x3866 JUMP JUMPDEST SWAP1 POP DUP5 ISZERO DUP1 PUSH2 0x368C JUMPI POP DUP1 DUP6 GT JUMPDEST ISZERO PUSH2 0x3695 JUMPI DUP1 SWAP5 POP JUMPDEST DUP7 DUP1 PUSH2 0x36A5 JUMPI POP PUSH1 0x0 DUP9 PUSH1 0x60 ADD MLOAD SLT JUMPDEST SWAP7 POP PUSH2 0xFFFF DUP7 AND ISZERO PUSH2 0x36B6 JUMPI PUSH1 0x0 DUP1 REVERT JUMPDEST POP POP SWAP5 MLOAD SWAP4 SWAP6 PUSH1 0x10 SWAP4 SWAP1 SWAP4 SHR PUSH1 0xF0 SWAP5 SWAP1 SWAP5 SHL SWAP4 SWAP1 SWAP4 OR SWAP4 POP SWAP2 POP JUMP JUMPDEST PUSH1 0x0 DUP1 PUSH2 0x8D6 PUSH1 0xD PUSH2 0x2204 JUMP JUMPDEST PUSH1 0x0 DUP1 PUSH1 0x0 DUP1 PUSH2 0x36ED PUSH2 0x2B3B JUMP JUMPDEST PUSH1 0x1 PUSH1 0x1 PUSH1 0xA0 SHL SUB SWAP6 SWAP1 SWAP6 AND PUSH1 0x0 SWAP1 DUP2 MSTORE PUSH1 0x20 SWAP6 SWAP1 SWAP6 MSTORE POP POP PUSH1 0x40 SWAP1 SWAP3 KECCAK256 SLOAD PUSH1 0x1 PUSH1 0x1 PUSH1 0x60 SHL SUB DUP2 AND SWAP4 PUSH1 0x1 PUSH1 0x60 SHL DUP3 DIV PUSH1 0x1 PUSH1 0x1 PUSH1 0x80 SHL SUB AND SWAP4 POP PUSH1 0x1 PUSH1 0xE0 SHL SWAP1 SWAP2 DIV PUSH4 0xFFFFFFFF AND SWAP2 POP JUMP JUMPDEST PUSH1 0x1 DUP2 SWAP1 SHR PUSH32 0x5555555555555555555555555555555555555555555555555555555555555555 SWAP1 DUP2 AND SWAP2 AND ADD PUSH1 0x2 DUP2 SWAP1 SHR PUSH32 0x3333333333333333333333333333333333333333333333333333333333333333 SWAP1 DUP2 AND SWAP2 AND ADD PUSH1 0x4 DUP2 SWAP1 SHR PUSH32 0x707070707070707070707070707070707070707070707070707070707070707 SWAP2 SWAP1 SWAP2 AND ADD PUSH1 0x8 DUP2 SWAP1 SHR PUSH31 0xF000F000F000F000F000F000F000F000F000F000F000F000F000F000F000F SWAP1 DUP2 AND SWAP2 AND ADD PUSH1 0x10 DUP2 SWAP1 SHR ADD PUSH1 0x20 DUP2 SWAP1 SHR ADD PUSH1 0x40 DUP2 SWAP1 SHR ADD PUSH1 0x80 DUP2 SWAP1 SHR PUSH1 0xFF SWAP1 DUP2 AND SWAP2 AND ADD SWAP1 JUMP JUMPDEST PUSH1 0x0 PUSH2 0x3FFF DUP5 GT ISZERO PUSH2 0x381C JUMPI PUSH1 0x0 DUP1 REVERT JUMPDEST PUSH5 0xFFFFFFFFFF DUP4 GT ISZERO PUSH2 0x382E JUMPI PUSH1 0x0 DUP1 REVERT JUMPDEST PUSH1 0x8 DUP3 GT ISZERO PUSH2 0x383C JUMPI PUSH1 0x0 DUP1 REVERT JUMPDEST POP PUSH8 0xFFFF000000000000 PUSH1 0x30 DUP5 SWAP1 SHL AND PUSH6 0xFFFFFFFFFF00 PUSH1 0x8 DUP5 SWAP1 SHL AND OR PUSH1 0xFF DUP3 AND OR SWAP4 SWAP3 POP POP POP JUMP JUMPDEST PUSH1 0x0 DUP1 DUP3 PUSH1 0x40 ADD MLOAD GT DUP1 ISZERO PUSH2 0x3880 JUMPI POP PUSH1 0x40 DUP3 ADD MLOAD PUSH1 0x8 LT ISZERO JUMPDEST PUSH2 0x3889 JUMPI PUSH1 0x0 DUP1 REVERT JUMPDEST PUSH1 0x40 DUP3 ADD MLOAD PUSH1 0x2 LT PUSH2 0x38A0 JUMPI POP PUSH1 0x20 DUP2 ADD MLOAD PUSH2 0x758 JUMP JUMPDEST PUSH1 0x0 PUSH2 0x38B2 PUSH1 0x1 DUP5 PUSH1 0x40 ADD MLOAD SUB PUSH2 0x38D3 JUMP JUMPDEST PUSH1 0x20 DUP5 ADD MLOAD SWAP1 SWAP2 POP PUSH2 0x754 SWAP1 PUSH3 0x76A700 SWAP1 PUSH2 0x38CD SWAP1 DUP5 PUSH2 0x24DD JUMP JUMPDEST SWAP1 PUSH2 0x3977 JUMP JUMPDEST PUSH1 0x0 DUP2 PUSH1 0x1 EQ ISZERO PUSH2 0x38E8 JUMPI POP PUSH3 0x76A700 PUSH2 0x758 JUMP JUMPDEST DUP2 PUSH1 0x2 EQ ISZERO PUSH2 0x38FB JUMPI POP PUSH3 0xED4E00 PUSH2 0x758 JUMP JUMPDEST DUP2 PUSH1 0x3 EQ ISZERO PUSH2 0x390F JUMPI POP PUSH4 0x1DA9C00 PUSH2 0x758 JUMP JUMPDEST DUP2 PUSH1 0x4 EQ ISZERO PUSH2 0x3923 JUMPI POP PUSH4 0x3B53800 PUSH2 0x758 JUMP JUMPDEST DUP2 PUSH1 0x5 EQ ISZERO PUSH2 0x3937 JUMPI POP PUSH4 0x9450C00 PUSH2 0x758 JUMP JUMPDEST DUP2 PUSH1 0x6 EQ ISZERO PUSH2 0x394B JUMPI POP PUSH4 0x128A1800 PUSH2 0x758 JUMP JUMPDEST DUP2 PUSH1 0x7 EQ ISZERO PUSH2 0x395F JUMPI POP PUSH4 0x25143000 PUSH2 0x758 JUMP JUMPDEST PUSH1 0x40 MLOAD PUSH3 0x461BCD PUSH1 0xE5 SHL DUP2 MSTORE PUSH1 0x4 ADD PUSH2 0x1E2 SWAP1 PUSH2 0x3FBF JUMP JUMPDEST PUSH1 0x0 DUP3 DUP3 ADD DUP4 DUP2 LT ISZERO PUSH2 0xE70 JUMPI PUSH1 0x40 DUP1 MLOAD PUSH3 0x461BCD PUSH1 0xE5 SHL DUP2 MSTORE PUSH1 0x20 PUSH1 0x4 DUP3 ADD MSTORE PUSH1 0x1B PUSH1 0x24 DUP3 ADD MSTORE PUSH32 0x536166654D6174683A206164646974696F6E206F766572666C6F770000000000 PUSH1 0x44 DUP3 ADD MSTORE SWAP1 MLOAD SWAP1 DUP2 SWAP1 SUB PUSH1 0x64 ADD SWAP1 REVERT JUMPDEST PUSH1 0x40 MLOAD DUP1 PUSH2 0x120 ADD PUSH1 0x40 MSTORE DUP1 PUSH1 0x0 PUSH2 0xFFFF AND DUP2 MSTORE PUSH1 0x20 ADD PUSH1 0x0 DUP2 MSTORE PUSH1 0x20 ADD PUSH1 0x0 DUP2 MSTORE PUSH1 0x20 ADD PUSH1 0x0 DUP2 MSTORE PUSH1 0x20 ADD PUSH1 0x0 DUP2 MSTORE PUSH1 0x20 ADD PUSH1 0x0 DUP2 MSTORE PUSH1 0x20 ADD PUSH1 0x0 DUP2 MSTORE PUSH1 0x20 ADD PUSH1 0x0 DUP2 MSTORE PUSH1 0x20 ADD PUSH1 0x0 DUP2 MSTORE POP SWAP1 JUMP JUMPDEST PUSH1 0x40 DUP1 MLOAD PUSH1 0xA0 DUP2 ADD DUP3 MSTORE PUSH1 0x0 DUP1 DUP3 MSTORE PUSH1 0x20 DUP3 ADD DUP2 SWAP1 MSTORE SWAP2 DUP2 ADD DUP3 SWAP1 MSTORE PUSH1 0x60 DUP2 ADD DUP3 SWAP1 MSTORE PUSH1 0x80 DUP2 ADD SWAP2 SWAP1 SWAP2 MSTORE SWAP1 JUMP JUMPDEST PUSH1 0x40 DUP1 MLOAD PUSH1 0xA0 DUP2 ADD DUP3 MSTORE PUSH1 0x0 DUP1 DUP3 MSTORE PUSH1 0x20 DUP3 ADD DUP2 SWAP1 MSTORE SWAP2 DUP2 ADD DUP3 SWAP1 MSTORE SWAP1 PUSH1 0x60 DUP3 ADD SWAP1 DUP2 MSTORE PUSH1 0x20 ADD PUSH1 0x0 DUP2 MSTORE POP SWAP1 JUMP JUMPDEST PUSH1 0x40 MLOAD DUP1 PUSH1 0x80 ADD PUSH1 0x40 MSTORE DUP1 PUSH1 0x60 DUP2 MSTORE PUSH1 0x20 ADD PUSH1 0x60 DUP2 MSTORE PUSH1 0x20 ADD PUSH1 0x0 DUP2 MSTORE PUSH1 0x20 ADD PUSH1 0x0 DUP2 MSTORE POP SWAP1 JUMP JUMPDEST PUSH1 0x40 MLOAD DUP1 PUSH1 0xC0 ADD PUSH1 0x40 MSTORE DUP1 PUSH1 0x0 DUP2 MSTORE PUSH1 0x20 ADD PUSH1 0x0 DUP2 MSTORE PUSH1 0x20 ADD PUSH1 0x0 DUP2 MSTORE PUSH1 0x20 ADD PUSH1 0x0 DUP2 MSTORE PUSH1 0x20 ADD PUSH1 0x0 DUP2 MSTORE PUSH1 0x20 ADD PUSH1 0x0 PUSH1 0x3 DUP2 GT ISZERO PUSH2 0x3AE1 JUMPI INVALID JUMPDEST SWAP1 MSTORE SWAP1 JUMP JUMPDEST PUSH1 0x40 MLOAD DUP1 PUSH1 0x20 ADD PUSH1 0x40 MSTORE DUP1 PUSH1 0x1 SWAP1 PUSH1 0x20 DUP3 MUL DUP1 CALLDATASIZE DUP4 CALLDATACOPY POP SWAP2 SWAP3 SWAP2 POP POP JUMP JUMPDEST DUP1 CALLDATALOAD PUSH1 0x1 PUSH1 0x1 PUSH1 0xA0 SHL SUB DUP2 AND DUP2 EQ PUSH2 0x758 JUMPI PUSH1 0x0 DUP1 REVERT JUMPDEST DUP1 MLOAD PUSH1 0x1 PUSH1 0x1 PUSH1 0x70 SHL SUB NOT DUP2 AND DUP2 EQ PUSH2 0x758 JUMPI PUSH1 0x0 DUP1 REVERT JUMPDEST DUP1 MLOAD PUSH1 0x4 DUP2 LT PUSH2 0x758 JUMPI PUSH1 0x0 DUP1 REVERT JUMPDEST DUP1 MLOAD PUSH2 0x758 DUP2 PUSH2 0x4240 JUMP JUMPDEST DUP1 MLOAD PUSH1 0xFF DUP2 AND DUP2 EQ PUSH2 0x758 JUMPI PUSH1 0x0 DUP1 REVERT JUMPDEST PUSH1 0x0 PUSH1 0x20 DUP3 DUP5 SUB SLT ISZERO PUSH2 0x3B6F JUMPI DUP1 DUP2 REVERT JUMPDEST PUSH2 0xE70 DUP3 PUSH2 0x3B04 JUMP JUMPDEST PUSH1 0x0 DUP1 PUSH1 0x0 PUSH1 0x60 DUP5 DUP7 SUB SLT ISZERO PUSH2 0x3B8C JUMPI DUP2 DUP3 REVERT JUMPDEST PUSH2 0x3B95 DUP5 PUSH2 0x3B04 JUMP JUMPDEST SWAP3 POP PUSH1 0x20 DUP5 ADD CALLDATALOAD PUSH2 0x3BA5 DUP2 PUSH2 0x4240 JUMP JUMPDEST SWAP3 SWAP6 SWAP3 SWAP5 POP POP POP PUSH1 0x40 SWAP2 SWAP1 SWAP2 ADD CALLDATALOAD SWAP1 JUMP JUMPDEST PUSH1 0x0 DUP1 PUSH1 0x0 DUP1 PUSH1 0x0 PUSH1 0xA0 DUP7 DUP9 SUB SLT ISZERO PUSH2 0x3BCD JUMPI DUP1 DUP2 REVERT JUMPDEST PUSH2 0x3BD6 DUP7 PUSH2 0x3B04 JUMP JUMPDEST SWAP5 POP PUSH1 0x20 DUP7 ADD CALLDATALOAD PUSH2 0x3BE6 DUP2 PUSH2 0x4240 JUMP JUMPDEST SWAP4 POP PUSH1 0x40 DUP7 ADD CALLDATALOAD PUSH1 0x1 PUSH1 0x1 PUSH1 0x60 SHL SUB DUP2 AND DUP2 EQ PUSH2 0x3C01 JUMPI DUP2 DUP3 REVERT JUMPDEST SWAP3 POP PUSH1 0x60 DUP7 ADD CALLDATALOAD PUSH2 0x3C11 DUP2 PUSH2 0x422F JUMP JUMPDEST SWAP2 POP PUSH1 0x80 DUP7 ADD CALLDATALOAD PUSH2 0x3C21 DUP2 PUSH2 0x422F JUMP JUMPDEST DUP1 SWAP2 POP POP SWAP3 SWAP6 POP SWAP3 SWAP6 SWAP1 SWAP4 POP JUMP JUMPDEST PUSH1 0x0 DUP1 PUSH1 0x0 PUSH1 0x60 DUP5 DUP7 SUB SLT ISZERO PUSH2 0x3C43 JUMPI DUP3 DUP4 REVERT JUMPDEST DUP4 MLOAD SWAP3 POP PUSH1 0x20 DUP1 DUP6 ADD MLOAD PUSH2 0x3C56 DUP2 PUSH2 0x422F JUMP JUMPDEST DUP1 SWAP4 POP POP PUSH1 0x40 DUP1 DUP7 ADD MLOAD PUSH8 0xFFFFFFFFFFFFFFFF DUP1 DUP3 GT ISZERO PUSH2 0x3C75 JUMPI DUP5 DUP6 REVERT JUMPDEST DUP2 DUP9 ADD SWAP2 POP DUP9 PUSH1 0x1F DUP4 ADD SLT PUSH2 0x3C88 JUMPI DUP5 DUP6 REVERT JUMPDEST DUP2 MLOAD DUP2 DUP2 GT ISZERO PUSH2 0x3C94 JUMPI INVALID JUMPDEST PUSH2 0x3CA1 DUP6 DUP7 DUP4 MUL ADD PUSH2 0x420B JUMP JUMPDEST DUP2 DUP2 MSTORE DUP6 DUP2 ADD SWAP1 DUP5 DUP8 ADD PUSH1 0xC0 DUP1 DUP6 MUL DUP8 ADD DUP10 ADD DUP15 LT ISZERO PUSH2 0x3CBF JUMPI DUP10 DUP11 REVERT JUMPDEST DUP10 SWAP7 POP JUMPDEST DUP5 DUP8 LT ISZERO PUSH2 0x3D3F JUMPI DUP1 DUP3 DUP16 SUB SLT ISZERO PUSH2 0x3CD9 JUMPI DUP10 DUP11 REVERT JUMPDEST DUP8 MLOAD DUP2 DUP2 ADD DUP2 DUP2 LT DUP9 DUP3 GT OR ISZERO PUSH2 0x3CEC JUMPI INVALID JUMPDEST DUP1 DUP11 MSTORE POP DUP3 MLOAD DUP2 MSTORE DUP10 DUP4 ADD MLOAD DUP11 DUP3 ADD MSTORE DUP9 DUP4 ADD MLOAD DUP10 DUP3 ADD MSTORE PUSH1 0x60 DUP4 ADD MLOAD PUSH1 0x60 DUP3 ADD MSTORE PUSH1 0x80 DUP4 ADD MLOAD PUSH1 0x80 DUP3 ADD MSTORE PUSH2 0x3D24 PUSH1 0xA0 DUP5 ADD PUSH2 0x3B33 JUMP JUMPDEST PUSH1 0xA0 DUP3 ADD MSTORE DUP5 MSTORE PUSH1 0x1 SWAP7 SWAP1 SWAP7 ADD SWAP6 SWAP3 DUP9 ADD SWAP3 SWAP1 DUP2 ADD SWAP1 PUSH2 0x3CC3 JUMP JUMPDEST POP POP DUP1 SWAP8 POP POP POP POP POP POP POP POP SWAP3 POP SWAP3 POP SWAP3 JUMP JUMPDEST PUSH1 0x0 PUSH1 0xA0 DUP3 DUP5 SUB SLT ISZERO PUSH2 0x3D63 JUMPI DUP1 DUP2 REVERT JUMPDEST PUSH1 0x40 MLOAD PUSH1 0xA0 DUP2 ADD DUP2 DUP2 LT PUSH8 0xFFFFFFFFFFFFFFFF DUP3 GT OR ISZERO PUSH2 0x3D80 JUMPI INVALID JUMPDEST PUSH1 0x40 MSTORE DUP3 MLOAD PUSH5 0xFFFFFFFFFF DUP2 AND DUP2 EQ PUSH2 0x3D97 JUMPI DUP3 DUP4 REVERT JUMPDEST DUP2 MSTORE PUSH1 0x20 DUP4 ADD MLOAD PUSH1 0x1 PUSH1 0x1 PUSH1 0xF8 SHL SUB NOT DUP2 AND DUP2 EQ PUSH2 0x3DB3 JUMPI DUP3 DUP4 REVERT JUMPDEST PUSH1 0x20 DUP3 ADD MSTORE PUSH2 0x3DC4 PUSH1 0x40 DUP5 ADD PUSH2 0x3B4D JUMP JUMPDEST PUSH1 0x40 DUP3 ADD MSTORE PUSH2 0x3DD5 PUSH1 0x60 DUP5 ADD PUSH2 0x3B42 JUMP JUMPDEST PUSH1 0x60 DUP3 ADD MSTORE PUSH2 0x3DE6 PUSH1 0x80 DUP5 ADD PUSH2 0x3B1B JUMP JUMPDEST PUSH1 0x80 DUP3 ADD MSTORE SWAP4 SWAP3 POP POP POP JUMP JUMPDEST PUSH1 0x0 PUSH1 0x20 DUP3 DUP5 SUB SLT ISZERO PUSH2 0x3E03 JUMPI DUP1 DUP2 REVERT JUMPDEST DUP2 CALLDATALOAD PUSH2 0xE70 DUP2 PUSH2 0x4240 JUMP JUMPDEST PUSH1 0x0 DUP1 PUSH1 0x0 PUSH1 0x60 DUP5 DUP7 SUB SLT ISZERO PUSH2 0x3E22 JUMPI DUP1 DUP2 REVERT JUMPDEST DUP4 CALLDATALOAD PUSH2 0x3E2D DUP2 PUSH2 0x4240 JUMP JUMPDEST SWAP3 POP PUSH1 0x20 DUP5 ADD CALLDATALOAD PUSH1 0x1 PUSH1 0x1 PUSH1 0x58 SHL SUB DUP2 AND DUP2 EQ PUSH2 0x3E48 JUMPI DUP2 DUP3 REVERT JUMPDEST SWAP2 POP PUSH1 0x40 DUP5 ADD CALLDATALOAD PUSH2 0x3E58 DUP2 PUSH2 0x422F JUMP JUMPDEST DUP1 SWAP2 POP POP SWAP3 POP SWAP3 POP SWAP3 JUMP JUMPDEST PUSH1 0x0 PUSH1 0x20 DUP3 DUP5 SUB SLT ISZERO PUSH2 0x3E74 JUMPI DUP1 DUP2 REVERT JUMPDEST POP MLOAD SWAP2 SWAP1 POP JUMP JUMPDEST PUSH1 0x1 PUSH1 0x1 PUSH1 0xA0 SHL SUB SWAP2 SWAP1 SWAP2 AND DUP2 MSTORE PUSH1 0x20 ADD SWAP1 JUMP JUMPDEST PUSH1 0x1 PUSH1 0x1 PUSH1 0xA0 SHL SUB SWAP4 DUP5 AND DUP2 MSTORE SWAP2 SWAP1 SWAP3 AND PUSH1 0x20 DUP3 ADD MSTORE PUSH1 0x40 DUP2 ADD SWAP2 SWAP1 SWAP2 MSTORE PUSH1 0x60 ADD SWAP1 JUMP JUMPDEST PUSH1 0x1 PUSH1 0x1 PUSH1 0xA0 SHL SUB SWAP3 SWAP1 SWAP3 AND DUP3 MSTORE DUP1 MLOAD PUSH5 0xFFFFFFFFFF AND PUSH1 0x20 DUP1 DUP5 ADD SWAP2 SWAP1 SWAP2 MSTORE DUP2 ADD MLOAD PUSH1 0x1 PUSH1 0x1 PUSH1 0xF8 SHL SUB NOT AND PUSH1 0x40 DUP1 DUP5 ADD SWAP2 SWAP1 SWAP2 MSTORE DUP2 ADD MLOAD PUSH1 0xFF AND PUSH1 0x60 DUP1 DUP5 ADD SWAP2 SWAP1 SWAP2 MSTORE DUP2 ADD MLOAD PUSH2 0xFFFF AND PUSH1 0x80 DUP1 DUP5 ADD SWAP2 SWAP1 SWAP2 MSTORE ADD MLOAD PUSH1 0x1 PUSH1 0x1 PUSH1 0x70 SHL SUB NOT AND PUSH1 0xA0 DUP3 ADD MSTORE PUSH1 0xC0 ADD SWAP1 JUMP JUMPDEST PUSH1 0x1 PUSH1 0x1 PUSH1 0xA0 SHL SUB SWAP3 SWAP1 SWAP3 AND DUP3 MSTORE PUSH1 0x20 DUP3 ADD MSTORE PUSH1 0x40 ADD SWAP1 JUMP JUMPDEST SWAP1 ISZERO ISZERO DUP2 MSTORE PUSH1 0x20 ADD SWAP1 JUMP JUMPDEST SWAP1 DUP2 MSTORE PUSH1 0x20 ADD SWAP1 JUMP JUMPDEST SWAP2 DUP3 MSTORE ISZERO ISZERO PUSH1 0x20 DUP3 ADD MSTORE PUSH1 0x40 ADD SWAP1 JUMP JUMPDEST PUSH1 0x20 DUP1 DUP3 MSTORE PUSH1 0x4 SWAP1 DUP3 ADD MSTORE PUSH4 0x135A5B9D PUSH1 0xE2 SHL PUSH1 0x40 DUP3 ADD MSTORE PUSH1 0x60 ADD SWAP1 JUMP JUMPDEST PUSH1 0x20 DUP1 DUP3 MSTORE PUSH1 0xB SWAP1 DUP3 ADD MSTORE PUSH11 0x4554482042616C616E6365 PUSH1 0xA8 SHL PUSH1 0x40 DUP3 ADD MSTORE PUSH1 0x60 ADD SWAP1 JUMP JUMPDEST PUSH1 0x20 DUP1 DUP3 MSTORE PUSH1 0x6 SWAP1 DUP3 ADD MSTORE PUSH6 0x52656465656D PUSH1 0xD0 SHL PUSH1 0x40 DUP3 ADD MSTORE PUSH1 0x60 ADD SWAP1 JUMP JUMPDEST PUSH1 0x20 DUP1 DUP3 MSTORE PUSH1 0xD SWAP1 DUP3 ADD MSTORE PUSH13 0x92DCECC2D8D2C840D2DCC8CAF PUSH1 0x9B SHL PUSH1 0x40 DUP3 ADD MSTORE PUSH1 0x60 ADD SWAP1 JUMP JUMPDEST PUSH1 0x20 DUP1 DUP3 MSTORE PUSH1 0x14 SWAP1 DUP3 ADD MSTORE PUSH20 0x496E73756666696369656E742062616C616E6365 PUSH1 0x60 SHL PUSH1 0x40 DUP3 ADD MSTORE PUSH1 0x60 ADD SWAP1 JUMP JUMPDEST PUSH1 0x20 DUP1 DUP3 MSTORE PUSH1 0x13 SWAP1 DUP3 ADD MSTORE PUSH19 0x4163636F756E74206D75737420736574746C65 PUSH1 0x68 SHL PUSH1 0x40 DUP3 ADD MSTORE PUSH1 0x60 ADD SWAP1 JUMP JUMPDEST PUSH1 0x20 DUP1 DUP3 MSTORE PUSH1 0x14 SWAP1 DUP3 ADD MSTORE PUSH20 0x1050CE8818D85B9B9BDD081A185D99481919589D PUSH1 0x62 SHL PUSH1 0x40 DUP3 ADD MSTORE PUSH1 0x60 ADD SWAP1 JUMP JUMPDEST PUSH1 0x20 DUP1 DUP3 MSTORE PUSH1 0xF SWAP1 DUP3 ADD MSTORE PUSH15 0x4F766572206D617820617373657473 PUSH1 0x88 SHL PUSH1 0x40 DUP3 ADD MSTORE PUSH1 0x60 ADD SWAP1 JUMP JUMPDEST PUSH1 0x20 DUP1 DUP3 MSTORE PUSH1 0x13 SWAP1 DUP3 ADD MSTORE PUSH19 0x2AB730BABA3437B934BD32B21031B0B63632B9 PUSH1 0x69 SHL PUSH1 0x40 DUP3 ADD MSTORE PUSH1 0x60 ADD SWAP1 JUMP JUMPDEST PUSH1 0x20 DUP1 DUP3 MSTORE PUSH1 0x17 SWAP1 DUP3 ADD MSTORE PUSH32 0x41433A20696E76616C69642063757272656E6379206964000000000000000000 PUSH1 0x40 DUP3 ADD MSTORE PUSH1 0x60 ADD SWAP1 JUMP JUMPDEST PUSH1 0x20 DUP1 DUP3 MSTORE PUSH1 0x5 SWAP1 DUP3 ADD MSTORE PUSH5 0x455243323 PUSH1 0xDC SHL PUSH1 0x40 DUP3 ADD MSTORE PUSH1 0x60 ADD SWAP1 JUMP JUMPDEST PUSH1 0x20 DUP1 DUP3 MSTORE PUSH1 0x16 SWAP1 DUP3 ADD MSTORE PUSH22 0x41433A2063616E6E6F74206861766520617373657473 PUSH1 0x50 SHL PUSH1 0x40 DUP3 ADD MSTORE PUSH1 0x60 ADD SWAP1 JUMP JUMPDEST PUSH1 0x20 DUP1 DUP3 MSTORE PUSH1 0xE SWAP1 DUP3 ADD MSTORE PUSH14 0x1499595B9D1C985B9D0818D85B1B PUSH1 0x92 SHL PUSH1 0x40 DUP3 ADD MSTORE PUSH1 0x60 ADD SWAP1 JUMP JUMPDEST PUSH1 0x20 DUP1 DUP3 MSTORE PUSH1 0x8 SWAP1 DUP3 ADD MSTORE PUSH8 0x9CCACE4086C2E6D PUSH1 0xC3 SHL PUSH1 0x40 DUP3 ADD MSTORE PUSH1 0x60 ADD SWAP1 JUMP JUMPDEST PUSH1 0x20 DUP1 DUP3 MSTORE PUSH1 0xA SWAP1 DUP3 ADD MSTORE PUSH10 0x2732B390372A37B5B2B7 PUSH1 0xB1 SHL PUSH1 0x40 DUP3 ADD MSTORE PUSH1 0x60 ADD SWAP1 JUMP JUMPDEST PUSH1 0x20 DUP1 DUP3 MSTORE PUSH1 0x13 SWAP1 DUP3 ADD MSTORE PUSH19 0x496E73756666696369656E7420746F6B656E73 PUSH1 0x68 SHL PUSH1 0x40 DUP3 ADD MSTORE PUSH1 0x60 ADD SWAP1 JUMP JUMPDEST PUSH2 0xFFFF SWAP5 SWAP1 SWAP5 AND DUP5 MSTORE PUSH1 0x20 DUP5 ADD SWAP3 SWAP1 SWAP3 MSTORE ISZERO ISZERO PUSH1 0x40 DUP4 ADD MSTORE ISZERO ISZERO PUSH1 0x60 DUP3 ADD MSTORE PUSH1 0x80 ADD SWAP1 JUMP JUMPDEST PUSH1 0x40 MLOAD DUP2 DUP2 ADD PUSH8 0xFFFFFFFFFFFFFFFF DUP2 GT DUP3 DUP3 LT OR ISZERO PUSH2 0x4227 JUMPI INVALID JUMPDEST PUSH1 0x40 MSTORE SWAP2 SWAP1 POP JUMP JUMPDEST DUP1 ISZERO ISZERO DUP2 EQ PUSH2 0x423D JUMPI PUSH1 0x0 DUP1 REVERT JUMPDEST POP JUMP JUMPDEST PUSH2 0xFFFF DUP2 AND DUP2 EQ PUSH2 0x423D JUMPI PUSH1 0x0 DUP1 REVERT INVALID MSTORE8 PUSH2 0x6665 0x4D PUSH2 0x7468 GASPRICE KECCAK256 PUSH14 0x756C7469706C69636174696F6E20 PUSH16 0x766572666C6F77A26469706673582212 KECCAK256 0xCA 0xAC 0xF6 0xAE 0xD8 SAR RETURN SWAP11 0x22 SWAP11 0xBE DUP12 0xCA CODESIZE REVERT BALANCE AND PUSH8 0x261361E582C65B4E 0xF7 SWAP6 SWAP1 0xDF PUSH16 0x5064736F6C6343000706003300000000 ","sha1":"8f32d2b24ff31c337dbfa37fe16a210a28d1606e","source":"// SPDX-License-Identifier: GPL-3.0-only\npragma solidity ^0.7.0;\npragma abicoder v2;\n\nimport \"./ActionGuards.sol\";\nimport \"./nTokenRedeemAction.sol\";\nimport \"../SettleAssetsExternal.sol\";\nimport \"../FreeCollateralExternal.sol\";\nimport \"../../math/SafeInt256.sol\";\nimport \"../../internal/balances/BalanceHandler.sol\";\nimport \"../../internal/AccountContextHandler.sol\";\n\ncontract AccountAction is ActionGuards {\n    using BalanceHandler for BalanceState;\n    using AccountContextHandler for AccountContext;\n    using SafeInt256 for int256;\n\n    event nTokenSupplyChange(address indexed account, uint16 indexed currencyId, int256 tokenSupplyChange);\n\n    /// @notice Enables a bitmap currency for msg.sender, account cannot have any assets when this call\n    /// occurs.\n    /// @param currencyId the currency to enable the bitmap for. If set to zero then will attempt to disable\n    /// the bitmap portfolio for the account\n    /// @dev emit:AccountSettled emit:AccountContextUpdate\n    /// @dev auth:msg.sender\n    function enableBitmapCurrency(uint16 currencyId) external {\n        require(msg.sender != address(this)); // dev: no internal call to enableBitmapCurrency\n        require(currencyId <= maxCurrencyId); // dev: invalid currency id\n        address account = msg.sender;\n        (AccountContext memory accountContext, /* didSettle */) = _settleAccountIfRequired(account);\n        accountContext.enableBitmapForAccount(account, currencyId, block.timestamp);\n        accountContext.setAccountContext(account);\n    }\n\n    /// @notice Method for manually settling an account, generally should not be called because other\n    /// methods will check if an account needs to be settled automatically. If a bitmap account has debt\n    /// and is settled via this method, the hasDebt flag will not be cleared until a free collateral check\n    /// is performed on the account.\n    /// @param account the account to settle\n    /// @dev emit:AccountSettled emit:AccountContextUpdate\n    /// @dev auth:none\n    /// @return returns true if account has been settled\n    function settleAccount(address account) external returns (bool) {\n        requireValidAccount(account);\n        (AccountContext memory accountContext, bool didSettle) = _settleAccountIfRequired(account);\n        if (didSettle) accountContext.setAccountContext(account);\n        return didSettle;\n    }\n\n    /// @notice Deposits and wraps the underlying token for a particular cToken. Does not settle assets or check free\n    /// collateral, idea is to be as gas efficient as possible during potential liquidation events.\n    /// @param account the account to deposit into\n    /// @param currencyId currency id of the asset token that wraps this underlying\n    /// @param amountExternalPrecision the amount of underlying tokens in its native decimal precision\n    /// (i.e. 18 decimals for DAI or 6 decimals for USDC). This will be converted to 8 decimals during transfer.\n    /// @return asset tokens minted and deposited to the account in internal decimals (8)\n    /// @dev emit:CashBalanceChange emit:AccountContextUpdate\n    /// @dev auth:none\n    function depositUnderlyingToken(\n        address account,\n        uint16 currencyId,\n        uint256 amountExternalPrecision\n    ) external payable nonReentrant returns (uint256) {\n        require(msg.sender != address(this)); // dev: no internal call to deposit underlying\n        requireValidAccount(account);\n\n        AccountContext memory accountContext = AccountContextHandler.getAccountContext(account);\n        BalanceState memory balanceState;\n        balanceState.loadBalanceState(account, currencyId, accountContext);\n\n        // NOTE: using msg.sender here allows for a different sender to deposit tokens into\n        // the specified account. This may be useful for on-demand collateral top ups from a\n        // third party. If called with currencyId == 1 then `depositAssetToken` will access\n        // msg.value to mint cETH from ETH.\n        int256 assetTokensReceivedInternal = balanceState.depositUnderlyingToken(\n            msg.sender,\n            SafeInt256.toInt(amountExternalPrecision)\n        );\n\n        require(assetTokensReceivedInternal > 0); // dev: asset tokens negative or zero\n\n        balanceState.finalize(account, accountContext, false);\n        accountContext.setAccountContext(account);\n\n        // NOTE: no free collateral checks required for depositing\n        return assetTokensReceivedInternal.toUint();\n    }\n\n    /// @notice Deposits asset tokens into an account. Does not settle or check free collateral, idea is to\n    /// make deposit as gas efficient as possible during potential liquidation events.\n    /// @param account the account to deposit into\n    /// @param currencyId currency id of the asset token\n    /// @param amountExternalPrecision the amount of asset tokens in its native decimal precision\n    /// (i.e. 8 decimals for cTokens).\n    /// @return asset tokens minted and deposited to the account in internal decimals (8)\n    /// @dev emit:CashBalanceChange emit:AccountContextUpdate\n    /// @dev auth:none\n    function depositAssetToken(\n        address account,\n        uint16 currencyId,\n        uint256 amountExternalPrecision\n    ) external nonReentrant returns (uint256) {\n        require(msg.sender != address(this)); // dev: no internal call to deposit asset\n        requireValidAccount(account);\n\n        AccountContext memory accountContext = AccountContextHandler.getAccountContext(account);\n        BalanceState memory balanceState;\n        balanceState.loadBalanceState(account, currencyId, accountContext);\n\n        // Int conversion overflow check done inside this method call. msg.sender\n        // is used as the account in deposit to allow for other accounts to deposit\n        // on behalf of the given account.\n        int256 assetTokensReceivedInternal = balanceState.depositAssetToken(\n            msg.sender,\n            SafeInt256.toInt(amountExternalPrecision),\n            true // force transfer to ensure that msg.sender does the transfer, not account\n        );\n\n        require(assetTokensReceivedInternal > 0); // dev: asset tokens negative or zero\n\n        balanceState.finalize(account, accountContext, false);\n        accountContext.setAccountContext(account);\n\n        // NOTE: no free collateral checks required for depositing\n        return assetTokensReceivedInternal.toUint();\n    }\n\n    /// @notice Withdraws balances from Notional, may also redeem to underlying tokens on user request. Will settle\n    /// and do free collateral checks if required. Can only be called by msg.sender, operators who want to withdraw for\n    /// an account must do an authenticated call via ERC1155Action `safeTransferFrom` or `safeBatchTransferFrom`\n    /// @param currencyId currency id of the asset token\n    /// @param amountInternalPrecision the amount of cash balance in internal 8 decimal precision to withdraw,\n    /// this is be denominated in asset cash.\n    /// @param redeemToUnderlying true if the tokens should be converted to underlying assets\n    /// @dev emit:CashBalanceChange emit:AccountContextUpdate\n    /// @dev auth:msg.sender\n    /// @return the amount of tokens received by the account denominated in the destination token precision (if\n    // redeeming to underlying the amount will be the underlying amount received in that token's native precision)\n    function withdraw(\n        uint16 currencyId,\n        uint88 amountInternalPrecision,\n        bool redeemToUnderlying\n    ) external nonReentrant returns (uint256) {\n        // This happens before reading the balance state to get the most up to date cash balance\n        (AccountContext memory accountContext, /* didSettle */) = _settleAccountIfRequired(msg.sender);\n\n        BalanceState memory balanceState;\n        balanceState.loadBalanceState(msg.sender, currencyId, accountContext);\n        require(balanceState.storedCashBalance >= amountInternalPrecision, \"Insufficient balance\");\n        // Overflow is not possible due to uint88\n        balanceState.netAssetTransferInternalPrecision = int256(amountInternalPrecision).neg();\n\n        int256 amountWithdrawnExternal = balanceState.finalize(msg.sender, accountContext, redeemToUnderlying);\n\n        accountContext.setAccountContext(msg.sender);\n\n        if (accountContext.hasDebt != 0x00) {\n            FreeCollateralExternal.checkFreeCollateralAndRevert(msg.sender);\n        }\n\n        require(amountWithdrawnExternal <= 0);\n        return amountWithdrawnExternal.neg().toUint();\n    }\n\n    /// @notice Allows accounts to redeem nTokens into constituent assets and then absorb the assets\n    /// into their portfolio. Due to the complexity here, it is not allowed to be called during a batch trading\n    /// operation and must be done separately.\n    /// @param redeemer the address that holds the nTokens to redeem\n    /// @param currencyId the currency associated the nToken\n    /// @param tokensToRedeem_ the amount of nTokens to convert to cash\n    /// @param sellTokenAssets attempt to sell residual fCash and convert to cash\n    /// @param acceptResidualAssets if true, will place any residual fCash that could not be sold (either due to slippage\n    /// or because it was idiosyncratic) into the account's portfolio\n    /// @dev auth:msg.sender auth:ERC1155\n    /// @return total amount of asset cash redeemed\n    /// @return true or false if there were residuals that were placed into the portfolio\n    function nTokenRedeem(\n        address redeemer,\n        uint16 currencyId,\n        uint96 tokensToRedeem_,\n        bool sellTokenAssets,\n        bool acceptResidualAssets\n    ) external nonReentrant returns (int256, bool) {\n        // ERC1155 can call this method during a post transfer event\n        require(msg.sender == redeemer || msg.sender == address(this), \"Unauthorized caller\");\n        int256 tokensToRedeem = int256(tokensToRedeem_);\n\n        (AccountContext memory context, /* didSettle */) = _settleAccountIfRequired(redeemer);\n\n        BalanceState memory balance;\n        balance.loadBalanceState(redeemer, currencyId, context);\n\n        require(balance.storedNTokenBalance >= tokensToRedeem, \"Insufficient tokens\");\n        balance.netNTokenSupplyChange = tokensToRedeem.neg();\n\n        (int256 totalAssetCash, bool hasResidual, PortfolioAsset[] memory assets) =\n            nTokenRedeemAction.redeem(currencyId, tokensToRedeem, sellTokenAssets, acceptResidualAssets);\n\n        // Set balances before transferring assets\n        balance.netCashChange = totalAssetCash;\n        balance.finalize(redeemer, context, false);\n\n        if (hasResidual) {\n            // This method will store assets and update the account context in memory\n            context = TransferAssets.placeAssetsInAccount(redeemer, context, assets);\n        }\n\n        context.setAccountContext(redeemer);\n        if (context.hasDebt != 0x00) {\n            FreeCollateralExternal.checkFreeCollateralAndRevert(redeemer);\n        }\n\n        emit nTokenSupplyChange(redeemer, currencyId, balance.netNTokenSupplyChange);\n        return (totalAssetCash, hasResidual);\n    }\n\n    /// @notice Settle the account if required, returning a reference to the account context. Also\n    /// returns a boolean to indicate if it did settle.\n    function _settleAccountIfRequired(address account)\n        private\n        returns (AccountContext memory, bool)\n    {\n        AccountContext memory accountContext = AccountContextHandler.getAccountContext(account);\n        if (accountContext.mustSettleAssets()) {\n            return (SettleAssetsExternal.settleAccount(account, accountContext), true);\n        } else {\n            return (accountContext, false);\n        }\n    }\n}\n","sourcePath":"contracts/external/actions/AccountAction.sol","deployment":{"address":"0x71cd56cA7aF7116fa9a423dE022868A52ecB3b07","chainid":"42","blockHeight":28606968}}