{"bytecode":"608060405234801561001057600080fd5b50614682806100206000396000f3fe6080604052600436106100705760003560e01c80636e6a32a61161004e5780636e6a32a6146100c857806382463367146100db5780638da5cb5b146100f0578063c4c96dae1461010557610070565b80630276b64b1461007557806324a3d6221461008a5780635950d8e9146100b5575b600080fd5b610088610083366004613cf2565b61012c565b005b34801561009657600080fd5b5061009f6101bc565b6040516100ac919061410f565b60405180910390f35b6100886100c3366004613d43565b6101cb565b6100886100d6366004613de8565b6102fb565b3480156100e757600080fd5b5061009f610481565b3480156100fc57600080fd5b5061009f610490565b34801561011157600080fd5b5061011a6104a7565b6040516100ac9695949392919061416c565b6002600a5414156101585760405162461bcd60e51b815260040161014f9061449c565b60405180910390fd5b6002600a556001600160a01b03831633148061017357503330145b61018f5760405162461bcd60e51b815260040161014f9061438b565b6101988361052d565b60006101a584848461057c565b90506101b184826108d4565b50506001600a555050565b6002546001600160a01b031681565b3360009081526008602052604090205460ff166101fa5760405162461bcd60e51b815260040161014f9061438b565b6102038561052d565b600061021086868661057c565b905061021c8187610955565b60405163550d065760e11b8152339063aa1a0cae906102459083908a9088908890600401614123565b600060405180830381600087803b15801561025f57600080fd5b505af1158015610273573d6000803e3d6000fd5b5050505060208101516001600160f81b031916156102f357604051636ccc642f60e01b815273__FreeCollateralExternal________________90636ccc642f906102c290899060040161410f565b60006040518083038186803b1580156102da57600080fd5b505af41580156102ee573d6000803e3d6000fd5b505050505b505050505050565b6002600a54141561031e5760405162461bcd60e51b815260040161014f9061449c565b6002600a556001600160a01b03831633148061033957503330145b6103555760405162461bcd60e51b815260040161014f9061438b565b61035e8361052d565b600061036984610a59565b9050610373613a3a565b60005b8381101561046a573685858381811061038b57fe5b905060c00201905060008211156103f8578585600184038181106103ab57fe5b905060c0020160200160208101906103c39190614047565b61ffff166103d76040830160208401614047565b61ffff16116103f85760405162461bcd60e51b815260040161014f9061443b565b6104158761040c6040840160208501614047565b85919087610b15565b61043187846104276020850185613e85565b8460400135610bbb565b610461878585606085013561044c60a0870160808801613e69565b61045c60c0880160a08901613e69565b610c8e565b50600101610376565b5061047585836108d4565b50506001600a55505050565b6001546001600160a01b031681565b60005464010000000090046001600160a01b031681565b73__FreeCollateralExternal________________73__MigrateIncentives_____________________73__SettleAssetsExternal__________________73__TradingAction_________________________73__nTokenMintAction______________________73__nTokenRedeemAction____________________909192939495565b6001600160a01b03811661054057600080fd5b6001600160a01b03811630141561055657600080fd5b600061056182610d11565b5050505061ffff1690508060001461057857600080fd5b5050565b610584613a8a565b600061058f85610a59565b9050610599613a3a565b60006105ab8784604001516000610d7a565b905060005b858110156108ac57368787838181106105c557fe5b90506020028101906105d791906145c7565b90508115610646578787600184038181106105ee57fe5b905060200281019061060091906145c7565b610611906040810190602001614047565b61ffff166106256040830160208401614047565b61ffff16116106465760405162461bcd60e51b815260040161014f9061443b565b6106638961065a6040840160208501614047565b86919088610b15565b61067589856104276020850185613e85565b600061068460c0830183614580565b9050111561088857600061069786610e0d565b156107a4576106ac6040830160208401614047565b61ffff16866060015161ffff16146106d65760405162461bcd60e51b815260040161014f906144e6565b6060860151865160009173__TradingAction_________________________91633643f39b918e9161070b60c0890189614580565b6040518663ffffffff1660e01b815260040161072b9594939291906142d0565b604080518083038186803b15801561074257600080fd5b505af4158015610756573d6000803e3d6000fd5b505050506040513d601f19601f8201168201806040525081019061077a9190613ebc565b9092509050801561079e57602087018051600160f81b176001600160f81b03191690525b50610857565b73__TradingAction_________________________63b58f83ed8b6107cf6040860160208701614047565b876107dd60c0880188614580565b6040518663ffffffff1660e01b81526004016107fd959493929190614212565b60006040518083038186803b15801561081557600080fd5b505af4158015610829573d6000803e3d6000fd5b505050506040513d6000823e601f3d908101601f191682016040526108519190810190613f8b565b90945090505b6000811215610872576108728561086d83610e1a565b610e28565b60608501516108819082610e77565b6060860152505b6108a3898686606085013561044c60a0870160808801613e69565b506001016105b0565b506108b683610e0d565b6108c7576108c78388836000610e93565b50909150505b9392505050565b6108de8183610955565b60208101516001600160f81b0319161561057857604051636ccc642f60e01b815273__FreeCollateralExternal________________90636ccc642f9061092990859060040161410f565b60006040518083038186803b15801561094157600080fd5b505af41580156102f3573d6000803e3d6000fd5b600061095f610f75565b6001600160a01b03831660008181526020838152604080832088518154938a0151838b015160608c015160808d015160701c600160481b027affffffffffffffffffffffffffffffffffff0000000000000000001961ffff909216600160381b0268ffff000000000000001960ff94909416600160301b0266ff0000000000001960f89690961c650100000000000265ff00000000001964ffffffffff90981664ffffffffff19909b169a909a1796909616989098179390931693909317169490941716929092179091555192935090917f6bd4b121bca854a191536a2ca891155c42ee2fb23f307fb34e8bc65cfcb5412e9190a2505050565b610a61613a8a565b6000610a6c83610f82565b9050610a7781611023565b15610b0d576040516337b5fc2160e11b815273__SettleAssetsExternal__________________90636f6bf84290610ab590869085906004016141a6565b60a06040518083038186803b158015610acd57600080fd5b505af4158015610ae1573d6000803e3d6000fd5b505050506040513d601f19601f82011682018060405250810190610b059190613eeb565b915050610b10565b90505b919050565b8161ffff166000108015610b2f5750613fff61ffff831611155b610b3857600080fd5b61ffff8216808552610b4b908290611074565b15610b7857610b5e838361ffff166110fe565b61010088015260e087015260408601526020850152610b96565b6000602085018190526040850181905260e085018190526101008501525b50506000606083018190526080830181905260a0830181905260c09092019190915250565b6000610bc6826111aa565b9050600080821215610bd757600080fd5b6000846006811115610be557fe5b1415610bf2575050610c88565b6001846006811115610c0057fe5b1480610c1757506003846006811115610c1557fe5b145b15610c3057610c2985878460006111c4565b9050610c7c565b6002846006811115610c3e57fe5b1480610c5557506004846006811115610c5357fe5b145b15610c6557610c2985878461129f565b6006846006811115610c7357fe5b1415610c7c5750805b6102f385858484611384565b50505050565b6000610c99846111aa565b90506000811215610ca957600080fd5b8215610ce757610cd88560800151610cd287606001518860200151610e7790919063ffffffff16565b90610e77565b90506000811215610ce7575060005b6080850151610cf6908261159f565b6080860152610d07858888856115b5565b5050505050505050565b600080600080600080610d22611830565b6001600160a01b039097166000908152602097909752505060409094205461ffff81169563ffffffff62010000830481169650600160301b830416945060ff600160501b8304169350600160581b90910460d81b9150565b610d82613ab8565b610d8a613ab8565b60ff8416610d995790506108cd565b610da3858561183d565b815260ff841660608201528267ffffffffffffffff81118015610dc557600080fd5b50604051908082528060200260200182016040528015610dff57816020015b610dec613ae0565b815260200190600190039081610de45790505b506020820152949350505050565b6060015161ffff16151590565b6000610b0d60001983611866565b60008112158015610e5b575080610e588360800151610cd285606001518660200151610e7790919063ffffffff16565b12155b6105785760405162461bcd60e51b815260040161014f90614541565b81810182811215600083121514610e8d57600080fd5b92915050565b6000808080610ea286886118b4565b64ffffffffff81168c5292965090945092509050610ebf88611023565b15610ec957600080fd5b60ff8216604089015284610ee857600760ff83161115610ee857600080fd5b8315610f0b57602088018051600160f81b176001600160f81b0319169052610f1a565b602088018051607f60f91b1690525b610f278860800151611af3565b6001600160701b031916608089015260005b8315610f6a5760f084901c818114610f5c57610f5c8a826001600160ff1b611b6e565b60109490941b939050610f39565b505050505050505050565b600080610e8d6001611d6d565b610f8a613a8a565b6000610f94610f75565b6001600160a01b039390931660009081526020938452604090819020815160a081018352905464ffffffffff8116825265010000000000810460f81b6001600160f81b03191695820195909552600160301b850460ff1691810191909152600160381b840461ffff166060820152600160481b90930460701b6001600160701b03191660808401525090919050565b60004261102f83610e0d565b156110505761103d81611d86565b835164ffffffffff16109150610b109050565b825164ffffffffff1615801590610b055750825164ffffffffff1611159050610b10565b600081158015906110875750613fff8211155b61109057600080fd5b6080830151606084015161ffff168314156110af576001915050610e8d565b6001600160701b03198116156110f45760f081901c613fff16838114156110e15750600160fe1b908116149050610e8d565b5060101b6001600160801b0319166110af565b5060009392505050565b600080600080600061110e611da4565b6001600160a01b0388166000908152602082815260408083208a84529091529020805469ffffffffffffffffffff81169650600160501b900463ffffffff169450909150831561117a57805461117390600160701b900466ffffffffffffff16611db1565b925061118f565b8054600160701b900466ffffffffffffff1692505b54600160a81b9004600a90810b900b97939650919450925050565b60006001600160ff1b038211156111c057600080fd5b5090565b6000826111d357506000611297565b600083136111e057600080fd5b60006111f3866000015161ffff16611dbf565b905060058160600151600581111561120757fe5b141561122057855161121d9061ffff1685611dd2565b93505b80602001518061122d5750825b15611274578551600090611249908390889061ffff1688611e59565b90506112558282611f01565b60608801519093506112679084610e77565b6060880152506112979050565b61127e8185611f01565b60808701519092506112909083610e77565b6080870152505b949350505050565b6000816112ae575060006108cd565b600082136112bb57600080fd5b60006112ce856000015161ffff16611f37565b90506003816060015160058111156112e257fe5b141561130c573483146113075760405162461bcd60e51b815260040161014f906143cf565b611323565b8451611320908290869061ffff1686611e59565b92505b6000611336866000015161ffff16611dbf565b90506000611353876000015161134b87611f4a565b849190611f59565b905060006113618383611f01565b60608901519091506113739082610e77565b606089015293505050509392505050565b600383600681111561139257fe5b14806113a9575060048360068111156113a757fe5b145b806113bf575060068360068111156113bd57fe5b145b1561148b576113ce8482610e28565b60608401516113dd908261159f565b60608501528351604051632128561360e11b815260009173__nTokenMintAction______________________91634250ac269161141e91869060040161456c565b60206040518083038186803b15801561143657600080fd5b505af415801561144a573d6000803e3d6000fd5b505050506040513d601f19601f8201168201806040525081019061146e9190613ea4565b60c08601519091506114809082610e77565b60c086015250610c88565b600583600681111561149957fe5b1415610c8857816114c38560c00151610cd28760a001518860400151610e7790919063ffffffff16565b12156114e15760405162461bcd60e51b815260040161014f90614465565b60c08401516114f0908361159f565b60c085015283516040516352e73f7760e01b815260009173__nTokenRedeemAction____________________916352e73f779161153191879060040161456c565b60206040518083038186803b15801561154957600080fd5b505af415801561155d573d6000803e3d6000fd5b505050506040513d601f19601f820116820180604052508101906115819190613ea4565b60608601519091506115939082610e77565b60608601525050505050565b80820382811315600083121514610e8d57600080fd5b60008060008660a0015112156116085760006115ea8760a00151610cd28960c001518a60400151610e7790919063ffffffff16565b12156116085760405162461bcd60e51b815260040161014f9061451d565b60008660800151121561165857600061163a8760800151610cd289606001518a60200151610e7790919063ffffffff16565b12156116585760405162461bcd60e51b815260040161014f906144c4565b61166386868561204a565b60808801819052606088015191935060009161167e91610e77565b905080156116eb5760208701516116959082610e77565b602088015286516040516001935061ffff909116906001600160a01b038816907f5441e4a5fac93a951d782e6f1cdb82e95c8fc58561a013953d17e395c5e69b4b906116e2908590614382565b60405180910390a35b60a0870151151580611700575060c087015115155b156117a657600061172a8860c00151610cd28a60a001518b60400151610e7790919063ffffffff16565b905061173f888861173a84611f4a565b612100565b506040880181905260c0880151156117a057876000015161ffff16876001600160a01b03167f412bc13d202a2ea5119e55fec9c5e420dddb18faf186373ad9795ad4f4545aa98a60c001516040516117979190614382565b60405180910390a35b60019250505b81156117d3576117d386886000015161ffff1689602001518a604001518b60e001518c61010001516121ed565b865160208801516118009161ffff16901515806117f35750604089015115155b879190600160fe1b611b6e565b60008760200151121561182657602085018051600160f91b176001600160f81b03191690525b5050949350505050565b600080610e8d6002611d6d565b6060600061184b848461233d565b9050600181511161185d579050610e8d565b6108cd8161245f565b8181026000198314156118965781158061188857508282828161188557fe5b05145b61189157600080fd5b610e8d565b8215806118ab5750818382816118a857fe5b05145b610e8d57600080fd5b6000808080808080805b8951518110156119455760008a6000015182815181106118da57fe5b602002602001015190506003808111156118f057fe5b8160a00151600381111561190057fe5b141561190b57600080fd5b60028160a00151600381111561191d57fe5b1415801561192d57506060810151155b1561193c5761193c8b83612618565b506001016118be565b5060005b8951518110156119e85760008a60000151828151811061196557fe5b602002602001015190506002600381111561197c57fe5b8160a00151600381111561198c57fe5b14156119a0576080810151600090556119df565b60018160a0015160038111156119b257fe5b14156119cb576080810151806119c88382612767565b50505b6119d781868686612898565b919650945092505b50600101611949565b50606089015160006119f86128fb565b6001600160a01b038b1660009081526020829052604081209192505b8c6020015151811015611ac25760008d602001518281518110611a3357fe5b60200260200101519050806060015160001415611a505750611aba565b60028160a001516003811115611a6257fe5b14158015611a80575060038160a001516003811115611a7d57fe5b14155b611a8957600080fd5b611a9581898989612898565b91995097509550611ab281848760108110611aac57fe5b01612767565b600185019450505b600101611a14565b5060108311158015611ad9575064ffffffffff8411155b611ae257600080fd5b50939a929950975095509350505050565b6000807f7fff7fff7fff7fff7fff7fff7fff7fff7fff00000000000000000000000000008316815b6001600160701b0319821615611b6557600160fe1b8281161415611b4f576001600160f01b03198216811c92909217916010015b6010826001600160701b031916901b9150611b1b565b50909392505050565b826000108015611b805750613fff8311155b611b8957600080fd5b818015611b9d575082846060015161ffff16145b15611ba757610c88565b6080840151600090815b6001600160701b0319821615611d225760f082901c613fff168681148015611bd65750855b15611c0e57506080870180516001600160f01b0319861660109093029290921c919091176001600160701b031916905250610c889050565b8681148015611c1b575085155b15611c70576001600160f01b03198516199290921691600360fe1b8316611c4e576010836001600160701b031916901b92505b506001600160701b031991821660109091021c91909117166080850152610c88565b8681118015611c7c5750855b15611cd6576080888101516001600160f01b031960f08a901b88178116601086021c9690961795911b1615611cb057600080fd5b506001600160701b03199182166001919091016010021c91909117166080850152610c88565b8681118015611ce3575085155b15611cf15750505050610c88565b506001600160f01b0319821660108281029190911c93909317929190911b6001600160801b03191690600101611bb1565b84611d2f57505050610c88565b60098110611d3c57600080fd5b6001600160f01b031960f087901b85171660109091021c919091176001600160701b03191660808601525050505050565b6000620f4240826013811115611d7f57fe5b0192915050565b600062015180821015611d9857600080fd5b50620151808106900390565b600080610e8d6006611d6d565b600881901c60ff9091161b90565b611dc7613b20565b610b0d826000612908565b600081611de157506000610e8d565b60008213611dee57600080fd5b6000611df984611f37565b90506000611e0a82600001516129b6565b9050600281056b033b2e3c9fd0803ce80000006001600160ff1b0382900305851315611e3557600080fd5b81816b033b2e3c9fd0803ce800000087020181611e4e57fe5b059695505050505050565b80600585606001516005811115611e6c57fe5b1415611e91576000611e7d84611f37565b9050611e8d816000015184612a41565b9250505b6000821315611ebd576000611ea7868685612ad3565b9050856020015115611eb7578091505b50611297565b600385606001516005811115611ecf57fe5b1415611eec57611ee784611ee284610e1a565b612bc6565b611297565b84516112979085611efc85610e1a565b612c01565b60006305f5e10083604001511415611f1a575080610e8d565b60408301516108cd90611f31846305f5e100611866565b90612c78565b611f3f613b20565b610b0d826001612908565b6000808212156111c057600080fd5b600080600585606001516005811115611f6e57fe5b14611f80576370a0823160e01b611f89565b630ed1279f60e11b5b90506000611f9c86600001513084612ca9565b9050600586606001516005811115611fb057fe5b1415611fd7576000611fc58661ffff16611f37565b9050611fd18186612dbb565b5061201a565b600186606001516005811115611fe957fe5b1415611ff957611fd18685612e26565b60028660600151600581111561200b57fe5b14156100705761201a86612ed2565b600061202b87600001513085612ca9565b905061203f61203a8284612f11565b6111aa565b979650505050505050565b6000806000612060866000015161ffff16611dbf565b9050600061207b876080015183612f6e90919063ffffffff16565b905080612090576000809350935050506120f8565b84801561209d5750600081125b156120d25786516120bf9061ffff16876120b684610e1a565b85929190612fa6565b93506120cb8282611f01565b92506120f5565b86516120e6908390889061ffff1684611e59565b93506120f28285611f01565b92505b50505b935093915050565b8251600090429082906121169061ffff16613041565b90506000612129828860c0015185613067565b90506121378783838861314a565b9350600061214483613277565b90506001600160a01b038116156121d257806001600160a01b0316631d684dd2888a600001516121778c60400151611f4a565b8a8d60c001518b6040518763ffffffff1660e01b815260040161219f96959493929190614299565b600060405180830381600087803b1580156121b957600080fd5b505af11580156121cd573d6000803e3d6000fd5b505050505b84156121e2576121e287866132e9565b505050509392505050565b60006121f7611da4565b6001600160a01b0388166000908152602082815260408083208a845290915290209091506a7fffffffffffffffffffff19861280159061224257506a7fffffffffffffffffffff8613155b61224b57600080fd5b60008512158015612266575069ffffffffffffffffffff8513155b61226f57600080fd5b836122af5766ffffffffffffff83111561228857600080fd5b805466ffffffffffffff60701b1916600160701b66ffffffffffffff8516021781556122c9565b8054600160501b900463ffffffff1684146122c957600080fd5b8054600a9690960b6affffffffffffffffffffff16600160a81b026001600160a81b0369ffffffffffffffffffff90961669ffffffffffffffffffff1963ffffffff909616600160501b0263ffffffff60501b19909816979097179490941695909517939093169190911790925550505050565b606060108260ff16111561235057600080fd5b600061235a6128fb565b6001600160a01b038516600090815260208290526040812091925060ff851667ffffffffffffffff8111801561238f57600080fd5b506040519080825280602002602001820160405280156123c957816020015b6123b6613ae0565b8152602001906001900390816123ae5790505b50905060005b8560ff168110156124555760008382601081106123e857fe5b01905060008383815181106123f957fe5b602090810291909101810151835461ffff8116825264ffffffffff620100008204169282019290925260ff600160381b8304166040820152600160401b909104600a90810b900b606082015260800191909152506001016123cf565b5095945050505050565b805160008167ffffffffffffffff8111801561247a57600080fd5b506040519080825280602002602001820160405280156124a4578160200160208202803683370190505b50905060005b828110156125015760008482815181106124c057fe5b602002602001015190506124e1816000015182602001518360400151613308565b8383815181106124ed57fe5b6020908102919091010152506001016124aa565b5060015b82811015610c8857805b600081118015612547575082818151811061252657fe5b602002602001015183600183038151811061253d57fe5b6020026020010151115b1561260f5782818151811061255857fe5b602002602001015183600183038151811061256f57fe5b602002602001015184600184038151811061258657fe5b6020026020010185848151811061259957fe5b60200260200101828152508281525050508481815181106125b657fe5b60200260200101518560018303815181106125cd57fe5b60200260200101518660018403815181106125e457fe5b602002602001018784815181106125f757fe5b6020908102919091010191909152526000190161250f565b50600101612505565b815151811061262657600080fd5b600082606001511161263757600080fd5b60008260000151828151811061264957fe5b602002602001015190506002600381111561266057fe5b8160a00151600381111561267057fe5b1415801561268e575060038160a00151600381111561268b57fe5b14155b61269757600080fd5b606083018051600019019052600080805b85515181101561270a576000866000015182815181106126c457fe5b602002602001015190508281608001511180156126f1575060028160a0015160038111156126ee57fe5b14155b1561270157806080015192508193505b506001016126a8565b5081841415612723575050600260a09190910152610578565b60008560000151838151811061273557fe5b602090810291909101015160808581018051918301805190915252600160a09182015260029401939093525050505050565b81511580159061277a57508151613fff10155b61278357600080fd5b816020015160001080156127a05750602082015164ffffffffff10155b6127a957600080fd5b816040015160001080156127c257506040820151600810155b6127cb57600080fd5b60608201516a7fffffffffffffffffffff19138015906127fa575060608201516a7fffffffffffffffffffff12155b61280357600080fd5b8151815460208401516040850151606090950151600a0b6affffffffffffffffffffff16600160401b0272ffffffffffffffffffffff00000000000000001960ff909616600160381b0267ff000000000000001964ffffffffff909316620100000266ffffffffff00001961ffff90961661ffff19909516949094179490941692909217169190911792909216919091179055565b6000806000806128a788613363565b90508415806128b557508085115b156128be578094505b86806128ce575060008860600151125b965061ffff8616156128df57600080fd5b50509451939560109390931c60f09490941b9390931793509150565b600080610e8d600d611d6d565b612910613b20565b600061291a6133d0565b6000858152602082815260408083208715158452825291829020825160a08101845281546001600160a01b038116825260ff600160a01b82048116151594830194909452600160b01b81048416600a0a9482019490945293945092916060830191600160a81b90910416600581111561298f57fe5b81529154600160b81b900468ffffffffffffffffff16602090920191909152949350505050565b6000610b0d6129c36133dd565b5460405163d15e005360e01b81526001600160a01b039091169063d15e0053906129f190869060040161410f565b60206040518083038186803b158015612a0957600080fd5b505afa158015612a1d573d6000803e3d6000fd5b505050506040513d601f19601f8201168201806040525081019061203a9190613ea4565b600081612a5057506000610e8d565b6000612a5b846129b6565b90506000612a68846133ea565b9050816b019d971e4fe8401e74000001600160ff1b0381612a8557fe5b05811315612a9257600080fd5b6b033b2e3c9fd0803ce80000006b019d971e4fe8401e74000000838302010560008513612ac757612ac281610e1a565b612ac9565b805b9695505050505050565b6000808080600587606001516005811115612aea57fe5b14612afc576370a0823160e01b612b05565b630ed1279f60e11b5b9050866020015115612b21578651612b1e903083612ca9565b92505b8651612b2e90878761340b565b866020015180612b42575060008760800151115b15612b57578651612b54903083612ca9565b91505b608087015115612b92576000612b7588612b70856111aa565b611f01565b9050612b8488608001516111aa565b811315612b9057600080fd5b505b866020015115612bb357612ba961203a8385612f11565b93505050506108cd565b612ba9856111aa565b5050509392505050565b6040516001600160a01b0383169082156108fc029083906000818181858888f19350505050158015612bfc573d6000803e3d6000fd5b505050565b826001600160a01b031663a9059cbb83836040518363ffffffff1660e01b815260040180836001600160a01b0316815260200182815260200192505050600060405180830381600087803b158015612c5857600080fd5b505af1158015612c6c573d6000803e3d6000fd5b50505050612bfc613463565b600081600019148015612c8e5750600160ff1b83145b15612c9857600080fd5b818381612ca157fe5b059392505050565b604080516001600160a01b0384811660248084019190915283518084039091018152604490920183526020820180516001600160e01b03166001600160e01b0319861617815292518251600094859485948a16939092909182918083835b60208310612d265780518252601f199092019160209182019101612d07565b6001836020036101000a038019825116818451168082178552505050505050905001915050600060405180830381855afa9150503d8060008114612d86576040519150601f19603f3d011682016040523d82523d6000602084013e612d8b565b606091505b509150915081612d9a57600080fd5b808060200190516020811015612daf57600080fd5b50519695505050505050565b612dc36133dd565b54825160405163e8eda9df60e01b81526001600160a01b039092169163e8eda9df91612df8918590309060009060040161432f565b600060405180830381600087803b158015612e1257600080fd5b505af11580156102f3573d6000803e3d6000fd5b60008083600001516001600160a01b031663a0712d68846040518263ffffffff1660e01b8152600401612e599190614382565b602060405180830381600087803b158015612e7357600080fd5b505af1158015612e87573d6000803e3d6000fd5b505050506040513d601f19601f82011682018060405250810190612eab9190613ea4565b90508015612ecb5760405162461bcd60e51b815260040161014f906143b1565b5092915050565b80600001516001600160a01b0316631249c58b346040518263ffffffff1660e01b81526004016000604051808303818588803b158015612e1257600080fd5b600082821115612f68576040805162461bcd60e51b815260206004820152601e60248201527f536166654d6174683a207375627472616374696f6e206f766572666c6f770000604482015290519081900360640190fd5b50900390565b60006305f5e10083604001511415612f87575080610e8d565b6108cd6305f5e100611f3185604001518561186690919063ffffffff16565b600080600286606001516005811115612fbb57fe5b1415612fd357612fcc8685856134d0565b9050613030565b6000612fde86611f37565b9050600587606001516005811115612ff257fe5b141561300a5761300381868661358d565b915061302e565b60018760600151600581111561301c57fe5b14156100705761300387828787613643565b505b612ac961303c826111aa565b610e1a565b60008061304c613741565b6000938452602052505060409020546001600160a01b031690565b6000806000613076868561374e565b509150915060006130856137e4565b6001600160a01b03881660009081526020829052604081209192506130aa8589610e77565b9050806000131580156130c357506001600160601b0381105b6130cc57600080fd5b81546bffffffffffffffffffffffff19166001600160601b038216176fffffffffffffffffffffffffffffffff60601b1916600160601b6001600160801b0386160217825563ffffffff871061312157600080fd5b50805463ffffffff8716600160e01b026001600160e01b03909116179055509150509392505050565b60e08401516000901561320b5773__MigrateIncentives_____________________63e0c01a728561317f8860400151611f4a565b8860e001518961010001516040518563ffffffff1660e01b81526004016131a9949392919061435c565b60206040518083038186803b1580156131c157600080fd5b505af41580156131d5573d6000803e3d6000fd5b505050506040513d601f19601f820116820180604052508101906131f99190613ea4565b600060e0870181905261010087015290505b61324d613246866101000151613240670de0b6b3a764000061323a886132348c60400151611f4a565b906137f1565b9061384a565b90612f11565b82906138b1565b9050613265670de0b6b3a764000061323a84866137f1565b85610100018181525050949350505050565b600080613282611830565b6001600160a01b0384166000908152602082905260409020805491925090600160f81b900460ff16156132de576132b761390b565b6001600160a01b038086166000908152602092909252604090912054169250610b10915050565b600092505050610b10565b61057873cfeaead4947f0705a14ec42ac3d44129e1ef3ed58383612c01565b6000613fff84111561331957600080fd5b64ffffffffff83111561332b57600080fd5b600882111561333957600080fd5b5067ffff000000000000603084901b1665ffffffffff00600884901b161760ff8216179392505050565b600080826040015111801561337d57506040820151600810155b61338657600080fd5b604082015160021061339d57506020810151610b10565b60006133af6001846040015103613918565b60208401519091506108cd906276a700906133ca9084612f11565b906138b1565b600080610e8d6007611d6d565b600080610e8d6013611d6d565b600080821215613404576133fd82610e1a565b9050610b10565b5080610b10565b604080516323b872dd60e01b81526001600160a01b038481166004830152306024830152604482018490529151918516916323b872dd9160648082019260009290919082900301818387803b158015612c5857600080fd5b600061346d613b4f565b3d8015613481576020811461348a57600080fd5b60019250613495565b60206000833e815192505b5081610578576040805162461bcd60e51b8152602060048201526005602482015264045524332360dc1b604482015290519081900360640190fd5b825160405163db006a7560e01b8152600091479183916001600160a01b03169063db006a7590613504908790600401614382565b602060405180830381600087803b15801561351e57600080fd5b505af1158015613532573d6000803e3d6000fd5b505050506040513d601f19601f820116820180604052508101906135569190613ea4565b905080156135765760405162461bcd60e51b815260040161014f906143f4565b476135818184612f11565b9350612bbc8685612bc6565b60006135ad6135a885600001516135a3856111aa565b612a41565b611f4a565b90506135b76133dd565b548451604051631a4ca37b60e21b81526001600160a01b03909216916369328dec916135e9918590889060040161430c565b602060405180830381600087803b15801561360357600080fd5b505af1158015613617573d6000803e3d6000fd5b505050506040513d601f19601f8201168201806040525081019061363b9190613ea4565b509392505050565b8251600090819061365c90306370a0823160e01b612ca9565b9050600086600001516001600160a01b031663db006a75856040518263ffffffff1660e01b81526004016136909190614382565b602060405180830381600087803b1580156136aa57600080fd5b505af11580156136be573d6000803e3d6000fd5b505050506040513d601f19601f820116820180604052508101906136e29190613ea4565b905080156137025760405162461bcd60e51b815260040161014f906143f4565b855160009061371990306370a0823160e01b612ca9565b90506137258184612f11565b935061373687600001518786612c01565b505050949350505050565b600080610e8d6003611d6d565b600080600061375c856139bc565b9194509250905080841180156137725750600081115b801561377e5750600083115b156137dd57600061378e86610d11565b50505091505060006137b96137b06305f5e100846137f190919063ffffffff16565b84880387613a18565b90506137c584826138b1565b93506001600160801b0384106137da57600080fd5b50505b9250925092565b600080610e8d6011611d6d565b60008261380057506000610e8d565b8282028284828161380d57fe5b04146108cd5760405162461bcd60e51b815260040180806020018281038252602181526020018061462c6021913960400191505060405180910390fd5b60008082116138a0576040805162461bcd60e51b815260206004820152601a60248201527f536166654d6174683a206469766973696f6e206279207a65726f000000000000604482015290519081900360640190fd5b8183816138a957fe5b049392505050565b6000828201838110156108cd576040805162461bcd60e51b815260206004820152601b60248201527f536166654d6174683a206164646974696f6e206f766572666c6f770000000000604482015290519081900360640190fd5b600080610e8d6012611d6d565b6000816001141561392d57506276a700610b10565b8160021415613940575062ed4e00610b10565b816003141561395457506301da9c00610b10565b816004141561396857506303b53800610b10565b816005141561397c57506309450c00610b10565b8160061415613990575063128a1800610b10565b81600714156139a457506325143000610b10565b60405162461bcd60e51b815260040161014f90614414565b6000806000806139ca6137e4565b6001600160a01b0395909516600090815260209590955250506040909220546001600160601b03811693600160601b82046001600160801b03169350600160e01b90910463ffffffff169150565b60006112978261323a6301da9c00818861323489670de0b6b3a76400006137f1565b604051806101200160405280600061ffff16815260200160008152602001600081526020016000815260200160008152602001600081526020016000815260200160008152602001600081525090565b6040805160a08101825260008082526020820181905291810182905260608101829052608081019190915290565b6040518060800160405280606081526020016060815260200160008152602001600081525090565b6040518060c00160405280600081526020016000815260200160008152602001600081526020016000815260200160006003811115613b1b57fe5b905290565b6040805160a0810182526000808252602082018190529181018290529060608201908152602001600081525090565b60405180602001604052806001906020820280368337509192915050565b80356001600160a01b0381168114610b1057600080fd5b60008083601f840112613b95578081fd5b50813567ffffffffffffffff811115613bac578182fd5b6020830191508360208083028501011115613bc657600080fd5b9250929050565b600082601f830112613bdd578081fd5b8151602067ffffffffffffffff80831115613bf457fe5b613c0182838502016145e6565b8381528281019086840160c0808702890186018a1015613c1f578788fd5b875b87811015613ca05781838c031215613c37578889fd5b604080518381018181108982111715613c4c57fe5b82528451815288850151898201528482015191810191909152606080850151908201526080808501519082015260a090613c87828601613cc7565b9181019190915285529386019391810191600101613c21565b50919998505050505050505050565b80516001600160701b031981168114610b1057600080fd5b805160048110610b1057600080fd5b8051610b108161461b565b805160ff81168114610b1057600080fd5b600080600060408486031215613d06578283fd5b613d0f84613b6d565b9250602084013567ffffffffffffffff811115613d2a578283fd5b613d3686828701613b84565b9497909650939450505050565b600080600080600060608688031215613d5a578081fd5b613d6386613b6d565b9450602086013567ffffffffffffffff80821115613d7f578283fd5b613d8b89838a01613b84565b90965094506040880135915080821115613da3578283fd5b818801915088601f830112613db6578283fd5b813581811115613dc4578384fd5b896020828501011115613dd5578384fd5b9699959850939650602001949392505050565b600080600060408486031215613dfc578283fd5b613e0584613b6d565b9250602084013567ffffffffffffffff80821115613e21578384fd5b818601915086601f830112613e34578384fd5b813581811115613e42578485fd5b87602060c083028501011115613e56578485fd5b6020830194508093505050509250925092565b600060208284031215613e7a578081fd5b81356108cd8161460a565b600060208284031215613e96578081fd5b8135600781106108cd578182fd5b600060208284031215613eb5578081fd5b5051919050565b60008060408385031215613ece578182fd5b825191506020830151613ee08161460a565b809150509250929050565b600060a08284031215613efc578081fd5b60405160a0810181811067ffffffffffffffff82111715613f1957fe5b604052825164ffffffffff81168114613f30578283fd5b815260208301516001600160f81b031981168114613f4c578283fd5b6020820152613f5d60408401613ce1565b6040820152613f6e60608401613cd6565b6060820152613f7f60808401613caf565b60808201529392505050565b60008060408385031215613f9d578182fd5b825167ffffffffffffffff80821115613fb4578384fd5b9084019060808287031215613fc7578384fd5b604051608081018181108382111715613fdc57fe5b604052825182811115613fed578586fd5b613ff988828601613bcd565b82525060208301518281111561400d578586fd5b61401988828601613bcd565b6020830152506040830151604082015260608301516060820152809450505050602083015190509250929050565b600060208284031215614058578081fd5b81356108cd8161461b565b81835260006001600160fb1b0383111561407b578081fd5b6020830280836020870137939093016020019283525090919050565b6000815180845260208085019450808401835b8381101561410457815180518852838101518489015260408082015190890152606080820151908901526080808201519089015260a09081015190600482106140ef57fe5b88015260c090960195908201906001016140aa565b509495945050505050565b6001600160a01b0391909116815260200190565b6001600160a01b038581168252841660208201526060604082018190528101829052600082846080840137818301608090810191909152601f909201601f191601019392505050565b6001600160a01b0396871681529486166020860152928516604085015290841660608401528316608083015290911660a082015260c00190565b6001600160a01b03929092168252805164ffffffffff166020808401919091528101516001600160f81b03191660408084019190915281015160ff1660608084019190915281015161ffff1660808084019190915201516001600160701b03191660a082015260c00190565b600060018060a01b038716825261ffff86166020830152608060408301528451608080840152614246610100840182614097565b90506020860151607f198483030160a08501526142638282614097565b915050604086015160c0840152606086015160e0840152828103606084015261428d818587614063565b98975050505050505050565b6001600160a01b0396909616865261ffff94909416602086015260408501929092526060840152608083015260a082015260c00190565b6001600160a01b038616815261ffff8516602082015264ffffffffff8416604082015260806060820181905260009061203f9083018486614063565b6001600160a01b0393841681526020810192909252909116604082015260600190565b6001600160a01b03948516815260208101939093529216604082015261ffff909116606082015260800190565b6001600160a01b0394909416845260208401929092526040830152606082015260800190565b90815260200190565b6020808252600c908201526b155b985d5d1a1bdc9a5e995960a21b604082015260600190565b602080825260049082015263135a5b9d60e21b604082015260600190565b6020808252600b908201526a4554482042616c616e636560a81b604082015260600190565b60208082526006908201526552656465656d60d01b604082015260600190565b6020808252600d908201526c092dcecc2d8d2c840d2dcc8caf609b1b604082015260600190565b60208082526010908201526f556e736f7274656420616374696f6e7360801b604082015260600190565b6020808252601a908201527f496e73756666696369656e7420746f6b656e2062616c616e6365000000000000604082015260600190565b6020808252600e908201526d1499595b9d1c985b9d0818d85b1b60921b604082015260600190565b60208082526008908201526709ccace4086c2e6d60c31b604082015260600190565b6020808252601a908201527f496e76616c69642074726164657320666f72206163636f756e74000000000000604082015260600190565b6020808252600a90820152692732b390372a37b5b2b760b11b604082015260600190565b602080825260119082015270092dce6eaccccd2c6d2cadce840c6c2e6d607b1b604082015260600190565b61ffff929092168252602082015260400190565b6000808335601e19843603018112614596578283fd5b83018035915067ffffffffffffffff8211156145b0578283fd5b6020908101925081023603821315613bc657600080fd5b6000823560de198336030181126145dc578182fd5b9190910192915050565b60405181810167ffffffffffffffff8111828210171561460257fe5b604052919050565b801515811461461857600080fd5b50565b61ffff8116811461461857600080fdfe536166654d6174683a206d756c7469706c69636174696f6e206f766572666c6f77a2646970667358221220d80c4b06e2c81dd9829e4a20fdd978f6f851d113317f9e0b83c05241da5b476d64736f6c63430007060033","bytecodeSha1":"3e5288da8d9863f76c6430be05e18b81a65b7dde","type":"contract","abi":[{"inputs":[{"internalType":"address","name":"account","type":"address"},{"components":[{"internalType":"enum DepositActionType","name":"actionType","type":"uint8"},{"internalType":"uint16","name":"currencyId","type":"uint16"},{"internalType":"uint256","name":"depositActionAmount","type":"uint256"},{"internalType":"uint256","name":"withdrawAmountInternalPrecision","type":"uint256"},{"internalType":"bool","name":"withdrawEntireCashBalance","type":"bool"},{"internalType":"bool","name":"redeemToUnderlying","type":"bool"}],"internalType":"struct BalanceAction[]","name":"actions","type":"tuple[]"}],"name":"batchBalanceAction","outputs":[],"stateMutability":"payable","type":"function"},{"inputs":[{"internalType":"address","name":"account","type":"address"},{"components":[{"internalType":"enum DepositActionType","name":"actionType","type":"uint8"},{"internalType":"uint16","name":"currencyId","type":"uint16"},{"internalType":"uint256","name":"depositActionAmount","type":"uint256"},{"internalType":"uint256","name":"withdrawAmountInternalPrecision","type":"uint256"},{"internalType":"bool","name":"withdrawEntireCashBalance","type":"bool"},{"internalType":"bool","name":"redeemToUnderlying","type":"bool"},{"internalType":"bytes32[]","name":"trades","type":"bytes32[]"}],"internalType":"struct BalanceActionWithTrades[]","name":"actions","type":"tuple[]"}],"name":"batchBalanceAndTradeAction","outputs":[],"stateMutability":"payable","type":"function"},{"inputs":[{"internalType":"address","name":"account","type":"address"},{"components":[{"internalType":"enum DepositActionType","name":"actionType","type":"uint8"},{"internalType":"uint16","name":"currencyId","type":"uint16"},{"internalType":"uint256","name":"depositActionAmount","type":"uint256"},{"internalType":"uint256","name":"withdrawAmountInternalPrecision","type":"uint256"},{"internalType":"bool","name":"withdrawEntireCashBalance","type":"bool"},{"internalType":"bool","name":"redeemToUnderlying","type":"bool"},{"internalType":"bytes32[]","name":"trades","type":"bytes32[]"}],"internalType":"struct BalanceActionWithTrades[]","name":"actions","type":"tuple[]"},{"internalType":"bytes","name":"callbackData","type":"bytes"}],"name":"batchBalanceAndTradeActionWithCallback","outputs":[],"stateMutability":"payable","type":"function"},{"inputs":[],"name":"getLibInfo","outputs":[{"internalType":"address","name":"","type":"address"},{"internalType":"address","name":"","type":"address"},{"internalType":"address","name":"","type":"address"},{"internalType":"address","name":"","type":"address"},{"internalType":"address","name":"","type":"address"},{"internalType":"address","name":"","type":"address"}],"stateMutability":"view","type":"function"},{"inputs":[],"name":"owner","outputs":[{"internalType":"address","name":"","type":"address"}],"stateMutability":"view","type":"function"},{"inputs":[],"name":"pauseGuardian","outputs":[{"internalType":"address","name":"","type":"address"}],"stateMutability":"view","type":"function"},{"inputs":[],"name":"pauseRouter","outputs":[{"internalType":"address","name":"","type":"address"}],"stateMutability":"view","type":"function"}],"compiler":{"version":"0.7.6+commit.7338295f","evm_version":"istanbul","optimizer":{"enabled":true,"runs":200}},"contractName":"BatchAction","deployedBytecode":"6080604052600436106100705760003560e01c80636e6a32a61161004e5780636e6a32a6146100c857806382463367146100db5780638da5cb5b146100f0578063c4c96dae1461010557610070565b80630276b64b1461007557806324a3d6221461008a5780635950d8e9146100b5575b600080fd5b610088610083366004613cf2565b61012c565b005b34801561009657600080fd5b5061009f6101bc565b6040516100ac919061410f565b60405180910390f35b6100886100c3366004613d43565b6101cb565b6100886100d6366004613de8565b6102fb565b3480156100e757600080fd5b5061009f610481565b3480156100fc57600080fd5b5061009f610490565b34801561011157600080fd5b5061011a6104a7565b6040516100ac9695949392919061416c565b6002600a5414156101585760405162461bcd60e51b815260040161014f9061449c565b60405180910390fd5b6002600a556001600160a01b03831633148061017357503330145b61018f5760405162461bcd60e51b815260040161014f9061438b565b6101988361052d565b60006101a584848461057c565b90506101b184826108d4565b50506001600a555050565b6002546001600160a01b031681565b3360009081526008602052604090205460ff166101fa5760405162461bcd60e51b815260040161014f9061438b565b6102038561052d565b600061021086868661057c565b905061021c8187610955565b60405163550d065760e11b8152339063aa1a0cae906102459083908a9088908890600401614123565b600060405180830381600087803b15801561025f57600080fd5b505af1158015610273573d6000803e3d6000fd5b5050505060208101516001600160f81b031916156102f357604051636ccc642f60e01b815273__$841fddfe32830bb6dbc3a02d7f16c53722$__90636ccc642f906102c290899060040161410f565b60006040518083038186803b1580156102da57600080fd5b505af41580156102ee573d6000803e3d6000fd5b505050505b505050505050565b6002600a54141561031e5760405162461bcd60e51b815260040161014f9061449c565b6002600a556001600160a01b03831633148061033957503330145b6103555760405162461bcd60e51b815260040161014f9061438b565b61035e8361052d565b600061036984610a59565b9050610373613a3a565b60005b8381101561046a573685858381811061038b57fe5b905060c00201905060008211156103f8578585600184038181106103ab57fe5b905060c0020160200160208101906103c39190614047565b61ffff166103d76040830160208401614047565b61ffff16116103f85760405162461bcd60e51b815260040161014f9061443b565b6104158761040c6040840160208501614047565b85919087610b15565b61043187846104276020850185613e85565b8460400135610bbb565b610461878585606085013561044c60a0870160808801613e69565b61045c60c0880160a08901613e69565b610c8e565b50600101610376565b5061047585836108d4565b50506001600a55505050565b6001546001600160a01b031681565b60005464010000000090046001600160a01b031681565b73__$841fddfe32830bb6dbc3a02d7f16c53722$__73__$b21a4dc043b77aa57922ad9143a3cb040e$__73__$f6541b0d362a0c7d99a2a29cd3d373d61b$__73__$7ac922d04bd7a1b42c7f6e5f1dd89a70af$__73__$892f367d396be2b92d3b049e6e62920984$__73__$43fd92ea4ea9b72ca0014644dbfd757564$__909192939495565b6001600160a01b03811661054057600080fd5b6001600160a01b03811630141561055657600080fd5b600061056182610d11565b5050505061ffff1690508060001461057857600080fd5b5050565b610584613a8a565b600061058f85610a59565b9050610599613a3a565b60006105ab8784604001516000610d7a565b905060005b858110156108ac57368787838181106105c557fe5b90506020028101906105d791906145c7565b90508115610646578787600184038181106105ee57fe5b905060200281019061060091906145c7565b610611906040810190602001614047565b61ffff166106256040830160208401614047565b61ffff16116106465760405162461bcd60e51b815260040161014f9061443b565b6106638961065a6040840160208501614047565b86919088610b15565b61067589856104276020850185613e85565b600061068460c0830183614580565b9050111561088857600061069786610e0d565b156107a4576106ac6040830160208401614047565b61ffff16866060015161ffff16146106d65760405162461bcd60e51b815260040161014f906144e6565b6060860151865160009173__$7ac922d04bd7a1b42c7f6e5f1dd89a70af$__91633643f39b918e9161070b60c0890189614580565b6040518663ffffffff1660e01b815260040161072b9594939291906142d0565b604080518083038186803b15801561074257600080fd5b505af4158015610756573d6000803e3d6000fd5b505050506040513d601f19601f8201168201806040525081019061077a9190613ebc565b9092509050801561079e57602087018051600160f81b176001600160f81b03191690525b50610857565b73__$7ac922d04bd7a1b42c7f6e5f1dd89a70af$__63b58f83ed8b6107cf6040860160208701614047565b876107dd60c0880188614580565b6040518663ffffffff1660e01b81526004016107fd959493929190614212565b60006040518083038186803b15801561081557600080fd5b505af4158015610829573d6000803e3d6000fd5b505050506040513d6000823e601f3d908101601f191682016040526108519190810190613f8b565b90945090505b6000811215610872576108728561086d83610e1a565b610e28565b60608501516108819082610e77565b6060860152505b6108a3898686606085013561044c60a0870160808801613e69565b506001016105b0565b506108b683610e0d565b6108c7576108c78388836000610e93565b50909150505b9392505050565b6108de8183610955565b60208101516001600160f81b0319161561057857604051636ccc642f60e01b815273__$841fddfe32830bb6dbc3a02d7f16c53722$__90636ccc642f9061092990859060040161410f565b60006040518083038186803b15801561094157600080fd5b505af41580156102f3573d6000803e3d6000fd5b600061095f610f75565b6001600160a01b03831660008181526020838152604080832088518154938a0151838b015160608c015160808d015160701c600160481b027affffffffffffffffffffffffffffffffffff0000000000000000001961ffff909216600160381b0268ffff000000000000001960ff94909416600160301b0266ff0000000000001960f89690961c650100000000000265ff00000000001964ffffffffff90981664ffffffffff19909b169a909a1796909616989098179390931693909317169490941716929092179091555192935090917f6bd4b121bca854a191536a2ca891155c42ee2fb23f307fb34e8bc65cfcb5412e9190a2505050565b610a61613a8a565b6000610a6c83610f82565b9050610a7781611023565b15610b0d576040516337b5fc2160e11b815273__$f6541b0d362a0c7d99a2a29cd3d373d61b$__90636f6bf84290610ab590869085906004016141a6565b60a06040518083038186803b158015610acd57600080fd5b505af4158015610ae1573d6000803e3d6000fd5b505050506040513d601f19601f82011682018060405250810190610b059190613eeb565b915050610b10565b90505b919050565b8161ffff166000108015610b2f5750613fff61ffff831611155b610b3857600080fd5b61ffff8216808552610b4b908290611074565b15610b7857610b5e838361ffff166110fe565b61010088015260e087015260408601526020850152610b96565b6000602085018190526040850181905260e085018190526101008501525b50506000606083018190526080830181905260a0830181905260c09092019190915250565b6000610bc6826111aa565b9050600080821215610bd757600080fd5b6000846006811115610be557fe5b1415610bf2575050610c88565b6001846006811115610c0057fe5b1480610c1757506003846006811115610c1557fe5b145b15610c3057610c2985878460006111c4565b9050610c7c565b6002846006811115610c3e57fe5b1480610c5557506004846006811115610c5357fe5b145b15610c6557610c2985878461129f565b6006846006811115610c7357fe5b1415610c7c5750805b6102f385858484611384565b50505050565b6000610c99846111aa565b90506000811215610ca957600080fd5b8215610ce757610cd88560800151610cd287606001518860200151610e7790919063ffffffff16565b90610e77565b90506000811215610ce7575060005b6080850151610cf6908261159f565b6080860152610d07858888856115b5565b5050505050505050565b600080600080600080610d22611830565b6001600160a01b039097166000908152602097909752505060409094205461ffff81169563ffffffff62010000830481169650600160301b830416945060ff600160501b8304169350600160581b90910460d81b9150565b610d82613ab8565b610d8a613ab8565b60ff8416610d995790506108cd565b610da3858561183d565b815260ff841660608201528267ffffffffffffffff81118015610dc557600080fd5b50604051908082528060200260200182016040528015610dff57816020015b610dec613ae0565b815260200190600190039081610de45790505b506020820152949350505050565b6060015161ffff16151590565b6000610b0d60001983611866565b60008112158015610e5b575080610e588360800151610cd285606001518660200151610e7790919063ffffffff16565b12155b6105785760405162461bcd60e51b815260040161014f90614541565b81810182811215600083121514610e8d57600080fd5b92915050565b6000808080610ea286886118b4565b64ffffffffff81168c5292965090945092509050610ebf88611023565b15610ec957600080fd5b60ff8216604089015284610ee857600760ff83161115610ee857600080fd5b8315610f0b57602088018051600160f81b176001600160f81b0319169052610f1a565b602088018051607f60f91b1690525b610f278860800151611af3565b6001600160701b031916608089015260005b8315610f6a5760f084901c818114610f5c57610f5c8a826001600160ff1b611b6e565b60109490941b939050610f39565b505050505050505050565b600080610e8d6001611d6d565b610f8a613a8a565b6000610f94610f75565b6001600160a01b039390931660009081526020938452604090819020815160a081018352905464ffffffffff8116825265010000000000810460f81b6001600160f81b03191695820195909552600160301b850460ff1691810191909152600160381b840461ffff166060820152600160481b90930460701b6001600160701b03191660808401525090919050565b60004261102f83610e0d565b156110505761103d81611d86565b835164ffffffffff16109150610b109050565b825164ffffffffff1615801590610b055750825164ffffffffff1611159050610b10565b600081158015906110875750613fff8211155b61109057600080fd5b6080830151606084015161ffff168314156110af576001915050610e8d565b6001600160701b03198116156110f45760f081901c613fff16838114156110e15750600160fe1b908116149050610e8d565b5060101b6001600160801b0319166110af565b5060009392505050565b600080600080600061110e611da4565b6001600160a01b0388166000908152602082815260408083208a84529091529020805469ffffffffffffffffffff81169650600160501b900463ffffffff169450909150831561117a57805461117390600160701b900466ffffffffffffff16611db1565b925061118f565b8054600160701b900466ffffffffffffff1692505b54600160a81b9004600a90810b900b97939650919450925050565b60006001600160ff1b038211156111c057600080fd5b5090565b6000826111d357506000611297565b600083136111e057600080fd5b60006111f3866000015161ffff16611dbf565b905060058160600151600581111561120757fe5b141561122057855161121d9061ffff1685611dd2565b93505b80602001518061122d5750825b15611274578551600090611249908390889061ffff1688611e59565b90506112558282611f01565b60608801519093506112679084610e77565b6060880152506112979050565b61127e8185611f01565b60808701519092506112909083610e77565b6080870152505b949350505050565b6000816112ae575060006108cd565b600082136112bb57600080fd5b60006112ce856000015161ffff16611f37565b90506003816060015160058111156112e257fe5b141561130c573483146113075760405162461bcd60e51b815260040161014f906143cf565b611323565b8451611320908290869061ffff1686611e59565b92505b6000611336866000015161ffff16611dbf565b90506000611353876000015161134b87611f4a565b849190611f59565b905060006113618383611f01565b60608901519091506113739082610e77565b606089015293505050509392505050565b600383600681111561139257fe5b14806113a9575060048360068111156113a757fe5b145b806113bf575060068360068111156113bd57fe5b145b1561148b576113ce8482610e28565b60608401516113dd908261159f565b60608501528351604051632128561360e11b815260009173__$892f367d396be2b92d3b049e6e62920984$__91634250ac269161141e91869060040161456c565b60206040518083038186803b15801561143657600080fd5b505af415801561144a573d6000803e3d6000fd5b505050506040513d601f19601f8201168201806040525081019061146e9190613ea4565b60c08601519091506114809082610e77565b60c086015250610c88565b600583600681111561149957fe5b1415610c8857816114c38560c00151610cd28760a001518860400151610e7790919063ffffffff16565b12156114e15760405162461bcd60e51b815260040161014f90614465565b60c08401516114f0908361159f565b60c085015283516040516352e73f7760e01b815260009173__$43fd92ea4ea9b72ca0014644dbfd757564$__916352e73f779161153191879060040161456c565b60206040518083038186803b15801561154957600080fd5b505af415801561155d573d6000803e3d6000fd5b505050506040513d601f19601f820116820180604052508101906115819190613ea4565b60608601519091506115939082610e77565b60608601525050505050565b80820382811315600083121514610e8d57600080fd5b60008060008660a0015112156116085760006115ea8760a00151610cd28960c001518a60400151610e7790919063ffffffff16565b12156116085760405162461bcd60e51b815260040161014f9061451d565b60008660800151121561165857600061163a8760800151610cd289606001518a60200151610e7790919063ffffffff16565b12156116585760405162461bcd60e51b815260040161014f906144c4565b61166386868561204a565b60808801819052606088015191935060009161167e91610e77565b905080156116eb5760208701516116959082610e77565b602088015286516040516001935061ffff909116906001600160a01b038816907f5441e4a5fac93a951d782e6f1cdb82e95c8fc58561a013953d17e395c5e69b4b906116e2908590614382565b60405180910390a35b60a0870151151580611700575060c087015115155b156117a657600061172a8860c00151610cd28a60a001518b60400151610e7790919063ffffffff16565b905061173f888861173a84611f4a565b612100565b506040880181905260c0880151156117a057876000015161ffff16876001600160a01b03167f412bc13d202a2ea5119e55fec9c5e420dddb18faf186373ad9795ad4f4545aa98a60c001516040516117979190614382565b60405180910390a35b60019250505b81156117d3576117d386886000015161ffff1689602001518a604001518b60e001518c61010001516121ed565b865160208801516118009161ffff16901515806117f35750604089015115155b879190600160fe1b611b6e565b60008760200151121561182657602085018051600160f91b176001600160f81b03191690525b5050949350505050565b600080610e8d6002611d6d565b6060600061184b848461233d565b9050600181511161185d579050610e8d565b6108cd8161245f565b8181026000198314156118965781158061188857508282828161188557fe5b05145b61189157600080fd5b610e8d565b8215806118ab5750818382816118a857fe5b05145b610e8d57600080fd5b6000808080808080805b8951518110156119455760008a6000015182815181106118da57fe5b602002602001015190506003808111156118f057fe5b8160a00151600381111561190057fe5b141561190b57600080fd5b60028160a00151600381111561191d57fe5b1415801561192d57506060810151155b1561193c5761193c8b83612618565b506001016118be565b5060005b8951518110156119e85760008a60000151828151811061196557fe5b602002602001015190506002600381111561197c57fe5b8160a00151600381111561198c57fe5b14156119a0576080810151600090556119df565b60018160a0015160038111156119b257fe5b14156119cb576080810151806119c88382612767565b50505b6119d781868686612898565b919650945092505b50600101611949565b50606089015160006119f86128fb565b6001600160a01b038b1660009081526020829052604081209192505b8c6020015151811015611ac25760008d602001518281518110611a3357fe5b60200260200101519050806060015160001415611a505750611aba565b60028160a001516003811115611a6257fe5b14158015611a80575060038160a001516003811115611a7d57fe5b14155b611a8957600080fd5b611a9581898989612898565b91995097509550611ab281848760108110611aac57fe5b01612767565b600185019450505b600101611a14565b5060108311158015611ad9575064ffffffffff8411155b611ae257600080fd5b50939a929950975095509350505050565b6000807f7fff7fff7fff7fff7fff7fff7fff7fff7fff00000000000000000000000000008316815b6001600160701b0319821615611b6557600160fe1b8281161415611b4f576001600160f01b03198216811c92909217916010015b6010826001600160701b031916901b9150611b1b565b50909392505050565b826000108015611b805750613fff8311155b611b8957600080fd5b818015611b9d575082846060015161ffff16145b15611ba757610c88565b6080840151600090815b6001600160701b0319821615611d225760f082901c613fff168681148015611bd65750855b15611c0e57506080870180516001600160f01b0319861660109093029290921c919091176001600160701b031916905250610c889050565b8681148015611c1b575085155b15611c70576001600160f01b03198516199290921691600360fe1b8316611c4e576010836001600160701b031916901b92505b506001600160701b031991821660109091021c91909117166080850152610c88565b8681118015611c7c5750855b15611cd6576080888101516001600160f01b031960f08a901b88178116601086021c9690961795911b1615611cb057600080fd5b506001600160701b03199182166001919091016010021c91909117166080850152610c88565b8681118015611ce3575085155b15611cf15750505050610c88565b506001600160f01b0319821660108281029190911c93909317929190911b6001600160801b03191690600101611bb1565b84611d2f57505050610c88565b60098110611d3c57600080fd5b6001600160f01b031960f087901b85171660109091021c919091176001600160701b03191660808601525050505050565b6000620f4240826013811115611d7f57fe5b0192915050565b600062015180821015611d9857600080fd5b50620151808106900390565b600080610e8d6006611d6d565b600881901c60ff9091161b90565b611dc7613b20565b610b0d826000612908565b600081611de157506000610e8d565b60008213611dee57600080fd5b6000611df984611f37565b90506000611e0a82600001516129b6565b9050600281056b033b2e3c9fd0803ce80000006001600160ff1b0382900305851315611e3557600080fd5b81816b033b2e3c9fd0803ce800000087020181611e4e57fe5b059695505050505050565b80600585606001516005811115611e6c57fe5b1415611e91576000611e7d84611f37565b9050611e8d816000015184612a41565b9250505b6000821315611ebd576000611ea7868685612ad3565b9050856020015115611eb7578091505b50611297565b600385606001516005811115611ecf57fe5b1415611eec57611ee784611ee284610e1a565b612bc6565b611297565b84516112979085611efc85610e1a565b612c01565b60006305f5e10083604001511415611f1a575080610e8d565b60408301516108cd90611f31846305f5e100611866565b90612c78565b611f3f613b20565b610b0d826001612908565b6000808212156111c057600080fd5b600080600585606001516005811115611f6e57fe5b14611f80576370a0823160e01b611f89565b630ed1279f60e11b5b90506000611f9c86600001513084612ca9565b9050600586606001516005811115611fb057fe5b1415611fd7576000611fc58661ffff16611f37565b9050611fd18186612dbb565b5061201a565b600186606001516005811115611fe957fe5b1415611ff957611fd18685612e26565b60028660600151600581111561200b57fe5b14156100705761201a86612ed2565b600061202b87600001513085612ca9565b905061203f61203a8284612f11565b6111aa565b979650505050505050565b6000806000612060866000015161ffff16611dbf565b9050600061207b876080015183612f6e90919063ffffffff16565b905080612090576000809350935050506120f8565b84801561209d5750600081125b156120d25786516120bf9061ffff16876120b684610e1a565b85929190612fa6565b93506120cb8282611f01565b92506120f5565b86516120e6908390889061ffff1684611e59565b93506120f28285611f01565b92505b50505b935093915050565b8251600090429082906121169061ffff16613041565b90506000612129828860c0015185613067565b90506121378783838861314a565b9350600061214483613277565b90506001600160a01b038116156121d257806001600160a01b0316631d684dd2888a600001516121778c60400151611f4a565b8a8d60c001518b6040518763ffffffff1660e01b815260040161219f96959493929190614299565b600060405180830381600087803b1580156121b957600080fd5b505af11580156121cd573d6000803e3d6000fd5b505050505b84156121e2576121e287866132e9565b505050509392505050565b60006121f7611da4565b6001600160a01b0388166000908152602082815260408083208a845290915290209091506a7fffffffffffffffffffff19861280159061224257506a7fffffffffffffffffffff8613155b61224b57600080fd5b60008512158015612266575069ffffffffffffffffffff8513155b61226f57600080fd5b836122af5766ffffffffffffff83111561228857600080fd5b805466ffffffffffffff60701b1916600160701b66ffffffffffffff8516021781556122c9565b8054600160501b900463ffffffff1684146122c957600080fd5b8054600a9690960b6affffffffffffffffffffff16600160a81b026001600160a81b0369ffffffffffffffffffff90961669ffffffffffffffffffff1963ffffffff909616600160501b0263ffffffff60501b19909816979097179490941695909517939093169190911790925550505050565b606060108260ff16111561235057600080fd5b600061235a6128fb565b6001600160a01b038516600090815260208290526040812091925060ff851667ffffffffffffffff8111801561238f57600080fd5b506040519080825280602002602001820160405280156123c957816020015b6123b6613ae0565b8152602001906001900390816123ae5790505b50905060005b8560ff168110156124555760008382601081106123e857fe5b01905060008383815181106123f957fe5b602090810291909101810151835461ffff8116825264ffffffffff620100008204169282019290925260ff600160381b8304166040820152600160401b909104600a90810b900b606082015260800191909152506001016123cf565b5095945050505050565b805160008167ffffffffffffffff8111801561247a57600080fd5b506040519080825280602002602001820160405280156124a4578160200160208202803683370190505b50905060005b828110156125015760008482815181106124c057fe5b602002602001015190506124e1816000015182602001518360400151613308565b8383815181106124ed57fe5b6020908102919091010152506001016124aa565b5060015b82811015610c8857805b600081118015612547575082818151811061252657fe5b602002602001015183600183038151811061253d57fe5b6020026020010151115b1561260f5782818151811061255857fe5b602002602001015183600183038151811061256f57fe5b602002602001015184600184038151811061258657fe5b6020026020010185848151811061259957fe5b60200260200101828152508281525050508481815181106125b657fe5b60200260200101518560018303815181106125cd57fe5b60200260200101518660018403815181106125e457fe5b602002602001018784815181106125f757fe5b6020908102919091010191909152526000190161250f565b50600101612505565b815151811061262657600080fd5b600082606001511161263757600080fd5b60008260000151828151811061264957fe5b602002602001015190506002600381111561266057fe5b8160a00151600381111561267057fe5b1415801561268e575060038160a00151600381111561268b57fe5b14155b61269757600080fd5b606083018051600019019052600080805b85515181101561270a576000866000015182815181106126c457fe5b602002602001015190508281608001511180156126f1575060028160a0015160038111156126ee57fe5b14155b1561270157806080015192508193505b506001016126a8565b5081841415612723575050600260a09190910152610578565b60008560000151838151811061273557fe5b602090810291909101015160808581018051918301805190915252600160a09182015260029401939093525050505050565b81511580159061277a57508151613fff10155b61278357600080fd5b816020015160001080156127a05750602082015164ffffffffff10155b6127a957600080fd5b816040015160001080156127c257506040820151600810155b6127cb57600080fd5b60608201516a7fffffffffffffffffffff19138015906127fa575060608201516a7fffffffffffffffffffff12155b61280357600080fd5b8151815460208401516040850151606090950151600a0b6affffffffffffffffffffff16600160401b0272ffffffffffffffffffffff00000000000000001960ff909616600160381b0267ff000000000000001964ffffffffff909316620100000266ffffffffff00001961ffff90961661ffff19909516949094179490941692909217169190911792909216919091179055565b6000806000806128a788613363565b90508415806128b557508085115b156128be578094505b86806128ce575060008860600151125b965061ffff8616156128df57600080fd5b50509451939560109390931c60f09490941b9390931793509150565b600080610e8d600d611d6d565b612910613b20565b600061291a6133d0565b6000858152602082815260408083208715158452825291829020825160a08101845281546001600160a01b038116825260ff600160a01b82048116151594830194909452600160b01b81048416600a0a9482019490945293945092916060830191600160a81b90910416600581111561298f57fe5b81529154600160b81b900468ffffffffffffffffff16602090920191909152949350505050565b6000610b0d6129c36133dd565b5460405163d15e005360e01b81526001600160a01b039091169063d15e0053906129f190869060040161410f565b60206040518083038186803b158015612a0957600080fd5b505afa158015612a1d573d6000803e3d6000fd5b505050506040513d601f19601f8201168201806040525081019061203a9190613ea4565b600081612a5057506000610e8d565b6000612a5b846129b6565b90506000612a68846133ea565b9050816b019d971e4fe8401e74000001600160ff1b0381612a8557fe5b05811315612a9257600080fd5b6b033b2e3c9fd0803ce80000006b019d971e4fe8401e74000000838302010560008513612ac757612ac281610e1a565b612ac9565b805b9695505050505050565b6000808080600587606001516005811115612aea57fe5b14612afc576370a0823160e01b612b05565b630ed1279f60e11b5b9050866020015115612b21578651612b1e903083612ca9565b92505b8651612b2e90878761340b565b866020015180612b42575060008760800151115b15612b57578651612b54903083612ca9565b91505b608087015115612b92576000612b7588612b70856111aa565b611f01565b9050612b8488608001516111aa565b811315612b9057600080fd5b505b866020015115612bb357612ba961203a8385612f11565b93505050506108cd565b612ba9856111aa565b5050509392505050565b6040516001600160a01b0383169082156108fc029083906000818181858888f19350505050158015612bfc573d6000803e3d6000fd5b505050565b826001600160a01b031663a9059cbb83836040518363ffffffff1660e01b815260040180836001600160a01b0316815260200182815260200192505050600060405180830381600087803b158015612c5857600080fd5b505af1158015612c6c573d6000803e3d6000fd5b50505050612bfc613463565b600081600019148015612c8e5750600160ff1b83145b15612c9857600080fd5b818381612ca157fe5b059392505050565b604080516001600160a01b0384811660248084019190915283518084039091018152604490920183526020820180516001600160e01b03166001600160e01b0319861617815292518251600094859485948a16939092909182918083835b60208310612d265780518252601f199092019160209182019101612d07565b6001836020036101000a038019825116818451168082178552505050505050905001915050600060405180830381855afa9150503d8060008114612d86576040519150601f19603f3d011682016040523d82523d6000602084013e612d8b565b606091505b509150915081612d9a57600080fd5b808060200190516020811015612daf57600080fd5b50519695505050505050565b612dc36133dd565b54825160405163e8eda9df60e01b81526001600160a01b039092169163e8eda9df91612df8918590309060009060040161432f565b600060405180830381600087803b158015612e1257600080fd5b505af11580156102f3573d6000803e3d6000fd5b60008083600001516001600160a01b031663a0712d68846040518263ffffffff1660e01b8152600401612e599190614382565b602060405180830381600087803b158015612e7357600080fd5b505af1158015612e87573d6000803e3d6000fd5b505050506040513d601f19601f82011682018060405250810190612eab9190613ea4565b90508015612ecb5760405162461bcd60e51b815260040161014f906143b1565b5092915050565b80600001516001600160a01b0316631249c58b346040518263ffffffff1660e01b81526004016000604051808303818588803b158015612e1257600080fd5b600082821115612f68576040805162461bcd60e51b815260206004820152601e60248201527f536166654d6174683a207375627472616374696f6e206f766572666c6f770000604482015290519081900360640190fd5b50900390565b60006305f5e10083604001511415612f87575080610e8d565b6108cd6305f5e100611f3185604001518561186690919063ffffffff16565b600080600286606001516005811115612fbb57fe5b1415612fd357612fcc8685856134d0565b9050613030565b6000612fde86611f37565b9050600587606001516005811115612ff257fe5b141561300a5761300381868661358d565b915061302e565b60018760600151600581111561301c57fe5b14156100705761300387828787613643565b505b612ac961303c826111aa565b610e1a565b60008061304c613741565b6000938452602052505060409020546001600160a01b031690565b6000806000613076868561374e565b509150915060006130856137e4565b6001600160a01b03881660009081526020829052604081209192506130aa8589610e77565b9050806000131580156130c357506001600160601b0381105b6130cc57600080fd5b81546bffffffffffffffffffffffff19166001600160601b038216176fffffffffffffffffffffffffffffffff60601b1916600160601b6001600160801b0386160217825563ffffffff871061312157600080fd5b50805463ffffffff8716600160e01b026001600160e01b03909116179055509150509392505050565b60e08401516000901561320b5773__$b21a4dc043b77aa57922ad9143a3cb040e$__63e0c01a728561317f8860400151611f4a565b8860e001518961010001516040518563ffffffff1660e01b81526004016131a9949392919061435c565b60206040518083038186803b1580156131c157600080fd5b505af41580156131d5573d6000803e3d6000fd5b505050506040513d601f19601f820116820180604052508101906131f99190613ea4565b600060e0870181905261010087015290505b61324d613246866101000151613240670de0b6b3a764000061323a886132348c60400151611f4a565b906137f1565b9061384a565b90612f11565b82906138b1565b9050613265670de0b6b3a764000061323a84866137f1565b85610100018181525050949350505050565b600080613282611830565b6001600160a01b0384166000908152602082905260409020805491925090600160f81b900460ff16156132de576132b761390b565b6001600160a01b038086166000908152602092909252604090912054169250610b10915050565b600092505050610b10565b61057873cfeaead4947f0705a14ec42ac3d44129e1ef3ed58383612c01565b6000613fff84111561331957600080fd5b64ffffffffff83111561332b57600080fd5b600882111561333957600080fd5b5067ffff000000000000603084901b1665ffffffffff00600884901b161760ff8216179392505050565b600080826040015111801561337d57506040820151600810155b61338657600080fd5b604082015160021061339d57506020810151610b10565b60006133af6001846040015103613918565b60208401519091506108cd906276a700906133ca9084612f11565b906138b1565b600080610e8d6007611d6d565b600080610e8d6013611d6d565b600080821215613404576133fd82610e1a565b9050610b10565b5080610b10565b604080516323b872dd60e01b81526001600160a01b038481166004830152306024830152604482018490529151918516916323b872dd9160648082019260009290919082900301818387803b158015612c5857600080fd5b600061346d613b4f565b3d8015613481576020811461348a57600080fd5b60019250613495565b60206000833e815192505b5081610578576040805162461bcd60e51b8152602060048201526005602482015264045524332360dc1b604482015290519081900360640190fd5b825160405163db006a7560e01b8152600091479183916001600160a01b03169063db006a7590613504908790600401614382565b602060405180830381600087803b15801561351e57600080fd5b505af1158015613532573d6000803e3d6000fd5b505050506040513d601f19601f820116820180604052508101906135569190613ea4565b905080156135765760405162461bcd60e51b815260040161014f906143f4565b476135818184612f11565b9350612bbc8685612bc6565b60006135ad6135a885600001516135a3856111aa565b612a41565b611f4a565b90506135b76133dd565b548451604051631a4ca37b60e21b81526001600160a01b03909216916369328dec916135e9918590889060040161430c565b602060405180830381600087803b15801561360357600080fd5b505af1158015613617573d6000803e3d6000fd5b505050506040513d601f19601f8201168201806040525081019061363b9190613ea4565b509392505050565b8251600090819061365c90306370a0823160e01b612ca9565b9050600086600001516001600160a01b031663db006a75856040518263ffffffff1660e01b81526004016136909190614382565b602060405180830381600087803b1580156136aa57600080fd5b505af11580156136be573d6000803e3d6000fd5b505050506040513d601f19601f820116820180604052508101906136e29190613ea4565b905080156137025760405162461bcd60e51b815260040161014f906143f4565b855160009061371990306370a0823160e01b612ca9565b90506137258184612f11565b935061373687600001518786612c01565b505050949350505050565b600080610e8d6003611d6d565b600080600061375c856139bc565b9194509250905080841180156137725750600081115b801561377e5750600083115b156137dd57600061378e86610d11565b50505091505060006137b96137b06305f5e100846137f190919063ffffffff16565b84880387613a18565b90506137c584826138b1565b93506001600160801b0384106137da57600080fd5b50505b9250925092565b600080610e8d6011611d6d565b60008261380057506000610e8d565b8282028284828161380d57fe5b04146108cd5760405162461bcd60e51b815260040180806020018281038252602181526020018061462c6021913960400191505060405180910390fd5b60008082116138a0576040805162461bcd60e51b815260206004820152601a60248201527f536166654d6174683a206469766973696f6e206279207a65726f000000000000604482015290519081900360640190fd5b8183816138a957fe5b049392505050565b6000828201838110156108cd576040805162461bcd60e51b815260206004820152601b60248201527f536166654d6174683a206164646974696f6e206f766572666c6f770000000000604482015290519081900360640190fd5b600080610e8d6012611d6d565b6000816001141561392d57506276a700610b10565b8160021415613940575062ed4e00610b10565b816003141561395457506301da9c00610b10565b816004141561396857506303b53800610b10565b816005141561397c57506309450c00610b10565b8160061415613990575063128a1800610b10565b81600714156139a457506325143000610b10565b60405162461bcd60e51b815260040161014f90614414565b6000806000806139ca6137e4565b6001600160a01b0395909516600090815260209590955250506040909220546001600160601b03811693600160601b82046001600160801b03169350600160e01b90910463ffffffff169150565b60006112978261323a6301da9c00818861323489670de0b6b3a76400006137f1565b604051806101200160405280600061ffff16815260200160008152602001600081526020016000815260200160008152602001600081526020016000815260200160008152602001600081525090565b6040805160a08101825260008082526020820181905291810182905260608101829052608081019190915290565b6040518060800160405280606081526020016060815260200160008152602001600081525090565b6040518060c00160405280600081526020016000815260200160008152602001600081526020016000815260200160006003811115613b1b57fe5b905290565b6040805160a0810182526000808252602082018190529181018290529060608201908152602001600081525090565b60405180602001604052806001906020820280368337509192915050565b80356001600160a01b0381168114610b1057600080fd5b60008083601f840112613b95578081fd5b50813567ffffffffffffffff811115613bac578182fd5b6020830191508360208083028501011115613bc657600080fd5b9250929050565b600082601f830112613bdd578081fd5b8151602067ffffffffffffffff80831115613bf457fe5b613c0182838502016145e6565b8381528281019086840160c0808702890186018a1015613c1f578788fd5b875b87811015613ca05781838c031215613c37578889fd5b604080518381018181108982111715613c4c57fe5b82528451815288850151898201528482015191810191909152606080850151908201526080808501519082015260a090613c87828601613cc7565b9181019190915285529386019391810191600101613c21565b50919998505050505050505050565b80516001600160701b031981168114610b1057600080fd5b805160048110610b1057600080fd5b8051610b108161461b565b805160ff81168114610b1057600080fd5b600080600060408486031215613d06578283fd5b613d0f84613b6d565b9250602084013567ffffffffffffffff811115613d2a578283fd5b613d3686828701613b84565b9497909650939450505050565b600080600080600060608688031215613d5a578081fd5b613d6386613b6d565b9450602086013567ffffffffffffffff80821115613d7f578283fd5b613d8b89838a01613b84565b90965094506040880135915080821115613da3578283fd5b818801915088601f830112613db6578283fd5b813581811115613dc4578384fd5b896020828501011115613dd5578384fd5b9699959850939650602001949392505050565b600080600060408486031215613dfc578283fd5b613e0584613b6d565b9250602084013567ffffffffffffffff80821115613e21578384fd5b818601915086601f830112613e34578384fd5b813581811115613e42578485fd5b87602060c083028501011115613e56578485fd5b6020830194508093505050509250925092565b600060208284031215613e7a578081fd5b81356108cd8161460a565b600060208284031215613e96578081fd5b8135600781106108cd578182fd5b600060208284031215613eb5578081fd5b5051919050565b60008060408385031215613ece578182fd5b825191506020830151613ee08161460a565b809150509250929050565b600060a08284031215613efc578081fd5b60405160a0810181811067ffffffffffffffff82111715613f1957fe5b604052825164ffffffffff81168114613f30578283fd5b815260208301516001600160f81b031981168114613f4c578283fd5b6020820152613f5d60408401613ce1565b6040820152613f6e60608401613cd6565b6060820152613f7f60808401613caf565b60808201529392505050565b60008060408385031215613f9d578182fd5b825167ffffffffffffffff80821115613fb4578384fd5b9084019060808287031215613fc7578384fd5b604051608081018181108382111715613fdc57fe5b604052825182811115613fed578586fd5b613ff988828601613bcd565b82525060208301518281111561400d578586fd5b61401988828601613bcd565b6020830152506040830151604082015260608301516060820152809450505050602083015190509250929050565b600060208284031215614058578081fd5b81356108cd8161461b565b81835260006001600160fb1b0383111561407b578081fd5b6020830280836020870137939093016020019283525090919050565b6000815180845260208085019450808401835b8381101561410457815180518852838101518489015260408082015190890152606080820151908901526080808201519089015260a09081015190600482106140ef57fe5b88015260c090960195908201906001016140aa565b509495945050505050565b6001600160a01b0391909116815260200190565b6001600160a01b038581168252841660208201526060604082018190528101829052600082846080840137818301608090810191909152601f909201601f191601019392505050565b6001600160a01b0396871681529486166020860152928516604085015290841660608401528316608083015290911660a082015260c00190565b6001600160a01b03929092168252805164ffffffffff166020808401919091528101516001600160f81b03191660408084019190915281015160ff1660608084019190915281015161ffff1660808084019190915201516001600160701b03191660a082015260c00190565b600060018060a01b038716825261ffff86166020830152608060408301528451608080840152614246610100840182614097565b90506020860151607f198483030160a08501526142638282614097565b915050604086015160c0840152606086015160e0840152828103606084015261428d818587614063565b98975050505050505050565b6001600160a01b0396909616865261ffff94909416602086015260408501929092526060840152608083015260a082015260c00190565b6001600160a01b038616815261ffff8516602082015264ffffffffff8416604082015260806060820181905260009061203f9083018486614063565b6001600160a01b0393841681526020810192909252909116604082015260600190565b6001600160a01b03948516815260208101939093529216604082015261ffff909116606082015260800190565b6001600160a01b0394909416845260208401929092526040830152606082015260800190565b90815260200190565b6020808252600c908201526b155b985d5d1a1bdc9a5e995960a21b604082015260600190565b602080825260049082015263135a5b9d60e21b604082015260600190565b6020808252600b908201526a4554482042616c616e636560a81b604082015260600190565b60208082526006908201526552656465656d60d01b604082015260600190565b6020808252600d908201526c092dcecc2d8d2c840d2dcc8caf609b1b604082015260600190565b60208082526010908201526f556e736f7274656420616374696f6e7360801b604082015260600190565b6020808252601a908201527f496e73756666696369656e7420746f6b656e2062616c616e6365000000000000604082015260600190565b6020808252600e908201526d1499595b9d1c985b9d0818d85b1b60921b604082015260600190565b60208082526008908201526709ccace4086c2e6d60c31b604082015260600190565b6020808252601a908201527f496e76616c69642074726164657320666f72206163636f756e74000000000000604082015260600190565b6020808252600a90820152692732b390372a37b5b2b760b11b604082015260600190565b602080825260119082015270092dce6eaccccd2c6d2cadce840c6c2e6d607b1b604082015260600190565b61ffff929092168252602082015260400190565b6000808335601e19843603018112614596578283fd5b83018035915067ffffffffffffffff8211156145b0578283fd5b6020908101925081023603821315613bc657600080fd5b6000823560de198336030181126145dc578182fd5b9190910192915050565b60405181810167ffffffffffffffff8111828210171561460257fe5b604052919050565b801515811461461857600080fd5b50565b61ffff8116811461461857600080fdfe536166654d6174683a206d756c7469706c69636174696f6e206f766572666c6f77a2646970667358221220d80c4b06e2c81dd9829e4a20fdd978f6f851d113317f9e0b83c05241da5b476d64736f6c63430007060033","language":"Solidity","natspec":{"methods":{"batchBalanceAction(address,(uint8,uint16,uint256,uint256,bool,bool)[])":{"notice":"Executes a batch of balance transfers including minting and redeeming nTokens.","details":"emit:CashBalanceChange, emit:nTokenSupplyChangeauth:msg.sender auth:ERC1155","params":{"account":"the account for the action","actions":"array of balance actions to take, must be sorted by currency id"}},"batchBalanceAndTradeAction(address,(uint8,uint16,uint256,uint256,bool,bool,bytes32[])[])":{"notice":"Executes a batch of balance transfers and trading actions","details":"emit:CashBalanceChange, emit:nTokenSupplyChange, emit:LendBorrowTrade, emit:AddRemoveLiquidity,emit:SettledCashDebt, emit:nTokenResidualPurchase, emit:ReserveFeeAccruedauth:msg.sender auth:ERC1155","params":{"account":"the account for the action","actions":"array of balance actions with trades to take, must be sorted by currency id"}},"batchBalanceAndTradeActionWithCallback(address,(uint8,uint16,uint256,uint256,bool,bool,bytes32[])[],bytes)":{"notice":"Executes a batch of balance transfers and trading actions via an authorized callback contract. This can be used as a \"flash loan\" facility for special contracts that migrate assets between protocols or perform other actions on behalf of the user. Contracts can borrow from Notional and receive a callback prior to an FC check, this can be useful if the contract needs to perform a trade or repay a debt on a different protocol before depositing collateral. Since Notional's AMM will never be as capital efficient or gas efficient as other flash loan facilities, this method requires whitelisting and will mainly be used for contracts that make migrating assets a better user experience.","details":"emit:CashBalanceChange, emit:nTokenSupplyChange, emit:LendBorrowTrade, emit:AddRemoveLiquidity,emit:SettledCashDebt, emit:nTokenResidualPurchase, emit:ReserveFeeAccruedauth:authorizedCallbackContract","params":{"account":"the account that will take all the actions","actions":"array of balance actions with trades to take, must be sorted by currency id","callbackData":"arbitrary bytes to be passed backed to the caller in the callback"}},"getLibInfo()":{"notice":"Get a list of deployed library addresses (sorted by library name)"}},"kind":"dev","version":1},"opcodes":"PUSH1 0x80 PUSH1 0x40 MSTORE PUSH1 0x4 CALLDATASIZE LT PUSH2 0x70 JUMPI PUSH1 0x0 CALLDATALOAD PUSH1 0xE0 SHR DUP1 PUSH4 0x6E6A32A6 GT PUSH2 0x4E JUMPI DUP1 PUSH4 0x6E6A32A6 EQ PUSH2 0xC8 JUMPI DUP1 PUSH4 0x82463367 EQ PUSH2 0xDB JUMPI DUP1 PUSH4 0x8DA5CB5B EQ PUSH2 0xF0 JUMPI DUP1 PUSH4 0xC4C96DAE EQ PUSH2 0x105 JUMPI PUSH2 0x70 JUMP JUMPDEST DUP1 PUSH4 0x276B64B EQ PUSH2 0x75 JUMPI DUP1 PUSH4 0x24A3D622 EQ PUSH2 0x8A JUMPI DUP1 PUSH4 0x5950D8E9 EQ PUSH2 0xB5 JUMPI JUMPDEST PUSH1 0x0 DUP1 REVERT JUMPDEST PUSH2 0x88 PUSH2 0x83 CALLDATASIZE PUSH1 0x4 PUSH2 0x3CF2 JUMP JUMPDEST PUSH2 0x12C JUMP JUMPDEST STOP JUMPDEST CALLVALUE DUP1 ISZERO PUSH2 0x96 JUMPI PUSH1 0x0 DUP1 REVERT JUMPDEST POP PUSH2 0x9F PUSH2 0x1BC JUMP JUMPDEST PUSH1 0x40 MLOAD PUSH2 0xAC SWAP2 SWAP1 PUSH2 0x410F JUMP JUMPDEST PUSH1 0x40 MLOAD DUP1 SWAP2 SUB SWAP1 RETURN JUMPDEST PUSH2 0x88 PUSH2 0xC3 CALLDATASIZE PUSH1 0x4 PUSH2 0x3D43 JUMP JUMPDEST PUSH2 0x1CB JUMP JUMPDEST PUSH2 0x88 PUSH2 0xD6 CALLDATASIZE PUSH1 0x4 PUSH2 0x3DE8 JUMP JUMPDEST PUSH2 0x2FB JUMP JUMPDEST CALLVALUE DUP1 ISZERO PUSH2 0xE7 JUMPI PUSH1 0x0 DUP1 REVERT JUMPDEST POP PUSH2 0x9F PUSH2 0x481 JUMP JUMPDEST CALLVALUE DUP1 ISZERO PUSH2 0xFC JUMPI PUSH1 0x0 DUP1 REVERT JUMPDEST POP PUSH2 0x9F PUSH2 0x490 JUMP JUMPDEST CALLVALUE DUP1 ISZERO PUSH2 0x111 JUMPI PUSH1 0x0 DUP1 REVERT JUMPDEST POP PUSH2 0x11A PUSH2 0x4A7 JUMP JUMPDEST PUSH1 0x40 MLOAD PUSH2 0xAC SWAP7 SWAP6 SWAP5 SWAP4 SWAP3 SWAP2 SWAP1 PUSH2 0x416C JUMP JUMPDEST PUSH1 0x2 PUSH1 0xA SLOAD EQ ISZERO PUSH2 0x158 JUMPI PUSH1 0x40 MLOAD PUSH3 0x461BCD PUSH1 0xE5 SHL DUP2 MSTORE PUSH1 0x4 ADD PUSH2 0x14F SWAP1 PUSH2 0x449C JUMP JUMPDEST PUSH1 0x40 MLOAD DUP1 SWAP2 SUB SWAP1 REVERT JUMPDEST PUSH1 0x2 PUSH1 0xA SSTORE PUSH1 0x1 PUSH1 0x1 PUSH1 0xA0 SHL SUB DUP4 AND CALLER EQ DUP1 PUSH2 0x173 JUMPI POP CALLER ADDRESS EQ JUMPDEST PUSH2 0x18F JUMPI PUSH1 0x40 MLOAD PUSH3 0x461BCD PUSH1 0xE5 SHL DUP2 MSTORE PUSH1 0x4 ADD PUSH2 0x14F SWAP1 PUSH2 0x438B JUMP JUMPDEST PUSH2 0x198 DUP4 PUSH2 0x52D JUMP JUMPDEST PUSH1 0x0 PUSH2 0x1A5 DUP5 DUP5 DUP5 PUSH2 0x57C JUMP JUMPDEST SWAP1 POP PUSH2 0x1B1 DUP5 DUP3 PUSH2 0x8D4 JUMP JUMPDEST POP POP PUSH1 0x1 PUSH1 0xA SSTORE POP POP JUMP JUMPDEST PUSH1 0x2 SLOAD PUSH1 0x1 PUSH1 0x1 PUSH1 0xA0 SHL SUB AND DUP2 JUMP JUMPDEST CALLER PUSH1 0x0 SWAP1 DUP2 MSTORE PUSH1 0x8 PUSH1 0x20 MSTORE PUSH1 0x40 SWAP1 KECCAK256 SLOAD PUSH1 0xFF AND PUSH2 0x1FA JUMPI PUSH1 0x40 MLOAD PUSH3 0x461BCD PUSH1 0xE5 SHL DUP2 MSTORE PUSH1 0x4 ADD PUSH2 0x14F SWAP1 PUSH2 0x438B JUMP JUMPDEST PUSH2 0x203 DUP6 PUSH2 0x52D JUMP JUMPDEST PUSH1 0x0 PUSH2 0x210 DUP7 DUP7 DUP7 PUSH2 0x57C JUMP JUMPDEST SWAP1 POP PUSH2 0x21C DUP2 DUP8 PUSH2 0x955 JUMP JUMPDEST PUSH1 0x40 MLOAD PUSH4 0x550D0657 PUSH1 0xE1 SHL DUP2 MSTORE CALLER SWAP1 PUSH4 0xAA1A0CAE SWAP1 PUSH2 0x245 SWAP1 DUP4 SWAP1 DUP11 SWAP1 DUP9 SWAP1 DUP9 SWAP1 PUSH1 0x4 ADD PUSH2 0x4123 JUMP JUMPDEST PUSH1 0x0 PUSH1 0x40 MLOAD DUP1 DUP4 SUB DUP2 PUSH1 0x0 DUP8 DUP1 EXTCODESIZE ISZERO DUP1 ISZERO PUSH2 0x25F JUMPI PUSH1 0x0 DUP1 REVERT JUMPDEST POP GAS CALL ISZERO DUP1 ISZERO PUSH2 0x273 JUMPI RETURNDATASIZE PUSH1 0x0 DUP1 RETURNDATACOPY RETURNDATASIZE PUSH1 0x0 REVERT JUMPDEST POP POP POP POP PUSH1 0x20 DUP2 ADD MLOAD PUSH1 0x1 PUSH1 0x1 PUSH1 0xF8 SHL SUB NOT AND ISZERO PUSH2 0x2F3 JUMPI PUSH1 0x40 MLOAD PUSH4 0x6CCC642F PUSH1 0xE0 SHL DUP2 MSTORE PUSH20 0x0 SWAP1 PUSH4 0x6CCC642F SWAP1 PUSH2 0x2C2 SWAP1 DUP10 SWAP1 PUSH1 0x4 ADD PUSH2 0x410F JUMP JUMPDEST PUSH1 0x0 PUSH1 0x40 MLOAD DUP1 DUP4 SUB DUP2 DUP7 DUP1 EXTCODESIZE ISZERO DUP1 ISZERO PUSH2 0x2DA JUMPI PUSH1 0x0 DUP1 REVERT JUMPDEST POP GAS DELEGATECALL ISZERO DUP1 ISZERO PUSH2 0x2EE JUMPI RETURNDATASIZE PUSH1 0x0 DUP1 RETURNDATACOPY RETURNDATASIZE PUSH1 0x0 REVERT JUMPDEST POP POP POP POP JUMPDEST POP POP POP POP POP POP JUMP JUMPDEST PUSH1 0x2 PUSH1 0xA SLOAD EQ ISZERO PUSH2 0x31E JUMPI PUSH1 0x40 MLOAD PUSH3 0x461BCD PUSH1 0xE5 SHL DUP2 MSTORE PUSH1 0x4 ADD PUSH2 0x14F SWAP1 PUSH2 0x449C JUMP JUMPDEST PUSH1 0x2 PUSH1 0xA SSTORE PUSH1 0x1 PUSH1 0x1 PUSH1 0xA0 SHL SUB DUP4 AND CALLER EQ DUP1 PUSH2 0x339 JUMPI POP CALLER ADDRESS EQ JUMPDEST PUSH2 0x355 JUMPI PUSH1 0x40 MLOAD PUSH3 0x461BCD PUSH1 0xE5 SHL DUP2 MSTORE PUSH1 0x4 ADD PUSH2 0x14F SWAP1 PUSH2 0x438B JUMP JUMPDEST PUSH2 0x35E DUP4 PUSH2 0x52D JUMP JUMPDEST PUSH1 0x0 PUSH2 0x369 DUP5 PUSH2 0xA59 JUMP JUMPDEST SWAP1 POP PUSH2 0x373 PUSH2 0x3A3A JUMP JUMPDEST PUSH1 0x0 JUMPDEST DUP4 DUP2 LT ISZERO PUSH2 0x46A JUMPI CALLDATASIZE DUP6 DUP6 DUP4 DUP2 DUP2 LT PUSH2 0x38B JUMPI INVALID JUMPDEST SWAP1 POP PUSH1 0xC0 MUL ADD SWAP1 POP PUSH1 0x0 DUP3 GT ISZERO PUSH2 0x3F8 JUMPI DUP6 DUP6 PUSH1 0x1 DUP5 SUB DUP2 DUP2 LT PUSH2 0x3AB JUMPI INVALID JUMPDEST SWAP1 POP PUSH1 0xC0 MUL ADD PUSH1 0x20 ADD PUSH1 0x20 DUP2 ADD SWAP1 PUSH2 0x3C3 SWAP2 SWAP1 PUSH2 0x4047 JUMP JUMPDEST PUSH2 0xFFFF AND PUSH2 0x3D7 PUSH1 0x40 DUP4 ADD PUSH1 0x20 DUP5 ADD PUSH2 0x4047 JUMP JUMPDEST PUSH2 0xFFFF AND GT PUSH2 0x3F8 JUMPI PUSH1 0x40 MLOAD PUSH3 0x461BCD PUSH1 0xE5 SHL DUP2 MSTORE PUSH1 0x4 ADD PUSH2 0x14F SWAP1 PUSH2 0x443B JUMP JUMPDEST PUSH2 0x415 DUP8 PUSH2 0x40C PUSH1 0x40 DUP5 ADD PUSH1 0x20 DUP6 ADD PUSH2 0x4047 JUMP JUMPDEST DUP6 SWAP2 SWAP1 DUP8 PUSH2 0xB15 JUMP JUMPDEST PUSH2 0x431 DUP8 DUP5 PUSH2 0x427 PUSH1 0x20 DUP6 ADD DUP6 PUSH2 0x3E85 JUMP JUMPDEST DUP5 PUSH1 0x40 ADD CALLDATALOAD PUSH2 0xBBB JUMP JUMPDEST PUSH2 0x461 DUP8 DUP6 DUP6 PUSH1 0x60 DUP6 ADD CALLDATALOAD PUSH2 0x44C PUSH1 0xA0 DUP8 ADD PUSH1 0x80 DUP9 ADD PUSH2 0x3E69 JUMP JUMPDEST PUSH2 0x45C PUSH1 0xC0 DUP9 ADD PUSH1 0xA0 DUP10 ADD PUSH2 0x3E69 JUMP JUMPDEST PUSH2 0xC8E JUMP JUMPDEST POP PUSH1 0x1 ADD PUSH2 0x376 JUMP JUMPDEST POP PUSH2 0x475 DUP6 DUP4 PUSH2 0x8D4 JUMP JUMPDEST POP POP PUSH1 0x1 PUSH1 0xA SSTORE POP POP POP JUMP JUMPDEST PUSH1 0x1 SLOAD PUSH1 0x1 PUSH1 0x1 PUSH1 0xA0 SHL SUB AND DUP2 JUMP JUMPDEST PUSH1 0x0 SLOAD PUSH5 0x100000000 SWAP1 DIV PUSH1 0x1 PUSH1 0x1 PUSH1 0xA0 SHL SUB AND DUP2 JUMP JUMPDEST PUSH20 0x0 PUSH20 0x0 PUSH20 0x0 PUSH20 0x0 PUSH20 0x0 PUSH20 0x0 SWAP1 SWAP2 SWAP3 SWAP4 SWAP5 SWAP6 JUMP JUMPDEST PUSH1 0x1 PUSH1 0x1 PUSH1 0xA0 SHL SUB DUP2 AND PUSH2 0x540 JUMPI PUSH1 0x0 DUP1 REVERT JUMPDEST PUSH1 0x1 PUSH1 0x1 PUSH1 0xA0 SHL SUB DUP2 AND ADDRESS EQ ISZERO PUSH2 0x556 JUMPI PUSH1 0x0 DUP1 REVERT JUMPDEST PUSH1 0x0 PUSH2 0x561 DUP3 PUSH2 0xD11 JUMP JUMPDEST POP POP POP POP PUSH2 0xFFFF AND SWAP1 POP DUP1 PUSH1 0x0 EQ PUSH2 0x578 JUMPI PUSH1 0x0 DUP1 REVERT JUMPDEST POP POP JUMP JUMPDEST PUSH2 0x584 PUSH2 0x3A8A JUMP JUMPDEST PUSH1 0x0 PUSH2 0x58F DUP6 PUSH2 0xA59 JUMP JUMPDEST SWAP1 POP PUSH2 0x599 PUSH2 0x3A3A JUMP JUMPDEST PUSH1 0x0 PUSH2 0x5AB DUP8 DUP5 PUSH1 0x40 ADD MLOAD PUSH1 0x0 PUSH2 0xD7A JUMP JUMPDEST SWAP1 POP PUSH1 0x0 JUMPDEST DUP6 DUP2 LT ISZERO PUSH2 0x8AC JUMPI CALLDATASIZE DUP8 DUP8 DUP4 DUP2 DUP2 LT PUSH2 0x5C5 JUMPI INVALID JUMPDEST SWAP1 POP PUSH1 0x20 MUL DUP2 ADD SWAP1 PUSH2 0x5D7 SWAP2 SWAP1 PUSH2 0x45C7 JUMP JUMPDEST SWAP1 POP DUP2 ISZERO PUSH2 0x646 JUMPI DUP8 DUP8 PUSH1 0x1 DUP5 SUB DUP2 DUP2 LT PUSH2 0x5EE JUMPI INVALID JUMPDEST SWAP1 POP PUSH1 0x20 MUL DUP2 ADD SWAP1 PUSH2 0x600 SWAP2 SWAP1 PUSH2 0x45C7 JUMP JUMPDEST PUSH2 0x611 SWAP1 PUSH1 0x40 DUP2 ADD SWAP1 PUSH1 0x20 ADD PUSH2 0x4047 JUMP JUMPDEST PUSH2 0xFFFF AND PUSH2 0x625 PUSH1 0x40 DUP4 ADD PUSH1 0x20 DUP5 ADD PUSH2 0x4047 JUMP JUMPDEST PUSH2 0xFFFF AND GT PUSH2 0x646 JUMPI PUSH1 0x40 MLOAD PUSH3 0x461BCD PUSH1 0xE5 SHL DUP2 MSTORE PUSH1 0x4 ADD PUSH2 0x14F SWAP1 PUSH2 0x443B JUMP JUMPDEST PUSH2 0x663 DUP10 PUSH2 0x65A PUSH1 0x40 DUP5 ADD PUSH1 0x20 DUP6 ADD PUSH2 0x4047 JUMP JUMPDEST DUP7 SWAP2 SWAP1 DUP9 PUSH2 0xB15 JUMP JUMPDEST PUSH2 0x675 DUP10 DUP6 PUSH2 0x427 PUSH1 0x20 DUP6 ADD DUP6 PUSH2 0x3E85 JUMP JUMPDEST PUSH1 0x0 PUSH2 0x684 PUSH1 0xC0 DUP4 ADD DUP4 PUSH2 0x4580 JUMP JUMPDEST SWAP1 POP GT ISZERO PUSH2 0x888 JUMPI PUSH1 0x0 PUSH2 0x697 DUP7 PUSH2 0xE0D JUMP JUMPDEST ISZERO PUSH2 0x7A4 JUMPI PUSH2 0x6AC PUSH1 0x40 DUP4 ADD PUSH1 0x20 DUP5 ADD PUSH2 0x4047 JUMP JUMPDEST PUSH2 0xFFFF AND DUP7 PUSH1 0x60 ADD MLOAD PUSH2 0xFFFF AND EQ PUSH2 0x6D6 JUMPI PUSH1 0x40 MLOAD PUSH3 0x461BCD PUSH1 0xE5 SHL DUP2 MSTORE PUSH1 0x4 ADD PUSH2 0x14F SWAP1 PUSH2 0x44E6 JUMP JUMPDEST PUSH1 0x60 DUP7 ADD MLOAD DUP7 MLOAD PUSH1 0x0 SWAP2 PUSH20 0x0 SWAP2 PUSH4 0x3643F39B SWAP2 DUP15 SWAP2 PUSH2 0x70B PUSH1 0xC0 DUP10 ADD DUP10 PUSH2 0x4580 JUMP JUMPDEST PUSH1 0x40 MLOAD DUP7 PUSH4 0xFFFFFFFF AND PUSH1 0xE0 SHL DUP2 MSTORE PUSH1 0x4 ADD PUSH2 0x72B SWAP6 SWAP5 SWAP4 SWAP3 SWAP2 SWAP1 PUSH2 0x42D0 JUMP JUMPDEST PUSH1 0x40 DUP1 MLOAD DUP1 DUP4 SUB DUP2 DUP7 DUP1 EXTCODESIZE ISZERO DUP1 ISZERO PUSH2 0x742 JUMPI PUSH1 0x0 DUP1 REVERT JUMPDEST POP GAS DELEGATECALL ISZERO DUP1 ISZERO PUSH2 0x756 JUMPI RETURNDATASIZE PUSH1 0x0 DUP1 RETURNDATACOPY RETURNDATASIZE PUSH1 0x0 REVERT JUMPDEST POP POP POP POP PUSH1 0x40 MLOAD RETURNDATASIZE PUSH1 0x1F NOT PUSH1 0x1F DUP3 ADD AND DUP3 ADD DUP1 PUSH1 0x40 MSTORE POP DUP2 ADD SWAP1 PUSH2 0x77A SWAP2 SWAP1 PUSH2 0x3EBC JUMP JUMPDEST SWAP1 SWAP3 POP SWAP1 POP DUP1 ISZERO PUSH2 0x79E JUMPI PUSH1 0x20 DUP8 ADD DUP1 MLOAD PUSH1 0x1 PUSH1 0xF8 SHL OR PUSH1 0x1 PUSH1 0x1 PUSH1 0xF8 SHL SUB NOT AND SWAP1 MSTORE JUMPDEST POP PUSH2 0x857 JUMP JUMPDEST PUSH20 0x0 PUSH4 0xB58F83ED DUP12 PUSH2 0x7CF PUSH1 0x40 DUP7 ADD PUSH1 0x20 DUP8 ADD PUSH2 0x4047 JUMP JUMPDEST DUP8 PUSH2 0x7DD PUSH1 0xC0 DUP9 ADD DUP9 PUSH2 0x4580 JUMP JUMPDEST PUSH1 0x40 MLOAD DUP7 PUSH4 0xFFFFFFFF AND PUSH1 0xE0 SHL DUP2 MSTORE PUSH1 0x4 ADD PUSH2 0x7FD SWAP6 SWAP5 SWAP4 SWAP3 SWAP2 SWAP1 PUSH2 0x4212 JUMP JUMPDEST PUSH1 0x0 PUSH1 0x40 MLOAD DUP1 DUP4 SUB DUP2 DUP7 DUP1 EXTCODESIZE ISZERO DUP1 ISZERO PUSH2 0x815 JUMPI PUSH1 0x0 DUP1 REVERT JUMPDEST POP GAS DELEGATECALL ISZERO DUP1 ISZERO PUSH2 0x829 JUMPI RETURNDATASIZE PUSH1 0x0 DUP1 RETURNDATACOPY RETURNDATASIZE PUSH1 0x0 REVERT JUMPDEST POP POP POP POP PUSH1 0x40 MLOAD RETURNDATASIZE PUSH1 0x0 DUP3 RETURNDATACOPY PUSH1 0x1F RETURNDATASIZE SWAP1 DUP2 ADD PUSH1 0x1F NOT AND DUP3 ADD PUSH1 0x40 MSTORE PUSH2 0x851 SWAP2 SWAP1 DUP2 ADD SWAP1 PUSH2 0x3F8B JUMP JUMPDEST SWAP1 SWAP5 POP SWAP1 POP JUMPDEST PUSH1 0x0 DUP2 SLT ISZERO PUSH2 0x872 JUMPI PUSH2 0x872 DUP6 PUSH2 0x86D DUP4 PUSH2 0xE1A JUMP JUMPDEST PUSH2 0xE28 JUMP JUMPDEST PUSH1 0x60 DUP6 ADD MLOAD PUSH2 0x881 SWAP1 DUP3 PUSH2 0xE77 JUMP JUMPDEST PUSH1 0x60 DUP7 ADD MSTORE POP JUMPDEST PUSH2 0x8A3 DUP10 DUP7 DUP7 PUSH1 0x60 DUP6 ADD CALLDATALOAD PUSH2 0x44C PUSH1 0xA0 DUP8 ADD PUSH1 0x80 DUP9 ADD PUSH2 0x3E69 JUMP JUMPDEST POP PUSH1 0x1 ADD PUSH2 0x5B0 JUMP JUMPDEST POP PUSH2 0x8B6 DUP4 PUSH2 0xE0D JUMP JUMPDEST PUSH2 0x8C7 JUMPI PUSH2 0x8C7 DUP4 DUP9 DUP4 PUSH1 0x0 PUSH2 0xE93 JUMP JUMPDEST POP SWAP1 SWAP2 POP POP JUMPDEST SWAP4 SWAP3 POP POP POP JUMP JUMPDEST PUSH2 0x8DE DUP2 DUP4 PUSH2 0x955 JUMP JUMPDEST PUSH1 0x20 DUP2 ADD MLOAD PUSH1 0x1 PUSH1 0x1 PUSH1 0xF8 SHL SUB NOT AND ISZERO PUSH2 0x578 JUMPI PUSH1 0x40 MLOAD PUSH4 0x6CCC642F PUSH1 0xE0 SHL DUP2 MSTORE PUSH20 0x0 SWAP1 PUSH4 0x6CCC642F SWAP1 PUSH2 0x929 SWAP1 DUP6 SWAP1 PUSH1 0x4 ADD PUSH2 0x410F JUMP JUMPDEST PUSH1 0x0 PUSH1 0x40 MLOAD DUP1 DUP4 SUB DUP2 DUP7 DUP1 EXTCODESIZE ISZERO DUP1 ISZERO PUSH2 0x941 JUMPI PUSH1 0x0 DUP1 REVERT JUMPDEST POP GAS DELEGATECALL ISZERO DUP1 ISZERO PUSH2 0x2F3 JUMPI RETURNDATASIZE PUSH1 0x0 DUP1 RETURNDATACOPY RETURNDATASIZE PUSH1 0x0 REVERT JUMPDEST PUSH1 0x0 PUSH2 0x95F PUSH2 0xF75 JUMP JUMPDEST PUSH1 0x1 PUSH1 0x1 PUSH1 0xA0 SHL SUB DUP4 AND PUSH1 0x0 DUP2 DUP2 MSTORE PUSH1 0x20 DUP4 DUP2 MSTORE PUSH1 0x40 DUP1 DUP4 KECCAK256 DUP9 MLOAD DUP2 SLOAD SWAP4 DUP11 ADD MLOAD DUP4 DUP12 ADD MLOAD PUSH1 0x60 DUP13 ADD MLOAD PUSH1 0x80 DUP14 ADD MLOAD PUSH1 0x70 SHR PUSH1 0x1 PUSH1 0x48 SHL MUL PUSH27 0xFFFFFFFFFFFFFFFFFFFFFFFFFFFFFFFFFFFF000000000000000000 NOT PUSH2 0xFFFF SWAP1 SWAP3 AND PUSH1 0x1 PUSH1 0x38 SHL MUL PUSH9 0xFFFF00000000000000 NOT PUSH1 0xFF SWAP5 SWAP1 SWAP5 AND PUSH1 0x1 PUSH1 0x30 SHL MUL PUSH7 0xFF000000000000 NOT PUSH1 0xF8 SWAP7 SWAP1 SWAP7 SHR PUSH6 0x10000000000 MUL PUSH6 0xFF0000000000 NOT PUSH5 0xFFFFFFFFFF SWAP1 SWAP9 AND PUSH5 0xFFFFFFFFFF NOT SWAP1 SWAP12 AND SWAP11 SWAP1 SWAP11 OR SWAP7 SWAP1 SWAP7 AND SWAP9 SWAP1 SWAP9 OR SWAP4 SWAP1 SWAP4 AND SWAP4 SWAP1 SWAP4 OR AND SWAP5 SWAP1 SWAP5 OR AND SWAP3 SWAP1 SWAP3 OR SWAP1 SWAP2 SSTORE MLOAD SWAP3 SWAP4 POP SWAP1 SWAP2 PUSH32 0x6BD4B121BCA854A191536A2CA891155C42EE2FB23F307FB34E8BC65CFCB5412E SWAP2 SWAP1 LOG2 POP POP POP JUMP JUMPDEST PUSH2 0xA61 PUSH2 0x3A8A JUMP JUMPDEST PUSH1 0x0 PUSH2 0xA6C DUP4 PUSH2 0xF82 JUMP JUMPDEST SWAP1 POP PUSH2 0xA77 DUP2 PUSH2 0x1023 JUMP JUMPDEST ISZERO PUSH2 0xB0D JUMPI PUSH1 0x40 MLOAD PUSH4 0x37B5FC21 PUSH1 0xE1 SHL DUP2 MSTORE PUSH20 0x0 SWAP1 PUSH4 0x6F6BF842 SWAP1 PUSH2 0xAB5 SWAP1 DUP7 SWAP1 DUP6 SWAP1 PUSH1 0x4 ADD PUSH2 0x41A6 JUMP JUMPDEST PUSH1 0xA0 PUSH1 0x40 MLOAD DUP1 DUP4 SUB DUP2 DUP7 DUP1 EXTCODESIZE ISZERO DUP1 ISZERO PUSH2 0xACD JUMPI PUSH1 0x0 DUP1 REVERT JUMPDEST POP GAS DELEGATECALL ISZERO DUP1 ISZERO PUSH2 0xAE1 JUMPI RETURNDATASIZE PUSH1 0x0 DUP1 RETURNDATACOPY RETURNDATASIZE PUSH1 0x0 REVERT JUMPDEST POP POP POP POP PUSH1 0x40 MLOAD RETURNDATASIZE PUSH1 0x1F NOT PUSH1 0x1F DUP3 ADD AND DUP3 ADD DUP1 PUSH1 0x40 MSTORE POP DUP2 ADD SWAP1 PUSH2 0xB05 SWAP2 SWAP1 PUSH2 0x3EEB JUMP JUMPDEST SWAP2 POP POP PUSH2 0xB10 JUMP JUMPDEST SWAP1 POP JUMPDEST SWAP2 SWAP1 POP JUMP JUMPDEST DUP2 PUSH2 0xFFFF AND PUSH1 0x0 LT DUP1 ISZERO PUSH2 0xB2F JUMPI POP PUSH2 0x3FFF PUSH2 0xFFFF DUP4 AND GT ISZERO JUMPDEST PUSH2 0xB38 JUMPI PUSH1 0x0 DUP1 REVERT JUMPDEST PUSH2 0xFFFF DUP3 AND DUP1 DUP6 MSTORE PUSH2 0xB4B SWAP1 DUP3 SWAP1 PUSH2 0x1074 JUMP JUMPDEST ISZERO PUSH2 0xB78 JUMPI PUSH2 0xB5E DUP4 DUP4 PUSH2 0xFFFF AND PUSH2 0x10FE JUMP JUMPDEST PUSH2 0x100 DUP9 ADD MSTORE PUSH1 0xE0 DUP8 ADD MSTORE PUSH1 0x40 DUP7 ADD MSTORE PUSH1 0x20 DUP6 ADD MSTORE PUSH2 0xB96 JUMP JUMPDEST PUSH1 0x0 PUSH1 0x20 DUP6 ADD DUP2 SWAP1 MSTORE PUSH1 0x40 DUP6 ADD DUP2 SWAP1 MSTORE PUSH1 0xE0 DUP6 ADD DUP2 SWAP1 MSTORE PUSH2 0x100 DUP6 ADD MSTORE JUMPDEST POP POP PUSH1 0x0 PUSH1 0x60 DUP4 ADD DUP2 SWAP1 MSTORE PUSH1 0x80 DUP4 ADD DUP2 SWAP1 MSTORE PUSH1 0xA0 DUP4 ADD DUP2 SWAP1 MSTORE PUSH1 0xC0 SWAP1 SWAP3 ADD SWAP2 SWAP1 SWAP2 MSTORE POP JUMP JUMPDEST PUSH1 0x0 PUSH2 0xBC6 DUP3 PUSH2 0x11AA JUMP JUMPDEST SWAP1 POP PUSH1 0x0 DUP1 DUP3 SLT ISZERO PUSH2 0xBD7 JUMPI PUSH1 0x0 DUP1 REVERT JUMPDEST PUSH1 0x0 DUP5 PUSH1 0x6 DUP2 GT ISZERO PUSH2 0xBE5 JUMPI INVALID JUMPDEST EQ ISZERO PUSH2 0xBF2 JUMPI POP POP PUSH2 0xC88 JUMP JUMPDEST PUSH1 0x1 DUP5 PUSH1 0x6 DUP2 GT ISZERO PUSH2 0xC00 JUMPI INVALID JUMPDEST EQ DUP1 PUSH2 0xC17 JUMPI POP PUSH1 0x3 DUP5 PUSH1 0x6 DUP2 GT ISZERO PUSH2 0xC15 JUMPI INVALID JUMPDEST EQ JUMPDEST ISZERO PUSH2 0xC30 JUMPI PUSH2 0xC29 DUP6 DUP8 DUP5 PUSH1 0x0 PUSH2 0x11C4 JUMP JUMPDEST SWAP1 POP PUSH2 0xC7C JUMP JUMPDEST PUSH1 0x2 DUP5 PUSH1 0x6 DUP2 GT ISZERO PUSH2 0xC3E JUMPI INVALID JUMPDEST EQ DUP1 PUSH2 0xC55 JUMPI POP PUSH1 0x4 DUP5 PUSH1 0x6 DUP2 GT ISZERO PUSH2 0xC53 JUMPI INVALID JUMPDEST EQ JUMPDEST ISZERO PUSH2 0xC65 JUMPI PUSH2 0xC29 DUP6 DUP8 DUP5 PUSH2 0x129F JUMP JUMPDEST PUSH1 0x6 DUP5 PUSH1 0x6 DUP2 GT ISZERO PUSH2 0xC73 JUMPI INVALID JUMPDEST EQ ISZERO PUSH2 0xC7C JUMPI POP DUP1 JUMPDEST PUSH2 0x2F3 DUP6 DUP6 DUP5 DUP5 PUSH2 0x1384 JUMP JUMPDEST POP POP POP POP JUMP JUMPDEST PUSH1 0x0 PUSH2 0xC99 DUP5 PUSH2 0x11AA JUMP JUMPDEST SWAP1 POP PUSH1 0x0 DUP2 SLT ISZERO PUSH2 0xCA9 JUMPI PUSH1 0x0 DUP1 REVERT JUMPDEST DUP3 ISZERO PUSH2 0xCE7 JUMPI PUSH2 0xCD8 DUP6 PUSH1 0x80 ADD MLOAD PUSH2 0xCD2 DUP8 PUSH1 0x60 ADD MLOAD DUP9 PUSH1 0x20 ADD MLOAD PUSH2 0xE77 SWAP1 SWAP2 SWAP1 PUSH4 0xFFFFFFFF AND JUMP JUMPDEST SWAP1 PUSH2 0xE77 JUMP JUMPDEST SWAP1 POP PUSH1 0x0 DUP2 SLT ISZERO PUSH2 0xCE7 JUMPI POP PUSH1 0x0 JUMPDEST PUSH1 0x80 DUP6 ADD MLOAD PUSH2 0xCF6 SWAP1 DUP3 PUSH2 0x159F JUMP JUMPDEST PUSH1 0x80 DUP7 ADD MSTORE PUSH2 0xD07 DUP6 DUP9 DUP9 DUP6 PUSH2 0x15B5 JUMP JUMPDEST POP POP POP POP POP POP POP POP JUMP JUMPDEST PUSH1 0x0 DUP1 PUSH1 0x0 DUP1 PUSH1 0x0 DUP1 PUSH2 0xD22 PUSH2 0x1830 JUMP JUMPDEST PUSH1 0x1 PUSH1 0x1 PUSH1 0xA0 SHL SUB SWAP1 SWAP8 AND PUSH1 0x0 SWAP1 DUP2 MSTORE PUSH1 0x20 SWAP8 SWAP1 SWAP8 MSTORE POP POP PUSH1 0x40 SWAP1 SWAP5 KECCAK256 SLOAD PUSH2 0xFFFF DUP2 AND SWAP6 PUSH4 0xFFFFFFFF PUSH3 0x10000 DUP4 DIV DUP2 AND SWAP7 POP PUSH1 0x1 PUSH1 0x30 SHL DUP4 DIV AND SWAP5 POP PUSH1 0xFF PUSH1 0x1 PUSH1 0x50 SHL DUP4 DIV AND SWAP4 POP PUSH1 0x1 PUSH1 0x58 SHL SWAP1 SWAP2 DIV PUSH1 0xD8 SHL SWAP2 POP JUMP JUMPDEST PUSH2 0xD82 PUSH2 0x3AB8 JUMP JUMPDEST PUSH2 0xD8A PUSH2 0x3AB8 JUMP JUMPDEST PUSH1 0xFF DUP5 AND PUSH2 0xD99 JUMPI SWAP1 POP PUSH2 0x8CD JUMP JUMPDEST PUSH2 0xDA3 DUP6 DUP6 PUSH2 0x183D JUMP JUMPDEST DUP2 MSTORE PUSH1 0xFF DUP5 AND PUSH1 0x60 DUP3 ADD MSTORE DUP3 PUSH8 0xFFFFFFFFFFFFFFFF DUP2 GT DUP1 ISZERO PUSH2 0xDC5 JUMPI PUSH1 0x0 DUP1 REVERT JUMPDEST POP PUSH1 0x40 MLOAD SWAP1 DUP1 DUP3 MSTORE DUP1 PUSH1 0x20 MUL PUSH1 0x20 ADD DUP3 ADD PUSH1 0x40 MSTORE DUP1 ISZERO PUSH2 0xDFF JUMPI DUP2 PUSH1 0x20 ADD JUMPDEST PUSH2 0xDEC PUSH2 0x3AE0 JUMP JUMPDEST DUP2 MSTORE PUSH1 0x20 ADD SWAP1 PUSH1 0x1 SWAP1 SUB SWAP1 DUP2 PUSH2 0xDE4 JUMPI SWAP1 POP JUMPDEST POP PUSH1 0x20 DUP3 ADD MSTORE SWAP5 SWAP4 POP POP POP POP JUMP JUMPDEST PUSH1 0x60 ADD MLOAD PUSH2 0xFFFF AND ISZERO ISZERO SWAP1 JUMP JUMPDEST PUSH1 0x0 PUSH2 0xB0D PUSH1 0x0 NOT DUP4 PUSH2 0x1866 JUMP JUMPDEST PUSH1 0x0 DUP2 SLT ISZERO DUP1 ISZERO PUSH2 0xE5B JUMPI POP DUP1 PUSH2 0xE58 DUP4 PUSH1 0x80 ADD MLOAD PUSH2 0xCD2 DUP6 PUSH1 0x60 ADD MLOAD DUP7 PUSH1 0x20 ADD MLOAD PUSH2 0xE77 SWAP1 SWAP2 SWAP1 PUSH4 0xFFFFFFFF AND JUMP JUMPDEST SLT ISZERO JUMPDEST PUSH2 0x578 JUMPI PUSH1 0x40 MLOAD PUSH3 0x461BCD PUSH1 0xE5 SHL DUP2 MSTORE PUSH1 0x4 ADD PUSH2 0x14F SWAP1 PUSH2 0x4541 JUMP JUMPDEST DUP2 DUP2 ADD DUP3 DUP2 SLT ISZERO PUSH1 0x0 DUP4 SLT ISZERO EQ PUSH2 0xE8D JUMPI PUSH1 0x0 DUP1 REVERT JUMPDEST SWAP3 SWAP2 POP POP JUMP JUMPDEST PUSH1 0x0 DUP1 DUP1 DUP1 PUSH2 0xEA2 DUP7 DUP9 PUSH2 0x18B4 JUMP JUMPDEST PUSH5 0xFFFFFFFFFF DUP2 AND DUP13 MSTORE SWAP3 SWAP7 POP SWAP1 SWAP5 POP SWAP3 POP SWAP1 POP PUSH2 0xEBF DUP9 PUSH2 0x1023 JUMP JUMPDEST ISZERO PUSH2 0xEC9 JUMPI PUSH1 0x0 DUP1 REVERT JUMPDEST PUSH1 0xFF DUP3 AND PUSH1 0x40 DUP10 ADD MSTORE DUP5 PUSH2 0xEE8 JUMPI PUSH1 0x7 PUSH1 0xFF DUP4 AND GT ISZERO PUSH2 0xEE8 JUMPI PUSH1 0x0 DUP1 REVERT JUMPDEST DUP4 ISZERO PUSH2 0xF0B JUMPI PUSH1 0x20 DUP9 ADD DUP1 MLOAD PUSH1 0x1 PUSH1 0xF8 SHL OR PUSH1 0x1 PUSH1 0x1 PUSH1 0xF8 SHL SUB NOT AND SWAP1 MSTORE PUSH2 0xF1A JUMP JUMPDEST PUSH1 0x20 DUP9 ADD DUP1 MLOAD PUSH1 0x7F PUSH1 0xF9 SHL AND SWAP1 MSTORE JUMPDEST PUSH2 0xF27 DUP9 PUSH1 0x80 ADD MLOAD PUSH2 0x1AF3 JUMP JUMPDEST PUSH1 0x1 PUSH1 0x1 PUSH1 0x70 SHL SUB NOT AND PUSH1 0x80 DUP10 ADD MSTORE PUSH1 0x0 JUMPDEST DUP4 ISZERO PUSH2 0xF6A JUMPI PUSH1 0xF0 DUP5 SWAP1 SHR DUP2 DUP2 EQ PUSH2 0xF5C JUMPI PUSH2 0xF5C DUP11 DUP3 PUSH1 0x1 PUSH1 0x1 PUSH1 0xFF SHL PUSH2 0x1B6E JUMP JUMPDEST PUSH1 0x10 SWAP5 SWAP1 SWAP5 SHL SWAP4 SWAP1 POP PUSH2 0xF39 JUMP JUMPDEST POP POP POP POP POP POP POP POP POP JUMP JUMPDEST PUSH1 0x0 DUP1 PUSH2 0xE8D PUSH1 0x1 PUSH2 0x1D6D JUMP JUMPDEST PUSH2 0xF8A PUSH2 0x3A8A JUMP JUMPDEST PUSH1 0x0 PUSH2 0xF94 PUSH2 0xF75 JUMP JUMPDEST PUSH1 0x1 PUSH1 0x1 PUSH1 0xA0 SHL SUB SWAP4 SWAP1 SWAP4 AND PUSH1 0x0 SWAP1 DUP2 MSTORE PUSH1 0x20 SWAP4 DUP5 MSTORE PUSH1 0x40 SWAP1 DUP2 SWAP1 KECCAK256 DUP2 MLOAD PUSH1 0xA0 DUP2 ADD DUP4 MSTORE SWAP1 SLOAD PUSH5 0xFFFFFFFFFF DUP2 AND DUP3 MSTORE PUSH6 0x10000000000 DUP2 DIV PUSH1 0xF8 SHL PUSH1 0x1 PUSH1 0x1 PUSH1 0xF8 SHL SUB NOT AND SWAP6 DUP3 ADD SWAP6 SWAP1 SWAP6 MSTORE PUSH1 0x1 PUSH1 0x30 SHL DUP6 DIV PUSH1 0xFF AND SWAP2 DUP2 ADD SWAP2 SWAP1 SWAP2 MSTORE PUSH1 0x1 PUSH1 0x38 SHL DUP5 DIV PUSH2 0xFFFF AND PUSH1 0x60 DUP3 ADD MSTORE PUSH1 0x1 PUSH1 0x48 SHL SWAP1 SWAP4 DIV PUSH1 0x70 SHL PUSH1 0x1 PUSH1 0x1 PUSH1 0x70 SHL SUB NOT AND PUSH1 0x80 DUP5 ADD MSTORE POP SWAP1 SWAP2 SWAP1 POP JUMP JUMPDEST PUSH1 0x0 TIMESTAMP PUSH2 0x102F DUP4 PUSH2 0xE0D JUMP JUMPDEST ISZERO PUSH2 0x1050 JUMPI PUSH2 0x103D DUP2 PUSH2 0x1D86 JUMP JUMPDEST DUP4 MLOAD PUSH5 0xFFFFFFFFFF AND LT SWAP2 POP PUSH2 0xB10 SWAP1 POP JUMP JUMPDEST DUP3 MLOAD PUSH5 0xFFFFFFFFFF AND ISZERO DUP1 ISZERO SWAP1 PUSH2 0xB05 JUMPI POP DUP3 MLOAD PUSH5 0xFFFFFFFFFF AND GT ISZERO SWAP1 POP PUSH2 0xB10 JUMP JUMPDEST PUSH1 0x0 DUP2 ISZERO DUP1 ISZERO SWAP1 PUSH2 0x1087 JUMPI POP PUSH2 0x3FFF DUP3 GT ISZERO JUMPDEST PUSH2 0x1090 JUMPI PUSH1 0x0 DUP1 REVERT JUMPDEST PUSH1 0x80 DUP4 ADD MLOAD PUSH1 0x60 DUP5 ADD MLOAD PUSH2 0xFFFF AND DUP4 EQ ISZERO PUSH2 0x10AF JUMPI PUSH1 0x1 SWAP2 POP POP PUSH2 0xE8D JUMP JUMPDEST PUSH1 0x1 PUSH1 0x1 PUSH1 0x70 SHL SUB NOT DUP2 AND ISZERO PUSH2 0x10F4 JUMPI PUSH1 0xF0 DUP2 SWAP1 SHR PUSH2 0x3FFF AND DUP4 DUP2 EQ ISZERO PUSH2 0x10E1 JUMPI POP PUSH1 0x1 PUSH1 0xFE SHL SWAP1 DUP2 AND EQ SWAP1 POP PUSH2 0xE8D JUMP JUMPDEST POP PUSH1 0x10 SHL PUSH1 0x1 PUSH1 0x1 PUSH1 0x80 SHL SUB NOT AND PUSH2 0x10AF JUMP JUMPDEST POP PUSH1 0x0 SWAP4 SWAP3 POP POP POP JUMP JUMPDEST PUSH1 0x0 DUP1 PUSH1 0x0 DUP1 PUSH1 0x0 PUSH2 0x110E PUSH2 0x1DA4 JUMP JUMPDEST PUSH1 0x1 PUSH1 0x1 PUSH1 0xA0 SHL SUB DUP9 AND PUSH1 0x0 SWAP1 DUP2 MSTORE PUSH1 0x20 DUP3 DUP2 MSTORE PUSH1 0x40 DUP1 DUP4 KECCAK256 DUP11 DUP5 MSTORE SWAP1 SWAP2 MSTORE SWAP1 KECCAK256 DUP1 SLOAD PUSH10 0xFFFFFFFFFFFFFFFFFFFF DUP2 AND SWAP7 POP PUSH1 0x1 PUSH1 0x50 SHL SWAP1 DIV PUSH4 0xFFFFFFFF AND SWAP5 POP SWAP1 SWAP2 POP DUP4 ISZERO PUSH2 0x117A JUMPI DUP1 SLOAD PUSH2 0x1173 SWAP1 PUSH1 0x1 PUSH1 0x70 SHL SWAP1 DIV PUSH7 0xFFFFFFFFFFFFFF AND PUSH2 0x1DB1 JUMP JUMPDEST SWAP3 POP PUSH2 0x118F JUMP JUMPDEST DUP1 SLOAD PUSH1 0x1 PUSH1 0x70 SHL SWAP1 DIV PUSH7 0xFFFFFFFFFFFFFF AND SWAP3 POP JUMPDEST SLOAD PUSH1 0x1 PUSH1 0xA8 SHL SWAP1 DIV PUSH1 0xA SWAP1 DUP2 SIGNEXTEND SWAP1 SIGNEXTEND SWAP8 SWAP4 SWAP7 POP SWAP2 SWAP5 POP SWAP3 POP POP JUMP JUMPDEST PUSH1 0x0 PUSH1 0x1 PUSH1 0x1 PUSH1 0xFF SHL SUB DUP3 GT ISZERO PUSH2 0x11C0 JUMPI PUSH1 0x0 DUP1 REVERT JUMPDEST POP SWAP1 JUMP JUMPDEST PUSH1 0x0 DUP3 PUSH2 0x11D3 JUMPI POP PUSH1 0x0 PUSH2 0x1297 JUMP JUMPDEST PUSH1 0x0 DUP4 SGT PUSH2 0x11E0 JUMPI PUSH1 0x0 DUP1 REVERT JUMPDEST PUSH1 0x0 PUSH2 0x11F3 DUP7 PUSH1 0x0 ADD MLOAD PUSH2 0xFFFF AND PUSH2 0x1DBF JUMP JUMPDEST SWAP1 POP PUSH1 0x5 DUP2 PUSH1 0x60 ADD MLOAD PUSH1 0x5 DUP2 GT ISZERO PUSH2 0x1207 JUMPI INVALID JUMPDEST EQ ISZERO PUSH2 0x1220 JUMPI DUP6 MLOAD PUSH2 0x121D SWAP1 PUSH2 0xFFFF AND DUP6 PUSH2 0x1DD2 JUMP JUMPDEST SWAP4 POP JUMPDEST DUP1 PUSH1 0x20 ADD MLOAD DUP1 PUSH2 0x122D JUMPI POP DUP3 JUMPDEST ISZERO PUSH2 0x1274 JUMPI DUP6 MLOAD PUSH1 0x0 SWAP1 PUSH2 0x1249 SWAP1 DUP4 SWAP1 DUP9 SWAP1 PUSH2 0xFFFF AND DUP9 PUSH2 0x1E59 JUMP JUMPDEST SWAP1 POP PUSH2 0x1255 DUP3 DUP3 PUSH2 0x1F01 JUMP JUMPDEST PUSH1 0x60 DUP9 ADD MLOAD SWAP1 SWAP4 POP PUSH2 0x1267 SWAP1 DUP5 PUSH2 0xE77 JUMP JUMPDEST PUSH1 0x60 DUP9 ADD MSTORE POP PUSH2 0x1297 SWAP1 POP JUMP JUMPDEST PUSH2 0x127E DUP2 DUP6 PUSH2 0x1F01 JUMP JUMPDEST PUSH1 0x80 DUP8 ADD MLOAD SWAP1 SWAP3 POP PUSH2 0x1290 SWAP1 DUP4 PUSH2 0xE77 JUMP JUMPDEST PUSH1 0x80 DUP8 ADD MSTORE POP JUMPDEST SWAP5 SWAP4 POP POP POP POP JUMP JUMPDEST PUSH1 0x0 DUP2 PUSH2 0x12AE JUMPI POP PUSH1 0x0 PUSH2 0x8CD JUMP JUMPDEST PUSH1 0x0 DUP3 SGT PUSH2 0x12BB JUMPI PUSH1 0x0 DUP1 REVERT JUMPDEST PUSH1 0x0 PUSH2 0x12CE DUP6 PUSH1 0x0 ADD MLOAD PUSH2 0xFFFF AND PUSH2 0x1F37 JUMP JUMPDEST SWAP1 POP PUSH1 0x3 DUP2 PUSH1 0x60 ADD MLOAD PUSH1 0x5 DUP2 GT ISZERO PUSH2 0x12E2 JUMPI INVALID JUMPDEST EQ ISZERO PUSH2 0x130C JUMPI CALLVALUE DUP4 EQ PUSH2 0x1307 JUMPI PUSH1 0x40 MLOAD PUSH3 0x461BCD PUSH1 0xE5 SHL DUP2 MSTORE PUSH1 0x4 ADD PUSH2 0x14F SWAP1 PUSH2 0x43CF JUMP JUMPDEST PUSH2 0x1323 JUMP JUMPDEST DUP5 MLOAD PUSH2 0x1320 SWAP1 DUP3 SWAP1 DUP7 SWAP1 PUSH2 0xFFFF AND DUP7 PUSH2 0x1E59 JUMP JUMPDEST SWAP3 POP JUMPDEST PUSH1 0x0 PUSH2 0x1336 DUP7 PUSH1 0x0 ADD MLOAD PUSH2 0xFFFF AND PUSH2 0x1DBF JUMP JUMPDEST SWAP1 POP PUSH1 0x0 PUSH2 0x1353 DUP8 PUSH1 0x0 ADD MLOAD PUSH2 0x134B DUP8 PUSH2 0x1F4A JUMP JUMPDEST DUP5 SWAP2 SWAP1 PUSH2 0x1F59 JUMP JUMPDEST SWAP1 POP PUSH1 0x0 PUSH2 0x1361 DUP4 DUP4 PUSH2 0x1F01 JUMP JUMPDEST PUSH1 0x60 DUP10 ADD MLOAD SWAP1 SWAP2 POP PUSH2 0x1373 SWAP1 DUP3 PUSH2 0xE77 JUMP JUMPDEST PUSH1 0x60 DUP10 ADD MSTORE SWAP4 POP POP POP POP SWAP4 SWAP3 POP POP POP JUMP JUMPDEST PUSH1 0x3 DUP4 PUSH1 0x6 DUP2 GT ISZERO PUSH2 0x1392 JUMPI INVALID JUMPDEST EQ DUP1 PUSH2 0x13A9 JUMPI POP PUSH1 0x4 DUP4 PUSH1 0x6 DUP2 GT ISZERO PUSH2 0x13A7 JUMPI INVALID JUMPDEST EQ JUMPDEST DUP1 PUSH2 0x13BF JUMPI POP PUSH1 0x6 DUP4 PUSH1 0x6 DUP2 GT ISZERO PUSH2 0x13BD JUMPI INVALID JUMPDEST EQ JUMPDEST ISZERO PUSH2 0x148B JUMPI PUSH2 0x13CE DUP5 DUP3 PUSH2 0xE28 JUMP JUMPDEST PUSH1 0x60 DUP5 ADD MLOAD PUSH2 0x13DD SWAP1 DUP3 PUSH2 0x159F JUMP JUMPDEST PUSH1 0x60 DUP6 ADD MSTORE DUP4 MLOAD PUSH1 0x40 MLOAD PUSH4 0x21285613 PUSH1 0xE1 SHL DUP2 MSTORE PUSH1 0x0 SWAP2 PUSH20 0x0 SWAP2 PUSH4 0x4250AC26 SWAP2 PUSH2 0x141E SWAP2 DUP7 SWAP1 PUSH1 0x4 ADD PUSH2 0x456C JUMP JUMPDEST PUSH1 0x20 PUSH1 0x40 MLOAD DUP1 DUP4 SUB DUP2 DUP7 DUP1 EXTCODESIZE ISZERO DUP1 ISZERO PUSH2 0x1436 JUMPI PUSH1 0x0 DUP1 REVERT JUMPDEST POP GAS DELEGATECALL ISZERO DUP1 ISZERO PUSH2 0x144A JUMPI RETURNDATASIZE PUSH1 0x0 DUP1 RETURNDATACOPY RETURNDATASIZE PUSH1 0x0 REVERT JUMPDEST POP POP POP POP PUSH1 0x40 MLOAD RETURNDATASIZE PUSH1 0x1F NOT PUSH1 0x1F DUP3 ADD AND DUP3 ADD DUP1 PUSH1 0x40 MSTORE POP DUP2 ADD SWAP1 PUSH2 0x146E SWAP2 SWAP1 PUSH2 0x3EA4 JUMP JUMPDEST PUSH1 0xC0 DUP7 ADD MLOAD SWAP1 SWAP2 POP PUSH2 0x1480 SWAP1 DUP3 PUSH2 0xE77 JUMP JUMPDEST PUSH1 0xC0 DUP7 ADD MSTORE POP PUSH2 0xC88 JUMP JUMPDEST PUSH1 0x5 DUP4 PUSH1 0x6 DUP2 GT ISZERO PUSH2 0x1499 JUMPI INVALID JUMPDEST EQ ISZERO PUSH2 0xC88 JUMPI DUP2 PUSH2 0x14C3 DUP6 PUSH1 0xC0 ADD MLOAD PUSH2 0xCD2 DUP8 PUSH1 0xA0 ADD MLOAD DUP9 PUSH1 0x40 ADD MLOAD PUSH2 0xE77 SWAP1 SWAP2 SWAP1 PUSH4 0xFFFFFFFF AND JUMP JUMPDEST SLT ISZERO PUSH2 0x14E1 JUMPI PUSH1 0x40 MLOAD PUSH3 0x461BCD PUSH1 0xE5 SHL DUP2 MSTORE PUSH1 0x4 ADD PUSH2 0x14F SWAP1 PUSH2 0x4465 JUMP JUMPDEST PUSH1 0xC0 DUP5 ADD MLOAD PUSH2 0x14F0 SWAP1 DUP4 PUSH2 0x159F JUMP JUMPDEST PUSH1 0xC0 DUP6 ADD MSTORE DUP4 MLOAD PUSH1 0x40 MLOAD PUSH4 0x52E73F77 PUSH1 0xE0 SHL DUP2 MSTORE PUSH1 0x0 SWAP2 PUSH20 0x0 SWAP2 PUSH4 0x52E73F77 SWAP2 PUSH2 0x1531 SWAP2 DUP8 SWAP1 PUSH1 0x4 ADD PUSH2 0x456C JUMP JUMPDEST PUSH1 0x20 PUSH1 0x40 MLOAD DUP1 DUP4 SUB DUP2 DUP7 DUP1 EXTCODESIZE ISZERO DUP1 ISZERO PUSH2 0x1549 JUMPI PUSH1 0x0 DUP1 REVERT JUMPDEST POP GAS DELEGATECALL ISZERO DUP1 ISZERO PUSH2 0x155D JUMPI RETURNDATASIZE PUSH1 0x0 DUP1 RETURNDATACOPY RETURNDATASIZE PUSH1 0x0 REVERT JUMPDEST POP POP POP POP PUSH1 0x40 MLOAD RETURNDATASIZE PUSH1 0x1F NOT PUSH1 0x1F DUP3 ADD AND DUP3 ADD DUP1 PUSH1 0x40 MSTORE POP DUP2 ADD SWAP1 PUSH2 0x1581 SWAP2 SWAP1 PUSH2 0x3EA4 JUMP JUMPDEST PUSH1 0x60 DUP7 ADD MLOAD SWAP1 SWAP2 POP PUSH2 0x1593 SWAP1 DUP3 PUSH2 0xE77 JUMP JUMPDEST PUSH1 0x60 DUP7 ADD MSTORE POP POP POP POP POP JUMP JUMPDEST DUP1 DUP3 SUB DUP3 DUP2 SGT ISZERO PUSH1 0x0 DUP4 SLT ISZERO EQ PUSH2 0xE8D JUMPI PUSH1 0x0 DUP1 REVERT JUMPDEST PUSH1 0x0 DUP1 PUSH1 0x0 DUP7 PUSH1 0xA0 ADD MLOAD SLT ISZERO PUSH2 0x1608 JUMPI PUSH1 0x0 PUSH2 0x15EA DUP8 PUSH1 0xA0 ADD MLOAD PUSH2 0xCD2 DUP10 PUSH1 0xC0 ADD MLOAD DUP11 PUSH1 0x40 ADD MLOAD PUSH2 0xE77 SWAP1 SWAP2 SWAP1 PUSH4 0xFFFFFFFF AND JUMP JUMPDEST SLT ISZERO PUSH2 0x1608 JUMPI PUSH1 0x40 MLOAD PUSH3 0x461BCD PUSH1 0xE5 SHL DUP2 MSTORE PUSH1 0x4 ADD PUSH2 0x14F SWAP1 PUSH2 0x451D JUMP JUMPDEST PUSH1 0x0 DUP7 PUSH1 0x80 ADD MLOAD SLT ISZERO PUSH2 0x1658 JUMPI PUSH1 0x0 PUSH2 0x163A DUP8 PUSH1 0x80 ADD MLOAD PUSH2 0xCD2 DUP10 PUSH1 0x60 ADD MLOAD DUP11 PUSH1 0x20 ADD MLOAD PUSH2 0xE77 SWAP1 SWAP2 SWAP1 PUSH4 0xFFFFFFFF AND JUMP JUMPDEST SLT ISZERO PUSH2 0x1658 JUMPI PUSH1 0x40 MLOAD PUSH3 0x461BCD PUSH1 0xE5 SHL DUP2 MSTORE PUSH1 0x4 ADD PUSH2 0x14F SWAP1 PUSH2 0x44C4 JUMP JUMPDEST PUSH2 0x1663 DUP7 DUP7 DUP6 PUSH2 0x204A JUMP JUMPDEST PUSH1 0x80 DUP9 ADD DUP2 SWAP1 MSTORE PUSH1 0x60 DUP9 ADD MLOAD SWAP2 SWAP4 POP PUSH1 0x0 SWAP2 PUSH2 0x167E SWAP2 PUSH2 0xE77 JUMP JUMPDEST SWAP1 POP DUP1 ISZERO PUSH2 0x16EB JUMPI PUSH1 0x20 DUP8 ADD MLOAD PUSH2 0x1695 SWAP1 DUP3 PUSH2 0xE77 JUMP JUMPDEST PUSH1 0x20 DUP9 ADD MSTORE DUP7 MLOAD PUSH1 0x40 MLOAD PUSH1 0x1 SWAP4 POP PUSH2 0xFFFF SWAP1 SWAP2 AND SWAP1 PUSH1 0x1 PUSH1 0x1 PUSH1 0xA0 SHL SUB DUP9 AND SWAP1 PUSH32 0x5441E4A5FAC93A951D782E6F1CDB82E95C8FC58561A013953D17E395C5E69B4B SWAP1 PUSH2 0x16E2 SWAP1 DUP6 SWAP1 PUSH2 0x4382 JUMP JUMPDEST PUSH1 0x40 MLOAD DUP1 SWAP2 SUB SWAP1 LOG3 JUMPDEST PUSH1 0xA0 DUP8 ADD MLOAD ISZERO ISZERO DUP1 PUSH2 0x1700 JUMPI POP PUSH1 0xC0 DUP8 ADD MLOAD ISZERO ISZERO JUMPDEST ISZERO PUSH2 0x17A6 JUMPI PUSH1 0x0 PUSH2 0x172A DUP9 PUSH1 0xC0 ADD MLOAD PUSH2 0xCD2 DUP11 PUSH1 0xA0 ADD MLOAD DUP12 PUSH1 0x40 ADD MLOAD PUSH2 0xE77 SWAP1 SWAP2 SWAP1 PUSH4 0xFFFFFFFF AND JUMP JUMPDEST SWAP1 POP PUSH2 0x173F DUP9 DUP9 PUSH2 0x173A DUP5 PUSH2 0x1F4A JUMP JUMPDEST PUSH2 0x2100 JUMP JUMPDEST POP PUSH1 0x40 DUP9 ADD DUP2 SWAP1 MSTORE PUSH1 0xC0 DUP9 ADD MLOAD ISZERO PUSH2 0x17A0 JUMPI DUP8 PUSH1 0x0 ADD MLOAD PUSH2 0xFFFF AND DUP8 PUSH1 0x1 PUSH1 0x1 PUSH1 0xA0 SHL SUB AND PUSH32 0x412BC13D202A2EA5119E55FEC9C5E420DDDB18FAF186373AD9795AD4F4545AA9 DUP11 PUSH1 0xC0 ADD MLOAD PUSH1 0x40 MLOAD PUSH2 0x1797 SWAP2 SWAP1 PUSH2 0x4382 JUMP JUMPDEST PUSH1 0x40 MLOAD DUP1 SWAP2 SUB SWAP1 LOG3 JUMPDEST PUSH1 0x1 SWAP3 POP POP JUMPDEST DUP2 ISZERO PUSH2 0x17D3 JUMPI PUSH2 0x17D3 DUP7 DUP9 PUSH1 0x0 ADD MLOAD PUSH2 0xFFFF AND DUP10 PUSH1 0x20 ADD MLOAD DUP11 PUSH1 0x40 ADD MLOAD DUP12 PUSH1 0xE0 ADD MLOAD DUP13 PUSH2 0x100 ADD MLOAD PUSH2 0x21ED JUMP JUMPDEST DUP7 MLOAD PUSH1 0x20 DUP9 ADD MLOAD PUSH2 0x1800 SWAP2 PUSH2 0xFFFF AND SWAP1 ISZERO ISZERO DUP1 PUSH2 0x17F3 JUMPI POP PUSH1 0x40 DUP10 ADD MLOAD ISZERO ISZERO JUMPDEST DUP8 SWAP2 SWAP1 PUSH1 0x1 PUSH1 0xFE SHL PUSH2 0x1B6E JUMP JUMPDEST PUSH1 0x0 DUP8 PUSH1 0x20 ADD MLOAD SLT ISZERO PUSH2 0x1826 JUMPI PUSH1 0x20 DUP6 ADD DUP1 MLOAD PUSH1 0x1 PUSH1 0xF9 SHL OR PUSH1 0x1 PUSH1 0x1 PUSH1 0xF8 SHL SUB NOT AND SWAP1 MSTORE JUMPDEST POP POP SWAP5 SWAP4 POP POP POP POP JUMP JUMPDEST PUSH1 0x0 DUP1 PUSH2 0xE8D PUSH1 0x2 PUSH2 0x1D6D JUMP JUMPDEST PUSH1 0x60 PUSH1 0x0 PUSH2 0x184B DUP5 DUP5 PUSH2 0x233D JUMP JUMPDEST SWAP1 POP PUSH1 0x1 DUP2 MLOAD GT PUSH2 0x185D JUMPI SWAP1 POP PUSH2 0xE8D JUMP JUMPDEST PUSH2 0x8CD DUP2 PUSH2 0x245F JUMP JUMPDEST DUP2 DUP2 MUL PUSH1 0x0 NOT DUP4 EQ ISZERO PUSH2 0x1896 JUMPI DUP2 ISZERO DUP1 PUSH2 0x1888 JUMPI POP DUP3 DUP3 DUP3 DUP2 PUSH2 0x1885 JUMPI INVALID JUMPDEST SDIV EQ JUMPDEST PUSH2 0x1891 JUMPI PUSH1 0x0 DUP1 REVERT JUMPDEST PUSH2 0xE8D JUMP JUMPDEST DUP3 ISZERO DUP1 PUSH2 0x18AB JUMPI POP DUP2 DUP4 DUP3 DUP2 PUSH2 0x18A8 JUMPI INVALID JUMPDEST SDIV EQ JUMPDEST PUSH2 0xE8D JUMPI PUSH1 0x0 DUP1 REVERT JUMPDEST PUSH1 0x0 DUP1 DUP1 DUP1 DUP1 DUP1 DUP1 DUP1 JUMPDEST DUP10 MLOAD MLOAD DUP2 LT ISZERO PUSH2 0x1945 JUMPI PUSH1 0x0 DUP11 PUSH1 0x0 ADD MLOAD DUP3 DUP2 MLOAD DUP2 LT PUSH2 0x18DA JUMPI INVALID JUMPDEST PUSH1 0x20 MUL PUSH1 0x20 ADD ADD MLOAD SWAP1 POP PUSH1 0x3 DUP1 DUP2 GT ISZERO PUSH2 0x18F0 JUMPI INVALID JUMPDEST DUP2 PUSH1 0xA0 ADD MLOAD PUSH1 0x3 DUP2 GT ISZERO PUSH2 0x1900 JUMPI INVALID JUMPDEST EQ ISZERO PUSH2 0x190B JUMPI PUSH1 0x0 DUP1 REVERT JUMPDEST PUSH1 0x2 DUP2 PUSH1 0xA0 ADD MLOAD PUSH1 0x3 DUP2 GT ISZERO PUSH2 0x191D JUMPI INVALID JUMPDEST EQ ISZERO DUP1 ISZERO PUSH2 0x192D JUMPI POP PUSH1 0x60 DUP2 ADD MLOAD ISZERO JUMPDEST ISZERO PUSH2 0x193C JUMPI PUSH2 0x193C DUP12 DUP4 PUSH2 0x2618 JUMP JUMPDEST POP PUSH1 0x1 ADD PUSH2 0x18BE JUMP JUMPDEST POP PUSH1 0x0 JUMPDEST DUP10 MLOAD MLOAD DUP2 LT ISZERO PUSH2 0x19E8 JUMPI PUSH1 0x0 DUP11 PUSH1 0x0 ADD MLOAD DUP3 DUP2 MLOAD DUP2 LT PUSH2 0x1965 JUMPI INVALID JUMPDEST PUSH1 0x20 MUL PUSH1 0x20 ADD ADD MLOAD SWAP1 POP PUSH1 0x2 PUSH1 0x3 DUP2 GT ISZERO PUSH2 0x197C JUMPI INVALID JUMPDEST DUP2 PUSH1 0xA0 ADD MLOAD PUSH1 0x3 DUP2 GT ISZERO PUSH2 0x198C JUMPI INVALID JUMPDEST EQ ISZERO PUSH2 0x19A0 JUMPI PUSH1 0x80 DUP2 ADD MLOAD PUSH1 0x0 SWAP1 SSTORE PUSH2 0x19DF JUMP JUMPDEST PUSH1 0x1 DUP2 PUSH1 0xA0 ADD MLOAD PUSH1 0x3 DUP2 GT ISZERO PUSH2 0x19B2 JUMPI INVALID JUMPDEST EQ ISZERO PUSH2 0x19CB JUMPI PUSH1 0x80 DUP2 ADD MLOAD DUP1 PUSH2 0x19C8 DUP4 DUP3 PUSH2 0x2767 JUMP JUMPDEST POP POP JUMPDEST PUSH2 0x19D7 DUP2 DUP7 DUP7 DUP7 PUSH2 0x2898 JUMP JUMPDEST SWAP2 SWAP7 POP SWAP5 POP SWAP3 POP JUMPDEST POP PUSH1 0x1 ADD PUSH2 0x1949 JUMP JUMPDEST POP PUSH1 0x60 DUP10 ADD MLOAD PUSH1 0x0 PUSH2 0x19F8 PUSH2 0x28FB JUMP JUMPDEST PUSH1 0x1 PUSH1 0x1 PUSH1 0xA0 SHL SUB DUP12 AND PUSH1 0x0 SWAP1 DUP2 MSTORE PUSH1 0x20 DUP3 SWAP1 MSTORE PUSH1 0x40 DUP2 KECCAK256 SWAP2 SWAP3 POP JUMPDEST DUP13 PUSH1 0x20 ADD MLOAD MLOAD DUP2 LT ISZERO PUSH2 0x1AC2 JUMPI PUSH1 0x0 DUP14 PUSH1 0x20 ADD MLOAD DUP3 DUP2 MLOAD DUP2 LT PUSH2 0x1A33 JUMPI INVALID JUMPDEST PUSH1 0x20 MUL PUSH1 0x20 ADD ADD MLOAD SWAP1 POP DUP1 PUSH1 0x60 ADD MLOAD PUSH1 0x0 EQ ISZERO PUSH2 0x1A50 JUMPI POP PUSH2 0x1ABA JUMP JUMPDEST PUSH1 0x2 DUP2 PUSH1 0xA0 ADD MLOAD PUSH1 0x3 DUP2 GT ISZERO PUSH2 0x1A62 JUMPI INVALID JUMPDEST EQ ISZERO DUP1 ISZERO PUSH2 0x1A80 JUMPI POP PUSH1 0x3 DUP2 PUSH1 0xA0 ADD MLOAD PUSH1 0x3 DUP2 GT ISZERO PUSH2 0x1A7D JUMPI INVALID JUMPDEST EQ ISZERO JUMPDEST PUSH2 0x1A89 JUMPI PUSH1 0x0 DUP1 REVERT JUMPDEST PUSH2 0x1A95 DUP2 DUP10 DUP10 DUP10 PUSH2 0x2898 JUMP JUMPDEST SWAP2 SWAP10 POP SWAP8 POP SWAP6 POP PUSH2 0x1AB2 DUP2 DUP5 DUP8 PUSH1 0x10 DUP2 LT PUSH2 0x1AAC JUMPI INVALID JUMPDEST ADD PUSH2 0x2767 JUMP JUMPDEST PUSH1 0x1 DUP6 ADD SWAP5 POP POP JUMPDEST PUSH1 0x1 ADD PUSH2 0x1A14 JUMP JUMPDEST POP PUSH1 0x10 DUP4 GT ISZERO DUP1 ISZERO PUSH2 0x1AD9 JUMPI POP PUSH5 0xFFFFFFFFFF DUP5 GT ISZERO JUMPDEST PUSH2 0x1AE2 JUMPI PUSH1 0x0 DUP1 REVERT JUMPDEST POP SWAP4 SWAP11 SWAP3 SWAP10 POP SWAP8 POP SWAP6 POP SWAP4 POP POP POP POP JUMP JUMPDEST PUSH1 0x0 DUP1 PUSH32 0x7FFF7FFF7FFF7FFF7FFF7FFF7FFF7FFF7FFF0000000000000000000000000000 DUP4 AND DUP2 JUMPDEST PUSH1 0x1 PUSH1 0x1 PUSH1 0x70 SHL SUB NOT DUP3 AND ISZERO PUSH2 0x1B65 JUMPI PUSH1 0x1 PUSH1 0xFE SHL DUP3 DUP2 AND EQ ISZERO PUSH2 0x1B4F JUMPI PUSH1 0x1 PUSH1 0x1 PUSH1 0xF0 SHL SUB NOT DUP3 AND DUP2 SHR SWAP3 SWAP1 SWAP3 OR SWAP2 PUSH1 0x10 ADD JUMPDEST PUSH1 0x10 DUP3 PUSH1 0x1 PUSH1 0x1 PUSH1 0x70 SHL SUB NOT AND SWAP1 SHL SWAP2 POP PUSH2 0x1B1B JUMP JUMPDEST POP SWAP1 SWAP4 SWAP3 POP POP POP JUMP JUMPDEST DUP3 PUSH1 0x0 LT DUP1 ISZERO PUSH2 0x1B80 JUMPI POP PUSH2 0x3FFF DUP4 GT ISZERO JUMPDEST PUSH2 0x1B89 JUMPI PUSH1 0x0 DUP1 REVERT JUMPDEST DUP2 DUP1 ISZERO PUSH2 0x1B9D JUMPI POP DUP3 DUP5 PUSH1 0x60 ADD MLOAD PUSH2 0xFFFF AND EQ JUMPDEST ISZERO PUSH2 0x1BA7 JUMPI PUSH2 0xC88 JUMP JUMPDEST PUSH1 0x80 DUP5 ADD MLOAD PUSH1 0x0 SWAP1 DUP2 JUMPDEST PUSH1 0x1 PUSH1 0x1 PUSH1 0x70 SHL SUB NOT DUP3 AND ISZERO PUSH2 0x1D22 JUMPI PUSH1 0xF0 DUP3 SWAP1 SHR PUSH2 0x3FFF AND DUP7 DUP2 EQ DUP1 ISZERO PUSH2 0x1BD6 JUMPI POP DUP6 JUMPDEST ISZERO PUSH2 0x1C0E JUMPI POP PUSH1 0x80 DUP8 ADD DUP1 MLOAD PUSH1 0x1 PUSH1 0x1 PUSH1 0xF0 SHL SUB NOT DUP7 AND PUSH1 0x10 SWAP1 SWAP4 MUL SWAP3 SWAP1 SWAP3 SHR SWAP2 SWAP1 SWAP2 OR PUSH1 0x1 PUSH1 0x1 PUSH1 0x70 SHL SUB NOT AND SWAP1 MSTORE POP PUSH2 0xC88 SWAP1 POP JUMP JUMPDEST DUP7 DUP2 EQ DUP1 ISZERO PUSH2 0x1C1B JUMPI POP DUP6 ISZERO JUMPDEST ISZERO PUSH2 0x1C70 JUMPI PUSH1 0x1 PUSH1 0x1 PUSH1 0xF0 SHL SUB NOT DUP6 AND NOT SWAP3 SWAP1 SWAP3 AND SWAP2 PUSH1 0x3 PUSH1 0xFE SHL DUP4 AND PUSH2 0x1C4E JUMPI PUSH1 0x10 DUP4 PUSH1 0x1 PUSH1 0x1 PUSH1 0x70 SHL SUB NOT AND SWAP1 SHL SWAP3 POP JUMPDEST POP PUSH1 0x1 PUSH1 0x1 PUSH1 0x70 SHL SUB NOT SWAP2 DUP3 AND PUSH1 0x10 SWAP1 SWAP2 MUL SHR SWAP2 SWAP1 SWAP2 OR AND PUSH1 0x80 DUP6 ADD MSTORE PUSH2 0xC88 JUMP JUMPDEST DUP7 DUP2 GT DUP1 ISZERO PUSH2 0x1C7C JUMPI POP DUP6 JUMPDEST ISZERO PUSH2 0x1CD6 JUMPI PUSH1 0x80 DUP9 DUP2 ADD MLOAD PUSH1 0x1 PUSH1 0x1 PUSH1 0xF0 SHL SUB NOT PUSH1 0xF0 DUP11 SWAP1 SHL DUP9 OR DUP2 AND PUSH1 0x10 DUP7 MUL SHR SWAP7 SWAP1 SWAP7 OR SWAP6 SWAP2 SHL AND ISZERO PUSH2 0x1CB0 JUMPI PUSH1 0x0 DUP1 REVERT JUMPDEST POP PUSH1 0x1 PUSH1 0x1 PUSH1 0x70 SHL SUB NOT SWAP2 DUP3 AND PUSH1 0x1 SWAP2 SWAP1 SWAP2 ADD PUSH1 0x10 MUL SHR SWAP2 SWAP1 SWAP2 OR AND PUSH1 0x80 DUP6 ADD MSTORE PUSH2 0xC88 JUMP JUMPDEST DUP7 DUP2 GT DUP1 ISZERO PUSH2 0x1CE3 JUMPI POP DUP6 ISZERO JUMPDEST ISZERO PUSH2 0x1CF1 JUMPI POP POP POP POP PUSH2 0xC88 JUMP JUMPDEST POP PUSH1 0x1 PUSH1 0x1 PUSH1 0xF0 SHL SUB NOT DUP3 AND PUSH1 0x10 DUP3 DUP2 MUL SWAP2 SWAP1 SWAP2 SHR SWAP4 SWAP1 SWAP4 OR SWAP3 SWAP2 SWAP1 SWAP2 SHL PUSH1 0x1 PUSH1 0x1 PUSH1 0x80 SHL SUB NOT AND SWAP1 PUSH1 0x1 ADD PUSH2 0x1BB1 JUMP JUMPDEST DUP5 PUSH2 0x1D2F JUMPI POP POP POP PUSH2 0xC88 JUMP JUMPDEST PUSH1 0x9 DUP2 LT PUSH2 0x1D3C JUMPI PUSH1 0x0 DUP1 REVERT JUMPDEST PUSH1 0x1 PUSH1 0x1 PUSH1 0xF0 SHL SUB NOT PUSH1 0xF0 DUP8 SWAP1 SHL DUP6 OR AND PUSH1 0x10 SWAP1 SWAP2 MUL SHR SWAP2 SWAP1 SWAP2 OR PUSH1 0x1 PUSH1 0x1 PUSH1 0x70 SHL SUB NOT AND PUSH1 0x80 DUP7 ADD MSTORE POP POP POP POP POP JUMP JUMPDEST PUSH1 0x0 PUSH3 0xF4240 DUP3 PUSH1 0x13 DUP2 GT ISZERO PUSH2 0x1D7F JUMPI INVALID JUMPDEST ADD SWAP3 SWAP2 POP POP JUMP JUMPDEST PUSH1 0x0 PUSH3 0x15180 DUP3 LT ISZERO PUSH2 0x1D98 JUMPI PUSH1 0x0 DUP1 REVERT JUMPDEST POP PUSH3 0x15180 DUP2 MOD SWAP1 SUB SWAP1 JUMP JUMPDEST PUSH1 0x0 DUP1 PUSH2 0xE8D PUSH1 0x6 PUSH2 0x1D6D JUMP JUMPDEST PUSH1 0x8 DUP2 SWAP1 SHR PUSH1 0xFF SWAP1 SWAP2 AND SHL SWAP1 JUMP JUMPDEST PUSH2 0x1DC7 PUSH2 0x3B20 JUMP JUMPDEST PUSH2 0xB0D DUP3 PUSH1 0x0 PUSH2 0x2908 JUMP JUMPDEST PUSH1 0x0 DUP2 PUSH2 0x1DE1 JUMPI POP PUSH1 0x0 PUSH2 0xE8D JUMP JUMPDEST PUSH1 0x0 DUP3 SGT PUSH2 0x1DEE JUMPI PUSH1 0x0 DUP1 REVERT JUMPDEST PUSH1 0x0 PUSH2 0x1DF9 DUP5 PUSH2 0x1F37 JUMP JUMPDEST SWAP1 POP PUSH1 0x0 PUSH2 0x1E0A DUP3 PUSH1 0x0 ADD MLOAD PUSH2 0x29B6 JUMP JUMPDEST SWAP1 POP PUSH1 0x2 DUP2 SDIV PUSH12 0x33B2E3C9FD0803CE8000000 PUSH1 0x1 PUSH1 0x1 PUSH1 0xFF SHL SUB DUP3 SWAP1 SUB SDIV DUP6 SGT ISZERO PUSH2 0x1E35 JUMPI PUSH1 0x0 DUP1 REVERT JUMPDEST DUP2 DUP2 PUSH12 0x33B2E3C9FD0803CE8000000 DUP8 MUL ADD DUP2 PUSH2 0x1E4E JUMPI INVALID JUMPDEST SDIV SWAP7 SWAP6 POP POP POP POP POP POP JUMP JUMPDEST DUP1 PUSH1 0x5 DUP6 PUSH1 0x60 ADD MLOAD PUSH1 0x5 DUP2 GT ISZERO PUSH2 0x1E6C JUMPI INVALID JUMPDEST EQ ISZERO PUSH2 0x1E91 JUMPI PUSH1 0x0 PUSH2 0x1E7D DUP5 PUSH2 0x1F37 JUMP JUMPDEST SWAP1 POP PUSH2 0x1E8D DUP2 PUSH1 0x0 ADD MLOAD DUP5 PUSH2 0x2A41 JUMP JUMPDEST SWAP3 POP POP JUMPDEST PUSH1 0x0 DUP3 SGT ISZERO PUSH2 0x1EBD JUMPI PUSH1 0x0 PUSH2 0x1EA7 DUP7 DUP7 DUP6 PUSH2 0x2AD3 JUMP JUMPDEST SWAP1 POP DUP6 PUSH1 0x20 ADD MLOAD ISZERO PUSH2 0x1EB7 JUMPI DUP1 SWAP2 POP JUMPDEST POP PUSH2 0x1297 JUMP JUMPDEST PUSH1 0x3 DUP6 PUSH1 0x60 ADD MLOAD PUSH1 0x5 DUP2 GT ISZERO PUSH2 0x1ECF JUMPI INVALID JUMPDEST EQ ISZERO PUSH2 0x1EEC JUMPI PUSH2 0x1EE7 DUP5 PUSH2 0x1EE2 DUP5 PUSH2 0xE1A JUMP JUMPDEST PUSH2 0x2BC6 JUMP JUMPDEST PUSH2 0x1297 JUMP JUMPDEST DUP5 MLOAD PUSH2 0x1297 SWAP1 DUP6 PUSH2 0x1EFC DUP6 PUSH2 0xE1A JUMP JUMPDEST PUSH2 0x2C01 JUMP JUMPDEST PUSH1 0x0 PUSH4 0x5F5E100 DUP4 PUSH1 0x40 ADD MLOAD EQ ISZERO PUSH2 0x1F1A JUMPI POP DUP1 PUSH2 0xE8D JUMP JUMPDEST PUSH1 0x40 DUP4 ADD MLOAD PUSH2 0x8CD SWAP1 PUSH2 0x1F31 DUP5 PUSH4 0x5F5E100 PUSH2 0x1866 JUMP JUMPDEST SWAP1 PUSH2 0x2C78 JUMP JUMPDEST PUSH2 0x1F3F PUSH2 0x3B20 JUMP JUMPDEST PUSH2 0xB0D DUP3 PUSH1 0x1 PUSH2 0x2908 JUMP JUMPDEST PUSH1 0x0 DUP1 DUP3 SLT ISZERO PUSH2 0x11C0 JUMPI PUSH1 0x0 DUP1 REVERT JUMPDEST PUSH1 0x0 DUP1 PUSH1 0x5 DUP6 PUSH1 0x60 ADD MLOAD PUSH1 0x5 DUP2 GT ISZERO PUSH2 0x1F6E JUMPI INVALID JUMPDEST EQ PUSH2 0x1F80 JUMPI PUSH4 0x70A08231 PUSH1 0xE0 SHL PUSH2 0x1F89 JUMP JUMPDEST PUSH4 0xED1279F PUSH1 0xE1 SHL JUMPDEST SWAP1 POP PUSH1 0x0 PUSH2 0x1F9C DUP7 PUSH1 0x0 ADD MLOAD ADDRESS DUP5 PUSH2 0x2CA9 JUMP JUMPDEST SWAP1 POP PUSH1 0x5 DUP7 PUSH1 0x60 ADD MLOAD PUSH1 0x5 DUP2 GT ISZERO PUSH2 0x1FB0 JUMPI INVALID JUMPDEST EQ ISZERO PUSH2 0x1FD7 JUMPI PUSH1 0x0 PUSH2 0x1FC5 DUP7 PUSH2 0xFFFF AND PUSH2 0x1F37 JUMP JUMPDEST SWAP1 POP PUSH2 0x1FD1 DUP2 DUP7 PUSH2 0x2DBB JUMP JUMPDEST POP PUSH2 0x201A JUMP JUMPDEST PUSH1 0x1 DUP7 PUSH1 0x60 ADD MLOAD PUSH1 0x5 DUP2 GT ISZERO PUSH2 0x1FE9 JUMPI INVALID JUMPDEST EQ ISZERO PUSH2 0x1FF9 JUMPI PUSH2 0x1FD1 DUP7 DUP6 PUSH2 0x2E26 JUMP JUMPDEST PUSH1 0x2 DUP7 PUSH1 0x60 ADD MLOAD PUSH1 0x5 DUP2 GT ISZERO PUSH2 0x200B JUMPI INVALID JUMPDEST EQ ISZERO PUSH2 0x70 JUMPI PUSH2 0x201A DUP7 PUSH2 0x2ED2 JUMP JUMPDEST PUSH1 0x0 PUSH2 0x202B DUP8 PUSH1 0x0 ADD MLOAD ADDRESS DUP6 PUSH2 0x2CA9 JUMP JUMPDEST SWAP1 POP PUSH2 0x203F PUSH2 0x203A DUP3 DUP5 PUSH2 0x2F11 JUMP JUMPDEST PUSH2 0x11AA JUMP JUMPDEST SWAP8 SWAP7 POP POP POP POP POP POP POP JUMP JUMPDEST PUSH1 0x0 DUP1 PUSH1 0x0 PUSH2 0x2060 DUP7 PUSH1 0x0 ADD MLOAD PUSH2 0xFFFF AND PUSH2 0x1DBF JUMP JUMPDEST SWAP1 POP PUSH1 0x0 PUSH2 0x207B DUP8 PUSH1 0x80 ADD MLOAD DUP4 PUSH2 0x2F6E SWAP1 SWAP2 SWAP1 PUSH4 0xFFFFFFFF AND JUMP JUMPDEST SWAP1 POP DUP1 PUSH2 0x2090 JUMPI PUSH1 0x0 DUP1 SWAP4 POP SWAP4 POP POP POP PUSH2 0x20F8 JUMP JUMPDEST DUP5 DUP1 ISZERO PUSH2 0x209D JUMPI POP PUSH1 0x0 DUP2 SLT JUMPDEST ISZERO PUSH2 0x20D2 JUMPI DUP7 MLOAD PUSH2 0x20BF SWAP1 PUSH2 0xFFFF AND DUP8 PUSH2 0x20B6 DUP5 PUSH2 0xE1A JUMP JUMPDEST DUP6 SWAP3 SWAP2 SWAP1 PUSH2 0x2FA6 JUMP JUMPDEST SWAP4 POP PUSH2 0x20CB DUP3 DUP3 PUSH2 0x1F01 JUMP JUMPDEST SWAP3 POP PUSH2 0x20F5 JUMP JUMPDEST DUP7 MLOAD PUSH2 0x20E6 SWAP1 DUP4 SWAP1 DUP9 SWAP1 PUSH2 0xFFFF AND DUP5 PUSH2 0x1E59 JUMP JUMPDEST SWAP4 POP PUSH2 0x20F2 DUP3 DUP6 PUSH2 0x1F01 JUMP JUMPDEST SWAP3 POP JUMPDEST POP POP JUMPDEST SWAP4 POP SWAP4 SWAP2 POP POP JUMP JUMPDEST DUP3 MLOAD PUSH1 0x0 SWAP1 TIMESTAMP SWAP1 DUP3 SWAP1 PUSH2 0x2116 SWAP1 PUSH2 0xFFFF AND PUSH2 0x3041 JUMP JUMPDEST SWAP1 POP PUSH1 0x0 PUSH2 0x2129 DUP3 DUP9 PUSH1 0xC0 ADD MLOAD DUP6 PUSH2 0x3067 JUMP JUMPDEST SWAP1 POP PUSH2 0x2137 DUP8 DUP4 DUP4 DUP9 PUSH2 0x314A JUMP JUMPDEST SWAP4 POP PUSH1 0x0 PUSH2 0x2144 DUP4 PUSH2 0x3277 JUMP JUMPDEST SWAP1 POP PUSH1 0x1 PUSH1 0x1 PUSH1 0xA0 SHL SUB DUP2 AND ISZERO PUSH2 0x21D2 JUMPI DUP1 PUSH1 0x1 PUSH1 0x1 PUSH1 0xA0 SHL SUB AND PUSH4 0x1D684DD2 DUP9 DUP11 PUSH1 0x0 ADD MLOAD PUSH2 0x2177 DUP13 PUSH1 0x40 ADD MLOAD PUSH2 0x1F4A JUMP JUMPDEST DUP11 DUP14 PUSH1 0xC0 ADD MLOAD DUP12 PUSH1 0x40 MLOAD DUP8 PUSH4 0xFFFFFFFF AND PUSH1 0xE0 SHL DUP2 MSTORE PUSH1 0x4 ADD PUSH2 0x219F SWAP7 SWAP6 SWAP5 SWAP4 SWAP3 SWAP2 SWAP1 PUSH2 0x4299 JUMP JUMPDEST PUSH1 0x0 PUSH1 0x40 MLOAD DUP1 DUP4 SUB DUP2 PUSH1 0x0 DUP8 DUP1 EXTCODESIZE ISZERO DUP1 ISZERO PUSH2 0x21B9 JUMPI PUSH1 0x0 DUP1 REVERT JUMPDEST POP GAS CALL ISZERO DUP1 ISZERO PUSH2 0x21CD JUMPI RETURNDATASIZE PUSH1 0x0 DUP1 RETURNDATACOPY RETURNDATASIZE PUSH1 0x0 REVERT JUMPDEST POP POP POP POP JUMPDEST DUP5 ISZERO PUSH2 0x21E2 JUMPI PUSH2 0x21E2 DUP8 DUP7 PUSH2 0x32E9 JUMP JUMPDEST POP POP POP POP SWAP4 SWAP3 POP POP POP JUMP JUMPDEST PUSH1 0x0 PUSH2 0x21F7 PUSH2 0x1DA4 JUMP JUMPDEST PUSH1 0x1 PUSH1 0x1 PUSH1 0xA0 SHL SUB DUP9 AND PUSH1 0x0 SWAP1 DUP2 MSTORE PUSH1 0x20 DUP3 DUP2 MSTORE PUSH1 0x40 DUP1 DUP4 KECCAK256 DUP11 DUP5 MSTORE SWAP1 SWAP2 MSTORE SWAP1 KECCAK256 SWAP1 SWAP2 POP PUSH11 0x7FFFFFFFFFFFFFFFFFFFFF NOT DUP7 SLT DUP1 ISZERO SWAP1 PUSH2 0x2242 JUMPI POP PUSH11 0x7FFFFFFFFFFFFFFFFFFFFF DUP7 SGT ISZERO JUMPDEST PUSH2 0x224B JUMPI PUSH1 0x0 DUP1 REVERT JUMPDEST PUSH1 0x0 DUP6 SLT ISZERO DUP1 ISZERO PUSH2 0x2266 JUMPI POP PUSH10 0xFFFFFFFFFFFFFFFFFFFF DUP6 SGT ISZERO JUMPDEST PUSH2 0x226F JUMPI PUSH1 0x0 DUP1 REVERT JUMPDEST DUP4 PUSH2 0x22AF JUMPI PUSH7 0xFFFFFFFFFFFFFF DUP4 GT ISZERO PUSH2 0x2288 JUMPI PUSH1 0x0 DUP1 REVERT JUMPDEST DUP1 SLOAD PUSH7 0xFFFFFFFFFFFFFF PUSH1 0x70 SHL NOT AND PUSH1 0x1 PUSH1 0x70 SHL PUSH7 0xFFFFFFFFFFFFFF DUP6 AND MUL OR DUP2 SSTORE PUSH2 0x22C9 JUMP JUMPDEST DUP1 SLOAD PUSH1 0x1 PUSH1 0x50 SHL SWAP1 DIV PUSH4 0xFFFFFFFF AND DUP5 EQ PUSH2 0x22C9 JUMPI PUSH1 0x0 DUP1 REVERT JUMPDEST DUP1 SLOAD PUSH1 0xA SWAP7 SWAP1 SWAP7 SIGNEXTEND PUSH11 0xFFFFFFFFFFFFFFFFFFFFFF AND PUSH1 0x1 PUSH1 0xA8 SHL MUL PUSH1 0x1 PUSH1 0x1 PUSH1 0xA8 SHL SUB PUSH10 0xFFFFFFFFFFFFFFFFFFFF SWAP1 SWAP7 AND PUSH10 0xFFFFFFFFFFFFFFFFFFFF NOT PUSH4 0xFFFFFFFF SWAP1 SWAP7 AND PUSH1 0x1 PUSH1 0x50 SHL MUL PUSH4 0xFFFFFFFF PUSH1 0x50 SHL NOT SWAP1 SWAP9 AND SWAP8 SWAP1 SWAP8 OR SWAP5 SWAP1 SWAP5 AND SWAP6 SWAP1 SWAP6 OR SWAP4 SWAP1 SWAP4 AND SWAP2 SWAP1 SWAP2 OR SWAP1 SWAP3 SSTORE POP POP POP POP JUMP JUMPDEST PUSH1 0x60 PUSH1 0x10 DUP3 PUSH1 0xFF AND GT ISZERO PUSH2 0x2350 JUMPI PUSH1 0x0 DUP1 REVERT JUMPDEST PUSH1 0x0 PUSH2 0x235A PUSH2 0x28FB JUMP JUMPDEST PUSH1 0x1 PUSH1 0x1 PUSH1 0xA0 SHL SUB DUP6 AND PUSH1 0x0 SWAP1 DUP2 MSTORE PUSH1 0x20 DUP3 SWAP1 MSTORE PUSH1 0x40 DUP2 KECCAK256 SWAP2 SWAP3 POP PUSH1 0xFF DUP6 AND PUSH8 0xFFFFFFFFFFFFFFFF DUP2 GT DUP1 ISZERO PUSH2 0x238F JUMPI PUSH1 0x0 DUP1 REVERT JUMPDEST POP PUSH1 0x40 MLOAD SWAP1 DUP1 DUP3 MSTORE DUP1 PUSH1 0x20 MUL PUSH1 0x20 ADD DUP3 ADD PUSH1 0x40 MSTORE DUP1 ISZERO PUSH2 0x23C9 JUMPI DUP2 PUSH1 0x20 ADD JUMPDEST PUSH2 0x23B6 PUSH2 0x3AE0 JUMP JUMPDEST DUP2 MSTORE PUSH1 0x20 ADD SWAP1 PUSH1 0x1 SWAP1 SUB SWAP1 DUP2 PUSH2 0x23AE JUMPI SWAP1 POP JUMPDEST POP SWAP1 POP PUSH1 0x0 JUMPDEST DUP6 PUSH1 0xFF AND DUP2 LT ISZERO PUSH2 0x2455 JUMPI PUSH1 0x0 DUP4 DUP3 PUSH1 0x10 DUP2 LT PUSH2 0x23E8 JUMPI INVALID JUMPDEST ADD SWAP1 POP PUSH1 0x0 DUP4 DUP4 DUP2 MLOAD DUP2 LT PUSH2 0x23F9 JUMPI INVALID JUMPDEST PUSH1 0x20 SWAP1 DUP2 MUL SWAP2 SWAP1 SWAP2 ADD DUP2 ADD MLOAD DUP4 SLOAD PUSH2 0xFFFF DUP2 AND DUP3 MSTORE PUSH5 0xFFFFFFFFFF PUSH3 0x10000 DUP3 DIV AND SWAP3 DUP3 ADD SWAP3 SWAP1 SWAP3 MSTORE PUSH1 0xFF PUSH1 0x1 PUSH1 0x38 SHL DUP4 DIV AND PUSH1 0x40 DUP3 ADD MSTORE PUSH1 0x1 PUSH1 0x40 SHL SWAP1 SWAP2 DIV PUSH1 0xA SWAP1 DUP2 SIGNEXTEND SWAP1 SIGNEXTEND PUSH1 0x60 DUP3 ADD MSTORE PUSH1 0x80 ADD SWAP2 SWAP1 SWAP2 MSTORE POP PUSH1 0x1 ADD PUSH2 0x23CF JUMP JUMPDEST POP SWAP6 SWAP5 POP POP POP POP POP JUMP JUMPDEST DUP1 MLOAD PUSH1 0x0 DUP2 PUSH8 0xFFFFFFFFFFFFFFFF DUP2 GT DUP1 ISZERO PUSH2 0x247A JUMPI PUSH1 0x0 DUP1 REVERT JUMPDEST POP PUSH1 0x40 MLOAD SWAP1 DUP1 DUP3 MSTORE DUP1 PUSH1 0x20 MUL PUSH1 0x20 ADD DUP3 ADD PUSH1 0x40 MSTORE DUP1 ISZERO PUSH2 0x24A4 JUMPI DUP2 PUSH1 0x20 ADD PUSH1 0x20 DUP3 MUL DUP1 CALLDATASIZE DUP4 CALLDATACOPY ADD SWAP1 POP JUMPDEST POP SWAP1 POP PUSH1 0x0 JUMPDEST DUP3 DUP2 LT ISZERO PUSH2 0x2501 JUMPI PUSH1 0x0 DUP5 DUP3 DUP2 MLOAD DUP2 LT PUSH2 0x24C0 JUMPI INVALID JUMPDEST PUSH1 0x20 MUL PUSH1 0x20 ADD ADD MLOAD SWAP1 POP PUSH2 0x24E1 DUP2 PUSH1 0x0 ADD MLOAD DUP3 PUSH1 0x20 ADD MLOAD DUP4 PUSH1 0x40 ADD MLOAD PUSH2 0x3308 JUMP JUMPDEST DUP4 DUP4 DUP2 MLOAD DUP2 LT PUSH2 0x24ED JUMPI INVALID JUMPDEST PUSH1 0x20 SWAP1 DUP2 MUL SWAP2 SWAP1 SWAP2 ADD ADD MSTORE POP PUSH1 0x1 ADD PUSH2 0x24AA JUMP JUMPDEST POP PUSH1 0x1 JUMPDEST DUP3 DUP2 LT ISZERO PUSH2 0xC88 JUMPI DUP1 JUMPDEST PUSH1 0x0 DUP2 GT DUP1 ISZERO PUSH2 0x2547 JUMPI POP DUP3 DUP2 DUP2 MLOAD DUP2 LT PUSH2 0x2526 JUMPI INVALID JUMPDEST PUSH1 0x20 MUL PUSH1 0x20 ADD ADD MLOAD DUP4 PUSH1 0x1 DUP4 SUB DUP2 MLOAD DUP2 LT PUSH2 0x253D JUMPI INVALID JUMPDEST PUSH1 0x20 MUL PUSH1 0x20 ADD ADD MLOAD GT JUMPDEST ISZERO PUSH2 0x260F JUMPI DUP3 DUP2 DUP2 MLOAD DUP2 LT PUSH2 0x2558 JUMPI INVALID JUMPDEST PUSH1 0x20 MUL PUSH1 0x20 ADD ADD MLOAD DUP4 PUSH1 0x1 DUP4 SUB DUP2 MLOAD DUP2 LT PUSH2 0x256F JUMPI INVALID JUMPDEST PUSH1 0x20 MUL PUSH1 0x20 ADD ADD MLOAD DUP5 PUSH1 0x1 DUP5 SUB DUP2 MLOAD DUP2 LT PUSH2 0x2586 JUMPI INVALID JUMPDEST PUSH1 0x20 MUL PUSH1 0x20 ADD ADD DUP6 DUP5 DUP2 MLOAD DUP2 LT PUSH2 0x2599 JUMPI INVALID JUMPDEST PUSH1 0x20 MUL PUSH1 0x20 ADD ADD DUP3 DUP2 MSTORE POP DUP3 DUP2 MSTORE POP POP POP DUP5 DUP2 DUP2 MLOAD DUP2 LT PUSH2 0x25B6 JUMPI INVALID JUMPDEST PUSH1 0x20 MUL PUSH1 0x20 ADD ADD MLOAD DUP6 PUSH1 0x1 DUP4 SUB DUP2 MLOAD DUP2 LT PUSH2 0x25CD JUMPI INVALID JUMPDEST PUSH1 0x20 MUL PUSH1 0x20 ADD ADD MLOAD DUP7 PUSH1 0x1 DUP5 SUB DUP2 MLOAD DUP2 LT PUSH2 0x25E4 JUMPI INVALID JUMPDEST PUSH1 0x20 MUL PUSH1 0x20 ADD ADD DUP8 DUP5 DUP2 MLOAD DUP2 LT PUSH2 0x25F7 JUMPI INVALID JUMPDEST PUSH1 0x20 SWAP1 DUP2 MUL SWAP2 SWAP1 SWAP2 ADD ADD SWAP2 SWAP1 SWAP2 MSTORE MSTORE PUSH1 0x0 NOT ADD PUSH2 0x250F JUMP JUMPDEST POP PUSH1 0x1 ADD PUSH2 0x2505 JUMP JUMPDEST DUP2 MLOAD MLOAD DUP2 LT PUSH2 0x2626 JUMPI PUSH1 0x0 DUP1 REVERT JUMPDEST PUSH1 0x0 DUP3 PUSH1 0x60 ADD MLOAD GT PUSH2 0x2637 JUMPI PUSH1 0x0 DUP1 REVERT JUMPDEST PUSH1 0x0 DUP3 PUSH1 0x0 ADD MLOAD DUP3 DUP2 MLOAD DUP2 LT PUSH2 0x2649 JUMPI INVALID JUMPDEST PUSH1 0x20 MUL PUSH1 0x20 ADD ADD MLOAD SWAP1 POP PUSH1 0x2 PUSH1 0x3 DUP2 GT ISZERO PUSH2 0x2660 JUMPI INVALID JUMPDEST DUP2 PUSH1 0xA0 ADD MLOAD PUSH1 0x3 DUP2 GT ISZERO PUSH2 0x2670 JUMPI INVALID JUMPDEST EQ ISZERO DUP1 ISZERO PUSH2 0x268E JUMPI POP PUSH1 0x3 DUP2 PUSH1 0xA0 ADD MLOAD PUSH1 0x3 DUP2 GT ISZERO PUSH2 0x268B JUMPI INVALID JUMPDEST EQ ISZERO JUMPDEST PUSH2 0x2697 JUMPI PUSH1 0x0 DUP1 REVERT JUMPDEST PUSH1 0x60 DUP4 ADD DUP1 MLOAD PUSH1 0x0 NOT ADD SWAP1 MSTORE PUSH1 0x0 DUP1 DUP1 JUMPDEST DUP6 MLOAD MLOAD DUP2 LT ISZERO PUSH2 0x270A JUMPI PUSH1 0x0 DUP7 PUSH1 0x0 ADD MLOAD DUP3 DUP2 MLOAD DUP2 LT PUSH2 0x26C4 JUMPI INVALID JUMPDEST PUSH1 0x20 MUL PUSH1 0x20 ADD ADD MLOAD SWAP1 POP DUP3 DUP2 PUSH1 0x80 ADD MLOAD GT DUP1 ISZERO PUSH2 0x26F1 JUMPI POP PUSH1 0x2 DUP2 PUSH1 0xA0 ADD MLOAD PUSH1 0x3 DUP2 GT ISZERO PUSH2 0x26EE JUMPI INVALID JUMPDEST EQ ISZERO JUMPDEST ISZERO PUSH2 0x2701 JUMPI DUP1 PUSH1 0x80 ADD MLOAD SWAP3 POP DUP2 SWAP4 POP JUMPDEST POP PUSH1 0x1 ADD PUSH2 0x26A8 JUMP JUMPDEST POP DUP2 DUP5 EQ ISZERO PUSH2 0x2723 JUMPI POP POP PUSH1 0x2 PUSH1 0xA0 SWAP2 SWAP1 SWAP2 ADD MSTORE PUSH2 0x578 JUMP JUMPDEST PUSH1 0x0 DUP6 PUSH1 0x0 ADD MLOAD DUP4 DUP2 MLOAD DUP2 LT PUSH2 0x2735 JUMPI INVALID JUMPDEST PUSH1 0x20 SWAP1 DUP2 MUL SWAP2 SWAP1 SWAP2 ADD ADD MLOAD PUSH1 0x80 DUP6 DUP2 ADD DUP1 MLOAD SWAP2 DUP4 ADD DUP1 MLOAD SWAP1 SWAP2 MSTORE MSTORE PUSH1 0x1 PUSH1 0xA0 SWAP2 DUP3 ADD MSTORE PUSH1 0x2 SWAP5 ADD SWAP4 SWAP1 SWAP4 MSTORE POP POP POP POP POP JUMP JUMPDEST DUP2 MLOAD ISZERO DUP1 ISZERO SWAP1 PUSH2 0x277A JUMPI POP DUP2 MLOAD PUSH2 0x3FFF LT ISZERO JUMPDEST PUSH2 0x2783 JUMPI PUSH1 0x0 DUP1 REVERT JUMPDEST DUP2 PUSH1 0x20 ADD MLOAD PUSH1 0x0 LT DUP1 ISZERO PUSH2 0x27A0 JUMPI POP PUSH1 0x20 DUP3 ADD MLOAD PUSH5 0xFFFFFFFFFF LT ISZERO JUMPDEST PUSH2 0x27A9 JUMPI PUSH1 0x0 DUP1 REVERT JUMPDEST DUP2 PUSH1 0x40 ADD MLOAD PUSH1 0x0 LT DUP1 ISZERO PUSH2 0x27C2 JUMPI POP PUSH1 0x40 DUP3 ADD MLOAD PUSH1 0x8 LT ISZERO JUMPDEST PUSH2 0x27CB JUMPI PUSH1 0x0 DUP1 REVERT JUMPDEST PUSH1 0x60 DUP3 ADD MLOAD PUSH11 0x7FFFFFFFFFFFFFFFFFFFFF NOT SGT DUP1 ISZERO SWAP1 PUSH2 0x27FA JUMPI POP PUSH1 0x60 DUP3 ADD MLOAD PUSH11 0x7FFFFFFFFFFFFFFFFFFFFF SLT ISZERO JUMPDEST PUSH2 0x2803 JUMPI PUSH1 0x0 DUP1 REVERT JUMPDEST DUP2 MLOAD DUP2 SLOAD PUSH1 0x20 DUP5 ADD MLOAD PUSH1 0x40 DUP6 ADD MLOAD PUSH1 0x60 SWAP1 SWAP6 ADD MLOAD PUSH1 0xA SIGNEXTEND PUSH11 0xFFFFFFFFFFFFFFFFFFFFFF AND PUSH1 0x1 PUSH1 0x40 SHL MUL PUSH19 0xFFFFFFFFFFFFFFFFFFFFFF0000000000000000 NOT PUSH1 0xFF SWAP1 SWAP7 AND PUSH1 0x1 PUSH1 0x38 SHL MUL PUSH8 0xFF00000000000000 NOT PUSH5 0xFFFFFFFFFF SWAP1 SWAP4 AND PUSH3 0x10000 MUL PUSH7 0xFFFFFFFFFF0000 NOT PUSH2 0xFFFF SWAP1 SWAP7 AND PUSH2 0xFFFF NOT SWAP1 SWAP6 AND SWAP5 SWAP1 SWAP5 OR SWAP5 SWAP1 SWAP5 AND SWAP3 SWAP1 SWAP3 OR AND SWAP2 SWAP1 SWAP2 OR SWAP3 SWAP1 SWAP3 AND SWAP2 SWAP1 SWAP2 OR SWAP1 SSTORE JUMP JUMPDEST PUSH1 0x0 DUP1 PUSH1 0x0 DUP1 PUSH2 0x28A7 DUP9 PUSH2 0x3363 JUMP JUMPDEST SWAP1 POP DUP5 ISZERO DUP1 PUSH2 0x28B5 JUMPI POP DUP1 DUP6 GT JUMPDEST ISZERO PUSH2 0x28BE JUMPI DUP1 SWAP5 POP JUMPDEST DUP7 DUP1 PUSH2 0x28CE JUMPI POP PUSH1 0x0 DUP9 PUSH1 0x60 ADD MLOAD SLT JUMPDEST SWAP7 POP PUSH2 0xFFFF DUP7 AND ISZERO PUSH2 0x28DF JUMPI PUSH1 0x0 DUP1 REVERT JUMPDEST POP POP SWAP5 MLOAD SWAP4 SWAP6 PUSH1 0x10 SWAP4 SWAP1 SWAP4 SHR PUSH1 0xF0 SWAP5 SWAP1 SWAP5 SHL SWAP4 SWAP1 SWAP4 OR SWAP4 POP SWAP2 POP JUMP JUMPDEST PUSH1 0x0 DUP1 PUSH2 0xE8D PUSH1 0xD PUSH2 0x1D6D JUMP JUMPDEST PUSH2 0x2910 PUSH2 0x3B20 JUMP JUMPDEST PUSH1 0x0 PUSH2 0x291A PUSH2 0x33D0 JUMP JUMPDEST PUSH1 0x0 DUP6 DUP2 MSTORE PUSH1 0x20 DUP3 DUP2 MSTORE PUSH1 0x40 DUP1 DUP4 KECCAK256 DUP8 ISZERO ISZERO DUP5 MSTORE DUP3 MSTORE SWAP2 DUP3 SWAP1 KECCAK256 DUP3 MLOAD PUSH1 0xA0 DUP2 ADD DUP5 MSTORE DUP2 SLOAD PUSH1 0x1 PUSH1 0x1 PUSH1 0xA0 SHL SUB DUP2 AND DUP3 MSTORE PUSH1 0xFF PUSH1 0x1 PUSH1 0xA0 SHL DUP3 DIV DUP2 AND ISZERO ISZERO SWAP5 DUP4 ADD SWAP5 SWAP1 SWAP5 MSTORE PUSH1 0x1 PUSH1 0xB0 SHL DUP2 DIV DUP5 AND PUSH1 0xA EXP SWAP5 DUP3 ADD SWAP5 SWAP1 SWAP5 MSTORE SWAP4 SWAP5 POP SWAP3 SWAP2 PUSH1 0x60 DUP4 ADD SWAP2 PUSH1 0x1 PUSH1 0xA8 SHL SWAP1 SWAP2 DIV AND PUSH1 0x5 DUP2 GT ISZERO PUSH2 0x298F JUMPI INVALID JUMPDEST DUP2 MSTORE SWAP2 SLOAD PUSH1 0x1 PUSH1 0xB8 SHL SWAP1 DIV PUSH9 0xFFFFFFFFFFFFFFFFFF AND PUSH1 0x20 SWAP1 SWAP3 ADD SWAP2 SWAP1 SWAP2 MSTORE SWAP5 SWAP4 POP POP POP POP JUMP JUMPDEST PUSH1 0x0 PUSH2 0xB0D PUSH2 0x29C3 PUSH2 0x33DD JUMP JUMPDEST SLOAD PUSH1 0x40 MLOAD PUSH4 0xD15E0053 PUSH1 0xE0 SHL DUP2 MSTORE PUSH1 0x1 PUSH1 0x1 PUSH1 0xA0 SHL SUB SWAP1 SWAP2 AND SWAP1 PUSH4 0xD15E0053 SWAP1 PUSH2 0x29F1 SWAP1 DUP7 SWAP1 PUSH1 0x4 ADD PUSH2 0x410F JUMP JUMPDEST PUSH1 0x20 PUSH1 0x40 MLOAD DUP1 DUP4 SUB DUP2 DUP7 DUP1 EXTCODESIZE ISZERO DUP1 ISZERO PUSH2 0x2A09 JUMPI PUSH1 0x0 DUP1 REVERT JUMPDEST POP GAS STATICCALL ISZERO DUP1 ISZERO PUSH2 0x2A1D JUMPI RETURNDATASIZE PUSH1 0x0 DUP1 RETURNDATACOPY RETURNDATASIZE PUSH1 0x0 REVERT JUMPDEST POP POP POP POP PUSH1 0x40 MLOAD RETURNDATASIZE PUSH1 0x1F NOT PUSH1 0x1F DUP3 ADD AND DUP3 ADD DUP1 PUSH1 0x40 MSTORE POP DUP2 ADD SWAP1 PUSH2 0x203A SWAP2 SWAP1 PUSH2 0x3EA4 JUMP JUMPDEST PUSH1 0x0 DUP2 PUSH2 0x2A50 JUMPI POP PUSH1 0x0 PUSH2 0xE8D JUMP JUMPDEST PUSH1 0x0 PUSH2 0x2A5B DUP5 PUSH2 0x29B6 JUMP JUMPDEST SWAP1 POP PUSH1 0x0 PUSH2 0x2A68 DUP5 PUSH2 0x33EA JUMP JUMPDEST SWAP1 POP DUP2 PUSH12 0x19D971E4FE8401E74000001 PUSH1 0x1 PUSH1 0xFF SHL SUB DUP2 PUSH2 0x2A85 JUMPI INVALID JUMPDEST SDIV DUP2 SGT ISZERO PUSH2 0x2A92 JUMPI PUSH1 0x0 DUP1 REVERT JUMPDEST PUSH12 0x33B2E3C9FD0803CE8000000 PUSH12 0x19D971E4FE8401E74000000 DUP4 DUP4 MUL ADD SDIV PUSH1 0x0 DUP6 SGT PUSH2 0x2AC7 JUMPI PUSH2 0x2AC2 DUP2 PUSH2 0xE1A JUMP JUMPDEST PUSH2 0x2AC9 JUMP JUMPDEST DUP1 JUMPDEST SWAP7 SWAP6 POP POP POP POP POP POP JUMP JUMPDEST PUSH1 0x0 DUP1 DUP1 DUP1 PUSH1 0x5 DUP8 PUSH1 0x60 ADD MLOAD PUSH1 0x5 DUP2 GT ISZERO PUSH2 0x2AEA JUMPI INVALID JUMPDEST EQ PUSH2 0x2AFC JUMPI PUSH4 0x70A08231 PUSH1 0xE0 SHL PUSH2 0x2B05 JUMP JUMPDEST PUSH4 0xED1279F PUSH1 0xE1 SHL JUMPDEST SWAP1 POP DUP7 PUSH1 0x20 ADD MLOAD ISZERO PUSH2 0x2B21 JUMPI DUP7 MLOAD PUSH2 0x2B1E SWAP1 ADDRESS DUP4 PUSH2 0x2CA9 JUMP JUMPDEST SWAP3 POP JUMPDEST DUP7 MLOAD PUSH2 0x2B2E SWAP1 DUP8 DUP8 PUSH2 0x340B JUMP JUMPDEST DUP7 PUSH1 0x20 ADD MLOAD DUP1 PUSH2 0x2B42 JUMPI POP PUSH1 0x0 DUP8 PUSH1 0x80 ADD MLOAD GT JUMPDEST ISZERO PUSH2 0x2B57 JUMPI DUP7 MLOAD PUSH2 0x2B54 SWAP1 ADDRESS DUP4 PUSH2 0x2CA9 JUMP JUMPDEST SWAP2 POP JUMPDEST PUSH1 0x80 DUP8 ADD MLOAD ISZERO PUSH2 0x2B92 JUMPI PUSH1 0x0 PUSH2 0x2B75 DUP9 PUSH2 0x2B70 DUP6 PUSH2 0x11AA JUMP JUMPDEST PUSH2 0x1F01 JUMP JUMPDEST SWAP1 POP PUSH2 0x2B84 DUP9 PUSH1 0x80 ADD MLOAD PUSH2 0x11AA JUMP JUMPDEST DUP2 SGT ISZERO PUSH2 0x2B90 JUMPI PUSH1 0x0 DUP1 REVERT JUMPDEST POP JUMPDEST DUP7 PUSH1 0x20 ADD MLOAD ISZERO PUSH2 0x2BB3 JUMPI PUSH2 0x2BA9 PUSH2 0x203A DUP4 DUP6 PUSH2 0x2F11 JUMP JUMPDEST SWAP4 POP POP POP POP PUSH2 0x8CD JUMP JUMPDEST PUSH2 0x2BA9 DUP6 PUSH2 0x11AA JUMP JUMPDEST POP POP POP SWAP4 SWAP3 POP POP POP JUMP JUMPDEST PUSH1 0x40 MLOAD PUSH1 0x1 PUSH1 0x1 PUSH1 0xA0 SHL SUB DUP4 AND SWAP1 DUP3 ISZERO PUSH2 0x8FC MUL SWAP1 DUP4 SWAP1 PUSH1 0x0 DUP2 DUP2 DUP2 DUP6 DUP9 DUP9 CALL SWAP4 POP POP POP POP ISZERO DUP1 ISZERO PUSH2 0x2BFC JUMPI RETURNDATASIZE PUSH1 0x0 DUP1 RETURNDATACOPY RETURNDATASIZE PUSH1 0x0 REVERT JUMPDEST POP POP POP JUMP JUMPDEST DUP3 PUSH1 0x1 PUSH1 0x1 PUSH1 0xA0 SHL SUB AND PUSH4 0xA9059CBB DUP4 DUP4 PUSH1 0x40 MLOAD DUP4 PUSH4 0xFFFFFFFF AND PUSH1 0xE0 SHL DUP2 MSTORE PUSH1 0x4 ADD DUP1 DUP4 PUSH1 0x1 PUSH1 0x1 PUSH1 0xA0 SHL SUB AND DUP2 MSTORE PUSH1 0x20 ADD DUP3 DUP2 MSTORE PUSH1 0x20 ADD SWAP3 POP POP POP PUSH1 0x0 PUSH1 0x40 MLOAD DUP1 DUP4 SUB DUP2 PUSH1 0x0 DUP8 DUP1 EXTCODESIZE ISZERO DUP1 ISZERO PUSH2 0x2C58 JUMPI PUSH1 0x0 DUP1 REVERT JUMPDEST POP GAS CALL ISZERO DUP1 ISZERO PUSH2 0x2C6C JUMPI RETURNDATASIZE PUSH1 0x0 DUP1 RETURNDATACOPY RETURNDATASIZE PUSH1 0x0 REVERT JUMPDEST POP POP POP POP PUSH2 0x2BFC PUSH2 0x3463 JUMP JUMPDEST PUSH1 0x0 DUP2 PUSH1 0x0 NOT EQ DUP1 ISZERO PUSH2 0x2C8E JUMPI POP PUSH1 0x1 PUSH1 0xFF SHL DUP4 EQ JUMPDEST ISZERO PUSH2 0x2C98 JUMPI PUSH1 0x0 DUP1 REVERT JUMPDEST DUP2 DUP4 DUP2 PUSH2 0x2CA1 JUMPI INVALID JUMPDEST SDIV SWAP4 SWAP3 POP POP POP JUMP JUMPDEST PUSH1 0x40 DUP1 MLOAD PUSH1 0x1 PUSH1 0x1 PUSH1 0xA0 SHL SUB DUP5 DUP2 AND PUSH1 0x24 DUP1 DUP5 ADD SWAP2 SWAP1 SWAP2 MSTORE DUP4 MLOAD DUP1 DUP5 SUB SWAP1 SWAP2 ADD DUP2 MSTORE PUSH1 0x44 SWAP1 SWAP3 ADD DUP4 MSTORE PUSH1 0x20 DUP3 ADD DUP1 MLOAD PUSH1 0x1 PUSH1 0x1 PUSH1 0xE0 SHL SUB AND PUSH1 0x1 PUSH1 0x1 PUSH1 0xE0 SHL SUB NOT DUP7 AND OR DUP2 MSTORE SWAP3 MLOAD DUP3 MLOAD PUSH1 0x0 SWAP5 DUP6 SWAP5 DUP6 SWAP5 DUP11 AND SWAP4 SWAP1 SWAP3 SWAP1 SWAP2 DUP3 SWAP2 DUP1 DUP4 DUP4 JUMPDEST PUSH1 0x20 DUP4 LT PUSH2 0x2D26 JUMPI DUP1 MLOAD DUP3 MSTORE PUSH1 0x1F NOT SWAP1 SWAP3 ADD SWAP2 PUSH1 0x20 SWAP2 DUP3 ADD SWAP2 ADD PUSH2 0x2D07 JUMP JUMPDEST PUSH1 0x1 DUP4 PUSH1 0x20 SUB PUSH2 0x100 EXP SUB DUP1 NOT DUP3 MLOAD AND DUP2 DUP5 MLOAD AND DUP1 DUP3 OR DUP6 MSTORE POP POP POP POP POP POP SWAP1 POP ADD SWAP2 POP POP PUSH1 0x0 PUSH1 0x40 MLOAD DUP1 DUP4 SUB DUP2 DUP6 GAS STATICCALL SWAP2 POP POP RETURNDATASIZE DUP1 PUSH1 0x0 DUP2 EQ PUSH2 0x2D86 JUMPI PUSH1 0x40 MLOAD SWAP2 POP PUSH1 0x1F NOT PUSH1 0x3F RETURNDATASIZE ADD AND DUP3 ADD PUSH1 0x40 MSTORE RETURNDATASIZE DUP3 MSTORE RETURNDATASIZE PUSH1 0x0 PUSH1 0x20 DUP5 ADD RETURNDATACOPY PUSH2 0x2D8B JUMP JUMPDEST PUSH1 0x60 SWAP2 POP JUMPDEST POP SWAP2 POP SWAP2 POP DUP2 PUSH2 0x2D9A JUMPI PUSH1 0x0 DUP1 REVERT JUMPDEST DUP1 DUP1 PUSH1 0x20 ADD SWAP1 MLOAD PUSH1 0x20 DUP2 LT ISZERO PUSH2 0x2DAF JUMPI PUSH1 0x0 DUP1 REVERT JUMPDEST POP MLOAD SWAP7 SWAP6 POP POP POP POP POP POP JUMP JUMPDEST PUSH2 0x2DC3 PUSH2 0x33DD JUMP JUMPDEST SLOAD DUP3 MLOAD PUSH1 0x40 MLOAD PUSH4 0xE8EDA9DF PUSH1 0xE0 SHL DUP2 MSTORE PUSH1 0x1 PUSH1 0x1 PUSH1 0xA0 SHL SUB SWAP1 SWAP3 AND SWAP2 PUSH4 0xE8EDA9DF SWAP2 PUSH2 0x2DF8 SWAP2 DUP6 SWAP1 ADDRESS SWAP1 PUSH1 0x0 SWAP1 PUSH1 0x4 ADD PUSH2 0x432F JUMP JUMPDEST PUSH1 0x0 PUSH1 0x40 MLOAD DUP1 DUP4 SUB DUP2 PUSH1 0x0 DUP8 DUP1 EXTCODESIZE ISZERO DUP1 ISZERO PUSH2 0x2E12 JUMPI PUSH1 0x0 DUP1 REVERT JUMPDEST POP GAS CALL ISZERO DUP1 ISZERO PUSH2 0x2F3 JUMPI RETURNDATASIZE PUSH1 0x0 DUP1 RETURNDATACOPY RETURNDATASIZE PUSH1 0x0 REVERT JUMPDEST PUSH1 0x0 DUP1 DUP4 PUSH1 0x0 ADD MLOAD PUSH1 0x1 PUSH1 0x1 PUSH1 0xA0 SHL SUB AND PUSH4 0xA0712D68 DUP5 PUSH1 0x40 MLOAD DUP3 PUSH4 0xFFFFFFFF AND PUSH1 0xE0 SHL DUP2 MSTORE PUSH1 0x4 ADD PUSH2 0x2E59 SWAP2 SWAP1 PUSH2 0x4382 JUMP JUMPDEST PUSH1 0x20 PUSH1 0x40 MLOAD DUP1 DUP4 SUB DUP2 PUSH1 0x0 DUP8 DUP1 EXTCODESIZE ISZERO DUP1 ISZERO PUSH2 0x2E73 JUMPI PUSH1 0x0 DUP1 REVERT JUMPDEST POP GAS CALL ISZERO DUP1 ISZERO PUSH2 0x2E87 JUMPI RETURNDATASIZE PUSH1 0x0 DUP1 RETURNDATACOPY RETURNDATASIZE PUSH1 0x0 REVERT JUMPDEST POP POP POP POP PUSH1 0x40 MLOAD RETURNDATASIZE PUSH1 0x1F NOT PUSH1 0x1F DUP3 ADD AND DUP3 ADD DUP1 PUSH1 0x40 MSTORE POP DUP2 ADD SWAP1 PUSH2 0x2EAB SWAP2 SWAP1 PUSH2 0x3EA4 JUMP JUMPDEST SWAP1 POP DUP1 ISZERO PUSH2 0x2ECB JUMPI PUSH1 0x40 MLOAD PUSH3 0x461BCD PUSH1 0xE5 SHL DUP2 MSTORE PUSH1 0x4 ADD PUSH2 0x14F SWAP1 PUSH2 0x43B1 JUMP JUMPDEST POP SWAP3 SWAP2 POP POP JUMP JUMPDEST DUP1 PUSH1 0x0 ADD MLOAD PUSH1 0x1 PUSH1 0x1 PUSH1 0xA0 SHL SUB AND PUSH4 0x1249C58B CALLVALUE PUSH1 0x40 MLOAD DUP3 PUSH4 0xFFFFFFFF AND PUSH1 0xE0 SHL DUP2 MSTORE PUSH1 0x4 ADD PUSH1 0x0 PUSH1 0x40 MLOAD DUP1 DUP4 SUB DUP2 DUP6 DUP9 DUP1 EXTCODESIZE ISZERO DUP1 ISZERO PUSH2 0x2E12 JUMPI PUSH1 0x0 DUP1 REVERT JUMPDEST PUSH1 0x0 DUP3 DUP3 GT ISZERO PUSH2 0x2F68 JUMPI PUSH1 0x40 DUP1 MLOAD PUSH3 0x461BCD PUSH1 0xE5 SHL DUP2 MSTORE PUSH1 0x20 PUSH1 0x4 DUP3 ADD MSTORE PUSH1 0x1E PUSH1 0x24 DUP3 ADD MSTORE PUSH32 0x536166654D6174683A207375627472616374696F6E206F766572666C6F770000 PUSH1 0x44 DUP3 ADD MSTORE SWAP1 MLOAD SWAP1 DUP2 SWAP1 SUB PUSH1 0x64 ADD SWAP1 REVERT JUMPDEST POP SWAP1 SUB SWAP1 JUMP JUMPDEST PUSH1 0x0 PUSH4 0x5F5E100 DUP4 PUSH1 0x40 ADD MLOAD EQ ISZERO PUSH2 0x2F87 JUMPI POP DUP1 PUSH2 0xE8D JUMP JUMPDEST PUSH2 0x8CD PUSH4 0x5F5E100 PUSH2 0x1F31 DUP6 PUSH1 0x40 ADD MLOAD DUP6 PUSH2 0x1866 SWAP1 SWAP2 SWAP1 PUSH4 0xFFFFFFFF AND JUMP JUMPDEST PUSH1 0x0 DUP1 PUSH1 0x2 DUP7 PUSH1 0x60 ADD MLOAD PUSH1 0x5 DUP2 GT ISZERO PUSH2 0x2FBB JUMPI INVALID JUMPDEST EQ ISZERO PUSH2 0x2FD3 JUMPI PUSH2 0x2FCC DUP7 DUP6 DUP6 PUSH2 0x34D0 JUMP JUMPDEST SWAP1 POP PUSH2 0x3030 JUMP JUMPDEST PUSH1 0x0 PUSH2 0x2FDE DUP7 PUSH2 0x1F37 JUMP JUMPDEST SWAP1 POP PUSH1 0x5 DUP8 PUSH1 0x60 ADD MLOAD PUSH1 0x5 DUP2 GT ISZERO PUSH2 0x2FF2 JUMPI INVALID JUMPDEST EQ ISZERO PUSH2 0x300A JUMPI PUSH2 0x3003 DUP2 DUP7 DUP7 PUSH2 0x358D JUMP JUMPDEST SWAP2 POP PUSH2 0x302E JUMP JUMPDEST PUSH1 0x1 DUP8 PUSH1 0x60 ADD MLOAD PUSH1 0x5 DUP2 GT ISZERO PUSH2 0x301C JUMPI INVALID JUMPDEST EQ ISZERO PUSH2 0x70 JUMPI PUSH2 0x3003 DUP8 DUP3 DUP8 DUP8 PUSH2 0x3643 JUMP JUMPDEST POP JUMPDEST PUSH2 0x2AC9 PUSH2 0x303C DUP3 PUSH2 0x11AA JUMP JUMPDEST PUSH2 0xE1A JUMP JUMPDEST PUSH1 0x0 DUP1 PUSH2 0x304C PUSH2 0x3741 JUMP JUMPDEST PUSH1 0x0 SWAP4 DUP5 MSTORE PUSH1 0x20 MSTORE POP POP PUSH1 0x40 SWAP1 KECCAK256 SLOAD PUSH1 0x1 PUSH1 0x1 PUSH1 0xA0 SHL SUB AND SWAP1 JUMP JUMPDEST PUSH1 0x0 DUP1 PUSH1 0x0 PUSH2 0x3076 DUP7 DUP6 PUSH2 0x374E JUMP JUMPDEST POP SWAP2 POP SWAP2 POP PUSH1 0x0 PUSH2 0x3085 PUSH2 0x37E4 JUMP JUMPDEST PUSH1 0x1 PUSH1 0x1 PUSH1 0xA0 SHL SUB DUP9 AND PUSH1 0x0 SWAP1 DUP2 MSTORE PUSH1 0x20 DUP3 SWAP1 MSTORE PUSH1 0x40 DUP2 KECCAK256 SWAP2 SWAP3 POP PUSH2 0x30AA DUP6 DUP10 PUSH2 0xE77 JUMP JUMPDEST SWAP1 POP DUP1 PUSH1 0x0 SGT ISZERO DUP1 ISZERO PUSH2 0x30C3 JUMPI POP PUSH1 0x1 PUSH1 0x1 PUSH1 0x60 SHL SUB DUP2 LT JUMPDEST PUSH2 0x30CC JUMPI PUSH1 0x0 DUP1 REVERT JUMPDEST DUP2 SLOAD PUSH12 0xFFFFFFFFFFFFFFFFFFFFFFFF NOT AND PUSH1 0x1 PUSH1 0x1 PUSH1 0x60 SHL SUB DUP3 AND OR PUSH16 0xFFFFFFFFFFFFFFFFFFFFFFFFFFFFFFFF PUSH1 0x60 SHL NOT AND PUSH1 0x1 PUSH1 0x60 SHL PUSH1 0x1 PUSH1 0x1 PUSH1 0x80 SHL SUB DUP7 AND MUL OR DUP3 SSTORE PUSH4 0xFFFFFFFF DUP8 LT PUSH2 0x3121 JUMPI PUSH1 0x0 DUP1 REVERT JUMPDEST POP DUP1 SLOAD PUSH4 0xFFFFFFFF DUP8 AND PUSH1 0x1 PUSH1 0xE0 SHL MUL PUSH1 0x1 PUSH1 0x1 PUSH1 0xE0 SHL SUB SWAP1 SWAP2 AND OR SWAP1 SSTORE POP SWAP2 POP POP SWAP4 SWAP3 POP POP POP JUMP JUMPDEST PUSH1 0xE0 DUP5 ADD MLOAD PUSH1 0x0 SWAP1 ISZERO PUSH2 0x320B JUMPI PUSH20 0x0 PUSH4 0xE0C01A72 DUP6 PUSH2 0x317F DUP9 PUSH1 0x40 ADD MLOAD PUSH2 0x1F4A JUMP JUMPDEST DUP9 PUSH1 0xE0 ADD MLOAD DUP10 PUSH2 0x100 ADD MLOAD PUSH1 0x40 MLOAD DUP6 PUSH4 0xFFFFFFFF AND PUSH1 0xE0 SHL DUP2 MSTORE PUSH1 0x4 ADD PUSH2 0x31A9 SWAP5 SWAP4 SWAP3 SWAP2 SWAP1 PUSH2 0x435C JUMP JUMPDEST PUSH1 0x20 PUSH1 0x40 MLOAD DUP1 DUP4 SUB DUP2 DUP7 DUP1 EXTCODESIZE ISZERO DUP1 ISZERO PUSH2 0x31C1 JUMPI PUSH1 0x0 DUP1 REVERT JUMPDEST POP GAS DELEGATECALL ISZERO DUP1 ISZERO PUSH2 0x31D5 JUMPI RETURNDATASIZE PUSH1 0x0 DUP1 RETURNDATACOPY RETURNDATASIZE PUSH1 0x0 REVERT JUMPDEST POP POP POP POP PUSH1 0x40 MLOAD RETURNDATASIZE PUSH1 0x1F NOT PUSH1 0x1F DUP3 ADD AND DUP3 ADD DUP1 PUSH1 0x40 MSTORE POP DUP2 ADD SWAP1 PUSH2 0x31F9 SWAP2 SWAP1 PUSH2 0x3EA4 JUMP JUMPDEST PUSH1 0x0 PUSH1 0xE0 DUP8 ADD DUP2 SWAP1 MSTORE PUSH2 0x100 DUP8 ADD MSTORE SWAP1 POP JUMPDEST PUSH2 0x324D PUSH2 0x3246 DUP7 PUSH2 0x100 ADD MLOAD PUSH2 0x3240 PUSH8 0xDE0B6B3A7640000 PUSH2 0x323A DUP9 PUSH2 0x3234 DUP13 PUSH1 0x40 ADD MLOAD PUSH2 0x1F4A JUMP JUMPDEST SWAP1 PUSH2 0x37F1 JUMP JUMPDEST SWAP1 PUSH2 0x384A JUMP JUMPDEST SWAP1 PUSH2 0x2F11 JUMP JUMPDEST DUP3 SWAP1 PUSH2 0x38B1 JUMP JUMPDEST SWAP1 POP PUSH2 0x3265 PUSH8 0xDE0B6B3A7640000 PUSH2 0x323A DUP5 DUP7 PUSH2 0x37F1 JUMP JUMPDEST DUP6 PUSH2 0x100 ADD DUP2 DUP2 MSTORE POP POP SWAP5 SWAP4 POP POP POP POP JUMP JUMPDEST PUSH1 0x0 DUP1 PUSH2 0x3282 PUSH2 0x1830 JUMP JUMPDEST PUSH1 0x1 PUSH1 0x1 PUSH1 0xA0 SHL SUB DUP5 AND PUSH1 0x0 SWAP1 DUP2 MSTORE PUSH1 0x20 DUP3 SWAP1 MSTORE PUSH1 0x40 SWAP1 KECCAK256 DUP1 SLOAD SWAP2 SWAP3 POP SWAP1 PUSH1 0x1 PUSH1 0xF8 SHL SWAP1 DIV PUSH1 0xFF AND ISZERO PUSH2 0x32DE JUMPI PUSH2 0x32B7 PUSH2 0x390B JUMP JUMPDEST PUSH1 0x1 PUSH1 0x1 PUSH1 0xA0 SHL SUB DUP1 DUP7 AND PUSH1 0x0 SWAP1 DUP2 MSTORE PUSH1 0x20 SWAP3 SWAP1 SWAP3 MSTORE PUSH1 0x40 SWAP1 SWAP2 KECCAK256 SLOAD AND SWAP3 POP PUSH2 0xB10 SWAP2 POP POP JUMP JUMPDEST PUSH1 0x0 SWAP3 POP POP POP PUSH2 0xB10 JUMP JUMPDEST PUSH2 0x578 PUSH20 0xCFEAEAD4947F0705A14EC42AC3D44129E1EF3ED5 DUP4 DUP4 PUSH2 0x2C01 JUMP JUMPDEST PUSH1 0x0 PUSH2 0x3FFF DUP5 GT ISZERO PUSH2 0x3319 JUMPI PUSH1 0x0 DUP1 REVERT JUMPDEST PUSH5 0xFFFFFFFFFF DUP4 GT ISZERO PUSH2 0x332B JUMPI PUSH1 0x0 DUP1 REVERT JUMPDEST PUSH1 0x8 DUP3 GT ISZERO PUSH2 0x3339 JUMPI PUSH1 0x0 DUP1 REVERT JUMPDEST POP PUSH8 0xFFFF000000000000 PUSH1 0x30 DUP5 SWAP1 SHL AND PUSH6 0xFFFFFFFFFF00 PUSH1 0x8 DUP5 SWAP1 SHL AND OR PUSH1 0xFF DUP3 AND OR SWAP4 SWAP3 POP POP POP JUMP JUMPDEST PUSH1 0x0 DUP1 DUP3 PUSH1 0x40 ADD MLOAD GT DUP1 ISZERO PUSH2 0x337D JUMPI POP PUSH1 0x40 DUP3 ADD MLOAD PUSH1 0x8 LT ISZERO JUMPDEST PUSH2 0x3386 JUMPI PUSH1 0x0 DUP1 REVERT JUMPDEST PUSH1 0x40 DUP3 ADD MLOAD PUSH1 0x2 LT PUSH2 0x339D JUMPI POP PUSH1 0x20 DUP2 ADD MLOAD PUSH2 0xB10 JUMP JUMPDEST PUSH1 0x0 PUSH2 0x33AF PUSH1 0x1 DUP5 PUSH1 0x40 ADD MLOAD SUB PUSH2 0x3918 JUMP JUMPDEST PUSH1 0x20 DUP5 ADD MLOAD SWAP1 SWAP2 POP PUSH2 0x8CD SWAP1 PUSH3 0x76A700 SWAP1 PUSH2 0x33CA SWAP1 DUP5 PUSH2 0x2F11 JUMP JUMPDEST SWAP1 PUSH2 0x38B1 JUMP JUMPDEST PUSH1 0x0 DUP1 PUSH2 0xE8D PUSH1 0x7 PUSH2 0x1D6D JUMP JUMPDEST PUSH1 0x0 DUP1 PUSH2 0xE8D PUSH1 0x13 PUSH2 0x1D6D JUMP JUMPDEST PUSH1 0x0 DUP1 DUP3 SLT ISZERO PUSH2 0x3404 JUMPI PUSH2 0x33FD DUP3 PUSH2 0xE1A JUMP JUMPDEST SWAP1 POP PUSH2 0xB10 JUMP JUMPDEST POP DUP1 PUSH2 0xB10 JUMP JUMPDEST PUSH1 0x40 DUP1 MLOAD PUSH4 0x23B872DD PUSH1 0xE0 SHL DUP2 MSTORE PUSH1 0x1 PUSH1 0x1 PUSH1 0xA0 SHL SUB DUP5 DUP2 AND PUSH1 0x4 DUP4 ADD MSTORE ADDRESS PUSH1 0x24 DUP4 ADD MSTORE PUSH1 0x44 DUP3 ADD DUP5 SWAP1 MSTORE SWAP2 MLOAD SWAP2 DUP6 AND SWAP2 PUSH4 0x23B872DD SWAP2 PUSH1 0x64 DUP1 DUP3 ADD SWAP3 PUSH1 0x0 SWAP3 SWAP1 SWAP2 SWAP1 DUP3 SWAP1 SUB ADD DUP2 DUP4 DUP8 DUP1 EXTCODESIZE ISZERO DUP1 ISZERO PUSH2 0x2C58 JUMPI PUSH1 0x0 DUP1 REVERT JUMPDEST PUSH1 0x0 PUSH2 0x346D PUSH2 0x3B4F JUMP JUMPDEST RETURNDATASIZE DUP1 ISZERO PUSH2 0x3481 JUMPI PUSH1 0x20 DUP2 EQ PUSH2 0x348A JUMPI PUSH1 0x0 DUP1 REVERT JUMPDEST PUSH1 0x1 SWAP3 POP PUSH2 0x3495 JUMP JUMPDEST PUSH1 0x20 PUSH1 0x0 DUP4 RETURNDATACOPY DUP2 MLOAD SWAP3 POP JUMPDEST POP DUP2 PUSH2 0x578 JUMPI PUSH1 0x40 DUP1 MLOAD PUSH3 0x461BCD PUSH1 0xE5 SHL DUP2 MSTORE PUSH1 0x20 PUSH1 0x4 DUP3 ADD MSTORE PUSH1 0x5 PUSH1 0x24 DUP3 ADD MSTORE PUSH5 0x455243323 PUSH1 0xDC SHL PUSH1 0x44 DUP3 ADD MSTORE SWAP1 MLOAD SWAP1 DUP2 SWAP1 SUB PUSH1 0x64 ADD SWAP1 REVERT JUMPDEST DUP3 MLOAD PUSH1 0x40 MLOAD PUSH4 0xDB006A75 PUSH1 0xE0 SHL DUP2 MSTORE PUSH1 0x0 SWAP2 SELFBALANCE SWAP2 DUP4 SWAP2 PUSH1 0x1 PUSH1 0x1 PUSH1 0xA0 SHL SUB AND SWAP1 PUSH4 0xDB006A75 SWAP1 PUSH2 0x3504 SWAP1 DUP8 SWAP1 PUSH1 0x4 ADD PUSH2 0x4382 JUMP JUMPDEST PUSH1 0x20 PUSH1 0x40 MLOAD DUP1 DUP4 SUB DUP2 PUSH1 0x0 DUP8 DUP1 EXTCODESIZE ISZERO DUP1 ISZERO PUSH2 0x351E JUMPI PUSH1 0x0 DUP1 REVERT JUMPDEST POP GAS CALL ISZERO DUP1 ISZERO PUSH2 0x3532 JUMPI RETURNDATASIZE PUSH1 0x0 DUP1 RETURNDATACOPY RETURNDATASIZE PUSH1 0x0 REVERT JUMPDEST POP POP POP POP PUSH1 0x40 MLOAD RETURNDATASIZE PUSH1 0x1F NOT PUSH1 0x1F DUP3 ADD AND DUP3 ADD DUP1 PUSH1 0x40 MSTORE POP DUP2 ADD SWAP1 PUSH2 0x3556 SWAP2 SWAP1 PUSH2 0x3EA4 JUMP JUMPDEST SWAP1 POP DUP1 ISZERO PUSH2 0x3576 JUMPI PUSH1 0x40 MLOAD PUSH3 0x461BCD PUSH1 0xE5 SHL DUP2 MSTORE PUSH1 0x4 ADD PUSH2 0x14F SWAP1 PUSH2 0x43F4 JUMP JUMPDEST SELFBALANCE PUSH2 0x3581 DUP2 DUP5 PUSH2 0x2F11 JUMP JUMPDEST SWAP4 POP PUSH2 0x2BBC DUP7 DUP6 PUSH2 0x2BC6 JUMP JUMPDEST PUSH1 0x0 PUSH2 0x35AD PUSH2 0x35A8 DUP6 PUSH1 0x0 ADD MLOAD PUSH2 0x35A3 DUP6 PUSH2 0x11AA JUMP JUMPDEST PUSH2 0x2A41 JUMP JUMPDEST PUSH2 0x1F4A JUMP JUMPDEST SWAP1 POP PUSH2 0x35B7 PUSH2 0x33DD JUMP JUMPDEST SLOAD DUP5 MLOAD PUSH1 0x40 MLOAD PUSH4 0x1A4CA37B PUSH1 0xE2 SHL DUP2 MSTORE PUSH1 0x1 PUSH1 0x1 PUSH1 0xA0 SHL SUB SWAP1 SWAP3 AND SWAP2 PUSH4 0x69328DEC SWAP2 PUSH2 0x35E9 SWAP2 DUP6 SWAP1 DUP9 SWAP1 PUSH1 0x4 ADD PUSH2 0x430C JUMP JUMPDEST PUSH1 0x20 PUSH1 0x40 MLOAD DUP1 DUP4 SUB DUP2 PUSH1 0x0 DUP8 DUP1 EXTCODESIZE ISZERO DUP1 ISZERO PUSH2 0x3603 JUMPI PUSH1 0x0 DUP1 REVERT JUMPDEST POP GAS CALL ISZERO DUP1 ISZERO PUSH2 0x3617 JUMPI RETURNDATASIZE PUSH1 0x0 DUP1 RETURNDATACOPY RETURNDATASIZE PUSH1 0x0 REVERT JUMPDEST POP POP POP POP PUSH1 0x40 MLOAD RETURNDATASIZE PUSH1 0x1F NOT PUSH1 0x1F DUP3 ADD AND DUP3 ADD DUP1 PUSH1 0x40 MSTORE POP DUP2 ADD SWAP1 PUSH2 0x363B SWAP2 SWAP1 PUSH2 0x3EA4 JUMP JUMPDEST POP SWAP4 SWAP3 POP POP POP JUMP JUMPDEST DUP3 MLOAD PUSH1 0x0 SWAP1 DUP2 SWAP1 PUSH2 0x365C SWAP1 ADDRESS PUSH4 0x70A08231 PUSH1 0xE0 SHL PUSH2 0x2CA9 JUMP JUMPDEST SWAP1 POP PUSH1 0x0 DUP7 PUSH1 0x0 ADD MLOAD PUSH1 0x1 PUSH1 0x1 PUSH1 0xA0 SHL SUB AND PUSH4 0xDB006A75 DUP6 PUSH1 0x40 MLOAD DUP3 PUSH4 0xFFFFFFFF AND PUSH1 0xE0 SHL DUP2 MSTORE PUSH1 0x4 ADD PUSH2 0x3690 SWAP2 SWAP1 PUSH2 0x4382 JUMP JUMPDEST PUSH1 0x20 PUSH1 0x40 MLOAD DUP1 DUP4 SUB DUP2 PUSH1 0x0 DUP8 DUP1 EXTCODESIZE ISZERO DUP1 ISZERO PUSH2 0x36AA JUMPI PUSH1 0x0 DUP1 REVERT JUMPDEST POP GAS CALL ISZERO DUP1 ISZERO PUSH2 0x36BE JUMPI RETURNDATASIZE PUSH1 0x0 DUP1 RETURNDATACOPY RETURNDATASIZE PUSH1 0x0 REVERT JUMPDEST POP POP POP POP PUSH1 0x40 MLOAD RETURNDATASIZE PUSH1 0x1F NOT PUSH1 0x1F DUP3 ADD AND DUP3 ADD DUP1 PUSH1 0x40 MSTORE POP DUP2 ADD SWAP1 PUSH2 0x36E2 SWAP2 SWAP1 PUSH2 0x3EA4 JUMP JUMPDEST SWAP1 POP DUP1 ISZERO PUSH2 0x3702 JUMPI PUSH1 0x40 MLOAD PUSH3 0x461BCD PUSH1 0xE5 SHL DUP2 MSTORE PUSH1 0x4 ADD PUSH2 0x14F SWAP1 PUSH2 0x43F4 JUMP JUMPDEST DUP6 MLOAD PUSH1 0x0 SWAP1 PUSH2 0x3719 SWAP1 ADDRESS PUSH4 0x70A08231 PUSH1 0xE0 SHL PUSH2 0x2CA9 JUMP JUMPDEST SWAP1 POP PUSH2 0x3725 DUP2 DUP5 PUSH2 0x2F11 JUMP JUMPDEST SWAP4 POP PUSH2 0x3736 DUP8 PUSH1 0x0 ADD MLOAD DUP8 DUP7 PUSH2 0x2C01 JUMP JUMPDEST POP POP POP SWAP5 SWAP4 POP POP POP POP JUMP JUMPDEST PUSH1 0x0 DUP1 PUSH2 0xE8D PUSH1 0x3 PUSH2 0x1D6D JUMP JUMPDEST PUSH1 0x0 DUP1 PUSH1 0x0 PUSH2 0x375C DUP6 PUSH2 0x39BC JUMP JUMPDEST SWAP2 SWAP5 POP SWAP3 POP SWAP1 POP DUP1 DUP5 GT DUP1 ISZERO PUSH2 0x3772 JUMPI POP PUSH1 0x0 DUP2 GT JUMPDEST DUP1 ISZERO PUSH2 0x377E JUMPI POP PUSH1 0x0 DUP4 GT JUMPDEST ISZERO PUSH2 0x37DD JUMPI PUSH1 0x0 PUSH2 0x378E DUP7 PUSH2 0xD11 JUMP JUMPDEST POP POP POP SWAP2 POP POP PUSH1 0x0 PUSH2 0x37B9 PUSH2 0x37B0 PUSH4 0x5F5E100 DUP5 PUSH2 0x37F1 SWAP1 SWAP2 SWAP1 PUSH4 0xFFFFFFFF AND JUMP JUMPDEST DUP5 DUP9 SUB DUP8 PUSH2 0x3A18 JUMP JUMPDEST SWAP1 POP PUSH2 0x37C5 DUP5 DUP3 PUSH2 0x38B1 JUMP JUMPDEST SWAP4 POP PUSH1 0x1 PUSH1 0x1 PUSH1 0x80 SHL SUB DUP5 LT PUSH2 0x37DA JUMPI PUSH1 0x0 DUP1 REVERT JUMPDEST POP POP JUMPDEST SWAP3 POP SWAP3 POP SWAP3 JUMP JUMPDEST PUSH1 0x0 DUP1 PUSH2 0xE8D PUSH1 0x11 PUSH2 0x1D6D JUMP JUMPDEST PUSH1 0x0 DUP3 PUSH2 0x3800 JUMPI POP PUSH1 0x0 PUSH2 0xE8D JUMP JUMPDEST DUP3 DUP3 MUL DUP3 DUP5 DUP3 DUP2 PUSH2 0x380D JUMPI INVALID JUMPDEST DIV EQ PUSH2 0x8CD JUMPI PUSH1 0x40 MLOAD PUSH3 0x461BCD PUSH1 0xE5 SHL DUP2 MSTORE PUSH1 0x4 ADD DUP1 DUP1 PUSH1 0x20 ADD DUP3 DUP2 SUB DUP3 MSTORE PUSH1 0x21 DUP2 MSTORE PUSH1 0x20 ADD DUP1 PUSH2 0x462C PUSH1 0x21 SWAP2 CODECOPY PUSH1 0x40 ADD SWAP2 POP POP PUSH1 0x40 MLOAD DUP1 SWAP2 SUB SWAP1 REVERT JUMPDEST PUSH1 0x0 DUP1 DUP3 GT PUSH2 0x38A0 JUMPI PUSH1 0x40 DUP1 MLOAD PUSH3 0x461BCD PUSH1 0xE5 SHL DUP2 MSTORE PUSH1 0x20 PUSH1 0x4 DUP3 ADD MSTORE PUSH1 0x1A PUSH1 0x24 DUP3 ADD MSTORE PUSH32 0x536166654D6174683A206469766973696F6E206279207A65726F000000000000 PUSH1 0x44 DUP3 ADD MSTORE SWAP1 MLOAD SWAP1 DUP2 SWAP1 SUB PUSH1 0x64 ADD SWAP1 REVERT JUMPDEST DUP2 DUP4 DUP2 PUSH2 0x38A9 JUMPI INVALID JUMPDEST DIV SWAP4 SWAP3 POP POP POP JUMP JUMPDEST PUSH1 0x0 DUP3 DUP3 ADD DUP4 DUP2 LT ISZERO PUSH2 0x8CD JUMPI PUSH1 0x40 DUP1 MLOAD PUSH3 0x461BCD PUSH1 0xE5 SHL DUP2 MSTORE PUSH1 0x20 PUSH1 0x4 DUP3 ADD MSTORE PUSH1 0x1B PUSH1 0x24 DUP3 ADD MSTORE PUSH32 0x536166654D6174683A206164646974696F6E206F766572666C6F770000000000 PUSH1 0x44 DUP3 ADD MSTORE SWAP1 MLOAD SWAP1 DUP2 SWAP1 SUB PUSH1 0x64 ADD SWAP1 REVERT JUMPDEST PUSH1 0x0 DUP1 PUSH2 0xE8D PUSH1 0x12 PUSH2 0x1D6D JUMP JUMPDEST PUSH1 0x0 DUP2 PUSH1 0x1 EQ ISZERO PUSH2 0x392D JUMPI POP PUSH3 0x76A700 PUSH2 0xB10 JUMP JUMPDEST DUP2 PUSH1 0x2 EQ ISZERO PUSH2 0x3940 JUMPI POP PUSH3 0xED4E00 PUSH2 0xB10 JUMP JUMPDEST DUP2 PUSH1 0x3 EQ ISZERO PUSH2 0x3954 JUMPI POP PUSH4 0x1DA9C00 PUSH2 0xB10 JUMP JUMPDEST DUP2 PUSH1 0x4 EQ ISZERO PUSH2 0x3968 JUMPI POP PUSH4 0x3B53800 PUSH2 0xB10 JUMP JUMPDEST DUP2 PUSH1 0x5 EQ ISZERO PUSH2 0x397C JUMPI POP PUSH4 0x9450C00 PUSH2 0xB10 JUMP JUMPDEST DUP2 PUSH1 0x6 EQ ISZERO PUSH2 0x3990 JUMPI POP PUSH4 0x128A1800 PUSH2 0xB10 JUMP JUMPDEST DUP2 PUSH1 0x7 EQ ISZERO PUSH2 0x39A4 JUMPI POP PUSH4 0x25143000 PUSH2 0xB10 JUMP JUMPDEST PUSH1 0x40 MLOAD PUSH3 0x461BCD PUSH1 0xE5 SHL DUP2 MSTORE PUSH1 0x4 ADD PUSH2 0x14F SWAP1 PUSH2 0x4414 JUMP JUMPDEST PUSH1 0x0 DUP1 PUSH1 0x0 DUP1 PUSH2 0x39CA PUSH2 0x37E4 JUMP JUMPDEST PUSH1 0x1 PUSH1 0x1 PUSH1 0xA0 SHL SUB SWAP6 SWAP1 SWAP6 AND PUSH1 0x0 SWAP1 DUP2 MSTORE PUSH1 0x20 SWAP6 SWAP1 SWAP6 MSTORE POP POP PUSH1 0x40 SWAP1 SWAP3 KECCAK256 SLOAD PUSH1 0x1 PUSH1 0x1 PUSH1 0x60 SHL SUB DUP2 AND SWAP4 PUSH1 0x1 PUSH1 0x60 SHL DUP3 DIV PUSH1 0x1 PUSH1 0x1 PUSH1 0x80 SHL SUB AND SWAP4 POP PUSH1 0x1 PUSH1 0xE0 SHL SWAP1 SWAP2 DIV PUSH4 0xFFFFFFFF AND SWAP2 POP JUMP JUMPDEST PUSH1 0x0 PUSH2 0x1297 DUP3 PUSH2 0x323A PUSH4 0x1DA9C00 DUP2 DUP9 PUSH2 0x3234 DUP10 PUSH8 0xDE0B6B3A7640000 PUSH2 0x37F1 JUMP JUMPDEST PUSH1 0x40 MLOAD DUP1 PUSH2 0x120 ADD PUSH1 0x40 MSTORE DUP1 PUSH1 0x0 PUSH2 0xFFFF AND DUP2 MSTORE PUSH1 0x20 ADD PUSH1 0x0 DUP2 MSTORE PUSH1 0x20 ADD PUSH1 0x0 DUP2 MSTORE PUSH1 0x20 ADD PUSH1 0x0 DUP2 MSTORE PUSH1 0x20 ADD PUSH1 0x0 DUP2 MSTORE PUSH1 0x20 ADD PUSH1 0x0 DUP2 MSTORE PUSH1 0x20 ADD PUSH1 0x0 DUP2 MSTORE PUSH1 0x20 ADD PUSH1 0x0 DUP2 MSTORE PUSH1 0x20 ADD PUSH1 0x0 DUP2 MSTORE POP SWAP1 JUMP JUMPDEST PUSH1 0x40 DUP1 MLOAD PUSH1 0xA0 DUP2 ADD DUP3 MSTORE PUSH1 0x0 DUP1 DUP3 MSTORE PUSH1 0x20 DUP3 ADD DUP2 SWAP1 MSTORE SWAP2 DUP2 ADD DUP3 SWAP1 MSTORE PUSH1 0x60 DUP2 ADD DUP3 SWAP1 MSTORE PUSH1 0x80 DUP2 ADD SWAP2 SWAP1 SWAP2 MSTORE SWAP1 JUMP JUMPDEST PUSH1 0x40 MLOAD DUP1 PUSH1 0x80 ADD PUSH1 0x40 MSTORE DUP1 PUSH1 0x60 DUP2 MSTORE PUSH1 0x20 ADD PUSH1 0x60 DUP2 MSTORE PUSH1 0x20 ADD PUSH1 0x0 DUP2 MSTORE PUSH1 0x20 ADD PUSH1 0x0 DUP2 MSTORE POP SWAP1 JUMP JUMPDEST PUSH1 0x40 MLOAD DUP1 PUSH1 0xC0 ADD PUSH1 0x40 MSTORE DUP1 PUSH1 0x0 DUP2 MSTORE PUSH1 0x20 ADD PUSH1 0x0 DUP2 MSTORE PUSH1 0x20 ADD PUSH1 0x0 DUP2 MSTORE PUSH1 0x20 ADD PUSH1 0x0 DUP2 MSTORE PUSH1 0x20 ADD PUSH1 0x0 DUP2 MSTORE PUSH1 0x20 ADD PUSH1 0x0 PUSH1 0x3 DUP2 GT ISZERO PUSH2 0x3B1B JUMPI INVALID JUMPDEST SWAP1 MSTORE SWAP1 JUMP JUMPDEST PUSH1 0x40 DUP1 MLOAD PUSH1 0xA0 DUP2 ADD DUP3 MSTORE PUSH1 0x0 DUP1 DUP3 MSTORE PUSH1 0x20 DUP3 ADD DUP2 SWAP1 MSTORE SWAP2 DUP2 ADD DUP3 SWAP1 MSTORE SWAP1 PUSH1 0x60 DUP3 ADD SWAP1 DUP2 MSTORE PUSH1 0x20 ADD PUSH1 0x0 DUP2 MSTORE POP SWAP1 JUMP JUMPDEST PUSH1 0x40 MLOAD DUP1 PUSH1 0x20 ADD PUSH1 0x40 MSTORE DUP1 PUSH1 0x1 SWAP1 PUSH1 0x20 DUP3 MUL DUP1 CALLDATASIZE DUP4 CALLDATACOPY POP SWAP2 SWAP3 SWAP2 POP POP JUMP JUMPDEST DUP1 CALLDATALOAD PUSH1 0x1 PUSH1 0x1 PUSH1 0xA0 SHL SUB DUP2 AND DUP2 EQ PUSH2 0xB10 JUMPI PUSH1 0x0 DUP1 REVERT JUMPDEST PUSH1 0x0 DUP1 DUP4 PUSH1 0x1F DUP5 ADD SLT PUSH2 0x3B95 JUMPI DUP1 DUP2 REVERT JUMPDEST POP DUP2 CALLDATALOAD PUSH8 0xFFFFFFFFFFFFFFFF DUP2 GT ISZERO PUSH2 0x3BAC JUMPI DUP2 DUP3 REVERT JUMPDEST PUSH1 0x20 DUP4 ADD SWAP2 POP DUP4 PUSH1 0x20 DUP1 DUP4 MUL DUP6 ADD ADD GT ISZERO PUSH2 0x3BC6 JUMPI PUSH1 0x0 DUP1 REVERT JUMPDEST SWAP3 POP SWAP3 SWAP1 POP JUMP JUMPDEST PUSH1 0x0 DUP3 PUSH1 0x1F DUP4 ADD SLT PUSH2 0x3BDD JUMPI DUP1 DUP2 REVERT JUMPDEST DUP2 MLOAD PUSH1 0x20 PUSH8 0xFFFFFFFFFFFFFFFF DUP1 DUP4 GT ISZERO PUSH2 0x3BF4 JUMPI INVALID JUMPDEST PUSH2 0x3C01 DUP3 DUP4 DUP6 MUL ADD PUSH2 0x45E6 JUMP JUMPDEST DUP4 DUP2 MSTORE DUP3 DUP2 ADD SWAP1 DUP7 DUP5 ADD PUSH1 0xC0 DUP1 DUP8 MUL DUP10 ADD DUP7 ADD DUP11 LT ISZERO PUSH2 0x3C1F JUMPI DUP8 DUP9 REVERT JUMPDEST DUP8 JUMPDEST DUP8 DUP2 LT ISZERO PUSH2 0x3CA0 JUMPI DUP2 DUP4 DUP13 SUB SLT ISZERO PUSH2 0x3C37 JUMPI DUP9 DUP10 REVERT JUMPDEST PUSH1 0x40 DUP1 MLOAD DUP4 DUP2 ADD DUP2 DUP2 LT DUP10 DUP3 GT OR ISZERO PUSH2 0x3C4C JUMPI INVALID JUMPDEST DUP3 MSTORE DUP5 MLOAD DUP2 MSTORE DUP9 DUP6 ADD MLOAD DUP10 DUP3 ADD MSTORE DUP5 DUP3 ADD MLOAD SWAP2 DUP2 ADD SWAP2 SWAP1 SWAP2 MSTORE PUSH1 0x60 DUP1 DUP6 ADD MLOAD SWAP1 DUP3 ADD MSTORE PUSH1 0x80 DUP1 DUP6 ADD MLOAD SWAP1 DUP3 ADD MSTORE PUSH1 0xA0 SWAP1 PUSH2 0x3C87 DUP3 DUP7 ADD PUSH2 0x3CC7 JUMP JUMPDEST SWAP2 DUP2 ADD SWAP2 SWAP1 SWAP2 MSTORE DUP6 MSTORE SWAP4 DUP7 ADD SWAP4 SWAP2 DUP2 ADD SWAP2 PUSH1 0x1 ADD PUSH2 0x3C21 JUMP JUMPDEST POP SWAP2 SWAP10 SWAP9 POP POP POP POP POP POP POP POP POP JUMP JUMPDEST DUP1 MLOAD PUSH1 0x1 PUSH1 0x1 PUSH1 0x70 SHL SUB NOT DUP2 AND DUP2 EQ PUSH2 0xB10 JUMPI PUSH1 0x0 DUP1 REVERT JUMPDEST DUP1 MLOAD PUSH1 0x4 DUP2 LT PUSH2 0xB10 JUMPI PUSH1 0x0 DUP1 REVERT JUMPDEST DUP1 MLOAD PUSH2 0xB10 DUP2 PUSH2 0x461B JUMP JUMPDEST DUP1 MLOAD PUSH1 0xFF DUP2 AND DUP2 EQ PUSH2 0xB10 JUMPI PUSH1 0x0 DUP1 REVERT JUMPDEST PUSH1 0x0 DUP1 PUSH1 0x0 PUSH1 0x40 DUP5 DUP7 SUB SLT ISZERO PUSH2 0x3D06 JUMPI DUP3 DUP4 REVERT JUMPDEST PUSH2 0x3D0F DUP5 PUSH2 0x3B6D JUMP JUMPDEST SWAP3 POP PUSH1 0x20 DUP5 ADD CALLDATALOAD PUSH8 0xFFFFFFFFFFFFFFFF DUP2 GT ISZERO PUSH2 0x3D2A JUMPI DUP3 DUP4 REVERT JUMPDEST PUSH2 0x3D36 DUP7 DUP3 DUP8 ADD PUSH2 0x3B84 JUMP JUMPDEST SWAP5 SWAP8 SWAP1 SWAP7 POP SWAP4 SWAP5 POP POP POP POP JUMP JUMPDEST PUSH1 0x0 DUP1 PUSH1 0x0 DUP1 PUSH1 0x0 PUSH1 0x60 DUP7 DUP9 SUB SLT ISZERO PUSH2 0x3D5A JUMPI DUP1 DUP2 REVERT JUMPDEST PUSH2 0x3D63 DUP7 PUSH2 0x3B6D JUMP JUMPDEST SWAP5 POP PUSH1 0x20 DUP7 ADD CALLDATALOAD PUSH8 0xFFFFFFFFFFFFFFFF DUP1 DUP3 GT ISZERO PUSH2 0x3D7F JUMPI DUP3 DUP4 REVERT JUMPDEST PUSH2 0x3D8B DUP10 DUP4 DUP11 ADD PUSH2 0x3B84 JUMP JUMPDEST SWAP1 SWAP7 POP SWAP5 POP PUSH1 0x40 DUP9 ADD CALLDATALOAD SWAP2 POP DUP1 DUP3 GT ISZERO PUSH2 0x3DA3 JUMPI DUP3 DUP4 REVERT JUMPDEST DUP2 DUP9 ADD SWAP2 POP DUP9 PUSH1 0x1F DUP4 ADD SLT PUSH2 0x3DB6 JUMPI DUP3 DUP4 REVERT JUMPDEST DUP2 CALLDATALOAD DUP2 DUP2 GT ISZERO PUSH2 0x3DC4 JUMPI DUP4 DUP5 REVERT JUMPDEST DUP10 PUSH1 0x20 DUP3 DUP6 ADD ADD GT ISZERO PUSH2 0x3DD5 JUMPI DUP4 DUP5 REVERT JUMPDEST SWAP7 SWAP10 SWAP6 SWAP9 POP SWAP4 SWAP7 POP PUSH1 0x20 ADD SWAP5 SWAP4 SWAP3 POP POP POP JUMP JUMPDEST PUSH1 0x0 DUP1 PUSH1 0x0 PUSH1 0x40 DUP5 DUP7 SUB SLT ISZERO PUSH2 0x3DFC JUMPI DUP3 DUP4 REVERT JUMPDEST PUSH2 0x3E05 DUP5 PUSH2 0x3B6D JUMP JUMPDEST SWAP3 POP PUSH1 0x20 DUP5 ADD CALLDATALOAD PUSH8 0xFFFFFFFFFFFFFFFF DUP1 DUP3 GT ISZERO PUSH2 0x3E21 JUMPI DUP4 DUP5 REVERT JUMPDEST DUP2 DUP7 ADD SWAP2 POP DUP7 PUSH1 0x1F DUP4 ADD SLT PUSH2 0x3E34 JUMPI DUP4 DUP5 REVERT JUMPDEST DUP2 CALLDATALOAD DUP2 DUP2 GT ISZERO PUSH2 0x3E42 JUMPI DUP5 DUP6 REVERT JUMPDEST DUP8 PUSH1 0x20 PUSH1 0xC0 DUP4 MUL DUP6 ADD ADD GT ISZERO PUSH2 0x3E56 JUMPI DUP5 DUP6 REVERT JUMPDEST PUSH1 0x20 DUP4 ADD SWAP5 POP DUP1 SWAP4 POP POP POP POP SWAP3 POP SWAP3 POP SWAP3 JUMP JUMPDEST PUSH1 0x0 PUSH1 0x20 DUP3 DUP5 SUB SLT ISZERO PUSH2 0x3E7A JUMPI DUP1 DUP2 REVERT JUMPDEST DUP2 CALLDATALOAD PUSH2 0x8CD DUP2 PUSH2 0x460A JUMP JUMPDEST PUSH1 0x0 PUSH1 0x20 DUP3 DUP5 SUB SLT ISZERO PUSH2 0x3E96 JUMPI DUP1 DUP2 REVERT JUMPDEST DUP2 CALLDATALOAD PUSH1 0x7 DUP2 LT PUSH2 0x8CD JUMPI DUP2 DUP3 REVERT JUMPDEST PUSH1 0x0 PUSH1 0x20 DUP3 DUP5 SUB SLT ISZERO PUSH2 0x3EB5 JUMPI DUP1 DUP2 REVERT JUMPDEST POP MLOAD SWAP2 SWAP1 POP JUMP JUMPDEST PUSH1 0x0 DUP1 PUSH1 0x40 DUP4 DUP6 SUB SLT ISZERO PUSH2 0x3ECE JUMPI DUP2 DUP3 REVERT JUMPDEST DUP3 MLOAD SWAP2 POP PUSH1 0x20 DUP4 ADD MLOAD PUSH2 0x3EE0 DUP2 PUSH2 0x460A JUMP JUMPDEST DUP1 SWAP2 POP POP SWAP3 POP SWAP3 SWAP1 POP JUMP JUMPDEST PUSH1 0x0 PUSH1 0xA0 DUP3 DUP5 SUB SLT ISZERO PUSH2 0x3EFC JUMPI DUP1 DUP2 REVERT JUMPDEST PUSH1 0x40 MLOAD PUSH1 0xA0 DUP2 ADD DUP2 DUP2 LT PUSH8 0xFFFFFFFFFFFFFFFF DUP3 GT OR ISZERO PUSH2 0x3F19 JUMPI INVALID JUMPDEST PUSH1 0x40 MSTORE DUP3 MLOAD PUSH5 0xFFFFFFFFFF DUP2 AND DUP2 EQ PUSH2 0x3F30 JUMPI DUP3 DUP4 REVERT JUMPDEST DUP2 MSTORE PUSH1 0x20 DUP4 ADD MLOAD PUSH1 0x1 PUSH1 0x1 PUSH1 0xF8 SHL SUB NOT DUP2 AND DUP2 EQ PUSH2 0x3F4C JUMPI DUP3 DUP4 REVERT JUMPDEST PUSH1 0x20 DUP3 ADD MSTORE PUSH2 0x3F5D PUSH1 0x40 DUP5 ADD PUSH2 0x3CE1 JUMP JUMPDEST PUSH1 0x40 DUP3 ADD MSTORE PUSH2 0x3F6E PUSH1 0x60 DUP5 ADD PUSH2 0x3CD6 JUMP JUMPDEST PUSH1 0x60 DUP3 ADD MSTORE PUSH2 0x3F7F PUSH1 0x80 DUP5 ADD PUSH2 0x3CAF JUMP JUMPDEST PUSH1 0x80 DUP3 ADD MSTORE SWAP4 SWAP3 POP POP POP JUMP JUMPDEST PUSH1 0x0 DUP1 PUSH1 0x40 DUP4 DUP6 SUB SLT ISZERO PUSH2 0x3F9D JUMPI DUP2 DUP3 REVERT JUMPDEST DUP3 MLOAD PUSH8 0xFFFFFFFFFFFFFFFF DUP1 DUP3 GT ISZERO PUSH2 0x3FB4 JUMPI DUP4 DUP5 REVERT JUMPDEST SWAP1 DUP5 ADD SWAP1 PUSH1 0x80 DUP3 DUP8 SUB SLT ISZERO PUSH2 0x3FC7 JUMPI DUP4 DUP5 REVERT JUMPDEST PUSH1 0x40 MLOAD PUSH1 0x80 DUP2 ADD DUP2 DUP2 LT DUP4 DUP3 GT OR ISZERO PUSH2 0x3FDC JUMPI INVALID JUMPDEST PUSH1 0x40 MSTORE DUP3 MLOAD DUP3 DUP2 GT ISZERO PUSH2 0x3FED JUMPI DUP6 DUP7 REVERT JUMPDEST PUSH2 0x3FF9 DUP9 DUP3 DUP7 ADD PUSH2 0x3BCD JUMP JUMPDEST DUP3 MSTORE POP PUSH1 0x20 DUP4 ADD MLOAD DUP3 DUP2 GT ISZERO PUSH2 0x400D JUMPI DUP6 DUP7 REVERT JUMPDEST PUSH2 0x4019 DUP9 DUP3 DUP7 ADD PUSH2 0x3BCD JUMP JUMPDEST PUSH1 0x20 DUP4 ADD MSTORE POP PUSH1 0x40 DUP4 ADD MLOAD PUSH1 0x40 DUP3 ADD MSTORE PUSH1 0x60 DUP4 ADD MLOAD PUSH1 0x60 DUP3 ADD MSTORE DUP1 SWAP5 POP POP POP POP PUSH1 0x20 DUP4 ADD MLOAD SWAP1 POP SWAP3 POP SWAP3 SWAP1 POP JUMP JUMPDEST PUSH1 0x0 PUSH1 0x20 DUP3 DUP5 SUB SLT ISZERO PUSH2 0x4058 JUMPI DUP1 DUP2 REVERT JUMPDEST DUP2 CALLDATALOAD PUSH2 0x8CD DUP2 PUSH2 0x461B JUMP JUMPDEST DUP2 DUP4 MSTORE PUSH1 0x0 PUSH1 0x1 PUSH1 0x1 PUSH1 0xFB SHL SUB DUP4 GT ISZERO PUSH2 0x407B JUMPI DUP1 DUP2 REVERT JUMPDEST PUSH1 0x20 DUP4 MUL DUP1 DUP4 PUSH1 0x20 DUP8 ADD CALLDATACOPY SWAP4 SWAP1 SWAP4 ADD PUSH1 0x20 ADD SWAP3 DUP4 MSTORE POP SWAP1 SWAP2 SWAP1 POP JUMP JUMPDEST PUSH1 0x0 DUP2 MLOAD DUP1 DUP5 MSTORE PUSH1 0x20 DUP1 DUP6 ADD SWAP5 POP DUP1 DUP5 ADD DUP4 JUMPDEST DUP4 DUP2 LT ISZERO PUSH2 0x4104 JUMPI DUP2 MLOAD DUP1 MLOAD DUP9 MSTORE DUP4 DUP2 ADD MLOAD DUP5 DUP10 ADD MSTORE PUSH1 0x40 DUP1 DUP3 ADD MLOAD SWAP1 DUP10 ADD MSTORE PUSH1 0x60 DUP1 DUP3 ADD MLOAD SWAP1 DUP10 ADD MSTORE PUSH1 0x80 DUP1 DUP3 ADD MLOAD SWAP1 DUP10 ADD MSTORE PUSH1 0xA0 SWAP1 DUP2 ADD MLOAD SWAP1 PUSH1 0x4 DUP3 LT PUSH2 0x40EF JUMPI INVALID JUMPDEST DUP9 ADD MSTORE PUSH1 0xC0 SWAP1 SWAP7 ADD SWAP6 SWAP1 DUP3 ADD SWAP1 PUSH1 0x1 ADD PUSH2 0x40AA JUMP JUMPDEST POP SWAP5 SWAP6 SWAP5 POP POP POP POP POP JUMP JUMPDEST PUSH1 0x1 PUSH1 0x1 PUSH1 0xA0 SHL SUB SWAP2 SWAP1 SWAP2 AND DUP2 MSTORE PUSH1 0x20 ADD SWAP1 JUMP JUMPDEST PUSH1 0x1 PUSH1 0x1 PUSH1 0xA0 SHL SUB DUP6 DUP2 AND DUP3 MSTORE DUP5 AND PUSH1 0x20 DUP3 ADD MSTORE PUSH1 0x60 PUSH1 0x40 DUP3 ADD DUP2 SWAP1 MSTORE DUP2 ADD DUP3 SWAP1 MSTORE PUSH1 0x0 DUP3 DUP5 PUSH1 0x80 DUP5 ADD CALLDATACOPY DUP2 DUP4 ADD PUSH1 0x80 SWAP1 DUP2 ADD SWAP2 SWAP1 SWAP2 MSTORE PUSH1 0x1F SWAP1 SWAP3 ADD PUSH1 0x1F NOT AND ADD ADD SWAP4 SWAP3 POP POP POP JUMP JUMPDEST PUSH1 0x1 PUSH1 0x1 PUSH1 0xA0 SHL SUB SWAP7 DUP8 AND DUP2 MSTORE SWAP5 DUP7 AND PUSH1 0x20 DUP7 ADD MSTORE SWAP3 DUP6 AND PUSH1 0x40 DUP6 ADD MSTORE SWAP1 DUP5 AND PUSH1 0x60 DUP5 ADD MSTORE DUP4 AND PUSH1 0x80 DUP4 ADD MSTORE SWAP1 SWAP2 AND PUSH1 0xA0 DUP3 ADD MSTORE PUSH1 0xC0 ADD SWAP1 JUMP JUMPDEST PUSH1 0x1 PUSH1 0x1 PUSH1 0xA0 SHL SUB SWAP3 SWAP1 SWAP3 AND DUP3 MSTORE DUP1 MLOAD PUSH5 0xFFFFFFFFFF AND PUSH1 0x20 DUP1 DUP5 ADD SWAP2 SWAP1 SWAP2 MSTORE DUP2 ADD MLOAD PUSH1 0x1 PUSH1 0x1 PUSH1 0xF8 SHL SUB NOT AND PUSH1 0x40 DUP1 DUP5 ADD SWAP2 SWAP1 SWAP2 MSTORE DUP2 ADD MLOAD PUSH1 0xFF AND PUSH1 0x60 DUP1 DUP5 ADD SWAP2 SWAP1 SWAP2 MSTORE DUP2 ADD MLOAD PUSH2 0xFFFF AND PUSH1 0x80 DUP1 DUP5 ADD SWAP2 SWAP1 SWAP2 MSTORE ADD MLOAD PUSH1 0x1 PUSH1 0x1 PUSH1 0x70 SHL SUB NOT AND PUSH1 0xA0 DUP3 ADD MSTORE PUSH1 0xC0 ADD SWAP1 JUMP JUMPDEST PUSH1 0x0 PUSH1 0x1 DUP1 PUSH1 0xA0 SHL SUB DUP8 AND DUP3 MSTORE PUSH2 0xFFFF DUP7 AND PUSH1 0x20 DUP4 ADD MSTORE PUSH1 0x80 PUSH1 0x40 DUP4 ADD MSTORE DUP5 MLOAD PUSH1 0x80 DUP1 DUP5 ADD MSTORE PUSH2 0x4246 PUSH2 0x100 DUP5 ADD DUP3 PUSH2 0x4097 JUMP JUMPDEST SWAP1 POP PUSH1 0x20 DUP7 ADD MLOAD PUSH1 0x7F NOT DUP5 DUP4 SUB ADD PUSH1 0xA0 DUP6 ADD MSTORE PUSH2 0x4263 DUP3 DUP3 PUSH2 0x4097 JUMP JUMPDEST SWAP2 POP POP PUSH1 0x40 DUP7 ADD MLOAD PUSH1 0xC0 DUP5 ADD MSTORE PUSH1 0x60 DUP7 ADD MLOAD PUSH1 0xE0 DUP5 ADD MSTORE DUP3 DUP2 SUB PUSH1 0x60 DUP5 ADD MSTORE PUSH2 0x428D DUP2 DUP6 DUP8 PUSH2 0x4063 JUMP JUMPDEST SWAP9 SWAP8 POP POP POP POP POP POP POP POP JUMP JUMPDEST PUSH1 0x1 PUSH1 0x1 PUSH1 0xA0 SHL SUB SWAP7 SWAP1 SWAP7 AND DUP7 MSTORE PUSH2 0xFFFF SWAP5 SWAP1 SWAP5 AND PUSH1 0x20 DUP7 ADD MSTORE PUSH1 0x40 DUP6 ADD SWAP3 SWAP1 SWAP3 MSTORE PUSH1 0x60 DUP5 ADD MSTORE PUSH1 0x80 DUP4 ADD MSTORE PUSH1 0xA0 DUP3 ADD MSTORE PUSH1 0xC0 ADD SWAP1 JUMP JUMPDEST PUSH1 0x1 PUSH1 0x1 PUSH1 0xA0 SHL SUB DUP7 AND DUP2 MSTORE PUSH2 0xFFFF DUP6 AND PUSH1 0x20 DUP3 ADD MSTORE PUSH5 0xFFFFFFFFFF DUP5 AND PUSH1 0x40 DUP3 ADD MSTORE PUSH1 0x80 PUSH1 0x60 DUP3 ADD DUP2 SWAP1 MSTORE PUSH1 0x0 SWAP1 PUSH2 0x203F SWAP1 DUP4 ADD DUP5 DUP7 PUSH2 0x4063 JUMP JUMPDEST PUSH1 0x1 PUSH1 0x1 PUSH1 0xA0 SHL SUB SWAP4 DUP5 AND DUP2 MSTORE PUSH1 0x20 DUP2 ADD SWAP3 SWAP1 SWAP3 MSTORE SWAP1 SWAP2 AND PUSH1 0x40 DUP3 ADD MSTORE PUSH1 0x60 ADD SWAP1 JUMP JUMPDEST PUSH1 0x1 PUSH1 0x1 PUSH1 0xA0 SHL SUB SWAP5 DUP6 AND DUP2 MSTORE PUSH1 0x20 DUP2 ADD SWAP4 SWAP1 SWAP4 MSTORE SWAP3 AND PUSH1 0x40 DUP3 ADD MSTORE PUSH2 0xFFFF SWAP1 SWAP2 AND PUSH1 0x60 DUP3 ADD MSTORE PUSH1 0x80 ADD SWAP1 JUMP JUMPDEST PUSH1 0x1 PUSH1 0x1 PUSH1 0xA0 SHL SUB SWAP5 SWAP1 SWAP5 AND DUP5 MSTORE PUSH1 0x20 DUP5 ADD SWAP3 SWAP1 SWAP3 MSTORE PUSH1 0x40 DUP4 ADD MSTORE PUSH1 0x60 DUP3 ADD MSTORE PUSH1 0x80 ADD SWAP1 JUMP JUMPDEST SWAP1 DUP2 MSTORE PUSH1 0x20 ADD SWAP1 JUMP JUMPDEST PUSH1 0x20 DUP1 DUP3 MSTORE PUSH1 0xC SWAP1 DUP3 ADD MSTORE PUSH12 0x155B985D5D1A1BDC9A5E9959 PUSH1 0xA2 SHL PUSH1 0x40 DUP3 ADD MSTORE PUSH1 0x60 ADD SWAP1 JUMP JUMPDEST PUSH1 0x20 DUP1 DUP3 MSTORE PUSH1 0x4 SWAP1 DUP3 ADD MSTORE PUSH4 0x135A5B9D PUSH1 0xE2 SHL PUSH1 0x40 DUP3 ADD MSTORE PUSH1 0x60 ADD SWAP1 JUMP JUMPDEST PUSH1 0x20 DUP1 DUP3 MSTORE PUSH1 0xB SWAP1 DUP3 ADD MSTORE PUSH11 0x4554482042616C616E6365 PUSH1 0xA8 SHL PUSH1 0x40 DUP3 ADD MSTORE PUSH1 0x60 ADD SWAP1 JUMP JUMPDEST PUSH1 0x20 DUP1 DUP3 MSTORE PUSH1 0x6 SWAP1 DUP3 ADD MSTORE PUSH6 0x52656465656D PUSH1 0xD0 SHL PUSH1 0x40 DUP3 ADD MSTORE PUSH1 0x60 ADD SWAP1 JUMP JUMPDEST PUSH1 0x20 DUP1 DUP3 MSTORE PUSH1 0xD SWAP1 DUP3 ADD MSTORE PUSH13 0x92DCECC2D8D2C840D2DCC8CAF PUSH1 0x9B SHL PUSH1 0x40 DUP3 ADD MSTORE PUSH1 0x60 ADD SWAP1 JUMP JUMPDEST PUSH1 0x20 DUP1 DUP3 MSTORE PUSH1 0x10 SWAP1 DUP3 ADD MSTORE PUSH16 0x556E736F7274656420616374696F6E73 PUSH1 0x80 SHL PUSH1 0x40 DUP3 ADD MSTORE PUSH1 0x60 ADD SWAP1 JUMP JUMPDEST PUSH1 0x20 DUP1 DUP3 MSTORE PUSH1 0x1A SWAP1 DUP3 ADD MSTORE PUSH32 0x496E73756666696369656E7420746F6B656E2062616C616E6365000000000000 PUSH1 0x40 DUP3 ADD MSTORE PUSH1 0x60 ADD SWAP1 JUMP JUMPDEST PUSH1 0x20 DUP1 DUP3 MSTORE PUSH1 0xE SWAP1 DUP3 ADD MSTORE PUSH14 0x1499595B9D1C985B9D0818D85B1B PUSH1 0x92 SHL PUSH1 0x40 DUP3 ADD MSTORE PUSH1 0x60 ADD SWAP1 JUMP JUMPDEST PUSH1 0x20 DUP1 DUP3 MSTORE PUSH1 0x8 SWAP1 DUP3 ADD MSTORE PUSH8 0x9CCACE4086C2E6D PUSH1 0xC3 SHL PUSH1 0x40 DUP3 ADD MSTORE PUSH1 0x60 ADD SWAP1 JUMP JUMPDEST PUSH1 0x20 DUP1 DUP3 MSTORE PUSH1 0x1A SWAP1 DUP3 ADD MSTORE PUSH32 0x496E76616C69642074726164657320666F72206163636F756E74000000000000 PUSH1 0x40 DUP3 ADD MSTORE PUSH1 0x60 ADD SWAP1 JUMP JUMPDEST PUSH1 0x20 DUP1 DUP3 MSTORE PUSH1 0xA SWAP1 DUP3 ADD MSTORE PUSH10 0x2732B390372A37B5B2B7 PUSH1 0xB1 SHL PUSH1 0x40 DUP3 ADD MSTORE PUSH1 0x60 ADD SWAP1 JUMP JUMPDEST PUSH1 0x20 DUP1 DUP3 MSTORE PUSH1 0x11 SWAP1 DUP3 ADD MSTORE PUSH17 0x92DCE6EACCCCD2C6D2CADCE840C6C2E6D PUSH1 0x7B SHL PUSH1 0x40 DUP3 ADD MSTORE PUSH1 0x60 ADD SWAP1 JUMP JUMPDEST PUSH2 0xFFFF SWAP3 SWAP1 SWAP3 AND DUP3 MSTORE PUSH1 0x20 DUP3 ADD MSTORE PUSH1 0x40 ADD SWAP1 JUMP JUMPDEST PUSH1 0x0 DUP1 DUP4 CALLDATALOAD PUSH1 0x1E NOT DUP5 CALLDATASIZE SUB ADD DUP2 SLT PUSH2 0x4596 JUMPI DUP3 DUP4 REVERT JUMPDEST DUP4 ADD DUP1 CALLDATALOAD SWAP2 POP PUSH8 0xFFFFFFFFFFFFFFFF DUP3 GT ISZERO PUSH2 0x45B0 JUMPI DUP3 DUP4 REVERT JUMPDEST PUSH1 0x20 SWAP1 DUP2 ADD SWAP3 POP DUP2 MUL CALLDATASIZE SUB DUP3 SGT ISZERO PUSH2 0x3BC6 JUMPI PUSH1 0x0 DUP1 REVERT JUMPDEST PUSH1 0x0 DUP3 CALLDATALOAD PUSH1 0xDE NOT DUP4 CALLDATASIZE SUB ADD DUP2 SLT PUSH2 0x45DC JUMPI DUP2 DUP3 REVERT JUMPDEST SWAP2 SWAP1 SWAP2 ADD SWAP3 SWAP2 POP POP JUMP JUMPDEST PUSH1 0x40 MLOAD DUP2 DUP2 ADD PUSH8 0xFFFFFFFFFFFFFFFF DUP2 GT DUP3 DUP3 LT OR ISZERO PUSH2 0x4602 JUMPI INVALID JUMPDEST PUSH1 0x40 MSTORE SWAP2 SWAP1 POP JUMP JUMPDEST DUP1 ISZERO ISZERO DUP2 EQ PUSH2 0x4618 JUMPI PUSH1 0x0 DUP1 REVERT JUMPDEST POP JUMP JUMPDEST PUSH2 0xFFFF DUP2 AND DUP2 EQ PUSH2 0x4618 JUMPI PUSH1 0x0 DUP1 REVERT INVALID MSTORE8 PUSH2 0x6665 0x4D PUSH2 0x7468 GASPRICE KECCAK256 PUSH14 0x756C7469706C69636174696F6E20 PUSH16 0x766572666C6F77A26469706673582212 KECCAK256 0xD8 0xC 0x4B MOD 0xE2 0xC8 SAR 0xD9 DUP3 SWAP15 0x4A KECCAK256 REVERT 0xD9 PUSH25 0xF6F851D113317F9E0B83C05241DA5B476D64736F6C63430007 MOD STOP CALLER ","sha1":"f99ecfdbe1832cb24604c4cb4e2e07960b7d26a5","source":"// SPDX-License-Identifier: GPL-3.0-only\npragma solidity ^0.7.0;\npragma abicoder v2;\n\nimport \"./TradingAction.sol\";\nimport \"./ActionGuards.sol\";\nimport \"./nTokenMintAction.sol\";\nimport \"./nTokenRedeemAction.sol\";\nimport \"../SettleAssetsExternal.sol\";\nimport \"../FreeCollateralExternal.sol\";\nimport \"../../math/SafeInt256.sol\";\nimport \"../../global/StorageLayoutV1.sol\";\nimport \"../../internal/balances/BalanceHandler.sol\";\nimport \"../../internal/portfolio/PortfolioHandler.sol\";\nimport \"../../internal/AccountContextHandler.sol\";\nimport \"../../../interfaces/notional/NotionalCallback.sol\";\n\ncontract BatchAction is StorageLayoutV1, ActionGuards {\n    using BalanceHandler for BalanceState;\n    using PortfolioHandler for PortfolioState;\n    using AccountContextHandler for AccountContext;\n    using SafeInt256 for int256;\n\n    /// @notice Executes a batch of balance transfers including minting and redeeming nTokens.\n    /// @param account the account for the action\n    /// @param actions array of balance actions to take, must be sorted by currency id\n    /// @dev emit:CashBalanceChange, emit:nTokenSupplyChange\n    /// @dev auth:msg.sender auth:ERC1155\n    function batchBalanceAction(address account, BalanceAction[] calldata actions)\n        external\n        payable\n        nonReentrant\n    {\n        require(account == msg.sender || msg.sender == address(this), \"Unauthorized\");\n        requireValidAccount(account);\n\n        // Return any settle amounts here to reduce the number of storage writes to balances\n        AccountContext memory accountContext = _settleAccountIfRequired(account);\n        BalanceState memory balanceState;\n\n        for (uint256 i = 0; i < actions.length; i++) {\n            BalanceAction calldata action = actions[i];\n            // msg.value will only be used when currency id == 1, referencing ETH. The requirement\n            // to sort actions by increasing id enforces that msg.value will only be used once.\n            if (i > 0) {\n                require(action.currencyId > actions[i - 1].currencyId, \"Unsorted actions\");\n            }\n            // Loads the currencyId into balance state\n            balanceState.loadBalanceState(account, action.currencyId, accountContext);\n\n            _executeDepositAction(\n                account,\n                balanceState,\n                action.actionType,\n                action.depositActionAmount\n            );\n\n            _calculateWithdrawActionAndFinalize(\n                account,\n                accountContext,\n                balanceState,\n                action.withdrawAmountInternalPrecision,\n                action.withdrawEntireCashBalance,\n                action.redeemToUnderlying\n            );\n        }\n\n        _finalizeAccountContext(account, accountContext);\n    }\n\n    /// @notice Executes a batch of balance transfers and trading actions\n    /// @param account the account for the action\n    /// @param actions array of balance actions with trades to take, must be sorted by currency id\n    /// @dev emit:CashBalanceChange, emit:nTokenSupplyChange, emit:LendBorrowTrade, emit:AddRemoveLiquidity,\n    /// @dev emit:SettledCashDebt, emit:nTokenResidualPurchase, emit:ReserveFeeAccrued\n    /// @dev auth:msg.sender auth:ERC1155\n    function batchBalanceAndTradeAction(address account, BalanceActionWithTrades[] calldata actions)\n        external\n        payable\n        nonReentrant\n    {\n        require(account == msg.sender || msg.sender == address(this), \"Unauthorized\");\n        requireValidAccount(account);\n        AccountContext memory accountContext = _batchBalanceAndTradeAction(account, actions);\n        _finalizeAccountContext(account, accountContext);\n    }\n\n    /// @notice Executes a batch of balance transfers and trading actions via an authorized callback contract. This\n    /// can be used as a \"flash loan\" facility for special contracts that migrate assets between protocols or perform\n    /// other actions on behalf of the user.\n    /// Contracts can borrow from Notional and receive a callback prior to an FC check, this can be useful if the contract\n    /// needs to perform a trade or repay a debt on a different protocol before depositing collateral. Since Notional's AMM\n    /// will never be as capital efficient or gas efficient as other flash loan facilities, this method requires whitelisting\n    /// and will mainly be used for contracts that make migrating assets a better user experience.\n    /// @param account the account that will take all the actions\n    /// @param actions array of balance actions with trades to take, must be sorted by currency id\n    /// @param callbackData arbitrary bytes to be passed backed to the caller in the callback\n    /// @dev emit:CashBalanceChange, emit:nTokenSupplyChange, emit:LendBorrowTrade, emit:AddRemoveLiquidity,\n    /// @dev emit:SettledCashDebt, emit:nTokenResidualPurchase, emit:ReserveFeeAccrued\n    /// @dev auth:authorizedCallbackContract\n    function batchBalanceAndTradeActionWithCallback(\n        address account,\n        BalanceActionWithTrades[] calldata actions,\n        bytes calldata callbackData\n    ) external payable {\n        // NOTE: Re-entrancy is allowed for authorized callback functions.\n        require(authorizedCallbackContract[msg.sender], \"Unauthorized\");\n        requireValidAccount(account);\n\n        AccountContext memory accountContext = _batchBalanceAndTradeAction(account, actions);\n        accountContext.setAccountContext(account);\n\n        // Be sure to set the account context before initiating the callback, all stateful updates\n        // have been finalized at this point so we are safe to issue a callback. This callback may\n        // re-enter Notional safely to deposit or take other actions.\n        NotionalCallback(msg.sender).notionalCallback(msg.sender, account, callbackData);\n\n        if (accountContext.hasDebt != 0x00) {\n            // NOTE: this method may update the account context to turn off the hasDebt flag, this\n            // is ok because the worst case would be causing an extra free collateral check when it\n            // is not required. This check will be entered if the account hasDebt prior to the callback\n            // being triggered above, so it will happen regardless of what the callback function does.\n            FreeCollateralExternal.checkFreeCollateralAndRevert(account);\n        }\n    }\n\n    function _batchBalanceAndTradeAction(\n        address account,\n        BalanceActionWithTrades[] calldata actions\n    ) internal returns (AccountContext memory) {\n        AccountContext memory accountContext = _settleAccountIfRequired(account);\n        BalanceState memory balanceState;\n        // NOTE: loading the portfolio state must happen after settle account to get the\n        // correct portfolio, it will have changed if the account is settled.\n        PortfolioState memory portfolioState = PortfolioHandler.buildPortfolioState(\n            account,\n            accountContext.assetArrayLength,\n            0\n        );\n\n        for (uint256 i = 0; i < actions.length; i++) {\n            BalanceActionWithTrades calldata action = actions[i];\n            // msg.value will only be used when currency id == 1, referencing ETH. The requirement\n            // to sort actions by increasing id enforces that msg.value will only be used once.\n            if (i > 0) {\n                require(action.currencyId > actions[i - 1].currencyId, \"Unsorted actions\");\n            }\n            // Loads the currencyId into balance state\n            balanceState.loadBalanceState(account, action.currencyId, accountContext);\n\n            // Does not revert on invalid action types here, they also have no effect.\n            _executeDepositAction(\n                account,\n                balanceState,\n                action.actionType,\n                action.depositActionAmount\n            );\n\n            if (action.trades.length > 0) {\n                int256 netCash;\n                if (accountContext.isBitmapEnabled()) {\n                    require(\n                        accountContext.bitmapCurrencyId == action.currencyId,\n                        \"Invalid trades for account\"\n                    );\n                    bool didIncurDebt;\n                    (netCash, didIncurDebt) = TradingAction.executeTradesBitmapBatch(\n                        account,\n                        accountContext.bitmapCurrencyId,\n                        accountContext.nextSettleTime,\n                        action.trades\n                    );\n                    if (didIncurDebt) {\n                        accountContext.hasDebt = Constants.HAS_ASSET_DEBT | accountContext.hasDebt;\n                    }\n                } else {\n                    // NOTE: we return portfolio state here instead of setting it inside executeTradesArrayBatch\n                    // because we want to only write to storage once after all trades are completed\n                    (portfolioState, netCash) = TradingAction.executeTradesArrayBatch(\n                        account,\n                        action.currencyId,\n                        portfolioState,\n                        action.trades\n                    );\n                }\n\n                // If the account owes cash after trading, ensure that it has enough\n                if (netCash < 0) _checkSufficientCash(balanceState, netCash.neg());\n                balanceState.netCashChange = balanceState.netCashChange.add(netCash);\n            }\n\n            _calculateWithdrawActionAndFinalize(\n                account,\n                accountContext,\n                balanceState,\n                action.withdrawAmountInternalPrecision,\n                action.withdrawEntireCashBalance,\n                action.redeemToUnderlying\n            );\n        }\n\n        // Update the portfolio state if bitmap is not enabled. If bitmap is already enabled\n        // then all the assets have already been updated in in storage.\n        if (!accountContext.isBitmapEnabled()) {\n            // NOTE: account context is updated in memory inside this method call.\n            accountContext.storeAssetsAndUpdateContext(account, portfolioState, false);\n        }\n\n        // NOTE: free collateral and account context will be set outside of this method call.\n        return accountContext;\n    }\n\n    /// @dev Executes deposits\n    function _executeDepositAction(\n        address account,\n        BalanceState memory balanceState,\n        DepositActionType depositType,\n        uint256 depositActionAmount_\n    ) private {\n        int256 depositActionAmount = SafeInt256.toInt(depositActionAmount_);\n        int256 assetInternalAmount;\n        require(depositActionAmount >= 0);\n\n        if (depositType == DepositActionType.None) {\n            return;\n        } else if (\n            depositType == DepositActionType.DepositAsset ||\n            depositType == DepositActionType.DepositAssetAndMintNToken\n        ) {\n            // NOTE: this deposit will NOT revert on a failed transfer unless there is a\n            // transfer fee. The actual transfer will take effect later in balanceState.finalize\n            assetInternalAmount = balanceState.depositAssetToken(\n                account,\n                depositActionAmount,\n                false // no force transfer\n            );\n        } else if (\n            depositType == DepositActionType.DepositUnderlying ||\n            depositType == DepositActionType.DepositUnderlyingAndMintNToken\n        ) {\n            // NOTE: this deposit will revert on a failed transfer immediately\n            assetInternalAmount = balanceState.depositUnderlyingToken(account, depositActionAmount);\n        } else if (depositType == DepositActionType.ConvertCashToNToken) {\n            // _executeNTokenAction will check if the account has sufficient cash\n            assetInternalAmount = depositActionAmount;\n        }\n\n        _executeNTokenAction(\n            balanceState,\n            depositType,\n            depositActionAmount,\n            assetInternalAmount\n        );\n    }\n\n    /// @dev Executes nToken actions\n    function _executeNTokenAction(\n        BalanceState memory balanceState,\n        DepositActionType depositType,\n        int256 depositActionAmount,\n        int256 assetInternalAmount\n    ) private {\n        // After deposits have occurred, check if we are minting nTokens\n        if (\n            depositType == DepositActionType.DepositAssetAndMintNToken ||\n            depositType == DepositActionType.DepositUnderlyingAndMintNToken ||\n            depositType == DepositActionType.ConvertCashToNToken\n        ) {\n            // Will revert if trying to mint ntokens and results in a negative cash balance\n            _checkSufficientCash(balanceState, assetInternalAmount);\n            balanceState.netCashChange = balanceState.netCashChange.sub(assetInternalAmount);\n\n            // Converts a given amount of cash (denominated in internal precision) into nTokens\n            int256 tokensMinted = nTokenMintAction.nTokenMint(\n                balanceState.currencyId,\n                assetInternalAmount\n            );\n\n            balanceState.netNTokenSupplyChange = balanceState.netNTokenSupplyChange.add(\n                tokensMinted\n            );\n        } else if (depositType == DepositActionType.RedeemNToken) {\n            require(\n                // prettier-ignore\n                balanceState\n                    .storedNTokenBalance\n                    .add(balanceState.netNTokenTransfer) // transfers would not occur at this point\n                    .add(balanceState.netNTokenSupplyChange) >= depositActionAmount,\n                \"Insufficient token balance\"\n            );\n\n            balanceState.netNTokenSupplyChange = balanceState.netNTokenSupplyChange.sub(\n                depositActionAmount\n            );\n\n            int256 assetCash = nTokenRedeemAction.nTokenRedeemViaBatch(\n                balanceState.currencyId,\n                depositActionAmount\n            );\n\n            balanceState.netCashChange = balanceState.netCashChange.add(assetCash);\n        }\n    }\n\n    /// @dev Calculations any withdraws and finalizes balances\n    function _calculateWithdrawActionAndFinalize(\n        address account,\n        AccountContext memory accountContext,\n        BalanceState memory balanceState,\n        uint256 withdrawAmountInternalPrecision,\n        bool withdrawEntireCashBalance,\n        bool redeemToUnderlying\n    ) private {\n        int256 withdrawAmount = SafeInt256.toInt(withdrawAmountInternalPrecision);\n        require(withdrawAmount >= 0); // dev: withdraw action overflow\n\n        // NOTE: if withdrawEntireCashBalance is set it will override the withdrawAmountInternalPrecision input\n        if (withdrawEntireCashBalance) {\n            // This option is here so that accounts do not end up with dust after lending since we generally\n            // cannot calculate exact cash amounts from the liquidity curve.\n            withdrawAmount = balanceState.storedCashBalance\n                .add(balanceState.netCashChange)\n                .add(balanceState.netAssetTransferInternalPrecision);\n\n            // If the account has a negative cash balance then cannot withdraw\n            if (withdrawAmount < 0) withdrawAmount = 0;\n        }\n\n        // prettier-ignore\n        balanceState.netAssetTransferInternalPrecision = balanceState\n            .netAssetTransferInternalPrecision\n            .sub(withdrawAmount);\n\n        balanceState.finalize(account, accountContext, redeemToUnderlying);\n    }\n\n    function _finalizeAccountContext(address account, AccountContext memory accountContext)\n        private\n    {\n        // At this point all balances, market states and portfolio states should be finalized. Just need to check free\n        // collateral if required.\n        accountContext.setAccountContext(account);\n        if (accountContext.hasDebt != 0x00) {\n            FreeCollateralExternal.checkFreeCollateralAndRevert(account);\n        }\n    }\n\n    /// @notice When lending, adding liquidity or minting nTokens the account must have a sufficient cash balance\n    /// to do so.\n    function _checkSufficientCash(BalanceState memory balanceState, int256 amountInternalPrecision)\n        private\n        pure\n    {\n        // The total cash position at this point is: storedCashBalance + netCashChange + netAssetTransferInternalPrecision\n        require(\n            amountInternalPrecision >= 0 &&\n                balanceState.storedCashBalance\n                .add(balanceState.netCashChange)\n                .add(balanceState.netAssetTransferInternalPrecision) >= amountInternalPrecision,\n            \"Insufficient cash\"\n        );\n    }\n\n    function _settleAccountIfRequired(address account)\n        private\n        returns (AccountContext memory)\n    {\n        AccountContext memory accountContext = AccountContextHandler.getAccountContext(account);\n        if (accountContext.mustSettleAssets()) {\n            // Returns a new memory reference to account context\n            return SettleAssetsExternal.settleAccount(account, accountContext);\n        } else {\n            return accountContext;\n        }\n    }\n\n    /// @notice Get a list of deployed library addresses (sorted by library name)\n    function getLibInfo() external view returns (address, address, address, address, address, address) {\n        return (\n            address(FreeCollateralExternal), \n            address(MigrateIncentives), \n            address(SettleAssetsExternal), \n            address(TradingAction),\n            address(nTokenMintAction), \n            address(nTokenRedeemAction)\n        );\n    }\n}\n","sourcePath":"contracts/external/actions/BatchAction.sol","deployment":{"address":"0xcEa3Ab9B02D9541760eC8b56fE76bEceE1FaeD91","chainid":"42","blockHeight":30483996}}