{"bytecode":"608060405234801561001057600080fd5b5061416a806100206000396000f3fe608060405234801561001057600080fd5b50600436106100935760003560e01c80638355e895116100665780638355e895146100ff5780638da5cb5b1461011257806397d6db2e1461011a578063c4c96dae1461012d578063c52c43e11461013557610093565b8063094614df1461009857806324a3d622146100c25780636a09a2a3146100d757806382463367146100f7575b600080fd5b6100ab6100a6366004613e25565b610148565b6040516100b9929190613f4c565b60405180910390f35b6100ca6101ea565b6040516100b99190613f09565b6100ea6100e5366004613ec4565b6101f9565b6040516100b99190613f43565b6100ca610267565b6100ea61010d366004613e25565b610276565b6100ca610324565b6100ea610128366004613dd7565b61033b565b6100ca610473565b6100ea610143366004613e6d565b61048b565b600080610154866104de565b600061015f8761051b565b9050610169613bc9565b610177828288600089610547565b848160200151116101a35760405162461bcd60e51b815260040161019a9061408d565b60405180910390fd5b602081015185900360006101be8385600a8c900b858c6105c2565b509050806101d98286604001516106c690919063ffffffff16565b955095505050505094509492505050565b6002546001600160a01b031681565b6000610204836104de565b60006102138461ffff166106f7565b9050600061022e826affffffffffffffffffffff861661070a565b9050610238613c11565b6102428187610741565b600061024f82844261075a565b905061025a81610800565b9450505050505b92915050565b6001546001600160a01b031681565b6000610281856104de565b600061028c8661051b565b9050610296613bc9565b6102a4828287600088610547565b838160200151116102c75760405162461bcd60e51b815260040161019a9061408d565b6020810151849003600080806102df8587868c61085b565b92509250925060006102f96102f3886108fd565b86610912565b905061031286604001518c600a0b858786866000610983565b9750505050505050505b949350505050565b60005464010000000090046001600160a01b031681565b60008061034784610a38565b9050610351613c5a565b600061035c83610adf565b156103d2576060830151610374908390889086610aec565b6000826040015113156103d2576000610394836000015161ffff16610b92565b905060006103a28288610bb8565b5091505060006103c08584846103bb8960400151610c4e565b610c5d565b90506103cc8482610d84565b93505050505b60808301515b6001600160701b03198116156104695760f081901c613fff166103fd84898388610aec565b60008460400151131561045657600061041d856000015161ffff16610b92565b9050600061042b828a610bb8565b5091505060006104448784846103bb8b60400151610c4e565b90506104508682610d84565b95505050505b5060101b6001600160801b0319166103d8565b5095945050505050565b73__MigrateIncentives_____________________90565b6000806104978761051b565b905082156104bd576104b6818688876104b1848383610dde565b610ece565b9150610469565b6104d38587866104ce858383610dde565b610f6e565b979650505050505050565b8061ffff1660001080156104fc575060005461ffff90811690821611155b6105185760405162461bcd60e51b815260040161019a906140b9565b50565b610523613caa565b60006105328361ffff16610fb4565b905061053e8382611000565b9150505b919050565b8260011115801561055c575084602001518311155b6105785760405162461bcd60e51b815260040161019a90614065565b600061059561058685611043565b61058f846110e7565b90610d84565b90506105ba866000015161ffff168284866105af8b611108565b8a949392919061111c565b505050505050565b600080848760400151136105db575060009050806106bc565b60008060006105ec8a8a898961085b565b9250925092506000806106068c604001518587868e611146565b909250905080610621576000809650965050505050506106bc565b5060008060006106338d858e8e6111f2565b92509250925082600014156106555760008098509850505050505050506106bc565b60408e0151610664908d6112dd565b60408f018190526106819061067988856112f9565b89888f61130f565b60a08f0181905261069f5760008098509850505050505050506106bc565b6106b08e8e604001518585856113cc565b98509850505050505050505b9550959350505050565b60008061031c84604001516106f16402540be4006106f187896020015161142190919063ffffffff16565b9061146f565b6106ff613cd6565b6102618260006114a0565b60006305f5e10083604001511415610723575080610261565b604083015161073a906106f1846305f5e100611421565b9392505050565b61074b828261154e565b6107548161051b565b90915250565b60008083121561076957600080fd5b826107765750600061073a565b6080840151156107ae57600061078b856115f1565b90508281116107ac5760405162461bcd60e51b815260040161019a90613f8a565b505b60006107ba8584611622565b905060008112156107ca57600080fd5b60408501516107dc578391505061073a565b6107f7816106f187604001518761142190919063ffffffff16565b95945050505050565b600080821215610857576040805162461bcd60e51b815260206004820181905260248201527f53616665436173743a2076616c7565206d75737420626520706f736974697665604482015290519081900360640190fd5b5090565b600080808061086b8786886116d3565b9050600061088a896060015189604001516106c690919063ffffffff16565b905088604001516000148061089d575080155b156108b457600080600094509450945050506108f3565b6000806108cc8b604001518c60a0015185878d611745565b9092509050806108ea576000806000965096509650505050506108f3565b50919450925090505b9450945094915050565b60600151620186a060109190911c60ff160290565b6000806109356109306301da9c0061092a87876117d5565b9061182e565b611895565b9050600061094982621dcd6560491b6118b3565b9050600061095682611906565b9050600061096a82621dcd6560491b61195b565b905061097581611991565b60070b979650505050505050565b60008082121561099257600080fd5b60006109a66109a1898761199a565b6119b3565b905060005b60fa8160ff161015610a1f576000806109c78c8b8b8b88611146565b91509150806109d557600080fd5b60006109e68c8e8d8d89888e6119c1565b9050866109f282611ac5565b13610a045784955050505050506104d3565b610a0e8582611ae6565b945050600190920191506109ab9050565b5060405162461bcd60e51b815260040161019a90613fb7565b610a40613d05565b6000610a4a611afc565b6001600160a01b039390931660009081526020938452604090819020815160a081018352905464ffffffffff8116825265010000000000810460f81b6001600160f81b03191695820195909552600160301b850460ff1691810191909152600160381b840461ffff166060820152690100000000000000000090930460701b6001600160701b03191660808401525090919050565b6060015161ffff16151590565b8161ffff166000108015610b065750613fff61ffff831611155b610b0f57600080fd5b61ffff8216808552610b22908290611b09565b15610b4f57610b35838361ffff16611b93565b61010088015260e087015260408601526020850152610b6d565b6000602085018190526040850181905260e085018190526101008501525b50506000606083018190526080830181905260a0830181905260c09092019190915250565b600080610b9d611c3f565b6000938452602052505060409020546001600160a01b031690565b6000806000610bc685611c4c565b919450925090508084118015610bdc5750600081115b8015610be85750600083115b15610c47576000610bf886611cad565b5050509150506000610c23610c1a6305f5e100846117d590919063ffffffff16565b84880387611d16565b9050610c2f8482610d84565b93506001600160801b038410610c4457600080fd5b50505b9250925092565b60008082121561085757600080fd5b60e084015160009015610d1e5773__MigrateIncentives_____________________63e0c01a7285610c928860400151610c4e565b8860e001518961010001516040518563ffffffff1660e01b8152600401610cbc9493929190613f1d565b60206040518083038186803b158015610cd457600080fd5b505af4158015610ce8573d6000803e3d6000fd5b505050506040513d601f19601f82011682018060405250810190610d0c9190613e0d565b600060e0870181905261010087015290505b610d5a610d53866101000151610d4d670de0b6b3a764000061092a88610d478c60400151610c4e565b906117d5565b90611d38565b8290610d84565b9050610d72670de0b6b3a764000061092a84866117d5565b85610100018181525050949350505050565b60008282018381101561073a576040805162461bcd60e51b815260206004820152601b60248201527f536166654d6174683a206164646974696f6e206f766572666c6f770000000000604482015290519081900360640190fd5b6000806000610df286602001518686611d95565b915091506000610e0187611108565b905081610e24578651610e1a9061ffff16878388611e5d565b935050505061073a565b6000610e2f866110e7565b90506000610e46610e3f86611043565b8390610d84565b90506000610e5e8a6000015161ffff1683868b611e5d565b90506000808760011415610e8357899150610e7c8c60400151611eed565b9050610eb2565b610e99610e9260018a03611043565b8690610d84565b9150610eaf8c6000015161ffff1683888d611e5d565b90505b610ebf828583868f611f7e565b9850505050505050505061073a565b600084610edd575060006107f7565b6000610ee98585611d38565b9050600080871315610f1857610f1182610f0c610f058b611fdc565b8790610d84565b611ff1565b9050610f47565b6000610f2389612059565b9050848110610f37578793505050506107f7565b610f4383828703611ff1565b9150505b633b9aca00811315610f5857600080fd5b610f62878261199a565b98975050505050505050565b600084610f7d5750600061031c565b6000610f898585611d38565b90506000610f978285611ff1565b9050633b9aca00811315610faa57600080fd5b6104d3878261199a565b610fbc613d33565b6000806000610fca8561206e565b604080516060810182526001600160a01b039093168352602083019390935260ff16600a0a918101919091529350505050919050565b611008613caa565b60006110178461ffff1661212f565b6040805160808101825261ffff96909616865260ff821660208701528501939093525050606082015290565b6000816001141561105857506276a700610542565b816002141561106b575062ed4e00610542565b816003141561107f57506301da9c00610542565b816004141561109357506303b53800610542565b81600514156110a757506309450c00610542565b81600614156110bb575063128a1800610542565b81600714156110cf57506325143000610542565b60405162461bcd60e51b815260040161019a9061400e565b60006276a7008210156110f957600080fd5b6276a700825b06909103919050565b6060015161012c60089190911c60ff160290565b60006276a70061112b856110e7565b01905061113d8787878787878761214c565b50505050505050565b6000808061115488856112dd565b9050600061116c6111658a8a6112f9565b8390612183565b9050633b023380811315611188576000809350935050506106bc565b6000806111948361219c565b91509150806111ad5760008095509550505050506106bc565b60006111c3896111bd858d612183565b906112f9565b9050633b9aca008112156111e2576000809650965050505050506106bc565b9550600194506106bc9350505050565b60008080806112046109a18789612183565b9050600061121a6112148a6108fd565b87610912565b905060008713156112725760006112318983612183565b9050633b9aca008112156112525760008060009550955095505050506108f3565b61126a611263633b9aca0084611ae6565b849061199a565b915050611294565b6112916109a1826106f161128a633b9aca0083611ae6565b8690611421565b90505b60006112ae60646106f16112a78d61223e565b8590611421565b90506112ba8383611ae6565b6112cb6109a1836111bd8787611ae6565b909b909a509098509650505050505050565b60006112e98383611ae6565b9050600081121561026157600080fd5b8181018281121560008312151461026157600080fd5b6000806000611322888888886000611146565b9150915080611336576000925050506107f7565b60006113418361224b565b9050600061135582621dcd6560491b6118b3565b9050600061136282612277565b9050600061137e61137983621dcd6560491b61195b565b6122b1565b67ffffffffffffffff169050600061139e8961092a846301da9c006117d5565b905063ffffffff8111156113bc5760009750505050505050506107f7565b9c9b505050505050505050505050565b600080806113da87866122cd565b60608901519091506113ec90826112f9565b60608901524260e0890152600061140388866122cd565b9050600061141189896122cd565b9a91995090975050505050505050565b8181026000198314156114515781158061144357508282828161144057fe5b05145b61144c57600080fd5b610261565b82158061146657508183828161146357fe5b05145b61026157600080fd5b6000816000191480156114855750600160ff1b83145b1561148f57600080fd5b81838161149857fe5b059392505050565b6114a8613cd6565b60006114b26122f8565b6000858152602082815260408083208715158452825291829020825160a08101845281546001600160a01b038116825260ff600160a01b82048116151594830194909452600160b01b81048416600a0a9482019490945293945092916060830191600160a81b90910416600581111561152757fe5b81529154600160b81b900468ffffffffffffffffff16602090920191909152949350505050565b61155b8161ffff16610b92565b6001600160a01b031660c083018190526000908190819061157b90611cad565b945094509450505060006115928660c00151611c4c565b505060808701859052604087018190526001600160d81b0319831660a088015260c08701519091506115c690846000612305565b602087015260c08601516115de9061ffff8716611b93565b5050506060909601959095525050505050565b600081608001516000141561160857506000610542565b60808201516276a7009061161b906110e7565b0192915050565b600080600080611631866115f1565b9050848111611641576001810394505b50600061164e8686612398565b509050600061167c8760c0015188600001516000015161ffff168960800151898b60000151602001516124ed565b9050600081156116ae5760c08801518851805160808b01516116aa939261ffff909216918b90600088612599565b5090505b6060880151885160400151610f6291906111bd906116cc90856122cd565b86906112f9565b6000826001111580156116ea575083602001518311155b6116f357600080fd5b606084015160806008600019860102019060ff90821c16633b9aca0002600061172c61171e86612617565b6106f1846301da9c00611421565b90506000811361173b57600080fd5b9695505050505050565b60008060006117548785610912565b9050633b9aca0081121561176f5760008092509250506106bc565b60008061178661177f8b8a6112f9565b8b90612183565b90506000806117948361219c565b91509150806117ae576000809650965050505050506106bc565b6117c26117bb838b612183565b8690611ae6565b9c60019c509a5050505050505050505050565b6000826117e457506000610261565b828202828482816117f157fe5b041461073a5760405162461bcd60e51b81526004018080602001828103825260218152602001806141146021913960400191505060405180910390fd5b6000808211611884576040805162461bcd60e51b815260206004820152601a60248201527f536166654d6174683a206469766973696f6e206279207a65726f000000000000604482015290519081900360640190fd5b81838161188d57fe5b049392505050565b6000677fffffffffffffff8211156118ac57600080fd5b5060401b90565b600081600f0b600014156118c657600080fd5b600082600f0b604085600f0b901b816118db57fe5b05905060016001607f1b031981128015906118fd575060016001607f1b038113155b61073a57600080fd5b6000600160461b82600f0b1261191b57600080fd5b683fffffffffffffffff1982600f0b121561193857506000610542565b610261608083600f0b700171547652b82fe1777d0ffda0d23a7d1202901d61262d565b6000600f83810b9083900b0260401d60016001607f1b031981128015906118fd575060016001607f1b0381131561073a57600080fd5b600f0b60401d90565b600061073a6119a98484611421565b633b9aca0061146f565b600061026160001983611421565b600080806119ec6119e56119d58a896112f9565b6119df8c8a611ae6565b90611421565b889061199a565b90506000861315611a3957611a018585612183565b9450633b9aca00851215611a1457600080fd5b611a3284611a2c611a258c8c6112f9565b8d90611421565b90612183565b9150611a70565b611a43858561199a565b9450633b9aca00851215611a5657600080fd5b611a6d611a6661128a8b8b6112f9565b8b9061199a565b91505b611a88611a7d838361146f565b6305f5e10090611ae6565b91506000611a968b8761199a565b9050611aa281886112f9565b9050611ab6836106f1836305f5e100611421565b9b9a5050505050505050505050565b600080821215611adf57611ad8826119b3565b9050610542565b5080610542565b8082038281131560008312151461026157600080fd5b60008061026160016130db565b60008115801590611b1c5750613fff8211155b611b2557600080fd5b6080830151606084015161ffff16831415611b44576001915050610261565b6001600160701b0319811615611b895760f081901c613fff1683811415611b765750600160fe1b908116149050610261565b5060101b6001600160801b031916611b44565b5060009392505050565b6000806000806000611ba36130ed565b6001600160a01b0388166000908152602082815260408083208a84529091529020805469ffffffffffffffffffff81169650600160501b900463ffffffff1694509091508315611c0f578054611c0890600160701b900466ffffffffffffff166130fa565b9250611c24565b8054600160701b900466ffffffffffffff1692505b54600160a81b9004600a90810b900b97939650919450925050565b60008061026160036130db565b600080600080611c5a613108565b6001600160a01b0395909516600090815260209590955250506040909220546bffffffffffffffffffffffff811693600160601b82046001600160801b03169350600160e01b90910463ffffffff169150565b600080600080600080611cbe613115565b6001600160a01b039097166000908152602097909752505060409094205461ffff81169563ffffffff62010000830481169650600160301b830416945060ff600160501b8304169350600160581b90910460d81b9150565b600061031c8261092a6301da9c008188610d4789670de0b6b3a76400006117d5565b600082821115611d8f576040805162461bcd60e51b815260206004820152601e60248201527f536166654d6174683a207375627472616374696f6e206f766572666c6f770000604482015290519081900360640190fd5b50900390565b60008060008511611db85760405162461bcd60e51b815260040161019a90613fdf565b6007851115611dd95760405162461bcd60e51b815260040161019a90614035565b6000611de4846110e7565b905060015b868111611e3c576000611e05611dfe83611043565b8490610d84565b905086811415611e1d5750925060009150611e559050565b86811115611e335750925060019150611e559050565b50600101611de9565b5060405162461bcd60e51b815260040161019a906140e6565b935093915050565b600080611e68613122565b905060006276a700611e79856110e7565b6000898152602085815260408083208b84528252808320949093018083529390522080549192509063ffffffff600160a01b8204811691600160c01b8104821691600160e01b9091041681611ee05760405162461bcd60e51b815260040161019a90613f5a565b611ab68184848c8c61312f565b80516000906001600160a01b0316611f0757506000610542565b600082600001516001600160a01b031663dd30a6666040518163ffffffff1660e01b815260040160206040518083038186803b158015611f4657600080fd5b505afa158015611f5a573d6000803e3d6000fd5b505050506040513d601f19601f8201168201806040525081019061073a9190613e0d565b6000818610611f8c57600080fd5b848210611f9857600080fd5b838310611fbe57611fb78461058f88880361092a8388038b88036117d5565b90506107f7565b611fb7611fd587870361092a8688038a87036117d5565b8590611d38565b606001516207a12060289190911c60ff160290565b6000806120096109306301da9c0061092a86886117d5565b905061201b81621dcd6560491b6118b3565b905061202e612029826131c2565b611906565b905061204081621dcd6560491b61195b565b9050600061204d82611991565b60070b95945050505050565b606001516207a12060209190911c60ff160290565b600080600080600061207f866131e4565b909250905060006001600160a01b0383166120a45750600090506402540be400612124565b826001600160a01b031663b2fffb046040518163ffffffff1660e01b815260040160206040518083038186803b1580156120dd57600080fd5b505afa1580156120f1573d6000803e3d6000fd5b505050506040513d601f19601f820116820180604052508101906121159190613e0d565b90506000811361212457600080fd5b969195509350915050565b60008061213a61321b565b60009384526020525050604090205490565b6121598787878685613228565b6121728760e001518860a001518960c00151858861312f565b60c090970196909652505050505050565b600061073a61219684633b9aca00611421565b8361146f565b600080633b9aca008314156121b657506000905080612239565b60006121d06121c9633b9aca0086611ae6565b8590612183565b905060006121dd8261224b565b9050600081600f0b136121f857600080935093505050612239565b600061222c61222761221b61220c85612277565b6814b927f32bffb833386132e9565b621dcd6560491b61195b565b611991565b60070b9450600193505050505b915091565b6060015160181c60ff1690565b6000677fffffffffffffff19821215801561226e5750677fffffffffffffff8213155b6118ac57600080fd5b60008082600f0b1361228857600080fd5b60806122938361331c565b600f0b6fb17217f7d1cf79abc9e3b39803f2f6af02901c9050919050565b60008082600f0b12156122c357600080fd5b50600f0b60401d90565b60008061031c84602001516106f186604001516119df6402540be4008861142190919063ffffffff16565b60008061026160076130db565b61230d613d5d565b612315613d5d565b60ff841661232457905061073a565b61232e85856133f7565b815260ff841660608201528267ffffffffffffffff8111801561235057600080fd5b5060405190808252806020026020018201604052801561238a57816020015b612377613d85565b81526020019060019003908161236f5790505b506020820152949350505050565b602082015151516000906060908067ffffffffffffffff811180156123bc57600080fd5b506040519080825280602002602001820160405280156123e6578160200160208202803683370190505b5091506123f1613bc9565b60005b828110156124e357865161240f90836001808501908a610547565b6000876020015160000151828151811061242557fe5b602002602001015190506000816020015190506000806124458487613420565b9150915061246e6124678c60c001518d600001516000015161ffff168661349b565b82906112f9565b88868151811061247a57fe5b60200260200101818152505060006124c46124bd6124b18b898151811061249d57fe5b6020026020010151878f8c60c00151610f6e565b8e5160400151906122cd565b84906112f9565b90506124d08a826112f9565b995050600190940193506123f492505050565b5050509250929050565b6000600282116124ff575060006107f7565b600061250b87876134e0565b9050806125195790506107f7565b6000612524856110e7565b90508581141561254e575074400080000002002000000002000000200000000020191690506107f7565b60015b84811161258e57600061256382611043565b8301905060006125738983613515565b50905061258285826000613620565b94505050600101612551565b5081925050506107f7565b60008060006125a78461366b565b90505b801561260a5760006125bc8983613690565b905060006125ce8c8c848c8c8c613743565b90506125da85826112f9565b945060008112156125ea57600193505b6125f686846000613620565b95506126018661366b565b925050506125aa565b5097509795505050505050565b60006001600160ff1b0382111561085757600080fd5b6000600160461b82600f0b1261264257600080fd5b683fffffffffffffffff1982600f0b121561265f57506000610542565b6001607f1b60006001603f1b8416600f0b131561268d5770016a09e667f3bcc908b2fb1366ea957d3e0260801c5b60008367400000000000000016600f0b13156126ba577001306fe0a31b7152de8d5a46305c85edec0260801c5b60008367200000000000000016600f0b13156126e7577001172b83c7d517adcdf7c8c50eb14a791f0260801c5b60008367100000000000000016600f0b13156127145770010b5586cf9890f6298b92b71842a983630260801c5b60008367080000000000000016600f0b1315612741577001059b0d31585743ae7c548eb68ca417fd0260801c5b60008367040000000000000016600f0b131561276e57700102c9a3e778060ee6f7caca4f7a29bde80260801c5b60008367020000000000000016600f0b131561279b5770010163da9fb33356d84a66ae336dcdfa3f0260801c5b600083600160381b16600f0b13156127c457700100b1afa5abcbed6129ab13ec11dc95430260801c5b600083668000000000000016600f0b13156127f05770010058c86da1c09ea1ff19d294cf2f679b0260801c5b600083664000000000000016600f0b131561281c577001002c605e2e8cec506d21bfc89a23a00f0260801c5b600083662000000000000016600f0b131561284857700100162f3904051fa128bca9c55c31e5df0260801c5b600083661000000000000016600f0b1315612874577001000b175effdc76ba38e31671ca9397250260801c5b600083660800000000000016600f0b13156128a057700100058ba01fb9f96d6cacd4b180917c3d0260801c5b600083660400000000000016600f0b13156128cc5770010002c5cc37da9491d0985c348c68e7b30260801c5b600083660200000000000016600f0b13156128f8577001000162e525ee054754457d59952920260260801c5b600083600160301b16600f0b13156129215770010000b17255775c040618bf4a4ade83fc0260801c5b6000836580000000000016600f0b131561294c577001000058b91b5bc9ae2eed81e9b7d4cfab0260801c5b6000836540000000000016600f0b131561297757700100002c5c89d5ec6ca4d7c8acc017b7c90260801c5b6000836520000000000016600f0b13156129a25770010000162e43f4f831060e02d839a9d16d0260801c5b6000836510000000000016600f0b13156129cd57700100000b1721bcfc99d9f890ea069117630260801c5b6000836508000000000016600f0b13156129f85770010000058b90cf1e6d97f9ca14dbcc16280260801c5b6000836504000000000016600f0b1315612a23577001000002c5c863b73f016468f6bac5ca2b0260801c5b6000836502000000000016600f0b1315612a4e57700100000162e430e5a18f6119e3c02282a50260801c5b6000836501000000000016600f0b1315612a79577001000000b1721835514b86e6d96efd1bfe0260801c5b60008364800000000016600f0b1315612aa357700100000058b90c0b48c6be5df846c5b2ef0260801c5b60008364400000000016600f0b1315612acd5770010000002c5c8601cc6b9e94213c72737a0260801c5b60008364200000000016600f0b1315612af7577001000000162e42fff037df38aa2b219f060260801c5b60008364100000000016600f0b1315612b215770010000000b17217fba9c739aa5819f44f90260801c5b60008364080000000016600f0b1315612b4b577001000000058b90bfcdee5acd3c1cedc8230260801c5b60008364040000000016600f0b1315612b7557700100000002c5c85fe31f35a6a30da1be500260801c5b60008364020000000016600f0b1315612b9f5770010000000162e42ff0999ce3541b9fffcf0260801c5b60008364010000000016600f0b1315612bc957700100000000b17217f80f4ef5aadda455540260801c5b600083638000000016600f0b1315612bf25770010000000058b90bfbf8479bd5a81b51ad0260801c5b600083634000000016600f0b1315612c1b577001000000002c5c85fdf84bd62ae30a74cc0260801c5b600083632000000016600f0b1315612c4457700100000000162e42fefb2fed257559bdaa0260801c5b600083631000000016600f0b1315612c6d577001000000000b17217f7d5a7716bba4a9ae0260801c5b600083630800000016600f0b1315612c9657700100000000058b90bfbe9ddbac5e109cce0260801c5b600083630400000016600f0b1315612cbf5770010000000002c5c85fdf4b15de6f17eb0d0260801c5b600083630200000016600f0b1315612ce8577001000000000162e42fefa494f1478fde050260801c5b600083630100000016600f0b1315612d115770010000000000b17217f7d20cf927c8e94c0260801c5b6000836280000016600f0b1315612d39577001000000000058b90bfbe8f71cb4e4b33d0260801c5b6000836240000016600f0b1315612d6157700100000000002c5c85fdf477b662b269450260801c5b6000836220000016600f0b1315612d895770010000000000162e42fefa3ae53369388c0260801c5b6000836210000016600f0b1315612db157700100000000000b17217f7d1d351a389d400260801c5b6000836208000016600f0b1315612dd95770010000000000058b90bfbe8e8b2d3d4ede0260801c5b6000836204000016600f0b1315612e01577001000000000002c5c85fdf4741bea6e77e0260801c5b6000836202000016600f0b1315612e2957700100000000000162e42fefa39fe95583c20260801c5b6000836201000016600f0b1315612e51577001000000000000b17217f7d1cfb72b45e10260801c5b60008361800016600f0b1315612e7857700100000000000058b90bfbe8e7cc35c3f00260801c5b60008361400016600f0b1315612e9f5770010000000000002c5c85fdf473e242ea380260801c5b60008361200016600f0b1315612ec6577001000000000000162e42fefa39f02b772c0260801c5b60008361100016600f0b1315612eed5770010000000000000b17217f7d1cf7d83c1a0260801c5b60008361080016600f0b1315612f14577001000000000000058b90bfbe8e7bdcbe2e0260801c5b60008361040016600f0b1315612f3b57700100000000000002c5c85fdf473dea871f0260801c5b60008361020016600f0b1315612f625770010000000000000162e42fefa39ef44d910260801c5b60008361010016600f0b1315612f8957700100000000000000b17217f7d1cf79e9490260801c5b600083608016600f0b1315612faf5770010000000000000058b90bfbe8e7bce5440260801c5b600083604016600f0b1315612fd5577001000000000000002c5c85fdf473de6eca0260801c5b600083602016600f0b1315612ffb57700100000000000000162e42fefa39ef366f0260801c5b600083601016600f0b1315613021577001000000000000000b17217f7d1cf79afa0260801c5b600083600816600f0b131561304757700100000000000000058b90bfbe8e7bcd6d0260801c5b600083600416600f0b131561306d5770010000000000000002c5c85fdf473de6b20260801c5b600083600216600f0b1315613093577001000000000000000162e42fefa39ef3580260801c5b600083600116600f0b13156130b95770010000000000000000b17217f7d1cf79ab0260801c5b600f83810b60401d603f03900b1c60016001607f1b0381111561026157600080fd5b6000620f424082601381111561161b57fe5b60008061026160066130db565b600881901c60ff9091161b90565b60008061026160116130db565b60008061026160026130db565b600080610261600a6130db565b600080831161313d57600080fd5b8186111561314c5750836107f7565b60006131588388611d38565b90508381111561316b57859150506107f7565b600061317f8561092a84633b9aca006117d5565b90506000613191633b9aca0083611d38565b905060006131b4633b9aca0061092a6131aa8b866117d5565b61058f8d886117d5565b9a9950505050505050505050565b6000600f82900b60016001607f1b031914156131dd57600080fd5b5060000390565b60008060006131f1613798565b600094855260205250506040909120546001600160a01b03811692600160a01b90910460ff169150565b60008061026160096130db565b6000613232613122565b6000868152602082815260408083208884528252808320868452825291829020808a52908901879052805469ffffffffffffffffffff808216938b0193909352600160501b810490921660608a015263ffffffff600160a01b8304811660a08b0152600160c01b8304811660c08b0152600160e01b90920490911660e08901529091508084156132d757600182015469ffffffffffffffffffff1660808901526132df565b600060808901525b5050505050505050565b6000600f82810b9084900b0360016001607f1b031981128015906118fd575060016001607f1b0381131561073a57600080fd5b60008082600f0b1361332d57600080fd5b6000600f83900b600160401b8112613347576040918201911d5b640100000000811261335b576020918201911d5b62010000811261336d576010918201911d5b610100811261337e576008918201911d5b6010811261338e576004918201911d5b6004811261339e576002918201911d5b600281126133ad576001820191505b603f19820160401b600f85900b607f8490031b6001603f1b5b60008113156133ec5790800260ff81901c8281029390930192607f011c9060011d6133c6565b509095945050505050565b6060600061340584846137a5565b90506001815111613417579050610261565b61073a816138bd565b6000806134308460400151613a7c565b801561344157506000846060015112155b61344a57600080fd5b61346d83608001516106f18660600151866060015161142190919063ffffffff16565b915061349283608001516106f18660600151866040015161142190919063ffffffff16565b90509250929050565b6000806134a6613a92565b6001600160a01b03861660009081526020918252604080822087835283528082208683529092522054600f90810b900b9150509392505050565b6000806134eb613a9f565b6001600160a01b038516600090815260209182526040808220868352909252205491505092915050565b600080600061352385613aac565b90506201518084061561353d576000809250925050613619565b838110613551576000809250925050613619565b6201518081850304605a811161356e579250600191506136199050565b61016881116135ad576000620151806207e900840604820160591901905060068104605a016006828161359d57fe5b0660001494509450505050613619565b61087081116135dd5760006201518062278d00840604820161016719019050601e8104608701601e828161359d57fe5b611de2811161360d576000620151806276a700840604820161086f19019050605a810460c301605a828161359d57fe5b61010060009350935050505b9250929050565b60006001831015801561363557506101008311155b61363e57600080fd5b81156136575750600160ff1b60001983011c831761073a565b50600160ff1b60001983011c19831661073a565b60008161367a57506000610542565b61368382613ac8565b60ff036001019050919050565b60008161369c57600080fd5b6101008211156136ab57600080fd5b60006136b684613aac565b90506000605a84116136d15750620151808302019050610261565b608784116136f9575060591983016207e900908102908206909103016276a700019050610261565b60c384116137225750608619830162278d00908102908206909103016301da9c00019050610261565b5060c21983016276a70090810290820690910301630b1fa800019050610261565b60008061375188888861349b565b905084861161376157905061173b565b600061376e858888610dde565b9050831561378c576137838583898985610ece565b9250505061173b565b61378382888884610f6e565b600080610261600f6130db565b606060108260ff1611156137b857600080fd5b60006137c2613b61565b6001600160a01b038516600090815260208290526040812091925060ff851667ffffffffffffffff811180156137f757600080fd5b5060405190808252806020026020018201604052801561383157816020015b61381e613d85565b8152602001906001900390816138165790505b50905060005b8560ff1681101561046957600083826010811061385057fe5b019050600083838151811061386157fe5b602090810291909101810151835461ffff8116825264ffffffffff620100008204169282019290925260ff600160381b8304166040820152600160401b909104600a90810b900b60608201526080019190915250600101613837565b805160008167ffffffffffffffff811180156138d857600080fd5b50604051908082528060200260200182016040528015613902578160200160208202803683370190505b50905060005b8281101561395f57600084828151811061391e57fe5b6020026020010151905061393f816000015182602001518360400151613b6e565b83838151811061394b57fe5b602090810291909101015250600101613908565b5060015b82811015613a7657805b6000811180156139a5575082818151811061398457fe5b602002602001015183600183038151811061399b57fe5b6020026020010151115b15613a6d578281815181106139b657fe5b60200260200101518360018303815181106139cd57fe5b60200260200101518460018403815181106139e457fe5b602002602001018584815181106139f757fe5b6020026020010182815250828152505050848181518110613a1457fe5b6020026020010151856001830381518110613a2b57fe5b6020026020010151866001840381518110613a4257fe5b60200260200101878481518110613a5557fe5b6020908102919091010191909152526000190161396d565b50600101613963565b50505050565b6000600282108015906102615750506008101590565b600080610261600c6130db565b600080610261600b6130db565b600062015180821015613abe57600080fd5b62015180826110ff565b600081613ad457600080fd5b600160801b8210613ae757608091821c91015b600160401b8210613afa57604091821c91015b6401000000008210613b0e57602091821c91015b620100008210613b2057601091821c91015b6101008210613b3157600891821c91015b60108210613b4157600491821c91015b60048210613b5157600291821c91015b6002821061054257600101919050565b600080610261600d6130db565b6000613fff841115613b7f57600080fd5b64ffffffffff831115613b9157600080fd5b6008821115613b9f57600080fd5b5067ffff000000000000603084901b1665ffffffffff00600884901b161760ff8216179392505050565b60405180610100016040528060008019168152602001600081526020016000815260200160008152602001600081526020016000815260200160008152602001600081525090565b6040518060e00160405280613c24613caa565b8152602001613c31613d5d565b815260006020820181905260408201819052606082018190526080820181905260a09091015290565b604051806101200160405280600061ffff16815260200160008152602001600081526020016000815260200160008152602001600081526020016000815260200160008152602001600081525090565b6040805160808101825260008082526020820152908101613cc9613d33565b8152600060209091015290565b6040805160a0810182526000808252602082018190529181018290529060608201908152602001600081525090565b6040805160a08101825260008082526020820181905291810182905260608101829052608081019190915290565b604051806060016040528060006001600160a01b0316815260200160008152602001600081525090565b6040518060800160405280606081526020016060815260200160008152602001600081525090565b6040518060c00160405280600081526020016000815260200160008152602001600081526020016000815260200160006003811115613dc057fe5b905290565b803561ffff8116811461054257600080fd5b60008060408385031215613de9578182fd5b82356001600160a01b0381168114613dff578283fd5b946020939093013593505050565b600060208284031215613e1e578081fd5b5051919050565b60008060008060808587031215613e3a578182fd5b613e4385613dc5565b9350602085013580600a0b8114613e58578283fd5b93969395505050506040820135916060013590565b600080600080600060a08688031215613e84578081fd5b613e8d86613dc5565b945060208601359350604086013592506060860135915060808601358015158114613eb6578182fd5b809150509295509295909350565b60008060408385031215613ed6578182fd5b613edf83613dc5565b915060208301356affffffffffffffffffffff81168114613efe578182fd5b809150509250929050565b6001600160a01b0391909116815260200190565b6001600160a01b0394909416845260208401929092526040830152606082015260800190565b90815260200190565b918252602082015260400190565b60208082526016908201527513585c9ad95d081b9bdd081a5b9a5d1a585b1a5e995960521b604082015260600190565b60208082526013908201527214995c5d5a5c995cc81cd95d1d1b195b595b9d606a1b604082015260600190565b6020808252600e908201526d4e6f20636f6e76657267656e636560901b604082015260600190565b60208082526015908201527410d1ce881b9bc81b585c9ad95d1cc81b1a5cdd1959605a1b604082015260600190565b6020808252600d908201526c092dcecc2d8d2c840d2dcc8caf609b1b604082015260600190565b60208082526016908201527510d1ce881b585c9ad95d081a5b99195e08189bdd5b9960521b604082015260600190565b6020808252600e908201526d125b9d985b1a59081b585c9ad95d60921b604082015260600190565b602080825260129082015271496e76616c696420626c6f636b2074696d6560701b604082015260600190565b602080825260139082015272125b9d985b1a590818dd5c9c995b98de481a59606a1b604082015260600190565b60208082526013908201527210d1ce881b9bc81b585c9ad95d08199bdd5b99606a1b60408201526060019056fe536166654d6174683a206d756c7469706c69636174696f6e206f766572666c6f77a26469706673582212209054cd7e622899fd52f1b0e96ce891752a28b897f6ef73a303363e09b45e5b9064736f6c63430007060033","bytecodeSha1":"c3db93e72a12a4f8e7a8b1374ca399250f49732c","type":"contract","abi":[{"inputs":[{"internalType":"uint16","name":"currencyId","type":"uint16"},{"internalType":"uint88","name":"amountToDepositExternalPrecision","type":"uint88"}],"name":"calculateNTokensToMint","outputs":[{"internalType":"uint256","name":"","type":"uint256"}],"stateMutability":"view","type":"function"},{"inputs":[{"internalType":"uint16","name":"currencyId","type":"uint16"},{"internalType":"int88","name":"fCashAmount","type":"int88"},{"internalType":"uint256","name":"marketIndex","type":"uint256"},{"internalType":"uint256","name":"blockTime","type":"uint256"}],"name":"getCashAmountGivenfCashAmount","outputs":[{"internalType":"int256","name":"","type":"int256"},{"internalType":"int256","name":"","type":"int256"}],"stateMutability":"view","type":"function"},{"inputs":[],"name":"getLibInfo","outputs":[{"internalType":"address","name":"","type":"address"}],"stateMutability":"view","type":"function"},{"inputs":[{"internalType":"uint16","name":"currencyId","type":"uint16"},{"internalType":"uint256","name":"maturity","type":"uint256"},{"internalType":"int256","name":"notional","type":"int256"},{"internalType":"uint256","name":"blockTime","type":"uint256"},{"internalType":"bool","name":"riskAdjusted","type":"bool"}],"name":"getPresentfCashValue","outputs":[{"internalType":"int256","name":"presentValue","type":"int256"}],"stateMutability":"view","type":"function"},{"inputs":[{"internalType":"uint16","name":"currencyId","type":"uint16"},{"internalType":"int88","name":"netCashToAccount","type":"int88"},{"internalType":"uint256","name":"marketIndex","type":"uint256"},{"internalType":"uint256","name":"blockTime","type":"uint256"}],"name":"getfCashAmountGivenCashAmount","outputs":[{"internalType":"int256","name":"","type":"int256"}],"stateMutability":"view","type":"function"},{"inputs":[{"internalType":"address","name":"account","type":"address"},{"internalType":"uint256","name":"blockTime","type":"uint256"}],"name":"nTokenGetClaimableIncentives","outputs":[{"internalType":"uint256","name":"","type":"uint256"}],"stateMutability":"view","type":"function"},{"inputs":[],"name":"owner","outputs":[{"internalType":"address","name":"","type":"address"}],"stateMutability":"view","type":"function"},{"inputs":[],"name":"pauseGuardian","outputs":[{"internalType":"address","name":"","type":"address"}],"stateMutability":"view","type":"function"},{"inputs":[],"name":"pauseRouter","outputs":[{"internalType":"address","name":"","type":"address"}],"stateMutability":"view","type":"function"}],"compiler":{"version":"0.7.6+commit.7338295f","evm_version":"istanbul","optimizer":{"enabled":true,"runs":200}},"contractName":"CalculationViews","deployedBytecode":"608060405234801561001057600080fd5b50600436106100935760003560e01c80638355e895116100665780638355e895146100ff5780638da5cb5b1461011257806397d6db2e1461011a578063c4c96dae1461012d578063c52c43e11461013557610093565b8063094614df1461009857806324a3d622146100c25780636a09a2a3146100d757806382463367146100f7575b600080fd5b6100ab6100a6366004613e25565b610148565b6040516100b9929190613f4c565b60405180910390f35b6100ca6101ea565b6040516100b99190613f09565b6100ea6100e5366004613ec4565b6101f9565b6040516100b99190613f43565b6100ca610267565b6100ea61010d366004613e25565b610276565b6100ca610324565b6100ea610128366004613dd7565b61033b565b6100ca610473565b6100ea610143366004613e6d565b61048b565b600080610154866104de565b600061015f8761051b565b9050610169613bc9565b610177828288600089610547565b848160200151116101a35760405162461bcd60e51b815260040161019a9061408d565b60405180910390fd5b602081015185900360006101be8385600a8c900b858c6105c2565b509050806101d98286604001516106c690919063ffffffff16565b955095505050505094509492505050565b6002546001600160a01b031681565b6000610204836104de565b60006102138461ffff166106f7565b9050600061022e826affffffffffffffffffffff861661070a565b9050610238613c11565b6102428187610741565b600061024f82844261075a565b905061025a81610800565b9450505050505b92915050565b6001546001600160a01b031681565b6000610281856104de565b600061028c8661051b565b9050610296613bc9565b6102a4828287600088610547565b838160200151116102c75760405162461bcd60e51b815260040161019a9061408d565b6020810151849003600080806102df8587868c61085b565b92509250925060006102f96102f3886108fd565b86610912565b905061031286604001518c600a0b858786866000610983565b9750505050505050505b949350505050565b60005464010000000090046001600160a01b031681565b60008061034784610a38565b9050610351613c5a565b600061035c83610adf565b156103d2576060830151610374908390889086610aec565b6000826040015113156103d2576000610394836000015161ffff16610b92565b905060006103a28288610bb8565b5091505060006103c08584846103bb8960400151610c4e565b610c5d565b90506103cc8482610d84565b93505050505b60808301515b6001600160701b03198116156104695760f081901c613fff166103fd84898388610aec565b60008460400151131561045657600061041d856000015161ffff16610b92565b9050600061042b828a610bb8565b5091505060006104448784846103bb8b60400151610c4e565b90506104508682610d84565b95505050505b5060101b6001600160801b0319166103d8565b5095945050505050565b73__$b21a4dc043b77aa57922ad9143a3cb040e$__90565b6000806104978761051b565b905082156104bd576104b6818688876104b1848383610dde565b610ece565b9150610469565b6104d38587866104ce858383610dde565b610f6e565b979650505050505050565b8061ffff1660001080156104fc575060005461ffff90811690821611155b6105185760405162461bcd60e51b815260040161019a906140b9565b50565b610523613caa565b60006105328361ffff16610fb4565b905061053e8382611000565b9150505b919050565b8260011115801561055c575084602001518311155b6105785760405162461bcd60e51b815260040161019a90614065565b600061059561058685611043565b61058f846110e7565b90610d84565b90506105ba866000015161ffff168284866105af8b611108565b8a949392919061111c565b505050505050565b600080848760400151136105db575060009050806106bc565b60008060006105ec8a8a898961085b565b9250925092506000806106068c604001518587868e611146565b909250905080610621576000809650965050505050506106bc565b5060008060006106338d858e8e6111f2565b92509250925082600014156106555760008098509850505050505050506106bc565b60408e0151610664908d6112dd565b60408f018190526106819061067988856112f9565b89888f61130f565b60a08f0181905261069f5760008098509850505050505050506106bc565b6106b08e8e604001518585856113cc565b98509850505050505050505b9550959350505050565b60008061031c84604001516106f16402540be4006106f187896020015161142190919063ffffffff16565b9061146f565b6106ff613cd6565b6102618260006114a0565b60006305f5e10083604001511415610723575080610261565b604083015161073a906106f1846305f5e100611421565b9392505050565b61074b828261154e565b6107548161051b565b90915250565b60008083121561076957600080fd5b826107765750600061073a565b6080840151156107ae57600061078b856115f1565b90508281116107ac5760405162461bcd60e51b815260040161019a90613f8a565b505b60006107ba8584611622565b905060008112156107ca57600080fd5b60408501516107dc578391505061073a565b6107f7816106f187604001518761142190919063ffffffff16565b95945050505050565b600080821215610857576040805162461bcd60e51b815260206004820181905260248201527f53616665436173743a2076616c7565206d75737420626520706f736974697665604482015290519081900360640190fd5b5090565b600080808061086b8786886116d3565b9050600061088a896060015189604001516106c690919063ffffffff16565b905088604001516000148061089d575080155b156108b457600080600094509450945050506108f3565b6000806108cc8b604001518c60a0015185878d611745565b9092509050806108ea576000806000965096509650505050506108f3565b50919450925090505b9450945094915050565b60600151620186a060109190911c60ff160290565b6000806109356109306301da9c0061092a87876117d5565b9061182e565b611895565b9050600061094982621dcd6560491b6118b3565b9050600061095682611906565b9050600061096a82621dcd6560491b61195b565b905061097581611991565b60070b979650505050505050565b60008082121561099257600080fd5b60006109a66109a1898761199a565b6119b3565b905060005b60fa8160ff161015610a1f576000806109c78c8b8b8b88611146565b91509150806109d557600080fd5b60006109e68c8e8d8d89888e6119c1565b9050866109f282611ac5565b13610a045784955050505050506104d3565b610a0e8582611ae6565b945050600190920191506109ab9050565b5060405162461bcd60e51b815260040161019a90613fb7565b610a40613d05565b6000610a4a611afc565b6001600160a01b039390931660009081526020938452604090819020815160a081018352905464ffffffffff8116825265010000000000810460f81b6001600160f81b03191695820195909552600160301b850460ff1691810191909152600160381b840461ffff166060820152690100000000000000000090930460701b6001600160701b03191660808401525090919050565b6060015161ffff16151590565b8161ffff166000108015610b065750613fff61ffff831611155b610b0f57600080fd5b61ffff8216808552610b22908290611b09565b15610b4f57610b35838361ffff16611b93565b61010088015260e087015260408601526020850152610b6d565b6000602085018190526040850181905260e085018190526101008501525b50506000606083018190526080830181905260a0830181905260c09092019190915250565b600080610b9d611c3f565b6000938452602052505060409020546001600160a01b031690565b6000806000610bc685611c4c565b919450925090508084118015610bdc5750600081115b8015610be85750600083115b15610c47576000610bf886611cad565b5050509150506000610c23610c1a6305f5e100846117d590919063ffffffff16565b84880387611d16565b9050610c2f8482610d84565b93506001600160801b038410610c4457600080fd5b50505b9250925092565b60008082121561085757600080fd5b60e084015160009015610d1e5773__$b21a4dc043b77aa57922ad9143a3cb040e$__63e0c01a7285610c928860400151610c4e565b8860e001518961010001516040518563ffffffff1660e01b8152600401610cbc9493929190613f1d565b60206040518083038186803b158015610cd457600080fd5b505af4158015610ce8573d6000803e3d6000fd5b505050506040513d601f19601f82011682018060405250810190610d0c9190613e0d565b600060e0870181905261010087015290505b610d5a610d53866101000151610d4d670de0b6b3a764000061092a88610d478c60400151610c4e565b906117d5565b90611d38565b8290610d84565b9050610d72670de0b6b3a764000061092a84866117d5565b85610100018181525050949350505050565b60008282018381101561073a576040805162461bcd60e51b815260206004820152601b60248201527f536166654d6174683a206164646974696f6e206f766572666c6f770000000000604482015290519081900360640190fd5b6000806000610df286602001518686611d95565b915091506000610e0187611108565b905081610e24578651610e1a9061ffff16878388611e5d565b935050505061073a565b6000610e2f866110e7565b90506000610e46610e3f86611043565b8390610d84565b90506000610e5e8a6000015161ffff1683868b611e5d565b90506000808760011415610e8357899150610e7c8c60400151611eed565b9050610eb2565b610e99610e9260018a03611043565b8690610d84565b9150610eaf8c6000015161ffff1683888d611e5d565b90505b610ebf828583868f611f7e565b9850505050505050505061073a565b600084610edd575060006107f7565b6000610ee98585611d38565b9050600080871315610f1857610f1182610f0c610f058b611fdc565b8790610d84565b611ff1565b9050610f47565b6000610f2389612059565b9050848110610f37578793505050506107f7565b610f4383828703611ff1565b9150505b633b9aca00811315610f5857600080fd5b610f62878261199a565b98975050505050505050565b600084610f7d5750600061031c565b6000610f898585611d38565b90506000610f978285611ff1565b9050633b9aca00811315610faa57600080fd5b6104d3878261199a565b610fbc613d33565b6000806000610fca8561206e565b604080516060810182526001600160a01b039093168352602083019390935260ff16600a0a918101919091529350505050919050565b611008613caa565b60006110178461ffff1661212f565b6040805160808101825261ffff96909616865260ff821660208701528501939093525050606082015290565b6000816001141561105857506276a700610542565b816002141561106b575062ed4e00610542565b816003141561107f57506301da9c00610542565b816004141561109357506303b53800610542565b81600514156110a757506309450c00610542565b81600614156110bb575063128a1800610542565b81600714156110cf57506325143000610542565b60405162461bcd60e51b815260040161019a9061400e565b60006276a7008210156110f957600080fd5b6276a700825b06909103919050565b6060015161012c60089190911c60ff160290565b60006276a70061112b856110e7565b01905061113d8787878787878761214c565b50505050505050565b6000808061115488856112dd565b9050600061116c6111658a8a6112f9565b8390612183565b9050633b023380811315611188576000809350935050506106bc565b6000806111948361219c565b91509150806111ad5760008095509550505050506106bc565b60006111c3896111bd858d612183565b906112f9565b9050633b9aca008112156111e2576000809650965050505050506106bc565b9550600194506106bc9350505050565b60008080806112046109a18789612183565b9050600061121a6112148a6108fd565b87610912565b905060008713156112725760006112318983612183565b9050633b9aca008112156112525760008060009550955095505050506108f3565b61126a611263633b9aca0084611ae6565b849061199a565b915050611294565b6112916109a1826106f161128a633b9aca0083611ae6565b8690611421565b90505b60006112ae60646106f16112a78d61223e565b8590611421565b90506112ba8383611ae6565b6112cb6109a1836111bd8787611ae6565b909b909a509098509650505050505050565b60006112e98383611ae6565b9050600081121561026157600080fd5b8181018281121560008312151461026157600080fd5b6000806000611322888888886000611146565b9150915080611336576000925050506107f7565b60006113418361224b565b9050600061135582621dcd6560491b6118b3565b9050600061136282612277565b9050600061137e61137983621dcd6560491b61195b565b6122b1565b67ffffffffffffffff169050600061139e8961092a846301da9c006117d5565b905063ffffffff8111156113bc5760009750505050505050506107f7565b9c9b505050505050505050505050565b600080806113da87866122cd565b60608901519091506113ec90826112f9565b60608901524260e0890152600061140388866122cd565b9050600061141189896122cd565b9a91995090975050505050505050565b8181026000198314156114515781158061144357508282828161144057fe5b05145b61144c57600080fd5b610261565b82158061146657508183828161146357fe5b05145b61026157600080fd5b6000816000191480156114855750600160ff1b83145b1561148f57600080fd5b81838161149857fe5b059392505050565b6114a8613cd6565b60006114b26122f8565b6000858152602082815260408083208715158452825291829020825160a08101845281546001600160a01b038116825260ff600160a01b82048116151594830194909452600160b01b81048416600a0a9482019490945293945092916060830191600160a81b90910416600581111561152757fe5b81529154600160b81b900468ffffffffffffffffff16602090920191909152949350505050565b61155b8161ffff16610b92565b6001600160a01b031660c083018190526000908190819061157b90611cad565b945094509450505060006115928660c00151611c4c565b505060808701859052604087018190526001600160d81b0319831660a088015260c08701519091506115c690846000612305565b602087015260c08601516115de9061ffff8716611b93565b5050506060909601959095525050505050565b600081608001516000141561160857506000610542565b60808201516276a7009061161b906110e7565b0192915050565b600080600080611631866115f1565b9050848111611641576001810394505b50600061164e8686612398565b509050600061167c8760c0015188600001516000015161ffff168960800151898b60000151602001516124ed565b9050600081156116ae5760c08801518851805160808b01516116aa939261ffff909216918b90600088612599565b5090505b6060880151885160400151610f6291906111bd906116cc90856122cd565b86906112f9565b6000826001111580156116ea575083602001518311155b6116f357600080fd5b606084015160806008600019860102019060ff90821c16633b9aca0002600061172c61171e86612617565b6106f1846301da9c00611421565b90506000811361173b57600080fd5b9695505050505050565b60008060006117548785610912565b9050633b9aca0081121561176f5760008092509250506106bc565b60008061178661177f8b8a6112f9565b8b90612183565b90506000806117948361219c565b91509150806117ae576000809650965050505050506106bc565b6117c26117bb838b612183565b8690611ae6565b9c60019c509a5050505050505050505050565b6000826117e457506000610261565b828202828482816117f157fe5b041461073a5760405162461bcd60e51b81526004018080602001828103825260218152602001806141146021913960400191505060405180910390fd5b6000808211611884576040805162461bcd60e51b815260206004820152601a60248201527f536166654d6174683a206469766973696f6e206279207a65726f000000000000604482015290519081900360640190fd5b81838161188d57fe5b049392505050565b6000677fffffffffffffff8211156118ac57600080fd5b5060401b90565b600081600f0b600014156118c657600080fd5b600082600f0b604085600f0b901b816118db57fe5b05905060016001607f1b031981128015906118fd575060016001607f1b038113155b61073a57600080fd5b6000600160461b82600f0b1261191b57600080fd5b683fffffffffffffffff1982600f0b121561193857506000610542565b610261608083600f0b700171547652b82fe1777d0ffda0d23a7d1202901d61262d565b6000600f83810b9083900b0260401d60016001607f1b031981128015906118fd575060016001607f1b0381131561073a57600080fd5b600f0b60401d90565b600061073a6119a98484611421565b633b9aca0061146f565b600061026160001983611421565b600080806119ec6119e56119d58a896112f9565b6119df8c8a611ae6565b90611421565b889061199a565b90506000861315611a3957611a018585612183565b9450633b9aca00851215611a1457600080fd5b611a3284611a2c611a258c8c6112f9565b8d90611421565b90612183565b9150611a70565b611a43858561199a565b9450633b9aca00851215611a5657600080fd5b611a6d611a6661128a8b8b6112f9565b8b9061199a565b91505b611a88611a7d838361146f565b6305f5e10090611ae6565b91506000611a968b8761199a565b9050611aa281886112f9565b9050611ab6836106f1836305f5e100611421565b9b9a5050505050505050505050565b600080821215611adf57611ad8826119b3565b9050610542565b5080610542565b8082038281131560008312151461026157600080fd5b60008061026160016130db565b60008115801590611b1c5750613fff8211155b611b2557600080fd5b6080830151606084015161ffff16831415611b44576001915050610261565b6001600160701b0319811615611b895760f081901c613fff1683811415611b765750600160fe1b908116149050610261565b5060101b6001600160801b031916611b44565b5060009392505050565b6000806000806000611ba36130ed565b6001600160a01b0388166000908152602082815260408083208a84529091529020805469ffffffffffffffffffff81169650600160501b900463ffffffff1694509091508315611c0f578054611c0890600160701b900466ffffffffffffff166130fa565b9250611c24565b8054600160701b900466ffffffffffffff1692505b54600160a81b9004600a90810b900b97939650919450925050565b60008061026160036130db565b600080600080611c5a613108565b6001600160a01b0395909516600090815260209590955250506040909220546bffffffffffffffffffffffff811693600160601b82046001600160801b03169350600160e01b90910463ffffffff169150565b600080600080600080611cbe613115565b6001600160a01b039097166000908152602097909752505060409094205461ffff81169563ffffffff62010000830481169650600160301b830416945060ff600160501b8304169350600160581b90910460d81b9150565b600061031c8261092a6301da9c008188610d4789670de0b6b3a76400006117d5565b600082821115611d8f576040805162461bcd60e51b815260206004820152601e60248201527f536166654d6174683a207375627472616374696f6e206f766572666c6f770000604482015290519081900360640190fd5b50900390565b60008060008511611db85760405162461bcd60e51b815260040161019a90613fdf565b6007851115611dd95760405162461bcd60e51b815260040161019a90614035565b6000611de4846110e7565b905060015b868111611e3c576000611e05611dfe83611043565b8490610d84565b905086811415611e1d5750925060009150611e559050565b86811115611e335750925060019150611e559050565b50600101611de9565b5060405162461bcd60e51b815260040161019a906140e6565b935093915050565b600080611e68613122565b905060006276a700611e79856110e7565b6000898152602085815260408083208b84528252808320949093018083529390522080549192509063ffffffff600160a01b8204811691600160c01b8104821691600160e01b9091041681611ee05760405162461bcd60e51b815260040161019a90613f5a565b611ab68184848c8c61312f565b80516000906001600160a01b0316611f0757506000610542565b600082600001516001600160a01b031663dd30a6666040518163ffffffff1660e01b815260040160206040518083038186803b158015611f4657600080fd5b505afa158015611f5a573d6000803e3d6000fd5b505050506040513d601f19601f8201168201806040525081019061073a9190613e0d565b6000818610611f8c57600080fd5b848210611f9857600080fd5b838310611fbe57611fb78461058f88880361092a8388038b88036117d5565b90506107f7565b611fb7611fd587870361092a8688038a87036117d5565b8590611d38565b606001516207a12060289190911c60ff160290565b6000806120096109306301da9c0061092a86886117d5565b905061201b81621dcd6560491b6118b3565b905061202e612029826131c2565b611906565b905061204081621dcd6560491b61195b565b9050600061204d82611991565b60070b95945050505050565b606001516207a12060209190911c60ff160290565b600080600080600061207f866131e4565b909250905060006001600160a01b0383166120a45750600090506402540be400612124565b826001600160a01b031663b2fffb046040518163ffffffff1660e01b815260040160206040518083038186803b1580156120dd57600080fd5b505afa1580156120f1573d6000803e3d6000fd5b505050506040513d601f19601f820116820180604052508101906121159190613e0d565b90506000811361212457600080fd5b969195509350915050565b60008061213a61321b565b60009384526020525050604090205490565b6121598787878685613228565b6121728760e001518860a001518960c00151858861312f565b60c090970196909652505050505050565b600061073a61219684633b9aca00611421565b8361146f565b600080633b9aca008314156121b657506000905080612239565b60006121d06121c9633b9aca0086611ae6565b8590612183565b905060006121dd8261224b565b9050600081600f0b136121f857600080935093505050612239565b600061222c61222761221b61220c85612277565b6814b927f32bffb833386132e9565b621dcd6560491b61195b565b611991565b60070b9450600193505050505b915091565b6060015160181c60ff1690565b6000677fffffffffffffff19821215801561226e5750677fffffffffffffff8213155b6118ac57600080fd5b60008082600f0b1361228857600080fd5b60806122938361331c565b600f0b6fb17217f7d1cf79abc9e3b39803f2f6af02901c9050919050565b60008082600f0b12156122c357600080fd5b50600f0b60401d90565b60008061031c84602001516106f186604001516119df6402540be4008861142190919063ffffffff16565b60008061026160076130db565b61230d613d5d565b612315613d5d565b60ff841661232457905061073a565b61232e85856133f7565b815260ff841660608201528267ffffffffffffffff8111801561235057600080fd5b5060405190808252806020026020018201604052801561238a57816020015b612377613d85565b81526020019060019003908161236f5790505b506020820152949350505050565b602082015151516000906060908067ffffffffffffffff811180156123bc57600080fd5b506040519080825280602002602001820160405280156123e6578160200160208202803683370190505b5091506123f1613bc9565b60005b828110156124e357865161240f90836001808501908a610547565b6000876020015160000151828151811061242557fe5b602002602001015190506000816020015190506000806124458487613420565b9150915061246e6124678c60c001518d600001516000015161ffff168661349b565b82906112f9565b88868151811061247a57fe5b60200260200101818152505060006124c46124bd6124b18b898151811061249d57fe5b6020026020010151878f8c60c00151610f6e565b8e5160400151906122cd565b84906112f9565b90506124d08a826112f9565b995050600190940193506123f492505050565b5050509250929050565b6000600282116124ff575060006107f7565b600061250b87876134e0565b9050806125195790506107f7565b6000612524856110e7565b90508581141561254e575074400080000002002000000002000000200000000020191690506107f7565b60015b84811161258e57600061256382611043565b8301905060006125738983613515565b50905061258285826000613620565b94505050600101612551565b5081925050506107f7565b60008060006125a78461366b565b90505b801561260a5760006125bc8983613690565b905060006125ce8c8c848c8c8c613743565b90506125da85826112f9565b945060008112156125ea57600193505b6125f686846000613620565b95506126018661366b565b925050506125aa565b5097509795505050505050565b60006001600160ff1b0382111561085757600080fd5b6000600160461b82600f0b1261264257600080fd5b683fffffffffffffffff1982600f0b121561265f57506000610542565b6001607f1b60006001603f1b8416600f0b131561268d5770016a09e667f3bcc908b2fb1366ea957d3e0260801c5b60008367400000000000000016600f0b13156126ba577001306fe0a31b7152de8d5a46305c85edec0260801c5b60008367200000000000000016600f0b13156126e7577001172b83c7d517adcdf7c8c50eb14a791f0260801c5b60008367100000000000000016600f0b13156127145770010b5586cf9890f6298b92b71842a983630260801c5b60008367080000000000000016600f0b1315612741577001059b0d31585743ae7c548eb68ca417fd0260801c5b60008367040000000000000016600f0b131561276e57700102c9a3e778060ee6f7caca4f7a29bde80260801c5b60008367020000000000000016600f0b131561279b5770010163da9fb33356d84a66ae336dcdfa3f0260801c5b600083600160381b16600f0b13156127c457700100b1afa5abcbed6129ab13ec11dc95430260801c5b600083668000000000000016600f0b13156127f05770010058c86da1c09ea1ff19d294cf2f679b0260801c5b600083664000000000000016600f0b131561281c577001002c605e2e8cec506d21bfc89a23a00f0260801c5b600083662000000000000016600f0b131561284857700100162f3904051fa128bca9c55c31e5df0260801c5b600083661000000000000016600f0b1315612874577001000b175effdc76ba38e31671ca9397250260801c5b600083660800000000000016600f0b13156128a057700100058ba01fb9f96d6cacd4b180917c3d0260801c5b600083660400000000000016600f0b13156128cc5770010002c5cc37da9491d0985c348c68e7b30260801c5b600083660200000000000016600f0b13156128f8577001000162e525ee054754457d59952920260260801c5b600083600160301b16600f0b13156129215770010000b17255775c040618bf4a4ade83fc0260801c5b6000836580000000000016600f0b131561294c577001000058b91b5bc9ae2eed81e9b7d4cfab0260801c5b6000836540000000000016600f0b131561297757700100002c5c89d5ec6ca4d7c8acc017b7c90260801c5b6000836520000000000016600f0b13156129a25770010000162e43f4f831060e02d839a9d16d0260801c5b6000836510000000000016600f0b13156129cd57700100000b1721bcfc99d9f890ea069117630260801c5b6000836508000000000016600f0b13156129f85770010000058b90cf1e6d97f9ca14dbcc16280260801c5b6000836504000000000016600f0b1315612a23577001000002c5c863b73f016468f6bac5ca2b0260801c5b6000836502000000000016600f0b1315612a4e57700100000162e430e5a18f6119e3c02282a50260801c5b6000836501000000000016600f0b1315612a79577001000000b1721835514b86e6d96efd1bfe0260801c5b60008364800000000016600f0b1315612aa357700100000058b90c0b48c6be5df846c5b2ef0260801c5b60008364400000000016600f0b1315612acd5770010000002c5c8601cc6b9e94213c72737a0260801c5b60008364200000000016600f0b1315612af7577001000000162e42fff037df38aa2b219f060260801c5b60008364100000000016600f0b1315612b215770010000000b17217fba9c739aa5819f44f90260801c5b60008364080000000016600f0b1315612b4b577001000000058b90bfcdee5acd3c1cedc8230260801c5b60008364040000000016600f0b1315612b7557700100000002c5c85fe31f35a6a30da1be500260801c5b60008364020000000016600f0b1315612b9f5770010000000162e42ff0999ce3541b9fffcf0260801c5b60008364010000000016600f0b1315612bc957700100000000b17217f80f4ef5aadda455540260801c5b600083638000000016600f0b1315612bf25770010000000058b90bfbf8479bd5a81b51ad0260801c5b600083634000000016600f0b1315612c1b577001000000002c5c85fdf84bd62ae30a74cc0260801c5b600083632000000016600f0b1315612c4457700100000000162e42fefb2fed257559bdaa0260801c5b600083631000000016600f0b1315612c6d577001000000000b17217f7d5a7716bba4a9ae0260801c5b600083630800000016600f0b1315612c9657700100000000058b90bfbe9ddbac5e109cce0260801c5b600083630400000016600f0b1315612cbf5770010000000002c5c85fdf4b15de6f17eb0d0260801c5b600083630200000016600f0b1315612ce8577001000000000162e42fefa494f1478fde050260801c5b600083630100000016600f0b1315612d115770010000000000b17217f7d20cf927c8e94c0260801c5b6000836280000016600f0b1315612d39577001000000000058b90bfbe8f71cb4e4b33d0260801c5b6000836240000016600f0b1315612d6157700100000000002c5c85fdf477b662b269450260801c5b6000836220000016600f0b1315612d895770010000000000162e42fefa3ae53369388c0260801c5b6000836210000016600f0b1315612db157700100000000000b17217f7d1d351a389d400260801c5b6000836208000016600f0b1315612dd95770010000000000058b90bfbe8e8b2d3d4ede0260801c5b6000836204000016600f0b1315612e01577001000000000002c5c85fdf4741bea6e77e0260801c5b6000836202000016600f0b1315612e2957700100000000000162e42fefa39fe95583c20260801c5b6000836201000016600f0b1315612e51577001000000000000b17217f7d1cfb72b45e10260801c5b60008361800016600f0b1315612e7857700100000000000058b90bfbe8e7cc35c3f00260801c5b60008361400016600f0b1315612e9f5770010000000000002c5c85fdf473e242ea380260801c5b60008361200016600f0b1315612ec6577001000000000000162e42fefa39f02b772c0260801c5b60008361100016600f0b1315612eed5770010000000000000b17217f7d1cf7d83c1a0260801c5b60008361080016600f0b1315612f14577001000000000000058b90bfbe8e7bdcbe2e0260801c5b60008361040016600f0b1315612f3b57700100000000000002c5c85fdf473dea871f0260801c5b60008361020016600f0b1315612f625770010000000000000162e42fefa39ef44d910260801c5b60008361010016600f0b1315612f8957700100000000000000b17217f7d1cf79e9490260801c5b600083608016600f0b1315612faf5770010000000000000058b90bfbe8e7bce5440260801c5b600083604016600f0b1315612fd5577001000000000000002c5c85fdf473de6eca0260801c5b600083602016600f0b1315612ffb57700100000000000000162e42fefa39ef366f0260801c5b600083601016600f0b1315613021577001000000000000000b17217f7d1cf79afa0260801c5b600083600816600f0b131561304757700100000000000000058b90bfbe8e7bcd6d0260801c5b600083600416600f0b131561306d5770010000000000000002c5c85fdf473de6b20260801c5b600083600216600f0b1315613093577001000000000000000162e42fefa39ef3580260801c5b600083600116600f0b13156130b95770010000000000000000b17217f7d1cf79ab0260801c5b600f83810b60401d603f03900b1c60016001607f1b0381111561026157600080fd5b6000620f424082601381111561161b57fe5b60008061026160066130db565b600881901c60ff9091161b90565b60008061026160116130db565b60008061026160026130db565b600080610261600a6130db565b600080831161313d57600080fd5b8186111561314c5750836107f7565b60006131588388611d38565b90508381111561316b57859150506107f7565b600061317f8561092a84633b9aca006117d5565b90506000613191633b9aca0083611d38565b905060006131b4633b9aca0061092a6131aa8b866117d5565b61058f8d886117d5565b9a9950505050505050505050565b6000600f82900b60016001607f1b031914156131dd57600080fd5b5060000390565b60008060006131f1613798565b600094855260205250506040909120546001600160a01b03811692600160a01b90910460ff169150565b60008061026160096130db565b6000613232613122565b6000868152602082815260408083208884528252808320868452825291829020808a52908901879052805469ffffffffffffffffffff808216938b0193909352600160501b810490921660608a015263ffffffff600160a01b8304811660a08b0152600160c01b8304811660c08b0152600160e01b90920490911660e08901529091508084156132d757600182015469ffffffffffffffffffff1660808901526132df565b600060808901525b5050505050505050565b6000600f82810b9084900b0360016001607f1b031981128015906118fd575060016001607f1b0381131561073a57600080fd5b60008082600f0b1361332d57600080fd5b6000600f83900b600160401b8112613347576040918201911d5b640100000000811261335b576020918201911d5b62010000811261336d576010918201911d5b610100811261337e576008918201911d5b6010811261338e576004918201911d5b6004811261339e576002918201911d5b600281126133ad576001820191505b603f19820160401b600f85900b607f8490031b6001603f1b5b60008113156133ec5790800260ff81901c8281029390930192607f011c9060011d6133c6565b509095945050505050565b6060600061340584846137a5565b90506001815111613417579050610261565b61073a816138bd565b6000806134308460400151613a7c565b801561344157506000846060015112155b61344a57600080fd5b61346d83608001516106f18660600151866060015161142190919063ffffffff16565b915061349283608001516106f18660600151866040015161142190919063ffffffff16565b90509250929050565b6000806134a6613a92565b6001600160a01b03861660009081526020918252604080822087835283528082208683529092522054600f90810b900b9150509392505050565b6000806134eb613a9f565b6001600160a01b038516600090815260209182526040808220868352909252205491505092915050565b600080600061352385613aac565b90506201518084061561353d576000809250925050613619565b838110613551576000809250925050613619565b6201518081850304605a811161356e579250600191506136199050565b61016881116135ad576000620151806207e900840604820160591901905060068104605a016006828161359d57fe5b0660001494509450505050613619565b61087081116135dd5760006201518062278d00840604820161016719019050601e8104608701601e828161359d57fe5b611de2811161360d576000620151806276a700840604820161086f19019050605a810460c301605a828161359d57fe5b61010060009350935050505b9250929050565b60006001831015801561363557506101008311155b61363e57600080fd5b81156136575750600160ff1b60001983011c831761073a565b50600160ff1b60001983011c19831661073a565b60008161367a57506000610542565b61368382613ac8565b60ff036001019050919050565b60008161369c57600080fd5b6101008211156136ab57600080fd5b60006136b684613aac565b90506000605a84116136d15750620151808302019050610261565b608784116136f9575060591983016207e900908102908206909103016276a700019050610261565b60c384116137225750608619830162278d00908102908206909103016301da9c00019050610261565b5060c21983016276a70090810290820690910301630b1fa800019050610261565b60008061375188888861349b565b905084861161376157905061173b565b600061376e858888610dde565b9050831561378c576137838583898985610ece565b9250505061173b565b61378382888884610f6e565b600080610261600f6130db565b606060108260ff1611156137b857600080fd5b60006137c2613b61565b6001600160a01b038516600090815260208290526040812091925060ff851667ffffffffffffffff811180156137f757600080fd5b5060405190808252806020026020018201604052801561383157816020015b61381e613d85565b8152602001906001900390816138165790505b50905060005b8560ff1681101561046957600083826010811061385057fe5b019050600083838151811061386157fe5b602090810291909101810151835461ffff8116825264ffffffffff620100008204169282019290925260ff600160381b8304166040820152600160401b909104600a90810b900b60608201526080019190915250600101613837565b805160008167ffffffffffffffff811180156138d857600080fd5b50604051908082528060200260200182016040528015613902578160200160208202803683370190505b50905060005b8281101561395f57600084828151811061391e57fe5b6020026020010151905061393f816000015182602001518360400151613b6e565b83838151811061394b57fe5b602090810291909101015250600101613908565b5060015b82811015613a7657805b6000811180156139a5575082818151811061398457fe5b602002602001015183600183038151811061399b57fe5b6020026020010151115b15613a6d578281815181106139b657fe5b60200260200101518360018303815181106139cd57fe5b60200260200101518460018403815181106139e457fe5b602002602001018584815181106139f757fe5b6020026020010182815250828152505050848181518110613a1457fe5b6020026020010151856001830381518110613a2b57fe5b6020026020010151866001840381518110613a4257fe5b60200260200101878481518110613a5557fe5b6020908102919091010191909152526000190161396d565b50600101613963565b50505050565b6000600282108015906102615750506008101590565b600080610261600c6130db565b600080610261600b6130db565b600062015180821015613abe57600080fd5b62015180826110ff565b600081613ad457600080fd5b600160801b8210613ae757608091821c91015b600160401b8210613afa57604091821c91015b6401000000008210613b0e57602091821c91015b620100008210613b2057601091821c91015b6101008210613b3157600891821c91015b60108210613b4157600491821c91015b60048210613b5157600291821c91015b6002821061054257600101919050565b600080610261600d6130db565b6000613fff841115613b7f57600080fd5b64ffffffffff831115613b9157600080fd5b6008821115613b9f57600080fd5b5067ffff000000000000603084901b1665ffffffffff00600884901b161760ff8216179392505050565b60405180610100016040528060008019168152602001600081526020016000815260200160008152602001600081526020016000815260200160008152602001600081525090565b6040518060e00160405280613c24613caa565b8152602001613c31613d5d565b815260006020820181905260408201819052606082018190526080820181905260a09091015290565b604051806101200160405280600061ffff16815260200160008152602001600081526020016000815260200160008152602001600081526020016000815260200160008152602001600081525090565b6040805160808101825260008082526020820152908101613cc9613d33565b8152600060209091015290565b6040805160a0810182526000808252602082018190529181018290529060608201908152602001600081525090565b6040805160a08101825260008082526020820181905291810182905260608101829052608081019190915290565b604051806060016040528060006001600160a01b0316815260200160008152602001600081525090565b6040518060800160405280606081526020016060815260200160008152602001600081525090565b6040518060c00160405280600081526020016000815260200160008152602001600081526020016000815260200160006003811115613dc057fe5b905290565b803561ffff8116811461054257600080fd5b60008060408385031215613de9578182fd5b82356001600160a01b0381168114613dff578283fd5b946020939093013593505050565b600060208284031215613e1e578081fd5b5051919050565b60008060008060808587031215613e3a578182fd5b613e4385613dc5565b9350602085013580600a0b8114613e58578283fd5b93969395505050506040820135916060013590565b600080600080600060a08688031215613e84578081fd5b613e8d86613dc5565b945060208601359350604086013592506060860135915060808601358015158114613eb6578182fd5b809150509295509295909350565b60008060408385031215613ed6578182fd5b613edf83613dc5565b915060208301356affffffffffffffffffffff81168114613efe578182fd5b809150509250929050565b6001600160a01b0391909116815260200190565b6001600160a01b0394909416845260208401929092526040830152606082015260800190565b90815260200190565b918252602082015260400190565b60208082526016908201527513585c9ad95d081b9bdd081a5b9a5d1a585b1a5e995960521b604082015260600190565b60208082526013908201527214995c5d5a5c995cc81cd95d1d1b195b595b9d606a1b604082015260600190565b6020808252600e908201526d4e6f20636f6e76657267656e636560901b604082015260600190565b60208082526015908201527410d1ce881b9bc81b585c9ad95d1cc81b1a5cdd1959605a1b604082015260600190565b6020808252600d908201526c092dcecc2d8d2c840d2dcc8caf609b1b604082015260600190565b60208082526016908201527510d1ce881b585c9ad95d081a5b99195e08189bdd5b9960521b604082015260600190565b6020808252600e908201526d125b9d985b1a59081b585c9ad95d60921b604082015260600190565b602080825260129082015271496e76616c696420626c6f636b2074696d6560701b604082015260600190565b602080825260139082015272125b9d985b1a590818dd5c9c995b98de481a59606a1b604082015260600190565b60208082526013908201527210d1ce881b9bc81b585c9ad95d08199bdd5b99606a1b60408201526060019056fe536166654d6174683a206d756c7469706c69636174696f6e206f766572666c6f77a26469706673582212209054cd7e622899fd52f1b0e96ce891752a28b897f6ef73a303363e09b45e5b9064736f6c63430007060033","language":"Solidity","natspec":{"methods":{"nTokenGetClaimableIncentives(address,uint256)":{"notice":"Returns the claimable incentives for all nToken balances","params":{"account":"The address of the account which holds the tokens","blockTime":"The block time when incentives will be minted"},"returns":{"_0":"Incentives an account is eligible to claim"}},"calculateNTokensToMint(uint16,uint88)":{"notice":"Returns the nTokens that will be minted when some amount of asset tokens are deposited"},"getfCashAmountGivenCashAmount(uint16,int88,uint256,uint256)":{"notice":"Returns the fCash amount to send when given a cash amount, be sure to buffer these amounts slightly because the liquidity curve is sensitive to changes in block time"},"getLibInfo()":{"notice":"Get a list of deployed library addresses (sorted by library name)"},"getCashAmountGivenfCashAmount(uint16,int88,uint256,uint256)":{"notice":"Returns the cash amount that will be traded given an fCash amount, be sure to buffer these amounts slightly because the liquidity curve is sensitive to changes in block time"}},"kind":"dev","version":1},"opcodes":"PUSH1 0x80 PUSH1 0x40 MSTORE CALLVALUE DUP1 ISZERO PUSH2 0x10 JUMPI PUSH1 0x0 DUP1 REVERT JUMPDEST POP PUSH1 0x4 CALLDATASIZE LT PUSH2 0x93 JUMPI PUSH1 0x0 CALLDATALOAD PUSH1 0xE0 SHR DUP1 PUSH4 0x8355E895 GT PUSH2 0x66 JUMPI DUP1 PUSH4 0x8355E895 EQ PUSH2 0xFF JUMPI DUP1 PUSH4 0x8DA5CB5B EQ PUSH2 0x112 JUMPI DUP1 PUSH4 0x97D6DB2E EQ PUSH2 0x11A JUMPI DUP1 PUSH4 0xC4C96DAE EQ PUSH2 0x12D JUMPI DUP1 PUSH4 0xC52C43E1 EQ PUSH2 0x135 JUMPI PUSH2 0x93 JUMP JUMPDEST DUP1 PUSH4 0x94614DF EQ PUSH2 0x98 JUMPI DUP1 PUSH4 0x24A3D622 EQ PUSH2 0xC2 JUMPI DUP1 PUSH4 0x6A09A2A3 EQ PUSH2 0xD7 JUMPI DUP1 PUSH4 0x82463367 EQ PUSH2 0xF7 JUMPI JUMPDEST PUSH1 0x0 DUP1 REVERT JUMPDEST PUSH2 0xAB PUSH2 0xA6 CALLDATASIZE PUSH1 0x4 PUSH2 0x3E25 JUMP JUMPDEST PUSH2 0x148 JUMP JUMPDEST PUSH1 0x40 MLOAD PUSH2 0xB9 SWAP3 SWAP2 SWAP1 PUSH2 0x3F4C JUMP JUMPDEST PUSH1 0x40 MLOAD DUP1 SWAP2 SUB SWAP1 RETURN JUMPDEST PUSH2 0xCA PUSH2 0x1EA JUMP JUMPDEST PUSH1 0x40 MLOAD PUSH2 0xB9 SWAP2 SWAP1 PUSH2 0x3F09 JUMP JUMPDEST PUSH2 0xEA PUSH2 0xE5 CALLDATASIZE PUSH1 0x4 PUSH2 0x3EC4 JUMP JUMPDEST PUSH2 0x1F9 JUMP JUMPDEST PUSH1 0x40 MLOAD PUSH2 0xB9 SWAP2 SWAP1 PUSH2 0x3F43 JUMP JUMPDEST PUSH2 0xCA PUSH2 0x267 JUMP JUMPDEST PUSH2 0xEA PUSH2 0x10D CALLDATASIZE PUSH1 0x4 PUSH2 0x3E25 JUMP JUMPDEST PUSH2 0x276 JUMP JUMPDEST PUSH2 0xCA PUSH2 0x324 JUMP JUMPDEST PUSH2 0xEA PUSH2 0x128 CALLDATASIZE PUSH1 0x4 PUSH2 0x3DD7 JUMP JUMPDEST PUSH2 0x33B JUMP JUMPDEST PUSH2 0xCA PUSH2 0x473 JUMP JUMPDEST PUSH2 0xEA PUSH2 0x143 CALLDATASIZE PUSH1 0x4 PUSH2 0x3E6D JUMP JUMPDEST PUSH2 0x48B JUMP JUMPDEST PUSH1 0x0 DUP1 PUSH2 0x154 DUP7 PUSH2 0x4DE JUMP JUMPDEST PUSH1 0x0 PUSH2 0x15F DUP8 PUSH2 0x51B JUMP JUMPDEST SWAP1 POP PUSH2 0x169 PUSH2 0x3BC9 JUMP JUMPDEST PUSH2 0x177 DUP3 DUP3 DUP9 PUSH1 0x0 DUP10 PUSH2 0x547 JUMP JUMPDEST DUP5 DUP2 PUSH1 0x20 ADD MLOAD GT PUSH2 0x1A3 JUMPI PUSH1 0x40 MLOAD PUSH3 0x461BCD PUSH1 0xE5 SHL DUP2 MSTORE PUSH1 0x4 ADD PUSH2 0x19A SWAP1 PUSH2 0x408D JUMP JUMPDEST PUSH1 0x40 MLOAD DUP1 SWAP2 SUB SWAP1 REVERT JUMPDEST PUSH1 0x20 DUP2 ADD MLOAD DUP6 SWAP1 SUB PUSH1 0x0 PUSH2 0x1BE DUP4 DUP6 PUSH1 0xA DUP13 SWAP1 SIGNEXTEND DUP6 DUP13 PUSH2 0x5C2 JUMP JUMPDEST POP SWAP1 POP DUP1 PUSH2 0x1D9 DUP3 DUP7 PUSH1 0x40 ADD MLOAD PUSH2 0x6C6 SWAP1 SWAP2 SWAP1 PUSH4 0xFFFFFFFF AND JUMP JUMPDEST SWAP6 POP SWAP6 POP POP POP POP POP SWAP5 POP SWAP5 SWAP3 POP POP POP JUMP JUMPDEST PUSH1 0x2 SLOAD PUSH1 0x1 PUSH1 0x1 PUSH1 0xA0 SHL SUB AND DUP2 JUMP JUMPDEST PUSH1 0x0 PUSH2 0x204 DUP4 PUSH2 0x4DE JUMP JUMPDEST PUSH1 0x0 PUSH2 0x213 DUP5 PUSH2 0xFFFF AND PUSH2 0x6F7 JUMP JUMPDEST SWAP1 POP PUSH1 0x0 PUSH2 0x22E DUP3 PUSH11 0xFFFFFFFFFFFFFFFFFFFFFF DUP7 AND PUSH2 0x70A JUMP JUMPDEST SWAP1 POP PUSH2 0x238 PUSH2 0x3C11 JUMP JUMPDEST PUSH2 0x242 DUP2 DUP8 PUSH2 0x741 JUMP JUMPDEST PUSH1 0x0 PUSH2 0x24F DUP3 DUP5 TIMESTAMP PUSH2 0x75A JUMP JUMPDEST SWAP1 POP PUSH2 0x25A DUP2 PUSH2 0x800 JUMP JUMPDEST SWAP5 POP POP POP POP POP JUMPDEST SWAP3 SWAP2 POP POP JUMP JUMPDEST PUSH1 0x1 SLOAD PUSH1 0x1 PUSH1 0x1 PUSH1 0xA0 SHL SUB AND DUP2 JUMP JUMPDEST PUSH1 0x0 PUSH2 0x281 DUP6 PUSH2 0x4DE JUMP JUMPDEST PUSH1 0x0 PUSH2 0x28C DUP7 PUSH2 0x51B JUMP JUMPDEST SWAP1 POP PUSH2 0x296 PUSH2 0x3BC9 JUMP JUMPDEST PUSH2 0x2A4 DUP3 DUP3 DUP8 PUSH1 0x0 DUP9 PUSH2 0x547 JUMP JUMPDEST DUP4 DUP2 PUSH1 0x20 ADD MLOAD GT PUSH2 0x2C7 JUMPI PUSH1 0x40 MLOAD PUSH3 0x461BCD PUSH1 0xE5 SHL DUP2 MSTORE PUSH1 0x4 ADD PUSH2 0x19A SWAP1 PUSH2 0x408D JUMP JUMPDEST PUSH1 0x20 DUP2 ADD MLOAD DUP5 SWAP1 SUB PUSH1 0x0 DUP1 DUP1 PUSH2 0x2DF DUP6 DUP8 DUP7 DUP13 PUSH2 0x85B JUMP JUMPDEST SWAP3 POP SWAP3 POP SWAP3 POP PUSH1 0x0 PUSH2 0x2F9 PUSH2 0x2F3 DUP9 PUSH2 0x8FD JUMP JUMPDEST DUP7 PUSH2 0x912 JUMP JUMPDEST SWAP1 POP PUSH2 0x312 DUP7 PUSH1 0x40 ADD MLOAD DUP13 PUSH1 0xA SIGNEXTEND DUP6 DUP8 DUP7 DUP7 PUSH1 0x0 PUSH2 0x983 JUMP JUMPDEST SWAP8 POP POP POP POP POP POP POP POP JUMPDEST SWAP5 SWAP4 POP POP POP POP JUMP JUMPDEST PUSH1 0x0 SLOAD PUSH5 0x100000000 SWAP1 DIV PUSH1 0x1 PUSH1 0x1 PUSH1 0xA0 SHL SUB AND DUP2 JUMP JUMPDEST PUSH1 0x0 DUP1 PUSH2 0x347 DUP5 PUSH2 0xA38 JUMP JUMPDEST SWAP1 POP PUSH2 0x351 PUSH2 0x3C5A JUMP JUMPDEST PUSH1 0x0 PUSH2 0x35C DUP4 PUSH2 0xADF JUMP JUMPDEST ISZERO PUSH2 0x3D2 JUMPI PUSH1 0x60 DUP4 ADD MLOAD PUSH2 0x374 SWAP1 DUP4 SWAP1 DUP9 SWAP1 DUP7 PUSH2 0xAEC JUMP JUMPDEST PUSH1 0x0 DUP3 PUSH1 0x40 ADD MLOAD SGT ISZERO PUSH2 0x3D2 JUMPI PUSH1 0x0 PUSH2 0x394 DUP4 PUSH1 0x0 ADD MLOAD PUSH2 0xFFFF AND PUSH2 0xB92 JUMP JUMPDEST SWAP1 POP PUSH1 0x0 PUSH2 0x3A2 DUP3 DUP9 PUSH2 0xBB8 JUMP JUMPDEST POP SWAP2 POP POP PUSH1 0x0 PUSH2 0x3C0 DUP6 DUP5 DUP5 PUSH2 0x3BB DUP10 PUSH1 0x40 ADD MLOAD PUSH2 0xC4E JUMP JUMPDEST PUSH2 0xC5D JUMP JUMPDEST SWAP1 POP PUSH2 0x3CC DUP5 DUP3 PUSH2 0xD84 JUMP JUMPDEST SWAP4 POP POP POP POP JUMPDEST PUSH1 0x80 DUP4 ADD MLOAD JUMPDEST PUSH1 0x1 PUSH1 0x1 PUSH1 0x70 SHL SUB NOT DUP2 AND ISZERO PUSH2 0x469 JUMPI PUSH1 0xF0 DUP2 SWAP1 SHR PUSH2 0x3FFF AND PUSH2 0x3FD DUP5 DUP10 DUP4 DUP9 PUSH2 0xAEC JUMP JUMPDEST PUSH1 0x0 DUP5 PUSH1 0x40 ADD MLOAD SGT ISZERO PUSH2 0x456 JUMPI PUSH1 0x0 PUSH2 0x41D DUP6 PUSH1 0x0 ADD MLOAD PUSH2 0xFFFF AND PUSH2 0xB92 JUMP JUMPDEST SWAP1 POP PUSH1 0x0 PUSH2 0x42B DUP3 DUP11 PUSH2 0xBB8 JUMP JUMPDEST POP SWAP2 POP POP PUSH1 0x0 PUSH2 0x444 DUP8 DUP5 DUP5 PUSH2 0x3BB DUP12 PUSH1 0x40 ADD MLOAD PUSH2 0xC4E JUMP JUMPDEST SWAP1 POP PUSH2 0x450 DUP7 DUP3 PUSH2 0xD84 JUMP JUMPDEST SWAP6 POP POP POP POP JUMPDEST POP PUSH1 0x10 SHL PUSH1 0x1 PUSH1 0x1 PUSH1 0x80 SHL SUB NOT AND PUSH2 0x3D8 JUMP JUMPDEST POP SWAP6 SWAP5 POP POP POP POP POP JUMP JUMPDEST PUSH20 0x0 SWAP1 JUMP JUMPDEST PUSH1 0x0 DUP1 PUSH2 0x497 DUP8 PUSH2 0x51B JUMP JUMPDEST SWAP1 POP DUP3 ISZERO PUSH2 0x4BD JUMPI PUSH2 0x4B6 DUP2 DUP7 DUP9 DUP8 PUSH2 0x4B1 DUP5 DUP4 DUP4 PUSH2 0xDDE JUMP JUMPDEST PUSH2 0xECE JUMP JUMPDEST SWAP2 POP PUSH2 0x469 JUMP JUMPDEST PUSH2 0x4D3 DUP6 DUP8 DUP7 PUSH2 0x4CE DUP6 DUP4 DUP4 PUSH2 0xDDE JUMP JUMPDEST PUSH2 0xF6E JUMP JUMPDEST SWAP8 SWAP7 POP POP POP POP POP POP POP JUMP JUMPDEST DUP1 PUSH2 0xFFFF AND PUSH1 0x0 LT DUP1 ISZERO PUSH2 0x4FC JUMPI POP PUSH1 0x0 SLOAD PUSH2 0xFFFF SWAP1 DUP2 AND SWAP1 DUP3 AND GT ISZERO JUMPDEST PUSH2 0x518 JUMPI PUSH1 0x40 MLOAD PUSH3 0x461BCD PUSH1 0xE5 SHL DUP2 MSTORE PUSH1 0x4 ADD PUSH2 0x19A SWAP1 PUSH2 0x40B9 JUMP JUMPDEST POP JUMP JUMPDEST PUSH2 0x523 PUSH2 0x3CAA JUMP JUMPDEST PUSH1 0x0 PUSH2 0x532 DUP4 PUSH2 0xFFFF AND PUSH2 0xFB4 JUMP JUMPDEST SWAP1 POP PUSH2 0x53E DUP4 DUP3 PUSH2 0x1000 JUMP JUMPDEST SWAP2 POP POP JUMPDEST SWAP2 SWAP1 POP JUMP JUMPDEST DUP3 PUSH1 0x1 GT ISZERO DUP1 ISZERO PUSH2 0x55C JUMPI POP DUP5 PUSH1 0x20 ADD MLOAD DUP4 GT ISZERO JUMPDEST PUSH2 0x578 JUMPI PUSH1 0x40 MLOAD PUSH3 0x461BCD PUSH1 0xE5 SHL DUP2 MSTORE PUSH1 0x4 ADD PUSH2 0x19A SWAP1 PUSH2 0x4065 JUMP JUMPDEST PUSH1 0x0 PUSH2 0x595 PUSH2 0x586 DUP6 PUSH2 0x1043 JUMP JUMPDEST PUSH2 0x58F DUP5 PUSH2 0x10E7 JUMP JUMPDEST SWAP1 PUSH2 0xD84 JUMP JUMPDEST SWAP1 POP PUSH2 0x5BA DUP7 PUSH1 0x0 ADD MLOAD PUSH2 0xFFFF AND DUP3 DUP5 DUP7 PUSH2 0x5AF DUP12 PUSH2 0x1108 JUMP JUMPDEST DUP11 SWAP5 SWAP4 SWAP3 SWAP2 SWAP1 PUSH2 0x111C JUMP JUMPDEST POP POP POP POP POP POP JUMP JUMPDEST PUSH1 0x0 DUP1 DUP5 DUP8 PUSH1 0x40 ADD MLOAD SGT PUSH2 0x5DB JUMPI POP PUSH1 0x0 SWAP1 POP DUP1 PUSH2 0x6BC JUMP JUMPDEST PUSH1 0x0 DUP1 PUSH1 0x0 PUSH2 0x5EC DUP11 DUP11 DUP10 DUP10 PUSH2 0x85B JUMP JUMPDEST SWAP3 POP SWAP3 POP SWAP3 POP PUSH1 0x0 DUP1 PUSH2 0x606 DUP13 PUSH1 0x40 ADD MLOAD DUP6 DUP8 DUP7 DUP15 PUSH2 0x1146 JUMP JUMPDEST SWAP1 SWAP3 POP SWAP1 POP DUP1 PUSH2 0x621 JUMPI PUSH1 0x0 DUP1 SWAP7 POP SWAP7 POP POP POP POP POP POP PUSH2 0x6BC JUMP JUMPDEST POP PUSH1 0x0 DUP1 PUSH1 0x0 PUSH2 0x633 DUP14 DUP6 DUP15 DUP15 PUSH2 0x11F2 JUMP JUMPDEST SWAP3 POP SWAP3 POP SWAP3 POP DUP3 PUSH1 0x0 EQ ISZERO PUSH2 0x655 JUMPI PUSH1 0x0 DUP1 SWAP9 POP SWAP9 POP POP POP POP POP POP POP POP PUSH2 0x6BC JUMP JUMPDEST PUSH1 0x40 DUP15 ADD MLOAD PUSH2 0x664 SWAP1 DUP14 PUSH2 0x12DD JUMP JUMPDEST PUSH1 0x40 DUP16 ADD DUP2 SWAP1 MSTORE PUSH2 0x681 SWAP1 PUSH2 0x679 DUP9 DUP6 PUSH2 0x12F9 JUMP JUMPDEST DUP10 DUP9 DUP16 PUSH2 0x130F JUMP JUMPDEST PUSH1 0xA0 DUP16 ADD DUP2 SWAP1 MSTORE PUSH2 0x69F JUMPI PUSH1 0x0 DUP1 SWAP9 POP SWAP9 POP POP POP POP POP POP POP POP PUSH2 0x6BC JUMP JUMPDEST PUSH2 0x6B0 DUP15 DUP15 PUSH1 0x40 ADD MLOAD DUP6 DUP6 DUP6 PUSH2 0x13CC JUMP JUMPDEST SWAP9 POP SWAP9 POP POP POP POP POP POP POP POP JUMPDEST SWAP6 POP SWAP6 SWAP4 POP POP POP POP JUMP JUMPDEST PUSH1 0x0 DUP1 PUSH2 0x31C DUP5 PUSH1 0x40 ADD MLOAD PUSH2 0x6F1 PUSH5 0x2540BE400 PUSH2 0x6F1 DUP8 DUP10 PUSH1 0x20 ADD MLOAD PUSH2 0x1421 SWAP1 SWAP2 SWAP1 PUSH4 0xFFFFFFFF AND JUMP JUMPDEST SWAP1 PUSH2 0x146F JUMP JUMPDEST PUSH2 0x6FF PUSH2 0x3CD6 JUMP JUMPDEST PUSH2 0x261 DUP3 PUSH1 0x0 PUSH2 0x14A0 JUMP JUMPDEST PUSH1 0x0 PUSH4 0x5F5E100 DUP4 PUSH1 0x40 ADD MLOAD EQ ISZERO PUSH2 0x723 JUMPI POP DUP1 PUSH2 0x261 JUMP JUMPDEST PUSH1 0x40 DUP4 ADD MLOAD PUSH2 0x73A SWAP1 PUSH2 0x6F1 DUP5 PUSH4 0x5F5E100 PUSH2 0x1421 JUMP JUMPDEST SWAP4 SWAP3 POP POP POP JUMP JUMPDEST PUSH2 0x74B DUP3 DUP3 PUSH2 0x154E JUMP JUMPDEST PUSH2 0x754 DUP2 PUSH2 0x51B JUMP JUMPDEST SWAP1 SWAP2 MSTORE POP JUMP JUMPDEST PUSH1 0x0 DUP1 DUP4 SLT ISZERO PUSH2 0x769 JUMPI PUSH1 0x0 DUP1 REVERT JUMPDEST DUP3 PUSH2 0x776 JUMPI POP PUSH1 0x0 PUSH2 0x73A JUMP JUMPDEST PUSH1 0x80 DUP5 ADD MLOAD ISZERO PUSH2 0x7AE JUMPI PUSH1 0x0 PUSH2 0x78B DUP6 PUSH2 0x15F1 JUMP JUMPDEST SWAP1 POP DUP3 DUP2 GT PUSH2 0x7AC JUMPI PUSH1 0x40 MLOAD PUSH3 0x461BCD PUSH1 0xE5 SHL DUP2 MSTORE PUSH1 0x4 ADD PUSH2 0x19A SWAP1 PUSH2 0x3F8A JUMP JUMPDEST POP JUMPDEST PUSH1 0x0 PUSH2 0x7BA DUP6 DUP5 PUSH2 0x1622 JUMP JUMPDEST SWAP1 POP PUSH1 0x0 DUP2 SLT ISZERO PUSH2 0x7CA JUMPI PUSH1 0x0 DUP1 REVERT JUMPDEST PUSH1 0x40 DUP6 ADD MLOAD PUSH2 0x7DC JUMPI DUP4 SWAP2 POP POP PUSH2 0x73A JUMP JUMPDEST PUSH2 0x7F7 DUP2 PUSH2 0x6F1 DUP8 PUSH1 0x40 ADD MLOAD DUP8 PUSH2 0x1421 SWAP1 SWAP2 SWAP1 PUSH4 0xFFFFFFFF AND JUMP JUMPDEST SWAP6 SWAP5 POP POP POP POP POP JUMP JUMPDEST PUSH1 0x0 DUP1 DUP3 SLT ISZERO PUSH2 0x857 JUMPI PUSH1 0x40 DUP1 MLOAD PUSH3 0x461BCD PUSH1 0xE5 SHL DUP2 MSTORE PUSH1 0x20 PUSH1 0x4 DUP3 ADD DUP2 SWAP1 MSTORE PUSH1 0x24 DUP3 ADD MSTORE PUSH32 0x53616665436173743A2076616C7565206D75737420626520706F736974697665 PUSH1 0x44 DUP3 ADD MSTORE SWAP1 MLOAD SWAP1 DUP2 SWAP1 SUB PUSH1 0x64 ADD SWAP1 REVERT JUMPDEST POP SWAP1 JUMP JUMPDEST PUSH1 0x0 DUP1 DUP1 DUP1 PUSH2 0x86B DUP8 DUP7 DUP9 PUSH2 0x16D3 JUMP JUMPDEST SWAP1 POP PUSH1 0x0 PUSH2 0x88A DUP10 PUSH1 0x60 ADD MLOAD DUP10 PUSH1 0x40 ADD MLOAD PUSH2 0x6C6 SWAP1 SWAP2 SWAP1 PUSH4 0xFFFFFFFF AND JUMP JUMPDEST SWAP1 POP DUP9 PUSH1 0x40 ADD MLOAD PUSH1 0x0 EQ DUP1 PUSH2 0x89D JUMPI POP DUP1 ISZERO JUMPDEST ISZERO PUSH2 0x8B4 JUMPI PUSH1 0x0 DUP1 PUSH1 0x0 SWAP5 POP SWAP5 POP SWAP5 POP POP POP PUSH2 0x8F3 JUMP JUMPDEST PUSH1 0x0 DUP1 PUSH2 0x8CC DUP12 PUSH1 0x40 ADD MLOAD DUP13 PUSH1 0xA0 ADD MLOAD DUP6 DUP8 DUP14 PUSH2 0x1745 JUMP JUMPDEST SWAP1 SWAP3 POP SWAP1 POP DUP1 PUSH2 0x8EA JUMPI PUSH1 0x0 DUP1 PUSH1 0x0 SWAP7 POP SWAP7 POP SWAP7 POP POP POP POP POP PUSH2 0x8F3 JUMP JUMPDEST POP SWAP2 SWAP5 POP SWAP3 POP SWAP1 POP JUMPDEST SWAP5 POP SWAP5 POP SWAP5 SWAP2 POP POP JUMP JUMPDEST PUSH1 0x60 ADD MLOAD PUSH3 0x186A0 PUSH1 0x10 SWAP2 SWAP1 SWAP2 SHR PUSH1 0xFF AND MUL SWAP1 JUMP JUMPDEST PUSH1 0x0 DUP1 PUSH2 0x935 PUSH2 0x930 PUSH4 0x1DA9C00 PUSH2 0x92A DUP8 DUP8 PUSH2 0x17D5 JUMP JUMPDEST SWAP1 PUSH2 0x182E JUMP JUMPDEST PUSH2 0x1895 JUMP JUMPDEST SWAP1 POP PUSH1 0x0 PUSH2 0x949 DUP3 PUSH3 0x1DCD65 PUSH1 0x49 SHL PUSH2 0x18B3 JUMP JUMPDEST SWAP1 POP PUSH1 0x0 PUSH2 0x956 DUP3 PUSH2 0x1906 JUMP JUMPDEST SWAP1 POP PUSH1 0x0 PUSH2 0x96A DUP3 PUSH3 0x1DCD65 PUSH1 0x49 SHL PUSH2 0x195B JUMP JUMPDEST SWAP1 POP PUSH2 0x975 DUP2 PUSH2 0x1991 JUMP JUMPDEST PUSH1 0x7 SIGNEXTEND SWAP8 SWAP7 POP POP POP POP POP POP POP JUMP JUMPDEST PUSH1 0x0 DUP1 DUP3 SLT ISZERO PUSH2 0x992 JUMPI PUSH1 0x0 DUP1 REVERT JUMPDEST PUSH1 0x0 PUSH2 0x9A6 PUSH2 0x9A1 DUP10 DUP8 PUSH2 0x199A JUMP JUMPDEST PUSH2 0x19B3 JUMP JUMPDEST SWAP1 POP PUSH1 0x0 JUMPDEST PUSH1 0xFA DUP2 PUSH1 0xFF AND LT ISZERO PUSH2 0xA1F JUMPI PUSH1 0x0 DUP1 PUSH2 0x9C7 DUP13 DUP12 DUP12 DUP12 DUP9 PUSH2 0x1146 JUMP JUMPDEST SWAP2 POP SWAP2 POP DUP1 PUSH2 0x9D5 JUMPI PUSH1 0x0 DUP1 REVERT JUMPDEST PUSH1 0x0 PUSH2 0x9E6 DUP13 DUP15 DUP14 DUP14 DUP10 DUP9 DUP15 PUSH2 0x19C1 JUMP JUMPDEST SWAP1 POP DUP7 PUSH2 0x9F2 DUP3 PUSH2 0x1AC5 JUMP JUMPDEST SGT PUSH2 0xA04 JUMPI DUP5 SWAP6 POP POP POP POP POP POP PUSH2 0x4D3 JUMP JUMPDEST PUSH2 0xA0E DUP6 DUP3 PUSH2 0x1AE6 JUMP JUMPDEST SWAP5 POP POP PUSH1 0x1 SWAP1 SWAP3 ADD SWAP2 POP PUSH2 0x9AB SWAP1 POP JUMP JUMPDEST POP PUSH1 0x40 MLOAD PUSH3 0x461BCD PUSH1 0xE5 SHL DUP2 MSTORE PUSH1 0x4 ADD PUSH2 0x19A SWAP1 PUSH2 0x3FB7 JUMP JUMPDEST PUSH2 0xA40 PUSH2 0x3D05 JUMP JUMPDEST PUSH1 0x0 PUSH2 0xA4A PUSH2 0x1AFC JUMP JUMPDEST PUSH1 0x1 PUSH1 0x1 PUSH1 0xA0 SHL SUB SWAP4 SWAP1 SWAP4 AND PUSH1 0x0 SWAP1 DUP2 MSTORE PUSH1 0x20 SWAP4 DUP5 MSTORE PUSH1 0x40 SWAP1 DUP2 SWAP1 KECCAK256 DUP2 MLOAD PUSH1 0xA0 DUP2 ADD DUP4 MSTORE SWAP1 SLOAD PUSH5 0xFFFFFFFFFF DUP2 AND DUP3 MSTORE PUSH6 0x10000000000 DUP2 DIV PUSH1 0xF8 SHL PUSH1 0x1 PUSH1 0x1 PUSH1 0xF8 SHL SUB NOT AND SWAP6 DUP3 ADD SWAP6 SWAP1 SWAP6 MSTORE PUSH1 0x1 PUSH1 0x30 SHL DUP6 DIV PUSH1 0xFF AND SWAP2 DUP2 ADD SWAP2 SWAP1 SWAP2 MSTORE PUSH1 0x1 PUSH1 0x38 SHL DUP5 DIV PUSH2 0xFFFF AND PUSH1 0x60 DUP3 ADD MSTORE PUSH10 0x1000000000000000000 SWAP1 SWAP4 DIV PUSH1 0x70 SHL PUSH1 0x1 PUSH1 0x1 PUSH1 0x70 SHL SUB NOT AND PUSH1 0x80 DUP5 ADD MSTORE POP SWAP1 SWAP2 SWAP1 POP JUMP JUMPDEST PUSH1 0x60 ADD MLOAD PUSH2 0xFFFF AND ISZERO ISZERO SWAP1 JUMP JUMPDEST DUP2 PUSH2 0xFFFF AND PUSH1 0x0 LT DUP1 ISZERO PUSH2 0xB06 JUMPI POP PUSH2 0x3FFF PUSH2 0xFFFF DUP4 AND GT ISZERO JUMPDEST PUSH2 0xB0F JUMPI PUSH1 0x0 DUP1 REVERT JUMPDEST PUSH2 0xFFFF DUP3 AND DUP1 DUP6 MSTORE PUSH2 0xB22 SWAP1 DUP3 SWAP1 PUSH2 0x1B09 JUMP JUMPDEST ISZERO PUSH2 0xB4F JUMPI PUSH2 0xB35 DUP4 DUP4 PUSH2 0xFFFF AND PUSH2 0x1B93 JUMP JUMPDEST PUSH2 0x100 DUP9 ADD MSTORE PUSH1 0xE0 DUP8 ADD MSTORE PUSH1 0x40 DUP7 ADD MSTORE PUSH1 0x20 DUP6 ADD MSTORE PUSH2 0xB6D JUMP JUMPDEST PUSH1 0x0 PUSH1 0x20 DUP6 ADD DUP2 SWAP1 MSTORE PUSH1 0x40 DUP6 ADD DUP2 SWAP1 MSTORE PUSH1 0xE0 DUP6 ADD DUP2 SWAP1 MSTORE PUSH2 0x100 DUP6 ADD MSTORE JUMPDEST POP POP PUSH1 0x0 PUSH1 0x60 DUP4 ADD DUP2 SWAP1 MSTORE PUSH1 0x80 DUP4 ADD DUP2 SWAP1 MSTORE PUSH1 0xA0 DUP4 ADD DUP2 SWAP1 MSTORE PUSH1 0xC0 SWAP1 SWAP3 ADD SWAP2 SWAP1 SWAP2 MSTORE POP JUMP JUMPDEST PUSH1 0x0 DUP1 PUSH2 0xB9D PUSH2 0x1C3F JUMP JUMPDEST PUSH1 0x0 SWAP4 DUP5 MSTORE PUSH1 0x20 MSTORE POP POP PUSH1 0x40 SWAP1 KECCAK256 SLOAD PUSH1 0x1 PUSH1 0x1 PUSH1 0xA0 SHL SUB AND SWAP1 JUMP JUMPDEST PUSH1 0x0 DUP1 PUSH1 0x0 PUSH2 0xBC6 DUP6 PUSH2 0x1C4C JUMP JUMPDEST SWAP2 SWAP5 POP SWAP3 POP SWAP1 POP DUP1 DUP5 GT DUP1 ISZERO PUSH2 0xBDC JUMPI POP PUSH1 0x0 DUP2 GT JUMPDEST DUP1 ISZERO PUSH2 0xBE8 JUMPI POP PUSH1 0x0 DUP4 GT JUMPDEST ISZERO PUSH2 0xC47 JUMPI PUSH1 0x0 PUSH2 0xBF8 DUP7 PUSH2 0x1CAD JUMP JUMPDEST POP POP POP SWAP2 POP POP PUSH1 0x0 PUSH2 0xC23 PUSH2 0xC1A PUSH4 0x5F5E100 DUP5 PUSH2 0x17D5 SWAP1 SWAP2 SWAP1 PUSH4 0xFFFFFFFF AND JUMP JUMPDEST DUP5 DUP9 SUB DUP8 PUSH2 0x1D16 JUMP JUMPDEST SWAP1 POP PUSH2 0xC2F DUP5 DUP3 PUSH2 0xD84 JUMP JUMPDEST SWAP4 POP PUSH1 0x1 PUSH1 0x1 PUSH1 0x80 SHL SUB DUP5 LT PUSH2 0xC44 JUMPI PUSH1 0x0 DUP1 REVERT JUMPDEST POP POP JUMPDEST SWAP3 POP SWAP3 POP SWAP3 JUMP JUMPDEST PUSH1 0x0 DUP1 DUP3 SLT ISZERO PUSH2 0x857 JUMPI PUSH1 0x0 DUP1 REVERT JUMPDEST PUSH1 0xE0 DUP5 ADD MLOAD PUSH1 0x0 SWAP1 ISZERO PUSH2 0xD1E JUMPI PUSH20 0x0 PUSH4 0xE0C01A72 DUP6 PUSH2 0xC92 DUP9 PUSH1 0x40 ADD MLOAD PUSH2 0xC4E JUMP JUMPDEST DUP9 PUSH1 0xE0 ADD MLOAD DUP10 PUSH2 0x100 ADD MLOAD PUSH1 0x40 MLOAD DUP6 PUSH4 0xFFFFFFFF AND PUSH1 0xE0 SHL DUP2 MSTORE PUSH1 0x4 ADD PUSH2 0xCBC SWAP5 SWAP4 SWAP3 SWAP2 SWAP1 PUSH2 0x3F1D JUMP JUMPDEST PUSH1 0x20 PUSH1 0x40 MLOAD DUP1 DUP4 SUB DUP2 DUP7 DUP1 EXTCODESIZE ISZERO DUP1 ISZERO PUSH2 0xCD4 JUMPI PUSH1 0x0 DUP1 REVERT JUMPDEST POP GAS DELEGATECALL ISZERO DUP1 ISZERO PUSH2 0xCE8 JUMPI RETURNDATASIZE PUSH1 0x0 DUP1 RETURNDATACOPY RETURNDATASIZE PUSH1 0x0 REVERT JUMPDEST POP POP POP POP PUSH1 0x40 MLOAD RETURNDATASIZE PUSH1 0x1F NOT PUSH1 0x1F DUP3 ADD AND DUP3 ADD DUP1 PUSH1 0x40 MSTORE POP DUP2 ADD SWAP1 PUSH2 0xD0C SWAP2 SWAP1 PUSH2 0x3E0D JUMP JUMPDEST PUSH1 0x0 PUSH1 0xE0 DUP8 ADD DUP2 SWAP1 MSTORE PUSH2 0x100 DUP8 ADD MSTORE SWAP1 POP JUMPDEST PUSH2 0xD5A PUSH2 0xD53 DUP7 PUSH2 0x100 ADD MLOAD PUSH2 0xD4D PUSH8 0xDE0B6B3A7640000 PUSH2 0x92A DUP9 PUSH2 0xD47 DUP13 PUSH1 0x40 ADD MLOAD PUSH2 0xC4E JUMP JUMPDEST SWAP1 PUSH2 0x17D5 JUMP JUMPDEST SWAP1 PUSH2 0x1D38 JUMP JUMPDEST DUP3 SWAP1 PUSH2 0xD84 JUMP JUMPDEST SWAP1 POP PUSH2 0xD72 PUSH8 0xDE0B6B3A7640000 PUSH2 0x92A DUP5 DUP7 PUSH2 0x17D5 JUMP JUMPDEST DUP6 PUSH2 0x100 ADD DUP2 DUP2 MSTORE POP POP SWAP5 SWAP4 POP POP POP POP JUMP JUMPDEST PUSH1 0x0 DUP3 DUP3 ADD DUP4 DUP2 LT ISZERO PUSH2 0x73A JUMPI PUSH1 0x40 DUP1 MLOAD PUSH3 0x461BCD PUSH1 0xE5 SHL DUP2 MSTORE PUSH1 0x20 PUSH1 0x4 DUP3 ADD MSTORE PUSH1 0x1B PUSH1 0x24 DUP3 ADD MSTORE PUSH32 0x536166654D6174683A206164646974696F6E206F766572666C6F770000000000 PUSH1 0x44 DUP3 ADD MSTORE SWAP1 MLOAD SWAP1 DUP2 SWAP1 SUB PUSH1 0x64 ADD SWAP1 REVERT JUMPDEST PUSH1 0x0 DUP1 PUSH1 0x0 PUSH2 0xDF2 DUP7 PUSH1 0x20 ADD MLOAD DUP7 DUP7 PUSH2 0x1D95 JUMP JUMPDEST SWAP2 POP SWAP2 POP PUSH1 0x0 PUSH2 0xE01 DUP8 PUSH2 0x1108 JUMP JUMPDEST SWAP1 POP DUP2 PUSH2 0xE24 JUMPI DUP7 MLOAD PUSH2 0xE1A SWAP1 PUSH2 0xFFFF AND DUP8 DUP4 DUP9 PUSH2 0x1E5D JUMP JUMPDEST SWAP4 POP POP POP POP PUSH2 0x73A JUMP JUMPDEST PUSH1 0x0 PUSH2 0xE2F DUP7 PUSH2 0x10E7 JUMP JUMPDEST SWAP1 POP PUSH1 0x0 PUSH2 0xE46 PUSH2 0xE3F DUP7 PUSH2 0x1043 JUMP JUMPDEST DUP4 SWAP1 PUSH2 0xD84 JUMP JUMPDEST SWAP1 POP PUSH1 0x0 PUSH2 0xE5E DUP11 PUSH1 0x0 ADD MLOAD PUSH2 0xFFFF AND DUP4 DUP7 DUP12 PUSH2 0x1E5D JUMP JUMPDEST SWAP1 POP PUSH1 0x0 DUP1 DUP8 PUSH1 0x1 EQ ISZERO PUSH2 0xE83 JUMPI DUP10 SWAP2 POP PUSH2 0xE7C DUP13 PUSH1 0x40 ADD MLOAD PUSH2 0x1EED JUMP JUMPDEST SWAP1 POP PUSH2 0xEB2 JUMP JUMPDEST PUSH2 0xE99 PUSH2 0xE92 PUSH1 0x1 DUP11 SUB PUSH2 0x1043 JUMP JUMPDEST DUP7 SWAP1 PUSH2 0xD84 JUMP JUMPDEST SWAP2 POP PUSH2 0xEAF DUP13 PUSH1 0x0 ADD MLOAD PUSH2 0xFFFF AND DUP4 DUP9 DUP14 PUSH2 0x1E5D JUMP JUMPDEST SWAP1 POP JUMPDEST PUSH2 0xEBF DUP3 DUP6 DUP4 DUP7 DUP16 PUSH2 0x1F7E JUMP JUMPDEST SWAP9 POP POP POP POP POP POP POP POP POP PUSH2 0x73A JUMP JUMPDEST PUSH1 0x0 DUP5 PUSH2 0xEDD JUMPI POP PUSH1 0x0 PUSH2 0x7F7 JUMP JUMPDEST PUSH1 0x0 PUSH2 0xEE9 DUP6 DUP6 PUSH2 0x1D38 JUMP JUMPDEST SWAP1 POP PUSH1 0x0 DUP1 DUP8 SGT ISZERO PUSH2 0xF18 JUMPI PUSH2 0xF11 DUP3 PUSH2 0xF0C PUSH2 0xF05 DUP12 PUSH2 0x1FDC JUMP JUMPDEST DUP8 SWAP1 PUSH2 0xD84 JUMP JUMPDEST PUSH2 0x1FF1 JUMP JUMPDEST SWAP1 POP PUSH2 0xF47 JUMP JUMPDEST PUSH1 0x0 PUSH2 0xF23 DUP10 PUSH2 0x2059 JUMP JUMPDEST SWAP1 POP DUP5 DUP2 LT PUSH2 0xF37 JUMPI DUP8 SWAP4 POP POP POP POP PUSH2 0x7F7 JUMP JUMPDEST PUSH2 0xF43 DUP4 DUP3 DUP8 SUB PUSH2 0x1FF1 JUMP JUMPDEST SWAP2 POP POP JUMPDEST PUSH4 0x3B9ACA00 DUP2 SGT ISZERO PUSH2 0xF58 JUMPI PUSH1 0x0 DUP1 REVERT JUMPDEST PUSH2 0xF62 DUP8 DUP3 PUSH2 0x199A JUMP JUMPDEST SWAP9 SWAP8 POP POP POP POP POP POP POP POP JUMP JUMPDEST PUSH1 0x0 DUP5 PUSH2 0xF7D JUMPI POP PUSH1 0x0 PUSH2 0x31C JUMP JUMPDEST PUSH1 0x0 PUSH2 0xF89 DUP6 DUP6 PUSH2 0x1D38 JUMP JUMPDEST SWAP1 POP PUSH1 0x0 PUSH2 0xF97 DUP3 DUP6 PUSH2 0x1FF1 JUMP JUMPDEST SWAP1 POP PUSH4 0x3B9ACA00 DUP2 SGT ISZERO PUSH2 0xFAA JUMPI PUSH1 0x0 DUP1 REVERT JUMPDEST PUSH2 0x4D3 DUP8 DUP3 PUSH2 0x199A JUMP JUMPDEST PUSH2 0xFBC PUSH2 0x3D33 JUMP JUMPDEST PUSH1 0x0 DUP1 PUSH1 0x0 PUSH2 0xFCA DUP6 PUSH2 0x206E JUMP JUMPDEST PUSH1 0x40 DUP1 MLOAD PUSH1 0x60 DUP2 ADD DUP3 MSTORE PUSH1 0x1 PUSH1 0x1 PUSH1 0xA0 SHL SUB SWAP1 SWAP4 AND DUP4 MSTORE PUSH1 0x20 DUP4 ADD SWAP4 SWAP1 SWAP4 MSTORE PUSH1 0xFF AND PUSH1 0xA EXP SWAP2 DUP2 ADD SWAP2 SWAP1 SWAP2 MSTORE SWAP4 POP POP POP POP SWAP2 SWAP1 POP JUMP JUMPDEST PUSH2 0x1008 PUSH2 0x3CAA JUMP JUMPDEST PUSH1 0x0 PUSH2 0x1017 DUP5 PUSH2 0xFFFF AND PUSH2 0x212F JUMP JUMPDEST PUSH1 0x40 DUP1 MLOAD PUSH1 0x80 DUP2 ADD DUP3 MSTORE PUSH2 0xFFFF SWAP7 SWAP1 SWAP7 AND DUP7 MSTORE PUSH1 0xFF DUP3 AND PUSH1 0x20 DUP8 ADD MSTORE DUP6 ADD SWAP4 SWAP1 SWAP4 MSTORE POP POP PUSH1 0x60 DUP3 ADD MSTORE SWAP1 JUMP JUMPDEST PUSH1 0x0 DUP2 PUSH1 0x1 EQ ISZERO PUSH2 0x1058 JUMPI POP PUSH3 0x76A700 PUSH2 0x542 JUMP JUMPDEST DUP2 PUSH1 0x2 EQ ISZERO PUSH2 0x106B JUMPI POP PUSH3 0xED4E00 PUSH2 0x542 JUMP JUMPDEST DUP2 PUSH1 0x3 EQ ISZERO PUSH2 0x107F JUMPI POP PUSH4 0x1DA9C00 PUSH2 0x542 JUMP JUMPDEST DUP2 PUSH1 0x4 EQ ISZERO PUSH2 0x1093 JUMPI POP PUSH4 0x3B53800 PUSH2 0x542 JUMP JUMPDEST DUP2 PUSH1 0x5 EQ ISZERO PUSH2 0x10A7 JUMPI POP PUSH4 0x9450C00 PUSH2 0x542 JUMP JUMPDEST DUP2 PUSH1 0x6 EQ ISZERO PUSH2 0x10BB JUMPI POP PUSH4 0x128A1800 PUSH2 0x542 JUMP JUMPDEST DUP2 PUSH1 0x7 EQ ISZERO PUSH2 0x10CF JUMPI POP PUSH4 0x25143000 PUSH2 0x542 JUMP JUMPDEST PUSH1 0x40 MLOAD PUSH3 0x461BCD PUSH1 0xE5 SHL DUP2 MSTORE PUSH1 0x4 ADD PUSH2 0x19A SWAP1 PUSH2 0x400E JUMP JUMPDEST PUSH1 0x0 PUSH3 0x76A700 DUP3 LT ISZERO PUSH2 0x10F9 JUMPI PUSH1 0x0 DUP1 REVERT JUMPDEST PUSH3 0x76A700 DUP3 JUMPDEST MOD SWAP1 SWAP2 SUB SWAP2 SWAP1 POP JUMP JUMPDEST PUSH1 0x60 ADD MLOAD PUSH2 0x12C PUSH1 0x8 SWAP2 SWAP1 SWAP2 SHR PUSH1 0xFF AND MUL SWAP1 JUMP JUMPDEST PUSH1 0x0 PUSH3 0x76A700 PUSH2 0x112B DUP6 PUSH2 0x10E7 JUMP JUMPDEST ADD SWAP1 POP PUSH2 0x113D DUP8 DUP8 DUP8 DUP8 DUP8 DUP8 DUP8 PUSH2 0x214C JUMP JUMPDEST POP POP POP POP POP POP POP JUMP JUMPDEST PUSH1 0x0 DUP1 DUP1 PUSH2 0x1154 DUP9 DUP6 PUSH2 0x12DD JUMP JUMPDEST SWAP1 POP PUSH1 0x0 PUSH2 0x116C PUSH2 0x1165 DUP11 DUP11 PUSH2 0x12F9 JUMP JUMPDEST DUP4 SWAP1 PUSH2 0x2183 JUMP JUMPDEST SWAP1 POP PUSH4 0x3B023380 DUP2 SGT ISZERO PUSH2 0x1188 JUMPI PUSH1 0x0 DUP1 SWAP4 POP SWAP4 POP POP POP PUSH2 0x6BC JUMP JUMPDEST PUSH1 0x0 DUP1 PUSH2 0x1194 DUP4 PUSH2 0x219C JUMP JUMPDEST SWAP2 POP SWAP2 POP DUP1 PUSH2 0x11AD JUMPI PUSH1 0x0 DUP1 SWAP6 POP SWAP6 POP POP POP POP POP PUSH2 0x6BC JUMP JUMPDEST PUSH1 0x0 PUSH2 0x11C3 DUP10 PUSH2 0x11BD DUP6 DUP14 PUSH2 0x2183 JUMP JUMPDEST SWAP1 PUSH2 0x12F9 JUMP JUMPDEST SWAP1 POP PUSH4 0x3B9ACA00 DUP2 SLT ISZERO PUSH2 0x11E2 JUMPI PUSH1 0x0 DUP1 SWAP7 POP SWAP7 POP POP POP POP POP POP PUSH2 0x6BC JUMP JUMPDEST SWAP6 POP PUSH1 0x1 SWAP5 POP PUSH2 0x6BC SWAP4 POP POP POP POP JUMP JUMPDEST PUSH1 0x0 DUP1 DUP1 DUP1 PUSH2 0x1204 PUSH2 0x9A1 DUP8 DUP10 PUSH2 0x2183 JUMP JUMPDEST SWAP1 POP PUSH1 0x0 PUSH2 0x121A PUSH2 0x1214 DUP11 PUSH2 0x8FD JUMP JUMPDEST DUP8 PUSH2 0x912 JUMP JUMPDEST SWAP1 POP PUSH1 0x0 DUP8 SGT ISZERO PUSH2 0x1272 JUMPI PUSH1 0x0 PUSH2 0x1231 DUP10 DUP4 PUSH2 0x2183 JUMP JUMPDEST SWAP1 POP PUSH4 0x3B9ACA00 DUP2 SLT ISZERO PUSH2 0x1252 JUMPI PUSH1 0x0 DUP1 PUSH1 0x0 SWAP6 POP SWAP6 POP SWAP6 POP POP POP POP PUSH2 0x8F3 JUMP JUMPDEST PUSH2 0x126A PUSH2 0x1263 PUSH4 0x3B9ACA00 DUP5 PUSH2 0x1AE6 JUMP JUMPDEST DUP5 SWAP1 PUSH2 0x199A JUMP JUMPDEST SWAP2 POP POP PUSH2 0x1294 JUMP JUMPDEST PUSH2 0x1291 PUSH2 0x9A1 DUP3 PUSH2 0x6F1 PUSH2 0x128A PUSH4 0x3B9ACA00 DUP4 PUSH2 0x1AE6 JUMP JUMPDEST DUP7 SWAP1 PUSH2 0x1421 JUMP JUMPDEST SWAP1 POP JUMPDEST PUSH1 0x0 PUSH2 0x12AE PUSH1 0x64 PUSH2 0x6F1 PUSH2 0x12A7 DUP14 PUSH2 0x223E JUMP JUMPDEST DUP6 SWAP1 PUSH2 0x1421 JUMP JUMPDEST SWAP1 POP PUSH2 0x12BA DUP4 DUP4 PUSH2 0x1AE6 JUMP JUMPDEST PUSH2 0x12CB PUSH2 0x9A1 DUP4 PUSH2 0x11BD DUP8 DUP8 PUSH2 0x1AE6 JUMP JUMPDEST SWAP1 SWAP12 SWAP1 SWAP11 POP SWAP1 SWAP9 POP SWAP7 POP POP POP POP POP POP POP JUMP JUMPDEST PUSH1 0x0 PUSH2 0x12E9 DUP4 DUP4 PUSH2 0x1AE6 JUMP JUMPDEST SWAP1 POP PUSH1 0x0 DUP2 SLT ISZERO PUSH2 0x261 JUMPI PUSH1 0x0 DUP1 REVERT JUMPDEST DUP2 DUP2 ADD DUP3 DUP2 SLT ISZERO PUSH1 0x0 DUP4 SLT ISZERO EQ PUSH2 0x261 JUMPI PUSH1 0x0 DUP1 REVERT JUMPDEST PUSH1 0x0 DUP1 PUSH1 0x0 PUSH2 0x1322 DUP9 DUP9 DUP9 DUP9 PUSH1 0x0 PUSH2 0x1146 JUMP JUMPDEST SWAP2 POP SWAP2 POP DUP1 PUSH2 0x1336 JUMPI PUSH1 0x0 SWAP3 POP POP POP PUSH2 0x7F7 JUMP JUMPDEST PUSH1 0x0 PUSH2 0x1341 DUP4 PUSH2 0x224B JUMP JUMPDEST SWAP1 POP PUSH1 0x0 PUSH2 0x1355 DUP3 PUSH3 0x1DCD65 PUSH1 0x49 SHL PUSH2 0x18B3 JUMP JUMPDEST SWAP1 POP PUSH1 0x0 PUSH2 0x1362 DUP3 PUSH2 0x2277 JUMP JUMPDEST SWAP1 POP PUSH1 0x0 PUSH2 0x137E PUSH2 0x1379 DUP4 PUSH3 0x1DCD65 PUSH1 0x49 SHL PUSH2 0x195B JUMP JUMPDEST PUSH2 0x22B1 JUMP JUMPDEST PUSH8 0xFFFFFFFFFFFFFFFF AND SWAP1 POP PUSH1 0x0 PUSH2 0x139E DUP10 PUSH2 0x92A DUP5 PUSH4 0x1DA9C00 PUSH2 0x17D5 JUMP JUMPDEST SWAP1 POP PUSH4 0xFFFFFFFF DUP2 GT ISZERO PUSH2 0x13BC JUMPI PUSH1 0x0 SWAP8 POP POP POP POP POP POP POP POP PUSH2 0x7F7 JUMP JUMPDEST SWAP13 SWAP12 POP POP POP POP POP POP POP POP POP POP POP POP JUMP JUMPDEST PUSH1 0x0 DUP1 DUP1 PUSH2 0x13DA DUP8 DUP7 PUSH2 0x22CD JUMP JUMPDEST PUSH1 0x60 DUP10 ADD MLOAD SWAP1 SWAP2 POP PUSH2 0x13EC SWAP1 DUP3 PUSH2 0x12F9 JUMP JUMPDEST PUSH1 0x60 DUP10 ADD MSTORE TIMESTAMP PUSH1 0xE0 DUP10 ADD MSTORE PUSH1 0x0 PUSH2 0x1403 DUP9 DUP7 PUSH2 0x22CD JUMP JUMPDEST SWAP1 POP PUSH1 0x0 PUSH2 0x1411 DUP10 DUP10 PUSH2 0x22CD JUMP JUMPDEST SWAP11 SWAP2 SWAP10 POP SWAP1 SWAP8 POP POP POP POP POP POP POP POP JUMP JUMPDEST DUP2 DUP2 MUL PUSH1 0x0 NOT DUP4 EQ ISZERO PUSH2 0x1451 JUMPI DUP2 ISZERO DUP1 PUSH2 0x1443 JUMPI POP DUP3 DUP3 DUP3 DUP2 PUSH2 0x1440 JUMPI INVALID JUMPDEST SDIV EQ JUMPDEST PUSH2 0x144C JUMPI PUSH1 0x0 DUP1 REVERT JUMPDEST PUSH2 0x261 JUMP JUMPDEST DUP3 ISZERO DUP1 PUSH2 0x1466 JUMPI POP DUP2 DUP4 DUP3 DUP2 PUSH2 0x1463 JUMPI INVALID JUMPDEST SDIV EQ JUMPDEST PUSH2 0x261 JUMPI PUSH1 0x0 DUP1 REVERT JUMPDEST PUSH1 0x0 DUP2 PUSH1 0x0 NOT EQ DUP1 ISZERO PUSH2 0x1485 JUMPI POP PUSH1 0x1 PUSH1 0xFF SHL DUP4 EQ JUMPDEST ISZERO PUSH2 0x148F JUMPI PUSH1 0x0 DUP1 REVERT JUMPDEST DUP2 DUP4 DUP2 PUSH2 0x1498 JUMPI INVALID JUMPDEST SDIV SWAP4 SWAP3 POP POP POP JUMP JUMPDEST PUSH2 0x14A8 PUSH2 0x3CD6 JUMP JUMPDEST PUSH1 0x0 PUSH2 0x14B2 PUSH2 0x22F8 JUMP JUMPDEST PUSH1 0x0 DUP6 DUP2 MSTORE PUSH1 0x20 DUP3 DUP2 MSTORE PUSH1 0x40 DUP1 DUP4 KECCAK256 DUP8 ISZERO ISZERO DUP5 MSTORE DUP3 MSTORE SWAP2 DUP3 SWAP1 KECCAK256 DUP3 MLOAD PUSH1 0xA0 DUP2 ADD DUP5 MSTORE DUP2 SLOAD PUSH1 0x1 PUSH1 0x1 PUSH1 0xA0 SHL SUB DUP2 AND DUP3 MSTORE PUSH1 0xFF PUSH1 0x1 PUSH1 0xA0 SHL DUP3 DIV DUP2 AND ISZERO ISZERO SWAP5 DUP4 ADD SWAP5 SWAP1 SWAP5 MSTORE PUSH1 0x1 PUSH1 0xB0 SHL DUP2 DIV DUP5 AND PUSH1 0xA EXP SWAP5 DUP3 ADD SWAP5 SWAP1 SWAP5 MSTORE SWAP4 SWAP5 POP SWAP3 SWAP2 PUSH1 0x60 DUP4 ADD SWAP2 PUSH1 0x1 PUSH1 0xA8 SHL SWAP1 SWAP2 DIV AND PUSH1 0x5 DUP2 GT ISZERO PUSH2 0x1527 JUMPI INVALID JUMPDEST DUP2 MSTORE SWAP2 SLOAD PUSH1 0x1 PUSH1 0xB8 SHL SWAP1 DIV PUSH9 0xFFFFFFFFFFFFFFFFFF AND PUSH1 0x20 SWAP1 SWAP3 ADD SWAP2 SWAP1 SWAP2 MSTORE SWAP5 SWAP4 POP POP POP POP JUMP JUMPDEST PUSH2 0x155B DUP2 PUSH2 0xFFFF AND PUSH2 0xB92 JUMP JUMPDEST PUSH1 0x1 PUSH1 0x1 PUSH1 0xA0 SHL SUB AND PUSH1 0xC0 DUP4 ADD DUP2 SWAP1 MSTORE PUSH1 0x0 SWAP1 DUP2 SWAP1 DUP2 SWAP1 PUSH2 0x157B SWAP1 PUSH2 0x1CAD JUMP JUMPDEST SWAP5 POP SWAP5 POP SWAP5 POP POP POP PUSH1 0x0 PUSH2 0x1592 DUP7 PUSH1 0xC0 ADD MLOAD PUSH2 0x1C4C JUMP JUMPDEST POP POP PUSH1 0x80 DUP8 ADD DUP6 SWAP1 MSTORE PUSH1 0x40 DUP8 ADD DUP2 SWAP1 MSTORE PUSH1 0x1 PUSH1 0x1 PUSH1 0xD8 SHL SUB NOT DUP4 AND PUSH1 0xA0 DUP9 ADD MSTORE PUSH1 0xC0 DUP8 ADD MLOAD SWAP1 SWAP2 POP PUSH2 0x15C6 SWAP1 DUP5 PUSH1 0x0 PUSH2 0x2305 JUMP JUMPDEST PUSH1 0x20 DUP8 ADD MSTORE PUSH1 0xC0 DUP7 ADD MLOAD PUSH2 0x15DE SWAP1 PUSH2 0xFFFF DUP8 AND PUSH2 0x1B93 JUMP JUMPDEST POP POP POP PUSH1 0x60 SWAP1 SWAP7 ADD SWAP6 SWAP1 SWAP6 MSTORE POP POP POP POP POP JUMP JUMPDEST PUSH1 0x0 DUP2 PUSH1 0x80 ADD MLOAD PUSH1 0x0 EQ ISZERO PUSH2 0x1608 JUMPI POP PUSH1 0x0 PUSH2 0x542 JUMP JUMPDEST PUSH1 0x80 DUP3 ADD MLOAD PUSH3 0x76A700 SWAP1 PUSH2 0x161B SWAP1 PUSH2 0x10E7 JUMP JUMPDEST ADD SWAP3 SWAP2 POP POP JUMP JUMPDEST PUSH1 0x0 DUP1 PUSH1 0x0 DUP1 PUSH2 0x1631 DUP7 PUSH2 0x15F1 JUMP JUMPDEST SWAP1 POP DUP5 DUP2 GT PUSH2 0x1641 JUMPI PUSH1 0x1 DUP2 SUB SWAP5 POP JUMPDEST POP PUSH1 0x0 PUSH2 0x164E DUP7 DUP7 PUSH2 0x2398 JUMP JUMPDEST POP SWAP1 POP PUSH1 0x0 PUSH2 0x167C DUP8 PUSH1 0xC0 ADD MLOAD DUP9 PUSH1 0x0 ADD MLOAD PUSH1 0x0 ADD MLOAD PUSH2 0xFFFF AND DUP10 PUSH1 0x80 ADD MLOAD DUP10 DUP12 PUSH1 0x0 ADD MLOAD PUSH1 0x20 ADD MLOAD PUSH2 0x24ED JUMP JUMPDEST SWAP1 POP PUSH1 0x0 DUP2 ISZERO PUSH2 0x16AE JUMPI PUSH1 0xC0 DUP9 ADD MLOAD DUP9 MLOAD DUP1 MLOAD PUSH1 0x80 DUP12 ADD MLOAD PUSH2 0x16AA SWAP4 SWAP3 PUSH2 0xFFFF SWAP1 SWAP3 AND SWAP2 DUP12 SWAP1 PUSH1 0x0 DUP9 PUSH2 0x2599 JUMP JUMPDEST POP SWAP1 POP JUMPDEST PUSH1 0x60 DUP9 ADD MLOAD DUP9 MLOAD PUSH1 0x40 ADD MLOAD PUSH2 0xF62 SWAP2 SWAP1 PUSH2 0x11BD SWAP1 PUSH2 0x16CC SWAP1 DUP6 PUSH2 0x22CD JUMP JUMPDEST DUP7 SWAP1 PUSH2 0x12F9 JUMP JUMPDEST PUSH1 0x0 DUP3 PUSH1 0x1 GT ISZERO DUP1 ISZERO PUSH2 0x16EA JUMPI POP DUP4 PUSH1 0x20 ADD MLOAD DUP4 GT ISZERO JUMPDEST PUSH2 0x16F3 JUMPI PUSH1 0x0 DUP1 REVERT JUMPDEST PUSH1 0x60 DUP5 ADD MLOAD PUSH1 0x80 PUSH1 0x8 PUSH1 0x0 NOT DUP7 ADD MUL ADD SWAP1 PUSH1 0xFF SWAP1 DUP3 SHR AND PUSH4 0x3B9ACA00 MUL PUSH1 0x0 PUSH2 0x172C PUSH2 0x171E DUP7 PUSH2 0x2617 JUMP JUMPDEST PUSH2 0x6F1 DUP5 PUSH4 0x1DA9C00 PUSH2 0x1421 JUMP JUMPDEST SWAP1 POP PUSH1 0x0 DUP2 SGT PUSH2 0x173B JUMPI PUSH1 0x0 DUP1 REVERT JUMPDEST SWAP7 SWAP6 POP POP POP POP POP POP JUMP JUMPDEST PUSH1 0x0 DUP1 PUSH1 0x0 PUSH2 0x1754 DUP8 DUP6 PUSH2 0x912 JUMP JUMPDEST SWAP1 POP PUSH4 0x3B9ACA00 DUP2 SLT ISZERO PUSH2 0x176F JUMPI PUSH1 0x0 DUP1 SWAP3 POP SWAP3 POP POP PUSH2 0x6BC JUMP JUMPDEST PUSH1 0x0 DUP1 PUSH2 0x1786 PUSH2 0x177F DUP12 DUP11 PUSH2 0x12F9 JUMP JUMPDEST DUP12 SWAP1 PUSH2 0x2183 JUMP JUMPDEST SWAP1 POP PUSH1 0x0 DUP1 PUSH2 0x1794 DUP4 PUSH2 0x219C JUMP JUMPDEST SWAP2 POP SWAP2 POP DUP1 PUSH2 0x17AE JUMPI PUSH1 0x0 DUP1 SWAP7 POP SWAP7 POP POP POP POP POP POP PUSH2 0x6BC JUMP JUMPDEST PUSH2 0x17C2 PUSH2 0x17BB DUP4 DUP12 PUSH2 0x2183 JUMP JUMPDEST DUP7 SWAP1 PUSH2 0x1AE6 JUMP JUMPDEST SWAP13 PUSH1 0x1 SWAP13 POP SWAP11 POP POP POP POP POP POP POP POP POP POP POP JUMP JUMPDEST PUSH1 0x0 DUP3 PUSH2 0x17E4 JUMPI POP PUSH1 0x0 PUSH2 0x261 JUMP JUMPDEST DUP3 DUP3 MUL DUP3 DUP5 DUP3 DUP2 PUSH2 0x17F1 JUMPI INVALID JUMPDEST DIV EQ PUSH2 0x73A JUMPI PUSH1 0x40 MLOAD PUSH3 0x461BCD PUSH1 0xE5 SHL DUP2 MSTORE PUSH1 0x4 ADD DUP1 DUP1 PUSH1 0x20 ADD DUP3 DUP2 SUB DUP3 MSTORE PUSH1 0x21 DUP2 MSTORE PUSH1 0x20 ADD DUP1 PUSH2 0x4114 PUSH1 0x21 SWAP2 CODECOPY PUSH1 0x40 ADD SWAP2 POP POP PUSH1 0x40 MLOAD DUP1 SWAP2 SUB SWAP1 REVERT JUMPDEST PUSH1 0x0 DUP1 DUP3 GT PUSH2 0x1884 JUMPI PUSH1 0x40 DUP1 MLOAD PUSH3 0x461BCD PUSH1 0xE5 SHL DUP2 MSTORE PUSH1 0x20 PUSH1 0x4 DUP3 ADD MSTORE PUSH1 0x1A PUSH1 0x24 DUP3 ADD MSTORE PUSH32 0x536166654D6174683A206469766973696F6E206279207A65726F000000000000 PUSH1 0x44 DUP3 ADD MSTORE SWAP1 MLOAD SWAP1 DUP2 SWAP1 SUB PUSH1 0x64 ADD SWAP1 REVERT JUMPDEST DUP2 DUP4 DUP2 PUSH2 0x188D JUMPI INVALID JUMPDEST DIV SWAP4 SWAP3 POP POP POP JUMP JUMPDEST PUSH1 0x0 PUSH8 0x7FFFFFFFFFFFFFFF DUP3 GT ISZERO PUSH2 0x18AC JUMPI PUSH1 0x0 DUP1 REVERT JUMPDEST POP PUSH1 0x40 SHL SWAP1 JUMP JUMPDEST PUSH1 0x0 DUP2 PUSH1 0xF SIGNEXTEND PUSH1 0x0 EQ ISZERO PUSH2 0x18C6 JUMPI PUSH1 0x0 DUP1 REVERT JUMPDEST PUSH1 0x0 DUP3 PUSH1 0xF SIGNEXTEND PUSH1 0x40 DUP6 PUSH1 0xF SIGNEXTEND SWAP1 SHL DUP2 PUSH2 0x18DB JUMPI INVALID JUMPDEST SDIV SWAP1 POP PUSH1 0x1 PUSH1 0x1 PUSH1 0x7F SHL SUB NOT DUP2 SLT DUP1 ISZERO SWAP1 PUSH2 0x18FD JUMPI POP PUSH1 0x1 PUSH1 0x1 PUSH1 0x7F SHL SUB DUP2 SGT ISZERO JUMPDEST PUSH2 0x73A JUMPI PUSH1 0x0 DUP1 REVERT JUMPDEST PUSH1 0x0 PUSH1 0x1 PUSH1 0x46 SHL DUP3 PUSH1 0xF SIGNEXTEND SLT PUSH2 0x191B JUMPI PUSH1 0x0 DUP1 REVERT JUMPDEST PUSH9 0x3FFFFFFFFFFFFFFFFF NOT DUP3 PUSH1 0xF SIGNEXTEND SLT ISZERO PUSH2 0x1938 JUMPI POP PUSH1 0x0 PUSH2 0x542 JUMP JUMPDEST PUSH2 0x261 PUSH1 0x80 DUP4 PUSH1 0xF SIGNEXTEND PUSH17 0x171547652B82FE1777D0FFDA0D23A7D12 MUL SWAP1 SAR PUSH2 0x262D JUMP JUMPDEST PUSH1 0x0 PUSH1 0xF DUP4 DUP2 SIGNEXTEND SWAP1 DUP4 SWAP1 SIGNEXTEND MUL PUSH1 0x40 SAR PUSH1 0x1 PUSH1 0x1 PUSH1 0x7F SHL SUB NOT DUP2 SLT DUP1 ISZERO SWAP1 PUSH2 0x18FD JUMPI POP PUSH1 0x1 PUSH1 0x1 PUSH1 0x7F SHL SUB DUP2 SGT ISZERO PUSH2 0x73A JUMPI PUSH1 0x0 DUP1 REVERT JUMPDEST PUSH1 0xF SIGNEXTEND PUSH1 0x40 SAR SWAP1 JUMP JUMPDEST PUSH1 0x0 PUSH2 0x73A PUSH2 0x19A9 DUP5 DUP5 PUSH2 0x1421 JUMP JUMPDEST PUSH4 0x3B9ACA00 PUSH2 0x146F JUMP JUMPDEST PUSH1 0x0 PUSH2 0x261 PUSH1 0x0 NOT DUP4 PUSH2 0x1421 JUMP JUMPDEST PUSH1 0x0 DUP1 DUP1 PUSH2 0x19EC PUSH2 0x19E5 PUSH2 0x19D5 DUP11 DUP10 PUSH2 0x12F9 JUMP JUMPDEST PUSH2 0x19DF DUP13 DUP11 PUSH2 0x1AE6 JUMP JUMPDEST SWAP1 PUSH2 0x1421 JUMP JUMPDEST DUP9 SWAP1 PUSH2 0x199A JUMP JUMPDEST SWAP1 POP PUSH1 0x0 DUP7 SGT ISZERO PUSH2 0x1A39 JUMPI PUSH2 0x1A01 DUP6 DUP6 PUSH2 0x2183 JUMP JUMPDEST SWAP5 POP PUSH4 0x3B9ACA00 DUP6 SLT ISZERO PUSH2 0x1A14 JUMPI PUSH1 0x0 DUP1 REVERT JUMPDEST PUSH2 0x1A32 DUP5 PUSH2 0x1A2C PUSH2 0x1A25 DUP13 DUP13 PUSH2 0x12F9 JUMP JUMPDEST DUP14 SWAP1 PUSH2 0x1421 JUMP JUMPDEST SWAP1 PUSH2 0x2183 JUMP JUMPDEST SWAP2 POP PUSH2 0x1A70 JUMP JUMPDEST PUSH2 0x1A43 DUP6 DUP6 PUSH2 0x199A JUMP JUMPDEST SWAP5 POP PUSH4 0x3B9ACA00 DUP6 SLT ISZERO PUSH2 0x1A56 JUMPI PUSH1 0x0 DUP1 REVERT JUMPDEST PUSH2 0x1A6D PUSH2 0x1A66 PUSH2 0x128A DUP12 DUP12 PUSH2 0x12F9 JUMP JUMPDEST DUP12 SWAP1 PUSH2 0x199A JUMP JUMPDEST SWAP2 POP JUMPDEST PUSH2 0x1A88 PUSH2 0x1A7D DUP4 DUP4 PUSH2 0x146F JUMP JUMPDEST PUSH4 0x5F5E100 SWAP1 PUSH2 0x1AE6 JUMP JUMPDEST SWAP2 POP PUSH1 0x0 PUSH2 0x1A96 DUP12 DUP8 PUSH2 0x199A JUMP JUMPDEST SWAP1 POP PUSH2 0x1AA2 DUP2 DUP9 PUSH2 0x12F9 JUMP JUMPDEST SWAP1 POP PUSH2 0x1AB6 DUP4 PUSH2 0x6F1 DUP4 PUSH4 0x5F5E100 PUSH2 0x1421 JUMP JUMPDEST SWAP12 SWAP11 POP POP POP POP POP POP POP POP POP POP POP JUMP JUMPDEST PUSH1 0x0 DUP1 DUP3 SLT ISZERO PUSH2 0x1ADF JUMPI PUSH2 0x1AD8 DUP3 PUSH2 0x19B3 JUMP JUMPDEST SWAP1 POP PUSH2 0x542 JUMP JUMPDEST POP DUP1 PUSH2 0x542 JUMP JUMPDEST DUP1 DUP3 SUB DUP3 DUP2 SGT ISZERO PUSH1 0x0 DUP4 SLT ISZERO EQ PUSH2 0x261 JUMPI PUSH1 0x0 DUP1 REVERT JUMPDEST PUSH1 0x0 DUP1 PUSH2 0x261 PUSH1 0x1 PUSH2 0x30DB JUMP JUMPDEST PUSH1 0x0 DUP2 ISZERO DUP1 ISZERO SWAP1 PUSH2 0x1B1C JUMPI POP PUSH2 0x3FFF DUP3 GT ISZERO JUMPDEST PUSH2 0x1B25 JUMPI PUSH1 0x0 DUP1 REVERT JUMPDEST PUSH1 0x80 DUP4 ADD MLOAD PUSH1 0x60 DUP5 ADD MLOAD PUSH2 0xFFFF AND DUP4 EQ ISZERO PUSH2 0x1B44 JUMPI PUSH1 0x1 SWAP2 POP POP PUSH2 0x261 JUMP JUMPDEST PUSH1 0x1 PUSH1 0x1 PUSH1 0x70 SHL SUB NOT DUP2 AND ISZERO PUSH2 0x1B89 JUMPI PUSH1 0xF0 DUP2 SWAP1 SHR PUSH2 0x3FFF AND DUP4 DUP2 EQ ISZERO PUSH2 0x1B76 JUMPI POP PUSH1 0x1 PUSH1 0xFE SHL SWAP1 DUP2 AND EQ SWAP1 POP PUSH2 0x261 JUMP JUMPDEST POP PUSH1 0x10 SHL PUSH1 0x1 PUSH1 0x1 PUSH1 0x80 SHL SUB NOT AND PUSH2 0x1B44 JUMP JUMPDEST POP PUSH1 0x0 SWAP4 SWAP3 POP POP POP JUMP JUMPDEST PUSH1 0x0 DUP1 PUSH1 0x0 DUP1 PUSH1 0x0 PUSH2 0x1BA3 PUSH2 0x30ED JUMP JUMPDEST PUSH1 0x1 PUSH1 0x1 PUSH1 0xA0 SHL SUB DUP9 AND PUSH1 0x0 SWAP1 DUP2 MSTORE PUSH1 0x20 DUP3 DUP2 MSTORE PUSH1 0x40 DUP1 DUP4 KECCAK256 DUP11 DUP5 MSTORE SWAP1 SWAP2 MSTORE SWAP1 KECCAK256 DUP1 SLOAD PUSH10 0xFFFFFFFFFFFFFFFFFFFF DUP2 AND SWAP7 POP PUSH1 0x1 PUSH1 0x50 SHL SWAP1 DIV PUSH4 0xFFFFFFFF AND SWAP5 POP SWAP1 SWAP2 POP DUP4 ISZERO PUSH2 0x1C0F JUMPI DUP1 SLOAD PUSH2 0x1C08 SWAP1 PUSH1 0x1 PUSH1 0x70 SHL SWAP1 DIV PUSH7 0xFFFFFFFFFFFFFF AND PUSH2 0x30FA JUMP JUMPDEST SWAP3 POP PUSH2 0x1C24 JUMP JUMPDEST DUP1 SLOAD PUSH1 0x1 PUSH1 0x70 SHL SWAP1 DIV PUSH7 0xFFFFFFFFFFFFFF AND SWAP3 POP JUMPDEST SLOAD PUSH1 0x1 PUSH1 0xA8 SHL SWAP1 DIV PUSH1 0xA SWAP1 DUP2 SIGNEXTEND SWAP1 SIGNEXTEND SWAP8 SWAP4 SWAP7 POP SWAP2 SWAP5 POP SWAP3 POP POP JUMP JUMPDEST PUSH1 0x0 DUP1 PUSH2 0x261 PUSH1 0x3 PUSH2 0x30DB JUMP JUMPDEST PUSH1 0x0 DUP1 PUSH1 0x0 DUP1 PUSH2 0x1C5A PUSH2 0x3108 JUMP JUMPDEST PUSH1 0x1 PUSH1 0x1 PUSH1 0xA0 SHL SUB SWAP6 SWAP1 SWAP6 AND PUSH1 0x0 SWAP1 DUP2 MSTORE PUSH1 0x20 SWAP6 SWAP1 SWAP6 MSTORE POP POP PUSH1 0x40 SWAP1 SWAP3 KECCAK256 SLOAD PUSH12 0xFFFFFFFFFFFFFFFFFFFFFFFF DUP2 AND SWAP4 PUSH1 0x1 PUSH1 0x60 SHL DUP3 DIV PUSH1 0x1 PUSH1 0x1 PUSH1 0x80 SHL SUB AND SWAP4 POP PUSH1 0x1 PUSH1 0xE0 SHL SWAP1 SWAP2 DIV PUSH4 0xFFFFFFFF AND SWAP2 POP JUMP JUMPDEST PUSH1 0x0 DUP1 PUSH1 0x0 DUP1 PUSH1 0x0 DUP1 PUSH2 0x1CBE PUSH2 0x3115 JUMP JUMPDEST PUSH1 0x1 PUSH1 0x1 PUSH1 0xA0 SHL SUB SWAP1 SWAP8 AND PUSH1 0x0 SWAP1 DUP2 MSTORE PUSH1 0x20 SWAP8 SWAP1 SWAP8 MSTORE POP POP PUSH1 0x40 SWAP1 SWAP5 KECCAK256 SLOAD PUSH2 0xFFFF DUP2 AND SWAP6 PUSH4 0xFFFFFFFF PUSH3 0x10000 DUP4 DIV DUP2 AND SWAP7 POP PUSH1 0x1 PUSH1 0x30 SHL DUP4 DIV AND SWAP5 POP PUSH1 0xFF PUSH1 0x1 PUSH1 0x50 SHL DUP4 DIV AND SWAP4 POP PUSH1 0x1 PUSH1 0x58 SHL SWAP1 SWAP2 DIV PUSH1 0xD8 SHL SWAP2 POP JUMP JUMPDEST PUSH1 0x0 PUSH2 0x31C DUP3 PUSH2 0x92A PUSH4 0x1DA9C00 DUP2 DUP9 PUSH2 0xD47 DUP10 PUSH8 0xDE0B6B3A7640000 PUSH2 0x17D5 JUMP JUMPDEST PUSH1 0x0 DUP3 DUP3 GT ISZERO PUSH2 0x1D8F JUMPI PUSH1 0x40 DUP1 MLOAD PUSH3 0x461BCD PUSH1 0xE5 SHL DUP2 MSTORE PUSH1 0x20 PUSH1 0x4 DUP3 ADD MSTORE PUSH1 0x1E PUSH1 0x24 DUP3 ADD MSTORE PUSH32 0x536166654D6174683A207375627472616374696F6E206F766572666C6F770000 PUSH1 0x44 DUP3 ADD MSTORE SWAP1 MLOAD SWAP1 DUP2 SWAP1 SUB PUSH1 0x64 ADD SWAP1 REVERT JUMPDEST POP SWAP1 SUB SWAP1 JUMP JUMPDEST PUSH1 0x0 DUP1 PUSH1 0x0 DUP6 GT PUSH2 0x1DB8 JUMPI PUSH1 0x40 MLOAD PUSH3 0x461BCD PUSH1 0xE5 SHL DUP2 MSTORE PUSH1 0x4 ADD PUSH2 0x19A SWAP1 PUSH2 0x3FDF JUMP JUMPDEST PUSH1 0x7 DUP6 GT ISZERO PUSH2 0x1DD9 JUMPI PUSH1 0x40 MLOAD PUSH3 0x461BCD PUSH1 0xE5 SHL DUP2 MSTORE PUSH1 0x4 ADD PUSH2 0x19A SWAP1 PUSH2 0x4035 JUMP JUMPDEST PUSH1 0x0 PUSH2 0x1DE4 DUP5 PUSH2 0x10E7 JUMP JUMPDEST SWAP1 POP PUSH1 0x1 JUMPDEST DUP7 DUP2 GT PUSH2 0x1E3C JUMPI PUSH1 0x0 PUSH2 0x1E05 PUSH2 0x1DFE DUP4 PUSH2 0x1043 JUMP JUMPDEST DUP5 SWAP1 PUSH2 0xD84 JUMP JUMPDEST SWAP1 POP DUP7 DUP2 EQ ISZERO PUSH2 0x1E1D JUMPI POP SWAP3 POP PUSH1 0x0 SWAP2 POP PUSH2 0x1E55 SWAP1 POP JUMP JUMPDEST DUP7 DUP2 GT ISZERO PUSH2 0x1E33 JUMPI POP SWAP3 POP PUSH1 0x1 SWAP2 POP PUSH2 0x1E55 SWAP1 POP JUMP JUMPDEST POP PUSH1 0x1 ADD PUSH2 0x1DE9 JUMP JUMPDEST POP PUSH1 0x40 MLOAD PUSH3 0x461BCD PUSH1 0xE5 SHL DUP2 MSTORE PUSH1 0x4 ADD PUSH2 0x19A SWAP1 PUSH2 0x40E6 JUMP JUMPDEST SWAP4 POP SWAP4 SWAP2 POP POP JUMP JUMPDEST PUSH1 0x0 DUP1 PUSH2 0x1E68 PUSH2 0x3122 JUMP JUMPDEST SWAP1 POP PUSH1 0x0 PUSH3 0x76A700 PUSH2 0x1E79 DUP6 PUSH2 0x10E7 JUMP JUMPDEST PUSH1 0x0 DUP10 DUP2 MSTORE PUSH1 0x20 DUP6 DUP2 MSTORE PUSH1 0x40 DUP1 DUP4 KECCAK256 DUP12 DUP5 MSTORE DUP3 MSTORE DUP1 DUP4 KECCAK256 SWAP5 SWAP1 SWAP4 ADD DUP1 DUP4 MSTORE SWAP4 SWAP1 MSTORE KECCAK256 DUP1 SLOAD SWAP2 SWAP3 POP SWAP1 PUSH4 0xFFFFFFFF PUSH1 0x1 PUSH1 0xA0 SHL DUP3 DIV DUP2 AND SWAP2 PUSH1 0x1 PUSH1 0xC0 SHL DUP2 DIV DUP3 AND SWAP2 PUSH1 0x1 PUSH1 0xE0 SHL SWAP1 SWAP2 DIV AND DUP2 PUSH2 0x1EE0 JUMPI PUSH1 0x40 MLOAD PUSH3 0x461BCD PUSH1 0xE5 SHL DUP2 MSTORE PUSH1 0x4 ADD PUSH2 0x19A SWAP1 PUSH2 0x3F5A JUMP JUMPDEST PUSH2 0x1AB6 DUP2 DUP5 DUP5 DUP13 DUP13 PUSH2 0x312F JUMP JUMPDEST DUP1 MLOAD PUSH1 0x0 SWAP1 PUSH1 0x1 PUSH1 0x1 PUSH1 0xA0 SHL SUB AND PUSH2 0x1F07 JUMPI POP PUSH1 0x0 PUSH2 0x542 JUMP JUMPDEST PUSH1 0x0 DUP3 PUSH1 0x0 ADD MLOAD PUSH1 0x1 PUSH1 0x1 PUSH1 0xA0 SHL SUB AND PUSH4 0xDD30A666 PUSH1 0x40 MLOAD DUP2 PUSH4 0xFFFFFFFF AND PUSH1 0xE0 SHL DUP2 MSTORE PUSH1 0x4 ADD PUSH1 0x20 PUSH1 0x40 MLOAD DUP1 DUP4 SUB DUP2 DUP7 DUP1 EXTCODESIZE ISZERO DUP1 ISZERO PUSH2 0x1F46 JUMPI PUSH1 0x0 DUP1 REVERT JUMPDEST POP GAS STATICCALL ISZERO DUP1 ISZERO PUSH2 0x1F5A JUMPI RETURNDATASIZE PUSH1 0x0 DUP1 RETURNDATACOPY RETURNDATASIZE PUSH1 0x0 REVERT JUMPDEST POP POP POP POP PUSH1 0x40 MLOAD RETURNDATASIZE PUSH1 0x1F NOT PUSH1 0x1F DUP3 ADD AND DUP3 ADD DUP1 PUSH1 0x40 MSTORE POP DUP2 ADD SWAP1 PUSH2 0x73A SWAP2 SWAP1 PUSH2 0x3E0D JUMP JUMPDEST PUSH1 0x0 DUP2 DUP7 LT PUSH2 0x1F8C JUMPI PUSH1 0x0 DUP1 REVERT JUMPDEST DUP5 DUP3 LT PUSH2 0x1F98 JUMPI PUSH1 0x0 DUP1 REVERT JUMPDEST DUP4 DUP4 LT PUSH2 0x1FBE JUMPI PUSH2 0x1FB7 DUP5 PUSH2 0x58F DUP9 DUP9 SUB PUSH2 0x92A DUP4 DUP9 SUB DUP12 DUP9 SUB PUSH2 0x17D5 JUMP JUMPDEST SWAP1 POP PUSH2 0x7F7 JUMP JUMPDEST PUSH2 0x1FB7 PUSH2 0x1FD5 DUP8 DUP8 SUB PUSH2 0x92A DUP7 DUP9 SUB DUP11 DUP8 SUB PUSH2 0x17D5 JUMP JUMPDEST DUP6 SWAP1 PUSH2 0x1D38 JUMP JUMPDEST PUSH1 0x60 ADD MLOAD PUSH3 0x7A120 PUSH1 0x28 SWAP2 SWAP1 SWAP2 SHR PUSH1 0xFF AND MUL SWAP1 JUMP JUMPDEST PUSH1 0x0 DUP1 PUSH2 0x2009 PUSH2 0x930 PUSH4 0x1DA9C00 PUSH2 0x92A DUP7 DUP9 PUSH2 0x17D5 JUMP JUMPDEST SWAP1 POP PUSH2 0x201B DUP2 PUSH3 0x1DCD65 PUSH1 0x49 SHL PUSH2 0x18B3 JUMP JUMPDEST SWAP1 POP PUSH2 0x202E PUSH2 0x2029 DUP3 PUSH2 0x31C2 JUMP JUMPDEST PUSH2 0x1906 JUMP JUMPDEST SWAP1 POP PUSH2 0x2040 DUP2 PUSH3 0x1DCD65 PUSH1 0x49 SHL PUSH2 0x195B JUMP JUMPDEST SWAP1 POP PUSH1 0x0 PUSH2 0x204D DUP3 PUSH2 0x1991 JUMP JUMPDEST PUSH1 0x7 SIGNEXTEND SWAP6 SWAP5 POP POP POP POP POP JUMP JUMPDEST PUSH1 0x60 ADD MLOAD PUSH3 0x7A120 PUSH1 0x20 SWAP2 SWAP1 SWAP2 SHR PUSH1 0xFF AND MUL SWAP1 JUMP JUMPDEST PUSH1 0x0 DUP1 PUSH1 0x0 DUP1 PUSH1 0x0 PUSH2 0x207F DUP7 PUSH2 0x31E4 JUMP JUMPDEST SWAP1 SWAP3 POP SWAP1 POP PUSH1 0x0 PUSH1 0x1 PUSH1 0x1 PUSH1 0xA0 SHL SUB DUP4 AND PUSH2 0x20A4 JUMPI POP PUSH1 0x0 SWAP1 POP PUSH5 0x2540BE400 PUSH2 0x2124 JUMP JUMPDEST DUP3 PUSH1 0x1 PUSH1 0x1 PUSH1 0xA0 SHL SUB AND PUSH4 0xB2FFFB04 PUSH1 0x40 MLOAD DUP2 PUSH4 0xFFFFFFFF AND PUSH1 0xE0 SHL DUP2 MSTORE PUSH1 0x4 ADD PUSH1 0x20 PUSH1 0x40 MLOAD DUP1 DUP4 SUB DUP2 DUP7 DUP1 EXTCODESIZE ISZERO DUP1 ISZERO PUSH2 0x20DD JUMPI PUSH1 0x0 DUP1 REVERT JUMPDEST POP GAS STATICCALL ISZERO DUP1 ISZERO PUSH2 0x20F1 JUMPI RETURNDATASIZE PUSH1 0x0 DUP1 RETURNDATACOPY RETURNDATASIZE PUSH1 0x0 REVERT JUMPDEST POP POP POP POP PUSH1 0x40 MLOAD RETURNDATASIZE PUSH1 0x1F NOT PUSH1 0x1F DUP3 ADD AND DUP3 ADD DUP1 PUSH1 0x40 MSTORE POP DUP2 ADD SWAP1 PUSH2 0x2115 SWAP2 SWAP1 PUSH2 0x3E0D JUMP JUMPDEST SWAP1 POP PUSH1 0x0 DUP2 SGT PUSH2 0x2124 JUMPI PUSH1 0x0 DUP1 REVERT JUMPDEST SWAP7 SWAP2 SWAP6 POP SWAP4 POP SWAP2 POP POP JUMP JUMPDEST PUSH1 0x0 DUP1 PUSH2 0x213A PUSH2 0x321B JUMP JUMPDEST PUSH1 0x0 SWAP4 DUP5 MSTORE PUSH1 0x20 MSTORE POP POP PUSH1 0x40 SWAP1 KECCAK256 SLOAD SWAP1 JUMP JUMPDEST PUSH2 0x2159 DUP8 DUP8 DUP8 DUP7 DUP6 PUSH2 0x3228 JUMP JUMPDEST PUSH2 0x2172 DUP8 PUSH1 0xE0 ADD MLOAD DUP9 PUSH1 0xA0 ADD MLOAD DUP10 PUSH1 0xC0 ADD MLOAD DUP6 DUP9 PUSH2 0x312F JUMP JUMPDEST PUSH1 0xC0 SWAP1 SWAP8 ADD SWAP7 SWAP1 SWAP7 MSTORE POP POP POP POP POP POP JUMP JUMPDEST PUSH1 0x0 PUSH2 0x73A PUSH2 0x2196 DUP5 PUSH4 0x3B9ACA00 PUSH2 0x1421 JUMP JUMPDEST DUP4 PUSH2 0x146F JUMP JUMPDEST PUSH1 0x0 DUP1 PUSH4 0x3B9ACA00 DUP4 EQ ISZERO PUSH2 0x21B6 JUMPI POP PUSH1 0x0 SWAP1 POP DUP1 PUSH2 0x2239 JUMP JUMPDEST PUSH1 0x0 PUSH2 0x21D0 PUSH2 0x21C9 PUSH4 0x3B9ACA00 DUP7 PUSH2 0x1AE6 JUMP JUMPDEST DUP6 SWAP1 PUSH2 0x2183 JUMP JUMPDEST SWAP1 POP PUSH1 0x0 PUSH2 0x21DD DUP3 PUSH2 0x224B JUMP JUMPDEST SWAP1 POP PUSH1 0x0 DUP2 PUSH1 0xF SIGNEXTEND SGT PUSH2 0x21F8 JUMPI PUSH1 0x0 DUP1 SWAP4 POP SWAP4 POP POP POP PUSH2 0x2239 JUMP JUMPDEST PUSH1 0x0 PUSH2 0x222C PUSH2 0x2227 PUSH2 0x221B PUSH2 0x220C DUP6 PUSH2 0x2277 JUMP JUMPDEST PUSH9 0x14B927F32BFFB83338 PUSH2 0x32E9 JUMP JUMPDEST PUSH3 0x1DCD65 PUSH1 0x49 SHL PUSH2 0x195B JUMP JUMPDEST PUSH2 0x1991 JUMP JUMPDEST PUSH1 0x7 SIGNEXTEND SWAP5 POP PUSH1 0x1 SWAP4 POP POP POP POP JUMPDEST SWAP2 POP SWAP2 JUMP JUMPDEST PUSH1 0x60 ADD MLOAD PUSH1 0x18 SHR PUSH1 0xFF AND SWAP1 JUMP JUMPDEST PUSH1 0x0 PUSH8 0x7FFFFFFFFFFFFFFF NOT DUP3 SLT ISZERO DUP1 ISZERO PUSH2 0x226E JUMPI POP PUSH8 0x7FFFFFFFFFFFFFFF DUP3 SGT ISZERO JUMPDEST PUSH2 0x18AC JUMPI PUSH1 0x0 DUP1 REVERT JUMPDEST PUSH1 0x0 DUP1 DUP3 PUSH1 0xF SIGNEXTEND SGT PUSH2 0x2288 JUMPI PUSH1 0x0 DUP1 REVERT JUMPDEST PUSH1 0x80 PUSH2 0x2293 DUP4 PUSH2 0x331C JUMP JUMPDEST PUSH1 0xF SIGNEXTEND PUSH16 0xB17217F7D1CF79ABC9E3B39803F2F6AF MUL SWAP1 SHR SWAP1 POP SWAP2 SWAP1 POP JUMP JUMPDEST PUSH1 0x0 DUP1 DUP3 PUSH1 0xF SIGNEXTEND SLT ISZERO PUSH2 0x22C3 JUMPI PUSH1 0x0 DUP1 REVERT JUMPDEST POP PUSH1 0xF SIGNEXTEND PUSH1 0x40 SAR SWAP1 JUMP JUMPDEST PUSH1 0x0 DUP1 PUSH2 0x31C DUP5 PUSH1 0x20 ADD MLOAD PUSH2 0x6F1 DUP7 PUSH1 0x40 ADD MLOAD PUSH2 0x19DF PUSH5 0x2540BE400 DUP9 PUSH2 0x1421 SWAP1 SWAP2 SWAP1 PUSH4 0xFFFFFFFF AND JUMP JUMPDEST PUSH1 0x0 DUP1 PUSH2 0x261 PUSH1 0x7 PUSH2 0x30DB JUMP JUMPDEST PUSH2 0x230D PUSH2 0x3D5D JUMP JUMPDEST PUSH2 0x2315 PUSH2 0x3D5D JUMP JUMPDEST PUSH1 0xFF DUP5 AND PUSH2 0x2324 JUMPI SWAP1 POP PUSH2 0x73A JUMP JUMPDEST PUSH2 0x232E DUP6 DUP6 PUSH2 0x33F7 JUMP JUMPDEST DUP2 MSTORE PUSH1 0xFF DUP5 AND PUSH1 0x60 DUP3 ADD MSTORE DUP3 PUSH8 0xFFFFFFFFFFFFFFFF DUP2 GT DUP1 ISZERO PUSH2 0x2350 JUMPI PUSH1 0x0 DUP1 REVERT JUMPDEST POP PUSH1 0x40 MLOAD SWAP1 DUP1 DUP3 MSTORE DUP1 PUSH1 0x20 MUL PUSH1 0x20 ADD DUP3 ADD PUSH1 0x40 MSTORE DUP1 ISZERO PUSH2 0x238A JUMPI DUP2 PUSH1 0x20 ADD JUMPDEST PUSH2 0x2377 PUSH2 0x3D85 JUMP JUMPDEST DUP2 MSTORE PUSH1 0x20 ADD SWAP1 PUSH1 0x1 SWAP1 SUB SWAP1 DUP2 PUSH2 0x236F JUMPI SWAP1 POP JUMPDEST POP PUSH1 0x20 DUP3 ADD MSTORE SWAP5 SWAP4 POP POP POP POP JUMP JUMPDEST PUSH1 0x20 DUP3 ADD MLOAD MLOAD MLOAD PUSH1 0x0 SWAP1 PUSH1 0x60 SWAP1 DUP1 PUSH8 0xFFFFFFFFFFFFFFFF DUP2 GT DUP1 ISZERO PUSH2 0x23BC JUMPI PUSH1 0x0 DUP1 REVERT JUMPDEST POP PUSH1 0x40 MLOAD SWAP1 DUP1 DUP3 MSTORE DUP1 PUSH1 0x20 MUL PUSH1 0x20 ADD DUP3 ADD PUSH1 0x40 MSTORE DUP1 ISZERO PUSH2 0x23E6 JUMPI DUP2 PUSH1 0x20 ADD PUSH1 0x20 DUP3 MUL DUP1 CALLDATASIZE DUP4 CALLDATACOPY ADD SWAP1 POP JUMPDEST POP SWAP2 POP PUSH2 0x23F1 PUSH2 0x3BC9 JUMP JUMPDEST PUSH1 0x0 JUMPDEST DUP3 DUP2 LT ISZERO PUSH2 0x24E3 JUMPI DUP7 MLOAD PUSH2 0x240F SWAP1 DUP4 PUSH1 0x1 DUP1 DUP6 ADD SWAP1 DUP11 PUSH2 0x547 JUMP JUMPDEST PUSH1 0x0 DUP8 PUSH1 0x20 ADD MLOAD PUSH1 0x0 ADD MLOAD DUP3 DUP2 MLOAD DUP2 LT PUSH2 0x2425 JUMPI INVALID JUMPDEST PUSH1 0x20 MUL PUSH1 0x20 ADD ADD MLOAD SWAP1 POP PUSH1 0x0 DUP2 PUSH1 0x20 ADD MLOAD SWAP1 POP PUSH1 0x0 DUP1 PUSH2 0x2445 DUP5 DUP8 PUSH2 0x3420 JUMP JUMPDEST SWAP2 POP SWAP2 POP PUSH2 0x246E PUSH2 0x2467 DUP13 PUSH1 0xC0 ADD MLOAD DUP14 PUSH1 0x0 ADD MLOAD PUSH1 0x0 ADD MLOAD PUSH2 0xFFFF AND DUP7 PUSH2 0x349B JUMP JUMPDEST DUP3 SWAP1 PUSH2 0x12F9 JUMP JUMPDEST DUP9 DUP7 DUP2 MLOAD DUP2 LT PUSH2 0x247A JUMPI INVALID JUMPDEST PUSH1 0x20 MUL PUSH1 0x20 ADD ADD DUP2 DUP2 MSTORE POP POP PUSH1 0x0 PUSH2 0x24C4 PUSH2 0x24BD PUSH2 0x24B1 DUP12 DUP10 DUP2 MLOAD DUP2 LT PUSH2 0x249D JUMPI INVALID JUMPDEST PUSH1 0x20 MUL PUSH1 0x20 ADD ADD MLOAD DUP8 DUP16 DUP13 PUSH1 0xC0 ADD MLOAD PUSH2 0xF6E JUMP JUMPDEST DUP15 MLOAD PUSH1 0x40 ADD MLOAD SWAP1 PUSH2 0x22CD JUMP JUMPDEST DUP5 SWAP1 PUSH2 0x12F9 JUMP JUMPDEST SWAP1 POP PUSH2 0x24D0 DUP11 DUP3 PUSH2 0x12F9 JUMP JUMPDEST SWAP10 POP POP PUSH1 0x1 SWAP1 SWAP5 ADD SWAP4 POP PUSH2 0x23F4 SWAP3 POP POP POP JUMP JUMPDEST POP POP POP SWAP3 POP SWAP3 SWAP1 POP JUMP JUMPDEST PUSH1 0x0 PUSH1 0x2 DUP3 GT PUSH2 0x24FF JUMPI POP PUSH1 0x0 PUSH2 0x7F7 JUMP JUMPDEST PUSH1 0x0 PUSH2 0x250B DUP8 DUP8 PUSH2 0x34E0 JUMP JUMPDEST SWAP1 POP DUP1 PUSH2 0x2519 JUMPI SWAP1 POP PUSH2 0x7F7 JUMP JUMPDEST PUSH1 0x0 PUSH2 0x2524 DUP6 PUSH2 0x10E7 JUMP JUMPDEST SWAP1 POP DUP6 DUP2 EQ ISZERO PUSH2 0x254E JUMPI POP PUSH21 0x400080000002002000000002000000200000000020 NOT AND SWAP1 POP PUSH2 0x7F7 JUMP JUMPDEST PUSH1 0x1 JUMPDEST DUP5 DUP2 GT PUSH2 0x258E JUMPI PUSH1 0x0 PUSH2 0x2563 DUP3 PUSH2 0x1043 JUMP JUMPDEST DUP4 ADD SWAP1 POP PUSH1 0x0 PUSH2 0x2573 DUP10 DUP4 PUSH2 0x3515 JUMP JUMPDEST POP SWAP1 POP PUSH2 0x2582 DUP6 DUP3 PUSH1 0x0 PUSH2 0x3620 JUMP JUMPDEST SWAP5 POP POP POP PUSH1 0x1 ADD PUSH2 0x2551 JUMP JUMPDEST POP DUP2 SWAP3 POP POP POP PUSH2 0x7F7 JUMP JUMPDEST PUSH1 0x0 DUP1 PUSH1 0x0 PUSH2 0x25A7 DUP5 PUSH2 0x366B JUMP JUMPDEST SWAP1 POP JUMPDEST DUP1 ISZERO PUSH2 0x260A JUMPI PUSH1 0x0 PUSH2 0x25BC DUP10 DUP4 PUSH2 0x3690 JUMP JUMPDEST SWAP1 POP PUSH1 0x0 PUSH2 0x25CE DUP13 DUP13 DUP5 DUP13 DUP13 DUP13 PUSH2 0x3743 JUMP JUMPDEST SWAP1 POP PUSH2 0x25DA DUP6 DUP3 PUSH2 0x12F9 JUMP JUMPDEST SWAP5 POP PUSH1 0x0 DUP2 SLT ISZERO PUSH2 0x25EA JUMPI PUSH1 0x1 SWAP4 POP JUMPDEST PUSH2 0x25F6 DUP7 DUP5 PUSH1 0x0 PUSH2 0x3620 JUMP JUMPDEST SWAP6 POP PUSH2 0x2601 DUP7 PUSH2 0x366B JUMP JUMPDEST SWAP3 POP POP POP PUSH2 0x25AA JUMP JUMPDEST POP SWAP8 POP SWAP8 SWAP6 POP POP POP POP POP POP JUMP JUMPDEST PUSH1 0x0 PUSH1 0x1 PUSH1 0x1 PUSH1 0xFF SHL SUB DUP3 GT ISZERO PUSH2 0x857 JUMPI PUSH1 0x0 DUP1 REVERT JUMPDEST PUSH1 0x0 PUSH1 0x1 PUSH1 0x46 SHL DUP3 PUSH1 0xF SIGNEXTEND SLT PUSH2 0x2642 JUMPI PUSH1 0x0 DUP1 REVERT JUMPDEST PUSH9 0x3FFFFFFFFFFFFFFFFF NOT DUP3 PUSH1 0xF SIGNEXTEND SLT ISZERO PUSH2 0x265F JUMPI POP PUSH1 0x0 PUSH2 0x542 JUMP JUMPDEST PUSH1 0x1 PUSH1 0x7F SHL PUSH1 0x0 PUSH1 0x1 PUSH1 0x3F SHL DUP5 AND PUSH1 0xF SIGNEXTEND SGT ISZERO PUSH2 0x268D JUMPI PUSH17 0x16A09E667F3BCC908B2FB1366EA957D3E MUL PUSH1 0x80 SHR JUMPDEST PUSH1 0x0 DUP4 PUSH8 0x4000000000000000 AND PUSH1 0xF SIGNEXTEND SGT ISZERO PUSH2 0x26BA JUMPI PUSH17 0x1306FE0A31B7152DE8D5A46305C85EDEC MUL PUSH1 0x80 SHR JUMPDEST PUSH1 0x0 DUP4 PUSH8 0x2000000000000000 AND PUSH1 0xF SIGNEXTEND SGT ISZERO PUSH2 0x26E7 JUMPI PUSH17 0x1172B83C7D517ADCDF7C8C50EB14A791F MUL PUSH1 0x80 SHR JUMPDEST PUSH1 0x0 DUP4 PUSH8 0x1000000000000000 AND PUSH1 0xF SIGNEXTEND SGT ISZERO PUSH2 0x2714 JUMPI PUSH17 0x10B5586CF9890F6298B92B71842A98363 MUL PUSH1 0x80 SHR JUMPDEST PUSH1 0x0 DUP4 PUSH8 0x800000000000000 AND PUSH1 0xF SIGNEXTEND SGT ISZERO PUSH2 0x2741 JUMPI PUSH17 0x1059B0D31585743AE7C548EB68CA417FD MUL PUSH1 0x80 SHR JUMPDEST PUSH1 0x0 DUP4 PUSH8 0x400000000000000 AND PUSH1 0xF SIGNEXTEND SGT ISZERO PUSH2 0x276E JUMPI PUSH17 0x102C9A3E778060EE6F7CACA4F7A29BDE8 MUL PUSH1 0x80 SHR JUMPDEST PUSH1 0x0 DUP4 PUSH8 0x200000000000000 AND PUSH1 0xF SIGNEXTEND SGT ISZERO PUSH2 0x279B JUMPI PUSH17 0x10163DA9FB33356D84A66AE336DCDFA3F MUL PUSH1 0x80 SHR JUMPDEST PUSH1 0x0 DUP4 PUSH1 0x1 PUSH1 0x38 SHL AND PUSH1 0xF SIGNEXTEND SGT ISZERO PUSH2 0x27C4 JUMPI PUSH17 0x100B1AFA5ABCBED6129AB13EC11DC9543 MUL PUSH1 0x80 SHR JUMPDEST PUSH1 0x0 DUP4 PUSH7 0x80000000000000 AND PUSH1 0xF SIGNEXTEND SGT ISZERO PUSH2 0x27F0 JUMPI PUSH17 0x10058C86DA1C09EA1FF19D294CF2F679B MUL PUSH1 0x80 SHR JUMPDEST PUSH1 0x0 DUP4 PUSH7 0x40000000000000 AND PUSH1 0xF SIGNEXTEND SGT ISZERO PUSH2 0x281C JUMPI PUSH17 0x1002C605E2E8CEC506D21BFC89A23A00F MUL PUSH1 0x80 SHR JUMPDEST PUSH1 0x0 DUP4 PUSH7 0x20000000000000 AND PUSH1 0xF SIGNEXTEND SGT ISZERO PUSH2 0x2848 JUMPI PUSH17 0x100162F3904051FA128BCA9C55C31E5DF MUL PUSH1 0x80 SHR JUMPDEST PUSH1 0x0 DUP4 PUSH7 0x10000000000000 AND PUSH1 0xF SIGNEXTEND SGT ISZERO PUSH2 0x2874 JUMPI PUSH17 0x1000B175EFFDC76BA38E31671CA939725 MUL PUSH1 0x80 SHR JUMPDEST PUSH1 0x0 DUP4 PUSH7 0x8000000000000 AND PUSH1 0xF SIGNEXTEND SGT ISZERO PUSH2 0x28A0 JUMPI PUSH17 0x100058BA01FB9F96D6CACD4B180917C3D MUL PUSH1 0x80 SHR JUMPDEST PUSH1 0x0 DUP4 PUSH7 0x4000000000000 AND PUSH1 0xF SIGNEXTEND SGT ISZERO PUSH2 0x28CC JUMPI PUSH17 0x10002C5CC37DA9491D0985C348C68E7B3 MUL PUSH1 0x80 SHR JUMPDEST PUSH1 0x0 DUP4 PUSH7 0x2000000000000 AND PUSH1 0xF SIGNEXTEND SGT ISZERO PUSH2 0x28F8 JUMPI PUSH17 0x1000162E525EE054754457D5995292026 MUL PUSH1 0x80 SHR JUMPDEST PUSH1 0x0 DUP4 PUSH1 0x1 PUSH1 0x30 SHL AND PUSH1 0xF SIGNEXTEND SGT ISZERO PUSH2 0x2921 JUMPI PUSH17 0x10000B17255775C040618BF4A4ADE83FC MUL PUSH1 0x80 SHR JUMPDEST PUSH1 0x0 DUP4 PUSH6 0x800000000000 AND PUSH1 0xF SIGNEXTEND SGT ISZERO PUSH2 0x294C JUMPI PUSH17 0x1000058B91B5BC9AE2EED81E9B7D4CFAB MUL PUSH1 0x80 SHR JUMPDEST PUSH1 0x0 DUP4 PUSH6 0x400000000000 AND PUSH1 0xF SIGNEXTEND SGT ISZERO PUSH2 0x2977 JUMPI PUSH17 0x100002C5C89D5EC6CA4D7C8ACC017B7C9 MUL PUSH1 0x80 SHR JUMPDEST PUSH1 0x0 DUP4 PUSH6 0x200000000000 AND PUSH1 0xF SIGNEXTEND SGT ISZERO PUSH2 0x29A2 JUMPI PUSH17 0x10000162E43F4F831060E02D839A9D16D MUL PUSH1 0x80 SHR JUMPDEST PUSH1 0x0 DUP4 PUSH6 0x100000000000 AND PUSH1 0xF SIGNEXTEND SGT ISZERO PUSH2 0x29CD JUMPI PUSH17 0x100000B1721BCFC99D9F890EA06911763 MUL PUSH1 0x80 SHR JUMPDEST PUSH1 0x0 DUP4 PUSH6 0x80000000000 AND PUSH1 0xF SIGNEXTEND SGT ISZERO PUSH2 0x29F8 JUMPI PUSH17 0x10000058B90CF1E6D97F9CA14DBCC1628 MUL PUSH1 0x80 SHR JUMPDEST PUSH1 0x0 DUP4 PUSH6 0x40000000000 AND PUSH1 0xF SIGNEXTEND SGT ISZERO PUSH2 0x2A23 JUMPI PUSH17 0x1000002C5C863B73F016468F6BAC5CA2B MUL PUSH1 0x80 SHR JUMPDEST PUSH1 0x0 DUP4 PUSH6 0x20000000000 AND PUSH1 0xF SIGNEXTEND SGT ISZERO PUSH2 0x2A4E JUMPI PUSH17 0x100000162E430E5A18F6119E3C02282A5 MUL PUSH1 0x80 SHR JUMPDEST PUSH1 0x0 DUP4 PUSH6 0x10000000000 AND PUSH1 0xF SIGNEXTEND SGT ISZERO PUSH2 0x2A79 JUMPI PUSH17 0x1000000B1721835514B86E6D96EFD1BFE MUL PUSH1 0x80 SHR JUMPDEST PUSH1 0x0 DUP4 PUSH5 0x8000000000 AND PUSH1 0xF SIGNEXTEND SGT ISZERO PUSH2 0x2AA3 JUMPI PUSH17 0x100000058B90C0B48C6BE5DF846C5B2EF MUL PUSH1 0x80 SHR JUMPDEST PUSH1 0x0 DUP4 PUSH5 0x4000000000 AND PUSH1 0xF SIGNEXTEND SGT ISZERO PUSH2 0x2ACD JUMPI PUSH17 0x10000002C5C8601CC6B9E94213C72737A MUL PUSH1 0x80 SHR JUMPDEST PUSH1 0x0 DUP4 PUSH5 0x2000000000 AND PUSH1 0xF SIGNEXTEND SGT ISZERO PUSH2 0x2AF7 JUMPI PUSH17 0x1000000162E42FFF037DF38AA2B219F06 MUL PUSH1 0x80 SHR JUMPDEST PUSH1 0x0 DUP4 PUSH5 0x1000000000 AND PUSH1 0xF SIGNEXTEND SGT ISZERO PUSH2 0x2B21 JUMPI PUSH17 0x10000000B17217FBA9C739AA5819F44F9 MUL PUSH1 0x80 SHR JUMPDEST PUSH1 0x0 DUP4 PUSH5 0x800000000 AND PUSH1 0xF SIGNEXTEND SGT ISZERO PUSH2 0x2B4B JUMPI PUSH17 0x1000000058B90BFCDEE5ACD3C1CEDC823 MUL PUSH1 0x80 SHR JUMPDEST PUSH1 0x0 DUP4 PUSH5 0x400000000 AND PUSH1 0xF SIGNEXTEND SGT ISZERO PUSH2 0x2B75 JUMPI PUSH17 0x100000002C5C85FE31F35A6A30DA1BE50 MUL PUSH1 0x80 SHR JUMPDEST PUSH1 0x0 DUP4 PUSH5 0x200000000 AND PUSH1 0xF SIGNEXTEND SGT ISZERO PUSH2 0x2B9F JUMPI PUSH17 0x10000000162E42FF0999CE3541B9FFFCF MUL PUSH1 0x80 SHR JUMPDEST PUSH1 0x0 DUP4 PUSH5 0x100000000 AND PUSH1 0xF SIGNEXTEND SGT ISZERO PUSH2 0x2BC9 JUMPI PUSH17 0x100000000B17217F80F4EF5AADDA45554 MUL PUSH1 0x80 SHR JUMPDEST PUSH1 0x0 DUP4 PUSH4 0x80000000 AND PUSH1 0xF SIGNEXTEND SGT ISZERO PUSH2 0x2BF2 JUMPI PUSH17 0x10000000058B90BFBF8479BD5A81B51AD MUL PUSH1 0x80 SHR JUMPDEST PUSH1 0x0 DUP4 PUSH4 0x40000000 AND PUSH1 0xF SIGNEXTEND SGT ISZERO PUSH2 0x2C1B JUMPI PUSH17 0x1000000002C5C85FDF84BD62AE30A74CC MUL PUSH1 0x80 SHR JUMPDEST PUSH1 0x0 DUP4 PUSH4 0x20000000 AND PUSH1 0xF SIGNEXTEND SGT ISZERO PUSH2 0x2C44 JUMPI PUSH17 0x100000000162E42FEFB2FED257559BDAA MUL PUSH1 0x80 SHR JUMPDEST PUSH1 0x0 DUP4 PUSH4 0x10000000 AND PUSH1 0xF SIGNEXTEND SGT ISZERO PUSH2 0x2C6D JUMPI PUSH17 0x1000000000B17217F7D5A7716BBA4A9AE MUL PUSH1 0x80 SHR JUMPDEST PUSH1 0x0 DUP4 PUSH4 0x8000000 AND PUSH1 0xF SIGNEXTEND SGT ISZERO PUSH2 0x2C96 JUMPI PUSH17 0x100000000058B90BFBE9DDBAC5E109CCE MUL PUSH1 0x80 SHR JUMPDEST PUSH1 0x0 DUP4 PUSH4 0x4000000 AND PUSH1 0xF SIGNEXTEND SGT ISZERO PUSH2 0x2CBF JUMPI PUSH17 0x10000000002C5C85FDF4B15DE6F17EB0D MUL PUSH1 0x80 SHR JUMPDEST PUSH1 0x0 DUP4 PUSH4 0x2000000 AND PUSH1 0xF SIGNEXTEND SGT ISZERO PUSH2 0x2CE8 JUMPI PUSH17 0x1000000000162E42FEFA494F1478FDE05 MUL PUSH1 0x80 SHR JUMPDEST PUSH1 0x0 DUP4 PUSH4 0x1000000 AND PUSH1 0xF SIGNEXTEND SGT ISZERO PUSH2 0x2D11 JUMPI PUSH17 0x10000000000B17217F7D20CF927C8E94C MUL PUSH1 0x80 SHR JUMPDEST PUSH1 0x0 DUP4 PUSH3 0x800000 AND PUSH1 0xF SIGNEXTEND SGT ISZERO PUSH2 0x2D39 JUMPI PUSH17 0x1000000000058B90BFBE8F71CB4E4B33D MUL PUSH1 0x80 SHR JUMPDEST PUSH1 0x0 DUP4 PUSH3 0x400000 AND PUSH1 0xF SIGNEXTEND SGT ISZERO PUSH2 0x2D61 JUMPI PUSH17 0x100000000002C5C85FDF477B662B26945 MUL PUSH1 0x80 SHR JUMPDEST PUSH1 0x0 DUP4 PUSH3 0x200000 AND PUSH1 0xF SIGNEXTEND SGT ISZERO PUSH2 0x2D89 JUMPI PUSH17 0x10000000000162E42FEFA3AE53369388C MUL PUSH1 0x80 SHR JUMPDEST PUSH1 0x0 DUP4 PUSH3 0x100000 AND PUSH1 0xF SIGNEXTEND SGT ISZERO PUSH2 0x2DB1 JUMPI PUSH17 0x100000000000B17217F7D1D351A389D40 MUL PUSH1 0x80 SHR JUMPDEST PUSH1 0x0 DUP4 PUSH3 0x80000 AND PUSH1 0xF SIGNEXTEND SGT ISZERO PUSH2 0x2DD9 JUMPI PUSH17 0x10000000000058B90BFBE8E8B2D3D4EDE MUL PUSH1 0x80 SHR JUMPDEST PUSH1 0x0 DUP4 PUSH3 0x40000 AND PUSH1 0xF SIGNEXTEND SGT ISZERO PUSH2 0x2E01 JUMPI PUSH17 0x1000000000002C5C85FDF4741BEA6E77E MUL PUSH1 0x80 SHR JUMPDEST PUSH1 0x0 DUP4 PUSH3 0x20000 AND PUSH1 0xF SIGNEXTEND SGT ISZERO PUSH2 0x2E29 JUMPI PUSH17 0x100000000000162E42FEFA39FE95583C2 MUL PUSH1 0x80 SHR JUMPDEST PUSH1 0x0 DUP4 PUSH3 0x10000 AND PUSH1 0xF SIGNEXTEND SGT ISZERO PUSH2 0x2E51 JUMPI PUSH17 0x1000000000000B17217F7D1CFB72B45E1 MUL PUSH1 0x80 SHR JUMPDEST PUSH1 0x0 DUP4 PUSH2 0x8000 AND PUSH1 0xF SIGNEXTEND SGT ISZERO PUSH2 0x2E78 JUMPI PUSH17 0x100000000000058B90BFBE8E7CC35C3F0 MUL PUSH1 0x80 SHR JUMPDEST PUSH1 0x0 DUP4 PUSH2 0x4000 AND PUSH1 0xF SIGNEXTEND SGT ISZERO PUSH2 0x2E9F JUMPI PUSH17 0x10000000000002C5C85FDF473E242EA38 MUL PUSH1 0x80 SHR JUMPDEST PUSH1 0x0 DUP4 PUSH2 0x2000 AND PUSH1 0xF SIGNEXTEND SGT ISZERO PUSH2 0x2EC6 JUMPI PUSH17 0x1000000000000162E42FEFA39F02B772C MUL PUSH1 0x80 SHR JUMPDEST PUSH1 0x0 DUP4 PUSH2 0x1000 AND PUSH1 0xF SIGNEXTEND SGT ISZERO PUSH2 0x2EED JUMPI PUSH17 0x10000000000000B17217F7D1CF7D83C1A MUL PUSH1 0x80 SHR JUMPDEST PUSH1 0x0 DUP4 PUSH2 0x800 AND PUSH1 0xF SIGNEXTEND SGT ISZERO PUSH2 0x2F14 JUMPI PUSH17 0x1000000000000058B90BFBE8E7BDCBE2E MUL PUSH1 0x80 SHR JUMPDEST PUSH1 0x0 DUP4 PUSH2 0x400 AND PUSH1 0xF SIGNEXTEND SGT ISZERO PUSH2 0x2F3B JUMPI PUSH17 0x100000000000002C5C85FDF473DEA871F MUL PUSH1 0x80 SHR JUMPDEST PUSH1 0x0 DUP4 PUSH2 0x200 AND PUSH1 0xF SIGNEXTEND SGT ISZERO PUSH2 0x2F62 JUMPI PUSH17 0x10000000000000162E42FEFA39EF44D91 MUL PUSH1 0x80 SHR JUMPDEST PUSH1 0x0 DUP4 PUSH2 0x100 AND PUSH1 0xF SIGNEXTEND SGT ISZERO PUSH2 0x2F89 JUMPI PUSH17 0x100000000000000B17217F7D1CF79E949 MUL PUSH1 0x80 SHR JUMPDEST PUSH1 0x0 DUP4 PUSH1 0x80 AND PUSH1 0xF SIGNEXTEND SGT ISZERO PUSH2 0x2FAF JUMPI PUSH17 0x10000000000000058B90BFBE8E7BCE544 MUL PUSH1 0x80 SHR JUMPDEST PUSH1 0x0 DUP4 PUSH1 0x40 AND PUSH1 0xF SIGNEXTEND SGT ISZERO PUSH2 0x2FD5 JUMPI PUSH17 0x1000000000000002C5C85FDF473DE6ECA MUL PUSH1 0x80 SHR JUMPDEST PUSH1 0x0 DUP4 PUSH1 0x20 AND PUSH1 0xF SIGNEXTEND SGT ISZERO PUSH2 0x2FFB JUMPI PUSH17 0x100000000000000162E42FEFA39EF366F MUL PUSH1 0x80 SHR JUMPDEST PUSH1 0x0 DUP4 PUSH1 0x10 AND PUSH1 0xF SIGNEXTEND SGT ISZERO PUSH2 0x3021 JUMPI PUSH17 0x1000000000000000B17217F7D1CF79AFA MUL PUSH1 0x80 SHR JUMPDEST PUSH1 0x0 DUP4 PUSH1 0x8 AND PUSH1 0xF SIGNEXTEND SGT ISZERO PUSH2 0x3047 JUMPI PUSH17 0x100000000000000058B90BFBE8E7BCD6D MUL PUSH1 0x80 SHR JUMPDEST PUSH1 0x0 DUP4 PUSH1 0x4 AND PUSH1 0xF SIGNEXTEND SGT ISZERO PUSH2 0x306D JUMPI PUSH17 0x10000000000000002C5C85FDF473DE6B2 MUL PUSH1 0x80 SHR JUMPDEST PUSH1 0x0 DUP4 PUSH1 0x2 AND PUSH1 0xF SIGNEXTEND SGT ISZERO PUSH2 0x3093 JUMPI PUSH17 0x1000000000000000162E42FEFA39EF358 MUL PUSH1 0x80 SHR JUMPDEST PUSH1 0x0 DUP4 PUSH1 0x1 AND PUSH1 0xF SIGNEXTEND SGT ISZERO PUSH2 0x30B9 JUMPI PUSH17 0x10000000000000000B17217F7D1CF79AB MUL PUSH1 0x80 SHR JUMPDEST PUSH1 0xF DUP4 DUP2 SIGNEXTEND PUSH1 0x40 SAR PUSH1 0x3F SUB SWAP1 SIGNEXTEND SHR PUSH1 0x1 PUSH1 0x1 PUSH1 0x7F SHL SUB DUP2 GT ISZERO PUSH2 0x261 JUMPI PUSH1 0x0 DUP1 REVERT JUMPDEST PUSH1 0x0 PUSH3 0xF4240 DUP3 PUSH1 0x13 DUP2 GT ISZERO PUSH2 0x161B JUMPI INVALID JUMPDEST PUSH1 0x0 DUP1 PUSH2 0x261 PUSH1 0x6 PUSH2 0x30DB JUMP JUMPDEST PUSH1 0x8 DUP2 SWAP1 SHR PUSH1 0xFF SWAP1 SWAP2 AND SHL SWAP1 JUMP JUMPDEST PUSH1 0x0 DUP1 PUSH2 0x261 PUSH1 0x11 PUSH2 0x30DB JUMP JUMPDEST PUSH1 0x0 DUP1 PUSH2 0x261 PUSH1 0x2 PUSH2 0x30DB JUMP JUMPDEST PUSH1 0x0 DUP1 PUSH2 0x261 PUSH1 0xA PUSH2 0x30DB JUMP JUMPDEST PUSH1 0x0 DUP1 DUP4 GT PUSH2 0x313D JUMPI PUSH1 0x0 DUP1 REVERT JUMPDEST DUP2 DUP7 GT ISZERO PUSH2 0x314C JUMPI POP DUP4 PUSH2 0x7F7 JUMP JUMPDEST PUSH1 0x0 PUSH2 0x3158 DUP4 DUP9 PUSH2 0x1D38 JUMP JUMPDEST SWAP1 POP DUP4 DUP2 GT ISZERO PUSH2 0x316B JUMPI DUP6 SWAP2 POP POP PUSH2 0x7F7 JUMP JUMPDEST PUSH1 0x0 PUSH2 0x317F DUP6 PUSH2 0x92A DUP5 PUSH4 0x3B9ACA00 PUSH2 0x17D5 JUMP JUMPDEST SWAP1 POP PUSH1 0x0 PUSH2 0x3191 PUSH4 0x3B9ACA00 DUP4 PUSH2 0x1D38 JUMP JUMPDEST SWAP1 POP PUSH1 0x0 PUSH2 0x31B4 PUSH4 0x3B9ACA00 PUSH2 0x92A PUSH2 0x31AA DUP12 DUP7 PUSH2 0x17D5 JUMP JUMPDEST PUSH2 0x58F DUP14 DUP9 PUSH2 0x17D5 JUMP JUMPDEST SWAP11 SWAP10 POP POP POP POP POP POP POP POP POP POP JUMP JUMPDEST PUSH1 0x0 PUSH1 0xF DUP3 SWAP1 SIGNEXTEND PUSH1 0x1 PUSH1 0x1 PUSH1 0x7F SHL SUB NOT EQ ISZERO PUSH2 0x31DD JUMPI PUSH1 0x0 DUP1 REVERT JUMPDEST POP PUSH1 0x0 SUB SWAP1 JUMP JUMPDEST PUSH1 0x0 DUP1 PUSH1 0x0 PUSH2 0x31F1 PUSH2 0x3798 JUMP JUMPDEST PUSH1 0x0 SWAP5 DUP6 MSTORE PUSH1 0x20 MSTORE POP POP PUSH1 0x40 SWAP1 SWAP2 KECCAK256 SLOAD PUSH1 0x1 PUSH1 0x1 PUSH1 0xA0 SHL SUB DUP2 AND SWAP3 PUSH1 0x1 PUSH1 0xA0 SHL SWAP1 SWAP2 DIV PUSH1 0xFF AND SWAP2 POP JUMP JUMPDEST PUSH1 0x0 DUP1 PUSH2 0x261 PUSH1 0x9 PUSH2 0x30DB JUMP JUMPDEST PUSH1 0x0 PUSH2 0x3232 PUSH2 0x3122 JUMP JUMPDEST PUSH1 0x0 DUP7 DUP2 MSTORE PUSH1 0x20 DUP3 DUP2 MSTORE PUSH1 0x40 DUP1 DUP4 KECCAK256 DUP9 DUP5 MSTORE DUP3 MSTORE DUP1 DUP4 KECCAK256 DUP7 DUP5 MSTORE DUP3 MSTORE SWAP2 DUP3 SWAP1 KECCAK256 DUP1 DUP11 MSTORE SWAP1 DUP10 ADD DUP8 SWAP1 MSTORE DUP1 SLOAD PUSH10 0xFFFFFFFFFFFFFFFFFFFF DUP1 DUP3 AND SWAP4 DUP12 ADD SWAP4 SWAP1 SWAP4 MSTORE PUSH1 0x1 PUSH1 0x50 SHL DUP2 DIV SWAP1 SWAP3 AND PUSH1 0x60 DUP11 ADD MSTORE PUSH4 0xFFFFFFFF PUSH1 0x1 PUSH1 0xA0 SHL DUP4 DIV DUP2 AND PUSH1 0xA0 DUP12 ADD MSTORE PUSH1 0x1 PUSH1 0xC0 SHL DUP4 DIV DUP2 AND PUSH1 0xC0 DUP12 ADD MSTORE PUSH1 0x1 PUSH1 0xE0 SHL SWAP1 SWAP3 DIV SWAP1 SWAP2 AND PUSH1 0xE0 DUP10 ADD MSTORE SWAP1 SWAP2 POP DUP1 DUP5 ISZERO PUSH2 0x32D7 JUMPI PUSH1 0x1 DUP3 ADD SLOAD PUSH10 0xFFFFFFFFFFFFFFFFFFFF AND PUSH1 0x80 DUP10 ADD MSTORE PUSH2 0x32DF JUMP JUMPDEST PUSH1 0x0 PUSH1 0x80 DUP10 ADD MSTORE JUMPDEST POP POP POP POP POP POP POP POP JUMP JUMPDEST PUSH1 0x0 PUSH1 0xF DUP3 DUP2 SIGNEXTEND SWAP1 DUP5 SWAP1 SIGNEXTEND SUB PUSH1 0x1 PUSH1 0x1 PUSH1 0x7F SHL SUB NOT DUP2 SLT DUP1 ISZERO SWAP1 PUSH2 0x18FD JUMPI POP PUSH1 0x1 PUSH1 0x1 PUSH1 0x7F SHL SUB DUP2 SGT ISZERO PUSH2 0x73A JUMPI PUSH1 0x0 DUP1 REVERT JUMPDEST PUSH1 0x0 DUP1 DUP3 PUSH1 0xF SIGNEXTEND SGT PUSH2 0x332D JUMPI PUSH1 0x0 DUP1 REVERT JUMPDEST PUSH1 0x0 PUSH1 0xF DUP4 SWAP1 SIGNEXTEND PUSH1 0x1 PUSH1 0x40 SHL DUP2 SLT PUSH2 0x3347 JUMPI PUSH1 0x40 SWAP2 DUP3 ADD SWAP2 SAR JUMPDEST PUSH5 0x100000000 DUP2 SLT PUSH2 0x335B JUMPI PUSH1 0x20 SWAP2 DUP3 ADD SWAP2 SAR JUMPDEST PUSH3 0x10000 DUP2 SLT PUSH2 0x336D JUMPI PUSH1 0x10 SWAP2 DUP3 ADD SWAP2 SAR JUMPDEST PUSH2 0x100 DUP2 SLT PUSH2 0x337E JUMPI PUSH1 0x8 SWAP2 DUP3 ADD SWAP2 SAR JUMPDEST PUSH1 0x10 DUP2 SLT PUSH2 0x338E JUMPI PUSH1 0x4 SWAP2 DUP3 ADD SWAP2 SAR JUMPDEST PUSH1 0x4 DUP2 SLT PUSH2 0x339E JUMPI PUSH1 0x2 SWAP2 DUP3 ADD SWAP2 SAR JUMPDEST PUSH1 0x2 DUP2 SLT PUSH2 0x33AD JUMPI PUSH1 0x1 DUP3 ADD SWAP2 POP JUMPDEST PUSH1 0x3F NOT DUP3 ADD PUSH1 0x40 SHL PUSH1 0xF DUP6 SWAP1 SIGNEXTEND PUSH1 0x7F DUP5 SWAP1 SUB SHL PUSH1 0x1 PUSH1 0x3F SHL JUMPDEST PUSH1 0x0 DUP2 SGT ISZERO PUSH2 0x33EC JUMPI SWAP1 DUP1 MUL PUSH1 0xFF DUP2 SWAP1 SHR DUP3 DUP2 MUL SWAP4 SWAP1 SWAP4 ADD SWAP3 PUSH1 0x7F ADD SHR SWAP1 PUSH1 0x1 SAR PUSH2 0x33C6 JUMP JUMPDEST POP SWAP1 SWAP6 SWAP5 POP POP POP POP POP JUMP JUMPDEST PUSH1 0x60 PUSH1 0x0 PUSH2 0x3405 DUP5 DUP5 PUSH2 0x37A5 JUMP JUMPDEST SWAP1 POP PUSH1 0x1 DUP2 MLOAD GT PUSH2 0x3417 JUMPI SWAP1 POP PUSH2 0x261 JUMP JUMPDEST PUSH2 0x73A DUP2 PUSH2 0x38BD JUMP JUMPDEST PUSH1 0x0 DUP1 PUSH2 0x3430 DUP5 PUSH1 0x40 ADD MLOAD PUSH2 0x3A7C JUMP JUMPDEST DUP1 ISZERO PUSH2 0x3441 JUMPI POP PUSH1 0x0 DUP5 PUSH1 0x60 ADD MLOAD SLT ISZERO JUMPDEST PUSH2 0x344A JUMPI PUSH1 0x0 DUP1 REVERT JUMPDEST PUSH2 0x346D DUP4 PUSH1 0x80 ADD MLOAD PUSH2 0x6F1 DUP7 PUSH1 0x60 ADD MLOAD DUP7 PUSH1 0x60 ADD MLOAD PUSH2 0x1421 SWAP1 SWAP2 SWAP1 PUSH4 0xFFFFFFFF AND JUMP JUMPDEST SWAP2 POP PUSH2 0x3492 DUP4 PUSH1 0x80 ADD MLOAD PUSH2 0x6F1 DUP7 PUSH1 0x60 ADD MLOAD DUP7 PUSH1 0x40 ADD MLOAD PUSH2 0x1421 SWAP1 SWAP2 SWAP1 PUSH4 0xFFFFFFFF AND JUMP JUMPDEST SWAP1 POP SWAP3 POP SWAP3 SWAP1 POP JUMP JUMPDEST PUSH1 0x0 DUP1 PUSH2 0x34A6 PUSH2 0x3A92 JUMP JUMPDEST PUSH1 0x1 PUSH1 0x1 PUSH1 0xA0 SHL SUB DUP7 AND PUSH1 0x0 SWAP1 DUP2 MSTORE PUSH1 0x20 SWAP2 DUP3 MSTORE PUSH1 0x40 DUP1 DUP3 KECCAK256 DUP8 DUP4 MSTORE DUP4 MSTORE DUP1 DUP3 KECCAK256 DUP7 DUP4 MSTORE SWAP1 SWAP3 MSTORE KECCAK256 SLOAD PUSH1 0xF SWAP1 DUP2 SIGNEXTEND SWAP1 SIGNEXTEND SWAP2 POP POP SWAP4 SWAP3 POP POP POP JUMP JUMPDEST PUSH1 0x0 DUP1 PUSH2 0x34EB PUSH2 0x3A9F JUMP JUMPDEST PUSH1 0x1 PUSH1 0x1 PUSH1 0xA0 SHL SUB DUP6 AND PUSH1 0x0 SWAP1 DUP2 MSTORE PUSH1 0x20 SWAP2 DUP3 MSTORE PUSH1 0x40 DUP1 DUP3 KECCAK256 DUP7 DUP4 MSTORE SWAP1 SWAP3 MSTORE KECCAK256 SLOAD SWAP2 POP POP SWAP3 SWAP2 POP POP JUMP JUMPDEST PUSH1 0x0 DUP1 PUSH1 0x0 PUSH2 0x3523 DUP6 PUSH2 0x3AAC JUMP JUMPDEST SWAP1 POP PUSH3 0x15180 DUP5 MOD ISZERO PUSH2 0x353D JUMPI PUSH1 0x0 DUP1 SWAP3 POP SWAP3 POP POP PUSH2 0x3619 JUMP JUMPDEST DUP4 DUP2 LT PUSH2 0x3551 JUMPI PUSH1 0x0 DUP1 SWAP3 POP SWAP3 POP POP PUSH2 0x3619 JUMP JUMPDEST PUSH3 0x15180 DUP2 DUP6 SUB DIV PUSH1 0x5A DUP2 GT PUSH2 0x356E JUMPI SWAP3 POP PUSH1 0x1 SWAP2 POP PUSH2 0x3619 SWAP1 POP JUMP JUMPDEST PUSH2 0x168 DUP2 GT PUSH2 0x35AD JUMPI PUSH1 0x0 PUSH3 0x15180 PUSH3 0x7E900 DUP5 MOD DIV DUP3 ADD PUSH1 0x59 NOT ADD SWAP1 POP PUSH1 0x6 DUP2 DIV PUSH1 0x5A ADD PUSH1 0x6 DUP3 DUP2 PUSH2 0x359D JUMPI INVALID JUMPDEST MOD PUSH1 0x0 EQ SWAP5 POP SWAP5 POP POP POP POP PUSH2 0x3619 JUMP JUMPDEST PUSH2 0x870 DUP2 GT PUSH2 0x35DD JUMPI PUSH1 0x0 PUSH3 0x15180 PUSH3 0x278D00 DUP5 MOD DIV DUP3 ADD PUSH2 0x167 NOT ADD SWAP1 POP PUSH1 0x1E DUP2 DIV PUSH1 0x87 ADD PUSH1 0x1E DUP3 DUP2 PUSH2 0x359D JUMPI INVALID JUMPDEST PUSH2 0x1DE2 DUP2 GT PUSH2 0x360D JUMPI PUSH1 0x0 PUSH3 0x15180 PUSH3 0x76A700 DUP5 MOD DIV DUP3 ADD PUSH2 0x86F NOT ADD SWAP1 POP PUSH1 0x5A DUP2 DIV PUSH1 0xC3 ADD PUSH1 0x5A DUP3 DUP2 PUSH2 0x359D JUMPI INVALID JUMPDEST PUSH2 0x100 PUSH1 0x0 SWAP4 POP SWAP4 POP POP POP JUMPDEST SWAP3 POP SWAP3 SWAP1 POP JUMP JUMPDEST PUSH1 0x0 PUSH1 0x1 DUP4 LT ISZERO DUP1 ISZERO PUSH2 0x3635 JUMPI POP PUSH2 0x100 DUP4 GT ISZERO JUMPDEST PUSH2 0x363E JUMPI PUSH1 0x0 DUP1 REVERT JUMPDEST DUP2 ISZERO PUSH2 0x3657 JUMPI POP PUSH1 0x1 PUSH1 0xFF SHL PUSH1 0x0 NOT DUP4 ADD SHR DUP4 OR PUSH2 0x73A JUMP JUMPDEST POP PUSH1 0x1 PUSH1 0xFF SHL PUSH1 0x0 NOT DUP4 ADD SHR NOT DUP4 AND PUSH2 0x73A JUMP JUMPDEST PUSH1 0x0 DUP2 PUSH2 0x367A JUMPI POP PUSH1 0x0 PUSH2 0x542 JUMP JUMPDEST PUSH2 0x3683 DUP3 PUSH2 0x3AC8 JUMP JUMPDEST PUSH1 0xFF SUB PUSH1 0x1 ADD SWAP1 POP SWAP2 SWAP1 POP JUMP JUMPDEST PUSH1 0x0 DUP2 PUSH2 0x369C JUMPI PUSH1 0x0 DUP1 REVERT JUMPDEST PUSH2 0x100 DUP3 GT ISZERO PUSH2 0x36AB JUMPI PUSH1 0x0 DUP1 REVERT JUMPDEST PUSH1 0x0 PUSH2 0x36B6 DUP5 PUSH2 0x3AAC JUMP JUMPDEST SWAP1 POP PUSH1 0x0 PUSH1 0x5A DUP5 GT PUSH2 0x36D1 JUMPI POP PUSH3 0x15180 DUP4 MUL ADD SWAP1 POP PUSH2 0x261 JUMP JUMPDEST PUSH1 0x87 DUP5 GT PUSH2 0x36F9 JUMPI POP PUSH1 0x59 NOT DUP4 ADD PUSH3 0x7E900 SWAP1 DUP2 MUL SWAP1 DUP3 MOD SWAP1 SWAP2 SUB ADD PUSH3 0x76A700 ADD SWAP1 POP PUSH2 0x261 JUMP JUMPDEST PUSH1 0xC3 DUP5 GT PUSH2 0x3722 JUMPI POP PUSH1 0x86 NOT DUP4 ADD PUSH3 0x278D00 SWAP1 DUP2 MUL SWAP1 DUP3 MOD SWAP1 SWAP2 SUB ADD PUSH4 0x1DA9C00 ADD SWAP1 POP PUSH2 0x261 JUMP JUMPDEST POP PUSH1 0xC2 NOT DUP4 ADD PUSH3 0x76A700 SWAP1 DUP2 MUL SWAP1 DUP3 MOD SWAP1 SWAP2 SUB ADD PUSH4 0xB1FA800 ADD SWAP1 POP PUSH2 0x261 JUMP JUMPDEST PUSH1 0x0 DUP1 PUSH2 0x3751 DUP9 DUP9 DUP9 PUSH2 0x349B JUMP JUMPDEST SWAP1 POP DUP5 DUP7 GT PUSH2 0x3761 JUMPI SWAP1 POP PUSH2 0x173B JUMP JUMPDEST PUSH1 0x0 PUSH2 0x376E DUP6 DUP9 DUP9 PUSH2 0xDDE JUMP JUMPDEST SWAP1 POP DUP4 ISZERO PUSH2 0x378C JUMPI PUSH2 0x3783 DUP6 DUP4 DUP10 DUP10 DUP6 PUSH2 0xECE JUMP JUMPDEST SWAP3 POP POP POP PUSH2 0x173B JUMP JUMPDEST PUSH2 0x3783 DUP3 DUP9 DUP9 DUP5 PUSH2 0xF6E JUMP JUMPDEST PUSH1 0x0 DUP1 PUSH2 0x261 PUSH1 0xF PUSH2 0x30DB JUMP JUMPDEST PUSH1 0x60 PUSH1 0x10 DUP3 PUSH1 0xFF AND GT ISZERO PUSH2 0x37B8 JUMPI PUSH1 0x0 DUP1 REVERT JUMPDEST PUSH1 0x0 PUSH2 0x37C2 PUSH2 0x3B61 JUMP JUMPDEST PUSH1 0x1 PUSH1 0x1 PUSH1 0xA0 SHL SUB DUP6 AND PUSH1 0x0 SWAP1 DUP2 MSTORE PUSH1 0x20 DUP3 SWAP1 MSTORE PUSH1 0x40 DUP2 KECCAK256 SWAP2 SWAP3 POP PUSH1 0xFF DUP6 AND PUSH8 0xFFFFFFFFFFFFFFFF DUP2 GT DUP1 ISZERO PUSH2 0x37F7 JUMPI PUSH1 0x0 DUP1 REVERT JUMPDEST POP PUSH1 0x40 MLOAD SWAP1 DUP1 DUP3 MSTORE DUP1 PUSH1 0x20 MUL PUSH1 0x20 ADD DUP3 ADD PUSH1 0x40 MSTORE DUP1 ISZERO PUSH2 0x3831 JUMPI DUP2 PUSH1 0x20 ADD JUMPDEST PUSH2 0x381E PUSH2 0x3D85 JUMP JUMPDEST DUP2 MSTORE PUSH1 0x20 ADD SWAP1 PUSH1 0x1 SWAP1 SUB SWAP1 DUP2 PUSH2 0x3816 JUMPI SWAP1 POP JUMPDEST POP SWAP1 POP PUSH1 0x0 JUMPDEST DUP6 PUSH1 0xFF AND DUP2 LT ISZERO PUSH2 0x469 JUMPI PUSH1 0x0 DUP4 DUP3 PUSH1 0x10 DUP2 LT PUSH2 0x3850 JUMPI INVALID JUMPDEST ADD SWAP1 POP PUSH1 0x0 DUP4 DUP4 DUP2 MLOAD DUP2 LT PUSH2 0x3861 JUMPI INVALID JUMPDEST PUSH1 0x20 SWAP1 DUP2 MUL SWAP2 SWAP1 SWAP2 ADD DUP2 ADD MLOAD DUP4 SLOAD PUSH2 0xFFFF DUP2 AND DUP3 MSTORE PUSH5 0xFFFFFFFFFF PUSH3 0x10000 DUP3 DIV AND SWAP3 DUP3 ADD SWAP3 SWAP1 SWAP3 MSTORE PUSH1 0xFF PUSH1 0x1 PUSH1 0x38 SHL DUP4 DIV AND PUSH1 0x40 DUP3 ADD MSTORE PUSH1 0x1 PUSH1 0x40 SHL SWAP1 SWAP2 DIV PUSH1 0xA SWAP1 DUP2 SIGNEXTEND SWAP1 SIGNEXTEND PUSH1 0x60 DUP3 ADD MSTORE PUSH1 0x80 ADD SWAP2 SWAP1 SWAP2 MSTORE POP PUSH1 0x1 ADD PUSH2 0x3837 JUMP JUMPDEST DUP1 MLOAD PUSH1 0x0 DUP2 PUSH8 0xFFFFFFFFFFFFFFFF DUP2 GT DUP1 ISZERO PUSH2 0x38D8 JUMPI PUSH1 0x0 DUP1 REVERT JUMPDEST POP PUSH1 0x40 MLOAD SWAP1 DUP1 DUP3 MSTORE DUP1 PUSH1 0x20 MUL PUSH1 0x20 ADD DUP3 ADD PUSH1 0x40 MSTORE DUP1 ISZERO PUSH2 0x3902 JUMPI DUP2 PUSH1 0x20 ADD PUSH1 0x20 DUP3 MUL DUP1 CALLDATASIZE DUP4 CALLDATACOPY ADD SWAP1 POP JUMPDEST POP SWAP1 POP PUSH1 0x0 JUMPDEST DUP3 DUP2 LT ISZERO PUSH2 0x395F JUMPI PUSH1 0x0 DUP5 DUP3 DUP2 MLOAD DUP2 LT PUSH2 0x391E JUMPI INVALID JUMPDEST PUSH1 0x20 MUL PUSH1 0x20 ADD ADD MLOAD SWAP1 POP PUSH2 0x393F DUP2 PUSH1 0x0 ADD MLOAD DUP3 PUSH1 0x20 ADD MLOAD DUP4 PUSH1 0x40 ADD MLOAD PUSH2 0x3B6E JUMP JUMPDEST DUP4 DUP4 DUP2 MLOAD DUP2 LT PUSH2 0x394B JUMPI INVALID JUMPDEST PUSH1 0x20 SWAP1 DUP2 MUL SWAP2 SWAP1 SWAP2 ADD ADD MSTORE POP PUSH1 0x1 ADD PUSH2 0x3908 JUMP JUMPDEST POP PUSH1 0x1 JUMPDEST DUP3 DUP2 LT ISZERO PUSH2 0x3A76 JUMPI DUP1 JUMPDEST PUSH1 0x0 DUP2 GT DUP1 ISZERO PUSH2 0x39A5 JUMPI POP DUP3 DUP2 DUP2 MLOAD DUP2 LT PUSH2 0x3984 JUMPI INVALID JUMPDEST PUSH1 0x20 MUL PUSH1 0x20 ADD ADD MLOAD DUP4 PUSH1 0x1 DUP4 SUB DUP2 MLOAD DUP2 LT PUSH2 0x399B JUMPI INVALID JUMPDEST PUSH1 0x20 MUL PUSH1 0x20 ADD ADD MLOAD GT JUMPDEST ISZERO PUSH2 0x3A6D JUMPI DUP3 DUP2 DUP2 MLOAD DUP2 LT PUSH2 0x39B6 JUMPI INVALID JUMPDEST PUSH1 0x20 MUL PUSH1 0x20 ADD ADD MLOAD DUP4 PUSH1 0x1 DUP4 SUB DUP2 MLOAD DUP2 LT PUSH2 0x39CD JUMPI INVALID JUMPDEST PUSH1 0x20 MUL PUSH1 0x20 ADD ADD MLOAD DUP5 PUSH1 0x1 DUP5 SUB DUP2 MLOAD DUP2 LT PUSH2 0x39E4 JUMPI INVALID JUMPDEST PUSH1 0x20 MUL PUSH1 0x20 ADD ADD DUP6 DUP5 DUP2 MLOAD DUP2 LT PUSH2 0x39F7 JUMPI INVALID JUMPDEST PUSH1 0x20 MUL PUSH1 0x20 ADD ADD DUP3 DUP2 MSTORE POP DUP3 DUP2 MSTORE POP POP POP DUP5 DUP2 DUP2 MLOAD DUP2 LT PUSH2 0x3A14 JUMPI INVALID JUMPDEST PUSH1 0x20 MUL PUSH1 0x20 ADD ADD MLOAD DUP6 PUSH1 0x1 DUP4 SUB DUP2 MLOAD DUP2 LT PUSH2 0x3A2B JUMPI INVALID JUMPDEST PUSH1 0x20 MUL PUSH1 0x20 ADD ADD MLOAD DUP7 PUSH1 0x1 DUP5 SUB DUP2 MLOAD DUP2 LT PUSH2 0x3A42 JUMPI INVALID JUMPDEST PUSH1 0x20 MUL PUSH1 0x20 ADD ADD DUP8 DUP5 DUP2 MLOAD DUP2 LT PUSH2 0x3A55 JUMPI INVALID JUMPDEST PUSH1 0x20 SWAP1 DUP2 MUL SWAP2 SWAP1 SWAP2 ADD ADD SWAP2 SWAP1 SWAP2 MSTORE MSTORE PUSH1 0x0 NOT ADD PUSH2 0x396D JUMP JUMPDEST POP PUSH1 0x1 ADD PUSH2 0x3963 JUMP JUMPDEST POP POP POP POP JUMP JUMPDEST PUSH1 0x0 PUSH1 0x2 DUP3 LT DUP1 ISZERO SWAP1 PUSH2 0x261 JUMPI POP POP PUSH1 0x8 LT ISZERO SWAP1 JUMP JUMPDEST PUSH1 0x0 DUP1 PUSH2 0x261 PUSH1 0xC PUSH2 0x30DB JUMP JUMPDEST PUSH1 0x0 DUP1 PUSH2 0x261 PUSH1 0xB PUSH2 0x30DB JUMP JUMPDEST PUSH1 0x0 PUSH3 0x15180 DUP3 LT ISZERO PUSH2 0x3ABE JUMPI PUSH1 0x0 DUP1 REVERT JUMPDEST PUSH3 0x15180 DUP3 PUSH2 0x10FF JUMP JUMPDEST PUSH1 0x0 DUP2 PUSH2 0x3AD4 JUMPI PUSH1 0x0 DUP1 REVERT JUMPDEST PUSH1 0x1 PUSH1 0x80 SHL DUP3 LT PUSH2 0x3AE7 JUMPI PUSH1 0x80 SWAP2 DUP3 SHR SWAP2 ADD JUMPDEST PUSH1 0x1 PUSH1 0x40 SHL DUP3 LT PUSH2 0x3AFA JUMPI PUSH1 0x40 SWAP2 DUP3 SHR SWAP2 ADD JUMPDEST PUSH5 0x100000000 DUP3 LT PUSH2 0x3B0E JUMPI PUSH1 0x20 SWAP2 DUP3 SHR SWAP2 ADD JUMPDEST PUSH3 0x10000 DUP3 LT PUSH2 0x3B20 JUMPI PUSH1 0x10 SWAP2 DUP3 SHR SWAP2 ADD JUMPDEST PUSH2 0x100 DUP3 LT PUSH2 0x3B31 JUMPI PUSH1 0x8 SWAP2 DUP3 SHR SWAP2 ADD JUMPDEST PUSH1 0x10 DUP3 LT PUSH2 0x3B41 JUMPI PUSH1 0x4 SWAP2 DUP3 SHR SWAP2 ADD JUMPDEST PUSH1 0x4 DUP3 LT PUSH2 0x3B51 JUMPI PUSH1 0x2 SWAP2 DUP3 SHR SWAP2 ADD JUMPDEST PUSH1 0x2 DUP3 LT PUSH2 0x542 JUMPI PUSH1 0x1 ADD SWAP2 SWAP1 POP JUMP JUMPDEST PUSH1 0x0 DUP1 PUSH2 0x261 PUSH1 0xD PUSH2 0x30DB JUMP JUMPDEST PUSH1 0x0 PUSH2 0x3FFF DUP5 GT ISZERO PUSH2 0x3B7F JUMPI PUSH1 0x0 DUP1 REVERT JUMPDEST PUSH5 0xFFFFFFFFFF DUP4 GT ISZERO PUSH2 0x3B91 JUMPI PUSH1 0x0 DUP1 REVERT JUMPDEST PUSH1 0x8 DUP3 GT ISZERO PUSH2 0x3B9F JUMPI PUSH1 0x0 DUP1 REVERT JUMPDEST POP PUSH8 0xFFFF000000000000 PUSH1 0x30 DUP5 SWAP1 SHL AND PUSH6 0xFFFFFFFFFF00 PUSH1 0x8 DUP5 SWAP1 SHL AND OR PUSH1 0xFF DUP3 AND OR SWAP4 SWAP3 POP POP POP JUMP JUMPDEST PUSH1 0x40 MLOAD DUP1 PUSH2 0x100 ADD PUSH1 0x40 MSTORE DUP1 PUSH1 0x0 DUP1 NOT AND DUP2 MSTORE PUSH1 0x20 ADD PUSH1 0x0 DUP2 MSTORE PUSH1 0x20 ADD PUSH1 0x0 DUP2 MSTORE PUSH1 0x20 ADD PUSH1 0x0 DUP2 MSTORE PUSH1 0x20 ADD PUSH1 0x0 DUP2 MSTORE PUSH1 0x20 ADD PUSH1 0x0 DUP2 MSTORE PUSH1 0x20 ADD PUSH1 0x0 DUP2 MSTORE PUSH1 0x20 ADD PUSH1 0x0 DUP2 MSTORE POP SWAP1 JUMP JUMPDEST PUSH1 0x40 MLOAD DUP1 PUSH1 0xE0 ADD PUSH1 0x40 MSTORE DUP1 PUSH2 0x3C24 PUSH2 0x3CAA JUMP JUMPDEST DUP2 MSTORE PUSH1 0x20 ADD PUSH2 0x3C31 PUSH2 0x3D5D JUMP JUMPDEST DUP2 MSTORE PUSH1 0x0 PUSH1 0x20 DUP3 ADD DUP2 SWAP1 MSTORE PUSH1 0x40 DUP3 ADD DUP2 SWAP1 MSTORE PUSH1 0x60 DUP3 ADD DUP2 SWAP1 MSTORE PUSH1 0x80 DUP3 ADD DUP2 SWAP1 MSTORE PUSH1 0xA0 SWAP1 SWAP2 ADD MSTORE SWAP1 JUMP JUMPDEST PUSH1 0x40 MLOAD DUP1 PUSH2 0x120 ADD PUSH1 0x40 MSTORE DUP1 PUSH1 0x0 PUSH2 0xFFFF AND DUP2 MSTORE PUSH1 0x20 ADD PUSH1 0x0 DUP2 MSTORE PUSH1 0x20 ADD PUSH1 0x0 DUP2 MSTORE PUSH1 0x20 ADD PUSH1 0x0 DUP2 MSTORE PUSH1 0x20 ADD PUSH1 0x0 DUP2 MSTORE PUSH1 0x20 ADD PUSH1 0x0 DUP2 MSTORE PUSH1 0x20 ADD PUSH1 0x0 DUP2 MSTORE PUSH1 0x20 ADD PUSH1 0x0 DUP2 MSTORE PUSH1 0x20 ADD PUSH1 0x0 DUP2 MSTORE POP SWAP1 JUMP JUMPDEST PUSH1 0x40 DUP1 MLOAD PUSH1 0x80 DUP2 ADD DUP3 MSTORE PUSH1 0x0 DUP1 DUP3 MSTORE PUSH1 0x20 DUP3 ADD MSTORE SWAP1 DUP2 ADD PUSH2 0x3CC9 PUSH2 0x3D33 JUMP JUMPDEST DUP2 MSTORE PUSH1 0x0 PUSH1 0x20 SWAP1 SWAP2 ADD MSTORE SWAP1 JUMP JUMPDEST PUSH1 0x40 DUP1 MLOAD PUSH1 0xA0 DUP2 ADD DUP3 MSTORE PUSH1 0x0 DUP1 DUP3 MSTORE PUSH1 0x20 DUP3 ADD DUP2 SWAP1 MSTORE SWAP2 DUP2 ADD DUP3 SWAP1 MSTORE SWAP1 PUSH1 0x60 DUP3 ADD SWAP1 DUP2 MSTORE PUSH1 0x20 ADD PUSH1 0x0 DUP2 MSTORE POP SWAP1 JUMP JUMPDEST PUSH1 0x40 DUP1 MLOAD PUSH1 0xA0 DUP2 ADD DUP3 MSTORE PUSH1 0x0 DUP1 DUP3 MSTORE PUSH1 0x20 DUP3 ADD DUP2 SWAP1 MSTORE SWAP2 DUP2 ADD DUP3 SWAP1 MSTORE PUSH1 0x60 DUP2 ADD DUP3 SWAP1 MSTORE PUSH1 0x80 DUP2 ADD SWAP2 SWAP1 SWAP2 MSTORE SWAP1 JUMP JUMPDEST PUSH1 0x40 MLOAD DUP1 PUSH1 0x60 ADD PUSH1 0x40 MSTORE DUP1 PUSH1 0x0 PUSH1 0x1 PUSH1 0x1 PUSH1 0xA0 SHL SUB AND DUP2 MSTORE PUSH1 0x20 ADD PUSH1 0x0 DUP2 MSTORE PUSH1 0x20 ADD PUSH1 0x0 DUP2 MSTORE POP SWAP1 JUMP JUMPDEST PUSH1 0x40 MLOAD DUP1 PUSH1 0x80 ADD PUSH1 0x40 MSTORE DUP1 PUSH1 0x60 DUP2 MSTORE PUSH1 0x20 ADD PUSH1 0x60 DUP2 MSTORE PUSH1 0x20 ADD PUSH1 0x0 DUP2 MSTORE PUSH1 0x20 ADD PUSH1 0x0 DUP2 MSTORE POP SWAP1 JUMP JUMPDEST PUSH1 0x40 MLOAD DUP1 PUSH1 0xC0 ADD PUSH1 0x40 MSTORE DUP1 PUSH1 0x0 DUP2 MSTORE PUSH1 0x20 ADD PUSH1 0x0 DUP2 MSTORE PUSH1 0x20 ADD PUSH1 0x0 DUP2 MSTORE PUSH1 0x20 ADD PUSH1 0x0 DUP2 MSTORE PUSH1 0x20 ADD PUSH1 0x0 DUP2 MSTORE PUSH1 0x20 ADD PUSH1 0x0 PUSH1 0x3 DUP2 GT ISZERO PUSH2 0x3DC0 JUMPI INVALID JUMPDEST SWAP1 MSTORE SWAP1 JUMP JUMPDEST DUP1 CALLDATALOAD PUSH2 0xFFFF DUP2 AND DUP2 EQ PUSH2 0x542 JUMPI PUSH1 0x0 DUP1 REVERT JUMPDEST PUSH1 0x0 DUP1 PUSH1 0x40 DUP4 DUP6 SUB SLT ISZERO PUSH2 0x3DE9 JUMPI DUP2 DUP3 REVERT JUMPDEST DUP3 CALLDATALOAD PUSH1 0x1 PUSH1 0x1 PUSH1 0xA0 SHL SUB DUP2 AND DUP2 EQ PUSH2 0x3DFF JUMPI DUP3 DUP4 REVERT JUMPDEST SWAP5 PUSH1 0x20 SWAP4 SWAP1 SWAP4 ADD CALLDATALOAD SWAP4 POP POP POP JUMP JUMPDEST PUSH1 0x0 PUSH1 0x20 DUP3 DUP5 SUB SLT ISZERO PUSH2 0x3E1E JUMPI DUP1 DUP2 REVERT JUMPDEST POP MLOAD SWAP2 SWAP1 POP JUMP JUMPDEST PUSH1 0x0 DUP1 PUSH1 0x0 DUP1 PUSH1 0x80 DUP6 DUP8 SUB SLT ISZERO PUSH2 0x3E3A JUMPI DUP2 DUP3 REVERT JUMPDEST PUSH2 0x3E43 DUP6 PUSH2 0x3DC5 JUMP JUMPDEST SWAP4 POP PUSH1 0x20 DUP6 ADD CALLDATALOAD DUP1 PUSH1 0xA SIGNEXTEND DUP2 EQ PUSH2 0x3E58 JUMPI DUP3 DUP4 REVERT JUMPDEST SWAP4 SWAP7 SWAP4 SWAP6 POP POP POP POP PUSH1 0x40 DUP3 ADD CALLDATALOAD SWAP2 PUSH1 0x60 ADD CALLDATALOAD SWAP1 JUMP JUMPDEST PUSH1 0x0 DUP1 PUSH1 0x0 DUP1 PUSH1 0x0 PUSH1 0xA0 DUP7 DUP9 SUB SLT ISZERO PUSH2 0x3E84 JUMPI DUP1 DUP2 REVERT JUMPDEST PUSH2 0x3E8D DUP7 PUSH2 0x3DC5 JUMP JUMPDEST SWAP5 POP PUSH1 0x20 DUP7 ADD CALLDATALOAD SWAP4 POP PUSH1 0x40 DUP7 ADD CALLDATALOAD SWAP3 POP PUSH1 0x60 DUP7 ADD CALLDATALOAD SWAP2 POP PUSH1 0x80 DUP7 ADD CALLDATALOAD DUP1 ISZERO ISZERO DUP2 EQ PUSH2 0x3EB6 JUMPI DUP2 DUP3 REVERT JUMPDEST DUP1 SWAP2 POP POP SWAP3 SWAP6 POP SWAP3 SWAP6 SWAP1 SWAP4 POP JUMP JUMPDEST PUSH1 0x0 DUP1 PUSH1 0x40 DUP4 DUP6 SUB SLT ISZERO PUSH2 0x3ED6 JUMPI DUP2 DUP3 REVERT JUMPDEST PUSH2 0x3EDF DUP4 PUSH2 0x3DC5 JUMP JUMPDEST SWAP2 POP PUSH1 0x20 DUP4 ADD CALLDATALOAD PUSH11 0xFFFFFFFFFFFFFFFFFFFFFF DUP2 AND DUP2 EQ PUSH2 0x3EFE JUMPI DUP2 DUP3 REVERT JUMPDEST DUP1 SWAP2 POP POP SWAP3 POP SWAP3 SWAP1 POP JUMP JUMPDEST PUSH1 0x1 PUSH1 0x1 PUSH1 0xA0 SHL SUB SWAP2 SWAP1 SWAP2 AND DUP2 MSTORE PUSH1 0x20 ADD SWAP1 JUMP JUMPDEST PUSH1 0x1 PUSH1 0x1 PUSH1 0xA0 SHL SUB SWAP5 SWAP1 SWAP5 AND DUP5 MSTORE PUSH1 0x20 DUP5 ADD SWAP3 SWAP1 SWAP3 MSTORE PUSH1 0x40 DUP4 ADD MSTORE PUSH1 0x60 DUP3 ADD MSTORE PUSH1 0x80 ADD SWAP1 JUMP JUMPDEST SWAP1 DUP2 MSTORE PUSH1 0x20 ADD SWAP1 JUMP JUMPDEST SWAP2 DUP3 MSTORE PUSH1 0x20 DUP3 ADD MSTORE PUSH1 0x40 ADD SWAP1 JUMP JUMPDEST PUSH1 0x20 DUP1 DUP3 MSTORE PUSH1 0x16 SWAP1 DUP3 ADD MSTORE PUSH22 0x13585C9AD95D081B9BDD081A5B9A5D1A585B1A5E9959 PUSH1 0x52 SHL PUSH1 0x40 DUP3 ADD MSTORE PUSH1 0x60 ADD SWAP1 JUMP JUMPDEST PUSH1 0x20 DUP1 DUP3 MSTORE PUSH1 0x13 SWAP1 DUP3 ADD MSTORE PUSH19 0x14995C5D5A5C995CC81CD95D1D1B195B595B9D PUSH1 0x6A SHL PUSH1 0x40 DUP3 ADD MSTORE PUSH1 0x60 ADD SWAP1 JUMP JUMPDEST PUSH1 0x20 DUP1 DUP3 MSTORE PUSH1 0xE SWAP1 DUP3 ADD MSTORE PUSH14 0x4E6F20636F6E76657267656E6365 PUSH1 0x90 SHL PUSH1 0x40 DUP3 ADD MSTORE PUSH1 0x60 ADD SWAP1 JUMP JUMPDEST PUSH1 0x20 DUP1 DUP3 MSTORE PUSH1 0x15 SWAP1 DUP3 ADD MSTORE PUSH21 0x10D1CE881B9BC81B585C9AD95D1CC81B1A5CDD1959 PUSH1 0x5A SHL PUSH1 0x40 DUP3 ADD MSTORE PUSH1 0x60 ADD SWAP1 JUMP JUMPDEST PUSH1 0x20 DUP1 DUP3 MSTORE PUSH1 0xD SWAP1 DUP3 ADD MSTORE PUSH13 0x92DCECC2D8D2C840D2DCC8CAF PUSH1 0x9B SHL PUSH1 0x40 DUP3 ADD MSTORE PUSH1 0x60 ADD SWAP1 JUMP JUMPDEST PUSH1 0x20 DUP1 DUP3 MSTORE PUSH1 0x16 SWAP1 DUP3 ADD MSTORE PUSH22 0x10D1CE881B585C9AD95D081A5B99195E08189BDD5B99 PUSH1 0x52 SHL PUSH1 0x40 DUP3 ADD MSTORE PUSH1 0x60 ADD SWAP1 JUMP JUMPDEST PUSH1 0x20 DUP1 DUP3 MSTORE PUSH1 0xE SWAP1 DUP3 ADD MSTORE PUSH14 0x125B9D985B1A59081B585C9AD95D PUSH1 0x92 SHL PUSH1 0x40 DUP3 ADD MSTORE PUSH1 0x60 ADD SWAP1 JUMP JUMPDEST PUSH1 0x20 DUP1 DUP3 MSTORE PUSH1 0x12 SWAP1 DUP3 ADD MSTORE PUSH18 0x496E76616C696420626C6F636B2074696D65 PUSH1 0x70 SHL PUSH1 0x40 DUP3 ADD MSTORE PUSH1 0x60 ADD SWAP1 JUMP JUMPDEST PUSH1 0x20 DUP1 DUP3 MSTORE PUSH1 0x13 SWAP1 DUP3 ADD MSTORE PUSH19 0x125B9D985B1A590818DD5C9C995B98DE481A59 PUSH1 0x6A SHL PUSH1 0x40 DUP3 ADD MSTORE PUSH1 0x60 ADD SWAP1 JUMP JUMPDEST PUSH1 0x20 DUP1 DUP3 MSTORE PUSH1 0x13 SWAP1 DUP3 ADD MSTORE PUSH19 0x10D1CE881B9BC81B585C9AD95D08199BDD5B99 PUSH1 0x6A SHL PUSH1 0x40 DUP3 ADD MSTORE PUSH1 0x60 ADD SWAP1 JUMP INVALID MSTORE8 PUSH2 0x6665 0x4D PUSH2 0x7468 GASPRICE KECCAK256 PUSH14 0x756C7469706C69636174696F6E20 PUSH16 0x766572666C6F77A26469706673582212 KECCAK256 SWAP1 SLOAD 0xCD PUSH31 0x622899FD52F1B0E96CE891752A28B897F6EF73A303363E09B45E5B9064736F PUSH13 0x63430007060033000000000000 ","sha1":"2c2101694ce128a72e11487edc1703893d2f92bb","source":"// SPDX-License-Identifier: GPL-3.0-only\npragma solidity ^0.7.0;\npragma abicoder v2;\n\nimport \"./actions/nTokenMintAction.sol\";\nimport \"../internal/balances/TokenHandler.sol\";\nimport \"../global/StorageLayoutV1.sol\";\nimport \"../internal/markets/CashGroup.sol\";\nimport \"../internal/markets/AssetRate.sol\";\nimport \"../internal/nToken/nTokenSupply.sol\";\nimport \"../internal/nToken/nTokenHandler.sol\";\nimport \"../math/SafeInt256.sol\";\nimport \"../../interfaces/notional/NotionalCalculations.sol\";\nimport \"@openzeppelin/contracts/utils/SafeCast.sol\";\nimport \"@openzeppelin/contracts/math/SafeMath.sol\";\n\ncontract CalculationViews is StorageLayoutV1, NotionalCalculations {\n    using TokenHandler for Token;\n    using Market for MarketParameters;\n    using AssetRate for AssetRateParameters;\n    using CashGroup for CashGroupParameters;\n    using nTokenHandler for nTokenPortfolio;\n    using AccountContextHandler for AccountContext;\n    using BalanceHandler for BalanceState;\n    using SafeInt256 for int256;\n    using SafeMath for uint256;\n\n    function _checkValidCurrency(uint16 currencyId) internal view {\n        require(0 < currencyId && currencyId <= maxCurrencyId, \"Invalid currency id\");\n    }\n\n    /** General Calculation View Methods **/\n\n    /// @notice Returns the nTokens that will be minted when some amount of asset tokens are deposited\n    function calculateNTokensToMint(uint16 currencyId, uint88 amountToDepositExternalPrecision)\n        external\n        view\n        override\n        returns (uint256)\n    {\n        _checkValidCurrency(currencyId);\n        Token memory token = TokenHandler.getAssetToken(currencyId);\n        int256 amountToDepositInternal =\n            token.convertToInternal(int256(amountToDepositExternalPrecision));\n        nTokenPortfolio memory nToken;\n        nToken.loadNTokenPortfolioView(currencyId);\n\n        int256 tokensToMint = nTokenMintAction.calculateTokensToMint(\n            nToken,\n            amountToDepositInternal,\n            block.timestamp\n        );\n\n        return SafeCast.toUint256(tokensToMint);\n    }\n\n    /// @notice Returns the fCash amount to send when given a cash amount, be sure to buffer these amounts\n    /// slightly because the liquidity curve is sensitive to changes in block time\n    function getfCashAmountGivenCashAmount(\n        uint16 currencyId,\n        int88 netCashToAccount,\n        uint256 marketIndex,\n        uint256 blockTime\n    ) external view override returns (int256) {\n        _checkValidCurrency(currencyId);\n        CashGroupParameters memory cashGroup = CashGroup.buildCashGroupView(currencyId);\n        MarketParameters memory market;\n        cashGroup.loadMarket(market, marketIndex, false, blockTime);\n\n        require(market.maturity > blockTime, \"Invalid block time\");\n        uint256 timeToMaturity = market.maturity - blockTime;\n        (int256 rateScalar, int256 totalCashUnderlying, int256 rateAnchor) =\n            Market.getExchangeRateFactors(market, cashGroup, timeToMaturity, marketIndex);\n        int256 fee = Market.getExchangeRateFromImpliedRate(cashGroup.getTotalFee(), timeToMaturity);\n\n        return\n            Market.getfCashGivenCashAmount(\n                market.totalfCash,\n                netCashToAccount,\n                totalCashUnderlying,\n                rateScalar,\n                rateAnchor,\n                fee,\n                0\n            );\n    }\n\n    /// @notice Returns the cash amount that will be traded given an fCash amount, be sure to buffer these amounts\n    /// slightly because the liquidity curve is sensitive to changes in block time\n    function getCashAmountGivenfCashAmount(\n        uint16 currencyId,\n        int88 fCashAmount,\n        uint256 marketIndex,\n        uint256 blockTime\n    ) external view override returns (int256, int256) {\n        _checkValidCurrency(currencyId);\n        CashGroupParameters memory cashGroup = CashGroup.buildCashGroupView(currencyId);\n        MarketParameters memory market;\n        cashGroup.loadMarket(market, marketIndex, false, blockTime);\n\n        require(market.maturity > blockTime, \"Invalid block time\");\n        uint256 timeToMaturity = market.maturity - blockTime;\n\n        // prettier-ignore\n        (int256 assetCash, /* int fee */) =\n            market.calculateTrade(cashGroup, fCashAmount, timeToMaturity, marketIndex);\n\n        return (assetCash, cashGroup.assetRate.convertToUnderlying(assetCash));\n    }\n\n    /// @notice Returns the claimable incentives for all nToken balances\n    /// @param account The address of the account which holds the tokens\n    /// @param blockTime The block time when incentives will be minted\n    /// @return Incentives an account is eligible to claim\n    function nTokenGetClaimableIncentives(address account, uint256 blockTime)\n        external\n        view\n        override\n        returns (uint256)\n    {\n        AccountContext memory accountContext = AccountContextHandler.getAccountContext(account);\n        BalanceState memory balanceState;\n        uint256 totalIncentivesClaimable;\n\n        if (accountContext.isBitmapEnabled()) {\n            balanceState.loadBalanceState(account, accountContext.bitmapCurrencyId, accountContext);\n            if (balanceState.storedNTokenBalance > 0) {\n                address tokenAddress = nTokenHandler.nTokenAddress(balanceState.currencyId);\n                (\n                    /* uint256 totalSupply */,\n                    uint256 accumulatedNOTEPerNToken,\n                    /* uint256 lastAccumulatedTime */\n                ) = nTokenSupply.getUpdatedAccumulatedNOTEPerNToken(tokenAddress, blockTime);\n\n                uint256 incentivesToClaim = Incentives.calculateIncentivesToClaim(\n                    balanceState,\n                    tokenAddress,\n                    accumulatedNOTEPerNToken,\n                    balanceState.storedNTokenBalance.toUint()\n                );\n                totalIncentivesClaimable = totalIncentivesClaimable.add(incentivesToClaim);\n            }\n        }\n\n        bytes18 currencies = accountContext.activeCurrencies;\n        while (currencies != 0) {\n            uint16 currencyId = uint16(bytes2(currencies) & Constants.UNMASK_FLAGS);\n            balanceState.loadBalanceState(account, currencyId, accountContext);\n\n            if (balanceState.storedNTokenBalance > 0) {\n                address tokenAddress = nTokenHandler.nTokenAddress(balanceState.currencyId);\n                (\n                    /* uint256 totalSupply */,\n                    uint256 accumulatedNOTEPerNToken,\n                    /* uint256 lastAccumulatedTime */\n                ) = nTokenSupply.getUpdatedAccumulatedNOTEPerNToken(tokenAddress, blockTime);\n\n                uint256 incentivesToClaim = Incentives.calculateIncentivesToClaim(\n                    balanceState,\n                    tokenAddress,\n                    accumulatedNOTEPerNToken,\n                    balanceState.storedNTokenBalance.toUint()\n                );\n                totalIncentivesClaimable = totalIncentivesClaimable.add(incentivesToClaim);\n            }\n\n            currencies = currencies << 16;\n        }\n\n        return totalIncentivesClaimable;\n    }\n\n    function getPresentfCashValue(\n        uint16 currencyId,\n        uint256 maturity,\n        int256 notional,\n        uint256 blockTime,\n        bool riskAdjusted\n    ) external view override returns (int256 presentValue) {\n        CashGroupParameters memory cg = CashGroup.buildCashGroupView(currencyId);\n        if (riskAdjusted) {\n            presentValue = AssetHandler.getRiskAdjustedPresentfCashValue(\n                cg,\n                notional,\n                maturity,\n                blockTime,\n                cg.calculateOracleRate(maturity, blockTime)\n            );\n        } else {\n            presentValue = AssetHandler.getPresentfCashValue(\n                notional,\n                maturity,\n                blockTime,\n                cg.calculateOracleRate(maturity, blockTime)\n            );\n        }\n    }\n\n    /// @notice Get a list of deployed library addresses (sorted by library name)\n    function getLibInfo() external view returns (address) {\n        return (address(MigrateIncentives));\n    }\n}","sourcePath":"contracts/external/CalculationViews.sol","deployment":{"address":"0xE6270EEe5D3473d41BE4D6C13748b9a2784c607C","chainid":"42","blockHeight":30483987}}