{
  "abi": [
    {
      "inputs": [
        {
          "internalType": "contract INotionalV2",
          "name": "_notional",
          "type": "address"
        },
        {
          "internalType": "contract WETH9",
          "name": "_weth",
          "type": "address"
        }
      ],
      "stateMutability": "nonpayable",
      "type": "constructor"
    },
    {
      "anonymous": false,
      "inputs": [
        {
          "indexed": true,
          "internalType": "address",
          "name": "owner",
          "type": "address"
        },
        {
          "indexed": true,
          "internalType": "address",
          "name": "spender",
          "type": "address"
        },
        {
          "indexed": false,
          "internalType": "uint256",
          "name": "value",
          "type": "uint256"
        }
      ],
      "name": "Approval",
      "type": "event"
    },
    {
      "anonymous": false,
      "inputs": [
        {
          "indexed": true,
          "internalType": "address",
          "name": "caller",
          "type": "address"
        },
        {
          "indexed": true,
          "internalType": "address",
          "name": "owner",
          "type": "address"
        },
        {
          "indexed": false,
          "internalType": "uint256",
          "name": "assets",
          "type": "uint256"
        },
        {
          "indexed": false,
          "internalType": "uint256",
          "name": "shares",
          "type": "uint256"
        }
      ],
      "name": "Deposit",
      "type": "event"
    },
    {
      "anonymous": false,
      "inputs": [
        {
          "indexed": true,
          "internalType": "address",
          "name": "from",
          "type": "address"
        },
        {
          "indexed": true,
          "internalType": "address",
          "name": "to",
          "type": "address"
        },
        {
          "indexed": false,
          "internalType": "uint256",
          "name": "value",
          "type": "uint256"
        }
      ],
      "name": "Transfer",
      "type": "event"
    },
    {
      "anonymous": false,
      "inputs": [
        {
          "indexed": true,
          "internalType": "address",
          "name": "caller",
          "type": "address"
        },
        {
          "indexed": true,
          "internalType": "address",
          "name": "receiver",
          "type": "address"
        },
        {
          "indexed": true,
          "internalType": "address",
          "name": "owner",
          "type": "address"
        },
        {
          "indexed": false,
          "internalType": "uint256",
          "name": "assets",
          "type": "uint256"
        },
        {
          "indexed": false,
          "internalType": "uint256",
          "name": "shares",
          "type": "uint256"
        }
      ],
      "name": "Withdraw",
      "type": "event"
    },
    {
      "inputs": [],
      "name": "NotionalV2",
      "outputs": [
        {
          "internalType": "contract INotionalV2",
          "name": "",
          "type": "address"
        }
      ],
      "stateMutability": "view",
      "type": "function"
    },
    {
      "inputs": [],
      "name": "WETH",
      "outputs": [
        {
          "internalType": "contract WETH9",
          "name": "",
          "type": "address"
        }
      ],
      "stateMutability": "view",
      "type": "function"
    },
    {
      "inputs": [
        {
          "internalType": "address",
          "name": "owner",
          "type": "address"
        },
        {
          "internalType": "address",
          "name": "spender",
          "type": "address"
        }
      ],
      "name": "allowance",
      "outputs": [
        {
          "internalType": "uint256",
          "name": "",
          "type": "uint256"
        }
      ],
      "stateMutability": "view",
      "type": "function"
    },
    {
      "inputs": [
        {
          "internalType": "address",
          "name": "spender",
          "type": "address"
        },
        {
          "internalType": "uint256",
          "name": "amount",
          "type": "uint256"
        }
      ],
      "name": "approve",
      "outputs": [
        {
          "internalType": "bool",
          "name": "",
          "type": "bool"
        }
      ],
      "stateMutability": "nonpayable",
      "type": "function"
    },
    {
      "inputs": [],
      "name": "asset",
      "outputs": [
        {
          "internalType": "address",
          "name": "",
          "type": "address"
        }
      ],
      "stateMutability": "view",
      "type": "function"
    },
    {
      "inputs": [
        {
          "internalType": "address",
          "name": "account",
          "type": "address"
        }
      ],
      "name": "balanceOf",
      "outputs": [
        {
          "internalType": "uint256",
          "name": "",
          "type": "uint256"
        }
      ],
      "stateMutability": "view",
      "type": "function"
    },
    {
      "inputs": [
        {
          "internalType": "uint256",
          "name": "shares",
          "type": "uint256"
        }
      ],
      "name": "convertToAssets",
      "outputs": [
        {
          "internalType": "uint256",
          "name": "assets",
          "type": "uint256"
        }
      ],
      "stateMutability": "view",
      "type": "function"
    },
    {
      "inputs": [
        {
          "internalType": "uint256",
          "name": "assets",
          "type": "uint256"
        }
      ],
      "name": "convertToShares",
      "outputs": [
        {
          "internalType": "uint256",
          "name": "shares",
          "type": "uint256"
        }
      ],
      "stateMutability": "view",
      "type": "function"
    },
    {
      "inputs": [],
      "name": "decimals",
      "outputs": [
        {
          "internalType": "uint8",
          "name": "",
          "type": "uint8"
        }
      ],
      "stateMutability": "pure",
      "type": "function"
    },
    {
      "inputs": [
        {
          "internalType": "address",
          "name": "spender",
          "type": "address"
        },
        {
          "internalType": "uint256",
          "name": "subtractedValue",
          "type": "uint256"
        }
      ],
      "name": "decreaseAllowance",
      "outputs": [
        {
          "internalType": "bool",
          "name": "",
          "type": "bool"
        }
      ],
      "stateMutability": "nonpayable",
      "type": "function"
    },
    {
      "inputs": [
        {
          "internalType": "uint256",
          "name": "assets",
          "type": "uint256"
        },
        {
          "internalType": "address",
          "name": "receiver",
          "type": "address"
        }
      ],
      "name": "deposit",
      "outputs": [
        {
          "internalType": "uint256",
          "name": "",
          "type": "uint256"
        }
      ],
      "stateMutability": "nonpayable",
      "type": "function"
    },
    {
      "inputs": [],
      "name": "getAssetToken",
      "outputs": [
        {
          "internalType": "contract IERC20",
          "name": "assetToken",
          "type": "address"
        },
        {
          "internalType": "int256",
          "name": "underlyingPrecision",
          "type": "int256"
        },
        {
          "internalType": "enum TokenType",
          "name": "tokenType",
          "type": "uint8"
        }
      ],
      "stateMutability": "view",
      "type": "function"
    },
    {
      "inputs": [],
      "name": "getCurrencyId",
      "outputs": [
        {
          "internalType": "uint16",
          "name": "currencyId",
          "type": "uint16"
        }
      ],
      "stateMutability": "view",
      "type": "function"
    },
    {
      "inputs": [],
      "name": "getDecodedID",
      "outputs": [
        {
          "internalType": "uint16",
          "name": "currencyId",
          "type": "uint16"
        },
        {
          "internalType": "uint40",
          "name": "maturity",
          "type": "uint40"
        }
      ],
      "stateMutability": "view",
      "type": "function"
    },
    {
      "inputs": [],
      "name": "getMarketIndex",
      "outputs": [
        {
          "internalType": "uint8",
          "name": "",
          "type": "uint8"
        }
      ],
      "stateMutability": "view",
      "type": "function"
    },
    {
      "inputs": [],
      "name": "getMaturity",
      "outputs": [
        {
          "internalType": "uint40",
          "name": "maturity",
          "type": "uint40"
        }
      ],
      "stateMutability": "view",
      "type": "function"
    },
    {
      "inputs": [
        {
          "internalType": "bool",
          "name": "useUnderlying",
          "type": "bool"
        }
      ],
      "name": "getToken",
      "outputs": [
        {
          "internalType": "contract IERC20",
          "name": "token",
          "type": "address"
        },
        {
          "internalType": "bool",
          "name": "isETH",
          "type": "bool"
        }
      ],
      "stateMutability": "view",
      "type": "function"
    },
    {
      "inputs": [],
      "name": "getUnderlyingToken",
      "outputs": [
        {
          "internalType": "contract IERC20",
          "name": "underlyingToken",
          "type": "address"
        },
        {
          "internalType": "int256",
          "name": "underlyingPrecision",
          "type": "int256"
        }
      ],
      "stateMutability": "view",
      "type": "function"
    },
    {
      "inputs": [],
      "name": "getfCashId",
      "outputs": [
        {
          "internalType": "uint256",
          "name": "",
          "type": "uint256"
        }
      ],
      "stateMutability": "view",
      "type": "function"
    },
    {
      "inputs": [],
      "name": "hasMatured",
      "outputs": [
        {
          "internalType": "bool",
          "name": "",
          "type": "bool"
        }
      ],
      "stateMutability": "view",
      "type": "function"
    },
    {
      "inputs": [
        {
          "internalType": "address",
          "name": "spender",
          "type": "address"
        },
        {
          "internalType": "uint256",
          "name": "addedValue",
          "type": "uint256"
        }
      ],
      "name": "increaseAllowance",
      "outputs": [
        {
          "internalType": "bool",
          "name": "",
          "type": "bool"
        }
      ],
      "stateMutability": "nonpayable",
      "type": "function"
    },
    {
      "inputs": [
        {
          "internalType": "uint16",
          "name": "currencyId",
          "type": "uint16"
        },
        {
          "internalType": "uint40",
          "name": "maturity",
          "type": "uint40"
        }
      ],
      "name": "initialize",
      "outputs": [],
      "stateMutability": "nonpayable",
      "type": "function"
    },
    {
      "inputs": [
        {
          "internalType": "address",
          "name": "",
          "type": "address"
        }
      ],
      "name": "maxDeposit",
      "outputs": [
        {
          "internalType": "uint256",
          "name": "",
          "type": "uint256"
        }
      ],
      "stateMutability": "view",
      "type": "function"
    },
    {
      "inputs": [
        {
          "internalType": "address",
          "name": "",
          "type": "address"
        }
      ],
      "name": "maxMint",
      "outputs": [
        {
          "internalType": "uint256",
          "name": "",
          "type": "uint256"
        }
      ],
      "stateMutability": "view",
      "type": "function"
    },
    {
      "inputs": [
        {
          "internalType": "address",
          "name": "owner",
          "type": "address"
        }
      ],
      "name": "maxRedeem",
      "outputs": [
        {
          "internalType": "uint256",
          "name": "",
          "type": "uint256"
        }
      ],
      "stateMutability": "view",
      "type": "function"
    },
    {
      "inputs": [
        {
          "internalType": "address",
          "name": "owner",
          "type": "address"
        }
      ],
      "name": "maxWithdraw",
      "outputs": [
        {
          "internalType": "uint256",
          "name": "",
          "type": "uint256"
        }
      ],
      "stateMutability": "view",
      "type": "function"
    },
    {
      "inputs": [
        {
          "internalType": "uint256",
          "name": "shares",
          "type": "uint256"
        },
        {
          "internalType": "address",
          "name": "receiver",
          "type": "address"
        }
      ],
      "name": "mint",
      "outputs": [
        {
          "internalType": "uint256",
          "name": "",
          "type": "uint256"
        }
      ],
      "stateMutability": "nonpayable",
      "type": "function"
    },
    {
      "inputs": [
        {
          "internalType": "uint256",
          "name": "depositAmountExternal",
          "type": "uint256"
        },
        {
          "internalType": "uint88",
          "name": "fCashAmount",
          "type": "uint88"
        },
        {
          "internalType": "address",
          "name": "receiver",
          "type": "address"
        },
        {
          "internalType": "uint32",
          "name": "minImpliedRate",
          "type": "uint32"
        }
      ],
      "name": "mintViaAsset",
      "outputs": [],
      "stateMutability": "nonpayable",
      "type": "function"
    },
    {
      "inputs": [
        {
          "internalType": "uint256",
          "name": "depositAmountExternal",
          "type": "uint256"
        },
        {
          "internalType": "uint88",
          "name": "fCashAmount",
          "type": "uint88"
        },
        {
          "internalType": "address",
          "name": "receiver",
          "type": "address"
        },
        {
          "internalType": "uint32",
          "name": "minImpliedRate",
          "type": "uint32"
        }
      ],
      "name": "mintViaUnderlying",
      "outputs": [],
      "stateMutability": "nonpayable",
      "type": "function"
    },
    {
      "inputs": [],
      "name": "name",
      "outputs": [
        {
          "internalType": "string",
          "name": "",
          "type": "string"
        }
      ],
      "stateMutability": "view",
      "type": "function"
    },
    {
      "inputs": [
        {
          "internalType": "address",
          "name": "_operator",
          "type": "address"
        },
        {
          "internalType": "address",
          "name": "_from",
          "type": "address"
        },
        {
          "internalType": "uint256",
          "name": "_id",
          "type": "uint256"
        },
        {
          "internalType": "uint256",
          "name": "_value",
          "type": "uint256"
        },
        {
          "internalType": "bytes",
          "name": "_data",
          "type": "bytes"
        }
      ],
      "name": "onERC1155Received",
      "outputs": [
        {
          "internalType": "bytes4",
          "name": "",
          "type": "bytes4"
        }
      ],
      "stateMutability": "nonpayable",
      "type": "function"
    },
    {
      "inputs": [
        {
          "internalType": "uint256",
          "name": "assets",
          "type": "uint256"
        }
      ],
      "name": "previewDeposit",
      "outputs": [
        {
          "internalType": "uint256",
          "name": "",
          "type": "uint256"
        }
      ],
      "stateMutability": "view",
      "type": "function"
    },
    {
      "inputs": [
        {
          "internalType": "uint256",
          "name": "shares",
          "type": "uint256"
        }
      ],
      "name": "previewMint",
      "outputs": [
        {
          "internalType": "uint256",
          "name": "",
          "type": "uint256"
        }
      ],
      "stateMutability": "view",
      "type": "function"
    },
    {
      "inputs": [
        {
          "internalType": "uint256",
          "name": "shares",
          "type": "uint256"
        }
      ],
      "name": "previewRedeem",
      "outputs": [
        {
          "internalType": "uint256",
          "name": "assets",
          "type": "uint256"
        }
      ],
      "stateMutability": "view",
      "type": "function"
    },
    {
      "inputs": [
        {
          "internalType": "uint256",
          "name": "assets",
          "type": "uint256"
        }
      ],
      "name": "previewWithdraw",
      "outputs": [
        {
          "internalType": "uint256",
          "name": "shares",
          "type": "uint256"
        }
      ],
      "stateMutability": "view",
      "type": "function"
    },
    {
      "inputs": [
        {
          "internalType": "uint256",
          "name": "fCashId",
          "type": "uint256"
        },
        {
          "internalType": "address",
          "name": "receiver",
          "type": "address"
        }
      ],
      "name": "recoverInvalidfCash",
      "outputs": [],
      "stateMutability": "nonpayable",
      "type": "function"
    },
    {
      "inputs": [
        {
          "internalType": "uint256",
          "name": "shares",
          "type": "uint256"
        },
        {
          "internalType": "address",
          "name": "receiver",
          "type": "address"
        },
        {
          "internalType": "address",
          "name": "owner",
          "type": "address"
        }
      ],
      "name": "redeem",
      "outputs": [
        {
          "internalType": "uint256",
          "name": "",
          "type": "uint256"
        }
      ],
      "stateMutability": "nonpayable",
      "type": "function"
    },
    {
      "inputs": [
        {
          "internalType": "uint256",
          "name": "amount",
          "type": "uint256"
        },
        {
          "components": [
            {
              "internalType": "bool",
              "name": "redeemToUnderlying",
              "type": "bool"
            },
            {
              "internalType": "bool",
              "name": "transferfCash",
              "type": "bool"
            },
            {
              "internalType": "address",
              "name": "receiver",
              "type": "address"
            },
            {
              "internalType": "uint32",
              "name": "maxImpliedRate",
              "type": "uint32"
            }
          ],
          "internalType": "struct IWrappedfCash.RedeemOpts",
          "name": "opts",
          "type": "tuple"
        }
      ],
      "name": "redeem",
      "outputs": [],
      "stateMutability": "nonpayable",
      "type": "function"
    },
    {
      "inputs": [
        {
          "internalType": "uint256",
          "name": "amount",
          "type": "uint256"
        },
        {
          "internalType": "address",
          "name": "receiver",
          "type": "address"
        },
        {
          "internalType": "uint32",
          "name": "maxImpliedRate",
          "type": "uint32"
        }
      ],
      "name": "redeemToAsset",
      "outputs": [],
      "stateMutability": "nonpayable",
      "type": "function"
    },
    {
      "inputs": [
        {
          "internalType": "uint256",
          "name": "amount",
          "type": "uint256"
        },
        {
          "internalType": "address",
          "name": "receiver",
          "type": "address"
        },
        {
          "internalType": "uint32",
          "name": "maxImpliedRate",
          "type": "uint32"
        }
      ],
      "name": "redeemToUnderlying",
      "outputs": [],
      "stateMutability": "nonpayable",
      "type": "function"
    },
    {
      "inputs": [],
      "name": "symbol",
      "outputs": [
        {
          "internalType": "string",
          "name": "",
          "type": "string"
        }
      ],
      "stateMutability": "view",
      "type": "function"
    },
    {
      "inputs": [],
      "name": "totalAssets",
      "outputs": [
        {
          "internalType": "uint256",
          "name": "",
          "type": "uint256"
        }
      ],
      "stateMutability": "view",
      "type": "function"
    },
    {
      "inputs": [],
      "name": "totalSupply",
      "outputs": [
        {
          "internalType": "uint256",
          "name": "",
          "type": "uint256"
        }
      ],
      "stateMutability": "view",
      "type": "function"
    },
    {
      "inputs": [
        {
          "internalType": "address",
          "name": "to",
          "type": "address"
        },
        {
          "internalType": "uint256",
          "name": "amount",
          "type": "uint256"
        }
      ],
      "name": "transfer",
      "outputs": [
        {
          "internalType": "bool",
          "name": "",
          "type": "bool"
        }
      ],
      "stateMutability": "nonpayable",
      "type": "function"
    },
    {
      "inputs": [
        {
          "internalType": "address",
          "name": "from",
          "type": "address"
        },
        {
          "internalType": "address",
          "name": "to",
          "type": "address"
        },
        {
          "internalType": "uint256",
          "name": "amount",
          "type": "uint256"
        }
      ],
      "name": "transferFrom",
      "outputs": [
        {
          "internalType": "bool",
          "name": "",
          "type": "bool"
        }
      ],
      "stateMutability": "nonpayable",
      "type": "function"
    },
    {
      "inputs": [
        {
          "internalType": "uint256",
          "name": "assets",
          "type": "uint256"
        },
        {
          "internalType": "address",
          "name": "receiver",
          "type": "address"
        },
        {
          "internalType": "address",
          "name": "owner",
          "type": "address"
        }
      ],
      "name": "withdraw",
      "outputs": [
        {
          "internalType": "uint256",
          "name": "",
          "type": "uint256"
        }
      ],
      "stateMutability": "nonpayable",
      "type": "function"
    }
  ],
  "bytecode": "60c06040523480156200001157600080fd5b506040516200588238038062005882833981016040819052620000349162000168565b81818181600060019054906101000a900460ff166200005a5760005460ff161562000064565b6200006462000122565b620000cc5760405162461bcd60e51b815260206004820152602e60248201527f496e697469616c697a61626c653a20636f6e747261637420697320616c72656160448201526d191e481a5b9a5d1a585b1a5e995960921b606482015260840160405180910390fd5b600054610100900460ff16158015620000ef576000805461ffff19166101011790555b6001600160a01b03808416608052821660a052801562000115576000805461ff00191690555b50505050505050620001a7565b60006200013a306200014060201b62001e891760201c565b15905090565b6001600160a01b03163b151590565b6001600160a01b03811681146200016557600080fd5b50565b600080604083850312156200017c57600080fd5b825162000189816200014f565b60208401519092506200019c816200014f565b809150509250929050565b60805160a0516155ce620002b46000396000818161050e01528181610d850152818161238c01528181612410015281816136ed015261378201526000818161034e0152818161085a015281816109bb01528181610c8a01528181610cef01528181610ed9015281816111d501528181611265015281816115e8015281816116ba01528181611752015281816117d6015281816118c401528181611a1601528181611adf01528181611b7301528181611c0901528181611dd601528181611efb01528181611fd5015281816120770152818161252b015281816125fc01528181612d0e01528181612da901528181612ea7015281816131e201528181613f5c01526140a701526155ce6000f3fe608060405234801561001057600080fd5b506004361061028a5760003560e01c806394bf804d1161015c578063cb803ceb116100ce578063dd62ed3e11610087578063dd62ed3e146105fe578063e16695b514610637578063ee719bc814610655578063ef8b30f71461067c578063f23a6e611461068f578063f8eef10f146106bb57600080fd5b8063cb803ceb1461058f578063ce96cb7714610597578063cf387fed146105aa578063d7fd4aad146105c5578063d84878b8146105d8578063d905777e146105eb57600080fd5b8063ad5c464811610120578063ad5c464814610509578063b3d7f6b914610530578063b460af9414610543578063ba08765214610556578063c63d75b614610569578063c6e6f5921461057c57600080fd5b806394bf804d146104c057806395d89b41146104d3578063a1093295146104db578063a457c2d7146104e3578063a9059cbb146104f657600080fd5b806329cf14051161020057806348d8f98d116101b957806348d8f98d146104045780634cdad5061461042c578063514895511461043f5780636e553f651461047157806370a0823114610484578063745d08d9146104ad57600080fd5b806329cf14051461039b578063313ce567146103ae57806338d52e0f146103c357806339509351146103cb5780633d3192cb146103de578063402d267d146103f157600080fd5b80630a28a477116102525780630a28a477146103065780630db8481c14610319578063152b838c1461032e57806318160ddd1461034157806319b53d351461034957806323b872dd1461038857600080fd5b806301e1d1141461028f5780630558d500146102aa57806306fdde03146102bb57806307a2d13a146102d0578063095ea7b3146102e3575b600080fd5b6102976106d2565b6040519081526020015b60405180910390f35b6065546001600160401b0316610297565b6102c36106fe565b6040516102a19190614507565b6102976102de36600461453a565b610790565b6102f66102f136600461456b565b6107d3565b60405190151581526020016102a1565b61029761031436600461453a565b6107eb565b61032c6103273660046145c0565b6108e2565b005b61032c61033c366004614634565b6108f6565b603554610297565b6103707f000000000000000000000000000000000000000000000000000000000000000081565b6040516001600160a01b0390911681526020016102a1565b6102f661039636600461466d565b610d33565b61032c6103a93660046145c0565b610d57565b60085b60405160ff90911681526020016102a1565b610370610d65565b6102f66103d936600461456b565b610dac565b61032c6103ec3660046146ae565b610deb565b6102976103ff3660046146ec565b610e2b565b61040c610e49565b6040805161ffff909316835264ffffffffff9091166020830152016102a1565b61029761043a36600461453a565b610e77565b61045261044d366004614717565b610f58565b604080516001600160a01b0390931683529015156020830152016102a1565b61029761047f366004614734565b610f90565b6102976104923660046146ec565b6001600160a01b031660009081526033602052604090205490565b61032c6104bb3660046146ae565b611003565b6102976104ce366004614734565b611043565b6102c36110a1565b6102f66110b0565b6102f66104f136600461456b565b6110c9565b6102f661050436600461456b565b61115b565b6103707f000000000000000000000000000000000000000000000000000000000000000081565b61029761053e36600461453a565b611169565b610297610551366004614759565b61124d565b610297610564366004614759565b61134f565b6102976105773660046146ec565b6114db565b61029761058a36600461453a565b611508565b6103b1611562565b6102976105a53660046146ec565b61159a565b6105b26115bc565b60405161ffff90911681526020016102a1565b61032c6105d3366004614734565b6115e6565b61032c6105e636600461482c565b611866565b6102976105f93660046146ec565b611875565b61029761060c3660046148ce565b6001600160a01b03918216600090815260346020908152604080832093909416825291909152205490565b61063f611893565b60405164ffffffffff90911681526020016102a1565b61065d6118bc565b604080516001600160a01b0390931683526020830191909152016102a1565b61029761068a36600461453a565b6119a3565b6106a261069d3660046148fc565b611a95565b6040516001600160e01b031990911681526020016102a1565b6106c3611dce565b6040516102a1939291906149bb565b60006106dc6110b0565b6106f6576106f16106ec60355490565b611e98565b905090565b6106f1611f9d565b60606036805461070d906149f0565b80601f0160208091040260200160405190810160405280929190818152602001828054610739906149f0565b80156107865780601f1061075b57610100808354040283529160200191610786565b820191906000526020600020905b81548152906001019060200180831161076957829003601f168201915b5050505050905090565b60008061079c60355490565b9050806000036107b6576107af83611e98565b9392505050565b806107bf6106d2565b6107c99085614a3a565b6107af9190614a6f565b6000336107e1818585612122565b5060019392505050565b60006107f56110b0565b156108095761080382611508565b92915050565b600080610814610e49565b60405163bac9e8b160e01b815261ffff831660048201526024810187905264ffffffffff8216604482015260006064820152426084820152600160a482015291935091507f00000000000000000000000000000000000000000000000000000000000000006001600160a01b03169063bac9e8b19060c401606060405180830381865afa1580156108a9573d6000803e3d6000fd5b505050506040513d601f19601f820116820180604052508101906108cd9190614a94565b50506001600160581b0316925050505b919050565b6108f0848484846000612246565b50505050565b600054610100900460ff166109115760005460ff1615610915565b303b155b61097d5760405162461bcd60e51b815260206004820152602e60248201527f496e697469616c697a61626c653a20636f6e747261637420697320616c72656160448201526d191e481a5b9a5d1a585b1a5e995960921b60648201526084015b60405180910390fd5b600054610100900460ff1615801561099f576000805461ffff19166101011790555b60405163d4ccb0ed60e01b815261ffff841660048201526000907f00000000000000000000000000000000000000000000000000000000000000006001600160a01b03169063d4ccb0ed90602401600060405180830381865afa158015610a0a573d6000803e3d6000fd5b505050506040513d6000823e601f3d908101601f19168201604052610a329190810190614b67565b805190915060ff16610a795760405162461bcd60e51b815260206004820152601060248201526f496e76616c69642063757272656e637960801b6044820152606401610974565b428364ffffffffff1611610ac25760405162461bcd60e51b815260206004820152601060248201526f496e76616c6964206d6174757269747960801b6044820152606401610974565b8051610ad99060ff1664ffffffffff851642612699565b610b185760405162461bcd60e51b815260206004820152601060248201526f496e76616c6964206d6174757269747960801b6044820152606401610974565b6000610b3161ffff861664ffffffffff861660016126e9565b90506001600160401b03811115610b4757600080fd5b6065805467ffffffffffffffff19166001600160401b0383161790556000610b6d6118bc565b5090506000610b7a611dce565b50909150600090506001600160a01b03831615610bfc57826001600160a01b03166395d89b416040518163ffffffff1660e01b8152600401600060405180830381865afa158015610bcf573d6000803e3d6000fd5b505050506040513d6000823e601f3d908101601f19168201604052610bf79190810190614c98565b610c19565b6040518060400160405280600381526020016208aa8960eb1b8152505b90506000610c2d8864ffffffffff16612744565b9050610c7b8282604051602001610c45929190614d22565b6040516020818303038152906040528383604051602001610c67929190614d75565b604051602081830303815290604052612844565b610cb16001600160a01b0384167f0000000000000000000000000000000000000000000000000000000000000000600019612875565b836001600160a01b0316836001600160a01b031614158015610cdb57506001600160a01b03841615155b15610d1657610d166001600160a01b0385167f0000000000000000000000000000000000000000000000000000000000000000600019612875565b5050505050508015610d2e576000805461ff00191690555b505050565b600033610d418582856129bd565b610d4c858585612a49565b506001949350505050565b6108f0848484846001612246565b6000806000610d746001610f58565b9150915080610d835781610da5565b7f00000000000000000000000000000000000000000000000000000000000000005b9250505090565b3360008181526034602090815260408083206001600160a01b03871684529091528120549091906107e19082908690610de6908790614dbf565b612122565b610d2e33846040518060800160405280600015158152602001600015158152602001866001600160a01b031681526020018563ffffffff16815250612c17565b6000610e356110b0565b610e4157600019610803565b600092915050565b6065546000908190610e6d906001600160401b0316603081901c91600882901c9190565b5090939092509050565b6000610e816110b0565b15610e8f5761080382610790565b600080610e9a610e49565b60405163416a158760e01b815261ffff831660048201526024810187905264ffffffffff821660448201526000606482015242608482015291935091507f00000000000000000000000000000000000000000000000000000000000000006001600160a01b03169063416a15879060a401608060405180830381865afa158015610f28573d6000803e3d6000fd5b505050506040513d601f19601f82011682018060405250810190610f4c9190614dd7565b50919695505050505050565b6000808215610f7157610f696118bc565b509150610f7f565b610f79611dce565b50909250505b50916001600160a01b038316159150565b600080610f9c846119a3565b9050610fb584610fab83612f5f565b8560006001612246565b60408051858152602081018390526001600160a01b0385169133917fdcbc1c05240f31ff3ad067ef1ee35ce4997762752e3a095284754544f4c709d791015b60405180910390a39392505050565b610d2e33846040518060800160405280600115158152602001600015158152602001866001600160a01b031681526020018563ffffffff16815250612c17565b60008061104f84611169565b905061105e81610fab86612f5f565b60408051828152602081018690526001600160a01b0385169133917fdcbc1c05240f31ff3ad067ef1ee35ce4997762752e3a095284754544f4c709d79101610ff4565b60606037805461070d906149f0565b6000426110bb611893565b64ffffffffff161115905090565b3360008181526034602090815260408083206001600160a01b03871684529091528120549091908381101561114e5760405162461bcd60e51b815260206004820152602560248201527f45524332303a2064656372656173656420616c6c6f77616e63652062656c6f77604482015264207a65726f60d81b6064820152608401610974565b610d4c8286868403612122565b6000336107e1818585612a49565b60006111736110b0565b1561118057506000919050565b60008061118b610e49565b60405163aaae47b560e01b815261ffff831660048201526024810187905264ffffffffff821660448201526000606482018190524260848301529294509092506001600160a01b037f0000000000000000000000000000000000000000000000000000000000000000169063aaae47b59060a401608060405180830381865afa15801561121c573d6000803e3d6000fd5b505050506040513d601f19601f820116820180604052508101906112409190614dd7565b5091979650505050505050565b60405163f667f89760e01b81523060048201526000907f00000000000000000000000000000000000000000000000000000000000000006001600160a01b03169063f667f89790602401600060405180830381600087803b1580156112b157600080fd5b505af11580156112c5573d6000803e3d6000fd5b5050505060006112d4856107eb565b9050336001600160a01b038416146112f1576112f18333836129bd565b6112fc818585612f79565b60408051868152602081018390526001600160a01b03808616929087169133917ffbde797d201c681b91056529119e0b02407c7bb96a4a2c75c01fc9667232c8db910160405180910390a4949350505050565b60008061135a610d65565b6040516370a0823160e01b81526001600160a01b0386811660048301529192506000918316906370a0823190602401602060405180830381865afa1580156113a6573d6000803e3d6000fd5b505050506040513d601f19601f820116820180604052508101906113ca9190614e14565b9050336001600160a01b038516146113e7576113e78433886129bd565b6113f2868686612f79565b6040516370a0823160e01b81526001600160a01b038681166004830152600091908416906370a0823190602401602060405180830381865afa15801561143c573d6000803e3d6000fd5b505050506040513d601f19601f820116820180604052508101906114609190614e14565b9050600061146e8383614e2d565b9050856001600160a01b0316876001600160a01b0316336001600160a01b03167ffbde797d201c681b91056529119e0b02407c7bb96a4a2c75c01fc9667232c8db848c6040516114c8929190918252602082015260400190565b60405180910390a4979650505050505050565b60006114e56110b0565b6114f6576001600160581b036114f9565b60005b6001600160581b031692915050565b60008061151460355490565b90508060000361155057600061152d6305f5e100611e98565b90508061153e6305f5e10086614a3a565b6115489190614a6f565b949350505050565b6115586106d2565b6107c98285614a3a565b60008060006115816007611574611893565b64ffffffffff1642612fba565b9150915080156115945760009250505090565b50919050565b6001600160a01b038116600090815260336020526040812054610803906107eb565b6065546000906115de906001600160401b0316603081901c91600882901c9190565b509092915050565b7f00000000000000000000000000000000000000000000000000000000000000006001600160a01b0316638da5cb5b6040518163ffffffff1660e01b8152600401602060405180830381865afa158015611644573d6000803e3d6000fd5b505050506040513d601f19601f820116820180604052508101906116689190614e44565b6001600160a01b0316336001600160a01b03161461168557600080fd5b6065546001600160401b0316820361169c57600080fd5b604051627eeac760e11b8152306004820152602481018390526000907f00000000000000000000000000000000000000000000000000000000000000006001600160a01b03169062fdd58e90604401602060405180830381865afa158015611708573d6000803e3d6000fd5b505050506040513d601f19601f8201168201806040525081019061172c9190614e14565b90506000811161173b57600080fd5b604051637921219560e11b81526001600160a01b037f0000000000000000000000000000000000000000000000000000000000000000169063f242432a9061178d903090869088908790600401614e61565b600060405180830381600087803b1580156117a757600080fd5b505af11580156117bb573d6000803e3d6000fd5b505060405163b0de221760e01b8152306004820152600092507f00000000000000000000000000000000000000000000000000000000000000006001600160a01b0316915063b0de22179060240160a060405180830381865afa158015611826573d6000803e3d6000fd5b505050506040513d601f19601f8201168201806040525081019061184a9190614e99565b60208101519091506001600160f81b031916156108f057600080fd5b611871338383612c17565b5050565b6001600160a01b038116600090815260336020526040812054610803565b6065546000906118b5906001600160401b0316603081901c91600882901c9190565b5092915050565b6000806000807f00000000000000000000000000000000000000000000000000000000000000006001600160a01b0316634ebad18e6118f96115bc565b6040516001600160e01b031960e084901b16815261ffff909116600482015260240161014060405180830381865afa158015611939573d6000803e3d6000fd5b505050506040513d601f19601f8201168201806040525081019061195d9190614fdd565b909250905060048260600151600581111561197a5761197a6149a5565b036119915750805160409091015190939092509050565b80516040909101519094909350915050565b60006119ad6110b0565b156119ba57506000919050565b6000806119c5610e49565b604051631f0750c160e31b815261ffff831660048201526024810187905264ffffffffff82166044820152600060648201819052426084830152600160a48301529294509092506001600160a01b037f0000000000000000000000000000000000000000000000000000000000000000169063f83a86089060c401606060405180830381865afa158015611a5d573d6000803e3d6000fd5b505050506040513d601f19601f82011682018060405250810190611a819190614a94565b50506001600160581b031695945050505050565b6000600260935403611ab95760405162461bcd60e51b815260040161097490615013565b60026093556000611ad26065546001600160401b031690565b9050336001600160a01b037f00000000000000000000000000000000000000000000000000000000000000001614611b1c5760405162461bcd60e51b81526004016109749061504a565b808614611b3b5760405162461bcd60e51b81526004016109749061504a565b60008513611b5b5760405162461bcd60e51b81526004016109749061504a565b60405163b0de221760e01b81523060048201526000907f00000000000000000000000000000000000000000000000000000000000000006001600160a01b03169063b0de22179060240160a060405180830381865afa158015611bc2573d6000803e3d6000fd5b505050506040513d601f19601f82011682018060405250810190611be69190614e99565b604051635a9b7fdb60e11b81523060048201529091506000906001600160a01b037f0000000000000000000000000000000000000000000000000000000000000000169063b536ffb690602401600060405180830381865afa158015611c50573d6000803e3d6000fd5b505050506040513d6000823e601f3d908101601f19168201604052611c78919081019061506b565b60208301519091506001600160f81b03191615611c9457600080fd5b8051600114611ca257600080fd5b82611d0882600081518110611cb957611cb9615154565b60200260200101516000015183600081518110611cd857611cd8615154565b60200260200101516020015184600081518110611cf757611cf7615154565b6020026020010151604001516126e9565b14611d1257600080fd5b6060808a6001600160a01b03168c6001600160a01b031603611d6d5787878080601f016020809104026020016040519081016040528093929190818152602001838380828437600092019190915250929450611da792505050565b87878080601f0160208091040260200160405190810160405280939291908181526020018383808284376000920191909152509293505050505b611db18b8a6130f8565b505060016093555063f23a6e6160e01b9998505050505050505050565b6000806000807f00000000000000000000000000000000000000000000000000000000000000006001600160a01b0316634ebad18e611e0b6115bc565b6040516001600160e01b031960e084901b16815261ffff909116600482015260240161014060405180830381865afa158015611e4b573d6000803e3d6000fd5b505050506040513d601f19601f82011682018060405250810190611e6f9190614fdd565b508051604082015160609092015190969195509350915050565b6001600160a01b03163b151590565b600080611ea36118bc565b915050600080611eb1610e49565b60405163c52c43e160e01b815261ffff8316600482015264ffffffffff82166024820152604481018890524260648201526000608482018190529294509092506001600160a01b037f0000000000000000000000000000000000000000000000000000000000000000169063c52c43e19060a401602060405180830381865afa158015611f42573d6000803e3d6000fd5b505050506040513d601f19601f82011682018060405250810190611f669190614e14565b905060006305f5e100611f79868461516a565b611f8391906151ef565b90506000811215611f9357600080fd5b9695505050505050565b600080611fa86115bc565b60405163fc1b134560e01b815261ffff821660048201523060248201529091506000906001600160a01b037f0000000000000000000000000000000000000000000000000000000000000000169063fc1b134590604401606060405180830381865afa15801561201c573d6000803e3d6000fd5b505050506040513d601f19601f82011682018060405250810190612040919061521d565b5050604051631baefc5d60e21b815261ffff8416600482015260248101829052600160448201529091506000906001600160a01b037f00000000000000000000000000000000000000000000000000000000000000001690636ebbf17490606401602060405180830381865afa1580156120be573d6000803e3d6000fd5b505050506040513d601f19601f820116820180604052508101906120e29190614e14565b9050600081136107af5760405162461bcd60e51b815260206004820152600b60248201526a4d75737420536574746c6560a81b6044820152606401610974565b6001600160a01b0383166121845760405162461bcd60e51b8152602060048201526024808201527f45524332303a20617070726f76652066726f6d20746865207a65726f206164646044820152637265737360e01b6064820152608401610974565b6001600160a01b0382166121e55760405162461bcd60e51b815260206004820152602260248201527f45524332303a20617070726f766520746f20746865207a65726f206164647265604482015261737360f01b6064820152608401610974565b6001600160a01b0383811660008181526034602090815260408083209487168084529482529182902085905590518481527f8c5be1e5ebec7d5bd14f71427d1e84f3dd0314c0f7b2291e5b200ac8c7c3b925910160405180910390a3505050565b6002609354036122685760405162461bcd60e51b815260040161097490615013565b60026093556122756110b0565b156122b25760405162461bcd60e51b815260206004820152600d60248201526c1990d85cda081b585d1d5c9959609a1b6044820152606401610974565b6000806000806122c1856131d7565b935093509350935080156122d457600094505b600083612348576040516370a0823160e01b81523060048201526001600160a01b038616906370a0823190602401602060405180830381865afa15801561231f573d6000803e3d6000fd5b505050506040513d601f19601f820116820180604052508101906123439190614e14565b61234a565b475b9050600084806123575750835b156125b057841561247c576040516323b872dd60e01b8152336004820152306024820152604481018c90526001600160a01b037f000000000000000000000000000000000000000000000000000000000000000016906323b872dd906064016020604051808303816000875af11580156123d5573d6000803e3d6000fd5b505050506040513d601f19601f820116820180604052508101906123f9919061524b565b50604051632e1a7d4d60e01b8152600481018c90527f00000000000000000000000000000000000000000000000000000000000000006001600160a01b031690632e1a7d4d90602401600060405180830381600087803b15801561245c57600080fd5b505af1158015612470573d6000803e3d6000fd5b505050508a9050612508565b6124916001600160a01b03871633308e6132e5565b6040516370a0823160e01b815230600482015282906001600160a01b038816906370a0823190602401602060405180830381865afa1580156124d7573d6000803e3d6000fd5b505050506040513d601f19601f820116820180604052508101906124fb9190614e14565b6125059190614e2d565b9a505b60006125276125156115bc565b61251d611562565b8e8e8d8d8a61331d565b90507f00000000000000000000000000000000000000000000000000000000000000006001600160a01b0316630276b64b8330846040518463ffffffff1660e01b81526004016125789291906152a3565b6000604051808303818588803b15801561259157600080fd5b505af11580156125a5573d6000803e3d6000fd5b505050505050612667565b6125c56001600160a01b03871633308e6132e5565b60006125e26125d26115bc565b6125da611562565b8d8c8c61350f565b604051630541f52760e41b81529091506001600160a01b037f0000000000000000000000000000000000000000000000000000000000000000169063541f5270906126339030908590600401615373565b600060405180830381600087803b15801561264d57600080fd5b505af1158015612661573d6000803e3d6000fd5b50505050505b61267a898b6001600160581b03166130f8565b61268686338785613660565b5050600160935550505050505050505050565b6000806126a58361381c565b905060006126b286613886565b6126bc9083614dbf565b9050808511156126d1576000925050506107af565b60006126dd8587613a57565b98975050505050505050565b6000613fff8411156126fa57600080fd5b64ffffffffff83111561270c57600080fd5b600882111561271a57600080fd5b5067ffff000000000000603084901b1665ffffffffff00600884901b161760ff8216179392505050565b60608160000361276b5750506040805180820190915260018152600360fc1b602082015290565b8160005b8115612795578061277f816153f7565b915061278e9050600a83614a6f565b915061276f565b6000816001600160401b038111156127af576127af61479b565b6040519080825280601f01601f1916602001820160405280156127d9576020820181803683370190505b5090505b8415611548576127ee600183614e2d565b91506127fb600a86615410565b612806906030614dbf565b60f81b81838151811061281b5761281b615154565b60200101906001600160f81b031916908160001a90535061283d600a86614a6f565b94506127dd565b600054610100900460ff1661286b5760405162461bcd60e51b815260040161097490615424565b6118718282613c42565b8015806128ef5750604051636eb1769f60e11b81523060048201526001600160a01b03838116602483015284169063dd62ed3e90604401602060405180830381865afa1580156128c9573d6000803e3d6000fd5b505050506040513d601f19601f820116820180604052508101906128ed9190614e14565b155b61295a5760405162461bcd60e51b815260206004820152603660248201527f5361666545524332303a20617070726f76652066726f6d206e6f6e2d7a65726f60448201527520746f206e6f6e2d7a65726f20616c6c6f77616e636560501b6064820152608401610974565b6040516001600160a01b038316602482015260448101829052610d2e90849063095ea7b360e01b906064015b60408051601f198184030181529190526020810180516001600160e01b03166001600160e01b031990931692909217909152613c82565b6001600160a01b0383811660009081526034602090815260408083209386168352929052205460001981146108f05781811015612a3c5760405162461bcd60e51b815260206004820152601d60248201527f45524332303a20696e73756666696369656e7420616c6c6f77616e63650000006044820152606401610974565b6108f08484848403612122565b6001600160a01b038316612aad5760405162461bcd60e51b815260206004820152602560248201527f45524332303a207472616e736665722066726f6d20746865207a65726f206164604482015264647265737360d81b6064820152608401610974565b6001600160a01b038216612b0f5760405162461bcd60e51b815260206004820152602360248201527f45524332303a207472616e7366657220746f20746865207a65726f206164647260448201526265737360e81b6064820152608401610974565b6001600160a01b03831660009081526033602052604090205481811015612b875760405162461bcd60e51b815260206004820152602660248201527f45524332303a207472616e7366657220616d6f756e7420657863656564732062604482015265616c616e636560d01b6064820152608401610974565b6001600160a01b03808516600090815260336020526040808220858503905591851681529081208054849290612bbe908490614dbf565b92505081905550826001600160a01b0316846001600160a01b03167fddf252ad1be2c89b69c2b068fc378daa952ba7f163c4a11628f55a4df523b3ef84604051612c0a91815260200190565b60405180910390a36108f0565b600260935403612c395760405162461bcd60e51b815260040161097490615013565b60026093556000612c4960355490565b60408301519091506001600160a01b0316612ca65760405162461bcd60e51b815260206004820152601860248201527f5265636569766572206973207a65726f206164647265737300000000000000006044820152606401610974565b612cb08484613d54565b815115612cec576000612cc1611dce565b925060049150612cce9050565b816005811115612ce057612ce06149a5565b03612cea57600083525b505b612cf46110b0565b15612e9b5760405163f667f89760e01b81523060048201527f00000000000000000000000000000000000000000000000000000000000000006001600160a01b03169063f667f89790602401600060405180830381600087803b158015612d5a57600080fd5b505af1158015612d6e573d6000803e3d6000fd5b505050506000612d7c6115bc565b60405163fc1b134560e01b815261ffff821660048201523060248201529091506000906001600160a01b037f0000000000000000000000000000000000000000000000000000000000000000169063fc1b134590604401606060405180830381865afa158015612df0573d6000803e3d6000fd5b505050506040513d601f19601f82011682018060405250810190612e14919061521d565b5050905080600012612e605760405162461bcd60e51b81526020600482015260156024820152744e6567617469766520436173682042616c616e636560581b6044820152606401610974565b600083612e6d8784614a3a565b612e779190614a6f565b9050612e92838660400151612e8b84612f5f565b8851613ea2565b50505050612f54565b816020015115612f3a577f00000000000000000000000000000000000000000000000000000000000000006001600160a01b031663f242432a308460400151612eec6065546001600160401b031690565b876040518563ffffffff1660e01b8152600401612f0c9493929190614e61565b600060405180830381600087803b158015612f2657600080fd5b505af1158015612e92573d6000803e3d6000fd5b612f5282604001518484600001518560600151613fde565b505b505060016093555050565b60006001600160581b03821115612f7557600080fd5b5090565b610d2e81846040518060800160405280600115158152602001600015158152602001866001600160a01b03168152602001600063ffffffff16815250612c17565b600080600085116130055760405162461bcd60e51b815260206004820152601560248201527410d1ce881b9bc81b585c9ad95d1cc81b1a5cdd1959605a1b6044820152606401610974565b600785111561304f5760405162461bcd60e51b815260206004820152601660248201527510d1ce881b585c9ad95d081a5b99195e08189bdd5b9960521b6044820152606401610974565b600061305a8461381c565b905060015b8681116130b157600061307182613886565b61307b9084614dbf565b905086810361309257509250600091506130f09050565b868111156130a857509250600191506130f09050565b5060010161305f565b5060405162461bcd60e51b815260206004820152601360248201527210d1ce881b9bc81b585c9ad95d08199bdd5b99606a1b6044820152606401610974565b935093915050565b6001600160a01b03821661314e5760405162461bcd60e51b815260206004820152601f60248201527f45524332303a206d696e7420746f20746865207a65726f2061646472657373006044820152606401610974565b80603560008282546131609190614dbf565b90915550506001600160a01b0382166000908152603360205260408120805483929061318d908490614dbf565b90915550506040518181526001600160a01b038316906000907fddf252ad1be2c89b69c2b068fc378daa952ba7f163c4a11628f55a4df523b3ef9060200160405180910390a35050565b6000806000806000807f00000000000000000000000000000000000000000000000000000000000000006001600160a01b0316634ebad18e6132176115bc565b6040516001600160e01b031960e084901b16815261ffff909116600482015260240161014060405180830381865afa158015613257573d6000803e3d6000fd5b505050506040513d601f19601f8201168201806040525081019061327b9190614fdd565b9092509050600482606001516005811115613298576132986149a5565b14925082806132a5575086155b156132bb578151602083015190965093506132ce565b86156132ce578051602082015190965093505b5093956001600160a01b0387161595509193509150565b6040516001600160a01b03808516602483015283166044820152606481018290526108f09085906323b872dd60e01b90608401612986565b604080516001808252818301909252606091816020015b61333c614495565b8152602001906001900390816133345790505090508261335d576001613360565b60025b8160008151811061337357613373615154565b6020026020010151600001906006811115613390576133906149a5565b908160068111156133a3576133a36149a5565b8152505087816000815181106133bb576133bb615154565b60200260200101516020019061ffff16908161ffff168152505085816000815181106133e9576133e9615154565b6020026020010151604001818152505060018160008151811061340e5761340e615154565b60209081029190910101519015156080909101528161342e576001613431565b60005b8160008151811061344457613444615154565b602090810291909101015190151560a09091015260408051600180825281830190925290816020016020820280368337019050508160008151811061348b5761348b615154565b602090810291909101015160c00152805160f088901b60ff60f01b16609887901b600160981b600160f01b031617607886901b63ffffffff60781b16179082906000906134da576134da615154565b602002602001015160c001516000815181106134f8576134f8615154565b602002602001018181525050979650505050505050565b604080516001808252818301909252606091816020015b60408051606080820183526000808352602083015291810191909152815260200190600190039081613526579050509050858160008151811061356b5761356b615154565b60200260200101516000019061ffff16908161ffff1681525050818160008151811061359957613599615154565b6020908102919091018101519115159101526040805160018082528183019092529081602001602082028036833701905050816000815181106135de576135de615154565b602090810291909101015160400152805160f086901b60ff60f01b16609886901b600160981b600160f01b031617607885901b63ffffffff60781b161790829060009061362d5761362d615154565b60200260200101516040015160008151811061364b5761364b615154565b60200260200101818152505095945050505050565b600080836136d5576040516370a0823160e01b81523060048201526001600160a01b038716906370a0823190602401602060405180830381865afa1580156136ac573d6000803e3d6000fd5b505050506040513d601f19601f820116820180604052508101906136d09190614e14565b6136d7565b475b90506136e38382614e2d565b915083156137f9577f00000000000000000000000000000000000000000000000000000000000000006001600160a01b031663d0e30db0836040518263ffffffff1660e01b81526004016000604051808303818588803b15801561374657600080fd5b505af115801561375a573d6000803e3d6000fd5b505060405163a9059cbb60e01b81526001600160a01b038981166004830152602482018790527f000000000000000000000000000000000000000000000000000000000000000016935063a9059cbb925060440190506020604051808303816000875af11580156137cf573d6000803e3d6000fd5b505050506040513d601f19601f820116820180604052508101906137f3919061524b565b50613813565b8115613813576138136001600160a01b0387168684614129565b50949350505050565b600061382c620151806006614a3a565b613837906005614a3a565b613842906003614a3a565b82101561384e57600080fd5b61385c620151806006614a3a565b613867906005614a3a565b613872906003614a3a565b61387c9083615410565b6108039083614e2d565b6000816001036138b45761389e620151806006614a3a565b6138a9906005614a3a565b610803906003614a3a565b816002036138eb576138ca620151806006614a3a565b6138d5906005614a3a565b6138e0906003614a3a565b610803906002614a3a565b8160030361392257613901620151806006614a3a565b61390c906005614a3a565b613917906003614a3a565b610803906004614a3a565b8160040361395957613938620151806006614a3a565b613943906005614a3a565b61394e906003614a3a565b6138e0906004614a3a565b8160050361399b5761396f620151806006614a3a565b61397a906005614a3a565b613985906003614a3a565b613990906004614a3a565b610803906005614a3a565b816006036139dd576139b1620151806006614a3a565b6139bc906005614a3a565b6139c7906003614a3a565b6139d2906004614a3a565b61080390600a614a3a565b81600703613a1f576139f3620151806006614a3a565b6139fe906005614a3a565b613a09906003614a3a565b613a14906004614a3a565b610803906014614a3a565b60405162461bcd60e51b815260206004820152600d60248201526c092dcecc2d8d2c840d2dcc8caf609b1b6044820152606401610974565b6000806000613a6585614159565b9050613a746201518085615410565b15613a86576000809250925050613c3b565b838110613a9a576000809250925050613c3b565b600062015180613aaa8387614e2d565b613ab49190614a6f565b9050605a8111613acb57925060019150613c3b9050565b6101688111613b4057600062015180613ae5816006614a3a565b613aef9085615410565b613af99190614a6f565b613b04605a84614e2d565b613b0e9190614dbf565b9050613b1b600682614a6f565b613b2690605a614dbf565b613b31600683615410565b60001494509450505050613c3b565b6108708111613bb257600062015180613b5a816006614a3a565b613b65906005614a3a565b613b6f9085615410565b613b799190614a6f565b613b8561016884614e2d565b613b8f9190614dbf565b9050613b9c601e82614a6f565b613ba7906087614dbf565b613b31601e83615410565b611de28111613c2f57600062015180613bcc816006614a3a565b613bd7906005614a3a565b613be2906003614a3a565b613bec9085615410565b613bf69190614a6f565b613c0261087084614e2d565b613c0c9190614dbf565b9050613c19605a82614a6f565b613c249060c3614dbf565b613b31605a83615410565b61010060009350935050505b9250929050565b600054610100900460ff16613c695760405162461bcd60e51b815260040161097490615424565b6036613c7583826154bd565b506037610d2e82826154bd565b6000613cd7826040518060400160405280602081526020017f5361666545524332303a206c6f772d6c6576656c2063616c6c206661696c6564815250856001600160a01b03166141789092919063ffffffff16565b805190915015610d2e5780806020019051810190613cf5919061524b565b610d2e5760405162461bcd60e51b815260206004820152602a60248201527f5361666545524332303a204552433230206f7065726174696f6e20646964206e6044820152691bdd081cdd58d8d9595960b21b6064820152608401610974565b6001600160a01b038216613db45760405162461bcd60e51b815260206004820152602160248201527f45524332303a206275726e2066726f6d20746865207a65726f206164647265736044820152607360f81b6064820152608401610974565b6001600160a01b03821660009081526033602052604090205481811015613e285760405162461bcd60e51b815260206004820152602260248201527f45524332303a206275726e20616d6f756e7420657863656564732062616c616e604482015261636560f01b6064820152608401610974565b6001600160a01b0383166000908152603360205260408120838303905560358054849290613e57908490614e2d565b90915550506040518281526000906001600160a01b038516907fddf252ad1be2c89b69c2b068fc378daa952ba7f163c4a11628f55a4df523b3ef9060200160405180910390a3505050565b6000806000613eb084610f58565b91509150600081613f28576040516370a0823160e01b81523060048201526001600160a01b038416906370a0823190602401602060405180830381865afa158015613eff573d6000803e3d6000fd5b505050506040513d601f19601f82011682018060405250810190613f239190614e14565b613f2a565b475b604051625e665d60e31b815261ffff8a1660048201526001600160581b038816602482015286151560448201529091507f00000000000000000000000000000000000000000000000000000000000000006001600160a01b0316906302f332e8906064016020604051808303816000875af1158015613fad573d6000803e3d6000fd5b505050506040513d601f19601f82011682018060405250810190613fd19190614e14565b506126dd83888484613660565b6000806000613fec85610f58565b91509150600081614064576040516370a0823160e01b81523060048201526001600160a01b038416906370a0823190602401602060405180830381865afa15801561403b573d6000803e3d6000fd5b505050506040513d601f19601f8201168201806040525081019061405f9190614e14565b614066565b475b9050600061408d6140756115bc565b61407d611562565b6140868b612f5f565b898b614187565b604051630276b64b60e01b81529091506001600160a01b037f00000000000000000000000000000000000000000000000000000000000000001690630276b64b906140de90309085906004016152a3565b600060405180830381600087803b1580156140f857600080fd5b505af115801561410c573d6000803e3d6000fd5b5050505061411c848a8585613660565b9998505050505050505050565b6040516001600160a01b038316602482015260448101829052610d2e90849063a9059cbb60e01b90606401612986565b60006201518082101561416b57600080fd5b61387c6201518083615410565b6060611548848460008561432b565b604080516001808252818301909252606091816020015b6141a6614495565b81526020019060019003908161419e5790505090506000816000815181106141d0576141d0615154565b60200260200101516000019060068111156141ed576141ed6149a5565b90816006811115614200576142006149a5565b81525050858160008151811061421857614218615154565b60200260200101516020019061ffff16908161ffff168152505060018160008151811061424757614247615154565b60200260200101516080019015159081151581525050818160008151811061427157614271615154565b602090810291909101015190151560a0909101526040805160018082528183019092529081602001602082028036833701905050816000815181106142b8576142b8615154565b602090810291909101015160c00152805160f086901b60ff60f01b16609886901b600160981b600160f01b031617607885901b63ffffffff60781b1617600160f81b1790829060009061430d5761430d615154565b602002602001015160c0015160008151811061364b5761364b615154565b60608247101561438c5760405162461bcd60e51b815260206004820152602660248201527f416464726573733a20696e73756666696369656e742062616c616e636520666f6044820152651c8818d85b1b60d21b6064820152608401610974565b6001600160a01b0385163b6143e35760405162461bcd60e51b815260206004820152601d60248201527f416464726573733a2063616c6c20746f206e6f6e2d636f6e74726163740000006044820152606401610974565b600080866001600160a01b031685876040516143ff919061557c565b60006040518083038185875af1925050503d806000811461443c576040519150601f19603f3d011682016040523d82523d6000602084013e614441565b606091505b509150915061445182828661445c565b979650505050505050565b6060831561446b5750816107af565b82511561447b5782518084602001fd5b8160405162461bcd60e51b81526004016109749190614507565b6040805160e081019091528060008152602001600061ffff1681526020016000815260200160008152602001600015158152602001600015158152602001606081525090565b60005b838110156144f65781810151838201526020016144de565b838111156108f05750506000910152565b60208152600082518060208401526145268160408501602087016144db565b601f01601f19169190910160400192915050565b60006020828403121561454c57600080fd5b5035919050565b6001600160a01b038116811461456857600080fd5b50565b6000806040838503121561457e57600080fd5b823561458981614553565b946020939093013593505050565b6001600160581b038116811461456857600080fd5b803563ffffffff811681146108dd57600080fd5b600080600080608085870312156145d657600080fd5b8435935060208501356145e881614597565b925060408501356145f881614553565b9150614606606086016145ac565b905092959194509250565b61ffff8116811461456857600080fd5b64ffffffffff8116811461456857600080fd5b6000806040838503121561464757600080fd5b823561465281614611565b9150602083013561466281614621565b809150509250929050565b60008060006060848603121561468257600080fd5b833561468d81614553565b9250602084013561469d81614553565b929592945050506040919091013590565b6000806000606084860312156146c357600080fd5b8335925060208401356146d581614553565b91506146e3604085016145ac565b90509250925092565b6000602082840312156146fe57600080fd5b81356107af81614553565b801515811461456857600080fd5b60006020828403121561472957600080fd5b81356107af81614709565b6000806040838503121561474757600080fd5b82359150602083013561466281614553565b60008060006060848603121561476e57600080fd5b83359250602084013561478081614553565b9150604084013561479081614553565b809150509250925092565b634e487b7160e01b600052604160045260246000fd5b60405161016081016001600160401b03811182821017156147d4576147d461479b565b60405290565b60405160c081016001600160401b03811182821017156147d4576147d461479b565b604051601f8201601f191681016001600160401b03811182821017156148245761482461479b565b604052919050565b60008082840360a081121561484057600080fd5b833592506080601f198201121561485657600080fd5b50604051608081018181106001600160401b03821117156148795761487961479b565b604052602084013561488a81614709565b8152604084013561489a81614709565b602082015260608401356148ad81614553565b60408201526148be608085016145ac565b6060820152809150509250929050565b600080604083850312156148e157600080fd5b82356148ec81614553565b9150602083013561466281614553565b60008060008060008060a0878903121561491557600080fd5b863561492081614553565b9550602087013561493081614553565b9450604087013593506060870135925060808701356001600160401b038082111561495a57600080fd5b818901915089601f83011261496e57600080fd5b81358181111561497d57600080fd5b8a602082850101111561498f57600080fd5b6020830194508093505050509295509295509295565b634e487b7160e01b600052602160045260246000fd5b6001600160a01b03841681526020810183905260608101600683106149e2576149e26149a5565b826040830152949350505050565b600181811c90821680614a0457607f821691505b60208210810361159457634e487b7160e01b600052602260045260246000fd5b634e487b7160e01b600052601160045260246000fd5b6000816000190483118215151615614a5457614a54614a24565b500290565b634e487b7160e01b600052601260045260246000fd5b600082614a7e57614a7e614a59565b500490565b805160ff811681146108dd57600080fd5b600080600060608486031215614aa957600080fd5b8351614ab481614597565b9250614ac260208501614a83565b9150604084015190509250925092565b60006001600160401b03821115614aeb57614aeb61479b565b5060051b60200190565b600082601f830112614b0657600080fd5b81516020614b1b614b1683614ad2565b6147fc565b82815260059290921b84018101918181019086841115614b3a57600080fd5b8286015b84811015614b5c57614b4f81614a83565b8352918301918301614b3e565b509695505050505050565b600060208284031215614b7957600080fd5b81516001600160401b0380821115614b9057600080fd5b908301906101608286031215614ba557600080fd5b614bad6147b1565b614bb683614a83565b8152614bc460208401614a83565b6020820152614bd560408401614a83565b6040820152614be660608401614a83565b6060820152614bf760808401614a83565b6080820152614c0860a08401614a83565b60a0820152614c1960c08401614a83565b60c0820152614c2a60e08401614a83565b60e0820152610100614c3d818501614a83565b908201526101208381015183811115614c5557600080fd5b614c6188828701614af5565b8284015250506101408084015183811115614c7b57600080fd5b614c8788828701614af5565b918301919091525095945050505050565b600060208284031215614caa57600080fd5b81516001600160401b0380821115614cc157600080fd5b818401915084601f830112614cd557600080fd5b815181811115614ce757614ce761479b565b614cfa601f8201601f19166020016147fc565b9150808252856020828501011115614d1157600080fd5b6138138160208401602086016144db565b682bb930b83832b2103360b91b815260008351614d468160098501602088016144db565b6201020160ed1b6009918401918201528351614d6981600c8401602088016144db565b01600c01949350505050565b613bb360f11b815260008351614d928160028501602088016144db565b601d60f91b6002918401918201528351614db38160038401602088016144db565b01600301949350505050565b60008219821115614dd257614dd2614a24565b500190565b60008060008060808587031215614ded57600080fd5b8451935060208501519250614e0460408601614a83565b6060959095015193969295505050565b600060208284031215614e2657600080fd5b5051919050565b600082821015614e3f57614e3f614a24565b500390565b600060208284031215614e5657600080fd5b81516107af81614553565b6001600160a01b0394851681529290931660208301526040820152606081019190915260a06080820181905260009082015260c00190565b600060a08284031215614eab57600080fd5b60405160a081018181106001600160401b0382111715614ecd57614ecd61479b565b6040528251614edb81614621565b815260208301516001600160f81b031981168114614ef857600080fd5b6020820152614f0960408401614a83565b60408201526060830151614f1c81614611565b606082015260808301516dffffffffffffffffffffffffffff1981168114614f4357600080fd5b60808201529392505050565b600060a08284031215614f6157600080fd5b60405160a081018181106001600160401b0382111715614f8357614f8361479b565b80604052508091508251614f9681614553565b81526020830151614fa681614709565b602082015260408381015190820152606083015160068110614fc757600080fd5b6060820152608092830151920191909152919050565b6000806101408385031215614ff157600080fd5b614ffb8484614f4f565b915061500a8460a08501614f4f565b90509250929050565b6020808252601f908201527f5265656e7472616e637947756172643a207265656e7472616e742063616c6c00604082015260600190565b602080825260079082015266125b9d985b1a5960ca1b604082015260600190565b6000602080838503121561507e57600080fd5b82516001600160401b0381111561509457600080fd5b8301601f810185136150a557600080fd5b80516150b3614b1682614ad2565b81815260c091820283018401918482019190888411156150d257600080fd5b938501935b838510156151485780858a0312156150ef5760008081fd5b6150f76147da565b85518152868601518782015260408087015190820152606080870151908201526080808701519082015260a080870151600381106151355760008081fd5b90820152835293840193918501916150d7565b50979650505050505050565b634e487b7160e01b600052603260045260246000fd5b60006001600160ff1b038184138284138082168684048611161561519057615190614a24565b600160ff1b60008712828116878305891216156151af576151af614a24565b600087129250878205871284841616156151cb576151cb614a24565b878505871281841616156151e1576151e1614a24565b505050929093029392505050565b6000826151fe576151fe614a59565b600160ff1b82146000198414161561521857615218614a24565b500590565b60008060006060848603121561523257600080fd5b8351925060208401519150604084015190509250925092565b60006020828403121561525d57600080fd5b81516107af81614709565b600081518084526020808501945080840160005b838110156152985781518752958201959082019060010161527c565b509495945050505050565b6001600160a01b03831681526040602080830182905283518383018190526000929160609182860190600581901b87018401888401875b8381101561536357605f198a8403018552815160e0815160078110615301576153016149a5565b85528188015161ffff1688860152898201518a860152888201518986015260808083015115159086015260a08083015115159086015260c09182015191850181905261534f81860183615268565b9688019694505050908501906001016152da565b50909a9950505050505050505050565b6001600160a01b03831681526040602080830182905283518383018190526000929160609182860190600581901b87018401888401875b8381101561536357898303605f190185528151805161ffff168452868101511515878501528801518884018890526153e488850182615268565b95870195935050908501906001016153aa565b60006001820161540957615409614a24565b5060010190565b60008261541f5761541f614a59565b500690565b6020808252602b908201527f496e697469616c697a61626c653a20636f6e7472616374206973206e6f74206960408201526a6e697469616c697a696e6760a81b606082015260800190565b601f821115610d2e57600081815260208120601f850160051c810160208610156154965750805b601f850160051c820191505b818110156154b5578281556001016154a2565b505050505050565b81516001600160401b038111156154d6576154d661479b565b6154ea816154e484546149f0565b8461546f565b602080601f83116001811461551f57600084156155075750858301515b600019600386901b1c1916600185901b1785556154b5565b600085815260208120601f198616915b8281101561554e5788860151825594840194600190910190840161552f565b508582101561556c5787850151600019600388901b60f8161c191681555b5050505050600190811b01905550565b6000825161558e8184602087016144db565b919091019291505056fea26469706673582212206fe4679719393b74b753c63206fec66add9f771abc06034dba3755d60dea557e64736f6c634300080f0033",
  "bytecodeSha1": "dcd123a487dcfc4248f927d6d6200504a8faf5f9",
  "compiler": {
    "evm_version": "istanbul",
    "optimizer": {
      "enabled": true,
      "runs": 200
    },
    "version": "0.8.15+commit.e14f2714"
  },
  "contractName": "wfCashERC4626",
  "language": "Solidity",
  "natspec": {
    "kind": "dev",
    "methods": {
      "NotionalV2()": {
        "notice": "address to the NotionalV2 system"
      },
      "allowance(address,address)": {
        "details": "See {IERC20-allowance}."
      },
      "approve(address,uint256)": {
        "details": "See {IERC20-approve}. NOTE: If `amount` is the maximum `uint256`, the allowance is not updated on `transferFrom`. This is semantically equivalent to an infinite approval. Requirements: - `spender` cannot be the zero address."
      },
      "asset()": {
        "details": "See {IERC4626-asset} "
      },
      "balanceOf(address)": {
        "details": "See {IERC20-balanceOf}."
      },
      "convertToAssets(uint256)": {
        "details": "See {IERC4626-convertToAssets} "
      },
      "convertToShares(uint256)": {
        "details": "See {IERC4626-convertToShares} "
      },
      "decimals()": {
        "notice": "fCash is always denominated in 8 decimal places"
      },
      "decreaseAllowance(address,uint256)": {
        "details": "Atomically decreases the allowance granted to `spender` by the caller. This is an alternative to {approve} that can be used as a mitigation for problems described in {IERC20-approve}. Emits an {Approval} event indicating the updated allowance. Requirements: - `spender` cannot be the zero address. - `spender` must have allowance for the caller of at least `subtractedValue`."
      },
      "deposit(uint256,address)": {
        "details": "See {IERC4626-deposit} "
      },
      "getAssetToken()": {
        "notice": "Returns the asset token which the fCash settles to. This will be an interest bearing token like a cToken or aToken."
      },
      "getCurrencyId()": {
        "notice": "Returns the underlying fCash currency"
      },
      "getDecodedID()": {
        "notice": "Returns the components of the fCash idd"
      },
      "getMarketIndex()": {
        "notice": "Returns the current market index for this fCash asset. If this returns zero that means it is idiosyncratic and cannot be traded."
      },
      "getMaturity()": {
        "notice": "Returns the underlying fCash maturity of the token"
      },
      "getUnderlyingToken()": {
        "notice": "Returns the token and precision of the token that this token settles to. For example, fUSDC will return the USDC token address and 1e6. The zero address will represent ETH."
      },
      "getfCashId()": {
        "notice": "Returns the underlying fCash ID of the token"
      },
      "hasMatured()": {
        "notice": "True if the fCash has matured, assets mature exactly on the block time"
      },
      "increaseAllowance(address,uint256)": {
        "details": "Atomically increases the allowance granted to `spender` by the caller. This is an alternative to {approve} that can be used as a mitigation for problems described in {IERC20-approve}. Emits an {Approval} event indicating the updated allowance. Requirements: - `spender` cannot be the zero address."
      },
      "initialize(uint16,uint40)": {
        "notice": "Initializes a proxy for a specific fCash asset"
      },
      "maxDeposit(address)": {
        "details": "See {IERC4626-maxDeposit} "
      },
      "maxMint(address)": {
        "details": "See {IERC4626-maxMint} "
      },
      "maxRedeem(address)": {
        "details": "See {IERC4626-maxRedeem} "
      },
      "maxWithdraw(address)": {
        "details": "See {IERC4626-maxWithdraw} "
      },
      "mint(uint256,address)": {
        "details": "See {IERC4626-mint} "
      },
      "mintViaAsset(uint256,uint88,address,uint32)": {
        "notice": "Lends deposit amount in return for fCashAmount using cTokens or aTokens",
        "params": {
          "depositAmountExternal": "amount of cash to deposit into this method",
          "fCashAmount": "amount of fCash to purchase (lend)",
          "minImpliedRate": "minimum annualized interest rate to lend at",
          "receiver": "address to receive the fCash shares"
        }
      },
      "mintViaUnderlying(uint256,uint88,address,uint32)": {
        "notice": "Lends deposit amount in return for fCashAmount using underlying tokens",
        "params": {
          "depositAmountExternal": "amount of cash to deposit into this method",
          "fCashAmount": "amount of fCash to purchase (lend)",
          "minImpliedRate": "minimum annualized interest rate to lend at",
          "receiver": "address to receive the fCash shares"
        }
      },
      "name()": {
        "details": "Returns the name of the token."
      },
      "onERC1155Received(address,address,uint256,uint256,bytes)": {
        "notice": "This hook will be called every time this contract receives fCash, will validate that this is the correct fCash and then mint the corresponding amount of wrapped fCash tokens back to the user."
      },
      "previewDeposit(uint256)": {
        "details": "See {IERC4626-previewDeposit} "
      },
      "previewMint(uint256)": {
        "details": "See {IERC4626-previewMint} "
      },
      "previewRedeem(uint256)": {
        "details": "See {IERC4626-previewRedeem} "
      },
      "previewWithdraw(uint256)": {
        "details": "See {IERC4626-previewWithdraw} "
      },
      "recoverInvalidfCash(uint256,address)": {
        "notice": "This method is here only in the case where someone has transferred invalid fCash to the contract and would prevent ERC1155 transfer hooks from succeeding. In this case the owner can recover the invalid fCash to a designated receiver. This can only occur if the fCash is transferred prior to contract creation."
      },
      "redeem(uint256,(bool,bool,address,uint32))": {
        "details": "re-entrancy is protected on _burn",
        "notice": "Redeems tokens using custom options"
      },
      "redeem(uint256,address,address)": {
        "details": "See {IERC4626-redeem} "
      },
      "redeemToAsset(uint256,address,uint32)": {
        "details": "re-entrancy is protected on _burn",
        "notice": "Redeems tokens to asset tokens"
      },
      "redeemToUnderlying(uint256,address,uint32)": {
        "details": "re-entrancy is protected on _burn",
        "notice": "Redeems tokens to underlying"
      },
      "symbol()": {
        "details": "Returns the symbol of the token, usually a shorter version of the name."
      },
      "totalAssets()": {
        "details": "See {IERC4626-totalAssets} "
      },
      "totalSupply()": {
        "details": "See {IERC20-totalSupply}."
      },
      "transfer(address,uint256)": {
        "details": "See {IERC20-transfer}. Requirements: - `to` cannot be the zero address. - the caller must have a balance of at least `amount`."
      },
      "transferFrom(address,address,uint256)": {
        "details": "See {IERC20-transferFrom}. Emits an {Approval} event indicating the updated allowance. This is not required by the EIP. See the note at the beginning of {ERC20}. NOTE: Does not update the allowance if the current allowance is the maximum `uint256`. Requirements: - `from` and `to` cannot be the zero address. - `from` must have a balance of at least `amount`. - the caller must have allowance for ``from``'s tokens of at least `amount`."
      },
      "withdraw(uint256,address,address)": {
        "details": "See {IERC4626-withdraw} "
      }
    },
    "version": 1
  },
  "opcodes": "PUSH1 0x80 PUSH1 0x40 MSTORE CALLVALUE DUP1 ISZERO PUSH2 0x10 JUMPI PUSH1 0x0 DUP1 REVERT JUMPDEST POP PUSH1 0x4 CALLDATASIZE LT PUSH2 0x28A JUMPI PUSH1 0x0 CALLDATALOAD PUSH1 0xE0 SHR DUP1 PUSH4 0x94BF804D GT PUSH2 0x15C JUMPI DUP1 PUSH4 0xCB803CEB GT PUSH2 0xCE JUMPI DUP1 PUSH4 0xDD62ED3E GT PUSH2 0x87 JUMPI DUP1 PUSH4 0xDD62ED3E EQ PUSH2 0x5FE JUMPI DUP1 PUSH4 0xE16695B5 EQ PUSH2 0x637 JUMPI DUP1 PUSH4 0xEE719BC8 EQ PUSH2 0x655 JUMPI DUP1 PUSH4 0xEF8B30F7 EQ PUSH2 0x67C JUMPI DUP1 PUSH4 0xF23A6E61 EQ PUSH2 0x68F JUMPI DUP1 PUSH4 0xF8EEF10F EQ PUSH2 0x6BB JUMPI PUSH1 0x0 DUP1 REVERT JUMPDEST DUP1 PUSH4 0xCB803CEB EQ PUSH2 0x58F JUMPI DUP1 PUSH4 0xCE96CB77 EQ PUSH2 0x597 JUMPI DUP1 PUSH4 0xCF387FED EQ PUSH2 0x5AA JUMPI DUP1 PUSH4 0xD7FD4AAD EQ PUSH2 0x5C5 JUMPI DUP1 PUSH4 0xD84878B8 EQ PUSH2 0x5D8 JUMPI DUP1 PUSH4 0xD905777E EQ PUSH2 0x5EB JUMPI PUSH1 0x0 DUP1 REVERT JUMPDEST DUP1 PUSH4 0xAD5C4648 GT PUSH2 0x120 JUMPI DUP1 PUSH4 0xAD5C4648 EQ PUSH2 0x509 JUMPI DUP1 PUSH4 0xB3D7F6B9 EQ PUSH2 0x530 JUMPI DUP1 PUSH4 0xB460AF94 EQ PUSH2 0x543 JUMPI DUP1 PUSH4 0xBA087652 EQ PUSH2 0x556 JUMPI DUP1 PUSH4 0xC63D75B6 EQ PUSH2 0x569 JUMPI DUP1 PUSH4 0xC6E6F592 EQ PUSH2 0x57C JUMPI PUSH1 0x0 DUP1 REVERT JUMPDEST DUP1 PUSH4 0x94BF804D EQ PUSH2 0x4C0 JUMPI DUP1 PUSH4 0x95D89B41 EQ PUSH2 0x4D3 JUMPI DUP1 PUSH4 0xA1093295 EQ PUSH2 0x4DB JUMPI DUP1 PUSH4 0xA457C2D7 EQ PUSH2 0x4E3 JUMPI DUP1 PUSH4 0xA9059CBB EQ PUSH2 0x4F6 JUMPI PUSH1 0x0 DUP1 REVERT JUMPDEST DUP1 PUSH4 0x29CF1405 GT PUSH2 0x200 JUMPI DUP1 PUSH4 0x48D8F98D GT PUSH2 0x1B9 JUMPI DUP1 PUSH4 0x48D8F98D EQ PUSH2 0x404 JUMPI DUP1 PUSH4 0x4CDAD506 EQ PUSH2 0x42C JUMPI DUP1 PUSH4 0x51489551 EQ PUSH2 0x43F JUMPI DUP1 PUSH4 0x6E553F65 EQ PUSH2 0x471 JUMPI DUP1 PUSH4 0x70A08231 EQ PUSH2 0x484 JUMPI DUP1 PUSH4 0x745D08D9 EQ PUSH2 0x4AD JUMPI PUSH1 0x0 DUP1 REVERT JUMPDEST DUP1 PUSH4 0x29CF1405 EQ PUSH2 0x39B JUMPI DUP1 PUSH4 0x313CE567 EQ PUSH2 0x3AE JUMPI DUP1 PUSH4 0x38D52E0F EQ PUSH2 0x3C3 JUMPI DUP1 PUSH4 0x39509351 EQ PUSH2 0x3CB JUMPI DUP1 PUSH4 0x3D3192CB EQ PUSH2 0x3DE JUMPI DUP1 PUSH4 0x402D267D EQ PUSH2 0x3F1 JUMPI PUSH1 0x0 DUP1 REVERT JUMPDEST DUP1 PUSH4 0xA28A477 GT PUSH2 0x252 JUMPI DUP1 PUSH4 0xA28A477 EQ PUSH2 0x306 JUMPI DUP1 PUSH4 0xDB8481C EQ PUSH2 0x319 JUMPI DUP1 PUSH4 0x152B838C EQ PUSH2 0x32E JUMPI DUP1 PUSH4 0x18160DDD EQ PUSH2 0x341 JUMPI DUP1 PUSH4 0x19B53D35 EQ PUSH2 0x349 JUMPI DUP1 PUSH4 0x23B872DD EQ PUSH2 0x388 JUMPI PUSH1 0x0 DUP1 REVERT JUMPDEST DUP1 PUSH4 0x1E1D114 EQ PUSH2 0x28F JUMPI DUP1 PUSH4 0x558D500 EQ PUSH2 0x2AA JUMPI DUP1 PUSH4 0x6FDDE03 EQ PUSH2 0x2BB JUMPI DUP1 PUSH4 0x7A2D13A EQ PUSH2 0x2D0 JUMPI DUP1 PUSH4 0x95EA7B3 EQ PUSH2 0x2E3 JUMPI JUMPDEST PUSH1 0x0 DUP1 REVERT JUMPDEST PUSH2 0x297 PUSH2 0x6D2 JUMP JUMPDEST PUSH1 0x40 MLOAD SWAP1 DUP2 MSTORE PUSH1 0x20 ADD JUMPDEST PUSH1 0x40 MLOAD DUP1 SWAP2 SUB SWAP1 RETURN JUMPDEST PUSH1 0x65 SLOAD PUSH1 0x1 PUSH1 0x1 PUSH1 0x40 SHL SUB AND PUSH2 0x297 JUMP JUMPDEST PUSH2 0x2C3 PUSH2 0x6FE JUMP JUMPDEST PUSH1 0x40 MLOAD PUSH2 0x2A1 SWAP2 SWAP1 PUSH2 0x4507 JUMP JUMPDEST PUSH2 0x297 PUSH2 0x2DE CALLDATASIZE PUSH1 0x4 PUSH2 0x453A JUMP JUMPDEST PUSH2 0x790 JUMP JUMPDEST PUSH2 0x2F6 PUSH2 0x2F1 CALLDATASIZE PUSH1 0x4 PUSH2 0x456B JUMP JUMPDEST PUSH2 0x7D3 JUMP JUMPDEST PUSH1 0x40 MLOAD SWAP1 ISZERO ISZERO DUP2 MSTORE PUSH1 0x20 ADD PUSH2 0x2A1 JUMP JUMPDEST PUSH2 0x297 PUSH2 0x314 CALLDATASIZE PUSH1 0x4 PUSH2 0x453A JUMP JUMPDEST PUSH2 0x7EB JUMP JUMPDEST PUSH2 0x32C PUSH2 0x327 CALLDATASIZE PUSH1 0x4 PUSH2 0x45C0 JUMP JUMPDEST PUSH2 0x8E2 JUMP JUMPDEST STOP JUMPDEST PUSH2 0x32C PUSH2 0x33C CALLDATASIZE PUSH1 0x4 PUSH2 0x4634 JUMP JUMPDEST PUSH2 0x8F6 JUMP JUMPDEST PUSH1 0x35 SLOAD PUSH2 0x297 JUMP JUMPDEST PUSH2 0x370 PUSH32 0x0 DUP2 JUMP JUMPDEST PUSH1 0x40 MLOAD PUSH1 0x1 PUSH1 0x1 PUSH1 0xA0 SHL SUB SWAP1 SWAP2 AND DUP2 MSTORE PUSH1 0x20 ADD PUSH2 0x2A1 JUMP JUMPDEST PUSH2 0x2F6 PUSH2 0x396 CALLDATASIZE PUSH1 0x4 PUSH2 0x466D JUMP JUMPDEST PUSH2 0xD33 JUMP JUMPDEST PUSH2 0x32C PUSH2 0x3A9 CALLDATASIZE PUSH1 0x4 PUSH2 0x45C0 JUMP JUMPDEST PUSH2 0xD57 JUMP JUMPDEST PUSH1 0x8 JUMPDEST PUSH1 0x40 MLOAD PUSH1 0xFF SWAP1 SWAP2 AND DUP2 MSTORE PUSH1 0x20 ADD PUSH2 0x2A1 JUMP JUMPDEST PUSH2 0x370 PUSH2 0xD65 JUMP JUMPDEST PUSH2 0x2F6 PUSH2 0x3D9 CALLDATASIZE PUSH1 0x4 PUSH2 0x456B JUMP JUMPDEST PUSH2 0xDAC JUMP JUMPDEST PUSH2 0x32C PUSH2 0x3EC CALLDATASIZE PUSH1 0x4 PUSH2 0x46AE JUMP JUMPDEST PUSH2 0xDEB JUMP JUMPDEST PUSH2 0x297 PUSH2 0x3FF CALLDATASIZE PUSH1 0x4 PUSH2 0x46EC JUMP JUMPDEST PUSH2 0xE2B JUMP JUMPDEST PUSH2 0x40C PUSH2 0xE49 JUMP JUMPDEST PUSH1 0x40 DUP1 MLOAD PUSH2 0xFFFF SWAP1 SWAP4 AND DUP4 MSTORE PUSH5 0xFFFFFFFFFF SWAP1 SWAP2 AND PUSH1 0x20 DUP4 ADD MSTORE ADD PUSH2 0x2A1 JUMP JUMPDEST PUSH2 0x297 PUSH2 0x43A CALLDATASIZE PUSH1 0x4 PUSH2 0x453A JUMP JUMPDEST PUSH2 0xE77 JUMP JUMPDEST PUSH2 0x452 PUSH2 0x44D CALLDATASIZE PUSH1 0x4 PUSH2 0x4717 JUMP JUMPDEST PUSH2 0xF58 JUMP JUMPDEST PUSH1 0x40 DUP1 MLOAD PUSH1 0x1 PUSH1 0x1 PUSH1 0xA0 SHL SUB SWAP1 SWAP4 AND DUP4 MSTORE SWAP1 ISZERO ISZERO PUSH1 0x20 DUP4 ADD MSTORE ADD PUSH2 0x2A1 JUMP JUMPDEST PUSH2 0x297 PUSH2 0x47F CALLDATASIZE PUSH1 0x4 PUSH2 0x4734 JUMP JUMPDEST PUSH2 0xF90 JUMP JUMPDEST PUSH2 0x297 PUSH2 0x492 CALLDATASIZE PUSH1 0x4 PUSH2 0x46EC JUMP JUMPDEST PUSH1 0x1 PUSH1 0x1 PUSH1 0xA0 SHL SUB AND PUSH1 0x0 SWAP1 DUP2 MSTORE PUSH1 0x33 PUSH1 0x20 MSTORE PUSH1 0x40 SWAP1 KECCAK256 SLOAD SWAP1 JUMP JUMPDEST PUSH2 0x32C PUSH2 0x4BB CALLDATASIZE PUSH1 0x4 PUSH2 0x46AE JUMP JUMPDEST PUSH2 0x1003 JUMP JUMPDEST PUSH2 0x297 PUSH2 0x4CE CALLDATASIZE PUSH1 0x4 PUSH2 0x4734 JUMP JUMPDEST PUSH2 0x1043 JUMP JUMPDEST PUSH2 0x2C3 PUSH2 0x10A1 JUMP JUMPDEST PUSH2 0x2F6 PUSH2 0x10B0 JUMP JUMPDEST PUSH2 0x2F6 PUSH2 0x4F1 CALLDATASIZE PUSH1 0x4 PUSH2 0x456B JUMP JUMPDEST PUSH2 0x10C9 JUMP JUMPDEST PUSH2 0x2F6 PUSH2 0x504 CALLDATASIZE PUSH1 0x4 PUSH2 0x456B JUMP JUMPDEST PUSH2 0x115B JUMP JUMPDEST PUSH2 0x370 PUSH32 0x0 DUP2 JUMP JUMPDEST PUSH2 0x297 PUSH2 0x53E CALLDATASIZE PUSH1 0x4 PUSH2 0x453A JUMP JUMPDEST PUSH2 0x1169 JUMP JUMPDEST PUSH2 0x297 PUSH2 0x551 CALLDATASIZE PUSH1 0x4 PUSH2 0x4759 JUMP JUMPDEST PUSH2 0x124D JUMP JUMPDEST PUSH2 0x297 PUSH2 0x564 CALLDATASIZE PUSH1 0x4 PUSH2 0x4759 JUMP JUMPDEST PUSH2 0x134F JUMP JUMPDEST PUSH2 0x297 PUSH2 0x577 CALLDATASIZE PUSH1 0x4 PUSH2 0x46EC JUMP JUMPDEST PUSH2 0x14DB JUMP JUMPDEST PUSH2 0x297 PUSH2 0x58A CALLDATASIZE PUSH1 0x4 PUSH2 0x453A JUMP JUMPDEST PUSH2 0x1508 JUMP JUMPDEST PUSH2 0x3B1 PUSH2 0x1562 JUMP JUMPDEST PUSH2 0x297 PUSH2 0x5A5 CALLDATASIZE PUSH1 0x4 PUSH2 0x46EC JUMP JUMPDEST PUSH2 0x159A JUMP JUMPDEST PUSH2 0x5B2 PUSH2 0x15BC JUMP JUMPDEST PUSH1 0x40 MLOAD PUSH2 0xFFFF SWAP1 SWAP2 AND DUP2 MSTORE PUSH1 0x20 ADD PUSH2 0x2A1 JUMP JUMPDEST PUSH2 0x32C PUSH2 0x5D3 CALLDATASIZE PUSH1 0x4 PUSH2 0x4734 JUMP JUMPDEST PUSH2 0x15E6 JUMP JUMPDEST PUSH2 0x32C PUSH2 0x5E6 CALLDATASIZE PUSH1 0x4 PUSH2 0x482C JUMP JUMPDEST PUSH2 0x1866 JUMP JUMPDEST PUSH2 0x297 PUSH2 0x5F9 CALLDATASIZE PUSH1 0x4 PUSH2 0x46EC JUMP JUMPDEST PUSH2 0x1875 JUMP JUMPDEST PUSH2 0x297 PUSH2 0x60C CALLDATASIZE PUSH1 0x4 PUSH2 0x48CE JUMP JUMPDEST PUSH1 0x1 PUSH1 0x1 PUSH1 0xA0 SHL SUB SWAP2 DUP3 AND PUSH1 0x0 SWAP1 DUP2 MSTORE PUSH1 0x34 PUSH1 0x20 SWAP1 DUP2 MSTORE PUSH1 0x40 DUP1 DUP4 KECCAK256 SWAP4 SWAP1 SWAP5 AND DUP3 MSTORE SWAP2 SWAP1 SWAP2 MSTORE KECCAK256 SLOAD SWAP1 JUMP JUMPDEST PUSH2 0x63F PUSH2 0x1893 JUMP JUMPDEST PUSH1 0x40 MLOAD PUSH5 0xFFFFFFFFFF SWAP1 SWAP2 AND DUP2 MSTORE PUSH1 0x20 ADD PUSH2 0x2A1 JUMP JUMPDEST PUSH2 0x65D PUSH2 0x18BC JUMP JUMPDEST PUSH1 0x40 DUP1 MLOAD PUSH1 0x1 PUSH1 0x1 PUSH1 0xA0 SHL SUB SWAP1 SWAP4 AND DUP4 MSTORE PUSH1 0x20 DUP4 ADD SWAP2 SWAP1 SWAP2 MSTORE ADD PUSH2 0x2A1 JUMP JUMPDEST PUSH2 0x297 PUSH2 0x68A CALLDATASIZE PUSH1 0x4 PUSH2 0x453A JUMP JUMPDEST PUSH2 0x19A3 JUMP JUMPDEST PUSH2 0x6A2 PUSH2 0x69D CALLDATASIZE PUSH1 0x4 PUSH2 0x48FC JUMP JUMPDEST PUSH2 0x1A95 JUMP JUMPDEST PUSH1 0x40 MLOAD PUSH1 0x1 PUSH1 0x1 PUSH1 0xE0 SHL SUB NOT SWAP1 SWAP2 AND DUP2 MSTORE PUSH1 0x20 ADD PUSH2 0x2A1 JUMP JUMPDEST PUSH2 0x6C3 PUSH2 0x1DCE JUMP JUMPDEST PUSH1 0x40 MLOAD PUSH2 0x2A1 SWAP4 SWAP3 SWAP2 SWAP1 PUSH2 0x49BB JUMP JUMPDEST PUSH1 0x0 PUSH2 0x6DC PUSH2 0x10B0 JUMP JUMPDEST PUSH2 0x6F6 JUMPI PUSH2 0x6F1 PUSH2 0x6EC PUSH1 0x35 SLOAD SWAP1 JUMP JUMPDEST PUSH2 0x1E98 JUMP JUMPDEST SWAP1 POP SWAP1 JUMP JUMPDEST PUSH2 0x6F1 PUSH2 0x1F9D JUMP JUMPDEST PUSH1 0x60 PUSH1 0x36 DUP1 SLOAD PUSH2 0x70D SWAP1 PUSH2 0x49F0 JUMP JUMPDEST DUP1 PUSH1 0x1F ADD PUSH1 0x20 DUP1 SWAP2 DIV MUL PUSH1 0x20 ADD PUSH1 0x40 MLOAD SWAP1 DUP2 ADD PUSH1 0x40 MSTORE DUP1 SWAP3 SWAP2 SWAP1 DUP2 DUP2 MSTORE PUSH1 0x20 ADD DUP3 DUP1 SLOAD PUSH2 0x739 SWAP1 PUSH2 0x49F0 JUMP JUMPDEST DUP1 ISZERO PUSH2 0x786 JUMPI DUP1 PUSH1 0x1F LT PUSH2 0x75B JUMPI PUSH2 0x100 DUP1 DUP4 SLOAD DIV MUL DUP4 MSTORE SWAP2 PUSH1 0x20 ADD SWAP2 PUSH2 0x786 JUMP JUMPDEST DUP3 ADD SWAP2 SWAP1 PUSH1 0x0 MSTORE PUSH1 0x20 PUSH1 0x0 KECCAK256 SWAP1 JUMPDEST DUP2 SLOAD DUP2 MSTORE SWAP1 PUSH1 0x1 ADD SWAP1 PUSH1 0x20 ADD DUP1 DUP4 GT PUSH2 0x769 JUMPI DUP3 SWAP1 SUB PUSH1 0x1F AND DUP3 ADD SWAP2 JUMPDEST POP POP POP POP POP SWAP1 POP SWAP1 JUMP JUMPDEST PUSH1 0x0 DUP1 PUSH2 0x79C PUSH1 0x35 SLOAD SWAP1 JUMP JUMPDEST SWAP1 POP DUP1 PUSH1 0x0 SUB PUSH2 0x7B6 JUMPI PUSH2 0x7AF DUP4 PUSH2 0x1E98 JUMP JUMPDEST SWAP4 SWAP3 POP POP POP JUMP JUMPDEST DUP1 PUSH2 0x7BF PUSH2 0x6D2 JUMP JUMPDEST PUSH2 0x7C9 SWAP1 DUP6 PUSH2 0x4A3A JUMP JUMPDEST PUSH2 0x7AF SWAP2 SWAP1 PUSH2 0x4A6F JUMP JUMPDEST PUSH1 0x0 CALLER PUSH2 0x7E1 DUP2 DUP6 DUP6 PUSH2 0x2122 JUMP JUMPDEST POP PUSH1 0x1 SWAP4 SWAP3 POP POP POP JUMP JUMPDEST PUSH1 0x0 PUSH2 0x7F5 PUSH2 0x10B0 JUMP JUMPDEST ISZERO PUSH2 0x809 JUMPI PUSH2 0x803 DUP3 PUSH2 0x1508 JUMP JUMPDEST SWAP3 SWAP2 POP POP JUMP JUMPDEST PUSH1 0x0 DUP1 PUSH2 0x814 PUSH2 0xE49 JUMP JUMPDEST PUSH1 0x40 MLOAD PUSH4 0xBAC9E8B1 PUSH1 0xE0 SHL DUP2 MSTORE PUSH2 0xFFFF DUP4 AND PUSH1 0x4 DUP3 ADD MSTORE PUSH1 0x24 DUP2 ADD DUP8 SWAP1 MSTORE PUSH5 0xFFFFFFFFFF DUP3 AND PUSH1 0x44 DUP3 ADD MSTORE PUSH1 0x0 PUSH1 0x64 DUP3 ADD MSTORE TIMESTAMP PUSH1 0x84 DUP3 ADD MSTORE PUSH1 0x1 PUSH1 0xA4 DUP3 ADD MSTORE SWAP2 SWAP4 POP SWAP2 POP PUSH32 0x0 PUSH1 0x1 PUSH1 0x1 PUSH1 0xA0 SHL SUB AND SWAP1 PUSH4 0xBAC9E8B1 SWAP1 PUSH1 0xC4 ADD PUSH1 0x60 PUSH1 0x40 MLOAD DUP1 DUP4 SUB DUP2 DUP7 GAS STATICCALL ISZERO DUP1 ISZERO PUSH2 0x8A9 JUMPI RETURNDATASIZE PUSH1 0x0 DUP1 RETURNDATACOPY RETURNDATASIZE PUSH1 0x0 REVERT JUMPDEST POP POP POP POP PUSH1 0x40 MLOAD RETURNDATASIZE PUSH1 0x1F NOT PUSH1 0x1F DUP3 ADD AND DUP3 ADD DUP1 PUSH1 0x40 MSTORE POP DUP2 ADD SWAP1 PUSH2 0x8CD SWAP2 SWAP1 PUSH2 0x4A94 JUMP JUMPDEST POP POP PUSH1 0x1 PUSH1 0x1 PUSH1 0x58 SHL SUB AND SWAP3 POP POP POP JUMPDEST SWAP2 SWAP1 POP JUMP JUMPDEST PUSH2 0x8F0 DUP5 DUP5 DUP5 DUP5 PUSH1 0x0 PUSH2 0x2246 JUMP JUMPDEST POP POP POP POP JUMP JUMPDEST PUSH1 0x0 SLOAD PUSH2 0x100 SWAP1 DIV PUSH1 0xFF AND PUSH2 0x911 JUMPI PUSH1 0x0 SLOAD PUSH1 0xFF AND ISZERO PUSH2 0x915 JUMP JUMPDEST ADDRESS EXTCODESIZE ISZERO JUMPDEST PUSH2 0x97D JUMPI PUSH1 0x40 MLOAD PUSH3 0x461BCD PUSH1 0xE5 SHL DUP2 MSTORE PUSH1 0x20 PUSH1 0x4 DUP3 ADD MSTORE PUSH1 0x2E PUSH1 0x24 DUP3 ADD MSTORE PUSH32 0x496E697469616C697A61626C653A20636F6E747261637420697320616C726561 PUSH1 0x44 DUP3 ADD MSTORE PUSH14 0x191E481A5B9A5D1A585B1A5E9959 PUSH1 0x92 SHL PUSH1 0x64 DUP3 ADD MSTORE PUSH1 0x84 ADD JUMPDEST PUSH1 0x40 MLOAD DUP1 SWAP2 SUB SWAP1 REVERT JUMPDEST PUSH1 0x0 SLOAD PUSH2 0x100 SWAP1 DIV PUSH1 0xFF AND ISZERO DUP1 ISZERO PUSH2 0x99F JUMPI PUSH1 0x0 DUP1 SLOAD PUSH2 0xFFFF NOT AND PUSH2 0x101 OR SWAP1 SSTORE JUMPDEST PUSH1 0x40 MLOAD PUSH4 0xD4CCB0ED PUSH1 0xE0 SHL DUP2 MSTORE PUSH2 0xFFFF DUP5 AND PUSH1 0x4 DUP3 ADD MSTORE PUSH1 0x0 SWAP1 PUSH32 0x0 PUSH1 0x1 PUSH1 0x1 PUSH1 0xA0 SHL SUB AND SWAP1 PUSH4 0xD4CCB0ED SWAP1 PUSH1 0x24 ADD PUSH1 0x0 PUSH1 0x40 MLOAD DUP1 DUP4 SUB DUP2 DUP7 GAS STATICCALL ISZERO DUP1 ISZERO PUSH2 0xA0A JUMPI RETURNDATASIZE PUSH1 0x0 DUP1 RETURNDATACOPY RETURNDATASIZE PUSH1 0x0 REVERT JUMPDEST POP POP POP POP PUSH1 0x40 MLOAD RETURNDATASIZE PUSH1 0x0 DUP3 RETURNDATACOPY PUSH1 0x1F RETURNDATASIZE SWAP1 DUP2 ADD PUSH1 0x1F NOT AND DUP3 ADD PUSH1 0x40 MSTORE PUSH2 0xA32 SWAP2 SWAP1 DUP2 ADD SWAP1 PUSH2 0x4B67 JUMP JUMPDEST DUP1 MLOAD SWAP1 SWAP2 POP PUSH1 0xFF AND PUSH2 0xA79 JUMPI PUSH1 0x40 MLOAD PUSH3 0x461BCD PUSH1 0xE5 SHL DUP2 MSTORE PUSH1 0x20 PUSH1 0x4 DUP3 ADD MSTORE PUSH1 0x10 PUSH1 0x24 DUP3 ADD MSTORE PUSH16 0x496E76616C69642063757272656E6379 PUSH1 0x80 SHL PUSH1 0x44 DUP3 ADD MSTORE PUSH1 0x64 ADD PUSH2 0x974 JUMP JUMPDEST TIMESTAMP DUP4 PUSH5 0xFFFFFFFFFF AND GT PUSH2 0xAC2 JUMPI PUSH1 0x40 MLOAD PUSH3 0x461BCD PUSH1 0xE5 SHL DUP2 MSTORE PUSH1 0x20 PUSH1 0x4 DUP3 ADD MSTORE PUSH1 0x10 PUSH1 0x24 DUP3 ADD MSTORE PUSH16 0x496E76616C6964206D61747572697479 PUSH1 0x80 SHL PUSH1 0x44 DUP3 ADD MSTORE PUSH1 0x64 ADD PUSH2 0x974 JUMP JUMPDEST DUP1 MLOAD PUSH2 0xAD9 SWAP1 PUSH1 0xFF AND PUSH5 0xFFFFFFFFFF DUP6 AND TIMESTAMP PUSH2 0x2699 JUMP JUMPDEST PUSH2 0xB18 JUMPI PUSH1 0x40 MLOAD PUSH3 0x461BCD PUSH1 0xE5 SHL DUP2 MSTORE PUSH1 0x20 PUSH1 0x4 DUP3 ADD MSTORE PUSH1 0x10 PUSH1 0x24 DUP3 ADD MSTORE PUSH16 0x496E76616C6964206D61747572697479 PUSH1 0x80 SHL PUSH1 0x44 DUP3 ADD MSTORE PUSH1 0x64 ADD PUSH2 0x974 JUMP JUMPDEST PUSH1 0x0 PUSH2 0xB31 PUSH2 0xFFFF DUP7 AND PUSH5 0xFFFFFFFFFF DUP7 AND PUSH1 0x1 PUSH2 0x26E9 JUMP JUMPDEST SWAP1 POP PUSH1 0x1 PUSH1 0x1 PUSH1 0x40 SHL SUB DUP2 GT ISZERO PUSH2 0xB47 JUMPI PUSH1 0x0 DUP1 REVERT JUMPDEST PUSH1 0x65 DUP1 SLOAD PUSH8 0xFFFFFFFFFFFFFFFF NOT AND PUSH1 0x1 PUSH1 0x1 PUSH1 0x40 SHL SUB DUP4 AND OR SWAP1 SSTORE PUSH1 0x0 PUSH2 0xB6D PUSH2 0x18BC JUMP JUMPDEST POP SWAP1 POP PUSH1 0x0 PUSH2 0xB7A PUSH2 0x1DCE JUMP JUMPDEST POP SWAP1 SWAP2 POP PUSH1 0x0 SWAP1 POP PUSH1 0x1 PUSH1 0x1 PUSH1 0xA0 SHL SUB DUP4 AND ISZERO PUSH2 0xBFC JUMPI DUP3 PUSH1 0x1 PUSH1 0x1 PUSH1 0xA0 SHL SUB AND PUSH4 0x95D89B41 PUSH1 0x40 MLOAD DUP2 PUSH4 0xFFFFFFFF AND PUSH1 0xE0 SHL DUP2 MSTORE PUSH1 0x4 ADD PUSH1 0x0 PUSH1 0x40 MLOAD DUP1 DUP4 SUB DUP2 DUP7 GAS STATICCALL ISZERO DUP1 ISZERO PUSH2 0xBCF JUMPI RETURNDATASIZE PUSH1 0x0 DUP1 RETURNDATACOPY RETURNDATASIZE PUSH1 0x0 REVERT JUMPDEST POP POP POP POP PUSH1 0x40 MLOAD RETURNDATASIZE PUSH1 0x0 DUP3 RETURNDATACOPY PUSH1 0x1F RETURNDATASIZE SWAP1 DUP2 ADD PUSH1 0x1F NOT AND DUP3 ADD PUSH1 0x40 MSTORE PUSH2 0xBF7 SWAP2 SWAP1 DUP2 ADD SWAP1 PUSH2 0x4C98 JUMP JUMPDEST PUSH2 0xC19 JUMP JUMPDEST PUSH1 0x40 MLOAD DUP1 PUSH1 0x40 ADD PUSH1 0x40 MSTORE DUP1 PUSH1 0x3 DUP2 MSTORE PUSH1 0x20 ADD PUSH3 0x8AA89 PUSH1 0xEB SHL DUP2 MSTORE POP JUMPDEST SWAP1 POP PUSH1 0x0 PUSH2 0xC2D DUP9 PUSH5 0xFFFFFFFFFF AND PUSH2 0x2744 JUMP JUMPDEST SWAP1 POP PUSH2 0xC7B DUP3 DUP3 PUSH1 0x40 MLOAD PUSH1 0x20 ADD PUSH2 0xC45 SWAP3 SWAP2 SWAP1 PUSH2 0x4D22 JUMP JUMPDEST PUSH1 0x40 MLOAD PUSH1 0x20 DUP2 DUP4 SUB SUB DUP2 MSTORE SWAP1 PUSH1 0x40 MSTORE DUP4 DUP4 PUSH1 0x40 MLOAD PUSH1 0x20 ADD PUSH2 0xC67 SWAP3 SWAP2 SWAP1 PUSH2 0x4D75 JUMP JUMPDEST PUSH1 0x40 MLOAD PUSH1 0x20 DUP2 DUP4 SUB SUB DUP2 MSTORE SWAP1 PUSH1 0x40 MSTORE PUSH2 0x2844 JUMP JUMPDEST PUSH2 0xCB1 PUSH1 0x1 PUSH1 0x1 PUSH1 0xA0 SHL SUB DUP5 AND PUSH32 0x0 PUSH1 0x0 NOT PUSH2 0x2875 JUMP JUMPDEST DUP4 PUSH1 0x1 PUSH1 0x1 PUSH1 0xA0 SHL SUB AND DUP4 PUSH1 0x1 PUSH1 0x1 PUSH1 0xA0 SHL SUB AND EQ ISZERO DUP1 ISZERO PUSH2 0xCDB JUMPI POP PUSH1 0x1 PUSH1 0x1 PUSH1 0xA0 SHL SUB DUP5 AND ISZERO ISZERO JUMPDEST ISZERO PUSH2 0xD16 JUMPI PUSH2 0xD16 PUSH1 0x1 PUSH1 0x1 PUSH1 0xA0 SHL SUB DUP6 AND PUSH32 0x0 PUSH1 0x0 NOT PUSH2 0x2875 JUMP JUMPDEST POP POP POP POP POP POP DUP1 ISZERO PUSH2 0xD2E JUMPI PUSH1 0x0 DUP1 SLOAD PUSH2 0xFF00 NOT AND SWAP1 SSTORE JUMPDEST POP POP POP JUMP JUMPDEST PUSH1 0x0 CALLER PUSH2 0xD41 DUP6 DUP3 DUP6 PUSH2 0x29BD JUMP JUMPDEST PUSH2 0xD4C DUP6 DUP6 DUP6 PUSH2 0x2A49 JUMP JUMPDEST POP PUSH1 0x1 SWAP5 SWAP4 POP POP POP POP JUMP JUMPDEST PUSH2 0x8F0 DUP5 DUP5 DUP5 DUP5 PUSH1 0x1 PUSH2 0x2246 JUMP JUMPDEST PUSH1 0x0 DUP1 PUSH1 0x0 PUSH2 0xD74 PUSH1 0x1 PUSH2 0xF58 JUMP JUMPDEST SWAP2 POP SWAP2 POP DUP1 PUSH2 0xD83 JUMPI DUP2 PUSH2 0xDA5 JUMP JUMPDEST PUSH32 0x0 JUMPDEST SWAP3 POP POP POP SWAP1 JUMP JUMPDEST CALLER PUSH1 0x0 DUP2 DUP2 MSTORE PUSH1 0x34 PUSH1 0x20 SWAP1 DUP2 MSTORE PUSH1 0x40 DUP1 DUP4 KECCAK256 PUSH1 0x1 PUSH1 0x1 PUSH1 0xA0 SHL SUB DUP8 AND DUP5 MSTORE SWAP1 SWAP2 MSTORE DUP2 KECCAK256 SLOAD SWAP1 SWAP2 SWAP1 PUSH2 0x7E1 SWAP1 DUP3 SWAP1 DUP7 SWAP1 PUSH2 0xDE6 SWAP1 DUP8 SWAP1 PUSH2 0x4DBF JUMP JUMPDEST PUSH2 0x2122 JUMP JUMPDEST PUSH2 0xD2E CALLER DUP5 PUSH1 0x40 MLOAD DUP1 PUSH1 0x80 ADD PUSH1 0x40 MSTORE DUP1 PUSH1 0x0 ISZERO ISZERO DUP2 MSTORE PUSH1 0x20 ADD PUSH1 0x0 ISZERO ISZERO DUP2 MSTORE PUSH1 0x20 ADD DUP7 PUSH1 0x1 PUSH1 0x1 PUSH1 0xA0 SHL SUB AND DUP2 MSTORE PUSH1 0x20 ADD DUP6 PUSH4 0xFFFFFFFF AND DUP2 MSTORE POP PUSH2 0x2C17 JUMP JUMPDEST PUSH1 0x0 PUSH2 0xE35 PUSH2 0x10B0 JUMP JUMPDEST PUSH2 0xE41 JUMPI PUSH1 0x0 NOT PUSH2 0x803 JUMP JUMPDEST PUSH1 0x0 SWAP3 SWAP2 POP POP JUMP JUMPDEST PUSH1 0x65 SLOAD PUSH1 0x0 SWAP1 DUP2 SWAP1 PUSH2 0xE6D SWAP1 PUSH1 0x1 PUSH1 0x1 PUSH1 0x40 SHL SUB AND PUSH1 0x30 DUP2 SWAP1 SHR SWAP2 PUSH1 0x8 DUP3 SWAP1 SHR SWAP2 SWAP1 JUMP JUMPDEST POP SWAP1 SWAP4 SWAP1 SWAP3 POP SWAP1 POP JUMP JUMPDEST PUSH1 0x0 PUSH2 0xE81 PUSH2 0x10B0 JUMP JUMPDEST ISZERO PUSH2 0xE8F JUMPI PUSH2 0x803 DUP3 PUSH2 0x790 JUMP JUMPDEST PUSH1 0x0 DUP1 PUSH2 0xE9A PUSH2 0xE49 JUMP JUMPDEST PUSH1 0x40 MLOAD PUSH4 0x416A1587 PUSH1 0xE0 SHL DUP2 MSTORE PUSH2 0xFFFF DUP4 AND PUSH1 0x4 DUP3 ADD MSTORE PUSH1 0x24 DUP2 ADD DUP8 SWAP1 MSTORE PUSH5 0xFFFFFFFFFF DUP3 AND PUSH1 0x44 DUP3 ADD MSTORE PUSH1 0x0 PUSH1 0x64 DUP3 ADD MSTORE TIMESTAMP PUSH1 0x84 DUP3 ADD MSTORE SWAP2 SWAP4 POP SWAP2 POP PUSH32 0x0 PUSH1 0x1 PUSH1 0x1 PUSH1 0xA0 SHL SUB AND SWAP1 PUSH4 0x416A1587 SWAP1 PUSH1 0xA4 ADD PUSH1 0x80 PUSH1 0x40 MLOAD DUP1 DUP4 SUB DUP2 DUP7 GAS STATICCALL ISZERO DUP1 ISZERO PUSH2 0xF28 JUMPI RETURNDATASIZE PUSH1 0x0 DUP1 RETURNDATACOPY RETURNDATASIZE PUSH1 0x0 REVERT JUMPDEST POP POP POP POP PUSH1 0x40 MLOAD RETURNDATASIZE PUSH1 0x1F NOT PUSH1 0x1F DUP3 ADD AND DUP3 ADD DUP1 PUSH1 0x40 MSTORE POP DUP2 ADD SWAP1 PUSH2 0xF4C SWAP2 SWAP1 PUSH2 0x4DD7 JUMP JUMPDEST POP SWAP2 SWAP7 SWAP6 POP POP POP POP POP POP JUMP JUMPDEST PUSH1 0x0 DUP1 DUP3 ISZERO PUSH2 0xF71 JUMPI PUSH2 0xF69 PUSH2 0x18BC JUMP JUMPDEST POP SWAP2 POP PUSH2 0xF7F JUMP JUMPDEST PUSH2 0xF79 PUSH2 0x1DCE JUMP JUMPDEST POP SWAP1 SWAP3 POP POP JUMPDEST POP SWAP2 PUSH1 0x1 PUSH1 0x1 PUSH1 0xA0 SHL SUB DUP4 AND ISZERO SWAP2 POP JUMP JUMPDEST PUSH1 0x0 DUP1 PUSH2 0xF9C DUP5 PUSH2 0x19A3 JUMP JUMPDEST SWAP1 POP PUSH2 0xFB5 DUP5 PUSH2 0xFAB DUP4 PUSH2 0x2F5F JUMP JUMPDEST DUP6 PUSH1 0x0 PUSH1 0x1 PUSH2 0x2246 JUMP JUMPDEST PUSH1 0x40 DUP1 MLOAD DUP6 DUP2 MSTORE PUSH1 0x20 DUP2 ADD DUP4 SWAP1 MSTORE PUSH1 0x1 PUSH1 0x1 PUSH1 0xA0 SHL SUB DUP6 AND SWAP2 CALLER SWAP2 PUSH32 0xDCBC1C05240F31FF3AD067EF1EE35CE4997762752E3A095284754544F4C709D7 SWAP2 ADD JUMPDEST PUSH1 0x40 MLOAD DUP1 SWAP2 SUB SWAP1 LOG3 SWAP4 SWAP3 POP POP POP JUMP JUMPDEST PUSH2 0xD2E CALLER DUP5 PUSH1 0x40 MLOAD DUP1 PUSH1 0x80 ADD PUSH1 0x40 MSTORE DUP1 PUSH1 0x1 ISZERO ISZERO DUP2 MSTORE PUSH1 0x20 ADD PUSH1 0x0 ISZERO ISZERO DUP2 MSTORE PUSH1 0x20 ADD DUP7 PUSH1 0x1 PUSH1 0x1 PUSH1 0xA0 SHL SUB AND DUP2 MSTORE PUSH1 0x20 ADD DUP6 PUSH4 0xFFFFFFFF AND DUP2 MSTORE POP PUSH2 0x2C17 JUMP JUMPDEST PUSH1 0x0 DUP1 PUSH2 0x104F DUP5 PUSH2 0x1169 JUMP JUMPDEST SWAP1 POP PUSH2 0x105E DUP2 PUSH2 0xFAB DUP7 PUSH2 0x2F5F JUMP JUMPDEST PUSH1 0x40 DUP1 MLOAD DUP3 DUP2 MSTORE PUSH1 0x20 DUP2 ADD DUP7 SWAP1 MSTORE PUSH1 0x1 PUSH1 0x1 PUSH1 0xA0 SHL SUB DUP6 AND SWAP2 CALLER SWAP2 PUSH32 0xDCBC1C05240F31FF3AD067EF1EE35CE4997762752E3A095284754544F4C709D7 SWAP2 ADD PUSH2 0xFF4 JUMP JUMPDEST PUSH1 0x60 PUSH1 0x37 DUP1 SLOAD PUSH2 0x70D SWAP1 PUSH2 0x49F0 JUMP JUMPDEST PUSH1 0x0 TIMESTAMP PUSH2 0x10BB PUSH2 0x1893 JUMP JUMPDEST PUSH5 0xFFFFFFFFFF AND GT ISZERO SWAP1 POP SWAP1 JUMP JUMPDEST CALLER PUSH1 0x0 DUP2 DUP2 MSTORE PUSH1 0x34 PUSH1 0x20 SWAP1 DUP2 MSTORE PUSH1 0x40 DUP1 DUP4 KECCAK256 PUSH1 0x1 PUSH1 0x1 PUSH1 0xA0 SHL SUB DUP8 AND DUP5 MSTORE SWAP1 SWAP2 MSTORE DUP2 KECCAK256 SLOAD SWAP1 SWAP2 SWAP1 DUP4 DUP2 LT ISZERO PUSH2 0x114E JUMPI PUSH1 0x40 MLOAD PUSH3 0x461BCD PUSH1 0xE5 SHL DUP2 MSTORE PUSH1 0x20 PUSH1 0x4 DUP3 ADD MSTORE PUSH1 0x25 PUSH1 0x24 DUP3 ADD MSTORE PUSH32 0x45524332303A2064656372656173656420616C6C6F77616E63652062656C6F77 PUSH1 0x44 DUP3 ADD MSTORE PUSH5 0x207A65726F PUSH1 0xD8 SHL PUSH1 0x64 DUP3 ADD MSTORE PUSH1 0x84 ADD PUSH2 0x974 JUMP JUMPDEST PUSH2 0xD4C DUP3 DUP7 DUP7 DUP5 SUB PUSH2 0x2122 JUMP JUMPDEST PUSH1 0x0 CALLER PUSH2 0x7E1 DUP2 DUP6 DUP6 PUSH2 0x2A49 JUMP JUMPDEST PUSH1 0x0 PUSH2 0x1173 PUSH2 0x10B0 JUMP JUMPDEST ISZERO PUSH2 0x1180 JUMPI POP PUSH1 0x0 SWAP2 SWAP1 POP JUMP JUMPDEST PUSH1 0x0 DUP1 PUSH2 0x118B PUSH2 0xE49 JUMP JUMPDEST PUSH1 0x40 MLOAD PUSH4 0xAAAE47B5 PUSH1 0xE0 SHL DUP2 MSTORE PUSH2 0xFFFF DUP4 AND PUSH1 0x4 DUP3 ADD MSTORE PUSH1 0x24 DUP2 ADD DUP8 SWAP1 MSTORE PUSH5 0xFFFFFFFFFF DUP3 AND PUSH1 0x44 DUP3 ADD MSTORE PUSH1 0x0 PUSH1 0x64 DUP3 ADD DUP2 SWAP1 MSTORE TIMESTAMP PUSH1 0x84 DUP4 ADD MSTORE SWAP3 SWAP5 POP SWAP1 SWAP3 POP PUSH1 0x1 PUSH1 0x1 PUSH1 0xA0 SHL SUB PUSH32 0x0 AND SWAP1 PUSH4 0xAAAE47B5 SWAP1 PUSH1 0xA4 ADD PUSH1 0x80 PUSH1 0x40 MLOAD DUP1 DUP4 SUB DUP2 DUP7 GAS STATICCALL ISZERO DUP1 ISZERO PUSH2 0x121C JUMPI RETURNDATASIZE PUSH1 0x0 DUP1 RETURNDATACOPY RETURNDATASIZE PUSH1 0x0 REVERT JUMPDEST POP POP POP POP PUSH1 0x40 MLOAD RETURNDATASIZE PUSH1 0x1F NOT PUSH1 0x1F DUP3 ADD AND DUP3 ADD DUP1 PUSH1 0x40 MSTORE POP DUP2 ADD SWAP1 PUSH2 0x1240 SWAP2 SWAP1 PUSH2 0x4DD7 JUMP JUMPDEST POP SWAP2 SWAP8 SWAP7 POP POP POP POP POP POP POP JUMP JUMPDEST PUSH1 0x40 MLOAD PUSH4 0xF667F897 PUSH1 0xE0 SHL DUP2 MSTORE ADDRESS PUSH1 0x4 DUP3 ADD MSTORE PUSH1 0x0 SWAP1 PUSH32 0x0 PUSH1 0x1 PUSH1 0x1 PUSH1 0xA0 SHL SUB AND SWAP1 PUSH4 0xF667F897 SWAP1 PUSH1 0x24 ADD PUSH1 0x0 PUSH1 0x40 MLOAD DUP1 DUP4 SUB DUP2 PUSH1 0x0 DUP8 DUP1 EXTCODESIZE ISZERO DUP1 ISZERO PUSH2 0x12B1 JUMPI PUSH1 0x0 DUP1 REVERT JUMPDEST POP GAS CALL ISZERO DUP1 ISZERO PUSH2 0x12C5 JUMPI RETURNDATASIZE PUSH1 0x0 DUP1 RETURNDATACOPY RETURNDATASIZE PUSH1 0x0 REVERT JUMPDEST POP POP POP POP PUSH1 0x0 PUSH2 0x12D4 DUP6 PUSH2 0x7EB JUMP JUMPDEST SWAP1 POP CALLER PUSH1 0x1 PUSH1 0x1 PUSH1 0xA0 SHL SUB DUP5 AND EQ PUSH2 0x12F1 JUMPI PUSH2 0x12F1 DUP4 CALLER DUP4 PUSH2 0x29BD JUMP JUMPDEST PUSH2 0x12FC DUP2 DUP6 DUP6 PUSH2 0x2F79 JUMP JUMPDEST PUSH1 0x40 DUP1 MLOAD DUP7 DUP2 MSTORE PUSH1 0x20 DUP2 ADD DUP4 SWAP1 MSTORE PUSH1 0x1 PUSH1 0x1 PUSH1 0xA0 SHL SUB DUP1 DUP7 AND SWAP3 SWAP1 DUP8 AND SWAP2 CALLER SWAP2 PUSH32 0xFBDE797D201C681B91056529119E0B02407C7BB96A4A2C75C01FC9667232C8DB SWAP2 ADD PUSH1 0x40 MLOAD DUP1 SWAP2 SUB SWAP1 LOG4 SWAP5 SWAP4 POP POP POP POP JUMP JUMPDEST PUSH1 0x0 DUP1 PUSH2 0x135A PUSH2 0xD65 JUMP JUMPDEST PUSH1 0x40 MLOAD PUSH4 0x70A08231 PUSH1 0xE0 SHL DUP2 MSTORE PUSH1 0x1 PUSH1 0x1 PUSH1 0xA0 SHL SUB DUP7 DUP2 AND PUSH1 0x4 DUP4 ADD MSTORE SWAP2 SWAP3 POP PUSH1 0x0 SWAP2 DUP4 AND SWAP1 PUSH4 0x70A08231 SWAP1 PUSH1 0x24 ADD PUSH1 0x20 PUSH1 0x40 MLOAD DUP1 DUP4 SUB DUP2 DUP7 GAS STATICCALL ISZERO DUP1 ISZERO PUSH2 0x13A6 JUMPI RETURNDATASIZE PUSH1 0x0 DUP1 RETURNDATACOPY RETURNDATASIZE PUSH1 0x0 REVERT JUMPDEST POP POP POP POP PUSH1 0x40 MLOAD RETURNDATASIZE PUSH1 0x1F NOT PUSH1 0x1F DUP3 ADD AND DUP3 ADD DUP1 PUSH1 0x40 MSTORE POP DUP2 ADD SWAP1 PUSH2 0x13CA SWAP2 SWAP1 PUSH2 0x4E14 JUMP JUMPDEST SWAP1 POP CALLER PUSH1 0x1 PUSH1 0x1 PUSH1 0xA0 SHL SUB DUP6 AND EQ PUSH2 0x13E7 JUMPI PUSH2 0x13E7 DUP5 CALLER DUP9 PUSH2 0x29BD JUMP JUMPDEST PUSH2 0x13F2 DUP7 DUP7 DUP7 PUSH2 0x2F79 JUMP JUMPDEST PUSH1 0x40 MLOAD PUSH4 0x70A08231 PUSH1 0xE0 SHL DUP2 MSTORE PUSH1 0x1 PUSH1 0x1 PUSH1 0xA0 SHL SUB DUP7 DUP2 AND PUSH1 0x4 DUP4 ADD MSTORE PUSH1 0x0 SWAP2 SWAP1 DUP5 AND SWAP1 PUSH4 0x70A08231 SWAP1 PUSH1 0x24 ADD PUSH1 0x20 PUSH1 0x40 MLOAD DUP1 DUP4 SUB DUP2 DUP7 GAS STATICCALL ISZERO DUP1 ISZERO PUSH2 0x143C JUMPI RETURNDATASIZE PUSH1 0x0 DUP1 RETURNDATACOPY RETURNDATASIZE PUSH1 0x0 REVERT JUMPDEST POP POP POP POP PUSH1 0x40 MLOAD RETURNDATASIZE PUSH1 0x1F NOT PUSH1 0x1F DUP3 ADD AND DUP3 ADD DUP1 PUSH1 0x40 MSTORE POP DUP2 ADD SWAP1 PUSH2 0x1460 SWAP2 SWAP1 PUSH2 0x4E14 JUMP JUMPDEST SWAP1 POP PUSH1 0x0 PUSH2 0x146E DUP4 DUP4 PUSH2 0x4E2D JUMP JUMPDEST SWAP1 POP DUP6 PUSH1 0x1 PUSH1 0x1 PUSH1 0xA0 SHL SUB AND DUP8 PUSH1 0x1 PUSH1 0x1 PUSH1 0xA0 SHL SUB AND CALLER PUSH1 0x1 PUSH1 0x1 PUSH1 0xA0 SHL SUB AND PUSH32 0xFBDE797D201C681B91056529119E0B02407C7BB96A4A2C75C01FC9667232C8DB DUP5 DUP13 PUSH1 0x40 MLOAD PUSH2 0x14C8 SWAP3 SWAP2 SWAP1 SWAP2 DUP3 MSTORE PUSH1 0x20 DUP3 ADD MSTORE PUSH1 0x40 ADD SWAP1 JUMP JUMPDEST PUSH1 0x40 MLOAD DUP1 SWAP2 SUB SWAP1 LOG4 SWAP8 SWAP7 POP POP POP POP POP POP POP JUMP JUMPDEST PUSH1 0x0 PUSH2 0x14E5 PUSH2 0x10B0 JUMP JUMPDEST PUSH2 0x14F6 JUMPI PUSH1 0x1 PUSH1 0x1 PUSH1 0x58 SHL SUB PUSH2 0x14F9 JUMP JUMPDEST PUSH1 0x0 JUMPDEST PUSH1 0x1 PUSH1 0x1 PUSH1 0x58 SHL SUB AND SWAP3 SWAP2 POP POP JUMP JUMPDEST PUSH1 0x0 DUP1 PUSH2 0x1514 PUSH1 0x35 SLOAD SWAP1 JUMP JUMPDEST SWAP1 POP DUP1 PUSH1 0x0 SUB PUSH2 0x1550 JUMPI PUSH1 0x0 PUSH2 0x152D PUSH4 0x5F5E100 PUSH2 0x1E98 JUMP JUMPDEST SWAP1 POP DUP1 PUSH2 0x153E PUSH4 0x5F5E100 DUP7 PUSH2 0x4A3A JUMP JUMPDEST PUSH2 0x1548 SWAP2 SWAP1 PUSH2 0x4A6F JUMP JUMPDEST SWAP5 SWAP4 POP POP POP POP JUMP JUMPDEST PUSH2 0x1558 PUSH2 0x6D2 JUMP JUMPDEST PUSH2 0x7C9 DUP3 DUP6 PUSH2 0x4A3A JUMP JUMPDEST PUSH1 0x0 DUP1 PUSH1 0x0 PUSH2 0x1581 PUSH1 0x7 PUSH2 0x1574 PUSH2 0x1893 JUMP JUMPDEST PUSH5 0xFFFFFFFFFF AND TIMESTAMP PUSH2 0x2FBA JUMP JUMPDEST SWAP2 POP SWAP2 POP DUP1 ISZERO PUSH2 0x1594 JUMPI PUSH1 0x0 SWAP3 POP POP POP SWAP1 JUMP JUMPDEST POP SWAP2 SWAP1 POP JUMP JUMPDEST PUSH1 0x1 PUSH1 0x1 PUSH1 0xA0 SHL SUB DUP2 AND PUSH1 0x0 SWAP1 DUP2 MSTORE PUSH1 0x33 PUSH1 0x20 MSTORE PUSH1 0x40 DUP2 KECCAK256 SLOAD PUSH2 0x803 SWAP1 PUSH2 0x7EB JUMP JUMPDEST PUSH1 0x65 SLOAD PUSH1 0x0 SWAP1 PUSH2 0x15DE SWAP1 PUSH1 0x1 PUSH1 0x1 PUSH1 0x40 SHL SUB AND PUSH1 0x30 DUP2 SWAP1 SHR SWAP2 PUSH1 0x8 DUP3 SWAP1 SHR SWAP2 SWAP1 JUMP JUMPDEST POP SWAP1 SWAP3 SWAP2 POP POP JUMP JUMPDEST PUSH32 0x0 PUSH1 0x1 PUSH1 0x1 PUSH1 0xA0 SHL SUB AND PUSH4 0x8DA5CB5B PUSH1 0x40 MLOAD DUP2 PUSH4 0xFFFFFFFF AND PUSH1 0xE0 SHL DUP2 MSTORE PUSH1 0x4 ADD PUSH1 0x20 PUSH1 0x40 MLOAD DUP1 DUP4 SUB DUP2 DUP7 GAS STATICCALL ISZERO DUP1 ISZERO PUSH2 0x1644 JUMPI RETURNDATASIZE PUSH1 0x0 DUP1 RETURNDATACOPY RETURNDATASIZE PUSH1 0x0 REVERT JUMPDEST POP POP POP POP PUSH1 0x40 MLOAD RETURNDATASIZE PUSH1 0x1F NOT PUSH1 0x1F DUP3 ADD AND DUP3 ADD DUP1 PUSH1 0x40 MSTORE POP DUP2 ADD SWAP1 PUSH2 0x1668 SWAP2 SWAP1 PUSH2 0x4E44 JUMP JUMPDEST PUSH1 0x1 PUSH1 0x1 PUSH1 0xA0 SHL SUB AND CALLER PUSH1 0x1 PUSH1 0x1 PUSH1 0xA0 SHL SUB AND EQ PUSH2 0x1685 JUMPI PUSH1 0x0 DUP1 REVERT JUMPDEST PUSH1 0x65 SLOAD PUSH1 0x1 PUSH1 0x1 PUSH1 0x40 SHL SUB AND DUP3 SUB PUSH2 0x169C JUMPI PUSH1 0x0 DUP1 REVERT JUMPDEST PUSH1 0x40 MLOAD PUSH3 0x7EEAC7 PUSH1 0xE1 SHL DUP2 MSTORE ADDRESS PUSH1 0x4 DUP3 ADD MSTORE PUSH1 0x24 DUP2 ADD DUP4 SWAP1 MSTORE PUSH1 0x0 SWAP1 PUSH32 0x0 PUSH1 0x1 PUSH1 0x1 PUSH1 0xA0 SHL SUB AND SWAP1 PUSH3 0xFDD58E SWAP1 PUSH1 0x44 ADD PUSH1 0x20 PUSH1 0x40 MLOAD DUP1 DUP4 SUB DUP2 DUP7 GAS STATICCALL ISZERO DUP1 ISZERO PUSH2 0x1708 JUMPI RETURNDATASIZE PUSH1 0x0 DUP1 RETURNDATACOPY RETURNDATASIZE PUSH1 0x0 REVERT JUMPDEST POP POP POP POP PUSH1 0x40 MLOAD RETURNDATASIZE PUSH1 0x1F NOT PUSH1 0x1F DUP3 ADD AND DUP3 ADD DUP1 PUSH1 0x40 MSTORE POP DUP2 ADD SWAP1 PUSH2 0x172C SWAP2 SWAP1 PUSH2 0x4E14 JUMP JUMPDEST SWAP1 POP PUSH1 0x0 DUP2 GT PUSH2 0x173B JUMPI PUSH1 0x0 DUP1 REVERT JUMPDEST PUSH1 0x40 MLOAD PUSH4 0x79212195 PUSH1 0xE1 SHL DUP2 MSTORE PUSH1 0x1 PUSH1 0x1 PUSH1 0xA0 SHL SUB PUSH32 0x0 AND SWAP1 PUSH4 0xF242432A SWAP1 PUSH2 0x178D SWAP1 ADDRESS SWAP1 DUP7 SWAP1 DUP9 SWAP1 DUP8 SWAP1 PUSH1 0x4 ADD PUSH2 0x4E61 JUMP JUMPDEST PUSH1 0x0 PUSH1 0x40 MLOAD DUP1 DUP4 SUB DUP2 PUSH1 0x0 DUP8 DUP1 EXTCODESIZE ISZERO DUP1 ISZERO PUSH2 0x17A7 JUMPI PUSH1 0x0 DUP1 REVERT JUMPDEST POP GAS CALL ISZERO DUP1 ISZERO PUSH2 0x17BB JUMPI RETURNDATASIZE PUSH1 0x0 DUP1 RETURNDATACOPY RETURNDATASIZE PUSH1 0x0 REVERT JUMPDEST POP POP PUSH1 0x40 MLOAD PUSH4 0xB0DE2217 PUSH1 0xE0 SHL DUP2 MSTORE ADDRESS PUSH1 0x4 DUP3 ADD MSTORE PUSH1 0x0 SWAP3 POP PUSH32 0x0 PUSH1 0x1 PUSH1 0x1 PUSH1 0xA0 SHL SUB AND SWAP2 POP PUSH4 0xB0DE2217 SWAP1 PUSH1 0x24 ADD PUSH1 0xA0 PUSH1 0x40 MLOAD DUP1 DUP4 SUB DUP2 DUP7 GAS STATICCALL ISZERO DUP1 ISZERO PUSH2 0x1826 JUMPI RETURNDATASIZE PUSH1 0x0 DUP1 RETURNDATACOPY RETURNDATASIZE PUSH1 0x0 REVERT JUMPDEST POP POP POP POP PUSH1 0x40 MLOAD RETURNDATASIZE PUSH1 0x1F NOT PUSH1 0x1F DUP3 ADD AND DUP3 ADD DUP1 PUSH1 0x40 MSTORE POP DUP2 ADD SWAP1 PUSH2 0x184A SWAP2 SWAP1 PUSH2 0x4E99 JUMP JUMPDEST PUSH1 0x20 DUP2 ADD MLOAD SWAP1 SWAP2 POP PUSH1 0x1 PUSH1 0x1 PUSH1 0xF8 SHL SUB NOT AND ISZERO PUSH2 0x8F0 JUMPI PUSH1 0x0 DUP1 REVERT JUMPDEST PUSH2 0x1871 CALLER DUP4 DUP4 PUSH2 0x2C17 JUMP JUMPDEST POP POP JUMP JUMPDEST PUSH1 0x1 PUSH1 0x1 PUSH1 0xA0 SHL SUB DUP2 AND PUSH1 0x0 SWAP1 DUP2 MSTORE PUSH1 0x33 PUSH1 0x20 MSTORE PUSH1 0x40 DUP2 KECCAK256 SLOAD PUSH2 0x803 JUMP JUMPDEST PUSH1 0x65 SLOAD PUSH1 0x0 SWAP1 PUSH2 0x18B5 SWAP1 PUSH1 0x1 PUSH1 0x1 PUSH1 0x40 SHL SUB AND PUSH1 0x30 DUP2 SWAP1 SHR SWAP2 PUSH1 0x8 DUP3 SWAP1 SHR SWAP2 SWAP1 JUMP JUMPDEST POP SWAP3 SWAP2 POP POP JUMP JUMPDEST PUSH1 0x0 DUP1 PUSH1 0x0 DUP1 PUSH32 0x0 PUSH1 0x1 PUSH1 0x1 PUSH1 0xA0 SHL SUB AND PUSH4 0x4EBAD18E PUSH2 0x18F9 PUSH2 0x15BC JUMP JUMPDEST PUSH1 0x40 MLOAD PUSH1 0x1 PUSH1 0x1 PUSH1 0xE0 SHL SUB NOT PUSH1 0xE0 DUP5 SWAP1 SHL AND DUP2 MSTORE PUSH2 0xFFFF SWAP1 SWAP2 AND PUSH1 0x4 DUP3 ADD MSTORE PUSH1 0x24 ADD PUSH2 0x140 PUSH1 0x40 MLOAD DUP1 DUP4 SUB DUP2 DUP7 GAS STATICCALL ISZERO DUP1 ISZERO PUSH2 0x1939 JUMPI RETURNDATASIZE PUSH1 0x0 DUP1 RETURNDATACOPY RETURNDATASIZE PUSH1 0x0 REVERT JUMPDEST POP POP POP POP PUSH1 0x40 MLOAD RETURNDATASIZE PUSH1 0x1F NOT PUSH1 0x1F DUP3 ADD AND DUP3 ADD DUP1 PUSH1 0x40 MSTORE POP DUP2 ADD SWAP1 PUSH2 0x195D SWAP2 SWAP1 PUSH2 0x4FDD JUMP JUMPDEST SWAP1 SWAP3 POP SWAP1 POP PUSH1 0x4 DUP3 PUSH1 0x60 ADD MLOAD PUSH1 0x5 DUP2 GT ISZERO PUSH2 0x197A JUMPI PUSH2 0x197A PUSH2 0x49A5 JUMP JUMPDEST SUB PUSH2 0x1991 JUMPI POP DUP1 MLOAD PUSH1 0x40 SWAP1 SWAP2 ADD MLOAD SWAP1 SWAP4 SWAP1 SWAP3 POP SWAP1 POP JUMP JUMPDEST DUP1 MLOAD PUSH1 0x40 SWAP1 SWAP2 ADD MLOAD SWAP1 SWAP5 SWAP1 SWAP4 POP SWAP2 POP POP JUMP JUMPDEST PUSH1 0x0 PUSH2 0x19AD PUSH2 0x10B0 JUMP JUMPDEST ISZERO PUSH2 0x19BA JUMPI POP PUSH1 0x0 SWAP2 SWAP1 POP JUMP JUMPDEST PUSH1 0x0 DUP1 PUSH2 0x19C5 PUSH2 0xE49 JUMP JUMPDEST PUSH1 0x40 MLOAD PUSH4 0x1F0750C1 PUSH1 0xE3 SHL DUP2 MSTORE PUSH2 0xFFFF DUP4 AND PUSH1 0x4 DUP3 ADD MSTORE PUSH1 0x24 DUP2 ADD DUP8 SWAP1 MSTORE PUSH5 0xFFFFFFFFFF DUP3 AND PUSH1 0x44 DUP3 ADD MSTORE PUSH1 0x0 PUSH1 0x64 DUP3 ADD DUP2 SWAP1 MSTORE TIMESTAMP PUSH1 0x84 DUP4 ADD MSTORE PUSH1 0x1 PUSH1 0xA4 DUP4 ADD MSTORE SWAP3 SWAP5 POP SWAP1 SWAP3 POP PUSH1 0x1 PUSH1 0x1 PUSH1 0xA0 SHL SUB PUSH32 0x0 AND SWAP1 PUSH4 0xF83A8608 SWAP1 PUSH1 0xC4 ADD PUSH1 0x60 PUSH1 0x40 MLOAD DUP1 DUP4 SUB DUP2 DUP7 GAS STATICCALL ISZERO DUP1 ISZERO PUSH2 0x1A5D JUMPI RETURNDATASIZE PUSH1 0x0 DUP1 RETURNDATACOPY RETURNDATASIZE PUSH1 0x0 REVERT JUMPDEST POP POP POP POP PUSH1 0x40 MLOAD RETURNDATASIZE PUSH1 0x1F NOT PUSH1 0x1F DUP3 ADD AND DUP3 ADD DUP1 PUSH1 0x40 MSTORE POP DUP2 ADD SWAP1 PUSH2 0x1A81 SWAP2 SWAP1 PUSH2 0x4A94 JUMP JUMPDEST POP POP PUSH1 0x1 PUSH1 0x1 PUSH1 0x58 SHL SUB AND SWAP6 SWAP5 POP POP POP POP POP JUMP JUMPDEST PUSH1 0x0 PUSH1 0x2 PUSH1 0x93 SLOAD SUB PUSH2 0x1AB9 JUMPI PUSH1 0x40 MLOAD PUSH3 0x461BCD PUSH1 0xE5 SHL DUP2 MSTORE PUSH1 0x4 ADD PUSH2 0x974 SWAP1 PUSH2 0x5013 JUMP JUMPDEST PUSH1 0x2 PUSH1 0x93 SSTORE PUSH1 0x0 PUSH2 0x1AD2 PUSH1 0x65 SLOAD PUSH1 0x1 PUSH1 0x1 PUSH1 0x40 SHL SUB AND SWAP1 JUMP JUMPDEST SWAP1 POP CALLER PUSH1 0x1 PUSH1 0x1 PUSH1 0xA0 SHL SUB PUSH32 0x0 AND EQ PUSH2 0x1B1C JUMPI PUSH1 0x40 MLOAD PUSH3 0x461BCD PUSH1 0xE5 SHL DUP2 MSTORE PUSH1 0x4 ADD PUSH2 0x974 SWAP1 PUSH2 0x504A JUMP JUMPDEST DUP1 DUP7 EQ PUSH2 0x1B3B JUMPI PUSH1 0x40 MLOAD PUSH3 0x461BCD PUSH1 0xE5 SHL DUP2 MSTORE PUSH1 0x4 ADD PUSH2 0x974 SWAP1 PUSH2 0x504A JUMP JUMPDEST PUSH1 0x0 DUP6 SGT PUSH2 0x1B5B JUMPI PUSH1 0x40 MLOAD PUSH3 0x461BCD PUSH1 0xE5 SHL DUP2 MSTORE PUSH1 0x4 ADD PUSH2 0x974 SWAP1 PUSH2 0x504A JUMP JUMPDEST PUSH1 0x40 MLOAD PUSH4 0xB0DE2217 PUSH1 0xE0 SHL DUP2 MSTORE ADDRESS PUSH1 0x4 DUP3 ADD MSTORE PUSH1 0x0 SWAP1 PUSH32 0x0 PUSH1 0x1 PUSH1 0x1 PUSH1 0xA0 SHL SUB AND SWAP1 PUSH4 0xB0DE2217 SWAP1 PUSH1 0x24 ADD PUSH1 0xA0 PUSH1 0x40 MLOAD DUP1 DUP4 SUB DUP2 DUP7 GAS STATICCALL ISZERO DUP1 ISZERO PUSH2 0x1BC2 JUMPI RETURNDATASIZE PUSH1 0x0 DUP1 RETURNDATACOPY RETURNDATASIZE PUSH1 0x0 REVERT JUMPDEST POP POP POP POP PUSH1 0x40 MLOAD RETURNDATASIZE PUSH1 0x1F NOT PUSH1 0x1F DUP3 ADD AND DUP3 ADD DUP1 PUSH1 0x40 MSTORE POP DUP2 ADD SWAP1 PUSH2 0x1BE6 SWAP2 SWAP1 PUSH2 0x4E99 JUMP JUMPDEST PUSH1 0x40 MLOAD PUSH4 0x5A9B7FDB PUSH1 0xE1 SHL DUP2 MSTORE ADDRESS PUSH1 0x4 DUP3 ADD MSTORE SWAP1 SWAP2 POP PUSH1 0x0 SWAP1 PUSH1 0x1 PUSH1 0x1 PUSH1 0xA0 SHL SUB PUSH32 0x0 AND SWAP1 PUSH4 0xB536FFB6 SWAP1 PUSH1 0x24 ADD PUSH1 0x0 PUSH1 0x40 MLOAD DUP1 DUP4 SUB DUP2 DUP7 GAS STATICCALL ISZERO DUP1 ISZERO PUSH2 0x1C50 JUMPI RETURNDATASIZE PUSH1 0x0 DUP1 RETURNDATACOPY RETURNDATASIZE PUSH1 0x0 REVERT JUMPDEST POP POP POP POP PUSH1 0x40 MLOAD RETURNDATASIZE PUSH1 0x0 DUP3 RETURNDATACOPY PUSH1 0x1F RETURNDATASIZE SWAP1 DUP2 ADD PUSH1 0x1F NOT AND DUP3 ADD PUSH1 0x40 MSTORE PUSH2 0x1C78 SWAP2 SWAP1 DUP2 ADD SWAP1 PUSH2 0x506B JUMP JUMPDEST PUSH1 0x20 DUP4 ADD MLOAD SWAP1 SWAP2 POP PUSH1 0x1 PUSH1 0x1 PUSH1 0xF8 SHL SUB NOT AND ISZERO PUSH2 0x1C94 JUMPI PUSH1 0x0 DUP1 REVERT JUMPDEST DUP1 MLOAD PUSH1 0x1 EQ PUSH2 0x1CA2 JUMPI PUSH1 0x0 DUP1 REVERT JUMPDEST DUP3 PUSH2 0x1D08 DUP3 PUSH1 0x0 DUP2 MLOAD DUP2 LT PUSH2 0x1CB9 JUMPI PUSH2 0x1CB9 PUSH2 0x5154 JUMP JUMPDEST PUSH1 0x20 MUL PUSH1 0x20 ADD ADD MLOAD PUSH1 0x0 ADD MLOAD DUP4 PUSH1 0x0 DUP2 MLOAD DUP2 LT PUSH2 0x1CD8 JUMPI PUSH2 0x1CD8 PUSH2 0x5154 JUMP JUMPDEST PUSH1 0x20 MUL PUSH1 0x20 ADD ADD MLOAD PUSH1 0x20 ADD MLOAD DUP5 PUSH1 0x0 DUP2 MLOAD DUP2 LT PUSH2 0x1CF7 JUMPI PUSH2 0x1CF7 PUSH2 0x5154 JUMP JUMPDEST PUSH1 0x20 MUL PUSH1 0x20 ADD ADD MLOAD PUSH1 0x40 ADD MLOAD PUSH2 0x26E9 JUMP JUMPDEST EQ PUSH2 0x1D12 JUMPI PUSH1 0x0 DUP1 REVERT JUMPDEST PUSH1 0x60 DUP1 DUP11 PUSH1 0x1 PUSH1 0x1 PUSH1 0xA0 SHL SUB AND DUP13 PUSH1 0x1 PUSH1 0x1 PUSH1 0xA0 SHL SUB AND SUB PUSH2 0x1D6D JUMPI DUP8 DUP8 DUP1 DUP1 PUSH1 0x1F ADD PUSH1 0x20 DUP1 SWAP2 DIV MUL PUSH1 0x20 ADD PUSH1 0x40 MLOAD SWAP1 DUP2 ADD PUSH1 0x40 MSTORE DUP1 SWAP4 SWAP3 SWAP2 SWAP1 DUP2 DUP2 MSTORE PUSH1 0x20 ADD DUP4 DUP4 DUP1 DUP3 DUP5 CALLDATACOPY PUSH1 0x0 SWAP3 ADD SWAP2 SWAP1 SWAP2 MSTORE POP SWAP3 SWAP5 POP PUSH2 0x1DA7 SWAP3 POP POP POP JUMP JUMPDEST DUP8 DUP8 DUP1 DUP1 PUSH1 0x1F ADD PUSH1 0x20 DUP1 SWAP2 DIV MUL PUSH1 0x20 ADD PUSH1 0x40 MLOAD SWAP1 DUP2 ADD PUSH1 0x40 MSTORE DUP1 SWAP4 SWAP3 SWAP2 SWAP1 DUP2 DUP2 MSTORE PUSH1 0x20 ADD DUP4 DUP4 DUP1 DUP3 DUP5 CALLDATACOPY PUSH1 0x0 SWAP3 ADD SWAP2 SWAP1 SWAP2 MSTORE POP SWAP3 SWAP4 POP POP POP POP JUMPDEST PUSH2 0x1DB1 DUP12 DUP11 PUSH2 0x30F8 JUMP JUMPDEST POP POP PUSH1 0x1 PUSH1 0x93 SSTORE POP PUSH4 0xF23A6E61 PUSH1 0xE0 SHL SWAP10 SWAP9 POP POP POP POP POP POP POP POP POP JUMP JUMPDEST PUSH1 0x0 DUP1 PUSH1 0x0 DUP1 PUSH32 0x0 PUSH1 0x1 PUSH1 0x1 PUSH1 0xA0 SHL SUB AND PUSH4 0x4EBAD18E PUSH2 0x1E0B PUSH2 0x15BC JUMP JUMPDEST PUSH1 0x40 MLOAD PUSH1 0x1 PUSH1 0x1 PUSH1 0xE0 SHL SUB NOT PUSH1 0xE0 DUP5 SWAP1 SHL AND DUP2 MSTORE PUSH2 0xFFFF SWAP1 SWAP2 AND PUSH1 0x4 DUP3 ADD MSTORE PUSH1 0x24 ADD PUSH2 0x140 PUSH1 0x40 MLOAD DUP1 DUP4 SUB DUP2 DUP7 GAS STATICCALL ISZERO DUP1 ISZERO PUSH2 0x1E4B JUMPI RETURNDATASIZE PUSH1 0x0 DUP1 RETURNDATACOPY RETURNDATASIZE PUSH1 0x0 REVERT JUMPDEST POP POP POP POP PUSH1 0x40 MLOAD RETURNDATASIZE PUSH1 0x1F NOT PUSH1 0x1F DUP3 ADD AND DUP3 ADD DUP1 PUSH1 0x40 MSTORE POP DUP2 ADD SWAP1 PUSH2 0x1E6F SWAP2 SWAP1 PUSH2 0x4FDD JUMP JUMPDEST POP DUP1 MLOAD PUSH1 0x40 DUP3 ADD MLOAD PUSH1 0x60 SWAP1 SWAP3 ADD MLOAD SWAP1 SWAP7 SWAP2 SWAP6 POP SWAP4 POP SWAP2 POP POP JUMP JUMPDEST PUSH1 0x1 PUSH1 0x1 PUSH1 0xA0 SHL SUB AND EXTCODESIZE ISZERO ISZERO SWAP1 JUMP JUMPDEST PUSH1 0x0 DUP1 PUSH2 0x1EA3 PUSH2 0x18BC JUMP JUMPDEST SWAP2 POP POP PUSH1 0x0 DUP1 PUSH2 0x1EB1 PUSH2 0xE49 JUMP JUMPDEST PUSH1 0x40 MLOAD PUSH4 0xC52C43E1 PUSH1 0xE0 SHL DUP2 MSTORE PUSH2 0xFFFF DUP4 AND PUSH1 0x4 DUP3 ADD MSTORE PUSH5 0xFFFFFFFFFF DUP3 AND PUSH1 0x24 DUP3 ADD MSTORE PUSH1 0x44 DUP2 ADD DUP9 SWAP1 MSTORE TIMESTAMP PUSH1 0x64 DUP3 ADD MSTORE PUSH1 0x0 PUSH1 0x84 DUP3 ADD DUP2 SWAP1 MSTORE SWAP3 SWAP5 POP SWAP1 SWAP3 POP PUSH1 0x1 PUSH1 0x1 PUSH1 0xA0 SHL SUB PUSH32 0x0 AND SWAP1 PUSH4 0xC52C43E1 SWAP1 PUSH1 0xA4 ADD PUSH1 0x20 PUSH1 0x40 MLOAD DUP1 DUP4 SUB DUP2 DUP7 GAS STATICCALL ISZERO DUP1 ISZERO PUSH2 0x1F42 JUMPI RETURNDATASIZE PUSH1 0x0 DUP1 RETURNDATACOPY RETURNDATASIZE PUSH1 0x0 REVERT JUMPDEST POP POP POP POP PUSH1 0x40 MLOAD RETURNDATASIZE PUSH1 0x1F NOT PUSH1 0x1F DUP3 ADD AND DUP3 ADD DUP1 PUSH1 0x40 MSTORE POP DUP2 ADD SWAP1 PUSH2 0x1F66 SWAP2 SWAP1 PUSH2 0x4E14 JUMP JUMPDEST SWAP1 POP PUSH1 0x0 PUSH4 0x5F5E100 PUSH2 0x1F79 DUP7 DUP5 PUSH2 0x516A JUMP JUMPDEST PUSH2 0x1F83 SWAP2 SWAP1 PUSH2 0x51EF JUMP JUMPDEST SWAP1 POP PUSH1 0x0 DUP2 SLT ISZERO PUSH2 0x1F93 JUMPI PUSH1 0x0 DUP1 REVERT JUMPDEST SWAP7 SWAP6 POP POP POP POP POP POP JUMP JUMPDEST PUSH1 0x0 DUP1 PUSH2 0x1FA8 PUSH2 0x15BC JUMP JUMPDEST PUSH1 0x40 MLOAD PUSH4 0xFC1B1345 PUSH1 0xE0 SHL DUP2 MSTORE PUSH2 0xFFFF DUP3 AND PUSH1 0x4 DUP3 ADD MSTORE ADDRESS PUSH1 0x24 DUP3 ADD MSTORE SWAP1 SWAP2 POP PUSH1 0x0 SWAP1 PUSH1 0x1 PUSH1 0x1 PUSH1 0xA0 SHL SUB PUSH32 0x0 AND SWAP1 PUSH4 0xFC1B1345 SWAP1 PUSH1 0x44 ADD PUSH1 0x60 PUSH1 0x40 MLOAD DUP1 DUP4 SUB DUP2 DUP7 GAS STATICCALL ISZERO DUP1 ISZERO PUSH2 0x201C JUMPI RETURNDATASIZE PUSH1 0x0 DUP1 RETURNDATACOPY RETURNDATASIZE PUSH1 0x0 REVERT JUMPDEST POP POP POP POP PUSH1 0x40 MLOAD RETURNDATASIZE PUSH1 0x1F NOT PUSH1 0x1F DUP3 ADD AND DUP3 ADD DUP1 PUSH1 0x40 MSTORE POP DUP2 ADD SWAP1 PUSH2 0x2040 SWAP2 SWAP1 PUSH2 0x521D JUMP JUMPDEST POP POP PUSH1 0x40 MLOAD PUSH4 0x1BAEFC5D PUSH1 0xE2 SHL DUP2 MSTORE PUSH2 0xFFFF DUP5 AND PUSH1 0x4 DUP3 ADD MSTORE PUSH1 0x24 DUP2 ADD DUP3 SWAP1 MSTORE PUSH1 0x1 PUSH1 0x44 DUP3 ADD MSTORE SWAP1 SWAP2 POP PUSH1 0x0 SWAP1 PUSH1 0x1 PUSH1 0x1 PUSH1 0xA0 SHL SUB PUSH32 0x0 AND SWAP1 PUSH4 0x6EBBF174 SWAP1 PUSH1 0x64 ADD PUSH1 0x20 PUSH1 0x40 MLOAD DUP1 DUP4 SUB DUP2 DUP7 GAS STATICCALL ISZERO DUP1 ISZERO PUSH2 0x20BE JUMPI RETURNDATASIZE PUSH1 0x0 DUP1 RETURNDATACOPY RETURNDATASIZE PUSH1 0x0 REVERT JUMPDEST POP POP POP POP PUSH1 0x40 MLOAD RETURNDATASIZE PUSH1 0x1F NOT PUSH1 0x1F DUP3 ADD AND DUP3 ADD DUP1 PUSH1 0x40 MSTORE POP DUP2 ADD SWAP1 PUSH2 0x20E2 SWAP2 SWAP1 PUSH2 0x4E14 JUMP JUMPDEST SWAP1 POP PUSH1 0x0 DUP2 SGT PUSH2 0x7AF JUMPI PUSH1 0x40 MLOAD PUSH3 0x461BCD PUSH1 0xE5 SHL DUP2 MSTORE PUSH1 0x20 PUSH1 0x4 DUP3 ADD MSTORE PUSH1 0xB PUSH1 0x24 DUP3 ADD MSTORE PUSH11 0x4D75737420536574746C65 PUSH1 0xA8 SHL PUSH1 0x44 DUP3 ADD MSTORE PUSH1 0x64 ADD PUSH2 0x974 JUMP JUMPDEST PUSH1 0x1 PUSH1 0x1 PUSH1 0xA0 SHL SUB DUP4 AND PUSH2 0x2184 JUMPI PUSH1 0x40 MLOAD PUSH3 0x461BCD PUSH1 0xE5 SHL DUP2 MSTORE PUSH1 0x20 PUSH1 0x4 DUP3 ADD MSTORE PUSH1 0x24 DUP1 DUP3 ADD MSTORE PUSH32 0x45524332303A20617070726F76652066726F6D20746865207A65726F20616464 PUSH1 0x44 DUP3 ADD MSTORE PUSH4 0x72657373 PUSH1 0xE0 SHL PUSH1 0x64 DUP3 ADD MSTORE PUSH1 0x84 ADD PUSH2 0x974 JUMP JUMPDEST PUSH1 0x1 PUSH1 0x1 PUSH1 0xA0 SHL SUB DUP3 AND PUSH2 0x21E5 JUMPI PUSH1 0x40 MLOAD PUSH3 0x461BCD PUSH1 0xE5 SHL DUP2 MSTORE PUSH1 0x20 PUSH1 0x4 DUP3 ADD MSTORE PUSH1 0x22 PUSH1 0x24 DUP3 ADD MSTORE PUSH32 0x45524332303A20617070726F766520746F20746865207A65726F206164647265 PUSH1 0x44 DUP3 ADD MSTORE PUSH2 0x7373 PUSH1 0xF0 SHL PUSH1 0x64 DUP3 ADD MSTORE PUSH1 0x84 ADD PUSH2 0x974 JUMP JUMPDEST PUSH1 0x1 PUSH1 0x1 PUSH1 0xA0 SHL SUB DUP4 DUP2 AND PUSH1 0x0 DUP2 DUP2 MSTORE PUSH1 0x34 PUSH1 0x20 SWAP1 DUP2 MSTORE PUSH1 0x40 DUP1 DUP4 KECCAK256 SWAP5 DUP8 AND DUP1 DUP5 MSTORE SWAP5 DUP3 MSTORE SWAP2 DUP3 SWAP1 KECCAK256 DUP6 SWAP1 SSTORE SWAP1 MLOAD DUP5 DUP2 MSTORE PUSH32 0x8C5BE1E5EBEC7D5BD14F71427D1E84F3DD0314C0F7B2291E5B200AC8C7C3B925 SWAP2 ADD PUSH1 0x40 MLOAD DUP1 SWAP2 SUB SWAP1 LOG3 POP POP POP JUMP JUMPDEST PUSH1 0x2 PUSH1 0x93 SLOAD SUB PUSH2 0x2268 JUMPI PUSH1 0x40 MLOAD PUSH3 0x461BCD PUSH1 0xE5 SHL DUP2 MSTORE PUSH1 0x4 ADD PUSH2 0x974 SWAP1 PUSH2 0x5013 JUMP JUMPDEST PUSH1 0x2 PUSH1 0x93 SSTORE PUSH2 0x2275 PUSH2 0x10B0 JUMP JUMPDEST ISZERO PUSH2 0x22B2 JUMPI PUSH1 0x40 MLOAD PUSH3 0x461BCD PUSH1 0xE5 SHL DUP2 MSTORE PUSH1 0x20 PUSH1 0x4 DUP3 ADD MSTORE PUSH1 0xD PUSH1 0x24 DUP3 ADD MSTORE PUSH13 0x1990D85CDA081B585D1D5C9959 PUSH1 0x9A SHL PUSH1 0x44 DUP3 ADD MSTORE PUSH1 0x64 ADD PUSH2 0x974 JUMP JUMPDEST PUSH1 0x0 DUP1 PUSH1 0x0 DUP1 PUSH2 0x22C1 DUP6 PUSH2 0x31D7 JUMP JUMPDEST SWAP4 POP SWAP4 POP SWAP4 POP SWAP4 POP DUP1 ISZERO PUSH2 0x22D4 JUMPI PUSH1 0x0 SWAP5 POP JUMPDEST PUSH1 0x0 DUP4 PUSH2 0x2348 JUMPI PUSH1 0x40 MLOAD PUSH4 0x70A08231 PUSH1 0xE0 SHL DUP2 MSTORE ADDRESS PUSH1 0x4 DUP3 ADD MSTORE PUSH1 0x1 PUSH1 0x1 PUSH1 0xA0 SHL SUB DUP7 AND SWAP1 PUSH4 0x70A08231 SWAP1 PUSH1 0x24 ADD PUSH1 0x20 PUSH1 0x40 MLOAD DUP1 DUP4 SUB DUP2 DUP7 GAS STATICCALL ISZERO DUP1 ISZERO PUSH2 0x231F JUMPI RETURNDATASIZE PUSH1 0x0 DUP1 RETURNDATACOPY RETURNDATASIZE PUSH1 0x0 REVERT JUMPDEST POP POP POP POP PUSH1 0x40 MLOAD RETURNDATASIZE PUSH1 0x1F NOT PUSH1 0x1F DUP3 ADD AND DUP3 ADD DUP1 PUSH1 0x40 MSTORE POP DUP2 ADD SWAP1 PUSH2 0x2343 SWAP2 SWAP1 PUSH2 0x4E14 JUMP JUMPDEST PUSH2 0x234A JUMP JUMPDEST SELFBALANCE JUMPDEST SWAP1 POP PUSH1 0x0 DUP5 DUP1 PUSH2 0x2357 JUMPI POP DUP4 JUMPDEST ISZERO PUSH2 0x25B0 JUMPI DUP5 ISZERO PUSH2 0x247C JUMPI PUSH1 0x40 MLOAD PUSH4 0x23B872DD PUSH1 0xE0 SHL DUP2 MSTORE CALLER PUSH1 0x4 DUP3 ADD MSTORE ADDRESS PUSH1 0x24 DUP3 ADD MSTORE PUSH1 0x44 DUP2 ADD DUP13 SWAP1 MSTORE PUSH1 0x1 PUSH1 0x1 PUSH1 0xA0 SHL SUB PUSH32 0x0 AND SWAP1 PUSH4 0x23B872DD SWAP1 PUSH1 0x64 ADD PUSH1 0x20 PUSH1 0x40 MLOAD DUP1 DUP4 SUB DUP2 PUSH1 0x0 DUP8 GAS CALL ISZERO DUP1 ISZERO PUSH2 0x23D5 JUMPI RETURNDATASIZE PUSH1 0x0 DUP1 RETURNDATACOPY RETURNDATASIZE PUSH1 0x0 REVERT JUMPDEST POP POP POP POP PUSH1 0x40 MLOAD RETURNDATASIZE PUSH1 0x1F NOT PUSH1 0x1F DUP3 ADD AND DUP3 ADD DUP1 PUSH1 0x40 MSTORE POP DUP2 ADD SWAP1 PUSH2 0x23F9 SWAP2 SWAP1 PUSH2 0x524B JUMP JUMPDEST POP PUSH1 0x40 MLOAD PUSH4 0x2E1A7D4D PUSH1 0xE0 SHL DUP2 MSTORE PUSH1 0x4 DUP2 ADD DUP13 SWAP1 MSTORE PUSH32 0x0 PUSH1 0x1 PUSH1 0x1 PUSH1 0xA0 SHL SUB AND SWAP1 PUSH4 0x2E1A7D4D SWAP1 PUSH1 0x24 ADD PUSH1 0x0 PUSH1 0x40 MLOAD DUP1 DUP4 SUB DUP2 PUSH1 0x0 DUP8 DUP1 EXTCODESIZE ISZERO DUP1 ISZERO PUSH2 0x245C JUMPI PUSH1 0x0 DUP1 REVERT JUMPDEST POP GAS CALL ISZERO DUP1 ISZERO PUSH2 0x2470 JUMPI RETURNDATASIZE PUSH1 0x0 DUP1 RETURNDATACOPY RETURNDATASIZE PUSH1 0x0 REVERT JUMPDEST POP POP POP POP DUP11 SWAP1 POP PUSH2 0x2508 JUMP JUMPDEST PUSH2 0x2491 PUSH1 0x1 PUSH1 0x1 PUSH1 0xA0 SHL SUB DUP8 AND CALLER ADDRESS DUP15 PUSH2 0x32E5 JUMP JUMPDEST PUSH1 0x40 MLOAD PUSH4 0x70A08231 PUSH1 0xE0 SHL DUP2 MSTORE ADDRESS PUSH1 0x4 DUP3 ADD MSTORE DUP3 SWAP1 PUSH1 0x1 PUSH1 0x1 PUSH1 0xA0 SHL SUB DUP9 AND SWAP1 PUSH4 0x70A08231 SWAP1 PUSH1 0x24 ADD PUSH1 0x20 PUSH1 0x40 MLOAD DUP1 DUP4 SUB DUP2 DUP7 GAS STATICCALL ISZERO DUP1 ISZERO PUSH2 0x24D7 JUMPI RETURNDATASIZE PUSH1 0x0 DUP1 RETURNDATACOPY RETURNDATASIZE PUSH1 0x0 REVERT JUMPDEST POP POP POP POP PUSH1 0x40 MLOAD RETURNDATASIZE PUSH1 0x1F NOT PUSH1 0x1F DUP3 ADD AND DUP3 ADD DUP1 PUSH1 0x40 MSTORE POP DUP2 ADD SWAP1 PUSH2 0x24FB SWAP2 SWAP1 PUSH2 0x4E14 JUMP JUMPDEST PUSH2 0x2505 SWAP2 SWAP1 PUSH2 0x4E2D JUMP JUMPDEST SWAP11 POP JUMPDEST PUSH1 0x0 PUSH2 0x2527 PUSH2 0x2515 PUSH2 0x15BC JUMP JUMPDEST PUSH2 0x251D PUSH2 0x1562 JUMP JUMPDEST DUP15 DUP15 DUP14 DUP14 DUP11 PUSH2 0x331D JUMP JUMPDEST SWAP1 POP PUSH32 0x0 PUSH1 0x1 PUSH1 0x1 PUSH1 0xA0 SHL SUB AND PUSH4 0x276B64B DUP4 ADDRESS DUP5 PUSH1 0x40 MLOAD DUP5 PUSH4 0xFFFFFFFF AND PUSH1 0xE0 SHL DUP2 MSTORE PUSH1 0x4 ADD PUSH2 0x2578 SWAP3 SWAP2 SWAP1 PUSH2 0x52A3 JUMP JUMPDEST PUSH1 0x0 PUSH1 0x40 MLOAD DUP1 DUP4 SUB DUP2 DUP6 DUP9 DUP1 EXTCODESIZE ISZERO DUP1 ISZERO PUSH2 0x2591 JUMPI PUSH1 0x0 DUP1 REVERT JUMPDEST POP GAS CALL ISZERO DUP1 ISZERO PUSH2 0x25A5 JUMPI RETURNDATASIZE PUSH1 0x0 DUP1 RETURNDATACOPY RETURNDATASIZE PUSH1 0x0 REVERT JUMPDEST POP POP POP POP POP POP PUSH2 0x2667 JUMP JUMPDEST PUSH2 0x25C5 PUSH1 0x1 PUSH1 0x1 PUSH1 0xA0 SHL SUB DUP8 AND CALLER ADDRESS DUP15 PUSH2 0x32E5 JUMP JUMPDEST PUSH1 0x0 PUSH2 0x25E2 PUSH2 0x25D2 PUSH2 0x15BC JUMP JUMPDEST PUSH2 0x25DA PUSH2 0x1562 JUMP JUMPDEST DUP14 DUP13 DUP13 PUSH2 0x350F JUMP JUMPDEST PUSH1 0x40 MLOAD PUSH4 0x541F527 PUSH1 0xE4 SHL DUP2 MSTORE SWAP1 SWAP2 POP PUSH1 0x1 PUSH1 0x1 PUSH1 0xA0 SHL SUB PUSH32 0x0 AND SWAP1 PUSH4 0x541F5270 SWAP1 PUSH2 0x2633 SWAP1 ADDRESS SWAP1 DUP6 SWAP1 PUSH1 0x4 ADD PUSH2 0x5373 JUMP JUMPDEST PUSH1 0x0 PUSH1 0x40 MLOAD DUP1 DUP4 SUB DUP2 PUSH1 0x0 DUP8 DUP1 EXTCODESIZE ISZERO DUP1 ISZERO PUSH2 0x264D JUMPI PUSH1 0x0 DUP1 REVERT JUMPDEST POP GAS CALL ISZERO DUP1 ISZERO PUSH2 0x2661 JUMPI RETURNDATASIZE PUSH1 0x0 DUP1 RETURNDATACOPY RETURNDATASIZE PUSH1 0x0 REVERT JUMPDEST POP POP POP POP POP JUMPDEST PUSH2 0x267A DUP10 DUP12 PUSH1 0x1 PUSH1 0x1 PUSH1 0x58 SHL SUB AND PUSH2 0x30F8 JUMP JUMPDEST PUSH2 0x2686 DUP7 CALLER DUP8 DUP6 PUSH2 0x3660 JUMP JUMPDEST POP POP PUSH1 0x1 PUSH1 0x93 SSTORE POP POP POP POP POP POP POP POP POP POP JUMP JUMPDEST PUSH1 0x0 DUP1 PUSH2 0x26A5 DUP4 PUSH2 0x381C JUMP JUMPDEST SWAP1 POP PUSH1 0x0 PUSH2 0x26B2 DUP7 PUSH2 0x3886 JUMP JUMPDEST PUSH2 0x26BC SWAP1 DUP4 PUSH2 0x4DBF JUMP JUMPDEST SWAP1 POP DUP1 DUP6 GT ISZERO PUSH2 0x26D1 JUMPI PUSH1 0x0 SWAP3 POP POP POP PUSH2 0x7AF JUMP JUMPDEST PUSH1 0x0 PUSH2 0x26DD DUP6 DUP8 PUSH2 0x3A57 JUMP JUMPDEST SWAP9 SWAP8 POP POP POP POP POP POP POP POP JUMP JUMPDEST PUSH1 0x0 PUSH2 0x3FFF DUP5 GT ISZERO PUSH2 0x26FA JUMPI PUSH1 0x0 DUP1 REVERT JUMPDEST PUSH5 0xFFFFFFFFFF DUP4 GT ISZERO PUSH2 0x270C JUMPI PUSH1 0x0 DUP1 REVERT JUMPDEST PUSH1 0x8 DUP3 GT ISZERO PUSH2 0x271A JUMPI PUSH1 0x0 DUP1 REVERT JUMPDEST POP PUSH8 0xFFFF000000000000 PUSH1 0x30 DUP5 SWAP1 SHL AND PUSH6 0xFFFFFFFFFF00 PUSH1 0x8 DUP5 SWAP1 SHL AND OR PUSH1 0xFF DUP3 AND OR SWAP4 SWAP3 POP POP POP JUMP JUMPDEST PUSH1 0x60 DUP2 PUSH1 0x0 SUB PUSH2 0x276B JUMPI POP POP PUSH1 0x40 DUP1 MLOAD DUP1 DUP3 ADD SWAP1 SWAP2 MSTORE PUSH1 0x1 DUP2 MSTORE PUSH1 0x3 PUSH1 0xFC SHL PUSH1 0x20 DUP3 ADD MSTORE SWAP1 JUMP JUMPDEST DUP2 PUSH1 0x0 JUMPDEST DUP2 ISZERO PUSH2 0x2795 JUMPI DUP1 PUSH2 0x277F DUP2 PUSH2 0x53F7 JUMP JUMPDEST SWAP2 POP PUSH2 0x278E SWAP1 POP PUSH1 0xA DUP4 PUSH2 0x4A6F JUMP JUMPDEST SWAP2 POP PUSH2 0x276F JUMP JUMPDEST PUSH1 0x0 DUP2 PUSH1 0x1 PUSH1 0x1 PUSH1 0x40 SHL SUB DUP2 GT ISZERO PUSH2 0x27AF JUMPI PUSH2 0x27AF PUSH2 0x479B JUMP JUMPDEST PUSH1 0x40 MLOAD SWAP1 DUP1 DUP3 MSTORE DUP1 PUSH1 0x1F ADD PUSH1 0x1F NOT AND PUSH1 0x20 ADD DUP3 ADD PUSH1 0x40 MSTORE DUP1 ISZERO PUSH2 0x27D9 JUMPI PUSH1 0x20 DUP3 ADD DUP2 DUP1 CALLDATASIZE DUP4 CALLDATACOPY ADD SWAP1 POP JUMPDEST POP SWAP1 POP JUMPDEST DUP5 ISZERO PUSH2 0x1548 JUMPI PUSH2 0x27EE PUSH1 0x1 DUP4 PUSH2 0x4E2D JUMP JUMPDEST SWAP2 POP PUSH2 0x27FB PUSH1 0xA DUP7 PUSH2 0x5410 JUMP JUMPDEST PUSH2 0x2806 SWAP1 PUSH1 0x30 PUSH2 0x4DBF JUMP JUMPDEST PUSH1 0xF8 SHL DUP2 DUP4 DUP2 MLOAD DUP2 LT PUSH2 0x281B JUMPI PUSH2 0x281B PUSH2 0x5154 JUMP JUMPDEST PUSH1 0x20 ADD ADD SWAP1 PUSH1 0x1 PUSH1 0x1 PUSH1 0xF8 SHL SUB NOT AND SWAP1 DUP2 PUSH1 0x0 BYTE SWAP1 MSTORE8 POP PUSH2 0x283D PUSH1 0xA DUP7 PUSH2 0x4A6F JUMP JUMPDEST SWAP5 POP PUSH2 0x27DD JUMP JUMPDEST PUSH1 0x0 SLOAD PUSH2 0x100 SWAP1 DIV PUSH1 0xFF AND PUSH2 0x286B JUMPI PUSH1 0x40 MLOAD PUSH3 0x461BCD PUSH1 0xE5 SHL DUP2 MSTORE PUSH1 0x4 ADD PUSH2 0x974 SWAP1 PUSH2 0x5424 JUMP JUMPDEST PUSH2 0x1871 DUP3 DUP3 PUSH2 0x3C42 JUMP JUMPDEST DUP1 ISZERO DUP1 PUSH2 0x28EF JUMPI POP PUSH1 0x40 MLOAD PUSH4 0x6EB1769F PUSH1 0xE1 SHL DUP2 MSTORE ADDRESS PUSH1 0x4 DUP3 ADD MSTORE PUSH1 0x1 PUSH1 0x1 PUSH1 0xA0 SHL SUB DUP4 DUP2 AND PUSH1 0x24 DUP4 ADD MSTORE DUP5 AND SWAP1 PUSH4 0xDD62ED3E SWAP1 PUSH1 0x44 ADD PUSH1 0x20 PUSH1 0x40 MLOAD DUP1 DUP4 SUB DUP2 DUP7 GAS STATICCALL ISZERO DUP1 ISZERO PUSH2 0x28C9 JUMPI RETURNDATASIZE PUSH1 0x0 DUP1 RETURNDATACOPY RETURNDATASIZE PUSH1 0x0 REVERT JUMPDEST POP POP POP POP PUSH1 0x40 MLOAD RETURNDATASIZE PUSH1 0x1F NOT PUSH1 0x1F DUP3 ADD AND DUP3 ADD DUP1 PUSH1 0x40 MSTORE POP DUP2 ADD SWAP1 PUSH2 0x28ED SWAP2 SWAP1 PUSH2 0x4E14 JUMP JUMPDEST ISZERO JUMPDEST PUSH2 0x295A JUMPI PUSH1 0x40 MLOAD PUSH3 0x461BCD PUSH1 0xE5 SHL DUP2 MSTORE PUSH1 0x20 PUSH1 0x4 DUP3 ADD MSTORE PUSH1 0x36 PUSH1 0x24 DUP3 ADD MSTORE PUSH32 0x5361666545524332303A20617070726F76652066726F6D206E6F6E2D7A65726F PUSH1 0x44 DUP3 ADD MSTORE PUSH22 0x20746F206E6F6E2D7A65726F20616C6C6F77616E6365 PUSH1 0x50 SHL PUSH1 0x64 DUP3 ADD MSTORE PUSH1 0x84 ADD PUSH2 0x974 JUMP JUMPDEST PUSH1 0x40 MLOAD PUSH1 0x1 PUSH1 0x1 PUSH1 0xA0 SHL SUB DUP4 AND PUSH1 0x24 DUP3 ADD MSTORE PUSH1 0x44 DUP2 ADD DUP3 SWAP1 MSTORE PUSH2 0xD2E SWAP1 DUP5 SWAP1 PUSH4 0x95EA7B3 PUSH1 0xE0 SHL SWAP1 PUSH1 0x64 ADD JUMPDEST PUSH1 0x40 DUP1 MLOAD PUSH1 0x1F NOT DUP2 DUP5 SUB ADD DUP2 MSTORE SWAP2 SWAP1 MSTORE PUSH1 0x20 DUP2 ADD DUP1 MLOAD PUSH1 0x1 PUSH1 0x1 PUSH1 0xE0 SHL SUB AND PUSH1 0x1 PUSH1 0x1 PUSH1 0xE0 SHL SUB NOT SWAP1 SWAP4 AND SWAP3 SWAP1 SWAP3 OR SWAP1 SWAP2 MSTORE PUSH2 0x3C82 JUMP JUMPDEST PUSH1 0x1 PUSH1 0x1 PUSH1 0xA0 SHL SUB DUP4 DUP2 AND PUSH1 0x0 SWAP1 DUP2 MSTORE PUSH1 0x34 PUSH1 0x20 SWAP1 DUP2 MSTORE PUSH1 0x40 DUP1 DUP4 KECCAK256 SWAP4 DUP7 AND DUP4 MSTORE SWAP3 SWAP1 MSTORE KECCAK256 SLOAD PUSH1 0x0 NOT DUP2 EQ PUSH2 0x8F0 JUMPI DUP2 DUP2 LT ISZERO PUSH2 0x2A3C JUMPI PUSH1 0x40 MLOAD PUSH3 0x461BCD PUSH1 0xE5 SHL DUP2 MSTORE PUSH1 0x20 PUSH1 0x4 DUP3 ADD MSTORE PUSH1 0x1D PUSH1 0x24 DUP3 ADD MSTORE PUSH32 0x45524332303A20696E73756666696369656E7420616C6C6F77616E6365000000 PUSH1 0x44 DUP3 ADD MSTORE PUSH1 0x64 ADD PUSH2 0x974 JUMP JUMPDEST PUSH2 0x8F0 DUP5 DUP5 DUP5 DUP5 SUB PUSH2 0x2122 JUMP JUMPDEST PUSH1 0x1 PUSH1 0x1 PUSH1 0xA0 SHL SUB DUP4 AND PUSH2 0x2AAD JUMPI PUSH1 0x40 MLOAD PUSH3 0x461BCD PUSH1 0xE5 SHL DUP2 MSTORE PUSH1 0x20 PUSH1 0x4 DUP3 ADD MSTORE PUSH1 0x25 PUSH1 0x24 DUP3 ADD MSTORE PUSH32 0x45524332303A207472616E736665722066726F6D20746865207A65726F206164 PUSH1 0x44 DUP3 ADD MSTORE PUSH5 0x6472657373 PUSH1 0xD8 SHL PUSH1 0x64 DUP3 ADD MSTORE PUSH1 0x84 ADD PUSH2 0x974 JUMP JUMPDEST PUSH1 0x1 PUSH1 0x1 PUSH1 0xA0 SHL SUB DUP3 AND PUSH2 0x2B0F JUMPI PUSH1 0x40 MLOAD PUSH3 0x461BCD PUSH1 0xE5 SHL DUP2 MSTORE PUSH1 0x20 PUSH1 0x4 DUP3 ADD MSTORE PUSH1 0x23 PUSH1 0x24 DUP3 ADD MSTORE PUSH32 0x45524332303A207472616E7366657220746F20746865207A65726F2061646472 PUSH1 0x44 DUP3 ADD MSTORE PUSH3 0x657373 PUSH1 0xE8 SHL PUSH1 0x64 DUP3 ADD MSTORE PUSH1 0x84 ADD PUSH2 0x974 JUMP JUMPDEST PUSH1 0x1 PUSH1 0x1 PUSH1 0xA0 SHL SUB DUP4 AND PUSH1 0x0 SWAP1 DUP2 MSTORE PUSH1 0x33 PUSH1 0x20 MSTORE PUSH1 0x40 SWAP1 KECCAK256 SLOAD DUP2 DUP2 LT ISZERO PUSH2 0x2B87 JUMPI PUSH1 0x40 MLOAD PUSH3 0x461BCD PUSH1 0xE5 SHL DUP2 MSTORE PUSH1 0x20 PUSH1 0x4 DUP3 ADD MSTORE PUSH1 0x26 PUSH1 0x24 DUP3 ADD MSTORE PUSH32 0x45524332303A207472616E7366657220616D6F756E7420657863656564732062 PUSH1 0x44 DUP3 ADD MSTORE PUSH6 0x616C616E6365 PUSH1 0xD0 SHL PUSH1 0x64 DUP3 ADD MSTORE PUSH1 0x84 ADD PUSH2 0x974 JUMP JUMPDEST PUSH1 0x1 PUSH1 0x1 PUSH1 0xA0 SHL SUB DUP1 DUP6 AND PUSH1 0x0 SWAP1 DUP2 MSTORE PUSH1 0x33 PUSH1 0x20 MSTORE PUSH1 0x40 DUP1 DUP3 KECCAK256 DUP6 DUP6 SUB SWAP1 SSTORE SWAP2 DUP6 AND DUP2 MSTORE SWAP1 DUP2 KECCAK256 DUP1 SLOAD DUP5 SWAP3 SWAP1 PUSH2 0x2BBE SWAP1 DUP5 SWAP1 PUSH2 0x4DBF JUMP JUMPDEST SWAP3 POP POP DUP2 SWAP1 SSTORE POP DUP3 PUSH1 0x1 PUSH1 0x1 PUSH1 0xA0 SHL SUB AND DUP5 PUSH1 0x1 PUSH1 0x1 PUSH1 0xA0 SHL SUB AND PUSH32 0xDDF252AD1BE2C89B69C2B068FC378DAA952BA7F163C4A11628F55A4DF523B3EF DUP5 PUSH1 0x40 MLOAD PUSH2 0x2C0A SWAP2 DUP2 MSTORE PUSH1 0x20 ADD SWAP1 JUMP JUMPDEST PUSH1 0x40 MLOAD DUP1 SWAP2 SUB SWAP1 LOG3 PUSH2 0x8F0 JUMP JUMPDEST PUSH1 0x2 PUSH1 0x93 SLOAD SUB PUSH2 0x2C39 JUMPI PUSH1 0x40 MLOAD PUSH3 0x461BCD PUSH1 0xE5 SHL DUP2 MSTORE PUSH1 0x4 ADD PUSH2 0x974 SWAP1 PUSH2 0x5013 JUMP JUMPDEST PUSH1 0x2 PUSH1 0x93 SSTORE PUSH1 0x0 PUSH2 0x2C49 PUSH1 0x35 SLOAD SWAP1 JUMP JUMPDEST PUSH1 0x40 DUP4 ADD MLOAD SWAP1 SWAP2 POP PUSH1 0x1 PUSH1 0x1 PUSH1 0xA0 SHL SUB AND PUSH2 0x2CA6 JUMPI PUSH1 0x40 MLOAD PUSH3 0x461BCD PUSH1 0xE5 SHL DUP2 MSTORE PUSH1 0x20 PUSH1 0x4 DUP3 ADD MSTORE PUSH1 0x18 PUSH1 0x24 DUP3 ADD MSTORE PUSH32 0x5265636569766572206973207A65726F20616464726573730000000000000000 PUSH1 0x44 DUP3 ADD MSTORE PUSH1 0x64 ADD PUSH2 0x974 JUMP JUMPDEST PUSH2 0x2CB0 DUP5 DUP5 PUSH2 0x3D54 JUMP JUMPDEST DUP2 MLOAD ISZERO PUSH2 0x2CEC JUMPI PUSH1 0x0 PUSH2 0x2CC1 PUSH2 0x1DCE JUMP JUMPDEST SWAP3 POP PUSH1 0x4 SWAP2 POP PUSH2 0x2CCE SWAP1 POP JUMP JUMPDEST DUP2 PUSH1 0x5 DUP2 GT ISZERO PUSH2 0x2CE0 JUMPI PUSH2 0x2CE0 PUSH2 0x49A5 JUMP JUMPDEST SUB PUSH2 0x2CEA JUMPI PUSH1 0x0 DUP4 MSTORE JUMPDEST POP JUMPDEST PUSH2 0x2CF4 PUSH2 0x10B0 JUMP JUMPDEST ISZERO PUSH2 0x2E9B JUMPI PUSH1 0x40 MLOAD PUSH4 0xF667F897 PUSH1 0xE0 SHL DUP2 MSTORE ADDRESS PUSH1 0x4 DUP3 ADD MSTORE PUSH32 0x0 PUSH1 0x1 PUSH1 0x1 PUSH1 0xA0 SHL SUB AND SWAP1 PUSH4 0xF667F897 SWAP1 PUSH1 0x24 ADD PUSH1 0x0 PUSH1 0x40 MLOAD DUP1 DUP4 SUB DUP2 PUSH1 0x0 DUP8 DUP1 EXTCODESIZE ISZERO DUP1 ISZERO PUSH2 0x2D5A JUMPI PUSH1 0x0 DUP1 REVERT JUMPDEST POP GAS CALL ISZERO DUP1 ISZERO PUSH2 0x2D6E JUMPI RETURNDATASIZE PUSH1 0x0 DUP1 RETURNDATACOPY RETURNDATASIZE PUSH1 0x0 REVERT JUMPDEST POP POP POP POP PUSH1 0x0 PUSH2 0x2D7C PUSH2 0x15BC JUMP JUMPDEST PUSH1 0x40 MLOAD PUSH4 0xFC1B1345 PUSH1 0xE0 SHL DUP2 MSTORE PUSH2 0xFFFF DUP3 AND PUSH1 0x4 DUP3 ADD MSTORE ADDRESS PUSH1 0x24 DUP3 ADD MSTORE SWAP1 SWAP2 POP PUSH1 0x0 SWAP1 PUSH1 0x1 PUSH1 0x1 PUSH1 0xA0 SHL SUB PUSH32 0x0 AND SWAP1 PUSH4 0xFC1B1345 SWAP1 PUSH1 0x44 ADD PUSH1 0x60 PUSH1 0x40 MLOAD DUP1 DUP4 SUB DUP2 DUP7 GAS STATICCALL ISZERO DUP1 ISZERO PUSH2 0x2DF0 JUMPI RETURNDATASIZE PUSH1 0x0 DUP1 RETURNDATACOPY RETURNDATASIZE PUSH1 0x0 REVERT JUMPDEST POP POP POP POP PUSH1 0x40 MLOAD RETURNDATASIZE PUSH1 0x1F NOT PUSH1 0x1F DUP3 ADD AND DUP3 ADD DUP1 PUSH1 0x40 MSTORE POP DUP2 ADD SWAP1 PUSH2 0x2E14 SWAP2 SWAP1 PUSH2 0x521D JUMP JUMPDEST POP POP SWAP1 POP DUP1 PUSH1 0x0 SLT PUSH2 0x2E60 JUMPI PUSH1 0x40 MLOAD PUSH3 0x461BCD PUSH1 0xE5 SHL DUP2 MSTORE PUSH1 0x20 PUSH1 0x4 DUP3 ADD MSTORE PUSH1 0x15 PUSH1 0x24 DUP3 ADD MSTORE PUSH21 0x4E6567617469766520436173682042616C616E6365 PUSH1 0x58 SHL PUSH1 0x44 DUP3 ADD MSTORE PUSH1 0x64 ADD PUSH2 0x974 JUMP JUMPDEST PUSH1 0x0 DUP4 PUSH2 0x2E6D DUP8 DUP5 PUSH2 0x4A3A JUMP JUMPDEST PUSH2 0x2E77 SWAP2 SWAP1 PUSH2 0x4A6F JUMP JUMPDEST SWAP1 POP PUSH2 0x2E92 DUP4 DUP7 PUSH1 0x40 ADD MLOAD PUSH2 0x2E8B DUP5 PUSH2 0x2F5F JUMP JUMPDEST DUP9 MLOAD PUSH2 0x3EA2 JUMP JUMPDEST POP POP POP POP PUSH2 0x2F54 JUMP JUMPDEST DUP2 PUSH1 0x20 ADD MLOAD ISZERO PUSH2 0x2F3A JUMPI PUSH32 0x0 PUSH1 0x1 PUSH1 0x1 PUSH1 0xA0 SHL SUB AND PUSH4 0xF242432A ADDRESS DUP5 PUSH1 0x40 ADD MLOAD PUSH2 0x2EEC PUSH1 0x65 SLOAD PUSH1 0x1 PUSH1 0x1 PUSH1 0x40 SHL SUB AND SWAP1 JUMP JUMPDEST DUP8 PUSH1 0x40 MLOAD DUP6 PUSH4 0xFFFFFFFF AND PUSH1 0xE0 SHL DUP2 MSTORE PUSH1 0x4 ADD PUSH2 0x2F0C SWAP5 SWAP4 SWAP3 SWAP2 SWAP1 PUSH2 0x4E61 JUMP JUMPDEST PUSH1 0x0 PUSH1 0x40 MLOAD DUP1 DUP4 SUB DUP2 PUSH1 0x0 DUP8 DUP1 EXTCODESIZE ISZERO DUP1 ISZERO PUSH2 0x2F26 JUMPI PUSH1 0x0 DUP1 REVERT JUMPDEST POP GAS CALL ISZERO DUP1 ISZERO PUSH2 0x2E92 JUMPI RETURNDATASIZE PUSH1 0x0 DUP1 RETURNDATACOPY RETURNDATASIZE PUSH1 0x0 REVERT JUMPDEST PUSH2 0x2F52 DUP3 PUSH1 0x40 ADD MLOAD DUP5 DUP5 PUSH1 0x0 ADD MLOAD DUP6 PUSH1 0x60 ADD MLOAD PUSH2 0x3FDE JUMP JUMPDEST POP JUMPDEST POP POP PUSH1 0x1 PUSH1 0x93 SSTORE POP POP JUMP JUMPDEST PUSH1 0x0 PUSH1 0x1 PUSH1 0x1 PUSH1 0x58 SHL SUB DUP3 GT ISZERO PUSH2 0x2F75 JUMPI PUSH1 0x0 DUP1 REVERT JUMPDEST POP SWAP1 JUMP JUMPDEST PUSH2 0xD2E DUP2 DUP5 PUSH1 0x40 MLOAD DUP1 PUSH1 0x80 ADD PUSH1 0x40 MSTORE DUP1 PUSH1 0x1 ISZERO ISZERO DUP2 MSTORE PUSH1 0x20 ADD PUSH1 0x0 ISZERO ISZERO DUP2 MSTORE PUSH1 0x20 ADD DUP7 PUSH1 0x1 PUSH1 0x1 PUSH1 0xA0 SHL SUB AND DUP2 MSTORE PUSH1 0x20 ADD PUSH1 0x0 PUSH4 0xFFFFFFFF AND DUP2 MSTORE POP PUSH2 0x2C17 JUMP JUMPDEST PUSH1 0x0 DUP1 PUSH1 0x0 DUP6 GT PUSH2 0x3005 JUMPI PUSH1 0x40 MLOAD PUSH3 0x461BCD PUSH1 0xE5 SHL DUP2 MSTORE PUSH1 0x20 PUSH1 0x4 DUP3 ADD MSTORE PUSH1 0x15 PUSH1 0x24 DUP3 ADD MSTORE PUSH21 0x10D1CE881B9BC81B585C9AD95D1CC81B1A5CDD1959 PUSH1 0x5A SHL PUSH1 0x44 DUP3 ADD MSTORE PUSH1 0x64 ADD PUSH2 0x974 JUMP JUMPDEST PUSH1 0x7 DUP6 GT ISZERO PUSH2 0x304F JUMPI PUSH1 0x40 MLOAD PUSH3 0x461BCD PUSH1 0xE5 SHL DUP2 MSTORE PUSH1 0x20 PUSH1 0x4 DUP3 ADD MSTORE PUSH1 0x16 PUSH1 0x24 DUP3 ADD MSTORE PUSH22 0x10D1CE881B585C9AD95D081A5B99195E08189BDD5B99 PUSH1 0x52 SHL PUSH1 0x44 DUP3 ADD MSTORE PUSH1 0x64 ADD PUSH2 0x974 JUMP JUMPDEST PUSH1 0x0 PUSH2 0x305A DUP5 PUSH2 0x381C JUMP JUMPDEST SWAP1 POP PUSH1 0x1 JUMPDEST DUP7 DUP2 GT PUSH2 0x30B1 JUMPI PUSH1 0x0 PUSH2 0x3071 DUP3 PUSH2 0x3886 JUMP JUMPDEST PUSH2 0x307B SWAP1 DUP5 PUSH2 0x4DBF JUMP JUMPDEST SWAP1 POP DUP7 DUP2 SUB PUSH2 0x3092 JUMPI POP SWAP3 POP PUSH1 0x0 SWAP2 POP PUSH2 0x30F0 SWAP1 POP JUMP JUMPDEST DUP7 DUP2 GT ISZERO PUSH2 0x30A8 JUMPI POP SWAP3 POP PUSH1 0x1 SWAP2 POP PUSH2 0x30F0 SWAP1 POP JUMP JUMPDEST POP PUSH1 0x1 ADD PUSH2 0x305F JUMP JUMPDEST POP PUSH1 0x40 MLOAD PUSH3 0x461BCD PUSH1 0xE5 SHL DUP2 MSTORE PUSH1 0x20 PUSH1 0x4 DUP3 ADD MSTORE PUSH1 0x13 PUSH1 0x24 DUP3 ADD MSTORE PUSH19 0x10D1CE881B9BC81B585C9AD95D08199BDD5B99 PUSH1 0x6A SHL PUSH1 0x44 DUP3 ADD MSTORE PUSH1 0x64 ADD PUSH2 0x974 JUMP JUMPDEST SWAP4 POP SWAP4 SWAP2 POP POP JUMP JUMPDEST PUSH1 0x1 PUSH1 0x1 PUSH1 0xA0 SHL SUB DUP3 AND PUSH2 0x314E JUMPI PUSH1 0x40 MLOAD PUSH3 0x461BCD PUSH1 0xE5 SHL DUP2 MSTORE PUSH1 0x20 PUSH1 0x4 DUP3 ADD MSTORE PUSH1 0x1F PUSH1 0x24 DUP3 ADD MSTORE PUSH32 0x45524332303A206D696E7420746F20746865207A65726F206164647265737300 PUSH1 0x44 DUP3 ADD MSTORE PUSH1 0x64 ADD PUSH2 0x974 JUMP JUMPDEST DUP1 PUSH1 0x35 PUSH1 0x0 DUP3 DUP3 SLOAD PUSH2 0x3160 SWAP2 SWAP1 PUSH2 0x4DBF JUMP JUMPDEST SWAP1 SWAP2 SSTORE POP POP PUSH1 0x1 PUSH1 0x1 PUSH1 0xA0 SHL SUB DUP3 AND PUSH1 0x0 SWAP1 DUP2 MSTORE PUSH1 0x33 PUSH1 0x20 MSTORE PUSH1 0x40 DUP2 KECCAK256 DUP1 SLOAD DUP4 SWAP3 SWAP1 PUSH2 0x318D SWAP1 DUP5 SWAP1 PUSH2 0x4DBF JUMP JUMPDEST SWAP1 SWAP2 SSTORE POP POP PUSH1 0x40 MLOAD DUP2 DUP2 MSTORE PUSH1 0x1 PUSH1 0x1 PUSH1 0xA0 SHL SUB DUP4 AND SWAP1 PUSH1 0x0 SWAP1 PUSH32 0xDDF252AD1BE2C89B69C2B068FC378DAA952BA7F163C4A11628F55A4DF523B3EF SWAP1 PUSH1 0x20 ADD PUSH1 0x40 MLOAD DUP1 SWAP2 SUB SWAP1 LOG3 POP POP JUMP JUMPDEST PUSH1 0x0 DUP1 PUSH1 0x0 DUP1 PUSH1 0x0 DUP1 PUSH32 0x0 PUSH1 0x1 PUSH1 0x1 PUSH1 0xA0 SHL SUB AND PUSH4 0x4EBAD18E PUSH2 0x3217 PUSH2 0x15BC JUMP JUMPDEST PUSH1 0x40 MLOAD PUSH1 0x1 PUSH1 0x1 PUSH1 0xE0 SHL SUB NOT PUSH1 0xE0 DUP5 SWAP1 SHL AND DUP2 MSTORE PUSH2 0xFFFF SWAP1 SWAP2 AND PUSH1 0x4 DUP3 ADD MSTORE PUSH1 0x24 ADD PUSH2 0x140 PUSH1 0x40 MLOAD DUP1 DUP4 SUB DUP2 DUP7 GAS STATICCALL ISZERO DUP1 ISZERO PUSH2 0x3257 JUMPI RETURNDATASIZE PUSH1 0x0 DUP1 RETURNDATACOPY RETURNDATASIZE PUSH1 0x0 REVERT JUMPDEST POP POP POP POP PUSH1 0x40 MLOAD RETURNDATASIZE PUSH1 0x1F NOT PUSH1 0x1F DUP3 ADD AND DUP3 ADD DUP1 PUSH1 0x40 MSTORE POP DUP2 ADD SWAP1 PUSH2 0x327B SWAP2 SWAP1 PUSH2 0x4FDD JUMP JUMPDEST SWAP1 SWAP3 POP SWAP1 POP PUSH1 0x4 DUP3 PUSH1 0x60 ADD MLOAD PUSH1 0x5 DUP2 GT ISZERO PUSH2 0x3298 JUMPI PUSH2 0x3298 PUSH2 0x49A5 JUMP JUMPDEST EQ SWAP3 POP DUP3 DUP1 PUSH2 0x32A5 JUMPI POP DUP7 ISZERO JUMPDEST ISZERO PUSH2 0x32BB JUMPI DUP2 MLOAD PUSH1 0x20 DUP4 ADD MLOAD SWAP1 SWAP7 POP SWAP4 POP PUSH2 0x32CE JUMP JUMPDEST DUP7 ISZERO PUSH2 0x32CE JUMPI DUP1 MLOAD PUSH1 0x20 DUP3 ADD MLOAD SWAP1 SWAP7 POP SWAP4 POP JUMPDEST POP SWAP4 SWAP6 PUSH1 0x1 PUSH1 0x1 PUSH1 0xA0 SHL SUB DUP8 AND ISZERO SWAP6 POP SWAP2 SWAP4 POP SWAP2 POP JUMP JUMPDEST PUSH1 0x40 MLOAD PUSH1 0x1 PUSH1 0x1 PUSH1 0xA0 SHL SUB DUP1 DUP6 AND PUSH1 0x24 DUP4 ADD MSTORE DUP4 AND PUSH1 0x44 DUP3 ADD MSTORE PUSH1 0x64 DUP2 ADD DUP3 SWAP1 MSTORE PUSH2 0x8F0 SWAP1 DUP6 SWAP1 PUSH4 0x23B872DD PUSH1 0xE0 SHL SWAP1 PUSH1 0x84 ADD PUSH2 0x2986 JUMP JUMPDEST PUSH1 0x40 DUP1 MLOAD PUSH1 0x1 DUP1 DUP3 MSTORE DUP2 DUP4 ADD SWAP1 SWAP3 MSTORE PUSH1 0x60 SWAP2 DUP2 PUSH1 0x20 ADD JUMPDEST PUSH2 0x333C PUSH2 0x4495 JUMP JUMPDEST DUP2 MSTORE PUSH1 0x20 ADD SWAP1 PUSH1 0x1 SWAP1 SUB SWAP1 DUP2 PUSH2 0x3334 JUMPI SWAP1 POP POP SWAP1 POP DUP3 PUSH2 0x335D JUMPI PUSH1 0x1 PUSH2 0x3360 JUMP JUMPDEST PUSH1 0x2 JUMPDEST DUP2 PUSH1 0x0 DUP2 MLOAD DUP2 LT PUSH2 0x3373 JUMPI PUSH2 0x3373 PUSH2 0x5154 JUMP JUMPDEST PUSH1 0x20 MUL PUSH1 0x20 ADD ADD MLOAD PUSH1 0x0 ADD SWAP1 PUSH1 0x6 DUP2 GT ISZERO PUSH2 0x3390 JUMPI PUSH2 0x3390 PUSH2 0x49A5 JUMP JUMPDEST SWAP1 DUP2 PUSH1 0x6 DUP2 GT ISZERO PUSH2 0x33A3 JUMPI PUSH2 0x33A3 PUSH2 0x49A5 JUMP JUMPDEST DUP2 MSTORE POP POP DUP8 DUP2 PUSH1 0x0 DUP2 MLOAD DUP2 LT PUSH2 0x33BB JUMPI PUSH2 0x33BB PUSH2 0x5154 JUMP JUMPDEST PUSH1 0x20 MUL PUSH1 0x20 ADD ADD MLOAD PUSH1 0x20 ADD SWAP1 PUSH2 0xFFFF AND SWAP1 DUP2 PUSH2 0xFFFF AND DUP2 MSTORE POP POP DUP6 DUP2 PUSH1 0x0 DUP2 MLOAD DUP2 LT PUSH2 0x33E9 JUMPI PUSH2 0x33E9 PUSH2 0x5154 JUMP JUMPDEST PUSH1 0x20 MUL PUSH1 0x20 ADD ADD MLOAD PUSH1 0x40 ADD DUP2 DUP2 MSTORE POP POP PUSH1 0x1 DUP2 PUSH1 0x0 DUP2 MLOAD DUP2 LT PUSH2 0x340E JUMPI PUSH2 0x340E PUSH2 0x5154 JUMP JUMPDEST PUSH1 0x20 SWAP1 DUP2 MUL SWAP2 SWAP1 SWAP2 ADD ADD MLOAD SWAP1 ISZERO ISZERO PUSH1 0x80 SWAP1 SWAP2 ADD MSTORE DUP2 PUSH2 0x342E JUMPI PUSH1 0x1 PUSH2 0x3431 JUMP JUMPDEST PUSH1 0x0 JUMPDEST DUP2 PUSH1 0x0 DUP2 MLOAD DUP2 LT PUSH2 0x3444 JUMPI PUSH2 0x3444 PUSH2 0x5154 JUMP JUMPDEST PUSH1 0x20 SWAP1 DUP2 MUL SWAP2 SWAP1 SWAP2 ADD ADD MLOAD SWAP1 ISZERO ISZERO PUSH1 0xA0 SWAP1 SWAP2 ADD MSTORE PUSH1 0x40 DUP1 MLOAD PUSH1 0x1 DUP1 DUP3 MSTORE DUP2 DUP4 ADD SWAP1 SWAP3 MSTORE SWAP1 DUP2 PUSH1 0x20 ADD PUSH1 0x20 DUP3 MUL DUP1 CALLDATASIZE DUP4 CALLDATACOPY ADD SWAP1 POP POP DUP2 PUSH1 0x0 DUP2 MLOAD DUP2 LT PUSH2 0x348B JUMPI PUSH2 0x348B PUSH2 0x5154 JUMP JUMPDEST PUSH1 0x20 SWAP1 DUP2 MUL SWAP2 SWAP1 SWAP2 ADD ADD MLOAD PUSH1 0xC0 ADD MSTORE DUP1 MLOAD PUSH1 0xF0 DUP9 SWAP1 SHL PUSH1 0xFF PUSH1 0xF0 SHL AND PUSH1 0x98 DUP8 SWAP1 SHL PUSH1 0x1 PUSH1 0x98 SHL PUSH1 0x1 PUSH1 0xF0 SHL SUB AND OR PUSH1 0x78 DUP7 SWAP1 SHL PUSH4 0xFFFFFFFF PUSH1 0x78 SHL AND OR SWAP1 DUP3 SWAP1 PUSH1 0x0 SWAP1 PUSH2 0x34DA JUMPI PUSH2 0x34DA PUSH2 0x5154 JUMP JUMPDEST PUSH1 0x20 MUL PUSH1 0x20 ADD ADD MLOAD PUSH1 0xC0 ADD MLOAD PUSH1 0x0 DUP2 MLOAD DUP2 LT PUSH2 0x34F8 JUMPI PUSH2 0x34F8 PUSH2 0x5154 JUMP JUMPDEST PUSH1 0x20 MUL PUSH1 0x20 ADD ADD DUP2 DUP2 MSTORE POP POP SWAP8 SWAP7 POP POP POP POP POP POP POP JUMP JUMPDEST PUSH1 0x40 DUP1 MLOAD PUSH1 0x1 DUP1 DUP3 MSTORE DUP2 DUP4 ADD SWAP1 SWAP3 MSTORE PUSH1 0x60 SWAP2 DUP2 PUSH1 0x20 ADD JUMPDEST PUSH1 0x40 DUP1 MLOAD PUSH1 0x60 DUP1 DUP3 ADD DUP4 MSTORE PUSH1 0x0 DUP1 DUP4 MSTORE PUSH1 0x20 DUP4 ADD MSTORE SWAP2 DUP2 ADD SWAP2 SWAP1 SWAP2 MSTORE DUP2 MSTORE PUSH1 0x20 ADD SWAP1 PUSH1 0x1 SWAP1 SUB SWAP1 DUP2 PUSH2 0x3526 JUMPI SWAP1 POP POP SWAP1 POP DUP6 DUP2 PUSH1 0x0 DUP2 MLOAD DUP2 LT PUSH2 0x356B JUMPI PUSH2 0x356B PUSH2 0x5154 JUMP JUMPDEST PUSH1 0x20 MUL PUSH1 0x20 ADD ADD MLOAD PUSH1 0x0 ADD SWAP1 PUSH2 0xFFFF AND SWAP1 DUP2 PUSH2 0xFFFF AND DUP2 MSTORE POP POP DUP2 DUP2 PUSH1 0x0 DUP2 MLOAD DUP2 LT PUSH2 0x3599 JUMPI PUSH2 0x3599 PUSH2 0x5154 JUMP JUMPDEST PUSH1 0x20 SWAP1 DUP2 MUL SWAP2 SWAP1 SWAP2 ADD DUP2 ADD MLOAD SWAP2 ISZERO ISZERO SWAP2 ADD MSTORE PUSH1 0x40 DUP1 MLOAD PUSH1 0x1 DUP1 DUP3 MSTORE DUP2 DUP4 ADD SWAP1 SWAP3 MSTORE SWAP1 DUP2 PUSH1 0x20 ADD PUSH1 0x20 DUP3 MUL DUP1 CALLDATASIZE DUP4 CALLDATACOPY ADD SWAP1 POP POP DUP2 PUSH1 0x0 DUP2 MLOAD DUP2 LT PUSH2 0x35DE JUMPI PUSH2 0x35DE PUSH2 0x5154 JUMP JUMPDEST PUSH1 0x20 SWAP1 DUP2 MUL SWAP2 SWAP1 SWAP2 ADD ADD MLOAD PUSH1 0x40 ADD MSTORE DUP1 MLOAD PUSH1 0xF0 DUP7 SWAP1 SHL PUSH1 0xFF PUSH1 0xF0 SHL AND PUSH1 0x98 DUP7 SWAP1 SHL PUSH1 0x1 PUSH1 0x98 SHL PUSH1 0x1 PUSH1 0xF0 SHL SUB AND OR PUSH1 0x78 DUP6 SWAP1 SHL PUSH4 0xFFFFFFFF PUSH1 0x78 SHL AND OR SWAP1 DUP3 SWAP1 PUSH1 0x0 SWAP1 PUSH2 0x362D JUMPI PUSH2 0x362D PUSH2 0x5154 JUMP JUMPDEST PUSH1 0x20 MUL PUSH1 0x20 ADD ADD MLOAD PUSH1 0x40 ADD MLOAD PUSH1 0x0 DUP2 MLOAD DUP2 LT PUSH2 0x364B JUMPI PUSH2 0x364B PUSH2 0x5154 JUMP JUMPDEST PUSH1 0x20 MUL PUSH1 0x20 ADD ADD DUP2 DUP2 MSTORE POP POP SWAP6 SWAP5 POP POP POP POP POP JUMP JUMPDEST PUSH1 0x0 DUP1 DUP4 PUSH2 0x36D5 JUMPI PUSH1 0x40 MLOAD PUSH4 0x70A08231 PUSH1 0xE0 SHL DUP2 MSTORE ADDRESS PUSH1 0x4 DUP3 ADD MSTORE PUSH1 0x1 PUSH1 0x1 PUSH1 0xA0 SHL SUB DUP8 AND SWAP1 PUSH4 0x70A08231 SWAP1 PUSH1 0x24 ADD PUSH1 0x20 PUSH1 0x40 MLOAD DUP1 DUP4 SUB DUP2 DUP7 GAS STATICCALL ISZERO DUP1 ISZERO PUSH2 0x36AC JUMPI RETURNDATASIZE PUSH1 0x0 DUP1 RETURNDATACOPY RETURNDATASIZE PUSH1 0x0 REVERT JUMPDEST POP POP POP POP PUSH1 0x40 MLOAD RETURNDATASIZE PUSH1 0x1F NOT PUSH1 0x1F DUP3 ADD AND DUP3 ADD DUP1 PUSH1 0x40 MSTORE POP DUP2 ADD SWAP1 PUSH2 0x36D0 SWAP2 SWAP1 PUSH2 0x4E14 JUMP JUMPDEST PUSH2 0x36D7 JUMP JUMPDEST SELFBALANCE JUMPDEST SWAP1 POP PUSH2 0x36E3 DUP4 DUP3 PUSH2 0x4E2D JUMP JUMPDEST SWAP2 POP DUP4 ISZERO PUSH2 0x37F9 JUMPI PUSH32 0x0 PUSH1 0x1 PUSH1 0x1 PUSH1 0xA0 SHL SUB AND PUSH4 0xD0E30DB0 DUP4 PUSH1 0x40 MLOAD DUP3 PUSH4 0xFFFFFFFF AND PUSH1 0xE0 SHL DUP2 MSTORE PUSH1 0x4 ADD PUSH1 0x0 PUSH1 0x40 MLOAD DUP1 DUP4 SUB DUP2 DUP6 DUP9 DUP1 EXTCODESIZE ISZERO DUP1 ISZERO PUSH2 0x3746 JUMPI PUSH1 0x0 DUP1 REVERT JUMPDEST POP GAS CALL ISZERO DUP1 ISZERO PUSH2 0x375A JUMPI RETURNDATASIZE PUSH1 0x0 DUP1 RETURNDATACOPY RETURNDATASIZE PUSH1 0x0 REVERT JUMPDEST POP POP PUSH1 0x40 MLOAD PUSH4 0xA9059CBB PUSH1 0xE0 SHL DUP2 MSTORE PUSH1 0x1 PUSH1 0x1 PUSH1 0xA0 SHL SUB DUP10 DUP2 AND PUSH1 0x4 DUP4 ADD MSTORE PUSH1 0x24 DUP3 ADD DUP8 SWAP1 MSTORE PUSH32 0x0 AND SWAP4 POP PUSH4 0xA9059CBB SWAP3 POP PUSH1 0x44 ADD SWAP1 POP PUSH1 0x20 PUSH1 0x40 MLOAD DUP1 DUP4 SUB DUP2 PUSH1 0x0 DUP8 GAS CALL ISZERO DUP1 ISZERO PUSH2 0x37CF JUMPI RETURNDATASIZE PUSH1 0x0 DUP1 RETURNDATACOPY RETURNDATASIZE PUSH1 0x0 REVERT JUMPDEST POP POP POP POP PUSH1 0x40 MLOAD RETURNDATASIZE PUSH1 0x1F NOT PUSH1 0x1F DUP3 ADD AND DUP3 ADD DUP1 PUSH1 0x40 MSTORE POP DUP2 ADD SWAP1 PUSH2 0x37F3 SWAP2 SWAP1 PUSH2 0x524B JUMP JUMPDEST POP PUSH2 0x3813 JUMP JUMPDEST DUP2 ISZERO PUSH2 0x3813 JUMPI PUSH2 0x3813 PUSH1 0x1 PUSH1 0x1 PUSH1 0xA0 SHL SUB DUP8 AND DUP7 DUP5 PUSH2 0x4129 JUMP JUMPDEST POP SWAP5 SWAP4 POP POP POP POP JUMP JUMPDEST PUSH1 0x0 PUSH2 0x382C PUSH3 0x15180 PUSH1 0x6 PUSH2 0x4A3A JUMP JUMPDEST PUSH2 0x3837 SWAP1 PUSH1 0x5 PUSH2 0x4A3A JUMP JUMPDEST PUSH2 0x3842 SWAP1 PUSH1 0x3 PUSH2 0x4A3A JUMP JUMPDEST DUP3 LT ISZERO PUSH2 0x384E JUMPI PUSH1 0x0 DUP1 REVERT JUMPDEST PUSH2 0x385C PUSH3 0x15180 PUSH1 0x6 PUSH2 0x4A3A JUMP JUMPDEST PUSH2 0x3867 SWAP1 PUSH1 0x5 PUSH2 0x4A3A JUMP JUMPDEST PUSH2 0x3872 SWAP1 PUSH1 0x3 PUSH2 0x4A3A JUMP JUMPDEST PUSH2 0x387C SWAP1 DUP4 PUSH2 0x5410 JUMP JUMPDEST PUSH2 0x803 SWAP1 DUP4 PUSH2 0x4E2D JUMP JUMPDEST PUSH1 0x0 DUP2 PUSH1 0x1 SUB PUSH2 0x38B4 JUMPI PUSH2 0x389E PUSH3 0x15180 PUSH1 0x6 PUSH2 0x4A3A JUMP JUMPDEST PUSH2 0x38A9 SWAP1 PUSH1 0x5 PUSH2 0x4A3A JUMP JUMPDEST PUSH2 0x803 SWAP1 PUSH1 0x3 PUSH2 0x4A3A JUMP JUMPDEST DUP2 PUSH1 0x2 SUB PUSH2 0x38EB JUMPI PUSH2 0x38CA PUSH3 0x15180 PUSH1 0x6 PUSH2 0x4A3A JUMP JUMPDEST PUSH2 0x38D5 SWAP1 PUSH1 0x5 PUSH2 0x4A3A JUMP JUMPDEST PUSH2 0x38E0 SWAP1 PUSH1 0x3 PUSH2 0x4A3A JUMP JUMPDEST PUSH2 0x803 SWAP1 PUSH1 0x2 PUSH2 0x4A3A JUMP JUMPDEST DUP2 PUSH1 0x3 SUB PUSH2 0x3922 JUMPI PUSH2 0x3901 PUSH3 0x15180 PUSH1 0x6 PUSH2 0x4A3A JUMP JUMPDEST PUSH2 0x390C SWAP1 PUSH1 0x5 PUSH2 0x4A3A JUMP JUMPDEST PUSH2 0x3917 SWAP1 PUSH1 0x3 PUSH2 0x4A3A JUMP JUMPDEST PUSH2 0x803 SWAP1 PUSH1 0x4 PUSH2 0x4A3A JUMP JUMPDEST DUP2 PUSH1 0x4 SUB PUSH2 0x3959 JUMPI PUSH2 0x3938 PUSH3 0x15180 PUSH1 0x6 PUSH2 0x4A3A JUMP JUMPDEST PUSH2 0x3943 SWAP1 PUSH1 0x5 PUSH2 0x4A3A JUMP JUMPDEST PUSH2 0x394E SWAP1 PUSH1 0x3 PUSH2 0x4A3A JUMP JUMPDEST PUSH2 0x38E0 SWAP1 PUSH1 0x4 PUSH2 0x4A3A JUMP JUMPDEST DUP2 PUSH1 0x5 SUB PUSH2 0x399B JUMPI PUSH2 0x396F PUSH3 0x15180 PUSH1 0x6 PUSH2 0x4A3A JUMP JUMPDEST PUSH2 0x397A SWAP1 PUSH1 0x5 PUSH2 0x4A3A JUMP JUMPDEST PUSH2 0x3985 SWAP1 PUSH1 0x3 PUSH2 0x4A3A JUMP JUMPDEST PUSH2 0x3990 SWAP1 PUSH1 0x4 PUSH2 0x4A3A JUMP JUMPDEST PUSH2 0x803 SWAP1 PUSH1 0x5 PUSH2 0x4A3A JUMP JUMPDEST DUP2 PUSH1 0x6 SUB PUSH2 0x39DD JUMPI PUSH2 0x39B1 PUSH3 0x15180 PUSH1 0x6 PUSH2 0x4A3A JUMP JUMPDEST PUSH2 0x39BC SWAP1 PUSH1 0x5 PUSH2 0x4A3A JUMP JUMPDEST PUSH2 0x39C7 SWAP1 PUSH1 0x3 PUSH2 0x4A3A JUMP JUMPDEST PUSH2 0x39D2 SWAP1 PUSH1 0x4 PUSH2 0x4A3A JUMP JUMPDEST PUSH2 0x803 SWAP1 PUSH1 0xA PUSH2 0x4A3A JUMP JUMPDEST DUP2 PUSH1 0x7 SUB PUSH2 0x3A1F JUMPI PUSH2 0x39F3 PUSH3 0x15180 PUSH1 0x6 PUSH2 0x4A3A JUMP JUMPDEST PUSH2 0x39FE SWAP1 PUSH1 0x5 PUSH2 0x4A3A JUMP JUMPDEST PUSH2 0x3A09 SWAP1 PUSH1 0x3 PUSH2 0x4A3A JUMP JUMPDEST PUSH2 0x3A14 SWAP1 PUSH1 0x4 PUSH2 0x4A3A JUMP JUMPDEST PUSH2 0x803 SWAP1 PUSH1 0x14 PUSH2 0x4A3A JUMP JUMPDEST PUSH1 0x40 MLOAD PUSH3 0x461BCD PUSH1 0xE5 SHL DUP2 MSTORE PUSH1 0x20 PUSH1 0x4 DUP3 ADD MSTORE PUSH1 0xD PUSH1 0x24 DUP3 ADD MSTORE PUSH13 0x92DCECC2D8D2C840D2DCC8CAF PUSH1 0x9B SHL PUSH1 0x44 DUP3 ADD MSTORE PUSH1 0x64 ADD PUSH2 0x974 JUMP JUMPDEST PUSH1 0x0 DUP1 PUSH1 0x0 PUSH2 0x3A65 DUP6 PUSH2 0x4159 JUMP JUMPDEST SWAP1 POP PUSH2 0x3A74 PUSH3 0x15180 DUP6 PUSH2 0x5410 JUMP JUMPDEST ISZERO PUSH2 0x3A86 JUMPI PUSH1 0x0 DUP1 SWAP3 POP SWAP3 POP POP PUSH2 0x3C3B JUMP JUMPDEST DUP4 DUP2 LT PUSH2 0x3A9A JUMPI PUSH1 0x0 DUP1 SWAP3 POP SWAP3 POP POP PUSH2 0x3C3B JUMP JUMPDEST PUSH1 0x0 PUSH3 0x15180 PUSH2 0x3AAA DUP4 DUP8 PUSH2 0x4E2D JUMP JUMPDEST PUSH2 0x3AB4 SWAP2 SWAP1 PUSH2 0x4A6F JUMP JUMPDEST SWAP1 POP PUSH1 0x5A DUP2 GT PUSH2 0x3ACB JUMPI SWAP3 POP PUSH1 0x1 SWAP2 POP PUSH2 0x3C3B SWAP1 POP JUMP JUMPDEST PUSH2 0x168 DUP2 GT PUSH2 0x3B40 JUMPI PUSH1 0x0 PUSH3 0x15180 PUSH2 0x3AE5 DUP2 PUSH1 0x6 PUSH2 0x4A3A JUMP JUMPDEST PUSH2 0x3AEF SWAP1 DUP6 PUSH2 0x5410 JUMP JUMPDEST PUSH2 0x3AF9 SWAP2 SWAP1 PUSH2 0x4A6F JUMP JUMPDEST PUSH2 0x3B04 PUSH1 0x5A DUP5 PUSH2 0x4E2D JUMP JUMPDEST PUSH2 0x3B0E SWAP2 SWAP1 PUSH2 0x4DBF JUMP JUMPDEST SWAP1 POP PUSH2 0x3B1B PUSH1 0x6 DUP3 PUSH2 0x4A6F JUMP JUMPDEST PUSH2 0x3B26 SWAP1 PUSH1 0x5A PUSH2 0x4DBF JUMP JUMPDEST PUSH2 0x3B31 PUSH1 0x6 DUP4 PUSH2 0x5410 JUMP JUMPDEST PUSH1 0x0 EQ SWAP5 POP SWAP5 POP POP POP POP PUSH2 0x3C3B JUMP JUMPDEST PUSH2 0x870 DUP2 GT PUSH2 0x3BB2 JUMPI PUSH1 0x0 PUSH3 0x15180 PUSH2 0x3B5A DUP2 PUSH1 0x6 PUSH2 0x4A3A JUMP JUMPDEST PUSH2 0x3B65 SWAP1 PUSH1 0x5 PUSH2 0x4A3A JUMP JUMPDEST PUSH2 0x3B6F SWAP1 DUP6 PUSH2 0x5410 JUMP JUMPDEST PUSH2 0x3B79 SWAP2 SWAP1 PUSH2 0x4A6F JUMP JUMPDEST PUSH2 0x3B85 PUSH2 0x168 DUP5 PUSH2 0x4E2D JUMP JUMPDEST PUSH2 0x3B8F SWAP2 SWAP1 PUSH2 0x4DBF JUMP JUMPDEST SWAP1 POP PUSH2 0x3B9C PUSH1 0x1E DUP3 PUSH2 0x4A6F JUMP JUMPDEST PUSH2 0x3BA7 SWAP1 PUSH1 0x87 PUSH2 0x4DBF JUMP JUMPDEST PUSH2 0x3B31 PUSH1 0x1E DUP4 PUSH2 0x5410 JUMP JUMPDEST PUSH2 0x1DE2 DUP2 GT PUSH2 0x3C2F JUMPI PUSH1 0x0 PUSH3 0x15180 PUSH2 0x3BCC DUP2 PUSH1 0x6 PUSH2 0x4A3A JUMP JUMPDEST PUSH2 0x3BD7 SWAP1 PUSH1 0x5 PUSH2 0x4A3A JUMP JUMPDEST PUSH2 0x3BE2 SWAP1 PUSH1 0x3 PUSH2 0x4A3A JUMP JUMPDEST PUSH2 0x3BEC SWAP1 DUP6 PUSH2 0x5410 JUMP JUMPDEST PUSH2 0x3BF6 SWAP2 SWAP1 PUSH2 0x4A6F JUMP JUMPDEST PUSH2 0x3C02 PUSH2 0x870 DUP5 PUSH2 0x4E2D JUMP JUMPDEST PUSH2 0x3C0C SWAP2 SWAP1 PUSH2 0x4DBF JUMP JUMPDEST SWAP1 POP PUSH2 0x3C19 PUSH1 0x5A DUP3 PUSH2 0x4A6F JUMP JUMPDEST PUSH2 0x3C24 SWAP1 PUSH1 0xC3 PUSH2 0x4DBF JUMP JUMPDEST PUSH2 0x3B31 PUSH1 0x5A DUP4 PUSH2 0x5410 JUMP JUMPDEST PUSH2 0x100 PUSH1 0x0 SWAP4 POP SWAP4 POP POP POP JUMPDEST SWAP3 POP SWAP3 SWAP1 POP JUMP JUMPDEST PUSH1 0x0 SLOAD PUSH2 0x100 SWAP1 DIV PUSH1 0xFF AND PUSH2 0x3C69 JUMPI PUSH1 0x40 MLOAD PUSH3 0x461BCD PUSH1 0xE5 SHL DUP2 MSTORE PUSH1 0x4 ADD PUSH2 0x974 SWAP1 PUSH2 0x5424 JUMP JUMPDEST PUSH1 0x36 PUSH2 0x3C75 DUP4 DUP3 PUSH2 0x54BD JUMP JUMPDEST POP PUSH1 0x37 PUSH2 0xD2E DUP3 DUP3 PUSH2 0x54BD JUMP JUMPDEST PUSH1 0x0 PUSH2 0x3CD7 DUP3 PUSH1 0x40 MLOAD DUP1 PUSH1 0x40 ADD PUSH1 0x40 MSTORE DUP1 PUSH1 0x20 DUP2 MSTORE PUSH1 0x20 ADD PUSH32 0x5361666545524332303A206C6F772D6C6576656C2063616C6C206661696C6564 DUP2 MSTORE POP DUP6 PUSH1 0x1 PUSH1 0x1 PUSH1 0xA0 SHL SUB AND PUSH2 0x4178 SWAP1 SWAP3 SWAP2 SWAP1 PUSH4 0xFFFFFFFF AND JUMP JUMPDEST DUP1 MLOAD SWAP1 SWAP2 POP ISZERO PUSH2 0xD2E JUMPI DUP1 DUP1 PUSH1 0x20 ADD SWAP1 MLOAD DUP2 ADD SWAP1 PUSH2 0x3CF5 SWAP2 SWAP1 PUSH2 0x524B JUMP JUMPDEST PUSH2 0xD2E JUMPI PUSH1 0x40 MLOAD PUSH3 0x461BCD PUSH1 0xE5 SHL DUP2 MSTORE PUSH1 0x20 PUSH1 0x4 DUP3 ADD MSTORE PUSH1 0x2A PUSH1 0x24 DUP3 ADD MSTORE PUSH32 0x5361666545524332303A204552433230206F7065726174696F6E20646964206E PUSH1 0x44 DUP3 ADD MSTORE PUSH10 0x1BDD081CDD58D8D95959 PUSH1 0xB2 SHL PUSH1 0x64 DUP3 ADD MSTORE PUSH1 0x84 ADD PUSH2 0x974 JUMP JUMPDEST PUSH1 0x1 PUSH1 0x1 PUSH1 0xA0 SHL SUB DUP3 AND PUSH2 0x3DB4 JUMPI PUSH1 0x40 MLOAD PUSH3 0x461BCD PUSH1 0xE5 SHL DUP2 MSTORE PUSH1 0x20 PUSH1 0x4 DUP3 ADD MSTORE PUSH1 0x21 PUSH1 0x24 DUP3 ADD MSTORE PUSH32 0x45524332303A206275726E2066726F6D20746865207A65726F20616464726573 PUSH1 0x44 DUP3 ADD MSTORE PUSH1 0x73 PUSH1 0xF8 SHL PUSH1 0x64 DUP3 ADD MSTORE PUSH1 0x84 ADD PUSH2 0x974 JUMP JUMPDEST PUSH1 0x1 PUSH1 0x1 PUSH1 0xA0 SHL SUB DUP3 AND PUSH1 0x0 SWAP1 DUP2 MSTORE PUSH1 0x33 PUSH1 0x20 MSTORE PUSH1 0x40 SWAP1 KECCAK256 SLOAD DUP2 DUP2 LT ISZERO PUSH2 0x3E28 JUMPI PUSH1 0x40 MLOAD PUSH3 0x461BCD PUSH1 0xE5 SHL DUP2 MSTORE PUSH1 0x20 PUSH1 0x4 DUP3 ADD MSTORE PUSH1 0x22 PUSH1 0x24 DUP3 ADD MSTORE PUSH32 0x45524332303A206275726E20616D6F756E7420657863656564732062616C616E PUSH1 0x44 DUP3 ADD MSTORE PUSH2 0x6365 PUSH1 0xF0 SHL PUSH1 0x64 DUP3 ADD MSTORE PUSH1 0x84 ADD PUSH2 0x974 JUMP JUMPDEST PUSH1 0x1 PUSH1 0x1 PUSH1 0xA0 SHL SUB DUP4 AND PUSH1 0x0 SWAP1 DUP2 MSTORE PUSH1 0x33 PUSH1 0x20 MSTORE PUSH1 0x40 DUP2 KECCAK256 DUP4 DUP4 SUB SWAP1 SSTORE PUSH1 0x35 DUP1 SLOAD DUP5 SWAP3 SWAP1 PUSH2 0x3E57 SWAP1 DUP5 SWAP1 PUSH2 0x4E2D JUMP JUMPDEST SWAP1 SWAP2 SSTORE POP POP PUSH1 0x40 MLOAD DUP3 DUP2 MSTORE PUSH1 0x0 SWAP1 PUSH1 0x1 PUSH1 0x1 PUSH1 0xA0 SHL SUB DUP6 AND SWAP1 PUSH32 0xDDF252AD1BE2C89B69C2B068FC378DAA952BA7F163C4A11628F55A4DF523B3EF SWAP1 PUSH1 0x20 ADD PUSH1 0x40 MLOAD DUP1 SWAP2 SUB SWAP1 LOG3 POP POP POP JUMP JUMPDEST PUSH1 0x0 DUP1 PUSH1 0x0 PUSH2 0x3EB0 DUP5 PUSH2 0xF58 JUMP JUMPDEST SWAP2 POP SWAP2 POP PUSH1 0x0 DUP2 PUSH2 0x3F28 JUMPI PUSH1 0x40 MLOAD PUSH4 0x70A08231 PUSH1 0xE0 SHL DUP2 MSTORE ADDRESS PUSH1 0x4 DUP3 ADD MSTORE PUSH1 0x1 PUSH1 0x1 PUSH1 0xA0 SHL SUB DUP5 AND SWAP1 PUSH4 0x70A08231 SWAP1 PUSH1 0x24 ADD PUSH1 0x20 PUSH1 0x40 MLOAD DUP1 DUP4 SUB DUP2 DUP7 GAS STATICCALL ISZERO DUP1 ISZERO PUSH2 0x3EFF JUMPI RETURNDATASIZE PUSH1 0x0 DUP1 RETURNDATACOPY RETURNDATASIZE PUSH1 0x0 REVERT JUMPDEST POP POP POP POP PUSH1 0x40 MLOAD RETURNDATASIZE PUSH1 0x1F NOT PUSH1 0x1F DUP3 ADD AND DUP3 ADD DUP1 PUSH1 0x40 MSTORE POP DUP2 ADD SWAP1 PUSH2 0x3F23 SWAP2 SWAP1 PUSH2 0x4E14 JUMP JUMPDEST PUSH2 0x3F2A JUMP JUMPDEST SELFBALANCE JUMPDEST PUSH1 0x40 MLOAD PUSH3 0x5E665D PUSH1 0xE3 SHL DUP2 MSTORE PUSH2 0xFFFF DUP11 AND PUSH1 0x4 DUP3 ADD MSTORE PUSH1 0x1 PUSH1 0x1 PUSH1 0x58 SHL SUB DUP9 AND PUSH1 0x24 DUP3 ADD MSTORE DUP7 ISZERO ISZERO PUSH1 0x44 DUP3 ADD MSTORE SWAP1 SWAP2 POP PUSH32 0x0 PUSH1 0x1 PUSH1 0x1 PUSH1 0xA0 SHL SUB AND SWAP1 PUSH4 0x2F332E8 SWAP1 PUSH1 0x64 ADD PUSH1 0x20 PUSH1 0x40 MLOAD DUP1 DUP4 SUB DUP2 PUSH1 0x0 DUP8 GAS CALL ISZERO DUP1 ISZERO PUSH2 0x3FAD JUMPI RETURNDATASIZE PUSH1 0x0 DUP1 RETURNDATACOPY RETURNDATASIZE PUSH1 0x0 REVERT JUMPDEST POP POP POP POP PUSH1 0x40 MLOAD RETURNDATASIZE PUSH1 0x1F NOT PUSH1 0x1F DUP3 ADD AND DUP3 ADD DUP1 PUSH1 0x40 MSTORE POP DUP2 ADD SWAP1 PUSH2 0x3FD1 SWAP2 SWAP1 PUSH2 0x4E14 JUMP JUMPDEST POP PUSH2 0x26DD DUP4 DUP9 DUP5 DUP5 PUSH2 0x3660 JUMP JUMPDEST PUSH1 0x0 DUP1 PUSH1 0x0 PUSH2 0x3FEC DUP6 PUSH2 0xF58 JUMP JUMPDEST SWAP2 POP SWAP2 POP PUSH1 0x0 DUP2 PUSH2 0x4064 JUMPI PUSH1 0x40 MLOAD PUSH4 0x70A08231 PUSH1 0xE0 SHL DUP2 MSTORE ADDRESS PUSH1 0x4 DUP3 ADD MSTORE PUSH1 0x1 PUSH1 0x1 PUSH1 0xA0 SHL SUB DUP5 AND SWAP1 PUSH4 0x70A08231 SWAP1 PUSH1 0x24 ADD PUSH1 0x20 PUSH1 0x40 MLOAD DUP1 DUP4 SUB DUP2 DUP7 GAS STATICCALL ISZERO DUP1 ISZERO PUSH2 0x403B JUMPI RETURNDATASIZE PUSH1 0x0 DUP1 RETURNDATACOPY RETURNDATASIZE PUSH1 0x0 REVERT JUMPDEST POP POP POP POP PUSH1 0x40 MLOAD RETURNDATASIZE PUSH1 0x1F NOT PUSH1 0x1F DUP3 ADD AND DUP3 ADD DUP1 PUSH1 0x40 MSTORE POP DUP2 ADD SWAP1 PUSH2 0x405F SWAP2 SWAP1 PUSH2 0x4E14 JUMP JUMPDEST PUSH2 0x4066 JUMP JUMPDEST SELFBALANCE JUMPDEST SWAP1 POP PUSH1 0x0 PUSH2 0x408D PUSH2 0x4075 PUSH2 0x15BC JUMP JUMPDEST PUSH2 0x407D PUSH2 0x1562 JUMP JUMPDEST PUSH2 0x4086 DUP12 PUSH2 0x2F5F JUMP JUMPDEST DUP10 DUP12 PUSH2 0x4187 JUMP JUMPDEST PUSH1 0x40 MLOAD PUSH4 0x276B64B PUSH1 0xE0 SHL DUP2 MSTORE SWAP1 SWAP2 POP PUSH1 0x1 PUSH1 0x1 PUSH1 0xA0 SHL SUB PUSH32 0x0 AND SWAP1 PUSH4 0x276B64B SWAP1 PUSH2 0x40DE SWAP1 ADDRESS SWAP1 DUP6 SWAP1 PUSH1 0x4 ADD PUSH2 0x52A3 JUMP JUMPDEST PUSH1 0x0 PUSH1 0x40 MLOAD DUP1 DUP4 SUB DUP2 PUSH1 0x0 DUP8 DUP1 EXTCODESIZE ISZERO DUP1 ISZERO PUSH2 0x40F8 JUMPI PUSH1 0x0 DUP1 REVERT JUMPDEST POP GAS CALL ISZERO DUP1 ISZERO PUSH2 0x410C JUMPI RETURNDATASIZE PUSH1 0x0 DUP1 RETURNDATACOPY RETURNDATASIZE PUSH1 0x0 REVERT JUMPDEST POP POP POP POP PUSH2 0x411C DUP5 DUP11 DUP6 DUP6 PUSH2 0x3660 JUMP JUMPDEST SWAP10 SWAP9 POP POP POP POP POP POP POP POP POP JUMP JUMPDEST PUSH1 0x40 MLOAD PUSH1 0x1 PUSH1 0x1 PUSH1 0xA0 SHL SUB DUP4 AND PUSH1 0x24 DUP3 ADD MSTORE PUSH1 0x44 DUP2 ADD DUP3 SWAP1 MSTORE PUSH2 0xD2E SWAP1 DUP5 SWAP1 PUSH4 0xA9059CBB PUSH1 0xE0 SHL SWAP1 PUSH1 0x64 ADD PUSH2 0x2986 JUMP JUMPDEST PUSH1 0x0 PUSH3 0x15180 DUP3 LT ISZERO PUSH2 0x416B JUMPI PUSH1 0x0 DUP1 REVERT JUMPDEST PUSH2 0x387C PUSH3 0x15180 DUP4 PUSH2 0x5410 JUMP JUMPDEST PUSH1 0x60 PUSH2 0x1548 DUP5 DUP5 PUSH1 0x0 DUP6 PUSH2 0x432B JUMP JUMPDEST PUSH1 0x40 DUP1 MLOAD PUSH1 0x1 DUP1 DUP3 MSTORE DUP2 DUP4 ADD SWAP1 SWAP3 MSTORE PUSH1 0x60 SWAP2 DUP2 PUSH1 0x20 ADD JUMPDEST PUSH2 0x41A6 PUSH2 0x4495 JUMP JUMPDEST DUP2 MSTORE PUSH1 0x20 ADD SWAP1 PUSH1 0x1 SWAP1 SUB SWAP1 DUP2 PUSH2 0x419E JUMPI SWAP1 POP POP SWAP1 POP PUSH1 0x0 DUP2 PUSH1 0x0 DUP2 MLOAD DUP2 LT PUSH2 0x41D0 JUMPI PUSH2 0x41D0 PUSH2 0x5154 JUMP JUMPDEST PUSH1 0x20 MUL PUSH1 0x20 ADD ADD MLOAD PUSH1 0x0 ADD SWAP1 PUSH1 0x6 DUP2 GT ISZERO PUSH2 0x41ED JUMPI PUSH2 0x41ED PUSH2 0x49A5 JUMP JUMPDEST SWAP1 DUP2 PUSH1 0x6 DUP2 GT ISZERO PUSH2 0x4200 JUMPI PUSH2 0x4200 PUSH2 0x49A5 JUMP JUMPDEST DUP2 MSTORE POP POP DUP6 DUP2 PUSH1 0x0 DUP2 MLOAD DUP2 LT PUSH2 0x4218 JUMPI PUSH2 0x4218 PUSH2 0x5154 JUMP JUMPDEST PUSH1 0x20 MUL PUSH1 0x20 ADD ADD MLOAD PUSH1 0x20 ADD SWAP1 PUSH2 0xFFFF AND SWAP1 DUP2 PUSH2 0xFFFF AND DUP2 MSTORE POP POP PUSH1 0x1 DUP2 PUSH1 0x0 DUP2 MLOAD DUP2 LT PUSH2 0x4247 JUMPI PUSH2 0x4247 PUSH2 0x5154 JUMP JUMPDEST PUSH1 0x20 MUL PUSH1 0x20 ADD ADD MLOAD PUSH1 0x80 ADD SWAP1 ISZERO ISZERO SWAP1 DUP2 ISZERO ISZERO DUP2 MSTORE POP POP DUP2 DUP2 PUSH1 0x0 DUP2 MLOAD DUP2 LT PUSH2 0x4271 JUMPI PUSH2 0x4271 PUSH2 0x5154 JUMP JUMPDEST PUSH1 0x20 SWAP1 DUP2 MUL SWAP2 SWAP1 SWAP2 ADD ADD MLOAD SWAP1 ISZERO ISZERO PUSH1 0xA0 SWAP1 SWAP2 ADD MSTORE PUSH1 0x40 DUP1 MLOAD PUSH1 0x1 DUP1 DUP3 MSTORE DUP2 DUP4 ADD SWAP1 SWAP3 MSTORE SWAP1 DUP2 PUSH1 0x20 ADD PUSH1 0x20 DUP3 MUL DUP1 CALLDATASIZE DUP4 CALLDATACOPY ADD SWAP1 POP POP DUP2 PUSH1 0x0 DUP2 MLOAD DUP2 LT PUSH2 0x42B8 JUMPI PUSH2 0x42B8 PUSH2 0x5154 JUMP JUMPDEST PUSH1 0x20 SWAP1 DUP2 MUL SWAP2 SWAP1 SWAP2 ADD ADD MLOAD PUSH1 0xC0 ADD MSTORE DUP1 MLOAD PUSH1 0xF0 DUP7 SWAP1 SHL PUSH1 0xFF PUSH1 0xF0 SHL AND PUSH1 0x98 DUP7 SWAP1 SHL PUSH1 0x1 PUSH1 0x98 SHL PUSH1 0x1 PUSH1 0xF0 SHL SUB AND OR PUSH1 0x78 DUP6 SWAP1 SHL PUSH4 0xFFFFFFFF PUSH1 0x78 SHL AND OR PUSH1 0x1 PUSH1 0xF8 SHL OR SWAP1 DUP3 SWAP1 PUSH1 0x0 SWAP1 PUSH2 0x430D JUMPI PUSH2 0x430D PUSH2 0x5154 JUMP JUMPDEST PUSH1 0x20 MUL PUSH1 0x20 ADD ADD MLOAD PUSH1 0xC0 ADD MLOAD PUSH1 0x0 DUP2 MLOAD DUP2 LT PUSH2 0x364B JUMPI PUSH2 0x364B PUSH2 0x5154 JUMP JUMPDEST PUSH1 0x60 DUP3 SELFBALANCE LT ISZERO PUSH2 0x438C JUMPI PUSH1 0x40 MLOAD PUSH3 0x461BCD PUSH1 0xE5 SHL DUP2 MSTORE PUSH1 0x20 PUSH1 0x4 DUP3 ADD MSTORE PUSH1 0x26 PUSH1 0x24 DUP3 ADD MSTORE PUSH32 0x416464726573733A20696E73756666696369656E742062616C616E636520666F PUSH1 0x44 DUP3 ADD MSTORE PUSH6 0x1C8818D85B1B PUSH1 0xD2 SHL PUSH1 0x64 DUP3 ADD MSTORE PUSH1 0x84 ADD PUSH2 0x974 JUMP JUMPDEST PUSH1 0x1 PUSH1 0x1 PUSH1 0xA0 SHL SUB DUP6 AND EXTCODESIZE PUSH2 0x43E3 JUMPI PUSH1 0x40 MLOAD PUSH3 0x461BCD PUSH1 0xE5 SHL DUP2 MSTORE PUSH1 0x20 PUSH1 0x4 DUP3 ADD MSTORE PUSH1 0x1D PUSH1 0x24 DUP3 ADD MSTORE PUSH32 0x416464726573733A2063616C6C20746F206E6F6E2D636F6E7472616374000000 PUSH1 0x44 DUP3 ADD MSTORE PUSH1 0x64 ADD PUSH2 0x974 JUMP JUMPDEST PUSH1 0x0 DUP1 DUP7 PUSH1 0x1 PUSH1 0x1 PUSH1 0xA0 SHL SUB AND DUP6 DUP8 PUSH1 0x40 MLOAD PUSH2 0x43FF SWAP2 SWAP1 PUSH2 0x557C JUMP JUMPDEST PUSH1 0x0 PUSH1 0x40 MLOAD DUP1 DUP4 SUB DUP2 DUP6 DUP8 GAS CALL SWAP3 POP POP POP RETURNDATASIZE DUP1 PUSH1 0x0 DUP2 EQ PUSH2 0x443C JUMPI PUSH1 0x40 MLOAD SWAP2 POP PUSH1 0x1F NOT PUSH1 0x3F RETURNDATASIZE ADD AND DUP3 ADD PUSH1 0x40 MSTORE RETURNDATASIZE DUP3 MSTORE RETURNDATASIZE PUSH1 0x0 PUSH1 0x20 DUP5 ADD RETURNDATACOPY PUSH2 0x4441 JUMP JUMPDEST PUSH1 0x60 SWAP2 POP JUMPDEST POP SWAP2 POP SWAP2 POP PUSH2 0x4451 DUP3 DUP3 DUP7 PUSH2 0x445C JUMP JUMPDEST SWAP8 SWAP7 POP POP POP POP POP POP POP JUMP JUMPDEST PUSH1 0x60 DUP4 ISZERO PUSH2 0x446B JUMPI POP DUP2 PUSH2 0x7AF JUMP JUMPDEST DUP3 MLOAD ISZERO PUSH2 0x447B JUMPI DUP3 MLOAD DUP1 DUP5 PUSH1 0x20 ADD REVERT JUMPDEST DUP2 PUSH1 0x40 MLOAD PUSH3 0x461BCD PUSH1 0xE5 SHL DUP2 MSTORE PUSH1 0x4 ADD PUSH2 0x974 SWAP2 SWAP1 PUSH2 0x4507 JUMP JUMPDEST PUSH1 0x40 DUP1 MLOAD PUSH1 0xE0 DUP2 ADD SWAP1 SWAP2 MSTORE DUP1 PUSH1 0x0 DUP2 MSTORE PUSH1 0x20 ADD PUSH1 0x0 PUSH2 0xFFFF AND DUP2 MSTORE PUSH1 0x20 ADD PUSH1 0x0 DUP2 MSTORE PUSH1 0x20 ADD PUSH1 0x0 DUP2 MSTORE PUSH1 0x20 ADD PUSH1 0x0 ISZERO ISZERO DUP2 MSTORE PUSH1 0x20 ADD PUSH1 0x0 ISZERO ISZERO DUP2 MSTORE PUSH1 0x20 ADD PUSH1 0x60 DUP2 MSTORE POP SWAP1 JUMP JUMPDEST PUSH1 0x0 JUMPDEST DUP4 DUP2 LT ISZERO PUSH2 0x44F6 JUMPI DUP2 DUP2 ADD MLOAD DUP4 DUP3 ADD MSTORE PUSH1 0x20 ADD PUSH2 0x44DE JUMP JUMPDEST DUP4 DUP2 GT ISZERO PUSH2 0x8F0 JUMPI POP POP PUSH1 0x0 SWAP2 ADD MSTORE JUMP JUMPDEST PUSH1 0x20 DUP2 MSTORE PUSH1 0x0 DUP3 MLOAD DUP1 PUSH1 0x20 DUP5 ADD MSTORE PUSH2 0x4526 DUP2 PUSH1 0x40 DUP6 ADD PUSH1 0x20 DUP8 ADD PUSH2 0x44DB JUMP JUMPDEST PUSH1 0x1F ADD PUSH1 0x1F NOT AND SWAP2 SWAP1 SWAP2 ADD PUSH1 0x40 ADD SWAP3 SWAP2 POP POP JUMP JUMPDEST PUSH1 0x0 PUSH1 0x20 DUP3 DUP5 SUB SLT ISZERO PUSH2 0x454C JUMPI PUSH1 0x0 DUP1 REVERT JUMPDEST POP CALLDATALOAD SWAP2 SWAP1 POP JUMP JUMPDEST PUSH1 0x1 PUSH1 0x1 PUSH1 0xA0 SHL SUB DUP2 AND DUP2 EQ PUSH2 0x4568 JUMPI PUSH1 0x0 DUP1 REVERT JUMPDEST POP JUMP JUMPDEST PUSH1 0x0 DUP1 PUSH1 0x40 DUP4 DUP6 SUB SLT ISZERO PUSH2 0x457E JUMPI PUSH1 0x0 DUP1 REVERT JUMPDEST DUP3 CALLDATALOAD PUSH2 0x4589 DUP2 PUSH2 0x4553 JUMP JUMPDEST SWAP5 PUSH1 0x20 SWAP4 SWAP1 SWAP4 ADD CALLDATALOAD SWAP4 POP POP POP JUMP JUMPDEST PUSH1 0x1 PUSH1 0x1 PUSH1 0x58 SHL SUB DUP2 AND DUP2 EQ PUSH2 0x4568 JUMPI PUSH1 0x0 DUP1 REVERT JUMPDEST DUP1 CALLDATALOAD PUSH4 0xFFFFFFFF DUP2 AND DUP2 EQ PUSH2 0x8DD JUMPI PUSH1 0x0 DUP1 REVERT JUMPDEST PUSH1 0x0 DUP1 PUSH1 0x0 DUP1 PUSH1 0x80 DUP6 DUP8 SUB SLT ISZERO PUSH2 0x45D6 JUMPI PUSH1 0x0 DUP1 REVERT JUMPDEST DUP5 CALLDATALOAD SWAP4 POP PUSH1 0x20 DUP6 ADD CALLDATALOAD PUSH2 0x45E8 DUP2 PUSH2 0x4597 JUMP JUMPDEST SWAP3 POP PUSH1 0x40 DUP6 ADD CALLDATALOAD PUSH2 0x45F8 DUP2 PUSH2 0x4553 JUMP JUMPDEST SWAP2 POP PUSH2 0x4606 PUSH1 0x60 DUP7 ADD PUSH2 0x45AC JUMP JUMPDEST SWAP1 POP SWAP3 SWAP6 SWAP2 SWAP5 POP SWAP3 POP JUMP JUMPDEST PUSH2 0xFFFF DUP2 AND DUP2 EQ PUSH2 0x4568 JUMPI PUSH1 0x0 DUP1 REVERT JUMPDEST PUSH5 0xFFFFFFFFFF DUP2 AND DUP2 EQ PUSH2 0x4568 JUMPI PUSH1 0x0 DUP1 REVERT JUMPDEST PUSH1 0x0 DUP1 PUSH1 0x40 DUP4 DUP6 SUB SLT ISZERO PUSH2 0x4647 JUMPI PUSH1 0x0 DUP1 REVERT JUMPDEST DUP3 CALLDATALOAD PUSH2 0x4652 DUP2 PUSH2 0x4611 JUMP JUMPDEST SWAP2 POP PUSH1 0x20 DUP4 ADD CALLDATALOAD PUSH2 0x4662 DUP2 PUSH2 0x4621 JUMP JUMPDEST DUP1 SWAP2 POP POP SWAP3 POP SWAP3 SWAP1 POP JUMP JUMPDEST PUSH1 0x0 DUP1 PUSH1 0x0 PUSH1 0x60 DUP5 DUP7 SUB SLT ISZERO PUSH2 0x4682 JUMPI PUSH1 0x0 DUP1 REVERT JUMPDEST DUP4 CALLDATALOAD PUSH2 0x468D DUP2 PUSH2 0x4553 JUMP JUMPDEST SWAP3 POP PUSH1 0x20 DUP5 ADD CALLDATALOAD PUSH2 0x469D DUP2 PUSH2 0x4553 JUMP JUMPDEST SWAP3 SWAP6 SWAP3 SWAP5 POP POP POP PUSH1 0x40 SWAP2 SWAP1 SWAP2 ADD CALLDATALOAD SWAP1 JUMP JUMPDEST PUSH1 0x0 DUP1 PUSH1 0x0 PUSH1 0x60 DUP5 DUP7 SUB SLT ISZERO PUSH2 0x46C3 JUMPI PUSH1 0x0 DUP1 REVERT JUMPDEST DUP4 CALLDATALOAD SWAP3 POP PUSH1 0x20 DUP5 ADD CALLDATALOAD PUSH2 0x46D5 DUP2 PUSH2 0x4553 JUMP JUMPDEST SWAP2 POP PUSH2 0x46E3 PUSH1 0x40 DUP6 ADD PUSH2 0x45AC JUMP JUMPDEST SWAP1 POP SWAP3 POP SWAP3 POP SWAP3 JUMP JUMPDEST PUSH1 0x0 PUSH1 0x20 DUP3 DUP5 SUB SLT ISZERO PUSH2 0x46FE JUMPI PUSH1 0x0 DUP1 REVERT JUMPDEST DUP2 CALLDATALOAD PUSH2 0x7AF DUP2 PUSH2 0x4553 JUMP JUMPDEST DUP1 ISZERO ISZERO DUP2 EQ PUSH2 0x4568 JUMPI PUSH1 0x0 DUP1 REVERT JUMPDEST PUSH1 0x0 PUSH1 0x20 DUP3 DUP5 SUB SLT ISZERO PUSH2 0x4729 JUMPI PUSH1 0x0 DUP1 REVERT JUMPDEST DUP2 CALLDATALOAD PUSH2 0x7AF DUP2 PUSH2 0x4709 JUMP JUMPDEST PUSH1 0x0 DUP1 PUSH1 0x40 DUP4 DUP6 SUB SLT ISZERO PUSH2 0x4747 JUMPI PUSH1 0x0 DUP1 REVERT JUMPDEST DUP3 CALLDATALOAD SWAP2 POP PUSH1 0x20 DUP4 ADD CALLDATALOAD PUSH2 0x4662 DUP2 PUSH2 0x4553 JUMP JUMPDEST PUSH1 0x0 DUP1 PUSH1 0x0 PUSH1 0x60 DUP5 DUP7 SUB SLT ISZERO PUSH2 0x476E JUMPI PUSH1 0x0 DUP1 REVERT JUMPDEST DUP4 CALLDATALOAD SWAP3 POP PUSH1 0x20 DUP5 ADD CALLDATALOAD PUSH2 0x4780 DUP2 PUSH2 0x4553 JUMP JUMPDEST SWAP2 POP PUSH1 0x40 DUP5 ADD CALLDATALOAD PUSH2 0x4790 DUP2 PUSH2 0x4553 JUMP JUMPDEST DUP1 SWAP2 POP POP SWAP3 POP SWAP3 POP SWAP3 JUMP JUMPDEST PUSH4 0x4E487B71 PUSH1 0xE0 SHL PUSH1 0x0 MSTORE PUSH1 0x41 PUSH1 0x4 MSTORE PUSH1 0x24 PUSH1 0x0 REVERT JUMPDEST PUSH1 0x40 MLOAD PUSH2 0x160 DUP2 ADD PUSH1 0x1 PUSH1 0x1 PUSH1 0x40 SHL SUB DUP2 GT DUP3 DUP3 LT OR ISZERO PUSH2 0x47D4 JUMPI PUSH2 0x47D4 PUSH2 0x479B JUMP JUMPDEST PUSH1 0x40 MSTORE SWAP1 JUMP JUMPDEST PUSH1 0x40 MLOAD PUSH1 0xC0 DUP2 ADD PUSH1 0x1 PUSH1 0x1 PUSH1 0x40 SHL SUB DUP2 GT DUP3 DUP3 LT OR ISZERO PUSH2 0x47D4 JUMPI PUSH2 0x47D4 PUSH2 0x479B JUMP JUMPDEST PUSH1 0x40 MLOAD PUSH1 0x1F DUP3 ADD PUSH1 0x1F NOT AND DUP2 ADD PUSH1 0x1 PUSH1 0x1 PUSH1 0x40 SHL SUB DUP2 GT DUP3 DUP3 LT OR ISZERO PUSH2 0x4824 JUMPI PUSH2 0x4824 PUSH2 0x479B JUMP JUMPDEST PUSH1 0x40 MSTORE SWAP2 SWAP1 POP JUMP JUMPDEST PUSH1 0x0 DUP1 DUP3 DUP5 SUB PUSH1 0xA0 DUP2 SLT ISZERO PUSH2 0x4840 JUMPI PUSH1 0x0 DUP1 REVERT JUMPDEST DUP4 CALLDATALOAD SWAP3 POP PUSH1 0x80 PUSH1 0x1F NOT DUP3 ADD SLT ISZERO PUSH2 0x4856 JUMPI PUSH1 0x0 DUP1 REVERT JUMPDEST POP PUSH1 0x40 MLOAD PUSH1 0x80 DUP2 ADD DUP2 DUP2 LT PUSH1 0x1 PUSH1 0x1 PUSH1 0x40 SHL SUB DUP3 GT OR ISZERO PUSH2 0x4879 JUMPI PUSH2 0x4879 PUSH2 0x479B JUMP JUMPDEST PUSH1 0x40 MSTORE PUSH1 0x20 DUP5 ADD CALLDATALOAD PUSH2 0x488A DUP2 PUSH2 0x4709 JUMP JUMPDEST DUP2 MSTORE PUSH1 0x40 DUP5 ADD CALLDATALOAD PUSH2 0x489A DUP2 PUSH2 0x4709 JUMP JUMPDEST PUSH1 0x20 DUP3 ADD MSTORE PUSH1 0x60 DUP5 ADD CALLDATALOAD PUSH2 0x48AD DUP2 PUSH2 0x4553 JUMP JUMPDEST PUSH1 0x40 DUP3 ADD MSTORE PUSH2 0x48BE PUSH1 0x80 DUP6 ADD PUSH2 0x45AC JUMP JUMPDEST PUSH1 0x60 DUP3 ADD MSTORE DUP1 SWAP2 POP POP SWAP3 POP SWAP3 SWAP1 POP JUMP JUMPDEST PUSH1 0x0 DUP1 PUSH1 0x40 DUP4 DUP6 SUB SLT ISZERO PUSH2 0x48E1 JUMPI PUSH1 0x0 DUP1 REVERT JUMPDEST DUP3 CALLDATALOAD PUSH2 0x48EC DUP2 PUSH2 0x4553 JUMP JUMPDEST SWAP2 POP PUSH1 0x20 DUP4 ADD CALLDATALOAD PUSH2 0x4662 DUP2 PUSH2 0x4553 JUMP JUMPDEST PUSH1 0x0 DUP1 PUSH1 0x0 DUP1 PUSH1 0x0 DUP1 PUSH1 0xA0 DUP8 DUP10 SUB SLT ISZERO PUSH2 0x4915 JUMPI PUSH1 0x0 DUP1 REVERT JUMPDEST DUP7 CALLDATALOAD PUSH2 0x4920 DUP2 PUSH2 0x4553 JUMP JUMPDEST SWAP6 POP PUSH1 0x20 DUP8 ADD CALLDATALOAD PUSH2 0x4930 DUP2 PUSH2 0x4553 JUMP JUMPDEST SWAP5 POP PUSH1 0x40 DUP8 ADD CALLDATALOAD SWAP4 POP PUSH1 0x60 DUP8 ADD CALLDATALOAD SWAP3 POP PUSH1 0x80 DUP8 ADD CALLDATALOAD PUSH1 0x1 PUSH1 0x1 PUSH1 0x40 SHL SUB DUP1 DUP3 GT ISZERO PUSH2 0x495A JUMPI PUSH1 0x0 DUP1 REVERT JUMPDEST DUP2 DUP10 ADD SWAP2 POP DUP10 PUSH1 0x1F DUP4 ADD SLT PUSH2 0x496E JUMPI PUSH1 0x0 DUP1 REVERT JUMPDEST DUP2 CALLDATALOAD DUP2 DUP2 GT ISZERO PUSH2 0x497D JUMPI PUSH1 0x0 DUP1 REVERT JUMPDEST DUP11 PUSH1 0x20 DUP3 DUP6 ADD ADD GT ISZERO PUSH2 0x498F JUMPI PUSH1 0x0 DUP1 REVERT JUMPDEST PUSH1 0x20 DUP4 ADD SWAP5 POP DUP1 SWAP4 POP POP POP POP SWAP3 SWAP6 POP SWAP3 SWAP6 POP SWAP3 SWAP6 JUMP JUMPDEST PUSH4 0x4E487B71 PUSH1 0xE0 SHL PUSH1 0x0 MSTORE PUSH1 0x21 PUSH1 0x4 MSTORE PUSH1 0x24 PUSH1 0x0 REVERT JUMPDEST PUSH1 0x1 PUSH1 0x1 PUSH1 0xA0 SHL SUB DUP5 AND DUP2 MSTORE PUSH1 0x20 DUP2 ADD DUP4 SWAP1 MSTORE PUSH1 0x60 DUP2 ADD PUSH1 0x6 DUP4 LT PUSH2 0x49E2 JUMPI PUSH2 0x49E2 PUSH2 0x49A5 JUMP JUMPDEST DUP3 PUSH1 0x40 DUP4 ADD MSTORE SWAP5 SWAP4 POP POP POP POP JUMP JUMPDEST PUSH1 0x1 DUP2 DUP2 SHR SWAP1 DUP3 AND DUP1 PUSH2 0x4A04 JUMPI PUSH1 0x7F DUP3 AND SWAP2 POP JUMPDEST PUSH1 0x20 DUP3 LT DUP2 SUB PUSH2 0x1594 JUMPI PUSH4 0x4E487B71 PUSH1 0xE0 SHL PUSH1 0x0 MSTORE PUSH1 0x22 PUSH1 0x4 MSTORE PUSH1 0x24 PUSH1 0x0 REVERT JUMPDEST PUSH4 0x4E487B71 PUSH1 0xE0 SHL PUSH1 0x0 MSTORE PUSH1 0x11 PUSH1 0x4 MSTORE PUSH1 0x24 PUSH1 0x0 REVERT JUMPDEST PUSH1 0x0 DUP2 PUSH1 0x0 NOT DIV DUP4 GT DUP3 ISZERO ISZERO AND ISZERO PUSH2 0x4A54 JUMPI PUSH2 0x4A54 PUSH2 0x4A24 JUMP JUMPDEST POP MUL SWAP1 JUMP JUMPDEST PUSH4 0x4E487B71 PUSH1 0xE0 SHL PUSH1 0x0 MSTORE PUSH1 0x12 PUSH1 0x4 MSTORE PUSH1 0x24 PUSH1 0x0 REVERT JUMPDEST PUSH1 0x0 DUP3 PUSH2 0x4A7E JUMPI PUSH2 0x4A7E PUSH2 0x4A59 JUMP JUMPDEST POP DIV SWAP1 JUMP JUMPDEST DUP1 MLOAD PUSH1 0xFF DUP2 AND DUP2 EQ PUSH2 0x8DD JUMPI PUSH1 0x0 DUP1 REVERT JUMPDEST PUSH1 0x0 DUP1 PUSH1 0x0 PUSH1 0x60 DUP5 DUP7 SUB SLT ISZERO PUSH2 0x4AA9 JUMPI PUSH1 0x0 DUP1 REVERT JUMPDEST DUP4 MLOAD PUSH2 0x4AB4 DUP2 PUSH2 0x4597 JUMP JUMPDEST SWAP3 POP PUSH2 0x4AC2 PUSH1 0x20 DUP6 ADD PUSH2 0x4A83 JUMP JUMPDEST SWAP2 POP PUSH1 0x40 DUP5 ADD MLOAD SWAP1 POP SWAP3 POP SWAP3 POP SWAP3 JUMP JUMPDEST PUSH1 0x0 PUSH1 0x1 PUSH1 0x1 PUSH1 0x40 SHL SUB DUP3 GT ISZERO PUSH2 0x4AEB JUMPI PUSH2 0x4AEB PUSH2 0x479B JUMP JUMPDEST POP PUSH1 0x5 SHL PUSH1 0x20 ADD SWAP1 JUMP JUMPDEST PUSH1 0x0 DUP3 PUSH1 0x1F DUP4 ADD SLT PUSH2 0x4B06 JUMPI PUSH1 0x0 DUP1 REVERT JUMPDEST DUP2 MLOAD PUSH1 0x20 PUSH2 0x4B1B PUSH2 0x4B16 DUP4 PUSH2 0x4AD2 JUMP JUMPDEST PUSH2 0x47FC JUMP JUMPDEST DUP3 DUP2 MSTORE PUSH1 0x5 SWAP3 SWAP1 SWAP3 SHL DUP5 ADD DUP2 ADD SWAP2 DUP2 DUP2 ADD SWAP1 DUP7 DUP5 GT ISZERO PUSH2 0x4B3A JUMPI PUSH1 0x0 DUP1 REVERT JUMPDEST DUP3 DUP7 ADD JUMPDEST DUP5 DUP2 LT ISZERO PUSH2 0x4B5C JUMPI PUSH2 0x4B4F DUP2 PUSH2 0x4A83 JUMP JUMPDEST DUP4 MSTORE SWAP2 DUP4 ADD SWAP2 DUP4 ADD PUSH2 0x4B3E JUMP JUMPDEST POP SWAP7 SWAP6 POP POP POP POP POP POP JUMP JUMPDEST PUSH1 0x0 PUSH1 0x20 DUP3 DUP5 SUB SLT ISZERO PUSH2 0x4B79 JUMPI PUSH1 0x0 DUP1 REVERT JUMPDEST DUP2 MLOAD PUSH1 0x1 PUSH1 0x1 PUSH1 0x40 SHL SUB DUP1 DUP3 GT ISZERO PUSH2 0x4B90 JUMPI PUSH1 0x0 DUP1 REVERT JUMPDEST SWAP1 DUP4 ADD SWAP1 PUSH2 0x160 DUP3 DUP7 SUB SLT ISZERO PUSH2 0x4BA5 JUMPI PUSH1 0x0 DUP1 REVERT JUMPDEST PUSH2 0x4BAD PUSH2 0x47B1 JUMP JUMPDEST PUSH2 0x4BB6 DUP4 PUSH2 0x4A83 JUMP JUMPDEST DUP2 MSTORE PUSH2 0x4BC4 PUSH1 0x20 DUP5 ADD PUSH2 0x4A83 JUMP JUMPDEST PUSH1 0x20 DUP3 ADD MSTORE PUSH2 0x4BD5 PUSH1 0x40 DUP5 ADD PUSH2 0x4A83 JUMP JUMPDEST PUSH1 0x40 DUP3 ADD MSTORE PUSH2 0x4BE6 PUSH1 0x60 DUP5 ADD PUSH2 0x4A83 JUMP JUMPDEST PUSH1 0x60 DUP3 ADD MSTORE PUSH2 0x4BF7 PUSH1 0x80 DUP5 ADD PUSH2 0x4A83 JUMP JUMPDEST PUSH1 0x80 DUP3 ADD MSTORE PUSH2 0x4C08 PUSH1 0xA0 DUP5 ADD PUSH2 0x4A83 JUMP JUMPDEST PUSH1 0xA0 DUP3 ADD MSTORE PUSH2 0x4C19 PUSH1 0xC0 DUP5 ADD PUSH2 0x4A83 JUMP JUMPDEST PUSH1 0xC0 DUP3 ADD MSTORE PUSH2 0x4C2A PUSH1 0xE0 DUP5 ADD PUSH2 0x4A83 JUMP JUMPDEST PUSH1 0xE0 DUP3 ADD MSTORE PUSH2 0x100 PUSH2 0x4C3D DUP2 DUP6 ADD PUSH2 0x4A83 JUMP JUMPDEST SWAP1 DUP3 ADD MSTORE PUSH2 0x120 DUP4 DUP2 ADD MLOAD DUP4 DUP2 GT ISZERO PUSH2 0x4C55 JUMPI PUSH1 0x0 DUP1 REVERT JUMPDEST PUSH2 0x4C61 DUP9 DUP3 DUP8 ADD PUSH2 0x4AF5 JUMP JUMPDEST DUP3 DUP5 ADD MSTORE POP POP PUSH2 0x140 DUP1 DUP5 ADD MLOAD DUP4 DUP2 GT ISZERO PUSH2 0x4C7B JUMPI PUSH1 0x0 DUP1 REVERT JUMPDEST PUSH2 0x4C87 DUP9 DUP3 DUP8 ADD PUSH2 0x4AF5 JUMP JUMPDEST SWAP2 DUP4 ADD SWAP2 SWAP1 SWAP2 MSTORE POP SWAP6 SWAP5 POP POP POP POP POP JUMP JUMPDEST PUSH1 0x0 PUSH1 0x20 DUP3 DUP5 SUB SLT ISZERO PUSH2 0x4CAA JUMPI PUSH1 0x0 DUP1 REVERT JUMPDEST DUP2 MLOAD PUSH1 0x1 PUSH1 0x1 PUSH1 0x40 SHL SUB DUP1 DUP3 GT ISZERO PUSH2 0x4CC1 JUMPI PUSH1 0x0 DUP1 REVERT JUMPDEST DUP2 DUP5 ADD SWAP2 POP DUP5 PUSH1 0x1F DUP4 ADD SLT PUSH2 0x4CD5 JUMPI PUSH1 0x0 DUP1 REVERT JUMPDEST DUP2 MLOAD DUP2 DUP2 GT ISZERO PUSH2 0x4CE7 JUMPI PUSH2 0x4CE7 PUSH2 0x479B JUMP JUMPDEST PUSH2 0x4CFA PUSH1 0x1F DUP3 ADD PUSH1 0x1F NOT AND PUSH1 0x20 ADD PUSH2 0x47FC JUMP JUMPDEST SWAP2 POP DUP1 DUP3 MSTORE DUP6 PUSH1 0x20 DUP3 DUP6 ADD ADD GT ISZERO PUSH2 0x4D11 JUMPI PUSH1 0x0 DUP1 REVERT JUMPDEST PUSH2 0x3813 DUP2 PUSH1 0x20 DUP5 ADD PUSH1 0x20 DUP7 ADD PUSH2 0x44DB JUMP JUMPDEST PUSH9 0x2BB930B83832B21033 PUSH1 0xB9 SHL DUP2 MSTORE PUSH1 0x0 DUP4 MLOAD PUSH2 0x4D46 DUP2 PUSH1 0x9 DUP6 ADD PUSH1 0x20 DUP9 ADD PUSH2 0x44DB JUMP JUMPDEST PUSH3 0x10201 PUSH1 0xED SHL PUSH1 0x9 SWAP2 DUP5 ADD SWAP2 DUP3 ADD MSTORE DUP4 MLOAD PUSH2 0x4D69 DUP2 PUSH1 0xC DUP5 ADD PUSH1 0x20 DUP9 ADD PUSH2 0x44DB JUMP JUMPDEST ADD PUSH1 0xC ADD SWAP5 SWAP4 POP POP POP POP JUMP JUMPDEST PUSH2 0x3BB3 PUSH1 0xF1 SHL DUP2 MSTORE PUSH1 0x0 DUP4 MLOAD PUSH2 0x4D92 DUP2 PUSH1 0x2 DUP6 ADD PUSH1 0x20 DUP9 ADD PUSH2 0x44DB JUMP JUMPDEST PUSH1 0x1D PUSH1 0xF9 SHL PUSH1 0x2 SWAP2 DUP5 ADD SWAP2 DUP3 ADD MSTORE DUP4 MLOAD PUSH2 0x4DB3 DUP2 PUSH1 0x3 DUP5 ADD PUSH1 0x20 DUP9 ADD PUSH2 0x44DB JUMP JUMPDEST ADD PUSH1 0x3 ADD SWAP5 SWAP4 POP POP POP POP JUMP JUMPDEST PUSH1 0x0 DUP3 NOT DUP3 GT ISZERO PUSH2 0x4DD2 JUMPI PUSH2 0x4DD2 PUSH2 0x4A24 JUMP JUMPDEST POP ADD SWAP1 JUMP JUMPDEST PUSH1 0x0 DUP1 PUSH1 0x0 DUP1 PUSH1 0x80 DUP6 DUP8 SUB SLT ISZERO PUSH2 0x4DED JUMPI PUSH1 0x0 DUP1 REVERT JUMPDEST DUP5 MLOAD SWAP4 POP PUSH1 0x20 DUP6 ADD MLOAD SWAP3 POP PUSH2 0x4E04 PUSH1 0x40 DUP7 ADD PUSH2 0x4A83 JUMP JUMPDEST PUSH1 0x60 SWAP6 SWAP1 SWAP6 ADD MLOAD SWAP4 SWAP7 SWAP3 SWAP6 POP POP POP JUMP JUMPDEST PUSH1 0x0 PUSH1 0x20 DUP3 DUP5 SUB SLT ISZERO PUSH2 0x4E26 JUMPI PUSH1 0x0 DUP1 REVERT JUMPDEST POP MLOAD SWAP2 SWAP1 POP JUMP JUMPDEST PUSH1 0x0 DUP3 DUP3 LT ISZERO PUSH2 0x4E3F JUMPI PUSH2 0x4E3F PUSH2 0x4A24 JUMP JUMPDEST POP SUB SWAP1 JUMP JUMPDEST PUSH1 0x0 PUSH1 0x20 DUP3 DUP5 SUB SLT ISZERO PUSH2 0x4E56 JUMPI PUSH1 0x0 DUP1 REVERT JUMPDEST DUP2 MLOAD PUSH2 0x7AF DUP2 PUSH2 0x4553 JUMP JUMPDEST PUSH1 0x1 PUSH1 0x1 PUSH1 0xA0 SHL SUB SWAP5 DUP6 AND DUP2 MSTORE SWAP3 SWAP1 SWAP4 AND PUSH1 0x20 DUP4 ADD MSTORE PUSH1 0x40 DUP3 ADD MSTORE PUSH1 0x60 DUP2 ADD SWAP2 SWAP1 SWAP2 MSTORE PUSH1 0xA0 PUSH1 0x80 DUP3 ADD DUP2 SWAP1 MSTORE PUSH1 0x0 SWAP1 DUP3 ADD MSTORE PUSH1 0xC0 ADD SWAP1 JUMP JUMPDEST PUSH1 0x0 PUSH1 0xA0 DUP3 DUP5 SUB SLT ISZERO PUSH2 0x4EAB JUMPI PUSH1 0x0 DUP1 REVERT JUMPDEST PUSH1 0x40 MLOAD PUSH1 0xA0 DUP2 ADD DUP2 DUP2 LT PUSH1 0x1 PUSH1 0x1 PUSH1 0x40 SHL SUB DUP3 GT OR ISZERO PUSH2 0x4ECD JUMPI PUSH2 0x4ECD PUSH2 0x479B JUMP JUMPDEST PUSH1 0x40 MSTORE DUP3 MLOAD PUSH2 0x4EDB DUP2 PUSH2 0x4621 JUMP JUMPDEST DUP2 MSTORE PUSH1 0x20 DUP4 ADD MLOAD PUSH1 0x1 PUSH1 0x1 PUSH1 0xF8 SHL SUB NOT DUP2 AND DUP2 EQ PUSH2 0x4EF8 JUMPI PUSH1 0x0 DUP1 REVERT JUMPDEST PUSH1 0x20 DUP3 ADD MSTORE PUSH2 0x4F09 PUSH1 0x40 DUP5 ADD PUSH2 0x4A83 JUMP JUMPDEST PUSH1 0x40 DUP3 ADD MSTORE PUSH1 0x60 DUP4 ADD MLOAD PUSH2 0x4F1C DUP2 PUSH2 0x4611 JUMP JUMPDEST PUSH1 0x60 DUP3 ADD MSTORE PUSH1 0x80 DUP4 ADD MLOAD PUSH14 0xFFFFFFFFFFFFFFFFFFFFFFFFFFFF NOT DUP2 AND DUP2 EQ PUSH2 0x4F43 JUMPI PUSH1 0x0 DUP1 REVERT JUMPDEST PUSH1 0x80 DUP3 ADD MSTORE SWAP4 SWAP3 POP POP POP JUMP JUMPDEST PUSH1 0x0 PUSH1 0xA0 DUP3 DUP5 SUB SLT ISZERO PUSH2 0x4F61 JUMPI PUSH1 0x0 DUP1 REVERT JUMPDEST PUSH1 0x40 MLOAD PUSH1 0xA0 DUP2 ADD DUP2 DUP2 LT PUSH1 0x1 PUSH1 0x1 PUSH1 0x40 SHL SUB DUP3 GT OR ISZERO PUSH2 0x4F83 JUMPI PUSH2 0x4F83 PUSH2 0x479B JUMP JUMPDEST DUP1 PUSH1 0x40 MSTORE POP DUP1 SWAP2 POP DUP3 MLOAD PUSH2 0x4F96 DUP2 PUSH2 0x4553 JUMP JUMPDEST DUP2 MSTORE PUSH1 0x20 DUP4 ADD MLOAD PUSH2 0x4FA6 DUP2 PUSH2 0x4709 JUMP JUMPDEST PUSH1 0x20 DUP3 ADD MSTORE PUSH1 0x40 DUP4 DUP2 ADD MLOAD SWAP1 DUP3 ADD MSTORE PUSH1 0x60 DUP4 ADD MLOAD PUSH1 0x6 DUP2 LT PUSH2 0x4FC7 JUMPI PUSH1 0x0 DUP1 REVERT JUMPDEST PUSH1 0x60 DUP3 ADD MSTORE PUSH1 0x80 SWAP3 DUP4 ADD MLOAD SWAP3 ADD SWAP2 SWAP1 SWAP2 MSTORE SWAP2 SWAP1 POP JUMP JUMPDEST PUSH1 0x0 DUP1 PUSH2 0x140 DUP4 DUP6 SUB SLT ISZERO PUSH2 0x4FF1 JUMPI PUSH1 0x0 DUP1 REVERT JUMPDEST PUSH2 0x4FFB DUP5 DUP5 PUSH2 0x4F4F JUMP JUMPDEST SWAP2 POP PUSH2 0x500A DUP5 PUSH1 0xA0 DUP6 ADD PUSH2 0x4F4F JUMP JUMPDEST SWAP1 POP SWAP3 POP SWAP3 SWAP1 POP JUMP JUMPDEST PUSH1 0x20 DUP1 DUP3 MSTORE PUSH1 0x1F SWAP1 DUP3 ADD MSTORE PUSH32 0x5265656E7472616E637947756172643A207265656E7472616E742063616C6C00 PUSH1 0x40 DUP3 ADD MSTORE PUSH1 0x60 ADD SWAP1 JUMP JUMPDEST PUSH1 0x20 DUP1 DUP3 MSTORE PUSH1 0x7 SWAP1 DUP3 ADD MSTORE PUSH7 0x125B9D985B1A59 PUSH1 0xCA SHL PUSH1 0x40 DUP3 ADD MSTORE PUSH1 0x60 ADD SWAP1 JUMP JUMPDEST PUSH1 0x0 PUSH1 0x20 DUP1 DUP4 DUP6 SUB SLT ISZERO PUSH2 0x507E JUMPI PUSH1 0x0 DUP1 REVERT JUMPDEST DUP3 MLOAD PUSH1 0x1 PUSH1 0x1 PUSH1 0x40 SHL SUB DUP2 GT ISZERO PUSH2 0x5094 JUMPI PUSH1 0x0 DUP1 REVERT JUMPDEST DUP4 ADD PUSH1 0x1F DUP2 ADD DUP6 SGT PUSH2 0x50A5 JUMPI PUSH1 0x0 DUP1 REVERT JUMPDEST DUP1 MLOAD PUSH2 0x50B3 PUSH2 0x4B16 DUP3 PUSH2 0x4AD2 JUMP JUMPDEST DUP2 DUP2 MSTORE PUSH1 0xC0 SWAP2 DUP3 MUL DUP4 ADD DUP5 ADD SWAP2 DUP5 DUP3 ADD SWAP2 SWAP1 DUP9 DUP5 GT ISZERO PUSH2 0x50D2 JUMPI PUSH1 0x0 DUP1 REVERT JUMPDEST SWAP4 DUP6 ADD SWAP4 JUMPDEST DUP4 DUP6 LT ISZERO PUSH2 0x5148 JUMPI DUP1 DUP6 DUP11 SUB SLT ISZERO PUSH2 0x50EF JUMPI PUSH1 0x0 DUP1 DUP2 REVERT JUMPDEST PUSH2 0x50F7 PUSH2 0x47DA JUMP JUMPDEST DUP6 MLOAD DUP2 MSTORE DUP7 DUP7 ADD MLOAD DUP8 DUP3 ADD MSTORE PUSH1 0x40 DUP1 DUP8 ADD MLOAD SWAP1 DUP3 ADD MSTORE PUSH1 0x60 DUP1 DUP8 ADD MLOAD SWAP1 DUP3 ADD MSTORE PUSH1 0x80 DUP1 DUP8 ADD MLOAD SWAP1 DUP3 ADD MSTORE PUSH1 0xA0 DUP1 DUP8 ADD MLOAD PUSH1 0x3 DUP2 LT PUSH2 0x5135 JUMPI PUSH1 0x0 DUP1 DUP2 REVERT JUMPDEST SWAP1 DUP3 ADD MSTORE DUP4 MSTORE SWAP4 DUP5 ADD SWAP4 SWAP2 DUP6 ADD SWAP2 PUSH2 0x50D7 JUMP JUMPDEST POP SWAP8 SWAP7 POP POP POP POP POP POP POP JUMP JUMPDEST PUSH4 0x4E487B71 PUSH1 0xE0 SHL PUSH1 0x0 MSTORE PUSH1 0x32 PUSH1 0x4 MSTORE PUSH1 0x24 PUSH1 0x0 REVERT JUMPDEST PUSH1 0x0 PUSH1 0x1 PUSH1 0x1 PUSH1 0xFF SHL SUB DUP2 DUP5 SGT DUP3 DUP5 SGT DUP1 DUP3 AND DUP7 DUP5 DIV DUP7 GT AND ISZERO PUSH2 0x5190 JUMPI PUSH2 0x5190 PUSH2 0x4A24 JUMP JUMPDEST PUSH1 0x1 PUSH1 0xFF SHL PUSH1 0x0 DUP8 SLT DUP3 DUP2 AND DUP8 DUP4 SDIV DUP10 SLT AND ISZERO PUSH2 0x51AF JUMPI PUSH2 0x51AF PUSH2 0x4A24 JUMP JUMPDEST PUSH1 0x0 DUP8 SLT SWAP3 POP DUP8 DUP3 SDIV DUP8 SLT DUP5 DUP5 AND AND ISZERO PUSH2 0x51CB JUMPI PUSH2 0x51CB PUSH2 0x4A24 JUMP JUMPDEST DUP8 DUP6 SDIV DUP8 SLT DUP2 DUP5 AND AND ISZERO PUSH2 0x51E1 JUMPI PUSH2 0x51E1 PUSH2 0x4A24 JUMP JUMPDEST POP POP POP SWAP3 SWAP1 SWAP4 MUL SWAP4 SWAP3 POP POP POP JUMP JUMPDEST PUSH1 0x0 DUP3 PUSH2 0x51FE JUMPI PUSH2 0x51FE PUSH2 0x4A59 JUMP JUMPDEST PUSH1 0x1 PUSH1 0xFF SHL DUP3 EQ PUSH1 0x0 NOT DUP5 EQ AND ISZERO PUSH2 0x5218 JUMPI PUSH2 0x5218 PUSH2 0x4A24 JUMP JUMPDEST POP SDIV SWAP1 JUMP JUMPDEST PUSH1 0x0 DUP1 PUSH1 0x0 PUSH1 0x60 DUP5 DUP7 SUB SLT ISZERO PUSH2 0x5232 JUMPI PUSH1 0x0 DUP1 REVERT JUMPDEST DUP4 MLOAD SWAP3 POP PUSH1 0x20 DUP5 ADD MLOAD SWAP2 POP PUSH1 0x40 DUP5 ADD MLOAD SWAP1 POP SWAP3 POP SWAP3 POP SWAP3 JUMP JUMPDEST PUSH1 0x0 PUSH1 0x20 DUP3 DUP5 SUB SLT ISZERO PUSH2 0x525D JUMPI PUSH1 0x0 DUP1 REVERT JUMPDEST DUP2 MLOAD PUSH2 0x7AF DUP2 PUSH2 0x4709 JUMP JUMPDEST PUSH1 0x0 DUP2 MLOAD DUP1 DUP5 MSTORE PUSH1 0x20 DUP1 DUP6 ADD SWAP5 POP DUP1 DUP5 ADD PUSH1 0x0 JUMPDEST DUP4 DUP2 LT ISZERO PUSH2 0x5298 JUMPI DUP2 MLOAD DUP8 MSTORE SWAP6 DUP3 ADD SWAP6 SWAP1 DUP3 ADD SWAP1 PUSH1 0x1 ADD PUSH2 0x527C JUMP JUMPDEST POP SWAP5 SWAP6 SWAP5 POP POP POP POP POP JUMP JUMPDEST PUSH1 0x1 PUSH1 0x1 PUSH1 0xA0 SHL SUB DUP4 AND DUP2 MSTORE PUSH1 0x40 PUSH1 0x20 DUP1 DUP4 ADD DUP3 SWAP1 MSTORE DUP4 MLOAD DUP4 DUP4 ADD DUP2 SWAP1 MSTORE PUSH1 0x0 SWAP3 SWAP2 PUSH1 0x60 SWAP2 DUP3 DUP7 ADD SWAP1 PUSH1 0x5 DUP2 SWAP1 SHL DUP8 ADD DUP5 ADD DUP9 DUP5 ADD DUP8 JUMPDEST DUP4 DUP2 LT ISZERO PUSH2 0x5363 JUMPI PUSH1 0x5F NOT DUP11 DUP5 SUB ADD DUP6 MSTORE DUP2 MLOAD PUSH1 0xE0 DUP2 MLOAD PUSH1 0x7 DUP2 LT PUSH2 0x5301 JUMPI PUSH2 0x5301 PUSH2 0x49A5 JUMP JUMPDEST DUP6 MSTORE DUP2 DUP9 ADD MLOAD PUSH2 0xFFFF AND DUP9 DUP7 ADD MSTORE DUP10 DUP3 ADD MLOAD DUP11 DUP7 ADD MSTORE DUP9 DUP3 ADD MLOAD DUP10 DUP7 ADD MSTORE PUSH1 0x80 DUP1 DUP4 ADD MLOAD ISZERO ISZERO SWAP1 DUP7 ADD MSTORE PUSH1 0xA0 DUP1 DUP4 ADD MLOAD ISZERO ISZERO SWAP1 DUP7 ADD MSTORE PUSH1 0xC0 SWAP2 DUP3 ADD MLOAD SWAP2 DUP6 ADD DUP2 SWAP1 MSTORE PUSH2 0x534F DUP2 DUP7 ADD DUP4 PUSH2 0x5268 JUMP JUMPDEST SWAP7 DUP9 ADD SWAP7 SWAP5 POP POP POP SWAP1 DUP6 ADD SWAP1 PUSH1 0x1 ADD PUSH2 0x52DA JUMP JUMPDEST POP SWAP1 SWAP11 SWAP10 POP POP POP POP POP POP POP POP POP POP JUMP JUMPDEST PUSH1 0x1 PUSH1 0x1 PUSH1 0xA0 SHL SUB DUP4 AND DUP2 MSTORE PUSH1 0x40 PUSH1 0x20 DUP1 DUP4 ADD DUP3 SWAP1 MSTORE DUP4 MLOAD DUP4 DUP4 ADD DUP2 SWAP1 MSTORE PUSH1 0x0 SWAP3 SWAP2 PUSH1 0x60 SWAP2 DUP3 DUP7 ADD SWAP1 PUSH1 0x5 DUP2 SWAP1 SHL DUP8 ADD DUP5 ADD DUP9 DUP5 ADD DUP8 JUMPDEST DUP4 DUP2 LT ISZERO PUSH2 0x5363 JUMPI DUP10 DUP4 SUB PUSH1 0x5F NOT ADD DUP6 MSTORE DUP2 MLOAD DUP1 MLOAD PUSH2 0xFFFF AND DUP5 MSTORE DUP7 DUP2 ADD MLOAD ISZERO ISZERO DUP8 DUP6 ADD MSTORE DUP9 ADD MLOAD DUP9 DUP5 ADD DUP9 SWAP1 MSTORE PUSH2 0x53E4 DUP9 DUP6 ADD DUP3 PUSH2 0x5268 JUMP JUMPDEST SWAP6 DUP8 ADD SWAP6 SWAP4 POP POP SWAP1 DUP6 ADD SWAP1 PUSH1 0x1 ADD PUSH2 0x53AA JUMP JUMPDEST PUSH1 0x0 PUSH1 0x1 DUP3 ADD PUSH2 0x5409 JUMPI PUSH2 0x5409 PUSH2 0x4A24 JUMP JUMPDEST POP PUSH1 0x1 ADD SWAP1 JUMP JUMPDEST PUSH1 0x0 DUP3 PUSH2 0x541F JUMPI PUSH2 0x541F PUSH2 0x4A59 JUMP JUMPDEST POP MOD SWAP1 JUMP JUMPDEST PUSH1 0x20 DUP1 DUP3 MSTORE PUSH1 0x2B SWAP1 DUP3 ADD MSTORE PUSH32 0x496E697469616C697A61626C653A20636F6E7472616374206973206E6F742069 PUSH1 0x40 DUP3 ADD MSTORE PUSH11 0x6E697469616C697A696E67 PUSH1 0xA8 SHL PUSH1 0x60 DUP3 ADD MSTORE PUSH1 0x80 ADD SWAP1 JUMP JUMPDEST PUSH1 0x1F DUP3 GT ISZERO PUSH2 0xD2E JUMPI PUSH1 0x0 DUP2 DUP2 MSTORE PUSH1 0x20 DUP2 KECCAK256 PUSH1 0x1F DUP6 ADD PUSH1 0x5 SHR DUP2 ADD PUSH1 0x20 DUP7 LT ISZERO PUSH2 0x5496 JUMPI POP DUP1 JUMPDEST PUSH1 0x1F DUP6 ADD PUSH1 0x5 SHR DUP3 ADD SWAP2 POP JUMPDEST DUP2 DUP2 LT ISZERO PUSH2 0x54B5 JUMPI DUP3 DUP2 SSTORE PUSH1 0x1 ADD PUSH2 0x54A2 JUMP JUMPDEST POP POP POP POP POP POP JUMP JUMPDEST DUP2 MLOAD PUSH1 0x1 PUSH1 0x1 PUSH1 0x40 SHL SUB DUP2 GT ISZERO PUSH2 0x54D6 JUMPI PUSH2 0x54D6 PUSH2 0x479B JUMP JUMPDEST PUSH2 0x54EA DUP2 PUSH2 0x54E4 DUP5 SLOAD PUSH2 0x49F0 JUMP JUMPDEST DUP5 PUSH2 0x546F JUMP JUMPDEST PUSH1 0x20 DUP1 PUSH1 0x1F DUP4 GT PUSH1 0x1 DUP2 EQ PUSH2 0x551F JUMPI PUSH1 0x0 DUP5 ISZERO PUSH2 0x5507 JUMPI POP DUP6 DUP4 ADD MLOAD JUMPDEST PUSH1 0x0 NOT PUSH1 0x3 DUP7 SWAP1 SHL SHR NOT AND PUSH1 0x1 DUP6 SWAP1 SHL OR DUP6 SSTORE PUSH2 0x54B5 JUMP JUMPDEST PUSH1 0x0 DUP6 DUP2 MSTORE PUSH1 0x20 DUP2 KECCAK256 PUSH1 0x1F NOT DUP7 AND SWAP2 JUMPDEST DUP3 DUP2 LT ISZERO PUSH2 0x554E JUMPI DUP9 DUP7 ADD MLOAD DUP3 SSTORE SWAP5 DUP5 ADD SWAP5 PUSH1 0x1 SWAP1 SWAP2 ADD SWAP1 DUP5 ADD PUSH2 0x552F JUMP JUMPDEST POP DUP6 DUP3 LT ISZERO PUSH2 0x556C JUMPI DUP8 DUP6 ADD MLOAD PUSH1 0x0 NOT PUSH1 0x3 DUP9 SWAP1 SHL PUSH1 0xF8 AND SHR NOT AND DUP2 SSTORE JUMPDEST POP POP POP POP POP PUSH1 0x1 SWAP1 DUP2 SHL ADD SWAP1 SSTORE POP JUMP JUMPDEST PUSH1 0x0 DUP3 MLOAD PUSH2 0x558E DUP2 DUP5 PUSH1 0x20 DUP8 ADD PUSH2 0x44DB JUMP JUMPDEST SWAP2 SWAP1 SWAP2 ADD SWAP3 SWAP2 POP POP JUMP INVALID LOG2 PUSH5 0x6970667358 0x22 SLT KECCAK256 PUSH16 0xE4679719393B74B753C63206FEC66ADD SWAP16 PUSH24 0x1ABC06034DBA3755D60DEA557E64736F6C634300080F0033 ",
  "sha1": "2f620918261432f209983d05fceb92374040be5f",
  "source": "// SPDX-License-Identifier: MIT\npragma solidity 0.8.15;\n\nimport \"./wfCashLogic.sol\";\nimport \"../interfaces/IERC4626.sol\";\n\ncontract wfCashERC4626 is IERC4626, wfCashLogic {\n    constructor(INotionalV2 _notional, WETH9 _weth) wfCashLogic(_notional, _weth) {}\n\n    /** @dev See {IERC4626-asset} */\n    function asset() public view override returns (address) {\n        (IERC20 underlyingToken, bool isETH) = getToken(true);\n        return isETH ? address(WETH) : address(underlyingToken);\n    }\n\n    function _getMaturedValue() private view returns (uint256) {\n        // If the fCash has matured we use the cash balance instead.\n        uint16 currencyId = getCurrencyId();\n        // We cannot settle an account in a view method, so this may fail if the account has not been settled\n        // after maturity. This can be done by anyone so it should not be an issue\n        (int256 cashBalance, /* */, /* */) = NotionalV2.getAccountBalance(currencyId, address(this));\n        int256 underlyingExternal = NotionalV2.convertCashBalanceToExternal(currencyId, cashBalance, true);\n        require(underlyingExternal > 0, \"Must Settle\");\n\n        return uint256(underlyingExternal);\n    }\n\n    function _getPresentValue(uint256 fCashAmount) private view returns (uint256) {\n        (/* */, int256 precision) = getUnderlyingToken();\n        // Get the present value of the fCash held by the contract, this is returned in 8 decimal precision\n        (uint16 currencyId, uint40 maturity) = getDecodedID();\n        int256 pvInternal = NotionalV2.getPresentfCashValue(\n            currencyId,\n            maturity,\n            int256(fCashAmount), // total supply cannot overflow as fCash overflows at uint88\n            block.timestamp,\n            false\n        );\n\n        int256 pvExternal = (pvInternal * precision) / Constants.INTERNAL_TOKEN_PRECISION;\n        // PV should always be >= 0 since we are lending\n        require(pvExternal >= 0);\n        return uint256(pvExternal);\n    }\n\n    /** @dev See {IERC4626-totalAssets} */\n    function totalAssets() public view override returns (uint256) {\n        return hasMatured() ?  _getMaturedValue() : _getPresentValue(totalSupply());\n    }\n\n    /** @dev See {IERC4626-convertToShares} */\n    function convertToShares(uint256 assets) public view override returns (uint256 shares) {\n        uint256 supply = totalSupply();\n        if (supply == 0) {\n            // Scales assets by the value of a single unit of fCash\n            uint256 unitfCashValue = _getPresentValue(uint256(Constants.INTERNAL_TOKEN_PRECISION));\n            return (assets * uint256(Constants.INTERNAL_TOKEN_PRECISION)) / unitfCashValue;\n        }\n\n        return (assets * supply) / totalAssets();\n    }\n\n    /** @dev See {IERC4626-convertToAssets} */\n    function convertToAssets(uint256 shares) public view override returns (uint256 assets) {\n        uint256 supply = totalSupply();\n        if (supply == 0) {\n            // Catch the edge case where totalSupply causes a divide by zero error\n            return _getPresentValue(shares);\n        }\n\n        return (shares * totalAssets()) / supply;\n    }\n\n    /** @dev See {IERC4626-maxDeposit} */\n    function maxDeposit(address) external view override returns (uint256) {\n        return hasMatured() ? 0 : type(uint256).max;\n    }\n\n    /** @dev See {IERC4626-maxMint} */\n    function maxMint(address) external view override returns (uint256) {\n        return hasMatured() ? 0 : type(uint88).max;\n    }\n\n    /** @dev See {IERC4626-maxWithdraw} */\n    function maxWithdraw(address owner) external view override returns (uint256) {\n        return previewWithdraw(balanceOf(owner));\n    }\n\n    /** @dev See {IERC4626-maxRedeem} */\n    function maxRedeem(address owner) external view override returns (uint256) {\n        return balanceOf(owner);\n    }\n\n    /** @dev See {IERC4626-previewDeposit} */\n    function previewDeposit(uint256 assets) public view override returns (uint256) {\n        if (hasMatured()) {\n            return 0;\n        } else {\n            // This is how much fCash received from depositing assets\n            (uint16 currencyId, uint40 maturity) = getDecodedID();\n            (uint256 fCashAmount, /* */, /* */) = NotionalV2.getfCashLendFromDeposit(\n                currencyId,\n                assets,\n                maturity,\n                0,\n                block.timestamp,\n                true\n            );\n\n            return fCashAmount;\n        }\n    }\n\n    /** @dev See {IERC4626-previewMint} */\n    function previewMint(uint256 shares) public view override returns (uint256) {\n        if (hasMatured()) {\n            return 0;\n        } else {\n            // This is how much fCash received from depositing assets\n            (uint16 currencyId, uint40 maturity) = getDecodedID();\n            // This method will round up when calculating the depositAmountUnderlying (happens inside\n            // CalculationViews._convertToAmountExternal).\n            (uint256 depositAmountUnderlying, /* */, /* */, /* */) = NotionalV2.getDepositFromfCashLend(\n                currencyId,\n                shares,\n                maturity,\n                0,\n                block.timestamp\n            );\n\n            return depositAmountUnderlying;\n        }\n    }\n\n    /** @dev See {IERC4626-previewWithdraw} */\n    function previewWithdraw(uint256 assets) public view override returns (uint256 shares) {\n        // Although the ERC4626 standard suggests that shares is rounded up in this calculation,\n        // it would not have much of an effect for wrapped fCash in practice. The actual amount\n        // of assets returned to the user is not dictated by the `assets` parameter supplied here\n        // but is actually calculated inside _burnInternal (rounding against the user) when fCash\n        // has matured or inside the NotionalV2 AMM when withdrawing fCash early. In either case,\n        // the number of shares returned here will be burned exactly and the user will receive close\n        // to the assets input, but not exactly.\n        if (hasMatured()) {\n            shares = convertToShares(assets);\n        } else {\n            // If withdrawing non-matured assets, we sell them on the market (i.e. borrow)\n            (uint16 currencyId, uint40 maturity) = getDecodedID();\n            (shares, /* */, /* */) = NotionalV2.getfCashBorrowFromPrincipal(\n                currencyId,\n                assets,\n                maturity,\n                0,\n                block.timestamp,\n                true\n            );\n        }\n    }\n\n    /** @dev See {IERC4626-previewRedeem} */\n    function previewRedeem(uint256 shares) public view override returns (uint256 assets) {\n        if (hasMatured()) {\n            assets = convertToAssets(shares);\n        } else {\n            // If withdrawing non-matured assets, we sell them on the market (i.e. borrow)\n            (uint16 currencyId, uint40 maturity) = getDecodedID();\n            (assets, /* */, /* */, /* */) = NotionalV2.getPrincipalFromfCashBorrow(\n                currencyId,\n                shares,\n                maturity,\n                0,\n                block.timestamp\n            );\n        }\n    }\n\n    /** @dev See {IERC4626-deposit} */\n    function deposit(uint256 assets, address receiver) external override returns (uint256) {\n        uint256 shares = previewDeposit(assets);\n        // Will revert if matured\n        _mintInternal(assets, _safeUint88(shares), receiver, 0, true);\n        emit Deposit(msg.sender, receiver, assets, shares);\n        return shares;\n    }\n\n    /** @dev See {IERC4626-mint} */\n    function mint(uint256 shares, address receiver) external override returns (uint256) {\n        uint256 assets = previewMint(shares);\n        // Will revert if matured\n        _mintInternal(assets, _safeUint88(shares), receiver, 0, true);\n        emit Deposit(msg.sender, receiver, assets, shares);\n        return assets;\n    }\n\n    /** @dev See {IERC4626-withdraw} */\n    function withdraw(\n        uint256 assets,\n        address receiver,\n        address owner\n    ) external override returns (uint256) {\n        // This is a noop if the account has already been settled, cheaper to call this than cache\n        // it locally in storage.\n        NotionalV2.settleAccount(address(this));\n\n        uint256 shares = previewWithdraw(assets);\n\n        if (msg.sender != owner) {\n            _spendAllowance(owner, msg.sender, shares);\n        }\n        _redeemInternal(shares, receiver, owner);\n\n        emit Withdraw(msg.sender, receiver, owner, assets, shares);\n\n        return shares;\n    }\n\n    /** @dev See {IERC4626-redeem} */\n    function redeem(\n        uint256 shares,\n        address receiver,\n        address owner\n    ) external override returns (uint256) {\n        // It is more accurate and gas efficient to check the balance of the\n        // receiver here than rely on the previewRedeem method.\n        IERC20 token = IERC20(asset());\n        uint256 balanceBefore = token.balanceOf(receiver);\n\n        if (msg.sender != owner) {\n            _spendAllowance(owner, msg.sender, shares);\n        }\n        _redeemInternal(shares, receiver, owner);\n\n        uint256 balanceAfter = token.balanceOf(receiver);\n        uint256 assets = balanceAfter - balanceBefore;\n        emit Withdraw(msg.sender, receiver, owner, assets, shares);\n        return assets;\n    }\n\n    function _redeemInternal(\n        uint256 shares,\n        address receiver,\n        address owner\n    ) private {\n        _burnInternal(\n            owner,\n            shares,\n            RedeemOpts({\n                redeemToUnderlying: true,\n                transferfCash: false,\n                receiver: receiver,\n                maxImpliedRate: 0\n            })\n        );\n    }\n}",
  "sourcePath": "contracts/wfCashERC4626.sol",
  "type": "contract"
}