{
  "abi": [
    {
      "inputs": [
        {
          "internalType": "address",
          "name": "_beacon",
          "type": "address"
        }
      ],
      "stateMutability": "nonpayable",
      "type": "constructor"
    },
    {
      "anonymous": false,
      "inputs": [
        {
          "indexed": false,
          "internalType": "uint16",
          "name": "currencyId",
          "type": "uint16"
        },
        {
          "indexed": false,
          "internalType": "uint40",
          "name": "maturity",
          "type": "uint40"
        },
        {
          "indexed": false,
          "internalType": "address",
          "name": "wrapper",
          "type": "address"
        }
      ],
      "name": "WrapperDeployed",
      "type": "event"
    },
    {
      "inputs": [],
      "name": "BEACON",
      "outputs": [
        {
          "internalType": "address",
          "name": "",
          "type": "address"
        }
      ],
      "stateMutability": "view",
      "type": "function"
    },
    {
      "inputs": [],
      "name": "SALT",
      "outputs": [
        {
          "internalType": "bytes32",
          "name": "",
          "type": "bytes32"
        }
      ],
      "stateMutability": "view",
      "type": "function"
    },
    {
      "inputs": [
        {
          "internalType": "uint16",
          "name": "currencyId",
          "type": "uint16"
        },
        {
          "internalType": "uint40",
          "name": "maturity",
          "type": "uint40"
        }
      ],
      "name": "computeAddress",
      "outputs": [
        {
          "internalType": "address",
          "name": "",
          "type": "address"
        }
      ],
      "stateMutability": "view",
      "type": "function"
    },
    {
      "inputs": [
        {
          "internalType": "uint16",
          "name": "currencyId",
          "type": "uint16"
        },
        {
          "internalType": "uint40",
          "name": "maturity",
          "type": "uint40"
        }
      ],
      "name": "deployWrapper",
      "outputs": [
        {
          "internalType": "address",
          "name": "",
          "type": "address"
        }
      ],
      "stateMutability": "nonpayable",
      "type": "function"
    }
  ],
  "bytecode": "60a060405234801561001057600080fd5b50604051610fbe380380610fbe83398101604081905261002f91610040565b6001600160a01b0316608052610070565b60006020828403121561005257600080fd5b81516001600160a01b038116811461006957600080fd5b9392505050565b608051610f2d61009160003960008181609101526102f40152610f2d6000f3fe60806040523480156200001157600080fd5b5060043610620000525760003560e01c8063422a73a4146200005757806349493a4d146200008b57806395fd976514620000b3578063ba9a91a514620000ca575b600080fd5b6200006e6200006836600462000474565b620000e2565b6040516001600160a01b0390911681526020015b60405180910390f35b6200006e7f000000000000000000000000000000000000000000000000000000000000000081565b6200006e620000c436600462000474565b620001c6565b620000d3600081565b60405190815260200162000082565b600080620000f18484620001c6565b90506001600160a01b0381163b156200010c579050620001c0565b61ffff841660009081526020818152604080832064ffffffffff87168452909152812080546001600160a01b0319166001600160a01b0384161790556200016081806200015a888862000278565b62000357565b6040805161ffff8816815264ffffffffff871660208201526001600160a01b0383168183015290519192507fc83ad9c9cf773a3378ccc5ce465c8524049645b2639a8c81816a45812c2b2459919081900360600190a19150620001c09050565b92915050565b61ffff821660009081526020818152604080832064ffffffffff851684529091528120546001600160a01b0316801562000201578062000270565b62000270600062000213868662000278565b80519060200120604080516001600160f81b03196020808301919091523060601b6bffffffffffffffffffffffff191660218301526035820194909452605580820193909352815180820390930183526075019052805191012090565b949350505050565b60405161ffff8316602482015264ffffffffff8216604482015260609060009060640160408051601f19818403018152918152602080830180516001600160e01b031663054ae0e360e21b1790529051919250620002d890820162000466565b601f1982820381018352601f9091011660408190526200031f907f0000000000000000000000000000000000000000000000000000000000000000908490602001620004f4565b60408051601f19818403018152908290526200033f929160200162000538565b60405160208183030381529060405291505092915050565b60008084471015620003b05760405162461bcd60e51b815260206004820152601d60248201527f437265617465323a20696e73756666696369656e742062616c616e636500000060448201526064015b60405180910390fd5b8251600003620004035760405162461bcd60e51b815260206004820181905260248201527f437265617465323a2062797465636f6465206c656e677468206973207a65726f6044820152606401620003a7565b8383516020850187f590506001600160a01b038116620002705760405162461bcd60e51b815260206004820152601960248201527f437265617465323a204661696c6564206f6e206465706c6f79000000000000006044820152606401620003a7565b61098c806200056c83390190565b600080604083850312156200048857600080fd5b823561ffff811681146200049b57600080fd5b9150602083013564ffffffffff81168114620004b657600080fd5b809150509250929050565b60005b83811015620004de578181015183820152602001620004c4565b83811115620004ee576000848401525b50505050565b60018060a01b0383168152604060208201526000825180604084015262000523816060850160208701620004c1565b601f01601f1916919091016060019392505050565b600083516200054c818460208801620004c1565b83519083019062000562818360208801620004c1565b0194935050505056fe608060405260405161098c38038061098c8339810160408190526100229161048f565b818161004f60017fa3f0ad74e5423aebfd80d3ef4346578335a9a72aeaee59ff6cb3582b35133d5161054f565b6000805160206109458339815191521461006b5761006b610574565b61007782826000610080565b505050506105f4565b6100898361014b565b6040516001600160a01b038416907f1cf3b03a6cf19fa2baba4df148e9dcabedea7f8a5c07840e207e5c089be95d3e90600090a26000825111806100ca5750805b1561014657610144836001600160a01b0316635c60da1b6040518163ffffffff1660e01b8152600401602060405180830381865afa158015610110573d6000803e3d6000fd5b505050506040513d601f19601f82011682018060405250810190610134919061058a565b836102dc60201b6100271760201c565b505b505050565b61015e8161030860201b6100531760201c565b6101bd5760405162461bcd60e51b815260206004820152602560248201527f455243313936373a206e657720626561636f6e206973206e6f74206120636f6e6044820152641d1c9858dd60da1b60648201526084015b60405180910390fd5b610231816001600160a01b0316635c60da1b6040518163ffffffff1660e01b8152600401602060405180830381865afa1580156101fe573d6000803e3d6000fd5b505050506040513d601f19601f82011682018060405250810190610222919061058a565b61030860201b6100531760201c565b6102965760405162461bcd60e51b815260206004820152603060248201527f455243313936373a20626561636f6e20696d706c656d656e746174696f6e206960448201526f1cc81b9bdd08184818dbdb9d1c9858dd60821b60648201526084016101b4565b806102bb60008051602061094583398151915260001b61031760201b6100621760201c565b80546001600160a01b0319166001600160a01b039290921691909117905550565b606061030183836040518060600160405280602781526020016109656027913961031a565b9392505050565b6001600160a01b03163b151590565b90565b60606001600160a01b0384163b6103825760405162461bcd60e51b815260206004820152602660248201527f416464726573733a2064656c65676174652063616c6c20746f206e6f6e2d636f6044820152651b9d1c9858dd60d21b60648201526084016101b4565b600080856001600160a01b03168560405161039d91906105a5565b600060405180830381855af49150503d80600081146103d8576040519150601f19603f3d011682016040523d82523d6000602084013e6103dd565b606091505b5090925090506103ee8282866103f8565b9695505050505050565b60608315610407575081610301565b8251156104175782518084602001fd5b8160405162461bcd60e51b81526004016101b491906105c1565b80516001600160a01b038116811461044857600080fd5b919050565b634e487b7160e01b600052604160045260246000fd5b60005b8381101561047e578181015183820152602001610466565b838111156101445750506000910152565b600080604083850312156104a257600080fd5b6104ab83610431565b60208401519092506001600160401b03808211156104c857600080fd5b818501915085601f8301126104dc57600080fd5b8151818111156104ee576104ee61044d565b604051601f8201601f19908116603f011681019083821181831017156105165761051661044d565b8160405282815288602084870101111561052f57600080fd5b610540836020830160208801610463565b80955050505050509250929050565b60008282101561056f57634e487b7160e01b600052601160045260246000fd5b500390565b634e487b7160e01b600052600160045260246000fd5b60006020828403121561059c57600080fd5b61030182610431565b600082516105b7818460208701610463565b9190910192915050565b60208152600082518060208401526105e0816040850160208701610463565b601f01601f19169190910160400192915050565b610342806106036000396000f3fe60806040523661000b57005b610013610015565b005b610025610020610065565b6100fe565b565b606061004c83836040518060600160405280602781526020016102e660279139610122565b9392505050565b6001600160a01b03163b151590565b90565b60006100987fa3f0ad74e5423aebfd80d3ef4346578335a9a72aeaee59ff6cb3582b35133d50546001600160a01b031690565b6001600160a01b0316635c60da1b6040518163ffffffff1660e01b8152600401602060405180830381865afa1580156100d5573d6000803e3d6000fd5b505050506040513d601f19601f820116820180604052508101906100f9919061023d565b905090565b3660008037600080366000845af43d6000803e80801561011d573d6000f35b3d6000fd5b60606001600160a01b0384163b61018f5760405162461bcd60e51b815260206004820152602660248201527f416464726573733a2064656c65676174652063616c6c20746f206e6f6e2d636f6044820152651b9d1c9858dd60d21b60648201526084015b60405180910390fd5b600080856001600160a01b0316856040516101aa9190610296565b600060405180830381855af49150503d80600081146101e5576040519150601f19603f3d011682016040523d82523d6000602084013e6101ea565b606091505b50915091506101fa828286610204565b9695505050505050565b6060831561021357508161004c565b8251156102235782518084602001fd5b8160405162461bcd60e51b815260040161018691906102b2565b60006020828403121561024f57600080fd5b81516001600160a01b038116811461004c57600080fd5b60005b83811015610281578181015183820152602001610269565b83811115610290576000848401525b50505050565b600082516102a8818460208701610266565b9190910192915050565b60208152600082518060208401526102d1816040850160208701610266565b601f01601f1916919091016040019291505056fe416464726573733a206c6f772d6c6576656c2064656c65676174652063616c6c206661696c6564a2646970667358221220ecc7e26da440eafc78d425bfbfe4806c155bb8d418b3433c9f18edcdea924d6364736f6c634300080f0033a3f0ad74e5423aebfd80d3ef4346578335a9a72aeaee59ff6cb3582b35133d50416464726573733a206c6f772d6c6576656c2064656c65676174652063616c6c206661696c6564a26469706673582212209cd17024db5d360a616fa3d915aa5e418ab96382df7a24c6c8ca42647190033664736f6c634300080f0033",
  "bytecodeSha1": "0c000ffd69ca7869c5e2b0c93912e537dc264c24",
  "compiler": {
    "evm_version": "istanbul",
    "optimizer": {
      "enabled": true,
      "runs": 200
    },
    "version": "0.8.15+commit.e14f2714"
  },
  "contractName": "WrappedfCashFactory",
  "language": "Solidity",
  "natspec": {
    "kind": "dev",
    "methods": {},
    "stateVariables": {
      "BEACON": {
        "details": "the Beacon contract here is an UpgradeableBeacon proxy, the contract at this address can be upgraded which will upgrade all deployed wrappers."
      },
      "_cachedWrapperAddress": {
        "details": "It costs 8803 gas to compute a wrapper address but just 2100 gas to load it from storage. Since these addresses are immutable, storing it once the wrapper is deployed will pay for itself after 3 on-chain calls to computeAddress."
      }
    },
    "version": 1
  },
  "opcodes": "PUSH1 0x80 PUSH1 0x40 MSTORE CALLVALUE DUP1 ISZERO PUSH3 0x11 JUMPI PUSH1 0x0 DUP1 REVERT JUMPDEST POP PUSH1 0x4 CALLDATASIZE LT PUSH3 0x52 JUMPI PUSH1 0x0 CALLDATALOAD PUSH1 0xE0 SHR DUP1 PUSH4 0x422A73A4 EQ PUSH3 0x57 JUMPI DUP1 PUSH4 0x49493A4D EQ PUSH3 0x8B JUMPI DUP1 PUSH4 0x95FD9765 EQ PUSH3 0xB3 JUMPI DUP1 PUSH4 0xBA9A91A5 EQ PUSH3 0xCA JUMPI JUMPDEST PUSH1 0x0 DUP1 REVERT JUMPDEST PUSH3 0x6E PUSH3 0x68 CALLDATASIZE PUSH1 0x4 PUSH3 0x474 JUMP JUMPDEST PUSH3 0xE2 JUMP JUMPDEST PUSH1 0x40 MLOAD PUSH1 0x1 PUSH1 0x1 PUSH1 0xA0 SHL SUB SWAP1 SWAP2 AND DUP2 MSTORE PUSH1 0x20 ADD JUMPDEST PUSH1 0x40 MLOAD DUP1 SWAP2 SUB SWAP1 RETURN JUMPDEST PUSH3 0x6E PUSH32 0x0 DUP2 JUMP JUMPDEST PUSH3 0x6E PUSH3 0xC4 CALLDATASIZE PUSH1 0x4 PUSH3 0x474 JUMP JUMPDEST PUSH3 0x1C6 JUMP JUMPDEST PUSH3 0xD3 PUSH1 0x0 DUP2 JUMP JUMPDEST PUSH1 0x40 MLOAD SWAP1 DUP2 MSTORE PUSH1 0x20 ADD PUSH3 0x82 JUMP JUMPDEST PUSH1 0x0 DUP1 PUSH3 0xF1 DUP5 DUP5 PUSH3 0x1C6 JUMP JUMPDEST SWAP1 POP PUSH1 0x1 PUSH1 0x1 PUSH1 0xA0 SHL SUB DUP2 AND EXTCODESIZE ISZERO PUSH3 0x10C JUMPI SWAP1 POP PUSH3 0x1C0 JUMP JUMPDEST PUSH2 0xFFFF DUP5 AND PUSH1 0x0 SWAP1 DUP2 MSTORE PUSH1 0x20 DUP2 DUP2 MSTORE PUSH1 0x40 DUP1 DUP4 KECCAK256 PUSH5 0xFFFFFFFFFF DUP8 AND DUP5 MSTORE SWAP1 SWAP2 MSTORE DUP2 KECCAK256 DUP1 SLOAD PUSH1 0x1 PUSH1 0x1 PUSH1 0xA0 SHL SUB NOT AND PUSH1 0x1 PUSH1 0x1 PUSH1 0xA0 SHL SUB DUP5 AND OR SWAP1 SSTORE PUSH3 0x160 DUP2 DUP1 PUSH3 0x15A DUP9 DUP9 PUSH3 0x278 JUMP JUMPDEST PUSH3 0x357 JUMP JUMPDEST PUSH1 0x40 DUP1 MLOAD PUSH2 0xFFFF DUP9 AND DUP2 MSTORE PUSH5 0xFFFFFFFFFF DUP8 AND PUSH1 0x20 DUP3 ADD MSTORE PUSH1 0x1 PUSH1 0x1 PUSH1 0xA0 SHL SUB DUP4 AND DUP2 DUP4 ADD MSTORE SWAP1 MLOAD SWAP2 SWAP3 POP PUSH32 0xC83AD9C9CF773A3378CCC5CE465C8524049645B2639A8C81816A45812C2B2459 SWAP2 SWAP1 DUP2 SWAP1 SUB PUSH1 0x60 ADD SWAP1 LOG1 SWAP2 POP PUSH3 0x1C0 SWAP1 POP JUMP JUMPDEST SWAP3 SWAP2 POP POP JUMP JUMPDEST PUSH2 0xFFFF DUP3 AND PUSH1 0x0 SWAP1 DUP2 MSTORE PUSH1 0x20 DUP2 DUP2 MSTORE PUSH1 0x40 DUP1 DUP4 KECCAK256 PUSH5 0xFFFFFFFFFF DUP6 AND DUP5 MSTORE SWAP1 SWAP2 MSTORE DUP2 KECCAK256 SLOAD PUSH1 0x1 PUSH1 0x1 PUSH1 0xA0 SHL SUB AND DUP1 ISZERO PUSH3 0x201 JUMPI DUP1 PUSH3 0x270 JUMP JUMPDEST PUSH3 0x270 PUSH1 0x0 PUSH3 0x213 DUP7 DUP7 PUSH3 0x278 JUMP JUMPDEST DUP1 MLOAD SWAP1 PUSH1 0x20 ADD KECCAK256 PUSH1 0x40 DUP1 MLOAD PUSH1 0x1 PUSH1 0x1 PUSH1 0xF8 SHL SUB NOT PUSH1 0x20 DUP1 DUP4 ADD SWAP2 SWAP1 SWAP2 MSTORE ADDRESS PUSH1 0x60 SHL PUSH12 0xFFFFFFFFFFFFFFFFFFFFFFFF NOT AND PUSH1 0x21 DUP4 ADD MSTORE PUSH1 0x35 DUP3 ADD SWAP5 SWAP1 SWAP5 MSTORE PUSH1 0x55 DUP1 DUP3 ADD SWAP4 SWAP1 SWAP4 MSTORE DUP2 MLOAD DUP1 DUP3 SUB SWAP1 SWAP4 ADD DUP4 MSTORE PUSH1 0x75 ADD SWAP1 MSTORE DUP1 MLOAD SWAP2 ADD KECCAK256 SWAP1 JUMP JUMPDEST SWAP5 SWAP4 POP POP POP POP JUMP JUMPDEST PUSH1 0x40 MLOAD PUSH2 0xFFFF DUP4 AND PUSH1 0x24 DUP3 ADD MSTORE PUSH5 0xFFFFFFFFFF DUP3 AND PUSH1 0x44 DUP3 ADD MSTORE PUSH1 0x60 SWAP1 PUSH1 0x0 SWAP1 PUSH1 0x64 ADD PUSH1 0x40 DUP1 MLOAD PUSH1 0x1F NOT DUP2 DUP5 SUB ADD DUP2 MSTORE SWAP2 DUP2 MSTORE PUSH1 0x20 DUP1 DUP4 ADD DUP1 MLOAD PUSH1 0x1 PUSH1 0x1 PUSH1 0xE0 SHL SUB AND PUSH4 0x54AE0E3 PUSH1 0xE2 SHL OR SWAP1 MSTORE SWAP1 MLOAD SWAP2 SWAP3 POP PUSH3 0x2D8 SWAP1 DUP3 ADD PUSH3 0x466 JUMP JUMPDEST PUSH1 0x1F NOT DUP3 DUP3 SUB DUP2 ADD DUP4 MSTORE PUSH1 0x1F SWAP1 SWAP2 ADD AND PUSH1 0x40 DUP2 SWAP1 MSTORE PUSH3 0x31F SWAP1 PUSH32 0x0 SWAP1 DUP5 SWAP1 PUSH1 0x20 ADD PUSH3 0x4F4 JUMP JUMPDEST PUSH1 0x40 DUP1 MLOAD PUSH1 0x1F NOT DUP2 DUP5 SUB ADD DUP2 MSTORE SWAP1 DUP3 SWAP1 MSTORE PUSH3 0x33F SWAP3 SWAP2 PUSH1 0x20 ADD PUSH3 0x538 JUMP JUMPDEST PUSH1 0x40 MLOAD PUSH1 0x20 DUP2 DUP4 SUB SUB DUP2 MSTORE SWAP1 PUSH1 0x40 MSTORE SWAP2 POP POP SWAP3 SWAP2 POP POP JUMP JUMPDEST PUSH1 0x0 DUP1 DUP5 SELFBALANCE LT ISZERO PUSH3 0x3B0 JUMPI PUSH1 0x40 MLOAD PUSH3 0x461BCD PUSH1 0xE5 SHL DUP2 MSTORE PUSH1 0x20 PUSH1 0x4 DUP3 ADD MSTORE PUSH1 0x1D PUSH1 0x24 DUP3 ADD MSTORE PUSH32 0x437265617465323A20696E73756666696369656E742062616C616E6365000000 PUSH1 0x44 DUP3 ADD MSTORE PUSH1 0x64 ADD JUMPDEST PUSH1 0x40 MLOAD DUP1 SWAP2 SUB SWAP1 REVERT JUMPDEST DUP3 MLOAD PUSH1 0x0 SUB PUSH3 0x403 JUMPI PUSH1 0x40 MLOAD PUSH3 0x461BCD PUSH1 0xE5 SHL DUP2 MSTORE PUSH1 0x20 PUSH1 0x4 DUP3 ADD DUP2 SWAP1 MSTORE PUSH1 0x24 DUP3 ADD MSTORE PUSH32 0x437265617465323A2062797465636F6465206C656E677468206973207A65726F PUSH1 0x44 DUP3 ADD MSTORE PUSH1 0x64 ADD PUSH3 0x3A7 JUMP JUMPDEST DUP4 DUP4 MLOAD PUSH1 0x20 DUP6 ADD DUP8 CREATE2 SWAP1 POP PUSH1 0x1 PUSH1 0x1 PUSH1 0xA0 SHL SUB DUP2 AND PUSH3 0x270 JUMPI PUSH1 0x40 MLOAD PUSH3 0x461BCD PUSH1 0xE5 SHL DUP2 MSTORE PUSH1 0x20 PUSH1 0x4 DUP3 ADD MSTORE PUSH1 0x19 PUSH1 0x24 DUP3 ADD MSTORE PUSH32 0x437265617465323A204661696C6564206F6E206465706C6F7900000000000000 PUSH1 0x44 DUP3 ADD MSTORE PUSH1 0x64 ADD PUSH3 0x3A7 JUMP JUMPDEST PUSH2 0x98C DUP1 PUSH3 0x56C DUP4 CODECOPY ADD SWAP1 JUMP JUMPDEST PUSH1 0x0 DUP1 PUSH1 0x40 DUP4 DUP6 SUB SLT ISZERO PUSH3 0x488 JUMPI PUSH1 0x0 DUP1 REVERT JUMPDEST DUP3 CALLDATALOAD PUSH2 0xFFFF DUP2 AND DUP2 EQ PUSH3 0x49B JUMPI PUSH1 0x0 DUP1 REVERT JUMPDEST SWAP2 POP PUSH1 0x20 DUP4 ADD CALLDATALOAD PUSH5 0xFFFFFFFFFF DUP2 AND DUP2 EQ PUSH3 0x4B6 JUMPI PUSH1 0x0 DUP1 REVERT JUMPDEST DUP1 SWAP2 POP POP SWAP3 POP SWAP3 SWAP1 POP JUMP JUMPDEST PUSH1 0x0 JUMPDEST DUP4 DUP2 LT ISZERO PUSH3 0x4DE JUMPI DUP2 DUP2 ADD MLOAD DUP4 DUP3 ADD MSTORE PUSH1 0x20 ADD PUSH3 0x4C4 JUMP JUMPDEST DUP4 DUP2 GT ISZERO PUSH3 0x4EE JUMPI PUSH1 0x0 DUP5 DUP5 ADD MSTORE JUMPDEST POP POP POP POP JUMP JUMPDEST PUSH1 0x1 DUP1 PUSH1 0xA0 SHL SUB DUP4 AND DUP2 MSTORE PUSH1 0x40 PUSH1 0x20 DUP3 ADD MSTORE PUSH1 0x0 DUP3 MLOAD DUP1 PUSH1 0x40 DUP5 ADD MSTORE PUSH3 0x523 DUP2 PUSH1 0x60 DUP6 ADD PUSH1 0x20 DUP8 ADD PUSH3 0x4C1 JUMP JUMPDEST PUSH1 0x1F ADD PUSH1 0x1F NOT AND SWAP2 SWAP1 SWAP2 ADD PUSH1 0x60 ADD SWAP4 SWAP3 POP POP POP JUMP JUMPDEST PUSH1 0x0 DUP4 MLOAD PUSH3 0x54C DUP2 DUP5 PUSH1 0x20 DUP9 ADD PUSH3 0x4C1 JUMP JUMPDEST DUP4 MLOAD SWAP1 DUP4 ADD SWAP1 PUSH3 0x562 DUP2 DUP4 PUSH1 0x20 DUP9 ADD PUSH3 0x4C1 JUMP JUMPDEST ADD SWAP5 SWAP4 POP POP POP POP JUMP INVALID PUSH1 0x80 PUSH1 0x40 MSTORE PUSH1 0x40 MLOAD PUSH2 0x98C CODESIZE SUB DUP1 PUSH2 0x98C DUP4 CODECOPY DUP2 ADD PUSH1 0x40 DUP2 SWAP1 MSTORE PUSH2 0x22 SWAP2 PUSH2 0x48F JUMP JUMPDEST DUP2 DUP2 PUSH2 0x4F PUSH1 0x1 PUSH32 0xA3F0AD74E5423AEBFD80D3EF4346578335A9A72AEAEE59FF6CB3582B35133D51 PUSH2 0x54F JUMP JUMPDEST PUSH1 0x0 DUP1 MLOAD PUSH1 0x20 PUSH2 0x945 DUP4 CODECOPY DUP2 MLOAD SWAP2 MSTORE EQ PUSH2 0x6B JUMPI PUSH2 0x6B PUSH2 0x574 JUMP JUMPDEST PUSH2 0x77 DUP3 DUP3 PUSH1 0x0 PUSH2 0x80 JUMP JUMPDEST POP POP POP POP PUSH2 0x5F4 JUMP JUMPDEST PUSH2 0x89 DUP4 PUSH2 0x14B JUMP JUMPDEST PUSH1 0x40 MLOAD PUSH1 0x1 PUSH1 0x1 PUSH1 0xA0 SHL SUB DUP5 AND SWAP1 PUSH32 0x1CF3B03A6CF19FA2BABA4DF148E9DCABEDEA7F8A5C07840E207E5C089BE95D3E SWAP1 PUSH1 0x0 SWAP1 LOG2 PUSH1 0x0 DUP3 MLOAD GT DUP1 PUSH2 0xCA JUMPI POP DUP1 JUMPDEST ISZERO PUSH2 0x146 JUMPI PUSH2 0x144 DUP4 PUSH1 0x1 PUSH1 0x1 PUSH1 0xA0 SHL SUB AND PUSH4 0x5C60DA1B PUSH1 0x40 MLOAD DUP2 PUSH4 0xFFFFFFFF AND PUSH1 0xE0 SHL DUP2 MSTORE PUSH1 0x4 ADD PUSH1 0x20 PUSH1 0x40 MLOAD DUP1 DUP4 SUB DUP2 DUP7 GAS STATICCALL ISZERO DUP1 ISZERO PUSH2 0x110 JUMPI RETURNDATASIZE PUSH1 0x0 DUP1 RETURNDATACOPY RETURNDATASIZE PUSH1 0x0 REVERT JUMPDEST POP POP POP POP PUSH1 0x40 MLOAD RETURNDATASIZE PUSH1 0x1F NOT PUSH1 0x1F DUP3 ADD AND DUP3 ADD DUP1 PUSH1 0x40 MSTORE POP DUP2 ADD SWAP1 PUSH2 0x134 SWAP2 SWAP1 PUSH2 0x58A JUMP JUMPDEST DUP4 PUSH2 0x2DC PUSH1 0x20 SHL PUSH2 0x27 OR PUSH1 0x20 SHR JUMP JUMPDEST POP JUMPDEST POP POP POP JUMP JUMPDEST PUSH2 0x15E DUP2 PUSH2 0x308 PUSH1 0x20 SHL PUSH2 0x53 OR PUSH1 0x20 SHR JUMP JUMPDEST PUSH2 0x1BD JUMPI PUSH1 0x40 MLOAD PUSH3 0x461BCD PUSH1 0xE5 SHL DUP2 MSTORE PUSH1 0x20 PUSH1 0x4 DUP3 ADD MSTORE PUSH1 0x25 PUSH1 0x24 DUP3 ADD MSTORE PUSH32 0x455243313936373A206E657720626561636F6E206973206E6F74206120636F6E PUSH1 0x44 DUP3 ADD MSTORE PUSH5 0x1D1C9858DD PUSH1 0xDA SHL PUSH1 0x64 DUP3 ADD MSTORE PUSH1 0x84 ADD JUMPDEST PUSH1 0x40 MLOAD DUP1 SWAP2 SUB SWAP1 REVERT JUMPDEST PUSH2 0x231 DUP2 PUSH1 0x1 PUSH1 0x1 PUSH1 0xA0 SHL SUB AND PUSH4 0x5C60DA1B PUSH1 0x40 MLOAD DUP2 PUSH4 0xFFFFFFFF AND PUSH1 0xE0 SHL DUP2 MSTORE PUSH1 0x4 ADD PUSH1 0x20 PUSH1 0x40 MLOAD DUP1 DUP4 SUB DUP2 DUP7 GAS STATICCALL ISZERO DUP1 ISZERO PUSH2 0x1FE JUMPI RETURNDATASIZE PUSH1 0x0 DUP1 RETURNDATACOPY RETURNDATASIZE PUSH1 0x0 REVERT JUMPDEST POP POP POP POP PUSH1 0x40 MLOAD RETURNDATASIZE PUSH1 0x1F NOT PUSH1 0x1F DUP3 ADD AND DUP3 ADD DUP1 PUSH1 0x40 MSTORE POP DUP2 ADD SWAP1 PUSH2 0x222 SWAP2 SWAP1 PUSH2 0x58A JUMP JUMPDEST PUSH2 0x308 PUSH1 0x20 SHL PUSH2 0x53 OR PUSH1 0x20 SHR JUMP JUMPDEST PUSH2 0x296 JUMPI PUSH1 0x40 MLOAD PUSH3 0x461BCD PUSH1 0xE5 SHL DUP2 MSTORE PUSH1 0x20 PUSH1 0x4 DUP3 ADD MSTORE PUSH1 0x30 PUSH1 0x24 DUP3 ADD MSTORE PUSH32 0x455243313936373A20626561636F6E20696D706C656D656E746174696F6E2069 PUSH1 0x44 DUP3 ADD MSTORE PUSH16 0x1CC81B9BDD08184818DBDB9D1C9858DD PUSH1 0x82 SHL PUSH1 0x64 DUP3 ADD MSTORE PUSH1 0x84 ADD PUSH2 0x1B4 JUMP JUMPDEST DUP1 PUSH2 0x2BB PUSH1 0x0 DUP1 MLOAD PUSH1 0x20 PUSH2 0x945 DUP4 CODECOPY DUP2 MLOAD SWAP2 MSTORE PUSH1 0x0 SHL PUSH2 0x317 PUSH1 0x20 SHL PUSH2 0x62 OR PUSH1 0x20 SHR JUMP JUMPDEST DUP1 SLOAD PUSH1 0x1 PUSH1 0x1 PUSH1 0xA0 SHL SUB NOT AND PUSH1 0x1 PUSH1 0x1 PUSH1 0xA0 SHL SUB SWAP3 SWAP1 SWAP3 AND SWAP2 SWAP1 SWAP2 OR SWAP1 SSTORE POP JUMP JUMPDEST PUSH1 0x60 PUSH2 0x301 DUP4 DUP4 PUSH1 0x40 MLOAD DUP1 PUSH1 0x60 ADD PUSH1 0x40 MSTORE DUP1 PUSH1 0x27 DUP2 MSTORE PUSH1 0x20 ADD PUSH2 0x965 PUSH1 0x27 SWAP2 CODECOPY PUSH2 0x31A JUMP JUMPDEST SWAP4 SWAP3 POP POP POP JUMP JUMPDEST PUSH1 0x1 PUSH1 0x1 PUSH1 0xA0 SHL SUB AND EXTCODESIZE ISZERO ISZERO SWAP1 JUMP JUMPDEST SWAP1 JUMP JUMPDEST PUSH1 0x60 PUSH1 0x1 PUSH1 0x1 PUSH1 0xA0 SHL SUB DUP5 AND EXTCODESIZE PUSH2 0x382 JUMPI PUSH1 0x40 MLOAD PUSH3 0x461BCD PUSH1 0xE5 SHL DUP2 MSTORE PUSH1 0x20 PUSH1 0x4 DUP3 ADD MSTORE PUSH1 0x26 PUSH1 0x24 DUP3 ADD MSTORE PUSH32 0x416464726573733A2064656C65676174652063616C6C20746F206E6F6E2D636F PUSH1 0x44 DUP3 ADD MSTORE PUSH6 0x1B9D1C9858DD PUSH1 0xD2 SHL PUSH1 0x64 DUP3 ADD MSTORE PUSH1 0x84 ADD PUSH2 0x1B4 JUMP JUMPDEST PUSH1 0x0 DUP1 DUP6 PUSH1 0x1 PUSH1 0x1 PUSH1 0xA0 SHL SUB AND DUP6 PUSH1 0x40 MLOAD PUSH2 0x39D SWAP2 SWAP1 PUSH2 0x5A5 JUMP JUMPDEST PUSH1 0x0 PUSH1 0x40 MLOAD DUP1 DUP4 SUB DUP2 DUP6 GAS DELEGATECALL SWAP2 POP POP RETURNDATASIZE DUP1 PUSH1 0x0 DUP2 EQ PUSH2 0x3D8 JUMPI PUSH1 0x40 MLOAD SWAP2 POP PUSH1 0x1F NOT PUSH1 0x3F RETURNDATASIZE ADD AND DUP3 ADD PUSH1 0x40 MSTORE RETURNDATASIZE DUP3 MSTORE RETURNDATASIZE PUSH1 0x0 PUSH1 0x20 DUP5 ADD RETURNDATACOPY PUSH2 0x3DD JUMP JUMPDEST PUSH1 0x60 SWAP2 POP JUMPDEST POP SWAP1 SWAP3 POP SWAP1 POP PUSH2 0x3EE DUP3 DUP3 DUP7 PUSH2 0x3F8 JUMP JUMPDEST SWAP7 SWAP6 POP POP POP POP POP POP JUMP JUMPDEST PUSH1 0x60 DUP4 ISZERO PUSH2 0x407 JUMPI POP DUP2 PUSH2 0x301 JUMP JUMPDEST DUP3 MLOAD ISZERO PUSH2 0x417 JUMPI DUP3 MLOAD DUP1 DUP5 PUSH1 0x20 ADD REVERT JUMPDEST DUP2 PUSH1 0x40 MLOAD PUSH3 0x461BCD PUSH1 0xE5 SHL DUP2 MSTORE PUSH1 0x4 ADD PUSH2 0x1B4 SWAP2 SWAP1 PUSH2 0x5C1 JUMP JUMPDEST DUP1 MLOAD PUSH1 0x1 PUSH1 0x1 PUSH1 0xA0 SHL SUB DUP2 AND DUP2 EQ PUSH2 0x448 JUMPI PUSH1 0x0 DUP1 REVERT JUMPDEST SWAP2 SWAP1 POP JUMP JUMPDEST PUSH4 0x4E487B71 PUSH1 0xE0 SHL PUSH1 0x0 MSTORE PUSH1 0x41 PUSH1 0x4 MSTORE PUSH1 0x24 PUSH1 0x0 REVERT JUMPDEST PUSH1 0x0 JUMPDEST DUP4 DUP2 LT ISZERO PUSH2 0x47E JUMPI DUP2 DUP2 ADD MLOAD DUP4 DUP3 ADD MSTORE PUSH1 0x20 ADD PUSH2 0x466 JUMP JUMPDEST DUP4 DUP2 GT ISZERO PUSH2 0x144 JUMPI POP POP PUSH1 0x0 SWAP2 ADD MSTORE JUMP JUMPDEST PUSH1 0x0 DUP1 PUSH1 0x40 DUP4 DUP6 SUB SLT ISZERO PUSH2 0x4A2 JUMPI PUSH1 0x0 DUP1 REVERT JUMPDEST PUSH2 0x4AB DUP4 PUSH2 0x431 JUMP JUMPDEST PUSH1 0x20 DUP5 ADD MLOAD SWAP1 SWAP3 POP PUSH1 0x1 PUSH1 0x1 PUSH1 0x40 SHL SUB DUP1 DUP3 GT ISZERO PUSH2 0x4C8 JUMPI PUSH1 0x0 DUP1 REVERT JUMPDEST DUP2 DUP6 ADD SWAP2 POP DUP6 PUSH1 0x1F DUP4 ADD SLT PUSH2 0x4DC JUMPI PUSH1 0x0 DUP1 REVERT JUMPDEST DUP2 MLOAD DUP2 DUP2 GT ISZERO PUSH2 0x4EE JUMPI PUSH2 0x4EE PUSH2 0x44D JUMP JUMPDEST PUSH1 0x40 MLOAD PUSH1 0x1F DUP3 ADD PUSH1 0x1F NOT SWAP1 DUP2 AND PUSH1 0x3F ADD AND DUP2 ADD SWAP1 DUP4 DUP3 GT DUP2 DUP4 LT OR ISZERO PUSH2 0x516 JUMPI PUSH2 0x516 PUSH2 0x44D JUMP JUMPDEST DUP2 PUSH1 0x40 MSTORE DUP3 DUP2 MSTORE DUP9 PUSH1 0x20 DUP5 DUP8 ADD ADD GT ISZERO PUSH2 0x52F JUMPI PUSH1 0x0 DUP1 REVERT JUMPDEST PUSH2 0x540 DUP4 PUSH1 0x20 DUP4 ADD PUSH1 0x20 DUP9 ADD PUSH2 0x463 JUMP JUMPDEST DUP1 SWAP6 POP POP POP POP POP POP SWAP3 POP SWAP3 SWAP1 POP JUMP JUMPDEST PUSH1 0x0 DUP3 DUP3 LT ISZERO PUSH2 0x56F JUMPI PUSH4 0x4E487B71 PUSH1 0xE0 SHL PUSH1 0x0 MSTORE PUSH1 0x11 PUSH1 0x4 MSTORE PUSH1 0x24 PUSH1 0x0 REVERT JUMPDEST POP SUB SWAP1 JUMP JUMPDEST PUSH4 0x4E487B71 PUSH1 0xE0 SHL PUSH1 0x0 MSTORE PUSH1 0x1 PUSH1 0x4 MSTORE PUSH1 0x24 PUSH1 0x0 REVERT JUMPDEST PUSH1 0x0 PUSH1 0x20 DUP3 DUP5 SUB SLT ISZERO PUSH2 0x59C JUMPI PUSH1 0x0 DUP1 REVERT JUMPDEST PUSH2 0x301 DUP3 PUSH2 0x431 JUMP JUMPDEST PUSH1 0x0 DUP3 MLOAD PUSH2 0x5B7 DUP2 DUP5 PUSH1 0x20 DUP8 ADD PUSH2 0x463 JUMP JUMPDEST SWAP2 SWAP1 SWAP2 ADD SWAP3 SWAP2 POP POP JUMP JUMPDEST PUSH1 0x20 DUP2 MSTORE PUSH1 0x0 DUP3 MLOAD DUP1 PUSH1 0x20 DUP5 ADD MSTORE PUSH2 0x5E0 DUP2 PUSH1 0x40 DUP6 ADD PUSH1 0x20 DUP8 ADD PUSH2 0x463 JUMP JUMPDEST PUSH1 0x1F ADD PUSH1 0x1F NOT AND SWAP2 SWAP1 SWAP2 ADD PUSH1 0x40 ADD SWAP3 SWAP2 POP POP JUMP JUMPDEST PUSH2 0x342 DUP1 PUSH2 0x603 PUSH1 0x0 CODECOPY PUSH1 0x0 RETURN INVALID PUSH1 0x80 PUSH1 0x40 MSTORE CALLDATASIZE PUSH2 0xB JUMPI STOP JUMPDEST PUSH2 0x13 PUSH2 0x15 JUMP JUMPDEST STOP JUMPDEST PUSH2 0x25 PUSH2 0x20 PUSH2 0x65 JUMP JUMPDEST PUSH2 0xFE JUMP JUMPDEST JUMP JUMPDEST PUSH1 0x60 PUSH2 0x4C DUP4 DUP4 PUSH1 0x40 MLOAD DUP1 PUSH1 0x60 ADD PUSH1 0x40 MSTORE DUP1 PUSH1 0x27 DUP2 MSTORE PUSH1 0x20 ADD PUSH2 0x2E6 PUSH1 0x27 SWAP2 CODECOPY PUSH2 0x122 JUMP JUMPDEST SWAP4 SWAP3 POP POP POP JUMP JUMPDEST PUSH1 0x1 PUSH1 0x1 PUSH1 0xA0 SHL SUB AND EXTCODESIZE ISZERO ISZERO SWAP1 JUMP JUMPDEST SWAP1 JUMP JUMPDEST PUSH1 0x0 PUSH2 0x98 PUSH32 0xA3F0AD74E5423AEBFD80D3EF4346578335A9A72AEAEE59FF6CB3582B35133D50 SLOAD PUSH1 0x1 PUSH1 0x1 PUSH1 0xA0 SHL SUB AND SWAP1 JUMP JUMPDEST PUSH1 0x1 PUSH1 0x1 PUSH1 0xA0 SHL SUB AND PUSH4 0x5C60DA1B PUSH1 0x40 MLOAD DUP2 PUSH4 0xFFFFFFFF AND PUSH1 0xE0 SHL DUP2 MSTORE PUSH1 0x4 ADD PUSH1 0x20 PUSH1 0x40 MLOAD DUP1 DUP4 SUB DUP2 DUP7 GAS STATICCALL ISZERO DUP1 ISZERO PUSH2 0xD5 JUMPI RETURNDATASIZE PUSH1 0x0 DUP1 RETURNDATACOPY RETURNDATASIZE PUSH1 0x0 REVERT JUMPDEST POP POP POP POP PUSH1 0x40 MLOAD RETURNDATASIZE PUSH1 0x1F NOT PUSH1 0x1F DUP3 ADD AND DUP3 ADD DUP1 PUSH1 0x40 MSTORE POP DUP2 ADD SWAP1 PUSH2 0xF9 SWAP2 SWAP1 PUSH2 0x23D JUMP JUMPDEST SWAP1 POP SWAP1 JUMP JUMPDEST CALLDATASIZE PUSH1 0x0 DUP1 CALLDATACOPY PUSH1 0x0 DUP1 CALLDATASIZE PUSH1 0x0 DUP5 GAS DELEGATECALL RETURNDATASIZE PUSH1 0x0 DUP1 RETURNDATACOPY DUP1 DUP1 ISZERO PUSH2 0x11D JUMPI RETURNDATASIZE PUSH1 0x0 RETURN JUMPDEST RETURNDATASIZE PUSH1 0x0 REVERT JUMPDEST PUSH1 0x60 PUSH1 0x1 PUSH1 0x1 PUSH1 0xA0 SHL SUB DUP5 AND EXTCODESIZE PUSH2 0x18F JUMPI PUSH1 0x40 MLOAD PUSH3 0x461BCD PUSH1 0xE5 SHL DUP2 MSTORE PUSH1 0x20 PUSH1 0x4 DUP3 ADD MSTORE PUSH1 0x26 PUSH1 0x24 DUP3 ADD MSTORE PUSH32 0x416464726573733A2064656C65676174652063616C6C20746F206E6F6E2D636F PUSH1 0x44 DUP3 ADD MSTORE PUSH6 0x1B9D1C9858DD PUSH1 0xD2 SHL PUSH1 0x64 DUP3 ADD MSTORE PUSH1 0x84 ADD JUMPDEST PUSH1 0x40 MLOAD DUP1 SWAP2 SUB SWAP1 REVERT JUMPDEST PUSH1 0x0 DUP1 DUP6 PUSH1 0x1 PUSH1 0x1 PUSH1 0xA0 SHL SUB AND DUP6 PUSH1 0x40 MLOAD PUSH2 0x1AA SWAP2 SWAP1 PUSH2 0x296 JUMP JUMPDEST PUSH1 0x0 PUSH1 0x40 MLOAD DUP1 DUP4 SUB DUP2 DUP6 GAS DELEGATECALL SWAP2 POP POP RETURNDATASIZE DUP1 PUSH1 0x0 DUP2 EQ PUSH2 0x1E5 JUMPI PUSH1 0x40 MLOAD SWAP2 POP PUSH1 0x1F NOT PUSH1 0x3F RETURNDATASIZE ADD AND DUP3 ADD PUSH1 0x40 MSTORE RETURNDATASIZE DUP3 MSTORE RETURNDATASIZE PUSH1 0x0 PUSH1 0x20 DUP5 ADD RETURNDATACOPY PUSH2 0x1EA JUMP JUMPDEST PUSH1 0x60 SWAP2 POP JUMPDEST POP SWAP2 POP SWAP2 POP PUSH2 0x1FA DUP3 DUP3 DUP7 PUSH2 0x204 JUMP JUMPDEST SWAP7 SWAP6 POP POP POP POP POP POP JUMP JUMPDEST PUSH1 0x60 DUP4 ISZERO PUSH2 0x213 JUMPI POP DUP2 PUSH2 0x4C JUMP JUMPDEST DUP3 MLOAD ISZERO PUSH2 0x223 JUMPI DUP3 MLOAD DUP1 DUP5 PUSH1 0x20 ADD REVERT JUMPDEST DUP2 PUSH1 0x40 MLOAD PUSH3 0x461BCD PUSH1 0xE5 SHL DUP2 MSTORE PUSH1 0x4 ADD PUSH2 0x186 SWAP2 SWAP1 PUSH2 0x2B2 JUMP JUMPDEST PUSH1 0x0 PUSH1 0x20 DUP3 DUP5 SUB SLT ISZERO PUSH2 0x24F JUMPI PUSH1 0x0 DUP1 REVERT JUMPDEST DUP2 MLOAD PUSH1 0x1 PUSH1 0x1 PUSH1 0xA0 SHL SUB DUP2 AND DUP2 EQ PUSH2 0x4C JUMPI PUSH1 0x0 DUP1 REVERT JUMPDEST PUSH1 0x0 JUMPDEST DUP4 DUP2 LT ISZERO PUSH2 0x281 JUMPI DUP2 DUP2 ADD MLOAD DUP4 DUP3 ADD MSTORE PUSH1 0x20 ADD PUSH2 0x269 JUMP JUMPDEST DUP4 DUP2 GT ISZERO PUSH2 0x290 JUMPI PUSH1 0x0 DUP5 DUP5 ADD MSTORE JUMPDEST POP POP POP POP JUMP JUMPDEST PUSH1 0x0 DUP3 MLOAD PUSH2 0x2A8 DUP2 DUP5 PUSH1 0x20 DUP8 ADD PUSH2 0x266 JUMP JUMPDEST SWAP2 SWAP1 SWAP2 ADD SWAP3 SWAP2 POP POP JUMP JUMPDEST PUSH1 0x20 DUP2 MSTORE PUSH1 0x0 DUP3 MLOAD DUP1 PUSH1 0x20 DUP5 ADD MSTORE PUSH2 0x2D1 DUP2 PUSH1 0x40 DUP6 ADD PUSH1 0x20 DUP8 ADD PUSH2 0x266 JUMP JUMPDEST PUSH1 0x1F ADD PUSH1 0x1F NOT AND SWAP2 SWAP1 SWAP2 ADD PUSH1 0x40 ADD SWAP3 SWAP2 POP POP JUMP INVALID COINBASE PUSH5 0x6472657373 GASPRICE KECCAK256 PUSH13 0x6F772D6C6576656C2064656C65 PUSH8 0x6174652063616C6C KECCAK256 PUSH7 0x61696C6564A264 PUSH10 0x70667358221220ECC7E2 PUSH14 0xA440EAFC78D425BFBFE4806C155B 0xB8 0xD4 XOR 0xB3 NUMBER EXTCODECOPY SWAP16 XOR 0xED 0xCD 0xEA SWAP3 0x4D PUSH4 0x64736F6C PUSH4 0x4300080F STOP CALLER LOG3 CREATE 0xAD PUSH21 0xE5423AEBFD80D3EF4346578335A9A72AEAEE59FF6C 0xB3 PC 0x2B CALLDATALOAD SGT RETURNDATASIZE POP COINBASE PUSH5 0x6472657373 GASPRICE KECCAK256 PUSH13 0x6F772D6C6576656C2064656C65 PUSH8 0x6174652063616C6C KECCAK256 PUSH7 0x61696C6564A264 PUSH10 0x706673582212209CD170 0x24 0xDB 0x5D CALLDATASIZE EXP PUSH2 0x6FA3 0xD9 ISZERO 0xAA 0x5E COINBASE DUP11 0xB9 PUSH4 0x82DF7A24 0xC6 0xC8 0xCA TIMESTAMP PUSH5 0x7190033664 PUSH20 0x6F6C634300080F00330000000000000000000000 ",
  "sha1": "52a79f2ff1d268b644588afd5948b28346f92eda",
  "source": "// SPDX-License-Identifier: MIT\npragma solidity 0.8.15;\n\nimport \"@openzeppelin/contracts/utils/Create2.sol\";\nimport \"./nBeaconProxy.sol\";\n\ncontract WrappedfCashFactory {\n\n    /// @dev the Beacon contract here is an UpgradeableBeacon proxy, the contract\n    /// at this address can be upgraded which will upgrade all deployed wrappers.\n    address public immutable BEACON;\n    bytes32 public constant SALT = 0;\n\n    /// @dev It costs 8803 gas to compute a wrapper address but just 2100 gas to load it\n    /// from storage. Since these addresses are immutable, storing it once the wrapper is\n    /// deployed will pay for itself after 3 on-chain calls to computeAddress.\n    mapping(uint256 => mapping(uint256 => address)) internal _cachedWrapperAddress;\n\n    /// @notice Emitted when a new fCash wrapper has been deployed\n    event WrapperDeployed(uint16 currencyId, uint40 maturity, address wrapper);\n\n    constructor(address _beacon) {\n        BEACON = _beacon;\n    }\n\n    function _getByteCode(uint16 currencyId, uint40 maturity) internal view returns (bytes memory) {\n        bytes memory initCallData = abi.encodeWithSignature(\"initialize(uint16,uint40)\", currencyId, maturity);\n        return abi.encodePacked(type(nBeaconProxy).creationCode, abi.encode(BEACON, initCallData));\n    }\n\n    function deployWrapper(uint16 currencyId, uint40 maturity) external returns (address) {\n        address _computedWrapper = computeAddress(currencyId, maturity);\n\n        if (Address.isContract(_computedWrapper)) {\n            // If wrapper has already been deployed then just return it's address\n            return _computedWrapper;\n        } else {\n            // Cache the computed wrapper address upon deployment\n            _cachedWrapperAddress[currencyId][maturity] = _computedWrapper;\n\n            address wrapper = Create2.deploy(0, SALT, _getByteCode(currencyId, maturity));\n            emit WrapperDeployed(currencyId, maturity, wrapper);\n            return wrapper;\n        }\n    }\n\n    function computeAddress(uint16 currencyId, uint40 maturity) public view returns (address) {\n        address cachedAddress = _cachedWrapperAddress[currencyId][maturity];\n        \n        // Returns the cached address in the case when the wrapper is already deployed, otherwise\n        // compute the address which costs more gas.\n        return cachedAddress == address(0) ?\n            Create2.computeAddress(SALT, keccak256(_getByteCode(currencyId, maturity))) :\n            cachedAddress;\n    }\n}",
  "sourcePath": "contracts/proxy/WrappedfCashFactory.sol",
  "type": "contract"
}